{
  "hash": "0x9aeecf131f528a4354773f466b96e004d174c0855e01857e8b9fccff95ba1014",
  "parentHash": "0x4eaea64247cb25d3dbf775a905db770630359eb39a2bb6bf147afa3e67078bd3",
  "number": 114081,
  "timestamp": 1440034603,
  "nonce": "0xbc43a8f8da98671f",
  "difficulty": 4446903935878,
  "gasLimit": {
    "_hex": "0x2fefd8"
  },
  "gasUsed": {
    "_hex": "0x5208"
  },
  "miner": "0x007f7f58D3eb5b7510A301eCC749FC1fCDDBE14D",
  "extraData": "0x476574682f76312e302e312f77696e646f77732f676f312e342e32",
  "transactions": [
    {
      "hash": "0xe11bff1d8418fe4ebf2f12afb7b3a8a0aecbea897e0bccd19ea701be46c36a71",
      "blockHash": "0x9aeecf131f528a4354773f466b96e004d174c0855e01857e8b9fccff95ba1014",
      "blockNumber": 114081,
      "transactionIndex": 0,
      "confirmations": null,
      "from": "0x2dC0950003aEa14Af0c9E3439E59cf8e79Fa569d",
      "gasPrice": {
        "_hex": "0xd4e99c3d0"
      },
      "gasLimit": {
        "_hex": "0x15f90"
      },
      "to": "0xf8a58969d2FbBf009542432480fe2D49037Ed976",
      "value": {
        "_hex": "0x8ac7230489e80000"
      },
      "nonce": 3,
      "data": "0x",
      "r": "0x060abc33f97006152a3f93ac0711d14d9ed6076636e84c2c3d65c746055d6a54",
      "s": "0x3e7beef6bfa5150d588f12c437453836afe6f340df9272c26325e93241e6ccd2",
      "v": 27,
      "creates": null,
      "raw": "0xf86d03850d4e99c3d083015f9094f8a58969d2fbbf009542432480fe2d49037ed976888ac7230489e80000801ba0060abc33f97006152a3f93ac0711d14d9ed6076636e84c2c3d65c746055d6a54a03e7beef6bfa5150d588f12c437453836afe6f340df9272c26325e93241e6ccd2",
      "networkId": 0,
      "chainId": 0
    }
  ]
}