{
  "hash": "0xe8d297d55d82cc299958a5511a94fb149dbc66c975334890ecb502eb3fcb5412",
  "parentHash": "0xc3efdeb952b0a3ab257929978b6405214f238510fc40fa72341a0fdae82d7726",
  "number": 80418,
  "timestamp": 1439485246,
  "nonce": "0x1fdd108e9a1925c1",
  "difficulty": 2400352338290,
  "gasLimit": {
    "_hex": "0x2fefd8"
  },
  "gasUsed": {
    "_hex": "0xaa37"
  },
  "miner": "0xE87470b43FA5904a32866396B2f798D898c13978",
  "extraData": "0x",
  "transactions": [
    {
      "hash": "0x553548393e4ed5f0b70ca8e316cb7059cbfdb1154dd7eece0d9d82ee09785548",
      "blockHash": "0xe8d297d55d82cc299958a5511a94fb149dbc66c975334890ecb502eb3fcb5412",
      "blockNumber": 80418,
      "transactionIndex": 0,
      "confirmations": null,
      "from": "0x87C5B5874A18B4306DF8a752a6C8cc3E82daFc19",
      "gasPrice": {
        "_hex": "0x1107a02a832"
      },
      "gasLimit": {
        "_hex": "0x493e0"
      },
      "to": "0xC4c51de1AbF5D60DBd329eC0F999Fd8f021ae9fC",
      "value": {
        "_hex": "0x0"
      },
      "nonce": 202,
      "data": "0x03750d9400000000000000000000000087c5b5874a18b4306df8a752a6c8cc3e82dafc196b6b6b0000000000000000000000000000000000000000000000000000000000",
      "r": "0x01518759cbd0bdf2e5b7f30215ae49b3e9bf1e3aa5cabdacd887c5ba9bb31a69",
      "s": "0x740d1e8a154eb127f7a29293ae67114217d5b2428cb1424cac2c99807221691a",
      "v": 27,
      "creates": null,
      "raw": "0xf8ac81ca8601107a02a832830493e094c4c51de1abf5d60dbd329ec0f999fd8f021ae9fc80b84403750d9400000000000000000000000087c5b5874a18b4306df8a752a6c8cc3e82dafc196b6b6b00000000000000000000000000000000000000000000000000000000001ba001518759cbd0bdf2e5b7f30215ae49b3e9bf1e3aa5cabdacd887c5ba9bb31a69a0740d1e8a154eb127f7a29293ae67114217d5b2428cb1424cac2c99807221691a",
      "networkId": 0,
      "chainId": 0
    }
  ]
}