{
  "hash": "0x7340d0a3976bf868e21496ee5905329f50551575820c20a5bee469c2fe7e1d5e",
  "parentHash": "0x912958919f4e82d23e9ce4e0f8f5fa00c8b32fea72c4a20c219bd29caaf0d474",
  "number": 119419,
  "timestamp": 1440142582,
  "nonce": "0x1646fb7f7e8d16b2",
  "difficulty": 4392300049241,
  "gasLimit": {
    "_hex": "0x2fefd8"
  },
  "gasUsed": {
    "_hex": "0xf618"
  },
  "miner": "0xe6A7a1d47ff21B6321162AEA7C6CB457D5476Bca",
  "extraData": "0xd783010002844765746887676f312e342e32856c696e7578",
  "transactions": [
    {
      "hash": "0x97f2b616382d26746f312acb01561edfa8b5a85a396134b627619d4ea1394e87",
      "blockHash": "0x7340d0a3976bf868e21496ee5905329f50551575820c20a5bee469c2fe7e1d5e",
      "blockNumber": 119419,
      "transactionIndex": 0,
      "confirmations": null,
      "from": "0x9cF18B3eb373C383a42d06136ba331D766ed9Fbb",
      "gasPrice": {
        "_hex": "0xc9a6119be"
      },
      "gasLimit": {
        "_hex": "0x5208"
      },
      "to": "0x32Be343B94f860124dC4fEe278FDCBD38C102D88",
      "value": {
        "_hex": "0x2b93610c2542bc00"
      },
      "nonce": 13,
      "data": "0x",
      "r": "0x15e4f3eeaed2e6ce85f8a077e9572fe2020e3453f5ef28bf3d245af88a0ed123",
      "s": "0x12a5c99674dc5555b43201382a4f064140a98345d4d95f6f3461c8c65452960c",
      "v": 28,
      "creates": null,
      "raw": "0xf86c0d850c9a6119be8252089432be343b94f860124dc4fee278fdcbd38c102d88882b93610c2542bc00801ca015e4f3eeaed2e6ce85f8a077e9572fe2020e3453f5ef28bf3d245af88a0ed123a012a5c99674dc5555b43201382a4f064140a98345d4d95f6f3461c8c65452960c",
      "networkId": 0,
      "chainId": 0
    },
    {
      "hash": "0xead7b19233b971148e589af136f8da954adf2da06060b751cbca08902ae33021",
      "blockHash": "0x7340d0a3976bf868e21496ee5905329f50551575820c20a5bee469c2fe7e1d5e",
      "blockNumber": 119419,
      "transactionIndex": 1,
      "confirmations": null,
      "from": "0xF0224ea727d4924A8dd69a8d2d473Cc4c3590423",
      "gasPrice": {
        "_hex": "0xc9a6119be"
      },
      "gasLimit": {
        "_hex": "0x5208"
      },
      "to": "0x32Be343B94f860124dC4fEe278FDCBD38C102D88",
      "value": {
        "_hex": "0x42522248a5502400"
      },
      "nonce": 16,
      "data": "0x",
      "r": "0xc61efbb011c95322660558eb356d25cec3d1aed52ab2835245761cc0a8eb7f23",
      "s": "0x73c8725ee0c96e2db28141e4ec9ed47ab91e957bf8bb92e56b9104edc55221b5",
      "v": 27,
      "creates": null,
      "raw": "0xf86c10850c9a6119be8252089432be343b94f860124dc4fee278fdcbd38c102d888842522248a5502400801ba0c61efbb011c95322660558eb356d25cec3d1aed52ab2835245761cc0a8eb7f23a073c8725ee0c96e2db28141e4ec9ed47ab91e957bf8bb92e56b9104edc55221b5",
      "networkId": 0,
      "chainId": 0
    },
    {
      "hash": "0xc2709517f8c1fe94e4cda70a51c438f60edd0363f6012af8bfd8861d3bdc5cb1",
      "blockHash": "0x7340d0a3976bf868e21496ee5905329f50551575820c20a5bee469c2fe7e1d5e",
      "blockNumber": 119419,
      "transactionIndex": 2,
      "confirmations": null,
      "from": "0x52bc44d5378309EE2abF1539BF71dE1b7d7bE3b5",
      "gasPrice": {
        "_hex": "0xba43b7400"
      },
      "gasLimit": {
        "_hex": "0x61a8"
      },
      "to": "0x96811Ad897894eC178872117C8BF2f03971A393B",
      "value": {
        "_hex": "0xa9b3fd3bfb2da900"
      },
      "nonce": 612,
      "data": "0x",
      "r": "0xd2473232b8b3f4a6621e6e3dea861fedda7b6eb8f2b7bbb34bb4ff3ea8ebd093",
      "s": "0x389b76181ecf69bbdccae6c439dd3bf9f2eca1ab9f942c4c14f5336d426c68c0",
      "v": 28,
      "creates": null,
      "raw": "0xf86e820264850ba43b74008261a89496811ad897894ec178872117c8bf2f03971a393b88a9b3fd3bfb2da900801ca0d2473232b8b3f4a6621e6e3dea861fedda7b6eb8f2b7bbb34bb4ff3ea8ebd093a0389b76181ecf69bbdccae6c439dd3bf9f2eca1ab9f942c4c14f5336d426c68c0",
      "networkId": 0,
      "chainId": 0
    }
  ]
}