{
  "hash": "0x11068762edcf96dbfb9d5389de3c6e3f6c52f8f282493bcc755e2e290a6477dd",
  "parentHash": "0x19f457bff14922c14af028a111ec2b6a2f5ab81b3762c90206c5fed390ea0189",
  "number": 72147,
  "timestamp": 1439348072,
  "nonce": "0x15d1e02cf158a94d",
  "difficulty": 2175982774411,
  "gasLimit": {
    "_hex": "0x2fefd8"
  },
  "gasUsed": {
    "_hex": "0x9400"
  },
  "miner": "0x3222BA3F3e79eA0e31467EEE7639B57923558cCD",
  "extraData": "0x",
  "transactions": [
    {
      "hash": "0x2d7ecf25a7d6849b22a50eb929f462fa943637469e66cfc1b4bce8a73f858a68",
      "blockHash": "0x11068762edcf96dbfb9d5389de3c6e3f6c52f8f282493bcc755e2e290a6477dd",
      "blockNumber": 72147,
      "transactionIndex": 0,
      "confirmations": null,
      "from": "0x17580B766f7453525ca4C6A88b01b50570EA088C",
      "gasPrice": {
        "_hex": "0xe0188893c"
      },
      "gasLimit": {
        "_hex": "0x61a80"
      },
      "to": "0x5Fe5B7546D1628f7348B023A0393de1FC825A4fD",
      "value": {
        "_hex": "0x53444835ec580000"
      },
      "nonce": 328,
      "data": "0xb595b8b50000000000000000000000000000000000000000000000000000000000000001",
      "r": "0xde537bcdb217383823c5de967d4de669415c24b884be30fe5689a11d8a632c04",
      "s": "0x188bebe99bc8b850930ce4df209174d510629126d6e0c67025e24ab39d6377ff",
      "v": 28,
      "creates": null,
      "raw": "0xf893820148850e0188893c83061a80945fe5b7546d1628f7348b023a0393de1fc825a4fd8853444835ec580000a4b595b8b500000000000000000000000000000000000000000000000000000000000000011ca0de537bcdb217383823c5de967d4de669415c24b884be30fe5689a11d8a632c04a0188bebe99bc8b850930ce4df209174d510629126d6e0c67025e24ab39d6377ff",
      "networkId": 0,
      "chainId": 0
    }
  ]
}