{
  "hash": "0x42d5963d09212b609a14dc44aaf1699aad36fc33b09dfac21021f36f1f4031fd",
  "parentHash": "0xda358dd2f8693417276caa281060771666dd5e07a429d65ca4251b77de4f47fe",
  "number": 97018,
  "timestamp": 1439749607,
  "nonce": "0xeba04ff4945a3948",
  "difficulty": 3743143466873,
  "gasLimit": {
    "_hex": "0x2fefd8"
  },
  "gasUsed": {
    "_hex": "0x5208"
  },
  "miner": "0xc15fa6D616245a5c7B7D75A6dFDcA10C0250BD2B",
  "extraData": "0x476574682f76312e302e312f77696e646f77732f676f312e342e32",
  "transactions": [
    {
      "hash": "0xc193e44cbda6b238f7d4d4cf01abeb466cf50aa04efd5dd9449e2e673ef1d154",
      "blockHash": "0x42d5963d09212b609a14dc44aaf1699aad36fc33b09dfac21021f36f1f4031fd",
      "blockNumber": 97018,
      "transactionIndex": 0,
      "confirmations": null,
      "from": "0x0AB366E6e7D5AbbcE6B44A438d69a1caBb90d133",
      "gasPrice": {
        "_hex": "0xcd2df8063"
      },
      "gasLimit": {
        "_hex": "0x15f90"
      },
      "to": "0xeb5E8925925042dA3Afd0e8062146DB0b2d394A3",
      "value": {
        "_hex": "0x470de4df820000"
      },
      "nonce": 2,
      "data": "0x",
      "r": "0x3918a2cfd0aeb0813e18f789b4557b075d695dc2af477bd374b2256854bbbd9a",
      "s": "0x01cbee4f66eb39bcfee444d235c25e5a1f701d7c8cd4f097f68ca86b87509034",
      "v": 27,
      "creates": null,
      "raw": "0xf86c02850cd2df806383015f9094eb5e8925925042da3afd0e8062146db0b2d394a387470de4df820000801ba03918a2cfd0aeb0813e18f789b4557b075d695dc2af477bd374b2256854bbbd9aa001cbee4f66eb39bcfee444d235c25e5a1f701d7c8cd4f097f68ca86b87509034",
      "networkId": 0,
      "chainId": 0
    }
  ]
}