{
  "hash": "0xfb9b08b98b6e95d6d9e8f19093e32d2dc0857852ed806d10591981e4ffad54ed",
  "parentHash": "0xb9c5834c92e8a9a10652c79808239cf4d729e5c2c05e421048c2ca16d475305d",
  "number": 107125,
  "timestamp": 1439916557,
  "nonce": "0x29211c93883c2545",
  "difficulty": 4463650892508,
  "gasLimit": {
    "_hex": "0x2fefd8"
  },
  "gasUsed": {
    "_hex": "0x5208"
  },
  "miner": "0xe6A7a1d47ff21B6321162AEA7C6CB457D5476Bca",
  "extraData": "0x476574682f76312e302e312d38326566323666362f6c696e75782f676f312e34",
  "transactions": [
    {
      "hash": "0x9d250642d0cda22bd94d0bb544f8171a35c2974ab000e4c0af300c431e1c7dd9",
      "blockHash": "0xfb9b08b98b6e95d6d9e8f19093e32d2dc0857852ed806d10591981e4ffad54ed",
      "blockNumber": 107125,
      "transactionIndex": 0,
      "confirmations": null,
      "from": "0xc597A5d92F5dC1137D847db733cfe02c6d209f13",
      "gasPrice": {
        "_hex": "0xba43b7400"
      },
      "gasLimit": {
        "_hex": "0x15f90"
      },
      "to": "0x5F965F10e1BD020753Ca496fee6b3E4D809aff67",
      "value": {
        "_hex": "0x2b5ae64ab09e68000"
      },
      "nonce": 40,
      "data": "0x",
      "r": "0xdeb9b3edb57de4c035b97d425d4e0fc0fc5475681926e17e0a1d78a52d103ec4",
      "s": "0x4efe6a3cf5f710cba27b28687bca778d75b76d80806c1eb697980796f3ecaf3a",
      "v": 27,
      "creates": null,
      "raw": "0xf86e28850ba43b740083015f90945f965f10e1bd020753ca496fee6b3e4d809aff678902b5ae64ab09e68000801ba0deb9b3edb57de4c035b97d425d4e0fc0fc5475681926e17e0a1d78a52d103ec4a04efe6a3cf5f710cba27b28687bca778d75b76d80806c1eb697980796f3ecaf3a",
      "networkId": 0,
      "chainId": 0
    }
  ]
}