{
  "hash": "0x0adac7c0a30d2b5000cccf6feee844f16def217af4a7b4940776c77049ff1f67",
  "parentHash": "0x444f156e4974c302710412cdc9f738ad2a667571a323bed6999ad5f64ee62288",
  "number": 96107,
  "timestamp": 1439735025,
  "nonce": "0x08032df2ea01d797",
  "difficulty": 3637242214842,
  "gasLimit": {
    "_hex": "0x2fefd8"
  },
  "gasUsed": {
    "_hex": "0x3034b"
  },
  "miner": "0xe6A7a1d47ff21B6321162AEA7C6CB457D5476Bca",
  "extraData": "0x476574682f76312e302e312d38326566323666362f6c696e75782f676f312e34",
  "transactions": [
    {
      "hash": "0x0037df6849b9c9d58f09342454a1e8da96081f1b570771895214e41a85a0ca02",
      "blockHash": "0x0adac7c0a30d2b5000cccf6feee844f16def217af4a7b4940776c77049ff1f67",
      "blockNumber": 96107,
      "transactionIndex": 0,
      "confirmations": null,
      "from": "0x07DD04f7355E91a3556482a927Dfa3122a2AD580",
      "gasPrice": {
        "_hex": "0xd6f6935fa"
      },
      "gasLimit": {
        "_hex": "0xf4240"
      },
      "to": null,
      "value": {
        "_hex": "0x0"
      },
      "nonce": 3,
      "data": "0x60606040526040516020806102518339016040526060805190602001505b80600060005060003373ffffffffffffffffffffffffffffffffffffffff168152602001908152602001600020600050819055505b506101ef806100626000396000f30060606040526000357c01000000000000000000000000000000000000000000000000000000009004806390b98a1114610044578063bbd39ac01461007157610042565b005b61005b6004803590602001803590602001506100b3565b6040518082815260200191505060405180910390f35b610082600480359060200150610098565b6040518082815260200191505060405180910390f35b60006000506020528060005260406000206000915090505481565b600081600060005060003373ffffffffffffffffffffffffffffffffffffffff1681526020019081526020016000206000505410156100f557600090506101e9565b81600060005060003373ffffffffffffffffffffffffffffffffffffffff16815260200190815260200160002060008282825054039250508190555081600060005060008573ffffffffffffffffffffffffffffffffffffffff1681526020019081526020016000206000828282505401925050819055507f16cdf1707799c6655baac6e210f52b94b7cec08adcaf9ede7dfe8649da926146338484604051808473ffffffffffffffffffffffffffffffffffffffff1681526020018373ffffffffffffffffffffffffffffffffffffffff168152602001828152602001935050505060405180910390a1600190506101e9565b92915050560000000000000000000000000000000000000000000000000000000000002710",
      "r": "0xd80286451aae56606740661ef7ed7dde0c6a0df94ab575614ff9035b6658c9dc",
      "s": "0x4d5c696f6eec56be6cfe8e61454588e682e482b74e086f0782b3bc2c37b2570e",
      "v": 28,
      "creates": "0x5B02e5Df994497Cb6D50237ca83F295e18C4a841",
      "raw": "0xf902c403850d6f6935fa830f42408080b9027160606040526040516020806102518339016040526060805190602001505b80600060005060003373ffffffffffffffffffffffffffffffffffffffff168152602001908152602001600020600050819055505b506101ef806100626000396000f30060606040526000357c01000000000000000000000000000000000000000000000000000000009004806390b98a1114610044578063bbd39ac01461007157610042565b005b61005b6004803590602001803590602001506100b3565b6040518082815260200191505060405180910390f35b610082600480359060200150610098565b6040518082815260200191505060405180910390f35b60006000506020528060005260406000206000915090505481565b600081600060005060003373ffffffffffffffffffffffffffffffffffffffff1681526020019081526020016000206000505410156100f557600090506101e9565b81600060005060003373ffffffffffffffffffffffffffffffffffffffff16815260200190815260200160002060008282825054039250508190555081600060005060008573ffffffffffffffffffffffffffffffffffffffff1681526020019081526020016000206000828282505401925050819055507f16cdf1707799c6655baac6e210f52b94b7cec08adcaf9ede7dfe8649da926146338484604051808473ffffffffffffffffffffffffffffffffffffffff1681526020018373ffffffffffffffffffffffffffffffffffffffff168152602001828152602001935050505060405180910390a1600190506101e9565b929150505600000000000000000000000000000000000000000000000000000000000027101ca0d80286451aae56606740661ef7ed7dde0c6a0df94ab575614ff9035b6658c9dca04d5c696f6eec56be6cfe8e61454588e682e482b74e086f0782b3bc2c37b2570e",
      "networkId": 0,
      "chainId": 0
    },
    {
      "hash": "0x343f68b37c4144bb97075457a3e890899d315647fb7349bef3fa47a613d05dff",
      "blockHash": "0x0adac7c0a30d2b5000cccf6feee844f16def217af4a7b4940776c77049ff1f67",
      "blockNumber": 96107,
      "transactionIndex": 1,
      "confirmations": null,
      "from": "0x007f7f58D3eb5b7510A301eCC749FC1fCDDBE14D",
      "gasPrice": {
        "_hex": "0xcc8ddf695"
      },
      "gasLimit": {
        "_hex": "0x15f90"
      },
      "to": "0xb1abce2918E21ddb93AA452731a12672A3d9F75a",
      "value": {
        "_hex": "0x4563918244f40000"
      },
      "nonce": 69,
      "data": "0x",
      "r": "0x27dfde828196b48db3e7e87c8aca0d97addb3599a81c9ff066e7dc099f358e3a",
      "s": "0x3088bbdbe27bcf3e27c4620a5f3e0827539dde763794a027f431b55ae1f3aeed",
      "v": 28,
      "creates": null,
      "raw": "0xf86d45850cc8ddf69583015f9094b1abce2918e21ddb93aa452731a12672a3d9f75a884563918244f40000801ca027dfde828196b48db3e7e87c8aca0d97addb3599a81c9ff066e7dc099f358e3aa03088bbdbe27bcf3e27c4620a5f3e0827539dde763794a027f431b55ae1f3aeed",
      "networkId": 0,
      "chainId": 0
    }
  ]
}