{
  "hash": "0x58fd67325cf23d8f9a864a4286bdf3ef3c82fc23cf4f80e64867654b0439b10f",
  "parentHash": "0xcd24c12c9fe824cb25a0d81be3d4cb49719f0cf3f255e216746925e0db281fd4",
  "number": 55692,
  "timestamp": 1439075158,
  "nonce": "0xf8aec8cb3b88fd11",
  "difficulty": 1609976079909,
  "gasLimit": {
    "_hex": "0x2fefd5"
  },
  "gasUsed": {
    "_hex": "0xb845"
  },
  "miner": "0x9258E9B67440f712B7ae120CB8233baDCB1845ea",
  "extraData": "0x476574682f76312e302e312f77696e646f77732f676f312e342e32",
  "transactions": [
    {
      "hash": "0x7fd732aa6c638c4acd40926b8e99679a3b60e5cc848399f2c82782c5b8e0c367",
      "blockHash": "0x58fd67325cf23d8f9a864a4286bdf3ef3c82fc23cf4f80e64867654b0439b10f",
      "blockNumber": 55692,
      "transactionIndex": 0,
      "confirmations": null,
      "from": "0x32Be343B94f860124dC4fEe278FDCBD38C102D88",
      "gasPrice": {
        "_hex": "0xdc74baeac"
      },
      "gasLimit": {
        "_hex": "0x5208"
      },
      "to": "0x02891C2e80ad09cF0C66D04FAB68d678Fd70B99c",
      "value": {
        "_hex": "0x8e1bc9bf040000"
      },
      "nonce": 76,
      "data": "0x",
      "r": "0x9fea4bbc3289950e562bde790af17e01cc595aadaabfc2a1a52c0889c1212e90",
      "s": "0x4f98530fffe5f2fe4511b8ae1cca447efb77edd2fa4e8cdd902a2a04275c6db5",
      "v": 28,
      "creates": null,
      "raw": "0xf86b4c850dc74baeac8252089402891c2e80ad09cf0c66d04fab68d678fd70b99c878e1bc9bf040000801ca09fea4bbc3289950e562bde790af17e01cc595aadaabfc2a1a52c0889c1212e90a04f98530fffe5f2fe4511b8ae1cca447efb77edd2fa4e8cdd902a2a04275c6db5",
      "networkId": 0,
      "chainId": 0
    },
    {
      "hash": "0x9d6aaacd64dbe0e1124d3a26f1c8dad08f9f007f73576403057cf3182de6ec0f",
      "blockHash": "0x58fd67325cf23d8f9a864a4286bdf3ef3c82fc23cf4f80e64867654b0439b10f",
      "blockNumber": 55692,
      "transactionIndex": 1,
      "confirmations": null,
      "from": "0xc70bA22fe446A85A247bf85BaD1AdDf3ddaF62E9",
      "gasPrice": {
        "_hex": "0xd58baae15"
      },
      "gasLimit": {
        "_hex": "0x15f90"
      },
      "to": "0xb87824547dB80F1fb37D0225B99F1A602f8642AD",
      "value": {
        "_hex": "0x190"
      },
      "nonce": 13,
      "data": "0x",
      "r": "0x41776b54827b9e68280dbb1b37ae1fdd18ae44635adf83a7e762083f24d2f36d",
      "s": "0x10aa6a620c0a31cfbab2e0b6bc9a54988ff9c22a50f5e44683c7beb836102e71",
      "v": 27,
      "creates": null,
      "raw": "0xf8670d850d58baae1583015f9094b87824547db80f1fb37d0225b99f1a602f8642ad820190801ba041776b54827b9e68280dbb1b37ae1fdd18ae44635adf83a7e762083f24d2f36da010aa6a620c0a31cfbab2e0b6bc9a54988ff9c22a50f5e44683c7beb836102e71",
      "networkId": 0,
      "chainId": 0
    }
  ]
}