{
  "hash": "0x9a0e7f5e256fcf0b900550310193c057029af333dd4230a63e3d9312e8412755",
  "parentHash": "0x66742a54ea237e55a1810a3a4e659baa4575218066d6b0656fb7c9b1dc678fdc",
  "number": 70865,
  "timestamp": 1439326598,
  "nonce": "0xab80d1d5a62c2791",
  "difficulty": 2153062077038,
  "gasLimit": {
    "_hex": "0x2fefd8"
  },
  "gasUsed": {
    "_hex": "0x5208"
  },
  "miner": "0xe6A7a1d47ff21B6321162AEA7C6CB457D5476Bca",
  "extraData": "0x476574682f76312e302e312d38326566323666362f6c696e75782f676f312e34",
  "transactions": [
    {
      "hash": "0xfce0fd7d9ca3c598624c62746f168fee198e6e49eb1b78413340bce8c805e287",
      "blockHash": "0x9a0e7f5e256fcf0b900550310193c057029af333dd4230a63e3d9312e8412755",
      "blockNumber": 70865,
      "transactionIndex": 0,
      "confirmations": null,
      "from": "0x723E05fF30e4ba7A87b4D7D459eE5B488A9c36d1",
      "gasPrice": {
        "_hex": "0xd59b396d0"
      },
      "gasLimit": {
        "_hex": "0x15f90"
      },
      "to": "0xabceA603089850F8f6bB612A9031554D90A247CF",
      "value": {
        "_hex": "0x1314fb37062980000"
      },
      "nonce": 1,
      "data": "0x",
      "r": "0x4e48f605dbffb2347382af414b8c789b11f54c88d6c55bdf53f0a6dd4948cdd1",
      "s": "0x3658b7087111e2a6de03849afaf87f8b1850d26d3ca5253fc5a56bc5a294248c",
      "v": 28,
      "creates": null,
      "raw": "0xf86e01850d59b396d083015f9094abcea603089850f8f6bb612a9031554d90a247cf8901314fb37062980000801ca04e48f605dbffb2347382af414b8c789b11f54c88d6c55bdf53f0a6dd4948cdd1a03658b7087111e2a6de03849afaf87f8b1850d26d3ca5253fc5a56bc5a294248c",
      "networkId": 0,
      "chainId": 0
    }
  ]
}