{
  "hash": "0x6465e3c9c8ba634f00986c0ca5d4671d51cedad2d622d4d053e90b34d3a4fc6a",
  "parentHash": "0xb80bdab4b79292000fe36537c43b065774f06a72df26421f91d4f0f68e044afe",
  "number": 82271,
  "timestamp": 1439516463,
  "nonce": "0x7384071a659f15f2",
  "difficulty": 2379984220100,
  "gasLimit": {
    "_hex": "0x2fefd8"
  },
  "gasUsed": {
    "_hex": "0x5208"
  },
  "miner": "0xf8E0CA3Ed80bd541b94BEdCf259e8CF2141A9523",
  "extraData": "0x476574682f76312e302e312f77696e646f77732f676f312e342e32",
  "transactions": [
    {
      "hash": "0x45379099bfeee8abe618043eebeee5b728425e91f31834f12bb9d9bf0a942569",
      "blockHash": "0x6465e3c9c8ba634f00986c0ca5d4671d51cedad2d622d4d053e90b34d3a4fc6a",
      "blockNumber": 82271,
      "transactionIndex": 0,
      "confirmations": null,
      "from": "0xf6b4DE5a28aCbcb0F7928733E0fAbC009A0dB657",
      "gasPrice": {
        "_hex": "0xba43b7400"
      },
      "gasLimit": {
        "_hex": "0x5208"
      },
      "to": "0xC47Aaa860008be6f65B58c6C6E02a84e666EfE31",
      "value": {
        "_hex": "0x238057f0c7a9c000"
      },
      "nonce": 0,
      "data": "0x",
      "r": "0xc4f5aec83bed5081cba2dd8485417670dbca286b0958a6bf44be2c6f6d0bf193",
      "s": "0x62efc7330ec593b6e056684009be25f24cedea41d34ad96edd7dade8e0d26f72",
      "v": 27,
      "creates": null,
      "raw": "0xf86c80850ba43b740082520894c47aaa860008be6f65b58c6c6e02a84e666efe3188238057f0c7a9c000801ba0c4f5aec83bed5081cba2dd8485417670dbca286b0958a6bf44be2c6f6d0bf193a062efc7330ec593b6e056684009be25f24cedea41d34ad96edd7dade8e0d26f72",
      "networkId": 0,
      "chainId": 0
    }
  ]
}