{
  "hash": "0x6a164cbcd836de6c6e7cfeaeb1b5aede1ccd183bf94af257fd91e4b867309923",
  "parentHash": "0xac4fe03ee4a624215c3aed8084794b3af5063f3065074639995a0e936b72849d",
  "number": 114155,
  "timestamp": 1440035800,
  "nonce": "0xe3fcc62a2c0709fa",
  "difficulty": 4459911735248,
  "gasLimit": {
    "_hex": "0x2fefd8"
  },
  "gasUsed": {
    "_hex": "0x5208"
  },
  "miner": "0x580992B51e3925e23280EfB93d3047C82f17E038",
  "extraData": "0x476574682f76312e302e312f6c696e75782f676f312e342e32",
  "transactions": [
    {
      "hash": "0x36074e4dce1506bce58c2b5a979fa73fa558f01997349f2763d0be69a4e8704b",
      "blockHash": "0x6a164cbcd836de6c6e7cfeaeb1b5aede1ccd183bf94af257fd91e4b867309923",
      "blockNumber": 114155,
      "transactionIndex": 0,
      "confirmations": null,
      "from": "0x790b8a3cE86E707ED0eD32bF89B3269692a23CC1",
      "gasPrice": {
        "_hex": "0xce5666859"
      },
      "gasLimit": {
        "_hex": "0x15f90"
      },
      "to": "0x4D67f4F0Db45b3B5a3424B39ed8d972F710381D5",
      "value": {
        "_hex": "0x2f9e3fb2098f20000"
      },
      "nonce": 52,
      "data": "0x",
      "r": "0x0d8c35d98bb895edd3d540d8b892d565cd63113c6de5ba559715f4349bf73875",
      "s": "0x19230430641f4f6b63c384a73c0ecf47053d7e712230b34393b5c646bb313f53",
      "v": 27,
      "creates": null,
      "raw": "0xf86e34850ce566685983015f90944d67f4f0db45b3b5a3424b39ed8d972f710381d58902f9e3fb2098f20000801ba00d8c35d98bb895edd3d540d8b892d565cd63113c6de5ba559715f4349bf73875a019230430641f4f6b63c384a73c0ecf47053d7e712230b34393b5c646bb313f53",
      "networkId": 0,
      "chainId": 0
    }
  ]
}