{
  "hash": "0x60b9fec94da214392c44fe1418ab1dc179bf5e5cebd6e2fd1dad1bc98b9bed51",
  "parentHash": "0x25906b2484d7baffc95eecb4b08e0b2a01c2dec4bee613def2fdc8ad4ab7ea76",
  "number": 60343,
  "timestamp": 1439153902,
  "nonce": "0x1ee79afb362f0e26",
  "difficulty": 1742384764607,
  "gasLimit": {
    "_hex": "0x2fefd8"
  },
  "gasUsed": {
    "_hex": "0x546c"
  },
  "miner": "0xeB1325C8D9d3ea8D74aC11F4B00F1B2367686319",
  "extraData": "0x476574682f76312e302e312f77696e646f77732f676f312e342e32",
  "transactions": [
    {
      "hash": "0xbc77efd48fa6000bae102a638ce9a0fed8f82a5de37e05f320aca66b9d3a8422",
      "blockHash": "0x60b9fec94da214392c44fe1418ab1dc179bf5e5cebd6e2fd1dad1bc98b9bed51",
      "blockNumber": 60343,
      "transactionIndex": 0,
      "confirmations": null,
      "from": "0x35b03eA4245736F57b85d2EB79628F036ddcd705",
      "gasPrice": {
        "_hex": "0x110c8f7d8de"
      },
      "gasLimit": {
        "_hex": "0xc350"
      },
      "to": "0x2910543Af39abA0Cd09dBb2D50200b3E800A63D2",
      "value": {
        "_hex": "0x6c6b935b8bbd400000"
      },
      "nonce": 0,
      "data": "0x454e31364238543138",
      "r": "0x9e5bde843ac2a1a06aaebac622752da6218fc2d7ed03cdc96f95baea2ead1092",
      "s": "0x8dee9125494ea632220afb194ccc69a009c92e66e59b962127b5b8049679d480",
      "v": 27,
      "creates": null,
      "raw": "0xf87780860110c8f7d8de82c350942910543af39aba0cd09dbb2d50200b3e800a63d2896c6b935b8bbd40000089454e313642385431381ba09e5bde843ac2a1a06aaebac622752da6218fc2d7ed03cdc96f95baea2ead1092a08dee9125494ea632220afb194ccc69a009c92e66e59b962127b5b8049679d480",
      "networkId": 0,
      "chainId": 0
    }
  ]
}