{
  "hash": "0x636877df3080e59c49dc31396a5f9312c3c76a2cbc440b903fd07588345ad086",
  "parentHash": "0x5f75c8e2f9125118ae0e86658965272249c73cbf2884da0a51462d1e409a595d",
  "number": 87112,
  "timestamp": 1439587355,
  "nonce": "0xf4c71560a1d05e75",
  "difficulty": 3052706284851,
  "gasLimit": {
    "_hex": "0x2fefd8"
  },
  "gasUsed": {
    "_hex": "0x5208"
  },
  "miner": "0x007f7f58D3eb5b7510A301eCC749FC1fCDDBE14D",
  "extraData": "0x476574682f76312e302e312f77696e646f77732f676f312e342e32",
  "transactions": [
    {
      "hash": "0x127f91348b95ce6a88ca7d718252d6b3081fef0da904ae1355d8bf0af0bdf103",
      "blockHash": "0x636877df3080e59c49dc31396a5f9312c3c76a2cbc440b903fd07588345ad086",
      "blockNumber": 87112,
      "transactionIndex": 0,
      "confirmations": null,
      "from": "0x3A9E5441D44b243Be55B75027a1cEB9eAcf50dF2",
      "gasPrice": {
        "_hex": "0x10fdb77ca2a"
      },
      "gasLimit": {
        "_hex": "0x15f90"
      },
      "to": "0xbe0F7470Ad8DE0F233eD37fB29aD46FeB98DF95C",
      "value": {
        "_hex": "0xde0b6b3a7640000"
      },
      "nonce": 1,
      "data": "0x",
      "r": "0x393b35cd8dbb942f88b777a5a661bc84eaae08ee9edfa6c5e140a8eb484e3d28",
      "s": "0x0d8466b2068c3b0be3818ba0f210b3dc8dc7f421101c915705b00cbc5487d20e",
      "v": 28,
      "creates": null,
      "raw": "0xf86e0186010fdb77ca2a83015f9094be0f7470ad8de0f233ed37fb29ad46feb98df95c880de0b6b3a7640000801ca0393b35cd8dbb942f88b777a5a661bc84eaae08ee9edfa6c5e140a8eb484e3d28a00d8466b2068c3b0be3818ba0f210b3dc8dc7f421101c915705b00cbc5487d20e",
      "networkId": 0,
      "chainId": 0
    }
  ]
}