{
  "hash": "0x94ce3508195a95e5f0c7d54a763b25f279e0e6fc569e95cd4188572d7e6b59f2",
  "parentHash": "0x2bcd61c124f52e6b9d55e1c4b762d329d6cd3922244aebfbaeee0f1448ffd8a9",
  "number": 105174,
  "timestamp": 1439883149,
  "nonce": "0xec9462426b4ae443",
  "difficulty": 4312559687243,
  "gasLimit": {
    "_hex": "0x2fefd8"
  },
  "gasUsed": {
    "_hex": "0x5ca2e"
  },
  "miner": "0xBf43cdd2bD0d6062f760cA490031334A9AD73Ab8",
  "extraData": "0x476574682f76312e302e312f6c696e75782f676f312e342e32",
  "transactions": [
    {
      "hash": "0x2d1fe82dd3dd13a824a08a18bdac40a4ee5f6362405efc36548b57a59aab6227",
      "blockHash": "0x94ce3508195a95e5f0c7d54a763b25f279e0e6fc569e95cd4188572d7e6b59f2",
      "blockNumber": 105174,
      "transactionIndex": 0,
      "confirmations": null,
      "from": "0xdD38c62D238bE6bB72162aFeC32DDcceDd3A0A51",
      "gasPrice": {
        "_hex": "0xd7d40ace3"
      },
      "gasLimit": {
        "_hex": "0xf4240"
      },
      "to": null,
      "value": {
        "_hex": "0x0"
      },
      "nonce": 7,
      "data": "0x606060405260405160208061043983395060806040525160008054600160a060020a0319163317808255600160a060020a03168152600160208190526040909120556002805460ff8316808355919082908015829011607e57818360005260206000209182019101607e91905b8082111560915760008155600101606c565b50505050506103a3806100966000396000f35b50905600606060405260e060020a60003504635c19a95c811461003c578063609ff1bd146100705780639e7b8d61146100e2578063b3f98adc1461012e575b005b61003a600435600160a060020a033316600090815260016020819052604082209081015490919060ff161561019d5761032d565b610170600080805b60025460ff8216101561037d5781600260005082815481101561000257600091909152600080516020610383833981519152015411156100da576002805482908110156100025760008051602061038383398151915201549193509091508290505b600201610078565b61003a600435600054600160a060020a0390811633919091161415806101245750600160a060020a0381166000908152600160208190526040909120015460ff165b1561017d5761019a565b61003a600435600160a060020a03331660009081526001602081905260409091209081015460ff1680610166575060025460ff831610155b1561033257610379565b60ff166060908152602090f35b600160a060020a0381166000908152600160208190526040909120555b50565b5b600160a060020a03838116825260408220600101546201000090041681148015906101eb575060408120600160a060020a0384811683526001919091015462010000900481163390911614155b15610232576001600050600084600160a060020a0316815260200190815260200160002060005060010160029054906101000a9004600160a060020a03169250825061019e565b33600160a060020a031683600160a060020a031614156102515761032d565b60018260010160006101000a81548160ff02191690830217905550828260010160026101000a815481600160a060020a03021916908302179055506001600050600084600160a060020a0316815260200190815260200160002060005090508060010160009054906101000a900460ff161561031157816000016000505460026000508260010160019054906101000a900460ff16815481101561000257600091909152600080516020610383833981519152018054909101905561032d565b8160000160005054816000016000828282505401925050819055505b505050565b6001818101805460ff191690911761ff0019166101008402179055805460028054849081101561000257506000526000805160206103838339815191528301805490910190555b5050565b5050905600405787fa12a823e0f2b7631cc41b3ba8828b3321ca811111fa75cd3aa3bb5ace0000000000000000000000000000000000000000000000000000000000000002",
      "r": "0x3ddce868f9220476d294c6d0cdd84fecb80083207b0fc0e646ab503189f943d0",
      "s": "0x63ac8fd895dd18303529f79876e55690983e03910374dbea112f5ebb77d1e87e",
      "v": 28,
      "creates": "0x3Cf26c54635BA585b436701112a0d38E20B6A8E1",
      "raw": "0xf904ac07850d7d40ace3830f42408080b90459606060405260405160208061043983395060806040525160008054600160a060020a0319163317808255600160a060020a03168152600160208190526040909120556002805460ff8316808355919082908015829011607e57818360005260206000209182019101607e91905b8082111560915760008155600101606c565b50505050506103a3806100966000396000f35b50905600606060405260e060020a60003504635c19a95c811461003c578063609ff1bd146100705780639e7b8d61146100e2578063b3f98adc1461012e575b005b61003a600435600160a060020a033316600090815260016020819052604082209081015490919060ff161561019d5761032d565b610170600080805b60025460ff8216101561037d5781600260005082815481101561000257600091909152600080516020610383833981519152015411156100da576002805482908110156100025760008051602061038383398151915201549193509091508290505b600201610078565b61003a600435600054600160a060020a0390811633919091161415806101245750600160a060020a0381166000908152600160208190526040909120015460ff165b1561017d5761019a565b61003a600435600160a060020a03331660009081526001602081905260409091209081015460ff1680610166575060025460ff831610155b1561033257610379565b60ff166060908152602090f35b600160a060020a0381166000908152600160208190526040909120555b50565b5b600160a060020a03838116825260408220600101546201000090041681148015906101eb575060408120600160a060020a0384811683526001919091015462010000900481163390911614155b15610232576001600050600084600160a060020a0316815260200190815260200160002060005060010160029054906101000a9004600160a060020a03169250825061019e565b33600160a060020a031683600160a060020a031614156102515761032d565b60018260010160006101000a81548160ff02191690830217905550828260010160026101000a815481600160a060020a03021916908302179055506001600050600084600160a060020a0316815260200190815260200160002060005090508060010160009054906101000a900460ff161561031157816000016000505460026000508260010160019054906101000a900460ff16815481101561000257600091909152600080516020610383833981519152018054909101905561032d565b8160000160005054816000016000828282505401925050819055505b505050565b6001818101805460ff191690911761ff0019166101008402179055805460028054849081101561000257506000526000805160206103838339815191528301805490910190555b5050565b5050905600405787fa12a823e0f2b7631cc41b3ba8828b3321ca811111fa75cd3aa3bb5ace00000000000000000000000000000000000000000000000000000000000000021ca03ddce868f9220476d294c6d0cdd84fecb80083207b0fc0e646ab503189f943d0a063ac8fd895dd18303529f79876e55690983e03910374dbea112f5ebb77d1e87e",
      "networkId": 0,
      "chainId": 0
    },
    {
      "hash": "0xa403e13748ca99a680ae4d5ad834078abe36dc8e15d6a0811d225c83e3fa189b",
      "blockHash": "0x94ce3508195a95e5f0c7d54a763b25f279e0e6fc569e95cd4188572d7e6b59f2",
      "blockNumber": 105174,
      "transactionIndex": 1,
      "confirmations": null,
      "from": "0x4D52F282d1B4Ca07065FA433f90BDbb3b7c2928F",
      "gasPrice": {
        "_hex": "0xcf362aa5a"
      },
      "gasLimit": {
        "_hex": "0x15f90"
      },
      "to": "0x187b1f47Cd55b27878699DfCDCee2234cD49E97e",
      "value": {
        "_hex": "0x4563918244f40000"
      },
      "nonce": 0,
      "data": "0x",
      "r": "0xb63ebb51b25706fc70cebdd67db0182c95d603aea6a92bfd300b0ecfdfaf8720",
      "s": "0x6f59bddc5110c6b70a010e079a1a459733f959afa7876432bd720eb0ce86a6d4",
      "v": 28,
      "creates": null,
      "raw": "0xf86d80850cf362aa5a83015f9094187b1f47cd55b27878699dfcdcee2234cd49e97e884563918244f40000801ca0b63ebb51b25706fc70cebdd67db0182c95d603aea6a92bfd300b0ecfdfaf8720a06f59bddc5110c6b70a010e079a1a459733f959afa7876432bd720eb0ce86a6d4",
      "networkId": 0,
      "chainId": 0
    },
    {
      "hash": "0x68cf7cce7093a333ed38e62ee05d62bba02a1aaa307efee21551dcb99f3319c1",
      "blockHash": "0x94ce3508195a95e5f0c7d54a763b25f279e0e6fc569e95cd4188572d7e6b59f2",
      "blockNumber": 105174,
      "transactionIndex": 2,
      "confirmations": null,
      "from": "0x2910543Af39abA0Cd09dBb2D50200b3E800A63D2",
      "gasPrice": {
        "_hex": "0xcea0513aa"
      },
      "gasLimit": {
        "_hex": "0x5208"
      },
      "to": "0x4Eaf4CaDd87499C20bA3412B1D222f9a72DA7AFF",
      "value": {
        "_hex": "0x3ba17f487a09cf8000"
      },
      "nonce": 1024,
      "data": "0x",
      "r": "0x56424c79efe703de9759b829ce0500a05a7e8a2a9abeafac328431dc9aa1ee22",
      "s": "0x58bb4aabbd4f21713eecf50756f4e0e3cc13665c9d2a07ecf229d9ed7b7e5492",
      "v": 28,
      "creates": null,
      "raw": "0xf86f820400850cea0513aa825208944eaf4cadd87499c20ba3412b1d222f9a72da7aff893ba17f487a09cf8000801ca056424c79efe703de9759b829ce0500a05a7e8a2a9abeafac328431dc9aa1ee22a058bb4aabbd4f21713eecf50756f4e0e3cc13665c9d2a07ecf229d9ed7b7e5492",
      "networkId": 0,
      "chainId": 0
    }
  ]
}