{
  "hash": "0x9b92b9936086b10ae9fc1792f1d80d42b9ea841231fdb1d1eef5842cef6d3fce",
  "parentHash": "0xfe2dd8614a33b5a125bd3e1b868f1104a3b85fc04544f61f8549c43ed7b89069",
  "number": 68893,
  "timestamp": 1439295257,
  "nonce": "0x7730ecc7ab922d59",
  "difficulty": 2027045373407,
  "gasLimit": {
    "_hex": "0x2fefd8"
  },
  "gasUsed": {
    "_hex": "0x5208"
  },
  "miner": "0xf927a40C8B7F6E07c5af7FA2155B4864a4112B13",
  "extraData": "0x",
  "transactions": [
    {
      "hash": "0x29024e4a9fd3b88a21260321633a3d30cf6008ef3d92e5733a42144937c7a926",
      "blockHash": "0x9b92b9936086b10ae9fc1792f1d80d42b9ea841231fdb1d1eef5842cef6d3fce",
      "blockNumber": 68893,
      "transactionIndex": 0,
      "confirmations": null,
      "from": "0x6747f922385c9a6F9cfDf095F34345257DD597bE",
      "gasPrice": {
        "_hex": "0xba43b7400"
      },
      "gasLimit": {
        "_hex": "0x5208"
      },
      "to": "0xd1f9eF1352D78a9CCeAC1341c407072D38e92ff2",
      "value": {
        "_hex": "0x1fcbfa42bd6000"
      },
      "nonce": 149,
      "data": "0x",
      "r": "0xf50bb7c8e5312fc0da40a0efb662f6447208e0afb93f33a5dc615533ee997217",
      "s": "0x465da7d51a40869e9355e4e56fca5214d9bfb225c20aa22a1b32ab5b564146aa",
      "v": 27,
      "creates": null,
      "raw": "0xf86c8195850ba43b740082520894d1f9ef1352d78a9cceac1341c407072d38e92ff2871fcbfa42bd6000801ba0f50bb7c8e5312fc0da40a0efb662f6447208e0afb93f33a5dc615533ee997217a0465da7d51a40869e9355e4e56fca5214d9bfb225c20aa22a1b32ab5b564146aa",
      "networkId": 0,
      "chainId": 0
    }
  ]
}