{
  "hash": "0x42c5270c41434e1fcdc0e36063a8cc47a7406bb5ecec21b21a7670a6d3bb8d3f",
  "parentHash": "0xc417fd32451822b8c310d12eecd9eae94779b15799c89e72d756c404447c2244",
  "number": 47443,
  "timestamp": 1438940434,
  "nonce": "0x385392bcc5da34d8",
  "difficulty": 1450955350933,
  "gasLimit": {
    "_hex": "0xbe6d"
  },
  "gasUsed": {
    "_hex": "0x5208"
  },
  "miner": "0xC759dc67E0c3816fdC56A2f5bb29920fc07e767D",
  "extraData": "0x476574682f76312e302e312f77696e646f77732f676f312e342e32",
  "transactions": [
    {
      "hash": "0xa27dffdd8478337b71112cf28bc047e0ece1993e192a3b02a58515010609c254",
      "blockHash": "0x42c5270c41434e1fcdc0e36063a8cc47a7406bb5ecec21b21a7670a6d3bb8d3f",
      "blockNumber": 47443,
      "transactionIndex": 0,
      "confirmations": null,
      "from": "0xe6A7a1d47ff21B6321162AEA7C6CB457D5476Bca",
      "gasPrice": {
        "_hex": "0x19226717a3"
      },
      "gasLimit": {
        "_hex": "0x5208"
      },
      "to": "0xD6e6b0E55C9b50F68269e40E31f8Ce7a8B43f9fC",
      "value": {
        "_hex": "0x172cf621d8deda328"
      },
      "nonce": 145,
      "data": "0x",
      "r": "0x02be017cfb70a72b6c6635be769db4ea6bc6cbd9cb1e97000afbf9856b80062b",
      "s": "0x77411ec17fd9044be3b04500e498672727f9b3c461eab8530f5048935966bc9f",
      "v": 28,
      "creates": null,
      "raw": "0xf86e81918519226717a382520894d6e6b0e55c9b50f68269e40e31f8ce7a8b43f9fc890172cf621d8deda328801ca002be017cfb70a72b6c6635be769db4ea6bc6cbd9cb1e97000afbf9856b80062ba077411ec17fd9044be3b04500e498672727f9b3c461eab8530f5048935966bc9f",
      "networkId": 0,
      "chainId": 0
    }
  ]
}