{
  "hash": "0x50eaa9f326e797b5d08aa5794d6d6bdaa1fa4d6baedcd305aa5602a5d9946f35",
  "parentHash": "0x4f833ca2a0bb04b182ec4b276ee817844b073d28a5a196b6e992c39b0f068d22",
  "number": 63246,
  "timestamp": 1439201508,
  "nonce": "0x3aa863d9c11cdcf9",
  "difficulty": 1808515465360,
  "gasLimit": {
    "_hex": "0x2fe3de"
  },
  "gasUsed": {
    "_hex": "0x546c"
  },
  "miner": "0x356CEFb4Eb836DC68403308309E075a31DD991D2",
  "extraData": "0x476574682f76312e302e302f6c696e75782f676f312e342e32",
  "transactions": [
    {
      "hash": "0xf736cb1c07d6a334a5eb001f43e0d1757a064099d65e04a24eef722119ef86a2",
      "blockHash": "0x50eaa9f326e797b5d08aa5794d6d6bdaa1fa4d6baedcd305aa5602a5d9946f35",
      "blockNumber": 63246,
      "transactionIndex": 0,
      "confirmations": null,
      "from": "0xa914cDb571BFd93D64da66a4e108EA134e50D000",
      "gasPrice": {
        "_hex": "0x9184e72a000"
      },
      "gasLimit": {
        "_hex": "0x55f0"
      },
      "to": "0x2910543Af39abA0Cd09dBb2D50200b3E800A63D2",
      "value": {
        "_hex": "0x16345785d8a0000"
      },
      "nonce": 2,
      "data": "0x454e43523838455252",
      "r": "0x8e72628c80af0f584ac453af98d8296cb38953852d84ebb1f36c710554b99cd4",
      "s": "0x474af856b42051e754bce59633f3fab823b963582e9e68be61fe9b11da9b3afa",
      "v": 27,
      "creates": null,
      "raw": "0xf876028609184e72a0008255f0942910543af39aba0cd09dbb2d50200b3e800a63d288016345785d8a000089454e435238384552521ba08e72628c80af0f584ac453af98d8296cb38953852d84ebb1f36c710554b99cd4a0474af856b42051e754bce59633f3fab823b963582e9e68be61fe9b11da9b3afa",
      "networkId": 0,
      "chainId": 0
    }
  ]
}