{
  "hash": "0x5fc0974d032e643a1a9e2706163f08e1b9cac62d6197700e687db2bd8a444a16",
  "parentHash": "0xb23763f2b28f9ad2d6b56a44fb9bffff5ab45e89b5b72377e403e394b2527f38",
  "number": 70336,
  "timestamp": 1439318367,
  "nonce": "0xa5e3bbd8f7d3822b",
  "difficulty": 2131231976917,
  "gasLimit": {
    "_hex": "0x2fefd8"
  },
  "gasUsed": {
    "_hex": "0x5208"
  },
  "miner": "0xbb7B8287f3F0a933474a79eAe42CBCa977791171",
  "extraData": "0x476574682f4c5649562f76312e302e312f6c696e75782f676f312e342e32",
  "transactions": [
    {
      "hash": "0xcb5797a59bd187cd14bc15a76699b9576183f0f3d8ef827ef2f6f50deead0baa",
      "blockHash": "0x5fc0974d032e643a1a9e2706163f08e1b9cac62d6197700e687db2bd8a444a16",
      "blockNumber": 70336,
      "transactionIndex": 0,
      "confirmations": null,
      "from": "0x120A270bbC009644e35F0bB6ab13f95b8199c4ad",
      "gasPrice": {
        "_hex": "0xd5c3599d7"
      },
      "gasLimit": {
        "_hex": "0x15f90"
      },
      "to": "0xc9CBB4dB18605df3f84dfB719A58c9C1252cE641",
      "value": {
        "_hex": "0xde0b6b3a7640000"
      },
      "nonce": 199,
      "data": "0x",
      "r": "0xfb5ebfec9eb234e94ea99c4e40682c5b25e2dadf9423aa9f118b4db6c953ff51",
      "s": "0x332f3f30d3865277154b5305777113cdcac76cbb323aa93376f0f3d553ad618b",
      "v": 27,
      "creates": null,
      "raw": "0xf86e81c7850d5c3599d783015f9094c9cbb4db18605df3f84dfb719a58c9c1252ce641880de0b6b3a7640000801ba0fb5ebfec9eb234e94ea99c4e40682c5b25e2dadf9423aa9f118b4db6c953ff51a0332f3f30d3865277154b5305777113cdcac76cbb323aa93376f0f3d553ad618b",
      "networkId": 0,
      "chainId": 0
    }
  ]
}