{
  "hash": "0x5fd75ea57d8c59a726ffdf7a518a6c2565ab5c579055c6aede95723f27d17390",
  "parentHash": "0x35fad66cc8b3d33dc830241a84cb9b3df49e63aa6b5a655830a53eeccfe1cbde",
  "number": 121637,
  "timestamp": 1440180125,
  "nonce": "0xb3ba74b9536c2b7c",
  "difficulty": 4469009247725,
  "gasLimit": {
    "_hex": "0x2fefd8"
  },
  "gasUsed": {
    "_hex": "0x5208"
  },
  "miner": "0x608f4b86321a68453f9adf6F06F7Fc3E621739ad",
  "extraData": "0xd783010002844765746887676f312e342e32856c696e7578",
  "transactions": [
    {
      "hash": "0x7d49b31a08434b81105189b7c73d330e480b2fe8a713e9fd81a329d8205c8a33",
      "blockHash": "0x5fd75ea57d8c59a726ffdf7a518a6c2565ab5c579055c6aede95723f27d17390",
      "blockNumber": 121637,
      "transactionIndex": 0,
      "confirmations": null,
      "from": "0x042AA8c3a44b06c680417f01b3e12a6121A58fCF",
      "gasPrice": {
        "_hex": "0xd8b1b0be8"
      },
      "gasLimit": {
        "_hex": "0x15f90"
      },
      "to": "0x9b0a028EAfDeCdE3AFc0fD00B7937098388b7C8a",
      "value": {
        "_hex": "0x8a9102b9c59d3580"
      },
      "nonce": 0,
      "data": "0x",
      "r": "0xea7da5ddd341434c7fba20281990bb01c0aa4c53b6c27e77d2a43d498fa285aa",
      "s": "0x43c4af86a8fb5b6300ef611f6598a4a2a428db4dce06ae5fecde3ea7be37b674",
      "v": 28,
      "creates": null,
      "raw": "0xf86d80850d8b1b0be883015f90949b0a028eafdecde3afc0fd00b7937098388b7c8a888a9102b9c59d3580801ca0ea7da5ddd341434c7fba20281990bb01c0aa4c53b6c27e77d2a43d498fa285aaa043c4af86a8fb5b6300ef611f6598a4a2a428db4dce06ae5fecde3ea7be37b674",
      "networkId": 0,
      "chainId": 0
    }
  ]
}