{
  "hash": "0x49c27bfb5c014486a9e47f593bba1e832205315b80776d6174509404ca354864",
  "parentHash": "0xead3898cd173cfe6be787d11c24a0b4e85d93ca6ca57695c760f388f1b16924e",
  "number": 109298,
  "timestamp": 1439954318,
  "nonce": "0xc477d55110ff1a09",
  "difficulty": 4442927222338,
  "gasLimit": {
    "_hex": "0x2fefd8"
  },
  "gasUsed": {
    "_hex": "0x546c"
  },
  "miner": "0xe6A7a1d47ff21B6321162AEA7C6CB457D5476Bca",
  "extraData": "0x476574682f76312e302e312d38326566323666362f6c696e75782f676f312e34",
  "transactions": [
    {
      "hash": "0x963ae26c6f293ade4854d261978dfbb53cc9d90d498d2388f56d5a10d42b9207",
      "blockHash": "0x49c27bfb5c014486a9e47f593bba1e832205315b80776d6174509404ca354864",
      "blockNumber": 109298,
      "transactionIndex": 0,
      "confirmations": null,
      "from": "0x01c4Ad90B6A33Cc301b7F8d0b4024f51186c385B",
      "gasPrice": {
        "_hex": "0xd07500184"
      },
      "gasLimit": {
        "_hex": "0x55f0"
      },
      "to": "0x2910543Af39abA0Cd09dBb2D50200b3E800A63D2",
      "value": {
        "_hex": "0x71afd498d0000"
      },
      "nonce": 3,
      "data": "0x454e4432414b4b5847",
      "r": "0x79477298d0c7ea9e6b7352b3a9da4162a2f64f92520b7376c7eab9ec187e13d5",
      "s": "0x4471a1039eea87ad963046732caf2885cd0d0f1eacb01f42c167dad822deaa36",
      "v": 28,
      "creates": null,
      "raw": "0xf87403850d075001848255f0942910543af39aba0cd09dbb2d50200b3e800a63d287071afd498d000089454e4432414b4b58471ca079477298d0c7ea9e6b7352b3a9da4162a2f64f92520b7376c7eab9ec187e13d5a04471a1039eea87ad963046732caf2885cd0d0f1eacb01f42c167dad822deaa36",
      "networkId": 0,
      "chainId": 0
    }
  ]
}