{
  "hash": "0x47127b1af64801579b38d59c4dbdaed53db77c83ff3498b28a1231dab02dab68",
  "parentHash": "0xb10c4758a46589f955918a52035439d4e80acbc20bd05a2d280836de4b2ea8a6",
  "number": 86770,
  "timestamp": 1439582631,
  "nonce": "0x470559c6ddd0fa64",
  "difficulty": 2950249028063,
  "gasLimit": {
    "_hex": "0x2fefd8"
  },
  "gasUsed": {
    "_hex": "0xa410"
  },
  "miner": "0xB7268c7705A1866b2A78e882fdfDc8E2a4e1428E",
  "extraData": "0x476574682f76312e302e312f77696e646f77732f676f312e342e32",
  "transactions": [
    {
      "hash": "0x2553b2a636a715749bee80bc19136aa47ef6e6f210ab017afb4b201471289655",
      "blockHash": "0x47127b1af64801579b38d59c4dbdaed53db77c83ff3498b28a1231dab02dab68",
      "blockNumber": 86770,
      "transactionIndex": 0,
      "confirmations": null,
      "from": "0x32Be343B94f860124dC4fEe278FDCBD38C102D88",
      "gasPrice": {
        "_hex": "0xcc072278b"
      },
      "gasLimit": {
        "_hex": "0x5208"
      },
      "to": "0xa7187b19234705E7916DAfE21e3B5eC7BcF6a912",
      "value": {
        "_hex": "0x2a8267f5579e50000"
      },
      "nonce": 768,
      "data": "0x",
      "r": "0x6806fe69a1518ef1971a3cbf684328ce04fb2ae31e35b6142c0c83d107197f88",
      "s": "0x6bce1c2601f00570da174b05e9043b95b45dc0929200fcf63ad628413715e045",
      "v": 28,
      "creates": null,
      "raw": "0xf86f820300850cc072278b82520894a7187b19234705e7916dafe21e3b5ec7bcf6a9128902a8267f5579e50000801ca06806fe69a1518ef1971a3cbf684328ce04fb2ae31e35b6142c0c83d107197f88a06bce1c2601f00570da174b05e9043b95b45dc0929200fcf63ad628413715e045",
      "networkId": 0,
      "chainId": 0
    },
    {
      "hash": "0x76957882785e2b1a2b9026bbd54338eaaa24511308487dfc96cd8fbd5146bf8b",
      "blockHash": "0x47127b1af64801579b38d59c4dbdaed53db77c83ff3498b28a1231dab02dab68",
      "blockNumber": 86770,
      "transactionIndex": 1,
      "confirmations": null,
      "from": "0x32Be343B94f860124dC4fEe278FDCBD38C102D88",
      "gasPrice": {
        "_hex": "0xcc072278b"
      },
      "gasLimit": {
        "_hex": "0x5208"
      },
      "to": "0x0842AfcBD1FbDCa3C642c2E0978e0B6535E98766",
      "value": {
        "_hex": "0x9cb374a207105000"
      },
      "nonce": 769,
      "data": "0x",
      "r": "0x143dce337c64dd2b5f9f0ff7f9334961b61ca351abda19800b75d674df3d54d7",
      "s": "0x6d57051d04e5fee1b77f2186a0fd83382c547dabaad7ebf80fc85b6d134eb9c5",
      "v": 28,
      "creates": null,
      "raw": "0xf86e820301850cc072278b825208940842afcbd1fbdca3c642c2e0978e0b6535e98766889cb374a207105000801ca0143dce337c64dd2b5f9f0ff7f9334961b61ca351abda19800b75d674df3d54d7a06d57051d04e5fee1b77f2186a0fd83382c547dabaad7ebf80fc85b6d134eb9c5",
      "networkId": 0,
      "chainId": 0
    }
  ]
}