{
  "hash": "0xb636696887f290f28640e64b43b549e1d2e1c9a00c5efcba650372e6ad1b69a2",
  "parentHash": "0x0c5a9994d5fc36e2582d5c8bc6ce69f4a0733b4a52e51d9183f86612cabf777a",
  "number": 61208,
  "timestamp": 1439168823,
  "nonce": "0xac4b4723bcff6ac7",
  "difficulty": 1721067230047,
  "gasLimit": {
    "_hex": "0x2fefd8"
  },
  "gasUsed": {
    "_hex": "0xa410"
  },
  "miner": "0x3FF679B0823a026F2378E5f5F22A6F127cC85828",
  "extraData": "0x",
  "transactions": [
    {
      "hash": "0xd63645fd1751c7ac12e570da3c413a18c73760c4afa2509cf6b22fcd308e2a03",
      "blockHash": "0xb636696887f290f28640e64b43b549e1d2e1c9a00c5efcba650372e6ad1b69a2",
      "blockNumber": 61208,
      "transactionIndex": 0,
      "confirmations": null,
      "from": "0x32Be343B94f860124dC4fEe278FDCBD38C102D88",
      "gasPrice": {
        "_hex": "0xdd99bd752"
      },
      "gasLimit": {
        "_hex": "0x5208"
      },
      "to": "0x8eB3FbB4A0Cc2366e88FB476df63D3Ad6907907b",
      "value": {
        "_hex": "0x3ba0d5824581000"
      },
      "nonce": 133,
      "data": "0x",
      "r": "0x93820a055dd1bb108ad749827a050bdaa0f047e0457c929ab540e59c342c4062",
      "s": "0x5d7476b7d655b3f3bcbad859445c4eb9510dc2ee1b21612de3d01bc9b7747807",
      "v": 27,
      "creates": null,
      "raw": "0xf86d8185850dd99bd752825208948eb3fbb4a0cc2366e88fb476df63d3ad6907907b8803ba0d5824581000801ba093820a055dd1bb108ad749827a050bdaa0f047e0457c929ab540e59c342c4062a05d7476b7d655b3f3bcbad859445c4eb9510dc2ee1b21612de3d01bc9b7747807",
      "networkId": 0,
      "chainId": 0
    },
    {
      "hash": "0xb1c36cf32cc02d15f17ffab3e389dbd1a2d1f1cba87572afa711779f0121610c",
      "blockHash": "0xb636696887f290f28640e64b43b549e1d2e1c9a00c5efcba650372e6ad1b69a2",
      "blockNumber": 61208,
      "transactionIndex": 1,
      "confirmations": null,
      "from": "0x32Be343B94f860124dC4fEe278FDCBD38C102D88",
      "gasPrice": {
        "_hex": "0xdd99bd752"
      },
      "gasLimit": {
        "_hex": "0x5208"
      },
      "to": "0xF0b384EC537546769FAEDdd131A1453723714c4E",
      "value": {
        "_hex": "0xe2736d457665e800"
      },
      "nonce": 134,
      "data": "0x",
      "r": "0xe8b428e2b5fdbd7bd301f39106db72d470d28193a3f4c69ed66907b2694208f2",
      "s": "0x510496ee5460fc8ef6b853a6e6576bf7fe065941f5fe3d3919197c75dc416479",
      "v": 28,
      "creates": null,
      "raw": "0xf86d8186850dd99bd75282520894f0b384ec537546769faeddd131a1453723714c4e88e2736d457665e800801ca0e8b428e2b5fdbd7bd301f39106db72d470d28193a3f4c69ed66907b2694208f2a0510496ee5460fc8ef6b853a6e6576bf7fe065941f5fe3d3919197c75dc416479",
      "networkId": 0,
      "chainId": 0
    }
  ]
}