{
  "hash": "0xdf0fe64a25e4b1f1ba8d21ab14f6c540f6f368b1011505e891d6c852d46c1eb8",
  "parentHash": "0xd1e905df3c39de8171a02205763381a307ae2072a29403b8a10a17beb2624576",
  "number": 112741,
  "timestamp": 1440012455,
  "nonce": "0xc5dcc1d3d7a3d1a9",
  "difficulty": 4443273089494,
  "gasLimit": {
    "_hex": "0x2fefd8"
  },
  "gasUsed": {
    "_hex": "0xa410"
  },
  "miner": "0xa70a9a7040d542C632D8e0bE7c5513A8a5Bbc752",
  "extraData": "0x",
  "transactions": [
    {
      "hash": "0x27167a1959c93e59a64b14c38ed23a6910fd8a7497e5f647fd79dc5450fe94f7",
      "blockHash": "0xdf0fe64a25e4b1f1ba8d21ab14f6c540f6f368b1011505e891d6c852d46c1eb8",
      "blockNumber": 112741,
      "transactionIndex": 0,
      "confirmations": null,
      "from": "0x1CaC89419da71AC175A5B99CEE0163720430990c",
      "gasPrice": {
        "_hex": "0xda8aa38a4"
      },
      "gasLimit": {
        "_hex": "0x5208"
      },
      "to": "0x32Be343B94f860124dC4fEe278FDCBD38C102D88",
      "value": {
        "_hex": "0xc69f42a3503cf000"
      },
      "nonce": 9,
      "data": "0x",
      "r": "0x59bee1ef52239ada2c5250f979528f04b93f2009de917eba49d0258544412903",
      "s": "0x6fe727225620e982fa2fc3fb028d9521e837db1869367b028ab314ace8106821",
      "v": 28,
      "creates": null,
      "raw": "0xf86c09850da8aa38a48252089432be343b94f860124dc4fee278fdcbd38c102d8888c69f42a3503cf000801ca059bee1ef52239ada2c5250f979528f04b93f2009de917eba49d0258544412903a06fe727225620e982fa2fc3fb028d9521e837db1869367b028ab314ace8106821",
      "networkId": 0,
      "chainId": 0
    },
    {
      "hash": "0xc1581955db07970e0ef8a65d5453aae6252505d065a05af0a2705ce730afcab8",
      "blockHash": "0xdf0fe64a25e4b1f1ba8d21ab14f6c540f6f368b1011505e891d6c852d46c1eb8",
      "blockNumber": 112741,
      "transactionIndex": 1,
      "confirmations": null,
      "from": "0x972ad000397A3c903299F1353d6d4b85eE4E4e2A",
      "gasPrice": {
        "_hex": "0xda8aa38a4"
      },
      "gasLimit": {
        "_hex": "0x5208"
      },
      "to": "0x32Be343B94f860124dC4fEe278FDCBD38C102D88",
      "value": {
        "_hex": "0xb2ff778274b71800"
      },
      "nonce": 20,
      "data": "0x",
      "r": "0x20cda0ad567eec367e58edddd7d299738467cfe860ef9b6ceb7e8168833c76bc",
      "s": "0x522251ceba9bb29e51ba8fa8f2d16a6b00a89338e5516b9cbb012ae8db8d6d97",
      "v": 28,
      "creates": null,
      "raw": "0xf86c14850da8aa38a48252089432be343b94f860124dc4fee278fdcbd38c102d8888b2ff778274b71800801ca020cda0ad567eec367e58edddd7d299738467cfe860ef9b6ceb7e8168833c76bca0522251ceba9bb29e51ba8fa8f2d16a6b00a89338e5516b9cbb012ae8db8d6d97",
      "networkId": 0,
      "chainId": 0
    }
  ]
}