{
  "hash": "0xacb436538cbe8221d5323e27f947a2a291e3241fb507b29b86eb38afe3161350",
  "parentHash": "0xfcc844e5bbf879d04417a7d7558dcf11fc2ca3180b687165bf842aa037565077",
  "number": 74248,
  "timestamp": 1439382942,
  "nonce": "0xfa43be47572cad10",
  "difficulty": 2217261607386,
  "gasLimit": {
    "_hex": "0x2fefd8"
  },
  "gasUsed": {
    "_hex": "0xa410"
  },
  "miner": "0xf927a40C8B7F6E07c5af7FA2155B4864a4112B13",
  "extraData": "0x",
  "transactions": [
    {
      "hash": "0x05ff94ed9e2be87afa727d0a78bdd3b902d000e1e86f26b99616c6a85d18b6ca",
      "blockHash": "0xacb436538cbe8221d5323e27f947a2a291e3241fb507b29b86eb38afe3161350",
      "blockNumber": 74248,
      "transactionIndex": 0,
      "confirmations": null,
      "from": "0xe6A7a1d47ff21B6321162AEA7C6CB457D5476Bca",
      "gasPrice": {
        "_hex": "0xcd0e05667"
      },
      "gasLimit": {
        "_hex": "0x55f0"
      },
      "to": "0xe7Dff7122b8eA1496643c6D3EDA7150F614dBf1c",
      "value": {
        "_hex": "0x2c503e1ddf746014"
      },
      "nonce": 767,
      "data": "0x",
      "r": "0xc33a583bc80eb26498317c0d1939e51de012462c55f59cd6045d15a767e31307",
      "s": "0x53c76dc85fe53d398b1e44ccc8bf54e9096c8600d1be955e2c876dce1883276e",
      "v": 27,
      "creates": null,
      "raw": "0xf86e8202ff850cd0e056678255f094e7dff7122b8ea1496643c6d3eda7150f614dbf1c882c503e1ddf746014801ba0c33a583bc80eb26498317c0d1939e51de012462c55f59cd6045d15a767e31307a053c76dc85fe53d398b1e44ccc8bf54e9096c8600d1be955e2c876dce1883276e",
      "networkId": 0,
      "chainId": 0
    },
    {
      "hash": "0x7159b6f3f7f1799fd5238f6a0d24847967cccf246233ddad61e17d12f165c6f9",
      "blockHash": "0xacb436538cbe8221d5323e27f947a2a291e3241fb507b29b86eb38afe3161350",
      "blockNumber": 74248,
      "transactionIndex": 1,
      "confirmations": null,
      "from": "0xe6A7a1d47ff21B6321162AEA7C6CB457D5476Bca",
      "gasPrice": {
        "_hex": "0xcd0e05667"
      },
      "gasLimit": {
        "_hex": "0x55f0"
      },
      "to": "0x9FA0960220d2d51D54f755501E391Da140c2EF63",
      "value": {
        "_hex": "0x2c727542931affec"
      },
      "nonce": 768,
      "data": "0x",
      "r": "0xbf23d06acc3b22cbd6b1a71b71e43eb1f44ffcc0adbce08bc56473bcde89ad6b",
      "s": "0x0591ba39e92244d714dac4a470803f20a9796a29328388ac2cac49e4f7c21fef",
      "v": 28,
      "creates": null,
      "raw": "0xf86e820300850cd0e056678255f0949fa0960220d2d51d54f755501e391da140c2ef63882c727542931affec801ca0bf23d06acc3b22cbd6b1a71b71e43eb1f44ffcc0adbce08bc56473bcde89ad6ba00591ba39e92244d714dac4a470803f20a9796a29328388ac2cac49e4f7c21fef",
      "networkId": 0,
      "chainId": 0
    }
  ]
}