{
  "hash": "0x9876ba54d34963e64668dfe3dc4d4e456e6d9d41bf6ea1388df49070b6a99963",
  "parentHash": "0xa93fcffe9d31b8e83e925573085e0a71e15b51bdc43d25d52e3bdf7b944a5cb4",
  "number": 71038,
  "timestamp": 1439329570,
  "nonce": "0x5f392f8d3afcfe82",
  "difficulty": 2151966652818,
  "gasLimit": {
    "_hex": "0x2fefd8"
  },
  "gasUsed": {
    "_hex": "0xae73"
  },
  "miner": "0xa50ec0D39fa913E62f1Bae7074E6F36caA71855b",
  "extraData": "0x",
  "transactions": [
    {
      "hash": "0xc41bd4e47675ddb7d3380aecc624333b8f2d7b74ac3a8183e9413f5e68881938",
      "blockHash": "0x9876ba54d34963e64668dfe3dc4d4e456e6d9d41bf6ea1388df49070b6a99963",
      "blockNumber": 71038,
      "transactionIndex": 0,
      "confirmations": null,
      "from": "0x17580B766f7453525ca4C6A88b01b50570EA088C",
      "gasPrice": {
        "_hex": "0xceeb2f556"
      },
      "gasLimit": {
        "_hex": "0x61a80"
      },
      "to": "0x5Fe5B7546D1628f7348B023A0393de1FC825A4fD",
      "value": {
        "_hex": "0x29a2241af62c0000"
      },
      "nonce": 86,
      "data": "0xb595b8b50000000000000000000000000000000000000000000000000000000000000000",
      "r": "0x4b83784d7c699ed45be0a2d9b38b9b2e163bfaf94130214532bc404abe38755b",
      "s": "0x06493df2ad18c4109ec1ac531e477b0cd9b95a98a78072f7b8cd23d0c036725f",
      "v": 28,
      "creates": null,
      "raw": "0xf89156850ceeb2f55683061a80945fe5b7546d1628f7348b023a0393de1fc825a4fd8829a2241af62c0000a4b595b8b500000000000000000000000000000000000000000000000000000000000000001ca04b83784d7c699ed45be0a2d9b38b9b2e163bfaf94130214532bc404abe38755ba006493df2ad18c4109ec1ac531e477b0cd9b95a98a78072f7b8cd23d0c036725f",
      "networkId": 0,
      "chainId": 0
    }
  ]
}