{
  "hash": "0x4de80fbf670b9c22fd674508adece19db51bb16d75e4ea45f4b568b8648cb16c",
  "parentHash": "0x007e3512dcd6cceac4dd7991cfb6ffef30be9ea29cfe0845780b16626c8bb4c1",
  "number": 77574,
  "timestamp": 1439439443,
  "nonce": "0x4bafe90e12cac920",
  "difficulty": 2257890844999,
  "gasLimit": {
    "_hex": "0x2fefd8"
  },
  "gasUsed": {
    "_hex": "0x5208"
  },
  "miner": "0xfFcD9CAE6d9f54fd8ae05296F839892677ff6EaA",
  "extraData": "0x476574682f76312e302e312f77696e646f77732f676f312e342e32",
  "transactions": [
    {
      "hash": "0xce3e8b3abd0b0830fdaa02cd0e639127a367f6f048fff3bff57d94ca35929bb1",
      "blockHash": "0x4de80fbf670b9c22fd674508adece19db51bb16d75e4ea45f4b568b8648cb16c",
      "blockNumber": 77574,
      "transactionIndex": 0,
      "confirmations": null,
      "from": "0x723E05fF30e4ba7A87b4D7D459eE5B488A9c36d1",
      "gasPrice": {
        "_hex": "0xd60af52f0"
      },
      "gasLimit": {
        "_hex": "0x15f90"
      },
      "to": "0xabceA603089850F8f6bB612A9031554D90A247CF",
      "value": {
        "_hex": "0x4563918244f40000"
      },
      "nonce": 11,
      "data": "0x",
      "r": "0x59f9476fd047373681de8c223ab6fe7e2353c9689dec2fc9d24173b17744055c",
      "s": "0x7a9a3219377796ff5b1bafcbca83e6eeaa2d9353d2fd38ba9cefbaca04a1f995",
      "v": 28,
      "creates": null,
      "raw": "0xf86d0b850d60af52f083015f9094abcea603089850f8f6bb612a9031554d90a247cf884563918244f40000801ca059f9476fd047373681de8c223ab6fe7e2353c9689dec2fc9d24173b17744055ca07a9a3219377796ff5b1bafcbca83e6eeaa2d9353d2fd38ba9cefbaca04a1f995",
      "networkId": 0,
      "chainId": 0
    }
  ]
}