{
  "hash": "0xf694b765f8658b912e0b1fe0b2e2d05f44ad98024f2c2e0410a0dc7d0336c2f9",
  "parentHash": "0x9897d73bd55d5ddc3f0159cddf0d03619c71da4f0120a5b7bb4fdb641d54af26",
  "number": 72188,
  "timestamp": 1439348766,
  "nonce": "0x7e70bf5466d3a724",
  "difficulty": 2177034885065,
  "gasLimit": {
    "_hex": "0x2fefd8"
  },
  "gasUsed": {
    "_hex": "0x41a4b"
  },
  "miner": "0xF8FFFdCB6b8B88372B6aE42257f66D93E5189AC9",
  "extraData": "0x",
  "transactions": [
    {
      "hash": "0xc06056201130cecb4908ba8bd19a122299240938858774b80de6a3896dd2e4ea",
      "blockHash": "0xf694b765f8658b912e0b1fe0b2e2d05f44ad98024f2c2e0410a0dc7d0336c2f9",
      "blockNumber": 72188,
      "transactionIndex": 0,
      "confirmations": null,
      "from": "0xA3AA3C09d07c1DB0822Bc6CbE1154846bD2d4594",
      "gasPrice": {
        "_hex": "0xd8364fc25"
      },
      "gasLimit": {
        "_hex": "0x15f90"
      },
      "to": "0xf2cC0eEAAAeD313542CB262B0B8c3972425143f0",
      "value": {
        "_hex": "0x1"
      },
      "nonce": 0,
      "data": "0x",
      "r": "0x4f6dac32a7339d018db0e0bf3e36136bb82d7833aab101e1fca7d67486d554c9",
      "s": "0x7b329fb81a94802f32e51a26093ec934696325a1bdb305beb6779195b36f7a9a",
      "v": 28,
      "creates": null,
      "raw": "0xf86580850d8364fc2583015f9094f2cc0eeaaaed313542cb262b0b8c3972425143f001801ca04f6dac32a7339d018db0e0bf3e36136bb82d7833aab101e1fca7d67486d554c9a07b329fb81a94802f32e51a26093ec934696325a1bdb305beb6779195b36f7a9a",
      "networkId": 0,
      "chainId": 0
    },
    {
      "hash": "0xe661042a2a0e7c37802d09c9006ed0f00033e959daa1db0e9d7fb9c7d4005033",
      "blockHash": "0xf694b765f8658b912e0b1fe0b2e2d05f44ad98024f2c2e0410a0dc7d0336c2f9",
      "blockNumber": 72188,
      "transactionIndex": 1,
      "confirmations": null,
      "from": "0x17580B766f7453525ca4C6A88b01b50570EA088C",
      "gasPrice": {
        "_hex": "0xcab8dc197"
      },
      "gasLimit": {
        "_hex": "0x61a80"
      },
      "to": "0x5Fe5B7546D1628f7348B023A0393de1FC825A4fD",
      "value": {
        "_hex": "0x8ac7230489e80000"
      },
      "nonce": 352,
      "data": "0xb595b8b50000000000000000000000000000000000000000000000000000000000000001",
      "r": "0x3d99922c07d5399c0515e71d8bf55d8b606ce293155b7ad84846eb74a3ab00c7",
      "s": "0x54dac430f4a065ec4205cf1b73724c3a3a224f6f1894eb56e39a2c4d3162a4ad",
      "v": 28,
      "creates": null,
      "raw": "0xf893820160850cab8dc19783061a80945fe5b7546d1628f7348b023a0393de1fc825a4fd888ac7230489e80000a4b595b8b500000000000000000000000000000000000000000000000000000000000000011ca03d99922c07d5399c0515e71d8bf55d8b606ce293155b7ad84846eb74a3ab00c7a054dac430f4a065ec4205cf1b73724c3a3a224f6f1894eb56e39a2c4d3162a4ad",
      "networkId": 0,
      "chainId": 0
    },
    {
      "hash": "0xed99175c239ba4b5cbc3a318027f4f68cf502d8492de4200263795bfff7224b7",
      "blockHash": "0xf694b765f8658b912e0b1fe0b2e2d05f44ad98024f2c2e0410a0dc7d0336c2f9",
      "blockNumber": 72188,
      "transactionIndex": 2,
      "confirmations": null,
      "from": "0x17580B766f7453525ca4C6A88b01b50570EA088C",
      "gasPrice": {
        "_hex": "0xcab8dc197"
      },
      "gasLimit": {
        "_hex": "0x61a80"
      },
      "to": "0x5Fe5B7546D1628f7348B023A0393de1FC825A4fD",
      "value": {
        "_hex": "0x8ac7230489e80000"
      },
      "nonce": 353,
      "data": "0xb595b8b50000000000000000000000000000000000000000000000000000000000000001",
      "r": "0x851f13276f7585d69afa1177a57d73d0c8ce5dd9a9407e734f6b7e1ec845a8c5",
      "s": "0x2b389570e0a69de2bbe36b0a480d4359b8808521f2bb5698bc14e19e74e109ae",
      "v": 27,
      "creates": null,
      "raw": "0xf893820161850cab8dc19783061a80945fe5b7546d1628f7348b023a0393de1fc825a4fd888ac7230489e80000a4b595b8b500000000000000000000000000000000000000000000000000000000000000011ba0851f13276f7585d69afa1177a57d73d0c8ce5dd9a9407e734f6b7e1ec845a8c5a02b389570e0a69de2bbe36b0a480d4359b8808521f2bb5698bc14e19e74e109ae",
      "networkId": 0,
      "chainId": 0
    },
    {
      "hash": "0x1fed01a0e584362feaeba9fc514be638770ac6c33ec97f903effa41cb2b9110c",
      "blockHash": "0xf694b765f8658b912e0b1fe0b2e2d05f44ad98024f2c2e0410a0dc7d0336c2f9",
      "blockNumber": 72188,
      "transactionIndex": 3,
      "confirmations": null,
      "from": "0x17580B766f7453525ca4C6A88b01b50570EA088C",
      "gasPrice": {
        "_hex": "0xcab8dc197"
      },
      "gasLimit": {
        "_hex": "0x61a80"
      },
      "to": "0x5Fe5B7546D1628f7348B023A0393de1FC825A4fD",
      "value": {
        "_hex": "0x8ac7230489e80000"
      },
      "nonce": 354,
      "data": "0xb595b8b50000000000000000000000000000000000000000000000000000000000000001",
      "r": "0xa11be3bb8a22c19c6979f8236065893fde6b612e1c68727728c31b26ec699d09",
      "s": "0x25744c4b0f372dc4f9280beb9ee7361714b5ac87d325ddbfe01b4bdcf1229a62",
      "v": 28,
      "creates": null,
      "raw": "0xf893820162850cab8dc19783061a80945fe5b7546d1628f7348b023a0393de1fc825a4fd888ac7230489e80000a4b595b8b500000000000000000000000000000000000000000000000000000000000000011ca0a11be3bb8a22c19c6979f8236065893fde6b612e1c68727728c31b26ec699d09a025744c4b0f372dc4f9280beb9ee7361714b5ac87d325ddbfe01b4bdcf1229a62",
      "networkId": 0,
      "chainId": 0
    },
    {
      "hash": "0x0bf276deb756281e1a4b5a8ab27fff2c08342d9a8773272af44dcc06733559e7",
      "blockHash": "0xf694b765f8658b912e0b1fe0b2e2d05f44ad98024f2c2e0410a0dc7d0336c2f9",
      "blockNumber": 72188,
      "transactionIndex": 4,
      "confirmations": null,
      "from": "0x17580B766f7453525ca4C6A88b01b50570EA088C",
      "gasPrice": {
        "_hex": "0xcab8dc197"
      },
      "gasLimit": {
        "_hex": "0x61a80"
      },
      "to": "0x5Fe5B7546D1628f7348B023A0393de1FC825A4fD",
      "value": {
        "_hex": "0x8ac7230489e80000"
      },
      "nonce": 355,
      "data": "0xb595b8b50000000000000000000000000000000000000000000000000000000000000001",
      "r": "0x7dc731dd54716ceddd1552ab241991c073882ada2cd3aeca4a1c629dc69d0528",
      "s": "0x7ea9e6edd67e7359390b59020e635c4a94a8a542975010afa22a6c42337098f0",
      "v": 28,
      "creates": null,
      "raw": "0xf893820163850cab8dc19783061a80945fe5b7546d1628f7348b023a0393de1fc825a4fd888ac7230489e80000a4b595b8b500000000000000000000000000000000000000000000000000000000000000011ca07dc731dd54716ceddd1552ab241991c073882ada2cd3aeca4a1c629dc69d0528a07ea9e6edd67e7359390b59020e635c4a94a8a542975010afa22a6c42337098f0",
      "networkId": 0,
      "chainId": 0
    },
    {
      "hash": "0x7af5904b3267e7641a3a6f66d1bce35846d67fbfca5988c547d0dcbc5fde5d56",
      "blockHash": "0xf694b765f8658b912e0b1fe0b2e2d05f44ad98024f2c2e0410a0dc7d0336c2f9",
      "blockNumber": 72188,
      "transactionIndex": 5,
      "confirmations": null,
      "from": "0x17580B766f7453525ca4C6A88b01b50570EA088C",
      "gasPrice": {
        "_hex": "0xcab8dc197"
      },
      "gasLimit": {
        "_hex": "0x61a80"
      },
      "to": "0x5Fe5B7546D1628f7348B023A0393de1FC825A4fD",
      "value": {
        "_hex": "0x8ac7230489e80000"
      },
      "nonce": 356,
      "data": "0xb595b8b50000000000000000000000000000000000000000000000000000000000000001",
      "r": "0xe7e65d7a688b694bde5b7459d275a6e19418f9befde65b11b047ecb8a33b6348",
      "s": "0x01d471f48273d1417bc04fc0d7696eb9c267c4232f2e84faf34c04f4e21a0920",
      "v": 28,
      "creates": null,
      "raw": "0xf893820164850cab8dc19783061a80945fe5b7546d1628f7348b023a0393de1fc825a4fd888ac7230489e80000a4b595b8b500000000000000000000000000000000000000000000000000000000000000011ca0e7e65d7a688b694bde5b7459d275a6e19418f9befde65b11b047ecb8a33b6348a001d471f48273d1417bc04fc0d7696eb9c267c4232f2e84faf34c04f4e21a0920",
      "networkId": 0,
      "chainId": 0
    },
    {
      "hash": "0x93ad177f54931d32187fdbb6fc419009f662399deba8ceed9bff1b7600b8b309",
      "blockHash": "0xf694b765f8658b912e0b1fe0b2e2d05f44ad98024f2c2e0410a0dc7d0336c2f9",
      "blockNumber": 72188,
      "transactionIndex": 6,
      "confirmations": null,
      "from": "0x17580B766f7453525ca4C6A88b01b50570EA088C",
      "gasPrice": {
        "_hex": "0xcab8dc197"
      },
      "gasLimit": {
        "_hex": "0x61a80"
      },
      "to": "0x5Fe5B7546D1628f7348B023A0393de1FC825A4fD",
      "value": {
        "_hex": "0x8ac7230489e80000"
      },
      "nonce": 357,
      "data": "0xb595b8b50000000000000000000000000000000000000000000000000000000000000001",
      "r": "0x185ed75d49d8a828d954a4dc39e1b64f52432148e198af9da66e100c142f583f",
      "s": "0x202e90d1b6a8ae60c4c6393be54905714f05afd3407af49f464528fb2e62caef",
      "v": 28,
      "creates": null,
      "raw": "0xf893820165850cab8dc19783061a80945fe5b7546d1628f7348b023a0393de1fc825a4fd888ac7230489e80000a4b595b8b500000000000000000000000000000000000000000000000000000000000000011ca0185ed75d49d8a828d954a4dc39e1b64f52432148e198af9da66e100c142f583fa0202e90d1b6a8ae60c4c6393be54905714f05afd3407af49f464528fb2e62caef",
      "networkId": 0,
      "chainId": 0
    }
  ]
}