{
  "hash": "0xd0e38449bbc8bc1c331825766d1c72aa01af1d2aaeeccdaf74f7cb8c28b24391",
  "parentHash": "0xf0993cc4e42e0bcf0fe546456b7c8986dd267589582bc49f263a13ca9e04f86f",
  "number": 106341,
  "timestamp": 1439902574,
  "nonce": "0xeb78044f609a752a",
  "difficulty": 4472795488970,
  "gasLimit": {
    "_hex": "0x2fefd8"
  },
  "gasUsed": {
    "_hex": "0x5208"
  },
  "miner": "0xe6A7a1d47ff21B6321162AEA7C6CB457D5476Bca",
  "extraData": "0x476574682f76312e302e312d38326566323666362f6c696e75782f676f312e34",
  "transactions": [
    {
      "hash": "0xe5b18c91e0bc91c3b3ff7f88367f678580876f6a93fe6ae61560e00ec5a971e8",
      "blockHash": "0xd0e38449bbc8bc1c331825766d1c72aa01af1d2aaeeccdaf74f7cb8c28b24391",
      "blockNumber": 106341,
      "transactionIndex": 0,
      "confirmations": null,
      "from": "0x3620db64D25D412bAb4C8d93E2e0D7e64e8Cb933",
      "gasPrice": {
        "_hex": "0xdd74ee5f5"
      },
      "gasLimit": {
        "_hex": "0x5208"
      },
      "to": "0x32Be343B94f860124dC4fEe278FDCBD38C102D88",
      "value": {
        "_hex": "0x91b737680bb2e0000"
      },
      "nonce": 14,
      "data": "0x",
      "r": "0x26e6486d4db055420a7dbcf07feecc9feea0ac392460a729b434d290e318dbbc",
      "s": "0x220188821f9d753577a4f36bb4f3d6bded333b6c3f4dc77093dca7796a53f1fe",
      "v": 28,
      "creates": null,
      "raw": "0xf86d0e850dd74ee5f58252089432be343b94f860124dc4fee278fdcbd38c102d8889091b737680bb2e0000801ca026e6486d4db055420a7dbcf07feecc9feea0ac392460a729b434d290e318dbbca0220188821f9d753577a4f36bb4f3d6bded333b6c3f4dc77093dca7796a53f1fe",
      "networkId": 0,
      "chainId": 0
    }
  ]
}