{
  "hash": "0x95e78922f6cfe78e978362da468ef50ac94f50a726e4fc68df27007d9e89f542",
  "parentHash": "0x55e491c01f8f59e89f55be863167f512cec3c0c3444832d7967d32a8d629efff",
  "number": 78966,
  "timestamp": 1439462320,
  "nonce": "0xfea3678183fd4fcc",
  "difficulty": 2299794733664,
  "gasLimit": {
    "_hex": "0x2fefd8"
  },
  "gasUsed": {
    "_hex": "0x5208"
  },
  "miner": "0xF2d2AfF1320476cb8C6b607199D23175cc595693",
  "extraData": "0x476574682f76312e302e312f77696e646f77732f676f312e342e32",
  "transactions": [
    {
      "hash": "0xc1c24e2b66c2f01bc49febf0c262160107fbde083f5b0559e7452af00ba01c39",
      "blockHash": "0x95e78922f6cfe78e978362da468ef50ac94f50a726e4fc68df27007d9e89f542",
      "blockNumber": 78966,
      "transactionIndex": 0,
      "confirmations": null,
      "from": "0x6549DaA75d0EE767eb55AA5993043AeD7f852536",
      "gasPrice": {
        "_hex": "0xd5a33acf6"
      },
      "gasLimit": {
        "_hex": "0x15f90"
      },
      "to": "0xc597A5d92F5dC1137D847db733cfe02c6d209f13",
      "value": {
        "_hex": "0xd928dd17e550000"
      },
      "nonce": 0,
      "data": "0x",
      "r": "0x0d15184e0faf9ed137704f70a1a28cdc220bda22a1a8dfd91f886d1c226147e3",
      "s": "0x5c97c1617261f435a9643b259d82b27c50cea4e5ecdd6beb81d96fbe731e39e3",
      "v": 28,
      "creates": null,
      "raw": "0xf86d80850d5a33acf683015f9094c597a5d92f5dc1137d847db733cfe02c6d209f13880d928dd17e550000801ca00d15184e0faf9ed137704f70a1a28cdc220bda22a1a8dfd91f886d1c226147e3a05c97c1617261f435a9643b259d82b27c50cea4e5ecdd6beb81d96fbe731e39e3",
      "networkId": 0,
      "chainId": 0
    }
  ]
}