{
  "hash": "0x11da5090e0e268119fe56da159b2540b8b6b31b87a57585fefa9a1c783a0fe3f",
  "parentHash": "0x1452ac46b6778489b48fa4e1b5d7f980b0190814e61d808184c6a945dde22cc7",
  "number": 112018,
  "timestamp": 1440000614,
  "nonce": "0x18e5c352a61a65ff",
  "difficulty": 4372627963372,
  "gasLimit": {
    "_hex": "0x2fefd8"
  },
  "gasUsed": {
    "_hex": "0xa410"
  },
  "miner": "0xe6A7a1d47ff21B6321162AEA7C6CB457D5476Bca",
  "extraData": "0x476574682f76312e302e312d38326566323666362f6c696e75782f676f312e34",
  "transactions": [
    {
      "hash": "0xd77ca0522d759e1c74d63b7c45d38fe742a4df6ec243e2948ad771a47f5dc868",
      "blockHash": "0x11da5090e0e268119fe56da159b2540b8b6b31b87a57585fefa9a1c783a0fe3f",
      "blockNumber": 112018,
      "transactionIndex": 0,
      "confirmations": null,
      "from": "0x82B52510444eccC53A32772e7035007A44575251",
      "gasPrice": {
        "_hex": "0xe19992fad"
      },
      "gasLimit": {
        "_hex": "0x15f90"
      },
      "to": "0x7d4FE1Fe322a332397a2e813e002779675F5e212",
      "value": {
        "_hex": "0xde0b6b3a7640000"
      },
      "nonce": 0,
      "data": "0x",
      "r": "0x9101bbb68fdada1c3a5a21bbc6bef485997c0f770bdc15d94aee5fbbe78414f7",
      "s": "0x2fbdb9a931f846db99cb35a7e35287c2cb9f5efb86cfeb654cfbb0a0138017a1",
      "v": 28,
      "creates": null,
      "raw": "0xf86d80850e19992fad83015f90947d4fe1fe322a332397a2e813e002779675f5e212880de0b6b3a7640000801ca09101bbb68fdada1c3a5a21bbc6bef485997c0f770bdc15d94aee5fbbe78414f7a02fbdb9a931f846db99cb35a7e35287c2cb9f5efb86cfeb654cfbb0a0138017a1",
      "networkId": 0,
      "chainId": 0
    },
    {
      "hash": "0xa5ee361d831c72f66af20714cab9a6dca929e6732ec1d584f138a2784acd446c",
      "blockHash": "0x11da5090e0e268119fe56da159b2540b8b6b31b87a57585fefa9a1c783a0fe3f",
      "blockNumber": 112018,
      "transactionIndex": 1,
      "confirmations": null,
      "from": "0xC47Aaa860008be6f65B58c6C6E02a84e666EfE31",
      "gasPrice": {
        "_hex": "0xcfccc8189"
      },
      "gasLimit": {
        "_hex": "0x15f90"
      },
      "to": "0xC89CD9e30AB1C57c9B7FdF8E51B59a86048d08Fa",
      "value": {
        "_hex": "0xddd2935029d7fff"
      },
      "nonce": 102,
      "data": "0x",
      "r": "0xcd8964e1cb2cfb68d5b3fea7bac73794de9a43266f970d1bff9568c3988f0f60",
      "s": "0x4337f74b628b8c46903a77c0f0c2334ded2865cd9f76befe8363c663ab4c97c6",
      "v": 27,
      "creates": null,
      "raw": "0xf86d66850cfccc818983015f9094c89cd9e30ab1c57c9b7fdf8e51b59a86048d08fa880ddd2935029d7fff801ba0cd8964e1cb2cfb68d5b3fea7bac73794de9a43266f970d1bff9568c3988f0f60a04337f74b628b8c46903a77c0f0c2334ded2865cd9f76befe8363c663ab4c97c6",
      "networkId": 0,
      "chainId": 0
    }
  ]
}