{
  "hash": "0x7e91629f68bf02b6bd10e81ce3c0eb9299e6b9091ac72e66368242b1159d47db",
  "parentHash": "0x1de450723260639cd27caa374e534803875269989a741e9ae1333dfcf3c394e8",
  "number": 53933,
  "timestamp": 1439045968,
  "nonce": "0xe4d97fd7afdb009b",
  "difficulty": 1604819103007,
  "gasLimit": {
    "_hex": "0x2fefd8"
  },
  "gasUsed": {
    "_hex": "0x546c"
  },
  "miner": "0x0eDEd3DA479d0beF8eeC92A76644D3f4E3C177f7",
  "extraData": "0x476574682f76312e302e312f6c696e75782f676f312e342e32",
  "transactions": [
    {
      "hash": "0x197ff9e671dcb8aac2a78ae370f17de744cfb38a70d02c7fc967a1d53792a694",
      "blockHash": "0x7e91629f68bf02b6bd10e81ce3c0eb9299e6b9091ac72e66368242b1159d47db",
      "blockNumber": 53933,
      "transactionIndex": 0,
      "confirmations": null,
      "from": "0xfaAD905D847c7b23418AEeCbE3ADdB8DD3f8924a",
      "gasPrice": {
        "_hex": "0xd2d61a578"
      },
      "gasLimit": {
        "_hex": "0x15f90"
      },
      "to": "0x2910543Af39abA0Cd09dBb2D50200b3E800A63D2",
      "value": {
        "_hex": "0x1ab9bfd7f95b940000"
      },
      "nonce": 1,
      "data": "0x454e5743414d595647",
      "r": "0xb8d0f57a33c3f84c7abe0de56707d8390ca22d736a63a654b40d054b4fc1ab70",
      "s": "0x635927dcc6a9a0e1b3958d372c73a2482bc11a58d0e0627a679506decd52f43d",
      "v": 28,
      "creates": null,
      "raw": "0xf87701850d2d61a57883015f90942910543af39aba0cd09dbb2d50200b3e800a63d2891ab9bfd7f95b94000089454e5743414d5956471ca0b8d0f57a33c3f84c7abe0de56707d8390ca22d736a63a654b40d054b4fc1ab70a0635927dcc6a9a0e1b3958d372c73a2482bc11a58d0e0627a679506decd52f43d",
      "networkId": 0,
      "chainId": 0
    }
  ]
}