{
  "hash": "0xd13592288a588a8e1601129c6dfa2680016fa38c045cb90f22c9bd9d91c44911",
  "parentHash": "0xe8eacb35fc21a6769c9256b7238db882b655d544804f4ce9e9c9c2b8626a791e",
  "number": 72845,
  "timestamp": 1439358955,
  "nonce": "0xf0bcb951d08808c2",
  "difficulty": 2190726322028,
  "gasLimit": {
    "_hex": "0x2fe3de"
  },
  "gasUsed": {
    "_hex": "0x546c"
  },
  "miner": "0xA10C59651885FeAaac91F871082a23BBbaBeDfCf",
  "extraData": "0x476574682f76312e302e302f77696e646f77732f676f312e342e32",
  "transactions": [
    {
      "hash": "0xbd0a1829383415c5b055959ebc6655682a87a9b3d2452c8543b919d9d1a0d4d8",
      "blockHash": "0xd13592288a588a8e1601129c6dfa2680016fa38c045cb90f22c9bd9d91c44911",
      "blockNumber": 72845,
      "transactionIndex": 0,
      "confirmations": null,
      "from": "0xE083d34863e0E17f926b7928eDff317E998E9C4B",
      "gasPrice": {
        "_hex": "0x110c8f7d8de"
      },
      "gasLimit": {
        "_hex": "0xc350"
      },
      "to": "0x2910543Af39abA0Cd09dBb2D50200b3E800A63D2",
      "value": {
        "_hex": "0x97c9ce4cf6d5c0000"
      },
      "nonce": 0,
      "data": "0x454e39563646393947",
      "r": "0x1f3c400701fe61fee3ae7a8d5287de3cd41a7ee4eb24ec65abf8e42432c6caf6",
      "s": "0x6efcbe4c14c90b236bdf992b3e0a69bbc0054c62d52b86b3cfd95861073ef285",
      "v": 27,
      "creates": null,
      "raw": "0xf87780860110c8f7d8de82c350942910543af39aba0cd09dbb2d50200b3e800a63d289097c9ce4cf6d5c000089454e395636463939471ba01f3c400701fe61fee3ae7a8d5287de3cd41a7ee4eb24ec65abf8e42432c6caf6a06efcbe4c14c90b236bdf992b3e0a69bbc0054c62d52b86b3cfd95861073ef285",
      "networkId": 0,
      "chainId": 0
    }
  ]
}