{
  "hash": "0x509f893b99976083c4412d49dd610c04982374d59ea4eb2c25a37954dff26af0",
  "parentHash": "0x2598e226022e5de3a67ca83038f05ec804eec05a775ba1290f45cc9c2fa7a202",
  "number": 106120,
  "timestamp": 1439898950,
  "nonce": "0x4a7d0df8bba204b6",
  "difficulty": 4466366004384,
  "gasLimit": {
    "_hex": "0x2fefd8"
  },
  "gasUsed": {
    "_hex": "0x5208"
  },
  "miner": "0xbb7B8287f3F0a933474a79eAe42CBCa977791171",
  "extraData": "0x476574682f4c5649562f76312e302e312f6c696e75782f676f312e342e32",
  "transactions": [
    {
      "hash": "0xf7907e85fbdca08650392047ff8cc133ad56ccab56cd9c704bda6a05bce513bf",
      "blockHash": "0x509f893b99976083c4412d49dd610c04982374d59ea4eb2c25a37954dff26af0",
      "blockNumber": 106120,
      "transactionIndex": 0,
      "confirmations": null,
      "from": "0x120A270bbC009644e35F0bB6ab13f95b8199c4ad",
      "gasPrice": {
        "_hex": "0xd6fc3e745"
      },
      "gasLimit": {
        "_hex": "0x3d090"
      },
      "to": "0x60d85a32126130b225913C23dF4e5EF8b759fA09",
      "value": {
        "_hex": "0x2b5e3af16b18800000"
      },
      "nonce": 776,
      "data": "0x",
      "r": "0xb6d233b7c1cd7e45a8cb92be965faae1dcfbe9126fe6156487cb03ab26295e03",
      "s": "0x4dad3208ce598d234c3ceb9adde60114878998fb9f118f9a0fbfa9896567328d",
      "v": 27,
      "creates": null,
      "raw": "0xf870820308850d6fc3e7458303d0909460d85a32126130b225913c23df4e5ef8b759fa09892b5e3af16b18800000801ba0b6d233b7c1cd7e45a8cb92be965faae1dcfbe9126fe6156487cb03ab26295e03a04dad3208ce598d234c3ceb9adde60114878998fb9f118f9a0fbfa9896567328d",
      "networkId": 0,
      "chainId": 0
    }
  ]
}