{
  "hash": "0xa5f30abd959af9260d5b94d0b3309674be963bc1079ba7678e22b54b36e58cbd",
  "parentHash": "0x2486d281f6bf2f72c3716c9c40152d7c9ed86a5a23251d34e47c11ac388f8833",
  "number": 122010,
  "timestamp": 1440186686,
  "nonce": "0xaf98ce8e148aa43c",
  "difficulty": 4462269219809,
  "gasLimit": {
    "_hex": "0x2fefd8"
  },
  "gasUsed": {
    "_hex": "0x14820"
  },
  "miner": "0xbb7B8287f3F0a933474a79eAe42CBCa977791171",
  "extraData": "0xd783010003844765746887676f312e342e32856c696e7578",
  "transactions": [
    {
      "hash": "0xe0e518347f978564ef9738dc31816c93667f5fbc9ba7cf7a21262901a5aa134f",
      "blockHash": "0xa5f30abd959af9260d5b94d0b3309674be963bc1079ba7678e22b54b36e58cbd",
      "blockNumber": 122010,
      "transactionIndex": 0,
      "confirmations": null,
      "from": "0xb1abce2918E21ddb93AA452731a12672A3d9F75a",
      "gasPrice": {
        "_hex": "0xdd434120c"
      },
      "gasLimit": {
        "_hex": "0x5208"
      },
      "to": "0x32Be343B94f860124dC4fEe278FDCBD38C102D88",
      "value": {
        "_hex": "0x455f231aef923c00"
      },
      "nonce": 220,
      "data": "0x",
      "r": "0x28335abcc3dce96c34ea2569aa2098fdb1a656e774f7da96f731c84224438636",
      "s": "0x198c8757dd8a0cc67e2662fb789c0e84842eb6e66d2b3e4997dae9eebf9f1a9e",
      "v": 27,
      "creates": null,
      "raw": "0xf86d81dc850dd434120c8252089432be343b94f860124dc4fee278fdcbd38c102d8888455f231aef923c00801ba028335abcc3dce96c34ea2569aa2098fdb1a656e774f7da96f731c84224438636a0198c8757dd8a0cc67e2662fb789c0e84842eb6e66d2b3e4997dae9eebf9f1a9e",
      "networkId": 0,
      "chainId": 0
    },
    {
      "hash": "0xfd798e3c2a151556f58d1d8f9ed0d05b063d8c4dcaa58e332f033e1fdb65ef26",
      "blockHash": "0xa5f30abd959af9260d5b94d0b3309674be963bc1079ba7678e22b54b36e58cbd",
      "blockNumber": 122010,
      "transactionIndex": 1,
      "confirmations": null,
      "from": "0x608f4b86321a68453f9adf6F06F7Fc3E621739ad",
      "gasPrice": {
        "_hex": "0xdd434120c"
      },
      "gasLimit": {
        "_hex": "0x5208"
      },
      "to": "0x32Be343B94f860124dC4fEe278FDCBD38C102D88",
      "value": {
        "_hex": "0x8ac707269b972000"
      },
      "nonce": 119,
      "data": "0x",
      "r": "0x854ea6871d6ac2bc0176ba927ea9d5ea8d7e84785762772456a538fb4d7450ec",
      "s": "0x41ffb73d9ef54c962289de418287ecc6f328ebaa6eaf2a7e1c46e0b4e1f32087",
      "v": 28,
      "creates": null,
      "raw": "0xf86c77850dd434120c8252089432be343b94f860124dc4fee278fdcbd38c102d88888ac707269b972000801ca0854ea6871d6ac2bc0176ba927ea9d5ea8d7e84785762772456a538fb4d7450eca041ffb73d9ef54c962289de418287ecc6f328ebaa6eaf2a7e1c46e0b4e1f32087",
      "networkId": 0,
      "chainId": 0
    },
    {
      "hash": "0xc25d8102857c3f4b164bee690d24f3931283126a721deb22717f3a3e50c579fe",
      "blockHash": "0xa5f30abd959af9260d5b94d0b3309674be963bc1079ba7678e22b54b36e58cbd",
      "blockNumber": 122010,
      "transactionIndex": 2,
      "confirmations": null,
      "from": "0x63738Ec4C9adec404749B5747F3bbE2147de632F",
      "gasPrice": {
        "_hex": "0xd65e6bdb5"
      },
      "gasLimit": {
        "_hex": "0x15f90"
      },
      "to": "0x557C2806B6ceA65a66F415bb2Ed1ce897B340745",
      "value": {
        "_hex": "0x8ac7230489e80000"
      },
      "nonce": 76,
      "data": "0x",
      "r": "0xd6d9b1d4915820f7da091438e106755969a7cf69e7f251f893cd2f9e0a77b541",
      "s": "0x206d0adbb092d97d03c778d8954fc0054fda47cd04d4f79d0c1b1e27a8615fad",
      "v": 27,
      "creates": null,
      "raw": "0xf86d4c850d65e6bdb583015f9094557c2806b6cea65a66f415bb2ed1ce897b340745888ac7230489e80000801ba0d6d9b1d4915820f7da091438e106755969a7cf69e7f251f893cd2f9e0a77b541a0206d0adbb092d97d03c778d8954fc0054fda47cd04d4f79d0c1b1e27a8615fad",
      "networkId": 0,
      "chainId": 0
    },
    {
      "hash": "0x71cf512790894d4197dc7a6c32c4872259fac65341f14a20c8cfd3d57027c709",
      "blockHash": "0xa5f30abd959af9260d5b94d0b3309674be963bc1079ba7678e22b54b36e58cbd",
      "blockNumber": 122010,
      "transactionIndex": 3,
      "confirmations": null,
      "from": "0x63738Ec4C9adec404749B5747F3bbE2147de632F",
      "gasPrice": {
        "_hex": "0xcf17a4318"
      },
      "gasLimit": {
        "_hex": "0x15f90"
      },
      "to": "0x557C2806B6ceA65a66F415bb2Ed1ce897B340745",
      "value": {
        "_hex": "0x8ac7230489e80000"
      },
      "nonce": 77,
      "data": "0x",
      "r": "0xb142c439727d160bd0989ed54875806dda7bd01093debf9750b1b1de369feefd",
      "s": "0x58182504728d5fa12e6bcdac8aee428e13db0d990f9297503ee38c74e08bc96c",
      "v": 27,
      "creates": null,
      "raw": "0xf86d4d850cf17a431883015f9094557c2806b6cea65a66f415bb2ed1ce897b340745888ac7230489e80000801ba0b142c439727d160bd0989ed54875806dda7bd01093debf9750b1b1de369feefda058182504728d5fa12e6bcdac8aee428e13db0d990f9297503ee38c74e08bc96c",
      "networkId": 0,
      "chainId": 0
    }
  ]
}