{
  "hash": "0x055dba5d3c422a07cd97d6df7adadff6cc60ab55293cdfcc898c0acc703603cd",
  "parentHash": "0xf299a5e9eee0992e8cc0c66212ace9e192ac9fbb8143730edd5bb81a5e3af69c",
  "number": 119681,
  "timestamp": 1440147131,
  "nonce": "0xfda27c37f04deb03",
  "difficulty": 4379314032455,
  "gasLimit": {
    "_hex": "0x2fefd8"
  },
  "gasUsed": {
    "_hex": "0x5208"
  },
  "miner": "0x580992B51e3925e23280EfB93d3047C82f17E038",
  "extraData": "0x",
  "transactions": [
    {
      "hash": "0xb786d8abf702d1108ccf3511e81c4bbc9c1522f068043e29123c67a606a1f4eb",
      "blockHash": "0x055dba5d3c422a07cd97d6df7adadff6cc60ab55293cdfcc898c0acc703603cd",
      "blockNumber": 119681,
      "transactionIndex": 0,
      "confirmations": null,
      "from": "0xaeB839628f142B7d4FA774F44ef1159d871f9690",
      "gasPrice": {
        "_hex": "0xe1cf95998"
      },
      "gasLimit": {
        "_hex": "0x15f90"
      },
      "to": "0x8312c82650D4A0bF2393eCE0554f650dA73eD14b",
      "value": {
        "_hex": "0x63eb89da4ed0000"
      },
      "nonce": 0,
      "data": "0x",
      "r": "0x0b62a346be21f977166c6fe20813db0f404cf258d95a1861988bdf3b217a41cb",
      "s": "0x4d72c6978943cb42cd9af046b1eb0f76c8d9830984b42260c82e9cabff013021",
      "v": 27,
      "creates": null,
      "raw": "0xf86d80850e1cf9599883015f90948312c82650d4a0bf2393ece0554f650da73ed14b88063eb89da4ed0000801ba00b62a346be21f977166c6fe20813db0f404cf258d95a1861988bdf3b217a41cba04d72c6978943cb42cd9af046b1eb0f76c8d9830984b42260c82e9cabff013021",
      "networkId": 0,
      "chainId": 0
    }
  ]
}