{
  "hash": "0x4448082c2301c7442b82d4f91efda8f55a0de43bd621f3f3884568cdf5cf0271",
  "parentHash": "0x87bbe9534044db4eb64580284368b92a66ffa9532e12889ec48e2ede109bb019",
  "number": 81765,
  "timestamp": 1439507510,
  "nonce": "0x99e610de549fc935",
  "difficulty": 2419971446606,
  "gasLimit": {
    "_hex": "0x2fefd8"
  },
  "gasUsed": {
    "_hex": "0xa410"
  },
  "miner": "0xf927a40C8B7F6E07c5af7FA2155B4864a4112B13",
  "extraData": "0x",
  "transactions": [
    {
      "hash": "0x82cb0b028f748b005ccce250ff6075d348df60b0a8f3f4ff8809dc03ad5ccaa2",
      "blockHash": "0x4448082c2301c7442b82d4f91efda8f55a0de43bd621f3f3884568cdf5cf0271",
      "blockNumber": 81765,
      "transactionIndex": 0,
      "confirmations": null,
      "from": "0x32Be343B94f860124dC4fEe278FDCBD38C102D88",
      "gasPrice": {
        "_hex": "0xd37908bc5"
      },
      "gasLimit": {
        "_hex": "0x5208"
      },
      "to": "0xFa1313bA3596B898C4BF676bd344214E79E62D5E",
      "value": {
        "_hex": "0x1b1ac14ff07f8f0000"
      },
      "nonce": 614,
      "data": "0x",
      "r": "0x093819f67906e1003560c880cd09bb7e3fbba7fb84005ffc17ccae680118cea3",
      "s": "0x3cb91c73d9e2ca33929d552b7f5122ca88f3bc9e2e06c1e5df6aa169b4118a12",
      "v": 27,
      "creates": null,
      "raw": "0xf86f820266850d37908bc582520894fa1313ba3596b898c4bf676bd344214e79e62d5e891b1ac14ff07f8f0000801ba0093819f67906e1003560c880cd09bb7e3fbba7fb84005ffc17ccae680118cea3a03cb91c73d9e2ca33929d552b7f5122ca88f3bc9e2e06c1e5df6aa169b4118a12",
      "networkId": 0,
      "chainId": 0
    },
    {
      "hash": "0xf73d3f4ded9162157863743312ec7b092acc2ceb5fc8b2b01174fe4ad6ef40a7",
      "blockHash": "0x4448082c2301c7442b82d4f91efda8f55a0de43bd621f3f3884568cdf5cf0271",
      "blockNumber": 81765,
      "transactionIndex": 1,
      "confirmations": null,
      "from": "0x32Be343B94f860124dC4fEe278FDCBD38C102D88",
      "gasPrice": {
        "_hex": "0xd37908bc5"
      },
      "gasLimit": {
        "_hex": "0x5208"
      },
      "to": "0x120A270bbC009644e35F0bB6ab13f95b8199c4ad",
      "value": {
        "_hex": "0x878678326eac900000"
      },
      "nonce": 615,
      "data": "0x",
      "r": "0x698befb6eba0941358a4fae04358f87f2fc227f77a006d66e04d3bec68da0185",
      "s": "0x1f595164f179e8c455989a953a1834e17b643d71f7b3c85850310da1d57a187e",
      "v": 27,
      "creates": null,
      "raw": "0xf86f820267850d37908bc582520894120a270bbc009644e35f0bb6ab13f95b8199c4ad89878678326eac900000801ba0698befb6eba0941358a4fae04358f87f2fc227f77a006d66e04d3bec68da0185a01f595164f179e8c455989a953a1834e17b643d71f7b3c85850310da1d57a187e",
      "networkId": 0,
      "chainId": 0
    }
  ]
}