{
  "hash": "0x5280e55263cdbb4a42ead9115ba67d81c2b1b725a4fdb8299556ccea26442152",
  "parentHash": "0x06dfed60ddfaca9c34d746c508f62e32d37a7831a9a05a20df11cf626403cf5b",
  "number": 87632,
  "timestamp": 1439595220,
  "nonce": "0xfa02dc0c4ad09977",
  "difficulty": 3155571568982,
  "gasLimit": {
    "_hex": "0x2fefd8"
  },
  "gasUsed": {
    "_hex": "0x5d9f"
  },
  "miner": "0xe6A7a1d47ff21B6321162AEA7C6CB457D5476Bca",
  "extraData": "0x476574682f76312e302e312d38326566323666362f6c696e75782f676f312e34",
  "transactions": [
    {
      "hash": "0xc884c2239672837d0e4907956d5332e7dea297a879d55c6373ed12f774844013",
      "blockHash": "0x5280e55263cdbb4a42ead9115ba67d81c2b1b725a4fdb8299556ccea26442152",
      "blockNumber": 87632,
      "transactionIndex": 0,
      "confirmations": null,
      "from": "0xb6E6C3222B6b6f9bE2875D2a89f127fb64100Fe2",
      "gasPrice": {
        "_hex": "0xd4a39d6e5"
      },
      "gasLimit": {
        "_hex": "0x15f90"
      },
      "to": "0xAd8d3a5d2d92EB14bB56CA9f380be35b8EFE0c04",
      "value": {
        "_hex": "0xde0b6b3a7640000"
      },
      "nonce": 4,
      "data": "0xb214faa54141414142414744450000000000000000000000000000000000000000000000",
      "r": "0x2b55eb15b667f92b4b9ee20942f4448272373a6fbf0941caf62d8ea19a3b255a",
      "s": "0x6ca35b2cae1414f3767fb2a5538ff85993dd2122b13aac53fedb628a92993285",
      "v": 28,
      "creates": null,
      "raw": "0xf89104850d4a39d6e583015f9094ad8d3a5d2d92eb14bb56ca9f380be35b8efe0c04880de0b6b3a7640000a4b214faa541414141424147444500000000000000000000000000000000000000000000001ca02b55eb15b667f92b4b9ee20942f4448272373a6fbf0941caf62d8ea19a3b255aa06ca35b2cae1414f3767fb2a5538ff85993dd2122b13aac53fedb628a92993285",
      "networkId": 0,
      "chainId": 0
    }
  ]
}