{
  "hash": "0x2d698cce211b24b1d8ac5d59fa18cec5a84739b38a1d100c0c75ddbff8fbe0ed",
  "parentHash": "0x14e087e2dd047ac0df04d9d18f008669783c85ad90b3fbe85cca44c6495a9fad",
  "number": 91645,
  "timestamp": 1439659123,
  "nonce": "0x7d4724327c95e5bb",
  "difficulty": 3492933909785,
  "gasLimit": {
    "_hex": "0x2fefd8"
  },
  "gasUsed": {
    "_hex": "0x5208"
  },
  "miner": "0xe6A7a1d47ff21B6321162AEA7C6CB457D5476Bca",
  "extraData": "0x476574682f76312e302e312d38326566323666362f6c696e75782f676f312e34",
  "transactions": [
    {
      "hash": "0x69ed223b806c750bb66dbf3b57b1f6f55f8e17b6edf914ebcc2ef28f36a22153",
      "blockHash": "0x2d698cce211b24b1d8ac5d59fa18cec5a84739b38a1d100c0c75ddbff8fbe0ed",
      "blockNumber": 91645,
      "transactionIndex": 0,
      "confirmations": null,
      "from": "0x120A270bbC009644e35F0bB6ab13f95b8199c4ad",
      "gasPrice": {
        "_hex": "0xcb0936e0f"
      },
      "gasLimit": {
        "_hex": "0x3d090"
      },
      "to": "0xDbae3E0A2466Fe174FEe7428Fd3813C56A66FBb1",
      "value": {
        "_hex": "0x15af1d78b58c40000"
      },
      "nonce": 535,
      "data": "0x",
      "r": "0xf5c8f01f83fc3f604f175a3d5017a679a36d251d606c34fc9e58bf3446bdbeb7",
      "s": "0x6eae1611f79463d33a2cc0e3f7f7593be9930e8be7462709bba50312402de742",
      "v": 28,
      "creates": null,
      "raw": "0xf870820217850cb0936e0f8303d09094dbae3e0a2466fe174fee7428fd3813c56a66fbb189015af1d78b58c40000801ca0f5c8f01f83fc3f604f175a3d5017a679a36d251d606c34fc9e58bf3446bdbeb7a06eae1611f79463d33a2cc0e3f7f7593be9930e8be7462709bba50312402de742",
      "networkId": 0,
      "chainId": 0
    }
  ]
}