{
  "hash": "0x77dcfc37965e7bfb83973e4e791480cc9dc96c8cf14612a213d5499975224c1a",
  "parentHash": "0xc1c0692aacb9857e2aaa29be7e6b5715d1846e7a8f793f89e11234d2298905ae",
  "number": 63527,
  "timestamp": 1439205940,
  "nonce": "0xd61801e2c21f17f2",
  "difficulty": 1837831067316,
  "gasLimit": {
    "_hex": "0x2fefd2"
  },
  "gasUsed": {
    "_hex": "0x14820"
  },
  "miner": "0x01d9DA08cc6Fb97c0DE1B6F4C28910A0859Ed1A1",
  "extraData": "0x476574682f76312e302e312f6c696e75782f676f312e342e32",
  "transactions": [
    {
      "hash": "0xc1da839a7fb019d1b019abec70ddebfe0ea0dda6f03574a94ba30ddf7eb90be9",
      "blockHash": "0x77dcfc37965e7bfb83973e4e791480cc9dc96c8cf14612a213d5499975224c1a",
      "blockNumber": 63527,
      "transactionIndex": 0,
      "confirmations": null,
      "from": "0x1a79c7f4039C67A39d7513884cDC0E2C34222490",
      "gasPrice": {
        "_hex": "0xd69b48315"
      },
      "gasLimit": {
        "_hex": "0x15f90"
      },
      "to": "0x481b251c3Cd86c298f9f601f8BF7021412e193c6",
      "value": {
        "_hex": "0x1"
      },
      "nonce": 8,
      "data": "0x",
      "r": "0x2de9f26a30bef67dacab09890e0661825060e0c3cb2bb9e3b9778b020e73d82e",
      "s": "0x41be234868f3f72f638386ce07a5493196262e096b1062554f1ad5b00fc49558",
      "v": 27,
      "creates": null,
      "raw": "0xf86508850d69b4831583015f9094481b251c3cd86c298f9f601f8bf7021412e193c601801ba02de9f26a30bef67dacab09890e0661825060e0c3cb2bb9e3b9778b020e73d82ea041be234868f3f72f638386ce07a5493196262e096b1062554f1ad5b00fc49558",
      "networkId": 0,
      "chainId": 0
    },
    {
      "hash": "0x132cc854413a27e11d2de2ffa9f8f05664f6d35a4ce28f79a211cfb7b422a84f",
      "blockHash": "0x77dcfc37965e7bfb83973e4e791480cc9dc96c8cf14612a213d5499975224c1a",
      "blockNumber": 63527,
      "transactionIndex": 1,
      "confirmations": null,
      "from": "0xCb88dAC50e0b4f450f3a5d02c2D65Bc56361313E",
      "gasPrice": {
        "_hex": "0xcfa21bfd4"
      },
      "gasLimit": {
        "_hex": "0x5208"
      },
      "to": "0x32Be343B94f860124dC4fEe278FDCBD38C102D88",
      "value": {
        "_hex": "0x56bc335a66e8a0000"
      },
      "nonce": 4,
      "data": "0x",
      "r": "0x4eaa396f6beae8b73cf01319eb58a1479f0db8969ff5930d763fe3f993161837",
      "s": "0x193f2f36de8aed46f43b1d66c150b24eaf6edd713f8477a50400bb844f71fed2",
      "v": 27,
      "creates": null,
      "raw": "0xf86d04850cfa21bfd48252089432be343b94f860124dc4fee278fdcbd38c102d8889056bc335a66e8a0000801ba04eaa396f6beae8b73cf01319eb58a1479f0db8969ff5930d763fe3f993161837a0193f2f36de8aed46f43b1d66c150b24eaf6edd713f8477a50400bb844f71fed2",
      "networkId": 0,
      "chainId": 0
    },
    {
      "hash": "0x91073423aebe1b97f612c0da14830e9ad509fb94f7028e03b8312d6da1c813eb",
      "blockHash": "0x77dcfc37965e7bfb83973e4e791480cc9dc96c8cf14612a213d5499975224c1a",
      "blockNumber": 63527,
      "transactionIndex": 2,
      "confirmations": null,
      "from": "0x32Be343B94f860124dC4fEe278FDCBD38C102D88",
      "gasPrice": {
        "_hex": "0xcfa21bfd4"
      },
      "gasLimit": {
        "_hex": "0x5208"
      },
      "to": "0xbB7735934F8229F1fc2e76F7AfD82e14AA1e8E81",
      "value": {
        "_hex": "0x1a16ad3ccb45c100000"
      },
      "nonce": 166,
      "data": "0x",
      "r": "0xc7e8c8f4ba4b0b2e6e63f3845e2d5aa76af4e9056ac434967a8276b108d99e8b",
      "s": "0x65e5889c544a15152ddeb0f90ccc4f4a1d39fb1661b3cc8123c06be932ae6555",
      "v": 27,
      "creates": null,
      "raw": "0xf86f81a6850cfa21bfd482520894bb7735934f8229f1fc2e76f7afd82e14aa1e8e818a01a16ad3ccb45c100000801ba0c7e8c8f4ba4b0b2e6e63f3845e2d5aa76af4e9056ac434967a8276b108d99e8ba065e5889c544a15152ddeb0f90ccc4f4a1d39fb1661b3cc8123c06be932ae6555",
      "networkId": 0,
      "chainId": 0
    },
    {
      "hash": "0x75f34054ca30b68fee9ce2411c81471fc8adb4dd679989f89fb2824e89ea40fb",
      "blockHash": "0x77dcfc37965e7bfb83973e4e791480cc9dc96c8cf14612a213d5499975224c1a",
      "blockNumber": 63527,
      "transactionIndex": 3,
      "confirmations": null,
      "from": "0xF87481A262E993a75F791E7859E71BaC36A606Eb",
      "gasPrice": {
        "_hex": "0xcfa21bfd4"
      },
      "gasLimit": {
        "_hex": "0x5208"
      },
      "to": "0x32Be343B94f860124dC4fEe278FDCBD38C102D88",
      "value": {
        "_hex": "0xd8d6e42ea83220000"
      },
      "nonce": 7,
      "data": "0x",
      "r": "0xa616b6c74ba0cb9e092616c770aacd3e9e779a3114b4d71a46750068813a05f1",
      "s": "0x3eed5a9371cf75c3fce8a2a9dd95be80efa07a8d2745bb622284d36f42031c79",
      "v": 27,
      "creates": null,
      "raw": "0xf86d07850cfa21bfd48252089432be343b94f860124dc4fee278fdcbd38c102d88890d8d6e42ea83220000801ba0a616b6c74ba0cb9e092616c770aacd3e9e779a3114b4d71a46750068813a05f1a03eed5a9371cf75c3fce8a2a9dd95be80efa07a8d2745bb622284d36f42031c79",
      "networkId": 0,
      "chainId": 0
    }
  ]
}