{
  "hash": "0xf39c1136614bf53581e951ac95c674f1f7718656cf4615c21ca5d4dab4f55756",
  "parentHash": "0x7fb9889b61c7e77de0b8d4897d85c540f817d1b35e7941d6e8fde9f3bbbc96f2",
  "number": 70304,
  "timestamp": 1439317842,
  "nonce": "0x01f517de80dc0b76",
  "difficulty": 2133322412854,
  "gasLimit": {
    "_hex": "0x2fefd8"
  },
  "gasUsed": {
    "_hex": "0x546c"
  },
  "miner": "0x76d4a9bc9612bE738A81d0fE632b00B971E2bB9a",
  "extraData": "0x",
  "transactions": [
    {
      "hash": "0x00e62a7d65524703ceb7528fa0454b86150953f25d1bbc7d4fa7278ff2b66aa9",
      "blockHash": "0xf39c1136614bf53581e951ac95c674f1f7718656cf4615c21ca5d4dab4f55756",
      "blockNumber": 70304,
      "transactionIndex": 0,
      "confirmations": null,
      "from": "0xCe266fafD0c5b4fA61Ac52879Cbc1574570Aca16",
      "gasPrice": {
        "_hex": "0xd1b3cc458"
      },
      "gasLimit": {
        "_hex": "0x55f0"
      },
      "to": "0x2910543Af39abA0Cd09dBb2D50200b3E800A63D2",
      "value": {
        "_hex": "0x1158e460913d00000"
      },
      "nonce": 0,
      "data": "0x454e4b4a45564e5252",
      "r": "0x9d57c36f278e633374a9eea76c75b02972ea8b0862334330b9dd0bdb3ae2c2d8",
      "s": "0x757cef1cb699729d929c1c4a8d3d6f844ca76ee39d6cec82b2360547e59d4841",
      "v": 28,
      "creates": null,
      "raw": "0xf87680850d1b3cc4588255f0942910543af39aba0cd09dbb2d50200b3e800a63d28901158e460913d0000089454e4b4a45564e52521ca09d57c36f278e633374a9eea76c75b02972ea8b0862334330b9dd0bdb3ae2c2d8a0757cef1cb699729d929c1c4a8d3d6f844ca76ee39d6cec82b2360547e59d4841",
      "networkId": 0,
      "chainId": 0
    }
  ]
}