{
  "hash": "0x5beebb80f6b468306306bd16d293fa1b11f9b2e11526a6b24d6e13aecc274fbd",
  "parentHash": "0x0a809b4655b059c1607c75094faf187ba78fadc0880c6cb7ee1d1c02ddae858b",
  "number": 85715,
  "timestamp": 1439567688,
  "nonce": "0x3296b6272a1a1243",
  "difficulty": 2786778970742,
  "gasLimit": {
    "_hex": "0x2fefd8"
  },
  "gasUsed": {
    "_hex": "0x546c"
  },
  "miner": "0xeB1325C8D9d3ea8D74aC11F4B00F1B2367686319",
  "extraData": "0x476574682f76312e302e312f77696e646f77732f676f312e342e32",
  "transactions": [
    {
      "hash": "0xc6941fe6a32d786e9fe72312fe580d2d77e4f7d716486e2db7c272c82fa1894a",
      "blockHash": "0x5beebb80f6b468306306bd16d293fa1b11f9b2e11526a6b24d6e13aecc274fbd",
      "blockNumber": 85715,
      "transactionIndex": 0,
      "confirmations": null,
      "from": "0x679437EAcF437878Dc293D48A39C87b7421a216C",
      "gasPrice": {
        "_hex": "0x110c8f7d8de"
      },
      "gasLimit": {
        "_hex": "0xc350"
      },
      "to": "0x2910543Af39abA0Cd09dBb2D50200b3E800A63D2",
      "value": {
        "_hex": "0x3eba440d50c40000"
      },
      "nonce": 0,
      "data": "0x454e5133384a504e38",
      "r": "0x820fc35faa60a2eeda8bcf573045f14d0511905668b299f760ba0ea58fecd406",
      "s": "0xd0ee86a2ac7019b71b1d3e07778957aa6450c53646c1d28a2ec7d58e794ee7ee",
      "v": 27,
      "creates": null,
      "raw": "0xf87680860110c8f7d8de82c350942910543af39aba0cd09dbb2d50200b3e800a63d2883eba440d50c4000089454e5133384a504e381ba0820fc35faa60a2eeda8bcf573045f14d0511905668b299f760ba0ea58fecd406a0d0ee86a2ac7019b71b1d3e07778957aa6450c53646c1d28a2ec7d58e794ee7ee",
      "networkId": 0,
      "chainId": 0
    }
  ]
}