{
  "hash": "0xd098acb6eee71afaeec1e8e75c7536de21d60a6380b93778bf03a79e55b69be1",
  "parentHash": "0x65038574fbde97ee5657eaba1f350bab2f445a92bbb1eb726523abaaf7c5e762",
  "number": 58887,
  "timestamp": 1439128409,
  "nonce": "0x0e69e0cfb4987cb1",
  "difficulty": 1707312477994,
  "gasLimit": {
    "_hex": "0x2fefd8"
  },
  "gasUsed": {
    "_hex": "0x5208"
  },
  "miner": "0x55bAf64fc9eAccFFd7Cc643BB61142E1C6ac093e",
  "extraData": "0x",
  "transactions": [
    {
      "hash": "0x5df0b9017cf382cf5d48ac7e90bb9a920401b3247a2b041b26e621531d62330f",
      "blockHash": "0xd098acb6eee71afaeec1e8e75c7536de21d60a6380b93778bf03a79e55b69be1",
      "blockNumber": 58887,
      "transactionIndex": 0,
      "confirmations": null,
      "from": "0xC2fe7d75731f636Dcd09DbDa0671393bA0C82a7d",
      "gasPrice": {
        "_hex": "0xd829211eb"
      },
      "gasLimit": {
        "_hex": "0x15f90"
      },
      "to": "0xa94Ab2f554159a9A8a1F1b91A4a76f5eeA976564",
      "value": {
        "_hex": "0xde0b6b3a7640000"
      },
      "nonce": 0,
      "data": "0x",
      "r": "0xc23db06df34c761705dc33ce6625f547b79d3c85b5a6ce4fa698cc0cc66b5b8f",
      "s": "0x4ec0d81ed3f1959caa521d86347d183ce3852911666460f594cfaef1a1ed146a",
      "v": 27,
      "creates": null,
      "raw": "0xf86d80850d829211eb83015f9094a94ab2f554159a9a8a1f1b91a4a76f5eea976564880de0b6b3a7640000801ba0c23db06df34c761705dc33ce6625f547b79d3c85b5a6ce4fa698cc0cc66b5b8fa04ec0d81ed3f1959caa521d86347d183ce3852911666460f594cfaef1a1ed146a",
      "networkId": 0,
      "chainId": 0
    }
  ]
}