{
  "hash": "0xdc61d2d449ee2e06a3fa9f2d65e25683f26b329c5c6b37f80f6f5cfe396e15dd",
  "parentHash": "0x918f0b6f93765cc0bbb8ac03acb7ac88d2835d3059e6f3d7325fb1e1c9c9cc09",
  "number": 86954,
  "timestamp": 1439585111,
  "nonce": "0xed3625710d4522ee",
  "difficulty": 2984960158432,
  "gasLimit": {
    "_hex": "0x2fefd8"
  },
  "gasUsed": {
    "_hex": "0x14820"
  },
  "miner": "0xe6A7a1d47ff21B6321162AEA7C6CB457D5476Bca",
  "extraData": "0x476574682f76312e302e312d38326566323666362f6c696e75782f676f312e34",
  "transactions": [
    {
      "hash": "0xf3173f23e9c28a4141c399ab887e8817a81ef934addabe615e82b1e12cd846e9",
      "blockHash": "0xdc61d2d449ee2e06a3fa9f2d65e25683f26b329c5c6b37f80f6f5cfe396e15dd",
      "blockNumber": 86954,
      "transactionIndex": 0,
      "confirmations": null,
      "from": "0x3B4AF94C39e87281410A3B5Cf880b4a647459363",
      "gasPrice": {
        "_hex": "0xe0f57dafd"
      },
      "gasLimit": {
        "_hex": "0x5208"
      },
      "to": "0x32Be343B94f860124dC4fEe278FDCBD38C102D88",
      "value": {
        "_hex": "0x1b1ace920e31420000"
      },
      "nonce": 7,
      "data": "0x",
      "r": "0x48e412219646c12b8dcb3fe773064db08f5a4ce24c90b2db8ff9f6f1b9410d45",
      "s": "0x2d0dd248b38f2bda847747cb6a9d125ddf1f1f66c38a26e8897f98c873420e00",
      "v": 28,
      "creates": null,
      "raw": "0xf86d07850e0f57dafd8252089432be343b94f860124dc4fee278fdcbd38c102d88891b1ace920e31420000801ca048e412219646c12b8dcb3fe773064db08f5a4ce24c90b2db8ff9f6f1b9410d45a02d0dd248b38f2bda847747cb6a9d125ddf1f1f66c38a26e8897f98c873420e00",
      "networkId": 0,
      "chainId": 0
    },
    {
      "hash": "0x67ae77ba57ab75941c7cf2eeb4cc58bab5559640a9790fecb4e1fb2300d5f0a5",
      "blockHash": "0xdc61d2d449ee2e06a3fa9f2d65e25683f26b329c5c6b37f80f6f5cfe396e15dd",
      "blockNumber": 86954,
      "transactionIndex": 1,
      "confirmations": null,
      "from": "0x23f2D0fd3B4C98Fb1698564deB4898275E2e831f",
      "gasPrice": {
        "_hex": "0xe0f57dafd"
      },
      "gasLimit": {
        "_hex": "0x5208"
      },
      "to": "0x32Be343B94f860124dC4fEe278FDCBD38C102D88",
      "value": {
        "_hex": "0x455f1026bec62c00"
      },
      "nonce": 7,
      "data": "0x",
      "r": "0x1c9a28fbc894d334ac209548770cb4011ff139ef34ffcf2daffea010afcd3aec",
      "s": "0x2ad7d23dbb60807206c89c053d728805c4dc1966121dfac940c66ed9056201d0",
      "v": 28,
      "creates": null,
      "raw": "0xf86c07850e0f57dafd8252089432be343b94f860124dc4fee278fdcbd38c102d8888455f1026bec62c00801ca01c9a28fbc894d334ac209548770cb4011ff139ef34ffcf2daffea010afcd3aeca02ad7d23dbb60807206c89c053d728805c4dc1966121dfac940c66ed9056201d0",
      "networkId": 0,
      "chainId": 0
    },
    {
      "hash": "0x8dcd26803ef8253430470ff7d5430f5658b6adfd242340c28f0a0fd9abd8d19b",
      "blockHash": "0xdc61d2d449ee2e06a3fa9f2d65e25683f26b329c5c6b37f80f6f5cfe396e15dd",
      "blockNumber": 86954,
      "transactionIndex": 2,
      "confirmations": null,
      "from": "0xD05f85Eb920117eeBBf13dd94FeEA60e9eB34537",
      "gasPrice": {
        "_hex": "0xba43b7400"
      },
      "gasLimit": {
        "_hex": "0x5208"
      },
      "to": "0xC47Aaa860008be6f65B58c6C6E02a84e666EfE31",
      "value": {
        "_hex": "0x23daa1040bc8038f0"
      },
      "nonce": 7,
      "data": "0x",
      "r": "0xc1635cafa1906004802e8a4f5c508cbc46dff8306ac6c74844692433302d685f",
      "s": "0x774a9319c6ae688a4ad3ef4a6ee095bb192d3757411acc96ea0c797d96c8f594",
      "v": 27,
      "creates": null,
      "raw": "0xf86d07850ba43b740082520894c47aaa860008be6f65b58c6c6e02a84e666efe3189023daa1040bc8038f0801ba0c1635cafa1906004802e8a4f5c508cbc46dff8306ac6c74844692433302d685fa0774a9319c6ae688a4ad3ef4a6ee095bb192d3757411acc96ea0c797d96c8f594",
      "networkId": 0,
      "chainId": 0
    },
    {
      "hash": "0xb666968e4092595448f322de0de746973d22accb5c8fe4f0956e0d3ed47faa2c",
      "blockHash": "0xdc61d2d449ee2e06a3fa9f2d65e25683f26b329c5c6b37f80f6f5cfe396e15dd",
      "blockNumber": 86954,
      "transactionIndex": 3,
      "confirmations": null,
      "from": "0x19D182e96Fd7EeAE2cd0c0280cF63a7E01B6184a",
      "gasPrice": {
        "_hex": "0xba43b7400"
      },
      "gasLimit": {
        "_hex": "0x5208"
      },
      "to": "0xC47Aaa860008be6f65B58c6C6E02a84e666EfE31",
      "value": {
        "_hex": "0xa7c493f999756000"
      },
      "nonce": 2,
      "data": "0x",
      "r": "0x107b8a07e519794ed99dc23fc1781da9acf1c1a40e169817b576bde599b882e9",
      "s": "0x6bf9bfe8303abc4586f02dcb199601356dfdde777bf0eae8212fb29f6c010f61",
      "v": 27,
      "creates": null,
      "raw": "0xf86c02850ba43b740082520894c47aaa860008be6f65b58c6c6e02a84e666efe3188a7c493f999756000801ba0107b8a07e519794ed99dc23fc1781da9acf1c1a40e169817b576bde599b882e9a06bf9bfe8303abc4586f02dcb199601356dfdde777bf0eae8212fb29f6c010f61",
      "networkId": 0,
      "chainId": 0
    }
  ]
}