{
  "hash": "0x4f56b837be038515217e914e3c930e779d3fb71198723d767d3cff79ff8eabb2",
  "parentHash": "0xf41c97222c51aad37e2511fdd685845544239aad8c57c1985bd675664b23ab68",
  "number": 85968,
  "timestamp": 1439571582,
  "nonce": "0x2d94e8e72b4a4a14",
  "difficulty": 2785334564046,
  "gasLimit": {
    "_hex": "0x2fefd8"
  },
  "gasUsed": {
    "_hex": "0xf618"
  },
  "miner": "0x47ff6576639c2e94762eA5443978D7681C0E78DC",
  "extraData": "0x476574682f76312e302e312f6c696e75782f676f312e342e32",
  "transactions": [
    {
      "hash": "0x3a31ab031848adaeee5b1a9d4466021a65b074475f3eb3857704ad1f93a51414",
      "blockHash": "0x4f56b837be038515217e914e3c930e779d3fb71198723d767d3cff79ff8eabb2",
      "blockNumber": 85968,
      "transactionIndex": 0,
      "confirmations": null,
      "from": "0x04a2a3ee9C9ea82e1F918ecE209f8A7E6d7521E7",
      "gasPrice": {
        "_hex": "0xd763197e4"
      },
      "gasLimit": {
        "_hex": "0x5208"
      },
      "to": "0x32Be343B94f860124dC4fEe278FDCBD38C102D88",
      "value": {
        "_hex": "0x373ff974a515ce000"
      },
      "nonce": 6,
      "data": "0x",
      "r": "0x5eb37292fff348a716cfc4a53af221e2a195fb2dbe70cf1e381fb30869b7e1cf",
      "s": "0x11c08585ae8959ba4f017acb6f4795cb776e71bcd62aebac35187414f38a5de2",
      "v": 27,
      "creates": null,
      "raw": "0xf86d06850d763197e48252089432be343b94f860124dc4fee278fdcbd38c102d88890373ff974a515ce000801ba05eb37292fff348a716cfc4a53af221e2a195fb2dbe70cf1e381fb30869b7e1cfa011c08585ae8959ba4f017acb6f4795cb776e71bcd62aebac35187414f38a5de2",
      "networkId": 0,
      "chainId": 0
    },
    {
      "hash": "0x73dc2ecf25f90d12c8354f111013e857da492d1721d9be3c1bdc007efef18311",
      "blockHash": "0x4f56b837be038515217e914e3c930e779d3fb71198723d767d3cff79ff8eabb2",
      "blockNumber": 85968,
      "transactionIndex": 1,
      "confirmations": null,
      "from": "0x96811Ad897894eC178872117C8BF2f03971A393B",
      "gasPrice": {
        "_hex": "0xd763197e4"
      },
      "gasLimit": {
        "_hex": "0x5208"
      },
      "to": "0x32Be343B94f860124dC4fEe278FDCBD38C102D88",
      "value": {
        "_hex": "0xbe1bd0dd30a58800"
      },
      "nonce": 32,
      "data": "0x",
      "r": "0xaab93cda7e47870aeb09f92787b1b919e5343fe3c393624ed37d6046e55be347",
      "s": "0x5410eed9077bf3581df92ccd961ae6964175a7b5a4e991658405bb866469ffa6",
      "v": 28,
      "creates": null,
      "raw": "0xf86c20850d763197e48252089432be343b94f860124dc4fee278fdcbd38c102d8888be1bd0dd30a58800801ca0aab93cda7e47870aeb09f92787b1b919e5343fe3c393624ed37d6046e55be347a05410eed9077bf3581df92ccd961ae6964175a7b5a4e991658405bb866469ffa6",
      "networkId": 0,
      "chainId": 0
    },
    {
      "hash": "0xac4be83faa2503ca503aa8d0b17c0e9443bb23f38dbe78eed3741e7805bede37",
      "blockHash": "0x4f56b837be038515217e914e3c930e779d3fb71198723d767d3cff79ff8eabb2",
      "blockNumber": 85968,
      "transactionIndex": 2,
      "confirmations": null,
      "from": "0x0D4EcC7d750180EBf4A9Df728B6669B5Bceb5E40",
      "gasPrice": {
        "_hex": "0xd763197e4"
      },
      "gasLimit": {
        "_hex": "0x5208"
      },
      "to": "0x32Be343B94f860124dC4fEe278FDCBD38C102D88",
      "value": {
        "_hex": "0x4563aa3f434a8000"
      },
      "nonce": 33,
      "data": "0x",
      "r": "0x7912a633f8063f46ea655e6493005b52ae21d506d220c72fe40e992486692b84",
      "s": "0x05885a06ba7441694952fac2e124e7e60087679d1a4d54a4b658e4b7ab3d7fbb",
      "v": 28,
      "creates": null,
      "raw": "0xf86c21850d763197e48252089432be343b94f860124dc4fee278fdcbd38c102d88884563aa3f434a8000801ca07912a633f8063f46ea655e6493005b52ae21d506d220c72fe40e992486692b84a005885a06ba7441694952fac2e124e7e60087679d1a4d54a4b658e4b7ab3d7fbb",
      "networkId": 0,
      "chainId": 0
    }
  ]
}