{
  "hash": "0x77c3fee4c64d0de9afc0239ee46d8418bc8f79b62bec100f07f0c201c318ae7d",
  "parentHash": "0x10ae9866b9cdc00f2958503175e1711799ff3a049b67b075918939ee70524e7a",
  "number": 70839,
  "timestamp": 1439326246,
  "nonce": "0x53ea623503c93e75",
  "difficulty": 2148867641582,
  "gasLimit": {
    "_hex": "0x2fefd8"
  },
  "gasUsed": {
    "_hex": "0xf87c"
  },
  "miner": "0xf927a40C8B7F6E07c5af7FA2155B4864a4112B13",
  "extraData": "0x",
  "transactions": [
    {
      "hash": "0x38419a8f635b7740f0a615815c80cf52baac833da2ff1cd608a1e05a2cf08576",
      "blockHash": "0x77c3fee4c64d0de9afc0239ee46d8418bc8f79b62bec100f07f0c201c318ae7d",
      "blockNumber": 70839,
      "transactionIndex": 0,
      "confirmations": null,
      "from": "0x141A5E39ee2F680a600Fbf6fA297de90F3225Cdd",
      "gasPrice": {
        "_hex": "0x110c8f7d8de"
      },
      "gasLimit": {
        "_hex": "0xc350"
      },
      "to": "0x2910543Af39abA0Cd09dBb2D50200b3E800A63D2",
      "value": {
        "_hex": "0x202fefbf2d7c2f00000"
      },
      "nonce": 0,
      "data": "0x454e3346515a544730",
      "r": "0xe85017a788e1cdf39d129efe3223bec4b2e8707002f31c6fad2941869342286b",
      "s": "0x1f1991e22af4eb24c41b913c01601e4ecd5684e7b80ce30af721ce0176405436",
      "v": 27,
      "creates": null,
      "raw": "0xf87880860110c8f7d8de82c350942910543af39aba0cd09dbb2d50200b3e800a63d28a0202fefbf2d7c2f0000089454e3346515a5447301ba0e85017a788e1cdf39d129efe3223bec4b2e8707002f31c6fad2941869342286ba01f1991e22af4eb24c41b913c01601e4ecd5684e7b80ce30af721ce0176405436",
      "networkId": 0,
      "chainId": 0
    },
    {
      "hash": "0xf5e53be90d76875b90a610ec19b94882370234f8e6c20f38b1f6bbce57183178",
      "blockHash": "0x77c3fee4c64d0de9afc0239ee46d8418bc8f79b62bec100f07f0c201c318ae7d",
      "blockNumber": 70839,
      "transactionIndex": 1,
      "confirmations": null,
      "from": "0xcaD6D85426181593cf3E16f594824847600c6122",
      "gasPrice": {
        "_hex": "0xe07cc67c8"
      },
      "gasLimit": {
        "_hex": "0x5208"
      },
      "to": "0xb6c00721Fbd69a851EE6456d71C429fBd8f0d022",
      "value": {
        "_hex": "0xb6c53d38ebe50000"
      },
      "nonce": 4,
      "data": "0x",
      "r": "0x769552b1061db20a8376b8ec3d065a139dc62c4245252f6c4407d3d2a9bfdaba",
      "s": "0x749e5c0d225276728da9bc98090343f463da0ef18d2f7a76d7a34784d9e1d5ff",
      "v": 27,
      "creates": null,
      "raw": "0xf86c04850e07cc67c882520894b6c00721fbd69a851ee6456d71c429fbd8f0d02288b6c53d38ebe50000801ba0769552b1061db20a8376b8ec3d065a139dc62c4245252f6c4407d3d2a9bfdabaa0749e5c0d225276728da9bc98090343f463da0ef18d2f7a76d7a34784d9e1d5ff",
      "networkId": 0,
      "chainId": 0
    },
    {
      "hash": "0xab10891e15d47d648b6bc27703bd169516925e33bc28f3c70692930bce207506",
      "blockHash": "0x77c3fee4c64d0de9afc0239ee46d8418bc8f79b62bec100f07f0c201c318ae7d",
      "blockNumber": 70839,
      "transactionIndex": 2,
      "confirmations": null,
      "from": "0x32Be343B94f860124dC4fEe278FDCBD38C102D88",
      "gasPrice": {
        "_hex": "0xd8d1e277c"
      },
      "gasLimit": {
        "_hex": "0x5208"
      },
      "to": "0xE60d047A7f89348A473EB1b32c27A13cB459d776",
      "value": {
        "_hex": "0x5c2819ba1124500000"
      },
      "nonce": 257,
      "data": "0x",
      "r": "0xcaabd8f99274087d177009213841fb9b9e9e0972c3f62538e94d0d4e508136f7",
      "s": "0x062a5beaa28c066c5725a869f0201c59f603020154063033d06934f4fd328e18",
      "v": 27,
      "creates": null,
      "raw": "0xf86f820101850d8d1e277c82520894e60d047a7f89348a473eb1b32c27a13cb459d776895c2819ba1124500000801ba0caabd8f99274087d177009213841fb9b9e9e0972c3f62538e94d0d4e508136f7a0062a5beaa28c066c5725a869f0201c59f603020154063033d06934f4fd328e18",
      "networkId": 0,
      "chainId": 0
    }
  ]
}