{
  "hash": "0x4bdccbfa3aabd91856d0b53529770c038552e24cf56646499c7a2a3964404269",
  "parentHash": "0x1752c39b9ef5b9adbe66f05cd90fbad14c42a395097dd1f7d711d82ebd631215",
  "number": 80096,
  "timestamp": 1439480109,
  "nonce": "0xa3394ef4eef33602",
  "difficulty": 2344838237741,
  "gasLimit": {
    "_hex": "0x2fefd8"
  },
  "gasUsed": {
    "_hex": "0x546c"
  },
  "miner": "0xF2d2AfF1320476cb8C6b607199D23175cc595693",
  "extraData": "0x476574682f76312e302e312f77696e646f77732f676f312e342e32",
  "transactions": [
    {
      "hash": "0xae797d74667ce768c69a9b8729edc94178578a6c600191c4d6517b290f46913c",
      "blockHash": "0x4bdccbfa3aabd91856d0b53529770c038552e24cf56646499c7a2a3964404269",
      "blockNumber": 80096,
      "transactionIndex": 0,
      "confirmations": null,
      "from": "0x9BF71f7fB537Ac54f4E514947Fa7Ff6728f16d2F",
      "gasPrice": {
        "_hex": "0x10dc90d85e7"
      },
      "gasLimit": {
        "_hex": "0x55f0"
      },
      "to": "0x2910543Af39abA0Cd09dBb2D50200b3E800A63D2",
      "value": {
        "_hex": "0x8ac7230489e80000"
      },
      "nonce": 1,
      "data": "0x454e4d394b38374b30",
      "r": "0xdbbf03ceb0b6556c3f7f7ca1fc78b1045bcda3e16bbd6fb7d214e2c6bc2ba755",
      "s": "0x2b7142ffb0ced4f8430864df8f132741f618a35afe14e267792044d2094019a0",
      "v": 27,
      "creates": null,
      "raw": "0xf8760186010dc90d85e78255f0942910543af39aba0cd09dbb2d50200b3e800a63d2888ac7230489e8000089454e4d394b38374b301ba0dbbf03ceb0b6556c3f7f7ca1fc78b1045bcda3e16bbd6fb7d214e2c6bc2ba755a02b7142ffb0ced4f8430864df8f132741f618a35afe14e267792044d2094019a0",
      "networkId": 0,
      "chainId": 0
    }
  ]
}