{
  "hash": "0xf0763e207a33a98482e430281b824458bb7f7528219ad29044ef4ec1e75fdd86",
  "parentHash": "0xbce1b0140d0c522f2333ac95726a0c7d88cb11e2ae0096e898c998ae0dc1e045",
  "number": 75240,
  "timestamp": 1439399972,
  "nonce": "0xa9fcb96701104d65",
  "difficulty": 2197599449895,
  "gasLimit": {
    "_hex": "0x2fefd8"
  },
  "gasUsed": {
    "_hex": "0x5208"
  },
  "miner": "0x9D0B366c06Bdb8D00C9Ab617db64B505f9e05d79",
  "extraData": "0x476574682f76312e302e312d38326566323666362f6c696e75782f676f312e34",
  "transactions": [
    {
      "hash": "0x26d682e8b2c230e223892cabe50395c2d7576ed18fd704fe93c4f3e22c9375c0",
      "blockHash": "0xf0763e207a33a98482e430281b824458bb7f7528219ad29044ef4ec1e75fdd86",
      "blockNumber": 75240,
      "transactionIndex": 0,
      "confirmations": null,
      "from": "0x00d4C26dee05E008302b543291B452768145beeD",
      "gasPrice": {
        "_hex": "0xd66ef0187"
      },
      "gasLimit": {
        "_hex": "0x5208"
      },
      "to": "0x32Be343B94f860124dC4fEe278FDCBD38C102D88",
      "value": {
        "_hex": "0x56bc312ca08814000"
      },
      "nonce": 1,
      "data": "0x",
      "r": "0x37cabf6d2707fced245551e54fe5fbd36484ee0b5e1056d3258a29f5f04d2f19",
      "s": "0x305b1a69aa42b8cf806a1f625dfcbcc4444b57dd75e50a7caee680aaccb9c4c7",
      "v": 28,
      "creates": null,
      "raw": "0xf86d01850d66ef01878252089432be343b94f860124dc4fee278fdcbd38c102d8889056bc312ca08814000801ca037cabf6d2707fced245551e54fe5fbd36484ee0b5e1056d3258a29f5f04d2f19a0305b1a69aa42b8cf806a1f625dfcbcc4444b57dd75e50a7caee680aaccb9c4c7",
      "networkId": 0,
      "chainId": 0
    }
  ]
}