{
  "hash": "0x9cf1b339351ff291a4ae2dc3d54faf62d581337ea91114c8bb5657a5d57072a5",
  "parentHash": "0x9405f3eeb906426825151ff4f1f441429b0267ea6ef0a9cf085148694dd06a74",
  "number": 76175,
  "timestamp": 1439416042,
  "nonce": "0x0ba4b76a6d2232d5",
  "difficulty": 2239599633893,
  "gasLimit": {
    "_hex": "0x2fefd8"
  },
  "gasUsed": {
    "_hex": "0xa410"
  },
  "miner": "0x31995C46B15C84523cDEE26f49A681b8237e43F5",
  "extraData": "0x476574682f76312e302e312f77696e646f77732f676f312e342e32",
  "transactions": [
    {
      "hash": "0x26e94eefb52314aa74ec465fdc4c3572fb84040684319b6d0203998936323423",
      "blockHash": "0x9cf1b339351ff291a4ae2dc3d54faf62d581337ea91114c8bb5657a5d57072a5",
      "blockNumber": 76175,
      "transactionIndex": 0,
      "confirmations": null,
      "from": "0x42Dd879f8Eb7e9B43036A5b4C97B02c6176D6B99",
      "gasPrice": {
        "_hex": "0x10dc90d85e7"
      },
      "gasLimit": {
        "_hex": "0x15f90"
      },
      "to": "0x53c451B5977b29118899c6B6613Cf4dEC25E6Cb0",
      "value": {
        "_hex": "0xde0b6b3a7640000"
      },
      "nonce": 2,
      "data": "0x",
      "r": "0xb15fd1c0ae33c4155ba857e36d4c4ae4039a0cab646beb04b2dfbec496c8dbde",
      "s": "0x1c160c75080d859767e8c1e92ca5483d3cccd646313b62d12e296faccc1de4ee",
      "v": 28,
      "creates": null,
      "raw": "0xf86e0286010dc90d85e783015f909453c451b5977b29118899c6b6613cf4dec25e6cb0880de0b6b3a7640000801ca0b15fd1c0ae33c4155ba857e36d4c4ae4039a0cab646beb04b2dfbec496c8dbdea01c160c75080d859767e8c1e92ca5483d3cccd646313b62d12e296faccc1de4ee",
      "networkId": 0,
      "chainId": 0
    },
    {
      "hash": "0x6be3d96ca71213e242759ec11100c0c7d27b895f93477951923b159bde8a2024",
      "blockHash": "0x9cf1b339351ff291a4ae2dc3d54faf62d581337ea91114c8bb5657a5d57072a5",
      "blockNumber": 76175,
      "transactionIndex": 1,
      "confirmations": null,
      "from": "0x42Dd879f8Eb7e9B43036A5b4C97B02c6176D6B99",
      "gasPrice": {
        "_hex": "0x10dc90d85e7"
      },
      "gasLimit": {
        "_hex": "0x15f90"
      },
      "to": "0x5Ef8C0F62039a8E2526bA6Ac21784B70dc758Eca",
      "value": {
        "_hex": "0x6c5db2a4d815dc0000"
      },
      "nonce": 3,
      "data": "0x",
      "r": "0x93da2b83204e7bf923da1fdb0de4b31a442f0b5833e13101e095bc6d52a374f4",
      "s": "0x5ebf5419d91b1be5ffb333a06dc24e2ba196b9274c503bb664c8a6b1b1f2eb21",
      "v": 28,
      "creates": null,
      "raw": "0xf86f0386010dc90d85e783015f90945ef8c0f62039a8e2526ba6ac21784b70dc758eca896c5db2a4d815dc0000801ca093da2b83204e7bf923da1fdb0de4b31a442f0b5833e13101e095bc6d52a374f4a05ebf5419d91b1be5ffb333a06dc24e2ba196b9274c503bb664c8a6b1b1f2eb21",
      "networkId": 0,
      "chainId": 0
    }
  ]
}