{
  "hash": "0xa601f8e031a54d1ca884cc30476e75d9f897a7075a280011e2f7f137966fba3d",
  "parentHash": "0x17d34c95bda0b8150914eb06f53a579ed21800044da8fe97759189c316685b61",
  "number": 65203,
  "timestamp": 1439232863,
  "nonce": "0x7ccaaa20949a9fa4",
  "difficulty": 1952153639288,
  "gasLimit": {
    "_hex": "0x2fefd8"
  },
  "gasUsed": {
    "_hex": "0xa410"
  },
  "miner": "0xbb7B8287f3F0a933474a79eAe42CBCa977791171",
  "extraData": "0x476574682f4c5649562f76312e302e312f6c696e75782f676f312e342e32",
  "transactions": [
    {
      "hash": "0xcbcc358085c953dfb34fdbbf8496c2bc3953076267fc3a3c661c4786df6e8c6d",
      "blockHash": "0xa601f8e031a54d1ca884cc30476e75d9f897a7075a280011e2f7f137966fba3d",
      "blockNumber": 65203,
      "transactionIndex": 0,
      "confirmations": null,
      "from": "0xF5D5F5C1F825e3D1088747219A40dd4886E519B5",
      "gasPrice": {
        "_hex": "0xba43b7400"
      },
      "gasLimit": {
        "_hex": "0x5208"
      },
      "to": "0xb90c8F5e7B1Ef1c42eED25A5Aa6EC422Dda462fd",
      "value": {
        "_hex": "0x64523e40d1b2000"
      },
      "nonce": 1,
      "data": "0x",
      "r": "0x2489b577693b885eea79547ca97c52389ee9e82c795679858bc9a6e10977c331",
      "s": "0x76cc88e91f22364927bf83570f00bb8f6cf1ec7692c644e7a8b8ded7225896b5",
      "v": 27,
      "creates": null,
      "raw": "0xf86c01850ba43b740082520894b90c8f5e7b1ef1c42eed25a5aa6ec422dda462fd88064523e40d1b2000801ba02489b577693b885eea79547ca97c52389ee9e82c795679858bc9a6e10977c331a076cc88e91f22364927bf83570f00bb8f6cf1ec7692c644e7a8b8ded7225896b5",
      "networkId": 0,
      "chainId": 0
    },
    {
      "hash": "0xdc773cace2227fe695bceec659681fe4a426e6803e84aaf2a88e368e53303e57",
      "blockHash": "0xa601f8e031a54d1ca884cc30476e75d9f897a7075a280011e2f7f137966fba3d",
      "blockNumber": 65203,
      "transactionIndex": 1,
      "confirmations": null,
      "from": "0x06DFA3E59d0D742BFD801130619a1Bc05ad343A5",
      "gasPrice": {
        "_hex": "0xba43b7400"
      },
      "gasLimit": {
        "_hex": "0x5208"
      },
      "to": "0x5Fbb4aeB2F0319d71fE173c2faA23468b33542ed",
      "value": {
        "_hex": "0x6a1b097735ce000"
      },
      "nonce": 1,
      "data": "0x",
      "r": "0x4a3308314ed068e653ef1406762b1dd549debb9d7c286076323bb2ca23bcbf0e",
      "s": "0x625bd7aa896b2bcb2a13ddee1d9ee8adb6895b9d944a75ca85e779053255685c",
      "v": 28,
      "creates": null,
      "raw": "0xf86c01850ba43b7400825208945fbb4aeb2f0319d71fe173c2faa23468b33542ed8806a1b097735ce000801ca04a3308314ed068e653ef1406762b1dd549debb9d7c286076323bb2ca23bcbf0ea0625bd7aa896b2bcb2a13ddee1d9ee8adb6895b9d944a75ca85e779053255685c",
      "networkId": 0,
      "chainId": 0
    }
  ]
}