{
  "hash": "0x2df1c014ee828278ac2b295f7d82f4491ae7f63511568427ab25d8ffcbf7bad1",
  "parentHash": "0xfe7e87308c4aaebd79ce3420de952e7fd0083fba0fe14c35bb6abfd4e36f7c25",
  "number": 74967,
  "timestamp": 1439395346,
  "nonce": "0xc402b575dd924193",
  "difficulty": 2192312106222,
  "gasLimit": {
    "_hex": "0x2fefd8"
  },
  "gasUsed": {
    "_hex": "0x5208"
  },
  "miner": "0xf8E0CA3Ed80bd541b94BEdCf259e8CF2141A9523",
  "extraData": "0x476574682f76312e302e312f77696e646f77732f676f312e342e32",
  "transactions": [
    {
      "hash": "0x6ce6882fe1dafd5bf572a242f300cf4a3fb8a8716e685d080eba9cc58d400192",
      "blockHash": "0x2df1c014ee828278ac2b295f7d82f4491ae7f63511568427ab25d8ffcbf7bad1",
      "blockNumber": 74967,
      "transactionIndex": 0,
      "confirmations": null,
      "from": "0x70C6b45fe0A5116E97B112B806A76E2F51E24413",
      "gasPrice": {
        "_hex": "0xd81d33fd1"
      },
      "gasLimit": {
        "_hex": "0x15f90"
      },
      "to": "0xD9666150A9dA92d9108198a4072970805a8B3428",
      "value": {
        "_hex": "0xde0b6b3a7640000"
      },
      "nonce": 0,
      "data": "0x",
      "r": "0xb02e770ac277263dfb67924cfd514fada5bdf5e68c97f9c2b66ffb858286efab",
      "s": "0x50bd98a56b33c8dfdf08a1ed6d4e9431ed1a7ba280950824693c3ac31533ccb9",
      "v": 28,
      "creates": null,
      "raw": "0xf86d80850d81d33fd183015f9094d9666150a9da92d9108198a4072970805a8b3428880de0b6b3a7640000801ca0b02e770ac277263dfb67924cfd514fada5bdf5e68c97f9c2b66ffb858286efaba050bd98a56b33c8dfdf08a1ed6d4e9431ed1a7ba280950824693c3ac31533ccb9",
      "networkId": 0,
      "chainId": 0
    }
  ]
}