{
  "hash": "0x85c0f632c5459e2a4a99b5c72ecf7cf00e626bca69f475d9ff6a34189afb26a0",
  "parentHash": "0x01c967845f4003677b4b7b290a18d0f967cbfc3d946df49f6fe7c425f1aafcb8",
  "number": 76402,
  "timestamp": 1439419992,
  "nonce": "0x8ea8ba4877969d05",
  "difficulty": 2221026047353,
  "gasLimit": {
    "_hex": "0x2fefd8"
  },
  "gasUsed": {
    "_hex": "0x14586"
  },
  "miner": "0xEF247E639d49461D25F57e9362CadE3120910Ce0",
  "extraData": "0x476574682f76312e302e312f6c696e75782f676f312e342e32",
  "transactions": [
    {
      "hash": "0xaef621a42f608ede902febfcd0ea795f5fcdac50aea20e0ebccb7806043ac912",
      "blockHash": "0x85c0f632c5459e2a4a99b5c72ecf7cf00e626bca69f475d9ff6a34189afb26a0",
      "blockNumber": 76402,
      "transactionIndex": 0,
      "confirmations": null,
      "from": "0x0e320219838E859b2F9f18B72e3d4073cA50B37D",
      "gasPrice": {
        "_hex": "0xd2906d572"
      },
      "gasLimit": {
        "_hex": "0x2dc6c0"
      },
      "to": "0x35E57F2b08596f1946ECD9D31975eC3c2D7e1C1D",
      "value": {
        "_hex": "0x0"
      },
      "nonce": 13,
      "data": "0x0bf9451200000000000000000000000000000000000000000000000000086fe2b91944ba",
      "r": "0x613535b81c4aad4ec5db7208b8712dd8a49707a97029f09c7c83f486daecd99c",
      "s": "0x7be7cf1faf4223c56630d8652cdb36af7bb907d266248c18ef7ac96c09dfbeb2",
      "v": 27,
      "creates": null,
      "raw": "0xf8890d850d2906d572832dc6c09435e57f2b08596f1946ecd9d31975ec3c2d7e1c1d80a40bf9451200000000000000000000000000000000000000000000000000086fe2b91944ba1ba0613535b81c4aad4ec5db7208b8712dd8a49707a97029f09c7c83f486daecd99ca07be7cf1faf4223c56630d8652cdb36af7bb907d266248c18ef7ac96c09dfbeb2",
      "networkId": 0,
      "chainId": 0
    },
    {
      "hash": "0x38abc8c3b3ef2796a8124086fd952a7da010df117edfdfd1db646231edf9420d",
      "blockHash": "0x85c0f632c5459e2a4a99b5c72ecf7cf00e626bca69f475d9ff6a34189afb26a0",
      "blockNumber": 76402,
      "transactionIndex": 1,
      "confirmations": null,
      "from": "0x8Be84A3adfBc51c59023B2413766E229108c35DE",
      "gasPrice": {
        "_hex": "0xd1f8a5208"
      },
      "gasLimit": {
        "_hex": "0x493e0"
      },
      "to": "0xD79B4C6791784184e2755B2fC1659eaaB0f80456",
      "value": {
        "_hex": "0x0"
      },
      "nonce": 2,
      "data": "0xbd66528a73302e3738373930313030393732303133393800000000000000000000000000",
      "r": "0x30f0296ca69613bd4cd1228570f3ca07980148451e080fcdf6780bc6ca68e3ec",
      "s": "0x28b6f7c1a6db65102eb511ddd49eac21aa06c9fc73b34f516812829bfddb3e38",
      "v": 27,
      "creates": null,
      "raw": "0xf88902850d1f8a5208830493e094d79b4c6791784184e2755b2fc1659eaab0f8045680a4bd66528a73302e37383739303130303937323031333938000000000000000000000000001ba030f0296ca69613bd4cd1228570f3ca07980148451e080fcdf6780bc6ca68e3eca028b6f7c1a6db65102eb511ddd49eac21aa06c9fc73b34f516812829bfddb3e38",
      "networkId": 0,
      "chainId": 0
    }
  ]
}