{
  "hash": "0xb1e920d74551ee6286356ecfac16ed4c27ed2dbb8d8ebddd6b80fcaa54e15cfa",
  "parentHash": "0x7e459c8b8e09849013740712f807fabda81e02f71935f4e57d39bb20f1e893e9",
  "number": 81914,
  "timestamp": 1439510026,
  "nonce": "0xa87e11ab3289a614",
  "difficulty": 2414027640142,
  "gasLimit": {
    "_hex": "0x2fefd8"
  },
  "gasUsed": {
    "_hex": "0x5208"
  },
  "miner": "0x47ff6576639c2e94762eA5443978D7681C0E78DC",
  "extraData": "0x476574682f76312e302e312f6c696e75782f676f312e342e32",
  "transactions": [
    {
      "hash": "0x5d39cb9e4fee756eb07bb7a401ebbebd5b679a03a6bc655eb522ad823aa4d0e5",
      "blockHash": "0xb1e920d74551ee6286356ecfac16ed4c27ed2dbb8d8ebddd6b80fcaa54e15cfa",
      "blockNumber": 81914,
      "transactionIndex": 0,
      "confirmations": null,
      "from": "0x663555F143e6a4674c0FdF2e73f12fdaf5D51112",
      "gasPrice": {
        "_hex": "0xba43b7400"
      },
      "gasLimit": {
        "_hex": "0x5266"
      },
      "to": "0xc07082b0caEF1afaAA062CDae1c592c110B82aa5",
      "value": {
        "_hex": "0x14d1120d7b160000"
      },
      "nonce": 1,
      "data": "0x",
      "r": "0x1beb283aca4215a2a102692f7a729e13304075661600192f7735224821b2ced1",
      "s": "0xa503b4535855bb6360253272cd07649379b0bfdf849fabdeb4139fddb79309d7",
      "v": 27,
      "creates": null,
      "raw": "0xf86c01850ba43b740082526694c07082b0caef1afaaa062cdae1c592c110b82aa58814d1120d7b160000801ba01beb283aca4215a2a102692f7a729e13304075661600192f7735224821b2ced1a0a503b4535855bb6360253272cd07649379b0bfdf849fabdeb4139fddb79309d7",
      "networkId": 0,
      "chainId": 0
    }
  ]
}