{
  "hash": "0xca11b3f4eb92a3aa6cfb89265aee6909a17e3139eee772d4eca9c65c42a7b0a8",
  "parentHash": "0xa08882d0cb8433970db588c0f23d9ee3395fb016318c12b5e854dd01c7b6ffc1",
  "number": 118823,
  "timestamp": 1440132052,
  "nonce": "0x7748e47df8a1d9a3",
  "difficulty": 4392612127736,
  "gasLimit": {
    "_hex": "0x2fefd8"
  },
  "gasUsed": {
    "_hex": "0x5208"
  },
  "miner": "0xbb7B8287f3F0a933474a79eAe42CBCa977791171",
  "extraData": "0xd783010003844765746887676f312e342e32856c696e7578",
  "transactions": [
    {
      "hash": "0x4378b66727e3e9d69351f6dcb8a91fff7a2dcf4a12b32a23215a8fe9ff71fd3e",
      "blockHash": "0xca11b3f4eb92a3aa6cfb89265aee6909a17e3139eee772d4eca9c65c42a7b0a8",
      "blockNumber": 118823,
      "transactionIndex": 0,
      "confirmations": null,
      "from": "0x1308A2e95c0160B90803ddCA9B9a5bb55E416d79",
      "gasPrice": {
        "_hex": "0xd27c8ef0c"
      },
      "gasLimit": {
        "_hex": "0x15f90"
      },
      "to": "0xc53A7310B6BCc3a2FF93E7cfA2AF1d5AD4f5ac76",
      "value": {
        "_hex": "0x19d8ede1ce2a40000"
      },
      "nonce": 180,
      "data": "0x",
      "r": "0x3f09df7d666a22aeeb2b50df1eb525877b388439b2e276399b0373f3d66b8e19",
      "s": "0x471731a3df13f6e52e1d260f21e624a42af0cbefd40a44577654ef22681de196",
      "v": 27,
      "creates": null,
      "raw": "0xf86f81b4850d27c8ef0c83015f9094c53a7310b6bcc3a2ff93e7cfa2af1d5ad4f5ac7689019d8ede1ce2a40000801ba03f09df7d666a22aeeb2b50df1eb525877b388439b2e276399b0373f3d66b8e19a0471731a3df13f6e52e1d260f21e624a42af0cbefd40a44577654ef22681de196",
      "networkId": 0,
      "chainId": 0
    }
  ]
}