{
  "hash": "0xbce91457424ef6d21e96f4291a42105a046a8162805646ae7bcbf12645fcd9b5",
  "parentHash": "0x4581ac15ff9f452360ff455eba6dbfb2521e6ebb34eafb2b9e3e8357392d9a90",
  "number": 79360,
  "timestamp": 1439468159,
  "nonce": "0x192f840fa50f09f8",
  "difficulty": 2356522389916,
  "gasLimit": {
    "_hex": "0x2fefd8"
  },
  "gasUsed": {
    "_hex": "0x5208"
  },
  "miner": "0x7D45E10A0d63eCCA0694a7cbfF030f4dD87DA0dC",
  "extraData": "0x476574682f76312e302e302f77696e646f77732f676f312e342e32",
  "transactions": [
    {
      "hash": "0xe828484e10d130ba8212bc707fbeedaff86eb3522e091873ef3a80e169852e13",
      "blockHash": "0xbce91457424ef6d21e96f4291a42105a046a8162805646ae7bcbf12645fcd9b5",
      "blockNumber": 79360,
      "transactionIndex": 0,
      "confirmations": null,
      "from": "0x2910543Af39abA0Cd09dBb2D50200b3E800A63D2",
      "gasPrice": {
        "_hex": "0xd2ffadd81"
      },
      "gasLimit": {
        "_hex": "0x5208"
      },
      "to": "0xFD7c9117BbEB649d9b37B3D3C9917f7c12f526B3",
      "value": {
        "_hex": "0x104344570ef14f8000"
      },
      "nonce": 353,
      "data": "0x",
      "r": "0x3d6347d0401b1cdff9752ba9e2de8b604e86554e6b4b0611b08cef4aa282890c",
      "s": "0x573b9dcf1f936154547faf2c1ddd2b0fcc0100157b26d58ef245cca739936b7e",
      "v": 28,
      "creates": null,
      "raw": "0xf86f820161850d2ffadd8182520894fd7c9117bbeb649d9b37b3d3c9917f7c12f526b389104344570ef14f8000801ca03d6347d0401b1cdff9752ba9e2de8b604e86554e6b4b0611b08cef4aa282890ca0573b9dcf1f936154547faf2c1ddd2b0fcc0100157b26d58ef245cca739936b7e",
      "networkId": 0,
      "chainId": 0
    }
  ]
}