{
  "hash": "0x841607ed12bf42bfb76725b72a6ca9f9fd61de27dd7ed3aff4520b6f7572e6b7",
  "parentHash": "0x3b6563e05f9124b1e99649d60cfe606b59f4c8a1c1d5ace845869621614db7d7",
  "number": 90502,
  "timestamp": 1439640995,
  "nonce": "0x52326da54233f2d4",
  "difficulty": 3348116098537,
  "gasLimit": {
    "_hex": "0x2fefd8"
  },
  "gasUsed": {
    "_hex": "0x14820"
  },
  "miner": "0xe6A7a1d47ff21B6321162AEA7C6CB457D5476Bca",
  "extraData": "0x476574682f76312e302e312d38326566323666362f6c696e75782f676f312e34",
  "transactions": [
    {
      "hash": "0xd46b50dfc1cc51b2d7cc2255d1afc2114d8800b50f1b5a5d9af20e7496f029f7",
      "blockHash": "0x841607ed12bf42bfb76725b72a6ca9f9fd61de27dd7ed3aff4520b6f7572e6b7",
      "blockNumber": 90502,
      "transactionIndex": 0,
      "confirmations": null,
      "from": "0xd1ce10d2AdBa8b18135eF72Aa5296c9503a3501c",
      "gasPrice": {
        "_hex": "0xe2a2d647c"
      },
      "gasLimit": {
        "_hex": "0x15f90"
      },
      "to": "0xf2cC0eEAAAeD313542CB262B0B8c3972425143f0",
      "value": {
        "_hex": "0x45400a8fd5330000"
      },
      "nonce": 2,
      "data": "0x",
      "r": "0xe9f1e5a8e641e95eb9b37f8a7aeaff753b792683da530f2530fb4e439ea4084f",
      "s": "0x7524f258bac62a4dfcf06da951b9bdde1be2aeaa0670da49683d5d2a5c79cdca",
      "v": 27,
      "creates": null,
      "raw": "0xf86d02850e2a2d647c83015f9094f2cc0eeaaaed313542cb262b0b8c3972425143f08845400a8fd5330000801ba0e9f1e5a8e641e95eb9b37f8a7aeaff753b792683da530f2530fb4e439ea4084fa07524f258bac62a4dfcf06da951b9bdde1be2aeaa0670da49683d5d2a5c79cdca",
      "networkId": 0,
      "chainId": 0
    },
    {
      "hash": "0xa9c2f70ff699e7907748b3baf3a68b8b358c2603a54aadbc482d5561e192e1e2",
      "blockHash": "0x841607ed12bf42bfb76725b72a6ca9f9fd61de27dd7ed3aff4520b6f7572e6b7",
      "blockNumber": 90502,
      "transactionIndex": 1,
      "confirmations": null,
      "from": "0xB9A0a0410aA5e26bFa66Cc3ACAF0A6FC61Df5588",
      "gasPrice": {
        "_hex": "0xdd3097aa4"
      },
      "gasLimit": {
        "_hex": "0x5208"
      },
      "to": "0x32Be343B94f860124dC4fEe278FDCBD38C102D88",
      "value": {
        "_hex": "0x15c2921ade50dc000"
      },
      "nonce": 4,
      "data": "0x",
      "r": "0x6b3e6016e03c7187429162eab604058d81be81f5b3488243819a3edf3c745785",
      "s": "0x30933d0152296e75073bf600aeb8dc14edfca009d875a5b7ef979872038495b5",
      "v": 27,
      "creates": null,
      "raw": "0xf86d04850dd3097aa48252089432be343b94f860124dc4fee278fdcbd38c102d8889015c2921ade50dc000801ba06b3e6016e03c7187429162eab604058d81be81f5b3488243819a3edf3c745785a030933d0152296e75073bf600aeb8dc14edfca009d875a5b7ef979872038495b5",
      "networkId": 0,
      "chainId": 0
    },
    {
      "hash": "0x40ab0df02260c796707eea5eda617057c65aae3511972d40079b26fb064dde0d",
      "blockHash": "0x841607ed12bf42bfb76725b72a6ca9f9fd61de27dd7ed3aff4520b6f7572e6b7",
      "blockNumber": 90502,
      "transactionIndex": 2,
      "confirmations": null,
      "from": "0x32Be343B94f860124dC4fEe278FDCBD38C102D88",
      "gasPrice": {
        "_hex": "0xdd3097aa4"
      },
      "gasLimit": {
        "_hex": "0x5208"
      },
      "to": "0xB3c0AAB398Ed7471765485036cd26d88aEA91712",
      "value": {
        "_hex": "0x185f223728c0000"
      },
      "nonce": 857,
      "data": "0x",
      "r": "0xea27ddcc5b997403fa8644731faced9933d13146201f258bbc07c98a793923f1",
      "s": "0x2e36c24284aa6b5109443e929af2993be4e5dd53a726d33b59f4af275fc846a5",
      "v": 27,
      "creates": null,
      "raw": "0xf86e820359850dd3097aa482520894b3c0aab398ed7471765485036cd26d88aea91712880185f223728c0000801ba0ea27ddcc5b997403fa8644731faced9933d13146201f258bbc07c98a793923f1a02e36c24284aa6b5109443e929af2993be4e5dd53a726d33b59f4af275fc846a5",
      "networkId": 0,
      "chainId": 0
    },
    {
      "hash": "0x8558222532d164b952db8d3541634de4c397e81cd9b697c7f36aee4e23772a85",
      "blockHash": "0x841607ed12bf42bfb76725b72a6ca9f9fd61de27dd7ed3aff4520b6f7572e6b7",
      "blockNumber": 90502,
      "transactionIndex": 3,
      "confirmations": null,
      "from": "0x859217617481BD9b6E3e38f6aE9BB677F0D26154",
      "gasPrice": {
        "_hex": "0xdd3097aa4"
      },
      "gasLimit": {
        "_hex": "0x5208"
      },
      "to": "0x32Be343B94f860124dC4fEe278FDCBD38C102D88",
      "value": {
        "_hex": "0x3635c53fbdff260000"
      },
      "nonce": 5,
      "data": "0x",
      "r": "0x96c6b094e05ca95c1fc7b5314dec4fb80ff1dc167cd38df550760db2e8c2f8f1",
      "s": "0x19d31bb7c799f01815f35b3588714a7d72d4bb6b305dec31663dcf3454bce0b2",
      "v": 28,
      "creates": null,
      "raw": "0xf86d05850dd3097aa48252089432be343b94f860124dc4fee278fdcbd38c102d88893635c53fbdff260000801ca096c6b094e05ca95c1fc7b5314dec4fb80ff1dc167cd38df550760db2e8c2f8f1a019d31bb7c799f01815f35b3588714a7d72d4bb6b305dec31663dcf3454bce0b2",
      "networkId": 0,
      "chainId": 0
    }
  ]
}