{
  "hash": "0x8d3fe76a1a4470b8d302e2e5d980689108cab0f615117f1c05c6dbf2cf8b6ad6",
  "parentHash": "0x886a5acd8f7d3000392ca368160fe9c63a7b55f727e10984a1afd34fcaff6b95",
  "number": 85475,
  "timestamp": 1439564233,
  "nonce": "0xdd77ea582fac7374",
  "difficulty": 2746333116459,
  "gasLimit": {
    "_hex": "0x2fefd8"
  },
  "gasUsed": {
    "_hex": "0x8bee"
  },
  "miner": "0xB57a69A9cFD1BC39510a70Ab14De3BDa11d1dF70",
  "extraData": "0x476574682f76312e302e312f6c696e75782f676f312e342e32",
  "transactions": [
    {
      "hash": "0x07159b0aab9d8e53a482cfabce01e92178cb1552e3d25f68b4d2db55a367b28b",
      "blockHash": "0x8d3fe76a1a4470b8d302e2e5d980689108cab0f615117f1c05c6dbf2cf8b6ad6",
      "blockNumber": 85475,
      "transactionIndex": 0,
      "confirmations": null,
      "from": "0xf4B1114a02EFe852013277F28ed88734Fa81E54f",
      "gasPrice": {
        "_hex": "0xd61b1cb1c"
      },
      "gasLimit": {
        "_hex": "0x15f90"
      },
      "to": "0x1C523996Cb7Cb5b0a4A48d8097E45093626b23F0",
      "value": {
        "_hex": "0x0"
      },
      "nonce": 15,
      "data": "0x6042a76058585858585858585800000000000000000000000000000000000000000000000000000000000000000000001c523996cb7cb5b0a4a48d8097e45093626b23f04141414141414141450000000000000000000000000000000000000000000000000000000000000000000000000000000000000000000000002386f26fc10000",
      "r": "0x8d7924778725e82cd784d6b6d61e04525b51a6e24be263baf137c4d520357b71",
      "s": "0x2faa61ca82b46f6193306b5a7b5f641955b94c02d68eae8eb4ad8208b26e9817",
      "v": 27,
      "creates": null,
      "raw": "0xf8ea0f850d61b1cb1c83015f90941c523996cb7cb5b0a4a48d8097e45093626b23f080b8846042a76058585858585858585800000000000000000000000000000000000000000000000000000000000000000000001c523996cb7cb5b0a4a48d8097e45093626b23f04141414141414141450000000000000000000000000000000000000000000000000000000000000000000000000000000000000000000000002386f26fc100001ba08d7924778725e82cd784d6b6d61e04525b51a6e24be263baf137c4d520357b71a02faa61ca82b46f6193306b5a7b5f641955b94c02d68eae8eb4ad8208b26e9817",
      "networkId": 0,
      "chainId": 0
    }
  ]
}