{
  "hash": "0xdbbe07aa67f9d440151a40b873ee98bc61498c68d62d7b255b12b873a763de54",
  "parentHash": "0x82c3bf2440ebfdae0f92a63d5fccf9f59bb00268512e0216f3933a4c07d0dae0",
  "number": 90384,
  "timestamp": 1439639002,
  "nonce": "0x75826362c3ebe48d",
  "difficulty": 3331854589747,
  "gasLimit": {
    "_hex": "0x2fefd5"
  },
  "gasUsed": {
    "_hex": "0x5208"
  },
  "miner": "0xe6A7a1d47ff21B6321162AEA7C6CB457D5476Bca",
  "extraData": "0x476574682f76312e302e312d38326566323666362f6c696e75782f676f312e34",
  "transactions": [
    {
      "hash": "0x91ca4b3ab2612b89fef1568fadf13a8b3c873c492a6f9fe8cadc2da40a1165ba",
      "blockHash": "0xdbbe07aa67f9d440151a40b873ee98bc61498c68d62d7b255b12b873a763de54",
      "blockNumber": 90384,
      "transactionIndex": 0,
      "confirmations": null,
      "from": "0xa70a9a7040d542C632D8e0bE7c5513A8a5Bbc752",
      "gasPrice": {
        "_hex": "0xcb894250c"
      },
      "gasLimit": {
        "_hex": "0x5208"
      },
      "to": "0x32Be343B94f860124dC4fEe278FDCBD38C102D88",
      "value": {
        "_hex": "0x455f7dfdb3b94000"
      },
      "nonce": 113,
      "data": "0x",
      "r": "0x9af3ebb0a1ea827c53facc68923b59c06a20b4eb19baf3bb66812001ffb3f183",
      "s": "0x27c44a4db54dc1de261298ec6075bf62081d3a113b978748ebcbe6a44fc89e50",
      "v": 27,
      "creates": null,
      "raw": "0xf86c71850cb894250c8252089432be343b94f860124dc4fee278fdcbd38c102d8888455f7dfdb3b94000801ba09af3ebb0a1ea827c53facc68923b59c06a20b4eb19baf3bb66812001ffb3f183a027c44a4db54dc1de261298ec6075bf62081d3a113b978748ebcbe6a44fc89e50",
      "networkId": 0,
      "chainId": 0
    }
  ]
}