{
  "hash": "0x5f3cac5a61c4eae87440298ea95aac03ea95b3bb7cc0f491e717d822c2df21e5",
  "parentHash": "0x49e9976da4a6a5f75dcbe0346d820c8b2a193a224940bb2db709ac34adc39e7f",
  "number": 47771,
  "timestamp": 1438945991,
  "nonce": "0x1220b5d77a4d755b",
  "difficulty": 1453735174505,
  "gasLimit": {
    "_hex": "0xf0e5"
  },
  "gasUsed": {
    "_hex": "0x5208"
  },
  "miner": "0x123843545FB525C8E134c9A5F15ADA6865cc3848",
  "extraData": "0x476574682f76312e302e312f77696e646f77732f676f312e342e32",
  "transactions": [
    {
      "hash": "0xf1b225ad094954a1bbde1b524b3ea1c04942e559aa59ee5309cb6ad209751c07",
      "blockHash": "0x5f3cac5a61c4eae87440298ea95aac03ea95b3bb7cc0f491e717d822c2df21e5",
      "blockNumber": 47771,
      "transactionIndex": 0,
      "confirmations": null,
      "from": "0xe6A7a1d47ff21B6321162AEA7C6CB457D5476Bca",
      "gasPrice": {
        "_hex": "0xce9c0d7d2"
      },
      "gasLimit": {
        "_hex": "0x55f0"
      },
      "to": "0x72e3Ea8234b449531A581F05f1c1E07cceb559d2",
      "value": {
        "_hex": "0x4084afd8b943c2e8"
      },
      "nonce": 225,
      "data": "0x",
      "r": "0x41af3ac09c5ce84fa584e32663d42b86fcb43a97e7287dc06b67490827485f77",
      "s": "0x2f304437015946c6036f0f1e9e40b51c9f72ede918bff77739f7733427a1b541",
      "v": 28,
      "creates": null,
      "raw": "0xf86d81e1850ce9c0d7d28255f09472e3ea8234b449531a581f05f1c1e07cceb559d2884084afd8b943c2e8801ca041af3ac09c5ce84fa584e32663d42b86fcb43a97e7287dc06b67490827485f77a02f304437015946c6036f0f1e9e40b51c9f72ede918bff77739f7733427a1b541",
      "networkId": 0,
      "chainId": 0
    }
  ]
}