{
  "hash": "0x6947780884401daba4e8e1297baf587baf407874979790e5aaf58508193d78eb",
  "parentHash": "0x369ee2742e341b450290915fe20531b50c56a36cf40ae7cc0003a6a043be631c",
  "number": 120108,
  "timestamp": 1440154013,
  "nonce": "0xb28928e49eb78150",
  "difficulty": 4419906493906,
  "gasLimit": {
    "_hex": "0x2fefd8"
  },
  "gasUsed": {
    "_hex": "0x5208"
  },
  "miner": "0x9746c7e1ef2bd21FF3997fa467593a89cb852BD0",
  "extraData": "0x476574682f76312e302e312f77696e646f77732f676f312e342e32",
  "transactions": [
    {
      "hash": "0x4b97aabe23db5bf1de3d03a91c82f218ad777b623cd53d59c1fc33268470a553",
      "blockHash": "0x6947780884401daba4e8e1297baf587baf407874979790e5aaf58508193d78eb",
      "blockNumber": 120108,
      "transactionIndex": 0,
      "confirmations": null,
      "from": "0x792Bd2fbb38fafDb9Ea425aeAD48A365062a600e",
      "gasPrice": {
        "_hex": "0x746a528800"
      },
      "gasLimit": {
        "_hex": "0x5208"
      },
      "to": "0x946812554d1Bf912d0e7AEFC2E5bc4b06F9EfA30",
      "value": {
        "_hex": "0x12a5f58168ee60000"
      },
      "nonce": 0,
      "data": "0x",
      "r": "0xf4c255ea1c25950e388da189d1c85f10decf4facb971fdd315b27a5818355d48",
      "s": "0x6765ddd95c637e556b10ed0b779d03f6d59cfbe8f9b3833476536f4e26a18478",
      "v": 27,
      "creates": null,
      "raw": "0xf86d8085746a52880082520894946812554d1bf912d0e7aefc2e5bc4b06f9efa3089012a5f58168ee60000801ba0f4c255ea1c25950e388da189d1c85f10decf4facb971fdd315b27a5818355d48a06765ddd95c637e556b10ed0b779d03f6d59cfbe8f9b3833476536f4e26a18478",
      "networkId": 0,
      "chainId": 0
    }
  ]
}