{
  "hash": "0x5dbaed2608269d9fed3f6758f66715dc9b23a9e6663eff15e5bb3557bbf2edde",
  "parentHash": "0xab8d4043d9867905a8af503b69a750d81efd70a49f19a9f0af93b4a6cad36446",
  "number": 70788,
  "timestamp": 1439325548,
  "nonce": "0xc4720d921417b78c",
  "difficulty": 2143640813792,
  "gasLimit": {
    "_hex": "0x2fefd5"
  },
  "gasUsed": {
    "_hex": "0x5208"
  },
  "miner": "0x88D74a59454F6cF3B51ef6b9136AFb6b9D405A88",
  "extraData": "0x476574682f76312e302e312d37666266393930632f6c696e75782f676f312e34",
  "transactions": [
    {
      "hash": "0xcd4b865559c46255d2aebfab83cb6fe62632c4c92c4686c469fa4151d44b9d83",
      "blockHash": "0x5dbaed2608269d9fed3f6758f66715dc9b23a9e6663eff15e5bb3557bbf2edde",
      "blockNumber": 70788,
      "transactionIndex": 0,
      "confirmations": null,
      "from": "0x449AC4Fbe383e36738855E364a57f471b2BFa131",
      "gasPrice": {
        "_hex": "0xd01198da9"
      },
      "gasLimit": {
        "_hex": "0x15f90"
      },
      "to": "0xC624b0Cd3307f6CFFC473f5019FA380E6811ee58",
      "value": {
        "_hex": "0xa968163f0a57b400000"
      },
      "nonce": 2,
      "data": "0x",
      "r": "0x0741dc178d1a601c4c65f94dedc068d6637c0e27e32a4f62da4948eb6de60b78",
      "s": "0x391db8cd54cd9d68e86d88b6b7218c4749fd1c741a73bb57394cb604f6f273d4",
      "v": 28,
      "creates": null,
      "raw": "0xf86f02850d01198da983015f9094c624b0cd3307f6cffc473f5019fa380e6811ee588a0a968163f0a57b400000801ca00741dc178d1a601c4c65f94dedc068d6637c0e27e32a4f62da4948eb6de60b78a0391db8cd54cd9d68e86d88b6b7218c4749fd1c741a73bb57394cb604f6f273d4",
      "networkId": 0,
      "chainId": 0
    }
  ]
}