{
  "hash": "0xdc4eecce4866c85b8f5da6b9a11876bddbdd1b91c969c6250baa9f416891f576",
  "parentHash": "0xec926837ebecddf63518faae6bc0f6c4a9b8cde07092b3271849be4257e142ea",
  "number": 101591,
  "timestamp": 1439825143,
  "nonce": "0x95cc9d7d385d9cea",
  "difficulty": 3892032044855,
  "gasLimit": {
    "_hex": "0x2fefd8"
  },
  "gasUsed": {
    "_hex": "0x5208"
  },
  "miner": "0xe6A7a1d47ff21B6321162AEA7C6CB457D5476Bca",
  "extraData": "0x476574682f76312e302e312d38326566323666362f6c696e75782f676f312e34",
  "transactions": [
    {
      "hash": "0x23fdc0c41317dfc4469e68a164010191ecf85139a455fe2bcc82d81a142bbacc",
      "blockHash": "0xdc4eecce4866c85b8f5da6b9a11876bddbdd1b91c969c6250baa9f416891f576",
      "blockNumber": 101591,
      "transactionIndex": 0,
      "confirmations": null,
      "from": "0xB28fE7b9815982FF203F751ce550111D752d8795",
      "gasPrice": {
        "_hex": "0xd08406e0a"
      },
      "gasLimit": {
        "_hex": "0x5208"
      },
      "to": "0x32Be343B94f860124dC4fEe278FDCBD38C102D88",
      "value": {
        "_hex": "0x54fa4dd31dfa6c000"
      },
      "nonce": 3,
      "data": "0x",
      "r": "0x74619b7f219b84cd1728ffae09c686341dd626d62515f0f52fe764038898aca9",
      "s": "0x5fd961d99f3e44ed83a46ead6b9e8200171bd710cc0b7cb3b523c04d5693dea9",
      "v": 28,
      "creates": null,
      "raw": "0xf86d03850d08406e0a8252089432be343b94f860124dc4fee278fdcbd38c102d8889054fa4dd31dfa6c000801ca074619b7f219b84cd1728ffae09c686341dd626d62515f0f52fe764038898aca9a05fd961d99f3e44ed83a46ead6b9e8200171bd710cc0b7cb3b523c04d5693dea9",
      "networkId": 0,
      "chainId": 0
    }
  ]
}