{
  "hash": "0xea8e6ab1b7cbc622cec5ad351bba7383ef8003851f5a2aeafbc0d1f99cd01180",
  "parentHash": "0xa8d46ad5d796784f05ba89d7ca9c21f7a1914c88f722988a6cda25c6b7573450",
  "number": 51668,
  "timestamp": 1439008800,
  "nonce": "0x4eb5a31829ed77fb",
  "difficulty": 1559667183928,
  "gasLimit": {
    "_hex": "0xcd2dd"
  },
  "gasUsed": {
    "_hex": "0x7f328"
  },
  "miner": "0xf927a40C8B7F6E07c5af7FA2155B4864a4112B13",
  "extraData": "0x476574682f76312e302e312f6c696e75782f676f312e342e32",
  "transactions": [
    {
      "hash": "0xcf4e60aef97b31263717e1c783182dc9b063e9a002e59f30228d8d977aaeab9f",
      "blockHash": "0xea8e6ab1b7cbc622cec5ad351bba7383ef8003851f5a2aeafbc0d1f99cd01180",
      "blockNumber": 51668,
      "transactionIndex": 0,
      "confirmations": null,
      "from": "0xFCf9f6A78f06227522c6f948ec0119dA31680Ef7",
      "gasPrice": {
        "_hex": "0xd9eee3f8e"
      },
      "gasLimit": {
        "_hex": "0x7a120"
      },
      "to": "0x109C4f2CCc82C4d77Bde15F306707320294Aea3F",
      "value": {
        "_hex": "0xde0b6b3a7640000"
      },
      "nonce": 54,
      "data": "0x",
      "r": "0x36dc5f180771a177f96eadd69eb9b6ed089a6f6158caf96914e5eaf57ef00063",
      "s": "0x6e0683fe90913dec7b6265196593f61c06c12ca54ce8382f4bfde8e1d8ab3ad0",
      "v": 28,
      "creates": null,
      "raw": "0xf86d36850d9eee3f8e8307a12094109c4f2ccc82c4d77bde15f306707320294aea3f880de0b6b3a7640000801ca036dc5f180771a177f96eadd69eb9b6ed089a6f6158caf96914e5eaf57ef00063a06e0683fe90913dec7b6265196593f61c06c12ca54ce8382f4bfde8e1d8ab3ad0",
      "networkId": 0,
      "chainId": 0
    },
    {
      "hash": "0x8fea0379d8d7fb4eefae0d11ed1468a8be5e555a8bf4b8ba1c93b6466c8019f0",
      "blockHash": "0xea8e6ab1b7cbc622cec5ad351bba7383ef8003851f5a2aeafbc0d1f99cd01180",
      "blockNumber": 51668,
      "transactionIndex": 1,
      "confirmations": null,
      "from": "0x5e1a72dde3Ffc20B77eA8382E916EF04C89ff2Bd",
      "gasPrice": {
        "_hex": "0xd7d40ace3"
      },
      "gasLimit": {
        "_hex": "0x15f90"
      },
      "to": "0xdD81AaddCc8448A5fC0ac28DB93ec6801C21E8Ef",
      "value": {
        "_hex": "0xd02ab486cedc0000"
      },
      "nonce": 1,
      "data": "0x",
      "r": "0x08d10db93ce3d41762f01b26cb033c8dc6e328d234521c5e97198705ab550137",
      "s": "0x52df93ad46b8f9f91f453e9c460433afbdddb849ecb75ac4bd5cc45d0ca6139d",
      "v": 28,
      "creates": null,
      "raw": "0xf86d01850d7d40ace383015f9094dd81aaddcc8448a5fc0ac28db93ec6801c21e8ef88d02ab486cedc0000801ca008d10db93ce3d41762f01b26cb033c8dc6e328d234521c5e97198705ab550137a052df93ad46b8f9f91f453e9c460433afbdddb849ecb75ac4bd5cc45d0ca6139d",
      "networkId": 0,
      "chainId": 0
    }
  ]
}