{
  "hash": "0x7726065f5e10b2d0fa27a84a6b21a1b36cdf85d2f6de10988e85584f5e53331d",
  "parentHash": "0x32e76dbb91d69ee1311e855ee2ef33ba0d50a57c53339fb901a6a5f42684da9b",
  "number": 48580,
  "timestamp": 1438959333,
  "nonce": "0x3e6921c23adb8271",
  "difficulty": 1468576689675,
  "gasLimit": {
    "_hex": "0x19dc7"
  },
  "gasUsed": {
    "_hex": "0x5208"
  },
  "miner": "0xB7f5530DF01aeFE061dAbFA6E778eE694157A71f",
  "extraData": "0x476574682f76312e302e312f6c696e75782f676f312e342e32",
  "transactions": [
    {
      "hash": "0x7bd0e8add129e74bdc99b90f20e217fa90fc97134074cc8c175ffd7beb5a042c",
      "blockHash": "0x7726065f5e10b2d0fa27a84a6b21a1b36cdf85d2f6de10988e85584f5e53331d",
      "blockNumber": 48580,
      "transactionIndex": 0,
      "confirmations": null,
      "from": "0x1217627fe41A00f0b828317F43E6d58F47dBfc43",
      "gasPrice": {
        "_hex": "0x1174afb4c3b"
      },
      "gasLimit": {
        "_hex": "0x15f90"
      },
      "to": "0x151e1b655BC131b5aCf57Df4C4193029a2Af43bE",
      "value": {
        "_hex": "0x56bc75e2d63100000"
      },
      "nonce": 0,
      "data": "0x",
      "r": "0x0e9e72a3401e5ee74504ecc8ac1b2f62c3c0d73ecea407fbb33da03a8abf45df",
      "s": "0x4c0634391aa8ac9487dd10922687c365fb1f147fa3c2dfc8399af4c672eb3448",
      "v": 27,
      "creates": null,
      "raw": "0xf86f808601174afb4c3b83015f9094151e1b655bc131b5acf57df4c4193029a2af43be89056bc75e2d63100000801ba00e9e72a3401e5ee74504ecc8ac1b2f62c3c0d73ecea407fbb33da03a8abf45dfa04c0634391aa8ac9487dd10922687c365fb1f147fa3c2dfc8399af4c672eb3448",
      "networkId": 0,
      "chainId": 0
    }
  ]
}