{
  "hash": "0x8b1d9ea7710b966ad57c53adf387ce15ebf9efbf1eb21f60e08ebfd0ef5d6118",
  "parentHash": "0x82285c62ab0e5682a7daa9c06c2c3c4f354ec5272f6a8f84b5bdc9402357ec96",
  "number": 66787,
  "timestamp": 1439260202,
  "nonce": "0x7a606f3b4e48d63a",
  "difficulty": 1953692024961,
  "gasLimit": {
    "_hex": "0x2fefd8"
  },
  "gasUsed": {
    "_hex": "0x5208"
  },
  "miner": "0x5F8F73E26CdF436f19Cb24C82F90A15AFe55b592",
  "extraData": "0x476574682f76312e302e312f77696e646f77732f676f312e342e32",
  "transactions": [
    {
      "hash": "0x7e42d4dd782102520de4543db14888c426be6b3ac113ee7ad9b2f85ebd713a91",
      "blockHash": "0x8b1d9ea7710b966ad57c53adf387ce15ebf9efbf1eb21f60e08ebfd0ef5d6118",
      "blockNumber": 66787,
      "transactionIndex": 0,
      "confirmations": null,
      "from": "0x00818287ff6BA78A461D21bD5832891592dc6C6B",
      "gasPrice": {
        "_hex": "0xba43b7400"
      },
      "gasLimit": {
        "_hex": "0x5208"
      },
      "to": "0x0000000000000000000000000000000000000000",
      "value": {
        "_hex": "0x9b32b5261c26000"
      },
      "nonce": 3,
      "data": "0x",
      "r": "0xdad7353c8fde8f5162fa4ceeb86c83c20e7c49f0e3ae876cdc86fc97cb398854",
      "s": "0x3084185561d64ceee065b6a0cce4e60bcd8fbb2b44133d2f618374e6ce028640",
      "v": 28,
      "creates": null,
      "raw": "0xf86c03850ba43b74008252089400000000000000000000000000000000000000008809b32b5261c26000801ca0dad7353c8fde8f5162fa4ceeb86c83c20e7c49f0e3ae876cdc86fc97cb398854a03084185561d64ceee065b6a0cce4e60bcd8fbb2b44133d2f618374e6ce028640",
      "networkId": 0,
      "chainId": 0
    }
  ]
}