{
  "hash": "0x4f165db5aeb64cc406c3089daee28f0adf872e2840d281957ae01c7c3a1d6f01",
  "parentHash": "0x9effa6e007174a3f9d929b565d3692e279cee61199593275da80367b87d9bd40",
  "number": 90740,
  "timestamp": 1439644760,
  "nonce": "0x2a0e49261df0dd18",
  "difficulty": 3380876796036,
  "gasLimit": {
    "_hex": "0x2fefd8"
  },
  "gasUsed": {
    "_hex": "0x5208"
  },
  "miner": "0xe6A7a1d47ff21B6321162AEA7C6CB457D5476Bca",
  "extraData": "0x476574682f76312e302e312d38326566323666362f6c696e75782f676f312e34",
  "transactions": [
    {
      "hash": "0xd8734ab7e15055f4d20eb45a0a3c0b39c6f3baf27ee28e4f9545373f639e3586",
      "blockHash": "0x4f165db5aeb64cc406c3089daee28f0adf872e2840d281957ae01c7c3a1d6f01",
      "blockNumber": 90740,
      "transactionIndex": 0,
      "confirmations": null,
      "from": "0x211D45933Ef88c3D7aD0120942CF50ab506e618F",
      "gasPrice": {
        "_hex": "0xd3209ea33"
      },
      "gasLimit": {
        "_hex": "0x5208"
      },
      "to": "0x32Be343B94f860124dC4fEe278FDCBD38C102D88",
      "value": {
        "_hex": "0xebe7dce3eb80d000"
      },
      "nonce": 4,
      "data": "0x",
      "r": "0x77329849e3e712f3583a59299c728a7f92f6b207f8e0a002f4da481f2dd33d49",
      "s": "0x4c960c8a7742ed99e3d8750a9d0b6f3a4bef7c0f65262ba4de97c1c5fd079715",
      "v": 27,
      "creates": null,
      "raw": "0xf86c04850d3209ea338252089432be343b94f860124dc4fee278fdcbd38c102d8888ebe7dce3eb80d000801ba077329849e3e712f3583a59299c728a7f92f6b207f8e0a002f4da481f2dd33d49a04c960c8a7742ed99e3d8750a9d0b6f3a4bef7c0f65262ba4de97c1c5fd079715",
      "networkId": 0,
      "chainId": 0
    }
  ]
}