{
  "hash": "0xb59d2e3761cb26fc7298436cd64515dce6c0e83992630d8d244e58e1451d8219",
  "parentHash": "0x7e6a916d52b1fadf39d0857bb19c133da8980cc604a4c78a52671c4750b05256",
  "number": 72456,
  "timestamp": 1439352891,
  "nonce": "0x7421d524a15499f2",
  "difficulty": 2206932924136,
  "gasLimit": {
    "_hex": "0x2fefd8"
  },
  "gasUsed": {
    "_hex": "0x5208"
  },
  "miner": "0xF2d2AfF1320476cb8C6b607199D23175cc595693",
  "extraData": "0x476574682f76312e302e312f77696e646f77732f676f312e342e32",
  "transactions": [
    {
      "hash": "0x6a2b61606c04259f6e4ce018511adbff5151425f285268a58f2012d7b043c7fb",
      "blockHash": "0xb59d2e3761cb26fc7298436cd64515dce6c0e83992630d8d244e58e1451d8219",
      "blockNumber": 72456,
      "transactionIndex": 0,
      "confirmations": null,
      "from": "0x2910543Af39abA0Cd09dBb2D50200b3E800A63D2",
      "gasPrice": {
        "_hex": "0xdfd6756f3"
      },
      "gasLimit": {
        "_hex": "0x5208"
      },
      "to": "0x010681a51b135d69321Be1a1d160485B29d09213",
      "value": {
        "_hex": "0x4551ce090d138000"
      },
      "nonce": 280,
      "data": "0x",
      "r": "0xc76a4849f8831082aaf3c3fa296863cd59f86f365dde843320ee315e7ffe8287",
      "s": "0x4bd0ebfcfd120c1eb3a3fd0c95bcd7a3efa43680eeafa2e7d26a76ca6b24d03e",
      "v": 28,
      "creates": null,
      "raw": "0xf86e820118850dfd6756f382520894010681a51b135d69321be1a1d160485b29d09213884551ce090d138000801ca0c76a4849f8831082aaf3c3fa296863cd59f86f365dde843320ee315e7ffe8287a04bd0ebfcfd120c1eb3a3fd0c95bcd7a3efa43680eeafa2e7d26a76ca6b24d03e",
      "networkId": 0,
      "chainId": 0
    }
  ]
}