{
  "hash": "0x05a664adced3393c9cf26e9b67679b1c4cf991fedaeb63f4c07531da27a01509",
  "parentHash": "0x0f2658351608896c7ba50403f1b4c05641ceff074780d8734f82cb7fde050842",
  "number": 75920,
  "timestamp": 1439411861,
  "nonce": "0x80007b1951e556b2",
  "difficulty": 2225496099091,
  "gasLimit": {
    "_hex": "0x2fefd8"
  },
  "gasUsed": {
    "_hex": "0x5208"
  },
  "miner": "0xbb7B8287f3F0a933474a79eAe42CBCa977791171",
  "extraData": "0x476574682f4c5649562f76312e302e312f6c696e75782f676f312e342e32",
  "transactions": [
    {
      "hash": "0x81359baa11fc490be814b607989bea19fb0362bc2a211fb755da584a6841120c",
      "blockHash": "0x05a664adced3393c9cf26e9b67679b1c4cf991fedaeb63f4c07531da27a01509",
      "blockNumber": 75920,
      "transactionIndex": 0,
      "confirmations": null,
      "from": "0xc3cb6B36Af443F2C6e258B4a39553a818747811F",
      "gasPrice": {
        "_hex": "0xd60340b78"
      },
      "gasLimit": {
        "_hex": "0x5208"
      },
      "to": "0x655Ce0C27E77D78C7e3e89F09EA6dfa394610b5f",
      "value": {
        "_hex": "0x1b1ae4d6e2ef500000"
      },
      "nonce": 4,
      "data": "0x",
      "r": "0xa19fadc39c5183ce8d9e68ef23e633e67a4746bb563f570f88676a70b8319758",
      "s": "0x7c8d7181981c093745e73e931ad772b2dc2ee0a3c5b4963c9fca91ca37ad9727",
      "v": 28,
      "creates": null,
      "raw": "0xf86d04850d60340b7882520894655ce0c27e77d78c7e3e89f09ea6dfa394610b5f891b1ae4d6e2ef500000801ca0a19fadc39c5183ce8d9e68ef23e633e67a4746bb563f570f88676a70b8319758a07c8d7181981c093745e73e931ad772b2dc2ee0a3c5b4963c9fca91ca37ad9727",
      "networkId": 0,
      "chainId": 0
    }
  ]
}