{
  "hash": "0x0f45fbb3e9e31e0237a790ddeddc811616b58de8a1316c31f68ef1264336bd15",
  "parentHash": "0x5190b3a904bfb6da54126a7c1aa0fc7f9ee8a747581f1ddcbd9e359cc5636ac9",
  "number": 100959,
  "timestamp": 1439815203,
  "nonce": "0x6466466b52a41f5f",
  "difficulty": 3858265286786,
  "gasLimit": {
    "_hex": "0x2fefd8"
  },
  "gasUsed": {
    "_hex": "0x2c2d5"
  },
  "miner": "0xe6A7a1d47ff21B6321162AEA7C6CB457D5476Bca",
  "extraData": "0x476574682f76312e302e312d38326566323666362f6c696e75782f676f312e34",
  "transactions": [
    {
      "hash": "0x393f5395dd3efda6b3a65494262e851ff2cc62f99e652d333b2518dbecdf3929",
      "blockHash": "0x0f45fbb3e9e31e0237a790ddeddc811616b58de8a1316c31f68ef1264336bd15",
      "blockNumber": 100959,
      "transactionIndex": 0,
      "confirmations": null,
      "from": "0x5eD8Cee6b63b1c6AFce3AD7c92f4fD7E1B8fAd9F",
      "gasPrice": {
        "_hex": "0xd0a0e2766"
      },
      "gasLimit": {
        "_hex": "0x30d40"
      },
      "to": "0xde0B295669a9FD93d5F28D9Ec85E40f4cb697BAe",
      "value": {
        "_hex": "0x0"
      },
      "nonce": 7,
      "data": "0xb61d27f6000000000000000000000000883903542907ea85643c9625a3e69e9bfb5c783800000000000000000000000000000000000000000000e025fc631854ad76400000000000000000000000000000000000000000000000000000000000000000600000000000000000000000000000000000000000000000000000000000000000",
      "r": "0x3fd08da02e3248589340ac2277165f7e6f948ddf8601dbda52f383f9eb13aab5",
      "s": "0x66f28953a841ff7317b756596f254e9433b1c203eede6dc206b5014c2310acb8",
      "v": 28,
      "creates": null,
      "raw": "0xf8ea07850d0a0e276683030d4094de0b295669a9fd93d5f28d9ec85e40f4cb697bae80b884b61d27f6000000000000000000000000883903542907ea85643c9625a3e69e9bfb5c783800000000000000000000000000000000000000000000e025fc631854ad764000000000000000000000000000000000000000000000000000000000000000006000000000000000000000000000000000000000000000000000000000000000001ca03fd08da02e3248589340ac2277165f7e6f948ddf8601dbda52f383f9eb13aab5a066f28953a841ff7317b756596f254e9433b1c203eede6dc206b5014c2310acb8",
      "networkId": 0,
      "chainId": 0
    }
  ]
}