{
  "hash": "0xb8c3e81088054fb3b2e26f37d42e14140ba9f4516f86b296445f68e24d3b5718",
  "parentHash": "0xb3900ff61d42d898e36e399bc4f2c28e72c7b466c08c8f781cb89b196e28ae5f",
  "number": 97448,
  "timestamp": 1439756317,
  "nonce": "0xf5a3c60415e04ae3",
  "difficulty": 3813049209611,
  "gasLimit": {
    "_hex": "0x2fefd8"
  },
  "gasUsed": {
    "_hex": "0x5208"
  },
  "miner": "0x9746c7e1ef2bd21FF3997fa467593a89cb852BD0",
  "extraData": "0x476574682f76312e302e312f77696e646f77732f676f312e342e32",
  "transactions": [
    {
      "hash": "0xa86c088c1befd5f1aa594eace8faf895372d01b589fbc4ba1e0e8f038c0997f9",
      "blockHash": "0xb8c3e81088054fb3b2e26f37d42e14140ba9f4516f86b296445f68e24d3b5718",
      "blockNumber": 97448,
      "transactionIndex": 0,
      "confirmations": null,
      "from": "0x790b8a3cE86E707ED0eD32bF89B3269692a23CC1",
      "gasPrice": {
        "_hex": "0xdc0ff1e23"
      },
      "gasLimit": {
        "_hex": "0x15f90"
      },
      "to": "0x4D67f4F0Db45b3B5a3424B39ed8d972F710381D5",
      "value": {
        "_hex": "0x33f478ca2dde60000"
      },
      "nonce": 15,
      "data": "0x",
      "r": "0xc41c4fd60461b39b7e16aabea43df8edb2f5e1090e530832fae2efb9a685b269",
      "s": "0x0eee9b792d144833cc715ebf7e0a18b9f93c22e0bb3fbae4dad597bc5b9b1796",
      "v": 27,
      "creates": null,
      "raw": "0xf86e0f850dc0ff1e2383015f90944d67f4f0db45b3b5a3424b39ed8d972f710381d589033f478ca2dde60000801ba0c41c4fd60461b39b7e16aabea43df8edb2f5e1090e530832fae2efb9a685b269a00eee9b792d144833cc715ebf7e0a18b9f93c22e0bb3fbae4dad597bc5b9b1796",
      "networkId": 0,
      "chainId": 0
    }
  ]
}