{
  "hash": "0x1b517cb92e7614eb66a36c8ab2acb2984275f483bc2f2b2d92c717a3e74a8d7b",
  "parentHash": "0xe6ec2a4f3f33ffd94638333efc58a14c2478d22c57369f57c9460b61dc34be74",
  "number": 51640,
  "timestamp": 1439008323,
  "nonce": "0xfc4faedbf7c1977f",
  "difficulty": 1558150015668,
  "gasLimit": {
    "_hex": "0xc8d41"
  },
  "gasUsed": {
    "_hex": "0x7a120"
  },
  "miner": "0x71cEe16c3410CB351b27dD9CFa24cF431287C837",
  "extraData": "0x",
  "transactions": [
    {
      "hash": "0xa6cd6c88fe82f7a42e5f60f1cc8ea83c75a8015ca1d045d2c23c49806909dbee",
      "blockHash": "0x1b517cb92e7614eb66a36c8ab2acb2984275f483bc2f2b2d92c717a3e74a8d7b",
      "blockNumber": 51640,
      "transactionIndex": 0,
      "confirmations": null,
      "from": "0xFCf9f6A78f06227522c6f948ec0119dA31680Ef7",
      "gasPrice": {
        "_hex": "0xd5d448346"
      },
      "gasLimit": {
        "_hex": "0x7a120"
      },
      "to": "0xBAA54d6E90c3F4d7Ebec11bD180134C7eD8eBb52",
      "value": {
        "_hex": "0x16345785d8a0000"
      },
      "nonce": 45,
      "data": "0x",
      "r": "0x548d89c889525839aaa452fa14d0b0713473e3c7ff34a28bb1852b557cfa49d7",
      "s": "0x3f8c5f5c6060d533dbbb3c192da66580198a9ba1a0e2a1fd43be31bb388f77eb",
      "v": 28,
      "creates": null,
      "raw": "0xf86d2d850d5d4483468307a12094baa54d6e90c3f4d7ebec11bd180134c7ed8ebb5288016345785d8a0000801ca0548d89c889525839aaa452fa14d0b0713473e3c7ff34a28bb1852b557cfa49d7a03f8c5f5c6060d533dbbb3c192da66580198a9ba1a0e2a1fd43be31bb388f77eb",
      "networkId": 0,
      "chainId": 0
    }
  ]
}