{
  "hash": "0x8d6c6679c9cad51955562ee466257ef75654cb51455562ba3acd1ac92b3080ad",
  "parentHash": "0x84d0c883181df779018667473ee2c603080ad772f80f4fd43d69d4b360bf72d3",
  "number": 99949,
  "timestamp": 1439798250,
  "nonce": "0x519bb51d4bb6e118",
  "difficulty": 3847441525489,
  "gasLimit": {
    "_hex": "0x2fefd8"
  },
  "gasUsed": {
    "_hex": "0x9eef8"
  },
  "miner": "0x88D74a59454F6cF3B51ef6b9136AFb6b9D405A88",
  "extraData": "0x476574682f76312e302e312d38326566323666362f6c696e75782f676f312e34",
  "transactions": [
    {
      "hash": "0x1d95ec51daacc0af6b500ca7dd9667a18d5873d443fb37229a9169c0fe6fdb9e",
      "blockHash": "0x8d6c6679c9cad51955562ee466257ef75654cb51455562ba3acd1ac92b3080ad",
      "blockNumber": 99949,
      "transactionIndex": 0,
      "confirmations": null,
      "from": "0xe6A7a1d47ff21B6321162AEA7C6CB457D5476Bca",
      "gasPrice": {
        "_hex": "0xdcbea1fd0"
      },
      "gasLimit": {
        "_hex": "0x55f0"
      },
      "to": "0x9C79cd9eDDAC7B87063732BC9629e3404341FB6E",
      "value": {
        "_hex": "0x1d07202f9eb3e518"
      },
      "nonce": 3102,
      "data": "0x",
      "r": "0x28cefe858ca6fe0bfab69a38756bf2347cb82283eec01b52a7a524f1787fd154",
      "s": "0x61cfc6d704d62bfae1bd5e5cbedb407eb8d57a404c3f17eae6f8dff2574c3669",
      "v": 28,
      "creates": null,
      "raw": "0xf86e820c1e850dcbea1fd08255f0949c79cd9eddac7b87063732bc9629e3404341fb6e881d07202f9eb3e518801ca028cefe858ca6fe0bfab69a38756bf2347cb82283eec01b52a7a524f1787fd154a061cfc6d704d62bfae1bd5e5cbedb407eb8d57a404c3f17eae6f8dff2574c3669",
      "networkId": 0,
      "chainId": 0
    },
    {
      "hash": "0xe85515cd905cbd8e79f198d3dd476f92516a8e2f5ccf217c4e7f8b42864067c2",
      "blockHash": "0x8d6c6679c9cad51955562ee466257ef75654cb51455562ba3acd1ac92b3080ad",
      "blockNumber": 99949,
      "transactionIndex": 1,
      "confirmations": null,
      "from": "0xe6A7a1d47ff21B6321162AEA7C6CB457D5476Bca",
      "gasPrice": {
        "_hex": "0xdcbea1fd0"
      },
      "gasLimit": {
        "_hex": "0x55f0"
      },
      "to": "0x39A7Fe8E3263559BE0A179EdbAe7dD2F61E3bC45",
      "value": {
        "_hex": "0x1d10f7641b36fa0c"
      },
      "nonce": 3103,
      "data": "0x",
      "r": "0x6e320045e318b62083bd6b4de7dc7b068dd30b68e987ac4148a62bac43f8cd68",
      "s": "0x0da2fc9f514345f3fb3e62bb3a2168cc80ab8935c148b037f8aed805b2ed5339",
      "v": 27,
      "creates": null,
      "raw": "0xf86e820c1f850dcbea1fd08255f09439a7fe8e3263559be0a179edbae7dd2f61e3bc45881d10f7641b36fa0c801ba06e320045e318b62083bd6b4de7dc7b068dd30b68e987ac4148a62bac43f8cd68a00da2fc9f514345f3fb3e62bb3a2168cc80ab8935c148b037f8aed805b2ed5339",
      "networkId": 0,
      "chainId": 0
    },
    {
      "hash": "0xfa5e10998e73739c610d6163e5badd5402b5bea8ef9faae9c9b72e2022d5e7cc",
      "blockHash": "0x8d6c6679c9cad51955562ee466257ef75654cb51455562ba3acd1ac92b3080ad",
      "blockNumber": 99949,
      "transactionIndex": 2,
      "confirmations": null,
      "from": "0xe6A7a1d47ff21B6321162AEA7C6CB457D5476Bca",
      "gasPrice": {
        "_hex": "0xdcbea1fd0"
      },
      "gasLimit": {
        "_hex": "0x55f0"
      },
      "to": "0x338f82f23454993F348164343Ab42acd09c1F18F",
      "value": {
        "_hex": "0x1d1d254fe62c4cd8"
      },
      "nonce": 3104,
      "data": "0x",
      "r": "0x8ed552223ba584f387e81ab1a01aa5a1ce97f3a05548c7447fc8fc7cb4dbeeec",
      "s": "0x2f31929221dcc6d44e57403191017d3b8a9a218e624c642e4e3f484aca3fb06e",
      "v": 27,
      "creates": null,
      "raw": "0xf86e820c20850dcbea1fd08255f094338f82f23454993f348164343ab42acd09c1f18f881d1d254fe62c4cd8801ba08ed552223ba584f387e81ab1a01aa5a1ce97f3a05548c7447fc8fc7cb4dbeeeca02f31929221dcc6d44e57403191017d3b8a9a218e624c642e4e3f484aca3fb06e",
      "networkId": 0,
      "chainId": 0
    },
    {
      "hash": "0x8d646dbbce09186e3112a67a409dd6adbc57b4428ca10fbfa72fa9a0db4d2285",
      "blockHash": "0x8d6c6679c9cad51955562ee466257ef75654cb51455562ba3acd1ac92b3080ad",
      "blockNumber": 99949,
      "transactionIndex": 3,
      "confirmations": null,
      "from": "0xe6A7a1d47ff21B6321162AEA7C6CB457D5476Bca",
      "gasPrice": {
        "_hex": "0xdcbea1fd0"
      },
      "gasLimit": {
        "_hex": "0x55f0"
      },
      "to": "0x905364aFd546a2e96f44A41071b83C0258Bf17dA",
      "value": {
        "_hex": "0x1d4bb375cda35cdc"
      },
      "nonce": 3105,
      "data": "0x",
      "r": "0x57892aa492087e0788346914bb4f17f15e394b91d2593d72bcef480343188f12",
      "s": "0x2aa8c54e27612860fba46efe201719250180cc549ca4ba66cf234d454778f004",
      "v": 28,
      "creates": null,
      "raw": "0xf86e820c21850dcbea1fd08255f094905364afd546a2e96f44a41071b83c0258bf17da881d4bb375cda35cdc801ca057892aa492087e0788346914bb4f17f15e394b91d2593d72bcef480343188f12a02aa8c54e27612860fba46efe201719250180cc549ca4ba66cf234d454778f004",
      "networkId": 0,
      "chainId": 0
    },
    {
      "hash": "0xc43307b511c2dbe50bf62ddd507f2d262ed2864f8ca9474fac64e337ff588ac2",
      "blockHash": "0x8d6c6679c9cad51955562ee466257ef75654cb51455562ba3acd1ac92b3080ad",
      "blockNumber": 99949,
      "transactionIndex": 4,
      "confirmations": null,
      "from": "0xe6A7a1d47ff21B6321162AEA7C6CB457D5476Bca",
      "gasPrice": {
        "_hex": "0xdcbea1fd0"
      },
      "gasLimit": {
        "_hex": "0x55f0"
      },
      "to": "0x37E0B394d41C669662b52628639E6E4c1ac3F23D",
      "value": {
        "_hex": "0x1d58043fa11b0e2c"
      },
      "nonce": 3106,
      "data": "0x",
      "r": "0xfc435e08a4a5c52da9267691ed462ab0f0962c598a534d22e8a70216fa86c4d5",
      "s": "0x6093cf12af8f9c6ae28260e5d8622de469991d2b901fb9c9e3c9ddbf4662fadb",
      "v": 28,
      "creates": null,
      "raw": "0xf86e820c22850dcbea1fd08255f09437e0b394d41c669662b52628639e6e4c1ac3f23d881d58043fa11b0e2c801ca0fc435e08a4a5c52da9267691ed462ab0f0962c598a534d22e8a70216fa86c4d5a06093cf12af8f9c6ae28260e5d8622de469991d2b901fb9c9e3c9ddbf4662fadb",
      "networkId": 0,
      "chainId": 0
    },
    {
      "hash": "0x79892ed11eaf79ee94a4f366d755ef311c154f86c438d16966bf4c9c40239d52",
      "blockHash": "0x8d6c6679c9cad51955562ee466257ef75654cb51455562ba3acd1ac92b3080ad",
      "blockNumber": 99949,
      "transactionIndex": 5,
      "confirmations": null,
      "from": "0xe6A7a1d47ff21B6321162AEA7C6CB457D5476Bca",
      "gasPrice": {
        "_hex": "0xdcbea1fd0"
      },
      "gasLimit": {
        "_hex": "0x55f0"
      },
      "to": "0xD9DE820A23C38bCfE281630df2c89511CB833D03",
      "value": {
        "_hex": "0x1d6c8a0351596808"
      },
      "nonce": 3107,
      "data": "0x",
      "r": "0x835fe3b1a549b60769a213464cd2c593242f60641758d751d79268ab8cbf98e1",
      "s": "0x09cff701b0e768c81e1adb70e0431d2d7edf43cfb44fa6f5425e0dd3fb6c9bca",
      "v": 27,
      "creates": null,
      "raw": "0xf86e820c23850dcbea1fd08255f094d9de820a23c38bcfe281630df2c89511cb833d03881d6c8a0351596808801ba0835fe3b1a549b60769a213464cd2c593242f60641758d751d79268ab8cbf98e1a009cff701b0e768c81e1adb70e0431d2d7edf43cfb44fa6f5425e0dd3fb6c9bca",
      "networkId": 0,
      "chainId": 0
    },
    {
      "hash": "0xff0c41f2634153ca90417a3012e05c2eb77fcb4a5e140837a0f87526da7688d2",
      "blockHash": "0x8d6c6679c9cad51955562ee466257ef75654cb51455562ba3acd1ac92b3080ad",
      "blockNumber": 99949,
      "transactionIndex": 6,
      "confirmations": null,
      "from": "0xe6A7a1d47ff21B6321162AEA7C6CB457D5476Bca",
      "gasPrice": {
        "_hex": "0xdcbea1fd0"
      },
      "gasLimit": {
        "_hex": "0x55f0"
      },
      "to": "0x5E4b2D8d8fc2332da92f225890520d41EdB0Ea50",
      "value": {
        "_hex": "0x1d94d8303d0f5418"
      },
      "nonce": 3108,
      "data": "0x",
      "r": "0xc58664b387419739b00c0d26f0fd4de075b5b2ed6b6fc94f5935840fcb77c4aa",
      "s": "0x5b2c1190edbdd13d37aea25e1eb333ac52904e493ff807e8dad7366ff7d7ea52",
      "v": 28,
      "creates": null,
      "raw": "0xf86e820c24850dcbea1fd08255f0945e4b2d8d8fc2332da92f225890520d41edb0ea50881d94d8303d0f5418801ca0c58664b387419739b00c0d26f0fd4de075b5b2ed6b6fc94f5935840fcb77c4aaa05b2c1190edbdd13d37aea25e1eb333ac52904e493ff807e8dad7366ff7d7ea52",
      "networkId": 0,
      "chainId": 0
    },
    {
      "hash": "0x264afee9f318844843346f2f1d98125c59a7e1745e4e53cde37f84bb98e68a04",
      "blockHash": "0x8d6c6679c9cad51955562ee466257ef75654cb51455562ba3acd1ac92b3080ad",
      "blockNumber": 99949,
      "transactionIndex": 7,
      "confirmations": null,
      "from": "0xe6A7a1d47ff21B6321162AEA7C6CB457D5476Bca",
      "gasPrice": {
        "_hex": "0xdcbea1fd0"
      },
      "gasLimit": {
        "_hex": "0x55f0"
      },
      "to": "0x315260950914163880F3AD5A7FEEC87407fa4868",
      "value": {
        "_hex": "0x1df30fec43a79af4"
      },
      "nonce": 3109,
      "data": "0x",
      "r": "0x7b9405262c4c737b49a9688ad4270437da5f45d7ff86c2a3a76a5b66cef5d44c",
      "s": "0x6c8f72c6b27280174fdb96eb2cd8e2331ede8c35b0abaaceff8c06556ced9f05",
      "v": 27,
      "creates": null,
      "raw": "0xf86e820c25850dcbea1fd08255f094315260950914163880f3ad5a7feec87407fa4868881df30fec43a79af4801ba07b9405262c4c737b49a9688ad4270437da5f45d7ff86c2a3a76a5b66cef5d44ca06c8f72c6b27280174fdb96eb2cd8e2331ede8c35b0abaaceff8c06556ced9f05",
      "networkId": 0,
      "chainId": 0
    },
    {
      "hash": "0xb15f4f25066999b03e651f1f17474d2daefafcb48b910ce67518baa6aaacc557",
      "blockHash": "0x8d6c6679c9cad51955562ee466257ef75654cb51455562ba3acd1ac92b3080ad",
      "blockNumber": 99949,
      "transactionIndex": 8,
      "confirmations": null,
      "from": "0xe6A7a1d47ff21B6321162AEA7C6CB457D5476Bca",
      "gasPrice": {
        "_hex": "0xdcbea1fd0"
      },
      "gasLimit": {
        "_hex": "0x55f0"
      },
      "to": "0x2d11763B4999FB3b61Ca8d19C8C77a743079f7bd",
      "value": {
        "_hex": "0x1e381efe862aae14"
      },
      "nonce": 3110,
      "data": "0x",
      "r": "0x5d0313e9022dcdcf060075c2a49cbaa68bb43c3ba5f8d7f0f15a796abb2a9fe8",
      "s": "0x6babca3d2fdcd5d811a4a6ec6f59a2f5a8e509645c44cac5898061c43e2ccdbd",
      "v": 27,
      "creates": null,
      "raw": "0xf86e820c26850dcbea1fd08255f0942d11763b4999fb3b61ca8d19c8c77a743079f7bd881e381efe862aae14801ba05d0313e9022dcdcf060075c2a49cbaa68bb43c3ba5f8d7f0f15a796abb2a9fe8a06babca3d2fdcd5d811a4a6ec6f59a2f5a8e509645c44cac5898061c43e2ccdbd",
      "networkId": 0,
      "chainId": 0
    },
    {
      "hash": "0xa2e202a6ec1a778845d1da1a45420796b82e376cfd7ec2defe78e8afa5fecf2a",
      "blockHash": "0x8d6c6679c9cad51955562ee466257ef75654cb51455562ba3acd1ac92b3080ad",
      "blockNumber": 99949,
      "transactionIndex": 9,
      "confirmations": null,
      "from": "0xe6A7a1d47ff21B6321162AEA7C6CB457D5476Bca",
      "gasPrice": {
        "_hex": "0xdcbea1fd0"
      },
      "gasLimit": {
        "_hex": "0x55f0"
      },
      "to": "0x9746c7e1ef2bd21FF3997fa467593a89cb852BD0",
      "value": {
        "_hex": "0x1e9f736e1aae7810"
      },
      "nonce": 3111,
      "data": "0x",
      "r": "0xdaa912941853c49b6502a5e91b1f621fa5ae22d85083b6f9d92aa451dc18ef4c",
      "s": "0x2f2b0f4055c6e43953ff79c461d5c3546d329707bac86221db41d457e748bf2a",
      "v": 28,
      "creates": null,
      "raw": "0xf86e820c27850dcbea1fd08255f0949746c7e1ef2bd21ff3997fa467593a89cb852bd0881e9f736e1aae7810801ca0daa912941853c49b6502a5e91b1f621fa5ae22d85083b6f9d92aa451dc18ef4ca02f2b0f4055c6e43953ff79c461d5c3546d329707bac86221db41d457e748bf2a",
      "networkId": 0,
      "chainId": 0
    },
    {
      "hash": "0xc4c2ed056e336336285e1b88fcf7bb257b6e2637f4c4d44b43236b5ec312ad9e",
      "blockHash": "0x8d6c6679c9cad51955562ee466257ef75654cb51455562ba3acd1ac92b3080ad",
      "blockNumber": 99949,
      "transactionIndex": 10,
      "confirmations": null,
      "from": "0xe6A7a1d47ff21B6321162AEA7C6CB457D5476Bca",
      "gasPrice": {
        "_hex": "0xdcbea1fd0"
      },
      "gasLimit": {
        "_hex": "0x55f0"
      },
      "to": "0x006c2D0A03D20a1e9B838594F03FC81603e9d350",
      "value": {
        "_hex": "0x1ea616609b9b1118"
      },
      "nonce": 3112,
      "data": "0x",
      "r": "0x248f4a1320eef04a1012fa1092e1005a0edd5ad15c657ff4d2fcd6e98e28808d",
      "s": "0x79211f678a917c6135242113f51bb49f0702c83ef804dabbba1327e3041dad39",
      "v": 27,
      "creates": null,
      "raw": "0xf86e820c28850dcbea1fd08255f094006c2d0a03d20a1e9b838594f03fc81603e9d350881ea616609b9b1118801ba0248f4a1320eef04a1012fa1092e1005a0edd5ad15c657ff4d2fcd6e98e28808da079211f678a917c6135242113f51bb49f0702c83ef804dabbba1327e3041dad39",
      "networkId": 0,
      "chainId": 0
    },
    {
      "hash": "0x8886a0e4878c53eaf2ecd1d547ee9690c40c21a8a87d6cbfc44bcd61d5cf0769",
      "blockHash": "0x8d6c6679c9cad51955562ee466257ef75654cb51455562ba3acd1ac92b3080ad",
      "blockNumber": 99949,
      "transactionIndex": 11,
      "confirmations": null,
      "from": "0xe6A7a1d47ff21B6321162AEA7C6CB457D5476Bca",
      "gasPrice": {
        "_hex": "0xdcbea1fd0"
      },
      "gasLimit": {
        "_hex": "0x55f0"
      },
      "to": "0xb6f15735Af04ae6d37B89592E406311A94e4F5f2",
      "value": {
        "_hex": "0x1ed8805a0d1b7e14"
      },
      "nonce": 3113,
      "data": "0x",
      "r": "0x9810082c0049d1634a06f8a3f799c00a433f9383c4ec7ca92fcbb62cf98c8208",
      "s": "0x12c494144655feeca25b7f5c53515b67eece59a5e5578f8861998c5a38e6e5ef",
      "v": 27,
      "creates": null,
      "raw": "0xf86e820c29850dcbea1fd08255f094b6f15735af04ae6d37b89592e406311a94e4f5f2881ed8805a0d1b7e14801ba09810082c0049d1634a06f8a3f799c00a433f9383c4ec7ca92fcbb62cf98c8208a012c494144655feeca25b7f5c53515b67eece59a5e5578f8861998c5a38e6e5ef",
      "networkId": 0,
      "chainId": 0
    },
    {
      "hash": "0xd4330225e978dfae71ac4c203fe8be2dff7e4104303c6464219def4547fa52a7",
      "blockHash": "0x8d6c6679c9cad51955562ee466257ef75654cb51455562ba3acd1ac92b3080ad",
      "blockNumber": 99949,
      "transactionIndex": 12,
      "confirmations": null,
      "from": "0xe6A7a1d47ff21B6321162AEA7C6CB457D5476Bca",
      "gasPrice": {
        "_hex": "0xdcbea1fd0"
      },
      "gasLimit": {
        "_hex": "0x55f0"
      },
      "to": "0x5C6935CC46A0ccd4f0E1eb8c27103e46AA9517dB",
      "value": {
        "_hex": "0x1f4c86587d073de4"
      },
      "nonce": 3114,
      "data": "0x",
      "r": "0x446cdc3cea58e1df5851ffdcc85338dc3b4f3e97d51b2a470bff8f1422181b87",
      "s": "0x1de1a3b8106098a78e1810481fc3595aaf60fcce16a354857f80ffe1ebb43ce8",
      "v": 27,
      "creates": null,
      "raw": "0xf86e820c2a850dcbea1fd08255f0945c6935cc46a0ccd4f0e1eb8c27103e46aa9517db881f4c86587d073de4801ba0446cdc3cea58e1df5851ffdcc85338dc3b4f3e97d51b2a470bff8f1422181b87a01de1a3b8106098a78e1810481fc3595aaf60fcce16a354857f80ffe1ebb43ce8",
      "networkId": 0,
      "chainId": 0
    },
    {
      "hash": "0xd9faf60504b2962411265b401f1b1a060b9937c1c263c7dc3e19adebda2290ac",
      "blockHash": "0x8d6c6679c9cad51955562ee466257ef75654cb51455562ba3acd1ac92b3080ad",
      "blockNumber": 99949,
      "transactionIndex": 13,
      "confirmations": null,
      "from": "0xe6A7a1d47ff21B6321162AEA7C6CB457D5476Bca",
      "gasPrice": {
        "_hex": "0xdcbea1fd0"
      },
      "gasLimit": {
        "_hex": "0x55f0"
      },
      "to": "0xE9c4c542f72044d8296171067B020A6d17F8187b",
      "value": {
        "_hex": "0x1f6f8ca3aba274d8"
      },
      "nonce": 3115,
      "data": "0x",
      "r": "0x0e6f3bfe233c3457e3a40f6a462a7038a10b9255bbf21b8aa1b56d8476d81b6d",
      "s": "0x5afb84dcb589218bc6d998f4921d25a49581a027431218a4f62c4c2fcdeee34d",
      "v": 27,
      "creates": null,
      "raw": "0xf86e820c2b850dcbea1fd08255f094e9c4c542f72044d8296171067b020a6d17f8187b881f6f8ca3aba274d8801ba00e6f3bfe233c3457e3a40f6a462a7038a10b9255bbf21b8aa1b56d8476d81b6da05afb84dcb589218bc6d998f4921d25a49581a027431218a4f62c4c2fcdeee34d",
      "networkId": 0,
      "chainId": 0
    },
    {
      "hash": "0xc99496591aab51d4a3f71ebff0c3afab162bda7bbc6d1f4d6ef4152582c321f0",
      "blockHash": "0x8d6c6679c9cad51955562ee466257ef75654cb51455562ba3acd1ac92b3080ad",
      "blockNumber": 99949,
      "transactionIndex": 14,
      "confirmations": null,
      "from": "0xe6A7a1d47ff21B6321162AEA7C6CB457D5476Bca",
      "gasPrice": {
        "_hex": "0xdcbea1fd0"
      },
      "gasLimit": {
        "_hex": "0x55f0"
      },
      "to": "0x0Bce1f08Ac26719f94701275c8cAfF71f7D27AAC",
      "value": {
        "_hex": "0x1fc6246e42b38d04"
      },
      "nonce": 3116,
      "data": "0x",
      "r": "0x3ae7d40306d1a49e87050b3824af725426637a0ebe2edab8b74326637dd2509f",
      "s": "0x19bc91b2b2a00458b24a2131df7bdb22aec076d5d6393da2c54deb87f7bcdc6f",
      "v": 28,
      "creates": null,
      "raw": "0xf86e820c2c850dcbea1fd08255f0940bce1f08ac26719f94701275c8caff71f7d27aac881fc6246e42b38d04801ca03ae7d40306d1a49e87050b3824af725426637a0ebe2edab8b74326637dd2509fa019bc91b2b2a00458b24a2131df7bdb22aec076d5d6393da2c54deb87f7bcdc6f",
      "networkId": 0,
      "chainId": 0
    },
    {
      "hash": "0x5d4e8eb17bc51d195ebd44d55bc855c8cbd09b96beff8aeaae0ceb6076733bd6",
      "blockHash": "0x8d6c6679c9cad51955562ee466257ef75654cb51455562ba3acd1ac92b3080ad",
      "blockNumber": 99949,
      "transactionIndex": 15,
      "confirmations": null,
      "from": "0xe6A7a1d47ff21B6321162AEA7C6CB457D5476Bca",
      "gasPrice": {
        "_hex": "0xdcbea1fd0"
      },
      "gasLimit": {
        "_hex": "0x55f0"
      },
      "to": "0x3716217678dcE2eC18FeFfa9D6f5cC9dC52eDe83",
      "value": {
        "_hex": "0x2014a47b2081b860"
      },
      "nonce": 3117,
      "data": "0x",
      "r": "0xab1141a10b1542719a8300e1a1e616ad2b131f8bf504ec85695ae52a425f1c5b",
      "s": "0x70b330542d944c5032cee199360130e6bede6bafdb2d1106336b09075d8b1d80",
      "v": 28,
      "creates": null,
      "raw": "0xf86e820c2d850dcbea1fd08255f0943716217678dce2ec18feffa9d6f5cc9dc52ede83882014a47b2081b860801ca0ab1141a10b1542719a8300e1a1e616ad2b131f8bf504ec85695ae52a425f1c5ba070b330542d944c5032cee199360130e6bede6bafdb2d1106336b09075d8b1d80",
      "networkId": 0,
      "chainId": 0
    },
    {
      "hash": "0x2e714412ed5942497407659961324798d5352cf8889d76f13e413e9a48ad37c1",
      "blockHash": "0x8d6c6679c9cad51955562ee466257ef75654cb51455562ba3acd1ac92b3080ad",
      "blockNumber": 99949,
      "transactionIndex": 16,
      "confirmations": null,
      "from": "0xe6A7a1d47ff21B6321162AEA7C6CB457D5476Bca",
      "gasPrice": {
        "_hex": "0xdcbea1fd0"
      },
      "gasLimit": {
        "_hex": "0x55f0"
      },
      "to": "0xeF5184cD2BbB274d787BeAb010141a0a85626E7b",
      "value": {
        "_hex": "0x2016685ecfd661f0"
      },
      "nonce": 3118,
      "data": "0x",
      "r": "0x8c9c3c4dfdd99fee14654dc49b9abf6434550b475f2a7b51a7e1c8be9a9cdbd9",
      "s": "0x05bb580a7b0a44a377cd83d5f853f85726f93b05568f4c1f1cfd1ee3194df562",
      "v": 28,
      "creates": null,
      "raw": "0xf86e820c2e850dcbea1fd08255f094ef5184cd2bbb274d787beab010141a0a85626e7b882016685ecfd661f0801ca08c9c3c4dfdd99fee14654dc49b9abf6434550b475f2a7b51a7e1c8be9a9cdbd9a005bb580a7b0a44a377cd83d5f853f85726f93b05568f4c1f1cfd1ee3194df562",
      "networkId": 0,
      "chainId": 0
    },
    {
      "hash": "0x1bb23c5d23519a237832325eeadb3325cc6c3586b0967bf60e7f72d4704a8e7c",
      "blockHash": "0x8d6c6679c9cad51955562ee466257ef75654cb51455562ba3acd1ac92b3080ad",
      "blockNumber": 99949,
      "transactionIndex": 17,
      "confirmations": null,
      "from": "0xe6A7a1d47ff21B6321162AEA7C6CB457D5476Bca",
      "gasPrice": {
        "_hex": "0xdcbea1fd0"
      },
      "gasLimit": {
        "_hex": "0x55f0"
      },
      "to": "0x248aCc54C440214585155Ba4fe5c9706Fb234061",
      "value": {
        "_hex": "0x206ab08724439d60"
      },
      "nonce": 3119,
      "data": "0x",
      "r": "0xaeeff4d7bf4fe26a0089b00fd2c34b865e9418f5c7641840bab967d5060b7a83",
      "s": "0x35a0858249dc367eebd75ad1f08419db7b615a98c5ab9f5b33dd177f89ecfbd5",
      "v": 28,
      "creates": null,
      "raw": "0xf86e820c2f850dcbea1fd08255f094248acc54c440214585155ba4fe5c9706fb23406188206ab08724439d60801ca0aeeff4d7bf4fe26a0089b00fd2c34b865e9418f5c7641840bab967d5060b7a83a035a0858249dc367eebd75ad1f08419db7b615a98c5ab9f5b33dd177f89ecfbd5",
      "networkId": 0,
      "chainId": 0
    },
    {
      "hash": "0x144a08fccb772d5439871768a4e636a5341752d1fb2065afc73a71ece5ea5ca2",
      "blockHash": "0x8d6c6679c9cad51955562ee466257ef75654cb51455562ba3acd1ac92b3080ad",
      "blockNumber": 99949,
      "transactionIndex": 18,
      "confirmations": null,
      "from": "0xe6A7a1d47ff21B6321162AEA7C6CB457D5476Bca",
      "gasPrice": {
        "_hex": "0xdcbea1fd0"
      },
      "gasLimit": {
        "_hex": "0x55f0"
      },
      "to": "0x3aAE6435730f753ecF6214996ae2a55A1503F97c",
      "value": {
        "_hex": "0x2076439401cb05ec"
      },
      "nonce": 3120,
      "data": "0x",
      "r": "0x5c6044a271d2dc902b3a21c9c571971033ab03bb05fa8cb30f90a6baf34677ec",
      "s": "0x7ed74f29ba7e8d724f264ff5913732a16a72e67286f25421582c54d2a04c754d",
      "v": 28,
      "creates": null,
      "raw": "0xf86e820c30850dcbea1fd08255f0943aae6435730f753ecf6214996ae2a55a1503f97c882076439401cb05ec801ca05c6044a271d2dc902b3a21c9c571971033ab03bb05fa8cb30f90a6baf34677eca07ed74f29ba7e8d724f264ff5913732a16a72e67286f25421582c54d2a04c754d",
      "networkId": 0,
      "chainId": 0
    },
    {
      "hash": "0xb77679bc36936c18291f664fb15f4d4b581e3c75d567e95704107f4f121fee9d",
      "blockHash": "0x8d6c6679c9cad51955562ee466257ef75654cb51455562ba3acd1ac92b3080ad",
      "blockNumber": 99949,
      "transactionIndex": 19,
      "confirmations": null,
      "from": "0xe6A7a1d47ff21B6321162AEA7C6CB457D5476Bca",
      "gasPrice": {
        "_hex": "0xdcbea1fd0"
      },
      "gasLimit": {
        "_hex": "0x55f0"
      },
      "to": "0x8C93d2F70d641AC1F4cCc3287E2A1376Ce3c7DCC",
      "value": {
        "_hex": "0x207643e6ad1b3d70"
      },
      "nonce": 3121,
      "data": "0x",
      "r": "0xd852949916c126108062cb610c436b8f0c60c4b7b14bdac49a5a9a4f24ad70d8",
      "s": "0x472abd66a34709bb6ec2f04a60084d3828f1bc89e79970ea53941dd67e19728c",
      "v": 28,
      "creates": null,
      "raw": "0xf86e820c31850dcbea1fd08255f0948c93d2f70d641ac1f4ccc3287e2a1376ce3c7dcc88207643e6ad1b3d70801ca0d852949916c126108062cb610c436b8f0c60c4b7b14bdac49a5a9a4f24ad70d8a0472abd66a34709bb6ec2f04a60084d3828f1bc89e79970ea53941dd67e19728c",
      "networkId": 0,
      "chainId": 0
    },
    {
      "hash": "0x712cdf332794cb66cd3f754732dd104d653c1e6c74fe7ef01f4a0d331b65b98c",
      "blockHash": "0x8d6c6679c9cad51955562ee466257ef75654cb51455562ba3acd1ac92b3080ad",
      "blockNumber": 99949,
      "transactionIndex": 20,
      "confirmations": null,
      "from": "0xe6A7a1d47ff21B6321162AEA7C6CB457D5476Bca",
      "gasPrice": {
        "_hex": "0xdcbea1fd0"
      },
      "gasLimit": {
        "_hex": "0x55f0"
      },
      "to": "0x423F06030a6c726925816243446a11Ed6d40Ab99",
      "value": {
        "_hex": "0x20bbf811e6f1a438"
      },
      "nonce": 3122,
      "data": "0x",
      "r": "0x6653bf0b834d7e5d5d898dbbe86ab886b2cc37263a869701b8a96a25d59818ad",
      "s": "0x5563c276e89fd7041401efc383c84444d296f91c84191e48bd1227cbb0e6b950",
      "v": 27,
      "creates": null,
      "raw": "0xf86e820c32850dcbea1fd08255f094423f06030a6c726925816243446a11ed6d40ab998820bbf811e6f1a438801ba06653bf0b834d7e5d5d898dbbe86ab886b2cc37263a869701b8a96a25d59818ada05563c276e89fd7041401efc383c84444d296f91c84191e48bd1227cbb0e6b950",
      "networkId": 0,
      "chainId": 0
    },
    {
      "hash": "0x36fdd4d77b0f06bc841e1c52677d75d58f820ed7835e1b5e7afaa41bb8bf3577",
      "blockHash": "0x8d6c6679c9cad51955562ee466257ef75654cb51455562ba3acd1ac92b3080ad",
      "blockNumber": 99949,
      "transactionIndex": 21,
      "confirmations": null,
      "from": "0xe6A7a1d47ff21B6321162AEA7C6CB457D5476Bca",
      "gasPrice": {
        "_hex": "0xdcbea1fd0"
      },
      "gasLimit": {
        "_hex": "0x55f0"
      },
      "to": "0xD042e5C2443591c48f1FBa5F6bAf8E7193f454B9",
      "value": {
        "_hex": "0x20c07732f7689a20"
      },
      "nonce": 3123,
      "data": "0x",
      "r": "0x8e6bfe447a5ca8174ec87968145ecf0e5364423d317e5d339a7c54630051fb32",
      "s": "0x1d454fc8c5e59cd34a3946c727caab38ffc05da89b11580f39d7c1dd3fcdcb8a",
      "v": 27,
      "creates": null,
      "raw": "0xf86e820c33850dcbea1fd08255f094d042e5c2443591c48f1fba5f6baf8e7193f454b98820c07732f7689a20801ba08e6bfe447a5ca8174ec87968145ecf0e5364423d317e5d339a7c54630051fb32a01d454fc8c5e59cd34a3946c727caab38ffc05da89b11580f39d7c1dd3fcdcb8a",
      "networkId": 0,
      "chainId": 0
    },
    {
      "hash": "0x58f1d78a4ddc76d36ef38a332569863a469c35cbacaa5e94d1a8aac67ac419d3",
      "blockHash": "0x8d6c6679c9cad51955562ee466257ef75654cb51455562ba3acd1ac92b3080ad",
      "blockNumber": 99949,
      "transactionIndex": 22,
      "confirmations": null,
      "from": "0xe6A7a1d47ff21B6321162AEA7C6CB457D5476Bca",
      "gasPrice": {
        "_hex": "0xdcbea1fd0"
      },
      "gasLimit": {
        "_hex": "0x55f0"
      },
      "to": "0x1049cb6C4223942Bb3Ed14e47b27c7478449deB2",
      "value": {
        "_hex": "0x20c5bb2e81b5f6e8"
      },
      "nonce": 3124,
      "data": "0x",
      "r": "0x989f8d85474e2c0fe25121164fd0aa53ad8534114f5854665beb7a7c814cb93e",
      "s": "0x22220b0e9597b300df0b0dcbe3c7fe34ffd0b7636749045e13637dc9011750ab",
      "v": 28,
      "creates": null,
      "raw": "0xf86e820c34850dcbea1fd08255f0941049cb6c4223942bb3ed14e47b27c7478449deb28820c5bb2e81b5f6e8801ca0989f8d85474e2c0fe25121164fd0aa53ad8534114f5854665beb7a7c814cb93ea022220b0e9597b300df0b0dcbe3c7fe34ffd0b7636749045e13637dc9011750ab",
      "networkId": 0,
      "chainId": 0
    },
    {
      "hash": "0x79e9dd5d2883acb3fbb6283d5691a5c356f825b7b4085babbd176e755d631c08",
      "blockHash": "0x8d6c6679c9cad51955562ee466257ef75654cb51455562ba3acd1ac92b3080ad",
      "blockNumber": 99949,
      "transactionIndex": 23,
      "confirmations": null,
      "from": "0xe6A7a1d47ff21B6321162AEA7C6CB457D5476Bca",
      "gasPrice": {
        "_hex": "0xdcbea1fd0"
      },
      "gasLimit": {
        "_hex": "0x55f0"
      },
      "to": "0x2bFff23a42423EFc4a0fDBA3661e2cc79Dd5CBc3",
      "value": {
        "_hex": "0x20ca0b92d1b8cb30"
      },
      "nonce": 3125,
      "data": "0x",
      "r": "0xbe835472ca97042bb5d219c5220acdc6707524329f76c0a5b4c63f98d0c3af92",
      "s": "0x7ae2870eb4c6dcae96a3ccfa10fba0cb8e66e3eb47e3f1a15b8f0a91084d4f4c",
      "v": 27,
      "creates": null,
      "raw": "0xf86e820c35850dcbea1fd08255f0942bfff23a42423efc4a0fdba3661e2cc79dd5cbc38820ca0b92d1b8cb30801ba0be835472ca97042bb5d219c5220acdc6707524329f76c0a5b4c63f98d0c3af92a07ae2870eb4c6dcae96a3ccfa10fba0cb8e66e3eb47e3f1a15b8f0a91084d4f4c",
      "networkId": 0,
      "chainId": 0
    },
    {
      "hash": "0x2e35412ae1e960a2176d7fb5267f11cdf742baef2244f1e5287f92a1168b8057",
      "blockHash": "0x8d6c6679c9cad51955562ee466257ef75654cb51455562ba3acd1ac92b3080ad",
      "blockNumber": 99949,
      "transactionIndex": 24,
      "confirmations": null,
      "from": "0xe6A7a1d47ff21B6321162AEA7C6CB457D5476Bca",
      "gasPrice": {
        "_hex": "0xdcbea1fd0"
      },
      "gasLimit": {
        "_hex": "0x55f0"
      },
      "to": "0x1918175e6aB029996E0BC00238AeA5f89f3F84ad",
      "value": {
        "_hex": "0x20d02527c1c3adf8"
      },
      "nonce": 3126,
      "data": "0x",
      "r": "0x76f2796ff36a4ebdaebc728a70b69fa3bfb677270aa5501d16f7b9f67bad1789",
      "s": "0x7a838362c9c111ac67b7cd2d0d743007a9ed647583a1e42ae13906c132cc7d49",
      "v": 28,
      "creates": null,
      "raw": "0xf86e820c36850dcbea1fd08255f0941918175e6ab029996e0bc00238aea5f89f3f84ad8820d02527c1c3adf8801ca076f2796ff36a4ebdaebc728a70b69fa3bfb677270aa5501d16f7b9f67bad1789a07a838362c9c111ac67b7cd2d0d743007a9ed647583a1e42ae13906c132cc7d49",
      "networkId": 0,
      "chainId": 0
    },
    {
      "hash": "0xe45040df3d11d6bbb64c35e5ae363212b954a3e3dd786d243051179fa6af057e",
      "blockHash": "0x8d6c6679c9cad51955562ee466257ef75654cb51455562ba3acd1ac92b3080ad",
      "blockNumber": 99949,
      "transactionIndex": 25,
      "confirmations": null,
      "from": "0xe6A7a1d47ff21B6321162AEA7C6CB457D5476Bca",
      "gasPrice": {
        "_hex": "0xdcbea1fd0"
      },
      "gasLimit": {
        "_hex": "0x55f0"
      },
      "to": "0x972ad000397A3c903299F1353d6d4b85eE4E4e2A",
      "value": {
        "_hex": "0x20dafbcdb2f7fa2c"
      },
      "nonce": 3127,
      "data": "0x",
      "r": "0x9887be11f277034e8e4faad4791a3fdfa913cb7facc833f2a0d62b2c097780e4",
      "s": "0x279a24cd459ce2b0c326f6d62ecde2a88576e356bd522ece1da5e90fc50f3a39",
      "v": 27,
      "creates": null,
      "raw": "0xf86e820c37850dcbea1fd08255f094972ad000397a3c903299f1353d6d4b85ee4e4e2a8820dafbcdb2f7fa2c801ba09887be11f277034e8e4faad4791a3fdfa913cb7facc833f2a0d62b2c097780e4a0279a24cd459ce2b0c326f6d62ecde2a88576e356bd522ece1da5e90fc50f3a39",
      "networkId": 0,
      "chainId": 0
    },
    {
      "hash": "0xb90a184da59da939bfe239bc6e0d950766bdb6fca691557ae682512517492ece",
      "blockHash": "0x8d6c6679c9cad51955562ee466257ef75654cb51455562ba3acd1ac92b3080ad",
      "blockNumber": 99949,
      "transactionIndex": 26,
      "confirmations": null,
      "from": "0xe6A7a1d47ff21B6321162AEA7C6CB457D5476Bca",
      "gasPrice": {
        "_hex": "0xdcbea1fd0"
      },
      "gasLimit": {
        "_hex": "0x55f0"
      },
      "to": "0xE7bD36a7CF4F1F8896378D41177BEf637075a1eD",
      "value": {
        "_hex": "0x2108f334700824d0"
      },
      "nonce": 3128,
      "data": "0x",
      "r": "0xc8f1b411a15796409c37c92273e547d6d0d0dad931623049976518630b08ad15",
      "s": "0x7d5af65d0abeacbd638710cc89ac61df1fe789508a02f4d0601abe3e018f66df",
      "v": 27,
      "creates": null,
      "raw": "0xf86e820c38850dcbea1fd08255f094e7bd36a7cf4f1f8896378d41177bef637075a1ed882108f334700824d0801ba0c8f1b411a15796409c37c92273e547d6d0d0dad931623049976518630b08ad15a07d5af65d0abeacbd638710cc89ac61df1fe789508a02f4d0601abe3e018f66df",
      "networkId": 0,
      "chainId": 0
    },
    {
      "hash": "0x350c982b7cd3c8285440ec4e60b033ee9732bbfa10fcdc34da49793a74a9c206",
      "blockHash": "0x8d6c6679c9cad51955562ee466257ef75654cb51455562ba3acd1ac92b3080ad",
      "blockNumber": 99949,
      "transactionIndex": 27,
      "confirmations": null,
      "from": "0xe6A7a1d47ff21B6321162AEA7C6CB457D5476Bca",
      "gasPrice": {
        "_hex": "0xdcbea1fd0"
      },
      "gasLimit": {
        "_hex": "0x55f0"
      },
      "to": "0x3831A4852c55a662aFcFB2a03e8DE8D5899AC4f2",
      "value": {
        "_hex": "0x2127f535c3240a2c"
      },
      "nonce": 3129,
      "data": "0x",
      "r": "0x71a3d9989aff23de833625dc86d5e702b433e08e5f17c806aaa781af4c427ffb",
      "s": "0x09d23f54fe7b4dd8d7a6fdf117887b95f46429c4a5a6f69226ee695c2e48004e",
      "v": 27,
      "creates": null,
      "raw": "0xf86e820c39850dcbea1fd08255f0943831a4852c55a662afcfb2a03e8de8d5899ac4f2882127f535c3240a2c801ba071a3d9989aff23de833625dc86d5e702b433e08e5f17c806aaa781af4c427ffba009d23f54fe7b4dd8d7a6fdf117887b95f46429c4a5a6f69226ee695c2e48004e",
      "networkId": 0,
      "chainId": 0
    },
    {
      "hash": "0xfd8f2d76b224789298d6baa8e32aa3f67a551294f65dd09d696e31cd079d10a3",
      "blockHash": "0x8d6c6679c9cad51955562ee466257ef75654cb51455562ba3acd1ac92b3080ad",
      "blockNumber": 99949,
      "transactionIndex": 28,
      "confirmations": null,
      "from": "0xe6A7a1d47ff21B6321162AEA7C6CB457D5476Bca",
      "gasPrice": {
        "_hex": "0xdaa41620c"
      },
      "gasLimit": {
        "_hex": "0x55f0"
      },
      "to": "0xcA8f4Fb1A28593337AeE456Acc76ABD4C3c83257",
      "value": {
        "_hex": "0x213891758442bcd0"
      },
      "nonce": 3130,
      "data": "0x",
      "r": "0x61780194548dd65c24df0d5f84c4655314c27925642f049aa4504db299b30bf5",
      "s": "0x18115f13c0c2bc2b284a4e0ac4c3795ce988d82fdeb064898b28ae89fedcffb6",
      "v": 27,
      "creates": null,
      "raw": "0xf86e820c3a850daa41620c8255f094ca8f4fb1a28593337aee456acc76abd4c3c8325788213891758442bcd0801ba061780194548dd65c24df0d5f84c4655314c27925642f049aa4504db299b30bf5a018115f13c0c2bc2b284a4e0ac4c3795ce988d82fdeb064898b28ae89fedcffb6",
      "networkId": 0,
      "chainId": 0
    },
    {
      "hash": "0x492b0de12fff0700f345a734579676bed5bf78eb43b76b872b2611024305d6b1",
      "blockHash": "0x8d6c6679c9cad51955562ee466257ef75654cb51455562ba3acd1ac92b3080ad",
      "blockNumber": 99949,
      "transactionIndex": 29,
      "confirmations": null,
      "from": "0xe6A7a1d47ff21B6321162AEA7C6CB457D5476Bca",
      "gasPrice": {
        "_hex": "0xdaa41620c"
      },
      "gasLimit": {
        "_hex": "0x55f0"
      },
      "to": "0x91d32201228cd1Dea4e21d71f7A9e0CeF5de4A39",
      "value": {
        "_hex": "0x213a8c8e98b31dc0"
      },
      "nonce": 3131,
      "data": "0x",
      "r": "0x8ea1f6307deb108a87b11f7af8825810a439b508c6557bbba6789e35ee3fb584",
      "s": "0x01c079bb0bd781a3302d2e4f65e431fb47baeba125b3dd26f5f7591ef862eb24",
      "v": 27,
      "creates": null,
      "raw": "0xf86e820c3b850daa41620c8255f09491d32201228cd1dea4e21d71f7a9e0cef5de4a3988213a8c8e98b31dc0801ba08ea1f6307deb108a87b11f7af8825810a439b508c6557bbba6789e35ee3fb584a001c079bb0bd781a3302d2e4f65e431fb47baeba125b3dd26f5f7591ef862eb24",
      "networkId": 0,
      "chainId": 0
    },
    {
      "hash": "0x6751adbc53a50b3d48b10c61c4100535d755c0cecb8ac256df4aa2e39ce354b6",
      "blockHash": "0x8d6c6679c9cad51955562ee466257ef75654cb51455562ba3acd1ac92b3080ad",
      "blockNumber": 99949,
      "transactionIndex": 30,
      "confirmations": null,
      "from": "0xe6A7a1d47ff21B6321162AEA7C6CB457D5476Bca",
      "gasPrice": {
        "_hex": "0xdaa41620c"
      },
      "gasLimit": {
        "_hex": "0x55f0"
      },
      "to": "0x7bC11D546783d2e3b7Bb2241D5f43Fb2611C3B98",
      "value": {
        "_hex": "0x21487c6c8fc529d4"
      },
      "nonce": 3132,
      "data": "0x",
      "r": "0xd2201c31bedaf4bfad1a704f169abe86a0835cbb9c6f279822c6d71da32a33f2",
      "s": "0x57ceb79b018f6240aaf1f2403814d0d2f97b80d45b3a45ef0c323d9d17c57661",
      "v": 28,
      "creates": null,
      "raw": "0xf86e820c3c850daa41620c8255f0947bc11d546783d2e3b7bb2241d5f43fb2611c3b988821487c6c8fc529d4801ca0d2201c31bedaf4bfad1a704f169abe86a0835cbb9c6f279822c6d71da32a33f2a057ceb79b018f6240aaf1f2403814d0d2f97b80d45b3a45ef0c323d9d17c57661",
      "networkId": 0,
      "chainId": 0
    }
  ]
}