{
  "hash": "0x629b746be9e140f597853b198736c27dee73685b22d27b6b34288911a6c86d62",
  "parentHash": "0x840db4b1dee41eeb9d3bc80dd8864d988ee04bf9714a103523530cd278c71049",
  "number": 70814,
  "timestamp": 1439325927,
  "nonce": "0xd04254c587c8c214",
  "difficulty": 2143634169712,
  "gasLimit": {
    "_hex": "0x2fefd8"
  },
  "gasUsed": {
    "_hex": "0xa410"
  },
  "miner": "0x9dD134D14D1e65F84B706d6F205cd5B1CD03a46b",
  "extraData": "0x",
  "transactions": [
    {
      "hash": "0xdb3e256ffb17fbc4f0d8a9d3cc8c29acc4a77db19ca2fd3a0204e2943ee97b52",
      "blockHash": "0x629b746be9e140f597853b198736c27dee73685b22d27b6b34288911a6c86d62",
      "blockNumber": 70814,
      "transactionIndex": 0,
      "confirmations": null,
      "from": "0xcE2b6a73E0155C41C002D0745D93D9BEd0fbD019",
      "gasPrice": {
        "_hex": "0xcc4fbebc4"
      },
      "gasLimit": {
        "_hex": "0x5208"
      },
      "to": "0x32Be343B94f860124dC4fEe278FDCBD38C102D88",
      "value": {
        "_hex": "0x1f3958f31ae844000"
      },
      "nonce": 2,
      "data": "0x",
      "r": "0x9fade42b6528194cd1e1ce18fbc7c39e1b2159f46b191fee0c9770a3cf900ffe",
      "s": "0x2bbd3c1026bd35d21709af30e03c5c41c317b728d5e28bc8f03a139ba5ed891e",
      "v": 27,
      "creates": null,
      "raw": "0xf86d02850cc4fbebc48252089432be343b94f860124dc4fee278fdcbd38c102d888901f3958f31ae844000801ba09fade42b6528194cd1e1ce18fbc7c39e1b2159f46b191fee0c9770a3cf900ffea02bbd3c1026bd35d21709af30e03c5c41c317b728d5e28bc8f03a139ba5ed891e",
      "networkId": 0,
      "chainId": 0
    },
    {
      "hash": "0xdf1b0905c0685b4516ecbea58f4f62162dd1c2bd496c5703a941d7fd77901d30",
      "blockHash": "0x629b746be9e140f597853b198736c27dee73685b22d27b6b34288911a6c86d62",
      "blockNumber": 70814,
      "transactionIndex": 1,
      "confirmations": null,
      "from": "0xeEdDfD6c3b6e7c8326E43E78D48DEeE628a7e2C9",
      "gasPrice": {
        "_hex": "0xcc4fbebc4"
      },
      "gasLimit": {
        "_hex": "0x5208"
      },
      "to": "0x32Be343B94f860124dC4fEe278FDCBD38C102D88",
      "value": {
        "_hex": "0x361e2e04dd8e100000"
      },
      "nonce": 1,
      "data": "0x",
      "r": "0xde8191419bae93102decbad782b7c5aa604518779372c9af61a8d7a7d246ea36",
      "s": "0x0e4164de2be4e2e08edfbf1cc33e331db265f0b79fe56fcfb60522123240c42d",
      "v": 28,
      "creates": null,
      "raw": "0xf86d01850cc4fbebc48252089432be343b94f860124dc4fee278fdcbd38c102d8889361e2e04dd8e100000801ca0de8191419bae93102decbad782b7c5aa604518779372c9af61a8d7a7d246ea36a00e4164de2be4e2e08edfbf1cc33e331db265f0b79fe56fcfb60522123240c42d",
      "networkId": 0,
      "chainId": 0
    }
  ]
}