{
  "hash": "0x0e5b79e0fdba0f35015ac5d156a39a582d8f17428dcfcf279a3c8d52e3d76a07",
  "parentHash": "0x2e34cf6bfd39d1b89af1f25e82b38228cd0a6a8d1da14a894e1ae6671e6d1f52",
  "number": 102040,
  "timestamp": 1439831882,
  "nonce": "0x485ef314d8f655e6",
  "difficulty": 3908964106234,
  "gasLimit": {
    "_hex": "0x2fefd8"
  },
  "gasUsed": {
    "_hex": "0xa410"
  },
  "miner": "0x2BDbD24CB76213eD8597485965F4303D94AF02CD",
  "extraData": "0x",
  "transactions": [
    {
      "hash": "0xec52e631f2c5786a0fb4e888e9028f53cf40b992a09d76ab92d65c995ec8824b",
      "blockHash": "0x0e5b79e0fdba0f35015ac5d156a39a582d8f17428dcfcf279a3c8d52e3d76a07",
      "blockNumber": 102040,
      "transactionIndex": 0,
      "confirmations": null,
      "from": "0x3D5292e9d2a2D31014717ff936A0F9375A5Cc8b7",
      "gasPrice": {
        "_hex": "0xdb4f70927"
      },
      "gasLimit": {
        "_hex": "0x15f90"
      },
      "to": "0x9f78552704fe7e52cC7C3853534aA2C3cf580D54",
      "value": {
        "_hex": "0x15af1d78b58c40000"
      },
      "nonce": 16,
      "data": "0x",
      "r": "0x0c7b525f86c6332d5524690112b24605b4f740cf7ac9bcd43f764cbf68ed1c97",
      "s": "0x36309cebae3f2c10c8eaf1c20625df8354eed52839d8cbb0346e24a33236e4de",
      "v": 28,
      "creates": null,
      "raw": "0xf86e10850db4f7092783015f90949f78552704fe7e52cc7c3853534aa2c3cf580d5489015af1d78b58c40000801ca00c7b525f86c6332d5524690112b24605b4f740cf7ac9bcd43f764cbf68ed1c97a036309cebae3f2c10c8eaf1c20625df8354eed52839d8cbb0346e24a33236e4de",
      "networkId": 0,
      "chainId": 0
    },
    {
      "hash": "0x7a52165770eb52ec5b7fdb65a8080235434350294d9281c847c441ae18e16bb6",
      "blockHash": "0x0e5b79e0fdba0f35015ac5d156a39a582d8f17428dcfcf279a3c8d52e3d76a07",
      "blockNumber": 102040,
      "transactionIndex": 1,
      "confirmations": null,
      "from": "0x120A270bbC009644e35F0bB6ab13f95b8199c4ad",
      "gasPrice": {
        "_hex": "0xd20b29021"
      },
      "gasLimit": {
        "_hex": "0x3d090"
      },
      "to": "0x60d85a32126130b225913C23dF4e5EF8b759fA09",
      "value": {
        "_hex": "0x25f273933db5700000"
      },
      "nonce": 691,
      "data": "0x",
      "r": "0x0544f703d1b151cbe5d22ae5140ca2aa9e64f6a57f17fb976e2f29dea8f90150",
      "s": "0x44e4b09bf9406e2e7b95a9985082f0ce900d7ae45cc6c4070cdc472dd9d09058",
      "v": 28,
      "creates": null,
      "raw": "0xf8708202b3850d20b290218303d0909460d85a32126130b225913c23df4e5ef8b759fa098925f273933db5700000801ca00544f703d1b151cbe5d22ae5140ca2aa9e64f6a57f17fb976e2f29dea8f90150a044e4b09bf9406e2e7b95a9985082f0ce900d7ae45cc6c4070cdc472dd9d09058",
      "networkId": 0,
      "chainId": 0
    }
  ]
}