{
  "hash": "0x98815e5f7b9ab2d68e6e53d53020080218484eaabc4c550c6e9d8dcae6d581e3",
  "parentHash": "0x89fdf6729c24385a20118661bc1204c89a337efe3dc1184b63e255016d00299b",
  "number": 68625,
  "timestamp": 1439290999,
  "nonce": "0xf57a11bbd18cee9d",
  "difficulty": 2021180025909,
  "gasLimit": {
    "_hex": "0x2fefd8"
  },
  "gasUsed": {
    "_hex": "0x5208"
  },
  "miner": "0x753562eEA69CD2D342A9c07EDD49b9753dc0F01e",
  "extraData": "0x",
  "transactions": [
    {
      "hash": "0xb53436ea4c6fbeffebdc34f18eb6a4322f9cd5e9ed4fd6869bfc6ab94d206e0b",
      "blockHash": "0x98815e5f7b9ab2d68e6e53d53020080218484eaabc4c550c6e9d8dcae6d581e3",
      "blockNumber": 68625,
      "transactionIndex": 0,
      "confirmations": null,
      "from": "0xD441bA6FFe06b0BD76330aC8F9c2946dA2dF88A2",
      "gasPrice": {
        "_hex": "0xd546285f4"
      },
      "gasLimit": {
        "_hex": "0x15f90"
      },
      "to": "0xa9ce244D143aC2759f899a638b69A1437052929f",
      "value": {
        "_hex": "0x16345785d8a0000"
      },
      "nonce": 1,
      "data": "0x",
      "r": "0xceb5fd9ec6065d8a4f885e874c0ae732c0f5175a3721ffece7b30e1c640c67eb",
      "s": "0x797fb605d9f33f68158587e4bcb356901c5767f6fc74c3b1cee5c6dd8fb9b309",
      "v": 27,
      "creates": null,
      "raw": "0xf86d01850d546285f483015f9094a9ce244d143ac2759f899a638b69a1437052929f88016345785d8a0000801ba0ceb5fd9ec6065d8a4f885e874c0ae732c0f5175a3721ffece7b30e1c640c67eba0797fb605d9f33f68158587e4bcb356901c5767f6fc74c3b1cee5c6dd8fb9b309",
      "networkId": 0,
      "chainId": 0
    }
  ]
}