{
  "hash": "0xde2bd83cb02a897e1626a0587236637ceafb2e935fed234e7c57b3deb1678697",
  "parentHash": "0x35861c9c880cd40664d521f5618d797305872a87a900cce3da5dab784409d081",
  "number": 97227,
  "timestamp": 1439752973,
  "nonce": "0xe51aa245e0d99b8c",
  "difficulty": 3759535356709,
  "gasLimit": {
    "_hex": "0x2fefd8"
  },
  "gasUsed": {
    "_hex": "0x3b048"
  },
  "miner": "0x7366ADF97960d404c38D975e1A8786bEb14B6507",
  "extraData": "0x476574682f76312e302e312f77696e646f77732f676f312e342e32",
  "transactions": [
    {
      "hash": "0x20367279d798c7c39aaaf5795ee048dd6d6736a42271aaba3d4719ecf98b444d",
      "blockHash": "0xde2bd83cb02a897e1626a0587236637ceafb2e935fed234e7c57b3deb1678697",
      "blockNumber": 97227,
      "transactionIndex": 0,
      "confirmations": null,
      "from": "0x2AeDF47e935C75601e9D779453F1a5F8c616bd6E",
      "gasPrice": {
        "_hex": "0xdca58482b"
      },
      "gasLimit": {
        "_hex": "0x5208"
      },
      "to": "0xFBb1b73C4f0BDa4f67dcA266ce6Ef42f520fBB98",
      "value": {
        "_hex": "0x1bc16d674ec80000"
      },
      "nonce": 4,
      "data": "0x",
      "r": "0x5cdf1342c35e1bc9bc195ba13c6fb7c485ff102d86f5f4c105747e5328d87616",
      "s": "0x104e57b14e1a68f7d9318d1e5609fcc089f1462ef5b717f36bfdc176a5f900a5",
      "v": 28,
      "creates": null,
      "raw": "0xf86c04850dca58482b82520894fbb1b73c4f0bda4f67dca266ce6ef42f520fbb98881bc16d674ec80000801ca05cdf1342c35e1bc9bc195ba13c6fb7c485ff102d86f5f4c105747e5328d87616a0104e57b14e1a68f7d9318d1e5609fcc089f1462ef5b717f36bfdc176a5f900a5",
      "networkId": 0,
      "chainId": 0
    },
    {
      "hash": "0xb476f75978522abcf8ccfcbc552497b430cdf40718e684f654df82812b57786c",
      "blockHash": "0xde2bd83cb02a897e1626a0587236637ceafb2e935fed234e7c57b3deb1678697",
      "blockNumber": 97227,
      "transactionIndex": 1,
      "confirmations": null,
      "from": "0x4BBc2EF7E5482B88E8c9C4bc05c5A3d3FF2B03c7",
      "gasPrice": {
        "_hex": "0xd7d40ace3"
      },
      "gasLimit": {
        "_hex": "0xf4240"
      },
      "to": null,
      "value": {
        "_hex": "0x0"
      },
      "nonce": 2,
      "data": "0x60606040526040516102b43803806102b48339016040526060805160600190602001505b5b33600060006101000a81548173ffffffffffffffffffffffffffffffffffffffff021916908302179055505b806001600050908051906020019082805482825590600052602060002090601f01602090048101928215609e579182015b82811115609d5782518260005055916020019190600101906081565b5b50905060c5919060a9565b8082111560c1576000818150600090555060010160a9565b5090565b50505b506101dc806100d86000396000f30060606040526000357c01000000000000000000000000000000000000000000000000000000009004806341c0e1b514610044578063cfae32171461005157610042565b005b61004f6004506100ca565b005b61005c60045061015e565b60405180806020018281038252838181518152602001915080519060200190808383829060006004602084601f0104600302600f01f150905090810190601f1680156100bc5780820380516001836020036101000a031916815260200191505b509250505060405180910390f35b600060009054906101000a900473ffffffffffffffffffffffffffffffffffffffff1673ffffffffffffffffffffffffffffffffffffffff163373ffffffffffffffffffffffffffffffffffffffff16141561015b57600060009054906101000a900473ffffffffffffffffffffffffffffffffffffffff1673ffffffffffffffffffffffffffffffffffffffff16ff5b5b565b60206040519081016040528060008152602001506001600050805480601f016020809104026020016040519081016040528092919081815260200182805480156101cd57820191906000526020600020905b8154815290600101906020018083116101b057829003601f168201915b505050505090506101d9565b905600000000000000000000000000000000000000000000000000000000000000200000000000000000000000000000000000000000000000000000000000000005486f6c6121000000000000000000000000000000000000000000000000000000",
      "r": "0xd842f38bc01d89502578cbf324938a7eaf8fcae5eebd0fab652df14404e9cb95",
      "s": "0x03b327e64286014fd9147cabb398110531924166bbaa6c23196cb4fab3af5ce6",
      "v": 28,
      "creates": "0x86Cfd9e993a39f516661c445C2aae627839aE03d",
      "raw": "0xf9036702850d7d40ace3830f42408080b9031460606040526040516102b43803806102b48339016040526060805160600190602001505b5b33600060006101000a81548173ffffffffffffffffffffffffffffffffffffffff021916908302179055505b806001600050908051906020019082805482825590600052602060002090601f01602090048101928215609e579182015b82811115609d5782518260005055916020019190600101906081565b5b50905060c5919060a9565b8082111560c1576000818150600090555060010160a9565b5090565b50505b506101dc806100d86000396000f30060606040526000357c01000000000000000000000000000000000000000000000000000000009004806341c0e1b514610044578063cfae32171461005157610042565b005b61004f6004506100ca565b005b61005c60045061015e565b60405180806020018281038252838181518152602001915080519060200190808383829060006004602084601f0104600302600f01f150905090810190601f1680156100bc5780820380516001836020036101000a031916815260200191505b509250505060405180910390f35b600060009054906101000a900473ffffffffffffffffffffffffffffffffffffffff1673ffffffffffffffffffffffffffffffffffffffff163373ffffffffffffffffffffffffffffffffffffffff16141561015b57600060009054906101000a900473ffffffffffffffffffffffffffffffffffffffff1673ffffffffffffffffffffffffffffffffffffffff16ff5b5b565b60206040519081016040528060008152602001506001600050805480601f016020809104026020016040519081016040528092919081815260200182805480156101cd57820191906000526020600020905b8154815290600101906020018083116101b057829003601f168201915b505050505090506101d9565b905600000000000000000000000000000000000000000000000000000000000000200000000000000000000000000000000000000000000000000000000000000005486f6c61210000000000000000000000000000000000000000000000000000001ca0d842f38bc01d89502578cbf324938a7eaf8fcae5eebd0fab652df14404e9cb95a003b327e64286014fd9147cabb398110531924166bbaa6c23196cb4fab3af5ce6",
      "networkId": 0,
      "chainId": 0
    }
  ]
}