{
  "hash": "0xe9658b3aee0b393e4a63e9965e7a3cbbddb1153bc77d01e4ff62fad085575ce5",
  "parentHash": "0x34b4560c960de23a1405c1ecb8accca4e0d8688638a7a39d664382660166be06",
  "number": 57871,
  "timestamp": 1439111134,
  "nonce": "0xa41589becc836c89",
  "difficulty": 1727646972960,
  "gasLimit": {
    "_hex": "0x2fefd8"
  },
  "gasUsed": {
    "_hex": "0x5208"
  },
  "miner": "0x0193d941b50d91BE6567c7eE1C0Fe7AF498b4137",
  "extraData": "0x4a5ace9e4e",
  "transactions": [
    {
      "hash": "0xfa3d882eb766e21fd924f3ee7205e37bd582cb1353c76d4114791fc014b4555d",
      "blockHash": "0xe9658b3aee0b393e4a63e9965e7a3cbbddb1153bc77d01e4ff62fad085575ce5",
      "blockNumber": 57871,
      "transactionIndex": 0,
      "confirmations": null,
      "from": "0xa04f2Ae02add14C12FaF65Cb259022d0830a8E26",
      "gasPrice": {
        "_hex": "0x10dc90d85e7"
      },
      "gasLimit": {
        "_hex": "0x15f90"
      },
      "to": "0x640534BBfb5dFDA363A3Daf5ceb9B9E00cbB740E",
      "value": {
        "_hex": "0x54b40b1f852bda00000"
      },
      "nonce": 3,
      "data": "0x",
      "r": "0x550c04ad6219abf7a9c7d22384fe7500b71de71c04f7e5a124732f04c757eb41",
      "s": "0x33194652f5e413a33a8713dcace6d2ba618ba62371f26089ed0436065c2767c6",
      "v": 27,
      "creates": null,
      "raw": "0xf8700386010dc90d85e783015f9094640534bbfb5dfda363a3daf5ceb9b9e00cbb740e8a054b40b1f852bda00000801ba0550c04ad6219abf7a9c7d22384fe7500b71de71c04f7e5a124732f04c757eb41a033194652f5e413a33a8713dcace6d2ba618ba62371f26089ed0436065c2767c6",
      "networkId": 0,
      "chainId": 0
    }
  ]
}