{
  "hash": "0x3a61f5b232606a15a9a7fe144c7e065e6e36560a5d2fff7e2ab6cb4e8b86bb68",
  "parentHash": "0x852bfc6c830cadd00ce59b33e1a11d6132f92ca22971436009784ba56a93caaf",
  "number": 57704,
  "timestamp": 1439108105,
  "nonce": "0x0b3769fd1e4cb36a",
  "difficulty": 1730214005181,
  "gasLimit": {
    "_hex": "0x2fefd8"
  },
  "gasUsed": {
    "_hex": "0xddfd"
  },
  "miner": "0xf927a40C8B7F6E07c5af7FA2155B4864a4112B13",
  "extraData": "0x476574682f76312e302e312f6c696e75782f676f312e342e32",
  "transactions": [
    {
      "hash": "0x0cdd6cddb5ebaffd120ab8b53b3c1cd1e31f441dfe4e7073b02df3344fb559a6",
      "blockHash": "0x3a61f5b232606a15a9a7fe144c7e065e6e36560a5d2fff7e2ab6cb4e8b86bb68",
      "blockNumber": 57704,
      "transactionIndex": 0,
      "confirmations": null,
      "from": "0xBeb3B1d443791e4B2207a9866800E02DAcF19c02",
      "gasPrice": {
        "_hex": "0xcd683c071"
      },
      "gasLimit": {
        "_hex": "0x7a120"
      },
      "to": "0x109C4f2CCc82C4d77Bde15F306707320294Aea3F",
      "value": {
        "_hex": "0xde0b6b3a7640000"
      },
      "nonce": 1,
      "data": "0x",
      "r": "0x5860c2e18fb9c5b029800082eb2c811802ca4dd8a8e8bbf18c629d435734a286",
      "s": "0x27ee1beb96aa86263b9335beb3acef6259bd0e45a148d7b0081d051116509a60",
      "v": 28,
      "creates": null,
      "raw": "0xf86d01850cd683c0718307a12094109c4f2ccc82c4d77bde15f306707320294aea3f880de0b6b3a7640000801ca05860c2e18fb9c5b029800082eb2c811802ca4dd8a8e8bbf18c629d435734a286a027ee1beb96aa86263b9335beb3acef6259bd0e45a148d7b0081d051116509a60",
      "networkId": 0,
      "chainId": 0
    }
  ]
}