{
  "hash": "0x0ce9211e1eeb50308067ef6726e53eaa5780f2a87a30b07d6b260606a29835ad",
  "parentHash": "0x3a7b0ee9492c24586af883d0a91ccd4a3f7297ae5f6341c807aed6e7fdf1c05c",
  "number": 94928,
  "timestamp": 1439716154,
  "nonce": "0x77d78a4cccdf588d",
  "difficulty": 3534450044873,
  "gasLimit": {
    "_hex": "0x2fefd8"
  },
  "gasUsed": {
    "_hex": "0xa410"
  },
  "miner": "0xe6A7a1d47ff21B6321162AEA7C6CB457D5476Bca",
  "extraData": "0x476574682f76312e302e312d38326566323666362f6c696e75782f676f312e34",
  "transactions": [
    {
      "hash": "0x959fed41229d512885a0540c0836d001c9559ddfe7d1c7550317767767c6ce70",
      "blockHash": "0x0ce9211e1eeb50308067ef6726e53eaa5780f2a87a30b07d6b260606a29835ad",
      "blockNumber": 94928,
      "transactionIndex": 0,
      "confirmations": null,
      "from": "0x4c74B6F32c9680aCB5Fe0e72B7Aa95C612540A04",
      "gasPrice": {
        "_hex": "0xd14019e49"
      },
      "gasLimit": {
        "_hex": "0x5208"
      },
      "to": "0x32Be343B94f860124dC4fEe278FDCBD38C102D88",
      "value": {
        "_hex": "0x317047d303a6d8000"
      },
      "nonce": 31,
      "data": "0x",
      "r": "0x18d7a0a670426216daf2add8b1314e8c7d9f2a4bc33c27d295fc5698c9a1b1b1",
      "s": "0x14de3ee78bfb0fc279551c029f5d8afca5a5e392a96204336194c452ae0ba631",
      "v": 28,
      "creates": null,
      "raw": "0xf86d1f850d14019e498252089432be343b94f860124dc4fee278fdcbd38c102d88890317047d303a6d8000801ca018d7a0a670426216daf2add8b1314e8c7d9f2a4bc33c27d295fc5698c9a1b1b1a014de3ee78bfb0fc279551c029f5d8afca5a5e392a96204336194c452ae0ba631",
      "networkId": 0,
      "chainId": 0
    },
    {
      "hash": "0x65bd6fcdf9ebb2c36e8cf7d6dbfbfa214fca81019ac1fc899cee3223dc39ae11",
      "blockHash": "0x0ce9211e1eeb50308067ef6726e53eaa5780f2a87a30b07d6b260606a29835ad",
      "blockNumber": 94928,
      "transactionIndex": 1,
      "confirmations": null,
      "from": "0x2910543Af39abA0Cd09dBb2D50200b3E800A63D2",
      "gasPrice": {
        "_hex": "0xccb3f7292"
      },
      "gasLimit": {
        "_hex": "0x5208"
      },
      "to": "0x51557e233CB4315E56892aF26f599AD1b563e54E",
      "value": {
        "_hex": "0x8ab55f8b52078000"
      },
      "nonce": 885,
      "data": "0x",
      "r": "0xb074861e9cdd90b14ffa32419531b09fb16dee63971331a9f83037f54860ff00",
      "s": "0x0ba6c48830669a563e53b1c02617c6f89eb9ec786e14c0db6e23a1fe8da830cf",
      "v": 28,
      "creates": null,
      "raw": "0xf86e820375850ccb3f72928252089451557e233cb4315e56892af26f599ad1b563e54e888ab55f8b52078000801ca0b074861e9cdd90b14ffa32419531b09fb16dee63971331a9f83037f54860ff00a00ba6c48830669a563e53b1c02617c6f89eb9ec786e14c0db6e23a1fe8da830cf",
      "networkId": 0,
      "chainId": 0
    }
  ]
}