{
  "hash": "0x24b978821bac5ae6e839556956f8f09e8cb0c181022be9ac36f76a385b64ec51",
  "parentHash": "0xc6e86f2cda5ccc3972d04f5575ea25efbb0344389559958a86abbd2a9e89c77a",
  "number": 79785,
  "timestamp": 1439475067,
  "nonce": "0xbb40b1b6918a8123",
  "difficulty": 2352953766623,
  "gasLimit": {
    "_hex": "0x2fefd8"
  },
  "gasUsed": {
    "_hex": "0x5208"
  },
  "miner": "0xe090Ffdced499691fA9379752a59F8A058c1eE4A",
  "extraData": "0x476574682f76312e302e312f6c696e75782f676f312e342e32",
  "transactions": [
    {
      "hash": "0xabfd6ac90d58651a7a3e15fc50cce2eb6ac1bf9106a5dbca323c57717a2c12ed",
      "blockHash": "0x24b978821bac5ae6e839556956f8f09e8cb0c181022be9ac36f76a385b64ec51",
      "blockNumber": 79785,
      "transactionIndex": 0,
      "confirmations": null,
      "from": "0x77ae86B52e88E569BBc84Dd0F70d5b8905F589c9",
      "gasPrice": {
        "_hex": "0xd6cc1b4f4"
      },
      "gasLimit": {
        "_hex": "0x15f90"
      },
      "to": "0x8eE1192c99eEaDB7a174a5Fdc09e8E7421d2b6cf",
      "value": {
        "_hex": "0x579a814e10a740000"
      },
      "nonce": 0,
      "data": "0x",
      "r": "0x0b32a3356156a9147a821d3afd87f6034bed5ddc8fc260ecfd1399dc2a83951c",
      "s": "0x3f65ea459a67cc05263ef0d8366ea1b4abbf9068b685c76c31d4bdb4f7013bac",
      "v": 27,
      "creates": null,
      "raw": "0xf86e80850d6cc1b4f483015f90948ee1192c99eeadb7a174a5fdc09e8e7421d2b6cf890579a814e10a740000801ba00b32a3356156a9147a821d3afd87f6034bed5ddc8fc260ecfd1399dc2a83951ca03f65ea459a67cc05263ef0d8366ea1b4abbf9068b685c76c31d4bdb4f7013bac",
      "networkId": 0,
      "chainId": 0
    }
  ]
}