{
  "hash": "0xfad8a84216844139e571a84e5eff3203f7ddf68bfc847f8e5d174e21ae28933f",
  "parentHash": "0x36815a17a238a2fbc8d69e95b79c66f862f3e6376613f670d196b348055dddbb",
  "number": 105076,
  "timestamp": 1439881284,
  "nonce": "0x415a5c7250093d89",
  "difficulty": 4299993957912,
  "gasLimit": {
    "_hex": "0x2fefd8"
  },
  "gasUsed": {
    "_hex": "0x5208"
  },
  "miner": "0xe6A7a1d47ff21B6321162AEA7C6CB457D5476Bca",
  "extraData": "0x476574682f76312e302e312d38326566323666362f6c696e75782f676f312e34",
  "transactions": [
    {
      "hash": "0xf37e2e0f8596d258f70d23d2510e1cb18a120e1b1df6b59d4961ecca2539d36c",
      "blockHash": "0xfad8a84216844139e571a84e5eff3203f7ddf68bfc847f8e5d174e21ae28933f",
      "blockNumber": 105076,
      "transactionIndex": 0,
      "confirmations": null,
      "from": "0xe2dc38c86274d7F8d96Ee09dcF2072a329e6eda3",
      "gasPrice": {
        "_hex": "0xd03590aaa"
      },
      "gasLimit": {
        "_hex": "0x5208"
      },
      "to": "0x32Be343B94f860124dC4fEe278FDCBD38C102D88",
      "value": {
        "_hex": "0x8ae68a85ff89a000"
      },
      "nonce": 3,
      "data": "0x",
      "r": "0x646881b273076fbaf01793aa6b53223ecb8b480314578e6e019d74230e3a37c9",
      "s": "0x1a668579814d7ed2d32d039dba5fdc791f16b8186810f349e2170edff3ebd2a1",
      "v": 28,
      "creates": null,
      "raw": "0xf86c03850d03590aaa8252089432be343b94f860124dc4fee278fdcbd38c102d88888ae68a85ff89a000801ca0646881b273076fbaf01793aa6b53223ecb8b480314578e6e019d74230e3a37c9a01a668579814d7ed2d32d039dba5fdc791f16b8186810f349e2170edff3ebd2a1",
      "networkId": 0,
      "chainId": 0
    }
  ]
}