{
  "hash": "0x86635a800d7c321e469e8c93d94fffe713320be3379b77d40a6bac76ef3cfe21",
  "parentHash": "0xb5d5581164808bc93cd10e915e77f5397e2dc543a049ba4a8e5eeb6387edee2f",
  "number": 101911,
  "timestamp": 1439829945,
  "nonce": "0x10ecb7e41c0683db",
  "difficulty": 3895686102687,
  "gasLimit": {
    "_hex": "0x2fefd8"
  },
  "gasUsed": {
    "_hex": "0x5208"
  },
  "miner": "0x790b8a3cE86E707ED0eD32bF89B3269692a23CC1",
  "extraData": "0xd783010001844765746887676f312e342e32856c696e7578",
  "transactions": [
    {
      "hash": "0xd0665acfc7ff5e2dc435d323532a7a3d1eb0d053cfb5cc98b6cb35c49898b004",
      "blockHash": "0x86635a800d7c321e469e8c93d94fffe713320be3379b77d40a6bac76ef3cfe21",
      "blockNumber": 101911,
      "transactionIndex": 0,
      "confirmations": null,
      "from": "0x645B979F8ce622236DB26feB803455d40C328615",
      "gasPrice": {
        "_hex": "0xd889ea945"
      },
      "gasLimit": {
        "_hex": "0x5208"
      },
      "to": "0x32Be343B94f860124dC4fEe278FDCBD38C102D88",
      "value": {
        "_hex": "0xd8d7109341d4f80000"
      },
      "nonce": 7,
      "data": "0x",
      "r": "0x8537dcc83f91a6b94c17d0c774bab3d0863a4cc8b79de409bb6b1cbbd5ec87ef",
      "s": "0x50ffcfb17f9edffbcf8b749e2cf265494903e61550c4f623345da14c89f91550",
      "v": 27,
      "creates": null,
      "raw": "0xf86d07850d889ea9458252089432be343b94f860124dc4fee278fdcbd38c102d8889d8d7109341d4f80000801ba08537dcc83f91a6b94c17d0c774bab3d0863a4cc8b79de409bb6b1cbbd5ec87efa050ffcfb17f9edffbcf8b749e2cf265494903e61550c4f623345da14c89f91550",
      "networkId": 0,
      "chainId": 0
    }
  ]
}