{
  "hash": "0x4ca8ef0a88dc2fbd4f3ef423136545471ee9406ca79c72e45c34573173fb5d0c",
  "parentHash": "0x0d8e33ebe4cfc65f1eea3c9f4469efac682cb54038dd05ea5744a75990bcc9dd",
  "number": 96742,
  "timestamp": 1439744964,
  "nonce": "0xd37ef5acd40f3c05",
  "difficulty": 3768943024811,
  "gasLimit": {
    "_hex": "0x2fefd8"
  },
  "gasUsed": {
    "_hex": "0x5208"
  },
  "miner": "0xe6A7a1d47ff21B6321162AEA7C6CB457D5476Bca",
  "extraData": "0x476574682f76312e302e312d38326566323666362f6c696e75782f676f312e34",
  "transactions": [
    {
      "hash": "0x06c88463cc06672841b5e95673d550104eb85b3f3742157eef2c4723615ced95",
      "blockHash": "0x4ca8ef0a88dc2fbd4f3ef423136545471ee9406ca79c72e45c34573173fb5d0c",
      "blockNumber": 96742,
      "transactionIndex": 0,
      "confirmations": null,
      "from": "0xc126573d87b0175a5295f1DD07c575CF8cFA15F2",
      "gasPrice": {
        "_hex": "0xba43b7400"
      },
      "gasLimit": {
        "_hex": "0x5208"
      },
      "to": "0xd28620AE1F1f6f863C67fF449dF11AD0aE2FEC25",
      "value": {
        "_hex": "0x4e0f592acead48000"
      },
      "nonce": 1,
      "data": "0x",
      "r": "0x495982ecb7a13f98ca700d837ecc7ba01450cf9c404a6f8be3e1c0f6d6adf750",
      "s": "0x3e6a62f2d90e1a70b5f7785883ee304d7d362ccd4207b2e1958c4d10f6c036dd",
      "v": 28,
      "creates": null,
      "raw": "0xf86d01850ba43b740082520894d28620ae1f1f6f863c67ff449df11ad0ae2fec258904e0f592acead48000801ca0495982ecb7a13f98ca700d837ecc7ba01450cf9c404a6f8be3e1c0f6d6adf750a03e6a62f2d90e1a70b5f7785883ee304d7d362ccd4207b2e1958c4d10f6c036dd",
      "networkId": 0,
      "chainId": 0
    }
  ]
}