{
  "hash": "0x49e9f836ca7b6bf97af658f825b695c60da9f4cd4b41cc653f2c0abaae74f3b2",
  "parentHash": "0x105e2bf210fa571b4fb63f192ec7497363d180a43d856fde2068dced9f34d3b3",
  "number": 113015,
  "timestamp": 1440016620,
  "nonce": "0xcfd04ab3b29c269a",
  "difficulty": 4477975846947,
  "gasLimit": {
    "_hex": "0x2fefd8"
  },
  "gasUsed": {
    "_hex": "0x5208"
  },
  "miner": "0xe6A7a1d47ff21B6321162AEA7C6CB457D5476Bca",
  "extraData": "0x476574682f76312e302e312d38326566323666362f6c696e75782f676f312e34",
  "transactions": [
    {
      "hash": "0xaafec653f7b61050ee67a9b927b373511ecc79cdb52fd2fd460deb314556398b",
      "blockHash": "0x49e9f836ca7b6bf97af658f825b695c60da9f4cd4b41cc653f2c0abaae74f3b2",
      "blockNumber": 113015,
      "transactionIndex": 0,
      "confirmations": null,
      "from": "0xaA35779Ef4dfBEd0B3D6F46F5f11cb86261B17A5",
      "gasPrice": {
        "_hex": "0xd7d40ace3"
      },
      "gasLimit": {
        "_hex": "0x61a8"
      },
      "to": "0x30beD8049947963394D93412326225E4e3123601",
      "value": {
        "_hex": "0x7b8326d884fa0000"
      },
      "nonce": 17,
      "data": "0x",
      "r": "0x2f707664d0ae37cca41f8c7875a3571a4ccd55849f37ae3631f4c2ded37d2b1c",
      "s": "0x5f947ec0b30e22ead6a5a3ea0683c13a062ee77aafa2070872eebbebb1167794",
      "v": 28,
      "creates": null,
      "raw": "0xf86c11850d7d40ace38261a89430bed8049947963394d93412326225e4e3123601887b8326d884fa0000801ca02f707664d0ae37cca41f8c7875a3571a4ccd55849f37ae3631f4c2ded37d2b1ca05f947ec0b30e22ead6a5a3ea0683c13a062ee77aafa2070872eebbebb1167794",
      "networkId": 0,
      "chainId": 0
    }
  ]
}