{
  "hash": "0xa2898822b676950000422aa546e84608ceb99c3cc8b22ee9b1a47c97e59363e7",
  "parentHash": "0xa2db6e8612a84a75d534e8a2b7b3238d69f8e6b1705dd56c32193a80a91bea68",
  "number": 100754,
  "timestamp": 1439811809,
  "nonce": "0xbc31ff15c7ca7ea7",
  "difficulty": 3845194334383,
  "gasLimit": {
    "_hex": "0x2fefd8"
  },
  "gasUsed": {
    "_hex": "0x5208"
  },
  "miner": "0xf927a40C8B7F6E07c5af7FA2155B4864a4112B13",
  "extraData": "0x",
  "transactions": [
    {
      "hash": "0xf379aaef54b6605284bebe55890c88ee20485ce43d9d66b76cabe22b36394034",
      "blockHash": "0xa2898822b676950000422aa546e84608ceb99c3cc8b22ee9b1a47c97e59363e7",
      "blockNumber": 100754,
      "transactionIndex": 0,
      "confirmations": null,
      "from": "0xFB343C76F676E893E8eA379b6Ce9eF32c26834bB",
      "gasPrice": {
        "_hex": "0xdfe7e2d15"
      },
      "gasLimit": {
        "_hex": "0x15f90"
      },
      "to": "0x5864A30B27CC67024cB9501068D11213Fe0aA7d5",
      "value": {
        "_hex": "0x10e9deaaf401e0000"
      },
      "nonce": 0,
      "data": "0x",
      "r": "0x4c7a2b9d4a9896f96f158707045cd6cef270e5d95921d40510d9e71fd4f893ed",
      "s": "0x0d4bdbf65c7f88a1737d115a5fe3f43d0eb37ff3d2f009573b1a1152c4d7ed57",
      "v": 28,
      "creates": null,
      "raw": "0xf86e80850dfe7e2d1583015f90945864a30b27cc67024cb9501068d11213fe0aa7d589010e9deaaf401e0000801ca04c7a2b9d4a9896f96f158707045cd6cef270e5d95921d40510d9e71fd4f893eda00d4bdbf65c7f88a1737d115a5fe3f43d0eb37ff3d2f009573b1a1152c4d7ed57",
      "networkId": 0,
      "chainId": 0
    }
  ]
}