{
  "hash": "0x713f59c38f32db2b4c7670354558c31e21b46c1115b6e3433333b13467b0c225",
  "parentHash": "0x15c54faa0fe929724348a2cf2f4b0122a8b102b18c2f9a6a79209d280e8c02c1",
  "number": 94703,
  "timestamp": 1439712717,
  "nonce": "0x7acefe2ee2e93454",
  "difficulty": 3484847825449,
  "gasLimit": {
    "_hex": "0x2fefd8"
  },
  "gasUsed": {
    "_hex": "0xf618"
  },
  "miner": "0xC603Ab5ef41fC61AA8b76bEddb09e3Cfcbb174BD",
  "extraData": "0x476574682f76312e302e312f77696e646f77732f676f312e342e32",
  "transactions": [
    {
      "hash": "0xde8982d949b12db565f6068eebc7e5a16264930e7bfe2c02275a630923abc922",
      "blockHash": "0x713f59c38f32db2b4c7670354558c31e21b46c1115b6e3433333b13467b0c225",
      "blockNumber": 94703,
      "transactionIndex": 0,
      "confirmations": null,
      "from": "0x1308A2e95c0160B90803ddCA9B9a5bb55E416d79",
      "gasPrice": {
        "_hex": "0xd0169d49b"
      },
      "gasLimit": {
        "_hex": "0x15f90"
      },
      "to": "0x7ceE0020B379cA6AB79a6821639aF44BB82aCfA8",
      "value": {
        "_hex": "0x1d139d5467b2d7000"
      },
      "nonce": 146,
      "data": "0x",
      "r": "0x870a5850e20fe1a7a4a989fa80332296463896c226bdcc718bb43bff230fe2e5",
      "s": "0x5cd9f32012f82428d808e368bac28a446898ccc76695c50679b3d2382d4850c4",
      "v": 28,
      "creates": null,
      "raw": "0xf86f8192850d0169d49b83015f90947cee0020b379ca6ab79a6821639af44bb82acfa88901d139d5467b2d7000801ca0870a5850e20fe1a7a4a989fa80332296463896c226bdcc718bb43bff230fe2e5a05cd9f32012f82428d808e368bac28a446898ccc76695c50679b3d2382d4850c4",
      "networkId": 0,
      "chainId": 0
    },
    {
      "hash": "0xcbf680fea2d2962d37a9f7ba6969bc0a9ddad7f6a3ee4275a806020aef723f94",
      "blockHash": "0x713f59c38f32db2b4c7670354558c31e21b46c1115b6e3433333b13467b0c225",
      "blockNumber": 94703,
      "transactionIndex": 1,
      "confirmations": null,
      "from": "0xaa71fa80d26F718E6A3c87e41D817b8D10944a63",
      "gasPrice": {
        "_hex": "0xcd5fab712"
      },
      "gasLimit": {
        "_hex": "0x5208"
      },
      "to": "0x32Be343B94f860124dC4fEe278FDCBD38C102D88",
      "value": {
        "_hex": "0x85d4e7f6f70f0000"
      },
      "nonce": 4,
      "data": "0x",
      "r": "0xf4a137eb380bcbb1da8ee7378f4c8ab3e491b6738c663fc5cb45724d8edff08d",
      "s": "0x08f1f183e1a7821fa69bad01d2076e0210144cdf22a23cf305a9c1e72166b310",
      "v": 28,
      "creates": null,
      "raw": "0xf86c04850cd5fab7128252089432be343b94f860124dc4fee278fdcbd38c102d888885d4e7f6f70f0000801ca0f4a137eb380bcbb1da8ee7378f4c8ab3e491b6738c663fc5cb45724d8edff08da008f1f183e1a7821fa69bad01d2076e0210144cdf22a23cf305a9c1e72166b310",
      "networkId": 0,
      "chainId": 0
    },
    {
      "hash": "0x324c57ac3a3e83631d6e969eb6cae2300845c61b5694ce53f54167f2b000a58f",
      "blockHash": "0x713f59c38f32db2b4c7670354558c31e21b46c1115b6e3433333b13467b0c225",
      "blockNumber": 94703,
      "transactionIndex": 2,
      "confirmations": null,
      "from": "0xe70361D11B44B2fBA997417D7AAa26eb69EBfef0",
      "gasPrice": {
        "_hex": "0xcd5fab712"
      },
      "gasLimit": {
        "_hex": "0x5208"
      },
      "to": "0x32Be343B94f860124dC4fEe278FDCBD38C102D88",
      "value": {
        "_hex": "0x162d00ce920d44000"
      },
      "nonce": 4,
      "data": "0x",
      "r": "0xc99a4c8b94a101e647e965007f09d4551f4280c0f5aacc5dbb38a57aaf1f5122",
      "s": "0x58402b192e40a6268ce0f03376b5831aebcc4122ae902013f350358546bbd39a",
      "v": 27,
      "creates": null,
      "raw": "0xf86d04850cd5fab7128252089432be343b94f860124dc4fee278fdcbd38c102d88890162d00ce920d44000801ba0c99a4c8b94a101e647e965007f09d4551f4280c0f5aacc5dbb38a57aaf1f5122a058402b192e40a6268ce0f03376b5831aebcc4122ae902013f350358546bbd39a",
      "networkId": 0,
      "chainId": 0
    }
  ]
}