{
  "hash": "0x89e0eb6217b78cfcdb0276059b5aad19adda633fddf71b4239d9b2556cb60d64",
  "parentHash": "0xa1bc51b406d2eac8c8415635dbf60734dd99b51eaf2077a74df105aeb32cfc86",
  "number": 57469,
  "timestamp": 1439103968,
  "nonce": "0x7bfb811cd4878623",
  "difficulty": 1739580881716,
  "gasLimit": {
    "_hex": "0x2fefd5"
  },
  "gasUsed": {
    "_hex": "0xfae0"
  },
  "miner": "0x01d9DA08cc6Fb97c0DE1B6F4C28910A0859Ed1A1",
  "extraData": "0x476574682f76312e302e312f6c696e75782f676f312e342e32",
  "transactions": [
    {
      "hash": "0x3ec52b298aa1a31aff9b569f076ca046179e87265b34006ecf7a9e27415a7fc3",
      "blockHash": "0x89e0eb6217b78cfcdb0276059b5aad19adda633fddf71b4239d9b2556cb60d64",
      "blockNumber": 57469,
      "transactionIndex": 0,
      "confirmations": null,
      "from": "0xA514D00EdD7108A6BE839a638DB2415418174196",
      "gasPrice": {
        "_hex": "0x110c8f7d8de"
      },
      "gasLimit": {
        "_hex": "0xc350"
      },
      "to": "0x2910543Af39abA0Cd09dBb2D50200b3E800A63D2",
      "value": {
        "_hex": "0x1aff23697ba0880000"
      },
      "nonce": 1,
      "data": "0x454e55314d354e5747",
      "r": "0xf90ae358ca8feead6b90f1033db7b68dcd6b111c4680f9732c6a8e3bdd886968",
      "s": "0xe4963c6773bf54732e6897af17f9f8c33ec060feed5f21f6ea9fb6c01f614a67",
      "v": 27,
      "creates": null,
      "raw": "0xf87701860110c8f7d8de82c350942910543af39aba0cd09dbb2d50200b3e800a63d2891aff23697ba088000089454e55314d354e57471ba0f90ae358ca8feead6b90f1033db7b68dcd6b111c4680f9732c6a8e3bdd886968a0e4963c6773bf54732e6897af17f9f8c33ec060feed5f21f6ea9fb6c01f614a67",
      "networkId": 0,
      "chainId": 0
    },
    {
      "hash": "0xd6c4150b233bcc537a061d380ec4869a7236cf403f2feab102ebd17a1214d25d",
      "blockHash": "0x89e0eb6217b78cfcdb0276059b5aad19adda633fddf71b4239d9b2556cb60d64",
      "blockNumber": 57469,
      "transactionIndex": 1,
      "confirmations": null,
      "from": "0x439dEe3F7679fF1030733F9340c096686b49390b",
      "gasPrice": {
        "_hex": "0xda9b75bd2"
      },
      "gasLimit": {
        "_hex": "0x55f0"
      },
      "to": "0x2910543Af39abA0Cd09dBb2D50200b3E800A63D2",
      "value": {
        "_hex": "0x35ef02d6cb3c220000"
      },
      "nonce": 1,
      "data": "0x454e58394338594e38",
      "r": "0x43c18a676b87064137eebd81e4737889d85ab4808bb7920c8b6e95efc0a09f83",
      "s": "0x7de1f84b6e736ca8708b29bb40c0a263ab1600bd2d446a8c2a94328488eac535",
      "v": 27,
      "creates": null,
      "raw": "0xf87601850da9b75bd28255f0942910543af39aba0cd09dbb2d50200b3e800a63d28935ef02d6cb3c22000089454e58394338594e381ba043c18a676b87064137eebd81e4737889d85ab4808bb7920c8b6e95efc0a09f83a07de1f84b6e736ca8708b29bb40c0a263ab1600bd2d446a8c2a94328488eac535",
      "networkId": 0,
      "chainId": 0
    },
    {
      "hash": "0x460902225ef2bef315a40a916b7ffb0a47840e8cd1ece7bef1443ce148237e44",
      "blockHash": "0x89e0eb6217b78cfcdb0276059b5aad19adda633fddf71b4239d9b2556cb60d64",
      "blockNumber": 57469,
      "transactionIndex": 2,
      "confirmations": null,
      "from": "0x71685764F4d080b317A51947290164605e5D1Ced",
      "gasPrice": {
        "_hex": "0xcffc5d6bd"
      },
      "gasLimit": {
        "_hex": "0x5208"
      },
      "to": "0x32Be343B94f860124dC4fEe278FDCBD38C102D88",
      "value": {
        "_hex": "0x55de28711f4a04000"
      },
      "nonce": 1,
      "data": "0x",
      "r": "0xc270026cc28fae67f9322c56fddae62efbf4621c836fe8ac4b078b00a82d10ff",
      "s": "0x4fc06b93275bc679a3edd88c886dd73a5b9440f045eb7a2a6531cebf1257cc09",
      "v": 27,
      "creates": null,
      "raw": "0xf86d01850cffc5d6bd8252089432be343b94f860124dc4fee278fdcbd38c102d8889055de28711f4a04000801ba0c270026cc28fae67f9322c56fddae62efbf4621c836fe8ac4b078b00a82d10ffa04fc06b93275bc679a3edd88c886dd73a5b9440f045eb7a2a6531cebf1257cc09",
      "networkId": 0,
      "chainId": 0
    }
  ]
}