{
  "hash": "0xace91e804d7a3d13867f716227a817c054f155c76d2b5546a1789347fd680dad",
  "parentHash": "0xd7d473334212c7a1cb3984ccf9a58384e21a1e2422c8489fc6221eefa6e32e86",
  "number": 100467,
  "timestamp": 1439806933,
  "nonce": "0x1b7e871dba6eabb2",
  "difficulty": 3828464562361,
  "gasLimit": {
    "_hex": "0x2fefd8"
  },
  "gasUsed": {
    "_hex": "0x5208"
  },
  "miner": "0xC978e305Aaa59952FAb39Ba288d6E9CB09B952E1",
  "extraData": "0x476574682f76312e302e312f77696e646f77732f676f312e342e32",
  "transactions": [
    {
      "hash": "0x9906bd9e5041e46a2cad43c197708b652dac86f945a9b2059fe2fb02a63ad51e",
      "blockHash": "0xace91e804d7a3d13867f716227a817c054f155c76d2b5546a1789347fd680dad",
      "blockNumber": 100467,
      "transactionIndex": 0,
      "confirmations": null,
      "from": "0x7884D470204862a0d1A21122F41ee77430396Ee5",
      "gasPrice": {
        "_hex": "0xce0cfc334"
      },
      "gasLimit": {
        "_hex": "0x15f90"
      },
      "to": "0xF28e1379eA3644B1600fc408f75a4627F974B83D",
      "value": {
        "_hex": "0x186cc6acd4b0000"
      },
      "nonce": 55,
      "data": "0x",
      "r": "0xba2b0b0e57b06bb95f24252e169984476c405e7c411dd36c21b14d2145b42bf1",
      "s": "0x6628fbcf0c7796bbc552faaf53a90ea48313e2957c3693045937725cf3480e0e",
      "v": 28,
      "creates": null,
      "raw": "0xf86d37850ce0cfc33483015f9094f28e1379ea3644b1600fc408f75a4627f974b83d880186cc6acd4b0000801ca0ba2b0b0e57b06bb95f24252e169984476c405e7c411dd36c21b14d2145b42bf1a06628fbcf0c7796bbc552faaf53a90ea48313e2957c3693045937725cf3480e0e",
      "networkId": 0,
      "chainId": 0
    }
  ]
}