{
  "hash": "0x304db08f6429514a10f52398838370bd382016e869440951d582b5a82d59bc35",
  "parentHash": "0xc33c31577e1a6c475a9af33ab69654147bca7510c3918379d4bd704ddb84e13a",
  "number": 97084,
  "timestamp": 1439750495,
  "nonce": "0x0596761a4bf288dc",
  "difficulty": 3757764151837,
  "gasLimit": {
    "_hex": "0x2fefd8"
  },
  "gasUsed": {
    "_hex": "0x5208"
  },
  "miner": "0xe6A7a1d47ff21B6321162AEA7C6CB457D5476Bca",
  "extraData": "0x476574682f76312e302e312d38326566323666362f6c696e75782f676f312e34",
  "transactions": [
    {
      "hash": "0xe80e221a8f81f38109ad7820bf0f98aed0ab0bc6d810c357d21e051f514db43a",
      "blockHash": "0x304db08f6429514a10f52398838370bd382016e869440951d582b5a82d59bc35",
      "blockNumber": 97084,
      "transactionIndex": 0,
      "confirmations": null,
      "from": "0x120A270bbC009644e35F0bB6ab13f95b8199c4ad",
      "gasPrice": {
        "_hex": "0xce244f07a"
      },
      "gasLimit": {
        "_hex": "0x3d090"
      },
      "to": "0x36B33F21Ba59c53E3502E52b8e0a7fD311215FFd",
      "value": {
        "_hex": "0x2541ce7bec5b935000"
      },
      "nonce": 635,
      "data": "0x",
      "r": "0x093ac80bdcc4180906bd1836c5b0f6707ac2011ac42f5ca970a8b50eeca18d0c",
      "s": "0x378c4a43dae7e83d1621d61da2605cd86f5f6f1ac91f26c682b68b9100748a7e",
      "v": 28,
      "creates": null,
      "raw": "0xf87082027b850ce244f07a8303d0909436b33f21ba59c53e3502e52b8e0a7fd311215ffd892541ce7bec5b935000801ca0093ac80bdcc4180906bd1836c5b0f6707ac2011ac42f5ca970a8b50eeca18d0ca0378c4a43dae7e83d1621d61da2605cd86f5f6f1ac91f26c682b68b9100748a7e",
      "networkId": 0,
      "chainId": 0
    }
  ]
}