{
  "hash": "0x14e29aabc5fc909acebec90ba35a5c842c2a270d545c16695d15aabd9a85d1ea",
  "parentHash": "0xb2a8f3f7f5a8407587d0f411761daae0e53f8054f2abf391e0a9a6d81bc6e27d",
  "number": 96224,
  "timestamp": 1439736942,
  "nonce": "0xcc9ef930b9d92e6e",
  "difficulty": 3663928868688,
  "gasLimit": {
    "_hex": "0x2fefd8"
  },
  "gasUsed": {
    "_hex": "0xa410"
  },
  "miner": "0xe6A7a1d47ff21B6321162AEA7C6CB457D5476Bca",
  "extraData": "0x476574682f76312e302e312d38326566323666362f6c696e75782f676f312e34",
  "transactions": [
    {
      "hash": "0x171aaea018a2ba91b204a20b2e7012f3b6cd8903bde91a1ea6a453bbf9971d75",
      "blockHash": "0x14e29aabc5fc909acebec90ba35a5c842c2a270d545c16695d15aabd9a85d1ea",
      "blockNumber": 96224,
      "transactionIndex": 0,
      "confirmations": null,
      "from": "0xA5fb3E4399E8F18643f969D0Ce65CC352fc252C6",
      "gasPrice": {
        "_hex": "0xce7d4e73b"
      },
      "gasLimit": {
        "_hex": "0x5208"
      },
      "to": "0x32Be343B94f860124dC4fEe278FDCBD38C102D88",
      "value": {
        "_hex": "0xad78a99b1938f8000"
      },
      "nonce": 10,
      "data": "0x",
      "r": "0x5261ea3e5e1b93971152ab461bc7435e103d3373b1dd64dfebee8289ac204065",
      "s": "0x420e13c5ecb39ac91ad697835de13792ba1367d2c725fe10fae984c17786f9ad",
      "v": 27,
      "creates": null,
      "raw": "0xf86d0a850ce7d4e73b8252089432be343b94f860124dc4fee278fdcbd38c102d88890ad78a99b1938f8000801ba05261ea3e5e1b93971152ab461bc7435e103d3373b1dd64dfebee8289ac204065a0420e13c5ecb39ac91ad697835de13792ba1367d2c725fe10fae984c17786f9ad",
      "networkId": 0,
      "chainId": 0
    },
    {
      "hash": "0xafe45137c6507cc8e4cb5114e08bbc935f09b26f995f3c15d6053101cacf6e22",
      "blockHash": "0x14e29aabc5fc909acebec90ba35a5c842c2a270d545c16695d15aabd9a85d1ea",
      "blockNumber": 96224,
      "transactionIndex": 1,
      "confirmations": null,
      "from": "0x99f77F998B20e0BCDcd9fc838641526Cf25918eF",
      "gasPrice": {
        "_hex": "0xccf74fd07"
      },
      "gasLimit": {
        "_hex": "0x5208"
      },
      "to": "0xa5D364A2d05C34Dd34e3163E76554626debAe686",
      "value": {
        "_hex": "0x6107b6afc19fed0000"
      },
      "nonce": 1,
      "data": "0x",
      "r": "0xbd5d7bf901f2a4ba77f166a261b54b0bb15bb5635e055337c5313a68c7807163",
      "s": "0x032a7b7a14e466d5c9e77d05b098083d60660318aec4cd2b8348ab57bbe2a9b2",
      "v": 28,
      "creates": null,
      "raw": "0xf86d01850ccf74fd0782520894a5d364a2d05c34dd34e3163e76554626debae686896107b6afc19fed0000801ca0bd5d7bf901f2a4ba77f166a261b54b0bb15bb5635e055337c5313a68c7807163a0032a7b7a14e466d5c9e77d05b098083d60660318aec4cd2b8348ab57bbe2a9b2",
      "networkId": 0,
      "chainId": 0
    }
  ]
}