{
  "hash": "0x13654e3d1a27d74162d048175c09b9ddc21071e26c041b72d56c42856c96d998",
  "parentHash": "0x4b505f3f7a527e54ebab4e47b37ffe1fb66f2fbfc713eb22f95d6d8fbbde899c",
  "number": 107188,
  "timestamp": 1439917776,
  "nonce": "0xc9d95327744b88d2",
  "difficulty": 4448386907348,
  "gasLimit": {
    "_hex": "0x2fefd8"
  },
  "gasUsed": {
    "_hex": "0x5208"
  },
  "miner": "0xf8E0CA3Ed80bd541b94BEdCf259e8CF2141A9523",
  "extraData": "0x476574682f76312e302e312f77696e646f77732f676f312e342e32",
  "transactions": [
    {
      "hash": "0x8d0673cb51ab10a9a9cf072e73ceb7767ab658f8c0af93ad0f3044f64e405016",
      "blockHash": "0x13654e3d1a27d74162d048175c09b9ddc21071e26c041b72d56c42856c96d998",
      "blockNumber": 107188,
      "transactionIndex": 0,
      "confirmations": null,
      "from": "0x120A270bbC009644e35F0bB6ab13f95b8199c4ad",
      "gasPrice": {
        "_hex": "0xdf56bd487"
      },
      "gasLimit": {
        "_hex": "0x3d090"
      },
      "to": "0x9eE2bcfE9d322cFD264b1aa913ff9e2Ca905C204",
      "value": {
        "_hex": "0x25e5c3995b584d0000"
      },
      "nonce": 802,
      "data": "0x",
      "r": "0xb9ec728ffff486b1c6556c05a6014b2caf98730aeefe291f17f4ccba56393676",
      "s": "0x0e6308635f064315661a208f0abce25bab3cf0d14f27213a8d6127ec659911bd",
      "v": 27,
      "creates": null,
      "raw": "0xf870820322850df56bd4878303d090949ee2bcfe9d322cfd264b1aa913ff9e2ca905c2048925e5c3995b584d0000801ba0b9ec728ffff486b1c6556c05a6014b2caf98730aeefe291f17f4ccba56393676a00e6308635f064315661a208f0abce25bab3cf0d14f27213a8d6127ec659911bd",
      "networkId": 0,
      "chainId": 0
    }
  ]
}