{
  "hash": "0xa74196224f93d25c6b5f69b59a930153c91dbed6e7cad32ba7134b7c8ab5a272",
  "parentHash": "0x3b635361c428bfbc18ca662e331ad0d383ae2e6bd15284898965ba9d72c12a22",
  "number": 121363,
  "timestamp": 1440176036,
  "nonce": "0x27957a75220e93bf",
  "difficulty": 4386996014193,
  "gasLimit": {
    "_hex": "0x2fefd8"
  },
  "gasUsed": {
    "_hex": "0xa410"
  },
  "miner": "0x852b794C7f024F062F5F22436739478B8EC2e14B",
  "extraData": "0x476574682f76312e302e322f6c696e75782f676f312e342e32",
  "transactions": [
    {
      "hash": "0x0bbdab8d9d7c02cb8782a878b0c272a8550a184c353ce0556264fb080b9e7e94",
      "blockHash": "0xa74196224f93d25c6b5f69b59a930153c91dbed6e7cad32ba7134b7c8ab5a272",
      "blockNumber": 121363,
      "transactionIndex": 0,
      "confirmations": null,
      "from": "0x32Be343B94f860124dC4fEe278FDCBD38C102D88",
      "gasPrice": {
        "_hex": "0xba43b7400"
      },
      "gasLimit": {
        "_hex": "0x5208"
      },
      "to": "0x76aF50b39dE841a048832863e39A3076041dBEf4",
      "value": {
        "_hex": "0x20e1ca6faf03480000"
      },
      "nonce": 1552,
      "data": "0x",
      "r": "0xb3cac5c9b24f3e83aa15e1e9ba7d1d0652659e96e5b2ae98b7cd9f9eb34ce914",
      "s": "0x41bf854f1493aa4fa95da22d13723daa5aea28b4d290a1e0a56813d99469f2f8",
      "v": 28,
      "creates": null,
      "raw": "0xf86f820610850ba43b74008252089476af50b39de841a048832863e39a3076041dbef48920e1ca6faf03480000801ca0b3cac5c9b24f3e83aa15e1e9ba7d1d0652659e96e5b2ae98b7cd9f9eb34ce914a041bf854f1493aa4fa95da22d13723daa5aea28b4d290a1e0a56813d99469f2f8",
      "networkId": 0,
      "chainId": 0
    },
    {
      "hash": "0xcb8d7f0c802d3ab10b82a91e5e58a056b68ebdfdbc01c5f0b8085b08152e69aa",
      "blockHash": "0xa74196224f93d25c6b5f69b59a930153c91dbed6e7cad32ba7134b7c8ab5a272",
      "blockNumber": 121363,
      "transactionIndex": 1,
      "confirmations": null,
      "from": "0xD0ee3F53eE0fCf3F9fbCcdd17BD1b6441DdC2074",
      "gasPrice": {
        "_hex": "0xba43b7400"
      },
      "gasLimit": {
        "_hex": "0x15f90"
      },
      "to": "0xF000d531B485D3fc32Ed670b26509813D8f47008",
      "value": {
        "_hex": "0x920f4ff0d6a4ac000"
      },
      "nonce": 6,
      "data": "0x",
      "r": "0xf9e691887a112ff161d2755653473911e0f66de77bd053a1adc3f2a8885588f1",
      "s": "0x03093418c9db51efc441edb4a56e4cffd8b8ad2e79585b3f72ae9fddf8ce2106",
      "v": 27,
      "creates": null,
      "raw": "0xf86e06850ba43b740083015f9094f000d531b485d3fc32ed670b26509813d8f47008890920f4ff0d6a4ac000801ba0f9e691887a112ff161d2755653473911e0f66de77bd053a1adc3f2a8885588f1a003093418c9db51efc441edb4a56e4cffd8b8ad2e79585b3f72ae9fddf8ce2106",
      "networkId": 0,
      "chainId": 0
    }
  ]
}