{
  "hash": "0xc6cb0080e925d2b58a3bcbf29d046be2506961b8aaa0687a0b75e9ba19ef23cb",
  "parentHash": "0xbff2cb4aa544bf4df262ccc0b388bc87edfbed1ea42f41d4790be9421860cd04",
  "number": 46321,
  "timestamp": 1438921225,
  "nonce": "0x9a9d1813d4659084",
  "difficulty": 1462530940286,
  "gasLimit": {
    "_hex": "0x5a35"
  },
  "gasUsed": {
    "_hex": "0x5208"
  },
  "miner": "0xf927a40C8B7F6E07c5af7FA2155B4864a4112B13",
  "extraData": "0x476574682f76312e302e312f6c696e75782f676f312e342e32",
  "transactions": [
    {
      "hash": "0xa1a176eab8a980ae3e09d7789188be7459bc04242ca119feb731f51fe2294c2b",
      "blockHash": "0xc6cb0080e925d2b58a3bcbf29d046be2506961b8aaa0687a0b75e9ba19ef23cb",
      "blockNumber": 46321,
      "transactionIndex": 0,
      "confirmations": null,
      "from": "0x3D0768da09CE77d25e2d998E6a7b6eD4b9116c2D",
      "gasPrice": {
        "_hex": "0x4967a82922"
      },
      "gasLimit": {
        "_hex": "0x5208"
      },
      "to": "0xc9D4035F4A9226D50f79b73Aafb5d874a1B6537e",
      "value": {
        "_hex": "0xb1a2bc2ec50000"
      },
      "nonce": 0,
      "data": "0x",
      "r": "0x3a47a0df991d5a8ad432df74de44630d3eb4da554b3df5f5d37188b98e312fd2",
      "s": "0x625b4af7a085662cb76c9872faf34807f9509eb4077be253afaa06e00e14f41c",
      "v": 28,
      "creates": null,
      "raw": "0xf86b80854967a8292282520894c9d4035f4a9226d50f79b73aafb5d874a1b6537e87b1a2bc2ec50000801ca03a47a0df991d5a8ad432df74de44630d3eb4da554b3df5f5d37188b98e312fd2a0625b4af7a085662cb76c9872faf34807f9509eb4077be253afaa06e00e14f41c",
      "networkId": 0,
      "chainId": 0
    }
  ]
}