{
  "hash": "0xa60e77224968f8248cf0ab049c0067b1c46cd914ac61eb6febe460fd1a6b1c9a",
  "parentHash": "0xfd1edabf66d8d2289ab07b43543865c680d3b7ab6018e5e1ea4e7d5223e8c187",
  "number": 94406,
  "timestamp": 1439707848,
  "nonce": "0x424cbf3fa6207b3c",
  "difficulty": 3486673270979,
  "gasLimit": {
    "_hex": "0x2fefd8"
  },
  "gasUsed": {
    "_hex": "0xa410"
  },
  "miner": "0xe6A7a1d47ff21B6321162AEA7C6CB457D5476Bca",
  "extraData": "0x476574682f76312e302e312d38326566323666362f6c696e75782f676f312e34",
  "transactions": [
    {
      "hash": "0x1dbb0bb54949693955eef307c3673ba0dd08ef59251800da0a96a422f147ec3a",
      "blockHash": "0xa60e77224968f8248cf0ab049c0067b1c46cd914ac61eb6febe460fd1a6b1c9a",
      "blockNumber": 94406,
      "transactionIndex": 0,
      "confirmations": null,
      "from": "0x2910543Af39abA0Cd09dBb2D50200b3E800A63D2",
      "gasPrice": {
        "_hex": "0xdb57f87b3"
      },
      "gasLimit": {
        "_hex": "0x5208"
      },
      "to": "0xFD7c9117BbEB649d9b37B3D3C9917f7c12f526B3",
      "value": {
        "_hex": "0x2551932cf61355b500"
      },
      "nonce": 876,
      "data": "0x",
      "r": "0x11fe7fc0d79b941861dfe23dbf4b095edd6e4cbb04576c22e9999aa477cab5bc",
      "s": "0x6437650bbee19064b80e46e9473ed687f4f199f8294af8c57fedc52a3ded83aa",
      "v": 28,
      "creates": null,
      "raw": "0xf86f82036c850db57f87b382520894fd7c9117bbeb649d9b37b3d3c9917f7c12f526b3892551932cf61355b500801ca011fe7fc0d79b941861dfe23dbf4b095edd6e4cbb04576c22e9999aa477cab5bca06437650bbee19064b80e46e9473ed687f4f199f8294af8c57fedc52a3ded83aa",
      "networkId": 0,
      "chainId": 0
    },
    {
      "hash": "0xef6927d2760c6f0484c48ea77841d49084aff6f861f701ae5121f34d55234bc3",
      "blockHash": "0xa60e77224968f8248cf0ab049c0067b1c46cd914ac61eb6febe460fd1a6b1c9a",
      "blockNumber": 94406,
      "transactionIndex": 1,
      "confirmations": null,
      "from": "0x2910543Af39abA0Cd09dBb2D50200b3E800A63D2",
      "gasPrice": {
        "_hex": "0xdb57f87b3"
      },
      "gasLimit": {
        "_hex": "0x5208"
      },
      "to": "0x5a0f0935E8E5591B2f9f2d55f29C626B50292088",
      "value": {
        "_hex": "0x15af0bb53c545f8000"
      },
      "nonce": 877,
      "data": "0x",
      "r": "0xdf4d4e2ebd3f34333b654bfd4574adb2f9f0d3a967b0e644083138a3657d6687",
      "s": "0x39bc1d2a68533ae61a6cafe92bd0bf2f3cc83c0f1f4b5d6a2b314bd64889d975",
      "v": 28,
      "creates": null,
      "raw": "0xf86f82036d850db57f87b3825208945a0f0935e8e5591b2f9f2d55f29c626b502920888915af0bb53c545f8000801ca0df4d4e2ebd3f34333b654bfd4574adb2f9f0d3a967b0e644083138a3657d6687a039bc1d2a68533ae61a6cafe92bd0bf2f3cc83c0f1f4b5d6a2b314bd64889d975",
      "networkId": 0,
      "chainId": 0
    }
  ]
}