{
  "hash": "0x089980c36572cf31796889183f4b35c7c8c8b3187857a48c2464a5687199c06f",
  "parentHash": "0x26d91cc88f06547b884b56fe5eaf5512322fa081beb37232ceaa2115fc7f8b13",
  "number": 79585,
  "timestamp": 1439472095,
  "nonce": "0x468589254a5a5909",
  "difficulty": 2336979689505,
  "gasLimit": {
    "_hex": "0x2fefd8"
  },
  "gasUsed": {
    "_hex": "0x5208"
  },
  "miner": "0xe090Ffdced499691fA9379752a59F8A058c1eE4A",
  "extraData": "0x476574682f76312e302e312f6c696e75782f676f312e342e32",
  "transactions": [
    {
      "hash": "0xb13e8fd2a288216dca1cd5563b855f997253f049902acce5a831359225453427",
      "blockHash": "0x089980c36572cf31796889183f4b35c7c8c8b3187857a48c2464a5687199c06f",
      "blockNumber": 79585,
      "transactionIndex": 0,
      "confirmations": null,
      "from": "0xB111131B23148a685D28A018B3577910B86280FC",
      "gasPrice": {
        "_hex": "0xba43b7400"
      },
      "gasLimit": {
        "_hex": "0x5208"
      },
      "to": "0xC47Aaa860008be6f65B58c6C6E02a84e666EfE31",
      "value": {
        "_hex": "0xdb259cbc11238f0"
      },
      "nonce": 0,
      "data": "0x",
      "r": "0xb25c6336c36a5d9656dbb0fa591c3af130f30ca7d3360994d96990f72647f772",
      "s": "0x518769364270bdd6aeef8f8d0765de6df8901b0add3c3f5d5615a33d113a37df",
      "v": 27,
      "creates": null,
      "raw": "0xf86c80850ba43b740082520894c47aaa860008be6f65b58c6c6e02a84e666efe31880db259cbc11238f0801ba0b25c6336c36a5d9656dbb0fa591c3af130f30ca7d3360994d96990f72647f772a0518769364270bdd6aeef8f8d0765de6df8901b0add3c3f5d5615a33d113a37df",
      "networkId": 0,
      "chainId": 0
    }
  ]
}