{
  "hash": "0x9b525bc65a13c1f73bfdcf447cabc9f123cdcdfa6b39aee63da1db3027d2f1b7",
  "parentHash": "0x8b91e4950351219905e0912c0d84083502fc028e6f851ff93962476d2f3bedcb",
  "number": 49759,
  "timestamp": 1438978608,
  "nonce": "0x635fdb91f7c5c039",
  "difficulty": 1495139559509,
  "gasLimit": {
    "_hex": "0x3da50"
  },
  "gasUsed": {
    "_hex": "0x546c"
  },
  "miner": "0xab84940B570d6358ed6A9Dbf7e0bc8Ec8F5A6E89",
  "extraData": "0x322831652933",
  "transactions": [
    {
      "hash": "0x3c08dd40adf76a07e12509d7dcc175aabb4731b574cb25ff56986c77bb626efb",
      "blockHash": "0x9b525bc65a13c1f73bfdcf447cabc9f123cdcdfa6b39aee63da1db3027d2f1b7",
      "blockNumber": 49759,
      "transactionIndex": 0,
      "confirmations": null,
      "from": "0x9a390162535E398877E416787D6239E0754E937C",
      "gasPrice": {
        "_hex": "0x116b71cc878"
      },
      "gasLimit": {
        "_hex": "0x15f90"
      },
      "to": "0x2910543Af39abA0Cd09dBb2D50200b3E800A63D2",
      "value": {
        "_hex": "0x363442e15b11550000"
      },
      "nonce": 0,
      "data": "0x454e42304a42363352",
      "r": "0x797ab2d385ffb0695815dc3cffd5878e3054a95bea7b02c0c4c1bae0359f8688",
      "s": "0x3f461f1282c8328d8eff83753523f31897c9bec1ff73a71fda7be71912dd579f",
      "v": 27,
      "creates": null,
      "raw": "0xf87880860116b71cc87883015f90942910543af39aba0cd09dbb2d50200b3e800a63d289363442e15b1155000089454e42304a423633521ba0797ab2d385ffb0695815dc3cffd5878e3054a95bea7b02c0c4c1bae0359f8688a03f461f1282c8328d8eff83753523f31897c9bec1ff73a71fda7be71912dd579f",
      "networkId": 0,
      "chainId": 0
    }
  ]
}