{
  "hash": "0x2b49b5979b8332999ba073ac32d01f4d8dadd3b74bba5e8c987e5f8f20c64c1f",
  "parentHash": "0xaf4b2a89ee689fe16ea997d72a6ed68348fc54a943693a59f89fcb898236ac2f",
  "number": 60278,
  "timestamp": 1439152748,
  "nonce": "0x0e1fcc334c9188ce",
  "difficulty": 1738149551891,
  "gasLimit": {
    "_hex": "0x2fefd8"
  },
  "gasUsed": {
    "_hex": "0x5208"
  },
  "miner": "0x47ff6576639c2e94762eA5443978D7681C0E78DC",
  "extraData": "0x476574682f76312e302e312f6c696e75782f676f312e342e32",
  "transactions": [
    {
      "hash": "0x0eb1bb43c55f77e2295250daefbe87c4f9e663620e2369717f3962b73d6059e4",
      "blockHash": "0x2b49b5979b8332999ba073ac32d01f4d8dadd3b74bba5e8c987e5f8f20c64c1f",
      "blockNumber": 60278,
      "transactionIndex": 0,
      "confirmations": null,
      "from": "0x2910543Af39abA0Cd09dBb2D50200b3E800A63D2",
      "gasPrice": {
        "_hex": "0xdc7ef8f26"
      },
      "gasLimit": {
        "_hex": "0x5208"
      },
      "to": "0x12Fb1BA6DA31A1E481B8896498F3E155Ed819DfA",
      "value": {
        "_hex": "0xdcef33a6f838000"
      },
      "nonce": 11,
      "data": "0x",
      "r": "0xfd636fc65e8cfb4451e3f8a21441b75861891e753eb92d72280bc130b568f0da",
      "s": "0x42a905d970f7735c0e30989693c3f8f2dffbf9c2b83fe96360c0f4ffd10931ee",
      "v": 28,
      "creates": null,
      "raw": "0xf86c0b850dc7ef8f268252089412fb1ba6da31a1e481b8896498f3e155ed819dfa880dcef33a6f838000801ca0fd636fc65e8cfb4451e3f8a21441b75861891e753eb92d72280bc130b568f0daa042a905d970f7735c0e30989693c3f8f2dffbf9c2b83fe96360c0f4ffd10931ee",
      "networkId": 0,
      "chainId": 0
    }
  ]
}