{
  "hash": "0x0d47b5c88f1842500472dc5af2fb4dd207da69e139875eb0ea556921e5bb12bc",
  "parentHash": "0x798bdcc8118ceba5b0410645a4cc059d149796ef3b0df9f7ed47ecfee1823a06",
  "number": 69136,
  "timestamp": 1439298707,
  "nonce": "0xa005d0083c9b6885",
  "difficulty": 2061925240195,
  "gasLimit": {
    "_hex": "0x2fefd8"
  },
  "gasUsed": {
    "_hex": "0x546c"
  },
  "miner": "0x47ff6576639c2e94762eA5443978D7681C0E78DC",
  "extraData": "0x476574682f76312e302e312f6c696e75782f676f312e342e32",
  "transactions": [
    {
      "hash": "0xb8bda0865586c0da390fa2320104cc2533b285d4a2ce460f4008d7352093811b",
      "blockHash": "0x0d47b5c88f1842500472dc5af2fb4dd207da69e139875eb0ea556921e5bb12bc",
      "blockNumber": 69136,
      "transactionIndex": 0,
      "confirmations": null,
      "from": "0x271e8fC01E1C9E1621fD3d108e348450b2498541",
      "gasPrice": {
        "_hex": "0xd7d40ace3"
      },
      "gasLimit": {
        "_hex": "0x55f0"
      },
      "to": "0x2910543Af39abA0Cd09dBb2D50200b3E800A63D2",
      "value": {
        "_hex": "0x7ce66c50e2840000"
      },
      "nonce": 7,
      "data": "0x454e30334b52455730",
      "r": "0x94b6c12387cd07a55d154b1d91873f5f48ac67ab0716c0b76799d0979e7e6b72",
      "s": "0x3f68baa8ae3606046b456cf9e0ecf87fb04784af979d2b192f0ccf28f040a0dd",
      "v": 27,
      "creates": null,
      "raw": "0xf87507850d7d40ace38255f0942910543af39aba0cd09dbb2d50200b3e800a63d2887ce66c50e284000089454e30334b524557301ba094b6c12387cd07a55d154b1d91873f5f48ac67ab0716c0b76799d0979e7e6b72a03f68baa8ae3606046b456cf9e0ecf87fb04784af979d2b192f0ccf28f040a0dd",
      "networkId": 0,
      "chainId": 0
    }
  ]
}