{
  "hash": "0xf04eb62fa626ba8fac0e413e7f4e1131f46dfacd8fd0cd51422bef671cea2080",
  "parentHash": "0x6da824ce493cce303b653882e901f561ee77103f256e2937da7804c2b16ac6ef",
  "number": 109880,
  "timestamp": 1439964190,
  "nonce": "0xc88854291492f5a8",
  "difficulty": 4399445181826,
  "gasLimit": {
    "_hex": "0x2fefd8"
  },
  "gasUsed": {
    "_hex": "0xf618"
  },
  "miner": "0xD6e6b0E55C9b50F68269e40E31f8Ce7a8B43f9fC",
  "extraData": "0x476574682f76312e302e312f77696e646f77732f676f312e342e32",
  "transactions": [
    {
      "hash": "0x44b23947d6903982362d404d3117f2e43ad36794691b4a18d5263fbb3c1e49ed",
      "blockHash": "0xf04eb62fa626ba8fac0e413e7f4e1131f46dfacd8fd0cd51422bef671cea2080",
      "blockNumber": 109880,
      "transactionIndex": 0,
      "confirmations": null,
      "from": "0x985D744C50fdcB355d105EE00565A8b32BF0B08f",
      "gasPrice": {
        "_hex": "0xcf55ef987"
      },
      "gasLimit": {
        "_hex": "0x5208"
      },
      "to": "0x82193bAE5d72543f91E60451Ac3e582B03394B70",
      "value": {
        "_hex": "0x6a94d74f430000"
      },
      "nonce": 3,
      "data": "0x",
      "r": "0xa5172075ac4d0f975d8510a8f2513c956bd4463b4569832fcbee96002d7b0b77",
      "s": "0x21708fd163983f1b7667d9ae8ab9f140bd4d08b43ca324e2ab2e39aca3633467",
      "v": 28,
      "creates": null,
      "raw": "0xf86b03850cf55ef9878252089482193bae5d72543f91e60451ac3e582b03394b70876a94d74f430000801ca0a5172075ac4d0f975d8510a8f2513c956bd4463b4569832fcbee96002d7b0b77a021708fd163983f1b7667d9ae8ab9f140bd4d08b43ca324e2ab2e39aca3633467",
      "networkId": 0,
      "chainId": 0
    },
    {
      "hash": "0xcda40c81139a6b3982eb027757199e92fd240b462c8cf0f978089d4a63ff4553",
      "blockHash": "0xf04eb62fa626ba8fac0e413e7f4e1131f46dfacd8fd0cd51422bef671cea2080",
      "blockNumber": 109880,
      "transactionIndex": 1,
      "confirmations": null,
      "from": "0xa70a9a7040d542C632D8e0bE7c5513A8a5Bbc752",
      "gasPrice": {
        "_hex": "0xcd4f5d753"
      },
      "gasLimit": {
        "_hex": "0x5208"
      },
      "to": "0x32Be343B94f860124dC4fEe278FDCBD38C102D88",
      "value": {
        "_hex": "0x455f6a25565fe800"
      },
      "nonce": 280,
      "data": "0x",
      "r": "0xdba13b3b9c426608f2dc4fcbe0d3e348e018eca8a654fae73434e375a6d1f0a8",
      "s": "0x3f4a118ebf8873949307f4eeb14cc4d025c4e8843e824a2d177a5fdbf4915673",
      "v": 27,
      "creates": null,
      "raw": "0xf86e820118850cd4f5d7538252089432be343b94f860124dc4fee278fdcbd38c102d8888455f6a25565fe800801ba0dba13b3b9c426608f2dc4fcbe0d3e348e018eca8a654fae73434e375a6d1f0a8a03f4a118ebf8873949307f4eeb14cc4d025c4e8843e824a2d177a5fdbf4915673",
      "networkId": 0,
      "chainId": 0
    },
    {
      "hash": "0x8bff411c4517b38f6cba6580bf4dde05150525bbb2c279c9b1cec68226d6e8fa",
      "blockHash": "0xf04eb62fa626ba8fac0e413e7f4e1131f46dfacd8fd0cd51422bef671cea2080",
      "blockNumber": 109880,
      "transactionIndex": 2,
      "confirmations": null,
      "from": "0xB90a2809c2E22c4Ff9997A58Bd5B96fA2195D7Eb",
      "gasPrice": {
        "_hex": "0xcd4f5d753"
      },
      "gasLimit": {
        "_hex": "0x5208"
      },
      "to": "0x32Be343B94f860124dC4fEe278FDCBD38C102D88",
      "value": {
        "_hex": "0x3635c59128fef20000"
      },
      "nonce": 1,
      "data": "0x",
      "r": "0x49beabb463616e7fac1e981652c7e39189aeabf7afcf73095265417e01572207",
      "s": "0x790a84992f63f043c2e4e686252b08447bcb0aa0d590a7fa68bba24b895ae3bb",
      "v": 28,
      "creates": null,
      "raw": "0xf86d01850cd4f5d7538252089432be343b94f860124dc4fee278fdcbd38c102d88893635c59128fef20000801ca049beabb463616e7fac1e981652c7e39189aeabf7afcf73095265417e01572207a0790a84992f63f043c2e4e686252b08447bcb0aa0d590a7fa68bba24b895ae3bb",
      "networkId": 0,
      "chainId": 0
    }
  ]
}