{
  "hash": "0x25acc84bf6ea6f6b4628884388c9c83d4450816e2606da729dab7edb3c19b244",
  "parentHash": "0x9117e1283ad66052ea7f0c2cdf27fada708a3b54207e5ff790f7da1bca77729f",
  "number": 70662,
  "timestamp": 1439323529,
  "nonce": "0x2ad776dfd8f79d46",
  "difficulty": 2139490236705,
  "gasLimit": {
    "_hex": "0x2fefd8"
  },
  "gasUsed": {
    "_hex": "0x5208"
  },
  "miner": "0xB7268c7705A1866b2A78e882fdfDc8E2a4e1428E",
  "extraData": "0x476574682f76312e302e312f77696e646f77732f676f312e342e32",
  "transactions": [
    {
      "hash": "0x9e722d4750bbb082d1dc473d6d90da1f50bf3d6bee741819136800076fd07e23",
      "blockHash": "0x25acc84bf6ea6f6b4628884388c9c83d4450816e2606da729dab7edb3c19b244",
      "blockNumber": 70662,
      "transactionIndex": 0,
      "confirmations": null,
      "from": "0x2f6BCe4fc330B69C9B4c2694d57C63Ec7B18feC7",
      "gasPrice": {
        "_hex": "0x109949894c7"
      },
      "gasLimit": {
        "_hex": "0x7530"
      },
      "to": "0xa9f5E7bf6Cbf6fEc55B30850Eb492b47A376d050",
      "value": {
        "_hex": "0xb8bf8037a46340000"
      },
      "nonce": 1,
      "data": "0x",
      "r": "0x35374e76eb2eb078be13bb5b41084418c4611cc0771f0324b94a6b3e57646859",
      "s": "0x053a1557c3f9ae50869be4ffbbc284bfc2cddda62684d28d1e2c67b0fef6826a",
      "v": 27,
      "creates": null,
      "raw": "0xf86e01860109949894c782753094a9f5e7bf6cbf6fec55b30850eb492b47a376d050890b8bf8037a46340000801ba035374e76eb2eb078be13bb5b41084418c4611cc0771f0324b94a6b3e57646859a0053a1557c3f9ae50869be4ffbbc284bfc2cddda62684d28d1e2c67b0fef6826a",
      "networkId": 0,
      "chainId": 0
    }
  ]
}