{
  "hash": "0x4fd3d10d482b39835484d38d04ee821b8a8c35ddaf529e7d2876712c00d494e2",
  "parentHash": "0xbfe487066eb1dfbab108a77ff30ac6a8017505cc88ebd1858c7aeb553655f72e",
  "number": 90627,
  "timestamp": 1439643019,
  "nonce": "0x01c3e4cb8ab3158c",
  "difficulty": 3339902187569,
  "gasLimit": {
    "_hex": "0x2fefd8"
  },
  "gasUsed": {
    "_hex": "0x5208"
  },
  "miner": "0xe6A7a1d47ff21B6321162AEA7C6CB457D5476Bca",
  "extraData": "0x476574682f76312e302e312d38326566323666362f6c696e75782f676f312e34",
  "transactions": [
    {
      "hash": "0x38e20fa68cac3b517ef43d25bd43edcffb89641e9ba905c9d8c2515dd7dcde2f",
      "blockHash": "0x4fd3d10d482b39835484d38d04ee821b8a8c35ddaf529e7d2876712c00d494e2",
      "blockNumber": 90627,
      "transactionIndex": 0,
      "confirmations": null,
      "from": "0x8293b65bD915B9FF87F6aDAb479da2e5b6633fDB",
      "gasPrice": {
        "_hex": "0xdef8529f9"
      },
      "gasLimit": {
        "_hex": "0x15f90"
      },
      "to": "0x9f78552704fe7e52cC7C3853534aA2C3cf580D54",
      "value": {
        "_hex": "0x4563918244f40000"
      },
      "nonce": 7,
      "data": "0x",
      "r": "0x3db8a84763d9e947c3477eaf0991b725885d008be5dfd22242789aa6af5939ff",
      "s": "0x51432e0eb32a2a4256a78cbd31e978da43a0c088b7581b9b5fb6be531ae52181",
      "v": 28,
      "creates": null,
      "raw": "0xf86d07850def8529f983015f90949f78552704fe7e52cc7c3853534aa2c3cf580d54884563918244f40000801ca03db8a84763d9e947c3477eaf0991b725885d008be5dfd22242789aa6af5939ffa051432e0eb32a2a4256a78cbd31e978da43a0c088b7581b9b5fb6be531ae52181",
      "networkId": 0,
      "chainId": 0
    }
  ]
}