{
  "hash": "0x9609f030aaca39f65d4e32429ae27cb4b09c43b35809effae63d34d9517ec835",
  "parentHash": "0xd27d53a99f8ce534b43123361c533851c9e10e60072ffd2f7734ed5549a4c58d",
  "number": 95047,
  "timestamp": 1439718146,
  "nonce": "0xc30866cccefa5627",
  "difficulty": 3501761692443,
  "gasLimit": {
    "_hex": "0x2fefd8"
  },
  "gasUsed": {
    "_hex": "0xa410"
  },
  "miner": "0xeB1325C8D9d3ea8D74aC11F4B00F1B2367686319",
  "extraData": "0x",
  "transactions": [
    {
      "hash": "0xb570586f84129ddc5b807224bd234d152df25fd16642477aaabab6f71db9e36f",
      "blockHash": "0x9609f030aaca39f65d4e32429ae27cb4b09c43b35809effae63d34d9517ec835",
      "blockNumber": 95047,
      "transactionIndex": 0,
      "confirmations": null,
      "from": "0xa522de7EB6ae1250522A513133a93bd42849475C",
      "gasPrice": {
        "_hex": "0xdd6059c27"
      },
      "gasLimit": {
        "_hex": "0x15f90"
      },
      "to": "0x859217617481BD9b6E3e38f6aE9BB677F0D26154",
      "value": {
        "_hex": "0x6c6b935b8bbd400000"
      },
      "nonce": 10,
      "data": "0x",
      "r": "0xb6d9e151c86ab271992a2e78d772a03d19fd6987650cbf54102f9b8e80dd5291",
      "s": "0x3b1ca5b2615da0122d375f53a951552efc549e98962f85b3e32389acf9a0b03d",
      "v": 28,
      "creates": null,
      "raw": "0xf86e0a850dd6059c2783015f9094859217617481bd9b6e3e38f6ae9bb677f0d26154896c6b935b8bbd400000801ca0b6d9e151c86ab271992a2e78d772a03d19fd6987650cbf54102f9b8e80dd5291a03b1ca5b2615da0122d375f53a951552efc549e98962f85b3e32389acf9a0b03d",
      "networkId": 0,
      "chainId": 0
    },
    {
      "hash": "0xad52af46caa7b5796581370169cd90186f1d6334e19b9679ec33b61a4485d676",
      "blockHash": "0x9609f030aaca39f65d4e32429ae27cb4b09c43b35809effae63d34d9517ec835",
      "blockNumber": 95047,
      "transactionIndex": 1,
      "confirmations": null,
      "from": "0xF5EeDc192aB70b08D8354384aD94efD095849E00",
      "gasPrice": {
        "_hex": "0xdb686331f"
      },
      "gasLimit": {
        "_hex": "0x5208"
      },
      "to": "0x32Be343B94f860124dC4fEe278FDCBD38C102D88",
      "value": {
        "_hex": "0x1508908365c6c40000"
      },
      "nonce": 46,
      "data": "0x",
      "r": "0x4bbab0b7403b6d3895cc98c99186c294d99154605025a025cee4c4a4ef2e3cb7",
      "s": "0x1690cf710d15cc8fe469b340223ee36bdfb0749b6860339a87c37e29bb076987",
      "v": 27,
      "creates": null,
      "raw": "0xf86d2e850db686331f8252089432be343b94f860124dc4fee278fdcbd38c102d88891508908365c6c40000801ba04bbab0b7403b6d3895cc98c99186c294d99154605025a025cee4c4a4ef2e3cb7a01690cf710d15cc8fe469b340223ee36bdfb0749b6860339a87c37e29bb076987",
      "networkId": 0,
      "chainId": 0
    }
  ]
}