{
  "hash": "0xe0476ac9487a5c4f502e97d1195ac551f33b05dd1aa0b40f88a77130db954f0c",
  "parentHash": "0xe3f403313c39adbead50d5be502afb020c3615d0a20c7a815be2c5f67f0cf83c",
  "number": 66776,
  "timestamp": 1439260055,
  "nonce": "0x6150626dcec83be3",
  "difficulty": 1948930642020,
  "gasLimit": {
    "_hex": "0x2fefd8"
  },
  "gasUsed": {
    "_hex": "0x5208"
  },
  "miner": "0x30853f0562c79055Fbd88CFFC01A109b346752ba",
  "extraData": "0x476574682f76312e302e312f77696e646f77732f676f312e342e32",
  "transactions": [
    {
      "hash": "0x086c8c346621edf021879f97df62e8a97f3c3df7a8db3019cd16341da3d84382",
      "blockHash": "0xe0476ac9487a5c4f502e97d1195ac551f33b05dd1aa0b40f88a77130db954f0c",
      "blockNumber": 66776,
      "transactionIndex": 0,
      "confirmations": null,
      "from": "0x431FDD9f2Fdc4A532867E0e0a85463436807d17C",
      "gasPrice": {
        "_hex": "0xde6db605f"
      },
      "gasLimit": {
        "_hex": "0x5208"
      },
      "to": "0x32Be343B94f860124dC4fEe278FDCBD38C102D88",
      "value": {
        "_hex": "0x455f1d213d0e1800"
      },
      "nonce": 1,
      "data": "0x",
      "r": "0x5fe61b13de17a6c01f8b8811987cad3b4c9a9c9744623a3f8218e63b539bc6cd",
      "s": "0x55a2d51dd5b3d3b5a66eaf11188f468ba06e9200916290389315b02f78ff62ff",
      "v": 28,
      "creates": null,
      "raw": "0xf86c01850de6db605f8252089432be343b94f860124dc4fee278fdcbd38c102d8888455f1d213d0e1800801ca05fe61b13de17a6c01f8b8811987cad3b4c9a9c9744623a3f8218e63b539bc6cda055a2d51dd5b3d3b5a66eaf11188f468ba06e9200916290389315b02f78ff62ff",
      "networkId": 0,
      "chainId": 0
    }
  ]
}