{
  "hash": "0x6d3d859f7aa4b95088a2d7e7b5e0e62e046877737d6a190ac7b889e86688ff0d",
  "parentHash": "0x78d95a8236a880842f367676e5103b04d639a8da92fc7995125685a1c6ae6f88",
  "number": 50006,
  "timestamp": 1438982687,
  "nonce": "0x487cd4f762756593",
  "difficulty": 1495825741663,
  "gasLimit": {
    "_hex": "0x4a6ce"
  },
  "gasUsed": {
    "_hex": "0x546c"
  },
  "miner": "0x88D74a59454F6cF3B51ef6b9136AFb6b9D405A88",
  "extraData": "0x476574682f76312e302e302d66633739643332642f6c696e75782f676f312e34",
  "transactions": [
    {
      "hash": "0xde883448ecf0904071953e0382ef401e9bc44b8a3ea3769f7f9e5c15c0b6d29d",
      "blockHash": "0x6d3d859f7aa4b95088a2d7e7b5e0e62e046877737d6a190ac7b889e86688ff0d",
      "blockNumber": 50006,
      "transactionIndex": 0,
      "confirmations": null,
      "from": "0xF0d5c31cCb6cBE30C7c9ea19f268D159851F8c9c",
      "gasPrice": {
        "_hex": "0x110c8f7d8de"
      },
      "gasLimit": {
        "_hex": "0xc350"
      },
      "to": "0x2910543Af39abA0Cd09dBb2D50200b3E800A63D2",
      "value": {
        "_hex": "0x1b1ad0dafa907370000"
      },
      "nonce": 1,
      "data": "0x454e34425732313538",
      "r": "0x6cd88c706e8b93e95bdb7b94a8ad6922a1e65a848fc5dc9fa72d5d1f2121ce96",
      "s": "0x3655bd815433d66f1ee69186e55a253ea6e70eb1661812d8e52d94727126f67d",
      "v": 28,
      "creates": null,
      "raw": "0xf87801860110c8f7d8de82c350942910543af39aba0cd09dbb2d50200b3e800a63d28a01b1ad0dafa90737000089454e344257323135381ca06cd88c706e8b93e95bdb7b94a8ad6922a1e65a848fc5dc9fa72d5d1f2121ce96a03655bd815433d66f1ee69186e55a253ea6e70eb1661812d8e52d94727126f67d",
      "networkId": 0,
      "chainId": 0
    }
  ]
}