{
  "hash": "0x35f333c38c4f84e9a19a2ee376330d60f2019ef568fe35c9cacae516553bc66f",
  "parentHash": "0x773d8859f797d61d2d596bfecec49ca61385c7f2271b9d3f08ba642962e962ca",
  "number": 105901,
  "timestamp": 1439895304,
  "nonce": "0xa934fd63a5854a0b",
  "difficulty": 4455591409505,
  "gasLimit": {
    "_hex": "0x2fefd8"
  },
  "gasUsed": {
    "_hex": "0x5208"
  },
  "miner": "0xd10E6C4B44Ee5557dF0f11239Ca4BE5025791E8E",
  "extraData": "0x476574682f76312e302e312f6c696e75782f676f312e342e32",
  "transactions": [
    {
      "hash": "0x67cde99a855417932d9503da34bc6131f945e965cf4fc2ba892a75d2c49b8d63",
      "blockHash": "0x35f333c38c4f84e9a19a2ee376330d60f2019ef568fe35c9cacae516553bc66f",
      "blockNumber": 105901,
      "transactionIndex": 0,
      "confirmations": null,
      "from": "0xFc8B1B712E10a89E87176215AED8352b323B7265",
      "gasPrice": {
        "_hex": "0xcfc37009b"
      },
      "gasLimit": {
        "_hex": "0x5208"
      },
      "to": "0x32Be343B94f860124dC4fEe278FDCBD38C102D88",
      "value": {
        "_hex": "0x62c0b939ffb96c00"
      },
      "nonce": 0,
      "data": "0x",
      "r": "0x5f42bbbc6432fb13564093fa58ac4157dfeceb99d0e5f882c42af3832db26924",
      "s": "0x3c360b6ec7c58084b1bb99304d39297dc271ea5a9e4e58c14713aed95b9dec62",
      "v": 28,
      "creates": null,
      "raw": "0xf86c80850cfc37009b8252089432be343b94f860124dc4fee278fdcbd38c102d888862c0b939ffb96c00801ca05f42bbbc6432fb13564093fa58ac4157dfeceb99d0e5f882c42af3832db26924a03c360b6ec7c58084b1bb99304d39297dc271ea5a9e4e58c14713aed95b9dec62",
      "networkId": 0,
      "chainId": 0
    }
  ]
}