{
  "hash": "0xe6189cffe4d49fbe4985d78687909e2445f7a7414d7ec01225ae53bce04b80ac",
  "parentHash": "0x9d0648005f22920181013e13bc888ba1593c15921efc05f99260be664919bfa3",
  "number": 69505,
  "timestamp": 1439305212,
  "nonce": "0x9a53a077c9c3091a",
  "difficulty": 2060828032269,
  "gasLimit": {
    "_hex": "0x2fefd8"
  },
  "gasUsed": {
    "_hex": "0x546c"
  },
  "miner": "0x79d5794171E11dd5C2f0e26E1C187319db2FE6f7",
  "extraData": "0x",
  "transactions": [
    {
      "hash": "0x4547f461f875f7ffba66597b709fa6bf6cf81cdce9a0562ed0d9f65a8bde3ed8",
      "blockHash": "0xe6189cffe4d49fbe4985d78687909e2445f7a7414d7ec01225ae53bce04b80ac",
      "blockNumber": 69505,
      "transactionIndex": 0,
      "confirmations": null,
      "from": "0x4BbCbF38b3C90163A84b1cD2a93b58b2a3348d87",
      "gasPrice": {
        "_hex": "0x110c8f7d8de"
      },
      "gasLimit": {
        "_hex": "0xc350"
      },
      "to": "0x2910543Af39abA0Cd09dBb2D50200b3E800A63D2",
      "value": {
        "_hex": "0x7ce66c50e2840000"
      },
      "nonce": 4,
      "data": "0x454e47354a34375130",
      "r": "0x1db08512d7ab05409efb49cad0e86541d0e3d163a3e315355453d0206bc324a3",
      "s": "0xa835c4c1eed55de180eb3e079138ce80f6ebe0f759268526c9e3718de2224fcd",
      "v": 27,
      "creates": null,
      "raw": "0xf87604860110c8f7d8de82c350942910543af39aba0cd09dbb2d50200b3e800a63d2887ce66c50e284000089454e47354a343751301ba01db08512d7ab05409efb49cad0e86541d0e3d163a3e315355453d0206bc324a3a0a835c4c1eed55de180eb3e079138ce80f6ebe0f759268526c9e3718de2224fcd",
      "networkId": 0,
      "chainId": 0
    }
  ]
}