{
  "hash": "0x5975c2a459272d588e3aec56f8a9ed130c7e8c603b4fb7063900ca0f631e6555",
  "parentHash": "0x56b7ac13fb7de8aab2f3b9ab2ae5ab8a39d7b66aec13b79444e9ec526109ea42",
  "number": 73527,
  "timestamp": 1439370582,
  "nonce": "0x68752176524cd8b9",
  "difficulty": 2222872504974,
  "gasLimit": {
    "_hex": "0x2fefd8"
  },
  "gasUsed": {
    "_hex": "0xa97a"
  },
  "miner": "0xFE506162D1351DEcc23F20aE415a321661B4D6F3",
  "extraData": "0x476574682f4d696368656c736f6e4d6f726c65792f76312e302e312d37666266",
  "transactions": [
    {
      "hash": "0xb3363963060a129d79b8664eaf1f8314bcb5e1f2fad8609bf36f51cba8ceb2d5",
      "blockHash": "0x5975c2a459272d588e3aec56f8a9ed130c7e8c603b4fb7063900ca0f631e6555",
      "blockNumber": 73527,
      "transactionIndex": 0,
      "confirmations": null,
      "from": "0xf4B1114a02EFe852013277F28ed88734Fa81E54f",
      "gasPrice": {
        "_hex": "0xce6e01c4d"
      },
      "gasLimit": {
        "_hex": "0x15f90"
      },
      "to": "0xa1A111bc074c9cfa781F0C38e63bD51c91b8af00",
      "value": {
        "_hex": "0x3bd913e6c1df40000"
      },
      "nonce": 5,
      "data": "0x432ced0448484b4200000000000000000000000000000000000000000000000000000000",
      "r": "0x53cc49d1491b4ec46771fdba500ad0130ac03b52f8f77ce3afe9d4834c97f545",
      "s": "0x32df3bfef7459d5b54d928d8d9043fd4a49178fbce55532a7b81cac43fbe15a8",
      "v": 28,
      "creates": null,
      "raw": "0xf89205850ce6e01c4d83015f9094a1a111bc074c9cfa781f0c38e63bd51c91b8af008903bd913e6c1df40000a4432ced0448484b42000000000000000000000000000000000000000000000000000000001ca053cc49d1491b4ec46771fdba500ad0130ac03b52f8f77ce3afe9d4834c97f545a032df3bfef7459d5b54d928d8d9043fd4a49178fbce55532a7b81cac43fbe15a8",
      "networkId": 0,
      "chainId": 0
    }
  ]
}