{
  "hash": "0x42f5a8b209fc288ce318126a61dce75766e497255c8c87d3120d7af34987c6d1",
  "parentHash": "0xd5205f33c2a66e04c64bc644b101e0ae4c23d2641300a77192b3452b7b7e331d",
  "number": 109739,
  "timestamp": 1439961652,
  "nonce": "0xa6783fe70eef4b67",
  "difficulty": 4444863471888,
  "gasLimit": {
    "_hex": "0x2fefd5"
  },
  "gasUsed": {
    "_hex": "0x5208"
  },
  "miner": "0x580992B51e3925e23280EfB93d3047C82f17E038",
  "extraData": "0x476574682f76312e302e312f6c696e75782f676f312e342e32",
  "transactions": [
    {
      "hash": "0xa9f31680585eeaae894d45a7edc325780aa946ee0573c012a05521369faf360a",
      "blockHash": "0x42f5a8b209fc288ce318126a61dce75766e497255c8c87d3120d7af34987c6d1",
      "blockNumber": 109739,
      "transactionIndex": 0,
      "confirmations": null,
      "from": "0x2910543Af39abA0Cd09dBb2D50200b3E800A63D2",
      "gasPrice": {
        "_hex": "0xda8f7452e"
      },
      "gasLimit": {
        "_hex": "0x5208"
      },
      "to": "0xfbB5F5B2Dd4e470E131C6F275bEAE4fbE36cf104",
      "value": {
        "_hex": "0x192a1eba6896a76000"
      },
      "nonce": 1080,
      "data": "0x",
      "r": "0x32f09c1239e4e6ab223c3bb0a2099dc141c88afc4388ccbc3f1cf5d54aec29d3",
      "s": "0x39b83612b92a3f03a6e07de78cd9db9ed43f95677329cf895d476b8c5fd321aa",
      "v": 28,
      "creates": null,
      "raw": "0xf86f820438850da8f7452e82520894fbb5f5b2dd4e470e131c6f275beae4fbe36cf10489192a1eba6896a76000801ca032f09c1239e4e6ab223c3bb0a2099dc141c88afc4388ccbc3f1cf5d54aec29d3a039b83612b92a3f03a6e07de78cd9db9ed43f95677329cf895d476b8c5fd321aa",
      "networkId": 0,
      "chainId": 0
    }
  ]
}