{
  "hash": "0xcad14b85e1cfd32158f4e08df2af2b91e2aa3e367eed37eb398496b593baa1d4",
  "parentHash": "0x59969b2bfbe704a52f5fcac67c666fcfbac0f12d3bb3ccfb6fe1538f129fdf44",
  "number": 79531,
  "timestamp": 1439471199,
  "nonce": "0x0babee581d10f5a5",
  "difficulty": 2339278069727,
  "gasLimit": {
    "_hex": "0x2fefd8"
  },
  "gasUsed": {
    "_hex": "0x3d782"
  },
  "miner": "0x9746c7e1ef2bd21FF3997fa467593a89cb852BD0",
  "extraData": "0x476574682f76312e302e312f77696e646f77732f676f312e342e32",
  "transactions": [
    {
      "hash": "0x94e94e5ed85db922534817a05a4d46561d6f97cf2159410e03e22bc19adf5d66",
      "blockHash": "0xcad14b85e1cfd32158f4e08df2af2b91e2aa3e367eed37eb398496b593baa1d4",
      "blockNumber": 79531,
      "transactionIndex": 0,
      "confirmations": null,
      "from": "0x271e8fC01E1C9E1621fD3d108e348450b2498541",
      "gasPrice": {
        "_hex": "0x746a528800"
      },
      "gasLimit": {
        "_hex": "0x5208"
      },
      "to": "0x65B3d2B5Ae9509D36126cd6db6BF5950C5A6F2FE",
      "value": {
        "_hex": "0x16345785d8a0000"
      },
      "nonce": 11,
      "data": "0x",
      "r": "0x0eeb8c12fb653d9c6b92ff7d380e2da982a75db0a077c3aa11845c9147922e3a",
      "s": "0x4913d5b55f7829e21b37767ea27dff0cb32f6c45d1b1113018c526a727366e19",
      "v": 28,
      "creates": null,
      "raw": "0xf86c0b85746a5288008252089465b3d2b5ae9509d36126cd6db6bf5950c5a6f2fe88016345785d8a0000801ca00eeb8c12fb653d9c6b92ff7d380e2da982a75db0a077c3aa11845c9147922e3aa04913d5b55f7829e21b37767ea27dff0cb32f6c45d1b1113018c526a727366e19",
      "networkId": 0,
      "chainId": 0
    },
    {
      "hash": "0x16f6e8938da6baeca2df08ec86fef873b33eaff0dcd31b60bbd36080deac2d91",
      "blockHash": "0xcad14b85e1cfd32158f4e08df2af2b91e2aa3e367eed37eb398496b593baa1d4",
      "blockNumber": 79531,
      "transactionIndex": 1,
      "confirmations": null,
      "from": "0x869e88783E4c2E97d967A89E1aca4523eeAB3D7C",
      "gasPrice": {
        "_hex": "0xd1943ab43"
      },
      "gasLimit": {
        "_hex": "0x493e0"
      },
      "to": null,
      "value": {
        "_hex": "0x0"
      },
      "nonce": 0,
      "data": "0x606060405261031f806100136000396000f30060606040526000357c0100000000000000000000000000000000000000000000000000000000900480631338736f1461004f5780636198e33914610068578063b02c43d01461007b5761004d565b005b610066600480359060200180359060200150610119565b005b6100796004803590602001506101ff565b005b61008c6004803590602001506100c6565b604051808473ffffffffffffffffffffffffffffffffffffffff168152602001838152602001828152602001935050505060405180910390f35b60006000506020528060005260406000206000915090508060000160009054906101000a900473ffffffffffffffffffffffffffffffffffffffff16908060010160005054908060020160005054905083565b600060006000506000848152602001908152602001600020600050905060008160000160009054906101000a900473ffffffffffffffffffffffffffffffffffffffff1673ffffffffffffffffffffffffffffffffffffffff161415156101b2573373ffffffffffffffffffffffffffffffffffffffff16600034604051809050600060405180830381858888f19350505050506101fa565b338160000160006101000a81548173ffffffffffffffffffffffffffffffffffffffff0219169083021790555034816001016000508190555081430181600201600050819055505b505050565b60006000600050600083815260200190815260200160002060005090503373ffffffffffffffffffffffffffffffffffffffff168160000160009054906101000a900473ffffffffffffffffffffffffffffffffffffffff1673ffffffffffffffffffffffffffffffffffffffff1614151561027a5761031b565b438160020160005054111561028e5761031b565b8060000160009054906101000a900473ffffffffffffffffffffffffffffffffffffffff1673ffffffffffffffffffffffffffffffffffffffff1660008260010160005054604051809050600060405180830381858888f193505050505060008160000160006101000a81548173ffffffffffffffffffffffffffffffffffffffff021916908302179055505b505056",
      "r": "0xffd22e2fcf9b172787e997e376c1304e9ed6bb485531160cb38171a8d2f09acc",
      "s": "0x5073df29b85098fabdc1331f7d25475d5856fe8fd53139939b5319c127c9227d",
      "v": 28,
      "creates": "0xE7B3A5522a9E1Fbfc7Ccc77B8f0B56c341C76498",
      "raw": "0xf9038580850d1943ab43830493e08080b90332606060405261031f806100136000396000f30060606040526000357c0100000000000000000000000000000000000000000000000000000000900480631338736f1461004f5780636198e33914610068578063b02c43d01461007b5761004d565b005b610066600480359060200180359060200150610119565b005b6100796004803590602001506101ff565b005b61008c6004803590602001506100c6565b604051808473ffffffffffffffffffffffffffffffffffffffff168152602001838152602001828152602001935050505060405180910390f35b60006000506020528060005260406000206000915090508060000160009054906101000a900473ffffffffffffffffffffffffffffffffffffffff16908060010160005054908060020160005054905083565b600060006000506000848152602001908152602001600020600050905060008160000160009054906101000a900473ffffffffffffffffffffffffffffffffffffffff1673ffffffffffffffffffffffffffffffffffffffff161415156101b2573373ffffffffffffffffffffffffffffffffffffffff16600034604051809050600060405180830381858888f19350505050506101fa565b338160000160006101000a81548173ffffffffffffffffffffffffffffffffffffffff0219169083021790555034816001016000508190555081430181600201600050819055505b505050565b60006000600050600083815260200190815260200160002060005090503373ffffffffffffffffffffffffffffffffffffffff168160000160009054906101000a900473ffffffffffffffffffffffffffffffffffffffff1673ffffffffffffffffffffffffffffffffffffffff1614151561027a5761031b565b438160020160005054111561028e5761031b565b8060000160009054906101000a900473ffffffffffffffffffffffffffffffffffffffff1673ffffffffffffffffffffffffffffffffffffffff1660008260010160005054604051809050600060405180830381858888f193505050505060008160000160006101000a81548173ffffffffffffffffffffffffffffffffffffffff021916908302179055505b5050561ca0ffd22e2fcf9b172787e997e376c1304e9ed6bb485531160cb38171a8d2f09acca05073df29b85098fabdc1331f7d25475d5856fe8fd53139939b5319c127c9227d",
      "networkId": 0,
      "chainId": 0
    }
  ]
}