{
  "hash": "0x4fe47d080d04949d08aac51adaf6c49b8589b261cc18ceef6526d4e9646c5fc1",
  "parentHash": "0x9db769e53f7ed005166f51b6cd0f53f7f6d2bac5363322d311110fbcb1a283f0",
  "number": 65649,
  "timestamp": 1439240646,
  "nonce": "0x4e1a2b18b4f717a1",
  "difficulty": 1934968336921,
  "gasLimit": {
    "_hex": "0x2fefd8"
  },
  "gasUsed": {
    "_hex": "0x5208"
  },
  "miner": "0x88D74a59454F6cF3B51ef6b9136AFb6b9D405A88",
  "extraData": "0x476574682f76312e302e312d37666266393930632f6c696e75782f676f312e34",
  "transactions": [
    {
      "hash": "0x30a06d822683931345862be912d9db87d9219f3a404393102931a08a64c005d6",
      "blockHash": "0x4fe47d080d04949d08aac51adaf6c49b8589b261cc18ceef6526d4e9646c5fc1",
      "blockNumber": 65649,
      "transactionIndex": 0,
      "confirmations": null,
      "from": "0xEA3779D14A13F6C78566bCDE403591413a6239db",
      "gasPrice": {
        "_hex": "0xd3d37f23a"
      },
      "gasLimit": {
        "_hex": "0x15f90"
      },
      "to": "0xC624b0Cd3307f6CFFC473f5019FA380E6811ee58",
      "value": {
        "_hex": "0xde0b6b3a7640000"
      },
      "nonce": 0,
      "data": "0x",
      "r": "0xf29780554afccca29dc233a51bee94f54cf8035c88f6ab1c3fa13d8112c82859",
      "s": "0x36ffa4be8155b7cbcbb60962cc730706299875be18ccfb255e882a9d872f1b6f",
      "v": 27,
      "creates": null,
      "raw": "0xf86d80850d3d37f23a83015f9094c624b0cd3307f6cffc473f5019fa380e6811ee58880de0b6b3a7640000801ba0f29780554afccca29dc233a51bee94f54cf8035c88f6ab1c3fa13d8112c82859a036ffa4be8155b7cbcbb60962cc730706299875be18ccfb255e882a9d872f1b6f",
      "networkId": 0,
      "chainId": 0
    }
  ]
}