{
  "hash": "0x4ed1d48f402959cbbfcaba75e6da3ab90fbb238deeb9ad780686c131ef18a708",
  "parentHash": "0x9ba133d4e89f8824589edb06d464a57fcb4a3cf20990047e68db083ba24d2790",
  "number": 72364,
  "timestamp": 1439351574,
  "nonce": "0xa09e447f16c3c050",
  "difficulty": 2183376459865,
  "gasLimit": {
    "_hex": "0x2fefd8"
  },
  "gasUsed": {
    "_hex": "0x5208"
  },
  "miner": "0xe6A7a1d47ff21B6321162AEA7C6CB457D5476Bca",
  "extraData": "0x476574682f76312e302e312d38326566323666362f6c696e75782f676f312e34",
  "transactions": [
    {
      "hash": "0x3d1b26ca666e5dbcec5995c4990a9d95c753e717861b207ff0eaa651f8ff7e31",
      "blockHash": "0x4ed1d48f402959cbbfcaba75e6da3ab90fbb238deeb9ad780686c131ef18a708",
      "blockNumber": 72364,
      "transactionIndex": 0,
      "confirmations": null,
      "from": "0x2C89f5FDcA3D155409b638B98A742E55eb4652B7",
      "gasPrice": {
        "_hex": "0x9184e72a000"
      },
      "gasLimit": {
        "_hex": "0x15f90"
      },
      "to": "0x1308A2e95c0160B90803ddCA9B9a5bb55E416d79",
      "value": {
        "_hex": "0xde0b6b3a7640000"
      },
      "nonce": 9,
      "data": "0x",
      "r": "0x6942c9edfc9a8299e77f0d22128297ff6788e0ab0d6df87e97b05ffe6adaef00",
      "s": "0x4c5210f17943f7cd6e25e40ceaa9c5d152c4808637ab66aa000b1e0c3447628c",
      "v": 27,
      "creates": null,
      "raw": "0xf86e098609184e72a00083015f90941308a2e95c0160b90803ddca9b9a5bb55e416d79880de0b6b3a7640000801ba06942c9edfc9a8299e77f0d22128297ff6788e0ab0d6df87e97b05ffe6adaef00a04c5210f17943f7cd6e25e40ceaa9c5d152c4808637ab66aa000b1e0c3447628c",
      "networkId": 0,
      "chainId": 0
    }
  ]
}