{
  "hash": "0xb56237458c991a8a41242dd56ccbf24279a2d0b5ec6c1af405a76610313c1ec3",
  "parentHash": "0x241420a0458d1aa5ab39447545dfeaeea181689dfae3b8e31436adf6da0accf3",
  "number": 93774,
  "timestamp": 1439697474,
  "nonce": "0x24aab09e2585c2cc",
  "difficulty": 3429525250261,
  "gasLimit": {
    "_hex": "0x2fefd8"
  },
  "gasUsed": {
    "_hex": "0x520c"
  },
  "miner": "0xe6A7a1d47ff21B6321162AEA7C6CB457D5476Bca",
  "extraData": "0x476574682f76312e302e312d38326566323666362f6c696e75782f676f312e34",
  "transactions": [
    {
      "hash": "0x6ff7f23d30b52adbbd8b3ddc040a8fbb945b6d97ebeba5ed8e68083a47cdb0d9",
      "blockHash": "0xb56237458c991a8a41242dd56ccbf24279a2d0b5ec6c1af405a76610313c1ec3",
      "blockNumber": 93774,
      "transactionIndex": 0,
      "confirmations": null,
      "from": "0x8375eA550366a24550ec93283600485F4Ba8CFE5",
      "gasPrice": {
        "_hex": "0xe614c6d2e"
      },
      "gasLimit": {
        "_hex": "0x7530"
      },
      "to": "0xb9836ec1f42Bd48331bceaedb74a6Bcdc22832bD",
      "value": {
        "_hex": "0xaa87bee538000"
      },
      "nonce": 11,
      "data": "0x00",
      "r": "0xd4d52b5a08c30363c18917e082f22e28c8ca2894f6843c22b69d75b67a416e65",
      "s": "0xd6fd503b56368dc5d0d0a9de57398f745388d51d845fb1eab31f2d3fecc11976",
      "v": 28,
      "creates": null,
      "raw": "0xf86b0b850e614c6d2e82753094b9836ec1f42bd48331bceaedb74a6bcdc22832bd870aa87bee538000001ca0d4d52b5a08c30363c18917e082f22e28c8ca2894f6843c22b69d75b67a416e65a0d6fd503b56368dc5d0d0a9de57398f745388d51d845fb1eab31f2d3fecc11976",
      "networkId": 0,
      "chainId": 0
    }
  ]
}