{
  "hash": "0x53d341980c99c3335ad6fd1f16a27ecac34e94a1b5d0a3f1ceceb47c3caa0734",
  "parentHash": "0xd9117886ac9790c97c5baf2aa57aaf2d207a534bdef2981f1d0fc6b0287f89fa",
  "number": 121290,
  "timestamp": 1440174649,
  "nonce": "0xf8745291e756d563",
  "difficulty": 4414970148567,
  "gasLimit": {
    "_hex": "0x2fefd8"
  },
  "gasUsed": {
    "_hex": "0xa410"
  },
  "miner": "0x52bc44d5378309EE2abF1539BF71dE1b7d7bE3b5",
  "extraData": "0xd783010002844765746887676f312e342e32856c696e7578",
  "transactions": [
    {
      "hash": "0xf0ebabe2a47f021b357f230338a4db4d72b14db3ade1e5f07e0edc2f06db6e48",
      "blockHash": "0x53d341980c99c3335ad6fd1f16a27ecac34e94a1b5d0a3f1ceceb47c3caa0734",
      "blockNumber": 121290,
      "transactionIndex": 0,
      "confirmations": null,
      "from": "0x608f4b86321a68453f9adf6F06F7Fc3E621739ad",
      "gasPrice": {
        "_hex": "0xba43b7400"
      },
      "gasLimit": {
        "_hex": "0x5208"
      },
      "to": "0x32Be343B94f860124dC4fEe278FDCBD38C102D88",
      "value": {
        "_hex": "0x2b5a7ff93e14e000"
      },
      "nonce": 96,
      "data": "0x",
      "r": "0x7be4dceda5f4d7512dfa1fe4446b18187eb693d814d8cae2d9f53dc34793445c",
      "s": "0x1f86d8d9fff8eb934c5e8459eb50ddc1d70afb3a0f7ac906ba2c3eb0127e212e",
      "v": 28,
      "creates": null,
      "raw": "0xf86c60850ba43b74008252089432be343b94f860124dc4fee278fdcbd38c102d88882b5a7ff93e14e000801ca07be4dceda5f4d7512dfa1fe4446b18187eb693d814d8cae2d9f53dc34793445ca01f86d8d9fff8eb934c5e8459eb50ddc1d70afb3a0f7ac906ba2c3eb0127e212e",
      "networkId": 0,
      "chainId": 0
    },
    {
      "hash": "0x3f619dd9177be20465e744b3a26719feebd413b05c4d5c7a382572421ca45807",
      "blockHash": "0x53d341980c99c3335ad6fd1f16a27ecac34e94a1b5d0a3f1ceceb47c3caa0734",
      "blockNumber": 121290,
      "transactionIndex": 1,
      "confirmations": null,
      "from": "0xca6b1247E05188167CefaCf2Bf8425B68D52Bf64",
      "gasPrice": {
        "_hex": "0xba43b7400"
      },
      "gasLimit": {
        "_hex": "0x5208"
      },
      "to": "0xFBb1b73C4f0BDa4f67dcA266ce6Ef42f520fBB98",
      "value": {
        "_hex": "0xddcfbbb7a606000"
      },
      "nonce": 1,
      "data": "0x",
      "r": "0x3b7f2ad1f4c1f1a2ee1c2245cfa75a2d3f820a93bd9892cc0c8c70e443d11d56",
      "s": "0x463faa95030730f273bb1fb190d0e957b1498e91acf7789ecf0b53c2b23aa8cc",
      "v": 28,
      "creates": null,
      "raw": "0xf86c01850ba43b740082520894fbb1b73c4f0bda4f67dca266ce6ef42f520fbb98880ddcfbbb7a606000801ca03b7f2ad1f4c1f1a2ee1c2245cfa75a2d3f820a93bd9892cc0c8c70e443d11d56a0463faa95030730f273bb1fb190d0e957b1498e91acf7789ecf0b53c2b23aa8cc",
      "networkId": 0,
      "chainId": 0
    }
  ]
}