{
  "hash": "0xd1031abad25a4ca3dab8cb98724eb0efd5f2d8a9a4c5e2706cc3d26768013caf",
  "parentHash": "0xb8ab0578e8aefb52f3d44e84695b75ffae992bcb14118eeb20df55fa49d4b764",
  "number": 96600,
  "timestamp": 1439742813,
  "nonce": "0xbb45865c756074ff",
  "difficulty": 3717828082600,
  "gasLimit": {
    "_hex": "0x2fefd8"
  },
  "gasUsed": {
    "_hex": "0xa410"
  },
  "miner": "0xe6A7a1d47ff21B6321162AEA7C6CB457D5476Bca",
  "extraData": "0x476574682f76312e302e312d38326566323666362f6c696e75782f676f312e34",
  "transactions": [
    {
      "hash": "0x2186f9f7887f83b0672c4b0c8e18a54cb6d038c2da695a69aedf8559caab54ff",
      "blockHash": "0xd1031abad25a4ca3dab8cb98724eb0efd5f2d8a9a4c5e2706cc3d26768013caf",
      "blockNumber": 96600,
      "transactionIndex": 0,
      "confirmations": null,
      "from": "0xA10C59651885FeAaac91F871082a23BBbaBeDfCf",
      "gasPrice": {
        "_hex": "0x10bcee96592"
      },
      "gasLimit": {
        "_hex": "0x5208"
      },
      "to": "0x4c74B6F32c9680aCB5Fe0e72B7Aa95C612540A04",
      "value": {
        "_hex": "0x1a055690d9db80000"
      },
      "nonce": 34,
      "data": "0x",
      "r": "0xe9336a00a3a7457ed116b7d10ff4141197b0103ee41cf9ac188e5c8e7528ddde",
      "s": "0x5a505c2c2899795144ed6aaaaf961a7681a714e7568fe6fa8feb96a4f260fee8",
      "v": 27,
      "creates": null,
      "raw": "0xf86e2286010bcee96592825208944c74b6f32c9680acb5fe0e72b7aa95c612540a048901a055690d9db80000801ba0e9336a00a3a7457ed116b7d10ff4141197b0103ee41cf9ac188e5c8e7528dddea05a505c2c2899795144ed6aaaaf961a7681a714e7568fe6fa8feb96a4f260fee8",
      "networkId": 0,
      "chainId": 0
    },
    {
      "hash": "0x5cb5fe673185f7fcb4ff94ef9b5b4457dc0c0d2d7a9a79aebdcd4c02e53476d8",
      "blockHash": "0xd1031abad25a4ca3dab8cb98724eb0efd5f2d8a9a4c5e2706cc3d26768013caf",
      "blockNumber": 96600,
      "transactionIndex": 1,
      "confirmations": null,
      "from": "0x1BEBf48714786bfc3BBa36f875aCAfb4d78bC817",
      "gasPrice": {
        "_hex": "0xd7824d189"
      },
      "gasLimit": {
        "_hex": "0x15f90"
      },
      "to": "0xa40849B05E19dB7B487f912660f8143178FCE1bA",
      "value": {
        "_hex": "0x3e73362871420000"
      },
      "nonce": 0,
      "data": "0x",
      "r": "0xed903c4e9b5a09070589656c3dba49bdb78129667ee5a8dcc178be4b226dd8be",
      "s": "0x299f2069e4baf255ec61a655ffb9fdfa4a98878344214f72d4f8927715f257c3",
      "v": 27,
      "creates": null,
      "raw": "0xf86d80850d7824d18983015f9094a40849b05e19db7b487f912660f8143178fce1ba883e73362871420000801ba0ed903c4e9b5a09070589656c3dba49bdb78129667ee5a8dcc178be4b226dd8bea0299f2069e4baf255ec61a655ffb9fdfa4a98878344214f72d4f8927715f257c3",
      "networkId": 0,
      "chainId": 0
    }
  ]
}