{
  "hash": "0xb8c2c2b463e1687cea86b81530f66442d67932663d62ff0d010657a9029ff190",
  "parentHash": "0xd880a28411315d5a63e7aae6579d5b9dd096cc1af8bdfbeb6a0159ae7ef3771d",
  "number": 89808,
  "timestamp": 1439629491,
  "nonce": "0x854f54ead97079a6",
  "difficulty": 3341859655449,
  "gasLimit": {
    "_hex": "0x2fefd8"
  },
  "gasUsed": {
    "_hex": "0x5208"
  },
  "miner": "0xe6A7a1d47ff21B6321162AEA7C6CB457D5476Bca",
  "extraData": "0x476574682f76312e302e312d38326566323666362f6c696e75782f676f312e34",
  "transactions": [
    {
      "hash": "0x74957ca4b229bf4248715b58af18ab2c7adb2e92701ba2d38c62c730379bee5c",
      "blockHash": "0xb8c2c2b463e1687cea86b81530f66442d67932663d62ff0d010657a9029ff190",
      "blockNumber": 89808,
      "transactionIndex": 0,
      "confirmations": null,
      "from": "0x6111E933E5e6297DFd0AAd9aAB64017c69062a08",
      "gasPrice": {
        "_hex": "0xd25486ff5"
      },
      "gasLimit": {
        "_hex": "0x5208"
      },
      "to": "0x32Be343B94f860124dC4fEe278FDCBD38C102D88",
      "value": {
        "_hex": "0xed3ec14edcbd8800"
      },
      "nonce": 13,
      "data": "0x",
      "r": "0xac836774521343330442d01e7cd7ddfe468ffe66bf8269598780d2c0c5ec2294",
      "s": "0x503e4e0cf0bf91eb65f85915122fc359af921403a0eb6778cd8fbcc776fc7bb2",
      "v": 28,
      "creates": null,
      "raw": "0xf86c0d850d25486ff58252089432be343b94f860124dc4fee278fdcbd38c102d8888ed3ec14edcbd8800801ca0ac836774521343330442d01e7cd7ddfe468ffe66bf8269598780d2c0c5ec2294a0503e4e0cf0bf91eb65f85915122fc359af921403a0eb6778cd8fbcc776fc7bb2",
      "networkId": 0,
      "chainId": 0
    }
  ]
}