{
  "hash": "0x00ef66c5479c843a1885fdbdb7247963cd8de5303493dee3626bdf77a5b78b24",
  "parentHash": "0x64b38b3bb473ac6c6e05eb3fbd2352d7f922684aba0f514e289ea304cb4c5654",
  "number": 61304,
  "timestamp": 1439170364,
  "nonce": "0x6d8dd804f88c92bd",
  "difficulty": 1726097059102,
  "gasLimit": {
    "_hex": "0x2fefd8"
  },
  "gasUsed": {
    "_hex": "0x546c"
  },
  "miner": "0xbb7B8287f3F0a933474a79eAe42CBCa977791171",
  "extraData": "0x476574682f4c5649562f76312e302e312f6c696e75782f676f312e342e32",
  "transactions": [
    {
      "hash": "0xefaefb538db3cf771ac01462503969d2eadaf5fbc1e48a6cd784c46ac540744c",
      "blockHash": "0x00ef66c5479c843a1885fdbdb7247963cd8de5303493dee3626bdf77a5b78b24",
      "blockNumber": 61304,
      "transactionIndex": 0,
      "confirmations": null,
      "from": "0xF0b384EC537546769FAEDdd131A1453723714c4E",
      "gasPrice": {
        "_hex": "0xd4d08c2d6"
      },
      "gasLimit": {
        "_hex": "0x55f0"
      },
      "to": "0x2910543Af39abA0Cd09dBb2D50200b3E800A63D2",
      "value": {
        "_hex": "0xe2353ba38ede0000"
      },
      "nonce": 2,
      "data": "0x454e37344341433252",
      "r": "0x6b4d9020197a354e8855a5f64797829e04f56c9e9a6316983c8cb812d8ad3906",
      "s": "0x66dbbae5b201a2247e0301826f120c1b5004b5e23e4ed58f86abacb0569dec0a",
      "v": 27,
      "creates": null,
      "raw": "0xf87502850d4d08c2d68255f0942910543af39aba0cd09dbb2d50200b3e800a63d288e2353ba38ede000089454e373443414332521ba06b4d9020197a354e8855a5f64797829e04f56c9e9a6316983c8cb812d8ad3906a066dbbae5b201a2247e0301826f120c1b5004b5e23e4ed58f86abacb0569dec0a",
      "networkId": 0,
      "chainId": 0
    }
  ]
}