{
  "hash": "0x667725800f22be0d3ec3dbd9849357bb632e8863756f976f0e8c15072f0cce3b",
  "parentHash": "0xd3fa472b03da1416c7738efa2b37af449309f7ee68fe6854b911183acbec476d",
  "number": 120820,
  "timestamp": 1440166378,
  "nonce": "0x8cb35c7e6c330b82",
  "difficulty": 4458546102117,
  "gasLimit": {
    "_hex": "0x2fefd8"
  },
  "gasUsed": {
    "_hex": "0x5208"
  },
  "miner": "0x52bc44d5378309EE2abF1539BF71dE1b7d7bE3b5",
  "extraData": "0xd783010002844765746887676f312e342e32856c696e7578",
  "transactions": [
    {
      "hash": "0x27cc7fc119095b90fb38fd4a89a5ebdbc6712f68a5b82977a0a77f40c7fd6b7e",
      "blockHash": "0x667725800f22be0d3ec3dbd9849357bb632e8863756f976f0e8c15072f0cce3b",
      "blockNumber": 120820,
      "transactionIndex": 0,
      "confirmations": null,
      "from": "0xa6BDc31c431B8F97848c9D60cbbe9660dc450eB7",
      "gasPrice": {
        "_hex": "0xba43b7400"
      },
      "gasLimit": {
        "_hex": "0x5208"
      },
      "to": "0x32Be343B94f860124dC4fEe278FDCBD38C102D88",
      "value": {
        "_hex": "0x45644e1a08180000"
      },
      "nonce": 208,
      "data": "0x",
      "r": "0x70ff51f1bc4e84e3e1e7158be9adae3ef0af961fb153651416ae229ef397ab02",
      "s": "0x5deeb13c11000342bb980538432b5095eecc2830a3949d92f3d73e494ff0dfe7",
      "v": 27,
      "creates": null,
      "raw": "0xf86d81d0850ba43b74008252089432be343b94f860124dc4fee278fdcbd38c102d888845644e1a08180000801ba070ff51f1bc4e84e3e1e7158be9adae3ef0af961fb153651416ae229ef397ab02a05deeb13c11000342bb980538432b5095eecc2830a3949d92f3d73e494ff0dfe7",
      "networkId": 0,
      "chainId": 0
    }
  ]
}