{
  "hash": "0x2d11d6f5e7713b6b75132743cd88b153ea232d2de4540becb73b87f67bfc2710",
  "parentHash": "0xfbb1d4ce3ae4c73bb6caf26e3cbe7a4514c41743379c748d340c71f22a8bb5df",
  "number": 87384,
  "timestamp": 1439591399,
  "nonce": "0x02ee76fac89260e7",
  "difficulty": 3115855934729,
  "gasLimit": {
    "_hex": "0x2fefd8"
  },
  "gasUsed": {
    "_hex": "0xf618"
  },
  "miner": "0xBF26bdEBFe8e9CCe5f9868Ccb198d03F3de44055",
  "extraData": "0x476574682f76312e302e312f6c696e75782f676f312e342e32",
  "transactions": [
    {
      "hash": "0xc2f7ac8b99b061cceb04bf0c1ef67f5b9073ad88a9af14ab4382f2e6198f6491",
      "blockHash": "0x2d11d6f5e7713b6b75132743cd88b153ea232d2de4540becb73b87f67bfc2710",
      "blockNumber": 87384,
      "transactionIndex": 0,
      "confirmations": null,
      "from": "0x32Be343B94f860124dC4fEe278FDCBD38C102D88",
      "gasPrice": {
        "_hex": "0xd83a33635"
      },
      "gasLimit": {
        "_hex": "0x5208"
      },
      "to": "0x3F2958BE30c06420de95eF82d1c3C8465C5750e1",
      "value": {
        "_hex": "0x5b1c264e1de210000"
      },
      "nonce": 782,
      "data": "0x",
      "r": "0x33de44224d0caf713f9cc4ccdc10a806b07c104fb0dabbf64e0fdbf5188e0122",
      "s": "0x1129773676b8f3d9cb90608859cedcbfd68b2f52d9176ec37a53cd6163a11865",
      "v": 28,
      "creates": null,
      "raw": "0xf86f82030e850d83a33635825208943f2958be30c06420de95ef82d1c3c8465c5750e18905b1c264e1de210000801ca033de44224d0caf713f9cc4ccdc10a806b07c104fb0dabbf64e0fdbf5188e0122a01129773676b8f3d9cb90608859cedcbfd68b2f52d9176ec37a53cd6163a11865",
      "networkId": 0,
      "chainId": 0
    },
    {
      "hash": "0x5b6845660c75fc66a278254fa4f530ed3b06a353320d8d513406a8e33bd437c5",
      "blockHash": "0x2d11d6f5e7713b6b75132743cd88b153ea232d2de4540becb73b87f67bfc2710",
      "blockNumber": 87384,
      "transactionIndex": 1,
      "confirmations": null,
      "from": "0x32Be343B94f860124dC4fEe278FDCBD38C102D88",
      "gasPrice": {
        "_hex": "0xd83a33635"
      },
      "gasLimit": {
        "_hex": "0x5208"
      },
      "to": "0x120A270bbC009644e35F0bB6ab13f95b8199c4ad",
      "value": {
        "_hex": "0xd8d726b7177a800000"
      },
      "nonce": 783,
      "data": "0x",
      "r": "0xdf64809df439be0f70ea2826e7a9209e39fc408af06e1b775ee4b463a81c874a",
      "s": "0x003f6fe4fd0d042d9e971bcb27bdeca20e7cb7b6983b21e54745c74dc6b74695",
      "v": 27,
      "creates": null,
      "raw": "0xf86e82030f850d83a3363582520894120a270bbc009644e35f0bb6ab13f95b8199c4ad89d8d726b7177a800000801ba0df64809df439be0f70ea2826e7a9209e39fc408af06e1b775ee4b463a81c874a9f3f6fe4fd0d042d9e971bcb27bdeca20e7cb7b6983b21e54745c74dc6b74695",
      "networkId": 0,
      "chainId": 0
    },
    {
      "hash": "0xa6bf79bbccd6d47b83bcaecaf1edac01223d5ee8822a8faa254be3a755f040ba",
      "blockHash": "0x2d11d6f5e7713b6b75132743cd88b153ea232d2de4540becb73b87f67bfc2710",
      "blockNumber": 87384,
      "transactionIndex": 2,
      "confirmations": null,
      "from": "0x32Be343B94f860124dC4fEe278FDCBD38C102D88",
      "gasPrice": {
        "_hex": "0xd83a33635"
      },
      "gasLimit": {
        "_hex": "0x5208"
      },
      "to": "0x566B3E44014f2a2587e054AdFA915861AE82Fe39",
      "value": {
        "_hex": "0x397c3d762a5a26000"
      },
      "nonce": 784,
      "data": "0x",
      "r": "0x903828f4795a5f9a4bfa878ee603f6f6f840a251f0b12f7786c27fcaf6c17d48",
      "s": "0x44f02e2c8641f1817c2e8413ebe0bea46b80b028c877fc85b976e2e50b9539aa",
      "v": 28,
      "creates": null,
      "raw": "0xf86f820310850d83a3363582520894566b3e44014f2a2587e054adfa915861ae82fe39890397c3d762a5a26000801ca0903828f4795a5f9a4bfa878ee603f6f6f840a251f0b12f7786c27fcaf6c17d48a044f02e2c8641f1817c2e8413ebe0bea46b80b028c877fc85b976e2e50b9539aa",
      "networkId": 0,
      "chainId": 0
    }
  ]
}