{
  "hash": "0xacdcc16e3e9e4b445e2c8cd40c5a8d87c5ac16493decbe67fd6597f3724afa0d",
  "parentHash": "0xaff1de9da93a304aae9d0ff0c016560ab70e4edcfdaa942d4c97710a3e0e95a1",
  "number": 104682,
  "timestamp": 1439873682,
  "nonce": "0x622159591b506880",
  "difficulty": 4363650705092,
  "gasLimit": {
    "_hex": "0x2fefd8"
  },
  "gasUsed": {
    "_hex": "0x5208"
  },
  "miner": "0xe6A7a1d47ff21B6321162AEA7C6CB457D5476Bca",
  "extraData": "0x476574682f76312e302e312d38326566323666362f6c696e75782f676f312e34",
  "transactions": [
    {
      "hash": "0x83685f5623bbdc8e2e941677ba2044769b713c5c2b3cd2dda8d69ebc6ad55e39",
      "blockHash": "0xacdcc16e3e9e4b445e2c8cd40c5a8d87c5ac16493decbe67fd6597f3724afa0d",
      "blockNumber": 104682,
      "transactionIndex": 0,
      "confirmations": null,
      "from": "0xE84Cb28acE3cEb9bd20690967C67eeD15EaCb502",
      "gasPrice": {
        "_hex": "0xd743fd8b9"
      },
      "gasLimit": {
        "_hex": "0x15f90"
      },
      "to": "0xf3fB05B2E8177Ed2D80ac90DF22c2138B021d54f",
      "value": {
        "_hex": "0x2a802f8630a240000"
      },
      "nonce": 1,
      "data": "0x",
      "r": "0x6cc9f5b7fd7564923568a4acabccd666935cc045580dc5a199fbd8a09b01029f",
      "s": "0x1c81670e1288095b37c21cf6be72d509ea7fd2252f596b20b2762a2194454bf3",
      "v": 27,
      "creates": null,
      "raw": "0xf86e01850d743fd8b983015f9094f3fb05b2e8177ed2d80ac90df22c2138b021d54f8902a802f8630a240000801ba06cc9f5b7fd7564923568a4acabccd666935cc045580dc5a199fbd8a09b01029fa01c81670e1288095b37c21cf6be72d509ea7fd2252f596b20b2762a2194454bf3",
      "networkId": 0,
      "chainId": 0
    }
  ]
}