{
  "hash": "0x2976822f550174a1f7ee0e763c86238630c2ff6ed77a97cb04b3586a8eaeb7e7",
  "parentHash": "0xde0547f336a4b465d0159278b061a59f2793e31c0995a56b07d3ae5d787c4365",
  "number": 122215,
  "timestamp": 1440190171,
  "nonce": "0x9ea47eb52f07281e",
  "difficulty": 4481812426091,
  "gasLimit": {
    "_hex": "0x2fefd8"
  },
  "gasUsed": {
    "_hex": "0x5208"
  },
  "miner": "0xe6A7a1d47ff21B6321162AEA7C6CB457D5476Bca",
  "extraData": "0xd783010002844765746887676f312e342e32856c696e7578",
  "transactions": [
    {
      "hash": "0xae6fd9a77dc29c2cac57b59d546265a28939fdb84b96f98f8372a7ffc1c1ca1d",
      "blockHash": "0x2976822f550174a1f7ee0e763c86238630c2ff6ed77a97cb04b3586a8eaeb7e7",
      "blockNumber": 122215,
      "transactionIndex": 0,
      "confirmations": null,
      "from": "0xb1abce2918E21ddb93AA452731a12672A3d9F75a",
      "gasPrice": {
        "_hex": "0xdb1149c8a"
      },
      "gasLimit": {
        "_hex": "0x5208"
      },
      "to": "0x32Be343B94f860124dC4fEe278FDCBD38C102D88",
      "value": {
        "_hex": "0x455f21de49411c00"
      },
      "nonce": 225,
      "data": "0x",
      "r": "0x8aa26bd63ab359445f81560b2a9414d3c6bde1ea6172ef2279517a7f1cc63b05",
      "s": "0x122ee595d77a24f871bda120f8362cd04ffe536aca8b0a5f17bd82d9dd939690",
      "v": 28,
      "creates": null,
      "raw": "0xf86d81e1850db1149c8a8252089432be343b94f860124dc4fee278fdcbd38c102d8888455f21de49411c00801ca08aa26bd63ab359445f81560b2a9414d3c6bde1ea6172ef2279517a7f1cc63b05a0122ee595d77a24f871bda120f8362cd04ffe536aca8b0a5f17bd82d9dd939690",
      "networkId": 0,
      "chainId": 0
    }
  ]
}