{
  "hash": "0xa94bf76504afdf2db2ff88086c9fe448c6d5155c425703112f9234d0438dc65d",
  "parentHash": "0xdf1735d5221a210a800673386e9c2d9669dc9eed888da55cfd90827ae4b8caec",
  "number": 99993,
  "timestamp": 1439799000,
  "nonce": "0x3c03f03ffd4a4ece",
  "difficulty": 3847421344905,
  "gasLimit": {
    "_hex": "0x2fefd8"
  },
  "gasUsed": {
    "_hex": "0x5208"
  },
  "miner": "0x0eDEd3DA479d0beF8eeC92A76644D3f4E3C177f7",
  "extraData": "0x476574682f76312e302e312f6c696e75782f676f312e342e32",
  "transactions": [
    {
      "hash": "0x5fd8e409a370b924d426da8cd26421904ca6ba6e92cf25345585d2741c6bc619",
      "blockHash": "0xa94bf76504afdf2db2ff88086c9fe448c6d5155c425703112f9234d0438dc65d",
      "blockNumber": 99993,
      "transactionIndex": 0,
      "confirmations": null,
      "from": "0x007f7f58D3eb5b7510A301eCC749FC1fCDDBE14D",
      "gasPrice": {
        "_hex": "0xe0cfe7246"
      },
      "gasLimit": {
        "_hex": "0x15f90"
      },
      "to": "0xb1abce2918E21ddb93AA452731a12672A3d9F75a",
      "value": {
        "_hex": "0x4563918244f40000"
      },
      "nonce": 155,
      "data": "0x",
      "r": "0x4018593fee9fe53e38d38232d5d05fff10375372f6ed682f6eff7c407d4c3b62",
      "s": "0x7e41395feb324c7c137f31f889d97753ce268c8b0991277803dda58ccea4412b",
      "v": 27,
      "creates": null,
      "raw": "0xf86e819b850e0cfe724683015f9094b1abce2918e21ddb93aa452731a12672a3d9f75a884563918244f40000801ba04018593fee9fe53e38d38232d5d05fff10375372f6ed682f6eff7c407d4c3b62a07e41395feb324c7c137f31f889d97753ce268c8b0991277803dda58ccea4412b",
      "networkId": 0,
      "chainId": 0
    }
  ]
}