{
  "hash": "0xb284ab7f6eafb37384435d545627f30805777fe996500d2eb4f0f7297754e536",
  "parentHash": "0x6cce8ad2a856235878787d04078bd7aab2f2c7634060d50a5886bf0d8eb8648b",
  "number": 52233,
  "timestamp": 1439018582,
  "nonce": "0x7559cdf8148a6540",
  "difficulty": 1551208039102,
  "gasLimit": {
    "_hex": "0x118b76"
  },
  "gasUsed": {
    "_hex": "0xf4240"
  },
  "miner": "0x9746c7e1ef2bd21FF3997fa467593a89cb852BD0",
  "extraData": "0x476574682f76312e302e312f77696e646f77732f676f312e342e32",
  "transactions": [
    {
      "hash": "0xa00b1288dfb2b8416f1cf1e22b96bc7aa3d7fca019bb32106b597fe531023a7d",
      "blockHash": "0xb284ab7f6eafb37384435d545627f30805777fe996500d2eb4f0f7297754e536",
      "blockNumber": 52233,
      "transactionIndex": 0,
      "confirmations": null,
      "from": "0xAd7F5C601260b460ADAC6A54411Ca6Cf07dC83c3",
      "gasPrice": {
        "_hex": "0x10052b6a9c"
      },
      "gasLimit": {
        "_hex": "0x7a120"
      },
      "to": "0x109C4f2CCc82C4d77Bde15F306707320294Aea3F",
      "value": {
        "_hex": "0xde0b6b3a7640000"
      },
      "nonce": 14,
      "data": "0x",
      "r": "0x456c854e40764c01eee1f56a87c5659e809428cd6b2ebb731e0275d64421149a",
      "s": "0x45133bf32a5a2f4f87d9c0112378cd5f450270db6b9938be92e56987caa6a402",
      "v": 27,
      "creates": null,
      "raw": "0xf86d0e8510052b6a9c8307a12094109c4f2ccc82c4d77bde15f306707320294aea3f880de0b6b3a7640000801ba0456c854e40764c01eee1f56a87c5659e809428cd6b2ebb731e0275d64421149aa045133bf32a5a2f4f87d9c0112378cd5f450270db6b9938be92e56987caa6a402",
      "networkId": 0,
      "chainId": 0
    },
    {
      "hash": "0xa44267d7225c0cd25e5160e460db6d9d64830de03e6a4b92ef3a0ff2a4ac63e6",
      "blockHash": "0xb284ab7f6eafb37384435d545627f30805777fe996500d2eb4f0f7297754e536",
      "blockNumber": 52233,
      "transactionIndex": 1,
      "confirmations": null,
      "from": "0xAd7F5C601260b460ADAC6A54411Ca6Cf07dC83c3",
      "gasPrice": {
        "_hex": "0x10052b6a9c"
      },
      "gasLimit": {
        "_hex": "0x7a120"
      },
      "to": "0x109C4f2CCc82C4d77Bde15F306707320294Aea3F",
      "value": {
        "_hex": "0xde0b6b3a7640000"
      },
      "nonce": 15,
      "data": "0x",
      "r": "0xe4b806523d01b5952d8f9647cf6d74a4500bfe19aa43cd2bc1b9053070dbf7ea",
      "s": "0x44c4eb8c7589c248265571aebb431c308a4df7474c47c18b38a9412a2e40bbd1",
      "v": 28,
      "creates": null,
      "raw": "0xf86d0f8510052b6a9c8307a12094109c4f2ccc82c4d77bde15f306707320294aea3f880de0b6b3a7640000801ca0e4b806523d01b5952d8f9647cf6d74a4500bfe19aa43cd2bc1b9053070dbf7eaa044c4eb8c7589c248265571aebb431c308a4df7474c47c18b38a9412a2e40bbd1",
      "networkId": 0,
      "chainId": 0
    }
  ]
}