{
  "hash": "0x3ba69cfb96b6ef9e7b04ab58dcb1d8c98cd8e3ac80852f75afe299aafd833578",
  "parentHash": "0xe021c835ebe27abaa84b5f93fd62423246dd86f32d148c547567fe99fc3edfba",
  "number": 100595,
  "timestamp": 1439809074,
  "nonce": "0x86e86bd86201eb47",
  "difficulty": 3817206524255,
  "gasLimit": {
    "_hex": "0x2fefd8"
  },
  "gasUsed": {
    "_hex": "0xa410"
  },
  "miner": "0xe6A7a1d47ff21B6321162AEA7C6CB457D5476Bca",
  "extraData": "0x476574682f76312e302e312d38326566323666362f6c696e75782f676f312e34",
  "transactions": [
    {
      "hash": "0x54d13b8a3476ceab55684f9fb37a38359b5e4e11664fd50c62481ea129d145e6",
      "blockHash": "0x3ba69cfb96b6ef9e7b04ab58dcb1d8c98cd8e3ac80852f75afe299aafd833578",
      "blockNumber": 100595,
      "transactionIndex": 0,
      "confirmations": null,
      "from": "0xa50ec0D39fa913E62f1Bae7074E6F36caA71855b",
      "gasPrice": {
        "_hex": "0xd8c1aeaee"
      },
      "gasLimit": {
        "_hex": "0x15f90"
      },
      "to": "0x996369610F6aF04368872864ea319A09787B608D",
      "value": {
        "_hex": "0xde0b6b3a7640000"
      },
      "nonce": 0,
      "data": "0x",
      "r": "0x8ad33645885d0905d25bf4d741f84dbe9255299903f0c7464b5cca25abf4459c",
      "s": "0x3b743f049b4d61fd51078c8a3669e418ddc760ebfd74b5ab3c443b87b42700c0",
      "v": 27,
      "creates": null,
      "raw": "0xf86d80850d8c1aeaee83015f9094996369610f6af04368872864ea319a09787b608d880de0b6b3a7640000801ba08ad33645885d0905d25bf4d741f84dbe9255299903f0c7464b5cca25abf4459ca03b743f049b4d61fd51078c8a3669e418ddc760ebfd74b5ab3c443b87b42700c0",
      "networkId": 0,
      "chainId": 0
    },
    {
      "hash": "0x3c2b527a9e1ad419bb2cc85c73c6894ed3df06136852af0d7a3b3b6cca816fe2",
      "blockHash": "0x3ba69cfb96b6ef9e7b04ab58dcb1d8c98cd8e3ac80852f75afe299aafd833578",
      "blockNumber": 100595,
      "transactionIndex": 1,
      "confirmations": null,
      "from": "0xbfE3a1Fc6e24c8F7B3250560991F93cBA2cF8047",
      "gasPrice": {
        "_hex": "0xd84e12627"
      },
      "gasLimit": {
        "_hex": "0x15f90"
      },
      "to": "0x0F5B063d39887707089aD6BEE70c0FDd4dE061EF",
      "value": {
        "_hex": "0x8ac7230489e80000"
      },
      "nonce": 0,
      "data": "0x",
      "r": "0x06296bc8872b10f6734b3249970b2f71c39c3becba2ada9e1b518325918b9493",
      "s": "0x507e1bdc86159dea10fbc61a3e7077835fe40371113f01071bc2a018f5492fc9",
      "v": 28,
      "creates": null,
      "raw": "0xf86d80850d84e1262783015f90940f5b063d39887707089ad6bee70c0fdd4de061ef888ac7230489e80000801ca006296bc8872b10f6734b3249970b2f71c39c3becba2ada9e1b518325918b9493a0507e1bdc86159dea10fbc61a3e7077835fe40371113f01071bc2a018f5492fc9",
      "networkId": 0,
      "chainId": 0
    }
  ]
}