{
  "hash": "0x66f13006e90bb1b3af8f19a83f59447c64b30a4c26c25a43b2dae6f7176bba06",
  "parentHash": "0x40d4326e277adb7a46c414eb1a319ea5cabea19b5d2e674e57ab0a10378272f2",
  "number": 115399,
  "timestamp": 1440056457,
  "nonce": "0x11f78a1aedc75e8f",
  "difficulty": 4578392109754,
  "gasLimit": {
    "_hex": "0x2fefd8"
  },
  "gasUsed": {
    "_hex": "0xa410"
  },
  "miner": "0xe6A7a1d47ff21B6321162AEA7C6CB457D5476Bca",
  "extraData": "0x476574682f76312e302e312d38326566323666362f6c696e75782f676f312e34",
  "transactions": [
    {
      "hash": "0x448679acb785c337e842d21725e01eeab3e17bb69f4689620f0a5c658689d576",
      "blockHash": "0x66f13006e90bb1b3af8f19a83f59447c64b30a4c26c25a43b2dae6f7176bba06",
      "blockNumber": 115399,
      "transactionIndex": 0,
      "confirmations": null,
      "from": "0x233b4fC39b20bb5eCf29882D7F068544BCc5eB78",
      "gasPrice": {
        "_hex": "0xd5012d2f2"
      },
      "gasLimit": {
        "_hex": "0x5208"
      },
      "to": "0x32Be343B94f860124dC4fEe278FDCBD38C102D88",
      "value": {
        "_hex": "0x9144e1a45ef6e000"
      },
      "nonce": 7,
      "data": "0x",
      "r": "0x6e859836d8af84e842a1f2cbfa7483ca915af5fac526e434d06c76b2c44903a7",
      "s": "0x5a650dc4bc5c21735b71da7a2a4e9117d90f14bec8ed1e2f91af835e93bea80a",
      "v": 28,
      "creates": null,
      "raw": "0xf86c07850d5012d2f28252089432be343b94f860124dc4fee278fdcbd38c102d88889144e1a45ef6e000801ca06e859836d8af84e842a1f2cbfa7483ca915af5fac526e434d06c76b2c44903a7a05a650dc4bc5c21735b71da7a2a4e9117d90f14bec8ed1e2f91af835e93bea80a",
      "networkId": 0,
      "chainId": 0
    },
    {
      "hash": "0xbb178e00717e051c33d6fd46c98ef731554c79c298261e8e13e451c244e5a957",
      "blockHash": "0x66f13006e90bb1b3af8f19a83f59447c64b30a4c26c25a43b2dae6f7176bba06",
      "blockNumber": 115399,
      "transactionIndex": 1,
      "confirmations": null,
      "from": "0x1151790FE5F7C3113dfb07Dc3914B1916EcC8a7A",
      "gasPrice": {
        "_hex": "0xd5012d2f2"
      },
      "gasLimit": {
        "_hex": "0x5208"
      },
      "to": "0x32Be343B94f860124dC4fEe278FDCBD38C102D88",
      "value": {
        "_hex": "0x14e5a26f74350400"
      },
      "nonce": 7,
      "data": "0x",
      "r": "0xc0e21465bd674ca4b641bb4790e796132dbb99329b45a8451f27ca1770043332",
      "s": "0x264b493db6d656378a4359185bec98892e36b2071a2a72daa62c652f742d7a22",
      "v": 27,
      "creates": null,
      "raw": "0xf86c07850d5012d2f28252089432be343b94f860124dc4fee278fdcbd38c102d888814e5a26f74350400801ba0c0e21465bd674ca4b641bb4790e796132dbb99329b45a8451f27ca1770043332a0264b493db6d656378a4359185bec98892e36b2071a2a72daa62c652f742d7a22",
      "networkId": 0,
      "chainId": 0
    }
  ]
}