{
  "hash": "0xb06d954f111f12cf68705aff87ef766a304fe1a9d62601470faab3cccbccf118",
  "parentHash": "0x1e8c9d0964406e145cae0022fb6c48d2c1d259da2e46eb5ce43ae5a55e5aad65",
  "number": 71410,
  "timestamp": 1439335522,
  "nonce": "0x1fd34321424f34b1",
  "difficulty": 2177236803182,
  "gasLimit": {
    "_hex": "0x2fefd8"
  },
  "gasUsed": {
    "_hex": "0x546c"
  },
  "miner": "0xe6A7a1d47ff21B6321162AEA7C6CB457D5476Bca",
  "extraData": "0x476574682f76312e302e312d38326566323666362f6c696e75782f676f312e34",
  "transactions": [
    {
      "hash": "0xeabccdf146b3b0c984a8a20bb02c31229f08dfc2e06be6fbf706e8fd27f23d3b",
      "blockHash": "0xb06d954f111f12cf68705aff87ef766a304fe1a9d62601470faab3cccbccf118",
      "blockNumber": 71410,
      "transactionIndex": 0,
      "confirmations": null,
      "from": "0xdADc00Ab7927603C2fCf31Cee352F80e6c4d6351",
      "gasPrice": {
        "_hex": "0x110c8f7d8de"
      },
      "gasLimit": {
        "_hex": "0xc350"
      },
      "to": "0x2910543Af39abA0Cd09dBb2D50200b3E800A63D2",
      "value": {
        "_hex": "0x6f05b59d3b20000"
      },
      "nonce": 2,
      "data": "0x454e36324530563638",
      "r": "0xf2d376b29c32427a80cef98ba3a0437266306ac3b610d925d8677bff49e18958",
      "s": "0x5e091d94632de82abcd5ffc1dc19830f0a40325477dd2680dfb3c4cdc5efb998",
      "v": 28,
      "creates": null,
      "raw": "0xf87602860110c8f7d8de82c350942910543af39aba0cd09dbb2d50200b3e800a63d28806f05b59d3b2000089454e363245305636381ca0f2d376b29c32427a80cef98ba3a0437266306ac3b610d925d8677bff49e18958a05e091d94632de82abcd5ffc1dc19830f0a40325477dd2680dfb3c4cdc5efb998",
      "networkId": 0,
      "chainId": 0
    }
  ]
}