{
  "hash": "0x39942e24847266c9f239e476261d966950431116d85d38042c0b7c3f47fffc7c",
  "parentHash": "0x40972f28e8cae41d0f766eb5f649f531a2d91c263c091f255c8a8087cb8e26f6",
  "number": 55885,
  "timestamp": 1439078702,
  "nonce": "0x68a4bf08986957ff",
  "difficulty": 1607582456083,
  "gasLimit": {
    "_hex": "0x2fefd8"
  },
  "gasUsed": {
    "_hex": "0x7b0c0"
  },
  "miner": "0xbe4532E1B1Db5c913Cf553be76180c1777055403",
  "extraData": "0x476574682f686261722f76312e302e312f6c696e75782f676f312e342e32",
  "transactions": [
    {
      "hash": "0x0023bc7e7d40de08011dcb7d91d03d571b0f2ccb82d3509ed77f254dab5c15af",
      "blockHash": "0x39942e24847266c9f239e476261d966950431116d85d38042c0b7c3f47fffc7c",
      "blockNumber": 55885,
      "transactionIndex": 0,
      "confirmations": null,
      "from": "0x1333a55102f1f4B3df95298b6CE863eF8d5BAf45",
      "gasPrice": {
        "_hex": "0xd049d81bb"
      },
      "gasLimit": {
        "_hex": "0x5208"
      },
      "to": "0x32Be343B94f860124dC4fEe278FDCBD38C102D88",
      "value": {
        "_hex": "0x50503f277cbb2000"
      },
      "nonce": 0,
      "data": "0x",
      "r": "0x28451f74a92f1828c072e373aebbccbd7a870dad7121ebafb7685ebe7f3fd3f0",
      "s": "0x35e6d348dbe11273f696cd4cb3903cf51039cc5887bb371f6aace4707dbf815a",
      "v": 28,
      "creates": null,
      "raw": "0xf86c80850d049d81bb8252089432be343b94f860124dc4fee278fdcbd38c102d888850503f277cbb2000801ca028451f74a92f1828c072e373aebbccbd7a870dad7121ebafb7685ebe7f3fd3f0a035e6d348dbe11273f696cd4cb3903cf51039cc5887bb371f6aace4707dbf815a",
      "networkId": 0,
      "chainId": 0
    },
    {
      "hash": "0xab2247ee13d9c66f5cc072e91d602403a84373f2d1f013bc87ac3abc3a6505a3",
      "blockHash": "0x39942e24847266c9f239e476261d966950431116d85d38042c0b7c3f47fffc7c",
      "blockNumber": 55885,
      "transactionIndex": 1,
      "confirmations": null,
      "from": "0xD042e5C2443591c48f1FBa5F6bAf8E7193f454B9",
      "gasPrice": {
        "_hex": "0xd049d81bb"
      },
      "gasLimit": {
        "_hex": "0x5208"
      },
      "to": "0x32Be343B94f860124dC4fEe278FDCBD38C102D88",
      "value": {
        "_hex": "0x474cb3d91d13b800"
      },
      "nonce": 0,
      "data": "0x",
      "r": "0xbf2b3da5292236711ad4bf276b07602b9742fc3ffc0d188d45dbec2c36fe7297",
      "s": "0x3a8edf194bcc35475bc16f4d3f0c9fe516a78da0f36c528b335d61ebfec9829f",
      "v": 28,
      "creates": null,
      "raw": "0xf86c80850d049d81bb8252089432be343b94f860124dc4fee278fdcbd38c102d8888474cb3d91d13b800801ca0bf2b3da5292236711ad4bf276b07602b9742fc3ffc0d188d45dbec2c36fe7297a03a8edf194bcc35475bc16f4d3f0c9fe516a78da0f36c528b335d61ebfec9829f",
      "networkId": 0,
      "chainId": 0
    },
    {
      "hash": "0xd2bb11e96f0fe24152a009c95a20a89934ec4b8737e513a11f7bda12fe3f5c57",
      "blockHash": "0x39942e24847266c9f239e476261d966950431116d85d38042c0b7c3f47fffc7c",
      "blockNumber": 55885,
      "transactionIndex": 2,
      "confirmations": null,
      "from": "0xbb30e448B72d6Fdd44973A4C7a312F92f22C8F07",
      "gasPrice": {
        "_hex": "0xce396cb8e"
      },
      "gasLimit": {
        "_hex": "0x5208"
      },
      "to": "0x32Be343B94f860124dC4fEe278FDCBD38C102D88",
      "value": {
        "_hex": "0x2ae9c72972ca4000"
      },
      "nonce": 3,
      "data": "0x",
      "r": "0xb777549fbbbfdd1a15f58638f08d32bb280c86e97d1695c64f3c88bc3ecb7398",
      "s": "0x36efdd4125ad65dbda045627ff453bafdeea1fa16c189f8cef58e578a2285f75",
      "v": 27,
      "creates": null,
      "raw": "0xf86c03850ce396cb8e8252089432be343b94f860124dc4fee278fdcbd38c102d88882ae9c72972ca4000801ba0b777549fbbbfdd1a15f58638f08d32bb280c86e97d1695c64f3c88bc3ecb7398a036efdd4125ad65dbda045627ff453bafdeea1fa16c189f8cef58e578a2285f75",
      "networkId": 0,
      "chainId": 0
    },
    {
      "hash": "0xf82d885060d253109b4ddcb6a5a9869f8e4d706e58fdc859880cb45b03cd3f98",
      "blockHash": "0x39942e24847266c9f239e476261d966950431116d85d38042c0b7c3f47fffc7c",
      "blockNumber": 55885,
      "transactionIndex": 3,
      "confirmations": null,
      "from": "0x1c69e6202df7794272b70FaEa8f7408c856B1f08",
      "gasPrice": {
        "_hex": "0xce396cb8e"
      },
      "gasLimit": {
        "_hex": "0x5208"
      },
      "to": "0x32Be343B94f860124dC4fEe278FDCBD38C102D88",
      "value": {
        "_hex": "0x4be882ab5fd0b800"
      },
      "nonce": 0,
      "data": "0x",
      "r": "0xeacbcef045fbf8cfe0d2f2df759758573ea4627c02c33aa0f0eec66451657171",
      "s": "0x7ab646e2eed202f003ad6fce51f39ab8d8e6c442b3068778abfe8091e12dee82",
      "v": 28,
      "creates": null,
      "raw": "0xf86c80850ce396cb8e8252089432be343b94f860124dc4fee278fdcbd38c102d88884be882ab5fd0b800801ca0eacbcef045fbf8cfe0d2f2df759758573ea4627c02c33aa0f0eec66451657171a07ab646e2eed202f003ad6fce51f39ab8d8e6c442b3068778abfe8091e12dee82",
      "networkId": 0,
      "chainId": 0
    },
    {
      "hash": "0xd5c8c4a921deb4acde9d0b4c885aa74939ea472f61bb166b474bf4432954e9d5",
      "blockHash": "0x39942e24847266c9f239e476261d966950431116d85d38042c0b7c3f47fffc7c",
      "blockNumber": 55885,
      "transactionIndex": 4,
      "confirmations": null,
      "from": "0xEe2e3665531f220d70d01CCaBb559537a2663174",
      "gasPrice": {
        "_hex": "0xce396cb8e"
      },
      "gasLimit": {
        "_hex": "0x5208"
      },
      "to": "0x32Be343B94f860124dC4fEe278FDCBD38C102D88",
      "value": {
        "_hex": "0x8ac301b642431000"
      },
      "nonce": 0,
      "data": "0x",
      "r": "0xb2fa4ef77413c5ebc0a2590988c4c8d02b215d4494096e5afd15451fe8708884",
      "s": "0x0e9707f602fe463738ecf6b7203f9e3d474e0464fd0ee853125dcc2f12d4302d",
      "v": 27,
      "creates": null,
      "raw": "0xf86c80850ce396cb8e8252089432be343b94f860124dc4fee278fdcbd38c102d88888ac301b642431000801ba0b2fa4ef77413c5ebc0a2590988c4c8d02b215d4494096e5afd15451fe8708884a00e9707f602fe463738ecf6b7203f9e3d474e0464fd0ee853125dcc2f12d4302d",
      "networkId": 0,
      "chainId": 0
    },
    {
      "hash": "0xccc3933984eded3e4860e7a19bf2c1748e859bf5a98dbabfdbeaa2b2f48b25c5",
      "blockHash": "0x39942e24847266c9f239e476261d966950431116d85d38042c0b7c3f47fffc7c",
      "blockNumber": 55885,
      "transactionIndex": 5,
      "confirmations": null,
      "from": "0x853Bff007d269E0526E871360d79d69D602770dc",
      "gasPrice": {
        "_hex": "0xce396cb8e"
      },
      "gasLimit": {
        "_hex": "0x5208"
      },
      "to": "0x32Be343B94f860124dC4fEe278FDCBD38C102D88",
      "value": {
        "_hex": "0x2e8ed62114461400"
      },
      "nonce": 0,
      "data": "0x",
      "r": "0x82353a85fc42e983033a1d71bd3ed53cb964115246c283aa7fde133ed1bfcb3c",
      "s": "0x3fc416325c487e9b5bef83c6827358389119001e80b8f07fe4502a351b7a5c57",
      "v": 27,
      "creates": null,
      "raw": "0xf86c80850ce396cb8e8252089432be343b94f860124dc4fee278fdcbd38c102d88882e8ed62114461400801ba082353a85fc42e983033a1d71bd3ed53cb964115246c283aa7fde133ed1bfcb3ca03fc416325c487e9b5bef83c6827358389119001e80b8f07fe4502a351b7a5c57",
      "networkId": 0,
      "chainId": 0
    },
    {
      "hash": "0xf051c2e60905fec56bfb0db40f0b912bf31c961355c96f88d8f170e8542e366c",
      "blockHash": "0x39942e24847266c9f239e476261d966950431116d85d38042c0b7c3f47fffc7c",
      "blockNumber": 55885,
      "transactionIndex": 6,
      "confirmations": null,
      "from": "0x6c716b5177cC5c983057af4D88F7152ebA2CC0a6",
      "gasPrice": {
        "_hex": "0xce396cb8e"
      },
      "gasLimit": {
        "_hex": "0x5208"
      },
      "to": "0x32Be343B94f860124dC4fEe278FDCBD38C102D88",
      "value": {
        "_hex": "0x58958283ed3bec00"
      },
      "nonce": 0,
      "data": "0x",
      "r": "0xe5db9321a6853d3c30d926921e3263e0ab25e9087b4fe86b0798c892660b1f2d",
      "s": "0x2e5ea15253a37fd641ca4b817e6b669150c7376dae6c15691bcce59f576551d3",
      "v": 27,
      "creates": null,
      "raw": "0xf86c80850ce396cb8e8252089432be343b94f860124dc4fee278fdcbd38c102d888858958283ed3bec00801ba0e5db9321a6853d3c30d926921e3263e0ab25e9087b4fe86b0798c892660b1f2da02e5ea15253a37fd641ca4b817e6b669150c7376dae6c15691bcce59f576551d3",
      "networkId": 0,
      "chainId": 0
    },
    {
      "hash": "0x70eeee0a01a78cef61f9c635bdb8f44e2dcdb9fc92593404896acb111ed0cdce",
      "blockHash": "0x39942e24847266c9f239e476261d966950431116d85d38042c0b7c3f47fffc7c",
      "blockNumber": 55885,
      "transactionIndex": 7,
      "confirmations": null,
      "from": "0xCadcea36EC3feB740167E4370777fab1549F8759",
      "gasPrice": {
        "_hex": "0xce396cb8e"
      },
      "gasLimit": {
        "_hex": "0x5208"
      },
      "to": "0x32Be343B94f860124dC4fEe278FDCBD38C102D88",
      "value": {
        "_hex": "0x2e8ccadc4bf2dc00"
      },
      "nonce": 0,
      "data": "0x",
      "r": "0x14a00ae1fc653c48874383786282efac0bdea63c88362506ba71a9e9d473ea0d",
      "s": "0x6f53ea12dc9e3611e85e65fd989d042e367f97a8ff68f762c8c80ece2ad40473",
      "v": 28,
      "creates": null,
      "raw": "0xf86c80850ce396cb8e8252089432be343b94f860124dc4fee278fdcbd38c102d88882e8ccadc4bf2dc00801ca014a00ae1fc653c48874383786282efac0bdea63c88362506ba71a9e9d473ea0da06f53ea12dc9e3611e85e65fd989d042e367f97a8ff68f762c8c80ece2ad40473",
      "networkId": 0,
      "chainId": 0
    },
    {
      "hash": "0x5fdc192a69ea58e244633fb16b9aeb70e53af79142f3f580b66a8f6ec7ea0827",
      "blockHash": "0x39942e24847266c9f239e476261d966950431116d85d38042c0b7c3f47fffc7c",
      "blockNumber": 55885,
      "transactionIndex": 8,
      "confirmations": null,
      "from": "0x556ca325C21e450b2aFf86D9c8eF0Fa371971c97",
      "gasPrice": {
        "_hex": "0xce396cb8e"
      },
      "gasLimit": {
        "_hex": "0x5208"
      },
      "to": "0x32Be343B94f860124dC4fEe278FDCBD38C102D88",
      "value": {
        "_hex": "0x282607601bfde000"
      },
      "nonce": 3,
      "data": "0x",
      "r": "0x866ac52bb3e52f817b49e08a246e4cb6077a04d22ad5b294411533ab5e5fc905",
      "s": "0x487e87701157e6121f9fdc4b6b5cb61e90144e265aa5519588258d8bc268219e",
      "v": 28,
      "creates": null,
      "raw": "0xf86c03850ce396cb8e8252089432be343b94f860124dc4fee278fdcbd38c102d8888282607601bfde000801ca0866ac52bb3e52f817b49e08a246e4cb6077a04d22ad5b294411533ab5e5fc905a0487e87701157e6121f9fdc4b6b5cb61e90144e265aa5519588258d8bc268219e",
      "networkId": 0,
      "chainId": 0
    },
    {
      "hash": "0xc3082cff536840b2bad2e99bce63c7f68562a437ad38bad0f2ff5bc95e0c3a2d",
      "blockHash": "0x39942e24847266c9f239e476261d966950431116d85d38042c0b7c3f47fffc7c",
      "blockNumber": 55885,
      "transactionIndex": 9,
      "confirmations": null,
      "from": "0xe6A7a1d47ff21B6321162AEA7C6CB457D5476Bca",
      "gasPrice": {
        "_hex": "0xcb454df3a"
      },
      "gasLimit": {
        "_hex": "0x55f0"
      },
      "to": "0x051219f568c86EA6DD6Dd2cC8052c31504F33d44",
      "value": {
        "_hex": "0x84ee0189c0347f88"
      },
      "nonce": 433,
      "data": "0x",
      "r": "0x7cf9004aa468ce8027bbcefc018be70729b4dead2d62b08dd15fa75997c99080",
      "s": "0x678c8de6746a71705ed07de74d2abe0b385362bf9ba9e9a16b9da27d3d55aeb5",
      "v": 27,
      "creates": null,
      "raw": "0xf86e8201b1850cb454df3a8255f094051219f568c86ea6dd6dd2cc8052c31504f33d448884ee0189c0347f88801ba07cf9004aa468ce8027bbcefc018be70729b4dead2d62b08dd15fa75997c99080a0678c8de6746a71705ed07de74d2abe0b385362bf9ba9e9a16b9da27d3d55aeb5",
      "networkId": 0,
      "chainId": 0
    },
    {
      "hash": "0x5e24622300084f0bb41a168c6324d1f1f65e97bb41e2ae860ca36765a7171978",
      "blockHash": "0x39942e24847266c9f239e476261d966950431116d85d38042c0b7c3f47fffc7c",
      "blockNumber": 55885,
      "transactionIndex": 10,
      "confirmations": null,
      "from": "0xe6A7a1d47ff21B6321162AEA7C6CB457D5476Bca",
      "gasPrice": {
        "_hex": "0xcb454df3a"
      },
      "gasLimit": {
        "_hex": "0x55f0"
      },
      "to": "0x7aAaa306d4a7Fd1696A82A66cc538D29f5af4e39",
      "value": {
        "_hex": "0x86acc8d5dd19ff50"
      },
      "nonce": 434,
      "data": "0x",
      "r": "0x148f4a742e856aea253c6a2160f3be1d8ed430d2adcd44d39fd23f3d87418964",
      "s": "0x6aa20a87cbb0dce0d7b6068666c9d6702e8c5bb4f4c30aa6e9ba130898b543c8",
      "v": 27,
      "creates": null,
      "raw": "0xf86e8201b2850cb454df3a8255f0947aaaa306d4a7fd1696a82a66cc538d29f5af4e398886acc8d5dd19ff50801ba0148f4a742e856aea253c6a2160f3be1d8ed430d2adcd44d39fd23f3d87418964a06aa20a87cbb0dce0d7b6068666c9d6702e8c5bb4f4c30aa6e9ba130898b543c8",
      "networkId": 0,
      "chainId": 0
    },
    {
      "hash": "0x831c1af599f2aeb74a536446e6c3ee325b9d96ec7993569c837850400dccdd7b",
      "blockHash": "0x39942e24847266c9f239e476261d966950431116d85d38042c0b7c3f47fffc7c",
      "blockNumber": 55885,
      "transactionIndex": 11,
      "confirmations": null,
      "from": "0xe6A7a1d47ff21B6321162AEA7C6CB457D5476Bca",
      "gasPrice": {
        "_hex": "0xcb454df3a"
      },
      "gasLimit": {
        "_hex": "0x55f0"
      },
      "to": "0x94c4f7b5aaF084e74A7611900D93eaDeA47A137F",
      "value": {
        "_hex": "0x871195178276e950"
      },
      "nonce": 435,
      "data": "0x",
      "r": "0x3d8b6f97479a76253fc9dbc14a255747e71d352096d835e473e8d9b90987e38c",
      "s": "0x6a59527f302721ca3511cc0c91764dde814c7e4929f1155a40ed549a61763b1e",
      "v": 28,
      "creates": null,
      "raw": "0xf86e8201b3850cb454df3a8255f09494c4f7b5aaf084e74a7611900d93eadea47a137f88871195178276e950801ca03d8b6f97479a76253fc9dbc14a255747e71d352096d835e473e8d9b90987e38ca06a59527f302721ca3511cc0c91764dde814c7e4929f1155a40ed549a61763b1e",
      "networkId": 0,
      "chainId": 0
    },
    {
      "hash": "0x598dd2797e3bee40cf76f63036ef00f845775c29f4d82ca444bb154298c2b7eb",
      "blockHash": "0x39942e24847266c9f239e476261d966950431116d85d38042c0b7c3f47fffc7c",
      "blockNumber": 55885,
      "transactionIndex": 12,
      "confirmations": null,
      "from": "0xe6A7a1d47ff21B6321162AEA7C6CB457D5476Bca",
      "gasPrice": {
        "_hex": "0xcb454df3a"
      },
      "gasLimit": {
        "_hex": "0x55f0"
      },
      "to": "0x26163E84886A136fC8034eB4e9F1cc00b1D345f1",
      "value": {
        "_hex": "0x8794bbc04c09d848"
      },
      "nonce": 436,
      "data": "0x",
      "r": "0xfa0bcc153be9f29b68dbc71b10946da9f953d7c7d7ac3f22d735e44b87a2f28e",
      "s": "0x5ddf6e9f9c97178d6ba8e06db59dd83ee66d7a4f7036b23554657e60067bdff1",
      "v": 28,
      "creates": null,
      "raw": "0xf86e8201b4850cb454df3a8255f09426163e84886a136fc8034eb4e9f1cc00b1d345f1888794bbc04c09d848801ca0fa0bcc153be9f29b68dbc71b10946da9f953d7c7d7ac3f22d735e44b87a2f28ea05ddf6e9f9c97178d6ba8e06db59dd83ee66d7a4f7036b23554657e60067bdff1",
      "networkId": 0,
      "chainId": 0
    },
    {
      "hash": "0x2011d4789b49d5b3d54ade59e7d4839f68c3c3c93c76288a8433f79e4ea11e8d",
      "blockHash": "0x39942e24847266c9f239e476261d966950431116d85d38042c0b7c3f47fffc7c",
      "blockNumber": 55885,
      "transactionIndex": 13,
      "confirmations": null,
      "from": "0xe6A7a1d47ff21B6321162AEA7C6CB457D5476Bca",
      "gasPrice": {
        "_hex": "0xcb454df3a"
      },
      "gasLimit": {
        "_hex": "0x55f0"
      },
      "to": "0x3234d29E2390E0Ac637B3ad0ACA3dF88aC82dC5d",
      "value": {
        "_hex": "0x887d0f304af1b668"
      },
      "nonce": 437,
      "data": "0x",
      "r": "0x3a41926a72da63b9d25f688911471c83cae0fdd0743bfb0e3667e4736e33dc52",
      "s": "0x5e9b8ffa863393e616fe74818db7d2cec5f15b5f44f45a5ad48608ba973ba3f1",
      "v": 27,
      "creates": null,
      "raw": "0xf86e8201b5850cb454df3a8255f0943234d29e2390e0ac637b3ad0aca3df88ac82dc5d88887d0f304af1b668801ba03a41926a72da63b9d25f688911471c83cae0fdd0743bfb0e3667e4736e33dc52a05e9b8ffa863393e616fe74818db7d2cec5f15b5f44f45a5ad48608ba973ba3f1",
      "networkId": 0,
      "chainId": 0
    },
    {
      "hash": "0x09379f9d6d98df75905c68ff0e72eae8bd3ea49713f72f3c2bf38fb29af3b522",
      "blockHash": "0x39942e24847266c9f239e476261d966950431116d85d38042c0b7c3f47fffc7c",
      "blockNumber": 55885,
      "transactionIndex": 14,
      "confirmations": null,
      "from": "0xe6A7a1d47ff21B6321162AEA7C6CB457D5476Bca",
      "gasPrice": {
        "_hex": "0xcb454df3a"
      },
      "gasLimit": {
        "_hex": "0x55f0"
      },
      "to": "0xD924AAC0bCB65C13bE4044f6BeA8aAe34D7a7126",
      "value": {
        "_hex": "0x918b5056f8d8f6f0"
      },
      "nonce": 438,
      "data": "0x",
      "r": "0x75c7dc22c7e6ba61428ac8dae16ac33d8a37e4b0df90d49a9a3929719d856501",
      "s": "0x56793be8a432c82e6f898681562d92481a38da37a323762f2fae2d8835672bb4",
      "v": 28,
      "creates": null,
      "raw": "0xf86e8201b6850cb454df3a8255f094d924aac0bcb65c13be4044f6bea8aae34d7a712688918b5056f8d8f6f0801ca075c7dc22c7e6ba61428ac8dae16ac33d8a37e4b0df90d49a9a3929719d856501a056793be8a432c82e6f898681562d92481a38da37a323762f2fae2d8835672bb4",
      "networkId": 0,
      "chainId": 0
    },
    {
      "hash": "0x3d887bf6bfe1811efc92900cce2a442984472432dccc391afd536c66a9c17424",
      "blockHash": "0x39942e24847266c9f239e476261d966950431116d85d38042c0b7c3f47fffc7c",
      "blockNumber": 55885,
      "transactionIndex": 15,
      "confirmations": null,
      "from": "0xe6A7a1d47ff21B6321162AEA7C6CB457D5476Bca",
      "gasPrice": {
        "_hex": "0xcb454df3a"
      },
      "gasLimit": {
        "_hex": "0x55f0"
      },
      "to": "0xB700725f1574c1E333F41f81bd84cAe05d934dbC",
      "value": {
        "_hex": "0x931db4b3beff7918"
      },
      "nonce": 439,
      "data": "0x",
      "r": "0xcdff2a157de8ec05f03a95971a659f09cc8efc3ad55f7e8bfec4d212db61050d",
      "s": "0x045b0215ff0b3553ddec236755658c18a969741264094262f02a86885d2ea750",
      "v": 28,
      "creates": null,
      "raw": "0xf86e8201b7850cb454df3a8255f094b700725f1574c1e333f41f81bd84cae05d934dbc88931db4b3beff7918801ca0cdff2a157de8ec05f03a95971a659f09cc8efc3ad55f7e8bfec4d212db61050da0045b0215ff0b3553ddec236755658c18a969741264094262f02a86885d2ea750",
      "networkId": 0,
      "chainId": 0
    },
    {
      "hash": "0x5b9d9a0abd77beba5f29438fa9fcc25a424d2aa24c7f23788177c4123fa4f7ae",
      "blockHash": "0x39942e24847266c9f239e476261d966950431116d85d38042c0b7c3f47fffc7c",
      "blockNumber": 55885,
      "transactionIndex": 16,
      "confirmations": null,
      "from": "0xe6A7a1d47ff21B6321162AEA7C6CB457D5476Bca",
      "gasPrice": {
        "_hex": "0xcb454df3a"
      },
      "gasLimit": {
        "_hex": "0x55f0"
      },
      "to": "0x2a53CDf1BD82971A0383522D9D2D20eabB832143",
      "value": {
        "_hex": "0x962ffa3ff03f7730"
      },
      "nonce": 440,
      "data": "0x",
      "r": "0x5abd9ec86206016f4a67534421c4505230b78b3c0d2031e2cc2bb90d6d862847",
      "s": "0x0f4037349c385d17e15dab615a6488d2b7a695f95fdd6ca98cbdfc76f66d3b99",
      "v": 27,
      "creates": null,
      "raw": "0xf86e8201b8850cb454df3a8255f0942a53cdf1bd82971a0383522d9d2d20eabb83214388962ffa3ff03f7730801ba05abd9ec86206016f4a67534421c4505230b78b3c0d2031e2cc2bb90d6d862847a00f4037349c385d17e15dab615a6488d2b7a695f95fdd6ca98cbdfc76f66d3b99",
      "networkId": 0,
      "chainId": 0
    },
    {
      "hash": "0x79132da5ec7e387d7404c98bf84761fd68d3c1a9a16da0355429858ef407ec44",
      "blockHash": "0x39942e24847266c9f239e476261d966950431116d85d38042c0b7c3f47fffc7c",
      "blockNumber": 55885,
      "transactionIndex": 17,
      "confirmations": null,
      "from": "0xe6A7a1d47ff21B6321162AEA7C6CB457D5476Bca",
      "gasPrice": {
        "_hex": "0xcb454df3a"
      },
      "gasLimit": {
        "_hex": "0x55f0"
      },
      "to": "0x7CdE613438e85F25D299265Ab4bB2b4015fe2BD1",
      "value": {
        "_hex": "0x9b04180cb1cb0ff0"
      },
      "nonce": 441,
      "data": "0x",
      "r": "0x776d00bdcdada9da072915f8263d8d0ef9d54f9d7fc9338a71bbf5653be94866",
      "s": "0x4878f1b3a6de17fd5c5412468ff9ea89f55b958244f712c7f1f07c96c7e56671",
      "v": 28,
      "creates": null,
      "raw": "0xf86e8201b9850cb454df3a8255f0947cde613438e85f25d299265ab4bb2b4015fe2bd1889b04180cb1cb0ff0801ca0776d00bdcdada9da072915f8263d8d0ef9d54f9d7fc9338a71bbf5653be94866a04878f1b3a6de17fd5c5412468ff9ea89f55b958244f712c7f1f07c96c7e56671",
      "networkId": 0,
      "chainId": 0
    },
    {
      "hash": "0xe3504e17c7b667b5553d1b2b9b4a00ff1f17eb4b670c5a5d0252837a18cd0971",
      "blockHash": "0x39942e24847266c9f239e476261d966950431116d85d38042c0b7c3f47fffc7c",
      "blockNumber": 55885,
      "transactionIndex": 18,
      "confirmations": null,
      "from": "0xe6A7a1d47ff21B6321162AEA7C6CB457D5476Bca",
      "gasPrice": {
        "_hex": "0xcb454df3a"
      },
      "gasLimit": {
        "_hex": "0x55f0"
      },
      "to": "0x72B04597570ca1Bd15727a8a23D7df9D432530b1",
      "value": {
        "_hex": "0x9c555b713a657720"
      },
      "nonce": 442,
      "data": "0x",
      "r": "0x7d2d567160162d3f31fb3de1d9a93a60b65e015bd3cb481b95690ede57a570a1",
      "s": "0x7db401d5fb8e535952d5426048df64a03b09088cf8dc33365b9d8ea57ca35a9b",
      "v": 27,
      "creates": null,
      "raw": "0xf86e8201ba850cb454df3a8255f09472b04597570ca1bd15727a8a23d7df9d432530b1889c555b713a657720801ba07d2d567160162d3f31fb3de1d9a93a60b65e015bd3cb481b95690ede57a570a1a07db401d5fb8e535952d5426048df64a03b09088cf8dc33365b9d8ea57ca35a9b",
      "networkId": 0,
      "chainId": 0
    },
    {
      "hash": "0x232400a14e249c16b3631ac81657c8fab45402af9e535d6b8995ea0f4288fb32",
      "blockHash": "0x39942e24847266c9f239e476261d966950431116d85d38042c0b7c3f47fffc7c",
      "blockNumber": 55885,
      "transactionIndex": 19,
      "confirmations": null,
      "from": "0xe6A7a1d47ff21B6321162AEA7C6CB457D5476Bca",
      "gasPrice": {
        "_hex": "0xcb454df3a"
      },
      "gasLimit": {
        "_hex": "0x55f0"
      },
      "to": "0xFEE35B63dDf7Dc99780822995745dFc245a58fb3",
      "value": {
        "_hex": "0x9f52b04365b9c738"
      },
      "nonce": 443,
      "data": "0x",
      "r": "0xada01d363cb49f02a3b3e5481d5b1a44b63354fea454b79fd5510879869f7a51",
      "s": "0x13b637237a22775900880fb467461b114a2bdde5ed0ff132801252837747acf2",
      "v": 27,
      "creates": null,
      "raw": "0xf86e8201bb850cb454df3a8255f094fee35b63ddf7dc99780822995745dfc245a58fb3889f52b04365b9c738801ba0ada01d363cb49f02a3b3e5481d5b1a44b63354fea454b79fd5510879869f7a51a013b637237a22775900880fb467461b114a2bdde5ed0ff132801252837747acf2",
      "networkId": 0,
      "chainId": 0
    },
    {
      "hash": "0x395de8d0ae5d7061535bc194236e3e06a3f7e14c6dffde81ff0a9016c1b76962",
      "blockHash": "0x39942e24847266c9f239e476261d966950431116d85d38042c0b7c3f47fffc7c",
      "blockNumber": 55885,
      "transactionIndex": 20,
      "confirmations": null,
      "from": "0xe6A7a1d47ff21B6321162AEA7C6CB457D5476Bca",
      "gasPrice": {
        "_hex": "0xcb454df3a"
      },
      "gasLimit": {
        "_hex": "0x55f0"
      },
      "to": "0x430F8F6FDc140D44d9c99dA1f0A0e7ea541DB4b0",
      "value": {
        "_hex": "0xa06403ac366c16d8"
      },
      "nonce": 444,
      "data": "0x",
      "r": "0x34d6a2e68e8ce1105b0fb41d6029dca4fda25cdd7348545eef901bd7a070751a",
      "s": "0x270a46520017d8eeaa21c2592c4ab8be27a54c5d32bfb4dd51c3cff8e3fdee9e",
      "v": 27,
      "creates": null,
      "raw": "0xf86e8201bc850cb454df3a8255f094430f8f6fdc140d44d9c99da1f0a0e7ea541db4b088a06403ac366c16d8801ba034d6a2e68e8ce1105b0fb41d6029dca4fda25cdd7348545eef901bd7a070751aa0270a46520017d8eeaa21c2592c4ab8be27a54c5d32bfb4dd51c3cff8e3fdee9e",
      "networkId": 0,
      "chainId": 0
    },
    {
      "hash": "0xa7a25ff93c6b1297e3d28dcb5d76d71ccb61d3a3f69ab36f8f4b0cd625425a3d",
      "blockHash": "0x39942e24847266c9f239e476261d966950431116d85d38042c0b7c3f47fffc7c",
      "blockNumber": 55885,
      "transactionIndex": 21,
      "confirmations": null,
      "from": "0xe6A7a1d47ff21B6321162AEA7C6CB457D5476Bca",
      "gasPrice": {
        "_hex": "0xcb454df3a"
      },
      "gasLimit": {
        "_hex": "0x55f0"
      },
      "to": "0x24D0A28C70BAC94698980F2c297Ee1Cf505F06cB",
      "value": {
        "_hex": "0xa1c7db387a3e1a00"
      },
      "nonce": 445,
      "data": "0x",
      "r": "0xc4da348526d33606b335fb73f5b5b776e9841608bee6e40a0bbed91344dbf084",
      "s": "0x136977519f9fbf203116b76a5acc65b3a16e400e7c645ac89213f9be22c892a1",
      "v": 28,
      "creates": null,
      "raw": "0xf86e8201bd850cb454df3a8255f09424d0a28c70bac94698980f2c297ee1cf505f06cb88a1c7db387a3e1a00801ca0c4da348526d33606b335fb73f5b5b776e9841608bee6e40a0bbed91344dbf084a0136977519f9fbf203116b76a5acc65b3a16e400e7c645ac89213f9be22c892a1",
      "networkId": 0,
      "chainId": 0
    },
    {
      "hash": "0xd49cb1cf24ecb6ac6e65f501099fa653950fec4db2148fb940594bdf0980eaab",
      "blockHash": "0x39942e24847266c9f239e476261d966950431116d85d38042c0b7c3f47fffc7c",
      "blockNumber": 55885,
      "transactionIndex": 22,
      "confirmations": null,
      "from": "0xe6A7a1d47ff21B6321162AEA7C6CB457D5476Bca",
      "gasPrice": {
        "_hex": "0xcb454df3a"
      },
      "gasLimit": {
        "_hex": "0x55f0"
      },
      "to": "0x49DC75D11428d1D718FC7b71941B71ae6F8bfA3C",
      "value": {
        "_hex": "0xa239d140fa63b6c0"
      },
      "nonce": 446,
      "data": "0x",
      "r": "0xf395009908485b64633de3088c2ac280852c7df2ccdd23e81280f8e3313304a2",
      "s": "0x098ea4d9a16d830c5f78470e1da7747c093a0c007185040b0e6f25c50746aecf",
      "v": 27,
      "creates": null,
      "raw": "0xf86e8201be850cb454df3a8255f09449dc75d11428d1d718fc7b71941b71ae6f8bfa3c88a239d140fa63b6c0801ba0f395009908485b64633de3088c2ac280852c7df2ccdd23e81280f8e3313304a2a0098ea4d9a16d830c5f78470e1da7747c093a0c007185040b0e6f25c50746aecf",
      "networkId": 0,
      "chainId": 0
    },
    {
      "hash": "0x81f3a151a973550c35b55f3ca857866bceead463750ae50f5593e492366e44d4",
      "blockHash": "0x39942e24847266c9f239e476261d966950431116d85d38042c0b7c3f47fffc7c",
      "blockNumber": 55885,
      "transactionIndex": 23,
      "confirmations": null,
      "from": "0xe6A7a1d47ff21B6321162AEA7C6CB457D5476Bca",
      "gasPrice": {
        "_hex": "0xcb454df3a"
      },
      "gasLimit": {
        "_hex": "0x55f0"
      },
      "to": "0x05a56E2D52c817161883f50c441c3228CFe54d9f",
      "value": {
        "_hex": "0xa2c122cefea63110"
      },
      "nonce": 447,
      "data": "0x",
      "r": "0xccdca89f4257336c1ee8e04c3b4351451af9ff8de172f18311f8e9709c06f4ae",
      "s": "0x4a2d0cd93289b296da5d8cac5f2621c31625f970fcabda50d4ba464db8d83091",
      "v": 27,
      "creates": null,
      "raw": "0xf86e8201bf850cb454df3a8255f09405a56e2d52c817161883f50c441c3228cfe54d9f88a2c122cefea63110801ba0ccdca89f4257336c1ee8e04c3b4351451af9ff8de172f18311f8e9709c06f4aea04a2d0cd93289b296da5d8cac5f2621c31625f970fcabda50d4ba464db8d83091",
      "networkId": 0,
      "chainId": 0
    }
  ]
}