{
  "hash": "0xf8e15a3ab782b42b40ace150ada5295e117c935fe180dce1cd3641fc9bb9f030",
  "parentHash": "0x84747dce64f89946d64bc08745debafdd5af2f630ea0255cd3f29420622ceabb",
  "number": 107177,
  "timestamp": 1439917586,
  "nonce": "0x6fbaee836643470c",
  "difficulty": 4450565337847,
  "gasLimit": {
    "_hex": "0x2fefd8"
  },
  "gasUsed": {
    "_hex": "0x5208"
  },
  "miner": "0xaB638742EBe3A78F2a85028350e1AADB86C0a6ed",
  "extraData": "0x",
  "transactions": [
    {
      "hash": "0x73ed387a2635941d6483742bb45ccf2b27466aee8d99075106e03d189fde9f8b",
      "blockHash": "0xf8e15a3ab782b42b40ace150ada5295e117c935fe180dce1cd3641fc9bb9f030",
      "blockNumber": 107177,
      "transactionIndex": 0,
      "confirmations": null,
      "from": "0x6724EFf089f9dD79c381137DF68678bD574B37e0",
      "gasPrice": {
        "_hex": "0xd5601e191"
      },
      "gasLimit": {
        "_hex": "0x5208"
      },
      "to": "0x32Be343B94f860124dC4fEe278FDCBD38C102D88",
      "value": {
        "_hex": "0x2fb42eeda1f75a000"
      },
      "nonce": 5,
      "data": "0x",
      "r": "0x05c69659e3fd04d1b805b639fb09a98fde0b6ec4d337320e3f6653e14bb86e0e",
      "s": "0x6baa7c3d2c15f532174e12616c01c0c4cfdbbdc476a8c83df1fe50ab933f01a4",
      "v": 27,
      "creates": null,
      "raw": "0xf86d05850d5601e1918252089432be343b94f860124dc4fee278fdcbd38c102d888902fb42eeda1f75a000801ba005c69659e3fd04d1b805b639fb09a98fde0b6ec4d337320e3f6653e14bb86e0ea06baa7c3d2c15f532174e12616c01c0c4cfdbbdc476a8c83df1fe50ab933f01a4",
      "networkId": 0,
      "chainId": 0
    }
  ]
}