{
  "hash": "0x1f76a7d1f490458a5b4f6b37c428ff453faadfb32d111cdb2002f69fbf8cfe4b",
  "parentHash": "0xb558f46216d4a6a6fea9fb9574708d722ab001747b2ba4f1c0fd1050126e007e",
  "number": 64692,
  "timestamp": 1439224946,
  "nonce": "0xbf82ede8a3e4db47",
  "difficulty": 1883910322381,
  "gasLimit": {
    "_hex": "0x2fefd8"
  },
  "gasUsed": {
    "_hex": "0xa410"
  },
  "miner": "0x5B40711F65053004dc86F296Dd8F09862E00998F",
  "extraData": "0x476574682f76312e302e312d38326566323666362f6c696e75782f676f312e34",
  "transactions": [
    {
      "hash": "0x8b2f83b988eb5cf5267254cde624e90c0decbf4f67dfbed395fc555acb344f58",
      "blockHash": "0x1f76a7d1f490458a5b4f6b37c428ff453faadfb32d111cdb2002f69fbf8cfe4b",
      "blockNumber": 64692,
      "transactionIndex": 0,
      "confirmations": null,
      "from": "0x120A270bbC009644e35F0bB6ab13f95b8199c4ad",
      "gasPrice": {
        "_hex": "0xcc13b20ec"
      },
      "gasLimit": {
        "_hex": "0x15f90"
      },
      "to": "0x26eAB902725342208bC79c5Bfa2C5fE795f7aeD6",
      "value": {
        "_hex": "0x5b12aefafa8040000"
      },
      "nonce": 115,
      "data": "0x",
      "r": "0x8407a9abcdddaedce83c1709f87bb3d4c1dbe83415430555ab02bf0f95f8b6ec",
      "s": "0x39c3abdff34d470bc255f2e4a6f24b4ceaebf8629593ea6a795718e1d0725e55",
      "v": 27,
      "creates": null,
      "raw": "0xf86e73850cc13b20ec83015f909426eab902725342208bc79c5bfa2c5fe795f7aed68905b12aefafa8040000801ba08407a9abcdddaedce83c1709f87bb3d4c1dbe83415430555ab02bf0f95f8b6eca039c3abdff34d470bc255f2e4a6f24b4ceaebf8629593ea6a795718e1d0725e55",
      "networkId": 0,
      "chainId": 0
    },
    {
      "hash": "0x2b97cda457132314b8fc53176f231748ad0f167373d689c98549c73319a636d3",
      "blockHash": "0x1f76a7d1f490458a5b4f6b37c428ff453faadfb32d111cdb2002f69fbf8cfe4b",
      "blockNumber": 64692,
      "transactionIndex": 1,
      "confirmations": null,
      "from": "0x281441cE483E8b646a75dC31437F5bD68147aa0A",
      "gasPrice": {
        "_hex": "0xba43b7400"
      },
      "gasLimit": {
        "_hex": "0x5208"
      },
      "to": "0x6747f922385c9a6F9cfDf095F34345257DD597bE",
      "value": {
        "_hex": "0x13572147582a000"
      },
      "nonce": 1,
      "data": "0x",
      "r": "0xe62f10e620d522ff663664ce0880f4e5487987b71550cc46f7cbd846b269dcff",
      "s": "0x387b5e5c68a97d8a1383786861be2af50b1b0bc2cc864282327e5778df4f189a",
      "v": 28,
      "creates": null,
      "raw": "0xf86c01850ba43b7400825208946747f922385c9a6f9cfdf095f34345257dd597be88013572147582a000801ca0e62f10e620d522ff663664ce0880f4e5487987b71550cc46f7cbd846b269dcffa0387b5e5c68a97d8a1383786861be2af50b1b0bc2cc864282327e5778df4f189a",
      "networkId": 0,
      "chainId": 0
    }
  ]
}