{
  "hash": "0x5d4d2ff3f834ac23b86938c8922c1c5cd98e0cac69eeaf1a7f9897c19ec57cb6",
  "parentHash": "0x649fa80df79f09580f201370334c19025f787fafcab1edcde35af25eef214ac3",
  "number": 50492,
  "timestamp": 1438990167,
  "nonce": "0xcf6c7e8661d43a8f",
  "difficulty": 1508943168523,
  "gasLimit": {
    "_hex": "0x66347"
  },
  "gasUsed": {
    "_hex": "0x204eb"
  },
  "miner": "0x123843545FB525C8E134c9A5F15ADA6865cc3848",
  "extraData": "0x476574682f76312e302e312f77696e646f77732f676f312e342e32",
  "transactions": [
    {
      "hash": "0xe1d3536ee657870436af99ed5337576d9079e53aaa02ef5727896868f984f197",
      "blockHash": "0x5d4d2ff3f834ac23b86938c8922c1c5cd98e0cac69eeaf1a7f9897c19ec57cb6",
      "blockNumber": 50492,
      "transactionIndex": 0,
      "confirmations": null,
      "from": "0x7a381122BADa791A7AB1F6037dAC80432753BaAd",
      "gasPrice": {
        "_hex": "0xd98cdeb56"
      },
      "gasLimit": {
        "_hex": "0x493e0"
      },
      "to": "0x6e38A457C722C6011B2dfa06d49240e797844d66",
      "value": {
        "_hex": "0x0"
      },
      "nonce": 0,
      "data": "0xf3fe12c90000000000000000000000000000000000000000000000000000000000000020000000000000000000000000000000000000000000000000000000000000003c496e206d656d6f7279206f66204ec3b36972c3ad6e20506c756e6b6574742c207061737365642061776179204a756c7920323874682c20323031352e00000000",
      "r": "0x3264e46ce3c96e772c77c8a8bcc768b9fbcee22986e833195d8ebdf177cce874",
      "s": "0x4fe0acb27563a780b897c29f4bdf6ace27a9dc49ba26c564ebc12b0922c52519",
      "v": 27,
      "creates": null,
      "raw": "0xf8ea80850d98cdeb56830493e0946e38a457c722c6011b2dfa06d49240e797844d6680b884f3fe12c90000000000000000000000000000000000000000000000000000000000000020000000000000000000000000000000000000000000000000000000000000003c496e206d656d6f7279206f66204ec3b36972c3ad6e20506c756e6b6574742c207061737365642061776179204a756c7920323874682c20323031352e000000001ba03264e46ce3c96e772c77c8a8bcc768b9fbcee22986e833195d8ebdf177cce874a04fe0acb27563a780b897c29f4bdf6ace27a9dc49ba26c564ebc12b0922c52519",
      "networkId": 0,
      "chainId": 0
    }
  ]
}