{
  "hash": "0x409b3f0951b8716a0b990750d263660dde55449c739550d9874368ead584724e",
  "parentHash": "0x47358577273712be61aab203f21928ea6fc5ecab7a9a4c560cdeb15ab9cfba31",
  "number": 111298,
  "timestamp": 1439987911,
  "nonce": "0xe89bdd37ec9427c1",
  "difficulty": 4402999273244,
  "gasLimit": {
    "_hex": "0x2fefd8"
  },
  "gasUsed": {
    "_hex": "0x5208"
  },
  "miner": "0x580992B51e3925e23280EfB93d3047C82f17E038",
  "extraData": "0x476574682f76312e302e312f6c696e75782f676f312e342e32",
  "transactions": [
    {
      "hash": "0x9b89cbe8b739bac789f046980afca9026d3b368c8845a2e11dd4f12d5628b958",
      "blockHash": "0x409b3f0951b8716a0b990750d263660dde55449c739550d9874368ead584724e",
      "blockNumber": 111298,
      "transactionIndex": 0,
      "confirmations": null,
      "from": "0x40B9b889A21Ff1534d018D71Dc406122EBcf3F5A",
      "gasPrice": {
        "_hex": "0x1171b6d21f6"
      },
      "gasLimit": {
        "_hex": "0x15f90"
      },
      "to": "0x2f86ba8019945f39edE131D38d4d8780884DA553",
      "value": {
        "_hex": "0x3635c9adc5dea00000"
      },
      "nonce": 58,
      "data": "0x",
      "r": "0x8869044f2a0d7b6a2afb9986d24a135d0b204d3fc48124650644b60bbebc08cd",
      "s": "0x124f183c52cae10d4111de6feba93201d66bea43b54a25dde14944785cad1a8a",
      "v": 27,
      "creates": null,
      "raw": "0xf86f3a8601171b6d21f683015f90942f86ba8019945f39ede131d38d4d8780884da553893635c9adc5dea00000801ba08869044f2a0d7b6a2afb9986d24a135d0b204d3fc48124650644b60bbebc08cda0124f183c52cae10d4111de6feba93201d66bea43b54a25dde14944785cad1a8a",
      "networkId": 0,
      "chainId": 0
    }
  ]
}