{
  "hash": "0xaa31b41abf02a37351952f40d28762c0e2822aff6281d5db020ff3afdf6c359e",
  "parentHash": "0xe480e613f0ea366d6fc88448d799a3f98768fcac9821b031cacbca03839bb8b6",
  "number": 106754,
  "timestamp": 1439909980,
  "nonce": "0xc08b04247b03edf3",
  "difficulty": 4444274826398,
  "gasLimit": {
    "_hex": "0x2fefd8"
  },
  "gasUsed": {
    "_hex": "0x5208"
  },
  "miner": "0x9e7Af5aB314Fb84134D3995B05Ec5aC9cf78Fa04",
  "extraData": "0x476574682f76312e302e312f6c696e75782f676f312e342e32",
  "transactions": [
    {
      "hash": "0xc5167024060b5bc4f686e92d890e14edaa404a3bbf6d7eee4f526b984017fb9a",
      "blockHash": "0xaa31b41abf02a37351952f40d28762c0e2822aff6281d5db020ff3afdf6c359e",
      "blockNumber": 106754,
      "transactionIndex": 0,
      "confirmations": null,
      "from": "0xd70c667add50d3d9989Ef58A81a698c09f415Bff",
      "gasPrice": {
        "_hex": "0xda3fa20a5"
      },
      "gasLimit": {
        "_hex": "0x15f90"
      },
      "to": "0x3a35269a1cF41344F2288e9D11bA854991112015",
      "value": {
        "_hex": "0x6763b78738a90000"
      },
      "nonce": 20,
      "data": "0x",
      "r": "0xea82dbee672ec36e345efb838419eb8936e193fbb4d6bca6a860d2b15e34685a",
      "s": "0x262d43ff4edb56e64e6f31f835202b42b722cdbef8a713b4196dd9ecce052673",
      "v": 28,
      "creates": null,
      "raw": "0xf86d14850da3fa20a583015f90943a35269a1cf41344f2288e9d11ba854991112015886763b78738a90000801ca0ea82dbee672ec36e345efb838419eb8936e193fbb4d6bca6a860d2b15e34685aa0262d43ff4edb56e64e6f31f835202b42b722cdbef8a713b4196dd9ecce052673",
      "networkId": 0,
      "chainId": 0
    }
  ]
}