{
  "hash": "0x213823231f013ec8383b8c94477f189ab78236865ac0d83c4e0c1ff719454abc",
  "parentHash": "0x114c151ad278a9dc201a738f4c155c742589cf3ffb9e6a4e21192730a72a05d1",
  "number": 102757,
  "timestamp": 1439842743,
  "nonce": "0xda2c224ba3d714e6",
  "difficulty": 4038614863842,
  "gasLimit": {
    "_hex": "0x2fefd8"
  },
  "gasUsed": {
    "_hex": "0x5208"
  },
  "miner": "0xe6A7a1d47ff21B6321162AEA7C6CB457D5476Bca",
  "extraData": "0x476574682f76312e302e312d38326566323666362f6c696e75782f676f312e34",
  "transactions": [
    {
      "hash": "0x265a917cf5491497818ad27fda0d8ff6fd7f3d21fbe6e31ccfcef0e94cc45e36",
      "blockHash": "0x213823231f013ec8383b8c94477f189ab78236865ac0d83c4e0c1ff719454abc",
      "blockNumber": 102757,
      "transactionIndex": 0,
      "confirmations": null,
      "from": "0x1E4387b1741bDBb2666946C77858126bBBe2A7E1",
      "gasPrice": {
        "_hex": "0xba43b7400"
      },
      "gasLimit": {
        "_hex": "0x5208"
      },
      "to": "0x2488Ed997e45690030eb4213EFb4045Cc475B0Bd",
      "value": {
        "_hex": "0xddcfbbb7a606000"
      },
      "nonce": 0,
      "data": "0x",
      "r": "0x2c7dcc04ae5803398904455c6469fe6deee64c99f9281676aa75a5be24e49b52",
      "s": "0x41d9a2bbc15239144e4c2ed6abbc728460daf63a3073f7cece9035f301ee5c60",
      "v": 28,
      "creates": null,
      "raw": "0xf86c80850ba43b7400825208942488ed997e45690030eb4213efb4045cc475b0bd880ddcfbbb7a606000801ca02c7dcc04ae5803398904455c6469fe6deee64c99f9281676aa75a5be24e49b52a041d9a2bbc15239144e4c2ed6abbc728460daf63a3073f7cece9035f301ee5c60",
      "networkId": 0,
      "chainId": 0
    }
  ]
}