{
  "hash": "0xf72d7ef7282ffbef5dde18f939136aa9f2d11fe205ccbaba676b07acc64a2404",
  "parentHash": "0x3d62169c5f6ce45399e803e9364031d886f04bf8c597ff864f346edc66307aaf",
  "number": 100880,
  "timestamp": 1439813861,
  "nonce": "0x3712bb56ae16d8f3",
  "difficulty": 3863957573301,
  "gasLimit": {
    "_hex": "0x2fefd8"
  },
  "gasUsed": {
    "_hex": "0xa410"
  },
  "miner": "0x62b0559efe3a073EDfe78bBe7CB491A6C65F0806",
  "extraData": "0x476574682f76312e302e312d37666266393930632f6c696e75782f676f312e34",
  "transactions": [
    {
      "hash": "0x3c7679b11bc204723061de92d3525779ca5792637f1af8c618dc05dc0bd26e98",
      "blockHash": "0xf72d7ef7282ffbef5dde18f939136aa9f2d11fe205ccbaba676b07acc64a2404",
      "blockNumber": 100880,
      "transactionIndex": 0,
      "confirmations": null,
      "from": "0xFAc1B5968b6CC27786d1A28c3E360B8c421569B9",
      "gasPrice": {
        "_hex": "0xd8351369a"
      },
      "gasLimit": {
        "_hex": "0x5208"
      },
      "to": "0x32Be343B94f860124dC4fEe278FDCBD38C102D88",
      "value": {
        "_hex": "0x35ece7c93c4cbc00"
      },
      "nonce": 6,
      "data": "0x",
      "r": "0x929c1868bc5bd22f7af48520bb78856a7011eefba971228fc9e28df7f32c74cf",
      "s": "0x14c200846e6a27c77454c16001488f03c566aa154017543f36900df5c67d0a9c",
      "v": 27,
      "creates": null,
      "raw": "0xf86c06850d8351369a8252089432be343b94f860124dc4fee278fdcbd38c102d888835ece7c93c4cbc00801ba0929c1868bc5bd22f7af48520bb78856a7011eefba971228fc9e28df7f32c74cfa014c200846e6a27c77454c16001488f03c566aa154017543f36900df5c67d0a9c",
      "networkId": 0,
      "chainId": 0
    },
    {
      "hash": "0xf754159b046f0dc681ab353bacccc7bb9a1d197219eb079b51b10a10c93fffa2",
      "blockHash": "0xf72d7ef7282ffbef5dde18f939136aa9f2d11fe205ccbaba676b07acc64a2404",
      "blockNumber": 100880,
      "transactionIndex": 1,
      "confirmations": null,
      "from": "0xb1abce2918E21ddb93AA452731a12672A3d9F75a",
      "gasPrice": {
        "_hex": "0xd8351369a"
      },
      "gasLimit": {
        "_hex": "0x5208"
      },
      "to": "0x32Be343B94f860124dC4fEe278FDCBD38C102D88",
      "value": {
        "_hex": "0x455f3d069bf28400"
      },
      "nonce": 78,
      "data": "0x",
      "r": "0xb046849db56b393dc9ec7275b10363e2d5901d4fe91ed754aa81344c9d0448d1",
      "s": "0x10374903717a1d0ba020d00080e085efbbb395782dc18b6e496021090146a7fe",
      "v": 28,
      "creates": null,
      "raw": "0xf86c4e850d8351369a8252089432be343b94f860124dc4fee278fdcbd38c102d8888455f3d069bf28400801ca0b046849db56b393dc9ec7275b10363e2d5901d4fe91ed754aa81344c9d0448d1a010374903717a1d0ba020d00080e085efbbb395782dc18b6e496021090146a7fe",
      "networkId": 0,
      "chainId": 0
    }
  ]
}