{
  "hash": "0x5ab8936dc4b34c529f9686566896c5359171abff44dab1ffa522de2f60a66b76",
  "parentHash": "0x880e481ca2932019f69e87c9d3c310aa0e860816a63f1f11618356d9ea64ae17",
  "number": 69801,
  "timestamp": 1439309824,
  "nonce": "0x79ba56620a85241b",
  "difficulty": 2101400075162,
  "gasLimit": {
    "_hex": "0x2fefd8"
  },
  "gasUsed": {
    "_hex": "0x5208"
  },
  "miner": "0x5F8F73E26CdF436f19Cb24C82F90A15AFe55b592",
  "extraData": "0x476574682f76312e302e312f77696e646f77732f676f312e342e32",
  "transactions": [
    {
      "hash": "0x8a909690a840798b4eddbfdd1c99a1dbd2bcd4a3d9618df8ad4676e35c384e5d",
      "blockHash": "0x5ab8936dc4b34c529f9686566896c5359171abff44dab1ffa522de2f60a66b76",
      "blockNumber": 69801,
      "transactionIndex": 0,
      "confirmations": null,
      "from": "0x2910543Af39abA0Cd09dBb2D50200b3E800A63D2",
      "gasPrice": {
        "_hex": "0xdb366f667"
      },
      "gasLimit": {
        "_hex": "0x5208"
      },
      "to": "0xE57399f2Eea4ba6d2B4139b1190F5BE1E9880ABe",
      "value": {
        "_hex": "0xdcef33a6f838000"
      },
      "nonce": 228,
      "data": "0x",
      "r": "0x0b9164b13f0052fe1443a107c9cce769b1a28a3c3098ac759b9122e78d6b50a2",
      "s": "0x7a61e6637e809e9d4541e06e207971a62b8343bb4e5c262acb484307635fafc2",
      "v": 27,
      "creates": null,
      "raw": "0xf86d81e4850db366f66782520894e57399f2eea4ba6d2b4139b1190f5be1e9880abe880dcef33a6f838000801ba00b9164b13f0052fe1443a107c9cce769b1a28a3c3098ac759b9122e78d6b50a2a07a61e6637e809e9d4541e06e207971a62b8343bb4e5c262acb484307635fafc2",
      "networkId": 0,
      "chainId": 0
    }
  ]
}