{
  "hash": "0xdfb2690533587dcaba10fb38069dfd97af24c3d576e97da647c2a191eb9730ca",
  "parentHash": "0x2f185052c19e676db6b40b50c1ee3386676d0b488b5377b1a9850e8e9227b1e3",
  "number": 98486,
  "timestamp": 1439773619,
  "nonce": "0x59d6c392a81793f6",
  "difficulty": 3868836771198,
  "gasLimit": {
    "_hex": "0x2fefd8"
  },
  "gasUsed": {
    "_hex": "0xb3718"
  },
  "miner": "0x3D5292e9d2a2D31014717ff936A0F9375A5Cc8b7",
  "extraData": "0x476574682f76312e302e312f77696e646f77732f676f312e342e32",
  "transactions": [
    {
      "hash": "0xed7ff7769c9bd785f2fa65b0e0d1f721d55353e97b9294b8c17038fb42b53436",
      "blockHash": "0xdfb2690533587dcaba10fb38069dfd97af24c3d576e97da647c2a191eb9730ca",
      "blockNumber": 98486,
      "transactionIndex": 0,
      "confirmations": null,
      "from": "0x007f7f58D3eb5b7510A301eCC749FC1fCDDBE14D",
      "gasPrice": {
        "_hex": "0xe0cfe7246"
      },
      "gasLimit": {
        "_hex": "0x15f90"
      },
      "to": "0xb1abce2918E21ddb93AA452731a12672A3d9F75a",
      "value": {
        "_hex": "0x4563918244f40000"
      },
      "nonce": 96,
      "data": "0x",
      "r": "0xe767323cf7e31034a8e0c6fe9fda40ee9cb103327b0a8067829c255d057c71aa",
      "s": "0x5079ac4f236c4b75731afafd79b266a4f5cf0fcc9eca3e87248887e7595eccff",
      "v": 27,
      "creates": null,
      "raw": "0xf86d60850e0cfe724683015f9094b1abce2918e21ddb93aa452731a12672a3d9f75a884563918244f40000801ba0e767323cf7e31034a8e0c6fe9fda40ee9cb103327b0a8067829c255d057c71aaa05079ac4f236c4b75731afafd79b266a4f5cf0fcc9eca3e87248887e7595eccff",
      "networkId": 0,
      "chainId": 0
    },
    {
      "hash": "0x11e1859bcf63b24a2ff0248d0a5d3ce70cefed4caecf84cc9521efdec4471f8e",
      "blockHash": "0xdfb2690533587dcaba10fb38069dfd97af24c3d576e97da647c2a191eb9730ca",
      "blockNumber": 98486,
      "transactionIndex": 1,
      "confirmations": null,
      "from": "0x007f7f58D3eb5b7510A301eCC749FC1fCDDBE14D",
      "gasPrice": {
        "_hex": "0xe0cfe7246"
      },
      "gasLimit": {
        "_hex": "0x15f90"
      },
      "to": "0xb1abce2918E21ddb93AA452731a12672A3d9F75a",
      "value": {
        "_hex": "0x4563918244f40000"
      },
      "nonce": 97,
      "data": "0x",
      "r": "0xb6ebde4b32511fdfbc8714346ed23d4dbff4db924cfe1aa6566f0b9a66bcb562",
      "s": "0x05d537ec1f714183362201d52fccec6c40567586ac1288f49e72e8359a7ad16c",
      "v": 27,
      "creates": null,
      "raw": "0xf86d61850e0cfe724683015f9094b1abce2918e21ddb93aa452731a12672a3d9f75a884563918244f40000801ba0b6ebde4b32511fdfbc8714346ed23d4dbff4db924cfe1aa6566f0b9a66bcb562a005d537ec1f714183362201d52fccec6c40567586ac1288f49e72e8359a7ad16c",
      "networkId": 0,
      "chainId": 0
    },
    {
      "hash": "0x120a133c0fae90ca13ac6c57082406fa313f20479c81a38295977af91235d714",
      "blockHash": "0xdfb2690533587dcaba10fb38069dfd97af24c3d576e97da647c2a191eb9730ca",
      "blockNumber": 98486,
      "transactionIndex": 2,
      "confirmations": null,
      "from": "0x007f7f58D3eb5b7510A301eCC749FC1fCDDBE14D",
      "gasPrice": {
        "_hex": "0xe0cfe7246"
      },
      "gasLimit": {
        "_hex": "0x15f90"
      },
      "to": "0xb1abce2918E21ddb93AA452731a12672A3d9F75a",
      "value": {
        "_hex": "0x4563918244f40000"
      },
      "nonce": 98,
      "data": "0x",
      "r": "0x3a99fddacdcae8c5fc84a9ae7d6957febf91b7e81021227cf794cf09c13bc54f",
      "s": "0x4c5205d0aad66d2b4a7f76db1a7ed86f4e55c2dc7967c9720b07c89fd8a53809",
      "v": 27,
      "creates": null,
      "raw": "0xf86d62850e0cfe724683015f9094b1abce2918e21ddb93aa452731a12672a3d9f75a884563918244f40000801ba03a99fddacdcae8c5fc84a9ae7d6957febf91b7e81021227cf794cf09c13bc54fa04c5205d0aad66d2b4a7f76db1a7ed86f4e55c2dc7967c9720b07c89fd8a53809",
      "networkId": 0,
      "chainId": 0
    },
    {
      "hash": "0xba5918b10389ec36ed82a10799a5c2daa0f1f70c217dc7afa3f34f6a18e55a84",
      "blockHash": "0xdfb2690533587dcaba10fb38069dfd97af24c3d576e97da647c2a191eb9730ca",
      "blockNumber": 98486,
      "transactionIndex": 3,
      "confirmations": null,
      "from": "0x007f7f58D3eb5b7510A301eCC749FC1fCDDBE14D",
      "gasPrice": {
        "_hex": "0xe0cfe7246"
      },
      "gasLimit": {
        "_hex": "0x15f90"
      },
      "to": "0xb1abce2918E21ddb93AA452731a12672A3d9F75a",
      "value": {
        "_hex": "0x4563918244f40000"
      },
      "nonce": 99,
      "data": "0x",
      "r": "0x41792a800d355e18fa21328bc1a3753a04dc995faa8372a080bef984c3abf74c",
      "s": "0x14f4c2d484362ecb00d1d0b29097cb3c09bf147ff215b62d15e25cc5f548141a",
      "v": 27,
      "creates": null,
      "raw": "0xf86d63850e0cfe724683015f9094b1abce2918e21ddb93aa452731a12672a3d9f75a884563918244f40000801ba041792a800d355e18fa21328bc1a3753a04dc995faa8372a080bef984c3abf74ca014f4c2d484362ecb00d1d0b29097cb3c09bf147ff215b62d15e25cc5f548141a",
      "networkId": 0,
      "chainId": 0
    },
    {
      "hash": "0xc515cc9d7d78f9a127e3e46f48dff33a3674449a1ff0064a993799092466ddc3",
      "blockHash": "0xdfb2690533587dcaba10fb38069dfd97af24c3d576e97da647c2a191eb9730ca",
      "blockNumber": 98486,
      "transactionIndex": 4,
      "confirmations": null,
      "from": "0x007f7f58D3eb5b7510A301eCC749FC1fCDDBE14D",
      "gasPrice": {
        "_hex": "0xe0cfe7246"
      },
      "gasLimit": {
        "_hex": "0x15f90"
      },
      "to": "0xb1abce2918E21ddb93AA452731a12672A3d9F75a",
      "value": {
        "_hex": "0x4563918244f40000"
      },
      "nonce": 100,
      "data": "0x",
      "r": "0x8b003ddbd18aeb4348e55b55f241282d342a8c7dca42e60c567cdcd14ddd31b3",
      "s": "0x0dac91600912d59f886a0c589644889bd849411f331bb802060817f5b12af07b",
      "v": 27,
      "creates": null,
      "raw": "0xf86d64850e0cfe724683015f9094b1abce2918e21ddb93aa452731a12672a3d9f75a884563918244f40000801ba08b003ddbd18aeb4348e55b55f241282d342a8c7dca42e60c567cdcd14ddd31b3a00dac91600912d59f886a0c589644889bd849411f331bb802060817f5b12af07b",
      "networkId": 0,
      "chainId": 0
    },
    {
      "hash": "0x0adc2096b21336173cb2fe7aaeb6f3a5931e4955aa1220707d51e63ef730c8d7",
      "blockHash": "0xdfb2690533587dcaba10fb38069dfd97af24c3d576e97da647c2a191eb9730ca",
      "blockNumber": 98486,
      "transactionIndex": 5,
      "confirmations": null,
      "from": "0x007f7f58D3eb5b7510A301eCC749FC1fCDDBE14D",
      "gasPrice": {
        "_hex": "0xe0cfe7246"
      },
      "gasLimit": {
        "_hex": "0x15f90"
      },
      "to": "0xb1abce2918E21ddb93AA452731a12672A3d9F75a",
      "value": {
        "_hex": "0x4563918244f40000"
      },
      "nonce": 101,
      "data": "0x",
      "r": "0x8428d7c0fe5e1b128430bd1a745bc82c7da4c6d0a7cd6a5f4368850488c35cbb",
      "s": "0x258354aa55cb706a2f2e32cb9581a5b122f21025f2c4461ff9d00d58fc90cf3c",
      "v": 27,
      "creates": null,
      "raw": "0xf86d65850e0cfe724683015f9094b1abce2918e21ddb93aa452731a12672a3d9f75a884563918244f40000801ba08428d7c0fe5e1b128430bd1a745bc82c7da4c6d0a7cd6a5f4368850488c35cbba0258354aa55cb706a2f2e32cb9581a5b122f21025f2c4461ff9d00d58fc90cf3c",
      "networkId": 0,
      "chainId": 0
    },
    {
      "hash": "0x1e8933acf25f17ec51efd00db2c73b62d0aa760e8f3eae52b0523bc6ff7087a5",
      "blockHash": "0xdfb2690533587dcaba10fb38069dfd97af24c3d576e97da647c2a191eb9730ca",
      "blockNumber": 98486,
      "transactionIndex": 6,
      "confirmations": null,
      "from": "0x007f7f58D3eb5b7510A301eCC749FC1fCDDBE14D",
      "gasPrice": {
        "_hex": "0xe0cfe7246"
      },
      "gasLimit": {
        "_hex": "0x15f90"
      },
      "to": "0xb1abce2918E21ddb93AA452731a12672A3d9F75a",
      "value": {
        "_hex": "0x4563918244f40000"
      },
      "nonce": 102,
      "data": "0x",
      "r": "0xe9b7f6d53a0afc9599b0693ad2eb3d05a54420e2a019518b3ad45848bf18ff69",
      "s": "0x328598fa500d17c3542931c744a4805e7bd5608992b0810aecef62903276f28d",
      "v": 28,
      "creates": null,
      "raw": "0xf86d66850e0cfe724683015f9094b1abce2918e21ddb93aa452731a12672a3d9f75a884563918244f40000801ca0e9b7f6d53a0afc9599b0693ad2eb3d05a54420e2a019518b3ad45848bf18ff69a0328598fa500d17c3542931c744a4805e7bd5608992b0810aecef62903276f28d",
      "networkId": 0,
      "chainId": 0
    },
    {
      "hash": "0xb8ddb1f71eced5b10e00ff1e593c4c24d75ff82c27f201f1f271efc5275cd5e0",
      "blockHash": "0xdfb2690533587dcaba10fb38069dfd97af24c3d576e97da647c2a191eb9730ca",
      "blockNumber": 98486,
      "transactionIndex": 7,
      "confirmations": null,
      "from": "0x007f7f58D3eb5b7510A301eCC749FC1fCDDBE14D",
      "gasPrice": {
        "_hex": "0xe0cfe7246"
      },
      "gasLimit": {
        "_hex": "0x15f90"
      },
      "to": "0xb1abce2918E21ddb93AA452731a12672A3d9F75a",
      "value": {
        "_hex": "0x4563918244f40000"
      },
      "nonce": 103,
      "data": "0x",
      "r": "0x6e9fd0d7494c581a958036f02ca51b85724ff783de1244b0852417113be9c70a",
      "s": "0x5830fc85faf701c0cdd093b394944583427ede8d12bf162bcaae52cfb12932d5",
      "v": 27,
      "creates": null,
      "raw": "0xf86d67850e0cfe724683015f9094b1abce2918e21ddb93aa452731a12672a3d9f75a884563918244f40000801ba06e9fd0d7494c581a958036f02ca51b85724ff783de1244b0852417113be9c70aa05830fc85faf701c0cdd093b394944583427ede8d12bf162bcaae52cfb12932d5",
      "networkId": 0,
      "chainId": 0
    },
    {
      "hash": "0x6156042204ca15eedcd021d3d87ed9e9ec59f43b78d979640887df66b7ca4b94",
      "blockHash": "0xdfb2690533587dcaba10fb38069dfd97af24c3d576e97da647c2a191eb9730ca",
      "blockNumber": 98486,
      "transactionIndex": 8,
      "confirmations": null,
      "from": "0x007f7f58D3eb5b7510A301eCC749FC1fCDDBE14D",
      "gasPrice": {
        "_hex": "0xe0cfe7246"
      },
      "gasLimit": {
        "_hex": "0x15f90"
      },
      "to": "0xb1abce2918E21ddb93AA452731a12672A3d9F75a",
      "value": {
        "_hex": "0x4563918244f40000"
      },
      "nonce": 104,
      "data": "0x",
      "r": "0xd8327c36f86bcb429b171ae329ae22d2fa1e2aac43dc22443773f89e65919cab",
      "s": "0x2fd6ba12ac254c7722ddfe56d9ab7ffc102835feba1f3926d393de7879a04f09",
      "v": 27,
      "creates": null,
      "raw": "0xf86d68850e0cfe724683015f9094b1abce2918e21ddb93aa452731a12672a3d9f75a884563918244f40000801ba0d8327c36f86bcb429b171ae329ae22d2fa1e2aac43dc22443773f89e65919caba02fd6ba12ac254c7722ddfe56d9ab7ffc102835feba1f3926d393de7879a04f09",
      "networkId": 0,
      "chainId": 0
    },
    {
      "hash": "0x1442244610f7dd3fe2431d5820b4681428f2ad05648ddbcf6372c67a28d94e44",
      "blockHash": "0xdfb2690533587dcaba10fb38069dfd97af24c3d576e97da647c2a191eb9730ca",
      "blockNumber": 98486,
      "transactionIndex": 9,
      "confirmations": null,
      "from": "0x007f7f58D3eb5b7510A301eCC749FC1fCDDBE14D",
      "gasPrice": {
        "_hex": "0xe0cfe7246"
      },
      "gasLimit": {
        "_hex": "0x15f90"
      },
      "to": "0xb1abce2918E21ddb93AA452731a12672A3d9F75a",
      "value": {
        "_hex": "0x4563918244f40000"
      },
      "nonce": 105,
      "data": "0x",
      "r": "0xc07fae82c93c3c52ed53754ee0a0a710edf954ecd79354864a040e3695562a8b",
      "s": "0x28c599707c3be9a250f7414eec1f255be294add387b18e9b60e8e6604e38b24d",
      "v": 27,
      "creates": null,
      "raw": "0xf86d69850e0cfe724683015f9094b1abce2918e21ddb93aa452731a12672a3d9f75a884563918244f40000801ba0c07fae82c93c3c52ed53754ee0a0a710edf954ecd79354864a040e3695562a8ba028c599707c3be9a250f7414eec1f255be294add387b18e9b60e8e6604e38b24d",
      "networkId": 0,
      "chainId": 0
    },
    {
      "hash": "0xc76217edf31612c534a97b2af9a266cc0a6f81e40175df7b4ea73dc9af47de48",
      "blockHash": "0xdfb2690533587dcaba10fb38069dfd97af24c3d576e97da647c2a191eb9730ca",
      "blockNumber": 98486,
      "transactionIndex": 10,
      "confirmations": null,
      "from": "0x007f7f58D3eb5b7510A301eCC749FC1fCDDBE14D",
      "gasPrice": {
        "_hex": "0xe0cfe7246"
      },
      "gasLimit": {
        "_hex": "0x15f90"
      },
      "to": "0xb1abce2918E21ddb93AA452731a12672A3d9F75a",
      "value": {
        "_hex": "0x4563918244f40000"
      },
      "nonce": 106,
      "data": "0x",
      "r": "0x19a25916e6cdc9436e928464b06048d0829bcceb8518f021afe3b88d59dc6a8f",
      "s": "0x5bb48da0b6535b443283742fb1f8beeb171e56068287dda95d6976dbbcff5499",
      "v": 28,
      "creates": null,
      "raw": "0xf86d6a850e0cfe724683015f9094b1abce2918e21ddb93aa452731a12672a3d9f75a884563918244f40000801ca019a25916e6cdc9436e928464b06048d0829bcceb8518f021afe3b88d59dc6a8fa05bb48da0b6535b443283742fb1f8beeb171e56068287dda95d6976dbbcff5499",
      "networkId": 0,
      "chainId": 0
    },
    {
      "hash": "0xce1fe5404756ddfcd4cb477b493041e15ebe87763e2fea021e3f7ba3bd8d94c8",
      "blockHash": "0xdfb2690533587dcaba10fb38069dfd97af24c3d576e97da647c2a191eb9730ca",
      "blockNumber": 98486,
      "transactionIndex": 11,
      "confirmations": null,
      "from": "0x007f7f58D3eb5b7510A301eCC749FC1fCDDBE14D",
      "gasPrice": {
        "_hex": "0xe0cfe7246"
      },
      "gasLimit": {
        "_hex": "0x15f90"
      },
      "to": "0xb1abce2918E21ddb93AA452731a12672A3d9F75a",
      "value": {
        "_hex": "0x4563918244f40000"
      },
      "nonce": 107,
      "data": "0x",
      "r": "0xb2020247ff1b75f813f50dcc1cf9ef497ffde4fe0e812d45951c415069569290",
      "s": "0x5552a4bb3dba1b5c5e0a2a15cf87280efca3697ad1890c7aaaaa19b342e0a8ab",
      "v": 28,
      "creates": null,
      "raw": "0xf86d6b850e0cfe724683015f9094b1abce2918e21ddb93aa452731a12672a3d9f75a884563918244f40000801ca0b2020247ff1b75f813f50dcc1cf9ef497ffde4fe0e812d45951c415069569290a05552a4bb3dba1b5c5e0a2a15cf87280efca3697ad1890c7aaaaa19b342e0a8ab",
      "networkId": 0,
      "chainId": 0
    },
    {
      "hash": "0x6798287c35d154fd2555d19174f24e56c359322d2f5d36ffc71ff68a6f4a0c11",
      "blockHash": "0xdfb2690533587dcaba10fb38069dfd97af24c3d576e97da647c2a191eb9730ca",
      "blockNumber": 98486,
      "transactionIndex": 12,
      "confirmations": null,
      "from": "0x007f7f58D3eb5b7510A301eCC749FC1fCDDBE14D",
      "gasPrice": {
        "_hex": "0xe0cfe7246"
      },
      "gasLimit": {
        "_hex": "0x15f90"
      },
      "to": "0xb1abce2918E21ddb93AA452731a12672A3d9F75a",
      "value": {
        "_hex": "0x4563918244f40000"
      },
      "nonce": 108,
      "data": "0x",
      "r": "0x0342ce7243f8334629c91fb60d7d615817b51edee94a45ea920c95ddd2a45ab2",
      "s": "0x3f9ac39c9f67de613ba3ce3b29f5f20469c28ebad31e332dd5f34bb115eeda7a",
      "v": 28,
      "creates": null,
      "raw": "0xf86d6c850e0cfe724683015f9094b1abce2918e21ddb93aa452731a12672a3d9f75a884563918244f40000801ca00342ce7243f8334629c91fb60d7d615817b51edee94a45ea920c95ddd2a45ab2a03f9ac39c9f67de613ba3ce3b29f5f20469c28ebad31e332dd5f34bb115eeda7a",
      "networkId": 0,
      "chainId": 0
    },
    {
      "hash": "0xb163d33b6245cbc5c704614a442183d836ba1e42bed03f09fc79d133054c8908",
      "blockHash": "0xdfb2690533587dcaba10fb38069dfd97af24c3d576e97da647c2a191eb9730ca",
      "blockNumber": 98486,
      "transactionIndex": 13,
      "confirmations": null,
      "from": "0x007f7f58D3eb5b7510A301eCC749FC1fCDDBE14D",
      "gasPrice": {
        "_hex": "0xe0cfe7246"
      },
      "gasLimit": {
        "_hex": "0x15f90"
      },
      "to": "0xb1abce2918E21ddb93AA452731a12672A3d9F75a",
      "value": {
        "_hex": "0x4563918244f40000"
      },
      "nonce": 109,
      "data": "0x",
      "r": "0x21955dfbc93bf7202c4c0e92906a017cb677ac67e05bbc233bcb387e689d5940",
      "s": "0x3bc8aa7096d6975542d58d3442784ede4a250641589b6928128e620e5e2d9845",
      "v": 28,
      "creates": null,
      "raw": "0xf86d6d850e0cfe724683015f9094b1abce2918e21ddb93aa452731a12672a3d9f75a884563918244f40000801ca021955dfbc93bf7202c4c0e92906a017cb677ac67e05bbc233bcb387e689d5940a03bc8aa7096d6975542d58d3442784ede4a250641589b6928128e620e5e2d9845",
      "networkId": 0,
      "chainId": 0
    },
    {
      "hash": "0x63743e4657757274c965c90003c2be3d66a7c92dc0be8a6925be5cb279c0c0cf",
      "blockHash": "0xdfb2690533587dcaba10fb38069dfd97af24c3d576e97da647c2a191eb9730ca",
      "blockNumber": 98486,
      "transactionIndex": 14,
      "confirmations": null,
      "from": "0x007f7f58D3eb5b7510A301eCC749FC1fCDDBE14D",
      "gasPrice": {
        "_hex": "0xe0cfe7246"
      },
      "gasLimit": {
        "_hex": "0x15f90"
      },
      "to": "0xb1abce2918E21ddb93AA452731a12672A3d9F75a",
      "value": {
        "_hex": "0x4563918244f40000"
      },
      "nonce": 110,
      "data": "0x",
      "r": "0x286c457ed099a4110f5035adf645091a1ecaae4a23b0065c5460896d5d2c5abf",
      "s": "0x653f184faec8ac18661b575df28dd830e1de375294c1fa35ae8537d390d5e142",
      "v": 28,
      "creates": null,
      "raw": "0xf86d6e850e0cfe724683015f9094b1abce2918e21ddb93aa452731a12672a3d9f75a884563918244f40000801ca0286c457ed099a4110f5035adf645091a1ecaae4a23b0065c5460896d5d2c5abfa0653f184faec8ac18661b575df28dd830e1de375294c1fa35ae8537d390d5e142",
      "networkId": 0,
      "chainId": 0
    },
    {
      "hash": "0x53dad7bbad4af4615b9cc58f85f799bfcdd2135133b6006acc6e5b5f47980c44",
      "blockHash": "0xdfb2690533587dcaba10fb38069dfd97af24c3d576e97da647c2a191eb9730ca",
      "blockNumber": 98486,
      "transactionIndex": 15,
      "confirmations": null,
      "from": "0x007f7f58D3eb5b7510A301eCC749FC1fCDDBE14D",
      "gasPrice": {
        "_hex": "0xe0cfe7246"
      },
      "gasLimit": {
        "_hex": "0x15f90"
      },
      "to": "0xb1abce2918E21ddb93AA452731a12672A3d9F75a",
      "value": {
        "_hex": "0x4563918244f40000"
      },
      "nonce": 111,
      "data": "0x",
      "r": "0x65b1dd54cc4fe94925415ff5fb30b2ee7bea5b4c093c2df6206e9cd806a898c0",
      "s": "0x09834048b99c3a7b83dd2e461211108e4ca1ec83d83297aca8e961fe70570a6d",
      "v": 27,
      "creates": null,
      "raw": "0xf86d6f850e0cfe724683015f9094b1abce2918e21ddb93aa452731a12672a3d9f75a884563918244f40000801ba065b1dd54cc4fe94925415ff5fb30b2ee7bea5b4c093c2df6206e9cd806a898c0a009834048b99c3a7b83dd2e461211108e4ca1ec83d83297aca8e961fe70570a6d",
      "networkId": 0,
      "chainId": 0
    },
    {
      "hash": "0x7a6ca8301558316049b73ebe58346a7addf1a7879fd66eb03fdfb796c31ce61c",
      "blockHash": "0xdfb2690533587dcaba10fb38069dfd97af24c3d576e97da647c2a191eb9730ca",
      "blockNumber": 98486,
      "transactionIndex": 16,
      "confirmations": null,
      "from": "0x007f7f58D3eb5b7510A301eCC749FC1fCDDBE14D",
      "gasPrice": {
        "_hex": "0xe0cfe7246"
      },
      "gasLimit": {
        "_hex": "0x15f90"
      },
      "to": "0xb1abce2918E21ddb93AA452731a12672A3d9F75a",
      "value": {
        "_hex": "0x4563918244f40000"
      },
      "nonce": 112,
      "data": "0x",
      "r": "0x5c6efb75bc309dd170dd3d813a254fb8e28421b9aa89474554a297e9bc1ed7d6",
      "s": "0x33dcc210b150edb046a08c26bf9ba557d2fbed38de39ccbceb822fca76b31089",
      "v": 27,
      "creates": null,
      "raw": "0xf86d70850e0cfe724683015f9094b1abce2918e21ddb93aa452731a12672a3d9f75a884563918244f40000801ba05c6efb75bc309dd170dd3d813a254fb8e28421b9aa89474554a297e9bc1ed7d6a033dcc210b150edb046a08c26bf9ba557d2fbed38de39ccbceb822fca76b31089",
      "networkId": 0,
      "chainId": 0
    },
    {
      "hash": "0xcf8d1c511d0ee07ebb702348cd9e0fdbe788fa02f15d0e0d03a98207f95891c0",
      "blockHash": "0xdfb2690533587dcaba10fb38069dfd97af24c3d576e97da647c2a191eb9730ca",
      "blockNumber": 98486,
      "transactionIndex": 17,
      "confirmations": null,
      "from": "0x007f7f58D3eb5b7510A301eCC749FC1fCDDBE14D",
      "gasPrice": {
        "_hex": "0xe0cfe7246"
      },
      "gasLimit": {
        "_hex": "0x15f90"
      },
      "to": "0xb1abce2918E21ddb93AA452731a12672A3d9F75a",
      "value": {
        "_hex": "0x4563918244f40000"
      },
      "nonce": 113,
      "data": "0x",
      "r": "0x7c341e864e5c0344f6a891480c44d1b967a1f58d847f70f3ab8736ed6cd73c00",
      "s": "0x0b898bb508a7800cf7868ce8fce5800e75ef4bfa010e23c87f3ae0f92aa61154",
      "v": 28,
      "creates": null,
      "raw": "0xf86d71850e0cfe724683015f9094b1abce2918e21ddb93aa452731a12672a3d9f75a884563918244f40000801ca07c341e864e5c0344f6a891480c44d1b967a1f58d847f70f3ab8736ed6cd73c00a00b898bb508a7800cf7868ce8fce5800e75ef4bfa010e23c87f3ae0f92aa61154",
      "networkId": 0,
      "chainId": 0
    },
    {
      "hash": "0x0e5e9c7c48222ced24ce92ef6399bc9aa51a3e8aa0579454fbcf0f68177d9fb6",
      "blockHash": "0xdfb2690533587dcaba10fb38069dfd97af24c3d576e97da647c2a191eb9730ca",
      "blockNumber": 98486,
      "transactionIndex": 18,
      "confirmations": null,
      "from": "0x007f7f58D3eb5b7510A301eCC749FC1fCDDBE14D",
      "gasPrice": {
        "_hex": "0xe0cfe7246"
      },
      "gasLimit": {
        "_hex": "0x15f90"
      },
      "to": "0xb1abce2918E21ddb93AA452731a12672A3d9F75a",
      "value": {
        "_hex": "0x4563918244f40000"
      },
      "nonce": 114,
      "data": "0x",
      "r": "0xeedac0c84fbd1aa9be595f0979023510a8e92f1a26e5b0ad53dd216e778586b9",
      "s": "0x2109919ae8ac771cdc72b4b5c46996882ef0d981d78f0496ef1efe9fc24918b6",
      "v": 28,
      "creates": null,
      "raw": "0xf86d72850e0cfe724683015f9094b1abce2918e21ddb93aa452731a12672a3d9f75a884563918244f40000801ca0eedac0c84fbd1aa9be595f0979023510a8e92f1a26e5b0ad53dd216e778586b9a02109919ae8ac771cdc72b4b5c46996882ef0d981d78f0496ef1efe9fc24918b6",
      "networkId": 0,
      "chainId": 0
    },
    {
      "hash": "0x1cda8d9dd43b49ac8837546fc3ab8ec7ebfd8b8a65932e39050819517468be30",
      "blockHash": "0xdfb2690533587dcaba10fb38069dfd97af24c3d576e97da647c2a191eb9730ca",
      "blockNumber": 98486,
      "transactionIndex": 19,
      "confirmations": null,
      "from": "0x007f7f58D3eb5b7510A301eCC749FC1fCDDBE14D",
      "gasPrice": {
        "_hex": "0xe0cfe7246"
      },
      "gasLimit": {
        "_hex": "0x15f90"
      },
      "to": "0xb1abce2918E21ddb93AA452731a12672A3d9F75a",
      "value": {
        "_hex": "0x4563918244f40000"
      },
      "nonce": 115,
      "data": "0x",
      "r": "0x393cdb9b5916eb6550d9249a400b466c81ec334199eb8e5426e3c128db37a481",
      "s": "0x119f163a748c2d9ec817b320ba5c5e040985cc96de6423bf5001e6ce11a123b9",
      "v": 28,
      "creates": null,
      "raw": "0xf86d73850e0cfe724683015f9094b1abce2918e21ddb93aa452731a12672a3d9f75a884563918244f40000801ca0393cdb9b5916eb6550d9249a400b466c81ec334199eb8e5426e3c128db37a481a0119f163a748c2d9ec817b320ba5c5e040985cc96de6423bf5001e6ce11a123b9",
      "networkId": 0,
      "chainId": 0
    },
    {
      "hash": "0x89a4e739213925a13ba69b24d939801a1d86d2f397f41c651a5722a0c7eddfd8",
      "blockHash": "0xdfb2690533587dcaba10fb38069dfd97af24c3d576e97da647c2a191eb9730ca",
      "blockNumber": 98486,
      "transactionIndex": 20,
      "confirmations": null,
      "from": "0x007f7f58D3eb5b7510A301eCC749FC1fCDDBE14D",
      "gasPrice": {
        "_hex": "0xe0cfe7246"
      },
      "gasLimit": {
        "_hex": "0x15f90"
      },
      "to": "0xb1abce2918E21ddb93AA452731a12672A3d9F75a",
      "value": {
        "_hex": "0x4563918244f40000"
      },
      "nonce": 116,
      "data": "0x",
      "r": "0x07d636a6afd2cbabe0a2b3fc17ce6bf10ed7406ce766a7e885cd669db96cdd3b",
      "s": "0x58a2183145a8e48c2043ac546b2ae0fe30add6a7d55dac4b9faf4c43d2907fd3",
      "v": 27,
      "creates": null,
      "raw": "0xf86d74850e0cfe724683015f9094b1abce2918e21ddb93aa452731a12672a3d9f75a884563918244f40000801ba007d636a6afd2cbabe0a2b3fc17ce6bf10ed7406ce766a7e885cd669db96cdd3ba058a2183145a8e48c2043ac546b2ae0fe30add6a7d55dac4b9faf4c43d2907fd3",
      "networkId": 0,
      "chainId": 0
    },
    {
      "hash": "0x922298a716cb7bce33493bc47218d957239855205cd5c9632f08a4cae200d65e",
      "blockHash": "0xdfb2690533587dcaba10fb38069dfd97af24c3d576e97da647c2a191eb9730ca",
      "blockNumber": 98486,
      "transactionIndex": 21,
      "confirmations": null,
      "from": "0x007f7f58D3eb5b7510A301eCC749FC1fCDDBE14D",
      "gasPrice": {
        "_hex": "0xe0cfe7246"
      },
      "gasLimit": {
        "_hex": "0x15f90"
      },
      "to": "0xb1abce2918E21ddb93AA452731a12672A3d9F75a",
      "value": {
        "_hex": "0x4563918244f40000"
      },
      "nonce": 117,
      "data": "0x",
      "r": "0x616bd1f4b2a0597f169abdf62d3501313997c7a7d3f44af9ca39232e382934a5",
      "s": "0x3c2900c5ed16ef5e4cd10717fa1d6eeae608d580bdad4e948de1012b20103b66",
      "v": 28,
      "creates": null,
      "raw": "0xf86d75850e0cfe724683015f9094b1abce2918e21ddb93aa452731a12672a3d9f75a884563918244f40000801ca0616bd1f4b2a0597f169abdf62d3501313997c7a7d3f44af9ca39232e382934a5a03c2900c5ed16ef5e4cd10717fa1d6eeae608d580bdad4e948de1012b20103b66",
      "networkId": 0,
      "chainId": 0
    },
    {
      "hash": "0x2681d45d696129dc37d4c3393cb5e32ab5e8b04bbc9e41b69c5f7c34e2604e18",
      "blockHash": "0xdfb2690533587dcaba10fb38069dfd97af24c3d576e97da647c2a191eb9730ca",
      "blockNumber": 98486,
      "transactionIndex": 22,
      "confirmations": null,
      "from": "0x007f7f58D3eb5b7510A301eCC749FC1fCDDBE14D",
      "gasPrice": {
        "_hex": "0xe0cfe7246"
      },
      "gasLimit": {
        "_hex": "0x15f90"
      },
      "to": "0xb1abce2918E21ddb93AA452731a12672A3d9F75a",
      "value": {
        "_hex": "0x4563918244f40000"
      },
      "nonce": 118,
      "data": "0x",
      "r": "0xd4bad2d915aa9954c01d601f8ec26a828734f3acf2b9651dce098f26a78ddbdc",
      "s": "0x2cfb5517004a69cd56099bc3b5f33b0f488fe6a7f9692e01460f7b0543d92858",
      "v": 28,
      "creates": null,
      "raw": "0xf86d76850e0cfe724683015f9094b1abce2918e21ddb93aa452731a12672a3d9f75a884563918244f40000801ca0d4bad2d915aa9954c01d601f8ec26a828734f3acf2b9651dce098f26a78ddbdca02cfb5517004a69cd56099bc3b5f33b0f488fe6a7f9692e01460f7b0543d92858",
      "networkId": 0,
      "chainId": 0
    },
    {
      "hash": "0xc9c4dc57ebad0bca77cec7218c30e5f328983160ea14972d8c83e47c77690522",
      "blockHash": "0xdfb2690533587dcaba10fb38069dfd97af24c3d576e97da647c2a191eb9730ca",
      "blockNumber": 98486,
      "transactionIndex": 23,
      "confirmations": null,
      "from": "0x007f7f58D3eb5b7510A301eCC749FC1fCDDBE14D",
      "gasPrice": {
        "_hex": "0xe0cfe7246"
      },
      "gasLimit": {
        "_hex": "0x15f90"
      },
      "to": "0xb1abce2918E21ddb93AA452731a12672A3d9F75a",
      "value": {
        "_hex": "0x4563918244f40000"
      },
      "nonce": 119,
      "data": "0x",
      "r": "0x2e6ede3c9610621645c75ff7f404b80d2cb5f299de7110eeedf429c5d8cf2991",
      "s": "0x7f4b03c28bfae435f2f97990ce2895a4f3866a247679f53a0d41470071b62d23",
      "v": 27,
      "creates": null,
      "raw": "0xf86d77850e0cfe724683015f9094b1abce2918e21ddb93aa452731a12672a3d9f75a884563918244f40000801ba02e6ede3c9610621645c75ff7f404b80d2cb5f299de7110eeedf429c5d8cf2991a07f4b03c28bfae435f2f97990ce2895a4f3866a247679f53a0d41470071b62d23",
      "networkId": 0,
      "chainId": 0
    },
    {
      "hash": "0x6445818920433fde5bf9e863f17392f4b25e87528e2e63c4e0276433228dec83",
      "blockHash": "0xdfb2690533587dcaba10fb38069dfd97af24c3d576e97da647c2a191eb9730ca",
      "blockNumber": 98486,
      "transactionIndex": 24,
      "confirmations": null,
      "from": "0x007f7f58D3eb5b7510A301eCC749FC1fCDDBE14D",
      "gasPrice": {
        "_hex": "0xe0cfe7246"
      },
      "gasLimit": {
        "_hex": "0x15f90"
      },
      "to": "0xb1abce2918E21ddb93AA452731a12672A3d9F75a",
      "value": {
        "_hex": "0x4563918244f40000"
      },
      "nonce": 120,
      "data": "0x",
      "r": "0x2a21fd0f9dfbfa51d34722613d581c6b9b57a917405305f4f2732590f40635bd",
      "s": "0x41152bb282a99a8b27028192e4f6ad9ca3d4d7fc450a601f1f8f9999cc9ca6a8",
      "v": 28,
      "creates": null,
      "raw": "0xf86d78850e0cfe724683015f9094b1abce2918e21ddb93aa452731a12672a3d9f75a884563918244f40000801ca02a21fd0f9dfbfa51d34722613d581c6b9b57a917405305f4f2732590f40635bda041152bb282a99a8b27028192e4f6ad9ca3d4d7fc450a601f1f8f9999cc9ca6a8",
      "networkId": 0,
      "chainId": 0
    },
    {
      "hash": "0xcf59a6dc0682088c69727dbf1378b60925c8924d2d1593c205dabc76d77e15dd",
      "blockHash": "0xdfb2690533587dcaba10fb38069dfd97af24c3d576e97da647c2a191eb9730ca",
      "blockNumber": 98486,
      "transactionIndex": 25,
      "confirmations": null,
      "from": "0x007f7f58D3eb5b7510A301eCC749FC1fCDDBE14D",
      "gasPrice": {
        "_hex": "0xe0cfe7246"
      },
      "gasLimit": {
        "_hex": "0x15f90"
      },
      "to": "0xb1abce2918E21ddb93AA452731a12672A3d9F75a",
      "value": {
        "_hex": "0x4563918244f40000"
      },
      "nonce": 121,
      "data": "0x",
      "r": "0xdb4043eb3b6a1bae7ac1bb2c22ab97bb553095eeacd74263958367047f6e6f70",
      "s": "0x1cd8e6b4852da6a07be0ec9b85a9c3e6ccf48512b5299452467d46973d2f14e1",
      "v": 27,
      "creates": null,
      "raw": "0xf86d79850e0cfe724683015f9094b1abce2918e21ddb93aa452731a12672a3d9f75a884563918244f40000801ba0db4043eb3b6a1bae7ac1bb2c22ab97bb553095eeacd74263958367047f6e6f70a01cd8e6b4852da6a07be0ec9b85a9c3e6ccf48512b5299452467d46973d2f14e1",
      "networkId": 0,
      "chainId": 0
    },
    {
      "hash": "0x9457270a12013a56c3ee807c8016dd7264c826e3083fa51ccc8f91b02c14fd9a",
      "blockHash": "0xdfb2690533587dcaba10fb38069dfd97af24c3d576e97da647c2a191eb9730ca",
      "blockNumber": 98486,
      "transactionIndex": 26,
      "confirmations": null,
      "from": "0x007f7f58D3eb5b7510A301eCC749FC1fCDDBE14D",
      "gasPrice": {
        "_hex": "0xe0cfe7246"
      },
      "gasLimit": {
        "_hex": "0x15f90"
      },
      "to": "0xb1abce2918E21ddb93AA452731a12672A3d9F75a",
      "value": {
        "_hex": "0x4563918244f40000"
      },
      "nonce": 122,
      "data": "0x",
      "r": "0xf23edd67e109562516f6bed0a3a782649fdd02ecfb02c22db15976fc360db6ac",
      "s": "0x2e62bb38023e12f4701844c87ae380eec05aa5d146a8b95c16d025e5c81a97ae",
      "v": 27,
      "creates": null,
      "raw": "0xf86d7a850e0cfe724683015f9094b1abce2918e21ddb93aa452731a12672a3d9f75a884563918244f40000801ba0f23edd67e109562516f6bed0a3a782649fdd02ecfb02c22db15976fc360db6aca02e62bb38023e12f4701844c87ae380eec05aa5d146a8b95c16d025e5c81a97ae",
      "networkId": 0,
      "chainId": 0
    },
    {
      "hash": "0xac30fd2769f5276ded867fc501c8c5fea603cd674df215ae2239827ceeaeddb5",
      "blockHash": "0xdfb2690533587dcaba10fb38069dfd97af24c3d576e97da647c2a191eb9730ca",
      "blockNumber": 98486,
      "transactionIndex": 27,
      "confirmations": null,
      "from": "0x007f7f58D3eb5b7510A301eCC749FC1fCDDBE14D",
      "gasPrice": {
        "_hex": "0xe0cfe7246"
      },
      "gasLimit": {
        "_hex": "0x15f90"
      },
      "to": "0xb1abce2918E21ddb93AA452731a12672A3d9F75a",
      "value": {
        "_hex": "0x4563918244f40000"
      },
      "nonce": 123,
      "data": "0x",
      "r": "0x445c39684b6bdd4924be0b3f88112d6e087c4a300a14c409d5b35b4012f4f47e",
      "s": "0x7bde0f578e7e2c14e16ecc5550b5733046d3447017534ae228076538c9438fdf",
      "v": 28,
      "creates": null,
      "raw": "0xf86d7b850e0cfe724683015f9094b1abce2918e21ddb93aa452731a12672a3d9f75a884563918244f40000801ca0445c39684b6bdd4924be0b3f88112d6e087c4a300a14c409d5b35b4012f4f47ea07bde0f578e7e2c14e16ecc5550b5733046d3447017534ae228076538c9438fdf",
      "networkId": 0,
      "chainId": 0
    },
    {
      "hash": "0xe27dfde90c6aef46cfeb098e7bee3cbdbdef1ef77dde8579aefe2eabf7d6c050",
      "blockHash": "0xdfb2690533587dcaba10fb38069dfd97af24c3d576e97da647c2a191eb9730ca",
      "blockNumber": 98486,
      "transactionIndex": 28,
      "confirmations": null,
      "from": "0x007f7f58D3eb5b7510A301eCC749FC1fCDDBE14D",
      "gasPrice": {
        "_hex": "0xe0cfe7246"
      },
      "gasLimit": {
        "_hex": "0x15f90"
      },
      "to": "0xb1abce2918E21ddb93AA452731a12672A3d9F75a",
      "value": {
        "_hex": "0x4563918244f40000"
      },
      "nonce": 124,
      "data": "0x",
      "r": "0xb1bb92f309f45876ef35f1290404f16cc4bdadfdf0687005576ab66921d65af9",
      "s": "0x4058784da7d8f28de81777f3671c0c7b2f8c49bf8ba13e276eadcac5600d545c",
      "v": 28,
      "creates": null,
      "raw": "0xf86d7c850e0cfe724683015f9094b1abce2918e21ddb93aa452731a12672a3d9f75a884563918244f40000801ca0b1bb92f309f45876ef35f1290404f16cc4bdadfdf0687005576ab66921d65af9a04058784da7d8f28de81777f3671c0c7b2f8c49bf8ba13e276eadcac5600d545c",
      "networkId": 0,
      "chainId": 0
    },
    {
      "hash": "0xd1bb0c7ee78ed1bf75ee1be4760786b0426e16da5adff17f8cfe7fa130d7ca95",
      "blockHash": "0xdfb2690533587dcaba10fb38069dfd97af24c3d576e97da647c2a191eb9730ca",
      "blockNumber": 98486,
      "transactionIndex": 29,
      "confirmations": null,
      "from": "0x007f7f58D3eb5b7510A301eCC749FC1fCDDBE14D",
      "gasPrice": {
        "_hex": "0xe0cfe7246"
      },
      "gasLimit": {
        "_hex": "0x15f90"
      },
      "to": "0xb1abce2918E21ddb93AA452731a12672A3d9F75a",
      "value": {
        "_hex": "0x4563918244f40000"
      },
      "nonce": 125,
      "data": "0x",
      "r": "0x13502941859ae9022cf6192237a9c2826cb29d42d8f4d1c05c73fe8a6912f737",
      "s": "0x0b91dc542334178ee2386035c48a638b68f302f71f3610f0cb55db09d8018bfc",
      "v": 28,
      "creates": null,
      "raw": "0xf86d7d850e0cfe724683015f9094b1abce2918e21ddb93aa452731a12672a3d9f75a884563918244f40000801ca013502941859ae9022cf6192237a9c2826cb29d42d8f4d1c05c73fe8a6912f737a00b91dc542334178ee2386035c48a638b68f302f71f3610f0cb55db09d8018bfc",
      "networkId": 0,
      "chainId": 0
    },
    {
      "hash": "0xf10d2b0f6451a485af19f80d316377d582af1b0e317bf17287e5e3d9d7e8606d",
      "blockHash": "0xdfb2690533587dcaba10fb38069dfd97af24c3d576e97da647c2a191eb9730ca",
      "blockNumber": 98486,
      "transactionIndex": 30,
      "confirmations": null,
      "from": "0x007f7f58D3eb5b7510A301eCC749FC1fCDDBE14D",
      "gasPrice": {
        "_hex": "0xe0cfe7246"
      },
      "gasLimit": {
        "_hex": "0x15f90"
      },
      "to": "0xb1abce2918E21ddb93AA452731a12672A3d9F75a",
      "value": {
        "_hex": "0x4563918244f40000"
      },
      "nonce": 126,
      "data": "0x",
      "r": "0x729f05e574e6ff57b8e35182fe7e070c7085b18b5f4768fb742ca05bdf247c33",
      "s": "0x40e1d869664d77c5805cc28447ed7613d03a5cd9c5226b12635b8658f6191d00",
      "v": 28,
      "creates": null,
      "raw": "0xf86d7e850e0cfe724683015f9094b1abce2918e21ddb93aa452731a12672a3d9f75a884563918244f40000801ca0729f05e574e6ff57b8e35182fe7e070c7085b18b5f4768fb742ca05bdf247c33a040e1d869664d77c5805cc28447ed7613d03a5cd9c5226b12635b8658f6191d00",
      "networkId": 0,
      "chainId": 0
    },
    {
      "hash": "0x1108eefbccbc1d97b25bf7367ef7622b3f3290fee35f104bb9c8b44df8471f8e",
      "blockHash": "0xdfb2690533587dcaba10fb38069dfd97af24c3d576e97da647c2a191eb9730ca",
      "blockNumber": 98486,
      "transactionIndex": 31,
      "confirmations": null,
      "from": "0x007f7f58D3eb5b7510A301eCC749FC1fCDDBE14D",
      "gasPrice": {
        "_hex": "0xe0cfe7246"
      },
      "gasLimit": {
        "_hex": "0x15f90"
      },
      "to": "0xb1abce2918E21ddb93AA452731a12672A3d9F75a",
      "value": {
        "_hex": "0x4563918244f40000"
      },
      "nonce": 127,
      "data": "0x",
      "r": "0xc72f2dcc039ca4e238efd34c18e09608d767c1d11521e273f147e7a0ae70d788",
      "s": "0x5ae45ece6682b745b31ed9c526042f97b11c180bbc60a41c8c662aeb06217427",
      "v": 28,
      "creates": null,
      "raw": "0xf86d7f850e0cfe724683015f9094b1abce2918e21ddb93aa452731a12672a3d9f75a884563918244f40000801ca0c72f2dcc039ca4e238efd34c18e09608d767c1d11521e273f147e7a0ae70d788a05ae45ece6682b745b31ed9c526042f97b11c180bbc60a41c8c662aeb06217427",
      "networkId": 0,
      "chainId": 0
    },
    {
      "hash": "0xa7e6c0a1f3ed0f6bd47bf35d09adc14385ea0da18206a541568b46bd5d932c68",
      "blockHash": "0xdfb2690533587dcaba10fb38069dfd97af24c3d576e97da647c2a191eb9730ca",
      "blockNumber": 98486,
      "transactionIndex": 32,
      "confirmations": null,
      "from": "0x007f7f58D3eb5b7510A301eCC749FC1fCDDBE14D",
      "gasPrice": {
        "_hex": "0xe0cfe7246"
      },
      "gasLimit": {
        "_hex": "0x15f90"
      },
      "to": "0xb1abce2918E21ddb93AA452731a12672A3d9F75a",
      "value": {
        "_hex": "0x4563918244f40000"
      },
      "nonce": 128,
      "data": "0x",
      "r": "0x299446abbafaf569fcb74356c973b66bf77d01e536a521502afa26db32929048",
      "s": "0x6d96c317f7ea93573c1ae6e0e98b66c5a9b43e54305b7706a1e3501dea75d760",
      "v": 28,
      "creates": null,
      "raw": "0xf86e8180850e0cfe724683015f9094b1abce2918e21ddb93aa452731a12672a3d9f75a884563918244f40000801ca0299446abbafaf569fcb74356c973b66bf77d01e536a521502afa26db32929048a06d96c317f7ea93573c1ae6e0e98b66c5a9b43e54305b7706a1e3501dea75d760",
      "networkId": 0,
      "chainId": 0
    },
    {
      "hash": "0x2642a85b1313258434a349e83777f8648876bbf21ee8f85f6c5befaa618fee2e",
      "blockHash": "0xdfb2690533587dcaba10fb38069dfd97af24c3d576e97da647c2a191eb9730ca",
      "blockNumber": 98486,
      "transactionIndex": 33,
      "confirmations": null,
      "from": "0x007f7f58D3eb5b7510A301eCC749FC1fCDDBE14D",
      "gasPrice": {
        "_hex": "0xe0cfe7246"
      },
      "gasLimit": {
        "_hex": "0x15f90"
      },
      "to": "0xb1abce2918E21ddb93AA452731a12672A3d9F75a",
      "value": {
        "_hex": "0x4563918244f40000"
      },
      "nonce": 129,
      "data": "0x",
      "r": "0xcd1c189c48bfce736273437e4823335324d6213af25cef461e763cae6761c265",
      "s": "0x65d4a7b774b3378ba73d3808e35336ada2894e791f52927cb973edbc64abd74f",
      "v": 28,
      "creates": null,
      "raw": "0xf86e8181850e0cfe724683015f9094b1abce2918e21ddb93aa452731a12672a3d9f75a884563918244f40000801ca0cd1c189c48bfce736273437e4823335324d6213af25cef461e763cae6761c265a065d4a7b774b3378ba73d3808e35336ada2894e791f52927cb973edbc64abd74f",
      "networkId": 0,
      "chainId": 0
    },
    {
      "hash": "0x2d880da8d33e416768fcc5d1c3a10630467fcee73f35548bee42d16f49b974bf",
      "blockHash": "0xdfb2690533587dcaba10fb38069dfd97af24c3d576e97da647c2a191eb9730ca",
      "blockNumber": 98486,
      "transactionIndex": 34,
      "confirmations": null,
      "from": "0x007f7f58D3eb5b7510A301eCC749FC1fCDDBE14D",
      "gasPrice": {
        "_hex": "0xe0cfe7246"
      },
      "gasLimit": {
        "_hex": "0x15f90"
      },
      "to": "0xb1abce2918E21ddb93AA452731a12672A3d9F75a",
      "value": {
        "_hex": "0x4563918244f40000"
      },
      "nonce": 130,
      "data": "0x",
      "r": "0x3905ff579487d380cd7fadc669b3e0b2c25a66b103216722122d9741b6721b45",
      "s": "0x04e6b42e5d8c963da8d4c237b4131e37e48746c21a42514c895bf308978498af",
      "v": 27,
      "creates": null,
      "raw": "0xf86e8182850e0cfe724683015f9094b1abce2918e21ddb93aa452731a12672a3d9f75a884563918244f40000801ba03905ff579487d380cd7fadc669b3e0b2c25a66b103216722122d9741b6721b45a004e6b42e5d8c963da8d4c237b4131e37e48746c21a42514c895bf308978498af",
      "networkId": 0,
      "chainId": 0
    }
  ]
}