{
  "hash": "0xc3389d535ebbaae818c492901ca40995a2c9b644af71f8d57d7a93e6a0871bcf",
  "parentHash": "0xbaa716df1b06bf91e138f37949392e0bf047fccde34967d62c1ded61133a35f1",
  "number": 46230,
  "timestamp": 1438919571,
  "nonce": "0x13d09a5b24ae6b65",
  "difficulty": 1460405971637,
  "gasLimit": {
    "_hex": "0x55ba"
  },
  "gasUsed": {
    "_hex": "0x5208"
  },
  "miner": "0xF6e1652a0397E078f434d6DDa181b218CFd42e09",
  "extraData": "0x476574682f76312e302e312f6c696e75782f676f312e342e32",
  "transactions": [
    {
      "hash": "0x41738785c4330ce9531aed26b21b9cfba6f27b9183d11355f4d9522211c2a44e",
      "blockHash": "0xc3389d535ebbaae818c492901ca40995a2c9b644af71f8d57d7a93e6a0871bcf",
      "blockNumber": 46230,
      "transactionIndex": 0,
      "confirmations": null,
      "from": "0x1C68a66138783A63c98cc675a9eC77AF4598D35e",
      "gasPrice": {
        "_hex": "0x109920f206"
      },
      "gasLimit": {
        "_hex": "0x5208"
      },
      "to": "0xc8ebccC5F5689Fa8659d83713341e5aD19349448",
      "value": {
        "_hex": "0x2b5e3af16b1880000"
      },
      "nonce": 0,
      "data": "0x",
      "r": "0x626fe44dc2b9588879f3b02bb8150d25c5155df9a12434cb84761870c9b80476",
      "s": "0x6f3072f43d58ac3b14509ba87d18c12abcc6ba1668e74459122c87ef24a66717",
      "v": 27,
      "creates": null,
      "raw": "0xf86d8085109920f20682520894c8ebccc5f5689fa8659d83713341e5ad193494488902b5e3af16b1880000801ba0626fe44dc2b9588879f3b02bb8150d25c5155df9a12434cb84761870c9b80476a06f3072f43d58ac3b14509ba87d18c12abcc6ba1668e74459122c87ef24a66717",
      "networkId": 0,
      "chainId": 0
    }
  ]
}