{
  "hash": "0x9d028d838d919bc12da91df8b14c47f8f8e2616f2b285edf8d829c191f840b15",
  "parentHash": "0x832726fece83f60b0f4d8b7b36e4b0c9986594313be189d13b9d459a83c964db",
  "number": 47150,
  "timestamp": 1438934998,
  "nonce": "0xc8808cc7d6257463",
  "difficulty": 1460245813953,
  "gasLimit": {
    "_hex": "0x9c29"
  },
  "gasUsed": {
    "_hex": "0x5208"
  },
  "miner": "0xbb7B8287f3F0a933474a79eAe42CBCa977791171",
  "extraData": "0x476574682f4c5649562f76312e302e312f6c696e75782f676f312e342e32",
  "transactions": [
    {
      "hash": "0xc8b9cae61cd01b11437ee1926e433d79d0a3e596c865591036ead6bf7108a923",
      "blockHash": "0x9d028d838d919bc12da91df8b14c47f8f8e2616f2b285edf8d829c191f840b15",
      "blockNumber": 47150,
      "transactionIndex": 0,
      "confirmations": null,
      "from": "0xe6A7a1d47ff21B6321162AEA7C6CB457D5476Bca",
      "gasPrice": {
        "_hex": "0xe138231ff"
      },
      "gasLimit": {
        "_hex": "0x5208"
      },
      "to": "0x2a9345Be3f611A15B4ac383C0f601c4B16b24577",
      "value": {
        "_hex": "0x3eea05cfdc95ee00"
      },
      "nonce": 55,
      "data": "0x",
      "r": "0xc7d6c1f4e5090cdd5aa96f7fd5f20e18b2ea27d4218a87b21bc3e7f89317c30a",
      "s": "0x45d4c22bb5d9d72e297675ec7edf3f25b01e4018451378295ee6658c0ff34616",
      "v": 28,
      "creates": null,
      "raw": "0xf86c37850e138231ff825208942a9345be3f611a15b4ac383c0f601c4b16b24577883eea05cfdc95ee00801ca0c7d6c1f4e5090cdd5aa96f7fd5f20e18b2ea27d4218a87b21bc3e7f89317c30aa045d4c22bb5d9d72e297675ec7edf3f25b01e4018451378295ee6658c0ff34616",
      "networkId": 0,
      "chainId": 0
    }
  ]
}