{
  "hash": "0x7e432902c9612764e013aefbccb514de520da73954336f93f561087e2e6bf6c8",
  "parentHash": "0x813fd2a20451b925ae79b590d9316c3efaabe8690e1089c4706cea17c79d1b59",
  "number": 71435,
  "timestamp": 1439335995,
  "nonce": "0xb3415694a5012232",
  "difficulty": 2176167473200,
  "gasLimit": {
    "_hex": "0x2fefd8"
  },
  "gasUsed": {
    "_hex": "0xae73"
  },
  "miner": "0x8eB3747b8397C48BC29fd5Df6765AbCEfbDffFCA",
  "extraData": "0x476574682f76312e302e312d38326566323666362f6c696e75782f676f312e34",
  "transactions": [
    {
      "hash": "0x26632703df9d3df5a49c3a3cd813237b29163758aba32f1f172fc36a57b4ee81",
      "blockHash": "0x7e432902c9612764e013aefbccb514de520da73954336f93f561087e2e6bf6c8",
      "blockNumber": 71435,
      "transactionIndex": 0,
      "confirmations": null,
      "from": "0x17580B766f7453525ca4C6A88b01b50570EA088C",
      "gasPrice": {
        "_hex": "0xd248ff930"
      },
      "gasLimit": {
        "_hex": "0x61a80"
      },
      "to": "0x5Fe5B7546D1628f7348B023A0393de1FC825A4fD",
      "value": {
        "_hex": "0x1bc16d674ec80000"
      },
      "nonce": 188,
      "data": "0xb595b8b50000000000000000000000000000000000000000000000000000000000000000",
      "r": "0x5ff10230faf6cce6e28fe3a76e36707b20da50d80d5795000a3b1dc466997faa",
      "s": "0x50b2f91e1377f7c80d3838eed00b5d081081dbf08851d910686756baeff7ff76",
      "v": 28,
      "creates": null,
      "raw": "0xf89281bc850d248ff93083061a80945fe5b7546d1628f7348b023a0393de1fc825a4fd881bc16d674ec80000a4b595b8b500000000000000000000000000000000000000000000000000000000000000001ca05ff10230faf6cce6e28fe3a76e36707b20da50d80d5795000a3b1dc466997faaa050b2f91e1377f7c80d3838eed00b5d081081dbf08851d910686756baeff7ff76",
      "networkId": 0,
      "chainId": 0
    }
  ]
}