{
  "hash": "0x467ce691a3bc0b05b7ca57d9a12faca527256a818da0999d8320b0acea2ff5e7",
  "parentHash": "0x7915ced231fd3e8c5f34975809c18f00055748f4d8c596bbb8e89a182c261b8c",
  "number": 82070,
  "timestamp": 1439513018,
  "nonce": "0x2402ae34805dea4e",
  "difficulty": 2395196983466,
  "gasLimit": {
    "_hex": "0x2fefd8"
  },
  "gasUsed": {
    "_hex": "0x13f83"
  },
  "miner": "0xf8E0CA3Ed80bd541b94BEdCf259e8CF2141A9523",
  "extraData": "0x476574682f76312e302e312f77696e646f77732f676f312e342e32",
  "transactions": [
    {
      "hash": "0xbfbf630f1c7d36a11f23fce7b519a75dcf03509851627e4b2d714b73ed7713a6",
      "blockHash": "0x467ce691a3bc0b05b7ca57d9a12faca527256a818da0999d8320b0acea2ff5e7",
      "blockNumber": 82070,
      "transactionIndex": 0,
      "confirmations": null,
      "from": "0x8F79f76381Aad7B98C19aF55eE75fdfEeb012211",
      "gasPrice": {
        "_hex": "0xcc7df219d"
      },
      "gasLimit": {
        "_hex": "0x5208"
      },
      "to": "0x32Be343B94f860124dC4fEe278FDCBD38C102D88",
      "value": {
        "_hex": "0x5f68a68c666b44000"
      },
      "nonce": 19,
      "data": "0x",
      "r": "0x514e69b6264444025433042b756278d9ecd07cc80188397fb56b6ad80eb5abbe",
      "s": "0x1f46855403c162542998dba76fd8bfab13a234d12e4419c4adf3922fe725afd4",
      "v": 28,
      "creates": null,
      "raw": "0xf86d13850cc7df219d8252089432be343b94f860124dc4fee278fdcbd38c102d888905f68a68c666b44000801ca0514e69b6264444025433042b756278d9ecd07cc80188397fb56b6ad80eb5abbea01f46855403c162542998dba76fd8bfab13a234d12e4419c4adf3922fe725afd4",
      "networkId": 0,
      "chainId": 0
    },
    {
      "hash": "0xdc54228f3fb5a8ba7d0513409368d16ac7d335362b42b63c7dfade5f1a74bce7",
      "blockHash": "0x467ce691a3bc0b05b7ca57d9a12faca527256a818da0999d8320b0acea2ff5e7",
      "blockNumber": 82070,
      "transactionIndex": 1,
      "confirmations": null,
      "from": "0x7e7eC15A5944e978257dDae0008C2F2eCe0A6090",
      "gasPrice": {
        "_hex": "0xcbcedf7d2"
      },
      "gasLimit": {
        "_hex": "0x2dc6c0"
      },
      "to": "0x35E57F2b08596f1946ECD9D31975eC3c2D7e1C1D",
      "value": {
        "_hex": "0x0"
      },
      "nonce": 4,
      "data": "0x0bf945120000000000000000000000000000000000000000000000000000000000001092",
      "r": "0x326517343fb24e9cd0543c7aeb653b294cc29d8932046b089b441920e559cc63",
      "s": "0x459b483f176e5c36309404100fed29f527684d4912f41e4b90f6afd7c71faa50",
      "v": 28,
      "creates": null,
      "raw": "0xf88904850cbcedf7d2832dc6c09435e57f2b08596f1946ecd9d31975ec3c2d7e1c1d80a40bf9451200000000000000000000000000000000000000000000000000000000000010921ca0326517343fb24e9cd0543c7aeb653b294cc29d8932046b089b441920e559cc63a0459b483f176e5c36309404100fed29f527684d4912f41e4b90f6afd7c71faa50",
      "networkId": 0,
      "chainId": 0
    },
    {
      "hash": "0xee12592200fd927a1b9db18ecd08976bef5d7bd8a851b8bd05d311922f78658d",
      "blockHash": "0x467ce691a3bc0b05b7ca57d9a12faca527256a818da0999d8320b0acea2ff5e7",
      "blockNumber": 82070,
      "transactionIndex": 2,
      "confirmations": null,
      "from": "0xFE22a0b388668d1Ae2643e771dacF38a434223cc",
      "gasPrice": {
        "_hex": "0xcb0375c8d"
      },
      "gasLimit": {
        "_hex": "0x15f90"
      },
      "to": "0xe9f1a9B1F75e46c13b52169e89ddcC156C1Dc0f6",
      "value": {
        "_hex": "0xd903ea5933a6000"
      },
      "nonce": 2,
      "data": "0x",
      "r": "0x522dd42e00a39107a1dc0ad79f0a29b95928372721140165a3581308346a5763",
      "s": "0x09782c89dff63e518ec2c82a2a758b4b3cee245dbaac0a939f173e7d3e9d6218",
      "v": 27,
      "creates": null,
      "raw": "0xf86d02850cb0375c8d83015f9094e9f1a9b1f75e46c13b52169e89ddcc156c1dc0f6880d903ea5933a6000801ba0522dd42e00a39107a1dc0ad79f0a29b95928372721140165a3581308346a5763a009782c89dff63e518ec2c82a2a758b4b3cee245dbaac0a939f173e7d3e9d6218",
      "networkId": 0,
      "chainId": 0
    }
  ]
}