{
  "hash": "0x396441ba9921353991edead3caaf69f8cb37bd2a2d2a36fa84878e74c0103fe6",
  "parentHash": "0x7ece12968e59fbcaa3db7c95773117e6025ac4179b81b99c6f721ec8e9695b28",
  "number": 107271,
  "timestamp": 1439919419,
  "nonce": "0x27a53e5c2ddc4662",
  "difficulty": 4433164549698,
  "gasLimit": {
    "_hex": "0x2fefd8"
  },
  "gasUsed": {
    "_hex": "0x1bdbe"
  },
  "miner": "0x3DfCf2bF579C831a03379a140b74f884e49CaFf3",
  "extraData": "0x476574682f76312e302e312d39393231366634612f6c696e75782f676f312e34",
  "transactions": [
    {
      "hash": "0x272504c33c996fc79f1b147be6df44661ff561f88a1930ac3fa39dde2adc07b0",
      "blockHash": "0x396441ba9921353991edead3caaf69f8cb37bd2a2d2a36fa84878e74c0103fe6",
      "blockNumber": 107271,
      "transactionIndex": 0,
      "confirmations": null,
      "from": "0xf3731A397D198a526EF77bD99906873936f05AB8",
      "gasPrice": {
        "_hex": "0xd8364fc25"
      },
      "gasLimit": {
        "_hex": "0x249f0"
      },
      "to": "0xE28e72FCf78647ADCe1F1252F240bbfaebD63BcC",
      "value": {
        "_hex": "0x29a2241af62c0000"
      },
      "nonce": 0,
      "data": "0x45466f3a",
      "r": "0xc3209c473b2da0a761190c5c42a58dc346f4dafd4784859072f4995560624612",
      "s": "0x2af33d1b7152a37ff38847cb0ed2cc90ebeb65ea41dce5ba3a49437a2c8cf9b5",
      "v": 28,
      "creates": null,
      "raw": "0xf87180850d8364fc25830249f094e28e72fcf78647adce1f1252f240bbfaebd63bcc8829a2241af62c00008445466f3a1ca0c3209c473b2da0a761190c5c42a58dc346f4dafd4784859072f4995560624612a02af33d1b7152a37ff38847cb0ed2cc90ebeb65ea41dce5ba3a49437a2c8cf9b5",
      "networkId": 0,
      "chainId": 0
    }
  ]
}