{
  "hash": "0x4d947a90e6842fe7e67fc2fdf36537742fe41016147dc459f372d3e8b79ab7f7",
  "parentHash": "0xd1a1fef7a6c1f2af39e6d5158e47b13759a379ba3b5130d1c357611bdec733c7",
  "number": 55938,
  "timestamp": 1439079439,
  "nonce": "0x397df0fdcb0a93fd",
  "difficulty": 1616229951186,
  "gasLimit": {
    "_hex": "0x2fefd8"
  },
  "gasUsed": {
    "_hex": "0x5208"
  },
  "miner": "0xf8E0CA3Ed80bd541b94BEdCf259e8CF2141A9523",
  "extraData": "0x476574682f76312e302e312f77696e646f77732f676f312e342e32",
  "transactions": [
    {
      "hash": "0xce6bb2e2daf3ff13452b253848b404e7b70854c230e2431dbde162fa3c2bf570",
      "blockHash": "0x4d947a90e6842fe7e67fc2fdf36537742fe41016147dc459f372d3e8b79ab7f7",
      "blockNumber": 55938,
      "transactionIndex": 0,
      "confirmations": null,
      "from": "0x80459F7950368e582175a9AC45E2d9a1B76932EF",
      "gasPrice": {
        "_hex": "0xd424b9955"
      },
      "gasLimit": {
        "_hex": "0x15f90"
      },
      "to": "0x15ce449d4c7f47a4Ea1d1C8Ab5E15F10D8BdFEce",
      "value": {
        "_hex": "0xde0b6b3a7640000"
      },
      "nonce": 1,
      "data": "0x",
      "r": "0x608fea9ff5800df36d98d2ab56b8b74dd90e33d2a950291817eb6ced0a944716",
      "s": "0x74e919d02a0c15a0a4977f3d4853dfd413bf4853386df86f45c822b3d32aa4ae",
      "v": 27,
      "creates": null,
      "raw": "0xf86d01850d424b995583015f909415ce449d4c7f47a4ea1d1c8ab5e15f10d8bdfece880de0b6b3a7640000801ba0608fea9ff5800df36d98d2ab56b8b74dd90e33d2a950291817eb6ced0a944716a074e919d02a0c15a0a4977f3d4853dfd413bf4853386df86f45c822b3d32aa4ae",
      "networkId": 0,
      "chainId": 0
    }
  ]
}