{
  "hash": "0x89edc86bbac581faaa5d32135ece23a08562b0838cbcc0225cdd4e8a50ee8e2e",
  "parentHash": "0x1f64b4d615c237496d91e1eb3d40a534c0e832710a93f07080368f0d315a0de3",
  "number": 101826,
  "timestamp": 1439828653,
  "nonce": "0x29d6f57dac8bdace",
  "difficulty": 3890023124965,
  "gasLimit": {
    "_hex": "0x2fefd5"
  },
  "gasUsed": {
    "_hex": "0x5208"
  },
  "miner": "0x9D49F602b0fdb924Bd63DDE2Bd0907E4A07c63a7",
  "extraData": "0x476574682f76312e302e312f6c696e75782f676f312e342e32",
  "transactions": [
    {
      "hash": "0x05ad298cb08983a57659797aab1aafaf129e445b05f06d5dd2285d847535e205",
      "blockHash": "0x89edc86bbac581faaa5d32135ece23a08562b0838cbcc0225cdd4e8a50ee8e2e",
      "blockNumber": 101826,
      "transactionIndex": 0,
      "confirmations": null,
      "from": "0xf1e46105a7A9A546C1e87de8d741371EFaB9a7b0",
      "gasPrice": {
        "_hex": "0xdce9603ed"
      },
      "gasLimit": {
        "_hex": "0x5208"
      },
      "to": "0x32Be343B94f860124dC4fEe278FDCBD38C102D88",
      "value": {
        "_hex": "0xfa658c9b1f23800"
      },
      "nonce": 2,
      "data": "0x",
      "r": "0x7b37d76b9a6018f23002a2a0621d81f84f249dfc5d270bbb66ffba0c2fe42d77",
      "s": "0x447ecb7fd05b7c52fc8941b1093a97244822de70ae0cd9d1655f211093235d20",
      "v": 27,
      "creates": null,
      "raw": "0xf86c02850dce9603ed8252089432be343b94f860124dc4fee278fdcbd38c102d88880fa658c9b1f23800801ba07b37d76b9a6018f23002a2a0621d81f84f249dfc5d270bbb66ffba0c2fe42d77a0447ecb7fd05b7c52fc8941b1093a97244822de70ae0cd9d1655f211093235d20",
      "networkId": 0,
      "chainId": 0
    }
  ]
}