{
  "hash": "0xb901667c92b9cdba6a64301ab37cae72a95811c643b45f06fdaedd5348ea714e",
  "parentHash": "0xc0a9532c574bdf67b09871218c413dd9e4ebab7641de99ae28b79bdeeeb20d8d",
  "number": 80807,
  "timestamp": 1439491243,
  "nonce": "0x0685b23eeb0cd6a0",
  "difficulty": 2453564388590,
  "gasLimit": {
    "_hex": "0x2fefd8"
  },
  "gasUsed": {
    "_hex": "0x19a28"
  },
  "miner": "0xF2d2AfF1320476cb8C6b607199D23175cc595693",
  "extraData": "0x476574682f76312e302e312f77696e646f77732f676f312e342e32",
  "transactions": [
    {
      "hash": "0x35184ae1364e57dab93191c8cf88e3892603c87c78e078cab367537ad4b1c415",
      "blockHash": "0xb901667c92b9cdba6a64301ab37cae72a95811c643b45f06fdaedd5348ea714e",
      "blockNumber": 80807,
      "transactionIndex": 0,
      "confirmations": null,
      "from": "0xD671e71108Bd20F1A8e2A4f73a7449Bf8DAa840f",
      "gasPrice": {
        "_hex": "0xccf683e9d"
      },
      "gasLimit": {
        "_hex": "0x5208"
      },
      "to": "0x32Be343B94f860124dC4fEe278FDCBD38C102D88",
      "value": {
        "_hex": "0x35b0e5a816244c00"
      },
      "nonce": 0,
      "data": "0x",
      "r": "0x2c8af6296bdfffbf6ce072043b258c734f31868335d18608878d5c9dfb01b7b2",
      "s": "0x557b29ea7f3f8d4bf22b45019dbae5c168dc8d2d4360b6ea518809e1114ea16c",
      "v": 27,
      "creates": null,
      "raw": "0xf86c80850ccf683e9d8252089432be343b94f860124dc4fee278fdcbd38c102d888835b0e5a816244c00801ba02c8af6296bdfffbf6ce072043b258c734f31868335d18608878d5c9dfb01b7b2a0557b29ea7f3f8d4bf22b45019dbae5c168dc8d2d4360b6ea518809e1114ea16c",
      "networkId": 0,
      "chainId": 0
    },
    {
      "hash": "0xa83effa59e69eebaa4dffdbbecfede90d70562cf3338cd2274963be87409c93c",
      "blockHash": "0xb901667c92b9cdba6a64301ab37cae72a95811c643b45f06fdaedd5348ea714e",
      "blockNumber": 80807,
      "transactionIndex": 1,
      "confirmations": null,
      "from": "0x0D4EcC7d750180EBf4A9Df728B6669B5Bceb5E40",
      "gasPrice": {
        "_hex": "0xccf683e9d"
      },
      "gasLimit": {
        "_hex": "0x5208"
      },
      "to": "0x32Be343B94f860124dC4fEe278FDCBD38C102D88",
      "value": {
        "_hex": "0x455f76ab6a554c00"
      },
      "nonce": 7,
      "data": "0x",
      "r": "0xe833f74e4406c7f97792005458bd61c2763919591a6ffd06974a4ec59f6e61aa",
      "s": "0x095bae43849ccb74315339d99318d1ccac5e5f629c914dc551e5eafa5e868be6",
      "v": 27,
      "creates": null,
      "raw": "0xf86c07850ccf683e9d8252089432be343b94f860124dc4fee278fdcbd38c102d8888455f76ab6a554c00801ba0e833f74e4406c7f97792005458bd61c2763919591a6ffd06974a4ec59f6e61aaa0095bae43849ccb74315339d99318d1ccac5e5f629c914dc551e5eafa5e868be6",
      "networkId": 0,
      "chainId": 0
    },
    {
      "hash": "0x56c23f263e3551ddcc994d2660f4c0c8c9dcf52bcce35ca8c3a542bd158321a9",
      "blockHash": "0xb901667c92b9cdba6a64301ab37cae72a95811c643b45f06fdaedd5348ea714e",
      "blockNumber": 80807,
      "transactionIndex": 2,
      "confirmations": null,
      "from": "0x1E42b9c47B7EE14d8e3fCe8c867e497ca6F4FD4C",
      "gasPrice": {
        "_hex": "0xccf683e9d"
      },
      "gasLimit": {
        "_hex": "0x5208"
      },
      "to": "0x32Be343B94f860124dC4fEe278FDCBD38C102D88",
      "value": {
        "_hex": "0x209b6768cdbaf60000"
      },
      "nonce": 0,
      "data": "0x",
      "r": "0xa368814b895048592ff0ebd9f2d01ff19790eddba262cd8a0a349c25ff850291",
      "s": "0x5c3f4ec326e2b3c4805b0ad6a2b88d2495e29bb07902e5373141730409b1618f",
      "v": 28,
      "creates": null,
      "raw": "0xf86d80850ccf683e9d8252089432be343b94f860124dc4fee278fdcbd38c102d8889209b6768cdbaf60000801ca0a368814b895048592ff0ebd9f2d01ff19790eddba262cd8a0a349c25ff850291a05c3f4ec326e2b3c4805b0ad6a2b88d2495e29bb07902e5373141730409b1618f",
      "networkId": 0,
      "chainId": 0
    },
    {
      "hash": "0x98f39552f8817328b9eb01e490709601bff2fc2744646e41d6cc0dd935d7f75c",
      "blockHash": "0xb901667c92b9cdba6a64301ab37cae72a95811c643b45f06fdaedd5348ea714e",
      "blockNumber": 80807,
      "transactionIndex": 3,
      "confirmations": null,
      "from": "0x3620db64D25D412bAb4C8d93E2e0D7e64e8Cb933",
      "gasPrice": {
        "_hex": "0xccf683e9d"
      },
      "gasLimit": {
        "_hex": "0x5208"
      },
      "to": "0x32Be343B94f860124dC4fEe278FDCBD38C102D88",
      "value": {
        "_hex": "0x7439b7c80ad1a0000"
      },
      "nonce": 6,
      "data": "0x",
      "r": "0x2554d3f0e6fe56a83f10f650ae846dc6820aef2cf98b22b4a4c1841639253069",
      "s": "0x37ff1edacf5eb0a88ef9a2104d7c38210ba8aba1eaaeb824a8606bbd580e76ab",
      "v": 27,
      "creates": null,
      "raw": "0xf86d06850ccf683e9d8252089432be343b94f860124dc4fee278fdcbd38c102d888907439b7c80ad1a0000801ba02554d3f0e6fe56a83f10f650ae846dc6820aef2cf98b22b4a4c1841639253069a037ff1edacf5eb0a88ef9a2104d7c38210ba8aba1eaaeb824a8606bbd580e76ab",
      "networkId": 0,
      "chainId": 0
    },
    {
      "hash": "0x0ea463b23309fee2977d4b1dee63bdaa44da5ab8b5d1228ef2fedf6f5177dbc1",
      "blockHash": "0xb901667c92b9cdba6a64301ab37cae72a95811c643b45f06fdaedd5348ea714e",
      "blockNumber": 80807,
      "transactionIndex": 4,
      "confirmations": null,
      "from": "0x0FC25Ed6019450e9B7CeC54eb986B9195F9aD7a6",
      "gasPrice": {
        "_hex": "0xccf683e9d"
      },
      "gasLimit": {
        "_hex": "0x5208"
      },
      "to": "0x32Be343B94f860124dC4fEe278FDCBD38C102D88",
      "value": {
        "_hex": "0xf690412619dbb8000"
      },
      "nonce": 0,
      "data": "0x",
      "r": "0xa1c18da360270ce37fcb86af6e5835eb58b4da22bb410794014f47d0cfbd2d46",
      "s": "0x6602182fac3749222920ff475ff1bafd1c5583d008a0be017995a37dfda4dd2b",
      "v": 28,
      "creates": null,
      "raw": "0xf86d80850ccf683e9d8252089432be343b94f860124dc4fee278fdcbd38c102d88890f690412619dbb8000801ca0a1c18da360270ce37fcb86af6e5835eb58b4da22bb410794014f47d0cfbd2d46a06602182fac3749222920ff475ff1bafd1c5583d008a0be017995a37dfda4dd2b",
      "networkId": 0,
      "chainId": 0
    }
  ]
}