{
  "hash": "0x864087841bf0e4b37502ff13aa7cb802384524f5a2860982d7118fe9d7fe2d21",
  "parentHash": "0x2d8ec1162ab73d723c6288ddd46768711b7136045ca73ab10a700be229525519",
  "number": 85589,
  "timestamp": 1439565844,
  "nonce": "0x2c25b696a9fcb6ca",
  "difficulty": 2773246472347,
  "gasLimit": {
    "_hex": "0x2fefd8"
  },
  "gasUsed": {
    "_hex": "0x5208"
  },
  "miner": "0xe6A7a1d47ff21B6321162AEA7C6CB457D5476Bca",
  "extraData": "0x476574682f76312e302e312d38326566323666362f6c696e75782f676f312e34",
  "transactions": [
    {
      "hash": "0xf3b3fe8530168f6b8f96ef49f3d03384baa16306f6822854987d67abf65bfa6f",
      "blockHash": "0x864087841bf0e4b37502ff13aa7cb802384524f5a2860982d7118fe9d7fe2d21",
      "blockNumber": 85589,
      "transactionIndex": 0,
      "confirmations": null,
      "from": "0x32Be343B94f860124dC4fEe278FDCBD38C102D88",
      "gasPrice": {
        "_hex": "0xd326e8ca1"
      },
      "gasLimit": {
        "_hex": "0x5208"
      },
      "to": "0xa1384030C9d713f67e39Ef2A05a262D29Df13B74",
      "value": {
        "_hex": "0x3a0f2e07195304000"
      },
      "nonce": 736,
      "data": "0x",
      "r": "0x307d92103d41ae11d07a25ede7fca2e49613fbc7be12c56ac8c96d4f32d0a28f",
      "s": "0x24efe014098bb54b0a4e2e3c91e4aa055d8c0ecda6cb362c1038c3ea5ef9fbca",
      "v": 27,
      "creates": null,
      "raw": "0xf86f8202e0850d326e8ca182520894a1384030c9d713f67e39ef2a05a262d29df13b748903a0f2e07195304000801ba0307d92103d41ae11d07a25ede7fca2e49613fbc7be12c56ac8c96d4f32d0a28fa024efe014098bb54b0a4e2e3c91e4aa055d8c0ecda6cb362c1038c3ea5ef9fbca",
      "networkId": 0,
      "chainId": 0
    }
  ]
}