{
  "hash": "0x9deeb79c4cdd025abc342ed3df3e0681bca06851d97a19fd3986d669ddf3c130",
  "parentHash": "0xc4f837c43d81a1e180b787009aae8b760aa5aec32d3b61b88886d1c36213030b",
  "number": 60405,
  "timestamp": 1439155038,
  "nonce": "0xadfb25275055d740",
  "difficulty": 1738972137517,
  "gasLimit": {
    "_hex": "0x2fefd8"
  },
  "gasUsed": {
    "_hex": "0x5208"
  },
  "miner": "0x47ff6576639c2e94762eA5443978D7681C0E78DC",
  "extraData": "0x476574682f76312e302e312f6c696e75782f676f312e342e32",
  "transactions": [
    {
      "hash": "0xf7700fe8a2cc8050656e7e0151c48127a144ffab2b3733dcd714f93b8d76eb52",
      "blockHash": "0x9deeb79c4cdd025abc342ed3df3e0681bca06851d97a19fd3986d669ddf3c130",
      "blockNumber": 60405,
      "transactionIndex": 0,
      "confirmations": null,
      "from": "0xc955d372Fe1c428D17CD86E05d26F0206F3677b1",
      "gasPrice": {
        "_hex": "0xd2ba68684"
      },
      "gasLimit": {
        "_hex": "0x5208"
      },
      "to": "0x32Be343B94f860124dC4fEe278FDCBD38C102D88",
      "value": {
        "_hex": "0xc7938d57046c400"
      },
      "nonce": 6,
      "data": "0x",
      "r": "0xf744c49f0a795c4723f6544ac531686e8053e3885ae00ed57b8e3c4927c1ec8d",
      "s": "0x1ca294bf690986de99c207040d5a2fadff11255e65776d1fbdfe2dd07f5e335e",
      "v": 28,
      "creates": null,
      "raw": "0xf86c06850d2ba686848252089432be343b94f860124dc4fee278fdcbd38c102d88880c7938d57046c400801ca0f744c49f0a795c4723f6544ac531686e8053e3885ae00ed57b8e3c4927c1ec8da01ca294bf690986de99c207040d5a2fadff11255e65776d1fbdfe2dd07f5e335e",
      "networkId": 0,
      "chainId": 0
    }
  ]
}