{
  "hash": "0x122d473d9a76ce8acb67603ecabaacea65831be363c8d72287d73d8c2f206c04",
  "parentHash": "0xd445f7dff612d264f97bb3337fc4d2cf7a6fb13e2fbfcda8f26b28ccf7373bb7",
  "number": 106066,
  "timestamp": 1439898000,
  "nonce": "0x0daa1440e252fc9c",
  "difficulty": 4479499084168,
  "gasLimit": {
    "_hex": "0x2fefd8"
  },
  "gasUsed": {
    "_hex": "0x579e"
  },
  "miner": "0xe6A7a1d47ff21B6321162AEA7C6CB457D5476Bca",
  "extraData": "0x476574682f76312e302e312d38326566323666362f6c696e75782f676f312e34",
  "transactions": [
    {
      "hash": "0x09ef35d947d5db0383b8d3760bb7690dc9b35bba91318fe57ad92c54c9516709",
      "blockHash": "0x122d473d9a76ce8acb67603ecabaacea65831be363c8d72287d73d8c2f206c04",
      "blockNumber": 106066,
      "transactionIndex": 0,
      "confirmations": null,
      "from": "0x87C5B5874A18B4306DF8a752a6C8cc3E82daFc19",
      "gasPrice": {
        "_hex": "0x109857e47cb"
      },
      "gasLimit": {
        "_hex": "0x493e0"
      },
      "to": "0xD79B4C6791784184e2755B2fC1659eaaB0f80456",
      "value": {
        "_hex": "0x0"
      },
      "nonce": 340,
      "data": "0xbd66528a6b6b6b0000000000000000000000000000000000000000000000000000000000",
      "r": "0x404eff2b989b10d36e6d502b5eaf10c0640328eb49c2778e122357e4738a8f60",
      "s": "0x799dc493dbfc5fb20ff99b44866abd550f67e2255523ccf906c7f9a0181b1c4d",
      "v": 27,
      "creates": null,
      "raw": "0xf88c820154860109857e47cb830493e094d79b4c6791784184e2755b2fc1659eaab0f8045680a4bd66528a6b6b6b00000000000000000000000000000000000000000000000000000000001ba0404eff2b989b10d36e6d502b5eaf10c0640328eb49c2778e122357e4738a8f60a0799dc493dbfc5fb20ff99b44866abd550f67e2255523ccf906c7f9a0181b1c4d",
      "networkId": 0,
      "chainId": 0
    }
  ]
}