{
  "hash": "0xf9b2d61064217784983a3eac19d35446565abee54852ed1e44966f14b96db02e",
  "parentHash": "0xae7139feff332e551624509800a9e233002f18187beb40156e61f8929e18b532",
  "number": 84733,
  "timestamp": 1439553862,
  "nonce": "0xce504488c0a72d56",
  "difficulty": 2613134272508,
  "gasLimit": {
    "_hex": "0x2fefd8"
  },
  "gasUsed": {
    "_hex": "0xa97a"
  },
  "miner": "0xf927a40C8B7F6E07c5af7FA2155B4864a4112B13",
  "extraData": "0x",
  "transactions": [
    {
      "hash": "0x75dfa5b4e3ac9c530aeaffee130769d16b41b63d36ea93aca22b6a20e83679dc",
      "blockHash": "0xf9b2d61064217784983a3eac19d35446565abee54852ed1e44966f14b96db02e",
      "blockNumber": 84733,
      "transactionIndex": 0,
      "confirmations": null,
      "from": "0xC4c6bAF00209a0f33331e4B7cb1c7B680A3d2F79",
      "gasPrice": {
        "_hex": "0xd41110104"
      },
      "gasLimit": {
        "_hex": "0x15f90"
      },
      "to": "0xa1A111bc074c9cfa781F0C38e63bD51c91b8af00",
      "value": {
        "_hex": "0x3bd913e6c1df40000"
      },
      "nonce": 3,
      "data": "0x432ced0459554e4200000000000000000000000000000000000000000000000000000000",
      "r": "0xde8bcf8ab66a848c9a0287c075ff764a3e8a18185aa75a68c9a6b7796ad9136b",
      "s": "0x18bd24a5fcea0b29234e62fe4acf8c22f1df23a4b35af98b08ddcdf05fb9b365",
      "v": 28,
      "creates": null,
      "raw": "0xf89203850d4111010483015f9094a1a111bc074c9cfa781f0c38e63bd51c91b8af008903bd913e6c1df40000a4432ced0459554e42000000000000000000000000000000000000000000000000000000001ca0de8bcf8ab66a848c9a0287c075ff764a3e8a18185aa75a68c9a6b7796ad9136ba018bd24a5fcea0b29234e62fe4acf8c22f1df23a4b35af98b08ddcdf05fb9b365",
      "networkId": 0,
      "chainId": 0
    }
  ]
}