{
  "hash": "0xc9c6a856e829a09128573c1cfe3e230a49556980bc86a2abda41f5fbfa69578c",
  "parentHash": "0x3fe68a4ff0d23d4df13166c018da989f8a81db4f9b244d566d8f0603d8b1b03f",
  "number": 71940,
  "timestamp": 1439344326,
  "nonce": "0x17eca7ed57dd555f",
  "difficulty": 2177099247675,
  "gasLimit": {
    "_hex": "0x2fefd8"
  },
  "gasUsed": {
    "_hex": "0x24504"
  },
  "miner": "0xf8E0CA3Ed80bd541b94BEdCf259e8CF2141A9523",
  "extraData": "0x476574682f76312e302e312f77696e646f77732f676f312e342e32",
  "transactions": [
    {
      "hash": "0x78db7bd3d517c0355f419020456ccdb1d8553985b5565d2ef41d42f2df5d7958",
      "blockHash": "0xc9c6a856e829a09128573c1cfe3e230a49556980bc86a2abda41f5fbfa69578c",
      "blockNumber": 71940,
      "transactionIndex": 0,
      "confirmations": null,
      "from": "0x4FAbC395F6Be877A5C797Dd3AF42C8E5D0261ED1",
      "gasPrice": {
        "_hex": "0xd9179062c"
      },
      "gasLimit": {
        "_hex": "0x61a8"
      },
      "to": "0x2910543Af39abA0Cd09dBb2D50200b3E800A63D2",
      "value": {
        "_hex": "0x15b28459f04bb4b40"
      },
      "nonce": 0,
      "data": "0x454e484d3633324a47",
      "r": "0x8a8f976e3599a34af1a864fbd19f3c336d67999a89f758f73690a4035e4ace56",
      "s": "0x743c64983f805866a9f7232bf3388869b4134d5c9e28fa1ca9626308e1e03c0d",
      "v": 28,
      "creates": null,
      "raw": "0xf87680850d9179062c8261a8942910543af39aba0cd09dbb2d50200b3e800a63d289015b28459f04bb4b4089454e484d3633324a471ca08a8f976e3599a34af1a864fbd19f3c336d67999a89f758f73690a4035e4ace56a0743c64983f805866a9f7232bf3388869b4134d5c9e28fa1ca9626308e1e03c0d",
      "networkId": 0,
      "chainId": 0
    },
    {
      "hash": "0xee00e16ffce4bdcf6c850efeb39146a680bd75e3e4ab70692ac95f3e08071d43",
      "blockHash": "0xc9c6a856e829a09128573c1cfe3e230a49556980bc86a2abda41f5fbfa69578c",
      "blockNumber": 71940,
      "transactionIndex": 1,
      "confirmations": null,
      "from": "0x17580B766f7453525ca4C6A88b01b50570EA088C",
      "gasPrice": {
        "_hex": "0xd547a0e6e"
      },
      "gasLimit": {
        "_hex": "0x61a80"
      },
      "to": "0x5Fe5B7546D1628f7348B023A0393de1FC825A4fD",
      "value": {
        "_hex": "0x8ac7230489e80000"
      },
      "nonce": 300,
      "data": "0xb595b8b50000000000000000000000000000000000000000000000000000000000000000",
      "r": "0x68ac375c1fa910f8dd562d7e763346e2961dd5340981faca2512702aa8f60522",
      "s": "0x7259b08b631e429e168324f2e35a6aa78ded6eed8d5677f720d4003628f16a9e",
      "v": 27,
      "creates": null,
      "raw": "0xf89382012c850d547a0e6e83061a80945fe5b7546d1628f7348b023a0393de1fc825a4fd888ac7230489e80000a4b595b8b500000000000000000000000000000000000000000000000000000000000000001ba068ac375c1fa910f8dd562d7e763346e2961dd5340981faca2512702aa8f60522a07259b08b631e429e168324f2e35a6aa78ded6eed8d5677f720d4003628f16a9e",
      "networkId": 0,
      "chainId": 0
    },
    {
      "hash": "0xbd9879836edf5e33e2790253700b7dc2bd00f32ca32bdbaa45b79db42a2a3afa",
      "blockHash": "0xc9c6a856e829a09128573c1cfe3e230a49556980bc86a2abda41f5fbfa69578c",
      "blockNumber": 71940,
      "transactionIndex": 2,
      "confirmations": null,
      "from": "0x17580B766f7453525ca4C6A88b01b50570EA088C",
      "gasPrice": {
        "_hex": "0xd547a0e6e"
      },
      "gasLimit": {
        "_hex": "0x61a80"
      },
      "to": "0x5Fe5B7546D1628f7348B023A0393de1FC825A4fD",
      "value": {
        "_hex": "0x8ac7230489e80000"
      },
      "nonce": 301,
      "data": "0xb595b8b50000000000000000000000000000000000000000000000000000000000000000",
      "r": "0xcc910d0ea3db20618ba90ae8c5e6414c43c7925addbf3d6abcadc4d9ecb942c5",
      "s": "0x0b9d3f4bd533b56f9bdc160f3ee27b638f226c50afbf6b1273766305a0d78735",
      "v": 27,
      "creates": null,
      "raw": "0xf89382012d850d547a0e6e83061a80945fe5b7546d1628f7348b023a0393de1fc825a4fd888ac7230489e80000a4b595b8b500000000000000000000000000000000000000000000000000000000000000001ba0cc910d0ea3db20618ba90ae8c5e6414c43c7925addbf3d6abcadc4d9ecb942c5a00b9d3f4bd533b56f9bdc160f3ee27b638f226c50afbf6b1273766305a0d78735",
      "networkId": 0,
      "chainId": 0
    },
    {
      "hash": "0xe4a079ab5f64391b2a5aadbe2c1b36ff0b0c1100d6bd3811ea92f666611ded18",
      "blockHash": "0xc9c6a856e829a09128573c1cfe3e230a49556980bc86a2abda41f5fbfa69578c",
      "blockNumber": 71940,
      "transactionIndex": 3,
      "confirmations": null,
      "from": "0x17580B766f7453525ca4C6A88b01b50570EA088C",
      "gasPrice": {
        "_hex": "0xd547a0e6e"
      },
      "gasLimit": {
        "_hex": "0x61a80"
      },
      "to": "0x5Fe5B7546D1628f7348B023A0393de1FC825A4fD",
      "value": {
        "_hex": "0x8ac7230489e80000"
      },
      "nonce": 302,
      "data": "0xb595b8b50000000000000000000000000000000000000000000000000000000000000000",
      "r": "0x16010b1402ccd9e0d0a1300aa4e6e40752631764795715c25fb4932c6b9bf586",
      "s": "0x1bce41388715411a56e8afc872fa5b896c4ff8edc82d61f753ef09b474b84794",
      "v": 28,
      "creates": null,
      "raw": "0xf89382012e850d547a0e6e83061a80945fe5b7546d1628f7348b023a0393de1fc825a4fd888ac7230489e80000a4b595b8b500000000000000000000000000000000000000000000000000000000000000001ca016010b1402ccd9e0d0a1300aa4e6e40752631764795715c25fb4932c6b9bf586a01bce41388715411a56e8afc872fa5b896c4ff8edc82d61f753ef09b474b84794",
      "networkId": 0,
      "chainId": 0
    }
  ]
}