{
  "hash": "0x26f7c5f09d7023ccd898633e510f3272e1989bc308748492957983ba0a21ca52",
  "parentHash": "0xd6a85427c6d43040220a3220b204612ffde33115e4424031693ab9eb3220e2c5",
  "number": 53022,
  "timestamp": 1439031145,
  "nonce": "0x46687246ba5159dc",
  "difficulty": 1574718728492,
  "gasLimit": {
    "_hex": "0x1dfa0e"
  },
  "gasUsed": {
    "_hex": "0x5208"
  },
  "miner": "0x9746c7e1ef2bd21FF3997fa467593a89cb852BD0",
  "extraData": "0x476574682f76312e302e312f77696e646f77732f676f312e342e32",
  "transactions": [
    {
      "hash": "0xa08ef30431d62c19866eee8f6b8a9a695a4c24f8fdb125044a264fe57662a2ef",
      "blockHash": "0x26f7c5f09d7023ccd898633e510f3272e1989bc308748492957983ba0a21ca52",
      "blockNumber": 53022,
      "transactionIndex": 0,
      "confirmations": null,
      "from": "0x095270cc42141dd998aD2862DBD1fE9B44E7e650",
      "gasPrice": {
        "_hex": "0xcbb4430d8"
      },
      "gasLimit": {
        "_hex": "0x5208"
      },
      "to": "0xA58a34ca2DD2dE7520b845B3628C518Fec14A76B",
      "value": {
        "_hex": "0x3635c9adc5dea00000"
      },
      "nonce": 2,
      "data": "0x",
      "r": "0xca36a33a4aca693a87493ceeded5bcd7e250086d213c07c77c36ee7245f254e8",
      "s": "0x516fbe8d94d24cf2af64a32a2b0c6229a1f63f8a088e3665f69a1ed61daddfd6",
      "v": 28,
      "creates": null,
      "raw": "0xf86d02850cbb4430d882520894a58a34ca2dd2de7520b845b3628c518fec14a76b893635c9adc5dea00000801ca0ca36a33a4aca693a87493ceeded5bcd7e250086d213c07c77c36ee7245f254e8a0516fbe8d94d24cf2af64a32a2b0c6229a1f63f8a088e3665f69a1ed61daddfd6",
      "networkId": 0,
      "chainId": 0
    }
  ]
}