{
  "hash": "0x29e9daa2ac25defeef542fa14921e07030e563e82641554614961da56ee49824",
  "parentHash": "0xeea2ece357cb13007d13ce9cf7f0429dd77076c39fea20f9d33e84bcfe692dac",
  "number": 76216,
  "timestamp": 1439416757,
  "nonce": "0x071d4f1c61f9f310",
  "difficulty": 2236310441590,
  "gasLimit": {
    "_hex": "0x2fefd5"
  },
  "gasUsed": {
    "_hex": "0x5208"
  },
  "miner": "0xe6A7a1d47ff21B6321162AEA7C6CB457D5476Bca",
  "extraData": "0x476574682f76312e302e312d38326566323666362f6c696e75782f676f312e34",
  "transactions": [
    {
      "hash": "0x5d3b4583effb9274ad892a4efd78c0d376af07fd87ebb6619817e64cbdf7d435",
      "blockHash": "0x29e9daa2ac25defeef542fa14921e07030e563e82641554614961da56ee49824",
      "blockNumber": 76216,
      "transactionIndex": 0,
      "confirmations": null,
      "from": "0x0C9A9E318c2FbF98388cCC81141392c066fbbC19",
      "gasPrice": {
        "_hex": "0xd829211eb"
      },
      "gasLimit": {
        "_hex": "0x7a120"
      },
      "to": "0x845264090f92208be6d81cbCdE052691F39e4716",
      "value": {
        "_hex": "0x107ad8f556c6c0000"
      },
      "nonce": 1,
      "data": "0x",
      "r": "0x4cc8a96f73ce58235adc350a325c277edb9c505173d2589fa9a4fa030de97d1e",
      "s": "0x64cb065b80e55c298c80c4aeeb285dd2ac3276c8c4117703013c645848c5bd0e",
      "v": 28,
      "creates": null,
      "raw": "0xf86e01850d829211eb8307a12094845264090f92208be6d81cbcde052691f39e4716890107ad8f556c6c0000801ca04cc8a96f73ce58235adc350a325c277edb9c505173d2589fa9a4fa030de97d1ea064cb065b80e55c298c80c4aeeb285dd2ac3276c8c4117703013c645848c5bd0e",
      "networkId": 0,
      "chainId": 0
    }
  ]
}