{
  "hash": "0x50b1f309ba5efa185f6ceec265937f467328afd1cf99b82f987b34df265af926",
  "parentHash": "0x7a6d8769182b669d97cd3e556d24849dbf3ee0955d0d699bfaa91c3087058888",
  "number": 61835,
  "timestamp": 1439178989,
  "nonce": "0x2bf427a42fa30168",
  "difficulty": 1735283184222,
  "gasLimit": {
    "_hex": "0x2fefd8"
  },
  "gasUsed": {
    "_hex": "0x5498"
  },
  "miner": "0xEF247E639d49461D25F57e9362CadE3120910Ce0",
  "extraData": "0x476574682f76312e302e312f6c696e75782f676f312e342e32",
  "transactions": [
    {
      "hash": "0x56a07d54516a02a66b2a5e95f3cf5985815062dbb12a6252630f07008aa114dd",
      "blockHash": "0x50b1f309ba5efa185f6ceec265937f467328afd1cf99b82f987b34df265af926",
      "blockNumber": 61835,
      "transactionIndex": 0,
      "confirmations": null,
      "from": "0xFBb1b73C4f0BDa4f67dcA266ce6Ef42f520fBB98",
      "gasPrice": {
        "_hex": "0xcd0945028"
      },
      "gasLimit": {
        "_hex": "0x15f90"
      },
      "to": "0x4fDaeBe9EAc15eb5bC0170F6A36F19Eaed75D8eF",
      "value": {
        "_hex": "0x3bd913e6c1df40000"
      },
      "nonce": 0,
      "data": "0x432ced044254525800000000000000000000000000000000000000000000000000000000",
      "r": "0x0a7055842af169bbee35b7f9b408f5565ae6276ad2b902d8b936e71ed24880dc",
      "s": "0x01d3c2a840ad993fd8cba8bd7f421470266ad0a5eac21b3aaec52ed8bd7c501a",
      "v": 27,
      "creates": null,
      "raw": "0xf89280850cd094502883015f90944fdaebe9eac15eb5bc0170f6a36f19eaed75d8ef8903bd913e6c1df40000a4432ced0442545258000000000000000000000000000000000000000000000000000000001ba00a7055842af169bbee35b7f9b408f5565ae6276ad2b902d8b936e71ed24880dca001d3c2a840ad993fd8cba8bd7f421470266ad0a5eac21b3aaec52ed8bd7c501a",
      "networkId": 0,
      "chainId": 0
    }
  ]
}