{
  "hash": "0x58e280df4fc1e219dfc3a4a254dbd6fd202c13cfe83dfae4c1abe5fb95c4fc74",
  "parentHash": "0xf9f12f29bc0347683d7409fe02bf8072896ec06021038eb3b376bf91d7c77e95",
  "number": 79157,
  "timestamp": 1439465534,
  "nonce": "0x48d474ca265409e7",
  "difficulty": 2309870899569,
  "gasLimit": {
    "_hex": "0x2fefd8"
  },
  "gasUsed": {
    "_hex": "0xa410"
  },
  "miner": "0x53824166ea5271d3425e3194c848A90CA4e97eB2",
  "extraData": "0x476574682f76312e302e312f6c696e75782f676f312e342e32",
  "transactions": [
    {
      "hash": "0x1de33afea9e6eaea34a5371fce69e1413eb9207e4a1ab4872680940fe0365852",
      "blockHash": "0x58e280df4fc1e219dfc3a4a254dbd6fd202c13cfe83dfae4c1abe5fb95c4fc74",
      "blockNumber": 79157,
      "transactionIndex": 0,
      "confirmations": null,
      "from": "0xe6A7a1d47ff21B6321162AEA7C6CB457D5476Bca",
      "gasPrice": {
        "_hex": "0xd031eaf4e"
      },
      "gasLimit": {
        "_hex": "0x55f0"
      },
      "to": "0x4bA6C728e6251DC89C317f7dbCA89D4136C0baB0",
      "value": {
        "_hex": "0x1e0c675d6d31acfc"
      },
      "nonce": 1392,
      "data": "0x",
      "r": "0x5f36326a32e2a2cb5763209ced2ffc3b444ce58e5999f09bfac43a89fb82d4a8",
      "s": "0x1518c86e50d43ad26a9e7e5d07933b024eab1446fa4a05e9d15549b74fd14dfc",
      "v": 27,
      "creates": null,
      "raw": "0xf86e820570850d031eaf4e8255f0944ba6c728e6251dc89c317f7dbca89d4136c0bab0881e0c675d6d31acfc801ba05f36326a32e2a2cb5763209ced2ffc3b444ce58e5999f09bfac43a89fb82d4a8a01518c86e50d43ad26a9e7e5d07933b024eab1446fa4a05e9d15549b74fd14dfc",
      "networkId": 0,
      "chainId": 0
    },
    {
      "hash": "0xf3e7c91abced3e6ab868652d1e34159d1ab069b7b057e9c5c903fffd69cfc7d7",
      "blockHash": "0x58e280df4fc1e219dfc3a4a254dbd6fd202c13cfe83dfae4c1abe5fb95c4fc74",
      "blockNumber": 79157,
      "transactionIndex": 1,
      "confirmations": null,
      "from": "0xe6A7a1d47ff21B6321162AEA7C6CB457D5476Bca",
      "gasPrice": {
        "_hex": "0xd031eaf4e"
      },
      "gasLimit": {
        "_hex": "0x55f0"
      },
      "to": "0xCCe96724c29e042F35bCe1c2405feB0e8E30082b",
      "value": {
        "_hex": "0x5ec59c38857550e8"
      },
      "nonce": 1393,
      "data": "0x",
      "r": "0x3a92ed8ee03e5a843a6983c3079e527af8ab26274af0ecd85dd58cd1f357cbca",
      "s": "0x7b1107c5e7bf9bebb5e879396d7eab7efc9edf5e2675f089d71159b1d34678ec",
      "v": 28,
      "creates": null,
      "raw": "0xf86e820571850d031eaf4e8255f094cce96724c29e042f35bce1c2405feb0e8e30082b885ec59c38857550e8801ca03a92ed8ee03e5a843a6983c3079e527af8ab26274af0ecd85dd58cd1f357cbcaa07b1107c5e7bf9bebb5e879396d7eab7efc9edf5e2675f089d71159b1d34678ec",
      "networkId": 0,
      "chainId": 0
    }
  ]
}