{
  "hash": "0x96c5f5b52080769ccda3ec32b4b80589e5a663b11d3df028f2bf3a33c7152eb6",
  "parentHash": "0x859bda27bfe1fa03ea86ea2ad3a5438e1b94b3c544eba9b9ad36b2e8c7dbba1a",
  "number": 68912,
  "timestamp": 1439295585,
  "nonce": "0xabc52c5d5be1a9db",
  "difficulty": 2024073657665,
  "gasLimit": {
    "_hex": "0x2fefd8"
  },
  "gasUsed": {
    "_hex": "0xf618"
  },
  "miner": "0x0037ce3d4B7f8729C8607D8D0248252Be68202c0",
  "extraData": "0x476574682f76312e302e312f77696e646f77732f676f312e342e32",
  "transactions": [
    {
      "hash": "0x7716d11870496aae8dc2c186d403fa545ca020b3466e763f1082ef71b3d19b92",
      "blockHash": "0x96c5f5b52080769ccda3ec32b4b80589e5a663b11d3df028f2bf3a33c7152eb6",
      "blockNumber": 68912,
      "transactionIndex": 0,
      "confirmations": null,
      "from": "0x93484ae92b04402DE122b5C0b4727515610f1A6B",
      "gasPrice": {
        "_hex": "0xba43b7400"
      },
      "gasLimit": {
        "_hex": "0x5208"
      },
      "to": "0xFe620a3A479F251615FdA280ce10b3346adC5e53",
      "value": {
        "_hex": "0x4e1253f5de4000"
      },
      "nonce": 1,
      "data": "0x",
      "r": "0x66c861f073202aa875e0807f2f620c8f5d10e3a0f5535774b40f159787543b50",
      "s": "0x6374764ea29d05c11b2f717c4c1e97d86a22f11654231b975084b18e783e3fb5",
      "v": 27,
      "creates": null,
      "raw": "0xf86b01850ba43b740082520894fe620a3a479f251615fda280ce10b3346adc5e53874e1253f5de4000801ba066c861f073202aa875e0807f2f620c8f5d10e3a0f5535774b40f159787543b50a06374764ea29d05c11b2f717c4c1e97d86a22f11654231b975084b18e783e3fb5",
      "networkId": 0,
      "chainId": 0
    },
    {
      "hash": "0x5432da2fc8ee3cfa4822b8df509101421168f9bbca4de4088a1a0bf7406312d0",
      "blockHash": "0x96c5f5b52080769ccda3ec32b4b80589e5a663b11d3df028f2bf3a33c7152eb6",
      "blockNumber": 68912,
      "transactionIndex": 1,
      "confirmations": null,
      "from": "0x09D737500E921761a493E542A3A020C5d3FFD80a",
      "gasPrice": {
        "_hex": "0xba43b7400"
      },
      "gasLimit": {
        "_hex": "0x5208"
      },
      "to": "0x66c00128006D8A4246022a21F5670c5ea62DdB91",
      "value": {
        "_hex": "0x4e1253f5de4000"
      },
      "nonce": 1,
      "data": "0x",
      "r": "0x9b2230222bbbbe4850d9f3b8ecb6cc9d7e5053095ddd084e878192d01571310d",
      "s": "0x4f1a05ad9c78a0e5c7c1f7e2ac3f553a817016686768f55a1252b45859d9d9b5",
      "v": 27,
      "creates": null,
      "raw": "0xf86b01850ba43b74008252089466c00128006d8a4246022a21f5670c5ea62ddb91874e1253f5de4000801ba09b2230222bbbbe4850d9f3b8ecb6cc9d7e5053095ddd084e878192d01571310da04f1a05ad9c78a0e5c7c1f7e2ac3f553a817016686768f55a1252b45859d9d9b5",
      "networkId": 0,
      "chainId": 0
    },
    {
      "hash": "0xec2d41599496f48bfc98ead68fa06cb75c2027a4010722123c93a350fb3d266b",
      "blockHash": "0x96c5f5b52080769ccda3ec32b4b80589e5a663b11d3df028f2bf3a33c7152eb6",
      "blockNumber": 68912,
      "transactionIndex": 2,
      "confirmations": null,
      "from": "0x05867a64eAAAD7e0949a70f745407c33D8A3aDF3",
      "gasPrice": {
        "_hex": "0xba43b7400"
      },
      "gasLimit": {
        "_hex": "0x5208"
      },
      "to": "0x569aaE4BbE9223F05Be4A3a9FABD908ef9565a4E",
      "value": {
        "_hex": "0x4e1253f5de4000"
      },
      "nonce": 1,
      "data": "0x",
      "r": "0x3c95a18b684f1b2ddf91f226fbff4b0f6c41fa9423bc56cda75d4c93d00212a3",
      "s": "0x53a2da5358f4adae2176b799c2f14f15ad60ba68f100feba5611225354e93733",
      "v": 28,
      "creates": null,
      "raw": "0xf86b01850ba43b740082520894569aae4bbe9223f05be4a3a9fabd908ef9565a4e874e1253f5de4000801ca03c95a18b684f1b2ddf91f226fbff4b0f6c41fa9423bc56cda75d4c93d00212a3a053a2da5358f4adae2176b799c2f14f15ad60ba68f100feba5611225354e93733",
      "networkId": 0,
      "chainId": 0
    }
  ]
}