{
  "hash": "0x14ad92445ceae8447d90ce9a73b8b1ee0a31bf4b3fd375393f2a95331286a907",
  "parentHash": "0x9f7e99e340c1225a206a7f726a586c5d0efa74ddef3c463ea7e701484a567f1e",
  "number": 107533,
  "timestamp": 1439924051,
  "nonce": "0x6e3029a33c5439a4",
  "difficulty": 4424376286607,
  "gasLimit": {
    "_hex": "0x2fefd8"
  },
  "gasUsed": {
    "_hex": "0x5208"
  },
  "miner": "0xe6A7a1d47ff21B6321162AEA7C6CB457D5476Bca",
  "extraData": "0x476574682f76312e302e312d38326566323666362f6c696e75782f676f312e34",
  "transactions": [
    {
      "hash": "0x8aca736dc451128ecc7aa5d1a17c3a61a9d07ea8233726b7131986815d9bd5dc",
      "blockHash": "0x14ad92445ceae8447d90ce9a73b8b1ee0a31bf4b3fd375393f2a95331286a907",
      "blockNumber": 107533,
      "transactionIndex": 0,
      "confirmations": null,
      "from": "0xe3002160DEbB2936e6ca494ed36F28056ed7aEfd",
      "gasPrice": {
        "_hex": "0xe1a21d7fe"
      },
      "gasLimit": {
        "_hex": "0x55f0"
      },
      "to": "0xF161498A7f225A91C338015ca11833B3399393A8",
      "value": {
        "_hex": "0x2386f26fc10000"
      },
      "nonce": 2,
      "data": "0x",
      "r": "0x7532236d6c68bc5ffd50bdcdbe5d1ff753fb3ffcfb79b665df490bdc5e215b02",
      "s": "0x18c3f69eec3b0b2b631f0308a184418f68ea697857512a6ba1f988328dca9a6c",
      "v": 27,
      "creates": null,
      "raw": "0xf86b02850e1a21d7fe8255f094f161498a7f225a91c338015ca11833b3399393a8872386f26fc10000801ba07532236d6c68bc5ffd50bdcdbe5d1ff753fb3ffcfb79b665df490bdc5e215b02a018c3f69eec3b0b2b631f0308a184418f68ea697857512a6ba1f988328dca9a6c",
      "networkId": 0,
      "chainId": 0
    }
  ]
}