{
  "hash": "0xf039ca906bf38a58a41095303f89c89c421539bcce0a52a0e89e8e2df8a41de6",
  "parentHash": "0x5ed48a5f635d49c439317a072d5384e20c48ac0ba70e886ce3a10d146df37ddf",
  "number": 78297,
  "timestamp": 1439451604,
  "nonce": "0xeeee572db5564646",
  "difficulty": 2278739135518,
  "gasLimit": {
    "_hex": "0x2fefd8"
  },
  "gasUsed": {
    "_hex": "0x5208"
  },
  "miner": "0xe6A7a1d47ff21B6321162AEA7C6CB457D5476Bca",
  "extraData": "0x476574682f76312e302e312d38326566323666362f6c696e75782f676f312e34",
  "transactions": [
    {
      "hash": "0x26ef43d1b85725c82de1313d63b6aa384e9b977a5c41d6663ffe497dec6163c3",
      "blockHash": "0xf039ca906bf38a58a41095303f89c89c421539bcce0a52a0e89e8e2df8a41de6",
      "blockNumber": 78297,
      "transactionIndex": 0,
      "confirmations": null,
      "from": "0x2159240813A73095a7Ebf7C3b3743e8028aE5f09",
      "gasPrice": {
        "_hex": "0xd69b48315"
      },
      "gasLimit": {
        "_hex": "0x15f90"
      },
      "to": "0x7d047d5F0C5b1DAB4220a98327Ec79586C8941DF",
      "value": {
        "_hex": "0x56bc75e2d63100000"
      },
      "nonce": 6,
      "data": "0x",
      "r": "0xad5b9230a99fde5d8d8ef942a81736bc7ca9bfe513b1fcb6419016b5e9b87a10",
      "s": "0x7ddc310a8ac4e7fb17b81c42dd86f58076bf4ccbb870ca024f71b486241438f2",
      "v": 28,
      "creates": null,
      "raw": "0xf86e06850d69b4831583015f90947d047d5f0c5b1dab4220a98327ec79586c8941df89056bc75e2d63100000801ca0ad5b9230a99fde5d8d8ef942a81736bc7ca9bfe513b1fcb6419016b5e9b87a10a07ddc310a8ac4e7fb17b81c42dd86f58076bf4ccbb870ca024f71b486241438f2",
      "networkId": 0,
      "chainId": 0
    }
  ]
}