{
  "hash": "0xfe1a413f67993c578a5844855f698ac70822986ed77e4c3cc41565a9a62006de",
  "parentHash": "0xa2239e6c9f7374c5d76d83cc6bf690a53702144e6e3607dbc5b5b9cd31877b6a",
  "number": 110358,
  "timestamp": 1439972464,
  "nonce": "0xd5514d51720265d8",
  "difficulty": 4360699118074,
  "gasLimit": {
    "_hex": "0x2fefd8"
  },
  "gasUsed": {
    "_hex": "0x5208"
  },
  "miner": "0xe6A7a1d47ff21B6321162AEA7C6CB457D5476Bca",
  "extraData": "0x476574682f76312e302e312d38326566323666362f6c696e75782f676f312e34",
  "transactions": [
    {
      "hash": "0x985f91608382d1815679ccd8f03c2ef1ef5e011883de1e45fdb9078f5fe46b8d",
      "blockHash": "0xfe1a413f67993c578a5844855f698ac70822986ed77e4c3cc41565a9a62006de",
      "blockNumber": 110358,
      "transactionIndex": 0,
      "confirmations": null,
      "from": "0x9cF18B3eb373C383a42d06136ba331D766ed9Fbb",
      "gasPrice": {
        "_hex": "0xce78defd5"
      },
      "gasLimit": {
        "_hex": "0x5208"
      },
      "to": "0x32Be343B94f860124dC4fEe278FDCBD38C102D88",
      "value": {
        "_hex": "0x23ccf029544b54000"
      },
      "nonce": 9,
      "data": "0x",
      "r": "0x13e8305d7e819ae69d732e62e20b0d4aca4eed8756e26055ac24e9fa0c5512b3",
      "s": "0x6da8a83cd949cc70ceb9a0e845efc85bbd1419dd5a7e466259b7bb2e2baebcae",
      "v": 27,
      "creates": null,
      "raw": "0xf86d09850ce78defd58252089432be343b94f860124dc4fee278fdcbd38c102d8889023ccf029544b54000801ba013e8305d7e819ae69d732e62e20b0d4aca4eed8756e26055ac24e9fa0c5512b3a06da8a83cd949cc70ceb9a0e845efc85bbd1419dd5a7e466259b7bb2e2baebcae",
      "networkId": 0,
      "chainId": 0
    }
  ]
}