{
  "hash": "0x18968696ee6ae87627a536418cf9dd840f15f51fbf886ed0c77233200a27a6de",
  "parentHash": "0x021a2ede3f0c28660ff3d9341c4c1bed30314f3cd71c25dd762f2e9ed40aa76c",
  "number": 87203,
  "timestamp": 1439588865,
  "nonce": "0x88b39c78ff7818f5",
  "difficulty": 3063124963232,
  "gasLimit": {
    "_hex": "0x2fefd8"
  },
  "gasUsed": {
    "_hex": "0xa410"
  },
  "miner": "0x01d9DA08cc6Fb97c0DE1B6F4C28910A0859Ed1A1",
  "extraData": "0x476574682f76312e302e312f6c696e75782f676f312e342e32",
  "transactions": [
    {
      "hash": "0x5954a495eaba1c20951359c4310146b3a81d7dbc381e2003b6d7eca517da3ee6",
      "blockHash": "0x18968696ee6ae87627a536418cf9dd840f15f51fbf886ed0c77233200a27a6de",
      "blockNumber": 87203,
      "transactionIndex": 0,
      "confirmations": null,
      "from": "0xF87481A262E993a75F791E7859E71BaC36A606Eb",
      "gasPrice": {
        "_hex": "0xd76ec9ebb"
      },
      "gasLimit": {
        "_hex": "0x5208"
      },
      "to": "0x32Be343B94f860124dC4fEe278FDCBD38C102D88",
      "value": {
        "_hex": "0x5b1269f2b2342c000"
      },
      "nonce": 23,
      "data": "0x",
      "r": "0xca2c203363c8d85364054a227a554a94cbb8c649f00d7b1166ec9afea62d6678",
      "s": "0x40e3f07ea48576cf3fa6c005514893cf305f13b687bfd2a2bf1f0c5f796bf2ad",
      "v": 28,
      "creates": null,
      "raw": "0xf86d17850d76ec9ebb8252089432be343b94f860124dc4fee278fdcbd38c102d888905b1269f2b2342c000801ca0ca2c203363c8d85364054a227a554a94cbb8c649f00d7b1166ec9afea62d6678a040e3f07ea48576cf3fa6c005514893cf305f13b687bfd2a2bf1f0c5f796bf2ad",
      "networkId": 0,
      "chainId": 0
    },
    {
      "hash": "0xdb71329e02632256e42d4787234d844d4a65c24900767a8f2265789bdb3a1611",
      "blockHash": "0x18968696ee6ae87627a536418cf9dd840f15f51fbf886ed0c77233200a27a6de",
      "blockNumber": 87203,
      "transactionIndex": 1,
      "confirmations": null,
      "from": "0x7fa165177F28D171bA7C17f765c1904344Ec64CB",
      "gasPrice": {
        "_hex": "0xd76ec9ebb"
      },
      "gasLimit": {
        "_hex": "0x5208"
      },
      "to": "0x32Be343B94f860124dC4fEe278FDCBD38C102D88",
      "value": {
        "_hex": "0x1848fab21ca2ed000"
      },
      "nonce": 16,
      "data": "0x",
      "r": "0x49357ab589ef1b478f72449a9bf5b13a75279afeffe45fe395749266d12101d4",
      "s": "0x39b82bef0b2f7e00b5aa7952b48267dab7dad442f3cad08eabfaf7abae6c12b1",
      "v": 27,
      "creates": null,
      "raw": "0xf86d10850d76ec9ebb8252089432be343b94f860124dc4fee278fdcbd38c102d888901848fab21ca2ed000801ba049357ab589ef1b478f72449a9bf5b13a75279afeffe45fe395749266d12101d4a039b82bef0b2f7e00b5aa7952b48267dab7dad442f3cad08eabfaf7abae6c12b1",
      "networkId": 0,
      "chainId": 0
    }
  ]
}