{
  "hash": "0x28d23afbe203914af5ed36f1e1a2cea8a4c0ddc74b942821349bed4d0f827537",
  "parentHash": "0x9d7bfd5d6fcd73cad6ee71810f249f0222898b0f3c6e9e7ecc3446c607e895fd",
  "number": 65094,
  "timestamp": 1439231174,
  "nonce": "0x8f478cc1c829b555",
  "difficulty": 1930377766542,
  "gasLimit": {
    "_hex": "0x2fefd8"
  },
  "gasUsed": {
    "_hex": "0x1cee0"
  },
  "miner": "0x79d5794171E11dd5C2f0e26E1C187319db2FE6f7",
  "extraData": "0x",
  "transactions": [
    {
      "hash": "0x1a7ce8c87847285b2e92cfc04f91b022b969f0715a80ada9a8189c4d0582263b",
      "blockHash": "0x28d23afbe203914af5ed36f1e1a2cea8a4c0ddc74b942821349bed4d0f827537",
      "blockNumber": 65094,
      "transactionIndex": 0,
      "confirmations": null,
      "from": "0x071149784Ee80f7e99c409DfD15ba7528606b302",
      "gasPrice": {
        "_hex": "0xd0537a4ba"
      },
      "gasLimit": {
        "_hex": "0x15f90"
      },
      "to": "0x120A270bbC009644e35F0bB6ab13f95b8199c4ad",
      "value": {
        "_hex": "0x30c9dec8a60bcf0000"
      },
      "nonce": 0,
      "data": "0x",
      "r": "0x560d0c21b0889a113a088f6283bd928f000a7c3fd53e21de9e2dba2e2322c3b7",
      "s": "0x0772351fef060b654cf98c63602cfe6b3ef3c5ddd2e06dba2510b3204607c345",
      "v": 28,
      "creates": null,
      "raw": "0xf86e80850d0537a4ba83015f9094120a270bbc009644e35f0bb6ab13f95b8199c4ad8930c9dec8a60bcf0000801ca0560d0c21b0889a113a088f6283bd928f000a7c3fd53e21de9e2dba2e2322c3b7a00772351fef060b654cf98c63602cfe6b3ef3c5ddd2e06dba2510b3204607c345",
      "networkId": 0,
      "chainId": 0
    },
    {
      "hash": "0x406baedbc03eeb8a63a5abdfe36a6ffcd37181d9eb0089548ae89411d9c0db07",
      "blockHash": "0x28d23afbe203914af5ed36f1e1a2cea8a4c0ddc74b942821349bed4d0f827537",
      "blockNumber": 65094,
      "transactionIndex": 1,
      "confirmations": null,
      "from": "0x82a45cEc0FfE96AD5c33E63570ACC86E1fd1f81f",
      "gasPrice": {
        "_hex": "0xba43b7400"
      },
      "gasLimit": {
        "_hex": "0x15f90"
      },
      "to": "0x793AE8C1b1a160BFc07BFB0d04F85eab1A71F4f2",
      "value": {
        "_hex": "0x0"
      },
      "nonce": 0,
      "data": "0x3ba15036",
      "r": "0x6c1d3389a542fde31d93bbe1f387541525b6f354f3ae19b8158ce817ae1542ce",
      "s": "0x7815b02110a0294569ff62a5ba148734e66c5b56482f7bbebaedf5b276151a4b",
      "v": 28,
      "creates": null,
      "raw": "0xf86980850ba43b740083015f9094793ae8c1b1a160bfc07bfb0d04f85eab1a71f4f280843ba150361ca06c1d3389a542fde31d93bbe1f387541525b6f354f3ae19b8158ce817ae1542cea07815b02110a0294569ff62a5ba148734e66c5b56482f7bbebaedf5b276151a4b",
      "networkId": 0,
      "chainId": 0
    },
    {
      "hash": "0xf19ca9c5fbe9cdde809e7be45dc93004ffe80afe1c8d4ab8fb888ef1f9c22a41",
      "blockHash": "0x28d23afbe203914af5ed36f1e1a2cea8a4c0ddc74b942821349bed4d0f827537",
      "blockNumber": 65094,
      "transactionIndex": 2,
      "confirmations": null,
      "from": "0x0379Cbbe1104170F2e845b2f6b0A853E259399f6",
      "gasPrice": {
        "_hex": "0xba43b7400"
      },
      "gasLimit": {
        "_hex": "0x15f90"
      },
      "to": "0x793AE8C1b1a160BFc07BFB0d04F85eab1A71F4f2",
      "value": {
        "_hex": "0x0"
      },
      "nonce": 0,
      "data": "0x3ba15036",
      "r": "0xe94049fa03a999c00c5dbd2bceabdf4d9ec85f27e082bb87304f6f40ce6a13f3",
      "s": "0x16e99928118c4ed9337f243ab4d057fc6b0965524816fcab326525fb3a7a9546",
      "v": 28,
      "creates": null,
      "raw": "0xf86980850ba43b740083015f9094793ae8c1b1a160bfc07bfb0d04f85eab1a71f4f280843ba150361ca0e94049fa03a999c00c5dbd2bceabdf4d9ec85f27e082bb87304f6f40ce6a13f3a016e99928118c4ed9337f243ab4d057fc6b0965524816fcab326525fb3a7a9546",
      "networkId": 0,
      "chainId": 0
    }
  ]
}