{
  "hash": "0xeebd3a76e11a157472cc735903dc49c06be29d60dfd0d91300a61c2f65ee2075",
  "parentHash": "0x9c7b343c06e19c67f2c35a9314c2372095bc16b5c5857a72824e6950869304a9",
  "number": 79500,
  "timestamp": 1439470742,
  "nonce": "0x9c51b1e5b8d2a9ec",
  "difficulty": 2333582530811,
  "gasLimit": {
    "_hex": "0x2fefd8"
  },
  "gasUsed": {
    "_hex": "0x5208"
  },
  "miner": "0xe6A7a1d47ff21B6321162AEA7C6CB457D5476Bca",
  "extraData": "0x476574682f76312e302e312d38326566323666362f6c696e75782f676f312e34",
  "transactions": [
    {
      "hash": "0x482a0326fa274fdc630e246801a44e0538fcc73af724b5f3d3ac67561b43fb1b",
      "blockHash": "0xeebd3a76e11a157472cc735903dc49c06be29d60dfd0d91300a61c2f65ee2075",
      "blockNumber": 79500,
      "transactionIndex": 0,
      "confirmations": null,
      "from": "0x3730a07b6d2d7413d0d76B91935F60bB0b1d8E2F",
      "gasPrice": {
        "_hex": "0xba43b7400"
      },
      "gasLimit": {
        "_hex": "0x5267"
      },
      "to": "0x3730a07b6d2d7413d0d76B91935F60bB0b1d8E2F",
      "value": {
        "_hex": "0x311cdad16000"
      },
      "nonce": 0,
      "data": "0x",
      "r": "0xc4e0e92dc55d4b97d34be98a94b832473516449014ced0138a13abcbda8fe96f",
      "s": "0x99da9cdbcf1ae564631722481957c517d41acdc7fc285ef321401f032cb37a8a",
      "v": 28,
      "creates": null,
      "raw": "0xf86a80850ba43b7400825267943730a07b6d2d7413d0d76b91935f60bb0b1d8e2f86311cdad16000801ca0c4e0e92dc55d4b97d34be98a94b832473516449014ced0138a13abcbda8fe96fa099da9cdbcf1ae564631722481957c517d41acdc7fc285ef321401f032cb37a8a",
      "networkId": 0,
      "chainId": 0
    }
  ]
}