{
  "hash": "0x69533885a845dcb0313b4806b9e4be54e1c360e9aa0f4114b8d113d1f9d6b6df",
  "parentHash": "0x2030b374495138ccc83349d1b890a0fa5fce286e21ca164cf2295facbdbba2a1",
  "number": 47178,
  "timestamp": 1438935674,
  "nonce": "0xd56cfff4f1912afe",
  "difficulty": 1455969150458,
  "gasLimit": {
    "_hex": "0x9fa9"
  },
  "gasUsed": {
    "_hex": "0x5208"
  },
  "miner": "0x6C7D49278385fb300181619cAa62a5b665FBA35c",
  "extraData": "0x476574682f76312e302e312d38326566323666362f6c696e75782f676f312e34",
  "transactions": [
    {
      "hash": "0xca73a42f2134ff9449f4662a6bf6a28f32804c6ab91c1e25d10954cdcede1a22",
      "blockHash": "0x69533885a845dcb0313b4806b9e4be54e1c360e9aa0f4114b8d113d1f9d6b6df",
      "blockNumber": 47178,
      "transactionIndex": 0,
      "confirmations": null,
      "from": "0xe6A7a1d47ff21B6321162AEA7C6CB457D5476Bca",
      "gasPrice": {
        "_hex": "0xd37e17266"
      },
      "gasLimit": {
        "_hex": "0x5208"
      },
      "to": "0x95893F64255e656e6aD6aC405ebcEb1117884060",
      "value": {
        "_hex": "0x4d27bb24ba93c5b0"
      },
      "nonce": 65,
      "data": "0x",
      "r": "0x5ecc810ed70183fc30b85ea0020eef36d51d996cf1a98c91bcccb6a991a22a61",
      "s": "0x40a8ed951211593809ad9fbe4ad4cb6e01ed7ef1721cd318c77b37cdfd49bf16",
      "v": 28,
      "creates": null,
      "raw": "0xf86c41850d37e172668252089495893f64255e656e6ad6ac405ebceb1117884060884d27bb24ba93c5b0801ca05ecc810ed70183fc30b85ea0020eef36d51d996cf1a98c91bcccb6a991a22a61a040a8ed951211593809ad9fbe4ad4cb6e01ed7ef1721cd318c77b37cdfd49bf16",
      "networkId": 0,
      "chainId": 0
    }
  ]
}