{
  "hash": "0xe329d5e502799e2e1f64574c8bd24d4ebc595c25ab35a4151816735401b4eca5",
  "parentHash": "0x8a5a1e8380a8eff3b16c4dc6b47a3bc5141b4e1d2ceab417746c644e057ce4cf",
  "number": 73243,
  "timestamp": 1439365738,
  "nonce": "0x360530cf4f0fa910",
  "difficulty": 2205648644489,
  "gasLimit": {
    "_hex": "0x2fefd8"
  },
  "gasUsed": {
    "_hex": "0x5208"
  },
  "miner": "0x39A1BB80a741bF5EC39FB9BE59408Fa0F418fFBf",
  "extraData": "0x476574682f76312e302e312f77696e646f77732f676f312e342e32",
  "transactions": [
    {
      "hash": "0xbd6bedd9da2a9ef4734722b6603c54a619221034bcc982af952019ddc5339175",
      "blockHash": "0xe329d5e502799e2e1f64574c8bd24d4ebc595c25ab35a4151816735401b4eca5",
      "blockNumber": 73243,
      "transactionIndex": 0,
      "confirmations": null,
      "from": "0x326Be8F71bFb0379f989aAB1CC1fE37f0a771f60",
      "gasPrice": {
        "_hex": "0x10e72b502fe"
      },
      "gasLimit": {
        "_hex": "0x15f90"
      },
      "to": "0x87C5B5874A18B4306DF8a752a6C8cc3E82daFc19",
      "value": {
        "_hex": "0x56bc75e2d63100000"
      },
      "nonce": 32,
      "data": "0x",
      "r": "0xb7975e32e22c4b5a07f7b50f81ebae4a660217009084ae305be1f7495b2ee56e",
      "s": "0x26c7de71ebbee2452a9d5d1f40f32dab8a39f7b42f42aeb3ad7a067f9e857d24",
      "v": 27,
      "creates": null,
      "raw": "0xf86f2086010e72b502fe83015f909487c5b5874a18b4306df8a752a6c8cc3e82dafc1989056bc75e2d63100000801ba0b7975e32e22c4b5a07f7b50f81ebae4a660217009084ae305be1f7495b2ee56ea026c7de71ebbee2452a9d5d1f40f32dab8a39f7b42f42aeb3ad7a067f9e857d24",
      "networkId": 0,
      "chainId": 0
    }
  ]
}