{
  "hash": "0xc8a9e0a6b8f206bf8bec9d2aa6ca592119c1993ea642e9ec287140103db81a3f",
  "parentHash": "0x1a73a6f9f7cd8641ddcc502108b898c2dce069977aa325c3ad57090031335487",
  "number": 60436,
  "timestamp": 1439155652,
  "nonce": "0x2dac4822a6c68e50",
  "difficulty": 1736420262721,
  "gasLimit": {
    "_hex": "0x2fefd8"
  },
  "gasUsed": {
    "_hex": "0x5208"
  },
  "miner": "0xf927a40C8B7F6E07c5af7FA2155B4864a4112B13",
  "extraData": "0x476574682f76312e302e312f6c696e75782f676f312e342e32",
  "transactions": [
    {
      "hash": "0x57aecffa902f9cba143342e65959074ae1f1eb2cf19403ab494f77287c39b148",
      "blockHash": "0xc8a9e0a6b8f206bf8bec9d2aa6ca592119c1993ea642e9ec287140103db81a3f",
      "blockNumber": 60436,
      "transactionIndex": 0,
      "confirmations": null,
      "from": "0xBeb3B1d443791e4B2207a9866800E02DAcF19c02",
      "gasPrice": {
        "_hex": "0xde7d8eccb"
      },
      "gasLimit": {
        "_hex": "0x15f90"
      },
      "to": "0x5804baCD8DEC367de4137ffaD580997311841369",
      "value": {
        "_hex": "0x8987647e9c1f0000"
      },
      "nonce": 7,
      "data": "0x",
      "r": "0x5e301f9dcbf7892f09bde54ab782784510a802ec2d47205b6354a4f51932d9eb",
      "s": "0x12c40dd63c116144dc8875787ffe746cea91d23b7604a1b7c79663e0b9c93469",
      "v": 27,
      "creates": null,
      "raw": "0xf86d07850de7d8eccb83015f90945804bacd8dec367de4137ffad580997311841369888987647e9c1f0000801ba05e301f9dcbf7892f09bde54ab782784510a802ec2d47205b6354a4f51932d9eba012c40dd63c116144dc8875787ffe746cea91d23b7604a1b7c79663e0b9c93469",
      "networkId": 0,
      "chainId": 0
    }
  ]
}