{
  "hash": "0xb98f3a575fbc068a2014a0dc0e935fe56db6c6abd61cb5d353d0da47a6975017",
  "parentHash": "0x567396abf5480ad499325411aceafe14152fdf2383190e087930c591e89bc81f",
  "number": 86899,
  "timestamp": 1439584340,
  "nonce": "0x87d5456550f963d4",
  "difficulty": 2980610401150,
  "gasLimit": {
    "_hex": "0x2fefd8"
  },
  "gasUsed": {
    "_hex": "0x5208"
  },
  "miner": "0x580992B51e3925e23280EfB93d3047C82f17E038",
  "extraData": "0x476574682f76312e302e312f6c696e75782f676f312e342e32",
  "transactions": [
    {
      "hash": "0xfb9ca23ad018b35e1682f83e14a7a18b0acd13773dd2ecf63bf2aa140b45dab3",
      "blockHash": "0xb98f3a575fbc068a2014a0dc0e935fe56db6c6abd61cb5d353d0da47a6975017",
      "blockNumber": 86899,
      "transactionIndex": 0,
      "confirmations": null,
      "from": "0x2910543Af39abA0Cd09dBb2D50200b3E800A63D2",
      "gasPrice": {
        "_hex": "0xdd260c6f9"
      },
      "gasLimit": {
        "_hex": "0x5208"
      },
      "to": "0xEdD03B3afA58aaE8C5732fF58e26099bc5C10659",
      "value": {
        "_hex": "0x8cf22dcd22d7bf8000"
      },
      "nonce": 685,
      "data": "0x",
      "r": "0x4e37fd46bcc9a335c34f5b2fb11ae36c3338a496d71e4a49b40ba0d0f4233e62",
      "s": "0x1cf9638d6c3574ab0121bb0ad90e42a2751304577cba7d2ad20eddc7a43e42f9",
      "v": 28,
      "creates": null,
      "raw": "0xf86f8202ad850dd260c6f982520894edd03b3afa58aae8c5732ff58e26099bc5c10659898cf22dcd22d7bf8000801ca04e37fd46bcc9a335c34f5b2fb11ae36c3338a496d71e4a49b40ba0d0f4233e62a01cf9638d6c3574ab0121bb0ad90e42a2751304577cba7d2ad20eddc7a43e42f9",
      "networkId": 0,
      "chainId": 0
    }
  ]
}