{
  "hash": "0xf97113374172e3802c77b176425adea5a6fd162c89aca80450694e4355a086fe",
  "parentHash": "0xe5c0deb3b5ad112011c349d454360056167ac92728b06958aa0af080a02dc55a",
  "number": 64614,
  "timestamp": 1439223618,
  "nonce": "0x90f01517843714f6",
  "difficulty": 1889455252800,
  "gasLimit": {
    "_hex": "0x2fefd8"
  },
  "gasUsed": {
    "_hex": "0x23b44"
  },
  "miner": "0x88D74a59454F6cF3B51ef6b9136AFb6b9D405A88",
  "extraData": "0x476574682f76312e302e312d37666266393930632f6c696e75782f676f312e34",
  "transactions": [
    {
      "hash": "0x7bba819ffbb7d761eb65a8b27b6dfaf45c73ca295daacb03bfd086f593716057",
      "blockHash": "0xf97113374172e3802c77b176425adea5a6fd162c89aca80450694e4355a086fe",
      "blockNumber": 64614,
      "transactionIndex": 0,
      "confirmations": null,
      "from": "0x9c98790741f1e5a20054E13834a623f85E78f774",
      "gasPrice": {
        "_hex": "0xba43b7400"
      },
      "gasLimit": {
        "_hex": "0x15f90"
      },
      "to": "0x793AE8C1b1a160BFc07BFB0d04F85eab1A71F4f2",
      "value": {
        "_hex": "0x0"
      },
      "nonce": 0,
      "data": "0x3ba15036",
      "r": "0xff533bab3ac35bb35cbd49d4dc9771f779bc3ff303268bd816e81a961cbc54bb",
      "s": "0x50e43291fb8056e19428afc89fff46c7daddd2943b8355b53aa175f29bcd5c8f",
      "v": 27,
      "creates": null,
      "raw": "0xf86980850ba43b740083015f9094793ae8c1b1a160bfc07bfb0d04f85eab1a71f4f280843ba150361ba0ff533bab3ac35bb35cbd49d4dc9771f779bc3ff303268bd816e81a961cbc54bba050e43291fb8056e19428afc89fff46c7daddd2943b8355b53aa175f29bcd5c8f",
      "networkId": 0,
      "chainId": 0
    },
    {
      "hash": "0x589de659f5bf72e6fbda292b5b127664a4b298a7388aaa6b384f77935b61da56",
      "blockHash": "0xf97113374172e3802c77b176425adea5a6fd162c89aca80450694e4355a086fe",
      "blockNumber": 64614,
      "transactionIndex": 1,
      "confirmations": null,
      "from": "0x8a6C909B4D0C365268e9585Fc9E8F1C3bBA44915",
      "gasPrice": {
        "_hex": "0xba43b7400"
      },
      "gasLimit": {
        "_hex": "0x15f90"
      },
      "to": "0x793AE8C1b1a160BFc07BFB0d04F85eab1A71F4f2",
      "value": {
        "_hex": "0x0"
      },
      "nonce": 0,
      "data": "0x3ba15036",
      "r": "0x2b4c646ca25833d36a24fbac2aae25f8059814970ff08f1f99c642c2b4b0516a",
      "s": "0x2baeebb19f701ee054f806e9e6de4d4181b566dd58cf52798a7e0241d0013ba8",
      "v": 27,
      "creates": null,
      "raw": "0xf86980850ba43b740083015f9094793ae8c1b1a160bfc07bfb0d04f85eab1a71f4f280843ba150361ba02b4c646ca25833d36a24fbac2aae25f8059814970ff08f1f99c642c2b4b0516aa02baeebb19f701ee054f806e9e6de4d4181b566dd58cf52798a7e0241d0013ba8",
      "networkId": 0,
      "chainId": 0
    },
    {
      "hash": "0x3a10f424557ba8409f33e5ddb2447249d64147d6a337bcd3c72b5227a4212c85",
      "blockHash": "0xf97113374172e3802c77b176425adea5a6fd162c89aca80450694e4355a086fe",
      "blockNumber": 64614,
      "transactionIndex": 2,
      "confirmations": null,
      "from": "0x7705158b409f54a0E4373a31bbDc2a7ABD8161AE",
      "gasPrice": {
        "_hex": "0xba43b7400"
      },
      "gasLimit": {
        "_hex": "0x15f90"
      },
      "to": "0x793AE8C1b1a160BFc07BFB0d04F85eab1A71F4f2",
      "value": {
        "_hex": "0x0"
      },
      "nonce": 0,
      "data": "0x3ba15036",
      "r": "0xb1bc40841ae79fcfd1da3daadef9f7fefb9400e990fa644462bda673f155680a",
      "s": "0x40ace537b1457e19d6c0ee9e59f45b30625d328d6160ec03d9330b7d8641910b",
      "v": 27,
      "creates": null,
      "raw": "0xf86980850ba43b740083015f9094793ae8c1b1a160bfc07bfb0d04f85eab1a71f4f280843ba150361ba0b1bc40841ae79fcfd1da3daadef9f7fefb9400e990fa644462bda673f155680aa040ace537b1457e19d6c0ee9e59f45b30625d328d6160ec03d9330b7d8641910b",
      "networkId": 0,
      "chainId": 0
    }
  ]
}