{
  "hash": "0x3803c96b4bf70daf9cc01c298930bad657f2a700b328cd7fef270003eccce90a",
  "parentHash": "0x6b1ab57d390acbff3256abde7fde67fe90db70aaf5ea07278d43431c72dbaa2b",
  "number": 47359,
  "timestamp": 1438938838,
  "nonce": "0xa97f0f53594e9fd9",
  "difficulty": 1456648816260,
  "gasLimit": {
    "_hex": "0xb49c"
  },
  "gasUsed": {
    "_hex": "0xa410"
  },
  "miner": "0x9D240fc84828526e0C5a46fdF84B94EF888F8d61",
  "extraData": "0x476574682f76312e302e312d39383130306634372f6c696e75782f676f312e34",
  "transactions": [
    {
      "hash": "0xc61440554e013fe345dc4703de605453745f8c45621345e4694df9be02540f22",
      "blockHash": "0x3803c96b4bf70daf9cc01c298930bad657f2a700b328cd7fef270003eccce90a",
      "blockNumber": 47359,
      "transactionIndex": 0,
      "confirmations": null,
      "from": "0x9dF32A501C0b781c0281022f42A1293FfD7B892a",
      "gasPrice": {
        "_hex": "0x1264c45600"
      },
      "gasLimit": {
        "_hex": "0x5208"
      },
      "to": "0x256A6D2Ae68632a3c99b66d792C13330842476d7",
      "value": {
        "_hex": "0xde0b6b3a7640000"
      },
      "nonce": 0,
      "data": "0x",
      "r": "0xcc95e46ffee828c7c172c56496f4bd31249c6b11f1ae386ec2d1c9a7d09d3da9",
      "s": "0x7727b141d138cec22c7469047a26e0ee5fae20af86a238e3baf19daf43cf208c",
      "v": 28,
      "creates": null,
      "raw": "0xf86c80851264c4560082520894256a6d2ae68632a3c99b66d792c13330842476d7880de0b6b3a7640000801ca0cc95e46ffee828c7c172c56496f4bd31249c6b11f1ae386ec2d1c9a7d09d3da9a07727b141d138cec22c7469047a26e0ee5fae20af86a238e3baf19daf43cf208c",
      "networkId": 0,
      "chainId": 0
    },
    {
      "hash": "0xf342d79d224ff2f2f1fda91662dd742ad40033af662819c27d8101a4372b3b98",
      "blockHash": "0x3803c96b4bf70daf9cc01c298930bad657f2a700b328cd7fef270003eccce90a",
      "blockNumber": 47359,
      "transactionIndex": 1,
      "confirmations": null,
      "from": "0x7e1f96dE76715323e90CF5138ea516AD8528d407",
      "gasPrice": {
        "_hex": "0x117f25a22d"
      },
      "gasLimit": {
        "_hex": "0x5208"
      },
      "to": "0x32Be343B94f860124dC4fEe278FDCBD38C102D88",
      "value": {
        "_hex": "0xae569d7c863988000"
      },
      "nonce": 1,
      "data": "0x",
      "r": "0x3723a59200134893f35ca4a7b4f20f4170cde41269f77597ca5fcbfcdf371dfa",
      "s": "0x1ae0c439865622f7b279d627e4773e66b06a3b90df5cd4e1422eea9769879069",
      "v": 27,
      "creates": null,
      "raw": "0xf86d0185117f25a22d8252089432be343b94f860124dc4fee278fdcbd38c102d88890ae569d7c863988000801ba03723a59200134893f35ca4a7b4f20f4170cde41269f77597ca5fcbfcdf371dfaa01ae0c439865622f7b279d627e4773e66b06a3b90df5cd4e1422eea9769879069",
      "networkId": 0,
      "chainId": 0
    }
  ]
}