{
  "hash": "0x7d7cbec71c25c74bab974fc31f12b58781fe94cfc364c58f5f2c754adb83d4a7",
  "parentHash": "0x8288cddddd7dc50248c18a7267b0ccf3b8f060cd9a41623c27c2efe8c3fd8ed2",
  "number": 116701,
  "timestamp": 1440094818,
  "nonce": "0xaf84ffc9b45fe001",
  "difficulty": 4398016274504,
  "gasLimit": {
    "_hex": "0x2fefd8"
  },
  "gasUsed": {
    "_hex": "0x520c"
  },
  "miner": "0x790b8a3cE86E707ED0eD32bF89B3269692a23CC1",
  "extraData": "0xd783010002844765746887676f312e342e32856c696e7578",
  "transactions": [
    {
      "hash": "0xdde9c15d01629ad6060bc628be9193e60d603cb43df1fb9e15448bfdfd6abc5f",
      "blockHash": "0x7d7cbec71c25c74bab974fc31f12b58781fe94cfc364c58f5f2c754adb83d4a7",
      "blockNumber": 116701,
      "transactionIndex": 0,
      "confirmations": null,
      "from": "0xDF01e9ACe02Dc63458b0afaA54056e5291828a33",
      "gasPrice": {
        "_hex": "0xdf88b5471"
      },
      "gasLimit": {
        "_hex": "0x7530"
      },
      "to": "0xA42004dA3B4f05c3abCb5DD924df33b2443F6033",
      "value": {
        "_hex": "0x91a94863ca8000"
      },
      "nonce": 1,
      "data": "0x00",
      "r": "0xd8c467e7a235d793a7a7a21fa886af6134f8ea2027f8e28e1e3691f63269b0d3",
      "s": "0x06a4cdb05972f03fe7681fe630c9c6f246abc1702aa8cc9053cf5c61b48dcf07",
      "v": 28,
      "creates": null,
      "raw": "0xf86b01850df88b547182753094a42004da3b4f05c3abcb5dd924df33b2443f60338791a94863ca8000001ca0d8c467e7a235d793a7a7a21fa886af6134f8ea2027f8e28e1e3691f63269b0d3a006a4cdb05972f03fe7681fe630c9c6f246abc1702aa8cc9053cf5c61b48dcf07",
      "networkId": 0,
      "chainId": 0
    }
  ]
}