{
  "hash": "0x9183da3bdd1dceeb4d8595db329f3535912eabcb30541db897e228ba772f53bc",
  "parentHash": "0x24c2c2752e9df7ee5d631a2120f563805d061c1ced2a10415c9b0f824af62aec",
  "number": 64077,
  "timestamp": 1439214906,
  "nonce": "0xc7fe8286ad79ef7e",
  "difficulty": 1857558018403,
  "gasLimit": {
    "_hex": "0x2fefd8"
  },
  "gasUsed": {
    "_hex": "0x5208"
  },
  "miner": "0x29D19206747E4Db867186f5899D9F7188DF153F6",
  "extraData": "0x",
  "transactions": [
    {
      "hash": "0xda2eb1c9feee6742a268ccfc9e1b110c9883b0a8871e027450b2bbf4a0602036",
      "blockHash": "0x9183da3bdd1dceeb4d8595db329f3535912eabcb30541db897e228ba772f53bc",
      "blockNumber": 64077,
      "transactionIndex": 0,
      "confirmations": null,
      "from": "0x9Fa9952255B2b06639A04D63804d4BdFFf6E2d7e",
      "gasPrice": {
        "_hex": "0x117b180ea02"
      },
      "gasLimit": {
        "_hex": "0x15f90"
      },
      "to": "0xE12517204a15E890f12755207271102F4800A0c4",
      "value": {
        "_hex": "0x15af1d78b58c40000"
      },
      "nonce": 1,
      "data": "0x",
      "r": "0x44a17d9657a49646cd0131b8c503fc055e882760514ffe024360c02a7715ce41",
      "s": "0x1d1b5dcbf8a43004a3f4f333ef399265161e99db170b0c48c4e84f850c894e94",
      "v": 27,
      "creates": null,
      "raw": "0xf86f01860117b180ea0283015f9094e12517204a15e890f12755207271102f4800a0c489015af1d78b58c40000801ba044a17d9657a49646cd0131b8c503fc055e882760514ffe024360c02a7715ce41a01d1b5dcbf8a43004a3f4f333ef399265161e99db170b0c48c4e84f850c894e94",
      "networkId": 0,
      "chainId": 0
    }
  ]
}