{
  "hash": "0x40e9553250a62e38f8c1f14b342e821b1aba1b3ac7bf19e4e80a7b6284294141",
  "parentHash": "0x89fb7c7d77d8821d5359bd2293c210a19c754c9d8639ed802bd408cdaeda1711",
  "number": 84628,
  "timestamp": 1439552308,
  "nonce": "0xa9766024b868f1d7",
  "difficulty": 2591565430969,
  "gasLimit": {
    "_hex": "0x2fefd8"
  },
  "gasUsed": {
    "_hex": "0xa410"
  },
  "miner": "0xf8E0CA3Ed80bd541b94BEdCf259e8CF2141A9523",
  "extraData": "0x476574682f76312e302e312f77696e646f77732f676f312e342e32",
  "transactions": [
    {
      "hash": "0xa8a3061ba58efbd070bd80a2f4f88a08a0bb8b97ac44bb2308f0a0ca03d23c86",
      "blockHash": "0x40e9553250a62e38f8c1f14b342e821b1aba1b3ac7bf19e4e80a7b6284294141",
      "blockNumber": 84628,
      "transactionIndex": 0,
      "confirmations": null,
      "from": "0x120A270bbC009644e35F0bB6ab13f95b8199c4ad",
      "gasPrice": {
        "_hex": "0xd771b1d86"
      },
      "gasLimit": {
        "_hex": "0x3d090"
      },
      "to": "0xE482d255EDE56B04c3E8dF151F56e9ca62aAA8C2",
      "value": {
        "_hex": "0x8ac7230489e80000"
      },
      "nonce": 430,
      "data": "0x",
      "r": "0xcf3153a92ea527be1a1c7064cd44f37eb36811d216ace582cfc1c68fe7df7540",
      "s": "0x42a7cd85ad2a0a9d53b2a4849e36d86830ae9eda1f343a1614a102abe4af1e66",
      "v": 27,
      "creates": null,
      "raw": "0xf86f8201ae850d771b1d868303d09094e482d255ede56b04c3e8df151f56e9ca62aaa8c2888ac7230489e80000801ba0cf3153a92ea527be1a1c7064cd44f37eb36811d216ace582cfc1c68fe7df7540a042a7cd85ad2a0a9d53b2a4849e36d86830ae9eda1f343a1614a102abe4af1e66",
      "networkId": 0,
      "chainId": 0
    },
    {
      "hash": "0x64203df121daeb28834e795e13557bb37b4b1b6704d053d81c50d8f8287b96e8",
      "blockHash": "0x40e9553250a62e38f8c1f14b342e821b1aba1b3ac7bf19e4e80a7b6284294141",
      "blockNumber": 84628,
      "transactionIndex": 1,
      "confirmations": null,
      "from": "0x32Be343B94f860124dC4fEe278FDCBD38C102D88",
      "gasPrice": {
        "_hex": "0xd3bf5d119"
      },
      "gasLimit": {
        "_hex": "0x5208"
      },
      "to": "0xA0eadCdC3d2cc51DaA7Ef7e65370D2d46Ca9e6D9",
      "value": {
        "_hex": "0x456159131df7f0000"
      },
      "nonce": 687,
      "data": "0x",
      "r": "0xb2154173501fb89d82bec39905fa088986dec9f17126ad0c6e1aeb716bbe32e4",
      "s": "0x4dbfe44a344e88e64f36ce2ee3b184e3d53b5f009879fe2980a226c08e8bdaba",
      "v": 28,
      "creates": null,
      "raw": "0xf86f8202af850d3bf5d11982520894a0eadcdc3d2cc51daa7ef7e65370d2d46ca9e6d9890456159131df7f0000801ca0b2154173501fb89d82bec39905fa088986dec9f17126ad0c6e1aeb716bbe32e4a04dbfe44a344e88e64f36ce2ee3b184e3d53b5f009879fe2980a226c08e8bdaba",
      "networkId": 0,
      "chainId": 0
    }
  ]
}