{
  "hash": "0x991c29e722b3d99b75c4a74d1361202d7bf88b49ac2dae6fec50b38a8482011a",
  "parentHash": "0xaef333aeb3655383ec5d0b9ee72925af2f5c02b759d05500755be001bfb0c088",
  "number": 104456,
  "timestamp": 1439869985,
  "nonce": "0xa4cf0586821899f8",
  "difficulty": 4363768269113,
  "gasLimit": {
    "_hex": "0x2fefd8"
  },
  "gasUsed": {
    "_hex": "0xa410"
  },
  "miner": "0x790b8a3cE86E707ED0eD32bF89B3269692a23CC1",
  "extraData": "0xd783010001844765746887676f312e342e32856c696e7578",
  "transactions": [
    {
      "hash": "0x679b038e7b31ba62f49e3d94cf1c164d7858399149475c5293add94add16699f",
      "blockHash": "0x991c29e722b3d99b75c4a74d1361202d7bf88b49ac2dae6fec50b38a8482011a",
      "blockNumber": 104456,
      "transactionIndex": 0,
      "confirmations": null,
      "from": "0x5a0f0935E8E5591B2f9f2d55f29C626B50292088",
      "gasPrice": {
        "_hex": "0xcc86d6b01"
      },
      "gasLimit": {
        "_hex": "0x5208"
      },
      "to": "0x32Be343B94f860124dC4fEe278FDCBD38C102D88",
      "value": {
        "_hex": "0x8ab146f13ad5e000"
      },
      "nonce": 22,
      "data": "0x",
      "r": "0x759ed3220b676229f292871d0d2b6d84e13b92b78ab097c436c3cebe340c6d8d",
      "s": "0x5c5f6cd8acc3c5f46e08e758ae6febce0ec980fce1a249d089b6bcfa4595d05f",
      "v": 27,
      "creates": null,
      "raw": "0xf86c16850cc86d6b018252089432be343b94f860124dc4fee278fdcbd38c102d88888ab146f13ad5e000801ba0759ed3220b676229f292871d0d2b6d84e13b92b78ab097c436c3cebe340c6d8da05c5f6cd8acc3c5f46e08e758ae6febce0ec980fce1a249d089b6bcfa4595d05f",
      "networkId": 0,
      "chainId": 0
    },
    {
      "hash": "0x9bec0953adb956f096afbb358fa03fd8897b92f3d3f90640d662fd185b4d1ff6",
      "blockHash": "0x991c29e722b3d99b75c4a74d1361202d7bf88b49ac2dae6fec50b38a8482011a",
      "blockNumber": 104456,
      "transactionIndex": 1,
      "confirmations": null,
      "from": "0xa70a9a7040d542C632D8e0bE7c5513A8a5Bbc752",
      "gasPrice": {
        "_hex": "0xcc86d6b01"
      },
      "gasLimit": {
        "_hex": "0x5208"
      },
      "to": "0x32Be343B94f860124dC4fEe278FDCBD38C102D88",
      "value": {
        "_hex": "0x455f78e82dc26400"
      },
      "nonce": 234,
      "data": "0x",
      "r": "0x3798573cbe2056c07f093cddc6280756016679123d5b22fc0acd4655edd30d7f",
      "s": "0x764d82fa16a65135d86e4e0771b73476d1313b0f4c5f0393e8d98aa61f99d132",
      "v": 27,
      "creates": null,
      "raw": "0xf86d81ea850cc86d6b018252089432be343b94f860124dc4fee278fdcbd38c102d8888455f78e82dc26400801ba03798573cbe2056c07f093cddc6280756016679123d5b22fc0acd4655edd30d7fa0764d82fa16a65135d86e4e0771b73476d1313b0f4c5f0393e8d98aa61f99d132",
      "networkId": 0,
      "chainId": 0
    }
  ]
}