{
  "hash": "0xebd3883fa1fed0286b6c45d61a42ea0d2fabbc70d30de53bec4a10544d32036f",
  "parentHash": "0x31ea574bae958e2d962e1e7056c742b846afb5c1d2ecee6dcfb9a304be682785",
  "number": 106669,
  "timestamp": 1439908390,
  "nonce": "0x4f547002598f1980",
  "difficulty": 4459536397143,
  "gasLimit": {
    "_hex": "0x2fefd8"
  },
  "gasUsed": {
    "_hex": "0x5208"
  },
  "miner": "0xe6A7a1d47ff21B6321162AEA7C6CB457D5476Bca",
  "extraData": "0x476574682f76312e302e312d38326566323666362f6c696e75782f676f312e34",
  "transactions": [
    {
      "hash": "0x7335411a55f66ee13fe30eb95f465d6511e1b630b9236302f6ba55cd00c9bd47",
      "blockHash": "0xebd3883fa1fed0286b6c45d61a42ea0d2fabbc70d30de53bec4a10544d32036f",
      "blockNumber": 106669,
      "transactionIndex": 0,
      "confirmations": null,
      "from": "0xA1623430350C5df1b52B0b57483A5bb45d1796Da",
      "gasPrice": {
        "_hex": "0xdb7c85e09"
      },
      "gasLimit": {
        "_hex": "0x7530"
      },
      "to": "0xf2881e3e520bF84469Fa00a56449D357FB1af54A",
      "value": {
        "_hex": "0xd18df9ff2c660000"
      },
      "nonce": 11,
      "data": "0x",
      "r": "0x200c9d9982daadfacdbf64782523b1d5a7ebcdc9d37fc00346b3a82b5be76df2",
      "s": "0x02c2439c57988ed6ead66f753f71e507356ac839b5859e378ed860e2b85a872e",
      "v": 28,
      "creates": null,
      "raw": "0xf86c0b850db7c85e0982753094f2881e3e520bf84469fa00a56449d357fb1af54a88d18df9ff2c660000801ca0200c9d9982daadfacdbf64782523b1d5a7ebcdc9d37fc00346b3a82b5be76df2a002c2439c57988ed6ead66f753f71e507356ac839b5859e378ed860e2b85a872e",
      "networkId": 0,
      "chainId": 0
    }
  ]
}