{
  "hash": "0x55ff5694fed2b1ab9e76f00da6b0ea1633703a9ad4dd62e5d85cdfbd85b65c0c",
  "parentHash": "0x649a31d83fc406c87f6f5bd32d001ea5d2aca0f19eefc5a51f5de8e4313a1b62",
  "number": 67237,
  "timestamp": 1439268454,
  "nonce": "0x84f7c9559de3b807",
  "difficulty": 1932713735831,
  "gasLimit": {
    "_hex": "0x2fefd8"
  },
  "gasUsed": {
    "_hex": "0x5208"
  },
  "miner": "0x0037ce3d4B7f8729C8607D8D0248252Be68202c0",
  "extraData": "0x476574682f76312e302e312f77696e646f77732f676f312e342e32",
  "transactions": [
    {
      "hash": "0x900fb208695ac65a6e40c07575375de09112188809d2406129dcc24df2acc896",
      "blockHash": "0x55ff5694fed2b1ab9e76f00da6b0ea1633703a9ad4dd62e5d85cdfbd85b65c0c",
      "blockNumber": 67237,
      "transactionIndex": 0,
      "confirmations": null,
      "from": "0x2910543Af39abA0Cd09dBb2D50200b3E800A63D2",
      "gasPrice": {
        "_hex": "0xcc50ef781"
      },
      "gasLimit": {
        "_hex": "0x5208"
      },
      "to": "0xD913f0771949753c4726ACAA2bD3619C5C20FF77",
      "value": {
        "_hex": "0x56bb59ab42b2f8000"
      },
      "nonce": 211,
      "data": "0x",
      "r": "0xf063f31767d2c4127cae2636837d8d9c970f07564b76a24946cb4f496732a851",
      "s": "0x04212fca892d6019d87b30ec33fb4a6520d50db504a89e34465c01113f1e6c82",
      "v": 27,
      "creates": null,
      "raw": "0xf86e81d3850cc50ef78182520894d913f0771949753c4726acaa2bd3619c5c20ff7789056bb59ab42b2f8000801ba0f063f31767d2c4127cae2636837d8d9c970f07564b76a24946cb4f496732a851a004212fca892d6019d87b30ec33fb4a6520d50db504a89e34465c01113f1e6c82",
      "networkId": 0,
      "chainId": 0
    }
  ]
}