{
  "hash": "0xe7035c1519e9ee210323ca782429f8fba7f8ef821d2b3d47f841d26d7e0db18b",
  "parentHash": "0x8c616b54d53c03be2b490dfc5e5b8d7c045e14db98bc01229f55a1f899b81607",
  "number": 85679,
  "timestamp": 1439567087,
  "nonce": "0xcbba0e1f7508ec71",
  "difficulty": 2786790930327,
  "gasLimit": {
    "_hex": "0x2fefd8"
  },
  "gasUsed": {
    "_hex": "0xa410"
  },
  "miner": "0xf8E0CA3Ed80bd541b94BEdCf259e8CF2141A9523",
  "extraData": "0x476574682f76312e302e312f77696e646f77732f676f312e342e32",
  "transactions": [
    {
      "hash": "0xa5e5147893ad60377f4f82caa79dc728c0f07f0ec85fff307d4880362e45fe8d",
      "blockHash": "0xe7035c1519e9ee210323ca782429f8fba7f8ef821d2b3d47f841d26d7e0db18b",
      "blockNumber": 85679,
      "transactionIndex": 0,
      "confirmations": null,
      "from": "0xa5DeA32f1c92f91fF156d2ADd2524e153Ae4d8F9",
      "gasPrice": {
        "_hex": "0xdf4943b56"
      },
      "gasLimit": {
        "_hex": "0x5208"
      },
      "to": "0x32Be343B94f860124dC4fEe278FDCBD38C102D88",
      "value": {
        "_hex": "0xad786b61432f88000"
      },
      "nonce": 0,
      "data": "0x",
      "r": "0x1191ade8693ff61507e2ba20f7c7696b5ea784153de279c5f11f28c50635fcee",
      "s": "0x4a67acaf013c5b3e8e8816a50a256fd7358f4eb58d12d80b9213cbe85093f317",
      "v": 28,
      "creates": null,
      "raw": "0xf86d80850df4943b568252089432be343b94f860124dc4fee278fdcbd38c102d88890ad786b61432f88000801ca01191ade8693ff61507e2ba20f7c7696b5ea784153de279c5f11f28c50635fceea04a67acaf013c5b3e8e8816a50a256fd7358f4eb58d12d80b9213cbe85093f317",
      "networkId": 0,
      "chainId": 0
    },
    {
      "hash": "0x6dd7e3c1b991b2f3ff30d9d7f0782ec2ec6430fa9f5b52e4425161bd473003a1",
      "blockHash": "0xe7035c1519e9ee210323ca782429f8fba7f8ef821d2b3d47f841d26d7e0db18b",
      "blockNumber": 85679,
      "transactionIndex": 1,
      "confirmations": null,
      "from": "0xE4Dd37247830493DE1Df7c758DD746DCdE19419e",
      "gasPrice": {
        "_hex": "0xd2ebfb2a4"
      },
      "gasLimit": {
        "_hex": "0x7530"
      },
      "to": "0x6De181Fc4C140FA31F196e5393516c49EEeBdAd3",
      "value": {
        "_hex": "0xf43fc2c04ee00000"
      },
      "nonce": 6,
      "data": "0x",
      "r": "0x23411a3bbc8492ba934375fa3ca489136872a4a497d72a5afa957ebf0b9b5b41",
      "s": "0x3b4f40834f6df6567070659d1234006a062943b52672c6739181a58237ba63c3",
      "v": 27,
      "creates": null,
      "raw": "0xf86c06850d2ebfb2a4827530946de181fc4c140fa31f196e5393516c49eeebdad388f43fc2c04ee00000801ba023411a3bbc8492ba934375fa3ca489136872a4a497d72a5afa957ebf0b9b5b41a03b4f40834f6df6567070659d1234006a062943b52672c6739181a58237ba63c3",
      "networkId": 0,
      "chainId": 0
    }
  ]
}