{
  "hash": "0xce2df82156be7388faeb8fbc201a00ada12471f4bba363dee8e126f4f158035f",
  "parentHash": "0xf9208af3b644f2f7f1064dd1c5fc4ed07136c5aeddcf9ddda81dc8dbcbdd17a4",
  "number": 95711,
  "timestamp": 1439728421,
  "nonce": "0xd6c7d78df5f980ad",
  "difficulty": 3630316530444,
  "gasLimit": {
    "_hex": "0x2fefd8"
  },
  "gasUsed": {
    "_hex": "0x5208"
  },
  "miner": "0x9746c7e1ef2bd21FF3997fa467593a89cb852BD0",
  "extraData": "0x476574682f76312e302e312f77696e646f77732f676f312e342e32",
  "transactions": [
    {
      "hash": "0x2ca40a5460a997646e3241b0bd367c714f68ad02018a1c75df372a51594319d2",
      "blockHash": "0xce2df82156be7388faeb8fbc201a00ada12471f4bba363dee8e126f4f158035f",
      "blockNumber": 95711,
      "transactionIndex": 0,
      "confirmations": null,
      "from": "0x86d3856ad0105B9d4199936c1fd203664BA325dC",
      "gasPrice": {
        "_hex": "0xdc2ed5ed1"
      },
      "gasLimit": {
        "_hex": "0x5208"
      },
      "to": "0x32Be343B94f860124dC4fEe278FDCBD38C102D88",
      "value": {
        "_hex": "0x1177f5fb2c2bb000"
      },
      "nonce": 18,
      "data": "0x",
      "r": "0x4187a94f9477f2e9df440aeb9b79fa5433997891dca1a42b763cc91077ec39bd",
      "s": "0x28d40182bc59b6761a20bd078238a6dff97730e914ecd34c7e0b64beb258a9e7",
      "v": 28,
      "creates": null,
      "raw": "0xf86c12850dc2ed5ed18252089432be343b94f860124dc4fee278fdcbd38c102d88881177f5fb2c2bb000801ca04187a94f9477f2e9df440aeb9b79fa5433997891dca1a42b763cc91077ec39bda028d40182bc59b6761a20bd078238a6dff97730e914ecd34c7e0b64beb258a9e7",
      "networkId": 0,
      "chainId": 0
    }
  ]
}