{
  "hash": "0x5d77c0c28867057ac7217893369fd1e1cb258e7a45b2f1565a137f5fae31a44f",
  "parentHash": "0x5ffffa734c3b05f13989cd2a78d8d1667531a05ae0f453947a0263a96c7ab613",
  "number": 79087,
  "timestamp": 1439464166,
  "nonce": "0xf1ff0dcdfb5565ee",
  "difficulty": 2321196517138,
  "gasLimit": {
    "_hex": "0x2fefd8"
  },
  "gasUsed": {
    "_hex": "0x33450"
  },
  "miner": "0x88D74a59454F6cF3B51ef6b9136AFb6b9D405A88",
  "extraData": "0x476574682f76312e302e312d38326566323666362f6c696e75782f676f312e34",
  "transactions": [
    {
      "hash": "0xcc682e4dc045253d5f40a2ba17aea080161885e8ba4c8aa52b662b09f30b6e0e",
      "blockHash": "0x5d77c0c28867057ac7217893369fd1e1cb258e7a45b2f1565a137f5fae31a44f",
      "blockNumber": 79087,
      "transactionIndex": 0,
      "confirmations": null,
      "from": "0xe6A7a1d47ff21B6321162AEA7C6CB457D5476Bca",
      "gasPrice": {
        "_hex": "0xe0eff25da"
      },
      "gasLimit": {
        "_hex": "0x55f0"
      },
      "to": "0xaFF2628417768132E1d04f605Fe1e797f2ECA3F8",
      "value": {
        "_hex": "0x1bfb5968df26a918"
      },
      "nonce": 1087,
      "data": "0x",
      "r": "0x13b4898e14d691d004eaaebd9f88cab192c9736ae833020b34c059c0d608ef34",
      "s": "0x6652b3c32e72107063d678f7ebca61c86fc4112174388eb49b48ef2311ac125b",
      "v": 28,
      "creates": null,
      "raw": "0xf86e82043f850e0eff25da8255f094aff2628417768132e1d04f605fe1e797f2eca3f8881bfb5968df26a918801ca013b4898e14d691d004eaaebd9f88cab192c9736ae833020b34c059c0d608ef34a06652b3c32e72107063d678f7ebca61c86fc4112174388eb49b48ef2311ac125b",
      "networkId": 0,
      "chainId": 0
    },
    {
      "hash": "0x82fc6bad1b156c88a22a7902c840c2d8565caa071e1f556ec34a391656254c13",
      "blockHash": "0x5d77c0c28867057ac7217893369fd1e1cb258e7a45b2f1565a137f5fae31a44f",
      "blockNumber": 79087,
      "transactionIndex": 1,
      "confirmations": null,
      "from": "0xe6A7a1d47ff21B6321162AEA7C6CB457D5476Bca",
      "gasPrice": {
        "_hex": "0xe0eff25da"
      },
      "gasLimit": {
        "_hex": "0x55f0"
      },
      "to": "0x4F2B8001a7022812Fdd958AA86dD63e2b8B994C1",
      "value": {
        "_hex": "0x1cffe61da72be1e4"
      },
      "nonce": 1088,
      "data": "0x",
      "r": "0x434f0fcc608f60af443c06eaee78ed9fd4ebea0a47923a3d644ed7a2910cc673",
      "s": "0x53b14bca330f8e7f40982dd59351f9499f0fa81814f32aedfb0b247e25d96811",
      "v": 27,
      "creates": null,
      "raw": "0xf86e820440850e0eff25da8255f0944f2b8001a7022812fdd958aa86dd63e2b8b994c1881cffe61da72be1e4801ba0434f0fcc608f60af443c06eaee78ed9fd4ebea0a47923a3d644ed7a2910cc673a053b14bca330f8e7f40982dd59351f9499f0fa81814f32aedfb0b247e25d96811",
      "networkId": 0,
      "chainId": 0
    },
    {
      "hash": "0x56df69ad70bc05f6931cbefd0b18ab386ba5e6609d3bde4990abb0ab0da1422b",
      "blockHash": "0x5d77c0c28867057ac7217893369fd1e1cb258e7a45b2f1565a137f5fae31a44f",
      "blockNumber": 79087,
      "transactionIndex": 2,
      "confirmations": null,
      "from": "0xe6A7a1d47ff21B6321162AEA7C6CB457D5476Bca",
      "gasPrice": {
        "_hex": "0xe0eff25da"
      },
      "gasLimit": {
        "_hex": "0x55f0"
      },
      "to": "0x2AC36246B388F762Fdc3CA30E749A1494fDA99Ee",
      "value": {
        "_hex": "0x1d2cc89e40a4bca8"
      },
      "nonce": 1089,
      "data": "0x",
      "r": "0xdb774b16b316b8ed44b7935e3ef83a66a2694fdffd620d821b8374372b874658",
      "s": "0x60ebb7eef3ab4f69b26b223ece8a1933741246e53e519b964e1d48d3ed49ca1f",
      "v": 27,
      "creates": null,
      "raw": "0xf86e820441850e0eff25da8255f0942ac36246b388f762fdc3ca30e749a1494fda99ee881d2cc89e40a4bca8801ba0db774b16b316b8ed44b7935e3ef83a66a2694fdffd620d821b8374372b874658a060ebb7eef3ab4f69b26b223ece8a1933741246e53e519b964e1d48d3ed49ca1f",
      "networkId": 0,
      "chainId": 0
    },
    {
      "hash": "0xa7ef2281e4625c783ce181916e61a95f76780f68ca9f139843347d2ab7a280f8",
      "blockHash": "0x5d77c0c28867057ac7217893369fd1e1cb258e7a45b2f1565a137f5fae31a44f",
      "blockNumber": 79087,
      "transactionIndex": 3,
      "confirmations": null,
      "from": "0xe6A7a1d47ff21B6321162AEA7C6CB457D5476Bca",
      "gasPrice": {
        "_hex": "0xe0eff25da"
      },
      "gasLimit": {
        "_hex": "0x55f0"
      },
      "to": "0x8aBEdC756E11B6Fe8EF40840F01efFe5Dc147331",
      "value": {
        "_hex": "0x1dae73ec8f38a930"
      },
      "nonce": 1090,
      "data": "0x",
      "r": "0xc86f421f7240328d053dff69208e40ac2b0670e88ebdc0149ea42486a3c6201b",
      "s": "0x52e387c3ea6e66c00377102e676b0de28214f953ce159f48088157a24bb4ce7b",
      "v": 28,
      "creates": null,
      "raw": "0xf86e820442850e0eff25da8255f0948abedc756e11b6fe8ef40840f01effe5dc147331881dae73ec8f38a930801ca0c86f421f7240328d053dff69208e40ac2b0670e88ebdc0149ea42486a3c6201ba052e387c3ea6e66c00377102e676b0de28214f953ce159f48088157a24bb4ce7b",
      "networkId": 0,
      "chainId": 0
    },
    {
      "hash": "0x5b065a535b7923b677e790f9f2ae0db89049707622bfd35236ff240d11110c13",
      "blockHash": "0x5d77c0c28867057ac7217893369fd1e1cb258e7a45b2f1565a137f5fae31a44f",
      "blockNumber": 79087,
      "transactionIndex": 4,
      "confirmations": null,
      "from": "0xe6A7a1d47ff21B6321162AEA7C6CB457D5476Bca",
      "gasPrice": {
        "_hex": "0xdedd993d4"
      },
      "gasLimit": {
        "_hex": "0x55f0"
      },
      "to": "0x905364aFd546a2e96f44A41071b83C0258Bf17dA",
      "value": {
        "_hex": "0x1e6723390e4ce8a8"
      },
      "nonce": 1091,
      "data": "0x",
      "r": "0xb128b4c32be98d3d305adb8033597ee9a495623139655eed17dcf8923cac7896",
      "s": "0x71094244272d24d37e6b4e085363afd05afe23ac572432baabd7b7353f61b4e1",
      "v": 27,
      "creates": null,
      "raw": "0xf86e820443850dedd993d48255f094905364afd546a2e96f44a41071b83c0258bf17da881e6723390e4ce8a8801ba0b128b4c32be98d3d305adb8033597ee9a495623139655eed17dcf8923cac7896a071094244272d24d37e6b4e085363afd05afe23ac572432baabd7b7353f61b4e1",
      "networkId": 0,
      "chainId": 0
    },
    {
      "hash": "0x82328106f4f3c3a70e6f2eb9ed5b04f606d00066434c3ca02fa435e303ade0ba",
      "blockHash": "0x5d77c0c28867057ac7217893369fd1e1cb258e7a45b2f1565a137f5fae31a44f",
      "blockNumber": 79087,
      "transactionIndex": 5,
      "confirmations": null,
      "from": "0xe6A7a1d47ff21B6321162AEA7C6CB457D5476Bca",
      "gasPrice": {
        "_hex": "0xdedd993d4"
      },
      "gasLimit": {
        "_hex": "0x55f0"
      },
      "to": "0xbE97502418b30440315e0F5c824943C7500ce91A",
      "value": {
        "_hex": "0x1e78d1143d666624"
      },
      "nonce": 1092,
      "data": "0x",
      "r": "0xf9739a3459a32a7b33f7b5842debf8d0810ba09e70538043b518487be3770372",
      "s": "0x32fa8d77da22e651c0f23b377093a30e965bb78d6cfcfd397be92ba72bb519a8",
      "v": 27,
      "creates": null,
      "raw": "0xf86e820444850dedd993d48255f094be97502418b30440315e0f5c824943c7500ce91a881e78d1143d666624801ba0f9739a3459a32a7b33f7b5842debf8d0810ba09e70538043b518487be3770372a032fa8d77da22e651c0f23b377093a30e965bb78d6cfcfd397be92ba72bb519a8",
      "networkId": 0,
      "chainId": 0
    },
    {
      "hash": "0xbb71f8b3e4a8450c0bf1ddc80dc8c164faa4f75bd5ae7b15675aebc4b4936033",
      "blockHash": "0x5d77c0c28867057ac7217893369fd1e1cb258e7a45b2f1565a137f5fae31a44f",
      "blockNumber": 79087,
      "transactionIndex": 6,
      "confirmations": null,
      "from": "0xe6A7a1d47ff21B6321162AEA7C6CB457D5476Bca",
      "gasPrice": {
        "_hex": "0xdedd993d4"
      },
      "gasLimit": {
        "_hex": "0x55f0"
      },
      "to": "0x943800a6196105B4937F48570Dc5D0232a962da5",
      "value": {
        "_hex": "0x1ecc9f7a39f93dd0"
      },
      "nonce": 1093,
      "data": "0x",
      "r": "0xe51deb9f5360378a0a8bf499f05950c62ad0986d57f1c42772e0994e58fe65af",
      "s": "0x6da041042f63cbae2ee2a48fd536b2c5b8c96a020d98549de36d80e9e690b39f",
      "v": 27,
      "creates": null,
      "raw": "0xf86e820445850dedd993d48255f094943800a6196105b4937f48570dc5d0232a962da5881ecc9f7a39f93dd0801ba0e51deb9f5360378a0a8bf499f05950c62ad0986d57f1c42772e0994e58fe65afa06da041042f63cbae2ee2a48fd536b2c5b8c96a020d98549de36d80e9e690b39f",
      "networkId": 0,
      "chainId": 0
    },
    {
      "hash": "0x78792ddfbb928ad510452b5cdcb7d2dd1ae5c6a004377544d9d66e0640643964",
      "blockHash": "0x5d77c0c28867057ac7217893369fd1e1cb258e7a45b2f1565a137f5fae31a44f",
      "blockNumber": 79087,
      "transactionIndex": 7,
      "confirmations": null,
      "from": "0xe6A7a1d47ff21B6321162AEA7C6CB457D5476Bca",
      "gasPrice": {
        "_hex": "0xdedd993d4"
      },
      "gasLimit": {
        "_hex": "0x55f0"
      },
      "to": "0xD9DE820A23C38bCfE281630df2c89511CB833D03",
      "value": {
        "_hex": "0x1f26fdc8b28d0edc"
      },
      "nonce": 1094,
      "data": "0x",
      "r": "0x0f8e470e7a1fbcbd90c36bd9aa237b5a0bafec05d113398867c85462170e0c25",
      "s": "0x4581ebd5f9d2896111d914d1356bcdb3855bd30c15a09c1f3ec07a5f80a16e1c",
      "v": 27,
      "creates": null,
      "raw": "0xf86e820446850dedd993d48255f094d9de820a23c38bcfe281630df2c89511cb833d03881f26fdc8b28d0edc801ba00f8e470e7a1fbcbd90c36bd9aa237b5a0bafec05d113398867c85462170e0c25a04581ebd5f9d2896111d914d1356bcdb3855bd30c15a09c1f3ec07a5f80a16e1c",
      "networkId": 0,
      "chainId": 0
    },
    {
      "hash": "0xacdcaa83bd99f23986ad58f6f963b2c6280459401fa35035c81eeccf42ee5c3f",
      "blockHash": "0x5d77c0c28867057ac7217893369fd1e1cb258e7a45b2f1565a137f5fae31a44f",
      "blockNumber": 79087,
      "transactionIndex": 8,
      "confirmations": null,
      "from": "0xe6A7a1d47ff21B6321162AEA7C6CB457D5476Bca",
      "gasPrice": {
        "_hex": "0xdedd993d4"
      },
      "gasLimit": {
        "_hex": "0x55f0"
      },
      "to": "0x6A8CC233E14F874983bB2F37D1DE706f6910Ef0b",
      "value": {
        "_hex": "0x1f3c5efc292b18f0"
      },
      "nonce": 1095,
      "data": "0x",
      "r": "0x6f41a89ae84480265dae5bcb629ff458203d14df68eba5b0010c559aa6fb7268",
      "s": "0x2ec2859ac6e5b281527fe50dedef2484e64bd9b242a12c35098fce1a14d0c6fa",
      "v": 28,
      "creates": null,
      "raw": "0xf86e820447850dedd993d48255f0946a8cc233e14f874983bb2f37d1de706f6910ef0b881f3c5efc292b18f0801ca06f41a89ae84480265dae5bcb629ff458203d14df68eba5b0010c559aa6fb7268a02ec2859ac6e5b281527fe50dedef2484e64bd9b242a12c35098fce1a14d0c6fa",
      "networkId": 0,
      "chainId": 0
    },
    {
      "hash": "0x04c18bff8431527f0f9e18d65ef351ae2877a1eaebfa83d8a0d3a6d094d2dded",
      "blockHash": "0x5d77c0c28867057ac7217893369fd1e1cb258e7a45b2f1565a137f5fae31a44f",
      "blockNumber": 79087,
      "transactionIndex": 9,
      "confirmations": null,
      "from": "0xe6A7a1d47ff21B6321162AEA7C6CB457D5476Bca",
      "gasPrice": {
        "_hex": "0xdedd993d4"
      },
      "gasLimit": {
        "_hex": "0x55f0"
      },
      "to": "0x0109Fb2bDd57D96397433af9B54eBD486ccd1B41",
      "value": {
        "_hex": "0x1f606198c3ddf0e4"
      },
      "nonce": 1096,
      "data": "0x",
      "r": "0xf8277ae600798064a7a964b69c5544c8c8068efce547de714b9cdcc4f4af5f87",
      "s": "0x2b4c4fb772e81c16e03bdc6e28a06054b0b3c0da2803df241e7d5e0d1534ec7f",
      "v": 28,
      "creates": null,
      "raw": "0xf86e820448850dedd993d48255f0940109fb2bdd57d96397433af9b54ebd486ccd1b41881f606198c3ddf0e4801ca0f8277ae600798064a7a964b69c5544c8c8068efce547de714b9cdcc4f4af5f87a02b4c4fb772e81c16e03bdc6e28a06054b0b3c0da2803df241e7d5e0d1534ec7f",
      "networkId": 0,
      "chainId": 0
    }
  ]
}