{
  "hash": "0xc35a3ccb55abe528299126ea68f95a60bc4bd6adc504a5b87fc6cc6bc122f4da",
  "parentHash": "0x9279117674e04542d908b5555da3b8bba47092d4c72ecf8749404ec3fabb0b41",
  "number": 111470,
  "timestamp": 1439990754,
  "nonce": "0x35284217cf63b6cb",
  "difficulty": 4446116788819,
  "gasLimit": {
    "_hex": "0x2fefd8"
  },
  "gasUsed": {
    "_hex": "0xa410"
  },
  "miner": "0x88D74a59454F6cF3B51ef6b9136AFb6b9D405A88",
  "extraData": "0x",
  "transactions": [
    {
      "hash": "0xaf7cf13f9567cb9a42f129e50423ea5717fc48fcb0c87593e35e7d50a39aca8a",
      "blockHash": "0xc35a3ccb55abe528299126ea68f95a60bc4bd6adc504a5b87fc6cc6bc122f4da",
      "blockNumber": 111470,
      "transactionIndex": 0,
      "confirmations": null,
      "from": "0x120A270bbC009644e35F0bB6ab13f95b8199c4ad",
      "gasPrice": {
        "_hex": "0xd74ac48ad"
      },
      "gasLimit": {
        "_hex": "0x3d090"
      },
      "to": "0x0311234f736B0D56F1746250780a021BA61b9B4b",
      "value": {
        "_hex": "0x4563918244f40000"
      },
      "nonce": 876,
      "data": "0x",
      "r": "0x0d3d2f155a8d2a3902e471bb6dee177e2e44e8babfa78a7d8dce9cfc9defe8e4",
      "s": "0x7db083febb00a8cb47b9c29b10f8079d840beeb5e996e4dbec06ae57309a52b7",
      "v": 28,
      "creates": null,
      "raw": "0xf86f82036c850d74ac48ad8303d090940311234f736b0d56f1746250780a021ba61b9b4b884563918244f40000801ca00d3d2f155a8d2a3902e471bb6dee177e2e44e8babfa78a7d8dce9cfc9defe8e4a07db083febb00a8cb47b9c29b10f8079d840beeb5e996e4dbec06ae57309a52b7",
      "networkId": 0,
      "chainId": 0
    },
    {
      "hash": "0x6249e0c1cfcf04b1b2903ffa1390f44384021b98817ad1c02aca40426c7a0cf5",
      "blockHash": "0xc35a3ccb55abe528299126ea68f95a60bc4bd6adc504a5b87fc6cc6bc122f4da",
      "blockNumber": 111470,
      "transactionIndex": 1,
      "confirmations": null,
      "from": "0x7001C4730b81A539eF8b760A3eEb14C64515137B",
      "gasPrice": {
        "_hex": "0xce9abefbe"
      },
      "gasLimit": {
        "_hex": "0x5208"
      },
      "to": "0x32Be343B94f860124dC4fEe278FDCBD38C102D88",
      "value": {
        "_hex": "0x4c53aaa8354d64000"
      },
      "nonce": 6,
      "data": "0x",
      "r": "0x86e8e2674964fd9fe45ff195330baccc2f52dca2d65efc0434e4f17aa5e7caa0",
      "s": "0x28688b145e5db1a3be10e18e4c0c2bf13da81d16ff2164b493f9131b3e29d28a",
      "v": 28,
      "creates": null,
      "raw": "0xf86d06850ce9abefbe8252089432be343b94f860124dc4fee278fdcbd38c102d888904c53aaa8354d64000801ca086e8e2674964fd9fe45ff195330baccc2f52dca2d65efc0434e4f17aa5e7caa0a028688b145e5db1a3be10e18e4c0c2bf13da81d16ff2164b493f9131b3e29d28a",
      "networkId": 0,
      "chainId": 0
    }
  ]
}