{
  "hash": "0x8631c5e87a1bfbbb61b9c1250de67e0aeef1bb6e1ac2c7640ee5e65af0514434",
  "parentHash": "0x35b43bea495cf6ddf1722e66f98f898680c381fe1a618f756b11d58da66b3be8",
  "number": 121863,
  "timestamp": 1440183921,
  "nonce": "0xc8664e71b018c4a6",
  "difficulty": 4486379586225,
  "gasLimit": {
    "_hex": "0x2fefd8"
  },
  "gasUsed": {
    "_hex": "0xa410"
  },
  "miner": "0x6Cf387a1C50cF6b09634E0d24fDAa2c06Be0ea95",
  "extraData": "0x476574682f76312e302e322f6c696e75782f676f312e342e32",
  "transactions": [
    {
      "hash": "0x3a87feb5aa55c03baafe19c03017cbd87b63656cd67b68e1b53146f18d44d1ba",
      "blockHash": "0x8631c5e87a1bfbbb61b9c1250de67e0aeef1bb6e1ac2c7640ee5e65af0514434",
      "blockNumber": 121863,
      "transactionIndex": 0,
      "confirmations": null,
      "from": "0x31191beEB5a3d7f5eBC5B193e98bd15ce10Eb249",
      "gasPrice": {
        "_hex": "0xdc9747ee4"
      },
      "gasLimit": {
        "_hex": "0x5208"
      },
      "to": "0x32Be343B94f860124dC4fEe278FDCBD38C102D88",
      "value": {
        "_hex": "0x2d5cf4b7d7bfc800"
      },
      "nonce": 7,
      "data": "0x",
      "r": "0x3d57f18b89dc98b2d446cbd2291fedb97224f6a976ea13932519c66112bedce0",
      "s": "0x4121623b8420e4aac707a0c674ac2ba17111a97064e15820b1dabf325c08cb27",
      "v": 28,
      "creates": null,
      "raw": "0xf86c07850dc9747ee48252089432be343b94f860124dc4fee278fdcbd38c102d88882d5cf4b7d7bfc800801ca03d57f18b89dc98b2d446cbd2291fedb97224f6a976ea13932519c66112bedce0a04121623b8420e4aac707a0c674ac2ba17111a97064e15820b1dabf325c08cb27",
      "networkId": 0,
      "chainId": 0
    },
    {
      "hash": "0x82652778993def5c1e00031c324c24def26d5a5e5b6e8d5d3cd8008df9c4cea8",
      "blockHash": "0x8631c5e87a1bfbbb61b9c1250de67e0aeef1bb6e1ac2c7640ee5e65af0514434",
      "blockNumber": 121863,
      "transactionIndex": 1,
      "confirmations": null,
      "from": "0x1332996a46dcBBE02f9cF164Dfc153aB976a9766",
      "gasPrice": {
        "_hex": "0xba43b7400"
      },
      "gasLimit": {
        "_hex": "0x5208"
      },
      "to": "0xC47Aaa860008be6f65B58c6C6E02a84e666EfE31",
      "value": {
        "_hex": "0x89602293ff5a38f0"
      },
      "nonce": 17,
      "data": "0x",
      "r": "0x20271e1bf976fde0e0be89bc2f5f755d2a1acdbc15137ea6a7f464e901055244",
      "s": "0x64fa57d9ada1043a23bb4e19e7732a1e758cf702d877659e22d84a816deeda0a",
      "v": 27,
      "creates": null,
      "raw": "0xf86c11850ba43b740082520894c47aaa860008be6f65b58c6c6e02a84e666efe318889602293ff5a38f0801ba020271e1bf976fde0e0be89bc2f5f755d2a1acdbc15137ea6a7f464e901055244a064fa57d9ada1043a23bb4e19e7732a1e758cf702d877659e22d84a816deeda0a",
      "networkId": 0,
      "chainId": 0
    }
  ]
}