{
  "hash": "0xd602a89656c9f87f8f6b7e611a2f7646e08a4eb12b5fa96b843c175c93edc449",
  "parentHash": "0x0ce2f1b1266307ac95708b27a9695be5d6cd8c549efa780886279823db0a081b",
  "number": 51642,
  "timestamp": 1439008408,
  "nonce": "0xfa6e0458ed9877ff",
  "difficulty": 1558149644176,
  "gasLimit": {
    "_hex": "0xc9386"
  },
  "gasUsed": {
    "_hex": "0x70887"
  },
  "miner": "0xa50ec0D39fa913E62f1Bae7074E6F36caA71855b",
  "extraData": "0x",
  "transactions": [
    {
      "hash": "0x4c3b06a820f56285b7678d2dc8c530986d082968c979ad372c359634da5193c1",
      "blockHash": "0xd602a89656c9f87f8f6b7e611a2f7646e08a4eb12b5fa96b843c175c93edc449",
      "blockNumber": 51642,
      "transactionIndex": 0,
      "confirmations": null,
      "from": "0xFCf9f6A78f06227522c6f948ec0119dA31680Ef7",
      "gasPrice": {
        "_hex": "0xcb1df9d89"
      },
      "gasLimit": {
        "_hex": "0x7a120"
      },
      "to": "0xA327075af2a223A1C83a36aDa1126afE7430f955",
      "value": {
        "_hex": "0x8ac7230489e80000"
      },
      "nonce": 47,
      "data": "0x",
      "r": "0x7bda8256a4cbf6ed2ef70e35a3a423f49204127f009ad9be18025f372f4490b0",
      "s": "0x3d5fa3a4f6ce6db06e666a3fe4beb4a8fc53be91a56e51ada16430091c0d1017",
      "v": 27,
      "creates": null,
      "raw": "0xf86d2f850cb1df9d898307a12094a327075af2a223a1c83a36ada1126afe7430f955888ac7230489e80000801ba07bda8256a4cbf6ed2ef70e35a3a423f49204127f009ad9be18025f372f4490b0a03d5fa3a4f6ce6db06e666a3fe4beb4a8fc53be91a56e51ada16430091c0d1017",
      "networkId": 0,
      "chainId": 0
    }
  ]
}