{
  "hash": "0x2bbfd1218a948e55b1e5186a528f35ab38e2c24870f6abe3aeec7911a86645dc",
  "parentHash": "0x11c614aa0cde0ead4513d319a57d4672cd0fae967dabccc9e67d6f665786b6b6",
  "number": 63638,
  "timestamp": 1439207683,
  "nonce": "0x9da33ee7577351f2",
  "difficulty": 1845900820495,
  "gasLimit": {
    "_hex": "0x2fefd8"
  },
  "gasUsed": {
    "_hex": "0x546c"
  },
  "miner": "0xf927a40C8B7F6E07c5af7FA2155B4864a4112B13",
  "extraData": "0x",
  "transactions": [
    {
      "hash": "0x6e07c7693e53023f97d313eb60d95cd6a578f77df6556435aabd84e41bd36889",
      "blockHash": "0x2bbfd1218a948e55b1e5186a528f35ab38e2c24870f6abe3aeec7911a86645dc",
      "blockNumber": 63638,
      "transactionIndex": 0,
      "confirmations": null,
      "from": "0xabc4cAEB474d4627Cb6EB456ECbA0ecd08ed8aE1",
      "gasPrice": {
        "_hex": "0x110c8f7d8de"
      },
      "gasLimit": {
        "_hex": "0xc350"
      },
      "to": "0x2910543Af39abA0Cd09dBb2D50200b3E800A63D2",
      "value": {
        "_hex": "0x229b94699ca160000"
      },
      "nonce": 1,
      "data": "0x454e414b4e36364530",
      "r": "0x4fb47a7eb6e5bd53800e05f0cb9d5639627513f56fc4cfe80ae720966953c264",
      "s": "0x740d736704329387a1d6a9f97feb556dc99affb65dc96e3e7380ad1962982f68",
      "v": 28,
      "creates": null,
      "raw": "0xf87701860110c8f7d8de82c350942910543af39aba0cd09dbb2d50200b3e800a63d2890229b94699ca16000089454e414b4e363645301ca04fb47a7eb6e5bd53800e05f0cb9d5639627513f56fc4cfe80ae720966953c264a0740d736704329387a1d6a9f97feb556dc99affb65dc96e3e7380ad1962982f68",
      "networkId": 0,
      "chainId": 0
    }
  ]
}