{
  "hash": "0x546b263aa58cb92faf66f6afab97b0807a92fd7958465e06953fa16cbb0a721d",
  "parentHash": "0xedac4b58fd06aaea02c013ef17441f98f6d7a5fa73738d4b9d2d901f1c80d630",
  "number": 91907,
  "timestamp": 1439663589,
  "nonce": "0x08ec72aad9d6b28e",
  "difficulty": 3475811577259,
  "gasLimit": {
    "_hex": "0x2fefd8"
  },
  "gasUsed": {
    "_hex": "0x5208"
  },
  "miner": "0xe6A7a1d47ff21B6321162AEA7C6CB457D5476Bca",
  "extraData": "0x476574682f76312e302e312d38326566323666362f6c696e75782f676f312e34",
  "transactions": [
    {
      "hash": "0x3025d5bb97e2ba39d0a85f41c1acce6045b999faad8f52a10c3018347f1f1ae4",
      "blockHash": "0x546b263aa58cb92faf66f6afab97b0807a92fd7958465e06953fa16cbb0a721d",
      "blockNumber": 91907,
      "transactionIndex": 0,
      "confirmations": null,
      "from": "0x2910543Af39abA0Cd09dBb2D50200b3E800A63D2",
      "gasPrice": {
        "_hex": "0xcf88b566e"
      },
      "gasLimit": {
        "_hex": "0x5208"
      },
      "to": "0x53fcD9815d5671Bb4Ee099402289d08f6AA64c6C",
      "value": {
        "_hex": "0x4551ce090d138000"
      },
      "nonce": 817,
      "data": "0x",
      "r": "0x1683594ba41738bf4a106d5e0d99757c814df4689045f86cb1423d840e157245",
      "s": "0x1fcac0f9eaec025a7885f424f0ea2a38ca5a25d04e03765f48027013d210d3bb",
      "v": 27,
      "creates": null,
      "raw": "0xf86e820331850cf88b566e8252089453fcd9815d5671bb4ee099402289d08f6aa64c6c884551ce090d138000801ba01683594ba41738bf4a106d5e0d99757c814df4689045f86cb1423d840e157245a01fcac0f9eaec025a7885f424f0ea2a38ca5a25d04e03765f48027013d210d3bb",
      "networkId": 0,
      "chainId": 0
    }
  ]
}