{
  "hash": "0x3b1a2e8c9cd6c12c76cf6a86ee6fd7a7e06141fafec0ef789523c38aae7b626d",
  "parentHash": "0x1b52a970e85ec3b7063b06f1ded4fd4b752cb41d413cfdcd0967951e385d9555",
  "number": 71486,
  "timestamp": 1439336928,
  "nonce": "0x8a8a4524b0d810b3",
  "difficulty": 2177217077708,
  "gasLimit": {
    "_hex": "0x2fefd8"
  },
  "gasUsed": {
    "_hex": "0x100c9"
  },
  "miner": "0xe6A7a1d47ff21B6321162AEA7C6CB457D5476Bca",
  "extraData": "0x476574682f76312e302e312d38326566323666362f6c696e75782f676f312e34",
  "transactions": [
    {
      "hash": "0xd2471aaabad07b8f0123fafa34a44e47edb82a13f703818244c6dff1f369ed70",
      "blockHash": "0x3b1a2e8c9cd6c12c76cf6a86ee6fd7a7e06141fafec0ef789523c38aae7b626d",
      "blockNumber": 71486,
      "transactionIndex": 0,
      "confirmations": null,
      "from": "0x71800954e6FA0Cbc43c6440d3CC80660F18a8B6F",
      "gasPrice": {
        "_hex": "0xde108cff3"
      },
      "gasLimit": {
        "_hex": "0x5208"
      },
      "to": "0x32Be343B94f860124dC4fEe278FDCBD38C102D88",
      "value": {
        "_hex": "0x882cb99a9edf38000"
      },
      "nonce": 4,
      "data": "0x",
      "r": "0xfd809edcc31f40f901ce17d6a2a00bf8dfa536908fb4d751bd5f0971d28d2676",
      "s": "0x4050d3dbaef3e55877d76a896ea91b2dee15ff3afbd31f22e3618c75854e45f4",
      "v": 27,
      "creates": null,
      "raw": "0xf86d04850de108cff38252089432be343b94f860124dc4fee278fdcbd38c102d88890882cb99a9edf38000801ba0fd809edcc31f40f901ce17d6a2a00bf8dfa536908fb4d751bd5f0971d28d2676a04050d3dbaef3e55877d76a896ea91b2dee15ff3afbd31f22e3618c75854e45f4",
      "networkId": 0,
      "chainId": 0
    },
    {
      "hash": "0xc3a141f4836362cd0de2a7b7d496b53ff1c3760e2b7f65313c027a164b1bb21a",
      "blockHash": "0x3b1a2e8c9cd6c12c76cf6a86ee6fd7a7e06141fafec0ef789523c38aae7b626d",
      "blockNumber": 71486,
      "transactionIndex": 1,
      "confirmations": null,
      "from": "0x17580B766f7453525ca4C6A88b01b50570EA088C",
      "gasPrice": {
        "_hex": "0xd14337aec"
      },
      "gasLimit": {
        "_hex": "0x61a80"
      },
      "to": "0x5Fe5B7546D1628f7348B023A0393de1FC825A4fD",
      "value": {
        "_hex": "0xde0b6b3a7640000"
      },
      "nonce": 205,
      "data": "0xb595b8b50000000000000000000000000000000000000000000000000000000000000001",
      "r": "0x5f8068de4b26a616bceda81eba4c64b09b1b37e18240b597370e8a7917d4be38",
      "s": "0x495a2a2a14dbf2235c5293ccbea2332842c182304950f55bda95f6ec6fa4e8fe",
      "v": 27,
      "creates": null,
      "raw": "0xf89281cd850d14337aec83061a80945fe5b7546d1628f7348b023a0393de1fc825a4fd880de0b6b3a7640000a4b595b8b500000000000000000000000000000000000000000000000000000000000000011ba05f8068de4b26a616bceda81eba4c64b09b1b37e18240b597370e8a7917d4be38a0495a2a2a14dbf2235c5293ccbea2332842c182304950f55bda95f6ec6fa4e8fe",
      "networkId": 0,
      "chainId": 0
    }
  ]
}