{
  "hash": "0x28d82bd8d849b3b27a09d738ce5ef850135654c8a9e95ef899a688cbc7c80add",
  "parentHash": "0xde7ddce732f0b7ece0994e68fe6e7072e5191e2d69f2d356856e2fdb26599d40",
  "number": 96146,
  "timestamp": 1439735721,
  "nonce": "0x76f2383104e6e270",
  "difficulty": 3642557176154,
  "gasLimit": {
    "_hex": "0x2fefd8"
  },
  "gasUsed": {
    "_hex": "0x5208"
  },
  "miner": "0xeB1325C8D9d3ea8D74aC11F4B00F1B2367686319",
  "extraData": "0x",
  "transactions": [
    {
      "hash": "0x53fad81d270884f55727c9ac07f44442fb996b7133ed70c1a9ead10aea66c919",
      "blockHash": "0x28d82bd8d849b3b27a09d738ce5ef850135654c8a9e95ef899a688cbc7c80add",
      "blockNumber": 96146,
      "transactionIndex": 0,
      "confirmations": null,
      "from": "0x007f7f58D3eb5b7510A301eCC749FC1fCDDBE14D",
      "gasPrice": {
        "_hex": "0xcc8ddf695"
      },
      "gasLimit": {
        "_hex": "0x15f90"
      },
      "to": "0xb1abce2918E21ddb93AA452731a12672A3d9F75a",
      "value": {
        "_hex": "0x4563918244f40000"
      },
      "nonce": 73,
      "data": "0x",
      "r": "0x5e16c04c717c1104f766b54071fdc84c3f50339f00b639bc913fef5eca879ec7",
      "s": "0x7d0b7f9be408e1a634104eb4616e2c7e9a53d6a6a8a5a85265fbbc363d048737",
      "v": 28,
      "creates": null,
      "raw": "0xf86d49850cc8ddf69583015f9094b1abce2918e21ddb93aa452731a12672a3d9f75a884563918244f40000801ca05e16c04c717c1104f766b54071fdc84c3f50339f00b639bc913fef5eca879ec7a07d0b7f9be408e1a634104eb4616e2c7e9a53d6a6a8a5a85265fbbc363d048737",
      "networkId": 0,
      "chainId": 0
    }
  ]
}