{
  "hash": "0x1611d034f0c6bac65b5f1b07304b9a0d89efcdcec0aa1ead9b1f78cdfd6eaf09",
  "parentHash": "0xbc03f794fee63de1e4738a7068d76de9a61aa9294fc6c61c36c8b73defc420b4",
  "number": 103165,
  "timestamp": 1439848787,
  "nonce": "0xc823dbf2d58e020a",
  "difficulty": 4182919271507,
  "gasLimit": {
    "_hex": "0x2fefd8"
  },
  "gasUsed": {
    "_hex": "0x1bdbe"
  },
  "miner": "0xbb7B8287f3F0a933474a79eAe42CBCa977791171",
  "extraData": "0x476574682f4c5649562f76312e302e312f6c696e75782f676f312e342e32",
  "transactions": [
    {
      "hash": "0x1132994f9adff0aa7de5e5c355a0851b038261f169c20947ff425b81fa40dfc5",
      "blockHash": "0x1611d034f0c6bac65b5f1b07304b9a0d89efcdcec0aa1ead9b1f78cdfd6eaf09",
      "blockNumber": 103165,
      "transactionIndex": 0,
      "confirmations": null,
      "from": "0x30ed11b77bc17E5e6694c8Bc5B6e4798F68D9Ca7",
      "gasPrice": {
        "_hex": "0xba43b7400"
      },
      "gasLimit": {
        "_hex": "0x249f0"
      },
      "to": "0xE28e72FCf78647ADCe1F1252F240bbfaebD63BcC",
      "value": {
        "_hex": "0x505dd20760dc9a00000"
      },
      "nonce": 2,
      "data": "0x45466f3a",
      "r": "0x2b2cabde2955cd09a761360209adeaee41897b1a995d1211c6cf984311450e13",
      "s": "0x7d70547db3752f2b841f6647d163f7398b7567e2039e986e490dcb72e20916c0",
      "v": 27,
      "creates": null,
      "raw": "0xf87302850ba43b7400830249f094e28e72fcf78647adce1f1252f240bbfaebd63bcc8a0505dd20760dc9a000008445466f3a1ba02b2cabde2955cd09a761360209adeaee41897b1a995d1211c6cf984311450e13a07d70547db3752f2b841f6647d163f7398b7567e2039e986e490dcb72e20916c0",
      "networkId": 0,
      "chainId": 0
    }
  ]
}