{
  "hash": "0x4a0225a9f7a73adfbbf20cc57358696741a88b1dd3c72e7ba1a36734c742ac42",
  "parentHash": "0x0b731fe6ac614736789e482fe27847b139bcb4872089e2649958174ec44492ba",
  "number": 98552,
  "timestamp": 1439774898,
  "nonce": "0x3ce724a3c1621eaa",
  "difficulty": 3846203826082,
  "gasLimit": {
    "_hex": "0x2fefd8"
  },
  "gasUsed": {
    "_hex": "0x5208"
  },
  "miner": "0xf8E0CA3Ed80bd541b94BEdCf259e8CF2141A9523",
  "extraData": "0x476574682f76312e302e312f77696e646f77732f676f312e342e32",
  "transactions": [
    {
      "hash": "0x700afb66f2dd7270f29054c7a546ebf1832d7127194ef72c57ef8109f8114235",
      "blockHash": "0x4a0225a9f7a73adfbbf20cc57358696741a88b1dd3c72e7ba1a36734c742ac42",
      "blockNumber": 98552,
      "transactionIndex": 0,
      "confirmations": null,
      "from": "0x7D45E10A0d63eCCA0694a7cbfF030f4dD87DA0dC",
      "gasPrice": {
        "_hex": "0xcd198e2de"
      },
      "gasLimit": {
        "_hex": "0x15f90"
      },
      "to": "0x6d921977dEFE5f4e0682CA512De1D07b1f4802E1",
      "value": {
        "_hex": "0x4563918244f40000"
      },
      "nonce": 25,
      "data": "0x",
      "r": "0xf8cd860f3bc66cc24f9bea409595546bf736e44aa852229045662bc8e43e4f9e",
      "s": "0x690aeaf32bbc36c3abe4318ea27e2ff4076ced766f7c61d9faa9067c9059b593",
      "v": 28,
      "creates": null,
      "raw": "0xf86d19850cd198e2de83015f90946d921977defe5f4e0682ca512de1d07b1f4802e1884563918244f40000801ca0f8cd860f3bc66cc24f9bea409595546bf736e44aa852229045662bc8e43e4f9ea0690aeaf32bbc36c3abe4318ea27e2ff4076ced766f7c61d9faa9067c9059b593",
      "networkId": 0,
      "chainId": 0
    }
  ]
}