{
  "hash": "0x6d08156499c34e104507f187ca2eb8dfdcd92df4c4747d3e66036c5fc9adbbaa",
  "parentHash": "0xee57084e448c8feb1b99f870a68d9e5453d6c7186169e329aec05970cbb32c75",
  "number": 54952,
  "timestamp": 1439063059,
  "nonce": "0x16900f67b4f6fad8",
  "difficulty": 1617999240860,
  "gasLimit": {
    "_hex": "0x2fefd8"
  },
  "gasUsed": {
    "_hex": "0x285f5"
  },
  "miner": "0xF2d2AfF1320476cb8C6b607199D23175cc595693",
  "extraData": "0x476574682f76312e302e312f77696e646f77732f676f312e342e32",
  "transactions": [
    {
      "hash": "0x9884278173c3ac1fb68d741c1e5464d7450a992a4a8d336f3f47a49c8d839fbf",
      "blockHash": "0x6d08156499c34e104507f187ca2eb8dfdcd92df4c4747d3e66036c5fc9adbbaa",
      "blockNumber": 54952,
      "transactionIndex": 0,
      "confirmations": null,
      "from": "0x8674c218F0351a62C3BA78C34FD2182A93Da94E2",
      "gasPrice": {
        "_hex": "0xba43b7400"
      },
      "gasLimit": {
        "_hex": "0x2dc6c0"
      },
      "to": "0xA546d23a22453Ae3DFdC57fE02455A87C0D3c75a",
      "value": {
        "_hex": "0x0"
      },
      "nonce": 44,
      "data": "0xde6f24bb0000000000000000000000008674c218f0351a62c3ba78c34fd2182a93da94e20000000000000000000000000000000000000000000000000000000000000040000000000000000000000000000000000000000000000000000000000000000668656c6c6f210000000000000000000000000000000000000000000000000000",
      "r": "0x49727f53420e27eb638614dce3cdb1fbe448c5bfbc64bc026cf415ccfa665b1e",
      "s": "0x3256d75f9786f46a87c03a3741ffad41db2b4ea01280eb3b690d9ce54d3a4a09",
      "v": 28,
      "creates": null,
      "raw": "0xf8ea2c850ba43b7400832dc6c094a546d23a22453ae3dfdc57fe02455a87c0d3c75a80b884de6f24bb0000000000000000000000008674c218f0351a62c3ba78c34fd2182a93da94e20000000000000000000000000000000000000000000000000000000000000040000000000000000000000000000000000000000000000000000000000000000668656c6c6f2100000000000000000000000000000000000000000000000000001ca049727f53420e27eb638614dce3cdb1fbe448c5bfbc64bc026cf415ccfa665b1ea03256d75f9786f46a87c03a3741ffad41db2b4ea01280eb3b690d9ce54d3a4a09",
      "networkId": 0,
      "chainId": 0
    }
  ]
}