{
  "hash": "0x6da67139df51db863069a90a24b90e51363478cd4e3775e4f4567cd7a08e1806",
  "parentHash": "0x0d7315b7a1311b4886513a82ea73f94d7291960cf2b5abd2229e881af5b4495e",
  "number": 79066,
  "timestamp": 1439463883,
  "nonce": "0xe41f517b58990283",
  "difficulty": 2315542241795,
  "gasLimit": {
    "_hex": "0x2fefd8"
  },
  "gasUsed": {
    "_hex": "0x5208"
  },
  "miner": "0xB5EDD17d2582A94610ebf0C6832c1652EBBBe210",
  "extraData": "0x476574682f76312e302e312d38326566323666362f6c696e75782f676f312e34",
  "transactions": [
    {
      "hash": "0x33fe7ecfff123a0f04c276dd53fd532298316bdaa23f191013611d41b9151487",
      "blockHash": "0x6da67139df51db863069a90a24b90e51363478cd4e3775e4f4567cd7a08e1806",
      "blockNumber": 79066,
      "transactionIndex": 0,
      "confirmations": null,
      "from": "0xA1623430350C5df1b52B0b57483A5bb45d1796Da",
      "gasPrice": {
        "_hex": "0xdd796e772"
      },
      "gasLimit": {
        "_hex": "0x7530"
      },
      "to": "0xf2881e3e520bF84469Fa00a56449D357FB1af54A",
      "value": {
        "_hex": "0x49cffef1ef1be0000"
      },
      "nonce": 4,
      "data": "0x",
      "r": "0x0203eb0524a0784d98846fcf95ad767b1c93caed6f5788560207310c160bf2cb",
      "s": "0x7f4e58ceaac572e16fb0635a95deaaba5edd67577517125935c2e154de4ae02e",
      "v": 27,
      "creates": null,
      "raw": "0xf86d04850dd796e77282753094f2881e3e520bf84469fa00a56449d357fb1af54a89049cffef1ef1be0000801ba00203eb0524a0784d98846fcf95ad767b1c93caed6f5788560207310c160bf2cba07f4e58ceaac572e16fb0635a95deaaba5edd67577517125935c2e154de4ae02e",
      "networkId": 0,
      "chainId": 0
    }
  ]
}