{
  "hash": "0x40e717ec3e03fb6de9e8015e8578fe5e737c4759ab3fa786ee9f81c6074c150b",
  "parentHash": "0x91cfa1be13cf32177523dae695aa33061e62c19744c2f5ac3c43159c56a14f12",
  "number": 115976,
  "timestamp": 1440066321,
  "nonce": "0x50a95b040516e801",
  "difficulty": 4589267803538,
  "gasLimit": {
    "_hex": "0x2fefd8"
  },
  "gasUsed": {
    "_hex": "0xa410"
  },
  "miner": "0xe6A7a1d47ff21B6321162AEA7C6CB457D5476Bca",
  "extraData": "0x476574682f76312e302e312d38326566323666362f6c696e75782f676f312e34",
  "transactions": [
    {
      "hash": "0xe3cd44bd74172e4518e2d9eccf56bc2c09642fd16fd736c82c15bfc1fd514472",
      "blockHash": "0x40e717ec3e03fb6de9e8015e8578fe5e737c4759ab3fa786ee9f81c6074c150b",
      "blockNumber": 115976,
      "transactionIndex": 0,
      "confirmations": null,
      "from": "0x3048a8bFee849B0F52475259ee76Eaf20BD985a3",
      "gasPrice": {
        "_hex": "0xe07880dc6"
      },
      "gasLimit": {
        "_hex": "0x15f90"
      },
      "to": "0x162aee465C87cB9753b81F5e9B4Bf03A69196847",
      "value": {
        "_hex": "0x16345785d8a0000"
      },
      "nonce": 0,
      "data": "0x",
      "r": "0x1eaca644c58bbfe6c310c1be7f1f860ec91d7c8841e4d37eb45246505796419b",
      "s": "0x1a67f401418a282a074133dce2c4db7615576a91595f120b57c1f5514adc95dd",
      "v": 27,
      "creates": null,
      "raw": "0xf86d80850e07880dc683015f9094162aee465c87cb9753b81f5e9b4bf03a6919684788016345785d8a0000801ba01eaca644c58bbfe6c310c1be7f1f860ec91d7c8841e4d37eb45246505796419ba01a67f401418a282a074133dce2c4db7615576a91595f120b57c1f5514adc95dd",
      "networkId": 0,
      "chainId": 0
    },
    {
      "hash": "0x6dcb4e75cfefabc5fb1b6a9f9f779908157965d5938d6e3cdc1dfa2fe4eb785d",
      "blockHash": "0x40e717ec3e03fb6de9e8015e8578fe5e737c4759ab3fa786ee9f81c6074c150b",
      "blockNumber": 115976,
      "transactionIndex": 1,
      "confirmations": null,
      "from": "0x3048a8bFee849B0F52475259ee76Eaf20BD985a3",
      "gasPrice": {
        "_hex": "0xe05cc4f92"
      },
      "gasLimit": {
        "_hex": "0x15f90"
      },
      "to": "0x162aee465C87cB9753b81F5e9B4Bf03A69196847",
      "value": {
        "_hex": "0x16345785d8a0000"
      },
      "nonce": 1,
      "data": "0x",
      "r": "0xb9756860ffb5b518fd7d8eeec3c9cf34b926a2f1bfce4851d4bb04260f37aef3",
      "s": "0x0e583fff07cf3469a859a4693c1c16cb19e13dc7b7677253302c87a3bfc01a58",
      "v": 27,
      "creates": null,
      "raw": "0xf86d01850e05cc4f9283015f9094162aee465c87cb9753b81f5e9b4bf03a6919684788016345785d8a0000801ba0b9756860ffb5b518fd7d8eeec3c9cf34b926a2f1bfce4851d4bb04260f37aef3a00e583fff07cf3469a859a4693c1c16cb19e13dc7b7677253302c87a3bfc01a58",
      "networkId": 0,
      "chainId": 0
    }
  ]
}