{
  "hash": "0x1d7d3d94b996b16c01100c1d518e67e6f8307f7061bf13302b81ce4e176cc5ae",
  "parentHash": "0x789c2ef2ad179a5cac7fd622e2304d9122c90a159ef19be11116d3902ea93cd0",
  "number": 89114,
  "timestamp": 1439618424,
  "nonce": "0xa6c70e620e589c95",
  "difficulty": 3261528993818,
  "gasLimit": {
    "_hex": "0x2fefd8"
  },
  "gasUsed": {
    "_hex": "0x14820"
  },
  "miner": "0xa50ec0D39fa913E62f1Bae7074E6F36caA71855b",
  "extraData": "0xd783010001844765746887676f312e342e32856c696e7578",
  "transactions": [
    {
      "hash": "0x714e65f25620a186f43e7338b9cdf8c7e14098bf0a4d7b3e59441a25818de041",
      "blockHash": "0x1d7d3d94b996b16c01100c1d518e67e6f8307f7061bf13302b81ce4e176cc5ae",
      "blockNumber": 89114,
      "transactionIndex": 0,
      "confirmations": null,
      "from": "0x0c86db7DffC9eCbBe8da476416F54F4c47F97322",
      "gasPrice": {
        "_hex": "0xdbd8775f0"
      },
      "gasLimit": {
        "_hex": "0x5208"
      },
      "to": "0x32Be343B94f860124dC4fEe278FDCBD38C102D88",
      "value": {
        "_hex": "0x22b1824ef235ae000"
      },
      "nonce": 2,
      "data": "0x",
      "r": "0x67f23e69dc10221b60faf5859e273493bfc685bb8fc2c1324d467dc8025924ee",
      "s": "0x73c633d17c17bb89e46731f1dd6c23507cca2721f1718e95e8b83b2f303390c2",
      "v": 27,
      "creates": null,
      "raw": "0xf86d02850dbd8775f08252089432be343b94f860124dc4fee278fdcbd38c102d8889022b1824ef235ae000801ba067f23e69dc10221b60faf5859e273493bfc685bb8fc2c1324d467dc8025924eea073c633d17c17bb89e46731f1dd6c23507cca2721f1718e95e8b83b2f303390c2",
      "networkId": 0,
      "chainId": 0
    },
    {
      "hash": "0x77048747bd91723485767c38503b0696d8813b8f1b5bdefa73e6dab8e42c4445",
      "blockHash": "0x1d7d3d94b996b16c01100c1d518e67e6f8307f7061bf13302b81ce4e176cc5ae",
      "blockNumber": 89114,
      "transactionIndex": 1,
      "confirmations": null,
      "from": "0xb2169f1326FE9745321aD99563654089bAdf09eb",
      "gasPrice": {
        "_hex": "0xba43b7400"
      },
      "gasLimit": {
        "_hex": "0x5208"
      },
      "to": "0xC47Aaa860008be6f65B58c6C6E02a84e666EfE31",
      "value": {
        "_hex": "0xb0187ab6a5c28b8f0"
      },
      "nonce": 16,
      "data": "0x",
      "r": "0xc5b3f309117e1a36d2ec314bf05ea2c52d04376246ab3cc3897c72ca4362d601",
      "s": "0x2a306ee98af7d75a1995bf00d947dcf90fd6c0f2f0b585b227e41ebb555fb692",
      "v": 27,
      "creates": null,
      "raw": "0xf86d10850ba43b740082520894c47aaa860008be6f65b58c6c6e02a84e666efe31890b0187ab6a5c28b8f0801ba0c5b3f309117e1a36d2ec314bf05ea2c52d04376246ab3cc3897c72ca4362d601a02a306ee98af7d75a1995bf00d947dcf90fd6c0f2f0b585b227e41ebb555fb692",
      "networkId": 0,
      "chainId": 0
    },
    {
      "hash": "0xf4f8422b98a902245fd550fb392324197af684a1ca619035c69e61f74482d3ea",
      "blockHash": "0x1d7d3d94b996b16c01100c1d518e67e6f8307f7061bf13302b81ce4e176cc5ae",
      "blockNumber": 89114,
      "transactionIndex": 2,
      "confirmations": null,
      "from": "0x76899c112A85c5a7d27Ff89f1b97112e900aeEBc",
      "gasPrice": {
        "_hex": "0xba43b7400"
      },
      "gasLimit": {
        "_hex": "0x5208"
      },
      "to": "0xC47Aaa860008be6f65B58c6C6E02a84e666EfE31",
      "value": {
        "_hex": "0xc222bbe88ab36000"
      },
      "nonce": 5,
      "data": "0x",
      "r": "0x3626d1a8914eedb14ce97fab2fbca3502405f1d805895af4a5fc4da7aee0a170",
      "s": "0x48c8fad07a69f65cb24094edc269a93c3b199112c2dee85955eb822a5779aa3c",
      "v": 28,
      "creates": null,
      "raw": "0xf86c05850ba43b740082520894c47aaa860008be6f65b58c6c6e02a84e666efe3188c222bbe88ab36000801ca03626d1a8914eedb14ce97fab2fbca3502405f1d805895af4a5fc4da7aee0a170a048c8fad07a69f65cb24094edc269a93c3b199112c2dee85955eb822a5779aa3c",
      "networkId": 0,
      "chainId": 0
    },
    {
      "hash": "0x686f38534b941d3dbd71c0221b603e3931099975298ca5b72a4cda1c0a3be15f",
      "blockHash": "0x1d7d3d94b996b16c01100c1d518e67e6f8307f7061bf13302b81ce4e176cc5ae",
      "blockNumber": 89114,
      "transactionIndex": 3,
      "confirmations": null,
      "from": "0x6e20176526834C4a29aedb14bb1268834F338553",
      "gasPrice": {
        "_hex": "0xba43b7400"
      },
      "gasLimit": {
        "_hex": "0x5208"
      },
      "to": "0xC47Aaa860008be6f65B58c6C6E02a84e666EfE31",
      "value": {
        "_hex": "0xdb974c90a9f38f0"
      },
      "nonce": 0,
      "data": "0x",
      "r": "0x7b8ff379f6f65c23bf7fed3734d8cd87166dd29167bb1d8f062f4da4bcb74c28",
      "s": "0x56cb10f4ba7f17b2d04812aae39fdad24cea3f435c5cdd1b6f1325aded49e2d2",
      "v": 28,
      "creates": null,
      "raw": "0xf86c80850ba43b740082520894c47aaa860008be6f65b58c6c6e02a84e666efe31880db974c90a9f38f0801ca07b8ff379f6f65c23bf7fed3734d8cd87166dd29167bb1d8f062f4da4bcb74c28a056cb10f4ba7f17b2d04812aae39fdad24cea3f435c5cdd1b6f1325aded49e2d2",
      "networkId": 0,
      "chainId": 0
    }
  ]
}