{
  "hash": "0x3b69c504f345ec6e3603067ea8b9b2c4ad97444b47d7f725725fac207bce3945",
  "parentHash": "0xd94a636258e4a3eb797d284e95e0e085d875e56f34abbba046d09eca0666cd6c",
  "number": 78657,
  "timestamp": 1439457252,
  "nonce": "0xe9d890cb555a08c0",
  "difficulty": 2292031951899,
  "gasLimit": {
    "_hex": "0x2fefd8"
  },
  "gasUsed": {
    "_hex": "0x5208"
  },
  "miner": "0xEF247E639d49461D25F57e9362CadE3120910Ce0",
  "extraData": "0x476574682f76312e302e312f6c696e75782f676f312e342e32",
  "transactions": [
    {
      "hash": "0x0793ce181b8f2de3b39978afc1b883485262ec054d3f53a6e71fe229f9e97226",
      "blockHash": "0x3b69c504f345ec6e3603067ea8b9b2c4ad97444b47d7f725725fac207bce3945",
      "blockNumber": 78657,
      "transactionIndex": 0,
      "confirmations": null,
      "from": "0x2910543Af39abA0Cd09dBb2D50200b3E800A63D2",
      "gasPrice": {
        "_hex": "0xe1aff6aa3"
      },
      "gasLimit": {
        "_hex": "0x5208"
      },
      "to": "0x56762748Fc88C780502570997F1Bbace6fD5b691",
      "value": {
        "_hex": "0x11c37937e08000"
      },
      "nonce": 346,
      "data": "0x",
      "r": "0x13baae88e592b22c3467ab7e6d0576e456e2b8d23bf9471c95e1c3d9ea1ef511",
      "s": "0x6df78c7180fd6eba35ddedea569d8edc3257f54ef39d16e7bef5b855a24fbf70",
      "v": 27,
      "creates": null,
      "raw": "0xf86d82015a850e1aff6aa38252089456762748fc88c780502570997f1bbace6fd5b6918711c37937e08000801ba013baae88e592b22c3467ab7e6d0576e456e2b8d23bf9471c95e1c3d9ea1ef511a06df78c7180fd6eba35ddedea569d8edc3257f54ef39d16e7bef5b855a24fbf70",
      "networkId": 0,
      "chainId": 0
    }
  ]
}