{
  "hash": "0xea0c25a0b11272e47eb01b619016b7785c39726b985cbc0839b0db0cae814ed3",
  "parentHash": "0xe3f3c9d8cd94e4617f8603159239a824244005b988eefe3fe1c846fc911d338e",
  "number": 107960,
  "timestamp": 1439931622,
  "nonce": "0x6e1410d6ed3993aa",
  "difficulty": 4374743739790,
  "gasLimit": {
    "_hex": "0x2fefd8"
  },
  "gasUsed": {
    "_hex": "0xa410"
  },
  "miner": "0xe6A7a1d47ff21B6321162AEA7C6CB457D5476Bca",
  "extraData": "0x476574682f76312e302e312d38326566323666362f6c696e75782f676f312e34",
  "transactions": [
    {
      "hash": "0xc43fc0eb587124bda9d2fc2d4531abec45bbb8f22a8725ac315f2d8f0fcf9c16",
      "blockHash": "0xea0c25a0b11272e47eb01b619016b7785c39726b985cbc0839b0db0cae814ed3",
      "blockNumber": 107960,
      "transactionIndex": 0,
      "confirmations": null,
      "from": "0xbDdEDC68C397704930A4eD8CB3f9996050EC1A58",
      "gasPrice": {
        "_hex": "0xd0a63c739"
      },
      "gasLimit": {
        "_hex": "0x5208"
      },
      "to": "0x32Be343B94f860124dC4fEe278FDCBD38C102D88",
      "value": {
        "_hex": "0xddc88f694409400"
      },
      "nonce": 0,
      "data": "0x",
      "r": "0x54539367587521d1017557694c33e135ff9df9ebcf032fbf429bd6ac470fa932",
      "s": "0x4c9149306e18f0ead8670e5e67ccd497f6f2e36f38671ad0a9cc77d4d0b7d556",
      "v": 27,
      "creates": null,
      "raw": "0xf86c80850d0a63c7398252089432be343b94f860124dc4fee278fdcbd38c102d88880ddc88f694409400801ba054539367587521d1017557694c33e135ff9df9ebcf032fbf429bd6ac470fa932a04c9149306e18f0ead8670e5e67ccd497f6f2e36f38671ad0a9cc77d4d0b7d556",
      "networkId": 0,
      "chainId": 0
    },
    {
      "hash": "0x498d15106404a9a75e5fcbfbe6c9e21f78268d124e8206d6f33d225f60dea6c2",
      "blockHash": "0xea0c25a0b11272e47eb01b619016b7785c39726b985cbc0839b0db0cae814ed3",
      "blockNumber": 107960,
      "transactionIndex": 1,
      "confirmations": null,
      "from": "0x9BCDF86092d1cD705862b8343c7CFe1a9F20d6a6",
      "gasPrice": {
        "_hex": "0xba43b7400"
      },
      "gasLimit": {
        "_hex": "0x5208"
      },
      "to": "0xC47Aaa860008be6f65B58c6C6E02a84e666EfE31",
      "value": {
        "_hex": "0x1fcbfa42bd6000"
      },
      "nonce": 0,
      "data": "0x",
      "r": "0x0f9be1a1390bae848fe799483363c86c422aa969e177171dd1b14d0a8f3cb3ae",
      "s": "0x4fee7bfa95cc09da0e6785d13ba34d2c247e6706d2f87c057355f175c72f5900",
      "v": 28,
      "creates": null,
      "raw": "0xf86b80850ba43b740082520894c47aaa860008be6f65b58c6c6e02a84e666efe31871fcbfa42bd6000801ca00f9be1a1390bae848fe799483363c86c422aa969e177171dd1b14d0a8f3cb3aea04fee7bfa95cc09da0e6785d13ba34d2c247e6706d2f87c057355f175c72f5900",
      "networkId": 0,
      "chainId": 0
    }
  ]
}