{
  "hash": "0xd15fb4d3225702b4f85e2e30de6a1b88fe1ca93d72910177fb1e17c53a879708",
  "parentHash": "0xe46ad70bdf8fb2e200fc125135eed33fe530bd1028a5b6d54d56530cce580964",
  "number": 94715,
  "timestamp": 1439712930,
  "nonce": "0x536d906276811358",
  "difficulty": 3488247669688,
  "gasLimit": {
    "_hex": "0x2fefd8"
  },
  "gasUsed": {
    "_hex": "0x14820"
  },
  "miner": "0x157c6f2431eB1a95797EE86F7d17b3c0FD47A247",
  "extraData": "0x476574682f76312e302e312f77696e646f77732f676f312e342e32",
  "transactions": [
    {
      "hash": "0xad78679512b2ca3ecbf64cdbb32905e7f3571689bb14edaa6f4955bf7c5df268",
      "blockHash": "0xd15fb4d3225702b4f85e2e30de6a1b88fe1ca93d72910177fb1e17c53a879708",
      "blockNumber": 94715,
      "transactionIndex": 0,
      "confirmations": null,
      "from": "0xB415e74b9b5B2058EF3541265aaF7ce09C4953bc",
      "gasPrice": {
        "_hex": "0xe185ab785"
      },
      "gasLimit": {
        "_hex": "0x5208"
      },
      "to": "0x32Be343B94f860124dC4fEe278FDCBD38C102D88",
      "value": {
        "_hex": "0x5ed5034f98799400"
      },
      "nonce": 5,
      "data": "0x",
      "r": "0xe1c3325ebefc4536af4f3af09cc4e7254e23d82c7fe5a44bde4dbd9c66475004",
      "s": "0x0ae98bea21a68bc67fa58dfd89111c741c7f27b354ef65ffb4139ccd76bf3f0a",
      "v": 28,
      "creates": null,
      "raw": "0xf86c05850e185ab7858252089432be343b94f860124dc4fee278fdcbd38c102d88885ed5034f98799400801ca0e1c3325ebefc4536af4f3af09cc4e7254e23d82c7fe5a44bde4dbd9c66475004a00ae98bea21a68bc67fa58dfd89111c741c7f27b354ef65ffb4139ccd76bf3f0a",
      "networkId": 0,
      "chainId": 0
    },
    {
      "hash": "0x6640bcea8bd930a0d89e09133ea7b4465b98550dfeb3f7de91e0c50da0ad5a5b",
      "blockHash": "0xd15fb4d3225702b4f85e2e30de6a1b88fe1ca93d72910177fb1e17c53a879708",
      "blockNumber": 94715,
      "transactionIndex": 1,
      "confirmations": null,
      "from": "0xa70a9a7040d542C632D8e0bE7c5513A8a5Bbc752",
      "gasPrice": {
        "_hex": "0xdf7318ede"
      },
      "gasLimit": {
        "_hex": "0x5208"
      },
      "to": "0x32Be343B94f860124dC4fEe278FDCBD38C102D88",
      "value": {
        "_hex": "0x1fb7a63cb7c1dc000"
      },
      "nonce": 150,
      "data": "0x",
      "r": "0x1c680ded95d9b1c5f760ec793b030cb4d3c110dcc8417b9e919d7af8d80099d1",
      "s": "0x2c102aa0785b6822c80d196c38d73441ea6bc9ee57f27f671ba19aa5e4ad9c00",
      "v": 27,
      "creates": null,
      "raw": "0xf86e8196850df7318ede8252089432be343b94f860124dc4fee278fdcbd38c102d888901fb7a63cb7c1dc000801ba01c680ded95d9b1c5f760ec793b030cb4d3c110dcc8417b9e919d7af8d80099d1a02c102aa0785b6822c80d196c38d73441ea6bc9ee57f27f671ba19aa5e4ad9c00",
      "networkId": 0,
      "chainId": 0
    },
    {
      "hash": "0xce057a9ba6fad64755080c6b7038c41cb63c4dc48a70e418d404f56cba0d3c68",
      "blockHash": "0xd15fb4d3225702b4f85e2e30de6a1b88fe1ca93d72910177fb1e17c53a879708",
      "blockNumber": 94715,
      "transactionIndex": 2,
      "confirmations": null,
      "from": "0xD3E2F0F585C1bDF616A23E113223ba0D26865B01",
      "gasPrice": {
        "_hex": "0xd8364fc25"
      },
      "gasLimit": {
        "_hex": "0x15f90"
      },
      "to": "0x52191276589069F70F0E46bcCc718d793d1Aa1D0",
      "value": {
        "_hex": "0x31708ae0045440000"
      },
      "nonce": 0,
      "data": "0x",
      "r": "0x6a3121c49d26bd36d6773ec329d1f58d11dc2379d53c1754f69f982563de86c9",
      "s": "0x67158a24d104e0a07b73041bfd39d895cb66e41b34de45ef4ee6501cb79373da",
      "v": 28,
      "creates": null,
      "raw": "0xf86e80850d8364fc2583015f909452191276589069f70f0e46bccc718d793d1aa1d089031708ae0045440000801ca06a3121c49d26bd36d6773ec329d1f58d11dc2379d53c1754f69f982563de86c9a067158a24d104e0a07b73041bfd39d895cb66e41b34de45ef4ee6501cb79373da",
      "networkId": 0,
      "chainId": 0
    },
    {
      "hash": "0xb779e3d4302e13a3f366fabb9fd2ef93c604859a600aba63c55c9cb01668a506",
      "blockHash": "0xd15fb4d3225702b4f85e2e30de6a1b88fe1ca93d72910177fb1e17c53a879708",
      "blockNumber": 94715,
      "transactionIndex": 3,
      "confirmations": null,
      "from": "0x50087E7383C8865C1C136b8777C4350B8ed472CE",
      "gasPrice": {
        "_hex": "0xcdb5cfddb"
      },
      "gasLimit": {
        "_hex": "0x15f90"
      },
      "to": "0x647fe784fb1A8380972fB6eA08D6eEd74D1a5699",
      "value": {
        "_hex": "0x17979cfe362a0000"
      },
      "nonce": 0,
      "data": "0x",
      "r": "0x65ed22caf4887cbf2d5f6c4d56f4875913e67c7144239515904fcd79324e7e2e",
      "s": "0x2b4cb4be68ce5b51b0638997743b3e811c354b2a3f78175e0768dbea4201462f",
      "v": 27,
      "creates": null,
      "raw": "0xf86d80850cdb5cfddb83015f9094647fe784fb1a8380972fb6ea08d6eed74d1a56998817979cfe362a0000801ba065ed22caf4887cbf2d5f6c4d56f4875913e67c7144239515904fcd79324e7e2ea02b4cb4be68ce5b51b0638997743b3e811c354b2a3f78175e0768dbea4201462f",
      "networkId": 0,
      "chainId": 0
    }
  ]
}