{
  "hash": "0x109b447e237daf3a9137efe2ac1a8d1f586e179d1df6fdefa3b3904db8e68167",
  "parentHash": "0x32104828a74c7144936cb32f8989532f06ae2e802b896d50b0f9f6d36790aa20",
  "number": 89834,
  "timestamp": 1439629835,
  "nonce": "0xe8da355b0459f1b2",
  "difficulty": 3345114416566,
  "gasLimit": {
    "_hex": "0x2fefd8"
  },
  "gasUsed": {
    "_hex": "0x33450"
  },
  "miner": "0xe6A7a1d47ff21B6321162AEA7C6CB457D5476Bca",
  "extraData": "0x476574682f76312e302e312d38326566323666362f6c696e75782f676f312e34",
  "transactions": [
    {
      "hash": "0x5b6e1e629fe5093a4f82f281040216ba3977048f85531d9f882626b0bbeab492",
      "blockHash": "0x109b447e237daf3a9137efe2ac1a8d1f586e179d1df6fdefa3b3904db8e68167",
      "blockNumber": 89834,
      "transactionIndex": 0,
      "confirmations": null,
      "from": "0x3629B45bBf972aDc23C064D31B7d7c6ce17415D5",
      "gasPrice": {
        "_hex": "0xda2b86662"
      },
      "gasLimit": {
        "_hex": "0x5208"
      },
      "to": "0x32Be343B94f860124dC4fEe278FDCBD38C102D88",
      "value": {
        "_hex": "0x2e5f44d00467e0000"
      },
      "nonce": 1,
      "data": "0x",
      "r": "0x5128ba66e8bd55bd53034863e4a064cca171825b23f917bdff0eb6df2a2b6928",
      "s": "0x2fa9874f15a2e6cfdae0acd758c32dd3f3bf68fa6605bc4a4e46e135a0487f5d",
      "v": 28,
      "creates": null,
      "raw": "0xf86d01850da2b866628252089432be343b94f860124dc4fee278fdcbd38c102d888902e5f44d00467e0000801ca05128ba66e8bd55bd53034863e4a064cca171825b23f917bdff0eb6df2a2b6928a02fa9874f15a2e6cfdae0acd758c32dd3f3bf68fa6605bc4a4e46e135a0487f5d",
      "networkId": 0,
      "chainId": 0
    },
    {
      "hash": "0xd7bde0b7cefc114474215fbc4f4dd355db03946cfd348d172982312d8e09ebcb",
      "blockHash": "0x109b447e237daf3a9137efe2ac1a8d1f586e179d1df6fdefa3b3904db8e68167",
      "blockNumber": 89834,
      "transactionIndex": 1,
      "confirmations": null,
      "from": "0xe6A7a1d47ff21B6321162AEA7C6CB457D5476Bca",
      "gasPrice": {
        "_hex": "0xd36cd91e8"
      },
      "gasLimit": {
        "_hex": "0x55f0"
      },
      "to": "0xc8aB34A1891E416F845A740f0203e2186f8BBd09",
      "value": {
        "_hex": "0x214cc1e3bb977128"
      },
      "nonce": 2476,
      "data": "0x",
      "r": "0x2dfc5f118818c2763cd0f111f8f301db662716adf5a23ddfb81a9ec738076b1d",
      "s": "0x644df56c3c229aa49170d1555060088376c23ee7d118541d997762d0d30433d7",
      "v": 27,
      "creates": null,
      "raw": "0xf86e8209ac850d36cd91e88255f094c8ab34a1891e416f845a740f0203e2186f8bbd0988214cc1e3bb977128801ba02dfc5f118818c2763cd0f111f8f301db662716adf5a23ddfb81a9ec738076b1da0644df56c3c229aa49170d1555060088376c23ee7d118541d997762d0d30433d7",
      "networkId": 0,
      "chainId": 0
    },
    {
      "hash": "0xd676f904d5257b57aba7d75bc18c19fec77f29dcb421d81386ee5db5b318bdd9",
      "blockHash": "0x109b447e237daf3a9137efe2ac1a8d1f586e179d1df6fdefa3b3904db8e68167",
      "blockNumber": 89834,
      "transactionIndex": 2,
      "confirmations": null,
      "from": "0xe6A7a1d47ff21B6321162AEA7C6CB457D5476Bca",
      "gasPrice": {
        "_hex": "0xd36cd91e8"
      },
      "gasLimit": {
        "_hex": "0x55f0"
      },
      "to": "0x37E0B394d41C669662b52628639E6E4c1ac3F23D",
      "value": {
        "_hex": "0x2196e75e645e862c"
      },
      "nonce": 2477,
      "data": "0x",
      "r": "0x9a325c1e0d35bfc4b75d8939af3b8ed6e4d09a0b94b356a008af51b9bde1033f",
      "s": "0x609f646a3ebd29ed26242e01e533aa09c06bf7ec4a8317f837082633d550e074",
      "v": 28,
      "creates": null,
      "raw": "0xf86e8209ad850d36cd91e88255f09437e0b394d41c669662b52628639e6e4c1ac3f23d882196e75e645e862c801ca09a325c1e0d35bfc4b75d8939af3b8ed6e4d09a0b94b356a008af51b9bde1033fa0609f646a3ebd29ed26242e01e533aa09c06bf7ec4a8317f837082633d550e074",
      "networkId": 0,
      "chainId": 0
    },
    {
      "hash": "0xc11498196bd00b28ecf611d6664903f060b39054f2eb99d013bde2af6891db9d",
      "blockHash": "0x109b447e237daf3a9137efe2ac1a8d1f586e179d1df6fdefa3b3904db8e68167",
      "blockNumber": 89834,
      "transactionIndex": 3,
      "confirmations": null,
      "from": "0xe6A7a1d47ff21B6321162AEA7C6CB457D5476Bca",
      "gasPrice": {
        "_hex": "0xd36cd91e8"
      },
      "gasLimit": {
        "_hex": "0x55f0"
      },
      "to": "0xBDda295a4aa9E3A60063548157510B47c6BE932f",
      "value": {
        "_hex": "0x269c99abedcb54f8"
      },
      "nonce": 2478,
      "data": "0x",
      "r": "0xfe58d9b6883d23e0664460597e8f29cf01df5d15515ad542d77c3705fb2299da",
      "s": "0x3d057ed5057788f585bc4ca427b2755cdb85a6be6b503ab9714dbf9f56fb0626",
      "v": 27,
      "creates": null,
      "raw": "0xf86e8209ae850d36cd91e88255f094bdda295a4aa9e3a60063548157510b47c6be932f88269c99abedcb54f8801ba0fe58d9b6883d23e0664460597e8f29cf01df5d15515ad542d77c3705fb2299daa03d057ed5057788f585bc4ca427b2755cdb85a6be6b503ab9714dbf9f56fb0626",
      "networkId": 0,
      "chainId": 0
    },
    {
      "hash": "0x79c686161138b0edcbf3ad8f647ea438c2cbf6b90e6ea5ff90212e47fe8e1f0b",
      "blockHash": "0x109b447e237daf3a9137efe2ac1a8d1f586e179d1df6fdefa3b3904db8e68167",
      "blockNumber": 89834,
      "transactionIndex": 4,
      "confirmations": null,
      "from": "0xe6A7a1d47ff21B6321162AEA7C6CB457D5476Bca",
      "gasPrice": {
        "_hex": "0xd36cd91e8"
      },
      "gasLimit": {
        "_hex": "0x55f0"
      },
      "to": "0x468569500925D53e06Dd0993014aD166fD7Dd381",
      "value": {
        "_hex": "0x2867781ad076ee48"
      },
      "nonce": 2479,
      "data": "0x",
      "r": "0x23bce6ede3c7ad3ec3e416f7089f5ea165e8f37b4bfbe53105eb0301bb1ac28c",
      "s": "0x2cf39eb30fb169be2ec659935a28ccd30badc586dcf42c58fb128f513f1b25f6",
      "v": 27,
      "creates": null,
      "raw": "0xf86e8209af850d36cd91e88255f094468569500925d53e06dd0993014ad166fd7dd381882867781ad076ee48801ba023bce6ede3c7ad3ec3e416f7089f5ea165e8f37b4bfbe53105eb0301bb1ac28ca02cf39eb30fb169be2ec659935a28ccd30badc586dcf42c58fb128f513f1b25f6",
      "networkId": 0,
      "chainId": 0
    },
    {
      "hash": "0xff70aad8b17f45539be0e0ea83d8df47f8c081e37a3f7888a52074118c6ba87a",
      "blockHash": "0x109b447e237daf3a9137efe2ac1a8d1f586e179d1df6fdefa3b3904db8e68167",
      "blockNumber": 89834,
      "transactionIndex": 5,
      "confirmations": null,
      "from": "0xe6A7a1d47ff21B6321162AEA7C6CB457D5476Bca",
      "gasPrice": {
        "_hex": "0xd36cd91e8"
      },
      "gasLimit": {
        "_hex": "0x55f0"
      },
      "to": "0x9aB9F7a4B85412bfbe2f4F63b1C98808851C4F32",
      "value": {
        "_hex": "0x2ab4357a81327fc0"
      },
      "nonce": 2480,
      "data": "0x",
      "r": "0x58ba9ae4a88746dbd3d416878096ee410e529088d9809e40942d10a4f9efb999",
      "s": "0x296d03d1a7b9684f6249f2c93ca4bd1bb4a615af9af98a3a0d8ca8712daba7d4",
      "v": 28,
      "creates": null,
      "raw": "0xf86e8209b0850d36cd91e88255f0949ab9f7a4b85412bfbe2f4f63b1c98808851c4f32882ab4357a81327fc0801ca058ba9ae4a88746dbd3d416878096ee410e529088d9809e40942d10a4f9efb999a0296d03d1a7b9684f6249f2c93ca4bd1bb4a615af9af98a3a0d8ca8712daba7d4",
      "networkId": 0,
      "chainId": 0
    },
    {
      "hash": "0x0ac7d21235750f7e2976c5763ca492b4e26b8d54bccf2a71b438ba3fd85b2d7f",
      "blockHash": "0x109b447e237daf3a9137efe2ac1a8d1f586e179d1df6fdefa3b3904db8e68167",
      "blockNumber": 89834,
      "transactionIndex": 6,
      "confirmations": null,
      "from": "0xe6A7a1d47ff21B6321162AEA7C6CB457D5476Bca",
      "gasPrice": {
        "_hex": "0xd36cd91e8"
      },
      "gasLimit": {
        "_hex": "0x55f0"
      },
      "to": "0xda5E395F4f06f7A77C591d97d6502Ddf471E12c1",
      "value": {
        "_hex": "0x2b10e55e32cd3bf4"
      },
      "nonce": 2481,
      "data": "0x",
      "r": "0x640f40de9cb186aa710b272124f6706b7def303d6746adca6b1e97d100f4e5cc",
      "s": "0x75c2d6fa685d13baa15ce93503199e4e4c116d36fdfdfa5a12b24612da13cb56",
      "v": 28,
      "creates": null,
      "raw": "0xf86e8209b1850d36cd91e88255f094da5e395f4f06f7a77c591d97d6502ddf471e12c1882b10e55e32cd3bf4801ca0640f40de9cb186aa710b272124f6706b7def303d6746adca6b1e97d100f4e5cca075c2d6fa685d13baa15ce93503199e4e4c116d36fdfdfa5a12b24612da13cb56",
      "networkId": 0,
      "chainId": 0
    },
    {
      "hash": "0x2c2bc980746216786c27ade7c662dee883186220f14fe3bffa0dc445a75d309f",
      "blockHash": "0x109b447e237daf3a9137efe2ac1a8d1f586e179d1df6fdefa3b3904db8e68167",
      "blockNumber": 89834,
      "transactionIndex": 7,
      "confirmations": null,
      "from": "0xe6A7a1d47ff21B6321162AEA7C6CB457D5476Bca",
      "gasPrice": {
        "_hex": "0xd36cd91e8"
      },
      "gasLimit": {
        "_hex": "0x55f0"
      },
      "to": "0x1E9Cb3929516130db1ac4CB03a20cAe1CEE52F71",
      "value": {
        "_hex": "0x32dce2f0848dd5f8"
      },
      "nonce": 2482,
      "data": "0x",
      "r": "0x2c97d5403f9b97ea67f2106598e055c7389a9c3690b2f7de196aaa3d7afec933",
      "s": "0x239918b357f5f843a615c2e848531c930c40f81ab6245dd815b79b434af5ca3f",
      "v": 28,
      "creates": null,
      "raw": "0xf86e8209b2850d36cd91e88255f0941e9cb3929516130db1ac4cb03a20cae1cee52f718832dce2f0848dd5f8801ca02c97d5403f9b97ea67f2106598e055c7389a9c3690b2f7de196aaa3d7afec933a0239918b357f5f843a615c2e848531c930c40f81ab6245dd815b79b434af5ca3f",
      "networkId": 0,
      "chainId": 0
    },
    {
      "hash": "0x39086d9ca282e8ce844bebc5e0f75523e80a379c5a7e552677e8bfd11ae8fe93",
      "blockHash": "0x109b447e237daf3a9137efe2ac1a8d1f586e179d1df6fdefa3b3904db8e68167",
      "blockNumber": 89834,
      "transactionIndex": 8,
      "confirmations": null,
      "from": "0xe6A7a1d47ff21B6321162AEA7C6CB457D5476Bca",
      "gasPrice": {
        "_hex": "0xd36cd91e8"
      },
      "gasLimit": {
        "_hex": "0x55f0"
      },
      "to": "0x9b7999611FD5eFF3ef9A86653490c42E83ED4B8E",
      "value": {
        "_hex": "0x3bcc8d8bbd83ba24"
      },
      "nonce": 2483,
      "data": "0x",
      "r": "0x7d588551964a0a52bbb46cfa82823ef7d5c9413c1a785ad3d81a39eb073a809c",
      "s": "0x41a33a94d87dba2db9cd14b64711c058bdf2ed81d0390823082ffaa8ad9532bd",
      "v": 27,
      "creates": null,
      "raw": "0xf86e8209b3850d36cd91e88255f0949b7999611fd5eff3ef9a86653490c42e83ed4b8e883bcc8d8bbd83ba24801ba07d588551964a0a52bbb46cfa82823ef7d5c9413c1a785ad3d81a39eb073a809ca041a33a94d87dba2db9cd14b64711c058bdf2ed81d0390823082ffaa8ad9532bd",
      "networkId": 0,
      "chainId": 0
    },
    {
      "hash": "0xa251d4987e52494b0031b2fc9b00a47c0ec39ad7a436ea75bfca0d5bd084b6a0",
      "blockHash": "0x109b447e237daf3a9137efe2ac1a8d1f586e179d1df6fdefa3b3904db8e68167",
      "blockNumber": 89834,
      "transactionIndex": 9,
      "confirmations": null,
      "from": "0xe6A7a1d47ff21B6321162AEA7C6CB457D5476Bca",
      "gasPrice": {
        "_hex": "0xd36cd91e8"
      },
      "gasLimit": {
        "_hex": "0x55f0"
      },
      "to": "0xf97e4688e66CD658F9666d93FD97f779b80218a0",
      "value": {
        "_hex": "0x55a05f36771f05b0"
      },
      "nonce": 2484,
      "data": "0x",
      "r": "0x8580a2d4b21145bdeed5f76631de725cfe1409798f1afd210f63e88d7bb40e1b",
      "s": "0x02bcc3c68955c889fd50ea67b3999020942c93386e0b12233c6779f1d4753381",
      "v": 28,
      "creates": null,
      "raw": "0xf86e8209b4850d36cd91e88255f094f97e4688e66cd658f9666d93fd97f779b80218a08855a05f36771f05b0801ca08580a2d4b21145bdeed5f76631de725cfe1409798f1afd210f63e88d7bb40e1ba002bcc3c68955c889fd50ea67b3999020942c93386e0b12233c6779f1d4753381",
      "networkId": 0,
      "chainId": 0
    }
  ]
}