{
  "hash": "0x3336692accb445b4b1135a47c364e1c31a00299533620fe69132e2b214aa91fd",
  "parentHash": "0x98dffd3bd69450387baa30d541de1dc955b39a6cc1376b42aa0c4810de8e50ac",
  "number": 114842,
  "timestamp": 1440047332,
  "nonce": "0x62d123082014ca4b",
  "difficulty": 4461724542553,
  "gasLimit": {
    "_hex": "0x2fefd8"
  },
  "gasUsed": {
    "_hex": "0x5208"
  },
  "miner": "0xe6A7a1d47ff21B6321162AEA7C6CB457D5476Bca",
  "extraData": "0x476574682f76312e302e312d38326566323666362f6c696e75782f676f312e34",
  "transactions": [
    {
      "hash": "0x5a04043905efbbc1b50f2d951d6e4418f617f7a5568b20b241adfa73e1011143",
      "blockHash": "0x3336692accb445b4b1135a47c364e1c31a00299533620fe69132e2b214aa91fd",
      "blockNumber": 114842,
      "transactionIndex": 0,
      "confirmations": null,
      "from": "0x2910543Af39abA0Cd09dBb2D50200b3E800A63D2",
      "gasPrice": {
        "_hex": "0xd5c301595"
      },
      "gasLimit": {
        "_hex": "0x5208"
      },
      "to": "0x13622631B6851Af989c6B6a73bbB106227Ec3C16",
      "value": {
        "_hex": "0x18556bc71a2d0c2000"
      },
      "nonce": 1119,
      "data": "0x",
      "r": "0x17e77e23b7fefa0bfef0167e54f4f5cf83aadc1d23a986597afa15e249a1a310",
      "s": "0x4ba15256b321793b9329c915f798491026fd6dcf4477474fde8d09a79aeff16d",
      "v": 28,
      "creates": null,
      "raw": "0xf86f82045f850d5c3015958252089413622631b6851af989c6b6a73bbb106227ec3c168918556bc71a2d0c2000801ca017e77e23b7fefa0bfef0167e54f4f5cf83aadc1d23a986597afa15e249a1a310a04ba15256b321793b9329c915f798491026fd6dcf4477474fde8d09a79aeff16d",
      "networkId": 0,
      "chainId": 0
    }
  ]
}