{
  "hash": "0x2047a4369a4e2f7886d36450e16fa73b032f644f0a3d549a1d6d66f4fe945ccb",
  "parentHash": "0x2651c4c241cc67ef2599bffe7a8b64b4a548fea641508fb9d97f9c172e1250f0",
  "number": 112691,
  "timestamp": 1440011540,
  "nonce": "0x59eb57a7fb3e256d",
  "difficulty": 4417340738591,
  "gasLimit": {
    "_hex": "0x2fefd8"
  },
  "gasUsed": {
    "_hex": "0x8f8e0"
  },
  "miner": "0x7E6930B63D03e88F5928C5cd6ee3FCee4D714F7F",
  "extraData": "0x",
  "transactions": [
    {
      "hash": "0x9820fd5a92400d4fc5983685116f9c381379a87cfd4cb611cbf8b67ba80f199b",
      "blockHash": "0x2047a4369a4e2f7886d36450e16fa73b032f644f0a3d549a1d6d66f4fe945ccb",
      "blockNumber": 112691,
      "transactionIndex": 0,
      "confirmations": null,
      "from": "0xe6A7a1d47ff21B6321162AEA7C6CB457D5476Bca",
      "gasPrice": {
        "_hex": "0xd4efeb76c"
      },
      "gasLimit": {
        "_hex": "0x55f0"
      },
      "to": "0xba1c85BF47A2236D2668AF0Fa26C34d3e33e6470",
      "value": {
        "_hex": "0x59230df5348b9dc8"
      },
      "nonce": 4873,
      "data": "0x",
      "r": "0xeabbcebca178f47ad2d7a02a339d00bd87f8cd6801dabbd4330def13182b3328",
      "s": "0x323f0e78016849fd1f0bb461bfc4ecf9042be40e889ef060d38f7d61768b953c",
      "v": 27,
      "creates": null,
      "raw": "0xf86e821309850d4efeb76c8255f094ba1c85bf47a2236d2668af0fa26c34d3e33e64708859230df5348b9dc8801ba0eabbcebca178f47ad2d7a02a339d00bd87f8cd6801dabbd4330def13182b3328a0323f0e78016849fd1f0bb461bfc4ecf9042be40e889ef060d38f7d61768b953c",
      "networkId": 0,
      "chainId": 0
    },
    {
      "hash": "0x998ad46c30220f78384dc679f8c953a82de6d3c77f0c185a018d0d2d0d2fddf3",
      "blockHash": "0x2047a4369a4e2f7886d36450e16fa73b032f644f0a3d549a1d6d66f4fe945ccb",
      "blockNumber": 112691,
      "transactionIndex": 1,
      "confirmations": null,
      "from": "0xe6A7a1d47ff21B6321162AEA7C6CB457D5476Bca",
      "gasPrice": {
        "_hex": "0xd4efeb76c"
      },
      "gasLimit": {
        "_hex": "0x55f0"
      },
      "to": "0x5214803C763281b785cDC039b80605fd088D42Ca",
      "value": {
        "_hex": "0x59a1f244fa1384b8"
      },
      "nonce": 4874,
      "data": "0x",
      "r": "0x0ab6a4a5495379bcbb50eb27550cf263de0a23ab0b112ebd7047c3134edce0fb",
      "s": "0x7c56ae2ebbca945725a8f518951fabd7724545901e684bb30bbfd5de811aaab0",
      "v": 28,
      "creates": null,
      "raw": "0xf86e82130a850d4efeb76c8255f0945214803c763281b785cdc039b80605fd088d42ca8859a1f244fa1384b8801ca00ab6a4a5495379bcbb50eb27550cf263de0a23ab0b112ebd7047c3134edce0fba07c56ae2ebbca945725a8f518951fabd7724545901e684bb30bbfd5de811aaab0",
      "networkId": 0,
      "chainId": 0
    },
    {
      "hash": "0x1ece805d9ced536c95efb50469ac54cb07da0e587074acc9cfdb16a71741ee69",
      "blockHash": "0x2047a4369a4e2f7886d36450e16fa73b032f644f0a3d549a1d6d66f4fe945ccb",
      "blockNumber": 112691,
      "transactionIndex": 2,
      "confirmations": null,
      "from": "0xe6A7a1d47ff21B6321162AEA7C6CB457D5476Bca",
      "gasPrice": {
        "_hex": "0xd4efeb76c"
      },
      "gasLimit": {
        "_hex": "0x55f0"
      },
      "to": "0xB1A4B41b8e75a153841c99c62d18588d45e7b406",
      "value": {
        "_hex": "0x5b55bb3efeddff00"
      },
      "nonce": 4875,
      "data": "0x",
      "r": "0x6b7f17c87310f8174d80ddfc91aba1a2b2924ac88759d5ae04c4205bfa60ae33",
      "s": "0x0d43c146e107876df5fcb23bfb571d13ec4485e179412f9fc852106eab7885c5",
      "v": 27,
      "creates": null,
      "raw": "0xf86e82130b850d4efeb76c8255f094b1a4b41b8e75a153841c99c62d18588d45e7b406885b55bb3efeddff00801ba06b7f17c87310f8174d80ddfc91aba1a2b2924ac88759d5ae04c4205bfa60ae33a00d43c146e107876df5fcb23bfb571d13ec4485e179412f9fc852106eab7885c5",
      "networkId": 0,
      "chainId": 0
    },
    {
      "hash": "0x233105d762351faab44fb1d9d4dc8431ec73226d875c8b06fa516b6085cd597a",
      "blockHash": "0x2047a4369a4e2f7886d36450e16fa73b032f644f0a3d549a1d6d66f4fe945ccb",
      "blockNumber": 112691,
      "transactionIndex": 3,
      "confirmations": null,
      "from": "0xe6A7a1d47ff21B6321162AEA7C6CB457D5476Bca",
      "gasPrice": {
        "_hex": "0xd4efeb76c"
      },
      "gasLimit": {
        "_hex": "0x55f0"
      },
      "to": "0x0D81FD2bB264D9Ee0F432599b443ae1B691f6134",
      "value": {
        "_hex": "0x5bd7bbf6e1ce8fe8"
      },
      "nonce": 4876,
      "data": "0x",
      "r": "0xeab7c852da081517ff390f2bdc21536a58f0326de1fdbe0d4aa0260462755ff7",
      "s": "0x09e46dc777cc205c7045d2369e7bc6db1e10d38ad1c4ff9bbdd2e3365ae01970",
      "v": 27,
      "creates": null,
      "raw": "0xf86e82130c850d4efeb76c8255f0940d81fd2bb264d9ee0f432599b443ae1b691f6134885bd7bbf6e1ce8fe8801ba0eab7c852da081517ff390f2bdc21536a58f0326de1fdbe0d4aa0260462755ff7a009e46dc777cc205c7045d2369e7bc6db1e10d38ad1c4ff9bbdd2e3365ae01970",
      "networkId": 0,
      "chainId": 0
    },
    {
      "hash": "0x4253398fac00f65bac6ab149d117a42210ecb9c643ba7be3ea8ca04ce868c0c3",
      "blockHash": "0x2047a4369a4e2f7886d36450e16fa73b032f644f0a3d549a1d6d66f4fe945ccb",
      "blockNumber": 112691,
      "transactionIndex": 4,
      "confirmations": null,
      "from": "0xe6A7a1d47ff21B6321162AEA7C6CB457D5476Bca",
      "gasPrice": {
        "_hex": "0xd4efeb76c"
      },
      "gasLimit": {
        "_hex": "0x55f0"
      },
      "to": "0x5E8E0f5D30223Cf97aeDff1f84CC3C4f59f8a64f",
      "value": {
        "_hex": "0x5c0755f47aa8d9a0"
      },
      "nonce": 4877,
      "data": "0x",
      "r": "0x8f217ebd48c5cac73e60f76914da3c35ddd05bd11d405fba75ecd619baf6df4d",
      "s": "0x777d96b9371ab778efeafd4f7ed5f475398bff50b70f082b6405fde2a7a0a470",
      "v": 27,
      "creates": null,
      "raw": "0xf86e82130d850d4efeb76c8255f0945e8e0f5d30223cf97aedff1f84cc3c4f59f8a64f885c0755f47aa8d9a0801ba08f217ebd48c5cac73e60f76914da3c35ddd05bd11d405fba75ecd619baf6df4da0777d96b9371ab778efeafd4f7ed5f475398bff50b70f082b6405fde2a7a0a470",
      "networkId": 0,
      "chainId": 0
    },
    {
      "hash": "0xa39ad48c908111ce2b40ba27bcfb5d4b0a1c6a38080445d6a8b32c29f69b1802",
      "blockHash": "0x2047a4369a4e2f7886d36450e16fa73b032f644f0a3d549a1d6d66f4fe945ccb",
      "blockNumber": 112691,
      "transactionIndex": 5,
      "confirmations": null,
      "from": "0xe6A7a1d47ff21B6321162AEA7C6CB457D5476Bca",
      "gasPrice": {
        "_hex": "0xd4efeb76c"
      },
      "gasLimit": {
        "_hex": "0x55f0"
      },
      "to": "0x9Fa88512e871481291d0416CEFf5B3764f840aED",
      "value": {
        "_hex": "0x60ccc801dba53318"
      },
      "nonce": 4878,
      "data": "0x",
      "r": "0x234e3355bb5057d5e938aefe32fa2ad7c3b2f7f9fc052787cb06a93556dd275f",
      "s": "0x04c0661c2d6c56a2f251efdc57a8d47326eea2e3c9c5796dcc39e58be1e1db46",
      "v": 28,
      "creates": null,
      "raw": "0xf86e82130e850d4efeb76c8255f0949fa88512e871481291d0416ceff5b3764f840aed8860ccc801dba53318801ca0234e3355bb5057d5e938aefe32fa2ad7c3b2f7f9fc052787cb06a93556dd275fa004c0661c2d6c56a2f251efdc57a8d47326eea2e3c9c5796dcc39e58be1e1db46",
      "networkId": 0,
      "chainId": 0
    },
    {
      "hash": "0xf84ee20f47ef4e12a2233afdd07beb3b58be4f909d829b08ab0541c3d117144a",
      "blockHash": "0x2047a4369a4e2f7886d36450e16fa73b032f644f0a3d549a1d6d66f4fe945ccb",
      "blockNumber": 112691,
      "transactionIndex": 6,
      "confirmations": null,
      "from": "0xe6A7a1d47ff21B6321162AEA7C6CB457D5476Bca",
      "gasPrice": {
        "_hex": "0xd4efeb76c"
      },
      "gasLimit": {
        "_hex": "0x55f0"
      },
      "to": "0xB415e74b9b5B2058EF3541265aaF7ce09C4953bc",
      "value": {
        "_hex": "0x610289a803c8c740"
      },
      "nonce": 4879,
      "data": "0x",
      "r": "0xf41bfe85b2e6e1027b5862a1952bfaa10d10a8420afdd8ed4c423c34140b7427",
      "s": "0x1275e78d7feab5293f919536bfe2725dfe428200f9705a4568c0c0be5b6b3b71",
      "v": 28,
      "creates": null,
      "raw": "0xf86e82130f850d4efeb76c8255f094b415e74b9b5b2058ef3541265aaf7ce09c4953bc88610289a803c8c740801ca0f41bfe85b2e6e1027b5862a1952bfaa10d10a8420afdd8ed4c423c34140b7427a01275e78d7feab5293f919536bfe2725dfe428200f9705a4568c0c0be5b6b3b71",
      "networkId": 0,
      "chainId": 0
    },
    {
      "hash": "0x6f751aa9fee37bb73dc02d31a2bf222dee23c89ba7e5bcd850a60abd1b2d3f34",
      "blockHash": "0x2047a4369a4e2f7886d36450e16fa73b032f644f0a3d549a1d6d66f4fe945ccb",
      "blockNumber": 112691,
      "transactionIndex": 7,
      "confirmations": null,
      "from": "0xe6A7a1d47ff21B6321162AEA7C6CB457D5476Bca",
      "gasPrice": {
        "_hex": "0xd4efeb76c"
      },
      "gasLimit": {
        "_hex": "0x55f0"
      },
      "to": "0xA270859a7dD7bEF18258BDE4b85Dd3691FdE277D",
      "value": {
        "_hex": "0x61a9688da3aed888"
      },
      "nonce": 4880,
      "data": "0x",
      "r": "0xa0bdd943d044d058c3c6fcc2d477549bc0e163a3568805bf6cffd3fd463a8232",
      "s": "0x060a43a67de316dbe3534cd9860a45073361e7f3798c91749ecc9bc608892b96",
      "v": 27,
      "creates": null,
      "raw": "0xf86e821310850d4efeb76c8255f094a270859a7dd7bef18258bde4b85dd3691fde277d8861a9688da3aed888801ba0a0bdd943d044d058c3c6fcc2d477549bc0e163a3568805bf6cffd3fd463a8232a0060a43a67de316dbe3534cd9860a45073361e7f3798c91749ecc9bc608892b96",
      "networkId": 0,
      "chainId": 0
    },
    {
      "hash": "0xb5fb944181c1de51c72f1d2e49f607df85cf93b6a69b40966d41c6bff59659b5",
      "blockHash": "0x2047a4369a4e2f7886d36450e16fa73b032f644f0a3d549a1d6d66f4fe945ccb",
      "blockNumber": 112691,
      "transactionIndex": 8,
      "confirmations": null,
      "from": "0xe6A7a1d47ff21B6321162AEA7C6CB457D5476Bca",
      "gasPrice": {
        "_hex": "0xd4efeb76c"
      },
      "gasLimit": {
        "_hex": "0x55f0"
      },
      "to": "0x61E20833179bA2eCCc2065e5F733CC8CdA7394c0",
      "value": {
        "_hex": "0x63cff819c8923b88"
      },
      "nonce": 4881,
      "data": "0x",
      "r": "0xa65eda5a4b8cd8651465af34bf222770a5e0a0816b077d0150f374a36c945f91",
      "s": "0x6b3d70233caa5adccdee7c787cae7b2cbafd03c90d3b1eff8e362c91ef133a51",
      "v": 28,
      "creates": null,
      "raw": "0xf86e821311850d4efeb76c8255f09461e20833179ba2eccc2065e5f733cc8cda7394c08863cff819c8923b88801ca0a65eda5a4b8cd8651465af34bf222770a5e0a0816b077d0150f374a36c945f91a06b3d70233caa5adccdee7c787cae7b2cbafd03c90d3b1eff8e362c91ef133a51",
      "networkId": 0,
      "chainId": 0
    },
    {
      "hash": "0xcf76831b694fde12ac02dedf1f426f4c6c8dd8949b093b269ebb69612b0e440f",
      "blockHash": "0x2047a4369a4e2f7886d36450e16fa73b032f644f0a3d549a1d6d66f4fe945ccb",
      "blockNumber": 112691,
      "transactionIndex": 9,
      "confirmations": null,
      "from": "0xe6A7a1d47ff21B6321162AEA7C6CB457D5476Bca",
      "gasPrice": {
        "_hex": "0xd4efeb76c"
      },
      "gasLimit": {
        "_hex": "0x55f0"
      },
      "to": "0x8e33bFA30c0c6eb3652321FF52E2fB3143fa51BF",
      "value": {
        "_hex": "0x663f5ef17a7b2d78"
      },
      "nonce": 4882,
      "data": "0x",
      "r": "0x660b09edf1e9bfad3c1c0f804cf3017de8391862c90b0c5a6ea260d325f1aff2",
      "s": "0x3fb6e730ad985cde24033eddecb4e0ca1cb3b848f6e4b1c2895aabc23b0ab68e",
      "v": 28,
      "creates": null,
      "raw": "0xf86e821312850d4efeb76c8255f0948e33bfa30c0c6eb3652321ff52e2fb3143fa51bf88663f5ef17a7b2d78801ca0660b09edf1e9bfad3c1c0f804cf3017de8391862c90b0c5a6ea260d325f1aff2a03fb6e730ad985cde24033eddecb4e0ca1cb3b848f6e4b1c2895aabc23b0ab68e",
      "networkId": 0,
      "chainId": 0
    },
    {
      "hash": "0xf48fade22ee8eed27f3d0711e4d538b21383212d65a55e3d72902f6794ec3b74",
      "blockHash": "0x2047a4369a4e2f7886d36450e16fa73b032f644f0a3d549a1d6d66f4fe945ccb",
      "blockNumber": 112691,
      "transactionIndex": 10,
      "confirmations": null,
      "from": "0xe6A7a1d47ff21B6321162AEA7C6CB457D5476Bca",
      "gasPrice": {
        "_hex": "0xd4efeb76c"
      },
      "gasLimit": {
        "_hex": "0x55f0"
      },
      "to": "0x3131059fec5c802096c71004E5C3E87f67ED96d0",
      "value": {
        "_hex": "0x673ff2320f68a6c0"
      },
      "nonce": 4883,
      "data": "0x",
      "r": "0x6795445c4f5b79bef7f72450182236f0943cd3733a1fd54634673b901245ebc8",
      "s": "0x6df2c45101e87eb4ffd209bbe9d41968df4a7a64dbfced93c969fc2628a4a356",
      "v": 27,
      "creates": null,
      "raw": "0xf86e821313850d4efeb76c8255f0943131059fec5c802096c71004e5c3e87f67ed96d088673ff2320f68a6c0801ba06795445c4f5b79bef7f72450182236f0943cd3733a1fd54634673b901245ebc8a06df2c45101e87eb4ffd209bbe9d41968df4a7a64dbfced93c969fc2628a4a356",
      "networkId": 0,
      "chainId": 0
    },
    {
      "hash": "0x7356d56108bc38a90ea5ce992eefe2824f7d3105cc24e4474785549017e70b64",
      "blockHash": "0x2047a4369a4e2f7886d36450e16fa73b032f644f0a3d549a1d6d66f4fe945ccb",
      "blockNumber": 112691,
      "transactionIndex": 11,
      "confirmations": null,
      "from": "0xe6A7a1d47ff21B6321162AEA7C6CB457D5476Bca",
      "gasPrice": {
        "_hex": "0xd4efeb76c"
      },
      "gasLimit": {
        "_hex": "0x55f0"
      },
      "to": "0x27A2f708f13CFE24f8e5d6E8b7D8E971D2449Ba0",
      "value": {
        "_hex": "0x67bb2d5944e1d848"
      },
      "nonce": 4884,
      "data": "0x",
      "r": "0x3abcf76c3f8d909c2b8d88e2fa174568b7c02b716e8ae65d9566efddbced9cc0",
      "s": "0x1c8a5457e6d4a185f1baa8b2e5b952b906fd72f4c5a42619b39363069a5e5f54",
      "v": 28,
      "creates": null,
      "raw": "0xf86e821314850d4efeb76c8255f09427a2f708f13cfe24f8e5d6e8b7d8e971d2449ba08867bb2d5944e1d848801ca03abcf76c3f8d909c2b8d88e2fa174568b7c02b716e8ae65d9566efddbced9cc0a01c8a5457e6d4a185f1baa8b2e5b952b906fd72f4c5a42619b39363069a5e5f54",
      "networkId": 0,
      "chainId": 0
    },
    {
      "hash": "0x4cc2e566a96e45a3326ff8ef00e36da85c22f6ba2ea354942f8b1acc08f0e80d",
      "blockHash": "0x2047a4369a4e2f7886d36450e16fa73b032f644f0a3d549a1d6d66f4fe945ccb",
      "blockNumber": 112691,
      "transactionIndex": 12,
      "confirmations": null,
      "from": "0xe6A7a1d47ff21B6321162AEA7C6CB457D5476Bca",
      "gasPrice": {
        "_hex": "0xd4efeb76c"
      },
      "gasLimit": {
        "_hex": "0x55f0"
      },
      "to": "0x6747f922385c9a6F9cfDf095F34345257DD597bE",
      "value": {
        "_hex": "0x67d5ffc8f4f1a798"
      },
      "nonce": 4885,
      "data": "0x",
      "r": "0x9bb7f1b1a2ddbacf984b040fc93210a2601db3a0c665d9b295f2f5897235fc4f",
      "s": "0x7efd7f87d2602f9a0c8580c563caad3a6c61f60eff7212c22ff5521505cc654e",
      "v": 28,
      "creates": null,
      "raw": "0xf86e821315850d4efeb76c8255f0946747f922385c9a6f9cfdf095f34345257dd597be8867d5ffc8f4f1a798801ca09bb7f1b1a2ddbacf984b040fc93210a2601db3a0c665d9b295f2f5897235fc4fa07efd7f87d2602f9a0c8580c563caad3a6c61f60eff7212c22ff5521505cc654e",
      "networkId": 0,
      "chainId": 0
    },
    {
      "hash": "0xa4e1d722c8323f14212c2ceaa75b8a6f0644a490f2104f08ac1383547fa91b6b",
      "blockHash": "0x2047a4369a4e2f7886d36450e16fa73b032f644f0a3d549a1d6d66f4fe945ccb",
      "blockNumber": 112691,
      "transactionIndex": 13,
      "confirmations": null,
      "from": "0xe6A7a1d47ff21B6321162AEA7C6CB457D5476Bca",
      "gasPrice": {
        "_hex": "0xd4efeb76c"
      },
      "gasLimit": {
        "_hex": "0x55f0"
      },
      "to": "0xC13Dad778D7BcE116BD97f744625D57f7124c38A",
      "value": {
        "_hex": "0x6a8f6c5690c970c8"
      },
      "nonce": 4886,
      "data": "0x",
      "r": "0xb1f66407470909bee041f4b9c63d83ab8eb0a1c118c6e1d1e277aa32ddbc5498",
      "s": "0x24ff78d064c0926f36b7d5ee3511b6b646483969f09e662c9da985f63e372065",
      "v": 28,
      "creates": null,
      "raw": "0xf86e821316850d4efeb76c8255f094c13dad778d7bce116bd97f744625d57f7124c38a886a8f6c5690c970c8801ca0b1f66407470909bee041f4b9c63d83ab8eb0a1c118c6e1d1e277aa32ddbc5498a024ff78d064c0926f36b7d5ee3511b6b646483969f09e662c9da985f63e372065",
      "networkId": 0,
      "chainId": 0
    },
    {
      "hash": "0x08c67b4bfa1d1bbfedbecb736d802ad5c83bb75caa4a4823b45671202075d7de",
      "blockHash": "0x2047a4369a4e2f7886d36450e16fa73b032f644f0a3d549a1d6d66f4fe945ccb",
      "blockNumber": 112691,
      "transactionIndex": 14,
      "confirmations": null,
      "from": "0xe6A7a1d47ff21B6321162AEA7C6CB457D5476Bca",
      "gasPrice": {
        "_hex": "0xd4efeb76c"
      },
      "gasLimit": {
        "_hex": "0x55f0"
      },
      "to": "0xAdCa16b4654a92cb67666C0cF61976cEEE81cEEB",
      "value": {
        "_hex": "0x6b4e2db766dec970"
      },
      "nonce": 4887,
      "data": "0x",
      "r": "0x2a090babbad6541eea69750016f61878580201790a5eb838805747c536420397",
      "s": "0x78da41dcc8cd7e2ee083f4a96da02757205d936159f35c1801d0a8003df7eeb1",
      "v": 28,
      "creates": null,
      "raw": "0xf86e821317850d4efeb76c8255f094adca16b4654a92cb67666c0cf61976ceee81ceeb886b4e2db766dec970801ca02a090babbad6541eea69750016f61878580201790a5eb838805747c536420397a078da41dcc8cd7e2ee083f4a96da02757205d936159f35c1801d0a8003df7eeb1",
      "networkId": 0,
      "chainId": 0
    },
    {
      "hash": "0xe82fe6fb25da1291d022d49ca630f4d6efd860254a43d98ba83b46635d362199",
      "blockHash": "0x2047a4369a4e2f7886d36450e16fa73b032f644f0a3d549a1d6d66f4fe945ccb",
      "blockNumber": 112691,
      "transactionIndex": 15,
      "confirmations": null,
      "from": "0xe6A7a1d47ff21B6321162AEA7C6CB457D5476Bca",
      "gasPrice": {
        "_hex": "0xd4efeb76c"
      },
      "gasLimit": {
        "_hex": "0x55f0"
      },
      "to": "0x378fCAEF49580b550cB7164f14811a5E613BD683",
      "value": {
        "_hex": "0x6bd5c73b311d0838"
      },
      "nonce": 4888,
      "data": "0x",
      "r": "0x7ade73cdbf7abe82511640a0a46e0951c4188117bd39b8b33fb9bba2386c98ab",
      "s": "0x1d720eb8b935805a047cc4a22c4982d38f9b28710470b728e6b5728f327b16bd",
      "v": 27,
      "creates": null,
      "raw": "0xf86e821318850d4efeb76c8255f094378fcaef49580b550cb7164f14811a5e613bd683886bd5c73b311d0838801ba07ade73cdbf7abe82511640a0a46e0951c4188117bd39b8b33fb9bba2386c98aba01d720eb8b935805a047cc4a22c4982d38f9b28710470b728e6b5728f327b16bd",
      "networkId": 0,
      "chainId": 0
    },
    {
      "hash": "0x7d686fa87d640e8a102d4e0796c7de1c7951672bfdfd8cd9964260e5f513460e",
      "blockHash": "0x2047a4369a4e2f7886d36450e16fa73b032f644f0a3d549a1d6d66f4fe945ccb",
      "blockNumber": 112691,
      "transactionIndex": 16,
      "confirmations": null,
      "from": "0xe6A7a1d47ff21B6321162AEA7C6CB457D5476Bca",
      "gasPrice": {
        "_hex": "0xd4efeb76c"
      },
      "gasLimit": {
        "_hex": "0x55f0"
      },
      "to": "0xB6AC12CefF0375Da80503AcCa54bf3061Fa917a8",
      "value": {
        "_hex": "0x6fbf015021c4e338"
      },
      "nonce": 4889,
      "data": "0x",
      "r": "0x11ca20cd46a591076f09bde1c5a34606569143f595868b77e9f5f78be7dd166b",
      "s": "0x17e6548ba777505826d09d69440579735b3c321e7a4e6d22268e3906a793c719",
      "v": 27,
      "creates": null,
      "raw": "0xf86e821319850d4efeb76c8255f094b6ac12ceff0375da80503acca54bf3061fa917a8886fbf015021c4e338801ba011ca20cd46a591076f09bde1c5a34606569143f595868b77e9f5f78be7dd166ba017e6548ba777505826d09d69440579735b3c321e7a4e6d22268e3906a793c719",
      "networkId": 0,
      "chainId": 0
    },
    {
      "hash": "0x70644cc278fadfe713017d26d33185682db76ded58cb9429d50689e749bf3db1",
      "blockHash": "0x2047a4369a4e2f7886d36450e16fa73b032f644f0a3d549a1d6d66f4fe945ccb",
      "blockNumber": 112691,
      "transactionIndex": 17,
      "confirmations": null,
      "from": "0xe6A7a1d47ff21B6321162AEA7C6CB457D5476Bca",
      "gasPrice": {
        "_hex": "0xd4efeb76c"
      },
      "gasLimit": {
        "_hex": "0x55f0"
      },
      "to": "0xFc8bc4ed86dF73001ce6082F3dB914d7c7A9a6cC",
      "value": {
        "_hex": "0x700c5226f43d5218"
      },
      "nonce": 4890,
      "data": "0x",
      "r": "0x1006bf0bf6882ff48e1bd28126a777bce96d3b62070f3ce8f15c54ec4d58d38e",
      "s": "0x7b0b4432dbb2c907e23f130e77d2cf69d42fd10413e86aa0b85ed213666a886f",
      "v": 28,
      "creates": null,
      "raw": "0xf86e82131a850d4efeb76c8255f094fc8bc4ed86df73001ce6082f3db914d7c7a9a6cc88700c5226f43d5218801ca01006bf0bf6882ff48e1bd28126a777bce96d3b62070f3ce8f15c54ec4d58d38ea07b0b4432dbb2c907e23f130e77d2cf69d42fd10413e86aa0b85ed213666a886f",
      "networkId": 0,
      "chainId": 0
    },
    {
      "hash": "0x4d9b44ed699688186fa4f5ad73a122df65a4c96d9cd4c8bdef8bcc57c700acb0",
      "blockHash": "0x2047a4369a4e2f7886d36450e16fa73b032f644f0a3d549a1d6d66f4fe945ccb",
      "blockNumber": 112691,
      "transactionIndex": 18,
      "confirmations": null,
      "from": "0xe6A7a1d47ff21B6321162AEA7C6CB457D5476Bca",
      "gasPrice": {
        "_hex": "0xd4efeb76c"
      },
      "gasLimit": {
        "_hex": "0x55f0"
      },
      "to": "0xeF0a7407D5b9AF9fA9f38f67aBB66d20686afb55",
      "value": {
        "_hex": "0x7032366a5059e2f8"
      },
      "nonce": 4891,
      "data": "0x",
      "r": "0x69cfacec9cf08cbd4d9d2f3083a7cdb791a5cc413a1bcec6f7cc52476138241d",
      "s": "0x342222ace80d72ec861285c307dd35c0f4141a7c48879a7744170ce2409ddfd6",
      "v": 28,
      "creates": null,
      "raw": "0xf86e82131b850d4efeb76c8255f094ef0a7407d5b9af9fa9f38f67abb66d20686afb55887032366a5059e2f8801ca069cfacec9cf08cbd4d9d2f3083a7cdb791a5cc413a1bcec6f7cc52476138241da0342222ace80d72ec861285c307dd35c0f4141a7c48879a7744170ce2409ddfd6",
      "networkId": 0,
      "chainId": 0
    },
    {
      "hash": "0xd91c5fadac58dc762db44340fee72ca27862dc698d2c2c34a071e762fa0e17ce",
      "blockHash": "0x2047a4369a4e2f7886d36450e16fa73b032f644f0a3d549a1d6d66f4fe945ccb",
      "blockNumber": 112691,
      "transactionIndex": 19,
      "confirmations": null,
      "from": "0xe6A7a1d47ff21B6321162AEA7C6CB457D5476Bca",
      "gasPrice": {
        "_hex": "0xd4efeb76c"
      },
      "gasLimit": {
        "_hex": "0x55f0"
      },
      "to": "0x48659D8f8C9A2FD44F68daA55d23A608FBE500DC",
      "value": {
        "_hex": "0x71ab8d6f15167ec8"
      },
      "nonce": 4892,
      "data": "0x",
      "r": "0x05a28b1492cad6eff312c9903b7d55afb787abd68524e926a22a3ec082d1c89f",
      "s": "0x44945ec8effb8eb6dc02cea8ebeb5720f19a5be6bb2ec3037ed474cca4da40a6",
      "v": 28,
      "creates": null,
      "raw": "0xf86e82131c850d4efeb76c8255f09448659d8f8c9a2fd44f68daa55d23a608fbe500dc8871ab8d6f15167ec8801ca005a28b1492cad6eff312c9903b7d55afb787abd68524e926a22a3ec082d1c89fa044945ec8effb8eb6dc02cea8ebeb5720f19a5be6bb2ec3037ed474cca4da40a6",
      "networkId": 0,
      "chainId": 0
    },
    {
      "hash": "0x273a7472704913612acbc7a3d2d30c1b2c9afa911d1fee6ccf2cac7bfd7403b4",
      "blockHash": "0x2047a4369a4e2f7886d36450e16fa73b032f644f0a3d549a1d6d66f4fe945ccb",
      "blockNumber": 112691,
      "transactionIndex": 20,
      "confirmations": null,
      "from": "0xe6A7a1d47ff21B6321162AEA7C6CB457D5476Bca",
      "gasPrice": {
        "_hex": "0xd4efeb76c"
      },
      "gasLimit": {
        "_hex": "0x55f0"
      },
      "to": "0x7d444a287AcFf70a9D6357dc37FB07FC7aABDC4f",
      "value": {
        "_hex": "0x7269e02b48409860"
      },
      "nonce": 4893,
      "data": "0x",
      "r": "0xa6bd79dc59865feb000d4d2b5e3175a5a332e3db105dd83bdbae179caeef352e",
      "s": "0x4fe5f116d4246743f2707197f8e94b7b2c5061fdc444db6ebeb4cbc808432a71",
      "v": 28,
      "creates": null,
      "raw": "0xf86e82131d850d4efeb76c8255f0947d444a287acff70a9d6357dc37fb07fc7aabdc4f887269e02b48409860801ca0a6bd79dc59865feb000d4d2b5e3175a5a332e3db105dd83bdbae179caeef352ea04fe5f116d4246743f2707197f8e94b7b2c5061fdc444db6ebeb4cbc808432a71",
      "networkId": 0,
      "chainId": 0
    },
    {
      "hash": "0x78cb2d0e24edfac0912f1c1e8a66f39730559bb596e3bc31345955bbefedcf79",
      "blockHash": "0x2047a4369a4e2f7886d36450e16fa73b032f644f0a3d549a1d6d66f4fe945ccb",
      "blockNumber": 112691,
      "transactionIndex": 21,
      "confirmations": null,
      "from": "0xe6A7a1d47ff21B6321162AEA7C6CB457D5476Bca",
      "gasPrice": {
        "_hex": "0xd4efeb76c"
      },
      "gasLimit": {
        "_hex": "0x55f0"
      },
      "to": "0x76d4a9bc9612bE738A81d0fE632b00B971E2bB9a",
      "value": {
        "_hex": "0x73e5557b92d7d2e8"
      },
      "nonce": 4894,
      "data": "0x",
      "r": "0xbb221b7afd098cc0673bcccc5f81336ca8d69c788022f4cece76e24e9b2bab99",
      "s": "0x50d64de71e5eab87ea0b37cc4888ee6995ad2ac48e557bbf6286e620a1763a32",
      "v": 27,
      "creates": null,
      "raw": "0xf86e82131e850d4efeb76c8255f09476d4a9bc9612be738a81d0fe632b00b971e2bb9a8873e5557b92d7d2e8801ba0bb221b7afd098cc0673bcccc5f81336ca8d69c788022f4cece76e24e9b2bab99a050d64de71e5eab87ea0b37cc4888ee6995ad2ac48e557bbf6286e620a1763a32",
      "networkId": 0,
      "chainId": 0
    },
    {
      "hash": "0x891be5abc4ea053e612e67aa579875ebc5d3bd08dcb94e8db929686901344344",
      "blockHash": "0x2047a4369a4e2f7886d36450e16fa73b032f644f0a3d549a1d6d66f4fe945ccb",
      "blockNumber": 112691,
      "transactionIndex": 22,
      "confirmations": null,
      "from": "0xe6A7a1d47ff21B6321162AEA7C6CB457D5476Bca",
      "gasPrice": {
        "_hex": "0xd4efeb76c"
      },
      "gasLimit": {
        "_hex": "0x55f0"
      },
      "to": "0x9dc5018E753A410593259039296bBfd28E29f894",
      "value": {
        "_hex": "0x74ad4d73ccbbd640"
      },
      "nonce": 4895,
      "data": "0x",
      "r": "0x710bc13f48dde7aec8a8a656ee2aab2a752ad7b87d2d4d25c1972e326bbfe40c",
      "s": "0x656bae5f16c380356b7c37a95bfd62d92e083604f527e18f2071e7ebb0ca5a18",
      "v": 27,
      "creates": null,
      "raw": "0xf86e82131f850d4efeb76c8255f0949dc5018e753a410593259039296bbfd28e29f8948874ad4d73ccbbd640801ba0710bc13f48dde7aec8a8a656ee2aab2a752ad7b87d2d4d25c1972e326bbfe40ca0656bae5f16c380356b7c37a95bfd62d92e083604f527e18f2071e7ebb0ca5a18",
      "networkId": 0,
      "chainId": 0
    },
    {
      "hash": "0x3e49eee18166b602680c215e34f8274086579e9ef235f3181a7114c3a06dac55",
      "blockHash": "0x2047a4369a4e2f7886d36450e16fa73b032f644f0a3d549a1d6d66f4fe945ccb",
      "blockNumber": 112691,
      "transactionIndex": 23,
      "confirmations": null,
      "from": "0xe6A7a1d47ff21B6321162AEA7C6CB457D5476Bca",
      "gasPrice": {
        "_hex": "0xd4efeb76c"
      },
      "gasLimit": {
        "_hex": "0x55f0"
      },
      "to": "0x13258A1Aa418C990ce59616C26338A44899d854c",
      "value": {
        "_hex": "0x768c7aab0f3dfbe8"
      },
      "nonce": 4896,
      "data": "0x",
      "r": "0xa32330261c4ddf4dfe3e9da2639552b63ea2cf066e435569674f67e237969488",
      "s": "0x11706e8f283d0213e8fea8051c3db93aef650c30ef425cc7aba55c722ce1c64e",
      "v": 28,
      "creates": null,
      "raw": "0xf86e821320850d4efeb76c8255f09413258a1aa418c990ce59616c26338a44899d854c88768c7aab0f3dfbe8801ca0a32330261c4ddf4dfe3e9da2639552b63ea2cf066e435569674f67e237969488a011706e8f283d0213e8fea8051c3db93aef650c30ef425cc7aba55c722ce1c64e",
      "networkId": 0,
      "chainId": 0
    },
    {
      "hash": "0xdd05c2aa1f5b3537e6f0e3ced752107a1336724b238a5c2373496a335758395d",
      "blockHash": "0x2047a4369a4e2f7886d36450e16fa73b032f644f0a3d549a1d6d66f4fe945ccb",
      "blockNumber": 112691,
      "transactionIndex": 24,
      "confirmations": null,
      "from": "0xe6A7a1d47ff21B6321162AEA7C6CB457D5476Bca",
      "gasPrice": {
        "_hex": "0xd4efeb76c"
      },
      "gasLimit": {
        "_hex": "0x55f0"
      },
      "to": "0xD99b25c518320820D3C5ae9f47378DA32dED5f00",
      "value": {
        "_hex": "0x7b889b6e49d12b10"
      },
      "nonce": 4897,
      "data": "0x",
      "r": "0x1ae87053f8ec2b9394fdce6a6b27b4fcf53e0e3439fe24a10b1594cfb38acce1",
      "s": "0x39cc31b18ec829bec63ddf851ecdb9d53c338efbcf48d45d45f71c81da6eba37",
      "v": 28,
      "creates": null,
      "raw": "0xf86e821321850d4efeb76c8255f094d99b25c518320820d3c5ae9f47378da32ded5f00887b889b6e49d12b10801ca01ae87053f8ec2b9394fdce6a6b27b4fcf53e0e3439fe24a10b1594cfb38acce1a039cc31b18ec829bec63ddf851ecdb9d53c338efbcf48d45d45f71c81da6eba37",
      "networkId": 0,
      "chainId": 0
    },
    {
      "hash": "0x8b69449d486d01475959461f1d58e356e2a59b06651e3468032c3294d8bb81c7",
      "blockHash": "0x2047a4369a4e2f7886d36450e16fa73b032f644f0a3d549a1d6d66f4fe945ccb",
      "blockNumber": 112691,
      "transactionIndex": 25,
      "confirmations": null,
      "from": "0xe6A7a1d47ff21B6321162AEA7C6CB457D5476Bca",
      "gasPrice": {
        "_hex": "0xd4efeb76c"
      },
      "gasLimit": {
        "_hex": "0x55f0"
      },
      "to": "0xB17d2bFef3ED5F2EaA806Fe930878F6eBfD31CCf",
      "value": {
        "_hex": "0x7b8b7fd2e745c3b0"
      },
      "nonce": 4898,
      "data": "0x",
      "r": "0x954aafb4005cecb77779629832c10eeb11e7abe25853fcd206ca618b3a9565ad",
      "s": "0x11425e0aceba9bfbc7060b4260464c6c652067a0d293e9393e1d9e4bbf53e2e6",
      "v": 28,
      "creates": null,
      "raw": "0xf86e821322850d4efeb76c8255f094b17d2bfef3ed5f2eaa806fe930878f6ebfd31ccf887b8b7fd2e745c3b0801ca0954aafb4005cecb77779629832c10eeb11e7abe25853fcd206ca618b3a9565ada011425e0aceba9bfbc7060b4260464c6c652067a0d293e9393e1d9e4bbf53e2e6",
      "networkId": 0,
      "chainId": 0
    },
    {
      "hash": "0x69a2237ca1627ee1f75844018424c40ac55dc15f3fb508c337fc2a60876e075e",
      "blockHash": "0x2047a4369a4e2f7886d36450e16fa73b032f644f0a3d549a1d6d66f4fe945ccb",
      "blockNumber": 112691,
      "transactionIndex": 26,
      "confirmations": null,
      "from": "0xD042e5C2443591c48f1FBa5F6bAf8E7193f454B9",
      "gasPrice": {
        "_hex": "0xd379ca47a"
      },
      "gasLimit": {
        "_hex": "0x5208"
      },
      "to": "0x32Be343B94f860124dC4fEe278FDCBD38C102D88",
      "value": {
        "_hex": "0x12fc04de62c33800"
      },
      "nonce": 10,
      "data": "0x",
      "r": "0xa726c9da811090df7df581a19f0f60167f0345c0e4c0b5b12b72ecb1b5c24169",
      "s": "0x1f1becc29399f2c5882fd21bce7fd9cd628496a7e55194bb663f1da16e2e882b",
      "v": 28,
      "creates": null,
      "raw": "0xf86c0a850d379ca47a8252089432be343b94f860124dc4fee278fdcbd38c102d888812fc04de62c33800801ca0a726c9da811090df7df581a19f0f60167f0345c0e4c0b5b12b72ecb1b5c24169a01f1becc29399f2c5882fd21bce7fd9cd628496a7e55194bb663f1da16e2e882b",
      "networkId": 0,
      "chainId": 0
    },
    {
      "hash": "0xc5529b4ee436290402c3ec6c506084a4270077a15c8598188b82917553094788",
      "blockHash": "0x2047a4369a4e2f7886d36450e16fa73b032f644f0a3d549a1d6d66f4fe945ccb",
      "blockNumber": 112691,
      "transactionIndex": 27,
      "confirmations": null,
      "from": "0x2435CaC661de90FF84BF79A55629C5bc30B40a0d",
      "gasPrice": {
        "_hex": "0xcd714ba6e"
      },
      "gasLimit": {
        "_hex": "0x5208"
      },
      "to": "0xFBb1b73C4f0BDa4f67dcA266ce6Ef42f520fBB98",
      "value": {
        "_hex": "0x2d704f61cdef9090"
      },
      "nonce": 3,
      "data": "0x",
      "r": "0x96c2e7bfd49541e26244c31b2578373a98fd1e16d0b7053fc8a591b5392faa62",
      "s": "0x5552a5bdf86bafe5f8f0364793abe43e39ccaef3c8a13707aa6d1e831afea39a",
      "v": 28,
      "creates": null,
      "raw": "0xf86c03850cd714ba6e82520894fbb1b73c4f0bda4f67dca266ce6ef42f520fbb98882d704f61cdef9090801ca096c2e7bfd49541e26244c31b2578373a98fd1e16d0b7053fc8a591b5392faa62a05552a5bdf86bafe5f8f0364793abe43e39ccaef3c8a13707aa6d1e831afea39a",
      "networkId": 0,
      "chainId": 0
    }
  ]
}