{
  "hash": "0x3b872f38b3c2f30fce1174ede8102c0783d39bae6b30f90f9e71f2ffed4e6eb4",
  "parentHash": "0x07271e9b31444546ddf439b3acf90a355f00626ef7c3f94da611e7e4f7c7c75e",
  "number": 120757,
  "timestamp": 1440165235,
  "nonce": "0x5230628ab49445cb",
  "difficulty": 4456403077184,
  "gasLimit": {
    "_hex": "0x2fefd8"
  },
  "gasUsed": {
    "_hex": "0x5208"
  },
  "miner": "0x52bc44d5378309EE2abF1539BF71dE1b7d7bE3b5",
  "extraData": "0xd783010002844765746887676f312e342e32856c696e7578",
  "transactions": [
    {
      "hash": "0x61a22a0b46351a0bb9cd584249d125b780ed033ce90a6f3d59a35570eef1542a",
      "blockHash": "0x3b872f38b3c2f30fce1174ede8102c0783d39bae6b30f90f9e71f2ffed4e6eb4",
      "blockNumber": 120757,
      "transactionIndex": 0,
      "confirmations": null,
      "from": "0x32Be343B94f860124dC4fEe278FDCBD38C102D88",
      "gasPrice": {
        "_hex": "0xba43b7400"
      },
      "gasLimit": {
        "_hex": "0x5208"
      },
      "to": "0xa58CC5cd2f161E5f75c950FC534851141da85717",
      "value": {
        "_hex": "0x2c703c69c2ed8000"
      },
      "nonce": 1536,
      "data": "0x",
      "r": "0xf4a7d564e0b9e10fad484cf8c097244360c196c4ba3a2d69d1e1ed0435aebf87",
      "s": "0x0c6c2472b7a3d8ba7bca52554c59ef308ed2cd1b3f1fc03c20c16fc7c042c77f",
      "v": 27,
      "creates": null,
      "raw": "0xf86e820600850ba43b740082520894a58cc5cd2f161e5f75c950fc534851141da85717882c703c69c2ed8000801ba0f4a7d564e0b9e10fad484cf8c097244360c196c4ba3a2d69d1e1ed0435aebf87a00c6c2472b7a3d8ba7bca52554c59ef308ed2cd1b3f1fc03c20c16fc7c042c77f",
      "networkId": 0,
      "chainId": 0
    }
  ]
}