{
  "hash": "0x092cbaeae7bcf765a96f88fb304a2d5ebda232f5ec6ddb85acf489fc85e08af2",
  "parentHash": "0x6f3ba60caf5b972d83695407de882f5e9accde074c1ffe69d046730d36380d59",
  "number": 98857,
  "timestamp": 1439780040,
  "nonce": "0x94cfd94acdb89dd7",
  "difficulty": 3866777133336,
  "gasLimit": {
    "_hex": "0x2fefd8"
  },
  "gasUsed": {
    "_hex": "0xa410"
  },
  "miner": "0xDdf735543837695220A5fF5920f5756696840A5D",
  "extraData": "0x476574682f76312e302e312f6c696e75782f676f312e342e32",
  "transactions": [
    {
      "hash": "0x4ff1c76e46c13513404ab65ab2a5f0b574de353e4c645655cdb849e9da6e7496",
      "blockHash": "0x092cbaeae7bcf765a96f88fb304a2d5ebda232f5ec6ddb85acf489fc85e08af2",
      "blockNumber": 98857,
      "transactionIndex": 0,
      "confirmations": null,
      "from": "0x6d921977dEFE5f4e0682CA512De1D07b1f4802E1",
      "gasPrice": {
        "_hex": "0xdea2371b7"
      },
      "gasLimit": {
        "_hex": "0x5208"
      },
      "to": "0x32Be343B94f860124dC4fEe278FDCBD38C102D88",
      "value": {
        "_hex": "0xd030e7939fe64800"
      },
      "nonce": 23,
      "data": "0x",
      "r": "0x5b34f1eb3467aef191db0ce0cfee0f53feee3fe3eaf293e32b20cdac4d603e09",
      "s": "0x6edbca09a389756c813fd85461b9068ed289d9f376a4d2acf16645fde4d5da98",
      "v": 27,
      "creates": null,
      "raw": "0xf86c17850dea2371b78252089432be343b94f860124dc4fee278fdcbd38c102d8888d030e7939fe64800801ba05b34f1eb3467aef191db0ce0cfee0f53feee3fe3eaf293e32b20cdac4d603e09a06edbca09a389756c813fd85461b9068ed289d9f376a4d2acf16645fde4d5da98",
      "networkId": 0,
      "chainId": 0
    },
    {
      "hash": "0x330c8c960a2ed91f53a83488319fb9228cb9403df4a466f0157aca097b192740",
      "blockHash": "0x092cbaeae7bcf765a96f88fb304a2d5ebda232f5ec6ddb85acf489fc85e08af2",
      "blockNumber": 98857,
      "transactionIndex": 1,
      "confirmations": null,
      "from": "0x790b8a3cE86E707ED0eD32bF89B3269692a23CC1",
      "gasPrice": {
        "_hex": "0xdc51705a1"
      },
      "gasLimit": {
        "_hex": "0x15f90"
      },
      "to": "0x4D67f4F0Db45b3B5a3424B39ed8d972F710381D5",
      "value": {
        "_hex": "0x33f478ca2dde60000"
      },
      "nonce": 20,
      "data": "0x",
      "r": "0x3fab9b2b320ac6d6ffee9b884ee3572a4494695724e5be4cc444fdcd85425840",
      "s": "0x12a8ec9992d1fb1da31b3c1c30911926ecd128e7a8796337016483d5aae24820",
      "v": 28,
      "creates": null,
      "raw": "0xf86e14850dc51705a183015f90944d67f4f0db45b3b5a3424b39ed8d972f710381d589033f478ca2dde60000801ca03fab9b2b320ac6d6ffee9b884ee3572a4494695724e5be4cc444fdcd85425840a012a8ec9992d1fb1da31b3c1c30911926ecd128e7a8796337016483d5aae24820",
      "networkId": 0,
      "chainId": 0
    }
  ]
}