{
  "hash": "0xcfe8e5f8ce84f325d6ecf7ffea6af9275faad06d47ed6b5d0ee6510f49e36624",
  "parentHash": "0xd521f9ed1950ae1b7a35c0f950c961b426622a6d35578a5f8bb079638cf4f485",
  "number": 52829,
  "timestamp": 1439027907,
  "nonce": "0x67157a0379c99ac7",
  "difficulty": 1570915031502,
  "gasLimit": {
    "_hex": "0x1a73a1"
  },
  "gasUsed": {
    "_hex": "0x546c"
  },
  "miner": "0xbcB2E3693d246E1fc00348754334BadEb88b2a11",
  "extraData": "0x476574682f76312e302e302f6c696e75782f676f312e342e32",
  "transactions": [
    {
      "hash": "0x97fe5920216f687d5cb0179ce44e6440f13c94e5a11d06f594e52063cb1603a4",
      "blockHash": "0xcfe8e5f8ce84f325d6ecf7ffea6af9275faad06d47ed6b5d0ee6510f49e36624",
      "blockNumber": 52829,
      "transactionIndex": 0,
      "confirmations": null,
      "from": "0x7D980f4B566bb045517e4c14c87750de9346744b",
      "gasPrice": {
        "_hex": "0x110c8f7d8de"
      },
      "gasLimit": {
        "_hex": "0xc350"
      },
      "to": "0x2910543Af39abA0Cd09dBb2D50200b3E800A63D2",
      "value": {
        "_hex": "0x486cb9799191e00000"
      },
      "nonce": 0,
      "data": "0x454e44563441303252",
      "r": "0x9635f5c8e456e0b386e1c0d17548138d93ce0edc76dc9b3bdac0d4aee8dce340",
      "s": "0x6a65f472f76bffc68b4064dc1dab1d46f9fb17a842652353200005b8256cd18d",
      "v": 28,
      "creates": null,
      "raw": "0xf87780860110c8f7d8de82c350942910543af39aba0cd09dbb2d50200b3e800a63d289486cb9799191e0000089454e445634413032521ca09635f5c8e456e0b386e1c0d17548138d93ce0edc76dc9b3bdac0d4aee8dce340a06a65f472f76bffc68b4064dc1dab1d46f9fb17a842652353200005b8256cd18d",
      "networkId": 0,
      "chainId": 0
    }
  ]
}