{
  "hash": "0x7b6ce6abdc158b4a22c09cf1fafde8fc5d6f71923a0e44083d3a333eeba2ebf0",
  "parentHash": "0xb10f0a55e253796bf907f3af544ca0c3a4c0e7fba6662f4a92c14279d1cc340f",
  "number": 93993,
  "timestamp": 1439700873,
  "nonce": "0xa5ad9e563a71173f",
  "difficulty": 3478342513597,
  "gasLimit": {
    "_hex": "0x2fefd8"
  },
  "gasUsed": {
    "_hex": "0xf618"
  },
  "miner": "0xe6A7a1d47ff21B6321162AEA7C6CB457D5476Bca",
  "extraData": "0x476574682f76312e302e312d38326566323666362f6c696e75782f676f312e34",
  "transactions": [
    {
      "hash": "0x31e72684d1937473649d26a187dbed8f1b44105dd9c09cd70cf0a8f7e0cc0547",
      "blockHash": "0x7b6ce6abdc158b4a22c09cf1fafde8fc5d6f71923a0e44083d3a333eeba2ebf0",
      "blockNumber": 93993,
      "transactionIndex": 0,
      "confirmations": null,
      "from": "0xb1abce2918E21ddb93AA452731a12672A3d9F75a",
      "gasPrice": {
        "_hex": "0xe1090a58a"
      },
      "gasLimit": {
        "_hex": "0x5208"
      },
      "to": "0x32Be343B94f860124dC4fEe278FDCBD38C102D88",
      "value": {
        "_hex": "0x455f0fc2a0c6e000"
      },
      "nonce": 11,
      "data": "0x",
      "r": "0x041a02088871ceccc8bee76005105b5cd08d0e6ab89958136a0fd6b4c2f27b32",
      "s": "0x456f623169c00b4d41f9ad6d88d976ff77c32b803fe40de3183f35ea4e289b4e",
      "v": 28,
      "creates": null,
      "raw": "0xf86c0b850e1090a58a8252089432be343b94f860124dc4fee278fdcbd38c102d8888455f0fc2a0c6e000801ca0041a02088871ceccc8bee76005105b5cd08d0e6ab89958136a0fd6b4c2f27b32a0456f623169c00b4d41f9ad6d88d976ff77c32b803fe40de3183f35ea4e289b4e",
      "networkId": 0,
      "chainId": 0
    },
    {
      "hash": "0xa7436de5cdb8f915f70d3063a23dfe8501071573a7c5edb3d3f63c171814f998",
      "blockHash": "0x7b6ce6abdc158b4a22c09cf1fafde8fc5d6f71923a0e44083d3a333eeba2ebf0",
      "blockNumber": 93993,
      "transactionIndex": 1,
      "confirmations": null,
      "from": "0x87fd1C6dFA355a18911997a9BffA561272829453",
      "gasPrice": {
        "_hex": "0xe1090a58a"
      },
      "gasLimit": {
        "_hex": "0x5208"
      },
      "to": "0x32Be343B94f860124dC4fEe278FDCBD38C102D88",
      "value": {
        "_hex": "0xad20fc8a97e000"
      },
      "nonce": 0,
      "data": "0x",
      "r": "0x88d013125e91270de5d73008efef5909e8a79766d86754e91f004c4997562d84",
      "s": "0x5e4acccd3cdaf280e9994909e9a0b53f169bf74974958209f18969216fbba7f4",
      "v": 28,
      "creates": null,
      "raw": "0xf86b80850e1090a58a8252089432be343b94f860124dc4fee278fdcbd38c102d8887ad20fc8a97e000801ca088d013125e91270de5d73008efef5909e8a79766d86754e91f004c4997562d84a05e4acccd3cdaf280e9994909e9a0b53f169bf74974958209f18969216fbba7f4",
      "networkId": 0,
      "chainId": 0
    },
    {
      "hash": "0x242b34874b722031b6374bc3277ed814476a44ab78e681c068d1b2850d495d43",
      "blockHash": "0x7b6ce6abdc158b4a22c09cf1fafde8fc5d6f71923a0e44083d3a333eeba2ebf0",
      "blockNumber": 93993,
      "transactionIndex": 2,
      "confirmations": null,
      "from": "0x886e83d9133F65B9c27A946f699E88e71A888E4C",
      "gasPrice": {
        "_hex": "0xd43ec219a"
      },
      "gasLimit": {
        "_hex": "0x15f90"
      },
      "to": "0xCbbdAd70d0ff27254925AD37B5C135EEe1116615",
      "value": {
        "_hex": "0xa36cc19bab0000"
      },
      "nonce": 7,
      "data": "0x",
      "r": "0x64a5ae6068da56d25f55a82508eb339697a431b3ba02035dcfed76b26a7ff140",
      "s": "0x04082a031ecf4ff2b800990aee14b73d8dc84db299831df71293e1eb5220dd44",
      "v": 27,
      "creates": null,
      "raw": "0xf86c07850d43ec219a83015f9094cbbdad70d0ff27254925ad37b5c135eee111661587a36cc19bab0000801ba064a5ae6068da56d25f55a82508eb339697a431b3ba02035dcfed76b26a7ff140a004082a031ecf4ff2b800990aee14b73d8dc84db299831df71293e1eb5220dd44",
      "networkId": 0,
      "chainId": 0
    }
  ]
}