{
  "hash": "0xf48691691625a35afd9840f8594cb912c8db5c4439cfd491774760e6cff3c098",
  "parentHash": "0xc80056d0788f525a1702677c65fff726d362b5ac04c61c0f6061c7022644733d",
  "number": 115528,
  "timestamp": 1440058641,
  "nonce": "0x9adf6406e24a388e",
  "difficulty": 4607475750508,
  "gasLimit": {
    "_hex": "0x2fefd8"
  },
  "gasUsed": {
    "_hex": "0x5208"
  },
  "miner": "0x8C7bAEA34346a2E47026485BCD8f323012dEA6aA",
  "extraData": "0x476574682f76312e302e312f77696e646f77732f676f312e342e32",
  "transactions": [
    {
      "hash": "0xb371721438667d59fe6e3b119a1acc77009c06293da328ea46ae498450995528",
      "blockHash": "0xf48691691625a35afd9840f8594cb912c8db5c4439cfd491774760e6cff3c098",
      "blockNumber": 115528,
      "transactionIndex": 0,
      "confirmations": null,
      "from": "0x0a856CdC3EaFBAD120c51220d0F71d4Aa2Dee7AE",
      "gasPrice": {
        "_hex": "0xd0339a656"
      },
      "gasLimit": {
        "_hex": "0x15f90"
      },
      "to": "0x4FCD326ae0739D0DA0fC71020adb6aBf9abf3BdA",
      "value": {
        "_hex": "0x161042779f1ffc0000"
      },
      "nonce": 1,
      "data": "0x",
      "r": "0xbc4949ef7d1617767b2e1d187bb4c54dc4cd14383d2e38c42ff9cef219f701b2",
      "s": "0x6c5eb5592d320ce851b43ce2bef13a0149366ae7067428cdf13742caa39e8f23",
      "v": 28,
      "creates": null,
      "raw": "0xf86e01850d0339a65683015f90944fcd326ae0739d0da0fc71020adb6abf9abf3bda89161042779f1ffc0000801ca0bc4949ef7d1617767b2e1d187bb4c54dc4cd14383d2e38c42ff9cef219f701b2a06c5eb5592d320ce851b43ce2bef13a0149366ae7067428cdf13742caa39e8f23",
      "networkId": 0,
      "chainId": 0
    }
  ]
}