{
  "hash": "0xcb992b3609de1f2553d9a5c635c4fed13ae663b9cd06a05c240609ecd2ee8f3a",
  "parentHash": "0x35e343e1f117bc7c973a23d2a37f57d7b0ca3cff3bc4df50a60bc89b1f929280",
  "number": 100032,
  "timestamp": 1439799601,
  "nonce": "0xf57fa121ea5674db",
  "difficulty": 3860576262784,
  "gasLimit": {
    "_hex": "0x2fefd8"
  },
  "gasUsed": {
    "_hex": "0xa410"
  },
  "miner": "0xe6A7a1d47ff21B6321162AEA7C6CB457D5476Bca",
  "extraData": "0x476574682f76312e302e312d38326566323666362f6c696e75782f676f312e34",
  "transactions": [
    {
      "hash": "0x0e873119f35eef2b392f8328c57483fd525917369f93f7900d02264eff75c93f",
      "blockHash": "0xcb992b3609de1f2553d9a5c635c4fed13ae663b9cd06a05c240609ecd2ee8f3a",
      "blockNumber": 100032,
      "transactionIndex": 0,
      "confirmations": null,
      "from": "0xbb30e448B72d6Fdd44973A4C7a312F92f22C8F07",
      "gasPrice": {
        "_hex": "0xdf48a314c"
      },
      "gasLimit": {
        "_hex": "0x5208"
      },
      "to": "0x32Be343B94f860124dC4fEe278FDCBD38C102D88",
      "value": {
        "_hex": "0x6e55ced4ab9c1400"
      },
      "nonce": 11,
      "data": "0x",
      "r": "0xabab9c3a9878d0af8009d193eb548977defac516ce5277024e38e3194c6523ca",
      "s": "0x0331528e8401eaaff05266819d9ce51de4d5f2d3d84cc0fc012c5d7991d07842",
      "v": 27,
      "creates": null,
      "raw": "0xf86c0b850df48a314c8252089432be343b94f860124dc4fee278fdcbd38c102d88886e55ced4ab9c1400801ba0abab9c3a9878d0af8009d193eb548977defac516ce5277024e38e3194c6523caa00331528e8401eaaff05266819d9ce51de4d5f2d3d84cc0fc012c5d7991d07842",
      "networkId": 0,
      "chainId": 0
    },
    {
      "hash": "0xd0745749122b976ca718ae23a3db0d686269504fbc92b6c1fd5b03e19fad9605",
      "blockHash": "0xcb992b3609de1f2553d9a5c635c4fed13ae663b9cd06a05c240609ecd2ee8f3a",
      "blockNumber": 100032,
      "transactionIndex": 1,
      "confirmations": null,
      "from": "0xaA35779Ef4dfBEd0B3D6F46F5f11cb86261B17A5",
      "gasPrice": {
        "_hex": "0xd7d40ace3"
      },
      "gasLimit": {
        "_hex": "0x61a8"
      },
      "to": "0x30beD8049947963394D93412326225E4e3123601",
      "value": {
        "_hex": "0x12a5f58168ee60000"
      },
      "nonce": 11,
      "data": "0x",
      "r": "0x6ce1b2a656c6628868f180b9bac7dcb1c684b15334acacbdb62711fa95f48e21",
      "s": "0x3a89a71e4631453c920c5a0810cd57ae1e8ee0967f37c56a6cda310b421316ac",
      "v": 28,
      "creates": null,
      "raw": "0xf86d0b850d7d40ace38261a89430bed8049947963394d93412326225e4e312360189012a5f58168ee60000801ca06ce1b2a656c6628868f180b9bac7dcb1c684b15334acacbdb62711fa95f48e21a03a89a71e4631453c920c5a0810cd57ae1e8ee0967f37c56a6cda310b421316ac",
      "networkId": 0,
      "chainId": 0
    }
  ]
}