{
  "hash": "0x7a09f0baed335264513eb29b679ea652994496494409c11ca0ad9d1b7007677d",
  "parentHash": "0x3ed60de5cd6de44f670ccfca9c0acf847315a97ffd3aa9ae38d8cd9ba220c989",
  "number": 110297,
  "timestamp": 1439971381,
  "nonce": "0x3007ac731bab5c31",
  "difficulty": 4358602084670,
  "gasLimit": {
    "_hex": "0x2fefd8"
  },
  "gasUsed": {
    "_hex": "0x5208"
  },
  "miner": "0x007f7f58D3eb5b7510A301eCC749FC1fCDDBE14D",
  "extraData": "0x476574682f76312e302e312f77696e646f77732f676f312e342e32",
  "transactions": [
    {
      "hash": "0x616d5beedccdbadb6c5581e15fc1d6266807b8300b4af5b06aa38edbf4b69643",
      "blockHash": "0x7a09f0baed335264513eb29b679ea652994496494409c11ca0ad9d1b7007677d",
      "blockNumber": 110297,
      "transactionIndex": 0,
      "confirmations": null,
      "from": "0xC1aF7cD316C1A99d40Dd7208172fD88dD0280a4d",
      "gasPrice": {
        "_hex": "0xcd6b74ad3"
      },
      "gasLimit": {
        "_hex": "0x5208"
      },
      "to": "0xFBb1b73C4f0BDa4f67dcA266ce6Ef42f520fBB98",
      "value": {
        "_hex": "0x81c15c84119808368"
      },
      "nonce": 0,
      "data": "0x",
      "r": "0x32d73a2c33efb5f77cde2c6ed07d8793b4fb52bd585179767fcfd4076a72f163",
      "s": "0x326f929f29a73ffd9b9ac426fdfdb408e675607c55de2258c2b0a03acc0ddbda",
      "v": 28,
      "creates": null,
      "raw": "0xf86d80850cd6b74ad382520894fbb1b73c4f0bda4f67dca266ce6ef42f520fbb9889081c15c84119808368801ca032d73a2c33efb5f77cde2c6ed07d8793b4fb52bd585179767fcfd4076a72f163a0326f929f29a73ffd9b9ac426fdfdb408e675607c55de2258c2b0a03acc0ddbda",
      "networkId": 0,
      "chainId": 0
    }
  ]
}