{
  "hash": "0x1be40e875c398ad3d13766b4f52e8a19481a4302255d18dd1f977ec128daaaff",
  "parentHash": "0x42f72959576aef0aedd4d87bead6830d9175c916433e3a27368ff2dbbd0999e4",
  "number": 54419,
  "timestamp": 1439053959,
  "nonce": "0x66875de91ac1e06b",
  "difficulty": 1609434369269,
  "gasLimit": {
    "_hex": "0x2fe3db"
  },
  "gasUsed": {
    "_hex": "0xa674"
  },
  "miner": "0xbb7B8287f3F0a933474a79eAe42CBCa977791171",
  "extraData": "0x476574682f4c5649562f76312e302e312f6c696e75782f676f312e342e32",
  "transactions": [
    {
      "hash": "0x0a26debd7ecdf6fb4ca99c98fe213c1c3a30df0f0e9686087abffea22ded501a",
      "blockHash": "0x1be40e875c398ad3d13766b4f52e8a19481a4302255d18dd1f977ec128daaaff",
      "blockNumber": 54419,
      "transactionIndex": 0,
      "confirmations": null,
      "from": "0xCA092A957744f6385B1aee5dC694143E8A06F805",
      "gasPrice": {
        "_hex": "0xd6e089866"
      },
      "gasLimit": {
        "_hex": "0x15f90"
      },
      "to": "0xD389aC13552bd71e1FdF6238A264D9eE511B67Ea",
      "value": {
        "_hex": "0x2f4108f49eea400"
      },
      "nonce": 15,
      "data": "0x",
      "r": "0x1af6aadea7653e64aa2e086d5d323140ca916d5fea85fcba73ec0c1a9f3ff859",
      "s": "0x7766bff611786adb042e55657da0bd5b3bb280e5fc8ee3cc4bf789eaff20805e",
      "v": 27,
      "creates": null,
      "raw": "0xf86d0f850d6e08986683015f9094d389ac13552bd71e1fdf6238a264d9ee511b67ea8802f4108f49eea400801ba01af6aadea7653e64aa2e086d5d323140ca916d5fea85fcba73ec0c1a9f3ff859a07766bff611786adb042e55657da0bd5b3bb280e5fc8ee3cc4bf789eaff20805e",
      "networkId": 0,
      "chainId": 0
    },
    {
      "hash": "0x25c06c4ff9184c512ed6c18191307de7d8eb8af58eb4e0f0157e37475631be66",
      "blockHash": "0x1be40e875c398ad3d13766b4f52e8a19481a4302255d18dd1f977ec128daaaff",
      "blockNumber": 54419,
      "transactionIndex": 1,
      "confirmations": null,
      "from": "0x271e8fC01E1C9E1621fD3d108e348450b2498541",
      "gasPrice": {
        "_hex": "0xd3707621c"
      },
      "gasLimit": {
        "_hex": "0x15f90"
      },
      "to": "0x2910543Af39abA0Cd09dBb2D50200b3E800A63D2",
      "value": {
        "_hex": "0xd6696d2473c90000"
      },
      "nonce": 1,
      "data": "0x454e4b464445474752",
      "r": "0x8e79e355b1173b69fd89ca37c01d72c4b09b5522dddf1dd327b9216f4facbbbd",
      "s": "0x0025f3fc264bd35c878969516f2afea9522dbd2dc724452f72a5c8a8a346de16",
      "v": 27,
      "creates": null,
      "raw": "0xf87501850d3707621c83015f90942910543af39aba0cd09dbb2d50200b3e800a63d288d6696d2473c9000089454e4b4644454747521ba08e79e355b1173b69fd89ca37c01d72c4b09b5522dddf1dd327b9216f4facbbbd9f25f3fc264bd35c878969516f2afea9522dbd2dc724452f72a5c8a8a346de16",
      "networkId": 0,
      "chainId": 0
    }
  ]
}