{
  "hash": "0x98e9dafc5cae808ca302ceed374f5d0a3e739379dd74f423ccb190338963d184",
  "parentHash": "0x100b794d108220d6266092545973ee05b94d011f7124daa71feb759c6f3fb32b",
  "number": 106702,
  "timestamp": 1439909049,
  "nonce": "0xa814f621c75225c2",
  "difficulty": 4448644635306,
  "gasLimit": {
    "_hex": "0x2fefd8"
  },
  "gasUsed": {
    "_hex": "0xa410"
  },
  "miner": "0xe6A7a1d47ff21B6321162AEA7C6CB457D5476Bca",
  "extraData": "0x476574682f76312e302e312d38326566323666362f6c696e75782f676f312e34",
  "transactions": [
    {
      "hash": "0x1a4c8a2ac8d484477bee56472d66e48d3213fed31ab04c1932aadd902ea748b7",
      "blockHash": "0x98e9dafc5cae808ca302ceed374f5d0a3e739379dd74f423ccb190338963d184",
      "blockNumber": 106702,
      "transactionIndex": 0,
      "confirmations": null,
      "from": "0x056507108FE6d30189EcCD6cd7F4Fad56eEef622",
      "gasPrice": {
        "_hex": "0xce33cbf37"
      },
      "gasLimit": {
        "_hex": "0x15f90"
      },
      "to": "0x4207Ce62F4D50541Ca1b8c0a43d1AD3458c5f783",
      "value": {
        "_hex": "0x92f169896d7ad0cd"
      },
      "nonce": 14,
      "data": "0x",
      "r": "0xcd17d0281dad6ef2dd0c24c49cf6d1ea1a11392c2b69bc3ade4b91c43da534ee",
      "s": "0x1d574b486e886619e76b8d7feae57d3884ad6103c2a6462eb9003d89bb3a7d08",
      "v": 27,
      "creates": null,
      "raw": "0xf86d0e850ce33cbf3783015f90944207ce62f4d50541ca1b8c0a43d1ad3458c5f7838892f169896d7ad0cd801ba0cd17d0281dad6ef2dd0c24c49cf6d1ea1a11392c2b69bc3ade4b91c43da534eea01d574b486e886619e76b8d7feae57d3884ad6103c2a6462eb9003d89bb3a7d08",
      "networkId": 0,
      "chainId": 0
    },
    {
      "hash": "0x097a831b490269ba44d6e2ff719b08f3f990cb1952bce7d87e8e915cab23000b",
      "blockHash": "0x98e9dafc5cae808ca302ceed374f5d0a3e739379dd74f423ccb190338963d184",
      "blockNumber": 106702,
      "transactionIndex": 1,
      "confirmations": null,
      "from": "0x056507108FE6d30189EcCD6cd7F4Fad56eEef622",
      "gasPrice": {
        "_hex": "0xce33cbf37"
      },
      "gasLimit": {
        "_hex": "0x15f90"
      },
      "to": "0x0cA19A53a3256482A89770FC1daFC7630717F201",
      "value": {
        "_hex": "0x29c3c383b45f7f4f"
      },
      "nonce": 15,
      "data": "0x",
      "r": "0x526035902c5506761e5d8120e67a186de9f39719e75098b72a082fa65218f4d3",
      "s": "0x4c7d8d7bcbc49118a7225232073fe22006777ec7e13e3fd1a5f6d668f3a12704",
      "v": 28,
      "creates": null,
      "raw": "0xf86d0f850ce33cbf3783015f90940ca19a53a3256482a89770fc1dafc7630717f2018829c3c383b45f7f4f801ca0526035902c5506761e5d8120e67a186de9f39719e75098b72a082fa65218f4d3a04c7d8d7bcbc49118a7225232073fe22006777ec7e13e3fd1a5f6d668f3a12704",
      "networkId": 0,
      "chainId": 0
    }
  ]
}