{
  "hash": "0xd180c3cd2688d7cd1b1897cb16c35ae325f1a7357caa25d09dd3da4e4ecb0268",
  "parentHash": "0xf373020cca5d32b292fedc09b6709ce5889c6de4537d1e5aabb5a09285c43f39",
  "number": 57073,
  "timestamp": 1439097027,
  "nonce": "0x6cd5b2c70b923a3b",
  "difficulty": 1721075231612,
  "gasLimit": {
    "_hex": "0x2fefd8"
  },
  "gasUsed": {
    "_hex": "0x546c"
  },
  "miner": "0xf927a40C8B7F6E07c5af7FA2155B4864a4112B13",
  "extraData": "0x476574682f76312e302e302f6c696e75782f676f312e342e32",
  "transactions": [
    {
      "hash": "0xef6c1795bf08ae191df0307e8141e2714064cd97569448a29400d36c21ef24a7",
      "blockHash": "0xd180c3cd2688d7cd1b1897cb16c35ae325f1a7357caa25d09dd3da4e4ecb0268",
      "blockNumber": 57073,
      "transactionIndex": 0,
      "confirmations": null,
      "from": "0x24Fd9A6C874c2faB3Ff36e9AFBF8CE0d32c7DE92",
      "gasPrice": {
        "_hex": "0xd8364fc25"
      },
      "gasLimit": {
        "_hex": "0x15f90"
      },
      "to": "0x2910543Af39abA0Cd09dBb2D50200b3E800A63D2",
      "value": {
        "_hex": "0x470de4df820000"
      },
      "nonce": 0,
      "data": "0x454e505a3357575638",
      "r": "0x64596ce98ab7345ebf15135011cfec55644612d3bf9a2e7f91813fbdaa750717",
      "s": "0x14612b14ea8e030a6fde66e488747b359d0ca0e8ec44a81d2646e34ef1217a87",
      "v": 27,
      "creates": null,
      "raw": "0xf87580850d8364fc2583015f90942910543af39aba0cd09dbb2d50200b3e800a63d287470de4df82000089454e505a33575756381ba064596ce98ab7345ebf15135011cfec55644612d3bf9a2e7f91813fbdaa750717a014612b14ea8e030a6fde66e488747b359d0ca0e8ec44a81d2646e34ef1217a87",
      "networkId": 0,
      "chainId": 0
    }
  ]
}