{
  "hash": "0x445bc31710980a4c1527d8cf1ec405b243cc6ed41ddb9c3b6f0c04b6a67370d6",
  "parentHash": "0xb94da67084507546ad26edfe608fa23cda7c34a44337ca5a95ba427efecd2970",
  "number": 64559,
  "timestamp": 1439222715,
  "nonce": "0x1d622feb15d8370d",
  "difficulty": 1886701892186,
  "gasLimit": {
    "_hex": "0x2fefd8"
  },
  "gasUsed": {
    "_hex": "0x220e8"
  },
  "miner": "0xbb7B8287f3F0a933474a79eAe42CBCa977791171",
  "extraData": "0x476574682f4c5649562f76312e302e312f6c696e75782f676f312e342e32",
  "transactions": [
    {
      "hash": "0x476e260b13b76e2ba03371a6fa9283b30ab2f83880299e226a65acb8fe9660bc",
      "blockHash": "0x445bc31710980a4c1527d8cf1ec405b243cc6ed41ddb9c3b6f0c04b6a67370d6",
      "blockNumber": 64559,
      "transactionIndex": 0,
      "confirmations": null,
      "from": "0x8d46af0ACbC0aA47B9e8c22C928d949beE2f35FA",
      "gasPrice": {
        "_hex": "0xba43b7400"
      },
      "gasLimit": {
        "_hex": "0x5208"
      },
      "to": "0x6747f922385c9a6F9cfDf095F34345257DD597bE",
      "value": {
        "_hex": "0x1072bbac261c000"
      },
      "nonce": 1,
      "data": "0x",
      "r": "0x21253a623f786ca01aa98bd69fa8bd42eb0bab0d1c2013f426ded33b12980057",
      "s": "0x714bd5ab246cee27263c8613e7644f7abf14851e3cb3f77aa948570f97e4a69f",
      "v": 28,
      "creates": null,
      "raw": "0xf86c01850ba43b7400825208946747f922385c9a6f9cfdf095f34345257dd597be8801072bbac261c000801ca021253a623f786ca01aa98bd69fa8bd42eb0bab0d1c2013f426ded33b12980057a0714bd5ab246cee27263c8613e7644f7abf14851e3cb3f77aa948570f97e4a69f",
      "networkId": 0,
      "chainId": 0
    },
    {
      "hash": "0x70e8b08621fa71bba9ebd6038c23b3e1c97d7344db2d86b2d3396da3e4b3c282",
      "blockHash": "0x445bc31710980a4c1527d8cf1ec405b243cc6ed41ddb9c3b6f0c04b6a67370d6",
      "blockNumber": 64559,
      "transactionIndex": 1,
      "confirmations": null,
      "from": "0x348c84c8C06c62A53252cB1F7458E3d9d71AcD0E",
      "gasPrice": {
        "_hex": "0xba43b7400"
      },
      "gasLimit": {
        "_hex": "0x15f90"
      },
      "to": "0x793AE8C1b1a160BFc07BFB0d04F85eab1A71F4f2",
      "value": {
        "_hex": "0x0"
      },
      "nonce": 0,
      "data": "0x3ba15036",
      "r": "0x8719b8945625c724a840ca61bb5a58781827164bdef70b4d56f0bc07ad1ef7f7",
      "s": "0x078f19cbcdaa2866a82a7f99b2025fc7560d824969d88e01b0e5e0cdbbe841b8",
      "v": 27,
      "creates": null,
      "raw": "0xf86980850ba43b740083015f9094793ae8c1b1a160bfc07bfb0d04f85eab1a71f4f280843ba150361ba08719b8945625c724a840ca61bb5a58781827164bdef70b4d56f0bc07ad1ef7f7a0078f19cbcdaa2866a82a7f99b2025fc7560d824969d88e01b0e5e0cdbbe841b8",
      "networkId": 0,
      "chainId": 0
    },
    {
      "hash": "0xd1b11b1f0ae13e997ff8458e00d16b3089e702fb5afc1023747a2d216278e93b",
      "blockHash": "0x445bc31710980a4c1527d8cf1ec405b243cc6ed41ddb9c3b6f0c04b6a67370d6",
      "blockNumber": 64559,
      "transactionIndex": 2,
      "confirmations": null,
      "from": "0x26e3C8817Fd23B1197E298E2C371E5eB5209bb1a",
      "gasPrice": {
        "_hex": "0xba43b7400"
      },
      "gasLimit": {
        "_hex": "0x15f90"
      },
      "to": "0x793AE8C1b1a160BFc07BFB0d04F85eab1A71F4f2",
      "value": {
        "_hex": "0x0"
      },
      "nonce": 0,
      "data": "0x3ba15036",
      "r": "0x70f13a4c4237d8fc9da1884b8b498c05341ed3de75f2fd8ac9e611e8b23ac77b",
      "s": "0x1b4ffcbea2270160749857c2ad2e681b46b854adc1413f454e086bff7bc6123b",
      "v": 28,
      "creates": null,
      "raw": "0xf86980850ba43b740083015f9094793ae8c1b1a160bfc07bfb0d04f85eab1a71f4f280843ba150361ca070f13a4c4237d8fc9da1884b8b498c05341ed3de75f2fd8ac9e611e8b23ac77ba01b4ffcbea2270160749857c2ad2e681b46b854adc1413f454e086bff7bc6123b",
      "networkId": 0,
      "chainId": 0
    },
    {
      "hash": "0xd4151fa6f272446fa762cd7fe74515a28149fd836e4a7151fcddc63a91ca4f01",
      "blockHash": "0x445bc31710980a4c1527d8cf1ec405b243cc6ed41ddb9c3b6f0c04b6a67370d6",
      "blockNumber": 64559,
      "transactionIndex": 3,
      "confirmations": null,
      "from": "0x348c84c8C06c62A53252cB1F7458E3d9d71AcD0E",
      "gasPrice": {
        "_hex": "0xba43b7400"
      },
      "gasLimit": {
        "_hex": "0x5208"
      },
      "to": "0xEF6f9577EdDfE34DCBa0e339930799b391E1d66f",
      "value": {
        "_hex": "0xf0088de8d15000"
      },
      "nonce": 1,
      "data": "0x",
      "r": "0x6c90ecae8f320a56be8e73c43e0a08df10ad5e05ed6ecff46c5f5bf4e07aaf5d",
      "s": "0x57b9fa1dffe5b0d68885cf33b612364b4bb68ce1979bdea5fa5bf67199757d8e",
      "v": 28,
      "creates": null,
      "raw": "0xf86b01850ba43b740082520894ef6f9577eddfe34dcba0e339930799b391e1d66f87f0088de8d15000801ca06c90ecae8f320a56be8e73c43e0a08df10ad5e05ed6ecff46c5f5bf4e07aaf5da057b9fa1dffe5b0d68885cf33b612364b4bb68ce1979bdea5fa5bf67199757d8e",
      "networkId": 0,
      "chainId": 0
    }
  ]
}