{
  "hash": "0xf69aef4366b2bfc5e8922126b6a8ad7a982f0652f9d0355fcb5987a9e5be4995",
  "parentHash": "0x47db624407db5119851c183f77d1672af40993032b509f24ec077531ba16d14d",
  "number": 67409,
  "timestamp": 1439271659,
  "nonce": "0xd314178adaecad8c",
  "difficulty": 1919507521685,
  "gasLimit": {
    "_hex": "0x2fefd8"
  },
  "gasUsed": {
    "_hex": "0x5208"
  },
  "miner": "0xDFAEf2eeE901dde3f2f790b3D81c491D2EeEaeB4",
  "extraData": "0x476574682f76312e302e302f77696e646f77732f676f312e342e32",
  "transactions": [
    {
      "hash": "0xe37ff2cc132531d2e9864cd75a9f75d18057a9ee5ff870424d65290a9ff19d69",
      "blockHash": "0xf69aef4366b2bfc5e8922126b6a8ad7a982f0652f9d0355fcb5987a9e5be4995",
      "blockNumber": 67409,
      "transactionIndex": 0,
      "confirmations": null,
      "from": "0x501e496Ad1c7Fa8D0eED694450BA29b1ec0783bf",
      "gasPrice": {
        "_hex": "0xfff00a1232"
      },
      "gasLimit": {
        "_hex": "0x5208"
      },
      "to": "0xAD063CE182014Fa78C3932981fE402a6Af48235B",
      "value": {
        "_hex": "0x450e4da2d2580000"
      },
      "nonce": 0,
      "data": "0x",
      "r": "0x7379ce4c650becfad01e6648830095328b71c36390f0ea993d15bb211cdc8b5c",
      "s": "0x43056f87346a9202349cc7972902c306f4cee48391745d69e55b34ffa914fa3d",
      "v": 27,
      "creates": null,
      "raw": "0xf86c8085fff00a123282520894ad063ce182014fa78c3932981fe402a6af48235b88450e4da2d2580000801ba07379ce4c650becfad01e6648830095328b71c36390f0ea993d15bb211cdc8b5ca043056f87346a9202349cc7972902c306f4cee48391745d69e55b34ffa914fa3d",
      "networkId": 0,
      "chainId": 0
    }
  ]
}