{
  "hash": "0x091505238851348d7c5f52a76e43d9bf2469e2f4a210cee8d7f61f67f57bd905",
  "parentHash": "0x50410b824d581e8e3e5f9582cb8b039ef03deca144da2e6dc41379e1f630aa29",
  "number": 107114,
  "timestamp": 1439916198,
  "nonce": "0x57092ddecb407de8",
  "difficulty": 4470200097236,
  "gasLimit": {
    "_hex": "0x2fefd8"
  },
  "gasUsed": {
    "_hex": "0x546c"
  },
  "miner": "0x007f7f58D3eb5b7510A301eCC749FC1fCDDBE14D",
  "extraData": "0x476574682f76312e302e312f77696e646f77732f676f312e342e32",
  "transactions": [
    {
      "hash": "0x09d000326d9236cae39971812e7038d2486ef040d02f05cc119544c9a51ac543",
      "blockHash": "0x091505238851348d7c5f52a76e43d9bf2469e2f4a210cee8d7f61f67f57bd905",
      "blockNumber": 107114,
      "transactionIndex": 0,
      "confirmations": null,
      "from": "0xC21fa6643A1F14C02996aD7144b75926E87ECb4B",
      "gasPrice": {
        "_hex": "0xcfb5b272d"
      },
      "gasLimit": {
        "_hex": "0x55f0"
      },
      "to": "0x2910543Af39abA0Cd09dBb2D50200b3E800A63D2",
      "value": {
        "_hex": "0xde0b6b3a7640000"
      },
      "nonce": 6,
      "data": "0x454e43415255575738",
      "r": "0xa5717e386d88c44f2e8fb1d31dbd780637dac9eb69fcd83e7758461f96d77f0e",
      "s": "0x414617a4ce6ff7c25f3cd6b1b6e22cb27ce6bdec7701743006d4dfb0a8e52467",
      "v": 27,
      "creates": null,
      "raw": "0xf87506850cfb5b272d8255f0942910543af39aba0cd09dbb2d50200b3e800a63d2880de0b6b3a764000089454e434152555757381ba0a5717e386d88c44f2e8fb1d31dbd780637dac9eb69fcd83e7758461f96d77f0ea0414617a4ce6ff7c25f3cd6b1b6e22cb27ce6bdec7701743006d4dfb0a8e52467",
      "networkId": 0,
      "chainId": 0
    }
  ]
}