{
  "hash": "0x73d08f6500d3b9441881bb8ef674ffcb8c251c905a6cf24d7716de1807f129ee",
  "parentHash": "0x9ca9e9ec5432acaa8c3e2833dd9bf06747965b01068d9227d2f88a07621de037",
  "number": 84615,
  "timestamp": 1439552132,
  "nonce": "0x4b3dd21a3d37f17e",
  "difficulty": 2590304341195,
  "gasLimit": {
    "_hex": "0x2fefd8"
  },
  "gasUsed": {
    "_hex": "0x5208"
  },
  "miner": "0x580992B51e3925e23280EfB93d3047C82f17E038",
  "extraData": "0x476574682f76312e302e312f6c696e75782f676f312e342e32",
  "transactions": [
    {
      "hash": "0xbf4abfd5636c5d39d09fa8ce533e830b36693a759c29e6d31fb1975bfbcceafd",
      "blockHash": "0x73d08f6500d3b9441881bb8ef674ffcb8c251c905a6cf24d7716de1807f129ee",
      "blockNumber": 84615,
      "transactionIndex": 0,
      "confirmations": null,
      "from": "0x7B25Bb9cA8E702217e9333225250E53c36804D48",
      "gasPrice": {
        "_hex": "0xd18357dd2"
      },
      "gasLimit": {
        "_hex": "0x15f90"
      },
      "to": "0x4fA3954A093E9916a48C5960B4303d7832b21A9b",
      "value": {
        "_hex": "0x1b1ae4d6e2ef500000"
      },
      "nonce": 2,
      "data": "0x",
      "r": "0x02bd94effef04e2bfe81e8c24238ddbc3a035d74d77a6120be215ed83ff0f5c5",
      "s": "0x542953dfe9ec2a0b8522842f930f78d4d63f77cf3ba2550c71ae5f1ce1ff4229",
      "v": 28,
      "creates": null,
      "raw": "0xf86e02850d18357dd283015f90944fa3954a093e9916a48c5960b4303d7832b21a9b891b1ae4d6e2ef500000801ca002bd94effef04e2bfe81e8c24238ddbc3a035d74d77a6120be215ed83ff0f5c5a0542953dfe9ec2a0b8522842f930f78d4d63f77cf3ba2550c71ae5f1ce1ff4229",
      "networkId": 0,
      "chainId": 0
    }
  ]
}