{
  "hash": "0x51b0041682d0f0ffba09753fa35983736c2466cb63935913bb49a7b175296c86",
  "parentHash": "0x30c209de5337a3d1228c499ed62cd2707d96014703410c86cc882a7671ac4c48",
  "number": 89352,
  "timestamp": 1439622051,
  "nonce": "0xaccde83e96c7b263",
  "difficulty": 3306332622818,
  "gasLimit": {
    "_hex": "0x2fefd8"
  },
  "gasUsed": {
    "_hex": "0x5208"
  },
  "miner": "0xbb7B8287f3F0a933474a79eAe42CBCa977791171",
  "extraData": "0x476574682f4c5649562f76312e302e312f6c696e75782f676f312e342e32",
  "transactions": [
    {
      "hash": "0x30ab9d8a5efe13a81162b06ee47d35fc1804e0c79fb0cc64df25d49964d4edd0",
      "blockHash": "0x51b0041682d0f0ffba09753fa35983736c2466cb63935913bb49a7b175296c86",
      "blockNumber": 89352,
      "transactionIndex": 0,
      "confirmations": null,
      "from": "0xE300c4587D260cE22a677755Db6429B491A4309E",
      "gasPrice": {
        "_hex": "0xd2759cde8"
      },
      "gasLimit": {
        "_hex": "0x15f90"
      },
      "to": "0x06EC48800B2DB3eEfa052e98A9b5Fc2Bf783Ee74",
      "value": {
        "_hex": "0x4563918244f40000"
      },
      "nonce": 9,
      "data": "0x",
      "r": "0x5107020477427e18f41b08afefd2c54952f2ff54c2d2231f3494b2dfbd4918fe",
      "s": "0x2a89ab8446171b5bead376c9ce2ca1299b2225831736d15a0d09981f54d4d126",
      "v": 27,
      "creates": null,
      "raw": "0xf86d09850d2759cde883015f909406ec48800b2db3eefa052e98a9b5fc2bf783ee74884563918244f40000801ba05107020477427e18f41b08afefd2c54952f2ff54c2d2231f3494b2dfbd4918fea02a89ab8446171b5bead376c9ce2ca1299b2225831736d15a0d09981f54d4d126",
      "networkId": 0,
      "chainId": 0
    }
  ]
}