{
  "hash": "0x4a54d488792f3a0b0ccd9dcd24b8112b39c57a865c2735286d7387b938c92006",
  "parentHash": "0x863bc285e92ab374e46355592c6f499eec8e7a25a843b9eec6b0c4e824edf866",
  "number": 110761,
  "timestamp": 1439978957,
  "nonce": "0xeceecb7320f19d32",
  "difficulty": 4396835744548,
  "gasLimit": {
    "_hex": "0x2fefd8"
  },
  "gasUsed": {
    "_hex": "0x5208"
  },
  "miner": "0x52bc44d5378309EE2abF1539BF71dE1b7d7bE3b5",
  "extraData": "0x476574682f76312e302e312d63303261396266632f6c696e75782f676f312e34",
  "transactions": [
    {
      "hash": "0x66602b71bb7bb41d7ad1d6e8a7fd9d04225d0590c3e47920b873963254c91c43",
      "blockHash": "0x4a54d488792f3a0b0ccd9dcd24b8112b39c57a865c2735286d7387b938c92006",
      "blockNumber": 110761,
      "transactionIndex": 0,
      "confirmations": null,
      "from": "0x976349705b839e2F5719387Fb27D2519d519da03",
      "gasPrice": {
        "_hex": "0xd8f0067c4"
      },
      "gasLimit": {
        "_hex": "0x15f90"
      },
      "to": "0x0F5bc06dE4c9c7040FFCB151BC4d3494C5a5cbf3",
      "value": {
        "_hex": "0x16345785d8a0000"
      },
      "nonce": 28,
      "data": "0x",
      "r": "0x037d84dae49bcbcaaf39f8de0cbd7ae9982c4b9a03bad7bc950425106a0e960c",
      "s": "0x24a38b995657d56b35e8c3e901e7dd7c30dbee20557094b0720748ba883c380d",
      "v": 27,
      "creates": null,
      "raw": "0xf86d1c850d8f0067c483015f90940f5bc06de4c9c7040ffcb151bc4d3494c5a5cbf388016345785d8a0000801ba0037d84dae49bcbcaaf39f8de0cbd7ae9982c4b9a03bad7bc950425106a0e960ca024a38b995657d56b35e8c3e901e7dd7c30dbee20557094b0720748ba883c380d",
      "networkId": 0,
      "chainId": 0
    }
  ]
}