{
  "hash": "0x312c0e1bee27110d963121cbf01364934b8c7e13d05523f05e2a6e7bd6e2735e",
  "parentHash": "0x4a3e0f21a584f1a8e8889738fb053fb23ce79f17603d8617b89d7c8581d313ec",
  "number": 47034,
  "timestamp": 1438933436,
  "nonce": "0x5807716ab191a487",
  "difficulty": 1450317760375,
  "gasLimit": {
    "_hex": "0x91bb"
  },
  "gasUsed": {
    "_hex": "0x5208"
  },
  "miner": "0x909755D480A27911cB7EeeB5edB918fae50883c0",
  "extraData": "0x476574682f76312e302e312d39383130306634372f6c696e75782f676f312e34",
  "transactions": [
    {
      "hash": "0xcc3379fc22fdd42d189b39f4bef05c4b97e2959b4895b9287f0a1d0401ec4a23",
      "blockHash": "0x312c0e1bee27110d963121cbf01364934b8c7e13d05523f05e2a6e7bd6e2735e",
      "blockNumber": 47034,
      "transactionIndex": 0,
      "confirmations": null,
      "from": "0x8bae48F227d978d084B009b775222BAaF61ed9fe",
      "gasPrice": {
        "_hex": "0x746a528800"
      },
      "gasLimit": {
        "_hex": "0x5b04"
      },
      "to": "0xC94fddA93A6eFdE464f1ab126Ca7C38C7ba04a05",
      "value": {
        "_hex": "0xde0b6b3a7640000"
      },
      "nonce": 1,
      "data": "0x",
      "r": "0x26f568e06870dfc7f006bff514333e8ee210e8fa473490781ecbff575aaa30ca",
      "s": "0x397e0d0d92f061c24328788e6204db60a7ce23ab84e6e952c88faeb06b987f32",
      "v": 27,
      "creates": null,
      "raw": "0xf86c0185746a528800825b0494c94fdda93a6efde464f1ab126ca7c38c7ba04a05880de0b6b3a7640000801ba026f568e06870dfc7f006bff514333e8ee210e8fa473490781ecbff575aaa30caa0397e0d0d92f061c24328788e6204db60a7ce23ab84e6e952c88faeb06b987f32",
      "networkId": 0,
      "chainId": 0
    }
  ]
}