{
  "hash": "0xd208830d5d4d919ca49f1c54e84ff076039ee70cf25c2cf233a33de30c88a1b8",
  "parentHash": "0x120304904f35e3e6fbd831f14bccaa94385cebfb63150b86f2c8d5a63ce8128e",
  "number": 107136,
  "timestamp": 1439916700,
  "nonce": "0x0bb4114b4acf09c3",
  "difficulty": 4474555924610,
  "gasLimit": {
    "_hex": "0x2fefd8"
  },
  "gasUsed": {
    "_hex": "0x18326"
  },
  "miner": "0xe6A7a1d47ff21B6321162AEA7C6CB457D5476Bca",
  "extraData": "0x476574682f76312e302e312d38326566323666362f6c696e75782f676f312e34",
  "transactions": [
    {
      "hash": "0x343417557c14c6583fd24833377a8e3b4503d7b85d427552ac061ab3c6648202",
      "blockHash": "0xd208830d5d4d919ca49f1c54e84ff076039ee70cf25c2cf233a33de30c88a1b8",
      "blockNumber": 107136,
      "transactionIndex": 0,
      "confirmations": null,
      "from": "0xbCab99c9250A69cCD7395f2543ed52FF1e220398",
      "gasPrice": {
        "_hex": "0x116fee78e8f"
      },
      "gasLimit": {
        "_hex": "0x249f0"
      },
      "to": "0xE28e72FCf78647ADCe1F1252F240bbfaebD63BcC",
      "value": {
        "_hex": "0x4563918244f400000"
      },
      "nonce": 2,
      "data": "0x45466f3a",
      "r": "0xe3c8653da0288a1c04d88318f6d460c8a3ab2821baab09be0bf845e78353b751",
      "s": "0x40ca6790c2070fc24b1cf94a0d64899086634c2eaf88ae42493397c2fafe6edb",
      "v": 28,
      "creates": null,
      "raw": "0xf87302860116fee78e8f830249f094e28e72fcf78647adce1f1252f240bbfaebd63bcc8904563918244f4000008445466f3a1ca0e3c8653da0288a1c04d88318f6d460c8a3ab2821baab09be0bf845e78353b751a040ca6790c2070fc24b1cf94a0d64899086634c2eaf88ae42493397c2fafe6edb",
      "networkId": 0,
      "chainId": 0
    }
  ]
}