{
  "hash": "0xf13604cb49ad10bdedae975919970308609663fd730c8690fc4349a721b65059",
  "parentHash": "0x03c75941bd84102663653994c2ad38dd56d39fd602ffe6fec7bbaafae6c64ade",
  "number": 106005,
  "timestamp": 1439897112,
  "nonce": "0xa7f6683f6cf92f39",
  "difficulty": 4464246894036,
  "gasLimit": {
    "_hex": "0x2fefd5"
  },
  "gasUsed": {
    "_hex": "0x579e"
  },
  "miner": "0xe6A7a1d47ff21B6321162AEA7C6CB457D5476Bca",
  "extraData": "0x476574682f76312e302e312d38326566323666362f6c696e75782f676f312e34",
  "transactions": [
    {
      "hash": "0x4b41ee5fd26a8dfb2ae92e2cf4c56a957176ac5ea2cb659d6bb11f4171657118",
      "blockHash": "0xf13604cb49ad10bdedae975919970308609663fd730c8690fc4349a721b65059",
      "blockNumber": 106005,
      "transactionIndex": 0,
      "confirmations": null,
      "from": "0x87C5B5874A18B4306DF8a752a6C8cc3E82daFc19",
      "gasPrice": {
        "_hex": "0x109449ca909"
      },
      "gasLimit": {
        "_hex": "0x493e0"
      },
      "to": "0xD79B4C6791784184e2755B2fC1659eaaB0f80456",
      "value": {
        "_hex": "0x0"
      },
      "nonce": 326,
      "data": "0xbd66528a6b6b6b0000000000000000000000000000000000000000000000000000000000",
      "r": "0xc6a37bed537e7bf75dda63674089f69b23724621ce7e237a7b96386f0b18a025",
      "s": "0x26b4a831ebd110f05dfe97c46ca40e22e751403c6b381945a40e15982a242e71",
      "v": 27,
      "creates": null,
      "raw": "0xf88c820146860109449ca909830493e094d79b4c6791784184e2755b2fc1659eaab0f8045680a4bd66528a6b6b6b00000000000000000000000000000000000000000000000000000000001ba0c6a37bed537e7bf75dda63674089f69b23724621ce7e237a7b96386f0b18a025a026b4a831ebd110f05dfe97c46ca40e22e751403c6b381945a40e15982a242e71",
      "networkId": 0,
      "chainId": 0
    }
  ]
}