{
  "hash": "0x3dcea4d1d2de8300fa3ff3cda25d97b1c3a08df2d5de79b97cf98c16da16f3f8",
  "parentHash": "0x42abd9622e5f99efb7872f04fb53edd1901a6340d8d2aae861b802ea2cf95427",
  "number": 91773,
  "timestamp": 1439661303,
  "nonce": "0x01c231ef657ef659",
  "difficulty": 3482662537959,
  "gasLimit": {
    "_hex": "0x2fefd8"
  },
  "gasUsed": {
    "_hex": "0x5208"
  },
  "miner": "0x4947190fcC30D3fb3a16233b259bFe6b3492339a",
  "extraData": "0xd783010001844765746887676f312e342e32856c696e7578",
  "transactions": [
    {
      "hash": "0xef71b24bb307a426b8bbd82807cb9bf2b2322097a0686dd47fc57093efec44b9",
      "blockHash": "0x3dcea4d1d2de8300fa3ff3cda25d97b1c3a08df2d5de79b97cf98c16da16f3f8",
      "blockNumber": 91773,
      "transactionIndex": 0,
      "confirmations": null,
      "from": "0xf2cC0eEAAAeD313542CB262B0B8c3972425143f0",
      "gasPrice": {
        "_hex": "0xcb0f78880"
      },
      "gasLimit": {
        "_hex": "0x5208"
      },
      "to": "0x32Be343B94f860124dC4fEe278FDCBD38C102D88",
      "value": {
        "_hex": "0x453beffed3f90400"
      },
      "nonce": 7,
      "data": "0x",
      "r": "0xd814dcfb0b381204626c0baed7fea0113fcec5218fdca4408cff8f78c3feb50a",
      "s": "0x17d059f0f5f8d06259a014d4fd88dd44d5310c0e4b797b1b8aa65a6018506b5b",
      "v": 27,
      "creates": null,
      "raw": "0xf86c07850cb0f788808252089432be343b94f860124dc4fee278fdcbd38c102d8888453beffed3f90400801ba0d814dcfb0b381204626c0baed7fea0113fcec5218fdca4408cff8f78c3feb50aa017d059f0f5f8d06259a014d4fd88dd44d5310c0e4b797b1b8aa65a6018506b5b",
      "networkId": 0,
      "chainId": 0
    }
  ]
}