{
  "hash": "0x9f3848bb0b83dd8fc4a35ae1db9ba652896e39ae9242f422882544c2106b525b",
  "parentHash": "0x6cd04ab3e480b34fe8f08f32e21f7b9aef8311c51ed716d7eba238e3be936f0f",
  "number": 113931,
  "timestamp": 1440032185,
  "nonce": "0x21df297223df21bc",
  "difficulty": 4421003096363,
  "gasLimit": {
    "_hex": "0x2fefd8"
  },
  "gasUsed": {
    "_hex": "0x5208"
  },
  "miner": "0xe6A7a1d47ff21B6321162AEA7C6CB457D5476Bca",
  "extraData": "0x476574682f76312e302e312d38326566323666362f6c696e75782f676f312e34",
  "transactions": [
    {
      "hash": "0xc0515b2b7cf4a098ba7f5844318fc1c0055f03813e9d67342f75857fe8cb44c5",
      "blockHash": "0x9f3848bb0b83dd8fc4a35ae1db9ba652896e39ae9242f422882544c2106b525b",
      "blockNumber": 113931,
      "transactionIndex": 0,
      "confirmations": null,
      "from": "0xC99478b218E58F45783fA70f0507cf614938E67d",
      "gasPrice": {
        "_hex": "0xdec0d5ba1"
      },
      "gasLimit": {
        "_hex": "0x15f90"
      },
      "to": "0xC3fe64D1af00F0d9c324E4387EF7533f7D788e95",
      "value": {
        "_hex": "0xde0b6b3a7640000"
      },
      "nonce": 22,
      "data": "0x",
      "r": "0xa44a49b0e0cdad2bc123dbb0e17ef7c081f4cebd735bc66ee4356d9d5746ddc3",
      "s": "0x2d54d0602666671faeb4f50d4c82dca769ceff7447772024f99ab0b05c8e364d",
      "v": 28,
      "creates": null,
      "raw": "0xf86d16850dec0d5ba183015f9094c3fe64d1af00f0d9c324e4387ef7533f7d788e95880de0b6b3a7640000801ca0a44a49b0e0cdad2bc123dbb0e17ef7c081f4cebd735bc66ee4356d9d5746ddc3a02d54d0602666671faeb4f50d4c82dca769ceff7447772024f99ab0b05c8e364d",
      "networkId": 0,
      "chainId": 0
    }
  ]
}