{
  "hash": "0xa5d5ecc4d2d90679c66458f61e167c4de8cecdcf01d40c325a031210147b5d7d",
  "parentHash": "0x5b0798be72d84041ca61c30c98e3f76ebcf18ce640a78d226eb014f49529bdba",
  "number": 88463,
  "timestamp": 1439608355,
  "nonce": "0x286f9693a010aff7",
  "difficulty": 3231661375404,
  "gasLimit": {
    "_hex": "0x2fefd8"
  },
  "gasUsed": {
    "_hex": "0x5d9f"
  },
  "miner": "0xEF247E639d49461D25F57e9362CadE3120910Ce0",
  "extraData": "0x476574682f76312e302e312f6c696e75782f676f312e342e32",
  "transactions": [
    {
      "hash": "0xaa39b7610d4d64e9546d2fc575e60010224360ee450395c1c43579de83736f59",
      "blockHash": "0xa5d5ecc4d2d90679c66458f61e167c4de8cecdcf01d40c325a031210147b5d7d",
      "blockNumber": 88463,
      "transactionIndex": 0,
      "confirmations": null,
      "from": "0x58c444CC2658bB485F7985d5889b1d5857614F31",
      "gasPrice": {
        "_hex": "0xdb0fe541a"
      },
      "gasLimit": {
        "_hex": "0x15f90"
      },
      "to": "0xAd8d3a5d2d92EB14bB56CA9f380be35b8EFE0c04",
      "value": {
        "_hex": "0xa2a15d09519be00000"
      },
      "nonce": 2,
      "data": "0xb214faa541414141424146454a0000000000000000000000000000000000000000000000",
      "r": "0xc8ce14551d4ab8644fb79e37d2b46e3f2b45995e7f518456fff57bff8f2ca3cf",
      "s": "0x3d00e0512c67212c707db31b1ff3dc6f841cfb5d6924028c7f7754279ed0952e",
      "v": 28,
      "creates": null,
      "raw": "0xf89202850db0fe541a83015f9094ad8d3a5d2d92eb14bb56ca9f380be35b8efe0c0489a2a15d09519be00000a4b214faa541414141424146454a00000000000000000000000000000000000000000000001ca0c8ce14551d4ab8644fb79e37d2b46e3f2b45995e7f518456fff57bff8f2ca3cfa03d00e0512c67212c707db31b1ff3dc6f841cfb5d6924028c7f7754279ed0952e",
      "networkId": 0,
      "chainId": 0
    }
  ]
}