{
  "hash": "0x3d2f38bc2325409a4ca1f8aa093c77b70639886cd1e67b55c36e9d96cc9ade4e",
  "parentHash": "0x88719b2d90b8c4c9eca3183eb0386c4604be9fbf2c0361a1f198e02f6bb36097",
  "number": 113594,
  "timestamp": 1440026327,
  "nonce": "0xd334d84ed87493ed",
  "difficulty": 4453681279829,
  "gasLimit": {
    "_hex": "0x2fefd8"
  },
  "gasUsed": {
    "_hex": "0x5208"
  },
  "miner": "0xe6A7a1d47ff21B6321162AEA7C6CB457D5476Bca",
  "extraData": "0x476574682f76312e302e312d38326566323666362f6c696e75782f676f312e34",
  "transactions": [
    {
      "hash": "0xf073fc3f57adfedefbdbd7e7917fde7fb24adcbe790c95c8f26b6ec5f6926ab9",
      "blockHash": "0x3d2f38bc2325409a4ca1f8aa093c77b70639886cd1e67b55c36e9d96cc9ade4e",
      "blockNumber": 113594,
      "transactionIndex": 0,
      "confirmations": null,
      "from": "0xEb459A5CdDB6cd03432B2e1842C27593b634ba71",
      "gasPrice": {
        "_hex": "0xcd0afaf9f"
      },
      "gasLimit": {
        "_hex": "0x5208"
      },
      "to": "0x32Be343B94f860124dC4fEe278FDCBD38C102D88",
      "value": {
        "_hex": "0x1f056c920da6bb0000"
      },
      "nonce": 0,
      "data": "0x",
      "r": "0xd16fd7ae65d61aa199b25cf84b77b8945a854ad5a50a1fced7f0ae9f403ee657",
      "s": "0x62c04c059b4c8c82c45f23d158c1949e62816aa0bb7505a5d218154afeba1156",
      "v": 28,
      "creates": null,
      "raw": "0xf86d80850cd0afaf9f8252089432be343b94f860124dc4fee278fdcbd38c102d88891f056c920da6bb0000801ca0d16fd7ae65d61aa199b25cf84b77b8945a854ad5a50a1fced7f0ae9f403ee657a062c04c059b4c8c82c45f23d158c1949e62816aa0bb7505a5d218154afeba1156",
      "networkId": 0,
      "chainId": 0
    }
  ]
}