{
  "hash": "0x1a327ade4221dd35db83e6ac2c1628e5be4d6febb29793f955c9264e54e16fe3",
  "parentHash": "0xe439bb968200a1d656ef380b50a9f3bffe4056406af41aaaca8242a0fc826c8f",
  "number": 69051,
  "timestamp": 1439297659,
  "nonce": "0xcf2cbeb256ad1345",
  "difficulty": 2044901209177,
  "gasLimit": {
    "_hex": "0x2fefd8"
  },
  "gasUsed": {
    "_hex": "0x52080"
  },
  "miner": "0xe6A7a1d47ff21B6321162AEA7C6CB457D5476Bca",
  "extraData": "0x476574682f76312e302e312d38326566323666362f6c696e75782f676f312e34",
  "transactions": [
    {
      "hash": "0x86206bbe8c9606ee5611bdd07216a1193ff4ebce71534c563833cd6efd8cc84b",
      "blockHash": "0x1a327ade4221dd35db83e6ac2c1628e5be4d6febb29793f955c9264e54e16fe3",
      "blockNumber": 69051,
      "transactionIndex": 0,
      "confirmations": null,
      "from": "0x01Ad0ACFf478127D9d702B1A13599D706cB759b1",
      "gasPrice": {
        "_hex": "0xd868ac98c"
      },
      "gasLimit": {
        "_hex": "0x5208"
      },
      "to": "0x32Be343B94f860124dC4fEe278FDCBD38C102D88",
      "value": {
        "_hex": "0xd2ece9f273a30000"
      },
      "nonce": 10,
      "data": "0x",
      "r": "0x57db4d215195eda63b799ea1af5af430f9ebf4af09883b5c7dc0f6d54e7dc257",
      "s": "0x683aa9444d12669987651c93ff9ce3fbffe9a4ecee04ffe29b670e44bed1e8f1",
      "v": 28,
      "creates": null,
      "raw": "0xf86c0a850d868ac98c8252089432be343b94f860124dc4fee278fdcbd38c102d8888d2ece9f273a30000801ca057db4d215195eda63b799ea1af5af430f9ebf4af09883b5c7dc0f6d54e7dc257a0683aa9444d12669987651c93ff9ce3fbffe9a4ecee04ffe29b670e44bed1e8f1",
      "networkId": 0,
      "chainId": 0
    },
    {
      "hash": "0xb6ce28156f06b2d4ace05db2beb567056a37d0bd8dfb8bb6e2be5de87e66228c",
      "blockHash": "0x1a327ade4221dd35db83e6ac2c1628e5be4d6febb29793f955c9264e54e16fe3",
      "blockNumber": 69051,
      "transactionIndex": 1,
      "confirmations": null,
      "from": "0x865401542D17DB3B98C05B06B7fc33a954e63F1E",
      "gasPrice": {
        "_hex": "0xba43b7400"
      },
      "gasLimit": {
        "_hex": "0x5208"
      },
      "to": "0x93bcc9b7F0e5c6cD262713ce11CFBc422257E8EF",
      "value": {
        "_hex": "0x205aea81b969000"
      },
      "nonce": 1,
      "data": "0x",
      "r": "0x8905ce31dc8ec3ba2d3ce7ebdcfa0dd1a0c024368f5aba18f1565b376da6fab7",
      "s": "0x61eb08aa0d16208fda0db52fe61d7b571e652ec2e9ae055d9824973437325494",
      "v": 27,
      "creates": null,
      "raw": "0xf86c01850ba43b74008252089493bcc9b7f0e5c6cd262713ce11cfbc422257e8ef880205aea81b969000801ba08905ce31dc8ec3ba2d3ce7ebdcfa0dd1a0c024368f5aba18f1565b376da6fab7a061eb08aa0d16208fda0db52fe61d7b571e652ec2e9ae055d9824973437325494",
      "networkId": 0,
      "chainId": 0
    },
    {
      "hash": "0xcf899cb17c67e8b2228fc9a1d35bccad9e94b19255ed5b3c00aff0e901da26e4",
      "blockHash": "0x1a327ade4221dd35db83e6ac2c1628e5be4d6febb29793f955c9264e54e16fe3",
      "blockNumber": 69051,
      "transactionIndex": 2,
      "confirmations": null,
      "from": "0xdC54F0B84fA18f9C24A7Fe21C724cA482B5dE0a1",
      "gasPrice": {
        "_hex": "0xba43b7400"
      },
      "gasLimit": {
        "_hex": "0x5208"
      },
      "to": "0xccBe56a1d68030f3aFfcE8a1377AA67Fd3C6D65c",
      "value": {
        "_hex": "0x205aea81b969000"
      },
      "nonce": 1,
      "data": "0x",
      "r": "0x7abbb8215da01dd78dfd5ce4fc478eb1dc075e2817522179d7c701fa7a89675f",
      "s": "0x764709f37264b6b61f389fead0e47036f2efd148b0da319c4f805cd125af5e6a",
      "v": 27,
      "creates": null,
      "raw": "0xf86c01850ba43b740082520894ccbe56a1d68030f3affce8a1377aa67fd3c6d65c880205aea81b969000801ba07abbb8215da01dd78dfd5ce4fc478eb1dc075e2817522179d7c701fa7a89675fa0764709f37264b6b61f389fead0e47036f2efd148b0da319c4f805cd125af5e6a",
      "networkId": 0,
      "chainId": 0
    },
    {
      "hash": "0xbf35ca7bfe2b7249669743aaae5e7d689068ab96088b8c03a6df8e80a8823005",
      "blockHash": "0x1a327ade4221dd35db83e6ac2c1628e5be4d6febb29793f955c9264e54e16fe3",
      "blockNumber": 69051,
      "transactionIndex": 3,
      "confirmations": null,
      "from": "0xC025B1500F6FdF27A6164C6AD3E1aD698F902f87",
      "gasPrice": {
        "_hex": "0xba43b7400"
      },
      "gasLimit": {
        "_hex": "0x5208"
      },
      "to": "0x9bFC7100eAa60d64398DA907CeFc4383A8b07e43",
      "value": {
        "_hex": "0x205aea81b969000"
      },
      "nonce": 1,
      "data": "0x",
      "r": "0x1180e4b4d06db95a7e7123d65d383ccd3e37c4d768fff1b31335b291eac5fc3e",
      "s": "0x14d2057ba2cb141695ac8a3b9fc9c40e18c7f7c3c0df312d057505f76a3bd638",
      "v": 28,
      "creates": null,
      "raw": "0xf86c01850ba43b7400825208949bfc7100eaa60d64398da907cefc4383a8b07e43880205aea81b969000801ca01180e4b4d06db95a7e7123d65d383ccd3e37c4d768fff1b31335b291eac5fc3ea014d2057ba2cb141695ac8a3b9fc9c40e18c7f7c3c0df312d057505f76a3bd638",
      "networkId": 0,
      "chainId": 0
    },
    {
      "hash": "0x5bed1484e167355439a537eaed48da6181705ed69da7d815b78f16ebcdb2be1a",
      "blockHash": "0x1a327ade4221dd35db83e6ac2c1628e5be4d6febb29793f955c9264e54e16fe3",
      "blockNumber": 69051,
      "transactionIndex": 4,
      "confirmations": null,
      "from": "0x9858447d05901DA8E335b3705D961fCD25e51C44",
      "gasPrice": {
        "_hex": "0xba43b7400"
      },
      "gasLimit": {
        "_hex": "0x5208"
      },
      "to": "0xFabe7c0d4A29a25b3a7278AF8366b379602E2ee0",
      "value": {
        "_hex": "0x205aea81b969000"
      },
      "nonce": 1,
      "data": "0x",
      "r": "0x33356619687d7b4ee73196044c59ad6cbb45ba3deaa6659d5cec1704c253901d",
      "s": "0x116ba7510064d164fe98359a7cfc703b61f516383742dd8263e962c3bb2ab313",
      "v": 28,
      "creates": null,
      "raw": "0xf86c01850ba43b740082520894fabe7c0d4a29a25b3a7278af8366b379602e2ee0880205aea81b969000801ca033356619687d7b4ee73196044c59ad6cbb45ba3deaa6659d5cec1704c253901da0116ba7510064d164fe98359a7cfc703b61f516383742dd8263e962c3bb2ab313",
      "networkId": 0,
      "chainId": 0
    },
    {
      "hash": "0xe6e6593f2d5ebb1912be5534570e31a1e446dc8ab338e8755ec9e7b4a93d2fd7",
      "blockHash": "0x1a327ade4221dd35db83e6ac2c1628e5be4d6febb29793f955c9264e54e16fe3",
      "blockNumber": 69051,
      "transactionIndex": 5,
      "confirmations": null,
      "from": "0x5fFF49a728abC1b389176c849fa31fD330687431",
      "gasPrice": {
        "_hex": "0xba43b7400"
      },
      "gasLimit": {
        "_hex": "0x5208"
      },
      "to": "0xEF43bB24fE64aB02661373b62E755E5c1509EB13",
      "value": {
        "_hex": "0x205aea81b969000"
      },
      "nonce": 1,
      "data": "0x",
      "r": "0xb16523c98a760e237a7677ea5894f9770fb4d125f33f94d640d1c5bc2ef1bb6b",
      "s": "0x098a03934a902c0d8ff3efb1183a997dd3d0e1289c7846b808e3811055bf9045",
      "v": 27,
      "creates": null,
      "raw": "0xf86c01850ba43b740082520894ef43bb24fe64ab02661373b62e755e5c1509eb13880205aea81b969000801ba0b16523c98a760e237a7677ea5894f9770fb4d125f33f94d640d1c5bc2ef1bb6ba0098a03934a902c0d8ff3efb1183a997dd3d0e1289c7846b808e3811055bf9045",
      "networkId": 0,
      "chainId": 0
    },
    {
      "hash": "0x9523b6bafe012897a72b1dcefcfd66a9cbf2ee26827abac9d62ce0f3053beb9f",
      "blockHash": "0x1a327ade4221dd35db83e6ac2c1628e5be4d6febb29793f955c9264e54e16fe3",
      "blockNumber": 69051,
      "transactionIndex": 6,
      "confirmations": null,
      "from": "0x26f2e27aF5F6Ea6f5dba0B8D439d2b5cA4eFD5ea",
      "gasPrice": {
        "_hex": "0xba43b7400"
      },
      "gasLimit": {
        "_hex": "0x5208"
      },
      "to": "0xE27f9010430fFdA9AA9C28eb691645368D654Ff4",
      "value": {
        "_hex": "0x205aea81b969000"
      },
      "nonce": 1,
      "data": "0x",
      "r": "0xac81e3a2be92596118f38190264b335e247ae4343e354466ed0cb0c7fd716882",
      "s": "0x7b43f6a1e071d329ed4d0fb7008671c49c568da5f7f991918c096d72d36c3831",
      "v": 28,
      "creates": null,
      "raw": "0xf86c01850ba43b740082520894e27f9010430ffda9aa9c28eb691645368d654ff4880205aea81b969000801ca0ac81e3a2be92596118f38190264b335e247ae4343e354466ed0cb0c7fd716882a07b43f6a1e071d329ed4d0fb7008671c49c568da5f7f991918c096d72d36c3831",
      "networkId": 0,
      "chainId": 0
    },
    {
      "hash": "0x444a4ce51d262ea3bcebf3d86152462646fc3749a6b0a6b0d7fbc1492f58b4d3",
      "blockHash": "0x1a327ade4221dd35db83e6ac2c1628e5be4d6febb29793f955c9264e54e16fe3",
      "blockNumber": 69051,
      "transactionIndex": 7,
      "confirmations": null,
      "from": "0x6C6C92E5599F9a0De48f1f7cD13547C308fA8f14",
      "gasPrice": {
        "_hex": "0xba43b7400"
      },
      "gasLimit": {
        "_hex": "0x5208"
      },
      "to": "0xB4BDE930040a1376A70D905c643cbE6Bc8566CA0",
      "value": {
        "_hex": "0x205aea81b969000"
      },
      "nonce": 1,
      "data": "0x",
      "r": "0x45fe5250694d4b264c39c074630e87b96f874bdfd4cef1de330add734cde69a1",
      "s": "0x642fa58edc42588af065beac07512ce16219cb78fad0ce2b455ce2a2021a0f86",
      "v": 27,
      "creates": null,
      "raw": "0xf86c01850ba43b740082520894b4bde930040a1376a70d905c643cbe6bc8566ca0880205aea81b969000801ba045fe5250694d4b264c39c074630e87b96f874bdfd4cef1de330add734cde69a1a0642fa58edc42588af065beac07512ce16219cb78fad0ce2b455ce2a2021a0f86",
      "networkId": 0,
      "chainId": 0
    },
    {
      "hash": "0x4e4eb9b5c314d9d5c5dcb308e0bbb81029e334939ca024ef439dd0fedbd9195a",
      "blockHash": "0x1a327ade4221dd35db83e6ac2c1628e5be4d6febb29793f955c9264e54e16fe3",
      "blockNumber": 69051,
      "transactionIndex": 8,
      "confirmations": null,
      "from": "0x674291bA8c2d0d956cD8B3798404e8d459079304",
      "gasPrice": {
        "_hex": "0xba43b7400"
      },
      "gasLimit": {
        "_hex": "0x5208"
      },
      "to": "0xD614b05d897615636c0189b7E1743968E2fb7777",
      "value": {
        "_hex": "0x205aea81b969000"
      },
      "nonce": 1,
      "data": "0x",
      "r": "0xf981cf7ccafb05891844c07b9e3aff68333580453fbc095f46ca0a290d8f0787",
      "s": "0x7afbbddadf9f26b18f10d842606659408741e407ac2814f70263274ad22e0217",
      "v": 28,
      "creates": null,
      "raw": "0xf86c01850ba43b740082520894d614b05d897615636c0189b7e1743968e2fb7777880205aea81b969000801ca0f981cf7ccafb05891844c07b9e3aff68333580453fbc095f46ca0a290d8f0787a07afbbddadf9f26b18f10d842606659408741e407ac2814f70263274ad22e0217",
      "networkId": 0,
      "chainId": 0
    },
    {
      "hash": "0x8c4aee7931aeaeec9a13a19c1f3c8dbab403167e0e677b40e8e967c9824c09e9",
      "blockHash": "0x1a327ade4221dd35db83e6ac2c1628e5be4d6febb29793f955c9264e54e16fe3",
      "blockNumber": 69051,
      "transactionIndex": 9,
      "confirmations": null,
      "from": "0xCAb9a9D651A34dC88a385a0e7410b5E9034495aA",
      "gasPrice": {
        "_hex": "0xba43b7400"
      },
      "gasLimit": {
        "_hex": "0x5208"
      },
      "to": "0xB92590821227aF94F64C8A923524Cc4836F05d84",
      "value": {
        "_hex": "0x205aea81b969000"
      },
      "nonce": 1,
      "data": "0x",
      "r": "0xb523b59f3239a9ad307ce34a24e33488d5fc8dba3d17f8b873da1c2d46aaa986",
      "s": "0x50ca0c40700dd0516140e3cb8fe72b368df745dbc3607156ed62797299dc8d34",
      "v": 27,
      "creates": null,
      "raw": "0xf86c01850ba43b740082520894b92590821227af94f64c8a923524cc4836f05d84880205aea81b969000801ba0b523b59f3239a9ad307ce34a24e33488d5fc8dba3d17f8b873da1c2d46aaa986a050ca0c40700dd0516140e3cb8fe72b368df745dbc3607156ed62797299dc8d34",
      "networkId": 0,
      "chainId": 0
    },
    {
      "hash": "0x4e20a7349f8fed8385596651cfa355ea573d036273b436d9474d8fa522736073",
      "blockHash": "0x1a327ade4221dd35db83e6ac2c1628e5be4d6febb29793f955c9264e54e16fe3",
      "blockNumber": 69051,
      "transactionIndex": 10,
      "confirmations": null,
      "from": "0xe1E8a0220C6b088B6bCc832D405c06b2dE883B2C",
      "gasPrice": {
        "_hex": "0xba43b7400"
      },
      "gasLimit": {
        "_hex": "0x5208"
      },
      "to": "0x1d5C75F7cbA5c785c40525FA44d9FcbEefad63fA",
      "value": {
        "_hex": "0x205aea81b969000"
      },
      "nonce": 1,
      "data": "0x",
      "r": "0x0e7905386b67d6a07f670ac90dbe98a21c0cc9149bd44d2a951e8df45ae7f115",
      "s": "0x57baae113a60f0d9bd565c5caddefad3b07a14dcfef8f2cc962d12d37fb29c81",
      "v": 28,
      "creates": null,
      "raw": "0xf86c01850ba43b7400825208941d5c75f7cba5c785c40525fa44d9fcbeefad63fa880205aea81b969000801ca00e7905386b67d6a07f670ac90dbe98a21c0cc9149bd44d2a951e8df45ae7f115a057baae113a60f0d9bd565c5caddefad3b07a14dcfef8f2cc962d12d37fb29c81",
      "networkId": 0,
      "chainId": 0
    },
    {
      "hash": "0x74306565bdec73e10627019a2ba97c5b4568a96f6ee587a605addae348bcee06",
      "blockHash": "0x1a327ade4221dd35db83e6ac2c1628e5be4d6febb29793f955c9264e54e16fe3",
      "blockNumber": 69051,
      "transactionIndex": 11,
      "confirmations": null,
      "from": "0xdAcd27d0A3Bc927AC02ed380c1B28D29bE5a771d",
      "gasPrice": {
        "_hex": "0xba43b7400"
      },
      "gasLimit": {
        "_hex": "0x5208"
      },
      "to": "0x1Fad1f61286d75D32433B2476D3CC826EDFBc8fc",
      "value": {
        "_hex": "0x205aea81b969000"
      },
      "nonce": 1,
      "data": "0x",
      "r": "0x185baf05727196232fac21c69e314bb1b7ea6f2cd6ae1fc59c022b4b304b0b66",
      "s": "0x15816e1aca81487475baa8daf8516c811f90eac64649a0ed96b44138314eb235",
      "v": 28,
      "creates": null,
      "raw": "0xf86c01850ba43b7400825208941fad1f61286d75d32433b2476d3cc826edfbc8fc880205aea81b969000801ca0185baf05727196232fac21c69e314bb1b7ea6f2cd6ae1fc59c022b4b304b0b66a015816e1aca81487475baa8daf8516c811f90eac64649a0ed96b44138314eb235",
      "networkId": 0,
      "chainId": 0
    },
    {
      "hash": "0x907b965d21b7d78525375ab83d681a675bbbd57fe1d50b954d4099adad01d02c",
      "blockHash": "0x1a327ade4221dd35db83e6ac2c1628e5be4d6febb29793f955c9264e54e16fe3",
      "blockNumber": 69051,
      "transactionIndex": 12,
      "confirmations": null,
      "from": "0xAdf6FC422aE976CD4f9efb7fC8c1bA1B028444A1",
      "gasPrice": {
        "_hex": "0xba43b7400"
      },
      "gasLimit": {
        "_hex": "0x5208"
      },
      "to": "0x15cf65c275C26b064ECbe2Dab2cD72530A8D9d69",
      "value": {
        "_hex": "0x205aea81b969000"
      },
      "nonce": 1,
      "data": "0x",
      "r": "0xf6eb64c320c0829ea65f2fffdde0a9565bfa5d80053dd68cfb3196c13ff92be8",
      "s": "0x26d2f1a15fd3c17eb0fdbba27728d79c7fabd36240e28c20b51aa32f4e32d126",
      "v": 28,
      "creates": null,
      "raw": "0xf86c01850ba43b74008252089415cf65c275c26b064ecbe2dab2cd72530a8d9d69880205aea81b969000801ca0f6eb64c320c0829ea65f2fffdde0a9565bfa5d80053dd68cfb3196c13ff92be8a026d2f1a15fd3c17eb0fdbba27728d79c7fabd36240e28c20b51aa32f4e32d126",
      "networkId": 0,
      "chainId": 0
    },
    {
      "hash": "0xb7667b74d891e6aae66caa1e1af943092d96954c5af06360749354220b349b5a",
      "blockHash": "0x1a327ade4221dd35db83e6ac2c1628e5be4d6febb29793f955c9264e54e16fe3",
      "blockNumber": 69051,
      "transactionIndex": 13,
      "confirmations": null,
      "from": "0xa8598Fe7bf655CD01aDcf0221215ba1e32df0e25",
      "gasPrice": {
        "_hex": "0xba43b7400"
      },
      "gasLimit": {
        "_hex": "0x5208"
      },
      "to": "0x46d32282B24788B5E7694d243bC439b077010382",
      "value": {
        "_hex": "0x205aea81b969000"
      },
      "nonce": 1,
      "data": "0x",
      "r": "0x7f8ff92715ff6a76349b8906abb6c7cdc66ccc5ab1f643b72140fb2ea224c5e2",
      "s": "0x3b788459b84adc3b88b2f879cc9b626a31f2a94380a4f6701e4d30e8a43ef33a",
      "v": 28,
      "creates": null,
      "raw": "0xf86c01850ba43b74008252089446d32282b24788b5e7694d243bc439b077010382880205aea81b969000801ca07f8ff92715ff6a76349b8906abb6c7cdc66ccc5ab1f643b72140fb2ea224c5e2a03b788459b84adc3b88b2f879cc9b626a31f2a94380a4f6701e4d30e8a43ef33a",
      "networkId": 0,
      "chainId": 0
    },
    {
      "hash": "0x08e9ae8d2135629ff3af898836a249fd443bfea38d9ee3197377fbe5f19d4690",
      "blockHash": "0x1a327ade4221dd35db83e6ac2c1628e5be4d6febb29793f955c9264e54e16fe3",
      "blockNumber": 69051,
      "transactionIndex": 14,
      "confirmations": null,
      "from": "0x9dBb3d21084005BaC3713d371f6E62aD0B87bAB4",
      "gasPrice": {
        "_hex": "0xba43b7400"
      },
      "gasLimit": {
        "_hex": "0x5208"
      },
      "to": "0xAb0eF5eFCc62243a402d64c8A0bc0EcD639AC129",
      "value": {
        "_hex": "0x205aea81b969000"
      },
      "nonce": 1,
      "data": "0x",
      "r": "0x91bc76ebf6f48c16fd53d8da69331be5f2bd6476c6711ab8118f13ad30ed4845",
      "s": "0x456371311d84e27c1ddbc45e0c49c6812302f1705f36f6c16f3b75c41f34c1da",
      "v": 27,
      "creates": null,
      "raw": "0xf86c01850ba43b740082520894ab0ef5efcc62243a402d64c8a0bc0ecd639ac129880205aea81b969000801ba091bc76ebf6f48c16fd53d8da69331be5f2bd6476c6711ab8118f13ad30ed4845a0456371311d84e27c1ddbc45e0c49c6812302f1705f36f6c16f3b75c41f34c1da",
      "networkId": 0,
      "chainId": 0
    },
    {
      "hash": "0x482ceb192f66423750cdcbc8e8de0ad94e416f3aa62c279e4617d775d2e969b5",
      "blockHash": "0x1a327ade4221dd35db83e6ac2c1628e5be4d6febb29793f955c9264e54e16fe3",
      "blockNumber": 69051,
      "transactionIndex": 15,
      "confirmations": null,
      "from": "0x1766204fa21eEF70c2F5881419fE7418B7765187",
      "gasPrice": {
        "_hex": "0xba43b7400"
      },
      "gasLimit": {
        "_hex": "0x5208"
      },
      "to": "0x6f25340bAa201fa611e757d3f92Db32E58B3826f",
      "value": {
        "_hex": "0x205aea81b969000"
      },
      "nonce": 1,
      "data": "0x",
      "r": "0x5732dc63aabf3ae6c96525677d631ab3e6f3c1d2ff77f775a94145bf78de7ede",
      "s": "0x1dd46e19a390908deab2268f19c5909ecad0c506737877b5a436b6830e1f9b13",
      "v": 27,
      "creates": null,
      "raw": "0xf86c01850ba43b7400825208946f25340baa201fa611e757d3f92db32e58b3826f880205aea81b969000801ba05732dc63aabf3ae6c96525677d631ab3e6f3c1d2ff77f775a94145bf78de7edea01dd46e19a390908deab2268f19c5909ecad0c506737877b5a436b6830e1f9b13",
      "networkId": 0,
      "chainId": 0
    }
  ]
}