{
  "hash": "0x06c9389e9ed13086d1ca05e331d8cad71755ae66bdd7dfcba5a2e3253949f395",
  "parentHash": "0x50acc9120b99205370d61e280c7f159af378e85cc0c2fb32bd159d4490fc8027",
  "number": 86283,
  "timestamp": 1439576135,
  "nonce": "0x97000bb32d338d7e",
  "difficulty": 2849887918083,
  "gasLimit": {
    "_hex": "0x2fefd8"
  },
  "gasUsed": {
    "_hex": "0x55d8"
  },
  "miner": "0xe6A7a1d47ff21B6321162AEA7C6CB457D5476Bca",
  "extraData": "0x476574682f76312e302e312d38326566323666362f6c696e75782f676f312e34",
  "transactions": [
    {
      "hash": "0x7077ba7a26389c241170f99dd5801a1af2cda4da6060d95ba36ecd346359e13b",
      "blockHash": "0x06c9389e9ed13086d1ca05e331d8cad71755ae66bdd7dfcba5a2e3253949f395",
      "blockNumber": 86283,
      "transactionIndex": 0,
      "confirmations": null,
      "from": "0x47ff6576639c2e94762eA5443978D7681C0E78DC",
      "gasPrice": {
        "_hex": "0xd8ff543b9"
      },
      "gasLimit": {
        "_hex": "0x15f90"
      },
      "to": "0x0000000000000000000000000000000000000000",
      "value": {
        "_hex": "0xde0b6b3a7640000"
      },
      "nonce": 27,
      "data": "0xb214faa54f3558574c4f5930570000000000000000000000000000000000000000000000",
      "r": "0x57e1bb932825bd540e8b3826765abd69ae19f9a55983a47be32fc4ce5842bb51",
      "s": "0x701c277f3ed4adbb0d8923c15feeb70ff4652efcf294ab8f0a9b06836b38cd2a",
      "v": 27,
      "creates": null,
      "raw": "0xf8911b850d8ff543b983015f90940000000000000000000000000000000000000000880de0b6b3a7640000a4b214faa54f3558574c4f59305700000000000000000000000000000000000000000000001ba057e1bb932825bd540e8b3826765abd69ae19f9a55983a47be32fc4ce5842bb51a0701c277f3ed4adbb0d8923c15feeb70ff4652efcf294ab8f0a9b06836b38cd2a",
      "networkId": 0,
      "chainId": 0
    }
  ]
}