{
  "hash": "0xa201875d3865561fa882176e756684596e79a40d2181c1f20b9676113fd3cc5c",
  "parentHash": "0x2694312168f44983aabb6279d677322ea6432097f7ed7871b5c99b0740c67d66",
  "number": 72462,
  "timestamp": 1439352990,
  "nonce": "0x3508f7359ebc1bc8",
  "difficulty": 2204777191057,
  "gasLimit": {
    "_hex": "0x2fefd8"
  },
  "gasUsed": {
    "_hex": "0x5208"
  },
  "miner": "0x157c6f2431eB1a95797EE86F7d17b3c0FD47A247",
  "extraData": "0x476574682f76312e302e312f77696e646f77732f676f312e342e32",
  "transactions": [
    {
      "hash": "0xe4e056c10ef44726b874562b6e9ae768010231ade3530a3d767154c648081910",
      "blockHash": "0xa201875d3865561fa882176e756684596e79a40d2181c1f20b9676113fd3cc5c",
      "blockNumber": 72462,
      "transactionIndex": 0,
      "confirmations": null,
      "from": "0x1308A2e95c0160B90803ddCA9B9a5bb55E416d79",
      "gasPrice": {
        "_hex": "0x9184e72a000"
      },
      "gasLimit": {
        "_hex": "0x15f90"
      },
      "to": "0x613AC53bE565d46536B820715b9b8d3Ae68A4b95",
      "value": {
        "_hex": "0xa5dc8cd2f1128f800"
      },
      "nonce": 114,
      "data": "0x",
      "r": "0x902923900599def596656627c2b5652b8dc8866be63210f2b8fa891dea8b7732",
      "s": "0x501e7191fa8be02f249999d594d20fc89b0d3052abae914bcf03f1ec42bc2abe",
      "v": 28,
      "creates": null,
      "raw": "0xf86f728609184e72a00083015f9094613ac53be565d46536b820715b9b8d3ae68a4b95890a5dc8cd2f1128f800801ca0902923900599def596656627c2b5652b8dc8866be63210f2b8fa891dea8b7732a0501e7191fa8be02f249999d594d20fc89b0d3052abae914bcf03f1ec42bc2abe",
      "networkId": 0,
      "chainId": 0
    }
  ]
}