{
  "hash": "0x55190a77844032447d97abfe96b2a564e62fe9642ca925815acc099ab7a2cf76",
  "parentHash": "0xc93fb05f7dfa887b319a612803bec7a9cd1c37c82145ef03e0b0eadf5e69f963",
  "number": 102373,
  "timestamp": 1439836949,
  "nonce": "0x8a7de2f8a4baf3bc",
  "difficulty": 3960682276716,
  "gasLimit": {
    "_hex": "0x2fefd8"
  },
  "gasUsed": {
    "_hex": "0x5208"
  },
  "miner": "0xE300c4587D260cE22a677755Db6429B491A4309E",
  "extraData": "0x",
  "transactions": [
    {
      "hash": "0x390f1fdfd023f36fde673204fd6650aacf8c0c3585c0129487dca0b357f10e99",
      "blockHash": "0x55190a77844032447d97abfe96b2a564e62fe9642ca925815acc099ab7a2cf76",
      "blockNumber": 102373,
      "transactionIndex": 0,
      "confirmations": null,
      "from": "0x120A270bbC009644e35F0bB6ab13f95b8199c4ad",
      "gasPrice": {
        "_hex": "0xd64663e3d"
      },
      "gasLimit": {
        "_hex": "0x15f90"
      },
      "to": "0x2BCc3E2c286780e8C63823A4bDdd7f7e3DBD35dC",
      "value": {
        "_hex": "0x1043561a8829300000"
      },
      "nonce": 696,
      "data": "0x",
      "r": "0xa0c3db6302d0bb4f570b2fe18e562d190cf01db392a4e218dbe1124fb9ea78bb",
      "s": "0x64b526afcee70fa28f46f5c31498a2bab722de5398d0d534319a43a963dd96fa",
      "v": 28,
      "creates": null,
      "raw": "0xf8708202b8850d64663e3d83015f90942bcc3e2c286780e8c63823a4bddd7f7e3dbd35dc891043561a8829300000801ca0a0c3db6302d0bb4f570b2fe18e562d190cf01db392a4e218dbe1124fb9ea78bba064b526afcee70fa28f46f5c31498a2bab722de5398d0d534319a43a963dd96fa",
      "networkId": 0,
      "chainId": 0
    }
  ]
}