{
  "hash": "0xf03ee06afc71fb0920d4c5a437c10d8c44005aee7c59311137a2c0adc51ab5da",
  "parentHash": "0x8c7eefba543212a594110566f31cb65b16521875dbb1f18bfddc8ea446e2e3d9",
  "number": 70131,
  "timestamp": 1439315209,
  "nonce": "0x22da455eb224b690",
  "difficulty": 2107482640195,
  "gasLimit": {
    "_hex": "0x2fefd8"
  },
  "gasUsed": {
    "_hex": "0x5208"
  },
  "miner": "0xe6A7a1d47ff21B6321162AEA7C6CB457D5476Bca",
  "extraData": "0x476574682f76312e302e312d38326566323666362f6c696e75782f676f312e34",
  "transactions": [
    {
      "hash": "0x049634af14f302458a657695009e2c3f318185b24bba70cbe1c310a2931e5393",
      "blockHash": "0xf03ee06afc71fb0920d4c5a437c10d8c44005aee7c59311137a2c0adc51ab5da",
      "blockNumber": 70131,
      "transactionIndex": 0,
      "confirmations": null,
      "from": "0x32Be343B94f860124dC4fEe278FDCBD38C102D88",
      "gasPrice": {
        "_hex": "0xce0b45878"
      },
      "gasLimit": {
        "_hex": "0x5208"
      },
      "to": "0x29B7AB4Ec2938E6158a02E0987945067b27B14f6",
      "value": {
        "_hex": "0x8e1bc9bf040000"
      },
      "nonce": 243,
      "data": "0x",
      "r": "0xe3ebd19bb327e5905c47efd4c39af946affff97a1d677bf1c707dfca1c83452a",
      "s": "0x216150e3e730ff034b6747516133f59771ee68c03d1d80e3acd3e3b08dcbe61a",
      "v": 28,
      "creates": null,
      "raw": "0xf86c81f3850ce0b458788252089429b7ab4ec2938e6158a02e0987945067b27b14f6878e1bc9bf040000801ca0e3ebd19bb327e5905c47efd4c39af946affff97a1d677bf1c707dfca1c83452aa0216150e3e730ff034b6747516133f59771ee68c03d1d80e3acd3e3b08dcbe61a",
      "networkId": 0,
      "chainId": 0
    }
  ]
}