{
  "hash": "0x53c1ca3075fab4993ddb1e512a5d3533dea955fed7c44b677c9f8bdda9ae94c8",
  "parentHash": "0x0f56974e694a64e8949f27de9dfc27ca78c7e34b7fd8888044fb46121df9b873",
  "number": 68881,
  "timestamp": 1439295092,
  "nonce": "0x7169b39b3a5057a8",
  "difficulty": 2025069699892,
  "gasLimit": {
    "_hex": "0x2fefd8"
  },
  "gasUsed": {
    "_hex": "0x5208"
  },
  "miner": "0x39A1BB80a741bF5EC39FB9BE59408Fa0F418fFBf",
  "extraData": "0x476574682f76312e302e312f77696e646f77732f676f312e342e32",
  "transactions": [
    {
      "hash": "0xaf6dd01fe1013b69d3cb228fc08dd4f62ba077c614a54b09cada2b49c42245b5",
      "blockHash": "0x53c1ca3075fab4993ddb1e512a5d3533dea955fed7c44b677c9f8bdda9ae94c8",
      "blockNumber": 68881,
      "transactionIndex": 0,
      "confirmations": null,
      "from": "0x6747f922385c9a6F9cfDf095F34345257DD597bE",
      "gasPrice": {
        "_hex": "0xba43b7400"
      },
      "gasLimit": {
        "_hex": "0x5208"
      },
      "to": "0x73646e5BDa28F15C2a078cbfc4daA2127D7231B6",
      "value": {
        "_hex": "0x1fcbfa42bd6000"
      },
      "nonce": 143,
      "data": "0x",
      "r": "0xae9b52be96db335ca99066385cf7a24d0aae8e7ade7f1fb957b303cd131dc233",
      "s": "0x5db7e7a5cb752faf759489460d512316461c6d05754ab112bd4fb78a28aa93be",
      "v": 28,
      "creates": null,
      "raw": "0xf86c818f850ba43b74008252089473646e5bda28f15c2a078cbfc4daa2127d7231b6871fcbfa42bd6000801ca0ae9b52be96db335ca99066385cf7a24d0aae8e7ade7f1fb957b303cd131dc233a05db7e7a5cb752faf759489460d512316461c6d05754ab112bd4fb78a28aa93be",
      "networkId": 0,
      "chainId": 0
    }
  ]
}