{
  "hash": "0x26d91cc88f06547b884b56fe5eaf5512322fa081beb37232ceaa2115fc7f8b13",
  "parentHash": "0x94324a1e724d06ccd00a653eaf10f116d143e83f3d6017ea3e7a1aacb3bb7985",
  "number": 79584,
  "timestamp": 1439472064,
  "nonce": "0x9987d8be7c243313",
  "difficulty": 2338121350320,
  "gasLimit": {
    "_hex": "0x2fefd8"
  },
  "gasUsed": {
    "_hex": "0x5208"
  },
  "miner": "0x63BBedc46A1113Ba7938CF7C18CCb5Aed20eC733",
  "extraData": "0x",
  "transactions": [
    {
      "hash": "0xa326f291ff700c2e160cfe97d88977ef3306fd536728f133738541b53478a285",
      "blockHash": "0x26d91cc88f06547b884b56fe5eaf5512322fa081beb37232ceaa2115fc7f8b13",
      "blockNumber": 79584,
      "transactionIndex": 0,
      "confirmations": null,
      "from": "0x727A42a8D67fcaa0Ab81D46f1EE66bfc9b8789AC",
      "gasPrice": {
        "_hex": "0xd7b61fb7b"
      },
      "gasLimit": {
        "_hex": "0x15f90"
      },
      "to": "0xc7178C8B9a4d03e33d8d695169Ce476014c71Ada",
      "value": {
        "_hex": "0x4563918244f40000"
      },
      "nonce": 9,
      "data": "0x",
      "r": "0x423b69bf3f34da18802070d5ae81dcad5c5b8d11f58d90422f3ae23293872edb",
      "s": "0x54e8cddfd5fdf7a5eb9697953ef720242f0f61a219883aa85aa594d38134e366",
      "v": 28,
      "creates": null,
      "raw": "0xf86d09850d7b61fb7b83015f9094c7178c8b9a4d03e33d8d695169ce476014c71ada884563918244f40000801ca0423b69bf3f34da18802070d5ae81dcad5c5b8d11f58d90422f3ae23293872edba054e8cddfd5fdf7a5eb9697953ef720242f0f61a219883aa85aa594d38134e366",
      "networkId": 0,
      "chainId": 0
    }
  ]
}