{
  "hash": "0xccd9e78f5a56f6204e5506aff98a2ac4e1d56427164d751d7945c0bb4d14c491",
  "parentHash": "0xa2c6164146d614611da7bc70804a2f514cf7bc89045726c72e84fe655123f721",
  "number": 66165,
  "timestamp": 1439249932,
  "nonce": "0x910d5b3beb0a7b03",
  "difficulty": 1936739741152,
  "gasLimit": {
    "_hex": "0x2fefd8"
  },
  "gasUsed": {
    "_hex": "0x546c"
  },
  "miner": "0x01d9DA08cc6Fb97c0DE1B6F4C28910A0859Ed1A1",
  "extraData": "0x476574682f76312e302e312f6c696e75782f676f312e342e32",
  "transactions": [
    {
      "hash": "0x504602c16c163e53989d03faa9e2169906df5d4e5e29c662c00b721a8ab4f237",
      "blockHash": "0xccd9e78f5a56f6204e5506aff98a2ac4e1d56427164d751d7945c0bb4d14c491",
      "blockNumber": 66165,
      "transactionIndex": 0,
      "confirmations": null,
      "from": "0x8F68fbE2DCFf038C24F650C9e05Ee478038171cd",
      "gasPrice": {
        "_hex": "0xcc6853494"
      },
      "gasLimit": {
        "_hex": "0x55f0"
      },
      "to": "0x2910543Af39abA0Cd09dBb2D50200b3E800A63D2",
      "value": {
        "_hex": "0x361a08405e8fd80000"
      },
      "nonce": 3,
      "data": "0x454e36383358334d30",
      "r": "0x6935f69febdb1ba5a0c003a8e251a49440f2d5d39c83385f1313ac31b1226107",
      "s": "0x0affa9556117b55856c765ee3ed5ee65f03960ab8a67cdc067e74db0ade9ef32",
      "v": 27,
      "creates": null,
      "raw": "0xf87603850cc68534948255f0942910543af39aba0cd09dbb2d50200b3e800a63d289361a08405e8fd8000089454e36383358334d301ba06935f69febdb1ba5a0c003a8e251a49440f2d5d39c83385f1313ac31b1226107a00affa9556117b55856c765ee3ed5ee65f03960ab8a67cdc067e74db0ade9ef32",
      "networkId": 0,
      "chainId": 0
    }
  ]
}