{
  "hash": "0x560d1b4f5f1b9142495d3dfd8ccf537f300cbc05dc64231138016512b77db88b",
  "parentHash": "0xbcc967075e2f1f5871c145b7ec8d747d527415054bb41fc20f2d1815e043f462",
  "number": 96257,
  "timestamp": 1439737467,
  "nonce": "0xe81c343118829890",
  "difficulty": 3672870487728,
  "gasLimit": {
    "_hex": "0x2fefd8"
  },
  "gasUsed": {
    "_hex": "0x5208"
  },
  "miner": "0xbb7B8287f3F0a933474a79eAe42CBCa977791171",
  "extraData": "0x476574682f4c5649562f76312e302e312f6c696e75782f676f312e342e32",
  "transactions": [
    {
      "hash": "0x0246c0f883dcad469236cf0444ba79358c40da56237f89c3fe7aadde480675de",
      "blockHash": "0x560d1b4f5f1b9142495d3dfd8ccf537f300cbc05dc64231138016512b77db88b",
      "blockNumber": 96257,
      "transactionIndex": 0,
      "confirmations": null,
      "from": "0x06402aC4416476Bf55199D9c7BE67C387bb6773c",
      "gasPrice": {
        "_hex": "0xcd25028a3"
      },
      "gasLimit": {
        "_hex": "0x5208"
      },
      "to": "0x32Be343B94f860124dC4fEe278FDCBD38C102D88",
      "value": {
        "_hex": "0xddc9aef50087400"
      },
      "nonce": 1,
      "data": "0x",
      "r": "0xc7a1119cccd55601910647471140e1013affbe3058c2d40e03f2db32526e6bca",
      "s": "0x24dbff34d7f5b19b7e0753fa6eb859b77a41f06cb96c1107b8d0ae14e886ab9f",
      "v": 27,
      "creates": null,
      "raw": "0xf86c01850cd25028a38252089432be343b94f860124dc4fee278fdcbd38c102d88880ddc9aef50087400801ba0c7a1119cccd55601910647471140e1013affbe3058c2d40e03f2db32526e6bcaa024dbff34d7f5b19b7e0753fa6eb859b77a41f06cb96c1107b8d0ae14e886ab9f",
      "networkId": 0,
      "chainId": 0
    }
  ]
}