{
  "hash": "0x8d08f256292b1ff59d9c77861b12939c39ea7bb4530e08d3bb1b40e70f04c2d5",
  "parentHash": "0x85a5c57b652a470299d1a038218911914d0292b1f83f4286d793d7e94a33f4ad",
  "number": 59901,
  "timestamp": 1439145565,
  "nonce": "0xe7d385852decf127",
  "difficulty": 1728916512824,
  "gasLimit": {
    "_hex": "0x2fefd8"
  },
  "gasUsed": {
    "_hex": "0xa674"
  },
  "miner": "0x2C674A948592B20a4B775E1a3991Db043E6CF0FE",
  "extraData": "0x476574682f76312e302e312d38326566323666362f6c696e75782f676f312e34",
  "transactions": [
    {
      "hash": "0xf8094efb0c0e737dd2e206c36d4b89a951dfcd33bc2062c45c284e54090bf786",
      "blockHash": "0x8d08f256292b1ff59d9c77861b12939c39ea7bb4530e08d3bb1b40e70f04c2d5",
      "blockNumber": 59901,
      "transactionIndex": 0,
      "confirmations": null,
      "from": "0xAddB26317227f45c87A2Cb90dC4CFd02fb23cAf8",
      "gasPrice": {
        "_hex": "0x110c8f7d8de"
      },
      "gasLimit": {
        "_hex": "0xc350"
      },
      "to": "0x2910543Af39abA0Cd09dBb2D50200b3E800A63D2",
      "value": {
        "_hex": "0x56a879fa775470000"
      },
      "nonce": 1,
      "data": "0x454e32444238425a52",
      "r": "0x3e42b06ffdc908c32381ed49fdeb1292ac1c67739b2cdc24fa8dd90b374be3de",
      "s": "0xc39b6fbbcfba97c2c14eff7210144cacee7740fec8dfbbfccecfa85078bfa657",
      "v": 27,
      "creates": null,
      "raw": "0xf87701860110c8f7d8de82c350942910543af39aba0cd09dbb2d50200b3e800a63d289056a879fa77547000089454e32444238425a521ba03e42b06ffdc908c32381ed49fdeb1292ac1c67739b2cdc24fa8dd90b374be3dea0c39b6fbbcfba97c2c14eff7210144cacee7740fec8dfbbfccecfa85078bfa657",
      "networkId": 0,
      "chainId": 0
    },
    {
      "hash": "0x6918b2453eb87029513a55661f3adfe1f05fba2dfb3643ca191ed33521765980",
      "blockHash": "0x8d08f256292b1ff59d9c77861b12939c39ea7bb4530e08d3bb1b40e70f04c2d5",
      "blockNumber": 59901,
      "transactionIndex": 1,
      "confirmations": null,
      "from": "0x8cC0d7C016FA7aA950114Aa1db094882eDa274ea",
      "gasPrice": {
        "_hex": "0xd3c662acf"
      },
      "gasLimit": {
        "_hex": "0x15f90"
      },
      "to": "0x8Aeeb005cE1a716447BEcc2fd3896685B0dEcD4C",
      "value": {
        "_hex": "0x572969b00130c00"
      },
      "nonce": 1,
      "data": "0x",
      "r": "0x8efa5fc5c6f64b1d7857a1ba53d3eeaced55338deb6c68e5be916b8523de1ccc",
      "s": "0x636581b8172b6b482576dfa42a87c7cbac66242fb3e9a540f689045c37390349",
      "v": 27,
      "creates": null,
      "raw": "0xf86d01850d3c662acf83015f90948aeeb005ce1a716447becc2fd3896685b0decd4c880572969b00130c00801ba08efa5fc5c6f64b1d7857a1ba53d3eeaced55338deb6c68e5be916b8523de1ccca0636581b8172b6b482576dfa42a87c7cbac66242fb3e9a540f689045c37390349",
      "networkId": 0,
      "chainId": 0
    }
  ]
}