{
  "hash": "0xd3bdfcf44d113e57c0a20ecfb6b251e7ce84677feff1d75ef393dc7c00ceaab5",
  "parentHash": "0x6c54760bfba28d161aea29e0dfee4fd1b90fec627d6e2745ab1e9499b669898e",
  "number": 48444,
  "timestamp": 1438957234,
  "nonce": "0xfe12db22f85429db",
  "difficulty": 1460020578421,
  "gasLimit": {
    "_hex": "0x174d4"
  },
  "gasUsed": {
    "_hex": "0x546c"
  },
  "miner": "0xbb7B8287f3F0a933474a79eAe42CBCa977791171",
  "extraData": "0x476574682f4c5649562f76312e302e312f6c696e75782f676f312e342e32",
  "transactions": [
    {
      "hash": "0xe9989ccb4e5932b25a9150beac17325992407c664d30effe4f9ec61d1164bf2c",
      "blockHash": "0xd3bdfcf44d113e57c0a20ecfb6b251e7ce84677feff1d75ef393dc7c00ceaab5",
      "blockNumber": 48444,
      "transactionIndex": 0,
      "confirmations": null,
      "from": "0x8f22398F1567CDDABA1b6bB1973E62B4992d5c9C",
      "gasPrice": {
        "_hex": "0x10e43e3b6f8"
      },
      "gasLimit": {
        "_hex": "0x15f90"
      },
      "to": "0x2910543Af39abA0Cd09dBb2D50200b3E800A63D2",
      "value": {
        "_hex": "0x4563918244f40000"
      },
      "nonce": 0,
      "data": "0x454e41564e57344e47",
      "r": "0x5cc9e6cd63a2805649737fc80999eaa3b79316dddf798fb05eddead6a4deea00",
      "s": "0x4f2fbc41cdefdd0c7f91db61787a783acdf0721f5c78c96221ac6344348523d9",
      "v": 28,
      "creates": null,
      "raw": "0xf8778086010e43e3b6f883015f90942910543af39aba0cd09dbb2d50200b3e800a63d2884563918244f4000089454e41564e57344e471ca05cc9e6cd63a2805649737fc80999eaa3b79316dddf798fb05eddead6a4deea00a04f2fbc41cdefdd0c7f91db61787a783acdf0721f5c78c96221ac6344348523d9",
      "networkId": 0,
      "chainId": 0
    }
  ]
}