{
  "hash": "0x71779e62379064c8914154b51696484ea29eafb0705c63e1565f89df20ebd0bf",
  "parentHash": "0xd9ebff8c530571e090c18800071de2545ccedc3ac5492c8d9bda46035e6a3c5d",
  "number": 54291,
  "timestamp": 1439051794,
  "nonce": "0x223a5b5466ae139f",
  "difficulty": 1604750615712,
  "gasLimit": {
    "_hex": "0x2fefd8"
  },
  "gasUsed": {
    "_hex": "0x5208"
  },
  "miner": "0xF2d2AfF1320476cb8C6b607199D23175cc595693",
  "extraData": "0x476574682f76312e302e312f77696e646f77732f676f312e342e32",
  "transactions": [
    {
      "hash": "0x7d656269ce4f27e502b61b00f4ba9f49f345f9feb3b2be10010187875991d652",
      "blockHash": "0x71779e62379064c8914154b51696484ea29eafb0705c63e1565f89df20ebd0bf",
      "blockNumber": 54291,
      "transactionIndex": 0,
      "confirmations": null,
      "from": "0xC151A0473225AE2768CF864F30ef38AC4b36C06C",
      "gasPrice": {
        "_hex": "0xcf7e9c306"
      },
      "gasLimit": {
        "_hex": "0x5208"
      },
      "to": "0x109C4f2CCc82C4d77Bde15F306707320294Aea3F",
      "value": {
        "_hex": "0xde0b6b3a7640000"
      },
      "nonce": 2,
      "data": "0x",
      "r": "0xd2836d3c53b082c3e73c6212c2e2786e05b604e2969b6891c0ea6385faa538a1",
      "s": "0x532a7a3a88b5a50307ba5f0fe43fd674594041c4c674f7fae04ca5d8a115e878",
      "v": 28,
      "creates": null,
      "raw": "0xf86c02850cf7e9c30682520894109c4f2ccc82c4d77bde15f306707320294aea3f880de0b6b3a7640000801ca0d2836d3c53b082c3e73c6212c2e2786e05b604e2969b6891c0ea6385faa538a1a0532a7a3a88b5a50307ba5f0fe43fd674594041c4c674f7fae04ca5d8a115e878",
      "networkId": 0,
      "chainId": 0
    }
  ]
}