{
  "hash": "0x1164ef5d71ce10852872822318ca7dcc5be320ba60c91134b340c9bb0500c799",
  "parentHash": "0x811a768e69af3456d632921482fa9101537b6b951537e49efe0ca2117944e915",
  "number": 57541,
  "timestamp": 1439105302,
  "nonce": "0x1a60693d7cca98fc",
  "difficulty": 1729402984182,
  "gasLimit": {
    "_hex": "0x2fefd8"
  },
  "gasUsed": {
    "_hex": "0xa410"
  },
  "miner": "0x2C674A948592B20a4B775E1a3991Db043E6CF0FE",
  "extraData": "0x476574682f76312e302e312d38326566323666362f6c696e75782f676f312e34",
  "transactions": [
    {
      "hash": "0x331222102888bc88d915fc6ec4525d4ed63375f967482eaff6ab966d4ed25cbe",
      "blockHash": "0x1164ef5d71ce10852872822318ca7dcc5be320ba60c91134b340c9bb0500c799",
      "blockNumber": 57541,
      "transactionIndex": 0,
      "confirmations": null,
      "from": "0xfC989CB487bf1a7d17E4C1B7C4B7aaFdda6B0a8D",
      "gasPrice": {
        "_hex": "0x746a528800"
      },
      "gasLimit": {
        "_hex": "0x5267"
      },
      "to": "0x33F36DffD23cf019833E1d59cBc7138824b12289",
      "value": {
        "_hex": "0xca8132b03280000"
      },
      "nonce": 1,
      "data": "0x",
      "r": "0xd0c8d9a1b4252720b0091c62488d1387d07bae720f7e87ec23e843f141144947",
      "s": "0xdd2f9436fa05b504ecd191bda8eda064f53da018df51c1257d95265ca40dd229",
      "v": 28,
      "creates": null,
      "raw": "0xf86c0185746a5288008252679433f36dffd23cf019833e1d59cbc7138824b12289880ca8132b03280000801ca0d0c8d9a1b4252720b0091c62488d1387d07bae720f7e87ec23e843f141144947a0dd2f9436fa05b504ecd191bda8eda064f53da018df51c1257d95265ca40dd229",
      "networkId": 0,
      "chainId": 0
    },
    {
      "hash": "0xf65dd9413858111dc658c2be8121cfbec3faaaeff33c30487be944dd93954d99",
      "blockHash": "0x1164ef5d71ce10852872822318ca7dcc5be320ba60c91134b340c9bb0500c799",
      "blockNumber": 57541,
      "transactionIndex": 1,
      "confirmations": null,
      "from": "0xB7268c7705A1866b2A78e882fdfDc8E2a4e1428E",
      "gasPrice": {
        "_hex": "0xd6d9651bf"
      },
      "gasLimit": {
        "_hex": "0x15f90"
      },
      "to": "0x96811Ad897894eC178872117C8BF2f03971A393B",
      "value": {
        "_hex": "0x4563918244f40000"
      },
      "nonce": 5,
      "data": "0x",
      "r": "0x8c95bcfccd6c1a8095ea8650c4130efc12e57ad8df71216c01f76b40f5897889",
      "s": "0x429ff724be4271e2a900a272592c18683dae2571f486978dda69ebb7fb70474c",
      "v": 28,
      "creates": null,
      "raw": "0xf86d05850d6d9651bf83015f909496811ad897894ec178872117c8bf2f03971a393b884563918244f40000801ca08c95bcfccd6c1a8095ea8650c4130efc12e57ad8df71216c01f76b40f5897889a0429ff724be4271e2a900a272592c18683dae2571f486978dda69ebb7fb70474c",
      "networkId": 0,
      "chainId": 0
    }
  ]
}