{
  "hash": "0xf698a512b2b14c5ec5a2e18303318858cf3a80c9fe04d95dc2a65dec72b22ad0",
  "parentHash": "0xc0d1a8a921cb8866e6fa7880533ccb9438c826b64312435e4b700cc5569a45d7",
  "number": 69028,
  "timestamp": 1439297347,
  "nonce": "0x15c08afe7b2aed65",
  "difficulty": 2039920456589,
  "gasLimit": {
    "_hex": "0x2fefd8"
  },
  "gasUsed": {
    "_hex": "0x29040"
  },
  "miner": "0xe6A7a1d47ff21B6321162AEA7C6CB457D5476Bca",
  "extraData": "0x476574682f76312e302e312d38326566323666362f6c696e75782f676f312e34",
  "transactions": [
    {
      "hash": "0x7b7bc9ab29500ff03df0692376d8d7c876d2c4dfd8b213a2269a79c730cbbdc7",
      "blockHash": "0xf698a512b2b14c5ec5a2e18303318858cf3a80c9fe04d95dc2a65dec72b22ad0",
      "blockNumber": 69028,
      "transactionIndex": 0,
      "confirmations": null,
      "from": "0xC432c9Acf2CD728b0f53AbDE2caa535c432bF36a",
      "gasPrice": {
        "_hex": "0xdc09aa739"
      },
      "gasLimit": {
        "_hex": "0x15f90"
      },
      "to": "0x01Ad0ACFf478127D9d702B1A13599D706cB759b1",
      "value": {
        "_hex": "0xd2f13f7789f00000"
      },
      "nonce": 2,
      "data": "0x",
      "r": "0xffe99175b2a9158a66a4ca34ca0ada42e8fd68eefd619283719f7ad15ac84b43",
      "s": "0x5da482a8360476a0cb94db616f7b2bc2ff7becd52439ae2b957022c1c444a5b4",
      "v": 27,
      "creates": null,
      "raw": "0xf86d02850dc09aa73983015f909401ad0acff478127d9d702b1a13599d706cb759b188d2f13f7789f00000801ba0ffe99175b2a9158a66a4ca34ca0ada42e8fd68eefd619283719f7ad15ac84b43a05da482a8360476a0cb94db616f7b2bc2ff7becd52439ae2b957022c1c444a5b4",
      "networkId": 0,
      "chainId": 0
    },
    {
      "hash": "0xb95df3338b1e583e9fa78b4113b1bdb71f4beadb65eaee066008a517a5744b03",
      "blockHash": "0xf698a512b2b14c5ec5a2e18303318858cf3a80c9fe04d95dc2a65dec72b22ad0",
      "blockNumber": 69028,
      "transactionIndex": 1,
      "confirmations": null,
      "from": "0xb67Ed294E8Ca7Cf86790F337BF41701e13F7c23d",
      "gasPrice": {
        "_hex": "0xba43b7400"
      },
      "gasLimit": {
        "_hex": "0x5208"
      },
      "to": "0x53620B11F966B9c1eC93a27DF446D8cC706b50b2",
      "value": {
        "_hex": "0x1c045218ee54000"
      },
      "nonce": 1,
      "data": "0x",
      "r": "0x27b6ecec338ee4ce518f32029a7eb14eeff05f74609aa2c93a2110b409812953",
      "s": "0x6d8c282080138a720ce968f27c8c0eabf1e7f78b703abd0b6439ccab7696da55",
      "v": 28,
      "creates": null,
      "raw": "0xf86c01850ba43b74008252089453620b11f966b9c1ec93a27df446d8cc706b50b28801c045218ee54000801ca027b6ecec338ee4ce518f32029a7eb14eeff05f74609aa2c93a2110b409812953a06d8c282080138a720ce968f27c8c0eabf1e7f78b703abd0b6439ccab7696da55",
      "networkId": 0,
      "chainId": 0
    },
    {
      "hash": "0x90624ea1fa93a0f96075e0e03a18def6175959a22c0cc4deaa3afceda153a310",
      "blockHash": "0xf698a512b2b14c5ec5a2e18303318858cf3a80c9fe04d95dc2a65dec72b22ad0",
      "blockNumber": 69028,
      "transactionIndex": 2,
      "confirmations": null,
      "from": "0x915775888190057412254bC8619eb816aa304101",
      "gasPrice": {
        "_hex": "0xba43b7400"
      },
      "gasLimit": {
        "_hex": "0x5208"
      },
      "to": "0x9ea9889F198FB8bAd2076Edbdc62a4cc1b3d3840",
      "value": {
        "_hex": "0x1c045218ee54000"
      },
      "nonce": 1,
      "data": "0x",
      "r": "0xf6b358a23555dbf7eba03ad48696650ead86a980eeb293d3811b44adf39ecb9c",
      "s": "0x448676517075d407b0ce660f8e14e245cd32486e2cb5cd0466647af3989e796b",
      "v": 27,
      "creates": null,
      "raw": "0xf86c01850ba43b7400825208949ea9889f198fb8bad2076edbdc62a4cc1b3d38408801c045218ee54000801ba0f6b358a23555dbf7eba03ad48696650ead86a980eeb293d3811b44adf39ecb9ca0448676517075d407b0ce660f8e14e245cd32486e2cb5cd0466647af3989e796b",
      "networkId": 0,
      "chainId": 0
    },
    {
      "hash": "0xbc77637c0420e39c39e4e677049bc243b5b36cbd59459c90f0a00343526c70ad",
      "blockHash": "0xf698a512b2b14c5ec5a2e18303318858cf3a80c9fe04d95dc2a65dec72b22ad0",
      "blockNumber": 69028,
      "transactionIndex": 3,
      "confirmations": null,
      "from": "0x910cbE9a6a92cFDE14572bd3f609a228aB874F15",
      "gasPrice": {
        "_hex": "0xba43b7400"
      },
      "gasLimit": {
        "_hex": "0x5208"
      },
      "to": "0xFc06CB6964D5a2c4d4025Ea7D7947f5Bd2B5c31d",
      "value": {
        "_hex": "0x1c045218ee54000"
      },
      "nonce": 1,
      "data": "0x",
      "r": "0x7994dc425eae0a82704302cb328925b0dff6fc4b801941843dfc68289e4f0e98",
      "s": "0x389ffd6fba645fa58f3fe03d120d4f8f4097d57dd9eccebe2ce56ddb950e7ccb",
      "v": 28,
      "creates": null,
      "raw": "0xf86c01850ba43b740082520894fc06cb6964d5a2c4d4025ea7d7947f5bd2b5c31d8801c045218ee54000801ca07994dc425eae0a82704302cb328925b0dff6fc4b801941843dfc68289e4f0e98a0389ffd6fba645fa58f3fe03d120d4f8f4097d57dd9eccebe2ce56ddb950e7ccb",
      "networkId": 0,
      "chainId": 0
    },
    {
      "hash": "0xb04b2a4db0f96f7db7b1846221b34978754a69041e2f8cc94f8cdb4ea319c39b",
      "blockHash": "0xf698a512b2b14c5ec5a2e18303318858cf3a80c9fe04d95dc2a65dec72b22ad0",
      "blockNumber": 69028,
      "transactionIndex": 4,
      "confirmations": null,
      "from": "0xb5da863Ff37d16C4C65483405Da4b37BAD01f6cf",
      "gasPrice": {
        "_hex": "0xba43b7400"
      },
      "gasLimit": {
        "_hex": "0x5208"
      },
      "to": "0xb2f3d39d99a4Fd78c0E5B08DDc533fE5Dd927ae4",
      "value": {
        "_hex": "0x1c045218ee54000"
      },
      "nonce": 1,
      "data": "0x",
      "r": "0x35f0670ff6a73fa55c6358a8a9840170ed1ec8689fc6f68a8669ca2dea9a65ac",
      "s": "0x304b6ab90b80c948c6418e159598ff282e7f3043a7fe9e23529c072a7e284915",
      "v": 28,
      "creates": null,
      "raw": "0xf86c01850ba43b740082520894b2f3d39d99a4fd78c0e5b08ddc533fe5dd927ae48801c045218ee54000801ca035f0670ff6a73fa55c6358a8a9840170ed1ec8689fc6f68a8669ca2dea9a65aca0304b6ab90b80c948c6418e159598ff282e7f3043a7fe9e23529c072a7e284915",
      "networkId": 0,
      "chainId": 0
    },
    {
      "hash": "0x9877687575ecddbef001e214350b30ea83e8babf056938b58c6043775b6c6ca5",
      "blockHash": "0xf698a512b2b14c5ec5a2e18303318858cf3a80c9fe04d95dc2a65dec72b22ad0",
      "blockNumber": 69028,
      "transactionIndex": 5,
      "confirmations": null,
      "from": "0xc34f0900f81bD9c626E95C118Fec2d19EBCf1DBc",
      "gasPrice": {
        "_hex": "0xba43b7400"
      },
      "gasLimit": {
        "_hex": "0x5208"
      },
      "to": "0x0493806581BeC844614686B5033B6fa994ef5e2A",
      "value": {
        "_hex": "0x1c045218ee54000"
      },
      "nonce": 1,
      "data": "0x",
      "r": "0x26f0e26fe5caef642f16e1928d00210714a2b2b22a44977d5a87764d55cd86a4",
      "s": "0x057a1ba884c3f290b2607dd0eb6a573aad61e12d39e90bba6809ca6f8bb67a4d",
      "v": 27,
      "creates": null,
      "raw": "0xf86c01850ba43b7400825208940493806581bec844614686b5033b6fa994ef5e2a8801c045218ee54000801ba026f0e26fe5caef642f16e1928d00210714a2b2b22a44977d5a87764d55cd86a4a0057a1ba884c3f290b2607dd0eb6a573aad61e12d39e90bba6809ca6f8bb67a4d",
      "networkId": 0,
      "chainId": 0
    },
    {
      "hash": "0x48adfec5ecb7dcc478a531d19cb429d8015bfac0a946e424c6039df991d1c1ac",
      "blockHash": "0xf698a512b2b14c5ec5a2e18303318858cf3a80c9fe04d95dc2a65dec72b22ad0",
      "blockNumber": 69028,
      "transactionIndex": 6,
      "confirmations": null,
      "from": "0xd91B5a3bCDC372d101Be20dAC2C099080F6b646D",
      "gasPrice": {
        "_hex": "0xba43b7400"
      },
      "gasLimit": {
        "_hex": "0x5208"
      },
      "to": "0x4B3d47490a0652225aBA8597c8F5918533f838aA",
      "value": {
        "_hex": "0x1c045218ee54000"
      },
      "nonce": 1,
      "data": "0x",
      "r": "0xdeaa72ff9363da899b38ea59c3c98a3af1ecc44bb2fe87fbc1bd94c1864f935f",
      "s": "0x66e1e2fc354d1fbae4de7b2169c152b2e517badd011b079529dce750ff55ef4e",
      "v": 27,
      "creates": null,
      "raw": "0xf86c01850ba43b7400825208944b3d47490a0652225aba8597c8f5918533f838aa8801c045218ee54000801ba0deaa72ff9363da899b38ea59c3c98a3af1ecc44bb2fe87fbc1bd94c1864f935fa066e1e2fc354d1fbae4de7b2169c152b2e517badd011b079529dce750ff55ef4e",
      "networkId": 0,
      "chainId": 0
    },
    {
      "hash": "0x317c7b2e99e253f998aec526b237a3c4e17af9b5a46a8c2588595c9ccf2486bd",
      "blockHash": "0xf698a512b2b14c5ec5a2e18303318858cf3a80c9fe04d95dc2a65dec72b22ad0",
      "blockNumber": 69028,
      "transactionIndex": 7,
      "confirmations": null,
      "from": "0xc776b584fdDfCfc935031E3687D4410d6ec1499F",
      "gasPrice": {
        "_hex": "0xba43b7400"
      },
      "gasLimit": {
        "_hex": "0x5208"
      },
      "to": "0x9Efe7eD2d1C4B7Db092D0FACAA71dF86E1876203",
      "value": {
        "_hex": "0x1c045218ee54000"
      },
      "nonce": 1,
      "data": "0x",
      "r": "0xafeb1712f68b738ac9f6762e76d40c46bbd705816a7e283e9120dd11242f4576",
      "s": "0x4e9cbf931d056d179fbf81affa79c2ecff889ea0e5e075978ec999361270694a",
      "v": 28,
      "creates": null,
      "raw": "0xf86c01850ba43b7400825208949efe7ed2d1c4b7db092d0facaa71df86e18762038801c045218ee54000801ca0afeb1712f68b738ac9f6762e76d40c46bbd705816a7e283e9120dd11242f4576a04e9cbf931d056d179fbf81affa79c2ecff889ea0e5e075978ec999361270694a",
      "networkId": 0,
      "chainId": 0
    }
  ]
}