{
  "hash": "0xa51acf6e1416f26403c26e4f218f971944d619dbf05f3f6ee4436fa9f55e6d18",
  "parentHash": "0x7229742df05e7fc53c37fcd992466b78d91378999504e81a9d1a43564943ef45",
  "number": 89879,
  "timestamp": 1439630628,
  "nonce": "0x309712414fe18dce",
  "difficulty": 3333682553229,
  "gasLimit": {
    "_hex": "0x2fefd8"
  },
  "gasUsed": {
    "_hex": "0x19a28"
  },
  "miner": "0x3FEe2E5f121CFb9d6D9BAb6Cec64eb60585124d4",
  "extraData": "0x476574682f76312e302e312f77696e646f77732f676f312e342e32",
  "transactions": [
    {
      "hash": "0x85cda7500ef1175348b951f88b9dfbcdd9168cf49495a22f72b42577371cd855",
      "blockHash": "0xa51acf6e1416f26403c26e4f218f971944d619dbf05f3f6ee4436fa9f55e6d18",
      "blockNumber": 89879,
      "transactionIndex": 0,
      "confirmations": null,
      "from": "0xB9eE81c1A5CdE84454DC603a8000836118627cfd",
      "gasPrice": {
        "_hex": "0xcfec42745"
      },
      "gasLimit": {
        "_hex": "0x5208"
      },
      "to": "0x32Be343B94f860124dC4fEe278FDCBD38C102D88",
      "value": {
        "_hex": "0x6307b665b2d388000"
      },
      "nonce": 2,
      "data": "0x",
      "r": "0x6ec5eb305354f459add5a94f00ff5fa5f2d1e2681fd5f8036eb05daad88713ab",
      "s": "0x012ef925738a4c94c813b889b88fb51256424a7ab73f9094eb2dab0e9a9dc900",
      "v": 27,
      "creates": null,
      "raw": "0xf86d02850cfec427458252089432be343b94f860124dc4fee278fdcbd38c102d888906307b665b2d388000801ba06ec5eb305354f459add5a94f00ff5fa5f2d1e2681fd5f8036eb05daad88713aba0012ef925738a4c94c813b889b88fb51256424a7ab73f9094eb2dab0e9a9dc900",
      "networkId": 0,
      "chainId": 0
    },
    {
      "hash": "0x0daf80d040153b15ff246166148af0efa7e49c55cb16ac35dde3133d5f2697a5",
      "blockHash": "0xa51acf6e1416f26403c26e4f218f971944d619dbf05f3f6ee4436fa9f55e6d18",
      "blockNumber": 89879,
      "transactionIndex": 1,
      "confirmations": null,
      "from": "0x5D9067970755043fF5cE7FA2cd21C12F3646Bc55",
      "gasPrice": {
        "_hex": "0xcfec42745"
      },
      "gasLimit": {
        "_hex": "0x5208"
      },
      "to": "0x32Be343B94f860124dC4fEe278FDCBD38C102D88",
      "value": {
        "_hex": "0x2292bef7903690000"
      },
      "nonce": 2,
      "data": "0x",
      "r": "0x7a0b58d1da6d46b6274e7cf7b7cbddbe3f066404356a1d0e0884483c43d757b5",
      "s": "0x3e51939a650ec3beda976a541b681caecef403754bb66313ec3858952043023b",
      "v": 28,
      "creates": null,
      "raw": "0xf86d02850cfec427458252089432be343b94f860124dc4fee278fdcbd38c102d888902292bef7903690000801ca07a0b58d1da6d46b6274e7cf7b7cbddbe3f066404356a1d0e0884483c43d757b5a03e51939a650ec3beda976a541b681caecef403754bb66313ec3858952043023b",
      "networkId": 0,
      "chainId": 0
    },
    {
      "hash": "0xd6a3dd4ca1fad03944d41dd63a7721f24da170c3be139860d0d21bca8142d049",
      "blockHash": "0xa51acf6e1416f26403c26e4f218f971944d619dbf05f3f6ee4436fa9f55e6d18",
      "blockNumber": 89879,
      "transactionIndex": 2,
      "confirmations": null,
      "from": "0x357A01795bfA480a007fB4B1B6eDf2e8C23f1840",
      "gasPrice": {
        "_hex": "0xcfec42745"
      },
      "gasLimit": {
        "_hex": "0x5208"
      },
      "to": "0x32Be343B94f860124dC4fEe278FDCBD38C102D88",
      "value": {
        "_hex": "0x5d8fdf7978582000"
      },
      "nonce": 3,
      "data": "0x",
      "r": "0x66526046134afc21f8f8c7163adf2ef665c0ef6859ff861599d8998b4749dc85",
      "s": "0x21b2231f98aa5308ccaa35ced7e06a7eb40389ff3d19d3e8c6f8e8d1fbf59ff8",
      "v": 28,
      "creates": null,
      "raw": "0xf86c03850cfec427458252089432be343b94f860124dc4fee278fdcbd38c102d88885d8fdf7978582000801ca066526046134afc21f8f8c7163adf2ef665c0ef6859ff861599d8998b4749dc85a021b2231f98aa5308ccaa35ced7e06a7eb40389ff3d19d3e8c6f8e8d1fbf59ff8",
      "networkId": 0,
      "chainId": 0
    },
    {
      "hash": "0x0790969c3b6f51d739e50b848b11c0fc5ce121379113a7b77388100b1614f272",
      "blockHash": "0xa51acf6e1416f26403c26e4f218f971944d619dbf05f3f6ee4436fa9f55e6d18",
      "blockNumber": 89879,
      "transactionIndex": 3,
      "confirmations": null,
      "from": "0x7001C4730b81A539eF8b760A3eEb14C64515137B",
      "gasPrice": {
        "_hex": "0xcfec42745"
      },
      "gasLimit": {
        "_hex": "0x5208"
      },
      "to": "0x32Be343B94f860124dC4fEe278FDCBD38C102D88",
      "value": {
        "_hex": "0x4168dac39e261c000"
      },
      "nonce": 1,
      "data": "0x",
      "r": "0x85781b5bffaaf8c1e6e38d39c4b8347fc173b984d711de6c1cd539cb757de685",
      "s": "0x5852e7eabbfab4ef6823c0088c9adb2ff4adb246a905b30cf0ece219f11024ec",
      "v": 27,
      "creates": null,
      "raw": "0xf86d01850cfec427458252089432be343b94f860124dc4fee278fdcbd38c102d888904168dac39e261c000801ba085781b5bffaaf8c1e6e38d39c4b8347fc173b984d711de6c1cd539cb757de685a05852e7eabbfab4ef6823c0088c9adb2ff4adb246a905b30cf0ece219f11024ec",
      "networkId": 0,
      "chainId": 0
    },
    {
      "hash": "0x2e5bc3d1dd6516c4aad22f57f3cd704ddee3ab2c82c54e285309f581b30061a3",
      "blockHash": "0xa51acf6e1416f26403c26e4f218f971944d619dbf05f3f6ee4436fa9f55e6d18",
      "blockNumber": 89879,
      "transactionIndex": 4,
      "confirmations": null,
      "from": "0x9A6eb0bBBE50281644D7a7839147F59819506Ac0",
      "gasPrice": {
        "_hex": "0xcfec42745"
      },
      "gasLimit": {
        "_hex": "0x5208"
      },
      "to": "0x32Be343B94f860124dC4fEe278FDCBD38C102D88",
      "value": {
        "_hex": "0xc5ff1c584696b000"
      },
      "nonce": 1,
      "data": "0x",
      "r": "0x46cd7ae2c5ac6f8cd4c77d88e77ad0151fe2f6cf904d47203188918e3fc2f506",
      "s": "0x72042e3112f5c5c4e00f56c41e22fb0ed9e7c5699623dbb51b88883b6703b71c",
      "v": 28,
      "creates": null,
      "raw": "0xf86c01850cfec427458252089432be343b94f860124dc4fee278fdcbd38c102d8888c5ff1c584696b000801ca046cd7ae2c5ac6f8cd4c77d88e77ad0151fe2f6cf904d47203188918e3fc2f506a072042e3112f5c5c4e00f56c41e22fb0ed9e7c5699623dbb51b88883b6703b71c",
      "networkId": 0,
      "chainId": 0
    }
  ]
}