{
  "hash": "0x7c00a7d6add0af682962fe75cfe9de8f8391d19c8c4ad14f6332d40027ee5420",
  "parentHash": "0xafc3afd48ed2256bfd34939122dc7466a9a93bc8fb61864286b85cff0a2eabcd",
  "number": 54321,
  "timestamp": 1439052185,
  "nonce": "0xfbcacf5b8bc92df1",
  "difficulty": 1609453171611,
  "gasLimit": {
    "_hex": "0x2fefd8"
  },
  "gasUsed": {
    "_hex": "0x249f00"
  },
  "miner": "0x753562eEA69CD2D342A9c07EDD49b9753dc0F01e",
  "extraData": "0x",
  "transactions": [
    {
      "hash": "0xa78b9ddf22e6631e23a891a61fbbadfa42e75b694327fdf1f2a562aa9278939d",
      "blockHash": "0x7c00a7d6add0af682962fe75cfe9de8f8391d19c8c4ad14f6332d40027ee5420",
      "blockNumber": 54321,
      "transactionIndex": 0,
      "confirmations": null,
      "from": "0x8674c218F0351a62C3BA78C34FD2182A93Da94E2",
      "gasPrice": {
        "_hex": "0xba43b7400"
      },
      "gasLimit": {
        "_hex": "0x30d40"
      },
      "to": "0xd51Ead1dAA49bf10cF495430b8826780966130EF",
      "value": {
        "_hex": "0x0"
      },
      "nonce": 19,
      "data": "0xde6f24bb0000000000000000000000008674c218f0351a62c3ba78c34fd2182a93da94e20000000000000000000000000000000000000000000000000000000000000040000000000000000000000000000000000000000000000000000000000000000668656c6c6f210000000000000000000000000000000000000000000000000000",
      "r": "0x62fdeef06d2f23abadd7644f9f0fc3f84b66de02e309b1619f2c058d0ce72012",
      "s": "0x77fa87420834d3d87ed02c2a2196ad566fe213504ee3ab1edd38ce9f7cd347d1",
      "v": 27,
      "creates": null,
      "raw": "0xf8ea13850ba43b740083030d4094d51ead1daa49bf10cf495430b8826780966130ef80b884de6f24bb0000000000000000000000008674c218f0351a62c3ba78c34fd2182a93da94e20000000000000000000000000000000000000000000000000000000000000040000000000000000000000000000000000000000000000000000000000000000668656c6c6f2100000000000000000000000000000000000000000000000000001ba062fdeef06d2f23abadd7644f9f0fc3f84b66de02e309b1619f2c058d0ce72012a077fa87420834d3d87ed02c2a2196ad566fe213504ee3ab1edd38ce9f7cd347d1",
      "networkId": 0,
      "chainId": 0
    },
    {
      "hash": "0x5325f6c5a778056f7654a472dad67dd0d65d18ce71f6cec296ff8de0dd8d0406",
      "blockHash": "0x7c00a7d6add0af682962fe75cfe9de8f8391d19c8c4ad14f6332d40027ee5420",
      "blockNumber": 54321,
      "transactionIndex": 1,
      "confirmations": null,
      "from": "0x8674c218F0351a62C3BA78C34FD2182A93Da94E2",
      "gasPrice": {
        "_hex": "0x174876e800"
      },
      "gasLimit": {
        "_hex": "0x30d40"
      },
      "to": "0xd51Ead1dAA49bf10cF495430b8826780966130EF",
      "value": {
        "_hex": "0x0"
      },
      "nonce": 20,
      "data": "0xde6f24bb0000000000000000000000008674c218f0351a62c3ba78c34fd2182a93da94e20000000000000000000000000000000000000000000000000000000000000040000000000000000000000000000000000000000000000000000000000000000668656c6c6f210000000000000000000000000000000000000000000000000000",
      "r": "0xf5f3382e77ce65f4f71ab3e51c6e3587b54e0b74b1c05b2f551988aa7998cb4b",
      "s": "0x610b88d3b98cbc86ccb4e0e4e5cacdcdfdc37652158d9660ab623e611b71daf1",
      "v": 28,
      "creates": null,
      "raw": "0xf8ea1485174876e80083030d4094d51ead1daa49bf10cf495430b8826780966130ef80b884de6f24bb0000000000000000000000008674c218f0351a62c3ba78c34fd2182a93da94e20000000000000000000000000000000000000000000000000000000000000040000000000000000000000000000000000000000000000000000000000000000668656c6c6f2100000000000000000000000000000000000000000000000000001ca0f5f3382e77ce65f4f71ab3e51c6e3587b54e0b74b1c05b2f551988aa7998cb4ba0610b88d3b98cbc86ccb4e0e4e5cacdcdfdc37652158d9660ab623e611b71daf1",
      "networkId": 0,
      "chainId": 0
    },
    {
      "hash": "0x4ba0ce46341396f2e49a5521d3cd927bd65ca6c60e0e425ee43299c227a71aa6",
      "blockHash": "0x7c00a7d6add0af682962fe75cfe9de8f8391d19c8c4ad14f6332d40027ee5420",
      "blockNumber": 54321,
      "transactionIndex": 2,
      "confirmations": null,
      "from": "0x8674c218F0351a62C3BA78C34FD2182A93Da94E2",
      "gasPrice": {
        "_hex": "0x174876e800"
      },
      "gasLimit": {
        "_hex": "0x1e8480"
      },
      "to": "0xd51Ead1dAA49bf10cF495430b8826780966130EF",
      "value": {
        "_hex": "0x0"
      },
      "nonce": 21,
      "data": "0xde6f24bb0000000000000000000000008674c218f0351a62c3ba78c34fd2182a93da94e20000000000000000000000000000000000000000000000000000000000000040000000000000000000000000000000000000000000000000000000000000000668656c6c6f210000000000000000000000000000000000000000000000000000",
      "r": "0x6ef0a8b4041f7813aeee3f9860eecd5c052c2fdbcc827711282025715dc28818",
      "s": "0x47bc9043c67c09420b6cd007b3a502612835bd1cded33cd1547a0ba48c6eabd9",
      "v": 27,
      "creates": null,
      "raw": "0xf8ea1585174876e800831e848094d51ead1daa49bf10cf495430b8826780966130ef80b884de6f24bb0000000000000000000000008674c218f0351a62c3ba78c34fd2182a93da94e20000000000000000000000000000000000000000000000000000000000000040000000000000000000000000000000000000000000000000000000000000000668656c6c6f2100000000000000000000000000000000000000000000000000001ba06ef0a8b4041f7813aeee3f9860eecd5c052c2fdbcc827711282025715dc28818a047bc9043c67c09420b6cd007b3a502612835bd1cded33cd1547a0ba48c6eabd9",
      "networkId": 0,
      "chainId": 0
    }
  ]
}