{
  "hash": "0x97fd19cdc4193d27e20d73721cf295a45647d0e1d007b479680f15193f72c95b",
  "parentHash": "0xd17c2ac135ea9135f633dcad5b3073ec4b85d659fe5600bd8b2186ef159354ec",
  "number": 107607,
  "timestamp": 1439925532,
  "nonce": "0x9a65c14c718afd7d",
  "difficulty": 4381341119045,
  "gasLimit": {
    "_hex": "0x2fefd8"
  },
  "gasUsed": {
    "_hex": "0xa410"
  },
  "miner": "0xf8E0CA3Ed80bd541b94BEdCf259e8CF2141A9523",
  "extraData": "0x476574682f76312e302e312f77696e646f77732f676f312e342e32",
  "transactions": [
    {
      "hash": "0x5e8e8108586b70d9eee2b547261accef3d8f50dcc371b7172727ac53979829d6",
      "blockHash": "0x97fd19cdc4193d27e20d73721cf295a45647d0e1d007b479680f15193f72c95b",
      "blockNumber": 107607,
      "transactionIndex": 0,
      "confirmations": null,
      "from": "0x8Ab68e66cBE9f38Ad5C330a6B888DbC73788254A",
      "gasPrice": {
        "_hex": "0x104c533c00"
      },
      "gasLimit": {
        "_hex": "0x5208"
      },
      "to": "0xE95d7Fd32296221C64Dd0049eB7DE3468f365452",
      "value": {
        "_hex": "0x0"
      },
      "nonce": 2,
      "data": "0x",
      "r": "0xe5722fc5af5d1a48eeafa3aa82c4107abf617e195631ca3e18658ce61dbc69fb",
      "s": "0x228bec267d8822cc8e67cf101d8f18193f1dd9682c87d86bb2b3eac626f7ba39",
      "v": 28,
      "creates": null,
      "raw": "0xf8640285104c533c0082520894e95d7fd32296221c64dd0049eb7de3468f36545280801ca0e5722fc5af5d1a48eeafa3aa82c4107abf617e195631ca3e18658ce61dbc69fba0228bec267d8822cc8e67cf101d8f18193f1dd9682c87d86bb2b3eac626f7ba39",
      "networkId": 0,
      "chainId": 0
    },
    {
      "hash": "0x75e5d4ce2dcd106b3b9e0b0ad438cff6907e557009d364bb6b6e9e0e0ef00e4a",
      "blockHash": "0x97fd19cdc4193d27e20d73721cf295a45647d0e1d007b479680f15193f72c95b",
      "blockNumber": 107607,
      "transactionIndex": 1,
      "confirmations": null,
      "from": "0x0AB366E6e7D5AbbcE6B44A438d69a1caBb90d133",
      "gasPrice": {
        "_hex": "0xd78d75459"
      },
      "gasLimit": {
        "_hex": "0x15f90"
      },
      "to": "0xeb5E8925925042dA3Afd0e8062146DB0b2d394A3",
      "value": {
        "_hex": "0xde0b6b3a7640000"
      },
      "nonce": 3,
      "data": "0x",
      "r": "0x065fc71e117e4c5509b57c2b90afaa339201321f8a409f5f3687dc927c66692e",
      "s": "0x4f78149ed40140c0af516e617d5fc5472cf8d530b48e55883ebf6daae8f3474f",
      "v": 27,
      "creates": null,
      "raw": "0xf86d03850d78d7545983015f9094eb5e8925925042da3afd0e8062146db0b2d394a3880de0b6b3a7640000801ba0065fc71e117e4c5509b57c2b90afaa339201321f8a409f5f3687dc927c66692ea04f78149ed40140c0af516e617d5fc5472cf8d530b48e55883ebf6daae8f3474f",
      "networkId": 0,
      "chainId": 0
    }
  ]
}