{
  "hash": "0xc17240b4fdbaf0721c4d899f69fc58541cbb809fa767b22f334055d4a705dc2d",
  "parentHash": "0x11780e91bb5bc707a107f8286d312028e14daab34248724546bef60fb44a3801",
  "number": 81214,
  "timestamp": 1439497905,
  "nonce": "0xcb0ae745730716f2",
  "difficulty": 2457041896893,
  "gasLimit": {
    "_hex": "0x2fefd8"
  },
  "gasUsed": {
    "_hex": "0xa960"
  },
  "miner": "0x46b92ea5c3E696bf123354DfCc564cbac1C90671",
  "extraData": "0x",
  "transactions": [
    {
      "hash": "0x7b1a16cee39a60cc875a621e64c623a490956e94f7d56b3ae03e5a536882e7c1",
      "blockHash": "0xc17240b4fdbaf0721c4d899f69fc58541cbb809fa767b22f334055d4a705dc2d",
      "blockNumber": 81214,
      "transactionIndex": 0,
      "confirmations": null,
      "from": "0x6f4250B4C1Db1B611E43cbd9a04c4138c7c0aF39",
      "gasPrice": {
        "_hex": "0x116a3724521"
      },
      "gasLimit": {
        "_hex": "0x61a8"
      },
      "to": "0x2910543Af39abA0Cd09dBb2D50200b3E800A63D2",
      "value": {
        "_hex": "0xde0b6b3a7640000"
      },
      "nonce": 0,
      "data": "0x584532354554484b52414b454e46305054333538",
      "r": "0xb8ffdc826d7db4250d79cbf2703a4ec434b4e2c1ea95b9e71104a481e6933886",
      "s": "0x3e656858069a6fd55aaf5e9a568c21f5525caa277afa9d66fd8c4b842177597d",
      "v": 27,
      "creates": null,
      "raw": "0xf88180860116a37245218261a8942910543af39aba0cd09dbb2d50200b3e800a63d2880de0b6b3a764000094584532354554484b52414b454e463050543335381ba0b8ffdc826d7db4250d79cbf2703a4ec434b4e2c1ea95b9e71104a481e6933886a03e656858069a6fd55aaf5e9a568c21f5525caa277afa9d66fd8c4b842177597d",
      "networkId": 0,
      "chainId": 0
    },
    {
      "hash": "0x9c7bab07fae748e8d4dd57a3167248d07ab4f550ffe68c8f4c9b55c848a80bf3",
      "blockHash": "0xc17240b4fdbaf0721c4d899f69fc58541cbb809fa767b22f334055d4a705dc2d",
      "blockNumber": 81214,
      "transactionIndex": 1,
      "confirmations": null,
      "from": "0x88a0A05437262a1b65f41A978Cb16CB1f0BFCfE0",
      "gasPrice": {
        "_hex": "0xd3d86958a"
      },
      "gasLimit": {
        "_hex": "0x15f90"
      },
      "to": "0xD9B8E8ad1083a6F83438039BFF0d74Dc06006722",
      "value": {
        "_hex": "0x3e00cd3f19bd44800"
      },
      "nonce": 9,
      "data": "0x",
      "r": "0xf4e389d96d527460246bab0a56238a66e264ecc96901d1cafc0b38f25f7903cc",
      "s": "0x3c814af7776a460c24117386a2d6f56ddeb977294b4931ea76951f999d8a6fff",
      "v": 28,
      "creates": null,
      "raw": "0xf86e09850d3d86958a83015f9094d9b8e8ad1083a6f83438039bff0d74dc060067228903e00cd3f19bd44800801ca0f4e389d96d527460246bab0a56238a66e264ecc96901d1cafc0b38f25f7903cca03c814af7776a460c24117386a2d6f56ddeb977294b4931ea76951f999d8a6fff",
      "networkId": 0,
      "chainId": 0
    }
  ]
}