{
  "hash": "0xf84881369b437b363e0ffc0f2b997800b131585050b9581ae9a38ac056f0df24",
  "parentHash": "0x3b3ecbad3ab1d3b070c117cb81cfcd2bd25619bd87ccc6c17f124bc55a3bad25",
  "number": 90825,
  "timestamp": 1439645992,
  "nonce": "0x78c4e805eacf9f58",
  "difficulty": 3405695473836,
  "gasLimit": {
    "_hex": "0x2fefd8"
  },
  "gasUsed": {
    "_hex": "0xa410"
  },
  "miner": "0x5F8F73E26CdF436f19Cb24C82F90A15AFe55b592",
  "extraData": "0x476574682f76312e302e312f77696e646f77732f676f312e342e32",
  "transactions": [
    {
      "hash": "0xa4dbf210a33db4282d6e927b289214ac00d686e3ac53b53a62de7236e02489f6",
      "blockHash": "0xf84881369b437b363e0ffc0f2b997800b131585050b9581ae9a38ac056f0df24",
      "blockNumber": 90825,
      "transactionIndex": 0,
      "confirmations": null,
      "from": "0x61F642543d22bAf5382908a714E675Cc0b51ea45",
      "gasPrice": {
        "_hex": "0xd31afa41a"
      },
      "gasLimit": {
        "_hex": "0x5208"
      },
      "to": "0x32Be343B94f860124dC4fEe278FDCBD38C102D88",
      "value": {
        "_hex": "0xb4650ccc0ca7f000"
      },
      "nonce": 7,
      "data": "0x",
      "r": "0xe156da2c6da5b760534182d854987bbaac27fe544152d60e77b2e993afaa6a84",
      "s": "0x712b7d3e0f5334ed71233ce9688499e9252ec8b138d9a73b19e18403f7e6da1f",
      "v": 27,
      "creates": null,
      "raw": "0xf86c07850d31afa41a8252089432be343b94f860124dc4fee278fdcbd38c102d8888b4650ccc0ca7f000801ba0e156da2c6da5b760534182d854987bbaac27fe544152d60e77b2e993afaa6a84a0712b7d3e0f5334ed71233ce9688499e9252ec8b138d9a73b19e18403f7e6da1f",
      "networkId": 0,
      "chainId": 0
    },
    {
      "hash": "0x5bb385a89b130d6178fe6345711d1a0969f9cbac3f549793f011e93c7099f15f",
      "blockHash": "0xf84881369b437b363e0ffc0f2b997800b131585050b9581ae9a38ac056f0df24",
      "blockNumber": 90825,
      "transactionIndex": 1,
      "confirmations": null,
      "from": "0xa6BDc31c431B8F97848c9D60cbbe9660dc450eB7",
      "gasPrice": {
        "_hex": "0xd31afa41a"
      },
      "gasLimit": {
        "_hex": "0x5208"
      },
      "to": "0x32Be343B94f860124dC4fEe278FDCBD38C102D88",
      "value": {
        "_hex": "0x4563959c55e6ac00"
      },
      "nonce": 91,
      "data": "0x",
      "r": "0x20e5df8756fe86af1d9b539f634168aa7acec30f68f4783c3ed67c84e8c7e35e",
      "s": "0x227caca3a45f46712b8e7f59d39af5077eea0dad91c1dd3b8a9b9783c291113c",
      "v": 27,
      "creates": null,
      "raw": "0xf86c5b850d31afa41a8252089432be343b94f860124dc4fee278fdcbd38c102d88884563959c55e6ac00801ba020e5df8756fe86af1d9b539f634168aa7acec30f68f4783c3ed67c84e8c7e35ea0227caca3a45f46712b8e7f59d39af5077eea0dad91c1dd3b8a9b9783c291113c",
      "networkId": 0,
      "chainId": 0
    }
  ]
}