{
  "hash": "0xdbd7dbc99142c8d15c9a60762445ddd1e93868e8320cdef683aec71f61a9959d",
  "parentHash": "0xa941913169f9c75127139d8fd98ca2bf88d5b3d161f1a5963f72e7cb289a0781",
  "number": 50023,
  "timestamp": 1438982907,
  "nonce": "0xe196a10481f93008",
  "difficulty": 1499479083018,
  "gasLimit": {
    "_hex": "0x4b64b"
  },
  "gasUsed": {
    "_hex": "0x546c"
  },
  "miner": "0xbb7B8287f3F0a933474a79eAe42CBCa977791171",
  "extraData": "0x476574682f4c5649562f76312e302e312f6c696e75782f676f312e342e32",
  "transactions": [
    {
      "hash": "0x2da2b7820c4215819ad490dad8c14e5b9f7517a17e7b7fbef5519510b40d80d2",
      "blockHash": "0xdbd7dbc99142c8d15c9a60762445ddd1e93868e8320cdef683aec71f61a9959d",
      "blockNumber": 50023,
      "transactionIndex": 0,
      "confirmations": null,
      "from": "0x6B760D4877E6a627c1c967bEE451A8507DDdDBAB",
      "gasPrice": {
        "_hex": "0x110c8f7d8de"
      },
      "gasLimit": {
        "_hex": "0xc350"
      },
      "to": "0x2910543Af39abA0Cd09dBb2D50200b3E800A63D2",
      "value": {
        "_hex": "0x28a857425466f80000"
      },
      "nonce": 0,
      "data": "0x454e43355551565952",
      "r": "0xaed92e52bdfa202ccaaa1558953ba32e779b7f12b81c237ac5d718b0053be41e",
      "s": "0x8d09eec20fef563e3e5c1b4f97d446248a8f23786de0f19981b38087ec4f4601",
      "v": 27,
      "creates": null,
      "raw": "0xf87780860110c8f7d8de82c350942910543af39aba0cd09dbb2d50200b3e800a63d28928a857425466f8000089454e433555515659521ba0aed92e52bdfa202ccaaa1558953ba32e779b7f12b81c237ac5d718b0053be41ea08d09eec20fef563e3e5c1b4f97d446248a8f23786de0f19981b38087ec4f4601",
      "networkId": 0,
      "chainId": 0
    }
  ]
}