{
  "hash": "0xef451ada47d23f7bab7366f58458c6bcbe2432c375804c4c299dfc1661bd1a70",
  "parentHash": "0xa3fda41422c6365186fe5d324887526a8f49d928623fc427e3ce2b0eaef29917",
  "number": 57828,
  "timestamp": 1439110452,
  "nonce": "0x0f0209dae8284d9e",
  "difficulty": 1728499616902,
  "gasLimit": {
    "_hex": "0x2fefd8"
  },
  "gasUsed": {
    "_hex": "0xa674"
  },
  "miner": "0x9746c7e1ef2bd21FF3997fa467593a89cb852BD0",
  "extraData": "0x476574682f76312e302e312f77696e646f77732f676f312e342e32",
  "transactions": [
    {
      "hash": "0x832578bab8ceffce2fcd086bc2e013bb2e690401454fd083e4ca7760f52fd5b5",
      "blockHash": "0xef451ada47d23f7bab7366f58458c6bcbe2432c375804c4c299dfc1661bd1a70",
      "blockNumber": 57828,
      "transactionIndex": 0,
      "confirmations": null,
      "from": "0x08d54e83ad486a934cfaeAe283a33Efd227C0E99",
      "gasPrice": {
        "_hex": "0x110c8f7d8de"
      },
      "gasLimit": {
        "_hex": "0xc350"
      },
      "to": "0x2910543Af39abA0Cd09dBb2D50200b3E800A63D2",
      "value": {
        "_hex": "0x1b1ae4d6e2ef500000"
      },
      "nonce": 1,
      "data": "0x454e4d515746305652",
      "r": "0x89121f1c1cca99bd7b15334ed744bcfee4aac6600f13a282ba6c26bb1dbda0e2",
      "s": "0x081ea15b15b4fa80476626173d066cd15e6264f4d48f6da4d0ec73783a26ff6c",
      "v": 28,
      "creates": null,
      "raw": "0xf87701860110c8f7d8de82c350942910543af39aba0cd09dbb2d50200b3e800a63d2891b1ae4d6e2ef50000089454e4d5157463056521ca089121f1c1cca99bd7b15334ed744bcfee4aac6600f13a282ba6c26bb1dbda0e2a0081ea15b15b4fa80476626173d066cd15e6264f4d48f6da4d0ec73783a26ff6c",
      "networkId": 0,
      "chainId": 0
    },
    {
      "hash": "0x74680614debb6ecdb1ab3547c6a460d29907be8b5f65559cab554ab4c8f4a031",
      "blockHash": "0xef451ada47d23f7bab7366f58458c6bcbe2432c375804c4c299dfc1661bd1a70",
      "blockNumber": 57828,
      "transactionIndex": 1,
      "confirmations": null,
      "from": "0xBc91527B31Fbbe397F91C2b9273Ea32b0d9a19a0",
      "gasPrice": {
        "_hex": "0xcdc4251a3"
      },
      "gasLimit": {
        "_hex": "0x5208"
      },
      "to": "0x32Be343B94f860124dC4fEe278FDCBD38C102D88",
      "value": {
        "_hex": "0x5ac3f2e403a988000"
      },
      "nonce": 2,
      "data": "0x",
      "r": "0x305962073b850f482b5901f92bf397391d04648c9662012b6f00f969c54b8ad2",
      "s": "0x4660a2b2af19cc49d05d0a33f31b3f45601dda981dbb8dadf53c187501dbaf38",
      "v": 28,
      "creates": null,
      "raw": "0xf86d02850cdc4251a38252089432be343b94f860124dc4fee278fdcbd38c102d888905ac3f2e403a988000801ca0305962073b850f482b5901f92bf397391d04648c9662012b6f00f969c54b8ad2a04660a2b2af19cc49d05d0a33f31b3f45601dda981dbb8dadf53c187501dbaf38",
      "networkId": 0,
      "chainId": 0
    }
  ]
}