{
  "hash": "0x09c094048d129af2c86e2beaf0e5b41d03681158d5b772f744ceddbcd649b9f0",
  "parentHash": "0x9ee87d3994561d6f26abfa48081f45192bc4df4b556fe0f28924aef87bbf3914",
  "number": 86474,
  "timestamp": 1439578761,
  "nonce": "0x26dd6ee7c28f2872",
  "difficulty": 2896114989537,
  "gasLimit": {
    "_hex": "0x2fefd8"
  },
  "gasUsed": {
    "_hex": "0xf618"
  },
  "miner": "0x89972aA7C0b19D1aE9cd89386160c3f28f7bB590",
  "extraData": "0xd983010001844765746887676f312e342e328777696e646f7773",
  "transactions": [
    {
      "hash": "0xea4b57db4ab739336e1e8cab7072f5040c71b556a193ab51f6f7f9fe5124b604",
      "blockHash": "0x09c094048d129af2c86e2beaf0e5b41d03681158d5b772f744ceddbcd649b9f0",
      "blockNumber": 86474,
      "transactionIndex": 0,
      "confirmations": null,
      "from": "0xC603Ab5ef41fC61AA8b76bEddb09e3Cfcbb174BD",
      "gasPrice": {
        "_hex": "0xd3c29c748"
      },
      "gasLimit": {
        "_hex": "0x15f90"
      },
      "to": "0x8F79f76381Aad7B98C19aF55eE75fdfEeb012211",
      "value": {
        "_hex": "0x796e3ea3f8ab00000"
      },
      "nonce": 17,
      "data": "0x",
      "r": "0xafc02697984a1794751e18db14a130aa5c13c2e4b98ba200969f7f727f78c269",
      "s": "0x65b843a841630fe3c470dc795832e88f75428d583c26a2b3e084761a2b46d86d",
      "v": 28,
      "creates": null,
      "raw": "0xf86e11850d3c29c74883015f90948f79f76381aad7b98c19af55ee75fdfeeb012211890796e3ea3f8ab00000801ca0afc02697984a1794751e18db14a130aa5c13c2e4b98ba200969f7f727f78c269a065b843a841630fe3c470dc795832e88f75428d583c26a2b3e084761a2b46d86d",
      "networkId": 0,
      "chainId": 0
    },
    {
      "hash": "0x5abd9d445d70df67dab5839f51501fdca7e7addf05c50dd09dfa58b5025831ed",
      "blockHash": "0x09c094048d129af2c86e2beaf0e5b41d03681158d5b772f744ceddbcd649b9f0",
      "blockNumber": 86474,
      "transactionIndex": 1,
      "confirmations": null,
      "from": "0x2910543Af39abA0Cd09dBb2D50200b3E800A63D2",
      "gasPrice": {
        "_hex": "0xd21ea2f5b"
      },
      "gasLimit": {
        "_hex": "0x5208"
      },
      "to": "0x141d08EDaDA2C1bA62A2940184Ba03d62d3fFF22",
      "value": {
        "_hex": "0x14cff5d5e797f8000"
      },
      "nonce": 665,
      "data": "0x",
      "r": "0x0401c593c2af74e0935339bb4af56755acb594c30a0a5a8d1a54f208907f7e34",
      "s": "0x15608981aaba4dbe356746de5ba5863ea283610a1755caa83d2605f8807c43d8",
      "v": 27,
      "creates": null,
      "raw": "0xf86f820299850d21ea2f5b82520894141d08edada2c1ba62a2940184ba03d62d3fff2289014cff5d5e797f8000801ba00401c593c2af74e0935339bb4af56755acb594c30a0a5a8d1a54f208907f7e34a015608981aaba4dbe356746de5ba5863ea283610a1755caa83d2605f8807c43d8",
      "networkId": 0,
      "chainId": 0
    },
    {
      "hash": "0x0e9a6efe4ec767f1a17bfc1e36634e124d755418fb8f6cb420df082a3e173006",
      "blockHash": "0x09c094048d129af2c86e2beaf0e5b41d03681158d5b772f744ceddbcd649b9f0",
      "blockNumber": 86474,
      "transactionIndex": 2,
      "confirmations": null,
      "from": "0x2910543Af39abA0Cd09dBb2D50200b3E800A63D2",
      "gasPrice": {
        "_hex": "0xd21ea2f5b"
      },
      "gasLimit": {
        "_hex": "0x5208"
      },
      "to": "0x563b73aFFFD7381A4e96eC15E09af844df196545",
      "value": {
        "_hex": "0x1b1c3658e214f98000"
      },
      "nonce": 666,
      "data": "0x",
      "r": "0x9438b40681e1f3cd88be558bc53179d912ebd1cc32bef249e3df4262ff6a6e67",
      "s": "0x07039d477842032f10d13ff2143f8fa547e9defafd5606c154a139ff76b985e6",
      "v": 27,
      "creates": null,
      "raw": "0xf86f82029a850d21ea2f5b82520894563b73afffd7381a4e96ec15e09af844df196545891b1c3658e214f98000801ba09438b40681e1f3cd88be558bc53179d912ebd1cc32bef249e3df4262ff6a6e67a007039d477842032f10d13ff2143f8fa547e9defafd5606c154a139ff76b985e6",
      "networkId": 0,
      "chainId": 0
    }
  ]
}