{
  "hash": "0xa009281b046e939d4c3f3e392212663228736ede53789e6b1815ea27aed0ff11",
  "parentHash": "0x911418524282d5e404359a4fb12ba4b0b905afd41b82cb32fa8e236f8198ed3d",
  "number": 93762,
  "timestamp": 1439697293,
  "nonce": "0xa54c7c7117219958",
  "difficulty": 3422838391679,
  "gasLimit": {
    "_hex": "0x2fefd8"
  },
  "gasUsed": {
    "_hex": "0xa410"
  },
  "miner": "0x47ff6576639c2e94762eA5443978D7681C0E78DC",
  "extraData": "0x476574682f76312e302e312f6c696e75782f676f312e342e32",
  "transactions": [
    {
      "hash": "0xea1ed581e1ce1b75003c26e319a6fcf15d895ce2bb28db201ea226fce17565b4",
      "blockHash": "0xa009281b046e939d4c3f3e392212663228736ede53789e6b1815ea27aed0ff11",
      "blockNumber": 93762,
      "transactionIndex": 0,
      "confirmations": null,
      "from": "0xb577b6BEfA054E9c040461855094B002D7f57bd7",
      "gasPrice": {
        "_hex": "0x101d1478ebe"
      },
      "gasLimit": {
        "_hex": "0x15f90"
      },
      "to": "0x1BF3aa6bA1a55E2e26b26a4799d33c2c14945406",
      "value": {
        "_hex": "0x10f0cf064dd59200000"
      },
      "nonce": 6,
      "data": "0x",
      "r": "0x1ca66e41103adb80a629c23e911818fed98aa4871124ac831f49e9e48642f074",
      "s": "0x27ec916e669fee811914298b7dad12bd0546f20594d541999f8acac56593ca45",
      "v": 27,
      "creates": null,
      "raw": "0xf87006860101d1478ebe83015f90941bf3aa6ba1a55e2e26b26a4799d33c2c149454068a010f0cf064dd59200000801ba01ca66e41103adb80a629c23e911818fed98aa4871124ac831f49e9e48642f074a027ec916e669fee811914298b7dad12bd0546f20594d541999f8acac56593ca45",
      "networkId": 0,
      "chainId": 0
    },
    {
      "hash": "0x6d439a13da3396d74e97ee5eb6e0083deecc4058309cabfb5dda0f7b9de79450",
      "blockHash": "0xa009281b046e939d4c3f3e392212663228736ede53789e6b1815ea27aed0ff11",
      "blockNumber": 93762,
      "transactionIndex": 1,
      "confirmations": null,
      "from": "0x2910543Af39abA0Cd09dBb2D50200b3E800A63D2",
      "gasPrice": {
        "_hex": "0xd473ff6f4"
      },
      "gasLimit": {
        "_hex": "0x5208"
      },
      "to": "0x338043c8592eDAdd5969B5529090D7eE1C466e14",
      "value": {
        "_hex": "0xd018f10d96fb8000"
      },
      "nonce": 858,
      "data": "0x",
      "r": "0xfe23f05e6db575b85a509dd9bf4e69d46ab98de3ba4731f823103c176af04869",
      "s": "0x7f4df8c20b366bcd66838a4a858274f1fac1846135c39b18b89d4632f7a85a9f",
      "v": 27,
      "creates": null,
      "raw": "0xf86e82035a850d473ff6f482520894338043c8592edadd5969b5529090d7ee1c466e1488d018f10d96fb8000801ba0fe23f05e6db575b85a509dd9bf4e69d46ab98de3ba4731f823103c176af04869a07f4df8c20b366bcd66838a4a858274f1fac1846135c39b18b89d4632f7a85a9f",
      "networkId": 0,
      "chainId": 0
    }
  ]
}