{
  "hash": "0x76adb2d39454b7f067899f08b1b33e641521bf0979df134813b9c08366e5fe06",
  "parentHash": "0x4e512b10fe097e704574d5c8124331383f49bcfa205412862e03a12d94420592",
  "number": 118503,
  "timestamp": 1440127110,
  "nonce": "0x260c56f32c7a6d59",
  "difficulty": 4291021055776,
  "gasLimit": {
    "_hex": "0x2fefd8"
  },
  "gasUsed": {
    "_hex": "0x18326"
  },
  "miner": "0xe6A7a1d47ff21B6321162AEA7C6CB457D5476Bca",
  "extraData": "0xd783010002844765746887676f312e342e32856c696e7578",
  "transactions": [
    {
      "hash": "0xf7faec69b67893818fbd6a9d8204a4241924d5d985eba20a3e14a06e52fc5e2b",
      "blockHash": "0x76adb2d39454b7f067899f08b1b33e641521bf0979df134813b9c08366e5fe06",
      "blockNumber": 118503,
      "transactionIndex": 0,
      "confirmations": null,
      "from": "0x001aA0CB9c5fA098a119070024460feBb868742D",
      "gasPrice": {
        "_hex": "0xba43b7400"
      },
      "gasLimit": {
        "_hex": "0x24dd8"
      },
      "to": "0xE28e72FCf78647ADCe1F1252F240bbfaebD63BcC",
      "value": {
        "_hex": "0x6f05b59d3b20000"
      },
      "nonce": 5,
      "data": "0x45466f3a",
      "r": "0x8c6ee33a043f2f486272f771cb93e56644d7e60362cbc23842209c08b7f979bc",
      "s": "0x025129654c4d777dfb0443905be0ded3f8ba7bc9ec23fb1bface76bd1d5c9c65",
      "v": 27,
      "creates": null,
      "raw": "0xf87105850ba43b740083024dd894e28e72fcf78647adce1f1252f240bbfaebd63bcc8806f05b59d3b200008445466f3a1ba08c6ee33a043f2f486272f771cb93e56644d7e60362cbc23842209c08b7f979bca0025129654c4d777dfb0443905be0ded3f8ba7bc9ec23fb1bface76bd1d5c9c65",
      "networkId": 0,
      "chainId": 0
    }
  ]
}