{
  "hash": "0xedbeb95831c7d7a137a11cfec8962b82caed8277a359e4ea84bf4e9bc62add81",
  "parentHash": "0xa1d3b0f9b7fa7b968976b310ad640e565c633acc59af563c8b7cef83d60a0531",
  "number": 59106,
  "timestamp": 1439132010,
  "nonce": "0x6f4b5701576b9a4a",
  "difficulty": 1718139524842,
  "gasLimit": {
    "_hex": "0x2fefd8"
  },
  "gasUsed": {
    "_hex": "0x5208"
  },
  "miner": "0xf927a40C8B7F6E07c5af7FA2155B4864a4112B13",
  "extraData": "0x",
  "transactions": [
    {
      "hash": "0x061125e852daf2ab11caccc83024c73abc430ecba330ab590649a1595ef44c0f",
      "blockHash": "0xedbeb95831c7d7a137a11cfec8962b82caed8277a359e4ea84bf4e9bc62add81",
      "blockNumber": 59106,
      "transactionIndex": 0,
      "confirmations": null,
      "from": "0xb6c00721Fbd69a851EE6456d71C429fBd8f0d022",
      "gasPrice": {
        "_hex": "0xce9983714"
      },
      "gasLimit": {
        "_hex": "0x5208"
      },
      "to": "0x32Be343B94f860124dC4fEe278FDCBD38C102D88",
      "value": {
        "_hex": "0xad78a992138ae0000"
      },
      "nonce": 3,
      "data": "0x",
      "r": "0xe3ec3a4d9e2de5446a1b437219a5a8a00247b07f73d77ddc5a5f21c72473748b",
      "s": "0x43073e1703111893da4314e0717cc7c15785552ab9a6e2587c8d1d8861bbe7c9",
      "v": 27,
      "creates": null,
      "raw": "0xf86d03850ce99837148252089432be343b94f860124dc4fee278fdcbd38c102d88890ad78a992138ae0000801ba0e3ec3a4d9e2de5446a1b437219a5a8a00247b07f73d77ddc5a5f21c72473748ba043073e1703111893da4314e0717cc7c15785552ab9a6e2587c8d1d8861bbe7c9",
      "networkId": 0,
      "chainId": 0
    }
  ]
}