{
  "hash": "0x79fee55dd75253e3f37de967b6b9c3289b0c780cfe68c26a49b7641c346e7099",
  "parentHash": "0x37a3058160f664a21d7b6937d490dbff8d3d626e8452025f50e5d21ade55c10d",
  "number": 101988,
  "timestamp": 1439830980,
  "nonce": "0xbbf5bbf5312ffb5b",
  "difficulty": 3928121870873,
  "gasLimit": {
    "_hex": "0x2fefd8"
  },
  "gasUsed": {
    "_hex": "0xa410"
  },
  "miner": "0xe6A7a1d47ff21B6321162AEA7C6CB457D5476Bca",
  "extraData": "0x476574682f76312e302e312d38326566323666362f6c696e75782f676f312e34",
  "transactions": [
    {
      "hash": "0xa3eb51cbba13b1ff0acaf393fadd61cdc85ac3f2a2f4c66b611164a6f07dd063",
      "blockHash": "0x79fee55dd75253e3f37de967b6b9c3289b0c780cfe68c26a49b7641c346e7099",
      "blockNumber": 101988,
      "transactionIndex": 0,
      "confirmations": null,
      "from": "0x61FbF14411719D9446F5607EDC7596f95f39d5b4",
      "gasPrice": {
        "_hex": "0xd2585ced3"
      },
      "gasLimit": {
        "_hex": "0x5208"
      },
      "to": "0x32Be343B94f860124dC4fEe278FDCBD38C102D88",
      "value": {
        "_hex": "0x1401b0ed7e1ab90000"
      },
      "nonce": 0,
      "data": "0x",
      "r": "0xefdc38ede299693cf29b669a644cdbdbf2f129036298ecdb8a137b54045109af",
      "s": "0x603393a8f8cb10066bb975a09c8f0c8f5a91d94e917860774d1b381ab569c919",
      "v": 28,
      "creates": null,
      "raw": "0xf86d80850d2585ced38252089432be343b94f860124dc4fee278fdcbd38c102d88891401b0ed7e1ab90000801ca0efdc38ede299693cf29b669a644cdbdbf2f129036298ecdb8a137b54045109afa0603393a8f8cb10066bb975a09c8f0c8f5a91d94e917860774d1b381ab569c919",
      "networkId": 0,
      "chainId": 0
    },
    {
      "hash": "0x3eb8fc95e314144fd88a337a5a247513765444d8ac19490b6481a4e9dbf0fb68",
      "blockHash": "0x79fee55dd75253e3f37de967b6b9c3289b0c780cfe68c26a49b7641c346e7099",
      "blockNumber": 101988,
      "transactionIndex": 1,
      "confirmations": null,
      "from": "0x2dcC4b0Fbaaee78613F2F8228aefCf5ae45DE675",
      "gasPrice": {
        "_hex": "0xd2585ced3"
      },
      "gasLimit": {
        "_hex": "0x5208"
      },
      "to": "0x32Be343B94f860124dC4fEe278FDCBD38C102D88",
      "value": {
        "_hex": "0x2444f31b9fa83e000"
      },
      "nonce": 0,
      "data": "0x",
      "r": "0x2dad90613d8151bcc34c6ef911c27f0b43f2d14bcd047a0d56b10edb6f5d341f",
      "s": "0x0c505e384d33a571db18da86e2cddc45b1be539e8d5133cc130d3b64847523e0",
      "v": 28,
      "creates": null,
      "raw": "0xf86d80850d2585ced38252089432be343b94f860124dc4fee278fdcbd38c102d888902444f31b9fa83e000801ca02dad90613d8151bcc34c6ef911c27f0b43f2d14bcd047a0d56b10edb6f5d341fa00c505e384d33a571db18da86e2cddc45b1be539e8d5133cc130d3b64847523e0",
      "networkId": 0,
      "chainId": 0
    }
  ]
}