{
  "hash": "0x3a760a30351e417d15b615a1d33f15707ccaa4574bdbc2e2c29bfc38ad3e92d0",
  "parentHash": "0x55cac1f619f118fb03fbb8bf93c440ec5770cf79e03da930a9450ea873ccd260",
  "number": 101497,
  "timestamp": 1439823865,
  "nonce": "0x1f70963360a8c2e4",
  "difficulty": 3858017846389,
  "gasLimit": {
    "_hex": "0x2fefd8"
  },
  "gasUsed": {
    "_hex": "0x5208"
  },
  "miner": "0xe6A7a1d47ff21B6321162AEA7C6CB457D5476Bca",
  "extraData": "0x476574682f76312e302e312d38326566323666362f6c696e75782f676f312e34",
  "transactions": [
    {
      "hash": "0xd8f42b5592fab2e84009ef7fbc3d1a231ad689ab6d6f8e5e7bf04d0c7e05e676",
      "blockHash": "0x3a760a30351e417d15b615a1d33f15707ccaa4574bdbc2e2c29bfc38ad3e92d0",
      "blockNumber": 101497,
      "transactionIndex": 0,
      "confirmations": null,
      "from": "0x007f7f58D3eb5b7510A301eCC749FC1fCDDBE14D",
      "gasPrice": {
        "_hex": "0xe0cfe7246"
      },
      "gasLimit": {
        "_hex": "0x15f90"
      },
      "to": "0xb1abce2918E21ddb93AA452731a12672A3d9F75a",
      "value": {
        "_hex": "0x4563918244f40000"
      },
      "nonce": 189,
      "data": "0x",
      "r": "0xeaaee8481538c852ef9e5aab54324e7074119e30a96b2d495fd06fe0a61ab729",
      "s": "0x2aaad9bbac9020e9a4c0c9de13192ccadfffde523f93f2d62c96eed3b041a7f3",
      "v": 28,
      "creates": null,
      "raw": "0xf86e81bd850e0cfe724683015f9094b1abce2918e21ddb93aa452731a12672a3d9f75a884563918244f40000801ca0eaaee8481538c852ef9e5aab54324e7074119e30a96b2d495fd06fe0a61ab729a02aaad9bbac9020e9a4c0c9de13192ccadfffde523f93f2d62c96eed3b041a7f3",
      "networkId": 0,
      "chainId": 0
    }
  ]
}