{
  "hash": "0xe68474fc5d374335ebf79587c72c63e126deda31cf01f8ef5e3f191455d5d3f0",
  "parentHash": "0x33be5ebef09c87c20393381be5343e11246762646806464c0fe5ffa86eb1ccd5",
  "number": 115366,
  "timestamp": 1440055969,
  "nonce": "0x5bf634fe612be3d1",
  "difficulty": 4549439988339,
  "gasLimit": {
    "_hex": "0x2fefd8"
  },
  "gasUsed": {
    "_hex": "0xf618"
  },
  "miner": "0x95d2EecfE307D4F6A06338468949b9DA10Ea600a",
  "extraData": "0x",
  "transactions": [
    {
      "hash": "0x73beaf37996ee28ba56aba5704979fba25e7283c94f98ae38995ed224c1c5c1a",
      "blockHash": "0xe68474fc5d374335ebf79587c72c63e126deda31cf01f8ef5e3f191455d5d3f0",
      "blockNumber": 115366,
      "transactionIndex": 0,
      "confirmations": null,
      "from": "0x629e35e0A481d821293F354E0dD27E43a354D061",
      "gasPrice": {
        "_hex": "0xdad7b8ab0"
      },
      "gasLimit": {
        "_hex": "0x5208"
      },
      "to": "0x32Be343B94f860124dC4fEe278FDCBD38C102D88",
      "value": {
        "_hex": "0x6238f99dabc91c00"
      },
      "nonce": 9,
      "data": "0x",
      "r": "0x290de650a23cfda33cbd1abcf76d549988efb0caa63313d57a39e4d32b4017a3",
      "s": "0x2c687df07a00c004a4f1af087db0920bd4f47f4e914768f598e37b5de2a0ee99",
      "v": 27,
      "creates": null,
      "raw": "0xf86c09850dad7b8ab08252089432be343b94f860124dc4fee278fdcbd38c102d88886238f99dabc91c00801ba0290de650a23cfda33cbd1abcf76d549988efb0caa63313d57a39e4d32b4017a3a02c687df07a00c004a4f1af087db0920bd4f47f4e914768f598e37b5de2a0ee99",
      "networkId": 0,
      "chainId": 0
    },
    {
      "hash": "0xafacc096218dcaccdc4542df0c6656c748bd75848aa05581f82000111db4022c",
      "blockHash": "0xe68474fc5d374335ebf79587c72c63e126deda31cf01f8ef5e3f191455d5d3f0",
      "blockNumber": 115366,
      "transactionIndex": 1,
      "confirmations": null,
      "from": "0xcD690730A45cdebeF24F2a3db2de181bFBA5CBea",
      "gasPrice": {
        "_hex": "0xdad7b8ab0"
      },
      "gasLimit": {
        "_hex": "0x5208"
      },
      "to": "0x32Be343B94f860124dC4fEe278FDCBD38C102D88",
      "value": {
        "_hex": "0x9c05f752d8fab800"
      },
      "nonce": 11,
      "data": "0x",
      "r": "0x79e7b57e04d7e06461a8a7d7c70709b4195d9fdb65d443b12ea59c6b1c592bd8",
      "s": "0x698fe03d4cba11fc54c6b38db325318168a1760dea4da9d33405d1451fc5060f",
      "v": 27,
      "creates": null,
      "raw": "0xf86c0b850dad7b8ab08252089432be343b94f860124dc4fee278fdcbd38c102d88889c05f752d8fab800801ba079e7b57e04d7e06461a8a7d7c70709b4195d9fdb65d443b12ea59c6b1c592bd8a0698fe03d4cba11fc54c6b38db325318168a1760dea4da9d33405d1451fc5060f",
      "networkId": 0,
      "chainId": 0
    },
    {
      "hash": "0x5ab1a21294a4855a0a7b9d01de11bcd458f16336b0189334b6ce123f9867c392",
      "blockHash": "0xe68474fc5d374335ebf79587c72c63e126deda31cf01f8ef5e3f191455d5d3f0",
      "blockNumber": 115366,
      "transactionIndex": 2,
      "confirmations": null,
      "from": "0x022A006FcC619ebf387F413eF06932bAbd47AE0E",
      "gasPrice": {
        "_hex": "0xdad7b8ab0"
      },
      "gasLimit": {
        "_hex": "0x5208"
      },
      "to": "0x32Be343B94f860124dC4fEe278FDCBD38C102D88",
      "value": {
        "_hex": "0x9cd2b166c66ff000"
      },
      "nonce": 11,
      "data": "0x",
      "r": "0xb2a4710d637107c902cb9613a9630c63543de5373cfb19228f9b1a8066cba58f",
      "s": "0x3ad37a33d4275569a7a54841fd48962d3c86e5a1e8399fa2245ad0cb62e2b86e",
      "v": 28,
      "creates": null,
      "raw": "0xf86c0b850dad7b8ab08252089432be343b94f860124dc4fee278fdcbd38c102d88889cd2b166c66ff000801ca0b2a4710d637107c902cb9613a9630c63543de5373cfb19228f9b1a8066cba58fa03ad37a33d4275569a7a54841fd48962d3c86e5a1e8399fa2245ad0cb62e2b86e",
      "networkId": 0,
      "chainId": 0
    }
  ]
}