{
  "hash": "0x664144dc91ce54df0f2f178ff84b9128d4a5b68ed83b738690db078da8f8a9a6",
  "parentHash": "0x2d5c647c559302378df67d12d2291e8b39b393a46627e7ac6f72d80415fa4375",
  "number": 93805,
  "timestamp": 1439698092,
  "nonce": "0x86c2bb0322feb408",
  "difficulty": 3424492553725,
  "gasLimit": {
    "_hex": "0x2fefd8"
  },
  "gasUsed": {
    "_hex": "0x5208"
  },
  "miner": "0xeB1325C8D9d3ea8D74aC11F4B00F1B2367686319",
  "extraData": "0x476574682f76312e302e312f77696e646f77732f676f312e342e32",
  "transactions": [
    {
      "hash": "0x62a29016d79ae61962e36dac249480f7550f0763c630a146c3de66bb1ca184d9",
      "blockHash": "0x664144dc91ce54df0f2f178ff84b9128d4a5b68ed83b738690db078da8f8a9a6",
      "blockNumber": 93805,
      "transactionIndex": 0,
      "confirmations": null,
      "from": "0xCbbdAd70d0ff27254925AD37B5C135EEe1116615",
      "gasPrice": {
        "_hex": "0xd50c74d9c"
      },
      "gasLimit": {
        "_hex": "0x15f90"
      },
      "to": "0x886e83d9133F65B9c27A946f699E88e71A888E4C",
      "value": {
        "_hex": "0x16345785d8a0000"
      },
      "nonce": 9,
      "data": "0x",
      "r": "0xd38e91be1a5c5b7772978b4c9f0c57911638ffc51efeef2e130bd9bafdfd9e82",
      "s": "0x713de3381f66af5fbfc7dadd877baa9257a8d9c6f0d101cc729f43f54140c4d5",
      "v": 27,
      "creates": null,
      "raw": "0xf86d09850d50c74d9c83015f9094886e83d9133f65b9c27a946f699e88e71a888e4c88016345785d8a0000801ba0d38e91be1a5c5b7772978b4c9f0c57911638ffc51efeef2e130bd9bafdfd9e82a0713de3381f66af5fbfc7dadd877baa9257a8d9c6f0d101cc729f43f54140c4d5",
      "networkId": 0,
      "chainId": 0
    }
  ]
}