{
  "hash": "0x3327a3cf5b5fa9ce5688464c9305ae43d2c54973366ca254397b478b4985d058",
  "parentHash": "0x62ad85748e2192fead2bff3fd04949612793429d6d5630a055729eceefde6e32",
  "number": 74770,
  "timestamp": 1439392002,
  "nonce": "0xde70a7cb862b8d91",
  "difficulty": 2197722581261,
  "gasLimit": {
    "_hex": "0x2fefd8"
  },
  "gasUsed": {
    "_hex": "0x19c8c"
  },
  "miner": "0xbb7B8287f3F0a933474a79eAe42CBCa977791171",
  "extraData": "0x476574682f4c5649562f76312e302e312f6c696e75782f676f312e342e32",
  "transactions": [
    {
      "hash": "0xfa6d319210422ac59e01fec2268ad2961b34748b6ea458593ea4f3020c3a218d",
      "blockHash": "0x3327a3cf5b5fa9ce5688464c9305ae43d2c54973366ca254397b478b4985d058",
      "blockNumber": 74770,
      "transactionIndex": 0,
      "confirmations": null,
      "from": "0xa6BDc31c431B8F97848c9D60cbbe9660dc450eB7",
      "gasPrice": {
        "_hex": "0xd506ffa26"
      },
      "gasLimit": {
        "_hex": "0x5208"
      },
      "to": "0x32Be343B94f860124dC4fEe278FDCBD38C102D88",
      "value": {
        "_hex": "0x456312b50560e800"
      },
      "nonce": 5,
      "data": "0x",
      "r": "0xcf13059d1ff540888ca8b84f318696b8f453925dccd9753a1e36d263875b9315",
      "s": "0x08628f0ec59b3355a8185d25f23ef7078a1f9c11690ffed7bdd16454a9952e63",
      "v": 27,
      "creates": null,
      "raw": "0xf86c05850d506ffa268252089432be343b94f860124dc4fee278fdcbd38c102d8888456312b50560e800801ba0cf13059d1ff540888ca8b84f318696b8f453925dccd9753a1e36d263875b9315a008628f0ec59b3355a8185d25f23ef7078a1f9c11690ffed7bdd16454a9952e63",
      "networkId": 0,
      "chainId": 0
    },
    {
      "hash": "0x977ddfea6a35e2ec6fd3827e03482f065a7ca319e14912935cfd87b0998c7502",
      "blockHash": "0x3327a3cf5b5fa9ce5688464c9305ae43d2c54973366ca254397b478b4985d058",
      "blockNumber": 74770,
      "transactionIndex": 1,
      "confirmations": null,
      "from": "0x08FE5A3C0709cF74d76cFd0e0Cd9d2A447eA263C",
      "gasPrice": {
        "_hex": "0xd506ffa26"
      },
      "gasLimit": {
        "_hex": "0x5208"
      },
      "to": "0x32Be343B94f860124dC4fEe278FDCBD38C102D88",
      "value": {
        "_hex": "0x602b9797d4760400"
      },
      "nonce": 1,
      "data": "0x",
      "r": "0x9150c9841b82a98683c95e2a693cfe123ae852b1b9c16673f79cd67bf92eab57",
      "s": "0x3623067444b2bb6c48ba31178c85fce8a52fbe281faba7848838be41bc0a4c93",
      "v": 28,
      "creates": null,
      "raw": "0xf86c01850d506ffa268252089432be343b94f860124dc4fee278fdcbd38c102d8888602b9797d4760400801ca09150c9841b82a98683c95e2a693cfe123ae852b1b9c16673f79cd67bf92eab57a03623067444b2bb6c48ba31178c85fce8a52fbe281faba7848838be41bc0a4c93",
      "networkId": 0,
      "chainId": 0
    },
    {
      "hash": "0x9b7f282672d4f1ff256f9d40e47539918c9e7f6c8323faf4b24a4dca2aec1bbf",
      "blockHash": "0x3327a3cf5b5fa9ce5688464c9305ae43d2c54973366ca254397b478b4985d058",
      "blockNumber": 74770,
      "transactionIndex": 2,
      "confirmations": null,
      "from": "0xb3AB4F5dcf622b6e3e8Ccc793078aa62FA05DcfD",
      "gasPrice": {
        "_hex": "0xd506ffa26"
      },
      "gasLimit": {
        "_hex": "0x5208"
      },
      "to": "0x32Be343B94f860124dC4fEe278FDCBD38C102D88",
      "value": {
        "_hex": "0x13b7a5698038400"
      },
      "nonce": 0,
      "data": "0x",
      "r": "0x7e0e34806a092ef24b09bbd970e7aaa6aaad83dc5d2fe4cc051fd96821e5eb6b",
      "s": "0x4aa2d292b8a0c1a24e81671718e5c343eda9ad87a4a0ef729cfb10ea408fb6dd",
      "v": 27,
      "creates": null,
      "raw": "0xf86c80850d506ffa268252089432be343b94f860124dc4fee278fdcbd38c102d8888013b7a5698038400801ba07e0e34806a092ef24b09bbd970e7aaa6aaad83dc5d2fe4cc051fd96821e5eb6ba04aa2d292b8a0c1a24e81671718e5c343eda9ad87a4a0ef729cfb10ea408fb6dd",
      "networkId": 0,
      "chainId": 0
    },
    {
      "hash": "0x64383521ef7e224359875e9fbba2a455d09caf6e9ccd0cc159107f0fdd4f7dcf",
      "blockHash": "0x3327a3cf5b5fa9ce5688464c9305ae43d2c54973366ca254397b478b4985d058",
      "blockNumber": 74770,
      "transactionIndex": 3,
      "confirmations": null,
      "from": "0xa70a9a7040d542C632D8e0bE7c5513A8a5Bbc752",
      "gasPrice": {
        "_hex": "0xd506ffa26"
      },
      "gasLimit": {
        "_hex": "0x5208"
      },
      "to": "0x32Be343B94f860124dC4fEe278FDCBD38C102D88",
      "value": {
        "_hex": "0x455f4d52ef2e8400"
      },
      "nonce": 35,
      "data": "0x",
      "r": "0xc2193a8d3461dd1582d6ccfa4022da395e541daa7de99654fd7ab2522b888810",
      "s": "0x0f83853e11b068156cb0b26cad813ecaf4f6f00d52f37128d1f7039761930343",
      "v": 27,
      "creates": null,
      "raw": "0xf86c23850d506ffa268252089432be343b94f860124dc4fee278fdcbd38c102d8888455f4d52ef2e8400801ba0c2193a8d3461dd1582d6ccfa4022da395e541daa7de99654fd7ab2522b888810a00f83853e11b068156cb0b26cad813ecaf4f6f00d52f37128d1f7039761930343",
      "networkId": 0,
      "chainId": 0
    },
    {
      "hash": "0x07bd961af48824ec47162a1ec1a0a3fd1f132a5ae576a73c3c7e54311959a9a5",
      "blockHash": "0x3327a3cf5b5fa9ce5688464c9305ae43d2c54973366ca254397b478b4985d058",
      "blockNumber": 74770,
      "transactionIndex": 4,
      "confirmations": null,
      "from": "0x7409AD0F9A56C154e2a23176962D3e111A72A9Eb",
      "gasPrice": {
        "_hex": "0xcf0aebcdd"
      },
      "gasLimit": {
        "_hex": "0x15f90"
      },
      "to": "0x2910543Af39abA0Cd09dBb2D50200b3E800A63D2",
      "value": {
        "_hex": "0xb1a2bc2ec50000"
      },
      "nonce": 0,
      "data": "0x454e39505a384d5847",
      "r": "0x9720f4bd68fc966955ac6269953ab335d398fc8edbc4f45f95261d52ef614f13",
      "s": "0x773c45d2249e1b5c44927587b4d2e75448ba6410b14d2b6fe08760679fbff9fd",
      "v": 27,
      "creates": null,
      "raw": "0xf87580850cf0aebcdd83015f90942910543af39aba0cd09dbb2d50200b3e800a63d287b1a2bc2ec5000089454e39505a384d58471ba09720f4bd68fc966955ac6269953ab335d398fc8edbc4f45f95261d52ef614f13a0773c45d2249e1b5c44927587b4d2e75448ba6410b14d2b6fe08760679fbff9fd",
      "networkId": 0,
      "chainId": 0
    }
  ]
}