{
  "hash": "0x1b8df9db8cfffcdbac1d71865e29ade532f443a00d8ae257cc506041c4d4b2e8",
  "parentHash": "0x4e9d1cd6fc234287421b2d8bdc324a9c83df8588fca98f139e37d4baa0cf4caf",
  "number": 85694,
  "timestamp": 1439567348,
  "nonce": "0x8cb40b4f415e5287",
  "difficulty": 2785425543885,
  "gasLimit": {
    "_hex": "0x2fefd8"
  },
  "gasUsed": {
    "_hex": "0xf618"
  },
  "miner": "0x88D74a59454F6cF3B51ef6b9136AFb6b9D405A88",
  "extraData": "0x476574682f76312e302e312d37666266393930632f6c696e75782f676f312e34",
  "transactions": [
    {
      "hash": "0x906b0c780be706fbbe52e03c3d340023995bdea678cb073c43e1071a83b13ba1",
      "blockHash": "0x1b8df9db8cfffcdbac1d71865e29ade532f443a00d8ae257cc506041c4d4b2e8",
      "blockNumber": 85694,
      "transactionIndex": 0,
      "confirmations": null,
      "from": "0x32Be343B94f860124dC4fEe278FDCBD38C102D88",
      "gasPrice": {
        "_hex": "0xd6fb7c3b1"
      },
      "gasLimit": {
        "_hex": "0x5208"
      },
      "to": "0x99181ED48C7c51532622dA23e20E2B38392476A7",
      "value": {
        "_hex": "0x8ac7230489e80000"
      },
      "nonce": 737,
      "data": "0x",
      "r": "0x192e7a1a1d524526f9507da0b854bf8b51b55558edba4be56dd63925ecb067ac",
      "s": "0x061887cd2a0c415bcdb10c9f8ecdb225548fadb5fc3553461e6dd9f3cd961800",
      "v": 27,
      "creates": null,
      "raw": "0xf86e8202e1850d6fb7c3b18252089499181ed48c7c51532622da23e20e2b38392476a7888ac7230489e80000801ba0192e7a1a1d524526f9507da0b854bf8b51b55558edba4be56dd63925ecb067aca0061887cd2a0c415bcdb10c9f8ecdb225548fadb5fc3553461e6dd9f3cd961800",
      "networkId": 0,
      "chainId": 0
    },
    {
      "hash": "0x48e806ec25038530d9b5c88af06d534c8b239b9c71e915b2d137c62404aa4f42",
      "blockHash": "0x1b8df9db8cfffcdbac1d71865e29ade532f443a00d8ae257cc506041c4d4b2e8",
      "blockNumber": 85694,
      "transactionIndex": 1,
      "confirmations": null,
      "from": "0x2910543Af39abA0Cd09dBb2D50200b3E800A63D2",
      "gasPrice": {
        "_hex": "0xcd673b9cc"
      },
      "gasLimit": {
        "_hex": "0x5208"
      },
      "to": "0x8F6864Db2057a8A1C2b2c16D39f64CE4F929F3D9",
      "value": {
        "_hex": "0x1157c828fdbef8000"
      },
      "nonce": 623,
      "data": "0x",
      "r": "0x094253237fe86992089037f37b1822297e863c00b02a0be0d3c61e850b56e963",
      "s": "0x0241690614ddc8f0e75dbc6ac3037f1d9ceceea4113554ac7b20dd0bcf8608d9",
      "v": 28,
      "creates": null,
      "raw": "0xf86f82026f850cd673b9cc825208948f6864db2057a8a1c2b2c16d39f64ce4f929f3d98901157c828fdbef8000801ca0094253237fe86992089037f37b1822297e863c00b02a0be0d3c61e850b56e963a00241690614ddc8f0e75dbc6ac3037f1d9ceceea4113554ac7b20dd0bcf8608d9",
      "networkId": 0,
      "chainId": 0
    },
    {
      "hash": "0xa749c58d02a4b2bd27443a3e365b2c7447e489c3225c0d743b7e4ff4488fb62e",
      "blockHash": "0x1b8df9db8cfffcdbac1d71865e29ade532f443a00d8ae257cc506041c4d4b2e8",
      "blockNumber": 85694,
      "transactionIndex": 2,
      "confirmations": null,
      "from": "0x2910543Af39abA0Cd09dBb2D50200b3E800A63D2",
      "gasPrice": {
        "_hex": "0xcd673b9cc"
      },
      "gasLimit": {
        "_hex": "0x5208"
      },
      "to": "0xb650873D5F81B81e9df52Db819c73f124b8D7607",
      "value": {
        "_hex": "0x809e5f6bda14e000"
      },
      "nonce": 624,
      "data": "0x",
      "r": "0x535f8671728061ea596c1bbeb6ede49eeb102e4d496947b16fd11a02c5530a96",
      "s": "0x5626715be2b365d2e79d6c535c76fc6c8b9b72f8569fc88d38a302d22be7b963",
      "v": 27,
      "creates": null,
      "raw": "0xf86e820270850cd673b9cc82520894b650873d5f81b81e9df52db819c73f124b8d760788809e5f6bda14e000801ba0535f8671728061ea596c1bbeb6ede49eeb102e4d496947b16fd11a02c5530a96a05626715be2b365d2e79d6c535c76fc6c8b9b72f8569fc88d38a302d22be7b963",
      "networkId": 0,
      "chainId": 0
    }
  ]
}