{
  "hash": "0x93a6d8b34766cb2d1ffa5547fbe022bffdd0ebf3e5b87ee071e833308740f296",
  "parentHash": "0x66306c1af70cc94feeecca6126791d190c24e35ce66dfd2eb9acfac93232b879",
  "number": 100853,
  "timestamp": 1439813444,
  "nonce": "0xa109271c43bd4b3f",
  "difficulty": 3850785625008,
  "gasLimit": {
    "_hex": "0x2fefd8"
  },
  "gasUsed": {
    "_hex": "0x5208"
  },
  "miner": "0xe6A7a1d47ff21B6321162AEA7C6CB457D5476Bca",
  "extraData": "0x476574682f76312e302e312d38326566323666362f6c696e75782f676f312e34",
  "transactions": [
    {
      "hash": "0x5b74669295bf6e1b52cea68da125db0cc90f5ca8e0b9081dcc0999d61d8dbe00",
      "blockHash": "0x93a6d8b34766cb2d1ffa5547fbe022bffdd0ebf3e5b87ee071e833308740f296",
      "blockNumber": 100853,
      "transactionIndex": 0,
      "confirmations": null,
      "from": "0x63738Ec4C9adec404749B5747F3bbE2147de632F",
      "gasPrice": {
        "_hex": "0xdbc14d5ad"
      },
      "gasLimit": {
        "_hex": "0x15f90"
      },
      "to": "0x557C2806B6ceA65a66F415bb2Ed1ce897B340745",
      "value": {
        "_hex": "0x53444835ec580000"
      },
      "nonce": 33,
      "data": "0x",
      "r": "0x03874c95d4c944f743814090f2c22e16ff29938d0dc8e2fde84c211ab3bce68c",
      "s": "0x7e6151ba41745f77a4f4b3e7d7fa30165a4b5e5952f319ac8c68746864881bf3",
      "v": 28,
      "creates": null,
      "raw": "0xf86d21850dbc14d5ad83015f9094557c2806b6cea65a66f415bb2ed1ce897b3407458853444835ec580000801ca003874c95d4c944f743814090f2c22e16ff29938d0dc8e2fde84c211ab3bce68ca07e6151ba41745f77a4f4b3e7d7fa30165a4b5e5952f319ac8c68746864881bf3",
      "networkId": 0,
      "chainId": 0
    }
  ]
}