{
  "hash": "0x4636c565b1224e768a0daf5f8d0006e9c038557297d8128cc0b77a1019cc2cea",
  "parentHash": "0xc6fb49822aef7fc6df00e446e32a7cff1ffc87dad2c1f0d597cb06ba3b878d80",
  "number": 55900,
  "timestamp": 1439078919,
  "nonce": "0x78fcf026763c268f",
  "difficulty": 1609936160181,
  "gasLimit": {
    "_hex": "0x2fefd8"
  },
  "gasUsed": {
    "_hex": "0x1ec30"
  },
  "miner": "0x458F183347F45a4001807728A89F31E9Da9D4A58",
  "extraData": "0x",
  "transactions": [
    {
      "hash": "0xd0ce965cd756ee3106e12e34eabca0023252651693ccc9ac4c7b032058f1baf3",
      "blockHash": "0x4636c565b1224e768a0daf5f8d0006e9c038557297d8128cc0b77a1019cc2cea",
      "blockNumber": 55900,
      "transactionIndex": 0,
      "confirmations": null,
      "from": "0x3234d29E2390E0Ac637B3ad0ACA3dF88aC82dC5d",
      "gasPrice": {
        "_hex": "0xda6ca771f"
      },
      "gasLimit": {
        "_hex": "0x5208"
      },
      "to": "0x32Be343B94f860124dC4fEe278FDCBD38C102D88",
      "value": {
        "_hex": "0x8878af55f02c6000"
      },
      "nonce": 2,
      "data": "0x",
      "r": "0x92e435f39494e0064ebe895e254dd99c6d40835445a192527071ea61b1567cdc",
      "s": "0x78c1a848532beb187a8dada937700e8b0cd853c5ffe40f961d92bcd834a09cfe",
      "v": 27,
      "creates": null,
      "raw": "0xf86c02850da6ca771f8252089432be343b94f860124dc4fee278fdcbd38c102d88888878af55f02c6000801ba092e435f39494e0064ebe895e254dd99c6d40835445a192527071ea61b1567cdca078c1a848532beb187a8dada937700e8b0cd853c5ffe40f961d92bcd834a09cfe",
      "networkId": 0,
      "chainId": 0
    },
    {
      "hash": "0xe9900ca024f6b9481ffd1445ad64982e059bf61f654b763f5d36901294b4f522",
      "blockHash": "0x4636c565b1224e768a0daf5f8d0006e9c038557297d8128cc0b77a1019cc2cea",
      "blockNumber": 55900,
      "transactionIndex": 1,
      "confirmations": null,
      "from": "0xF5EeDc192aB70b08D8354384aD94efD095849E00",
      "gasPrice": {
        "_hex": "0xda6ca771f"
      },
      "gasLimit": {
        "_hex": "0x5208"
      },
      "to": "0x32Be343B94f860124dC4fEe278FDCBD38C102D88",
      "value": {
        "_hex": "0x11589f0b03a64e000"
      },
      "nonce": 8,
      "data": "0x",
      "r": "0x0f5ce419a3eb6c7b01e6368aa425f47dfb69ad9575bf893e64d4ebed234a065e",
      "s": "0x16709c3eae645498b9b43cd9a19351247f160c8522172d574141d6dbb19dbd13",
      "v": 28,
      "creates": null,
      "raw": "0xf86d08850da6ca771f8252089432be343b94f860124dc4fee278fdcbd38c102d8889011589f0b03a64e000801ca00f5ce419a3eb6c7b01e6368aa425f47dfb69ad9575bf893e64d4ebed234a065ea016709c3eae645498b9b43cd9a19351247f160c8522172d574141d6dbb19dbd13",
      "networkId": 0,
      "chainId": 0
    },
    {
      "hash": "0x89a68616c7095ad5f64c978a0eb2c400d807662b9c5be7d2e36e114dbcda78f7",
      "blockHash": "0x4636c565b1224e768a0daf5f8d0006e9c038557297d8128cc0b77a1019cc2cea",
      "blockNumber": 55900,
      "transactionIndex": 2,
      "confirmations": null,
      "from": "0xe72717ae0d6792286968449ABA7d469BCAE1d957",
      "gasPrice": {
        "_hex": "0xda6ca771f"
      },
      "gasLimit": {
        "_hex": "0x5208"
      },
      "to": "0x32Be343B94f860124dC4fEe278FDCBD38C102D88",
      "value": {
        "_hex": "0x6330dd63f3dfac00"
      },
      "nonce": 0,
      "data": "0x",
      "r": "0x693efe0dedade2211c5d7d1d5c6b3ef5d7bbec8e9958ab45c392f730c8197a09",
      "s": "0x424400a5d544884849c7cfb8e45209650cce7b9d7d6329e135fbe4122aaa32c0",
      "v": 28,
      "creates": null,
      "raw": "0xf86c80850da6ca771f8252089432be343b94f860124dc4fee278fdcbd38c102d88886330dd63f3dfac00801ca0693efe0dedade2211c5d7d1d5c6b3ef5d7bbec8e9958ab45c392f730c8197a09a0424400a5d544884849c7cfb8e45209650cce7b9d7d6329e135fbe4122aaa32c0",
      "networkId": 0,
      "chainId": 0
    },
    {
      "hash": "0x18c37e54553a59e4f07347be907a8a1fa9250d6ddddb0135f7e11285a8006afa",
      "blockHash": "0x4636c565b1224e768a0daf5f8d0006e9c038557297d8128cc0b77a1019cc2cea",
      "blockNumber": 55900,
      "transactionIndex": 3,
      "confirmations": null,
      "from": "0xD924AAC0bCB65C13bE4044f6BeA8aAe34D7a7126",
      "gasPrice": {
        "_hex": "0xda6ca771f"
      },
      "gasLimit": {
        "_hex": "0x5208"
      },
      "to": "0x32Be343B94f860124dC4fEe278FDCBD38C102D88",
      "value": {
        "_hex": "0x9186f07c8662a000"
      },
      "nonce": 0,
      "data": "0x",
      "r": "0x8fe40b20d2ca54e919c3c8363aea89a2c4836ba48709df5f1eb144236a98932a",
      "s": "0x20f474db1239478478dd1dc0fbf2f573912c109a06b16516674edeea94d99679",
      "v": 27,
      "creates": null,
      "raw": "0xf86c80850da6ca771f8252089432be343b94f860124dc4fee278fdcbd38c102d88889186f07c8662a000801ba08fe40b20d2ca54e919c3c8363aea89a2c4836ba48709df5f1eb144236a98932aa020f474db1239478478dd1dc0fbf2f573912c109a06b16516674edeea94d99679",
      "networkId": 0,
      "chainId": 0
    },
    {
      "hash": "0x5e7e6ea9a7ee79731c0019541a186efd93e24ba42a197355b6a9e578431f395a",
      "blockHash": "0x4636c565b1224e768a0daf5f8d0006e9c038557297d8128cc0b77a1019cc2cea",
      "blockNumber": 55900,
      "transactionIndex": 4,
      "confirmations": null,
      "from": "0xAD8c7FBFaBC46C35aDb03F7b3A67e731E5793899",
      "gasPrice": {
        "_hex": "0xda6ca771f"
      },
      "gasLimit": {
        "_hex": "0x5208"
      },
      "to": "0x32Be343B94f860124dC4fEe278FDCBD38C102D88",
      "value": {
        "_hex": "0x5938d23fe8aff000"
      },
      "nonce": 0,
      "data": "0x",
      "r": "0xecaceb254c2312cd67c415b76b0f0e27a6c8a47b0e6d7af825ed857fd798a49a",
      "s": "0x41002a1ae303a676239259c853f22b381c42c347c2f47556635da0b733dd74f2",
      "v": 28,
      "creates": null,
      "raw": "0xf86c80850da6ca771f8252089432be343b94f860124dc4fee278fdcbd38c102d88885938d23fe8aff000801ca0ecaceb254c2312cd67c415b76b0f0e27a6c8a47b0e6d7af825ed857fd798a49aa041002a1ae303a676239259c853f22b381c42c347c2f47556635da0b733dd74f2",
      "networkId": 0,
      "chainId": 0
    },
    {
      "hash": "0xf6f7f25229cd3975a2b762400ba10eef12332f611f75a79ee52390348d9f531a",
      "blockHash": "0x4636c565b1224e768a0daf5f8d0006e9c038557297d8128cc0b77a1019cc2cea",
      "blockNumber": 55900,
      "transactionIndex": 5,
      "confirmations": null,
      "from": "0x6111E933E5e6297DFd0AAd9aAB64017c69062a08",
      "gasPrice": {
        "_hex": "0xda6ca771f"
      },
      "gasLimit": {
        "_hex": "0x5208"
      },
      "to": "0x32Be343B94f860124dC4fEe278FDCBD38C102D88",
      "value": {
        "_hex": "0x7de2538e45da5c00"
      },
      "nonce": 4,
      "data": "0x",
      "r": "0xd83502518f8ddda995aa8c32806d2f7babf24ab74f9910ba3040dfc675044716",
      "s": "0x0aeecf931d16b85bdafc66da1deebbca0a22abe5c28ed06bdf4870399e3ffd27",
      "v": 27,
      "creates": null,
      "raw": "0xf86c04850da6ca771f8252089432be343b94f860124dc4fee278fdcbd38c102d88887de2538e45da5c00801ba0d83502518f8ddda995aa8c32806d2f7babf24ab74f9910ba3040dfc675044716a00aeecf931d16b85bdafc66da1deebbca0a22abe5c28ed06bdf4870399e3ffd27",
      "networkId": 0,
      "chainId": 0
    }
  ]
}