{
  "hash": "0xbd90de2a7a2e49b91b741e24f6331c02f55c127529b3be4207eb73553605cecd",
  "parentHash": "0x0afc0ba5ce2019c1a6c738ff438433c2a1a834d2e8383a47bdc922ee7d5de995",
  "number": 121747,
  "timestamp": 1440181880,
  "nonce": "0xc17fb82f9a268cd7",
  "difficulty": 4477687595208,
  "gasLimit": {
    "_hex": "0x2fefd8"
  },
  "gasUsed": {
    "_hex": "0x5208"
  },
  "miner": "0xe6A7a1d47ff21B6321162AEA7C6CB457D5476Bca",
  "extraData": "0xd783010002844765746887676f312e342e32856c696e7578",
  "transactions": [
    {
      "hash": "0xf49b38267147ab995d92d86ecaf6a7d9fd38adc66973be950c6a1e66bddd3fde",
      "blockHash": "0xbd90de2a7a2e49b91b741e24f6331c02f55c127529b3be4207eb73553605cecd",
      "blockNumber": 121747,
      "transactionIndex": 0,
      "confirmations": null,
      "from": "0x2910543Af39abA0Cd09dBb2D50200b3E800A63D2",
      "gasPrice": {
        "_hex": "0xdc7b93233"
      },
      "gasLimit": {
        "_hex": "0x5208"
      },
      "to": "0x5c59E28366c83f1d262567c1c529185146e68b16",
      "value": {
        "_hex": "0x2b5e292df1e09f8000"
      },
      "nonce": 1199,
      "data": "0x",
      "r": "0xefd11e1f596adad7e8dd83ce1a6c58d9569355f80d277ba8985be878587e04b5",
      "s": "0x70f5cb7657bb9acaca558b749a1dbf4d62306d6df402ee30558be5a5417b5e5d",
      "v": 28,
      "creates": null,
      "raw": "0xf86f8204af850dc7b93233825208945c59e28366c83f1d262567c1c529185146e68b16892b5e292df1e09f8000801ca0efd11e1f596adad7e8dd83ce1a6c58d9569355f80d277ba8985be878587e04b5a070f5cb7657bb9acaca558b749a1dbf4d62306d6df402ee30558be5a5417b5e5d",
      "networkId": 0,
      "chainId": 0
    }
  ]
}