{
  "hash": "0x2472b0acc82bd6fa757f71bc50ffb800bde8d151ed4e25c3c062d6013891c375",
  "parentHash": "0x0730cd037c138f1db797e381336a58cf56c66b90fdb03c3917453d45f62ec634",
  "number": 68664,
  "timestamp": 1439291699,
  "nonce": "0x3454a11790454b1b",
  "difficulty": 2016242148801,
  "gasLimit": {
    "_hex": "0x2fefd8"
  },
  "gasUsed": {
    "_hex": "0x3d860"
  },
  "miner": "0x79d5794171E11dd5C2f0e26E1C187319db2FE6f7",
  "extraData": "0x",
  "transactions": [
    {
      "hash": "0x43c4984ce9c5441384fd078bd917f8b13ad244bf23da895920834fa74ef7b016",
      "blockHash": "0x2472b0acc82bd6fa757f71bc50ffb800bde8d151ed4e25c3c062d6013891c375",
      "blockNumber": 68664,
      "transactionIndex": 0,
      "confirmations": null,
      "from": "0x9Dd091647B06fbb9380147feeDd3fe3Ecc827990",
      "gasPrice": {
        "_hex": "0xba43b7400"
      },
      "gasLimit": {
        "_hex": "0x5208"
      },
      "to": "0x6747f922385c9a6F9cfDf095F34345257DD597bE",
      "value": {
        "_hex": "0x1ee8b7b42062000"
      },
      "nonce": 1,
      "data": "0x",
      "r": "0x688ed6e24c9f91853ae87571916a3e4e03373cd82d61462a91b523d9f1839244",
      "s": "0x5a6b2a17b207e0471e023bdcb8238cd42d2263bfaf4c0b950c1efa5d482f1ac2",
      "v": 27,
      "creates": null,
      "raw": "0xf86c01850ba43b7400825208946747f922385c9a6f9cfdf095f34345257dd597be8801ee8b7b42062000801ba0688ed6e24c9f91853ae87571916a3e4e03373cd82d61462a91b523d9f1839244a05a6b2a17b207e0471e023bdcb8238cd42d2263bfaf4c0b950c1efa5d482f1ac2",
      "networkId": 0,
      "chainId": 0
    },
    {
      "hash": "0x6fc31d3c0731dd58736c748abe8535060157f41f1cdce654d0ef81a83571138c",
      "blockHash": "0x2472b0acc82bd6fa757f71bc50ffb800bde8d151ed4e25c3c062d6013891c375",
      "blockNumber": 68664,
      "transactionIndex": 1,
      "confirmations": null,
      "from": "0xA2c6dDAA9A96067993BFc8671608589de3Ba60F0",
      "gasPrice": {
        "_hex": "0xba43b7400"
      },
      "gasLimit": {
        "_hex": "0x5208"
      },
      "to": "0x6747f922385c9a6F9cfDf095F34345257DD597bE",
      "value": {
        "_hex": "0x1ee8b7b42062000"
      },
      "nonce": 1,
      "data": "0x",
      "r": "0x4758b996022e2b881747f242d6cdb2fd19a92324fd3ea1c6a9340d72e19c72aa",
      "s": "0x7eb9bd3ea8522aadfa2a2b8d2e41411903a404a585bc13ae5216bbf0bce101de",
      "v": 27,
      "creates": null,
      "raw": "0xf86c01850ba43b7400825208946747f922385c9a6f9cfdf095f34345257dd597be8801ee8b7b42062000801ba04758b996022e2b881747f242d6cdb2fd19a92324fd3ea1c6a9340d72e19c72aaa07eb9bd3ea8522aadfa2a2b8d2e41411903a404a585bc13ae5216bbf0bce101de",
      "networkId": 0,
      "chainId": 0
    },
    {
      "hash": "0x07dfd9ebb0ad2725ca4a93243980f3e9de1526f53795561ea0da59bbe8f5b9ad",
      "blockHash": "0x2472b0acc82bd6fa757f71bc50ffb800bde8d151ed4e25c3c062d6013891c375",
      "blockNumber": 68664,
      "transactionIndex": 2,
      "confirmations": null,
      "from": "0xBF9B812BaD5FD0301bF4ae4C6415d9dfcfdCA889",
      "gasPrice": {
        "_hex": "0xba43b7400"
      },
      "gasLimit": {
        "_hex": "0x5208"
      },
      "to": "0x6747f922385c9a6F9cfDf095F34345257DD597bE",
      "value": {
        "_hex": "0x1ee8b7b42062000"
      },
      "nonce": 1,
      "data": "0x",
      "r": "0xc4b147ad1dec49f552fe2ca7a2975422af1753f49e3e3b512c49bbfe42272b6f",
      "s": "0x2be357d0a533f60b0c5e366575549f85f4946a1c614913a51d745b1027bf602d",
      "v": 28,
      "creates": null,
      "raw": "0xf86c01850ba43b7400825208946747f922385c9a6f9cfdf095f34345257dd597be8801ee8b7b42062000801ca0c4b147ad1dec49f552fe2ca7a2975422af1753f49e3e3b512c49bbfe42272b6fa02be357d0a533f60b0c5e366575549f85f4946a1c614913a51d745b1027bf602d",
      "networkId": 0,
      "chainId": 0
    },
    {
      "hash": "0x2947609097cfdfcc1e6ede6aa1f77eaa3eb694157d4a07b72b7ba6c9fb77edaa",
      "blockHash": "0x2472b0acc82bd6fa757f71bc50ffb800bde8d151ed4e25c3c062d6013891c375",
      "blockNumber": 68664,
      "transactionIndex": 3,
      "confirmations": null,
      "from": "0x847599CA040B4F2eA042b7d2C7980630027315ba",
      "gasPrice": {
        "_hex": "0xba43b7400"
      },
      "gasLimit": {
        "_hex": "0x5208"
      },
      "to": "0x6747f922385c9a6F9cfDf095F34345257DD597bE",
      "value": {
        "_hex": "0x1ee8b7b42062000"
      },
      "nonce": 1,
      "data": "0x",
      "r": "0xf69de910c85983e86302a8166e3e9f8f0c828db25d711c6a7231ddce619b200d",
      "s": "0x71cd7f712c3595df3ad69a2061cb5c462f73dd4e5ebdf64433bd220f30b8ac68",
      "v": 27,
      "creates": null,
      "raw": "0xf86c01850ba43b7400825208946747f922385c9a6f9cfdf095f34345257dd597be8801ee8b7b42062000801ba0f69de910c85983e86302a8166e3e9f8f0c828db25d711c6a7231ddce619b200da071cd7f712c3595df3ad69a2061cb5c462f73dd4e5ebdf64433bd220f30b8ac68",
      "networkId": 0,
      "chainId": 0
    },
    {
      "hash": "0x145ca40094b5496c5b6cc789b6b13d064856deb14c68a95b48a44a90bce3b7d4",
      "blockHash": "0x2472b0acc82bd6fa757f71bc50ffb800bde8d151ed4e25c3c062d6013891c375",
      "blockNumber": 68664,
      "transactionIndex": 4,
      "confirmations": null,
      "from": "0x946daB0F9054c590b8EB9660850aae13c272381D",
      "gasPrice": {
        "_hex": "0xba43b7400"
      },
      "gasLimit": {
        "_hex": "0x5208"
      },
      "to": "0x6747f922385c9a6F9cfDf095F34345257DD597bE",
      "value": {
        "_hex": "0x1ee8b7b42062000"
      },
      "nonce": 1,
      "data": "0x",
      "r": "0x20aaeea848556294e570097a8529e11e4da59faeca43de47a1e330f5ce5262e6",
      "s": "0x27d71a8b15148bba7321b9503332dcf3b216bcfa04793a51e65255e6ac6880be",
      "v": 28,
      "creates": null,
      "raw": "0xf86c01850ba43b7400825208946747f922385c9a6f9cfdf095f34345257dd597be8801ee8b7b42062000801ca020aaeea848556294e570097a8529e11e4da59faeca43de47a1e330f5ce5262e6a027d71a8b15148bba7321b9503332dcf3b216bcfa04793a51e65255e6ac6880be",
      "networkId": 0,
      "chainId": 0
    },
    {
      "hash": "0xd5dc0e228112adcc8da597574c0a596c37fc99cb8b3d5f03d67a24c0e6d587e6",
      "blockHash": "0x2472b0acc82bd6fa757f71bc50ffb800bde8d151ed4e25c3c062d6013891c375",
      "blockNumber": 68664,
      "transactionIndex": 5,
      "confirmations": null,
      "from": "0xbA66d47eC3F5151712D1CEaDEbb272624A60d195",
      "gasPrice": {
        "_hex": "0xba43b7400"
      },
      "gasLimit": {
        "_hex": "0x5208"
      },
      "to": "0x6747f922385c9a6F9cfDf095F34345257DD597bE",
      "value": {
        "_hex": "0x1ee8b7b42062000"
      },
      "nonce": 1,
      "data": "0x",
      "r": "0x9f1f901c9ab352528e6949b4d9f41f34d24fa5a15d3bde4a2db0e441200dc5e8",
      "s": "0x40f111ffa6ffd7b7b7787da27a31d003bcb4bb105028fd154326da02a523841f",
      "v": 27,
      "creates": null,
      "raw": "0xf86c01850ba43b7400825208946747f922385c9a6f9cfdf095f34345257dd597be8801ee8b7b42062000801ba09f1f901c9ab352528e6949b4d9f41f34d24fa5a15d3bde4a2db0e441200dc5e8a040f111ffa6ffd7b7b7787da27a31d003bcb4bb105028fd154326da02a523841f",
      "networkId": 0,
      "chainId": 0
    },
    {
      "hash": "0xbf0b0ba39b36e92ae93b5b8655d0ca133f01e9a4b3189712deb017549244f54b",
      "blockHash": "0x2472b0acc82bd6fa757f71bc50ffb800bde8d151ed4e25c3c062d6013891c375",
      "blockNumber": 68664,
      "transactionIndex": 6,
      "confirmations": null,
      "from": "0xaf7AeE4DB4d23C0c96D067D96f020147fED242C5",
      "gasPrice": {
        "_hex": "0xba43b7400"
      },
      "gasLimit": {
        "_hex": "0x5208"
      },
      "to": "0x6747f922385c9a6F9cfDf095F34345257DD597bE",
      "value": {
        "_hex": "0x1ee8b7b42062000"
      },
      "nonce": 1,
      "data": "0x",
      "r": "0xaf74f5bc60718006df388574f37f127f7b0b820fdedaebcd5c13ba6e7cfc8395",
      "s": "0x101419732a3067cb6b8ddcb4cc9f73e11ff7a3e511cc3d1c7572987df6e9bdef",
      "v": 28,
      "creates": null,
      "raw": "0xf86c01850ba43b7400825208946747f922385c9a6f9cfdf095f34345257dd597be8801ee8b7b42062000801ca0af74f5bc60718006df388574f37f127f7b0b820fdedaebcd5c13ba6e7cfc8395a0101419732a3067cb6b8ddcb4cc9f73e11ff7a3e511cc3d1c7572987df6e9bdef",
      "networkId": 0,
      "chainId": 0
    },
    {
      "hash": "0xb7c1bd9c88e41ab8c23837ac1f6aec68326ebe6eae6b3a521f69da5f8351270c",
      "blockHash": "0x2472b0acc82bd6fa757f71bc50ffb800bde8d151ed4e25c3c062d6013891c375",
      "blockNumber": 68664,
      "transactionIndex": 7,
      "confirmations": null,
      "from": "0xDBf81E29CcbfD8A1129da3A78305e3B4A58d2303",
      "gasPrice": {
        "_hex": "0xba43b7400"
      },
      "gasLimit": {
        "_hex": "0x5208"
      },
      "to": "0x6747f922385c9a6F9cfDf095F34345257DD597bE",
      "value": {
        "_hex": "0x1ee8b7b42062000"
      },
      "nonce": 1,
      "data": "0x",
      "r": "0xb959b77d3b41e9f1e9f16b489ffff3693e9c557b0471195916f0fc1fbf7dc839",
      "s": "0x3df0afc5cfb696f8222f1b248577dd7e6fa5fd3c1c3fcee220ab79fc19181641",
      "v": 27,
      "creates": null,
      "raw": "0xf86c01850ba43b7400825208946747f922385c9a6f9cfdf095f34345257dd597be8801ee8b7b42062000801ba0b959b77d3b41e9f1e9f16b489ffff3693e9c557b0471195916f0fc1fbf7dc839a03df0afc5cfb696f8222f1b248577dd7e6fa5fd3c1c3fcee220ab79fc19181641",
      "networkId": 0,
      "chainId": 0
    },
    {
      "hash": "0x27c8fd89e5f7046d9ca2adeff6bfa22c77e59ab508211f7529f277b58e4dd6a5",
      "blockHash": "0x2472b0acc82bd6fa757f71bc50ffb800bde8d151ed4e25c3c062d6013891c375",
      "blockNumber": 68664,
      "transactionIndex": 8,
      "confirmations": null,
      "from": "0xEfD17419b3f8C278F396F4e60eF3CE4c7B082919",
      "gasPrice": {
        "_hex": "0xba43b7400"
      },
      "gasLimit": {
        "_hex": "0x5208"
      },
      "to": "0x6747f922385c9a6F9cfDf095F34345257DD597bE",
      "value": {
        "_hex": "0x1ee8b7b42062000"
      },
      "nonce": 1,
      "data": "0x",
      "r": "0x596e5b3834ce9639459cd271cecd0b21c055e77d4a85cdee020a8c428d3fc56d",
      "s": "0x2e22e4e481c3e1b35ba7907e1489da2bc4acab4b51030787a61010ff65e084c8",
      "v": 27,
      "creates": null,
      "raw": "0xf86c01850ba43b7400825208946747f922385c9a6f9cfdf095f34345257dd597be8801ee8b7b42062000801ba0596e5b3834ce9639459cd271cecd0b21c055e77d4a85cdee020a8c428d3fc56da02e22e4e481c3e1b35ba7907e1489da2bc4acab4b51030787a61010ff65e084c8",
      "networkId": 0,
      "chainId": 0
    },
    {
      "hash": "0xfd7b02fc5ac78efbd7b3b8fda70d218748bc628575b90851a5e12bba71a53ddc",
      "blockHash": "0x2472b0acc82bd6fa757f71bc50ffb800bde8d151ed4e25c3c062d6013891c375",
      "blockNumber": 68664,
      "transactionIndex": 9,
      "confirmations": null,
      "from": "0xeeD203A3ACD617a6bd47Ca74b0c27bb025609C5d",
      "gasPrice": {
        "_hex": "0xba43b7400"
      },
      "gasLimit": {
        "_hex": "0x5208"
      },
      "to": "0x6747f922385c9a6F9cfDf095F34345257DD597bE",
      "value": {
        "_hex": "0x1ee8b7b42062000"
      },
      "nonce": 1,
      "data": "0x",
      "r": "0xc7f027d2c7f5d62806a7045a729f1e20066b2e78f31603d456b97d91e676ebdc",
      "s": "0x552c45fc5539d8a504dfc9ac5a4635a779b09f57f04dc0a5024481f87f352bed",
      "v": 28,
      "creates": null,
      "raw": "0xf86c01850ba43b7400825208946747f922385c9a6f9cfdf095f34345257dd597be8801ee8b7b42062000801ca0c7f027d2c7f5d62806a7045a729f1e20066b2e78f31603d456b97d91e676ebdca0552c45fc5539d8a504dfc9ac5a4635a779b09f57f04dc0a5024481f87f352bed",
      "networkId": 0,
      "chainId": 0
    },
    {
      "hash": "0x3df8c7e123a4418d3a3dcc4f17999cabb25df4b682fc83d05a379e8b0241b3e9",
      "blockHash": "0x2472b0acc82bd6fa757f71bc50ffb800bde8d151ed4e25c3c062d6013891c375",
      "blockNumber": 68664,
      "transactionIndex": 10,
      "confirmations": null,
      "from": "0xd9Bf1c77439dB284A4f0f6243fbC214252906afD",
      "gasPrice": {
        "_hex": "0xba43b7400"
      },
      "gasLimit": {
        "_hex": "0x5208"
      },
      "to": "0x6747f922385c9a6F9cfDf095F34345257DD597bE",
      "value": {
        "_hex": "0x1ee8b7b42062000"
      },
      "nonce": 1,
      "data": "0x",
      "r": "0x917d4b4a280751292b777c0508f88b424414abcf3dcffae7ee650a8760a0edc3",
      "s": "0x142a5cee7efc95fd3f2f6b29432f8dc69886156f1c5057c8767299fa375216d9",
      "v": 27,
      "creates": null,
      "raw": "0xf86c01850ba43b7400825208946747f922385c9a6f9cfdf095f34345257dd597be8801ee8b7b42062000801ba0917d4b4a280751292b777c0508f88b424414abcf3dcffae7ee650a8760a0edc3a0142a5cee7efc95fd3f2f6b29432f8dc69886156f1c5057c8767299fa375216d9",
      "networkId": 0,
      "chainId": 0
    },
    {
      "hash": "0xaab0a1c8ce4d4e0d5e43775bb12ca01ece6e88f1497be976a7282a679dbe9e5e",
      "blockHash": "0x2472b0acc82bd6fa757f71bc50ffb800bde8d151ed4e25c3c062d6013891c375",
      "blockNumber": 68664,
      "transactionIndex": 11,
      "confirmations": null,
      "from": "0xF1114b0a9dB8d89Ee378755505cA14af611cD95D",
      "gasPrice": {
        "_hex": "0xba43b7400"
      },
      "gasLimit": {
        "_hex": "0x5208"
      },
      "to": "0x6747f922385c9a6F9cfDf095F34345257DD597bE",
      "value": {
        "_hex": "0x1ee8b7b42062000"
      },
      "nonce": 1,
      "data": "0x",
      "r": "0x103d0efed684b0a580803bc05e288285257bb4e1227956f7642522d2fdc8705a",
      "s": "0x42ee8e9b033962ee555e5e1fe7174a0e635d6a50010c76f79241b1885db5bd81",
      "v": 27,
      "creates": null,
      "raw": "0xf86c01850ba43b7400825208946747f922385c9a6f9cfdf095f34345257dd597be8801ee8b7b42062000801ba0103d0efed684b0a580803bc05e288285257bb4e1227956f7642522d2fdc8705aa042ee8e9b033962ee555e5e1fe7174a0e635d6a50010c76f79241b1885db5bd81",
      "networkId": 0,
      "chainId": 0
    }
  ]
}