{
  "hash": "0x4dda7aa81d9510e1d924d7d48308fcf2b9362008bdeb33fa8431dc958f5a190d",
  "parentHash": "0x36251985daf7854a6216c1ce5275131aeecc1e6a5a6f4bec96d0db448d734668",
  "number": 103572,
  "timestamp": 1439855457,
  "nonce": "0x5c3be450ac7707b3",
  "difficulty": 4205242533112,
  "gasLimit": {
    "_hex": "0x2fefd8"
  },
  "gasUsed": {
    "_hex": "0x5208"
  },
  "miner": "0x2134e2a2b718DCa96580ECAC31E653Ea1fdd58DA",
  "extraData": "0x476574682f76312e302e312f77696e646f77732f676f312e342e32",
  "transactions": [
    {
      "hash": "0xeec117d0759598e08c82137a94a8cc911b0d8b440e07c484814b1035cd906c1b",
      "blockHash": "0x4dda7aa81d9510e1d924d7d48308fcf2b9362008bdeb33fa8431dc958f5a190d",
      "blockNumber": 103572,
      "transactionIndex": 0,
      "confirmations": null,
      "from": "0x16C9b930E32c92004105d7F66801C75c61E3408D",
      "gasPrice": {
        "_hex": "0xcd299ee2b"
      },
      "gasLimit": {
        "_hex": "0x5208"
      },
      "to": "0x32Be343B94f860124dC4fEe278FDCBD38C102D88",
      "value": {
        "_hex": "0x3e120d0d06bf260000"
      },
      "nonce": 2,
      "data": "0x",
      "r": "0x883294edf1fe8b5aed44542b22a2b00b09b879f755095ac78fdd0ac77d55edbb",
      "s": "0x21caf53fa4cfdc7deb9d99e7ae2fb25c8db45cb3646a8f158bc782d1122d173e",
      "v": 27,
      "creates": null,
      "raw": "0xf86d02850cd299ee2b8252089432be343b94f860124dc4fee278fdcbd38c102d88893e120d0d06bf260000801ba0883294edf1fe8b5aed44542b22a2b00b09b879f755095ac78fdd0ac77d55edbba021caf53fa4cfdc7deb9d99e7ae2fb25c8db45cb3646a8f158bc782d1122d173e",
      "networkId": 0,
      "chainId": 0
    }
  ]
}