{
  "hash": "0xb08c0b0d8028a8dd3a4f66961ba7024c9dd433c26e81c78f5e1d1b22ac40972c",
  "parentHash": "0x51c1c4542c0bcd662a15c0ba23856828f6a49ea5cb6573f2add1e847cdb5ecfe",
  "number": 51322,
  "timestamp": 1439002947,
  "nonce": "0x65955096adcf69a1",
  "difficulty": 1570430270296,
  "gasLimit": {
    "_hex": "0xa3bdd"
  },
  "gasUsed": {
    "_hex": "0x5208"
  },
  "miner": "0x6BB048244aC4f934163a15b7a472Ce7B48fC9F32",
  "extraData": "0x476574682f76312e302e312d37666266393930632f6c696e75782f676f312e34",
  "transactions": [
    {
      "hash": "0x64159f96483eb0d4afcf8912c9f48c67e0368978f7b49cb57a1451e0be9dd1bf",
      "blockHash": "0xb08c0b0d8028a8dd3a4f66961ba7024c9dd433c26e81c78f5e1d1b22ac40972c",
      "blockNumber": 51322,
      "transactionIndex": 0,
      "confirmations": null,
      "from": "0x4E892e8081BF36E488FddB3b2630f3f1E8da30d2",
      "gasPrice": {
        "_hex": "0xdb1d04481"
      },
      "gasLimit": {
        "_hex": "0x15f90"
      },
      "to": "0xe6282e5294D064DD01851808dE43b9be32066E72",
      "value": {
        "_hex": "0x16345785d8a0000"
      },
      "nonce": 6,
      "data": "0x",
      "r": "0x0a61414823d2db7cb01a23a7cf1ac4320e44c7fb3cc9932ecb0016a311e0a11d",
      "s": "0x26b61953f73f6970538e74bcf9548f18488d190a8197d7576e9e61f424bfb8ba",
      "v": 27,
      "creates": null,
      "raw": "0xf86d06850db1d0448183015f9094e6282e5294d064dd01851808de43b9be32066e7288016345785d8a0000801ba00a61414823d2db7cb01a23a7cf1ac4320e44c7fb3cc9932ecb0016a311e0a11da026b61953f73f6970538e74bcf9548f18488d190a8197d7576e9e61f424bfb8ba",
      "networkId": 0,
      "chainId": 0
    }
  ]
}