{
  "hash": "0x7f875a4d556cf682f8cb14d8982f90ead123381487e3ec122d2641f280ea1248",
  "parentHash": "0xc260aee2434a73e560e9689772b69835362cf779eaa79df78d0bcac93aee1125",
  "number": 93554,
  "timestamp": 1439692980,
  "nonce": "0xf11264822508e9c4",
  "difficulty": 3470042416196,
  "gasLimit": {
    "_hex": "0x2fefd5"
  },
  "gasUsed": {
    "_hex": "0x5208"
  },
  "miner": "0xf32866D5cE9a9b5673e076be48AbCd6ED48ADe78",
  "extraData": "0x476574682f76312e302e312d37666266393930632f6c696e75782f676f312e34",
  "transactions": [
    {
      "hash": "0x9179e94597ae1bdb7e2bba6c57aaf8e92c86102356c87f1d752e31eff0afae05",
      "blockHash": "0x7f875a4d556cf682f8cb14d8982f90ead123381487e3ec122d2641f280ea1248",
      "blockNumber": 93554,
      "transactionIndex": 0,
      "confirmations": null,
      "from": "0x007f7f58D3eb5b7510A301eCC749FC1fCDDBE14D",
      "gasPrice": {
        "_hex": "0xd225cb1f8"
      },
      "gasLimit": {
        "_hex": "0x15f90"
      },
      "to": "0xD9666150A9dA92d9108198a4072970805a8B3428",
      "value": {
        "_hex": "0x1236efcbcbb340000"
      },
      "nonce": 9,
      "data": "0x",
      "r": "0x1bad2efaf5cf3ffd5aad90e059e5408ca0d03257d47c76cd7b74ce0fb513a092",
      "s": "0x575febcd5ddd48f4876d95a888eca50f8ed460fb81dff45cb0214cf5f70839bb",
      "v": 28,
      "creates": null,
      "raw": "0xf86e09850d225cb1f883015f9094d9666150a9da92d9108198a4072970805a8b34288901236efcbcbb340000801ca01bad2efaf5cf3ffd5aad90e059e5408ca0d03257d47c76cd7b74ce0fb513a092a0575febcd5ddd48f4876d95a888eca50f8ed460fb81dff45cb0214cf5f70839bb",
      "networkId": 0,
      "chainId": 0
    }
  ]
}