{
  "hash": "0x8547104445c7458cccdd572559c217894378feccfb6bbca1864682d714a47da7",
  "parentHash": "0xebeaceadcccc7d3a48de536179106edd8eb6ecdce1d4a224f9f6cbde8e0dc86d",
  "number": 69076,
  "timestamp": 1439297949,
  "nonce": "0x894dd83603da66e4",
  "difficulty": 2051896461433,
  "gasLimit": {
    "_hex": "0x2fefd8"
  },
  "gasUsed": {
    "_hex": "0x5208"
  },
  "miner": "0xB1A4B41b8e75a153841c99c62d18588d45e7b406",
  "extraData": "0x",
  "transactions": [
    {
      "hash": "0x74c92959956269730fde4dcd893b4d22c74965fa395902fa30e598978b3449d3",
      "blockHash": "0x8547104445c7458cccdd572559c217894378feccfb6bbca1864682d714a47da7",
      "blockNumber": 69076,
      "transactionIndex": 0,
      "confirmations": null,
      "from": "0xA941415Fb29Fca10bA4beA1E0521D2BBba2f6A71",
      "gasPrice": {
        "_hex": "0xba43b7400"
      },
      "gasLimit": {
        "_hex": "0x5208"
      },
      "to": "0xd2B6414703c90beFE981B4035BA7E61fE6F131c9",
      "value": {
        "_hex": "0x36ef271c4dd000"
      },
      "nonce": 1,
      "data": "0x",
      "r": "0x63d2bb2b0304b6576e102f952cc82f16b3587e60d179524cfc26ffefb3db6e6a",
      "s": "0x7f911b0571ed8d77c012400572d02b659198cba5fd5716ad823ad64888fa9af5",
      "v": 27,
      "creates": null,
      "raw": "0xf86b01850ba43b740082520894d2b6414703c90befe981b4035ba7e61fe6f131c98736ef271c4dd000801ba063d2bb2b0304b6576e102f952cc82f16b3587e60d179524cfc26ffefb3db6e6aa07f911b0571ed8d77c012400572d02b659198cba5fd5716ad823ad64888fa9af5",
      "networkId": 0,
      "chainId": 0
    }
  ]
}