{
  "hash": "0xd7074616b9ee235b442d94f41fe89f7bcdbfc32d63b1f76db09440848cc8da1b",
  "parentHash": "0x403ea553816566497f2d5bda4be4f379535d61b9bfde8c73aea331e7e5da7f50",
  "number": 120226,
  "timestamp": 1440156391,
  "nonce": "0x8740d3e407a6572d",
  "difficulty": 4411220236432,
  "gasLimit": {
    "_hex": "0x2fefd8"
  },
  "gasUsed": {
    "_hex": "0x5208"
  },
  "miner": "0x9746c7e1ef2bd21FF3997fa467593a89cb852BD0",
  "extraData": "0x476574682f76312e302e312f77696e646f77732f676f312e342e32",
  "transactions": [
    {
      "hash": "0xbf32fbe6006edd65ef58ecb02e73e713b724a1f0ebb9da7aa67fd17858a632fe",
      "blockHash": "0xd7074616b9ee235b442d94f41fe89f7bcdbfc32d63b1f76db09440848cc8da1b",
      "blockNumber": 120226,
      "transactionIndex": 0,
      "confirmations": null,
      "from": "0xBaAE86636FA84853f8A5585096De5a8b13D1Ad8c",
      "gasPrice": {
        "_hex": "0xba43b7400"
      },
      "gasLimit": {
        "_hex": "0x5208"
      },
      "to": "0x32Be343B94f860124dC4fEe278FDCBD38C102D88",
      "value": {
        "_hex": "0x30564338e3d8720000"
      },
      "nonce": 0,
      "data": "0x",
      "r": "0x5a4da08146aa7a1e308510eb36cec51643d3bb996eee13005cb7c18e73df2640",
      "s": "0x66034eee699ec0c9d6b145658b943c31aa634495609ddac553c90f580f2096e3",
      "v": 28,
      "creates": null,
      "raw": "0xf86d80850ba43b74008252089432be343b94f860124dc4fee278fdcbd38c102d888930564338e3d8720000801ca05a4da08146aa7a1e308510eb36cec51643d3bb996eee13005cb7c18e73df2640a066034eee699ec0c9d6b145658b943c31aa634495609ddac553c90f580f2096e3",
      "networkId": 0,
      "chainId": 0
    }
  ]
}