{
  "hash": "0x59a97be8a9c4ab6ab6a0efcc1a42b50f09425cff8501c41f2ff809c9a8491e5f",
  "parentHash": "0xb2644d3b22e8353782de3d482c362df02929e691c28b1b3da60e72ac7f02e839",
  "number": 101136,
  "timestamp": 1439818012,
  "nonce": "0x75d6ed4ab3c2aea1",
  "difficulty": 3863839656461,
  "gasLimit": {
    "_hex": "0x2fefd8"
  },
  "gasUsed": {
    "_hex": "0xa410"
  },
  "miner": "0x580992B51e3925e23280EfB93d3047C82f17E038",
  "extraData": "0x476574682f76312e302e312f6c696e75782f676f312e342e32",
  "transactions": [
    {
      "hash": "0xedfba0a960892a9d09a7f35957e87a2506019fdb6be4d32a5ce27ba9d19ada12",
      "blockHash": "0x59a97be8a9c4ab6ab6a0efcc1a42b50f09425cff8501c41f2ff809c9a8491e5f",
      "blockNumber": 101136,
      "transactionIndex": 0,
      "confirmations": null,
      "from": "0x007f7f58D3eb5b7510A301eCC749FC1fCDDBE14D",
      "gasPrice": {
        "_hex": "0xe0cfe7246"
      },
      "gasLimit": {
        "_hex": "0x15f90"
      },
      "to": "0xb1abce2918E21ddb93AA452731a12672A3d9F75a",
      "value": {
        "_hex": "0x4563918244f40000"
      },
      "nonce": 181,
      "data": "0x",
      "r": "0x3512f5a27a979cc283316e1552f985f6e2fd1f134acfe9b0cc1f96f08094cc09",
      "s": "0x22dd3c0fabbc2c75f9e70284465e8f335c0ea16ab003fb327b936aeff4881fa2",
      "v": 28,
      "creates": null,
      "raw": "0xf86e81b5850e0cfe724683015f9094b1abce2918e21ddb93aa452731a12672a3d9f75a884563918244f40000801ca03512f5a27a979cc283316e1552f985f6e2fd1f134acfe9b0cc1f96f08094cc09a022dd3c0fabbc2c75f9e70284465e8f335c0ea16ab003fb327b936aeff4881fa2",
      "networkId": 0,
      "chainId": 0
    },
    {
      "hash": "0xb8304c0f619772471dcef69fc843fd60dd79276bdcc3a51ef97d4e20e743fa79",
      "blockHash": "0x59a97be8a9c4ab6ab6a0efcc1a42b50f09425cff8501c41f2ff809c9a8491e5f",
      "blockNumber": 101136,
      "transactionIndex": 1,
      "confirmations": null,
      "from": "0x007f7f58D3eb5b7510A301eCC749FC1fCDDBE14D",
      "gasPrice": {
        "_hex": "0xe0cfe7246"
      },
      "gasLimit": {
        "_hex": "0x15f90"
      },
      "to": "0xb1abce2918E21ddb93AA452731a12672A3d9F75a",
      "value": {
        "_hex": "0x4563918244f40000"
      },
      "nonce": 182,
      "data": "0x",
      "r": "0xf3c6a576663b7da301e1a487376e0dee87238225db0aa390bc64ec735d112fa9",
      "s": "0x3d1aa021f539799a0232c34410f2291817e701efca5b88b4acbc58b059145f3c",
      "v": 27,
      "creates": null,
      "raw": "0xf86e81b6850e0cfe724683015f9094b1abce2918e21ddb93aa452731a12672a3d9f75a884563918244f40000801ba0f3c6a576663b7da301e1a487376e0dee87238225db0aa390bc64ec735d112fa9a03d1aa021f539799a0232c34410f2291817e701efca5b88b4acbc58b059145f3c",
      "networkId": 0,
      "chainId": 0
    }
  ]
}