{
  "hash": "0x45bef04b48f42f5446ca9ba2f8f039fda96d3890bf1a28e97778567074868e45",
  "parentHash": "0x4b0a072be90d91bc48acec8f66e4bf73b03dd4c1f76868ee6b22b338d15884bf",
  "number": 48737,
  "timestamp": 1438962150,
  "nonce": "0xf52e2dd606e8912e",
  "difficulty": 1475016991165,
  "gasLimit": {
    "_hex": "0x1d28f"
  },
  "gasUsed": {
    "_hex": "0x546c"
  },
  "miner": "0xa50ec0D39fa913E62f1Bae7074E6F36caA71855b",
  "extraData": "0x476574682f76312e302e302f6c696e75782f676f312e342e32",
  "transactions": [
    {
      "hash": "0x8ad331c647785037b16c51efae5f6c171c47f057a4f5d794ee0ed42d899906dc",
      "blockHash": "0x45bef04b48f42f5446ca9ba2f8f039fda96d3890bf1a28e97778567074868e45",
      "blockNumber": 48737,
      "transactionIndex": 0,
      "confirmations": null,
      "from": "0xa256D16066104348Ae311b81867D4Ee12711911f",
      "gasPrice": {
        "_hex": "0xd82cb884d"
      },
      "gasLimit": {
        "_hex": "0x15f90"
      },
      "to": "0x2910543Af39abA0Cd09dBb2D50200b3E800A63D2",
      "value": {
        "_hex": "0xde0b6b3a7640000"
      },
      "nonce": 1,
      "data": "0x454e52463245464130",
      "r": "0x7e0ea9e2165552452a9da9ec19f495b836b9c435ea36fc508c80bfbec03e6d43",
      "s": "0x230d85fcccdc0ecf4b2f2ebc34fa96ee57eb0e16871f758fc01d78f39f7fcc05",
      "v": 27,
      "creates": null,
      "raw": "0xf87601850d82cb884d83015f90942910543af39aba0cd09dbb2d50200b3e800a63d2880de0b6b3a764000089454e524632454641301ba07e0ea9e2165552452a9da9ec19f495b836b9c435ea36fc508c80bfbec03e6d43a0230d85fcccdc0ecf4b2f2ebc34fa96ee57eb0e16871f758fc01d78f39f7fcc05",
      "networkId": 0,
      "chainId": 0
    }
  ]
}