{
  "hash": "0x809a05f616d9d4ce280f67d547ec41dbb6a1fb0abbac8813ad13cf81d21b64cd",
  "parentHash": "0xc4b8cd28388fd53bca1f7091459103c9ef9dd87f781b0ca51edbaf509d6c7eef",
  "number": 77279,
  "timestamp": 1439434546,
  "nonce": "0x84917bfc03ec6fa0",
  "difficulty": 2232754042698,
  "gasLimit": {
    "_hex": "0x2fefd8"
  },
  "gasUsed": {
    "_hex": "0x5208"
  },
  "miner": "0xC603Ab5ef41fC61AA8b76bEddb09e3Cfcbb174BD",
  "extraData": "0x476574682f76312e302e312f77696e646f77732f676f312e342e32",
  "transactions": [
    {
      "hash": "0xb9f81d6d431a1b4d3b419321b1175945deaa7d2c39b560a72ffb0b43749263f7",
      "blockHash": "0x809a05f616d9d4ce280f67d547ec41dbb6a1fb0abbac8813ad13cf81d21b64cd",
      "blockNumber": 77279,
      "transactionIndex": 0,
      "confirmations": null,
      "from": "0x770d98d31b4353FceEE8560c4CCf803e88C0c4e0",
      "gasPrice": {
        "_hex": "0xdd76e8e43"
      },
      "gasLimit": {
        "_hex": "0x15f90"
      },
      "to": "0xCc519A6f707571a4C58F0c4b574643283a0742B8",
      "value": {
        "_hex": "0x1fde7e53536ab851e0"
      },
      "nonce": 6,
      "data": "0x",
      "r": "0x68a2779927501999401957daf1c854e28364adb4c5f528b922ec9a63254d3e40",
      "s": "0x20253386e98e2f270fc599e9d7c37c3c1abeca853e450edc613aff78b0c51617",
      "v": 28,
      "creates": null,
      "raw": "0xf86e06850dd76e8e4383015f9094cc519a6f707571a4c58f0c4b574643283a0742b8891fde7e53536ab851e0801ca068a2779927501999401957daf1c854e28364adb4c5f528b922ec9a63254d3e40a020253386e98e2f270fc599e9d7c37c3c1abeca853e450edc613aff78b0c51617",
      "networkId": 0,
      "chainId": 0
    }
  ]
}