{
  "hash": "0x315d5ad36a6820aca084c9981181dc08e04f919f5872a3b2dbcd367cdfe2796e",
  "parentHash": "0x19cabab8dbf1903fc9719bdb3deafadb0cbae70087f99f10e326d0e9df01708e",
  "number": 68416,
  "timestamp": 1439287557,
  "nonce": "0x99e41dd100f7eadb",
  "difficulty": 2012367511285,
  "gasLimit": {
    "_hex": "0x2fefd8"
  },
  "gasUsed": {
    "_hex": "0x2dc4d"
  },
  "miner": "0x88D74a59454F6cF3B51ef6b9136AFb6b9D405A88",
  "extraData": "0x476574682f76312e302e312d38326566323666362f6c696e75782f676f312e34",
  "transactions": [
    {
      "hash": "0x9cc89d6a38fb42241ed2683894a3d16994ec43206aae1eaf8dc3a9780ae311a6",
      "blockHash": "0x315d5ad36a6820aca084c9981181dc08e04f919f5872a3b2dbcd367cdfe2796e",
      "blockNumber": 68416,
      "transactionIndex": 0,
      "confirmations": null,
      "from": "0xbB7735934F8229F1fc2e76F7AfD82e14AA1e8E81",
      "gasPrice": {
        "_hex": "0xe255e6496"
      },
      "gasLimit": {
        "_hex": "0x61a80"
      },
      "to": "0x5Fe5B7546D1628f7348B023A0393de1FC825A4fD",
      "value": {
        "_hex": "0xde0b6b3a7640000"
      },
      "nonce": 2,
      "data": "0xb595b8b50000000000000000000000000000000000000000000000000000000000000000",
      "r": "0x2d247de69a41ab487e1366a7718fa950e4584f29bae37e8017c25274a858eb2f",
      "s": "0x6236ae80e59bc345ab37ee7b4b5a7841a142cddec8176b2593ace3925aa85543",
      "v": 28,
      "creates": null,
      "raw": "0xf89102850e255e649683061a80945fe5b7546d1628f7348b023a0393de1fc825a4fd880de0b6b3a7640000a4b595b8b500000000000000000000000000000000000000000000000000000000000000001ca02d247de69a41ab487e1366a7718fa950e4584f29bae37e8017c25274a858eb2fa06236ae80e59bc345ab37ee7b4b5a7841a142cddec8176b2593ace3925aa85543",
      "networkId": 0,
      "chainId": 0
    },
    {
      "hash": "0x05023d29e70d273a889913cdf05146434d07a76b3db51e197c710e02fd51308b",
      "blockHash": "0x315d5ad36a6820aca084c9981181dc08e04f919f5872a3b2dbcd367cdfe2796e",
      "blockNumber": 68416,
      "transactionIndex": 1,
      "confirmations": null,
      "from": "0x17580B766f7453525ca4C6A88b01b50570EA088C",
      "gasPrice": {
        "_hex": "0xd2369f1e5"
      },
      "gasLimit": {
        "_hex": "0x61a80"
      },
      "to": "0x5Fe5B7546D1628f7348B023A0393de1FC825A4fD",
      "value": {
        "_hex": "0xde0b6b3a7640000"
      },
      "nonce": 21,
      "data": "0xb595b8b50000000000000000000000000000000000000000000000000000000000000000",
      "r": "0x1d49ba6611346d22bc77d65dfccd5a147a5be9371f7dd828180703dac32cafa1",
      "s": "0x33bc5e62f218ff1b90ffcd9c9ec73b42de5ab8e3f66168be041ee8def5e55243",
      "v": 28,
      "creates": null,
      "raw": "0xf89115850d2369f1e583061a80945fe5b7546d1628f7348b023a0393de1fc825a4fd880de0b6b3a7640000a4b595b8b500000000000000000000000000000000000000000000000000000000000000001ca01d49ba6611346d22bc77d65dfccd5a147a5be9371f7dd828180703dac32cafa1a033bc5e62f218ff1b90ffcd9c9ec73b42de5ab8e3f66168be041ee8def5e55243",
      "networkId": 0,
      "chainId": 0
    },
    {
      "hash": "0xa5a52a6f71f3a836dc185d71903d7e6c17c144072149bba0d38fc7ee4dec209c",
      "blockHash": "0x315d5ad36a6820aca084c9981181dc08e04f919f5872a3b2dbcd367cdfe2796e",
      "blockNumber": 68416,
      "transactionIndex": 2,
      "confirmations": null,
      "from": "0xe86E78088E8aC7F483b3C4A466e4d7B255bAC723",
      "gasPrice": {
        "_hex": "0xba43b7400"
      },
      "gasLimit": {
        "_hex": "0x5208"
      },
      "to": "0x10b7e66C734d624A2938C3531e269AE5DACC715C",
      "value": {
        "_hex": "0x653580cf6eb000"
      },
      "nonce": 1,
      "data": "0x",
      "r": "0x8826027c341017964777c1e204482b97d87cc202849e8f052ac9497779e5c43d",
      "s": "0x7ba863faa48ee3ce5bf11b0ac47b9eeaca41b4ff354924c38bb7a769a30244ec",
      "v": 27,
      "creates": null,
      "raw": "0xf86b01850ba43b74008252089410b7e66c734d624a2938c3531e269ae5dacc715c87653580cf6eb000801ba08826027c341017964777c1e204482b97d87cc202849e8f052ac9497779e5c43da07ba863faa48ee3ce5bf11b0ac47b9eeaca41b4ff354924c38bb7a769a30244ec",
      "networkId": 0,
      "chainId": 0
    },
    {
      "hash": "0xa41bf1727bccf0540e4a1860d90f7d8c1eceafd8b8527e124efa1b1ac6614ff8",
      "blockHash": "0x315d5ad36a6820aca084c9981181dc08e04f919f5872a3b2dbcd367cdfe2796e",
      "blockNumber": 68416,
      "transactionIndex": 3,
      "confirmations": null,
      "from": "0x1Bb700719a9f63CD887DA4a2803feF2dFDEed9C3",
      "gasPrice": {
        "_hex": "0xba43b7400"
      },
      "gasLimit": {
        "_hex": "0x5208"
      },
      "to": "0x7C912300A01EE8Bec5be6A18320374CB066E3f83",
      "value": {
        "_hex": "0x653580cf6eb000"
      },
      "nonce": 1,
      "data": "0x",
      "r": "0x600067168ae97d76f6ff3bc353d7fbe4f9098e045cc548b3cd6f413f8a2a748a",
      "s": "0x40df3041f82a1053a35add23b7e500c9ee322d74da70174c4ebd8f35883f00ee",
      "v": 27,
      "creates": null,
      "raw": "0xf86b01850ba43b7400825208947c912300a01ee8bec5be6a18320374cb066e3f8387653580cf6eb000801ba0600067168ae97d76f6ff3bc353d7fbe4f9098e045cc548b3cd6f413f8a2a748aa040df3041f82a1053a35add23b7e500c9ee322d74da70174c4ebd8f35883f00ee",
      "networkId": 0,
      "chainId": 0
    },
    {
      "hash": "0x854484951523584c0730120ddd47ee9a880fd0bb6588711369a81dc737f30c8a",
      "blockHash": "0x315d5ad36a6820aca084c9981181dc08e04f919f5872a3b2dbcd367cdfe2796e",
      "blockNumber": 68416,
      "transactionIndex": 4,
      "confirmations": null,
      "from": "0x6747f922385c9a6F9cfDf095F34345257DD597bE",
      "gasPrice": {
        "_hex": "0xba43b7400"
      },
      "gasLimit": {
        "_hex": "0x5208"
      },
      "to": "0x4cCf56BeE3513deF37532934E22d2269167C672b",
      "value": {
        "_hex": "0x1fcbfa42bd6000"
      },
      "nonce": 78,
      "data": "0x",
      "r": "0x1348bada1235ed0ccf5ff170dc0e3f2eed54870fb4667ff36b5a77c9e39ce179",
      "s": "0x7e9612c9e800a7b90315f57be9558e7e7c2d1db618edbced3bf4c63a34a35d3a",
      "v": 28,
      "creates": null,
      "raw": "0xf86b4e850ba43b7400825208944ccf56bee3513def37532934e22d2269167c672b871fcbfa42bd6000801ca01348bada1235ed0ccf5ff170dc0e3f2eed54870fb4667ff36b5a77c9e39ce179a07e9612c9e800a7b90315f57be9558e7e7c2d1db618edbced3bf4c63a34a35d3a",
      "networkId": 0,
      "chainId": 0
    },
    {
      "hash": "0x3c8cf4b820f0422558813d5198ee2c1b945aa8831617d36542abaef54e831d22",
      "blockHash": "0x315d5ad36a6820aca084c9981181dc08e04f919f5872a3b2dbcd367cdfe2796e",
      "blockNumber": 68416,
      "transactionIndex": 5,
      "confirmations": null,
      "from": "0xFA8c94401cFc41730b8D9357067c628a12d8F50c",
      "gasPrice": {
        "_hex": "0xba43b7400"
      },
      "gasLimit": {
        "_hex": "0x5208"
      },
      "to": "0xfedFa3299B2919c6601F4eEcB6Adb74637949b30",
      "value": {
        "_hex": "0x653580cf6eb000"
      },
      "nonce": 1,
      "data": "0x",
      "r": "0x52a4bf254902c840c1efced358867cb9f1dab20204de55ab747a23c811367256",
      "s": "0x67d09333edd9e0957562e9a6afdcf03618cae5a63d3f4e3bfd63fa66d55822e1",
      "v": 27,
      "creates": null,
      "raw": "0xf86b01850ba43b740082520894fedfa3299b2919c6601f4eecb6adb74637949b3087653580cf6eb000801ba052a4bf254902c840c1efced358867cb9f1dab20204de55ab747a23c811367256a067d09333edd9e0957562e9a6afdcf03618cae5a63d3f4e3bfd63fa66d55822e1",
      "networkId": 0,
      "chainId": 0
    },
    {
      "hash": "0xae98f62e1f7897000413851a7027a03e0bdb28e4f0af69cdfe75ba6288f2c896",
      "blockHash": "0x315d5ad36a6820aca084c9981181dc08e04f919f5872a3b2dbcd367cdfe2796e",
      "blockNumber": 68416,
      "transactionIndex": 6,
      "confirmations": null,
      "from": "0x03AF1A1b92ef0F8A8210e75176E3dB5E8b69c287",
      "gasPrice": {
        "_hex": "0xba43b7400"
      },
      "gasLimit": {
        "_hex": "0x5208"
      },
      "to": "0xac84b11491731b2c89b88B9F6f579C141D5F15DF",
      "value": {
        "_hex": "0x653580cf6eb000"
      },
      "nonce": 1,
      "data": "0x",
      "r": "0xdde535cf525b9c69f783e12fb2e74a163b88152a4910ce750d15c75fd52acfed",
      "s": "0x1f406f8e93bbd843918b4d8e83188d884b37ea5171f94e2e558332cdcaab00a0",
      "v": 28,
      "creates": null,
      "raw": "0xf86b01850ba43b740082520894ac84b11491731b2c89b88b9f6f579c141d5f15df87653580cf6eb000801ca0dde535cf525b9c69f783e12fb2e74a163b88152a4910ce750d15c75fd52acfeda01f406f8e93bbd843918b4d8e83188d884b37ea5171f94e2e558332cdcaab00a0",
      "networkId": 0,
      "chainId": 0
    }
  ]
}