{
  "hash": "0xcc2a9b814850eaa4057b2069d927a883c32537ab145cb2f86f27f8813b042c76",
  "parentHash": "0x7d036d7bbbfdb28bd57a76a6ce1dab6762ad395ef985e19db11b536163728d16",
  "number": 119499,
  "timestamp": 1440144017,
  "nonce": "0xa678ab53d6199afa",
  "difficulty": 4392258161203,
  "gasLimit": {
    "_hex": "0x2fefd8"
  },
  "gasUsed": {
    "_hex": "0x14820"
  },
  "miner": "0x52bc44d5378309EE2abF1539BF71dE1b7d7bE3b5",
  "extraData": "0xd783010002844765746887676f312e342e32856c696e7578",
  "transactions": [
    {
      "hash": "0xfee887dd3d102219ea8c82be8db222e6536c120a114bd2fa70ae3e0454157be5",
      "blockHash": "0xcc2a9b814850eaa4057b2069d927a883c32537ab145cb2f86f27f8813b042c76",
      "blockNumber": 119499,
      "transactionIndex": 0,
      "confirmations": null,
      "from": "0x156b8406C35B2817293e2C99e788c2457C227C54",
      "gasPrice": {
        "_hex": "0xba43b7400"
      },
      "gasLimit": {
        "_hex": "0x5208"
      },
      "to": "0x32Be343B94f860124dC4fEe278FDCBD38C102D88",
      "value": {
        "_hex": "0x3ae93d9d65c56c00"
      },
      "nonce": 1,
      "data": "0x",
      "r": "0x00927c9bc62d047a33a064f3c96bc81705345c54e9a7b43106772b2b1c6f605a",
      "s": "0x2cdf6af0ca8ca3533a5f315346f88cc801fe7c8460e3603258e131502ceb794e",
      "v": 27,
      "creates": null,
      "raw": "0xf86b01850ba43b74008252089432be343b94f860124dc4fee278fdcbd38c102d88883ae93d9d65c56c00801b9f927c9bc62d047a33a064f3c96bc81705345c54e9a7b43106772b2b1c6f605aa02cdf6af0ca8ca3533a5f315346f88cc801fe7c8460e3603258e131502ceb794e",
      "networkId": 0,
      "chainId": 0
    },
    {
      "hash": "0xe7409f382feb867a828da272728b7b68ca1db7385fa52be5333a3d4e836620d6",
      "blockHash": "0xcc2a9b814850eaa4057b2069d927a883c32537ab145cb2f86f27f8813b042c76",
      "blockNumber": 119499,
      "transactionIndex": 1,
      "confirmations": null,
      "from": "0x6747f922385c9a6F9cfDf095F34345257DD597bE",
      "gasPrice": {
        "_hex": "0xba43b7400"
      },
      "gasLimit": {
        "_hex": "0x5208"
      },
      "to": "0xc8ebccC5F5689Fa8659d83713341e5aD19349448",
      "value": {
        "_hex": "0x3afb087b87690000"
      },
      "nonce": 157,
      "data": "0x",
      "r": "0xa2ff5b61921aab7be1f38097eaa2665a13b90012b22977e1f1556fea3445c1da",
      "s": "0x6519dd15b76c4a31bc1e9f31aa84cc11d8ec26cb0f8fea634b083cc71df3ed9d",
      "v": 27,
      "creates": null,
      "raw": "0xf86d819d850ba43b740082520894c8ebccc5f5689fa8659d83713341e5ad19349448883afb087b87690000801ba0a2ff5b61921aab7be1f38097eaa2665a13b90012b22977e1f1556fea3445c1daa06519dd15b76c4a31bc1e9f31aa84cc11d8ec26cb0f8fea634b083cc71df3ed9d",
      "networkId": 0,
      "chainId": 0
    },
    {
      "hash": "0xcff0da1daa271fa236612e1d6448a0dd2ef912520eff03dff0f2108192b91f9d",
      "blockHash": "0xcc2a9b814850eaa4057b2069d927a883c32537ab145cb2f86f27f8813b042c76",
      "blockNumber": 119499,
      "transactionIndex": 2,
      "confirmations": null,
      "from": "0x1cd3e3f70eBB9c4e21165a2cFF877531ffa25EA6",
      "gasPrice": {
        "_hex": "0xba43b7400"
      },
      "gasLimit": {
        "_hex": "0x5208"
      },
      "to": "0x32Be343B94f860124dC4fEe278FDCBD38C102D88",
      "value": {
        "_hex": "0x1d6e9917535d400"
      },
      "nonce": 0,
      "data": "0x",
      "r": "0xbf5b8e13197a05070f09902c40dd34245f58b7eb19f8c3c1bbd34ad347f2e9a5",
      "s": "0x414ab2ea982384eb992c06e731e41e6826fe69f12e735f1af5400d4158bc0d25",
      "v": 27,
      "creates": null,
      "raw": "0xf86c80850ba43b74008252089432be343b94f860124dc4fee278fdcbd38c102d888801d6e9917535d400801ba0bf5b8e13197a05070f09902c40dd34245f58b7eb19f8c3c1bbd34ad347f2e9a5a0414ab2ea982384eb992c06e731e41e6826fe69f12e735f1af5400d4158bc0d25",
      "networkId": 0,
      "chainId": 0
    },
    {
      "hash": "0x7e1ddaf0bc28b587b6eda4d05334aeeb62e6753881b45829ed9009baf1ac67c5",
      "blockHash": "0xcc2a9b814850eaa4057b2069d927a883c32537ab145cb2f86f27f8813b042c76",
      "blockNumber": 119499,
      "transactionIndex": 3,
      "confirmations": null,
      "from": "0xCD424C53F5dc7d22cDFf536309C24Ad87A97E6aF",
      "gasPrice": {
        "_hex": "0xba43b7400"
      },
      "gasLimit": {
        "_hex": "0x5208"
      },
      "to": "0x32Be343B94f860124dC4fEe278FDCBD38C102D88",
      "value": {
        "_hex": "0x26f53fca1abe6000"
      },
      "nonce": 0,
      "data": "0x",
      "r": "0x639968357559ebca8d9f782acd0578164b6d201f47d37683160d00243efc2c4b",
      "s": "0x0f35cd071e7f3e808e77fe6fa709bf4f7c8a7afc4b5b49763682fea17cb9d95a",
      "v": 28,
      "creates": null,
      "raw": "0xf86c80850ba43b74008252089432be343b94f860124dc4fee278fdcbd38c102d888826f53fca1abe6000801ca0639968357559ebca8d9f782acd0578164b6d201f47d37683160d00243efc2c4ba00f35cd071e7f3e808e77fe6fa709bf4f7c8a7afc4b5b49763682fea17cb9d95a",
      "networkId": 0,
      "chainId": 0
    }
  ]
}