{
  "hash": "0xb3ff9700e7d49da7859f2cf594c7c26f14811206471898b6c151e9e4ad1f4657",
  "parentHash": "0x697f26c5460b9ae7ab9282248833d6df74573e3f48a669505b6a4367eabfe7ed",
  "number": 121366,
  "timestamp": 1440176079,
  "nonce": "0xa343393ef1f4db4f",
  "difficulty": 4384852880866,
  "gasLimit": {
    "_hex": "0x2fefd8"
  },
  "gasUsed": {
    "_hex": "0x5208"
  },
  "miner": "0xe6A7a1d47ff21B6321162AEA7C6CB457D5476Bca",
  "extraData": "0xd783010002844765746887676f312e342e32856c696e7578",
  "transactions": [
    {
      "hash": "0x33d86f8ef04e570babd05259e200e0bb4dd8f6d340e0e0eda0f209afe2451278",
      "blockHash": "0xb3ff9700e7d49da7859f2cf594c7c26f14811206471898b6c151e9e4ad1f4657",
      "blockNumber": 121366,
      "transactionIndex": 0,
      "confirmations": null,
      "from": "0xB1A4B41b8e75a153841c99c62d18588d45e7b406",
      "gasPrice": {
        "_hex": "0xba43b7400"
      },
      "gasLimit": {
        "_hex": "0x15f90"
      },
      "to": "0x9d0D51Aa42b97151aaCa5876a743172C8c04f09E",
      "value": {
        "_hex": "0x2b5e3af16b1880000"
      },
      "nonce": 12,
      "data": "0x",
      "r": "0xae996ab1a9e47b95e68193cf4c6e579907df2f1df17ad6e3fa5d4f63dcb891cf",
      "s": "0x4817cac7c2077abba157c8a2f242b54d2d23c95d9692189dd65e1d70e9682f9a",
      "v": 28,
      "creates": null,
      "raw": "0xf86e0c850ba43b740083015f90949d0d51aa42b97151aaca5876a743172c8c04f09e8902b5e3af16b1880000801ca0ae996ab1a9e47b95e68193cf4c6e579907df2f1df17ad6e3fa5d4f63dcb891cfa04817cac7c2077abba157c8a2f242b54d2d23c95d9692189dd65e1d70e9682f9a",
      "networkId": 0,
      "chainId": 0
    }
  ]
}