{
  "hash": "0x02ab7d84ded6312ae33d7f8ad5f33efa6f0e075c47023682a753e77481808555",
  "parentHash": "0x34ba8534b52ab4a49ff0c0ce0590e949072b2aecbf4bf37b6b3b89d9d2b4ace0",
  "number": 110342,
  "timestamp": 1439972078,
  "nonce": "0xe68b4bbd352175e9",
  "difficulty": 4369232765651,
  "gasLimit": {
    "_hex": "0x2fefd8"
  },
  "gasUsed": {
    "_hex": "0x57288"
  },
  "miner": "0xe6A7a1d47ff21B6321162AEA7C6CB457D5476Bca",
  "extraData": "0x476574682f76312e302e312d38326566323666362f6c696e75782f676f312e34",
  "transactions": [
    {
      "hash": "0x16bdf9b0eace10ca55fabf7b8181fb0ddab109e22be463c66f2e4bebbad32f2d",
      "blockHash": "0x02ab7d84ded6312ae33d7f8ad5f33efa6f0e075c47023682a753e77481808555",
      "blockNumber": 110342,
      "transactionIndex": 0,
      "confirmations": null,
      "from": "0xe6A7a1d47ff21B6321162AEA7C6CB457D5476Bca",
      "gasPrice": {
        "_hex": "0xe0930d6e7"
      },
      "gasLimit": {
        "_hex": "0x55f0"
      },
      "to": "0xabF56d5ca441eCAD5979023Ec368b74a8d662d95",
      "value": {
        "_hex": "0x631c2b68fb0c2ba0"
      },
      "nonce": 4349,
      "data": "0x",
      "r": "0x70fcf95ec8e72cc4f3643972b37d6fca89b24d96b1fe99da0cd41f1e747548d3",
      "s": "0x6bdfd4846d314b36bc4a5c55fa64edabe8122440db3c4f69a76b2c6761ab5053",
      "v": 28,
      "creates": null,
      "raw": "0xf86e8210fd850e0930d6e78255f094abf56d5ca441ecad5979023ec368b74a8d662d9588631c2b68fb0c2ba0801ca070fcf95ec8e72cc4f3643972b37d6fca89b24d96b1fe99da0cd41f1e747548d3a06bdfd4846d314b36bc4a5c55fa64edabe8122440db3c4f69a76b2c6761ab5053",
      "networkId": 0,
      "chainId": 0
    },
    {
      "hash": "0x7a240c3a9ec48a4713f9f34e543586896f98c700ae4d47cae63a107960aa3c53",
      "blockHash": "0x02ab7d84ded6312ae33d7f8ad5f33efa6f0e075c47023682a753e77481808555",
      "blockNumber": 110342,
      "transactionIndex": 1,
      "confirmations": null,
      "from": "0xe6A7a1d47ff21B6321162AEA7C6CB457D5476Bca",
      "gasPrice": {
        "_hex": "0xe0930d6e7"
      },
      "gasLimit": {
        "_hex": "0x55f0"
      },
      "to": "0x902cA27B08D58442b67bb4Fa988de351468AB59f",
      "value": {
        "_hex": "0x6379612eb9f034a0"
      },
      "nonce": 4350,
      "data": "0x",
      "r": "0x5e4bd1dd3da1e1d3764858c527e8098c082550a873db5cc8555ddd09d8716953",
      "s": "0x195613ecef088d75de50bc2de81d50858d3f1189fdac76cc0630c42bc66dd080",
      "v": 27,
      "creates": null,
      "raw": "0xf86e8210fe850e0930d6e78255f094902ca27b08d58442b67bb4fa988de351468ab59f886379612eb9f034a0801ba05e4bd1dd3da1e1d3764858c527e8098c082550a873db5cc8555ddd09d8716953a0195613ecef088d75de50bc2de81d50858d3f1189fdac76cc0630c42bc66dd080",
      "networkId": 0,
      "chainId": 0
    },
    {
      "hash": "0xece9ef73b23dee62444266af22579da079d6c3cf1c51b253f4f6a984e8af9f51",
      "blockHash": "0x02ab7d84ded6312ae33d7f8ad5f33efa6f0e075c47023682a753e77481808555",
      "blockNumber": 110342,
      "transactionIndex": 2,
      "confirmations": null,
      "from": "0xe6A7a1d47ff21B6321162AEA7C6CB457D5476Bca",
      "gasPrice": {
        "_hex": "0xe0930d6e7"
      },
      "gasLimit": {
        "_hex": "0x55f0"
      },
      "to": "0x46532c79E7F23Aa3520221582D7AC182fb98C56B",
      "value": {
        "_hex": "0x6401b5694c55c438"
      },
      "nonce": 4351,
      "data": "0x",
      "r": "0x9468505b543336c3bbc5184fb7aaaa00d0b0a135e159dfd218e0bb50c446590c",
      "s": "0x45815036a39db615b5b3f3faed5526452b8055c68ef0d2d31ece7f7b31026ad7",
      "v": 28,
      "creates": null,
      "raw": "0xf86e8210ff850e0930d6e78255f09446532c79e7f23aa3520221582d7ac182fb98c56b886401b5694c55c438801ca09468505b543336c3bbc5184fb7aaaa00d0b0a135e159dfd218e0bb50c446590ca045815036a39db615b5b3f3faed5526452b8055c68ef0d2d31ece7f7b31026ad7",
      "networkId": 0,
      "chainId": 0
    },
    {
      "hash": "0x9b04c2bf6a93cdbe502d8d389b456b49d2d85990b437f1a8686d9d2e4dcd89dd",
      "blockHash": "0x02ab7d84ded6312ae33d7f8ad5f33efa6f0e075c47023682a753e77481808555",
      "blockNumber": 110342,
      "transactionIndex": 3,
      "confirmations": null,
      "from": "0xe6A7a1d47ff21B6321162AEA7C6CB457D5476Bca",
      "gasPrice": {
        "_hex": "0xe0930d6e7"
      },
      "gasLimit": {
        "_hex": "0x55f0"
      },
      "to": "0x996369610F6aF04368872864ea319A09787B608D",
      "value": {
        "_hex": "0x642ae8d1261999b0"
      },
      "nonce": 4352,
      "data": "0x",
      "r": "0xa9a7f9ea30936e8e6d988e36a1cd7e78c7a3d50e0d005ced5023dffc8d63289a",
      "s": "0x54e705ca3aa981f007ea07ad2145745e911c8999087123e2daa004c8a25e82b7",
      "v": 28,
      "creates": null,
      "raw": "0xf86e821100850e0930d6e78255f094996369610f6af04368872864ea319a09787b608d88642ae8d1261999b0801ca0a9a7f9ea30936e8e6d988e36a1cd7e78c7a3d50e0d005ced5023dffc8d63289aa054e705ca3aa981f007ea07ad2145745e911c8999087123e2daa004c8a25e82b7",
      "networkId": 0,
      "chainId": 0
    },
    {
      "hash": "0xa16f1ab3d93611958d1619ccfa0bf972c7e3fb3063d2ab843e0fb097fb081645",
      "blockHash": "0x02ab7d84ded6312ae33d7f8ad5f33efa6f0e075c47023682a753e77481808555",
      "blockNumber": 110342,
      "transactionIndex": 4,
      "confirmations": null,
      "from": "0xe6A7a1d47ff21B6321162AEA7C6CB457D5476Bca",
      "gasPrice": {
        "_hex": "0xe0930d6e7"
      },
      "gasLimit": {
        "_hex": "0x55f0"
      },
      "to": "0x77e41B4125b7c14757e0f07fE36b2E95db757a10",
      "value": {
        "_hex": "0x6628857df3037908"
      },
      "nonce": 4353,
      "data": "0x",
      "r": "0x8806a8858447104ae42fcfdd1e9b394d9194d91a2304bfb364aa37515388a88d",
      "s": "0x4930bf8cdf04ebcbc4c9d571468aed25353c362b55bee1420525922ba00c942e",
      "v": 27,
      "creates": null,
      "raw": "0xf86e821101850e0930d6e78255f09477e41b4125b7c14757e0f07fe36b2e95db757a10886628857df3037908801ba08806a8858447104ae42fcfdd1e9b394d9194d91a2304bfb364aa37515388a88da04930bf8cdf04ebcbc4c9d571468aed25353c362b55bee1420525922ba00c942e",
      "networkId": 0,
      "chainId": 0
    },
    {
      "hash": "0xdbd21308c79cc4d7f1a2667bc8e7ff85f26e8dc212c950a0211cdc13fcd1fdc6",
      "blockHash": "0x02ab7d84ded6312ae33d7f8ad5f33efa6f0e075c47023682a753e77481808555",
      "blockNumber": 110342,
      "transactionIndex": 5,
      "confirmations": null,
      "from": "0xe6A7a1d47ff21B6321162AEA7C6CB457D5476Bca",
      "gasPrice": {
        "_hex": "0xe0930d6e7"
      },
      "gasLimit": {
        "_hex": "0x55f0"
      },
      "to": "0x24D0A28C70BAC94698980F2c297Ee1Cf505F06cB",
      "value": {
        "_hex": "0x666cee0eb24e11f0"
      },
      "nonce": 4354,
      "data": "0x",
      "r": "0xa1ae1d1339017344dc013af5023bc1d0d958fc481c5608f5806cc36471a74c10",
      "s": "0x5ee2330149cca3cac47456e57b3c1f32731dc4061fc957c4a19b0228af4ab8c3",
      "v": 28,
      "creates": null,
      "raw": "0xf86e821102850e0930d6e78255f09424d0a28c70bac94698980f2c297ee1cf505f06cb88666cee0eb24e11f0801ca0a1ae1d1339017344dc013af5023bc1d0d958fc481c5608f5806cc36471a74c10a05ee2330149cca3cac47456e57b3c1f32731dc4061fc957c4a19b0228af4ab8c3",
      "networkId": 0,
      "chainId": 0
    },
    {
      "hash": "0x439fe4044c95ee204a8a307a3f8c15ea74a443d2a8a804ea35f1595f54047cde",
      "blockHash": "0x02ab7d84ded6312ae33d7f8ad5f33efa6f0e075c47023682a753e77481808555",
      "blockNumber": 110342,
      "transactionIndex": 6,
      "confirmations": null,
      "from": "0xe6A7a1d47ff21B6321162AEA7C6CB457D5476Bca",
      "gasPrice": {
        "_hex": "0xe0930d6e7"
      },
      "gasLimit": {
        "_hex": "0x55f0"
      },
      "to": "0x2374d8ad849F04E476f8D13457503f7cca23892E",
      "value": {
        "_hex": "0x66e429bc1b674430"
      },
      "nonce": 4355,
      "data": "0x",
      "r": "0x60d696cf2395d6f45a3058a9ce5af9eea0874a2640b9c4b1e98a53e49b1ca550",
      "s": "0x4d3516d4a7e0f32a102e300cc08c114031a90e6b023204a56fabe730d40a7e8f",
      "v": 27,
      "creates": null,
      "raw": "0xf86e821103850e0930d6e78255f0942374d8ad849f04e476f8d13457503f7cca23892e8866e429bc1b674430801ba060d696cf2395d6f45a3058a9ce5af9eea0874a2640b9c4b1e98a53e49b1ca550a04d3516d4a7e0f32a102e300cc08c114031a90e6b023204a56fabe730d40a7e8f",
      "networkId": 0,
      "chainId": 0
    },
    {
      "hash": "0x7eb5f5612c1cd7668f134df0125799ed214410ec7cdd11378ee69b48d89f4af1",
      "blockHash": "0x02ab7d84ded6312ae33d7f8ad5f33efa6f0e075c47023682a753e77481808555",
      "blockNumber": 110342,
      "transactionIndex": 7,
      "confirmations": null,
      "from": "0xe6A7a1d47ff21B6321162AEA7C6CB457D5476Bca",
      "gasPrice": {
        "_hex": "0xe0930d6e7"
      },
      "gasLimit": {
        "_hex": "0x55f0"
      },
      "to": "0x0A45ad2348efF97fe7C25C87d65464aB3dEbF94F",
      "value": {
        "_hex": "0x671d1fbe2e4301a8"
      },
      "nonce": 4356,
      "data": "0x",
      "r": "0xcd50702161c06d1ffd0b30b8d7561b35c0603d413a14360603cebc63fdcae8c2",
      "s": "0x7bcc62704c57c8877adde1c95d62c5145bd11e5442860d6e508e9ab602337cb6",
      "v": 28,
      "creates": null,
      "raw": "0xf86e821104850e0930d6e78255f0940a45ad2348eff97fe7c25c87d65464ab3debf94f88671d1fbe2e4301a8801ca0cd50702161c06d1ffd0b30b8d7561b35c0603d413a14360603cebc63fdcae8c2a07bcc62704c57c8877adde1c95d62c5145bd11e5442860d6e508e9ab602337cb6",
      "networkId": 0,
      "chainId": 0
    },
    {
      "hash": "0x78fa69ebbb5aaab6022b7ea34978c8170d767eb12c8f76588080bc4123eaa67d",
      "blockHash": "0x02ab7d84ded6312ae33d7f8ad5f33efa6f0e075c47023682a753e77481808555",
      "blockNumber": 110342,
      "transactionIndex": 8,
      "confirmations": null,
      "from": "0xe6A7a1d47ff21B6321162AEA7C6CB457D5476Bca",
      "gasPrice": {
        "_hex": "0xe0930d6e7"
      },
      "gasLimit": {
        "_hex": "0x55f0"
      },
      "to": "0x2B15C5211bdA6A867c582080536f6c61766aA5Af",
      "value": {
        "_hex": "0x67ffdb3d08e6eb90"
      },
      "nonce": 4357,
      "data": "0x",
      "r": "0x30a958009b6d1a161f3187fc4cb3a5a51494f825d66ebb59ba6154bcf3587ee4",
      "s": "0x2f68e570c0c912f63653050641d3c0bf65d59636fa9c6a7df4702d7d3d78ccba",
      "v": 28,
      "creates": null,
      "raw": "0xf86e821105850e0930d6e78255f0942b15c5211bda6a867c582080536f6c61766aa5af8867ffdb3d08e6eb90801ca030a958009b6d1a161f3187fc4cb3a5a51494f825d66ebb59ba6154bcf3587ee4a02f68e570c0c912f63653050641d3c0bf65d59636fa9c6a7df4702d7d3d78ccba",
      "networkId": 0,
      "chainId": 0
    },
    {
      "hash": "0x14db39ec44d0ab64fb4eec8d032557133aa27eb46d5ca19f6fc5c5be42e25b3c",
      "blockHash": "0x02ab7d84ded6312ae33d7f8ad5f33efa6f0e075c47023682a753e77481808555",
      "blockNumber": 110342,
      "transactionIndex": 9,
      "confirmations": null,
      "from": "0xe6A7a1d47ff21B6321162AEA7C6CB457D5476Bca",
      "gasPrice": {
        "_hex": "0xe0930d6e7"
      },
      "gasLimit": {
        "_hex": "0x55f0"
      },
      "to": "0x8263B7757b139904C7cD8511B3D0a6D1479848Ba",
      "value": {
        "_hex": "0x69008db890a69f38"
      },
      "nonce": 4358,
      "data": "0x",
      "r": "0xe625dc4247309f662829ea4d1b60fe1b204ae6a20d7f64ccb81c22e592b2c9a0",
      "s": "0x0fff40a22bd44854852c40def4a0fd9f664f348b37bb6a1b6091dbda8238031d",
      "v": 27,
      "creates": null,
      "raw": "0xf86e821106850e0930d6e78255f0948263b7757b139904c7cd8511b3d0a6d1479848ba8869008db890a69f38801ba0e625dc4247309f662829ea4d1b60fe1b204ae6a20d7f64ccb81c22e592b2c9a0a00fff40a22bd44854852c40def4a0fd9f664f348b37bb6a1b6091dbda8238031d",
      "networkId": 0,
      "chainId": 0
    },
    {
      "hash": "0x89e08fa5192fefa3424c1aaae57b2c932c3f0199bf2c69c7fff83488c5693d93",
      "blockHash": "0x02ab7d84ded6312ae33d7f8ad5f33efa6f0e075c47023682a753e77481808555",
      "blockNumber": 110342,
      "transactionIndex": 10,
      "confirmations": null,
      "from": "0xe6A7a1d47ff21B6321162AEA7C6CB457D5476Bca",
      "gasPrice": {
        "_hex": "0xe0930d6e7"
      },
      "gasLimit": {
        "_hex": "0x55f0"
      },
      "to": "0x519DC97eF09491aE962A8F13fe144c71feca4662",
      "value": {
        "_hex": "0x6a71b6a605d5d700"
      },
      "nonce": 4359,
      "data": "0x",
      "r": "0x8d9356ec082e3ecddfacb10b93a3b4df60786488fceca5acb3461322a51ed435",
      "s": "0x2ad09ef00392cfa637aa7c33518ff270e3223180e2a54783e6df1b7e892866f5",
      "v": 27,
      "creates": null,
      "raw": "0xf86e821107850e0930d6e78255f094519dc97ef09491ae962a8f13fe144c71feca4662886a71b6a605d5d700801ba08d9356ec082e3ecddfacb10b93a3b4df60786488fceca5acb3461322a51ed435a02ad09ef00392cfa637aa7c33518ff270e3223180e2a54783e6df1b7e892866f5",
      "networkId": 0,
      "chainId": 0
    },
    {
      "hash": "0x4345c56791c84902b4d4e4b0096b0734ba90d385b88a515ff8dcbd6fd6621d14",
      "blockHash": "0x02ab7d84ded6312ae33d7f8ad5f33efa6f0e075c47023682a753e77481808555",
      "blockNumber": 110342,
      "transactionIndex": 11,
      "confirmations": null,
      "from": "0xe6A7a1d47ff21B6321162AEA7C6CB457D5476Bca",
      "gasPrice": {
        "_hex": "0xe0930d6e7"
      },
      "gasLimit": {
        "_hex": "0x55f0"
      },
      "to": "0x03809628C90e1092EA99EcFDACA6251435dbc94B",
      "value": {
        "_hex": "0x6bfe2519e8e49f58"
      },
      "nonce": 4360,
      "data": "0x",
      "r": "0x45ac65b4c79d875569e548ed44a8d87ea3bb0526d07012f730efd751d5c0e497",
      "s": "0x0a725a21ca131b3f404c080a13c4f09e497fae017382663639b5b29ebd8d2b88",
      "v": 28,
      "creates": null,
      "raw": "0xf86e821108850e0930d6e78255f09403809628c90e1092ea99ecfdaca6251435dbc94b886bfe2519e8e49f58801ca045ac65b4c79d875569e548ed44a8d87ea3bb0526d07012f730efd751d5c0e497a00a725a21ca131b3f404c080a13c4f09e497fae017382663639b5b29ebd8d2b88",
      "networkId": 0,
      "chainId": 0
    },
    {
      "hash": "0xe55e0e2893acb1fc41c69564dbab97769de70267a63a085a1d15255151094b21",
      "blockHash": "0x02ab7d84ded6312ae33d7f8ad5f33efa6f0e075c47023682a753e77481808555",
      "blockNumber": 110342,
      "transactionIndex": 12,
      "confirmations": null,
      "from": "0xe6A7a1d47ff21B6321162AEA7C6CB457D5476Bca",
      "gasPrice": {
        "_hex": "0xe0930d6e7"
      },
      "gasLimit": {
        "_hex": "0x55f0"
      },
      "to": "0x8f30e76a8Ddf9FaEf40fd58197421716764B72D8",
      "value": {
        "_hex": "0x6bfee722379579b8"
      },
      "nonce": 4361,
      "data": "0x",
      "r": "0xde450f04a11268f1c43ee93fe3e83969dc326d4d65c523e1236bbc66fb61853b",
      "s": "0x3b3c98429a80ee2da299a19c88a83c02875a36b120ea60a0f24f150ef3e05f7b",
      "v": 27,
      "creates": null,
      "raw": "0xf86e821109850e0930d6e78255f0948f30e76a8ddf9faef40fd58197421716764b72d8886bfee722379579b8801ba0de450f04a11268f1c43ee93fe3e83969dc326d4d65c523e1236bbc66fb61853ba03b3c98429a80ee2da299a19c88a83c02875a36b120ea60a0f24f150ef3e05f7b",
      "networkId": 0,
      "chainId": 0
    },
    {
      "hash": "0x6513a25f8ebec3cb49a79a8d2c6189ffd251a9a3af5a092d3f055885f016b905",
      "blockHash": "0x02ab7d84ded6312ae33d7f8ad5f33efa6f0e075c47023682a753e77481808555",
      "blockNumber": 110342,
      "transactionIndex": 13,
      "confirmations": null,
      "from": "0xe6A7a1d47ff21B6321162AEA7C6CB457D5476Bca",
      "gasPrice": {
        "_hex": "0xe0930d6e7"
      },
      "gasLimit": {
        "_hex": "0x55f0"
      },
      "to": "0xce8ff6d2027CA9837abb85FD515752151b6C7d0A",
      "value": {
        "_hex": "0x6c32d2e4f708b7b0"
      },
      "nonce": 4362,
      "data": "0x",
      "r": "0xd39df7a7b0f6efe46ec5cf6d72e9cfc178f917257e94b36915b42ec9b3442daf",
      "s": "0x1494d68c514fec601a053f777f333918d2c1650cd967d5bacd19e2d80868c704",
      "v": 27,
      "creates": null,
      "raw": "0xf86e82110a850e0930d6e78255f094ce8ff6d2027ca9837abb85fd515752151b6c7d0a886c32d2e4f708b7b0801ba0d39df7a7b0f6efe46ec5cf6d72e9cfc178f917257e94b36915b42ec9b3442dafa01494d68c514fec601a053f777f333918d2c1650cd967d5bacd19e2d80868c704",
      "networkId": 0,
      "chainId": 0
    },
    {
      "hash": "0xd8e3c95829bca7dc9957c4bfad5a26cf1076cda2f25c3a235b56c9f326ff02db",
      "blockHash": "0x02ab7d84ded6312ae33d7f8ad5f33efa6f0e075c47023682a753e77481808555",
      "blockNumber": 110342,
      "transactionIndex": 14,
      "confirmations": null,
      "from": "0xe6A7a1d47ff21B6321162AEA7C6CB457D5476Bca",
      "gasPrice": {
        "_hex": "0xe0930d6e7"
      },
      "gasLimit": {
        "_hex": "0x55f0"
      },
      "to": "0xaC49eeb6a55aF554D86d37b4A4eA7940010866E1",
      "value": {
        "_hex": "0x6cc7471e0c2fc998"
      },
      "nonce": 4363,
      "data": "0x",
      "r": "0x4e678835b0a791528a55a4e6bd4e0b42db53a31040a2965832edb500e8168cd8",
      "s": "0x3114ae34524f6f43b0acd8666b5f0dd51dded082f0c69972ccb870cf98623aa3",
      "v": 28,
      "creates": null,
      "raw": "0xf86e82110b850e0930d6e78255f094ac49eeb6a55af554d86d37b4a4ea7940010866e1886cc7471e0c2fc998801ca04e678835b0a791528a55a4e6bd4e0b42db53a31040a2965832edb500e8168cd8a03114ae34524f6f43b0acd8666b5f0dd51dded082f0c69972ccb870cf98623aa3",
      "networkId": 0,
      "chainId": 0
    },
    {
      "hash": "0xeb1e66e9d9f9362b0a275ced3348c976c8bc4baaea6ada88ea3c07f03202bde2",
      "blockHash": "0x02ab7d84ded6312ae33d7f8ad5f33efa6f0e075c47023682a753e77481808555",
      "blockNumber": 110342,
      "transactionIndex": 15,
      "confirmations": null,
      "from": "0x0156B1dF46A295901BdCA64D7809fd623AE50129",
      "gasPrice": {
        "_hex": "0xdb483a9f6"
      },
      "gasLimit": {
        "_hex": "0x5208"
      },
      "to": "0x32Be343B94f860124dC4fEe278FDCBD38C102D88",
      "value": {
        "_hex": "0x16bea4f5cba57400"
      },
      "nonce": 4,
      "data": "0x",
      "r": "0xaf28a2e27bacabbdb39406912ac4c51769d148477d439e92b6b8220d13a8fd43",
      "s": "0x6561cc048277cd8631324799306f61a14890f738397dc5f44093b0b9823324ff",
      "v": 28,
      "creates": null,
      "raw": "0xf86c04850db483a9f68252089432be343b94f860124dc4fee278fdcbd38c102d888816bea4f5cba57400801ca0af28a2e27bacabbdb39406912ac4c51769d148477d439e92b6b8220d13a8fd43a06561cc048277cd8631324799306f61a14890f738397dc5f44093b0b9823324ff",
      "networkId": 0,
      "chainId": 0
    },
    {
      "hash": "0x4273c4c783f3ce01304850e4f25d929c9c442ea524d3f815cf94a04557742e24",
      "blockHash": "0x02ab7d84ded6312ae33d7f8ad5f33efa6f0e075c47023682a753e77481808555",
      "blockNumber": 110342,
      "transactionIndex": 16,
      "confirmations": null,
      "from": "0xdCe26B66eabfB4dE900E4944DcC2FA2d455021fc",
      "gasPrice": {
        "_hex": "0xdb483a9f6"
      },
      "gasLimit": {
        "_hex": "0x5208"
      },
      "to": "0x32Be343B94f860124dC4fEe278FDCBD38C102D88",
      "value": {
        "_hex": "0x15903267236a2400"
      },
      "nonce": 5,
      "data": "0x",
      "r": "0x4129862c588e8ed2d0dd147f9eafd9d5ca856245a741fbbef05135aceb577326",
      "s": "0x108386a59e639f62edea8becefe2ccf4a7561169b476e1cc23e14d822d8e9726",
      "v": 28,
      "creates": null,
      "raw": "0xf86c05850db483a9f68252089432be343b94f860124dc4fee278fdcbd38c102d888815903267236a2400801ca04129862c588e8ed2d0dd147f9eafd9d5ca856245a741fbbef05135aceb577326a0108386a59e639f62edea8becefe2ccf4a7561169b476e1cc23e14d822d8e9726",
      "networkId": 0,
      "chainId": 0
    }
  ]
}