{
  "hash": "0x64b1ffef464fcd4b967bce861f648d7807af4c396f0d6d4415cfb0a04875ea2e",
  "parentHash": "0xcbf77f15495efc61ecd1222fbef8faf424d77cda017d9f83fe4c668f93c834c3",
  "number": 91330,
  "timestamp": 1439654005,
  "nonce": "0xef6aafbddda450aa",
  "difficulty": 3467574563426,
  "gasLimit": {
    "_hex": "0x2fefd8"
  },
  "gasUsed": {
    "_hex": "0x5208"
  },
  "miner": "0xe6A7a1d47ff21B6321162AEA7C6CB457D5476Bca",
  "extraData": "0x476574682f76312e302e312d38326566323666362f6c696e75782f676f312e34",
  "transactions": [
    {
      "hash": "0x07d8ef9727795cf67128cf941e06de37b49b2f9fad568450d79dd718fafa75da",
      "blockHash": "0x64b1ffef464fcd4b967bce861f648d7807af4c396f0d6d4415cfb0a04875ea2e",
      "blockNumber": 91330,
      "transactionIndex": 0,
      "confirmations": null,
      "from": "0x756Fd95F0bC102071dddf04c04d58F8DEf4F2AF2",
      "gasPrice": {
        "_hex": "0xe0b65edd4"
      },
      "gasLimit": {
        "_hex": "0x5208"
      },
      "to": "0x32Be343B94f860124dC4fEe278FDCBD38C102D88",
      "value": {
        "_hex": "0x8ac2a2eca62ef800"
      },
      "nonce": 2,
      "data": "0x",
      "r": "0x2cc18d774e565aca6e524a9e88a8fd413bce00475a891e8835c1579856932123",
      "s": "0x25164b50bf937ca96596f8ed5f7b8c69ace1cda32e514a962ede389d6e4fe036",
      "v": 27,
      "creates": null,
      "raw": "0xf86c02850e0b65edd48252089432be343b94f860124dc4fee278fdcbd38c102d88888ac2a2eca62ef800801ba02cc18d774e565aca6e524a9e88a8fd413bce00475a891e8835c1579856932123a025164b50bf937ca96596f8ed5f7b8c69ace1cda32e514a962ede389d6e4fe036",
      "networkId": 0,
      "chainId": 0
    }
  ]
}