{
  "hash": "0x0e7844128c7b1dead2e3a5141ecd31c38095df27bc0f3217aa29146be3e9a21b",
  "parentHash": "0xdf1a8110a37eb1db6c72b138c350f1719fec0542a6043c8bb449eb33b27f669c",
  "number": 68246,
  "timestamp": 1439284837,
  "nonce": "0x8ea793199b78b23c",
  "difficulty": 1985082122347,
  "gasLimit": {
    "_hex": "0x2fefd8"
  },
  "gasUsed": {
    "_hex": "0x5208"
  },
  "miner": "0x785ffdDd5cE55c6DF963f345e68d3F2024E5Acb1",
  "extraData": "0x476574682f4d69676e6f7474652f76312e302e312f6c696e75782f676f312e34",
  "transactions": [
    {
      "hash": "0xa99572c2d040ca6a444ae0cdfc0cdccae0720677d990b3b59b7667314b4b2adf",
      "blockHash": "0x0e7844128c7b1dead2e3a5141ecd31c38095df27bc0f3217aa29146be3e9a21b",
      "blockNumber": 68246,
      "transactionIndex": 0,
      "confirmations": null,
      "from": "0x117D2945355d346cE6637d6D5CC9A9E46CB43B73",
      "gasPrice": {
        "_hex": "0xd77564d93"
      },
      "gasLimit": {
        "_hex": "0x5208"
      },
      "to": "0x32Be343B94f860124dC4fEe278FDCBD38C102D88",
      "value": {
        "_hex": "0xd8d6e1acc5a408000"
      },
      "nonce": 6,
      "data": "0x",
      "r": "0x3c06393e5464a4cc4fd65ec7210449916843d52ee2448e1647f301b1b7e6e47c",
      "s": "0x0c3e3e46972fb51ee42007fc8f7753a77413e85ad9eac4a5a180375cb88f01cc",
      "v": 27,
      "creates": null,
      "raw": "0xf86d06850d77564d938252089432be343b94f860124dc4fee278fdcbd38c102d88890d8d6e1acc5a408000801ba03c06393e5464a4cc4fd65ec7210449916843d52ee2448e1647f301b1b7e6e47ca00c3e3e46972fb51ee42007fc8f7753a77413e85ad9eac4a5a180375cb88f01cc",
      "networkId": 0,
      "chainId": 0
    }
  ]
}