{
  "hash": "0x4387496fe8d67ee146333848e410e5c866a68b5c4782a407160a0a357ab7fb92",
  "parentHash": "0xdc4df0922617294dde0a9b44ecf3699bf5fbe284bb897b881e7c0f9a160b8096",
  "number": 70858,
  "timestamp": 1439326519,
  "nonce": "0x99615161fbebe705",
  "difficulty": 2149912280145,
  "gasLimit": {
    "_hex": "0x2fefd8"
  },
  "gasUsed": {
    "_hex": "0xa410"
  },
  "miner": "0x02020D22dCF88f5eDd66B382D7da019F161fB7e3",
  "extraData": "0x",
  "transactions": [
    {
      "hash": "0x73bf46845735258a1eceae7d530998c7fce1fb8e01b78454df465c4f35a24697",
      "blockHash": "0x4387496fe8d67ee146333848e410e5c866a68b5c4782a407160a0a357ab7fb92",
      "blockNumber": 70858,
      "transactionIndex": 0,
      "confirmations": null,
      "from": "0x55bAf64fc9eAccFFd7Cc643BB61142E1C6ac093e",
      "gasPrice": {
        "_hex": "0xdb6de0e36"
      },
      "gasLimit": {
        "_hex": "0x15f90"
      },
      "to": "0xfE439e496730A23d448f85fA219972ea04793aB7",
      "value": {
        "_hex": "0x1166c51744e4640000"
      },
      "nonce": 2,
      "data": "0x",
      "r": "0xec7ec15991decfbbb60505c2e934b3b583abdef9b32a93ad28abfa2b717ec119",
      "s": "0x2d86bb80d9d5d497f0373d659acb862c0882ee139b7045189140780cda59c441",
      "v": 27,
      "creates": null,
      "raw": "0xf86e02850db6de0e3683015f9094fe439e496730a23d448f85fa219972ea04793ab7891166c51744e4640000801ba0ec7ec15991decfbbb60505c2e934b3b583abdef9b32a93ad28abfa2b717ec119a02d86bb80d9d5d497f0373d659acb862c0882ee139b7045189140780cda59c441",
      "networkId": 0,
      "chainId": 0
    },
    {
      "hash": "0x1d038f2f5d9c0014087e47f3481bec31cdc3638b67fffd1c8519d6ae0975f0be",
      "blockHash": "0x4387496fe8d67ee146333848e410e5c866a68b5c4782a407160a0a357ab7fb92",
      "blockNumber": 70858,
      "transactionIndex": 1,
      "confirmations": null,
      "from": "0x120A270bbC009644e35F0bB6ab13f95b8199c4ad",
      "gasPrice": {
        "_hex": "0xcc29df13c"
      },
      "gasLimit": {
        "_hex": "0x15f90"
      },
      "to": "0x8d304933a1F93F268bFDcFF9FFE6846a75167279",
      "value": {
        "_hex": "0x35d781126497400"
      },
      "nonce": 212,
      "data": "0x",
      "r": "0xbe80a5202474d12f6761949b275d8a97f58aec8bf72aa74d414857f50ae8e861",
      "s": "0x222bc31f785beda4eab8acb1a1c6cc47a33cd16f4d081f70297f56a71e3627af",
      "v": 27,
      "creates": null,
      "raw": "0xf86e81d4850cc29df13c83015f90948d304933a1f93f268bfdcff9ffe6846a7516727988035d781126497400801ba0be80a5202474d12f6761949b275d8a97f58aec8bf72aa74d414857f50ae8e861a0222bc31f785beda4eab8acb1a1c6cc47a33cd16f4d081f70297f56a71e3627af",
      "networkId": 0,
      "chainId": 0
    }
  ]
}