{
  "hash": "0xb0d63e4136432d91351317a4e8b9cdd7388eb42cf8c2a60398be28de4fb3d1a0",
  "parentHash": "0xd1e107f2a5345bb495daec457f569025b374e9e3ca498b00f40ea6d31709ba46",
  "number": 68395,
  "timestamp": 1439287052,
  "nonce": "0x711260ef26cd7aeb",
  "difficulty": 2021235443668,
  "gasLimit": {
    "_hex": "0x2fefd8"
  },
  "gasUsed": {
    "_hex": "0x122bfb"
  },
  "miner": "0x9746c7e1ef2bd21FF3997fa467593a89cb852BD0",
  "extraData": "0x476574682f76312e302e312f77696e646f77732f676f312e342e32",
  "transactions": [
    {
      "hash": "0x82a5d3a2783889fb731c82011883657aa3d22c67a47b563ed3751402082d4c79",
      "blockHash": "0xb0d63e4136432d91351317a4e8b9cdd7388eb42cf8c2a60398be28de4fb3d1a0",
      "blockNumber": 68395,
      "transactionIndex": 0,
      "confirmations": null,
      "from": "0x8674c218F0351a62C3BA78C34FD2182A93Da94E2",
      "gasPrice": {
        "_hex": "0xd3a104b07"
      },
      "gasLimit": {
        "_hex": "0x15f90"
      },
      "to": "0x33824F7A78A8357A26758a8bBB71f5AACC164f46",
      "value": {
        "_hex": "0x0"
      },
      "nonce": 72,
      "data": "0xd50495f4000000000000000000000000000000000000000000000000000000000000002000000000000000000000000000000000000000000000000000000000000000021234000000000000000000000000000000000000000000000000000000000000",
      "r": "0x638a64e5c33f6540a199109a79a6d9f657483979fdef1c23528130a97908ee7e",
      "s": "0x4d56d103e95c8482000169ef82576de20c43fd1feb3e0a7d4ed921488874c608",
      "v": 28,
      "creates": null,
      "raw": "0xf8ca48850d3a104b0783015f909433824f7a78a8357a26758a8bbb71f5aacc164f4680b864d50495f40000000000000000000000000000000000000000000000000000000000000020000000000000000000000000000000000000000000000000000000000000000212340000000000000000000000000000000000000000000000000000000000001ca0638a64e5c33f6540a199109a79a6d9f657483979fdef1c23528130a97908ee7ea04d56d103e95c8482000169ef82576de20c43fd1feb3e0a7d4ed921488874c608",
      "networkId": 0,
      "chainId": 0
    },
    {
      "hash": "0xa8e73a8ed146b374f279de14d8f3da6bc34cbbc5bff3c6e7a4b92ac2feef3276",
      "blockHash": "0xb0d63e4136432d91351317a4e8b9cdd7388eb42cf8c2a60398be28de4fb3d1a0",
      "blockNumber": 68395,
      "transactionIndex": 1,
      "confirmations": null,
      "from": "0x9C6E735C583f7A761e93E557914D63b973D2FC85",
      "gasPrice": {
        "_hex": "0xba43b7400"
      },
      "gasLimit": {
        "_hex": "0x15f90"
      },
      "to": "0x793AE8C1b1a160BFc07BFB0d04F85eab1A71F4f2",
      "value": {
        "_hex": "0x0"
      },
      "nonce": 0,
      "data": "0x3ba15036",
      "r": "0x11b3c050a5a682c7c75d71027aef3406896c34211fa1b47fbfbaf22a6403823b",
      "s": "0x299fbe297be55158c04c1e987e46a9bea6aec329d5aceedf339a97ad6daa8a7d",
      "v": 27,
      "creates": null,
      "raw": "0xf86980850ba43b740083015f9094793ae8c1b1a160bfc07bfb0d04f85eab1a71f4f280843ba150361ba011b3c050a5a682c7c75d71027aef3406896c34211fa1b47fbfbaf22a6403823ba0299fbe297be55158c04c1e987e46a9bea6aec329d5aceedf339a97ad6daa8a7d",
      "networkId": 0,
      "chainId": 0
    },
    {
      "hash": "0x4b3a47f89ab579aa2f402d9777aa5330ff3d5b2d457ddd4d101baeea285412b4",
      "blockHash": "0xb0d63e4136432d91351317a4e8b9cdd7388eb42cf8c2a60398be28de4fb3d1a0",
      "blockNumber": 68395,
      "transactionIndex": 2,
      "confirmations": null,
      "from": "0x81dE0f13109B2Fa6c1eA283262DC17648C87795C",
      "gasPrice": {
        "_hex": "0xba43b7400"
      },
      "gasLimit": {
        "_hex": "0x15f90"
      },
      "to": "0x793AE8C1b1a160BFc07BFB0d04F85eab1A71F4f2",
      "value": {
        "_hex": "0x0"
      },
      "nonce": 0,
      "data": "0x3ba15036",
      "r": "0xa64ddcdcda0d53959c802b174c7d16ee2d4a0dd0b051ecd685af27b0612307d3",
      "s": "0x5c15e02e79776d47c3d0251988f17267f83e9dc5b9efc51ca932818952f07074",
      "v": 27,
      "creates": null,
      "raw": "0xf86980850ba43b740083015f9094793ae8c1b1a160bfc07bfb0d04f85eab1a71f4f280843ba150361ba0a64ddcdcda0d53959c802b174c7d16ee2d4a0dd0b051ecd685af27b0612307d3a05c15e02e79776d47c3d0251988f17267f83e9dc5b9efc51ca932818952f07074",
      "networkId": 0,
      "chainId": 0
    },
    {
      "hash": "0xc5c4e67c7d256da78d384b4fc50c0338c84b9b13f434d31cf1d2414dc8440d72",
      "blockHash": "0xb0d63e4136432d91351317a4e8b9cdd7388eb42cf8c2a60398be28de4fb3d1a0",
      "blockNumber": 68395,
      "transactionIndex": 3,
      "confirmations": null,
      "from": "0xCF08332a35Bdc67B55489bc60141431345DF0bcD",
      "gasPrice": {
        "_hex": "0xba43b7400"
      },
      "gasLimit": {
        "_hex": "0x15f90"
      },
      "to": "0x793AE8C1b1a160BFc07BFB0d04F85eab1A71F4f2",
      "value": {
        "_hex": "0x0"
      },
      "nonce": 0,
      "data": "0x3ba15036",
      "r": "0x1c2d34d6d7b5e9a93a545a3056771983ce1f23a9c6c556724a6c46c08795c3b6",
      "s": "0x7d7ffd8f9570ed5b2f7758be66b98cda175593b2b1d04485feee7fb96bc3e3ac",
      "v": 27,
      "creates": null,
      "raw": "0xf86980850ba43b740083015f9094793ae8c1b1a160bfc07bfb0d04f85eab1a71f4f280843ba150361ba01c2d34d6d7b5e9a93a545a3056771983ce1f23a9c6c556724a6c46c08795c3b6a07d7ffd8f9570ed5b2f7758be66b98cda175593b2b1d04485feee7fb96bc3e3ac",
      "networkId": 0,
      "chainId": 0
    },
    {
      "hash": "0x465dd61a3a75d6d0807d32571631603fd50889fbba61619590ec9f87781d0375",
      "blockHash": "0xb0d63e4136432d91351317a4e8b9cdd7388eb42cf8c2a60398be28de4fb3d1a0",
      "blockNumber": 68395,
      "transactionIndex": 4,
      "confirmations": null,
      "from": "0x84d574903025b03Ecad8FB7b330aE4Bf3A1817C5",
      "gasPrice": {
        "_hex": "0xba43b7400"
      },
      "gasLimit": {
        "_hex": "0x15f90"
      },
      "to": "0x793AE8C1b1a160BFc07BFB0d04F85eab1A71F4f2",
      "value": {
        "_hex": "0x0"
      },
      "nonce": 0,
      "data": "0x3ba15036",
      "r": "0x92e41bc0034c39f459618e7a5b7d849358ac31287c924616de8c4f3dafaca6db",
      "s": "0x7492df1ce88550e89116d7462043643c6a6e504c82385fd9841a1a4814eedfbb",
      "v": 27,
      "creates": null,
      "raw": "0xf86980850ba43b740083015f9094793ae8c1b1a160bfc07bfb0d04f85eab1a71f4f280843ba150361ba092e41bc0034c39f459618e7a5b7d849358ac31287c924616de8c4f3dafaca6dba07492df1ce88550e89116d7462043643c6a6e504c82385fd9841a1a4814eedfbb",
      "networkId": 0,
      "chainId": 0
    },
    {
      "hash": "0x4f18babca677aeacd1d5abd413bf8587e50f5cef57499d04e182cdf2f0ee015f",
      "blockHash": "0xb0d63e4136432d91351317a4e8b9cdd7388eb42cf8c2a60398be28de4fb3d1a0",
      "blockNumber": 68395,
      "transactionIndex": 5,
      "confirmations": null,
      "from": "0x77483015A682cE2635b3334C787F04C031E1659E",
      "gasPrice": {
        "_hex": "0xba43b7400"
      },
      "gasLimit": {
        "_hex": "0x15f90"
      },
      "to": "0x793AE8C1b1a160BFc07BFB0d04F85eab1A71F4f2",
      "value": {
        "_hex": "0x0"
      },
      "nonce": 0,
      "data": "0x3ba15036",
      "r": "0x9f6b2049a81ce04c105467d2f38cf8b89f9458dba2e5c6ad1b33982beb144a83",
      "s": "0x01135ec73bcb38a1324f00d406aa7c8de19d1e5e9ae188a30049859247990db2",
      "v": 28,
      "creates": null,
      "raw": "0xf86980850ba43b740083015f9094793ae8c1b1a160bfc07bfb0d04f85eab1a71f4f280843ba150361ca09f6b2049a81ce04c105467d2f38cf8b89f9458dba2e5c6ad1b33982beb144a83a001135ec73bcb38a1324f00d406aa7c8de19d1e5e9ae188a30049859247990db2",
      "networkId": 0,
      "chainId": 0
    },
    {
      "hash": "0x5acc1a8c3cbd214b8d7e153923600b8bf3b49e35b3deab419c4084ec406cf3fd",
      "blockHash": "0xb0d63e4136432d91351317a4e8b9cdd7388eb42cf8c2a60398be28de4fb3d1a0",
      "blockNumber": 68395,
      "transactionIndex": 6,
      "confirmations": null,
      "from": "0x984D69f1171cB445d187BFC333bABfaeAaCCf008",
      "gasPrice": {
        "_hex": "0xba43b7400"
      },
      "gasLimit": {
        "_hex": "0x15f90"
      },
      "to": "0x793AE8C1b1a160BFc07BFB0d04F85eab1A71F4f2",
      "value": {
        "_hex": "0x0"
      },
      "nonce": 0,
      "data": "0x3ba15036",
      "r": "0xf3b475aeb6381faab3a32935473e7a092f99030ef6069866d286ee796a1d0354",
      "s": "0x1cad2de906c5b2c2faaf183f93731edb1eee54908a9b2a2720b123e92e14ce73",
      "v": 27,
      "creates": null,
      "raw": "0xf86980850ba43b740083015f9094793ae8c1b1a160bfc07bfb0d04f85eab1a71f4f280843ba150361ba0f3b475aeb6381faab3a32935473e7a092f99030ef6069866d286ee796a1d0354a01cad2de906c5b2c2faaf183f93731edb1eee54908a9b2a2720b123e92e14ce73",
      "networkId": 0,
      "chainId": 0
    },
    {
      "hash": "0xc2e622b04f860879dc92b93e999e6353ab460296d78cf13fa14690ac74ca2f78",
      "blockHash": "0xb0d63e4136432d91351317a4e8b9cdd7388eb42cf8c2a60398be28de4fb3d1a0",
      "blockNumber": 68395,
      "transactionIndex": 7,
      "confirmations": null,
      "from": "0x7deB6B0CA66094cFEDD3ad019AE6A2611e83AfF5",
      "gasPrice": {
        "_hex": "0xba43b7400"
      },
      "gasLimit": {
        "_hex": "0x15f90"
      },
      "to": "0x793AE8C1b1a160BFc07BFB0d04F85eab1A71F4f2",
      "value": {
        "_hex": "0x0"
      },
      "nonce": 0,
      "data": "0x3ba15036",
      "r": "0xf4db2207fb38fe0502cd911cb0a75a02780feec2e6d63157d596d7715e4f36da",
      "s": "0x5c665dc2b0a130ab15cc4c33310eb152d236543ade7cf6b778ead397a1e81bdf",
      "v": 27,
      "creates": null,
      "raw": "0xf86980850ba43b740083015f9094793ae8c1b1a160bfc07bfb0d04f85eab1a71f4f280843ba150361ba0f4db2207fb38fe0502cd911cb0a75a02780feec2e6d63157d596d7715e4f36daa05c665dc2b0a130ab15cc4c33310eb152d236543ade7cf6b778ead397a1e81bdf",
      "networkId": 0,
      "chainId": 0
    },
    {
      "hash": "0xbc655e5beb230ca30114645c594b810f9b1a22c06fd821dd073751acef7e44ba",
      "blockHash": "0xb0d63e4136432d91351317a4e8b9cdd7388eb42cf8c2a60398be28de4fb3d1a0",
      "blockNumber": 68395,
      "transactionIndex": 8,
      "confirmations": null,
      "from": "0x8f69e077701C5276F128C3f08Cb76649f50fFcC9",
      "gasPrice": {
        "_hex": "0xba43b7400"
      },
      "gasLimit": {
        "_hex": "0x15f90"
      },
      "to": "0x793AE8C1b1a160BFc07BFB0d04F85eab1A71F4f2",
      "value": {
        "_hex": "0x0"
      },
      "nonce": 0,
      "data": "0x3ba15036",
      "r": "0xd8bc47d287aa8dbd503ee103d89b2c2190fbbbff57a7f1dc90a5eff75f2cbdf5",
      "s": "0x53b30272c666cc36e5ca6f86c2fd2f530cc504b5845a767b20cc7edde9a51180",
      "v": 28,
      "creates": null,
      "raw": "0xf86980850ba43b740083015f9094793ae8c1b1a160bfc07bfb0d04f85eab1a71f4f280843ba150361ca0d8bc47d287aa8dbd503ee103d89b2c2190fbbbff57a7f1dc90a5eff75f2cbdf5a053b30272c666cc36e5ca6f86c2fd2f530cc504b5845a767b20cc7edde9a51180",
      "networkId": 0,
      "chainId": 0
    },
    {
      "hash": "0x37091171a12246ecb49d994b2888d9b0758dbcb43d2a1b7a91929ba61f5baa89",
      "blockHash": "0xb0d63e4136432d91351317a4e8b9cdd7388eb42cf8c2a60398be28de4fb3d1a0",
      "blockNumber": 68395,
      "transactionIndex": 9,
      "confirmations": null,
      "from": "0x57e7114122bDCB9232A12712C2040195c30F8Ed8",
      "gasPrice": {
        "_hex": "0xba43b7400"
      },
      "gasLimit": {
        "_hex": "0x15f90"
      },
      "to": "0x793AE8C1b1a160BFc07BFB0d04F85eab1A71F4f2",
      "value": {
        "_hex": "0x0"
      },
      "nonce": 0,
      "data": "0x3ba15036",
      "r": "0x3a350fbcd946a7a8a0ae04024632f9194d7f995594db782eecd15379d504c5e8",
      "s": "0x0d9c90f59bef7ad31f8fa724b3892f5030e92596cdc3a6b242e4a1b209b692eb",
      "v": 28,
      "creates": null,
      "raw": "0xf86980850ba43b740083015f9094793ae8c1b1a160bfc07bfb0d04f85eab1a71f4f280843ba150361ca03a350fbcd946a7a8a0ae04024632f9194d7f995594db782eecd15379d504c5e8a00d9c90f59bef7ad31f8fa724b3892f5030e92596cdc3a6b242e4a1b209b692eb",
      "networkId": 0,
      "chainId": 0
    },
    {
      "hash": "0xf1da2da42f38d9ee36599f877b142108d11c73170b299b1223056e46771607a1",
      "blockHash": "0xb0d63e4136432d91351317a4e8b9cdd7388eb42cf8c2a60398be28de4fb3d1a0",
      "blockNumber": 68395,
      "transactionIndex": 10,
      "confirmations": null,
      "from": "0x3143fA328e05F99113904F92536271aDEF73D775",
      "gasPrice": {
        "_hex": "0xba43b7400"
      },
      "gasLimit": {
        "_hex": "0x15f90"
      },
      "to": "0x793AE8C1b1a160BFc07BFB0d04F85eab1A71F4f2",
      "value": {
        "_hex": "0x0"
      },
      "nonce": 0,
      "data": "0x3ba15036",
      "r": "0x3fba33079e5ebc03c2cc7f25164d546f3394efe8df2e6dadd00cd91b1f66f990",
      "s": "0x598bfef6ec36f8e7b9f04756918ed9dda3613c6f458f2247d6af1e050ebfbc1d",
      "v": 27,
      "creates": null,
      "raw": "0xf86980850ba43b740083015f9094793ae8c1b1a160bfc07bfb0d04f85eab1a71f4f280843ba150361ba03fba33079e5ebc03c2cc7f25164d546f3394efe8df2e6dadd00cd91b1f66f990a0598bfef6ec36f8e7b9f04756918ed9dda3613c6f458f2247d6af1e050ebfbc1d",
      "networkId": 0,
      "chainId": 0
    },
    {
      "hash": "0x44e3855abe0917fdd51111d646b31e558596f822a06c837e6066c314e0260bed",
      "blockHash": "0xb0d63e4136432d91351317a4e8b9cdd7388eb42cf8c2a60398be28de4fb3d1a0",
      "blockNumber": 68395,
      "transactionIndex": 11,
      "confirmations": null,
      "from": "0x88f27f9057c1E94894CCaD3ec5aB9416EBd2C2c9",
      "gasPrice": {
        "_hex": "0xba43b7400"
      },
      "gasLimit": {
        "_hex": "0x15f90"
      },
      "to": "0x793AE8C1b1a160BFc07BFB0d04F85eab1A71F4f2",
      "value": {
        "_hex": "0x0"
      },
      "nonce": 0,
      "data": "0x3ba15036",
      "r": "0x3c19ba356fe79c70e572a00c4560c3c6e955349823479c49c41c50a154ce60e7",
      "s": "0x290f622972c6e0fae2415bc9053b8153bfdf98d39b40bfefb025ef31faf904a6",
      "v": 28,
      "creates": null,
      "raw": "0xf86980850ba43b740083015f9094793ae8c1b1a160bfc07bfb0d04f85eab1a71f4f280843ba150361ca03c19ba356fe79c70e572a00c4560c3c6e955349823479c49c41c50a154ce60e7a0290f622972c6e0fae2415bc9053b8153bfdf98d39b40bfefb025ef31faf904a6",
      "networkId": 0,
      "chainId": 0
    },
    {
      "hash": "0xe5ee285fa1748f05122ff57893721e8b452ed71439345a1d0a38da54c00bff92",
      "blockHash": "0xb0d63e4136432d91351317a4e8b9cdd7388eb42cf8c2a60398be28de4fb3d1a0",
      "blockNumber": 68395,
      "transactionIndex": 12,
      "confirmations": null,
      "from": "0x91409b1271111E5f3a526e53031D7553eC8959D3",
      "gasPrice": {
        "_hex": "0xba43b7400"
      },
      "gasLimit": {
        "_hex": "0x15f90"
      },
      "to": "0x793AE8C1b1a160BFc07BFB0d04F85eab1A71F4f2",
      "value": {
        "_hex": "0x0"
      },
      "nonce": 0,
      "data": "0x3ba15036",
      "r": "0x631a61628fb9a8f85fe54b39b48f166b76ef361ce1dbdde2091f524bd175790c",
      "s": "0x43cff2696a1b634c5811cc37d4075c9288142497e2d4c98439922c562fe6a777",
      "v": 27,
      "creates": null,
      "raw": "0xf86980850ba43b740083015f9094793ae8c1b1a160bfc07bfb0d04f85eab1a71f4f280843ba150361ba0631a61628fb9a8f85fe54b39b48f166b76ef361ce1dbdde2091f524bd175790ca043cff2696a1b634c5811cc37d4075c9288142497e2d4c98439922c562fe6a777",
      "networkId": 0,
      "chainId": 0
    },
    {
      "hash": "0xc29b71377514502ffaa1673d57170025d63d7a7cc255141a258c14e4f82a16af",
      "blockHash": "0xb0d63e4136432d91351317a4e8b9cdd7388eb42cf8c2a60398be28de4fb3d1a0",
      "blockNumber": 68395,
      "transactionIndex": 13,
      "confirmations": null,
      "from": "0x9e35614A1392fcD60F5FfCCf9c28261D088FE961",
      "gasPrice": {
        "_hex": "0xba43b7400"
      },
      "gasLimit": {
        "_hex": "0x15f90"
      },
      "to": "0x793AE8C1b1a160BFc07BFB0d04F85eab1A71F4f2",
      "value": {
        "_hex": "0x0"
      },
      "nonce": 0,
      "data": "0x3ba15036",
      "r": "0x7acbacb78c69c173ffba92a43f93bc876a0d9c1b61c8cd0de6c0871d8448744c",
      "s": "0x51b2efd5602cad3da5b2cfe15eeb9204f57d28655e258c058532589dd1c894d7",
      "v": 28,
      "creates": null,
      "raw": "0xf86980850ba43b740083015f9094793ae8c1b1a160bfc07bfb0d04f85eab1a71f4f280843ba150361ca07acbacb78c69c173ffba92a43f93bc876a0d9c1b61c8cd0de6c0871d8448744ca051b2efd5602cad3da5b2cfe15eeb9204f57d28655e258c058532589dd1c894d7",
      "networkId": 0,
      "chainId": 0
    },
    {
      "hash": "0x8230f878bd513723933e544b2661d8c74ca8dce1c5a6d86996ec13d2af09cd63",
      "blockHash": "0xb0d63e4136432d91351317a4e8b9cdd7388eb42cf8c2a60398be28de4fb3d1a0",
      "blockNumber": 68395,
      "transactionIndex": 14,
      "confirmations": null,
      "from": "0x1cf57eFfB12e67B10Ff358A70D157A46Ea98A2f0",
      "gasPrice": {
        "_hex": "0xba43b7400"
      },
      "gasLimit": {
        "_hex": "0x15f90"
      },
      "to": "0x793AE8C1b1a160BFc07BFB0d04F85eab1A71F4f2",
      "value": {
        "_hex": "0x0"
      },
      "nonce": 0,
      "data": "0x3ba15036",
      "r": "0xafa5888dac36fbd250f715cf561957804ea146adfcc097973efd8f2695ce4d62",
      "s": "0x6bc7e623c319b4d41f031ef904777b47c762c0676834ae9552fa80be8fd3db2f",
      "v": 28,
      "creates": null,
      "raw": "0xf86980850ba43b740083015f9094793ae8c1b1a160bfc07bfb0d04f85eab1a71f4f280843ba150361ca0afa5888dac36fbd250f715cf561957804ea146adfcc097973efd8f2695ce4d62a06bc7e623c319b4d41f031ef904777b47c762c0676834ae9552fa80be8fd3db2f",
      "networkId": 0,
      "chainId": 0
    },
    {
      "hash": "0xb109f1eb95fce4a94103c6fd9769c833f97678c723d84a1639280d48f3319a7a",
      "blockHash": "0xb0d63e4136432d91351317a4e8b9cdd7388eb42cf8c2a60398be28de4fb3d1a0",
      "blockNumber": 68395,
      "transactionIndex": 15,
      "confirmations": null,
      "from": "0x31A538002E5E3764176012ca69F27f4B9f917f1e",
      "gasPrice": {
        "_hex": "0xba43b7400"
      },
      "gasLimit": {
        "_hex": "0x15f90"
      },
      "to": "0x793AE8C1b1a160BFc07BFB0d04F85eab1A71F4f2",
      "value": {
        "_hex": "0x0"
      },
      "nonce": 0,
      "data": "0x3ba15036",
      "r": "0x9fd7e44d41b3942de5bcc3f1fac23ff451e37f0b20401bb5f0e18ed9f1a7ed81",
      "s": "0x4068f62f9d84f20ade762e3184f1ba53eec449cf9a051edb3bb84725979e0313",
      "v": 27,
      "creates": null,
      "raw": "0xf86980850ba43b740083015f9094793ae8c1b1a160bfc07bfb0d04f85eab1a71f4f280843ba150361ba09fd7e44d41b3942de5bcc3f1fac23ff451e37f0b20401bb5f0e18ed9f1a7ed81a04068f62f9d84f20ade762e3184f1ba53eec449cf9a051edb3bb84725979e0313",
      "networkId": 0,
      "chainId": 0
    },
    {
      "hash": "0x737aff864898c5e1b26a0f650f0ca1ebca3960af9499a96f0e204f45d963ac4f",
      "blockHash": "0xb0d63e4136432d91351317a4e8b9cdd7388eb42cf8c2a60398be28de4fb3d1a0",
      "blockNumber": 68395,
      "transactionIndex": 16,
      "confirmations": null,
      "from": "0xeC2A4955EB83DDB76F5569FD0EC70A8cfD2ba2c2",
      "gasPrice": {
        "_hex": "0xba43b7400"
      },
      "gasLimit": {
        "_hex": "0x15f90"
      },
      "to": "0x793AE8C1b1a160BFc07BFB0d04F85eab1A71F4f2",
      "value": {
        "_hex": "0x0"
      },
      "nonce": 0,
      "data": "0x3ba15036",
      "r": "0x07966a834836547dea98c0e646dc975a4aba60ba1e4593e3626d7f28c83fd072",
      "s": "0x77c68ba7ecf5e6c4539422d0412a821cd39c09a41fe69fb850f8838b2d7f077c",
      "v": 27,
      "creates": null,
      "raw": "0xf86980850ba43b740083015f9094793ae8c1b1a160bfc07bfb0d04f85eab1a71f4f280843ba150361ba007966a834836547dea98c0e646dc975a4aba60ba1e4593e3626d7f28c83fd072a077c68ba7ecf5e6c4539422d0412a821cd39c09a41fe69fb850f8838b2d7f077c",
      "networkId": 0,
      "chainId": 0
    },
    {
      "hash": "0x2a44c8dbf496624ec333c574e70cea3e198bee9363d671a256bd669f9b999e27",
      "blockHash": "0xb0d63e4136432d91351317a4e8b9cdd7388eb42cf8c2a60398be28de4fb3d1a0",
      "blockNumber": 68395,
      "transactionIndex": 17,
      "confirmations": null,
      "from": "0x32ce224244a542Df49c6eC5434EC236c89EE09C6",
      "gasPrice": {
        "_hex": "0xba43b7400"
      },
      "gasLimit": {
        "_hex": "0x15f90"
      },
      "to": "0x793AE8C1b1a160BFc07BFB0d04F85eab1A71F4f2",
      "value": {
        "_hex": "0x0"
      },
      "nonce": 0,
      "data": "0x3ba15036",
      "r": "0xc248ef8bafd8acf03f0d6c6c1fc3e80be08a027cfee219c5581132388cc8bf4a",
      "s": "0x5a22d171d7939ce367c5f9389856caa730656bd2c34c1dbef79a820989741473",
      "v": 27,
      "creates": null,
      "raw": "0xf86980850ba43b740083015f9094793ae8c1b1a160bfc07bfb0d04f85eab1a71f4f280843ba150361ba0c248ef8bafd8acf03f0d6c6c1fc3e80be08a027cfee219c5581132388cc8bf4aa05a22d171d7939ce367c5f9389856caa730656bd2c34c1dbef79a820989741473",
      "networkId": 0,
      "chainId": 0
    },
    {
      "hash": "0x38cd70b4515fc327d2ed1281eb932b5370018edc7906629ea01d901712dd2a8d",
      "blockHash": "0xb0d63e4136432d91351317a4e8b9cdd7388eb42cf8c2a60398be28de4fb3d1a0",
      "blockNumber": 68395,
      "transactionIndex": 18,
      "confirmations": null,
      "from": "0xB053b1d48cc216942E431cA955A29476D954Efdd",
      "gasPrice": {
        "_hex": "0xba43b7400"
      },
      "gasLimit": {
        "_hex": "0x15f90"
      },
      "to": "0x793AE8C1b1a160BFc07BFB0d04F85eab1A71F4f2",
      "value": {
        "_hex": "0x0"
      },
      "nonce": 0,
      "data": "0x3ba15036",
      "r": "0x741a0d6fb0ce78da75399ebff1d933282802733f563c0c3bb393d801489a0f8e",
      "s": "0x074246a6e5ed58af30c0c7676685af2615cbf6544dc5db8f835f820ade2cd85d",
      "v": 28,
      "creates": null,
      "raw": "0xf86980850ba43b740083015f9094793ae8c1b1a160bfc07bfb0d04f85eab1a71f4f280843ba150361ca0741a0d6fb0ce78da75399ebff1d933282802733f563c0c3bb393d801489a0f8ea0074246a6e5ed58af30c0c7676685af2615cbf6544dc5db8f835f820ade2cd85d",
      "networkId": 0,
      "chainId": 0
    },
    {
      "hash": "0x7d163313eb760fe0967c19e3bfa6ac7ea12a45aafe6ebbf4a6178f3ef2c0b930",
      "blockHash": "0xb0d63e4136432d91351317a4e8b9cdd7388eb42cf8c2a60398be28de4fb3d1a0",
      "blockNumber": 68395,
      "transactionIndex": 19,
      "confirmations": null,
      "from": "0xd3703205CC732CAbF6c2b15bfF07fc5e164ea41E",
      "gasPrice": {
        "_hex": "0xba43b7400"
      },
      "gasLimit": {
        "_hex": "0x15f90"
      },
      "to": "0x793AE8C1b1a160BFc07BFB0d04F85eab1A71F4f2",
      "value": {
        "_hex": "0x0"
      },
      "nonce": 0,
      "data": "0x3ba15036",
      "r": "0x8d3941502af47adc01cd27a82583beee53c68fe777a66a60eb4776a940288646",
      "s": "0x3ccc6767e5451b227efc265d4b405650062a066c913c305e061e3a947467d2a6",
      "v": 27,
      "creates": null,
      "raw": "0xf86980850ba43b740083015f9094793ae8c1b1a160bfc07bfb0d04f85eab1a71f4f280843ba150361ba08d3941502af47adc01cd27a82583beee53c68fe777a66a60eb4776a940288646a03ccc6767e5451b227efc265d4b405650062a066c913c305e061e3a947467d2a6",
      "networkId": 0,
      "chainId": 0
    },
    {
      "hash": "0x4ff6ea3fe86da3f3df27d1f5871a2c0ce8b1f690cb3887423f8a5b18ce75c7ea",
      "blockHash": "0xb0d63e4136432d91351317a4e8b9cdd7388eb42cf8c2a60398be28de4fb3d1a0",
      "blockNumber": 68395,
      "transactionIndex": 20,
      "confirmations": null,
      "from": "0x524102646Db37316062849166e6F9529A2c5e5B3",
      "gasPrice": {
        "_hex": "0xba43b7400"
      },
      "gasLimit": {
        "_hex": "0x15f90"
      },
      "to": "0x793AE8C1b1a160BFc07BFB0d04F85eab1A71F4f2",
      "value": {
        "_hex": "0x0"
      },
      "nonce": 0,
      "data": "0x3ba15036",
      "r": "0xf28bf6244d72db32214b82ba8e8f1157a4d1a324a5ec66785c8c9de5d368ad7e",
      "s": "0x6c3a78166a08d7d47c500fe2db73613ec0d2eb7691e76d11d80abf6e4e9cf8e0",
      "v": 28,
      "creates": null,
      "raw": "0xf86980850ba43b740083015f9094793ae8c1b1a160bfc07bfb0d04f85eab1a71f4f280843ba150361ca0f28bf6244d72db32214b82ba8e8f1157a4d1a324a5ec66785c8c9de5d368ad7ea06c3a78166a08d7d47c500fe2db73613ec0d2eb7691e76d11d80abf6e4e9cf8e0",
      "networkId": 0,
      "chainId": 0
    },
    {
      "hash": "0x3de8f14b73f88869011c547ede2a69b3902d060467b5b0c568e81fca661b467d",
      "blockHash": "0xb0d63e4136432d91351317a4e8b9cdd7388eb42cf8c2a60398be28de4fb3d1a0",
      "blockNumber": 68395,
      "transactionIndex": 21,
      "confirmations": null,
      "from": "0x33f942dF54E2DAC463d8807198dd0B67D3762e0f",
      "gasPrice": {
        "_hex": "0xba43b7400"
      },
      "gasLimit": {
        "_hex": "0x15f90"
      },
      "to": "0x793AE8C1b1a160BFc07BFB0d04F85eab1A71F4f2",
      "value": {
        "_hex": "0x0"
      },
      "nonce": 0,
      "data": "0x3ba15036",
      "r": "0x191349a58b74ae8ae4153a7e579a1546f4010d106ae2040969266f9f93575758",
      "s": "0x3a06e6f6052a40e951e6b6341f4a9b2b0bc6e5a83ec728c0640fd92191d92c22",
      "v": 28,
      "creates": null,
      "raw": "0xf86980850ba43b740083015f9094793ae8c1b1a160bfc07bfb0d04f85eab1a71f4f280843ba150361ca0191349a58b74ae8ae4153a7e579a1546f4010d106ae2040969266f9f93575758a03a06e6f6052a40e951e6b6341f4a9b2b0bc6e5a83ec728c0640fd92191d92c22",
      "networkId": 0,
      "chainId": 0
    },
    {
      "hash": "0x6c63e11e6ad59e34385248399f03bed0d386d0241aa990812a2af636d020e047",
      "blockHash": "0xb0d63e4136432d91351317a4e8b9cdd7388eb42cf8c2a60398be28de4fb3d1a0",
      "blockNumber": 68395,
      "transactionIndex": 22,
      "confirmations": null,
      "from": "0xFe729BA7A9aD11a82E0110F87E4c68356b9CAB12",
      "gasPrice": {
        "_hex": "0xba43b7400"
      },
      "gasLimit": {
        "_hex": "0x15f90"
      },
      "to": "0x793AE8C1b1a160BFc07BFB0d04F85eab1A71F4f2",
      "value": {
        "_hex": "0x0"
      },
      "nonce": 0,
      "data": "0x3ba15036",
      "r": "0x847130f2ac1ea67cf853527c985adcf63370670717bfe501cee3a1aa39dfb0fc",
      "s": "0x7180618d45120839f5777e1faf85faa0be3eff1c0fd53c32295e513d2bcbfba1",
      "v": 28,
      "creates": null,
      "raw": "0xf86980850ba43b740083015f9094793ae8c1b1a160bfc07bfb0d04f85eab1a71f4f280843ba150361ca0847130f2ac1ea67cf853527c985adcf63370670717bfe501cee3a1aa39dfb0fca07180618d45120839f5777e1faf85faa0be3eff1c0fd53c32295e513d2bcbfba1",
      "networkId": 0,
      "chainId": 0
    },
    {
      "hash": "0x11af19e34af7b28273820647eadda4790abf6afdef0897bd4a08204a9e4ad113",
      "blockHash": "0xb0d63e4136432d91351317a4e8b9cdd7388eb42cf8c2a60398be28de4fb3d1a0",
      "blockNumber": 68395,
      "transactionIndex": 23,
      "confirmations": null,
      "from": "0x2184B657a1010bC92b08E6326f75B57166722EE2",
      "gasPrice": {
        "_hex": "0xba43b7400"
      },
      "gasLimit": {
        "_hex": "0x15f90"
      },
      "to": "0x793AE8C1b1a160BFc07BFB0d04F85eab1A71F4f2",
      "value": {
        "_hex": "0x0"
      },
      "nonce": 0,
      "data": "0x3ba15036",
      "r": "0x5448a89dd750f9efc4c12c9402f5e079d457533ca457680eccb15e6f4bbdf3d2",
      "s": "0x1d25671321b9cbe81d9d67bac690f3d1363d43d47b54ab3134fcbf09d5941696",
      "v": 28,
      "creates": null,
      "raw": "0xf86980850ba43b740083015f9094793ae8c1b1a160bfc07bfb0d04f85eab1a71f4f280843ba150361ca05448a89dd750f9efc4c12c9402f5e079d457533ca457680eccb15e6f4bbdf3d2a01d25671321b9cbe81d9d67bac690f3d1363d43d47b54ab3134fcbf09d5941696",
      "networkId": 0,
      "chainId": 0
    }
  ]
}