{
  "hash": "0xafe810ce45cb8b9f7eb12016893cd88a0e97bc890497a5c4374017718c14d689",
  "parentHash": "0xa87df15a7a5ad9be3e093584228bb79215c0ba0c74281e7689a46fe79a100e16",
  "number": 46756,
  "timestamp": 1438928680,
  "nonce": "0x6af0f75d87612324",
  "difficulty": 1453201339107,
  "gasLimit": {
    "_hex": "0x76ef"
  },
  "gasUsed": {
    "_hex": "0x5208"
  },
  "miner": "0xab84940B570d6358ed6A9Dbf7e0bc8Ec8F5A6E89",
  "extraData": "0x322831652933",
  "transactions": [
    {
      "hash": "0x20319825332ce11962926275740810f83e1429f8479ff22138175c28fab5630f",
      "blockHash": "0xafe810ce45cb8b9f7eb12016893cd88a0e97bc890497a5c4374017718c14d689",
      "blockNumber": 46756,
      "transactionIndex": 0,
      "confirmations": null,
      "from": "0x3F98e477a361F777DA14611a7e419A75Fd238b6b",
      "gasPrice": {
        "_hex": "0xd72a7764f"
      },
      "gasLimit": {
        "_hex": "0x5208"
      },
      "to": "0x097738363B1662599ad0777E19461601F5EC8dF9",
      "value": {
        "_hex": "0xa00000000000000"
      },
      "nonce": 0,
      "data": "0x",
      "r": "0x62e7b0b1ff6c5110099b9542c58c044303fb9486e40bb2a27b5e38851ae1b0f5",
      "s": "0x5e08ca9419b4c579f86003ce61e9c30492a0bd23355e483204e9c70ae273bdab",
      "v": 28,
      "creates": null,
      "raw": "0xf86c80850d72a7764f82520894097738363b1662599ad0777e19461601f5ec8df9880a00000000000000801ca062e7b0b1ff6c5110099b9542c58c044303fb9486e40bb2a27b5e38851ae1b0f5a05e08ca9419b4c579f86003ce61e9c30492a0bd23355e483204e9c70ae273bdab",
      "networkId": 0,
      "chainId": 0
    }
  ]
}