{
  "hash": "0x9b1812c13b6a5bf52fcfde806547971c11b41cb25c0742b9be2d96e2f4470deb",
  "parentHash": "0xab813ac7a2738799aead1cb187e8eed0a26494ae9c6b58ff4e8d34878bae5fb4",
  "number": 120030,
  "timestamp": 1440152807,
  "nonce": "0x4067e44508019d01",
  "difficulty": 4402715847845,
  "gasLimit": {
    "_hex": "0x2fefd8"
  },
  "gasUsed": {
    "_hex": "0xa410"
  },
  "miner": "0x52bc44d5378309EE2abF1539BF71dE1b7d7bE3b5",
  "extraData": "0xd783010002844765746887676f312e342e32856c696e7578",
  "transactions": [
    {
      "hash": "0xd6797242a7a43a45d933b042c758e779913fe57fdd642e10f57816c57e3784e1",
      "blockHash": "0x9b1812c13b6a5bf52fcfde806547971c11b41cb25c0742b9be2d96e2f4470deb",
      "blockNumber": 120030,
      "transactionIndex": 0,
      "confirmations": null,
      "from": "0x007f7f58D3eb5b7510A301eCC749FC1fCDDBE14D",
      "gasPrice": {
        "_hex": "0xba43b7400"
      },
      "gasLimit": {
        "_hex": "0x15f90"
      },
      "to": "0xb1abce2918E21ddb93AA452731a12672A3d9F75a",
      "value": {
        "_hex": "0x4563918244f40000"
      },
      "nonce": 369,
      "data": "0x",
      "r": "0x094b817c92b748cb501c9c19dbd2a93e1f12c3e196c2a2fc644fa692830e64d4",
      "s": "0x55002479b1029491d5ff478bba2dba472ff4a0fb812cf7bd6d31036f5f97b696",
      "v": 27,
      "creates": null,
      "raw": "0xf86f820171850ba43b740083015f9094b1abce2918e21ddb93aa452731a12672a3d9f75a884563918244f40000801ba0094b817c92b748cb501c9c19dbd2a93e1f12c3e196c2a2fc644fa692830e64d4a055002479b1029491d5ff478bba2dba472ff4a0fb812cf7bd6d31036f5f97b696",
      "networkId": 0,
      "chainId": 0
    },
    {
      "hash": "0xfa5cacc366358e1e10031cedf64a2a620f33f3d95e19e214eac8b02596524aa6",
      "blockHash": "0x9b1812c13b6a5bf52fcfde806547971c11b41cb25c0742b9be2d96e2f4470deb",
      "blockNumber": 120030,
      "transactionIndex": 1,
      "confirmations": null,
      "from": "0x0F9c57Ebf3A5ba27b543bB64220caA7b4478B04b",
      "gasPrice": {
        "_hex": "0xba43b7400"
      },
      "gasLimit": {
        "_hex": "0x186a0"
      },
      "to": "0x5757aD9187871b88a825F0dBF416cE7CF1606898",
      "value": {
        "_hex": "0x1083bab1f2b70000"
      },
      "nonce": 4,
      "data": "0x",
      "r": "0x5af788a4bee7d43053afce8df604ac29edbfb9aaba65104b4bf46ffbc47f4aa2",
      "s": "0x0ef24f2f843d6433fd3717ddbb6fc197e54373ebce2d557468f1908a7d639364",
      "v": 27,
      "creates": null,
      "raw": "0xf86d04850ba43b7400830186a0945757ad9187871b88a825f0dbf416ce7cf1606898881083bab1f2b70000801ba05af788a4bee7d43053afce8df604ac29edbfb9aaba65104b4bf46ffbc47f4aa2a00ef24f2f843d6433fd3717ddbb6fc197e54373ebce2d557468f1908a7d639364",
      "networkId": 0,
      "chainId": 0
    }
  ]
}