{
  "hash": "0x20ca06458058401413bcb8c892ff371d8b8b3ce6149fe3e34ba8a6bb8fecfbe9",
  "parentHash": "0x9efd8824ca45a52062e6c92311921c730ccb0cdf08971a58d45ff9771b68084a",
  "number": 89209,
  "timestamp": 1439619807,
  "nonce": "0xd62b4dd18565fa92",
  "difficulty": 3295107142474,
  "gasLimit": {
    "_hex": "0x2fefd8"
  },
  "gasUsed": {
    "_hex": "0x5208"
  },
  "miner": "0x0043Bc318929D9146864870b0988d10F600f1090",
  "extraData": "0xdd809b302e392e34302b2b616339392d5257696e646f2f6d73762f4a4954",
  "transactions": [
    {
      "hash": "0xe506aa96960ef48606896cbd3427f754672467b6477c2afc9019b49700e9a998",
      "blockHash": "0x20ca06458058401413bcb8c892ff371d8b8b3ce6149fe3e34ba8a6bb8fecfbe9",
      "blockNumber": 89209,
      "transactionIndex": 0,
      "confirmations": null,
      "from": "0xE300c4587D260cE22a677755Db6429B491A4309E",
      "gasPrice": {
        "_hex": "0xddd60d832"
      },
      "gasLimit": {
        "_hex": "0x15f90"
      },
      "to": "0x06EC48800B2DB3eEfa052e98A9b5Fc2Bf783Ee74",
      "value": {
        "_hex": "0x4563918244f40000"
      },
      "nonce": 7,
      "data": "0x",
      "r": "0xc607cbb8c033bec1d365da74ea0ca0abf5273edc4c20682c371f711faf85cdc5",
      "s": "0x74e1c1abef640abdca90206da8568c7fe0a8abc0ac7ab87b8a8fcd91270af108",
      "v": 28,
      "creates": null,
      "raw": "0xf86d07850ddd60d83283015f909406ec48800b2db3eefa052e98a9b5fc2bf783ee74884563918244f40000801ca0c607cbb8c033bec1d365da74ea0ca0abf5273edc4c20682c371f711faf85cdc5a074e1c1abef640abdca90206da8568c7fe0a8abc0ac7ab87b8a8fcd91270af108",
      "networkId": 0,
      "chainId": 0
    }
  ]
}