{
  "hash": "0xa2312fa5337a590f2c7108dd1b855b138068a917517b99637d993c787dcfda1a",
  "parentHash": "0x7aced916271bed62f179dd516effc0a130953f5013dea4b107d08e540b9f28e1",
  "number": 86636,
  "timestamp": 1439580721,
  "nonce": "0x353d91ffa3b49db6",
  "difficulty": 2938794040279,
  "gasLimit": {
    "_hex": "0x2fefd8"
  },
  "gasUsed": {
    "_hex": "0x5208"
  },
  "miner": "0x88D74a59454F6cF3B51ef6b9136AFb6b9D405A88",
  "extraData": "0x476574682f76312e302e312d37666266393930632f6c696e75782f676f312e34",
  "transactions": [
    {
      "hash": "0x0c80279146dabaacb815438c7315cbffdf09d36ef6d9eaf47e93f381c8f09c24",
      "blockHash": "0xa2312fa5337a590f2c7108dd1b855b138068a917517b99637d993c787dcfda1a",
      "blockNumber": 86636,
      "transactionIndex": 0,
      "confirmations": null,
      "from": "0x2d3Cf607ADCE246F0750b08eBDC87789edb2a407",
      "gasPrice": {
        "_hex": "0x68c6171400"
      },
      "gasLimit": {
        "_hex": "0x55f0"
      },
      "to": "0x2aBD9e50d51e97aFc9a984f64657eD9539c59c91",
      "value": {
        "_hex": "0x1158e460913d00000"
      },
      "nonce": 3,
      "data": "0x",
      "r": "0x423209ce69ed9edef68f5558d1ed2058a7af4b802acdb1c1abf477c49becb3f9",
      "s": "0x3f7e833f39034ceea47808c940dbc71d159240f7d3b9a9c94d4b71298cc20118",
      "v": 28,
      "creates": null,
      "raw": "0xf86d038568c61714008255f0942abd9e50d51e97afc9a984f64657ed9539c59c918901158e460913d00000801ca0423209ce69ed9edef68f5558d1ed2058a7af4b802acdb1c1abf477c49becb3f9a03f7e833f39034ceea47808c940dbc71d159240f7d3b9a9c94d4b71298cc20118",
      "networkId": 0,
      "chainId": 0
    }
  ]
}