{
  "hash": "0x75ed6d93267bfab1b5f04c766dbc7c05403487921110d6a0a40050b626a61771",
  "parentHash": "0x81e435482a2c77bc0f7ddfd56d5a05a982753b359c780f20e74bbf66efeac5be",
  "number": 90419,
  "timestamp": 1439639772,
  "nonce": "0xe551e068142c0b90",
  "difficulty": 3326963634734,
  "gasLimit": {
    "_hex": "0x2fefd8"
  },
  "gasUsed": {
    "_hex": "0x5208"
  },
  "miner": "0xe6A7a1d47ff21B6321162AEA7C6CB457D5476Bca",
  "extraData": "0x476574682f76312e302e312d38326566323666362f6c696e75782f676f312e34",
  "transactions": [
    {
      "hash": "0x07a8bc14db14b3847b053c589d80d6ce4922e2682abf34c134ccade78298e0b3",
      "blockHash": "0x75ed6d93267bfab1b5f04c766dbc7c05403487921110d6a0a40050b626a61771",
      "blockNumber": 90419,
      "transactionIndex": 0,
      "confirmations": null,
      "from": "0x0004B15be8cB573A7be023e203E268DbcFFD302B",
      "gasPrice": {
        "_hex": "0xdb7a70f04"
      },
      "gasLimit": {
        "_hex": "0x15f90"
      },
      "to": "0x2102cC711D03dfcedF9a443B9bD540DacBFf0426",
      "value": {
        "_hex": "0x1a823cfd2abe040000"
      },
      "nonce": 1,
      "data": "0x",
      "r": "0xccdf6286b78619dcffb9f8cfb1e944b60bea2ed79bf4c19a3668776cd2f19e1c",
      "s": "0x59b620ca7284b4499a8de196beb1452a609efe945da410d849f368db158821fd",
      "v": 27,
      "creates": null,
      "raw": "0xf86e01850db7a70f0483015f90942102cc711d03dfcedf9a443b9bd540dacbff0426891a823cfd2abe040000801ba0ccdf6286b78619dcffb9f8cfb1e944b60bea2ed79bf4c19a3668776cd2f19e1ca059b620ca7284b4499a8de196beb1452a609efe945da410d849f368db158821fd",
      "networkId": 0,
      "chainId": 0
    }
  ]
}