{
  "hash": "0x4968b623e258405e0b4df6f92b42423cb728181316af165368efc42f65473793",
  "parentHash": "0xef684dd1f77d9d53c2051b248fc565cc297563c8f31243ff5ab398a235fb9c59",
  "number": 97683,
  "timestamp": 1439760096,
  "nonce": "0x4b02cfafd63628d8",
  "difficulty": 3840971739249,
  "gasLimit": {
    "_hex": "0x2fefd8"
  },
  "gasUsed": {
    "_hex": "0x5208"
  },
  "miner": "0xbb7B8287f3F0a933474a79eAe42CBCa977791171",
  "extraData": "0x476574682f4c5649562f76312e302e312f6c696e75782f676f312e342e32",
  "transactions": [
    {
      "hash": "0x7f19c922f76e61786177525e21169be41f794771773c12d83079a390b7cf2168",
      "blockHash": "0x4968b623e258405e0b4df6f92b42423cb728181316af165368efc42f65473793",
      "blockNumber": 97683,
      "transactionIndex": 0,
      "confirmations": null,
      "from": "0xE9dEfDfce0C01e6385eD158792d329d53D7569Df",
      "gasPrice": {
        "_hex": "0xda8b90bcc"
      },
      "gasLimit": {
        "_hex": "0x15f90"
      },
      "to": "0x296ddc7dB724c4b7252dEe85F3969df1b618ef1F",
      "value": {
        "_hex": "0xebec21ee1da40000"
      },
      "nonce": 1,
      "data": "0x",
      "r": "0x344dbbb65fac3ecb9cb9f04d753e274bf33c5bebb944f3225976f441c732252a",
      "s": "0x303be28ecb8a9ec425ec2e14a50186a0f3b095c165e3e2482b44a8b8ae063023",
      "v": 28,
      "creates": null,
      "raw": "0xf86d01850da8b90bcc83015f9094296ddc7db724c4b7252dee85f3969df1b618ef1f88ebec21ee1da40000801ca0344dbbb65fac3ecb9cb9f04d753e274bf33c5bebb944f3225976f441c732252aa0303be28ecb8a9ec425ec2e14a50186a0f3b095c165e3e2482b44a8b8ae063023",
      "networkId": 0,
      "chainId": 0
    }
  ]
}