{
  "hash": "0x6a5099680a7420f962a5b9ad687fa82810b57d0f6b06eb847dbe102b07d0ae97",
  "parentHash": "0xec5833322365d2ac5fb7e47cb55826903b427e8311f68089bf5fd12a2b2cc025",
  "number": 95059,
  "timestamp": 1439718319,
  "nonce": "0x6c76985eb85642be",
  "difficulty": 3498338667828,
  "gasLimit": {
    "_hex": "0x2fefd8"
  },
  "gasUsed": {
    "_hex": "0x5208"
  },
  "miner": "0x3D5292e9d2a2D31014717ff936A0F9375A5Cc8b7",
  "extraData": "0x476574682f76312e302e312f77696e646f77732f676f312e342e32",
  "transactions": [
    {
      "hash": "0x83de1ae01d802855a4ee33e0b1beacfc48e0725b4dd28ec91c9089c39632e7eb",
      "blockHash": "0x6a5099680a7420f962a5b9ad687fa82810b57d0f6b06eb847dbe102b07d0ae97",
      "blockNumber": 95059,
      "transactionIndex": 0,
      "confirmations": null,
      "from": "0xE996d36DB289Ef8D9F0a9f9a903cc42fEA50CD4E",
      "gasPrice": {
        "_hex": "0xba43b7400"
      },
      "gasLimit": {
        "_hex": "0x5208"
      },
      "to": "0xC47Aaa860008be6f65B58c6C6E02a84e666EfE31",
      "value": {
        "_hex": "0x35914408f8ce1bf0"
      },
      "nonce": 2,
      "data": "0x",
      "r": "0x416f94b0821042e8002ca45b92c4d1e7f5b619fc41fa19c896aab5fa5145ae26",
      "s": "0x17df658ddd02853ecdbbfca7cb8cceab9831892250b83df19929eb2e4189bb93",
      "v": 28,
      "creates": null,
      "raw": "0xf86c02850ba43b740082520894c47aaa860008be6f65b58c6c6e02a84e666efe318835914408f8ce1bf0801ca0416f94b0821042e8002ca45b92c4d1e7f5b619fc41fa19c896aab5fa5145ae26a017df658ddd02853ecdbbfca7cb8cceab9831892250b83df19929eb2e4189bb93",
      "networkId": 0,
      "chainId": 0
    }
  ]
}