{
  "hash": "0xcb9cda4ebd715b4344f6af428ec1065d816808103c7365f1aad8470c35aafd99",
  "parentHash": "0xe67aa935d65e5662c7525cd27ff9b81f7428fc6091a24a12c0d866e51538c39d",
  "number": 89277,
  "timestamp": 1439620849,
  "nonce": "0xce6391e1c001d83d",
  "difficulty": 3307977012871,
  "gasLimit": {
    "_hex": "0x2fefd8"
  },
  "gasUsed": {
    "_hex": "0xa674"
  },
  "miner": "0xC603Ab5ef41fC61AA8b76bEddb09e3Cfcbb174BD",
  "extraData": "0x476574682f76312e302e312f77696e646f77732f676f312e342e32",
  "transactions": [
    {
      "hash": "0xbd67a08bdf02451690108ab9253e92ad6f98978a4e3bfed6f81814c4799579f5",
      "blockHash": "0xcb9cda4ebd715b4344f6af428ec1065d816808103c7365f1aad8470c35aafd99",
      "blockNumber": 89277,
      "transactionIndex": 0,
      "confirmations": null,
      "from": "0xed4014538cEe664a2fbcB6dc669f7aB16d0Ba57c",
      "gasPrice": {
        "_hex": "0x110c8f7d8de"
      },
      "gasLimit": {
        "_hex": "0xc350"
      },
      "to": "0x2910543Af39abA0Cd09dBb2D50200b3E800A63D2",
      "value": {
        "_hex": "0xad6960bb9b7d90000"
      },
      "nonce": 0,
      "data": "0x454e4e445759415947",
      "r": "0x7317e4fe5af32fa862282c116dbaa6a5e992fcfc8948aa8e0d1009ce54067983",
      "s": "0x39458ad2f329cafb40257c9a43f5337fedcfc0dce1ac73d3786444303a529ef3",
      "v": 28,
      "creates": null,
      "raw": "0xf87780860110c8f7d8de82c350942910543af39aba0cd09dbb2d50200b3e800a63d2890ad6960bb9b7d9000089454e4e4457594159471ca07317e4fe5af32fa862282c116dbaa6a5e992fcfc8948aa8e0d1009ce54067983a039458ad2f329cafb40257c9a43f5337fedcfc0dce1ac73d3786444303a529ef3",
      "networkId": 0,
      "chainId": 0
    },
    {
      "hash": "0xab24e7b692225e642ba5479f427f3b3254237d4623c3954c09ad4be31900a393",
      "blockHash": "0xcb9cda4ebd715b4344f6af428ec1065d816808103c7365f1aad8470c35aafd99",
      "blockNumber": 89277,
      "transactionIndex": 1,
      "confirmations": null,
      "from": "0x85A12ea0FD4A0818d18A21653927028f92e24538",
      "gasPrice": {
        "_hex": "0xe289a9152"
      },
      "gasLimit": {
        "_hex": "0x15f90"
      },
      "to": "0x22F8c1Ba58a1a6554386175Ac3365A038e07aEfc",
      "value": {
        "_hex": "0x58d15e1762800000"
      },
      "nonce": 3,
      "data": "0x",
      "r": "0x991d6e8edaa5f144f427c71cfda7eb7f413cea3d5225327a525797b75d761e87",
      "s": "0x498a2a40b9cd51cc0429e1e40d6521e22f4a7f1266f30071ba29b7526e5f9b68",
      "v": 28,
      "creates": null,
      "raw": "0xf86d03850e289a915283015f909422f8c1ba58a1a6554386175ac3365a038e07aefc8858d15e1762800000801ca0991d6e8edaa5f144f427c71cfda7eb7f413cea3d5225327a525797b75d761e87a0498a2a40b9cd51cc0429e1e40d6521e22f4a7f1266f30071ba29b7526e5f9b68",
      "networkId": 0,
      "chainId": 0
    }
  ]
}