{
  "hash": "0x5392c1883b2dc775402fbb97dd109b412c9b884a9c5bc16c1449c60ce081c917",
  "parentHash": "0x68b9688093b46d5d4418f56574fb2ce588a3b2a92a7c21f02f37d7930a746735",
  "number": 60490,
  "timestamp": 1439156477,
  "nonce": "0x3ccdcb0f516f72ae",
  "difficulty": 1743205198435,
  "gasLimit": {
    "_hex": "0x2fefd5"
  },
  "gasUsed": {
    "_hex": "0xf618"
  },
  "miner": "0x9746c7e1ef2bd21FF3997fa467593a89cb852BD0",
  "extraData": "0x476574682f76312e302e312f77696e646f77732f676f312e342e32",
  "transactions": [
    {
      "hash": "0x634dafd7c9226f4c5193b116a4e6a3b1338c57844008577e066934e198d4170d",
      "blockHash": "0x5392c1883b2dc775402fbb97dd109b412c9b884a9c5bc16c1449c60ce081c917",
      "blockNumber": 60490,
      "transactionIndex": 0,
      "confirmations": null,
      "from": "0x2910543Af39abA0Cd09dBb2D50200b3E800A63D2",
      "gasPrice": {
        "_hex": "0xd77a88954"
      },
      "gasLimit": {
        "_hex": "0x5208"
      },
      "to": "0xDf5a6962905AE4E93677Aa75F1Cb40f895f390Db",
      "value": {
        "_hex": "0x677ca0a63604d38000"
      },
      "nonce": 47,
      "data": "0x",
      "r": "0x93a078faaa2163d515d83171d5fef1ebc45a71c25acfb92345c80cee14c119ec",
      "s": "0x5b93022d81dceff3159dffd9cca7d7651c7e5e6d91ac319e764a5af203391ef8",
      "v": 27,
      "creates": null,
      "raw": "0xf86d2f850d77a8895482520894df5a6962905ae4e93677aa75f1cb40f895f390db89677ca0a63604d38000801ba093a078faaa2163d515d83171d5fef1ebc45a71c25acfb92345c80cee14c119eca05b93022d81dceff3159dffd9cca7d7651c7e5e6d91ac319e764a5af203391ef8",
      "networkId": 0,
      "chainId": 0
    },
    {
      "hash": "0x18d5dedf0db38c969c1e420f468233718b010013b0543835d3e53b9b98694cfa",
      "blockHash": "0x5392c1883b2dc775402fbb97dd109b412c9b884a9c5bc16c1449c60ce081c917",
      "blockNumber": 60490,
      "transactionIndex": 1,
      "confirmations": null,
      "from": "0x2910543Af39abA0Cd09dBb2D50200b3E800A63D2",
      "gasPrice": {
        "_hex": "0xd77a88954"
      },
      "gasLimit": {
        "_hex": "0x5208"
      },
      "to": "0x765EeAAd1F3F92C0d5aC5361913D96e37ceaeE1A",
      "value": {
        "_hex": "0x483759102441372000"
      },
      "nonce": 48,
      "data": "0x",
      "r": "0x8b38f608a7819a2316e7990d558c41678172b8dcc06b89f28ebc1be3c6a3b62d",
      "s": "0x3307279a638c39de0c451be8f1799d01771fac34f5c33cc3896c355f95dc6b72",
      "v": 27,
      "creates": null,
      "raw": "0xf86d30850d77a8895482520894765eeaad1f3f92c0d5ac5361913d96e37ceaee1a89483759102441372000801ba08b38f608a7819a2316e7990d558c41678172b8dcc06b89f28ebc1be3c6a3b62da03307279a638c39de0c451be8f1799d01771fac34f5c33cc3896c355f95dc6b72",
      "networkId": 0,
      "chainId": 0
    },
    {
      "hash": "0x52580d18137720fa1f3f36ae852d59b7c63f7fe1ed77dcca998777cc46943c5a",
      "blockHash": "0x5392c1883b2dc775402fbb97dd109b412c9b884a9c5bc16c1449c60ce081c917",
      "blockNumber": 60490,
      "transactionIndex": 2,
      "confirmations": null,
      "from": "0x2910543Af39abA0Cd09dBb2D50200b3E800A63D2",
      "gasPrice": {
        "_hex": "0xd77a88954"
      },
      "gasLimit": {
        "_hex": "0x5208"
      },
      "to": "0x241361559FEEF80Ef137302153Bd9Ed2f25db3eF",
      "value": {
        "_hex": "0x833cf8a82c24c380000"
      },
      "nonce": 49,
      "data": "0x",
      "r": "0xe436051261a278e74ffb3522a512a79a5f9c57459913c409dbef428e4b392fb8",
      "s": "0x6844f6fe3ed59b524055fe05e7dd760c2fadcd2fc2a06d56103bc646c70e4624",
      "v": 28,
      "creates": null,
      "raw": "0xf86e31850d77a8895482520894241361559feef80ef137302153bd9ed2f25db3ef8a0833cf8a82c24c380000801ca0e436051261a278e74ffb3522a512a79a5f9c57459913c409dbef428e4b392fb8a06844f6fe3ed59b524055fe05e7dd760c2fadcd2fc2a06d56103bc646c70e4624",
      "networkId": 0,
      "chainId": 0
    }
  ]
}