{
  "hash": "0x0c82c8f50a3aa09fbe2162426a114f7b813df251bcd307d99701e8b898d54b2e",
  "parentHash": "0x22f58ec17f0a1102d66fb499513a17b2a3eb6c8399131928f53beb3353255f04",
  "number": 74610,
  "timestamp": 1439389199,
  "nonce": "0xc7173572cac0bf84",
  "difficulty": 2202061203661,
  "gasLimit": {
    "_hex": "0x2fefd8"
  },
  "gasUsed": {
    "_hex": "0x5208"
  },
  "miner": "0xf927a40C8B7F6E07c5af7FA2155B4864a4112B13",
  "extraData": "0x",
  "transactions": [
    {
      "hash": "0x5f9d449c7686c56c3f4afd5ec433b1905fedd1cf6c33fe37c65d699d209a01ae",
      "blockHash": "0x0c82c8f50a3aa09fbe2162426a114f7b813df251bcd307d99701e8b898d54b2e",
      "blockNumber": 74610,
      "transactionIndex": 0,
      "confirmations": null,
      "from": "0x6E8A26689f7A2FdEfd009CBaaA5310253450DABa",
      "gasPrice": {
        "_hex": "0xd25e2a77d"
      },
      "gasLimit": {
        "_hex": "0x15f90"
      },
      "to": "0xd6986162E8B905e6a771C3BCD1b2baa2B0bb386F",
      "value": {
        "_hex": "0xde0b6b3a7640000"
      },
      "nonce": 6,
      "data": "0x",
      "r": "0xbc2d7d3cdec6319b235645a3799ba495d56994b104c8a58e23e579a62e660063",
      "s": "0x3aa60e87642a652910f95e0b0a243097f164f5251a0a2b3b0bcb37107cfc1927",
      "v": 27,
      "creates": null,
      "raw": "0xf86d06850d25e2a77d83015f9094d6986162e8b905e6a771c3bcd1b2baa2b0bb386f880de0b6b3a7640000801ba0bc2d7d3cdec6319b235645a3799ba495d56994b104c8a58e23e579a62e660063a03aa60e87642a652910f95e0b0a243097f164f5251a0a2b3b0bcb37107cfc1927",
      "networkId": 0,
      "chainId": 0
    }
  ]
}