{
  "hash": "0x378c835960bfa7090e13fc4a6229675bafcad5208f136b375b8a0bf3af84df3e",
  "parentHash": "0x0dbdf2b9a1b49f8a2a4c6393ee5e45aba0819b9dc0bd6bde6a681afb83b3984b",
  "number": 75344,
  "timestamp": 1439401771,
  "nonce": "0x103a93b630763e3c",
  "difficulty": 2195427185498,
  "gasLimit": {
    "_hex": "0x2fefd8"
  },
  "gasUsed": {
    "_hex": "0x5208"
  },
  "miner": "0xC603Ab5ef41fC61AA8b76bEddb09e3Cfcbb174BD",
  "extraData": "0x476574682f76312e302e312f77696e646f77732f676f312e342e32",
  "transactions": [
    {
      "hash": "0x3dce69af26f3c748c58b80d21fb19ca94f686e18e233a450b41f16c98f447e53",
      "blockHash": "0x378c835960bfa7090e13fc4a6229675bafcad5208f136b375b8a0bf3af84df3e",
      "blockNumber": 75344,
      "transactionIndex": 0,
      "confirmations": null,
      "from": "0x120A270bbC009644e35F0bB6ab13f95b8199c4ad",
      "gasPrice": {
        "_hex": "0xd00bc0d01"
      },
      "gasLimit": {
        "_hex": "0x3d090"
      },
      "to": "0x32C14236BC5564d9066dF7E03782262F297B4D37",
      "value": {
        "_hex": "0x3ad96657778dc400"
      },
      "nonce": 293,
      "data": "0x",
      "r": "0x5314f748fa73adf441f092fc8a006aa8081dd4cd43a6729b61bda63735eda518",
      "s": "0x10868d52363c5f8d0184c3359c8c5c190e4b207c2d4f49e17f15d499f998e0af",
      "v": 27,
      "creates": null,
      "raw": "0xf86f820125850d00bc0d018303d0909432c14236bc5564d9066df7e03782262f297b4d37883ad96657778dc400801ba05314f748fa73adf441f092fc8a006aa8081dd4cd43a6729b61bda63735eda518a010868d52363c5f8d0184c3359c8c5c190e4b207c2d4f49e17f15d499f998e0af",
      "networkId": 0,
      "chainId": 0
    }
  ]
}