{
  "hash": "0x138c55ec44fc3b509126ccd3d8887edad65fa1f095fd43b9953afb07c92e7ffb",
  "parentHash": "0x4310b9075cb5b95e4ef2e8515cd4fadc376a3ad068beffebb4dd0f093d6f2739",
  "number": 105488,
  "timestamp": 1439888556,
  "nonce": "0x6e480a7a98bc48ba",
  "difficulty": 4376033102823,
  "gasLimit": {
    "_hex": "0x2fefd8"
  },
  "gasUsed": {
    "_hex": "0xa410"
  },
  "miner": "0xe6A7a1d47ff21B6321162AEA7C6CB457D5476Bca",
  "extraData": "0x476574682f76312e302e312d38326566323666362f6c696e75782f676f312e34",
  "transactions": [
    {
      "hash": "0xf6485be9e64743ce7c830b22d4920e760e4cc6fde77d84069bc58a8ce2295b90",
      "blockHash": "0x138c55ec44fc3b509126ccd3d8887edad65fa1f095fd43b9953afb07c92e7ffb",
      "blockNumber": 105488,
      "transactionIndex": 0,
      "confirmations": null,
      "from": "0x6CB5e8313a5B29aDb14AE1884D3EcE4489d02D77",
      "gasPrice": {
        "_hex": "0xd252dd66e"
      },
      "gasLimit": {
        "_hex": "0x5208"
      },
      "to": "0x32Be343B94f860124dC4fEe278FDCBD38C102D88",
      "value": {
        "_hex": "0x1a61d6ad701265000"
      },
      "nonce": 6,
      "data": "0x",
      "r": "0x94f4458d9a6a55b84947dc7117c0df74227239113847ac0314bcc5459fe7eabc",
      "s": "0x465edb528136e2769668076f078c0800a78255dc2d5e7cf044f97aa85ee52363",
      "v": 28,
      "creates": null,
      "raw": "0xf86d06850d252dd66e8252089432be343b94f860124dc4fee278fdcbd38c102d888901a61d6ad701265000801ca094f4458d9a6a55b84947dc7117c0df74227239113847ac0314bcc5459fe7eabca0465edb528136e2769668076f078c0800a78255dc2d5e7cf044f97aa85ee52363",
      "networkId": 0,
      "chainId": 0
    },
    {
      "hash": "0xd3138d2294042045e795c9c58c4b03dbebf9ba828685022ee3a3974797473d8b",
      "blockHash": "0x138c55ec44fc3b509126ccd3d8887edad65fa1f095fd43b9953afb07c92e7ffb",
      "blockNumber": 105488,
      "transactionIndex": 1,
      "confirmations": null,
      "from": "0xf2cC0eEAAAeD313542CB262B0B8c3972425143f0",
      "gasPrice": {
        "_hex": "0xd252dd66e"
      },
      "gasLimit": {
        "_hex": "0x5208"
      },
      "to": "0x32Be343B94f860124dC4fEe278FDCBD38C102D88",
      "value": {
        "_hex": "0x103ea1d72f820c000"
      },
      "nonce": 16,
      "data": "0x",
      "r": "0xa43fc2512a5e6bb7d84bafd2cba7a6e0d020b5576d875fc65391e815cb5c4847",
      "s": "0x341f5d09c402832bd074336083e24c84e5e0fb5209c470d13f5c6cd21ad11ae4",
      "v": 28,
      "creates": null,
      "raw": "0xf86d10850d252dd66e8252089432be343b94f860124dc4fee278fdcbd38c102d88890103ea1d72f820c000801ca0a43fc2512a5e6bb7d84bafd2cba7a6e0d020b5576d875fc65391e815cb5c4847a0341f5d09c402832bd074336083e24c84e5e0fb5209c470d13f5c6cd21ad11ae4",
      "networkId": 0,
      "chainId": 0
    }
  ]
}