{
  "hash": "0x163eeb196fdc71abb077583cd46a1b7cb750aeae00cf8fb885899d23bb4f4a7c",
  "parentHash": "0xa904fe18b8182e5c234529c99e0b3899c6e63324eaa881843d966905b72d6e79",
  "number": 69853,
  "timestamp": 1439310832,
  "nonce": "0x347e48d3811a38e4",
  "difficulty": 2099335914611,
  "gasLimit": {
    "_hex": "0x2fefd8"
  },
  "gasUsed": {
    "_hex": "0x11452"
  },
  "miner": "0x88D74a59454F6cF3B51ef6b9136AFb6b9D405A88",
  "extraData": "0x476574682f76312e302e312d38326566323666362f6c696e75782f676f312e34",
  "transactions": [
    {
      "hash": "0xcb1316911442ff0e9685a822d5a449eb875ad2d88a1483ccbc1e4c26c0be9f9e",
      "blockHash": "0x163eeb196fdc71abb077583cd46a1b7cb750aeae00cf8fb885899d23bb4f4a7c",
      "blockNumber": 69853,
      "transactionIndex": 0,
      "confirmations": null,
      "from": "0x775e18be7A50a0Abb8A4e82B1bD697D79F31fE04",
      "gasPrice": {
        "_hex": "0xd8364fc25"
      },
      "gasLimit": {
        "_hex": "0xf4240"
      },
      "to": "0xde0B295669a9FD93d5F28D9Ec85E40f4cb697BAe",
      "value": {
        "_hex": "0x0"
      },
      "nonce": 0,
      "data": "0xf00d4b5d000000000000000000000000036c8cecce8d8bbf0831d840d7f29c9e3ddefa63000000000000000000000000c5a96db085dda36ffbe390f455315d30d6d3dc52",
      "r": "0xdc58bb5ef28365dc6ae29a3a86c8957b4690e8bb198390d088d7463ba4d9cc99",
      "s": "0x50ab8dee77652c96b9a8c865c69c26b5ec7b0b20a454e7c9d685aacd70d017d2",
      "v": 27,
      "creates": null,
      "raw": "0xf8aa80850d8364fc25830f424094de0b295669a9fd93d5f28d9ec85e40f4cb697bae80b844f00d4b5d000000000000000000000000036c8cecce8d8bbf0831d840d7f29c9e3ddefa63000000000000000000000000c5a96db085dda36ffbe390f455315d30d6d3dc521ba0dc58bb5ef28365dc6ae29a3a86c8957b4690e8bb198390d088d7463ba4d9cc99a050ab8dee77652c96b9a8c865c69c26b5ec7b0b20a454e7c9d685aacd70d017d2",
      "networkId": 0,
      "chainId": 0
    }
  ]
}