{
  "hash": "0xa2387d1b5a83313823621fc92d20699637d0ec53413a6fb5f46bbd8f3e90b091",
  "parentHash": "0x4c55a38cdebe81ea358170a23a0cee4bddcbc150952d78152f439038f45cec57",
  "number": 52609,
  "timestamp": 1439024318,
  "nonce": "0xffc7d84e73f94c5c",
  "difficulty": 1569422842711,
  "gasLimit": {
    "_hex": "0x163a7e"
  },
  "gasUsed": {
    "_hex": "0x5208"
  },
  "miner": "0xA1623430350C5df1b52B0b57483A5bb45d1796Da",
  "extraData": "0x476574682f76312e302e302d30636463373634372f6c696e75782f676f312e34",
  "transactions": [
    {
      "hash": "0xacd802d1771d22a48c2e23df520799e9563ca55befa697260d1ebcc8b44477d8",
      "blockHash": "0xa2387d1b5a83313823621fc92d20699637d0ec53413a6fb5f46bbd8f3e90b091",
      "blockNumber": 52609,
      "transactionIndex": 0,
      "confirmations": null,
      "from": "0x1C257ad4A55105ea3B58Ed374b198dA266c85f63",
      "gasPrice": {
        "_hex": "0x10a988cead6"
      },
      "gasLimit": {
        "_hex": "0x5208"
      },
      "to": "0x439632734cdF5a84774156c1938CbeDe2eF398F0",
      "value": {
        "_hex": "0x4e47868d5c30100000"
      },
      "nonce": 4,
      "data": "0x",
      "r": "0x7b0347542c34a488d62c37510318465895b157eb928dc4e85159eb5eab217b73",
      "s": "0x23033e8c200a4872fa7c9b215aca6e5784cdfb3466c5c89cac44ed13ed8c2842",
      "v": 27,
      "creates": null,
      "raw": "0xf86e0486010a988cead682520894439632734cdf5a84774156c1938cbede2ef398f0894e47868d5c30100000801ba07b0347542c34a488d62c37510318465895b157eb928dc4e85159eb5eab217b73a023033e8c200a4872fa7c9b215aca6e5784cdfb3466c5c89cac44ed13ed8c2842",
      "networkId": 0,
      "chainId": 0
    }
  ]
}