{
  "hash": "0x09433c8dbfedd39209d41eabec14a7c5ee8ae4c1bb2f4a3b2d4acca82335a43a",
  "parentHash": "0x41f6a0f1a609a666854bc64ca68a09520167ba201ccea24c8ed48cbe0136d3de",
  "number": 52264,
  "timestamp": 1439019052,
  "nonce": "0xfb9c47aa7c243570",
  "difficulty": 1554994048656,
  "gasLimit": {
    "_hex": "0x11df84"
  },
  "gasUsed": {
    "_hex": "0xa410"
  },
  "miner": "0x400fb5A6482E54E44b2250E75251707514c605C1",
  "extraData": "0x476574682f76312e302e312f77696e646f77732f676f312e342e32",
  "transactions": [
    {
      "hash": "0x2b4fed21c649e15ffa85075fb17f1415e16b41d93d99199d5639350dd1165215",
      "blockHash": "0x09433c8dbfedd39209d41eabec14a7c5ee8ae4c1bb2f4a3b2d4acca82335a43a",
      "blockNumber": 52264,
      "transactionIndex": 0,
      "confirmations": null,
      "from": "0x32Be343B94f860124dC4fEe278FDCBD38C102D88",
      "gasPrice": {
        "_hex": "0xe802406f9"
      },
      "gasLimit": {
        "_hex": "0x5208"
      },
      "to": "0xEAb290b146d9fC82589a817012Aa157D5963aa61",
      "value": {
        "_hex": "0x1025f5afff8306000"
      },
      "nonce": 6,
      "data": "0x",
      "r": "0x27eed6b127de59b0774655620242d3d6a895007c58c5de207184310fbe8c4886",
      "s": "0x098118758e1253a554fb73e2740a4d4f6cbf876a8a44d965748c7a557cf3100b",
      "v": 28,
      "creates": null,
      "raw": "0xf86d06850e802406f982520894eab290b146d9fc82589a817012aa157d5963aa618901025f5afff8306000801ca027eed6b127de59b0774655620242d3d6a895007c58c5de207184310fbe8c4886a0098118758e1253a554fb73e2740a4d4f6cbf876a8a44d965748c7a557cf3100b",
      "networkId": 0,
      "chainId": 0
    },
    {
      "hash": "0xed7ee83dd91fe8c200c3dba37e08e8eed66bbe03be94d115999f690c9d1657d7",
      "blockHash": "0x09433c8dbfedd39209d41eabec14a7c5ee8ae4c1bb2f4a3b2d4acca82335a43a",
      "blockNumber": 52264,
      "transactionIndex": 1,
      "confirmations": null,
      "from": "0x32Be343B94f860124dC4fEe278FDCBD38C102D88",
      "gasPrice": {
        "_hex": "0xe802406f9"
      },
      "gasLimit": {
        "_hex": "0x5208"
      },
      "to": "0x0000000000000000000000000000000000000000",
      "value": {
        "_hex": "0x8afb604e679590000"
      },
      "nonce": 7,
      "data": "0x",
      "r": "0x1f1d321266c73b308fa629386159a1e436d0083d1ea1a605eeebdf88ae1536a7",
      "s": "0x4be373edd49502667f046235fa377dddc7e6d8e960d17eb41ff1ba8f31be6f88",
      "v": 27,
      "creates": null,
      "raw": "0xf86d07850e802406f98252089400000000000000000000000000000000000000008908afb604e679590000801ba01f1d321266c73b308fa629386159a1e436d0083d1ea1a605eeebdf88ae1536a7a04be373edd49502667f046235fa377dddc7e6d8e960d17eb41ff1ba8f31be6f88",
      "networkId": 0,
      "chainId": 0
    }
  ]
}