{
  "hash": "0xb61470dda4b99f9b9c8f8949fe3e61d83c4762ea3789d58b102bbcec30d0cf7a",
  "parentHash": "0x548f3b5aaf11de59c0aa57fee285cd74943d8e75b2d799f3bbc89d3b72de5e0d",
  "number": 98383,
  "timestamp": 1439771793,
  "nonce": "0xb2d9f4e6f4651add",
  "difficulty": 3882130626741,
  "gasLimit": {
    "_hex": "0x2fefd8"
  },
  "gasUsed": {
    "_hex": "0x5208"
  },
  "miner": "0x8EF5f53D5B50584a031D68D0AB92493355d4EdB0",
  "extraData": "0x476574682f76312e302e312f6c696e75782f676f312e342e32",
  "transactions": [
    {
      "hash": "0xb3745112a092ea3e299337eaf83ffc187e84f9e2743feabde85735329cb09e10",
      "blockHash": "0xb61470dda4b99f9b9c8f8949fe3e61d83c4762ea3789d58b102bbcec30d0cf7a",
      "blockNumber": 98383,
      "transactionIndex": 0,
      "confirmations": null,
      "from": "0x770d98d31b4353FceEE8560c4CCf803e88C0c4e0",
      "gasPrice": {
        "_hex": "0xd0dcff860"
      },
      "gasLimit": {
        "_hex": "0x5208"
      },
      "to": "0xFBb1b73C4f0BDa4f67dcA266ce6Ef42f520fBB98",
      "value": {
        "_hex": "0x2c88072914f27d00"
      },
      "nonce": 23,
      "data": "0x",
      "r": "0x0ee7f8fb95c1aab2afdd912385879df7cc4fd71017dd54662ec4b2015a4a1d9e",
      "s": "0x3ecef0bb47fc6d095d5dd618470f2f82ae8e33b56681b95d99339a523646721d",
      "v": 28,
      "creates": null,
      "raw": "0xf86c17850d0dcff86082520894fbb1b73c4f0bda4f67dca266ce6ef42f520fbb98882c88072914f27d00801ca00ee7f8fb95c1aab2afdd912385879df7cc4fd71017dd54662ec4b2015a4a1d9ea03ecef0bb47fc6d095d5dd618470f2f82ae8e33b56681b95d99339a523646721d",
      "networkId": 0,
      "chainId": 0
    }
  ]
}