{
  "hash": "0xadf7731513ca0cd0cb4785a424032feab97920f2cdb630e9ff7fd3dfadeae89f",
  "parentHash": "0xbc62d795c36dc247b1cd5d5e377cf82f73109a283d5419f079a7729e1e43fb34",
  "number": 106374,
  "timestamp": 1439903139,
  "nonce": "0x446218773927ed95",
  "difficulty": 4474962400480,
  "gasLimit": {
    "_hex": "0x2fefd8"
  },
  "gasUsed": {
    "_hex": "0x5208"
  },
  "miner": "0x580992B51e3925e23280EfB93d3047C82f17E038",
  "extraData": "0x476574682f76312e302e312f6c696e75782f676f312e342e32",
  "transactions": [
    {
      "hash": "0xee41bb6a7cede9dc0a554d64a1d11bd521ef9e83fb21f60b02c7c7d3aba0248b",
      "blockHash": "0xadf7731513ca0cd0cb4785a424032feab97920f2cdb630e9ff7fd3dfadeae89f",
      "blockNumber": 106374,
      "transactionIndex": 0,
      "confirmations": null,
      "from": "0xAf078Ae030266aD29c156Ed6E57FEe912f90745C",
      "gasPrice": {
        "_hex": "0xd2ca79ec2"
      },
      "gasLimit": {
        "_hex": "0x15f90"
      },
      "to": "0x3E7AaAB12A6B39148C23710CC2ceDd876b758988",
      "value": {
        "_hex": "0x1bc16d674ec80000"
      },
      "nonce": 0,
      "data": "0x",
      "r": "0x50ec5500f248cb775ec75e1c0dd594f998f3d82e16eb0c475ca7262b52958509",
      "s": "0x3f5b5420a82b69dd5a8bc499367b303fd88c7443f42731a31b8439272bc1c439",
      "v": 28,
      "creates": null,
      "raw": "0xf86d80850d2ca79ec283015f90943e7aaab12a6b39148c23710cc2cedd876b758988881bc16d674ec80000801ca050ec5500f248cb775ec75e1c0dd594f998f3d82e16eb0c475ca7262b52958509a03f5b5420a82b69dd5a8bc499367b303fd88c7443f42731a31b8439272bc1c439",
      "networkId": 0,
      "chainId": 0
    }
  ]
}