{
  "hash": "0x356128c0ce3e6251b2e38e4f71aea7682bc1971a8103be38e3ab3b610bb64728",
  "parentHash": "0x9d4bd7a063b9bf88adf6669e09daa1c3f16a52830a44a01d05e2e6960e2a2831",
  "number": 76944,
  "timestamp": 1439428837,
  "nonce": "0x99b24a6e666ccdbb",
  "difficulty": 2240488056174,
  "gasLimit": {
    "_hex": "0x2fefd8"
  },
  "gasUsed": {
    "_hex": "0x546c"
  },
  "miner": "0xf927a40C8B7F6E07c5af7FA2155B4864a4112B13",
  "extraData": "0x",
  "transactions": [
    {
      "hash": "0xe0e005af1eeab04442f4cd136104a34ab71c7c74cd26d275598dff57d7173fee",
      "blockHash": "0x356128c0ce3e6251b2e38e4f71aea7682bc1971a8103be38e3ab3b610bb64728",
      "blockNumber": 76944,
      "transactionIndex": 0,
      "confirmations": null,
      "from": "0x72dcecdD4a7374231676f7fA910A678DfC7c98D6",
      "gasPrice": {
        "_hex": "0xd57c5a50f"
      },
      "gasLimit": {
        "_hex": "0x15f90"
      },
      "to": "0x2910543Af39abA0Cd09dBb2D50200b3E800A63D2",
      "value": {
        "_hex": "0x4563918244f40000"
      },
      "nonce": 4,
      "data": "0x454e35585546344d47",
      "r": "0x1ccfe1e0d4ce6b2502a5ac3c5933df7ce1dbd4969b4ee2fd5e1f24cf4eec546d",
      "s": "0x69c8261a5ca3b5a351c09b7636f4ccbe9035b41c837fd4eaa0d5b71cc1419d09",
      "v": 27,
      "creates": null,
      "raw": "0xf87604850d57c5a50f83015f90942910543af39aba0cd09dbb2d50200b3e800a63d2884563918244f4000089454e35585546344d471ba01ccfe1e0d4ce6b2502a5ac3c5933df7ce1dbd4969b4ee2fd5e1f24cf4eec546da069c8261a5ca3b5a351c09b7636f4ccbe9035b41c837fd4eaa0d5b71cc1419d09",
      "networkId": 0,
      "chainId": 0
    }
  ]
}