{
  "hash": "0xaf968ca7fc36a3cf36c5bfb24ef87180fb461e90cb89a1c844d774cf9547aef6",
  "parentHash": "0xa598e10d04475527244b28776233e12f602366b0644f9d6fb2da46b68606ded7",
  "number": 112207,
  "timestamp": 1440003702,
  "nonce": "0xec95120631c16084",
  "difficulty": 4391786948411,
  "gasLimit": {
    "_hex": "0x2fefd8"
  },
  "gasUsed": {
    "_hex": "0x1bdbe"
  },
  "miner": "0x52bc44d5378309EE2abF1539BF71dE1b7d7bE3b5",
  "extraData": "0x476574682f76312e302e312d39353236303766382f6c696e75782f676f312e34",
  "transactions": [
    {
      "hash": "0x96bc2af400d3e55dfd98e5e8958f2c45e8a49cdd77cf228e2ef1621958399a92",
      "blockHash": "0xaf968ca7fc36a3cf36c5bfb24ef87180fb461e90cb89a1c844d774cf9547aef6",
      "blockNumber": 112207,
      "transactionIndex": 0,
      "confirmations": null,
      "from": "0x7d4FE1Fe322a332397a2e813e002779675F5e212",
      "gasPrice": {
        "_hex": "0xd8364fc25"
      },
      "gasLimit": {
        "_hex": "0x249f0"
      },
      "to": "0xE28e72FCf78647ADCe1F1252F240bbfaebD63BcC",
      "value": {
        "_hex": "0x39cb74deed7b5480000"
      },
      "nonce": 0,
      "data": "0x45466f3a",
      "r": "0xcee1e4fbb91a3415bab0aebcd9d280d016a3bc58406ac1bb5e7a9f511c3b7946",
      "s": "0x2d6f3a5f76a30fe99a77dd53fc821822a96fb9a963ac12b130dfe9102cf6fa0b",
      "v": 27,
      "creates": null,
      "raw": "0xf87380850d8364fc25830249f094e28e72fcf78647adce1f1252f240bbfaebd63bcc8a039cb74deed7b54800008445466f3a1ba0cee1e4fbb91a3415bab0aebcd9d280d016a3bc58406ac1bb5e7a9f511c3b7946a02d6f3a5f76a30fe99a77dd53fc821822a96fb9a963ac12b130dfe9102cf6fa0b",
      "networkId": 0,
      "chainId": 0
    }
  ]
}