{
  "hash": "0xeb7fe4bf84d8543b5d65c893a5e20498a9887158ce0ec8ae0976e220652510ef",
  "parentHash": "0xb109831bd8ed7e104e4413fe15411258eabbdc06ec5c4bd807fe775b030f738e",
  "number": 104046,
  "timestamp": 1439863344,
  "nonce": "0x3990a2a9543ecde0",
  "difficulty": 4250419365129,
  "gasLimit": {
    "_hex": "0x2fe3db"
  },
  "gasUsed": {
    "_hex": "0x5208"
  },
  "miner": "0x528419cd4425d074D168Ae82CdFc335076b09B2F",
  "extraData": "0x49207475726e204164646572616c6c20696e746f204574686572",
  "transactions": [
    {
      "hash": "0x97833ac558aad9140d093c00d980015e41dae94080853bd414ab72b347ddc184",
      "blockHash": "0xeb7fe4bf84d8543b5d65c893a5e20498a9887158ce0ec8ae0976e220652510ef",
      "blockNumber": 104046,
      "transactionIndex": 0,
      "confirmations": null,
      "from": "0x120A270bbC009644e35F0bB6ab13f95b8199c4ad",
      "gasPrice": {
        "_hex": "0xcc527c737"
      },
      "gasLimit": {
        "_hex": "0x3d090"
      },
      "to": "0x9eE2bcfE9d322cFD264b1aa913ff9e2Ca905C204",
      "value": {
        "_hex": "0x2937b792ea51517c00"
      },
      "nonce": 732,
      "data": "0x",
      "r": "0x46119ce768362f96049b14987337b2d6f9cdcb6461d8242a413f2405f815293c",
      "s": "0x7eb66684f8afa0a3a74167bccd919f4f6002ee805cca4239b92e8d3af12ffde3",
      "v": 28,
      "creates": null,
      "raw": "0xf8708202dc850cc527c7378303d090949ee2bcfe9d322cfd264b1aa913ff9e2ca905c204892937b792ea51517c00801ca046119ce768362f96049b14987337b2d6f9cdcb6461d8242a413f2405f815293ca07eb66684f8afa0a3a74167bccd919f4f6002ee805cca4239b92e8d3af12ffde3",
      "networkId": 0,
      "chainId": 0
    }
  ]
}