{
  "hash": "0xfddbbb07362adb506ab27e7a86d2e53574435f6ee5f7266fa3f6157ace41605f",
  "parentHash": "0xa9e86d9119ef83e37783a03d5a6ee8e5468dff6679219abfccec1a935cd8f165",
  "number": 104262,
  "timestamp": 1439866966,
  "nonce": "0x4889de4b75d1484b",
  "difficulty": 4271114139877,
  "gasLimit": {
    "_hex": "0x2fefd8"
  },
  "gasUsed": {
    "_hex": "0x5208"
  },
  "miner": "0xa6BDc31c431B8F97848c9D60cbbe9660dc450eB7",
  "extraData": "0x",
  "transactions": [
    {
      "hash": "0xd4969b707cc508bc5774f49fad797d5073b80c8f26c86ac8703194554d8ab6ac",
      "blockHash": "0xfddbbb07362adb506ab27e7a86d2e53574435f6ee5f7266fa3f6157ace41605f",
      "blockNumber": 104262,
      "transactionIndex": 0,
      "confirmations": null,
      "from": "0x7D45E10A0d63eCCA0694a7cbfF030f4dD87DA0dC",
      "gasPrice": {
        "_hex": "0xd57ec59c1"
      },
      "gasLimit": {
        "_hex": "0x15f90"
      },
      "to": "0x6d921977dEFE5f4e0682CA512De1D07b1f4802E1",
      "value": {
        "_hex": "0x1c9f78d2893e40000"
      },
      "nonce": 27,
      "data": "0x",
      "r": "0x543c6b39b831e2eab7c49e4d6e2ac11c7f3795e353683b091a4ee0b759c3d56f",
      "s": "0x64a1e74d70e093f5323cf740dceb6457b13a64009970ee6f21e58f75ac4af32a",
      "v": 28,
      "creates": null,
      "raw": "0xf86e1b850d57ec59c183015f90946d921977defe5f4e0682ca512de1d07b1f4802e18901c9f78d2893e40000801ca0543c6b39b831e2eab7c49e4d6e2ac11c7f3795e353683b091a4ee0b759c3d56fa064a1e74d70e093f5323cf740dceb6457b13a64009970ee6f21e58f75ac4af32a",
      "networkId": 0,
      "chainId": 0
    }
  ]
}