{
  "hash": "0xb5f64a21e2194daf9488518b554bc192985fb4b8da14f9cef9a45f21ca7a03d4",
  "parentHash": "0x23565a6893818c0749116783d0ecfa093988778d66c8c29a5bb6ef0ab935c9b1",
  "number": 110683,
  "timestamp": 1439977791,
  "nonce": "0x2423a387aaab0dfc",
  "difficulty": 4371189007114,
  "gasLimit": {
    "_hex": "0x2fefd8"
  },
  "gasUsed": {
    "_hex": "0x18326"
  },
  "miner": "0xf927a40C8B7F6E07c5af7FA2155B4864a4112B13",
  "extraData": "0x",
  "transactions": [
    {
      "hash": "0x26cf46c3e00c795ec8315b93d5440160b1c0f6adc681a265c96e772807e778a8",
      "blockHash": "0xb5f64a21e2194daf9488518b554bc192985fb4b8da14f9cef9a45f21ca7a03d4",
      "blockNumber": 110683,
      "transactionIndex": 0,
      "confirmations": null,
      "from": "0x0F87Fb507513e749081E34373c84E95e85b5c057",
      "gasPrice": {
        "_hex": "0xd9aafe3f1"
      },
      "gasLimit": {
        "_hex": "0x249f0"
      },
      "to": "0xE28e72FCf78647ADCe1F1252F240bbfaebD63BcC",
      "value": {
        "_hex": "0xebec21ee1da40000"
      },
      "nonce": 7,
      "data": "0x45466f3a",
      "r": "0x9d5ba3d6949df3d6be5411aaa2acddd13831462334b6b2d9a2fe995df5bfa639",
      "s": "0x306ab8926f758bde51b05939f365ab9459bfe199228985da5bbf8c4eb9ce4630",
      "v": 28,
      "creates": null,
      "raw": "0xf87107850d9aafe3f1830249f094e28e72fcf78647adce1f1252f240bbfaebd63bcc88ebec21ee1da400008445466f3a1ca09d5ba3d6949df3d6be5411aaa2acddd13831462334b6b2d9a2fe995df5bfa639a0306ab8926f758bde51b05939f365ab9459bfe199228985da5bbf8c4eb9ce4630",
      "networkId": 0,
      "chainId": 0
    }
  ]
}