{
  "hash": "0xbf4321746fe67afa4b5bc000ac0151d2e0230b667a0a8a849cd25f5bbc0027ea",
  "parentHash": "0xab7defb469668ad4dfbd9c85aad5632dd55b41ecb9a6106df85313d58b293f99",
  "number": 106629,
  "timestamp": 1439907711,
  "nonce": "0x95fa66a612e835f5",
  "difficulty": 4472641930348,
  "gasLimit": {
    "_hex": "0x2fefd5"
  },
  "gasUsed": {
    "_hex": "0xa674"
  },
  "miner": "0xf927a40C8B7F6E07c5af7FA2155B4864a4112B13",
  "extraData": "0x",
  "transactions": [
    {
      "hash": "0x1a375d35586dd2699f680ceac091b8c6d3f53b628e7f81f22f8752210c71fe74",
      "blockHash": "0xbf4321746fe67afa4b5bc000ac0151d2e0230b667a0a8a849cd25f5bbc0027ea",
      "blockNumber": 106629,
      "transactionIndex": 0,
      "confirmations": null,
      "from": "0xBaD235d5085Dc7B068A67C412677b03e1836884C",
      "gasPrice": {
        "_hex": "0x110c8f7d8de"
      },
      "gasLimit": {
        "_hex": "0xc350"
      },
      "to": "0x2910543Af39abA0Cd09dBb2D50200b3E800A63D2",
      "value": {
        "_hex": "0x363466684d81160000"
      },
      "nonce": 1,
      "data": "0x454e4a374637344a52",
      "r": "0x4f78197c6c2c33597313ed98480a266bfcc4ff34a8e0763d7c9b33d4c1025a4a",
      "s": "0xea98711a9ece8a930742e3b9eb3a8999a1ce1fb22882c35460f320db40fe46fc",
      "v": 27,
      "creates": null,
      "raw": "0xf87701860110c8f7d8de82c350942910543af39aba0cd09dbb2d50200b3e800a63d289363466684d8116000089454e4a374637344a521ba04f78197c6c2c33597313ed98480a266bfcc4ff34a8e0763d7c9b33d4c1025a4aa0ea98711a9ece8a930742e3b9eb3a8999a1ce1fb22882c35460f320db40fe46fc",
      "networkId": 0,
      "chainId": 0
    },
    {
      "hash": "0x514181c386ab8a19b93690dd573028c797426777ed1c5a1b754e6975a3970d45",
      "blockHash": "0xbf4321746fe67afa4b5bc000ac0151d2e0230b667a0a8a849cd25f5bbc0027ea",
      "blockNumber": 106629,
      "transactionIndex": 1,
      "confirmations": null,
      "from": "0x2910543Af39abA0Cd09dBb2D50200b3E800A63D2",
      "gasPrice": {
        "_hex": "0xd2e224335"
      },
      "gasLimit": {
        "_hex": "0x5208"
      },
      "to": "0x14101dABf1212bB2d77C70E121AA394c4293af74",
      "value": {
        "_hex": "0xc77d261ef2bf78000"
      },
      "nonce": 1036,
      "data": "0x",
      "r": "0x8d5a48cf305d7e5e156073c03d3264bb83d4466def1eb4056998e96a52351e3f",
      "s": "0x75cb67dd8d278b30b80af41bae27d20857f9a081f8b1598fff4dcc4457fe7009",
      "v": 28,
      "creates": null,
      "raw": "0xf86f82040c850d2e2243358252089414101dabf1212bb2d77c70e121aa394c4293af74890c77d261ef2bf78000801ca08d5a48cf305d7e5e156073c03d3264bb83d4466def1eb4056998e96a52351e3fa075cb67dd8d278b30b80af41bae27d20857f9a081f8b1598fff4dcc4457fe7009",
      "networkId": 0,
      "chainId": 0
    }
  ]
}