{
  "hash": "0xe08de5ae9bd1e955d40abf6f649e40c5352058b39fda21efeeadb98905ef74c5",
  "parentHash": "0x38735a8b4d040ef2abf276097739c40281cd77aa719bbd26d683b8fbae3e15e2",
  "number": 89822,
  "timestamp": 1439629693,
  "nonce": "0x1027f1727f64d21f",
  "difficulty": 3338592141494,
  "gasLimit": {
    "_hex": "0x2fefd8"
  },
  "gasUsed": {
    "_hex": "0x5208"
  },
  "miner": "0xe6A7a1d47ff21B6321162AEA7C6CB457D5476Bca",
  "extraData": "0x476574682f76312e302e312d38326566323666362f6c696e75782f676f312e34",
  "transactions": [
    {
      "hash": "0x389d848b908e83434b244442f06d7787e1e6ab956b4d48a43775643409253d1e",
      "blockHash": "0xe08de5ae9bd1e955d40abf6f649e40c5352058b39fda21efeeadb98905ef74c5",
      "blockNumber": 89822,
      "transactionIndex": 0,
      "confirmations": null,
      "from": "0x61E20833179bA2eCCc2065e5F733CC8CdA7394c0",
      "gasPrice": {
        "_hex": "0xde9562eb8"
      },
      "gasLimit": {
        "_hex": "0x5208"
      },
      "to": "0x32Be343B94f860124dC4fEe278FDCBD38C102D88",
      "value": {
        "_hex": "0xb3905f5c6ca7c800"
      },
      "nonce": 2,
      "data": "0x",
      "r": "0xde97977826056446a40c719cf51a16ae85230c266c65289e6ad2c152d9ca5e3b",
      "s": "0x6e74459d1b6350889bf089151bc5d6410cd6c209c332fe567144647457649b58",
      "v": 27,
      "creates": null,
      "raw": "0xf86c02850de9562eb88252089432be343b94f860124dc4fee278fdcbd38c102d8888b3905f5c6ca7c800801ba0de97977826056446a40c719cf51a16ae85230c266c65289e6ad2c152d9ca5e3ba06e74459d1b6350889bf089151bc5d6410cd6c209c332fe567144647457649b58",
      "networkId": 0,
      "chainId": 0
    }
  ]
}