{
  "hash": "0x41468e203b8001be57da53bdda7418a80da0ce2bc6095f6f33a44019bb325170",
  "parentHash": "0x960d2d8bd8da2e046790e067ee2ae2814496fd072d4f157a811e3480801ba1b4",
  "number": 120588,
  "timestamp": 1440162453,
  "nonce": "0x867a7c74da391a94",
  "difficulty": 4428294163955,
  "gasLimit": {
    "_hex": "0x2fefd8"
  },
  "gasUsed": {
    "_hex": "0x5208"
  },
  "miner": "0xe6A7a1d47ff21B6321162AEA7C6CB457D5476Bca",
  "extraData": "0xd783010002844765746887676f312e342e32856c696e7578",
  "transactions": [
    {
      "hash": "0xbf3075e7cecde0fa59124695f44da610f6ad0bc56e02c2f6483a1d11a80b83fd",
      "blockHash": "0x41468e203b8001be57da53bdda7418a80da0ce2bc6095f6f33a44019bb325170",
      "blockNumber": 120588,
      "transactionIndex": 0,
      "confirmations": null,
      "from": "0x32Be343B94f860124dC4fEe278FDCBD38C102D88",
      "gasPrice": {
        "_hex": "0xba43b7400"
      },
      "gasLimit": {
        "_hex": "0x5208"
      },
      "to": "0xF3BB3a71bA12A87dE8523E92779a1dd882460c20",
      "value": {
        "_hex": "0x9cd1aa2149ea0000"
      },
      "nonce": 1525,
      "data": "0x",
      "r": "0x1e42897cba78758b1689c63341f6a085e1f7d3be35a352fd58b8adb64b9b5a3d",
      "s": "0x47fb91c582dca76818491305e192f4c27784b0d39b47c183aaa308a56e9fc29d",
      "v": 28,
      "creates": null,
      "raw": "0xf86e8205f5850ba43b740082520894f3bb3a71ba12a87de8523e92779a1dd882460c20889cd1aa2149ea0000801ca01e42897cba78758b1689c63341f6a085e1f7d3be35a352fd58b8adb64b9b5a3da047fb91c582dca76818491305e192f4c27784b0d39b47c183aaa308a56e9fc29d",
      "networkId": 0,
      "chainId": 0
    }
  ]
}