{
  "hash": "0x51691afb0a40cc9b8bed90898da28dcfe02d32a3f68792dc1b60203446ad3ba5",
  "parentHash": "0x26f1c63d4f1b91128493ec553c5084fce5a1e6e6b241f5b7b5aa8818f28454b4",
  "number": 86628,
  "timestamp": 1439580595,
  "nonce": "0x9fe8265a4c459fdf",
  "difficulty": 2941668163736,
  "gasLimit": {
    "_hex": "0x2fefd8"
  },
  "gasUsed": {
    "_hex": "0x5d9f"
  },
  "miner": "0x0037ce3d4B7f8729C8607D8D0248252Be68202c0",
  "extraData": "0x476574682f76312e302e312f77696e646f77732f676f312e342e32",
  "transactions": [
    {
      "hash": "0xa529d5d95b16c30e8da5c023c0acb9ee403606e34da6248683d1aee9c53bbbb5",
      "blockHash": "0x51691afb0a40cc9b8bed90898da28dcfe02d32a3f68792dc1b60203446ad3ba5",
      "blockNumber": 86628,
      "transactionIndex": 0,
      "confirmations": null,
      "from": "0x8A243A0A9fEA49b839547745ff2D11Af3F4b0522",
      "gasPrice": {
        "_hex": "0xcf3078474"
      },
      "gasLimit": {
        "_hex": "0x15f90"
      },
      "to": "0xCAc7000C7dBaa2E33Af15325AF5D435E011C7BdD",
      "value": {
        "_hex": "0x114d7d3155b44f850"
      },
      "nonce": 1,
      "data": "0xb214faa53754414c4f394246510000000000000000000000000000000000000000000000",
      "r": "0x8882334c8ece7bcfbdb542bf9523e0e8a678c00cfca5a648e7653bbecc48dc37",
      "s": "0x30afbf513651829a53f5a38ea4937ee0757a0c23f01e593e731b21abf85dc339",
      "v": 27,
      "creates": null,
      "raw": "0xf89201850cf307847483015f9094cac7000c7dbaa2e33af15325af5d435e011c7bdd890114d7d3155b44f850a4b214faa53754414c4f3942465100000000000000000000000000000000000000000000001ba08882334c8ece7bcfbdb542bf9523e0e8a678c00cfca5a648e7653bbecc48dc37a030afbf513651829a53f5a38ea4937ee0757a0c23f01e593e731b21abf85dc339",
      "networkId": 0,
      "chainId": 0
    }
  ]
}