{
  "hash": "0xa158115800aa1a0ecbc3de6cfcd97a4009f3832a1c75d496043d9dc222347c9f",
  "parentHash": "0xdee2560151ee60969f8897beb8ddbd60c29fd66f60006941055d823296d68da7",
  "number": 118286,
  "timestamp": 1440123512,
  "nonce": "0x229547b91471ad3a",
  "difficulty": 4314242141208,
  "gasLimit": {
    "_hex": "0x2fefd8"
  },
  "gasUsed": {
    "_hex": "0x5208"
  },
  "miner": "0x64c0f4A860176e4f956550703F0eF522A9eD06F9",
  "extraData": "0x476574682f76312e302e322d61303330336666342f6c696e75782f676f312e34",
  "transactions": [
    {
      "hash": "0x06435fe5f761c2815983712d688923fee1acc5966296addbe6cd7d8b0fb7f370",
      "blockHash": "0xa158115800aa1a0ecbc3de6cfcd97a4009f3832a1c75d496043d9dc222347c9f",
      "blockNumber": 118286,
      "transactionIndex": 0,
      "confirmations": null,
      "from": "0x007f7f58D3eb5b7510A301eCC749FC1fCDDBE14D",
      "gasPrice": {
        "_hex": "0xba43b7400"
      },
      "gasLimit": {
        "_hex": "0x15f90"
      },
      "to": "0xb1abce2918E21ddb93AA452731a12672A3d9F75a",
      "value": {
        "_hex": "0x4563918244f40000"
      },
      "nonce": 339,
      "data": "0x",
      "r": "0x2a582881bad74e9fc6064f7ad069a144e0ea2216d41047f9afd2d2928637df3a",
      "s": "0x7ea0b807345213e72aaf3af59b04b4fe45f9919adaa3bf7e6405ca9c6e7e2c53",
      "v": 27,
      "creates": null,
      "raw": "0xf86f820153850ba43b740083015f9094b1abce2918e21ddb93aa452731a12672a3d9f75a884563918244f40000801ba02a582881bad74e9fc6064f7ad069a144e0ea2216d41047f9afd2d2928637df3aa07ea0b807345213e72aaf3af59b04b4fe45f9919adaa3bf7e6405ca9c6e7e2c53",
      "networkId": 0,
      "chainId": 0
    }
  ]
}