{
  "hash": "0x7d5cdc3357b6ac3ce3ea053df913d8f751729eadc69a8d660f0e30e5a91274cc",
  "parentHash": "0x0d689eccbd7ba962967dd38bf630cefbbe0584ee01811d0cd6d216de475f844c",
  "number": 76547,
  "timestamp": 1439422381,
  "nonce": "0xec28623f76d85839",
  "difficulty": 2230769334116,
  "gasLimit": {
    "_hex": "0x2fefd8"
  },
  "gasUsed": {
    "_hex": "0x546c"
  },
  "miner": "0xbb7B8287f3F0a933474a79eAe42CBCa977791171",
  "extraData": "0x476574682f4c5649562f76312e302e312f6c696e75782f676f312e342e32",
  "transactions": [
    {
      "hash": "0x3af658a738749df7482c75454a2395c6fbb52bb336bab99e7a4193304fd55477",
      "blockHash": "0x7d5cdc3357b6ac3ce3ea053df913d8f751729eadc69a8d660f0e30e5a91274cc",
      "blockNumber": 76547,
      "transactionIndex": 0,
      "confirmations": null,
      "from": "0x66493587E4BFbAf65E6295308371a78761a2794D",
      "gasPrice": {
        "_hex": "0x112849ecfac"
      },
      "gasLimit": {
        "_hex": "0x55f0"
      },
      "to": "0x2910543Af39abA0Cd09dBb2D50200b3E800A63D2",
      "value": {
        "_hex": "0x2b5e3af16b1880000"
      },
      "nonce": 5,
      "data": "0x454e37374a5a364338",
      "r": "0x5c1d7da53062577c1758fdee7c3d9a50f431a505aa092b70d5dd717cac58d95b",
      "s": "0x2f7c9dec3220de843d0d4dceb9d2e5dc554a8252fccc1a54ed92bbefb80adf36",
      "v": 28,
      "creates": null,
      "raw": "0xf87705860112849ecfac8255f0942910543af39aba0cd09dbb2d50200b3e800a63d28902b5e3af16b188000089454e37374a5a3643381ca05c1d7da53062577c1758fdee7c3d9a50f431a505aa092b70d5dd717cac58d95ba02f7c9dec3220de843d0d4dceb9d2e5dc554a8252fccc1a54ed92bbefb80adf36",
      "networkId": 0,
      "chainId": 0
    }
  ]
}