{
  "hash": "0xe0214a4239717d813d974c07982d5bb92101e65fed3aecc54df24648ad2fd934",
  "parentHash": "0x19dc160363e2538b10cbaf3f7b5671e12ac88570ca68bb8437d91f45aa77901e",
  "number": 106549,
  "timestamp": 1439906273,
  "nonce": "0xcd809ba444358982",
  "difficulty": 4481428834293,
  "gasLimit": {
    "_hex": "0x2fefd8"
  },
  "gasUsed": {
    "_hex": "0x546c"
  },
  "miner": "0xeB1325C8D9d3ea8D74aC11F4B00F1B2367686319",
  "extraData": "0x",
  "transactions": [
    {
      "hash": "0x93e171327c10b8ad2165e54af526297adb8716663508140274f34f87eb634ae1",
      "blockHash": "0xe0214a4239717d813d974c07982d5bb92101e65fed3aecc54df24648ad2fd934",
      "blockNumber": 106549,
      "transactionIndex": 0,
      "confirmations": null,
      "from": "0xBaD235d5085Dc7B068A67C412677b03e1836884C",
      "gasPrice": {
        "_hex": "0x110c8f7d8de"
      },
      "gasLimit": {
        "_hex": "0xc350"
      },
      "to": "0x2910543Af39abA0Cd09dBb2D50200b3E800A63D2",
      "value": {
        "_hex": "0x3635c9adc5dea00000"
      },
      "nonce": 0,
      "data": "0x454e434e4432325447",
      "r": "0x5ba127cb0c4ba76862be22d633d32186d80d0d7864c9c0f60ff6eb8b596958b3",
      "s": "0x321fb85c3fb23fb38ebd12aeeec45aa4e32a1205bce5d369676edb735f20e31a",
      "v": 28,
      "creates": null,
      "raw": "0xf87780860110c8f7d8de82c350942910543af39aba0cd09dbb2d50200b3e800a63d2893635c9adc5dea0000089454e434e44323254471ca05ba127cb0c4ba76862be22d633d32186d80d0d7864c9c0f60ff6eb8b596958b3a0321fb85c3fb23fb38ebd12aeeec45aa4e32a1205bce5d369676edb735f20e31a",
      "networkId": 0,
      "chainId": 0
    }
  ]
}