{
  "hash": "0x1bc07b72438b0f2425b398defda6ed2aa5b9ee564eead541e135220f8eab2259",
  "parentHash": "0x6b7e080746a22dce0354d5170b0236cb18b2e222bdfc6985e46c8a1def5ba348",
  "number": 110795,
  "timestamp": 1439979563,
  "nonce": "0x642f6b2c65357cc9",
  "difficulty": 4392526251739,
  "gasLimit": {
    "_hex": "0x2fefd8"
  },
  "gasUsed": {
    "_hex": "0x5208"
  },
  "miner": "0xe6A7a1d47ff21B6321162AEA7C6CB457D5476Bca",
  "extraData": "0x476574682f76312e302e312d38326566323666362f6c696e75782f676f312e34",
  "transactions": [
    {
      "hash": "0xd54fbe00284b863a0e86c199bf333917fdd3f3b7078cfea791722d060af247c9",
      "blockHash": "0x1bc07b72438b0f2425b398defda6ed2aa5b9ee564eead541e135220f8eab2259",
      "blockNumber": 110795,
      "transactionIndex": 0,
      "confirmations": null,
      "from": "0x46532c79E7F23Aa3520221582D7AC182fb98C56B",
      "gasPrice": {
        "_hex": "0x10365d9663b"
      },
      "gasLimit": {
        "_hex": "0x15f90"
      },
      "to": "0x95A466C2ba3A392003E9ef63F4442236C6E1B40E",
      "value": {
        "_hex": "0x63eb89da4ed00000"
      },
      "nonce": 6,
      "data": "0x",
      "r": "0x5edfcb5ee4c449d46e1ad59bcc9c0c0636bb0f1989f4b99b3ab2e9e2db8f29fb",
      "s": "0x1a46a94c35d29e2098b6e92c98fbc7fda432ccbeea9da1b2f6b5e651269b5e81",
      "v": 28,
      "creates": null,
      "raw": "0xf86e0686010365d9663b83015f909495a466c2ba3a392003e9ef63f4442236c6e1b40e8863eb89da4ed00000801ca05edfcb5ee4c449d46e1ad59bcc9c0c0636bb0f1989f4b99b3ab2e9e2db8f29fba01a46a94c35d29e2098b6e92c98fbc7fda432ccbeea9da1b2f6b5e651269b5e81",
      "networkId": 0,
      "chainId": 0
    }
  ]
}