{
  "hash": "0x7fd6b632fc26e69d3bb4051087454e3548206c6194eedd54f90c98c1839698b5",
  "parentHash": "0x78b6d645afd6d8d122b8fb678c147904d4822e7811a321945f3bcc133e591033",
  "number": 75202,
  "timestamp": 1439399350,
  "nonce": "0x74925288a9711a59",
  "difficulty": 2197609404943,
  "gasLimit": {
    "_hex": "0x2fefd8"
  },
  "gasUsed": {
    "_hex": "0x5208"
  },
  "miner": "0xFC51D7bFF03328dC190c416DFf3Db6CEb8dbdA7B",
  "extraData": "0x476574682f76312e302e312f77696e646f77732f676f312e342e32",
  "transactions": [
    {
      "hash": "0x16c2277d3f9ac8abab4d63f6a13da29c03e62fd37c8b4277a904ba023da021d7",
      "blockHash": "0x7fd6b632fc26e69d3bb4051087454e3548206c6194eedd54f90c98c1839698b5",
      "blockNumber": 75202,
      "transactionIndex": 0,
      "confirmations": null,
      "from": "0x678e56B6f93163213D619B73A22cc42fD2855CB5",
      "gasPrice": {
        "_hex": "0xba43b7400"
      },
      "gasLimit": {
        "_hex": "0x5266"
      },
      "to": "0x923e58c2298906639eA9077D5100b4d9cdA7950e",
      "value": {
        "_hex": "0x3635c9adc5dea00000"
      },
      "nonce": 0,
      "data": "0x",
      "r": "0x02fd4e52ff588d5351beee0fd293723abce4fcc454f3835efb3876963327f952",
      "s": "0xc88e68cedfb6b4332d6f5177bece29740910f3780ba2e6bd53f042bfce0eb54b",
      "v": 28,
      "creates": null,
      "raw": "0xf86d80850ba43b740082526694923e58c2298906639ea9077d5100b4d9cda7950e893635c9adc5dea00000801ca002fd4e52ff588d5351beee0fd293723abce4fcc454f3835efb3876963327f952a0c88e68cedfb6b4332d6f5177bece29740910f3780ba2e6bd53f042bfce0eb54b",
      "networkId": 0,
      "chainId": 0
    }
  ]
}