{
  "hash": "0x07393187f6db82ff9fd347bb0a0c97359f2285866b486813549e0bc4e1ef256a",
  "parentHash": "0xdeddf7597cd7e1d2dcf7724221988e236cd62261aca527636e75ec02ecde26e6",
  "number": 68693,
  "timestamp": 1439292226,
  "nonce": "0x3bd3b1f5f9115602",
  "difficulty": 2015250928927,
  "gasLimit": {
    "_hex": "0x2fefd8"
  },
  "gasUsed": {
    "_hex": "0x5ccd"
  },
  "miner": "0xe6A7a1d47ff21B6321162AEA7C6CB457D5476Bca",
  "extraData": "0x476574682f76312e302e312d38326566323666362f6c696e75782f676f312e34",
  "transactions": [
    {
      "hash": "0x8b2a1ab462e18957198a42fceebad610c900f4cc37c54c99a7f23805eeaa59dc",
      "blockHash": "0x07393187f6db82ff9fd347bb0a0c97359f2285866b486813549e0bc4e1ef256a",
      "blockNumber": 68693,
      "transactionIndex": 0,
      "confirmations": null,
      "from": "0xd268fB48FA174088a25a120aFF0fd8eb0C2d4c87",
      "gasPrice": {
        "_hex": "0xd74bdeff5"
      },
      "gasLimit": {
        "_hex": "0x1e36d"
      },
      "to": "0xeDf619865C8303E591Ad2c4B373AAe82997B337a",
      "value": {
        "_hex": "0x0"
      },
      "nonce": 8,
      "data": "0xb61d27f6000000000000000000000000d268fb48fa174088a25a120aff0fd8eb0c2d4c870000000000000000000000000000000000000000000000001bc16d674ec80000000000000000000000000000000000000000000000000000000000000000006000000000000000000000000000000000000000000000000000000000000000000000000000000000000000000000000000000000000000000000000000000000",
      "r": "0x4b29c3d357582b8b4b4ffb0d41ebd911b7790b6d86e792ec868834a77698fa15",
      "s": "0x51c49b47bc242360581dc32fa995329dd2dbbb203134dbbe57edac92b5d31731",
      "v": 27,
      "creates": null,
      "raw": "0xf9010a08850d74bdeff58301e36d94edf619865c8303e591ad2c4b373aae82997b337a80b8a4b61d27f6000000000000000000000000d268fb48fa174088a25a120aff0fd8eb0c2d4c870000000000000000000000000000000000000000000000001bc16d674ec800000000000000000000000000000000000000000000000000000000000000000060000000000000000000000000000000000000000000000000000000000000000000000000000000000000000000000000000000000000000000000000000000001ba04b29c3d357582b8b4b4ffb0d41ebd911b7790b6d86e792ec868834a77698fa15a051c49b47bc242360581dc32fa995329dd2dbbb203134dbbe57edac92b5d31731",
      "networkId": 0,
      "chainId": 0
    }
  ]
}