{
  "hash": "0x56b00c78d0311c8c81188b73f228695298d11c056b0d9e045ad89eba1d3bd734",
  "parentHash": "0xe9690d4d7c5a235f7f11a276bdb4f65f5130bcca27dace3b54af1d1a5120fbe9",
  "number": 76979,
  "timestamp": 1439429446,
  "nonce": "0xe5e9152a7e356886",
  "difficulty": 2230654455978,
  "gasLimit": {
    "_hex": "0x2fefd8"
  },
  "gasUsed": {
    "_hex": "0x5208"
  },
  "miner": "0xf927a40C8B7F6E07c5af7FA2155B4864a4112B13",
  "extraData": "0x",
  "transactions": [
    {
      "hash": "0x4b398bdb236868b6f7eb8538d13a2ac89c32d65368305ebd1774ef7cb137e2e1",
      "blockHash": "0x56b00c78d0311c8c81188b73f228695298d11c056b0d9e045ad89eba1d3bd734",
      "blockNumber": 76979,
      "transactionIndex": 0,
      "confirmations": null,
      "from": "0xa6BDc31c431B8F97848c9D60cbbe9660dc450eB7",
      "gasPrice": {
        "_hex": "0xd9ed0db69"
      },
      "gasLimit": {
        "_hex": "0x5208"
      },
      "to": "0x32Be343B94f860124dC4fEe278FDCBD38C102D88",
      "value": {
        "_hex": "0x478a5b8bec2e6800"
      },
      "nonce": 16,
      "data": "0x",
      "r": "0x148855a3421243ef9d8cabb7f19f5c69c9cb2823a93f11fe0ad9b1ea7f51375d",
      "s": "0x52fbdde7acfdeb403346de419091c86199d450a5380d98a18889f65359eefe65",
      "v": 28,
      "creates": null,
      "raw": "0xf86c10850d9ed0db698252089432be343b94f860124dc4fee278fdcbd38c102d8888478a5b8bec2e6800801ca0148855a3421243ef9d8cabb7f19f5c69c9cb2823a93f11fe0ad9b1ea7f51375da052fbdde7acfdeb403346de419091c86199d450a5380d98a18889f65359eefe65",
      "networkId": 0,
      "chainId": 0
    }
  ]
}