{
  "hash": "0x2eb54a0864fec62ca4e6b9da814e3fe56248d8af47e6b3b2022fc6f22aa79610",
  "parentHash": "0x50ff5fe5218f2951711db372d6a12b43ad83e02978f72f0f2dc617d692840ec8",
  "number": 64916,
  "timestamp": 1439228399,
  "nonce": "0xedfb9ba6e2ad6410",
  "difficulty": 1907928666987,
  "gasLimit": {
    "_hex": "0x2fefd8"
  },
  "gasUsed": {
    "_hex": "0xbe6c"
  },
  "miner": "0xe6A7a1d47ff21B6321162AEA7C6CB457D5476Bca",
  "extraData": "0x476574682f76312e302e312f6c696e75782f676f312e342e32",
  "transactions": [
    {
      "hash": "0x48f5c6ffc4f9455d1dc1f50c4da65e94727bb0d1156206d5fddba3c181f0321e",
      "blockHash": "0x2eb54a0864fec62ca4e6b9da814e3fe56248d8af47e6b3b2022fc6f22aa79610",
      "blockNumber": 64916,
      "transactionIndex": 0,
      "confirmations": null,
      "from": "0x7C1C210B584c67C1C1Ade6d59a239e231333C05a",
      "gasPrice": {
        "_hex": "0xba43b7400"
      },
      "gasLimit": {
        "_hex": "0x15f90"
      },
      "to": "0x793AE8C1b1a160BFc07BFB0d04F85eab1A71F4f2",
      "value": {
        "_hex": "0x0"
      },
      "nonce": 0,
      "data": "0x3ba15036",
      "r": "0x7841838c665f0761c17144917dfabd306bbcf6ed462357c3c8020ae2aa895be5",
      "s": "0x750d6c72c0c709357e4a0a5b89496283e806600d3cf43f09f905f38857693b32",
      "v": 27,
      "creates": null,
      "raw": "0xf86980850ba43b740083015f9094793ae8c1b1a160bfc07bfb0d04f85eab1a71f4f280843ba150361ba07841838c665f0761c17144917dfabd306bbcf6ed462357c3c8020ae2aa895be5a0750d6c72c0c709357e4a0a5b89496283e806600d3cf43f09f905f38857693b32",
      "networkId": 0,
      "chainId": 0
    }
  ]
}