{
  "hash": "0x571c740814f5e2c03ab7d6cbd619f2cf153ba646261578593db87ba1348dd56a",
  "parentHash": "0xc7a4cf27ce181c0d388c3b98e9996d2e4b038d8b356fee1d171282c415b6f992",
  "number": 68169,
  "timestamp": 1439283676,
  "nonce": "0x30470e993703afaa",
  "difficulty": 1970614148214,
  "gasLimit": {
    "_hex": "0x2fefd8"
  },
  "gasUsed": {
    "_hex": "0x5208"
  },
  "miner": "0x55bAf64fc9eAccFFd7Cc643BB61142E1C6ac093e",
  "extraData": "0x",
  "transactions": [
    {
      "hash": "0x301bc05398ac573543e2b479bc30171310eb6d3f4231a194c5443e77e0dba871",
      "blockHash": "0x571c740814f5e2c03ab7d6cbd619f2cf153ba646261578593db87ba1348dd56a",
      "blockNumber": 68169,
      "transactionIndex": 0,
      "confirmations": null,
      "from": "0xe22B20c77894463Baf774CC256D5bDDbbF7DDd09",
      "gasPrice": {
        "_hex": "0xe007aa65b"
      },
      "gasLimit": {
        "_hex": "0x1d8a8"
      },
      "to": "0xf4B1114a02EFe852013277F28ed88734Fa81E54f",
      "value": {
        "_hex": "0x29a2241af62c0000"
      },
      "nonce": 1,
      "data": "0x",
      "r": "0x2074dac022fed5fa69ae2c4e35f3d430af47ece532b3795457d4e1ba46cccc05",
      "s": "0x33bf6e42dc0b2048ad85d76700eb94ac2127ba164f31d1ccc8291cc9201e926d",
      "v": 27,
      "creates": null,
      "raw": "0xf86d01850e007aa65b8301d8a894f4b1114a02efe852013277f28ed88734fa81e54f8829a2241af62c0000801ba02074dac022fed5fa69ae2c4e35f3d430af47ece532b3795457d4e1ba46cccc05a033bf6e42dc0b2048ad85d76700eb94ac2127ba164f31d1ccc8291cc9201e926d",
      "networkId": 0,
      "chainId": 0
    }
  ]
}