{
  "hash": "0x3eee7c757f1107b674a92826e98836c3483d303fa29859e84d14818557bd540a",
  "parentHash": "0x5ed1d519401644b4f0ef8f61efb4442fb9073fba8cf43bb831c6d42eb109f6d7",
  "number": 85611,
  "timestamp": 1439566146,
  "nonce": "0x2c4e0054a0d2ba3b",
  "difficulty": 2786813520792,
  "gasLimit": {
    "_hex": "0x2fefd8"
  },
  "gasUsed": {
    "_hex": "0x5d9f"
  },
  "miner": "0x9746c7e1ef2bd21FF3997fa467593a89cb852BD0",
  "extraData": "0x476574682f76312e302e312f77696e646f77732f676f312e342e32",
  "transactions": [
    {
      "hash": "0xf3b54dfd9895a643170509224f2298f83893d648f57f1d4eb1f9320d866e7985",
      "blockHash": "0x3eee7c757f1107b674a92826e98836c3483d303fa29859e84d14818557bd540a",
      "blockNumber": 85611,
      "transactionIndex": 0,
      "confirmations": null,
      "from": "0x02020D22dCF88f5eDd66B382D7da019F161fB7e3",
      "gasPrice": {
        "_hex": "0xdc903bed3"
      },
      "gasLimit": {
        "_hex": "0x15f90"
      },
      "to": "0xCAc7000C7dBaa2E33Af15325AF5D435E011C7BdD",
      "value": {
        "_hex": "0x0"
      },
      "nonce": 3,
      "data": "0xb214faa5384e53354b355737410000000000000000000000000000000000000000000000",
      "r": "0x3d92e196f5ca131c204ecd7fae32ea159f994566e8dce7c999b296a74b9d1b81",
      "s": "0x4042845d9aebedbba7ea339392df5d8f34c0530872d0e3db2903b4f1328a6d58",
      "v": 28,
      "creates": null,
      "raw": "0xf88903850dc903bed383015f9094cac7000c7dbaa2e33af15325af5d435e011c7bdd80a4b214faa5384e53354b3557374100000000000000000000000000000000000000000000001ca03d92e196f5ca131c204ecd7fae32ea159f994566e8dce7c999b296a74b9d1b81a04042845d9aebedbba7ea339392df5d8f34c0530872d0e3db2903b4f1328a6d58",
      "networkId": 0,
      "chainId": 0
    }
  ]
}