{
  "hash": "0x0e4010b29c150f8db7d44080f7f3fb742bb5a0a0bb34da71085a21a2aaab329f",
  "parentHash": "0x70906d190af34c8215e93931097b73d00fc2fe6bdd3e1b180c2994dbf973bc8a",
  "number": 112217,
  "timestamp": 1440003870,
  "nonce": "0xa72a87254916c1db",
  "difficulty": 4383212384869,
  "gasLimit": {
    "_hex": "0x2fefd8"
  },
  "gasUsed": {
    "_hex": "0x5208"
  },
  "miner": "0xf927a40C8B7F6E07c5af7FA2155B4864a4112B13",
  "extraData": "0x",
  "transactions": [
    {
      "hash": "0x601998b6f2358dedf87f8f91e28f815a4733247b441e3dbbc1521ba92e27db47",
      "blockHash": "0x0e4010b29c150f8db7d44080f7f3fb742bb5a0a0bb34da71085a21a2aaab329f",
      "blockNumber": 112217,
      "transactionIndex": 0,
      "confirmations": null,
      "from": "0x2e1A591a3Bd5FCE3c1E095c205Bd202C29541e70",
      "gasPrice": {
        "_hex": "0xd71d360c2"
      },
      "gasLimit": {
        "_hex": "0x15f90"
      },
      "to": "0xE37619a47076d668A13AB535aA1c01E8a32541EF",
      "value": {
        "_hex": "0x68155a43676e0000"
      },
      "nonce": 6,
      "data": "0x",
      "r": "0x86a9e9e82248a745f80744be4af446b5aa9145883ea267bf6a7c5e3823ab8b86",
      "s": "0x7acbafaf0f96a0e4066336fb93e7f5af85b6945ae1f373ec7da7c19c5bc07de7",
      "v": 27,
      "creates": null,
      "raw": "0xf86d06850d71d360c283015f9094e37619a47076d668a13ab535aa1c01e8a32541ef8868155a43676e0000801ba086a9e9e82248a745f80744be4af446b5aa9145883ea267bf6a7c5e3823ab8b86a07acbafaf0f96a0e4066336fb93e7f5af85b6945ae1f373ec7da7c19c5bc07de7",
      "networkId": 0,
      "chainId": 0
    }
  ]
}