{
  "hash": "0xe7415f2a66e4d9749a5b00a322b6118e8e0cb2f5f8b4389b92b569e086690ef7",
  "parentHash": "0x97df060b906070e6d9e6370aa9c1424497387db52fdf37d31df1993dd6252eeb",
  "number": 56475,
  "timestamp": 1439087797,
  "nonce": "0xb1a209a084624f00",
  "difficulty": 1660116369423,
  "gasLimit": {
    "_hex": "0x2fefd8"
  },
  "gasUsed": {
    "_hex": "0x5208"
  },
  "miner": "0xf927a40C8B7F6E07c5af7FA2155B4864a4112B13",
  "extraData": "0x476574682f76312e302e312f6c696e75782f676f312e342e32",
  "transactions": [
    {
      "hash": "0xbda41d4dbd46975f01178584af4b1368bfcdc44f73d60da7db6362e982421f00",
      "blockHash": "0xe7415f2a66e4d9749a5b00a322b6118e8e0cb2f5f8b4389b92b569e086690ef7",
      "blockNumber": 56475,
      "transactionIndex": 0,
      "confirmations": null,
      "from": "0xB6AC12CefF0375Da80503AcCa54bf3061Fa917a8",
      "gasPrice": {
        "_hex": "0xdb76bec5b"
      },
      "gasLimit": {
        "_hex": "0x15f90"
      },
      "to": "0x5fF827e73C5B866c300b824fe12719a3DD350513",
      "value": {
        "_hex": "0x98a7d9b8314c0000"
      },
      "nonce": 0,
      "data": "0x",
      "r": "0x4ba417dbe62ca2e8fdaa0c0ad445e3929ab6f38dd28015f3419ce4a875a4cf75",
      "s": "0x51c834f461a5878de88ffe5a5a17e932856a4e2d9382fbfa7f9924fef352afb6",
      "v": 27,
      "creates": null,
      "raw": "0xf86d80850db76bec5b83015f90945ff827e73c5b866c300b824fe12719a3dd3505138898a7d9b8314c0000801ba04ba417dbe62ca2e8fdaa0c0ad445e3929ab6f38dd28015f3419ce4a875a4cf75a051c834f461a5878de88ffe5a5a17e932856a4e2d9382fbfa7f9924fef352afb6",
      "networkId": 0,
      "chainId": 0
    }
  ]
}