{
  "hash": "0x58fb0ddeff253c91182cfada63a36f619d4178cf3ff63eaeaf1c48f877616fe9",
  "parentHash": "0xe47ed87a242dfbe74693754ae1184f4d52509b89fa3f3bac155c6661e683dd19",
  "number": 68498,
  "timestamp": 1439288879,
  "nonce": "0xc15ac8737dd46626",
  "difficulty": 2010383615820,
  "gasLimit": {
    "_hex": "0x2fefd8"
  },
  "gasUsed": {
    "_hex": "0x12ea94"
  },
  "miner": "0x70137010922f2fC2964b3792907F79FBB75fEbe8",
  "extraData": "0x476574682f76312e302e302f6c696e75782f676f312e342e32",
  "transactions": [
    {
      "hash": "0xd28f04b1a66618e69ca5ad1bf003a68e83828f8b7564b79d17546d2f674374e1",
      "blockHash": "0x58fb0ddeff253c91182cfada63a36f619d4178cf3ff63eaeaf1c48f877616fe9",
      "blockNumber": 68498,
      "transactionIndex": 0,
      "confirmations": null,
      "from": "0x892B070d2E947ea7538CD1387842F4043Bbd6A6c",
      "gasPrice": {
        "_hex": "0xba43b7400"
      },
      "gasLimit": {
        "_hex": "0x15f90"
      },
      "to": "0x793AE8C1b1a160BFc07BFB0d04F85eab1A71F4f2",
      "value": {
        "_hex": "0x0"
      },
      "nonce": 0,
      "data": "0x3ba15036",
      "r": "0xddce81d85285950ecdee65591b7ac6b3ae77d1e04cc455d6b2c7852e3afb8f8c",
      "s": "0x1886a357f3506615cc2fe9d1ce14d584c77144f4ff237cbdbb1c470f825089fa",
      "v": 27,
      "creates": null,
      "raw": "0xf86980850ba43b740083015f9094793ae8c1b1a160bfc07bfb0d04f85eab1a71f4f280843ba150361ba0ddce81d85285950ecdee65591b7ac6b3ae77d1e04cc455d6b2c7852e3afb8f8ca01886a357f3506615cc2fe9d1ce14d584c77144f4ff237cbdbb1c470f825089fa",
      "networkId": 0,
      "chainId": 0
    },
    {
      "hash": "0x2c4d47adc8bf5cba629b6a5bb48d47d9d1dd8e23a8b5656de4a7ec3f452c8f1e",
      "blockHash": "0x58fb0ddeff253c91182cfada63a36f619d4178cf3ff63eaeaf1c48f877616fe9",
      "blockNumber": 68498,
      "transactionIndex": 1,
      "confirmations": null,
      "from": "0x2a1BfdD1aE784B85c35Efb1Eed77571220C3c174",
      "gasPrice": {
        "_hex": "0xba43b7400"
      },
      "gasLimit": {
        "_hex": "0x15f90"
      },
      "to": "0x793AE8C1b1a160BFc07BFB0d04F85eab1A71F4f2",
      "value": {
        "_hex": "0x0"
      },
      "nonce": 0,
      "data": "0x3ba15036",
      "r": "0xb38630944b8fc99a79fd0c19c7908498e8a99deebc9c23ad7c764fa9d4b4cefc",
      "s": "0x1f3398e00982c40d08b9e00173b8ddde2c8c8a9b9a7b7571855eaee64437b117",
      "v": 28,
      "creates": null,
      "raw": "0xf86980850ba43b740083015f9094793ae8c1b1a160bfc07bfb0d04f85eab1a71f4f280843ba150361ca0b38630944b8fc99a79fd0c19c7908498e8a99deebc9c23ad7c764fa9d4b4cefca01f3398e00982c40d08b9e00173b8ddde2c8c8a9b9a7b7571855eaee64437b117",
      "networkId": 0,
      "chainId": 0
    },
    {
      "hash": "0xac43576680df0f51f41d8688d6bbbbabb91d80de526994620d6846eb85721a9c",
      "blockHash": "0x58fb0ddeff253c91182cfada63a36f619d4178cf3ff63eaeaf1c48f877616fe9",
      "blockNumber": 68498,
      "transactionIndex": 2,
      "confirmations": null,
      "from": "0xB994F4c4b5eAA3B11d1469b72d9F00694825DCe6",
      "gasPrice": {
        "_hex": "0xba43b7400"
      },
      "gasLimit": {
        "_hex": "0x15f90"
      },
      "to": "0x793AE8C1b1a160BFc07BFB0d04F85eab1A71F4f2",
      "value": {
        "_hex": "0x0"
      },
      "nonce": 0,
      "data": "0x3ba15036",
      "r": "0x074e42a27584e4521c1f94227b9ba38e87368523197c7d10597768140c385758",
      "s": "0x7dbdf1e0169b63e4298094ba427012dbc2ef912509c64d9bf7f56b0e07460ac9",
      "v": 27,
      "creates": null,
      "raw": "0xf86980850ba43b740083015f9094793ae8c1b1a160bfc07bfb0d04f85eab1a71f4f280843ba150361ba0074e42a27584e4521c1f94227b9ba38e87368523197c7d10597768140c385758a07dbdf1e0169b63e4298094ba427012dbc2ef912509c64d9bf7f56b0e07460ac9",
      "networkId": 0,
      "chainId": 0
    },
    {
      "hash": "0xbeae72179a945da7f7c3702215ca38df15cf9065173b4163bf5060e32e1a8577",
      "blockHash": "0x58fb0ddeff253c91182cfada63a36f619d4178cf3ff63eaeaf1c48f877616fe9",
      "blockNumber": 68498,
      "transactionIndex": 3,
      "confirmations": null,
      "from": "0x9bFAB56856DBf8EC5A00C61D9B0664543A5573e7",
      "gasPrice": {
        "_hex": "0xba43b7400"
      },
      "gasLimit": {
        "_hex": "0x15f90"
      },
      "to": "0x793AE8C1b1a160BFc07BFB0d04F85eab1A71F4f2",
      "value": {
        "_hex": "0x0"
      },
      "nonce": 0,
      "data": "0x3ba15036",
      "r": "0x9748d0020f3116a49674c9a3e87b74ecec9d4eb12ed638f834de3a1f66c9ee37",
      "s": "0x07286b22338327d6a5a4361dc69ca03a8b192d2ba631460c61cb83e78f92d4df",
      "v": 28,
      "creates": null,
      "raw": "0xf86980850ba43b740083015f9094793ae8c1b1a160bfc07bfb0d04f85eab1a71f4f280843ba150361ca09748d0020f3116a49674c9a3e87b74ecec9d4eb12ed638f834de3a1f66c9ee37a007286b22338327d6a5a4361dc69ca03a8b192d2ba631460c61cb83e78f92d4df",
      "networkId": 0,
      "chainId": 0
    },
    {
      "hash": "0xf66297348f3f903d70ad3c25d322b8fc6cfaef74b53628bfaa9b0514d7560473",
      "blockHash": "0x58fb0ddeff253c91182cfada63a36f619d4178cf3ff63eaeaf1c48f877616fe9",
      "blockNumber": 68498,
      "transactionIndex": 4,
      "confirmations": null,
      "from": "0xA295477b1e73B9BE97f78c726dC54126fD8F1E47",
      "gasPrice": {
        "_hex": "0xba43b7400"
      },
      "gasLimit": {
        "_hex": "0x15f90"
      },
      "to": "0x793AE8C1b1a160BFc07BFB0d04F85eab1A71F4f2",
      "value": {
        "_hex": "0x0"
      },
      "nonce": 0,
      "data": "0x3ba15036",
      "r": "0x43af866eafc57d5239a30a3d1d683889d2d3f9b9471d5e8f9e8751e67c210e7b",
      "s": "0x26affdf98ebcb16138ae2734aaa0fa59cffce6f0a8ca968143734d86022debb6",
      "v": 27,
      "creates": null,
      "raw": "0xf86980850ba43b740083015f9094793ae8c1b1a160bfc07bfb0d04f85eab1a71f4f280843ba150361ba043af866eafc57d5239a30a3d1d683889d2d3f9b9471d5e8f9e8751e67c210e7ba026affdf98ebcb16138ae2734aaa0fa59cffce6f0a8ca968143734d86022debb6",
      "networkId": 0,
      "chainId": 0
    },
    {
      "hash": "0xa35d3bce097adea76b24c1c3caa948b63cc90f9df83fa7afd9bce419b472ef72",
      "blockHash": "0x58fb0ddeff253c91182cfada63a36f619d4178cf3ff63eaeaf1c48f877616fe9",
      "blockNumber": 68498,
      "transactionIndex": 5,
      "confirmations": null,
      "from": "0xf9dE08Da8f12a78c43a44d6e06eE83fb98E2af93",
      "gasPrice": {
        "_hex": "0xba43b7400"
      },
      "gasLimit": {
        "_hex": "0x15f90"
      },
      "to": "0x793AE8C1b1a160BFc07BFB0d04F85eab1A71F4f2",
      "value": {
        "_hex": "0x0"
      },
      "nonce": 0,
      "data": "0x3ba15036",
      "r": "0x15bee98f91f196250189e84e001274e29902328777f7979b26c7938d1e68c0b8",
      "s": "0x3fefb07a4b72a347d78ed707b2887088b1e53a5674fb88d6b6519bb487fd2d15",
      "v": 28,
      "creates": null,
      "raw": "0xf86980850ba43b740083015f9094793ae8c1b1a160bfc07bfb0d04f85eab1a71f4f280843ba150361ca015bee98f91f196250189e84e001274e29902328777f7979b26c7938d1e68c0b8a03fefb07a4b72a347d78ed707b2887088b1e53a5674fb88d6b6519bb487fd2d15",
      "networkId": 0,
      "chainId": 0
    },
    {
      "hash": "0x262c8e242de30f862e2aefe44ec1136a52303b18d6b2cf48435d000f5ffaa438",
      "blockHash": "0x58fb0ddeff253c91182cfada63a36f619d4178cf3ff63eaeaf1c48f877616fe9",
      "blockNumber": 68498,
      "transactionIndex": 6,
      "confirmations": null,
      "from": "0x8749f57068557fd510fcF6F822C3045d2af0b629",
      "gasPrice": {
        "_hex": "0xba43b7400"
      },
      "gasLimit": {
        "_hex": "0x15f90"
      },
      "to": "0x793AE8C1b1a160BFc07BFB0d04F85eab1A71F4f2",
      "value": {
        "_hex": "0x0"
      },
      "nonce": 0,
      "data": "0x3ba15036",
      "r": "0xf5e462af56bca95c14f395bf5c24b7a4a0e7c1e3fbd373055629203d9ae2740c",
      "s": "0x6bb579b6bcb661bd6608843ea8ad90340b3e226de7ef1b229a30e8656d572f48",
      "v": 27,
      "creates": null,
      "raw": "0xf86980850ba43b740083015f9094793ae8c1b1a160bfc07bfb0d04f85eab1a71f4f280843ba150361ba0f5e462af56bca95c14f395bf5c24b7a4a0e7c1e3fbd373055629203d9ae2740ca06bb579b6bcb661bd6608843ea8ad90340b3e226de7ef1b229a30e8656d572f48",
      "networkId": 0,
      "chainId": 0
    },
    {
      "hash": "0x85ab00ff12bc3043dc0952dc3a43c9471cd37ad2fc570d884421916dfeabdbeb",
      "blockHash": "0x58fb0ddeff253c91182cfada63a36f619d4178cf3ff63eaeaf1c48f877616fe9",
      "blockNumber": 68498,
      "transactionIndex": 7,
      "confirmations": null,
      "from": "0xC861AC336241059Eeda457b29ad91d80555AF4f5",
      "gasPrice": {
        "_hex": "0xba43b7400"
      },
      "gasLimit": {
        "_hex": "0x15f90"
      },
      "to": "0x793AE8C1b1a160BFc07BFB0d04F85eab1A71F4f2",
      "value": {
        "_hex": "0x0"
      },
      "nonce": 0,
      "data": "0x3ba15036",
      "r": "0x183ef3696520bc918a04617f45a695b799d04b7d13fea9f445332c78737f265f",
      "s": "0x1663571c858d5154685b111d60e8592f60fde0791d55038da63789fd3c0b1162",
      "v": 28,
      "creates": null,
      "raw": "0xf86980850ba43b740083015f9094793ae8c1b1a160bfc07bfb0d04f85eab1a71f4f280843ba150361ca0183ef3696520bc918a04617f45a695b799d04b7d13fea9f445332c78737f265fa01663571c858d5154685b111d60e8592f60fde0791d55038da63789fd3c0b1162",
      "networkId": 0,
      "chainId": 0
    },
    {
      "hash": "0x6f2a20e50bf08fa1f89e5da3055c09ff30e4e10f8c4beae7bd95bf35bcc936f3",
      "blockHash": "0x58fb0ddeff253c91182cfada63a36f619d4178cf3ff63eaeaf1c48f877616fe9",
      "blockNumber": 68498,
      "transactionIndex": 8,
      "confirmations": null,
      "from": "0x4009c00888E5f60a97aE086Dd460c0eC184a8E20",
      "gasPrice": {
        "_hex": "0xba43b7400"
      },
      "gasLimit": {
        "_hex": "0x15f90"
      },
      "to": "0x793AE8C1b1a160BFc07BFB0d04F85eab1A71F4f2",
      "value": {
        "_hex": "0x0"
      },
      "nonce": 0,
      "data": "0x3ba15036",
      "r": "0xff93145faa5e0836722572a189a3c8e075d13260993f1f340b5849035579661d",
      "s": "0x3472e19525c4c2ec62e4dcb5aafafb53d0ded0b98114111d9dc0252aaab8fcdd",
      "v": 28,
      "creates": null,
      "raw": "0xf86980850ba43b740083015f9094793ae8c1b1a160bfc07bfb0d04f85eab1a71f4f280843ba150361ca0ff93145faa5e0836722572a189a3c8e075d13260993f1f340b5849035579661da03472e19525c4c2ec62e4dcb5aafafb53d0ded0b98114111d9dc0252aaab8fcdd",
      "networkId": 0,
      "chainId": 0
    },
    {
      "hash": "0x6755ae936c1bea6ab1d236498d2c417d40a17375d1fd0eda1486dc1a13430ce3",
      "blockHash": "0x58fb0ddeff253c91182cfada63a36f619d4178cf3ff63eaeaf1c48f877616fe9",
      "blockNumber": 68498,
      "transactionIndex": 9,
      "confirmations": null,
      "from": "0x835358639D25707FC1C956B234368e6B84A1D73E",
      "gasPrice": {
        "_hex": "0xba43b7400"
      },
      "gasLimit": {
        "_hex": "0x15f90"
      },
      "to": "0x793AE8C1b1a160BFc07BFB0d04F85eab1A71F4f2",
      "value": {
        "_hex": "0x0"
      },
      "nonce": 0,
      "data": "0x3ba15036",
      "r": "0x712c57d3c34fdc6288422b9ec90eca80a83710ed0bc676daf1b9fdfa0ba06612",
      "s": "0x0cb35ff62952e91347bfa671f53f00a142dbc5d57e09d2cfe9ae5dcc7b9c08b5",
      "v": 28,
      "creates": null,
      "raw": "0xf86980850ba43b740083015f9094793ae8c1b1a160bfc07bfb0d04f85eab1a71f4f280843ba150361ca0712c57d3c34fdc6288422b9ec90eca80a83710ed0bc676daf1b9fdfa0ba06612a00cb35ff62952e91347bfa671f53f00a142dbc5d57e09d2cfe9ae5dcc7b9c08b5",
      "networkId": 0,
      "chainId": 0
    },
    {
      "hash": "0x7758c8a00b24f97952bd219428d1b43b804e55a4c09fd3d335c813b837543399",
      "blockHash": "0x58fb0ddeff253c91182cfada63a36f619d4178cf3ff63eaeaf1c48f877616fe9",
      "blockNumber": 68498,
      "transactionIndex": 10,
      "confirmations": null,
      "from": "0xEE37E31bD888eCb4a3705ca9A3085EeC654f1121",
      "gasPrice": {
        "_hex": "0xba43b7400"
      },
      "gasLimit": {
        "_hex": "0x15f90"
      },
      "to": "0x793AE8C1b1a160BFc07BFB0d04F85eab1A71F4f2",
      "value": {
        "_hex": "0x0"
      },
      "nonce": 0,
      "data": "0x3ba15036",
      "r": "0xe38f50f2286eb568428cf4e203bfc4ee9c6a38c376c3812f216fa2f8f6b378df",
      "s": "0x5283382bc14c7a2cff549de345caa6dd1cdb067af79d3ba95253218641ddbae0",
      "v": 27,
      "creates": null,
      "raw": "0xf86980850ba43b740083015f9094793ae8c1b1a160bfc07bfb0d04f85eab1a71f4f280843ba150361ba0e38f50f2286eb568428cf4e203bfc4ee9c6a38c376c3812f216fa2f8f6b378dfa05283382bc14c7a2cff549de345caa6dd1cdb067af79d3ba95253218641ddbae0",
      "networkId": 0,
      "chainId": 0
    },
    {
      "hash": "0x66dd5fbbdab285e6c3e401450b3cee653080776aaf1d631fe592c839a3648c0b",
      "blockHash": "0x58fb0ddeff253c91182cfada63a36f619d4178cf3ff63eaeaf1c48f877616fe9",
      "blockNumber": 68498,
      "transactionIndex": 11,
      "confirmations": null,
      "from": "0xE70bb002A9A312478bB1C044ca5C3f36CBAa1D89",
      "gasPrice": {
        "_hex": "0xba43b7400"
      },
      "gasLimit": {
        "_hex": "0x15f90"
      },
      "to": "0x793AE8C1b1a160BFc07BFB0d04F85eab1A71F4f2",
      "value": {
        "_hex": "0x0"
      },
      "nonce": 0,
      "data": "0x3ba15036",
      "r": "0x633e27b54795c48148e2c966f297baabebe10f818a57838f60c6d7ed0eaec3e9",
      "s": "0x503ac12aa595961f211140e2146cd25bde599706dee7b9a39de8aa3537ab4be7",
      "v": 27,
      "creates": null,
      "raw": "0xf86980850ba43b740083015f9094793ae8c1b1a160bfc07bfb0d04f85eab1a71f4f280843ba150361ba0633e27b54795c48148e2c966f297baabebe10f818a57838f60c6d7ed0eaec3e9a0503ac12aa595961f211140e2146cd25bde599706dee7b9a39de8aa3537ab4be7",
      "networkId": 0,
      "chainId": 0
    },
    {
      "hash": "0x7726e092edcc6358992e6d77ce19ce000a0819aaadaccbd9af5d29ea79af402e",
      "blockHash": "0x58fb0ddeff253c91182cfada63a36f619d4178cf3ff63eaeaf1c48f877616fe9",
      "blockNumber": 68498,
      "transactionIndex": 12,
      "confirmations": null,
      "from": "0x434175690Dd817721A174A211911497d7714d282",
      "gasPrice": {
        "_hex": "0xba43b7400"
      },
      "gasLimit": {
        "_hex": "0x15f90"
      },
      "to": "0x793AE8C1b1a160BFc07BFB0d04F85eab1A71F4f2",
      "value": {
        "_hex": "0x0"
      },
      "nonce": 0,
      "data": "0x3ba15036",
      "r": "0xe5fcaabae017da814ef43be345aea218e580d8ea69ac2ffec1e5e6305f4abc08",
      "s": "0x53d5e9ddc9d54aed5c1629e3ffe8e361e4fa066bbfac3ceabe8b7cd78646c692",
      "v": 28,
      "creates": null,
      "raw": "0xf86980850ba43b740083015f9094793ae8c1b1a160bfc07bfb0d04f85eab1a71f4f280843ba150361ca0e5fcaabae017da814ef43be345aea218e580d8ea69ac2ffec1e5e6305f4abc08a053d5e9ddc9d54aed5c1629e3ffe8e361e4fa066bbfac3ceabe8b7cd78646c692",
      "networkId": 0,
      "chainId": 0
    },
    {
      "hash": "0x113fe16d853981ad09906a781baf2579499bfa07ec894b5aae94d4391f531777",
      "blockHash": "0x58fb0ddeff253c91182cfada63a36f619d4178cf3ff63eaeaf1c48f877616fe9",
      "blockNumber": 68498,
      "transactionIndex": 13,
      "confirmations": null,
      "from": "0x119b7AF8e98b1F44903373A62cB28aeB0a9BB72D",
      "gasPrice": {
        "_hex": "0xba43b7400"
      },
      "gasLimit": {
        "_hex": "0x15f90"
      },
      "to": "0x793AE8C1b1a160BFc07BFB0d04F85eab1A71F4f2",
      "value": {
        "_hex": "0x0"
      },
      "nonce": 0,
      "data": "0x3ba15036",
      "r": "0xe9c7a651bb4d91b33bef74d38fb6bfd1a2f95c5d235d9012e39836cedb0c2c21",
      "s": "0x16d8cb367f9d06656047c6643d09ba6f9cd6a45603216163cf45db8a6bc41f17",
      "v": 27,
      "creates": null,
      "raw": "0xf86980850ba43b740083015f9094793ae8c1b1a160bfc07bfb0d04f85eab1a71f4f280843ba150361ba0e9c7a651bb4d91b33bef74d38fb6bfd1a2f95c5d235d9012e39836cedb0c2c21a016d8cb367f9d06656047c6643d09ba6f9cd6a45603216163cf45db8a6bc41f17",
      "networkId": 0,
      "chainId": 0
    },
    {
      "hash": "0x68c033bf880bb4d9f9f1573add69159bfaa018e1297402b691f15d0d43c035ab",
      "blockHash": "0x58fb0ddeff253c91182cfada63a36f619d4178cf3ff63eaeaf1c48f877616fe9",
      "blockNumber": 68498,
      "transactionIndex": 14,
      "confirmations": null,
      "from": "0x1eBE6170Dd18E865a74a13eadb89e3F21E2D774e",
      "gasPrice": {
        "_hex": "0xba43b7400"
      },
      "gasLimit": {
        "_hex": "0x15f90"
      },
      "to": "0x793AE8C1b1a160BFc07BFB0d04F85eab1A71F4f2",
      "value": {
        "_hex": "0x0"
      },
      "nonce": 0,
      "data": "0x3ba15036",
      "r": "0x02ad161a0936ef911b8c420fbc1fd3992f3356467ccb02b7df57bbd7e9efc216",
      "s": "0x6b8ac7d688cd5b5b00a07b07c4bf4bc60a7acaf274a7f9b14d4e013557ba8a7a",
      "v": 27,
      "creates": null,
      "raw": "0xf86980850ba43b740083015f9094793ae8c1b1a160bfc07bfb0d04f85eab1a71f4f280843ba150361ba002ad161a0936ef911b8c420fbc1fd3992f3356467ccb02b7df57bbd7e9efc216a06b8ac7d688cd5b5b00a07b07c4bf4bc60a7acaf274a7f9b14d4e013557ba8a7a",
      "networkId": 0,
      "chainId": 0
    },
    {
      "hash": "0x91ed9c6617bf9b56fd048b13761ff71b1e263873670db7d91313f0076f32d98f",
      "blockHash": "0x58fb0ddeff253c91182cfada63a36f619d4178cf3ff63eaeaf1c48f877616fe9",
      "blockNumber": 68498,
      "transactionIndex": 15,
      "confirmations": null,
      "from": "0xC3d8FD925aBd21f3EDDeE6fC1afaA4513275E8C2",
      "gasPrice": {
        "_hex": "0xba43b7400"
      },
      "gasLimit": {
        "_hex": "0x15f90"
      },
      "to": "0x793AE8C1b1a160BFc07BFB0d04F85eab1A71F4f2",
      "value": {
        "_hex": "0x0"
      },
      "nonce": 0,
      "data": "0x3ba15036",
      "r": "0x40aeaa9ac739bbba486d27a6000bc4c7db6ba8ac82d5e2d741be43a3cef640f3",
      "s": "0x025fcc7aee2f8d45b5058e7262f12745fc2a38ed83aefecc60139b1deb337eaa",
      "v": 28,
      "creates": null,
      "raw": "0xf86980850ba43b740083015f9094793ae8c1b1a160bfc07bfb0d04f85eab1a71f4f280843ba150361ca040aeaa9ac739bbba486d27a6000bc4c7db6ba8ac82d5e2d741be43a3cef640f3a0025fcc7aee2f8d45b5058e7262f12745fc2a38ed83aefecc60139b1deb337eaa",
      "networkId": 0,
      "chainId": 0
    },
    {
      "hash": "0x260442627b22bdc5a304e108903dd99e032fc949f15f738b88f1044e49c3e3b7",
      "blockHash": "0x58fb0ddeff253c91182cfada63a36f619d4178cf3ff63eaeaf1c48f877616fe9",
      "blockNumber": 68498,
      "transactionIndex": 16,
      "confirmations": null,
      "from": "0x9155044B423550B75dEc825d4907f165604EcD96",
      "gasPrice": {
        "_hex": "0xba43b7400"
      },
      "gasLimit": {
        "_hex": "0x15f90"
      },
      "to": "0x793AE8C1b1a160BFc07BFB0d04F85eab1A71F4f2",
      "value": {
        "_hex": "0x0"
      },
      "nonce": 0,
      "data": "0x3ba15036",
      "r": "0x67d7316197400db563c12e904d5fcece52ce900883befd65f532c3ef0e418866",
      "s": "0x3225ea4ff9bda490c8528bedcdfbe9c0437d5b2dafa7c18c9a9696b91aacd785",
      "v": 28,
      "creates": null,
      "raw": "0xf86980850ba43b740083015f9094793ae8c1b1a160bfc07bfb0d04f85eab1a71f4f280843ba150361ca067d7316197400db563c12e904d5fcece52ce900883befd65f532c3ef0e418866a03225ea4ff9bda490c8528bedcdfbe9c0437d5b2dafa7c18c9a9696b91aacd785",
      "networkId": 0,
      "chainId": 0
    },
    {
      "hash": "0x8022877b211f0b2742ea47a154b963c5d6364caadbd0a4064b7fd23d513cb7fa",
      "blockHash": "0x58fb0ddeff253c91182cfada63a36f619d4178cf3ff63eaeaf1c48f877616fe9",
      "blockNumber": 68498,
      "transactionIndex": 17,
      "confirmations": null,
      "from": "0x8c0A7EcC685daE69b125a6Afdd33726299728fAD",
      "gasPrice": {
        "_hex": "0xba43b7400"
      },
      "gasLimit": {
        "_hex": "0x15f90"
      },
      "to": "0x793AE8C1b1a160BFc07BFB0d04F85eab1A71F4f2",
      "value": {
        "_hex": "0x0"
      },
      "nonce": 0,
      "data": "0x3ba15036",
      "r": "0x7b82a2946bc74b692f49b738b42e0cca7232e84b8e763017ebf971bd00cd21da",
      "s": "0x6590158422ece9f3dfaa43966d52c65669ee64d3a69294264747e546e06fcf83",
      "v": 27,
      "creates": null,
      "raw": "0xf86980850ba43b740083015f9094793ae8c1b1a160bfc07bfb0d04f85eab1a71f4f280843ba150361ba07b82a2946bc74b692f49b738b42e0cca7232e84b8e763017ebf971bd00cd21daa06590158422ece9f3dfaa43966d52c65669ee64d3a69294264747e546e06fcf83",
      "networkId": 0,
      "chainId": 0
    },
    {
      "hash": "0x950b861dc05d48f02baaa0cc248ab6ff6906882d6b882f261ff6ce0313dbae23",
      "blockHash": "0x58fb0ddeff253c91182cfada63a36f619d4178cf3ff63eaeaf1c48f877616fe9",
      "blockNumber": 68498,
      "transactionIndex": 18,
      "confirmations": null,
      "from": "0xa0563131B6F8343513Aff2B3AE336C325aA67f89",
      "gasPrice": {
        "_hex": "0xba43b7400"
      },
      "gasLimit": {
        "_hex": "0x15f90"
      },
      "to": "0x793AE8C1b1a160BFc07BFB0d04F85eab1A71F4f2",
      "value": {
        "_hex": "0x0"
      },
      "nonce": 0,
      "data": "0x3ba15036",
      "r": "0x1c92e6f9e000d72f6d685629189da1cf6dfb75e23f39dbf42207cad16db7335d",
      "s": "0x1cb90705ef3a878559c55c61c4ce280a8d5b454fdc85f7b0258113d91079c9fa",
      "v": 28,
      "creates": null,
      "raw": "0xf86980850ba43b740083015f9094793ae8c1b1a160bfc07bfb0d04f85eab1a71f4f280843ba150361ca01c92e6f9e000d72f6d685629189da1cf6dfb75e23f39dbf42207cad16db7335da01cb90705ef3a878559c55c61c4ce280a8d5b454fdc85f7b0258113d91079c9fa",
      "networkId": 0,
      "chainId": 0
    },
    {
      "hash": "0x68d40497cdb09b158e528f476f396a51f48db84bfebac3c6b1cf8a726fb074e4",
      "blockHash": "0x58fb0ddeff253c91182cfada63a36f619d4178cf3ff63eaeaf1c48f877616fe9",
      "blockNumber": 68498,
      "transactionIndex": 19,
      "confirmations": null,
      "from": "0x36893Eaa3BCFBfF9dA472cF38d82c80bdAEc7F04",
      "gasPrice": {
        "_hex": "0xba43b7400"
      },
      "gasLimit": {
        "_hex": "0x15f90"
      },
      "to": "0x793AE8C1b1a160BFc07BFB0d04F85eab1A71F4f2",
      "value": {
        "_hex": "0x0"
      },
      "nonce": 0,
      "data": "0x3ba15036",
      "r": "0x8c6ba5416b29bd71b00ac5cb43e52e536519e43ab0db52731514fc8d233f4a25",
      "s": "0x5c3d5465a03ddeccc86d6921d38d272df0660545071cd7440c0cca165f43ac2b",
      "v": 27,
      "creates": null,
      "raw": "0xf86980850ba43b740083015f9094793ae8c1b1a160bfc07bfb0d04f85eab1a71f4f280843ba150361ba08c6ba5416b29bd71b00ac5cb43e52e536519e43ab0db52731514fc8d233f4a25a05c3d5465a03ddeccc86d6921d38d272df0660545071cd7440c0cca165f43ac2b",
      "networkId": 0,
      "chainId": 0
    },
    {
      "hash": "0xd4457877dbc3e0e3b1218bd5406e174dbcb854711f84dffa464a341a66ce8571",
      "blockHash": "0x58fb0ddeff253c91182cfada63a36f619d4178cf3ff63eaeaf1c48f877616fe9",
      "blockNumber": 68498,
      "transactionIndex": 20,
      "confirmations": null,
      "from": "0x4a17DA8eD09F59309A0749645A9dCcaDE7a7616F",
      "gasPrice": {
        "_hex": "0xba43b7400"
      },
      "gasLimit": {
        "_hex": "0x15f90"
      },
      "to": "0x793AE8C1b1a160BFc07BFB0d04F85eab1A71F4f2",
      "value": {
        "_hex": "0x0"
      },
      "nonce": 0,
      "data": "0x3ba15036",
      "r": "0xa08ec952751bbfc1e11a50703a2e847ac3b1fad40db1a7b36474c13e9843455f",
      "s": "0x460dad0a5e79f11dda55a9f0fca6bc25ebe46a3bba3a061549effd1a319a7258",
      "v": 28,
      "creates": null,
      "raw": "0xf86980850ba43b740083015f9094793ae8c1b1a160bfc07bfb0d04f85eab1a71f4f280843ba150361ca0a08ec952751bbfc1e11a50703a2e847ac3b1fad40db1a7b36474c13e9843455fa0460dad0a5e79f11dda55a9f0fca6bc25ebe46a3bba3a061549effd1a319a7258",
      "networkId": 0,
      "chainId": 0
    },
    {
      "hash": "0x68bb4e94b53e8a5ae9962c7a25e1914ea6bf07eaca2edc694afeb2057df95bd3",
      "blockHash": "0x58fb0ddeff253c91182cfada63a36f619d4178cf3ff63eaeaf1c48f877616fe9",
      "blockNumber": 68498,
      "transactionIndex": 21,
      "confirmations": null,
      "from": "0xE3EB58E02c4E8D5CB78a7c1a2329aB613711999f",
      "gasPrice": {
        "_hex": "0xba43b7400"
      },
      "gasLimit": {
        "_hex": "0x15f90"
      },
      "to": "0x793AE8C1b1a160BFc07BFB0d04F85eab1A71F4f2",
      "value": {
        "_hex": "0x0"
      },
      "nonce": 0,
      "data": "0x3ba15036",
      "r": "0xbb2440a13e3d7c0fbbda770f04fbffb09027cf758a306026d2b8e6830996517c",
      "s": "0x176f6e0217964929589c79cad834b166fe7cbff1e88acff4c43ec3b95c9d862d",
      "v": 28,
      "creates": null,
      "raw": "0xf86980850ba43b740083015f9094793ae8c1b1a160bfc07bfb0d04f85eab1a71f4f280843ba150361ca0bb2440a13e3d7c0fbbda770f04fbffb09027cf758a306026d2b8e6830996517ca0176f6e0217964929589c79cad834b166fe7cbff1e88acff4c43ec3b95c9d862d",
      "networkId": 0,
      "chainId": 0
    },
    {
      "hash": "0x361a617050cf5b920ad8c440b88d467e06a0527d1ab38ae19fa7230fc1e3fd3b",
      "blockHash": "0x58fb0ddeff253c91182cfada63a36f619d4178cf3ff63eaeaf1c48f877616fe9",
      "blockNumber": 68498,
      "transactionIndex": 22,
      "confirmations": null,
      "from": "0x95da327A5395BF3cB2320AddBb6dF56Ddd24DF13",
      "gasPrice": {
        "_hex": "0xba43b7400"
      },
      "gasLimit": {
        "_hex": "0x15f90"
      },
      "to": "0x793AE8C1b1a160BFc07BFB0d04F85eab1A71F4f2",
      "value": {
        "_hex": "0x0"
      },
      "nonce": 0,
      "data": "0x3ba15036",
      "r": "0x8828da7f0f4fc19b09aaec38f8a5f0ff10837bbdf635b42358fe5a124b4b7af8",
      "s": "0x2930ce9b864e4334969c114b3b79b0de8be62ad19b0306ce122cc3f964db846e",
      "v": 27,
      "creates": null,
      "raw": "0xf86980850ba43b740083015f9094793ae8c1b1a160bfc07bfb0d04f85eab1a71f4f280843ba150361ba08828da7f0f4fc19b09aaec38f8a5f0ff10837bbdf635b42358fe5a124b4b7af8a02930ce9b864e4334969c114b3b79b0de8be62ad19b0306ce122cc3f964db846e",
      "networkId": 0,
      "chainId": 0
    },
    {
      "hash": "0x679d2d75d6db1fdc059fb1f660d0704797c88aa4f260da0d1ae78a5e6a22a38e",
      "blockHash": "0x58fb0ddeff253c91182cfada63a36f619d4178cf3ff63eaeaf1c48f877616fe9",
      "blockNumber": 68498,
      "transactionIndex": 23,
      "confirmations": null,
      "from": "0x6F46E2353028A6EE46c11437324E394F60c53bE8",
      "gasPrice": {
        "_hex": "0xba43b7400"
      },
      "gasLimit": {
        "_hex": "0x15f90"
      },
      "to": "0x793AE8C1b1a160BFc07BFB0d04F85eab1A71F4f2",
      "value": {
        "_hex": "0x0"
      },
      "nonce": 0,
      "data": "0x3ba15036",
      "r": "0xbb48e2088944b124b827a4d033e73f3592423fc1b2e69392f311f0d1d46cb740",
      "s": "0x47a00c816d6bb23414d1eb8540cfb8ad6b1fd047c0861cb7ceb35940b6d3d343",
      "v": 27,
      "creates": null,
      "raw": "0xf86980850ba43b740083015f9094793ae8c1b1a160bfc07bfb0d04f85eab1a71f4f280843ba150361ba0bb48e2088944b124b827a4d033e73f3592423fc1b2e69392f311f0d1d46cb740a047a00c816d6bb23414d1eb8540cfb8ad6b1fd047c0861cb7ceb35940b6d3d343",
      "networkId": 0,
      "chainId": 0
    },
    {
      "hash": "0xdc413808f6fa43ddab94de3a0f5a504a4a96ebff7a35e31d5a3e05cc31e8f8eb",
      "blockHash": "0x58fb0ddeff253c91182cfada63a36f619d4178cf3ff63eaeaf1c48f877616fe9",
      "blockNumber": 68498,
      "transactionIndex": 24,
      "confirmations": null,
      "from": "0xc8a5864493a7a68a4B9A583b63A2D75B2411627E",
      "gasPrice": {
        "_hex": "0xba43b7400"
      },
      "gasLimit": {
        "_hex": "0x15f90"
      },
      "to": "0x793AE8C1b1a160BFc07BFB0d04F85eab1A71F4f2",
      "value": {
        "_hex": "0x0"
      },
      "nonce": 0,
      "data": "0x3ba15036",
      "r": "0x07419998ff1e99c98298719671602a6b9bc35a293571362fb3cebf17a6cd4031",
      "s": "0x36b58593ed869db5f9afb9205860676b0d12418d6d5b08ed9adb829be94fa720",
      "v": 27,
      "creates": null,
      "raw": "0xf86980850ba43b740083015f9094793ae8c1b1a160bfc07bfb0d04f85eab1a71f4f280843ba150361ba007419998ff1e99c98298719671602a6b9bc35a293571362fb3cebf17a6cd4031a036b58593ed869db5f9afb9205860676b0d12418d6d5b08ed9adb829be94fa720",
      "networkId": 0,
      "chainId": 0
    },
    {
      "hash": "0x4cb79baad32eccb342ab4a067c89cf5675f9763d35b673ad3a64ae8d9ff8a67a",
      "blockHash": "0x58fb0ddeff253c91182cfada63a36f619d4178cf3ff63eaeaf1c48f877616fe9",
      "blockNumber": 68498,
      "transactionIndex": 25,
      "confirmations": null,
      "from": "0x6747f922385c9a6F9cfDf095F34345257DD597bE",
      "gasPrice": {
        "_hex": "0xba43b7400"
      },
      "gasLimit": {
        "_hex": "0x5208"
      },
      "to": "0x6B7aBb008532E14bE7b865f87D190F05059908FF",
      "value": {
        "_hex": "0x1fcbfa42bd6000"
      },
      "nonce": 112,
      "data": "0x",
      "r": "0x5884fd88d9df652f0d08ee133a7d5fc2b2ab50072564d71c4f7d12d25c94cabf",
      "s": "0x0bb7294625abe7f90de121403649716866e79e2125ebcd86ad856f62df3032e1",
      "v": 27,
      "creates": null,
      "raw": "0xf86b70850ba43b7400825208946b7abb008532e14be7b865f87d190f05059908ff871fcbfa42bd6000801ba05884fd88d9df652f0d08ee133a7d5fc2b2ab50072564d71c4f7d12d25c94cabfa00bb7294625abe7f90de121403649716866e79e2125ebcd86ad856f62df3032e1",
      "networkId": 0,
      "chainId": 0
    }
  ]
}