{
  "hash": "0x99f7b1be52c431219a405c6c37721943af05c58de6c4e02fc2d27871ea9588a5",
  "parentHash": "0x3006d8e00d1ebadb5347cb8930756a2eddc26d44009decc7140675144baa93e0",
  "number": 71265,
  "timestamp": 1439333444,
  "nonce": "0xc8084b014fdf2ff6",
  "difficulty": 2148758518051,
  "gasLimit": {
    "_hex": "0x2fefd8"
  },
  "gasUsed": {
    "_hex": "0xaec1"
  },
  "miner": "0xbb7B8287f3F0a933474a79eAe42CBCa977791171",
  "extraData": "0x476574682f4c5649562f76312e302e312f6c696e75782f676f312e342e32",
  "transactions": [
    {
      "hash": "0x4ac4b22b2327e1ceccc2bbda132b4d5e0f19519ae6d6439c0338ed04560beff5",
      "blockHash": "0x99f7b1be52c431219a405c6c37721943af05c58de6c4e02fc2d27871ea9588a5",
      "blockNumber": 71265,
      "transactionIndex": 0,
      "confirmations": null,
      "from": "0x17580B766f7453525ca4C6A88b01b50570EA088C",
      "gasPrice": {
        "_hex": "0xd8851b6e4"
      },
      "gasLimit": {
        "_hex": "0x61a80"
      },
      "to": "0x5Fe5B7546D1628f7348B023A0393de1FC825A4fD",
      "value": {
        "_hex": "0xde0b6b3a7640000"
      },
      "nonce": 137,
      "data": "0xb595b8b50000000000000000000000000000000000000000000000000000000000000001",
      "r": "0xa203bc5f689251d8ee061209a61ef98fe35564e2c01a2eb97afd14773d45b52c",
      "s": "0x4380b07cb6b839d65fb8517aeef8dfd7f314142df512bec22eec9920485df3c9",
      "v": 27,
      "creates": null,
      "raw": "0xf8928189850d8851b6e483061a80945fe5b7546d1628f7348b023a0393de1fc825a4fd880de0b6b3a7640000a4b595b8b500000000000000000000000000000000000000000000000000000000000000011ba0a203bc5f689251d8ee061209a61ef98fe35564e2c01a2eb97afd14773d45b52ca04380b07cb6b839d65fb8517aeef8dfd7f314142df512bec22eec9920485df3c9",
      "networkId": 0,
      "chainId": 0
    }
  ]
}