{
  "hash": "0x95d87508ed3cb01e3f8331c1cc7c0b8a40cc16e10931065580b77ca7055a09ef",
  "parentHash": "0xd5453bd504e09f93659475b10de466d9bda55f2044f0d9662ce9d68b2a1eb158",
  "number": 65853,
  "timestamp": 1439243926,
  "nonce": "0x73acd373adf62005",
  "difficulty": 1950097058483,
  "gasLimit": {
    "_hex": "0x2fefd8"
  },
  "gasUsed": {
    "_hex": "0x7c2d"
  },
  "miner": "0xA21Ba94e45f0E168dA824fC67aC9cb5Cb577a8aF",
  "extraData": "0x",
  "transactions": [
    {
      "hash": "0x79ad16989c183f7a6b1080ce3e3ead8d4dbb38f98b3f79690adec56e322b8bd2",
      "blockHash": "0x95d87508ed3cb01e3f8331c1cc7c0b8a40cc16e10931065580b77ca7055a09ef",
      "blockNumber": 65853,
      "transactionIndex": 0,
      "confirmations": null,
      "from": "0x9671195D09EDbE08bf945d66f637e59B5357afa2",
      "gasPrice": {
        "_hex": "0x1111daf47ca"
      },
      "gasLimit": {
        "_hex": "0x15f90"
      },
      "to": "0x125B606C67E8066Da65069652b656c19717745Fa",
      "value": {
        "_hex": "0x1434c04928f8000"
      },
      "nonce": 0,
      "data": "0xa55526db",
      "r": "0xec536eb89a0342b25079eecdee763e797481a7cce004e130caf3f62b733ce98c",
      "s": "0x3793d9affbed07db7167b9a74ddf1ac7fd0529626407bfe72c3f0b4b8cec69f2",
      "v": 27,
      "creates": null,
      "raw": "0xf872808601111daf47ca83015f9094125b606c67e8066da65069652b656c19717745fa8801434c04928f800084a55526db1ba0ec536eb89a0342b25079eecdee763e797481a7cce004e130caf3f62b733ce98ca03793d9affbed07db7167b9a74ddf1ac7fd0529626407bfe72c3f0b4b8cec69f2",
      "networkId": 0,
      "chainId": 0
    }
  ]
}