{
  "hash": "0xe90998b59f30b34acc1a523222dd4bc359ca1433eb8eef3115a871c57f97e989",
  "parentHash": "0xb0ac168168cbe8a07847b9057034b742375d862d98c9db8093d42ab4af2228a4",
  "number": 101394,
  "timestamp": 1439822356,
  "nonce": "0xa3097a760fd9eb7f",
  "difficulty": 3826172808715,
  "gasLimit": {
    "_hex": "0x2fefd8"
  },
  "gasUsed": {
    "_hex": "0x5208"
  },
  "miner": "0x9827C93917a0c59899BEfBa58d104A788782e1d4",
  "extraData": "0xd983010001844765746887676f312e342e328777696e646f7773",
  "transactions": [
    {
      "hash": "0x9b351067a2921f59f4887060ef1882eb9280d049cf835034da6c3186085ed90b",
      "blockHash": "0xe90998b59f30b34acc1a523222dd4bc359ca1433eb8eef3115a871c57f97e989",
      "blockNumber": 101394,
      "transactionIndex": 0,
      "confirmations": null,
      "from": "0x007f7f58D3eb5b7510A301eCC749FC1fCDDBE14D",
      "gasPrice": {
        "_hex": "0xe0cfe7246"
      },
      "gasLimit": {
        "_hex": "0x15f90"
      },
      "to": "0xb1abce2918E21ddb93AA452731a12672A3d9F75a",
      "value": {
        "_hex": "0x4563918244f40000"
      },
      "nonce": 188,
      "data": "0x",
      "r": "0xf000fe50635fa662b8aab4ab2ad1668a251cbaf6d2adc786619f38cc9b3402eb",
      "s": "0x68e1defedb551f0e5422107b39bedc96c2582d3f36070bbfd078e0a8f398da09",
      "v": 27,
      "creates": null,
      "raw": "0xf86e81bc850e0cfe724683015f9094b1abce2918e21ddb93aa452731a12672a3d9f75a884563918244f40000801ba0f000fe50635fa662b8aab4ab2ad1668a251cbaf6d2adc786619f38cc9b3402eba068e1defedb551f0e5422107b39bedc96c2582d3f36070bbfd078e0a8f398da09",
      "networkId": 0,
      "chainId": 0
    }
  ]
}