{
  "hash": "0xe089d70c8c1f04a143dfef7de8cbe339fc0f3d8f38fa6f9e841908d7bd30cf00",
  "parentHash": "0x7bdeaea359c8050d6628cf01882a7c6919168ca3b4506a5d32e4534876f23fe9",
  "number": 102113,
  "timestamp": 1439833129,
  "nonce": "0x83dbb457a1300061",
  "difficulty": 3891789861914,
  "gasLimit": {
    "_hex": "0x2fefd8"
  },
  "gasUsed": {
    "_hex": "0xa410"
  },
  "miner": "0x580992B51e3925e23280EfB93d3047C82f17E038",
  "extraData": "0x476574682f76312e302e312f6c696e75782f676f312e342e32",
  "transactions": [
    {
      "hash": "0x53451100fd5487b71338979b447eb4bb469a42c2f330ffb2f8b6c173d937dc73",
      "blockHash": "0xe089d70c8c1f04a143dfef7de8cbe339fc0f3d8f38fa6f9e841908d7bd30cf00",
      "blockNumber": 102113,
      "transactionIndex": 0,
      "confirmations": null,
      "from": "0x76d4a9bc9612bE738A81d0fE632b00B971E2bB9a",
      "gasPrice": {
        "_hex": "0xddb405d12"
      },
      "gasLimit": {
        "_hex": "0x55f0"
      },
      "to": "0xb50405193Dc0c7077dD65252C15C39242F0aCB76",
      "value": {
        "_hex": "0x4563918244f40000"
      },
      "nonce": 8,
      "data": "0x",
      "r": "0x211a293883a98b630571e446311f83232f68dbe8391934393e70a97e56a879d1",
      "s": "0x0b72b3e71a84935a42c402824fea93da3486bff2c289d45545fc65e88a01f394",
      "v": 27,
      "creates": null,
      "raw": "0xf86c08850ddb405d128255f094b50405193dc0c7077dd65252c15c39242f0acb76884563918244f40000801ba0211a293883a98b630571e446311f83232f68dbe8391934393e70a97e56a879d1a00b72b3e71a84935a42c402824fea93da3486bff2c289d45545fc65e88a01f394",
      "networkId": 0,
      "chainId": 0
    },
    {
      "hash": "0xf331d7a9cd80e9d700941d041e23f451c823fce50fdd3260bf98a64cf91b354a",
      "blockHash": "0xe089d70c8c1f04a143dfef7de8cbe339fc0f3d8f38fa6f9e841908d7bd30cf00",
      "blockNumber": 102113,
      "transactionIndex": 1,
      "confirmations": null,
      "from": "0xcf00A85f3826941e7A25BFcF9Aac575d40410852",
      "gasPrice": {
        "_hex": "0xcb5bea614"
      },
      "gasLimit": {
        "_hex": "0x15f90"
      },
      "to": "0xD9666150A9dA92d9108198a4072970805a8B3428",
      "value": {
        "_hex": "0x4563918244f40000"
      },
      "nonce": 42,
      "data": "0x",
      "r": "0xa7dbbb1c9b048b39c7732e9f7b92ddafa38d3618adaab3bd8bd819b4cd03bc92",
      "s": "0x305a557208a598462484c2f8f9b33c861e8d70dcdc389229a57d90653e7dbb57",
      "v": 27,
      "creates": null,
      "raw": "0xf86d2a850cb5bea61483015f9094d9666150a9da92d9108198a4072970805a8b3428884563918244f40000801ba0a7dbbb1c9b048b39c7732e9f7b92ddafa38d3618adaab3bd8bd819b4cd03bc92a0305a557208a598462484c2f8f9b33c861e8d70dcdc389229a57d90653e7dbb57",
      "networkId": 0,
      "chainId": 0
    }
  ]
}