{
  "hash": "0xae9906ff37bffbc90ea971c18de8c2664b7b6319b38bd5d1c9a9fc8830a14460",
  "parentHash": "0x5428a66f38b734d5d7b1149b60de106aa557967c30aeb1cbf375a0ece41ffc74",
  "number": 50937,
  "timestamp": 1438996872,
  "nonce": "0x24af8d29ca30d4b9",
  "difficulty": 1551447711907,
  "gasLimit": {
    "_hex": "0x843fe"
  },
  "gasUsed": {
    "_hex": "0x5208"
  },
  "miner": "0x5Bf5E9cf9B456d6591073513De7Fd69A9BEF04Bc",
  "extraData": "0x476574682f76312e302e312f77696e646f77732f676f312e342e32",
  "transactions": [
    {
      "hash": "0xf32063c80f932845cb3eff4ef1c5e2c641c09e80e20f2910816309d3fe8fe472",
      "blockHash": "0xae9906ff37bffbc90ea971c18de8c2664b7b6319b38bd5d1c9a9fc8830a14460",
      "blockNumber": 50937,
      "transactionIndex": 0,
      "confirmations": null,
      "from": "0xc8ebccC5F5689Fa8659d83713341e5aD19349448",
      "gasPrice": {
        "_hex": "0xcd01555c5"
      },
      "gasLimit": {
        "_hex": "0x15f90"
      },
      "to": "0x0F87Fb507513e749081E34373c84E95e85b5c057",
      "value": {
        "_hex": "0x3635c9adc5dea00000"
      },
      "nonce": 6,
      "data": "0x",
      "r": "0x3acf69fa4204fcf048a5ca0736cb6fed6632eb07053c4684732397f91cf34567",
      "s": "0x332260152b82f753930794df184982b238315e2d0e595baafb590faec09c5256",
      "v": 28,
      "creates": null,
      "raw": "0xf86e06850cd01555c583015f90940f87fb507513e749081e34373c84e95e85b5c057893635c9adc5dea00000801ca03acf69fa4204fcf048a5ca0736cb6fed6632eb07053c4684732397f91cf34567a0332260152b82f753930794df184982b238315e2d0e595baafb590faec09c5256",
      "networkId": 0,
      "chainId": 0
    }
  ]
}