{
  "hash": "0xbb4853cd72a802029cc0717ccb0122648af0bccf0d126117fe648c9aaf853c72",
  "parentHash": "0x74baa16583d97a836fce12cb0f816f3ea2396761f016de80d4e24d2634f96b7b",
  "number": 53390,
  "timestamp": 1439036878,
  "nonce": "0x0c2481903028505d",
  "difficulty": 1590102417999,
  "gasLimit": {
    "_hex": "0x26b89e"
  },
  "gasUsed": {
    "_hex": "0x5658"
  },
  "miner": "0xC6Bf5B6558f2eE21F2E43d9fF9B5408A0Cb89413",
  "extraData": "0x476574682f76312e302e312d38326566323666362f6c696e75782f676f312e34",
  "transactions": [
    {
      "hash": "0x35c136a13efc353813bb7d953193da31efcef42959c0a028f994d8765bedfbac",
      "blockHash": "0xbb4853cd72a802029cc0717ccb0122648af0bccf0d126117fe648c9aaf853c72",
      "blockNumber": 53390,
      "transactionIndex": 0,
      "confirmations": null,
      "from": "0x4b0C6F0297CEe4B551B6fab3277067B64B238990",
      "gasPrice": {
        "_hex": "0x115572b484a"
      },
      "gasLimit": {
        "_hex": "0x15f90"
      },
      "to": "0x0000000000000000000000000000000000000000",
      "value": {
        "_hex": "0x0"
      },
      "nonce": 9,
      "data": "0x432ced04546f6d6f616b695361746f000000000000000000000000000000000000000000",
      "r": "0x3fca6714c0b342330c69574fb522fc4c916283231cd1b527bbb7a5e6d4581642",
      "s": "0x593c970da3158d0a38edf01ae03572be8b0fa845452f00c300597882846b510d",
      "v": 28,
      "creates": null,
      "raw": "0xf88a09860115572b484a83015f9094000000000000000000000000000000000000000080a4432ced04546f6d6f616b695361746f0000000000000000000000000000000000000000001ca03fca6714c0b342330c69574fb522fc4c916283231cd1b527bbb7a5e6d4581642a0593c970da3158d0a38edf01ae03572be8b0fa845452f00c300597882846b510d",
      "networkId": 0,
      "chainId": 0
    }
  ]
}