{
  "hash": "0x08c78a805e8b4dad807522f687cc9a28c5c4d163cb9d7a61a2350801c412b975",
  "parentHash": "0xbb040cd055fc547a91a7b9daecdc2c4388e40eb42e6980ffc2d857ed4036b13b",
  "number": 71262,
  "timestamp": 1439333409,
  "nonce": "0x6d59e1c0f03ac82b",
  "difficulty": 2149808741654,
  "gasLimit": {
    "_hex": "0x2fefd8"
  },
  "gasUsed": {
    "_hex": "0xaec1"
  },
  "miner": "0xe6A7a1d47ff21B6321162AEA7C6CB457D5476Bca",
  "extraData": "0x476574682f76312e302e312d38326566323666362f6c696e75782f676f312e34",
  "transactions": [
    {
      "hash": "0x49d3f6d52177b6ac610ceab87970722be5f584a4d26024ca3def8222152056c3",
      "blockHash": "0x08c78a805e8b4dad807522f687cc9a28c5c4d163cb9d7a61a2350801c412b975",
      "blockNumber": 71262,
      "transactionIndex": 0,
      "confirmations": null,
      "from": "0x17580B766f7453525ca4C6A88b01b50570EA088C",
      "gasPrice": {
        "_hex": "0xdf1e56700"
      },
      "gasLimit": {
        "_hex": "0x61a80"
      },
      "to": "0x5Fe5B7546D1628f7348B023A0393de1FC825A4fD",
      "value": {
        "_hex": "0x3782dace9d900000"
      },
      "nonce": 136,
      "data": "0xb595b8b50000000000000000000000000000000000000000000000000000000000000001",
      "r": "0xee2d95cda62adaa0de042e66a948bfd966937f06639f4c773f1525ff09c20114",
      "s": "0x5c46833ed2fe9a2cae41ae469abda8e1d8e36d6f5c69f750668235e91bd64a35",
      "v": 28,
      "creates": null,
      "raw": "0xf8928188850df1e5670083061a80945fe5b7546d1628f7348b023a0393de1fc825a4fd883782dace9d900000a4b595b8b500000000000000000000000000000000000000000000000000000000000000011ca0ee2d95cda62adaa0de042e66a948bfd966937f06639f4c773f1525ff09c20114a05c46833ed2fe9a2cae41ae469abda8e1d8e36d6f5c69f750668235e91bd64a35",
      "networkId": 0,
      "chainId": 0
    }
  ]
}