{
  "hash": "0x797222a2c9a318fdf0c1586de4def80be71c8e0f0bb5b27902a38ed6f4524a13",
  "parentHash": "0x2c50d8a8c1fe486e0bc21e4da592fe07148266d50bdc7729f024a54d2b60a96e",
  "number": 84766,
  "timestamp": 1439554325,
  "nonce": "0x43ea198abf51e774",
  "difficulty": 2624632717860,
  "gasLimit": {
    "_hex": "0x2fefd8"
  },
  "gasUsed": {
    "_hex": "0x19a28"
  },
  "miner": "0xe6A7a1d47ff21B6321162AEA7C6CB457D5476Bca",
  "extraData": "0x476574682f76312e302e312d38326566323666362f6c696e75782f676f312e34",
  "transactions": [
    {
      "hash": "0x9b8f86768ee762a1c75f50d7d0acbf67c07475e4cad10500177a82c4b352ac82",
      "blockHash": "0x797222a2c9a318fdf0c1586de4def80be71c8e0f0bb5b27902a38ed6f4524a13",
      "blockNumber": 84766,
      "transactionIndex": 0,
      "confirmations": null,
      "from": "0x2910543Af39abA0Cd09dBb2D50200b3E800A63D2",
      "gasPrice": {
        "_hex": "0xd40a34c13"
      },
      "gasLimit": {
        "_hex": "0x5208"
      },
      "to": "0x93Db80284c8E4d2B0eE8586dE2D072208c075145",
      "value": {
        "_hex": "0x20869a71971a7f8000"
      },
      "nonce": 575,
      "data": "0x",
      "r": "0x5cad1cc3b77dafcbca9ac4ca801e4ff0f06840ebc981f38e6145c6c51f560c39",
      "s": "0x66ddff6b3e909f6cab316af766f220b2d7654e976517ec8f95b8e2accd6f8160",
      "v": 28,
      "creates": null,
      "raw": "0xf86f82023f850d40a34c138252089493db80284c8e4d2b0ee8586de2d072208c0751458920869a71971a7f8000801ca05cad1cc3b77dafcbca9ac4ca801e4ff0f06840ebc981f38e6145c6c51f560c39a066ddff6b3e909f6cab316af766f220b2d7654e976517ec8f95b8e2accd6f8160",
      "networkId": 0,
      "chainId": 0
    },
    {
      "hash": "0x9b9569befaa88c51740df849ef7208eb82354292219cd10bdcbbd86395acdb79",
      "blockHash": "0x797222a2c9a318fdf0c1586de4def80be71c8e0f0bb5b27902a38ed6f4524a13",
      "blockNumber": 84766,
      "transactionIndex": 1,
      "confirmations": null,
      "from": "0xF87481A262E993a75F791E7859E71BaC36A606Eb",
      "gasPrice": {
        "_hex": "0xce8893713"
      },
      "gasLimit": {
        "_hex": "0x5208"
      },
      "to": "0x32Be343B94f860124dC4fEe278FDCBD38C102D88",
      "value": {
        "_hex": "0xb0f0d7445fbf60000"
      },
      "nonce": 21,
      "data": "0x",
      "r": "0xdf1fd674773a21706d37b9f319c19cbd4866ea565e376e49c6c1cbb50d6647ad",
      "s": "0x1a91830650b8cd16116a7e87c28d66fbfd7bb2c8d615dc61cff14c9d3b0cd95f",
      "v": 28,
      "creates": null,
      "raw": "0xf86d15850ce88937138252089432be343b94f860124dc4fee278fdcbd38c102d88890b0f0d7445fbf60000801ca0df1fd674773a21706d37b9f319c19cbd4866ea565e376e49c6c1cbb50d6647ada01a91830650b8cd16116a7e87c28d66fbfd7bb2c8d615dc61cff14c9d3b0cd95f",
      "networkId": 0,
      "chainId": 0
    },
    {
      "hash": "0x77109c738b07e4564ee26091c100ca280ed5c4bc04b272b65e40e25f91344150",
      "blockHash": "0x797222a2c9a318fdf0c1586de4def80be71c8e0f0bb5b27902a38ed6f4524a13",
      "blockNumber": 84766,
      "transactionIndex": 2,
      "confirmations": null,
      "from": "0x7313946aA53dCDd777C90905D75A9B41e17Ca2c9",
      "gasPrice": {
        "_hex": "0xce8893713"
      },
      "gasLimit": {
        "_hex": "0x5208"
      },
      "to": "0x32Be343B94f860124dC4fEe278FDCBD38C102D88",
      "value": {
        "_hex": "0x1728551a627342000"
      },
      "nonce": 0,
      "data": "0x",
      "r": "0x20ca1b735b3b9794d9cf4411a03ec3b2ee0c7c81756c0cf028917a6f6546dbc3",
      "s": "0x0cd37d0d9efc43f2fac030a40f8ef3233ae19331137c4157e94a25ee25d22ef3",
      "v": 28,
      "creates": null,
      "raw": "0xf86d80850ce88937138252089432be343b94f860124dc4fee278fdcbd38c102d888901728551a627342000801ca020ca1b735b3b9794d9cf4411a03ec3b2ee0c7c81756c0cf028917a6f6546dbc3a00cd37d0d9efc43f2fac030a40f8ef3233ae19331137c4157e94a25ee25d22ef3",
      "networkId": 0,
      "chainId": 0
    },
    {
      "hash": "0xdf6b728081fa2bf834db916f5bd8a8608492e4be6601b705864e157ad0e6fbdc",
      "blockHash": "0x797222a2c9a318fdf0c1586de4def80be71c8e0f0bb5b27902a38ed6f4524a13",
      "blockNumber": 84766,
      "transactionIndex": 3,
      "confirmations": null,
      "from": "0x23f2D0fd3B4C98Fb1698564deB4898275E2e831f",
      "gasPrice": {
        "_hex": "0xce8893713"
      },
      "gasLimit": {
        "_hex": "0x5208"
      },
      "to": "0x32Be343B94f860124dC4fEe278FDCBD38C102D88",
      "value": {
        "_hex": "0x6ede0bc763a51800"
      },
      "nonce": 3,
      "data": "0x",
      "r": "0x646cbfc4dfc7943ddee27ceb17a1fe6bec22df5360c542e6144534b01dc7644d",
      "s": "0x71ff90ab80b4cafad614b5f594a94a5e930bf7a5ae7b941e9e2c0a99e916f737",
      "v": 28,
      "creates": null,
      "raw": "0xf86c03850ce88937138252089432be343b94f860124dc4fee278fdcbd38c102d88886ede0bc763a51800801ca0646cbfc4dfc7943ddee27ceb17a1fe6bec22df5360c542e6144534b01dc7644da071ff90ab80b4cafad614b5f594a94a5e930bf7a5ae7b941e9e2c0a99e916f737",
      "networkId": 0,
      "chainId": 0
    },
    {
      "hash": "0x760fd2595705211607d61be7877e70278fab9f49847dccae2fb2debfb0dce5ea",
      "blockHash": "0x797222a2c9a318fdf0c1586de4def80be71c8e0f0bb5b27902a38ed6f4524a13",
      "blockNumber": 84766,
      "transactionIndex": 4,
      "confirmations": null,
      "from": "0x32Be343B94f860124dC4fEe278FDCBD38C102D88",
      "gasPrice": {
        "_hex": "0xce8893713"
      },
      "gasLimit": {
        "_hex": "0x5208"
      },
      "to": "0xe275C9b8990069b909572AD61eE5172586Ca535c",
      "value": {
        "_hex": "0x1b1ac14ff07f8f0000"
      },
      "nonce": 701,
      "data": "0x",
      "r": "0x6654521d1c22fc823d7652c20c348085822ca9b82fd5a497159e3ca32066fb00",
      "s": "0x2e10f6b7be4cad1401298b74bba35c502f79ed8e3641966d2f2844b33fe06328",
      "v": 28,
      "creates": null,
      "raw": "0xf86f8202bd850ce889371382520894e275c9b8990069b909572ad61ee5172586ca535c891b1ac14ff07f8f0000801ca06654521d1c22fc823d7652c20c348085822ca9b82fd5a497159e3ca32066fb00a02e10f6b7be4cad1401298b74bba35c502f79ed8e3641966d2f2844b33fe06328",
      "networkId": 0,
      "chainId": 0
    }
  ]
}