{
  "hash": "0x7764c5d14d769f0863fa02168429e3f63448abd0163be6fb993562ad8fdb5459",
  "parentHash": "0x77f97d1965e60801fb970f8a383a43cb451b82c2d069ce95be86dcc71d25f15c",
  "number": 75873,
  "timestamp": 1439410931,
  "nonce": "0xdf27546876033a53",
  "difficulty": 2228770979671,
  "gasLimit": {
    "_hex": "0x2fefd8"
  },
  "gasUsed": {
    "_hex": "0x8f9f"
  },
  "miner": "0xe6A7a1d47ff21B6321162AEA7C6CB457D5476Bca",
  "extraData": "0x476574682f76312e302e312d38326566323666362f6c696e75782f676f312e34",
  "transactions": [
    {
      "hash": "0x972abcd522c7329b11c4b2618c620cf952ab2ce64b98868cf9634f1a42536120",
      "blockHash": "0x7764c5d14d769f0863fa02168429e3f63448abd0163be6fb993562ad8fdb5459",
      "blockNumber": 75873,
      "transactionIndex": 0,
      "confirmations": null,
      "from": "0x9724Ac4dc56e03379eBA5d157D1513EcC32cBD8f",
      "gasPrice": {
        "_hex": "0xde2eaad59"
      },
      "gasLimit": {
        "_hex": "0x493e0"
      },
      "to": "0xD79B4C6791784184e2755B2fC1659eaaB0f80456",
      "value": {
        "_hex": "0xde0b6b3a7640000"
      },
      "nonce": 15,
      "data": "0x8d21618600000000000000000000000000000000000000000000000000000000000000403d4bbcea0209e12463492a1cfd8f0ca7a24e7b6b931ceb58aac829eea158c167",
      "r": "0x5113510f4eb720a3c7416e76bd37c575e45e706a8307c235448a09acff34409d",
      "s": "0x48a72f1cde7c76c45a5d06282ecbbdb705c012131d56b6945790d461caa4f46d",
      "v": 27,
      "creates": null,
      "raw": "0xf8b20f850de2eaad59830493e094d79b4c6791784184e2755b2fc1659eaab0f80456880de0b6b3a7640000b8448d21618600000000000000000000000000000000000000000000000000000000000000403d4bbcea0209e12463492a1cfd8f0ca7a24e7b6b931ceb58aac829eea158c1671ba05113510f4eb720a3c7416e76bd37c575e45e706a8307c235448a09acff34409da048a72f1cde7c76c45a5d06282ecbbdb705c012131d56b6945790d461caa4f46d",
      "networkId": 0,
      "chainId": 0
    }
  ]
}