{
  "hash": "0xf35137aaf0b2540f0dd9d54c75ee8254d083f70a3213e3ae293e2e47c53aee1f",
  "parentHash": "0x2326548acec2cbcba4a140267b1ce3a06308cbf54d15ecc31f34c725c52f685f",
  "number": 74252,
  "timestamp": 1439383029,
  "nonce": "0xa60de0f0bf35beb0",
  "difficulty": 2217260550113,
  "gasLimit": {
    "_hex": "0x2fefd8"
  },
  "gasUsed": {
    "_hex": "0x33450"
  },
  "miner": "0xf927a40C8B7F6E07c5af7FA2155B4864a4112B13",
  "extraData": "0x",
  "transactions": [
    {
      "hash": "0xe23b1796b1903f8345031fb3b7fee461eafdc3c58982a501573bdc4d3d6de740",
      "blockHash": "0xf35137aaf0b2540f0dd9d54c75ee8254d083f70a3213e3ae293e2e47c53aee1f",
      "blockNumber": 74252,
      "transactionIndex": 0,
      "confirmations": null,
      "from": "0x2910543Af39abA0Cd09dBb2D50200b3E800A63D2",
      "gasPrice": {
        "_hex": "0xd992cf1dc"
      },
      "gasLimit": {
        "_hex": "0x5208"
      },
      "to": "0xFD7c9117BbEB649d9b37B3D3C9917f7c12f526B3",
      "value": {
        "_hex": "0xad77cf8e18e3f8000"
      },
      "nonce": 297,
      "data": "0x",
      "r": "0xa2c9d68b46dfcb27dadb383c256c8e9f75ec503e381cbe89c104fe387286d91f",
      "s": "0x0da2d430e38278d2a0817c9cef6b02b4de9da8ee6837416ae815127cf1429863",
      "v": 28,
      "creates": null,
      "raw": "0xf86f820129850d992cf1dc82520894fd7c9117bbeb649d9b37b3d3c9917f7c12f526b3890ad77cf8e18e3f8000801ca0a2c9d68b46dfcb27dadb383c256c8e9f75ec503e381cbe89c104fe387286d91fa00da2d430e38278d2a0817c9cef6b02b4de9da8ee6837416ae815127cf1429863",
      "networkId": 0,
      "chainId": 0
    },
    {
      "hash": "0xed47b34e0670b916b061ada120217b235fc0d73bf9442d6cdb7b1490e0ce5fe1",
      "blockHash": "0xf35137aaf0b2540f0dd9d54c75ee8254d083f70a3213e3ae293e2e47c53aee1f",
      "blockNumber": 74252,
      "transactionIndex": 1,
      "confirmations": null,
      "from": "0x2910543Af39abA0Cd09dBb2D50200b3E800A63D2",
      "gasPrice": {
        "_hex": "0xd992cf1dc"
      },
      "gasLimit": {
        "_hex": "0x5208"
      },
      "to": "0xBDbaF6434d40D6355B1e80e40Cc4AB9C68D96116",
      "value": {
        "_hex": "0x20f495b31a0f78000"
      },
      "nonce": 298,
      "data": "0x",
      "r": "0x4c766591b71c2e1124acff31860fd239aca610fa7580203674e1f7461422f0cb",
      "s": "0x43dadb5a6ff0aa7e303b3c2272d694181ad3867e094cdb8ffe925f384ae4cb9f",
      "v": 28,
      "creates": null,
      "raw": "0xf86f82012a850d992cf1dc82520894bdbaf6434d40d6355b1e80e40cc4ab9c68d9611689020f495b31a0f78000801ca04c766591b71c2e1124acff31860fd239aca610fa7580203674e1f7461422f0cba043dadb5a6ff0aa7e303b3c2272d694181ad3867e094cdb8ffe925f384ae4cb9f",
      "networkId": 0,
      "chainId": 0
    },
    {
      "hash": "0xc788bb7751df34956725f5e2a1db0b0f6955cf113c423e092149c9b298157abd",
      "blockHash": "0xf35137aaf0b2540f0dd9d54c75ee8254d083f70a3213e3ae293e2e47c53aee1f",
      "blockNumber": 74252,
      "transactionIndex": 2,
      "confirmations": null,
      "from": "0xe6A7a1d47ff21B6321162AEA7C6CB457D5476Bca",
      "gasPrice": {
        "_hex": "0xd721433a5"
      },
      "gasLimit": {
        "_hex": "0x55f0"
      },
      "to": "0x3205cd1aC9e2Bb844A056D57E3f2463613554677",
      "value": {
        "_hex": "0x397c80c206667390"
      },
      "nonce": 790,
      "data": "0x",
      "r": "0x91fdb21635f7d1cf240089963e906515836ca6f28907fc2edb3c2284e6545463",
      "s": "0x3283cc0bf8dd7a28c1e817b444277be1a6128b0442babc7e5b07dbeef2342328",
      "v": 28,
      "creates": null,
      "raw": "0xf86e820316850d721433a58255f0943205cd1ac9e2bb844a056d57e3f246361355467788397c80c206667390801ca091fdb21635f7d1cf240089963e906515836ca6f28907fc2edb3c2284e6545463a03283cc0bf8dd7a28c1e817b444277be1a6128b0442babc7e5b07dbeef2342328",
      "networkId": 0,
      "chainId": 0
    },
    {
      "hash": "0x2c055b77e7337ff97af872de0e0536972f0263562a5465080030ffa4114919d8",
      "blockHash": "0xf35137aaf0b2540f0dd9d54c75ee8254d083f70a3213e3ae293e2e47c53aee1f",
      "blockNumber": 74252,
      "transactionIndex": 3,
      "confirmations": null,
      "from": "0xe6A7a1d47ff21B6321162AEA7C6CB457D5476Bca",
      "gasPrice": {
        "_hex": "0xd721433a5"
      },
      "gasLimit": {
        "_hex": "0x55f0"
      },
      "to": "0xE5cd922132641CF77d8a95dE3F3B335Ee6D54d71",
      "value": {
        "_hex": "0x39c009a4b1aaddf0"
      },
      "nonce": 791,
      "data": "0x",
      "r": "0x26692f3ae90e9ca82062a059ec59907e5e9914966fceab132060c87ded6ed268",
      "s": "0x56dc0cc2cc2b886da079cd46f13c78460455beec0882900d7ea5bab48ed13262",
      "v": 27,
      "creates": null,
      "raw": "0xf86e820317850d721433a58255f094e5cd922132641cf77d8a95de3f3b335ee6d54d718839c009a4b1aaddf0801ba026692f3ae90e9ca82062a059ec59907e5e9914966fceab132060c87ded6ed268a056dc0cc2cc2b886da079cd46f13c78460455beec0882900d7ea5bab48ed13262",
      "networkId": 0,
      "chainId": 0
    },
    {
      "hash": "0x478f3dc007c4bb2db47842f7e30c2c4417d08462bbce5d231551cb729b09f3b1",
      "blockHash": "0xf35137aaf0b2540f0dd9d54c75ee8254d083f70a3213e3ae293e2e47c53aee1f",
      "blockNumber": 74252,
      "transactionIndex": 4,
      "confirmations": null,
      "from": "0xe6A7a1d47ff21B6321162AEA7C6CB457D5476Bca",
      "gasPrice": {
        "_hex": "0xd721433a5"
      },
      "gasLimit": {
        "_hex": "0x55f0"
      },
      "to": "0x5175f107219871c88e0C4202F14A5f34088b54c8",
      "value": {
        "_hex": "0x3a93dc84fbc7afd0"
      },
      "nonce": 792,
      "data": "0x",
      "r": "0xde339bb5042c74e4ea39eafdd07a9e6f42baaec75ce02d374e53328ec9cdf68c",
      "s": "0x457d0ed6d86c39e4c9d3f6aaac841f24704db87dcbfe69996342faf4b06d9e03",
      "v": 28,
      "creates": null,
      "raw": "0xf86e820318850d721433a58255f0945175f107219871c88e0c4202f14a5f34088b54c8883a93dc84fbc7afd0801ca0de339bb5042c74e4ea39eafdd07a9e6f42baaec75ce02d374e53328ec9cdf68ca0457d0ed6d86c39e4c9d3f6aaac841f24704db87dcbfe69996342faf4b06d9e03",
      "networkId": 0,
      "chainId": 0
    },
    {
      "hash": "0x73a8dfa78afca05002bc613f7ff6ebb0f0a8dfd241f7c4d71423f2604bba470a",
      "blockHash": "0xf35137aaf0b2540f0dd9d54c75ee8254d083f70a3213e3ae293e2e47c53aee1f",
      "blockNumber": 74252,
      "transactionIndex": 5,
      "confirmations": null,
      "from": "0xe6A7a1d47ff21B6321162AEA7C6CB457D5476Bca",
      "gasPrice": {
        "_hex": "0xd721433a5"
      },
      "gasLimit": {
        "_hex": "0x55f0"
      },
      "to": "0xF178805EA39C903a49e6A465DBD40f22576aE24a",
      "value": {
        "_hex": "0x3cb5886fdbdccd08"
      },
      "nonce": 793,
      "data": "0x",
      "r": "0xfcd51614077769a7fd9bcf69bf53bb1b9c52165c3e98bec101532887c34c28fb",
      "s": "0x41ab1bf169eedb2f63ad23a4310e3ac220d37005aa626e56003bdd4b27774e41",
      "v": 27,
      "creates": null,
      "raw": "0xf86e820319850d721433a58255f094f178805ea39c903a49e6a465dbd40f22576ae24a883cb5886fdbdccd08801ba0fcd51614077769a7fd9bcf69bf53bb1b9c52165c3e98bec101532887c34c28fba041ab1bf169eedb2f63ad23a4310e3ac220d37005aa626e56003bdd4b27774e41",
      "networkId": 0,
      "chainId": 0
    },
    {
      "hash": "0x5d63e11eac4c560baaa0c0c2f974f9389b8bd4e7b0a56fbb71a78d0c82b4edcb",
      "blockHash": "0xf35137aaf0b2540f0dd9d54c75ee8254d083f70a3213e3ae293e2e47c53aee1f",
      "blockNumber": 74252,
      "transactionIndex": 6,
      "confirmations": null,
      "from": "0xe6A7a1d47ff21B6321162AEA7C6CB457D5476Bca",
      "gasPrice": {
        "_hex": "0xd721433a5"
      },
      "gasLimit": {
        "_hex": "0x55f0"
      },
      "to": "0xA80A8ecbF729C98404eE20b39945Ad8DEBd08C61",
      "value": {
        "_hex": "0x3e2217d7740ed42c"
      },
      "nonce": 794,
      "data": "0x",
      "r": "0xe42cc76bc682308ee01276b3534417794e0279d677d507f30647bd2898acbd04",
      "s": "0x72730121dd3fb9cba3e36c4c58c50a99ac4cae450611eee0c89972c55670e17b",
      "v": 28,
      "creates": null,
      "raw": "0xf86e82031a850d721433a58255f094a80a8ecbf729c98404ee20b39945ad8debd08c61883e2217d7740ed42c801ca0e42cc76bc682308ee01276b3534417794e0279d677d507f30647bd2898acbd04a072730121dd3fb9cba3e36c4c58c50a99ac4cae450611eee0c89972c55670e17b",
      "networkId": 0,
      "chainId": 0
    },
    {
      "hash": "0xa74845989208ad7cfc155a9edcb7f66cf508272fede6f72eb093b04d1dfa5818",
      "blockHash": "0xf35137aaf0b2540f0dd9d54c75ee8254d083f70a3213e3ae293e2e47c53aee1f",
      "blockNumber": 74252,
      "transactionIndex": 7,
      "confirmations": null,
      "from": "0xe6A7a1d47ff21B6321162AEA7C6CB457D5476Bca",
      "gasPrice": {
        "_hex": "0xd721433a5"
      },
      "gasLimit": {
        "_hex": "0x55f0"
      },
      "to": "0xe512429AB3036301dC4c56F9a4c9991dCbb6b496",
      "value": {
        "_hex": "0x3e9a1d79a6568770"
      },
      "nonce": 795,
      "data": "0x",
      "r": "0x531716a70c5be310692b7cb41737ca3a73421a3fccb46bb90f769c4abc5f57d0",
      "s": "0x6142f18af0c62418de55e115926affb0e2b975c3fb53a0fc14d94a967ee6bfbb",
      "v": 28,
      "creates": null,
      "raw": "0xf86e82031b850d721433a58255f094e512429ab3036301dc4c56f9a4c9991dcbb6b496883e9a1d79a6568770801ca0531716a70c5be310692b7cb41737ca3a73421a3fccb46bb90f769c4abc5f57d0a06142f18af0c62418de55e115926affb0e2b975c3fb53a0fc14d94a967ee6bfbb",
      "networkId": 0,
      "chainId": 0
    },
    {
      "hash": "0xd85f16c22e1cfa8ac0b540b3043c38f5be9db5936b61298d10b19bdc880cf692",
      "blockHash": "0xf35137aaf0b2540f0dd9d54c75ee8254d083f70a3213e3ae293e2e47c53aee1f",
      "blockNumber": 74252,
      "transactionIndex": 8,
      "confirmations": null,
      "from": "0xe6A7a1d47ff21B6321162AEA7C6CB457D5476Bca",
      "gasPrice": {
        "_hex": "0xd721433a5"
      },
      "gasLimit": {
        "_hex": "0x55f0"
      },
      "to": "0x8B454d830feF179e66206840F8F3D1d83bC32b17",
      "value": {
        "_hex": "0x3fd24a2082e33920"
      },
      "nonce": 796,
      "data": "0x",
      "r": "0xa9fb745fdfffb1af35997138e46cfc50260b30f00cbf7323b4990dfb2bc35624",
      "s": "0x1c3dc03162fcec3b49ea36dcf28ef723c1fbd811ed53b972f8f2d38697bba91a",
      "v": 28,
      "creates": null,
      "raw": "0xf86e82031c850d721433a58255f0948b454d830fef179e66206840f8f3d1d83bc32b17883fd24a2082e33920801ca0a9fb745fdfffb1af35997138e46cfc50260b30f00cbf7323b4990dfb2bc35624a01c3dc03162fcec3b49ea36dcf28ef723c1fbd811ed53b972f8f2d38697bba91a",
      "networkId": 0,
      "chainId": 0
    },
    {
      "hash": "0x2ff5559bb2db68b8bceaec23bae7f61dad693d6ab69caf88937602ded78b85b1",
      "blockHash": "0xf35137aaf0b2540f0dd9d54c75ee8254d083f70a3213e3ae293e2e47c53aee1f",
      "blockNumber": 74252,
      "transactionIndex": 9,
      "confirmations": null,
      "from": "0xe6A7a1d47ff21B6321162AEA7C6CB457D5476Bca",
      "gasPrice": {
        "_hex": "0xd721433a5"
      },
      "gasLimit": {
        "_hex": "0x55f0"
      },
      "to": "0x06Db13340f562261d079E4FA344802DdE8340307",
      "value": {
        "_hex": "0x3ff97907b2aacbb8"
      },
      "nonce": 797,
      "data": "0x",
      "r": "0xfcf6845dfbe0378764fff4952e69ab1bfbd5e7be47ed3cdf314c9ce0a8a65d77",
      "s": "0x276e81910142ca05e658be4847b981be1146efb6f94d2dbf2af7ea57b4f45fa6",
      "v": 27,
      "creates": null,
      "raw": "0xf86e82031d850d721433a58255f09406db13340f562261d079e4fa344802dde8340307883ff97907b2aacbb8801ba0fcf6845dfbe0378764fff4952e69ab1bfbd5e7be47ed3cdf314c9ce0a8a65d77a0276e81910142ca05e658be4847b981be1146efb6f94d2dbf2af7ea57b4f45fa6",
      "networkId": 0,
      "chainId": 0
    }
  ]
}