{
  "hash": "0xdb9458db5715cefbc67380b25a9845fa2d401e06bc5185e8c9f419bf54734602",
  "parentHash": "0x398a485c2bef9bef4fa7f553c84bd1fb3b4955306b0c0862b46521a64794f0cb",
  "number": 65201,
  "timestamp": 1439232807,
  "nonce": "0xbb67a9835a2e448c",
  "difficulty": 1952154104718,
  "gasLimit": {
    "_hex": "0x2fefd8"
  },
  "gasUsed": {
    "_hex": "0x1cee0"
  },
  "miner": "0xf927a40C8B7F6E07c5af7FA2155B4864a4112B13",
  "extraData": "0x",
  "transactions": [
    {
      "hash": "0xb5650d623712a8431a42c5da71919cf6fbeea9d14ae771fbeb967a60d325c7b9",
      "blockHash": "0xdb9458db5715cefbc67380b25a9845fa2d401e06bc5185e8c9f419bf54734602",
      "blockNumber": 65201,
      "transactionIndex": 0,
      "confirmations": null,
      "from": "0x06DFA3E59d0D742BFD801130619a1Bc05ad343A5",
      "gasPrice": {
        "_hex": "0xba43b7400"
      },
      "gasLimit": {
        "_hex": "0x15f90"
      },
      "to": "0x793AE8C1b1a160BFc07BFB0d04F85eab1A71F4f2",
      "value": {
        "_hex": "0x0"
      },
      "nonce": 0,
      "data": "0x3ba15036",
      "r": "0x1fbc10ad33f886e8688ef418646eafe5df3345be78085da8f8774f2a5de7e6d1",
      "s": "0x3cd6a4696786931a859aa39d8e897f9aba5695be4913af1fcbf5324b0cf89999",
      "v": 27,
      "creates": null,
      "raw": "0xf86980850ba43b740083015f9094793ae8c1b1a160bfc07bfb0d04f85eab1a71f4f280843ba150361ba01fbc10ad33f886e8688ef418646eafe5df3345be78085da8f8774f2a5de7e6d1a03cd6a4696786931a859aa39d8e897f9aba5695be4913af1fcbf5324b0cf89999",
      "networkId": 0,
      "chainId": 0
    },
    {
      "hash": "0x59ec245fb1812375e6cdc6f141173c2e5f58dbfb4dbeb116dc1b6468d0d8d195",
      "blockHash": "0xdb9458db5715cefbc67380b25a9845fa2d401e06bc5185e8c9f419bf54734602",
      "blockNumber": 65201,
      "transactionIndex": 1,
      "confirmations": null,
      "from": "0x8bae48F227d978d084B009b775222BAaF61ed9fe",
      "gasPrice": {
        "_hex": "0xba43b7400"
      },
      "gasLimit": {
        "_hex": "0x5262"
      },
      "to": "0x3fB1cD2cd96c6D5c0B5eb3322D807B34482481d4",
      "value": {
        "_hex": "0x6a94d74f430000"
      },
      "nonce": 5,
      "data": "0x",
      "r": "0x2f03d9030d6f95a424ad8790964903acb5521d5cccd87ee69b4f6110da792cdc",
      "s": "0x7d2480d45ca5c75e23d610f5dda964ea03f8236fa86222f72a3641117c64ca4c",
      "v": 28,
      "creates": null,
      "raw": "0xf86b05850ba43b7400825262943fb1cd2cd96c6d5c0b5eb3322d807b34482481d4876a94d74f430000801ca02f03d9030d6f95a424ad8790964903acb5521d5cccd87ee69b4f6110da792cdca07d2480d45ca5c75e23d610f5dda964ea03f8236fa86222f72a3641117c64ca4c",
      "networkId": 0,
      "chainId": 0
    },
    {
      "hash": "0x09448df377e353567cee1230402c1a2b4269dec7c6a4fdb3f4cc22d6895913f3",
      "blockHash": "0xdb9458db5715cefbc67380b25a9845fa2d401e06bc5185e8c9f419bf54734602",
      "blockNumber": 65201,
      "transactionIndex": 2,
      "confirmations": null,
      "from": "0xF5D5F5C1F825e3D1088747219A40dd4886E519B5",
      "gasPrice": {
        "_hex": "0xba43b7400"
      },
      "gasLimit": {
        "_hex": "0x15f90"
      },
      "to": "0x793AE8C1b1a160BFc07BFB0d04F85eab1A71F4f2",
      "value": {
        "_hex": "0x0"
      },
      "nonce": 0,
      "data": "0x3ba15036",
      "r": "0x221355ad05275cb55aed537226d488d9cfba06978c3525fd1ce31afa7ff140cb",
      "s": "0x0b8842347be3d7a5356d8c92c4bc3ce7a41d3a0c9ae88fb25aa62eac275bb0c0",
      "v": 27,
      "creates": null,
      "raw": "0xf86980850ba43b740083015f9094793ae8c1b1a160bfc07bfb0d04f85eab1a71f4f280843ba150361ba0221355ad05275cb55aed537226d488d9cfba06978c3525fd1ce31afa7ff140cba00b8842347be3d7a5356d8c92c4bc3ce7a41d3a0c9ae88fb25aa62eac275bb0c0",
      "networkId": 0,
      "chainId": 0
    }
  ]
}