{
  "hash": "0x97ae34e120575605ec807885a2aea943cb5caf07d29342e3bf2a782220fb2c8d",
  "parentHash": "0x9a5f0e987bcc0ecc9c91963e952b2abc1876616b34e8f2ef7eb9813f403f2af1",
  "number": 78574,
  "timestamp": 1439455962,
  "nonce": "0x5353a2ba61bd825f",
  "difficulty": 2299902205690,
  "gasLimit": {
    "_hex": "0x2fefd8"
  },
  "gasUsed": {
    "_hex": "0x5208"
  },
  "miner": "0x5B40711F65053004dc86F296Dd8F09862E00998F",
  "extraData": "0x476574682f76312e302e312d38326566323666362f6c696e75782f676f312e34",
  "transactions": [
    {
      "hash": "0x80ffc46eb8b80679a2b19b0eeea4d85670f6c03026d2018540e3552028253a3d",
      "blockHash": "0x97ae34e120575605ec807885a2aea943cb5caf07d29342e3bf2a782220fb2c8d",
      "blockNumber": 78574,
      "transactionIndex": 0,
      "confirmations": null,
      "from": "0x120A270bbC009644e35F0bB6ab13f95b8199c4ad",
      "gasPrice": {
        "_hex": "0xdef86fb1c"
      },
      "gasLimit": {
        "_hex": "0x3d090"
      },
      "to": "0x00DBd9c29Ba05dEA3E32e5FeF8485101DF262E5F",
      "value": {
        "_hex": "0xe934eed7be0c00"
      },
      "nonce": 326,
      "data": "0x",
      "r": "0x82ab27a191aff363b0c58181dd8927f568692cfbdb4312aaa8fcbe29dea167a6",
      "s": "0x136440cf8d201a91d4ccffd27e3191c63b7b8edcc48478ebf0869b88178705db",
      "v": 28,
      "creates": null,
      "raw": "0xf86e820146850def86fb1c8303d0909400dbd9c29ba05dea3e32e5fef8485101df262e5f87e934eed7be0c00801ca082ab27a191aff363b0c58181dd8927f568692cfbdb4312aaa8fcbe29dea167a6a0136440cf8d201a91d4ccffd27e3191c63b7b8edcc48478ebf0869b88178705db",
      "networkId": 0,
      "chainId": 0
    }
  ]
}