{
  "hash": "0x7156e9d3155915dfaa58e2ceb407358ab89560909d8da5e0b173bf562585d8fb",
  "parentHash": "0xa17327629259cb1364065c9080872f92afc5375c095788f6021033883e5ff730",
  "number": 82710,
  "timestamp": 1439523960,
  "nonce": "0x7703e840b6697ec2",
  "difficulty": 2374056553962,
  "gasLimit": {
    "_hex": "0x2fefd8"
  },
  "gasUsed": {
    "_hex": "0x1b198"
  },
  "miner": "0xe6A7a1d47ff21B6321162AEA7C6CB457D5476Bca",
  "extraData": "0x476574682f76312e302e312d38326566323666362f6c696e75782f676f312e34",
  "transactions": [
    {
      "hash": "0x2bd3345ec6dd2956752126b5085de9d720f33310c99ff6ebc636b07ac9dd9460",
      "blockHash": "0x7156e9d3155915dfaa58e2ceb407358ab89560909d8da5e0b173bf562585d8fb",
      "blockNumber": 82710,
      "transactionIndex": 0,
      "confirmations": null,
      "from": "0x1c11Aa45C792e202e9ffDc2F12f99D0d209BEf70",
      "gasPrice": {
        "_hex": "0xd77770fbb"
      },
      "gasLimit": {
        "_hex": "0x15f90"
      },
      "to": null,
      "value": {
        "_hex": "0x0"
      },
      "nonce": 1,
      "data": "0x738afbb3091b7c0bb08d0724513c12f46816cf6e646001556206978f60025561030b8061002d60003961033856600061035f537c0100000000000000000000000000000000000000000000000000000000600035046345466f3a81141561011557600034141561004757600060405260206040f35b60025443121561010757600060006000600034600154611388f150346060606059905901600090526000815260005481602001526001816040015280905020554360606060599059016000905260008152600054816020015260028160400152809050205532606060605990590160009052600081526000548160200152600081604001528090502055600054604060405990590160009052600281523281602001528090502055600160005401600055600160e052602060e0f3610114565b6000610100526020610100f35b5b63cd8c55988114156101725760043561012052606060605990590160009052600081526040604059905901600090526002815261012051816020015280905020548160200152600181604001528090502054610140526020610140f35b632b96d14d8114156101cf57600435610120526060606059905901600090526000815260406040599059016000905260028152610120518160200152809050205481602001526002816040015280905020546101a05260206101a0f35b63c6bdc5d28114156101e957600054610200526020610200f35b63111f45df81141561022c576004356102205260606060599059016000905260008152610220518160200152600181604001528090502054610240526020610240f35b6303ba348181141561026f576004356102205260606060599059016000905260008152610220518160200152600081604001528090502054610280526020610280f35b63654fcc028114156102b25760043561022052606060605990590160009052600081526102205181602001526002816040015280905020546102c05260206102c0f35b63f0a0cdf48114156102ee5760043561012052604060405990590160009052600281526101205181602001528090502054610300526020610300f35b63b0e66aca8114156103095760015431610340526020610340f35b505b6000f3",
      "r": "0x8eb03bb4008db246ebf0e8d9681af813c23b2d2b5033c75f787da64fc6c27e7c",
      "s": "0x1cc238a42d58e5ca6d7870646f6ab3192dd288b7e965ae3ecde90f4f4f936ffb",
      "v": 28,
      "creates": "0x49F5e353AAf7A6850f934e757A230E6E4c7ecDDb",
      "raw": "0xf9038f01850d77770fbb83015f908080b9033c738afbb3091b7c0bb08d0724513c12f46816cf6e646001556206978f60025561030b8061002d60003961033856600061035f537c0100000000000000000000000000000000000000000000000000000000600035046345466f3a81141561011557600034141561004757600060405260206040f35b60025443121561010757600060006000600034600154611388f150346060606059905901600090526000815260005481602001526001816040015280905020554360606060599059016000905260008152600054816020015260028160400152809050205532606060605990590160009052600081526000548160200152600081604001528090502055600054604060405990590160009052600281523281602001528090502055600160005401600055600160e052602060e0f3610114565b6000610100526020610100f35b5b63cd8c55988114156101725760043561012052606060605990590160009052600081526040604059905901600090526002815261012051816020015280905020548160200152600181604001528090502054610140526020610140f35b632b96d14d8114156101cf57600435610120526060606059905901600090526000815260406040599059016000905260028152610120518160200152809050205481602001526002816040015280905020546101a05260206101a0f35b63c6bdc5d28114156101e957600054610200526020610200f35b63111f45df81141561022c576004356102205260606060599059016000905260008152610220518160200152600181604001528090502054610240526020610240f35b6303ba348181141561026f576004356102205260606060599059016000905260008152610220518160200152600081604001528090502054610280526020610280f35b63654fcc028114156102b25760043561022052606060605990590160009052600081526102205181602001526002816040015280905020546102c05260206102c0f35b63f0a0cdf48114156102ee5760043561012052604060405990590160009052600281526101205181602001528090502054610300526020610300f35b63b0e66aca8114156103095760015431610340526020610340f35b505b6000f31ca08eb03bb4008db246ebf0e8d9681af813c23b2d2b5033c75f787da64fc6c27e7ca01cc238a42d58e5ca6d7870646f6ab3192dd288b7e965ae3ecde90f4f4f936ffb",
      "networkId": 0,
      "chainId": 0
    },
    {
      "hash": "0x6bb6b6dbb9763d9983e8d2dfef24bb80842cb94ab5a9d88de64959068c6ee555",
      "blockHash": "0x7156e9d3155915dfaa58e2ceb407358ab89560909d8da5e0b173bf562585d8fb",
      "blockNumber": 82710,
      "transactionIndex": 1,
      "confirmations": null,
      "from": "0xEa63C59e990047BF874D6A47900521D711460B79",
      "gasPrice": {
        "_hex": "0xba43b7400"
      },
      "gasLimit": {
        "_hex": "0x5208"
      },
      "to": "0xC47Aaa860008be6f65B58c6C6E02a84e666EfE31",
      "value": {
        "_hex": "0x6f01faa50e0d1dc0"
      },
      "nonce": 1,
      "data": "0x",
      "r": "0x264bfc641a23baf9900ad8d767397e6cd72767ebae9e81ff76efa7c2e7339ac3",
      "s": "0x47990408f896f7c40bfd86c8e372eb698f30747417dd58673aa9bba973686ca1",
      "v": 28,
      "creates": null,
      "raw": "0xf86c01850ba43b740082520894c47aaa860008be6f65b58c6c6e02a84e666efe31886f01faa50e0d1dc0801ca0264bfc641a23baf9900ad8d767397e6cd72767ebae9e81ff76efa7c2e7339ac3a047990408f896f7c40bfd86c8e372eb698f30747417dd58673aa9bba973686ca1",
      "networkId": 0,
      "chainId": 0
    }
  ]
}