{
  "hash": "0x4a44577bf33ba5722a7274b449a803e8d334f3c2b311ed8a96348ce51f28b35e",
  "parentHash": "0xd93b55f74db6c098abd05214d4604c53390fd36a952b86d6708fc5bffc2fb7bd",
  "number": 116321,
  "timestamp": 1440072136,
  "nonce": "0x8e095208c576b174",
  "difficulty": 4591320372234,
  "gasLimit": {
    "_hex": "0x2fefd8"
  },
  "gasUsed": {
    "_hex": "0x5208"
  },
  "miner": "0x790b8a3cE86E707ED0eD32bF89B3269692a23CC1",
  "extraData": "0xd783010001844765746887676f312e342e32856c696e7578",
  "transactions": [
    {
      "hash": "0x3e4656c35eea0130708543f358b194af1ec15b1bbb0a390b83c3cebc4f1d8e6c",
      "blockHash": "0x4a44577bf33ba5722a7274b449a803e8d334f3c2b311ed8a96348ce51f28b35e",
      "blockNumber": 116321,
      "transactionIndex": 0,
      "confirmations": null,
      "from": "0x2910543Af39abA0Cd09dBb2D50200b3E800A63D2",
      "gasPrice": {
        "_hex": "0xd97f0daeb"
      },
      "gasLimit": {
        "_hex": "0x5208"
      },
      "to": "0xA241367664A74D39a35406c9268970d0ef7561Ad",
      "value": {
        "_hex": "0x35aaf0c7481cd78000"
      },
      "nonce": 1130,
      "data": "0x",
      "r": "0x688143984895d89b6938a939176ce80cfb0294814dc6e00b0bacd199f7be2a68",
      "s": "0x10e43f806011740aa3608993d7f292d2b4144bce52bff9e2f779165b6f020cf0",
      "v": 27,
      "creates": null,
      "raw": "0xf86f82046a850d97f0daeb82520894a241367664a74d39a35406c9268970d0ef7561ad8935aaf0c7481cd78000801ba0688143984895d89b6938a939176ce80cfb0294814dc6e00b0bacd199f7be2a68a010e43f806011740aa3608993d7f292d2b4144bce52bff9e2f779165b6f020cf0",
      "networkId": 0,
      "chainId": 0
    }
  ]
}