{
  "hash": "0x89da950941693434ece73783616ec3de4b8cbce4d51b36add71e36690719729b",
  "parentHash": "0x6e17e4878d8204443ff2450f21b3ea47b743631a38d661d5dc0b4d49c9f324d4",
  "number": 82165,
  "timestamp": 1439514613,
  "nonce": "0x15881ce4aabc18bd",
  "difficulty": 2391663876902,
  "gasLimit": {
    "_hex": "0x2fefd8"
  },
  "gasUsed": {
    "_hex": "0xfae0"
  },
  "miner": "0x2f6BCe4fc330B69C9B4c2694d57C63Ec7B18feC7",
  "extraData": "0x476574682f76312e302e312f77696e646f77732f676f312e342e32",
  "transactions": [
    {
      "hash": "0x6a46ed6ed7b51977ca293515f8d301150442c090e13ccc4642f927172ecf27f3",
      "blockHash": "0x89da950941693434ece73783616ec3de4b8cbce4d51b36add71e36690719729b",
      "blockNumber": 82165,
      "transactionIndex": 0,
      "confirmations": null,
      "from": "0xFb3860F4121c432ebdC8Ec6a0331B1B709792e90",
      "gasPrice": {
        "_hex": "0x110c8f7d8de"
      },
      "gasLimit": {
        "_hex": "0xc350"
      },
      "to": "0x2910543Af39abA0Cd09dBb2D50200b3E800A63D2",
      "value": {
        "_hex": "0x2086ac351052600000"
      },
      "nonce": 0,
      "data": "0x454e5457444e563138",
      "r": "0xb9d749d76da267a4a8f38af53b3562775feba33dd437896516b29dc9054f7945",
      "s": "0xec6b797d005ff9ef8bdbee0803b5836e67d6ae57dc65b09bf37ebc8d4cafc397",
      "v": 27,
      "creates": null,
      "raw": "0xf87780860110c8f7d8de82c350942910543af39aba0cd09dbb2d50200b3e800a63d2892086ac35105260000089454e5457444e5631381ba0b9d749d76da267a4a8f38af53b3562775feba33dd437896516b29dc9054f7945a0ec6b797d005ff9ef8bdbee0803b5836e67d6ae57dc65b09bf37ebc8d4cafc397",
      "networkId": 0,
      "chainId": 0
    },
    {
      "hash": "0x339d6284d6a13901c3f4a948569b69f1212cc8f79c4602ae785c1bbe63ab7c6d",
      "blockHash": "0x89da950941693434ece73783616ec3de4b8cbce4d51b36add71e36690719729b",
      "blockNumber": 82165,
      "transactionIndex": 1,
      "confirmations": null,
      "from": "0xd83630DD777Ce7c8Df15D55A8Bb72EB7C7b4568D",
      "gasPrice": {
        "_hex": "0xe14a3e138"
      },
      "gasLimit": {
        "_hex": "0x15f90"
      },
      "to": "0x2910543Af39abA0Cd09dBb2D50200b3E800A63D2",
      "value": {
        "_hex": "0x1c9f78d2893e40000"
      },
      "nonce": 2,
      "data": "0x454e44504338454a38",
      "r": "0x1388542c6a56e6d3a10c289ca94f21e5ddcb1e35fdb0db2f865cd526b5bc23b5",
      "s": "0x258324722d1bf9706f0f678d97ed800f59371580758c3109d8d8e1b598b46df5",
      "v": 28,
      "creates": null,
      "raw": "0xf87702850e14a3e13883015f90942910543af39aba0cd09dbb2d50200b3e800a63d28901c9f78d2893e4000089454e44504338454a381ca01388542c6a56e6d3a10c289ca94f21e5ddcb1e35fdb0db2f865cd526b5bc23b5a0258324722d1bf9706f0f678d97ed800f59371580758c3109d8d8e1b598b46df5",
      "networkId": 0,
      "chainId": 0
    },
    {
      "hash": "0xd5b8f8fce93d34251ebd9843f80b593d8877740f3d9825071a3a26a98b85d087",
      "blockHash": "0x89da950941693434ece73783616ec3de4b8cbce4d51b36add71e36690719729b",
      "blockNumber": 82165,
      "transactionIndex": 2,
      "confirmations": null,
      "from": "0xD05f85Eb920117eeBBf13dd94FeEA60e9eB34537",
      "gasPrice": {
        "_hex": "0xba43b7400"
      },
      "gasLimit": {
        "_hex": "0x5208"
      },
      "to": "0xC47Aaa860008be6f65B58c6C6E02a84e666EfE31",
      "value": {
        "_hex": "0x14b0eb2027cf1dc0"
      },
      "nonce": 0,
      "data": "0x",
      "r": "0xf10400b94f08f1038ee45ab2b1f5dd0d0ceb2028b4b5ef851313e272781c63b2",
      "s": "0x74676a96bb6eaa0d9c539937b087e1bc2a5fc35e70a8fac6226331e79c42d393",
      "v": 28,
      "creates": null,
      "raw": "0xf86c80850ba43b740082520894c47aaa860008be6f65b58c6c6e02a84e666efe318814b0eb2027cf1dc0801ca0f10400b94f08f1038ee45ab2b1f5dd0d0ceb2028b4b5ef851313e272781c63b2a074676a96bb6eaa0d9c539937b087e1bc2a5fc35e70a8fac6226331e79c42d393",
      "networkId": 0,
      "chainId": 0
    }
  ]
}