{
  "hash": "0xf66dc6bf09706e823ed6a18d22c7afcb7c852555ea535a5a74d9ff6bd5e83b46",
  "parentHash": "0xebe7ea15f350d37f3cb5ebb03a19dab6b7f38f643738f665888f6f71d1cbebf0",
  "number": 88119,
  "timestamp": 1439602948,
  "nonce": "0x645b7f1eecce480b",
  "difficulty": 3203513920568,
  "gasLimit": {
    "_hex": "0x2fefd8"
  },
  "gasUsed": {
    "_hex": "0x5208"
  },
  "miner": "0xe6A7a1d47ff21B6321162AEA7C6CB457D5476Bca",
  "extraData": "0x476574682f76312e302e312d38326566323666362f6c696e75782f676f312e34",
  "transactions": [
    {
      "hash": "0x5c3cd56154fc0374c4a5a428bbfb235c7450845ace646b097bd1e167dd5ba671",
      "blockHash": "0xf66dc6bf09706e823ed6a18d22c7afcb7c852555ea535a5a74d9ff6bd5e83b46",
      "blockNumber": 88119,
      "transactionIndex": 0,
      "confirmations": null,
      "from": "0x2910543Af39abA0Cd09dBb2D50200b3E800A63D2",
      "gasPrice": {
        "_hex": "0xdcf11e6ac"
      },
      "gasLimit": {
        "_hex": "0x5208"
      },
      "to": "0x8284fDa6f59DFb02044c6989E2EE89c4Ec6dDD8b",
      "value": {
        "_hex": "0xd018f10d96fb8000"
      },
      "nonce": 721,
      "data": "0x",
      "r": "0xb7183b020be5d562dea7615aa958f84e63c138e9b7c5dd75f3f43304015f4b87",
      "s": "0x59f1e93f84cf238d8bed9043fff6011ebf525e959f67e575ae6116cfc7fcc391",
      "v": 27,
      "creates": null,
      "raw": "0xf86e8202d1850dcf11e6ac825208948284fda6f59dfb02044c6989e2ee89c4ec6ddd8b88d018f10d96fb8000801ba0b7183b020be5d562dea7615aa958f84e63c138e9b7c5dd75f3f43304015f4b87a059f1e93f84cf238d8bed9043fff6011ebf525e959f67e575ae6116cfc7fcc391",
      "networkId": 0,
      "chainId": 0
    }
  ]
}