{
  "hash": "0x4a5bdbef91a642a23d79cd1822218000db0b08c5484cc62e60c56a7f082530fb",
  "parentHash": "0x600556db2530d5648fc793713e2495489eb6b97f2f96b61120a75dc8490a9334",
  "number": 101208,
  "timestamp": 1439819136,
  "nonce": "0x8adec04544dfd0fb",
  "difficulty": 3844986234153,
  "gasLimit": {
    "_hex": "0x2fefd8"
  },
  "gasUsed": {
    "_hex": "0xa410"
  },
  "miner": "0x60a175bB691fEE8557a7b6D8eFC9E49889486f41",
  "extraData": "0x476574682f76312e302e312f77696e646f77732f676f312e342e32",
  "transactions": [
    {
      "hash": "0x626b2396fb41d5bd9a3b3de69a2ac9dd7e4169a9cf6b2c5583b9952820b9aa0f",
      "blockHash": "0x4a5bdbef91a642a23d79cd1822218000db0b08c5484cc62e60c56a7f082530fb",
      "blockNumber": 101208,
      "transactionIndex": 0,
      "confirmations": null,
      "from": "0xD671e71108Bd20F1A8e2A4f73a7449Bf8DAa840f",
      "gasPrice": {
        "_hex": "0xced637d48"
      },
      "gasLimit": {
        "_hex": "0x5208"
      },
      "to": "0x32Be343B94f860124dC4fEe278FDCBD38C102D88",
      "value": {
        "_hex": "0x5692af6925abc800"
      },
      "nonce": 5,
      "data": "0x",
      "r": "0xdce15a26856e1781c14ba1a9b397f7b96f2d70aa16bc8a1b3e1a30b0f6946132",
      "s": "0x6c01b7fc85777e7bd10ca92858e555e23fe00f906e9fb0cc5d8f7ff9b2424b82",
      "v": 27,
      "creates": null,
      "raw": "0xf86c05850ced637d488252089432be343b94f860124dc4fee278fdcbd38c102d88885692af6925abc800801ba0dce15a26856e1781c14ba1a9b397f7b96f2d70aa16bc8a1b3e1a30b0f6946132a06c01b7fc85777e7bd10ca92858e555e23fe00f906e9fb0cc5d8f7ff9b2424b82",
      "networkId": 0,
      "chainId": 0
    },
    {
      "hash": "0xc683c53724fd174b58e70791723a11df232e4846eb04b07f7d80b1cae3a5bf35",
      "blockHash": "0x4a5bdbef91a642a23d79cd1822218000db0b08c5484cc62e60c56a7f082530fb",
      "blockNumber": 101208,
      "transactionIndex": 1,
      "confirmations": null,
      "from": "0x0A38f5Ba343D4eA8641F955ecf98e1c43dF1B5a3",
      "gasPrice": {
        "_hex": "0xced637d48"
      },
      "gasLimit": {
        "_hex": "0x5208"
      },
      "to": "0x32Be343B94f860124dC4fEe278FDCBD38C102D88",
      "value": {
        "_hex": "0x2a4bb9c3de8fce000"
      },
      "nonce": 3,
      "data": "0x",
      "r": "0xe08b1fced99dc0621b64a91e8f0f6c44dc694ec7a45def8903382177bc750423",
      "s": "0x389385504448f7ba5fd90afefc79668c25abb30493ed8cde8a80621c4b3ee813",
      "v": 28,
      "creates": null,
      "raw": "0xf86d03850ced637d488252089432be343b94f860124dc4fee278fdcbd38c102d888902a4bb9c3de8fce000801ca0e08b1fced99dc0621b64a91e8f0f6c44dc694ec7a45def8903382177bc750423a0389385504448f7ba5fd90afefc79668c25abb30493ed8cde8a80621c4b3ee813",
      "networkId": 0,
      "chainId": 0
    }
  ]
}