{
  "hash": "0xe802363e95a7e4700058c64f308ff726eba63ec7a40083e65a0c8dd9124578fe",
  "parentHash": "0xe3498d375c80c0b22b43179a57a0eef7700c3e91428649cb047ab7c8645f95ec",
  "number": 101773,
  "timestamp": 1439827863,
  "nonce": "0x98e43f6fa8fdfc90",
  "difficulty": 3880562098865,
  "gasLimit": {
    "_hex": "0x2fefd8"
  },
  "gasUsed": {
    "_hex": "0x38658"
  },
  "miner": "0xe6A7a1d47ff21B6321162AEA7C6CB457D5476Bca",
  "extraData": "0x476574682f76312e302e312d38326566323666362f6c696e75782f676f312e34",
  "transactions": [
    {
      "hash": "0x64371af762a31b44b060f896cccffbc088a3d73eb18dce141f90c7815cf8c3c6",
      "blockHash": "0xe802363e95a7e4700058c64f308ff726eba63ec7a40083e65a0c8dd9124578fe",
      "blockNumber": 101773,
      "transactionIndex": 0,
      "confirmations": null,
      "from": "0x1a56A50C378d21D0aA544eD9A482300c7f6E78ec",
      "gasPrice": {
        "_hex": "0x174876e800"
      },
      "gasLimit": {
        "_hex": "0x5208"
      },
      "to": "0x119058dC2C577E9c4BA6914678aa9DB565300fFE",
      "value": {
        "_hex": "0x4470e4b41cce423e0000"
      },
      "nonce": 0,
      "data": "0x",
      "r": "0x3b4cd9e1c17deb624412f9c69be9db6b7b9f82f1328d4b3f57995894dd605438",
      "s": "0x267539d53c61b9827b316d64fcf9f9dbc84d04eae2b88008e25cd28b5fdd510e",
      "v": 28,
      "creates": null,
      "raw": "0xf86e8085174876e80082520894119058dc2c577e9c4ba6914678aa9db565300ffe8a4470e4b41cce423e0000801ca03b4cd9e1c17deb624412f9c69be9db6b7b9f82f1328d4b3f57995894dd605438a0267539d53c61b9827b316d64fcf9f9dbc84d04eae2b88008e25cd28b5fdd510e",
      "networkId": 0,
      "chainId": 0
    },
    {
      "hash": "0xa0a8f71d43aa3ed60ab797f0b8934e8d8022a9d9d7ba65f734c5c51e86444fb6",
      "blockHash": "0xe802363e95a7e4700058c64f308ff726eba63ec7a40083e65a0c8dd9124578fe",
      "blockNumber": 101773,
      "transactionIndex": 1,
      "confirmations": null,
      "from": "0x1a56A50C378d21D0aA544eD9A482300c7f6E78ec",
      "gasPrice": {
        "_hex": "0x174876e800"
      },
      "gasLimit": {
        "_hex": "0x5208"
      },
      "to": "0xb0afC46d9ce366D06aB4952Ca27dB1d9557ae9fD",
      "value": {
        "_hex": "0x20a605f7c7c459948000"
      },
      "nonce": 1,
      "data": "0x",
      "r": "0x5c7eb681a5a54a6d825285864d435d5cd3a103865e2c9337a6479c7c08df1060",
      "s": "0x1df31664b5de2b37ab28c06e982c9de6931741f4b46c4ea5d0e7a491932c7705",
      "v": 27,
      "creates": null,
      "raw": "0xf86e0185174876e80082520894b0afc46d9ce366d06ab4952ca27db1d9557ae9fd8a20a605f7c7c459948000801ba05c7eb681a5a54a6d825285864d435d5cd3a103865e2c9337a6479c7c08df1060a01df31664b5de2b37ab28c06e982c9de6931741f4b46c4ea5d0e7a491932c7705",
      "networkId": 0,
      "chainId": 0
    },
    {
      "hash": "0x60c7aa72f38fceef298d679be319f9be17398c3a454cc845e5a5f550c45e337e",
      "blockHash": "0xe802363e95a7e4700058c64f308ff726eba63ec7a40083e65a0c8dd9124578fe",
      "blockNumber": 101773,
      "transactionIndex": 2,
      "confirmations": null,
      "from": "0x1a56A50C378d21D0aA544eD9A482300c7f6E78ec",
      "gasPrice": {
        "_hex": "0x174876e800"
      },
      "gasLimit": {
        "_hex": "0x5208"
      },
      "to": "0xF6b1e9dC460D4d62CC22eC5f987d726929c0f9F0",
      "value": {
        "_hex": "0x15c403fbb457c7fa8000"
      },
      "nonce": 2,
      "data": "0x",
      "r": "0xa38fdcc78121de1d4f44d546f2363674196755d45b8f53eb75c18d7fb7dea9cb",
      "s": "0x721e1780640cf5343471aaec3ab5bd1974b0d9fba8f50915e2731532607cd33c",
      "v": 28,
      "creates": null,
      "raw": "0xf86e0285174876e80082520894f6b1e9dc460d4d62cc22ec5f987d726929c0f9f08a15c403fbb457c7fa8000801ca0a38fdcc78121de1d4f44d546f2363674196755d45b8f53eb75c18d7fb7dea9cba0721e1780640cf5343471aaec3ab5bd1974b0d9fba8f50915e2731532607cd33c",
      "networkId": 0,
      "chainId": 0
    },
    {
      "hash": "0x2fdf43ed568e9ad61abf7ac72734de9cdf58f6844b5b319b1c59fac8a21d1cdf",
      "blockHash": "0xe802363e95a7e4700058c64f308ff726eba63ec7a40083e65a0c8dd9124578fe",
      "blockNumber": 101773,
      "transactionIndex": 3,
      "confirmations": null,
      "from": "0x1a56A50C378d21D0aA544eD9A482300c7f6E78ec",
      "gasPrice": {
        "_hex": "0x174876e800"
      },
      "gasLimit": {
        "_hex": "0x5208"
      },
      "to": "0xcC45122D8b7fA0B1EAa6b29E0FB561422a9239d0",
      "value": {
        "_hex": "0xae201fc136c919a0000"
      },
      "nonce": 3,
      "data": "0x",
      "r": "0x7e42d821a61ea10d9f45a311afd6d3b2f2b97e180dccb0ea5e918cdd9c4b13a1",
      "s": "0x08222d7973921578f825ff2579e9be2ff54678a07243a9c94fcf2a84ecf31839",
      "v": 27,
      "creates": null,
      "raw": "0xf86e0385174876e80082520894cc45122d8b7fa0b1eaa6b29e0fb561422a9239d08a0ae201fc136c919a0000801ba07e42d821a61ea10d9f45a311afd6d3b2f2b97e180dccb0ea5e918cdd9c4b13a1a008222d7973921578f825ff2579e9be2ff54678a07243a9c94fcf2a84ecf31839",
      "networkId": 0,
      "chainId": 0
    },
    {
      "hash": "0x3958bf287da5c3315c5a7cda59ddc86603efa518efb8f1096da1353e871944f4",
      "blockHash": "0xe802363e95a7e4700058c64f308ff726eba63ec7a40083e65a0c8dd9124578fe",
      "blockNumber": 101773,
      "transactionIndex": 4,
      "confirmations": null,
      "from": "0x1a56A50C378d21D0aA544eD9A482300c7f6E78ec",
      "gasPrice": {
        "_hex": "0x174876e800"
      },
      "gasLimit": {
        "_hex": "0x5208"
      },
      "to": "0x49D90d87E28148AB40DB3Fd7ce5d1A7E74581b54",
      "value": {
        "_hex": "0x1a59124b44adc5c98000"
      },
      "nonce": 4,
      "data": "0x",
      "r": "0xd60292bb53a5d636262fd55da48957d683b2a6e27339082c87eccab3c489eb54",
      "s": "0x09d9e32bf2ec9331452bc68cd604e86866746c4d53b4dfdae8213260839083c8",
      "v": 28,
      "creates": null,
      "raw": "0xf86e0485174876e8008252089449d90d87e28148ab40db3fd7ce5d1a7e74581b548a1a59124b44adc5c98000801ca0d60292bb53a5d636262fd55da48957d683b2a6e27339082c87eccab3c489eb54a009d9e32bf2ec9331452bc68cd604e86866746c4d53b4dfdae8213260839083c8",
      "networkId": 0,
      "chainId": 0
    },
    {
      "hash": "0x70bc1a43c9e80caae6b69fe845ba1567826413a8e42d020837c3b09f9cad11c2",
      "blockHash": "0xe802363e95a7e4700058c64f308ff726eba63ec7a40083e65a0c8dd9124578fe",
      "blockNumber": 101773,
      "transactionIndex": 5,
      "confirmations": null,
      "from": "0x1a56A50C378d21D0aA544eD9A482300c7f6E78ec",
      "gasPrice": {
        "_hex": "0x174876e800"
      },
      "gasLimit": {
        "_hex": "0x5208"
      },
      "to": "0xddBd2B932c763bA5b1b7AE3B362eac3e8d40121A",
      "value": {
        "_hex": "0x11e56f5c63c5a1f18000"
      },
      "nonce": 5,
      "data": "0x",
      "r": "0x5848eebd52aa632b493ac597bea064fc49ce3cc320bb97edf0f57290ebef9233",
      "s": "0xfa436fd32d791daab2cfa8c5cc635abcafed338edf75d8c3f6617340924d7f11",
      "v": 28,
      "creates": null,
      "raw": "0xf86e0585174876e80082520894ddbd2b932c763ba5b1b7ae3b362eac3e8d40121a8a11e56f5c63c5a1f18000801ca05848eebd52aa632b493ac597bea064fc49ce3cc320bb97edf0f57290ebef9233a0fa436fd32d791daab2cfa8c5cc635abcafed338edf75d8c3f6617340924d7f11",
      "networkId": 0,
      "chainId": 0
    },
    {
      "hash": "0x66dcb3034f22a41beb85035528d83e664c597598d489474108908671289acc88",
      "blockHash": "0xe802363e95a7e4700058c64f308ff726eba63ec7a40083e65a0c8dd9124578fe",
      "blockNumber": 101773,
      "transactionIndex": 6,
      "confirmations": null,
      "from": "0x1a56A50C378d21D0aA544eD9A482300c7f6E78ec",
      "gasPrice": {
        "_hex": "0x174876e800"
      },
      "gasLimit": {
        "_hex": "0x5208"
      },
      "to": "0x7280ddC41a21dB2483a94ef212bd2cB89077b2B2",
      "value": {
        "_hex": "0xc628269de234f540000"
      },
      "nonce": 6,
      "data": "0x",
      "r": "0x6ef258ea9efadcccb4b8001cdc538ae9b8c85e797534356069c96b0579eb1e3c",
      "s": "0xbc046f67835052c4128aa00ecdbe732cb2bebce71a3d7df9aaf04a99b75a7808",
      "v": 27,
      "creates": null,
      "raw": "0xf86e0685174876e800825208947280ddc41a21db2483a94ef212bd2cb89077b2b28a0c628269de234f540000801ba06ef258ea9efadcccb4b8001cdc538ae9b8c85e797534356069c96b0579eb1e3ca0bc046f67835052c4128aa00ecdbe732cb2bebce71a3d7df9aaf04a99b75a7808",
      "networkId": 0,
      "chainId": 0
    },
    {
      "hash": "0x259ed87b6a1ca9eb7dc2423a4d254a068f1bcd47b5e08256ca16fec18fbdca32",
      "blockHash": "0xe802363e95a7e4700058c64f308ff726eba63ec7a40083e65a0c8dd9124578fe",
      "blockNumber": 101773,
      "transactionIndex": 7,
      "confirmations": null,
      "from": "0x1a56A50C378d21D0aA544eD9A482300c7f6E78ec",
      "gasPrice": {
        "_hex": "0x174876e800"
      },
      "gasLimit": {
        "_hex": "0x5208"
      },
      "to": "0x2Bc9d7b174F672D00FD506F72D8d26C1d8aD9b1D",
      "value": {
        "_hex": "0xc1e14c5ff7a8c068000"
      },
      "nonce": 7,
      "data": "0x",
      "r": "0x337b3509a990e0da2675ddbdf169c9ad9a24e1ff51349b88fac9b9c92ec52324",
      "s": "0x266c24c4300d137146acb6fb394fe4934320c6b3a71deead1c8deae2e342cf0e",
      "v": 28,
      "creates": null,
      "raw": "0xf86e0785174876e800825208942bc9d7b174f672d00fd506f72d8d26c1d8ad9b1d8a0c1e14c5ff7a8c068000801ca0337b3509a990e0da2675ddbdf169c9ad9a24e1ff51349b88fac9b9c92ec52324a0266c24c4300d137146acb6fb394fe4934320c6b3a71deead1c8deae2e342cf0e",
      "networkId": 0,
      "chainId": 0
    },
    {
      "hash": "0xdc4bae8b5b1afd906b2298f1cb5d391b8cddb50b3b720bab75653f8d781160bd",
      "blockHash": "0xe802363e95a7e4700058c64f308ff726eba63ec7a40083e65a0c8dd9124578fe",
      "blockNumber": 101773,
      "transactionIndex": 8,
      "confirmations": null,
      "from": "0x1a56A50C378d21D0aA544eD9A482300c7f6E78ec",
      "gasPrice": {
        "_hex": "0x174876e800"
      },
      "gasLimit": {
        "_hex": "0x5208"
      },
      "to": "0x40585200683A403901372912A89834aADCb55Fdb",
      "value": {
        "_hex": "0xa5fab107829d2e80000"
      },
      "nonce": 8,
      "data": "0x",
      "r": "0xfc07781c69781df5b42859203c25fdee51f65ee8e39c13cfeef605ecb55bf399",
      "s": "0x1f22b73dfcb99a6eb53775b26f385d3193d29706ea1d46651eb7d42ba2409283",
      "v": 27,
      "creates": null,
      "raw": "0xf86e0885174876e8008252089440585200683a403901372912a89834aadcb55fdb8a0a5fab107829d2e80000801ba0fc07781c69781df5b42859203c25fdee51f65ee8e39c13cfeef605ecb55bf399a01f22b73dfcb99a6eb53775b26f385d3193d29706ea1d46651eb7d42ba2409283",
      "networkId": 0,
      "chainId": 0
    },
    {
      "hash": "0xaca0a14ae0230296a0ade11c8602a2fb14ab47fbe6a8c49e7911c943119c7d25",
      "blockHash": "0xe802363e95a7e4700058c64f308ff726eba63ec7a40083e65a0c8dd9124578fe",
      "blockNumber": 101773,
      "transactionIndex": 9,
      "confirmations": null,
      "from": "0x1a56A50C378d21D0aA544eD9A482300c7f6E78ec",
      "gasPrice": {
        "_hex": "0x174876e800"
      },
      "gasLimit": {
        "_hex": "0x5208"
      },
      "to": "0xe63a1879EC438Fd87bc623f66301B703087d3C4c",
      "value": {
        "_hex": "0x9d38d9e374f8d1f0000"
      },
      "nonce": 9,
      "data": "0x",
      "r": "0x3694f7316cb59c9f9f2bfb7bd08c66d44bd5c4ecca664a31573e546d25346b72",
      "s": "0x068a32c94137b4cc80fd3a4fec38f073e6ba9eddc0c4c743db0317276115451c",
      "v": 27,
      "creates": null,
      "raw": "0xf86e0985174876e80082520894e63a1879ec438fd87bc623f66301b703087d3c4c8a09d38d9e374f8d1f0000801ba03694f7316cb59c9f9f2bfb7bd08c66d44bd5c4ecca664a31573e546d25346b72a0068a32c94137b4cc80fd3a4fec38f073e6ba9eddc0c4c743db0317276115451c",
      "networkId": 0,
      "chainId": 0
    },
    {
      "hash": "0x481a00b361e31dadff6d62f92b653179dacb3cd6afea6d844936201ec9bbd77c",
      "blockHash": "0xe802363e95a7e4700058c64f308ff726eba63ec7a40083e65a0c8dd9124578fe",
      "blockNumber": 101773,
      "transactionIndex": 10,
      "confirmations": null,
      "from": "0x1a56A50C378d21D0aA544eD9A482300c7f6E78ec",
      "gasPrice": {
        "_hex": "0x174876e800"
      },
      "gasLimit": {
        "_hex": "0x5208"
      },
      "to": "0xF5970CFAc1Ee18B24e6C1EE48390AD6C6A44Bc18",
      "value": {
        "_hex": "0x176b9e7251f36a30000"
      },
      "nonce": 10,
      "data": "0x",
      "r": "0xc89945ad559a338e16f5b32eba8c76bb810b2e74b448c3ce0dbccb1e55586c90",
      "s": "0xd5e91740c95d0393c8b2acc3c8c473cd611906543b2eb12d5e88a7ab25cff2e8",
      "v": 27,
      "creates": null,
      "raw": "0xf86e0a85174876e80082520894f5970cfac1ee18b24e6c1ee48390ad6c6a44bc188a0176b9e7251f36a30000801ba0c89945ad559a338e16f5b32eba8c76bb810b2e74b448c3ce0dbccb1e55586c90a0d5e91740c95d0393c8b2acc3c8c473cd611906543b2eb12d5e88a7ab25cff2e8",
      "networkId": 0,
      "chainId": 0
    }
  ]
}