{
  "hash": "0x27f6ac46bcb33eb1125f886022fabf17b91f9c39bb681058c62be76b37a5d9a2",
  "parentHash": "0x011a422b21ebc2e285e65800527170b731475080bc682bb844743d1e1dcfb1ae",
  "number": 100523,
  "timestamp": 1439807880,
  "nonce": "0x5f9f50c449ec03fc",
  "difficulty": 3820968881577,
  "gasLimit": {
    "_hex": "0x2fefd8"
  },
  "gasUsed": {
    "_hex": "0xf618"
  },
  "miner": "0x790b8a3cE86E707ED0eD32bF89B3269692a23CC1",
  "extraData": "0xd783010001844765746887676f312e342e32856c696e7578",
  "transactions": [
    {
      "hash": "0xa88247806ae5bf422b45ce8526f3f032aedc302dac9dd10eec8aa7d884a104c0",
      "blockHash": "0x27f6ac46bcb33eb1125f886022fabf17b91f9c39bb681058c62be76b37a5d9a2",
      "blockNumber": 100523,
      "transactionIndex": 0,
      "confirmations": null,
      "from": "0xa70a9a7040d542C632D8e0bE7c5513A8a5Bbc752",
      "gasPrice": {
        "_hex": "0xe159fe268"
      },
      "gasLimit": {
        "_hex": "0x5208"
      },
      "to": "0x32Be343B94f860124dC4fEe278FDCBD38C102D88",
      "value": {
        "_hex": "0x8ac29fa675765800"
      },
      "nonce": 204,
      "data": "0x",
      "r": "0xc65accc3da493f50d7ddba6b59dc25671a372efa3cb69a20190b2a2dd7b53e42",
      "s": "0x44b77ff0fa33cc2976b56dc2254b122ac2ed29354ac13d054ca9ce326b2f3e23",
      "v": 28,
      "creates": null,
      "raw": "0xf86d81cc850e159fe2688252089432be343b94f860124dc4fee278fdcbd38c102d88888ac29fa675765800801ca0c65accc3da493f50d7ddba6b59dc25671a372efa3cb69a20190b2a2dd7b53e42a044b77ff0fa33cc2976b56dc2254b122ac2ed29354ac13d054ca9ce326b2f3e23",
      "networkId": 0,
      "chainId": 0
    },
    {
      "hash": "0x00f8cb51e25ed68c53c856e2166ebc35aac2d2e4ea44a31132e03f0240f55e57",
      "blockHash": "0x27f6ac46bcb33eb1125f886022fabf17b91f9c39bb681058c62be76b37a5d9a2",
      "blockNumber": 100523,
      "transactionIndex": 1,
      "confirmations": null,
      "from": "0xa6BDc31c431B8F97848c9D60cbbe9660dc450eB7",
      "gasPrice": {
        "_hex": "0xe159fe268"
      },
      "gasLimit": {
        "_hex": "0x5208"
      },
      "to": "0x32Be343B94f860124dC4fEe278FDCBD38C102D88",
      "value": {
        "_hex": "0x340629c39f455800"
      },
      "nonce": 148,
      "data": "0x",
      "r": "0x9953372b8251e6e2407b231a1931b98ccdea96c68b4d31a782068508ee773034",
      "s": "0x2b35f86383f42ea6bee24d9f6b130d1e9ed1170a9a50520970ae04b4c93c16c8",
      "v": 27,
      "creates": null,
      "raw": "0xf86d8194850e159fe2688252089432be343b94f860124dc4fee278fdcbd38c102d8888340629c39f455800801ba09953372b8251e6e2407b231a1931b98ccdea96c68b4d31a782068508ee773034a02b35f86383f42ea6bee24d9f6b130d1e9ed1170a9a50520970ae04b4c93c16c8",
      "networkId": 0,
      "chainId": 0
    },
    {
      "hash": "0xb2a594603038167e70ab1f547ef7fe547b217742f14ca8f1decfc0b02aae88fb",
      "blockHash": "0x27f6ac46bcb33eb1125f886022fabf17b91f9c39bb681058c62be76b37a5d9a2",
      "blockNumber": 100523,
      "transactionIndex": 2,
      "confirmations": null,
      "from": "0xeCdf9d571849dE520c84eBEd7Ac4551e483eA5b3",
      "gasPrice": {
        "_hex": "0xe159fe268"
      },
      "gasLimit": {
        "_hex": "0x5208"
      },
      "to": "0x32Be343B94f860124dC4fEe278FDCBD38C102D88",
      "value": {
        "_hex": "0x66e96b2a19548400"
      },
      "nonce": 6,
      "data": "0x",
      "r": "0x390cc74a78be07b2092c353516a911fd7443ec3ac8b25c550b5080f378bc38f9",
      "s": "0x1206f6b3eac9bc4e2826b3e924ee96c66a12d455e1a1b3b21b24f8524991b6ea",
      "v": 27,
      "creates": null,
      "raw": "0xf86c06850e159fe2688252089432be343b94f860124dc4fee278fdcbd38c102d888866e96b2a19548400801ba0390cc74a78be07b2092c353516a911fd7443ec3ac8b25c550b5080f378bc38f9a01206f6b3eac9bc4e2826b3e924ee96c66a12d455e1a1b3b21b24f8524991b6ea",
      "networkId": 0,
      "chainId": 0
    }
  ]
}