{
  "hash": "0x6c3aa1297b574f6a6ec8c7b08ddd1ac2118531caaaee30879c768589ea5bcf3f",
  "parentHash": "0xaa6906430cf241c621f9d4af7a2fc82ea9279f961dff7a1885538c80c057dd20",
  "number": 103251,
  "timestamp": 1439850027,
  "nonce": "0x4420716faabcedc0",
  "difficulty": 4203350536210,
  "gasLimit": {
    "_hex": "0x2fefd8"
  },
  "gasUsed": {
    "_hex": "0xa410"
  },
  "miner": "0xe6A7a1d47ff21B6321162AEA7C6CB457D5476Bca",
  "extraData": "0x476574682f76312e302e312d38326566323666362f6c696e75782f676f312e34",
  "transactions": [
    {
      "hash": "0xfee22c461acaa0824a5a0a1780cfcb91b544a35d25c12e19649c962b7cb59145",
      "blockHash": "0x6c3aa1297b574f6a6ec8c7b08ddd1ac2118531caaaee30879c768589ea5bcf3f",
      "blockNumber": 103251,
      "transactionIndex": 0,
      "confirmations": null,
      "from": "0xee5379D0c1ca47327368027455074C26D9952628",
      "gasPrice": {
        "_hex": "0xccb8991e4"
      },
      "gasLimit": {
        "_hex": "0x15f90"
      },
      "to": "0x029b539130345336FA435C807F08B86a344A1BFe",
      "value": {
        "_hex": "0xa1544be879ea8000"
      },
      "nonce": 15,
      "data": "0x",
      "r": "0x97bec25c8a96f1f4302b68757186c4f547c6e59c34e600e9fce33bed214981f6",
      "s": "0x4ce53181842be6b5b2fbeb3c23ce1af8349d5b1708b7213290f837b00eef34f8",
      "v": 27,
      "creates": null,
      "raw": "0xf86d0f850ccb8991e483015f9094029b539130345336fa435c807f08b86a344a1bfe88a1544be879ea8000801ba097bec25c8a96f1f4302b68757186c4f547c6e59c34e600e9fce33bed214981f6a04ce53181842be6b5b2fbeb3c23ce1af8349d5b1708b7213290f837b00eef34f8",
      "networkId": 0,
      "chainId": 0
    },
    {
      "hash": "0x4716e4038ef9d1c08e8a5b573d4f716894bcb4816c819f57dab6234ace7f553f",
      "blockHash": "0x6c3aa1297b574f6a6ec8c7b08ddd1ac2118531caaaee30879c768589ea5bcf3f",
      "blockNumber": 103251,
      "transactionIndex": 1,
      "confirmations": null,
      "from": "0xcf00A85f3826941e7A25BFcF9Aac575d40410852",
      "gasPrice": {
        "_hex": "0xcb5bea614"
      },
      "gasLimit": {
        "_hex": "0x15f90"
      },
      "to": "0xD9666150A9dA92d9108198a4072970805a8B3428",
      "value": {
        "_hex": "0x4563918244f40000"
      },
      "nonce": 49,
      "data": "0x",
      "r": "0xdec3525fd22b0051a5df841575c8317a35f860429ce53c24a596029519462fae",
      "s": "0x1f264895210597e1f82dc17ae1c4845f0095f1c99369c451d2fd2ce6b75a669e",
      "v": 27,
      "creates": null,
      "raw": "0xf86d31850cb5bea61483015f9094d9666150a9da92d9108198a4072970805a8b3428884563918244f40000801ba0dec3525fd22b0051a5df841575c8317a35f860429ce53c24a596029519462faea01f264895210597e1f82dc17ae1c4845f0095f1c99369c451d2fd2ce6b75a669e",
      "networkId": 0,
      "chainId": 0
    }
  ]
}