{
  "hash": "0xc737b7f92e4718d04bcaca2365f7cd6f9cc8c34f2fd6a1ea9a018b2dc561c55d",
  "parentHash": "0x31cd3c217af17c61bc55131f71ef7db72ab967f5e1a9fda1037d0c9d6027872b",
  "number": 64986,
  "timestamp": 1439229488,
  "nonce": "0xf2e00f40a1efc42c",
  "difficulty": 1913510530499,
  "gasLimit": {
    "_hex": "0x2fefd5"
  },
  "gasUsed": {
    "_hex": "0x17cd8"
  },
  "miner": "0x52Dc504a422f0E2A9e7632A34a50f1a82F8224c7",
  "extraData": "0x476574682f76312e302e312f6c696e75782f676f312e342e32",
  "transactions": [
    {
      "hash": "0xcbe55745c3793106bef0de794720beaea12d1ce31c0d44ad3c79a684b7e53f31",
      "blockHash": "0xc737b7f92e4718d04bcaca2365f7cd6f9cc8c34f2fd6a1ea9a018b2dc561c55d",
      "blockNumber": 64986,
      "transactionIndex": 0,
      "confirmations": null,
      "from": "0xd5F1282Ac81119947Fa8a0E20833fF45165Ae8C2",
      "gasPrice": {
        "_hex": "0xba43b7400"
      },
      "gasLimit": {
        "_hex": "0x15f90"
      },
      "to": "0x793AE8C1b1a160BFc07BFB0d04F85eab1A71F4f2",
      "value": {
        "_hex": "0x0"
      },
      "nonce": 0,
      "data": "0x3ba15036",
      "r": "0xc35a0d1bbac0ea5cba8ec884552541e1fc6b056f1950b6d0d2a46db2d105a452",
      "s": "0x0b94303a6e796aafc049e8739f6e0e213304a696d1e38b077f126ebdc5180792",
      "v": 27,
      "creates": null,
      "raw": "0xf86980850ba43b740083015f9094793ae8c1b1a160bfc07bfb0d04f85eab1a71f4f280843ba150361ba0c35a0d1bbac0ea5cba8ec884552541e1fc6b056f1950b6d0d2a46db2d105a452a00b94303a6e796aafc049e8739f6e0e213304a696d1e38b077f126ebdc5180792",
      "networkId": 0,
      "chainId": 0
    },
    {
      "hash": "0xd47cf963cc575ceb5e040fe1785160d7d4a74ec314e5be00ff1aa317335ca3ef",
      "blockHash": "0xc737b7f92e4718d04bcaca2365f7cd6f9cc8c34f2fd6a1ea9a018b2dc561c55d",
      "blockNumber": 64986,
      "transactionIndex": 1,
      "confirmations": null,
      "from": "0xb31a3B3d607B972e8DC8bd1c1F890C52047DcE05",
      "gasPrice": {
        "_hex": "0xba43b7400"
      },
      "gasLimit": {
        "_hex": "0x15f90"
      },
      "to": "0x793AE8C1b1a160BFc07BFB0d04F85eab1A71F4f2",
      "value": {
        "_hex": "0x0"
      },
      "nonce": 0,
      "data": "0x3ba15036",
      "r": "0x5101a1ac711f6ecbd94c68a8847714d1f2560557a1cc91458eccb3adfa43a182",
      "s": "0x58304cbcc377beab76e9abfa1b3217ec15e7fac85fecaabdfe9dda36e40326ad",
      "v": 27,
      "creates": null,
      "raw": "0xf86980850ba43b740083015f9094793ae8c1b1a160bfc07bfb0d04f85eab1a71f4f280843ba150361ba05101a1ac711f6ecbd94c68a8847714d1f2560557a1cc91458eccb3adfa43a182a058304cbcc377beab76e9abfa1b3217ec15e7fac85fecaabdfe9dda36e40326ad",
      "networkId": 0,
      "chainId": 0
    }
  ]
}