{
  "hash": "0x2c59cbe23225a631539585acbdf83d5bcff012a0eb320534c797d29aeecbb1b7",
  "parentHash": "0x20fad030f833824dea9bfde7eac0c3bde1da11586a83094fd75ab5abdaa8cffc",
  "number": 79813,
  "timestamp": 1439475492,
  "nonce": "0x996d640696f2d2b4",
  "difficulty": 2357546001466,
  "gasLimit": {
    "_hex": "0x2fefd5"
  },
  "gasUsed": {
    "_hex": "0x5208"
  },
  "miner": "0x8B454d830feF179e66206840F8F3D1d83bC32b17",
  "extraData": "0x476574682f76312e302e312f77696e646f77732f676f312e342e32",
  "transactions": [
    {
      "hash": "0x2d32c6753fd6b8e54afceff6396e1eb334062e08fb8bac5cb6bb5f050157319f",
      "blockHash": "0x2c59cbe23225a631539585acbdf83d5bcff012a0eb320534c797d29aeecbb1b7",
      "blockNumber": 79813,
      "transactionIndex": 0,
      "confirmations": null,
      "from": "0x2910543Af39abA0Cd09dBb2D50200b3E800A63D2",
      "gasPrice": {
        "_hex": "0xda32aa20f"
      },
      "gasLimit": {
        "_hex": "0x5208"
      },
      "to": "0x07936944E0D93499f666a0dFa5e7D399A0cC3fCA",
      "value": {
        "_hex": "0x1cf5a5b7bdc5116000"
      },
      "nonce": 373,
      "data": "0x",
      "r": "0x22284244e1d2119574a38ebe6ca0d2e55d29a48763c9b19ae896382e479c7379",
      "s": "0x7512b98a0212b7a58eb5eedefa0519ababd027c0db20a317986ffad0127a0fb9",
      "v": 27,
      "creates": null,
      "raw": "0xf86f820175850da32aa20f8252089407936944e0d93499f666a0dfa5e7d399a0cc3fca891cf5a5b7bdc5116000801ba022284244e1d2119574a38ebe6ca0d2e55d29a48763c9b19ae896382e479c7379a07512b98a0212b7a58eb5eedefa0519ababd027c0db20a317986ffad0127a0fb9",
      "networkId": 0,
      "chainId": 0
    }
  ]
}