{
  "hash": "0xbd5e5a15aa8aa1eb793f4f7921141c53b198c2a6958338fd693c210604c87cb8",
  "parentHash": "0x6b152c28da912814ad9bc2bcd635afdca3c7eddb55c87e5f882090774ac2014a",
  "number": 76383,
  "timestamp": 1439419513,
  "nonce": "0x20aebaa36e8808b3",
  "difficulty": 2230812946808,
  "gasLimit": {
    "_hex": "0x2fefd8"
  },
  "gasUsed": {
    "_hex": "0x546c"
  },
  "miner": "0x20c6Efe179C293690A5B3375F5bd81c2f07Ed037",
  "extraData": "0x476574682f76312e302e312d38326566323666362f6c696e75782f676f312e34",
  "transactions": [
    {
      "hash": "0x851808847acab86a46f791e8aeda2aff0d72f6ad4f5effcc04c7bf80022da3f6",
      "blockHash": "0xbd5e5a15aa8aa1eb793f4f7921141c53b198c2a6958338fd693c210604c87cb8",
      "blockNumber": 76383,
      "transactionIndex": 0,
      "confirmations": null,
      "from": "0x71cEe16c3410CB351b27dD9CFa24cF431287C837",
      "gasPrice": {
        "_hex": "0xd7d40ace3"
      },
      "gasLimit": {
        "_hex": "0x55f0"
      },
      "to": "0x2910543Af39abA0Cd09dBb2D50200b3E800A63D2",
      "value": {
        "_hex": "0x13f306a2409fc0000"
      },
      "nonce": 0,
      "data": "0x454e504a4d45585747",
      "r": "0x88b24b568b838ff8ec860d72dfb9c10fd66f19730efd8820f4ff097aefb58584",
      "s": "0x0c1fc68e689143a4ebe408d0349e1f7779a4fd3024481072c38fb4856ef43e5e",
      "v": 27,
      "creates": null,
      "raw": "0xf87680850d7d40ace38255f0942910543af39aba0cd09dbb2d50200b3e800a63d289013f306a2409fc000089454e504a4d455857471ba088b24b568b838ff8ec860d72dfb9c10fd66f19730efd8820f4ff097aefb58584a00c1fc68e689143a4ebe408d0349e1f7779a4fd3024481072c38fb4856ef43e5e",
      "networkId": 0,
      "chainId": 0
    }
  ]
}