{
  "hash": "0x172422c6eac8236f886b94cd51c5325fe6eba6f6daf71af52572e1809ccdcb9d",
  "parentHash": "0x11ee8f7ede9d87c751807104b6461f5df5dee6efbe2319769b39abe0effc859e",
  "number": 50426,
  "timestamp": 1438989072,
  "nonce": "0x72a906ef2f17c4f4",
  "difficulty": 1508955040656,
  "gasLimit": {
    "_hex": "0x61bf1"
  },
  "gasUsed": {
    "_hex": "0x13269"
  },
  "miner": "0x3F98e477a361F777DA14611a7e419A75Fd238b6b",
  "extraData": "0x476574682f76312e302e312f6c696e75782f676f312e342e32",
  "transactions": [
    {
      "hash": "0xb889c9f85773e2880f17f55367dcd2a73656cc51581e944e01d5eb86b602dbd9",
      "blockHash": "0x172422c6eac8236f886b94cd51c5325fe6eba6f6daf71af52572e1809ccdcb9d",
      "blockNumber": 50426,
      "transactionIndex": 0,
      "confirmations": null,
      "from": "0x3090F8130eC44466afadB36ED3C926133963677B",
      "gasPrice": {
        "_hex": "0x110c8f7d8de"
      },
      "gasLimit": {
        "_hex": "0xc350"
      },
      "to": "0x2910543Af39abA0Cd09dBb2D50200b3E800A63D2",
      "value": {
        "_hex": "0x6c6b935b8bbd400000"
      },
      "nonce": 0,
      "data": "0x454e515944574e3338",
      "r": "0x5a1a5d606a0568892f103a32516c7eb7e391f8f9871ad6f0a30d4ad01c8a8112",
      "s": "0x1457b9fd3275f694ce53af63b75eb41eb55626766ee36cae9827f3e1a009f6b4",
      "v": 27,
      "creates": null,
      "raw": "0xf87780860110c8f7d8de82c350942910543af39aba0cd09dbb2d50200b3e800a63d2896c6b935b8bbd40000089454e515944574e33381ba05a1a5d606a0568892f103a32516c7eb7e391f8f9871ad6f0a30d4ad01c8a8112a01457b9fd3275f694ce53af63b75eb41eb55626766ee36cae9827f3e1a009f6b4",
      "networkId": 0,
      "chainId": 0
    },
    {
      "hash": "0x28fd9ddcf4c5b1cd67c1a6d694e57ae39c08bcb5b314984986b45c4a2505b355",
      "blockHash": "0x172422c6eac8236f886b94cd51c5325fe6eba6f6daf71af52572e1809ccdcb9d",
      "blockNumber": 50426,
      "transactionIndex": 1,
      "confirmations": null,
      "from": "0xa14Cf6cEC1c6aAe4b608458F6e14692863A937Aa",
      "gasPrice": {
        "_hex": "0xcd2d5e470"
      },
      "gasLimit": {
        "_hex": "0x30d40"
      },
      "to": "0x109C4f2CCc82C4d77Bde15F306707320294Aea3F",
      "value": {
        "_hex": "0xde0b6b3a7640000"
      },
      "nonce": 0,
      "data": "0x",
      "r": "0x635fc92a0d0014cea46cbe39552d3d7f72b7ab6c1eaf5f0c1d11dcec2b201082",
      "s": "0x3c86b17db78ff7b472e75c2fae8cbf245f2189362bc09941f94cb16bef27743c",
      "v": 28,
      "creates": null,
      "raw": "0xf86d80850cd2d5e47083030d4094109c4f2ccc82c4d77bde15f306707320294aea3f880de0b6b3a7640000801ca0635fc92a0d0014cea46cbe39552d3d7f72b7ab6c1eaf5f0c1d11dcec2b201082a03c86b17db78ff7b472e75c2fae8cbf245f2189362bc09941f94cb16bef27743c",
      "networkId": 0,
      "chainId": 0
    }
  ]
}