{
  "hash": "0x34e2ccac892e475154d6899693a0aa60e34cddfa6ae88650f2a2180552e3e97d",
  "parentHash": "0x4d5897f7f61322ac7b962ea44f6336794b7d521ec68f78c41474a4e5e2cbd0ff",
  "number": 100984,
  "timestamp": 1439815556,
  "nonce": "0x3a4f39d063565431",
  "difficulty": 3863909669149,
  "gasLimit": {
    "_hex": "0x2fefd8"
  },
  "gasUsed": {
    "_hex": "0x5208"
  },
  "miner": "0xe6A7a1d47ff21B6321162AEA7C6CB457D5476Bca",
  "extraData": "0x476574682f76312e302e312d38326566323666362f6c696e75782f676f312e34",
  "transactions": [
    {
      "hash": "0x94fec62d3d8bba66377639051d43ba541771cbd504359d02ed824e552b60ea24",
      "blockHash": "0x34e2ccac892e475154d6899693a0aa60e34cddfa6ae88650f2a2180552e3e97d",
      "blockNumber": 100984,
      "transactionIndex": 0,
      "confirmations": null,
      "from": "0x943800a6196105B4937F48570Dc5D0232a962da5",
      "gasPrice": {
        "_hex": "0xba43b7400"
      },
      "gasLimit": {
        "_hex": "0x5b04"
      },
      "to": "0x02d7FFc396D24b1dBfca72ce1ae8a22dfa5DA000",
      "value": {
        "_hex": "0x36a4cf636319c0000"
      },
      "nonce": 8,
      "data": "0x",
      "r": "0x30048e18a65935386e507b0a82e0f3a0650f8450befe95881f9c23561148d34a",
      "s": "0xa6136c72ebf573c87aa224a7edb0a8938e849a495de652fa0a91302843f5e3c9",
      "v": 27,
      "creates": null,
      "raw": "0xf86d08850ba43b7400825b049402d7ffc396d24b1dbfca72ce1ae8a22dfa5da00089036a4cf636319c0000801ba030048e18a65935386e507b0a82e0f3a0650f8450befe95881f9c23561148d34aa0a6136c72ebf573c87aa224a7edb0a8938e849a495de652fa0a91302843f5e3c9",
      "networkId": 0,
      "chainId": 0
    }
  ]
}