{
  "hash": "0x9e1c7860dff6471ccb364a6c5a5d731f7c257a0deddeab2453923c40ec550859",
  "parentHash": "0xb60a09daa3f4af3d40d00099434e4444401bc192c51522b70a0502f1c0970af9",
  "number": 119365,
  "timestamp": 1440141576,
  "nonce": "0xaea7c6b474cf51c3",
  "difficulty": 4413827687206,
  "gasLimit": {
    "_hex": "0x2fefd8"
  },
  "gasUsed": {
    "_hex": "0x5208"
  },
  "miner": "0x52bc44d5378309EE2abF1539BF71dE1b7d7bE3b5",
  "extraData": "0xd783010002844765746887676f312e342e32856c696e7578",
  "transactions": [
    {
      "hash": "0xd7e45999ed214ac9966832a6e57db7d29e3060aeb4ad912daefa2bcec15a8207",
      "blockHash": "0x9e1c7860dff6471ccb364a6c5a5d731f7c257a0deddeab2453923c40ec550859",
      "blockNumber": 119365,
      "transactionIndex": 0,
      "confirmations": null,
      "from": "0xBFdD9820a04283b289957956353b5F3C1F665EcF",
      "gasPrice": {
        "_hex": "0xba43b7400"
      },
      "gasLimit": {
        "_hex": "0x5208"
      },
      "to": "0x32Be343B94f860124dC4fEe278FDCBD38C102D88",
      "value": {
        "_hex": "0xc69744c66c0c5000"
      },
      "nonce": 51,
      "data": "0x",
      "r": "0x44a8c00bc494f0041181dc859b8453d1f49099725ab62055c280da6d3a5815c1",
      "s": "0x19b1b6731148ad7865da7b8133c87b68520049a20a4f829acca4fb210448af29",
      "v": 27,
      "creates": null,
      "raw": "0xf86c33850ba43b74008252089432be343b94f860124dc4fee278fdcbd38c102d8888c69744c66c0c5000801ba044a8c00bc494f0041181dc859b8453d1f49099725ab62055c280da6d3a5815c1a019b1b6731148ad7865da7b8133c87b68520049a20a4f829acca4fb210448af29",
      "networkId": 0,
      "chainId": 0
    }
  ]
}