{
  "hash": "0xd3ef6297ede8e588457ce73975c6f8b9653a6c5b2ed80df1ea412ff28956f3ca",
  "parentHash": "0x1d620c4b2f6f35ede2128c415380b46de05a904932d2924291a9027acaca3be6",
  "number": 79480,
  "timestamp": 1439470393,
  "nonce": "0xf30c249ef7d090fb",
  "difficulty": 2333588094513,
  "gasLimit": {
    "_hex": "0x2fefd8"
  },
  "gasUsed": {
    "_hex": "0x5208"
  },
  "miner": "0xe6A7a1d47ff21B6321162AEA7C6CB457D5476Bca",
  "extraData": "0x476574682f76312e302e312d38326566323666362f6c696e75782f676f312e34",
  "transactions": [
    {
      "hash": "0xb3bad8e4b7c410337092092576e5bfd103d08993498eb8cafe4fdec048f42893",
      "blockHash": "0xd3ef6297ede8e588457ce73975c6f8b9653a6c5b2ed80df1ea412ff28956f3ca",
      "blockNumber": 79480,
      "transactionIndex": 0,
      "confirmations": null,
      "from": "0x2910543Af39abA0Cd09dBb2D50200b3E800A63D2",
      "gasPrice": {
        "_hex": "0xdf9a35145"
      },
      "gasLimit": {
        "_hex": "0x5208"
      },
      "to": "0x8F586E3212291c58DCc78980a9c3432a3aFd3b6E",
      "value": {
        "_hex": "0x25f261cfc47d8f8000"
      },
      "nonce": 357,
      "data": "0x",
      "r": "0x07ab110717a8685f6e77eeed981994a79d972b2ec10190b1e9db0332eb2d6ff6",
      "s": "0x21eeb1faba0c267ecba1622894bca1739f9023ed8da36ef701d647884cc54740",
      "v": 28,
      "creates": null,
      "raw": "0xf86f820165850df9a35145825208948f586e3212291c58dcc78980a9c3432a3afd3b6e8925f261cfc47d8f8000801ca007ab110717a8685f6e77eeed981994a79d972b2ec10190b1e9db0332eb2d6ff6a021eeb1faba0c267ecba1622894bca1739f9023ed8da36ef701d647884cc54740",
      "networkId": 0,
      "chainId": 0
    }
  ]
}