{
  "hash": "0x297c435d829f99173e98f039554a40b63ae3378e98128d371feca4399fa0a2c6",
  "parentHash": "0xc85ad0223e4be7d8586ac64d3a26566098190803e8b0f497f7d3a6729ecd81eb",
  "number": 110471,
  "timestamp": 1439974337,
  "nonce": "0x99e12efa920a4a6f",
  "difficulty": 4379845516826,
  "gasLimit": {
    "_hex": "0x2fefd8"
  },
  "gasUsed": {
    "_hex": "0xf618"
  },
  "miner": "0x7E6930B63D03e88F5928C5cd6ee3FCee4D714F7F",
  "extraData": "0x",
  "transactions": [
    {
      "hash": "0x911a7706f926d55ee7dbedd027cbc2d3a36e4fcf3f934b3b787550793c51ce61",
      "blockHash": "0x297c435d829f99173e98f039554a40b63ae3378e98128d371feca4399fa0a2c6",
      "blockNumber": 110471,
      "transactionIndex": 0,
      "confirmations": null,
      "from": "0x037658E13e294088Cfd16A534b9C1F3B37282eB2",
      "gasPrice": {
        "_hex": "0xdca9dfd00"
      },
      "gasLimit": {
        "_hex": "0x5208"
      },
      "to": "0x32Be343B94f860124dC4fEe278FDCBD38C102D88",
      "value": {
        "_hex": "0x49e9b20796646800"
      },
      "nonce": 5,
      "data": "0x",
      "r": "0xcb0d477d2b48ce88a0538347345830edfcfec96111b778f155612ce18e339af3",
      "s": "0x223d6ee797bc07c22717e80cb07c3e316aea072653188b8dd39f516ca27bfd6f",
      "v": 27,
      "creates": null,
      "raw": "0xf86c05850dca9dfd008252089432be343b94f860124dc4fee278fdcbd38c102d888849e9b20796646800801ba0cb0d477d2b48ce88a0538347345830edfcfec96111b778f155612ce18e339af3a0223d6ee797bc07c22717e80cb07c3e316aea072653188b8dd39f516ca27bfd6f",
      "networkId": 0,
      "chainId": 0
    },
    {
      "hash": "0x61864bd6d7691e0dbb9c85a6ffa9b2c8553af3325ff3e53b35a6333ccd8dc82e",
      "blockHash": "0x297c435d829f99173e98f039554a40b63ae3378e98128d371feca4399fa0a2c6",
      "blockNumber": 110471,
      "transactionIndex": 1,
      "confirmations": null,
      "from": "0x5BeBc02e4CDF3e92B5a2947CfD1430c4EBBa4039",
      "gasPrice": {
        "_hex": "0xdca9dfd00"
      },
      "gasLimit": {
        "_hex": "0x5208"
      },
      "to": "0x32Be343B94f860124dC4fEe278FDCBD38C102D88",
      "value": {
        "_hex": "0x8bff28e8a50fd000"
      },
      "nonce": 5,
      "data": "0x",
      "r": "0x9086ec602a200b7318dc82a6b449482dcc340c007ec5e36c4a08997197c48315",
      "s": "0x1b5cbad1e0a55eb72aee9a4237a60ec327f6fe95aff0a43566868002c78962d0",
      "v": 27,
      "creates": null,
      "raw": "0xf86c05850dca9dfd008252089432be343b94f860124dc4fee278fdcbd38c102d88888bff28e8a50fd000801ba09086ec602a200b7318dc82a6b449482dcc340c007ec5e36c4a08997197c48315a01b5cbad1e0a55eb72aee9a4237a60ec327f6fe95aff0a43566868002c78962d0",
      "networkId": 0,
      "chainId": 0
    },
    {
      "hash": "0x9456194f2501762ed8cd1d7b3c572fabea34cab22e0bd25bb49efeac89a0423e",
      "blockHash": "0x297c435d829f99173e98f039554a40b63ae3378e98128d371feca4399fa0a2c6",
      "blockNumber": 110471,
      "transactionIndex": 2,
      "confirmations": null,
      "from": "0xe33977E292cceF99Ea8828733e97562F3690a8ad",
      "gasPrice": {
        "_hex": "0xdca9dfd00"
      },
      "gasLimit": {
        "_hex": "0x5208"
      },
      "to": "0x32Be343B94f860124dC4fEe278FDCBD38C102D88",
      "value": {
        "_hex": "0x71f9811b5c553c00"
      },
      "nonce": 5,
      "data": "0x",
      "r": "0xa1371cd29170d917d09f9e69331e96227af228468dce527da5ee989034bf2c46",
      "s": "0x22104c4627279d061fdf25578320ec7292b4e2866dafe825e14abbc822d0061a",
      "v": 27,
      "creates": null,
      "raw": "0xf86c05850dca9dfd008252089432be343b94f860124dc4fee278fdcbd38c102d888871f9811b5c553c00801ba0a1371cd29170d917d09f9e69331e96227af228468dce527da5ee989034bf2c46a022104c4627279d061fdf25578320ec7292b4e2866dafe825e14abbc822d0061a",
      "networkId": 0,
      "chainId": 0
    }
  ]
}