{
  "hash": "0x7e1f147226acd2200d630ef57f61ec3d8ad35df64d7ccce4077344daf5c3982c",
  "parentHash": "0xb29414b3960d872ca63b31f99e33dd6b2ea2f31974676252d5ad10fa252f1d2d",
  "number": 95578,
  "timestamp": 1439726041,
  "nonce": "0xb06148f7dd1e5797",
  "difficulty": 3639248135836,
  "gasLimit": {
    "_hex": "0x2fefd8"
  },
  "gasUsed": {
    "_hex": "0x5208"
  },
  "miner": "0xa70a9a7040d542C632D8e0bE7c5513A8a5Bbc752",
  "extraData": "0x",
  "transactions": [
    {
      "hash": "0x90f28474a01ce5193ca34742f3c50d6c4b23fdc3e875b90808fa693c1e3c4783",
      "blockHash": "0x7e1f147226acd2200d630ef57f61ec3d8ad35df64d7ccce4077344daf5c3982c",
      "blockNumber": 95578,
      "transactionIndex": 0,
      "confirmations": null,
      "from": "0x790F91Bd5D1C5cC4739aE91300db89e1c1303C93",
      "gasPrice": {
        "_hex": "0xcbf92ee65"
      },
      "gasLimit": {
        "_hex": "0x5208"
      },
      "to": "0xD2e57181beE0BF25a2E7D377EaCCec854Bd65334",
      "value": {
        "_hex": "0x1b1ae4d6e2ef500000"
      },
      "nonce": 1,
      "data": "0x",
      "r": "0x6d6ce703962697c1ba39f821393b21dfd9d9522ae6a40852a60831a5b5bc7dcc",
      "s": "0x0a638f020361e41e69b2d2e90213b846821388ac3a68354ffab994c11b406029",
      "v": 27,
      "creates": null,
      "raw": "0xf86d01850cbf92ee6582520894d2e57181bee0bf25a2e7d377eaccec854bd65334891b1ae4d6e2ef500000801ba06d6ce703962697c1ba39f821393b21dfd9d9522ae6a40852a60831a5b5bc7dcca00a638f020361e41e69b2d2e90213b846821388ac3a68354ffab994c11b406029",
      "networkId": 0,
      "chainId": 0
    }
  ]
}