{
  "hash": "0x77e7eac52c91c691a8fda3f198dadfaa6bb43defeb35da4de4af426ca929346e",
  "parentHash": "0xc7039446898fe45a3df8fc6b2476914ddbb320c347ed4b5b104ef75afdde872d",
  "number": 101358,
  "timestamp": 1439821781,
  "nonce": "0x7bd0173c407bc691",
  "difficulty": 3811272329582,
  "gasLimit": {
    "_hex": "0x2fefd8"
  },
  "gasUsed": {
    "_hex": "0x4203e"
  },
  "miner": "0xe6A7a1d47ff21B6321162AEA7C6CB457D5476Bca",
  "extraData": "0x476574682f76312e302e312d38326566323666362f6c696e75782f676f312e34",
  "transactions": [
    {
      "hash": "0xc2e07333057065069fe544aa9786fd16bcda5aeaca643f21714bffa32ce1bae8",
      "blockHash": "0x77e7eac52c91c691a8fda3f198dadfaa6bb43defeb35da4de4af426ca929346e",
      "blockNumber": 101358,
      "transactionIndex": 0,
      "confirmations": null,
      "from": "0x5FB181054Cdd53e106812529a8D545b2eC664E87",
      "gasPrice": {
        "_hex": "0x1016788fec5"
      },
      "gasLimit": {
        "_hex": "0x4cb2f"
      },
      "to": "0x60794423f500DD2F95327fA1ffE71E428D2C0636",
      "value": {
        "_hex": "0x2386f26fc10000"
      },
      "nonce": 2,
      "data": "0x",
      "r": "0x19cb1e58d6b4a683aab425d3ab11858236c00941328a2029773290409455de0f",
      "s": "0x069aa6c0ce5319b0ba5394e7b78a3d12586610dfdfa0c66ce2ac27c825e4eb51",
      "v": 28,
      "creates": null,
      "raw": "0xf86d028601016788fec58304cb2f9460794423f500dd2f95327fa1ffe71e428d2c0636872386f26fc10000801ca019cb1e58d6b4a683aab425d3ab11858236c00941328a2029773290409455de0fa0069aa6c0ce5319b0ba5394e7b78a3d12586610dfdfa0c66ce2ac27c825e4eb51",
      "networkId": 0,
      "chainId": 0
    },
    {
      "hash": "0x7acdcbc3500dce2bb08994413935e673ec5ad9425a160460f3724bc78289ecd6",
      "blockHash": "0x77e7eac52c91c691a8fda3f198dadfaa6bb43defeb35da4de4af426ca929346e",
      "blockNumber": 101358,
      "transactionIndex": 1,
      "confirmations": null,
      "from": "0x8674c218F0351a62C3BA78C34FD2182A93Da94E2",
      "gasPrice": {
        "_hex": "0xba43b7400"
      },
      "gasLimit": {
        "_hex": "0xf4240"
      },
      "to": null,
      "value": {
        "_hex": "0x0"
      },
      "nonce": 80,
      "data": "0x6060604052610353806100136000396000f300606060405260e060020a6000350463541d920c8114610031578063a8fd3e3e1461012d578063dd181c73146101aa575b005b60206004803590810135601f810183900490920260809081016040526060838152610217936024939192918401918190838280828437505060408051602088356004810135601f810183900483028401830190945283835297986044989297509190910194509092508291508401838280828437509495505050505050604051825160009184918190608090808381848960046020601f850104600302600f01f15090910182900390912080845260208481526040852093518454818655858752958290209295601f01919091048201929091908215610333579182015b8281111561033357825182600050559160200191906001019061010f565b602060248035600481810135601f81018590049094026080908101604052606085815261002f959235946044949193910191819083828082843750949550505050505060408051838152905182917f4e65eeae4613f40f47eed3078e931a35588aa2030953f6d6bee99bfd25a6e157919081900360200190a25050565b61022d6004356000602081815291815260409081902080546080601f820185900490940284019092526060828152929091908282801561020f57820191906000526020600020905b8154815290600101906020018083116101f257829003601f168201915b505050505081565b6040518082815260200191505060405180910390f35b60405180806020018281038252838181518152602001915080519060200190808383829060006004602084601f0104600302600f01f150905090810190601f16801561028d5780820380516001836020036101000a031916815260200191505b509250505060405180910390f35b5050807f65c3cdd093a47e853536dc262b04af07d801df3a7ecd752adc0bbce511ac5b068360405180806020018281038252838181518152602001915080519060200190808383829060006004602084601f0104600302600f01f150905090810190601f1680156103205780820380516001836020036101000a031916815260200191505b509250505060405180910390a292915050565b5061029b9291505b8082111561034f576000815560010161033b565b509056",
      "r": "0xa1dea23347f14e406da14010ddf814eb055b10647a2d17f70ded324d1ffcd728",
      "s": "0x2bfdd62282e07cdcc1cfe59afd30107d7c10a0e7ab3f3534dd4db37f5cf4bf06",
      "v": 27,
      "creates": "0x6b211fdc0d944a84bba8534d631Fad9262ba80b8",
      "raw": "0xf903b950850ba43b7400830f42408080b903666060604052610353806100136000396000f300606060405260e060020a6000350463541d920c8114610031578063a8fd3e3e1461012d578063dd181c73146101aa575b005b60206004803590810135601f810183900490920260809081016040526060838152610217936024939192918401918190838280828437505060408051602088356004810135601f810183900483028401830190945283835297986044989297509190910194509092508291508401838280828437509495505050505050604051825160009184918190608090808381848960046020601f850104600302600f01f15090910182900390912080845260208481526040852093518454818655858752958290209295601f01919091048201929091908215610333579182015b8281111561033357825182600050559160200191906001019061010f565b602060248035600481810135601f81018590049094026080908101604052606085815261002f959235946044949193910191819083828082843750949550505050505060408051838152905182917f4e65eeae4613f40f47eed3078e931a35588aa2030953f6d6bee99bfd25a6e157919081900360200190a25050565b61022d6004356000602081815291815260409081902080546080601f820185900490940284019092526060828152929091908282801561020f57820191906000526020600020905b8154815290600101906020018083116101f257829003601f168201915b505050505081565b6040518082815260200191505060405180910390f35b60405180806020018281038252838181518152602001915080519060200190808383829060006004602084601f0104600302600f01f150905090810190601f16801561028d5780820380516001836020036101000a031916815260200191505b509250505060405180910390f35b5050807f65c3cdd093a47e853536dc262b04af07d801df3a7ecd752adc0bbce511ac5b068360405180806020018281038252838181518152602001915080519060200190808383829060006004602084601f0104600302600f01f150905090810190601f1680156103205780820380516001836020036101000a031916815260200191505b509250505060405180910390a292915050565b5061029b9291505b8082111561034f576000815560010161033b565b5090561ba0a1dea23347f14e406da14010ddf814eb055b10647a2d17f70ded324d1ffcd728a02bfdd62282e07cdcc1cfe59afd30107d7c10a0e7ab3f3534dd4db37f5cf4bf06",
      "networkId": 0,
      "chainId": 0
    }
  ]
}