{
  "hash": "0xcd9924dbf726b5d445bc29568300ca90d39bdf851c0ee531e2741bc6e6930781",
  "parentHash": "0xb87e37ff0182a26878cdafd50ea8093641ccdbfb47974a99778aa3c46334fa87",
  "number": 69929,
  "timestamp": 1439312072,
  "nonce": "0x13cc5aeb7d111cdc",
  "difficulty": 2105476255957,
  "gasLimit": {
    "_hex": "0x2fefd8"
  },
  "gasUsed": {
    "_hex": "0x546c"
  },
  "miner": "0x39A1BB80a741bF5EC39FB9BE59408Fa0F418fFBf",
  "extraData": "0x476574682f76312e302e312f77696e646f77732f676f312e342e32",
  "transactions": [
    {
      "hash": "0xff521007cfcd89c56d775b076f152476b8ddf3ad2d0ebd17e49070e8039b2e60",
      "blockHash": "0xcd9924dbf726b5d445bc29568300ca90d39bdf851c0ee531e2741bc6e6930781",
      "blockNumber": 69929,
      "transactionIndex": 0,
      "confirmations": null,
      "from": "0xd0DF24FD0DfcDc3850D1590dAA1D03ca7706b11B",
      "gasPrice": {
        "_hex": "0x108c85ef086"
      },
      "gasLimit": {
        "_hex": "0x55f0"
      },
      "to": "0x2910543Af39abA0Cd09dBb2D50200b3E800A63D2",
      "value": {
        "_hex": "0x6659436cf28180000"
      },
      "nonce": 3,
      "data": "0x454e364832354d3230",
      "r": "0x0291c5ee6a127f1d04467986f4ef26be71c6829a2583f4375d99b1c3f16c1568",
      "s": "0x1b7178a23045d3e0029f469666d35943ef20505d7c173d25ef78620b4b8b03ee",
      "v": 28,
      "creates": null,
      "raw": "0xf87703860108c85ef0868255f0942910543af39aba0cd09dbb2d50200b3e800a63d28906659436cf2818000089454e364832354d32301ca00291c5ee6a127f1d04467986f4ef26be71c6829a2583f4375d99b1c3f16c1568a01b7178a23045d3e0029f469666d35943ef20505d7c173d25ef78620b4b8b03ee",
      "networkId": 0,
      "chainId": 0
    }
  ]
}