{
  "hash": "0x57000ad132f181a4bdb63c30e49c623d6f84201b9f09b4b9057f6a9115702a3e",
  "parentHash": "0x168604a9f681f24b551a02948ad1c9036b70838b95a3ea19749902085bec9fcd",
  "number": 88083,
  "timestamp": 1439602401,
  "nonce": "0x6773430e833e71d6",
  "difficulty": 3191038296829,
  "gasLimit": {
    "_hex": "0x2fefd8"
  },
  "gasUsed": {
    "_hex": "0x5208"
  },
  "miner": "0xf927a40C8B7F6E07c5af7FA2155B4864a4112B13",
  "extraData": "0x",
  "transactions": [
    {
      "hash": "0xe49581c46653b59e7d6369232e1edb32a52bc0b22183acb3249f0aef0a273b55",
      "blockHash": "0x57000ad132f181a4bdb63c30e49c623d6f84201b9f09b4b9057f6a9115702a3e",
      "blockNumber": 88083,
      "transactionIndex": 0,
      "confirmations": null,
      "from": "0xF5EeDc192aB70b08D8354384aD94efD095849E00",
      "gasPrice": {
        "_hex": "0xdcbc3b121"
      },
      "gasLimit": {
        "_hex": "0x5208"
      },
      "to": "0x32Be343B94f860124dC4fEe278FDCBD38C102D88",
      "value": {
        "_hex": "0x97c98791dedd18000"
      },
      "nonce": 44,
      "data": "0x",
      "r": "0x551f79ac56d03722c2ec9ed80baf232c227bde4b06be0273349512e96e060256",
      "s": "0x23026652245ca6809096cc05eb549dc60ace6085c8e2532001a0fa867ede28a6",
      "v": 27,
      "creates": null,
      "raw": "0xf86d2c850dcbc3b1218252089432be343b94f860124dc4fee278fdcbd38c102d8889097c98791dedd18000801ba0551f79ac56d03722c2ec9ed80baf232c227bde4b06be0273349512e96e060256a023026652245ca6809096cc05eb549dc60ace6085c8e2532001a0fa867ede28a6",
      "networkId": 0,
      "chainId": 0
    }
  ]
}