{
  "hash": "0x8eaba0e8ef70a8232d633df74bf9fac55af8d7fb79363e652fbcc5498edc9ea4",
  "parentHash": "0xa10bdac098e44311ed6c5b3189825bcd70cdc96bc2863f9327849ae787e3781a",
  "number": 108556,
  "timestamp": 1439942412,
  "nonce": "0x241d61f42f85a6c1",
  "difficulty": 4327693439968,
  "gasLimit": {
    "_hex": "0x2fefd8"
  },
  "gasUsed": {
    "_hex": "0x5208"
  },
  "miner": "0x790b8a3cE86E707ED0eD32bF89B3269692a23CC1",
  "extraData": "0xd783010001844765746887676f312e342e32856c696e7578",
  "transactions": [
    {
      "hash": "0x2453100004ffb37c33a3709e6ead2a944dacb4752347b16a818593084b1faf54",
      "blockHash": "0x8eaba0e8ef70a8232d633df74bf9fac55af8d7fb79363e652fbcc5498edc9ea4",
      "blockNumber": 108556,
      "transactionIndex": 0,
      "confirmations": null,
      "from": "0x9BCDF86092d1cD705862b8343c7CFe1a9F20d6a6",
      "gasPrice": {
        "_hex": "0xba43b7400"
      },
      "gasLimit": {
        "_hex": "0x5208"
      },
      "to": "0xC47Aaa860008be6f65B58c6C6E02a84e666EfE31",
      "value": {
        "_hex": "0x1eda649ef8a6000"
      },
      "nonce": 3,
      "data": "0x",
      "r": "0xaab5b2ebafef13ea55f9a2e04c3d94c05f750b79fe89c2171a8301d9c0382d0a",
      "s": "0x7e5e2517333a1caa04b82539a793b339402d3a6b4fa36a57c0e4a2bf27d66b28",
      "v": 28,
      "creates": null,
      "raw": "0xf86c03850ba43b740082520894c47aaa860008be6f65b58c6c6e02a84e666efe318801eda649ef8a6000801ca0aab5b2ebafef13ea55f9a2e04c3d94c05f750b79fe89c2171a8301d9c0382d0aa07e5e2517333a1caa04b82539a793b339402d3a6b4fa36a57c0e4a2bf27d66b28",
      "networkId": 0,
      "chainId": 0
    }
  ]
}