{
  "hash": "0x04e30aed7051d9de64f131887b2759479c2825b6133638e600c828197de8bc3f",
  "parentHash": "0x21e9fce7470aaff29b138ba6ca8ac3e2eed33b9a44bcc95bc53faf176c474997",
  "number": 73566,
  "timestamp": 1439371222,
  "nonce": "0x673c6ace556178b9",
  "difficulty": 2221777053440,
  "gasLimit": {
    "_hex": "0x2fefd8"
  },
  "gasUsed": {
    "_hex": "0x5208"
  },
  "miner": "0x02017Ae4e03d3eB7322e0Fcd8738CA20AFDE53e4",
  "extraData": "0x476574682f76312e302e312f6c696e75782f676f312e342e32",
  "transactions": [
    {
      "hash": "0x6e7906ecfb9405c4fa1aefc19bb358761402ceaf8e201a79302f37b8b8a5d9ce",
      "blockHash": "0x04e30aed7051d9de64f131887b2759479c2825b6133638e600c828197de8bc3f",
      "blockNumber": 73566,
      "transactionIndex": 0,
      "confirmations": null,
      "from": "0x7e762b1a01DdF9a6449E7aD7F770cFA7Ec62616E",
      "gasPrice": {
        "_hex": "0xd7648f890"
      },
      "gasLimit": {
        "_hex": "0x5208"
      },
      "to": "0x32Be343B94f860124dC4fEe278FDCBD38C102D88",
      "value": {
        "_hex": "0x1c9e16f14bfbfa000"
      },
      "nonce": 0,
      "data": "0x",
      "r": "0x3907afa8b63437893a02b415546a1d5751c0b8e6e1d34eb4dc7e31edc7d2ad37",
      "s": "0x4dd4f7b9485aaff0a11a81a32928a64a8d5e169fff4f1936ab163dab7f39534c",
      "v": 28,
      "creates": null,
      "raw": "0xf86d80850d7648f8908252089432be343b94f860124dc4fee278fdcbd38c102d888901c9e16f14bfbfa000801ca03907afa8b63437893a02b415546a1d5751c0b8e6e1d34eb4dc7e31edc7d2ad37a04dd4f7b9485aaff0a11a81a32928a64a8d5e169fff4f1936ab163dab7f39534c",
      "networkId": 0,
      "chainId": 0
    }
  ]
}