{
  "hash": "0x7a1aa0a4c1007a27494bc73dda0b2b512da5c5372f18e4b9b3fab632d8fd996b",
  "parentHash": "0x933fb8cac3574932758eaeb54ec0c5318551dd2130928baf0f6bbcd6626c7526",
  "number": 51294,
  "timestamp": 1439002476,
  "nonce": "0xd89596afa7f67e1a",
  "difficulty": 1570435512183,
  "gasLimit": {
    "_hex": "0xa1cb4"
  },
  "gasUsed": {
    "_hex": "0x7a120"
  },
  "miner": "0xbcB2E3693d246E1fc00348754334BadEb88b2a11",
  "extraData": "0x476574682f76312e302e302f6c696e75782f676f312e342e32",
  "transactions": [
    {
      "hash": "0x5ee6a1991b1c1d1a434dbc75d079342a09a986cf22e4a3e0372ec19611c3c4ce",
      "blockHash": "0x7a1aa0a4c1007a27494bc73dda0b2b512da5c5372f18e4b9b3fab632d8fd996b",
      "blockNumber": 51294,
      "transactionIndex": 0,
      "confirmations": null,
      "from": "0x586c9f00191c01babA71993c5a6d6eE02905816d",
      "gasPrice": {
        "_hex": "0x10e25dc09b8"
      },
      "gasLimit": {
        "_hex": "0x7a120"
      },
      "to": "0x109C4f2CCc82C4d77Bde15F306707320294Aea3F",
      "value": {
        "_hex": "0xde0b6b3a7640000"
      },
      "nonce": 1,
      "data": "0x",
      "r": "0xb90579101d8f3b970cf861a17d559ce37cb6533d70cdfd0cab3039a1441c5404",
      "s": "0x1f480cf4e093869986a5ceef351b860e73d1dbd94dc85df837f213157df264f4",
      "v": 27,
      "creates": null,
      "raw": "0xf86e0186010e25dc09b88307a12094109c4f2ccc82c4d77bde15f306707320294aea3f880de0b6b3a7640000801ba0b90579101d8f3b970cf861a17d559ce37cb6533d70cdfd0cab3039a1441c5404a01f480cf4e093869986a5ceef351b860e73d1dbd94dc85df837f213157df264f4",
      "networkId": 0,
      "chainId": 0
    }
  ]
}