{
  "hash": "0x3b92508f01ed50784e3a8f6ce23b24c78dfd4b85f3d2d2c936ee7b8b4068f8a2",
  "parentHash": "0xe7001186063ee4a3f1a705f99812609e4a4603632ac44f641b1ede6186cbfcbd",
  "number": 52879,
  "timestamp": 1439028794,
  "nonce": "0x5e877b6d3fd6135c",
  "difficulty": 1572440505145,
  "gasLimit": {
    "_hex": "0x1b4af2"
  },
  "gasUsed": {
    "_hex": "0x5208"
  },
  "miner": "0x8B454d830feF179e66206840F8F3D1d83bC32b17",
  "extraData": "0x476574682f76312e302e312f77696e646f77732f676f312e342e32",
  "transactions": [
    {
      "hash": "0x92f9e6e142429e45aa0efd30000a48cd24be6b6d48752957ad8055475267dff5",
      "blockHash": "0x3b92508f01ed50784e3a8f6ce23b24c78dfd4b85f3d2d2c936ee7b8b4068f8a2",
      "blockNumber": 52879,
      "transactionIndex": 0,
      "confirmations": null,
      "from": "0x99425213944D7885b88Ec9D20D974B7Ac89D62E2",
      "gasPrice": {
        "_hex": "0xdb608e0fe"
      },
      "gasLimit": {
        "_hex": "0x5208"
      },
      "to": "0x32Be343B94f860124dC4fEe278FDCBD38C102D88",
      "value": {
        "_hex": "0x29dd91fcb73b400"
      },
      "nonce": 1,
      "data": "0x",
      "r": "0x2e1b6b67399f603cd09f0e6650f3b2ab6e399ae66843e6e7d3253aec59ea36cd",
      "s": "0x52bee6cce39a27882a31a3da31d9ebb6ce39648b9516101e63a985b413c87825",
      "v": 27,
      "creates": null,
      "raw": "0xf86c01850db608e0fe8252089432be343b94f860124dc4fee278fdcbd38c102d8888029dd91fcb73b400801ba02e1b6b67399f603cd09f0e6650f3b2ab6e399ae66843e6e7d3253aec59ea36cda052bee6cce39a27882a31a3da31d9ebb6ce39648b9516101e63a985b413c87825",
      "networkId": 0,
      "chainId": 0
    }
  ]
}