{
  "hash": "0x52423229021a889d26e2c602bf4cbb1b6267053e463a5cb40314340545f705d6",
  "parentHash": "0x3a9f81512b358fae21ddd54512c02133387488d0e8098f8bf12c99ef62f1f97f",
  "number": 84145,
  "timestamp": 1439545549,
  "nonce": "0xe3a7d403d4e9da5b",
  "difficulty": 2510749717969,
  "gasLimit": {
    "_hex": "0x2fefd8"
  },
  "gasUsed": {
    "_hex": "0x5208"
  },
  "miner": "0x77EC9ad4A7E9418774C29415CAaF4Ee0da96eF64",
  "extraData": "0x",
  "transactions": [
    {
      "hash": "0xcffc0d50a217d14992211c7efcd2c6b48569ce5841facca7cf8abfe1fa8af6de",
      "blockHash": "0x52423229021a889d26e2c602bf4cbb1b6267053e463a5cb40314340545f705d6",
      "blockNumber": 84145,
      "transactionIndex": 0,
      "confirmations": null,
      "from": "0x7490507CcC1290B675A397E99A53fAE2c369Be39",
      "gasPrice": {
        "_hex": "0xd8364fc25"
      },
      "gasLimit": {
        "_hex": "0x15f90"
      },
      "to": "0xdA5A21E1b101FB906B23634cA8DBb60Da6cb9B1E",
      "value": {
        "_hex": "0x31f5c4ed27680000"
      },
      "nonce": 0,
      "data": "0x",
      "r": "0x74d7040918fb45140fb78b0e4fb2912a82fc0b8762c4da2240773da65fd91707",
      "s": "0x2eed336629568618274d7d9548f0451afba675fa2d923bc778d906ea00adfda6",
      "v": 27,
      "creates": null,
      "raw": "0xf86d80850d8364fc2583015f9094da5a21e1b101fb906b23634ca8dbb60da6cb9b1e8831f5c4ed27680000801ba074d7040918fb45140fb78b0e4fb2912a82fc0b8762c4da2240773da65fd91707a02eed336629568618274d7d9548f0451afba675fa2d923bc778d906ea00adfda6",
      "networkId": 0,
      "chainId": 0
    }
  ]
}