{
  "hash": "0xd4b336fa5a2e1c728859423de5ce6083b0e091116e6eea7cb0d6692748b1b23a",
  "parentHash": "0x9a88756049825d35f100322a9a6ed7cbfbc1c2bb969fb752820c5b4ade0ed8c8",
  "number": 111991,
  "timestamp": 1440000053,
  "nonce": "0xc917e7cb8068eabb",
  "difficulty": 4383330475905,
  "gasLimit": {
    "_hex": "0x2fefd8"
  },
  "gasUsed": {
    "_hex": "0x14820"
  },
  "miner": "0xD65B98DBBE8F63FA14139a10041Bba7E3A0d377D",
  "extraData": "0x",
  "transactions": [
    {
      "hash": "0xdee30eaa89d5d36c92f7aaca6634710cd96586b1462e23c5048f6d6c01d9b1f0",
      "blockHash": "0xd4b336fa5a2e1c728859423de5ce6083b0e091116e6eea7cb0d6692748b1b23a",
      "blockNumber": 111991,
      "transactionIndex": 0,
      "confirmations": null,
      "from": "0x2C82c5457b3e101b0c8bc5c7e6BA098c1FfD53B6",
      "gasPrice": {
        "_hex": "0xd2b5f1dbf"
      },
      "gasLimit": {
        "_hex": "0x15f90"
      },
      "to": "0x89Ea4C778D3f3D6BE70883BB9995D41Bd4c453Ab",
      "value": {
        "_hex": "0x29a2241af62c0000"
      },
      "nonce": 3,
      "data": "0x",
      "r": "0x84c945ec9a2631bb51b72832de6acd1393f53f90b0111a117c6beefb97c38750",
      "s": "0x25f02e4f7ae88101f129afb11132a7f7b24de16ebc54e1c2d36a759a7ce8a51a",
      "v": 27,
      "creates": null,
      "raw": "0xf86d03850d2b5f1dbf83015f909489ea4c778d3f3d6be70883bb9995d41bd4c453ab8829a2241af62c0000801ba084c945ec9a2631bb51b72832de6acd1393f53f90b0111a117c6beefb97c38750a025f02e4f7ae88101f129afb11132a7f7b24de16ebc54e1c2d36a759a7ce8a51a",
      "networkId": 0,
      "chainId": 0
    },
    {
      "hash": "0xb7b4c12cc80f5f547b0379f8811e59a5fd8fc9dc804ff425c9b433155feab1c9",
      "blockHash": "0xd4b336fa5a2e1c728859423de5ce6083b0e091116e6eea7cb0d6692748b1b23a",
      "blockNumber": 111991,
      "transactionIndex": 1,
      "confirmations": null,
      "from": "0xe2F27cFd700a6d294Ac1BaFFa42c24bA0968631D",
      "gasPrice": {
        "_hex": "0xd2b5f1dbf"
      },
      "gasLimit": {
        "_hex": "0x15f90"
      },
      "to": "0x89Ea4C778D3f3D6BE70883BB9995D41Bd4c453Ab",
      "value": {
        "_hex": "0x1bc16d674ec80000"
      },
      "nonce": 2,
      "data": "0x",
      "r": "0x37757644366ffb35757a770fe0ccb01aa68dddaf8cd5d29f86a49f432da2abc8",
      "s": "0x5a20a5efbacffe3f92f74b0518066c9be3116fea8c926da6bff81931e3cef4b2",
      "v": 27,
      "creates": null,
      "raw": "0xf86d02850d2b5f1dbf83015f909489ea4c778d3f3d6be70883bb9995d41bd4c453ab881bc16d674ec80000801ba037757644366ffb35757a770fe0ccb01aa68dddaf8cd5d29f86a49f432da2abc8a05a20a5efbacffe3f92f74b0518066c9be3116fea8c926da6bff81931e3cef4b2",
      "networkId": 0,
      "chainId": 0
    },
    {
      "hash": "0x2b6c3d7d7a9a5485073417b3184ee48dc8fbef2d480ff59de1d6eced79425a01",
      "blockHash": "0xd4b336fa5a2e1c728859423de5ce6083b0e091116e6eea7cb0d6692748b1b23a",
      "blockNumber": 111991,
      "transactionIndex": 2,
      "confirmations": null,
      "from": "0x5A89048Fb5710E89dc5973652dAF900aC9018d26",
      "gasPrice": {
        "_hex": "0xba43b7400"
      },
      "gasLimit": {
        "_hex": "0x5208"
      },
      "to": "0xC47Aaa860008be6f65B58c6C6E02a84e666EfE31",
      "value": {
        "_hex": "0x13c038dc0c56000"
      },
      "nonce": 0,
      "data": "0x",
      "r": "0x8f6e8f37d419230127f496e471614f47a371abaafc2754d9d29d0b81be53c1b5",
      "s": "0x70eaeab9284ec40e58c291a774eb19cad5a26c089469c0e5610c03bd14a77ba8",
      "v": 28,
      "creates": null,
      "raw": "0xf86c80850ba43b740082520894c47aaa860008be6f65b58c6c6e02a84e666efe3188013c038dc0c56000801ca08f6e8f37d419230127f496e471614f47a371abaafc2754d9d29d0b81be53c1b5a070eaeab9284ec40e58c291a774eb19cad5a26c089469c0e5610c03bd14a77ba8",
      "networkId": 0,
      "chainId": 0
    },
    {
      "hash": "0x533779e2c8ad493c08c75e51100d6c17874a00fba4704eac6ee19d0e954089a3",
      "blockHash": "0xd4b336fa5a2e1c728859423de5ce6083b0e091116e6eea7cb0d6692748b1b23a",
      "blockNumber": 111991,
      "transactionIndex": 3,
      "confirmations": null,
      "from": "0x4A2D52D0898f560E53cdf4585A034517c06d0544",
      "gasPrice": {
        "_hex": "0xba43b7400"
      },
      "gasLimit": {
        "_hex": "0x5208"
      },
      "to": "0xC47Aaa860008be6f65B58c6C6E02a84e666EfE31",
      "value": {
        "_hex": "0x27dca95188512c00"
      },
      "nonce": 3,
      "data": "0x",
      "r": "0x6f6d310b26f0698c2af642665abb7cb8f9aefb1f982b3214b58533065ad34221",
      "s": "0x564bdc2d5bf9380f310701dabf1a27d26eff8b751f7cbedb98c1a1cf9b3f4a5c",
      "v": 27,
      "creates": null,
      "raw": "0xf86c03850ba43b740082520894c47aaa860008be6f65b58c6c6e02a84e666efe318827dca95188512c00801ba06f6d310b26f0698c2af642665abb7cb8f9aefb1f982b3214b58533065ad34221a0564bdc2d5bf9380f310701dabf1a27d26eff8b751f7cbedb98c1a1cf9b3f4a5c",
      "networkId": 0,
      "chainId": 0
    }
  ]
}