{
  "hash": "0xa2fed7ff5ee0ac155127996bc6d505bad4b373c35d44178f6c6f0848e4ebf069",
  "parentHash": "0xe1babce5f7f516396d9b2fa3f5ac6f6bfe121e9925f638854ea52ea8c5bc6f89",
  "number": 87057,
  "timestamp": 1439586581,
  "nonce": "0x9fce016e72a8ca66",
  "difficulty": 3030449144024,
  "gasLimit": {
    "_hex": "0x2fefd8"
  },
  "gasUsed": {
    "_hex": "0xa410"
  },
  "miner": "0x7E6930B63D03e88F5928C5cd6ee3FCee4D714F7F",
  "extraData": "0x",
  "transactions": [
    {
      "hash": "0x533f19009b3d3da2d80a57ad409c7d33ab2142c41e59f063b779df1b27614e93",
      "blockHash": "0xa2fed7ff5ee0ac155127996bc6d505bad4b373c35d44178f6c6f0848e4ebf069",
      "blockNumber": 87057,
      "transactionIndex": 0,
      "confirmations": null,
      "from": "0xfC9491EAfD2285d8469b6A20000eb9d97F93Fe5F",
      "gasPrice": {
        "_hex": "0xd86be2f4a"
      },
      "gasLimit": {
        "_hex": "0x15f90"
      },
      "to": "0xe53C68796212033e4E6F9Cff56E19c461eb454F9",
      "value": {
        "_hex": "0xb884e18e0598000"
      },
      "nonce": 3,
      "data": "0x",
      "r": "0xef473dd5c4f314bf010e6d1cd90324b7332e7b9be96bc377de329c8bf87760a2",
      "s": "0x09ab422e79e4d889b24b5b5fcbbd91216199b5b957dd36ed1c317fe86eb326e8",
      "v": 27,
      "creates": null,
      "raw": "0xf86d03850d86be2f4a83015f9094e53c68796212033e4e6f9cff56e19c461eb454f9880b884e18e0598000801ba0ef473dd5c4f314bf010e6d1cd90324b7332e7b9be96bc377de329c8bf87760a2a009ab422e79e4d889b24b5b5fcbbd91216199b5b957dd36ed1c317fe86eb326e8",
      "networkId": 0,
      "chainId": 0
    },
    {
      "hash": "0x5207840fc035bd1ef70e13ec52e8d16ea40a1f1c792fa322b672f3c96b8ad0a4",
      "blockHash": "0xa2fed7ff5ee0ac155127996bc6d505bad4b373c35d44178f6c6f0848e4ebf069",
      "blockNumber": 87057,
      "transactionIndex": 1,
      "confirmations": null,
      "from": "0x2910543Af39abA0Cd09dBb2D50200b3E800A63D2",
      "gasPrice": {
        "_hex": "0xd2a9dd052"
      },
      "gasLimit": {
        "_hex": "0x5208"
      },
      "to": "0x98781996FF0F2C5dE96Bb45755683BB5a09A5727",
      "value": {
        "_hex": "0x4562754ab175f8000"
      },
      "nonce": 691,
      "data": "0x",
      "r": "0xa42111f50e75924b6490d52512155120f26111825301368e9afce31365deeb5e",
      "s": "0x138e9348dd9f65c5439206edd681741f26b0202690a55b841a8a7f66ad2ef6bc",
      "v": 28,
      "creates": null,
      "raw": "0xf86f8202b3850d2a9dd0528252089498781996ff0f2c5de96bb45755683bb5a09a57278904562754ab175f8000801ca0a42111f50e75924b6490d52512155120f26111825301368e9afce31365deeb5ea0138e9348dd9f65c5439206edd681741f26b0202690a55b841a8a7f66ad2ef6bc",
      "networkId": 0,
      "chainId": 0
    }
  ]
}