{
  "hash": "0x5c42cbfd1a37bd46f54660f1544801c8d42ec96e7733a344b59c9c2a24f871c8",
  "parentHash": "0x72ed98c60a2c4578d358a191a6a02f1e2854156d9b6d06138d987ad01751fc29",
  "number": 56731,
  "timestamp": 1439091595,
  "nonce": "0x121e17c9c6d2341b",
  "difficulty": 1691155246744,
  "gasLimit": {
    "_hex": "0x2fefd2"
  },
  "gasUsed": {
    "_hex": "0x1d8a8"
  },
  "miner": "0x9746c7e1ef2bd21FF3997fa467593a89cb852BD0",
  "extraData": "0x476574682f76312e302e312f77696e646f77732f676f312e342e32",
  "transactions": [
    {
      "hash": "0xc5eacbcd2e3b80413acee34580ae54a97688edc439b17b93f69f605b021e7e03",
      "blockHash": "0x5c42cbfd1a37bd46f54660f1544801c8d42ec96e7733a344b59c9c2a24f871c8",
      "blockNumber": 56731,
      "transactionIndex": 0,
      "confirmations": null,
      "from": "0xFD2605a2bF58fDbB90db1Da55dF61628B47F9e8c",
      "gasPrice": {
        "_hex": "0xd0819d65b"
      },
      "gasLimit": {
        "_hex": "0x186a0"
      },
      "to": "0x7AF6Af3d4491A161670837d0737baDA43FfbB992",
      "value": {
        "_hex": "0x0"
      },
      "nonce": 45,
      "data": "0x7c1c171600000000000000000000000000000000000000000000000000000000075bcd15",
      "r": "0xf9c4f6a1cfd153e964e570e4a0695dfac15937f91aacac72c10d4810cc1d929b",
      "s": "0x34daa37ee6b85dc6ec7262020ccc45beceacbdcdb99a5d7d6da709f8cf4d0522",
      "v": 28,
      "creates": null,
      "raw": "0xf8892d850d0819d65b830186a0947af6af3d4491a161670837d0737bada43ffbb99280a47c1c171600000000000000000000000000000000000000000000000000000000075bcd151ca0f9c4f6a1cfd153e964e570e4a0695dfac15937f91aacac72c10d4810cc1d929ba034daa37ee6b85dc6ec7262020ccc45beceacbdcdb99a5d7d6da709f8cf4d0522",
      "networkId": 0,
      "chainId": 0
    },
    {
      "hash": "0xd1fbb9bc72e7f0666581160b9090e7ab01bfeaaf2e38506d6df7a2ddc6159b50",
      "blockHash": "0x5c42cbfd1a37bd46f54660f1544801c8d42ec96e7733a344b59c9c2a24f871c8",
      "blockNumber": 56731,
      "transactionIndex": 1,
      "confirmations": null,
      "from": "0x47ff6576639c2e94762eA5443978D7681C0E78DC",
      "gasPrice": {
        "_hex": "0xce5e50990"
      },
      "gasLimit": {
        "_hex": "0x5208"
      },
      "to": "0xeD17Ea8E9fd42159037deE95ea173a56c54f55ce",
      "value": {
        "_hex": "0x10e9deaaf401e00000"
      },
      "nonce": 10,
      "data": "0x",
      "r": "0x69af90ab9275ac1b8f39d8327e31009d546034427443aad1a8ec676853ec269c",
      "s": "0x3d4f023a9b37a9c49e192f02e542f495ce9ceddb04791c6a98dd21c53a46dc4a",
      "v": 27,
      "creates": null,
      "raw": "0xf86d0a850ce5e5099082520894ed17ea8e9fd42159037dee95ea173a56c54f55ce8910e9deaaf401e00000801ba069af90ab9275ac1b8f39d8327e31009d546034427443aad1a8ec676853ec269ca03d4f023a9b37a9c49e192f02e542f495ce9ceddb04791c6a98dd21c53a46dc4a",
      "networkId": 0,
      "chainId": 0
    }
  ]
}