{
  "hash": "0x39d1a7902ebc1eeb061a4c7b707603a4eed28bd022fe96e061a32027ffa9722b",
  "parentHash": "0x3dbe129410c5b817b9048ac9ec37c3a80783ad51f2880a3771a11852a638df1b",
  "number": 59275,
  "timestamp": 1439135285,
  "nonce": "0x2d9314d6b28c7a82",
  "difficulty": 1705567104583,
  "gasLimit": {
    "_hex": "0x2fefd8"
  },
  "gasUsed": {
    "_hex": "0x5208"
  },
  "miner": "0xf8E0CA3Ed80bd541b94BEdCf259e8CF2141A9523",
  "extraData": "0x476574682f76312e302e312f77696e646f77732f676f312e342e32",
  "transactions": [
    {
      "hash": "0x44af8389a7e434fd73a68613f40a054d83b41b29e53c7d99547ccfb3aef0e14c",
      "blockHash": "0x39d1a7902ebc1eeb061a4c7b707603a4eed28bd022fe96e061a32027ffa9722b",
      "blockNumber": 59275,
      "transactionIndex": 0,
      "confirmations": null,
      "from": "0x4c74B6F32c9680aCB5Fe0e72B7Aa95C612540A04",
      "gasPrice": {
        "_hex": "0xcee24f65e"
      },
      "gasLimit": {
        "_hex": "0x5208"
      },
      "to": "0x32Be343B94f860124dC4fEe278FDCBD38C102D88",
      "value": {
        "_hex": "0x56bc3397f4e2fc000"
      },
      "nonce": 4,
      "data": "0x",
      "r": "0xd7219ee09d443bd3c7e3cfa6a40a25079fa799d91d643112acd39363507993e5",
      "s": "0x1e2244d73c79ef26694cabc5c2e9049c8e63ec6e2abc95e3b997b10b9e6702d3",
      "v": 28,
      "creates": null,
      "raw": "0xf86d04850cee24f65e8252089432be343b94f860124dc4fee278fdcbd38c102d8889056bc3397f4e2fc000801ca0d7219ee09d443bd3c7e3cfa6a40a25079fa799d91d643112acd39363507993e5a01e2244d73c79ef26694cabc5c2e9049c8e63ec6e2abc95e3b997b10b9e6702d3",
      "networkId": 0,
      "chainId": 0
    }
  ]
}