{
  "hash": "0x2dbd1128a010d3cb2000226a9ba51e4a811e9fd6815d5a06c5bac3deceab46bd",
  "parentHash": "0x55f29dc2091108367e5de49d6fbadc87d0b7428bf9e66a7134af2ea3d4c447d8",
  "number": 73331,
  "timestamp": 1439367501,
  "nonce": "0x77952bf0ff38de2f",
  "difficulty": 2194882100156,
  "gasLimit": {
    "_hex": "0x2fe3fc"
  },
  "gasUsed": {
    "_hex": "0x5208"
  },
  "miner": "0xad7210d76107F888745616FFF7979623b84F928c",
  "extraData": "0x476574682f76312e302e302f77696e646f77732f676f312e342e32",
  "transactions": [
    {
      "hash": "0xa7dba070ebc534a9820af4becd0d5467b0c7315b86985e913ac08859ce8bb875",
      "blockHash": "0x2dbd1128a010d3cb2000226a9ba51e4a811e9fd6815d5a06c5bac3deceab46bd",
      "blockNumber": 73331,
      "transactionIndex": 0,
      "confirmations": null,
      "from": "0xfC372FF6927CB396d9cf29803500110Da632bC52",
      "gasPrice": {
        "_hex": "0x104805738dd"
      },
      "gasLimit": {
        "_hex": "0x5208"
      },
      "to": "0xa748fac76B1d857E2f77484a0F816463e8b56EDc",
      "value": {
        "_hex": "0x2f2f39fc6c540000"
      },
      "nonce": 9,
      "data": "0x",
      "r": "0x0337944cdafbfb665a4ff398d446414b234b4d7624dcf4be11b5762511a76e6f",
      "s": "0x225cc2da10f0827f59a681d1cd763bb8a069d4bcf9336678d8207e7af8e50813",
      "v": 27,
      "creates": null,
      "raw": "0xf86d09860104805738dd82520894a748fac76b1d857e2f77484a0f816463e8b56edc882f2f39fc6c540000801ba00337944cdafbfb665a4ff398d446414b234b4d7624dcf4be11b5762511a76e6fa0225cc2da10f0827f59a681d1cd763bb8a069d4bcf9336678d8207e7af8e50813",
      "networkId": 0,
      "chainId": 0
    }
  ]
}