{
  "hash": "0x73de49475ea02d23dfe4985f30d0cc760f5c2a4ed47b0623b8d43a2faa298206",
  "parentHash": "0xb39ce1c546d80da27ec7cb875a6daba0d893f1c18d20685dd15cdda8cbb17a1f",
  "number": 104214,
  "timestamp": 1439866172,
  "nonce": "0xf99b0d589ffb1d25",
  "difficulty": 4275311650861,
  "gasLimit": {
    "_hex": "0x2fefd8"
  },
  "gasUsed": {
    "_hex": "0x5208"
  },
  "miner": "0x580992B51e3925e23280EfB93d3047C82f17E038",
  "extraData": "0x476574682f76312e302e312f6c696e75782f676f312e342e32",
  "transactions": [
    {
      "hash": "0xad9b737da259df4a621a907915d71575966469662a81c4e5c4065408c2d06620",
      "blockHash": "0x73de49475ea02d23dfe4985f30d0cc760f5c2a4ed47b0623b8d43a2faa298206",
      "blockNumber": 104214,
      "transactionIndex": 0,
      "confirmations": null,
      "from": "0xfF68C2F39C4e7FE2f92c2DC2f8615b1BF070e0FA",
      "gasPrice": {
        "_hex": "0xcb33c6a13"
      },
      "gasLimit": {
        "_hex": "0x5208"
      },
      "to": "0x7147dFfD3d08ad00917cFEa2b60188439944990b",
      "value": {
        "_hex": "0x21e19e0c9bab2400000"
      },
      "nonce": 3,
      "data": "0x",
      "r": "0xa5a8f43e92c25143b63723eeda3f282a64ffb7cfeeabbaf2999dce47620836c1",
      "s": "0x1610e6fc7506ac5305e2bbec2c0c9ea150bc2489aca0767e7995d4da0be23664",
      "v": 28,
      "creates": null,
      "raw": "0xf86e03850cb33c6a13825208947147dffd3d08ad00917cfea2b60188439944990b8a021e19e0c9bab2400000801ca0a5a8f43e92c25143b63723eeda3f282a64ffb7cfeeabbaf2999dce47620836c1a01610e6fc7506ac5305e2bbec2c0c9ea150bc2489aca0767e7995d4da0be23664",
      "networkId": 0,
      "chainId": 0
    }
  ]
}