{
  "hash": "0x6e9bcc23fa1d972822a2783169e5bf6231c5a96ce26aa3564bc1b98e489ac1e1",
  "parentHash": "0x584640ea3c5d0cc2baa7a42ffc36ad74b7a178d4ac1426521124202348305387",
  "number": 74036,
  "timestamp": 1439379227,
  "nonce": "0x4bae224acfb00d86",
  "difficulty": 2241264879898,
  "gasLimit": {
    "_hex": "0x2fefd8"
  },
  "gasUsed": {
    "_hex": "0x5208"
  },
  "miner": "0xa50ec0D39fa913E62f1Bae7074E6F36caA71855b",
  "extraData": "0x",
  "transactions": [
    {
      "hash": "0xd5c5fa955972cc97f0f6e0ddf9299e8a73c5d9390887e902e256a39a39b295d7",
      "blockHash": "0x6e9bcc23fa1d972822a2783169e5bf6231c5a96ce26aa3564bc1b98e489ac1e1",
      "blockNumber": 74036,
      "transactionIndex": 0,
      "confirmations": null,
      "from": "0xf2881e3e520bF84469Fa00a56449D357FB1af54A",
      "gasPrice": {
        "_hex": "0xcb02b3020"
      },
      "gasLimit": {
        "_hex": "0x5208"
      },
      "to": "0x32Be343B94f860124dC4fEe278FDCBD38C102D88",
      "value": {
        "_hex": "0x3b963525cf2950000"
      },
      "nonce": 3,
      "data": "0x",
      "r": "0xd166f2111c682fcb2b6eb82f110917befbf862e211866203a4d3d47df90aa455",
      "s": "0x14e90f2c12ac840f85ea9d13ade838a7bac0ca0b65db6bc4670e9a94ec701108",
      "v": 27,
      "creates": null,
      "raw": "0xf86d03850cb02b30208252089432be343b94f860124dc4fee278fdcbd38c102d888903b963525cf2950000801ba0d166f2111c682fcb2b6eb82f110917befbf862e211866203a4d3d47df90aa455a014e90f2c12ac840f85ea9d13ade838a7bac0ca0b65db6bc4670e9a94ec701108",
      "networkId": 0,
      "chainId": 0
    }
  ]
}