{
  "hash": "0x4389359a559199ebadc072c4a0d68b742ed1004f7b718e1312e445d2f1cb13d5",
  "parentHash": "0xec37db69f27901be4982681c028f702df9c25a018b378d1755b01e2441ce087b",
  "number": 117844,
  "timestamp": 1440116236,
  "nonce": "0x7fd150db5633c501",
  "difficulty": 4344063950565,
  "gasLimit": {
    "_hex": "0x2fefd8"
  },
  "gasUsed": {
    "_hex": "0xf618"
  },
  "miner": "0xD6D327d45e2F3bddBc5DEA12815F871d4375bd25",
  "extraData": "0xd783010003844765746887676f312e342e32856c696e7578",
  "transactions": [
    {
      "hash": "0xafd6b1e1cae8d8fbbbd23a60010a4c31be89511479b1e8a363ae8437d985d321",
      "blockHash": "0x4389359a559199ebadc072c4a0d68b742ed1004f7b718e1312e445d2f1cb13d5",
      "blockNumber": 117844,
      "transactionIndex": 0,
      "confirmations": null,
      "from": "0xc7704Fc5c51C7a5f1a6574b0014b58C8915BA55C",
      "gasPrice": {
        "_hex": "0xba43b7400"
      },
      "gasLimit": {
        "_hex": "0x5208"
      },
      "to": "0x32Be343B94f860124dC4fEe278FDCBD38C102D88",
      "value": {
        "_hex": "0x13b3db2dfd81ed000"
      },
      "nonce": 10,
      "data": "0x",
      "r": "0xd6eb84aeb33ab3863ebd2eb2eb61e71cd1e11ffca5378af4bc8c99794c933930",
      "s": "0x64563a196d2837f3ab3fef12336bda3b9393a264897de96ffd715742647e7266",
      "v": 28,
      "creates": null,
      "raw": "0xf86d0a850ba43b74008252089432be343b94f860124dc4fee278fdcbd38c102d8889013b3db2dfd81ed000801ca0d6eb84aeb33ab3863ebd2eb2eb61e71cd1e11ffca5378af4bc8c99794c933930a064563a196d2837f3ab3fef12336bda3b9393a264897de96ffd715742647e7266",
      "networkId": 0,
      "chainId": 0
    },
    {
      "hash": "0x5731d949b8cef48beaff0ec2ac1b275d1cfb05902f3754b38dbd9d7dcd040929",
      "blockHash": "0x4389359a559199ebadc072c4a0d68b742ed1004f7b718e1312e445d2f1cb13d5",
      "blockNumber": 117844,
      "transactionIndex": 1,
      "confirmations": null,
      "from": "0x9B7280891dc19fd3A2e754cB9007203820650403",
      "gasPrice": {
        "_hex": "0xba43b7400"
      },
      "gasLimit": {
        "_hex": "0x5208"
      },
      "to": "0x32Be343B94f860124dC4fEe278FDCBD38C102D88",
      "value": {
        "_hex": "0x74464cf48d8dd400"
      },
      "nonce": 12,
      "data": "0x",
      "r": "0x4f15687a4c76320936ac0bfc8d5f2df25cee85c73b1b3f2fe4087d127458a83f",
      "s": "0x37513e1dfd90eba502fdd12d82311e5993cc4dbc0dd6c57210450c3e3204e27d",
      "v": 27,
      "creates": null,
      "raw": "0xf86c0c850ba43b74008252089432be343b94f860124dc4fee278fdcbd38c102d888874464cf48d8dd400801ba04f15687a4c76320936ac0bfc8d5f2df25cee85c73b1b3f2fe4087d127458a83fa037513e1dfd90eba502fdd12d82311e5993cc4dbc0dd6c57210450c3e3204e27d",
      "networkId": 0,
      "chainId": 0
    },
    {
      "hash": "0xb6865be690cd5efdf2a9e8cca590a725453869c546503c4585ecaeb13de29615",
      "blockHash": "0x4389359a559199ebadc072c4a0d68b742ed1004f7b718e1312e445d2f1cb13d5",
      "blockNumber": 117844,
      "transactionIndex": 2,
      "confirmations": null,
      "from": "0xF7e66D2622220807d8696064E94ca24b1dC6e7Da",
      "gasPrice": {
        "_hex": "0xba43b7400"
      },
      "gasLimit": {
        "_hex": "0x5208"
      },
      "to": "0x32Be343B94f860124dC4fEe278FDCBD38C102D88",
      "value": {
        "_hex": "0x10cd9b67f4e338000"
      },
      "nonce": 19,
      "data": "0x",
      "r": "0x76112814731d9c6f5439ca3b5da8d5c93c537a8d7c8bd636322e46cb75937946",
      "s": "0x1ab57eb200caa20a0f8209fae54a9ad42a62b9ee267efd4ab3b9c0dabb9d283a",
      "v": 27,
      "creates": null,
      "raw": "0xf86d13850ba43b74008252089432be343b94f860124dc4fee278fdcbd38c102d8889010cd9b67f4e338000801ba076112814731d9c6f5439ca3b5da8d5c93c537a8d7c8bd636322e46cb75937946a01ab57eb200caa20a0f8209fae54a9ad42a62b9ee267efd4ab3b9c0dabb9d283a",
      "networkId": 0,
      "chainId": 0
    }
  ]
}