{
  "hash": "0x633e5b6f93546f00036c044f2edcc0591b3e402f8b298c16f73a4d33bfd5d910",
  "parentHash": "0x96fa6d7115aeb35969f9b430e9c8eb7d4af2688b5ea99b6fec4ab167f1a42a45",
  "number": 52580,
  "timestamp": 1439023866,
  "nonce": "0xbebf2af1afb3dea1",
  "difficulty": 1567130983946,
  "gasLimit": {
    "_hex": "0x15cfde"
  },
  "gasUsed": {
    "_hex": "0xf4240"
  },
  "miner": "0x157c6f2431eB1a95797EE86F7d17b3c0FD47A247",
  "extraData": "0x476574682f76312e302e312f77696e646f77732f676f312e342e32",
  "transactions": [
    {
      "hash": "0xcb6fc9400d784fbc15ce821e35f22c0bc4e0fc15ac37f31f5def4d467d2c1baf",
      "blockHash": "0x633e5b6f93546f00036c044f2edcc0591b3e402f8b298c16f73a4d33bfd5d910",
      "blockNumber": 52580,
      "transactionIndex": 0,
      "confirmations": null,
      "from": "0x54dAeb3E8a6BBC797E4aD2b0339f134b186e4637",
      "gasPrice": {
        "_hex": "0xe7d27df17"
      },
      "gasLimit": {
        "_hex": "0x7a120"
      },
      "to": "0xBAA54d6E90c3F4d7Ebec11bD180134C7eD8eBb52",
      "value": {
        "_hex": "0x16345785d8a0000"
      },
      "nonce": 755,
      "data": "0x",
      "r": "0x8e57a02f7ab65c02c214ba2c197d0d2e09cc9269d4ee42ad5db3f6affbc06bb8",
      "s": "0x51c8feda836782cb37916035ec5dee90df3b704bb4edca493edb1c97276a934d",
      "v": 27,
      "creates": null,
      "raw": "0xf86f8202f3850e7d27df178307a12094baa54d6e90c3f4d7ebec11bd180134c7ed8ebb5288016345785d8a0000801ba08e57a02f7ab65c02c214ba2c197d0d2e09cc9269d4ee42ad5db3f6affbc06bb8a051c8feda836782cb37916035ec5dee90df3b704bb4edca493edb1c97276a934d",
      "networkId": 0,
      "chainId": 0
    },
    {
      "hash": "0x53f5107014cf0613940d9bfe48d31944e0fa812bc9c5c3a135437edc8fb54473",
      "blockHash": "0x633e5b6f93546f00036c044f2edcc0591b3e402f8b298c16f73a4d33bfd5d910",
      "blockNumber": 52580,
      "transactionIndex": 1,
      "confirmations": null,
      "from": "0x54dAeb3E8a6BBC797E4aD2b0339f134b186e4637",
      "gasPrice": {
        "_hex": "0xe7d27df17"
      },
      "gasLimit": {
        "_hex": "0x7a120"
      },
      "to": "0xBAA54d6E90c3F4d7Ebec11bD180134C7eD8eBb52",
      "value": {
        "_hex": "0x16345785d8a0000"
      },
      "nonce": 756,
      "data": "0x",
      "r": "0x1d6e9b06df9d18bfb0668c4c85735a65a45acd01697f19f4e450188916c5def3",
      "s": "0x3fd3fc69095663ab34e51588c2045a27142cb68324eb4205db8adac649bb2ccb",
      "v": 28,
      "creates": null,
      "raw": "0xf86f8202f4850e7d27df178307a12094baa54d6e90c3f4d7ebec11bd180134c7ed8ebb5288016345785d8a0000801ca01d6e9b06df9d18bfb0668c4c85735a65a45acd01697f19f4e450188916c5def3a03fd3fc69095663ab34e51588c2045a27142cb68324eb4205db8adac649bb2ccb",
      "networkId": 0,
      "chainId": 0
    }
  ]
}