{
  "hash": "0x52481d79f39065b622f4f216e398ea2bd97dbde0c8f360ab702442c35df85413",
  "parentHash": "0x5cd4258153806d238ee0e9e61cb25b0b044457c58b846c91112bc239e9e63e10",
  "number": 81248,
  "timestamp": 1439498493,
  "nonce": "0x22a87f03359230d2",
  "difficulty": 2457031938237,
  "gasLimit": {
    "_hex": "0x2fefd8"
  },
  "gasUsed": {
    "_hex": "0xa410"
  },
  "miner": "0xB6be56962eab062fC2A764216eEd2Bf07ea1bd92",
  "extraData": "0x476574682f76312e302e312d37666266393930632f6c696e75782f676f312e34",
  "transactions": [
    {
      "hash": "0x3eee3562870f2528d6bc170e28d673947d074a2c930d714c5bb8dc512420a581",
      "blockHash": "0x52481d79f39065b622f4f216e398ea2bd97dbde0c8f360ab702442c35df85413",
      "blockNumber": 81248,
      "transactionIndex": 0,
      "confirmations": null,
      "from": "0x393FF4255e5C658F2e7f10ecbd292572671BC2d2",
      "gasPrice": {
        "_hex": "0xd0e238df2"
      },
      "gasLimit": {
        "_hex": "0x5208"
      },
      "to": "0xb583f9403De6C5B2c83D7e2DE9928331176071b8",
      "value": {
        "_hex": "0x5684f308079370000"
      },
      "nonce": 1,
      "data": "0x",
      "r": "0xcf8742bb5ebc4f2361bab3d75a97e7369f6274c5da769a113d0b7a51c889a133",
      "s": "0x5efa8ee4f59c86e4adeb0d9c0bb46a56e7c595e8bcb2b97b274d927128cc5a4a",
      "v": 28,
      "creates": null,
      "raw": "0xf86d01850d0e238df282520894b583f9403de6c5b2c83d7e2de9928331176071b88905684f308079370000801ca0cf8742bb5ebc4f2361bab3d75a97e7369f6274c5da769a113d0b7a51c889a133a05efa8ee4f59c86e4adeb0d9c0bb46a56e7c595e8bcb2b97b274d927128cc5a4a",
      "networkId": 0,
      "chainId": 0
    },
    {
      "hash": "0x9470383d8d14d32a60d87f6fee59ac3549410e4f64850155b13a5b17bce1243c",
      "blockHash": "0x52481d79f39065b622f4f216e398ea2bd97dbde0c8f360ab702442c35df85413",
      "blockNumber": 81248,
      "transactionIndex": 1,
      "confirmations": null,
      "from": "0xDE72E29D65eAabbD236b21c1d59a486c19AbDad5",
      "gasPrice": {
        "_hex": "0xd01d2b79f"
      },
      "gasLimit": {
        "_hex": "0x5208"
      },
      "to": "0x32Be343B94f860124dC4fEe278FDCBD38C102D88",
      "value": {
        "_hex": "0x38eb976e656b2c0000"
      },
      "nonce": 4,
      "data": "0x",
      "r": "0xce261cddf82fe3031dd1514ea6ea976b507a3ea4188fc014318d291b31f61fc8",
      "s": "0x13a7a5baa39350e0aad2b6bb553079f514e0324d7fcf37356a8a6d1f21c2fff3",
      "v": 27,
      "creates": null,
      "raw": "0xf86d04850d01d2b79f8252089432be343b94f860124dc4fee278fdcbd38c102d888938eb976e656b2c0000801ba0ce261cddf82fe3031dd1514ea6ea976b507a3ea4188fc014318d291b31f61fc8a013a7a5baa39350e0aad2b6bb553079f514e0324d7fcf37356a8a6d1f21c2fff3",
      "networkId": 0,
      "chainId": 0
    }
  ]
}