{
  "hash": "0x8731e30e867e923bab6185d5ad0f563cefb545107d2979ed0f8a47b10892ed1c",
  "parentHash": "0x48699a23a2497ab6519fe7f4235e74d937625bdb4639b8e60f8e5556c95be152",
  "number": 118066,
  "timestamp": 1440120036,
  "nonce": "0x0c533befb8ec2e76",
  "difficulty": 4331241198711,
  "gasLimit": {
    "_hex": "0x2fefd8"
  },
  "gasUsed": {
    "_hex": "0x5208"
  },
  "miner": "0x55bAf64fc9eAccFFd7Cc643BB61142E1C6ac093e",
  "extraData": "0x",
  "transactions": [
    {
      "hash": "0xd73a21913f3ee127603f6fc3411b51d81111305783f71a99191149c1bef29ad9",
      "blockHash": "0x8731e30e867e923bab6185d5ad0f563cefb545107d2979ed0f8a47b10892ed1c",
      "blockNumber": 118066,
      "transactionIndex": 0,
      "confirmations": null,
      "from": "0x007f7f58D3eb5b7510A301eCC749FC1fCDDBE14D",
      "gasPrice": {
        "_hex": "0xba43b7400"
      },
      "gasLimit": {
        "_hex": "0x15f90"
      },
      "to": "0xb1abce2918E21ddb93AA452731a12672A3d9F75a",
      "value": {
        "_hex": "0x4563918244f40000"
      },
      "nonce": 332,
      "data": "0x",
      "r": "0x5c7b89177ae896ded39eeafc45ae06b7d08507d90074a283376ab77ed0a2a8ad",
      "s": "0x7a0aab957aad59d17a3fde590ce0d9c8670995df77baf0aec9eaa174f440e8cf",
      "v": 28,
      "creates": null,
      "raw": "0xf86f82014c850ba43b740083015f9094b1abce2918e21ddb93aa452731a12672a3d9f75a884563918244f40000801ca05c7b89177ae896ded39eeafc45ae06b7d08507d90074a283376ab77ed0a2a8ada07a0aab957aad59d17a3fde590ce0d9c8670995df77baf0aec9eaa174f440e8cf",
      "networkId": 0,
      "chainId": 0
    }
  ]
}