{
  "hash": "0xbbb6f13b4532fe0be37424711fc8cfed337447defbbf571ad58443e19253b257",
  "parentHash": "0xe54e0f48da52c29e0568dcd29b27c883e7c7d895187ef63d9711cf074e313397",
  "number": 63131,
  "timestamp": 1439199725,
  "nonce": "0xb187279b6057e672",
  "difficulty": 1800610008912,
  "gasLimit": {
    "_hex": "0x2fefd8"
  },
  "gasUsed": {
    "_hex": "0x5208"
  },
  "miner": "0xbb7B8287f3F0a933474a79eAe42CBCa977791171",
  "extraData": "0x476574682f4c5649562f76312e302e312f6c696e75782f676f312e342e32",
  "transactions": [
    {
      "hash": "0x51385a76f40f60def2ef65896ecbab04a249f322a34d8efdacbdd674f03ad32e",
      "blockHash": "0xbbb6f13b4532fe0be37424711fc8cfed337447defbbf571ad58443e19253b257",
      "blockNumber": 63131,
      "transactionIndex": 0,
      "confirmations": null,
      "from": "0x9FfbDc745507Be96FEdbA053b7deC24A7C54b1f3",
      "gasPrice": {
        "_hex": "0xd23ee12e2"
      },
      "gasLimit": {
        "_hex": "0x15f90"
      },
      "to": "0x667c9da752B672Ce76F66cCB3DC2c0ed00693fCB",
      "value": {
        "_hex": "0x16345785d8a0000"
      },
      "nonce": 0,
      "data": "0x",
      "r": "0xaf88b343c909d1544a4cb87d317cc57c8a7bc5e5e1acb6b586ebb6169707da4d",
      "s": "0x5d8d81a16b395d0ad19aae873a0228935e984d43342bd5ef11de4cfbe1676ad2",
      "v": 27,
      "creates": null,
      "raw": "0xf86d80850d23ee12e283015f9094667c9da752b672ce76f66ccb3dc2c0ed00693fcb88016345785d8a0000801ba0af88b343c909d1544a4cb87d317cc57c8a7bc5e5e1acb6b586ebb6169707da4da05d8d81a16b395d0ad19aae873a0228935e984d43342bd5ef11de4cfbe1676ad2",
      "networkId": 0,
      "chainId": 0
    }
  ]
}