{
  "hash": "0x8fdfeaca89b261c70dd35bac4bc58ec6d19ae354d5aea9873e65168ecbc047b7",
  "parentHash": "0x9515f6c7662faf82b342074d9b258d7607524809d9002296ca287f2be9131b51",
  "number": 80944,
  "timestamp": 1439493636,
  "nonce": "0x7ce5c5225eef414d",
  "difficulty": 2442765884410,
  "gasLimit": {
    "_hex": "0x2fefd8"
  },
  "gasUsed": {
    "_hex": "0x5208"
  },
  "miner": "0xf8E0CA3Ed80bd541b94BEdCf259e8CF2141A9523",
  "extraData": "0x476574682f76312e302e312f77696e646f77732f676f312e342e32",
  "transactions": [
    {
      "hash": "0xf28ce3e74b4f47b3712047299b554a6096eec69eb3cd383517f6c022eb52c1f6",
      "blockHash": "0x8fdfeaca89b261c70dd35bac4bc58ec6d19ae354d5aea9873e65168ecbc047b7",
      "blockNumber": 80944,
      "transactionIndex": 0,
      "confirmations": null,
      "from": "0x120A270bbC009644e35F0bB6ab13f95b8199c4ad",
      "gasPrice": {
        "_hex": "0xcea974cbc"
      },
      "gasLimit": {
        "_hex": "0x3d090"
      },
      "to": "0x1c3e35361ad76690f001005E8058632f579d8BA9",
      "value": {
        "_hex": "0x196d50ec7a0f800"
      },
      "nonce": 356,
      "data": "0x",
      "r": "0x608c657ee4fe76b32bb56db4c2bf4a4b522d95ea47c9fc653d543a620796c0ae",
      "s": "0x60b11f5cad9b02979eaa6d040725379caffbfc57c46457a716192783a1f23908",
      "v": 27,
      "creates": null,
      "raw": "0xf86f820164850cea974cbc8303d090941c3e35361ad76690f001005e8058632f579d8ba9880196d50ec7a0f800801ba0608c657ee4fe76b32bb56db4c2bf4a4b522d95ea47c9fc653d543a620796c0aea060b11f5cad9b02979eaa6d040725379caffbfc57c46457a716192783a1f23908",
      "networkId": 0,
      "chainId": 0
    }
  ]
}