{
  "hash": "0x49f596aec33ef11b9c358af18f725f23ed68579fc2bbb429343eafb7c8f44e27",
  "parentHash": "0xcacea85b798d97108038d83259895d96946e79dbb3b1d4f9b9860f73e3c4260a",
  "number": 86088,
  "timestamp": 1439573166,
  "nonce": "0xf73d5e92fa6c8c32",
  "difficulty": 2812628112317,
  "gasLimit": {
    "_hex": "0x2fefd8"
  },
  "gasUsed": {
    "_hex": "0xa410"
  },
  "miner": "0x29aeA5f51879982Fdb53Fb4F0720823Ed77E49Dc",
  "extraData": "0x476574682f76312e302e312f6c696e75782f676f312e342e32",
  "transactions": [
    {
      "hash": "0x08bd2c0823698db8f7aa334b173ef244d2f5efb58a94c575a8c110232f609f57",
      "blockHash": "0x49f596aec33ef11b9c358af18f725f23ed68579fc2bbb429343eafb7c8f44e27",
      "blockNumber": 86088,
      "transactionIndex": 0,
      "confirmations": null,
      "from": "0x120A270bbC009644e35F0bB6ab13f95b8199c4ad",
      "gasPrice": {
        "_hex": "0xd9a1780b2"
      },
      "gasLimit": {
        "_hex": "0x3d090"
      },
      "to": "0xE46181d0089f5D0e0e4668eE7AB335893BDB58bf",
      "value": {
        "_hex": "0x2ce1f006ef1000"
      },
      "nonce": 470,
      "data": "0x",
      "r": "0x6a2fdc5fc7f63223559bd4b924e4ab1ae291fd480176f0ca0b8dd62ebf57a22c",
      "s": "0x2becaebd4d751c31b2971c847fe430b3cfc2c73c2e85c46ea76922ae394798ef",
      "v": 28,
      "creates": null,
      "raw": "0xf86e8201d6850d9a1780b28303d09094e46181d0089f5d0e0e4668ee7ab335893bdb58bf872ce1f006ef1000801ca06a2fdc5fc7f63223559bd4b924e4ab1ae291fd480176f0ca0b8dd62ebf57a22ca02becaebd4d751c31b2971c847fe430b3cfc2c73c2e85c46ea76922ae394798ef",
      "networkId": 0,
      "chainId": 0
    },
    {
      "hash": "0xd45a9bf676e8aca814b794dd2cfb82ee512afa791b71414bf053dd5f4b6a5a68",
      "blockHash": "0x49f596aec33ef11b9c358af18f725f23ed68579fc2bbb429343eafb7c8f44e27",
      "blockNumber": 86088,
      "transactionIndex": 1,
      "confirmations": null,
      "from": "0x2910543Af39abA0Cd09dBb2D50200b3E800A63D2",
      "gasPrice": {
        "_hex": "0xccea58ee8"
      },
      "gasLimit": {
        "_hex": "0x5208"
      },
      "to": "0xAd9DbFc10FaF86e12b09d148F456a5568609b7Ab",
      "value": {
        "_hex": "0x57fb3fc4f5dac44000"
      },
      "nonce": 641,
      "data": "0x",
      "r": "0xf37e19a171c9cfca70776279371b381658cdfb7b9b0da2844032a58d71313fff",
      "s": "0x0abbdf442ce39e9449ad90d20fae37f2c2e1f6ba33827c032049a882cb3fe379",
      "v": 28,
      "creates": null,
      "raw": "0xf86f820281850ccea58ee882520894ad9dbfc10faf86e12b09d148f456a5568609b7ab8957fb3fc4f5dac44000801ca0f37e19a171c9cfca70776279371b381658cdfb7b9b0da2844032a58d71313fffa00abbdf442ce39e9449ad90d20fae37f2c2e1f6ba33827c032049a882cb3fe379",
      "networkId": 0,
      "chainId": 0
    }
  ]
}