{
  "hash": "0xe2cbf4c82e771d4c0d6d8279cec7e0db2947a6f7491e64042096cf122ddf2781",
  "parentHash": "0xe884833c6a5472181fc7be298a1ce033d7c65ddebaa33cabca0ff94f9563bf99",
  "number": 109315,
  "timestamp": 1439954587,
  "nonce": "0xcff311aefd8aaf6f",
  "difficulty": 4449431169059,
  "gasLimit": {
    "_hex": "0x2fefd8"
  },
  "gasUsed": {
    "_hex": "0x5208"
  },
  "miner": "0x623d2411c3bb3340784155F9a688b0085251aB5c",
  "extraData": "0x",
  "transactions": [
    {
      "hash": "0xd5a453af22796f7c02d2dc0040aaf5ec7b6a675ca81d7ff97101e3aabb287383",
      "blockHash": "0xe2cbf4c82e771d4c0d6d8279cec7e0db2947a6f7491e64042096cf122ddf2781",
      "blockNumber": 109315,
      "transactionIndex": 0,
      "confirmations": null,
      "from": "0x120A270bbC009644e35F0bB6ab13f95b8199c4ad",
      "gasPrice": {
        "_hex": "0xd15217d18"
      },
      "gasLimit": {
        "_hex": "0x3d090"
      },
      "to": "0xD3c6b518F1631509963232bA8e1882D3474a5838",
      "value": {
        "_hex": "0x24d73cc362efe55800"
      },
      "nonce": 857,
      "data": "0x",
      "r": "0x4ccd2f2e7eba050232f355b35c16c6358f3bc60362a6f0cf41d5d2967aee2355",
      "s": "0x2e43288ccd95fe5a88d487a25f54662643c1afaf604bf2c32b74bc0810e2a66a",
      "v": 28,
      "creates": null,
      "raw": "0xf870820359850d15217d188303d09094d3c6b518f1631509963232ba8e1882d3474a58388924d73cc362efe55800801ca04ccd2f2e7eba050232f355b35c16c6358f3bc60362a6f0cf41d5d2967aee2355a02e43288ccd95fe5a88d487a25f54662643c1afaf604bf2c32b74bc0810e2a66a",
      "networkId": 0,
      "chainId": 0
    }
  ]
}