{
  "hash": "0x69f15c40d2f536453be3fb5b71928e60ba2e3caf7a8c33abb03d105bc2535205",
  "parentHash": "0x5935add34969e3507afa1150e1b59748d7252894bac617fee459510a52ccaa8b",
  "number": 72353,
  "timestamp": 1439351356,
  "nonce": "0x8b1ea4e78d315edf",
  "difficulty": 2180183354496,
  "gasLimit": {
    "_hex": "0x2fefd8"
  },
  "gasUsed": {
    "_hex": "0x5208"
  },
  "miner": "0x9746c7e1ef2bd21FF3997fa467593a89cb852BD0",
  "extraData": "0x476574682f76312e302e312f77696e646f77732f676f312e342e32",
  "transactions": [
    {
      "hash": "0x61000006cad5c33dca7b1a0da21d81d044bd9dc1d1db38594fff3af23253e5e7",
      "blockHash": "0x69f15c40d2f536453be3fb5b71928e60ba2e3caf7a8c33abb03d105bc2535205",
      "blockNumber": 72353,
      "transactionIndex": 0,
      "confirmations": null,
      "from": "0x2C89f5FDcA3D155409b638B98A742E55eb4652B7",
      "gasPrice": {
        "_hex": "0x9184e72a000"
      },
      "gasLimit": {
        "_hex": "0x15f90"
      },
      "to": "0x1308A2e95c0160B90803ddCA9B9a5bb55E416d79",
      "value": {
        "_hex": "0xde0b6b3a7640000"
      },
      "nonce": 6,
      "data": "0x",
      "r": "0xbe6776ba74fb6dbb63ddb04764cea3330f2554d84f97cdeae9f73d88fdb8e7e1",
      "s": "0x22b8285e8c93a135edb73c654e32765858165e239dc6588ef837dd00543e86a8",
      "v": 28,
      "creates": null,
      "raw": "0xf86e068609184e72a00083015f90941308a2e95c0160b90803ddca9b9a5bb55e416d79880de0b6b3a7640000801ca0be6776ba74fb6dbb63ddb04764cea3330f2554d84f97cdeae9f73d88fdb8e7e1a022b8285e8c93a135edb73c654e32765858165e239dc6588ef837dd00543e86a8",
      "networkId": 0,
      "chainId": 0
    }
  ]
}