{
  "hash": "0xbd54bc5c8dca11dce27029b5c76877ea69f61f2e7c99181c3f3b496dd9121158",
  "parentHash": "0xeae531c6593a8967e6804126a8beb50129fdf70a5cd58587e8f8bfa0824554dd",
  "number": 58197,
  "timestamp": 1439116721,
  "nonce": "0xa6c00d5e40ae5dfd",
  "difficulty": 1719164945858,
  "gasLimit": {
    "_hex": "0x2fefd8"
  },
  "gasUsed": {
    "_hex": "0x5208"
  },
  "miner": "0x1B7047b4338ACf65bE94C1A3e8c5c9338ad7d67C",
  "extraData": "0x476574682f76312e302e312d38326566323666362f6c696e75782f676f312e34",
  "transactions": [
    {
      "hash": "0xa446b3580e04a5dae5f0dcac054675a1c3f59545918c8769559f402e5d05d185",
      "blockHash": "0xbd54bc5c8dca11dce27029b5c76877ea69f61f2e7c99181c3f3b496dd9121158",
      "blockNumber": 58197,
      "transactionIndex": 0,
      "confirmations": null,
      "from": "0x8adC53Ef8c18ED3051785D88E996F3E4b20ECD51",
      "gasPrice": {
        "_hex": "0x1047a0dd8db"
      },
      "gasLimit": {
        "_hex": "0x15f90"
      },
      "to": "0x97322F3992D6C50857b4aB28154cA3f9f8219976",
      "value": {
        "_hex": "0x53c12ea23d3a8400000"
      },
      "nonce": 1,
      "data": "0x",
      "r": "0xa054adeffce33d789081134f28cac7bf2b14fb870957117f67a5f461173463af",
      "s": "0x4deeff9d0a11de8d9bb950d3803f35de5af89cb0e5fd3387c9d9fd04c0f6d48d",
      "v": 28,
      "creates": null,
      "raw": "0xf870018601047a0dd8db83015f909497322f3992d6c50857b4ab28154ca3f9f82199768a053c12ea23d3a8400000801ca0a054adeffce33d789081134f28cac7bf2b14fb870957117f67a5f461173463afa04deeff9d0a11de8d9bb950d3803f35de5af89cb0e5fd3387c9d9fd04c0f6d48d",
      "networkId": 0,
      "chainId": 0
    }
  ]
}