{
  "hash": "0xba3ffcb1fd78049dbbaf0ab847e834e491c6c5d270252a9ca40d82e731ab491c",
  "parentHash": "0x08dd77b42cd51cbab2a362a75db53d32aedd5d6616148c158f12e44187ede773",
  "number": 86270,
  "timestamp": 1439576029,
  "nonce": "0x94479cb7cd05c201",
  "difficulty": 2837395870868,
  "gasLimit": {
    "_hex": "0x2fefd8"
  },
  "gasUsed": {
    "_hex": "0xf618"
  },
  "miner": "0xeB1325C8D9d3ea8D74aC11F4B00F1B2367686319",
  "extraData": "0x476574682f76312e302e312f77696e646f77732f676f312e342e32",
  "transactions": [
    {
      "hash": "0x54fbbf2cea1af42ce841c7347b91b99bcfbd66bdd4b18f0d2792ed4e89ccc8f7",
      "blockHash": "0xba3ffcb1fd78049dbbaf0ab847e834e491c6c5d270252a9ca40d82e731ab491c",
      "blockNumber": 86270,
      "transactionIndex": 0,
      "confirmations": null,
      "from": "0x2910543Af39abA0Cd09dBb2D50200b3E800A63D2",
      "gasPrice": {
        "_hex": "0xd9edcd569"
      },
      "gasLimit": {
        "_hex": "0x5208"
      },
      "to": "0x0398aC7B5CF7d978dB26724AF753A878F0D51610",
      "value": {
        "_hex": "0x50d2e12b3015058000"
      },
      "nonce": 655,
      "data": "0x",
      "r": "0xa157040609695e5f05a9c730e121c3fb03b4dfa160239ccc0f0ed513cefb5ea4",
      "s": "0x3e9367b9089e4f7828950bb55561031d8a80a4873120e9620b7b7760f6aefd0a",
      "v": 28,
      "creates": null,
      "raw": "0xf86f82028f850d9edcd569825208940398ac7b5cf7d978db26724af753a878f0d516108950d2e12b3015058000801ca0a157040609695e5f05a9c730e121c3fb03b4dfa160239ccc0f0ed513cefb5ea4a03e9367b9089e4f7828950bb55561031d8a80a4873120e9620b7b7760f6aefd0a",
      "networkId": 0,
      "chainId": 0
    },
    {
      "hash": "0xde9a05a446abc6f23e208313c44c248745246650671fc70f956d92f788874de6",
      "blockHash": "0xba3ffcb1fd78049dbbaf0ab847e834e491c6c5d270252a9ca40d82e731ab491c",
      "blockNumber": 86270,
      "transactionIndex": 1,
      "confirmations": null,
      "from": "0x2910543Af39abA0Cd09dBb2D50200b3E800A63D2",
      "gasPrice": {
        "_hex": "0xd9edcd569"
      },
      "gasLimit": {
        "_hex": "0x5208"
      },
      "to": "0x765EeAAd1F3F92C0d5aC5361913D96e37ceaeE1A",
      "value": {
        "_hex": "0x958b7ba9300ea80000"
      },
      "nonce": 656,
      "data": "0x",
      "r": "0xf33938876da1944bd80a3fa0a58b6b17925539bc58be8cf781260d2ec3b94f99",
      "s": "0x31c23660bdc812917947202090a2e30d3d3108d581e48db1250a0eb1badf8a4d",
      "v": 28,
      "creates": null,
      "raw": "0xf86f820290850d9edcd56982520894765eeaad1f3f92c0d5ac5361913d96e37ceaee1a89958b7ba9300ea80000801ca0f33938876da1944bd80a3fa0a58b6b17925539bc58be8cf781260d2ec3b94f99a031c23660bdc812917947202090a2e30d3d3108d581e48db1250a0eb1badf8a4d",
      "networkId": 0,
      "chainId": 0
    },
    {
      "hash": "0x09420315cc746c0a6982562c427e3bcc3beda725a7a0cee76d6e7ce53df2d554",
      "blockHash": "0xba3ffcb1fd78049dbbaf0ab847e834e491c6c5d270252a9ca40d82e731ab491c",
      "blockNumber": 86270,
      "transactionIndex": 2,
      "confirmations": null,
      "from": "0x2910543Af39abA0Cd09dBb2D50200b3E800A63D2",
      "gasPrice": {
        "_hex": "0xd9edcd569"
      },
      "gasLimit": {
        "_hex": "0x5208"
      },
      "to": "0x2f86ba8019945f39edE131D38d4d8780884DA553",
      "value": {
        "_hex": "0xbf2502aafa53778000"
      },
      "nonce": 657,
      "data": "0x",
      "r": "0xe176e9480b11f5ce5091b736e4dd1513ce059aa6000d3077b0ade951480d7dc4",
      "s": "0x2fad0226249b05f77796753f45f50dc5ae7fef5e5377d98df824f297495073f9",
      "v": 28,
      "creates": null,
      "raw": "0xf86f820291850d9edcd569825208942f86ba8019945f39ede131d38d4d8780884da55389bf2502aafa53778000801ca0e176e9480b11f5ce5091b736e4dd1513ce059aa6000d3077b0ade951480d7dc4a02fad0226249b05f77796753f45f50dc5ae7fef5e5377d98df824f297495073f9",
      "networkId": 0,
      "chainId": 0
    }
  ]
}