{
  "hash": "0x27db499bff7e6c4f6b1810794418d94e8147519e23be312a6ac9e7ea79a23364",
  "parentHash": "0x42a95062163f5fd6b6f7deaad467cdd9dce0358f8af5b5b61a208da888384fb8",
  "number": 114294,
  "timestamp": 1440038122,
  "nonce": "0xe17f65956613cce4",
  "difficulty": 4457660710913,
  "gasLimit": {
    "_hex": "0x2fefd8"
  },
  "gasUsed": {
    "_hex": "0x5208"
  },
  "miner": "0xe6A7a1d47ff21B6321162AEA7C6CB457D5476Bca",
  "extraData": "0x476574682f76312e302e312d38326566323666362f6c696e75782f676f312e34",
  "transactions": [
    {
      "hash": "0xecb87925de68a1f617de934d711e1d0f8f57d1508a0fc280692750a4c4eac6fd",
      "blockHash": "0x27db499bff7e6c4f6b1810794418d94e8147519e23be312a6ac9e7ea79a23364",
      "blockNumber": 114294,
      "transactionIndex": 0,
      "confirmations": null,
      "from": "0x32Be343B94f860124dC4fEe278FDCBD38C102D88",
      "gasPrice": {
        "_hex": "0xdb679d5cd"
      },
      "gasLimit": {
        "_hex": "0x5208"
      },
      "to": "0xc93a69dFC0fb3E867D9207599f7fe87d51619635",
      "value": {
        "_hex": "0x821ce943684590000"
      },
      "nonce": 1389,
      "data": "0x",
      "r": "0x72a9212ce5aa91a9a6981bc9f6239acf302ccf03830f634e121c6b6743587e72",
      "s": "0x354c142548fa049b8c83f29f26402f188c2c352d6065fd720f085f342069e553",
      "v": 27,
      "creates": null,
      "raw": "0xf86f82056d850db679d5cd82520894c93a69dfc0fb3e867d9207599f7fe87d51619635890821ce943684590000801ba072a9212ce5aa91a9a6981bc9f6239acf302ccf03830f634e121c6b6743587e72a0354c142548fa049b8c83f29f26402f188c2c352d6065fd720f085f342069e553",
      "networkId": 0,
      "chainId": 0
    }
  ]
}