{
  "hash": "0x2036b76a75fdc514ff6226ec6603a39e50afef9e5dd9973670cb996f8e8e5018",
  "parentHash": "0xf9a73164664909efb2395294cf0f86597f6318cde8bec5c53b32069f09d4b343",
  "number": 49261,
  "timestamp": 1438970642,
  "nonce": "0xab40d376b68a84a8",
  "difficulty": 1482144249325,
  "gasLimit": {
    "_hex": "0x2acde"
  },
  "gasUsed": {
    "_hex": "0xa410"
  },
  "miner": "0x01d9DA08cc6Fb97c0DE1B6F4C28910A0859Ed1A1",
  "extraData": "0x476574682f76312e302e312f6c696e75782f676f312e342e32",
  "transactions": [
    {
      "hash": "0x1ce554bc3bebba087c4df1436fb57851bf1009b4fbd92875ec1512bb132aef84",
      "blockHash": "0x2036b76a75fdc514ff6226ec6603a39e50afef9e5dd9973670cb996f8e8e5018",
      "blockNumber": 49261,
      "transactionIndex": 0,
      "confirmations": null,
      "from": "0x32b7C0BDFD488A3c81cCAD7ff2a2fB7A12a5575b",
      "gasPrice": {
        "_hex": "0xdc2280c95"
      },
      "gasLimit": {
        "_hex": "0x5208"
      },
      "to": "0x32Be343B94f860124dC4fEe278FDCBD38C102D88",
      "value": {
        "_hex": "0x6c6b8ef2ed35680000"
      },
      "nonce": 1,
      "data": "0x",
      "r": "0x92dbeea952e1cf487a3ec9015bc2217cf3fe2005d7a090160b3e50e7aee41af8",
      "s": "0x785c0d1805fb7a5e2c584a3f83ffb01f84a34293264675b546f1a567c00ae54b",
      "v": 28,
      "creates": null,
      "raw": "0xf86d01850dc2280c958252089432be343b94f860124dc4fee278fdcbd38c102d88896c6b8ef2ed35680000801ca092dbeea952e1cf487a3ec9015bc2217cf3fe2005d7a090160b3e50e7aee41af8a0785c0d1805fb7a5e2c584a3f83ffb01f84a34293264675b546f1a567c00ae54b",
      "networkId": 0,
      "chainId": 0
    },
    {
      "hash": "0x4b27b36e717e5c6aed83e47dec1ca0c519175a90a48e6123ba52e9786301febc",
      "blockHash": "0x2036b76a75fdc514ff6226ec6603a39e50afef9e5dd9973670cb996f8e8e5018",
      "blockNumber": 49261,
      "transactionIndex": 1,
      "confirmations": null,
      "from": "0x3F3990F78c33F1F7A2868AE9579EA3732e84C71D",
      "gasPrice": {
        "_hex": "0xdc2280c95"
      },
      "gasLimit": {
        "_hex": "0x5208"
      },
      "to": "0x32Be343B94f860124dC4fEe278FDCBD38C102D88",
      "value": {
        "_hex": "0xddc43655cf93000"
      },
      "nonce": 0,
      "data": "0x",
      "r": "0x48fc92e2e51a3231677a4fcbeb428c072cc12b5000d45453c69730d3f71faaae",
      "s": "0x58bfcb34009ef86eb1c53ab3f6d1f66f9893731a0e8527af2a16e1f2e608bec3",
      "v": 28,
      "creates": null,
      "raw": "0xf86c80850dc2280c958252089432be343b94f860124dc4fee278fdcbd38c102d88880ddc43655cf93000801ca048fc92e2e51a3231677a4fcbeb428c072cc12b5000d45453c69730d3f71faaaea058bfcb34009ef86eb1c53ab3f6d1f66f9893731a0e8527af2a16e1f2e608bec3",
      "networkId": 0,
      "chainId": 0
    }
  ]
}