{
  "hash": "0xc673045cb68bd23ab1a4b84e36a93bb95c419873328e42d12d1c3bbfe66b642d",
  "parentHash": "0x4386d37adc950c1e4b6ad2cb2d6cf58747b36b5677a67f8400456fdb2c1dc735",
  "number": 105468,
  "timestamp": 1439888161,
  "nonce": "0x60f7df092a543760",
  "difficulty": 4397463189406,
  "gasLimit": {
    "_hex": "0x2fefd8"
  },
  "gasUsed": {
    "_hex": "0x5208"
  },
  "miner": "0xe6A7a1d47ff21B6321162AEA7C6CB457D5476Bca",
  "extraData": "0x476574682f76312e302e312d38326566323666362f6c696e75782f676f312e34",
  "transactions": [
    {
      "hash": "0xa1ce271cab94d52212220fc32eacad495603cf28eb1cffd84ef5a8b3136a49d9",
      "blockHash": "0xc673045cb68bd23ab1a4b84e36a93bb95c419873328e42d12d1c3bbfe66b642d",
      "blockNumber": 105468,
      "transactionIndex": 0,
      "confirmations": null,
      "from": "0x3B6C409e2ADC909C20B59DF21a7c48F44c259F24",
      "gasPrice": {
        "_hex": "0xd1ea1dcd2"
      },
      "gasLimit": {
        "_hex": "0x5208"
      },
      "to": "0x32Be343B94f860124dC4fEe278FDCBD38C102D88",
      "value": {
        "_hex": "0x9a13f4547671c000"
      },
      "nonce": 3,
      "data": "0x",
      "r": "0xe12162010605fa89205820cec5d0f2c37e33d784bf4d106ac9be570cde530c78",
      "s": "0x5f06477e56b4b8202c6f88b98f665a99cbd4929f8f2fdc64873fc5686f1c12aa",
      "v": 27,
      "creates": null,
      "raw": "0xf86c03850d1ea1dcd28252089432be343b94f860124dc4fee278fdcbd38c102d88889a13f4547671c000801ba0e12162010605fa89205820cec5d0f2c37e33d784bf4d106ac9be570cde530c78a05f06477e56b4b8202c6f88b98f665a99cbd4929f8f2fdc64873fc5686f1c12aa",
      "networkId": 0,
      "chainId": 0
    }
  ]
}