{
  "hash": "0x08f04e4cfb22f7fcec79c7524eadf76d074cad416266b147cb744761367a696b",
  "parentHash": "0xf6ab1048ad55b91542bb753533b944d0c68bbe0ea22df1629e5e2f5e7b0bd350",
  "number": 110533,
  "timestamp": 1439975313,
  "nonce": "0x00cb4a8ebe5de54e",
  "difficulty": 4375538071772,
  "gasLimit": {
    "_hex": "0x2fefd8"
  },
  "gasUsed": {
    "_hex": "0x5208"
  },
  "miner": "0x0037ce3d4B7f8729C8607D8D0248252Be68202c0",
  "extraData": "0x476574682f76312e302e312f77696e646f77732f676f312e342e32",
  "transactions": [
    {
      "hash": "0x8b8cae2e9aad6701a53f24ba300b7116b4936b719b4143430fab37e5afd7ba8f",
      "blockHash": "0x08f04e4cfb22f7fcec79c7524eadf76d074cad416266b147cb744761367a696b",
      "blockNumber": 110533,
      "transactionIndex": 0,
      "confirmations": null,
      "from": "0x97A2b04809Fd7Dfa5C1d7B25e38Aad46964330F5",
      "gasPrice": {
        "_hex": "0xba43b7400"
      },
      "gasLimit": {
        "_hex": "0x15f90"
      },
      "to": "0x7892e574CADDBB5E9491DE9F26C1F2747F442eeE",
      "value": {
        "_hex": "0x38d7ea4c68000"
      },
      "nonce": 1,
      "data": "0x",
      "r": "0x2df991376816014200d2148bd2abe6ca213a191c3cf603fb22e3421275d060bc",
      "s": "0x1610d5a7acaa076a93962db5f60fafdb5f7c944b047e9ddeb4e8d7b3fab77408",
      "v": 27,
      "creates": null,
      "raw": "0xf86c01850ba43b740083015f90947892e574caddbb5e9491de9f26c1f2747f442eee87038d7ea4c68000801ba02df991376816014200d2148bd2abe6ca213a191c3cf603fb22e3421275d060bca01610d5a7acaa076a93962db5f60fafdb5f7c944b047e9ddeb4e8d7b3fab77408",
      "networkId": 0,
      "chainId": 0
    }
  ]
}