{
  "hash": "0xbcd8d451b8f3a6dacbb25e2975028c5e7af57d1d3c97870fd825f8527c91184b",
  "parentHash": "0x49a4e156732465c1ced16bb2e19495b67988ef7041c562594500fb15ee9e6912",
  "number": 65508,
  "timestamp": 1439238175,
  "nonce": "0xec2677f8a5f48292",
  "difficulty": 1954944254229,
  "gasLimit": {
    "_hex": "0x2fefd8"
  },
  "gasUsed": {
    "_hex": "0x546c"
  },
  "miner": "0x88D74a59454F6cF3B51ef6b9136AFb6b9D405A88",
  "extraData": "0x476574682f76312e302e312d37666266393930632f6c696e75782f676f312e34",
  "transactions": [
    {
      "hash": "0x4cb86ccb5088cd578c1e76077d95192fb6a21e853d66ee0f8ebaa002b8989198",
      "blockHash": "0xbcd8d451b8f3a6dacbb25e2975028c5e7af57d1d3c97870fd825f8527c91184b",
      "blockNumber": 65508,
      "transactionIndex": 0,
      "confirmations": null,
      "from": "0x9EEF442d291A447d74c5d253c49Ef324eAc1d8f0",
      "gasPrice": {
        "_hex": "0x110c8f7d8de"
      },
      "gasLimit": {
        "_hex": "0xc350"
      },
      "to": "0x2910543Af39abA0Cd09dBb2D50200b3E800A63D2",
      "value": {
        "_hex": "0x14db7a9681d38b0000"
      },
      "nonce": 4,
      "data": "0x454e483950304d4852",
      "r": "0x3373ec406e4b5515408ae1d77bcb5667b7a6c89f36ad6ac375d2852e6f56313a",
      "s": "0xc04a764daecf6800ec4b7d88591ad8aef3a8ae05dc2817d526e41f4107af43e1",
      "v": 28,
      "creates": null,
      "raw": "0xf87704860110c8f7d8de82c350942910543af39aba0cd09dbb2d50200b3e800a63d28914db7a9681d38b000089454e483950304d48521ca03373ec406e4b5515408ae1d77bcb5667b7a6c89f36ad6ac375d2852e6f56313aa0c04a764daecf6800ec4b7d88591ad8aef3a8ae05dc2817d526e41f4107af43e1",
      "networkId": 0,
      "chainId": 0
    }
  ]
}