{
  "hash": "0x222440a7ec58c1c8b0e850f97bf22d4670007128409d1d668eeb44c2730cced5",
  "parentHash": "0xd502de89b5c17945260c47e465e8821cabeb1e2b1fcdf4f7e04644b41cf9d044",
  "number": 69034,
  "timestamp": 1439297450,
  "nonce": "0x3b27c6e0c402e1ab",
  "difficulty": 2037927861364,
  "gasLimit": {
    "_hex": "0x2fefd8"
  },
  "gasUsed": {
    "_hex": "0x19a28"
  },
  "miner": "0xbb7B8287f3F0a933474a79eAe42CBCa977791171",
  "extraData": "0x476574682f4c5649562f76312e302e312f6c696e75782f676f312e342e32",
  "transactions": [
    {
      "hash": "0x344483b9dd1b4d58d2d506bec636966de579efdba887baa0edc574c7455e6836",
      "blockHash": "0x222440a7ec58c1c8b0e850f97bf22d4670007128409d1d668eeb44c2730cced5",
      "blockNumber": 69034,
      "transactionIndex": 0,
      "confirmations": null,
      "from": "0x1a81859042CA7F7ff6C66d78Cb6E11680D09875D",
      "gasPrice": {
        "_hex": "0xba43b7400"
      },
      "gasLimit": {
        "_hex": "0x5208"
      },
      "to": "0x356Ea3a2D6743095fb9d5Ad81A91877B545F9244",
      "value": {
        "_hex": "0x1d7684e6875b000"
      },
      "nonce": 1,
      "data": "0x",
      "r": "0x1ba2629f1ef9d1d3d39bfcd20b73bb896824fcc2131caee8eef1433e5e7d4e39",
      "s": "0x6256d045a7a9bb2826d7dff368d46f08e12e79e4e4c840528f8b2c6c426c919e",
      "v": 28,
      "creates": null,
      "raw": "0xf86c01850ba43b740082520894356ea3a2d6743095fb9d5ad81a91877b545f92448801d7684e6875b000801ca01ba2629f1ef9d1d3d39bfcd20b73bb896824fcc2131caee8eef1433e5e7d4e39a06256d045a7a9bb2826d7dff368d46f08e12e79e4e4c840528f8b2c6c426c919e",
      "networkId": 0,
      "chainId": 0
    },
    {
      "hash": "0x640c0193b3f16b7055f761421a1c6f003b345ed4ad2ff44b4734bb09349bdc58",
      "blockHash": "0x222440a7ec58c1c8b0e850f97bf22d4670007128409d1d668eeb44c2730cced5",
      "blockNumber": 69034,
      "transactionIndex": 1,
      "confirmations": null,
      "from": "0xFc06CB6964D5a2c4d4025Ea7D7947f5Bd2B5c31d",
      "gasPrice": {
        "_hex": "0xba43b7400"
      },
      "gasLimit": {
        "_hex": "0x5208"
      },
      "to": "0x6F0280e2d90691906fc539C81B380e6de8a5aF9B",
      "value": {
        "_hex": "0x1d7684e6875b000"
      },
      "nonce": 1,
      "data": "0x",
      "r": "0xb96a0031f410a0e43c955d80ce4eb15b9c2b5738aa9f8eab7d03562052f308dd",
      "s": "0x2df49954c5f7ee9e10c0e17681dad71328e2adbae03c85c487f999481eca2594",
      "v": 27,
      "creates": null,
      "raw": "0xf86c01850ba43b7400825208946f0280e2d90691906fc539c81b380e6de8a5af9b8801d7684e6875b000801ba0b96a0031f410a0e43c955d80ce4eb15b9c2b5738aa9f8eab7d03562052f308dda02df49954c5f7ee9e10c0e17681dad71328e2adbae03c85c487f999481eca2594",
      "networkId": 0,
      "chainId": 0
    },
    {
      "hash": "0xde5ffdcef550cf6e02ff0417814bc9212d18a5187e9eb9d301ec4fc79cb48e06",
      "blockHash": "0x222440a7ec58c1c8b0e850f97bf22d4670007128409d1d668eeb44c2730cced5",
      "blockNumber": 69034,
      "transactionIndex": 2,
      "confirmations": null,
      "from": "0x48690f3dE4695069F943a3bbB9292697e48879D2",
      "gasPrice": {
        "_hex": "0xba43b7400"
      },
      "gasLimit": {
        "_hex": "0x5208"
      },
      "to": "0x2888c8b6607c163D7433ef019AbD7bf3CAC5bcD9",
      "value": {
        "_hex": "0x1d7684e6875b000"
      },
      "nonce": 1,
      "data": "0x",
      "r": "0x0606df9f569493bd0f1f52e07d548fab0a5bd7bc16cc395acddf3b4af2cc22f6",
      "s": "0x52bd6b7d7ff63fa4232a2a32ed263a0fc236da0a30765457b03bb372fbef5126",
      "v": 27,
      "creates": null,
      "raw": "0xf86c01850ba43b7400825208942888c8b6607c163d7433ef019abd7bf3cac5bcd98801d7684e6875b000801ba00606df9f569493bd0f1f52e07d548fab0a5bd7bc16cc395acddf3b4af2cc22f6a052bd6b7d7ff63fa4232a2a32ed263a0fc236da0a30765457b03bb372fbef5126",
      "networkId": 0,
      "chainId": 0
    },
    {
      "hash": "0x4ed21dd608a4c2aa656f36916141911207b3855992d1b42112aa274965399ae2",
      "blockHash": "0x222440a7ec58c1c8b0e850f97bf22d4670007128409d1d668eeb44c2730cced5",
      "blockNumber": 69034,
      "transactionIndex": 3,
      "confirmations": null,
      "from": "0x9Efe7eD2d1C4B7Db092D0FACAA71dF86E1876203",
      "gasPrice": {
        "_hex": "0xba43b7400"
      },
      "gasLimit": {
        "_hex": "0x5208"
      },
      "to": "0x18d977906a767E0A57Df0AF5D2Ba7c68a43184D0",
      "value": {
        "_hex": "0x1d7684e6875b000"
      },
      "nonce": 1,
      "data": "0x",
      "r": "0x373c48736b1d118ee68bfdf1ff1823310ae501e57c995f36ba2a80a15c66021d",
      "s": "0x6a4534c00af115a797080e1aa874544c0799d13ed78ba033bddb2a4da941b73a",
      "v": 27,
      "creates": null,
      "raw": "0xf86c01850ba43b74008252089418d977906a767e0a57df0af5d2ba7c68a43184d08801d7684e6875b000801ba0373c48736b1d118ee68bfdf1ff1823310ae501e57c995f36ba2a80a15c66021da06a4534c00af115a797080e1aa874544c0799d13ed78ba033bddb2a4da941b73a",
      "networkId": 0,
      "chainId": 0
    },
    {
      "hash": "0x5b0d3625e948326341d71c515711604b0d64d5101bb4b041b7a9e062adb0d9a5",
      "blockHash": "0x222440a7ec58c1c8b0e850f97bf22d4670007128409d1d668eeb44c2730cced5",
      "blockNumber": 69034,
      "transactionIndex": 4,
      "confirmations": null,
      "from": "0xb2f3d39d99a4Fd78c0E5B08DDc533fE5Dd927ae4",
      "gasPrice": {
        "_hex": "0xba43b7400"
      },
      "gasLimit": {
        "_hex": "0x5208"
      },
      "to": "0x97D33c989D2178236e1D372862f05f1079b23cc4",
      "value": {
        "_hex": "0x1d7684e6875b000"
      },
      "nonce": 1,
      "data": "0x",
      "r": "0x0ac763a6050ed7101d19bad942697023686ca73e8ac3b9ccf61b967ffb39aec7",
      "s": "0x1e01e4a65a6f6ba786ed524d67f06eab389431023b201e03d05ed3e9a8ff9709",
      "v": 28,
      "creates": null,
      "raw": "0xf86c01850ba43b74008252089497d33c989d2178236e1d372862f05f1079b23cc48801d7684e6875b000801ca00ac763a6050ed7101d19bad942697023686ca73e8ac3b9ccf61b967ffb39aec7a01e01e4a65a6f6ba786ed524d67f06eab389431023b201e03d05ed3e9a8ff9709",
      "networkId": 0,
      "chainId": 0
    }
  ]
}