{
  "hash": "0x487a67f59ccdc726194300eb64d80d3474bcca742709001de11f28764a51f72e",
  "parentHash": "0xa11410f27d7c89c6e4cf95bf76dc78efd35dd30eeb7e561894ad87eadc5e9ffe",
  "number": 63946,
  "timestamp": 1439212804,
  "nonce": "0xae398af470d1c6f5",
  "difficulty": 1849441712679,
  "gasLimit": {
    "_hex": "0x2fefd8"
  },
  "gasUsed": {
    "_hex": "0x56c8"
  },
  "miner": "0x88D74a59454F6cF3B51ef6b9136AFb6b9D405A88",
  "extraData": "0x476574682f76312e302e312d37666266393930632f6c696e75782f676f312e34",
  "transactions": [
    {
      "hash": "0xad23e981b1501cf8ddbc8bf9f34f410c5d4fada63916a809569a88ffe59a59b9",
      "blockHash": "0x487a67f59ccdc726194300eb64d80d3474bcca742709001de11f28764a51f72e",
      "blockNumber": 63946,
      "transactionIndex": 0,
      "confirmations": null,
      "from": "0x5a09fCD65081Be9d1baFa0493697d85AeCBb22AE",
      "gasPrice": {
        "_hex": "0xba43b7400"
      },
      "gasLimit": {
        "_hex": "0x5727"
      },
      "to": "0x0000000000000000000000000000000000000000",
      "value": {
        "_hex": "0x1388"
      },
      "nonce": 0,
      "data": "0x72656769737465720000000000000000000000000000000000000000000000006b6572706c6f7000000000000000000000000000000000000000000000000000",
      "r": "0x945201bf632ebfff848c625c62a5e6c33933ff05296a76a39b4a2f080c7c9695",
      "s": "0xce36cf66d27163d29aa9a38759d5c6cb3ae460f897c248731bfaa1d10fef5d1f",
      "v": 27,
      "creates": null,
      "raw": "0xf8a780850ba43b7400825727940000000000000000000000000000000000000000821388b84072656769737465720000000000000000000000000000000000000000000000006b6572706c6f70000000000000000000000000000000000000000000000000001ba0945201bf632ebfff848c625c62a5e6c33933ff05296a76a39b4a2f080c7c9695a0ce36cf66d27163d29aa9a38759d5c6cb3ae460f897c248731bfaa1d10fef5d1f",
      "networkId": 0,
      "chainId": 0
    }
  ]
}