{
  "hash": "0x5f82c4b94dfb430f3d1acd915d7c9b2c256b206f6e52b2c8bac82f4c8e2ecb17",
  "parentHash": "0xde97d45f8c006a4ec729375cd47e25b52f546f1bd2ed29fd544cba2e817b88ea",
  "number": 49189,
  "timestamp": 1438969484,
  "nonce": "0xc52215e43a425a19",
  "difficulty": 1479264957819,
  "gasLimit": {
    "_hex": "0x28635"
  },
  "gasUsed": {
    "_hex": "0x546c"
  },
  "miner": "0x288E4356F12D0D3D0F8DF3506E457E7cFd5f4Ab0",
  "extraData": "0x44617669642044776f726b656e",
  "transactions": [
    {
      "hash": "0xc07ded88211c7f378dc321352e3d0f09e22e09639e959910e60d4db3f52e1907",
      "blockHash": "0x5f82c4b94dfb430f3d1acd915d7c9b2c256b206f6e52b2c8bac82f4c8e2ecb17",
      "blockNumber": 49189,
      "transactionIndex": 0,
      "confirmations": null,
      "from": "0xA42A83f4FB6f632FE7Fae0e97E4180D1a939e4BA",
      "gasPrice": {
        "_hex": "0xcd7fe295d"
      },
      "gasLimit": {
        "_hex": "0x61a8"
      },
      "to": "0x2910543Af39abA0Cd09dBb2D50200b3E800A63D2",
      "value": {
        "_hex": "0xebec21ee1da40000"
      },
      "nonce": 0,
      "data": "0x454e4b33524b515a30",
      "r": "0xbe7d81d449218867558efc31f5defcf8484684339c235e1e825d189e3ed9d561",
      "s": "0x3f89100aca8e5f623010dbc59f5e6521926befa3dfcc526088eb0f04957707f2",
      "v": 28,
      "creates": null,
      "raw": "0xf87580850cd7fe295d8261a8942910543af39aba0cd09dbb2d50200b3e800a63d288ebec21ee1da4000089454e4b33524b515a301ca0be7d81d449218867558efc31f5defcf8484684339c235e1e825d189e3ed9d561a03f89100aca8e5f623010dbc59f5e6521926befa3dfcc526088eb0f04957707f2",
      "networkId": 0,
      "chainId": 0
    }
  ]
}