{
  "hash": "0x760d5af714db8fc069f3d37b381150dcb8a1268639fdea402a6de4008d55e3ec",
  "parentHash": "0x3fec6325ceb2bdf4645576f4a3d3d14ed1211c437a98510939219f9d663be1c9",
  "number": 71201,
  "timestamp": 1439332267,
  "nonce": "0x52f9985d39d47a17",
  "difficulty": 2148774911847,
  "gasLimit": {
    "_hex": "0x2fefd8"
  },
  "gasUsed": {
    "_hex": "0x5208"
  },
  "miner": "0x785ffdDd5cE55c6DF963f345e68d3F2024E5Acb1",
  "extraData": "0x476574682f4d69676e6f7474652f76312e302e312f6c696e75782f676f312e34",
  "transactions": [
    {
      "hash": "0x59d61607ae4b6fcaedcb345df5856585d2b63a6d1d3d1bb848711f2126697314",
      "blockHash": "0x760d5af714db8fc069f3d37b381150dcb8a1268639fdea402a6de4008d55e3ec",
      "blockNumber": 71201,
      "transactionIndex": 0,
      "confirmations": null,
      "from": "0x727A42a8D67fcaa0Ab81D46f1EE66bfc9b8789AC",
      "gasPrice": {
        "_hex": "0xd4c51971a"
      },
      "gasLimit": {
        "_hex": "0x15f90"
      },
      "to": "0x285B048CC4cB946abCF3eF11aDe982C36946AF18",
      "value": {
        "_hex": "0x4139c1192c560000"
      },
      "nonce": 5,
      "data": "0x",
      "r": "0xad1674e79fe22cc6981b6721dc0ccfd3b3d9049a3c3f150e13e7cd28436cf429",
      "s": "0x7804ca49b09df2514845fbfe21aa8cade3c4211a5724e62e25e08cf2e0a4601a",
      "v": 28,
      "creates": null,
      "raw": "0xf86d05850d4c51971a83015f9094285b048cc4cb946abcf3ef11ade982c36946af18884139c1192c560000801ca0ad1674e79fe22cc6981b6721dc0ccfd3b3d9049a3c3f150e13e7cd28436cf429a07804ca49b09df2514845fbfe21aa8cade3c4211a5724e62e25e08cf2e0a4601a",
      "networkId": 0,
      "chainId": 0
    }
  ]
}