{
  "hash": "0x5255c1cdccf71feb96f48110b7e9b351a142d74d5437dc1bfa7c34a9528b5bf0",
  "parentHash": "0x9c3978035ad5ee89dde0b8fab50a227468fbf3d9e2e4413125d464cef3c16fe5",
  "number": 81309,
  "timestamp": 1439499643,
  "nonce": "0xd4f6cb7bcfe38076",
  "difficulty": 2446240335466,
  "gasLimit": {
    "_hex": "0x2fefd8"
  },
  "gasUsed": {
    "_hex": "0xa630"
  },
  "miner": "0xe6A7a1d47ff21B6321162AEA7C6CB457D5476Bca",
  "extraData": "0x476574682f76312e302e312d38326566323666362f6c696e75782f676f312e34",
  "transactions": [
    {
      "hash": "0x3cb817d26c0951ff47edb1f4c24381cb035bb8ae882eb46033ba23d525ef95d3",
      "blockHash": "0x5255c1cdccf71feb96f48110b7e9b351a142d74d5437dc1bfa7c34a9528b5bf0",
      "blockNumber": 81309,
      "transactionIndex": 0,
      "confirmations": null,
      "from": "0xd76d80cF095d7Bf29c0d1EA9FC3CD26ed07e7f93",
      "gasPrice": {
        "_hex": "0x1148d2c2220"
      },
      "gasLimit": {
        "_hex": "0x55f0"
      },
      "to": "0xa61e151af0007B7406d969Dce51740caf0D69088",
      "value": {
        "_hex": "0x2386f26fc10000"
      },
      "nonce": 0,
      "data": "0x454e374242585858",
      "r": "0x84d2a595f875a2532716445081111454db0c34baaa103ae131c90d16f5ab75f6",
      "s": "0x6d6fc9c281f99f2cf980fd0e9e8c53fa70ade6e674e26c073052f14e9bb169c2",
      "v": 28,
      "creates": null,
      "raw": "0xf874808601148d2c22208255f094a61e151af0007b7406d969dce51740caf0d69088872386f26fc1000088454e3742425858581ca084d2a595f875a2532716445081111454db0c34baaa103ae131c90d16f5ab75f6a06d6fc9c281f99f2cf980fd0e9e8c53fa70ade6e674e26c073052f14e9bb169c2",
      "networkId": 0,
      "chainId": 0
    },
    {
      "hash": "0x902f1796da72ca65ab120b0f7ddc675ead6a84f600091c0544271023c1cf118f",
      "blockHash": "0x5255c1cdccf71feb96f48110b7e9b351a142d74d5437dc1bfa7c34a9528b5bf0",
      "blockNumber": 81309,
      "transactionIndex": 1,
      "confirmations": null,
      "from": "0x2910543Af39abA0Cd09dBb2D50200b3E800A63D2",
      "gasPrice": {
        "_hex": "0xd813f429f"
      },
      "gasLimit": {
        "_hex": "0x5208"
      },
      "to": "0xFb89b8778d254A66A7FE21Ca8C9F095375D497f4",
      "value": {
        "_hex": "0x1158d29d18051f8000"
      },
      "nonce": 466,
      "data": "0x",
      "r": "0xeb479415bed15005495b0fcffb0b1d61008ee89b7da7ae21d9273fcc56042121",
      "s": "0x0ce7c7764f6eb7628c6b52230c70fe46ed294fa527cb9d3e2ec7952e3dc46622",
      "v": 28,
      "creates": null,
      "raw": "0xf86f8201d2850d813f429f82520894fb89b8778d254a66a7fe21ca8c9f095375d497f4891158d29d18051f8000801ca0eb479415bed15005495b0fcffb0b1d61008ee89b7da7ae21d9273fcc56042121a00ce7c7764f6eb7628c6b52230c70fe46ed294fa527cb9d3e2ec7952e3dc46622",
      "networkId": 0,
      "chainId": 0
    }
  ]
}