{
  "hash": "0x9770f7ba026e7b3efb129ce1c276ed8a0b82c5019566a1da41088b245c40f10f",
  "parentHash": "0xd3ed11f411eaaf947c8c6f626a212ecf8bc94adff80218ede5a9ff73d1aa0b2d",
  "number": 76461,
  "timestamp": 1439421072,
  "nonce": "0x45d1732767f9210f",
  "difficulty": 2224266243705,
  "gasLimit": {
    "_hex": "0x2fefd8"
  },
  "gasUsed": {
    "_hex": "0x5208"
  },
  "miner": "0xC603Ab5ef41fC61AA8b76bEddb09e3Cfcbb174BD",
  "extraData": "0x476574682f76312e302e312f77696e646f77732f676f312e342e32",
  "transactions": [
    {
      "hash": "0xb8f61a6b6f561fe1ee1f9ed98fdf3efcd83fdf30c72578cf121ac070c7e04a10",
      "blockHash": "0x9770f7ba026e7b3efb129ce1c276ed8a0b82c5019566a1da41088b245c40f10f",
      "blockNumber": 76461,
      "transactionIndex": 0,
      "confirmations": null,
      "from": "0x2910543Af39abA0Cd09dBb2D50200b3E800A63D2",
      "gasPrice": {
        "_hex": "0xd3f423689"
      },
      "gasLimit": {
        "_hex": "0x5208"
      },
      "to": "0x943800a6196105B4937F48570Dc5D0232a962da5",
      "value": {
        "_hex": "0xdcef33a6f838000"
      },
      "nonce": 326,
      "data": "0x",
      "r": "0xada4d0ba8030bf5e5265907a0abf2e74430a4fb59f91f2c953e2f5fd1378d9ef",
      "s": "0x46890fbcf8216aec1f779b55c71e634887b60abb09ec0fe4d7b3283e8f1514e1",
      "v": 28,
      "creates": null,
      "raw": "0xf86e820146850d3f42368982520894943800a6196105b4937f48570dc5d0232a962da5880dcef33a6f838000801ca0ada4d0ba8030bf5e5265907a0abf2e74430a4fb59f91f2c953e2f5fd1378d9efa046890fbcf8216aec1f779b55c71e634887b60abb09ec0fe4d7b3283e8f1514e1",
      "networkId": 0,
      "chainId": 0
    }
  ]
}