{
  "hash": "0x408280b05a2b046bbec01fb84aaddc258920e5e1a3a404aa3cc8f57e7cd68075",
  "parentHash": "0x59cce794433f3a66ce05c2af608ef7524fb186968bbeb899192b808b03d71033",
  "number": 91707,
  "timestamp": 1439660169,
  "nonce": "0x205f4a6fe72c7af6",
  "difficulty": 3486092664886,
  "gasLimit": {
    "_hex": "0x2fefd8"
  },
  "gasUsed": {
    "_hex": "0xddfd"
  },
  "miner": "0x790b8a3cE86E707ED0eD32bF89B3269692a23CC1",
  "extraData": "0xd783010001844765746887676f312e342e32856c696e7578",
  "transactions": [
    {
      "hash": "0xec9128639beac847795512deccc2d0628f497f087f332affbd47043a9d09173a",
      "blockHash": "0x408280b05a2b046bbec01fb84aaddc258920e5e1a3a404aa3cc8f57e7cd68075",
      "blockNumber": 91707,
      "transactionIndex": 0,
      "confirmations": null,
      "from": "0x8991F62808482Bde546e7e5Bd7c91d26C405dD3d",
      "gasPrice": {
        "_hex": "0xd9cc06f42"
      },
      "gasLimit": {
        "_hex": "0x7a120"
      },
      "to": "0xBAA54d6E90c3F4d7Ebec11bD180134C7eD8eBb52",
      "value": {
        "_hex": "0x16345785d8a0000"
      },
      "nonce": 0,
      "data": "0x",
      "r": "0x6d9ee17218fc2480c8007cde37b60bd0c732d679fc55a7bc28be6c61074d81ab",
      "s": "0x2fea1bc49cd9e0389a2dbcd3b708566fcd10cf2d678f49cfcf89e0de1143605a",
      "v": 27,
      "creates": null,
      "raw": "0xf86d80850d9cc06f428307a12094baa54d6e90c3f4d7ebec11bd180134c7ed8ebb5288016345785d8a0000801ba06d9ee17218fc2480c8007cde37b60bd0c732d679fc55a7bc28be6c61074d81aba02fea1bc49cd9e0389a2dbcd3b708566fcd10cf2d678f49cfcf89e0de1143605a",
      "networkId": 0,
      "chainId": 0
    }
  ]
}