{
  "hash": "0xff3178600e4c82a15ce29275b353cac4075285bf8f99875d6477715ce84d2a63",
  "parentHash": "0x6a0ef83dc86888ef67180ee4d5b20fe2b083c950e6ed4f6fefdce02c2de86cce",
  "number": 111715,
  "timestamp": 1439994767,
  "nonce": "0xd12815f66b8d6358",
  "difficulty": 4452504385238,
  "gasLimit": {
    "_hex": "0x2fefd8"
  },
  "gasUsed": {
    "_hex": "0x5208"
  },
  "miner": "0xe6A7a1d47ff21B6321162AEA7C6CB457D5476Bca",
  "extraData": "0x476574682f76312e302e312d38326566323666362f6c696e75782f676f312e34",
  "transactions": [
    {
      "hash": "0x802c6ffc51d31c00b15ddd6a5fc749330bc753b9447439b2835904383b1afd1c",
      "blockHash": "0xff3178600e4c82a15ce29275b353cac4075285bf8f99875d6477715ce84d2a63",
      "blockNumber": 111715,
      "transactionIndex": 0,
      "confirmations": null,
      "from": "0x9d0D51Aa42b97151aaCa5876a743172C8c04f09E",
      "gasPrice": {
        "_hex": "0xd6d5fb0c8"
      },
      "gasLimit": {
        "_hex": "0x5208"
      },
      "to": "0x32Be343B94f860124dC4fEe278FDCBD38C102D88",
      "value": {
        "_hex": "0x2b5df61a2d06e0000"
      },
      "nonce": 3,
      "data": "0x",
      "r": "0x81a348777bc661ca24f3cb9ecb68d502b0847d1e498596b2751256907571080f",
      "s": "0x65922ee1fe0483ddaa11ee6aff5f17fa7e92c741ccadb822c6fa161de0820d09",
      "v": 27,
      "creates": null,
      "raw": "0xf86d03850d6d5fb0c88252089432be343b94f860124dc4fee278fdcbd38c102d888902b5df61a2d06e0000801ba081a348777bc661ca24f3cb9ecb68d502b0847d1e498596b2751256907571080fa065922ee1fe0483ddaa11ee6aff5f17fa7e92c741ccadb822c6fa161de0820d09",
      "networkId": 0,
      "chainId": 0
    }
  ]
}