{
  "hash": "0xd1422cab0f10708658eba9f1f7342f0e552f1719f1da851e9fbad89f620b9bb5",
  "parentHash": "0xb8b1a08a10c329ebb034e8220bdf3860b604137bfddb5aa43214af33cb9aff0c",
  "number": 74804,
  "timestamp": 1439392690,
  "nonce": "0x4d02747958c473b1",
  "difficulty": 2193425452877,
  "gasLimit": {
    "_hex": "0x2fefd8"
  },
  "gasUsed": {
    "_hex": "0x5208"
  },
  "miner": "0x5e1a72dde3Ffc20B77eA8382E916EF04C89ff2Bd",
  "extraData": "0x476574682f76312e302e302f77696e646f77732f676f312e342e32",
  "transactions": [
    {
      "hash": "0x948cb7a485851692924a98fd7deb537858955181200ebb0c99f7d20aa1a163b6",
      "blockHash": "0xd1422cab0f10708658eba9f1f7342f0e552f1719f1da851e9fbad89f620b9bb5",
      "blockNumber": 74804,
      "transactionIndex": 0,
      "confirmations": null,
      "from": "0x2910543Af39abA0Cd09dBb2D50200b3E800A63D2",
      "gasPrice": {
        "_hex": "0xe142d418a"
      },
      "gasLimit": {
        "_hex": "0x5208"
      },
      "to": "0x833D094f108973bD9d9A248179aE4ED00a4613a6",
      "value": {
        "_hex": "0x8786666ef574af8000"
      },
      "nonce": 304,
      "data": "0x",
      "r": "0x04c907e5fa2c94b3597ef225c730238ef71bf03eaa70cd1f9868c2acbfb9d85a",
      "s": "0x4420c96b1f6fbf30bbf15d4064759f49a4ea6d6f17d2a252c293c410846338f9",
      "v": 28,
      "creates": null,
      "raw": "0xf86f820130850e142d418a82520894833d094f108973bd9d9a248179ae4ed00a4613a6898786666ef574af8000801ca004c907e5fa2c94b3597ef225c730238ef71bf03eaa70cd1f9868c2acbfb9d85aa04420c96b1f6fbf30bbf15d4064759f49a4ea6d6f17d2a252c293c410846338f9",
      "networkId": 0,
      "chainId": 0
    }
  ]
}