{
  "hash": "0x873ab948023521da81dfb0f2b70c66fe6e48c39bd5c3497c62de31d2ca0b997b",
  "parentHash": "0x0d548534a50d7adef86fbc2f42224e97af23a4d365dec5b2843de4bf9a909de7",
  "number": 109462,
  "timestamp": 1439957049,
  "nonce": "0x78866093f9fb2781",
  "difficulty": 4442840362513,
  "gasLimit": {
    "_hex": "0x2fefd8"
  },
  "gasUsed": {
    "_hex": "0x1bdbe"
  },
  "miner": "0xe6A7a1d47ff21B6321162AEA7C6CB457D5476Bca",
  "extraData": "0x476574682f76312e302e312d38326566323666362f6c696e75782f676f312e34",
  "transactions": [
    {
      "hash": "0x1db6a2525da3a1da72636739b58c962613bba7bdc13b0de1880e62c3ab6ef017",
      "blockHash": "0x873ab948023521da81dfb0f2b70c66fe6e48c39bd5c3497c62de31d2ca0b997b",
      "blockNumber": 109462,
      "transactionIndex": 0,
      "confirmations": null,
      "from": "0x7e99dfbE989d3bA529D19751b7F4317f8953A3e2",
      "gasPrice": {
        "_hex": "0xd4be89f70"
      },
      "gasLimit": {
        "_hex": "0x249f0"
      },
      "to": "0xE28e72FCf78647ADCe1F1252F240bbfaebD63BcC",
      "value": {
        "_hex": "0x4563918244f40000"
      },
      "nonce": 0,
      "data": "0x45466f3a",
      "r": "0x9fd36de9ff11319fb5e711a2f55456dc347f49d908299281b99c2d681e94a531",
      "s": "0x289c258bd9ee5ea7654083c46c1dd9a943d571e5d046d70f424a6eb12d3a3eac",
      "v": 28,
      "creates": null,
      "raw": "0xf87180850d4be89f70830249f094e28e72fcf78647adce1f1252f240bbfaebd63bcc884563918244f400008445466f3a1ca09fd36de9ff11319fb5e711a2f55456dc347f49d908299281b99c2d681e94a531a0289c258bd9ee5ea7654083c46c1dd9a943d571e5d046d70f424a6eb12d3a3eac",
      "networkId": 0,
      "chainId": 0
    }
  ]
}