{
  "hash": "0xd7aca3ea2ca1a5a361159641ca3ddd67b7cf6e9b2224febed3573711f9e9756a",
  "parentHash": "0xf45eaf8328452223cdfeec1cf5888203e5f3740ec247884aadef13ad93cd3a98",
  "number": 75651,
  "timestamp": 1439406783,
  "nonce": "0xb9f85f6dd6cb8914",
  "difficulty": 2235369313937,
  "gasLimit": {
    "_hex": "0x2fefd8"
  },
  "gasUsed": {
    "_hex": "0x70d3"
  },
  "miner": "0x53824166ea5271d3425e3194c848A90CA4e97eB2",
  "extraData": "0x476574682f76312e302e312f6c696e75782f676f312e342e32",
  "transactions": [
    {
      "hash": "0x9206323b2794b242787880e3aa880fa6f452b0fa4affe3aa09d6be8228766ee8",
      "blockHash": "0xd7aca3ea2ca1a5a361159641ca3ddd67b7cf6e9b2224febed3573711f9e9756a",
      "blockNumber": 75651,
      "transactionIndex": 0,
      "confirmations": null,
      "from": "0xe1237d552429cc333FfD3038Fc3ba3441d0B7ddE",
      "gasPrice": {
        "_hex": "0xd4478b6d7"
      },
      "gasLimit": {
        "_hex": "0x493e0"
      },
      "to": "0xD79B4C6791784184e2755B2fC1659eaaB0f80456",
      "value": {
        "_hex": "0x0"
      },
      "nonce": 6,
      "data": "0xbd66528a73302e3430313635353833353138333837303200000000000000000000000000",
      "r": "0xac671180b95f27920315b3340680e8d8fcde85cee5dfc24a88fecc992c15dcc8",
      "s": "0x49e34d815a073d879166a0430df62355852d378c745c59ff586876282ac1b8d1",
      "v": 27,
      "creates": null,
      "raw": "0xf88906850d4478b6d7830493e094d79b4c6791784184e2755b2fc1659eaab0f8045680a4bd66528a73302e34303136353538333531383338373032000000000000000000000000001ba0ac671180b95f27920315b3340680e8d8fcde85cee5dfc24a88fecc992c15dcc8a049e34d815a073d879166a0430df62355852d378c745c59ff586876282ac1b8d1",
      "networkId": 0,
      "chainId": 0
    }
  ]
}