{
  "hash": "0xc6ec31f8fa8a2aec0e26ba0ffaa56104ee659261264f0a540c1b00058db87f68",
  "parentHash": "0xe57ec11402ea3e978544a2114fed3971cfb1ffd330d38383b14e33cfccfd681c",
  "number": 49146,
  "timestamp": 1438968851,
  "nonce": "0xf5519aedb5ece5ea",
  "difficulty": 1475665440027,
  "gasLimit": {
    "_hex": "0x271d1"
  },
  "gasUsed": {
    "_hex": "0x5208"
  },
  "miner": "0xe6A7a1d47ff21B6321162AEA7C6CB457D5476Bca",
  "extraData": "0x657468706f6f6c2e6f7267",
  "transactions": [
    {
      "hash": "0x5518dd437032969b0fa78004f4fd87df4296eae71d498e506369493120293554",
      "blockHash": "0xc6ec31f8fa8a2aec0e26ba0ffaa56104ee659261264f0a540c1b00058db87f68",
      "blockNumber": 49146,
      "transactionIndex": 0,
      "confirmations": null,
      "from": "0x0089508679abF8c71BF6781687120e3E6a84584D",
      "gasPrice": {
        "_hex": "0xdda0efbc5"
      },
      "gasLimit": {
        "_hex": "0x15f90"
      },
      "to": "0xBb12b5a9B85D4AB8CDE6056E9c1b2a4a337D2261",
      "value": {
        "_hex": "0x1"
      },
      "nonce": 0,
      "data": "0x",
      "r": "0xee5d396f373e998ad8633496c1750e23dbf554784b1867ebe735382611477ec6",
      "s": "0x0c00e1ed3e5aa4c6422ed1893781f0c4a9f8328dc5204e8993a5a1ab6955c1ab",
      "v": 28,
      "creates": null,
      "raw": "0xf86580850dda0efbc583015f9094bb12b5a9b85d4ab8cde6056e9c1b2a4a337d226101801ca0ee5d396f373e998ad8633496c1750e23dbf554784b1867ebe735382611477ec6a00c00e1ed3e5aa4c6422ed1893781f0c4a9f8328dc5204e8993a5a1ab6955c1ab",
      "networkId": 0,
      "chainId": 0
    }
  ]
}