{
  "hash": "0x226e9695a43e0509ba7dcb012c01d7aa6d854e51270e8338ff656e49b7704e07",
  "parentHash": "0x7668f9800b1f553f3fc1cfa593237031f84d98a65fdfc4029927919ee3bd6019",
  "number": 80330,
  "timestamp": 1439484041,
  "nonce": "0x1701cad41762b281",
  "difficulty": 2379372890136,
  "gasLimit": {
    "_hex": "0x2fefd8"
  },
  "gasUsed": {
    "_hex": "0x14820"
  },
  "miner": "0x47ff6576639c2e94762eA5443978D7681C0E78DC",
  "extraData": "0x476574682f76312e302e312f6c696e75782f676f312e342e32",
  "transactions": [
    {
      "hash": "0x017e25863e317fe9fc407e0b925a39f9db650e3c72403e9b7f51f18492ce53f6",
      "blockHash": "0x226e9695a43e0509ba7dcb012c01d7aa6d854e51270e8338ff656e49b7704e07",
      "blockNumber": 80330,
      "transactionIndex": 0,
      "confirmations": null,
      "from": "0x32Be343B94f860124dC4fEe278FDCBD38C102D88",
      "gasPrice": {
        "_hex": "0xe1d5e3e10"
      },
      "gasLimit": {
        "_hex": "0x5208"
      },
      "to": "0x9E5B4729c3266d77caE7F08C303b191Ac4d6B8CD",
      "value": {
        "_hex": "0xb1281b495936d8000"
      },
      "nonce": 530,
      "data": "0x",
      "r": "0x34ed1c1a55d9f8b0495deaf49decb7832857f039fe71acb3c02d5ccb91a01a6a",
      "s": "0x429d5c0671bf871322b8e2bf16d99f5528275f951ef533eec297ed87112fb037",
      "v": 27,
      "creates": null,
      "raw": "0xf86f820212850e1d5e3e10825208949e5b4729c3266d77cae7f08c303b191ac4d6b8cd890b1281b495936d8000801ba034ed1c1a55d9f8b0495deaf49decb7832857f039fe71acb3c02d5ccb91a01a6aa0429d5c0671bf871322b8e2bf16d99f5528275f951ef533eec297ed87112fb037",
      "networkId": 0,
      "chainId": 0
    },
    {
      "hash": "0xfee5b2d5da7e801aa3fdcd4b91a35abaa3da58d75885faed93e63d4bfbc05366",
      "blockHash": "0x226e9695a43e0509ba7dcb012c01d7aa6d854e51270e8338ff656e49b7704e07",
      "blockNumber": 80330,
      "transactionIndex": 1,
      "confirmations": null,
      "from": "0xAd941B747c499E3ad5728C285446813783A33564",
      "gasPrice": {
        "_hex": "0xe1d5e3e10"
      },
      "gasLimit": {
        "_hex": "0x5208"
      },
      "to": "0x32Be343B94f860124dC4fEe278FDCBD38C102D88",
      "value": {
        "_hex": "0x3928a852257c3400"
      },
      "nonce": 6,
      "data": "0x",
      "r": "0x0c67f8ce4644aaec340a4b7fe9f67c6cdc73760cbaea2b465fc5c25d34328c45",
      "s": "0x520b0ce14610c77eb076adf2f96fcdd0c03f1dd785693be8fb2d9d111f9160c0",
      "v": 27,
      "creates": null,
      "raw": "0xf86c06850e1d5e3e108252089432be343b94f860124dc4fee278fdcbd38c102d88883928a852257c3400801ba00c67f8ce4644aaec340a4b7fe9f67c6cdc73760cbaea2b465fc5c25d34328c45a0520b0ce14610c77eb076adf2f96fcdd0c03f1dd785693be8fb2d9d111f9160c0",
      "networkId": 0,
      "chainId": 0
    },
    {
      "hash": "0xd12e0fb0ed0931118368c9be2cb0e62de40776046034aec5f4be2aa3227215b0",
      "blockHash": "0x226e9695a43e0509ba7dcb012c01d7aa6d854e51270e8338ff656e49b7704e07",
      "blockNumber": 80330,
      "transactionIndex": 2,
      "confirmations": null,
      "from": "0x0D4EcC7d750180EBf4A9Df728B6669B5Bceb5E40",
      "gasPrice": {
        "_hex": "0xe1d5e3e10"
      },
      "gasLimit": {
        "_hex": "0x5208"
      },
      "to": "0x32Be343B94f860124dC4fEe278FDCBD38C102D88",
      "value": {
        "_hex": "0x455f0ba88fd43400"
      },
      "nonce": 2,
      "data": "0x",
      "r": "0x48354c140c3145704c9ff040a1cc7ac04cf5e64d328c30aed2d0fe26b974a000",
      "s": "0x1f4ec236b94c6b89369e40438c4f74d02d3ae27e92bd1f457ddd4f09cf36e81c",
      "v": 28,
      "creates": null,
      "raw": "0xf86c02850e1d5e3e108252089432be343b94f860124dc4fee278fdcbd38c102d8888455f0ba88fd43400801ca048354c140c3145704c9ff040a1cc7ac04cf5e64d328c30aed2d0fe26b974a000a01f4ec236b94c6b89369e40438c4f74d02d3ae27e92bd1f457ddd4f09cf36e81c",
      "networkId": 0,
      "chainId": 0
    },
    {
      "hash": "0xe8c6439b2facf1421508767da58fbf59764f4946943e1a066ba626809cd080cc",
      "blockHash": "0x226e9695a43e0509ba7dcb012c01d7aa6d854e51270e8338ff656e49b7704e07",
      "blockNumber": 80330,
      "transactionIndex": 3,
      "confirmations": null,
      "from": "0x32Be343B94f860124dC4fEe278FDCBD38C102D88",
      "gasPrice": {
        "_hex": "0xe1d5e3e10"
      },
      "gasLimit": {
        "_hex": "0x5208"
      },
      "to": "0xC557b4a4380B69196d6CF08Bf42B8fC2d0AEf083",
      "value": {
        "_hex": "0x8d9773118a1de0000"
      },
      "nonce": 531,
      "data": "0x",
      "r": "0x4b23610eb8559da5493ca21af84fd71d8887505c42a827474d0902e5d2db5056",
      "s": "0x4e59def79926a8e8193ab9b3bbb1cbb0c1a0c60944b875d0312c3084bc8c092d",
      "v": 27,
      "creates": null,
      "raw": "0xf86f820213850e1d5e3e1082520894c557b4a4380b69196d6cf08bf42b8fc2d0aef0838908d9773118a1de0000801ba04b23610eb8559da5493ca21af84fd71d8887505c42a827474d0902e5d2db5056a04e59def79926a8e8193ab9b3bbb1cbb0c1a0c60944b875d0312c3084bc8c092d",
      "networkId": 0,
      "chainId": 0
    }
  ]
}