{
  "hash": "0x14486d609cb1b0beca39aa9868b0ba22272d51d053661c1d8830af4b73e29051",
  "parentHash": "0x1c51d60025f3d405a7bd4182b39314c9ff9bc2938567faf5c3b41a34d2554aef",
  "number": 55890,
  "timestamp": 1439078775,
  "nonce": "0x79202acdbff1ab4f",
  "difficulty": 1608366641523,
  "gasLimit": {
    "_hex": "0x2fefd8"
  },
  "gasUsed": {
    "_hex": "0x5208"
  },
  "miner": "0xf927a40C8B7F6E07c5af7FA2155B4864a4112B13",
  "extraData": "0x476574682f76312e302e312f6c696e75782f676f312e342e32",
  "transactions": [
    {
      "hash": "0x11342ac0df5060013378f3b463151e8aba1409536514b1a65274075df1c3218b",
      "blockHash": "0x14486d609cb1b0beca39aa9868b0ba22272d51d053661c1d8830af4b73e29051",
      "blockNumber": 55890,
      "transactionIndex": 0,
      "confirmations": null,
      "from": "0xF2d2AfF1320476cb8C6b607199D23175cc595693",
      "gasPrice": {
        "_hex": "0xd331c01dd"
      },
      "gasLimit": {
        "_hex": "0x15f90"
      },
      "to": "0xF5EeDc192aB70b08D8354384aD94efD095849E00",
      "value": {
        "_hex": "0x1158e460913d00000"
      },
      "nonce": 8,
      "data": "0x",
      "r": "0xff45787956591df08186dde507cdf58828ecb62346ac8a7edd7d2af897ec848e",
      "s": "0x4f7b6bd8c4f34897ce7c398cf416656d6f1304f1ad1d8bc3597714d243e55917",
      "v": 27,
      "creates": null,
      "raw": "0xf86e08850d331c01dd83015f9094f5eedc192ab70b08d8354384ad94efd095849e008901158e460913d00000801ba0ff45787956591df08186dde507cdf58828ecb62346ac8a7edd7d2af897ec848ea04f7b6bd8c4f34897ce7c398cf416656d6f1304f1ad1d8bc3597714d243e55917",
      "networkId": 0,
      "chainId": 0
    }
  ]
}