{
  "hash": "0x50fcedffeed1ef336574881f819565a1f3f4974e025255ea6f186f657a52a1ef",
  "parentHash": "0x79b07df01f06c09a0de16546e2086772ca91e8a4e1e58fd3e4c374d51ee59e10",
  "number": 100780,
  "timestamp": 1439812203,
  "nonce": "0x1a0fe4396b700a0f",
  "difficulty": 3845182416447,
  "gasLimit": {
    "_hex": "0x2fefd8"
  },
  "gasUsed": {
    "_hex": "0x5208"
  },
  "miner": "0xe6A7a1d47ff21B6321162AEA7C6CB457D5476Bca",
  "extraData": "0x476574682f76312e302e312d38326566323666362f6c696e75782f676f312e34",
  "transactions": [
    {
      "hash": "0xabd847bc459765b6e185a5151c2465c10b8dad682a86af3ea3cd244fe3dbdca3",
      "blockHash": "0x50fcedffeed1ef336574881f819565a1f3f4974e025255ea6f186f657a52a1ef",
      "blockNumber": 100780,
      "transactionIndex": 0,
      "confirmations": null,
      "from": "0x63738Ec4C9adec404749B5747F3bbE2147de632F",
      "gasPrice": {
        "_hex": "0xd7a88068c"
      },
      "gasLimit": {
        "_hex": "0x15f90"
      },
      "to": "0x557C2806B6ceA65a66F415bb2Ed1ce897B340745",
      "value": {
        "_hex": "0x8ac7230489e80000"
      },
      "nonce": 23,
      "data": "0x",
      "r": "0x6465e255786c3b9518b2ab077e5273583ef2eedf7f1fb44a0e82396a0a45425c",
      "s": "0x559fdfa9fd05678d42b3de8d15004d2a01af6d04ffe4b4f5a1c3b9c3e172dd3d",
      "v": 27,
      "creates": null,
      "raw": "0xf86d17850d7a88068c83015f9094557c2806b6cea65a66f415bb2ed1ce897b340745888ac7230489e80000801ba06465e255786c3b9518b2ab077e5273583ef2eedf7f1fb44a0e82396a0a45425ca0559fdfa9fd05678d42b3de8d15004d2a01af6d04ffe4b4f5a1c3b9c3e172dd3d",
      "networkId": 0,
      "chainId": 0
    }
  ]
}