{
  "hash": "0x2dfad199ba6fb69560188eb756dd61e2a0a0d6b46f6f524287964cc01d3ab5d8",
  "parentHash": "0xd633cebda4cd2baf8784cf28c354d4e7f080398777f01fe025812ffe1b45708e",
  "number": 84262,
  "timestamp": 1439547224,
  "nonce": "0x3adaee5b6c50a579",
  "difficulty": 2529171232032,
  "gasLimit": {
    "_hex": "0x2fefd8"
  },
  "gasUsed": {
    "_hex": "0x52080"
  },
  "miner": "0x580992B51e3925e23280EfB93d3047C82f17E038",
  "extraData": "0x476574682f76312e302e312f6c696e75782f676f312e342e32",
  "transactions": [
    {
      "hash": "0x5fbb180c83028fdcf2b64b6bfc73b8d00e038a1dd65b043f6761b5e76dc79ace",
      "blockHash": "0x2dfad199ba6fb69560188eb756dd61e2a0a0d6b46f6f524287964cc01d3ab5d8",
      "blockNumber": 84262,
      "transactionIndex": 0,
      "confirmations": null,
      "from": "0x120A270bbC009644e35F0bB6ab13f95b8199c4ad",
      "gasPrice": {
        "_hex": "0xd05f4d123"
      },
      "gasLimit": {
        "_hex": "0x3d090"
      },
      "to": "0xd31b38AB32E19d36B3bEbF29CDc95671d235b33F",
      "value": {
        "_hex": "0xb469471f80140000"
      },
      "nonce": 425,
      "data": "0x",
      "r": "0xb67ca7e421ef6865f812536bf422111d9673d05d2233dd5fef1e70a6e08e6c24",
      "s": "0x18af6aa11972693030cb3755a5d9ab7c62233aee48dbdce130905943f640e1a0",
      "v": 28,
      "creates": null,
      "raw": "0xf86f8201a9850d05f4d1238303d09094d31b38ab32e19d36b3bebf29cdc95671d235b33f88b469471f80140000801ca0b67ca7e421ef6865f812536bf422111d9673d05d2233dd5fef1e70a6e08e6c24a018af6aa11972693030cb3755a5d9ab7c62233aee48dbdce130905943f640e1a0",
      "networkId": 0,
      "chainId": 0
    },
    {
      "hash": "0xbfc89db8bd8e9b3810ebeaeb6b94e695739fb68d026aae5108669ebe4473c5e6",
      "blockHash": "0x2dfad199ba6fb69560188eb756dd61e2a0a0d6b46f6f524287964cc01d3ab5d8",
      "blockNumber": 84262,
      "transactionIndex": 1,
      "confirmations": null,
      "from": "0xe6A7a1d47ff21B6321162AEA7C6CB457D5476Bca",
      "gasPrice": {
        "_hex": "0xcd80f24d0"
      },
      "gasLimit": {
        "_hex": "0x55f0"
      },
      "to": "0x5E418A1728294b2ec7eF61C837d0902ce115aB5F",
      "value": {
        "_hex": "0x1fbadb87c4f592e8"
      },
      "nonce": 1533,
      "data": "0x",
      "r": "0x31e478b17f8100674c6008ddea69295016973c235a30f4a2fc8bd810f7f4b481",
      "s": "0x0f480737388f4835773394c9a349ec7d750e47288e88ce729f5e74e39eb0c863",
      "v": 27,
      "creates": null,
      "raw": "0xf86e8205fd850cd80f24d08255f0945e418a1728294b2ec7ef61c837d0902ce115ab5f881fbadb87c4f592e8801ba031e478b17f8100674c6008ddea69295016973c235a30f4a2fc8bd810f7f4b481a00f480737388f4835773394c9a349ec7d750e47288e88ce729f5e74e39eb0c863",
      "networkId": 0,
      "chainId": 0
    },
    {
      "hash": "0x922bdef0412ae31d2b56054767937d4caf57c08f4cc225eb4aa3af4c80edb821",
      "blockHash": "0x2dfad199ba6fb69560188eb756dd61e2a0a0d6b46f6f524287964cc01d3ab5d8",
      "blockNumber": 84262,
      "transactionIndex": 2,
      "confirmations": null,
      "from": "0xe6A7a1d47ff21B6321162AEA7C6CB457D5476Bca",
      "gasPrice": {
        "_hex": "0xcd80f24d0"
      },
      "gasLimit": {
        "_hex": "0x55f0"
      },
      "to": "0x8d629C20608135491B5013f1002586A0383130e5",
      "value": {
        "_hex": "0x1fc15dfd2225a888"
      },
      "nonce": 1534,
      "data": "0x",
      "r": "0x72822acff51565e888c51e9d7108faf595a2426b6e70fe734977eb83621dbf41",
      "s": "0x5fbab10c20cd5f44c34790afd3024182a906de3f154c4f86b54e8a694a5c3ad9",
      "v": 27,
      "creates": null,
      "raw": "0xf86e8205fe850cd80f24d08255f0948d629c20608135491b5013f1002586a0383130e5881fc15dfd2225a888801ba072822acff51565e888c51e9d7108faf595a2426b6e70fe734977eb83621dbf41a05fbab10c20cd5f44c34790afd3024182a906de3f154c4f86b54e8a694a5c3ad9",
      "networkId": 0,
      "chainId": 0
    },
    {
      "hash": "0xb1a5251b33051db46cc972d365411d20e145b6bdcf26c2b8b9dab144e2af5464",
      "blockHash": "0x2dfad199ba6fb69560188eb756dd61e2a0a0d6b46f6f524287964cc01d3ab5d8",
      "blockNumber": 84262,
      "transactionIndex": 3,
      "confirmations": null,
      "from": "0xe6A7a1d47ff21B6321162AEA7C6CB457D5476Bca",
      "gasPrice": {
        "_hex": "0xcd80f24d0"
      },
      "gasLimit": {
        "_hex": "0x55f0"
      },
      "to": "0xE35c3cdA59d0E88E0d76F72Ea199f224C7D499ad",
      "value": {
        "_hex": "0x1fd0ae2935e0ace8"
      },
      "nonce": 1535,
      "data": "0x",
      "r": "0x30fb6feabd10ef8035d5fd764256a5d24a9d0c9d3aa261632f497cd723909ac6",
      "s": "0x686175f3422dc08ecc4bd9114cbe18d6afa29da47b32671490e94c6d27ad4ee7",
      "v": 28,
      "creates": null,
      "raw": "0xf86e8205ff850cd80f24d08255f094e35c3cda59d0e88e0d76f72ea199f224c7d499ad881fd0ae2935e0ace8801ca030fb6feabd10ef8035d5fd764256a5d24a9d0c9d3aa261632f497cd723909ac6a0686175f3422dc08ecc4bd9114cbe18d6afa29da47b32671490e94c6d27ad4ee7",
      "networkId": 0,
      "chainId": 0
    },
    {
      "hash": "0xa08ceea72155d48a01db105c168a00a21c1f020758d93e7166f2b10a6aebda31",
      "blockHash": "0x2dfad199ba6fb69560188eb756dd61e2a0a0d6b46f6f524287964cc01d3ab5d8",
      "blockNumber": 84262,
      "transactionIndex": 4,
      "confirmations": null,
      "from": "0xe6A7a1d47ff21B6321162AEA7C6CB457D5476Bca",
      "gasPrice": {
        "_hex": "0xcd80f24d0"
      },
      "gasLimit": {
        "_hex": "0x55f0"
      },
      "to": "0xA126B99068EDc494d7C148686cE84E09AECaD67e",
      "value": {
        "_hex": "0x204f9719b6a8c9e8"
      },
      "nonce": 1536,
      "data": "0x",
      "r": "0x3013fc60ec9202d982e280ebb0552cc06fa84450d23a13ed6a67299d672b3458",
      "s": "0x744adc0b639ce7125ac90acd00e2871a63bb9d078f1e4ddd6de2be7c1a64e281",
      "v": 27,
      "creates": null,
      "raw": "0xf86e820600850cd80f24d08255f094a126b99068edc494d7c148686ce84e09aecad67e88204f9719b6a8c9e8801ba03013fc60ec9202d982e280ebb0552cc06fa84450d23a13ed6a67299d672b3458a0744adc0b639ce7125ac90acd00e2871a63bb9d078f1e4ddd6de2be7c1a64e281",
      "networkId": 0,
      "chainId": 0
    },
    {
      "hash": "0xb38a051c5b12cd0abc18bd7f2785cdf615f7b8b5f2bdbeac4f69317a0b670054",
      "blockHash": "0x2dfad199ba6fb69560188eb756dd61e2a0a0d6b46f6f524287964cc01d3ab5d8",
      "blockNumber": 84262,
      "transactionIndex": 5,
      "confirmations": null,
      "from": "0xe6A7a1d47ff21B6321162AEA7C6CB457D5476Bca",
      "gasPrice": {
        "_hex": "0xcd80f24d0"
      },
      "gasLimit": {
        "_hex": "0x55f0"
      },
      "to": "0x0A38ff322A11A9bA4f9a7C668F79025e8CEadc45",
      "value": {
        "_hex": "0x208334af61733c08"
      },
      "nonce": 1537,
      "data": "0x",
      "r": "0x669a0f6aa9d6c3912912040bdb6486f0aa9de3884b349435b020de2744a20952",
      "s": "0x4078f00560e821e1b8c6ee79532b814cab7dfcd44b70eafb3ad94a580600d3bb",
      "v": 28,
      "creates": null,
      "raw": "0xf86e820601850cd80f24d08255f0940a38ff322a11a9ba4f9a7c668f79025e8ceadc4588208334af61733c08801ca0669a0f6aa9d6c3912912040bdb6486f0aa9de3884b349435b020de2744a20952a04078f00560e821e1b8c6ee79532b814cab7dfcd44b70eafb3ad94a580600d3bb",
      "networkId": 0,
      "chainId": 0
    },
    {
      "hash": "0xe793be76d6e5423eb8dd1bbaca748f5781a52fe246aca221d73994638fe2ecbe",
      "blockHash": "0x2dfad199ba6fb69560188eb756dd61e2a0a0d6b46f6f524287964cc01d3ab5d8",
      "blockNumber": 84262,
      "transactionIndex": 6,
      "confirmations": null,
      "from": "0xe6A7a1d47ff21B6321162AEA7C6CB457D5476Bca",
      "gasPrice": {
        "_hex": "0xcd80f24d0"
      },
      "gasLimit": {
        "_hex": "0x55f0"
      },
      "to": "0xcCc71F867Bea3f961AbfD4EFD98A77fABd50CC20",
      "value": {
        "_hex": "0x20856cb5327c3dec"
      },
      "nonce": 1538,
      "data": "0x",
      "r": "0xc1db30acbbfd58df30ad52cfeae5acc1f65a3793e15f3a754b5eccd9544f726f",
      "s": "0x1c07a9df579393fdc59d794e243f219b6a47bf57b724995f7a592043908b4f46",
      "v": 27,
      "creates": null,
      "raw": "0xf86e820602850cd80f24d08255f094ccc71f867bea3f961abfd4efd98a77fabd50cc208820856cb5327c3dec801ba0c1db30acbbfd58df30ad52cfeae5acc1f65a3793e15f3a754b5eccd9544f726fa01c07a9df579393fdc59d794e243f219b6a47bf57b724995f7a592043908b4f46",
      "networkId": 0,
      "chainId": 0
    },
    {
      "hash": "0x2a849fa7a1e515f09459e39029a28347ccc2c50cb2aa84ff35331e288f38c2ad",
      "blockHash": "0x2dfad199ba6fb69560188eb756dd61e2a0a0d6b46f6f524287964cc01d3ab5d8",
      "blockNumber": 84262,
      "transactionIndex": 7,
      "confirmations": null,
      "from": "0xe6A7a1d47ff21B6321162AEA7C6CB457D5476Bca",
      "gasPrice": {
        "_hex": "0xcd80f24d0"
      },
      "gasLimit": {
        "_hex": "0x55f0"
      },
      "to": "0x36Abc9dbfaa73C3c22c079F54D2A5434AA210cd6",
      "value": {
        "_hex": "0x20eb864dc4d8ebf0"
      },
      "nonce": 1539,
      "data": "0x",
      "r": "0x56a6e9cd1607c7e0572ff51b7b44e0b13a24d82811abb1bf3782712723290825",
      "s": "0x315c742c9d8154eeb1f29a0634fe43ea4a5421ff6facb053d5ba5adfab222a2b",
      "v": 27,
      "creates": null,
      "raw": "0xf86e820603850cd80f24d08255f09436abc9dbfaa73c3c22c079f54d2a5434aa210cd68820eb864dc4d8ebf0801ba056a6e9cd1607c7e0572ff51b7b44e0b13a24d82811abb1bf3782712723290825a0315c742c9d8154eeb1f29a0634fe43ea4a5421ff6facb053d5ba5adfab222a2b",
      "networkId": 0,
      "chainId": 0
    },
    {
      "hash": "0x56f73fb495dac241ec51c222fffc45068a31797fec9e35ba2612985d6d452788",
      "blockHash": "0x2dfad199ba6fb69560188eb756dd61e2a0a0d6b46f6f524287964cc01d3ab5d8",
      "blockNumber": 84262,
      "transactionIndex": 8,
      "confirmations": null,
      "from": "0xe6A7a1d47ff21B6321162AEA7C6CB457D5476Bca",
      "gasPrice": {
        "_hex": "0xcd80f24d0"
      },
      "gasLimit": {
        "_hex": "0x55f0"
      },
      "to": "0xc1A0C41BD9ab5DC2508d9a9bcd51A3Bb6513F48B",
      "value": {
        "_hex": "0x20ff6a14ac0c9c48"
      },
      "nonce": 1540,
      "data": "0x",
      "r": "0x550dd0a8a34ff19c57638e5172530575687f01de0a36d51adeaf327b0bdde718",
      "s": "0x3349bada176c0154521b400568ac11d28e2a9cb7d11cc3744e81f8233afe98c8",
      "v": 28,
      "creates": null,
      "raw": "0xf86e820604850cd80f24d08255f094c1a0c41bd9ab5dc2508d9a9bcd51a3bb6513f48b8820ff6a14ac0c9c48801ca0550dd0a8a34ff19c57638e5172530575687f01de0a36d51adeaf327b0bdde718a03349bada176c0154521b400568ac11d28e2a9cb7d11cc3744e81f8233afe98c8",
      "networkId": 0,
      "chainId": 0
    },
    {
      "hash": "0x525ced2a9f09ec404d502d457bed78b8114f03edfe704af5bd26c74a51f48c27",
      "blockHash": "0x2dfad199ba6fb69560188eb756dd61e2a0a0d6b46f6f524287964cc01d3ab5d8",
      "blockNumber": 84262,
      "transactionIndex": 9,
      "confirmations": null,
      "from": "0xe6A7a1d47ff21B6321162AEA7C6CB457D5476Bca",
      "gasPrice": {
        "_hex": "0xcd80f24d0"
      },
      "gasLimit": {
        "_hex": "0x55f0"
      },
      "to": "0x799Ac9F93b43E63D97F25A436C440470FEF05037",
      "value": {
        "_hex": "0x210ce42dda5d1a00"
      },
      "nonce": 1541,
      "data": "0x",
      "r": "0x8ea23f63f45130636c5cc280414fe58faabbb9d4f0e2746e70043c8f5fd08792",
      "s": "0x226d019d92b4f5d4aa360849d2ce8b37d7b198373213c63849c4ca987dfecf8a",
      "v": 27,
      "creates": null,
      "raw": "0xf86e820605850cd80f24d08255f094799ac9f93b43e63d97f25a436c440470fef0503788210ce42dda5d1a00801ba08ea23f63f45130636c5cc280414fe58faabbb9d4f0e2746e70043c8f5fd08792a0226d019d92b4f5d4aa360849d2ce8b37d7b198373213c63849c4ca987dfecf8a",
      "networkId": 0,
      "chainId": 0
    },
    {
      "hash": "0xfd5b0ad255d4b83ddd5239e721ddd02ac393ba4b7d45deb6aeac39e8e7fc1dad",
      "blockHash": "0x2dfad199ba6fb69560188eb756dd61e2a0a0d6b46f6f524287964cc01d3ab5d8",
      "blockNumber": 84262,
      "transactionIndex": 10,
      "confirmations": null,
      "from": "0xe6A7a1d47ff21B6321162AEA7C6CB457D5476Bca",
      "gasPrice": {
        "_hex": "0xcd80f24d0"
      },
      "gasLimit": {
        "_hex": "0x55f0"
      },
      "to": "0xd7cF02FADF1681E45227D6eDB3649645B4936EBB",
      "value": {
        "_hex": "0x2125b506b1a251d0"
      },
      "nonce": 1542,
      "data": "0x",
      "r": "0xf9416a52a235dff7f86161700ebeb7642af5930f28ba6f55b86e49052a094c1a",
      "s": "0x487512e8f9a597475694af070bb45a2fb5c66baa4fbfeb8513f20445b85cfdf4",
      "v": 28,
      "creates": null,
      "raw": "0xf86e820606850cd80f24d08255f094d7cf02fadf1681e45227d6edb3649645b4936ebb882125b506b1a251d0801ca0f9416a52a235dff7f86161700ebeb7642af5930f28ba6f55b86e49052a094c1aa0487512e8f9a597475694af070bb45a2fb5c66baa4fbfeb8513f20445b85cfdf4",
      "networkId": 0,
      "chainId": 0
    },
    {
      "hash": "0xffd3fadb531468bc6407163c2e8638ced8df97fccc7f2f456d192fb05ef02e76",
      "blockHash": "0x2dfad199ba6fb69560188eb756dd61e2a0a0d6b46f6f524287964cc01d3ab5d8",
      "blockNumber": 84262,
      "transactionIndex": 11,
      "confirmations": null,
      "from": "0xe6A7a1d47ff21B6321162AEA7C6CB457D5476Bca",
      "gasPrice": {
        "_hex": "0xcd80f24d0"
      },
      "gasLimit": {
        "_hex": "0x55f0"
      },
      "to": "0x1543667B9bad3e41865C3233E1764d8dda8E1F3D",
      "value": {
        "_hex": "0x21862f6cdff1421c"
      },
      "nonce": 1543,
      "data": "0x",
      "r": "0x0337510013c392544a213d3536dfc07c311696fedd3dc25127e02a424c83286c",
      "s": "0x0c01c997773d9b670e7f2a1f67575e4d6af3839a38e2120982880829b589ada3",
      "v": 28,
      "creates": null,
      "raw": "0xf86e820607850cd80f24d08255f0941543667b9bad3e41865c3233e1764d8dda8e1f3d8821862f6cdff1421c801ca00337510013c392544a213d3536dfc07c311696fedd3dc25127e02a424c83286ca00c01c997773d9b670e7f2a1f67575e4d6af3839a38e2120982880829b589ada3",
      "networkId": 0,
      "chainId": 0
    },
    {
      "hash": "0x743b538fc6ad3255cd44eba3a256dae4d2a86e3602519a758191055d946e6a6c",
      "blockHash": "0x2dfad199ba6fb69560188eb756dd61e2a0a0d6b46f6f524287964cc01d3ab5d8",
      "blockNumber": 84262,
      "transactionIndex": 12,
      "confirmations": null,
      "from": "0xe6A7a1d47ff21B6321162AEA7C6CB457D5476Bca",
      "gasPrice": {
        "_hex": "0xcd80f24d0"
      },
      "gasLimit": {
        "_hex": "0x55f0"
      },
      "to": "0xE7bD36a7CF4F1F8896378D41177BEf637075a1eD",
      "value": {
        "_hex": "0x218d83e70aa2f9f8"
      },
      "nonce": 1544,
      "data": "0x",
      "r": "0x76795072bdf8895e195c4309b988681de6357597f71ac0f0acba304c0ec667ca",
      "s": "0x37abb67568f3ce16d9d1ffb5a044dfdcead7a59a8a9e428de0a589919e42bcc8",
      "v": 27,
      "creates": null,
      "raw": "0xf86e820608850cd80f24d08255f094e7bd36a7cf4f1f8896378d41177bef637075a1ed88218d83e70aa2f9f8801ba076795072bdf8895e195c4309b988681de6357597f71ac0f0acba304c0ec667caa037abb67568f3ce16d9d1ffb5a044dfdcead7a59a8a9e428de0a589919e42bcc8",
      "networkId": 0,
      "chainId": 0
    },
    {
      "hash": "0xef141bd153ce71fbb0092bbd5c967202c89cab36ff11de20bc1e300715efc928",
      "blockHash": "0x2dfad199ba6fb69560188eb756dd61e2a0a0d6b46f6f524287964cc01d3ab5d8",
      "blockNumber": 84262,
      "transactionIndex": 13,
      "confirmations": null,
      "from": "0xe6A7a1d47ff21B6321162AEA7C6CB457D5476Bca",
      "gasPrice": {
        "_hex": "0xcd80f24d0"
      },
      "gasLimit": {
        "_hex": "0x55f0"
      },
      "to": "0x4adA827a479Cf31e27be19Fcf33Fb06D881057b7",
      "value": {
        "_hex": "0x21c08a3c7361a208"
      },
      "nonce": 1545,
      "data": "0x",
      "r": "0x01e707338e23322d794f01bc14e521037cec525b88be96871475df9b11df820b",
      "s": "0x520186d465562a4af5aecf4dc81829a64e6c204d2de4c583da5857ba3f298a5e",
      "v": 28,
      "creates": null,
      "raw": "0xf86e820609850cd80f24d08255f0944ada827a479cf31e27be19fcf33fb06d881057b78821c08a3c7361a208801ca001e707338e23322d794f01bc14e521037cec525b88be96871475df9b11df820ba0520186d465562a4af5aecf4dc81829a64e6c204d2de4c583da5857ba3f298a5e",
      "networkId": 0,
      "chainId": 0
    },
    {
      "hash": "0xead1116b82b250c53e8d8a5d724935e840bbd33fdc95a7c3cd2b63f66ce6856d",
      "blockHash": "0x2dfad199ba6fb69560188eb756dd61e2a0a0d6b46f6f524287964cc01d3ab5d8",
      "blockNumber": 84262,
      "transactionIndex": 14,
      "confirmations": null,
      "from": "0xe6A7a1d47ff21B6321162AEA7C6CB457D5476Bca",
      "gasPrice": {
        "_hex": "0xcd80f24d0"
      },
      "gasLimit": {
        "_hex": "0x55f0"
      },
      "to": "0x59389A554d044d4b3BED659834A248C59957f168",
      "value": {
        "_hex": "0x21c53230c0985be8"
      },
      "nonce": 1546,
      "data": "0x",
      "r": "0x72807b8c7e5f62d45b0d9cb7d9f0d928e9560fa6a037e59ecb4ed94a88d5c028",
      "s": "0x3407b7aa6003d18fb1b726f19c1f46035db661aeccc8c3094404db1eba8eabbd",
      "v": 27,
      "creates": null,
      "raw": "0xf86e82060a850cd80f24d08255f09459389a554d044d4b3bed659834a248c59957f1688821c53230c0985be8801ba072807b8c7e5f62d45b0d9cb7d9f0d928e9560fa6a037e59ecb4ed94a88d5c028a03407b7aa6003d18fb1b726f19c1f46035db661aeccc8c3094404db1eba8eabbd",
      "networkId": 0,
      "chainId": 0
    },
    {
      "hash": "0xf73fcbfc89a1c5db95f091ef7e88ee26d81d32c87937a2dd1507ff2228548f11",
      "blockHash": "0x2dfad199ba6fb69560188eb756dd61e2a0a0d6b46f6f524287964cc01d3ab5d8",
      "blockNumber": 84262,
      "transactionIndex": 15,
      "confirmations": null,
      "from": "0xe6A7a1d47ff21B6321162AEA7C6CB457D5476Bca",
      "gasPrice": {
        "_hex": "0xcd80f24d0"
      },
      "gasLimit": {
        "_hex": "0x55f0"
      },
      "to": "0xFAc1B5968b6CC27786d1A28c3E360B8c421569B9",
      "value": {
        "_hex": "0x21c744a1df1069dc"
      },
      "nonce": 1547,
      "data": "0x",
      "r": "0xa8348027641bb66a7649c7f29249d6df09bcb7f6dc5496735464a1b3959a8a18",
      "s": "0x01477db5acf7ee9ae64810f7b5c8adfc7668cc3dd4a3d7af7652b0c1bdf3cfe5",
      "v": 28,
      "creates": null,
      "raw": "0xf86e82060b850cd80f24d08255f094fac1b5968b6cc27786d1a28c3e360b8c421569b98821c744a1df1069dc801ca0a8348027641bb66a7649c7f29249d6df09bcb7f6dc5496735464a1b3959a8a18a001477db5acf7ee9ae64810f7b5c8adfc7668cc3dd4a3d7af7652b0c1bdf3cfe5",
      "networkId": 0,
      "chainId": 0
    }
  ]
}