{
  "hash": "0xea7769a6f0945a7f2a676a6bb4c17f466b901dc5980d22dd60c5c281dade83e5",
  "parentHash": "0x17fe54d79a240ce331c63b0f2ba8f86a57f969575f5d4bfd5ef1c69dc82529df",
  "number": 50242,
  "timestamp": 1438985945,
  "nonce": "0xf9d069fa97967981",
  "difficulty": 1514894152264,
  "gasLimit": {
    "_hex": "0x58620"
  },
  "gasUsed": {
    "_hex": "0x1ac7a"
  },
  "miner": "0x5B3e850E39e6f2C7dD38707b649e2B3536F14C0b",
  "extraData": "0x476574682f76312e302e312f64617277696e2f676f312e342e32",
  "transactions": [
    {
      "hash": "0xb581364e6d3ea9acd149508f80531afc0889ffe8b34762787864005baf393e7e",
      "blockHash": "0xea7769a6f0945a7f2a676a6bb4c17f466b901dc5980d22dd60c5c281dade83e5",
      "blockNumber": 50242,
      "transactionIndex": 0,
      "confirmations": null,
      "from": "0x0927220492194B2edA9fc4BBe38f25d681dfD36C",
      "gasPrice": {
        "_hex": "0xd1f217cbf"
      },
      "gasLimit": {
        "_hex": "0x493e0"
      },
      "to": "0x6e38A457C722C6011B2dfa06d49240e797844d66",
      "value": {
        "_hex": "0x0"
      },
      "nonce": 2,
      "data": "0xf3fe12c90000000000000000000000000000000000000000000000000000000000000020000000000000000000000000000000000000000000000000000000000000001657454c434f4d4520544f20544845204d414348494e4500000000000000000000",
      "r": "0xd27685f9f984b1b0c4455594258f76f7bebce32d229702faf5d7cf88a5974abd",
      "s": "0x57f2ce1d32dc7ea4198a904bbabd7dac6d190d7356d31b1cab92b7e708d61058",
      "v": 28,
      "creates": null,
      "raw": "0xf8ca02850d1f217cbf830493e0946e38a457c722c6011b2dfa06d49240e797844d6680b864f3fe12c90000000000000000000000000000000000000000000000000000000000000020000000000000000000000000000000000000000000000000000000000000001657454c434f4d4520544f20544845204d414348494e45000000000000000000001ca0d27685f9f984b1b0c4455594258f76f7bebce32d229702faf5d7cf88a5974abda057f2ce1d32dc7ea4198a904bbabd7dac6d190d7356d31b1cab92b7e708d61058",
      "networkId": 0,
      "chainId": 0
    }
  ]
}