{
  "hash": "0xdc8fbe6370beb36699ce01e51c84f51e737931a2d3b4aa996c5789c9894e4466",
  "parentHash": "0x587d9abcde3d08e217728e73798e9fdf929cc5dfa05a08d381e0d298a2c5a800",
  "number": 106874,
  "timestamp": 1439912108,
  "nonce": "0x4b581deab8a23b80",
  "difficulty": 4448553421232,
  "gasLimit": {
    "_hex": "0x2fefd8"
  },
  "gasUsed": {
    "_hex": "0x5208"
  },
  "miner": "0xe6A7a1d47ff21B6321162AEA7C6CB457D5476Bca",
  "extraData": "0x476574682f76312e302e312d38326566323666362f6c696e75782f676f312e34",
  "transactions": [
    {
      "hash": "0x05f2b778ce35580378c9d4c164229924016c0ee86323b86bf72ab539a0ce245f",
      "blockHash": "0xdc8fbe6370beb36699ce01e51c84f51e737931a2d3b4aa996c5789c9894e4466",
      "blockNumber": 106874,
      "transactionIndex": 0,
      "confirmations": null,
      "from": "0x32Be343B94f860124dC4fEe278FDCBD38C102D88",
      "gasPrice": {
        "_hex": "0xd23a51849"
      },
      "gasLimit": {
        "_hex": "0x5208"
      },
      "to": "0xA61A4A69dcB2D8C74BdeCd17AD5821Adc21E95ec",
      "value": {
        "_hex": "0xc22676e0b7b70000"
      },
      "nonce": 1192,
      "data": "0x",
      "r": "0x4b37ca855c4edd76eab8310cf2e0c2be77cf1f7c221b59383a84e27842ff479e",
      "s": "0x7c992ac2b81308dc9b9fa751e08afe3736ee02d6e8bf2625139a07dcc9b90880",
      "v": 28,
      "creates": null,
      "raw": "0xf86e8204a8850d23a5184982520894a61a4a69dcb2d8c74bdecd17ad5821adc21e95ec88c22676e0b7b70000801ca04b37ca855c4edd76eab8310cf2e0c2be77cf1f7c221b59383a84e27842ff479ea07c992ac2b81308dc9b9fa751e08afe3736ee02d6e8bf2625139a07dcc9b90880",
      "networkId": 0,
      "chainId": 0
    }
  ]
}