{
  "hash": "0x4b0460c46fbca53af9d7601e937e6b28f8ccd12fb4879836e720c179178ec509",
  "parentHash": "0x31430b383da5e008b18aeda2a6c907049bd198ea659060e2543a7782a50aaa31",
  "number": 85269,
  "timestamp": 1439561010,
  "nonce": "0x6ab7c98370c5e8c0",
  "difficulty": 2743719836459,
  "gasLimit": {
    "_hex": "0x2fefd8"
  },
  "gasUsed": {
    "_hex": "0x5208"
  },
  "miner": "0x0eDEd3DA479d0beF8eeC92A76644D3f4E3C177f7",
  "extraData": "0x476574682f76312e302e312f6c696e75782f676f312e342e32",
  "transactions": [
    {
      "hash": "0xb14815a6c3a783f799055ff54c59d2205ffec0bed3c431cc1d47fcf764248643",
      "blockHash": "0x4b0460c46fbca53af9d7601e937e6b28f8ccd12fb4879836e720c179178ec509",
      "blockNumber": 85269,
      "transactionIndex": 0,
      "confirmations": null,
      "from": "0x120A270bbC009644e35F0bB6ab13f95b8199c4ad",
      "gasPrice": {
        "_hex": "0xddc7d3e12"
      },
      "gasLimit": {
        "_hex": "0x3d090"
      },
      "to": "0xc5623FA5c297c05c2d965A336b2068CfA0e567FA",
      "value": {
        "_hex": "0x169ce81cd5a247ec00"
      },
      "nonce": 448,
      "data": "0x",
      "r": "0x8d38f3bdb2dc6a46c661641b9bcd45ae4964f7e8c1168bf0087fdc5995a661df",
      "s": "0x2757bbc946d1692f10568b7c22f072f10b76d73e869afa7c7727f780dcbc77c3",
      "v": 27,
      "creates": null,
      "raw": "0xf8708201c0850ddc7d3e128303d09094c5623fa5c297c05c2d965a336b2068cfa0e567fa89169ce81cd5a247ec00801ba08d38f3bdb2dc6a46c661641b9bcd45ae4964f7e8c1168bf0087fdc5995a661dfa02757bbc946d1692f10568b7c22f072f10b76d73e869afa7c7727f780dcbc77c3",
      "networkId": 0,
      "chainId": 0
    }
  ]
}