{
  "hash": "0x93fa80166159adbacd765a262d4d0f61273986538d4820083bf6a9dba528e835",
  "parentHash": "0xdcb93073cbe72c7ff84d521d42198b39eddfddaa8773ed5647f0cf085c0049cb",
  "number": 63452,
  "timestamp": 1439204619,
  "nonce": "0xb53110a2297e1680",
  "difficulty": 1838745104548,
  "gasLimit": {
    "_hex": "0x2fefd8"
  },
  "gasUsed": {
    "_hex": "0x5208"
  },
  "miner": "0x346Ad0cADdD5A8b2CAfd5b363414E4AE348db24c",
  "extraData": "0x",
  "transactions": [
    {
      "hash": "0x189484a8d905ac9c0778ce9dfe81d5ef6c7f959cd33b963f86d3848ef9a37f25",
      "blockHash": "0x93fa80166159adbacd765a262d4d0f61273986538d4820083bf6a9dba528e835",
      "blockNumber": 63452,
      "transactionIndex": 0,
      "confirmations": null,
      "from": "0x120A270bbC009644e35F0bB6ab13f95b8199c4ad",
      "gasPrice": {
        "_hex": "0xd5a3fb935"
      },
      "gasLimit": {
        "_hex": "0x15f90"
      },
      "to": "0x5e95D6E811fe4F27124569DBF42C8B636754637e",
      "value": {
        "_hex": "0xace65f1d9f65e0000"
      },
      "nonce": 102,
      "data": "0x",
      "r": "0x12b133b3a155d030e724300e794d60794ac2d3a5a8815b8240c47e2fa58799ea",
      "s": "0x6548f73a3e65b36a86300467c922a449628d554d1511231f102b90228ef05083",
      "v": 27,
      "creates": null,
      "raw": "0xf86e66850d5a3fb93583015f90945e95d6e811fe4f27124569dbf42c8b636754637e890ace65f1d9f65e0000801ba012b133b3a155d030e724300e794d60794ac2d3a5a8815b8240c47e2fa58799eaa06548f73a3e65b36a86300467c922a449628d554d1511231f102b90228ef05083",
      "networkId": 0,
      "chainId": 0
    }
  ]
}