{
  "hash": "0x90bb61f24c62d468b107e7bc6f30155c41c8af84d3649f3a3fcb344ccfbfdddf",
  "parentHash": "0xa0e2a5099d08e3a09a4b14ab7bad8b0cdf2d95cf215967972af64fd9063aee7d",
  "number": 52663,
  "timestamp": 1439025331,
  "nonce": "0x693308dff57ad68f",
  "difficulty": 1566350471863,
  "gasLimit": {
    "_hex": "0x17363d"
  },
  "gasUsed": {
    "_hex": "0x16e360"
  },
  "miner": "0xdd2F1e6e498202e86D8f5442Af596580A4f03c2C",
  "extraData": "0x476574682f76312e302e312d38326566323666362f6c696e75782f676f312e34",
  "transactions": [
    {
      "hash": "0x8e0d58300d3bac020e9d57afcfb378deccb7d8f2473f3216e04c9ee6ffc89e56",
      "blockHash": "0x90bb61f24c62d468b107e7bc6f30155c41c8af84d3649f3a3fcb344ccfbfdddf",
      "blockNumber": 52663,
      "transactionIndex": 0,
      "confirmations": null,
      "from": "0x54dAeb3E8a6BBC797E4aD2b0339f134b186e4637",
      "gasPrice": {
        "_hex": "0xd8bd64e50"
      },
      "gasLimit": {
        "_hex": "0x7a120"
      },
      "to": "0xBAA54d6E90c3F4d7Ebec11bD180134C7eD8eBb52",
      "value": {
        "_hex": "0x16345785d8a0000"
      },
      "nonce": 874,
      "data": "0x",
      "r": "0x0e9b5d223bbed2d3212e24f15da8d5358946c6a96594965fb9970d6fe2fdc0d7",
      "s": "0x0206be1216d367078b4119db00514cc4bc60c617bb3f8ee7c6f2c124bac5645e",
      "v": 28,
      "creates": null,
      "raw": "0xf86f82036a850d8bd64e508307a12094baa54d6e90c3f4d7ebec11bd180134c7ed8ebb5288016345785d8a0000801ca00e9b5d223bbed2d3212e24f15da8d5358946c6a96594965fb9970d6fe2fdc0d7a00206be1216d367078b4119db00514cc4bc60c617bb3f8ee7c6f2c124bac5645e",
      "networkId": 0,
      "chainId": 0
    },
    {
      "hash": "0x3ea21f9d1b3f75265575d9bf1d93226cce031d790f4eac4903d9d03ac407dfb4",
      "blockHash": "0x90bb61f24c62d468b107e7bc6f30155c41c8af84d3649f3a3fcb344ccfbfdddf",
      "blockNumber": 52663,
      "transactionIndex": 1,
      "confirmations": null,
      "from": "0x54dAeb3E8a6BBC797E4aD2b0339f134b186e4637",
      "gasPrice": {
        "_hex": "0xe1780dfbb"
      },
      "gasLimit": {
        "_hex": "0x7a120"
      },
      "to": "0xBAA54d6E90c3F4d7Ebec11bD180134C7eD8eBb52",
      "value": {
        "_hex": "0x16345785d8a0000"
      },
      "nonce": 875,
      "data": "0x",
      "r": "0x2207b666892eb03eeda40bd290af96cf0509ecb4d5e210df780f46a37085cc2e",
      "s": "0x3f24fb357058b1f815909e596ec032ba80c2588a4fc44de3814b420265434194",
      "v": 27,
      "creates": null,
      "raw": "0xf86f82036b850e1780dfbb8307a12094baa54d6e90c3f4d7ebec11bd180134c7ed8ebb5288016345785d8a0000801ba02207b666892eb03eeda40bd290af96cf0509ecb4d5e210df780f46a37085cc2ea03f24fb357058b1f815909e596ec032ba80c2588a4fc44de3814b420265434194",
      "networkId": 0,
      "chainId": 0
    },
    {
      "hash": "0xf246d89983cfd97705a923f5af1d068bf61737838ee95c55b7ee708722bd5c90",
      "blockHash": "0x90bb61f24c62d468b107e7bc6f30155c41c8af84d3649f3a3fcb344ccfbfdddf",
      "blockNumber": 52663,
      "transactionIndex": 2,
      "confirmations": null,
      "from": "0x54dAeb3E8a6BBC797E4aD2b0339f134b186e4637",
      "gasPrice": {
        "_hex": "0xdce5b224a"
      },
      "gasLimit": {
        "_hex": "0x7a120"
      },
      "to": "0xBAA54d6E90c3F4d7Ebec11bD180134C7eD8eBb52",
      "value": {
        "_hex": "0x16345785d8a0000"
      },
      "nonce": 876,
      "data": "0x",
      "r": "0xb0378ac5dc4332cbba440a95557fbfa08e54d1a7f7c7b29ba8a9f0836745263a",
      "s": "0x2a4d6f252c551d35ecc22762013a5512b2a32a3754aa3bffc837bdddbb34bd35",
      "v": 28,
      "creates": null,
      "raw": "0xf86f82036c850dce5b224a8307a12094baa54d6e90c3f4d7ebec11bd180134c7ed8ebb5288016345785d8a0000801ca0b0378ac5dc4332cbba440a95557fbfa08e54d1a7f7c7b29ba8a9f0836745263aa02a4d6f252c551d35ecc22762013a5512b2a32a3754aa3bffc837bdddbb34bd35",
      "networkId": 0,
      "chainId": 0
    }
  ]
}