{
  "hash": "0xaa5d8d04d87879086ee5c4d6ba5c1294d74770a3a06ace48d5d9380bcad46598",
  "parentHash": "0x9cbb9d82b3d74a0a08cfd120cd35bbe05e512d46d9787be951572a854d1a1b57",
  "number": 85382,
  "timestamp": 1439562830,
  "nonce": "0x83ce2a8fa519932a",
  "difficulty": 2728985802916,
  "gasLimit": {
    "_hex": "0x2fefd8"
  },
  "gasUsed": {
    "_hex": "0xf618"
  },
  "miner": "0xEF247E639d49461D25F57e9362CadE3120910Ce0",
  "extraData": "0x476574682f76312e302e312f6c696e75782f676f312e342e32",
  "transactions": [
    {
      "hash": "0xd47102474593f6d475c18718a5bedd120c25177151e6d9fc270e4d8f34591bbb",
      "blockHash": "0xaa5d8d04d87879086ee5c4d6ba5c1294d74770a3a06ace48d5d9380bcad46598",
      "blockNumber": 85382,
      "transactionIndex": 0,
      "confirmations": null,
      "from": "0xa6BDc31c431B8F97848c9D60cbbe9660dc450eB7",
      "gasPrice": {
        "_hex": "0xdbfb2db4f"
      },
      "gasLimit": {
        "_hex": "0x5208"
      },
      "to": "0x32Be343B94f860124dC4fEe278FDCBD38C102D88",
      "value": {
        "_hex": "0x4567994202144800"
      },
      "nonce": 69,
      "data": "0x",
      "r": "0x00d5209fb849cf538c151bdd559646ee8181f8706aa2cbb1d8c98f81d0a1e223",
      "s": "0x1f96faac5658fda018eb306a63bb3100c5b5f381f44d934fa9e3c742c0cbe0e4",
      "v": 28,
      "creates": null,
      "raw": "0xf86b45850dbfb2db4f8252089432be343b94f860124dc4fee278fdcbd38c102d88884567994202144800801c9fd5209fb849cf538c151bdd559646ee8181f8706aa2cbb1d8c98f81d0a1e223a01f96faac5658fda018eb306a63bb3100c5b5f381f44d934fa9e3c742c0cbe0e4",
      "networkId": 0,
      "chainId": 0
    },
    {
      "hash": "0x7fb5a63f704963ac24293d5bcc21e8a5e4bade2c5287916f7cb2544913ed4d46",
      "blockHash": "0xaa5d8d04d87879086ee5c4d6ba5c1294d74770a3a06ace48d5d9380bcad46598",
      "blockNumber": 85382,
      "transactionIndex": 1,
      "confirmations": null,
      "from": "0xfe8635C30D5b0a49D09Fc9480d59e05d7450fd41",
      "gasPrice": {
        "_hex": "0xdbfb2db4f"
      },
      "gasLimit": {
        "_hex": "0x5208"
      },
      "to": "0x32Be343B94f860124dC4fEe278FDCBD38C102D88",
      "value": {
        "_hex": "0x226cacce2a7742000"
      },
      "nonce": 2,
      "data": "0x",
      "r": "0xdd9e401432e6c639ce2fdbb4860f7c7a026b499c7cb53fa8ab0e145eb3e1f473",
      "s": "0x42ab69e64b00b75a4e5da67de2fafa7357413de4ebc4a4caf52bea11d7d8de9b",
      "v": 27,
      "creates": null,
      "raw": "0xf86d02850dbfb2db4f8252089432be343b94f860124dc4fee278fdcbd38c102d88890226cacce2a7742000801ba0dd9e401432e6c639ce2fdbb4860f7c7a026b499c7cb53fa8ab0e145eb3e1f473a042ab69e64b00b75a4e5da67de2fafa7357413de4ebc4a4caf52bea11d7d8de9b",
      "networkId": 0,
      "chainId": 0
    },
    {
      "hash": "0x77452a7a2d63da8d8e782942902ad4cfb3581fdda4a0e25fe5e7a790ab3251ec",
      "blockHash": "0xaa5d8d04d87879086ee5c4d6ba5c1294d74770a3a06ace48d5d9380bcad46598",
      "blockNumber": 85382,
      "transactionIndex": 2,
      "confirmations": null,
      "from": "0x23f2D0fd3B4C98Fb1698564deB4898275E2e831f",
      "gasPrice": {
        "_hex": "0xdbfb2db4f"
      },
      "gasLimit": {
        "_hex": "0x5208"
      },
      "to": "0x32Be343B94f860124dC4fEe278FDCBD38C102D88",
      "value": {
        "_hex": "0x453ba2b9895a4400"
      },
      "nonce": 5,
      "data": "0x",
      "r": "0x9cfc0e6c7279dc83a368531818add375d564edfe74743f39280c90087933fe0c",
      "s": "0x02f50f0fe46705cc85eefbf3b9b2e5c31217b351cdd87bca7d5bac989f1bc60c",
      "v": 27,
      "creates": null,
      "raw": "0xf86c05850dbfb2db4f8252089432be343b94f860124dc4fee278fdcbd38c102d8888453ba2b9895a4400801ba09cfc0e6c7279dc83a368531818add375d564edfe74743f39280c90087933fe0ca002f50f0fe46705cc85eefbf3b9b2e5c31217b351cdd87bca7d5bac989f1bc60c",
      "networkId": 0,
      "chainId": 0
    }
  ]
}