{
  "hash": "0x69bf0bd6a39de8d8cdb209385dab792900eb5223cf4b95d0b70cb9c898604c3e",
  "parentHash": "0xf0bf75462fb3d84855f17d040e19b674ec1dd22798f9e5da4c7925b0e9f3c35c",
  "number": 65298,
  "timestamp": 1439234477,
  "nonce": "0x0dcf9b74b08349b0",
  "difficulty": 1947371398074,
  "gasLimit": {
    "_hex": "0x2fefd8"
  },
  "gasUsed": {
    "_hex": "0x5208"
  },
  "miner": "0x0eDEd3DA479d0beF8eeC92A76644D3f4E3C177f7",
  "extraData": "0x476574682f76312e302e312f6c696e75782f676f312e342e32",
  "transactions": [
    {
      "hash": "0x90cbf19b66cca5abe8a6f4a2f005fc9a371c0965268f3ecc94c59c48bde52c3c",
      "blockHash": "0x69bf0bd6a39de8d8cdb209385dab792900eb5223cf4b95d0b70cb9c898604c3e",
      "blockNumber": 65298,
      "transactionIndex": 0,
      "confirmations": null,
      "from": "0x27e806e70622d2864e1B1f4426D72FFb0457C83a",
      "gasPrice": {
        "_hex": "0xcfa24fedf"
      },
      "gasLimit": {
        "_hex": "0x5208"
      },
      "to": "0x32Be343B94f860124dC4fEe278FDCBD38C102D88",
      "value": {
        "_hex": "0x455f68fb506de800"
      },
      "nonce": 6,
      "data": "0x",
      "r": "0x5d0fc7b7465e2d40be78784ad583772eb359c233f8dee8e3dc00aa5f69a44bb0",
      "s": "0x25e2ab72468f4b760a69b2df265a6dc11acbfff3ffea075fbf89fda0d7ce001e",
      "v": 28,
      "creates": null,
      "raw": "0xf86c06850cfa24fedf8252089432be343b94f860124dc4fee278fdcbd38c102d8888455f68fb506de800801ca05d0fc7b7465e2d40be78784ad583772eb359c233f8dee8e3dc00aa5f69a44bb0a025e2ab72468f4b760a69b2df265a6dc11acbfff3ffea075fbf89fda0d7ce001e",
      "networkId": 0,
      "chainId": 0
    }
  ]
}