{
  "hash": "0xeed908e5522549e7ad7441f63159e657948543775d50eeb32117e9d7b1480ca3",
  "parentHash": "0xde1421a72f1d9038840e0d335faf480cdec77351e1a767986a270a1f4951b710",
  "number": 77275,
  "timestamp": 1439434436,
  "nonce": "0x1662509d709cadcd",
  "difficulty": 2234936597449,
  "gasLimit": {
    "_hex": "0x2fefd8"
  },
  "gasUsed": {
    "_hex": "0xa410"
  },
  "miner": "0x785ffdDd5cE55c6DF963f345e68d3F2024E5Acb1",
  "extraData": "0x",
  "transactions": [
    {
      "hash": "0x9ccc257af2954545c040c6e489704aec6d2fcd389774925ff061ffd132b9bf2b",
      "blockHash": "0xeed908e5522549e7ad7441f63159e657948543775d50eeb32117e9d7b1480ca3",
      "blockNumber": 77275,
      "transactionIndex": 0,
      "confirmations": null,
      "from": "0xCc519A6f707571a4C58F0c4b574643283a0742B8",
      "gasPrice": {
        "_hex": "0xcc02fa46e"
      },
      "gasLimit": {
        "_hex": "0x5208"
      },
      "to": "0x32Be343B94f860124dC4fEe278FDCBD38C102D88",
      "value": {
        "_hex": "0xddca0bf19b69000"
      },
      "nonce": 1,
      "data": "0x",
      "r": "0x7786ffa2ff7bd1a4ee6cb2304e16f1a366a3dc5a157b8d17581d300b84826231",
      "s": "0x06809d31b985e24b3e58477e6388cec43210bf35752c20a1d31305be92870b8f",
      "v": 27,
      "creates": null,
      "raw": "0xf86c01850cc02fa46e8252089432be343b94f860124dc4fee278fdcbd38c102d88880ddca0bf19b69000801ba07786ffa2ff7bd1a4ee6cb2304e16f1a366a3dc5a157b8d17581d300b84826231a006809d31b985e24b3e58477e6388cec43210bf35752c20a1d31305be92870b8f",
      "networkId": 0,
      "chainId": 0
    },
    {
      "hash": "0xad94c128d12e865f5301335c07cdf77d3a53072d795d7ec3bfb6e707fa928d89",
      "blockHash": "0xeed908e5522549e7ad7441f63159e657948543775d50eeb32117e9d7b1480ca3",
      "blockNumber": 77275,
      "transactionIndex": 1,
      "confirmations": null,
      "from": "0x96811Ad897894eC178872117C8BF2f03971A393B",
      "gasPrice": {
        "_hex": "0xcc02fa46e"
      },
      "gasLimit": {
        "_hex": "0x5208"
      },
      "to": "0x32Be343B94f860124dC4fEe278FDCBD38C102D88",
      "value": {
        "_hex": "0x14c5b6826f4ed9000"
      },
      "nonce": 17,
      "data": "0x",
      "r": "0x804ab817276ff26a01c17640bed829ba4b1b812e4178e517d43f080704a971df",
      "s": "0x3ce850582350c58d1710079dc67643ce3cd742e42fa52946b513d1628fc90471",
      "v": 28,
      "creates": null,
      "raw": "0xf86d11850cc02fa46e8252089432be343b94f860124dc4fee278fdcbd38c102d8889014c5b6826f4ed9000801ca0804ab817276ff26a01c17640bed829ba4b1b812e4178e517d43f080704a971dfa03ce850582350c58d1710079dc67643ce3cd742e42fa52946b513d1628fc90471",
      "networkId": 0,
      "chainId": 0
    }
  ]
}