{
  "hash": "0x6012363fb1cca966e5acad77ac8c8153bb486c5dcf0816b7ff3ac72670143850",
  "parentHash": "0xb1c9bb3cc60c5b0452d4ee3fa04aef9e77bcc8e177ef890ee2438c051209589b",
  "number": 112252,
  "timestamp": 1440004422,
  "nonce": "0x9b46719bb611e053",
  "difficulty": 4389619496659,
  "gasLimit": {
    "_hex": "0x2fefd8"
  },
  "gasUsed": {
    "_hex": "0x5208"
  },
  "miner": "0x9D49F602b0fdb924Bd63DDE2Bd0907E4A07c63a7",
  "extraData": "0x476574682f76312e302e312f6c696e75782f676f312e342e32",
  "transactions": [
    {
      "hash": "0xb3774dc20a9b488c06688dd97b4f994fb5b0913f341d460b3a02c7f6a3a3c504",
      "blockHash": "0x6012363fb1cca966e5acad77ac8c8153bb486c5dcf0816b7ff3ac72670143850",
      "blockNumber": 112252,
      "transactionIndex": 0,
      "confirmations": null,
      "from": "0xFBb1b73C4f0BDa4f67dcA266ce6Ef42f520fBB98",
      "gasPrice": {
        "_hex": "0xd3235498c"
      },
      "gasLimit": {
        "_hex": "0x5208"
      },
      "to": "0x4AC5223Dd6a8E0a7500086541bb69a066De729BF",
      "value": {
        "_hex": "0x762a983795ba9400"
      },
      "nonce": 219,
      "data": "0x",
      "r": "0x019bb11f4ac6cbe6cd06c993b7b6288f4bc2d9bbca7bc6f25b7e63e079706b06",
      "s": "0x174f04044a1d99945c72e5bc40b62fb46303c0846104ab754d4801dfeb957223",
      "v": 28,
      "creates": null,
      "raw": "0xf86d81db850d3235498c825208944ac5223dd6a8e0a7500086541bb69a066de729bf88762a983795ba9400801ca0019bb11f4ac6cbe6cd06c993b7b6288f4bc2d9bbca7bc6f25b7e63e079706b06a0174f04044a1d99945c72e5bc40b62fb46303c0846104ab754d4801dfeb957223",
      "networkId": 0,
      "chainId": 0
    }
  ]
}