{
  "hash": "0xe7e12ce889af01577daea30fc4ad5a0be1a8753eb4a12a3478795c3dcb9642e1",
  "parentHash": "0x5fdb014d079a11b4e0002a968ca2e4374b0b89afbd174507dfe11b6653f3f189",
  "number": 77541,
  "timestamp": 1439438967,
  "nonce": "0x031b392f984bd2d8",
  "difficulty": 2247999085930,
  "gasLimit": {
    "_hex": "0x2fefd5"
  },
  "gasUsed": {
    "_hex": "0x5208"
  },
  "miner": "0xa50ec0D39fa913E62f1Bae7074E6F36caA71855b",
  "extraData": "0xd783010001844765746887676f312e342e32856c696e7578",
  "transactions": [
    {
      "hash": "0xe276cb9853f6bd5f455ee4c579f5468adaeb94bfeea713ad189f189cc6a4d0dc",
      "blockHash": "0xe7e12ce889af01577daea30fc4ad5a0be1a8753eb4a12a3478795c3dcb9642e1",
      "blockNumber": 77541,
      "transactionIndex": 0,
      "confirmations": null,
      "from": "0x32Be343B94f860124dC4fEe278FDCBD38C102D88",
      "gasPrice": {
        "_hex": "0xdbcfb977e"
      },
      "gasLimit": {
        "_hex": "0x5208"
      },
      "to": "0x4BD5f0Ee173C81d42765154865EE69361b6aD189",
      "value": {
        "_hex": "0x35aadf03cee4f80000"
      },
      "nonce": 369,
      "data": "0x",
      "r": "0x47ad6716a438a9052474f93960774291aca51805cdd38951b2968b3dec5980f9",
      "s": "0x4822d44fa71b21cc8643db2d7ec47b8c4351b2586caff09c9f589e109c73375a",
      "v": 28,
      "creates": null,
      "raw": "0xf86f820171850dbcfb977e825208944bd5f0ee173c81d42765154865ee69361b6ad1898935aadf03cee4f80000801ca047ad6716a438a9052474f93960774291aca51805cdd38951b2968b3dec5980f9a04822d44fa71b21cc8643db2d7ec47b8c4351b2586caff09c9f589e109c73375a",
      "networkId": 0,
      "chainId": 0
    }
  ]
}