{
  "hash": "0x379a8efe24e30f3b22239e18201aca47a3e8200314b1ffa165ffaf6b54b05034",
  "parentHash": "0xfa737d7ff65473a911e43bd2ed330d74bf31c598a72b89bcb1d9b275eb73268f",
  "number": 94721,
  "timestamp": 1439713068,
  "nonce": "0x224606a4d71583af",
  "difficulty": 3481438844275,
  "gasLimit": {
    "_hex": "0x2fefd8"
  },
  "gasUsed": {
    "_hex": "0x5208"
  },
  "miner": "0xbb7B8287f3F0a933474a79eAe42CBCa977791171",
  "extraData": "0x476574682f4c5649562f76312e302e312f6c696e75782f676f312e342e32",
  "transactions": [
    {
      "hash": "0x2789ac19b4c50fff6adebef2c14c630d1d56a96592f14575f5a73e3bb7445503",
      "blockHash": "0x379a8efe24e30f3b22239e18201aca47a3e8200314b1ffa165ffaf6b54b05034",
      "blockNumber": 94721,
      "transactionIndex": 0,
      "confirmations": null,
      "from": "0xdc41BFACFAaF8B0F0949aB5A3f18f47063Ae62fB",
      "gasPrice": {
        "_hex": "0xd28377a77"
      },
      "gasLimit": {
        "_hex": "0x5208"
      },
      "to": "0x32Be343B94f860124dC4fEe278FDCBD38C102D88",
      "value": {
        "_hex": "0x46207bd2b84b7c000"
      },
      "nonce": 4,
      "data": "0x",
      "r": "0x61a9cb67c8a291f7ca07c1f0465d00409dbb0f97d08cf059883bc4a24ac07a35",
      "s": "0x6e0ed0eb4f83102f6d2f8cfdb7c977a9997661af4125af21f412a246b4958ff0",
      "v": 27,
      "creates": null,
      "raw": "0xf86d04850d28377a778252089432be343b94f860124dc4fee278fdcbd38c102d8889046207bd2b84b7c000801ba061a9cb67c8a291f7ca07c1f0465d00409dbb0f97d08cf059883bc4a24ac07a35a06e0ed0eb4f83102f6d2f8cfdb7c977a9997661af4125af21f412a246b4958ff0",
      "networkId": 0,
      "chainId": 0
    }
  ]
}