{
  "hash": "0x607c9d3b3dc1710ecb05b2f653e64171ec71e7810d816f10b3d01e2505e63e1e",
  "parentHash": "0x7726065f5e10b2d0fa27a84a6b21a1b36cdf85d2f6de10988e85584f5e53331d",
  "number": 48581,
  "timestamp": 1438959357,
  "nonce": "0x22afcb5434b9bb32",
  "difficulty": 1467859611214,
  "gasLimit": {
    "_hex": "0x19e2d"
  },
  "gasUsed": {
    "_hex": "0xa8d8"
  },
  "miner": "0x0037ce3d4B7f8729C8607D8D0248252Be68202c0",
  "extraData": "0x476574682f76312e302e312f77696e646f77732f676f312e342e32",
  "transactions": [
    {
      "hash": "0x17f12e52d5add06d3660b553d607bd9f140c4cf1c08117380ad44e7817e91832",
      "blockHash": "0x607c9d3b3dc1710ecb05b2f653e64171ec71e7810d816f10b3d01e2505e63e1e",
      "blockNumber": 48581,
      "transactionIndex": 0,
      "confirmations": null,
      "from": "0xE0C4AB9072B4E6e3654A49F8A8Db026A4B3386a9",
      "gasPrice": {
        "_hex": "0xdc0638bdd"
      },
      "gasLimit": {
        "_hex": "0x15f90"
      },
      "to": "0x2910543Af39abA0Cd09dBb2D50200b3E800A63D2",
      "value": {
        "_hex": "0x362ed9526c0aee0000"
      },
      "nonce": 1,
      "data": "0x454e46365244454d30",
      "r": "0x71448c55020360f864b8c97e2c7e0733156467f573bb0bcbca38e6bf9061d8b3",
      "s": "0x7f3bcb97872b2911a224b4294124ed402b5f5f85de55ed62d0ba357c2e8f816e",
      "v": 27,
      "creates": null,
      "raw": "0xf87701850dc0638bdd83015f90942910543af39aba0cd09dbb2d50200b3e800a63d289362ed9526c0aee000089454e46365244454d301ba071448c55020360f864b8c97e2c7e0733156467f573bb0bcbca38e6bf9061d8b3a07f3bcb97872b2911a224b4294124ed402b5f5f85de55ed62d0ba357c2e8f816e",
      "networkId": 0,
      "chainId": 0
    },
    {
      "hash": "0x20c24b70f5b70292907c3ea3dda6dfa7bed3ce0c1de448307fb0fd928a2568d6",
      "blockHash": "0x607c9d3b3dc1710ecb05b2f653e64171ec71e7810d816f10b3d01e2505e63e1e",
      "blockNumber": 48581,
      "transactionIndex": 1,
      "confirmations": null,
      "from": "0xC8b1850525D946F2Ae84f317B15188c536a5dC86",
      "gasPrice": {
        "_hex": "0xd391915c1"
      },
      "gasLimit": {
        "_hex": "0x55f0"
      },
      "to": "0x2910543Af39abA0Cd09dBb2D50200b3E800A63D2",
      "value": {
        "_hex": "0x8fa8233fb2c1280000"
      },
      "nonce": 1,
      "data": "0x454e424e4a544e5152",
      "r": "0xa0bb17f744d57f9e8c7faa60f7a65e7a2a597f84abe96d2ff9ce5eb2dc5a57db",
      "s": "0x19638ab886873d0e1ef8abc56df178edc9884a1aacd9a971f56e20b31d4fb6fa",
      "v": 28,
      "creates": null,
      "raw": "0xf87601850d391915c18255f0942910543af39aba0cd09dbb2d50200b3e800a63d2898fa8233fb2c128000089454e424e4a544e51521ca0a0bb17f744d57f9e8c7faa60f7a65e7a2a597f84abe96d2ff9ce5eb2dc5a57dba019638ab886873d0e1ef8abc56df178edc9884a1aacd9a971f56e20b31d4fb6fa",
      "networkId": 0,
      "chainId": 0
    }
  ]
}