{
  "hash": "0xd9239f4b12cd05920e5a52e16906472cc1573eacb6e3fc13bf8683f11b0f75fc",
  "parentHash": "0xc77dbe99bbfd4a17259713fa850288eff449ff37176cb14ef1e90bc832aa4b38",
  "number": 81742,
  "timestamp": 1439507011,
  "nonce": "0xb654cf5847fd77d6",
  "difficulty": 2421160000275,
  "gasLimit": {
    "_hex": "0x2fefd8"
  },
  "gasUsed": {
    "_hex": "0x5208"
  },
  "miner": "0xf927a40C8B7F6E07c5af7FA2155B4864a4112B13",
  "extraData": "0x",
  "transactions": [
    {
      "hash": "0x67539ed86c0fde000c48d64c59ce33956a29ed23bea265266808910ebf4a5718",
      "blockHash": "0xd9239f4b12cd05920e5a52e16906472cc1573eacb6e3fc13bf8683f11b0f75fc",
      "blockNumber": 81742,
      "transactionIndex": 0,
      "confirmations": null,
      "from": "0x6625997D5DDC109B93B0e6dD488f416D8592Cd25",
      "gasPrice": {
        "_hex": "0xd868052d5"
      },
      "gasLimit": {
        "_hex": "0x5208"
      },
      "to": "0x32Be343B94f860124dC4fEe278FDCBD38C102D88",
      "value": {
        "_hex": "0x1a9014eb1b51030000"
      },
      "nonce": 1,
      "data": "0x",
      "r": "0xad130db1404dec7f87240e9536b45053b854773c5aca9642b9bf12f97b88fac9",
      "s": "0x735d88372714399a1c0c0242003301d4a99ff20d747760ec81cb412f418e7495",
      "v": 27,
      "creates": null,
      "raw": "0xf86d01850d868052d58252089432be343b94f860124dc4fee278fdcbd38c102d88891a9014eb1b51030000801ba0ad130db1404dec7f87240e9536b45053b854773c5aca9642b9bf12f97b88fac9a0735d88372714399a1c0c0242003301d4a99ff20d747760ec81cb412f418e7495",
      "networkId": 0,
      "chainId": 0
    }
  ]
}