{
  "hash": "0x94b738e29e7e348eb86858d35e9f881ec7b2f025157f45040d89362a642dd7f9",
  "parentHash": "0x45b71ea095152bafe9d15d0b809381cec1ec74ecd9213b2487c2c76d7490068d",
  "number": 110326,
  "timestamp": 1439971772,
  "nonce": "0xc067cb65092548e0",
  "difficulty": 4369241099311,
  "gasLimit": {
    "_hex": "0x2fefd8"
  },
  "gasUsed": {
    "_hex": "0x5208"
  },
  "miner": "0xf927a40C8B7F6E07c5af7FA2155B4864a4112B13",
  "extraData": "0x",
  "transactions": [
    {
      "hash": "0x8b9da9f45507c99fe529c2b2bd95387460a5abdf5b7a6a7ab441f5c3db1df14c",
      "blockHash": "0x94b738e29e7e348eb86858d35e9f881ec7b2f025157f45040d89362a642dd7f9",
      "blockNumber": 110326,
      "transactionIndex": 0,
      "confirmations": null,
      "from": "0xe6A7a1d47ff21B6321162AEA7C6CB457D5476Bca",
      "gasPrice": {
        "_hex": "0xd8697342b"
      },
      "gasLimit": {
        "_hex": "0x55f0"
      },
      "to": "0x9746c7e1ef2bd21FF3997fa467593a89cb852BD0",
      "value": {
        "_hex": "0x13847621d5ad15b0"
      },
      "nonce": 4120,
      "data": "0x",
      "r": "0x4349e5a9d6a0230108d9d3e9de5fa4764895ac7e28bea97540f1e898a301451a",
      "s": "0x194f69727e37af5f493cf6ffb2fb305a6ef0fe9c7ab9aafe8e3243ca2154c6db",
      "v": 28,
      "creates": null,
      "raw": "0xf86e821018850d8697342b8255f0949746c7e1ef2bd21ff3997fa467593a89cb852bd08813847621d5ad15b0801ca04349e5a9d6a0230108d9d3e9de5fa4764895ac7e28bea97540f1e898a301451aa0194f69727e37af5f493cf6ffb2fb305a6ef0fe9c7ab9aafe8e3243ca2154c6db",
      "networkId": 0,
      "chainId": 0
    }
  ]
}