{
  "hash": "0xa0a756ffc26d1fabf296d5d8e0bc2d26eacb0d3b1f3807ab738d201f96b0badb",
  "parentHash": "0x147fc012d250a466caa930d568fb88f1ae1ed2cc56dcd46bc2e10c18500717bc",
  "number": 51578,
  "timestamp": 1439007366,
  "nonce": "0x99a0894a779e4529",
  "difficulty": 1559683917434,
  "gasLimit": {
    "_hex": "0xc194f"
  },
  "gasUsed": {
    "_hex": "0x5208"
  },
  "miner": "0x9746c7e1ef2bd21FF3997fa467593a89cb852BD0",
  "extraData": "0x476574682f76312e302e312f77696e646f77732f676f312e342e32",
  "transactions": [
    {
      "hash": "0x1030388d452b2a986d9597af8054a7975aeef5326758cbfec5c21adc78a0a1b6",
      "blockHash": "0xa0a756ffc26d1fabf296d5d8e0bc2d26eacb0d3b1f3807ab738d201f96b0badb",
      "blockNumber": 51578,
      "transactionIndex": 0,
      "confirmations": null,
      "from": "0x25963D3d2264014d180fB0DF883be4f8B656A294",
      "gasPrice": {
        "_hex": "0xd59378b5f"
      },
      "gasLimit": {
        "_hex": "0x15f90"
      },
      "to": "0x5E0693437283ee6d2c33e23dD536248D23C04Ce5",
      "value": {
        "_hex": "0x26351099cf3f50000"
      },
      "nonce": 1,
      "data": "0x",
      "r": "0x87c16dd60fdb1702818f586c6a45d9465f1f93f808d215cd6be001f912868446",
      "s": "0x4dd4d482ff0ca9fbbac81fa861df61c20ab7df000f4879854dc3bc6dba86eb26",
      "v": 27,
      "creates": null,
      "raw": "0xf86e01850d59378b5f83015f90945e0693437283ee6d2c33e23dd536248d23c04ce589026351099cf3f50000801ba087c16dd60fdb1702818f586c6a45d9465f1f93f808d215cd6be001f912868446a04dd4d482ff0ca9fbbac81fa861df61c20ab7df000f4879854dc3bc6dba86eb26",
      "networkId": 0,
      "chainId": 0
    }
  ]
}