{
  "hash": "0xa076ff34d490bdd165b57995d7026105747361d6bb32dc69b1c5f69444848b96",
  "parentHash": "0xb63f398de23b1ed70dce413a4eff3b32304ccb4be878b01dc1c287f297a962f7",
  "number": 90183,
  "timestamp": 1439636092,
  "nonce": "0xa54837916c9ec98c",
  "difficulty": 3297943646541,
  "gasLimit": {
    "_hex": "0x2fefd8"
  },
  "gasUsed": {
    "_hex": "0xa410"
  },
  "miner": "0xe6A7a1d47ff21B6321162AEA7C6CB457D5476Bca",
  "extraData": "0x476574682f76312e302e312d38326566323666362f6c696e75782f676f312e34",
  "transactions": [
    {
      "hash": "0x816ce5b6146776ac8faf9fe9dd1affe3925ef224de811375c280cf86f6621e39",
      "blockHash": "0xa076ff34d490bdd165b57995d7026105747361d6bb32dc69b1c5f69444848b96",
      "blockNumber": 90183,
      "transactionIndex": 0,
      "confirmations": null,
      "from": "0xB76CeFA8d0680c6dA05CA47e1C4B70aA092B69a9",
      "gasPrice": {
        "_hex": "0xdfeeb88a0"
      },
      "gasLimit": {
        "_hex": "0x15f90"
      },
      "to": "0xeC06c233d618b41076FbfF739Efb85a4999F89Da",
      "value": {
        "_hex": "0x130337bdce490000"
      },
      "nonce": 2,
      "data": "0x",
      "r": "0xf628424c994fb4527aba6acf64524d656c8d89f5541849752ff7d8eb97a0ad63",
      "s": "0x6ba291b789195c6d7821d012331b3af6785f528dd0c0fac4312c940d285e5ced",
      "v": 27,
      "creates": null,
      "raw": "0xf86d02850dfeeb88a083015f9094ec06c233d618b41076fbff739efb85a4999f89da88130337bdce490000801ba0f628424c994fb4527aba6acf64524d656c8d89f5541849752ff7d8eb97a0ad63a06ba291b789195c6d7821d012331b3af6785f528dd0c0fac4312c940d285e5ced",
      "networkId": 0,
      "chainId": 0
    },
    {
      "hash": "0x2ee203b5ce0493c32c22bf296328c573457dd8650bc6aea6b79341f0aeb38597",
      "blockHash": "0xa076ff34d490bdd165b57995d7026105747361d6bb32dc69b1c5f69444848b96",
      "blockNumber": 90183,
      "transactionIndex": 1,
      "confirmations": null,
      "from": "0xD1dbf6AE8f14259aDb50f4425dd056204391a578",
      "gasPrice": {
        "_hex": "0xd829211eb"
      },
      "gasLimit": {
        "_hex": "0x55f0"
      },
      "to": "0x9040C4FEa1b297d3e033743bB8dFF3485fE80cFd",
      "value": {
        "_hex": "0x56bc75e2d63100000"
      },
      "nonce": 1,
      "data": "0x",
      "r": "0x8f93d3f0c65d5115fdc3c022da664ebd5c86b388f3a9841b2b4d99c7057e5766",
      "s": "0x4a355797b7b81b958048692e09b82332f62c396e9b78584f730b40a702e1b51a",
      "v": 27,
      "creates": null,
      "raw": "0xf86d01850d829211eb8255f0949040c4fea1b297d3e033743bb8dff3485fe80cfd89056bc75e2d63100000801ba08f93d3f0c65d5115fdc3c022da664ebd5c86b388f3a9841b2b4d99c7057e5766a04a355797b7b81b958048692e09b82332f62c396e9b78584f730b40a702e1b51a",
      "networkId": 0,
      "chainId": 0
    }
  ]
}