{
  "hash": "0x78de4a49a9623ad119feeb4c1b47647add169b3aea5bb54e1f1892ac4bf7a6f3",
  "parentHash": "0xd4fd4276edd55509fd4af8a58dadf8d3750515a6bbfa9590e00a919f654ba5fb",
  "number": 86732,
  "timestamp": 1439582096,
  "nonce": "0x1957f003baa72ad8",
  "difficulty": 2947382683075,
  "gasLimit": {
    "_hex": "0x2fefd8"
  },
  "gasUsed": {
    "_hex": "0x5208"
  },
  "miner": "0xd8F5f0458bDA93A6d2ffA08cee7c1A0CbeA410aE",
  "extraData": "0x476574682f76312e302e312f77696e646f77732f676f312e342e32",
  "transactions": [
    {
      "hash": "0x130dc37ab5b4d63665a77d58e4dd78dc5a9e5b1134318566a23286a728be4478",
      "blockHash": "0x78de4a49a9623ad119feeb4c1b47647add169b3aea5bb54e1f1892ac4bf7a6f3",
      "blockNumber": 86732,
      "transactionIndex": 0,
      "confirmations": null,
      "from": "0x89054430DcdC28AC15fA635EF87c105E602bf70c",
      "gasPrice": {
        "_hex": "0xd83d0d2d8"
      },
      "gasLimit": {
        "_hex": "0x15f90"
      },
      "to": "0xeFFFe92E81e65eA3AD7C8C87D370e1CD31b0cac4",
      "value": {
        "_hex": "0x4e1003b28d9280000"
      },
      "nonce": 5,
      "data": "0x",
      "r": "0x2b76e2d9a7a16bfa98982959de46d2880820660ab691841b423b6317e74ebd23",
      "s": "0x33fb4596ff1222c29108ea9db4f31d5a64bbe406071cec4cbab9567228a6d2a3",
      "v": 27,
      "creates": null,
      "raw": "0xf86e05850d83d0d2d883015f9094efffe92e81e65ea3ad7c8c87d370e1cd31b0cac48904e1003b28d9280000801ba02b76e2d9a7a16bfa98982959de46d2880820660ab691841b423b6317e74ebd23a033fb4596ff1222c29108ea9db4f31d5a64bbe406071cec4cbab9567228a6d2a3",
      "networkId": 0,
      "chainId": 0
    }
  ]
}