{
  "hash": "0xa343d15716b981c59107f21be631e62b66024997dd7a5c397e31d3c28b827769",
  "parentHash": "0xd5e99a1317edf54e205c85289924c6164c191213b61970c015f349e997fa5714",
  "number": 54721,
  "timestamp": 1439058840,
  "nonce": "0x1811f96f3af41c69",
  "difficulty": 1620415715230,
  "gasLimit": {
    "_hex": "0x2fefd8"
  },
  "gasUsed": {
    "_hex": "0x19a28"
  },
  "miner": "0x9746c7e1ef2bd21FF3997fa467593a89cb852BD0",
  "extraData": "0x476574682f76312e302e312f77696e646f77732f676f312e342e32",
  "transactions": [
    {
      "hash": "0x81136e3b4f16f51cc672aa914304ac5f6961e2c4854367f3d99e52cf7caa8798",
      "blockHash": "0xa343d15716b981c59107f21be631e62b66024997dd7a5c397e31d3c28b827769",
      "blockNumber": 54721,
      "transactionIndex": 0,
      "confirmations": null,
      "from": "0x8F8741b77dd1833BC0Ee23D94Ef14920Cb9882B3",
      "gasPrice": {
        "_hex": "0xda56d8482"
      },
      "gasLimit": {
        "_hex": "0x5208"
      },
      "to": "0x32Be343B94f860124dC4fEe278FDCBD38C102D88",
      "value": {
        "_hex": "0x1dd0c4268f58020000"
      },
      "nonce": 1,
      "data": "0x",
      "r": "0x57a3f738fdf84049e0c0b38df39080eac9f5038a49ff4eae37b15d0bf1fc3502",
      "s": "0x7d6c86776bfd3d3c58f7ce72f62cd6b36757792718603cbc8af558ae0d75c57d",
      "v": 27,
      "creates": null,
      "raw": "0xf86d01850da56d84828252089432be343b94f860124dc4fee278fdcbd38c102d88891dd0c4268f58020000801ba057a3f738fdf84049e0c0b38df39080eac9f5038a49ff4eae37b15d0bf1fc3502a07d6c86776bfd3d3c58f7ce72f62cd6b36757792718603cbc8af558ae0d75c57d",
      "networkId": 0,
      "chainId": 0
    },
    {
      "hash": "0x5d96a17b4de601c7f57677bc3a09183a36cae06c8447a7fbfbf9c640c8d5a5f8",
      "blockHash": "0xa343d15716b981c59107f21be631e62b66024997dd7a5c397e31d3c28b827769",
      "blockNumber": 54721,
      "transactionIndex": 1,
      "confirmations": null,
      "from": "0xd6a456c0d46f7a8404f662bBEc6BA7da6252F503",
      "gasPrice": {
        "_hex": "0xda56d8482"
      },
      "gasLimit": {
        "_hex": "0x5208"
      },
      "to": "0x32Be343B94f860124dC4fEe278FDCBD38C102D88",
      "value": {
        "_hex": "0x8ac2c39a41120000"
      },
      "nonce": 0,
      "data": "0x",
      "r": "0x50f30a9e60326ccef2b2cdfc28d02c1236b6b86f6a1fb46835642746e3c0d964",
      "s": "0x2a2fe4e7b7a79e362c6c891c643f00b1870ac4454f24c57e6615115aa04941aa",
      "v": 28,
      "creates": null,
      "raw": "0xf86c80850da56d84828252089432be343b94f860124dc4fee278fdcbd38c102d88888ac2c39a41120000801ca050f30a9e60326ccef2b2cdfc28d02c1236b6b86f6a1fb46835642746e3c0d964a02a2fe4e7b7a79e362c6c891c643f00b1870ac4454f24c57e6615115aa04941aa",
      "networkId": 0,
      "chainId": 0
    },
    {
      "hash": "0x00036063d12581d79109fb0d7542ce9d48f648d9892931d11ba7846d36359191",
      "blockHash": "0xa343d15716b981c59107f21be631e62b66024997dd7a5c397e31d3c28b827769",
      "blockNumber": 54721,
      "transactionIndex": 2,
      "confirmations": null,
      "from": "0x0fFecdF99016b9C74f1088c858B0A6b71992A471",
      "gasPrice": {
        "_hex": "0xda56d8482"
      },
      "gasLimit": {
        "_hex": "0x5208"
      },
      "to": "0x32Be343B94f860124dC4fEe278FDCBD38C102D88",
      "value": {
        "_hex": "0x3635c54e5b95ca0000"
      },
      "nonce": 3,
      "data": "0x",
      "r": "0x0db812f477bb6706ff89b7ddb7c42845cf3338ba5fe0b757205f7b6318e04d6d",
      "s": "0x3a126388865ecd056cae28ce8ff83426b8ecdf9e16ecea624861361f6708b22c",
      "v": 28,
      "creates": null,
      "raw": "0xf86d03850da56d84828252089432be343b94f860124dc4fee278fdcbd38c102d88893635c54e5b95ca0000801ca00db812f477bb6706ff89b7ddb7c42845cf3338ba5fe0b757205f7b6318e04d6da03a126388865ecd056cae28ce8ff83426b8ecdf9e16ecea624861361f6708b22c",
      "networkId": 0,
      "chainId": 0
    },
    {
      "hash": "0xcf9e5403b2dfe340285c3ec1cbc85873fac0cac0048d82c1131b8cef38b44785",
      "blockHash": "0xa343d15716b981c59107f21be631e62b66024997dd7a5c397e31d3c28b827769",
      "blockNumber": 54721,
      "transactionIndex": 3,
      "confirmations": null,
      "from": "0x7874B74Bc832E6506F11C2a01c7a6269B4b4FF16",
      "gasPrice": {
        "_hex": "0xda56d8482"
      },
      "gasLimit": {
        "_hex": "0x5208"
      },
      "to": "0x32Be343B94f860124dC4fEe278FDCBD38C102D88",
      "value": {
        "_hex": "0x3635c54e5b95ca0000"
      },
      "nonce": 0,
      "data": "0x",
      "r": "0x5172bddef412a88115dd257394abff42a40791d73b20ac327689bc13be30f80c",
      "s": "0x1e1b9509e72ff056274ed50ee1d9e5a55d0ca0c36bab79ff166726ffbcd0ef0d",
      "v": 27,
      "creates": null,
      "raw": "0xf86d80850da56d84828252089432be343b94f860124dc4fee278fdcbd38c102d88893635c54e5b95ca0000801ba05172bddef412a88115dd257394abff42a40791d73b20ac327689bc13be30f80ca01e1b9509e72ff056274ed50ee1d9e5a55d0ca0c36bab79ff166726ffbcd0ef0d",
      "networkId": 0,
      "chainId": 0
    },
    {
      "hash": "0x83948dcb35e9f229cc3de2d0e06eee00490455f82e3a258b1784da1e3abe6f44",
      "blockHash": "0xa343d15716b981c59107f21be631e62b66024997dd7a5c397e31d3c28b827769",
      "blockNumber": 54721,
      "transactionIndex": 4,
      "confirmations": null,
      "from": "0x314c7Daa4825ffC0293819119c5FDCC0CcF19827",
      "gasPrice": {
        "_hex": "0xda56d8482"
      },
      "gasLimit": {
        "_hex": "0x5208"
      },
      "to": "0x32Be343B94f860124dC4fEe278FDCBD38C102D88",
      "value": {
        "_hex": "0xddc57495e8dfc00"
      },
      "nonce": 0,
      "data": "0x",
      "r": "0xa4dd0f62685ba03a2d59f3fcd2cc48e2e569b5c47b844c3e01ec3cfbe5ffc5ec",
      "s": "0x3b8d150369458264793fd79a20171c6b8a41457e8be3a6834915c2bdd05e5a2c",
      "v": 28,
      "creates": null,
      "raw": "0xf86c80850da56d84828252089432be343b94f860124dc4fee278fdcbd38c102d88880ddc57495e8dfc00801ca0a4dd0f62685ba03a2d59f3fcd2cc48e2e569b5c47b844c3e01ec3cfbe5ffc5eca03b8d150369458264793fd79a20171c6b8a41457e8be3a6834915c2bdd05e5a2c",
      "networkId": 0,
      "chainId": 0
    }
  ]
}