{
  "hash": "0xcd16f689e20fb3d7517279489559d86537d0b9acf39624dc80542137c9a3a869",
  "parentHash": "0x23eb4f872852dd63b39ad4f714546155d2dd746ec73282bd2689f9636139dc98",
  "number": 69261,
  "timestamp": 1439300724,
  "nonce": "0x9f343517865a85bf",
  "difficulty": 2068954064707,
  "gasLimit": {
    "_hex": "0x2fefd8"
  },
  "gasUsed": {
    "_hex": "0xf618"
  },
  "miner": "0x0037ce3d4B7f8729C8607D8D0248252Be68202c0",
  "extraData": "0x476574682f76312e302e312f77696e646f77732f676f312e342e32",
  "transactions": [
    {
      "hash": "0x91e21ef4f940dc7b9a0d0bb1de5abf66d818b9a888fa66e6f655104088c49e7a",
      "blockHash": "0xcd16f689e20fb3d7517279489559d86537d0b9acf39624dc80542137c9a3a869",
      "blockNumber": 69261,
      "transactionIndex": 0,
      "confirmations": null,
      "from": "0xe6A7a1d47ff21B6321162AEA7C6CB457D5476Bca",
      "gasPrice": {
        "_hex": "0xd1f49cca5"
      },
      "gasLimit": {
        "_hex": "0x55f0"
      },
      "to": "0xdC651aF9f42DB2247454a1cD8D80AfB29a73E460",
      "value": {
        "_hex": "0xec1af4bdf776488"
      },
      "nonce": 513,
      "data": "0x",
      "r": "0x2ad9231924b35b1ecbe64c1976f0a39612b53ec8e8bdb5582a56007539011499",
      "s": "0x67b65375b680c20895a3e2ce974e42f9dbd67183ab257a25a155d3ef02aa6146",
      "v": 27,
      "creates": null,
      "raw": "0xf86e820201850d1f49cca58255f094dc651af9f42db2247454a1cd8d80afb29a73e460880ec1af4bdf776488801ba02ad9231924b35b1ecbe64c1976f0a39612b53ec8e8bdb5582a56007539011499a067b65375b680c20895a3e2ce974e42f9dbd67183ab257a25a155d3ef02aa6146",
      "networkId": 0,
      "chainId": 0
    },
    {
      "hash": "0x4aee9a31288ccee71d6cccd5fe3caf576962475785abea6bd23bd0018cc1ad9c",
      "blockHash": "0xcd16f689e20fb3d7517279489559d86537d0b9acf39624dc80542137c9a3a869",
      "blockNumber": 69261,
      "transactionIndex": 1,
      "confirmations": null,
      "from": "0xe6A7a1d47ff21B6321162AEA7C6CB457D5476Bca",
      "gasPrice": {
        "_hex": "0xd1f49cca5"
      },
      "gasLimit": {
        "_hex": "0x55f0"
      },
      "to": "0x3Fef71cB8Ac8711ECa473049D813b003A76D1eaA",
      "value": {
        "_hex": "0xecf869a7d464b74"
      },
      "nonce": 514,
      "data": "0x",
      "r": "0xcb6a8976ec63110c1e70826f43af27c4b30319e34a6e7392877f41437a550822",
      "s": "0x1da51c95ec7f96f995537be58e8ab02715d3e5c0a4b4c568cfa71b939786b54f",
      "v": 27,
      "creates": null,
      "raw": "0xf86e820202850d1f49cca58255f0943fef71cb8ac8711eca473049d813b003a76d1eaa880ecf869a7d464b74801ba0cb6a8976ec63110c1e70826f43af27c4b30319e34a6e7392877f41437a550822a01da51c95ec7f96f995537be58e8ab02715d3e5c0a4b4c568cfa71b939786b54f",
      "networkId": 0,
      "chainId": 0
    },
    {
      "hash": "0x246a5e1ae9071a26717031fd6db8ccd4e46704cc9c4b64bc15bd66665dff6dd2",
      "blockHash": "0xcd16f689e20fb3d7517279489559d86537d0b9acf39624dc80542137c9a3a869",
      "blockNumber": 69261,
      "transactionIndex": 2,
      "confirmations": null,
      "from": "0xe6A7a1d47ff21B6321162AEA7C6CB457D5476Bca",
      "gasPrice": {
        "_hex": "0xd1f49cca5"
      },
      "gasLimit": {
        "_hex": "0x55f0"
      },
      "to": "0x9E0Afd592B1e40BEe26816E360f02eebF04aD74B",
      "value": {
        "_hex": "0xed6bd67d51c2c50"
      },
      "nonce": 515,
      "data": "0x",
      "r": "0xab4f1c45ad6dd5896f9db0e078b08c27033167f45549f6946bfcb801d4b80204",
      "s": "0x471b87b5c2510146179c80ed0c665445ca737c38e70cfb0ce44461b2b22b5f56",
      "v": 28,
      "creates": null,
      "raw": "0xf86e820203850d1f49cca58255f0949e0afd592b1e40bee26816e360f02eebf04ad74b880ed6bd67d51c2c50801ca0ab4f1c45ad6dd5896f9db0e078b08c27033167f45549f6946bfcb801d4b80204a0471b87b5c2510146179c80ed0c665445ca737c38e70cfb0ce44461b2b22b5f56",
      "networkId": 0,
      "chainId": 0
    }
  ]
}