{
  "hash": "0x9f0356ceffe3593f542d152eb9a2d54c5d6c235c03bcf552653a1c8a21aeaea2",
  "parentHash": "0x5f456401ea4605ecf1a31f93a58ca106cd041500c04993fa615d2ac0ab72beaa",
  "number": 64905,
  "timestamp": 1439228136,
  "nonce": "0xdf3be28fcfa915bb",
  "difficulty": 1908863003431,
  "gasLimit": {
    "_hex": "0x2fefd8"
  },
  "gasUsed": {
    "_hex": "0xf618"
  },
  "miner": "0x46b92ea5c3E696bf123354DfCc564cbac1C90671",
  "extraData": "0x",
  "transactions": [
    {
      "hash": "0xdc1098671188b423004af2b2d4506948f4ff4cc8331a234adbaa9ea1763ed271",
      "blockHash": "0x9f0356ceffe3593f542d152eb9a2d54c5d6c235c03bcf552653a1c8a21aeaea2",
      "blockNumber": 64905,
      "transactionIndex": 0,
      "confirmations": null,
      "from": "0x831c77503695002445e777b6a16F1C4aaA5CE3E0",
      "gasPrice": {
        "_hex": "0xd23ee12e2"
      },
      "gasLimit": {
        "_hex": "0x15f90"
      },
      "to": "0x6111E933E5e6297DFd0AAd9aAB64017c69062a08",
      "value": {
        "_hex": "0x4563918244f40000"
      },
      "nonce": 0,
      "data": "0x",
      "r": "0xfecae21ccff1b9343c0a8c72ef127b5b1a9696f56c6fe93806606630365f0a88",
      "s": "0x6fe2f9cbd583d3d227a92beb0eda21a88564470e81929ff19e57c5258054673c",
      "v": 27,
      "creates": null,
      "raw": "0xf86d80850d23ee12e283015f90946111e933e5e6297dfd0aad9aab64017c69062a08884563918244f40000801ba0fecae21ccff1b9343c0a8c72ef127b5b1a9696f56c6fe93806606630365f0a88a06fe2f9cbd583d3d227a92beb0eda21a88564470e81929ff19e57c5258054673c",
      "networkId": 0,
      "chainId": 0
    },
    {
      "hash": "0x7768b4e35a6b5c6384ccabde95d8628919258821e2408e6cdceba52e978aac74",
      "blockHash": "0x9f0356ceffe3593f542d152eb9a2d54c5d6c235c03bcf552653a1c8a21aeaea2",
      "blockNumber": 64905,
      "transactionIndex": 1,
      "confirmations": null,
      "from": "0x3Ad06149b21C55Ff867cc3fb9740D2BCc7101231",
      "gasPrice": {
        "_hex": "0xd1454a4ad"
      },
      "gasLimit": {
        "_hex": "0x15f90"
      },
      "to": "0xC624b0Cd3307f6CFFC473f5019FA380E6811ee58",
      "value": {
        "_hex": "0x39968c26608d2740000"
      },
      "nonce": 20,
      "data": "0x",
      "r": "0x2fef3e44be5c253026131e4096fa7827ec1c6be58edc043278ec7721818a908b",
      "s": "0x0ca7b1c78a7e030d5adb425265c0544ca599326b38aec96baef5000630a50cc4",
      "v": 28,
      "creates": null,
      "raw": "0xf86f14850d1454a4ad83015f9094c624b0cd3307f6cffc473f5019fa380e6811ee588a039968c26608d2740000801ca02fef3e44be5c253026131e4096fa7827ec1c6be58edc043278ec7721818a908ba00ca7b1c78a7e030d5adb425265c0544ca599326b38aec96baef5000630a50cc4",
      "networkId": 0,
      "chainId": 0
    },
    {
      "hash": "0xc957497c3ef48c237b13922813fb4e533e13b6c21722df57e9cd240c10749577",
      "blockHash": "0x9f0356ceffe3593f542d152eb9a2d54c5d6c235c03bcf552653a1c8a21aeaea2",
      "blockNumber": 64905,
      "transactionIndex": 2,
      "confirmations": null,
      "from": "0x1999ed00546629B40dA720685bB56bf43277B265",
      "gasPrice": {
        "_hex": "0xba43b7400"
      },
      "gasLimit": {
        "_hex": "0x5208"
      },
      "to": "0xc0bd063969F1e0C8B8AB74601488cD68155019Ef",
      "value": {
        "_hex": "0xaa9f075c200000"
      },
      "nonce": 1,
      "data": "0x",
      "r": "0xc4d87295577f11ba3ee4a0708c7a16e9fab8fd4f69ce49df096e5a6292e18fe6",
      "s": "0x1b9de0d86e780037170bf15117bc2bb8c4a8d784f443dfdbee6b1bf8f2de2026",
      "v": 28,
      "creates": null,
      "raw": "0xf86b01850ba43b740082520894c0bd063969f1e0c8b8ab74601488cd68155019ef87aa9f075c200000801ca0c4d87295577f11ba3ee4a0708c7a16e9fab8fd4f69ce49df096e5a6292e18fe6a01b9de0d86e780037170bf15117bc2bb8c4a8d784f443dfdbee6b1bf8f2de2026",
      "networkId": 0,
      "chainId": 0
    }
  ]
}