{
  "hash": "0x67ec1479a43ea6c40f676f37c2d1c29e18073bbcd533e540e5b290a26d697d98",
  "parentHash": "0x78fdb1d7cfdb151d4ba175d3304bd06f928de1cfa9ae29243acc635c66435df3",
  "number": 120003,
  "timestamp": 1440152108,
  "nonce": "0x10b13b7343b63f37",
  "difficulty": 4426441116502,
  "gasLimit": {
    "_hex": "0x2fefd8"
  },
  "gasUsed": {
    "_hex": "0x5208"
  },
  "miner": "0xe6A7a1d47ff21B6321162AEA7C6CB457D5476Bca",
  "extraData": "0xd783010002844765746887676f312e342e32856c696e7578",
  "transactions": [
    {
      "hash": "0x3d4f049023fc0d93993690099c914b605fbf3472648bfa9fd53d4a6fe9984b80",
      "blockHash": "0x67ec1479a43ea6c40f676f37c2d1c29e18073bbcd533e540e5b290a26d697d98",
      "blockNumber": 120003,
      "transactionIndex": 0,
      "confirmations": null,
      "from": "0xaeC8dB2Bc80b8584093D25fA1025D96e6D107377",
      "gasPrice": {
        "_hex": "0xba43b7400"
      },
      "gasLimit": {
        "_hex": "0x5208"
      },
      "to": "0xFBb1b73C4f0BDa4f67dcA266ce6Ef42f520fBB98",
      "value": {
        "_hex": "0x1a6986510086000"
      },
      "nonce": 0,
      "data": "0x",
      "r": "0xffdf3350ae34c94c13614409112fc6dd6eec9859f717611d442ef70e956d96e1",
      "s": "0x7e12b785e547de212aa24270cb2ec3875c53f6062b75aa18f14d37c6b7388fd3",
      "v": 27,
      "creates": null,
      "raw": "0xf86c80850ba43b740082520894fbb1b73c4f0bda4f67dca266ce6ef42f520fbb988801a6986510086000801ba0ffdf3350ae34c94c13614409112fc6dd6eec9859f717611d442ef70e956d96e1a07e12b785e547de212aa24270cb2ec3875c53f6062b75aa18f14d37c6b7388fd3",
      "networkId": 0,
      "chainId": 0
    }
  ]
}