{
  "hash": "0xc665db6441ee5164fbc1a41d5bd7ec23d2b8edbd8f5797b8fc36fcdf9f67e6db",
  "parentHash": "0xae1a25242c1f1765753a8fce88c8200dfd0b0e1ff5177cd1db95c899e47d9996",
  "number": 79519,
  "timestamp": 1439470980,
  "nonce": "0xfd6f26d8525e984d",
  "difficulty": 2343854790203,
  "gasLimit": {
    "_hex": "0x2fefd8"
  },
  "gasUsed": {
    "_hex": "0x1466e"
  },
  "miner": "0xfFcD9CAE6d9f54fd8ae05296F839892677ff6EaA",
  "extraData": "0x476574682f76312e302e312f77696e646f77732f676f312e342e32",
  "transactions": [
    {
      "hash": "0x86c3319836d94f975fb241876da9ba38bbcb1f48a5b8fd8dfbfe310f04c75c36",
      "blockHash": "0xc665db6441ee5164fbc1a41d5bd7ec23d2b8edbd8f5797b8fc36fcdf9f67e6db",
      "blockNumber": 79519,
      "transactionIndex": 0,
      "confirmations": null,
      "from": "0xa6BDc31c431B8F97848c9D60cbbe9660dc450eB7",
      "gasPrice": {
        "_hex": "0xe073bb69d"
      },
      "gasLimit": {
        "_hex": "0x5208"
      },
      "to": "0x32Be343B94f860124dC4fEe278FDCBD38C102D88",
      "value": {
        "_hex": "0x455f12c0a40ee400"
      },
      "nonce": 34,
      "data": "0x",
      "r": "0x6f560c4eac230a319cb39c97828bfe69679643cb857b84d0b3afaedd898215bc",
      "s": "0x7c15df277c95d764e4ceec4c495caab9a018ff09777c5f9f516a07fa396bd56b",
      "v": 27,
      "creates": null,
      "raw": "0xf86c22850e073bb69d8252089432be343b94f860124dc4fee278fdcbd38c102d8888455f12c0a40ee400801ba06f560c4eac230a319cb39c97828bfe69679643cb857b84d0b3afaedd898215bca07c15df277c95d764e4ceec4c495caab9a018ff09777c5f9f516a07fa396bd56b",
      "networkId": 0,
      "chainId": 0
    },
    {
      "hash": "0xed34600f0ee6e4e613ade4ec9480f8115905a83888db71c328e8a4d9f02cd960",
      "blockHash": "0xc665db6441ee5164fbc1a41d5bd7ec23d2b8edbd8f5797b8fc36fcdf9f67e6db",
      "blockNumber": 79519,
      "transactionIndex": 1,
      "confirmations": null,
      "from": "0x61F642543d22bAf5382908a714E675Cc0b51ea45",
      "gasPrice": {
        "_hex": "0xe073bb69d"
      },
      "gasLimit": {
        "_hex": "0x5208"
      },
      "to": "0x32Be343B94f860124dC4fEe278FDCBD38C102D88",
      "value": {
        "_hex": "0x455f12c0a40ee400"
      },
      "nonce": 0,
      "data": "0x",
      "r": "0xed854b7f39b8687795c5f03ac66965df091d79d908f50cb4d5e5bb4a56948328",
      "s": "0x688fb58f2ae1175332402c6cd9a08c0819c550f02d58af77ac2d4fed8438c39d",
      "v": 27,
      "creates": null,
      "raw": "0xf86c80850e073bb69d8252089432be343b94f860124dc4fee278fdcbd38c102d8888455f12c0a40ee400801ba0ed854b7f39b8687795c5f03ac66965df091d79d908f50cb4d5e5bb4a56948328a0688fb58f2ae1175332402c6cd9a08c0819c550f02d58af77ac2d4fed8438c39d",
      "networkId": 0,
      "chainId": 0
    },
    {
      "hash": "0xfc0cbc2cf5e6d337a81a5397c175262f4f619a14df5dbc703d4e14e2a3d02dab",
      "blockHash": "0xc665db6441ee5164fbc1a41d5bd7ec23d2b8edbd8f5797b8fc36fcdf9f67e6db",
      "blockNumber": 79519,
      "transactionIndex": 2,
      "confirmations": null,
      "from": "0xD1826373C4E0938f0b4302B40324f7f9c546492C",
      "gasPrice": {
        "_hex": "0xdfbb5deab"
      },
      "gasLimit": {
        "_hex": "0x30d40"
      },
      "to": "0x67DE0f2F71e29b8003D957fbcDE9C9AE393CbE94",
      "value": {
        "_hex": "0xde0b6b3a7640000"
      },
      "nonce": 25,
      "data": "0x",
      "r": "0x6a0eb1980f0a9c82e8a4ae653fe16a04a65091ca9310487b8a950f2c1423c6cf",
      "s": "0x3454e941918c302032c724c5671b70feba136ade0055441dda714a5c22a336ac",
      "v": 27,
      "creates": null,
      "raw": "0xf86d19850dfbb5deab83030d409467de0f2f71e29b8003d957fbcde9c9ae393cbe94880de0b6b3a7640000801ba06a0eb1980f0a9c82e8a4ae653fe16a04a65091ca9310487b8a950f2c1423c6cfa03454e941918c302032c724c5671b70feba136ade0055441dda714a5c22a336ac",
      "networkId": 0,
      "chainId": 0
    }
  ]
}