{
  "hash": "0x649a5491d14fd383fb93bfbb6e77ce8179a1f6f0358ff750d93bc0f21de0e378",
  "parentHash": "0x02a340d759d4dad0da41f88e4cdbed90841b8cda9e14d23d03951f6cf8ff5e05",
  "number": 74262,
  "timestamp": 1439383209,
  "nonce": "0x50fc28f90f73c4b7",
  "difficulty": 2212931551077,
  "gasLimit": {
    "_hex": "0x2fefd8"
  },
  "gasUsed": {
    "_hex": "0x14820"
  },
  "miner": "0x88D74a59454F6cF3B51ef6b9136AFb6b9D405A88",
  "extraData": "0x476574682f76312e302e312d37666266393930632f6c696e75782f676f312e34",
  "transactions": [
    {
      "hash": "0xa2d555fc8602c54b40458de921c1753a71606f2411b83129eb52322670582da6",
      "blockHash": "0x649a5491d14fd383fb93bfbb6e77ce8179a1f6f0358ff750d93bc0f21de0e378",
      "blockNumber": 74262,
      "transactionIndex": 0,
      "confirmations": null,
      "from": "0xe6A7a1d47ff21B6321162AEA7C6CB457D5476Bca",
      "gasPrice": {
        "_hex": "0xd9d878ad7"
      },
      "gasLimit": {
        "_hex": "0x55f0"
      },
      "to": "0x558FaBA8c8326AdC0704469504E27c7482489a73",
      "value": {
        "_hex": "0x7ffae38a02c9a7d0"
      },
      "nonce": 866,
      "data": "0x",
      "r": "0x91c0ffe41b10a78c653e613fba05475b08fc8a31158686d292d6baab6b6e975f",
      "s": "0x68a0651114a7dd5230202c8387b79f2a23240fb0dd8074b755e1021f7a052bb6",
      "v": 28,
      "creates": null,
      "raw": "0xf86e820362850d9d878ad78255f094558faba8c8326adc0704469504e27c7482489a73887ffae38a02c9a7d0801ca091c0ffe41b10a78c653e613fba05475b08fc8a31158686d292d6baab6b6e975fa068a0651114a7dd5230202c8387b79f2a23240fb0dd8074b755e1021f7a052bb6",
      "networkId": 0,
      "chainId": 0
    },
    {
      "hash": "0x6f34815d2451f6471bcab2e510e4909270e095554bf0d9f0569cd16355ab5df7",
      "blockHash": "0x649a5491d14fd383fb93bfbb6e77ce8179a1f6f0358ff750d93bc0f21de0e378",
      "blockNumber": 74262,
      "transactionIndex": 1,
      "confirmations": null,
      "from": "0xe6A7a1d47ff21B6321162AEA7C6CB457D5476Bca",
      "gasPrice": {
        "_hex": "0xd9d878ad7"
      },
      "gasLimit": {
        "_hex": "0x55f0"
      },
      "to": "0xA56697139eB8704667673Af60c361AF8C32694E3",
      "value": {
        "_hex": "0x8199a0e9f573a0f0"
      },
      "nonce": 867,
      "data": "0x",
      "r": "0x43ce1b5154709dabd9d9374c980659ab12944dfaada4d6beda0c1b5c8e8999df",
      "s": "0x4e35986771f0b90f7e3b03b6b27ad4f92779222fa35275fbc2ca472b98e7e256",
      "v": 28,
      "creates": null,
      "raw": "0xf86e820363850d9d878ad78255f094a56697139eb8704667673af60c361af8c32694e3888199a0e9f573a0f0801ca043ce1b5154709dabd9d9374c980659ab12944dfaada4d6beda0c1b5c8e8999dfa04e35986771f0b90f7e3b03b6b27ad4f92779222fa35275fbc2ca472b98e7e256",
      "networkId": 0,
      "chainId": 0
    },
    {
      "hash": "0x651c6d45eeea434d0faa7fe51d2b92f05ff1c7fb3ca9f0b12a992074e6afe307",
      "blockHash": "0x649a5491d14fd383fb93bfbb6e77ce8179a1f6f0358ff750d93bc0f21de0e378",
      "blockNumber": 74262,
      "transactionIndex": 2,
      "confirmations": null,
      "from": "0xe6A7a1d47ff21B6321162AEA7C6CB457D5476Bca",
      "gasPrice": {
        "_hex": "0xd9d878ad7"
      },
      "gasLimit": {
        "_hex": "0x55f0"
      },
      "to": "0x0d62E666D681E8Be96903Ac4aBD3537f28c6125A",
      "value": {
        "_hex": "0x84810378958ce198"
      },
      "nonce": 868,
      "data": "0x",
      "r": "0x28112b18b0e85fed94fd3db00bc41da304c4b236c1aa74fb134648c71f0a2ffc",
      "s": "0x7008b393a02ac5d564b6cd4c7f2954d9b9cefab3658caa5b76ee3aa5dbf11999",
      "v": 27,
      "creates": null,
      "raw": "0xf86e820364850d9d878ad78255f0940d62e666d681e8be96903ac4abd3537f28c6125a8884810378958ce198801ba028112b18b0e85fed94fd3db00bc41da304c4b236c1aa74fb134648c71f0a2ffca07008b393a02ac5d564b6cd4c7f2954d9b9cefab3658caa5b76ee3aa5dbf11999",
      "networkId": 0,
      "chainId": 0
    },
    {
      "hash": "0xbc9c8c480458b8e8a14a9e5c1eae7e62b43eac7223b46a70243d2260ca0b8bdc",
      "blockHash": "0x649a5491d14fd383fb93bfbb6e77ce8179a1f6f0358ff750d93bc0f21de0e378",
      "blockNumber": 74262,
      "transactionIndex": 3,
      "confirmations": null,
      "from": "0xe6A7a1d47ff21B6321162AEA7C6CB457D5476Bca",
      "gasPrice": {
        "_hex": "0xd9d878ad7"
      },
      "gasLimit": {
        "_hex": "0x55f0"
      },
      "to": "0xacc8dECDFDCbed202B8632947c60487494F5D2c7",
      "value": {
        "_hex": "0x85d13f8d0e6a03b0"
      },
      "nonce": 869,
      "data": "0x",
      "r": "0x9d8b0db38664fb7e74bdc32df4297a3e75c3ef62bf1a12587d2f02b2859d6b6b",
      "s": "0x3a547a0516bd014a89a78030bfb75722896c273659abb99ffcaa8bb0040c3252",
      "v": 28,
      "creates": null,
      "raw": "0xf86e820365850d9d878ad78255f094acc8decdfdcbed202b8632947c60487494f5d2c78885d13f8d0e6a03b0801ca09d8b0db38664fb7e74bdc32df4297a3e75c3ef62bf1a12587d2f02b2859d6b6ba03a547a0516bd014a89a78030bfb75722896c273659abb99ffcaa8bb0040c3252",
      "networkId": 0,
      "chainId": 0
    }
  ]
}