{
  "hash": "0x0fbc7784b37c4f557d9a65c8b698c00b03545d5493b6e2c604df8eb9240fc888",
  "parentHash": "0xd550cb2acd8431d731450151b94e252fd19c2583b34c191d318aa96414577846",
  "number": 106261,
  "timestamp": 1439901312,
  "nonce": "0xb229b080415f0c1e",
  "difficulty": 4472838145078,
  "gasLimit": {
    "_hex": "0x2fefd8"
  },
  "gasUsed": {
    "_hex": "0x5208"
  },
  "miner": "0x623d2411c3bb3340784155F9a688b0085251aB5c",
  "extraData": "0x",
  "transactions": [
    {
      "hash": "0x8ef314d17e6547be794485e853148348df0b4596a1fbabf65d758426c9e5d2cf",
      "blockHash": "0x0fbc7784b37c4f557d9a65c8b698c00b03545d5493b6e2c604df8eb9240fc888",
      "blockNumber": 106261,
      "transactionIndex": 0,
      "confirmations": null,
      "from": "0x0cA19A53a3256482A89770FC1daFC7630717F201",
      "gasPrice": {
        "_hex": "0xcf3e1dea6"
      },
      "gasLimit": {
        "_hex": "0x5208"
      },
      "to": "0x32Be343B94f860124dC4fEe278FDCBD38C102D88",
      "value": {
        "_hex": "0x1a75e89b13246400"
      },
      "nonce": 5,
      "data": "0x",
      "r": "0xf7fe51f9f65afc21ed05ced64ad4159de16bd3d174697d75f04a50c2b7913efb",
      "s": "0x4d874ae65f2ded5e80eb332b5caf6e0e263f22787c89dea7fa45fc46fa5dc9bc",
      "v": 28,
      "creates": null,
      "raw": "0xf86c05850cf3e1dea68252089432be343b94f860124dc4fee278fdcbd38c102d88881a75e89b13246400801ca0f7fe51f9f65afc21ed05ced64ad4159de16bd3d174697d75f04a50c2b7913efba04d874ae65f2ded5e80eb332b5caf6e0e263f22787c89dea7fa45fc46fa5dc9bc",
      "networkId": 0,
      "chainId": 0
    }
  ]
}