{
  "hash": "0x61e3c9c7ab2c1c641ae9f3633ad19adb67b4ec6a1a85dac34c6f0967bb591613",
  "parentHash": "0x40d05d24387e844cbb1c6a85071e7b8ec938556a9003885efacc50522546c991",
  "number": 61771,
  "timestamp": 1439177956,
  "nonce": "0xa6bfeca1d08b062a",
  "difficulty": 1728531143290,
  "gasLimit": {
    "_hex": "0x2fefd8"
  },
  "gasUsed": {
    "_hex": "0x5208"
  },
  "miner": "0xE13f83e0288E460362D9E7421f0601fB88C4fd91",
  "extraData": "0x476574682f76312e302e312f6c696e75782f676f312e342e32",
  "transactions": [
    {
      "hash": "0xe24be61ad9482be3a5edd1d94b186d43de85ceadb657f1181eb7c6a2e2fd4c89",
      "blockHash": "0x61e3c9c7ab2c1c641ae9f3633ad19adb67b4ec6a1a85dac34c6f0967bb591613",
      "blockNumber": 61771,
      "transactionIndex": 0,
      "confirmations": null,
      "from": "0x1308A2e95c0160B90803ddCA9B9a5bb55E416d79",
      "gasPrice": {
        "_hex": "0xe8d4a51000"
      },
      "gasLimit": {
        "_hex": "0x15f90"
      },
      "to": "0x368f2e5E996cFB8be1013F1beFD38cdF628cA6F6",
      "value": {
        "_hex": "0xb114a06505fc000"
      },
      "nonce": 105,
      "data": "0x",
      "r": "0xd9a66768b6a763d17ca7ff51095bae5a91dbb80a1de14720ca59792a1026dcb6",
      "s": "0x2c20337ba9d92c35e06bdbade2aeafee728ee5b3ff10a6278cd8e464dd904160",
      "v": 27,
      "creates": null,
      "raw": "0xf86d6985e8d4a5100083015f9094368f2e5e996cfb8be1013f1befd38cdf628ca6f6880b114a06505fc000801ba0d9a66768b6a763d17ca7ff51095bae5a91dbb80a1de14720ca59792a1026dcb6a02c20337ba9d92c35e06bdbade2aeafee728ee5b3ff10a6278cd8e464dd904160",
      "networkId": 0,
      "chainId": 0
    }
  ]
}