{
  "hash": "0x01c5d2b7b1154bcbdb13c143b59f3a5d0293c76747519ffcc7505a2b74362439",
  "parentHash": "0xc9c63eec87acebce1f95c12dc6a37a19bcff667d4fb0293ebec871eaded8b75d",
  "number": 116343,
  "timestamp": 1440072582,
  "nonce": "0x8c12a173695bf725",
  "difficulty": 4600284493755,
  "gasLimit": {
    "_hex": "0x2fefd8"
  },
  "gasUsed": {
    "_hex": "0x5208"
  },
  "miner": "0x007f7f58D3eb5b7510A301eCC749FC1fCDDBE14D",
  "extraData": "0x476574682f76312e302e312f77696e646f77732f676f312e342e32",
  "transactions": [
    {
      "hash": "0xaef1ed4d9a13db295fbc2955776729e791f2da35f6d2e41406becc493a3b83b8",
      "blockHash": "0x01c5d2b7b1154bcbdb13c143b59f3a5d0293c76747519ffcc7505a2b74362439",
      "blockNumber": 116343,
      "transactionIndex": 0,
      "confirmations": null,
      "from": "0x40B9b889A21Ff1534d018D71Dc406122EBcf3F5A",
      "gasPrice": {
        "_hex": "0x108268e24db"
      },
      "gasLimit": {
        "_hex": "0x15f90"
      },
      "to": "0x645B979F8ce622236DB26feB803455d40C328615",
      "value": {
        "_hex": "0x3635c9adc5dea00000"
      },
      "nonce": 61,
      "data": "0x",
      "r": "0x271fd4083bfa7d216cfee48b5a27f9345b2f22e0edd1e4a93aa12f73c64a3a8a",
      "s": "0x1fa3de697acd4cd64e5c1dd850def2e2307bcb7047307a9bfc106e7dd9f4b119",
      "v": 27,
      "creates": null,
      "raw": "0xf86f3d860108268e24db83015f9094645b979f8ce622236db26feb803455d40c328615893635c9adc5dea00000801ba0271fd4083bfa7d216cfee48b5a27f9345b2f22e0edd1e4a93aa12f73c64a3a8aa01fa3de697acd4cd64e5c1dd850def2e2307bcb7047307a9bfc106e7dd9f4b119",
      "networkId": 0,
      "chainId": 0
    }
  ]
}