{
  "hash": "0x8d3479e780ed55dc6dbfa6f925c5a2555373ca69aec96e3d85d53ca625fd2375",
  "parentHash": "0xdbb71ad7e25229ae58e2f0414cb976c7d1b6a2f0e2e84e2853cbc250b820d114",
  "number": 94121,
  "timestamp": 1439703023,
  "nonce": "0x4352501dd597aafb",
  "difficulty": 3474894329441,
  "gasLimit": {
    "_hex": "0x2fefd8"
  },
  "gasUsed": {
    "_hex": "0x5208"
  },
  "miner": "0xf927a40C8B7F6E07c5af7FA2155B4864a4112B13",
  "extraData": "0x",
  "transactions": [
    {
      "hash": "0xc18118350d59e5635df82c9ef660a8b5da6cd03496e1952f74235a077ae3041d",
      "blockHash": "0x8d3479e780ed55dc6dbfa6f925c5a2555373ca69aec96e3d85d53ca625fd2375",
      "blockNumber": 94121,
      "transactionIndex": 0,
      "confirmations": null,
      "from": "0x5F28bcc5faFC8982536A9e4be559657998CdE1E3",
      "gasPrice": {
        "_hex": "0xba43b7400"
      },
      "gasLimit": {
        "_hex": "0x5208"
      },
      "to": "0xC47Aaa860008be6f65B58c6C6E02a84e666EfE31",
      "value": {
        "_hex": "0x3c238fa37a02e10f0"
      },
      "nonce": 15,
      "data": "0x",
      "r": "0xbc53616b45614a206566eb25b3fe6db162b56c141232125fbd3adcf2ad8c4ede",
      "s": "0x16d0058600714d950253a7352e722f2b7dc78924f4206a50319cc0c626431dc6",
      "v": 27,
      "creates": null,
      "raw": "0xf86d0f850ba43b740082520894c47aaa860008be6f65b58c6c6e02a84e666efe318903c238fa37a02e10f0801ba0bc53616b45614a206566eb25b3fe6db162b56c141232125fbd3adcf2ad8c4edea016d0058600714d950253a7352e722f2b7dc78924f4206a50319cc0c626431dc6",
      "networkId": 0,
      "chainId": 0
    }
  ]
}