{
  "hash": "0x981bc3f7e7262dc93590938b30517bc2d36d29d2a73361afd6d4eec562ea8752",
  "parentHash": "0x8c47b4a8997de53fb2eec481694b3e3d9cbcc283c612f818c696bef226add19b",
  "number": 110291,
  "timestamp": 1439971209,
  "nonce": "0x3b53e9b384686e23",
  "difficulty": 4362863731938,
  "gasLimit": {
    "_hex": "0x2fefd8"
  },
  "gasUsed": {
    "_hex": "0x14820"
  },
  "miner": "0x0eDEd3DA479d0beF8eeC92A76644D3f4E3C177f7",
  "extraData": "0x476574682f76312e302e312f6c696e75782f676f312e342e32",
  "transactions": [
    {
      "hash": "0xd5d5ebb09ea33a6aeb13bc4c9f2ad2f01e6b71db963a69d304152089554f4907",
      "blockHash": "0x981bc3f7e7262dc93590938b30517bc2d36d29d2a73361afd6d4eec562ea8752",
      "blockNumber": 110291,
      "transactionIndex": 0,
      "confirmations": null,
      "from": "0xBf520BE04Aa6a36a99897062Ca9c440CF4112780",
      "gasPrice": {
        "_hex": "0xdb5cb243a"
      },
      "gasLimit": {
        "_hex": "0x5208"
      },
      "to": "0x32Be343B94f860124dC4fEe278FDCBD38C102D88",
      "value": {
        "_hex": "0x821a6a89a5cf50000"
      },
      "nonce": 2,
      "data": "0x",
      "r": "0xa0fdc40a31787fcf0d19f71d38ce78e7e3b8d5b3e2376d87ca45516d2d7732ac",
      "s": "0x4ef1005e2d1adf1d7746caad0b6efe373a5e3e5193ab56963d4ecd2252030113",
      "v": 27,
      "creates": null,
      "raw": "0xf86d02850db5cb243a8252089432be343b94f860124dc4fee278fdcbd38c102d88890821a6a89a5cf50000801ba0a0fdc40a31787fcf0d19f71d38ce78e7e3b8d5b3e2376d87ca45516d2d7732aca04ef1005e2d1adf1d7746caad0b6efe373a5e3e5193ab56963d4ecd2252030113",
      "networkId": 0,
      "chainId": 0
    },
    {
      "hash": "0x477c079e91fa6fac0bbf1547caf7aee97525c487955a44d69fb221e731a109da",
      "blockHash": "0x981bc3f7e7262dc93590938b30517bc2d36d29d2a73361afd6d4eec562ea8752",
      "blockNumber": 110291,
      "transactionIndex": 1,
      "confirmations": null,
      "from": "0xb1abce2918E21ddb93AA452731a12672A3d9F75a",
      "gasPrice": {
        "_hex": "0xdb5cb243a"
      },
      "gasLimit": {
        "_hex": "0x5208"
      },
      "to": "0x32Be343B94f860124dC4fEe278FDCBD38C102D88",
      "value": {
        "_hex": "0x455f2cd88d511800"
      },
      "nonce": 161,
      "data": "0x",
      "r": "0xf8fca2ab6331147cf8ebb0551afd0f53a74fd0a0a96f52fa4e373d8829830962",
      "s": "0x658476095866f6520c76ac6c1df7de72bf8d3a79791fdd9d8b6bfbc7fb376dc0",
      "v": 28,
      "creates": null,
      "raw": "0xf86d81a1850db5cb243a8252089432be343b94f860124dc4fee278fdcbd38c102d8888455f2cd88d511800801ca0f8fca2ab6331147cf8ebb0551afd0f53a74fd0a0a96f52fa4e373d8829830962a0658476095866f6520c76ac6c1df7de72bf8d3a79791fdd9d8b6bfbc7fb376dc0",
      "networkId": 0,
      "chainId": 0
    },
    {
      "hash": "0x2df9e20495976a6deacaf61d523b1ebc4ed12d691505b003d8ef4965515ce607",
      "blockHash": "0x981bc3f7e7262dc93590938b30517bc2d36d29d2a73361afd6d4eec562ea8752",
      "blockNumber": 110291,
      "transactionIndex": 2,
      "confirmations": null,
      "from": "0x82193bAE5d72543f91E60451Ac3e582B03394B70",
      "gasPrice": {
        "_hex": "0xd7eb39f7f"
      },
      "gasLimit": {
        "_hex": "0x5208"
      },
      "to": "0x07BC2CC8eeDC01970700efC9c4Fb36735e98CD71",
      "value": {
        "_hex": "0x470de4df820000"
      },
      "nonce": 0,
      "data": "0x",
      "r": "0x02c2ddd87ee242c579ac19758f7b2182c9d8d4db838da57a4610d98e33812011",
      "s": "0x0ce650fc6fa9a03011dc9924af43a5bb0974b2c4564fa4851e767ce9bba55c5e",
      "v": 27,
      "creates": null,
      "raw": "0xf86b80850d7eb39f7f8252089407bc2cc8eedc01970700efc9c4fb36735e98cd7187470de4df820000801ba002c2ddd87ee242c579ac19758f7b2182c9d8d4db838da57a4610d98e33812011a00ce650fc6fa9a03011dc9924af43a5bb0974b2c4564fa4851e767ce9bba55c5e",
      "networkId": 0,
      "chainId": 0
    },
    {
      "hash": "0x20e7c4ca85b591110c59f64e2e57c8579ee74d54cdbc07d9bc19c4a7aca4bef2",
      "blockHash": "0x981bc3f7e7262dc93590938b30517bc2d36d29d2a73361afd6d4eec562ea8752",
      "blockNumber": 110291,
      "transactionIndex": 3,
      "confirmations": null,
      "from": "0x2d2B032359b363964FC11a518263bFD05431e867",
      "gasPrice": {
        "_hex": "0xcb3aa54b9"
      },
      "gasLimit": {
        "_hex": "0x5208"
      },
      "to": "0xC1aF7cD316C1A99d40Dd7208172fD88dD0280a4d",
      "value": {
        "_hex": "0x81c19e57071fa1838"
      },
      "nonce": 0,
      "data": "0x",
      "r": "0x834d09c38af0da78803711e5594ccf602179e95f45fba7e5c9c2591a366af47b",
      "s": "0x04dc4b4b9f8f67bb94f67afbbbd9b89ba9df4fc144a6fe28d63349a586029e57",
      "v": 28,
      "creates": null,
      "raw": "0xf86d80850cb3aa54b982520894c1af7cd316c1a99d40dd7208172fd88dd0280a4d89081c19e57071fa1838801ca0834d09c38af0da78803711e5594ccf602179e95f45fba7e5c9c2591a366af47ba004dc4b4b9f8f67bb94f67afbbbd9b89ba9df4fc144a6fe28d63349a586029e57",
      "networkId": 0,
      "chainId": 0
    }
  ]
}