{
  "hash": "0x9a4ace5a00454a3203f05ab2970cdbf279ad5584814a87c9777f7cc9df673f12",
  "parentHash": "0xc37c106e7ab745837dc449e9740175422f90a775c0c8fcf8abd6a56e3adb81c3",
  "number": 105073,
  "timestamp": 1439881234,
  "nonce": "0xda7052e6df2aca83",
  "difficulty": 4297896400885,
  "gasLimit": {
    "_hex": "0x2fefd8"
  },
  "gasUsed": {
    "_hex": "0x520c"
  },
  "miner": "0xA21Ba94e45f0E168dA824fC67aC9cb5Cb577a8aF",
  "extraData": "0x",
  "transactions": [
    {
      "hash": "0x985eabe78ee04b0c05bb82718b80a963bd4f08086512c97cf141e969a1c35294",
      "blockHash": "0x9a4ace5a00454a3203f05ab2970cdbf279ad5584814a87c9777f7cc9df673f12",
      "blockNumber": 105073,
      "transactionIndex": 0,
      "confirmations": null,
      "from": "0xb9836ec1f42Bd48331bceaedb74a6Bcdc22832bD",
      "gasPrice": {
        "_hex": "0xd063a568b"
      },
      "gasLimit": {
        "_hex": "0x7530"
      },
      "to": "0x7cB57B5A97eAbe94205C07890BE4c1aD31E486A8",
      "value": {
        "_hex": "0x38d7ea4c68000"
      },
      "nonce": 2,
      "data": "0x00",
      "r": "0x3868c04952e3a27a0b9d2441d48867ec2f9bfac74f49ec13b140d70a982d94a4",
      "s": "0xab80f9327b61f87c7a959774aa1a4680a544af7b2bf0d5f9e9258cca8e9ef4e6",
      "v": 28,
      "creates": null,
      "raw": "0xf86b02850d063a568b827530947cb57b5a97eabe94205c07890be4c1ad31e486a887038d7ea4c68000001ca03868c04952e3a27a0b9d2441d48867ec2f9bfac74f49ec13b140d70a982d94a4a0ab80f9327b61f87c7a959774aa1a4680a544af7b2bf0d5f9e9258cca8e9ef4e6",
      "networkId": 0,
      "chainId": 0
    }
  ]
}