{
  "hash": "0xb303d65f53d3e274e35cf3a22e1d1c9afee71cf764d86147b2edad11068f22cb",
  "parentHash": "0x67d0385f7be3f14eaf2809f9af7c59f72eee6d5a1a24e7541f0ab87b12c22009",
  "number": 47929,
  "timestamp": 1438948480,
  "nonce": "0x8056a8dee4e7a166",
  "difficulty": 1463679293411,
  "gasLimit": {
    "_hex": "0x1089a"
  },
  "gasUsed": {
    "_hex": "0x546c"
  },
  "miner": "0xEc98b7A32A91F21203E7DB60feABDA1eDD7ef5bb",
  "extraData": "0x476574682f76312e302e312f6c696e75782f676f312e342e32",
  "transactions": [
    {
      "hash": "0x231c994233ad2e65f78520a445c2d7f1ebc7cde6b604c520b6ccae9a837a6556",
      "blockHash": "0xb303d65f53d3e274e35cf3a22e1d1c9afee71cf764d86147b2edad11068f22cb",
      "blockNumber": 47929,
      "transactionIndex": 0,
      "confirmations": null,
      "from": "0x378ea1dc8edc19BAe82638029eA8752ce98BcFCD",
      "gasPrice": {
        "_hex": "0x10d176b12b5"
      },
      "gasLimit": {
        "_hex": "0x7918"
      },
      "to": "0x2910543Af39abA0Cd09dBb2D50200b3E800A63D2",
      "value": {
        "_hex": "0x1b1ae4d6e2ef500000"
      },
      "nonce": 5,
      "data": "0x454e3543484a4a3738",
      "r": "0x878215b4883328e3734de8790475b6b80f7b5861fc3ee274e77061cc482b326c",
      "s": "0x0459a0de957dc93995584a4b319ab59dba3411c8dc06bfaa52b26b6b40e00728",
      "v": 28,
      "creates": null,
      "raw": "0xf8770586010d176b12b5827918942910543af39aba0cd09dbb2d50200b3e800a63d2891b1ae4d6e2ef50000089454e3543484a4a37381ca0878215b4883328e3734de8790475b6b80f7b5861fc3ee274e77061cc482b326ca00459a0de957dc93995584a4b319ab59dba3411c8dc06bfaa52b26b6b40e00728",
      "networkId": 0,
      "chainId": 0
    }
  ]
}