{
  "hash": "0x6da4927e0254143be303da7384614ed4191192ad8ce66795885203f1129e36ec",
  "parentHash": "0x28409b883a7d78148d54ed29dba189ebfe48dd2bc9f99f726ba69c3db1f13422",
  "number": 89922,
  "timestamp": 1439631213,
  "nonce": "0x11a8bf2877660003",
  "difficulty": 3341814240350,
  "gasLimit": {
    "_hex": "0x2fefd8"
  },
  "gasUsed": {
    "_hex": "0x5208"
  },
  "miner": "0xe6A7a1d47ff21B6321162AEA7C6CB457D5476Bca",
  "extraData": "0x476574682f76312e302e312d38326566323666362f6c696e75782f676f312e34",
  "transactions": [
    {
      "hash": "0xc2c3e10f837b4f43a0c0419ae9306ce0f7882879736f113bc03559dfc1602a40",
      "blockHash": "0x6da4927e0254143be303da7384614ed4191192ad8ce66795885203f1129e36ec",
      "blockNumber": 89922,
      "transactionIndex": 0,
      "confirmations": null,
      "from": "0x08FE5A3C0709cF74d76cFd0e0Cd9d2A447eA263C",
      "gasPrice": {
        "_hex": "0xcd4f331cd"
      },
      "gasLimit": {
        "_hex": "0x5208"
      },
      "to": "0x32Be343B94f860124dC4fEe278FDCBD38C102D88",
      "value": {
        "_hex": "0x104030b9c21b97000"
      },
      "nonce": 4,
      "data": "0x",
      "r": "0xc647cdfdfd81acb12cace4355c29488ee6aa4ab32866d1a674c0886aa3b4a848",
      "s": "0x04206d32d63a2eee0b9aa843bc330ab7f8feee8298aa2d0ebb076ad4f24d0fb2",
      "v": 27,
      "creates": null,
      "raw": "0xf86d04850cd4f331cd8252089432be343b94f860124dc4fee278fdcbd38c102d88890104030b9c21b97000801ba0c647cdfdfd81acb12cace4355c29488ee6aa4ab32866d1a674c0886aa3b4a848a004206d32d63a2eee0b9aa843bc330ab7f8feee8298aa2d0ebb076ad4f24d0fb2",
      "networkId": 0,
      "chainId": 0
    }
  ]
}