{
  "hash": "0x38da5ca6cc4b93a986c24a0df31dc333d63d10de5500155ce572b8ac98855ba1",
  "parentHash": "0x67f6d29f633a8e307842b1133899b410103174ad8f1316df79aa46aede4145f9",
  "number": 114523,
  "timestamp": 1440041880,
  "nonce": "0xef61805f06eba86d",
  "difficulty": 4494694077138,
  "gasLimit": {
    "_hex": "0x2fefd8"
  },
  "gasUsed": {
    "_hex": "0x5208"
  },
  "miner": "0xe6A7a1d47ff21B6321162AEA7C6CB457D5476Bca",
  "extraData": "0x476574682f76312e302e312d38326566323666362f6c696e75782f676f312e34",
  "transactions": [
    {
      "hash": "0x44485cac5c02c4f9b49facfdf286dce68b40d3c81c88e0e377ea70ade1375683",
      "blockHash": "0x38da5ca6cc4b93a986c24a0df31dc333d63d10de5500155ce572b8ac98855ba1",
      "blockNumber": 114523,
      "transactionIndex": 0,
      "confirmations": null,
      "from": "0x32Be343B94f860124dC4fEe278FDCBD38C102D88",
      "gasPrice": {
        "_hex": "0xcb03f924b"
      },
      "gasLimit": {
        "_hex": "0x5208"
      },
      "to": "0x02020D22dCF88f5eDd66B382D7da019F161fB7e3",
      "value": {
        "_hex": "0x1b0ce0993f2c370000"
      },
      "nonce": 1396,
      "data": "0x",
      "r": "0xdfcddb22f61e64ec85239bd81650d15f5565e7bf739ba639cd1f1b21b8396a6e",
      "s": "0x6fe5c68e44d0da4a8b23296bee41530e8bdb6247d1dd3b94f7055913b1f685b0",
      "v": 28,
      "creates": null,
      "raw": "0xf86f820574850cb03f924b8252089402020d22dcf88f5edd66b382d7da019f161fb7e3891b0ce0993f2c370000801ca0dfcddb22f61e64ec85239bd81650d15f5565e7bf739ba639cd1f1b21b8396a6ea06fe5c68e44d0da4a8b23296bee41530e8bdb6247d1dd3b94f7055913b1f685b0",
      "networkId": 0,
      "chainId": 0
    }
  ]
}