{
  "hash": "0x7f2d0f6fdeccd6ce8f0ad6390e1cf7ba64f5b5204a6597081df61583bd583621",
  "parentHash": "0x8c2e5e9ad76157b7d1853521fc33ce24bc2eda979d4d3ac3698f87fd8f3f4efb",
  "number": 105434,
  "timestamp": 1439887520,
  "nonce": "0x4a75054c6c7542a1",
  "difficulty": 4384616620224,
  "gasLimit": {
    "_hex": "0x2fefd8"
  },
  "gasUsed": {
    "_hex": "0x20fc6"
  },
  "miner": "0x790b8a3cE86E707ED0eD32bF89B3269692a23CC1",
  "extraData": "0xd783010001844765746887676f312e342e32856c696e7578",
  "transactions": [
    {
      "hash": "0x0c1d27e484fd01b9364101c70a7ceef2521ca6517d97c78db19f9f7b3083f357",
      "blockHash": "0x7f2d0f6fdeccd6ce8f0ad6390e1cf7ba64f5b5204a6597081df61583bd583621",
      "blockNumber": 105434,
      "transactionIndex": 0,
      "confirmations": null,
      "from": "0x480fC9313233A9a1896eDd5109FccA26b79dB731",
      "gasPrice": {
        "_hex": "0xd9c19fb62"
      },
      "gasLimit": {
        "_hex": "0x5208"
      },
      "to": "0x32Be343B94f860124dC4fEe278FDCBD38C102D88",
      "value": {
        "_hex": "0x1f5e07ccfdd6c00"
      },
      "nonce": 2,
      "data": "0x",
      "r": "0x75eab135bd8ad6e1a942f5587b4c327170384115d6ce8ff0c75189844d4de360",
      "s": "0x53ed73eaf251f903db142b0c9f5e3ac17f3fdc35d728556ee76975d2103f0f76",
      "v": 28,
      "creates": null,
      "raw": "0xf86c02850d9c19fb628252089432be343b94f860124dc4fee278fdcbd38c102d888801f5e07ccfdd6c00801ca075eab135bd8ad6e1a942f5587b4c327170384115d6ce8ff0c75189844d4de360a053ed73eaf251f903db142b0c9f5e3ac17f3fdc35d728556ee76975d2103f0f76",
      "networkId": 0,
      "chainId": 0
    },
    {
      "hash": "0xe71d410665076999b1c42cf24bdfb0de8b101ded76568eb8bb7fbc16201d9af4",
      "blockHash": "0x7f2d0f6fdeccd6ce8f0ad6390e1cf7ba64f5b5204a6597081df61583bd583621",
      "blockNumber": 105434,
      "transactionIndex": 1,
      "confirmations": null,
      "from": "0x4970d3Acf72b5B1F32A7003cF102c64EE0547941",
      "gasPrice": {
        "_hex": "0xd641f460d"
      },
      "gasLimit": {
        "_hex": "0x249f0"
      },
      "to": "0xE28e72FCf78647ADCe1F1252F240bbfaebD63BcC",
      "value": {
        "_hex": "0x4563918244f40000"
      },
      "nonce": 3,
      "data": "0x45466f3a",
      "r": "0x50181e449c36fac2574299a82720a9405e505684b49447e866b637fad2a4f082",
      "s": "0x0d77e4f8680f1edad79a3f11c71581a51306713c14095f8352fcd036c72d1638",
      "v": 27,
      "creates": null,
      "raw": "0xf87103850d641f460d830249f094e28e72fcf78647adce1f1252f240bbfaebd63bcc884563918244f400008445466f3a1ba050181e449c36fac2574299a82720a9405e505684b49447e866b637fad2a4f082a00d77e4f8680f1edad79a3f11c71581a51306713c14095f8352fcd036c72d1638",
      "networkId": 0,
      "chainId": 0
    }
  ]
}