{
  "hash": "0x2404b7bfe47076303b1562317ace9c1f521db247867cbae0a43f40e79000f963",
  "parentHash": "0xd5b08db4ffd01a0c6abf7c1ee1a6b9f425d51e4d93715ce7d68d3e2a9966e548",
  "number": 103941,
  "timestamp": 1439861357,
  "nonce": "0x377b1c72530592c0",
  "difficulty": 4269192506423,
  "gasLimit": {
    "_hex": "0x2fefd8"
  },
  "gasUsed": {
    "_hex": "0x5208"
  },
  "miner": "0xf927a40C8B7F6E07c5af7FA2155B4864a4112B13",
  "extraData": "0x",
  "transactions": [
    {
      "hash": "0x22b646901ba83502d2028432f403cd177eea534a9401b929e0e396a6b120b736",
      "blockHash": "0x2404b7bfe47076303b1562317ace9c1f521db247867cbae0a43f40e79000f963",
      "blockNumber": 103941,
      "transactionIndex": 0,
      "confirmations": null,
      "from": "0x3f6da2f18Ce077B065ac7bcae884bF439a222B35",
      "gasPrice": {
        "_hex": "0xdfbc1587c"
      },
      "gasLimit": {
        "_hex": "0x5208"
      },
      "to": "0xFBb1b73C4f0BDa4f67dcA266ce6Ef42f520fBB98",
      "value": {
        "_hex": "0xdb8b4ad6b408420"
      },
      "nonce": 0,
      "data": "0x",
      "r": "0xd7de7c269483fb8c4776557667aaa3e7ded86acaf7cf991b472c19f2ad84f75d",
      "s": "0x1e653890581d36e44db7645b88de4acd8d28775d6f1f202f2e487709261e1deb",
      "v": 28,
      "creates": null,
      "raw": "0xf86c80850dfbc1587c82520894fbb1b73c4f0bda4f67dca266ce6ef42f520fbb98880db8b4ad6b408420801ca0d7de7c269483fb8c4776557667aaa3e7ded86acaf7cf991b472c19f2ad84f75da01e653890581d36e44db7645b88de4acd8d28775d6f1f202f2e487709261e1deb",
      "networkId": 0,
      "chainId": 0
    }
  ]
}