{
  "hash": "0x485245bbf5640f0cf6be41fcdc260a49ad55ce42dab6f760237f82896645689a",
  "parentHash": "0xf73e3e0af4b1d491be9b76316baf222f4ebbaeebf049e706ebcbf754f879c20c",
  "number": 121304,
  "timestamp": 1440174926,
  "nonce": "0x51ad296690e76ffe",
  "difficulty": 4414962780296,
  "gasLimit": {
    "_hex": "0x2fefd8"
  },
  "gasUsed": {
    "_hex": "0x5208"
  },
  "miner": "0x52bc44d5378309EE2abF1539BF71dE1b7d7bE3b5",
  "extraData": "0xd783010002844765746887676f312e342e32856c696e7578",
  "transactions": [
    {
      "hash": "0xa5932f3d854918cdede7dc940306c26925abc015c09732dcf64f4e2408a7ef66",
      "blockHash": "0x485245bbf5640f0cf6be41fcdc260a49ad55ce42dab6f760237f82896645689a",
      "blockNumber": 121304,
      "transactionIndex": 0,
      "confirmations": null,
      "from": "0x8BeF58cf6D5f4fdE02e940a20D56b052F89Cf42f",
      "gasPrice": {
        "_hex": "0x9184e72a000"
      },
      "gasLimit": {
        "_hex": "0x985f6"
      },
      "to": "0xFAe95941f26f565646Cc5bF443AfFDe60868f17e",
      "value": {
        "_hex": "0x30ca024f987b900000"
      },
      "nonce": 6,
      "data": "0x",
      "r": "0xfbfb15991b54302feedff36d9bb45d0ed016cbf68d31f17a2ca17847a39a80ec",
      "s": "0x3687c1b2448c5343090ad11b3e90c695ab2f48f5bae99b99f75bd747e7a5289a",
      "v": 28,
      "creates": null,
      "raw": "0xf86f068609184e72a000830985f694fae95941f26f565646cc5bf443affde60868f17e8930ca024f987b900000801ca0fbfb15991b54302feedff36d9bb45d0ed016cbf68d31f17a2ca17847a39a80eca03687c1b2448c5343090ad11b3e90c695ab2f48f5bae99b99f75bd747e7a5289a",
      "networkId": 0,
      "chainId": 0
    }
  ]
}