{
  "hash": "0x1173759661e0c823541f656e6ff29ab5daab1f0d2f256903c729827386912817",
  "parentHash": "0x935b2bec3b3b0c7ec92cbe4d5d4931a9f6329b6cc1e88f2d2c8753153fdf2904",
  "number": 58551,
  "timestamp": 1439122717,
  "nonce": "0xc4da10b6e32f403d",
  "difficulty": 1709049043276,
  "gasLimit": {
    "_hex": "0x2fefd8"
  },
  "gasUsed": {
    "_hex": "0xddfd"
  },
  "miner": "0xf927a40C8B7F6E07c5af7FA2155B4864a4112B13",
  "extraData": "0x476574682f76312e302e312f6c696e75782f676f312e342e32",
  "transactions": [
    {
      "hash": "0xdf6027a946b81ae98c9dad8e9c82e61f7ccf9abb8181703502ade343b5762809",
      "blockHash": "0x1173759661e0c823541f656e6ff29ab5daab1f0d2f256903c729827386912817",
      "blockNumber": 58551,
      "transactionIndex": 0,
      "confirmations": null,
      "from": "0x378ea1dc8edc19BAe82638029eA8752ce98BcFCD",
      "gasPrice": {
        "_hex": "0x1095c46cc57"
      },
      "gasLimit": {
        "_hex": "0x7a120"
      },
      "to": "0xA327075af2a223A1C83a36aDa1126afE7430f955",
      "value": {
        "_hex": "0x8ac7230489e80000"
      },
      "nonce": 9,
      "data": "0x",
      "r": "0x5bba56c596c19eff583e6bff0b57aa21c388ade9ace0ca712d745c76bda25791",
      "s": "0x053513438cb47d4e180f8fa95bbba13363b6d12c8a9c7a82f7096faaf35014e7",
      "v": 27,
      "creates": null,
      "raw": "0xf86e098601095c46cc578307a12094a327075af2a223a1c83a36ada1126afe7430f955888ac7230489e80000801ba05bba56c596c19eff583e6bff0b57aa21c388ade9ace0ca712d745c76bda25791a0053513438cb47d4e180f8fa95bbba13363b6d12c8a9c7a82f7096faaf35014e7",
      "networkId": 0,
      "chainId": 0
    }
  ]
}