{
  "hash": "0x0577439fba9dafc52774ea8147f914f04c04fcce9a8d9f4081491ad386894b06",
  "parentHash": "0x70ac2f6cf75660c1922fbd2988f22578e3827947a6f16e242d2dbaef58ef558e",
  "number": 100702,
  "timestamp": 1439810904,
  "nonce": "0x0ed4104155c138c8",
  "difficulty": 3833969367657,
  "gasLimit": {
    "_hex": "0x2fefd8"
  },
  "gasUsed": {
    "_hex": "0x5208"
  },
  "miner": "0xe6A7a1d47ff21B6321162AEA7C6CB457D5476Bca",
  "extraData": "0x476574682f76312e302e312d38326566323666362f6c696e75782f676f312e34",
  "transactions": [
    {
      "hash": "0x1eb7793a6f923d7f7cc927af057b68fa2a5fe5ab02684778f18f4b1770bdd1b5",
      "blockHash": "0x0577439fba9dafc52774ea8147f914f04c04fcce9a8d9f4081491ad386894b06",
      "blockNumber": 100702,
      "transactionIndex": 0,
      "confirmations": null,
      "from": "0xDDb0c5f658658b0108132014D21bF17ad643D3D9",
      "gasPrice": {
        "_hex": "0xd51507a11"
      },
      "gasLimit": {
        "_hex": "0x5208"
      },
      "to": "0xFBb1b73C4f0BDa4f67dcA266ce6Ef42f520fBB98",
      "value": {
        "_hex": "0xddc723d55c6bd78"
      },
      "nonce": 0,
      "data": "0x",
      "r": "0x4a6191555faac81284692361442055bfdc883b6b06819c0d834a0bf993058231",
      "s": "0x1d6867cfb9a961950b58eb752ad60c130c8bb17fb17d4dff2c6c818590ab0fe6",
      "v": 27,
      "creates": null,
      "raw": "0xf86c80850d51507a1182520894fbb1b73c4f0bda4f67dca266ce6ef42f520fbb98880ddc723d55c6bd78801ba04a6191555faac81284692361442055bfdc883b6b06819c0d834a0bf993058231a01d6867cfb9a961950b58eb752ad60c130c8bb17fb17d4dff2c6c818590ab0fe6",
      "networkId": 0,
      "chainId": 0
    }
  ]
}