{
  "hash": "0x86a566c81df223782aaf3c50a07e1517943a8b6af9f5274da659a2d05d0387cb",
  "parentHash": "0xcf395e55ce0a41dbfc04cf81c661673cc56d973f623df00cae7c88f2dddd7a00",
  "number": 87620,
  "timestamp": 1439595011,
  "nonce": "0x39109bcf35096438",
  "difficulty": 3158659205766,
  "gasLimit": {
    "_hex": "0x2fefd8"
  },
  "gasUsed": {
    "_hex": "0x5208"
  },
  "miner": "0xa70a9a7040d542C632D8e0bE7c5513A8a5Bbc752",
  "extraData": "0x",
  "transactions": [
    {
      "hash": "0x99fdc420a571c7b06685e0f17f2916d34d41d6bd3d7c0070db0b3323cd5e8a15",
      "blockHash": "0x86a566c81df223782aaf3c50a07e1517943a8b6af9f5274da659a2d05d0387cb",
      "blockNumber": 87620,
      "transactionIndex": 0,
      "confirmations": null,
      "from": "0x2910543Af39abA0Cd09dBb2D50200b3E800A63D2",
      "gasPrice": {
        "_hex": "0xcbd9212ba"
      },
      "gasLimit": {
        "_hex": "0x5208"
      },
      "to": "0xb6E6C3222B6b6f9bE2875D2a89f127fb64100Fe2",
      "value": {
        "_hex": "0xa2a14b45d863ff8000"
      },
      "nonce": 711,
      "data": "0x",
      "r": "0xe664f6537dfaf88bbdb86d0221e241fa9dcff4e5085f3c0d846bce68068814e6",
      "s": "0x0d4292a44dc12f7927fb32b018ea92545e6d2ff5aa619d618036b2b795a4fcb7",
      "v": 27,
      "creates": null,
      "raw": "0xf86f8202c7850cbd9212ba82520894b6e6c3222b6b6f9be2875d2a89f127fb64100fe289a2a14b45d863ff8000801ba0e664f6537dfaf88bbdb86d0221e241fa9dcff4e5085f3c0d846bce68068814e6a00d4292a44dc12f7927fb32b018ea92545e6d2ff5aa619d618036b2b795a4fcb7",
      "networkId": 0,
      "chainId": 0
    }
  ]
}