{
  "hash": "0xb7788c6da11c544d50b85a50aa32d05fe1d77351f1e52941c01864aaf6cd9e4a",
  "parentHash": "0x0a5e6c4da3373cd8231368ef17193777fdb2255aa66598a713771b7f40bc44a4",
  "number": 68522,
  "timestamp": 1439289441,
  "nonce": "0xf9a07fff6429d593",
  "difficulty": 2002540142940,
  "gasLimit": {
    "_hex": "0x2fefd8"
  },
  "gasUsed": {
    "_hex": "0x19a28"
  },
  "miner": "0x31995C46B15C84523cDEE26f49A681b8237e43F5",
  "extraData": "0x476574682f76312e302e312f77696e646f77732f676f312e342e32",
  "transactions": [
    {
      "hash": "0x9e4e2455c67ce511781d75aaa2dc8fd1808cf73a4620848020ecb2fcbd9aa68e",
      "blockHash": "0xb7788c6da11c544d50b85a50aa32d05fe1d77351f1e52941c01864aaf6cd9e4a",
      "blockNumber": 68522,
      "transactionIndex": 0,
      "confirmations": null,
      "from": "0xdf2852Fe991DCf5C090a32E39C3104A3637e73e8",
      "gasPrice": {
        "_hex": "0xba43b7400"
      },
      "gasLimit": {
        "_hex": "0x5208"
      },
      "to": "0xE58C2dCd1694f10737Df78d8f2d85Af64aDC62Ab",
      "value": {
        "_hex": "0xd8e5610f40e000"
      },
      "nonce": 1,
      "data": "0x",
      "r": "0x8ef046f3624a122df58ac41c79f4c7206fbda4b2f876eab599ef0789622c6bcd",
      "s": "0x354bfacd423410e321be936125f81b03235b32b09651a57424d1adcfe571d08b",
      "v": 28,
      "creates": null,
      "raw": "0xf86b01850ba43b740082520894e58c2dcd1694f10737df78d8f2d85af64adc62ab87d8e5610f40e000801ca08ef046f3624a122df58ac41c79f4c7206fbda4b2f876eab599ef0789622c6bcda0354bfacd423410e321be936125f81b03235b32b09651a57424d1adcfe571d08b",
      "networkId": 0,
      "chainId": 0
    },
    {
      "hash": "0xee1d1fc9eaf0ffe022cca40f318d424b533e930837a49d4283bb9cb3a510ce95",
      "blockHash": "0xb7788c6da11c544d50b85a50aa32d05fe1d77351f1e52941c01864aaf6cd9e4a",
      "blockNumber": 68522,
      "transactionIndex": 1,
      "confirmations": null,
      "from": "0xC98Caeaff3ec47259aBEF02ccF4d184e938ed8dA",
      "gasPrice": {
        "_hex": "0xba43b7400"
      },
      "gasLimit": {
        "_hex": "0x5208"
      },
      "to": "0x6903D5FeB1A77f078fE6E919AdA5094DD86e3bcA",
      "value": {
        "_hex": "0xd8e5610f40e000"
      },
      "nonce": 1,
      "data": "0x",
      "r": "0x82c2fc9106ebcf30777b300eb79816c8dbf03f318ea1862779537113f7068865",
      "s": "0x159d077a0b28cde77b42b8aefcf3110e8a37eafe3b4c43e11f3c26588afc2634",
      "v": 27,
      "creates": null,
      "raw": "0xf86b01850ba43b7400825208946903d5feb1a77f078fe6e919ada5094dd86e3bca87d8e5610f40e000801ba082c2fc9106ebcf30777b300eb79816c8dbf03f318ea1862779537113f7068865a0159d077a0b28cde77b42b8aefcf3110e8a37eafe3b4c43e11f3c26588afc2634",
      "networkId": 0,
      "chainId": 0
    },
    {
      "hash": "0xea2048c51eaa77448b81957dfec54c50bcb30f355c262250e0ab7a2e7ffc2258",
      "blockHash": "0xb7788c6da11c544d50b85a50aa32d05fe1d77351f1e52941c01864aaf6cd9e4a",
      "blockNumber": 68522,
      "transactionIndex": 2,
      "confirmations": null,
      "from": "0x6138926768c083222f4DAC1886aab983B8079D4A",
      "gasPrice": {
        "_hex": "0xba43b7400"
      },
      "gasLimit": {
        "_hex": "0x5208"
      },
      "to": "0x1c2122a550775285d46386c8292C1353F846C33c",
      "value": {
        "_hex": "0xd8e5610f40e000"
      },
      "nonce": 1,
      "data": "0x",
      "r": "0x2f62e96c3137fb71111a08afa80badcbd3378e9adb46c912f05e52028ff3b7e4",
      "s": "0x1d102046d312ad7baf9885af33c7359a46c71035a97e637c74e7f9fe92fc2abd",
      "v": 28,
      "creates": null,
      "raw": "0xf86b01850ba43b7400825208941c2122a550775285d46386c8292c1353f846c33c87d8e5610f40e000801ca02f62e96c3137fb71111a08afa80badcbd3378e9adb46c912f05e52028ff3b7e4a01d102046d312ad7baf9885af33c7359a46c71035a97e637c74e7f9fe92fc2abd",
      "networkId": 0,
      "chainId": 0
    },
    {
      "hash": "0x5d6980680588a0b1cbc5b12ca4a88a1309b788574f5ba43c4e05d1de489475a3",
      "blockHash": "0xb7788c6da11c544d50b85a50aa32d05fe1d77351f1e52941c01864aaf6cd9e4a",
      "blockNumber": 68522,
      "transactionIndex": 3,
      "confirmations": null,
      "from": "0x111aBd839a93481D79BD3349AE86C87CeB0211Ac",
      "gasPrice": {
        "_hex": "0xba43b7400"
      },
      "gasLimit": {
        "_hex": "0x5208"
      },
      "to": "0x1bD9348BdAC39f12fEE38Fc9416D618d96378eb0",
      "value": {
        "_hex": "0xd8e5610f40e000"
      },
      "nonce": 1,
      "data": "0x",
      "r": "0x9cbafdede7282482ebda5aa38018fe5f8ab36c16bf33a5d51284eea226cd944c",
      "s": "0x31708971aa9280df9dcb28f0fca074dedabfa7422700246718491aab59ee8b47",
      "v": 28,
      "creates": null,
      "raw": "0xf86b01850ba43b7400825208941bd9348bdac39f12fee38fc9416d618d96378eb087d8e5610f40e000801ca09cbafdede7282482ebda5aa38018fe5f8ab36c16bf33a5d51284eea226cd944ca031708971aa9280df9dcb28f0fca074dedabfa7422700246718491aab59ee8b47",
      "networkId": 0,
      "chainId": 0
    },
    {
      "hash": "0x70ca938e8a038f569ff49e7729342a77369ed0588ce15d53aff141142d1b727f",
      "blockHash": "0xb7788c6da11c544d50b85a50aa32d05fe1d77351f1e52941c01864aaf6cd9e4a",
      "blockNumber": 68522,
      "transactionIndex": 4,
      "confirmations": null,
      "from": "0xBa5c789c8E176bF1B4DFAE5F66C0fD388505211D",
      "gasPrice": {
        "_hex": "0xba43b7400"
      },
      "gasLimit": {
        "_hex": "0x5208"
      },
      "to": "0xbC7eE8a66C89DEe4EF4bf787C713Efa14Ef43522",
      "value": {
        "_hex": "0xd8e5610f40e000"
      },
      "nonce": 1,
      "data": "0x",
      "r": "0x3abd04bc84de01f3ee5bcb52364149ac9f05785e24b1a8c4ea3200f494dc57c3",
      "s": "0x1f1279a857fb43d5dc37fac9ebcc5ee23270fdffa093462e0673c2fc082c638d",
      "v": 27,
      "creates": null,
      "raw": "0xf86b01850ba43b740082520894bc7ee8a66c89dee4ef4bf787c713efa14ef4352287d8e5610f40e000801ba03abd04bc84de01f3ee5bcb52364149ac9f05785e24b1a8c4ea3200f494dc57c3a01f1279a857fb43d5dc37fac9ebcc5ee23270fdffa093462e0673c2fc082c638d",
      "networkId": 0,
      "chainId": 0
    }
  ]
}