{
  "hash": "0xffe8d863c929f7d7c146fb6b932e85e0e85b23ee15d798885fbffd00b77fdf4f",
  "parentHash": "0x8558df9de8ca7b1be9c57addb9fe325a295396b347ee3a82970b19261250f969",
  "number": 66309,
  "timestamp": 1439252277,
  "nonce": "0x7905424be0023314",
  "difficulty": 1936706495090,
  "gasLimit": {
    "_hex": "0x2fefd8"
  },
  "gasUsed": {
    "_hex": "0x5208"
  },
  "miner": "0xf927a40C8B7F6E07c5af7FA2155B4864a4112B13",
  "extraData": "0x",
  "transactions": [
    {
      "hash": "0x5c768aab89f981636670f578b9d84d751383a95b699f797ed038106d168e9c00",
      "blockHash": "0xffe8d863c929f7d7c146fb6b932e85e0e85b23ee15d798885fbffd00b77fdf4f",
      "blockNumber": 66309,
      "transactionIndex": 0,
      "confirmations": null,
      "from": "0x285B048CC4cB946abCF3eF11aDe982C36946AF18",
      "gasPrice": {
        "_hex": "0xdb82f4cab"
      },
      "gasLimit": {
        "_hex": "0x5208"
      },
      "to": "0x32Be343B94f860124dC4fEe278FDCBD38C102D88",
      "value": {
        "_hex": "0x8ac2b2d4db6bb000"
      },
      "nonce": 3,
      "data": "0x",
      "r": "0x42545840fd4bdfe5ea6dcce2ee145b1941d32e8e0a44e820571461b94f585eee",
      "s": "0x1df3ff710f574e14c7199c754a0a2174667ef3eb5b030c4b5162dd1665f62581",
      "v": 28,
      "creates": null,
      "raw": "0xf86c03850db82f4cab8252089432be343b94f860124dc4fee278fdcbd38c102d88888ac2b2d4db6bb000801ca042545840fd4bdfe5ea6dcce2ee145b1941d32e8e0a44e820571461b94f585eeea01df3ff710f574e14c7199c754a0a2174667ef3eb5b030c4b5162dd1665f62581",
      "networkId": 0,
      "chainId": 0
    }
  ]
}