{
  "hash": "0xadbd99f095465aea7866f06b9d65ad2bcc7dd2681845d4cafb978b51fdb4ecf7",
  "parentHash": "0xa401cf63f446d197fcdc4884ec5935f697e0df115b2d3f013f0a1dce2d425c50",
  "number": 121901,
  "timestamp": 1440184617,
  "nonce": "0x5d4f5b3b7db2f35c",
  "difficulty": 4477605393535,
  "gasLimit": {
    "_hex": "0x2fefd8"
  },
  "gasUsed": {
    "_hex": "0x14820"
  },
  "miner": "0xe6A7a1d47ff21B6321162AEA7C6CB457D5476Bca",
  "extraData": "0xd783010002844765746887676f312e342e32856c696e7578",
  "transactions": [
    {
      "hash": "0xec46daae8fa37864576f47bc6aa5986cc61a8cb2363e4b86487470e4ee166407",
      "blockHash": "0xadbd99f095465aea7866f06b9d65ad2bcc7dd2681845d4cafb978b51fdb4ecf7",
      "blockNumber": 121901,
      "transactionIndex": 0,
      "confirmations": null,
      "from": "0xe33977E292cceF99Ea8828733e97562F3690a8ad",
      "gasPrice": {
        "_hex": "0xd05e5514e"
      },
      "gasLimit": {
        "_hex": "0x5208"
      },
      "to": "0x32Be343B94f860124dC4fEe278FDCBD38C102D88",
      "value": {
        "_hex": "0x356f04c4dd6be400"
      },
      "nonce": 10,
      "data": "0x",
      "r": "0x10eb804363a536c92439619377d9de94664c6c46f61f99e3a27cd3b706815fb8",
      "s": "0x29710d5c45b20ed2654c90fa61eb5c2006c640a3d92bcc27f3d6c573f514f78e",
      "v": 28,
      "creates": null,
      "raw": "0xf86c0a850d05e5514e8252089432be343b94f860124dc4fee278fdcbd38c102d8888356f04c4dd6be400801ca010eb804363a536c92439619377d9de94664c6c46f61f99e3a27cd3b706815fb8a029710d5c45b20ed2654c90fa61eb5c2006c640a3d92bcc27f3d6c573f514f78e",
      "networkId": 0,
      "chainId": 0
    },
    {
      "hash": "0x70e9ff2b6d72192538ab5938d5fca10aa3f00889f6a53a024cc6fd89b8f7ec00",
      "blockHash": "0xadbd99f095465aea7866f06b9d65ad2bcc7dd2681845d4cafb978b51fdb4ecf7",
      "blockNumber": 121901,
      "transactionIndex": 1,
      "confirmations": null,
      "from": "0x233b4fC39b20bb5eCf29882D7F068544BCc5eB78",
      "gasPrice": {
        "_hex": "0xd05e5514e"
      },
      "gasLimit": {
        "_hex": "0x5208"
      },
      "to": "0x32Be343B94f860124dC4fEe278FDCBD38C102D88",
      "value": {
        "_hex": "0x8c40e442f2179800"
      },
      "nonce": 10,
      "data": "0x",
      "r": "0xfc503e7870040cf8c1d9650cd6d32cfcdb49da13a81620c70d0caa6bb4716ace",
      "s": "0x78d5193646200fd70c2ed18b13d99db1bd22e8c61c63adc8c6148fbc8a6565ca",
      "v": 28,
      "creates": null,
      "raw": "0xf86c0a850d05e5514e8252089432be343b94f860124dc4fee278fdcbd38c102d88888c40e442f2179800801ca0fc503e7870040cf8c1d9650cd6d32cfcdb49da13a81620c70d0caa6bb4716acea078d5193646200fd70c2ed18b13d99db1bd22e8c61c63adc8c6148fbc8a6565ca",
      "networkId": 0,
      "chainId": 0
    },
    {
      "hash": "0xecd10e15924b605e5d3cc85e2993ce31f42863fce86369100301205eb1d9b22b",
      "blockHash": "0xadbd99f095465aea7866f06b9d65ad2bcc7dd2681845d4cafb978b51fdb4ecf7",
      "blockNumber": 121901,
      "transactionIndex": 2,
      "confirmations": null,
      "from": "0x806C4e20CC913d7b70f5b7e24C6Ba15B16c56a5C",
      "gasPrice": {
        "_hex": "0xd05e5514e"
      },
      "gasLimit": {
        "_hex": "0x5208"
      },
      "to": "0x32Be343B94f860124dC4fEe278FDCBD38C102D88",
      "value": {
        "_hex": "0x54759d8399573800"
      },
      "nonce": 10,
      "data": "0x",
      "r": "0xbc8954f5585505c6a20508905a83131e5c476107ea1fc0f5896f5a009d8142c8",
      "s": "0x615ae69fdefcf2037ec648f9aca6686de38c20683a4eb6c61f71f6ef8e8d5313",
      "v": 27,
      "creates": null,
      "raw": "0xf86c0a850d05e5514e8252089432be343b94f860124dc4fee278fdcbd38c102d888854759d8399573800801ba0bc8954f5585505c6a20508905a83131e5c476107ea1fc0f5896f5a009d8142c8a0615ae69fdefcf2037ec648f9aca6686de38c20683a4eb6c61f71f6ef8e8d5313",
      "networkId": 0,
      "chainId": 0
    },
    {
      "hash": "0x7adcbffa3cab97f8c71387a7755d577ca01899c03924fddb78a21e1d661a9f9c",
      "blockHash": "0xadbd99f095465aea7866f06b9d65ad2bcc7dd2681845d4cafb978b51fdb4ecf7",
      "blockNumber": 121901,
      "transactionIndex": 3,
      "confirmations": null,
      "from": "0x790b8a3cE86E707ED0eD32bF89B3269692a23CC1",
      "gasPrice": {
        "_hex": "0xba43b7400"
      },
      "gasLimit": {
        "_hex": "0x15f90"
      },
      "to": "0x4D67f4F0Db45b3B5a3424B39ed8d972F710381D5",
      "value": {
        "_hex": "0x2d041d705a2c60000"
      },
      "nonce": 77,
      "data": "0x",
      "r": "0xbd52e5979ad3fd01aea7a3c535c728f4b173b9a8c8682369fc1a686fffea52ab",
      "s": "0x74c77bbc330b41371f8f6bf73df631654308ba6846133bf8d183646d6ccc2e9e",
      "v": 27,
      "creates": null,
      "raw": "0xf86e4d850ba43b740083015f90944d67f4f0db45b3b5a3424b39ed8d972f710381d58902d041d705a2c60000801ba0bd52e5979ad3fd01aea7a3c535c728f4b173b9a8c8682369fc1a686fffea52aba074c77bbc330b41371f8f6bf73df631654308ba6846133bf8d183646d6ccc2e9e",
      "networkId": 0,
      "chainId": 0
    }
  ]
}