{
  "hash": "0x77947e2087526b94ee9315db1778b84139df8828426688f5c229662de01d04d8",
  "parentHash": "0xe0e11240fd80fc4040f63bce7ef19da53a2dc457fb0499ff7d80a26710482d71",
  "number": 92189,
  "timestamp": 1439668353,
  "nonce": "0xaeb74dab5cf7e42b",
  "difficulty": 3475694732783,
  "gasLimit": {
    "_hex": "0x2fefd8"
  },
  "gasUsed": {
    "_hex": "0x5208"
  },
  "miner": "0xC603Ab5ef41fC61AA8b76bEddb09e3Cfcbb174BD",
  "extraData": "0x476574682f76312e302e312f77696e646f77732f676f312e342e32",
  "transactions": [
    {
      "hash": "0xe358d798ed771266708faebe7e5bec8aa4a80b51a7cc7edd16b45e767188cf47",
      "blockHash": "0x77947e2087526b94ee9315db1778b84139df8828426688f5c229662de01d04d8",
      "blockNumber": 92189,
      "transactionIndex": 0,
      "confirmations": null,
      "from": "0x120A270bbC009644e35F0bB6ab13f95b8199c4ad",
      "gasPrice": {
        "_hex": "0xd9843fdae"
      },
      "gasLimit": {
        "_hex": "0x3d090"
      },
      "to": "0x641543020fd73468Eb65CFc4b9caA44085Cad8B4",
      "value": {
        "_hex": "0x181ff2da296b700000"
      },
      "nonce": 543,
      "data": "0x",
      "r": "0xf29319fb827ba552ad9dc2bb7bf570be5eea1d17b20c308bb754622210a02aba",
      "s": "0x60842db90a44c4990c59c115e2125b96c47eac4944953e383915abdf0a56650f",
      "v": 28,
      "creates": null,
      "raw": "0xf87082021f850d9843fdae8303d09094641543020fd73468eb65cfc4b9caa44085cad8b489181ff2da296b700000801ca0f29319fb827ba552ad9dc2bb7bf570be5eea1d17b20c308bb754622210a02abaa060842db90a44c4990c59c115e2125b96c47eac4944953e383915abdf0a56650f",
      "networkId": 0,
      "chainId": 0
    }
  ]
}