{
  "hash": "0xc59215d4d13893d632a66751ec67da738503275920a31f97f5f531755db5a33d",
  "parentHash": "0x48e5b3bfb10f12637d7851c25303eccbbb7dc8ab5278bd931b3efcc492ccf57b",
  "number": 90394,
  "timestamp": 1439639184,
  "nonce": "0x28802e79bc19b189",
  "difficulty": 3335105967763,
  "gasLimit": {
    "_hex": "0x2fefd8"
  },
  "gasUsed": {
    "_hex": "0xa410"
  },
  "miner": "0x47ff6576639c2e94762eA5443978D7681C0E78DC",
  "extraData": "0x476574682f76312e302e312f6c696e75782f676f312e342e32",
  "transactions": [
    {
      "hash": "0xbe7abd666e20a1a1061ae5157a16f7ea482272a82eb6a7386806b43dc604893c",
      "blockHash": "0xc59215d4d13893d632a66751ec67da738503275920a31f97f5f531755db5a33d",
      "blockNumber": 90394,
      "transactionIndex": 0,
      "confirmations": null,
      "from": "0x46532c79E7F23Aa3520221582D7AC182fb98C56B",
      "gasPrice": {
        "_hex": "0x10e43e3b6f8"
      },
      "gasLimit": {
        "_hex": "0x15f90"
      },
      "to": "0x95A466C2ba3A392003E9ef63F4442236C6E1B40E",
      "value": {
        "_hex": "0x8ac7230489e80000"
      },
      "nonce": 2,
      "data": "0x",
      "r": "0x4e7c8c4f959e6bf73071a380cb4063062067ff34b7d5964d7116fa4b8ed7b241",
      "s": "0x40b24f04e5b8144c8b7da91f905c3e8b33dc9e0cddcfc68e0352a34b13be5ea5",
      "v": 27,
      "creates": null,
      "raw": "0xf86e0286010e43e3b6f883015f909495a466c2ba3a392003e9ef63f4442236c6e1b40e888ac7230489e80000801ba04e7c8c4f959e6bf73071a380cb4063062067ff34b7d5964d7116fa4b8ed7b241a040b24f04e5b8144c8b7da91f905c3e8b33dc9e0cddcfc68e0352a34b13be5ea5",
      "networkId": 0,
      "chainId": 0
    },
    {
      "hash": "0xf0aa6814aeecc7816af627e4335df3c24484a756a64210328746ed54b692be95",
      "blockHash": "0xc59215d4d13893d632a66751ec67da738503275920a31f97f5f531755db5a33d",
      "blockNumber": 90394,
      "transactionIndex": 1,
      "confirmations": null,
      "from": "0xa522de7EB6ae1250522A513133a93bd42849475C",
      "gasPrice": {
        "_hex": "0xded872735"
      },
      "gasLimit": {
        "_hex": "0x15f90"
      },
      "to": "0x859217617481BD9b6E3e38f6aE9BB677F0D26154",
      "value": {
        "_hex": "0xa2a15d09519be00000"
      },
      "nonce": 4,
      "data": "0x",
      "r": "0x4a0168ea7bbf58b33592857a3926631aa4f63d17207f68915e782dec54b5718e",
      "s": "0x11008b1f597afc86915f0000e898ff024933a5c603b0b29b9ae2ad5d0aa974a7",
      "v": 28,
      "creates": null,
      "raw": "0xf86e04850ded87273583015f9094859217617481bd9b6e3e38f6ae9bb677f0d2615489a2a15d09519be00000801ca04a0168ea7bbf58b33592857a3926631aa4f63d17207f68915e782dec54b5718ea011008b1f597afc86915f0000e898ff024933a5c603b0b29b9ae2ad5d0aa974a7",
      "networkId": 0,
      "chainId": 0
    }
  ]
}