{
  "hash": "0xc3ad0832c8e95744d5d6c55d9bddaa151a5ca05e451308c762656cfc2db69d6c",
  "parentHash": "0xa99922ab947e0a79ee1abaaa9ae8266785b8096eeb2cc37fb8bf382ff693ff99",
  "number": 74318,
  "timestamp": 1439384223,
  "nonce": "0xb4f291d621acf6ff",
  "difficulty": 2215078885474,
  "gasLimit": {
    "_hex": "0x2fefd8"
  },
  "gasUsed": {
    "_hex": "0xf618"
  },
  "miner": "0x4F85e43F44D2B0e6f57C9355806cE3e1B3F40Ab8",
  "extraData": "0x476574682f76312e302e312f6c696e75782f676f312e342e32",
  "transactions": [
    {
      "hash": "0xb72fb48b2d90585c7803a4059191b9506e3030ceeb39612cdffce03d0d8d4595",
      "blockHash": "0xc3ad0832c8e95744d5d6c55d9bddaa151a5ca05e451308c762656cfc2db69d6c",
      "blockNumber": 74318,
      "transactionIndex": 0,
      "confirmations": null,
      "from": "0xbc681E36E2BC0d9Cb397811ce7a5821da2D66059",
      "gasPrice": {
        "_hex": "0xe05894018"
      },
      "gasLimit": {
        "_hex": "0x5208"
      },
      "to": "0x32Be343B94f860124dC4fEe278FDCBD38C102D88",
      "value": {
        "_hex": "0xb4ac5d6264c3e800"
      },
      "nonce": 1,
      "data": "0x",
      "r": "0xe6f4b2f09ead8ce80236cd02d2ca7641a2841081ea4f46fc80eea2026632ee95",
      "s": "0x226a4ef1f880e58bbc31641573fadfca469bcc0100fba82731371cf4b3b44d57",
      "v": 27,
      "creates": null,
      "raw": "0xf86c01850e058940188252089432be343b94f860124dc4fee278fdcbd38c102d8888b4ac5d6264c3e800801ba0e6f4b2f09ead8ce80236cd02d2ca7641a2841081ea4f46fc80eea2026632ee95a0226a4ef1f880e58bbc31641573fadfca469bcc0100fba82731371cf4b3b44d57",
      "networkId": 0,
      "chainId": 0
    },
    {
      "hash": "0x28fd85887c63868f8bdabfc183f6414b566cf5519a14d9b9bffe4a021fbbc8ad",
      "blockHash": "0xc3ad0832c8e95744d5d6c55d9bddaa151a5ca05e451308c762656cfc2db69d6c",
      "blockNumber": 74318,
      "transactionIndex": 1,
      "confirmations": null,
      "from": "0xb71F25995CC5De7A465fB37688126E07654Fa662",
      "gasPrice": {
        "_hex": "0xe05894018"
      },
      "gasLimit": {
        "_hex": "0x5208"
      },
      "to": "0x32Be343B94f860124dC4fEe278FDCBD38C102D88",
      "value": {
        "_hex": "0x33d99de45bdf4400"
      },
      "nonce": 1,
      "data": "0x",
      "r": "0x2583a2148ab8079bb036f939939668cc569b4605e4a14e3ec238e4c73cea9ab1",
      "s": "0x5ac359e4eb91b77fbd0e941860276f0d67a7696e7fff2aec4f1d5e746a1361dc",
      "v": 27,
      "creates": null,
      "raw": "0xf86c01850e058940188252089432be343b94f860124dc4fee278fdcbd38c102d888833d99de45bdf4400801ba02583a2148ab8079bb036f939939668cc569b4605e4a14e3ec238e4c73cea9ab1a05ac359e4eb91b77fbd0e941860276f0d67a7696e7fff2aec4f1d5e746a1361dc",
      "networkId": 0,
      "chainId": 0
    },
    {
      "hash": "0x890f7cdaeedbc79ffd836713ed4342f7e8674a2890299e96786963fa30a02391",
      "blockHash": "0xc3ad0832c8e95744d5d6c55d9bddaa151a5ca05e451308c762656cfc2db69d6c",
      "blockNumber": 74318,
      "transactionIndex": 2,
      "confirmations": null,
      "from": "0x443226dF1f3493C05845dD3bf351599a8a463F03",
      "gasPrice": {
        "_hex": "0xe05894018"
      },
      "gasLimit": {
        "_hex": "0x5208"
      },
      "to": "0x32Be343B94f860124dC4fEe278FDCBD38C102D88",
      "value": {
        "_hex": "0x293308183d708e0000"
      },
      "nonce": 0,
      "data": "0x",
      "r": "0x6e4993e4e75eb1d83cd8e0d8bd671cb1a1f5d3c5719631677b50d3626a871e09",
      "s": "0x0b76ab1260c24b1abbbcc43bf36de621fa5b5df02ec6311db7becffa86c8d57d",
      "v": 27,
      "creates": null,
      "raw": "0xf86d80850e058940188252089432be343b94f860124dc4fee278fdcbd38c102d8889293308183d708e0000801ba06e4993e4e75eb1d83cd8e0d8bd671cb1a1f5d3c5719631677b50d3626a871e09a00b76ab1260c24b1abbbcc43bf36de621fa5b5df02ec6311db7becffa86c8d57d",
      "networkId": 0,
      "chainId": 0
    }
  ]
}