{
  "hash": "0x9c1716ab2a782384815de3e1f83b37dfc159341e7afc71d8045079e388d013f7",
  "parentHash": "0xc24ba460bf152d426a4a4c36e9d1407252684c6214717f6b143362a1dfd41a1d",
  "number": 78183,
  "timestamp": 1439449737,
  "nonce": "0xe334656bb0236e4c",
  "difficulty": 2278770103469,
  "gasLimit": {
    "_hex": "0x2fefd8"
  },
  "gasUsed": {
    "_hex": "0x5208"
  },
  "miner": "0x01d9DA08cc6Fb97c0DE1B6F4C28910A0859Ed1A1",
  "extraData": "0x476574682f76312e302e312f6c696e75782f676f312e342e32",
  "transactions": [
    {
      "hash": "0xca04d0ef1d314af23f1ea2714022a96cfec75a23a1f648170d1670a8d904cbaf",
      "blockHash": "0x9c1716ab2a782384815de3e1f83b37dfc159341e7afc71d8045079e388d013f7",
      "blockNumber": 78183,
      "transactionIndex": 0,
      "confirmations": null,
      "from": "0x32Be343B94f860124dC4fEe278FDCBD38C102D88",
      "gasPrice": {
        "_hex": "0xda857d913"
      },
      "gasLimit": {
        "_hex": "0x5208"
      },
      "to": "0xdCd8Aa0E6fD68B057C5AC5e362619808A175CE87",
      "value": {
        "_hex": "0x25f273933db5700000"
      },
      "nonce": 388,
      "data": "0x",
      "r": "0x77fc493e5c0e72c56c9e844e273283305188cdb0d6cf622ec6677936f3929548",
      "s": "0x44a360a6bc64b47590bf237894bc6c19b35d339996ea285518778aa46f20010b",
      "v": 28,
      "creates": null,
      "raw": "0xf86f820184850da857d91382520894dcd8aa0e6fd68b057c5ac5e362619808a175ce878925f273933db5700000801ca077fc493e5c0e72c56c9e844e273283305188cdb0d6cf622ec6677936f3929548a044a360a6bc64b47590bf237894bc6c19b35d339996ea285518778aa46f20010b",
      "networkId": 0,
      "chainId": 0
    }
  ]
}