{
  "hash": "0x11780e91bb5bc707a107f8286d312028e14daab34248724546bef60fb44a3801",
  "parentHash": "0x14096c4b49f481118851c83505412754460ba5d2514f858f949e55eb820edc41",
  "number": 81213,
  "timestamp": 1439497878,
  "nonce": "0x5e8e1da554dc9023",
  "difficulty": 2458242210472,
  "gasLimit": {
    "_hex": "0x2fefd8"
  },
  "gasUsed": {
    "_hex": "0xa410"
  },
  "miner": "0xA1623430350C5df1b52B0b57483A5bb45d1796Da",
  "extraData": "0x476574682f76312e302e312d38326566323666362f6c696e75782f676f312e34",
  "transactions": [
    {
      "hash": "0xe63b14cbfa05f5b32947d80d2238765f882fad1eae063d2f9ddc1d2f24e56e84",
      "blockHash": "0x11780e91bb5bc707a107f8286d312028e14daab34248724546bef60fb44a3801",
      "blockNumber": 81213,
      "transactionIndex": 0,
      "confirmations": null,
      "from": "0x36d85Dc3683156e63Bf880A9fAb7788CF8143a27",
      "gasPrice": {
        "_hex": "0xcf0ee340d"
      },
      "gasLimit": {
        "_hex": "0x15f90"
      },
      "to": "0x36d85Dc3683156e63Bf880A9fAb7788CF8143a27",
      "value": {
        "_hex": "0x878678326eac900000"
      },
      "nonce": 17,
      "data": "0x",
      "r": "0x9b22097dc59eb9b492101547df2d8d4c1dba3f3cc0796781a19b37ea6c21c178",
      "s": "0x5ca35d179e5b5e72918be0060fb1f5c25c6bf33270dcdeffef385e208e7138a8",
      "v": 27,
      "creates": null,
      "raw": "0xf86e11850cf0ee340d83015f909436d85dc3683156e63bf880a9fab7788cf8143a2789878678326eac900000801ba09b22097dc59eb9b492101547df2d8d4c1dba3f3cc0796781a19b37ea6c21c178a05ca35d179e5b5e72918be0060fb1f5c25c6bf33270dcdeffef385e208e7138a8",
      "networkId": 0,
      "chainId": 0
    },
    {
      "hash": "0x3486f9fbff10b8b5dd630ae9d286e39efd326e4739c8c11c747633e84704b419",
      "blockHash": "0x11780e91bb5bc707a107f8286d312028e14daab34248724546bef60fb44a3801",
      "blockNumber": 81213,
      "transactionIndex": 1,
      "confirmations": null,
      "from": "0x3029c37d1c8C9e6541b0735E16691058Ac8A7c87",
      "gasPrice": {
        "_hex": "0xcc3f7804d"
      },
      "gasLimit": {
        "_hex": "0x55f0"
      },
      "to": "0xd1De291432A673D54388E10782F8bb5faD986F5F",
      "value": {
        "_hex": "0x9b24536299bc6da8"
      },
      "nonce": 1,
      "data": "0x",
      "r": "0xd5e8fa874ada97d3429ae38162cbef06a949045d3472dbb38c7b112b7e681401",
      "s": "0x71f8f17f7f75060f075a3eea3195624f392672bd5f001989e619df7dfc1d5257",
      "v": 27,
      "creates": null,
      "raw": "0xf86c01850cc3f7804d8255f094d1de291432a673d54388e10782f8bb5fad986f5f889b24536299bc6da8801ba0d5e8fa874ada97d3429ae38162cbef06a949045d3472dbb38c7b112b7e681401a071f8f17f7f75060f075a3eea3195624f392672bd5f001989e619df7dfc1d5257",
      "networkId": 0,
      "chainId": 0
    }
  ]
}