{
  "hash": "0x5af368a62011914d85ea111e372b298c82074ce5d2bdccd686406aade48cfa6d",
  "parentHash": "0x0b511c07cf4e7173d9def31c60234829c0d0a3cfb43c242694a6320b64918272",
  "number": 111147,
  "timestamp": 1439985516,
  "nonce": "0xfa598a18cc583795",
  "difficulty": 4388054634833,
  "gasLimit": {
    "_hex": "0x2fefd8"
  },
  "gasUsed": {
    "_hex": "0x5208"
  },
  "miner": "0x05f74a38293C914C6B14a39f5d8dEa98f22E4FBA",
  "extraData": "0x",
  "transactions": [
    {
      "hash": "0xbccf0b20503389eaf9908d25f851dfff9bb7423f27e2828a60019d4b4b58c62a",
      "blockHash": "0x5af368a62011914d85ea111e372b298c82074ce5d2bdccd686406aade48cfa6d",
      "blockNumber": 111147,
      "transactionIndex": 0,
      "confirmations": null,
      "from": "0xb1abce2918E21ddb93AA452731a12672A3d9F75a",
      "gasPrice": {
        "_hex": "0xde7523af9"
      },
      "gasLimit": {
        "_hex": "0x5208"
      },
      "to": "0x32Be343B94f860124dC4fEe278FDCBD38C102D88",
      "value": {
        "_hex": "0x455f1cf9a843f400"
      },
      "nonce": 177,
      "data": "0x",
      "r": "0x7edea48b16c80b491e90e26bca1deffcc53f09696bca6704b5257f26977221ea",
      "s": "0x243d97feb173b5b67a22dc8a2ca7eb79c3a5628252beb6a4f2e9cc21c2331c2c",
      "v": 27,
      "creates": null,
      "raw": "0xf86d81b1850de7523af98252089432be343b94f860124dc4fee278fdcbd38c102d8888455f1cf9a843f400801ba07edea48b16c80b491e90e26bca1deffcc53f09696bca6704b5257f26977221eaa0243d97feb173b5b67a22dc8a2ca7eb79c3a5628252beb6a4f2e9cc21c2331c2c",
      "networkId": 0,
      "chainId": 0
    }
  ]
}