{
  "hash": "0x668b626cac16f0c241fe1fad98d1d508e6dd21e284ced55a989c089457299919",
  "parentHash": "0x6b4a05249df8cb5f7838e303197499e232a70b2acc6f49ec0514cbadaa65e007",
  "number": 95057,
  "timestamp": 1439718303,
  "nonce": "0x9574ce134a356669",
  "difficulty": 3494924822053,
  "gasLimit": {
    "_hex": "0x2fefd8"
  },
  "gasUsed": {
    "_hex": "0x5208"
  },
  "miner": "0xf8E0CA3Ed80bd541b94BEdCf259e8CF2141A9523",
  "extraData": "0x476574682f76312e302e312f77696e646f77732f676f312e342e32",
  "transactions": [
    {
      "hash": "0x8fa283da4e94479e3d4adc99791668fddff6e7f7a9339f042fefde3545dd1f85",
      "blockHash": "0x668b626cac16f0c241fe1fad98d1d508e6dd21e284ced55a989c089457299919",
      "blockNumber": 95057,
      "transactionIndex": 0,
      "confirmations": null,
      "from": "0x423F06030a6c726925816243446a11Ed6d40Ab99",
      "gasPrice": {
        "_hex": "0xba43b7400"
      },
      "gasLimit": {
        "_hex": "0x5208"
      },
      "to": "0xC47Aaa860008be6f65B58c6C6E02a84e666EfE31",
      "value": {
        "_hex": "0x1866d21a80c871c0"
      },
      "nonce": 4,
      "data": "0x",
      "r": "0x6da62b98e99d76f6501fa47a71e872714dabbbc1390876f45de0b41167678dee",
      "s": "0x26f1967138f5bf2604f1e346b274df9032b195471bfca0b2481b828e2293fb70",
      "v": 28,
      "creates": null,
      "raw": "0xf86c04850ba43b740082520894c47aaa860008be6f65b58c6c6e02a84e666efe31881866d21a80c871c0801ca06da62b98e99d76f6501fa47a71e872714dabbbc1390876f45de0b41167678deea026f1967138f5bf2604f1e346b274df9032b195471bfca0b2481b828e2293fb70",
      "networkId": 0,
      "chainId": 0
    }
  ]
}