{
  "hash": "0xf3cb0c0734369fdb822acbf46568614dfaf976fe165e01f33eca5ef68ca3c9b7",
  "parentHash": "0x6ba52bcb503e83b8658989c423c9fd571af89b33c18acd7e1dfaca3521739c53",
  "number": 119478,
  "timestamp": 1440143705,
  "nonce": "0x0a66166bbd35e838",
  "difficulty": 4390125017443,
  "gasLimit": {
    "_hex": "0x2fefd8"
  },
  "gasUsed": {
    "_hex": "0xf618"
  },
  "miner": "0x790b8a3cE86E707ED0eD32bF89B3269692a23CC1",
  "extraData": "0xd783010002844765746887676f312e342e32856c696e7578",
  "transactions": [
    {
      "hash": "0x6084137097c55359eb6f067f9fd743e42b674693582243ebc5a572e04c801450",
      "blockHash": "0xf3cb0c0734369fdb822acbf46568614dfaf976fe165e01f33eca5ef68ca3c9b7",
      "blockNumber": 119478,
      "transactionIndex": 0,
      "confirmations": null,
      "from": "0xA270859a7dD7bEF18258BDE4b85Dd3691FdE277D",
      "gasPrice": {
        "_hex": "0xba43b7400"
      },
      "gasLimit": {
        "_hex": "0x5208"
      },
      "to": "0x32Be343B94f860124dC4fEe278FDCBD38C102D88",
      "value": {
        "_hex": "0x67d8cded4f73a000"
      },
      "nonce": 8,
      "data": "0x",
      "r": "0x62330e9884cd03e515500fa8876e25b4595a2d0b9490b6737d47ddbd92070627",
      "s": "0x4aff92f3b192b0c4b7f8e173638d0f9e92e1cfe8589ad555abcbadd60f02ca3d",
      "v": 28,
      "creates": null,
      "raw": "0xf86c08850ba43b74008252089432be343b94f860124dc4fee278fdcbd38c102d888867d8cded4f73a000801ca062330e9884cd03e515500fa8876e25b4595a2d0b9490b6737d47ddbd92070627a04aff92f3b192b0c4b7f8e173638d0f9e92e1cfe8589ad555abcbadd60f02ca3d",
      "networkId": 0,
      "chainId": 0
    },
    {
      "hash": "0xc4eb2105011c1d72e4336a4acfe9b340aef0d2ce396bc1f35de0a819f1afe372",
      "blockHash": "0xf3cb0c0734369fdb822acbf46568614dfaf976fe165e01f33eca5ef68ca3c9b7",
      "blockNumber": 119478,
      "transactionIndex": 1,
      "confirmations": null,
      "from": "0x40B9b889A21Ff1534d018D71Dc406122EBcf3F5A",
      "gasPrice": {
        "_hex": "0xba43b7400"
      },
      "gasLimit": {
        "_hex": "0x15f90"
      },
      "to": "0x424d2e2d9511DEf8a3A5B3e9dFCc4E39b808B050",
      "value": {
        "_hex": "0x56bc75e2d63100000"
      },
      "nonce": 65,
      "data": "0x",
      "r": "0x3c9e38cb929192b500a08e44f390bc744775172903f5534fb9388fe11bf2b476",
      "s": "0x77121afb590d72e2da19b9560d9270e4af05ba937eabb3c3ad49780e283d2f10",
      "v": 27,
      "creates": null,
      "raw": "0xf86e41850ba43b740083015f9094424d2e2d9511def8a3a5b3e9dfcc4e39b808b05089056bc75e2d63100000801ba03c9e38cb929192b500a08e44f390bc744775172903f5534fb9388fe11bf2b476a077121afb590d72e2da19b9560d9270e4af05ba937eabb3c3ad49780e283d2f10",
      "networkId": 0,
      "chainId": 0
    },
    {
      "hash": "0x12ae85e509fea15e40c48f26298cbff7154fdc66c03c4a0ea9c9558a54b79323",
      "blockHash": "0xf3cb0c0734369fdb822acbf46568614dfaf976fe165e01f33eca5ef68ca3c9b7",
      "blockNumber": 119478,
      "transactionIndex": 2,
      "confirmations": null,
      "from": "0xE21812b7c0Bd57f6922B6A5670BDAec864beEF6b",
      "gasPrice": {
        "_hex": "0xba43b7400"
      },
      "gasLimit": {
        "_hex": "0x5208"
      },
      "to": "0x32Be343B94f860124dC4fEe278FDCBD38C102D88",
      "value": {
        "_hex": "0x3571d971fe550000"
      },
      "nonce": 8,
      "data": "0x",
      "r": "0x35c0c823882ced0a575b3891c25150e061ad8c745130ba0c0d0bcef8d08ff474",
      "s": "0x1ecc4f467765fade60cad72e849aa3ebeab28d91d95e40a228cf31b4d37cce08",
      "v": 28,
      "creates": null,
      "raw": "0xf86c08850ba43b74008252089432be343b94f860124dc4fee278fdcbd38c102d88883571d971fe550000801ca035c0c823882ced0a575b3891c25150e061ad8c745130ba0c0d0bcef8d08ff474a01ecc4f467765fade60cad72e849aa3ebeab28d91d95e40a228cf31b4d37cce08",
      "networkId": 0,
      "chainId": 0
    }
  ]
}