{
  "hash": "0x9a168c42fb8022b725286015a13afb6b9c89deb50a0f386c79a70a8a6a9b93ed",
  "parentHash": "0x888d6a1110e6bd55916f1f23d173928db6df64c99506724fb90ed148de32f0c5",
  "number": 101900,
  "timestamp": 1439829754,
  "nonce": "0xb31998d3f01a142c",
  "difficulty": 3893789482314,
  "gasLimit": {
    "_hex": "0x2fefd8"
  },
  "gasUsed": {
    "_hex": "0x5208"
  },
  "miner": "0x0037ce3d4B7f8729C8607D8D0248252Be68202c0",
  "extraData": "0x476574682f76312e302e312f77696e646f77732f676f312e342e32",
  "transactions": [
    {
      "hash": "0x286ab259c7ba95708e3fffec6ef6be165248dc141c2519008089cd18b17cd649",
      "blockHash": "0x9a168c42fb8022b725286015a13afb6b9c89deb50a0f386c79a70a8a6a9b93ed",
      "blockNumber": 101900,
      "transactionIndex": 0,
      "confirmations": null,
      "from": "0x95A466C2ba3A392003E9ef63F4442236C6E1B40E",
      "gasPrice": {
        "_hex": "0xd9c00c7f9"
      },
      "gasLimit": {
        "_hex": "0x5208"
      },
      "to": "0x32Be343B94f860124dC4fEe278FDCBD38C102D88",
      "value": {
        "_hex": "0x7b7ebe5145999400"
      },
      "nonce": 3,
      "data": "0x",
      "r": "0x73140580509f17af2623d873c86afe5574a8a65c1c3ad3b402462e863e1e0844",
      "s": "0x3fda95c56c02e0680b86856e8a1555a7a4c856d330099dd0f0317653d0372364",
      "v": 28,
      "creates": null,
      "raw": "0xf86c03850d9c00c7f98252089432be343b94f860124dc4fee278fdcbd38c102d88887b7ebe5145999400801ca073140580509f17af2623d873c86afe5574a8a65c1c3ad3b402462e863e1e0844a03fda95c56c02e0680b86856e8a1555a7a4c856d330099dd0f0317653d0372364",
      "networkId": 0,
      "chainId": 0
    }
  ]
}