{
  "hash": "0x53037c6288f3599f21d91422914d3b9e8aaa3ef8b30dd1567f7f74a06f6b5116",
  "parentHash": "0x656da96295b53999b4315ee371daaa9dad5d1ad02fede4a645fbfd32c8b1ef76",
  "number": 56183,
  "timestamp": 1439083212,
  "nonce": "0xed8e8cb5f54ede64",
  "difficulty": 1640832541308,
  "gasLimit": {
    "_hex": "0x2fefd8"
  },
  "gasUsed": {
    "_hex": "0xf5ce"
  },
  "miner": "0xbb7B8287f3F0a933474a79eAe42CBCa977791171",
  "extraData": "0x476574682f4c5649562f76312e302e312f6c696e75782f676f312e342e32",
  "transactions": [
    {
      "hash": "0x5ef026e5de0f4651c0fdbaaea60760c87745421f2c1146329de92e3aeab1d9c4",
      "blockHash": "0x53037c6288f3599f21d91422914d3b9e8aaa3ef8b30dd1567f7f74a06f6b5116",
      "blockNumber": 56183,
      "transactionIndex": 0,
      "confirmations": null,
      "from": "0x288E4356F12D0D3D0F8DF3506E457E7cFd5f4Ab0",
      "gasPrice": {
        "_hex": "0xd60795e8b"
      },
      "gasLimit": {
        "_hex": "0x15f90"
      },
      "to": "0x40F457d7D8430bC6D03609b81Cc2E95b7bEFb01a",
      "value": {
        "_hex": "0x0"
      },
      "nonce": 33,
      "data": "0x5e28ed7f0000000000000000000000000000000000000000000000000000000000000020000000000000000000000000000000000000000000000000000000000000000568656c6c6f000000000000000000000000000000000000000000000000000000",
      "r": "0xc0bdceec5bc53b3b70dcdeb64fe079a1649903084c62065f73e255545b5a7496",
      "s": "0x3b5c54fea4ed0093a921f11f3d6de5ae16b73dc434690b46c51c9578398ed812",
      "v": 28,
      "creates": null,
      "raw": "0xf8ca21850d60795e8b83015f909440f457d7d8430bc6d03609b81cc2e95b7befb01a80b8645e28ed7f0000000000000000000000000000000000000000000000000000000000000020000000000000000000000000000000000000000000000000000000000000000568656c6c6f0000000000000000000000000000000000000000000000000000001ca0c0bdceec5bc53b3b70dcdeb64fe079a1649903084c62065f73e255545b5a7496a03b5c54fea4ed0093a921f11f3d6de5ae16b73dc434690b46c51c9578398ed812",
      "networkId": 0,
      "chainId": 0
    }
  ]
}