{
  "hash": "0xd47fce4308718e7d2f68f6641395d424e1e8d08e82774fb5d693e6bc49a30db6",
  "parentHash": "0x0d173cd478b0e6ed44a5fdb108911a357234131a665a1b86ef506e7bb0c7b46b",
  "number": 95000,
  "timestamp": 1439717428,
  "nonce": "0xeb7e79daf104e7c6",
  "difficulty": 3517203863552,
  "gasLimit": {
    "_hex": "0x2fefd8"
  },
  "gasUsed": {
    "_hex": "0x5208"
  },
  "miner": "0xe6A7a1d47ff21B6321162AEA7C6CB457D5476Bca",
  "extraData": "0x476574682f76312e302e312d38326566323666362f6c696e75782f676f312e34",
  "transactions": [
    {
      "hash": "0x4f6aeda35d954032b2520532121ec77237f0fb7441509a384ab7ebe6eb3d1610",
      "blockHash": "0xd47fce4308718e7d2f68f6641395d424e1e8d08e82774fb5d693e6bc49a30db6",
      "blockNumber": 95000,
      "transactionIndex": 0,
      "confirmations": null,
      "from": "0x25eBf917822b09e0DC9ECaFF159b0832f080bEB8",
      "gasPrice": {
        "_hex": "0xba43b7400"
      },
      "gasLimit": {
        "_hex": "0x5208"
      },
      "to": "0xC47Aaa860008be6f65B58c6C6E02a84e666EfE31",
      "value": {
        "_hex": "0x8d610996b67a86000"
      },
      "nonce": 1,
      "data": "0x",
      "r": "0xa0aa74ae57eab2805e034d28c25c91009d4f9e9f8c6c33cdb7ec1097bbe5e283",
      "s": "0x7f7a656ab314ee3a7818bd3371de4b50a3526c396771af5d887292a391465c41",
      "v": 28,
      "creates": null,
      "raw": "0xf86d01850ba43b740082520894c47aaa860008be6f65b58c6c6e02a84e666efe318908d610996b67a86000801ca0a0aa74ae57eab2805e034d28c25c91009d4f9e9f8c6c33cdb7ec1097bbe5e283a07f7a656ab314ee3a7818bd3371de4b50a3526c396771af5d887292a391465c41",
      "networkId": 0,
      "chainId": 0
    }
  ]
}