{
  "hash": "0x790497743048d2aebd9decff60709292f74c8cfd48cf99bf185881db02fce288",
  "parentHash": "0xe55f553b3333cd3797b0f47f037de673a230c8b2f49c9b9313310e69cf99c5e3",
  "number": 113494,
  "timestamp": 1440024514,
  "nonce": "0xce73ca18fbdf84f9",
  "difficulty": 4449387144864,
  "gasLimit": {
    "_hex": "0x2fefd8"
  },
  "gasUsed": {
    "_hex": "0xa410"
  },
  "miner": "0xD0ee3F53eE0fCf3F9fbCcdd17BD1b6441DdC2074",
  "extraData": "0x476574682f76312e302e312d38326566323666362f6c696e75782f676f312e34",
  "transactions": [
    {
      "hash": "0x9105638bc050f59b2e5a4b73912b3ca23b6a5a55ea12d87ab5d5ae6dc2a12b15",
      "blockHash": "0x790497743048d2aebd9decff60709292f74c8cfd48cf99bf185881db02fce288",
      "blockNumber": 113494,
      "transactionIndex": 0,
      "confirmations": null,
      "from": "0xCeD2445e8A8061b19111d5A72547eAe2341E28CB",
      "gasPrice": {
        "_hex": "0xd829211eb"
      },
      "gasLimit": {
        "_hex": "0x15f90"
      },
      "to": "0x9A6Ae9cEc80B30eFb1ca59E3074C6013CfDA582e",
      "value": {
        "_hex": "0xde0b6b3a7640000"
      },
      "nonce": 0,
      "data": "0x",
      "r": "0x0be9b834357e38013d39dde52428478acb6eca5419c133ebcde4c5f486d3ff37",
      "s": "0x3450e146effeb25477dac0cb9bfb180ea8de22ae4b990eaffc379cf3b6d5186c",
      "v": 28,
      "creates": null,
      "raw": "0xf86d80850d829211eb83015f90949a6ae9cec80b30efb1ca59e3074c6013cfda582e880de0b6b3a7640000801ca00be9b834357e38013d39dde52428478acb6eca5419c133ebcde4c5f486d3ff37a03450e146effeb25477dac0cb9bfb180ea8de22ae4b990eaffc379cf3b6d5186c",
      "networkId": 0,
      "chainId": 0
    },
    {
      "hash": "0xbcc3cbccf5239a7a1ea9ad3e5efc9907ec28aa60d98c538397ebd3a17dae4c7a",
      "blockHash": "0x790497743048d2aebd9decff60709292f74c8cfd48cf99bf185881db02fce288",
      "blockNumber": 113494,
      "transactionIndex": 1,
      "confirmations": null,
      "from": "0x120A270bbC009644e35F0bB6ab13f95b8199c4ad",
      "gasPrice": {
        "_hex": "0xd27cd0a7c"
      },
      "gasLimit": {
        "_hex": "0x3d090"
      },
      "to": "0x60d85a32126130b225913C23dF4e5EF8b759fA09",
      "value": {
        "_hex": "0x28b6953ae751db0000"
      },
      "nonce": 910,
      "data": "0x",
      "r": "0xe0b6817a48c7632ae36856903065ea0fb41b5249e17b060c7497c9fe415555a2",
      "s": "0x615baecad3c85e7783cbff687da5364fc740d2e0cf6270efb6b2ad6b3a7985a4",
      "v": 28,
      "creates": null,
      "raw": "0xf87082038e850d27cd0a7c8303d0909460d85a32126130b225913c23df4e5ef8b759fa098928b6953ae751db0000801ca0e0b6817a48c7632ae36856903065ea0fb41b5249e17b060c7497c9fe415555a2a0615baecad3c85e7783cbff687da5364fc740d2e0cf6270efb6b2ad6b3a7985a4",
      "networkId": 0,
      "chainId": 0
    }
  ]
}