{
  "hash": "0xe55a8710688702dc5bce3ed0498438794d177596d021253c540bfbc027d0ee97",
  "parentHash": "0xcd0974ee118968063df93ae004ad5dcb9cfa93e4bc38fd0ffed60affb28a7d4b",
  "number": 61201,
  "timestamp": 1439168613,
  "nonce": "0x674f7db8972825cf",
  "difficulty": 1726961290266,
  "gasLimit": {
    "_hex": "0x2fefd8"
  },
  "gasUsed": {
    "_hex": "0xa410"
  },
  "miner": "0xBf034FB91a14C1FdC209f70e194C5704a6D844eB",
  "extraData": "0x",
  "transactions": [
    {
      "hash": "0xd67d8d2b879154cd42b9a113ba6c99e0a01e79f23c483cc7c94ae70efbab8ecc",
      "blockHash": "0xe55a8710688702dc5bce3ed0498438794d177596d021253c540bfbc027d0ee97",
      "blockNumber": 61201,
      "transactionIndex": 0,
      "confirmations": null,
      "from": "0x32Be343B94f860124dC4fEe278FDCBD38C102D88",
      "gasPrice": {
        "_hex": "0xd6eab1d9d"
      },
      "gasLimit": {
        "_hex": "0x5208"
      },
      "to": "0xF0b384EC537546769FAEDdd131A1453723714c4E",
      "value": {
        "_hex": "0xdbd2fc137a30000"
      },
      "nonce": 132,
      "data": "0x",
      "r": "0x1162c9b7fc40f0b60d772582572b85317a5a4be4fb28ccbcf002bb9d43d1b1aa",
      "s": "0x15ada59526e049a585b9c7050d28aa45939dd05d86ac1d5d3dfcf46b22e011e0",
      "v": 28,
      "creates": null,
      "raw": "0xf86d8184850d6eab1d9d82520894f0b384ec537546769faeddd131a1453723714c4e880dbd2fc137a30000801ca01162c9b7fc40f0b60d772582572b85317a5a4be4fb28ccbcf002bb9d43d1b1aaa015ada59526e049a585b9c7050d28aa45939dd05d86ac1d5d3dfcf46b22e011e0",
      "networkId": 0,
      "chainId": 0
    },
    {
      "hash": "0x31ea1d391efb01870521f96cf720a3c907643d8aeac756a30b0a02e3722adf05",
      "blockHash": "0xe55a8710688702dc5bce3ed0498438794d177596d021253c540bfbc027d0ee97",
      "blockNumber": 61201,
      "transactionIndex": 1,
      "confirmations": null,
      "from": "0xF5EeDc192aB70b08D8354384aD94efD095849E00",
      "gasPrice": {
        "_hex": "0xd6eab1d9d"
      },
      "gasLimit": {
        "_hex": "0x5208"
      },
      "to": "0x32Be343B94f860124dC4fEe278FDCBD38C102D88",
      "value": {
        "_hex": "0x4d31b369636870000"
      },
      "nonce": 17,
      "data": "0x",
      "r": "0xa29ce58af650db19b0a45f45d6f6071aead0880ff9100f24bb900a55a00bfa59",
      "s": "0x2862de87212171a74fddf0133abbfae1042e7b1c1fb4a9719076abfd8d6e8cd4",
      "v": 28,
      "creates": null,
      "raw": "0xf86d11850d6eab1d9d8252089432be343b94f860124dc4fee278fdcbd38c102d888904d31b369636870000801ca0a29ce58af650db19b0a45f45d6f6071aead0880ff9100f24bb900a55a00bfa59a02862de87212171a74fddf0133abbfae1042e7b1c1fb4a9719076abfd8d6e8cd4",
      "networkId": 0,
      "chainId": 0
    }
  ]
}