{
  "hash": "0xedb8fa198ad78e064da71d2a7c96c6b68c7a23b0cc236acb6fab90c467681d19",
  "parentHash": "0xe6dd36688465a1e355b2db7b08abc568c17099ffaf8231df35fd2256eacfd7d7",
  "number": 81732,
  "timestamp": 1439506806,
  "nonce": "0xa2cd1c7bc915b497",
  "difficulty": 2425896341669,
  "gasLimit": {
    "_hex": "0x2fefd8"
  },
  "gasUsed": {
    "_hex": "0x5208"
  },
  "miner": "0xbb7B8287f3F0a933474a79eAe42CBCa977791171",
  "extraData": "0x476574682f4c5649562f76312e302e312f6c696e75782f676f312e342e32",
  "transactions": [
    {
      "hash": "0xeb3303b8159137ce93e4f41848a8df7ab655040cdf076bad3dab688a322a129f",
      "blockHash": "0xedb8fa198ad78e064da71d2a7c96c6b68c7a23b0cc236acb6fab90c467681d19",
      "blockNumber": 81732,
      "transactionIndex": 0,
      "confirmations": null,
      "from": "0xe53C68796212033e4E6F9Cff56E19c461eb454F9",
      "gasPrice": {
        "_hex": "0xdb52b9d64"
      },
      "gasLimit": {
        "_hex": "0x15f90"
      },
      "to": "0x6625997D5DDC109B93B0e6dD488f416D8592Cd25",
      "value": {
        "_hex": "0x1a901935dc63b450d0"
      },
      "nonce": 1,
      "data": "0x",
      "r": "0x88f3beb422c6085328087e0ebbbb4fa6548abf8ab456569fc533690622fe88dc",
      "s": "0x649d1863e19c730d6cba1bde753665c04f46b9b95adf894219d8e25531a6d4c9",
      "v": 28,
      "creates": null,
      "raw": "0xf86e01850db52b9d6483015f90946625997d5ddc109b93b0e6dd488f416d8592cd25891a901935dc63b450d0801ca088f3beb422c6085328087e0ebbbb4fa6548abf8ab456569fc533690622fe88dca0649d1863e19c730d6cba1bde753665c04f46b9b95adf894219d8e25531a6d4c9",
      "networkId": 0,
      "chainId": 0
    }
  ]
}