{
  "hash": "0x877b8cefa524411dd0831bc8616f258dcfe34a636b89db53b4ff78bd745c5f43",
  "parentHash": "0xc35f0d3eba705c2068cce2df1d586bf07f91ddbcca4105c482c901aa41b56530",
  "number": 48637,
  "timestamp": 1438960236,
  "nonce": "0xd9d6fe2d0108b5d1",
  "difficulty": 1472156459291,
  "gasLimit": {
    "_hex": "0x1b0f0"
  },
  "gasUsed": {
    "_hex": "0x546c"
  },
  "miner": "0xbb7B8287f3F0a933474a79eAe42CBCa977791171",
  "extraData": "0x476574682f4c5649562f76312e302e312f6c696e75782f676f312e342e32",
  "transactions": [
    {
      "hash": "0xf24aada49077d9d47902eee0a849d22572f51ca805af1f44e0eefd4477e3f7c3",
      "blockHash": "0x877b8cefa524411dd0831bc8616f258dcfe34a636b89db53b4ff78bd745c5f43",
      "blockNumber": 48637,
      "transactionIndex": 0,
      "confirmations": null,
      "from": "0x2100381D60a5B54aDC09D19683A8F6D5bB4bFbCb",
      "gasPrice": {
        "_hex": "0xe9feb6a8c"
      },
      "gasLimit": {
        "_hex": "0x15f90"
      },
      "to": "0x2910543Af39abA0Cd09dBb2D50200b3E800A63D2",
      "value": {
        "_hex": "0x10f0cf064dd59200000"
      },
      "nonce": 2,
      "data": "0x454e37394b33593930",
      "r": "0x8f4896de7f8dd24e6b5f31a5ebecfa67aadbe3b2fca76184d73e814b6a432f97",
      "s": "0x0e57149083d4e82f60230461d23d77baf8ce066f3b194490d4a8c8d0fce82105",
      "v": 28,
      "creates": null,
      "raw": "0xf87802850e9feb6a8c83015f90942910543af39aba0cd09dbb2d50200b3e800a63d28a010f0cf064dd5920000089454e37394b335939301ca08f4896de7f8dd24e6b5f31a5ebecfa67aadbe3b2fca76184d73e814b6a432f97a00e57149083d4e82f60230461d23d77baf8ce066f3b194490d4a8c8d0fce82105",
      "networkId": 0,
      "chainId": 0
    }
  ]
}