{
  "hash": "0x8dac84eae78bb01438b135dd6c05419cdc38fcc5afcb9f4e04d5a34c801f3d11",
  "parentHash": "0x51a26f1f1a7407a66b27f55a9f87f517e32ec7cb088c8c8b08e72fe19ccee620",
  "number": 81825,
  "timestamp": 1439508476,
  "nonce": "0x41a44fb56934986e",
  "difficulty": 2427054243096,
  "gasLimit": {
    "_hex": "0x2fefd8"
  },
  "gasUsed": {
    "_hex": "0x546c"
  },
  "miner": "0x3FF679B0823a026F2378E5f5F22A6F127cC85828",
  "extraData": "0x",
  "transactions": [
    {
      "hash": "0x26ae9c9e3582501f888caf9b6b02fa70917b34ea4e4f5a2869193c81c7c4477b",
      "blockHash": "0x8dac84eae78bb01438b135dd6c05419cdc38fcc5afcb9f4e04d5a34c801f3d11",
      "blockNumber": 81825,
      "transactionIndex": 0,
      "confirmations": null,
      "from": "0x72393d37B451effB9e1Ff3b8552712e2A970D8c2",
      "gasPrice": {
        "_hex": "0x110c8f7d8de"
      },
      "gasLimit": {
        "_hex": "0xc350"
      },
      "to": "0x2910543Af39abA0Cd09dBb2D50200b3E800A63D2",
      "value": {
        "_hex": "0xc12dc63fa970000"
      },
      "nonce": 2,
      "data": "0x454e41315648385247",
      "r": "0x9bb42de4bbb7358a7ccec37c6d2ee77fd32bd3eaab5ba47a479356cbdb0346fe",
      "s": "0xacf9c75219b2d80b7872ed9732caef3adc985213d9cca057895a9859be83f996",
      "v": 27,
      "creates": null,
      "raw": "0xf87602860110c8f7d8de82c350942910543af39aba0cd09dbb2d50200b3e800a63d2880c12dc63fa97000089454e413156483852471ba09bb42de4bbb7358a7ccec37c6d2ee77fd32bd3eaab5ba47a479356cbdb0346fea0acf9c75219b2d80b7872ed9732caef3adc985213d9cca057895a9859be83f996",
      "networkId": 0,
      "chainId": 0
    }
  ]
}