{
  "hash": "0x3d3c9a0cb02e02b2a1827e390c04d2ab449ddc206a34f3bb675abb534439e533",
  "parentHash": "0x629284c5e541e7b26107676f68c325ab2827b70bb785ed2995a4d859e4a22f45",
  "number": 115556,
  "timestamp": 1440059196,
  "nonce": "0x8223640d5c0fe0e2",
  "difficulty": 4607460371421,
  "gasLimit": {
    "_hex": "0x2fefd8"
  },
  "gasUsed": {
    "_hex": "0xf618"
  },
  "miner": "0x157c6f2431eB1a95797EE86F7d17b3c0FD47A247",
  "extraData": "0x476574682f76312e302e312f77696e646f77732f676f312e342e32",
  "transactions": [
    {
      "hash": "0xc6e2e0e78c12243e6a3b87c06902fb69b16e00a5260ff5f773ae358c608c47eb",
      "blockHash": "0x3d3c9a0cb02e02b2a1827e390c04d2ab449ddc206a34f3bb675abb534439e533",
      "blockNumber": 115556,
      "transactionIndex": 0,
      "confirmations": null,
      "from": "0x32Be343B94f860124dC4fEe278FDCBD38C102D88",
      "gasPrice": {
        "_hex": "0xd83a2b57a"
      },
      "gasLimit": {
        "_hex": "0x5208"
      },
      "to": "0x1a1D1373C41D8929A25e66944D933d2389Ba3654",
      "value": {
        "_hex": "0x49e7eff8f1b500000"
      },
      "nonce": 1436,
      "data": "0x",
      "r": "0x134fd35f55cfca16be533bd98534f495fd5b4cf4b1a3a8512a8fd1b87bb9391b",
      "s": "0x47d04c7dfbaa23a9b3223b4a4196c5187c6caa0a505f7451518b7b1021f3f6c4",
      "v": 28,
      "creates": null,
      "raw": "0xf86f82059c850d83a2b57a825208941a1d1373c41d8929a25e66944d933d2389ba365489049e7eff8f1b500000801ca0134fd35f55cfca16be533bd98534f495fd5b4cf4b1a3a8512a8fd1b87bb9391ba047d04c7dfbaa23a9b3223b4a4196c5187c6caa0a505f7451518b7b1021f3f6c4",
      "networkId": 0,
      "chainId": 0
    },
    {
      "hash": "0xfd8c4ff4a36dd0eccf58f62a68680ebd2e231512082b69d265a0b016a3adbbf4",
      "blockHash": "0x3d3c9a0cb02e02b2a1827e390c04d2ab449ddc206a34f3bb675abb534439e533",
      "blockNumber": 115556,
      "transactionIndex": 1,
      "confirmations": null,
      "from": "0x32Be343B94f860124dC4fEe278FDCBD38C102D88",
      "gasPrice": {
        "_hex": "0xd83a2b57a"
      },
      "gasLimit": {
        "_hex": "0x5208"
      },
      "to": "0xc93a69dFC0fb3E867D9207599f7fe87d51619635",
      "value": {
        "_hex": "0x681321d44071f0000"
      },
      "nonce": 1437,
      "data": "0x",
      "r": "0x35d4a83de7b5f666bbd713464a1f33bd98ba876d38b62af9e368362178ab6945",
      "s": "0x2c8eda5ef925545e119b785675281f1b27fc0eac23802de20d6c1176fa7e05d1",
      "v": 27,
      "creates": null,
      "raw": "0xf86f82059d850d83a2b57a82520894c93a69dfc0fb3e867d9207599f7fe87d51619635890681321d44071f0000801ba035d4a83de7b5f666bbd713464a1f33bd98ba876d38b62af9e368362178ab6945a02c8eda5ef925545e119b785675281f1b27fc0eac23802de20d6c1176fa7e05d1",
      "networkId": 0,
      "chainId": 0
    },
    {
      "hash": "0xf3cabd7281cddb8185b20837a213764d6e4c2f1616b596406c625ea3c72f8bbf",
      "blockHash": "0x3d3c9a0cb02e02b2a1827e390c04d2ab449ddc206a34f3bb675abb534439e533",
      "blockNumber": 115556,
      "transactionIndex": 2,
      "confirmations": null,
      "from": "0x32Be343B94f860124dC4fEe278FDCBD38C102D88",
      "gasPrice": {
        "_hex": "0xd83a2b57a"
      },
      "gasLimit": {
        "_hex": "0x5208"
      },
      "to": "0x3f6da2f18Ce077B065ac7bcae884bF439a222B35",
      "value": {
        "_hex": "0x5f66afa3f7d370000"
      },
      "nonce": 1438,
      "data": "0x",
      "r": "0x240ece871a4d6db7d42f174e2cce4235f5bad6baa8f8efc6d7c7df0a598bef53",
      "s": "0x5a503d81ba8b55c695f69f7e519f885df063d1648374af25f58895f227187ff9",
      "v": 27,
      "creates": null,
      "raw": "0xf86f82059e850d83a2b57a825208943f6da2f18ce077b065ac7bcae884bf439a222b358905f66afa3f7d370000801ba0240ece871a4d6db7d42f174e2cce4235f5bad6baa8f8efc6d7c7df0a598bef53a05a503d81ba8b55c695f69f7e519f885df063d1648374af25f58895f227187ff9",
      "networkId": 0,
      "chainId": 0
    }
  ]
}