{
  "hash": "0x1da9eeb9da9dbefcc1479ca5740739b7bc6d59260af27903cae8bd8393cd81bb",
  "parentHash": "0xd4a9f5789b7d71c9f68afcdc35c9918f81ea6d5dcf2f40cb78c12f6c471fb317",
  "number": 68478,
  "timestamp": 1439288537,
  "nonce": "0x933d3b601e1c1b50",
  "difficulty": 2006465700800,
  "gasLimit": {
    "_hex": "0x2fefd8"
  },
  "gasUsed": {
    "_hex": "0x14820"
  },
  "miner": "0x4947190fcC30D3fb3a16233b259bFe6b3492339a",
  "extraData": "0x476574682f76312e302e312d38326566323666362f6c696e75782f676f312e34",
  "transactions": [
    {
      "hash": "0x5067a9810d2eb79f5186e9877265dd0681bc2e9deb1166d1d2697f8c85d765e1",
      "blockHash": "0x1da9eeb9da9dbefcc1479ca5740739b7bc6d59260af27903cae8bd8393cd81bb",
      "blockNumber": 68478,
      "transactionIndex": 0,
      "confirmations": null,
      "from": "0x1232215C783F56556b53706bF95870Bfb81DC553",
      "gasPrice": {
        "_hex": "0xba43b7400"
      },
      "gasLimit": {
        "_hex": "0x5208"
      },
      "to": "0x73e98AbEE8F6fa55e8a94851E3C2225195efA436",
      "value": {
        "_hex": "0x4e1253f5de4000"
      },
      "nonce": 1,
      "data": "0x",
      "r": "0x7e2b5d272ae27ef84d5524d2ff86873733518966e3ab52f3ba38b76c0ada0910",
      "s": "0x0d0a06e7355a2aab40064daab560adfa159202338e6f94ee8857a7815b286968",
      "v": 28,
      "creates": null,
      "raw": "0xf86b01850ba43b74008252089473e98abee8f6fa55e8a94851e3c2225195efa436874e1253f5de4000801ca07e2b5d272ae27ef84d5524d2ff86873733518966e3ab52f3ba38b76c0ada0910a00d0a06e7355a2aab40064daab560adfa159202338e6f94ee8857a7815b286968",
      "networkId": 0,
      "chainId": 0
    },
    {
      "hash": "0x2b7f5f82a53d89740fc8aa2f9f2a72c746cfb10731dc09d7c6fdd1efb723f1ee",
      "blockHash": "0x1da9eeb9da9dbefcc1479ca5740739b7bc6d59260af27903cae8bd8393cd81bb",
      "blockNumber": 68478,
      "transactionIndex": 1,
      "confirmations": null,
      "from": "0x12f76570B97A70D572c014BD2393A5Bddaf61605",
      "gasPrice": {
        "_hex": "0xba43b7400"
      },
      "gasLimit": {
        "_hex": "0x5208"
      },
      "to": "0xff69D0DaCA53c25BA6026094841F66E48735755A",
      "value": {
        "_hex": "0x4e1253f5de4000"
      },
      "nonce": 1,
      "data": "0x",
      "r": "0x10932c2a2b2685c152f1be4a1a842d15db91a60fc6ee839528637795303fd35f",
      "s": "0x4791604bb40b0fba38015b59451ba8fc813e4f8234e7b9a3a2085188f8019ea2",
      "v": 28,
      "creates": null,
      "raw": "0xf86b01850ba43b740082520894ff69d0daca53c25ba6026094841f66e48735755a874e1253f5de4000801ca010932c2a2b2685c152f1be4a1a842d15db91a60fc6ee839528637795303fd35fa04791604bb40b0fba38015b59451ba8fc813e4f8234e7b9a3a2085188f8019ea2",
      "networkId": 0,
      "chainId": 0
    },
    {
      "hash": "0xb3315d605b05d7f70d4205959e69d3125d15a9db2a5dfb0c04430d3d466a435a",
      "blockHash": "0x1da9eeb9da9dbefcc1479ca5740739b7bc6d59260af27903cae8bd8393cd81bb",
      "blockNumber": 68478,
      "transactionIndex": 2,
      "confirmations": null,
      "from": "0x6747f922385c9a6F9cfDf095F34345257DD597bE",
      "gasPrice": {
        "_hex": "0xba43b7400"
      },
      "gasLimit": {
        "_hex": "0x5208"
      },
      "to": "0x15C0571D879333Ca1177B66D3b466a830454A691",
      "value": {
        "_hex": "0x1fcbfa42bd6000"
      },
      "nonce": 103,
      "data": "0x",
      "r": "0xb325f420eabaff6edf8487de125bdca2d502d3f48d15a948bec3af629f2f0bfb",
      "s": "0x7c399a71ad97ad59fa79f403cc78ac730d3ab028d75ddc239b319b8d5f4d2f0a",
      "v": 27,
      "creates": null,
      "raw": "0xf86b67850ba43b74008252089415c0571d879333ca1177b66d3b466a830454a691871fcbfa42bd6000801ba0b325f420eabaff6edf8487de125bdca2d502d3f48d15a948bec3af629f2f0bfba07c399a71ad97ad59fa79f403cc78ac730d3ab028d75ddc239b319b8d5f4d2f0a",
      "networkId": 0,
      "chainId": 0
    },
    {
      "hash": "0x9173bda31c5216f5e233fd41ff39e02f7c2fcf685df176eb01dbe5fae24980f6",
      "blockHash": "0x1da9eeb9da9dbefcc1479ca5740739b7bc6d59260af27903cae8bd8393cd81bb",
      "blockNumber": 68478,
      "transactionIndex": 3,
      "confirmations": null,
      "from": "0xC1f45F80fAD5878e7f2c7599B3222d100adB0ddd",
      "gasPrice": {
        "_hex": "0xba43b7400"
      },
      "gasLimit": {
        "_hex": "0x5208"
      },
      "to": "0xd53Fd1D3ECCDA88636d23084700CC975549fe5e8",
      "value": {
        "_hex": "0x4e1253f5de4000"
      },
      "nonce": 1,
      "data": "0x",
      "r": "0xee9bde6b7aac7993bb28b2160fc882e036b81fc772eb0542d7d391de067643db",
      "s": "0x1933d65914db104a196f38bd87ebdc6a1b44b218e83a033b7f5d26fedcb794e9",
      "v": 27,
      "creates": null,
      "raw": "0xf86b01850ba43b740082520894d53fd1d3eccda88636d23084700cc975549fe5e8874e1253f5de4000801ba0ee9bde6b7aac7993bb28b2160fc882e036b81fc772eb0542d7d391de067643dba01933d65914db104a196f38bd87ebdc6a1b44b218e83a033b7f5d26fedcb794e9",
      "networkId": 0,
      "chainId": 0
    }
  ]
}