{
  "hash": "0xc196f13b7bc32f8b7a811b6af020c519a1b56e628dbe2b656c8bedb00fc8b8c4",
  "parentHash": "0xea8e6ab1b7cbc622cec5ad351bba7383ef8003851f5a2aeafbc0d1f99cd01180",
  "number": 51669,
  "timestamp": 1439008828,
  "nonce": "0xe648a2f34f3fc1ac",
  "difficulty": 1558905627686,
  "gasLimit": {
    "_hex": "0xcd610"
  },
  "gasUsed": {
    "_hex": "0x7a120"
  },
  "miner": "0xf1C63182E2074b561fC3999a9ABEf18aD2B18052",
  "extraData": "0x606461746560206f6e2060686f73746e616d6560",
  "transactions": [
    {
      "hash": "0x9d1f6ab81442ce176f82ae21c3b9ccde7fadf3effa710cc098f006575e9f162a",
      "blockHash": "0xc196f13b7bc32f8b7a811b6af020c519a1b56e628dbe2b656c8bedb00fc8b8c4",
      "blockNumber": 51669,
      "transactionIndex": 0,
      "confirmations": null,
      "from": "0xFCf9f6A78f06227522c6f948ec0119dA31680Ef7",
      "gasPrice": {
        "_hex": "0xd9eee3f8e"
      },
      "gasLimit": {
        "_hex": "0x7a120"
      },
      "to": "0x109C4f2CCc82C4d77Bde15F306707320294Aea3F",
      "value": {
        "_hex": "0xde0b6b3a7640000"
      },
      "nonce": 55,
      "data": "0x",
      "r": "0x732386713bf9b651ba109f2291b8591f93b6b3ca6392e526fd3ce5ee664678c6",
      "s": "0x1633b1edb9594c405994d66ec1ab320dffe6d96593275ebda7394d248a04d96f",
      "v": 27,
      "creates": null,
      "raw": "0xf86d37850d9eee3f8e8307a12094109c4f2ccc82c4d77bde15f306707320294aea3f880de0b6b3a7640000801ba0732386713bf9b651ba109f2291b8591f93b6b3ca6392e526fd3ce5ee664678c6a01633b1edb9594c405994d66ec1ab320dffe6d96593275ebda7394d248a04d96f",
      "networkId": 0,
      "chainId": 0
    }
  ]
}