{
  "hash": "0xdfe8be523755b03d457c4c28f49db2ea199c2f4e97d1e1e5a2af6d7bc0f142cf",
  "parentHash": "0xac22679cddf41afcc947a200d678cfaa80d50157ab9a4bdcd3a58662be7c9af2",
  "number": 75340,
  "timestamp": 1439401667,
  "nonce": "0x23948b95449ba416",
  "difficulty": 2197573252615,
  "gasLimit": {
    "_hex": "0x2fefd8"
  },
  "gasUsed": {
    "_hex": "0x70d3"
  },
  "miner": "0x8eB3747b8397C48BC29fd5Df6765AbCEfbDffFCA",
  "extraData": "0x476574682f76312e302e312d38326566323666362f6c696e75782f676f312e34",
  "transactions": [
    {
      "hash": "0x67dd288774a9917b13640b7013702a9180014f18566044522f0bb0125658aca8",
      "blockHash": "0xdfe8be523755b03d457c4c28f49db2ea199c2f4e97d1e1e5a2af6d7bc0f142cf",
      "blockNumber": 75340,
      "transactionIndex": 0,
      "confirmations": null,
      "from": "0x326Be8F71bFb0379f989aAB1CC1fE37f0a771f60",
      "gasPrice": {
        "_hex": "0x118a650e323"
      },
      "gasLimit": {
        "_hex": "0x493e0"
      },
      "to": "0xD79B4C6791784184e2755B2fC1659eaaB0f80456",
      "value": {
        "_hex": "0x0"
      },
      "nonce": 93,
      "data": "0xbd66528a73302e3931363336363032343631393932323800000000000000000000000000",
      "r": "0x1e53a1688ff585ed02f80434ab5762aaf71e56e68972bcd4c5987f7778d7e0b9",
      "s": "0x3aaefa2966e428ad055a5980a5ee7b9654a7eef75c6b799d7fc4b9fdf3f53b43",
      "v": 28,
      "creates": null,
      "raw": "0xf88a5d860118a650e323830493e094d79b4c6791784184e2755b2fc1659eaab0f8045680a4bd66528a73302e39313633363630323436313939323238000000000000000000000000001ca01e53a1688ff585ed02f80434ab5762aaf71e56e68972bcd4c5987f7778d7e0b9a03aaefa2966e428ad055a5980a5ee7b9654a7eef75c6b799d7fc4b9fdf3f53b43",
      "networkId": 0,
      "chainId": 0
    }
  ]
}