{
  "hash": "0x5c3bd76d0b0e2778f8be1afe4a0c3b01c6aa00caf95995a3eab8982fe5692581",
  "parentHash": "0x90c556b0f46f325a589d2d6ce8bc774223309b82cfd6562ae638673f03c8e90c",
  "number": 99231,
  "timestamp": 1439786565,
  "nonce": "0x8a6cf7fcacba0b43",
  "difficulty": 3791817828296,
  "gasLimit": {
    "_hex": "0x2fefd8"
  },
  "gasUsed": {
    "_hex": "0xa410"
  },
  "miner": "0xeB1325C8D9d3ea8D74aC11F4B00F1B2367686319",
  "extraData": "0x",
  "transactions": [
    {
      "hash": "0x0c6029b4cc3188ac5fba7040cc056dfa766bac4eae13e3675b3c7217b696fde7",
      "blockHash": "0x5c3bd76d0b0e2778f8be1afe4a0c3b01c6aa00caf95995a3eab8982fe5692581",
      "blockNumber": 99231,
      "transactionIndex": 0,
      "confirmations": null,
      "from": "0x32Be343B94f860124dC4fEe278FDCBD38C102D88",
      "gasPrice": {
        "_hex": "0xde732a120"
      },
      "gasLimit": {
        "_hex": "0x5208"
      },
      "to": "0xAaA4BEfA989B980188a418Cc5C4C02E7d9103818",
      "value": {
        "_hex": "0x1af4388fefaf540000"
      },
      "nonce": 1055,
      "data": "0x",
      "r": "0xe2277415c072e83aa4a1826cf27305c25dd3873866fd52475bbde9108b01df0e",
      "s": "0x3907a44236924455eadb166641c1d2ed04703247ee4db08f0cf0c824e3457515",
      "v": 27,
      "creates": null,
      "raw": "0xf86f82041f850de732a12082520894aaa4befa989b980188a418cc5c4c02e7d9103818891af4388fefaf540000801ba0e2277415c072e83aa4a1826cf27305c25dd3873866fd52475bbde9108b01df0ea03907a44236924455eadb166641c1d2ed04703247ee4db08f0cf0c824e3457515",
      "networkId": 0,
      "chainId": 0
    },
    {
      "hash": "0x84cb18da3bc8320ef240efc3e03ffba160f4d9de09d6f6f2ceecb853fe35da6e",
      "blockHash": "0x5c3bd76d0b0e2778f8be1afe4a0c3b01c6aa00caf95995a3eab8982fe5692581",
      "blockNumber": 99231,
      "transactionIndex": 1,
      "confirmations": null,
      "from": "0x32Be343B94f860124dC4fEe278FDCBD38C102D88",
      "gasPrice": {
        "_hex": "0xde732a120"
      },
      "gasLimit": {
        "_hex": "0x5208"
      },
      "to": "0xd12Cd8A37F074e7eAFae618C986Ff825666198bd",
      "value": {
        "_hex": "0x180214f7e0723300000"
      },
      "nonce": 1056,
      "data": "0x",
      "r": "0xb42e0384623afbc9c6d7878b5af97fd811d2fa11fd48ce836e74018b52a52c26",
      "s": "0x5eb0fdcf7ee24f71bad630ce8c159ce21579763a53cd8939a10b728ecbd90986",
      "v": 28,
      "creates": null,
      "raw": "0xf870820420850de732a12082520894d12cd8a37f074e7eafae618c986ff825666198bd8a0180214f7e0723300000801ca0b42e0384623afbc9c6d7878b5af97fd811d2fa11fd48ce836e74018b52a52c26a05eb0fdcf7ee24f71bad630ce8c159ce21579763a53cd8939a10b728ecbd90986",
      "networkId": 0,
      "chainId": 0
    }
  ]
}