{
  "hash": "0x9b5c15481ddb1584bfc588365fda8deb68329429306399ec6aa091bc52f5cd5d",
  "parentHash": "0x51acfea20198dc0937c9b8d664b276085eb9993f2119b6fc437fb350bbc985ee",
  "number": 120387,
  "timestamp": 1440159224,
  "nonce": "0x232331c872cfde0c",
  "difficulty": 4400379334731,
  "gasLimit": {
    "_hex": "0x2fefd8"
  },
  "gasUsed": {
    "_hex": "0xa410"
  },
  "miner": "0xBD744E3F13D79B33F6c8E1d5E32F8E9BA2866c46",
  "extraData": "0xd783010002844765746887676f312e342e32856c696e7578",
  "transactions": [
    {
      "hash": "0xc8a8cd3cd2cd8da2f0af313633cdeb921662660a768aece91597207966c0e321",
      "blockHash": "0x9b5c15481ddb1584bfc588365fda8deb68329429306399ec6aa091bc52f5cd5d",
      "blockNumber": 120387,
      "transactionIndex": 0,
      "confirmations": null,
      "from": "0x123843545FB525C8E134c9A5F15ADA6865cc3848",
      "gasPrice": {
        "_hex": "0xba43b7400"
      },
      "gasLimit": {
        "_hex": "0x7530"
      },
      "to": "0xa9f5E7bf6Cbf6fEc55B30850Eb492b47A376d050",
      "value": {
        "_hex": "0x1532370c64a9bc0000"
      },
      "nonce": 17,
      "data": "0x",
      "r": "0xe833d32813013ccdb992f73b412e41a192e153a5e6149969a40a11ded918ec6b",
      "s": "0x413e1fb3fa07f2d898e7ae9e60ab9a27bf69e526b9e4b719845431bb41f4e4b1",
      "v": 27,
      "creates": null,
      "raw": "0xf86d11850ba43b740082753094a9f5e7bf6cbf6fec55b30850eb492b47a376d050891532370c64a9bc0000801ba0e833d32813013ccdb992f73b412e41a192e153a5e6149969a40a11ded918ec6ba0413e1fb3fa07f2d898e7ae9e60ab9a27bf69e526b9e4b719845431bb41f4e4b1",
      "networkId": 0,
      "chainId": 0
    },
    {
      "hash": "0x090da06b61f0a61f46936454e637c7f31ee0740972628a9309f5482440ac7f02",
      "blockHash": "0x9b5c15481ddb1584bfc588365fda8deb68329429306399ec6aa091bc52f5cd5d",
      "blockNumber": 120387,
      "transactionIndex": 1,
      "confirmations": null,
      "from": "0x602b95F91754f9Fc07750f7cE2dD2b5587F29E9B",
      "gasPrice": {
        "_hex": "0xba43b7400"
      },
      "gasLimit": {
        "_hex": "0x15f90"
      },
      "to": "0xC272293AD54739bF7aAdd8924Aa3d712D672Eed1",
      "value": {
        "_hex": "0x746a528800"
      },
      "nonce": 0,
      "data": "0x",
      "r": "0x5192b34d6e7086ca5cfbfc0c8c2d38c5338c7f47eb99be00048d3c826e2fff08",
      "s": "0x78325c1d0c6f91b20a5213d6e313f4ffb61e001a9ae48a726fa9271ce27a771e",
      "v": 28,
      "creates": null,
      "raw": "0xf86a80850ba43b740083015f9094c272293ad54739bf7aadd8924aa3d712d672eed185746a528800801ca05192b34d6e7086ca5cfbfc0c8c2d38c5338c7f47eb99be00048d3c826e2fff08a078325c1d0c6f91b20a5213d6e313f4ffb61e001a9ae48a726fa9271ce27a771e",
      "networkId": 0,
      "chainId": 0
    }
  ]
}