{
  "hash": "0xfe53c7320b174d32826501cf893a49a6faa3289a48d948760732d32256781205",
  "parentHash": "0xe36fcd85dd62062099e44d17122295d066ef61822ac3801a2f7f97c501b24978",
  "number": 68484,
  "timestamp": 1439288617,
  "nonce": "0x6eca395be2699c3a",
  "difficulty": 2008424660647,
  "gasLimit": {
    "_hex": "0x2fefd8"
  },
  "gasUsed": {
    "_hex": "0xf618"
  },
  "miner": "0x5F8F73E26CdF436f19Cb24C82F90A15AFe55b592",
  "extraData": "0x476574682f76312e302e312f77696e646f77732f676f312e342e32",
  "transactions": [
    {
      "hash": "0xe9233d7550282252a8718f06cfc006fcf5b72c1e9af805d9c50af7de13a3f2bd",
      "blockHash": "0xfe53c7320b174d32826501cf893a49a6faa3289a48d948760732d32256781205",
      "blockNumber": 68484,
      "transactionIndex": 0,
      "confirmations": null,
      "from": "0x2c8bFf7fa761b56d82A36c06274CC88a305A63fd",
      "gasPrice": {
        "_hex": "0xba43b7400"
      },
      "gasLimit": {
        "_hex": "0x5208"
      },
      "to": "0xE68d56Fa75ce6DCb92Da34655D9Be32fB19a687B",
      "value": {
        "_hex": "0x653580cf6eb000"
      },
      "nonce": 1,
      "data": "0x",
      "r": "0x86eb622bd5b9c4f8503314edd70faf8572fc6e7b85b7e4afb305c728f4065332",
      "s": "0x540b4f38255f23a602ddf2b2e177a8dab8081e92be362225702a402a74dfb06f",
      "v": 27,
      "creates": null,
      "raw": "0xf86b01850ba43b740082520894e68d56fa75ce6dcb92da34655d9be32fb19a687b87653580cf6eb000801ba086eb622bd5b9c4f8503314edd70faf8572fc6e7b85b7e4afb305c728f4065332a0540b4f38255f23a602ddf2b2e177a8dab8081e92be362225702a402a74dfb06f",
      "networkId": 0,
      "chainId": 0
    },
    {
      "hash": "0x6720b460b505e7b58668b8e531e30dcf173fd4dfd138d71d0653bc38ba60d63e",
      "blockHash": "0xfe53c7320b174d32826501cf893a49a6faa3289a48d948760732d32256781205",
      "blockNumber": 68484,
      "transactionIndex": 1,
      "confirmations": null,
      "from": "0xC466ba67fe0246f41338f00e0D0f7A713ADA0020",
      "gasPrice": {
        "_hex": "0xba43b7400"
      },
      "gasLimit": {
        "_hex": "0x5208"
      },
      "to": "0x6ebdc80032C59CB05b8AED75DD5AB8abe205DdcA",
      "value": {
        "_hex": "0x653580cf6eb000"
      },
      "nonce": 1,
      "data": "0x",
      "r": "0xa327bc0d3d9328eef85eb5e8f0c7b933de414f4c4e1929bef02a68346cc3b157",
      "s": "0x5a96e9ace0de58173b21b4520770d0740f611754b4eff7e1d993c060bf122e88",
      "v": 28,
      "creates": null,
      "raw": "0xf86b01850ba43b7400825208946ebdc80032c59cb05b8aed75dd5ab8abe205ddca87653580cf6eb000801ca0a327bc0d3d9328eef85eb5e8f0c7b933de414f4c4e1929bef02a68346cc3b157a05a96e9ace0de58173b21b4520770d0740f611754b4eff7e1d993c060bf122e88",
      "networkId": 0,
      "chainId": 0
    },
    {
      "hash": "0x013655e5651bf09ee700c9c4335d1dfaf06274dc6ce3b1f8de4626a85a59a275",
      "blockHash": "0xfe53c7320b174d32826501cf893a49a6faa3289a48d948760732d32256781205",
      "blockNumber": 68484,
      "transactionIndex": 2,
      "confirmations": null,
      "from": "0x6747f922385c9a6F9cfDf095F34345257DD597bE",
      "gasPrice": {
        "_hex": "0xba43b7400"
      },
      "gasLimit": {
        "_hex": "0x5208"
      },
      "to": "0x4bFa4E25Ca29F3496F1aB577eF979b642CB1E3f6",
      "value": {
        "_hex": "0x1fcbfa42bd6000"
      },
      "nonce": 106,
      "data": "0x",
      "r": "0xbe36616b834fd78149d302ee8beb3451afa306bb333ce31723d4deb992959899",
      "s": "0x34fb67be0cbbf91c21b256114c6a7082a091fe6503393b4ea2b1947516bddce1",
      "v": 27,
      "creates": null,
      "raw": "0xf86b6a850ba43b7400825208944bfa4e25ca29f3496f1ab577ef979b642cb1e3f6871fcbfa42bd6000801ba0be36616b834fd78149d302ee8beb3451afa306bb333ce31723d4deb992959899a034fb67be0cbbf91c21b256114c6a7082a091fe6503393b4ea2b1947516bddce1",
      "networkId": 0,
      "chainId": 0
    }
  ]
}