{
  "hash": "0x00891bbaccbbeb95e629be8aecb45b3bdb7fef872e92d5c4f29dc350d69223a3",
  "parentHash": "0x122483a967275b9ccdb7e710ec28123ccf0e9b0f94b6c255544a23cc6303294e",
  "number": 78741,
  "timestamp": 1439458502,
  "nonce": "0x1a180c4c835ec4a4",
  "difficulty": 2307730707165,
  "gasLimit": {
    "_hex": "0x2fefd8"
  },
  "gasUsed": {
    "_hex": "0x5208"
  },
  "miner": "0x580992B51e3925e23280EfB93d3047C82f17E038",
  "extraData": "0x476574682f76312e302e312f6c696e75782f676f312e342e32",
  "transactions": [
    {
      "hash": "0x4ee87db3b24f73feb0fa1153b493d5c8e4ab874eba6efbb0d1e81240ca9211b4",
      "blockHash": "0x00891bbaccbbeb95e629be8aecb45b3bdb7fef872e92d5c4f29dc350d69223a3",
      "blockNumber": 78741,
      "transactionIndex": 0,
      "confirmations": null,
      "from": "0x32Be343B94f860124dC4fEe278FDCBD38C102D88",
      "gasPrice": {
        "_hex": "0xd07535288"
      },
      "gasLimit": {
        "_hex": "0x5208"
      },
      "to": "0x5170535271F5B9eC438c0447b3daD67b3E2633f2",
      "value": {
        "_hex": "0x1bc8886498550000"
      },
      "nonce": 399,
      "data": "0x",
      "r": "0x9b00ba36e0f638bb38d43ffa3fef415be1a49f3733c620a487c9a26a98e5109d",
      "s": "0x4c16a64441c737945c20d58ff1130410ac238123e7352e0e39055d3c35a0a856",
      "v": 28,
      "creates": null,
      "raw": "0xf86e82018f850d07535288825208945170535271f5b9ec438c0447b3dad67b3e2633f2881bc8886498550000801ca09b00ba36e0f638bb38d43ffa3fef415be1a49f3733c620a487c9a26a98e5109da04c16a64441c737945c20d58ff1130410ac238123e7352e0e39055d3c35a0a856",
      "networkId": 0,
      "chainId": 0
    }
  ]
}