{
  "hash": "0x6abf4baba7d0cb67b094556c8401bd4ae3388fe0569015dd4cead712059cddf7",
  "parentHash": "0x31cd4d9f205a02cfd5c70018cd3f0ce14bd5febb6a602496331258c4e850d4d2",
  "number": 95820,
  "timestamp": 1439730078,
  "nonce": "0x07ca92bbe525e9b2",
  "difficulty": 3649820335767,
  "gasLimit": {
    "_hex": "0x2fefd8"
  },
  "gasUsed": {
    "_hex": "0x802e"
  },
  "miner": "0xe6A7a1d47ff21B6321162AEA7C6CB457D5476Bca",
  "extraData": "0x476574682f76312e302e312d38326566323666362f6c696e75782f676f312e34",
  "transactions": [
    {
      "hash": "0x55a15c22b9c75fa260b99b90b5c47a0d50209ecc8c5af0df0580b0c0731a6769",
      "blockHash": "0x6abf4baba7d0cb67b094556c8401bd4ae3388fe0569015dd4cead712059cddf7",
      "blockNumber": 95820,
      "transactionIndex": 0,
      "confirmations": null,
      "from": "0xFBb1b73C4f0BDa4f67dcA266ce6Ef42f520fBB98",
      "gasPrice": {
        "_hex": "0xcb32d6cdd"
      },
      "gasLimit": {
        "_hex": "0x15f90"
      },
      "to": "0xCAc7000C7dBaa2E33Af15325AF5D435E011C7BdD",
      "value": {
        "_hex": "0x0"
      },
      "nonce": 68,
      "data": "0x3feb1bd842495454524558303000000000000000000000000000000000000000000000000000000000000000000000003fee2e5f121cfb9d6d9bab6cec64eb60585124d400000000000000000000000000000000000000000000000000670758aa7c8000",
      "r": "0x7667c4a2cfcc5a7785fbc373a2e9040be11ec1c837e59163616b2181af80935d",
      "s": "0x484ef81e726c92134a6626478a51f257c7b3e38255b2a4beb2d46041ca849588",
      "v": 27,
      "creates": null,
      "raw": "0xf8ca44850cb32d6cdd83015f9094cac7000c7dbaa2e33af15325af5d435e011c7bdd80b8643feb1bd842495454524558303000000000000000000000000000000000000000000000000000000000000000000000003fee2e5f121cfb9d6d9bab6cec64eb60585124d400000000000000000000000000000000000000000000000000670758aa7c80001ba07667c4a2cfcc5a7785fbc373a2e9040be11ec1c837e59163616b2181af80935da0484ef81e726c92134a6626478a51f257c7b3e38255b2a4beb2d46041ca849588",
      "networkId": 0,
      "chainId": 0
    }
  ]
}