{
  "hash": "0x65fc3fcbe4a3de080c17221d670127a26d44604a9a8831ef88998a7fdae48215",
  "parentHash": "0x69f672adbd72f85d37c6f50c4ec9761055a627ab113c43227872bc192fcb1175",
  "number": 77128,
  "timestamp": 1439432085,
  "nonce": "0xcea5aed01fd80aac",
  "difficulty": 2240438912701,
  "gasLimit": {
    "_hex": "0x2fefd5"
  },
  "gasUsed": {
    "_hex": "0x5208"
  },
  "miner": "0xeB1325C8D9d3ea8D74aC11F4B00F1B2367686319",
  "extraData": "0x476574682f76312e302e312f77696e646f77732f676f312e342e32",
  "transactions": [
    {
      "hash": "0xffed7a0236b9223c4e34c8d8d0eb3e0b7f435c01775622b1ce53b32de4ddf61f",
      "blockHash": "0x65fc3fcbe4a3de080c17221d670127a26d44604a9a8831ef88998a7fdae48215",
      "blockNumber": 77128,
      "transactionIndex": 0,
      "confirmations": null,
      "from": "0x120A270bbC009644e35F0bB6ab13f95b8199c4ad",
      "gasPrice": {
        "_hex": "0xd97a1bc2d"
      },
      "gasLimit": {
        "_hex": "0x3d090"
      },
      "to": "0x8F2483400463447700C12149B61f9DBF56Af21F7",
      "value": {
        "_hex": "0x1deea9ac85b8dc00"
      },
      "nonce": 318,
      "data": "0x",
      "r": "0xfe330bfdd2f5df5351bfc4a669b6e3374b954a4ba94b037eafa67bac243d7217",
      "s": "0x385c8dd33597bc9d239743634a88c971df86248411945dcfb363a7435cdc3caa",
      "v": 28,
      "creates": null,
      "raw": "0xf86f82013e850d97a1bc2d8303d090948f2483400463447700c12149b61f9dbf56af21f7881deea9ac85b8dc00801ca0fe330bfdd2f5df5351bfc4a669b6e3374b954a4ba94b037eafa67bac243d7217a0385c8dd33597bc9d239743634a88c971df86248411945dcfb363a7435cdc3caa",
      "networkId": 0,
      "chainId": 0
    }
  ]
}