{
  "hash": "0x1ba65418cd3b6f0e3e1a6b55590fa8a37f3e814c2ca379a6c9ed1020be6b804e",
  "parentHash": "0x545fac981b883bfc0b9ee68c63fefb753eba443fc55084b896c0783be7b73878",
  "number": 82328,
  "timestamp": 1439517456,
  "nonce": "0x2661a3f6cc9e3e83",
  "difficulty": 2374164666090,
  "gasLimit": {
    "_hex": "0x2fefd8"
  },
  "gasUsed": {
    "_hex": "0x5208"
  },
  "miner": "0xF2d2AfF1320476cb8C6b607199D23175cc595693",
  "extraData": "0x476574682f76312e302e312f77696e646f77732f676f312e342e32",
  "transactions": [
    {
      "hash": "0x9451b0ec900c5b3669fc4cbd378a46fd25631dac56d78bee2d7ae3b446679c52",
      "blockHash": "0x1ba65418cd3b6f0e3e1a6b55590fa8a37f3e814c2ca379a6c9ed1020be6b804e",
      "blockNumber": 82328,
      "transactionIndex": 0,
      "confirmations": null,
      "from": "0xF2d2AfF1320476cb8C6b607199D23175cc595693",
      "gasPrice": {
        "_hex": "0xd4cb83f8a"
      },
      "gasLimit": {
        "_hex": "0x15f90"
      },
      "to": "0xF5EeDc192aB70b08D8354384aD94efD095849E00",
      "value": {
        "_hex": "0x56bc75e2d63100000"
      },
      "nonce": 37,
      "data": "0x",
      "r": "0x27878a310fff128b92436e6a137a4f14cc12233852d761acca22a7b3d15a597c",
      "s": "0x318f04efee2e565fb2ed3bdb69c9ec5de2fe90e8718c7566ca5dd0236395ccb9",
      "v": 27,
      "creates": null,
      "raw": "0xf86e25850d4cb83f8a83015f9094f5eedc192ab70b08d8354384ad94efd095849e0089056bc75e2d63100000801ba027878a310fff128b92436e6a137a4f14cc12233852d761acca22a7b3d15a597ca0318f04efee2e565fb2ed3bdb69c9ec5de2fe90e8718c7566ca5dd0236395ccb9",
      "networkId": 0,
      "chainId": 0
    }
  ]
}