{
  "hash": "0x8b919d649f1819542ec02cb5da68e096136c60e626bc68eda84c32813abeda9b",
  "parentHash": "0x35e83e8dcd76d7fa86dcbd252cde27642866a6a28d1fb26166cab66ff0172562",
  "number": 74702,
  "timestamp": 1439390722,
  "nonce": "0x08b945f74fd37205",
  "difficulty": 2206342109972,
  "gasLimit": {
    "_hex": "0x2fefd8"
  },
  "gasUsed": {
    "_hex": "0xa410"
  },
  "miner": "0xf8E0CA3Ed80bd541b94BEdCf259e8CF2141A9523",
  "extraData": "0x476574682f76312e302e312f77696e646f77732f676f312e342e32",
  "transactions": [
    {
      "hash": "0xd06cae60304d4e5da96597374a3692f4831ea0f17a988926fce43dd912344a15",
      "blockHash": "0x8b919d649f1819542ec02cb5da68e096136c60e626bc68eda84c32813abeda9b",
      "blockNumber": 74702,
      "transactionIndex": 0,
      "confirmations": null,
      "from": "0x08FE5A3C0709cF74d76cFd0e0Cd9d2A447eA263C",
      "gasPrice": {
        "_hex": "0xe0d38e12c"
      },
      "gasLimit": {
        "_hex": "0x5208"
      },
      "to": "0x32Be343B94f860124dC4fEe278FDCBD38C102D88",
      "value": {
        "_hex": "0x299da36e0f79f800"
      },
      "nonce": 0,
      "data": "0x",
      "r": "0xad584fdcd50e6654cab7ffb698524aeadb206722aac9a34940b45a1961993d62",
      "s": "0x6363eaa76f2d260f703990eb107cb5419bb91063b5a1f8a72ce6bff1622472be",
      "v": 28,
      "creates": null,
      "raw": "0xf86c80850e0d38e12c8252089432be343b94f860124dc4fee278fdcbd38c102d8888299da36e0f79f800801ca0ad584fdcd50e6654cab7ffb698524aeadb206722aac9a34940b45a1961993d62a06363eaa76f2d260f703990eb107cb5419bb91063b5a1f8a72ce6bff1622472be",
      "networkId": 0,
      "chainId": 0
    },
    {
      "hash": "0xf7989b46af9b62172be4b1d5ce46b0944371d9025641c07354f7c20482fa3b29",
      "blockHash": "0x8b919d649f1819542ec02cb5da68e096136c60e626bc68eda84c32813abeda9b",
      "blockNumber": 74702,
      "transactionIndex": 1,
      "confirmations": null,
      "from": "0xa9f5E7bf6Cbf6fEc55B30850Eb492b47A376d050",
      "gasPrice": {
        "_hex": "0xe0d38e12c"
      },
      "gasLimit": {
        "_hex": "0x5208"
      },
      "to": "0x32Be343B94f860124dC4fEe278FDCBD38C102D88",
      "value": {
        "_hex": "0x4b1cc807f86220000"
      },
      "nonce": 12,
      "data": "0x",
      "r": "0x3fdc9dd23244a9eae19ce86cdfa3d3c16dae4e4072fe4f4a7d001f1d702aefbd",
      "s": "0x2459a367a12757ab57a94a58ff12916ab4f5cda51ef53ff834c85261c4c0005b",
      "v": 28,
      "creates": null,
      "raw": "0xf86d0c850e0d38e12c8252089432be343b94f860124dc4fee278fdcbd38c102d888904b1cc807f86220000801ca03fdc9dd23244a9eae19ce86cdfa3d3c16dae4e4072fe4f4a7d001f1d702aefbda02459a367a12757ab57a94a58ff12916ab4f5cda51ef53ff834c85261c4c0005b",
      "networkId": 0,
      "chainId": 0
    }
  ]
}