{
  "hash": "0x16ded4b39b3c3947f333cf5c392546c03484b81148e254204fb84bb1caa9337b",
  "parentHash": "0x554025740f2275f68125fbc19fecb1a9265cf23ddf47c3c2df509d2499106f0f",
  "number": 102569,
  "timestamp": 1439839940,
  "nonce": "0x320da2c357df5f60",
  "difficulty": 3999456845498,
  "gasLimit": {
    "_hex": "0x2fefd8"
  },
  "gasUsed": {
    "_hex": "0x5208"
  },
  "miner": "0xb0322e042c6d3062151184d90a8451Db8e76E6C3",
  "extraData": "0x476574682f76312e302e312f77696e646f77732f676f312e342e32",
  "transactions": [
    {
      "hash": "0xde799c18595f8ea1c51a94b312cb640773dbe2dd2d1324de1a654e4129e21e45",
      "blockHash": "0x16ded4b39b3c3947f333cf5c392546c03484b81148e254204fb84bb1caa9337b",
      "blockNumber": 102569,
      "transactionIndex": 0,
      "confirmations": null,
      "from": "0x120A270bbC009644e35F0bB6ab13f95b8199c4ad",
      "gasPrice": {
        "_hex": "0xd6cbf579c"
      },
      "gasLimit": {
        "_hex": "0x3d090"
      },
      "to": "0xaC02beAb69f61eD095e394A1bEb83F8bF1C18d27",
      "value": {
        "_hex": "0x5380ad9edd868000"
      },
      "nonce": 699,
      "data": "0x",
      "r": "0x519a9822c44059a749b97da68cf144af61d899caec71844387b55aa53ad42686",
      "s": "0x0fcc0697fc0916201e6c2832951efe1c6487d67629062f850d36db5659f7a9cb",
      "v": 28,
      "creates": null,
      "raw": "0xf86f8202bb850d6cbf579c8303d09094ac02beab69f61ed095e394a1beb83f8bf1c18d27885380ad9edd868000801ca0519a9822c44059a749b97da68cf144af61d899caec71844387b55aa53ad42686a00fcc0697fc0916201e6c2832951efe1c6487d67629062f850d36db5659f7a9cb",
      "networkId": 0,
      "chainId": 0
    }
  ]
}