{
  "hash": "0xa2f76a1a03f59911750a7a43a4450dd9c536d923176f0eafe72bb5455a0fa2f9",
  "parentHash": "0x2e2616b2f9c8b3702c8df89f7bf4bedd96b5f4a0e845e2791ca7b1cadf4c3417",
  "number": 119595,
  "timestamp": 1440145673,
  "nonce": "0x07f301d3821c43d4",
  "difficulty": 4383637736376,
  "gasLimit": {
    "_hex": "0x2fefd8"
  },
  "gasUsed": {
    "_hex": "0x5208"
  },
  "miner": "0xe6A7a1d47ff21B6321162AEA7C6CB457D5476Bca",
  "extraData": "0xd783010002844765746887676f312e342e32856c696e7578",
  "transactions": [
    {
      "hash": "0x549f8237ba2d550c15cee5c690fd53d95f13ee3c1ec7eccafe09e329ff270ef7",
      "blockHash": "0xa2f76a1a03f59911750a7a43a4450dd9c536d923176f0eafe72bb5455a0fa2f9",
      "blockNumber": 119595,
      "transactionIndex": 0,
      "confirmations": null,
      "from": "0x32Be343B94f860124dC4fEe278FDCBD38C102D88",
      "gasPrice": {
        "_hex": "0xba43b7400"
      },
      "gasLimit": {
        "_hex": "0x5208"
      },
      "to": "0xDbEdE24fCCCAa29C0F7E950314a9b28f91f8d659",
      "value": {
        "_hex": "0x1b1ac14ff07f8f0000"
      },
      "nonce": 1510,
      "data": "0x",
      "r": "0x4a6c9af2fb63ade925ec5c5c83228095488ead78ee1d0389cc8f35ab961d81dc",
      "s": "0x5542b0ac0ae7b714f9f411ad3c6d39c8f74fadf740d927dad38d7ad5afe4714e",
      "v": 27,
      "creates": null,
      "raw": "0xf86f8205e6850ba43b740082520894dbede24fcccaa29c0f7e950314a9b28f91f8d659891b1ac14ff07f8f0000801ba04a6c9af2fb63ade925ec5c5c83228095488ead78ee1d0389cc8f35ab961d81dca05542b0ac0ae7b714f9f411ad3c6d39c8f74fadf740d927dad38d7ad5afe4714e",
      "networkId": 0,
      "chainId": 0
    }
  ]
}