{
  "hash": "0xf2e118564c586520c7679925ebdc015189a8a5c2c9ecf89d4a902a697c42765d",
  "parentHash": "0x9b7f1ee88e91a3b2bc3cf473d218f67df7068d1846034f6ed217ffd13587be5e",
  "number": 70545,
  "timestamp": 1439321537,
  "nonce": "0x20aa04e0747945fa",
  "difficulty": 2134303010408,
  "gasLimit": {
    "_hex": "0x2fefd8"
  },
  "gasUsed": {
    "_hex": "0x5208"
  },
  "miner": "0x5F8F73E26CdF436f19Cb24C82F90A15AFe55b592",
  "extraData": "0x476574682f76312e302e312f77696e646f77732f676f312e342e32",
  "transactions": [
    {
      "hash": "0x9439c7b2cf8fcb7ad7894017138d5a03b31a19c2f1b5d40b6e15091702b5ea01",
      "blockHash": "0xf2e118564c586520c7679925ebdc015189a8a5c2c9ecf89d4a902a697c42765d",
      "blockNumber": 70545,
      "transactionIndex": 0,
      "confirmations": null,
      "from": "0xF4B759cc8A1C75f80849EBBCda878DC8f0d66De4",
      "gasPrice": {
        "_hex": "0xd6d9651bf"
      },
      "gasLimit": {
        "_hex": "0x15f90"
      },
      "to": "0xD441bA6FFe06b0BD76330aC8F9c2946dA2dF88A2",
      "value": {
        "_hex": "0x15aed66ad0acbe0000"
      },
      "nonce": 0,
      "data": "0x",
      "r": "0x92bdfa8159b94c6d5c7bcf4ab43b766c2a690a53aa30ad1f385fc6d44ecb9d7e",
      "s": "0x3e0c3bb3b41b4a0aec61c1e3ede0d3f93847701d57a357d2dd4ca74a7fa2630d",
      "v": 28,
      "creates": null,
      "raw": "0xf86e80850d6d9651bf83015f9094d441ba6ffe06b0bd76330ac8f9c2946da2df88a28915aed66ad0acbe0000801ca092bdfa8159b94c6d5c7bcf4ab43b766c2a690a53aa30ad1f385fc6d44ecb9d7ea03e0c3bb3b41b4a0aec61c1e3ede0d3f93847701d57a357d2dd4ca74a7fa2630d",
      "networkId": 0,
      "chainId": 0
    }
  ]
}