{
  "hash": "0xcd57c0d7002e2defb4fc11fa3ddbeb41d84a87b421d85a038f548c51415b1381",
  "parentHash": "0x109e837d8113033038710629d7ca8ead3a92c496cd5886e4d3a33e7e52f46580",
  "number": 59371,
  "timestamp": 1439137195,
  "nonce": "0xb5c9282f30594b93",
  "difficulty": 1698898285614,
  "gasLimit": {
    "_hex": "0x2fefd8"
  },
  "gasUsed": {
    "_hex": "0x5208"
  },
  "miner": "0x5B3e850E39e6f2C7dD38707b649e2B3536F14C0b",
  "extraData": "0x476574682f76312e302e312f64617277696e2f676f312e342e32",
  "transactions": [
    {
      "hash": "0x129972d2559e069528236df91eae77dceb297b6dee36139e688446a121bddd7b",
      "blockHash": "0xcd57c0d7002e2defb4fc11fa3ddbeb41d84a87b421d85a038f548c51415b1381",
      "blockNumber": 59371,
      "transactionIndex": 0,
      "confirmations": null,
      "from": "0x72c083BeadBdc227c5fb43881597E32e83C26056",
      "gasPrice": {
        "_hex": "0xfd7969bd17"
      },
      "gasLimit": {
        "_hex": "0x15f90"
      },
      "to": "0x249502491a53b217181420Cc4A6dE23a720636CA",
      "value": {
        "_hex": "0x3635c9adc5dea00000"
      },
      "nonce": 2,
      "data": "0x",
      "r": "0xaa91eec6ee297d0c693c2a5e871d9f271c0ef36224b065915e00c96ecb60255a",
      "s": "0x563105ef2f88dac35469fb9b4f523ab61f771d037e73b9bd74cb98e454a3be0d",
      "v": 28,
      "creates": null,
      "raw": "0xf86e0285fd7969bd1783015f9094249502491a53b217181420cc4a6de23a720636ca893635c9adc5dea00000801ca0aa91eec6ee297d0c693c2a5e871d9f271c0ef36224b065915e00c96ecb60255aa0563105ef2f88dac35469fb9b4f523ab61f771d037e73b9bd74cb98e454a3be0d",
      "networkId": 0,
      "chainId": 0
    }
  ]
}