{
  "hash": "0x925ef538110bb7756114df01fb509b85edec14c4bd4ff30d292cecea030869c6",
  "parentHash": "0x7ccaf8ef2678bd48a4ed643fbd4cb8b3650afb6de7a75ded023bdcf6348fa78b",
  "number": 110256,
  "timestamp": 1439970594,
  "nonce": "0xb6378b8ba75a14bc",
  "difficulty": 4382096947355,
  "gasLimit": {
    "_hex": "0x2fefd8"
  },
  "gasUsed": {
    "_hex": "0x5208"
  },
  "miner": "0xe6A7a1d47ff21B6321162AEA7C6CB457D5476Bca",
  "extraData": "0x476574682f76312e302e312d38326566323666362f6c696e75782f676f312e34",
  "transactions": [
    {
      "hash": "0x83b128b2a9f77112b485fc1aff87ff33b37f9ac169119ee8f7fd24777922f56a",
      "blockHash": "0x925ef538110bb7756114df01fb509b85edec14c4bd4ff30d292cecea030869c6",
      "blockNumber": 110256,
      "transactionIndex": 0,
      "confirmations": null,
      "from": "0xC8224326e29eD30AEEC1B70ec238A818169ecaBA",
      "gasPrice": {
        "_hex": "0xd7d40ace3"
      },
      "gasLimit": {
        "_hex": "0x15f90"
      },
      "to": "0x61F642543d22bAf5382908a714E675Cc0b51ea45",
      "value": {
        "_hex": "0x4563918244f40000"
      },
      "nonce": 13,
      "data": "0x",
      "r": "0x6119072738f87abbdfcfb3658b6f2d3a8009b93c09cde42b2a2dd304699a7ba3",
      "s": "0x01769f3db9a5fcd2e55b918beee4397ea4c10eb914e0a30abd9d0eaa71efa121",
      "v": 28,
      "creates": null,
      "raw": "0xf86d0d850d7d40ace383015f909461f642543d22baf5382908a714e675cc0b51ea45884563918244f40000801ca06119072738f87abbdfcfb3658b6f2d3a8009b93c09cde42b2a2dd304699a7ba3a001769f3db9a5fcd2e55b918beee4397ea4c10eb914e0a30abd9d0eaa71efa121",
      "networkId": 0,
      "chainId": 0
    }
  ]
}