{
  "hash": "0x5862ed37a5987555e8160b20bbf58657fedfae4d92c65b8faba44f956ce4a0c5",
  "parentHash": "0xbc03fa68dd9a8e8367f9a65d2c44b21bf7a04334a059bc2c4d44364c193e4790",
  "number": 52991,
  "timestamp": 1439030792,
  "nonce": "0x5e685d348dfce31e",
  "difficulty": 1564760394919,
  "gasLimit": {
    "_hex": "0x1d4f9e"
  },
  "gasUsed": {
    "_hex": "0xa410"
  },
  "miner": "0x3222BA3F3e79eA0e31467EEE7639B57923558cCD",
  "extraData": "0x",
  "transactions": [
    {
      "hash": "0x6265087802142f2a4b16f91f32f7c383ef5a5ed5c3373417e72a0717be7acb7e",
      "blockHash": "0x5862ed37a5987555e8160b20bbf58657fedfae4d92c65b8faba44f956ce4a0c5",
      "blockNumber": 52991,
      "transactionIndex": 0,
      "confirmations": null,
      "from": "0x33A3f479f6c3e7F91128348490D1f7E8D2A0FAb5",
      "gasPrice": {
        "_hex": "0xcd37780c7"
      },
      "gasLimit": {
        "_hex": "0x5208"
      },
      "to": "0x32Be343B94f860124dC4fEe278FDCBD38C102D88",
      "value": {
        "_hex": "0x377eb316e12c2c00"
      },
      "nonce": 5,
      "data": "0x",
      "r": "0xcd7c7af9a3afefbceb004f3260f149d02a15ba64f9222f28da69d3790a377410",
      "s": "0x19740d600169b865c57813e3488dec8dda94653b7af859e6fca52135eadeda93",
      "v": 28,
      "creates": null,
      "raw": "0xf86c05850cd37780c78252089432be343b94f860124dc4fee278fdcbd38c102d8888377eb316e12c2c00801ca0cd7c7af9a3afefbceb004f3260f149d02a15ba64f9222f28da69d3790a377410a019740d600169b865c57813e3488dec8dda94653b7af859e6fca52135eadeda93",
      "networkId": 0,
      "chainId": 0
    },
    {
      "hash": "0x204e22fc5f6be8c763778637671692480d462ee9ef7e3dee0d689f1f60b91f89",
      "blockHash": "0x5862ed37a5987555e8160b20bbf58657fedfae4d92c65b8faba44f956ce4a0c5",
      "blockNumber": 52991,
      "transactionIndex": 1,
      "confirmations": null,
      "from": "0x5fB5E2fC08615c69B0FD8e8f0b68DA93Ec5e326A",
      "gasPrice": {
        "_hex": "0xcd37780c7"
      },
      "gasLimit": {
        "_hex": "0x5208"
      },
      "to": "0x32Be343B94f860124dC4fEe278FDCBD38C102D88",
      "value": {
        "_hex": "0x21e19b926a475400000"
      },
      "nonce": 0,
      "data": "0x",
      "r": "0xc24956a9bd560bf9e067bdfbe66175d71ffd11c7debb499a6b23b4b15be6b3c6",
      "s": "0x3e558fb26016dd08e419badcaa71b2b3c743b34ce7e749ed5f1a8cc5d2e893fb",
      "v": 27,
      "creates": null,
      "raw": "0xf86e80850cd37780c78252089432be343b94f860124dc4fee278fdcbd38c102d888a021e19b926a475400000801ba0c24956a9bd560bf9e067bdfbe66175d71ffd11c7debb499a6b23b4b15be6b3c6a03e558fb26016dd08e419badcaa71b2b3c743b34ce7e749ed5f1a8cc5d2e893fb",
      "networkId": 0,
      "chainId": 0
    }
  ]
}