{
  "hash": "0x5e7eda9df14974f39869b4870fc7382c6b0ebe0db48ca08978879fe920077ad1",
  "parentHash": "0xa053e346544d1e75674200c915c8791ba4f33c5b428ea689601746c04c3e367b",
  "number": 98755,
  "timestamp": 1439778536,
  "nonce": "0xdabde4ade154bf04",
  "difficulty": 3836732284456,
  "gasLimit": {
    "_hex": "0x2fefd8"
  },
  "gasUsed": {
    "_hex": "0x5208"
  },
  "miner": "0x19dafe19F11E960E4cCfC6A5AA8890ebD748cA1E",
  "extraData": "0x476574682f76312e302e312d38326566323666362f6c696e75782f676f312e34",
  "transactions": [
    {
      "hash": "0x66abacf39c535a20894fb55a851e01f42a79117525073875513c07c84e8ee601",
      "blockHash": "0x5e7eda9df14974f39869b4870fc7382c6b0ebe0db48ca08978879fe920077ad1",
      "blockNumber": 98755,
      "transactionIndex": 0,
      "confirmations": null,
      "from": "0x79d5794171E11dd5C2f0e26E1C187319db2FE6f7",
      "gasPrice": {
        "_hex": "0xd9437712c"
      },
      "gasLimit": {
        "_hex": "0x5208"
      },
      "to": "0x32Be343B94f860124dC4fEe278FDCBD38C102D88",
      "value": {
        "_hex": "0x456776d30a3a6000"
      },
      "nonce": 36,
      "data": "0x",
      "r": "0x403912745f01ca274cacbf38d0269dfdc23dc5d32d087b9702b9c439a1e48d40",
      "s": "0x59c992b37158bbdee093e0d0798a984e1b0ebf898f83124001cd2fac057b1f75",
      "v": 28,
      "creates": null,
      "raw": "0xf86c24850d9437712c8252089432be343b94f860124dc4fee278fdcbd38c102d8888456776d30a3a6000801ca0403912745f01ca274cacbf38d0269dfdc23dc5d32d087b9702b9c439a1e48d40a059c992b37158bbdee093e0d0798a984e1b0ebf898f83124001cd2fac057b1f75",
      "networkId": 0,
      "chainId": 0
    }
  ]
}