{
  "hash": "0xec8b33ac6c3a931528f36471a1d047305e41e6e0002ca0f8f1f98a231a2a2573",
  "parentHash": "0x0de2f338cc2c50cb489f8561757fa6975b737e3f74d8cd65f8c4959d9fa11563",
  "number": 111828,
  "timestamp": 1439996905,
  "nonce": "0x2fc3a36bca911adc",
  "difficulty": 4419952860969,
  "gasLimit": {
    "_hex": "0x2fefd8"
  },
  "gasUsed": {
    "_hex": "0x5208"
  },
  "miner": "0xa50ec0D39fa913E62f1Bae7074E6F36caA71855b",
  "extraData": "0xd783010001844765746887676f312e342e32856c696e7578",
  "transactions": [
    {
      "hash": "0x514491a93898484434e66d5f14581a9ccd8071149dcbf3795ae34fbc5285645a",
      "blockHash": "0xec8b33ac6c3a931528f36471a1d047305e41e6e0002ca0f8f1f98a231a2a2573",
      "blockNumber": 111828,
      "transactionIndex": 0,
      "confirmations": null,
      "from": "0xf2711F78854D3b5CE29fA3c550a9328D7df40706",
      "gasPrice": {
        "_hex": "0xcf7d5e653"
      },
      "gasLimit": {
        "_hex": "0x5208"
      },
      "to": "0xFBb1b73C4f0BDa4f67dcA266ce6Ef42f520fBB98",
      "value": {
        "_hex": "0x5621d6dbaa940b68"
      },
      "nonce": 2,
      "data": "0x",
      "r": "0x86cbc067f80d75b1b0ef81da9f01e7ad07f0f59654ff5129f165acd38699c7b2",
      "s": "0x0bf849e005247b2ed3461bb53556dc1e4cfb983a55e92108587698fbc4da7efb",
      "v": 27,
      "creates": null,
      "raw": "0xf86c02850cf7d5e65382520894fbb1b73c4f0bda4f67dca266ce6ef42f520fbb98885621d6dbaa940b68801ba086cbc067f80d75b1b0ef81da9f01e7ad07f0f59654ff5129f165acd38699c7b2a00bf849e005247b2ed3461bb53556dc1e4cfb983a55e92108587698fbc4da7efb",
      "networkId": 0,
      "chainId": 0
    }
  ]
}