{
  "hash": "0x1a184d3960c16e537fbe5f2718a2358695a97a67d15ee9a7cbfea575dd50b49e",
  "parentHash": "0x52f876325e2f5422cad321a3c8af860a4f739095acb4e13e19fcd9c887dd1bf3",
  "number": 46382,
  "timestamp": 1438922185,
  "nonce": "0x2d6f43695b2702bf",
  "difficulty": 1466095273838,
  "gasLimit": {
    "_hex": "0x5e3a"
  },
  "gasUsed": {
    "_hex": "0x5208"
  },
  "miner": "0xa50ec0D39fa913E62f1Bae7074E6F36caA71855b",
  "extraData": "0x476574682f76312e302e302f6c696e75782f676f312e342e32",
  "transactions": [
    {
      "hash": "0xdd7816ae5b88717117a1f2aed21880f8b83021391e214592af69f747e673e8b5",
      "blockHash": "0x1a184d3960c16e537fbe5f2718a2358695a97a67d15ee9a7cbfea575dd50b49e",
      "blockNumber": 46382,
      "transactionIndex": 0,
      "confirmations": null,
      "from": "0xFD2605a2bF58fDbB90db1Da55dF61628B47F9e8c",
      "gasPrice": {
        "_hex": "0x746a528800"
      },
      "gasLimit": {
        "_hex": "0x5208"
      },
      "to": "0xAb5199486803893a6dc1AD1D31612895300BCcA9",
      "value": {
        "_hex": "0x2386f26fc10000"
      },
      "nonce": 5,
      "data": "0x",
      "r": "0x0ba8f761b10ce2c1a075e0f8fb4aacca2445b41e12fc314bdfd3024f4018cfd4",
      "s": "0x2b3986cdfd2fc7a89013abc4d32b55b6c14bb8713bd15614496e2bf5e53adeb7",
      "v": 27,
      "creates": null,
      "raw": "0xf86b0585746a52880082520894ab5199486803893a6dc1ad1d31612895300bcca9872386f26fc10000801ba00ba8f761b10ce2c1a075e0f8fb4aacca2445b41e12fc314bdfd3024f4018cfd4a02b3986cdfd2fc7a89013abc4d32b55b6c14bb8713bd15614496e2bf5e53adeb7",
      "networkId": 0,
      "chainId": 0
    }
  ]
}