{
  "hash": "0x95ecaf4543801ad370cad3b9ca2971f54d27517638542d4c7f99b88c352a3b69",
  "parentHash": "0x4329476743076e2d3ca36a06583986639b04a88f869e0d7e788023119905d454",
  "number": 74670,
  "timestamp": 1439390284,
  "nonce": "0x5aa31a143a68870b",
  "difficulty": 2197748780317,
  "gasLimit": {
    "_hex": "0x2fefd8"
  },
  "gasUsed": {
    "_hex": "0x5208"
  },
  "miner": "0xe6A7a1d47ff21B6321162AEA7C6CB457D5476Bca",
  "extraData": "0x476574682f76312e302e312d38326566323666362f6c696e75782f676f312e34",
  "transactions": [
    {
      "hash": "0xb6e0e5f5a57ba2bbce368d10ccd5d3930127a403532540298b08bfef9cf070ee",
      "blockHash": "0x95ecaf4543801ad370cad3b9ca2971f54d27517638542d4c7f99b88c352a3b69",
      "blockNumber": 74670,
      "transactionIndex": 0,
      "confirmations": null,
      "from": "0x744Df4ED8BaC8eBCa76964a93358c3A67a89b003",
      "gasPrice": {
        "_hex": "0xba43b7400"
      },
      "gasLimit": {
        "_hex": "0x5267"
      },
      "to": "0x08FE5A3C0709cF74d76cFd0e0Cd9d2A447eA263C",
      "value": {
        "_hex": "0x29a2241af62c0000"
      },
      "nonce": 0,
      "data": "0x",
      "r": "0xd5702d8b6fd731338aa6e9e60fea524293bda96f1c8c5170b37e4b45473c2086",
      "s": "0x2fbadef633d8e528a222c46a50b8d8a0b4165859a3ca2bae20482448fa9caa6a",
      "v": 27,
      "creates": null,
      "raw": "0xf86c80850ba43b74008252679408fe5a3c0709cf74d76cfd0e0cd9d2a447ea263c8829a2241af62c0000801ba0d5702d8b6fd731338aa6e9e60fea524293bda96f1c8c5170b37e4b45473c2086a02fbadef633d8e528a222c46a50b8d8a0b4165859a3ca2bae20482448fa9caa6a",
      "networkId": 0,
      "chainId": 0
    }
  ]
}