{
  "hash": "0xf19f8e85d4a5e9060ee42fcfcf68b2d43d1b25095413321cd40d6ac2a95f0bab",
  "parentHash": "0x4a886bf43005f70d3497828246c77b0868c524d621cf612c16220b909d1d123a",
  "number": 110466,
  "timestamp": 1439974238,
  "nonce": "0x6b3da7d95acc5a53",
  "difficulty": 4381987247510,
  "gasLimit": {
    "_hex": "0x2fefd8"
  },
  "gasUsed": {
    "_hex": "0x5208"
  },
  "miner": "0x9746c7e1ef2bd21FF3997fa467593a89cb852BD0",
  "extraData": "0x476574682f76312e302e312f77696e646f77732f676f312e342e32",
  "transactions": [
    {
      "hash": "0x76219db410254a1776716a2ea658ee6de0212854b698aae9b3aaf691367e694f",
      "blockHash": "0xf19f8e85d4a5e9060ee42fcfcf68b2d43d1b25095413321cd40d6ac2a95f0bab",
      "blockNumber": 110466,
      "transactionIndex": 0,
      "confirmations": null,
      "from": "0xc15fa6D616245a5c7B7D75A6dFDcA10C0250BD2B",
      "gasPrice": {
        "_hex": "0xd24c3e3a4"
      },
      "gasLimit": {
        "_hex": "0x15f90"
      },
      "to": "0xdeE4977F74E6Aef6D627191c9A45D2627e331150",
      "value": {
        "_hex": "0xd02ab486cedc0000"
      },
      "nonce": 15,
      "data": "0x",
      "r": "0xb019e79cb38fb16c0f37887472c6f4bb6bb4155f25d91647d8310e3ae37b8be7",
      "s": "0x2f2ea970da9e78f3ab5483f4aa17863ebbe13009e929d460ee0c154a399e2feb",
      "v": 28,
      "creates": null,
      "raw": "0xf86d0f850d24c3e3a483015f9094dee4977f74e6aef6d627191c9a45d2627e33115088d02ab486cedc0000801ca0b019e79cb38fb16c0f37887472c6f4bb6bb4155f25d91647d8310e3ae37b8be7a02f2ea970da9e78f3ab5483f4aa17863ebbe13009e929d460ee0c154a399e2feb",
      "networkId": 0,
      "chainId": 0
    }
  ]
}