{
  "hash": "0x18e9c9eeae17c9f8fca2bcba6620a6e4bc7c490472cd430ac695529541ca2ac8",
  "parentHash": "0x6c649f7c6849ee968f54182bfaee90512f98683998b068ad58142367d86c1b94",
  "number": 75258,
  "timestamp": 1439400275,
  "nonce": "0x7b21300040a50b5c",
  "difficulty": 2193306745658,
  "gasLimit": {
    "_hex": "0x2fefd8"
  },
  "gasUsed": {
    "_hex": "0x8f9f"
  },
  "miner": "0xF2d2AfF1320476cb8C6b607199D23175cc595693",
  "extraData": "0x476574682f76312e302e312f77696e646f77732f676f312e342e32",
  "transactions": [
    {
      "hash": "0x651074442dc05377b4bfa9f1d28985becb76837be808fb1653e6277096ae126a",
      "blockHash": "0x18e9c9eeae17c9f8fca2bcba6620a6e4bc7c490472cd430ac695529541ca2ac8",
      "blockNumber": 75258,
      "transactionIndex": 0,
      "confirmations": null,
      "from": "0x326Be8F71bFb0379f989aAB1CC1fE37f0a771f60",
      "gasPrice": {
        "_hex": "0x115c948e718"
      },
      "gasLimit": {
        "_hex": "0x493e0"
      },
      "to": "0xD79B4C6791784184e2755B2fC1659eaaB0f80456",
      "value": {
        "_hex": "0xde0b6b3a7640000"
      },
      "nonce": 88,
      "data": "0x8d216186000000000000000000000000000000000000000000000000000000000000008027f3e733396108ec862f265ba878ebe1e3d6bdea7ff1a85719f1f3dc042e0833",
      "r": "0x412432c46b41a16047dfb26a75550f2ea1674a4c9736c85aae150f5228757cd2",
      "s": "0x0b7b4c9e385bab15733a1ff18906df368acd1105b2f1bfea4134a5467a36129f",
      "v": 27,
      "creates": null,
      "raw": "0xf8b358860115c948e718830493e094d79b4c6791784184e2755b2fc1659eaab0f80456880de0b6b3a7640000b8448d216186000000000000000000000000000000000000000000000000000000000000008027f3e733396108ec862f265ba878ebe1e3d6bdea7ff1a85719f1f3dc042e08331ba0412432c46b41a16047dfb26a75550f2ea1674a4c9736c85aae150f5228757cd2a00b7b4c9e385bab15733a1ff18906df368acd1105b2f1bfea4134a5467a36129f",
      "networkId": 0,
      "chainId": 0
    }
  ]
}