{
  "hash": "0x9c1c7332c1a1ab48b12e88d33df3e7ac794045f25d34cf60cd04972f916a3813",
  "parentHash": "0x6a443dab56e060fb0cd182735a655bbe4894131f2e1a0fbc497b2bd706c3b18d",
  "number": 90368,
  "timestamp": 1439638752,
  "nonce": "0x07d1f3afc3081b38",
  "difficulty": 3331860944764,
  "gasLimit": {
    "_hex": "0x2fefd8"
  },
  "gasUsed": {
    "_hex": "0x5208"
  },
  "miner": "0x47ff6576639c2e94762eA5443978D7681C0E78DC",
  "extraData": "0x476574682f76312e302e312f6c696e75782f676f312e342e32",
  "transactions": [
    {
      "hash": "0xdfedd7e1727e8ff70b8357649cb97e64b513c6741cf63a537e638b3503fda65b",
      "blockHash": "0x9c1c7332c1a1ab48b12e88d33df3e7ac794045f25d34cf60cd04972f916a3813",
      "blockNumber": 90368,
      "transactionIndex": 0,
      "confirmations": null,
      "from": "0x95A466C2ba3A392003E9ef63F4442236C6E1B40E",
      "gasPrice": {
        "_hex": "0xd459e62db"
      },
      "gasLimit": {
        "_hex": "0x5208"
      },
      "to": "0x32Be343B94f860124dC4fEe278FDCBD38C102D88",
      "value": {
        "_hex": "0xddc6bd05b632000"
      },
      "nonce": 0,
      "data": "0x",
      "r": "0xf3cebd1f93ffafbc909acca94ce665d39b78a1e96aa64c385110d7762e08b67d",
      "s": "0x37307b4df887ee18920d0aedf40efb377b510e6ce9eccf0a2c9835d3c8a1f11e",
      "v": 28,
      "creates": null,
      "raw": "0xf86c80850d459e62db8252089432be343b94f860124dc4fee278fdcbd38c102d88880ddc6bd05b632000801ca0f3cebd1f93ffafbc909acca94ce665d39b78a1e96aa64c385110d7762e08b67da037307b4df887ee18920d0aedf40efb377b510e6ce9eccf0a2c9835d3c8a1f11e",
      "networkId": 0,
      "chainId": 0
    }
  ]
}