{
  "hash": "0xfbefdbce2317bac726271145a27d5ab08040edc8288f146c8d6ab4cd6a5927da",
  "parentHash": "0x3df215a5fdb2c9ffe532deaca1d2b65e19c52da6a5f2c0612adaa3cad5ba9e12",
  "number": 90391,
  "timestamp": 1439639097,
  "nonce": "0xdb4385add2010c0f",
  "difficulty": 3336736028552,
  "gasLimit": {
    "_hex": "0x2fefd8"
  },
  "gasUsed": {
    "_hex": "0x546c"
  },
  "miner": "0x0037ce3d4B7f8729C8607D8D0248252Be68202c0",
  "extraData": "0x476574682f76312e302e312f77696e646f77732f676f312e342e32",
  "transactions": [
    {
      "hash": "0x7c4ca61274121f706983f3717025ac0246706478823950648ae636ebd9da38af",
      "blockHash": "0xfbefdbce2317bac726271145a27d5ab08040edc8288f146c8d6ab4cd6a5927da",
      "blockNumber": 90391,
      "transactionIndex": 0,
      "confirmations": null,
      "from": "0x91139B30e3d090a8c542CFB2AA1Cc6e3bfFB491C",
      "gasPrice": {
        "_hex": "0xcd01555c5"
      },
      "gasLimit": {
        "_hex": "0x55f0"
      },
      "to": "0x2910543Af39abA0Cd09dBb2D50200b3E800A63D2",
      "value": {
        "_hex": "0x127fc46ffd988000"
      },
      "nonce": 2,
      "data": "0x454e42363131514538",
      "r": "0xe13faa789698cae4aea2d660f65fcc1d23cf45a02a96023396df500f0e5c06cb",
      "s": "0x3cd4e0c26dc175904863bc99959f11f5e166240a92d679b714ed624a09b0db28",
      "v": 28,
      "creates": null,
      "raw": "0xf87502850cd01555c58255f0942910543af39aba0cd09dbb2d50200b3e800a63d288127fc46ffd98800089454e423631315145381ca0e13faa789698cae4aea2d660f65fcc1d23cf45a02a96023396df500f0e5c06cba03cd4e0c26dc175904863bc99959f11f5e166240a92d679b714ed624a09b0db28",
      "networkId": 0,
      "chainId": 0
    }
  ]
}