{
  "hash": "0x3189d2b4655e9ea8a911a0e84d68f09ff6e482707dc051a5ec726733831719c3",
  "parentHash": "0xa2416c90383de2ae2c2bbc073b791f12292c326679cd4ea324092b83cf121745",
  "number": 49202,
  "timestamp": 1438969716,
  "nonce": "0x378ec5fd5d8a8f88",
  "difficulty": 1479985138023,
  "gasLimit": {
    "_hex": "0x28c17"
  },
  "gasUsed": {
    "_hex": "0xf87c"
  },
  "miner": "0xbb7B8287f3F0a933474a79eAe42CBCa977791171",
  "extraData": "0x476574682f4c5649562f76312e302e312f6c696e75782f676f312e342e32",
  "transactions": [
    {
      "hash": "0x215de17eb1b2539ac0ae1a69eb70d7ace3b45d24aecb1b2b91d1bdbb72ee1126",
      "blockHash": "0x3189d2b4655e9ea8a911a0e84d68f09ff6e482707dc051a5ec726733831719c3",
      "blockNumber": 49202,
      "transactionIndex": 0,
      "confirmations": null,
      "from": "0xC1d3eE1267B0eB575E75DE30F77b03437345E945",
      "gasPrice": {
        "_hex": "0xe140fb4f5"
      },
      "gasLimit": {
        "_hex": "0x5208"
      },
      "to": "0xBFdD9820a04283b289957956353b5F3C1F665EcF",
      "value": {
        "_hex": "0x1357983d97b360000"
      },
      "nonce": 0,
      "data": "0x",
      "r": "0x8983cc170cff6606a48d48f18139c4daed12a6a73b192d052374812649b44e5c",
      "s": "0x58dd4ad47abb47e611709f9ce33713855ba769494149e2df98048fd60eed9200",
      "v": 27,
      "creates": null,
      "raw": "0xf86d80850e140fb4f582520894bfdd9820a04283b289957956353b5f3c1f665ecf8901357983d97b360000801ba08983cc170cff6606a48d48f18139c4daed12a6a73b192d052374812649b44e5ca058dd4ad47abb47e611709f9ce33713855ba769494149e2df98048fd60eed9200",
      "networkId": 0,
      "chainId": 0
    },
    {
      "hash": "0x36c4ea5bc488ce51a303fad3c825f22f4584682c33635945f38423bb85cf083d",
      "blockHash": "0x3189d2b4655e9ea8a911a0e84d68f09ff6e482707dc051a5ec726733831719c3",
      "blockNumber": 49202,
      "transactionIndex": 1,
      "confirmations": null,
      "from": "0x775799247692DbF639c577eD0E77F82C373Ce4e2",
      "gasPrice": {
        "_hex": "0xe140fb4f5"
      },
      "gasLimit": {
        "_hex": "0x5208"
      },
      "to": "0xBFdD9820a04283b289957956353b5F3C1F665EcF",
      "value": {
        "_hex": "0x1969e82c30ef20000"
      },
      "nonce": 0,
      "data": "0x",
      "r": "0xa633635ae57a1c02d61ec105a5ca44f63091a0f141eef353081dac82853d0768",
      "s": "0x31a64c85cace13d929e82dd2b2804d939e8deb5e5cde01d00c7be57655049a68",
      "v": 28,
      "creates": null,
      "raw": "0xf86d80850e140fb4f582520894bfdd9820a04283b289957956353b5f3c1f665ecf8901969e82c30ef20000801ca0a633635ae57a1c02d61ec105a5ca44f63091a0f141eef353081dac82853d0768a031a64c85cace13d929e82dd2b2804d939e8deb5e5cde01d00c7be57655049a68",
      "networkId": 0,
      "chainId": 0
    },
    {
      "hash": "0xb34d624f9353ec9a78bab76b76730f3f2567647cd6a88cdca65f50bf36e48942",
      "blockHash": "0x3189d2b4655e9ea8a911a0e84d68f09ff6e482707dc051a5ec726733831719c3",
      "blockNumber": 49202,
      "transactionIndex": 2,
      "confirmations": null,
      "from": "0x3954bDFE0BF587C695A305d9244C3d5bdDDaC9Bb",
      "gasPrice": {
        "_hex": "0xd4dde0731"
      },
      "gasLimit": {
        "_hex": "0x15f90"
      },
      "to": "0x2910543Af39abA0Cd09dBb2D50200b3E800A63D2",
      "value": {
        "_hex": "0x6c6b935b8bbd400000"
      },
      "nonce": 1,
      "data": "0x454e4e393952545830",
      "r": "0xb157b0b09a938d1de0569645f99ded320092494d35e3cf6b7daeb4a46ad607a8",
      "s": "0x6a7e2da37dc0ff560ef9b2145d88f25fc1e2dda304aa8963033a8b11a4599190",
      "v": 28,
      "creates": null,
      "raw": "0xf87701850d4dde073183015f90942910543af39aba0cd09dbb2d50200b3e800a63d2896c6b935b8bbd40000089454e4e3939525458301ca0b157b0b09a938d1de0569645f99ded320092494d35e3cf6b7daeb4a46ad607a8a06a7e2da37dc0ff560ef9b2145d88f25fc1e2dda304aa8963033a8b11a4599190",
      "networkId": 0,
      "chainId": 0
    }
  ]
}