{
  "hash": "0xcf392ee83559227b5070776a409c77fd402d7606fa875e4f0422e28d444afd3f",
  "parentHash": "0xe5191f6dd10ba116eba7a960aaf183e58374bb2c964735b82df0558892b9e2b7",
  "number": 47914,
  "timestamp": 1438948328,
  "nonce": "0x000000000869e7fa",
  "difficulty": 1460112826795,
  "gasLimit": {
    "_hex": "0x1063a"
  },
  "gasUsed": {
    "_hex": "0x5208"
  },
  "miner": "0xe6A7a1d47ff21B6321162AEA7C6CB457D5476Bca",
  "extraData": "0x657468706f6f6c2e6f7267",
  "transactions": [
    {
      "hash": "0xf3b5e1f76a0ca82f9d1baac18dd14f70ec23813a52c933de32f8652742dcd053",
      "blockHash": "0xcf392ee83559227b5070776a409c77fd402d7606fa875e4f0422e28d444afd3f",
      "blockNumber": 47914,
      "transactionIndex": 0,
      "confirmations": null,
      "from": "0x7d7e7c61779adB7706C94D32409A2bb4E994bf60",
      "gasPrice": {
        "_hex": "0x2ba7def3000"
      },
      "gasLimit": {
        "_hex": "0x5208"
      },
      "to": "0x0000000000000000000000000000000000000000",
      "value": {
        "_hex": "0xde0b6b3a7640000"
      },
      "nonce": 6,
      "data": "0x",
      "r": "0x6e31967aee3406b7b0f62c8de492b1b9c96ea6ec175ba4fb644898d5859b1019",
      "s": "0x6756cab5c19c9557726915cc523c548dab2d7c9cd578dbf8580dc8fe01f0d1be",
      "v": 27,
      "creates": null,
      "raw": "0xf86d068602ba7def3000825208940000000000000000000000000000000000000000880de0b6b3a7640000801ba06e31967aee3406b7b0f62c8de492b1b9c96ea6ec175ba4fb644898d5859b1019a06756cab5c19c9557726915cc523c548dab2d7c9cd578dbf8580dc8fe01f0d1be",
      "networkId": 0,
      "chainId": 0
    }
  ]
}