{
  "hash": "0x1e2e7c164d8257f1398f8428e8eccf358fdf993ac16a549db27a5b055ead81f7",
  "parentHash": "0x080f0ae88227a301b56fa118dff765a029a83376e0838baa27f6e0fb91108fcd",
  "number": 112417,
  "timestamp": 1440007185,
  "nonce": "0x4a4d20f1e0b18db5",
  "difficulty": 4408865545174,
  "gasLimit": {
    "_hex": "0x2fefd8"
  },
  "gasUsed": {
    "_hex": "0x5208"
  },
  "miner": "0x458F183347F45a4001807728A89F31E9Da9D4A58",
  "extraData": "0x476574682f76312e302e312d38326566323666362f6c696e75782f676f312e34",
  "transactions": [
    {
      "hash": "0xf98b1fd146a53dc821533281ae2d6ae10eebe85c9498700255789224e57d091d",
      "blockHash": "0x1e2e7c164d8257f1398f8428e8eccf358fdf993ac16a549db27a5b055ead81f7",
      "blockNumber": 112417,
      "transactionIndex": 0,
      "confirmations": null,
      "from": "0x458F183347F45a4001807728A89F31E9Da9D4A58",
      "gasPrice": {
        "_hex": "0xda6538ea3"
      },
      "gasLimit": {
        "_hex": "0x15f90"
      },
      "to": "0x7fa165177F28D171bA7C17f765c1904344Ec64CB",
      "value": {
        "_hex": "0x3039ae16b27b80000"
      },
      "nonce": 48,
      "data": "0x",
      "r": "0x21718f1321159b644f19e4acfa2f1efefd49a5e1d19d6331170cbfbc83f17ef8",
      "s": "0x5ba7ffe1ffbc38c6bade3e12187901cb6e972f079301a18e5f0277e150af3873",
      "v": 27,
      "creates": null,
      "raw": "0xf86e30850da6538ea383015f90947fa165177f28d171ba7c17f765c1904344ec64cb8903039ae16b27b80000801ba021718f1321159b644f19e4acfa2f1efefd49a5e1d19d6331170cbfbc83f17ef8a05ba7ffe1ffbc38c6bade3e12187901cb6e972f079301a18e5f0277e150af3873",
      "networkId": 0,
      "chainId": 0
    }
  ]
}