{
  "hash": "0x3881d2fddcd87b9a1d507c21ba80d5e2ef47f33844a8767db1564f325b568fcd",
  "parentHash": "0x18dd6ff689daa2c9e0b0fd1737a442b8363b70de61d936ff9e7114a07315de0a",
  "number": 105417,
  "timestamp": 1439887207,
  "nonce": "0x7ee1b0ea53fdaf00",
  "difficulty": 4373933909527,
  "gasLimit": {
    "_hex": "0x2fefd8"
  },
  "gasUsed": {
    "_hex": "0xf618"
  },
  "miner": "0x790b8a3cE86E707ED0eD32bF89B3269692a23CC1",
  "extraData": "0xd783010001844765746887676f312e342e32856c696e7578",
  "transactions": [
    {
      "hash": "0xe8cf811469f09ecf763c7b7863a10297d7da9855fc66319d506af8081b9b1803",
      "blockHash": "0x3881d2fddcd87b9a1d507c21ba80d5e2ef47f33844a8767db1564f325b568fcd",
      "blockNumber": 105417,
      "transactionIndex": 0,
      "confirmations": null,
      "from": "0xFAc1B5968b6CC27786d1A28c3E360B8c421569B9",
      "gasPrice": {
        "_hex": "0xd29c8587c"
      },
      "gasLimit": {
        "_hex": "0x5208"
      },
      "to": "0x32Be343B94f860124dC4fEe278FDCBD38C102D88",
      "value": {
        "_hex": "0x348b4c60b6a6f400"
      },
      "nonce": 7,
      "data": "0x",
      "r": "0x8a2741d2703fe6d968577f03a087679a1a1fb81c55db7c37b6a0e597c6a740fe",
      "s": "0x65d9bf1e2516c7a121e390fd5a2093db5fcdde3737fa0606b89a8ab5664b3ca5",
      "v": 27,
      "creates": null,
      "raw": "0xf86c07850d29c8587c8252089432be343b94f860124dc4fee278fdcbd38c102d8888348b4c60b6a6f400801ba08a2741d2703fe6d968577f03a087679a1a1fb81c55db7c37b6a0e597c6a740fea065d9bf1e2516c7a121e390fd5a2093db5fcdde3737fa0606b89a8ab5664b3ca5",
      "networkId": 0,
      "chainId": 0
    },
    {
      "hash": "0x771bc84398c7fc089de05640922c9ee771b4b9f5f1ae996e5ba82e7a69083881",
      "blockHash": "0x3881d2fddcd87b9a1d507c21ba80d5e2ef47f33844a8767db1564f325b568fcd",
      "blockNumber": 105417,
      "transactionIndex": 1,
      "confirmations": null,
      "from": "0x1d06b86EBBfD6bA717B6d14c0136dE1D88aa5989",
      "gasPrice": {
        "_hex": "0xd29c8587c"
      },
      "gasLimit": {
        "_hex": "0x5208"
      },
      "to": "0x32Be343B94f860124dC4fEe278FDCBD38C102D88",
      "value": {
        "_hex": "0x1ee75071b1a66c00"
      },
      "nonce": 6,
      "data": "0x",
      "r": "0xf48b8c4047345713960d5b4fdf3a70182472498efb922ab52c48df14151e572f",
      "s": "0x26d19ee4cb88c012fec0147de8764bfd3086d50bd21e5e33cfaa0f4b63b80602",
      "v": 28,
      "creates": null,
      "raw": "0xf86c06850d29c8587c8252089432be343b94f860124dc4fee278fdcbd38c102d88881ee75071b1a66c00801ca0f48b8c4047345713960d5b4fdf3a70182472498efb922ab52c48df14151e572fa026d19ee4cb88c012fec0147de8764bfd3086d50bd21e5e33cfaa0f4b63b80602",
      "networkId": 0,
      "chainId": 0
    },
    {
      "hash": "0x61ec71f5a028ddca50938fb599b8f671025e1f6c28db21b0b1d028bb472d0364",
      "blockHash": "0x3881d2fddcd87b9a1d507c21ba80d5e2ef47f33844a8767db1564f325b568fcd",
      "blockNumber": 105417,
      "transactionIndex": 2,
      "confirmations": null,
      "from": "0x629e35e0A481d821293F354E0dD27E43a354D061",
      "gasPrice": {
        "_hex": "0xd29c8587c"
      },
      "gasLimit": {
        "_hex": "0x5208"
      },
      "to": "0x32Be343B94f860124dC4fEe278FDCBD38C102D88",
      "value": {
        "_hex": "0xccc0b27887359000"
      },
      "nonce": 6,
      "data": "0x",
      "r": "0x7e13c1d13057049b15f08f4a11eac4c0656351f817ccda795521cb400b94d328",
      "s": "0x6871ce7724bacfd55d4e78faf4592130345b3181a98c96526d3f31a27dc4a893",
      "v": 28,
      "creates": null,
      "raw": "0xf86c06850d29c8587c8252089432be343b94f860124dc4fee278fdcbd38c102d8888ccc0b27887359000801ca07e13c1d13057049b15f08f4a11eac4c0656351f817ccda795521cb400b94d328a06871ce7724bacfd55d4e78faf4592130345b3181a98c96526d3f31a27dc4a893",
      "networkId": 0,
      "chainId": 0
    }
  ]
}