{
  "hash": "0x32f8519e89202355b8e84c93bce4718293ffb108ff0fa2c876a3cd3c61946052",
  "parentHash": "0xd88cf66ad0fdc37369affd44e401c27c8a08175e9853b2c93bebbce22a059297",
  "number": 121992,
  "timestamp": 1440186221,
  "nonce": "0x7c839acfd71ae27e",
  "difficulty": 4471002700438,
  "gasLimit": {
    "_hex": "0x2fefd8"
  },
  "gasUsed": {
    "_hex": "0x5208"
  },
  "miner": "0x9D551f41feD6FC27B719777c224DfeCcE170004d",
  "extraData": "0x476574682f76312e302e322d61303330336666342f6c696e75782f676f312e34",
  "transactions": [
    {
      "hash": "0x1e41ab3f54004868c9cb921b3591821daf075826d315cec4c6fde152e91780e2",
      "blockHash": "0x32f8519e89202355b8e84c93bce4718293ffb108ff0fa2c876a3cd3c61946052",
      "blockNumber": 121992,
      "transactionIndex": 0,
      "confirmations": null,
      "from": "0x2910543Af39abA0Cd09dBb2D50200b3E800A63D2",
      "gasPrice": {
        "_hex": "0xd5b11e753"
      },
      "gasLimit": {
        "_hex": "0x5208"
      },
      "to": "0xFFf1471A813EaF20Ade11C3d58E3a64157216587",
      "value": {
        "_hex": "0xba7a7ad685d1b8000"
      },
      "nonce": 1207,
      "data": "0x",
      "r": "0xff5e02de9ba96283cccc757307fc7f1793a29c7815ef2db85166d4c4fecfdd54",
      "s": "0x4244d7bcbe02e3889def4a05de6da229c61112c1032c03f04e3dce72d60b53b1",
      "v": 27,
      "creates": null,
      "raw": "0xf86f8204b7850d5b11e75382520894fff1471a813eaf20ade11c3d58e3a64157216587890ba7a7ad685d1b8000801ba0ff5e02de9ba96283cccc757307fc7f1793a29c7815ef2db85166d4c4fecfdd54a04244d7bcbe02e3889def4a05de6da229c61112c1032c03f04e3dce72d60b53b1",
      "networkId": 0,
      "chainId": 0
    }
  ]
}