{
  "hash": "0x42dfe6679cef8879838ca4d1ee8c68de3fbbbf00bb5e5417d1f85f15c67006ac",
  "parentHash": "0xd7f36719f8decbe42704f5b2a00f82e9dc9501824f95b289643298b392b51e38",
  "number": 119048,
  "timestamp": 1440135813,
  "nonce": "0x361d8173c0214716",
  "difficulty": 4424784006060,
  "gasLimit": {
    "_hex": "0x2fefd8"
  },
  "gasUsed": {
    "_hex": "0x5208"
  },
  "miner": "0x7E6930B63D03e88F5928C5cd6ee3FCee4D714F7F",
  "extraData": "0xd783010003844765746887676f312e342e32856c696e7578",
  "transactions": [
    {
      "hash": "0x7f05fb632f548375df277cde380e75638be9a74a178e5794a6ad543a4838a142",
      "blockHash": "0x42dfe6679cef8879838ca4d1ee8c68de3fbbbf00bb5e5417d1f85f15c67006ac",
      "blockNumber": 119048,
      "transactionIndex": 0,
      "confirmations": null,
      "from": "0x608f4b86321a68453f9adf6F06F7Fc3E621739ad",
      "gasPrice": {
        "_hex": "0xba43b7400"
      },
      "gasLimit": {
        "_hex": "0x5208"
      },
      "to": "0x32Be343B94f860124dC4fEe278FDCBD38C102D88",
      "value": {
        "_hex": "0x3406f22986b36000"
      },
      "nonce": 19,
      "data": "0x",
      "r": "0x021e2186fd40ad82ee11320ebe5abbd9d96dba8be689f2f245e41edac6371269",
      "s": "0x41c0f9a776bfc9ee79d6bd298c3ad00422e79b0c98e5201dec586b05cc4a4cc1",
      "v": 27,
      "creates": null,
      "raw": "0xf86c13850ba43b74008252089432be343b94f860124dc4fee278fdcbd38c102d88883406f22986b36000801ba0021e2186fd40ad82ee11320ebe5abbd9d96dba8be689f2f245e41edac6371269a041c0f9a776bfc9ee79d6bd298c3ad00422e79b0c98e5201dec586b05cc4a4cc1",
      "networkId": 0,
      "chainId": 0
    }
  ]
}