{
  "hash": "0xe2faf5685fa4fcf06d82de4c80fbcc0316a2dbae9826aedc4e9fea4f0853e8c8",
  "parentHash": "0x709c6d9dfe50b963fad9e134ca4efa9a215d71229f38f7b1694dd7352351448d",
  "number": 73289,
  "timestamp": 1439366678,
  "nonce": "0x7cd2ea6cfed1d24b",
  "difficulty": 2201332869522,
  "gasLimit": {
    "_hex": "0x2fefd8"
  },
  "gasUsed": {
    "_hex": "0x13af2"
  },
  "miner": "0x157c6f2431eB1a95797EE86F7d17b3c0FD47A247",
  "extraData": "0x476574682f76312e302e312f77696e646f77732f676f312e342e32",
  "transactions": [
    {
      "hash": "0x10bc3b5f551fa272bae018a871efa2d4e8537b806be41515aeedfa7d75148f3e",
      "blockHash": "0xe2faf5685fa4fcf06d82de4c80fbcc0316a2dbae9826aedc4e9fea4f0853e8c8",
      "blockNumber": 73289,
      "transactionIndex": 0,
      "confirmations": null,
      "from": "0x326Be8F71bFb0379f989aAB1CC1fE37f0a771f60",
      "gasPrice": {
        "_hex": "0x10b3274548a"
      },
      "gasLimit": {
        "_hex": "0x493e0"
      },
      "to": "0xB86A36e3E0d2E8132F5798119148eDEF957E1912",
      "value": {
        "_hex": "0x8ac7230489e80000"
      },
      "nonce": 37,
      "data": "0x8d21618600000000000000000000000000000000000000000000000000000000000000808d5adaad541502933bfca57b79fdcf7b21a9ea7dbcf2e9321d253f5db02ac8f3",
      "r": "0xcdf13dbc78e852179349d9728519f37dd89e1ffa2b6f5f72ab75445780f217f2",
      "s": "0x75535d6335a9a898f4c8380f385ad639d85528f861107862a626c76736f421e7",
      "v": 27,
      "creates": null,
      "raw": "0xf8b32586010b3274548a830493e094b86a36e3e0d2e8132f5798119148edef957e1912888ac7230489e80000b8448d21618600000000000000000000000000000000000000000000000000000000000000808d5adaad541502933bfca57b79fdcf7b21a9ea7dbcf2e9321d253f5db02ac8f31ba0cdf13dbc78e852179349d9728519f37dd89e1ffa2b6f5f72ab75445780f217f2a075535d6335a9a898f4c8380f385ad639d85528f861107862a626c76736f421e7",
      "networkId": 0,
      "chainId": 0
    },
    {
      "hash": "0x4d6a14fc8ad030d023d1952f7c049f0ff31af08f2c7a9f03de0ae25f755385d5",
      "blockHash": "0xe2faf5685fa4fcf06d82de4c80fbcc0316a2dbae9826aedc4e9fea4f0853e8c8",
      "blockNumber": 73289,
      "transactionIndex": 1,
      "confirmations": null,
      "from": "0x326Be8F71bFb0379f989aAB1CC1fE37f0a771f60",
      "gasPrice": {
        "_hex": "0x10b3274548a"
      },
      "gasLimit": {
        "_hex": "0x493e0"
      },
      "to": "0xB86A36e3E0d2E8132F5798119148eDEF957E1912",
      "value": {
        "_hex": "0x0"
      },
      "nonce": 38,
      "data": "0x2e1a7d4d0000000000000000000000000000000000000000000000004563918244f40000",
      "r": "0x94f7d20dceea29ae32042a3c18241a062825de6086f3bb9465d40fdfc1e3b667",
      "s": "0x378c758bf75f6472e43a73461197b084dbbff761145fd804be1224e8c8dbdd61",
      "v": 28,
      "creates": null,
      "raw": "0xf88a2686010b3274548a830493e094b86a36e3e0d2e8132f5798119148edef957e191280a42e1a7d4d0000000000000000000000000000000000000000000000004563918244f400001ca094f7d20dceea29ae32042a3c18241a062825de6086f3bb9465d40fdfc1e3b667a0378c758bf75f6472e43a73461197b084dbbff761145fd804be1224e8c8dbdd61",
      "networkId": 0,
      "chainId": 0
    }
  ]
}