{
  "hash": "0xd33db4c579af537f48dda2e5ad7a39d4a5af5ad8f1483112cec500430152187b",
  "parentHash": "0x80580253125fa824e306a24681079c21d72d4d82a70e543e9bcb3316f8ce0aa6",
  "number": 65286,
  "timestamp": 1439234338,
  "nonce": "0x140235db9ee6edc0",
  "difficulty": 1945473379338,
  "gasLimit": {
    "_hex": "0x2fefd8"
  },
  "gasUsed": {
    "_hex": "0xa410"
  },
  "miner": "0xe997A23B159E2E2a5Ce72333262972374B15425c",
  "extraData": "0x",
  "transactions": [
    {
      "hash": "0x8edceadd9c5a200149bd5bbb3990ba719c8f72b2c743891b3da1ee996fe1f141",
      "blockHash": "0xd33db4c579af537f48dda2e5ad7a39d4a5af5ad8f1483112cec500430152187b",
      "blockNumber": 65286,
      "transactionIndex": 0,
      "confirmations": null,
      "from": "0x3C278C6f9bf2785AFAe39E94AfCc49fc03A1E7ae",
      "gasPrice": {
        "_hex": "0xba43b7400"
      },
      "gasLimit": {
        "_hex": "0x5208"
      },
      "to": "0x27bC88BcD00d1359207616684bC49c9f64e49B5D",
      "value": {
        "_hex": "0x84229bebf84c000"
      },
      "nonce": 1,
      "data": "0x",
      "r": "0x78cf5ae49302d251b89317fe3d7e115750c57e60c4363f4504d3bddaca81aeb9",
      "s": "0x5df25668f551f9cd97ff82c25eec73f80a90056af99ae3564944deb056d070bb",
      "v": 28,
      "creates": null,
      "raw": "0xf86c01850ba43b74008252089427bc88bcd00d1359207616684bc49c9f64e49b5d88084229bebf84c000801ca078cf5ae49302d251b89317fe3d7e115750c57e60c4363f4504d3bddaca81aeb9a05df25668f551f9cd97ff82c25eec73f80a90056af99ae3564944deb056d070bb",
      "networkId": 0,
      "chainId": 0
    },
    {
      "hash": "0x509b6fc66544d7c4c0c7a8fae8ec1fceec22fcb1d6022ec12efa9820ce3bacb6",
      "blockHash": "0xd33db4c579af537f48dda2e5ad7a39d4a5af5ad8f1483112cec500430152187b",
      "blockNumber": 65286,
      "transactionIndex": 1,
      "confirmations": null,
      "from": "0x373a3Bc8f009Ada79bb6fE2E10d57127083112CA",
      "gasPrice": {
        "_hex": "0xba43b7400"
      },
      "gasLimit": {
        "_hex": "0x5208"
      },
      "to": "0x4FA5b61bC076cbaD1E02c4C0A1dfa9872Fad9A4D",
      "value": {
        "_hex": "0x7ce79de7fb29000"
      },
      "nonce": 1,
      "data": "0x",
      "r": "0x1a885789267e7b2b4ff4807fb3b392ffd3d7c3925dc9d76ee81410489f6e9747",
      "s": "0x67918c0afbf3c650e338a43ca28b86272826e447f5cf4b01df11e6e159cf60f9",
      "v": 27,
      "creates": null,
      "raw": "0xf86c01850ba43b7400825208944fa5b61bc076cbad1e02c4c0a1dfa9872fad9a4d8807ce79de7fb29000801ba01a885789267e7b2b4ff4807fb3b392ffd3d7c3925dc9d76ee81410489f6e9747a067918c0afbf3c650e338a43ca28b86272826e447f5cf4b01df11e6e159cf60f9",
      "networkId": 0,
      "chainId": 0
    }
  ]
}