{
  "hash": "0x9f4c6fa64543b454a76a9364dc64d269fa24ccc1d7b6b30cc4a868f7ab07578f",
  "parentHash": "0xce5566fa4cfe2db2766bef0c03a47e5c361c98f48fea37a5ce355ade229c7384",
  "number": 106127,
  "timestamp": 1439899057,
  "nonce": "0xe26f0024eb9d375d",
  "difficulty": 4468543651006,
  "gasLimit": {
    "_hex": "0x2fefd8"
  },
  "gasUsed": {
    "_hex": "0xa410"
  },
  "miner": "0x580992B51e3925e23280EfB93d3047C82f17E038",
  "extraData": "0x476574682f76312e302e312f6c696e75782f676f312e342e32",
  "transactions": [
    {
      "hash": "0xb8e6b96be9bc59845d8740573061fd3b0352a6b224443439ac3695db9f131315",
      "blockHash": "0x9f4c6fa64543b454a76a9364dc64d269fa24ccc1d7b6b30cc4a868f7ab07578f",
      "blockNumber": 106127,
      "transactionIndex": 0,
      "confirmations": null,
      "from": "0x06EC48800B2DB3eEfa052e98A9b5Fc2Bf783Ee74",
      "gasPrice": {
        "_hex": "0xdbeab6069"
      },
      "gasLimit": {
        "_hex": "0x5208"
      },
      "to": "0x32Be343B94f860124dC4fEe278FDCBD38C102D88",
      "value": {
        "_hex": "0x455f357c71713000"
      },
      "nonce": 25,
      "data": "0x",
      "r": "0x29ae54c9a735c8e8602e446bdce0c0c5faee7402cf69687085a655354e202e6d",
      "s": "0x711b3f43d7c2ab66792d1db8854a2bd61e062c5f2833235622e114bfa5c7e46b",
      "v": 28,
      "creates": null,
      "raw": "0xf86c19850dbeab60698252089432be343b94f860124dc4fee278fdcbd38c102d8888455f357c71713000801ca029ae54c9a735c8e8602e446bdce0c0c5faee7402cf69687085a655354e202e6da0711b3f43d7c2ab66792d1db8854a2bd61e062c5f2833235622e114bfa5c7e46b",
      "networkId": 0,
      "chainId": 0
    },
    {
      "hash": "0x27d3e4e7fb0b9be6f0f62caf2931a123839ab1d0c441acf0db3e763ad7e26c04",
      "blockHash": "0x9f4c6fa64543b454a76a9364dc64d269fa24ccc1d7b6b30cc4a868f7ab07578f",
      "blockNumber": 106127,
      "transactionIndex": 1,
      "confirmations": null,
      "from": "0xAF654b2845616930f74573a909B477E23752DcA4",
      "gasPrice": {
        "_hex": "0xba43b7400"
      },
      "gasLimit": {
        "_hex": "0x5267"
      },
      "to": "0x0000000000000000000000000000000000000000",
      "value": {
        "_hex": "0xde0b6b3a7640000"
      },
      "nonce": 12,
      "data": "0x",
      "r": "0x6c2be04822af4f04cd7caa852f076346bb79b672e463fa98bd87fc205d72a633",
      "s": "0xb8c0f3a9b46f63f2e78de73479d2cd2c2730b809f0cf6c4a9f59cf5ad84e1380",
      "v": 27,
      "creates": null,
      "raw": "0xf86c0c850ba43b7400825267940000000000000000000000000000000000000000880de0b6b3a7640000801ba06c2be04822af4f04cd7caa852f076346bb79b672e463fa98bd87fc205d72a633a0b8c0f3a9b46f63f2e78de73479d2cd2c2730b809f0cf6c4a9f59cf5ad84e1380",
      "networkId": 0,
      "chainId": 0
    }
  ]
}