{
  "hash": "0x5802b0beb5ed5dd8b8b84eaaf62e1c595d49bddbcfac72609ad80993963667f8",
  "parentHash": "0x50c8c17266862dce72a2c82cb7a09885d35a7235c4ea8ef81f343badc4f07cab",
  "number": 71879,
  "timestamp": 1439343388,
  "nonce": "0xf453637543b527b6",
  "difficulty": 2167568669450,
  "gasLimit": {
    "_hex": "0x2fefd8"
  },
  "gasUsed": {
    "_hex": "0x9400"
  },
  "miner": "0xe6A7a1d47ff21B6321162AEA7C6CB457D5476Bca",
  "extraData": "0x476574682f76312e302e312d38326566323666362f6c696e75782f676f312e34",
  "transactions": [
    {
      "hash": "0x5ac4464639eb095272ac9a23958e8b93d30b65dc57eed5eca18b1e38c9e3e24a",
      "blockHash": "0x5802b0beb5ed5dd8b8b84eaaf62e1c595d49bddbcfac72609ad80993963667f8",
      "blockNumber": 71879,
      "transactionIndex": 0,
      "confirmations": null,
      "from": "0x17580B766f7453525ca4C6A88b01b50570EA088C",
      "gasPrice": {
        "_hex": "0xd312171a7"
      },
      "gasLimit": {
        "_hex": "0x61a80"
      },
      "to": "0x5Fe5B7546D1628f7348B023A0393de1FC825A4fD",
      "value": {
        "_hex": "0x53444835ec580000"
      },
      "nonce": 280,
      "data": "0xb595b8b50000000000000000000000000000000000000000000000000000000000000001",
      "r": "0x697cef6d4f171201b1a5ec26b38bed6044bcccecd33d453687cfd9f1f13f2d74",
      "s": "0x6e866ebb5d0a63ac83822b48db84b1adb77d4699106371d749e496016891ab49",
      "v": 28,
      "creates": null,
      "raw": "0xf893820118850d312171a783061a80945fe5b7546d1628f7348b023a0393de1fc825a4fd8853444835ec580000a4b595b8b500000000000000000000000000000000000000000000000000000000000000011ca0697cef6d4f171201b1a5ec26b38bed6044bcccecd33d453687cfd9f1f13f2d74a06e866ebb5d0a63ac83822b48db84b1adb77d4699106371d749e496016891ab49",
      "networkId": 0,
      "chainId": 0
    }
  ]
}