{
  "hash": "0xe3e72c476aa51682bdd258691103b82342227e9e6b4c01f2535e6a72f9b5bed8",
  "parentHash": "0x1064ce4c8e20e0d6a455f2fcf9aef716e8f430d827274cbd0bae7c980cd63e68",
  "number": 54273,
  "timestamp": 1439051569,
  "nonce": "0xfaf5b10226f382cf",
  "difficulty": 1604754059137,
  "gasLimit": {
    "_hex": "0x2fefd8"
  },
  "gasUsed": {
    "_hex": "0x15f90"
  },
  "miner": "0x0193d941b50d91BE6567c7eE1C0Fe7AF498b4137",
  "extraData": "0x4a5ace9e4e",
  "transactions": [
    {
      "hash": "0x472c6737bd34ddb24d2729c784cab94d9bbf75ab70127230ba2f67c906765685",
      "blockHash": "0xe3e72c476aa51682bdd258691103b82342227e9e6b4c01f2535e6a72f9b5bed8",
      "blockNumber": 54273,
      "transactionIndex": 0,
      "confirmations": null,
      "from": "0x8674c218F0351a62C3BA78C34FD2182A93Da94E2",
      "gasPrice": {
        "_hex": "0xdc73bc837"
      },
      "gasLimit": {
        "_hex": "0x15f90"
      },
      "to": "0x97b29A4a9087F7DA2A9Bb06aCa8F7Be7d67c3532",
      "value": {
        "_hex": "0x0"
      },
      "nonce": 15,
      "data": "0xde6f24bb0000000000000000000000008674c218f0351a62c3ba78c34fd2182a93da94e20000000000000000000000000000000000000000000000000000000000000040000000000000000000000000000000000000000000000000000000000000000668656c6c6f210000000000000000000000000000000000000000000000000000",
      "r": "0x83c29ba1821090b43c6f2b5d58e202eadf5382b531c5c02d953ea73f3f4aede7",
      "s": "0x30ec155a171295142b7022012c3c0f81b5f15cb3451fbc4498536dbe2763fb8c",
      "v": 28,
      "creates": null,
      "raw": "0xf8ea0f850dc73bc83783015f909497b29a4a9087f7da2a9bb06aca8f7be7d67c353280b884de6f24bb0000000000000000000000008674c218f0351a62c3ba78c34fd2182a93da94e20000000000000000000000000000000000000000000000000000000000000040000000000000000000000000000000000000000000000000000000000000000668656c6c6f2100000000000000000000000000000000000000000000000000001ca083c29ba1821090b43c6f2b5d58e202eadf5382b531c5c02d953ea73f3f4aede7a030ec155a171295142b7022012c3c0f81b5f15cb3451fbc4498536dbe2763fb8c",
      "networkId": 0,
      "chainId": 0
    }
  ]
}