{
  "hash": "0x14fcee088342e45ec30334ae5e7405faab5d2114f4135dfe4be87c103e1b6ff4",
  "parentHash": "0x144dbebe9dfbdf6d1caf261024da40b31e8c65d38e46ca7f936999b75e15e121",
  "number": 64823,
  "timestamp": 1439226818,
  "nonce": "0x9ee29bf68c9fb98a",
  "difficulty": 1899583669639,
  "gasLimit": {
    "_hex": "0x2fefd8"
  },
  "gasUsed": {
    "_hex": "0xf618"
  },
  "miner": "0xe6A7a1d47ff21B6321162AEA7C6CB457D5476Bca",
  "extraData": "0x476574682f76312e302e312f6c696e75782f676f312e342e32",
  "transactions": [
    {
      "hash": "0x24dde3114b1f2981994d8cfb6e054fc1b6fa70d5a8b0dd666034ea0c42aaa2d5",
      "blockHash": "0x14fcee088342e45ec30334ae5e7405faab5d2114f4135dfe4be87c103e1b6ff4",
      "blockNumber": 64823,
      "transactionIndex": 0,
      "confirmations": null,
      "from": "0x26d4C7e14DB6372C86d3b6C79D512daF05B85239",
      "gasPrice": {
        "_hex": "0xd5c78848e"
      },
      "gasLimit": {
        "_hex": "0x15f90"
      },
      "to": "0x120A270bbC009644e35F0bB6ab13f95b8199c4ad",
      "value": {
        "_hex": "0x3635a626d36edf0000"
      },
      "nonce": 0,
      "data": "0x",
      "r": "0x02a7909b10b2bebc39fe519a64c812cc3474f0c16dde931aaedbaa0914c74fdd",
      "s": "0x21ea0630aa79241103bc6008a37f179b7abae77732f8e2746b8d567a611e5b77",
      "v": 27,
      "creates": null,
      "raw": "0xf86e80850d5c78848e83015f9094120a270bbc009644e35f0bb6ab13f95b8199c4ad893635a626d36edf0000801ba002a7909b10b2bebc39fe519a64c812cc3474f0c16dde931aaedbaa0914c74fdda021ea0630aa79241103bc6008a37f179b7abae77732f8e2746b8d567a611e5b77",
      "networkId": 0,
      "chainId": 0
    },
    {
      "hash": "0xa8b37ece86c5810a8692637feef83c2766ce9cb844e7e0f5781587b3228543ca",
      "blockHash": "0x14fcee088342e45ec30334ae5e7405faab5d2114f4135dfe4be87c103e1b6ff4",
      "blockNumber": 64823,
      "transactionIndex": 1,
      "confirmations": null,
      "from": "0xe6e41587F259c8aC862F6276aF333DdfB03FAA37",
      "gasPrice": {
        "_hex": "0xba43b7400"
      },
      "gasLimit": {
        "_hex": "0x5208"
      },
      "to": "0x2f37F33a54FE63133C6a312f9dA494C1F95b47C7",
      "value": {
        "_hex": "0x1c045218ee54000"
      },
      "nonce": 1,
      "data": "0x",
      "r": "0xdb760d73192e8db3ab28d3e7cd9975669d1a0cf3f558a894a07ca5c45179532a",
      "s": "0x0d1749f9f24d548cbe2f25ddccbac8d2e4ca17af01a5131a1eff8314a732175e",
      "v": 27,
      "creates": null,
      "raw": "0xf86c01850ba43b7400825208942f37f33a54fe63133c6a312f9da494c1f95b47c78801c045218ee54000801ba0db760d73192e8db3ab28d3e7cd9975669d1a0cf3f558a894a07ca5c45179532aa00d1749f9f24d548cbe2f25ddccbac8d2e4ca17af01a5131a1eff8314a732175e",
      "networkId": 0,
      "chainId": 0
    },
    {
      "hash": "0x648e5f018605e8b176d220473dd75c01e021d2befc3c3c2d8e95a18f28fdafa7",
      "blockHash": "0x14fcee088342e45ec30334ae5e7405faab5d2114f4135dfe4be87c103e1b6ff4",
      "blockNumber": 64823,
      "transactionIndex": 2,
      "confirmations": null,
      "from": "0x52689EcF4dBEa4Aa134Cf9D72085BceE7B14e08E",
      "gasPrice": {
        "_hex": "0xba43b7400"
      },
      "gasLimit": {
        "_hex": "0x5208"
      },
      "to": "0xCEcEFf918C497921DA6c0fe788854d42c17986e3",
      "value": {
        "_hex": "0x1ee8b7b42062000"
      },
      "nonce": 1,
      "data": "0x",
      "r": "0x03b6ab42754ce81919393029eadd85ebb91225ec424ab82a53a867a5f58aa4ac",
      "s": "0x4feb6b170c3513bfffc6752a9d70a2b64f0bf280cbbc90ff29f26d7ae95f1b50",
      "v": 28,
      "creates": null,
      "raw": "0xf86c01850ba43b740082520894ceceff918c497921da6c0fe788854d42c17986e38801ee8b7b42062000801ca003b6ab42754ce81919393029eadd85ebb91225ec424ab82a53a867a5f58aa4aca04feb6b170c3513bfffc6752a9d70a2b64f0bf280cbbc90ff29f26d7ae95f1b50",
      "networkId": 0,
      "chainId": 0
    }
  ]
}