{
  "hash": "0x27c01abea13140edebc3f565efcdd90c789241a3478f0b6a5ff1815a96508d1c",
  "parentHash": "0x585dbc8d5bfae476040fffac341e8a2e9580adc10c8386a2b973f0414bb6e0cb",
  "number": 102409,
  "timestamp": 1439837563,
  "nonce": "0x9cee3c1a76d3105f",
  "difficulty": 3968408513623,
  "gasLimit": {
    "_hex": "0x2fefd8"
  },
  "gasUsed": {
    "_hex": "0x546c"
  },
  "miner": "0xe6A7a1d47ff21B6321162AEA7C6CB457D5476Bca",
  "extraData": "0x476574682f76312e302e312d38326566323666362f6c696e75782f676f312e34",
  "transactions": [
    {
      "hash": "0xffbe31dbc39eda7591e36660b3c7c076cf12b25a8d2f851cd49698c77037a00f",
      "blockHash": "0x27c01abea13140edebc3f565efcdd90c789241a3478f0b6a5ff1815a96508d1c",
      "blockNumber": 102409,
      "transactionIndex": 0,
      "confirmations": null,
      "from": "0x8Dd484fF8A307364eB66C525A571aaC701C5C318",
      "gasPrice": {
        "_hex": "0x110c8f7d8de"
      },
      "gasLimit": {
        "_hex": "0xc350"
      },
      "to": "0x2910543Af39abA0Cd09dBb2D50200b3E800A63D2",
      "value": {
        "_hex": "0x6c6b935b8bbd400000"
      },
      "nonce": 0,
      "data": "0x454e56433331385647",
      "r": "0x08e41513e4b7d097f5c5c2dd33684cfe47d72d357d38b5cd8cddcf81b9909557",
      "s": "0xbbd6ab1a1c2604347f792a047e55fc042c3bcdbf2278e5bc57474a5e59ba7018",
      "v": 27,
      "creates": null,
      "raw": "0xf87780860110c8f7d8de82c350942910543af39aba0cd09dbb2d50200b3e800a63d2896c6b935b8bbd40000089454e564333313856471ba008e41513e4b7d097f5c5c2dd33684cfe47d72d357d38b5cd8cddcf81b9909557a0bbd6ab1a1c2604347f792a047e55fc042c3bcdbf2278e5bc57474a5e59ba7018",
      "networkId": 0,
      "chainId": 0
    }
  ]
}