{
  "hash": "0x868c9c8b037862a74d54607e01c7976081feb03f228fd5fa0ec4f6bd61ca5500",
  "parentHash": "0x35fe9c87217a346ec8b6d8eabc913de094c2ff93d01ef9ba8a698692b9d3939d",
  "number": 110903,
  "timestamp": 1439981480,
  "nonce": "0x6f5d9dc20f9186d2",
  "difficulty": 4405357133521,
  "gasLimit": {
    "_hex": "0x2fefd8"
  },
  "gasUsed": {
    "_hex": "0xa410"
  },
  "miner": "0xe6A7a1d47ff21B6321162AEA7C6CB457D5476Bca",
  "extraData": "0x476574682f76312e302e312d38326566323666362f6c696e75782f676f312e34",
  "transactions": [
    {
      "hash": "0x7f87798a0fa7ba5c0de5f73fd7c526857d3be0888ef843dcb7b19574c415c55b",
      "blockHash": "0x868c9c8b037862a74d54607e01c7976081feb03f228fd5fa0ec4f6bd61ca5500",
      "blockNumber": 110903,
      "transactionIndex": 0,
      "confirmations": null,
      "from": "0xb1abce2918E21ddb93AA452731a12672A3d9F75a",
      "gasPrice": {
        "_hex": "0xcc99519cf"
      },
      "gasLimit": {
        "_hex": "0x5208"
      },
      "to": "0x32Be343B94f860124dC4fEe278FDCBD38C102D88",
      "value": {
        "_hex": "0x455f83d4798b0800"
      },
      "nonce": 171,
      "data": "0x",
      "r": "0x241487291d86165133421f26551c77499a1a663dc2cf0efce62d67084063632a",
      "s": "0x56124d7c480c2fce25786b4438c01aa38ffd5b3a9e200264a5555e74366661e1",
      "v": 27,
      "creates": null,
      "raw": "0xf86d81ab850cc99519cf8252089432be343b94f860124dc4fee278fdcbd38c102d8888455f83d4798b0800801ba0241487291d86165133421f26551c77499a1a663dc2cf0efce62d67084063632aa056124d7c480c2fce25786b4438c01aa38ffd5b3a9e200264a5555e74366661e1",
      "networkId": 0,
      "chainId": 0
    },
    {
      "hash": "0x75518c6ec5c92f366d5c568081ac59048463adc97bc23bd6729cec6f1e8979b9",
      "blockHash": "0x868c9c8b037862a74d54607e01c7976081feb03f228fd5fa0ec4f6bd61ca5500",
      "blockNumber": 110903,
      "transactionIndex": 1,
      "confirmations": null,
      "from": "0xa70a9a7040d542C632D8e0bE7c5513A8a5Bbc752",
      "gasPrice": {
        "_hex": "0xcc99519cf"
      },
      "gasLimit": {
        "_hex": "0x5208"
      },
      "to": "0x32Be343B94f860124dC4fEe278FDCBD38C102D88",
      "value": {
        "_hex": "0x455f83591314d400"
      },
      "nonce": 289,
      "data": "0x",
      "r": "0x0896fe3bcfabea8824dbb71c0d95b17c72945924deff5a938b5cb04cf60a43c3",
      "s": "0x6bac686ed3038ae5cbe54742a91026e003bc8393af67813876bc0b7a0fd1c738",
      "v": 28,
      "creates": null,
      "raw": "0xf86e820121850cc99519cf8252089432be343b94f860124dc4fee278fdcbd38c102d8888455f83591314d400801ca00896fe3bcfabea8824dbb71c0d95b17c72945924deff5a938b5cb04cf60a43c3a06bac686ed3038ae5cbe54742a91026e003bc8393af67813876bc0b7a0fd1c738",
      "networkId": 0,
      "chainId": 0
    }
  ]
}