{
  "hash": "0xd3b0bd7efe0ed71c21889cb5796a7eb155183ed1e9bc436bfd897fa5bfbc0510",
  "parentHash": "0xcc6f5c2cc3cb9c62b6feb51a682f760357e87b1a3c4af54ac64e3be6f6b460ab",
  "number": 71279,
  "timestamp": 1439333653,
  "nonce": "0xcabf6580c95938eb",
  "difficulty": 2155059343357,
  "gasLimit": {
    "_hex": "0x2fefd8"
  },
  "gasUsed": {
    "_hex": "0x1bb59"
  },
  "miner": "0xf927a40C8B7F6E07c5af7FA2155B4864a4112B13",
  "extraData": "0x",
  "transactions": [
    {
      "hash": "0xa6c5dd1eefb1d23bbd17c099179a4e7add16ac15d9e0f303f1dc9f282cab6f93",
      "blockHash": "0xd3b0bd7efe0ed71c21889cb5796a7eb155183ed1e9bc436bfd897fa5bfbc0510",
      "blockNumber": 71279,
      "transactionIndex": 0,
      "confirmations": null,
      "from": "0x17580B766f7453525ca4C6A88b01b50570EA088C",
      "gasPrice": {
        "_hex": "0xd13625915"
      },
      "gasLimit": {
        "_hex": "0x61a80"
      },
      "to": "0x5Fe5B7546D1628f7348B023A0393de1FC825A4fD",
      "value": {
        "_hex": "0xde0b6b3a7640000"
      },
      "nonce": 141,
      "data": "0xb595b8b50000000000000000000000000000000000000000000000000000000000000001",
      "r": "0xe455feadbd95bfeece18630adf2b0b4a53e931e07a3970f00561204666045d81",
      "s": "0x185dcdbb66ed50d5bf51856e45fda23d238bd7f93d4df47deddf3afafae36f5a",
      "v": 28,
      "creates": null,
      "raw": "0xf892818d850d1362591583061a80945fe5b7546d1628f7348b023a0393de1fc825a4fd880de0b6b3a7640000a4b595b8b500000000000000000000000000000000000000000000000000000000000000011ca0e455feadbd95bfeece18630adf2b0b4a53e931e07a3970f00561204666045d81a0185dcdbb66ed50d5bf51856e45fda23d238bd7f93d4df47deddf3afafae36f5a",
      "networkId": 0,
      "chainId": 0
    },
    {
      "hash": "0xafd7eee19b409de1cc7e27f3d772dae5e097b2c34a73322efec4b0a55b5b1370",
      "blockHash": "0xd3b0bd7efe0ed71c21889cb5796a7eb155183ed1e9bc436bfd897fa5bfbc0510",
      "blockNumber": 71279,
      "transactionIndex": 1,
      "confirmations": null,
      "from": "0x17580B766f7453525ca4C6A88b01b50570EA088C",
      "gasPrice": {
        "_hex": "0xd13625915"
      },
      "gasLimit": {
        "_hex": "0x61a80"
      },
      "to": "0x5Fe5B7546D1628f7348B023A0393de1FC825A4fD",
      "value": {
        "_hex": "0xde0b6b3a7640000"
      },
      "nonce": 142,
      "data": "0xb595b8b50000000000000000000000000000000000000000000000000000000000000000",
      "r": "0x15f720ce3ff8839c676a968582c3f0774454b1163af4a1ced029e7ac5d8b5cc1",
      "s": "0x65668d49c47dc597f9b07249c88a85d8a2280263feba1bcab5c828c991960a85",
      "v": 27,
      "creates": null,
      "raw": "0xf892818e850d1362591583061a80945fe5b7546d1628f7348b023a0393de1fc825a4fd880de0b6b3a7640000a4b595b8b500000000000000000000000000000000000000000000000000000000000000001ba015f720ce3ff8839c676a968582c3f0774454b1163af4a1ced029e7ac5d8b5cc1a065668d49c47dc597f9b07249c88a85d8a2280263feba1bcab5c828c991960a85",
      "networkId": 0,
      "chainId": 0
    },
    {
      "hash": "0xc5633a9b98bea920f96579eb3c535f713af10ba6509244292b6e9090d473df0c",
      "blockHash": "0xd3b0bd7efe0ed71c21889cb5796a7eb155183ed1e9bc436bfd897fa5bfbc0510",
      "blockNumber": 71279,
      "transactionIndex": 2,
      "confirmations": null,
      "from": "0x17580B766f7453525ca4C6A88b01b50570EA088C",
      "gasPrice": {
        "_hex": "0xd13625915"
      },
      "gasLimit": {
        "_hex": "0x61a80"
      },
      "to": "0x5Fe5B7546D1628f7348B023A0393de1FC825A4fD",
      "value": {
        "_hex": "0xde0b6b3a7640000"
      },
      "nonce": 143,
      "data": "0xb595b8b50000000000000000000000000000000000000000000000000000000000000000",
      "r": "0x1e5a597702c940936ac5d9f4dfe90df62a5981d6d7bcc37f88c84c9dffa51122",
      "s": "0x5f4da917bc955001c0972349300d51cfb7b64d8eabd88f6323b06aeea2e1f499",
      "v": 28,
      "creates": null,
      "raw": "0xf892818f850d1362591583061a80945fe5b7546d1628f7348b023a0393de1fc825a4fd880de0b6b3a7640000a4b595b8b500000000000000000000000000000000000000000000000000000000000000001ca01e5a597702c940936ac5d9f4dfe90df62a5981d6d7bcc37f88c84c9dffa51122a05f4da917bc955001c0972349300d51cfb7b64d8eabd88f6323b06aeea2e1f499",
      "networkId": 0,
      "chainId": 0
    }
  ]
}