{
  "hash": "0x7d1925b901c906b0d2bd7e2919385ec30d30175dafbf7c8ef6ee7720918b7a35",
  "parentHash": "0xf01ff9ca155fb6ecf79fba45da9fb24b0710cd352785a22e0cb424f18cf0cd0e",
  "number": 98119,
  "timestamp": 1439767259,
  "nonce": "0x78098faa99ee0c98",
  "difficulty": 3889842739427,
  "gasLimit": {
    "_hex": "0x2fefd8"
  },
  "gasUsed": {
    "_hex": "0x5208"
  },
  "miner": "0x0037ce3d4B7f8729C8607D8D0248252Be68202c0",
  "extraData": "0x476574682f76312e302e312f77696e646f77732f676f312e342e32",
  "transactions": [
    {
      "hash": "0xa3e7e783edaa4311b799629f4e3b9a302d147fbd19ab551655fa0e99c638d3ab",
      "blockHash": "0x7d1925b901c906b0d2bd7e2919385ec30d30175dafbf7c8ef6ee7720918b7a35",
      "blockNumber": 98119,
      "transactionIndex": 0,
      "confirmations": null,
      "from": "0x0D4EcC7d750180EBf4A9Df728B6669B5Bceb5E40",
      "gasPrice": {
        "_hex": "0xd037fdad4"
      },
      "gasLimit": {
        "_hex": "0x5208"
      },
      "to": "0x32Be343B94f860124dC4fEe278FDCBD38C102D88",
      "value": {
        "_hex": "0x4563d9c95212cc00"
      },
      "nonce": 47,
      "data": "0x",
      "r": "0xb7178e2eff9f99a4d51a7f40be45dbbfb579d64bb2dd91cc7182a26d4691af74",
      "s": "0x770cee5de18222f4b6e92db91d849f9ba2e566fae67be99fc44bb29162361472",
      "v": 28,
      "creates": null,
      "raw": "0xf86c2f850d037fdad48252089432be343b94f860124dc4fee278fdcbd38c102d88884563d9c95212cc00801ca0b7178e2eff9f99a4d51a7f40be45dbbfb579d64bb2dd91cc7182a26d4691af74a0770cee5de18222f4b6e92db91d849f9ba2e566fae67be99fc44bb29162361472",
      "networkId": 0,
      "chainId": 0
    }
  ]
}