{
  "hash": "0xf5173a85c7b565ef8c6a07c32aaff919fad47e6e7836a5135161c790f3dbabe7",
  "parentHash": "0x01964af53f9fb7ab25cb1a64883a786854cd2508cb32bf354ed713bc8cec3403",
  "number": 71403,
  "timestamp": 1439335360,
  "nonce": "0x6b92972459a61f31",
  "difficulty": 2180430271713,
  "gasLimit": {
    "_hex": "0x2fefd8"
  },
  "gasUsed": {
    "_hex": "0x15d34"
  },
  "miner": "0xe6A7a1d47ff21B6321162AEA7C6CB457D5476Bca",
  "extraData": "0x476574682f76312e302e312d38326566323666362f6c696e75782f676f312e34",
  "transactions": [
    {
      "hash": "0x41c30a155b87fcd75b138f63ce13343bf40a160c20d2c0f88e50875769a05b4b",
      "blockHash": "0xf5173a85c7b565ef8c6a07c32aaff919fad47e6e7836a5135161c790f3dbabe7",
      "blockNumber": 71403,
      "transactionIndex": 0,
      "confirmations": null,
      "from": "0x17580B766f7453525ca4C6A88b01b50570EA088C",
      "gasPrice": {
        "_hex": "0xd4c494bce"
      },
      "gasLimit": {
        "_hex": "0x61a80"
      },
      "to": "0x5Fe5B7546D1628f7348B023A0393de1FC825A4fD",
      "value": {
        "_hex": "0xde0b6b3a7640000"
      },
      "nonce": 174,
      "data": "0xb595b8b50000000000000000000000000000000000000000000000000000000000000001",
      "r": "0xba28354c0058ed491ac97c3899390e1ffdb1958f6d636941471c06c85291fa2a",
      "s": "0x10dfc7ae03770b480b2e08c32e73f7a23d399677b8d9d8a6fab1160e663ae9fc",
      "v": 27,
      "creates": null,
      "raw": "0xf89281ae850d4c494bce83061a80945fe5b7546d1628f7348b023a0393de1fc825a4fd880de0b6b3a7640000a4b595b8b500000000000000000000000000000000000000000000000000000000000000011ba0ba28354c0058ed491ac97c3899390e1ffdb1958f6d636941471c06c85291fa2aa010dfc7ae03770b480b2e08c32e73f7a23d399677b8d9d8a6fab1160e663ae9fc",
      "networkId": 0,
      "chainId": 0
    },
    {
      "hash": "0xdcc4f652016d1c34b91401a488f5af9a11ad99aae0628a42fb8243aa62ccbeee",
      "blockHash": "0xf5173a85c7b565ef8c6a07c32aaff919fad47e6e7836a5135161c790f3dbabe7",
      "blockNumber": 71403,
      "transactionIndex": 1,
      "confirmations": null,
      "from": "0x17580B766f7453525ca4C6A88b01b50570EA088C",
      "gasPrice": {
        "_hex": "0xd4c494bce"
      },
      "gasLimit": {
        "_hex": "0x61a80"
      },
      "to": "0x5Fe5B7546D1628f7348B023A0393de1FC825A4fD",
      "value": {
        "_hex": "0x4563918244f40000"
      },
      "nonce": 175,
      "data": "0xb595b8b50000000000000000000000000000000000000000000000000000000000000000",
      "r": "0x1ef6ab17aa1d660fcb9feec6d5e8eaacc7c9c51d67d5efab4921fbf1af42c5b8",
      "s": "0x33090f949eac5c3db428bec173f8a19564cb0606a846dcda8eda150aeac6b0db",
      "v": 28,
      "creates": null,
      "raw": "0xf89281af850d4c494bce83061a80945fe5b7546d1628f7348b023a0393de1fc825a4fd884563918244f40000a4b595b8b500000000000000000000000000000000000000000000000000000000000000001ca01ef6ab17aa1d660fcb9feec6d5e8eaacc7c9c51d67d5efab4921fbf1af42c5b8a033090f949eac5c3db428bec173f8a19564cb0606a846dcda8eda150aeac6b0db",
      "networkId": 0,
      "chainId": 0
    }
  ]
}