{
  "hash": "0x6d5a82be50bd7d97d9d37d6e604d3f0f45a977e9d89ff0f94a3141a1627eb629",
  "parentHash": "0x2bf520aef5729c4f7031d15d9eed12d0b877d38c776483a1e97356003b0b0cda",
  "number": 47508,
  "timestamp": 1438941735,
  "nonce": "0x9bd03eb8a93843b2",
  "difficulty": 1450235812176,
  "gasLimit": {
    "_hex": "0xc8af"
  },
  "gasUsed": {
    "_hex": "0x5208"
  },
  "miner": "0xF2d2AfF1320476cb8C6b607199D23175cc595693",
  "extraData": "0x476574682f76312e302e312f77696e646f77732f676f312e342e32",
  "transactions": [
    {
      "hash": "0x49379b0e156f1083c24888f1b18cd2638f41b3e14df811e793a290d28a7c879b",
      "blockHash": "0x6d5a82be50bd7d97d9d37d6e604d3f0f45a977e9d89ff0f94a3141a1627eb629",
      "blockNumber": 47508,
      "transactionIndex": 0,
      "confirmations": null,
      "from": "0xe6A7a1d47ff21B6321162AEA7C6CB457D5476Bca",
      "gasPrice": {
        "_hex": "0x1a99bf2110"
      },
      "gasLimit": {
        "_hex": "0x55f0"
      },
      "to": "0xeEa71DC26083232a9e7a61b6A7836Dc2428376Cf",
      "value": {
        "_hex": "0x271c601e697fdd310"
      },
      "nonce": 162,
      "data": "0x",
      "r": "0x879e04d93e13625e97ba3c29148ff30680f9b4404ce4d9ea48218976be9f31f1",
      "s": "0x7e4fdbc3f16dcefaca947d51f7a7fc346f6cc84d82ba84f63b92944d069e6d92",
      "v": 27,
      "creates": null,
      "raw": "0xf86e81a2851a99bf21108255f094eea71dc26083232a9e7a61b6a7836dc2428376cf890271c601e697fdd310801ba0879e04d93e13625e97ba3c29148ff30680f9b4404ce4d9ea48218976be9f31f1a07e4fdbc3f16dcefaca947d51f7a7fc346f6cc84d82ba84f63b92944d069e6d92",
      "networkId": 0,
      "chainId": 0
    }
  ]
}