{
  "hash": "0xf58ca5c7a08a799e15d70782fffa019ecf72a7ef8c73b0929600348b53f19af0",
  "parentHash": "0x154137ab8528be120fbcc66dc8b6bbe4b31327461727e0ad9d699aad665e75ce",
  "number": 49443,
  "timestamp": 1438973496,
  "nonce": "0x7067981d8df51707",
  "difficulty": 1483560175102,
  "gasLimit": {
    "_hex": "0x314da"
  },
  "gasUsed": {
    "_hex": "0x546c"
  },
  "miner": "0xF2d2AfF1320476cb8C6b607199D23175cc595693",
  "extraData": "0x476574682f76312e302e312f77696e646f77732f676f312e342e32",
  "transactions": [
    {
      "hash": "0x65a56384d45f5f0f2bfd007aa1504ce8e76d5edccf3ac1f23ae763fb64f7a9cf",
      "blockHash": "0xf58ca5c7a08a799e15d70782fffa019ecf72a7ef8c73b0929600348b53f19af0",
      "blockNumber": 49443,
      "transactionIndex": 0,
      "confirmations": null,
      "from": "0x6d3B7836A2B9D899721A4d237b522385dCE8DFCd",
      "gasPrice": {
        "_hex": "0x110c8f7d8de"
      },
      "gasLimit": {
        "_hex": "0xc350"
      },
      "to": "0x2910543Af39abA0Cd09dBb2D50200b3E800A63D2",
      "value": {
        "_hex": "0xde0b6b3a7640000"
      },
      "nonce": 0,
      "data": "0x454e47503650364147",
      "r": "0xcb7df812baa9e6000f3b813ddcad176a987d6c84dfcc9ef176c6532a56622d1a",
      "s": "0x5cd3442e4b82ff32783122100850f5e3c29b5cbdf5360c8f19ad9532e298aff1",
      "v": 27,
      "creates": null,
      "raw": "0xf87680860110c8f7d8de82c350942910543af39aba0cd09dbb2d50200b3e800a63d2880de0b6b3a764000089454e475036503641471ba0cb7df812baa9e6000f3b813ddcad176a987d6c84dfcc9ef176c6532a56622d1aa05cd3442e4b82ff32783122100850f5e3c29b5cbdf5360c8f19ad9532e298aff1",
      "networkId": 0,
      "chainId": 0
    }
  ]
}