{
  "hash": "0xe2ee9b056a7d7029d99a798c6351d98d68609727ca48157606935877a3ccdc2c",
  "parentHash": "0x25827ee26ca177d0a4310f62e62a8c4a0d466ccfba19668a391b9c513e32774f",
  "number": 76816,
  "timestamp": 1439426770,
  "nonce": "0x897c02d274fd3f21",
  "difficulty": 2233967818943,
  "gasLimit": {
    "_hex": "0x2fefd8"
  },
  "gasUsed": {
    "_hex": "0x5208"
  },
  "miner": "0xC603Ab5ef41fC61AA8b76bEddb09e3Cfcbb174BD",
  "extraData": "0x476574682f76312e302e312f77696e646f77732f676f312e342e32",
  "transactions": [
    {
      "hash": "0x4c9b8f8b6f90c28ab764a449d7b5ed122ef0ad12708576929ef6b1bcd5e558af",
      "blockHash": "0xe2ee9b056a7d7029d99a798c6351d98d68609727ca48157606935877a3ccdc2c",
      "blockNumber": 76816,
      "transactionIndex": 0,
      "confirmations": null,
      "from": "0x120A270bbC009644e35F0bB6ab13f95b8199c4ad",
      "gasPrice": {
        "_hex": "0xd3b81c516"
      },
      "gasLimit": {
        "_hex": "0x15f90"
      },
      "to": "0x6baeC65168a4fBB94b9557C65Dfc7cef5c6fBb8a",
      "value": {
        "_hex": "0x1ecd2eed0d72645000"
      },
      "nonce": 316,
      "data": "0x",
      "r": "0x332bcf8526665be87a02cb102e345124b13e663ca39999b12fbfbf0ffbc6ac66",
      "s": "0x164b57cc0e2d88613811d45ac30c6d8c1e831f2301327d942b072a14ae6942cd",
      "v": 28,
      "creates": null,
      "raw": "0xf87082013c850d3b81c51683015f90946baec65168a4fbb94b9557c65dfc7cef5c6fbb8a891ecd2eed0d72645000801ca0332bcf8526665be87a02cb102e345124b13e663ca39999b12fbfbf0ffbc6ac66a0164b57cc0e2d88613811d45ac30c6d8c1e831f2301327d942b072a14ae6942cd",
      "networkId": 0,
      "chainId": 0
    }
  ]
}