{
  "hash": "0x37f9e68f3a32679f2e276899a111ae0878cfc75624b738f7be196387f6987b67",
  "parentHash": "0x313b771d35dcc57ba1e756a67f4fcc42fd30d3999dc14ed432653ee5bcce8bf2",
  "number": 121112,
  "timestamp": 1440171645,
  "nonce": "0x1b1163a556bc90e3",
  "difficulty": 4393558447484,
  "gasLimit": {
    "_hex": "0x2fefd8"
  },
  "gasUsed": {
    "_hex": "0x5208"
  },
  "miner": "0xe6A7a1d47ff21B6321162AEA7C6CB457D5476Bca",
  "extraData": "0xd783010002844765746887676f312e342e32856c696e7578",
  "transactions": [
    {
      "hash": "0xb716666a4a722539b413273993b3c183e9c00cf0fa6edc32678c293ef4622d96",
      "blockHash": "0x37f9e68f3a32679f2e276899a111ae0878cfc75624b738f7be196387f6987b67",
      "blockNumber": 121112,
      "transactionIndex": 0,
      "confirmations": null,
      "from": "0x25D855A7A140aC6F330E2202F96c6f62EB126CC1",
      "gasPrice": {
        "_hex": "0xba43b7400"
      },
      "gasLimit": {
        "_hex": "0x5208"
      },
      "to": "0x32Be343B94f860124dC4fEe278FDCBD38C102D88",
      "value": {
        "_hex": "0xddcfbbb7a606000"
      },
      "nonce": 0,
      "data": "0x",
      "r": "0x7bbee3a1894dd2d46ce139b2d486af40b7f723035ae1e5875bb786e56723aab1",
      "s": "0x21be792071b7422c73e3145c369de7e32547ddccd25831feeffcf62df0e6942c",
      "v": 27,
      "creates": null,
      "raw": "0xf86c80850ba43b74008252089432be343b94f860124dc4fee278fdcbd38c102d88880ddcfbbb7a606000801ba07bbee3a1894dd2d46ce139b2d486af40b7f723035ae1e5875bb786e56723aab1a021be792071b7422c73e3145c369de7e32547ddccd25831feeffcf62df0e6942c",
      "networkId": 0,
      "chainId": 0
    }
  ]
}