{
  "hash": "0xc8fe33111a8454efb32db2bba2adf35c08ef0c4c092cfa6a78bcff7b60b101a4",
  "parentHash": "0xf03292dc050da9f6f343a374d3fd87b6594ab9cc03ca2cc575c13567d517b064",
  "number": 87908,
  "timestamp": 1439599395,
  "nonce": "0xf7b32039bcf598c3",
  "difficulty": 3186433819400,
  "gasLimit": {
    "_hex": "0x2fefd8"
  },
  "gasUsed": {
    "_hex": "0x5208"
  },
  "miner": "0xe6A7a1d47ff21B6321162AEA7C6CB457D5476Bca",
  "extraData": "0x476574682f76312e302e312d38326566323666362f6c696e75782f676f312e34",
  "transactions": [
    {
      "hash": "0x73a84722413ce4668e693d7ceee090a97467a8d70053a31166a9505e4594700a",
      "blockHash": "0xc8fe33111a8454efb32db2bba2adf35c08ef0c4c092cfa6a78bcff7b60b101a4",
      "blockNumber": 87908,
      "transactionIndex": 0,
      "confirmations": null,
      "from": "0x4c74B6F32c9680aCB5Fe0e72B7Aa95C612540A04",
      "gasPrice": {
        "_hex": "0xd6c3e24b4"
      },
      "gasLimit": {
        "_hex": "0x5208"
      },
      "to": "0x32Be343B94f860124dC4fEe278FDCBD38C102D88",
      "value": {
        "_hex": "0x15aed8a749985a000"
      },
      "nonce": 29,
      "data": "0x",
      "r": "0xcd16544c27e6b50727a0bdc37b7eb7d9698c9a44728116dd12020acebb4ee606",
      "s": "0x59108ccd234468ec3cea1d645505a1900b6f9f6fe647305db613a39e003d98a4",
      "v": 27,
      "creates": null,
      "raw": "0xf86d1d850d6c3e24b48252089432be343b94f860124dc4fee278fdcbd38c102d8889015aed8a749985a000801ba0cd16544c27e6b50727a0bdc37b7eb7d9698c9a44728116dd12020acebb4ee606a059108ccd234468ec3cea1d645505a1900b6f9f6fe647305db613a39e003d98a4",
      "networkId": 0,
      "chainId": 0
    }
  ]
}