{
  "hash": "0x0dd9baa2f34856941efcced84e6368e8f0fe29d3f92e26fbf3d84b4031f16067",
  "parentHash": "0x026be44edcc053ea59e753f95de32c61a2302eab98695fad54bd406502dee64a",
  "number": 110262,
  "timestamp": 1439970703,
  "nonce": "0x3012ba4cd81d8dd9",
  "difficulty": 4382093813034,
  "gasLimit": {
    "_hex": "0x2fefd8"
  },
  "gasUsed": {
    "_hex": "0x5208"
  },
  "miner": "0xe6A7a1d47ff21B6321162AEA7C6CB457D5476Bca",
  "extraData": "0x476574682f76312e302e312d38326566323666362f6c696e75782f676f312e34",
  "transactions": [
    {
      "hash": "0x7c0811b1c201ad6ec5be8fe536929072e9b54cbfce460c54d41ff24dba1a52c8",
      "blockHash": "0x0dd9baa2f34856941efcced84e6368e8f0fe29d3f92e26fbf3d84b4031f16067",
      "blockNumber": 110262,
      "transactionIndex": 0,
      "confirmations": null,
      "from": "0xb1abce2918E21ddb93AA452731a12672A3d9F75a",
      "gasPrice": {
        "_hex": "0xd717c9a2b"
      },
      "gasLimit": {
        "_hex": "0x5208"
      },
      "to": "0x32Be343B94f860124dC4fEe278FDCBD38C102D88",
      "value": {
        "_hex": "0x8ac2d43f0e11d000"
      },
      "nonce": 160,
      "data": "0x",
      "r": "0xc16a78930105f6c73031c77bde65d9b57c6cb70ab915f344a8d19f1de09ed288",
      "s": "0x40d2f867a15ae943754a2e77a65bccfa1d7f9fb6a7b26a179c1c9aee526b9a08",
      "v": 28,
      "creates": null,
      "raw": "0xf86d81a0850d717c9a2b8252089432be343b94f860124dc4fee278fdcbd38c102d88888ac2d43f0e11d000801ca0c16a78930105f6c73031c77bde65d9b57c6cb70ab915f344a8d19f1de09ed288a040d2f867a15ae943754a2e77a65bccfa1d7f9fb6a7b26a179c1c9aee526b9a08",
      "networkId": 0,
      "chainId": 0
    }
  ]
}