{
  "hash": "0x4d1745bda8dace6e4c00a07f5f7ea8f16c3b60f2f5b8c2401d78dc9f19622d36",
  "parentHash": "0xe4ce2b868d6ec1f510771304a59ef967853f332f0f9b64d0b27be46f4e52f869",
  "number": 89395,
  "timestamp": 1439622809,
  "nonce": "0xe6f72a28b06701fb",
  "difficulty": 3307930480884,
  "gasLimit": {
    "_hex": "0x2fefd8"
  },
  "gasUsed": {
    "_hex": "0xa410"
  },
  "miner": "0xf01CD4c66F3633880Cbd076A2105f9c1400dD7c7",
  "extraData": "0x",
  "transactions": [
    {
      "hash": "0x15a7b10f0b843055ccb09ed36abba4a4fe7a1eb502b5973ab9e896f7f5fd7f96",
      "blockHash": "0x4d1745bda8dace6e4c00a07f5f7ea8f16c3b60f2f5b8c2401d78dc9f19622d36",
      "blockNumber": 89395,
      "transactionIndex": 0,
      "confirmations": null,
      "from": "0x2910543Af39abA0Cd09dBb2D50200b3E800A63D2",
      "gasPrice": {
        "_hex": "0xdc82ebb48"
      },
      "gasLimit": {
        "_hex": "0x5208"
      },
      "to": "0x02020D22dCF88f5eDd66B382D7da019F161fB7e3",
      "value": {
        "_hex": "0x1005d22ad7918d6000"
      },
      "nonce": 752,
      "data": "0x",
      "r": "0x0c9ebc660200cc180af060601a862047f0096a90ae0cd4f6a55b835dbb707e15",
      "s": "0x6f10d180d2aefdb1bbc5ac2f9f8fe382abceb4f317eb6002f723210837e48304",
      "v": 28,
      "creates": null,
      "raw": "0xf86f8202f0850dc82ebb488252089402020d22dcf88f5edd66b382d7da019f161fb7e3891005d22ad7918d6000801ca00c9ebc660200cc180af060601a862047f0096a90ae0cd4f6a55b835dbb707e15a06f10d180d2aefdb1bbc5ac2f9f8fe382abceb4f317eb6002f723210837e48304",
      "networkId": 0,
      "chainId": 0
    },
    {
      "hash": "0x9ad7b74811075d5cf5b10a5d05681a3a8803437fe1e3192c70e97a471464079d",
      "blockHash": "0x4d1745bda8dace6e4c00a07f5f7ea8f16c3b60f2f5b8c2401d78dc9f19622d36",
      "blockNumber": 89395,
      "transactionIndex": 1,
      "confirmations": null,
      "from": "0x7366ADF97960d404c38D975e1A8786bEb14B6507",
      "gasPrice": {
        "_hex": "0xd6a2e3140"
      },
      "gasLimit": {
        "_hex": "0x15f90"
      },
      "to": "0xb2d1cCd26cdfC4474Ac02423AeFc62dA2A3Bc839",
      "value": {
        "_hex": "0x116f1a6ca5cb1e000"
      },
      "nonce": 3,
      "data": "0x",
      "r": "0x68d830df744fa68e9e860bc33b217b79086bf7dfc4662f24fecde299d340ac59",
      "s": "0x1c0d2d096b6a65911b53103013bd248634568f7449f8e6c9e7b97f249839eb56",
      "v": 28,
      "creates": null,
      "raw": "0xf86e03850d6a2e314083015f9094b2d1ccd26cdfc4474ac02423aefc62da2a3bc839890116f1a6ca5cb1e000801ca068d830df744fa68e9e860bc33b217b79086bf7dfc4662f24fecde299d340ac59a01c0d2d096b6a65911b53103013bd248634568f7449f8e6c9e7b97f249839eb56",
      "networkId": 0,
      "chainId": 0
    }
  ]
}