{
  "hash": "0x412b518573df2ce84e216f6025241f32a6db943450cd14f0cccaa975da0d09ae",
  "parentHash": "0x32ca6a834a4efec856c82a66406328e2c55139f9d8144e23d6a28904c08d0f5f",
  "number": 82824,
  "timestamp": 1439525771,
  "nonce": "0x2be8ad564b0d1cee",
  "difficulty": 2380989639090,
  "gasLimit": {
    "_hex": "0x2fefd8"
  },
  "gasUsed": {
    "_hex": "0x5208"
  },
  "miner": "0xe6A7a1d47ff21B6321162AEA7C6CB457D5476Bca",
  "extraData": "0x476574682f76312e302e312d38326566323666362f6c696e75782f676f312e34",
  "transactions": [
    {
      "hash": "0x85338c12d91678bb846c5c43d8d2ea75528cb5774a43a6567907dd92720da4f5",
      "blockHash": "0x412b518573df2ce84e216f6025241f32a6db943450cd14f0cccaa975da0d09ae",
      "blockNumber": 82824,
      "transactionIndex": 0,
      "confirmations": null,
      "from": "0x1C57c98eE938781E1f73E0989586F0DF50189527",
      "gasPrice": {
        "_hex": "0xdbe8491c7"
      },
      "gasLimit": {
        "_hex": "0x5208"
      },
      "to": "0x32Be343B94f860124dC4fEe278FDCBD38C102D88",
      "value": {
        "_hex": "0x1b1ae06f6e6d6b0000"
      },
      "nonce": 0,
      "data": "0x",
      "r": "0x3c7a3530ae112d28828427513617bc1e5b178e7bb4cd2c332506cb82b5d361c0",
      "s": "0x7c000d2d6181555d5cb1cbc9314589e47853dbf69a049ba1084fd6a39e6a0c40",
      "v": 27,
      "creates": null,
      "raw": "0xf86d80850dbe8491c78252089432be343b94f860124dc4fee278fdcbd38c102d88891b1ae06f6e6d6b0000801ba03c7a3530ae112d28828427513617bc1e5b178e7bb4cd2c332506cb82b5d361c0a07c000d2d6181555d5cb1cbc9314589e47853dbf69a049ba1084fd6a39e6a0c40",
      "networkId": 0,
      "chainId": 0
    }
  ]
}