{
  "hash": "0xe30df4b7bae82afd08c0ad8403c98f3a7338211a29521606c15c0cf56f8c234e",
  "parentHash": "0xd09374b5e74ec4eda512170fb104b094babb02971fd1bf139e09289d25fec612",
  "number": 92215,
  "timestamp": 1439668697,
  "nonce": "0x17056f18b298726b",
  "difficulty": 3475683960088,
  "gasLimit": {
    "_hex": "0x2fefd8"
  },
  "gasUsed": {
    "_hex": "0x7a120"
  },
  "miner": "0xe6A7a1d47ff21B6321162AEA7C6CB457D5476Bca",
  "extraData": "0x476574682f76312e302e312d38326566323666362f6c696e75782f676f312e34",
  "transactions": [
    {
      "hash": "0x1eaa1cb980e1b3b52cc32e6401ba632c200ca33f803bad45b4e1729477a5e829",
      "blockHash": "0xe30df4b7bae82afd08c0ad8403c98f3a7338211a29521606c15c0cf56f8c234e",
      "blockNumber": 92215,
      "transactionIndex": 0,
      "confirmations": null,
      "from": "0xF0a3af9e925b07D1FAA4ddF8beBfAA86B7B95e33",
      "gasPrice": {
        "_hex": "0xd8364fc25"
      },
      "gasLimit": {
        "_hex": "0x7a120"
      },
      "to": "0xBAA54d6E90c3F4d7Ebec11bD180134C7eD8eBb52",
      "value": {
        "_hex": "0x16345785d8a0000"
      },
      "nonce": 3,
      "data": "0x",
      "r": "0xfa2b6fe515f1f01d1bc9137bcdb232c36e8765f8f493d3e8ad566bdbcb463757",
      "s": "0x05e0f0405967b3eba687f392d07133ea3c1285587eda39e7b6b7dfcfa39fc565",
      "v": 27,
      "creates": null,
      "raw": "0xf86d03850d8364fc258307a12094baa54d6e90c3f4d7ebec11bd180134c7ed8ebb5288016345785d8a0000801ba0fa2b6fe515f1f01d1bc9137bcdb232c36e8765f8f493d3e8ad566bdbcb463757a005e0f0405967b3eba687f392d07133ea3c1285587eda39e7b6b7dfcfa39fc565",
      "networkId": 0,
      "chainId": 0
    }
  ]
}