{
  "hash": "0x76ccbf34f506753a80dc6720bb33a12ca950d7badac0af48793f5308421cd679",
  "parentHash": "0x976acf2d7ff265bd250b7adcdde48f8d324d8493c7f4749009be95bd8aa1894e",
  "number": 48218,
  "timestamp": 1438953667,
  "nonce": "0xb0f02a21453c202c",
  "difficulty": 1455788653972,
  "gasLimit": {
    "_hex": "0x13e44"
  },
  "gasUsed": {
    "_hex": "0x5208"
  },
  "miner": "0xF2d2AfF1320476cb8C6b607199D23175cc595693",
  "extraData": "0x476574682f76312e302e312f77696e646f77732f676f312e342e32",
  "transactions": [
    {
      "hash": "0xbfa9624962b2d73922b02637f58d5955ca36422fbdcf20521dd21cd2502ff6d2",
      "blockHash": "0x76ccbf34f506753a80dc6720bb33a12ca950d7badac0af48793f5308421cd679",
      "blockNumber": 48218,
      "transactionIndex": 0,
      "confirmations": null,
      "from": "0x77d43fa7b481DBf3dB530cfBf5fDCed0e6571831",
      "gasPrice": {
        "_hex": "0xce6c3f2a9"
      },
      "gasLimit": {
        "_hex": "0x61a8"
      },
      "to": "0xE11F174499fF162DE6D0A49D6E9dF8Ef0645982d",
      "value": {
        "_hex": "0x3635c9adc5dea00000"
      },
      "nonce": 1,
      "data": "0x",
      "r": "0x7be4d8d4260a9dcfcfabcf3c591b7b16c199ec1e93414b91fe36f28e07f20323",
      "s": "0x3844a0964c61d6ce64720a48fff13ac5e88615585a9c93e16353f047a7b3edf8",
      "v": 28,
      "creates": null,
      "raw": "0xf86d01850ce6c3f2a98261a894e11f174499ff162de6d0a49d6e9df8ef0645982d893635c9adc5dea00000801ca07be4d8d4260a9dcfcfabcf3c591b7b16c199ec1e93414b91fe36f28e07f20323a03844a0964c61d6ce64720a48fff13ac5e88615585a9c93e16353f047a7b3edf8",
      "networkId": 0,
      "chainId": 0
    }
  ]
}