{
  "hash": "0x1a6d74fee077a0e3338d2ad790b44e405fde9e9b2fe9e741bc35d0dbbc8a229d",
  "parentHash": "0xb1083ccd4e74dcaf7357608ff966ed6fb9f1877baa5b26c1e14f3005194f9d61",
  "number": 77351,
  "timestamp": 1439435719,
  "nonce": "0xd021785def0bd85d",
  "difficulty": 2241473556826,
  "gasLimit": {
    "_hex": "0x2fefd8"
  },
  "gasUsed": {
    "_hex": "0x5208"
  },
  "miner": "0x29D19206747E4Db867186f5899D9F7188DF153F6",
  "extraData": "0x",
  "transactions": [
    {
      "hash": "0x33df41be3834bbc2144051a7ce632380793636992a425d8e6c85e5d015b8d1a1",
      "blockHash": "0x1a6d74fee077a0e3338d2ad790b44e405fde9e9b2fe9e741bc35d0dbbc8a229d",
      "blockNumber": 77351,
      "transactionIndex": 0,
      "confirmations": null,
      "from": "0xC603Ab5ef41fC61AA8b76bEddb09e3Cfcbb174BD",
      "gasPrice": {
        "_hex": "0xcc5652ca6"
      },
      "gasLimit": {
        "_hex": "0x15f90"
      },
      "to": "0x8F79f76381Aad7B98C19aF55eE75fdfEeb012211",
      "value": {
        "_hex": "0x63bf212b431ec0000"
      },
      "nonce": 3,
      "data": "0x",
      "r": "0x701bd538ceb7318d3d5bca16d9c19f53a65d808eef9b908aeb498dbdd860f381",
      "s": "0x015b804202413ef2a7ba18d8ad3db07ca68d70ec4206bcf474342bde72bbf378",
      "v": 28,
      "creates": null,
      "raw": "0xf86e03850cc5652ca683015f90948f79f76381aad7b98c19af55ee75fdfeeb01221189063bf212b431ec0000801ca0701bd538ceb7318d3d5bca16d9c19f53a65d808eef9b908aeb498dbdd860f381a0015b804202413ef2a7ba18d8ad3db07ca68d70ec4206bcf474342bde72bbf378",
      "networkId": 0,
      "chainId": 0
    }
  ]
}