{
  "hash": "0x906928c29bd0cca8fa23dd6030d8071551500308a65dcbcaeab97b736a839564",
  "parentHash": "0x374c27b6eebc71a07b97b0f56ef50f2f8f165c36c155d5f039307470c044e3d4",
  "number": 84444,
  "timestamp": 1439549749,
  "nonce": "0x8f29147beb392056",
  "difficulty": 2563931577321,
  "gasLimit": {
    "_hex": "0x2fefd8"
  },
  "gasUsed": {
    "_hex": "0x546c"
  },
  "miner": "0xe6A7a1d47ff21B6321162AEA7C6CB457D5476Bca",
  "extraData": "0x476574682f76312e302e312d38326566323666362f6c696e75782f676f312e34",
  "transactions": [
    {
      "hash": "0xc6afcb218ac06cf10888cb39f8d8ef2241453372f24f51edeb37fc287a23c7eb",
      "blockHash": "0x906928c29bd0cca8fa23dd6030d8071551500308a65dcbcaeab97b736a839564",
      "blockNumber": 84444,
      "transactionIndex": 0,
      "confirmations": null,
      "from": "0x5E7b8c54Dc57B0402062719DEE7eF5E37Ea35D62",
      "gasPrice": {
        "_hex": "0x110c8f7d8de"
      },
      "gasLimit": {
        "_hex": "0xc350"
      },
      "to": "0x2910543Af39abA0Cd09dBb2D50200b3E800A63D2",
      "value": {
        "_hex": "0x4563918244f40000"
      },
      "nonce": 0,
      "data": "0x454e51305731514747",
      "r": "0xe4cef41e6d2eec350c12ecd9a19c386568a5eb131ea24b0503a46522fe4d7ca2",
      "s": "0x6d351c0004a1fdd179a86f76fdd9f898e93ebcdde4f5d2316d1a15dcdc565d4f",
      "v": 28,
      "creates": null,
      "raw": "0xf87680860110c8f7d8de82c350942910543af39aba0cd09dbb2d50200b3e800a63d2884563918244f4000089454e513057315147471ca0e4cef41e6d2eec350c12ecd9a19c386568a5eb131ea24b0503a46522fe4d7ca2a06d351c0004a1fdd179a86f76fdd9f898e93ebcdde4f5d2316d1a15dcdc565d4f",
      "networkId": 0,
      "chainId": 0
    }
  ]
}