{
  "hash": "0x7898d0eaede4eda17032d2ee9b13ed9ed66c0fdd111a6972c2c2075abe4ceaa5",
  "parentHash": "0x2259e64abec9d299568388573e0e8813d2ea43a4e2023fe441dbcd01713b35b3",
  "number": 100479,
  "timestamp": 1439807095,
  "nonce": "0x421602a3d88197dd",
  "difficulty": 3828459085702,
  "gasLimit": {
    "_hex": "0x2fefd8"
  },
  "gasUsed": {
    "_hex": "0x546c"
  },
  "miner": "0xe6A7a1d47ff21B6321162AEA7C6CB457D5476Bca",
  "extraData": "0x476574682f76312e302e312d38326566323666362f6c696e75782f676f312e34",
  "transactions": [
    {
      "hash": "0x7b6c8570f0df56d77962e138ef435d5a0c8db01faa359dcac89e66ae9a938c3a",
      "blockHash": "0x7898d0eaede4eda17032d2ee9b13ed9ed66c0fdd111a6972c2c2075abe4ceaa5",
      "blockNumber": 100479,
      "transactionIndex": 0,
      "confirmations": null,
      "from": "0xfFd5170FD1A8118D558E7511E364B24906C4F6b3",
      "gasPrice": {
        "_hex": "0x110c8f7d8de"
      },
      "gasLimit": {
        "_hex": "0xc350"
      },
      "to": "0x2910543Af39abA0Cd09dBb2D50200b3E800A63D2",
      "value": {
        "_hex": "0x340aad21b3b700000"
      },
      "nonce": 0,
      "data": "0x454e5558554a445747",
      "r": "0x9507db7ca1d6ab38a7b13d6d426969b54b6519c73f5e4c1221fa9e497cb4a959",
      "s": "0xb2e94387efc99fe537fb12773407a38618060a7c8c5712733281d1ececf83f38",
      "v": 27,
      "creates": null,
      "raw": "0xf87780860110c8f7d8de82c350942910543af39aba0cd09dbb2d50200b3e800a63d2890340aad21b3b70000089454e5558554a4457471ba09507db7ca1d6ab38a7b13d6d426969b54b6519c73f5e4c1221fa9e497cb4a959a0b2e94387efc99fe537fb12773407a38618060a7c8c5712733281d1ececf83f38",
      "networkId": 0,
      "chainId": 0
    }
  ]
}