{
  "hash": "0xe9849043e03e673d373e19099c2e49bb7cb05b11bb723cc627e9ebec60808038",
  "parentHash": "0x7cbd51699409f40a65df2f47dcbd900bd900a98a35a06d5c6e0b51226d165b39",
  "number": 71053,
  "timestamp": 1439329755,
  "nonce": "0xcf45ccb20f4394f4",
  "difficulty": 2150912298126,
  "gasLimit": {
    "_hex": "0x2fefd8"
  },
  "gasUsed": {
    "_hex": "0x142c1"
  },
  "miner": "0x38E8Ac573F0718497B99B698bB6A6D4A25404300",
  "extraData": "0x476574682f76312e302e312f77696e646f77732f676f312e342e32",
  "transactions": [
    {
      "hash": "0x594067858ed870f338251806cab874b23487fbb37a3e6ad0229a4c0d516a36fd",
      "blockHash": "0xe9849043e03e673d373e19099c2e49bb7cb05b11bb723cc627e9ebec60808038",
      "blockNumber": 71053,
      "transactionIndex": 0,
      "confirmations": null,
      "from": "0x17580B766f7453525ca4C6A88b01b50570EA088C",
      "gasPrice": {
        "_hex": "0xdcbca4a9e"
      },
      "gasLimit": {
        "_hex": "0x61a80"
      },
      "to": "0x5Fe5B7546D1628f7348B023A0393de1FC825A4fD",
      "value": {
        "_hex": "0x8ac7230489e80000"
      },
      "nonce": 91,
      "data": "0xb595b8b50000000000000000000000000000000000000000000000000000000000000001",
      "r": "0x3a8a542fe3a9afd249eef8a7e48be0e274c6448a8a47a140b0e2e5d4fd90963e",
      "s": "0x0afdea1fe8611952712093e8e54d09b78c807ad61754730eb8ddc043589668ee",
      "v": 27,
      "creates": null,
      "raw": "0xf8915b850dcbca4a9e83061a80945fe5b7546d1628f7348b023a0393de1fc825a4fd888ac7230489e80000a4b595b8b500000000000000000000000000000000000000000000000000000000000000011ba03a8a542fe3a9afd249eef8a7e48be0e274c6448a8a47a140b0e2e5d4fd90963ea00afdea1fe8611952712093e8e54d09b78c807ad61754730eb8ddc043589668ee",
      "networkId": 0,
      "chainId": 0
    },
    {
      "hash": "0x80d84d59dddaa327183bd2bbd4a82aad9f8e01abf0bb29acc70acf64c2d55919",
      "blockHash": "0xe9849043e03e673d373e19099c2e49bb7cb05b11bb723cc627e9ebec60808038",
      "blockNumber": 71053,
      "transactionIndex": 1,
      "confirmations": null,
      "from": "0x17580B766f7453525ca4C6A88b01b50570EA088C",
      "gasPrice": {
        "_hex": "0xdcbca4a9e"
      },
      "gasLimit": {
        "_hex": "0x61a80"
      },
      "to": "0x5Fe5B7546D1628f7348B023A0393de1FC825A4fD",
      "value": {
        "_hex": "0x8ac7230489e80000"
      },
      "nonce": 92,
      "data": "0xb595b8b50000000000000000000000000000000000000000000000000000000000000001",
      "r": "0x1370e5f1c5b571f34ee2d38fafde375691b3ba8e8d069afbdfdaf641292cf5b3",
      "s": "0x527172074404ddafcc4a38c343c5c09a88511ca60caca5a86e0c1b62967bb2ae",
      "v": 27,
      "creates": null,
      "raw": "0xf8915c850dcbca4a9e83061a80945fe5b7546d1628f7348b023a0393de1fc825a4fd888ac7230489e80000a4b595b8b500000000000000000000000000000000000000000000000000000000000000011ba01370e5f1c5b571f34ee2d38fafde375691b3ba8e8d069afbdfdaf641292cf5b3a0527172074404ddafcc4a38c343c5c09a88511ca60caca5a86e0c1b62967bb2ae",
      "networkId": 0,
      "chainId": 0
    }
  ]
}