{
  "hash": "0x947405fc6de904bbe0a621f695caf34896442d9c94b836143f4bf1d6ecf23b75",
  "parentHash": "0x83aa8231770c3ddc260d9ce81b00fba48dd8966fcc2b8f3416b134a54e81d034",
  "number": 46953,
  "timestamp": 1438932167,
  "nonce": "0x318ed69cef687da3",
  "difficulty": 1456719318284,
  "gasLimit": {
    "_hex": "0x88d4"
  },
  "gasUsed": {
    "_hex": "0x5208"
  },
  "miner": "0x40dDAE161B79aaebeb68187233fe59bd3B1c2db2",
  "extraData": "0x476574682f76312e302e312f77696e646f77732f676f312e342e32",
  "transactions": [
    {
      "hash": "0x739065726100d6a51a4bbc2ed26af8587eff509d8982a370f93b8f7c23b99ae2",
      "blockHash": "0x947405fc6de904bbe0a621f695caf34896442d9c94b836143f4bf1d6ecf23b75",
      "blockNumber": 46953,
      "transactionIndex": 0,
      "confirmations": null,
      "from": "0x02020D22dCF88f5eDd66B382D7da019F161fB7e3",
      "gasPrice": {
        "_hex": "0x45d964b800"
      },
      "gasLimit": {
        "_hex": "0x5208"
      },
      "to": "0xCDA330c8160f0c90B8B528C6Db267acc17381818",
      "value": {
        "_hex": "0xb1a2bc2ec50000"
      },
      "nonce": 0,
      "data": "0x",
      "r": "0x6db507baf291fb1b9fb2f2729fd9335f8a2a46f392827bb675e0a587682eff55",
      "s": "0x0a1ece3e3e68010856be6271e9b59d3edaed23031a248c12dc4f49b60b295b59",
      "v": 28,
      "creates": null,
      "raw": "0xf86b808545d964b80082520894cda330c8160f0c90b8b528c6db267acc1738181887b1a2bc2ec50000801ca06db507baf291fb1b9fb2f2729fd9335f8a2a46f392827bb675e0a587682eff55a00a1ece3e3e68010856be6271e9b59d3edaed23031a248c12dc4f49b60b295b59",
      "networkId": 0,
      "chainId": 0
    }
  ]
}