{
  "hash": "0x773f464ff0c76fae30fc187492a96e2ffcca1e0f0cc23d964d50502beb1c531d",
  "parentHash": "0x9811e779889eddd9e9fead65b6450073a5aa297fc64a1a8473bb8864adccccd9",
  "number": 54050,
  "timestamp": 1439047822,
  "nonce": "0x3e0ade9f316ab5ec",
  "difficulty": 1607149219197,
  "gasLimit": {
    "_hex": "0x2fefd8"
  },
  "gasUsed": {
    "_hex": "0xddfd"
  },
  "miner": "0xbb7B8287f3F0a933474a79eAe42CBCa977791171",
  "extraData": "0x476574682f4c5649562f76312e302e312f6c696e75782f676f312e342e32",
  "transactions": [
    {
      "hash": "0x2b235055f7b0a211184020f8ed25eb22c40ebf259779de962c5ed777414b5000",
      "blockHash": "0x773f464ff0c76fae30fc187492a96e2ffcca1e0f0cc23d964d50502beb1c531d",
      "blockNumber": 54050,
      "transactionIndex": 0,
      "confirmations": null,
      "from": "0x2d11763B4999FB3b61Ca8d19C8C77a743079f7bd",
      "gasPrice": {
        "_hex": "0xd3b8cb435"
      },
      "gasLimit": {
        "_hex": "0x7a120"
      },
      "to": "0xA327075af2a223A1C83a36aDa1126afE7430f955",
      "value": {
        "_hex": "0x8ac7230489e80000"
      },
      "nonce": 3,
      "data": "0x",
      "r": "0x728781e40878252b8e25a60d7e0326ded6bd813702e7cc0e931ddb550e1c4586",
      "s": "0x51443eda21d1f8ab27216ac778171fbf8e396ddc658644a19a3dd01e4b3b5a3d",
      "v": 28,
      "creates": null,
      "raw": "0xf86d03850d3b8cb4358307a12094a327075af2a223a1c83a36ada1126afe7430f955888ac7230489e80000801ca0728781e40878252b8e25a60d7e0326ded6bd813702e7cc0e931ddb550e1c4586a051443eda21d1f8ab27216ac778171fbf8e396ddc658644a19a3dd01e4b3b5a3d",
      "networkId": 0,
      "chainId": 0
    }
  ]
}