{
  "hash": "0x8c8b0cbc3c53796ef552e7d5304e0799139291e7d11a39286d4a4c0188186d77",
  "parentHash": "0x24fdd8255b0f6838a5b13c9f2e6706ad7856664896890706cf4dcab83e419102",
  "number": 85309,
  "timestamp": 1439561623,
  "nonce": "0x6c6d73afb9e77990",
  "difficulty": 2746387463482,
  "gasLimit": {
    "_hex": "0x2fefd8"
  },
  "gasUsed": {
    "_hex": "0xa410"
  },
  "miner": "0xf8E0CA3Ed80bd541b94BEdCf259e8CF2141A9523",
  "extraData": "0x476574682f76312e302e312f77696e646f77732f676f312e342e32",
  "transactions": [
    {
      "hash": "0x281bf7196c66503217e85580ac55b57e3bb50c6d8ff9368fd1e1e55d1792d814",
      "blockHash": "0x8c8b0cbc3c53796ef552e7d5304e0799139291e7d11a39286d4a4c0188186d77",
      "blockNumber": 85309,
      "transactionIndex": 0,
      "confirmations": null,
      "from": "0xF9A59c3cC5fFACBcB67Be0fc7256F64c9B127Cb4",
      "gasPrice": {
        "_hex": "0x119ce34f377"
      },
      "gasLimit": {
        "_hex": "0x15f90"
      },
      "to": "0xd97FDBc4B51136F7381A02c672E73247F5D6927c",
      "value": {
        "_hex": "0x6c4fd1ee246e780000"
      },
      "nonce": 2,
      "data": "0x",
      "r": "0x57a91931fd16b5eeab0aeb7c94f65711aaa2cc50b0d454245cbfbf2fe1ed40de",
      "s": "0x4d32f1f2853cc62b67b1bd235914212f00070664e132bfdd30510875040f10ce",
      "v": 28,
      "creates": null,
      "raw": "0xf86f02860119ce34f37783015f9094d97fdbc4b51136f7381a02c672e73247f5d6927c896c4fd1ee246e780000801ca057a91931fd16b5eeab0aeb7c94f65711aaa2cc50b0d454245cbfbf2fe1ed40dea04d32f1f2853cc62b67b1bd235914212f00070664e132bfdd30510875040f10ce",
      "networkId": 0,
      "chainId": 0
    },
    {
      "hash": "0xb9aa692ee2e82bd97ab55c8055b1dae0f526eec42574e5656d7025d0c6a64c3e",
      "blockHash": "0x8c8b0cbc3c53796ef552e7d5304e0799139291e7d11a39286d4a4c0188186d77",
      "blockNumber": 85309,
      "transactionIndex": 1,
      "confirmations": null,
      "from": "0xc597A5d92F5dC1137D847db733cfe02c6d209f13",
      "gasPrice": {
        "_hex": "0xd7c6ead71"
      },
      "gasLimit": {
        "_hex": "0x15f90"
      },
      "to": "0xe44e19dD7Fa7A7f73e7BD58559f36c3B0d288fb5",
      "value": {
        "_hex": "0x27078579af9cf400"
      },
      "nonce": 26,
      "data": "0x",
      "r": "0x868749eb4570453f4903a19460d5bbb0d761c1447729ad929814fddb00b378cd",
      "s": "0x3627aec394d47e9ea98f49594c4e4e257151af2d85078a720336040f2bca390e",
      "v": 28,
      "creates": null,
      "raw": "0xf86d1a850d7c6ead7183015f9094e44e19dd7fa7a7f73e7bd58559f36c3b0d288fb58827078579af9cf400801ca0868749eb4570453f4903a19460d5bbb0d761c1447729ad929814fddb00b378cda03627aec394d47e9ea98f49594c4e4e257151af2d85078a720336040f2bca390e",
      "networkId": 0,
      "chainId": 0
    }
  ]
}