{
  "hash": "0x1aacaddb57ee4474a0d5109327f08a5d41003ec109fdc7f0e39964933ac0c08f",
  "parentHash": "0x75851cb0bb2c03746e3f1116b204d94812273d360455eb148863ff88b312c4e1",
  "number": 65215,
  "timestamp": 1439233100,
  "nonce": "0x3003f70a426b46b9",
  "difficulty": 1946440023874,
  "gasLimit": {
    "_hex": "0x2fefd5"
  },
  "gasUsed": {
    "_hex": "0x405d0"
  },
  "miner": "0x0037ce3d4B7f8729C8607D8D0248252Be68202c0",
  "extraData": "0x476574682f76312e302e312f77696e646f77732f676f312e342e32",
  "transactions": [
    {
      "hash": "0x4492c2575ca43fb0aed83d379b6315ccedcb5504bdb0dac2061c186660bbe715",
      "blockHash": "0x1aacaddb57ee4474a0d5109327f08a5d41003ec109fdc7f0e39964933ac0c08f",
      "blockNumber": 65215,
      "transactionIndex": 0,
      "confirmations": null,
      "from": "0x120A270bbC009644e35F0bB6ab13f95b8199c4ad",
      "gasPrice": {
        "_hex": "0xd409caa7d"
      },
      "gasLimit": {
        "_hex": "0x15f90"
      },
      "to": "0x8AAcA7c86A96D7E1B362E33F6BcBbC5e8B90cC14",
      "value": {
        "_hex": "0x410d586a20a4c00000"
      },
      "nonce": 122,
      "data": "0x",
      "r": "0x054d5e834b10d7ed7a721402d2a75a6f07eb2d6c936186937d51b321f56fc5c5",
      "s": "0x2ff3b8dc63bcd90691886b12a21e7962edfd8098e914a0018308fd871ba1b2fc",
      "v": 27,
      "creates": null,
      "raw": "0xf86e7a850d409caa7d83015f90948aaca7c86a96d7e1b362e33f6bcbbc5e8b90cc1489410d586a20a4c00000801ba0054d5e834b10d7ed7a721402d2a75a6f07eb2d6c936186937d51b321f56fc5c5a02ff3b8dc63bcd90691886b12a21e7962edfd8098e914a0018308fd871ba1b2fc",
      "networkId": 0,
      "chainId": 0
    },
    {
      "hash": "0x2eec8c56e25df7bbd2b64b2ce82498e77bc3cc8721cd11d3650840ad87425fbc",
      "blockHash": "0x1aacaddb57ee4474a0d5109327f08a5d41003ec109fdc7f0e39964933ac0c08f",
      "blockNumber": 65215,
      "transactionIndex": 1,
      "confirmations": null,
      "from": "0x9845F1677A0d66A79b5Dafe14D75638369B21505",
      "gasPrice": {
        "_hex": "0xd309186e4"
      },
      "gasLimit": {
        "_hex": "0xf4240"
      },
      "to": null,
      "value": {
        "_hex": "0x0"
      },
      "nonce": 1,
      "data": "0x60606040526040516102b43803806102b48339016040526060805160600190602001505b5b33600060006101000a81548173ffffffffffffffffffffffffffffffffffffffff021916908302179055505b806001600050908051906020019082805482825590600052602060002090601f01602090048101928215609e579182015b82811115609d5782518260005055916020019190600101906081565b5b50905060c5919060a9565b8082111560c1576000818150600090555060010160a9565b5090565b50505b506101dc806100d86000396000f30060606040526000357c01000000000000000000000000000000000000000000000000000000009004806341c0e1b514610044578063cfae32171461005157610042565b005b61004f6004506100ca565b005b61005c60045061015e565b60405180806020018281038252838181518152602001915080519060200190808383829060006004602084601f0104600302600f01f150905090810190601f1680156100bc5780820380516001836020036101000a031916815260200191505b509250505060405180910390f35b600060009054906101000a900473ffffffffffffffffffffffffffffffffffffffff1673ffffffffffffffffffffffffffffffffffffffff163373ffffffffffffffffffffffffffffffffffffffff16141561015b57600060009054906101000a900473ffffffffffffffffffffffffffffffffffffffff1673ffffffffffffffffffffffffffffffffffffffff16ff5b5b565b60206040519081016040528060008152602001506001600050805480601f016020809104026020016040519081016040528092919081815260200182805480156101cd57820191906000526020600020905b8154815290600101906020018083116101b057829003601f168201915b505050505090506101d9565b9056000000000000000000000000000000000000000000000000000000000000002000000000000000000000000000000000000000000000000000000000000000134772656574696e6773204675636b666163652100000000000000000000000000",
      "r": "0xb754340fdd56726bd8b22803d66d49cc4ba07b3082e1e06ee2278c83fd50f4a7",
      "s": "0x428add6508fcadad1c32b79f5e6ad081936283d8d9d29c73cdc12f5e08b5de32",
      "v": 28,
      "creates": "0xd7dC1D3210E52099a8b303CFfc642ae0904de02B",
      "raw": "0xf9036701850d309186e4830f42408080b9031460606040526040516102b43803806102b48339016040526060805160600190602001505b5b33600060006101000a81548173ffffffffffffffffffffffffffffffffffffffff021916908302179055505b806001600050908051906020019082805482825590600052602060002090601f01602090048101928215609e579182015b82811115609d5782518260005055916020019190600101906081565b5b50905060c5919060a9565b8082111560c1576000818150600090555060010160a9565b5090565b50505b506101dc806100d86000396000f30060606040526000357c01000000000000000000000000000000000000000000000000000000009004806341c0e1b514610044578063cfae32171461005157610042565b005b61004f6004506100ca565b005b61005c60045061015e565b60405180806020018281038252838181518152602001915080519060200190808383829060006004602084601f0104600302600f01f150905090810190601f1680156100bc5780820380516001836020036101000a031916815260200191505b509250505060405180910390f35b600060009054906101000a900473ffffffffffffffffffffffffffffffffffffffff1673ffffffffffffffffffffffffffffffffffffffff163373ffffffffffffffffffffffffffffffffffffffff16141561015b57600060009054906101000a900473ffffffffffffffffffffffffffffffffffffffff1673ffffffffffffffffffffffffffffffffffffffff16ff5b5b565b60206040519081016040528060008152602001506001600050805480601f016020809104026020016040519081016040528092919081815260200182805480156101cd57820191906000526020600020905b8154815290600101906020018083116101b057829003601f168201915b505050505090506101d9565b9056000000000000000000000000000000000000000000000000000000000000002000000000000000000000000000000000000000000000000000000000000000134772656574696e6773204675636b6661636521000000000000000000000000001ca0b754340fdd56726bd8b22803d66d49cc4ba07b3082e1e06ee2278c83fd50f4a7a0428add6508fcadad1c32b79f5e6ad081936283d8d9d29c73cdc12f5e08b5de32",
      "networkId": 0,
      "chainId": 0
    },
    {
      "hash": "0x4a198d1fa21929d9908e631b7581ca12b2785ae9108d4ae47ccaa5c05c2c4f47",
      "blockHash": "0x1aacaddb57ee4474a0d5109327f08a5d41003ec109fdc7f0e39964933ac0c08f",
      "blockNumber": 65215,
      "transactionIndex": 2,
      "confirmations": null,
      "from": "0x535Ed2FEc482c97E79Fa1608903C60A10467115d",
      "gasPrice": {
        "_hex": "0xba43b7400"
      },
      "gasLimit": {
        "_hex": "0x5208"
      },
      "to": "0x1A9Ac400722144dc66914C62BB3981370fc72183",
      "value": {
        "_hex": "0x6cff6f1267dc000"
      },
      "nonce": 1,
      "data": "0x",
      "r": "0xe694c5025928de04e0f53f5ac0fe48165bde75d7e10c292f482a62a6335ab8a0",
      "s": "0x2f415e33155bfb16d499703964cf6292a95b9f23f6abcb44de6d40538b8d2b06",
      "v": 27,
      "creates": null,
      "raw": "0xf86c01850ba43b7400825208941a9ac400722144dc66914c62bb3981370fc721838806cff6f1267dc000801ba0e694c5025928de04e0f53f5ac0fe48165bde75d7e10c292f482a62a6335ab8a0a02f415e33155bfb16d499703964cf6292a95b9f23f6abcb44de6d40538b8d2b06",
      "networkId": 0,
      "chainId": 0
    }
  ]
}