{
  "hash": "0x0cc18e02f104ad415cec6970911c47068bc3834d0e220113f9913a178bf68b9c",
  "parentHash": "0x4bfde9dbf7ad40dd80930f9dade7d5d92142a214db2e64e0c8a757ae0e81fb39",
  "number": 60154,
  "timestamp": 1439150223,
  "nonce": "0xee69d6cc2653e78b",
  "difficulty": 1739873511321,
  "gasLimit": {
    "_hex": "0x2fefd8"
  },
  "gasUsed": {
    "_hex": "0xa410"
  },
  "miner": "0xEF247E639d49461D25F57e9362CadE3120910Ce0",
  "extraData": "0x476574682f76312e302e312f6c696e75782f676f312e342e32",
  "transactions": [
    {
      "hash": "0xbdfc1fc00d700d832aee154e0d14b076719ef8115c99649c01e4559161e42ea6",
      "blockHash": "0x0cc18e02f104ad415cec6970911c47068bc3834d0e220113f9913a178bf68b9c",
      "blockNumber": 60154,
      "transactionIndex": 0,
      "confirmations": null,
      "from": "0xa072691C8DD7cD4237fF72a75C1A9506d0Ce5B9E",
      "gasPrice": {
        "_hex": "0x110adfb6b19"
      },
      "gasLimit": {
        "_hex": "0x15f90"
      },
      "to": null,
      "value": {
        "_hex": "0xde0b6b3a7640000"
      },
      "nonce": 0,
      "data": "0x",
      "r": "0x6ecedae884fa60eaf833096fad5ecef4ba86e78d1dc3f469d125e3e0724cd6d0",
      "s": "0x689f2136874081486191ff2d9981a8adc69f7785e9427a70ffc0a971516aad8b",
      "v": 28,
      "creates": "0xEE191006F786005A70E3F6f7c9bb279De9753807",
      "raw": "0xf85a80860110adfb6b1983015f9080880de0b6b3a7640000801ca06ecedae884fa60eaf833096fad5ecef4ba86e78d1dc3f469d125e3e0724cd6d0a0689f2136874081486191ff2d9981a8adc69f7785e9427a70ffc0a971516aad8b",
      "networkId": 0,
      "chainId": 0
    },
    {
      "hash": "0xafa4eb3c6fd915175a21448a96b2eeec3decf88b9e10fb38533b5a215073779e",
      "blockHash": "0x0cc18e02f104ad415cec6970911c47068bc3834d0e220113f9913a178bf68b9c",
      "blockNumber": 60154,
      "transactionIndex": 1,
      "confirmations": null,
      "from": "0x05fD385FFA266D64FB0eA6a52b977B15f80e6BDb",
      "gasPrice": {
        "_hex": "0xda118bb12"
      },
      "gasLimit": {
        "_hex": "0x15f90"
      },
      "to": "0x8Fcd6a7276F4a21379F529D2c284C6Ca037a6863",
      "value": {
        "_hex": "0x7cc2e55e72c30000"
      },
      "nonce": 1,
      "data": "0x",
      "r": "0x799f339e8acbf06a03633cdbd19ebd6ae52a9c2bc7e030f1cf5a02c674c2ea28",
      "s": "0x460e49f89a8b1677ba471e81a7b08f2c3d9c2cb27bdc1455c4a4cd13046555cd",
      "v": 27,
      "creates": null,
      "raw": "0xf86d01850da118bb1283015f90948fcd6a7276f4a21379f529d2c284c6ca037a6863887cc2e55e72c30000801ba0799f339e8acbf06a03633cdbd19ebd6ae52a9c2bc7e030f1cf5a02c674c2ea28a0460e49f89a8b1677ba471e81a7b08f2c3d9c2cb27bdc1455c4a4cd13046555cd",
      "networkId": 0,
      "chainId": 0
    }
  ]
}