{
  "hash": "0x4314054bc88bf4f4f9b97e67453419f59c9b0db654517540376b6aa66e41c8fc",
  "parentHash": "0x4af97cb0f9ac494d5af0eff9b581016ac5d3ab266e9be4ca7d70a26c3ec22ca6",
  "number": 80987,
  "timestamp": 1439494171,
  "nonce": "0x2d7b6549fd8f6345",
  "difficulty": 2451116903162,
  "gasLimit": {
    "_hex": "0x2fefd8"
  },
  "gasUsed": {
    "_hex": "0xa410"
  },
  "miner": "0xe6A7a1d47ff21B6321162AEA7C6CB457D5476Bca",
  "extraData": "0x476574682f76312e302e312d38326566323666362f6c696e75782f676f312e34",
  "transactions": [
    {
      "hash": "0xff28036bead8d0d525225760ad10db698d1479a71a8b3a3282eadf0711cdcf64",
      "blockHash": "0x4314054bc88bf4f4f9b97e67453419f59c9b0db654517540376b6aa66e41c8fc",
      "blockNumber": 80987,
      "transactionIndex": 0,
      "confirmations": null,
      "from": "0x5867a8535fAECCA953BF0652E830b9c5701c6f5A",
      "gasPrice": {
        "_hex": "0xd7d40ace3"
      },
      "gasLimit": {
        "_hex": "0x7530"
      },
      "to": "0x4e5e093b534E43C718e5375FA12aC2ebDE98439e",
      "value": {
        "_hex": "0x16345785d8a0000"
      },
      "nonce": 0,
      "data": "0x",
      "r": "0x7fef604a9e9809bd6403945fd9864efaf9d5b72f7aed108cfae15598f26390b6",
      "s": "0x50c131862cd939058ad293b3a3e5913a5aea6291ae89a6d517eb6ac23abccbad",
      "v": 27,
      "creates": null,
      "raw": "0xf86c80850d7d40ace3827530944e5e093b534e43c718e5375fa12ac2ebde98439e88016345785d8a0000801ba07fef604a9e9809bd6403945fd9864efaf9d5b72f7aed108cfae15598f26390b6a050c131862cd939058ad293b3a3e5913a5aea6291ae89a6d517eb6ac23abccbad",
      "networkId": 0,
      "chainId": 0
    },
    {
      "hash": "0x70663315863dcb3eab4a0e5465cc0c9ef33ba693f71ff0af1aa972628a711dac",
      "blockHash": "0x4314054bc88bf4f4f9b97e67453419f59c9b0db654517540376b6aa66e41c8fc",
      "blockNumber": 80987,
      "transactionIndex": 1,
      "confirmations": null,
      "from": "0x120A270bbC009644e35F0bB6ab13f95b8199c4ad",
      "gasPrice": {
        "_hex": "0xcb39ebc94"
      },
      "gasLimit": {
        "_hex": "0x3d090"
      },
      "to": "0x8d304933a1F93F268bFDcFF9FFE6846a75167279",
      "value": {
        "_hex": "0x2ad2a8c0a190800"
      },
      "nonce": 357,
      "data": "0x",
      "r": "0x78398ac61425d5167b77b7ddeb94963b41a28b772b8bb75ce82a05fe2756d53e",
      "s": "0x2b19d8413901c5a4631bc0ac7a2b615d3f922c1ef4c81cc6873c04e429703122",
      "v": 27,
      "creates": null,
      "raw": "0xf86f820165850cb39ebc948303d090948d304933a1f93f268bfdcff9ffe6846a751672798802ad2a8c0a190800801ba078398ac61425d5167b77b7ddeb94963b41a28b772b8bb75ce82a05fe2756d53ea02b19d8413901c5a4631bc0ac7a2b615d3f922c1ef4c81cc6873c04e429703122",
      "networkId": 0,
      "chainId": 0
    }
  ]
}