{
  "hash": "0x91b970f4dfd33609ffeb40c4033c50e99a9c3f66e0cd80dd884c697831bf05f7",
  "parentHash": "0x978766eb45c4270d76f6ad35f66789e4fdeaf318062a210fb3812d61765329de",
  "number": 56883,
  "timestamp": 1439093924,
  "nonce": "0x2860b4861bb82faa",
  "difficulty": 1709388906274,
  "gasLimit": {
    "_hex": "0x2fefd8"
  },
  "gasUsed": {
    "_hex": "0x5208"
  },
  "miner": "0x9D49F602b0fdb924Bd63DDE2Bd0907E4A07c63a7",
  "extraData": "0x476574682f76312e302e312f6c696e75782f676f312e342e32",
  "transactions": [
    {
      "hash": "0x86f5f53646e16cff4e446c9b0388c648d9eb7c6038ae4f3f9da9c7df2d888db4",
      "blockHash": "0x91b970f4dfd33609ffeb40c4033c50e99a9c3f66e0cd80dd884c697831bf05f7",
      "blockNumber": 56883,
      "transactionIndex": 0,
      "confirmations": null,
      "from": "0xF5EeDc192aB70b08D8354384aD94efD095849E00",
      "gasPrice": {
        "_hex": "0xd1b3f4900"
      },
      "gasLimit": {
        "_hex": "0x5208"
      },
      "to": "0x32Be343B94f860124dC4fEe278FDCBD38C102D88",
      "value": {
        "_hex": "0x340a69383ce3b4000"
      },
      "nonce": 11,
      "data": "0x",
      "r": "0xcd72bf252487b8c48a385e0843ba1a70b3e4a276c76f9344632197b2a3992198",
      "s": "0x0ee12ebc85799272d2ca4bdbd67fcee55ffb605412879e07ecf8fb58af49e7ea",
      "v": 28,
      "creates": null,
      "raw": "0xf86d0b850d1b3f49008252089432be343b94f860124dc4fee278fdcbd38c102d88890340a69383ce3b4000801ca0cd72bf252487b8c48a385e0843ba1a70b3e4a276c76f9344632197b2a3992198a00ee12ebc85799272d2ca4bdbd67fcee55ffb605412879e07ecf8fb58af49e7ea",
      "networkId": 0,
      "chainId": 0
    }
  ]
}