{
  "hash": "0x55b806abc72fef5c00fa6fb5347b517c5a234a0f7ed1fc53069a17f9a4b8a907",
  "parentHash": "0x4db920e7d9141bfba0d8273495ea5ee63e854fdd1a361c8b2641740f0d9d799c",
  "number": 82462,
  "timestamp": 1439519713,
  "nonce": "0x88d0d1a6be39b29c",
  "difficulty": 2378768239276,
  "gasLimit": {
    "_hex": "0x2fefd8"
  },
  "gasUsed": {
    "_hex": "0x14820"
  },
  "miner": "0x01d9DA08cc6Fb97c0DE1B6F4C28910A0859Ed1A1",
  "extraData": "0x476574682f76312e302e312f6c696e75782f676f312e342e32",
  "transactions": [
    {
      "hash": "0xeb028eb97729afd9da2d3d961fb4c97126eac9e8c3fd49827b879d4e0d2b897b",
      "blockHash": "0x55b806abc72fef5c00fa6fb5347b517c5a234a0f7ed1fc53069a17f9a4b8a907",
      "blockNumber": 82462,
      "transactionIndex": 0,
      "confirmations": null,
      "from": "0x19b94273cAf9AE6b9560d14dB9A6709c9c5a599F",
      "gasPrice": {
        "_hex": "0xd82107872"
      },
      "gasLimit": {
        "_hex": "0x15f90"
      },
      "to": "0x24e7eDc14752f3cDf84b3f75380c513781a46A8d",
      "value": {
        "_hex": "0xde0b6b3a7640000"
      },
      "nonce": 0,
      "data": "0x",
      "r": "0x242f236ce1348aec79a820c13324a84eb231555fce3d77deb0c2fad8985e229a",
      "s": "0x7f8691d2e94318e188dab854b5134f29b394d9dd68840c98b032d720ff2e7e9f",
      "v": 27,
      "creates": null,
      "raw": "0xf86d80850d8210787283015f909424e7edc14752f3cdf84b3f75380c513781a46a8d880de0b6b3a7640000801ba0242f236ce1348aec79a820c13324a84eb231555fce3d77deb0c2fad8985e229aa07f8691d2e94318e188dab854b5134f29b394d9dd68840c98b032d720ff2e7e9f",
      "networkId": 0,
      "chainId": 0
    },
    {
      "hash": "0xbaee4f19c657bf31828aa1b8c66d00a93bb3a3b1d4e8214c02f2d85efc39c400",
      "blockHash": "0x55b806abc72fef5c00fa6fb5347b517c5a234a0f7ed1fc53069a17f9a4b8a907",
      "blockNumber": 82462,
      "transactionIndex": 1,
      "confirmations": null,
      "from": "0xECbeBf25a95101fd892142Fc64063833BF3F2EE1",
      "gasPrice": {
        "_hex": "0xba43b7400"
      },
      "gasLimit": {
        "_hex": "0x5208"
      },
      "to": "0xC47Aaa860008be6f65B58c6C6E02a84e666EfE31",
      "value": {
        "_hex": "0xe7c9db5a8aa709dc0"
      },
      "nonce": 0,
      "data": "0x",
      "r": "0xab9cc2e2a00a76b2c89dfa7110b874c448b533b27ea8782f5e191504f1459753",
      "s": "0x32193d17929a30b33ce30c29ca74b54b3cd6b5b93729fbf61556c432cb7fc86e",
      "v": 28,
      "creates": null,
      "raw": "0xf86d80850ba43b740082520894c47aaa860008be6f65b58c6c6e02a84e666efe31890e7c9db5a8aa709dc0801ca0ab9cc2e2a00a76b2c89dfa7110b874c448b533b27ea8782f5e191504f1459753a032193d17929a30b33ce30c29ca74b54b3cd6b5b93729fbf61556c432cb7fc86e",
      "networkId": 0,
      "chainId": 0
    },
    {
      "hash": "0x21b5ad53bd9af156ecd13073157149c61b0e0577ffdf8c186109278800a6feca",
      "blockHash": "0x55b806abc72fef5c00fa6fb5347b517c5a234a0f7ed1fc53069a17f9a4b8a907",
      "blockNumber": 82462,
      "transactionIndex": 2,
      "confirmations": null,
      "from": "0x141d08EDaDA2C1bA62A2940184Ba03d62d3fFF22",
      "gasPrice": {
        "_hex": "0xba43b7400"
      },
      "gasLimit": {
        "_hex": "0x5208"
      },
      "to": "0xC47Aaa860008be6f65B58c6C6E02a84e666EfE31",
      "value": {
        "_hex": "0x8ab1a49324f49dc0"
      },
      "nonce": 1,
      "data": "0x",
      "r": "0x3dbe97d5bbb7e3a2c2a6f865ec36efa3f2d0f5184ddf534950a1da1cc179eb29",
      "s": "0x63df3318338e66b47450a34acf6d66d3e62bed0c344c4f1bcdfe56292e4a3388",
      "v": 28,
      "creates": null,
      "raw": "0xf86c01850ba43b740082520894c47aaa860008be6f65b58c6c6e02a84e666efe31888ab1a49324f49dc0801ca03dbe97d5bbb7e3a2c2a6f865ec36efa3f2d0f5184ddf534950a1da1cc179eb29a063df3318338e66b47450a34acf6d66d3e62bed0c344c4f1bcdfe56292e4a3388",
      "networkId": 0,
      "chainId": 0
    },
    {
      "hash": "0x57256d6fe3dc612aefc12a6000d89b5e48eff75adb1dd5005d31f237b5e925b5",
      "blockHash": "0x55b806abc72fef5c00fa6fb5347b517c5a234a0f7ed1fc53069a17f9a4b8a907",
      "blockNumber": 82462,
      "transactionIndex": 3,
      "confirmations": null,
      "from": "0x2C6dA0AeEF23c6a9eA4a8f19c0810e505FDEb231",
      "gasPrice": {
        "_hex": "0xba43b7400"
      },
      "gasLimit": {
        "_hex": "0x5208"
      },
      "to": "0xC47Aaa860008be6f65B58c6C6E02a84e666EfE31",
      "value": {
        "_hex": "0xa5a92d1987eb7e000"
      },
      "nonce": 4,
      "data": "0x",
      "r": "0x8d42ace9bd6d70326d1e04ba0d09ae6de6b1b150c602bac52c7aab1537efec98",
      "s": "0x48192ee7a3ca969673ad381c9e36f3f48c758c09ff8eca9092192919e021d215",
      "v": 28,
      "creates": null,
      "raw": "0xf86d04850ba43b740082520894c47aaa860008be6f65b58c6c6e02a84e666efe31890a5a92d1987eb7e000801ca08d42ace9bd6d70326d1e04ba0d09ae6de6b1b150c602bac52c7aab1537efec98a048192ee7a3ca969673ad381c9e36f3f48c758c09ff8eca9092192919e021d215",
      "networkId": 0,
      "chainId": 0
    }
  ]
}