{
  "hash": "0xf23dbf93c33330b803101ccefa64f5e7b90af51a59c39593b0a8eff151886ec4",
  "parentHash": "0x876b4bd68427ecbbe8fe1500c90aa8cae5b8a1b71f44071bf652a5ed531ad56f",
  "number": 58869,
  "timestamp": 1439128074,
  "nonce": "0x8d8639978cc1d0e6",
  "difficulty": 1703984793720,
  "gasLimit": {
    "_hex": "0x2fefd8"
  },
  "gasUsed": {
    "_hex": "0xa410"
  },
  "miner": "0xbb7B8287f3F0a933474a79eAe42CBCa977791171",
  "extraData": "0x476574682f4c5649562f76312e302e312f6c696e75782f676f312e342e32",
  "transactions": [
    {
      "hash": "0x5f612890874067deb0f021de3d30ae73ab3ac9b2551c0d3259e428811351d90b",
      "blockHash": "0xf23dbf93c33330b803101ccefa64f5e7b90af51a59c39593b0a8eff151886ec4",
      "blockNumber": 58869,
      "transactionIndex": 0,
      "confirmations": null,
      "from": "0xe6282e5294D064DD01851808dE43b9be32066E72",
      "gasPrice": {
        "_hex": "0x117ee44e0a4"
      },
      "gasLimit": {
        "_hex": "0x15f90"
      },
      "to": "0x39d4A931402c0c79c457186F24dF8729cf957031",
      "value": {
        "_hex": "0x135c1adf5ee36080000"
      },
      "nonce": 3,
      "data": "0x",
      "r": "0xfaa0c47edcc12ffdc3f022726229472958c99da9737e6aaee302c56572cb3c6c",
      "s": "0x23d6723271cd44b8d51f648b0eb9860da5fae86bfa8c000df8beaa7215e1406e",
      "v": 28,
      "creates": null,
      "raw": "0xf87003860117ee44e0a483015f909439d4a931402c0c79c457186f24df8729cf9570318a0135c1adf5ee36080000801ca0faa0c47edcc12ffdc3f022726229472958c99da9737e6aaee302c56572cb3c6ca023d6723271cd44b8d51f648b0eb9860da5fae86bfa8c000df8beaa7215e1406e",
      "networkId": 0,
      "chainId": 0
    },
    {
      "hash": "0x483b8cdaef532892dd5f716a05e5f951eda345296ccce8fef73f8b39ea37ad3b",
      "blockHash": "0xf23dbf93c33330b803101ccefa64f5e7b90af51a59c39593b0a8eff151886ec4",
      "blockNumber": 58869,
      "transactionIndex": 1,
      "confirmations": null,
      "from": "0xB0F2F4EFA0067029607C735c3D365B5c5Ab263C2",
      "gasPrice": {
        "_hex": "0xd97a1b590"
      },
      "gasLimit": {
        "_hex": "0x15f90"
      },
      "to": "0x6e8514a1a6cB23D6fF33f62fFAbBa5172417cCEA",
      "value": {
        "_hex": "0x44027c34dd465ebc"
      },
      "nonce": 1,
      "data": "0x",
      "r": "0x556425a1b62f4c987a3c83f2880ff47d47578eb9cbdca91f9e5af82b0d264971",
      "s": "0x09dbf672187ec7fcaec51bc842d23353f9ac49433a0039900d6ffc3e0fb8c8b1",
      "v": 28,
      "creates": null,
      "raw": "0xf86d01850d97a1b59083015f90946e8514a1a6cb23d6ff33f62ffabba5172417ccea8844027c34dd465ebc801ca0556425a1b62f4c987a3c83f2880ff47d47578eb9cbdca91f9e5af82b0d264971a009dbf672187ec7fcaec51bc842d23353f9ac49433a0039900d6ffc3e0fb8c8b1",
      "networkId": 0,
      "chainId": 0
    }
  ]
}