{
  "hash": "0x19dc160363e2538b10cbaf3f7b5671e12ac88570ca68bb8437d91f45aa77901e",
  "parentHash": "0xed88620497fdb09c14407a1f31c7cb42a194ad759ff674746af5f7d9704aa908",
  "number": 106548,
  "timestamp": 1439906271,
  "nonce": "0x275cce20afc137d5",
  "difficulty": 4479241704555,
  "gasLimit": {
    "_hex": "0x2fefd8"
  },
  "gasUsed": {
    "_hex": "0x546c"
  },
  "miner": "0x580992B51e3925e23280EfB93d3047C82f17E038",
  "extraData": "0x476574682f76312e302e312f6c696e75782f676f312e342e32",
  "transactions": [
    {
      "hash": "0xb573dc1de022f3c09741e1a48a9118a2793e6433c800957f20ddfd7b697d6125",
      "blockHash": "0x19dc160363e2538b10cbaf3f7b5671e12ac88570ca68bb8437d91f45aa77901e",
      "blockNumber": 106548,
      "transactionIndex": 0,
      "confirmations": null,
      "from": "0xCB4Ad0C723da46aB56D526DA0c1D25c73dafF10A",
      "gasPrice": {
        "_hex": "0x110c8f7d8de"
      },
      "gasLimit": {
        "_hex": "0xc350"
      },
      "to": "0x2910543Af39abA0Cd09dBb2D50200b3E800A63D2",
      "value": {
        "_hex": "0x1ba01ee40603100000"
      },
      "nonce": 0,
      "data": "0x454e42375455303247",
      "r": "0x9d913929321b8e70c293488c1b9fad0683dd31175e310cae6e62ecc5dc707548",
      "s": "0x83006915e51ebebf91984a031348631d727dd153eb50ef9494f78640c2c10f75",
      "v": 28,
      "creates": null,
      "raw": "0xf87780860110c8f7d8de82c350942910543af39aba0cd09dbb2d50200b3e800a63d2891ba01ee4060310000089454e423754553032471ca09d913929321b8e70c293488c1b9fad0683dd31175e310cae6e62ecc5dc707548a083006915e51ebebf91984a031348631d727dd153eb50ef9494f78640c2c10f75",
      "networkId": 0,
      "chainId": 0
    }
  ]
}