{
  "hash": "0xd16fb682a6dd13edd4dd9c3c01ce345773d21e5cbda47cdc7850112d35855570",
  "parentHash": "0xc380a6acc4db1c9df1b01cab1da0264fe75e1f46fcf0e69bce11ad476cd2d4a5",
  "number": 98013,
  "timestamp": 1439765643,
  "nonce": "0x0255b6c9bb247e1e",
  "difficulty": 3859620511258,
  "gasLimit": {
    "_hex": "0x2fefd8"
  },
  "gasUsed": {
    "_hex": "0x546c"
  },
  "miner": "0x0193d941b50d91BE6567c7eE1C0Fe7AF498b4137",
  "extraData": "0x4a5ace9e4e",
  "transactions": [
    {
      "hash": "0x8c7f89750cd85ad54e431550a85e6695dd13310e6830140430e49d125b0a1df0",
      "blockHash": "0xd16fb682a6dd13edd4dd9c3c01ce345773d21e5cbda47cdc7850112d35855570",
      "blockNumber": 98013,
      "transactionIndex": 0,
      "confirmations": null,
      "from": "0x123843545FB525C8E134c9A5F15ADA6865cc3848",
      "gasPrice": {
        "_hex": "0xd2c974150"
      },
      "gasLimit": {
        "_hex": "0x7530"
      },
      "to": "0x2910543Af39abA0Cd09dBb2D50200b3E800A63D2",
      "value": {
        "_hex": "0x78903338be34c0000"
      },
      "nonce": 12,
      "data": "0x454e3651304d384252",
      "r": "0xe85949f80de52d2220a613b83e46d45b838f9e9caee0da46611beb4edee73e8c",
      "s": "0x5a1e4b25f7e2473d734006dcc931b3e657033ca3cb11f630813ed35617606e22",
      "v": 28,
      "creates": null,
      "raw": "0xf8760c850d2c974150827530942910543af39aba0cd09dbb2d50200b3e800a63d289078903338be34c000089454e3651304d3842521ca0e85949f80de52d2220a613b83e46d45b838f9e9caee0da46611beb4edee73e8ca05a1e4b25f7e2473d734006dcc931b3e657033ca3cb11f630813ed35617606e22",
      "networkId": 0,
      "chainId": 0
    }
  ]
}