{
  "hash": "0xd4184e3aba2e6b6cfb54e903c4faa7cbfb65515ad93ca4968c3c18022ec6a087",
  "parentHash": "0x470686f8dc7e91d20cc010c75a81549f4761acfc02f7337bd3ffbe690af32942",
  "number": 84462,
  "timestamp": 1439549984,
  "nonce": "0xfd35043849b8dd43",
  "difficulty": 2563926075726,
  "gasLimit": {
    "_hex": "0x2fefd8"
  },
  "gasUsed": {
    "_hex": "0xa410"
  },
  "miner": "0xe6A7a1d47ff21B6321162AEA7C6CB457D5476Bca",
  "extraData": "0x476574682f76312e302e312d38326566323666362f6c696e75782f676f312e34",
  "transactions": [
    {
      "hash": "0x59d20ce138d9850a16aa9223813076187b1c0e6bf8a800f11f48bf9a8bf2123b",
      "blockHash": "0xd4184e3aba2e6b6cfb54e903c4faa7cbfb65515ad93ca4968c3c18022ec6a087",
      "blockNumber": 84462,
      "transactionIndex": 0,
      "confirmations": null,
      "from": "0xA126B99068EDc494d7C148686cE84E09AECaD67e",
      "gasPrice": {
        "_hex": "0x9184e72a000"
      },
      "gasLimit": {
        "_hex": "0x9758e"
      },
      "to": "0xe535C1c29F0091324F184de7a5be5520D1b0b008",
      "value": {
        "_hex": "0x3e8"
      },
      "nonce": 1,
      "data": "0x",
      "r": "0x07dd55831823b5758deaed6736538c4edb2ab276bc13578c80178c9a777e88d2",
      "s": "0x39b5be20bcc7770b349e57035f5af88a343760a7b39b70d11921bd19db825bea",
      "v": 28,
      "creates": null,
      "raw": "0xf868018609184e72a0008309758e94e535c1c29f0091324f184de7a5be5520d1b0b0088203e8801ca007dd55831823b5758deaed6736538c4edb2ab276bc13578c80178c9a777e88d2a039b5be20bcc7770b349e57035f5af88a343760a7b39b70d11921bd19db825bea",
      "networkId": 0,
      "chainId": 0
    },
    {
      "hash": "0x21846300ac94c302dc3b8aeeca38920dc7de26a9aa281dbd2792e8191bb842d2",
      "blockHash": "0xd4184e3aba2e6b6cfb54e903c4faa7cbfb65515ad93ca4968c3c18022ec6a087",
      "blockNumber": 84462,
      "transactionIndex": 1,
      "confirmations": null,
      "from": "0xA126B99068EDc494d7C148686cE84E09AECaD67e",
      "gasPrice": {
        "_hex": "0x9184e72a000"
      },
      "gasLimit": {
        "_hex": "0x9965e"
      },
      "to": "0xe535C1c29F0091324F184de7a5be5520D1b0b008",
      "value": {
        "_hex": "0xde0b6b3a7640000"
      },
      "nonce": 2,
      "data": "0x",
      "r": "0x66f8478702f490a5dfef9ff0abee4ec82fb0dc635e98e014dcfb20a44231a12e",
      "s": "0xe01187c3a523a9647d828de233dbe5daadbeadb4969415caa7234b46c92d480f",
      "v": 27,
      "creates": null,
      "raw": "0xf86e028609184e72a0008309965e94e535c1c29f0091324f184de7a5be5520d1b0b008880de0b6b3a7640000801ba066f8478702f490a5dfef9ff0abee4ec82fb0dc635e98e014dcfb20a44231a12ea0e01187c3a523a9647d828de233dbe5daadbeadb4969415caa7234b46c92d480f",
      "networkId": 0,
      "chainId": 0
    }
  ]
}