{
  "hash": "0xdc51f8574c41bd5d300497662d84cbd605a4f6d40ec4186884d01697a8e27ff2",
  "parentHash": "0xa9700902122ad1f464f9e8c96bad69717aebaf6448fdc12337594f585da043c3",
  "number": 79734,
  "timestamp": 1439474334,
  "nonce": "0x5895ea69e683fcd3",
  "difficulty": 2344939428526,
  "gasLimit": {
    "_hex": "0x2fe3de"
  },
  "gasUsed": {
    "_hex": "0x15f90"
  },
  "miner": "0xF78645Ea06d743C6B52a11EB3f3d486bbb4Cf01F",
  "extraData": "0x476574682f76312e302e302f77696e646f77732f676f312e342e32",
  "transactions": [
    {
      "hash": "0xb52acc116515d7dad6f18281a2807650ff2c2ff10fc3b3eb49951ab4482cddd5",
      "blockHash": "0xdc51f8574c41bd5d300497662d84cbd605a4f6d40ec4186884d01697a8e27ff2",
      "blockNumber": 79734,
      "transactionIndex": 0,
      "confirmations": null,
      "from": "0x87C5B5874A18B4306DF8a752a6C8cc3E82daFc19",
      "gasPrice": {
        "_hex": "0x10df2cafca2"
      },
      "gasLimit": {
        "_hex": "0x15f90"
      },
      "to": "0xC4c51de1AbF5D60DBd329eC0F999Fd8f021ae9fC",
      "value": {
        "_hex": "0x8ac7230489e80000"
      },
      "nonce": 98,
      "data": "0x8d21618600000000000000000000000000000000000000000000000000000000000000808d5adaad541502933bfca57b79fdcf7b21a9ea7dbcf2e9321d253f5db02ac8f3",
      "r": "0x8c7ae775e23fe421c10b12cc489c86e339487a6b80867c9ca0d7e91bc231e9fa",
      "s": "0x38539643853656fdb8ce4d585263c2543d9b1b980b9d7870331cb837b3e71081",
      "v": 28,
      "creates": null,
      "raw": "0xf8b36286010df2cafca283015f9094c4c51de1abf5d60dbd329ec0f999fd8f021ae9fc888ac7230489e80000b8448d21618600000000000000000000000000000000000000000000000000000000000000808d5adaad541502933bfca57b79fdcf7b21a9ea7dbcf2e9321d253f5db02ac8f31ca08c7ae775e23fe421c10b12cc489c86e339487a6b80867c9ca0d7e91bc231e9faa038539643853656fdb8ce4d585263c2543d9b1b980b9d7870331cb837b3e71081",
      "networkId": 0,
      "chainId": 0
    }
  ]
}