{
  "hash": "0x571fc882757c97a62d5501b3e58a3790b20dcf610b0797514925499522986a53",
  "parentHash": "0x05a4b995f6985b896660e8b9e23ec17168cf5e1360352910b654070eb88fea6f",
  "number": 87528,
  "timestamp": 1439593635,
  "nonce": "0xf1d4f899ef18972b",
  "difficulty": 3149453403581,
  "gasLimit": {
    "_hex": "0x2fefd8"
  },
  "gasUsed": {
    "_hex": "0x5208"
  },
  "miner": "0xe6A7a1d47ff21B6321162AEA7C6CB457D5476Bca",
  "extraData": "0x476574682f76312e302e312d38326566323666362f6c696e75782f676f312e34",
  "transactions": [
    {
      "hash": "0x156a8121514db06b3ae9041d412cad9b3ca71340abe41dfaa685161579234b1d",
      "blockHash": "0x571fc882757c97a62d5501b3e58a3790b20dcf610b0797514925499522986a53",
      "blockNumber": 87528,
      "transactionIndex": 0,
      "confirmations": null,
      "from": "0x32Be343B94f860124dC4fEe278FDCBD38C102D88",
      "gasPrice": {
        "_hex": "0xdea497892"
      },
      "gasLimit": {
        "_hex": "0x5208"
      },
      "to": "0x02020D22dCF88f5eDd66B382D7da019F161fB7e3",
      "value": {
        "_hex": "0x2386f26fc10000"
      },
      "nonce": 789,
      "data": "0x",
      "r": "0x68656403038f0171a1106703a624fe37eae612cd5ee4b380760f9c66a8e88d61",
      "s": "0x1981f35569b78e04fb039081bd3e5090c0c7f6705e913c9c7d40e91a9383d17c",
      "v": 27,
      "creates": null,
      "raw": "0xf86d820315850dea4978928252089402020d22dcf88f5edd66b382d7da019f161fb7e3872386f26fc10000801ba068656403038f0171a1106703a624fe37eae612cd5ee4b380760f9c66a8e88d61a01981f35569b78e04fb039081bd3e5090c0c7f6705e913c9c7d40e91a9383d17c",
      "networkId": 0,
      "chainId": 0
    }
  ]
}