{
  "hash": "0x160930f6e6e2730bde6b1a19d93fd8e541dce110125117398974cee6124b3c25",
  "parentHash": "0x08bcc5c8e8de2cb422f3ce70ab2d9465005042866038deabafe0fe69590c497f",
  "number": 117887,
  "timestamp": 1440116937,
  "nonce": "0xfe8d1feadc4d4d62",
  "difficulty": 4346163315153,
  "gasLimit": {
    "_hex": "0x2fefd8"
  },
  "gasUsed": {
    "_hex": "0xa410"
  },
  "miner": "0x17B719A685fC6C0002798e7f8151D0E2E83B7497",
  "extraData": "0x",
  "transactions": [
    {
      "hash": "0xb0d63045fe5874bd0b66d2b0776d5514c7abc8d35a7e239dc9fa2f0e938b7d59",
      "blockHash": "0x160930f6e6e2730bde6b1a19d93fd8e541dce110125117398974cee6124b3c25",
      "blockNumber": 117887,
      "transactionIndex": 0,
      "confirmations": null,
      "from": "0xFAc1B5968b6CC27786d1A28c3E360B8c421569B9",
      "gasPrice": {
        "_hex": "0xba43b7400"
      },
      "gasLimit": {
        "_hex": "0x5208"
      },
      "to": "0x32Be343B94f860124dC4fEe278FDCBD38C102D88",
      "value": {
        "_hex": "0xe6a6bffb16f1400"
      },
      "nonce": 11,
      "data": "0x",
      "r": "0xd8f401adccb127c98713e63ccd8e3f78ac4fb79987cec8c75fc1a0b2fb186069",
      "s": "0x1b44236075468a11112f8bd90ff9acb13cd2be9bf07d4651ca21c15dd772818d",
      "v": 28,
      "creates": null,
      "raw": "0xf86c0b850ba43b74008252089432be343b94f860124dc4fee278fdcbd38c102d88880e6a6bffb16f1400801ca0d8f401adccb127c98713e63ccd8e3f78ac4fb79987cec8c75fc1a0b2fb186069a01b44236075468a11112f8bd90ff9acb13cd2be9bf07d4651ca21c15dd772818d",
      "networkId": 0,
      "chainId": 0
    },
    {
      "hash": "0xba5c89131cf1f78dc3682fb2cb368973a3757fde1fa258814039b582710c166a",
      "blockHash": "0x160930f6e6e2730bde6b1a19d93fd8e541dce110125117398974cee6124b3c25",
      "blockNumber": 117887,
      "transactionIndex": 1,
      "confirmations": null,
      "from": "0x629e35e0A481d821293F354E0dD27E43a354D061",
      "gasPrice": {
        "_hex": "0xba43b7400"
      },
      "gasLimit": {
        "_hex": "0x5208"
      },
      "to": "0x32Be343B94f860124dC4fEe278FDCBD38C102D88",
      "value": {
        "_hex": "0x3ce91cf4e5aa4c00"
      },
      "nonce": 10,
      "data": "0x",
      "r": "0x6b0915a7531e2ee610ca3c82c9c2ba42e1be32d419315c8969633feb0e8fb0ba",
      "s": "0x5ecfd87a81d1d506e07acbaa9f1f2b433cefd98a74cbfcc95aa8a0f0adb25db4",
      "v": 27,
      "creates": null,
      "raw": "0xf86c0a850ba43b74008252089432be343b94f860124dc4fee278fdcbd38c102d88883ce91cf4e5aa4c00801ba06b0915a7531e2ee610ca3c82c9c2ba42e1be32d419315c8969633feb0e8fb0baa05ecfd87a81d1d506e07acbaa9f1f2b433cefd98a74cbfcc95aa8a0f0adb25db4",
      "networkId": 0,
      "chainId": 0
    }
  ]
}