{
  "hash": "0x0bc8d6d416a00ef120ee80b564010ed2e73ab9e4d3e0e76f6c6d3134faa297fb",
  "parentHash": "0x6c5a28a859bd8d0f62dfcaf05023705c9577cb9ec96fa7e5f3cc4abe450b405c",
  "number": 62588,
  "timestamp": 1439191205,
  "nonce": "0xd1881f775fba9c19",
  "difficulty": 1773674728158,
  "gasLimit": {
    "_hex": "0x2fefd8"
  },
  "gasUsed": {
    "_hex": "0x9e6d"
  },
  "miner": "0x05cdAf55d528Bb607D53056B6B6174b96b909268",
  "extraData": "0xdd809b302e392e34302b2b373237362d5257696e646f2f6d73762f4a4954",
  "transactions": [
    {
      "hash": "0x2f381fe6797a735f9ca89450cbf9e0adefdcd69b0035ab7e67e586a3a92eed85",
      "blockHash": "0x0bc8d6d416a00ef120ee80b564010ed2e73ab9e4d3e0e76f6c6d3134faa297fb",
      "blockNumber": 62588,
      "transactionIndex": 0,
      "confirmations": null,
      "from": "0xE2beA3e7d349ab64EBD9873418e78912e13CD35f",
      "gasPrice": {
        "_hex": "0xcbc33d75c"
      },
      "gasLimit": {
        "_hex": "0x15f90"
      },
      "to": "0x6C18EB3a3cbFc8fc6EeC1d80aB1d0dc5510FA0b1",
      "value": {
        "_hex": "0x38d7ea4c68000"
      },
      "nonce": 29,
      "data": "0xa55526db",
      "r": "0xdf7fd7a8cfd3289c53d7444024b31ff286a41f62b821d9eeb11efd8f4c3a8cc4",
      "s": "0x11979d7c175350888c27f3907a12daaac593cdbd76be4d369a32e4e0b1fec1be",
      "v": 27,
      "creates": null,
      "raw": "0xf8701d850cbc33d75c83015f90946c18eb3a3cbfc8fc6eec1d80ab1d0dc5510fa0b187038d7ea4c6800084a55526db1ba0df7fd7a8cfd3289c53d7444024b31ff286a41f62b821d9eeb11efd8f4c3a8cc4a011979d7c175350888c27f3907a12daaac593cdbd76be4d369a32e4e0b1fec1be",
      "networkId": 0,
      "chainId": 0
    }
  ]
}