{
  "hash": "0xcc97e180d49636bbc20c75a651e2d988996dcc560b50cbb206433e297d3c88e9",
  "parentHash": "0x227b20d9104310a343bb89fc5bde63529bd61383c2259f4de9a38bc86ee14da3",
  "number": 111936,
  "timestamp": 1439999006,
  "nonce": "0xb797705d7e9d0b3c",
  "difficulty": 4398367034878,
  "gasLimit": {
    "_hex": "0x2fefd8"
  },
  "gasUsed": {
    "_hex": "0x5208"
  },
  "miner": "0xe6A7a1d47ff21B6321162AEA7C6CB457D5476Bca",
  "extraData": "0x476574682f76312e302e312d38326566323666362f6c696e75782f676f312e34",
  "transactions": [
    {
      "hash": "0xd1ee98dda0715ea84cab1712422fdf47dc85dcd576136fa4967d4d799fa82fa6",
      "blockHash": "0xcc97e180d49636bbc20c75a651e2d988996dcc560b50cbb206433e297d3c88e9",
      "blockNumber": 111936,
      "transactionIndex": 0,
      "confirmations": null,
      "from": "0xdeE4977F74E6Aef6D627191c9A45D2627e331150",
      "gasPrice": {
        "_hex": "0xd3f907c87"
      },
      "gasLimit": {
        "_hex": "0x5208"
      },
      "to": "0x32Be343B94f860124dC4fEe278FDCBD38C102D88",
      "value": {
        "_hex": "0xd02669ddb8046000"
      },
      "nonce": 25,
      "data": "0x",
      "r": "0x2218aa5f3b4db06934cfbc301f49a4879d856f8f0869a42dca79f3f6822d25f9",
      "s": "0x0b3f3ce20e008a2758bdbd91381fd294fbeaf0d2fbe0512a82a8301fad4785eb",
      "v": 28,
      "creates": null,
      "raw": "0xf86c19850d3f907c878252089432be343b94f860124dc4fee278fdcbd38c102d8888d02669ddb8046000801ca02218aa5f3b4db06934cfbc301f49a4879d856f8f0869a42dca79f3f6822d25f9a00b3f3ce20e008a2758bdbd91381fd294fbeaf0d2fbe0512a82a8301fad4785eb",
      "networkId": 0,
      "chainId": 0
    }
  ]
}