{
  "hash": "0xb391b80fc19ac9921efe384469e5812ba287af1f3f5d6dc4ced0aae908cfb7c4",
  "parentHash": "0x15ac790b5ac0fcb3f5d65175c9d0aeffc302ef1d21b7034b6f72403fae30a8eb",
  "number": 66835,
  "timestamp": 1439261064,
  "nonce": "0x075276ebfacdc449",
  "difficulty": 1951773885563,
  "gasLimit": {
    "_hex": "0x2fefd8"
  },
  "gasUsed": {
    "_hex": "0x5208"
  },
  "miner": "0xE706a05a40761915bC70310f7a94e6B2B596dbf8",
  "extraData": "0x476574682f76312e302e312d38326566323666362f6c696e75782f676f312e34",
  "transactions": [
    {
      "hash": "0x38f5dfd24983e99427c4af80a12abef1cdc7c11647136c381a3d378d293edce0",
      "blockHash": "0xb391b80fc19ac9921efe384469e5812ba287af1f3f5d6dc4ced0aae908cfb7c4",
      "blockNumber": 66835,
      "transactionIndex": 0,
      "confirmations": null,
      "from": "0x9Fa9952255B2b06639A04D63804d4BdFFf6E2d7e",
      "gasPrice": {
        "_hex": "0x1087110250d"
      },
      "gasLimit": {
        "_hex": "0x15f90"
      },
      "to": "0xE12517204a15E890f12755207271102F4800A0c4",
      "value": {
        "_hex": "0x2b5e3af16b1880000"
      },
      "nonce": 3,
      "data": "0x",
      "r": "0x654741b5994704fbe2ab2faa1f8e5880b387395b96f8ff77a8b02228229733d3",
      "s": "0x2dcdc77b195493ef6e5aabf88971dd1d99f5eb1e2685416639c321911f4a6dec",
      "v": 28,
      "creates": null,
      "raw": "0xf86f038601087110250d83015f9094e12517204a15e890f12755207271102f4800a0c48902b5e3af16b1880000801ca0654741b5994704fbe2ab2faa1f8e5880b387395b96f8ff77a8b02228229733d3a02dcdc77b195493ef6e5aabf88971dd1d99f5eb1e2685416639c321911f4a6dec",
      "networkId": 0,
      "chainId": 0
    }
  ]
}