{
  "hash": "0x598fc0f4d5a082001f9c3b74c74900a935a259afa0a24c774a0dcb49e3640039",
  "parentHash": "0x1669ca20950505e25e7a2861868ae8520db5ec13b51b04bd57bf3c9034597c10",
  "number": 121706,
  "timestamp": 1440181220,
  "nonce": "0x0b249979c9f69646",
  "difficulty": 4497430216084,
  "gasLimit": {
    "_hex": "0x2fefd8"
  },
  "gasUsed": {
    "_hex": "0xa410"
  },
  "miner": "0xf927a40C8B7F6E07c5af7FA2155B4864a4112B13",
  "extraData": "0x476574682f76312e302e322f6c696e75782f676f312e342e32",
  "transactions": [
    {
      "hash": "0xba425d4eebd4895181ee41e87b7b5cc1e557748e05af788354958912bbccdf3c",
      "blockHash": "0x598fc0f4d5a082001f9c3b74c74900a935a259afa0a24c774a0dcb49e3640039",
      "blockNumber": 121706,
      "transactionIndex": 0,
      "confirmations": null,
      "from": "0xA61A4A69dcB2D8C74BdeCd17AD5821Adc21E95ec",
      "gasPrice": {
        "_hex": "0xe0af40953"
      },
      "gasLimit": {
        "_hex": "0x5208"
      },
      "to": "0x32Be343B94f860124dC4fEe278FDCBD38C102D88",
      "value": {
        "_hex": "0x6d5be6c116c68400"
      },
      "nonce": 6,
      "data": "0x",
      "r": "0x0ce3f8834319ccc7441827d34df77d14b882dadebf66c0de3cec111beb05e7cc",
      "s": "0x318acf2a0fa009f9fd0ab4e852a537cea8d434f5633b1d55dba1453bdb42f200",
      "v": 28,
      "creates": null,
      "raw": "0xf86c06850e0af409538252089432be343b94f860124dc4fee278fdcbd38c102d88886d5be6c116c68400801ca00ce3f8834319ccc7441827d34df77d14b882dadebf66c0de3cec111beb05e7cca0318acf2a0fa009f9fd0ab4e852a537cea8d434f5633b1d55dba1453bdb42f200",
      "networkId": 0,
      "chainId": 0
    },
    {
      "hash": "0x827bb61f306f71da3ef9fb6fa5301aa30bd1ab7f11acf95315b52d0a56340ce2",
      "blockHash": "0x598fc0f4d5a082001f9c3b74c74900a935a259afa0a24c774a0dcb49e3640039",
      "blockNumber": 121706,
      "transactionIndex": 1,
      "confirmations": null,
      "from": "0xC47Aaa860008be6f65B58c6C6E02a84e666EfE31",
      "gasPrice": {
        "_hex": "0xba43b7400"
      },
      "gasLimit": {
        "_hex": "0x15f90"
      },
      "to": "0xFd1356C729AbA6307fdddAF2abF89c2563bBc1bF",
      "value": {
        "_hex": "0x15199315abd1939fc9e"
      },
      "nonce": 121,
      "data": "0x",
      "r": "0xd0c5ab84d50574d7eb23ce6e4a5b1ce6085f21504483259d5169b22bec70a0b3",
      "s": "0x7312868b98e797823ccf693e95462a79792295803dee43b982abda19315c0517",
      "v": 28,
      "creates": null,
      "raw": "0xf86f79850ba43b740083015f9094fd1356c729aba6307fdddaf2abf89c2563bbc1bf8a015199315abd1939fc9e801ca0d0c5ab84d50574d7eb23ce6e4a5b1ce6085f21504483259d5169b22bec70a0b3a07312868b98e797823ccf693e95462a79792295803dee43b982abda19315c0517",
      "networkId": 0,
      "chainId": 0
    }
  ]
}