{
  "hash": "0xabb3b5134578674d1deffe8bdec427bd4842d6bc81eca1c4a36188540f2e58d4",
  "parentHash": "0x6e95f44536e5e2490964f8906fa9b622ef5c43d2eec7fa8e101e141750f26620",
  "number": 71401,
  "timestamp": 1439335327,
  "nonce": "0xaaa0e141db6ba9fa",
  "difficulty": 2180430791568,
  "gasLimit": {
    "_hex": "0x2fefd8"
  },
  "gasUsed": {
    "_hex": "0xaec1"
  },
  "miner": "0x31995C46B15C84523cDEE26f49A681b8237e43F5",
  "extraData": "0x476574682f76312e302e312f77696e646f77732f676f312e342e32",
  "transactions": [
    {
      "hash": "0x36fbca2b84495b070892f52303338ab70b9cf4778e8cf6bb2f389e18fa693cf5",
      "blockHash": "0xabb3b5134578674d1deffe8bdec427bd4842d6bc81eca1c4a36188540f2e58d4",
      "blockNumber": 71401,
      "transactionIndex": 0,
      "confirmations": null,
      "from": "0x17580B766f7453525ca4C6A88b01b50570EA088C",
      "gasPrice": {
        "_hex": "0xd8f9e7a6b"
      },
      "gasLimit": {
        "_hex": "0x61a80"
      },
      "to": "0x5Fe5B7546D1628f7348B023A0393de1FC825A4fD",
      "value": {
        "_hex": "0x29a2241af62c0000"
      },
      "nonce": 173,
      "data": "0xb595b8b50000000000000000000000000000000000000000000000000000000000000001",
      "r": "0xf15033a93da4a0e29ea3d313d1b16ff5f47d5ea4f18fec3be8ec2a533c81e7a5",
      "s": "0x360f833d014e6e8b6ec89d9207bbac0d27f933884772acb17bc4cd07854ac3b7",
      "v": 27,
      "creates": null,
      "raw": "0xf89281ad850d8f9e7a6b83061a80945fe5b7546d1628f7348b023a0393de1fc825a4fd8829a2241af62c0000a4b595b8b500000000000000000000000000000000000000000000000000000000000000011ba0f15033a93da4a0e29ea3d313d1b16ff5f47d5ea4f18fec3be8ec2a533c81e7a5a0360f833d014e6e8b6ec89d9207bbac0d27f933884772acb17bc4cd07854ac3b7",
      "networkId": 0,
      "chainId": 0
    }
  ]
}