{
  "hash": "0x5a27afbfa0a8bef5feec6b0afd4b0ae6e06684d69c0a4a6a171ac86629a06d31",
  "parentHash": "0x3aa2894c3824d28ab5d8aa42807c269c2bf8c31b7e4f19ea4628df808fb499e2",
  "number": 68448,
  "timestamp": 1439288068,
  "nonce": "0x563bb59296bd7625",
  "difficulty": 2010395598679,
  "gasLimit": {
    "_hex": "0x2fefd8"
  },
  "gasUsed": {
    "_hex": "0x5208"
  },
  "miner": "0x33bC13fDF135073277971B4D9F4f72082e907996",
  "extraData": "0x476574682f76312e302e312d38326566323666362f6c696e75782f676f312e34",
  "transactions": [
    {
      "hash": "0xe022e74268f9e49681c2d78832b18323c5e874ad0660c5312ff8293af40c6ccf",
      "blockHash": "0x5a27afbfa0a8bef5feec6b0afd4b0ae6e06684d69c0a4a6a171ac86629a06d31",
      "blockNumber": 68448,
      "transactionIndex": 0,
      "confirmations": null,
      "from": "0x6747f922385c9a6F9cfDf095F34345257DD597bE",
      "gasPrice": {
        "_hex": "0xba43b7400"
      },
      "gasLimit": {
        "_hex": "0x5208"
      },
      "to": "0x381CEd7BF0bB7D42762A2CF7BA7A3953a1f6BF64",
      "value": {
        "_hex": "0x1fcbfa42bd6000"
      },
      "nonce": 94,
      "data": "0x",
      "r": "0x4ff1c43f939b284bd4fb5bf1bce9b7c2c60884af5a58287fe2d96d437eb518c5",
      "s": "0x6c5f37f9230193ccb57e748ed8e53d247b70e48c2158c766f47cedb095cb3707",
      "v": 28,
      "creates": null,
      "raw": "0xf86b5e850ba43b740082520894381ced7bf0bb7d42762a2cf7ba7a3953a1f6bf64871fcbfa42bd6000801ca04ff1c43f939b284bd4fb5bf1bce9b7c2c60884af5a58287fe2d96d437eb518c5a06c5f37f9230193ccb57e748ed8e53d247b70e48c2158c766f47cedb095cb3707",
      "networkId": 0,
      "chainId": 0
    }
  ]
}