{
  "hash": "0xd00050129c91a821962b76572309c3f0faf379b38644130fa1bf787d40a864b9",
  "parentHash": "0x748c92228a6a4466da885ead1a0400b526574268e87883d734ca0f64fedf828a",
  "number": 101744,
  "timestamp": 1439827439,
  "nonce": "0xaff277f6f6e26026",
  "difficulty": 3878681164375,
  "gasLimit": {
    "_hex": "0x2fefd8"
  },
  "gasUsed": {
    "_hex": "0x5208"
  },
  "miner": "0xC6A5D22D1DDd24B32a308bA4A49ec3cA38a2D0A6",
  "extraData": "0x",
  "transactions": [
    {
      "hash": "0xbc4a80ece9a166dd6a0cda2e6bd4d62bc7fcc5ca257ff6bf69160e38c29c60a2",
      "blockHash": "0xd00050129c91a821962b76572309c3f0faf379b38644130fa1bf787d40a864b9",
      "blockNumber": 101744,
      "transactionIndex": 0,
      "confirmations": null,
      "from": "0xf01CD4c66F3633880Cbd076A2105f9c1400dD7c7",
      "gasPrice": {
        "_hex": "0xd5ad2e976"
      },
      "gasLimit": {
        "_hex": "0x15f90"
      },
      "to": "0xf2cC0eEAAAeD313542CB262B0B8c3972425143f0",
      "value": {
        "_hex": "0x45400a8fd5330000"
      },
      "nonce": 3,
      "data": "0x",
      "r": "0x000e9501ab38d1cb8ab02b7be1044ed67a7b3e54b5ad05a3d5721d9341e2e7f4",
      "s": "0x1f4726baae7afd5f99af0c99144e4bc1ebdd9f5725192c8b619ffc0e90b4c70e",
      "v": 27,
      "creates": null,
      "raw": "0xf86c03850d5ad2e97683015f9094f2cc0eeaaaed313542cb262b0b8c3972425143f08845400a8fd5330000801b9f0e9501ab38d1cb8ab02b7be1044ed67a7b3e54b5ad05a3d5721d9341e2e7f4a01f4726baae7afd5f99af0c99144e4bc1ebdd9f5725192c8b619ffc0e90b4c70e",
      "networkId": 0,
      "chainId": 0
    }
  ]
}