{
  "hash": "0x19585292f203b25430be8a8d95a3f53a295453594022301c2e49299b9e933501",
  "parentHash": "0x3c8b477b4e5fc6d6fff22511fa66ffb8d1d531cd9df5d505275433c9a589433b",
  "number": 61547,
  "timestamp": 1439174207,
  "nonce": "0x0f404098ea83fe7b",
  "difficulty": 1737038260028,
  "gasLimit": {
    "_hex": "0x2fefd5"
  },
  "gasUsed": {
    "_hex": "0x5208"
  },
  "miner": "0xC169245A56f7F21a2836B77347271C347C7ced74",
  "extraData": "0x476574682f76312e302e312f6c696e75782f676f312e342e32",
  "transactions": [
    {
      "hash": "0x6a682e5486cddce9754f506e307a37726dce52ae54f8467bae1bd00f0033edcb",
      "blockHash": "0x19585292f203b25430be8a8d95a3f53a295453594022301c2e49299b9e933501",
      "blockNumber": 61547,
      "transactionIndex": 0,
      "confirmations": null,
      "from": "0x47ff6576639c2e94762eA5443978D7681C0E78DC",
      "gasPrice": {
        "_hex": "0xe11e9b480"
      },
      "gasLimit": {
        "_hex": "0x5208"
      },
      "to": "0xeD17Ea8E9fd42159037deE95ea173a56c54f55ce",
      "value": {
        "_hex": "0xaf35029c214e80000"
      },
      "nonce": 16,
      "data": "0x",
      "r": "0x92a901351812d8bc8ec0ccf6d7cf2f2bb926de72dd1c61f47ae1b8e9dfdd40d6",
      "s": "0x4cf2e86f2eca3d543eba2a1c37e1bd0d76cd8a6fb811551d65680dfe6f1fac18",
      "v": 27,
      "creates": null,
      "raw": "0xf86d10850e11e9b48082520894ed17ea8e9fd42159037dee95ea173a56c54f55ce890af35029c214e80000801ba092a901351812d8bc8ec0ccf6d7cf2f2bb926de72dd1c61f47ae1b8e9dfdd40d6a04cf2e86f2eca3d543eba2a1c37e1bd0d76cd8a6fb811551d65680dfe6f1fac18",
      "networkId": 0,
      "chainId": 0
    }
  ]
}