{
  "hash": "0x3a73a2b67cda7f9126c28f9bc5c46fcf70aa675d01f8d47d2274d5488ce06787",
  "parentHash": "0x0772c26e5c45619518fa3861f4d235836ff7bee666d7e69cf6f514df14095c4b",
  "number": 105443,
  "timestamp": 1439887776,
  "nonce": "0xff1a173afea14269",
  "difficulty": 4386753362772,
  "gasLimit": {
    "_hex": "0x2fefd8"
  },
  "gasUsed": {
    "_hex": "0xa410"
  },
  "miner": "0x790b8a3cE86E707ED0eD32bF89B3269692a23CC1",
  "extraData": "0xd783010001844765746887676f312e342e32856c696e7578",
  "transactions": [
    {
      "hash": "0x791a29d672063175c891009a54cb411e98ea465ff52125bfe39ea7746053fa6f",
      "blockHash": "0x3a73a2b67cda7f9126c28f9bc5c46fcf70aa675d01f8d47d2274d5488ce06787",
      "blockNumber": 105443,
      "transactionIndex": 0,
      "confirmations": null,
      "from": "0xe6F63A7e7F8dc774F8E3504c9b0c5458D7E28ED8",
      "gasPrice": {
        "_hex": "0xde307e652"
      },
      "gasLimit": {
        "_hex": "0x5208"
      },
      "to": "0x32Be343B94f860124dC4fEe278FDCBD38C102D88",
      "value": {
        "_hex": "0x981725c38a633800"
      },
      "nonce": 3,
      "data": "0x",
      "r": "0xae57dc91122ea94a44f19d68d51ea1126a296f94f605ae30398391a642cf7bce",
      "s": "0x72098a2fa5e73e0a1eabfc6a6d59143ad387284345b9bcc48d3374355f85c51f",
      "v": 27,
      "creates": null,
      "raw": "0xf86c03850de307e6528252089432be343b94f860124dc4fee278fdcbd38c102d8888981725c38a633800801ba0ae57dc91122ea94a44f19d68d51ea1126a296f94f605ae30398391a642cf7bcea072098a2fa5e73e0a1eabfc6a6d59143ad387284345b9bcc48d3374355f85c51f",
      "networkId": 0,
      "chainId": 0
    },
    {
      "hash": "0xd2cd55523d0bfaec55a6ce505cf700dd7a8d92b9d14dce9104d756892b84db5e",
      "blockHash": "0x3a73a2b67cda7f9126c28f9bc5c46fcf70aa675d01f8d47d2274d5488ce06787",
      "blockNumber": 105443,
      "transactionIndex": 1,
      "confirmations": null,
      "from": "0x2cf4364bc4C7C3333aB9963C4B3473664f42D83A",
      "gasPrice": {
        "_hex": "0xde307e652"
      },
      "gasLimit": {
        "_hex": "0x5208"
      },
      "to": "0x32Be343B94f860124dC4fEe278FDCBD38C102D88",
      "value": {
        "_hex": "0x187b02c7f4d491000"
      },
      "nonce": 4,
      "data": "0x",
      "r": "0xc0591e6b674cb97a1e8f408c89bf02f58986e522fd000158d89378bbeea39e6c",
      "s": "0x0faef921ef6966a275af30f6060260083962df8ecd07c62305dbe02d98ccac2e",
      "v": 28,
      "creates": null,
      "raw": "0xf86d04850de307e6528252089432be343b94f860124dc4fee278fdcbd38c102d88890187b02c7f4d491000801ca0c0591e6b674cb97a1e8f408c89bf02f58986e522fd000158d89378bbeea39e6ca00faef921ef6966a275af30f6060260083962df8ecd07c62305dbe02d98ccac2e",
      "networkId": 0,
      "chainId": 0
    }
  ]
}