{
  "hash": "0x92d18147eaa15065edc975adc63382704c4015c7c4e3c478f8f3528025ceab0b",
  "parentHash": "0xedd7ef256cf688961ba0b005b527cce063b8c23f88730ec88c9474a12a56ca36",
  "number": 97589,
  "timestamp": 1439758376,
  "nonce": "0x4b0ecdf4f3b00c01",
  "difficulty": 3848524093684,
  "gasLimit": {
    "_hex": "0x2fefd8"
  },
  "gasUsed": {
    "_hex": "0x5208"
  },
  "miner": "0x7D45E10A0d63eCCA0694a7cbfF030f4dD87DA0dC",
  "extraData": "0x476574682f76312e302e302f77696e646f77732f676f312e342e32",
  "transactions": [
    {
      "hash": "0x0acacbfcc638059368553b41f664e4910db5eb8e1eed35635096a6f28e31b70b",
      "blockHash": "0x92d18147eaa15065edc975adc63382704c4015c7c4e3c478f8f3528025ceab0b",
      "blockNumber": 97589,
      "transactionIndex": 0,
      "confirmations": null,
      "from": "0xF55cDbDF978F539ea4EEe0621f7f1a0F9F00f7d9",
      "gasPrice": {
        "_hex": "0xd7d40ace3"
      },
      "gasLimit": {
        "_hex": "0x5208"
      },
      "to": "0xb4A9c47d4182b60B07a31d310cEDA8105a1122c4",
      "value": {
        "_hex": "0x10a741a462780000"
      },
      "nonce": 1,
      "data": "0x",
      "r": "0x969f60062180b138c8ff6de50885e94e4f95552edd1148b5b0effc45a8f4409e",
      "s": "0x527bacb1c2481950e7e09aac6354678127ddb0636e3f5369ea82c1ee827f6f64",
      "v": 28,
      "creates": null,
      "raw": "0xf86c01850d7d40ace382520894b4a9c47d4182b60b07a31d310ceda8105a1122c48810a741a462780000801ca0969f60062180b138c8ff6de50885e94e4f95552edd1148b5b0effc45a8f4409ea0527bacb1c2481950e7e09aac6354678127ddb0636e3f5369ea82c1ee827f6f64",
      "networkId": 0,
      "chainId": 0
    }
  ]
}