{
  "hash": "0xd597445d45415894ffc41280c4693a32148d2185e88fc4bbb2c61ed2dfabfd65",
  "parentHash": "0x7baa1d6c4372ea22dfb3ce2172014306c7c30b539550743e99fee531301d999f",
  "number": 110437,
  "timestamp": 1439973811,
  "nonce": "0x62dec16982d8f05a",
  "difficulty": 4375588146125,
  "gasLimit": {
    "_hex": "0x2fefd8"
  },
  "gasUsed": {
    "_hex": "0x5208"
  },
  "miner": "0xbb7B8287f3F0a933474a79eAe42CBCa977791171",
  "extraData": "0x476574682f4c5649562f76312e302e312f6c696e75782f676f312e342e32",
  "transactions": [
    {
      "hash": "0x2430b8449785eeae1b51564bf081c94f3d795f849e28871de005ad647bc8e724",
      "blockHash": "0xd597445d45415894ffc41280c4693a32148d2185e88fc4bbb2c61ed2dfabfd65",
      "blockNumber": 110437,
      "transactionIndex": 0,
      "confirmations": null,
      "from": "0xEa4933866ad977Ce24bBb244ECc2C79463454Fe4",
      "gasPrice": {
        "_hex": "0xdd1f5a06e"
      },
      "gasLimit": {
        "_hex": "0x5208"
      },
      "to": "0x32Be343B94f860124dC4fEe278FDCBD38C102D88",
      "value": {
        "_hex": "0x5cf4ed5d1e212400"
      },
      "nonce": 5,
      "data": "0x",
      "r": "0xcae34adc30255ce1b66de4360039b260879770b962aaad8eae441bc8e9a64c71",
      "s": "0x00bf2610785c4bcab4a7999d181a4ece55d0d4164bfc3995da6ed7bfa59ebd75",
      "v": 28,
      "creates": null,
      "raw": "0xf86b05850dd1f5a06e8252089432be343b94f860124dc4fee278fdcbd38c102d88885cf4ed5d1e212400801ca0cae34adc30255ce1b66de4360039b260879770b962aaad8eae441bc8e9a64c719fbf2610785c4bcab4a7999d181a4ece55d0d4164bfc3995da6ed7bfa59ebd75",
      "networkId": 0,
      "chainId": 0
    }
  ]
}