{
  "hash": "0xabb65bedfd692afd7dd74d1239a7b3da7581f6b307110798fa1f9931d7195059",
  "parentHash": "0xb79786aa0875d4abb4d0a01e8df28da4546f137f20c99d4445f88f9e6ac54caa",
  "number": 91734,
  "timestamp": 1439660620,
  "nonce": "0x97a7d26a258757c3",
  "difficulty": 3474186465920,
  "gasLimit": {
    "_hex": "0x2fefd8"
  },
  "gasUsed": {
    "_hex": "0x5208"
  },
  "miner": "0xe6A7a1d47ff21B6321162AEA7C6CB457D5476Bca",
  "extraData": "0x476574682f76312e302e312d38326566323666362f6c696e75782f676f312e34",
  "transactions": [
    {
      "hash": "0x50fab0b9f4f1ed2da72181d6135835853b24c211ce1e375460816d95b11ee33c",
      "blockHash": "0xabb65bedfd692afd7dd74d1239a7b3da7581f6b307110798fa1f9931d7195059",
      "blockNumber": 91734,
      "transactionIndex": 0,
      "confirmations": null,
      "from": "0x834e9B529AC9Fa63B39A06f8D8C9B0D6791FA5dF",
      "gasPrice": {
        "_hex": "0xd4c6c580d"
      },
      "gasLimit": {
        "_hex": "0x186a0"
      },
      "to": "0x2F853817afd3B8F3B86E9F60ee77B5d97773c0e3",
      "value": {
        "_hex": "0x4e1003b28d9280000"
      },
      "nonce": 11,
      "data": "0x",
      "r": "0x0db9475aced7ae05ec580331cc1ce1a5b8c8600aebb8973103d84cf9b4a4a168",
      "s": "0x7742d2d619a8e4db76e89266ecbabeef0903c37cab3116df14c00f7552614042",
      "v": 27,
      "creates": null,
      "raw": "0xf86e0b850d4c6c580d830186a0942f853817afd3b8f3b86e9f60ee77b5d97773c0e38904e1003b28d9280000801ba00db9475aced7ae05ec580331cc1ce1a5b8c8600aebb8973103d84cf9b4a4a168a07742d2d619a8e4db76e89266ecbabeef0903c37cab3116df14c00f7552614042",
      "networkId": 0,
      "chainId": 0
    }
  ]
}