{
  "hash": "0x4a221dad03124f4110af8153c2f22290617ab2cdcb5c9279c2a1bcced31edd70",
  "parentHash": "0xfe264410d10c96ac84452fc53d0802fe784f2729c273b86aa770b54f8066172d",
  "number": 108665,
  "timestamp": 1439944203,
  "nonce": "0x73290be1ca7522ec",
  "difficulty": 4338215636320,
  "gasLimit": {
    "_hex": "0x2fefd8"
  },
  "gasUsed": {
    "_hex": "0x5208"
  },
  "miner": "0x9746c7e1ef2bd21FF3997fa467593a89cb852BD0",
  "extraData": "0x476574682f76312e302e312f77696e646f77732f676f312e342e32",
  "transactions": [
    {
      "hash": "0x319b16f87e04548d91dbad9b2a21ab0d541be81291cc5b4a1981501ac438303d",
      "blockHash": "0x4a221dad03124f4110af8153c2f22290617ab2cdcb5c9279c2a1bcced31edd70",
      "blockNumber": 108665,
      "transactionIndex": 0,
      "confirmations": null,
      "from": "0x8CdC27BF95732811eBD9b0a9e7E957A30C4582Ac",
      "gasPrice": {
        "_hex": "0xba43b7400"
      },
      "gasLimit": {
        "_hex": "0x5208"
      },
      "to": "0xC47Aaa860008be6f65B58c6C6E02a84e666EfE31",
      "value": {
        "_hex": "0x735f4bbeccba0f0"
      },
      "nonce": 0,
      "data": "0x",
      "r": "0xa7a538e73791b26958152b47e5b02db0642385280b2e07fe4c9f66838e482410",
      "s": "0x3cfac4846dc8eebcb29e4a7b11235e7be040d02ddc175fc52b6901f1322ec404",
      "v": 27,
      "creates": null,
      "raw": "0xf86c80850ba43b740082520894c47aaa860008be6f65b58c6c6e02a84e666efe31880735f4bbeccba0f0801ba0a7a538e73791b26958152b47e5b02db0642385280b2e07fe4c9f66838e482410a03cfac4846dc8eebcb29e4a7b11235e7be040d02ddc175fc52b6901f1322ec404",
      "networkId": 0,
      "chainId": 0
    }
  ]
}