{
  "hash": "0x7d29c0d4274e1e6442563f8086e0ba886e8e925e31e15aaee8dfbbfebde6f314",
  "parentHash": "0x699e813d47908701089fff53db5203ff8fa615503361e8ffab092ce8cf0dec46",
  "number": 51844,
  "timestamp": 1439012002,
  "nonce": "0x061cd6e931ea07d4",
  "difficulty": 1555071905899,
  "gasLimit": {
    "_hex": "0xe51c0"
  },
  "gasUsed": {
    "_hex": "0x5558"
  },
  "miner": "0x263EB998cf9131f3603cE4fbc0bd4817f878df36",
  "extraData": "0x476574682f76312e302e312f77696e646f77732f676f312e342e32",
  "transactions": [
    {
      "hash": "0x257a50d5b7a69299a630daacd6b84b2743e0cfc2d07a11d35e335356e6c8a5d5",
      "blockHash": "0x7d29c0d4274e1e6442563f8086e0ba886e8e925e31e15aaee8dfbbfebde6f314",
      "blockNumber": 51844,
      "transactionIndex": 0,
      "confirmations": null,
      "from": "0x3D0768da09CE77d25e2d998E6a7b6eD4b9116c2D",
      "gasPrice": {
        "_hex": "0xcc2a8c13e"
      },
      "gasLimit": {
        "_hex": "0x15f90"
      },
      "to": "0xc6d9d2cD449A754c494264e1809c50e34D64562b",
      "value": {
        "_hex": "0x0"
      },
      "nonce": 27,
      "data": "0x432ced046c696e6167656500000000000000000000000000000000000000000000000000",
      "r": "0x9678ad4ffec503de288ab7e2597ee740c1dc6b08b8d24ecc41b3fead97270b1e",
      "s": "0x6d38944c7ba7cefe0afa7bacc876115d6c375859e11c5f02066f1efef01195ab",
      "v": 27,
      "creates": null,
      "raw": "0xf8891b850cc2a8c13e83015f9094c6d9d2cd449a754c494264e1809c50e34d64562b80a4432ced046c696e61676565000000000000000000000000000000000000000000000000001ba09678ad4ffec503de288ab7e2597ee740c1dc6b08b8d24ecc41b3fead97270b1ea06d38944c7ba7cefe0afa7bacc876115d6c375859e11c5f02066f1efef01195ab",
      "networkId": 0,
      "chainId": 0
    }
  ]
}