{
  "hash": "0x5475d97685995f178539a36216dd0c27f7d18eb11bd839cd95f2117f8e3271e8",
  "parentHash": "0x99d774a6cbe865bc835cc2d3b5c8cbe39a7770b0a141d2f7b48fad3a83935580",
  "number": 113416,
  "timestamp": 1440023183,
  "nonce": "0xd73432c6b7e5b70e",
  "difficulty": 4462483066586,
  "gasLimit": {
    "_hex": "0x2fefd8"
  },
  "gasUsed": {
    "_hex": "0xa410"
  },
  "miner": "0xe6A7a1d47ff21B6321162AEA7C6CB457D5476Bca",
  "extraData": "0x476574682f76312e302e312d38326566323666362f6c696e75782f676f312e34",
  "transactions": [
    {
      "hash": "0x9cdb1b5cfb77bb7cc70aa73280c52d6680bc7d74d2a4acebea8c1a5097bdc63f",
      "blockHash": "0x5475d97685995f178539a36216dd0c27f7d18eb11bd839cd95f2117f8e3271e8",
      "blockNumber": 113416,
      "transactionIndex": 0,
      "confirmations": null,
      "from": "0xAa37b1200B856ce897a85b9C2b11a8213095Bf2a",
      "gasPrice": {
        "_hex": "0xdbaa408ff"
      },
      "gasLimit": {
        "_hex": "0x5208"
      },
      "to": "0x32Be343B94f860124dC4fEe278FDCBD38C102D88",
      "value": {
        "_hex": "0x173b3c68687478000"
      },
      "nonce": 3,
      "data": "0x",
      "r": "0x058778a9f00e83d1f3189e7106190e1b599e19d32b1fac071213b18be341104f",
      "s": "0x06d901b7244a2d0b820fa22f20b01cbae518c1cc5375df69a67e5376f17a8a6f",
      "v": 28,
      "creates": null,
      "raw": "0xf86d03850dbaa408ff8252089432be343b94f860124dc4fee278fdcbd38c102d88890173b3c68687478000801ca0058778a9f00e83d1f3189e7106190e1b599e19d32b1fac071213b18be341104fa006d901b7244a2d0b820fa22f20b01cbae518c1cc5375df69a67e5376f17a8a6f",
      "networkId": 0,
      "chainId": 0
    },
    {
      "hash": "0x8564082a69088d2427943e1ecd8a4ceb9439dfe1d1e24153a5dfa61eab067ad5",
      "blockHash": "0x5475d97685995f178539a36216dd0c27f7d18eb11bd839cd95f2117f8e3271e8",
      "blockNumber": 113416,
      "transactionIndex": 1,
      "confirmations": null,
      "from": "0xd9c13364c95E5f8e35d4bD4830e974a0652f83D8",
      "gasPrice": {
        "_hex": "0xdbaa408ff"
      },
      "gasLimit": {
        "_hex": "0x5208"
      },
      "to": "0x32Be343B94f860124dC4fEe278FDCBD38C102D88",
      "value": {
        "_hex": "0xd489312da749c00"
      },
      "nonce": 2,
      "data": "0x",
      "r": "0xd944e794b1447f34f2a707139d6ce2a47c5d2dcb5825de9a441ae0ac46acc799",
      "s": "0x2ce2c424cf53c4bdc42f8fdf360468826773fef9eb60b9e7e0cbc78b2dd4e3c2",
      "v": 27,
      "creates": null,
      "raw": "0xf86c02850dbaa408ff8252089432be343b94f860124dc4fee278fdcbd38c102d88880d489312da749c00801ba0d944e794b1447f34f2a707139d6ce2a47c5d2dcb5825de9a441ae0ac46acc799a02ce2c424cf53c4bdc42f8fdf360468826773fef9eb60b9e7e0cbc78b2dd4e3c2",
      "networkId": 0,
      "chainId": 0
    }
  ]
}