{
  "hash": "0x448c02a2633ffd5f14c5d2f799cf9bfc6da661319d3c9c955d26189ce0f62f81",
  "parentHash": "0xbb64e00268da52a81e26088a4bea00b99fdd2a7b2b31af7d1a7cb57073387bd0",
  "number": 120177,
  "timestamp": 1440155384,
  "nonce": "0xca20bd3be88ad1e8",
  "difficulty": 4404788947366,
  "gasLimit": {
    "_hex": "0x2fefd8"
  },
  "gasUsed": {
    "_hex": "0x5208"
  },
  "miner": "0xe6A7a1d47ff21B6321162AEA7C6CB457D5476Bca",
  "extraData": "0xd783010002844765746887676f312e342e32856c696e7578",
  "transactions": [
    {
      "hash": "0x3350d59f4974bd637f5e579a8bdbdc4c06b567c8f4dd3b1a653a8079147d64f2",
      "blockHash": "0x448c02a2633ffd5f14c5d2f799cf9bfc6da661319d3c9c955d26189ce0f62f81",
      "blockNumber": 120177,
      "transactionIndex": 0,
      "confirmations": null,
      "from": "0x55192e9eEF50b024e6800e4657590f33D1070545",
      "gasPrice": {
        "_hex": "0xba43b7400"
      },
      "gasLimit": {
        "_hex": "0x5208"
      },
      "to": "0x32Be343B94f860124dC4fEe278FDCBD38C102D88",
      "value": {
        "_hex": "0x22b18d119fa9c6000"
      },
      "nonce": 4,
      "data": "0x",
      "r": "0x26984ef37894af1bc3ff34c437727350e224ab827529330965e3d7afc70464ba",
      "s": "0x6db71ac8b364f6cd0c0c3696dcd191a3a7008cfaf356425faf3cff638685dec8",
      "v": 28,
      "creates": null,
      "raw": "0xf86d04850ba43b74008252089432be343b94f860124dc4fee278fdcbd38c102d8889022b18d119fa9c6000801ca026984ef37894af1bc3ff34c437727350e224ab827529330965e3d7afc70464baa06db71ac8b364f6cd0c0c3696dcd191a3a7008cfaf356425faf3cff638685dec8",
      "networkId": 0,
      "chainId": 0
    }
  ]
}