{
  "hash": "0xefb8fd05889ac3676d918fe90b3eda4f294477db59fac78f1076e3257ccd7378",
  "parentHash": "0xfe923bda267275d3dcaf06f77bd5757b4f0c57a55bcb1e15e60cf5a3e9d5052b",
  "number": 47568,
  "timestamp": 1438942959,
  "nonce": "0x4f9edd06db9a542b",
  "difficulty": 1445982949262,
  "gasLimit": {
    "_hex": "0xd0ec"
  },
  "gasUsed": {
    "_hex": "0x546c"
  },
  "miner": "0x5F8F73E26CdF436f19Cb24C82F90A15AFe55b592",
  "extraData": "0x476574682f76312e302e312f77696e646f77732f676f312e342e32",
  "transactions": [
    {
      "hash": "0x71c76ed3e0f049c780f2eae390f4b20c948989332aa36fb669b0cc9f82923929",
      "blockHash": "0xefb8fd05889ac3676d918fe90b3eda4f294477db59fac78f1076e3257ccd7378",
      "blockNumber": 47568,
      "transactionIndex": 0,
      "confirmations": null,
      "from": "0xe08Bc29c2B48b169ff2bDc16714C586e6cB85CcF",
      "gasPrice": {
        "_hex": "0x1948745482"
      },
      "gasLimit": {
        "_hex": "0x9c40"
      },
      "to": "0x2910543Af39abA0Cd09dBb2D50200b3E800A63D2",
      "value": {
        "_hex": "0xea88dc75c01a0000"
      },
      "nonce": 1,
      "data": "0x454e34433248304a30",
      "r": "0xc9b81d3a5d6d5958c6cb131ed61d5d0e5dff49412189e4d872fcc83e03b4b5db",
      "s": "0x6a0de382f1d192bbe2ea8cf932092f53f49c9a8231f03c31ec1cf3a0329611e7",
      "v": 28,
      "creates": null,
      "raw": "0xf87501851948745482829c40942910543af39aba0cd09dbb2d50200b3e800a63d288ea88dc75c01a000089454e34433248304a301ca0c9b81d3a5d6d5958c6cb131ed61d5d0e5dff49412189e4d872fcc83e03b4b5dba06a0de382f1d192bbe2ea8cf932092f53f49c9a8231f03c31ec1cf3a0329611e7",
      "networkId": 0,
      "chainId": 0
    }
  ]
}