{
  "hash": "0xda468041ad2222c45a69dae14ebf93d701be5fdee6ea9c801cf2a2ff80024234",
  "parentHash": "0x303cde1669784be06fb15c0602bbaf1dd753917e946b4c8125e785008aee96a9",
  "number": 69594,
  "timestamp": 1439306502,
  "nonce": "0x648e9f694aadab10",
  "difficulty": 2077983665014,
  "gasLimit": {
    "_hex": "0x2fefd8"
  },
  "gasUsed": {
    "_hex": "0x5208"
  },
  "miner": "0x0eDEd3DA479d0beF8eeC92A76644D3f4E3C177f7",
  "extraData": "0x476574682f76312e302e312f6c696e75782f676f312e342e32",
  "transactions": [
    {
      "hash": "0x73f13d7ff4c610c2e3c496ecda8f3aff9bfa9622d1077f253f2a090f3b308287",
      "blockHash": "0xda468041ad2222c45a69dae14ebf93d701be5fdee6ea9c801cf2a2ff80024234",
      "blockNumber": 69594,
      "transactionIndex": 0,
      "confirmations": null,
      "from": "0x1B636B7A496f044d7359596e353A104616436F6b",
      "gasPrice": {
        "_hex": "0xcd01555c5"
      },
      "gasLimit": {
        "_hex": "0x5208"
      },
      "to": "0xB83b76f35cF6b2149B34Ee092B3Fc93b7Bb54A8D",
      "value": {
        "_hex": "0x42b5735836b4b0000"
      },
      "nonce": 1,
      "data": "0x",
      "r": "0x88c1a1204d64f401be8e27e47c399737e27513ce63d2086a8d3882b31b374b4c",
      "s": "0x3a49c4f28f862f1b69f5730823c8fe14275fec2141b8a1abccc12bc393940aae",
      "v": 27,
      "creates": null,
      "raw": "0xf86d01850cd01555c582520894b83b76f35cf6b2149b34ee092b3fc93b7bb54a8d89042b5735836b4b0000801ba088c1a1204d64f401be8e27e47c399737e27513ce63d2086a8d3882b31b374b4ca03a49c4f28f862f1b69f5730823c8fe14275fec2141b8a1abccc12bc393940aae",
      "networkId": 0,
      "chainId": 0
    }
  ]
}