{
  "hash": "0xd30b090bed2cf14d001b4b676471fe745f55b1b33dcec39c2548ab1884c66ff0",
  "parentHash": "0x93df5197d92f8c00b0d1fa2f08bd9fcf75a00db54bf48abb6aef7602e0420f19",
  "number": 89778,
  "timestamp": 1439628863,
  "nonce": "0x7f6c10128e316877",
  "difficulty": 3345136747690,
  "gasLimit": {
    "_hex": "0x2fefd8"
  },
  "gasUsed": {
    "_hex": "0x38658"
  },
  "miner": "0x88D74a59454F6cF3B51ef6b9136AFb6b9D405A88",
  "extraData": "0x476574682f76312e302e312d37666266393930632f6c696e75782f676f312e34",
  "transactions": [
    {
      "hash": "0x90e3f9c2d4f2ef15ca608274920c2203008f8f3663491f8a49a9804cdb03e193",
      "blockHash": "0xd30b090bed2cf14d001b4b676471fe745f55b1b33dcec39c2548ab1884c66ff0",
      "blockNumber": 89778,
      "transactionIndex": 0,
      "confirmations": null,
      "from": "0xe6A7a1d47ff21B6321162AEA7C6CB457D5476Bca",
      "gasPrice": {
        "_hex": "0xdac4a6e8b"
      },
      "gasLimit": {
        "_hex": "0x55f0"
      },
      "to": "0x248aCc54C440214585155Ba4fe5c9706Fb234061",
      "value": {
        "_hex": "0x28854476c8a661d0"
      },
      "nonce": 2074,
      "data": "0x",
      "r": "0x9764bcafa1692f10274a5006636e0f64621bcb6405c3e96e7d4d14f6f6aa7e19",
      "s": "0x1ee7b4e349860c29f039a799eeb0356cccd1e082bddb5436f383d21bb8930c05",
      "v": 27,
      "creates": null,
      "raw": "0xf86e82081a850dac4a6e8b8255f094248acc54c440214585155ba4fe5c9706fb2340618828854476c8a661d0801ba09764bcafa1692f10274a5006636e0f64621bcb6405c3e96e7d4d14f6f6aa7e19a01ee7b4e349860c29f039a799eeb0356cccd1e082bddb5436f383d21bb8930c05",
      "networkId": 0,
      "chainId": 0
    },
    {
      "hash": "0x9c2cb416da14428ce440738135297e38982615fd2fee9263a51449a338c22fee",
      "blockHash": "0xd30b090bed2cf14d001b4b676471fe745f55b1b33dcec39c2548ab1884c66ff0",
      "blockNumber": 89778,
      "transactionIndex": 1,
      "confirmations": null,
      "from": "0xe6A7a1d47ff21B6321162AEA7C6CB457D5476Bca",
      "gasPrice": {
        "_hex": "0xdac4a6e8b"
      },
      "gasLimit": {
        "_hex": "0x55f0"
      },
      "to": "0x7871C9936A21B89507B5B65C7B13d8216D832D76",
      "value": {
        "_hex": "0x2886623faee86418"
      },
      "nonce": 2075,
      "data": "0x",
      "r": "0x7ad44a3618596314176809a6bad90880b1c25ec44ae485533a775a2594ebb6ca",
      "s": "0x44ec961c33f2fb35b45c9745539873aad511aa606323380e62120d8481e86224",
      "v": 27,
      "creates": null,
      "raw": "0xf86e82081b850dac4a6e8b8255f0947871c9936a21b89507b5b65c7b13d8216d832d76882886623faee86418801ba07ad44a3618596314176809a6bad90880b1c25ec44ae485533a775a2594ebb6caa044ec961c33f2fb35b45c9745539873aad511aa606323380e62120d8481e86224",
      "networkId": 0,
      "chainId": 0
    },
    {
      "hash": "0xa787d685aea59b4f6497f0156b7aa7ce333c4131fcd6bf851bc1b921d64b0ed9",
      "blockHash": "0xd30b090bed2cf14d001b4b676471fe745f55b1b33dcec39c2548ab1884c66ff0",
      "blockNumber": 89778,
      "transactionIndex": 2,
      "confirmations": null,
      "from": "0xe6A7a1d47ff21B6321162AEA7C6CB457D5476Bca",
      "gasPrice": {
        "_hex": "0xdac4a6e8b"
      },
      "gasLimit": {
        "_hex": "0x55f0"
      },
      "to": "0x0094B66634dc6758951e5900ec3F4Bcc7597C062",
      "value": {
        "_hex": "0x28c50fee440d0c0c"
      },
      "nonce": 2076,
      "data": "0x",
      "r": "0xa84e6b2547f925e005fec5debc9dcef2aca3385786506efe9aadd71d5e63f992",
      "s": "0x4522ee5e08488a49682b0a72212fccf2c35117c05b32939174a5c3f10e3542e6",
      "v": 28,
      "creates": null,
      "raw": "0xf86e82081c850dac4a6e8b8255f0940094b66634dc6758951e5900ec3f4bcc7597c0628828c50fee440d0c0c801ca0a84e6b2547f925e005fec5debc9dcef2aca3385786506efe9aadd71d5e63f992a04522ee5e08488a49682b0a72212fccf2c35117c05b32939174a5c3f10e3542e6",
      "networkId": 0,
      "chainId": 0
    },
    {
      "hash": "0x54e16a57b8ddf51b7ebee1e61d73f690dc4c30b10c3a42d8af5ff445d5f6fea7",
      "blockHash": "0xd30b090bed2cf14d001b4b676471fe745f55b1b33dcec39c2548ab1884c66ff0",
      "blockNumber": 89778,
      "transactionIndex": 3,
      "confirmations": null,
      "from": "0xe6A7a1d47ff21B6321162AEA7C6CB457D5476Bca",
      "gasPrice": {
        "_hex": "0xdac4a6e8b"
      },
      "gasLimit": {
        "_hex": "0x55f0"
      },
      "to": "0x9b355684808ca9e726eF39815B61922599c7FaB6",
      "value": {
        "_hex": "0x2922290333b6c768"
      },
      "nonce": 2077,
      "data": "0x",
      "r": "0x99016c924bca2f9d8bacee3b32d44647d54de2f6bf64b138c9f53ab83e9fcaaf",
      "s": "0x29e2501bfc2c4747b7ff8a3c3bd9e5f6fc3905f6a8f19b067b509bf7d1163907",
      "v": 28,
      "creates": null,
      "raw": "0xf86e82081d850dac4a6e8b8255f0949b355684808ca9e726ef39815b61922599c7fab6882922290333b6c768801ca099016c924bca2f9d8bacee3b32d44647d54de2f6bf64b138c9f53ab83e9fcaafa029e2501bfc2c4747b7ff8a3c3bd9e5f6fc3905f6a8f19b067b509bf7d1163907",
      "networkId": 0,
      "chainId": 0
    },
    {
      "hash": "0x7781c9067064dd31a4f297e3f7950d3fe3c3d416bb5b083dd16ab937c11544bd",
      "blockHash": "0xd30b090bed2cf14d001b4b676471fe745f55b1b33dcec39c2548ab1884c66ff0",
      "blockNumber": 89778,
      "transactionIndex": 4,
      "confirmations": null,
      "from": "0xe6A7a1d47ff21B6321162AEA7C6CB457D5476Bca",
      "gasPrice": {
        "_hex": "0xdac4a6e8b"
      },
      "gasLimit": {
        "_hex": "0x55f0"
      },
      "to": "0x47fe9Ce29dA03E8466a067e4321fD32312e39607",
      "value": {
        "_hex": "0x294eb2f8dc666098"
      },
      "nonce": 2078,
      "data": "0x",
      "r": "0x90ee46c9a168515394e3b76c9dfcca3d1f7e5b1cbb0de1d555ac5c98cfca886e",
      "s": "0x2c742a78c48e8a8cb6889699fef395e1af20e5069930a10bd272671d2573a6bd",
      "v": 27,
      "creates": null,
      "raw": "0xf86e82081e850dac4a6e8b8255f09447fe9ce29da03e8466a067e4321fd32312e3960788294eb2f8dc666098801ba090ee46c9a168515394e3b76c9dfcca3d1f7e5b1cbb0de1d555ac5c98cfca886ea02c742a78c48e8a8cb6889699fef395e1af20e5069930a10bd272671d2573a6bd",
      "networkId": 0,
      "chainId": 0
    },
    {
      "hash": "0xb12f32f3d8c4902820cbe8acd2dedb9519909a0b5abe3c7b9507b134f3d4d91b",
      "blockHash": "0xd30b090bed2cf14d001b4b676471fe745f55b1b33dcec39c2548ab1884c66ff0",
      "blockNumber": 89778,
      "transactionIndex": 5,
      "confirmations": null,
      "from": "0xe6A7a1d47ff21B6321162AEA7C6CB457D5476Bca",
      "gasPrice": {
        "_hex": "0xdac4a6e8b"
      },
      "gasLimit": {
        "_hex": "0x55f0"
      },
      "to": "0x237213131Cf2e4027D4E8Bb293379823874a16fD",
      "value": {
        "_hex": "0x297c8a33cdf79a00"
      },
      "nonce": 2079,
      "data": "0x",
      "r": "0xcbb86673278eb366ea743250f65e35252251328a1cc1a1396c920e7454faa700",
      "s": "0x2745a4506f289cbd7eb24934ef91e2cda27af09b2aade0e9d89a8bf0047aff07",
      "v": 27,
      "creates": null,
      "raw": "0xf86e82081f850dac4a6e8b8255f094237213131cf2e4027d4e8bb293379823874a16fd88297c8a33cdf79a00801ba0cbb86673278eb366ea743250f65e35252251328a1cc1a1396c920e7454faa700a02745a4506f289cbd7eb24934ef91e2cda27af09b2aade0e9d89a8bf0047aff07",
      "networkId": 0,
      "chainId": 0
    },
    {
      "hash": "0xc31afe294e3cfbefaab03358e468c936da79972c9efeecd1f37b09d7d8f22ba7",
      "blockHash": "0xd30b090bed2cf14d001b4b676471fe745f55b1b33dcec39c2548ab1884c66ff0",
      "blockNumber": 89778,
      "transactionIndex": 6,
      "confirmations": null,
      "from": "0xe6A7a1d47ff21B6321162AEA7C6CB457D5476Bca",
      "gasPrice": {
        "_hex": "0xdac4a6e8b"
      },
      "gasLimit": {
        "_hex": "0x55f0"
      },
      "to": "0x3125489a20C268f9Bc735f8e0909d21aa7c098fD",
      "value": {
        "_hex": "0x29a1631d4ada8fa0"
      },
      "nonce": 2080,
      "data": "0x",
      "r": "0xe9d1a467a684ecfa3d94e1db788f741e79a77c1da6119c1256b4d078b416d0e2",
      "s": "0x5244626b393e79bf0eb35576873bce640cc1256794b0c828bf09c9a69ca47dbd",
      "v": 28,
      "creates": null,
      "raw": "0xf86e820820850dac4a6e8b8255f0943125489a20c268f9bc735f8e0909d21aa7c098fd8829a1631d4ada8fa0801ca0e9d1a467a684ecfa3d94e1db788f741e79a77c1da6119c1256b4d078b416d0e2a05244626b393e79bf0eb35576873bce640cc1256794b0c828bf09c9a69ca47dbd",
      "networkId": 0,
      "chainId": 0
    },
    {
      "hash": "0xaaac1f71516144c6071661e1d0a525e00b1dc211c46b679c7943e7af5530a6e9",
      "blockHash": "0xd30b090bed2cf14d001b4b676471fe745f55b1b33dcec39c2548ab1884c66ff0",
      "blockNumber": 89778,
      "transactionIndex": 7,
      "confirmations": null,
      "from": "0xe6A7a1d47ff21B6321162AEA7C6CB457D5476Bca",
      "gasPrice": {
        "_hex": "0xdac4a6e8b"
      },
      "gasLimit": {
        "_hex": "0x55f0"
      },
      "to": "0x8C93d2F70d641AC1F4cCc3287E2A1376Ce3c7DCC",
      "value": {
        "_hex": "0x29de80a749b56b38"
      },
      "nonce": 2081,
      "data": "0x",
      "r": "0xb2b02542266c000cf0c47830189ed4b6f03e12f496f0851f67eebb0ec228c523",
      "s": "0x4fe36962c46a5ff2318a0f56a219870d49af4a09b9d279f4098d9f579b2057a8",
      "v": 27,
      "creates": null,
      "raw": "0xf86e820821850dac4a6e8b8255f0948c93d2f70d641ac1f4ccc3287e2a1376ce3c7dcc8829de80a749b56b38801ba0b2b02542266c000cf0c47830189ed4b6f03e12f496f0851f67eebb0ec228c523a04fe36962c46a5ff2318a0f56a219870d49af4a09b9d279f4098d9f579b2057a8",
      "networkId": 0,
      "chainId": 0
    },
    {
      "hash": "0x376bcdd00889859504f32e768806817d5c2afd505e0ecdf08e5a5854fb883dac",
      "blockHash": "0xd30b090bed2cf14d001b4b676471fe745f55b1b33dcec39c2548ab1884c66ff0",
      "blockNumber": 89778,
      "transactionIndex": 8,
      "confirmations": null,
      "from": "0xe6A7a1d47ff21B6321162AEA7C6CB457D5476Bca",
      "gasPrice": {
        "_hex": "0xdac4a6e8b"
      },
      "gasLimit": {
        "_hex": "0x55f0"
      },
      "to": "0x9900467341E2d122D382794f203a0Fa60f42e508",
      "value": {
        "_hex": "0x29f5687678e7ec78"
      },
      "nonce": 2082,
      "data": "0x",
      "r": "0x69816fcc08c4a8726a8a4765d0f895bf90432e1fbb11cb45bd65c02b90cb8328",
      "s": "0x11f4531f46d557c8da1efa996868b0ab5c90c79bbec41554a947ee70a899e5f1",
      "v": 27,
      "creates": null,
      "raw": "0xf86e820822850dac4a6e8b8255f0949900467341e2d122d382794f203a0fa60f42e5088829f5687678e7ec78801ba069816fcc08c4a8726a8a4765d0f895bf90432e1fbb11cb45bd65c02b90cb8328a011f4531f46d557c8da1efa996868b0ab5c90c79bbec41554a947ee70a899e5f1",
      "networkId": 0,
      "chainId": 0
    },
    {
      "hash": "0x0f6e385ffd81d560b12ce2d38073ba7f5969f1e4230332a2c7af7f26dd6d85ff",
      "blockHash": "0xd30b090bed2cf14d001b4b676471fe745f55b1b33dcec39c2548ab1884c66ff0",
      "blockNumber": 89778,
      "transactionIndex": 9,
      "confirmations": null,
      "from": "0xe6A7a1d47ff21B6321162AEA7C6CB457D5476Bca",
      "gasPrice": {
        "_hex": "0xdac4a6e8b"
      },
      "gasLimit": {
        "_hex": "0x55f0"
      },
      "to": "0xabF56d5ca441eCAD5979023Ec368b74a8d662d95",
      "value": {
        "_hex": "0x2a70d226e5544dd0"
      },
      "nonce": 2083,
      "data": "0x",
      "r": "0x01624cd3cbd1364718de213da6b21c3241e3e498b12f6d912ca9ef5b8bbd59e6",
      "s": "0x326f7c88f00171381581e99b48d380b6f297e7cc7bc772bee416d2c09c81082b",
      "v": 28,
      "creates": null,
      "raw": "0xf86e820823850dac4a6e8b8255f094abf56d5ca441ecad5979023ec368b74a8d662d95882a70d226e5544dd0801ca001624cd3cbd1364718de213da6b21c3241e3e498b12f6d912ca9ef5b8bbd59e6a0326f7c88f00171381581e99b48d380b6f297e7cc7bc772bee416d2c09c81082b",
      "networkId": 0,
      "chainId": 0
    },
    {
      "hash": "0xd5f3973d50ffd5f81b26c4c8141e1cf0cdb7af4d825e8ac1d2fd372e89b35c67",
      "blockHash": "0xd30b090bed2cf14d001b4b676471fe745f55b1b33dcec39c2548ab1884c66ff0",
      "blockNumber": 89778,
      "transactionIndex": 10,
      "confirmations": null,
      "from": "0xe6A7a1d47ff21B6321162AEA7C6CB457D5476Bca",
      "gasPrice": {
        "_hex": "0xdac4a6e8b"
      },
      "gasLimit": {
        "_hex": "0x55f0"
      },
      "to": "0xaFF2628417768132E1d04f605Fe1e797f2ECA3F8",
      "value": {
        "_hex": "0x2a8e34c9569c7b08"
      },
      "nonce": 2084,
      "data": "0x",
      "r": "0x1570ca3a19b462a7935f979855fc74bd0fc2c16febe21d749a68130a56115a45",
      "s": "0x2a7e9ee6de5547ae4b356b4bd132e014b7dfd6430e3b6635cf1b60872c5e3a40",
      "v": 28,
      "creates": null,
      "raw": "0xf86e820824850dac4a6e8b8255f094aff2628417768132e1d04f605fe1e797f2eca3f8882a8e34c9569c7b08801ca01570ca3a19b462a7935f979855fc74bd0fc2c16febe21d749a68130a56115a45a02a7e9ee6de5547ae4b356b4bd132e014b7dfd6430e3b6635cf1b60872c5e3a40",
      "networkId": 0,
      "chainId": 0
    }
  ]
}