{
  "hash": "0x4e6ba249ae251290a7279eff4b2a933e84da5b74dcbe84270012edae26d1f613",
  "parentHash": "0x0406cc4098bb0df043525c697ee138e6059e970aedf1c500f14531a10d1fefac",
  "number": 117905,
  "timestamp": 1440117286,
  "nonce": "0x9e75735d1eb8a01f",
  "difficulty": 4350400353732,
  "gasLimit": {
    "_hex": "0x2fefd8"
  },
  "gasUsed": {
    "_hex": "0xf618"
  },
  "miner": "0xe6A7a1d47ff21B6321162AEA7C6CB457D5476Bca",
  "extraData": "0xd783010002844765746887676f312e342e32856c696e7578",
  "transactions": [
    {
      "hash": "0x0c42d1dadebe1a78cff3c44b5fc8c3bc5643c9bc6f7ae0b3a1417b885d9a7551",
      "blockHash": "0x4e6ba249ae251290a7279eff4b2a933e84da5b74dcbe84270012edae26d1f613",
      "blockNumber": 117905,
      "transactionIndex": 0,
      "confirmations": null,
      "from": "0x19d1f826fce0c97733e0202eFCCc4A5608e8Eb6d",
      "gasPrice": {
        "_hex": "0xba43b7400"
      },
      "gasLimit": {
        "_hex": "0x5208"
      },
      "to": "0x32Be343B94f860124dC4fEe278FDCBD38C102D88",
      "value": {
        "_hex": "0xaeba82fcac327000"
      },
      "nonce": 8,
      "data": "0x",
      "r": "0x1e52fc0c599ae19a07a981c92d035dcc51b5a639ce576b9fb40f5bdccab00374",
      "s": "0x232fad0e723e76b175a21687c7657d6c83e0268ca0c30cad2c44474d55d1fc27",
      "v": 28,
      "creates": null,
      "raw": "0xf86c08850ba43b74008252089432be343b94f860124dc4fee278fdcbd38c102d8888aeba82fcac327000801ca01e52fc0c599ae19a07a981c92d035dcc51b5a639ce576b9fb40f5bdccab00374a0232fad0e723e76b175a21687c7657d6c83e0268ca0c30cad2c44474d55d1fc27",
      "networkId": 0,
      "chainId": 0
    },
    {
      "hash": "0xe41b8cc81518d6e952982e76e7e62c99c904ad2efdc75d66c648ed1beeeaa9b3",
      "blockHash": "0x4e6ba249ae251290a7279eff4b2a933e84da5b74dcbe84270012edae26d1f613",
      "blockNumber": 117905,
      "transactionIndex": 1,
      "confirmations": null,
      "from": "0x7B578F673507975447C714DF2bdCd15801fe30Fe",
      "gasPrice": {
        "_hex": "0xba43b7400"
      },
      "gasLimit": {
        "_hex": "0x5208"
      },
      "to": "0x32Be343B94f860124dC4fEe278FDCBD38C102D88",
      "value": {
        "_hex": "0x1814c8edc60c9000"
      },
      "nonce": 6,
      "data": "0x",
      "r": "0x2f4f9aedc8a5b68bc7aef7eda399a1d67e7948b7e95c4a0f17cf952272884451",
      "s": "0x0031bc239756e740163e93e3bda4b52e4db8f4f8fad168bed6b60257d72ef6a0",
      "v": 27,
      "creates": null,
      "raw": "0xf86b06850ba43b74008252089432be343b94f860124dc4fee278fdcbd38c102d88881814c8edc60c9000801ba02f4f9aedc8a5b68bc7aef7eda399a1d67e7948b7e95c4a0f17cf9522728844519f31bc239756e740163e93e3bda4b52e4db8f4f8fad168bed6b60257d72ef6a0",
      "networkId": 0,
      "chainId": 0
    },
    {
      "hash": "0x486d29d345d59942d32aed75af3d9f095d85e706108ebc81e6ce5d14ff928d4d",
      "blockHash": "0x4e6ba249ae251290a7279eff4b2a933e84da5b74dcbe84270012edae26d1f613",
      "blockNumber": 117905,
      "transactionIndex": 2,
      "confirmations": null,
      "from": "0x13258A1Aa418C990ce59616C26338A44899d854c",
      "gasPrice": {
        "_hex": "0xba43b7400"
      },
      "gasLimit": {
        "_hex": "0x5208"
      },
      "to": "0x32Be343B94f860124dC4fEe278FDCBD38C102D88",
      "value": {
        "_hex": "0x54c6bc68218a7800"
      },
      "nonce": 8,
      "data": "0x",
      "r": "0x9c0c9728218f8d0ae5fb04fa936ac5317035a7b9ea81c5d32fa1c876b7841bce",
      "s": "0x5b8d163bcf2f28f18fb677d187d81e46373c7156903763451f767937c4b0738f",
      "v": 27,
      "creates": null,
      "raw": "0xf86c08850ba43b74008252089432be343b94f860124dc4fee278fdcbd38c102d888854c6bc68218a7800801ba09c0c9728218f8d0ae5fb04fa936ac5317035a7b9ea81c5d32fa1c876b7841bcea05b8d163bcf2f28f18fb677d187d81e46373c7156903763451f767937c4b0738f",
      "networkId": 0,
      "chainId": 0
    }
  ]
}