{
  "hash": "0xdf3bab70d1da4df480cfaf8daaf0ea44149ea776a7fc255dcad3c01bde0aac3b",
  "parentHash": "0x7c384e5445f78bea0147b3f5be20d04c47d74282a26438b0315c2a652c2c2448",
  "number": 60318,
  "timestamp": 1439153409,
  "nonce": "0xa897305cd139c2ca",
  "difficulty": 1746649036352,
  "gasLimit": {
    "_hex": "0x2fefd8"
  },
  "gasUsed": {
    "_hex": "0xf618"
  },
  "miner": "0x5F8F73E26CdF436f19Cb24C82F90A15AFe55b592",
  "extraData": "0x476574682f76312e302e312f77696e646f77732f676f312e342e32",
  "transactions": [
    {
      "hash": "0xa98c51f260fe247dae3ad1fd6308d3aeea7f25c25967321c8f3a8f87e297fb96",
      "blockHash": "0xdf3bab70d1da4df480cfaf8daaf0ea44149ea776a7fc255dcad3c01bde0aac3b",
      "blockNumber": 60318,
      "transactionIndex": 0,
      "confirmations": null,
      "from": "0x2910543Af39abA0Cd09dBb2D50200b3E800A63D2",
      "gasPrice": {
        "_hex": "0xdebee12ea"
      },
      "gasLimit": {
        "_hex": "0x5208"
      },
      "to": "0xE8CfAf09a32020eF1C065904a244b4dD6E7C69c6",
      "value": {
        "_hex": "0x5bad01280fee98000"
      },
      "nonce": 23,
      "data": "0x",
      "r": "0x7723c4f3d56dcb324aad26a1179684964bd0dfefde3fd35e3700cff57b54ac41",
      "s": "0x42b2e123c304d33479b91f2de97e57f1ed0db534a485be13ca66dde7988792fe",
      "v": 27,
      "creates": null,
      "raw": "0xf86d17850debee12ea82520894e8cfaf09a32020ef1c065904a244b4dd6e7c69c68905bad01280fee98000801ba07723c4f3d56dcb324aad26a1179684964bd0dfefde3fd35e3700cff57b54ac41a042b2e123c304d33479b91f2de97e57f1ed0db534a485be13ca66dde7988792fe",
      "networkId": 0,
      "chainId": 0
    },
    {
      "hash": "0x1a218ce20438dfc54c61d2f2d59346cb93a08db875d9666736fb3def6b14d939",
      "blockHash": "0xdf3bab70d1da4df480cfaf8daaf0ea44149ea776a7fc255dcad3c01bde0aac3b",
      "blockNumber": 60318,
      "transactionIndex": 1,
      "confirmations": null,
      "from": "0x2910543Af39abA0Cd09dBb2D50200b3E800A63D2",
      "gasPrice": {
        "_hex": "0xdebee12ea"
      },
      "gasLimit": {
        "_hex": "0x5208"
      },
      "to": "0x2B85069Da7a89A01430F4C5EfAb311ab681aAe8a",
      "value": {
        "_hex": "0xdcef33a6f838000"
      },
      "nonce": 24,
      "data": "0x",
      "r": "0x4f8867ea15e83dd93aa7f994ba7fc2f1dcbc6373a2d30605bed6b271bb323217",
      "s": "0x526381621c928a90b0392953c356c0929aa1bef4bf89c29478f93b0e1639235e",
      "v": 27,
      "creates": null,
      "raw": "0xf86c18850debee12ea825208942b85069da7a89a01430f4c5efab311ab681aae8a880dcef33a6f838000801ba04f8867ea15e83dd93aa7f994ba7fc2f1dcbc6373a2d30605bed6b271bb323217a0526381621c928a90b0392953c356c0929aa1bef4bf89c29478f93b0e1639235e",
      "networkId": 0,
      "chainId": 0
    },
    {
      "hash": "0xd193d8d9e10910fb638ed63d69d3ff3394381cc5e666f31f24a7cab7beaf2037",
      "blockHash": "0xdf3bab70d1da4df480cfaf8daaf0ea44149ea776a7fc255dcad3c01bde0aac3b",
      "blockNumber": 60318,
      "transactionIndex": 2,
      "confirmations": null,
      "from": "0x2910543Af39abA0Cd09dBb2D50200b3E800A63D2",
      "gasPrice": {
        "_hex": "0xdebee12ea"
      },
      "gasLimit": {
        "_hex": "0x5208"
      },
      "to": "0xc384Ac6ee27C39E2F278C220BDfA5BAeD626D9d3",
      "value": {
        "_hex": "0x1b16d942469dbbe000"
      },
      "nonce": 25,
      "data": "0x",
      "r": "0x25030908a1f0d0c62c4ee919078c8ef4e423d39bdd340c4d15980bc38b1ae41b",
      "s": "0x340a3e45a1c87f9a1479606927bc567b18aa19bd14d16c881c5bf6200bc94a76",
      "v": 27,
      "creates": null,
      "raw": "0xf86d19850debee12ea82520894c384ac6ee27c39e2f278c220bdfa5baed626d9d3891b16d942469dbbe000801ba025030908a1f0d0c62c4ee919078c8ef4e423d39bdd340c4d15980bc38b1ae41ba0340a3e45a1c87f9a1479606927bc567b18aa19bd14d16c881c5bf6200bc94a76",
      "networkId": 0,
      "chainId": 0
    }
  ]
}