{
  "hash": "0xd11ac03a3de17d98d7264ea2f079af1f179867200294d0df76cf8fa4b42cdc1f",
  "parentHash": "0x0dafb4e82928e231f61811b969957d7e3c6f5618331361833771fbc83259ea97",
  "number": 95226,
  "timestamp": 1439720977,
  "nonce": "0x399ace2a81e4af94",
  "difficulty": 3541234211621,
  "gasLimit": {
    "_hex": "0x2fefd8"
  },
  "gasUsed": {
    "_hex": "0x5d9f"
  },
  "miner": "0xe6A7a1d47ff21B6321162AEA7C6CB457D5476Bca",
  "extraData": "0x476574682f76312e302e312d38326566323666362f6c696e75782f676f312e34",
  "transactions": [
    {
      "hash": "0x7979f6f1926ec17868427bbc6e3c2aca510695bda8d83eb056388b78ee15fd43",
      "blockHash": "0xd11ac03a3de17d98d7264ea2f079af1f179867200294d0df76cf8fa4b42cdc1f",
      "blockNumber": 95226,
      "transactionIndex": 0,
      "confirmations": null,
      "from": "0x83dbFD8eDA01d0dE8E158B16d0935fC2380A5DC7",
      "gasPrice": {
        "_hex": "0xdd96d2c57"
      },
      "gasLimit": {
        "_hex": "0x15f90"
      },
      "to": "0xCAc7000C7dBaa2E33Af15325AF5D435E011C7BdD",
      "value": {
        "_hex": "0x208688ae1de29f0000"
      },
      "nonce": 0,
      "data": "0xb214faa54b34565850354351480000000000000000000000000000000000000000000000",
      "r": "0x637b8d9ed94629c432b3b70a67c57e24defb120b0bde82621519d862cfa5f66e",
      "s": "0x7c25cf78f39dac0b94519edbe3ac4dd7c618ab8f370c07411d253c990901c44c",
      "v": 27,
      "creates": null,
      "raw": "0xf89280850dd96d2c5783015f9094cac7000c7dbaa2e33af15325af5d435e011c7bdd89208688ae1de29f0000a4b214faa54b345658503543514800000000000000000000000000000000000000000000001ba0637b8d9ed94629c432b3b70a67c57e24defb120b0bde82621519d862cfa5f66ea07c25cf78f39dac0b94519edbe3ac4dd7c618ab8f370c07411d253c990901c44c",
      "networkId": 0,
      "chainId": 0
    }
  ]
}