{
  "hash": "0xf203897c42df04f8b5c391488782fff01b1f636ae0e14a4829abe9be993abf9b",
  "parentHash": "0x18bd150ee6e4f7544c3bc399d2c87ee1f2ae51688c8af4d6982086cf80005b1f",
  "number": 48506,
  "timestamp": 1438958293,
  "nonce": "0xaf4801af402586d7",
  "difficulty": 1462864155888,
  "gasLimit": {
    "_hex": "0x18669"
  },
  "gasUsed": {
    "_hex": "0x5208"
  },
  "miner": "0x8B454d830feF179e66206840F8F3D1d83bC32b17",
  "extraData": "0x476574682f76312e302e312f77696e646f77732f676f312e342e32",
  "transactions": [
    {
      "hash": "0xc34e346629b0fe9d22cfbfb6125d5507711e1a1c8dc0104a019334845a4dfb04",
      "blockHash": "0xf203897c42df04f8b5c391488782fff01b1f636ae0e14a4829abe9be993abf9b",
      "blockNumber": 48506,
      "transactionIndex": 0,
      "confirmations": null,
      "from": "0x54540D4F99b1E80424189E7626cE8f7A1735C0C3",
      "gasPrice": {
        "_hex": "0xd0be18190"
      },
      "gasLimit": {
        "_hex": "0x15f90"
      },
      "to": "0x15674e39f68d518367ECDd22cB73534Cb74bDC28",
      "value": {
        "_hex": "0xde0b6b3a7640000"
      },
      "nonce": 0,
      "data": "0x",
      "r": "0x8befe3624e70718220f8f9bf9da962aa27d4e258f691011a813c16107a6d2515",
      "s": "0x22a0abddd7e6980fdf9178ae42fd5308341ef7180a78bcfb365549349f00be5e",
      "v": 28,
      "creates": null,
      "raw": "0xf86d80850d0be1819083015f909415674e39f68d518367ecdd22cb73534cb74bdc28880de0b6b3a7640000801ca08befe3624e70718220f8f9bf9da962aa27d4e258f691011a813c16107a6d2515a022a0abddd7e6980fdf9178ae42fd5308341ef7180a78bcfb365549349f00be5e",
      "networkId": 0,
      "chainId": 0
    }
  ]
}