{
  "hash": "0x6517b3db29fe0274a553fe4eb0effc7914011e840b51a883f53855f6de302708",
  "parentHash": "0x698ed789febbd2ff85e3449500cecb08df14dfc986e8a53b7ad8eddde2807b96",
  "number": 72094,
  "timestamp": 1439347232,
  "nonce": "0xb19ab93c164523d5",
  "difficulty": 2162227789328,
  "gasLimit": {
    "_hex": "0x2fefd8"
  },
  "gasUsed": {
    "_hex": "0x5208"
  },
  "miner": "0x66c564ACCCfd1470EE32bE2aCaE1696558C18fE1",
  "extraData": "0x476574682f76312e302e312f6c696e75782f676f312e34",
  "transactions": [
    {
      "hash": "0x3e7d3314cf837cd6c0203de3a4765e047780e677f5a4cb6b248d8efd9fe546b3",
      "blockHash": "0x6517b3db29fe0274a553fe4eb0effc7914011e840b51a883f53855f6de302708",
      "blockNumber": 72094,
      "transactionIndex": 0,
      "confirmations": null,
      "from": "0x18E113D8177c691A61Be785852Fa5Bb47aEeBdAf",
      "gasPrice": {
        "_hex": "0xd84a95162"
      },
      "gasLimit": {
        "_hex": "0xf4240"
      },
      "to": "0x227ca79E7b445f12032e295a64afE0451269BCc3",
      "value": {
        "_hex": "0xde0b6b3a7640000"
      },
      "nonce": 0,
      "data": "0x",
      "r": "0x44e02da5c329bd35960794ff95ae8eb6dbf8a67b9220bf495ba0aaf7e2c15372",
      "s": "0x5fc7db218b55093772ad61992680ca37a709696bf3c50e11c4d04969a6f4ee3e",
      "v": 27,
      "creates": null,
      "raw": "0xf86d80850d84a95162830f424094227ca79e7b445f12032e295a64afe0451269bcc3880de0b6b3a7640000801ba044e02da5c329bd35960794ff95ae8eb6dbf8a67b9220bf495ba0aaf7e2c15372a05fc7db218b55093772ad61992680ca37a709696bf3c50e11c4d04969a6f4ee3e",
      "networkId": 0,
      "chainId": 0
    }
  ]
}