{
  "hash": "0x6d3c83e3973e90a4b5736d191ed0f4ce35605aa84addb3973b16f615b4d09160",
  "parentHash": "0x010410033da829f274dff9fa8b86314440484ae8005195ca02f1f2f47ced0fea",
  "number": 61068,
  "timestamp": 1439166161,
  "nonce": "0x9a25b0c5f88d8580",
  "difficulty": 1731210103458,
  "gasLimit": {
    "_hex": "0x2fefd8"
  },
  "gasUsed": {
    "_hex": "0x5208"
  },
  "miner": "0x9746c7e1ef2bd21FF3997fa467593a89cb852BD0",
  "extraData": "0x476574682f76312e302e312f77696e646f77732f676f312e342e32",
  "transactions": [
    {
      "hash": "0xc57e618c0b122b01636d1db8d92ceac83c71d6580b22365f79d84e32747d7313",
      "blockHash": "0x6d3c83e3973e90a4b5736d191ed0f4ce35605aa84addb3973b16f615b4d09160",
      "blockNumber": 61068,
      "transactionIndex": 0,
      "confirmations": null,
      "from": "0x00818287ff6BA78A461D21bD5832891592dc6C6B",
      "gasPrice": {
        "_hex": "0x14f46b0400"
      },
      "gasLimit": {
        "_hex": "0x186a0"
      },
      "to": "0x6bc48997aB00042E0C16e96Cf1fF806034D54874",
      "value": {
        "_hex": "0xa688906bd8b0000"
      },
      "nonce": 1,
      "data": "0x",
      "r": "0x6f129607b21e7e1aeefafeac96746d2847d2fd58c37ab9e1fb4c62c6631b270a",
      "s": "0x3202bb44de908ecbb3faf0ebb381d40576f49ce54beedd95a2e340e620de7cfa",
      "v": 27,
      "creates": null,
      "raw": "0xf86d018514f46b0400830186a0946bc48997ab00042e0c16e96cf1ff806034d54874880a688906bd8b0000801ba06f129607b21e7e1aeefafeac96746d2847d2fd58c37ab9e1fb4c62c6631b270aa03202bb44de908ecbb3faf0ebb381d40576f49ce54beedd95a2e340e620de7cfa",
      "networkId": 0,
      "chainId": 0
    }
  ]
}