{
  "hash": "0x9bbb13c96cb612aa32189517a0035e8b568aafedf04af0be63f18e1147e03e1f",
  "parentHash": "0x3c2990f45bd340a8be032906eaaad6b719c678a013bd888f2077166c7f4ecffe",
  "number": 47215,
  "timestamp": 1438936247,
  "nonce": "0xaca4ccd46bd6d47c",
  "difficulty": 1459521667989,
  "gasLimit": {
    "_hex": "0xa3ee"
  },
  "gasUsed": {
    "_hex": "0x5208"
  },
  "miner": "0xB7f5530DF01aeFE061dAbFA6E778eE694157A71f",
  "extraData": "0x476574682f76312e302e312f6c696e75782f676f312e342e32",
  "transactions": [
    {
      "hash": "0x1f6f32596a53e97ee4740e47dfa1c4cda9b2568e4c2062292d63ac3a490a6089",
      "blockHash": "0x9bbb13c96cb612aa32189517a0035e8b568aafedf04af0be63f18e1147e03e1f",
      "blockNumber": 47215,
      "transactionIndex": 0,
      "confirmations": null,
      "from": "0x03c647A9f929b0781fE9AE01cAA3e183E876777E",
      "gasPrice": {
        "_hex": "0xcea4060ea"
      },
      "gasLimit": {
        "_hex": "0x5208"
      },
      "to": "0xf77a1a60534F0D1c012Dd5860cEC5f30865DF6b8",
      "value": {
        "_hex": "0x17e554308aa0300000"
      },
      "nonce": 0,
      "data": "0x",
      "r": "0x243af0c1429e799a0af648d375162bfc790bd0e480d973c4636bfc31d359d2a9",
      "s": "0x7710a12d7bdbb279e5d8a7f706f55963b13c734b2dba6c5a74f4da233ec23994",
      "v": 27,
      "creates": null,
      "raw": "0xf86d80850cea4060ea82520894f77a1a60534f0d1c012dd5860cec5f30865df6b88917e554308aa0300000801ba0243af0c1429e799a0af648d375162bfc790bd0e480d973c4636bfc31d359d2a9a07710a12d7bdbb279e5d8a7f706f55963b13c734b2dba6c5a74f4da233ec23994",
      "networkId": 0,
      "chainId": 0
    }
  ]
}