{
  "hash": "0xc30fedc8c0d228dc685adc81dbc08597ac38d5b5d619bab5c7a9a42ecf9d58ed",
  "parentHash": "0x85f8e1b96bc8b5414cff723790536b7d6b800fca1b95b7e3a7f4bdecb1021485",
  "number": 121107,
  "timestamp": 1440171590,
  "nonce": "0x3c295c65e62ad648",
  "difficulty": 4395706883750,
  "gasLimit": {
    "_hex": "0x2fefd8"
  },
  "gasUsed": {
    "_hex": "0x5208"
  },
  "miner": "0xe6A7a1d47ff21B6321162AEA7C6CB457D5476Bca",
  "extraData": "0xd783010002844765746887676f312e342e32856c696e7578",
  "transactions": [
    {
      "hash": "0xf5cbd5a624c7127fbe78a1f0b951a0c991eb4254179d1c275991463d1026c28b",
      "blockHash": "0xc30fedc8c0d228dc685adc81dbc08597ac38d5b5d619bab5c7a9a42ecf9d58ed",
      "blockNumber": 121107,
      "transactionIndex": 0,
      "confirmations": null,
      "from": "0x1E0FaCC4742E5dFF84100022F6eA03B6E95D495A",
      "gasPrice": {
        "_hex": "0xba43b7400"
      },
      "gasLimit": {
        "_hex": "0x15f90"
      },
      "to": "0x25D855A7A140aC6F330E2202F96c6f62EB126CC1",
      "value": {
        "_hex": "0xde0b6b3a7640000"
      },
      "nonce": 0,
      "data": "0x",
      "r": "0xfcd8e9d000fdb3658db32c0277f3c9f060ed1b0c7e734ee334ee3b693f775de9",
      "s": "0x51bae05e3c3aebe9197580eaa58d3c4392124d0f923a35e089ba8aca9e5c0f93",
      "v": 28,
      "creates": null,
      "raw": "0xf86d80850ba43b740083015f909425d855a7a140ac6f330e2202f96c6f62eb126cc1880de0b6b3a7640000801ca0fcd8e9d000fdb3658db32c0277f3c9f060ed1b0c7e734ee334ee3b693f775de9a051bae05e3c3aebe9197580eaa58d3c4392124d0f923a35e089ba8aca9e5c0f93",
      "networkId": 0,
      "chainId": 0
    }
  ]
}