{
  "hash": "0x170771fb36368bbc51d707c01e8b8980dbb7fca20b03b34ae91a3ca66324c356",
  "parentHash": "0xa2cfe782f1456002b94a6ea6903b7c34a2008325fc5f85cc13db97c6c8c9687f",
  "number": 69654,
  "timestamp": 1439307554,
  "nonce": "0x936e44944d48bdfe",
  "difficulty": 2082031301302,
  "gasLimit": {
    "_hex": "0x2fefd8"
  },
  "gasUsed": {
    "_hex": "0x5208"
  },
  "miner": "0xe6A7a1d47ff21B6321162AEA7C6CB457D5476Bca",
  "extraData": "0x476574682f76312e302e312d38326566323666362f6c696e75782f676f312e34",
  "transactions": [
    {
      "hash": "0x87347cfa1bafb271e63d485d17cb968a67d18bac39e90d7e600e7f28a7b3da2b",
      "blockHash": "0x170771fb36368bbc51d707c01e8b8980dbb7fca20b03b34ae91a3ca66324c356",
      "blockNumber": 69654,
      "transactionIndex": 0,
      "confirmations": null,
      "from": "0x2910543Af39abA0Cd09dBb2D50200b3E800A63D2",
      "gasPrice": {
        "_hex": "0xdbdac108b"
      },
      "gasLimit": {
        "_hex": "0x5208"
      },
      "to": "0x1BD0c80210852114476EE06F10C72E29D4B614Ae",
      "value": {
        "_hex": "0x21f6977a8542e000"
      },
      "nonce": 226,
      "data": "0x",
      "r": "0x4322bb06b1ec7b3b3d15aec30d7c70ef12f6ddcb41bb6072ec0095ef5d3d0335",
      "s": "0x5ec9c0b88fc0c526b5c0dedbdcad86de9f9369da29b991b131231a764b30ba39",
      "v": 27,
      "creates": null,
      "raw": "0xf86d81e2850dbdac108b825208941bd0c80210852114476ee06f10c72e29d4b614ae8821f6977a8542e000801ba04322bb06b1ec7b3b3d15aec30d7c70ef12f6ddcb41bb6072ec0095ef5d3d0335a05ec9c0b88fc0c526b5c0dedbdcad86de9f9369da29b991b131231a764b30ba39",
      "networkId": 0,
      "chainId": 0
    }
  ]
}