{
  "hash": "0x8a1da70a021436f43a72fd590217e03bda106da36344ff20f182e60c6b5a281a",
  "parentHash": "0x0a757e7b45142cc1e7b4629d71781bdd45cb39d00a7e8a32edab1cebb33c989c",
  "number": 69878,
  "timestamp": 1439311184,
  "nonce": "0x16bc05dda8bc47ce",
  "difficulty": 2102407101720,
  "gasLimit": {
    "_hex": "0x2fefd8"
  },
  "gasUsed": {
    "_hex": "0x7c62"
  },
  "miner": "0xf927a40C8B7F6E07c5af7FA2155B4864a4112B13",
  "extraData": "0x",
  "transactions": [
    {
      "hash": "0x95f91d771350e4a595892d526f89fb23c500103bf1e67d296963cadf2fb4aa11",
      "blockHash": "0x8a1da70a021436f43a72fd590217e03bda106da36344ff20f182e60c6b5a281a",
      "blockNumber": 69878,
      "transactionIndex": 0,
      "confirmations": null,
      "from": "0x000Df160997ba9420e4622996b05447871848834",
      "gasPrice": {
        "_hex": "0xba43b7400"
      },
      "gasLimit": {
        "_hex": "0x9965e"
      },
      "to": "0xad5e5A5Bc4654dbeF0d5CABD7ABeB426769C073a",
      "value": {
        "_hex": "0x0"
      },
      "nonce": 5,
      "data": "0x43d726d6",
      "r": "0x26cd4a43fd34dfc49388e334a442ea0f5fd01126ad87063c5172261ea44e9e3e",
      "s": "0x15e80b05afb012615ccc50565910bf8f74870a877f8469b1259fabfd5a607c96",
      "v": 28,
      "creates": null,
      "raw": "0xf86905850ba43b74008309965e94ad5e5a5bc4654dbef0d5cabd7abeb426769c073a808443d726d61ca026cd4a43fd34dfc49388e334a442ea0f5fd01126ad87063c5172261ea44e9e3ea015e80b05afb012615ccc50565910bf8f74870a877f8469b1259fabfd5a607c96",
      "networkId": 0,
      "chainId": 0
    }
  ]
}