{
  "hash": "0xf4bd65d921b0668c518a258ead93f8a2fc822f860ac378fa0b1cac7a345bfefd",
  "parentHash": "0x1c05df7a6ba0e9c8a536dd97149659bc6fa89b782e119fee28de205fcca64842",
  "number": 65156,
  "timestamp": 1439232171,
  "nonce": "0x2d86c360e98a7645",
  "difficulty": 1937918728933,
  "gasLimit": {
    "_hex": "0x2fefd8"
  },
  "gasUsed": {
    "_hex": "0x17cd8"
  },
  "miner": "0x580992B51e3925e23280EfB93d3047C82f17E038",
  "extraData": "0x476574682f76312e302e312f6c696e75782f676f312e342e32",
  "transactions": [
    {
      "hash": "0xd1baeb0f6eb20b456a7b4a2636e2ce02534dc040e2cec95a20a156fba260f5b6",
      "blockHash": "0xf4bd65d921b0668c518a258ead93f8a2fc822f860ac378fa0b1cac7a345bfefd",
      "blockNumber": 65156,
      "transactionIndex": 0,
      "confirmations": null,
      "from": "0x5f0734783AFB7C2bF24cF6062764799BDAfDd822",
      "gasPrice": {
        "_hex": "0xba43b7400"
      },
      "gasLimit": {
        "_hex": "0x15f90"
      },
      "to": "0x793AE8C1b1a160BFc07BFB0d04F85eab1A71F4f2",
      "value": {
        "_hex": "0x0"
      },
      "nonce": 0,
      "data": "0x3ba15036",
      "r": "0x0d98f6dcec98111f77d6e824794c262e6f2d76dbb09f9e79c77c62b6ba870fc4",
      "s": "0x68735d86a9362ca72c18a1385f42726f32e6c9d607ea079dd0f530b4be93e83a",
      "v": 28,
      "creates": null,
      "raw": "0xf86980850ba43b740083015f9094793ae8c1b1a160bfc07bfb0d04f85eab1a71f4f280843ba150361ca00d98f6dcec98111f77d6e824794c262e6f2d76dbb09f9e79c77c62b6ba870fc4a068735d86a9362ca72c18a1385f42726f32e6c9d607ea079dd0f530b4be93e83a",
      "networkId": 0,
      "chainId": 0
    },
    {
      "hash": "0x7ffad3c87f3d2a554c686ea09ff63a9a2f62cb289f14ed3af7427d75df316574",
      "blockHash": "0xf4bd65d921b0668c518a258ead93f8a2fc822f860ac378fa0b1cac7a345bfefd",
      "blockNumber": 65156,
      "transactionIndex": 1,
      "confirmations": null,
      "from": "0x3F70ca8a53dC13C12BcAC33eADAA6769Ac8D7877",
      "gasPrice": {
        "_hex": "0xba43b7400"
      },
      "gasLimit": {
        "_hex": "0x15f90"
      },
      "to": "0x793AE8C1b1a160BFc07BFB0d04F85eab1A71F4f2",
      "value": {
        "_hex": "0x0"
      },
      "nonce": 0,
      "data": "0x3ba15036",
      "r": "0x3d80581eff5f7d718181bcdfdef846791fbbcc6812fd1e1047a51f87b508eae3",
      "s": "0x7935b7708006dea146d1845d016129f2157ebc28c16d6b4e102fc72591ea3e1b",
      "v": 27,
      "creates": null,
      "raw": "0xf86980850ba43b740083015f9094793ae8c1b1a160bfc07bfb0d04f85eab1a71f4f280843ba150361ba03d80581eff5f7d718181bcdfdef846791fbbcc6812fd1e1047a51f87b508eae3a07935b7708006dea146d1845d016129f2157ebc28c16d6b4e102fc72591ea3e1b",
      "networkId": 0,
      "chainId": 0
    }
  ]
}