{
  "hash": "0x82fb81fdeefeaf013c1845b5ed49c97d53ef0112e0b0df4caed6e61bf69890b7",
  "parentHash": "0xaf9e4af977d1900cac16d5123b7a17c38210951099c15737d247faae3e1e0e81",
  "number": 49771,
  "timestamp": 1438978838,
  "nonce": "0x34d449a2fd052832",
  "difficulty": 1492220080083,
  "gasLimit": {
    "_hex": "0x3e5dd"
  },
  "gasUsed": {
    "_hex": "0x546c"
  },
  "miner": "0xB4f6A8f7Cd91Cd4bcADcc0a20e417c392E5f50A4",
  "extraData": "0x57686f2061726520796f753f",
  "transactions": [
    {
      "hash": "0x18b58bf9e6e598b555ec17949af3432be190d1dee1226490652fd6c6704e76af",
      "blockHash": "0x82fb81fdeefeaf013c1845b5ed49c97d53ef0112e0b0df4caed6e61bf69890b7",
      "blockNumber": 49771,
      "transactionIndex": 0,
      "confirmations": null,
      "from": "0xb782BFD1e2DE70F467646f9Bc09EA5b1Fcf450Af",
      "gasPrice": {
        "_hex": "0x110c8f7d8de"
      },
      "gasLimit": {
        "_hex": "0xc350"
      },
      "to": "0x2910543Af39abA0Cd09dBb2D50200b3E800A63D2",
      "value": {
        "_hex": "0xf8b0a10e470000"
      },
      "nonce": 4,
      "data": "0x454e3845464b545752",
      "r": "0x054868ae127590177d4f167d459ad2b822b06f419ea3a852a0079df77921a4f7",
      "s": "0x217a2423a15c2b67b9344fcdb450e4c8f6a180e048b337d2db859576ccc3eae4",
      "v": 27,
      "creates": null,
      "raw": "0xf87504860110c8f7d8de82c350942910543af39aba0cd09dbb2d50200b3e800a63d287f8b0a10e47000089454e3845464b5457521ba0054868ae127590177d4f167d459ad2b822b06f419ea3a852a0079df77921a4f7a0217a2423a15c2b67b9344fcdb450e4c8f6a180e048b337d2db859576ccc3eae4",
      "networkId": 0,
      "chainId": 0
    }
  ]
}