{
  "hash": "0x68df75efc09d8ed2f59c920e00fdb470c8d2ab7dce8a25b106472838a5cbaf15",
  "parentHash": "0x2a87a8d3bceac28c1093075bb3a1cadc91945acc8e15f0c2c260aef003a81670",
  "number": 48489,
  "timestamp": 1438957990,
  "nonce": "0xafd8f4d6b3c39e58",
  "difficulty": 1462153004186,
  "gasLimit": {
    "_hex": "0x18094"
  },
  "gasUsed": {
    "_hex": "0x546c"
  },
  "miner": "0xe6A7a1d47ff21B6321162AEA7C6CB457D5476Bca",
  "extraData": "0x657468706f6f6c2e6f7267",
  "transactions": [
    {
      "hash": "0x71e212da37681cfd83cefc7b2bc6d01ded62d9c3ac997714514fcd80c54c328f",
      "blockHash": "0x68df75efc09d8ed2f59c920e00fdb470c8d2ab7dce8a25b106472838a5cbaf15",
      "blockNumber": 48489,
      "transactionIndex": 0,
      "confirmations": null,
      "from": "0x85A2F6ea94D05E8C1d9Ae2F4910338a358e98DeD",
      "gasPrice": {
        "_hex": "0xcd7c4fa35"
      },
      "gasLimit": {
        "_hex": "0x15f90"
      },
      "to": "0x2910543Af39abA0Cd09dBb2D50200b3E800A63D2",
      "value": {
        "_hex": "0x1b1ae4d6e2ef500000"
      },
      "nonce": 2,
      "data": "0x454e373342334b5547",
      "r": "0x47770d4ee70a3154b059141c6b043701f55f747ad6d68e3c849bf25e215a90c6",
      "s": "0x171ba74a727c809cc43619ece2c421395031d72920c420bb3b884909062e65de",
      "v": 27,
      "creates": null,
      "raw": "0xf87702850cd7c4fa3583015f90942910543af39aba0cd09dbb2d50200b3e800a63d2891b1ae4d6e2ef50000089454e373342334b55471ba047770d4ee70a3154b059141c6b043701f55f747ad6d68e3c849bf25e215a90c6a0171ba74a727c809cc43619ece2c421395031d72920c420bb3b884909062e65de",
      "networkId": 0,
      "chainId": 0
    }
  ]
}