{
  "hash": "0x30ed3ceab4249c71d26e12bd21c43a854e9ae35526bf440eb2f4d0b9f31adb2c",
  "parentHash": "0x845df2fbdc2f1ddbf4ae02427cffdddd578732de01e8691f6b14ade5edd86528",
  "number": 70261,
  "timestamp": 1439317236,
  "nonce": "0xdc014955f5ce1a9c",
  "difficulty": 2126054128158,
  "gasLimit": {
    "_hex": "0x2fefd5"
  },
  "gasUsed": {
    "_hex": "0x5208"
  },
  "miner": "0xEF247E639d49461D25F57e9362CadE3120910Ce0",
  "extraData": "0x476574682f76312e302e312f6c696e75782f676f312e342e32",
  "transactions": [
    {
      "hash": "0x12683a9efe95145f98d9a511e5daea39af30e838132fe5baed9678f0bed53bf1",
      "blockHash": "0x30ed3ceab4249c71d26e12bd21c43a854e9ae35526bf440eb2f4d0b9f31adb2c",
      "blockNumber": 70261,
      "transactionIndex": 0,
      "confirmations": null,
      "from": "0x608F680cB915b87F83f3d369bBbb796D778c6162",
      "gasPrice": {
        "_hex": "0xd49fc66e9"
      },
      "gasLimit": {
        "_hex": "0x15f90"
      },
      "to": "0xBaf4E201A3015b60bD8dd1190E20411EaF12C5eE",
      "value": {
        "_hex": "0xde0b6b3a7640000"
      },
      "nonce": 5,
      "data": "0x",
      "r": "0xf79ff355aaddca8e35e5d2372e9ad71b0444a9ee3201d221c5380b3eee3fd46f",
      "s": "0x1f31382f05fac212dc3bbcafb94e4a50e9b16d8806314b31e9c8f81e39758e4e",
      "v": 27,
      "creates": null,
      "raw": "0xf86d05850d49fc66e983015f9094baf4e201a3015b60bd8dd1190e20411eaf12c5ee880de0b6b3a7640000801ba0f79ff355aaddca8e35e5d2372e9ad71b0444a9ee3201d221c5380b3eee3fd46fa01f31382f05fac212dc3bbcafb94e4a50e9b16d8806314b31e9c8f81e39758e4e",
      "networkId": 0,
      "chainId": 0
    }
  ]
}