{
  "hash": "0x6ad5391c172c380182c20aaffaddbbe44aa3cd39fd5aeec20093d40063385502",
  "parentHash": "0x32f9b3981b1a33ab197ed50fabe6f44612f9cb45c756bd040a0a3978548d5ce5",
  "number": 65820,
  "timestamp": 1439243359,
  "nonce": "0x95fa4b7cffa402be",
  "difficulty": 1949152762781,
  "gasLimit": {
    "_hex": "0x2fefd8"
  },
  "gasUsed": {
    "_hex": "0x5208"
  },
  "miner": "0x93641e54c9aA6F9038FE7Adb03629a1747326Cd6",
  "extraData": "0x476574682f76312e302e312f77696e646f77732f676f312e342e32",
  "transactions": [
    {
      "hash": "0xb1ddb32289fc2ccde1ed9272f312b5f1030a537791dc7213ba2eded1cde08588",
      "blockHash": "0x6ad5391c172c380182c20aaffaddbbe44aa3cd39fd5aeec20093d40063385502",
      "blockNumber": 65820,
      "transactionIndex": 0,
      "confirmations": null,
      "from": "0xD9E6086071980fE3484b6BaABA07A10b47B046A6",
      "gasPrice": {
        "_hex": "0x115c7135d76"
      },
      "gasLimit": {
        "_hex": "0x15f90"
      },
      "to": "0x9671195D09EDbE08bf945d66f637e59B5357afa2",
      "value": {
        "_hex": "0x14d1120d7b160000"
      },
      "nonce": 12,
      "data": "0x",
      "r": "0xa8af51e5462bedcc61e098208cbc0fbfd8d9fc9cbff98c11fc6cb693de071328",
      "s": "0x4cd0d200648728c8986384fc7bbbbd2bacfa5afe85ca428d40ff219e4cb8ede5",
      "v": 28,
      "creates": null,
      "raw": "0xf86e0c860115c7135d7683015f90949671195d09edbe08bf945d66f637e59b5357afa28814d1120d7b160000801ca0a8af51e5462bedcc61e098208cbc0fbfd8d9fc9cbff98c11fc6cb693de071328a04cd0d200648728c8986384fc7bbbbd2bacfa5afe85ca428d40ff219e4cb8ede5",
      "networkId": 0,
      "chainId": 0
    }
  ]
}