{
  "hash": "0xab4a5505789643085c70ae8c806b88674f0cc1975a9d905745dc2dc7e23254d2",
  "parentHash": "0x1748e9fbc26b3a8612b9bb666eb73535149fc2fd03cf9319e1ec4c8f90d094ae",
  "number": 93535,
  "timestamp": 1439692447,
  "nonce": "0xec0a7b8b4818ea85",
  "difficulty": 3478532428850,
  "gasLimit": {
    "_hex": "0x2fefd8"
  },
  "gasUsed": {
    "_hex": "0x5208"
  },
  "miner": "0x9D49F602b0fdb924Bd63DDE2Bd0907E4A07c63a7",
  "extraData": "0x476574682f76312e302e312f6c696e75782f676f312e342e32",
  "transactions": [
    {
      "hash": "0x0be4d1c5079819b08ec9c4b4b77d8bcfacff88ce541dd8870757a6718f8b50b8",
      "blockHash": "0xab4a5505789643085c70ae8c806b88674f0cc1975a9d905745dc2dc7e23254d2",
      "blockNumber": 93535,
      "transactionIndex": 0,
      "confirmations": null,
      "from": "0x663555F143e6a4674c0FdF2e73f12fdaf5D51112",
      "gasPrice": {
        "_hex": "0xba43b7400"
      },
      "gasLimit": {
        "_hex": "0x5267"
      },
      "to": "0xc07082b0caEF1afaAA062CDae1c592c110B82aa5",
      "value": {
        "_hex": "0x10a741a462780000"
      },
      "nonce": 2,
      "data": "0x",
      "r": "0x9959e29bb4e8b1965c9705e8646ee5750111c90a7140f63dd1b6883b7b483087",
      "s": "0xc5471aeb413466b21f1b7d4a4b37998b90d9b4e4612911918d21f14dd45024e3",
      "v": 27,
      "creates": null,
      "raw": "0xf86c02850ba43b740082526794c07082b0caef1afaaa062cdae1c592c110b82aa58810a741a462780000801ba09959e29bb4e8b1965c9705e8646ee5750111c90a7140f63dd1b6883b7b483087a0c5471aeb413466b21f1b7d4a4b37998b90d9b4e4612911918d21f14dd45024e3",
      "networkId": 0,
      "chainId": 0
    }
  ]
}