{
  "hash": "0x6243ad61cf599d3f4f89213e681df86c9e852e0bb75bfe0f309cfd1b2abd5bd2",
  "parentHash": "0x9f8c278d04bef2d0248c6552e9ce0a405a8cae759ba1b8305ec0eac216f4b761",
  "number": 92916,
  "timestamp": 1439679169,
  "nonce": "0x2522a92a1d328b02",
  "difficulty": 3661796283503,
  "gasLimit": {
    "_hex": "0x2fefd8"
  },
  "gasUsed": {
    "_hex": "0x5208"
  },
  "miner": "0xBD744E3F13D79B33F6c8E1d5E32F8E9BA2866c46",
  "extraData": "0x476574682f76312e302e312d39613032663533372f6c696e75782f676f312e34",
  "transactions": [
    {
      "hash": "0x8b1fc23c990af200cc802e2651af495b0dd49382416723f47ddcf506d9b30901",
      "blockHash": "0x6243ad61cf599d3f4f89213e681df86c9e852e0bb75bfe0f309cfd1b2abd5bd2",
      "blockNumber": 92916,
      "transactionIndex": 0,
      "confirmations": null,
      "from": "0x739f8ab33a41B67952f16778e3CC6D2dEcC3a2d5",
      "gasPrice": {
        "_hex": "0x10100c52357"
      },
      "gasLimit": {
        "_hex": "0x15f90"
      },
      "to": "0xa7676a5ac43bcA8BAFF4721F8350EC3cDe87F10C",
      "value": {
        "_hex": "0x32"
      },
      "nonce": 5,
      "data": "0x",
      "r": "0x061f86871aeded30a21350099b1a1d427c2d76c91f5adbc49fbc6ba43f375fe3",
      "s": "0x10cf220ea0a283b0ccf081a08b4753b94220971713c23eacabdcfc789d4bd474",
      "v": 28,
      "creates": null,
      "raw": "0xf8660586010100c5235783015f9094a7676a5ac43bca8baff4721f8350ec3cde87f10c32801ca0061f86871aeded30a21350099b1a1d427c2d76c91f5adbc49fbc6ba43f375fe3a010cf220ea0a283b0ccf081a08b4753b94220971713c23eacabdcfc789d4bd474",
      "networkId": 0,
      "chainId": 0
    }
  ]
}