{
  "hash": "0x50f03b0d292062a56fb97fc011516aa544ca073dc4c0024f1d88424d8153e126",
  "parentHash": "0x4930204d6ecb8accff3df8858c22ef6cd78ba6b427753bb9f84e10b4ff84bf44",
  "number": 84862,
  "timestamp": 1439555455,
  "nonce": "0x271b322e84c98125",
  "difficulty": 2658135238147,
  "gasLimit": {
    "_hex": "0x2fefd8"
  },
  "gasUsed": {
    "_hex": "0x5208"
  },
  "miner": "0xf927a40C8B7F6E07c5af7FA2155B4864a4112B13",
  "extraData": "0x",
  "transactions": [
    {
      "hash": "0x257069f39bc5a4590d603025c0e31ae5328b10ed4bcc432a63fc85bdd01540e0",
      "blockHash": "0x50f03b0d292062a56fb97fc011516aa544ca073dc4c0024f1d88424d8153e126",
      "blockNumber": 84862,
      "transactionIndex": 0,
      "confirmations": null,
      "from": "0xcA8f4Fb1A28593337AeE456Acc76ABD4C3c83257",
      "gasPrice": {
        "_hex": "0xba43b7400"
      },
      "gasLimit": {
        "_hex": "0x5265"
      },
      "to": "0xf357482c5A92C7B2Cee6a157034362b7d7d88c5A",
      "value": {
        "_hex": "0x44e3abb3190a0000"
      },
      "nonce": 2,
      "data": "0x",
      "r": "0x395c7c58d430e74c59e2e79bac1ef5211599e099a194f7d0cb0c4be51f326f53",
      "s": "0xb633f3424243057c2be47fc127d20132bdd971d88fbade2bd72c52aa69a53fdb",
      "v": 27,
      "creates": null,
      "raw": "0xf86c02850ba43b740082526594f357482c5a92c7b2cee6a157034362b7d7d88c5a8844e3abb3190a0000801ba0395c7c58d430e74c59e2e79bac1ef5211599e099a194f7d0cb0c4be51f326f53a0b633f3424243057c2be47fc127d20132bdd971d88fbade2bd72c52aa69a53fdb",
      "networkId": 0,
      "chainId": 0
    }
  ]
}