{
  "hash": "0xea065e4e6366cdd00409a92c0d802918aaadd0a2c0aaf625a4e7434c3dc3bec4",
  "parentHash": "0x5cce4b48bcdc56dc71938f65147542beb756d5afb1aa6ec3fdd768e89331c197",
  "number": 66188,
  "timestamp": 1439250266,
  "nonce": "0x115c9c0d956f4a08",
  "difficulty": 1939573523436,
  "gasLimit": {
    "_hex": "0x2fefd8"
  },
  "gasUsed": {
    "_hex": "0x5208"
  },
  "miner": "0xf927a40C8B7F6E07c5af7FA2155B4864a4112B13",
  "extraData": "0x",
  "transactions": [
    {
      "hash": "0x106b361e0c56a4b0503484b75de6b97510d0ce92463a29ff9709cfe75568912b",
      "blockHash": "0xea065e4e6366cdd00409a92c0d802918aaadd0a2c0aaf625a4e7434c3dc3bec4",
      "blockNumber": 66188,
      "transactionIndex": 0,
      "confirmations": null,
      "from": "0x5A4A6a7D2e9420d4618791b65D8C3C3ce24D1b88",
      "gasPrice": {
        "_hex": "0xcd4dd124e"
      },
      "gasLimit": {
        "_hex": "0x5208"
      },
      "to": "0x32Be343B94f860124dC4fEe278FDCBD38C102D88",
      "value": {
        "_hex": "0x471e4a57c829dc000"
      },
      "nonce": 0,
      "data": "0x",
      "r": "0x9cc221444e2a1465f22f4f6afd04a1ac90d2ceb0b31040263159dacb117429b7",
      "s": "0x1749cc1f2a207389445e92529d37efc00ba4a58c96122bfb9fb3c9bcec2cffc8",
      "v": 27,
      "creates": null,
      "raw": "0xf86d80850cd4dd124e8252089432be343b94f860124dc4fee278fdcbd38c102d88890471e4a57c829dc000801ba09cc221444e2a1465f22f4f6afd04a1ac90d2ceb0b31040263159dacb117429b7a01749cc1f2a207389445e92529d37efc00ba4a58c96122bfb9fb3c9bcec2cffc8",
      "networkId": 0,
      "chainId": 0
    }
  ]
}