{
  "hash": "0xdc8065667d37f758603145751d0c57c7f44b24e8a03355c855c7b5a390f579fa",
  "parentHash": "0x00098b10089edd9d8a400c969d46f65ca83de800dd9961693498abe74dba4dc3",
  "number": 49637,
  "timestamp": 1438976652,
  "nonce": "0xa20935c9ad5465fe",
  "difficulty": 1483525865788,
  "gasLimit": {
    "_hex": "0x38822"
  },
  "gasUsed": {
    "_hex": "0x546c"
  },
  "miner": "0x0A63E1A8C33e351679e3581AC84ce341C32f813a",
  "extraData": "0x476574682f76312e302e312d38326566323666362f6c696e75782f676f312e34",
  "transactions": [
    {
      "hash": "0x5f55383718856d6f47711a2c4c2bd86da26823b54f50b7a31c6776df0a6646e1",
      "blockHash": "0xdc8065667d37f758603145751d0c57c7f44b24e8a03355c855c7b5a390f579fa",
      "blockNumber": 49637,
      "transactionIndex": 0,
      "confirmations": null,
      "from": "0x18c6723A6753299cb914477D04A3BD218dF8C775",
      "gasPrice": {
        "_hex": "0x10d3c8819db"
      },
      "gasLimit": {
        "_hex": "0x15f90"
      },
      "to": "0x2910543Af39abA0Cd09dBb2D50200b3E800A63D2",
      "value": {
        "_hex": "0x363442e15b11550000"
      },
      "nonce": 0,
      "data": "0x454e42304a42363352",
      "r": "0xee44b8a4716cf1b763d550cf1cb058c9fa6f96fc87927af902852ee9fbba2510",
      "s": "0x4b771b2f5f41ebba91a5d6d1be7fc880f1842f6122f9abc31a9cdddd148383e2",
      "v": 27,
      "creates": null,
      "raw": "0xf8788086010d3c8819db83015f90942910543af39aba0cd09dbb2d50200b3e800a63d289363442e15b1155000089454e42304a423633521ba0ee44b8a4716cf1b763d550cf1cb058c9fa6f96fc87927af902852ee9fbba2510a04b771b2f5f41ebba91a5d6d1be7fc880f1842f6122f9abc31a9cdddd148383e2",
      "networkId": 0,
      "chainId": 0
    }
  ]
}