{
  "hash": "0xca12f2649eb94c209ca1d902437425ad721d9cee9131da0f6025e988dcc5c217",
  "parentHash": "0x91a3bf5c9d1c1de2d4abcef3e29731963e6318415f6468de20e2e9ca4a07a0cd",
  "number": 50498,
  "timestamp": 1438990258,
  "nonce": "0x49ce56c8608cfc08",
  "difficulty": 1510416385372,
  "gasLimit": {
    "_hex": "0x669a7"
  },
  "gasUsed": {
    "_hex": "0x5208"
  },
  "miner": "0xa50ec0D39fa913E62f1Bae7074E6F36caA71855b",
  "extraData": "0x",
  "transactions": [
    {
      "hash": "0xf3d6d7e715813a96af9ba0b588d1f22856b6579ba7d340e5a4d43d87eb1bf8c0",
      "blockHash": "0xca12f2649eb94c209ca1d902437425ad721d9cee9131da0f6025e988dcc5c217",
      "blockNumber": 50498,
      "transactionIndex": 0,
      "confirmations": null,
      "from": "0x1C356cfdB95FEbb714633B28d5C132dD84A9b436",
      "gasPrice": {
        "_hex": "0x1060e311c47"
      },
      "gasLimit": {
        "_hex": "0x15f90"
      },
      "to": "0x1da881Fae84444ebEf7B72F3267a4e67Aa61faE9",
      "value": {
        "_hex": "0x29a2241af62c0000"
      },
      "nonce": 2,
      "data": "0x",
      "r": "0x9a2afabb0a11374024191bd2dfd034984363ef1048bee3a69c57f1b690423268",
      "s": "0x7ee618ec7b8461bece7b135500406bf6d25bd7a43a8f3471acd5f23d8f781dfb",
      "v": 27,
      "creates": null,
      "raw": "0xf86e028601060e311c4783015f90941da881fae84444ebef7b72f3267a4e67aa61fae98829a2241af62c0000801ba09a2afabb0a11374024191bd2dfd034984363ef1048bee3a69c57f1b690423268a07ee618ec7b8461bece7b135500406bf6d25bd7a43a8f3471acd5f23d8f781dfb",
      "networkId": 0,
      "chainId": 0
    }
  ]
}