{
  "hash": "0x01f49d09dda7190bac953fe0d05c7c0ff3b6eb2b00811e7392ef880f10bf0662",
  "parentHash": "0xd8c5f12b1231c8103f3074b59bda05b3fc8041470cef4e804c1dae3d181d2624",
  "number": 76710,
  "timestamp": 1439424951,
  "nonce": "0x8988e53680de395c",
  "difficulty": 2244930907355,
  "gasLimit": {
    "_hex": "0x2fefd8"
  },
  "gasUsed": {
    "_hex": "0xa410"
  },
  "miner": "0xEF247E639d49461D25F57e9362CadE3120910Ce0",
  "extraData": "0x476574682f76312e302e312f6c696e75782f676f312e342e32",
  "transactions": [
    {
      "hash": "0x601cb15f117e35f67d195738f5cc47d00c9f71ce80686f89814aee058fdebc11",
      "blockHash": "0x01f49d09dda7190bac953fe0d05c7c0ff3b6eb2b00811e7392ef880f10bf0662",
      "blockNumber": 76710,
      "transactionIndex": 0,
      "confirmations": null,
      "from": "0xC25f24A505b8fEF751D8f4FCc397651001F7a160",
      "gasPrice": {
        "_hex": "0xdca6f91b7"
      },
      "gasLimit": {
        "_hex": "0x5208"
      },
      "to": "0x32Be343B94f860124dC4fEe278FDCBD38C102D88",
      "value": {
        "_hex": "0x33e2bae8de8e9c00"
      },
      "nonce": 20,
      "data": "0x",
      "r": "0xd1f100324d6bc3411b5f83f0723d1a584a8a2b059426ff2f95b9195aaa155b5d",
      "s": "0x442d814bbc023df4b1bf69c1652b89aa70b3a4a256d705e9dfecc05ddc15aa6f",
      "v": 27,
      "creates": null,
      "raw": "0xf86c14850dca6f91b78252089432be343b94f860124dc4fee278fdcbd38c102d888833e2bae8de8e9c00801ba0d1f100324d6bc3411b5f83f0723d1a584a8a2b059426ff2f95b9195aaa155b5da0442d814bbc023df4b1bf69c1652b89aa70b3a4a256d705e9dfecc05ddc15aa6f",
      "networkId": 0,
      "chainId": 0
    },
    {
      "hash": "0x21666919042ca39cf64323ddd18fe379d46e1de2bdd72f27a0acd003fdb3dd6b",
      "blockHash": "0x01f49d09dda7190bac953fe0d05c7c0ff3b6eb2b00811e7392ef880f10bf0662",
      "blockNumber": 76710,
      "transactionIndex": 1,
      "confirmations": null,
      "from": "0x6c716b5177cC5c983057af4D88F7152ebA2CC0a6",
      "gasPrice": {
        "_hex": "0xdca6f91b7"
      },
      "gasLimit": {
        "_hex": "0x5208"
      },
      "to": "0x32Be343B94f860124dC4fEe278FDCBD38C102D88",
      "value": {
        "_hex": "0x2f0fdc89c78fe8000"
      },
      "nonce": 4,
      "data": "0x",
      "r": "0x102b7d01f32195356777605237fbd8860492085e73160331ed9825999ef8f7d5",
      "s": "0x0e9d8e0a82c900b5e6ed5cda148188ca8149929cbf48c1d06dbe9d736254aaf3",
      "v": 27,
      "creates": null,
      "raw": "0xf86d04850dca6f91b78252089432be343b94f860124dc4fee278fdcbd38c102d888902f0fdc89c78fe8000801ba0102b7d01f32195356777605237fbd8860492085e73160331ed9825999ef8f7d5a00e9d8e0a82c900b5e6ed5cda148188ca8149929cbf48c1d06dbe9d736254aaf3",
      "networkId": 0,
      "chainId": 0
    }
  ]
}