{
  "hash": "0xc8c737bffab16562b429f8edc3edc272c8c2e85489eb37a1e8f71f30c96ddae8",
  "parentHash": "0x2dfba9fedf3b5e48d5f04bac9d9630177cdec658b0eb4a9af9350eea528f2b93",
  "number": 53889,
  "timestamp": 1439045222,
  "nonce": "0x13f4575c9b6a36c1",
  "difficulty": 1601696150617,
  "gasLimit": {
    "_hex": "0x2fefd5"
  },
  "gasUsed": {
    "_hex": "0x5208"
  },
  "miner": "0x24339341F29d2aaD7d3c591c0f9931e7D4bFEd6e",
  "extraData": "0x476574682f76312e302e312f6c696e75782f676f312e342e32",
  "transactions": [
    {
      "hash": "0x6320873d187c14458688271b42d8e6d954059397dae283985cb21239c06b6582",
      "blockHash": "0xc8c737bffab16562b429f8edc3edc272c8c2e85489eb37a1e8f71f30c96ddae8",
      "blockNumber": 53889,
      "transactionIndex": 0,
      "confirmations": null,
      "from": "0x64CF897D51472Dc7CfF0e6368EB15B9e2d5168E3",
      "gasPrice": {
        "_hex": "0x746a528800"
      },
      "gasLimit": {
        "_hex": "0x5b04"
      },
      "to": "0x2910543Af39abA0Cd09dBb2D50200b3E800A63D2",
      "value": {
        "_hex": "0xde0b6b3a7640000"
      },
      "nonce": 2,
      "data": "0x",
      "r": "0xefa9967386a11f52557ea9a7710263a77b288c08797eecc6d0372f3d21d20587",
      "s": "0x2418ac69c33e7b373acbeb5909006c32ace214b2bb25b8a5fb086f7f02513754",
      "v": 28,
      "creates": null,
      "raw": "0xf86c0285746a528800825b04942910543af39aba0cd09dbb2d50200b3e800a63d2880de0b6b3a7640000801ca0efa9967386a11f52557ea9a7710263a77b288c08797eecc6d0372f3d21d20587a02418ac69c33e7b373acbeb5909006c32ace214b2bb25b8a5fb086f7f02513754",
      "networkId": 0,
      "chainId": 0
    }
  ]
}