{
  "hash": "0xe89a6c96d07151549718e980e725b6abe35ed1a118a94e11097711140bc2c630",
  "parentHash": "0x491c4e40971d984c13583022a95516301e4e4fdcbb6b7bb680b94b6b17e1b6a7",
  "number": 46673,
  "timestamp": 1438927208,
  "nonce": "0xd98b806b1d569dcc",
  "difficulty": 1462469571328,
  "gasLimit": {
    "_hex": "0x7052"
  },
  "gasUsed": {
    "_hex": "0x5208"
  },
  "miner": "0x77ae86B52e88E569BBc84Dd0F70d5b8905F589c9",
  "extraData": "0x41676520616e64204c756b65204f776e6564207468697320426c6f636b",
  "transactions": [
    {
      "hash": "0x6c156b4221457f189ebf0199105c9f93017efab760f127aee9a5231d8a3d9ca8",
      "blockHash": "0xe89a6c96d07151549718e980e725b6abe35ed1a118a94e11097711140bc2c630",
      "blockNumber": 46673,
      "transactionIndex": 0,
      "confirmations": null,
      "from": "0xBFdD9820a04283b289957956353b5F3C1F665EcF",
      "gasPrice": {
        "_hex": "0xcf6fe74da"
      },
      "gasLimit": {
        "_hex": "0x5208"
      },
      "to": "0x32Be343B94f860124dC4fEe278FDCBD38C102D88",
      "value": {
        "_hex": "0x4f9f6eb1e51620000"
      },
      "nonce": 1,
      "data": "0x",
      "r": "0x3888dd0e6c503d420af806d667a18c103baa85e4d51bc83ca9f9faf4191fe958",
      "s": "0x3293ebcf9c22a43ce31f5508b0e8f6a28d8cd8e7d8a8308cf314429b32f3986b",
      "v": 27,
      "creates": null,
      "raw": "0xf86d01850cf6fe74da8252089432be343b94f860124dc4fee278fdcbd38c102d888904f9f6eb1e51620000801ba03888dd0e6c503d420af806d667a18c103baa85e4d51bc83ca9f9faf4191fe958a03293ebcf9c22a43ce31f5508b0e8f6a28d8cd8e7d8a8308cf314429b32f3986b",
      "networkId": 0,
      "chainId": 0
    }
  ]
}