{
  "hash": "0xd10e64df46680f93243da8137700498a0c88e18de12aeab8d3350923049f8ec4",
  "parentHash": "0xe675addcd5b1761e5c130e5f102d48276cfb7a4971e227ceb55bbba2396d8155",
  "number": 47655,
  "timestamp": 1438944313,
  "nonce": "0x8342af5dfd7f91c8",
  "difficulty": 1445262085997,
  "gasLimit": {
    "_hex": "0xde01"
  },
  "gasUsed": {
    "_hex": "0xa410"
  },
  "miner": "0x55D1554b08a5311C5c0A0B6464162192f9D2f884",
  "extraData": "0x476574682f76312e302e312f6c696e75782f676f312e342e32",
  "transactions": [
    {
      "hash": "0x8ee5507debc70591f443a9c18817b157ddb57c4ce4cf8fbf5dfbff586167c1f3",
      "blockHash": "0xd10e64df46680f93243da8137700498a0c88e18de12aeab8d3350923049f8ec4",
      "blockNumber": 47655,
      "transactionIndex": 0,
      "confirmations": null,
      "from": "0xe6A7a1d47ff21B6321162AEA7C6CB457D5476Bca",
      "gasPrice": {
        "_hex": "0xce27ba2eb"
      },
      "gasLimit": {
        "_hex": "0x55f0"
      },
      "to": "0x37532Ef610E32af9bC706620Afda8662940720f5",
      "value": {
        "_hex": "0x173704a490194100"
      },
      "nonce": 182,
      "data": "0x",
      "r": "0x8611e6f19d693c7d20794ecdc2775510c660748f658ca2802f5dd28edcf1a4e3",
      "s": "0x08bb4d1a979c0bf1f5f06b166ca4d003c0ae4fec56ff4465972c2b62ba5cab08",
      "v": 27,
      "creates": null,
      "raw": "0xf86d81b6850ce27ba2eb8255f09437532ef610e32af9bc706620afda8662940720f588173704a490194100801ba08611e6f19d693c7d20794ecdc2775510c660748f658ca2802f5dd28edcf1a4e3a008bb4d1a979c0bf1f5f06b166ca4d003c0ae4fec56ff4465972c2b62ba5cab08",
      "networkId": 0,
      "chainId": 0
    },
    {
      "hash": "0xd72ba25455d84dee00f812bef350bbe53a9afe37c1a12edbd5b0cdde70be424f",
      "blockHash": "0xd10e64df46680f93243da8137700498a0c88e18de12aeab8d3350923049f8ec4",
      "blockNumber": 47655,
      "transactionIndex": 1,
      "confirmations": null,
      "from": "0xe6A7a1d47ff21B6321162AEA7C6CB457D5476Bca",
      "gasPrice": {
        "_hex": "0xce27ba2eb"
      },
      "gasLimit": {
        "_hex": "0x55f0"
      },
      "to": "0x399e51beB529F28056C392653C99A2Ebb654571F",
      "value": {
        "_hex": "0x173c45a633c345e8"
      },
      "nonce": 183,
      "data": "0x",
      "r": "0xf80b08054f4c893f1b7c7b15028a52b0dd707cfbf7cd23c105c10394002222cf",
      "s": "0x63494461c90ecf184ff51880e44f161a0d58563e40064cbb0015479015108197",
      "v": 28,
      "creates": null,
      "raw": "0xf86d81b7850ce27ba2eb8255f094399e51beb529f28056c392653c99a2ebb654571f88173c45a633c345e8801ca0f80b08054f4c893f1b7c7b15028a52b0dd707cfbf7cd23c105c10394002222cfa063494461c90ecf184ff51880e44f161a0d58563e40064cbb0015479015108197",
      "networkId": 0,
      "chainId": 0
    }
  ]
}