{
  "hash": "0xbd2a5a07907be3f631bb00ceaee7987d1516093617792a28ee2053e542e5b521",
  "parentHash": "0x8b567f9fd62791b1f23338cd8ee4cc714c2488dfffd4cb053a361c3a332eba36",
  "number": 121102,
  "timestamp": 1440171500,
  "nonce": "0x90c64b1befb62e60",
  "difficulty": 4397856370591,
  "gasLimit": {
    "_hex": "0x2fefd8"
  },
  "gasUsed": {
    "_hex": "0x5208"
  },
  "miner": "0xe6A7a1d47ff21B6321162AEA7C6CB457D5476Bca",
  "extraData": "0xd783010002844765746887676f312e342e32856c696e7578",
  "transactions": [
    {
      "hash": "0xa19dd6de05e5bcbe93a886161dae04d9a4063d84a39276c15d5788b43afb2689",
      "blockHash": "0xbd2a5a07907be3f631bb00ceaee7987d1516093617792a28ee2053e542e5b521",
      "blockNumber": 121102,
      "transactionIndex": 0,
      "confirmations": null,
      "from": "0x32Be343B94f860124dC4fEe278FDCBD38C102D88",
      "gasPrice": {
        "_hex": "0xba43b7400"
      },
      "gasLimit": {
        "_hex": "0x5208"
      },
      "to": "0x1E0FaCC4742E5dFF84100022F6eA03B6E95D495A",
      "value": {
        "_hex": "0x1dc3494313a98000"
      },
      "nonce": 1544,
      "data": "0x",
      "r": "0x154c503e744cb7fcd37cc0616e20beea142e2bb0708c336782d483efc424b8e9",
      "s": "0x6b65ebafb441b7a278fa43c3d0a3f3f5e876c646f4f971d12a571df3a14f3b6c",
      "v": 28,
      "creates": null,
      "raw": "0xf86e820608850ba43b7400825208941e0facc4742e5dff84100022f6ea03b6e95d495a881dc3494313a98000801ca0154c503e744cb7fcd37cc0616e20beea142e2bb0708c336782d483efc424b8e9a06b65ebafb441b7a278fa43c3d0a3f3f5e876c646f4f971d12a571df3a14f3b6c",
      "networkId": 0,
      "chainId": 0
    }
  ]
}