{
  "hash": "0x7215059faf9d1f3fcaf8a78169037e9026822310b3aefd9cde59ac2b055fd7d2",
  "parentHash": "0x7c231f2eda8ec6bf029d1df1f4caaa0e9fd77f5295c54b8d79c96212d104594f",
  "number": 104873,
  "timestamp": 1439877351,
  "nonce": "0x0fcdecc0209fd0e3",
  "difficulty": 4344417658669,
  "gasLimit": {
    "_hex": "0x2fefd8"
  },
  "gasUsed": {
    "_hex": "0x5208"
  },
  "miner": "0xaB638742EBe3A78F2a85028350e1AADB86C0a6ed",
  "extraData": "0x",
  "transactions": [
    {
      "hash": "0xf28af2693f6739b42f3eb82c4d20ce8a88af6e3daba130e39f387c93411132fd",
      "blockHash": "0x7215059faf9d1f3fcaf8a78169037e9026822310b3aefd9cde59ac2b055fd7d2",
      "blockNumber": 104873,
      "transactionIndex": 0,
      "confirmations": null,
      "from": "0x7884D470204862a0d1A21122F41ee77430396Ee5",
      "gasPrice": {
        "_hex": "0xcbaa108af"
      },
      "gasLimit": {
        "_hex": "0x15f90"
      },
      "to": "0x064eAF61c78BE0A9Bd50E6c5D99c451F1dd65CF2",
      "value": {
        "_hex": "0x166d2f702508000"
      },
      "nonce": 95,
      "data": "0x",
      "r": "0x9d20d809e157f8353642c9393ac311f38a9e73be9fe9d92267e74926b45445ac",
      "s": "0x14bf8407ae8d2bf0856ce182d72a6c3a006cefb06a57280260f35d1a1e4755dc",
      "v": 28,
      "creates": null,
      "raw": "0xf86d5f850cbaa108af83015f9094064eaf61c78be0a9bd50e6c5d99c451f1dd65cf2880166d2f702508000801ca09d20d809e157f8353642c9393ac311f38a9e73be9fe9d92267e74926b45445aca014bf8407ae8d2bf0856ce182d72a6c3a006cefb06a57280260f35d1a1e4755dc",
      "networkId": 0,
      "chainId": 0
    }
  ]
}