{
  "hash": "0xaeb55b3a78abfc5e37d9a8559826a1d04f2c886469dc6d6ece708986e9a4f7c1",
  "parentHash": "0xd0c99ec4c96401f4d8d1481d97ed7130a16f71f1ec7bec2f35f7b7674978ecb8",
  "number": 120993,
  "timestamp": 1440169625,
  "nonce": "0xfe07a7456aad708a",
  "difficulty": 4421598674229,
  "gasLimit": {
    "_hex": "0x2fefd8"
  },
  "gasUsed": {
    "_hex": "0x5208"
  },
  "miner": "0x608f4b86321a68453f9adf6F06F7Fc3E621739ad",
  "extraData": "0xd783010002844765746887676f312e342e32856c696e7578",
  "transactions": [
    {
      "hash": "0xe10b9045ec075a000c7bb0a88dc90bedc7e06ee26e8fb3a83bde381e38e05f47",
      "blockHash": "0xaeb55b3a78abfc5e37d9a8559826a1d04f2c886469dc6d6ece708986e9a4f7c1",
      "blockNumber": 120993,
      "transactionIndex": 0,
      "confirmations": null,
      "from": "0xc8ebccC5F5689Fa8659d83713341e5aD19349448",
      "gasPrice": {
        "_hex": "0xd7aef337d"
      },
      "gasLimit": {
        "_hex": "0x5208"
      },
      "to": "0x0F87Fb507513e749081E34373c84E95e85b5c057",
      "value": {
        "_hex": "0x3af6b6af11715a18"
      },
      "nonce": 81,
      "data": "0x",
      "r": "0x0ab4056a90089b5afb280f69c9a2b37d0ca4ba86e73e38cc69bb7e65fa50203e",
      "s": "0x0537baf6dae39462695767154b26033f9d99e5d89c40b55e9894baf01ae9fce8",
      "v": 28,
      "creates": null,
      "raw": "0xf86c51850d7aef337d825208940f87fb507513e749081e34373c84e95e85b5c057883af6b6af11715a18801ca00ab4056a90089b5afb280f69c9a2b37d0ca4ba86e73e38cc69bb7e65fa50203ea00537baf6dae39462695767154b26033f9d99e5d89c40b55e9894baf01ae9fce8",
      "networkId": 0,
      "chainId": 0
    }
  ]
}