{
  "hash": "0xa6b436b4ecb4fe86a70dce84a5abfedca0fe9ceee752dac67654f5bce458c904",
  "parentHash": "0x9154876a69f5f0fa028f8f5f56af68dae2eae28f5ea24653c18d4cf3a20d3753",
  "number": 118500,
  "timestamp": 1440127058,
  "nonce": "0xa8600f72171bb848",
  "difficulty": 4293118328018,
  "gasLimit": {
    "_hex": "0x2fefd8"
  },
  "gasUsed": {
    "_hex": "0x5208"
  },
  "miner": "0x52bc44d5378309EE2abF1539BF71dE1b7d7bE3b5",
  "extraData": "0xd783010002844765746887676f312e342e32856c696e7578",
  "transactions": [
    {
      "hash": "0xd817a130d746688b7066b6edb3b8e7082f2e47246ff7434ddc26410e3dfb4df0",
      "blockHash": "0xa6b436b4ecb4fe86a70dce84a5abfedca0fe9ceee752dac67654f5bce458c904",
      "blockNumber": 118500,
      "transactionIndex": 0,
      "confirmations": null,
      "from": "0x007f7f58D3eb5b7510A301eCC749FC1fCDDBE14D",
      "gasPrice": {
        "_hex": "0xba43b7400"
      },
      "gasLimit": {
        "_hex": "0x15f90"
      },
      "to": "0xb1abce2918E21ddb93AA452731a12672A3d9F75a",
      "value": {
        "_hex": "0x4563918244f40000"
      },
      "nonce": 343,
      "data": "0x",
      "r": "0xf6d83004a7a76a64938d5f9a31371f1fb6b7bde870b331c3816af9ed7e3b9277",
      "s": "0x47ce18e08f39c6ecf78be53ef5f6c8c6e9bdc0ac664368c13b59ec9de87cda5f",
      "v": 27,
      "creates": null,
      "raw": "0xf86f820157850ba43b740083015f9094b1abce2918e21ddb93aa452731a12672a3d9f75a884563918244f40000801ba0f6d83004a7a76a64938d5f9a31371f1fb6b7bde870b331c3816af9ed7e3b9277a047ce18e08f39c6ecf78be53ef5f6c8c6e9bdc0ac664368c13b59ec9de87cda5f",
      "networkId": 0,
      "chainId": 0
    }
  ]
}