{
  "hash": "0xf80c41338f77c5a56117c95b82e338c6fe4f749bccd8ea5b269afd71b8fa5417",
  "parentHash": "0x8ff4e330ed6fd22f9fd4e871c754b87e914ec29f258f963c5ecace3084e393c1",
  "number": 50894,
  "timestamp": 1438996206,
  "nonce": "0xb07dd9c223bcf442",
  "difficulty": 1550698302797,
  "gasLimit": {
    "_hex": "0x80903"
  },
  "gasUsed": {
    "_hex": "0xa674"
  },
  "miner": "0xf927a40C8B7F6E07c5af7FA2155B4864a4112B13",
  "extraData": "0x476574682f76312e302e312f6c696e75782f676f312e342e32",
  "transactions": [
    {
      "hash": "0x04b71b0d6ad961fed16568dba44cf5545acdb9dcb00c5971a48db847382671ce",
      "blockHash": "0xf80c41338f77c5a56117c95b82e338c6fe4f749bccd8ea5b269afd71b8fa5417",
      "blockNumber": 50894,
      "transactionIndex": 0,
      "confirmations": null,
      "from": "0xAe635bf73831119d2D29C0d04FF8F8D8d0a57a46",
      "gasPrice": {
        "_hex": "0x110c8f7d8de"
      },
      "gasLimit": {
        "_hex": "0xc350"
      },
      "to": "0x2910543Af39abA0Cd09dBb2D50200b3E800A63D2",
      "value": {
        "_hex": "0x486cb9799191e00000"
      },
      "nonce": 0,
      "data": "0x454e39433133473347",
      "r": "0xf9e6b317efd1b61969b466d5b3ce2d119b6df26266c9dc884f3c248f8cdd0055",
      "s": "0xfc997732ee165c402cea33f44a0f7cdde85086fda3ad815ec61bd4859f551250",
      "v": 28,
      "creates": null,
      "raw": "0xf87780860110c8f7d8de82c350942910543af39aba0cd09dbb2d50200b3e800a63d289486cb9799191e0000089454e394331334733471ca0f9e6b317efd1b61969b466d5b3ce2d119b6df26266c9dc884f3c248f8cdd0055a0fc997732ee165c402cea33f44a0f7cdde85086fda3ad815ec61bd4859f551250",
      "networkId": 0,
      "chainId": 0
    },
    {
      "hash": "0xc13c8d479806eca99869a5735ac335494952c81abacdfdd1d16084e2fb05922a",
      "blockHash": "0xf80c41338f77c5a56117c95b82e338c6fe4f749bccd8ea5b269afd71b8fa5417",
      "blockNumber": 50894,
      "transactionIndex": 1,
      "confirmations": null,
      "from": "0x1c7214DE5162a5606CF124ed3A8c3556b1899804",
      "gasPrice": {
        "_hex": "0xdf6dbbc74"
      },
      "gasLimit": {
        "_hex": "0x5208"
      },
      "to": "0x32Be343B94f860124dC4fEe278FDCBD38C102D88",
      "value": {
        "_hex": "0x15ecbf62b71c800"
      },
      "nonce": 0,
      "data": "0x",
      "r": "0xe0cb1f5d9bffd6a12d08756fd4c42f35e0a633249767619d25b06b3b471542e1",
      "s": "0x61eefbe287b1372b4dbd72593739cd682adceb79cdd82cc163c87bf1c8232bb7",
      "v": 27,
      "creates": null,
      "raw": "0xf86c80850df6dbbc748252089432be343b94f860124dc4fee278fdcbd38c102d8888015ecbf62b71c800801ba0e0cb1f5d9bffd6a12d08756fd4c42f35e0a633249767619d25b06b3b471542e1a061eefbe287b1372b4dbd72593739cd682adceb79cdd82cc163c87bf1c8232bb7",
      "networkId": 0,
      "chainId": 0
    }
  ]
}