{
  "hash": "0x721601e7bc1421a649725c39d0a4be41b7b2901eda53267d715affd5c59e6af8",
  "parentHash": "0xc23c2bb233a74c9685b38450a84b4eef0f70346dceced0da98391c847c3d307a",
  "number": 96936,
  "timestamp": 1439748335,
  "nonce": "0xab80f96fbd1b7e12",
  "difficulty": 3732229756514,
  "gasLimit": {
    "_hex": "0x2fefd8"
  },
  "gasUsed": {
    "_hex": "0x5208"
  },
  "miner": "0xe6A7a1d47ff21B6321162AEA7C6CB457D5476Bca",
  "extraData": "0x476574682f76312e302e312d38326566323666362f6c696e75782f676f312e34",
  "transactions": [
    {
      "hash": "0x31c9f0c3d0f8b554f9c57729ce437ed9c94d3d41dc49117de3fc2d6b16641e15",
      "blockHash": "0x721601e7bc1421a649725c39d0a4be41b7b2901eda53267d715affd5c59e6af8",
      "blockNumber": 96936,
      "transactionIndex": 0,
      "confirmations": null,
      "from": "0xCaf1C12c783fCcC4066e87a376F94518141dEF80",
      "gasPrice": {
        "_hex": "0xba43b7400"
      },
      "gasLimit": {
        "_hex": "0x5208"
      },
      "to": "0xC47Aaa860008be6f65B58c6C6E02a84e666EfE31",
      "value": {
        "_hex": "0x18182b781df51e0f0"
      },
      "nonce": 3,
      "data": "0x",
      "r": "0x0c590c0c3f00da7996758a9dfe5d22af497fa853664932d24d362dc9f4a9aad9",
      "s": "0x728125970062d90f7ab067e3737d7d178596f27cc655eb1d4e83bd74800c8c2c",
      "v": 28,
      "creates": null,
      "raw": "0xf86d03850ba43b740082520894c47aaa860008be6f65b58c6c6e02a84e666efe3189018182b781df51e0f0801ca00c590c0c3f00da7996758a9dfe5d22af497fa853664932d24d362dc9f4a9aad9a0728125970062d90f7ab067e3737d7d178596f27cc655eb1d4e83bd74800c8c2c",
      "networkId": 0,
      "chainId": 0
    }
  ]
}