{
  "hash": "0xc5cbdb138505f7f074a86789ee9f4f7a95e9557879634e603b0e3795dfa2d504",
  "parentHash": "0xf56e1efee4f2a56cd6da3b270a2b35a9822950cfe85b0b92794e7e5327d67aa4",
  "number": 47827,
  "timestamp": 1438947044,
  "nonce": "0xd82f09ad9ce94ab2",
  "difficulty": 1457990676291,
  "gasLimit": {
    "_hex": "0xf87a"
  },
  "gasUsed": {
    "_hex": "0x546c"
  },
  "miner": "0x1B7047b4338ACf65bE94C1A3e8c5c9338ad7d67C",
  "extraData": "0x476574682f76312e302e312d38326566323666362f6c696e75782f676f312e34",
  "transactions": [
    {
      "hash": "0x3719e26451ccd310afc8919048210c1f1c89d508ae891fefff8ec000bbefa986",
      "blockHash": "0xc5cbdb138505f7f074a86789ee9f4f7a95e9557879634e603b0e3795dfa2d504",
      "blockNumber": 47827,
      "transactionIndex": 0,
      "confirmations": null,
      "from": "0x6B925dD5D8eD6132Ab6D0860b82C44e1a51F1fEe",
      "gasPrice": {
        "_hex": "0xdc0d96494"
      },
      "gasLimit": {
        "_hex": "0x55f0"
      },
      "to": "0x2910543Af39abA0Cd09dBb2D50200b3E800A63D2",
      "value": {
        "_hex": "0xad78ebc5ac6200000"
      },
      "nonce": 4,
      "data": "0x454e30585642304552",
      "r": "0x26da2eb97ac8f81c8e1604c737fe9bdd9c76042dae852251e6af3270c9625d5d",
      "s": "0x725ab58ef7b39e844f6478dc43d145e912d4ae7ae99f5087a72c787d2207dfbe",
      "v": 27,
      "creates": null,
      "raw": "0xf87604850dc0d964948255f0942910543af39aba0cd09dbb2d50200b3e800a63d2890ad78ebc5ac620000089454e305856423045521ba026da2eb97ac8f81c8e1604c737fe9bdd9c76042dae852251e6af3270c9625d5da0725ab58ef7b39e844f6478dc43d145e912d4ae7ae99f5087a72c787d2207dfbe",
      "networkId": 0,
      "chainId": 0
    }
  ]
}