{
  "hash": "0x4c618b1ba86991cad05432c6ecedce4c5c3848a276dc6cb6a3557ae7b8bdcaf4",
  "parentHash": "0x0630cd927196a3ef889b27f7dc6eb368ef4240bf85288b6e1ada12db1108182f",
  "number": 71630,
  "timestamp": 1439339231,
  "nonce": "0xfda35b6ce9985a99",
  "difficulty": 2181436163409,
  "gasLimit": {
    "_hex": "0x2fefd8"
  },
  "gasUsed": {
    "_hex": "0xae73"
  },
  "miner": "0xf927a40C8B7F6E07c5af7FA2155B4864a4112B13",
  "extraData": "0x",
  "transactions": [
    {
      "hash": "0xbbc1c31b5273e3ee019e8ed8d8bb2a2ca17189f9bc3f8eb4237c1b06beb5c420",
      "blockHash": "0x4c618b1ba86991cad05432c6ecedce4c5c3848a276dc6cb6a3557ae7b8bdcaf4",
      "blockNumber": 71630,
      "transactionIndex": 0,
      "confirmations": null,
      "from": "0x17580B766f7453525ca4C6A88b01b50570EA088C",
      "gasPrice": {
        "_hex": "0xd793f5981"
      },
      "gasLimit": {
        "_hex": "0x61a80"
      },
      "to": "0x5Fe5B7546D1628f7348B023A0393de1FC825A4fD",
      "value": {
        "_hex": "0x8ac7230489e80000"
      },
      "nonce": 238,
      "data": "0xb595b8b50000000000000000000000000000000000000000000000000000000000000000",
      "r": "0xcce9a24ff284b69858649ae2225b155d14b377e578cecf07ca1c57db69613cce",
      "s": "0x2e28eee64a0d3324c084fed9a528756d03aa248ec330369ada758cdd41d2e6ac",
      "v": 28,
      "creates": null,
      "raw": "0xf89281ee850d793f598183061a80945fe5b7546d1628f7348b023a0393de1fc825a4fd888ac7230489e80000a4b595b8b500000000000000000000000000000000000000000000000000000000000000001ca0cce9a24ff284b69858649ae2225b155d14b377e578cecf07ca1c57db69613ccea02e28eee64a0d3324c084fed9a528756d03aa248ec330369ada758cdd41d2e6ac",
      "networkId": 0,
      "chainId": 0
    }
  ]
}