{
  "hash": "0xe9efc84c897933e6d28b3f7551cae12a394c059551c0f2a42ee6b893ccbeeec9",
  "parentHash": "0xebac7e2cc1719a5b48bf4cca1194c1cc7b5947b7212fc76071292cd214958517",
  "number": 96572,
  "timestamp": 1439742441,
  "nonce": "0xa974aa33dcf67e2e",
  "difficulty": 3706964320205,
  "gasLimit": {
    "_hex": "0x2fefd8"
  },
  "gasUsed": {
    "_hex": "0xa410"
  },
  "miner": "0xe6A7a1d47ff21B6321162AEA7C6CB457D5476Bca",
  "extraData": "0x476574682f76312e302e312d38326566323666362f6c696e75782f676f312e34",
  "transactions": [
    {
      "hash": "0x651ff5f0153c6ce962af664748366ea2e82be77e905d05d46dc96529447e7915",
      "blockHash": "0xe9efc84c897933e6d28b3f7551cae12a394c059551c0f2a42ee6b893ccbeeec9",
      "blockNumber": 96572,
      "transactionIndex": 0,
      "confirmations": null,
      "from": "0x007f7f58D3eb5b7510A301eCC749FC1fCDDBE14D",
      "gasPrice": {
        "_hex": "0xe308e1d1f"
      },
      "gasLimit": {
        "_hex": "0x15f90"
      },
      "to": "0xb1abce2918E21ddb93AA452731a12672A3d9F75a",
      "value": {
        "_hex": "0x4563918244f40000"
      },
      "nonce": 84,
      "data": "0x",
      "r": "0xe9de98ab413d9c98869809d485ebb0ee5f8325fc3aee73328dc250e395d5d7a0",
      "s": "0x47e9cc7c81e95370a0e979dfba2613dca4c5eba04e7a05eb83a16f457abb4645",
      "v": 28,
      "creates": null,
      "raw": "0xf86d54850e308e1d1f83015f9094b1abce2918e21ddb93aa452731a12672a3d9f75a884563918244f40000801ca0e9de98ab413d9c98869809d485ebb0ee5f8325fc3aee73328dc250e395d5d7a0a047e9cc7c81e95370a0e979dfba2613dca4c5eba04e7a05eb83a16f457abb4645",
      "networkId": 0,
      "chainId": 0
    },
    {
      "hash": "0x8980785aaf0e0c0f7df16b7b2d6d6ca328217fb941587f80ec87fa55c5b2e2ae",
      "blockHash": "0xe9efc84c897933e6d28b3f7551cae12a394c059551c0f2a42ee6b893ccbeeec9",
      "blockNumber": 96572,
      "transactionIndex": 1,
      "confirmations": null,
      "from": "0xa70a9a7040d542C632D8e0bE7c5513A8a5Bbc752",
      "gasPrice": {
        "_hex": "0xdd1605d23"
      },
      "gasLimit": {
        "_hex": "0x5208"
      },
      "to": "0x32Be343B94f860124dC4fEe278FDCBD38C102D88",
      "value": {
        "_hex": "0x455f240f6872c000"
      },
      "nonce": 162,
      "data": "0x",
      "r": "0x837d2395b56d68ac3fae1ccf6f06d72635eabf9ffa7e7487f9f6f2083dd04124",
      "s": "0x5a40f01f8a49940dc78aadb447c664d50aa8edeccb3d1a11fff03f55bf62729e",
      "v": 28,
      "creates": null,
      "raw": "0xf86d81a2850dd1605d238252089432be343b94f860124dc4fee278fdcbd38c102d8888455f240f6872c000801ca0837d2395b56d68ac3fae1ccf6f06d72635eabf9ffa7e7487f9f6f2083dd04124a05a40f01f8a49940dc78aadb447c664d50aa8edeccb3d1a11fff03f55bf62729e",
      "networkId": 0,
      "chainId": 0
    }
  ]
}