{
  "hash": "0x0843f9dd723329ed1dd95209a07fa791539ccf5c4e84dfeba5da3203c38db8b2",
  "parentHash": "0x56971f2e81166153d43080021b8c0c64decb80ee4b8631e30e734fc991370f72",
  "number": 110458,
  "timestamp": 1439974140,
  "nonce": "0x6d25ea7185476e47",
  "difficulty": 4377714226476,
  "gasLimit": {
    "_hex": "0x2fefd8"
  },
  "gasUsed": {
    "_hex": "0xf618"
  },
  "miner": "0xf927a40C8B7F6E07c5af7FA2155B4864a4112B13",
  "extraData": "0x",
  "transactions": [
    {
      "hash": "0xe4faf80d427ebebcb2765143553fdb4b9f6ec6f5693aec0c194968dbcc56740b",
      "blockHash": "0x0843f9dd723329ed1dd95209a07fa791539ccf5c4e84dfeba5da3203c38db8b2",
      "blockNumber": 110458,
      "transactionIndex": 0,
      "confirmations": null,
      "from": "0x383Ad663AFd1716301FC92d469d9985b97cfBCB0",
      "gasPrice": {
        "_hex": "0xe02e7371e"
      },
      "gasLimit": {
        "_hex": "0x5208"
      },
      "to": "0x32Be343B94f860124dC4fEe278FDCBD38C102D88",
      "value": {
        "_hex": "0x1d22b0488810ab000"
      },
      "nonce": 5,
      "data": "0x",
      "r": "0x15c54a53c645d4e18cf532c873aabb0059a531febc7c78ce8a205bde4cb5b362",
      "s": "0x6eedacdd8c7c43ba30faf941eb2be1f98e506d0cb148968f3c699f2066e9be77",
      "v": 28,
      "creates": null,
      "raw": "0xf86d05850e02e7371e8252089432be343b94f860124dc4fee278fdcbd38c102d888901d22b0488810ab000801ca015c54a53c645d4e18cf532c873aabb0059a531febc7c78ce8a205bde4cb5b362a06eedacdd8c7c43ba30faf941eb2be1f98e506d0cb148968f3c699f2066e9be77",
      "networkId": 0,
      "chainId": 0
    },
    {
      "hash": "0x0473c9be17049906e804d04eb358a9c7c45f8aaa6438b0659df95a02d112d7ba",
      "blockHash": "0x0843f9dd723329ed1dd95209a07fa791539ccf5c4e84dfeba5da3203c38db8b2",
      "blockNumber": 110458,
      "transactionIndex": 1,
      "confirmations": null,
      "from": "0x608f4b86321a68453f9adf6F06F7Fc3E621739ad",
      "gasPrice": {
        "_hex": "0xe02e7371e"
      },
      "gasLimit": {
        "_hex": "0x5208"
      },
      "to": "0x32Be343B94f860124dC4fEe278FDCBD38C102D88",
      "value": {
        "_hex": "0x2616e2c702f2200000"
      },
      "nonce": 6,
      "data": "0x",
      "r": "0xdb0395761b290e8623c1a14eca28220cd6ae172e0211cadbf849402cf90cb5c6",
      "s": "0x37928a0aa16d864abeb34a400b50ed35bbd7d4fde741ff310dbdd13c202a19de",
      "v": 27,
      "creates": null,
      "raw": "0xf86d06850e02e7371e8252089432be343b94f860124dc4fee278fdcbd38c102d88892616e2c702f2200000801ba0db0395761b290e8623c1a14eca28220cd6ae172e0211cadbf849402cf90cb5c6a037928a0aa16d864abeb34a400b50ed35bbd7d4fde741ff310dbdd13c202a19de",
      "networkId": 0,
      "chainId": 0
    },
    {
      "hash": "0xd15b627d4f29ddce722698b5684cdec1473cc8480f488719f5c52d7afcd91971",
      "blockHash": "0x0843f9dd723329ed1dd95209a07fa791539ccf5c4e84dfeba5da3203c38db8b2",
      "blockNumber": 110458,
      "transactionIndex": 2,
      "confirmations": null,
      "from": "0x13065c2648269D5b802D31341006d0b458a187fE",
      "gasPrice": {
        "_hex": "0xe02e7371e"
      },
      "gasLimit": {
        "_hex": "0x5208"
      },
      "to": "0x32Be343B94f860124dC4fEe278FDCBD38C102D88",
      "value": {
        "_hex": "0x1746f04e83b6d0000"
      },
      "nonce": 5,
      "data": "0x",
      "r": "0x6e799618b47a70e88172ab3a23d2ebde85dcbefa2da3fb98c63ec0059dbec809",
      "s": "0x3a62549c72f07defed8a3fa578aab22679df2eb68daf28b809343e7f0f27d584",
      "v": 28,
      "creates": null,
      "raw": "0xf86d05850e02e7371e8252089432be343b94f860124dc4fee278fdcbd38c102d888901746f04e83b6d0000801ca06e799618b47a70e88172ab3a23d2ebde85dcbefa2da3fb98c63ec0059dbec809a03a62549c72f07defed8a3fa578aab22679df2eb68daf28b809343e7f0f27d584",
      "networkId": 0,
      "chainId": 0
    }
  ]
}