{
  "hash": "0xe6dc721a40454110b8d376373f9880073e8b59f3a855058e4511eda1a574d781",
  "parentHash": "0x10dc158599167dec9ca2f02ca52a2195266fdcd6908b9a8ec0c0f49b784e05ad",
  "number": 102804,
  "timestamp": 1439843378,
  "nonce": "0x3c45f776478e4d38",
  "difficulty": 4052419636704,
  "gasLimit": {
    "_hex": "0x2fefd5"
  },
  "gasUsed": {
    "_hex": "0x18326"
  },
  "miner": "0xbb7B8287f3F0a933474a79eAe42CBCa977791171",
  "extraData": "0x476574682f4c5649562f76312e302e312f6c696e75782f676f312e342e32",
  "transactions": [
    {
      "hash": "0x9265bea4374374040b07a8ce8ab0811cb5c5c4dd6262450734af29a27e28b377",
      "blockHash": "0xe6dc721a40454110b8d376373f9880073e8b59f3a855058e4511eda1a574d781",
      "blockNumber": 102804,
      "transactionIndex": 0,
      "confirmations": null,
      "from": "0x841145B44840C946E21dbC190264b8E0D5029369",
      "gasPrice": {
        "_hex": "0xd5e23b7a5"
      },
      "gasLimit": {
        "_hex": "0x249f0"
      },
      "to": "0xE28e72FCf78647ADCe1F1252F240bbfaebD63BcC",
      "value": {
        "_hex": "0xa968163f0a57b400000"
      },
      "nonce": 1,
      "data": "0x45466f3a",
      "r": "0xc59192b20bda2ca11ffd532f7f081c427ea869dd6f1fbb336f32c4547a020559",
      "s": "0x30814cc20b3ffcc5aef0e2431889819ab3285a12d9d2be9810112494b65fe37d",
      "v": 27,
      "creates": null,
      "raw": "0xf87301850d5e23b7a5830249f094e28e72fcf78647adce1f1252f240bbfaebd63bcc8a0a968163f0a57b4000008445466f3a1ba0c59192b20bda2ca11ffd532f7f081c427ea869dd6f1fbb336f32c4547a020559a030814cc20b3ffcc5aef0e2431889819ab3285a12d9d2be9810112494b65fe37d",
      "networkId": 0,
      "chainId": 0
    }
  ]
}