{
  "hash": "0x7d4c2b7fd88b72d15df9c3e294d8a672e62587a24c71293e777bf36d0203dc42",
  "parentHash": "0xc0ebc4313446a500bac2b2a57c42e32d776a30cfd1b255251f5cdbe02d974664",
  "number": 73524,
  "timestamp": 1439370495,
  "nonce": "0x3748b22e69cc1114",
  "difficulty": 2226131848303,
  "gasLimit": {
    "_hex": "0x2fefd8"
  },
  "gasUsed": {
    "_hex": "0x5208"
  },
  "miner": "0xa50ec0D39fa913E62f1Bae7074E6F36caA71855b",
  "extraData": "0x",
  "transactions": [
    {
      "hash": "0xf6d5a7eae8895f046baae0950a81b61aece583067ca27756451122016aeb5727",
      "blockHash": "0x7d4c2b7fd88b72d15df9c3e294d8a672e62587a24c71293e777bf36d0203dc42",
      "blockNumber": 73524,
      "transactionIndex": 0,
      "confirmations": null,
      "from": "0x806854588ECce541495f81c28a290373df0274B2",
      "gasPrice": {
        "_hex": "0xba43b7400"
      },
      "gasLimit": {
        "_hex": "0x5208"
      },
      "to": "0xC3Ff472485ebe25dAe8d7d96d49Bb59a03103B38",
      "value": {
        "_hex": "0x1f8cdba17660546000"
      },
      "nonce": 0,
      "data": "0x",
      "r": "0xe2b9db68b04e1dd4f82ae4c76e79c286d67691cc0d501f50ed0352689fca90f6",
      "s": "0x51e5e3d8ce488787ef34ce4626e06da008e7b3ebcfcf8a39de4a943d168abd46",
      "v": 28,
      "creates": null,
      "raw": "0xf86d80850ba43b740082520894c3ff472485ebe25dae8d7d96d49bb59a03103b38891f8cdba17660546000801ca0e2b9db68b04e1dd4f82ae4c76e79c286d67691cc0d501f50ed0352689fca90f6a051e5e3d8ce488787ef34ce4626e06da008e7b3ebcfcf8a39de4a943d168abd46",
      "networkId": 0,
      "chainId": 0
    }
  ]
}