{
  "hash": "0xd7951f92fe57aa5398e537a537fcfc9a9bcc66eda6cb9ed2581efa9a925654d8",
  "parentHash": "0x363a9c52d79e7f5766cd1caf974e53a981297e95157aef5ca4f72ad56d1b9cf8",
  "number": 106402,
  "timestamp": 1439903607,
  "nonce": "0x171354c602112559",
  "difficulty": 4488076885553,
  "gasLimit": {
    "_hex": "0x2fefd8"
  },
  "gasUsed": {
    "_hex": "0x6ed3"
  },
  "miner": "0x0193d941b50d91BE6567c7eE1C0Fe7AF498b4137",
  "extraData": "0x4a5ace9e4e",
  "transactions": [
    {
      "hash": "0xd8b090d2a86dbd0b776fbe8c81d3c8903d57e4ab6b666fbbb6d2a283cbfbfd50",
      "blockHash": "0xd7951f92fe57aa5398e537a537fcfc9a9bcc66eda6cb9ed2581efa9a925654d8",
      "blockNumber": 106402,
      "transactionIndex": 0,
      "confirmations": null,
      "from": "0x87C5B5874A18B4306DF8a752a6C8cc3E82daFc19",
      "gasPrice": {
        "_hex": "0x107b907c5c5"
      },
      "gasLimit": {
        "_hex": "0x493e0"
      },
      "to": "0xD79B4C6791784184e2755B2fC1659eaaB0f80456",
      "value": {
        "_hex": "0x0"
      },
      "nonce": 349,
      "data": "0xbd66528a6b6b6b0000000000000000000000000000000000000000000000000000000000",
      "r": "0xf525ae99eb5b36ecfb491fe2da89ab45069994865ae9236c2d8130b86f24084d",
      "s": "0x66924fb6ce89dcdd8740543b56e9c09924ae3d122dba446f8d5d82aa85a7bab5",
      "v": 27,
      "creates": null,
      "raw": "0xf88c82015d860107b907c5c5830493e094d79b4c6791784184e2755b2fc1659eaab0f8045680a4bd66528a6b6b6b00000000000000000000000000000000000000000000000000000000001ba0f525ae99eb5b36ecfb491fe2da89ab45069994865ae9236c2d8130b86f24084da066924fb6ce89dcdd8740543b56e9c09924ae3d122dba446f8d5d82aa85a7bab5",
      "networkId": 0,
      "chainId": 0
    }
  ]
}