{
  "hash": "0x4c634aae3e606619d98df627508c1e3c18cd923729f4e599d13dd7961f1a5a85",
  "parentHash": "0xde567673d2db467b53411db593b9d4263b227e93919a85b51b836cf9b31256e0",
  "number": 84722,
  "timestamp": 1439553711,
  "nonce": "0x9172945892bc3585",
  "difficulty": 2611862064336,
  "gasLimit": {
    "_hex": "0x2fefd8"
  },
  "gasUsed": {
    "_hex": "0x6819"
  },
  "miner": "0xbb7B8287f3F0a933474a79eAe42CBCa977791171",
  "extraData": "0x476574682f4c5649562f76312e302e312f6c696e75782f676f312e342e32",
  "transactions": [
    {
      "hash": "0xdc586e8e57b5f876c370ec0ed01b8fd75b4479257b5cae70c6f4be5249a15059",
      "blockHash": "0x4c634aae3e606619d98df627508c1e3c18cd923729f4e599d13dd7961f1a5a85",
      "blockNumber": 84722,
      "transactionIndex": 0,
      "confirmations": null,
      "from": "0xC4c6bAF00209a0f33331e4B7cb1c7B680A3d2F79",
      "gasPrice": {
        "_hex": "0xd60434bf7"
      },
      "gasLimit": {
        "_hex": "0x15f90"
      },
      "to": "0xa1A111bc074c9cfa781F0C38e63bD51c91b8af00",
      "value": {
        "_hex": "0x0"
      },
      "nonce": 2,
      "data": "0x201745d559554e4200000000000000000000000000000000000000000000000000000000000000000000000000000000c4c6baf00209a0f33331e4b7cb1c7b680a3d2f79",
      "r": "0x0024930d3290119f5dcb6bcadd771f14346f80931f7487607e3b8168aa4a47c6",
      "s": "0x38ae13f42eb617f59f88aac5f89f2847fd7ad9521c1ea8b08e949746c4da0fb2",
      "v": 27,
      "creates": null,
      "raw": "0xf8a902850d60434bf783015f9094a1a111bc074c9cfa781f0c38e63bd51c91b8af0080b844201745d559554e4200000000000000000000000000000000000000000000000000000000000000000000000000000000c4c6baf00209a0f33331e4b7cb1c7b680a3d2f791b9f24930d3290119f5dcb6bcadd771f14346f80931f7487607e3b8168aa4a47c6a038ae13f42eb617f59f88aac5f89f2847fd7ad9521c1ea8b08e949746c4da0fb2",
      "networkId": 0,
      "chainId": 0
    }
  ]
}