{
  "hash": "0x3ac38abd8e81c9b4abff775c62e692e6f059a72c79f6a33fadbe71c3a1d85914",
  "parentHash": "0x263a997123140291586f6f63b08b9e4ca4c5385c19cc48d38fef50d867216cfd",
  "number": 101643,
  "timestamp": 1439825890,
  "nonce": "0x5fbd7f1d443bba51",
  "difficulty": 3892007918677,
  "gasLimit": {
    "_hex": "0x2fefd8"
  },
  "gasUsed": {
    "_hex": "0x14824"
  },
  "miner": "0x49B89158a25D2Bf1E2c4B08f28b35935C1C27A0f",
  "extraData": "0x476574682f76312e302e312f6c696e75782f676f312e342e32",
  "transactions": [
    {
      "hash": "0xb621cdd57638e1c2c4b3b563edc47fa0e50af4b66558fe7da0e359e413089e4a",
      "blockHash": "0x3ac38abd8e81c9b4abff775c62e692e6f059a72c79f6a33fadbe71c3a1d85914",
      "blockNumber": 101643,
      "transactionIndex": 0,
      "confirmations": null,
      "from": "0x854c0c469C246b83b5D1B3eca443B39aF5EE128a",
      "gasPrice": {
        "_hex": "0xd5102c2ac"
      },
      "gasLimit": {
        "_hex": "0x7530"
      },
      "to": "0xBbC2603925265f0e6830656B86bD7E43c1D4731E",
      "value": {
        "_hex": "0x5631aebfd1a7180000"
      },
      "nonce": 0,
      "data": "0x00",
      "r": "0x38258bb02697c1e42d5822e6a7389df36eee93b2111793b2544eff8b2d9ccde1",
      "s": "0x7aaa122add7fec4adc8ceca2427b41f0d1ff56e9907c6fa2576a1d272d800fea",
      "v": 27,
      "creates": null,
      "raw": "0xf86d80850d5102c2ac82753094bbc2603925265f0e6830656b86bd7e43c1d4731e895631aebfd1a7180000001ba038258bb02697c1e42d5822e6a7389df36eee93b2111793b2544eff8b2d9ccde1a07aaa122add7fec4adc8ceca2427b41f0d1ff56e9907c6fa2576a1d272d800fea",
      "networkId": 0,
      "chainId": 0
    },
    {
      "hash": "0xd8175485ce06834cbac3cbfdf95be22bf4a7c4acee0d94b186e5f7782ff96803",
      "blockHash": "0x3ac38abd8e81c9b4abff775c62e692e6f059a72c79f6a33fadbe71c3a1d85914",
      "blockNumber": 101643,
      "transactionIndex": 1,
      "confirmations": null,
      "from": "0x263D845A19110802000139cbb7a4BBF2B2B8d6C0",
      "gasPrice": {
        "_hex": "0xd2270a825"
      },
      "gasLimit": {
        "_hex": "0x5208"
      },
      "to": "0x32Be343B94f860124dC4fEe278FDCBD38C102D88",
      "value": {
        "_hex": "0xcf5d53fbe344b000"
      },
      "nonce": 3,
      "data": "0x",
      "r": "0x5e056f69075d74468324482d83349d78daec58ac25467928d474e4f226f0982c",
      "s": "0x2c3be92695d573ac056ac34aa562665d6502f8c30813e1c5a14e7832b7d970cd",
      "v": 27,
      "creates": null,
      "raw": "0xf86c03850d2270a8258252089432be343b94f860124dc4fee278fdcbd38c102d8888cf5d53fbe344b000801ba05e056f69075d74468324482d83349d78daec58ac25467928d474e4f226f0982ca02c3be92695d573ac056ac34aa562665d6502f8c30813e1c5a14e7832b7d970cd",
      "networkId": 0,
      "chainId": 0
    },
    {
      "hash": "0x9be7e62b7df705729f697dc36bd3fcbc5b1c90c2abd04bbcfcdf1a1a7381b719",
      "blockHash": "0x3ac38abd8e81c9b4abff775c62e692e6f059a72c79f6a33fadbe71c3a1d85914",
      "blockNumber": 101643,
      "transactionIndex": 2,
      "confirmations": null,
      "from": "0x8F79f76381Aad7B98C19aF55eE75fdfEeb012211",
      "gasPrice": {
        "_hex": "0xd2270a825"
      },
      "gasLimit": {
        "_hex": "0x5208"
      },
      "to": "0x32Be343B94f860124dC4fEe278FDCBD38C102D88",
      "value": {
        "_hex": "0x2df819dc081394000"
      },
      "nonce": 41,
      "data": "0x",
      "r": "0x83a5a5ccefdfb508716e030de107687d7c6d884fd461b2445b05c88161447c03",
      "s": "0x05109e3fc3de36f5fe597490ea0cce4d2501e6dbc3c6f41865fa80315474a961",
      "v": 28,
      "creates": null,
      "raw": "0xf86d29850d2270a8258252089432be343b94f860124dc4fee278fdcbd38c102d888902df819dc081394000801ca083a5a5ccefdfb508716e030de107687d7c6d884fd461b2445b05c88161447c03a005109e3fc3de36f5fe597490ea0cce4d2501e6dbc3c6f41865fa80315474a961",
      "networkId": 0,
      "chainId": 0
    },
    {
      "hash": "0x5419b63c6f834b4473fb2ec225838a384c0d48aca5dfd0e25c4e4029c29277c9",
      "blockHash": "0x3ac38abd8e81c9b4abff775c62e692e6f059a72c79f6a33fadbe71c3a1d85914",
      "blockNumber": 101643,
      "transactionIndex": 3,
      "confirmations": null,
      "from": "0x2910543Af39abA0Cd09dBb2D50200b3E800A63D2",
      "gasPrice": {
        "_hex": "0xcebfcb270"
      },
      "gasLimit": {
        "_hex": "0x5208"
      },
      "to": "0xB6bADD2F79d5B5ccf627466F77e64821cCE6E7f2",
      "value": {
        "_hex": "0x4be4d5630232ff8000"
      },
      "nonce": 974,
      "data": "0x",
      "r": "0x332c97c08c63b46656a33331e5eb8d1024c7f9fc43360281e919d8580eb18c70",
      "s": "0x66a87d96b8a625af3edfce53afbfe96b1e1f2bbed07579758a7f0b9a6da2b735",
      "v": 27,
      "creates": null,
      "raw": "0xf86f8203ce850cebfcb27082520894b6badd2f79d5b5ccf627466f77e64821cce6e7f2894be4d5630232ff8000801ba0332c97c08c63b46656a33331e5eb8d1024c7f9fc43360281e919d8580eb18c70a066a87d96b8a625af3edfce53afbfe96b1e1f2bbed07579758a7f0b9a6da2b735",
      "networkId": 0,
      "chainId": 0
    }
  ]
}