{
  "hash": "0x4dc305ffa9980fefe542a2c5009850f259eea1b5b78bd3078a2db68d418348ad",
  "parentHash": "0x39c40d8331ad07f89107b37b0e2dd877968ebee72c1d1343260dd128b6eb8cb8",
  "number": 101854,
  "timestamp": 1439829136,
  "nonce": "0x0ef80084c653dc26",
  "difficulty": 3890010140630,
  "gasLimit": {
    "_hex": "0x2fefd8"
  },
  "gasUsed": {
    "_hex": "0x20fc6"
  },
  "miner": "0xe6A7a1d47ff21B6321162AEA7C6CB457D5476Bca",
  "extraData": "0x476574682f76312e302e312d38326566323666362f6c696e75782f676f312e34",
  "transactions": [
    {
      "hash": "0xe483b636a69b0b171494cfb89e4417903c16e28c2a7b75e2afb7c396d8ae5f38",
      "blockHash": "0x4dc305ffa9980fefe542a2c5009850f259eea1b5b78bd3078a2db68d418348ad",
      "blockNumber": 101854,
      "transactionIndex": 0,
      "confirmations": null,
      "from": "0x9356800797192cA92f2d91bcA335674d79821B79",
      "gasPrice": {
        "_hex": "0xd651435ca"
      },
      "gasLimit": {
        "_hex": "0x249f0"
      },
      "to": "0xE28e72FCf78647ADCe1F1252F240bbfaebD63BcC",
      "value": {
        "_hex": "0x10e6832075b842e00"
      },
      "nonce": 0,
      "data": "0x45466f3a",
      "r": "0x43946e493cdb5c07d8808209971a0f05221b9bd4bce0073330cb2815dda91b54",
      "s": "0x0ccc51fcb6c8772026dccfa5fec3c235bca1dc19f6a627a213640c72413ce070",
      "v": 28,
      "creates": null,
      "raw": "0xf87280850d651435ca830249f094e28e72fcf78647adce1f1252f240bbfaebd63bcc89010e6832075b842e008445466f3a1ca043946e493cdb5c07d8808209971a0f05221b9bd4bce0073330cb2815dda91b54a00ccc51fcb6c8772026dccfa5fec3c235bca1dc19f6a627a213640c72413ce070",
      "networkId": 0,
      "chainId": 0
    },
    {
      "hash": "0x6c23256e24c8c7fe95a5e26ed4fc9212f0f79ae312f67bd0073fe88bac23894a",
      "blockHash": "0x4dc305ffa9980fefe542a2c5009850f259eea1b5b78bd3078a2db68d418348ad",
      "blockNumber": 101854,
      "transactionIndex": 1,
      "confirmations": null,
      "from": "0xb1abce2918E21ddb93AA452731a12672A3d9F75a",
      "gasPrice": {
        "_hex": "0xcc3ca0e79"
      },
      "gasLimit": {
        "_hex": "0x5208"
      },
      "to": "0x32Be343B94f860124dC4fEe278FDCBD38C102D88",
      "value": {
        "_hex": "0xd0269d6a8f487000"
      },
      "nonce": 95,
      "data": "0x",
      "r": "0x939bcb93e92fe8b2d91dfc75df217dbb1fdeb9de239c50ab2d2a2d9bf25e7144",
      "s": "0x5f28d61c2dfb0aabc60dee582825d9090624d5d357a34d0d945b8f158dc43bfa",
      "v": 27,
      "creates": null,
      "raw": "0xf86c5f850cc3ca0e798252089432be343b94f860124dc4fee278fdcbd38c102d8888d0269d6a8f487000801ba0939bcb93e92fe8b2d91dfc75df217dbb1fdeb9de239c50ab2d2a2d9bf25e7144a05f28d61c2dfb0aabc60dee582825d9090624d5d357a34d0d945b8f158dc43bfa",
      "networkId": 0,
      "chainId": 0
    }
  ]
}