{
  "hash": "0x64e71079c23eb07e180af5741d0759e1a2500fa88caa652249846f2aaf1d17f7",
  "parentHash": "0xe98c330ccfdd1ebf87df1137c13b42188c4088397916404935cb76597bdc71d4",
  "number": 113441,
  "timestamp": 1440023627,
  "nonce": "0x12216c8c2346e241",
  "difficulty": 4460291358761,
  "gasLimit": {
    "_hex": "0x2fefd8"
  },
  "gasUsed": {
    "_hex": "0x5208"
  },
  "miner": "0x52bc44d5378309EE2abF1539BF71dE1b7d7bE3b5",
  "extraData": "0x476574682f76312e302e312d61383839306436312f6c696e75782f676f312e34",
  "transactions": [
    {
      "hash": "0xa2bb9d6a5f74c1fe947cec8ded9972a455a7716d84a51df64127f416f89c8255",
      "blockHash": "0x64e71079c23eb07e180af5741d0759e1a2500fa88caa652249846f2aaf1d17f7",
      "blockNumber": 113441,
      "transactionIndex": 0,
      "confirmations": null,
      "from": "0xf89583486CA3C0c21C34400638aBE4b53F993457",
      "gasPrice": {
        "_hex": "0xcfa79d572"
      },
      "gasLimit": {
        "_hex": "0x7a120"
      },
      "to": "0xBBDa93a81B882774e1c9b5e3F933Fa35DaC8bc88",
      "value": {
        "_hex": "0x3782dace9d900000"
      },
      "nonce": 4,
      "data": "0x",
      "r": "0x53f427ea73a2e528fa67b7838e243d614a1eda2875600f54fd2775986dafc8e4",
      "s": "0x02751e07f9aa64cc43084db5d306a58139f0d3a8525626fa51e2eaa2aa1d60b4",
      "v": 27,
      "creates": null,
      "raw": "0xf86d04850cfa79d5728307a12094bbda93a81b882774e1c9b5e3f933fa35dac8bc88883782dace9d900000801ba053f427ea73a2e528fa67b7838e243d614a1eda2875600f54fd2775986dafc8e4a002751e07f9aa64cc43084db5d306a58139f0d3a8525626fa51e2eaa2aa1d60b4",
      "networkId": 0,
      "chainId": 0
    }
  ]
}