{
  "hash": "0xf5eea358650496ea74d75fa1f82d030005216f694ffd29be96e774c72110cad1",
  "parentHash": "0xc636a238fdccdd9b6c1280228e5870d11f369569c8d697e30875cec2902e0e19",
  "number": 70432,
  "timestamp": 1439319677,
  "nonce": "0xb8ce81696be938d3",
  "difficulty": 2141639322289,
  "gasLimit": {
    "_hex": "0x2fefd8"
  },
  "gasUsed": {
    "_hex": "0xa410"
  },
  "miner": "0x3FF679B0823a026F2378E5f5F22A6F127cC85828",
  "extraData": "0x",
  "transactions": [
    {
      "hash": "0x11a218c8861f7d277d56e6448f71d6f5cbcd87a9c8c48bcb5b16b535c4fb9a0e",
      "blockHash": "0xf5eea358650496ea74d75fa1f82d030005216f694ffd29be96e774c72110cad1",
      "blockNumber": 70432,
      "transactionIndex": 0,
      "confirmations": null,
      "from": "0x4aa1e987Ec64AF9Dc59C9e20396D2d11Fc71685A",
      "gasPrice": {
        "_hex": "0xda9383cfc"
      },
      "gasLimit": {
        "_hex": "0x5208"
      },
      "to": "0x32Be343B94f860124dC4fEe278FDCBD38C102D88",
      "value": {
        "_hex": "0xebe7c14bd694a000"
      },
      "nonce": 0,
      "data": "0x",
      "r": "0x5f9f64bf75f858949b56a52bdabfb73c0d91ef77f115d9310e2a0f0ea113f22c",
      "s": "0x13138162b320f378299c5fc36fac26626529db71e89fcc7a96fd295339202a15",
      "v": 27,
      "creates": null,
      "raw": "0xf86c80850da9383cfc8252089432be343b94f860124dc4fee278fdcbd38c102d8888ebe7c14bd694a000801ba05f9f64bf75f858949b56a52bdabfb73c0d91ef77f115d9310e2a0f0ea113f22ca013138162b320f378299c5fc36fac26626529db71e89fcc7a96fd295339202a15",
      "networkId": 0,
      "chainId": 0
    },
    {
      "hash": "0xd2b62f36ea57961ab41277d7aaf0eb390cfd534fb41e3b2de94ee7ba6eb9c788",
      "blockHash": "0xf5eea358650496ea74d75fa1f82d030005216f694ffd29be96e774c72110cad1",
      "blockNumber": 70432,
      "transactionIndex": 1,
      "confirmations": null,
      "from": "0x93Db80284c8E4d2B0eE8586dE2D072208c075145",
      "gasPrice": {
        "_hex": "0xda9383cfc"
      },
      "gasLimit": {
        "_hex": "0x5208"
      },
      "to": "0x32Be343B94f860124dC4fEe278FDCBD38C102D88",
      "value": {
        "_hex": "0x30bc1d38428d1c0000"
      },
      "nonce": 2,
      "data": "0x",
      "r": "0x4a979003ea6a4b743f54d8af8f44c06c1695590ee92d1e0ac1f5cd99d3ddfd3f",
      "s": "0x48ee26a4cb03a3e4ae52892d1b20e5485bf46f3c95b1cbcd8eb59c7687b5f058",
      "v": 28,
      "creates": null,
      "raw": "0xf86d02850da9383cfc8252089432be343b94f860124dc4fee278fdcbd38c102d888930bc1d38428d1c0000801ca04a979003ea6a4b743f54d8af8f44c06c1695590ee92d1e0ac1f5cd99d3ddfd3fa048ee26a4cb03a3e4ae52892d1b20e5485bf46f3c95b1cbcd8eb59c7687b5f058",
      "networkId": 0,
      "chainId": 0
    }
  ]
}