{
  "hash": "0xf07d6a7b007015e3d8b6d45c7d72be30e0bd87809b1beacd792db2c6aea679cf",
  "parentHash": "0xd614a3264f4c07cbff78f7cce230e230e8354fce1d2e0b0be3e15a2c2241fae2",
  "number": 109134,
  "timestamp": 1439951408,
  "nonce": "0xca31b430d36dfa12",
  "difficulty": 4447355084429,
  "gasLimit": {
    "_hex": "0x2fefd8"
  },
  "gasUsed": {
    "_hex": "0x5208"
  },
  "miner": "0x900deD2eC098c430caD5347E6F3322932D7BB3a9",
  "extraData": "0x476574682f76312e302e312f77696e646f77732f676f312e342e32",
  "transactions": [
    {
      "hash": "0xee6aeeaccbf8ea8cf62e7d4cd007e57a6fefe228ce5b93258f697592b3c7bf6a",
      "blockHash": "0xf07d6a7b007015e3d8b6d45c7d72be30e0bd87809b1beacd792db2c6aea679cf",
      "blockNumber": 109134,
      "transactionIndex": 0,
      "confirmations": null,
      "from": "0xb1abce2918E21ddb93AA452731a12672A3d9F75a",
      "gasPrice": {
        "_hex": "0xdf45a78b7"
      },
      "gasLimit": {
        "_hex": "0x5208"
      },
      "to": "0x32Be343B94f860124dC4fEe278FDCBD38C102D88",
      "value": {
        "_hex": "0x9b41b46e8bcea0000"
      },
      "nonce": 140,
      "data": "0x",
      "r": "0x7d160509621f63a0458882027d3f988372513be2cac814a64c14b2379dce8187",
      "s": "0x5a8f102273070be8a65fa993e6beaccb26c3c15fecd20b13fcc733d7846c1a0f",
      "v": 28,
      "creates": null,
      "raw": "0xf86e818c850df45a78b78252089432be343b94f860124dc4fee278fdcbd38c102d888909b41b46e8bcea0000801ca07d160509621f63a0458882027d3f988372513be2cac814a64c14b2379dce8187a05a8f102273070be8a65fa993e6beaccb26c3c15fecd20b13fcc733d7846c1a0f",
      "networkId": 0,
      "chainId": 0
    }
  ]
}