{
  "hash": "0x189847581acb3e1892833b05fd77a79a2c1db4f49b6e283c76ba96bfa281092b",
  "parentHash": "0xa8fa26c7cc0ed287df92670601635e55b146b84496a25a2b2b945d76b85fcce4",
  "number": 119424,
  "timestamp": 1440142699,
  "nonce": "0x3dcb2bdf59bdcee3",
  "difficulty": 4390153278094,
  "gasLimit": {
    "_hex": "0x2fefd8"
  },
  "gasUsed": {
    "_hex": "0x23e38"
  },
  "miner": "0xfABFCDb9aD54126a8829d5aB6357F608C6B005d0",
  "extraData": "0xd983010002844765746887676f312e342e328777696e646f7773",
  "transactions": [
    {
      "hash": "0x11ad520ba027fd65724c4fe7beb780cc2e7dfdf8f0ccad807169c1678924193f",
      "blockHash": "0x189847581acb3e1892833b05fd77a79a2c1db4f49b6e283c76ba96bfa281092b",
      "blockNumber": 119424,
      "transactionIndex": 0,
      "confirmations": null,
      "from": "0xC3fe64D1af00F0d9c324E4387EF7533f7D788e95",
      "gasPrice": {
        "_hex": "0xbf93f42ac"
      },
      "gasLimit": {
        "_hex": "0x5208"
      },
      "to": "0x32Be343B94f860124dC4fEe278FDCBD38C102D88",
      "value": {
        "_hex": "0x50e730cd13063800"
      },
      "nonce": 20,
      "data": "0x",
      "r": "0xd4fd9fe6c90b69e3eac6eaf19c52ffee005bcc0d9adbae4fdcc59d04e6d26bbd",
      "s": "0x4c6fd0664808a8ee3af44080445582ccab820f3c864826d0c080be522717f836",
      "v": 28,
      "creates": null,
      "raw": "0xf86c14850bf93f42ac8252089432be343b94f860124dc4fee278fdcbd38c102d888850e730cd13063800801ca0d4fd9fe6c90b69e3eac6eaf19c52ffee005bcc0d9adbae4fdcc59d04e6d26bbda04c6fd0664808a8ee3af44080445582ccab820f3c864826d0c080be522717f836",
      "networkId": 0,
      "chainId": 0
    },
    {
      "hash": "0xccf69e190e4f6fba9a99d996e79779f85d82ad793253bb741c9d10bc205407e8",
      "blockHash": "0x189847581acb3e1892833b05fd77a79a2c1db4f49b6e283c76ba96bfa281092b",
      "blockNumber": 119424,
      "transactionIndex": 1,
      "confirmations": null,
      "from": "0x60781265e9850f54AE0Bc9545948d05DeE6FC3e3",
      "gasPrice": {
        "_hex": "0xbf93f42ac"
      },
      "gasLimit": {
        "_hex": "0x5208"
      },
      "to": "0x32Be343B94f860124dC4fEe278FDCBD38C102D88",
      "value": {
        "_hex": "0x48d11b0e82b91c00"
      },
      "nonce": 14,
      "data": "0x",
      "r": "0xcc15a442f4132c4e0c21a4b0f7d7b13f83301bd2900812662a6af97acdd36f79",
      "s": "0x619f0fe1d2935e731a02ad39dbb34487a739bd62b61eb9ba04b680882553405b",
      "v": 28,
      "creates": null,
      "raw": "0xf86c0e850bf93f42ac8252089432be343b94f860124dc4fee278fdcbd38c102d888848d11b0e82b91c00801ca0cc15a442f4132c4e0c21a4b0f7d7b13f83301bd2900812662a6af97acdd36f79a0619f0fe1d2935e731a02ad39dbb34487a739bd62b61eb9ba04b680882553405b",
      "networkId": 0,
      "chainId": 0
    },
    {
      "hash": "0x7f92abc912ca170a08f1a0df91e831d8fc9e86403497883e9b5c965a4ff09ff6",
      "blockHash": "0x189847581acb3e1892833b05fd77a79a2c1db4f49b6e283c76ba96bfa281092b",
      "blockNumber": 119424,
      "transactionIndex": 2,
      "confirmations": null,
      "from": "0x08346c0900aefbB6730d0D188c647607eB329f9F",
      "gasPrice": {
        "_hex": "0xbf93f42ac"
      },
      "gasLimit": {
        "_hex": "0x5208"
      },
      "to": "0x32Be343B94f860124dC4fEe278FDCBD38C102D88",
      "value": {
        "_hex": "0x6ba99216dbfb3800"
      },
      "nonce": 3,
      "data": "0x",
      "r": "0x2ca0dd6f7691732611ad0ec4943c08d227cad0868b101941fac3068c0d004ed3",
      "s": "0x3e97c6fb7710f1afc1fa4cc117dc0e95ff26958fc84df296c3455a5cb406216d",
      "v": 27,
      "creates": null,
      "raw": "0xf86c03850bf93f42ac8252089432be343b94f860124dc4fee278fdcbd38c102d88886ba99216dbfb3800801ba02ca0dd6f7691732611ad0ec4943c08d227cad0868b101941fac3068c0d004ed3a03e97c6fb7710f1afc1fa4cc117dc0e95ff26958fc84df296c3455a5cb406216d",
      "networkId": 0,
      "chainId": 0
    },
    {
      "hash": "0x82005a3e0064b8618e173075eecd8cb505ab4848104347714053f5d0dcede2a3",
      "blockHash": "0x189847581acb3e1892833b05fd77a79a2c1db4f49b6e283c76ba96bfa281092b",
      "blockNumber": 119424,
      "transactionIndex": 3,
      "confirmations": null,
      "from": "0xa114c802ef29776f05f9c6925cE915232e8ae102",
      "gasPrice": {
        "_hex": "0xbf93f42ac"
      },
      "gasLimit": {
        "_hex": "0x5208"
      },
      "to": "0x32Be343B94f860124dC4fEe278FDCBD38C102D88",
      "value": {
        "_hex": "0x5528131d91005c00"
      },
      "nonce": 29,
      "data": "0x",
      "r": "0x3598fcb9cc50e5343446d40f089f0fbbbd5dcc7881b7b695a1b983e63f1040d1",
      "s": "0x25667535e4637e63b11182890962a276f4fc414bebe5a83000d5ccc0654e4c04",
      "v": 28,
      "creates": null,
      "raw": "0xf86c1d850bf93f42ac8252089432be343b94f860124dc4fee278fdcbd38c102d88885528131d91005c00801ca03598fcb9cc50e5343446d40f089f0fbbbd5dcc7881b7b695a1b983e63f1040d1a025667535e4637e63b11182890962a276f4fc414bebe5a83000d5ccc0654e4c04",
      "networkId": 0,
      "chainId": 0
    },
    {
      "hash": "0x52d1a01fe9534e2a90aba57ff43c530f7fda16efef54f30d49fc3fb2f422c926",
      "blockHash": "0x189847581acb3e1892833b05fd77a79a2c1db4f49b6e283c76ba96bfa281092b",
      "blockNumber": 119424,
      "transactionIndex": 4,
      "confirmations": null,
      "from": "0x04a2a3ee9C9ea82e1F918ecE209f8A7E6d7521E7",
      "gasPrice": {
        "_hex": "0xbf93f42ac"
      },
      "gasLimit": {
        "_hex": "0x5208"
      },
      "to": "0x32Be343B94f860124dC4fEe278FDCBD38C102D88",
      "value": {
        "_hex": "0x4be19651a472d800"
      },
      "nonce": 20,
      "data": "0x",
      "r": "0x996e54691abb85e1d4cf110e200ae5bc17c4912646db5c40e0e0834121008e6b",
      "s": "0x2e80d4750a7396605121352d68691aba3e4c00d8aa134f55402470d1ec6bcebe",
      "v": 27,
      "creates": null,
      "raw": "0xf86c14850bf93f42ac8252089432be343b94f860124dc4fee278fdcbd38c102d88884be19651a472d800801ba0996e54691abb85e1d4cf110e200ae5bc17c4912646db5c40e0e0834121008e6ba02e80d4750a7396605121352d68691aba3e4c00d8aa134f55402470d1ec6bcebe",
      "networkId": 0,
      "chainId": 0
    },
    {
      "hash": "0xcaa83c4fbf062d61a88e93a1b5894e0ec883b60188bb37bcec8cf60ef928564d",
      "blockHash": "0x189847581acb3e1892833b05fd77a79a2c1db4f49b6e283c76ba96bfa281092b",
      "blockNumber": 119424,
      "transactionIndex": 5,
      "confirmations": null,
      "from": "0x99181ED48C7c51532622dA23e20E2B38392476A7",
      "gasPrice": {
        "_hex": "0xbf93f42ac"
      },
      "gasLimit": {
        "_hex": "0x5208"
      },
      "to": "0x32Be343B94f860124dC4fEe278FDCBD38C102D88",
      "value": {
        "_hex": "0x4805447ad71c000"
      },
      "nonce": 17,
      "data": "0x",
      "r": "0x915b60825a469b97db871ee04b2b568a40027186ecf8b2406b542c061b9ac49e",
      "s": "0x022f2f34dbe0ba8c82b609668622007c15b060fe1d651238d5ac69cecd699c6d",
      "v": 27,
      "creates": null,
      "raw": "0xf86c11850bf93f42ac8252089432be343b94f860124dc4fee278fdcbd38c102d888804805447ad71c000801ba0915b60825a469b97db871ee04b2b568a40027186ecf8b2406b542c061b9ac49ea0022f2f34dbe0ba8c82b609668622007c15b060fe1d651238d5ac69cecd699c6d",
      "networkId": 0,
      "chainId": 0
    },
    {
      "hash": "0x7643c90a98b98967b4d81cb62029606ae4a63d8bb594529f486a660a7d1c6b9d",
      "blockHash": "0x189847581acb3e1892833b05fd77a79a2c1db4f49b6e283c76ba96bfa281092b",
      "blockNumber": 119424,
      "transactionIndex": 6,
      "confirmations": null,
      "from": "0x61E20833179bA2eCCc2065e5F733CC8CdA7394c0",
      "gasPrice": {
        "_hex": "0xbf93f42ac"
      },
      "gasLimit": {
        "_hex": "0x5208"
      },
      "to": "0x32Be343B94f860124dC4fEe278FDCBD38C102D88",
      "value": {
        "_hex": "0x10563f73fcdb9000"
      },
      "nonce": 12,
      "data": "0x",
      "r": "0x18a8b40801b1823f7a44543f46e54046fbe6cbcffb306abc4e99f5f07d5ff9c0",
      "s": "0x605c8d383b9672d01810e7f490637d5f2222f3fcbe3b9976e4e728f0c9671547",
      "v": 28,
      "creates": null,
      "raw": "0xf86c0c850bf93f42ac8252089432be343b94f860124dc4fee278fdcbd38c102d888810563f73fcdb9000801ca018a8b40801b1823f7a44543f46e54046fbe6cbcffb306abc4e99f5f07d5ff9c0a0605c8d383b9672d01810e7f490637d5f2222f3fcbe3b9976e4e728f0c9671547",
      "networkId": 0,
      "chainId": 0
    }
  ]
}