{
  "hash": "0x069a351d83c7e6b85c181826d64d0b5cc6c1b5df7ba17ef4e95d46914aaf1725",
  "parentHash": "0xd65bd1ea03c5dcd8f77684c7acf38c372e35963d2479f1db500ea96909f58083",
  "number": 70683,
  "timestamp": 1439323872,
  "nonce": "0xe38fa23ff233743f",
  "difficulty": 2140529806245,
  "gasLimit": {
    "_hex": "0x2fefd8"
  },
  "gasUsed": {
    "_hex": "0x546c"
  },
  "miner": "0xf8E0CA3Ed80bd541b94BEdCf259e8CF2141A9523",
  "extraData": "0x476574682f76312e302e312f77696e646f77732f676f312e342e32",
  "transactions": [
    {
      "hash": "0x312b67b986297fbe8f5de3aec49b5b03e3e55bb070944456421a7f39497abcc8",
      "blockHash": "0x069a351d83c7e6b85c181826d64d0b5cc6c1b5df7ba17ef4e95d46914aaf1725",
      "blockNumber": 70683,
      "transactionIndex": 0,
      "confirmations": null,
      "from": "0xB3a8C2CB7d358E5739941d945Ba9045a023A8bBB",
      "gasPrice": {
        "_hex": "0xd7d40ace3"
      },
      "gasLimit": {
        "_hex": "0xc350"
      },
      "to": "0x2910543Af39abA0Cd09dBb2D50200b3E800A63D2",
      "value": {
        "_hex": "0x1"
      },
      "nonce": 0,
      "data": "0x454e36324131333338",
      "r": "0x7f1a26c6e45f1ebc43afdf77bc8db728af21938851026cd820bd93768a018d10",
      "s": "0x1c7eca3a4121b78f755c46c047185033a0fd7c9a140a7087a0cd056a6ff25b3f",
      "v": 27,
      "creates": null,
      "raw": "0xf86d80850d7d40ace382c350942910543af39aba0cd09dbb2d50200b3e800a63d20189454e363241313333381ba07f1a26c6e45f1ebc43afdf77bc8db728af21938851026cd820bd93768a018d10a01c7eca3a4121b78f755c46c047185033a0fd7c9a140a7087a0cd056a6ff25b3f",
      "networkId": 0,
      "chainId": 0
    }
  ]
}