{
  "hash": "0x7fea59f62f612203c3cd8bec987f6b2b98708df9c4b8badd4a7145b03b90f146",
  "parentHash": "0x83557012db4de528c28b1e3972b16c531d0e16fabd0b74f5e3e9ac6b9a0e6983",
  "number": 51850,
  "timestamp": 1439012043,
  "nonce": "0x08456fdd445bd9dd",
  "difficulty": 1559633345614,
  "gasLimit": {
    "_hex": "0xe6011"
  },
  "gasUsed": {
    "_hex": "0x30d40"
  },
  "miner": "0xF2d2AfF1320476cb8C6b607199D23175cc595693",
  "extraData": "0x476574682f76312e302e312f77696e646f77732f676f312e342e32",
  "transactions": [
    {
      "hash": "0x961c6031100d9759968f4e11673fd47a6222aee56ed891680464eda798c813d1",
      "blockHash": "0x7fea59f62f612203c3cd8bec987f6b2b98708df9c4b8badd4a7145b03b90f146",
      "blockNumber": 51850,
      "transactionIndex": 0,
      "confirmations": null,
      "from": "0xD9E6086071980fE3484b6BaABA07A10b47B046A6",
      "gasPrice": {
        "_hex": "0x10269b88c4c"
      },
      "gasLimit": {
        "_hex": "0x30d40"
      },
      "to": "0x109C4f2CCc82C4d77Bde15F306707320294Aea3F",
      "value": {
        "_hex": "0xde0b6b3a7640000"
      },
      "nonce": 4,
      "data": "0x",
      "r": "0x8c4378add2ac25ec864e16d9cc84e1046f56c5ddfba61162aad5ddbd7192026f",
      "s": "0x6403dae0ba86e7811fbc6db3061950f3d6939a2d69bd52ead0613beb7124d820",
      "v": 28,
      "creates": null,
      "raw": "0xf86e0486010269b88c4c83030d4094109c4f2ccc82c4d77bde15f306707320294aea3f880de0b6b3a7640000801ca08c4378add2ac25ec864e16d9cc84e1046f56c5ddfba61162aad5ddbd7192026fa06403dae0ba86e7811fbc6db3061950f3d6939a2d69bd52ead0613beb7124d820",
      "networkId": 0,
      "chainId": 0
    }
  ]
}