{
  "hash": "0x284da8981ddb9943d1726dad0e3d6b3bfc957cac3cf312120c0bee37f198fb58",
  "parentHash": "0x135055af7b6397e53c21efa7bb62604df61bf559d98318ab3f5692ea8dbd7e75",
  "number": 76329,
  "timestamp": 1439418604,
  "nonce": "0x4402a3622e89d18b",
  "difficulty": 2217794272495,
  "gasLimit": {
    "_hex": "0x2fefd8"
  },
  "gasUsed": {
    "_hex": "0x5208"
  },
  "miner": "0x0193d941b50d91BE6567c7eE1C0Fe7AF498b4137",
  "extraData": "0x4a5ace9e4e",
  "transactions": [
    {
      "hash": "0x85db4a5042ac4ffd1faf7ec735184a2c4747ab903c59722f33fdfece3dffa0dc",
      "blockHash": "0x284da8981ddb9943d1726dad0e3d6b3bfc957cac3cf312120c0bee37f198fb58",
      "blockNumber": 76329,
      "transactionIndex": 0,
      "confirmations": null,
      "from": "0xE87470b43FA5904a32866396B2f798D898c13978",
      "gasPrice": {
        "_hex": "0xd8364fc25"
      },
      "gasLimit": {
        "_hex": "0x15f90"
      },
      "to": "0x972ad000397A3c903299F1353d6d4b85eE4E4e2A",
      "value": {
        "_hex": "0x1f926c72500380000"
      },
      "nonce": 2,
      "data": "0x",
      "r": "0xb0191c58248327e6543501a9d8823198c33915e8e4e76e70a85ff8f0e61a8a93",
      "s": "0x6a3b8a2797d1829ab3e6ac38c9a993c808eb8993519b9fc19b2e2757f6937c42",
      "v": 27,
      "creates": null,
      "raw": "0xf86e02850d8364fc2583015f9094972ad000397a3c903299f1353d6d4b85ee4e4e2a8901f926c72500380000801ba0b0191c58248327e6543501a9d8823198c33915e8e4e76e70a85ff8f0e61a8a93a06a3b8a2797d1829ab3e6ac38c9a993c808eb8993519b9fc19b2e2757f6937c42",
      "networkId": 0,
      "chainId": 0
    }
  ]
}