{
  "hash": "0x2c536715add6f478a23a1905da08e8b08cfbbbde93bedc8fb4a8c342988071f3",
  "parentHash": "0xccd8f4c722c365fbe6a00160c8273ae78801de6af8f3c8989a86cdabe7695db7",
  "number": 87676,
  "timestamp": 1439595799,
  "nonce": "0x7a9a9f6a7a747a84",
  "difficulty": 3149397838339,
  "gasLimit": {
    "_hex": "0x2fefd8"
  },
  "gasUsed": {
    "_hex": "0xe216"
  },
  "miner": "0xBF26bdEBFe8e9CCe5f9868Ccb198d03F3de44055",
  "extraData": "0x476574682f76312e302e312f6c696e75782f676f312e342e32",
  "transactions": [
    {
      "hash": "0xcc6bcb08bf35dc45003e86ad4cc6ec56b9413679a337fc4a4ad964249db571f9",
      "blockHash": "0x2c536715add6f478a23a1905da08e8b08cfbbbde93bedc8fb4a8c342988071f3",
      "blockNumber": 87676,
      "transactionIndex": 0,
      "confirmations": null,
      "from": "0xFBb1b73C4f0BDa4f67dcA266ce6Ef42f520fBB98",
      "gasPrice": {
        "_hex": "0xddf9077bf"
      },
      "gasLimit": {
        "_hex": "0x15f90"
      },
      "to": "0xCAc7000C7dBaa2E33Af15325AF5D435E011C7BdD",
      "value": {
        "_hex": "0x0"
      },
      "nonce": 36,
      "data": "0x3feb1bd84249545452455830300000000000000000000000000000000000000000000000000000000000000000000000614f7b8b3c6c422e272a2d18b87d9887ad33ae940000000000000000000000000000000000000000000000004ac66659c8a8b800",
      "r": "0xaa699a6d1155ad8d9b3e761684b36fb18dced552215db08964ab94db29bc08b8",
      "s": "0x39608e57f72ca9a4deeba6a3c4f0123fbc0a6c40edd60e18115b4a531c75d0dc",
      "v": 27,
      "creates": null,
      "raw": "0xf8ca24850ddf9077bf83015f9094cac7000c7dbaa2e33af15325af5d435e011c7bdd80b8643feb1bd84249545452455830300000000000000000000000000000000000000000000000000000000000000000000000614f7b8b3c6c422e272a2d18b87d9887ad33ae940000000000000000000000000000000000000000000000004ac66659c8a8b8001ba0aa699a6d1155ad8d9b3e761684b36fb18dced552215db08964ab94db29bc08b8a039608e57f72ca9a4deeba6a3c4f0123fbc0a6c40edd60e18115b4a531c75d0dc",
      "networkId": 0,
      "chainId": 0
    }
  ]
}