{
  "hash": "0xd04c58fed3de326ab51156659b82a752219b1d8978a64b36408123fba0264ec3",
  "parentHash": "0xe465ef9453b6bf2fdabc9c41bf6124f57a3f04784310aa2081350e547bcecc1d",
  "number": 71020,
  "timestamp": 1439329213,
  "nonce": "0x6ff173b853c3879d",
  "difficulty": 2154073831527,
  "gasLimit": {
    "_hex": "0x2fefd8"
  },
  "gasUsed": {
    "_hex": "0x14820"
  },
  "miner": "0xa70a9a7040d542C632D8e0bE7c5513A8a5Bbc752",
  "extraData": "0x",
  "transactions": [
    {
      "hash": "0xbf35a59cbfa49ffb8cb8ecbf9df34bb751b15ae74cfb954c521909535b29aae1",
      "blockHash": "0xd04c58fed3de326ab51156659b82a752219b1d8978a64b36408123fba0264ec3",
      "blockNumber": 71020,
      "transactionIndex": 0,
      "confirmations": null,
      "from": "0x9e23C5e4B782B00a5FaDF1aEAd87dacf5b0367a1",
      "gasPrice": {
        "_hex": "0xdf49cc4cb"
      },
      "gasLimit": {
        "_hex": "0x15f90"
      },
      "to": "0x597f19B04CEf3204943aB6D8CFd4f4457451222D",
      "value": {
        "_hex": "0xdbd2fc137a30000"
      },
      "nonce": 1,
      "data": "0x",
      "r": "0xebfca6684c1c6446f9a933ade59e8f16ffb502b36a3ba82db400f31bcaf0cb80",
      "s": "0x0902af906611707c40112480d5bae88b9702ec120692bb43ccac9ca07e114ec1",
      "v": 28,
      "creates": null,
      "raw": "0xf86d01850df49cc4cb83015f9094597f19b04cef3204943ab6d8cfd4f4457451222d880dbd2fc137a30000801ca0ebfca6684c1c6446f9a933ade59e8f16ffb502b36a3ba82db400f31bcaf0cb80a00902af906611707c40112480d5bae88b9702ec120692bb43ccac9ca07e114ec1",
      "networkId": 0,
      "chainId": 0
    },
    {
      "hash": "0x42203ecfc9315efd82fd4fee6278469ff9e4f3c1b96e138d6352836b7153fd8c",
      "blockHash": "0xd04c58fed3de326ab51156659b82a752219b1d8978a64b36408123fba0264ec3",
      "blockNumber": 71020,
      "transactionIndex": 1,
      "confirmations": null,
      "from": "0x2910543Af39abA0Cd09dBb2D50200b3E800A63D2",
      "gasPrice": {
        "_hex": "0xd52c21d9f"
      },
      "gasLimit": {
        "_hex": "0x5208"
      },
      "to": "0x16975B22533489D3186F0D18A689dFc2D3B13f68",
      "value": {
        "_hex": "0x8ab55f8b52078000"
      },
      "nonce": 261,
      "data": "0x",
      "r": "0xd6afb38581581fa724a9e6e7cd885278bda184f73bfe37438313a7171b17591f",
      "s": "0x2e60c15ead9efe8730a3128003bf5b9a223d9610c2db7937160234410fd08fc1",
      "v": 28,
      "creates": null,
      "raw": "0xf86e820105850d52c21d9f8252089416975b22533489d3186f0d18a689dfc2d3b13f68888ab55f8b52078000801ca0d6afb38581581fa724a9e6e7cd885278bda184f73bfe37438313a7171b17591fa02e60c15ead9efe8730a3128003bf5b9a223d9610c2db7937160234410fd08fc1",
      "networkId": 0,
      "chainId": 0
    },
    {
      "hash": "0x825ff3d283bd83e48711246a8d64a6b2852ec501107b5d0979c405d532648600",
      "blockHash": "0xd04c58fed3de326ab51156659b82a752219b1d8978a64b36408123fba0264ec3",
      "blockNumber": 71020,
      "transactionIndex": 2,
      "confirmations": null,
      "from": "0xB8796061FcCcC0c40BD2060d95d6cff928bD1C1B",
      "gasPrice": {
        "_hex": "0xced9231dd"
      },
      "gasLimit": {
        "_hex": "0x5208"
      },
      "to": "0x32Be343B94f860124dC4fEe278FDCBD38C102D88",
      "value": {
        "_hex": "0x2f5b60637fc618000"
      },
      "nonce": 1,
      "data": "0x",
      "r": "0x8ecb07f162f85941501f891ea147a37badb6137e474d90cba8e42f107242f4cc",
      "s": "0x426dc5b9d206a05e4575cdd73369d6c8166eb4f90ad1cff422ce44b89ddbf68d",
      "v": 28,
      "creates": null,
      "raw": "0xf86d01850ced9231dd8252089432be343b94f860124dc4fee278fdcbd38c102d888902f5b60637fc618000801ca08ecb07f162f85941501f891ea147a37badb6137e474d90cba8e42f107242f4cca0426dc5b9d206a05e4575cdd73369d6c8166eb4f90ad1cff422ce44b89ddbf68d",
      "networkId": 0,
      "chainId": 0
    },
    {
      "hash": "0x4a3070aff449d0cc1ac88152d0a64ba72eb78a1cf4160ae5babbf8dd5c3f802b",
      "blockHash": "0xd04c58fed3de326ab51156659b82a752219b1d8978a64b36408123fba0264ec3",
      "blockNumber": 71020,
      "transactionIndex": 3,
      "confirmations": null,
      "from": "0x029b539130345336FA435C807F08B86a344A1BFe",
      "gasPrice": {
        "_hex": "0xced9231dd"
      },
      "gasLimit": {
        "_hex": "0x5208"
      },
      "to": "0x32Be343B94f860124dC4fEe278FDCBD38C102D88",
      "value": {
        "_hex": "0xd5b39acb904f2000"
      },
      "nonce": 2,
      "data": "0x",
      "r": "0x321dbc827cc85426601f69b3fa428a8685c7a41b35ee03cb356de27fdc8e94fe",
      "s": "0x565bef688c36ae8f3b2e01f2153bb7cbbcd53cd7aeb753343e8a38ab37e9136d",
      "v": 28,
      "creates": null,
      "raw": "0xf86c02850ced9231dd8252089432be343b94f860124dc4fee278fdcbd38c102d8888d5b39acb904f2000801ca0321dbc827cc85426601f69b3fa428a8685c7a41b35ee03cb356de27fdc8e94fea0565bef688c36ae8f3b2e01f2153bb7cbbcd53cd7aeb753343e8a38ab37e9136d",
      "networkId": 0,
      "chainId": 0
    }
  ]
}