{
  "hash": "0x3e07338aa3b2ff21ac6fed2c0b1ec87fc62b1092c476dccd838391cfd7d35a6e",
  "parentHash": "0xcf4d495c5c837c2683f27212fb8b4e876e96c19657fe7c00313bf714068a230c",
  "number": 86238,
  "timestamp": 1439575620,
  "nonce": "0x31b1276b2a24e5f2",
  "difficulty": 2826344693458,
  "gasLimit": {
    "_hex": "0x2fefd8"
  },
  "gasUsed": {
    "_hex": "0x5208"
  },
  "miner": "0xd1ce10d2AdBa8b18135eF72Aa5296c9503a3501c",
  "extraData": "0x",
  "transactions": [
    {
      "hash": "0x8c29264f1183dc1e6e0f5eeba3f5fef24ade80506ac958a1d13292e671868849",
      "blockHash": "0x3e07338aa3b2ff21ac6fed2c0b1ec87fc62b1092c476dccd838391cfd7d35a6e",
      "blockNumber": 86238,
      "transactionIndex": 0,
      "confirmations": null,
      "from": "0x32Be343B94f860124dC4fEe278FDCBD38C102D88",
      "gasPrice": {
        "_hex": "0xd9d3f2a1a"
      },
      "gasLimit": {
        "_hex": "0x5208"
      },
      "to": "0x1CC77ed71531833bAC1eA0E757Cd150dCD297920",
      "value": {
        "_hex": "0xefc5e5554cc90800"
      },
      "nonce": 752,
      "data": "0x",
      "r": "0xf11ccbd5c2b81eb240dd3bc83fefc2ac3aae53e1638cb0ba415a1733e6d901ee",
      "s": "0x0f32200c3286c14a4409e139651b2cf767c0e165707642ed4b59f71a0deb329a",
      "v": 28,
      "creates": null,
      "raw": "0xf86e8202f0850d9d3f2a1a825208941cc77ed71531833bac1ea0e757cd150dcd29792088efc5e5554cc90800801ca0f11ccbd5c2b81eb240dd3bc83fefc2ac3aae53e1638cb0ba415a1733e6d901eea00f32200c3286c14a4409e139651b2cf767c0e165707642ed4b59f71a0deb329a",
      "networkId": 0,
      "chainId": 0
    }
  ]
}