{
  "hash": "0x849d2816a518aef9a927778db6fbd27282cc58909682d5968452f601b365f9fb",
  "parentHash": "0x47698d9a78f21d03675e9690a8d8129f9ac67a0724eedd591ee73ab2865b7714",
  "number": 86973,
  "timestamp": 1439585364,
  "nonce": "0x428f5e4c89fe89e8",
  "difficulty": 2998099734438,
  "gasLimit": {
    "_hex": "0x2fefd8"
  },
  "gasUsed": {
    "_hex": "0x5208"
  },
  "miner": "0xbb7B8287f3F0a933474a79eAe42CBCa977791171",
  "extraData": "0x476574682f4c5649562f76312e302e312f6c696e75782f676f312e342e32",
  "transactions": [
    {
      "hash": "0xb8b1b16d99d58e89a0f1ba24da90f1d3d2ce11a972af52f4b8280f47d7b384d5",
      "blockHash": "0x849d2816a518aef9a927778db6fbd27282cc58909682d5968452f601b365f9fb",
      "blockNumber": 86973,
      "transactionIndex": 0,
      "confirmations": null,
      "from": "0x23f2D0fd3B4C98Fb1698564deB4898275E2e831f",
      "gasPrice": {
        "_hex": "0xcd1c21f19"
      },
      "gasLimit": {
        "_hex": "0x5208"
      },
      "to": "0x32Be343B94f860124dC4fEe278FDCBD38C102D88",
      "value": {
        "_hex": "0x453be48dd18a9c00"
      },
      "nonce": 8,
      "data": "0x",
      "r": "0x9816a6766f6804ddf6e176ca27452bd1e56d173cd0e5a8f59f6112118620b96e",
      "s": "0x233aecc820319070e312490634c794b7a12cb53278ab6974d884fed81b347a43",
      "v": 28,
      "creates": null,
      "raw": "0xf86c08850cd1c21f198252089432be343b94f860124dc4fee278fdcbd38c102d8888453be48dd18a9c00801ca09816a6766f6804ddf6e176ca27452bd1e56d173cd0e5a8f59f6112118620b96ea0233aecc820319070e312490634c794b7a12cb53278ab6974d884fed81b347a43",
      "networkId": 0,
      "chainId": 0
    }
  ]
}