{
  "hash": "0xe4c8b6cfef73444ff4a6876e785a09572a27c49f964da01736c7ad12f1241ed0",
  "parentHash": "0xe1014e7cd74861c58b316beece27b9bab8a07dfd16c22a15520d9e7cf7755eb0",
  "number": 119276,
  "timestamp": 1440139844,
  "nonce": "0x2c44f8387f168c28",
  "difficulty": 4428986814861,
  "gasLimit": {
    "_hex": "0x2fefd8"
  },
  "gasUsed": {
    "_hex": "0xa410"
  },
  "miner": "0x790b8a3cE86E707ED0eD32bF89B3269692a23CC1",
  "extraData": "0xd783010002844765746887676f312e342e32856c696e7578",
  "transactions": [
    {
      "hash": "0x8f2edaed84892c28856a077ec87df33ef3f2c6270806a3e467ad3df619e30c13",
      "blockHash": "0xe4c8b6cfef73444ff4a6876e785a09572a27c49f964da01736c7ad12f1241ed0",
      "blockNumber": 119276,
      "transactionIndex": 0,
      "confirmations": null,
      "from": "0x9799B868C884690465A1e50A97D76a8B107F7583",
      "gasPrice": {
        "_hex": "0xba43b7400"
      },
      "gasLimit": {
        "_hex": "0x5208"
      },
      "to": "0x32Be343B94f860124dC4fEe278FDCBD38C102D88",
      "value": {
        "_hex": "0xc658718d7f47b000"
      },
      "nonce": 2,
      "data": "0x",
      "r": "0xedc42e13ee8e104e6914426949869111ef13b9183dbd945f3f444b7a230ad6eb",
      "s": "0x0b7216ba1d429d6de7c14e9dd009ec031fcc1b894877cb14c58b3166f8101f72",
      "v": 28,
      "creates": null,
      "raw": "0xf86c02850ba43b74008252089432be343b94f860124dc4fee278fdcbd38c102d8888c658718d7f47b000801ca0edc42e13ee8e104e6914426949869111ef13b9183dbd945f3f444b7a230ad6eba00b7216ba1d429d6de7c14e9dd009ec031fcc1b894877cb14c58b3166f8101f72",
      "networkId": 0,
      "chainId": 0
    },
    {
      "hash": "0xee83f7840f954d7dfe613aae85d9e21b77dabfd7dc1d9e21d23a0efeccc38089",
      "blockHash": "0xe4c8b6cfef73444ff4a6876e785a09572a27c49f964da01736c7ad12f1241ed0",
      "blockNumber": 119276,
      "transactionIndex": 1,
      "confirmations": null,
      "from": "0x608f4b86321a68453f9adf6F06F7Fc3E621739ad",
      "gasPrice": {
        "_hex": "0xba43b7400"
      },
      "gasLimit": {
        "_hex": "0x5208"
      },
      "to": "0x32Be343B94f860124dC4fEe278FDCBD38C102D88",
      "value": {
        "_hex": "0x8ac3680c5ce46000"
      },
      "nonce": 28,
      "data": "0x",
      "r": "0xb737d10a50eccf90629b6e89dc947d821648785b80bbd6d7a946eb807b70c202",
      "s": "0x602980232a5b2f7bc9f45780cd095bf19852fb938f6241f6e6d3daf1b9f863a0",
      "v": 28,
      "creates": null,
      "raw": "0xf86c1c850ba43b74008252089432be343b94f860124dc4fee278fdcbd38c102d88888ac3680c5ce46000801ca0b737d10a50eccf90629b6e89dc947d821648785b80bbd6d7a946eb807b70c202a0602980232a5b2f7bc9f45780cd095bf19852fb938f6241f6e6d3daf1b9f863a0",
      "networkId": 0,
      "chainId": 0
    }
  ]
}