{
  "hash": "0xfd23e1b13e93e1a860fb7d6ff407967c9c389c1ef8b7bc367b09ae2848930416",
  "parentHash": "0xa660834aacef0c7e3ee0680d09d64ae958fc94f4633d9fa1cfe7b62c29f8f851",
  "number": 100705,
  "timestamp": 1439810939,
  "nonce": "0xc49ca7b6bd660c65",
  "difficulty": 3835840508476,
  "gasLimit": {
    "_hex": "0x2fefd5"
  },
  "gasUsed": {
    "_hex": "0x5208"
  },
  "miner": "0xe6A7a1d47ff21B6321162AEA7C6CB457D5476Bca",
  "extraData": "0x476574682f76312e302e312d38326566323666362f6c696e75782f676f312e34",
  "transactions": [
    {
      "hash": "0x45b41315c39e4be4519e268dbf1044f124c8dee3b5353b118c45b2d6da1d98c2",
      "blockHash": "0xfd23e1b13e93e1a860fb7d6ff407967c9c389c1ef8b7bc367b09ae2848930416",
      "blockNumber": 100705,
      "transactionIndex": 0,
      "confirmations": null,
      "from": "0x790b8a3cE86E707ED0eD32bF89B3269692a23CC1",
      "gasPrice": {
        "_hex": "0xe1adf81a7"
      },
      "gasLimit": {
        "_hex": "0x15f90"
      },
      "to": "0x4D67f4F0Db45b3B5a3424B39ed8d972F710381D5",
      "value": {
        "_hex": "0x33f478ca2dde60000"
      },
      "nonce": 28,
      "data": "0x",
      "r": "0xaf5ac35bfc76ee4ba472290d335a3337d2eb5385810427956072089120f348ab",
      "s": "0x0f34cb0224badde2f52c0c1d5e3265d12ed18d281ef37f84fc64d93a1d6868f3",
      "v": 27,
      "creates": null,
      "raw": "0xf86e1c850e1adf81a783015f90944d67f4f0db45b3b5a3424b39ed8d972f710381d589033f478ca2dde60000801ba0af5ac35bfc76ee4ba472290d335a3337d2eb5385810427956072089120f348aba00f34cb0224badde2f52c0c1d5e3265d12ed18d281ef37f84fc64d93a1d6868f3",
      "networkId": 0,
      "chainId": 0
    }
  ]
}