{
  "hash": "0xe7b356bc032d8be56c38725a5e0837c86859220f85372952472fd89bc30f18ec",
  "parentHash": "0x98187fa875e9f6adf2ccb58b25702289147ea45465a136e13a18f1cc4493a5f5",
  "number": 121383,
  "timestamp": 1440176354,
  "nonce": "0x3b3c646192684dd8",
  "difficulty": 4386985554792,
  "gasLimit": {
    "_hex": "0x2fefd8"
  },
  "gasUsed": {
    "_hex": "0x5208"
  },
  "miner": "0xe6A7a1d47ff21B6321162AEA7C6CB457D5476Bca",
  "extraData": "0xd783010002844765746887676f312e342e32856c696e7578",
  "transactions": [
    {
      "hash": "0x3a6c0d843058613df78dba7622861c6bc4689075128e0d68179a1eac2be4b3f6",
      "blockHash": "0xe7b356bc032d8be56c38725a5e0837c86859220f85372952472fd89bc30f18ec",
      "blockNumber": 121383,
      "transactionIndex": 0,
      "confirmations": null,
      "from": "0x32Be343B94f860124dC4fEe278FDCBD38C102D88",
      "gasPrice": {
        "_hex": "0xba43b7400"
      },
      "gasLimit": {
        "_hex": "0x5208"
      },
      "to": "0x120A270bbC009644e35F0bB6ab13f95b8199c4ad",
      "value": {
        "_hex": "0x10f0cf064dd59200000"
      },
      "nonce": 1554,
      "data": "0x",
      "r": "0xb9a35b4011737fd59f95cad85722f9b607834610d9ef37142e1e6d412eb99b07",
      "s": "0x30b33581ec57add2fa09ba7e191f9449d6679033753329b1b0bd6eb3b12c419f",
      "v": 28,
      "creates": null,
      "raw": "0xf870820612850ba43b740082520894120a270bbc009644e35f0bb6ab13f95b8199c4ad8a010f0cf064dd59200000801ca0b9a35b4011737fd59f95cad85722f9b607834610d9ef37142e1e6d412eb99b07a030b33581ec57add2fa09ba7e191f9449d6679033753329b1b0bd6eb3b12c419f",
      "networkId": 0,
      "chainId": 0
    }
  ]
}