{
  "hash": "0xf73e3e0af4b1d491be9b76316baf222f4ebbaeebf049e706ebcbf754f879c20c",
  "parentHash": "0x01cc28559beddd9647adf72ad2f9f48aad36b34230c750fb91ead723dcdf09e0",
  "number": 121303,
  "timestamp": 1440174893,
  "nonce": "0x9acc4689ae01af95",
  "difficulty": 4417119576964,
  "gasLimit": {
    "_hex": "0x2fefd8"
  },
  "gasUsed": {
    "_hex": "0x5208"
  },
  "miner": "0x52bc44d5378309EE2abF1539BF71dE1b7d7bE3b5",
  "extraData": "0xd783010002844765746887676f312e342e32856c696e7578",
  "transactions": [
    {
      "hash": "0xb8ce9c9e665ca7e41a8b326a72330a319c6b1a248f762cce57c23095407cd36b",
      "blockHash": "0xf73e3e0af4b1d491be9b76316baf222f4ebbaeebf049e706ebcbf754f879c20c",
      "blockNumber": 121303,
      "transactionIndex": 0,
      "confirmations": null,
      "from": "0x608f4b86321a68453f9adf6F06F7Fc3E621739ad",
      "gasPrice": {
        "_hex": "0xba43b7400"
      },
      "gasLimit": {
        "_hex": "0x5208"
      },
      "to": "0x32Be343B94f860124dC4fEe278FDCBD38C102D88",
      "value": {
        "_hex": "0x455fd68a17f06000"
      },
      "nonce": 97,
      "data": "0x",
      "r": "0x265592f46cf81d550b5e72ff33a8301181ff2ed55952e3815b5c160602dc0400",
      "s": "0x2843c1317b2090d93126ab0142a60efb6cc565bf11177944cad7b615e95f93d8",
      "v": 28,
      "creates": null,
      "raw": "0xf86c61850ba43b74008252089432be343b94f860124dc4fee278fdcbd38c102d8888455fd68a17f06000801ca0265592f46cf81d550b5e72ff33a8301181ff2ed55952e3815b5c160602dc0400a02843c1317b2090d93126ab0142a60efb6cc565bf11177944cad7b615e95f93d8",
      "networkId": 0,
      "chainId": 0
    }
  ]
}