{
  "hash": "0x4cbeddbc251e5e53e0ee530d83ad0b6e6da685de2ff9b13ba8348019455cee17",
  "parentHash": "0x9a94dc27e425c3dad56db1ee365b7a6abc5a439836b669d117055212bdec21dc",
  "number": 52661,
  "timestamp": 1439025285,
  "nonce": "0x01e8496b89871776",
  "difficulty": 1567881232065,
  "gasLimit": {
    "_hex": "0x173085"
  },
  "gasUsed": {
    "_hex": "0xf4240"
  },
  "miner": "0x9746c7e1ef2bd21FF3997fa467593a89cb852BD0",
  "extraData": "0x476574682f76312e302e312f77696e646f77732f676f312e342e32",
  "transactions": [
    {
      "hash": "0x549f6fda52faac4646d873e5bc88c3d44107b024c4373e3c24ae73e1cfdc63f3",
      "blockHash": "0x4cbeddbc251e5e53e0ee530d83ad0b6e6da685de2ff9b13ba8348019455cee17",
      "blockNumber": 52661,
      "transactionIndex": 0,
      "confirmations": null,
      "from": "0x54dAeb3E8a6BBC797E4aD2b0339f134b186e4637",
      "gasPrice": {
        "_hex": "0xe7d27df17"
      },
      "gasLimit": {
        "_hex": "0x7a120"
      },
      "to": "0xBAA54d6E90c3F4d7Ebec11bD180134C7eD8eBb52",
      "value": {
        "_hex": "0x16345785d8a0000"
      },
      "nonce": 872,
      "data": "0x",
      "r": "0x87f7a74cd46cced81a685e6fe14b9037d130da18f2f26a5accd0d9bb943e3d4e",
      "s": "0x3512f72562f074a1b7665337c316ac03b4bc36cf4c3d46202676254efcc09db2",
      "v": 27,
      "creates": null,
      "raw": "0xf86f820368850e7d27df178307a12094baa54d6e90c3f4d7ebec11bd180134c7ed8ebb5288016345785d8a0000801ba087f7a74cd46cced81a685e6fe14b9037d130da18f2f26a5accd0d9bb943e3d4ea03512f72562f074a1b7665337c316ac03b4bc36cf4c3d46202676254efcc09db2",
      "networkId": 0,
      "chainId": 0
    },
    {
      "hash": "0x37cd03d7fbce5bbf05a61cfe10d4a5909a779b9ff61f19153a5a62b3ae03ae7f",
      "blockHash": "0x4cbeddbc251e5e53e0ee530d83ad0b6e6da685de2ff9b13ba8348019455cee17",
      "blockNumber": 52661,
      "transactionIndex": 1,
      "confirmations": null,
      "from": "0x54dAeb3E8a6BBC797E4aD2b0339f134b186e4637",
      "gasPrice": {
        "_hex": "0xd8bd64e50"
      },
      "gasLimit": {
        "_hex": "0x7a120"
      },
      "to": "0xBAA54d6E90c3F4d7Ebec11bD180134C7eD8eBb52",
      "value": {
        "_hex": "0x16345785d8a0000"
      },
      "nonce": 873,
      "data": "0x",
      "r": "0xd7150280ffbfe974fb73df287ef98f79a78b76609dd3fa202172c5745d836e38",
      "s": "0x29a4c43abd8bbe97d5ba9a9944779f368ff058c363b1a8e7ed9b91116d2eb9cc",
      "v": 27,
      "creates": null,
      "raw": "0xf86f820369850d8bd64e508307a12094baa54d6e90c3f4d7ebec11bd180134c7ed8ebb5288016345785d8a0000801ba0d7150280ffbfe974fb73df287ef98f79a78b76609dd3fa202172c5745d836e38a029a4c43abd8bbe97d5ba9a9944779f368ff058c363b1a8e7ed9b91116d2eb9cc",
      "networkId": 0,
      "chainId": 0
    }
  ]
}