{
  "hash": "0x9b3f8337efab8974fac4349e76177527043a7efce2e8d3eb0f10e1828e52abb8",
  "parentHash": "0x865b8ed99cbcc1056b20ba407381ae63058be24efdd78e49762e1c4109702cad",
  "number": 50528,
  "timestamp": 1438990692,
  "nonce": "0x7597fdd7aebd8de9",
  "difficulty": 1514842504556,
  "gasLimit": {
    "_hex": "0x68530"
  },
  "gasUsed": {
    "_hex": "0x5208"
  },
  "miner": "0xf927a40C8B7F6E07c5af7FA2155B4864a4112B13",
  "extraData": "0x476574682f76312e302e312f6c696e75782f676f312e342e32",
  "transactions": [
    {
      "hash": "0x6e55ca196e93fb118467e5d1225041e9756b4775f47f26d5a7731e12f2e1476d",
      "blockHash": "0x9b3f8337efab8974fac4349e76177527043a7efce2e8d3eb0f10e1828e52abb8",
      "blockNumber": 50528,
      "transactionIndex": 0,
      "confirmations": null,
      "from": "0x1E6915EBd9a19C81b692ad99b1218A592C1AC7b1",
      "gasPrice": {
        "_hex": "0xd44445371"
      },
      "gasLimit": {
        "_hex": "0x5208"
      },
      "to": "0xb583f9403De6C5B2c83D7e2DE9928331176071b8",
      "value": {
        "_hex": "0xcdff97fabcb4600000"
      },
      "nonce": 1,
      "data": "0x",
      "r": "0x52e0296222108ed95adce7bd6ff27f43f5fa082048ad1452f6e3533139332898",
      "s": "0x3141ef3b0f88ce0bd290fef0a3490e10531b9b6c80bc1fa9f097b74095139a7e",
      "v": 27,
      "creates": null,
      "raw": "0xf86d01850d4444537182520894b583f9403de6c5b2c83d7e2de9928331176071b889cdff97fabcb4600000801ba052e0296222108ed95adce7bd6ff27f43f5fa082048ad1452f6e3533139332898a03141ef3b0f88ce0bd290fef0a3490e10531b9b6c80bc1fa9f097b74095139a7e",
      "networkId": 0,
      "chainId": 0
    }
  ]
}