{
  "hash": "0x3bf8bd5e777b8c8e1bb47d2bd803e977ea7f424128d7f4d0c2f0bff5abc49799",
  "parentHash": "0xea5a7713f38be4f8e6b7f30b225141baa2b811d90895b7bf4e943dfbab462153",
  "number": 48046,
  "timestamp": 1438950352,
  "nonce": "0xedbe59f0e25a038f",
  "difficulty": 1464373730656,
  "gasLimit": {
    "_hex": "0x12018"
  },
  "gasUsed": {
    "_hex": "0xf618"
  },
  "miner": "0x9746c7e1ef2bd21FF3997fa467593a89cb852BD0",
  "extraData": "0x476574682f76312e302e312f77696e646f77732f676f312e342e32",
  "transactions": [
    {
      "hash": "0x182ee659146ebf4e188992b82cba7f9e1ff46e68360d08d03cbec840d09023a2",
      "blockHash": "0x3bf8bd5e777b8c8e1bb47d2bd803e977ea7f424128d7f4d0c2f0bff5abc49799",
      "blockNumber": 48046,
      "transactionIndex": 0,
      "confirmations": null,
      "from": "0x3C4EaE3D92454e31e3E8f9F088A258759B4C3b5d",
      "gasPrice": {
        "_hex": "0xd793f63fc"
      },
      "gasLimit": {
        "_hex": "0x5208"
      },
      "to": "0x32Be343B94f860124dC4fEe278FDCBD38C102D88",
      "value": {
        "_hex": "0xb464eb906aefa000"
      },
      "nonce": 0,
      "data": "0x",
      "r": "0x36af72bbb1d3dbbe36883cac0d14b538ef5fad1771c8c0ea83c1de13c68cbb1c",
      "s": "0x7465608d72d239a5db2aa49631ae386168e457e606090dac07d468149d89f3bc",
      "v": 27,
      "creates": null,
      "raw": "0xf86c80850d793f63fc8252089432be343b94f860124dc4fee278fdcbd38c102d8888b464eb906aefa000801ba036af72bbb1d3dbbe36883cac0d14b538ef5fad1771c8c0ea83c1de13c68cbb1ca07465608d72d239a5db2aa49631ae386168e457e606090dac07d468149d89f3bc",
      "networkId": 0,
      "chainId": 0
    },
    {
      "hash": "0xb076dfa44b56f66eb2946d928226c80cf6443514aee2f33a147f98d238a20c2c",
      "blockHash": "0x3bf8bd5e777b8c8e1bb47d2bd803e977ea7f424128d7f4d0c2f0bff5abc49799",
      "blockNumber": 48046,
      "transactionIndex": 1,
      "confirmations": null,
      "from": "0x8063ee6AE2998aF5001051312036f989D606638F",
      "gasPrice": {
        "_hex": "0xd6b36e691"
      },
      "gasLimit": {
        "_hex": "0x5208"
      },
      "to": "0x3C4EaE3D92454e31e3E8f9F088A258759B4C3b5d",
      "value": {
        "_hex": "0xa5fbbaf2028b000"
      },
      "nonce": 1,
      "data": "0x",
      "r": "0xc9ebf7b78b2cdbf5f518bd05adb2894081f9e2116328a89657fe5d8a7b377601",
      "s": "0x016f7347a6dd74cc5005a5c713d3c46552d23c60392dc845247b66ba5b5b5581",
      "v": 27,
      "creates": null,
      "raw": "0xf86c01850d6b36e691825208943c4eae3d92454e31e3e8f9f088a258759b4c3b5d880a5fbbaf2028b000801ba0c9ebf7b78b2cdbf5f518bd05adb2894081f9e2116328a89657fe5d8a7b377601a0016f7347a6dd74cc5005a5c713d3c46552d23c60392dc845247b66ba5b5b5581",
      "networkId": 0,
      "chainId": 0
    },
    {
      "hash": "0xf65a03b076b8f44236d2823e9ca6040117ee0d700e9433ddfa7510f918406587",
      "blockHash": "0x3bf8bd5e777b8c8e1bb47d2bd803e977ea7f424128d7f4d0c2f0bff5abc49799",
      "blockNumber": 48046,
      "transactionIndex": 2,
      "confirmations": null,
      "from": "0x1406854D149E081aC09Cb4CA560Da463f3123059",
      "gasPrice": {
        "_hex": "0xd436ec257"
      },
      "gasLimit": {
        "_hex": "0x5208"
      },
      "to": "0xa0E74ae010D51894734c308D612131056bB721AD",
      "value": {
        "_hex": "0xde0b6b3a7640000"
      },
      "nonce": 12,
      "data": "0x",
      "r": "0x09d2a45c611067434510f1aef175e55dbe0b7968e25fe5d568b960d5616a849c",
      "s": "0x158bf41cd6ddd3f145302665bf8871fd07e1bb800c425cc3f0694a8b1547457c",
      "v": 28,
      "creates": null,
      "raw": "0xf86c0c850d436ec25782520894a0e74ae010d51894734c308d612131056bb721ad880de0b6b3a7640000801ca009d2a45c611067434510f1aef175e55dbe0b7968e25fe5d568b960d5616a849ca0158bf41cd6ddd3f145302665bf8871fd07e1bb800c425cc3f0694a8b1547457c",
      "networkId": 0,
      "chainId": 0
    }
  ]
}