{
  "hash": "0x756ba37fea5214ddd51725c907d7e16bc95c1f4fc9003d781d3ca4c3aee85da3",
  "parentHash": "0x4e02a6b3855ccdcaa22f5ca7e2b5d3d2e02a2ee8ced3cfadb4e752d989c87ec8",
  "number": 62061,
  "timestamp": 1439182890,
  "nonce": "0x94c2387078a97cc0",
  "difficulty": 1742027957981,
  "gasLimit": {
    "_hex": "0x2fefd8"
  },
  "gasUsed": {
    "_hex": "0x5208"
  },
  "miner": "0xEF247E639d49461D25F57e9362CadE3120910Ce0",
  "extraData": "0x476574682f76312e302e312f6c696e75782f676f312e342e32",
  "transactions": [
    {
      "hash": "0x612112131a1c4c837c8fc41d36a3a11ff129b256c1818c69373aada004eb0052",
      "blockHash": "0x756ba37fea5214ddd51725c907d7e16bc95c1f4fc9003d781d3ca4c3aee85da3",
      "blockNumber": 62061,
      "transactionIndex": 0,
      "confirmations": null,
      "from": "0x8F79f76381Aad7B98C19aF55eE75fdfEeb012211",
      "gasPrice": {
        "_hex": "0xcf4243d07"
      },
      "gasLimit": {
        "_hex": "0x5208"
      },
      "to": "0x32Be343B94f860124dC4fEe278FDCBD38C102D88",
      "value": {
        "_hex": "0xddc9017f8aad400"
      },
      "nonce": 0,
      "data": "0x",
      "r": "0xe6e13460341c6f07972460959f7129b37a15d47a5718f17052bb97d32e17de4c",
      "s": "0x47d6c50850f1408b32259500bced66b7edd13e0251c0738986574e23ff970f50",
      "v": 28,
      "creates": null,
      "raw": "0xf86c80850cf4243d078252089432be343b94f860124dc4fee278fdcbd38c102d88880ddc9017f8aad400801ca0e6e13460341c6f07972460959f7129b37a15d47a5718f17052bb97d32e17de4ca047d6c50850f1408b32259500bced66b7edd13e0251c0738986574e23ff970f50",
      "networkId": 0,
      "chainId": 0
    }
  ]
}