{
  "hash": "0xdb8fffd0fded77e8082841dfb8962b1eb917fa8df425283360f946f34e45efd5",
  "parentHash": "0xf1847530128be0d7bd669b3b35ff3d4847f1199c2656b2ba94b5ecb908e4bbdd",
  "number": 83791,
  "timestamp": 1439540918,
  "nonce": "0xa349059f3fefd5d1",
  "difficulty": 2447906021619,
  "gasLimit": {
    "_hex": "0x2fefd8"
  },
  "gasUsed": {
    "_hex": "0x546c"
  },
  "miner": "0xf927a40C8B7F6E07c5af7FA2155B4864a4112B13",
  "extraData": "0x",
  "transactions": [
    {
      "hash": "0x2350bcc8b0f7dbf44a599ab2e530a53683bce640b76d96d2482ba1ed15945e58",
      "blockHash": "0xdb8fffd0fded77e8082841dfb8962b1eb917fa8df425283360f946f34e45efd5",
      "blockNumber": 83791,
      "transactionIndex": 0,
      "confirmations": null,
      "from": "0xF4eD848EC961739c2c7e352F435ba70a7CD5dB38",
      "gasPrice": {
        "_hex": "0x110c8f7d8de"
      },
      "gasLimit": {
        "_hex": "0xc350"
      },
      "to": "0x2910543Af39abA0Cd09dBb2D50200b3E800A63D2",
      "value": {
        "_hex": "0x56bc75e2d63100000"
      },
      "nonce": 0,
      "data": "0x454e54434d46574838",
      "r": "0x851652bef35b22fcccc7bee83054cb8f7306221ec6a78fe8767a78d3b932cc0e",
      "s": "0x6c714007c137d1eadc9fd46034f5edd9befe383eb79afb3be545f238f121e683",
      "v": 27,
      "creates": null,
      "raw": "0xf87780860110c8f7d8de82c350942910543af39aba0cd09dbb2d50200b3e800a63d289056bc75e2d6310000089454e54434d465748381ba0851652bef35b22fcccc7bee83054cb8f7306221ec6a78fe8767a78d3b932cc0ea06c714007c137d1eadc9fd46034f5edd9befe383eb79afb3be545f238f121e683",
      "networkId": 0,
      "chainId": 0
    }
  ]
}