{
  "hash": "0xdcd110e24c0d1b187cb6e42e29d906466856ee8f98d7e00f66711572ef8e80d0",
  "parentHash": "0xb35a39e6ec259c4ef90f1e9a1564a4e2ca70930ef8ebe1057ca403cbcad5e3fc",
  "number": 89905,
  "timestamp": 1439630977,
  "nonce": "0x2efb1e7e9de0d560",
  "difficulty": 3336929350363,
  "gasLimit": {
    "_hex": "0x2fefd8"
  },
  "gasUsed": {
    "_hex": "0xa410"
  },
  "miner": "0x790b8a3cE86E707ED0eD32bF89B3269692a23CC1",
  "extraData": "0xd783010001844765746887676f312e342e32856c696e7578",
  "transactions": [
    {
      "hash": "0x9188d9887e340c09fc9ec6aabd229b15446266b94e0e1da3ac262a682040b59d",
      "blockHash": "0xdcd110e24c0d1b187cb6e42e29d906466856ee8f98d7e00f66711572ef8e80d0",
      "blockNumber": 89905,
      "transactionIndex": 0,
      "confirmations": null,
      "from": "0xb26EE724AA819BddDf6d87754C61669f000AbF6A",
      "gasPrice": {
        "_hex": "0xdc46e4af8"
      },
      "gasLimit": {
        "_hex": "0x5208"
      },
      "to": "0x32Be343B94f860124dC4fEe278FDCBD38C102D88",
      "value": {
        "_hex": "0x3ae60b326a1fa400"
      },
      "nonce": 2,
      "data": "0x",
      "r": "0x863a553feffc81f13657ee95769a01d3d603a93bb0922df9b31a34472ab2835a",
      "s": "0x646d4c63e5ad9ac4eccbfbddd0e49ea7ffe35a5ec09dc38ec9b8434d5969050a",
      "v": 27,
      "creates": null,
      "raw": "0xf86c02850dc46e4af88252089432be343b94f860124dc4fee278fdcbd38c102d88883ae60b326a1fa400801ba0863a553feffc81f13657ee95769a01d3d603a93bb0922df9b31a34472ab2835aa0646d4c63e5ad9ac4eccbfbddd0e49ea7ffe35a5ec09dc38ec9b8434d5969050a",
      "networkId": 0,
      "chainId": 0
    },
    {
      "hash": "0x6161e1ad90e762001179d59a9082ef10d0263b4284d7e981dd1956421475cefa",
      "blockHash": "0xdcd110e24c0d1b187cb6e42e29d906466856ee8f98d7e00f66711572ef8e80d0",
      "blockNumber": 89905,
      "transactionIndex": 1,
      "confirmations": null,
      "from": "0x8F586E3212291c58DCc78980a9c3432a3aFd3b6E",
      "gasPrice": {
        "_hex": "0xdc46e4af8"
      },
      "gasLimit": {
        "_hex": "0x5208"
      },
      "to": "0x32Be343B94f860124dC4fEe278FDCBD38C102D88",
      "value": {
        "_hex": "0x15af074be388d10000"
      },
      "nonce": 10,
      "data": "0x",
      "r": "0x6d891c626127d8bd1cc35fd6daf553813968a60dbdb54eb6d1532ce37b078185",
      "s": "0x7208ff72223d8cfb41592fb37b474a80bc6ef5a94fa31e089a65c0a9d8747f72",
      "v": 28,
      "creates": null,
      "raw": "0xf86d0a850dc46e4af88252089432be343b94f860124dc4fee278fdcbd38c102d888915af074be388d10000801ca06d891c626127d8bd1cc35fd6daf553813968a60dbdb54eb6d1532ce37b078185a07208ff72223d8cfb41592fb37b474a80bc6ef5a94fa31e089a65c0a9d8747f72",
      "networkId": 0,
      "chainId": 0
    }
  ]
}