{
  "hash": "0x76f106678a30a83ff931c087084eeadaed6c2cdd1351fbe84913b94168977146",
  "parentHash": "0x4d7520aad3e8c67a641ee66428a1eceb67152a80104fac8cd0077d03eb16b9d6",
  "number": 113184,
  "timestamp": 1440019121,
  "nonce": "0x9bd99dd52b4b2ab1",
  "difficulty": 4519621821621,
  "gasLimit": {
    "_hex": "0x2fefd8"
  },
  "gasUsed": {
    "_hex": "0x5208"
  },
  "miner": "0x007f7f58D3eb5b7510A301eCC749FC1fCDDBE14D",
  "extraData": "0x476574682f76312e302e312f77696e646f77732f676f312e342e32",
  "transactions": [
    {
      "hash": "0xca68485bf0e2e00a0f24ad0a42da7d79a667d29420d58ee9e28a4c56229c359d",
      "blockHash": "0x76f106678a30a83ff931c087084eeadaed6c2cdd1351fbe84913b94168977146",
      "blockNumber": 113184,
      "transactionIndex": 0,
      "confirmations": null,
      "from": "0x475526af19ba007Bc39bA43c0946892035AA1B08",
      "gasPrice": {
        "_hex": "0xbdfd63e00"
      },
      "gasLimit": {
        "_hex": "0x5208"
      },
      "to": "0x61490b83f1EBf3BC7eD2b2520776E2804e231394",
      "value": {
        "_hex": "0x21e19e0c9bab2400000"
      },
      "nonce": 3,
      "data": "0x",
      "r": "0xd33c9d71aa71882b8ab6e65c688c48958ae2fb907ebce9f2ae47ac1838412c16",
      "s": "0x54acf13d5ff80a71048e7c240a7d94a984ed60a426940c12628aacd43787fcdc",
      "v": 27,
      "creates": null,
      "raw": "0xf86e03850bdfd63e008252089461490b83f1ebf3bc7ed2b2520776e2804e2313948a021e19e0c9bab2400000801ba0d33c9d71aa71882b8ab6e65c688c48958ae2fb907ebce9f2ae47ac1838412c16a054acf13d5ff80a71048e7c240a7d94a984ed60a426940c12628aacd43787fcdc",
      "networkId": 0,
      "chainId": 0
    }
  ]
}