{
  "hash": "0xfa98ad0506abc35e9796bf9c13c2f0784eadacf936a766de75dc4aabd7126f46",
  "parentHash": "0x46c3dc39fdd24b4661e45a85df20c0264f5454f7d50a8e0e7788694c91d84e74",
  "number": 65237,
  "timestamp": 1439233554,
  "nonce": "0x9f8fd53d697279ab",
  "difficulty": 1942636998251,
  "gasLimit": {
    "_hex": "0x2fefd8"
  },
  "gasUsed": {
    "_hex": "0xa410"
  },
  "miner": "0xEF247E639d49461D25F57e9362CadE3120910Ce0",
  "extraData": "0x476574682f76312e302e312f6c696e75782f676f312e342e32",
  "transactions": [
    {
      "hash": "0xf7cca4061210a7723b23da09f73c161ade790d93f007e1a79a24d6e2edb1f0fe",
      "blockHash": "0xfa98ad0506abc35e9796bf9c13c2f0784eadacf936a766de75dc4aabd7126f46",
      "blockNumber": 65237,
      "transactionIndex": 0,
      "confirmations": null,
      "from": "0xe8D9524147C46d4caddeC43380168b43c0893bE0",
      "gasPrice": {
        "_hex": "0xba43b7400"
      },
      "gasLimit": {
        "_hex": "0x5208"
      },
      "to": "0x43A20dC7603DF41e31E4d931D69eCD1434260e81",
      "value": {
        "_hex": "0x743a6d1664ff000"
      },
      "nonce": 1,
      "data": "0x",
      "r": "0x524e0106d2e836988091dd94a583fd23fe3f17e644194378afbe0acd0948dd9a",
      "s": "0x0062a3730f4d25ff374a0629cef1d0ca11bbcae7811f3a23d75819f5610a8353",
      "v": 28,
      "creates": null,
      "raw": "0xf86b01850ba43b74008252089443a20dc7603df41e31e4d931d69ecd1434260e81880743a6d1664ff000801ca0524e0106d2e836988091dd94a583fd23fe3f17e644194378afbe0acd0948dd9a9f62a3730f4d25ff374a0629cef1d0ca11bbcae7811f3a23d75819f5610a8353",
      "networkId": 0,
      "chainId": 0
    },
    {
      "hash": "0x280a4fcfcc1ed7d26b5fa80b7b8d3e5e0ce0e1759d494f56741cad71d410d2d8",
      "blockHash": "0xfa98ad0506abc35e9796bf9c13c2f0784eadacf936a766de75dc4aabd7126f46",
      "blockNumber": 65237,
      "transactionIndex": 1,
      "confirmations": null,
      "from": "0xC816F11b29cDec6a2d9B8085354F92A2c88a12e5",
      "gasPrice": {
        "_hex": "0xba43b7400"
      },
      "gasLimit": {
        "_hex": "0x5208"
      },
      "to": "0x7e6166F37EE71F67e4D2710613687024eDb25F86",
      "value": {
        "_hex": "0x6cff6f1267dc000"
      },
      "nonce": 1,
      "data": "0x",
      "r": "0xb94d543478e7c1f8a9bdbb8ed048ab2f146b5973040dc7899b02a8a6976dac89",
      "s": "0x3fd35ba7c92d62bbbf2a3de208f9977f038531a8dd0ee678bbfd9727a555b81b",
      "v": 28,
      "creates": null,
      "raw": "0xf86c01850ba43b7400825208947e6166f37ee71f67e4d2710613687024edb25f868806cff6f1267dc000801ca0b94d543478e7c1f8a9bdbb8ed048ab2f146b5973040dc7899b02a8a6976dac89a03fd35ba7c92d62bbbf2a3de208f9977f038531a8dd0ee678bbfd9727a555b81b",
      "networkId": 0,
      "chainId": 0
    }
  ]
}