{
  "hash": "0xff61f320cacd4b8b83e39568241edea2b1ce1450e38cb07a74419d6c1d573841",
  "parentHash": "0x05a7dcc88c1b23ae126d1254395ec26927385a21b1b70aacc39e1921aff0bfcb",
  "number": 84987,
  "timestamp": 1439557024,
  "nonce": "0x89c30af03ed435e6",
  "difficulty": 2717147442120,
  "gasLimit": {
    "_hex": "0x2fefd8"
  },
  "gasUsed": {
    "_hex": "0x5208"
  },
  "miner": "0x9D49F602b0fdb924Bd63DDE2Bd0907E4A07c63a7",
  "extraData": "0x476574682f76312e302e312f6c696e75782f676f312e342e32",
  "transactions": [
    {
      "hash": "0x188a63119a0cbabd2ea4ff4e5aeb78b783a7dca5aaf9a4a2d9b079aba18b3919",
      "blockHash": "0xff61f320cacd4b8b83e39568241edea2b1ce1450e38cb07a74419d6c1d573841",
      "blockNumber": 84987,
      "transactionIndex": 0,
      "confirmations": null,
      "from": "0x056507108FE6d30189EcCD6cd7F4Fad56eEef622",
      "gasPrice": {
        "_hex": "0xdea55dc89"
      },
      "gasLimit": {
        "_hex": "0x15f90"
      },
      "to": "0x4E61B2316C9A92a4F5F078A71f2E78f1e2208F34",
      "value": {
        "_hex": "0x3bc18ad70ec25b880"
      },
      "nonce": 3,
      "data": "0x",
      "r": "0x22f0cd0b138125b6b053b172936befda1e7fc9a0b066958bdc60521604d26a6d",
      "s": "0x555d7a19f5dad34922072cb2d525c9f825cda45e789ef6feb24aaf1fcd4b4e0f",
      "v": 27,
      "creates": null,
      "raw": "0xf86e03850dea55dc8983015f90944e61b2316c9a92a4f5f078a71f2e78f1e2208f348903bc18ad70ec25b880801ba022f0cd0b138125b6b053b172936befda1e7fc9a0b066958bdc60521604d26a6da0555d7a19f5dad34922072cb2d525c9f825cda45e789ef6feb24aaf1fcd4b4e0f",
      "networkId": 0,
      "chainId": 0
    }
  ]
}