{
  "hash": "0x9ef506726700bd74b5c9f51765e5ea6bc243ebfc261d68f7cc5474106f4a3f50",
  "parentHash": "0xa310aa071f9d7dbe16492ec24b42c06e012a112ded707408cd70fbfa509f5857",
  "number": 93566,
  "timestamp": 1439693275,
  "nonce": "0x6a0eeee1623f3cb5",
  "difficulty": 3470037452262,
  "gasLimit": {
    "_hex": "0x2fefd8"
  },
  "gasUsed": {
    "_hex": "0x5208"
  },
  "miner": "0x89972aA7C0b19D1aE9cd89386160c3f28f7bB590",
  "extraData": "0xd983010001844765746887676f312e342e328777696e646f7773",
  "transactions": [
    {
      "hash": "0xb2d64788ba4a3715b13cc2ef791e18d104ad24757574e339114a2f160c5a8f4d",
      "blockHash": "0x9ef506726700bd74b5c9f51765e5ea6bc243ebfc261d68f7cc5474106f4a3f50",
      "blockNumber": 93566,
      "transactionIndex": 0,
      "confirmations": null,
      "from": "0x2d0EFca5E73E90C7707931678dfAeF38C068ac10",
      "gasPrice": {
        "_hex": "0xd7d40ace3"
      },
      "gasLimit": {
        "_hex": "0x15f90"
      },
      "to": "0x0D123Cb78ef69F3189d4b5bD0b091e79EF0Ce877",
      "value": {
        "_hex": "0xc52cf4b908c0000"
      },
      "nonce": 0,
      "data": "0x",
      "r": "0x5cd7b8973c48b0c1489c43c920c7f42d9b82325448cb130ab2259dee657f8a88",
      "s": "0x2d1feeab8dac77baffe58857d10b04e0e983ca3d5e823834b9c4ffac661f9e23",
      "v": 28,
      "creates": null,
      "raw": "0xf86d80850d7d40ace383015f90940d123cb78ef69f3189d4b5bd0b091e79ef0ce877880c52cf4b908c0000801ca05cd7b8973c48b0c1489c43c920c7f42d9b82325448cb130ab2259dee657f8a88a02d1feeab8dac77baffe58857d10b04e0e983ca3d5e823834b9c4ffac661f9e23",
      "networkId": 0,
      "chainId": 0
    }
  ]
}