{
  "hash": "0xc15221af001b2352db31f92c61a1798c79d2dd4fc9dd7573892bfb63a4b9ef37",
  "parentHash": "0x9d4ef73359bd2834a1e6bb7966c1b84c8398367890e7dec77ce63ccccabed4ca",
  "number": 118326,
  "timestamp": 1440124202,
  "nonce": "0x8fcced58c750288e",
  "difficulty": 4318436734531,
  "gasLimit": {
    "_hex": "0x2fefd8"
  },
  "gasUsed": {
    "_hex": "0x5208"
  },
  "miner": "0xaB638742EBe3A78F2a85028350e1AADB86C0a6ed",
  "extraData": "0xd983010002844765746887676f312e342e328777696e646f7773",
  "transactions": [
    {
      "hash": "0xbef91a8d4692f11f02fa572ba57ad0c064758e0531a37565b074bb3c6dbaf70d",
      "blockHash": "0xc15221af001b2352db31f92c61a1798c79d2dd4fc9dd7573892bfb63a4b9ef37",
      "blockNumber": 118326,
      "transactionIndex": 0,
      "confirmations": null,
      "from": "0x007f7f58D3eb5b7510A301eCC749FC1fCDDBE14D",
      "gasPrice": {
        "_hex": "0xba43b7400"
      },
      "gasLimit": {
        "_hex": "0x15f90"
      },
      "to": "0xb1abce2918E21ddb93AA452731a12672A3d9F75a",
      "value": {
        "_hex": "0x4563918244f40000"
      },
      "nonce": 340,
      "data": "0x",
      "r": "0x1787b80183027175eb029d22ed2f35a36401f181891921dd9fab922e19229b84",
      "s": "0x24613ffe0a6db1953a8c0f09e2ba9458edc18e99701873f6b335cb435355e5e6",
      "v": 27,
      "creates": null,
      "raw": "0xf86f820154850ba43b740083015f9094b1abce2918e21ddb93aa452731a12672a3d9f75a884563918244f40000801ba01787b80183027175eb029d22ed2f35a36401f181891921dd9fab922e19229b84a024613ffe0a6db1953a8c0f09e2ba9458edc18e99701873f6b335cb435355e5e6",
      "networkId": 0,
      "chainId": 0
    }
  ]
}