{
  "hash": "0x2693309e6a79af58ee18a8931be2f58e3b65a9128a79d78774346fa57055650b",
  "parentHash": "0x864087841bf0e4b37502ff13aa7cb802384524f5a2860982d7118fe9d7fe2d21",
  "number": 85590,
  "timestamp": 1439565853,
  "nonce": "0x1666c2424c660e86",
  "difficulty": 2774600596601,
  "gasLimit": {
    "_hex": "0x2fefd8"
  },
  "gasUsed": {
    "_hex": "0x5208"
  },
  "miner": "0x580992B51e3925e23280EfB93d3047C82f17E038",
  "extraData": "0x476574682f76312e302e312f6c696e75782f676f312e342e32",
  "transactions": [
    {
      "hash": "0x7162cbe9085f6a9f226a424c8b3be0db8f0404c85b9dc9f4d16b476752a3a413",
      "blockHash": "0x2693309e6a79af58ee18a8931be2f58e3b65a9128a79d78774346fa57055650b",
      "blockNumber": 85590,
      "transactionIndex": 0,
      "confirmations": null,
      "from": "0x2910543Af39abA0Cd09dBb2D50200b3E800A63D2",
      "gasPrice": {
        "_hex": "0xe084b328c"
      },
      "gasLimit": {
        "_hex": "0x5208"
      },
      "to": "0x0CDf45a0f7A9bFD8777c2B6311a6614345aB9D9d",
      "value": {
        "_hex": "0x51509cc12f960f8000"
      },
      "nonce": 620,
      "data": "0x",
      "r": "0x35c6a56f9c9bdd09c9942c021bb5108ddab1414ae86cca084c46b33db9767023",
      "s": "0x1fdbd052c155b1a18c7a915df8521ac85ee6370ce9471b152d5b93a26d784b8e",
      "v": 28,
      "creates": null,
      "raw": "0xf86f82026c850e084b328c825208940cdf45a0f7a9bfd8777c2b6311a6614345ab9d9d8951509cc12f960f8000801ca035c6a56f9c9bdd09c9942c021bb5108ddab1414ae86cca084c46b33db9767023a01fdbd052c155b1a18c7a915df8521ac85ee6370ce9471b152d5b93a26d784b8e",
      "networkId": 0,
      "chainId": 0
    }
  ]
}