{
  "hash": "0x4cd1f3c6fffacb40fc4688d6df7bb069605c59dd26cbf57a56243d5f8d8be85b",
  "parentHash": "0xc14397a3f552ccaef0f14bb769feccf5189b8e56114784a0189e08b5a40cb9ee",
  "number": 111970,
  "timestamp": 1439999705,
  "nonce": "0x57662c9541a0d9a1",
  "difficulty": 4385482275359,
  "gasLimit": {
    "_hex": "0x2fefd8"
  },
  "gasUsed": {
    "_hex": "0x5208"
  },
  "miner": "0x47ff6576639c2e94762eA5443978D7681C0E78DC",
  "extraData": "0x",
  "transactions": [
    {
      "hash": "0x2ff86ced5b0ee7493f1f5700abac3bfcb320fe7f489bd2a1d4da4d968684f6da",
      "blockHash": "0x4cd1f3c6fffacb40fc4688d6df7bb069605c59dd26cbf57a56243d5f8d8be85b",
      "blockNumber": 111970,
      "transactionIndex": 0,
      "confirmations": null,
      "from": "0x632b9149D70178a7333634275E82d5953F27967B",
      "gasPrice": {
        "_hex": "0xd39b7f64c"
      },
      "gasLimit": {
        "_hex": "0x15f90"
      },
      "to": "0x8B87d514623d1127f9b56DB60FA1498C1C4bF72e",
      "value": {
        "_hex": "0x56bc75e2d63100000"
      },
      "nonce": 1,
      "data": "0x",
      "r": "0x3e28711da7cdb2e409c2a44658ad44e43273f0a1befe8fc40bba27e4f474b56b",
      "s": "0x1cf3835f59dd63d75d9925200a5bebb2300a640ba258f4aa807da8dde8976ef8",
      "v": 28,
      "creates": null,
      "raw": "0xf86e01850d39b7f64c83015f90948b87d514623d1127f9b56db60fa1498c1c4bf72e89056bc75e2d63100000801ca03e28711da7cdb2e409c2a44658ad44e43273f0a1befe8fc40bba27e4f474b56ba01cf3835f59dd63d75d9925200a5bebb2300a640ba258f4aa807da8dde8976ef8",
      "networkId": 0,
      "chainId": 0
    }
  ]
}