{
  "hash": "0x1d850c5c8b77dbf6da9ebf1c4f6160853b781beed76f59c0e4ec88ff5765f264",
  "parentHash": "0xb3659d38dbd462fb0d196255d8a700239ba86d9d3326ad99c8785874cabf3e43",
  "number": 79173,
  "timestamp": 1439465733,
  "nonce": "0x91fcfabdf162ded4",
  "difficulty": 2312123324808,
  "gasLimit": {
    "_hex": "0x2fefd8"
  },
  "gasUsed": {
    "_hex": "0xa410"
  },
  "miner": "0xf8E0CA3Ed80bd541b94BEdCf259e8CF2141A9523",
  "extraData": "0x476574682f76312e302e312f77696e646f77732f676f312e342e32",
  "transactions": [
    {
      "hash": "0x5eb45162fc97ec3b2f3be8f8b34dafd75b9b59fa7bfb92aea4397bcbecd80738",
      "blockHash": "0x1d850c5c8b77dbf6da9ebf1c4f6160853b781beed76f59c0e4ec88ff5765f264",
      "blockNumber": 79173,
      "transactionIndex": 0,
      "confirmations": null,
      "from": "0x4bA6C728e6251DC89C317f7dbCA89D4136C0baB0",
      "gasPrice": {
        "_hex": "0xdf776b0e7"
      },
      "gasLimit": {
        "_hex": "0x5208"
      },
      "to": "0x32Be343B94f860124dC4fEe278FDCBD38C102D88",
      "value": {
        "_hex": "0x1e07eda9e9a56800"
      },
      "nonce": 2,
      "data": "0x",
      "r": "0xe351506ab684bf7f21784ff98631e39f02542da00f46329668940b611866315f",
      "s": "0x7e07e56c344b0f8ccaa7c9f255c49ccc62ef22fc3ffd792f08b8cf6b5db4a109",
      "v": 28,
      "creates": null,
      "raw": "0xf86c02850df776b0e78252089432be343b94f860124dc4fee278fdcbd38c102d88881e07eda9e9a56800801ca0e351506ab684bf7f21784ff98631e39f02542da00f46329668940b611866315fa07e07e56c344b0f8ccaa7c9f255c49ccc62ef22fc3ffd792f08b8cf6b5db4a109",
      "networkId": 0,
      "chainId": 0
    },
    {
      "hash": "0xc45b14893bccd9309f3bed6c4b5ff0257351ec6c4e5dbc4d391464e4ca1156fd",
      "blockHash": "0x1d850c5c8b77dbf6da9ebf1c4f6160853b781beed76f59c0e4ec88ff5765f264",
      "blockNumber": 79173,
      "transactionIndex": 1,
      "confirmations": null,
      "from": "0xCCe96724c29e042F35bCe1c2405feB0e8E30082b",
      "gasPrice": {
        "_hex": "0xdd28772ee"
      },
      "gasLimit": {
        "_hex": "0x5208"
      },
      "to": "0x32Be343B94f860124dC4fEe278FDCBD38C102D88",
      "value": {
        "_hex": "0x5ec12283e812f800"
      },
      "nonce": 1,
      "data": "0x",
      "r": "0x1cf2ff689ebcbc1d5e3617d398639201203e0546ff8a391d86c938c0b26205db",
      "s": "0x38eed8f7a70be341826f2cc825583f19c18f2f883aab5a52ac4bdf289f15d3b2",
      "v": 27,
      "creates": null,
      "raw": "0xf86c01850dd28772ee8252089432be343b94f860124dc4fee278fdcbd38c102d88885ec12283e812f800801ba01cf2ff689ebcbc1d5e3617d398639201203e0546ff8a391d86c938c0b26205dba038eed8f7a70be341826f2cc825583f19c18f2f883aab5a52ac4bdf289f15d3b2",
      "networkId": 0,
      "chainId": 0
    }
  ]
}