{
  "hash": "0x12022f6907e28983ce3d340e1580263d922e0d6c398e4cf64d70adbb1eed0377",
  "parentHash": "0x8725403a74d5d17aeaa1dc09e790317badf8369dad3c92868da45024d6440746",
  "number": 71821,
  "timestamp": 1439342520,
  "nonce": "0xa0bd9a12585d9b9a",
  "difficulty": 2169701471377,
  "gasLimit": {
    "_hex": "0x2fefd8"
  },
  "gasUsed": {
    "_hex": "0x546c"
  },
  "miner": "0xe6A7a1d47ff21B6321162AEA7C6CB457D5476Bca",
  "extraData": "0x476574682f76312e302e312d38326566323666362f6c696e75782f676f312e34",
  "transactions": [
    {
      "hash": "0xf2f69870f3aa7a412e4da27ab60dfbb8019328a37707eedd6bdf82eeb31d4795",
      "blockHash": "0x12022f6907e28983ce3d340e1580263d922e0d6c398e4cf64d70adbb1eed0377",
      "blockNumber": 71821,
      "transactionIndex": 0,
      "confirmations": null,
      "from": "0x2e7f465520ec35Cc23d68e75651BB6689544a196",
      "gasPrice": {
        "_hex": "0x110c8f7d8de"
      },
      "gasLimit": {
        "_hex": "0xc350"
      },
      "to": "0x2910543Af39abA0Cd09dBb2D50200b3E800A63D2",
      "value": {
        "_hex": "0x107ad8f556c6c0000"
      },
      "nonce": 1,
      "data": "0x454e584e47514e4330",
      "r": "0x6b88dcaa56d5f33a6da5dba227fb7b02755d09f086104a748d2b01d7f4b94b57",
      "s": "0x2793beab6574325129c60641c2a81908d25206f24ba1fae32dd72be5f54071dc",
      "v": 28,
      "creates": null,
      "raw": "0xf87701860110c8f7d8de82c350942910543af39aba0cd09dbb2d50200b3e800a63d2890107ad8f556c6c000089454e584e47514e43301ca06b88dcaa56d5f33a6da5dba227fb7b02755d09f086104a748d2b01d7f4b94b57a02793beab6574325129c60641c2a81908d25206f24ba1fae32dd72be5f54071dc",
      "networkId": 0,
      "chainId": 0
    }
  ]
}