{
  "hash": "0xfb37333d7b3418d0e0f138eef76efcb77a6c33aa8cd2726b536a364a9ac8aaaf",
  "parentHash": "0xc5ff1edcfd480508109b89e6451b2ff20ccd3605178c5c2c604f9bd19f7165be",
  "number": 79437,
  "timestamp": 1439469614,
  "nonce": "0xb54e6a4bf117e49f",
  "difficulty": 2343877701878,
  "gasLimit": {
    "_hex": "0x2fefd8"
  },
  "gasUsed": {
    "_hex": "0x5208"
  },
  "miner": "0xe6A7a1d47ff21B6321162AEA7C6CB457D5476Bca",
  "extraData": "0x476574682f76312e302e312d38326566323666362f6c696e75782f676f312e34",
  "transactions": [
    {
      "hash": "0x3f29fd94a17022d88cb8bf6e502bffec40272986b7d9976bd1d7c1809e3644ee",
      "blockHash": "0xfb37333d7b3418d0e0f138eef76efcb77a6c33aa8cd2726b536a364a9ac8aaaf",
      "blockNumber": 79437,
      "transactionIndex": 0,
      "confirmations": null,
      "from": "0x9746c7e1ef2bd21FF3997fa467593a89cb852BD0",
      "gasPrice": {
        "_hex": "0xdcce6e83a"
      },
      "gasLimit": {
        "_hex": "0x5208"
      },
      "to": "0xB0bF4A71F730782368Ef660FE6D298F432F95450",
      "value": {
        "_hex": "0xad78ebc5ac6200000"
      },
      "nonce": 22,
      "data": "0x",
      "r": "0xfb1332cadcc307164d9e92a05ab682a1b1a4502ed6c0d83e0eeb46e6d5321e0b",
      "s": "0x70a98ff5fa027cc9d556e95ef24ef67173b518348cd5c59876c14ec4e755a6c4",
      "v": 27,
      "creates": null,
      "raw": "0xf86d16850dcce6e83a82520894b0bf4a71f730782368ef660fe6d298f432f95450890ad78ebc5ac6200000801ba0fb1332cadcc307164d9e92a05ab682a1b1a4502ed6c0d83e0eeb46e6d5321e0ba070a98ff5fa027cc9d556e95ef24ef67173b518348cd5c59876c14ec4e755a6c4",
      "networkId": 0,
      "chainId": 0
    }
  ]
}