{
  "hash": "0x7b29b46410dff61b1ba492751e65768c484711e55d125e4db0ac77834225f0be",
  "parentHash": "0xb3bf9e9ab94e1b00db5a0a92f073ce5a5fe4c852211ee3b1d33b97c6127820bf",
  "number": 59956,
  "timestamp": 1439146565,
  "nonce": "0xb23ad653e67e2d98",
  "difficulty": 1734824632027,
  "gasLimit": {
    "_hex": "0x2fefd8"
  },
  "gasUsed": {
    "_hex": "0x5208"
  },
  "miner": "0x3F98e477a361F777DA14611a7e419A75Fd238b6b",
  "extraData": "0x476574682f76312e302e312f6c696e75782f676f312e342e32",
  "transactions": [
    {
      "hash": "0x72cd7ad2fcbc01b926ce212313555e6b73a7975c52f6cf3c4878ed9c0c087cd2",
      "blockHash": "0x7b29b46410dff61b1ba492751e65768c484711e55d125e4db0ac77834225f0be",
      "blockNumber": 59956,
      "transactionIndex": 0,
      "confirmations": null,
      "from": "0xaC49eeb6a55aF554D86d37b4A4eA7940010866E1",
      "gasPrice": {
        "_hex": "0xd39860dc2"
      },
      "gasLimit": {
        "_hex": "0x15f90"
      },
      "to": "0xc97b6E47df229442524F8f210926557900f81574",
      "value": {
        "_hex": "0x6f05b59d3b200000"
      },
      "nonce": 0,
      "data": "0x",
      "r": "0x16370afc2a093192871eb197e1a19f7631ada6b4e66c6b0cc44d5654360383df",
      "s": "0x36ff061db559cc7d1b02cdbbad5320598845e6483a10decb44335318d7bca45b",
      "v": 27,
      "creates": null,
      "raw": "0xf86d80850d39860dc283015f9094c97b6e47df229442524f8f210926557900f81574886f05b59d3b200000801ba016370afc2a093192871eb197e1a19f7631ada6b4e66c6b0cc44d5654360383dfa036ff061db559cc7d1b02cdbbad5320598845e6483a10decb44335318d7bca45b",
      "networkId": 0,
      "chainId": 0
    }
  ]
}