{
  "hash": "0x85f4f53aafae68fbe0eb81b01199fa0b83d839689f235f98ab85365f2b75962a",
  "parentHash": "0xc2dedd99f2fec77ad3ede1242078a4dd127483abe3b5d2c4cf506021f3fab71e",
  "number": 80626,
  "timestamp": 1439488228,
  "nonce": "0x1218cfb7b27be72b",
  "difficulty": 2430959540800,
  "gasLimit": {
    "_hex": "0x2fefd8"
  },
  "gasUsed": {
    "_hex": "0x5208"
  },
  "miner": "0x19dFA9C93e19858130E213C2B35bD3062F5d0a6D",
  "extraData": "0x476574682f76312e302e312d38326566323666362f6c696e75782f676f312e34",
  "transactions": [
    {
      "hash": "0x294c82de309dc12f3bb73284a6bf4885f64131075d3b693d8759a8096ac3ee6f",
      "blockHash": "0x85f4f53aafae68fbe0eb81b01199fa0b83d839689f235f98ab85365f2b75962a",
      "blockNumber": 80626,
      "transactionIndex": 0,
      "confirmations": null,
      "from": "0x6De181Fc4C140FA31F196e5393516c49EEeBdAd3",
      "gasPrice": {
        "_hex": "0xce2d48024"
      },
      "gasLimit": {
        "_hex": "0x5208"
      },
      "to": "0x32Be343B94f860124dC4fEe278FDCBD38C102D88",
      "value": {
        "_hex": "0x1314b87cd262f5000"
      },
      "nonce": 6,
      "data": "0x",
      "r": "0x1660ae97f0bb5835dfee9620180c5c0af9854d79402beb579cfe2f9963a1b0f0",
      "s": "0x641cb91b59b8b495dea373c694e0fa0e08eb3c2ae592957a06e66e72982f0491",
      "v": 28,
      "creates": null,
      "raw": "0xf86d06850ce2d480248252089432be343b94f860124dc4fee278fdcbd38c102d888901314b87cd262f5000801ca01660ae97f0bb5835dfee9620180c5c0af9854d79402beb579cfe2f9963a1b0f0a0641cb91b59b8b495dea373c694e0fa0e08eb3c2ae592957a06e66e72982f0491",
      "networkId": 0,
      "chainId": 0
    }
  ]
}