{
  "hash": "0x4437bf9e2c8cd09c02800885333729bb4aaba1f8fa4f7150e6214c9a7eed6f4d",
  "parentHash": "0x3a8847bf731584410dbac2360a8309baf9290ddf9f4a23032ad59c0211bac0e2",
  "number": 64688,
  "timestamp": 1439224868,
  "nonce": "0xda543447202774b2",
  "difficulty": 1885751876508,
  "gasLimit": {
    "_hex": "0x2fefd8"
  },
  "gasUsed": {
    "_hex": "0xf618"
  },
  "miner": "0x785ffdDd5cE55c6DF963f345e68d3F2024E5Acb1",
  "extraData": "0x457468657265756d20474f212121212121",
  "transactions": [
    {
      "hash": "0xebdfb3f4550900008de37302b615e3f38dcca206c0954a108efe667e5cdb439d",
      "blockHash": "0x4437bf9e2c8cd09c02800885333729bb4aaba1f8fa4f7150e6214c9a7eed6f4d",
      "blockNumber": 64688,
      "transactionIndex": 0,
      "confirmations": null,
      "from": "0x2910543Af39abA0Cd09dBb2D50200b3E800A63D2",
      "gasPrice": {
        "_hex": "0xd0d1a52c8"
      },
      "gasLimit": {
        "_hex": "0x5208"
      },
      "to": "0x1014f6B954930cCd7300F750ae24a00af22c0124",
      "value": {
        "_hex": "0xdcef33a6f838000"
      },
      "nonce": 149,
      "data": "0x",
      "r": "0xd51aa017f453364f98fb97e8f45569a5a07df08d258d182c5223fc54eacf2b0f",
      "s": "0x61aa19654645e3c76589ff2a2eb2a5c6ae4bfbd4fa90dd17e393d4f5c0afa2ad",
      "v": 27,
      "creates": null,
      "raw": "0xf86d8195850d0d1a52c8825208941014f6b954930ccd7300f750ae24a00af22c0124880dcef33a6f838000801ba0d51aa017f453364f98fb97e8f45569a5a07df08d258d182c5223fc54eacf2b0fa061aa19654645e3c76589ff2a2eb2a5c6ae4bfbd4fa90dd17e393d4f5c0afa2ad",
      "networkId": 0,
      "chainId": 0
    },
    {
      "hash": "0xb38ce450eb84bb68ab7e90e9205a589250754999f3f6c329c045a6ae2b23c6a0",
      "blockHash": "0x4437bf9e2c8cd09c02800885333729bb4aaba1f8fa4f7150e6214c9a7eed6f4d",
      "blockNumber": 64688,
      "transactionIndex": 1,
      "confirmations": null,
      "from": "0x2910543Af39abA0Cd09dBb2D50200b3E800A63D2",
      "gasPrice": {
        "_hex": "0xd0d1a52c8"
      },
      "gasLimit": {
        "_hex": "0x5208"
      },
      "to": "0xD96719eF8eFF64F6e84Fd03120014834F4E76c40",
      "value": {
        "_hex": "0x4551ce090d138000"
      },
      "nonce": 150,
      "data": "0x",
      "r": "0x7e909d4d5fc7b3e4159de12e0cef7af949b36bd597eb3fde14cfc61b9ffdd41c",
      "s": "0x0622aee2f923389326aae84c24af14549ea3c958763338f6ce6072629aebd80e",
      "v": 28,
      "creates": null,
      "raw": "0xf86d8196850d0d1a52c882520894d96719ef8eff64f6e84fd03120014834f4e76c40884551ce090d138000801ca07e909d4d5fc7b3e4159de12e0cef7af949b36bd597eb3fde14cfc61b9ffdd41ca00622aee2f923389326aae84c24af14549ea3c958763338f6ce6072629aebd80e",
      "networkId": 0,
      "chainId": 0
    },
    {
      "hash": "0x5e5a2e4c34aced0c010aef769be1728efb1a6dae2848ee5fa9413ad0c261bb60",
      "blockHash": "0x4437bf9e2c8cd09c02800885333729bb4aaba1f8fa4f7150e6214c9a7eed6f4d",
      "blockNumber": 64688,
      "transactionIndex": 2,
      "confirmations": null,
      "from": "0x8a77B2783ec23cA3A324Af0F7da642DcaEB278Dd",
      "gasPrice": {
        "_hex": "0xba43b7400"
      },
      "gasLimit": {
        "_hex": "0x5208"
      },
      "to": "0x6747f922385c9a6F9cfDf095F34345257DD597bE",
      "value": {
        "_hex": "0xf0088de8d15000"
      },
      "nonce": 1,
      "data": "0x",
      "r": "0xcc7d3e2bca7a0d0fe96405ec4db0ac1314c859027fc6e32b5dd5357af5d90209",
      "s": "0x126a0f42b5dcf9b269bfaa3395b6289e98bc2963227cd2076e3f71166da9ffb3",
      "v": 28,
      "creates": null,
      "raw": "0xf86b01850ba43b7400825208946747f922385c9a6f9cfdf095f34345257dd597be87f0088de8d15000801ca0cc7d3e2bca7a0d0fe96405ec4db0ac1314c859027fc6e32b5dd5357af5d90209a0126a0f42b5dcf9b269bfaa3395b6289e98bc2963227cd2076e3f71166da9ffb3",
      "networkId": 0,
      "chainId": 0
    }
  ]
}