{
  "hash": "0xf6e2c8bc715abbcd89c18f6e7fb4be9d3ceb1c76f716b5150f279d22a02b3094",
  "parentHash": "0x35bfb175163c2960a90e687e9f81f2d91c66816d4ec1936d0d3aa279a596044c",
  "number": 79121,
  "timestamp": 1439464776,
  "nonce": "0xb1e95b0c08a3e050",
  "difficulty": 2316657964582,
  "gasLimit": {
    "_hex": "0x2fe493"
  },
  "gasUsed": {
    "_hex": "0x47c70"
  },
  "miner": "0x9746c7e1ef2bd21FF3997fa467593a89cb852BD0",
  "extraData": "0x476574682f76312e302e312f77696e646f77732f676f312e342e32",
  "transactions": [
    {
      "hash": "0xa038e1b017ea01ad7debd81c03c2314de826a94e0f632972f8dd982f2aa55322",
      "blockHash": "0xf6e2c8bc715abbcd89c18f6e7fb4be9d3ceb1c76f716b5150f279d22a02b3094",
      "blockNumber": 79121,
      "transactionIndex": 0,
      "confirmations": null,
      "from": "0x701aE497d3522329870Ada714AA902424EA8Da01",
      "gasPrice": {
        "_hex": "0xe072d1296"
      },
      "gasLimit": {
        "_hex": "0x5208"
      },
      "to": "0x32Be343B94f860124dC4fEe278FDCBD38C102D88",
      "value": {
        "_hex": "0x188d820992760e000"
      },
      "nonce": 2,
      "data": "0x",
      "r": "0x44095c89868443795b8060520206bc46d50bf2fd3ca20064bb07af8f54793e8f",
      "s": "0x6ac2eff7d1d486648be577de2a3882856b6300494f0bd36640335698c048743f",
      "v": 28,
      "creates": null,
      "raw": "0xf86d02850e072d12968252089432be343b94f860124dc4fee278fdcbd38c102d88890188d820992760e000801ca044095c89868443795b8060520206bc46d50bf2fd3ca20064bb07af8f54793e8fa06ac2eff7d1d486648be577de2a3882856b6300494f0bd36640335698c048743f",
      "networkId": 0,
      "chainId": 0
    },
    {
      "hash": "0x134aabba296db6b6f49f8afd345688e55c0d0b0acb294445f09a628093ead034",
      "blockHash": "0xf6e2c8bc715abbcd89c18f6e7fb4be9d3ceb1c76f716b5150f279d22a02b3094",
      "blockNumber": 79121,
      "transactionIndex": 1,
      "confirmations": null,
      "from": "0x047fF53dFE1F7BD2c3Ed2D1f777F35D1f64e9ffE",
      "gasPrice": {
        "_hex": "0xe072d1296"
      },
      "gasLimit": {
        "_hex": "0x5208"
      },
      "to": "0x32Be343B94f860124dC4fEe278FDCBD38C102D88",
      "value": {
        "_hex": "0x44789fded89b70000"
      },
      "nonce": 2,
      "data": "0x",
      "r": "0x97fb3620df7ca1a1751fd008ec01eb4ba4dd34773e5c7873d0c3da7b25c54d78",
      "s": "0x6461a9af3f91dd507c3a8b326463b9b4a50da0f55fc6b548c517795014ad8bc3",
      "v": 28,
      "creates": null,
      "raw": "0xf86d02850e072d12968252089432be343b94f860124dc4fee278fdcbd38c102d8889044789fded89b70000801ca097fb3620df7ca1a1751fd008ec01eb4ba4dd34773e5c7873d0c3da7b25c54d78a06461a9af3f91dd507c3a8b326463b9b4a50da0f55fc6b548c517795014ad8bc3",
      "networkId": 0,
      "chainId": 0
    },
    {
      "hash": "0x750e1da88288fc3322f84285036dbbb3f295cf6dda44d7def2520325e5037317",
      "blockHash": "0xf6e2c8bc715abbcd89c18f6e7fb4be9d3ceb1c76f716b5150f279d22a02b3094",
      "blockNumber": 79121,
      "transactionIndex": 2,
      "confirmations": null,
      "from": "0xAd941B747c499E3ad5728C285446813783A33564",
      "gasPrice": {
        "_hex": "0xde57475bd"
      },
      "gasLimit": {
        "_hex": "0x5208"
      },
      "to": "0x32Be343B94f860124dC4fEe278FDCBD38C102D88",
      "value": {
        "_hex": "0x11589d21a2230c000"
      },
      "nonce": 4,
      "data": "0x",
      "r": "0xeb33e65e7bb41b35b4b4c9b2ea6ef9a7412930576cebd7389aff8b577a60eba5",
      "s": "0x589698e118c90e44e71c1b2a74c45493a6d79f287942319fdedb2749a8dd5c62",
      "v": 28,
      "creates": null,
      "raw": "0xf86d04850de57475bd8252089432be343b94f860124dc4fee278fdcbd38c102d8889011589d21a2230c000801ca0eb33e65e7bb41b35b4b4c9b2ea6ef9a7412930576cebd7389aff8b577a60eba5a0589698e118c90e44e71c1b2a74c45493a6d79f287942319fdedb2749a8dd5c62",
      "networkId": 0,
      "chainId": 0
    },
    {
      "hash": "0x8d32f7ca57a8a9e6ac317b2035ac9e05f5493ba30fb5cbea03990f7196f76027",
      "blockHash": "0xf6e2c8bc715abbcd89c18f6e7fb4be9d3ceb1c76f716b5150f279d22a02b3094",
      "blockNumber": 79121,
      "transactionIndex": 3,
      "confirmations": null,
      "from": "0xB415e74b9b5B2058EF3541265aaF7ce09C4953bc",
      "gasPrice": {
        "_hex": "0xde57475bd"
      },
      "gasLimit": {
        "_hex": "0x5208"
      },
      "to": "0x32Be343B94f860124dC4fEe278FDCBD38C102D88",
      "value": {
        "_hex": "0x106b0350776100000"
      },
      "nonce": 2,
      "data": "0x",
      "r": "0x3fa7294a74dc65a874793dcea343fefe55b7c7b3043dd921b329765a5363f537",
      "s": "0x128dbf7128961b93e1982f09992739e4da38089a8ffa2eb415fc0fe861bb0885",
      "v": 28,
      "creates": null,
      "raw": "0xf86d02850de57475bd8252089432be343b94f860124dc4fee278fdcbd38c102d88890106b0350776100000801ca03fa7294a74dc65a874793dcea343fefe55b7c7b3043dd921b329765a5363f537a0128dbf7128961b93e1982f09992739e4da38089a8ffa2eb415fc0fe861bb0885",
      "networkId": 0,
      "chainId": 0
    },
    {
      "hash": "0x586c299c18a7ee2c6767ed6bf5834d63c76e2ca5b08d13de7b087f989fa15edb",
      "blockHash": "0xf6e2c8bc715abbcd89c18f6e7fb4be9d3ceb1c76f716b5150f279d22a02b3094",
      "blockNumber": 79121,
      "transactionIndex": 4,
      "confirmations": null,
      "from": "0x5248EfBC7319bd65d436374266765D9727253F12",
      "gasPrice": {
        "_hex": "0xde57475bd"
      },
      "gasLimit": {
        "_hex": "0x5208"
      },
      "to": "0x32Be343B94f860124dC4fEe278FDCBD38C102D88",
      "value": {
        "_hex": "0x31b3b237087c86000"
      },
      "nonce": 2,
      "data": "0x",
      "r": "0x2248226905e09e05cb04dd296d0c7cf40fd8ee1ca854b0066d14186900a613ed",
      "s": "0x17905a1bb0520ee9d163d27e700e2c36b2fc5ca1201152d2fc50eb2fe1a31f2b",
      "v": 27,
      "creates": null,
      "raw": "0xf86d02850de57475bd8252089432be343b94f860124dc4fee278fdcbd38c102d8889031b3b237087c86000801ba02248226905e09e05cb04dd296d0c7cf40fd8ee1ca854b0066d14186900a613eda017905a1bb0520ee9d163d27e700e2c36b2fc5ca1201152d2fc50eb2fe1a31f2b",
      "networkId": 0,
      "chainId": 0
    },
    {
      "hash": "0x4f4b2aa3656591f280cfb88be6cc17f4fd4352b510aa99fbba8e44959c9a1fd5",
      "blockHash": "0xf6e2c8bc715abbcd89c18f6e7fb4be9d3ceb1c76f716b5150f279d22a02b3094",
      "blockNumber": 79121,
      "transactionIndex": 5,
      "confirmations": null,
      "from": "0x6964b95BF8BA16b837e2f3Ae8dA7D299553eC1f7",
      "gasPrice": {
        "_hex": "0xde57475bd"
      },
      "gasLimit": {
        "_hex": "0x5208"
      },
      "to": "0x32Be343B94f860124dC4fEe278FDCBD38C102D88",
      "value": {
        "_hex": "0x2b455a22106e7a000"
      },
      "nonce": 2,
      "data": "0x",
      "r": "0x18047be449ea989eb61f86e55ef10879e656f9af32ee3cadf010b47d61fbc35d",
      "s": "0x119097e2cb108d578ed63d8dc94dcb08d946bd4d9bd76ffadf46030328a2bbae",
      "v": 27,
      "creates": null,
      "raw": "0xf86d02850de57475bd8252089432be343b94f860124dc4fee278fdcbd38c102d888902b455a22106e7a000801ba018047be449ea989eb61f86e55ef10879e656f9af32ee3cadf010b47d61fbc35da0119097e2cb108d578ed63d8dc94dcb08d946bd4d9bd76ffadf46030328a2bbae",
      "networkId": 0,
      "chainId": 0
    },
    {
      "hash": "0x6cf1d750097e0c2bea0cd6569541cb022424624572e9ac441216bf207dc190d9",
      "blockHash": "0xf6e2c8bc715abbcd89c18f6e7fb4be9d3ceb1c76f716b5150f279d22a02b3094",
      "blockNumber": 79121,
      "transactionIndex": 6,
      "confirmations": null,
      "from": "0x2D1d94521E896625F8Ec3f65171Fa82262Da6BCF",
      "gasPrice": {
        "_hex": "0xcc6f336c7"
      },
      "gasLimit": {
        "_hex": "0x5208"
      },
      "to": "0x32Be343B94f860124dC4fEe278FDCBD38C102D88",
      "value": {
        "_hex": "0x2cabfb087950cc000"
      },
      "nonce": 2,
      "data": "0x",
      "r": "0xb0cfbdca48b510d07c1fb47490abd601a4132ab14762f393da134c5436001c6d",
      "s": "0x539ca7258db308def56c8b3f43312012d1fcc01c64b33700368503605b5e456d",
      "v": 28,
      "creates": null,
      "raw": "0xf86d02850cc6f336c78252089432be343b94f860124dc4fee278fdcbd38c102d888902cabfb087950cc000801ca0b0cfbdca48b510d07c1fb47490abd601a4132ab14762f393da134c5436001c6da0539ca7258db308def56c8b3f43312012d1fcc01c64b33700368503605b5e456d",
      "networkId": 0,
      "chainId": 0
    },
    {
      "hash": "0x15fbd18fd97b1ca950a7e20dca825ad90189d95baa6e7630af964d41af5c6f33",
      "blockHash": "0xf6e2c8bc715abbcd89c18f6e7fb4be9d3ceb1c76f716b5150f279d22a02b3094",
      "blockNumber": 79121,
      "transactionIndex": 7,
      "confirmations": null,
      "from": "0xf79785E5a846aCea08F94379fCCe79B1054bDB99",
      "gasPrice": {
        "_hex": "0xcc6f336c7"
      },
      "gasLimit": {
        "_hex": "0x5208"
      },
      "to": "0x32Be343B94f860124dC4fEe278FDCBD38C102D88",
      "value": {
        "_hex": "0x1626fe65f92c47000"
      },
      "nonce": 8,
      "data": "0x",
      "r": "0x8a03faa6ca9caa2fbfc14909e25bdf1bf4354c16b913523bbafdcfc4e5a4f662",
      "s": "0x39b098da347020721828bb72a11cc05765b70a56cf7f80013abb3d757405ad77",
      "v": 28,
      "creates": null,
      "raw": "0xf86d08850cc6f336c78252089432be343b94f860124dc4fee278fdcbd38c102d888901626fe65f92c47000801ca08a03faa6ca9caa2fbfc14909e25bdf1bf4354c16b913523bbafdcfc4e5a4f662a039b098da347020721828bb72a11cc05765b70a56cf7f80013abb3d757405ad77",
      "networkId": 0,
      "chainId": 0
    },
    {
      "hash": "0xc1f5413900ca085e9233a590c2b4fa481acb9320c5ff755e189f941259a8863c",
      "blockHash": "0xf6e2c8bc715abbcd89c18f6e7fb4be9d3ceb1c76f716b5150f279d22a02b3094",
      "blockNumber": 79121,
      "transactionIndex": 8,
      "confirmations": null,
      "from": "0xE6D67E3661E28eE2DfC1c68D5DeeA3C3bB880059",
      "gasPrice": {
        "_hex": "0xcc6f336c7"
      },
      "gasLimit": {
        "_hex": "0x5208"
      },
      "to": "0x32Be343B94f860124dC4fEe278FDCBD38C102D88",
      "value": {
        "_hex": "0x11391692e62c95000"
      },
      "nonce": 2,
      "data": "0x",
      "r": "0x0eb0d84e6f2b13bb2494983ee7e3df859706ff9be0819b6f48cbae8f2ceb9d14",
      "s": "0x0ad2d743c6d6e81694ada0acce04aa34735be90090520b78800631fde92c56c3",
      "v": 28,
      "creates": null,
      "raw": "0xf86d02850cc6f336c78252089432be343b94f860124dc4fee278fdcbd38c102d8889011391692e62c95000801ca00eb0d84e6f2b13bb2494983ee7e3df859706ff9be0819b6f48cbae8f2ceb9d14a00ad2d743c6d6e81694ada0acce04aa34735be90090520b78800631fde92c56c3",
      "networkId": 0,
      "chainId": 0
    },
    {
      "hash": "0x67d76169ae83bb4e70aba8085d2794448c7efa6b404c73fd9356e1a943deb117",
      "blockHash": "0xf6e2c8bc715abbcd89c18f6e7fb4be9d3ceb1c76f716b5150f279d22a02b3094",
      "blockNumber": 79121,
      "transactionIndex": 9,
      "confirmations": null,
      "from": "0x52191276589069F70F0E46bcCc718d793d1Aa1D0",
      "gasPrice": {
        "_hex": "0xcc6f336c7"
      },
      "gasLimit": {
        "_hex": "0x5208"
      },
      "to": "0x32Be343B94f860124dC4fEe278FDCBD38C102D88",
      "value": {
        "_hex": "0x1934eac0da0c1e000"
      },
      "nonce": 0,
      "data": "0x",
      "r": "0x0642ad485ca5a904ff3d423e02b37914e8111e7e5d0c48144a7972d722b43e2b",
      "s": "0x76e343553e24f101f229f947be31c0b1c1e99d1c1cf124185ba0b3f546e2a442",
      "v": 27,
      "creates": null,
      "raw": "0xf86d80850cc6f336c78252089432be343b94f860124dc4fee278fdcbd38c102d888901934eac0da0c1e000801ba00642ad485ca5a904ff3d423e02b37914e8111e7e5d0c48144a7972d722b43e2ba076e343553e24f101f229f947be31c0b1c1e99d1c1cf124185ba0b3f546e2a442",
      "networkId": 0,
      "chainId": 0
    },
    {
      "hash": "0x3dd4ba2e6bfc48d9c8ea4fe947c9e3dd5888f388bf30014a8ce35c87ab720ed3",
      "blockHash": "0xf6e2c8bc715abbcd89c18f6e7fb4be9d3ceb1c76f716b5150f279d22a02b3094",
      "blockNumber": 79121,
      "transactionIndex": 10,
      "confirmations": null,
      "from": "0xF7e66D2622220807d8696064E94ca24b1dC6e7Da",
      "gasPrice": {
        "_hex": "0xcc6f336c7"
      },
      "gasLimit": {
        "_hex": "0x5208"
      },
      "to": "0x32Be343B94f860124dC4fEe278FDCBD38C102D88",
      "value": {
        "_hex": "0x41118dc010d490000"
      },
      "nonce": 11,
      "data": "0x",
      "r": "0xa7f854956085fff59230fde2fedcfad6d031d6a48726584000c1539925e3ace6",
      "s": "0x2eef141c02439a3460c5ae4a30632c731868a4f1a879efa815b6f69ab804a1ce",
      "v": 28,
      "creates": null,
      "raw": "0xf86d0b850cc6f336c78252089432be343b94f860124dc4fee278fdcbd38c102d8889041118dc010d490000801ca0a7f854956085fff59230fde2fedcfad6d031d6a48726584000c1539925e3ace6a02eef141c02439a3460c5ae4a30632c731868a4f1a879efa815b6f69ab804a1ce",
      "networkId": 0,
      "chainId": 0
    },
    {
      "hash": "0xd54e672f9d9dcb7c75411053e6de4368dc2dc04c396b21985f1291c57190608e",
      "blockHash": "0xf6e2c8bc715abbcd89c18f6e7fb4be9d3ceb1c76f716b5150f279d22a02b3094",
      "blockNumber": 79121,
      "transactionIndex": 11,
      "confirmations": null,
      "from": "0xE12517204a15E890f12755207271102F4800A0c4",
      "gasPrice": {
        "_hex": "0xcc6f336c7"
      },
      "gasLimit": {
        "_hex": "0x5208"
      },
      "to": "0x32Be343B94f860124dC4fEe278FDCBD38C102D88",
      "value": {
        "_hex": "0x2e159eece9a53e000"
      },
      "nonce": 6,
      "data": "0x",
      "r": "0xafe28857bfc397c1f0893190389dc6d735d6cba811d33ed948cfd91487848ed2",
      "s": "0x4854e71c6b5e656c316500e5781f0808b6a544f619abeb6c04525da41af6abea",
      "v": 27,
      "creates": null,
      "raw": "0xf86d06850cc6f336c78252089432be343b94f860124dc4fee278fdcbd38c102d888902e159eece9a53e000801ba0afe28857bfc397c1f0893190389dc6d735d6cba811d33ed948cfd91487848ed2a04854e71c6b5e656c316500e5781f0808b6a544f619abeb6c04525da41af6abea",
      "networkId": 0,
      "chainId": 0
    },
    {
      "hash": "0x4cb6c7cab84e6825c9535626e60cca1f89b1e4758bbe732faf64eb28449720ae",
      "blockHash": "0xf6e2c8bc715abbcd89c18f6e7fb4be9d3ceb1c76f716b5150f279d22a02b3094",
      "blockNumber": 79121,
      "transactionIndex": 12,
      "confirmations": null,
      "from": "0xc7704Fc5c51C7a5f1a6574b0014b58C8915BA55C",
      "gasPrice": {
        "_hex": "0xcc6f336c7"
      },
      "gasLimit": {
        "_hex": "0x5208"
      },
      "to": "0x32Be343B94f860124dC4fEe278FDCBD38C102D88",
      "value": {
        "_hex": "0x1cd3a5fab6c98e000"
      },
      "nonce": 1,
      "data": "0x",
      "r": "0x6ed34cf069258910994d4eec78a7cc7169419d02580182daec019c86e59c262c",
      "s": "0x0180cd843863a9af4d77354ddfa53b684167a53b6db5fc102a698ac7333d6e0e",
      "v": 27,
      "creates": null,
      "raw": "0xf86d01850cc6f336c78252089432be343b94f860124dc4fee278fdcbd38c102d888901cd3a5fab6c98e000801ba06ed34cf069258910994d4eec78a7cc7169419d02580182daec019c86e59c262ca00180cd843863a9af4d77354ddfa53b684167a53b6db5fc102a698ac7333d6e0e",
      "networkId": 0,
      "chainId": 0
    },
    {
      "hash": "0x8a9134b5a57ce256b677cc7bfcd6b9f342fde1c83b1d9744c64f11c50795d482",
      "blockHash": "0xf6e2c8bc715abbcd89c18f6e7fb4be9d3ceb1c76f716b5150f279d22a02b3094",
      "blockNumber": 79121,
      "transactionIndex": 13,
      "confirmations": null,
      "from": "0x267069452478cA39b3f5F1A4fFdD4131f50Bc977",
      "gasPrice": {
        "_hex": "0xcc6f336c7"
      },
      "gasLimit": {
        "_hex": "0x5208"
      },
      "to": "0x32Be343B94f860124dC4fEe278FDCBD38C102D88",
      "value": {
        "_hex": "0x28eb952d389cf8000"
      },
      "nonce": 5,
      "data": "0x",
      "r": "0x364397bcfd4838e21809452f7815529647c74fbee618f47ae4f844fe7aab2a4c",
      "s": "0x439b2f255819386b8bc8de54ddd8dd17a0cd13c52bff859b4276e6df125fbc7d",
      "v": 27,
      "creates": null,
      "raw": "0xf86d05850cc6f336c78252089432be343b94f860124dc4fee278fdcbd38c102d8889028eb952d389cf8000801ba0364397bcfd4838e21809452f7815529647c74fbee618f47ae4f844fe7aab2a4ca0439b2f255819386b8bc8de54ddd8dd17a0cd13c52bff859b4276e6df125fbc7d",
      "networkId": 0,
      "chainId": 0
    }
  ]
}