{
  "hash": "0x18596ea606fddf0e21041c61930286326602d07b14d25e805ebbc7b069681eec",
  "parentHash": "0xdc7c7c05caf662f8901301e2f4ed92401796b7d42e7f03e8dc24a56b2cb36945",
  "number": 99276,
  "timestamp": 1439787320,
  "nonce": "0x1c330df6be20e674",
  "difficulty": 3789946475632,
  "gasLimit": {
    "_hex": "0x2fefd8"
  },
  "gasUsed": {
    "_hex": "0xa410"
  },
  "miner": "0xf927a40C8B7F6E07c5af7FA2155B4864a4112B13",
  "extraData": "0x",
  "transactions": [
    {
      "hash": "0x4c8da816b56eb72f3f41485955b528438dfd36f19fc801be63866c7bc5a45e58",
      "blockHash": "0x18596ea606fddf0e21041c61930286326602d07b14d25e805ebbc7b069681eec",
      "blockNumber": 99276,
      "transactionIndex": 0,
      "confirmations": null,
      "from": "0x74A2B23F7e1bC34c7a605776e0Cd2CbF73566794",
      "gasPrice": {
        "_hex": "0xd89ade207"
      },
      "gasLimit": {
        "_hex": "0x5208"
      },
      "to": "0x32Be343B94f860124dC4fEe278FDCBD38C102D88",
      "value": {
        "_hex": "0x375af20fe0cda400"
      },
      "nonce": 1,
      "data": "0x",
      "r": "0x30b734fdbd36637611e074720a0b42c8c7cd720a88f2c04a33903770181ad07b",
      "s": "0x55b23538ea8b9b99e97c999338ee1f4aef049d29b1798ea8d97f0a80df9d0530",
      "v": 28,
      "creates": null,
      "raw": "0xf86c01850d89ade2078252089432be343b94f860124dc4fee278fdcbd38c102d8888375af20fe0cda400801ca030b734fdbd36637611e074720a0b42c8c7cd720a88f2c04a33903770181ad07ba055b23538ea8b9b99e97c999338ee1f4aef049d29b1798ea8d97f0a80df9d0530",
      "networkId": 0,
      "chainId": 0
    },
    {
      "hash": "0xe7f31809f0fc74711c1862e56dbe0477544d0f7259b944085ce1a57ea2352bd5",
      "blockHash": "0x18596ea606fddf0e21041c61930286326602d07b14d25e805ebbc7b069681eec",
      "blockNumber": 99276,
      "transactionIndex": 1,
      "confirmations": null,
      "from": "0x32Be343B94f860124dC4fEe278FDCBD38C102D88",
      "gasPrice": {
        "_hex": "0xd89ade207"
      },
      "gasLimit": {
        "_hex": "0x5208"
      },
      "to": "0xAa37b1200B856ce897a85b9C2b11a8213095Bf2a",
      "value": {
        "_hex": "0xf207539952d0000"
      },
      "nonce": 1059,
      "data": "0x",
      "r": "0xda1335fb0d069c3b80c84e3f63c0def2288f8533df036a1d99768be5e1242b75",
      "s": "0x509136ad44d08a0a34fd26e1b36bb224db4d7440b651cac52c5d503a8170e47c",
      "v": 27,
      "creates": null,
      "raw": "0xf86e820423850d89ade20782520894aa37b1200b856ce897a85b9c2b11a8213095bf2a880f207539952d0000801ba0da1335fb0d069c3b80c84e3f63c0def2288f8533df036a1d99768be5e1242b75a0509136ad44d08a0a34fd26e1b36bb224db4d7440b651cac52c5d503a8170e47c",
      "networkId": 0,
      "chainId": 0
    }
  ]
}