{
  "hash": "0x29406a745e0577503fedee4118ba7901b773d29896435d41926ea0c0cd11b488",
  "parentHash": "0x89fec202d95e91ff9340a88b2e8f4f49e19549f508183f536afefad8014b6fb1",
  "number": 47979,
  "timestamp": 1438949351,
  "nonce": "0x90ecae1ec746236f",
  "difficulty": 1460814627335,
  "gasLimit": {
    "_hex": "0x112be"
  },
  "gasUsed": {
    "_hex": "0xa8d8"
  },
  "miner": "0xe6A7a1d47ff21B6321162AEA7C6CB457D5476Bca",
  "extraData": "0x657468706f6f6c2e6f7267",
  "transactions": [
    {
      "hash": "0x60076d1bef9294634b2a34debfae12013038aea8790e24486f57cea5cd756e34",
      "blockHash": "0x29406a745e0577503fedee4118ba7901b773d29896435d41926ea0c0cd11b488",
      "blockNumber": 47979,
      "transactionIndex": 0,
      "confirmations": null,
      "from": "0x3DfCf2bF579C831a03379a140b74f884e49CaFf3",
      "gasPrice": {
        "_hex": "0xe10985523"
      },
      "gasLimit": {
        "_hex": "0x61a8"
      },
      "to": "0x2910543Af39abA0Cd09dBb2D50200b3E800A63D2",
      "value": {
        "_hex": "0x4563918244f40000"
      },
      "nonce": 0,
      "data": "0x454e37415942575838",
      "r": "0xff39f1f98167bbb903225639091bdccde5cb662b1b326c0cb7d68830007ec2ce",
      "s": "0x3468468f2d37818689e19224ce016dd878ac00e813f7f45929bafc8d6cb3c485",
      "v": 27,
      "creates": null,
      "raw": "0xf87580850e109855238261a8942910543af39aba0cd09dbb2d50200b3e800a63d2884563918244f4000089454e374159425758381ba0ff39f1f98167bbb903225639091bdccde5cb662b1b326c0cb7d68830007ec2cea03468468f2d37818689e19224ce016dd878ac00e813f7f45929bafc8d6cb3c485",
      "networkId": 0,
      "chainId": 0
    },
    {
      "hash": "0x5537acf5056808bc167d9cfe8a9896decb9a38e73f4263663c5b41158bbae7de",
      "blockHash": "0x29406a745e0577503fedee4118ba7901b773d29896435d41926ea0c0cd11b488",
      "blockNumber": 47979,
      "transactionIndex": 1,
      "confirmations": null,
      "from": "0x40A331195B977325c2aA28FA2f42cb25Ec3c253c",
      "gasPrice": {
        "_hex": "0xd03959c79"
      },
      "gasLimit": {
        "_hex": "0x9c40"
      },
      "to": "0x2910543Af39abA0Cd09dBb2D50200b3E800A63D2",
      "value": {
        "_hex": "0x1b1ae4d6e2ef500000"
      },
      "nonce": 5,
      "data": "0x454e364337445a3538",
      "r": "0xdd9e9a1fcab18ac4145c05e622eca334691da2bfc35550d17993b9c79ec5b51d",
      "s": "0x04343822b31a6cad014c6ec232ab0fede7437b975bbb602a19ebafb9d602fb57",
      "v": 28,
      "creates": null,
      "raw": "0xf87605850d03959c79829c40942910543af39aba0cd09dbb2d50200b3e800a63d2891b1ae4d6e2ef50000089454e364337445a35381ca0dd9e9a1fcab18ac4145c05e622eca334691da2bfc35550d17993b9c79ec5b51da004343822b31a6cad014c6ec232ab0fede7437b975bbb602a19ebafb9d602fb57",
      "networkId": 0,
      "chainId": 0
    }
  ]
}