{
  "hash": "0x2e7cc9dbc931130e353c6764b304f2de02aa47ea64a808a9f0e37d973c5c4857",
  "parentHash": "0x39d256726bfe5b896861cb74e93a3ffe1a46a97f957a52b00de3dbe93d4f8a53",
  "number": 88130,
  "timestamp": 1439603156,
  "nonce": "0x0a6aa48699e3696e",
  "difficulty": 3201945887768,
  "gasLimit": {
    "_hex": "0x2fefd8"
  },
  "gasUsed": {
    "_hex": "0x5208"
  },
  "miner": "0xe6A7a1d47ff21B6321162AEA7C6CB457D5476Bca",
  "extraData": "0x476574682f76312e302e312d38326566323666362f6c696e75782f676f312e34",
  "transactions": [
    {
      "hash": "0x1f71dd5b0a956367e1f5a758fa68cc81bb4a0f65b97a15df9e36f673cb4b78bf",
      "blockHash": "0x2e7cc9dbc931130e353c6764b304f2de02aa47ea64a808a9f0e37d973c5c4857",
      "blockNumber": 88130,
      "transactionIndex": 0,
      "confirmations": null,
      "from": "0x32Be343B94f860124dC4fEe278FDCBD38C102D88",
      "gasPrice": {
        "_hex": "0xd0e58d549"
      },
      "gasLimit": {
        "_hex": "0x5208"
      },
      "to": "0x28eE6F795bd9cc6BdACfd43Cad0b53B8566113F5",
      "value": {
        "_hex": "0x9f3f90bdb39de000"
      },
      "nonce": 818,
      "data": "0x",
      "r": "0xf39b4df033bd24dfdf16d15453d4a82da2d26ae63284baaf5085a7a600bab060",
      "s": "0x0d1ad36a693727393259f92d2fa01811c37c86a0c8ad7ecd9fab6d2e1fd59c14",
      "v": 27,
      "creates": null,
      "raw": "0xf86e820332850d0e58d5498252089428ee6f795bd9cc6bdacfd43cad0b53b8566113f5889f3f90bdb39de000801ba0f39b4df033bd24dfdf16d15453d4a82da2d26ae63284baaf5085a7a600bab060a00d1ad36a693727393259f92d2fa01811c37c86a0c8ad7ecd9fab6d2e1fd59c14",
      "networkId": 0,
      "chainId": 0
    }
  ]
}