{
  "hash": "0x90419ba62f7a6dfc8d0f34450c50a84f94cda5a19f4df0d14580880f1b542844",
  "parentHash": "0x00518d09b2b039b4ec18f5b616a9810649e02644b29923868d97b9fbeb6b6249",
  "number": 117931,
  "timestamp": 1440117743,
  "nonce": "0x4177b287b2f3aab1",
  "difficulty": 4346140518677,
  "gasLimit": {
    "_hex": "0x2fefd8"
  },
  "gasUsed": {
    "_hex": "0xa410"
  },
  "miner": "0x5F8F73E26CdF436f19Cb24C82F90A15AFe55b592",
  "extraData": "0x",
  "transactions": [
    {
      "hash": "0x41afcb02e92c1f4b2bfb6e07a05c45170a3f8483c069baa8099b1850818574b9",
      "blockHash": "0x90419ba62f7a6dfc8d0f34450c50a84f94cda5a19f4df0d14580880f1b542844",
      "blockNumber": 117931,
      "transactionIndex": 0,
      "confirmations": null,
      "from": "0x3A3A7cdFbBd0d889E44CE9f87515a2C989E51a49",
      "gasPrice": {
        "_hex": "0xba43b7400"
      },
      "gasLimit": {
        "_hex": "0x5208"
      },
      "to": "0x32Be343B94f860124dC4fEe278FDCBD38C102D88",
      "value": {
        "_hex": "0x3fc5b23860003c00"
      },
      "nonce": 2,
      "data": "0x",
      "r": "0x0199bc65accb58815e947223ac7c5bc8d1c1f83995d7e19b8616a13a17b1cf77",
      "s": "0x2fe7c45ab6961d8b0e80dd3b12655f872511eb3b737df9316b7336a62942df3b",
      "v": 28,
      "creates": null,
      "raw": "0xf86c02850ba43b74008252089432be343b94f860124dc4fee278fdcbd38c102d88883fc5b23860003c00801ca00199bc65accb58815e947223ac7c5bc8d1c1f83995d7e19b8616a13a17b1cf77a02fe7c45ab6961d8b0e80dd3b12655f872511eb3b737df9316b7336a62942df3b",
      "networkId": 0,
      "chainId": 0
    },
    {
      "hash": "0xbf1588fe071f6cbdfc0c0f8eb6301483483f0a73e5b3e41798d082c7e4a6e7a6",
      "blockHash": "0x90419ba62f7a6dfc8d0f34450c50a84f94cda5a19f4df0d14580880f1b542844",
      "blockNumber": 117931,
      "transactionIndex": 1,
      "confirmations": null,
      "from": "0x82f600f520d879ecc6101C4e8cdD6522Fdd24778",
      "gasPrice": {
        "_hex": "0xba43b7400"
      },
      "gasLimit": {
        "_hex": "0x5208"
      },
      "to": "0x32Be343B94f860124dC4fEe278FDCBD38C102D88",
      "value": {
        "_hex": "0x10b9b9390e268c000"
      },
      "nonce": 5,
      "data": "0x",
      "r": "0x148adee207a13c9216c09f4e1a0ad4729065d255560bf6b73ac3e60a2a5815d1",
      "s": "0x780c81c889f995cd9c6b4bbf7c6d3c769bbaa1aae6b2c345c4e068bcfbddb5f8",
      "v": 27,
      "creates": null,
      "raw": "0xf86d05850ba43b74008252089432be343b94f860124dc4fee278fdcbd38c102d8889010b9b9390e268c000801ba0148adee207a13c9216c09f4e1a0ad4729065d255560bf6b73ac3e60a2a5815d1a0780c81c889f995cd9c6b4bbf7c6d3c769bbaa1aae6b2c345c4e068bcfbddb5f8",
      "networkId": 0,
      "chainId": 0
    }
  ]
}