{
  "hash": "0x2ebe4baecff76ce60b8f54790bb8fd8b3901a5dd6bdf4e1e06fdd88d8056974f",
  "parentHash": "0xa0fb28866aa60f17572e65ac99febd5ac539208a02f39e4c3adb54a7f26b4b4d",
  "number": 46729,
  "timestamp": 1438928259,
  "nonce": "0xc8ebe91b08b90371",
  "difficulty": 1451078854905,
  "gasLimit": {
    "_hex": "0x74d7"
  },
  "gasUsed": {
    "_hex": "0x5208"
  },
  "miner": "0xf927a40C8B7F6E07c5af7FA2155B4864a4112B13",
  "extraData": "0x476574682f76312e302e312f6c696e75782f676f312e342e32",
  "transactions": [
    {
      "hash": "0x8330121ebc298d73f3ea99d649c21445ce5daa60e14b5191acee5f3711893fb5",
      "blockHash": "0x2ebe4baecff76ce60b8f54790bb8fd8b3901a5dd6bdf4e1e06fdd88d8056974f",
      "blockNumber": 46729,
      "transactionIndex": 0,
      "confirmations": null,
      "from": "0x821eB90994a2fBf94BdC3233910296f76F9BF6E7",
      "gasPrice": {
        "_hex": "0x45d964b800"
      },
      "gasLimit": {
        "_hex": "0x5208"
      },
      "to": "0x17f8255F73211f9129a7E93250e8B7DF5D7F752d",
      "value": {
        "_hex": "0x6c6b935b8bbd400000"
      },
      "nonce": 1,
      "data": "0x",
      "r": "0x6eb72e5b1f40cd8e292e77cd65af051b0bd88053f926eb3be4026bf8b850f327",
      "s": "0x2a1680781512f5e28c607baeda65fd3060c11fddd13d75cd94e1d70677307d7b",
      "v": 28,
      "creates": null,
      "raw": "0xf86d018545d964b8008252089417f8255f73211f9129a7e93250e8b7df5d7f752d896c6b935b8bbd400000801ca06eb72e5b1f40cd8e292e77cd65af051b0bd88053f926eb3be4026bf8b850f327a02a1680781512f5e28c607baeda65fd3060c11fddd13d75cd94e1d70677307d7b",
      "networkId": 0,
      "chainId": 0
    }
  ]
}