{
  "hash": "0x910f8a603918109d3c1dabdd41fdf7bcde7f10511227cb017d898926e4610029",
  "parentHash": "0xbdbffc16bfffa22a67deaa2bf8e873d56bf2a20a3added97cca9a6cd9e329992",
  "number": 60325,
  "timestamp": 1439153493,
  "nonce": "0x71a9cc4e45c21c16",
  "difficulty": 1747500642415,
  "gasLimit": {
    "_hex": "0x2fefd8"
  },
  "gasUsed": {
    "_hex": "0x5208"
  },
  "miner": "0x0037ce3d4B7f8729C8607D8D0248252Be68202c0",
  "extraData": "0x476574682f76312e302e312f77696e646f77732f676f312e342e32",
  "transactions": [
    {
      "hash": "0xfa98a97a0796fc5e4782b760dd053cc4e5cf5e4fe1f12da340047106bfd885e7",
      "blockHash": "0x910f8a603918109d3c1dabdd41fdf7bcde7f10511227cb017d898926e4610029",
      "blockNumber": 60325,
      "transactionIndex": 0,
      "confirmations": null,
      "from": "0x2910543Af39abA0Cd09dBb2D50200b3E800A63D2",
      "gasPrice": {
        "_hex": "0xcfa508a4a"
      },
      "gasLimit": {
        "_hex": "0x5208"
      },
      "to": "0x3B4AF94C39e87281410A3B5Cf880b4a647459363",
      "value": {
        "_hex": "0xdcef33a6f838000"
      },
      "nonce": 34,
      "data": "0x",
      "r": "0x93eb202c565c5ae5e924530c0ae5f5db34633b4a653ccb622d0ce3669867e004",
      "s": "0x34795cc4b240e994d714ce53f1bdc7d918edcc563cc8d192a3364e9f44dc0401",
      "v": 27,
      "creates": null,
      "raw": "0xf86c22850cfa508a4a825208943b4af94c39e87281410a3b5cf880b4a647459363880dcef33a6f838000801ba093eb202c565c5ae5e924530c0ae5f5db34633b4a653ccb622d0ce3669867e004a034795cc4b240e994d714ce53f1bdc7d918edcc563cc8d192a3364e9f44dc0401",
      "networkId": 0,
      "chainId": 0
    }
  ]
}