{
  "hash": "0x233e369ba052a0a76f6615ec5b9de21be16ddd826ea96b962c1c31cce25edfc0",
  "parentHash": "0x2db906ef9bd4445e3f8adf717d97724c47ca6166d9d0929cc4a7c35d0448a3da",
  "number": 54848,
  "timestamp": 1439061076,
  "nonce": "0x36fab76f3fe8ad7a",
  "difficulty": 1606996339938,
  "gasLimit": {
    "_hex": "0x2fefd5"
  },
  "gasUsed": {
    "_hex": "0x5208"
  },
  "miner": "0x3DfCf2bF579C831a03379a140b74f884e49CaFf3",
  "extraData": "0x",
  "transactions": [
    {
      "hash": "0xf9ec92ef20da011f55a4543d85d193223f74e0abc7db3dccf1eb94f343c69512",
      "blockHash": "0x233e369ba052a0a76f6615ec5b9de21be16ddd826ea96b962c1c31cce25edfc0",
      "blockNumber": 54848,
      "transactionIndex": 0,
      "confirmations": null,
      "from": "0x3Ad06149b21C55Ff867cc3fb9740D2BCc7101231",
      "gasPrice": {
        "_hex": "0xcdef14a94"
      },
      "gasLimit": {
        "_hex": "0x15f90"
      },
      "to": "0x314c7Daa4825ffC0293819119c5FDCC0CcF19827",
      "value": {
        "_hex": "0x21e19e0c9bab2400000"
      },
      "nonce": 14,
      "data": "0x",
      "r": "0x4532de4eec3e5cc56122e15f447684df1f9d1c60593315bdbac9649265cda3f2",
      "s": "0x513918740a71ca9bf7c62e6465a9d1ce463e2d380b07c5e68bbe66570de29004",
      "v": 27,
      "creates": null,
      "raw": "0xf86f0e850cdef14a9483015f9094314c7daa4825ffc0293819119c5fdcc0ccf198278a021e19e0c9bab2400000801ba04532de4eec3e5cc56122e15f447684df1f9d1c60593315bdbac9649265cda3f2a0513918740a71ca9bf7c62e6465a9d1ce463e2d380b07c5e68bbe66570de29004",
      "networkId": 0,
      "chainId": 0
    }
  ]
}