{
  "hash": "0xcf853650a7e81927eea322879a945ef66171f90263f8fe6a43c7805a97f94f27",
  "parentHash": "0x2541e565adaeb2337d48d8fc6e0680a91c3b8d7be9453ddb96d2f68b985909fc",
  "number": 55855,
  "timestamp": 1439078161,
  "nonce": "0x2fb40473743cc5da",
  "difficulty": 1609158882544,
  "gasLimit": {
    "_hex": "0x2fefd8"
  },
  "gasUsed": {
    "_hex": "0x23e38"
  },
  "miner": "0xbe4532E1B1Db5c913Cf553be76180c1777055403",
  "extraData": "0x476574682f686261722f76312e302e312f6c696e75782f676f312e342e32",
  "transactions": [
    {
      "hash": "0x46b480c84d37b15e95391e51b57a7b37037aac14e1917428bdb1c77611487ba7",
      "blockHash": "0xcf853650a7e81927eea322879a945ef66171f90263f8fe6a43c7805a97f94f27",
      "blockNumber": 55855,
      "transactionIndex": 0,
      "confirmations": null,
      "from": "0xe6A7a1d47ff21B6321162AEA7C6CB457D5476Bca",
      "gasPrice": {
        "_hex": "0xdd9d7fe79"
      },
      "gasLimit": {
        "_hex": "0x55f0"
      },
      "to": "0xE7bD36a7CF4F1F8896378D41177BEf637075a1eD",
      "value": {
        "_hex": "0xf769507f944d1dc"
      },
      "nonce": 255,
      "data": "0x",
      "r": "0x9f70681f5ed838c0f010ead33fce84a9b60db943b769db9f53578ebe273d6fd9",
      "s": "0x397aad463d5907707367a36cc821b85c964a865bb1f0208c183867e2bceb0c79",
      "v": 27,
      "creates": null,
      "raw": "0xf86d81ff850dd9d7fe798255f094e7bd36a7cf4f1f8896378d41177bef637075a1ed880f769507f944d1dc801ba09f70681f5ed838c0f010ead33fce84a9b60db943b769db9f53578ebe273d6fd9a0397aad463d5907707367a36cc821b85c964a865bb1f0208c183867e2bceb0c79",
      "networkId": 0,
      "chainId": 0
    },
    {
      "hash": "0xfa22794fd62d8beae73cf983315ce280b1e7276734dda0a2dc79d7d0271cbdba",
      "blockHash": "0xcf853650a7e81927eea322879a945ef66171f90263f8fe6a43c7805a97f94f27",
      "blockNumber": 55855,
      "transactionIndex": 1,
      "confirmations": null,
      "from": "0xe6A7a1d47ff21B6321162AEA7C6CB457D5476Bca",
      "gasPrice": {
        "_hex": "0xdd9d7fe79"
      },
      "gasLimit": {
        "_hex": "0x55f0"
      },
      "to": "0x2B15C5211bdA6A867c582080536f6c61766aA5Af",
      "value": {
        "_hex": "0xfab99b6e8d6bafc"
      },
      "nonce": 256,
      "data": "0x",
      "r": "0x79ae1701510774beb5e8cd8c589169eac48f1e74cc1db7d993d84a8d2c8b1993",
      "s": "0x689eddcabfe7f9a94346794b2e82a38992ac7ae532c0e52faed87dd5a52dec04",
      "v": 27,
      "creates": null,
      "raw": "0xf86e820100850dd9d7fe798255f0942b15c5211bda6a867c582080536f6c61766aa5af880fab99b6e8d6bafc801ba079ae1701510774beb5e8cd8c589169eac48f1e74cc1db7d993d84a8d2c8b1993a0689eddcabfe7f9a94346794b2e82a38992ac7ae532c0e52faed87dd5a52dec04",
      "networkId": 0,
      "chainId": 0
    },
    {
      "hash": "0x98d833b1201a044e38c177381ba905f3ed4ddc53b9bd222b770400b6ff3c4871",
      "blockHash": "0xcf853650a7e81927eea322879a945ef66171f90263f8fe6a43c7805a97f94f27",
      "blockNumber": 55855,
      "transactionIndex": 2,
      "confirmations": null,
      "from": "0xe6A7a1d47ff21B6321162AEA7C6CB457D5476Bca",
      "gasPrice": {
        "_hex": "0xdd9d7fe79"
      },
      "gasLimit": {
        "_hex": "0x55f0"
      },
      "to": "0xaEDBC952F1334C1Bf1bAE3326F3dc9E405235c21",
      "value": {
        "_hex": "0x100cc712d3c2bc0c"
      },
      "nonce": 257,
      "data": "0x",
      "r": "0x1b47d9ae43bc981f2406fa2ffc5630f0d070d090e4bd604f716f87cb533ed9d2",
      "s": "0x295aad956bf1268539be448569e5d9ece851825a63e10fbbf83ca772fb7e2156",
      "v": 27,
      "creates": null,
      "raw": "0xf86e820101850dd9d7fe798255f094aedbc952f1334c1bf1bae3326f3dc9e405235c2188100cc712d3c2bc0c801ba01b47d9ae43bc981f2406fa2ffc5630f0d070d090e4bd604f716f87cb533ed9d2a0295aad956bf1268539be448569e5d9ece851825a63e10fbbf83ca772fb7e2156",
      "networkId": 0,
      "chainId": 0
    },
    {
      "hash": "0xf645822764677feb88af0d2c6f1cb77e0c0634b621742b0849bbc50114bd4e98",
      "blockHash": "0xcf853650a7e81927eea322879a945ef66171f90263f8fe6a43c7805a97f94f27",
      "blockNumber": 55855,
      "transactionIndex": 3,
      "confirmations": null,
      "from": "0xe6A7a1d47ff21B6321162AEA7C6CB457D5476Bca",
      "gasPrice": {
        "_hex": "0xdd9d7fe79"
      },
      "gasLimit": {
        "_hex": "0x55f0"
      },
      "to": "0xFb7Bc66a002762e28545eA0a7fc970d381863C42",
      "value": {
        "_hex": "0x100dbcb58ccfded0"
      },
      "nonce": 258,
      "data": "0x",
      "r": "0x6d4b3cadb363a792316db5e99cde95ddde8c38e42a3908498569aaf823dbff2c",
      "s": "0x73d0549168d52e162496a6257626903c262858a685e6ab2c1d0ba5fc6ebd0d24",
      "v": 27,
      "creates": null,
      "raw": "0xf86e820102850dd9d7fe798255f094fb7bc66a002762e28545ea0a7fc970d381863c4288100dbcb58ccfded0801ba06d4b3cadb363a792316db5e99cde95ddde8c38e42a3908498569aaf823dbff2ca073d0549168d52e162496a6257626903c262858a685e6ab2c1d0ba5fc6ebd0d24",
      "networkId": 0,
      "chainId": 0
    },
    {
      "hash": "0xf4c5896209c13b08bfe9e37dc6400e53d0a75f80c90287b409af894accbefd1f",
      "blockHash": "0xcf853650a7e81927eea322879a945ef66171f90263f8fe6a43c7805a97f94f27",
      "blockNumber": 55855,
      "transactionIndex": 4,
      "confirmations": null,
      "from": "0xe6A7a1d47ff21B6321162AEA7C6CB457D5476Bca",
      "gasPrice": {
        "_hex": "0xdd9d7fe79"
      },
      "gasLimit": {
        "_hex": "0x55f0"
      },
      "to": "0x9677f39Dc9F3A6ED82C3057a3C3c3bf35b21E32a",
      "value": {
        "_hex": "0x104c0bec28c62e20"
      },
      "nonce": 259,
      "data": "0x",
      "r": "0xb02763153f4576c836e1ecb0198954f1efbec93dc91a726eb8f3b08f3412db97",
      "s": "0x1a6ab38ba82db6d1dc8bd317fc45f575b4a92d76bac8175c8c7d17093eb1e964",
      "v": 27,
      "creates": null,
      "raw": "0xf86e820103850dd9d7fe798255f0949677f39dc9f3a6ed82c3057a3c3c3bf35b21e32a88104c0bec28c62e20801ba0b02763153f4576c836e1ecb0198954f1efbec93dc91a726eb8f3b08f3412db97a01a6ab38ba82db6d1dc8bd317fc45f575b4a92d76bac8175c8c7d17093eb1e964",
      "networkId": 0,
      "chainId": 0
    },
    {
      "hash": "0x84e335d79ae9b24058c5c0e6c942a4784f84ae0fbdb45acce7835135c1530c66",
      "blockHash": "0xcf853650a7e81927eea322879a945ef66171f90263f8fe6a43c7805a97f94f27",
      "blockNumber": 55855,
      "transactionIndex": 5,
      "confirmations": null,
      "from": "0x360A45Bb0fd4B1980981FbD42e4f6bAaa69EeC08",
      "gasPrice": {
        "_hex": "0xd7d40ace3"
      },
      "gasLimit": {
        "_hex": "0x5208"
      },
      "to": "0xbb30e448B72d6Fdd44973A4C7a312F92f22C8F07",
      "value": {
        "_hex": "0x107ad8f556c6c0000"
      },
      "nonce": 2,
      "data": "0x",
      "r": "0xe82150f680aa28885cbcda7448acb9c6b41c4344e6ecf3661632f81f35eff7e7",
      "s": "0x097ec466525665e29f90dcd32633e12c7e386ff6a2748d6c0049745ef53765af",
      "v": 28,
      "creates": null,
      "raw": "0xf86d02850d7d40ace382520894bb30e448b72d6fdd44973a4c7a312f92f22c8f07890107ad8f556c6c0000801ca0e82150f680aa28885cbcda7448acb9c6b41c4344e6ecf3661632f81f35eff7e7a0097ec466525665e29f90dcd32633e12c7e386ff6a2748d6c0049745ef53765af",
      "networkId": 0,
      "chainId": 0
    },
    {
      "hash": "0x09d47d4cec04c1a46070a435928edd36e6c696ae0183fb8f36c537f31477ecdf",
      "blockHash": "0xcf853650a7e81927eea322879a945ef66171f90263f8fe6a43c7805a97f94f27",
      "blockNumber": 55855,
      "transactionIndex": 6,
      "confirmations": null,
      "from": "0xF5EeDc192aB70b08D8354384aD94efD095849E00",
      "gasPrice": {
        "_hex": "0xce39c8845"
      },
      "gasLimit": {
        "_hex": "0x5208"
      },
      "to": "0x32Be343B94f860124dC4fEe278FDCBD38C102D88",
      "value": {
        "_hex": "0x14d10de1a948aa0000"
      },
      "nonce": 7,
      "data": "0x",
      "r": "0xc264f6fabababaf8b674114c8a0687e1aa24414a41a9a8af5014c1a8bfb63e88",
      "s": "0x4583ef6a7e815d6b19efb73a6a96b362bf4422a0935b03a43779a9d0e3506ecb",
      "v": 27,
      "creates": null,
      "raw": "0xf86d07850ce39c88458252089432be343b94f860124dc4fee278fdcbd38c102d888914d10de1a948aa0000801ba0c264f6fabababaf8b674114c8a0687e1aa24414a41a9a8af5014c1a8bfb63e88a04583ef6a7e815d6b19efb73a6a96b362bf4422a0935b03a43779a9d0e3506ecb",
      "networkId": 0,
      "chainId": 0
    }
  ]
}