{
  "hash": "0xc3ea024cd0f887868481e77d63cb8560632a5c3765b607d19b1e65f9c77501a2",
  "parentHash": "0x3e666e3263d443dc31f587466c0615590968222e38559550471e215977dbf233",
  "number": 80535,
  "timestamp": 1439486910,
  "nonce": "0x67fb5373cf8206ed",
  "difficulty": 2425058126447,
  "gasLimit": {
    "_hex": "0x2fefd8"
  },
  "gasUsed": {
    "_hex": "0x6ed7"
  },
  "miner": "0xf8E0CA3Ed80bd541b94BEdCf259e8CF2141A9523",
  "extraData": "0x476574682f76312e302e312f77696e646f77732f676f312e342e32",
  "transactions": [
    {
      "hash": "0x8270c16ba29892b757c7fc211753a8e8952bcccf8c9ae339bd22abdf2f7ce7c0",
      "blockHash": "0xc3ea024cd0f887868481e77d63cb8560632a5c3765b607d19b1e65f9c77501a2",
      "blockNumber": 80535,
      "transactionIndex": 0,
      "confirmations": null,
      "from": "0x87C5B5874A18B4306DF8a752a6C8cc3E82daFc19",
      "gasPrice": {
        "_hex": "0x10eacd913f9"
      },
      "gasLimit": {
        "_hex": "0x493e0"
      },
      "to": "0xC4c51de1AbF5D60DBd329eC0F999Fd8f021ae9fC",
      "value": {
        "_hex": "0x0"
      },
      "nonce": 237,
      "data": "0xbd66528a6b6b6b0000000000000000000000000000000000000000000000000000000000",
      "r": "0x5946bfca97e748060ae23962947d0942be7a2b4d6e2f60901689adf159ed6ddd",
      "s": "0x0c9826bb62133f651cd5d6f019cce41a0a068ecc330f31e944a2cb251c9efb3d",
      "v": 27,
      "creates": null,
      "raw": "0xf88b81ed86010eacd913f9830493e094c4c51de1abf5d60dbd329ec0f999fd8f021ae9fc80a4bd66528a6b6b6b00000000000000000000000000000000000000000000000000000000001ba05946bfca97e748060ae23962947d0942be7a2b4d6e2f60901689adf159ed6ddda00c9826bb62133f651cd5d6f019cce41a0a068ecc330f31e944a2cb251c9efb3d",
      "networkId": 0,
      "chainId": 0
    }
  ]
}