{
  "hash": "0x098019a79383c1d98f1aa786e92b697b92287d41a82cb5c48cb0157418b09710",
  "parentHash": "0x0e5b79e0fdba0f35015ac5d156a39a582d8f17428dcfcf279a3c8d52e3d76a07",
  "number": 102041,
  "timestamp": 1439831891,
  "nonce": "0x5c8bee3315b92710",
  "difficulty": 3910872780113,
  "gasLimit": {
    "_hex": "0x2fefd8"
  },
  "gasUsed": {
    "_hex": "0x5208"
  },
  "miner": "0xe64D681b0eBCa2997D5f35e72EbC7777973299D7",
  "extraData": "0x",
  "transactions": [
    {
      "hash": "0x2a192a533ee8df5ebd3d514dd5331abaa9c015a191483b1a571e8b90c6a8cca0",
      "blockHash": "0x098019a79383c1d98f1aa786e92b697b92287d41a82cb5c48cb0157418b09710",
      "blockNumber": 102041,
      "transactionIndex": 0,
      "confirmations": null,
      "from": "0x0aab57d96E497755Ac735C0f1d5e1c24F78b5979",
      "gasPrice": {
        "_hex": "0xd0333c5d2"
      },
      "gasLimit": {
        "_hex": "0x5208"
      },
      "to": "0x32Be343B94f860124dC4fEe278FDCBD38C102D88",
      "value": {
        "_hex": "0x6c746e36a2f5740000"
      },
      "nonce": 2,
      "data": "0x",
      "r": "0xbaea39925195b4cd3c5a85f7ca628a80d771f6bfdaf64204a9becc55fb7f07ed",
      "s": "0x1fe9c0da2f6216f7938079c14a4e0749d2d112c5467b339d783d5631fea1273c",
      "v": 28,
      "creates": null,
      "raw": "0xf86d02850d0333c5d28252089432be343b94f860124dc4fee278fdcbd38c102d88896c746e36a2f5740000801ca0baea39925195b4cd3c5a85f7ca628a80d771f6bfdaf64204a9becc55fb7f07eda01fe9c0da2f6216f7938079c14a4e0749d2d112c5467b339d783d5631fea1273c",
      "networkId": 0,
      "chainId": 0
    }
  ]
}