{
  "hash": "0xc79fbb2b8e096c4b85644f39513966c2de6384151df5a842697899304f92b9f9",
  "parentHash": "0x4bb69d3a3b947637b661d0eaedb841e2cef3905e2be81e759ea94ba1eeb8ee08",
  "number": 89875,
  "timestamp": 1439630578,
  "nonce": "0x2a3065f57be019df",
  "difficulty": 3333684142853,
  "gasLimit": {
    "_hex": "0x2fefd8"
  },
  "gasUsed": {
    "_hex": "0x5208"
  },
  "miner": "0xe6A7a1d47ff21B6321162AEA7C6CB457D5476Bca",
  "extraData": "0x476574682f76312e302e312d38326566323666362f6c696e75782f676f312e34",
  "transactions": [
    {
      "hash": "0x3f788e79998413ce1921058e5866a002ba193407f45da7dbb1bb1019ccfea7dc",
      "blockHash": "0xc79fbb2b8e096c4b85644f39513966c2de6384151df5a842697899304f92b9f9",
      "blockNumber": 89875,
      "transactionIndex": 0,
      "confirmations": null,
      "from": "0x0A38f5Ba343D4eA8641F955ecf98e1c43dF1B5a3",
      "gasPrice": {
        "_hex": "0xd89944b9c"
      },
      "gasLimit": {
        "_hex": "0x5208"
      },
      "to": "0x32Be343B94f860124dC4fEe278FDCBD38C102D88",
      "value": {
        "_hex": "0x2b0cf8efbb51c6000"
      },
      "nonce": 1,
      "data": "0x",
      "r": "0xddcdf2199c492f4f6feaca2192fbc4ee96eb42f26b3a5114d8036c854613dac6",
      "s": "0x569d60ddbe57a776928f1290fbff684db5433f49ea1272bd4f81aa019e5c72c8",
      "v": 27,
      "creates": null,
      "raw": "0xf86d01850d89944b9c8252089432be343b94f860124dc4fee278fdcbd38c102d888902b0cf8efbb51c6000801ba0ddcdf2199c492f4f6feaca2192fbc4ee96eb42f26b3a5114d8036c854613dac6a0569d60ddbe57a776928f1290fbff684db5433f49ea1272bd4f81aa019e5c72c8",
      "networkId": 0,
      "chainId": 0
    }
  ]
}