{
  "hash": "0x29f01ec1b1f6af653bd8297a902ea38987a13fca7654b513da5d46af7cd03062",
  "parentHash": "0xa3ab830969358a09922119f0b1b446614ebbc2a3c58788569615d7fa50cedb9d",
  "number": 71846,
  "timestamp": 1439342852,
  "nonce": "0x1c65a899c3c07bb9",
  "difficulty": 2168635842302,
  "gasLimit": {
    "_hex": "0x2fefd8"
  },
  "gasUsed": {
    "_hex": "0x5208"
  },
  "miner": "0xe6A7a1d47ff21B6321162AEA7C6CB457D5476Bca",
  "extraData": "0x476574682f76312e302e312d38326566323666362f6c696e75782f676f312e34",
  "transactions": [
    {
      "hash": "0x197802205e50e390d55d32355e0b5ed90248ebf0f67777cef04c48c045609765",
      "blockHash": "0x29f01ec1b1f6af653bd8297a902ea38987a13fca7654b513da5d46af7cd03062",
      "blockNumber": 71846,
      "transactionIndex": 0,
      "confirmations": null,
      "from": "0xfC372FF6927CB396d9cf29803500110Da632bC52",
      "gasPrice": {
        "_hex": "0x10c524836e1"
      },
      "gasLimit": {
        "_hex": "0x5208"
      },
      "to": "0x60664De32450711A29F363c14A76107111689e17",
      "value": {
        "_hex": "0xde0b6b3a7640000"
      },
      "nonce": 6,
      "data": "0x",
      "r": "0xcd3405b2cf37de77b061d55682a69c029fd83c58c4bc07bee93ef8a1c7a34465",
      "s": "0x5720d026de09c75d46b9a92961a5d2b77e123b461245851b85c0c73f7c0145d3",
      "v": 28,
      "creates": null,
      "raw": "0xf86d0686010c524836e18252089460664de32450711a29f363c14a76107111689e17880de0b6b3a7640000801ca0cd3405b2cf37de77b061d55682a69c029fd83c58c4bc07bee93ef8a1c7a34465a05720d026de09c75d46b9a92961a5d2b77e123b461245851b85c0c73f7c0145d3",
      "networkId": 0,
      "chainId": 0
    }
  ]
}