{
  "hash": "0x518c52b50542e47a7eb6b43557796b99e6f4f6d214f6ba426eb2eb944afad78b",
  "parentHash": "0xe7639b180605274d54651932ffc5f328ead5b1cf4d6be03a078235d5bdf7de9c",
  "number": 64263,
  "timestamp": 1439217820,
  "nonce": "0x4f648971b21c9414",
  "difficulty": 1879412653703,
  "gasLimit": {
    "_hex": "0x2fefd5"
  },
  "gasUsed": {
    "_hex": "0x33a67"
  },
  "miner": "0xf927a40C8B7F6E07c5af7FA2155B4864a4112B13",
  "extraData": "0x",
  "transactions": [
    {
      "hash": "0x6d71bac7b64f8375873148bfbf752d73e4d8ffda29f210c24891a34a0c46dd30",
      "blockHash": "0x518c52b50542e47a7eb6b43557796b99e6f4f6d214f6ba426eb2eb944afad78b",
      "blockNumber": 64263,
      "transactionIndex": 0,
      "confirmations": null,
      "from": "0xF9B617f752edECAE3e909fBB911d2f8192f84209",
      "gasPrice": {
        "_hex": "0x10dc90d85e7"
      },
      "gasLimit": {
        "_hex": "0x55f0"
      },
      "to": "0x2910543Af39abA0Cd09dBb2D50200b3E800A63D2",
      "value": {
        "_hex": "0x1b1ae4d6e2ef500000"
      },
      "nonce": 7,
      "data": "0x454e37304641354e38",
      "r": "0x1b2f0b48c8683a001b6e269b37a36851a4008340bfc6141f78669e702f7564ae",
      "s": "0x574973ba1bb7383559d11d736fd9f7be136e9187b64c3b3e5decf9f526fb04d7",
      "v": 28,
      "creates": null,
      "raw": "0xf8770786010dc90d85e78255f0942910543af39aba0cd09dbb2d50200b3e800a63d2891b1ae4d6e2ef50000089454e37304641354e381ca01b2f0b48c8683a001b6e269b37a36851a4008340bfc6141f78669e702f7564aea0574973ba1bb7383559d11d736fd9f7be136e9187b64c3b3e5decf9f526fb04d7",
      "networkId": 0,
      "chainId": 0
    },
    {
      "hash": "0x140f030bbe50f7dac4ea01b0f0db63f983142d505e7bd438b8a1f97f6c9826e2",
      "blockHash": "0x518c52b50542e47a7eb6b43557796b99e6f4f6d214f6ba426eb2eb944afad78b",
      "blockNumber": 64263,
      "transactionIndex": 1,
      "confirmations": null,
      "from": "0x8674c218F0351a62C3BA78C34FD2182A93Da94E2",
      "gasPrice": {
        "_hex": "0xd69b48315"
      },
      "gasLimit": {
        "_hex": "0xf4240"
      },
      "to": null,
      "value": {
        "_hex": "0x0"
      },
      "nonce": 65,
      "data": "0x6060604052610232806100136000396000f30060606040526000357c0100000000000000000000000000000000000000000000000000000000900480639ace38c214610044578063d50495f4146100c357610042565b005b610055600480359060200150610115565b60405180806020018281038252838181518152602001915080519060200190808383829060006004602084601f0104600302600f01f150905090810190601f1680156100b55780820380516001836020036101000a031916815260200191505b509250505060405180910390f35b6101136004803590602001906004018035906020019191908080601f0160208091040260200160405190810160405280939291908181526020018383808284378201915050505050509050610193565b005b6000600050818154811015610002579060005260206000209001600091509050805480601f0160208091040260200160405190810160405280929190818152602001828054801561018b57820191906000526020600020905b81548152906001019060200180831161016e57829003601f168201915b505050505081565b8060006000506000600050548154811015610002579060005260206000209001600050908051906020019082805482825590600052602060002090601f01602090048101928215610201579182015b828111156102005782518260005055916020019190600101906101e2565b5b50905061022c919061020e565b80821115610228576000818150600090555060010161020e565b5090565b50505b5056",
      "r": "0xc3883674d5699e2222f078f2ff99bdd039ff009407d0fff63bf21339d1dac973",
      "s": "0x1c32f72d44f0f73a9d455d1505ba52876d92cc2d90bd7c0ce74dc8063811d396",
      "v": 28,
      "creates": "0x09d7d329a642EF73402360B9A1039BF6BC342c02",
      "raw": "0xf9029841850d69b48315830f42408080b902456060604052610232806100136000396000f30060606040526000357c0100000000000000000000000000000000000000000000000000000000900480639ace38c214610044578063d50495f4146100c357610042565b005b610055600480359060200150610115565b60405180806020018281038252838181518152602001915080519060200190808383829060006004602084601f0104600302600f01f150905090810190601f1680156100b55780820380516001836020036101000a031916815260200191505b509250505060405180910390f35b6101136004803590602001906004018035906020019191908080601f0160208091040260200160405190810160405280939291908181526020018383808284378201915050505050509050610193565b005b6000600050818154811015610002579060005260206000209001600091509050805480601f0160208091040260200160405190810160405280929190818152602001828054801561018b57820191906000526020600020905b81548152906001019060200180831161016e57829003601f168201915b505050505081565b8060006000506000600050548154811015610002579060005260206000209001600050908051906020019082805482825590600052602060002090601f01602090048101928215610201579182015b828111156102005782518260005055916020019190600101906101e2565b5b50905061022c919061020e565b80821115610228576000818150600090555060010161020e565b5090565b50505b50561ca0c3883674d5699e2222f078f2ff99bdd039ff009407d0fff63bf21339d1dac973a01c32f72d44f0f73a9d455d1505ba52876d92cc2d90bd7c0ce74dc8063811d396",
      "networkId": 0,
      "chainId": 0
    },
    {
      "hash": "0xeac9a533281720b5b2bc9a333631f6ea5b6014b6756e3a0338b28e6936e8907e",
      "blockHash": "0x518c52b50542e47a7eb6b43557796b99e6f4f6d214f6ba426eb2eb944afad78b",
      "blockNumber": 64263,
      "transactionIndex": 2,
      "confirmations": null,
      "from": "0x3F98e477a361F777DA14611a7e419A75Fd238b6b",
      "gasPrice": {
        "_hex": "0xcb5c03e98"
      },
      "gasLimit": {
        "_hex": "0x15f90"
      },
      "to": "0x097738363B1662599ad0777E19461601F5EC8dF9",
      "value": {
        "_hex": "0x56bc75e2d63100000"
      },
      "nonce": 9,
      "data": "0x",
      "r": "0x8235fa7d051b3438a9b9b753501ef80ba6750d862c0c8c8504d2ee4e48dd94b2",
      "s": "0x542479d4b15984d40f9fc585620531f8cc6f6486a1cbfa77913832ca222c50d6",
      "v": 27,
      "creates": null,
      "raw": "0xf86e09850cb5c03e9883015f9094097738363b1662599ad0777e19461601f5ec8df989056bc75e2d63100000801ba08235fa7d051b3438a9b9b753501ef80ba6750d862c0c8c8504d2ee4e48dd94b2a0542479d4b15984d40f9fc585620531f8cc6f6486a1cbfa77913832ca222c50d6",
      "networkId": 0,
      "chainId": 0
    }
  ]
}