{
  "hash": "0x7a74ef56cd483b61d7132d44a9f24b72116632334137a71833f18449a042877c",
  "parentHash": "0xf805b976f4a52d7b87ee39b9974d3a13188317c45d0bdc2023d0d5d0b700af04",
  "number": 88145,
  "timestamp": 1439603288,
  "nonce": "0xe36d658146f179d8",
  "difficulty": 3212903019206,
  "gasLimit": {
    "_hex": "0x2fefd8"
  },
  "gasUsed": {
    "_hex": "0x15f90"
  },
  "miner": "0xf927a40C8B7F6E07c5af7FA2155B4864a4112B13",
  "extraData": "0x",
  "transactions": [
    {
      "hash": "0xd7e9df2158d0e9a9ee58900f6787e6cd6577c81a61ab0f565b5bbb4403615af8",
      "blockHash": "0x7a74ef56cd483b61d7132d44a9f24b72116632334137a71833f18449a042877c",
      "blockNumber": 88145,
      "transactionIndex": 0,
      "confirmations": null,
      "from": "0xFD2605a2bF58fDbB90db1Da55dF61628B47F9e8c",
      "gasPrice": {
        "_hex": "0xcf5855283"
      },
      "gasLimit": {
        "_hex": "0x15f90"
      },
      "to": "0xa50156cF80fa9eC2e16899E4fb7e072300787417",
      "value": {
        "_hex": "0x0"
      },
      "nonce": 67,
      "data": "0x960edffb000000000000000000000000000000000000000000000000000000000000000300000000000000000000000000000000000000000000000000000000000000030000000000000000000000000000000000000000000000000000000000000000",
      "r": "0x6136dd8ad2c20a4d54c0e0561333f4cc5b9890564c02318594ea68833b23ce0d",
      "s": "0x4987505d1b82357cee38089499d5485588b8a78fa31416f7cdde1aad9d92651f",
      "v": 27,
      "creates": null,
      "raw": "0xf8ca43850cf585528383015f9094a50156cf80fa9ec2e16899e4fb7e07230078741780b864960edffb0000000000000000000000000000000000000000000000000000000000000003000000000000000000000000000000000000000000000000000000000000000300000000000000000000000000000000000000000000000000000000000000001ba06136dd8ad2c20a4d54c0e0561333f4cc5b9890564c02318594ea68833b23ce0da04987505d1b82357cee38089499d5485588b8a78fa31416f7cdde1aad9d92651f",
      "networkId": 0,
      "chainId": 0
    }
  ]
}