{
  "hash": "0x3087fe3f3517e7da29370742776f240de53a1bedeb64352a9935e0e1c61a8175",
  "parentHash": "0xc8158ad0678483b2c0c29caecfdc3600057edc1918bd6fdd6489393e84e46db0",
  "number": 98967,
  "timestamp": 1439782102,
  "nonce": "0xf0034f74fe854531",
  "difficulty": 3832890436736,
  "gasLimit": {
    "_hex": "0x2fefd8"
  },
  "gasUsed": {
    "_hex": "0xa410"
  },
  "miner": "0xf8E0CA3Ed80bd541b94BEdCf259e8CF2141A9523",
  "extraData": "0x476574682f76312e302e312f77696e646f77732f676f312e342e32",
  "transactions": [
    {
      "hash": "0xb512c95819363ed3c40423c67e3b1adeb43abd6ecf4d6ab83fc611602ce082b0",
      "blockHash": "0x3087fe3f3517e7da29370742776f240de53a1bedeb64352a9935e0e1c61a8175",
      "blockNumber": 98967,
      "transactionIndex": 0,
      "confirmations": null,
      "from": "0x007f7f58D3eb5b7510A301eCC749FC1fCDDBE14D",
      "gasPrice": {
        "_hex": "0xe0cfe7246"
      },
      "gasLimit": {
        "_hex": "0x15f90"
      },
      "to": "0xb1abce2918E21ddb93AA452731a12672A3d9F75a",
      "value": {
        "_hex": "0x4563918244f40000"
      },
      "nonce": 142,
      "data": "0x",
      "r": "0x48214944d8543674ff35a06422909e7deeede07f0a8265273f777dc028e8d736",
      "s": "0x315744cfc50fff2d0ca9856b5b5c097e133770bd1bc8ded15c6c65f8be95d49b",
      "v": 28,
      "creates": null,
      "raw": "0xf86e818e850e0cfe724683015f9094b1abce2918e21ddb93aa452731a12672a3d9f75a884563918244f40000801ca048214944d8543674ff35a06422909e7deeede07f0a8265273f777dc028e8d736a0315744cfc50fff2d0ca9856b5b5c097e133770bd1bc8ded15c6c65f8be95d49b",
      "networkId": 0,
      "chainId": 0
    },
    {
      "hash": "0x25fa3f8ad684c8a8d7433ac4996b1e3e889a760205b32dab6646bed2fb652d08",
      "blockHash": "0x3087fe3f3517e7da29370742776f240de53a1bedeb64352a9935e0e1c61a8175",
      "blockNumber": 98967,
      "transactionIndex": 1,
      "confirmations": null,
      "from": "0x6F50929777824c291A49c46Dc854F379a6bEa080",
      "gasPrice": {
        "_hex": "0xd6bd60364"
      },
      "gasLimit": {
        "_hex": "0x15f90"
      },
      "to": "0xEeEF7b645016C97Fa22E2B9FA68008c0F7a8E825",
      "value": {
        "_hex": "0xde0b6b3a7640000"
      },
      "nonce": 0,
      "data": "0x",
      "r": "0xbad35109a29b7ae95644e1aa823087129cb0da2d987015312e97b0ca0480d980",
      "s": "0x26cc4dcbda18aefadb6aa461bb365e9499a42fd4b544482d2932814ea0352cce",
      "v": 28,
      "creates": null,
      "raw": "0xf86d80850d6bd6036483015f9094eeef7b645016c97fa22e2b9fa68008c0f7a8e825880de0b6b3a7640000801ca0bad35109a29b7ae95644e1aa823087129cb0da2d987015312e97b0ca0480d980a026cc4dcbda18aefadb6aa461bb365e9499a42fd4b544482d2932814ea0352cce",
      "networkId": 0,
      "chainId": 0
    }
  ]
}