{
  "hash": "0xdb4eec0b6f6f73485df028a264eea1d43177e57e0ebb8ffb15866f2b17e82070",
  "parentHash": "0x4392506607bf0d41d468add4b3afe76d30352b68170699ec19fc42fa8a2fecea",
  "number": 89187,
  "timestamp": 1439619486,
  "nonce": "0x4aa56a70dfe14f05",
  "difficulty": 3285476251265,
  "gasLimit": {
    "_hex": "0x2fefd8"
  },
  "gasUsed": {
    "_hex": "0x5208"
  },
  "miner": "0xBD744E3F13D79B33F6c8E1d5E32F8E9BA2866c46",
  "extraData": "0x476574682f76312e302e312d39613032663533372f6c696e75782f676f312e34",
  "transactions": [
    {
      "hash": "0x45c268e0c427ac2a7d2372ea2d09e28141258109df5426aec99a88c122fcd45b",
      "blockHash": "0xdb4eec0b6f6f73485df028a264eea1d43177e57e0ebb8ffb15866f2b17e82070",
      "blockNumber": 89187,
      "transactionIndex": 0,
      "confirmations": null,
      "from": "0x646afba71d849E80C0eD59cAc519B278E7F7aBe4",
      "gasPrice": {
        "_hex": "0xd69b48315"
      },
      "gasLimit": {
        "_hex": "0x15f90"
      },
      "to": "0x3Dca868142842E84Aae3D0DbD57b7fc3A7C7A18e",
      "value": {
        "_hex": "0xde0b6b3a7640000"
      },
      "nonce": 0,
      "data": "0x",
      "r": "0x437c29bd2cb6afa6c943125e63df0dccb849c3f7aadb0f18111326862f5fc08d",
      "s": "0x4aa4d9666ff5809174285bac90c7220ff2833a6d1badf83f51192f13dd640556",
      "v": 27,
      "creates": null,
      "raw": "0xf86d80850d69b4831583015f90943dca868142842e84aae3d0dbd57b7fc3a7c7a18e880de0b6b3a7640000801ba0437c29bd2cb6afa6c943125e63df0dccb849c3f7aadb0f18111326862f5fc08da04aa4d9666ff5809174285bac90c7220ff2833a6d1badf83f51192f13dd640556",
      "networkId": 0,
      "chainId": 0
    }
  ]
}