{
  "hash": "0x540bf3cfe4dcd5f56a3c9ad4b538a4ad1d42ef2d91241c9edf129fccf3fea86e",
  "parentHash": "0x243fc828108cc6454c3dbcc3310072736ffb745e3b650432ce9b127205308854",
  "number": 71003,
  "timestamp": 1439328875,
  "nonce": "0xed86935dcc0606fd",
  "difficulty": 2161453366302,
  "gasLimit": {
    "_hex": "0x2fefd8"
  },
  "gasUsed": {
    "_hex": "0xe608"
  },
  "miner": "0x55bAf64fc9eAccFFd7Cc643BB61142E1C6ac093e",
  "extraData": "0x",
  "transactions": [
    {
      "hash": "0x60c40ed7c2cfb44bd42aeb6b2e36f58d83fa576595a8ed4ff229e6ff2dcebf7c",
      "blockHash": "0x540bf3cfe4dcd5f56a3c9ad4b538a4ad1d42ef2d91241c9edf129fccf3fea86e",
      "blockNumber": 71003,
      "transactionIndex": 0,
      "confirmations": null,
      "from": "0x120A270bbC009644e35F0bB6ab13f95b8199c4ad",
      "gasPrice": {
        "_hex": "0xe246b481b"
      },
      "gasLimit": {
        "_hex": "0x15f90"
      },
      "to": "0xA7822289A56eD0579b760724B56001c11CDC107E",
      "value": {
        "_hex": "0x49b9ca9a694340000"
      },
      "nonce": 215,
      "data": "0x",
      "r": "0x44b4edbdbcb7b839a44c17b6e6727b9a2b62e6723c71efb861f17319e85ead97",
      "s": "0x6569b6136dbf1e2e9d0c0eb3bf65907eb5b8c636f134dec2a5dc94965026ccfe",
      "v": 28,
      "creates": null,
      "raw": "0xf86f81d7850e246b481b83015f9094a7822289a56ed0579b760724b56001c11cdc107e89049b9ca9a694340000801ca044b4edbdbcb7b839a44c17b6e6727b9a2b62e6723c71efb861f17319e85ead97a06569b6136dbf1e2e9d0c0eb3bf65907eb5b8c636f134dec2a5dc94965026ccfe",
      "networkId": 0,
      "chainId": 0
    },
    {
      "hash": "0x61eac51fdf40797476c767ba03884d888a875031ed84746c9eeaddf048447658",
      "blockHash": "0x540bf3cfe4dcd5f56a3c9ad4b538a4ad1d42ef2d91241c9edf129fccf3fea86e",
      "blockNumber": 71003,
      "transactionIndex": 1,
      "confirmations": null,
      "from": "0x17580B766f7453525ca4C6A88b01b50570EA088C",
      "gasPrice": {
        "_hex": "0xd9cf8f0fd"
      },
      "gasLimit": {
        "_hex": "0x61a80"
      },
      "to": "0x5Fe5B7546D1628f7348B023A0393de1FC825A4fD",
      "value": {
        "_hex": "0xde0b6b3a7640000"
      },
      "nonce": 76,
      "data": "0xb595b8b50000000000000000000000000000000000000000000000000000000000000001",
      "r": "0x5e2e2fa1e336409d4a0a9ce66dd7d2920ee1842b1fbed4cb03d33e3a4be1212e",
      "s": "0x1b997249f6e9d94048472ed9ac3c0a59c4b8597b74d0235f73d85f15e7080474",
      "v": 27,
      "creates": null,
      "raw": "0xf8914c850d9cf8f0fd83061a80945fe5b7546d1628f7348b023a0393de1fc825a4fd880de0b6b3a7640000a4b595b8b500000000000000000000000000000000000000000000000000000000000000011ba05e2e2fa1e336409d4a0a9ce66dd7d2920ee1842b1fbed4cb03d33e3a4be1212ea01b997249f6e9d94048472ed9ac3c0a59c4b8597b74d0235f73d85f15e7080474",
      "networkId": 0,
      "chainId": 0
    }
  ]
}