{
  "hash": "0x7f9d2359eda2ccb881d0edc4cdbec1ab7cfc1b9480f49f4e80ed72c6e7ea0237",
  "parentHash": "0x5d4e810bde89a701ef253c8571d8aa1e355d2d482522762d719c4e11f5db6b54",
  "number": 80059,
  "timestamp": 1439479475,
  "nonce": "0x086531738e382148",
  "difficulty": 2350580302563,
  "gasLimit": {
    "_hex": "0x2fefd8"
  },
  "gasUsed": {
    "_hex": "0x14820"
  },
  "miner": "0xe6A7a1d47ff21B6321162AEA7C6CB457D5476Bca",
  "extraData": "0x476574682f76312e302e312d38326566323666362f6c696e75782f676f312e34",
  "transactions": [
    {
      "hash": "0xb018b50bec19e1878b36bbed5b03112ec79696b0e1c992af9feb68aa9e9a36a2",
      "blockHash": "0x7f9d2359eda2ccb881d0edc4cdbec1ab7cfc1b9480f49f4e80ed72c6e7ea0237",
      "blockNumber": 80059,
      "transactionIndex": 0,
      "confirmations": null,
      "from": "0xa6BDc31c431B8F97848c9D60cbbe9660dc450eB7",
      "gasPrice": {
        "_hex": "0xd1cfb1a9b"
      },
      "gasLimit": {
        "_hex": "0x5208"
      },
      "to": "0x32Be343B94f860124dC4fEe278FDCBD38C102D88",
      "value": {
        "_hex": "0x456318c85467d800"
      },
      "nonce": 41,
      "data": "0x",
      "r": "0xb19eaad1143fa25ccb4786de4884405c95186fcc27f07a4fcb2a1b4e4d22ec9c",
      "s": "0x184025ff0394d5aec4834cd8f8765e789622d03b5fc19396b4cc4e752e031f0a",
      "v": 28,
      "creates": null,
      "raw": "0xf86c29850d1cfb1a9b8252089432be343b94f860124dc4fee278fdcbd38c102d8888456318c85467d800801ca0b19eaad1143fa25ccb4786de4884405c95186fcc27f07a4fcb2a1b4e4d22ec9ca0184025ff0394d5aec4834cd8f8765e789622d03b5fc19396b4cc4e752e031f0a",
      "networkId": 0,
      "chainId": 0
    },
    {
      "hash": "0xb7ff1e5be63ab9c9a404f9a6f11eccc81c6757be8c8f3d50ce3443643c309878",
      "blockHash": "0x7f9d2359eda2ccb881d0edc4cdbec1ab7cfc1b9480f49f4e80ed72c6e7ea0237",
      "blockNumber": 80059,
      "transactionIndex": 1,
      "confirmations": null,
      "from": "0x6A8CC233E14F874983bB2F37D1DE706f6910Ef0b",
      "gasPrice": {
        "_hex": "0xd1cfb1a9b"
      },
      "gasLimit": {
        "_hex": "0x5208"
      },
      "to": "0x32Be343B94f860124dC4fEe278FDCBD38C102D88",
      "value": {
        "_hex": "0x5b126bbfd8a744000"
      },
      "nonce": 7,
      "data": "0x",
      "r": "0x75a3b5b2d0dbf08ee2015038236f60f90c53f8039a0f18d07e2be1bb0e79c112",
      "s": "0x59ca22258f070615fc9481829762f846c12f3e889cc84beaf17543a0fe62a91a",
      "v": 27,
      "creates": null,
      "raw": "0xf86d07850d1cfb1a9b8252089432be343b94f860124dc4fee278fdcbd38c102d888905b126bbfd8a744000801ba075a3b5b2d0dbf08ee2015038236f60f90c53f8039a0f18d07e2be1bb0e79c112a059ca22258f070615fc9481829762f846c12f3e889cc84beaf17543a0fe62a91a",
      "networkId": 0,
      "chainId": 0
    },
    {
      "hash": "0xfbf4652c36a620442353d7c501980d4ae652e8a7941352d1dbf9ce07682f369d",
      "blockHash": "0x7f9d2359eda2ccb881d0edc4cdbec1ab7cfc1b9480f49f4e80ed72c6e7ea0237",
      "blockNumber": 80059,
      "transactionIndex": 2,
      "confirmations": null,
      "from": "0xc07082b0caEF1afaAA062CDae1c592c110B82aa5",
      "gasPrice": {
        "_hex": "0xd1cfb1a9b"
      },
      "gasLimit": {
        "_hex": "0x5208"
      },
      "to": "0x32Be343B94f860124dC4fEe278FDCBD38C102D88",
      "value": {
        "_hex": "0xddc830189d43800"
      },
      "nonce": 0,
      "data": "0x",
      "r": "0x6e8cdc8bd4d9845c6442a7b82524857ef332134e3bddb2ee64ce5883ff21bbab",
      "s": "0x6ea14441a985fd8d522fd2049f2bd6974fde4b92299f3fe4c6febf782819cb78",
      "v": 27,
      "creates": null,
      "raw": "0xf86c80850d1cfb1a9b8252089432be343b94f860124dc4fee278fdcbd38c102d88880ddc830189d43800801ba06e8cdc8bd4d9845c6442a7b82524857ef332134e3bddb2ee64ce5883ff21bbaba06ea14441a985fd8d522fd2049f2bd6974fde4b92299f3fe4c6febf782819cb78",
      "networkId": 0,
      "chainId": 0
    },
    {
      "hash": "0xc5a7e7ecddcb79cf6a936b54767117d432bf2bd40d8e34508b02ee06a739d4ff",
      "blockHash": "0x7f9d2359eda2ccb881d0edc4cdbec1ab7cfc1b9480f49f4e80ed72c6e7ea0237",
      "blockNumber": 80059,
      "transactionIndex": 3,
      "confirmations": null,
      "from": "0x15674e39f68d518367ECDd22cB73534Cb74bDC28",
      "gasPrice": {
        "_hex": "0xd1cfb1a9b"
      },
      "gasLimit": {
        "_hex": "0x5208"
      },
      "to": "0x32Be343B94f860124dC4fEe278FDCBD38C102D88",
      "value": {
        "_hex": "0xddc78dd7a0a2c00"
      },
      "nonce": 3,
      "data": "0x",
      "r": "0x9a5378fd3d02c8091075e66cd361b956b2330eb9bb179d2895f335cd8df8378f",
      "s": "0x37c76456db6d51e8e67ab6c432419f3e45e9f1356f16bcd5839402254b4de8b5",
      "v": 27,
      "creates": null,
      "raw": "0xf86c03850d1cfb1a9b8252089432be343b94f860124dc4fee278fdcbd38c102d88880ddc78dd7a0a2c00801ba09a5378fd3d02c8091075e66cd361b956b2330eb9bb179d2895f335cd8df8378fa037c76456db6d51e8e67ab6c432419f3e45e9f1356f16bcd5839402254b4de8b5",
      "networkId": 0,
      "chainId": 0
    }
  ]
}