{
  "hash": "0x01d52e1cf3086a7e360879f44455881addcd6e8eb07c612a24bbffa97b89339e",
  "parentHash": "0xa854eb43db768258e0785b1ebe58726acc89d56858a4e487a911f1b9935f4aa7",
  "number": 55897,
  "timestamp": 1439078889,
  "nonce": "0xf1dc001d47bc8129",
  "difficulty": 1609150825843,
  "gasLimit": {
    "_hex": "0x2fefd8"
  },
  "gasUsed": {
    "_hex": "0xa410"
  },
  "miner": "0xDaD56904f2996453f00a79C2C7ee2E8c47dFbba3",
  "extraData": "0x476574682f76312e302e312f6c696e75782f676f312e342e32",
  "transactions": [
    {
      "hash": "0xe313f784fb03c0f0421a9354765b4c629e80b200e64665338dcf3e4f388bbe1f",
      "blockHash": "0x01d52e1cf3086a7e360879f44455881addcd6e8eb07c612a24bbffa97b89339e",
      "blockNumber": 55897,
      "transactionIndex": 0,
      "confirmations": null,
      "from": "0xe6A7a1d47ff21B6321162AEA7C6CB457D5476Bca",
      "gasPrice": {
        "_hex": "0xdd23a699c"
      },
      "gasLimit": {
        "_hex": "0x55f0"
      },
      "to": "0xEa5b801969342B44467C9dE87fEfE2C1dB740bd4",
      "value": {
        "_hex": "0x18233d61791ca8fb0"
      },
      "nonce": 475,
      "data": "0x",
      "r": "0x4ef8e0dda0683f969580040c12046958d3b404120768a4e0c2970d76bb14d51f",
      "s": "0x0b300cc834079a43a4f40261a10a88dd87a994d874d59dada56ba17254f61443",
      "v": 28,
      "creates": null,
      "raw": "0xf86f8201db850dd23a699c8255f094ea5b801969342b44467c9de87fefe2c1db740bd489018233d61791ca8fb0801ca04ef8e0dda0683f969580040c12046958d3b404120768a4e0c2970d76bb14d51fa00b300cc834079a43a4f40261a10a88dd87a994d874d59dada56ba17254f61443",
      "networkId": 0,
      "chainId": 0
    },
    {
      "hash": "0x7fcf1d8a7496496a5409d3bf4351d65bf7c9238b8235271ff3847aecbcaef67f",
      "blockHash": "0x01d52e1cf3086a7e360879f44455881addcd6e8eb07c612a24bbffa97b89339e",
      "blockNumber": 55897,
      "transactionIndex": 1,
      "confirmations": null,
      "from": "0xe6A7a1d47ff21B6321162AEA7C6CB457D5476Bca",
      "gasPrice": {
        "_hex": "0xdd23a699c"
      },
      "gasLimit": {
        "_hex": "0x55f0"
      },
      "to": "0x952f389eCE021cECc7e7E00B5316925e14396B92",
      "value": {
        "_hex": "0x183ebb697c96e6e90"
      },
      "nonce": 476,
      "data": "0x",
      "r": "0x0b209d69e02998a41ebe0ffb028de08961a5e7c1c6b61362ceb61285bfd70369",
      "s": "0x5fd7dbae60be775e2240f6cf961ae4c07197115854e41a9c96bd30d83cbb1c7d",
      "v": 27,
      "creates": null,
      "raw": "0xf86f8201dc850dd23a699c8255f094952f389ece021cecc7e7e00b5316925e14396b92890183ebb697c96e6e90801ba00b209d69e02998a41ebe0ffb028de08961a5e7c1c6b61362ceb61285bfd70369a05fd7dbae60be775e2240f6cf961ae4c07197115854e41a9c96bd30d83cbb1c7d",
      "networkId": 0,
      "chainId": 0
    }
  ]
}