{
  "hash": "0x30286ceff68c9c3eeba23b9749cc2fb0b48be3fe246378ce110e7dffff037ca4",
  "parentHash": "0x91d0594838629367c58e878aea1a745edc4d6e6ae806b2192dc5261966709197",
  "number": 83418,
  "timestamp": 1439535054,
  "nonce": "0xcdca96af7715cd03",
  "difficulty": 2427778537693,
  "gasLimit": {
    "_hex": "0x2fefd2"
  },
  "gasUsed": {
    "_hex": "0x5208"
  },
  "miner": "0xbb7B8287f3F0a933474a79eAe42CBCa977791171",
  "extraData": "0x476574682f4c5649562f76312e302e312f6c696e75782f676f312e342e32",
  "transactions": [
    {
      "hash": "0x869cb18210bc0514ae0f2933a1f595f84b928145ed1be26c0e3887f581247f45",
      "blockHash": "0x30286ceff68c9c3eeba23b9749cc2fb0b48be3fe246378ce110e7dffff037ca4",
      "blockNumber": 83418,
      "transactionIndex": 0,
      "confirmations": null,
      "from": "0x32Be343B94f860124dC4fEe278FDCBD38C102D88",
      "gasPrice": {
        "_hex": "0xdf70cfebb"
      },
      "gasLimit": {
        "_hex": "0x5208"
      },
      "to": "0xd6Bb39DA0858E6AEddcaa12a509327b2D05f5B51",
      "value": {
        "_hex": "0x6c6b6fd4994d800000"
      },
      "nonce": 649,
      "data": "0x",
      "r": "0x29b2740760be2fc959a4a076e362395a8cd88b12a46d4c734857a84754f9c9fe",
      "s": "0x17283e60f972b3ffd72681827ca42ce1f0f0daa4d718006af2ca1186a5595ac9",
      "v": 27,
      "creates": null,
      "raw": "0xf86f820289850df70cfebb82520894d6bb39da0858e6aeddcaa12a509327b2d05f5b51896c6b6fd4994d800000801ba029b2740760be2fc959a4a076e362395a8cd88b12a46d4c734857a84754f9c9fea017283e60f972b3ffd72681827ca42ce1f0f0daa4d718006af2ca1186a5595ac9",
      "networkId": 0,
      "chainId": 0
    }
  ]
}