{
  "hash": "0xa453221f4437f8a468323510d69572f2bfc3f78342d347c4af87c24b17fa9caa",
  "parentHash": "0x8d0a44702d32a9a922c8b1c2e799346da66bc7598c3b75e26340801a324b0bb4",
  "number": 83124,
  "timestamp": 1439530555,
  "nonce": "0xd0fe9701ed8edf67",
  "difficulty": 2404269412879,
  "gasLimit": {
    "_hex": "0x2fefd8"
  },
  "gasUsed": {
    "_hex": "0x5208"
  },
  "miner": "0x019D3FA6E3cdA649b26F74395A846575c7bEA14C",
  "extraData": "0x",
  "transactions": [
    {
      "hash": "0xdcd9c80f25ab145464acaf3448beb9a17a3bef3d9c1f99ceccf9cca856112262",
      "blockHash": "0xa453221f4437f8a468323510d69572f2bfc3f78342d347c4af87c24b17fa9caa",
      "blockNumber": 83124,
      "transactionIndex": 0,
      "confirmations": null,
      "from": "0x8df03bD37602d97980327B58D940258dC57007B3",
      "gasPrice": {
        "_hex": "0xda11a0b7c"
      },
      "gasLimit": {
        "_hex": "0x15f90"
      },
      "to": "0x98f2c2754c77b49993EEA4Dcd2D9ABa71B696B60",
      "value": {
        "_hex": "0x2a48acab6204b0000"
      },
      "nonce": 8,
      "data": "0x",
      "r": "0xca435ed606159a8151d14a2c0d2b2de07e6518280c39289e89a45fd34e07f30e",
      "s": "0x6e651238d9412f5035a92e74dae5b3b3249a468ad0777a31ec84588e22d42dee",
      "v": 28,
      "creates": null,
      "raw": "0xf86e08850da11a0b7c83015f909498f2c2754c77b49993eea4dcd2d9aba71b696b608902a48acab6204b0000801ca0ca435ed606159a8151d14a2c0d2b2de07e6518280c39289e89a45fd34e07f30ea06e651238d9412f5035a92e74dae5b3b3249a468ad0777a31ec84588e22d42dee",
      "networkId": 0,
      "chainId": 0
    }
  ]
}