{
  "hash": "0x7692a827bd13a111029e605ac52237d0543b010738c575daa206a5eac8260f59",
  "parentHash": "0xe254380f579b89068295d0aa29bdd5815f13fdb12dc6310a38bd69d8a0b570ce",
  "number": 106355,
  "timestamp": 1439902809,
  "nonce": "0x4cf62e8e1c4d7cb7",
  "difficulty": 4472788024193,
  "gasLimit": {
    "_hex": "0x2fefd8"
  },
  "gasUsed": {
    "_hex": "0x5208"
  },
  "miner": "0x7e8504a5e26df87f6D26fA1ba148BE146F42775A",
  "extraData": "0x476574682f76312e302e312f77696e646f77732f676f312e342e32",
  "transactions": [
    {
      "hash": "0x0007872c73a5e07a9f090a4fe4ea4ea1c6a09ee0d0a0052feb4763a004d2330c",
      "blockHash": "0x7692a827bd13a111029e605ac52237d0543b010738c575daa206a5eac8260f59",
      "blockNumber": 106355,
      "transactionIndex": 0,
      "confirmations": null,
      "from": "0xbA8c9CDA6af013Cc68A076E17c84d4cDbc5960c5",
      "gasPrice": {
        "_hex": "0xd4ec42269"
      },
      "gasLimit": {
        "_hex": "0x5208"
      },
      "to": "0x32Be343B94f860124dC4fEe278FDCBD38C102D88",
      "value": {
        "_hex": "0x23b9c031e234f0000"
      },
      "nonce": 4,
      "data": "0x",
      "r": "0x71a7cdb8caeccf2a78ee0611e0ed31c71445b77e4bf7c370bbc559101eedff7d",
      "s": "0x77413ca41ac5987c3f827f8f1c302035dd78cb23a89987a0a42889a3c4bf9105",
      "v": 28,
      "creates": null,
      "raw": "0xf86d04850d4ec422698252089432be343b94f860124dc4fee278fdcbd38c102d8889023b9c031e234f0000801ca071a7cdb8caeccf2a78ee0611e0ed31c71445b77e4bf7c370bbc559101eedff7da077413ca41ac5987c3f827f8f1c302035dd78cb23a89987a0a42889a3c4bf9105",
      "networkId": 0,
      "chainId": 0
    }
  ]
}