{
  "hash": "0x24700728cd72f799932ddebf63dad8939df77014c5229b14045b36b3d0fb3683",
  "parentHash": "0x60fb17123a02b429d039ef17622b977aa7d178970674bee4934ac67c3e120c11",
  "number": 78908,
  "timestamp": 1439461484,
  "nonce": "0xfda3d69fe96f1ce5",
  "difficulty": 2284142884713,
  "gasLimit": {
    "_hex": "0x2fefd8"
  },
  "gasUsed": {
    "_hex": "0x5208"
  },
  "miner": "0xe6A7a1d47ff21B6321162AEA7C6CB457D5476Bca",
  "extraData": "0x476574682f76312e302e312d38326566323666362f6c696e75782f676f312e34",
  "transactions": [
    {
      "hash": "0x8a1c6cea55c0423f0d3686d33858b72bf601dc1fadc00c20a96c7b4a31bfa91b",
      "blockHash": "0x24700728cd72f799932ddebf63dad8939df77014c5229b14045b36b3d0fb3683",
      "blockNumber": 78908,
      "transactionIndex": 0,
      "confirmations": null,
      "from": "0xa6BDc31c431B8F97848c9D60cbbe9660dc450eB7",
      "gasPrice": {
        "_hex": "0xcc6fdfb32"
      },
      "gasLimit": {
        "_hex": "0x5208"
      },
      "to": "0x32Be343B94f860124dC4fEe278FDCBD38C102D88",
      "value": {
        "_hex": "0x455f6e281edbac00"
      },
      "nonce": 28,
      "data": "0x",
      "r": "0x9546d2b273d9e1dff2eb59879bf1e19cd1f84ed6fab2aab57b4b74ece33b0ae0",
      "s": "0x270b5cef3f9db952687d7a880738a08681486d6ef79463f1f512e1b92c7e374a",
      "v": 27,
      "creates": null,
      "raw": "0xf86c1c850cc6fdfb328252089432be343b94f860124dc4fee278fdcbd38c102d8888455f6e281edbac00801ba09546d2b273d9e1dff2eb59879bf1e19cd1f84ed6fab2aab57b4b74ece33b0ae0a0270b5cef3f9db952687d7a880738a08681486d6ef79463f1f512e1b92c7e374a",
      "networkId": 0,
      "chainId": 0
    }
  ]
}