{
  "hash": "0x093ea5bb9c5d726878978984a9f5b700d9a05aebacd94124841dcaa66e9e9b29",
  "parentHash": "0x0a2e2efe090b2db2808af7dcaa3d2cd8bf9dfd88a7ef9b41b820d4d74743d6c7",
  "number": 46861,
  "timestamp": 1438930558,
  "nonce": "0x78ac2676d337eeca",
  "difficulty": 1455313395811,
  "gasLimit": {
    "_hex": "0x8039"
  },
  "gasUsed": {
    "_hex": "0x5208"
  },
  "miner": "0xa50ec0D39fa913E62f1Bae7074E6F36caA71855b",
  "extraData": "0x476574682f76312e302e302f6c696e75782f676f312e342e32",
  "transactions": [
    {
      "hash": "0x6c45dc9b6a58bd19413dca5069b9881f8ff247d3e178f79ef8b5157eee541484",
      "blockHash": "0x093ea5bb9c5d726878978984a9f5b700d9a05aebacd94124841dcaa66e9e9b29",
      "blockNumber": 46861,
      "transactionIndex": 0,
      "confirmations": null,
      "from": "0xeF76c144553e10420Aa7FA2c205Db698AF95bed3",
      "gasPrice": {
        "_hex": "0xd5a80caca"
      },
      "gasLimit": {
        "_hex": "0x5208"
      },
      "to": "0x32Be343B94f860124dC4fEe278FDCBD38C102D88",
      "value": {
        "_hex": "0x2a7fea669fdf46000"
      },
      "nonce": 0,
      "data": "0x",
      "r": "0xe14755925361e8185efc25d17cbeb915913028345ced60875f19cd516d37d62e",
      "s": "0x6f00c148ae207218bd3bc8b85ce6ce6543a1877d77bc1549da1257ebcb5f6074",
      "v": 28,
      "creates": null,
      "raw": "0xf86d80850d5a80caca8252089432be343b94f860124dc4fee278fdcbd38c102d888902a7fea669fdf46000801ca0e14755925361e8185efc25d17cbeb915913028345ced60875f19cd516d37d62ea06f00c148ae207218bd3bc8b85ce6ce6543a1877d77bc1549da1257ebcb5f6074",
      "networkId": 0,
      "chainId": 0
    }
  ]
}