{
  "hash": "0x0bde271957b50e6f7f2b702df1bbc01d41b6ea900251fb9da58f8e37718f7bf3",
  "parentHash": "0xcacea4f013188a96a512951f44fa14e7c549b46da3d8127f7b5bb5c18b72beb3",
  "number": 114188,
  "timestamp": 1440036358,
  "nonce": "0x58498977b6530c61",
  "difficulty": 4449019056704,
  "gasLimit": {
    "_hex": "0x2fefd8"
  },
  "gasUsed": {
    "_hex": "0x5208"
  },
  "miner": "0x9D551f41feD6FC27B719777c224DfeCcE170004d",
  "extraData": "0x476574682f76312e302e312f6c696e75782f676f312e342e32",
  "transactions": [
    {
      "hash": "0xd31a33ea7a5afc38b127e2b1ad28190c4244672f0cea21151ddf48d54c116cbe",
      "blockHash": "0x0bde271957b50e6f7f2b702df1bbc01d41b6ea900251fb9da58f8e37718f7bf3",
      "blockNumber": 114188,
      "transactionIndex": 0,
      "confirmations": null,
      "from": "0x32Be343B94f860124dC4fEe278FDCBD38C102D88",
      "gasPrice": {
        "_hex": "0xd5f653b64"
      },
      "gasLimit": {
        "_hex": "0x5208"
      },
      "to": "0x6Ea9d172E15e969316f49CB2D5549fc3b00c1ef3",
      "value": {
        "_hex": "0x3635a626d36ee00000"
      },
      "nonce": 1387,
      "data": "0x",
      "r": "0xe4d581440ede86e43f00c1a8da6e84732e56ec509a17494bb8be08a1804a1519",
      "s": "0x634b1942d8a1c2d6f98b09c02eedf461cdf4dd330de61939cb24ccd8594771fe",
      "v": 27,
      "creates": null,
      "raw": "0xf86f82056b850d5f653b64825208946ea9d172e15e969316f49cb2d5549fc3b00c1ef3893635a626d36ee00000801ba0e4d581440ede86e43f00c1a8da6e84732e56ec509a17494bb8be08a1804a1519a0634b1942d8a1c2d6f98b09c02eedf461cdf4dd330de61939cb24ccd8594771fe",
      "networkId": 0,
      "chainId": 0
    }
  ]
}