{
  "hash": "0x3319c555daa37673063a72f5d0c45274ead45a6971db47a5d5bbb2e1609d7f93",
  "parentHash": "0x150282044e5351c0932b2a127310e289231b527a9285cfe82a8db4041396375d",
  "number": 107555,
  "timestamp": 1439924576,
  "nonce": "0xb5464cb0a7a23526",
  "difficulty": 4398516470507,
  "gasLimit": {
    "_hex": "0x2fefd8"
  },
  "gasUsed": {
    "_hex": "0xa410"
  },
  "miner": "0x31995C46B15C84523cDEE26f49A681b8237e43F5",
  "extraData": "0x476574682f76312e302e312f77696e646f77732f676f312e342e32",
  "transactions": [
    {
      "hash": "0x5eb6290bdef89e7cff9ec4256b7365b5fa1f5039d3d1b2bbc8823c38e0a36ed6",
      "blockHash": "0x3319c555daa37673063a72f5d0c45274ead45a6971db47a5d5bbb2e1609d7f93",
      "blockNumber": 107555,
      "transactionIndex": 0,
      "confirmations": null,
      "from": "0x8Ab68e66cBE9f38Ad5C330a6B888DbC73788254A",
      "gasPrice": {
        "_hex": "0x104c533c00"
      },
      "gasLimit": {
        "_hex": "0x5208"
      },
      "to": "0xE95d7Fd32296221C64Dd0049eB7DE3468f365452",
      "value": {
        "_hex": "0x13f306a2409fc0000"
      },
      "nonce": 1,
      "data": "0x",
      "r": "0x95990c06173f97ce851ead7efdc1ac9e3e54f71899f39cc7871a22adecef537c",
      "s": "0x730e26b50ae0a42358698d78da49d48848a2ee419a0c9a12658019dad3a8c9ba",
      "v": 28,
      "creates": null,
      "raw": "0xf86d0185104c533c0082520894e95d7fd32296221c64dd0049eb7de3468f36545289013f306a2409fc0000801ca095990c06173f97ce851ead7efdc1ac9e3e54f71899f39cc7871a22adecef537ca0730e26b50ae0a42358698d78da49d48848a2ee419a0c9a12658019dad3a8c9ba",
      "networkId": 0,
      "chainId": 0
    },
    {
      "hash": "0xf60715da3c7b4c26238d2790b232ead0ad3d948dcacecaf5854da34387d2b190",
      "blockHash": "0x3319c555daa37673063a72f5d0c45274ead45a6971db47a5d5bbb2e1609d7f93",
      "blockNumber": 107555,
      "transactionIndex": 1,
      "confirmations": null,
      "from": "0xe6b20f980ad853AD04CbfC887Ce6601c6BE0B24c",
      "gasPrice": {
        "_hex": "0xd641f460d"
      },
      "gasLimit": {
        "_hex": "0x15f90"
      },
      "to": "0x9729efC5198d5ed4d98Fa76745093D41d89FB143",
      "value": {
        "_hex": "0x8ac7230489e80000"
      },
      "nonce": 0,
      "data": "0x",
      "r": "0x563968170277e90fc7e55de61ac8e412b37befdbf5517ce93b74767f0f65faec",
      "s": "0x6bc9c95295db0e50bbd45e102c2c55dd54aa130205d05f2e0f9fc9b03125fdfc",
      "v": 27,
      "creates": null,
      "raw": "0xf86d80850d641f460d83015f90949729efc5198d5ed4d98fa76745093d41d89fb143888ac7230489e80000801ba0563968170277e90fc7e55de61ac8e412b37befdbf5517ce93b74767f0f65faeca06bc9c95295db0e50bbd45e102c2c55dd54aa130205d05f2e0f9fc9b03125fdfc",
      "networkId": 0,
      "chainId": 0
    }
  ]
}