{
  "hash": "0x8317e0680fe5ed9aeb08ae902e351b2b297585126fb5d16a82b1b49b5eb214ed",
  "parentHash": "0x300c94d0f305f58c71a4b022552a5ee6aaf57eaec30b71ada8850eb7b7ebd3c0",
  "number": 72382,
  "timestamp": 1439351779,
  "nonce": "0xc2146b3585a8ce03",
  "difficulty": 2189777751525,
  "gasLimit": {
    "_hex": "0x2fefd8"
  },
  "gasUsed": {
    "_hex": "0x2e248"
  },
  "miner": "0x39A1BB80a741bF5EC39FB9BE59408Fa0F418fFBf",
  "extraData": "0x476574682f76312e302e312f77696e646f77732f676f312e342e32",
  "transactions": [
    {
      "hash": "0x3b01b4e1ce3d37f4171638e2db17dc36900e4981fb6c610b39935053cefa7a5b",
      "blockHash": "0x8317e0680fe5ed9aeb08ae902e351b2b297585126fb5d16a82b1b49b5eb214ed",
      "blockNumber": 72382,
      "transactionIndex": 0,
      "confirmations": null,
      "from": "0x2C89f5FDcA3D155409b638B98A742E55eb4652B7",
      "gasPrice": {
        "_hex": "0x9184e72a000"
      },
      "gasLimit": {
        "_hex": "0x15f90"
      },
      "to": "0x1308A2e95c0160B90803ddCA9B9a5bb55E416d79",
      "value": {
        "_hex": "0x3635c9adc5dea00000"
      },
      "nonce": 12,
      "data": "0x",
      "r": "0x6a658277638c78922dedc576a3c42e67464b7833a2421c61b0339c29b84e9a63",
      "s": "0x209ca094b4619618113867acf16dfef0060c0738bbd4827eca3a8f50b1593f1b",
      "v": 28,
      "creates": null,
      "raw": "0xf86f0c8609184e72a00083015f90941308a2e95c0160b90803ddca9b9a5bb55e416d79893635c9adc5dea00000801ca06a658277638c78922dedc576a3c42e67464b7833a2421c61b0339c29b84e9a63a0209ca094b4619618113867acf16dfef0060c0738bbd4827eca3a8f50b1593f1b",
      "networkId": 0,
      "chainId": 0
    },
    {
      "hash": "0xcf7a3960ab85b1b050a8c43ae51fca07404757e4ed422e514caad2a5cc863a25",
      "blockHash": "0x8317e0680fe5ed9aeb08ae902e351b2b297585126fb5d16a82b1b49b5eb214ed",
      "blockNumber": 72382,
      "transactionIndex": 1,
      "confirmations": null,
      "from": "0x2C89f5FDcA3D155409b638B98A742E55eb4652B7",
      "gasPrice": {
        "_hex": "0x9184e72a000"
      },
      "gasLimit": {
        "_hex": "0x15f90"
      },
      "to": "0x1308A2e95c0160B90803ddCA9B9a5bb55E416d79",
      "value": {
        "_hex": "0x3635c9adc5dea00000"
      },
      "nonce": 13,
      "data": "0x",
      "r": "0xbce344140436489b9d9824207ee1ff3ececad754c2f88a6f075c99b3843347d8",
      "s": "0x16f952301a5c5385e6cff247168e7b3ec54146538286909c37f1965528e95d05",
      "v": 27,
      "creates": null,
      "raw": "0xf86f0d8609184e72a00083015f90941308a2e95c0160b90803ddca9b9a5bb55e416d79893635c9adc5dea00000801ba0bce344140436489b9d9824207ee1ff3ececad754c2f88a6f075c99b3843347d8a016f952301a5c5385e6cff247168e7b3ec54146538286909c37f1965528e95d05",
      "networkId": 0,
      "chainId": 0
    },
    {
      "hash": "0x14a579fa4fef42f51f8ac750390541d174f55163eaf25df50fcd36d5315d7ab1",
      "blockHash": "0x8317e0680fe5ed9aeb08ae902e351b2b297585126fb5d16a82b1b49b5eb214ed",
      "blockNumber": 72382,
      "transactionIndex": 2,
      "confirmations": null,
      "from": "0x2C89f5FDcA3D155409b638B98A742E55eb4652B7",
      "gasPrice": {
        "_hex": "0x9184e72a000"
      },
      "gasLimit": {
        "_hex": "0x15f90"
      },
      "to": "0x1308A2e95c0160B90803ddCA9B9a5bb55E416d79",
      "value": {
        "_hex": "0x3635c9adc5dea00000"
      },
      "nonce": 14,
      "data": "0x",
      "r": "0x088fb1cec6f253418ff40a873756a6ab96872420d4c74f9720bd39729ca9da70",
      "s": "0x1bf958bf9e3ba40a0596b097231b968f42581365f02202729e7ed141e9c095ad",
      "v": 28,
      "creates": null,
      "raw": "0xf86f0e8609184e72a00083015f90941308a2e95c0160b90803ddca9b9a5bb55e416d79893635c9adc5dea00000801ca0088fb1cec6f253418ff40a873756a6ab96872420d4c74f9720bd39729ca9da70a01bf958bf9e3ba40a0596b097231b968f42581365f02202729e7ed141e9c095ad",
      "networkId": 0,
      "chainId": 0
    },
    {
      "hash": "0x7056f446ca9286c86a90a820db216be7977ebea863063f928cac30463f1fb782",
      "blockHash": "0x8317e0680fe5ed9aeb08ae902e351b2b297585126fb5d16a82b1b49b5eb214ed",
      "blockNumber": 72382,
      "transactionIndex": 3,
      "confirmations": null,
      "from": "0x2C89f5FDcA3D155409b638B98A742E55eb4652B7",
      "gasPrice": {
        "_hex": "0x9184e72a000"
      },
      "gasLimit": {
        "_hex": "0x15f90"
      },
      "to": "0x1308A2e95c0160B90803ddCA9B9a5bb55E416d79",
      "value": {
        "_hex": "0x3635c9adc5dea00000"
      },
      "nonce": 15,
      "data": "0x",
      "r": "0x2e8379bdd774bcab2747942b4aabc5bb6413d643365dc8bbb01428baa0d1797f",
      "s": "0x4d99e97351f057286ce7f7113142a97b0b2181ba378836d7ba8980ae507ede7d",
      "v": 27,
      "creates": null,
      "raw": "0xf86f0f8609184e72a00083015f90941308a2e95c0160b90803ddca9b9a5bb55e416d79893635c9adc5dea00000801ba02e8379bdd774bcab2747942b4aabc5bb6413d643365dc8bbb01428baa0d1797fa04d99e97351f057286ce7f7113142a97b0b2181ba378836d7ba8980ae507ede7d",
      "networkId": 0,
      "chainId": 0
    },
    {
      "hash": "0xd288e9713553824d64070e6561a360a13aa409408cb36d672fe17be87bd212a9",
      "blockHash": "0x8317e0680fe5ed9aeb08ae902e351b2b297585126fb5d16a82b1b49b5eb214ed",
      "blockNumber": 72382,
      "transactionIndex": 4,
      "confirmations": null,
      "from": "0x2C89f5FDcA3D155409b638B98A742E55eb4652B7",
      "gasPrice": {
        "_hex": "0x9184e72a000"
      },
      "gasLimit": {
        "_hex": "0x15f90"
      },
      "to": "0x1308A2e95c0160B90803ddCA9B9a5bb55E416d79",
      "value": {
        "_hex": "0x3635c9adc5dea00000"
      },
      "nonce": 16,
      "data": "0x",
      "r": "0x2850e3969f19d499b70f6b669b05e9eb10dfcc0ed47b966a292e6ae57e113fdb",
      "s": "0x36b9820df3582fe2fac6bd054c5e8ef75eee9d804dd2083d46ed42c7a69910fb",
      "v": 28,
      "creates": null,
      "raw": "0xf86f108609184e72a00083015f90941308a2e95c0160b90803ddca9b9a5bb55e416d79893635c9adc5dea00000801ca02850e3969f19d499b70f6b669b05e9eb10dfcc0ed47b966a292e6ae57e113fdba036b9820df3582fe2fac6bd054c5e8ef75eee9d804dd2083d46ed42c7a69910fb",
      "networkId": 0,
      "chainId": 0
    },
    {
      "hash": "0xc23b19d15122b7cc48ee4f4ce273e671f22b5937fe8e34e3cd72baab1fa5d4c9",
      "blockHash": "0x8317e0680fe5ed9aeb08ae902e351b2b297585126fb5d16a82b1b49b5eb214ed",
      "blockNumber": 72382,
      "transactionIndex": 5,
      "confirmations": null,
      "from": "0x2C89f5FDcA3D155409b638B98A742E55eb4652B7",
      "gasPrice": {
        "_hex": "0x9184e72a000"
      },
      "gasLimit": {
        "_hex": "0x15f90"
      },
      "to": "0x1308A2e95c0160B90803ddCA9B9a5bb55E416d79",
      "value": {
        "_hex": "0x3635c9adc5dea00000"
      },
      "nonce": 17,
      "data": "0x",
      "r": "0x491747d38b3151aa2191d4d4c8284c48e5c801bd327b30d101c5848704075d26",
      "s": "0x29d704945dbf4dd3ef0c153980129378d5de27af1341c936eb669b7497fddad6",
      "v": 27,
      "creates": null,
      "raw": "0xf86f118609184e72a00083015f90941308a2e95c0160b90803ddca9b9a5bb55e416d79893635c9adc5dea00000801ba0491747d38b3151aa2191d4d4c8284c48e5c801bd327b30d101c5848704075d26a029d704945dbf4dd3ef0c153980129378d5de27af1341c936eb669b7497fddad6",
      "networkId": 0,
      "chainId": 0
    },
    {
      "hash": "0xdc5f904f28e85faf639b871b3d7fd1b49279012485c403be1230edc3d90f14a7",
      "blockHash": "0x8317e0680fe5ed9aeb08ae902e351b2b297585126fb5d16a82b1b49b5eb214ed",
      "blockNumber": 72382,
      "transactionIndex": 6,
      "confirmations": null,
      "from": "0x2C89f5FDcA3D155409b638B98A742E55eb4652B7",
      "gasPrice": {
        "_hex": "0x9184e72a000"
      },
      "gasLimit": {
        "_hex": "0x15f90"
      },
      "to": "0x1308A2e95c0160B90803ddCA9B9a5bb55E416d79",
      "value": {
        "_hex": "0x3635c9adc5dea00000"
      },
      "nonce": 18,
      "data": "0x",
      "r": "0x47e6f64aa0e3a282cddc567a560a5baad160ad5f705b8779186f5c7238aa5256",
      "s": "0x4df350e35fbc4eea7e7efe37c5b24e79cfe9773a2422ef72e0f52943d3d447df",
      "v": 27,
      "creates": null,
      "raw": "0xf86f128609184e72a00083015f90941308a2e95c0160b90803ddca9b9a5bb55e416d79893635c9adc5dea00000801ba047e6f64aa0e3a282cddc567a560a5baad160ad5f705b8779186f5c7238aa5256a04df350e35fbc4eea7e7efe37c5b24e79cfe9773a2422ef72e0f52943d3d447df",
      "networkId": 0,
      "chainId": 0
    },
    {
      "hash": "0x4f11974952ecc2a87801e73bf5ebf8f0265f8672e3fedda564b1bc1ac74aa5ad",
      "blockHash": "0x8317e0680fe5ed9aeb08ae902e351b2b297585126fb5d16a82b1b49b5eb214ed",
      "blockNumber": 72382,
      "transactionIndex": 7,
      "confirmations": null,
      "from": "0x2C89f5FDcA3D155409b638B98A742E55eb4652B7",
      "gasPrice": {
        "_hex": "0x9184e72a000"
      },
      "gasLimit": {
        "_hex": "0x15f90"
      },
      "to": "0x1308A2e95c0160B90803ddCA9B9a5bb55E416d79",
      "value": {
        "_hex": "0x3635c9adc5dea00000"
      },
      "nonce": 19,
      "data": "0x",
      "r": "0x18934150fea8e39cfd7793534410d7adcd7d73be9b6976ef3f45d94ba6f1e0b1",
      "s": "0x7d55dae791781fb607ff7dc5b4653fe0ba3139933d489a98e8328f6c1403b9f9",
      "v": 28,
      "creates": null,
      "raw": "0xf86f138609184e72a00083015f90941308a2e95c0160b90803ddca9b9a5bb55e416d79893635c9adc5dea00000801ca018934150fea8e39cfd7793534410d7adcd7d73be9b6976ef3f45d94ba6f1e0b1a07d55dae791781fb607ff7dc5b4653fe0ba3139933d489a98e8328f6c1403b9f9",
      "networkId": 0,
      "chainId": 0
    },
    {
      "hash": "0x060d7453e11b4fae27ad112de1f0403ab051ab932dffb06599e5b298fd573390",
      "blockHash": "0x8317e0680fe5ed9aeb08ae902e351b2b297585126fb5d16a82b1b49b5eb214ed",
      "blockNumber": 72382,
      "transactionIndex": 8,
      "confirmations": null,
      "from": "0x2C89f5FDcA3D155409b638B98A742E55eb4652B7",
      "gasPrice": {
        "_hex": "0x9184e72a000"
      },
      "gasLimit": {
        "_hex": "0x15f90"
      },
      "to": "0x1308A2e95c0160B90803ddCA9B9a5bb55E416d79",
      "value": {
        "_hex": "0x3635c9adc5dea00000"
      },
      "nonce": 20,
      "data": "0x",
      "r": "0x340ff040e5ed1fce1b8520a68574977203d22f89b81fd54ce8d69cb781473a23",
      "s": "0x0dd11a228c164618b4aa174d66041680760987570f1c46e1b8504dc04aa775f1",
      "v": 27,
      "creates": null,
      "raw": "0xf86f148609184e72a00083015f90941308a2e95c0160b90803ddca9b9a5bb55e416d79893635c9adc5dea00000801ba0340ff040e5ed1fce1b8520a68574977203d22f89b81fd54ce8d69cb781473a23a00dd11a228c164618b4aa174d66041680760987570f1c46e1b8504dc04aa775f1",
      "networkId": 0,
      "chainId": 0
    }
  ]
}