{
  "hash": "0x0c790c5308343fcabfe6eb48895e8991806af4d26b888e765ddb5bf094caa212",
  "parentHash": "0x91fa7d260b25fb0f33dc0226fd5baec98578299a49ff65d8a2f58d066faab03e",
  "number": 57157,
  "timestamp": 1439098493,
  "nonce": "0x00ab78479df828ff",
  "difficulty": 1729482151784,
  "gasLimit": {
    "_hex": "0x2fefd8"
  },
  "gasUsed": {
    "_hex": "0x14820"
  },
  "miner": "0x9746c7e1ef2bd21FF3997fa467593a89cb852BD0",
  "extraData": "0x476574682f76312e302e312f77696e646f77732f676f312e342e32",
  "transactions": [
    {
      "hash": "0x75be1018eab4ea2b726abc3bee82f6dc10adacae06f26acfe07c2339a16b458c",
      "blockHash": "0x0c790c5308343fcabfe6eb48895e8991806af4d26b888e765ddb5bf094caa212",
      "blockNumber": 57157,
      "transactionIndex": 0,
      "confirmations": null,
      "from": "0x87898CE53471043FcCa0a2aF4E1dC6d8B3fCf607",
      "gasPrice": {
        "_hex": "0xdcadd8373"
      },
      "gasLimit": {
        "_hex": "0x5208"
      },
      "to": "0xBFdD9820a04283b289957956353b5F3C1F665EcF",
      "value": {
        "_hex": "0x270801d946c940000"
      },
      "nonce": 3,
      "data": "0x",
      "r": "0x645280332ba696b74eb752343ff7053ece348d901f0f769cf0d12c537265f224",
      "s": "0x6b33fabbaea96bfb52c291728c8f346b2b0ea3070165a0aabc7c2ace345fbc9f",
      "v": 27,
      "creates": null,
      "raw": "0xf86d03850dcadd837382520894bfdd9820a04283b289957956353b5f3c1f665ecf890270801d946c940000801ba0645280332ba696b74eb752343ff7053ece348d901f0f769cf0d12c537265f224a06b33fabbaea96bfb52c291728c8f346b2b0ea3070165a0aabc7c2ace345fbc9f",
      "networkId": 0,
      "chainId": 0
    },
    {
      "hash": "0x6e59fcc055de0008227729441a4f64ab94d53f5fd880a0ba5bc61c69e42e7111",
      "blockHash": "0x0c790c5308343fcabfe6eb48895e8991806af4d26b888e765ddb5bf094caa212",
      "blockNumber": 57157,
      "transactionIndex": 1,
      "confirmations": null,
      "from": "0xaA35779Ef4dfBEd0B3D6F46F5f11cb86261B17A5",
      "gasPrice": {
        "_hex": "0xd7d40ace3"
      },
      "gasLimit": {
        "_hex": "0x61a8"
      },
      "to": "0x30beD8049947963394D93412326225E4e3123601",
      "value": {
        "_hex": "0x3311fc80a5700000"
      },
      "nonce": 1,
      "data": "0x",
      "r": "0x6a1874ca36c0ae9099494c898a6dee9ff2780a2402ce2d47e09d309ed0aed085",
      "s": "0x725362f90068bf41b6c048accfc3705376a3d841c122d86f9f931acb6d356576",
      "v": 28,
      "creates": null,
      "raw": "0xf86c01850d7d40ace38261a89430bed8049947963394d93412326225e4e3123601883311fc80a5700000801ca06a1874ca36c0ae9099494c898a6dee9ff2780a2402ce2d47e09d309ed0aed085a0725362f90068bf41b6c048accfc3705376a3d841c122d86f9f931acb6d356576",
      "networkId": 0,
      "chainId": 0
    },
    {
      "hash": "0xb13faab280d148718d3fd4c352d324e4d0276fc5993414d7f7baf5659219a317",
      "blockHash": "0x0c790c5308343fcabfe6eb48895e8991806af4d26b888e765ddb5bf094caa212",
      "blockNumber": 57157,
      "transactionIndex": 2,
      "confirmations": null,
      "from": "0xC25f24A505b8fEF751D8f4FCc397651001F7a160",
      "gasPrice": {
        "_hex": "0xd42ee56bd"
      },
      "gasLimit": {
        "_hex": "0x5208"
      },
      "to": "0x32Be343B94f860124dC4fEe278FDCBD38C102D88",
      "value": {
        "_hex": "0x1a051351ef6f31000"
      },
      "nonce": 1,
      "data": "0x",
      "r": "0x296cbb17bb569924c9e415d5fad32d5448044bf03772100f344e15c02ecdc0bf",
      "s": "0x6196baa21de6c5da07af58a9f2f482c23b3ffbb07e67ff9778217dc1254d2cc8",
      "v": 28,
      "creates": null,
      "raw": "0xf86d01850d42ee56bd8252089432be343b94f860124dc4fee278fdcbd38c102d888901a051351ef6f31000801ca0296cbb17bb569924c9e415d5fad32d5448044bf03772100f344e15c02ecdc0bfa06196baa21de6c5da07af58a9f2f482c23b3ffbb07e67ff9778217dc1254d2cc8",
      "networkId": 0,
      "chainId": 0
    },
    {
      "hash": "0x4d8ede929a5b849293d87aca94776f6b3f3d1c668f87e515b3de5fbdc177e6bf",
      "blockHash": "0x0c790c5308343fcabfe6eb48895e8991806af4d26b888e765ddb5bf094caa212",
      "blockNumber": 57157,
      "transactionIndex": 3,
      "confirmations": null,
      "from": "0x562f16d79AbfCec3943E34b20F05F97BdfcDa605",
      "gasPrice": {
        "_hex": "0xcdd72d34e"
      },
      "gasLimit": {
        "_hex": "0x15f90"
      },
      "to": "0x60780933D9a5A8e8E3ab20CB6382cd314f04065F",
      "value": {
        "_hex": "0x39a45931f262af150"
      },
      "nonce": 6,
      "data": "0x",
      "r": "0xc04beaa319f0071fe7856cca2a3305b7d3f0757060f71ec5c3198a9c8d7adf06",
      "s": "0x73e3f413cbc4dc427d79d5a842729b284da08c3741a7aaeebb4b68ef15e2ac6c",
      "v": 28,
      "creates": null,
      "raw": "0xf86e06850cdd72d34e83015f909460780933d9a5a8e8e3ab20cb6382cd314f04065f89039a45931f262af150801ca0c04beaa319f0071fe7856cca2a3305b7d3f0757060f71ec5c3198a9c8d7adf06a073e3f413cbc4dc427d79d5a842729b284da08c3741a7aaeebb4b68ef15e2ac6c",
      "networkId": 0,
      "chainId": 0
    }
  ]
}