{
  "hash": "0xee6c2b9b18c485df607744a31bc0c8c1cbf5fcf2449f62bf98e3c89b306c10a0",
  "parentHash": "0x0a0cbb30c91db843cc26eb584a960b2e93bdfb59253dab8c3427441f903b3a96",
  "number": 100511,
  "timestamp": 1439807667,
  "nonce": "0x3ec03073faf705a8",
  "difficulty": 3820974347522,
  "gasLimit": {
    "_hex": "0x2fefd8"
  },
  "gasUsed": {
    "_hex": "0x5208"
  },
  "miner": "0xaEAf103356C2Ee943F748E8655659D29881323E1",
  "extraData": "0x476574682f76312e302e312f77696e646f77732f676f312e342e32",
  "transactions": [
    {
      "hash": "0xbb9c4846825c466f76752bdeefc6e53162adc45e0deeb539caea96423998dedf",
      "blockHash": "0xee6c2b9b18c485df607744a31bc0c8c1cbf5fcf2449f62bf98e3c89b306c10a0",
      "blockNumber": 100511,
      "transactionIndex": 0,
      "confirmations": null,
      "from": "0x090041473c833bf54B1197fD120F895C537c26B0",
      "gasPrice": {
        "_hex": "0xda3de4193"
      },
      "gasLimit": {
        "_hex": "0x7a120"
      },
      "to": "0x83178e9873Ce992F73915eefa3a27AC561e60e95",
      "value": {
        "_hex": "0xde0b6b3a7640000"
      },
      "nonce": 1,
      "data": "0x",
      "r": "0xb413a51c3e3288acc071e660636c9e225a12e3b0dd4fe59d46237652990fadae",
      "s": "0x42193ca905c9ca6dd457004353e58e416accf049334287ff510337fca8f87b37",
      "v": 28,
      "creates": null,
      "raw": "0xf86d01850da3de41938307a1209483178e9873ce992f73915eefa3a27ac561e60e95880de0b6b3a7640000801ca0b413a51c3e3288acc071e660636c9e225a12e3b0dd4fe59d46237652990fadaea042193ca905c9ca6dd457004353e58e416accf049334287ff510337fca8f87b37",
      "networkId": 0,
      "chainId": 0
    }
  ]
}