{
  "hash": "0x7b747149b82f9be9417a53253cdbc4ece58697c6f45d23a93ba0cbe05b948b0a",
  "parentHash": "0x6eec92009ce77b5277ae3ab4bac6464592bd28308033788a4858073d39c417e0",
  "number": 86444,
  "timestamp": 1439578263,
  "nonce": "0xf029a89a4fd2e11c",
  "difficulty": 2896125346870,
  "gasLimit": {
    "_hex": "0x2fefd8"
  },
  "gasUsed": {
    "_hex": "0xb20b"
  },
  "miner": "0x7aAaa306d4a7Fd1696A82A66cc538D29f5af4e39",
  "extraData": "0x",
  "transactions": [
    {
      "hash": "0xd6da69171d52b2c874393e29b629b2851aeb7636484ae1b094633352e5125e0c",
      "blockHash": "0x7b747149b82f9be9417a53253cdbc4ece58697c6f45d23a93ba0cbe05b948b0a",
      "blockNumber": 86444,
      "transactionIndex": 0,
      "confirmations": null,
      "from": "0xED327a14D5cFaDD98103FC0999718D7eD70528eA",
      "gasPrice": {
        "_hex": "0x110c8f7d8de"
      },
      "gasLimit": {
        "_hex": "0xc350"
      },
      "to": "0x2910543Af39abA0Cd09dBb2D50200b3E800A63D2",
      "value": {
        "_hex": "0x22b1c8c1227a00000"
      },
      "nonce": 0,
      "data": "0x454e3838414d314e38",
      "r": "0x48d698bf0b77c2ea74fb8a5cb60209afa643d96e70064e767028b21ed64f7eba",
      "s": "0xf7885311219cb3f9c89409256a9cc628c19b66b17d25bbb4ee1a3f9a3f5838de",
      "v": 28,
      "creates": null,
      "raw": "0xf87780860110c8f7d8de82c350942910543af39aba0cd09dbb2d50200b3e800a63d289022b1c8c1227a0000089454e3838414d314e381ca048d698bf0b77c2ea74fb8a5cb60209afa643d96e70064e767028b21ed64f7ebaa0f7885311219cb3f9c89409256a9cc628c19b66b17d25bbb4ee1a3f9a3f5838de",
      "networkId": 0,
      "chainId": 0
    },
    {
      "hash": "0xe50fb3f7c6828ae8e27d7b480837473d910c3ac6586deec94e81f137991509a5",
      "blockHash": "0x7b747149b82f9be9417a53253cdbc4ece58697c6f45d23a93ba0cbe05b948b0a",
      "blockNumber": 86444,
      "transactionIndex": 1,
      "confirmations": null,
      "from": "0x4329Fc0931cBeb033880FE4c9398Ca45B0E2D11A",
      "gasPrice": {
        "_hex": "0xce2a85630"
      },
      "gasLimit": {
        "_hex": "0x15f90"
      },
      "to": "0xCAc7000C7dBaa2E33Af15325AF5D435E011C7BdD",
      "value": {
        "_hex": "0x6c70fcea7ac3a70000"
      },
      "nonce": 0,
      "data": "0xb214faa54c30515048464351530000000000000000000000000000000000000000000000",
      "r": "0x11e22a28a4ea47ee2ade1d400c15fa56cad7e3890a662e4dc7629ad0cc4e469f",
      "s": "0x0c8df8f72cc819a300687a10557323a6d94485bacc0f3cc2689a3bf5ddeeb676",
      "v": 28,
      "creates": null,
      "raw": "0xf89280850ce2a8563083015f9094cac7000c7dbaa2e33af15325af5d435e011c7bdd896c70fcea7ac3a70000a4b214faa54c305150484643515300000000000000000000000000000000000000000000001ca011e22a28a4ea47ee2ade1d400c15fa56cad7e3890a662e4dc7629ad0cc4e469fa00c8df8f72cc819a300687a10557323a6d94485bacc0f3cc2689a3bf5ddeeb676",
      "networkId": 0,
      "chainId": 0
    }
  ]
}