{
  "hash": "0xaeeed22dc41f763a22e9a7c8bf526528ecf8b39aabcce4a7b4fbe5bee2fc4ca9",
  "parentHash": "0x426c3a94493fed91238545a7c0dac3343249de25278529949e7301f4629cb3f8",
  "number": 104085,
  "timestamp": 1439864101,
  "nonce": "0x5612d64f9650b383",
  "difficulty": 4252475501647,
  "gasLimit": {
    "_hex": "0x2fefd8"
  },
  "gasUsed": {
    "_hex": "0xa410"
  },
  "miner": "0x63BBedc46A1113Ba7938CF7C18CCb5Aed20eC733",
  "extraData": "0x",
  "transactions": [
    {
      "hash": "0x96af368c71c4a042de71695d989efe04b8c7dfe4c90fa28105433977af0bd5b1",
      "blockHash": "0xaeeed22dc41f763a22e9a7c8bf526528ecf8b39aabcce4a7b4fbe5bee2fc4ca9",
      "blockNumber": 104085,
      "transactionIndex": 0,
      "confirmations": null,
      "from": "0x120A270bbC009644e35F0bB6ab13f95b8199c4ad",
      "gasPrice": {
        "_hex": "0xd700ae41a"
      },
      "gasLimit": {
        "_hex": "0x3d090"
      },
      "to": "0x562236C0D4FD95E26c53aC56b7d118E420ca1716",
      "value": {
        "_hex": "0x56bc75e2d63100000"
      },
      "nonce": 733,
      "data": "0x",
      "r": "0x6427c8398314e67186ea1e8895274d598c7d489b8756b2d863f087bb8b7a5fa4",
      "s": "0x3fc147c26b2e88f9d9b65d2931fe8b4c9b2ae9fa2e6787db7fa38b294c4d00b9",
      "v": 27,
      "creates": null,
      "raw": "0xf8708202dd850d700ae41a8303d09094562236c0d4fd95e26c53ac56b7d118e420ca171689056bc75e2d63100000801ba06427c8398314e67186ea1e8895274d598c7d489b8756b2d863f087bb8b7a5fa4a03fc147c26b2e88f9d9b65d2931fe8b4c9b2ae9fa2e6787db7fa38b294c4d00b9",
      "networkId": 0,
      "chainId": 0
    },
    {
      "hash": "0x60e8f7bcc588f1dec962666b4ec9a9d290038830e59845cccf95b9201041965f",
      "blockHash": "0xaeeed22dc41f763a22e9a7c8bf526528ecf8b39aabcce4a7b4fbe5bee2fc4ca9",
      "blockNumber": 104085,
      "transactionIndex": 1,
      "confirmations": null,
      "from": "0x120A270bbC009644e35F0bB6ab13f95b8199c4ad",
      "gasPrice": {
        "_hex": "0xce99fae1d"
      },
      "gasLimit": {
        "_hex": "0x3d090"
      },
      "to": "0xab265e840933431739e8BE901b21785AAb7d28bE",
      "value": {
        "_hex": "0x5a7a6af7142a5800"
      },
      "nonce": 734,
      "data": "0x",
      "r": "0xa301696e032113a3e303c798ab617527802c17b77ad39f17990a91de0bbbe9bc",
      "s": "0x12a18adfc83c51b40d30f3eee6957f76bb8905deef75d2fd4ea37e7c5e5e163b",
      "v": 28,
      "creates": null,
      "raw": "0xf86f8202de850ce99fae1d8303d09094ab265e840933431739e8be901b21785aab7d28be885a7a6af7142a5800801ca0a301696e032113a3e303c798ab617527802c17b77ad39f17990a91de0bbbe9bca012a18adfc83c51b40d30f3eee6957f76bb8905deef75d2fd4ea37e7c5e5e163b",
      "networkId": 0,
      "chainId": 0
    }
  ]
}