{
  "hash": "0x80d5c403e53e641ee75e0338a6c23668f50924527a39dd5225f7bdf431dc5942",
  "parentHash": "0x54c027918ac617b1e53403ce9cf54ec4e64758ea32700fea9411de28487c0752",
  "number": 114319,
  "timestamp": 1440038445,
  "nonce": "0x4ae3a24c8f3e72c0",
  "difficulty": 4477279804493,
  "gasLimit": {
    "_hex": "0x2fefd8"
  },
  "gasUsed": {
    "_hex": "0x5428"
  },
  "miner": "0xe6A7a1d47ff21B6321162AEA7C6CB457D5476Bca",
  "extraData": "0x476574682f76312e302e312d38326566323666362f6c696e75782f676f312e34",
  "transactions": [
    {
      "hash": "0x19c65b9743be4e04cb301162ba68e6dd51b22efc139f8d224342c7f6b78fc894",
      "blockHash": "0x80d5c403e53e641ee75e0338a6c23668f50924527a39dd5225f7bdf431dc5942",
      "blockNumber": 114319,
      "transactionIndex": 0,
      "confirmations": null,
      "from": "0xc38a95397BF6FDa410aD0DA9dB44906Cd38F7ee8",
      "gasPrice": {
        "_hex": "0xa7a358200"
      },
      "gasLimit": {
        "_hex": "0x55f0"
      },
      "to": "0x0379A72424E50f656bc46BC7857a9722B9635Dea",
      "value": {
        "_hex": "0xde0b6b3a7640000"
      },
      "nonce": 0,
      "data": "0x5a65726f436f6f6c",
      "r": "0x6104474f50f82fe3fff0750c6158884e2ea042e542db3aeaec82c3f184a2ffaa",
      "s": "0x43f1e0298d1875ed579f1ec94bf462854ac4615817b8ad1752ffe7c3740c6c97",
      "v": 28,
      "creates": null,
      "raw": "0xf87480850a7a3582008255f0940379a72424e50f656bc46bc7857a9722b9635dea880de0b6b3a7640000885a65726f436f6f6c1ca06104474f50f82fe3fff0750c6158884e2ea042e542db3aeaec82c3f184a2ffaaa043f1e0298d1875ed579f1ec94bf462854ac4615817b8ad1752ffe7c3740c6c97",
      "networkId": 0,
      "chainId": 0
    }
  ]
}