{
  "hash": "0x133f5ed1ad37457364a51a76a270f6ad62030b60391f73a9044ba41fc45a0d07",
  "parentHash": "0xc06193dfaeef5ff0850ba7d5409201f5ac54a49d36a892c704c68f88c9020d1d",
  "number": 65274,
  "timestamp": 1439234197,
  "nonce": "0xee2bad88bb99f837",
  "difficulty": 1941680112220,
  "gasLimit": {
    "_hex": "0x2fefd8"
  },
  "gasUsed": {
    "_hex": "0xf618"
  },
  "miner": "0x9746c7e1ef2bd21FF3997fa467593a89cb852BD0",
  "extraData": "0x476574682f76312e302e312f77696e646f77732f676f312e342e32",
  "transactions": [
    {
      "hash": "0x85e5a35ac07ae1f226ec04cac42467b721c998d764faa78238328746ea430f37",
      "blockHash": "0x133f5ed1ad37457364a51a76a270f6ad62030b60391f73a9044ba41fc45a0d07",
      "blockNumber": 65274,
      "transactionIndex": 0,
      "confirmations": null,
      "from": "0x4d67f2AB8599fef5Fc413999Aa01FD7fcE70B43D",
      "gasPrice": {
        "_hex": "0xcbad645e6"
      },
      "gasLimit": {
        "_hex": "0x55f0"
      },
      "to": "0x284b73e057B56e75a1AE26079031D3bFFDE2E7A7",
      "value": {
        "_hex": "0x1bc16d674ec80000"
      },
      "nonce": 2,
      "data": "0x",
      "r": "0xe6d062b35035c71f7649228e1cd59ba51b5482173a2b7ece2750ce53c18d94ec",
      "s": "0x438b4b5ecc53e51b3c3c12c68d27e7e8436d010d24495fca3850a3295ccb168a",
      "v": 27,
      "creates": null,
      "raw": "0xf86c02850cbad645e68255f094284b73e057b56e75a1ae26079031d3bffde2e7a7881bc16d674ec80000801ba0e6d062b35035c71f7649228e1cd59ba51b5482173a2b7ece2750ce53c18d94eca0438b4b5ecc53e51b3c3c12c68d27e7e8436d010d24495fca3850a3295ccb168a",
      "networkId": 0,
      "chainId": 0
    },
    {
      "hash": "0x43cc640861c7db8e69434867262a25cb59fa5e945581c3a1240a6a464f3a18aa",
      "blockHash": "0x133f5ed1ad37457364a51a76a270f6ad62030b60391f73a9044ba41fc45a0d07",
      "blockNumber": 65274,
      "transactionIndex": 1,
      "confirmations": null,
      "from": "0x1b4df3d15Ec87e4ec625Fc638A6d104924552584",
      "gasPrice": {
        "_hex": "0xba43b7400"
      },
      "gasLimit": {
        "_hex": "0x5208"
      },
      "to": "0xfa955D880ff3F54fC614623B891071Bb1Ac183E2",
      "value": {
        "_hex": "0x7891057f3014000"
      },
      "nonce": 1,
      "data": "0x",
      "r": "0xa1e8fcbd1ccaff93876a46a73abcf49013fb0beb68f238ab4b9528ee4ac300b2",
      "s": "0x39d4782078f132a86b07dfdc092ff1b5d5a5757aa4846f856299609e2d50445e",
      "v": 28,
      "creates": null,
      "raw": "0xf86c01850ba43b740082520894fa955d880ff3f54fc614623b891071bb1ac183e28807891057f3014000801ca0a1e8fcbd1ccaff93876a46a73abcf49013fb0beb68f238ab4b9528ee4ac300b2a039d4782078f132a86b07dfdc092ff1b5d5a5757aa4846f856299609e2d50445e",
      "networkId": 0,
      "chainId": 0
    },
    {
      "hash": "0x0149dadd50a7e325f0a985cc9b40f82576c65b38bc4459d8739334fcb0af11a8",
      "blockHash": "0x133f5ed1ad37457364a51a76a270f6ad62030b60391f73a9044ba41fc45a0d07",
      "blockNumber": 65274,
      "transactionIndex": 2,
      "confirmations": null,
      "from": "0x29a6d3eAfFa242500973464AAac432700660B5BE",
      "gasPrice": {
        "_hex": "0xba43b7400"
      },
      "gasLimit": {
        "_hex": "0x5208"
      },
      "to": "0x1408B3bADDC8E85C3BE8661181029E70A2C2daC2",
      "value": {
        "_hex": "0x7fcc03832d37000"
      },
      "nonce": 1,
      "data": "0x",
      "r": "0x2610b6af5a959942b971a572aa83bff1c41ce7853cd0f85c7fc114d0b83492ec",
      "s": "0x26b5be528abd7acdabd6567de6eacfd6a25f281f3e776d80e0428d1679a353b5",
      "v": 28,
      "creates": null,
      "raw": "0xf86c01850ba43b7400825208941408b3baddc8e85c3be8661181029e70a2c2dac28807fcc03832d37000801ca02610b6af5a959942b971a572aa83bff1c41ce7853cd0f85c7fc114d0b83492eca026b5be528abd7acdabd6567de6eacfd6a25f281f3e776d80e0428d1679a353b5",
      "networkId": 0,
      "chainId": 0
    }
  ]
}