{
  "hash": "0x2a40e521599437c9a32532d2d58171a870d63fefaa908a922be932f97fb9efc1",
  "parentHash": "0xfde8a9082436e38e5cbe972a5ea9cf4ff9dba3d8d1afe502b20b46545259086b",
  "number": 102460,
  "timestamp": 1439838409,
  "nonce": "0x3e686ad7470295ef",
  "difficulty": 3958707764939,
  "gasLimit": {
    "_hex": "0x2fefd8"
  },
  "gasUsed": {
    "_hex": "0x5208"
  },
  "miner": "0xe6A7a1d47ff21B6321162AEA7C6CB457D5476Bca",
  "extraData": "0x476574682f76312e302e312d38326566323666362f6c696e75782f676f312e34",
  "transactions": [
    {
      "hash": "0xac3c2e64372057cdd813183a293d03272c6b5a1b61e2f0c4d35c02683acf89de",
      "blockHash": "0x2a40e521599437c9a32532d2d58171a870d63fefaa908a922be932f97fb9efc1",
      "blockNumber": 102460,
      "transactionIndex": 0,
      "confirmations": null,
      "from": "0xBBDa93a81B882774e1c9b5e3F933Fa35DaC8bc88",
      "gasPrice": {
        "_hex": "0xd4d1f188c"
      },
      "gasLimit": {
        "_hex": "0x5208"
      },
      "to": "0x32Be343B94f860124dC4fEe278FDCBD38C102D88",
      "value": {
        "_hex": "0x2b49fad71d768c000"
      },
      "nonce": 4,
      "data": "0x",
      "r": "0x7c7a71dad2480d32a4fb1ba6918b5399798753dcb71c69070caa7daa84f20d1d",
      "s": "0x4e960282e141e30b45000df82187fb53157157ef30ed9c5d909c295b275030ad",
      "v": 28,
      "creates": null,
      "raw": "0xf86d04850d4d1f188c8252089432be343b94f860124dc4fee278fdcbd38c102d888902b49fad71d768c000801ca07c7a71dad2480d32a4fb1ba6918b5399798753dcb71c69070caa7daa84f20d1da04e960282e141e30b45000df82187fb53157157ef30ed9c5d909c295b275030ad",
      "networkId": 0,
      "chainId": 0
    }
  ]
}