{
  "hash": "0xdb650f03f3c152f0029e390abc324bbbca4fc308ab0e72d1894c4154e99b10f6",
  "parentHash": "0x8c700ecae9661b8245fa5618fdf7121ee1243b6d03f08a5dee5b803085621ec2",
  "number": 48065,
  "timestamp": 1438950760,
  "nonce": "0x5021deb9b15a2093",
  "difficulty": 1460799651141,
  "gasLimit": {
    "_hex": "0x12440"
  },
  "gasUsed": {
    "_hex": "0x546c"
  },
  "miner": "0xbb7B8287f3F0a933474a79eAe42CBCa977791171",
  "extraData": "0x476574682f4c5649562f76312e302e312f6c696e75782f676f312e342e32",
  "transactions": [
    {
      "hash": "0x0d36b8866201f14ff5f35e76c77b64a27b62d786a9dd9cfa7a3c484c941449bd",
      "blockHash": "0xdb650f03f3c152f0029e390abc324bbbca4fc308ab0e72d1894c4154e99b10f6",
      "blockNumber": 48065,
      "transactionIndex": 0,
      "confirmations": null,
      "from": "0xac2B6F3cA32EbEFB4eEBaE254D8677097E4c2326",
      "gasPrice": {
        "_hex": "0x45d964b800"
      },
      "gasLimit": {
        "_hex": "0x55f0"
      },
      "to": "0x2910543Af39abA0Cd09dBb2D50200b3E800A63D2",
      "value": {
        "_hex": "0x29a2241af62c0000"
      },
      "nonce": 1,
      "data": "0x454e365a325a464152",
      "r": "0x3ff57d52092fccd82cb8dd73950f869c061636fd7e683aa35df2ed035d7bf90e",
      "s": "0x60b575fe42a7322e6e7238c6d53c3fac7ccd6ab0d35c0b6a3c69ddbcfb109d45",
      "v": 28,
      "creates": null,
      "raw": "0xf875018545d964b8008255f0942910543af39aba0cd09dbb2d50200b3e800a63d28829a2241af62c000089454e365a325a4641521ca03ff57d52092fccd82cb8dd73950f869c061636fd7e683aa35df2ed035d7bf90ea060b575fe42a7322e6e7238c6d53c3fac7ccd6ab0d35c0b6a3c69ddbcfb109d45",
      "networkId": 0,
      "chainId": 0
    }
  ]
}