{
  "hash": "0x4bdd918a598a604c1f09fa1557e8953ec3cfb4388f713353968170bd1876c8ef",
  "parentHash": "0xb809e7e1adbbc288b8bc0c2572ddded1c9db65a3bb9afa070e998f043208d0cc",
  "number": 56667,
  "timestamp": 1439090622,
  "nonce": "0x530e576f427574ff",
  "difficulty": 1684574908988,
  "gasLimit": {
    "_hex": "0x2fefd8"
  },
  "gasUsed": {
    "_hex": "0x5208"
  },
  "miner": "0xf64EE50154E0D74461966B4bB90139C010BCA68B",
  "extraData": "0x476574682f76312e302e312f77696e646f77732f676f312e342e32",
  "transactions": [
    {
      "hash": "0x0d2e350ab7341fd8669b53131746295575c11e728627565ff63e30ad4bb35a0b",
      "blockHash": "0x4bdd918a598a604c1f09fa1557e8953ec3cfb4388f713353968170bd1876c8ef",
      "blockNumber": 56667,
      "transactionIndex": 0,
      "confirmations": null,
      "from": "0x120A270bbC009644e35F0bB6ab13f95b8199c4ad",
      "gasPrice": {
        "_hex": "0xd28bdf907"
      },
      "gasLimit": {
        "_hex": "0x15f90"
      },
      "to": "0xc8ebccC5F5689Fa8659d83713341e5aD19349448",
      "value": {
        "_hex": "0x55333c64a513000"
      },
      "nonce": 33,
      "data": "0x",
      "r": "0x70301febc344058da0b3481700e2bef43e8e91e55af1f854fd5faf49644ae4f3",
      "s": "0x45e3b0190663f4e1b744e2e3c0309ecec9faa367daeebbfd3dcd97894f00f5f5",
      "v": 27,
      "creates": null,
      "raw": "0xf86d21850d28bdf90783015f9094c8ebccc5f5689fa8659d83713341e5ad1934944888055333c64a513000801ba070301febc344058da0b3481700e2bef43e8e91e55af1f854fd5faf49644ae4f3a045e3b0190663f4e1b744e2e3c0309ecec9faa367daeebbfd3dcd97894f00f5f5",
      "networkId": 0,
      "chainId": 0
    }
  ]
}