{
  "hash": "0x7237a691f06b9b30efbdb7b872bfefb1cbbb682f1ea51bb0ff83432cf32e5d89",
  "parentHash": "0x7079031c7448d98e796692988c66349ec5d4012c1ab61769888dfa960e1c1099",
  "number": 87261,
  "timestamp": 1439589619,
  "nonce": "0xc3fb7969079a5fc4",
  "difficulty": 3078096921617,
  "gasLimit": {
    "_hex": "0x2fefd8"
  },
  "gasUsed": {
    "_hex": "0x5208"
  },
  "miner": "0xBD744E3F13D79B33F6c8E1d5E32F8E9BA2866c46",
  "extraData": "0x476574682f76312e302e312d39613032663533372f6c696e75782f676f312e34",
  "transactions": [
    {
      "hash": "0x29cdb9b623367cee03b127c1614d6168a68e414994f95bbf3b854a8bfe0d2009",
      "blockHash": "0x7237a691f06b9b30efbdb7b872bfefb1cbbb682f1ea51bb0ff83432cf32e5d89",
      "blockNumber": 87261,
      "transactionIndex": 0,
      "confirmations": null,
      "from": "0x141d08EDaDA2C1bA62A2940184Ba03d62d3fFF22",
      "gasPrice": {
        "_hex": "0xba43b7400"
      },
      "gasLimit": {
        "_hex": "0x5208"
      },
      "to": "0xC47Aaa860008be6f65B58c6C6E02a84e666EfE31",
      "value": {
        "_hex": "0x14cfba2664c7be000"
      },
      "nonce": 5,
      "data": "0x",
      "r": "0x175757b7fb982b74c8230c908f30d72a2c7bb12c9792b6ef4063b3d21a40d0c3",
      "s": "0x4185ac0cdc60d8c1ba4d7c3352c262b6b1aec172ad5a877c8690a1fa6a776b5d",
      "v": 27,
      "creates": null,
      "raw": "0xf86d05850ba43b740082520894c47aaa860008be6f65b58c6c6e02a84e666efe3189014cfba2664c7be000801ba0175757b7fb982b74c8230c908f30d72a2c7bb12c9792b6ef4063b3d21a40d0c3a04185ac0cdc60d8c1ba4d7c3352c262b6b1aec172ad5a877c8690a1fa6a776b5d",
      "networkId": 0,
      "chainId": 0
    }
  ]
}