{
  "hash": "0xd639b4f9ac7b1b2d03efd849aaf30316a2d0dc6e4d817b585627ace306fedc84",
  "parentHash": "0x84d08655a5b693e7e26d932daaeb4e28850d4d75c04300de2b1d098624f6efd2",
  "number": 79768,
  "timestamp": 1439474792,
  "nonce": "0x90f63058e74e7fe7",
  "difficulty": 2351809909848,
  "gasLimit": {
    "_hex": "0x2fefd8"
  },
  "gasUsed": {
    "_hex": "0x5208"
  },
  "miner": "0x02dE7d35a60bf6A216411476040ec648668769D7",
  "extraData": "0x476574682f76312e302e312f77696e646f77732f676f312e342e32",
  "transactions": [
    {
      "hash": "0x26c06678641c0edfa82d1c52d7d4c5542a723dfc9cdccf0294decec6ab3e030c",
      "blockHash": "0xd639b4f9ac7b1b2d03efd849aaf30316a2d0dc6e4d817b585627ace306fedc84",
      "blockNumber": 79768,
      "transactionIndex": 0,
      "confirmations": null,
      "from": "0xCaf1C12c783fCcC4066e87a376F94518141dEF80",
      "gasPrice": {
        "_hex": "0xba43b7400"
      },
      "gasLimit": {
        "_hex": "0x5208"
      },
      "to": "0xC47Aaa860008be6f65B58c6C6E02a84e666EfE31",
      "value": {
        "_hex": "0x13d83865b9c9de0f0"
      },
      "nonce": 0,
      "data": "0x",
      "r": "0xf4ae88d9248e4a5722138501b5af900add87cbdbf62ffb5a7515478cc52c4ab4",
      "s": "0x2f4ef753009592b55f9ca0ab861cff5f71b5b22a672418aeaffd5aef58fc6e41",
      "v": 28,
      "creates": null,
      "raw": "0xf86d80850ba43b740082520894c47aaa860008be6f65b58c6c6e02a84e666efe3189013d83865b9c9de0f0801ca0f4ae88d9248e4a5722138501b5af900add87cbdbf62ffb5a7515478cc52c4ab4a02f4ef753009592b55f9ca0ab861cff5f71b5b22a672418aeaffd5aef58fc6e41",
      "networkId": 0,
      "chainId": 0
    }
  ]
}