{
  "hash": "0x25203b37a312f668e5d84cfd08e6e5afe5e6c10730cbe3ca186209065dd73aeb",
  "parentHash": "0x6120f70c4dc0a2e31e3ffdc8e9788b67e83fa038038066db0a9b92e401d5b72a",
  "number": 113459,
  "timestamp": 1440023838,
  "nonce": "0xff6937a574dfd99b",
  "difficulty": 4464639659825,
  "gasLimit": {
    "_hex": "0x2fefd8"
  },
  "gasUsed": {
    "_hex": "0x5208"
  },
  "miner": "0x52bc44d5378309EE2abF1539BF71dE1b7d7bE3b5",
  "extraData": "0x476574682f76312e302e312d39353236303766382f6c696e75782f676f312e34",
  "transactions": [
    {
      "hash": "0x4c63ca8b108714638cc88a07e556c643665bdc2873fda908e654e921eb3203a3",
      "blockHash": "0x25203b37a312f668e5d84cfd08e6e5afe5e6c10730cbe3ca186209065dd73aeb",
      "blockNumber": 113459,
      "transactionIndex": 0,
      "confirmations": null,
      "from": "0xa2037AA76DF2c3F5F04455844f057758fE1FA6B1",
      "gasPrice": {
        "_hex": "0xd74c40a7a"
      },
      "gasLimit": {
        "_hex": "0x7a120"
      },
      "to": "0xBBDa93a81B882774e1c9b5e3F933Fa35DaC8bc88",
      "value": {
        "_hex": "0x8ac7230489e80000"
      },
      "nonce": 2,
      "data": "0x",
      "r": "0x477c0fb821386029415472458862231866f04f9161c22d0ed838dc96d50531c4",
      "s": "0x7ac51619974fc2ec82053337f76e03c6fd5947788f59b87ed83fe4e04ec79bef",
      "v": 28,
      "creates": null,
      "raw": "0xf86d02850d74c40a7a8307a12094bbda93a81b882774e1c9b5e3f933fa35dac8bc88888ac7230489e80000801ca0477c0fb821386029415472458862231866f04f9161c22d0ed838dc96d50531c4a07ac51619974fc2ec82053337f76e03c6fd5947788f59b87ed83fe4e04ec79bef",
      "networkId": 0,
      "chainId": 0
    }
  ]
}