{
  "hash": "0x13fcdce3558f378f549469392269754d5b6321068d5eecefc1eacc710e8b5ee3",
  "parentHash": "0xfbe233669dac11b17574f3126d38e3fccbadd20ca7cc5d60554f4cd2d3be771d",
  "number": 71173,
  "timestamp": 1439331958,
  "nonce": "0xd1e8f416917252e2",
  "difficulty": 2142496036236,
  "gasLimit": {
    "_hex": "0x2fefd8"
  },
  "gasUsed": {
    "_hex": "0x586f0"
  },
  "miner": "0x3222BA3F3e79eA0e31467EEE7639B57923558cCD",
  "extraData": "0x",
  "transactions": [
    {
      "hash": "0xe7d08c95db9d86be723daed12aa6ab9e1ac629651e4350132d848e6efca44575",
      "blockHash": "0x13fcdce3558f378f549469392269754d5b6321068d5eecefc1eacc710e8b5ee3",
      "blockNumber": 71173,
      "transactionIndex": 0,
      "confirmations": null,
      "from": "0x72caB155Af74Dea2BE1388f78C48723B3124Eb3e",
      "gasPrice": {
        "_hex": "0xda73df4c1"
      },
      "gasLimit": {
        "_hex": "0x7a120"
      },
      "to": "0xfBc128067A2FE13C11BBC6cc55f29AA1F27630DA",
      "value": {
        "_hex": "0xde0b6b3a7640000"
      },
      "nonce": 0,
      "data": "0x",
      "r": "0xe1235515d8555e55f9661144df8c6065daac214fb5fc754438513b23ab1ae39e",
      "s": "0x57551d1e1e93ea8245bf66c37a8bc63b09622862700a0b207c2b88f0a31fe133",
      "v": 28,
      "creates": null,
      "raw": "0xf86d80850da73df4c18307a12094fbc128067a2fe13c11bbc6cc55f29aa1f27630da880de0b6b3a7640000801ca0e1235515d8555e55f9661144df8c6065daac214fb5fc754438513b23ab1ae39ea057551d1e1e93ea8245bf66c37a8bc63b09622862700a0b207c2b88f0a31fe133",
      "networkId": 0,
      "chainId": 0
    }
  ]
}