{
  "hash": "0x35803048a469e86a0e9df1641ddf84a237aad0b4c0702ee9b99e1035afc992f0",
  "parentHash": "0x49d66354e8d7f500cf8d75a890e3803382b54bdef12189e2a4b6232cca8e34a9",
  "number": 47527,
  "timestamp": 1438942087,
  "nonce": "0xf4bd9de01fe57bb9",
  "difficulty": 1449524578876,
  "gasLimit": {
    "_hex": "0xcaca"
  },
  "gasUsed": {
    "_hex": "0x5208"
  },
  "miner": "0x3F98e477a361F777DA14611a7e419A75Fd238b6b",
  "extraData": "0x476574682f76312e302e312f6c696e75782f676f312e342e32",
  "transactions": [
    {
      "hash": "0x9d3f3e5b651c3b4472eca4cd57db6549d474a23af182c768d418bd9e278195b5",
      "blockHash": "0x35803048a469e86a0e9df1641ddf84a237aad0b4c0702ee9b99e1035afc992f0",
      "blockNumber": 47527,
      "transactionIndex": 0,
      "confirmations": null,
      "from": "0xe6A7a1d47ff21B6321162AEA7C6CB457D5476Bca",
      "gasPrice": {
        "_hex": "0x1b98190c3f"
      },
      "gasLimit": {
        "_hex": "0x55f0"
      },
      "to": "0xDD3b3C2c929F76DcfA8bE2F127DCEe66c985d05a",
      "value": {
        "_hex": "0x2f3ceee969bb160a8"
      },
      "nonce": 168,
      "data": "0x",
      "r": "0x831955b11333c48a6c399aba418c61aecdbab8d700893bd0473fc9e0768d0141",
      "s": "0x3dd467f557a04c2814d6fbfd5fa43f4495aa40053ca595ade8b48efedc71ad26",
      "v": 28,
      "creates": null,
      "raw": "0xf86e81a8851b98190c3f8255f094dd3b3c2c929f76dcfa8be2f127dcee66c985d05a8902f3ceee969bb160a8801ca0831955b11333c48a6c399aba418c61aecdbab8d700893bd0473fc9e0768d0141a03dd467f557a04c2814d6fbfd5fa43f4495aa40053ca595ade8b48efedc71ad26",
      "networkId": 0,
      "chainId": 0
    }
  ]
}