{
  "hash": "0xdfb86887a75fc838cd9b9179afc88a5245c1d71138257252cf9a6f39296cdede",
  "parentHash": "0x9503d3dc5c025175adc2562c668ce0c4eca74e5b44c4fb469571c5ba1ee4e651",
  "number": 97705,
  "timestamp": 1439760477,
  "nonce": "0x05d6fec4d1a1b426",
  "difficulty": 3837212557406,
  "gasLimit": {
    "_hex": "0x2fefd8"
  },
  "gasUsed": {
    "_hex": "0x5208"
  },
  "miner": "0x47ff6576639c2e94762eA5443978D7681C0E78DC",
  "extraData": "0x476574682f76312e302e312f6c696e75782f676f312e342e32",
  "transactions": [
    {
      "hash": "0xcc2551664b599845d6ece71cca6b187c49840e300721de2cb41b39ab0920692f",
      "blockHash": "0xdfb86887a75fc838cd9b9179afc88a5245c1d71138257252cf9a6f39296cdede",
      "blockNumber": 97705,
      "transactionIndex": 0,
      "confirmations": null,
      "from": "0x296ddc7dB724c4b7252dEe85F3969df1b618ef1F",
      "gasPrice": {
        "_hex": "0xd337f1bb2"
      },
      "gasLimit": {
        "_hex": "0x5208"
      },
      "to": "0x32Be343B94f860124dC4fEe278FDCBD38C102D88",
      "value": {
        "_hex": "0xebe7db581b9b6000"
      },
      "nonce": 1,
      "data": "0x",
      "r": "0x4985b89852968005bc6af98784e597e3a8c949969c4f481df489ec31b4adf820",
      "s": "0x768a7fb6bb89e4d7f401b2e157e92f21cc0d415fff92a0483624fbdf8c52fbb3",
      "v": 28,
      "creates": null,
      "raw": "0xf86c01850d337f1bb28252089432be343b94f860124dc4fee278fdcbd38c102d8888ebe7db581b9b6000801ca04985b89852968005bc6af98784e597e3a8c949969c4f481df489ec31b4adf820a0768a7fb6bb89e4d7f401b2e157e92f21cc0d415fff92a0483624fbdf8c52fbb3",
      "networkId": 0,
      "chainId": 0
    }
  ]
}