{
  "hash": "0x654a659000f0d13b590f30bd61935c698fca3d68f711a6774be5fddd68b2265f",
  "parentHash": "0x3248f7f6e3b1f0f38ff49617eb5a1a8f9b0e1de7c6d7cdf3c2d028045e0e32c5",
  "number": 71549,
  "timestamp": 1439337927,
  "nonce": "0x893a5823b4b8c7a5",
  "difficulty": 2178264072426,
  "gasLimit": {
    "_hex": "0x2fefd8"
  },
  "gasUsed": {
    "_hex": "0x93b2"
  },
  "miner": "0xee5379D0c1ca47327368027455074C26D9952628",
  "extraData": "0x476574682f76312e302e312d38326566323666362f6c696e75782f676f312e34",
  "transactions": [
    {
      "hash": "0xb133083af4dc81350979d9b68c134b19f7df7c59802daecd1635c09c83431d77",
      "blockHash": "0x654a659000f0d13b590f30bd61935c698fca3d68f711a6774be5fddd68b2265f",
      "blockNumber": 71549,
      "transactionIndex": 0,
      "confirmations": null,
      "from": "0x17580B766f7453525ca4C6A88b01b50570EA088C",
      "gasPrice": {
        "_hex": "0xd63b379b4"
      },
      "gasLimit": {
        "_hex": "0x61a80"
      },
      "to": "0x5Fe5B7546D1628f7348B023A0393de1FC825A4fD",
      "value": {
        "_hex": "0x29a2241af62c0000"
      },
      "nonce": 213,
      "data": "0xb595b8b50000000000000000000000000000000000000000000000000000000000000000",
      "r": "0x4e0391b2398954d447998a8012ebb5387295b885553fbacbda3e548eaed60f15",
      "s": "0x218682d479f7cebf5fc9db778a4a0a0ec79380a4a2f4fbb5ecbfdf088b06fe5c",
      "v": 27,
      "creates": null,
      "raw": "0xf89281d5850d63b379b483061a80945fe5b7546d1628f7348b023a0393de1fc825a4fd8829a2241af62c0000a4b595b8b500000000000000000000000000000000000000000000000000000000000000001ba04e0391b2398954d447998a8012ebb5387295b885553fbacbda3e548eaed60f15a0218682d479f7cebf5fc9db778a4a0a0ec79380a4a2f4fbb5ecbfdf088b06fe5c",
      "networkId": 0,
      "chainId": 0
    }
  ]
}