{
  "hash": "0x8086bd810a81cc2ef24a3f9d9146d78dc6c1ef863683b5c138e46c210c59a5b1",
  "parentHash": "0x59c16729b7299b4c554d42703653ad20bd2d181e4a20cecc406fb83b0a7ef5d1",
  "number": 70355,
  "timestamp": 1439318668,
  "nonce": "0x513428cccaec45f5",
  "difficulty": 2138524081343,
  "gasLimit": {
    "_hex": "0x2fefd8"
  },
  "gasUsed": {
    "_hex": "0x5208"
  },
  "miner": "0x48040276E9c17DDbe5C8d2976245dCD0235efA43",
  "extraData": "0x476574682f76312e302e312d38326566323666362f6c696e75782f676f312e34",
  "transactions": [
    {
      "hash": "0x6e19c16c7e309a4a7162e69eee6f325c37e6f26b4bed750a05dd46a9c79d9b7d",
      "blockHash": "0x8086bd810a81cc2ef24a3f9d9146d78dc6c1ef863683b5c138e46c210c59a5b1",
      "blockNumber": 70355,
      "transactionIndex": 0,
      "confirmations": null,
      "from": "0xE5F2F0A5603F889856C85B3A255501d1D291467D",
      "gasPrice": {
        "_hex": "0xe31b7d06a"
      },
      "gasLimit": {
        "_hex": "0x5208"
      },
      "to": "0x32Be343B94f860124dC4fEe278FDCBD38C102D88",
      "value": {
        "_hex": "0x1bbce108345aa000"
      },
      "nonce": 0,
      "data": "0x",
      "r": "0x5b3b264992ff467e81469500a94a523deac5610de60fcffc1402f03165b19267",
      "s": "0x1d23156fc93cd599fab27cd4bdb8b9958ada90106542ec4b1337f2bc1cbb9470",
      "v": 27,
      "creates": null,
      "raw": "0xf86c80850e31b7d06a8252089432be343b94f860124dc4fee278fdcbd38c102d88881bbce108345aa000801ba05b3b264992ff467e81469500a94a523deac5610de60fcffc1402f03165b19267a01d23156fc93cd599fab27cd4bdb8b9958ada90106542ec4b1337f2bc1cbb9470",
      "networkId": 0,
      "chainId": 0
    }
  ]
}