{
  "hash": "0x66041c3e017fa25a4ca5cf1df5017762efa8a411b098c0ce9d92776d7edfd26c",
  "parentHash": "0x3db125877520ee21be792b4e90bacf753f3a4d9079964bc1b8de14af47c5874c",
  "number": 79840,
  "timestamp": 1439475970,
  "nonce": "0xdbda5fdce9439b76",
  "difficulty": 2354087515806,
  "gasLimit": {
    "_hex": "0x2fefd8"
  },
  "gasUsed": {
    "_hex": "0x5208"
  },
  "miner": "0xb553EA87675eF890a0318b068C2272d76c1c672C",
  "extraData": "0x",
  "transactions": [
    {
      "hash": "0x287f75d5d727ce8edc97101da0e4da65bd2e97c73379aacd4c6415feead31a55",
      "blockHash": "0x66041c3e017fa25a4ca5cf1df5017762efa8a411b098c0ce9d92776d7edfd26c",
      "blockNumber": 79840,
      "transactionIndex": 0,
      "confirmations": null,
      "from": "0x2910543Af39abA0Cd09dBb2D50200b3E800A63D2",
      "gasPrice": {
        "_hex": "0xcb30e46af"
      },
      "gasLimit": {
        "_hex": "0x5208"
      },
      "to": "0x9407764c0c02F4607Fc28A5DDBd8CD5eA8643cA3",
      "value": {
        "_hex": "0x1d4fff57248538000"
      },
      "nonce": 374,
      "data": "0x",
      "r": "0x5ee1ed1fdddedf31df6f42dd34ac39f53947fdfbeb4340bdf9e47152c0bfb53a",
      "s": "0x095a91251950596cb38477979e2db9781c74a0b6c8bef16d2de0c3db35afd393",
      "v": 27,
      "creates": null,
      "raw": "0xf86f820176850cb30e46af825208949407764c0c02f4607fc28a5ddbd8cd5ea8643ca38901d4fff57248538000801ba05ee1ed1fdddedf31df6f42dd34ac39f53947fdfbeb4340bdf9e47152c0bfb53aa0095a91251950596cb38477979e2db9781c74a0b6c8bef16d2de0c3db35afd393",
      "networkId": 0,
      "chainId": 0
    }
  ]
}