{
  "hash": "0x55283e8e258481ab3a812322e957635644ad43921d8975ef7fc767823db1bb9a",
  "parentHash": "0xd75c1cc87468d1ac7c5c6a6e3dc871bb1e9ad1d5685f6736997bc3a12c687aaa",
  "number": 51559,
  "timestamp": 1439006984,
  "nonce": "0x657f44a2930b3f4a",
  "difficulty": 1561973822860,
  "gasLimit": {
    "_hex": "0xbf238"
  },
  "gasUsed": {
    "_hex": "0x7a120"
  },
  "miner": "0xf927a40C8B7F6E07c5af7FA2155B4864a4112B13",
  "extraData": "0x476574682f76312e302e312f6c696e75782f676f312e342e32",
  "transactions": [
    {
      "hash": "0xdde60ee62d0a5ede5ef01724ec2fe3c475ea27f80ba15c7b7183e5a0a9a02130",
      "blockHash": "0x55283e8e258481ab3a812322e957635644ad43921d8975ef7fc767823db1bb9a",
      "blockNumber": 51559,
      "transactionIndex": 0,
      "confirmations": null,
      "from": "0x772839bE0F739D21E2CB761CDA4B3F49A6502481",
      "gasPrice": {
        "_hex": "0xd308fe61e"
      },
      "gasLimit": {
        "_hex": "0x7a120"
      },
      "to": "0xBAA54d6E90c3F4d7Ebec11bD180134C7eD8eBb52",
      "value": {
        "_hex": "0x16345785d8a0000"
      },
      "nonce": 1,
      "data": "0x",
      "r": "0x138098d098b9742573f96973ddae4cbff7224fa5183d54b7acd1db25cc5c2f0a",
      "s": "0x5d00a5823db264a41f6e61b99fcada194fa773d295b39a39a482cb3d5d69a5dc",
      "v": 27,
      "creates": null,
      "raw": "0xf86d01850d308fe61e8307a12094baa54d6e90c3f4d7ebec11bd180134c7ed8ebb5288016345785d8a0000801ba0138098d098b9742573f96973ddae4cbff7224fa5183d54b7acd1db25cc5c2f0aa05d00a5823db264a41f6e61b99fcada194fa773d295b39a39a482cb3d5d69a5dc",
      "networkId": 0,
      "chainId": 0
    }
  ]
}