{
  "hash": "0x72e1b1f989e339a48110b3e345ce1d51868c6b5689a31742a78c2d7b3ecb5beb",
  "parentHash": "0x78e0e0586486bd236eda184641452f515605c1ce3949a7e5084b216889bd2f9c",
  "number": 55462,
  "timestamp": 1439071074,
  "nonce": "0xa5cf80858564fa98",
  "difficulty": 1627408590895,
  "gasLimit": {
    "_hex": "0x2fefd8"
  },
  "gasUsed": {
    "_hex": "0x2f4d60"
  },
  "miner": "0x123843545FB525C8E134c9A5F15ADA6865cc3848",
  "extraData": "0x476574682f76312e302e312f77696e646f77732f676f312e342e32",
  "transactions": [
    {
      "hash": "0xfbdf9865d867798f242a96c3e947e07201f88ede2499c57aa2f5edc593012b07",
      "blockHash": "0x72e1b1f989e339a48110b3e345ce1d51868c6b5689a31742a78c2d7b3ecb5beb",
      "blockNumber": 55462,
      "transactionIndex": 0,
      "confirmations": null,
      "from": "0x8674c218F0351a62C3BA78C34FD2182A93Da94E2",
      "gasPrice": {
        "_hex": "0xba43b7400"
      },
      "gasLimit": {
        "_hex": "0x2f4d60"
      },
      "to": "0xBdeA11D5cB2558a2f25B7b90D54bf1B27E4AAa78",
      "value": {
        "_hex": "0x0"
      },
      "nonce": 61,
      "data": "0xde6f24bb0000000000000000000000008674c218f0351a62c3ba78c34fd2182a93da94e20000000000000000000000000000000000000000000000000000000000000040000000000000000000000000000000000000000000000000000000000000000d68656c6c6f323232323232322100000000000000000000000000000000000000",
      "r": "0x5db9e86b5f39744fe19066ee9e0be2ec2c90b67ffa77a8a8d650a5544cc4367c",
      "s": "0x7798dc9b7815b0b8ecdf7f838e905ae70214b75f66f2d0f349098b393276d9ef",
      "v": 28,
      "creates": null,
      "raw": "0xf8ea3d850ba43b7400832f4d6094bdea11d5cb2558a2f25b7b90d54bf1b27e4aaa7880b884de6f24bb0000000000000000000000008674c218f0351a62c3ba78c34fd2182a93da94e20000000000000000000000000000000000000000000000000000000000000040000000000000000000000000000000000000000000000000000000000000000d68656c6c6f3232323232323221000000000000000000000000000000000000001ca05db9e86b5f39744fe19066ee9e0be2ec2c90b67ffa77a8a8d650a5544cc4367ca07798dc9b7815b0b8ecdf7f838e905ae70214b75f66f2d0f349098b393276d9ef",
      "networkId": 0,
      "chainId": 0
    }
  ]
}