{
  "hash": "0xe2e56de3cc36b3b4d5fc01603bc70d10cbb83b26819e445fc3fe9ead7b114d56",
  "parentHash": "0x53af33a5f34dbca98cfd8c638f13036a7f97bbce8f24823247bc787aa0ff3e7a",
  "number": 121386,
  "timestamp": 1440176419,
  "nonce": "0x668caa31591087cd",
  "difficulty": 4384842426574,
  "gasLimit": {
    "_hex": "0x2fefd8"
  },
  "gasUsed": {
    "_hex": "0xa410"
  },
  "miner": "0xe6A7a1d47ff21B6321162AEA7C6CB457D5476Bca",
  "extraData": "0xd783010002844765746887676f312e342e32856c696e7578",
  "transactions": [
    {
      "hash": "0xd515a46e793ab0232de1b28abab7b2021cd0a8fc5f7b3919c7a54f7b3a52573e",
      "blockHash": "0xe2e56de3cc36b3b4d5fc01603bc70d10cbb83b26819e445fc3fe9ead7b114d56",
      "blockNumber": 121386,
      "transactionIndex": 0,
      "confirmations": null,
      "from": "0xBdF25376dA0767EfBF7eE3dCAe463ECe5572bFF3",
      "gasPrice": {
        "_hex": "0xdbacfaff5"
      },
      "gasLimit": {
        "_hex": "0x15f90"
      },
      "to": "0x9b0a028EAfDeCdE3AFc0fD00B7937098388b7C8a",
      "value": {
        "_hex": "0x32ba2627bbe16834f0"
      },
      "nonce": 1,
      "data": "0x",
      "r": "0xb768f2927f6109887aef14489ec3906684e36f9d6604f8f9b870e45c81e5c3b0",
      "s": "0x7d72b061789521ea6c7f59469ce9439424d23afcfdc04f019e4c6437c9a1b5a8",
      "v": 27,
      "creates": null,
      "raw": "0xf86e01850dbacfaff583015f90949b0a028eafdecde3afc0fd00b7937098388b7c8a8932ba2627bbe16834f0801ba0b768f2927f6109887aef14489ec3906684e36f9d6604f8f9b870e45c81e5c3b0a07d72b061789521ea6c7f59469ce9439424d23afcfdc04f019e4c6437c9a1b5a8",
      "networkId": 0,
      "chainId": 0
    },
    {
      "hash": "0xa21c10f3b19d5a91cd809eed758affde7fff428d6e5d3c950da106c212c66980",
      "blockHash": "0xe2e56de3cc36b3b4d5fc01603bc70d10cbb83b26819e445fc3fe9ead7b114d56",
      "blockNumber": 121386,
      "transactionIndex": 1,
      "confirmations": null,
      "from": "0x608f4b86321a68453f9adf6F06F7Fc3E621739ad",
      "gasPrice": {
        "_hex": "0xba43b7400"
      },
      "gasLimit": {
        "_hex": "0x5208"
      },
      "to": "0x32Be343B94f860124dC4fEe278FDCBD38C102D88",
      "value": {
        "_hex": "0x455fd68a17f06000"
      },
      "nonce": 99,
      "data": "0x",
      "r": "0xa16fb46e9b8285868edc1ec6d2b3372174cc13b5863a4766aadacb28b1f704ba",
      "s": "0x55dda100b98b811e106fb72a9ae6a0171177ec15ba7c468ab7ca443edd0d2884",
      "v": 27,
      "creates": null,
      "raw": "0xf86c63850ba43b74008252089432be343b94f860124dc4fee278fdcbd38c102d8888455fd68a17f06000801ba0a16fb46e9b8285868edc1ec6d2b3372174cc13b5863a4766aadacb28b1f704baa055dda100b98b811e106fb72a9ae6a0171177ec15ba7c468ab7ca443edd0d2884",
      "networkId": 0,
      "chainId": 0
    }
  ]
}