{
  "hash": "0x0e3aeac4079a578b65a850cabfdf705650fe60d7289b07138f61f52235ef9bbd",
  "parentHash": "0x33901ca56007dd654ff89d3e3fb994e82b05508314ff673b75644447a4e15bd9",
  "number": 46480,
  "timestamp": 1438923838,
  "nonce": "0x6acc0105976aad95",
  "difficulty": 1467510562623,
  "gasLimit": {
    "_hex": "0x63b0"
  },
  "gasUsed": {
    "_hex": "0x5208"
  },
  "miner": "0xbb7B8287f3F0a933474a79eAe42CBCa977791171",
  "extraData": "0x476574682f4c5649562f76312e302e312f6c696e75782f676f312e342e32",
  "transactions": [
    {
      "hash": "0x3984608c0f91c2e2702a268ae784798544680ad9318b9049d68122fed4189ebf",
      "blockHash": "0x0e3aeac4079a578b65a850cabfdf705650fe60d7289b07138f61f52235ef9bbd",
      "blockNumber": 46480,
      "transactionIndex": 0,
      "confirmations": null,
      "from": "0x9AA9205fAa68e731703c633b53FE5AF8eCe59d38",
      "gasPrice": {
        "_hex": "0x746a528800"
      },
      "gasLimit": {
        "_hex": "0x5208"
      },
      "to": "0x32Be343B94f860124dC4fEe278FDCBD38C102D88",
      "value": {
        "_hex": "0xdbb6901e53fc000"
      },
      "nonce": 0,
      "data": "0x",
      "r": "0x4a9006b645324f911f114d059c1e39cde9af1569e750324b1ad1edf814679457",
      "s": "0x789a2fd44e0a1a05ea5e65d010573c154d8d3b3063035a54ae5aa3f13d2b4d9e",
      "v": 27,
      "creates": null,
      "raw": "0xf86c8085746a5288008252089432be343b94f860124dc4fee278fdcbd38c102d88880dbb6901e53fc000801ba04a9006b645324f911f114d059c1e39cde9af1569e750324b1ad1edf814679457a0789a2fd44e0a1a05ea5e65d010573c154d8d3b3063035a54ae5aa3f13d2b4d9e",
      "networkId": 0,
      "chainId": 0
    }
  ]
}