{
  "hash": "0x3330e230ac9fc6fef008d9942bf377932c7bc1e57956204ae5645942c4ad4274",
  "parentHash": "0x47390ec9d862054314e7d173adcebbbb03e12ebaa1dfe0a6a25b45d30da46f5e",
  "number": 71693,
  "timestamp": 1439340183,
  "nonce": "0xe34b14c32c482643",
  "difficulty": 2180354894020,
  "gasLimit": {
    "_hex": "0x2fefd8"
  },
  "gasUsed": {
    "_hex": "0x5208"
  },
  "miner": "0x5F8F73E26CdF436f19Cb24C82F90A15AFe55b592",
  "extraData": "0x476574682f76312e302e312f77696e646f77732f676f312e342e32",
  "transactions": [
    {
      "hash": "0xe027b4c7189221a835e27af1371552188a0af37c38fc2956cd792953d51ef429",
      "blockHash": "0x3330e230ac9fc6fef008d9942bf377932c7bc1e57956204ae5645942c4ad4274",
      "blockNumber": 71693,
      "transactionIndex": 0,
      "confirmations": null,
      "from": "0x910a4aADabb3A7B3F7879118332E13Da66b68D77",
      "gasPrice": {
        "_hex": "0xd583909a0"
      },
      "gasLimit": {
        "_hex": "0x5208"
      },
      "to": "0x32Be343B94f860124dC4fEe278FDCBD38C102D88",
      "value": {
        "_hex": "0x8ac2dc5993746000"
      },
      "nonce": 11,
      "data": "0x",
      "r": "0xf0da6f41990caed61652abdfaeacda0efac31033a0fad7a55bfc1c98c3a60d49",
      "s": "0x080742c961c6db7f5d20fef9e75ab345ec25860a3ee85978d2f133a072fdea9e",
      "v": 27,
      "creates": null,
      "raw": "0xf86c0b850d583909a08252089432be343b94f860124dc4fee278fdcbd38c102d88888ac2dc5993746000801ba0f0da6f41990caed61652abdfaeacda0efac31033a0fad7a55bfc1c98c3a60d49a0080742c961c6db7f5d20fef9e75ab345ec25860a3ee85978d2f133a072fdea9e",
      "networkId": 0,
      "chainId": 0
    }
  ]
}