{
  "hash": "0x99da7ec5b5ac11439e07272f2d4d29dc86feeee3ec7efa6afba8cd0d07d037e5",
  "parentHash": "0xafdfa07763e03a22d66db90cdcc117a78b7d1e8b347b63391ba1c698636ede39",
  "number": 63723,
  "timestamp": 1439209121,
  "nonce": "0x17f1dcdca857317b",
  "difficulty": 1844981026775,
  "gasLimit": {
    "_hex": "0x2fefd8"
  },
  "gasUsed": {
    "_hex": "0x5208"
  },
  "miner": "0x55bAf64fc9eAccFFd7Cc643BB61142E1C6ac093e",
  "extraData": "0x",
  "transactions": [
    {
      "hash": "0x1d3cdfc1b057ab16f068ccd22958b6b2e9ead8b43436f841865bbb1c57485ca9",
      "blockHash": "0x99da7ec5b5ac11439e07272f2d4d29dc86feeee3ec7efa6afba8cd0d07d037e5",
      "blockNumber": 63723,
      "transactionIndex": 0,
      "confirmations": null,
      "from": "0x9Fa9952255B2b06639A04D63804d4BdFFf6E2d7e",
      "gasPrice": {
        "_hex": "0x10c421a41c6"
      },
      "gasLimit": {
        "_hex": "0x15f90"
      },
      "to": "0xE12517204a15E890f12755207271102F4800A0c4",
      "value": {
        "_hex": "0xde0b6b3a7640000"
      },
      "nonce": 0,
      "data": "0x",
      "r": "0x3f0b3566dccfb005accb9b93b3234d78afe445ca25aa3889351012c16bc2e6bc",
      "s": "0x30caae6ce5a91cd70dea9f1a1cbddfb9a0f34db655283ad9681961a3b223c634",
      "v": 27,
      "creates": null,
      "raw": "0xf86e8086010c421a41c683015f9094e12517204a15e890f12755207271102f4800a0c4880de0b6b3a7640000801ba03f0b3566dccfb005accb9b93b3234d78afe445ca25aa3889351012c16bc2e6bca030caae6ce5a91cd70dea9f1a1cbddfb9a0f34db655283ad9681961a3b223c634",
      "networkId": 0,
      "chainId": 0
    }
  ]
}