{
  "hash": "0xb194b6aa8e1aaee16d447a9eca42315cfd295a4161f42dd97ac7b697357a3de4",
  "parentHash": "0xdf20d9c46bf9cef5cb39694205c80520b580da079ab4994a69e41e02c6c7c285",
  "number": 114664,
  "timestamp": 1440044241,
  "nonce": "0x9aeb686561ce8d75",
  "difficulty": 4483658722128,
  "gasLimit": {
    "_hex": "0x2fefd8"
  },
  "gasUsed": {
    "_hex": "0x546c"
  },
  "miner": "0x9746c7e1ef2bd21FF3997fa467593a89cb852BD0",
  "extraData": "0x476574682f76312e302e312f77696e646f77732f676f312e342e32",
  "transactions": [
    {
      "hash": "0x8f82f3e5147b4efa999be364d1b05aea25cc5d4f7437ba32b4c424d3fa289d7c",
      "blockHash": "0xb194b6aa8e1aaee16d447a9eca42315cfd295a4161f42dd97ac7b697357a3de4",
      "blockNumber": 114664,
      "transactionIndex": 0,
      "confirmations": null,
      "from": "0xb2e9D76bf50Fc36bf7d3944b63e9Ca889b699968",
      "gasPrice": {
        "_hex": "0xd73356503"
      },
      "gasLimit": {
        "_hex": "0x55f0"
      },
      "to": "0x2910543Af39abA0Cd09dBb2D50200b3E800A63D2",
      "value": {
        "_hex": "0x2e9e3b3bc76eb80000"
      },
      "nonce": 1,
      "data": "0x454e39355536564d52",
      "r": "0xd5772fb4a079dc8e6bcef10be15a0a0342764556a906c26a92ed41ffe4626ae2",
      "s": "0x3026ec619b7da368da903099c3037f1f367cea3a9112a34a5b9a497338f1d99e",
      "v": 28,
      "creates": null,
      "raw": "0xf87601850d733565038255f0942910543af39aba0cd09dbb2d50200b3e800a63d2892e9e3b3bc76eb8000089454e39355536564d521ca0d5772fb4a079dc8e6bcef10be15a0a0342764556a906c26a92ed41ffe4626ae2a03026ec619b7da368da903099c3037f1f367cea3a9112a34a5b9a497338f1d99e",
      "networkId": 0,
      "chainId": 0
    }
  ]
}