{
  "hash": "0xbdc061e3ed38a6cdbe66812e4c4926a0c939e9ec827dd2d2387e0748280ab12a",
  "parentHash": "0x1dafac46abb9e626c6c10f88bd9f0587101d016edc651e5a8162728035a9b7c2",
  "number": 115597,
  "timestamp": 1440059895,
  "nonce": "0xafc3105f55c746bb",
  "difficulty": 4600693615895,
  "gasLimit": {
    "_hex": "0x2fefd8"
  },
  "gasUsed": {
    "_hex": "0x5208"
  },
  "miner": "0xf927a40C8B7F6E07c5af7FA2155B4864a4112B13",
  "extraData": "0x",
  "transactions": [
    {
      "hash": "0x3ffa6384d4ef2044045be653d9ae50a43bef9ac0b4c1a3bda008f1be78b33730",
      "blockHash": "0xbdc061e3ed38a6cdbe66812e4c4926a0c939e9ec827dd2d2387e0748280ab12a",
      "blockNumber": 115597,
      "transactionIndex": 0,
      "confirmations": null,
      "from": "0xa70a9a7040d542C632D8e0bE7c5513A8a5Bbc752",
      "gasPrice": {
        "_hex": "0xd716654b0"
      },
      "gasLimit": {
        "_hex": "0x5208"
      },
      "to": "0x32Be343B94f860124dC4fEe278FDCBD38C102D88",
      "value": {
        "_hex": "0x34065e6334048000"
      },
      "nonce": 310,
      "data": "0x",
      "r": "0x6c00fbfb51c84e4265c4e89d2cf3160b106a8eed6704beaba0179026f56a2109",
      "s": "0x50222ba729fa192efbe05eb3579e4c8de004dcf8f43d48a88de56d0f94878888",
      "v": 27,
      "creates": null,
      "raw": "0xf86e820136850d716654b08252089432be343b94f860124dc4fee278fdcbd38c102d888834065e6334048000801ba06c00fbfb51c84e4265c4e89d2cf3160b106a8eed6704beaba0179026f56a2109a050222ba729fa192efbe05eb3579e4c8de004dcf8f43d48a88de56d0f94878888",
      "networkId": 0,
      "chainId": 0
    }
  ]
}