{
  "hash": "0xc99f5601c9cba263f1a9aae9fd214110c7b5497984b57c507d47cf838ffb8911",
  "parentHash": "0x4a0fa4e4eb9d72c3459a9189bbd6b79bc6d68929c363a5fda9659bd8c9786224",
  "number": 96027,
  "timestamp": 1439733782,
  "nonce": "0xc48f8d2284df84cf",
  "difficulty": 3630179778479,
  "gasLimit": {
    "_hex": "0x2fefd8"
  },
  "gasUsed": {
    "_hex": "0x5d9f"
  },
  "miner": "0xB63A725D56AA79935ac2a1182Eba0004f22Be610",
  "extraData": "0x476574682f76312e302e312f6c696e75782f676f312e342e32",
  "transactions": [
    {
      "hash": "0xdb7b982bfaa6ff533f05e0bd596cadf699aee064f7ad01ec5f5133872967eced",
      "blockHash": "0xc99f5601c9cba263f1a9aae9fd214110c7b5497984b57c507d47cf838ffb8911",
      "blockNumber": 96027,
      "transactionIndex": 0,
      "confirmations": null,
      "from": "0x3A9E5441D44b243Be55B75027a1cEB9eAcf50dF2",
      "gasPrice": {
        "_hex": "0xdf0b0bdc0"
      },
      "gasLimit": {
        "_hex": "0x15f90"
      },
      "to": "0xCAc7000C7dBaa2E33Af15325AF5D435E011C7BdD",
      "value": {
        "_hex": "0xad50e6d026c237160"
      },
      "nonce": 7,
      "data": "0xb214faa55845354f41333453470000000000000000000000000000000000000000000000",
      "r": "0xade40356bdb2b44edadd10bfee6d733d8a1ba90c1c512964daaa9e1679763608",
      "s": "0x2d4f9cf743d67972f196fdbdbc9bf694beaecfebdad6b22600840eb3b10b379e",
      "v": 27,
      "creates": null,
      "raw": "0xf89207850df0b0bdc083015f9094cac7000c7dbaa2e33af15325af5d435e011c7bdd890ad50e6d026c237160a4b214faa55845354f413334534700000000000000000000000000000000000000000000001ba0ade40356bdb2b44edadd10bfee6d733d8a1ba90c1c512964daaa9e1679763608a02d4f9cf743d67972f196fdbdbc9bf694beaecfebdad6b22600840eb3b10b379e",
      "networkId": 0,
      "chainId": 0
    }
  ]
}