{
  "hash": "0x3b489a4929ae1b186cf874da971f2afa46f19b91002027c869e9572e43c72f59",
  "parentHash": "0x6bdf8888d698e08c2b638cc8af5e373ce38be1fde5e40015562534d025fdfbc8",
  "number": 82972,
  "timestamp": 1439527810,
  "nonce": "0xf04b752f00767806",
  "difficulty": 2413723193867,
  "gasLimit": {
    "_hex": "0x2fefd8"
  },
  "gasUsed": {
    "_hex": "0x19a28"
  },
  "miner": "0xe6A7a1d47ff21B6321162AEA7C6CB457D5476Bca",
  "extraData": "0x476574682f76312e302e312d38326566323666362f6c696e75782f676f312e34",
  "transactions": [
    {
      "hash": "0x8a1f0eb0e77dd640c3fbf9f1310d16598d5a808ee04c4c6df7f4a05e09ffabd6",
      "blockHash": "0x3b489a4929ae1b186cf874da971f2afa46f19b91002027c869e9572e43c72f59",
      "blockNumber": 82972,
      "transactionIndex": 0,
      "confirmations": null,
      "from": "0x2910543Af39abA0Cd09dBb2D50200b3E800A63D2",
      "gasPrice": {
        "_hex": "0xdd93ae607"
      },
      "gasLimit": {
        "_hex": "0x5208"
      },
      "to": "0x56762748Fc88C780502570997F1Bbace6fD5b691",
      "value": {
        "_hex": "0xdcef33a6f838000"
      },
      "nonce": 518,
      "data": "0x",
      "r": "0x504d9200c778798d86c2b503fa4d890e05a7adfac193830afdd49499728f64e4",
      "s": "0x7441e663f0552519ad8b10c040d5fe16d8b201ee9882d4f4e7a50e988d8adbc2",
      "v": 28,
      "creates": null,
      "raw": "0xf86e820206850dd93ae6078252089456762748fc88c780502570997f1bbace6fd5b691880dcef33a6f838000801ca0504d9200c778798d86c2b503fa4d890e05a7adfac193830afdd49499728f64e4a07441e663f0552519ad8b10c040d5fe16d8b201ee9882d4f4e7a50e988d8adbc2",
      "networkId": 0,
      "chainId": 0
    },
    {
      "hash": "0x96f3a379a642ae1562522f10cc8a14b16bcdf4116d71c357f384e188dd60daef",
      "blockHash": "0x3b489a4929ae1b186cf874da971f2afa46f19b91002027c869e9572e43c72f59",
      "blockNumber": 82972,
      "transactionIndex": 1,
      "confirmations": null,
      "from": "0x04a2a3ee9C9ea82e1F918ecE209f8A7E6d7521E7",
      "gasPrice": {
        "_hex": "0xdcc714220"
      },
      "gasLimit": {
        "_hex": "0x5208"
      },
      "to": "0x32Be343B94f860124dC4fEe278FDCBD38C102D88",
      "value": {
        "_hex": "0x1115ffea2b9f78000"
      },
      "nonce": 5,
      "data": "0x",
      "r": "0x718fb9d6f55fb26bddd41b2abd6c00d4d06f3cf5860be83001b4f883bbed679d",
      "s": "0x59a5f4545eb8b8eabd944216a22ae4945b3095ee1516690f78e593c10caa0864",
      "v": 28,
      "creates": null,
      "raw": "0xf86d05850dcc7142208252089432be343b94f860124dc4fee278fdcbd38c102d888901115ffea2b9f78000801ca0718fb9d6f55fb26bddd41b2abd6c00d4d06f3cf5860be83001b4f883bbed679da059a5f4545eb8b8eabd944216a22ae4945b3095ee1516690f78e593c10caa0864",
      "networkId": 0,
      "chainId": 0
    },
    {
      "hash": "0xca5f8ddae7793ab6560ccc3ebadec9d9156c5757e333c4709b5c3286b105c93d",
      "blockHash": "0x3b489a4929ae1b186cf874da971f2afa46f19b91002027c869e9572e43c72f59",
      "blockNumber": 82972,
      "transactionIndex": 2,
      "confirmations": null,
      "from": "0x32Be343B94f860124dC4fEe278FDCBD38C102D88",
      "gasPrice": {
        "_hex": "0xdcc714220"
      },
      "gasLimit": {
        "_hex": "0x5208"
      },
      "to": "0xc93a69dFC0fb3E867D9207599f7fe87d51619635",
      "value": {
        "_hex": "0x1b9de674df070000"
      },
      "nonce": 637,
      "data": "0x",
      "r": "0x19efa13e5c97be0478d1c2b75b4e0e42e0e8a3d7cc93e323f6374c36db89a739",
      "s": "0x22ebf045ecab16324d3fc1fcb73682cbd74ebf93d260772bb0e923b0e5cb7a8d",
      "v": 27,
      "creates": null,
      "raw": "0xf86e82027d850dcc71422082520894c93a69dfc0fb3e867d9207599f7fe87d51619635881b9de674df070000801ba019efa13e5c97be0478d1c2b75b4e0e42e0e8a3d7cc93e323f6374c36db89a739a022ebf045ecab16324d3fc1fcb73682cbd74ebf93d260772bb0e923b0e5cb7a8d",
      "networkId": 0,
      "chainId": 0
    },
    {
      "hash": "0x8b878ee91d7f5a69abf39c1402288aaa139524e029e0ba42db7780b17f43ddcd",
      "blockHash": "0x3b489a4929ae1b186cf874da971f2afa46f19b91002027c869e9572e43c72f59",
      "blockNumber": 82972,
      "transactionIndex": 3,
      "confirmations": null,
      "from": "0xa70a9a7040d542C632D8e0bE7c5513A8a5Bbc752",
      "gasPrice": {
        "_hex": "0xdcc714220"
      },
      "gasLimit": {
        "_hex": "0x5208"
      },
      "to": "0x32Be343B94f860124dC4fEe278FDCBD38C102D88",
      "value": {
        "_hex": "0x455f259690406000"
      },
      "nonce": 67,
      "data": "0x",
      "r": "0x9418e0e74ec8607ea9e7daeb71d78e719fcab6ce3f9d3e7071957e228c789ef9",
      "s": "0x46b546ec14d4cf9f015c296c926b4fe02703fea9435917362f03dd6c9ad8e08a",
      "v": 28,
      "creates": null,
      "raw": "0xf86c43850dcc7142208252089432be343b94f860124dc4fee278fdcbd38c102d8888455f259690406000801ca09418e0e74ec8607ea9e7daeb71d78e719fcab6ce3f9d3e7071957e228c789ef9a046b546ec14d4cf9f015c296c926b4fe02703fea9435917362f03dd6c9ad8e08a",
      "networkId": 0,
      "chainId": 0
    },
    {
      "hash": "0x6812646cf7f670f6c80b3d0d230f23d73cb9887ffaffd189535364a91990a37f",
      "blockHash": "0x3b489a4929ae1b186cf874da971f2afa46f19b91002027c869e9572e43c72f59",
      "blockNumber": 82972,
      "transactionIndex": 4,
      "confirmations": null,
      "from": "0x4407C1fD881eDb12aC8281c8d4182042bdDD377B",
      "gasPrice": {
        "_hex": "0xdcc714220"
      },
      "gasLimit": {
        "_hex": "0x5208"
      },
      "to": "0x32Be343B94f860124dC4fEe278FDCBD38C102D88",
      "value": {
        "_hex": "0x3635c541da29ec0000"
      },
      "nonce": 0,
      "data": "0x",
      "r": "0x6b264a615ed08c85f36b0e716b83f21045da8e22e75a50f3420f113cc09e7de3",
      "s": "0x0cbfa4eb9afdf9399bfedc07bc7dcc250a365309001efa0d6f07b779f98c318e",
      "v": 28,
      "creates": null,
      "raw": "0xf86d80850dcc7142208252089432be343b94f860124dc4fee278fdcbd38c102d88893635c541da29ec0000801ca06b264a615ed08c85f36b0e716b83f21045da8e22e75a50f3420f113cc09e7de3a00cbfa4eb9afdf9399bfedc07bc7dcc250a365309001efa0d6f07b779f98c318e",
      "networkId": 0,
      "chainId": 0
    }
  ]
}