{
  "hash": "0x2f213de12a8ec749ed2d948a1e02037720baf3f0ed32f0218c4d720569a0c26f",
  "parentHash": "0x08cf1fc9c4d5415a9be9d8a94e410dfdd3135fdbc44d8c4d8bcac675bb2e0e74",
  "number": 87745,
  "timestamp": 1439596781,
  "nonce": "0xf5ef003aa157006b",
  "difficulty": 3175622984208,
  "gasLimit": {
    "_hex": "0x2fefd8"
  },
  "gasUsed": {
    "_hex": "0x546c"
  },
  "miner": "0xe6A7a1d47ff21B6321162AEA7C6CB457D5476Bca",
  "extraData": "0x476574682f76312e302e312d38326566323666362f6c696e75782f676f312e34",
  "transactions": [
    {
      "hash": "0xaaca305aed0b5ba112571396c2280b6a6c9e497ddddf316930dc37427106d4ba",
      "blockHash": "0x2f213de12a8ec749ed2d948a1e02037720baf3f0ed32f0218c4d720569a0c26f",
      "blockNumber": 87745,
      "transactionIndex": 0,
      "confirmations": null,
      "from": "0x7b1fe1ab4Dfd0088CDD7F60163Ef59ec2aee06f5",
      "gasPrice": {
        "_hex": "0x110c8f7d8de"
      },
      "gasLimit": {
        "_hex": "0xc350"
      },
      "to": "0x2910543Af39abA0Cd09dBb2D50200b3E800A63D2",
      "value": {
        "_hex": "0x6c4fd1ee246e780000"
      },
      "nonce": 1,
      "data": "0x454e5551504d373438",
      "r": "0xd132a8e9160b19bb5dd2d6225b345c63df5236eb72c39c8ccd4208c0c79de3c9",
      "s": "0x370ad3e0cf4a4ebfdc053a89c3537240dae81a00dbddeb6319761a76068e471b",
      "v": 27,
      "creates": null,
      "raw": "0xf87701860110c8f7d8de82c350942910543af39aba0cd09dbb2d50200b3e800a63d2896c4fd1ee246e78000089454e5551504d3734381ba0d132a8e9160b19bb5dd2d6225b345c63df5236eb72c39c8ccd4208c0c79de3c9a0370ad3e0cf4a4ebfdc053a89c3537240dae81a00dbddeb6319761a76068e471b",
      "networkId": 0,
      "chainId": 0
    }
  ]
}