{
  "hash": "0xdbb04150e1b01c547cb6048ee5d6766ed812dc00c042b097d8d31c6ca0784750",
  "parentHash": "0xd2fce389a12ca634f2e11c2046a71a33e5214bd51c5e82ab7c5597d4413c9ec4",
  "number": 122040,
  "timestamp": 1440187096,
  "nonce": "0xde0d43ee32a03f81",
  "difficulty": 4466613059522,
  "gasLimit": {
    "_hex": "0x2fefd8"
  },
  "gasUsed": {
    "_hex": "0xa410"
  },
  "miner": "0xbb7B8287f3F0a933474a79eAe42CBCa977791171",
  "extraData": "0xd783010003844765746887676f312e342e32856c696e7578",
  "transactions": [
    {
      "hash": "0x1a93e7a129a4405fb5bac9f3f912df91befc15d0bec03b60005722d4716e4cc1",
      "blockHash": "0xdbb04150e1b01c547cb6048ee5d6766ed812dc00c042b097d8d31c6ca0784750",
      "blockNumber": 122040,
      "transactionIndex": 0,
      "confirmations": null,
      "from": "0x2910543Af39abA0Cd09dBb2D50200b3E800A63D2",
      "gasPrice": {
        "_hex": "0xdcde7456d"
      },
      "gasLimit": {
        "_hex": "0x5208"
      },
      "to": "0xa99607CA6dA11D4A501e3a0213d905556f370B23",
      "value": {
        "_hex": "0x53b231b3f61518000"
      },
      "nonce": 1209,
      "data": "0x",
      "r": "0xfe79c9c6615bdd72962b6abdc9ee7acb81b35293259a912d467a840f53a9eb83",
      "s": "0x29ed22c3af98c72edcc15eaf4371191b65deb9cd188808bcacd1fffd0c5b814a",
      "v": 27,
      "creates": null,
      "raw": "0xf86f8204b9850dcde7456d82520894a99607ca6da11d4a501e3a0213d905556f370b2389053b231b3f61518000801ba0fe79c9c6615bdd72962b6abdc9ee7acb81b35293259a912d467a840f53a9eb83a029ed22c3af98c72edcc15eaf4371191b65deb9cd188808bcacd1fffd0c5b814a",
      "networkId": 0,
      "chainId": 0
    },
    {
      "hash": "0xcb2e9fc88b698165f65685b9b0ee5e41f828d468c1cbe03990ffb3b2e93a01de",
      "blockHash": "0xdbb04150e1b01c547cb6048ee5d6766ed812dc00c042b097d8d31c6ca0784750",
      "blockNumber": 122040,
      "transactionIndex": 1,
      "confirmations": null,
      "from": "0x2910543Af39abA0Cd09dBb2D50200b3E800A63D2",
      "gasPrice": {
        "_hex": "0xdcde7456d"
      },
      "gasLimit": {
        "_hex": "0x5208"
      },
      "to": "0xee8bB0274117C9A1D3695E19bea188c382EC1A8E",
      "value": {
        "_hex": "0x22b0ac898efbf8000"
      },
      "nonce": 1210,
      "data": "0x",
      "r": "0x1769206de2ab8ec523233289f4c38eda81982ddae97d8c32875ed3116b9c000f",
      "s": "0x19211f181a99092acfcfc1bd90020453c659ec48dd83c2284329eb6101affe2f",
      "v": 27,
      "creates": null,
      "raw": "0xf86f8204ba850dcde7456d82520894ee8bb0274117c9a1d3695e19bea188c382ec1a8e89022b0ac898efbf8000801ba01769206de2ab8ec523233289f4c38eda81982ddae97d8c32875ed3116b9c000fa019211f181a99092acfcfc1bd90020453c659ec48dd83c2284329eb6101affe2f",
      "networkId": 0,
      "chainId": 0
    }
  ]
}