{
  "hash": "0x9dad346b524fe3443674ff7df43365c38e682a87f1253e12aa5c4d5432a27048",
  "parentHash": "0xe75e63a4f4f7b2d08f6cdffba7246f7191116f275eec5032196be5ec10d6be3a",
  "number": 91092,
  "timestamp": 1439650482,
  "nonce": "0x2466e32cd85b5027",
  "difficulty": 3423928016353,
  "gasLimit": {
    "_hex": "0x2fefd8"
  },
  "gasUsed": {
    "_hex": "0x5208"
  },
  "miner": "0xe6A7a1d47ff21B6321162AEA7C6CB457D5476Bca",
  "extraData": "0x476574682f76312e302e312d38326566323666362f6c696e75782f676f312e34",
  "transactions": [
    {
      "hash": "0x9ac5f8ada6c3c7d39e97b247fa70382b67129dc4e65cb67f48d0c75274728458",
      "blockHash": "0x9dad346b524fe3443674ff7df43365c38e682a87f1253e12aa5c4d5432a27048",
      "blockNumber": 91092,
      "transactionIndex": 0,
      "confirmations": null,
      "from": "0x120A270bbC009644e35F0bB6ab13f95b8199c4ad",
      "gasPrice": {
        "_hex": "0xe06ab1551"
      },
      "gasLimit": {
        "_hex": "0x3d090"
      },
      "to": "0x80E03eAb4185068f85f9eC2a65c31bdE6Ed0A097",
      "value": {
        "_hex": "0x1bc16d674ec80000"
      },
      "nonce": 530,
      "data": "0x",
      "r": "0xe1c42ee9cc208d047000803a0d1d81136d73479993bfd98f71b433073ab61c2f",
      "s": "0x0951ba57bff4e6e8d3848e66d54212d2088393e81429175c24a175db6c74641a",
      "v": 28,
      "creates": null,
      "raw": "0xf86f820212850e06ab15518303d0909480e03eab4185068f85f9ec2a65c31bde6ed0a097881bc16d674ec80000801ca0e1c42ee9cc208d047000803a0d1d81136d73479993bfd98f71b433073ab61c2fa00951ba57bff4e6e8d3848e66d54212d2088393e81429175c24a175db6c74641a",
      "networkId": 0,
      "chainId": 0
    }
  ]
}