{
  "hash": "0x11e9ecf0bca441f8563cae25b11b004b513380b6341edec7b25a97fa24c17d6d",
  "parentHash": "0x4cd52f2779445343454c2125918ee9de193763de59a9f672dd035f587adc37e1",
  "number": 86189,
  "timestamp": 1439574899,
  "nonce": "0x7195ef767a79ef09",
  "difficulty": 2808477252773,
  "gasLimit": {
    "_hex": "0x2fefd8"
  },
  "gasUsed": {
    "_hex": "0xa410"
  },
  "miner": "0xf927a40C8B7F6E07c5af7FA2155B4864a4112B13",
  "extraData": "0x",
  "transactions": [
    {
      "hash": "0x3d34619f0f01d78a30865a243e8aab83e71058dd6c1795cae15ce940cb8c0c0c",
      "blockHash": "0x11e9ecf0bca441f8563cae25b11b004b513380b6341edec7b25a97fa24c17d6d",
      "blockNumber": 86189,
      "transactionIndex": 0,
      "confirmations": null,
      "from": "0x3F587446d527E3a66c695E46D735838500fA92fe",
      "gasPrice": {
        "_hex": "0xd63244c64"
      },
      "gasLimit": {
        "_hex": "0x15f90"
      },
      "to": "0x19D182e96Fd7EeAE2cd0c0280cF63a7E01B6184a",
      "value": {
        "_hex": "0x38d7ea4c680000"
      },
      "nonce": 5,
      "data": "0x",
      "r": "0x62e0c1435b077c188549e3f5581d48a5e845e53565601f63be65ee2c099e27a5",
      "s": "0x21a44673f48c94f301f1b17f7bd657822eae7eb912d252f079cf9a5b269a55f2",
      "v": 28,
      "creates": null,
      "raw": "0xf86c05850d63244c6483015f909419d182e96fd7eeae2cd0c0280cf63a7e01b6184a8738d7ea4c680000801ca062e0c1435b077c188549e3f5581d48a5e845e53565601f63be65ee2c099e27a5a021a44673f48c94f301f1b17f7bd657822eae7eb912d252f079cf9a5b269a55f2",
      "networkId": 0,
      "chainId": 0
    },
    {
      "hash": "0x95ac65026e35790b6a125959b692bbc2484bd56ea7a2a36559bd8bfed8ac616a",
      "blockHash": "0x11e9ecf0bca441f8563cae25b11b004b513380b6341edec7b25a97fa24c17d6d",
      "blockNumber": 86189,
      "transactionIndex": 1,
      "confirmations": null,
      "from": "0xB12eD07b8a38AD5506363fC07a0b6d799936bDaF",
      "gasPrice": {
        "_hex": "0xd51a4e929"
      },
      "gasLimit": {
        "_hex": "0x15f90"
      },
      "to": "0x04936E4b4AE7a0F12Eb3677c2389e5DBDd514d89",
      "value": {
        "_hex": "0x10f0cf064dd59200000"
      },
      "nonce": 1,
      "data": "0x",
      "r": "0x4b0605dfdcbd49b44b1beff4d635da938856d3d1e72bcfd4c987737553bdd9ff",
      "s": "0x2a230e1b142e2cf598387dfc597889c1c33477c149a4fad2858dcb0aa90b36ee",
      "v": 27,
      "creates": null,
      "raw": "0xf86f01850d51a4e92983015f909404936e4b4ae7a0f12eb3677c2389e5dbdd514d898a010f0cf064dd59200000801ba04b0605dfdcbd49b44b1beff4d635da938856d3d1e72bcfd4c987737553bdd9ffa02a230e1b142e2cf598387dfc597889c1c33477c149a4fad2858dcb0aa90b36ee",
      "networkId": 0,
      "chainId": 0
    }
  ]
}