{
  "hash": "0xb747c1cb937d750ab5445d8c6402be32916bc64154bf507569c331f21a397b22",
  "parentHash": "0x992de104390b051992b9733c0374286dc38b1246fae8ee885085a9fe130ca6f6",
  "number": 104903,
  "timestamp": 1439878088,
  "nonce": "0x5d33a101b94f225a",
  "difficulty": 4335925241678,
  "gasLimit": {
    "_hex": "0x2fefd8"
  },
  "gasUsed": {
    "_hex": "0x5208"
  },
  "miner": "0xe6A7a1d47ff21B6321162AEA7C6CB457D5476Bca",
  "extraData": "0x476574682f76312e302e312d38326566323666362f6c696e75782f676f312e34",
  "transactions": [
    {
      "hash": "0xc7533dd8828c7dc0ef6167b15c852f3f93fc86a4fe7662cab4810a6ee8f02c4b",
      "blockHash": "0xb747c1cb937d750ab5445d8c6402be32916bc64154bf507569c331f21a397b22",
      "blockNumber": 104903,
      "transactionIndex": 0,
      "confirmations": null,
      "from": "0x007f7f58D3eb5b7510A301eCC749FC1fCDDBE14D",
      "gasPrice": {
        "_hex": "0xe0cfe7246"
      },
      "gasLimit": {
        "_hex": "0x15f90"
      },
      "to": "0xb1abce2918E21ddb93AA452731a12672A3d9F75a",
      "value": {
        "_hex": "0x4563918244f40000"
      },
      "nonce": 242,
      "data": "0x",
      "r": "0x54fcec16ed87eba59aacecc5609c7326be245855c7312e03517b4129b27250e1",
      "s": "0x11605592b9dca18ad3e723f99ce9dfb6831dc27e1acf30365219d1ab1d1eecef",
      "v": 27,
      "creates": null,
      "raw": "0xf86e81f2850e0cfe724683015f9094b1abce2918e21ddb93aa452731a12672a3d9f75a884563918244f40000801ba054fcec16ed87eba59aacecc5609c7326be245855c7312e03517b4129b27250e1a011605592b9dca18ad3e723f99ce9dfb6831dc27e1acf30365219d1ab1d1eecef",
      "networkId": 0,
      "chainId": 0
    }
  ]
}