{
  "hash": "0x3c817d205811f580b3db0fd9332a4573792b39c8749cb1090e1862cffc2a8de5",
  "parentHash": "0xaeb4214bb69a9a700501ee9cb62fc60a8b558c5a5d3f6736e78ea2f2557a0d28",
  "number": 68376,
  "timestamp": 1439286820,
  "nonce": "0x672157b77540af74",
  "difficulty": 2020253328952,
  "gasLimit": {
    "_hex": "0x2fefd8"
  },
  "gasUsed": {
    "_hex": "0x5208"
  },
  "miner": "0x88D74a59454F6cF3B51ef6b9136AFb6b9D405A88",
  "extraData": "0x476574682f76312e302e312d37666266393930632f6c696e75782f676f312e34",
  "transactions": [
    {
      "hash": "0x587b503ed9d22079634b1b39e6233921aac17c8646f6b3d4cc13cf7f93d5167c",
      "blockHash": "0x3c817d205811f580b3db0fd9332a4573792b39c8749cb1090e1862cffc2a8de5",
      "blockNumber": 68376,
      "transactionIndex": 0,
      "confirmations": null,
      "from": "0x6747f922385c9a6F9cfDf095F34345257DD597bE",
      "gasPrice": {
        "_hex": "0xba43b7400"
      },
      "gasLimit": {
        "_hex": "0x5208"
      },
      "to": "0x2184B657a1010bC92b08E6326f75B57166722EE2",
      "value": {
        "_hex": "0x1fcbfa42bd6000"
      },
      "nonce": 68,
      "data": "0x",
      "r": "0x9935963af70bda38596030cebf6f7dbc033af8c7573e7c072c5bd47b8281c306",
      "s": "0x26422418135cc2825326e8077b7e07622a0bb378b9fe310b6d49f1c56699b2b7",
      "v": 28,
      "creates": null,
      "raw": "0xf86b44850ba43b7400825208942184b657a1010bc92b08e6326f75b57166722ee2871fcbfa42bd6000801ca09935963af70bda38596030cebf6f7dbc033af8c7573e7c072c5bd47b8281c306a026422418135cc2825326e8077b7e07622a0bb378b9fe310b6d49f1c56699b2b7",
      "networkId": 0,
      "chainId": 0
    }
  ]
}