{
  "hash": "0xf11000b059e2ea5e8d48cef1690368ecae1c0d84b0d9384e934c820d4a573abd",
  "parentHash": "0x6f40dd80430ea1fa73f06452cdb7b24056dcaa075601129613e7b10ae8828208",
  "number": 106822,
  "timestamp": 1439911241,
  "nonce": "0x8b3cb1359004fffe",
  "difficulty": 4418274478074,
  "gasLimit": {
    "_hex": "0x2fefd8"
  },
  "gasUsed": {
    "_hex": "0x179ff"
  },
  "miner": "0xe6A7a1d47ff21B6321162AEA7C6CB457D5476Bca",
  "extraData": "0x476574682f76312e302e312d38326566323666362f6c696e75782f676f312e34",
  "transactions": [
    {
      "hash": "0x82908e653543c0392592533d20e9cc93490ad475beff20caaa7e9561fc0ae395",
      "blockHash": "0xf11000b059e2ea5e8d48cef1690368ecae1c0d84b0d9384e934c820d4a573abd",
      "blockNumber": 106822,
      "transactionIndex": 0,
      "confirmations": null,
      "from": "0x87C5B5874A18B4306DF8a752a6C8cc3E82daFc19",
      "gasPrice": {
        "_hex": "0x10b012a1b05"
      },
      "gasLimit": {
        "_hex": "0x493e0"
      },
      "to": "0xD79B4C6791784184e2755B2fC1659eaaB0f80456",
      "value": {
        "_hex": "0xe519881c24a6dde"
      },
      "nonce": 358,
      "data": "0x8d2161860000000000000000000000000000000000000000000000000000000000000007d3d96ceed0cfca4794c2a5a3d3aeefe69da0a2a669e66a5651f30b64831c3db0",
      "r": "0x87afa0225384c20734015a8f49f324582f3ff9a364d1685ffa35ac85caf4de1e",
      "s": "0x10f7522df1111b4308fc338031ac415017ea36e3620369f57a387a7d47a39244",
      "v": 27,
      "creates": null,
      "raw": "0xf8b582016686010b012a1b05830493e094d79b4c6791784184e2755b2fc1659eaab0f80456880e519881c24a6ddeb8448d2161860000000000000000000000000000000000000000000000000000000000000007d3d96ceed0cfca4794c2a5a3d3aeefe69da0a2a669e66a5651f30b64831c3db01ba087afa0225384c20734015a8f49f324582f3ff9a364d1685ffa35ac85caf4de1ea010f7522df1111b4308fc338031ac415017ea36e3620369f57a387a7d47a39244",
      "networkId": 0,
      "chainId": 0
    }
  ]
}