{
  "hash": "0x09104f1352b497971c5286f83b94c16e507ef604b5da2938133e4c7b799128c0",
  "parentHash": "0xb4eeba46dc6db4a5b1e0f92cc48e4629430a961bfeb88d13630916a155432017",
  "number": 119702,
  "timestamp": 1440147416,
  "nonce": "0x185b9680b0a8b10f",
  "difficulty": 4385722765332,
  "gasLimit": {
    "_hex": "0x2fefd8"
  },
  "gasUsed": {
    "_hex": "0x5208"
  },
  "miner": "0x580992B51e3925e23280EfB93d3047C82f17E038",
  "extraData": "0x",
  "transactions": [
    {
      "hash": "0x149190afa159bcf51c3519d35e7febb5cd20310c6e421ca251b0799d6bd30b8b",
      "blockHash": "0x09104f1352b497971c5286f83b94c16e507ef604b5da2938133e4c7b799128c0",
      "blockNumber": 119702,
      "transactionIndex": 0,
      "confirmations": null,
      "from": "0x32Be343B94f860124dC4fEe278FDCBD38C102D88",
      "gasPrice": {
        "_hex": "0xba43b7400"
      },
      "gasLimit": {
        "_hex": "0x5208"
      },
      "to": "0x6bADA45e56f1e8705AAB08bd2B2414ae5688e511",
      "value": {
        "_hex": "0x470de4df820000"
      },
      "nonce": 1514,
      "data": "0x",
      "r": "0x431014b0d837c6a8e05d76383a9eba6ce5854d6cd1400659bc7122fe035d7d78",
      "s": "0x781a31617a5f766e05c518bbbaa2e53549c06eabec054d17ceb38971026d2e52",
      "v": 28,
      "creates": null,
      "raw": "0xf86d8205ea850ba43b7400825208946bada45e56f1e8705aab08bd2b2414ae5688e51187470de4df820000801ca0431014b0d837c6a8e05d76383a9eba6ce5854d6cd1400659bc7122fe035d7d78a0781a31617a5f766e05c518bbbaa2e53549c06eabec054d17ceb38971026d2e52",
      "networkId": 0,
      "chainId": 0
    }
  ]
}