{
  "hash": "0xcca420f59a3a06b3bab38b8cea50b4741505580481f81b903e5a99dd21937071",
  "parentHash": "0x91216991b30378b65c0cab3904c9c0733cbdeeb0171e3c1a817cb53bfed32cd1",
  "number": 80666,
  "timestamp": 1439488916,
  "nonce": "0xa8f96d61326fd743",
  "difficulty": 2428575135106,
  "gasLimit": {
    "_hex": "0x2fefd5"
  },
  "gasUsed": {
    "_hex": "0x546c"
  },
  "miner": "0x007f7f58D3eb5b7510A301eCC749FC1fCDDBE14D",
  "extraData": "0x476574682f76312e302e312f77696e646f77732f676f312e342e32",
  "transactions": [
    {
      "hash": "0xf186dade960767731983fb71deedf76c299b875e450b023ef47173a6fecfc123",
      "blockHash": "0xcca420f59a3a06b3bab38b8cea50b4741505580481f81b903e5a99dd21937071",
      "blockNumber": 80666,
      "transactionIndex": 0,
      "confirmations": null,
      "from": "0x8c1571F5e9fFff7D31C2d66d3818F273813D8FdF",
      "gasPrice": {
        "_hex": "0xd35a71b76"
      },
      "gasLimit": {
        "_hex": "0x55f0"
      },
      "to": "0x2910543Af39abA0Cd09dBb2D50200b3E800A63D2",
      "value": {
        "_hex": "0x45400a8fd5330000"
      },
      "nonce": 0,
      "data": "0x454e52343442485647",
      "r": "0x2613c16fbeb2c9ec60de6c99a8c3c8872c592581cbe8c216691344b01408b6bf",
      "s": "0x216274e4248fae5427ceed0defe1c858b3578cfcb9b7858d0f4c4b3cc4dc225b",
      "v": 27,
      "creates": null,
      "raw": "0xf87580850d35a71b768255f0942910543af39aba0cd09dbb2d50200b3e800a63d28845400a8fd533000089454e523434424856471ba02613c16fbeb2c9ec60de6c99a8c3c8872c592581cbe8c216691344b01408b6bfa0216274e4248fae5427ceed0defe1c858b3578cfcb9b7858d0f4c4b3cc4dc225b",
      "networkId": 0,
      "chainId": 0
    }
  ]
}