{
  "hash": "0x454ac668e363d2db1ab4ee22db40391968f2bf779d0ad318e6ea83fb9a7354a6",
  "parentHash": "0xc924dd749de6915f8a805f4ec91107de0826307a2fe25add4ebc4ba1544b2633",
  "number": 110324,
  "timestamp": 1439971768,
  "nonce": "0x5db3ecd63fb9c153",
  "difficulty": 4364977385393,
  "gasLimit": {
    "_hex": "0x2fefd8"
  },
  "gasUsed": {
    "_hex": "0x47c70"
  },
  "miner": "0x88D74a59454F6cF3B51ef6b9136AFb6b9D405A88",
  "extraData": "0x",
  "transactions": [
    {
      "hash": "0x047f6d9ea722f983ef34f7b699dec0131166a5245dae7f2d0aec10051bb73e1f",
      "blockHash": "0x454ac668e363d2db1ab4ee22db40391968f2bf779d0ad318e6ea83fb9a7354a6",
      "blockNumber": 110324,
      "transactionIndex": 0,
      "confirmations": null,
      "from": "0xe6A7a1d47ff21B6321162AEA7C6CB457D5476Bca",
      "gasPrice": {
        "_hex": "0xdaaa96e92"
      },
      "gasLimit": {
        "_hex": "0x55f0"
      },
      "to": "0xE25E3A1947405a1F82dD8e3048a9cA471dc782E1",
      "value": {
        "_hex": "0x10b9a6667ba72824"
      },
      "nonce": 4103,
      "data": "0x",
      "r": "0x485da8b89ffdb9ad58b7a7b9d02a8a0a26fe764f6689d4dc50cbf997ae82791b",
      "s": "0x75ca4a89601335f0d72919f6e3936e4ab44cee8e1740b5dd06418c6bcb19b4da",
      "v": 28,
      "creates": null,
      "raw": "0xf86e821007850daaa96e928255f094e25e3a1947405a1f82dd8e3048a9ca471dc782e18810b9a6667ba72824801ca0485da8b89ffdb9ad58b7a7b9d02a8a0a26fe764f6689d4dc50cbf997ae82791ba075ca4a89601335f0d72919f6e3936e4ab44cee8e1740b5dd06418c6bcb19b4da",
      "networkId": 0,
      "chainId": 0
    },
    {
      "hash": "0xcb8971d14a74e711945a64d6d2090731aad1ada5dc1103f178a4c4c3a82d0407",
      "blockHash": "0x454ac668e363d2db1ab4ee22db40391968f2bf779d0ad318e6ea83fb9a7354a6",
      "blockNumber": 110324,
      "transactionIndex": 1,
      "confirmations": null,
      "from": "0xe6A7a1d47ff21B6321162AEA7C6CB457D5476Bca",
      "gasPrice": {
        "_hex": "0xdaaa96e92"
      },
      "gasLimit": {
        "_hex": "0x55f0"
      },
      "to": "0x07B4875Db0388E150D1D95Dd975E458f1eC2a210",
      "value": {
        "_hex": "0x11196a4c46140448"
      },
      "nonce": 4104,
      "data": "0x",
      "r": "0x3b2cd3c10eb6bf2e234e1c7183b395a37ff6d0a71995a4ee71aeb312398acb14",
      "s": "0x213002c67b3884ef7aefabf4f3b647033117772df9c552d0485832d9e10bedbb",
      "v": 28,
      "creates": null,
      "raw": "0xf86e821008850daaa96e928255f09407b4875db0388e150d1d95dd975e458f1ec2a2108811196a4c46140448801ca03b2cd3c10eb6bf2e234e1c7183b395a37ff6d0a71995a4ee71aeb312398acb14a0213002c67b3884ef7aefabf4f3b647033117772df9c552d0485832d9e10bedbb",
      "networkId": 0,
      "chainId": 0
    },
    {
      "hash": "0xa012c746ac73bca6ce17323bf5410c779a1033c73a1b70dc247c18aa2792e814",
      "blockHash": "0x454ac668e363d2db1ab4ee22db40391968f2bf779d0ad318e6ea83fb9a7354a6",
      "blockNumber": 110324,
      "transactionIndex": 2,
      "confirmations": null,
      "from": "0xe6A7a1d47ff21B6321162AEA7C6CB457D5476Bca",
      "gasPrice": {
        "_hex": "0xdaaa96e92"
      },
      "gasLimit": {
        "_hex": "0x55f0"
      },
      "to": "0x297d128041190ec4D477Cd476D194eFcA4E9cf67",
      "value": {
        "_hex": "0x1129493939368288"
      },
      "nonce": 4105,
      "data": "0x",
      "r": "0x93a42d1d812887e3981c633411e957d7c4d7fb80b74ac5682aeba1eee3468595",
      "s": "0x362b3e10c7fa60fdd011ba59b4b9dc1f4a2f7319a82f82d9bd20f723edb67769",
      "v": 27,
      "creates": null,
      "raw": "0xf86e821009850daaa96e928255f094297d128041190ec4d477cd476d194efca4e9cf67881129493939368288801ba093a42d1d812887e3981c633411e957d7c4d7fb80b74ac5682aeba1eee3468595a0362b3e10c7fa60fdd011ba59b4b9dc1f4a2f7319a82f82d9bd20f723edb67769",
      "networkId": 0,
      "chainId": 0
    },
    {
      "hash": "0x0d2816fabc7c2a1b5aaea7f3bf5b241463b2e21099f7af2e113f1c7d31b8d5cc",
      "blockHash": "0x454ac668e363d2db1ab4ee22db40391968f2bf779d0ad318e6ea83fb9a7354a6",
      "blockNumber": 110324,
      "transactionIndex": 3,
      "confirmations": null,
      "from": "0xe6A7a1d47ff21B6321162AEA7C6CB457D5476Bca",
      "gasPrice": {
        "_hex": "0xdaaa96e92"
      },
      "gasLimit": {
        "_hex": "0x55f0"
      },
      "to": "0xaEDBC952F1334C1Bf1bAE3326F3dc9E405235c21",
      "value": {
        "_hex": "0x114a4748c4fc8d20"
      },
      "nonce": 4106,
      "data": "0x",
      "r": "0x2d17426727410e29b8a09655e2e9a1d58cd1eff401e0722351a8f9aacfdddaa6",
      "s": "0x61f5c3a9738641a413c4bd6fa47517a7e15839ab9e84aa9ac9b6be9ce9af165f",
      "v": 28,
      "creates": null,
      "raw": "0xf86e82100a850daaa96e928255f094aedbc952f1334c1bf1bae3326f3dc9e405235c2188114a4748c4fc8d20801ca02d17426727410e29b8a09655e2e9a1d58cd1eff401e0722351a8f9aacfdddaa6a061f5c3a9738641a413c4bd6fa47517a7e15839ab9e84aa9ac9b6be9ce9af165f",
      "networkId": 0,
      "chainId": 0
    },
    {
      "hash": "0xafb158717eb528ab01772ebc4a8563aeb1a8406a887a223b7a882db81a987503",
      "blockHash": "0x454ac668e363d2db1ab4ee22db40391968f2bf779d0ad318e6ea83fb9a7354a6",
      "blockNumber": 110324,
      "transactionIndex": 4,
      "confirmations": null,
      "from": "0xe6A7a1d47ff21B6321162AEA7C6CB457D5476Bca",
      "gasPrice": {
        "_hex": "0xdaaa96e92"
      },
      "gasLimit": {
        "_hex": "0x55f0"
      },
      "to": "0x9b7999611FD5eFF3ef9A86653490c42E83ED4B8E",
      "value": {
        "_hex": "0x116ab83370977d2c"
      },
      "nonce": 4107,
      "data": "0x",
      "r": "0x0405af711658b544a364bee8374016008fb5e42520d41969bd210102d9c0e4ca",
      "s": "0x41df03885368feef97916b8fcc92f3cab1bff43ac98945f683bbe41186caf2a0",
      "v": 28,
      "creates": null,
      "raw": "0xf86e82100b850daaa96e928255f0949b7999611fd5eff3ef9a86653490c42e83ed4b8e88116ab83370977d2c801ca00405af711658b544a364bee8374016008fb5e42520d41969bd210102d9c0e4caa041df03885368feef97916b8fcc92f3cab1bff43ac98945f683bbe41186caf2a0",
      "networkId": 0,
      "chainId": 0
    },
    {
      "hash": "0x77983c2104082d2d8ee63ea62fce1162dc90e8a72ccbe2cb0f5530826e1d3017",
      "blockHash": "0x454ac668e363d2db1ab4ee22db40391968f2bf779d0ad318e6ea83fb9a7354a6",
      "blockNumber": 110324,
      "transactionIndex": 5,
      "confirmations": null,
      "from": "0xe6A7a1d47ff21B6321162AEA7C6CB457D5476Bca",
      "gasPrice": {
        "_hex": "0xdaaa96e92"
      },
      "gasLimit": {
        "_hex": "0x55f0"
      },
      "to": "0xda5E395F4f06f7A77C591d97d6502Ddf471E12c1",
      "value": {
        "_hex": "0x11b38d99372253d0"
      },
      "nonce": 4108,
      "data": "0x",
      "r": "0x7db9b8d1218683f4f4283a001a823456667fb6454af252a84433c5ede3ca78b0",
      "s": "0x71bfc963e018d07ec27e299dd23cbc3e3975902e48409867611ddf82cbbbb6f2",
      "v": 28,
      "creates": null,
      "raw": "0xf86e82100c850daaa96e928255f094da5e395f4f06f7a77c591d97d6502ddf471e12c18811b38d99372253d0801ca07db9b8d1218683f4f4283a001a823456667fb6454af252a84433c5ede3ca78b0a071bfc963e018d07ec27e299dd23cbc3e3975902e48409867611ddf82cbbbb6f2",
      "networkId": 0,
      "chainId": 0
    },
    {
      "hash": "0xf4e61c77d9f47fc2c62968b74505b2b5e398a5f40495f8d8de007b7c25ecec88",
      "blockHash": "0x454ac668e363d2db1ab4ee22db40391968f2bf779d0ad318e6ea83fb9a7354a6",
      "blockNumber": 110324,
      "transactionIndex": 6,
      "confirmations": null,
      "from": "0xe6A7a1d47ff21B6321162AEA7C6CB457D5476Bca",
      "gasPrice": {
        "_hex": "0xdaaa96e92"
      },
      "gasLimit": {
        "_hex": "0x55f0"
      },
      "to": "0x18d4625470F85b3A599619208E44301E6eFeaB5c",
      "value": {
        "_hex": "0x122b1ab3176612ec"
      },
      "nonce": 4109,
      "data": "0x",
      "r": "0xbc6d4fa05d89117f56ab12b3cfee774cb8a03b389a35c4ec81346197e8aaa048",
      "s": "0x2ca53c8b30c32636c93690fee7e63a3c995806852ff0800f6a1fe5481d54bd26",
      "v": 27,
      "creates": null,
      "raw": "0xf86e82100d850daaa96e928255f09418d4625470f85b3a599619208e44301e6efeab5c88122b1ab3176612ec801ba0bc6d4fa05d89117f56ab12b3cfee774cb8a03b389a35c4ec81346197e8aaa048a02ca53c8b30c32636c93690fee7e63a3c995806852ff0800f6a1fe5481d54bd26",
      "networkId": 0,
      "chainId": 0
    },
    {
      "hash": "0xe7fef152b9484799fda362124e6d3b69b7c0ca3b6fc90720e91299d1ab275bcb",
      "blockHash": "0x454ac668e363d2db1ab4ee22db40391968f2bf779d0ad318e6ea83fb9a7354a6",
      "blockNumber": 110324,
      "transactionIndex": 7,
      "confirmations": null,
      "from": "0xe6A7a1d47ff21B6321162AEA7C6CB457D5476Bca",
      "gasPrice": {
        "_hex": "0xdaaa96e92"
      },
      "gasLimit": {
        "_hex": "0x55f0"
      },
      "to": "0x1918175e6aB029996E0BC00238AeA5f89f3F84ad",
      "value": {
        "_hex": "0x122c1f91e185cfe8"
      },
      "nonce": 4110,
      "data": "0x",
      "r": "0x8a2fee5ffc8eaf5534e31dac3b694a78f15d3b797cba04d8eaefcf0f31e1346a",
      "s": "0x2a356d1e136bdc3df941e7d6479d7b8894845f1648db43767c30dc36851cef12",
      "v": 28,
      "creates": null,
      "raw": "0xf86e82100e850daaa96e928255f0941918175e6ab029996e0bc00238aea5f89f3f84ad88122c1f91e185cfe8801ca08a2fee5ffc8eaf5534e31dac3b694a78f15d3b797cba04d8eaefcf0f31e1346aa02a356d1e136bdc3df941e7d6479d7b8894845f1648db43767c30dc36851cef12",
      "networkId": 0,
      "chainId": 0
    },
    {
      "hash": "0x9f50f0ebc29f5271e10feb4825366b7116fa60ae7d59483213fda7dbb9a256d4",
      "blockHash": "0x454ac668e363d2db1ab4ee22db40391968f2bf779d0ad318e6ea83fb9a7354a6",
      "blockNumber": 110324,
      "transactionIndex": 8,
      "confirmations": null,
      "from": "0xe6A7a1d47ff21B6321162AEA7C6CB457D5476Bca",
      "gasPrice": {
        "_hex": "0xdaaa96e92"
      },
      "gasLimit": {
        "_hex": "0x55f0"
      },
      "to": "0xED2aF977080D441C24E9910f1e2078A4446d0bbf",
      "value": {
        "_hex": "0x12731ffd294e8bdc"
      },
      "nonce": 4111,
      "data": "0x",
      "r": "0xaf1d7dfbe60210becce69ad4638957ddeff6aaa64645560cbf1065fc60922443",
      "s": "0x07f26eb5edf19cfef29a909ad64ebe5ef79ca0823e09cffbe48a559911f63951",
      "v": 27,
      "creates": null,
      "raw": "0xf86e82100f850daaa96e928255f094ed2af977080d441c24e9910f1e2078a4446d0bbf8812731ffd294e8bdc801ba0af1d7dfbe60210becce69ad4638957ddeff6aaa64645560cbf1065fc60922443a007f26eb5edf19cfef29a909ad64ebe5ef79ca0823e09cffbe48a559911f63951",
      "networkId": 0,
      "chainId": 0
    },
    {
      "hash": "0x3e2bc045a94962227350ae77239785ba69133e830e38de3d3d87f27fea40c2cb",
      "blockHash": "0x454ac668e363d2db1ab4ee22db40391968f2bf779d0ad318e6ea83fb9a7354a6",
      "blockNumber": 110324,
      "transactionIndex": 9,
      "confirmations": null,
      "from": "0xe6A7a1d47ff21B6321162AEA7C6CB457D5476Bca",
      "gasPrice": {
        "_hex": "0xdaaa96e92"
      },
      "gasLimit": {
        "_hex": "0x55f0"
      },
      "to": "0x1C8ec4eb0bf7e12EaAA128F202bee847ee920a63",
      "value": {
        "_hex": "0x1292a291c1b18e20"
      },
      "nonce": 4112,
      "data": "0x",
      "r": "0xfcc067ec5404a52daa1c8bf80ba53be826dc206c779078266973c58d1ca8c2a3",
      "s": "0x33ca42ed5ee2adcd58e8971e0768956f0d49b4d800fbdc50b14cc4105b1075cf",
      "v": 27,
      "creates": null,
      "raw": "0xf86e821010850daaa96e928255f0941c8ec4eb0bf7e12eaaa128f202bee847ee920a63881292a291c1b18e20801ba0fcc067ec5404a52daa1c8bf80ba53be826dc206c779078266973c58d1ca8c2a3a033ca42ed5ee2adcd58e8971e0768956f0d49b4d800fbdc50b14cc4105b1075cf",
      "networkId": 0,
      "chainId": 0
    },
    {
      "hash": "0xd406185f4c3c5f0826020646b08549de236459f24a5fd04c3230e35004b46132",
      "blockHash": "0x454ac668e363d2db1ab4ee22db40391968f2bf779d0ad318e6ea83fb9a7354a6",
      "blockNumber": 110324,
      "transactionIndex": 10,
      "confirmations": null,
      "from": "0xe6A7a1d47ff21B6321162AEA7C6CB457D5476Bca",
      "gasPrice": {
        "_hex": "0xdaaa96e92"
      },
      "gasLimit": {
        "_hex": "0x55f0"
      },
      "to": "0x4F68024B7CEB5ca92e7308BD08e523c632C0c739",
      "value": {
        "_hex": "0x129953b32514fdd4"
      },
      "nonce": 4113,
      "data": "0x",
      "r": "0xdd7cb9f95c4b87a5af90685445f200cd10896228c301960a91c32d0075f0dee8",
      "s": "0x379b95fc96ec31d53e444f44902fe82d13cc51cc121783f815a6dfdaace138fc",
      "v": 27,
      "creates": null,
      "raw": "0xf86e821011850daaa96e928255f0944f68024b7ceb5ca92e7308bd08e523c632c0c73988129953b32514fdd4801ba0dd7cb9f95c4b87a5af90685445f200cd10896228c301960a91c32d0075f0dee8a0379b95fc96ec31d53e444f44902fe82d13cc51cc121783f815a6dfdaace138fc",
      "networkId": 0,
      "chainId": 0
    },
    {
      "hash": "0x91a83fb84e4b6f744c3e51a2215f75d2e789f12c7d48ee06a2ce54a5efdc3df3",
      "blockHash": "0x454ac668e363d2db1ab4ee22db40391968f2bf779d0ad318e6ea83fb9a7354a6",
      "blockNumber": 110324,
      "transactionIndex": 11,
      "confirmations": null,
      "from": "0xe6A7a1d47ff21B6321162AEA7C6CB457D5476Bca",
      "gasPrice": {
        "_hex": "0xdaaa96e92"
      },
      "gasLimit": {
        "_hex": "0x55f0"
      },
      "to": "0xB06c47325B63091CF8555d4709bC8fA20AAE1E49",
      "value": {
        "_hex": "0x12b7dd8b4eb10928"
      },
      "nonce": 4114,
      "data": "0x",
      "r": "0x2e54b6468c6bf31f5f283e24bd1ec92ad016aee074fc416bc8f983fd6ac34893",
      "s": "0x0f462145557b98d50eced60e56274693abd33060cd14e4c41fd229ad3748788f",
      "v": 28,
      "creates": null,
      "raw": "0xf86e821012850daaa96e928255f094b06c47325b63091cf8555d4709bc8fa20aae1e498812b7dd8b4eb10928801ca02e54b6468c6bf31f5f283e24bd1ec92ad016aee074fc416bc8f983fd6ac34893a00f462145557b98d50eced60e56274693abd33060cd14e4c41fd229ad3748788f",
      "networkId": 0,
      "chainId": 0
    },
    {
      "hash": "0x1afdaeeb1e515b5d840ddf31f60bbe1f4a280736fc29ab8e383ea2d895d441b3",
      "blockHash": "0x454ac668e363d2db1ab4ee22db40391968f2bf779d0ad318e6ea83fb9a7354a6",
      "blockNumber": 110324,
      "transactionIndex": 12,
      "confirmations": null,
      "from": "0xe6A7a1d47ff21B6321162AEA7C6CB457D5476Bca",
      "gasPrice": {
        "_hex": "0xdaaa96e92"
      },
      "gasLimit": {
        "_hex": "0x55f0"
      },
      "to": "0x5F65f2c42955A814F0C673db10db5345b8178029",
      "value": {
        "_hex": "0x12ce5e2b5da326a0"
      },
      "nonce": 4115,
      "data": "0x",
      "r": "0x0b1e8a63a789ed492b328dfa93b2109fa6e6c3f2deb487cc7ec851fd9abc35ab",
      "s": "0x4d7af7c1e73735b04842edf9a5447cbd2525972953759ad35f3be836f4352208",
      "v": 28,
      "creates": null,
      "raw": "0xf86e821013850daaa96e928255f0945f65f2c42955a814f0c673db10db5345b81780298812ce5e2b5da326a0801ca00b1e8a63a789ed492b328dfa93b2109fa6e6c3f2deb487cc7ec851fd9abc35aba04d7af7c1e73735b04842edf9a5447cbd2525972953759ad35f3be836f4352208",
      "networkId": 0,
      "chainId": 0
    },
    {
      "hash": "0xb83888aa2831849b55a0378da1f483b08a5a2d230b80dc2574149a4f8abf2b5e",
      "blockHash": "0x454ac668e363d2db1ab4ee22db40391968f2bf779d0ad318e6ea83fb9a7354a6",
      "blockNumber": 110324,
      "transactionIndex": 13,
      "confirmations": null,
      "from": "0xe6A7a1d47ff21B6321162AEA7C6CB457D5476Bca",
      "gasPrice": {
        "_hex": "0xdaaa96e92"
      },
      "gasLimit": {
        "_hex": "0x55f0"
      },
      "to": "0x5E9dCd11B7b9Df7923fd13D1749E64f4415Fb547",
      "value": {
        "_hex": "0x12dfc37db0c2002c"
      },
      "nonce": 4116,
      "data": "0x",
      "r": "0x1f16f4483e90a88424f24589fd0df2e5029a346dfeb8692fdc7f648193edd4c2",
      "s": "0x02c31d28319efde7987365c6085c34e6c9a47ccd45fbb1496ef7e3c2c410f621",
      "v": 27,
      "creates": null,
      "raw": "0xf86e821014850daaa96e928255f0945e9dcd11b7b9df7923fd13d1749e64f4415fb5478812dfc37db0c2002c801ba01f16f4483e90a88424f24589fd0df2e5029a346dfeb8692fdc7f648193edd4c2a002c31d28319efde7987365c6085c34e6c9a47ccd45fbb1496ef7e3c2c410f621",
      "networkId": 0,
      "chainId": 0
    }
  ]
}