{
  "hash": "0xcee665882b6103233767991dac6f38eec27ce7b0954daf7efb4727af71ecda15",
  "parentHash": "0xe46ee538c047e97826545e49f065447eb5c6efc8cfe50110824e785bdb390a57",
  "number": 80533,
  "timestamp": 1439486899,
  "nonce": "0xe672248d89fda874",
  "difficulty": 2422691639030,
  "gasLimit": {
    "_hex": "0x2fefd8"
  },
  "gasUsed": {
    "_hex": "0xfc3f"
  },
  "miner": "0xe6A7a1d47ff21B6321162AEA7C6CB457D5476Bca",
  "extraData": "0x476574682f76312e302e312d38326566323666362f6c696e75782f676f312e34",
  "transactions": [
    {
      "hash": "0x43259c7115241a30e486f8cdb24bd65a6a66f1f1ffb8ebdf151befdc8d4fa16b",
      "blockHash": "0xcee665882b6103233767991dac6f38eec27ce7b0954daf7efb4727af71ecda15",
      "blockNumber": 80533,
      "transactionIndex": 0,
      "confirmations": null,
      "from": "0x3E3161F1EA2fBf126E79DA1801da9512B37988C9",
      "gasPrice": {
        "_hex": "0x117386a5d9a"
      },
      "gasLimit": {
        "_hex": "0x55f0"
      },
      "to": "0xDcb902e442b8ADADd6D87669DC2fc4A7b5eDF486",
      "value": {
        "_hex": "0xde0b6b3a7640000"
      },
      "nonce": 2,
      "data": "0x",
      "r": "0x55d800edd06b6271abd95d8d4a84c988076f6f08f23ba14e2f3689f27c5a221c",
      "s": "0x0561e8f7d524c84c3171f97c0b661173752843bbd29ffcd353705110428cf5f8",
      "v": 28,
      "creates": null,
      "raw": "0xf86d02860117386a5d9a8255f094dcb902e442b8adadd6d87669dc2fc4a7b5edf486880de0b6b3a7640000801ca055d800edd06b6271abd95d8d4a84c988076f6f08f23ba14e2f3689f27c5a221ca00561e8f7d524c84c3171f97c0b661173752843bbd29ffcd353705110428cf5f8",
      "networkId": 0,
      "chainId": 0
    },
    {
      "hash": "0xb739df75e02a0449a0c52726203180ec7dd9cb64f406b3ef521e466f8df8a069",
      "blockHash": "0xcee665882b6103233767991dac6f38eec27ce7b0954daf7efb4727af71ecda15",
      "blockNumber": 80533,
      "transactionIndex": 1,
      "confirmations": null,
      "from": "0x87C5B5874A18B4306DF8a752a6C8cc3E82daFc19",
      "gasPrice": {
        "_hex": "0x1144084dd76"
      },
      "gasLimit": {
        "_hex": "0x493e0"
      },
      "to": "0xC4c51de1AbF5D60DBd329eC0F999Fd8f021ae9fC",
      "value": {
        "_hex": "0x0"
      },
      "nonce": 236,
      "data": "0x03750d9400000000000000000000000087c5b5874a18b4306df8a752a6c8cc3e82dafc196b6b6b0000000000000000000000000000000000000000000000000000000000",
      "r": "0xa341da0810a108f5ccd0aac684bd40f2a2287a172a76eb7c289f4833c24237b3",
      "s": "0x1730ac78b10c280649cedf0a727796d73ce16e98b1c30bbe4bf9e17f288a8958",
      "v": 27,
      "creates": null,
      "raw": "0xf8ac81ec8601144084dd76830493e094c4c51de1abf5d60dbd329ec0f999fd8f021ae9fc80b84403750d9400000000000000000000000087c5b5874a18b4306df8a752a6c8cc3e82dafc196b6b6b00000000000000000000000000000000000000000000000000000000001ba0a341da0810a108f5ccd0aac684bd40f2a2287a172a76eb7c289f4833c24237b3a01730ac78b10c280649cedf0a727796d73ce16e98b1c30bbe4bf9e17f288a8958",
      "networkId": 0,
      "chainId": 0
    }
  ]
}