{
  "hash": "0x784b9de47974dede2d89b2d65dc635611e7b2462d0380514373e37af1925286d",
  "parentHash": "0xaf7c9d029b635d0c27fd8927d4e84f384aa7ebd4b9f68280195077faa7a4c6a2",
  "number": 58822,
  "timestamp": 1439127141,
  "nonce": "0x4d18de32f2f4ba97",
  "difficulty": 1713171278006,
  "gasLimit": {
    "_hex": "0x2fefd8"
  },
  "gasUsed": {
    "_hex": "0x5208"
  },
  "miner": "0xf927a40C8B7F6E07c5af7FA2155B4864a4112B13",
  "extraData": "0x",
  "transactions": [
    {
      "hash": "0xf60deb8e9419f5526f3573011ac94d99c04459ad2f2ca206f59357e5897a702e",
      "blockHash": "0x784b9de47974dede2d89b2d65dc635611e7b2462d0380514373e37af1925286d",
      "blockNumber": 58822,
      "transactionIndex": 0,
      "confirmations": null,
      "from": "0x985D744C50fdcB355d105EE00565A8b32BF0B08f",
      "gasPrice": {
        "_hex": "0xda80a2a9f"
      },
      "gasLimit": {
        "_hex": "0x15f90"
      },
      "to": "0x07BC2CC8eeDC01970700efC9c4Fb36735e98CD71",
      "value": {
        "_hex": "0x71efc78065f50000"
      },
      "nonce": 2,
      "data": "0x",
      "r": "0x12da1f842f1f9a906584dcde1b4f26551ea46c6a1af549c8bcc5442c2e848941",
      "s": "0x352b60eb4a855b8261a38ceec1919b1d006a737f5b4331222ef487d6b2470684",
      "v": 28,
      "creates": null,
      "raw": "0xf86d02850da80a2a9f83015f909407bc2cc8eedc01970700efc9c4fb36735e98cd718871efc78065f50000801ca012da1f842f1f9a906584dcde1b4f26551ea46c6a1af549c8bcc5442c2e848941a0352b60eb4a855b8261a38ceec1919b1d006a737f5b4331222ef487d6b2470684",
      "networkId": 0,
      "chainId": 0
    }
  ]
}