{
  "hash": "0x6cfac39165013f0f784308e2c097987ed45ddd23203cf5792c85600f202f7f4a",
  "parentHash": "0x0c5c2fdbf25562bd6cfbbe0ad5d3c5b16579e351b4cb03f7cb897009fd976bf3",
  "number": 99958,
  "timestamp": 1439798424,
  "nonce": "0xa67eb3ede93fc542",
  "difficulty": 3849316488049,
  "gasLimit": {
    "_hex": "0x2fefd8"
  },
  "gasUsed": {
    "_hex": "0x42a68"
  },
  "miner": "0x19e83223b783b5c6673c06b06E093de7E85F3F87",
  "extraData": "0x",
  "transactions": [
    {
      "hash": "0x0bed75913d4b2d29b2b6a0a2ca72b6e1bc1a80e9acf036e0b48d932ae32a9cba",
      "blockHash": "0x6cfac39165013f0f784308e2c097987ed45ddd23203cf5792c85600f202f7f4a",
      "blockNumber": 99958,
      "transactionIndex": 0,
      "confirmations": null,
      "from": "0xe6A7a1d47ff21B6321162AEA7C6CB457D5476Bca",
      "gasPrice": {
        "_hex": "0xe14ab6673"
      },
      "gasLimit": {
        "_hex": "0x55f0"
      },
      "to": "0xC711d87af18Db9a7EbE2CFB279b73c8785E55d41",
      "value": {
        "_hex": "0x4d71ba454aaad698"
      },
      "nonce": 3253,
      "data": "0x",
      "r": "0x763d1fed23a27bf62e1c3c0260f4eb5e153fed40cdaf3531de7466bfa8a47a65",
      "s": "0x694029427c867f00c6226fa9e0b34e57fe763ce638598f6f0df080f89c552a74",
      "v": 28,
      "creates": null,
      "raw": "0xf86e820cb5850e14ab66738255f094c711d87af18db9a7ebe2cfb279b73c8785e55d41884d71ba454aaad698801ca0763d1fed23a27bf62e1c3c0260f4eb5e153fed40cdaf3531de7466bfa8a47a65a0694029427c867f00c6226fa9e0b34e57fe763ce638598f6f0df080f89c552a74",
      "networkId": 0,
      "chainId": 0
    },
    {
      "hash": "0x79233c2116a76318a9e6c2b007778321bc7c28e9811f81d22ab374337933650d",
      "blockHash": "0x6cfac39165013f0f784308e2c097987ed45ddd23203cf5792c85600f202f7f4a",
      "blockNumber": 99958,
      "transactionIndex": 1,
      "confirmations": null,
      "from": "0xe6A7a1d47ff21B6321162AEA7C6CB457D5476Bca",
      "gasPrice": {
        "_hex": "0xded04a69a"
      },
      "gasLimit": {
        "_hex": "0x55f0"
      },
      "to": "0x0F7606315036EF870B5D92Cd9e52b8d4f771a7eA",
      "value": {
        "_hex": "0x4e2a3e68102b0028"
      },
      "nonce": 3254,
      "data": "0x",
      "r": "0xc37ca1019a4ef2bb81de5bbc4982ad53bdcfce1211f01d8c207cfa04791fc1d7",
      "s": "0x0159ea878a0cd8eb78df00e9960cf109cda0575ecce45ed49ac4fb0ce32362d8",
      "v": 28,
      "creates": null,
      "raw": "0xf86e820cb6850ded04a69a8255f0940f7606315036ef870b5d92cd9e52b8d4f771a7ea884e2a3e68102b0028801ca0c37ca1019a4ef2bb81de5bbc4982ad53bdcfce1211f01d8c207cfa04791fc1d7a00159ea878a0cd8eb78df00e9960cf109cda0575ecce45ed49ac4fb0ce32362d8",
      "networkId": 0,
      "chainId": 0
    },
    {
      "hash": "0x0e4d7514eb20fd11a864a90a76ce28b68fd9297f61c01c176b79160b865ec40f",
      "blockHash": "0x6cfac39165013f0f784308e2c097987ed45ddd23203cf5792c85600f202f7f4a",
      "blockNumber": 99958,
      "transactionIndex": 2,
      "confirmations": null,
      "from": "0xe6A7a1d47ff21B6321162AEA7C6CB457D5476Bca",
      "gasPrice": {
        "_hex": "0xded04a69a"
      },
      "gasLimit": {
        "_hex": "0x55f0"
      },
      "to": "0xC2B0FB302729ef0f4aa96C0E02cC2346459294DF",
      "value": {
        "_hex": "0x4e421f84db4d3a90"
      },
      "nonce": 3255,
      "data": "0x",
      "r": "0x2283786cf715acbaff508b8c9be454611a0c4a124d9cbb8c73df20bfc76a1cd9",
      "s": "0x55913f2f80435f9a120284152916adbfc5f6178e3ba9f3de8d720fa96960bf5e",
      "v": 28,
      "creates": null,
      "raw": "0xf86e820cb7850ded04a69a8255f094c2b0fb302729ef0f4aa96c0e02cc2346459294df884e421f84db4d3a90801ca02283786cf715acbaff508b8c9be454611a0c4a124d9cbb8c73df20bfc76a1cd9a055913f2f80435f9a120284152916adbfc5f6178e3ba9f3de8d720fa96960bf5e",
      "networkId": 0,
      "chainId": 0
    },
    {
      "hash": "0xd0495b69de65b9bd1ac278ef2717fcf3d88f0104b9f200ffdcb682e73e2bb151",
      "blockHash": "0x6cfac39165013f0f784308e2c097987ed45ddd23203cf5792c85600f202f7f4a",
      "blockNumber": 99958,
      "transactionIndex": 3,
      "confirmations": null,
      "from": "0xe6A7a1d47ff21B6321162AEA7C6CB457D5476Bca",
      "gasPrice": {
        "_hex": "0xded04a69a"
      },
      "gasLimit": {
        "_hex": "0x55f0"
      },
      "to": "0xadBC4B2dc881a1C624ee11c526e818f91378D410",
      "value": {
        "_hex": "0x4eab43fd55e20988"
      },
      "nonce": 3256,
      "data": "0x",
      "r": "0xe2cc332ff2105faa8c907708dd48b7c7d15d1444a36399600d22b4eeaada4e67",
      "s": "0x5235c4eb0d3ae251419cd4371a72b98b9cc03edf29e4bc3ddb719c86ec91025f",
      "v": 27,
      "creates": null,
      "raw": "0xf86e820cb8850ded04a69a8255f094adbc4b2dc881a1c624ee11c526e818f91378d410884eab43fd55e20988801ba0e2cc332ff2105faa8c907708dd48b7c7d15d1444a36399600d22b4eeaada4e67a05235c4eb0d3ae251419cd4371a72b98b9cc03edf29e4bc3ddb719c86ec91025f",
      "networkId": 0,
      "chainId": 0
    },
    {
      "hash": "0xa05ee4467dbbfb4a944a9938bc36fbf5b174f2a0148d98aa73b70f8cee91a13e",
      "blockHash": "0x6cfac39165013f0f784308e2c097987ed45ddd23203cf5792c85600f202f7f4a",
      "blockNumber": 99958,
      "transactionIndex": 4,
      "confirmations": null,
      "from": "0xe6A7a1d47ff21B6321162AEA7C6CB457D5476Bca",
      "gasPrice": {
        "_hex": "0xded04a69a"
      },
      "gasLimit": {
        "_hex": "0x55f0"
      },
      "to": "0x3fc4eAB8A8df5a124043b29146709935c65F1f7d",
      "value": {
        "_hex": "0x4f46783742433118"
      },
      "nonce": 3257,
      "data": "0x",
      "r": "0x3790a217bd4ead94831821db78cbf779f3f5c818c821ac59f1c0d722a551ed7a",
      "s": "0x3db9636a2a8a6940d50dd2bd5022c662112ef5531ff27677761555d43453eea6",
      "v": 27,
      "creates": null,
      "raw": "0xf86e820cb9850ded04a69a8255f0943fc4eab8a8df5a124043b29146709935c65f1f7d884f46783742433118801ba03790a217bd4ead94831821db78cbf779f3f5c818c821ac59f1c0d722a551ed7aa03db9636a2a8a6940d50dd2bd5022c662112ef5531ff27677761555d43453eea6",
      "networkId": 0,
      "chainId": 0
    },
    {
      "hash": "0x67a20991cd313c53c827cc056fbfcb0a944d30ba4795decb074af83217f629dd",
      "blockHash": "0x6cfac39165013f0f784308e2c097987ed45ddd23203cf5792c85600f202f7f4a",
      "blockNumber": 99958,
      "transactionIndex": 5,
      "confirmations": null,
      "from": "0xe6A7a1d47ff21B6321162AEA7C6CB457D5476Bca",
      "gasPrice": {
        "_hex": "0xded04a69a"
      },
      "gasLimit": {
        "_hex": "0x55f0"
      },
      "to": "0x037658E13e294088Cfd16A534b9C1F3B37282eB2",
      "value": {
        "_hex": "0x4f54bc0549a91470"
      },
      "nonce": 3258,
      "data": "0x",
      "r": "0x524541f5407703f13423d43a1c61b5a913c15ccad39fe6d3a00e895e04b118d5",
      "s": "0x705de91af653af2b4becb068d7029fbe3f8ac27e16e5f050f2ebfb0dd8523d1e",
      "v": 28,
      "creates": null,
      "raw": "0xf86e820cba850ded04a69a8255f094037658e13e294088cfd16a534b9c1f3b37282eb2884f54bc0549a91470801ca0524541f5407703f13423d43a1c61b5a913c15ccad39fe6d3a00e895e04b118d5a0705de91af653af2b4becb068d7029fbe3f8ac27e16e5f050f2ebfb0dd8523d1e",
      "networkId": 0,
      "chainId": 0
    },
    {
      "hash": "0x264b8395fcb24490a095e97d8268611b96c373cd0f60a10d42c24cf53b19994d",
      "blockHash": "0x6cfac39165013f0f784308e2c097987ed45ddd23203cf5792c85600f202f7f4a",
      "blockNumber": 99958,
      "transactionIndex": 6,
      "confirmations": null,
      "from": "0xe6A7a1d47ff21B6321162AEA7C6CB457D5476Bca",
      "gasPrice": {
        "_hex": "0xded04a69a"
      },
      "gasLimit": {
        "_hex": "0x55f0"
      },
      "to": "0x63d25FB5edc318Aae1DEc4F3aBd7c645f921cff8",
      "value": {
        "_hex": "0x5149b7466d8ff790"
      },
      "nonce": 3259,
      "data": "0x",
      "r": "0xd155f579eeb90f33388d2d356f24d0cb3130bfdc1afbfed56e7e84c518e3c7a1",
      "s": "0x387c2a06546c230710a3eb5a93a711a4fb19fb71e46c911214c43462b7c146f0",
      "v": 28,
      "creates": null,
      "raw": "0xf86e820cbb850ded04a69a8255f09463d25fb5edc318aae1dec4f3abd7c645f921cff8885149b7466d8ff790801ca0d155f579eeb90f33388d2d356f24d0cb3130bfdc1afbfed56e7e84c518e3c7a1a0387c2a06546c230710a3eb5a93a711a4fb19fb71e46c911214c43462b7c146f0",
      "networkId": 0,
      "chainId": 0
    },
    {
      "hash": "0x813b4f24b48cb9d968af37671a42d29e97485e3b2885ac44320a1cd900972b62",
      "blockHash": "0x6cfac39165013f0f784308e2c097987ed45ddd23203cf5792c85600f202f7f4a",
      "blockNumber": 99958,
      "transactionIndex": 7,
      "confirmations": null,
      "from": "0xe6A7a1d47ff21B6321162AEA7C6CB457D5476Bca",
      "gasPrice": {
        "_hex": "0xded04a69a"
      },
      "gasLimit": {
        "_hex": "0x55f0"
      },
      "to": "0xB36712fddBD16B781eC9263B441Ee9DF97e8CCc5",
      "value": {
        "_hex": "0x520c7461c860b3a8"
      },
      "nonce": 3260,
      "data": "0x",
      "r": "0x6121ec101411c2505cb3004ded35ff106bf8fa59b6e608810500701eb16995c2",
      "s": "0x6414f3d8cfe8659d2482ebe95980dbef8b8682beb45893ab9bef1cb7188961c0",
      "v": 28,
      "creates": null,
      "raw": "0xf86e820cbc850ded04a69a8255f094b36712fddbd16b781ec9263b441ee9df97e8ccc588520c7461c860b3a8801ca06121ec101411c2505cb3004ded35ff106bf8fa59b6e608810500701eb16995c2a06414f3d8cfe8659d2482ebe95980dbef8b8682beb45893ab9bef1cb7188961c0",
      "networkId": 0,
      "chainId": 0
    },
    {
      "hash": "0x172cd8fbee8cc2cc419ff40b1d95768feaa7c0895fc42ef40dca7af9c1d18544",
      "blockHash": "0x6cfac39165013f0f784308e2c097987ed45ddd23203cf5792c85600f202f7f4a",
      "blockNumber": 99958,
      "transactionIndex": 8,
      "confirmations": null,
      "from": "0xe6A7a1d47ff21B6321162AEA7C6CB457D5476Bca",
      "gasPrice": {
        "_hex": "0xded04a69a"
      },
      "gasLimit": {
        "_hex": "0x55f0"
      },
      "to": "0xc8aB34A1891E416F845A740f0203e2186f8BBd09",
      "value": {
        "_hex": "0x5224481e25683740"
      },
      "nonce": 3261,
      "data": "0x",
      "r": "0xa69c9a8ce97216a45c77e2f8fbe28d9fad78336f310973fcfaedbcd51bc0f5ea",
      "s": "0x7daf693a2b716d590682727bda113b7c2a4184b033548d99f819723de0abaeca",
      "v": 27,
      "creates": null,
      "raw": "0xf86e820cbd850ded04a69a8255f094c8ab34a1891e416f845a740f0203e2186f8bbd09885224481e25683740801ba0a69c9a8ce97216a45c77e2f8fbe28d9fad78336f310973fcfaedbcd51bc0f5eaa07daf693a2b716d590682727bda113b7c2a4184b033548d99f819723de0abaeca",
      "networkId": 0,
      "chainId": 0
    },
    {
      "hash": "0xbccfd3c2cba7a2a3b24b6c27e38c65362b7785832f86c8ae7273c6bf76f63a0b",
      "blockHash": "0x6cfac39165013f0f784308e2c097987ed45ddd23203cf5792c85600f202f7f4a",
      "blockNumber": 99958,
      "transactionIndex": 9,
      "confirmations": null,
      "from": "0xe6A7a1d47ff21B6321162AEA7C6CB457D5476Bca",
      "gasPrice": {
        "_hex": "0xded04a69a"
      },
      "gasLimit": {
        "_hex": "0x55f0"
      },
      "to": "0xc672B41FCC9441EeB20f8d1b4342DE7A982eBAb4",
      "value": {
        "_hex": "0x526d23e2bc0743b0"
      },
      "nonce": 3262,
      "data": "0x",
      "r": "0x53dc515fc9564d5b0faeab436743b9d3be00394d989d638c200746015ffde648",
      "s": "0x3a093122a3539e0cb15d558f4a0cb530b738527b88dfd1307b3aa07e1b44a491",
      "v": 28,
      "creates": null,
      "raw": "0xf86e820cbe850ded04a69a8255f094c672b41fcc9441eeb20f8d1b4342de7a982ebab488526d23e2bc0743b0801ca053dc515fc9564d5b0faeab436743b9d3be00394d989d638c200746015ffde648a03a093122a3539e0cb15d558f4a0cb530b738527b88dfd1307b3aa07e1b44a491",
      "networkId": 0,
      "chainId": 0
    },
    {
      "hash": "0xd09a0d6b691c65151485b4d3497343685b3d578c36ff77230f95219c19d26c43",
      "blockHash": "0x6cfac39165013f0f784308e2c097987ed45ddd23203cf5792c85600f202f7f4a",
      "blockNumber": 99958,
      "transactionIndex": 10,
      "confirmations": null,
      "from": "0xe6A7a1d47ff21B6321162AEA7C6CB457D5476Bca",
      "gasPrice": {
        "_hex": "0xded04a69a"
      },
      "gasLimit": {
        "_hex": "0x55f0"
      },
      "to": "0x1c69e6202df7794272b70FaEa8f7408c856B1f08",
      "value": {
        "_hex": "0x53a069de7060cd20"
      },
      "nonce": 3263,
      "data": "0x",
      "r": "0x1ef40b83d4d6a268a14048f4a526cce8f9f278169d1e5524e7424c03f506684b",
      "s": "0x109c91a564e3c7c4b9f278a95d9495360a8ee2d7698afbbc82fb135196d3a22e",
      "v": 27,
      "creates": null,
      "raw": "0xf86e820cbf850ded04a69a8255f0941c69e6202df7794272b70faea8f7408c856b1f088853a069de7060cd20801ba01ef40b83d4d6a268a14048f4a526cce8f9f278169d1e5524e7424c03f506684ba0109c91a564e3c7c4b9f278a95d9495360a8ee2d7698afbbc82fb135196d3a22e",
      "networkId": 0,
      "chainId": 0
    },
    {
      "hash": "0xc5f9c805774abd98a74a191922ad371645e2cb5413262a0e276adc4c249a7109",
      "blockHash": "0x6cfac39165013f0f784308e2c097987ed45ddd23203cf5792c85600f202f7f4a",
      "blockNumber": 99958,
      "transactionIndex": 11,
      "confirmations": null,
      "from": "0xe6A7a1d47ff21B6321162AEA7C6CB457D5476Bca",
      "gasPrice": {
        "_hex": "0xded04a69a"
      },
      "gasLimit": {
        "_hex": "0x55f0"
      },
      "to": "0xBf7d5E6CD66bc79d7759B640cbe188bCFA030cc4",
      "value": {
        "_hex": "0x55053123f58b3428"
      },
      "nonce": 3264,
      "data": "0x",
      "r": "0xa9334bf8ff2513b8b2b26b106ec159e7d907ef1a6be5b1e7a44f80f6a1ddddb1",
      "s": "0x0229b9cef4b2366ab0d24f1ce5b6e5d4a7aefbce5f5cc764247b0797a04c0728",
      "v": 27,
      "creates": null,
      "raw": "0xf86e820cc0850ded04a69a8255f094bf7d5e6cd66bc79d7759b640cbe188bcfa030cc48855053123f58b3428801ba0a9334bf8ff2513b8b2b26b106ec159e7d907ef1a6be5b1e7a44f80f6a1ddddb1a00229b9cef4b2366ab0d24f1ce5b6e5d4a7aefbce5f5cc764247b0797a04c0728",
      "networkId": 0,
      "chainId": 0
    },
    {
      "hash": "0x3222d5f6892e8821a020c1c9c01f74b00e7dec830a30a0b6ad56ec4bb44aa59c",
      "blockHash": "0x6cfac39165013f0f784308e2c097987ed45ddd23203cf5792c85600f202f7f4a",
      "blockNumber": 99958,
      "transactionIndex": 12,
      "confirmations": null,
      "from": "0xe6A7a1d47ff21B6321162AEA7C6CB457D5476Bca",
      "gasPrice": {
        "_hex": "0xded04a69a"
      },
      "gasLimit": {
        "_hex": "0x55f0"
      },
      "to": "0xD671e71108Bd20F1A8e2A4f73a7449Bf8DAa840f",
      "value": {
        "_hex": "0x5696d3d999e84548"
      },
      "nonce": 3265,
      "data": "0x",
      "r": "0x927e834bef977b71f62e4f23a167c61bb3b6be0628a1e03429c73afa4c788cf6",
      "s": "0x49035934e33f3e495e48ebba61257cdb58c0fb40c15d1ecc893ee38b20d05e05",
      "v": 27,
      "creates": null,
      "raw": "0xf86e820cc1850ded04a69a8255f094d671e71108bd20f1a8e2a4f73a7449bf8daa840f885696d3d999e84548801ba0927e834bef977b71f62e4f23a167c61bb3b6be0628a1e03429c73afa4c788cf6a049035934e33f3e495e48ebba61257cdb58c0fb40c15d1ecc893ee38b20d05e05",
      "networkId": 0,
      "chainId": 0
    }
  ]
}