{
  "hash": "0xbf30829b883eed6b05269761fb3ee332dbfa027323a180b805f6701039076272",
  "parentHash": "0x272b0d696d7ac81956ead6f23abf995ef37a4a25980d3d5cb07651190038d0e4",
  "number": 48156,
  "timestamp": 1438952418,
  "nonce": "0xd859d4933700fb07",
  "difficulty": 1465785260732,
  "gasLimit": {
    "_hex": "0x130e4"
  },
  "gasUsed": {
    "_hex": "0xa8d8"
  },
  "miner": "0x55bAf64fc9eAccFFd7Cc643BB61142E1C6ac093e",
  "extraData": "0x476574682f76312e302e302f6c696e75782f676f312e342e32",
  "transactions": [
    {
      "hash": "0xeb3d54fab5f4db9ab8ba5a18f039a49ef82605126c879b8cd93e444b55419396",
      "blockHash": "0xbf30829b883eed6b05269761fb3ee332dbfa027323a180b805f6701039076272",
      "blockNumber": 48156,
      "transactionIndex": 0,
      "confirmations": null,
      "from": "0x664B099B945b899AaC84DA69dd6D4eEb3D03c8a3",
      "gasPrice": {
        "_hex": "0x1176592e000"
      },
      "gasLimit": {
        "_hex": "0x55f0"
      },
      "to": "0x2910543Af39abA0Cd09dBb2D50200b3E800A63D2",
      "value": {
        "_hex": "0x4563918244f400000"
      },
      "nonce": 1,
      "data": "0x454e305941315a4338",
      "r": "0xd9cdcdc32db2175485289febc0b439ad5b3441c482f12690d6a350ac78b83fb8",
      "s": "0x8f3069f745730068dcb3c291e3231ceb07b7e407836c5a855697df2a4751b2db",
      "v": 28,
      "creates": null,
      "raw": "0xf877018601176592e0008255f0942910543af39aba0cd09dbb2d50200b3e800a63d28904563918244f40000089454e305941315a43381ca0d9cdcdc32db2175485289febc0b439ad5b3441c482f12690d6a350ac78b83fb8a08f3069f745730068dcb3c291e3231ceb07b7e407836c5a855697df2a4751b2db",
      "networkId": 0,
      "chainId": 0
    },
    {
      "hash": "0xd702e3c36550f0211db23c93a2ca221a18f71a9eabf5f65fe9484d4b114562bd",
      "blockHash": "0xbf30829b883eed6b05269761fb3ee332dbfa027323a180b805f6701039076272",
      "blockNumber": 48156,
      "transactionIndex": 1,
      "confirmations": null,
      "from": "0x82f854c9C2F087dFfA985Ac8201E626cA5467686",
      "gasPrice": {
        "_hex": "0x110c8f7d8de"
      },
      "gasLimit": {
        "_hex": "0xc350"
      },
      "to": "0x2910543Af39abA0Cd09dBb2D50200b3E800A63D2",
      "value": {
        "_hex": "0x58d15e176280000"
      },
      "nonce": 2,
      "data": "0x454e45505744565838",
      "r": "0x0fdeb6994bb8cb0ff5ca322822b659987916b4fd119939c7ba1c9bb8366258a2",
      "s": "0x2ff20464af12eb975ebfa00b36852f2764ae5d786bcd8eef63a012a85e5646a9",
      "v": 28,
      "creates": null,
      "raw": "0xf87602860110c8f7d8de82c350942910543af39aba0cd09dbb2d50200b3e800a63d288058d15e17628000089454e455057445658381ca00fdeb6994bb8cb0ff5ca322822b659987916b4fd119939c7ba1c9bb8366258a2a02ff20464af12eb975ebfa00b36852f2764ae5d786bcd8eef63a012a85e5646a9",
      "networkId": 0,
      "chainId": 0
    }
  ]
}