{
  "hash": "0x5a45f329d2079b880277a9d22d1bbfd7b8a20498873b2ab8d9e4e509f77a572d",
  "parentHash": "0x826fb422c30bc521d72fb6c9e794cd967aaf638b5172605d3d8bd43721ccff33",
  "number": 98942,
  "timestamp": 1439781641,
  "nonce": "0xb740d0aa40908875",
  "difficulty": 3849782732588,
  "gasLimit": {
    "_hex": "0x2fefd8"
  },
  "gasUsed": {
    "_hex": "0x5208"
  },
  "miner": "0xe6A7a1d47ff21B6321162AEA7C6CB457D5476Bca",
  "extraData": "0x476574682f76312e302e312d38326566323666362f6c696e75782f676f312e34",
  "transactions": [
    {
      "hash": "0x0b57793cf64da28cf81d02eceab78416fb5a859e0671786ee18714f0a14e1d45",
      "blockHash": "0x5a45f329d2079b880277a9d22d1bbfd7b8a20498873b2ab8d9e4e509f77a572d",
      "blockNumber": 98942,
      "transactionIndex": 0,
      "confirmations": null,
      "from": "0x2910543Af39abA0Cd09dBb2D50200b3E800A63D2",
      "gasPrice": {
        "_hex": "0xd7f9eb248"
      },
      "gasLimit": {
        "_hex": "0x5208"
      },
      "to": "0x2be0891637A46bd64D778d489c9B277c0Cb624eB",
      "value": {
        "_hex": "0xf0bf2faf199de38000"
      },
      "nonce": 937,
      "data": "0x",
      "r": "0xa920f58dba5e4221008223e8b3ca80dd5e3f38a4df453df33c84cebb9333fe3b",
      "s": "0x132933b4c226d7d8ca4210bdedbadf22930eef10cb6f6e8f16154cce1b4f369f",
      "v": 28,
      "creates": null,
      "raw": "0xf86f8203a9850d7f9eb248825208942be0891637a46bd64d778d489c9b277c0cb624eb89f0bf2faf199de38000801ca0a920f58dba5e4221008223e8b3ca80dd5e3f38a4df453df33c84cebb9333fe3ba0132933b4c226d7d8ca4210bdedbadf22930eef10cb6f6e8f16154cce1b4f369f",
      "networkId": 0,
      "chainId": 0
    }
  ]
}