{
  "hash": "0xc35f3e94a0d1d4c7cdedf5e3b330f135a297b4ae347626a7275eaffed8c20976",
  "parentHash": "0xce6e796149af8e25c40c8169baee124f648063e5bfade146b457bf7f622b1fe3",
  "number": 55500,
  "timestamp": 1439071715,
  "nonce": "0xad5883742b26c8db",
  "difficulty": 1625812735450,
  "gasLimit": {
    "_hex": "0x2fefd8"
  },
  "gasUsed": {
    "_hex": "0xf618"
  },
  "miner": "0xeB1325C8D9d3ea8D74aC11F4B00F1B2367686319",
  "extraData": "0x476574682f76312e302e312f77696e646f77732f676f312e342e32",
  "transactions": [
    {
      "hash": "0x07fdfbd614a7b7ca0713159ef952ee7ad30d2d7bbc37f04d0f48df3f1f459d1f",
      "blockHash": "0xc35f3e94a0d1d4c7cdedf5e3b330f135a297b4ae347626a7275eaffed8c20976",
      "blockNumber": 55500,
      "transactionIndex": 0,
      "confirmations": null,
      "from": "0x06B0A142c49df51771F80A73C237BF6bd5C93bd1",
      "gasPrice": {
        "_hex": "0x10165f85289"
      },
      "gasLimit": {
        "_hex": "0x15f90"
      },
      "to": "0x26eAB902725342208bC79c5Bfa2C5fE795f7aeD6",
      "value": {
        "_hex": "0x6124fee993bc0000"
      },
      "nonce": 1,
      "data": "0x",
      "r": "0x7becc34773aa880fb7f01191ff9957b93bfbb6f86faad4c849a528d4ed0a4c7a",
      "s": "0x51f61464604efb38118f34490051cc0112d0dc215497b3d12566991034a885d7",
      "v": 27,
      "creates": null,
      "raw": "0xf86e0186010165f8528983015f909426eab902725342208bc79c5bfa2c5fe795f7aed6886124fee993bc0000801ba07becc34773aa880fb7f01191ff9957b93bfbb6f86faad4c849a528d4ed0a4c7aa051f61464604efb38118f34490051cc0112d0dc215497b3d12566991034a885d7",
      "networkId": 0,
      "chainId": 0
    },
    {
      "hash": "0x9877c53d3215a39ddb6f4b166dd75466621a370d805e45b05e26681cd08ffa54",
      "blockHash": "0xc35f3e94a0d1d4c7cdedf5e3b330f135a297b4ae347626a7275eaffed8c20976",
      "blockNumber": 55500,
      "transactionIndex": 1,
      "confirmations": null,
      "from": "0x5947168a79DB294bdA0dB697a2e4ec7Dfb2A0A5E",
      "gasPrice": {
        "_hex": "0xe000372c8"
      },
      "gasLimit": {
        "_hex": "0x15f90"
      },
      "to": "0x8AED25fA758454f45b7cABa6275aB50C5A8BfC70",
      "value": {
        "_hex": "0x13129c19a7a77f6"
      },
      "nonce": 7,
      "data": "0x",
      "r": "0xdcabcbf974c806f2db6fce8b4bc944181d4a62af16bede931d3f30ecfe26997f",
      "s": "0x69eb848050a86524400280fb7acb3ff0fd4d2244757b301d0c5c43b2ee792d1d",
      "v": 27,
      "creates": null,
      "raw": "0xf86d07850e000372c883015f90948aed25fa758454f45b7caba6275ab50c5a8bfc7088013129c19a7a77f6801ba0dcabcbf974c806f2db6fce8b4bc944181d4a62af16bede931d3f30ecfe26997fa069eb848050a86524400280fb7acb3ff0fd4d2244757b301d0c5c43b2ee792d1d",
      "networkId": 0,
      "chainId": 0
    },
    {
      "hash": "0x2de27924f80a650c6b7f42ffacbd4e2415cdc0f90df7fb9a40653d84c40619d0",
      "blockHash": "0xc35f3e94a0d1d4c7cdedf5e3b330f135a297b4ae347626a7275eaffed8c20976",
      "blockNumber": 55500,
      "transactionIndex": 2,
      "confirmations": null,
      "from": "0xa0A0e65204541Fca9b2fB282cd95138FAE16f809",
      "gasPrice": {
        "_hex": "0xd2b71d4ef"
      },
      "gasLimit": {
        "_hex": "0x5208"
      },
      "to": "0x3B4AF94C39e87281410A3B5Cf880b4a647459363",
      "value": {
        "_hex": "0x30ca024f987b900000"
      },
      "nonce": 6,
      "data": "0x",
      "r": "0x30d174c06e6babea0297c26ef3dabecd738f502fef89eb7a528d3080163c066a",
      "s": "0x4e729c4c4f8b228e218883866b72fceba3ec28faf14119ceec1ddc22299a094a",
      "v": 28,
      "creates": null,
      "raw": "0xf86d06850d2b71d4ef825208943b4af94c39e87281410a3b5cf880b4a6474593638930ca024f987b900000801ca030d174c06e6babea0297c26ef3dabecd738f502fef89eb7a528d3080163c066aa04e729c4c4f8b228e218883866b72fceba3ec28faf14119ceec1ddc22299a094a",
      "networkId": 0,
      "chainId": 0
    }
  ]
}