{
  "hash": "0x8ec0a6a5158490b6a56a41cf87efdfbca69e658409e17001d7abd46e36088f7a",
  "parentHash": "0x763f70b70ed3c1a47c6f9a8af7712d1a8919de4959fd6aa72f1165aa0be4cede",
  "number": 101755,
  "timestamp": 1439827578,
  "nonce": "0x04b86846879bc88b",
  "difficulty": 3884361896517,
  "gasLimit": {
    "_hex": "0x2fefd8"
  },
  "gasUsed": {
    "_hex": "0x5208"
  },
  "miner": "0x7871C9936A21B89507B5B65C7B13d8216D832D76",
  "extraData": "0x",
  "transactions": [
    {
      "hash": "0xc6eb9ab6c4d5b8f1d02ebcc32f4392b665c7eb7da2ce6ecc7a72d8e660af58b1",
      "blockHash": "0x8ec0a6a5158490b6a56a41cf87efdfbca69e658409e17001d7abd46e36088f7a",
      "blockNumber": 101755,
      "transactionIndex": 0,
      "confirmations": null,
      "from": "0x120A270bbC009644e35F0bB6ab13f95b8199c4ad",
      "gasPrice": {
        "_hex": "0xd4b4a1323"
      },
      "gasLimit": {
        "_hex": "0x3d090"
      },
      "to": "0xf4d9a6bdB61cA0316FEf11F642bFc8ed00301125",
      "value": {
        "_hex": "0xc249fdd327780000"
      },
      "nonce": 686,
      "data": "0x",
      "r": "0x2f39d2629429330d7644207e355904d423c3a7683de804defcaa82df837cfe57",
      "s": "0x1e7aaf7c2779b0822168e9e7f07ca5ec01471339f0b2a83792fdb05d90c3dc35",
      "v": 28,
      "creates": null,
      "raw": "0xf86f8202ae850d4b4a13238303d09094f4d9a6bdb61ca0316fef11f642bfc8ed0030112588c249fdd327780000801ca02f39d2629429330d7644207e355904d423c3a7683de804defcaa82df837cfe57a01e7aaf7c2779b0822168e9e7f07ca5ec01471339f0b2a83792fdb05d90c3dc35",
      "networkId": 0,
      "chainId": 0
    }
  ]
}