{
  "hash": "0x231a0d65355f6f6758a604b32ea22f9599c779117cfc8a770518a02e46d11252",
  "parentHash": "0xa0137ba0e27531681569bfe0c3558389a09f5f0667b4e0f5794310e9dfb853e6",
  "number": 61282,
  "timestamp": 1439169772,
  "nonce": "0xc84f243c9bbcc800",
  "difficulty": 1736245151716,
  "gasLimit": {
    "_hex": "0x2fefd8"
  },
  "gasUsed": {
    "_hex": "0x5208"
  },
  "miner": "0x88D74a59454F6cF3B51ef6b9136AFb6b9D405A88",
  "extraData": "0x476574682f76312e302e312d37666266393930632f6c696e75782f676f312e34",
  "transactions": [
    {
      "hash": "0x53ded0ca3317d1415801c1505e1f3b8a46e42b4088b4a5c8caa1a15bf8e874c6",
      "blockHash": "0x231a0d65355f6f6758a604b32ea22f9599c779117cfc8a770518a02e46d11252",
      "blockNumber": 61282,
      "transactionIndex": 0,
      "confirmations": null,
      "from": "0x120A270bbC009644e35F0bB6ab13f95b8199c4ad",
      "gasPrice": {
        "_hex": "0xd45facef6"
      },
      "gasLimit": {
        "_hex": "0x15f90"
      },
      "to": "0xF6F1A44309051c6B25e47dff909B179Bb9aB591C",
      "value": {
        "_hex": "0x2a48acab6204b00000"
      },
      "nonce": 72,
      "data": "0x",
      "r": "0x110068debac9b6afb13c5477f6c6039a5f889025797708f208e7da8355d2de96",
      "s": "0x162aa1002a3dedabf7a6a54be9af1f37f44624ad5848c050caa4b98d4d9f60fe",
      "v": 27,
      "creates": null,
      "raw": "0xf86e48850d45facef683015f9094f6f1a44309051c6b25e47dff909b179bb9ab591c892a48acab6204b00000801ba0110068debac9b6afb13c5477f6c6039a5f889025797708f208e7da8355d2de96a0162aa1002a3dedabf7a6a54be9af1f37f44624ad5848c050caa4b98d4d9f60fe",
      "networkId": 0,
      "chainId": 0
    }
  ]
}