{
  "hash": "0xb63349624f147b85d42a71799ac49fa2ba388bfa3d1cca2000e769f8d2bee15a",
  "parentHash": "0xa4197f68b8c72e943239c016fe573a46a11d2dcded829ff430685aa876a96b36",
  "number": 115100,
  "timestamp": 1440051453,
  "nonce": "0x8478e309223e3507",
  "difficulty": 4536274896369,
  "gasLimit": {
    "_hex": "0x2fefd8"
  },
  "gasUsed": {
    "_hex": "0x5208"
  },
  "miner": "0xe6A7a1d47ff21B6321162AEA7C6CB457D5476Bca",
  "extraData": "0x476574682f76312e302e312d38326566323666362f6c696e75782f676f312e34",
  "transactions": [
    {
      "hash": "0xf9c4dfe4a4e172245bad64a7f34df8bc9b4d15837567f2ad5344684db4886b69",
      "blockHash": "0xb63349624f147b85d42a71799ac49fa2ba388bfa3d1cca2000e769f8d2bee15a",
      "blockNumber": 115100,
      "transactionIndex": 0,
      "confirmations": null,
      "from": "0x2c640E5e3DE20DECa76ee10c5Fd6ECd074EFb3e8",
      "gasPrice": {
        "_hex": "0xd67e382f2"
      },
      "gasLimit": {
        "_hex": "0x7530"
      },
      "to": "0xa9f5E7bf6Cbf6fEc55B30850Eb492b47A376d050",
      "value": {
        "_hex": "0x15af1d78b58c40000"
      },
      "nonce": 5,
      "data": "0x",
      "r": "0x3203827806b1e997d715f438c909a2d4f5d4020ce3274b37c232096745fac948",
      "s": "0x5f06d0dea335e3bfc5fdecbd364b903237037dda4bb1f4c52cc0be23f9e4a9fe",
      "v": 28,
      "creates": null,
      "raw": "0xf86d05850d67e382f282753094a9f5e7bf6cbf6fec55b30850eb492b47a376d05089015af1d78b58c40000801ca03203827806b1e997d715f438c909a2d4f5d4020ce3274b37c232096745fac948a05f06d0dea335e3bfc5fdecbd364b903237037dda4bb1f4c52cc0be23f9e4a9fe",
      "networkId": 0,
      "chainId": 0
    }
  ]
}