{
  "hash": "0x1f3a1f3165684136eb833ca21cc543344de5ac2f8fca4ed14511ccde8d512416",
  "parentHash": "0xd098ba5c49a1749cfa2023dbe01278fb7672edf247297575bd481022d636fbc7",
  "number": 120571,
  "timestamp": 1440162151,
  "nonce": "0xda43c42647e8dd4f",
  "difficulty": 4430465923702,
  "gasLimit": {
    "_hex": "0x2fefd8"
  },
  "gasUsed": {
    "_hex": "0x14a84"
  },
  "miner": "0x52bc44d5378309EE2abF1539BF71dE1b7d7bE3b5",
  "extraData": "0xd783010002844765746887676f312e342e32856c696e7578",
  "transactions": [
    {
      "hash": "0xfc7cab87931a58bf8a81fb9a59298816407d956c8e16a02ff95e6bfad874b211",
      "blockHash": "0x1f3a1f3165684136eb833ca21cc543344de5ac2f8fca4ed14511ccde8d512416",
      "blockNumber": 120571,
      "transactionIndex": 0,
      "confirmations": null,
      "from": "0x0c925AD5eB352C8Ef76d0C222D115b0791B962a1",
      "gasPrice": {
        "_hex": "0x110c8f7d8de"
      },
      "gasLimit": {
        "_hex": "0xc350"
      },
      "to": "0x2910543Af39abA0Cd09dBb2D50200b3E800A63D2",
      "value": {
        "_hex": "0x9c2007651b2500000"
      },
      "nonce": 0,
      "data": "0x454e31465839443952",
      "r": "0xa28eb13e70700a5cd819da3d1a8a9bea17e60efebe5bf4d6ac217f9cbf6db3d7",
      "s": "0x1c4c5507251e5db55052c160d5ea83b775a2bffe2ba71dc13a1d0b777868a362",
      "v": 28,
      "creates": null,
      "raw": "0xf87780860110c8f7d8de82c350942910543af39aba0cd09dbb2d50200b3e800a63d28909c2007651b250000089454e314658394439521ca0a28eb13e70700a5cd819da3d1a8a9bea17e60efebe5bf4d6ac217f9cbf6db3d7a01c4c5507251e5db55052c160d5ea83b775a2bffe2ba71dc13a1d0b777868a362",
      "networkId": 0,
      "chainId": 0
    },
    {
      "hash": "0x8a93e3a1a92b31e543b948ef90d6dcebcb26d2de236e1cfcaf9139abb93c15f7",
      "blockHash": "0x1f3a1f3165684136eb833ca21cc543344de5ac2f8fca4ed14511ccde8d512416",
      "blockNumber": 120571,
      "transactionIndex": 1,
      "confirmations": null,
      "from": "0x4C528CB3344E1c623c8F6bb414f3a711F4F7C7F5",
      "gasPrice": {
        "_hex": "0xba43b7400"
      },
      "gasLimit": {
        "_hex": "0x5208"
      },
      "to": "0x32Be343B94f860124dC4fEe278FDCBD38C102D88",
      "value": {
        "_hex": "0xd8c9424f73c5500000"
      },
      "nonce": 1,
      "data": "0x",
      "r": "0x86850ece048e2515cf09d4555051f0b9f79af1bd91319f5813d6210df6898f6e",
      "s": "0x0b19e5e8cef98500c6e83a31cf5d0b95cfa46d0b47461932acdd3811ff901a3a",
      "v": 27,
      "creates": null,
      "raw": "0xf86d01850ba43b74008252089432be343b94f860124dc4fee278fdcbd38c102d8889d8c9424f73c5500000801ba086850ece048e2515cf09d4555051f0b9f79af1bd91319f5813d6210df6898f6ea00b19e5e8cef98500c6e83a31cf5d0b95cfa46d0b47461932acdd3811ff901a3a",
      "networkId": 0,
      "chainId": 0
    },
    {
      "hash": "0xea98954fb788ab53ca7987a04a82a312d7074c03230b78d44051b5c38a7dd4e2",
      "blockHash": "0x1f3a1f3165684136eb833ca21cc543344de5ac2f8fca4ed14511ccde8d512416",
      "blockNumber": 120571,
      "transactionIndex": 2,
      "confirmations": null,
      "from": "0xD0ee3F53eE0fCf3F9fbCcdd17BD1b6441DdC2074",
      "gasPrice": {
        "_hex": "0xba43b7400"
      },
      "gasLimit": {
        "_hex": "0x15f90"
      },
      "to": "0xdc2d5af138868A1C35b1fdAF8be9844D25BAB533",
      "value": {
        "_hex": "0x158f285380fea1f050"
      },
      "nonce": 2,
      "data": "0x",
      "r": "0xe97ef7d31bd6832983a0dd1493b3ff1cd83e332fd1cfabdd9bd5a014344ef32b",
      "s": "0x1b1cee6681808be670e2fd0016baadd9b98faca1a19200c8e5fa1f30c6864c6b",
      "v": 28,
      "creates": null,
      "raw": "0xf86e02850ba43b740083015f9094dc2d5af138868a1c35b1fdaf8be9844d25bab53389158f285380fea1f050801ca0e97ef7d31bd6832983a0dd1493b3ff1cd83e332fd1cfabdd9bd5a014344ef32ba01b1cee6681808be670e2fd0016baadd9b98faca1a19200c8e5fa1f30c6864c6b",
      "networkId": 0,
      "chainId": 0
    },
    {
      "hash": "0x8ecd7dcf9ee92001b553b73d85cbd7b8f55353231c58a282816975a5e965914e",
      "blockHash": "0x1f3a1f3165684136eb833ca21cc543344de5ac2f8fca4ed14511ccde8d512416",
      "blockNumber": 120571,
      "transactionIndex": 3,
      "confirmations": null,
      "from": "0x6De181Fc4C140FA31F196e5393516c49EEeBdAd3",
      "gasPrice": {
        "_hex": "0xba43b7400"
      },
      "gasLimit": {
        "_hex": "0x5208"
      },
      "to": "0x32Be343B94f860124dC4fEe278FDCBD38C102D88",
      "value": {
        "_hex": "0x46c69b4b1fadc8000"
      },
      "nonce": 25,
      "data": "0x",
      "r": "0x1ee38aecf256e04fb77ab5cefe32e2838fdc166e30530be4629e152a9a311557",
      "s": "0x5ff055c512d2733c09e72e1b4b3cf84bbd45e4ca066a3c0244ef7df4f302dfb6",
      "v": 28,
      "creates": null,
      "raw": "0xf86d19850ba43b74008252089432be343b94f860124dc4fee278fdcbd38c102d8889046c69b4b1fadc8000801ca01ee38aecf256e04fb77ab5cefe32e2838fdc166e30530be4629e152a9a311557a05ff055c512d2733c09e72e1b4b3cf84bbd45e4ca066a3c0244ef7df4f302dfb6",
      "networkId": 0,
      "chainId": 0
    }
  ]
}