{
  "hash": "0x4975a348d29fba5cbf6ca8489e1487cc357446a9126b20421a79e181558850da",
  "parentHash": "0x2664563fade7ee44bf587a363646c49fa83ce666c12297d1986c39567da767c4",
  "number": 60305,
  "timestamp": 1439153185,
  "nonce": "0xa86cb6aa4f4f12e3",
  "difficulty": 1745799093993,
  "gasLimit": {
    "_hex": "0x2fefd8"
  },
  "gasUsed": {
    "_hex": "0x5208"
  },
  "miner": "0xA1623430350C5df1b52B0b57483A5bb45d1796Da",
  "extraData": "0x476574682f76312e302e312d38326566323666362f6c696e75782f676f312e34",
  "transactions": [
    {
      "hash": "0x8af624f9ccfac62d68b609581a1a13b27e9aa9aaa2383bee44646ab0be3c1877",
      "blockHash": "0x4975a348d29fba5cbf6ca8489e1487cc357446a9126b20421a79e181558850da",
      "blockNumber": 60305,
      "transactionIndex": 0,
      "confirmations": null,
      "from": "0x430F8F6FDc140D44d9c99dA1f0A0e7ea541DB4b0",
      "gasPrice": {
        "_hex": "0xd06349aea"
      },
      "gasLimit": {
        "_hex": "0x15f90"
      },
      "to": "0x6111E933E5e6297DFd0AAd9aAB64017c69062a08",
      "value": {
        "_hex": "0x4563918244f40000"
      },
      "nonce": 8,
      "data": "0x",
      "r": "0xa2e3f2c0fdd2ccb463d2a06a52b6e5030c4d47b2267459fafbc143bc3821c643",
      "s": "0x1332525a15bba459306aab9fff2b43867b089267b89b1661d87a5d276d54f90f",
      "v": 28,
      "creates": null,
      "raw": "0xf86d08850d06349aea83015f90946111e933e5e6297dfd0aad9aab64017c69062a08884563918244f40000801ca0a2e3f2c0fdd2ccb463d2a06a52b6e5030c4d47b2267459fafbc143bc3821c643a01332525a15bba459306aab9fff2b43867b089267b89b1661d87a5d276d54f90f",
      "networkId": 0,
      "chainId": 0
    }
  ]
}