{
  "hash": "0x30ac3062278805437a8bb5ad115ffbbbf137f2baf59f09cc449923911debbbfa",
  "parentHash": "0x95fc8b313fcd430b7b73138976cc267fd25dc83b52e193f9ec56fb45c252034e",
  "number": 111306,
  "timestamp": 1439987998,
  "nonce": "0xff3a5c4414812bde",
  "difficulty": 4415913388947,
  "gasLimit": {
    "_hex": "0x2fefd8"
  },
  "gasUsed": {
    "_hex": "0x5208"
  },
  "miner": "0x007f7f58D3eb5b7510A301eCC749FC1fCDDBE14D",
  "extraData": "0x476574682f76312e302e312f77696e646f77732f676f312e342e32",
  "transactions": [
    {
      "hash": "0xb9acde258b1f5a5c1e738716b6153402e6f22303a5eebe0afdf43920dc935d42",
      "blockHash": "0x30ac3062278805437a8bb5ad115ffbbbf137f2baf59f09cc449923911debbbfa",
      "blockNumber": 111306,
      "transactionIndex": 0,
      "confirmations": null,
      "from": "0xF2d2AfF1320476cb8C6b607199D23175cc595693",
      "gasPrice": {
        "_hex": "0xd7d40ace3"
      },
      "gasLimit": {
        "_hex": "0x15f90"
      },
      "to": "0xF5EeDc192aB70b08D8354384aD94efD095849E00",
      "value": {
        "_hex": "0xa688906bd8b000000"
      },
      "nonce": 49,
      "data": "0x",
      "r": "0x7db729b0f7122a1554add09450a215eaae8c3c53499d61cb62d1f0f13979c79a",
      "s": "0x1c845bc485f0412f1ba7abe0b2d10260e2a4e7fd9366f0fa121193de4516ff30",
      "v": 28,
      "creates": null,
      "raw": "0xf86e31850d7d40ace383015f9094f5eedc192ab70b08d8354384ad94efd095849e00890a688906bd8b000000801ca07db729b0f7122a1554add09450a215eaae8c3c53499d61cb62d1f0f13979c79aa01c845bc485f0412f1ba7abe0b2d10260e2a4e7fd9366f0fa121193de4516ff30",
      "networkId": 0,
      "chainId": 0
    }
  ]
}