{
  "hash": "0xb9deccc06b904ac26f8a48e46aa6d7610507a9d886a13a812b7465fd94759cb7",
  "parentHash": "0x85de404a87e82f52a0efe6e08d5de804c8f04cb94304afbbf2644e568fb69b35",
  "number": 101243,
  "timestamp": 1439819737,
  "nonce": "0x5108c5bf507df2cd",
  "difficulty": 3820640939211,
  "gasLimit": {
    "_hex": "0x2fefd8"
  },
  "gasUsed": {
    "_hex": "0xa410"
  },
  "miner": "0xe6A7a1d47ff21B6321162AEA7C6CB457D5476Bca",
  "extraData": "0x476574682f76312e302e312d38326566323666362f6c696e75782f676f312e34",
  "transactions": [
    {
      "hash": "0x2188c74bdeb18e28e49c87ccb17d1b6eb8b0f96596c3cf311a73f1b294052178",
      "blockHash": "0xb9deccc06b904ac26f8a48e46aa6d7610507a9d886a13a812b7465fd94759cb7",
      "blockNumber": 101243,
      "transactionIndex": 0,
      "confirmations": null,
      "from": "0x3D5292e9d2a2D31014717ff936A0F9375A5Cc8b7",
      "gasPrice": {
        "_hex": "0xd4327d257"
      },
      "gasLimit": {
        "_hex": "0x15f90"
      },
      "to": "0x9f78552704fe7e52cC7C3853534aA2C3cf580D54",
      "value": {
        "_hex": "0xd02ab486cedc0000"
      },
      "nonce": 14,
      "data": "0x",
      "r": "0x74fd3cae9e8516590184fac03b0554cf0d9b5420d922bb16bd1cdd402ce5bc9d",
      "s": "0x739d380b619d242481b4720487fe7279962a3c9efe9dd1a404ae9aa92311ad17",
      "v": 27,
      "creates": null,
      "raw": "0xf86d0e850d4327d25783015f90949f78552704fe7e52cc7c3853534aa2c3cf580d5488d02ab486cedc0000801ba074fd3cae9e8516590184fac03b0554cf0d9b5420d922bb16bd1cdd402ce5bc9da0739d380b619d242481b4720487fe7279962a3c9efe9dd1a404ae9aa92311ad17",
      "networkId": 0,
      "chainId": 0
    },
    {
      "hash": "0x60dff37d07b438e5499e473792ce08067791b1323dcbecb463af0a09258d2008",
      "blockHash": "0xb9deccc06b904ac26f8a48e46aa6d7610507a9d886a13a812b7465fd94759cb7",
      "blockNumber": 101243,
      "transactionIndex": 1,
      "confirmations": null,
      "from": "0x1498b7B299C45Ad396984E98FbBE68029fD3DA9c",
      "gasPrice": {
        "_hex": "0xba43b7400"
      },
      "gasLimit": {
        "_hex": "0x5208"
      },
      "to": "0xC47Aaa860008be6f65B58c6C6E02a84e666EfE31",
      "value": {
        "_hex": "0x1b0d0065371ae7ead0"
      },
      "nonce": 1,
      "data": "0x",
      "r": "0x19a7c6e764209956506c3c51233b2b953e5db9b4e3ada4c18ba1cac145d4df9f",
      "s": "0x640e92c546eebbf9323622c994b509dbec88e04f84ccf400be6d58a0a33eb9bf",
      "v": 27,
      "creates": null,
      "raw": "0xf86d01850ba43b740082520894c47aaa860008be6f65b58c6c6e02a84e666efe31891b0d0065371ae7ead0801ba019a7c6e764209956506c3c51233b2b953e5db9b4e3ada4c18ba1cac145d4df9fa0640e92c546eebbf9323622c994b509dbec88e04f84ccf400be6d58a0a33eb9bf",
      "networkId": 0,
      "chainId": 0
    }
  ]
}