{
  "hash": "0xe3c33b7a2f6d6d3d01ba212457da10bffcd9319e3537c9e396bc5ef922c77b35",
  "parentHash": "0x74159c1398bd70be55c66a90788e9bb46b4d06266d39461d436697817cce939f",
  "number": 105046,
  "timestamp": 1439880688,
  "nonce": "0xc756340e2c719a75",
  "difficulty": 4300009335917,
  "gasLimit": {
    "_hex": "0x2fefd8"
  },
  "gasUsed": {
    "_hex": "0xa410"
  },
  "miner": "0xa6BDc31c431B8F97848c9D60cbbe9660dc450eB7",
  "extraData": "0x",
  "transactions": [
    {
      "hash": "0x1f394c16b6ec50d5620b99dff20614fd33e410b22092ba7bbb0283070affa2d5",
      "blockHash": "0xe3c33b7a2f6d6d3d01ba212457da10bffcd9319e3537c9e396bc5ef922c77b35",
      "blockNumber": 105046,
      "transactionIndex": 0,
      "confirmations": null,
      "from": "0x72dcecdD4a7374231676f7fA910A678DfC7c98D6",
      "gasPrice": {
        "_hex": "0xd3e0dd636"
      },
      "gasLimit": {
        "_hex": "0x15f90"
      },
      "to": "0xBDe8541989cF94E88cA73e2D46a8839414968F9B",
      "value": {
        "_hex": "0x7ce66c50e2840000"
      },
      "nonce": 9,
      "data": "0x",
      "r": "0x5bb86030296aabd179ae04df4566c643ca44469c17f3f9df2a7a3e9c37f51b97",
      "s": "0x6a620e843ce6a1dd5d3218e669b34492d4c0045f32537b7628a9e9fb8f7d2236",
      "v": 28,
      "creates": null,
      "raw": "0xf86d09850d3e0dd63683015f9094bde8541989cf94e88ca73e2d46a8839414968f9b887ce66c50e2840000801ca05bb86030296aabd179ae04df4566c643ca44469c17f3f9df2a7a3e9c37f51b97a06a620e843ce6a1dd5d3218e669b34492d4c0045f32537b7628a9e9fb8f7d2236",
      "networkId": 0,
      "chainId": 0
    },
    {
      "hash": "0xafaebf5d56fbf473dd1645ed91b1371a9299d1db6e5195c42357a13a2d753392",
      "blockHash": "0xe3c33b7a2f6d6d3d01ba212457da10bffcd9319e3537c9e396bc5ef922c77b35",
      "blockNumber": 105046,
      "transactionIndex": 1,
      "confirmations": null,
      "from": "0x663555F143e6a4674c0FdF2e73f12fdaf5D51112",
      "gasPrice": {
        "_hex": "0xba43b7400"
      },
      "gasLimit": {
        "_hex": "0x5267"
      },
      "to": "0xc07082b0caEF1afaAA062CDae1c592c110B82aa5",
      "value": {
        "_hex": "0x1a5e27eef13e0000"
      },
      "nonce": 4,
      "data": "0x",
      "r": "0xb71c0f4b447300ea4d0b33285d1068f8ec12a55b4acd25dc931d9ed58d7b50dc",
      "s": "0xfe37b4fef4749e6ec91bea366b904e03dc91d6043dc628fcef355bca71a4b42e",
      "v": 27,
      "creates": null,
      "raw": "0xf86c04850ba43b740082526794c07082b0caef1afaaa062cdae1c592c110b82aa5881a5e27eef13e0000801ba0b71c0f4b447300ea4d0b33285d1068f8ec12a55b4acd25dc931d9ed58d7b50dca0fe37b4fef4749e6ec91bea366b904e03dc91d6043dc628fcef355bca71a4b42e",
      "networkId": 0,
      "chainId": 0
    }
  ]
}