{
  "hash": "0x029c85c99ea5b75d09c8373406825e57dbac3eba23464f0a9abbf6645f0cebf6",
  "parentHash": "0x3e70c2de4f1b37f375777899a52fcb1e61e12bb4c4d3d0f03088f95ea4a10597",
  "number": 111486,
  "timestamp": 1439991000,
  "nonce": "0xc9849d6d70308263",
  "difficulty": 4446108308532,
  "gasLimit": {
    "_hex": "0x2fefd8"
  },
  "gasUsed": {
    "_hex": "0x5208"
  },
  "miner": "0xe6A7a1d47ff21B6321162AEA7C6CB457D5476Bca",
  "extraData": "0x476574682f76312e302e312d38326566323666362f6c696e75782f676f312e34",
  "transactions": [
    {
      "hash": "0x61cb9e30fe73a209896d6bd770e60f08007e1a50185fb5bac0a079f7969adfbc",
      "blockHash": "0x029c85c99ea5b75d09c8373406825e57dbac3eba23464f0a9abbf6645f0cebf6",
      "blockNumber": 111486,
      "transactionIndex": 0,
      "confirmations": null,
      "from": "0x4A29dF8a7967b36664f256F18dAcf2e58E9f1E7E",
      "gasPrice": {
        "_hex": "0xd67dc2ed5"
      },
      "gasLimit": {
        "_hex": "0x5208"
      },
      "to": "0x32Be343B94f860124dC4fEe278FDCBD38C102D88",
      "value": {
        "_hex": "0xdc4f1065961530000"
      },
      "nonce": 6,
      "data": "0x",
      "r": "0x444650ead094d35a1122ba38ee5d0275d83e3f234b2f0549faf0a8b6856cf305",
      "s": "0x722bc69209b342f183d51ce24f16e13810906c0b7401ad50d6f7a24831fdb647",
      "v": 27,
      "creates": null,
      "raw": "0xf86d06850d67dc2ed58252089432be343b94f860124dc4fee278fdcbd38c102d88890dc4f1065961530000801ba0444650ead094d35a1122ba38ee5d0275d83e3f234b2f0549faf0a8b6856cf305a0722bc69209b342f183d51ce24f16e13810906c0b7401ad50d6f7a24831fdb647",
      "networkId": 0,
      "chainId": 0
    }
  ]
}