{
  "hash": "0x738f445f71c132f3efffb0f1496824ac7ba694cdc40015bd727617ecca5ee36c",
  "parentHash": "0xf0e2e549190c11600a270fb13188466fce8e11bcfc0b9abeea599187b46fbff6",
  "number": 54791,
  "timestamp": 1439060020,
  "nonce": "0x648d644d3badd40b",
  "difficulty": 1617240433860,
  "gasLimit": {
    "_hex": "0x2fe3db"
  },
  "gasUsed": {
    "_hex": "0x5208"
  },
  "miner": "0xbb7B8287f3F0a933474a79eAe42CBCa977791171",
  "extraData": "0x476574682f4c5649562f76312e302e312f6c696e75782f676f312e342e32",
  "transactions": [
    {
      "hash": "0x415abbec6492e27394dc94281d8e127e8e27fd322aaf90d6fd5716f399f7138a",
      "blockHash": "0x738f445f71c132f3efffb0f1496824ac7ba694cdc40015bd727617ecca5ee36c",
      "blockNumber": 54791,
      "transactionIndex": 0,
      "confirmations": null,
      "from": "0x5e1fBd4E58e2312b3C78d7aAAAfA10bf9C3189E3",
      "gasPrice": {
        "_hex": "0x10a46684d1f"
      },
      "gasLimit": {
        "_hex": "0x15f90"
      },
      "to": "0x5129857C8008747c19d683Fc29eEF4618f9932b8",
      "value": {
        "_hex": "0x3635c9adc5dea00000"
      },
      "nonce": 11,
      "data": "0x",
      "r": "0x09c0352a4fdbd467a0671f75361b413dbd7387d8e108afd0eb41e5a9365b4922",
      "s": "0x014a90d1e81937f6f64c4588186123cbae71f7231fcc5a0555a396e99440dfca",
      "v": 28,
      "creates": null,
      "raw": "0xf86f0b86010a46684d1f83015f90945129857c8008747c19d683fc29eef4618f9932b8893635c9adc5dea00000801ca009c0352a4fdbd467a0671f75361b413dbd7387d8e108afd0eb41e5a9365b4922a0014a90d1e81937f6f64c4588186123cbae71f7231fcc5a0555a396e99440dfca",
      "networkId": 0,
      "chainId": 0
    }
  ]
}