{
  "hash": "0x32e50760f9eb94d6522ddbf5c78e45dba303e6a8d623bb818a6297f72e60b072",
  "parentHash": "0x65cd0fac377f30dd6972a43612772734be4e9441bcb6bce9d648063688b70bd5",
  "number": 63227,
  "timestamp": 1439201206,
  "nonce": "0x11ddea2240a93001",
  "difficulty": 1807636710906,
  "gasLimit": {
    "_hex": "0x2fe3fc"
  },
  "gasUsed": {
    "_hex": "0x546c"
  },
  "miner": "0x9Fa9952255B2b06639A04D63804d4BdFFf6E2d7e",
  "extraData": "0x476574682f76312e302e302f77696e646f77732f676f312e342e32",
  "transactions": [
    {
      "hash": "0x60103a11d6d83c604306ac732cf8503db61b3ebd7410ed99ab64caca45e30e1f",
      "blockHash": "0x32e50760f9eb94d6522ddbf5c78e45dba303e6a8d623bb818a6297f72e60b072",
      "blockNumber": 63227,
      "transactionIndex": 0,
      "confirmations": null,
      "from": "0x1076212D4F758C8ec7121C1C7d74254926459284",
      "gasPrice": {
        "_hex": "0x110c8f7d8de"
      },
      "gasLimit": {
        "_hex": "0xc350"
      },
      "to": "0x2910543Af39abA0Cd09dBb2D50200b3E800A63D2",
      "value": {
        "_hex": "0x56a6418b505860000"
      },
      "nonce": 1,
      "data": "0x454e41323550335652",
      "r": "0x4f65870de017471119da7971c914b13f8bb41d6da1d5a38986d39ad921be54b5",
      "s": "0x095158bc763db1d6961350e659232a8cac432e83316f8d4055be20e046c203e3",
      "v": 27,
      "creates": null,
      "raw": "0xf87701860110c8f7d8de82c350942910543af39aba0cd09dbb2d50200b3e800a63d289056a6418b50586000089454e413235503356521ba04f65870de017471119da7971c914b13f8bb41d6da1d5a38986d39ad921be54b5a0095158bc763db1d6961350e659232a8cac432e83316f8d4055be20e046c203e3",
      "networkId": 0,
      "chainId": 0
    }
  ]
}