{
  "hash": "0x341bde7f9c9ab6abdafe6657edf5683d7efb8c6bd1ae2814356b73184546b954",
  "parentHash": "0x5814eff93b30c5e1c54707e3883f7b32f81f2aba8986c00bc7f2ed23ccc3fe24",
  "number": 77161,
  "timestamp": 1439432632,
  "nonce": "0x093942acb98b21da",
  "difficulty": 2241524326257,
  "gasLimit": {
    "_hex": "0x2fefd8"
  },
  "gasUsed": {
    "_hex": "0x546c"
  },
  "miner": "0x2f6BCe4fc330B69C9B4c2694d57C63Ec7B18feC7",
  "extraData": "0x476574682f76312e302e312f77696e646f77732f676f312e342e32",
  "transactions": [
    {
      "hash": "0x302066ed079ee876d1b528fb460aefbca9e13d8511e70404abcc7ebc1e9e7481",
      "blockHash": "0x341bde7f9c9ab6abdafe6657edf5683d7efb8c6bd1ae2814356b73184546b954",
      "blockNumber": 77161,
      "transactionIndex": 0,
      "confirmations": null,
      "from": "0xE7FD8fd959aEd2767ea7FA960ce1DB53AF802573",
      "gasPrice": {
        "_hex": "0x110c8f7d8de"
      },
      "gasLimit": {
        "_hex": "0xc350"
      },
      "to": "0x2910543Af39abA0Cd09dBb2D50200b3E800A63D2",
      "value": {
        "_hex": "0x1b19a5185d01870000"
      },
      "nonce": 1,
      "data": "0x454e50523359514d47",
      "r": "0xa8645c6af76de33413244164762495d1da25f68c8ad177089010da0a36568f0c",
      "s": "0x30d2825f853ade9ad9c7ee8e62bb8a8f219e8c8b5d47fbfe0fbcfb75ac5c9eb4",
      "v": 28,
      "creates": null,
      "raw": "0xf87701860110c8f7d8de82c350942910543af39aba0cd09dbb2d50200b3e800a63d2891b19a5185d0187000089454e50523359514d471ca0a8645c6af76de33413244164762495d1da25f68c8ad177089010da0a36568f0ca030d2825f853ade9ad9c7ee8e62bb8a8f219e8c8b5d47fbfe0fbcfb75ac5c9eb4",
      "networkId": 0,
      "chainId": 0
    }
  ]
}