{
  "hash": "0x8ca3469cfea1bffcb4182235af834b71e24eafd35f70a5a5da91ee53854ece26",
  "parentHash": "0x924cf0e7a0e39fe33086fa77b7a3952a3d9c5d80da0f8ee9023b3334173e5086",
  "number": 82275,
  "timestamp": 1439516540,
  "nonce": "0x499457f5dcc02c55",
  "difficulty": 2377660017315,
  "gasLimit": {
    "_hex": "0x2fefd8"
  },
  "gasUsed": {
    "_hex": "0xa410"
  },
  "miner": "0xf927a40C8B7F6E07c5af7FA2155B4864a4112B13",
  "extraData": "0x",
  "transactions": [
    {
      "hash": "0xfa3c11515ebebb760a1605d35cda082179f5788f161213d074bdec724c8766a5",
      "blockHash": "0x8ca3469cfea1bffcb4182235af834b71e24eafd35f70a5a5da91ee53854ece26",
      "blockNumber": 82275,
      "transactionIndex": 0,
      "confirmations": null,
      "from": "0x32Be343B94f860124dC4fEe278FDCBD38C102D88",
      "gasPrice": {
        "_hex": "0xd9b95e6d4"
      },
      "gasLimit": {
        "_hex": "0x5208"
      },
      "to": "0xb2169f1326FE9745321aD99563654089bAdf09eb",
      "value": {
        "_hex": "0x56ba3d73af34f0000"
      },
      "nonce": 623,
      "data": "0x",
      "r": "0x8f972a025297762a063621ff498e1aaa400498e3e927023a1dd7146a48d0e740",
      "s": "0x068ddc11bf03fce4003eac00c16966d262c46972242fc802fa75fc6bfa7cdea4",
      "v": 28,
      "creates": null,
      "raw": "0xf86f82026f850d9b95e6d482520894b2169f1326fe9745321ad99563654089badf09eb89056ba3d73af34f0000801ca08f972a025297762a063621ff498e1aaa400498e3e927023a1dd7146a48d0e740a0068ddc11bf03fce4003eac00c16966d262c46972242fc802fa75fc6bfa7cdea4",
      "networkId": 0,
      "chainId": 0
    },
    {
      "hash": "0x109b378f45f807ce3a8f005a916de9260555dacf7040b13469bfdf879ff21059",
      "blockHash": "0x8ca3469cfea1bffcb4182235af834b71e24eafd35f70a5a5da91ee53854ece26",
      "blockNumber": 82275,
      "transactionIndex": 1,
      "confirmations": null,
      "from": "0x120A270bbC009644e35F0bB6ab13f95b8199c4ad",
      "gasPrice": {
        "_hex": "0xce77e6fb6"
      },
      "gasLimit": {
        "_hex": "0x3d090"
      },
      "to": "0xFbc92cE518a6CA6341B08b4468880Cc9Dd61a027",
      "value": {
        "_hex": "0x19b971f596c3a48000"
      },
      "nonce": 395,
      "data": "0x",
      "r": "0x531cb0feb8afdcbcb0024d4f93013abd551f61436befde4be44f7b5840f404d3",
      "s": "0x78b6fcc551a768d22e35a6a1985565bf51948ba427260fee3509614a34cf67cb",
      "v": 27,
      "creates": null,
      "raw": "0xf87082018b850ce77e6fb68303d09094fbc92ce518a6ca6341b08b4468880cc9dd61a0278919b971f596c3a48000801ba0531cb0feb8afdcbcb0024d4f93013abd551f61436befde4be44f7b5840f404d3a078b6fcc551a768d22e35a6a1985565bf51948ba427260fee3509614a34cf67cb",
      "networkId": 0,
      "chainId": 0
    }
  ]
}