{
  "hash": "0xb6b3d7bf95dd524a871743bf07fe9dc0c74814e4452630bd49192d475e851f13",
  "parentHash": "0x921e4abbae431b6c1791b5c429d58e23e69d307e5daf57fd440158ea95f24fc2",
  "number": 101562,
  "timestamp": 1439824640,
  "nonce": "0x110e831a78ca5e69",
  "difficulty": 3886348434601,
  "gasLimit": {
    "_hex": "0x2fefd8"
  },
  "gasUsed": {
    "_hex": "0x5208"
  },
  "miner": "0x47ff6576639c2e94762eA5443978D7681C0E78DC",
  "extraData": "0x476574682f76312e302e312f6c696e75782f676f312e342e32",
  "transactions": [
    {
      "hash": "0x5a856ab8fb5f7ad46c4ce17af13261b19d7eee928e546461ae2cb4f253063afc",
      "blockHash": "0xb6b3d7bf95dd524a871743bf07fe9dc0c74814e4452630bd49192d475e851f13",
      "blockNumber": 101562,
      "transactionIndex": 0,
      "confirmations": null,
      "from": "0x4a900C6a7785648E677cd96E39603466c0C7744A",
      "gasPrice": {
        "_hex": "0xcb4f1dde4"
      },
      "gasLimit": {
        "_hex": "0x5208"
      },
      "to": "0x32Be343B94f860124dC4fEe278FDCBD38C102D88",
      "value": {
        "_hex": "0x5b8ebff699599400"
      },
      "nonce": 3,
      "data": "0x",
      "r": "0x02a19ef201ccfe04d313256add6878e68cfc1fd2c565a803b9927a0bb54b8ad4",
      "s": "0x358fc40e4d1c086be752c39fd69e1243e5abe08264c113c6a829d5470574fa06",
      "v": 27,
      "creates": null,
      "raw": "0xf86c03850cb4f1dde48252089432be343b94f860124dc4fee278fdcbd38c102d88885b8ebff699599400801ba002a19ef201ccfe04d313256add6878e68cfc1fd2c565a803b9927a0bb54b8ad4a0358fc40e4d1c086be752c39fd69e1243e5abe08264c113c6a829d5470574fa06",
      "networkId": 0,
      "chainId": 0
    }
  ]
}