{
  "hash": "0x9fb4c7eb3e7c9d974638c6efbe5f343a550422b1be636ef6cdedc6067cf77f41",
  "parentHash": "0x9b357f7c103a1cdf84237dd4ec932fe68cf1e8e36ee61c799e1c4ef7c4e872c1",
  "number": 73585,
  "timestamp": 1439371478,
  "nonce": "0xe6129fa7cf0aab36",
  "difficulty": 2229378961848,
  "gasLimit": {
    "_hex": "0x2fefd8"
  },
  "gasUsed": {
    "_hex": "0x5208"
  },
  "miner": "0x71744De37e18561C508082EA27aee707190C429b",
  "extraData": "0x67616e7a207669656c65204b61747a656e",
  "transactions": [
    {
      "hash": "0x72352b236f42ce1433c1d27a2fc876b3328fa1705bc8ad985def57ac3757a618",
      "blockHash": "0x9fb4c7eb3e7c9d974638c6efbe5f343a550422b1be636ef6cdedc6067cf77f41",
      "blockNumber": 73585,
      "transactionIndex": 0,
      "confirmations": null,
      "from": "0x097738363B1662599ad0777E19461601F5EC8dF9",
      "gasPrice": {
        "_hex": "0xde175f4ba"
      },
      "gasLimit": {
        "_hex": "0x5208"
      },
      "to": "0x32Be343B94f860124dC4fEe278FDCBD38C102D88",
      "value": {
        "_hex": "0xddc440d00515000"
      },
      "nonce": 15,
      "data": "0x",
      "r": "0x4a3d8d4853c423a4d584067c6f16e2b42fe18d9b7dac40d56faf5988d0deeb5a",
      "s": "0x153645b7f7cc6e9bbb75490afe609d9a3867146b14b43f4a9153ed44272ce7dc",
      "v": 27,
      "creates": null,
      "raw": "0xf86c0f850de175f4ba8252089432be343b94f860124dc4fee278fdcbd38c102d88880ddc440d00515000801ba04a3d8d4853c423a4d584067c6f16e2b42fe18d9b7dac40d56faf5988d0deeb5aa0153645b7f7cc6e9bbb75490afe609d9a3867146b14b43f4a9153ed44272ce7dc",
      "networkId": 0,
      "chainId": 0
    }
  ]
}