{
  "hash": "0xb84a769bca11a46f08a259f5d3691f88f4fbfca82fb70cfc9af7bcc911e290f8",
  "parentHash": "0x27bf66179d82f30ba9826bdcc4bb3a546efeb24560184f5bbe58d35bf983ba48",
  "number": 51626,
  "timestamp": 1439008116,
  "nonce": "0x94e68d8aeae9ab56",
  "difficulty": 1559674992875,
  "gasLimit": {
    "_hex": "0xc6ea1"
  },
  "gasUsed": {
    "_hex": "0x7a120"
  },
  "miner": "0x01d9DA08cc6Fb97c0DE1B6F4C28910A0859Ed1A1",
  "extraData": "0x476574682f76312e302e312f6c696e75782f676f312e342e32",
  "transactions": [
    {
      "hash": "0xbe97e96e1d8f5777217c0ed9d4ba10083146f6a33b0f9eeacdf24bc717f6539a",
      "blockHash": "0xb84a769bca11a46f08a259f5d3691f88f4fbfca82fb70cfc9af7bcc911e290f8",
      "blockNumber": 51626,
      "transactionIndex": 0,
      "confirmations": null,
      "from": "0xFCf9f6A78f06227522c6f948ec0119dA31680Ef7",
      "gasPrice": {
        "_hex": "0xdc4b653f2"
      },
      "gasLimit": {
        "_hex": "0x7a120"
      },
      "to": "0x109C4f2CCc82C4d77Bde15F306707320294Aea3F",
      "value": {
        "_hex": "0xde0b6b3a7640000"
      },
      "nonce": 34,
      "data": "0x",
      "r": "0xc41f9ba8fe82e80f26e8da84b93d3ac11b7ee74983cb5eb595f2e5c4e8152b57",
      "s": "0x2d2c93ab8f3d2ae944020f69a856f2dc0c186d1a94b9c975754468bac0f3b512",
      "v": 28,
      "creates": null,
      "raw": "0xf86d22850dc4b653f28307a12094109c4f2ccc82c4d77bde15f306707320294aea3f880de0b6b3a7640000801ca0c41f9ba8fe82e80f26e8da84b93d3ac11b7ee74983cb5eb595f2e5c4e8152b57a02d2c93ab8f3d2ae944020f69a856f2dc0c186d1a94b9c975754468bac0f3b512",
      "networkId": 0,
      "chainId": 0
    }
  ]
}