{
  "hash": "0x871cc51e0e1fd3847049d19c86d1d41718d651322fe564980a602a0f36524070",
  "parentHash": "0xd14bb6f36cecede400e5ad371eb384abe1e66ea1519d7b494dac85b990e78e37",
  "number": 93679,
  "timestamp": 1439695743,
  "nonce": "0xcc7f14617d30ad16",
  "difficulty": 3431239090335,
  "gasLimit": {
    "_hex": "0x2fefd8"
  },
  "gasUsed": {
    "_hex": "0x5d9f"
  },
  "miner": "0xf927a40C8B7F6E07c5af7FA2155B4864a4112B13",
  "extraData": "0x",
  "transactions": [
    {
      "hash": "0xea7ce4cbbb16f102742d6a057ffd014fb39d49fc2aee8111a2c7a5c47d505228",
      "blockHash": "0x871cc51e0e1fd3847049d19c86d1d41718d651322fe564980a602a0f36524070",
      "blockNumber": 93679,
      "transactionIndex": 0,
      "confirmations": null,
      "from": "0x02020D22dCF88f5eDd66B382D7da019F161fB7e3",
      "gasPrice": {
        "_hex": "0xd02b990b6"
      },
      "gasLimit": {
        "_hex": "0x15f90"
      },
      "to": "0xCAc7000C7dBaa2E33Af15325AF5D435E011C7BdD",
      "value": {
        "_hex": "0x56bc75e2d631000000"
      },
      "nonce": 28,
      "data": "0xb214faa5384e53354b355737410000000000000000000000000000000000000000000000",
      "r": "0x7d145ca8d61015e2fad4e7b99ec2ebda03a652fdce0998fd1283362145396453",
      "s": "0x77e65d532961cb07f3f0f34b72092f2c1759637b48c7421e6067f910c0063c59",
      "v": 28,
      "creates": null,
      "raw": "0xf8921c850d02b990b683015f9094cac7000c7dbaa2e33af15325af5d435e011c7bdd8956bc75e2d631000000a4b214faa5384e53354b3557374100000000000000000000000000000000000000000000001ca07d145ca8d61015e2fad4e7b99ec2ebda03a652fdce0998fd1283362145396453a077e65d532961cb07f3f0f34b72092f2c1759637b48c7421e6067f910c0063c59",
      "networkId": 0,
      "chainId": 0
    }
  ]
}