{
  "hash": "0xf7aa9d7012265f8cff3717b461a2494b14dae33dcf77858723113c04f144f64a",
  "parentHash": "0x80dfcc2eb155c4c7b99ee75ad8c82bbfdb301fce3dcedfd18db37c81b4a8ab14",
  "number": 105898,
  "timestamp": 1439895249,
  "nonce": "0xa225f88c52d512d1",
  "difficulty": 4457769116877,
  "gasLimit": {
    "_hex": "0x2fefd8"
  },
  "gasUsed": {
    "_hex": "0x6ed3"
  },
  "miner": "0xe6A7a1d47ff21B6321162AEA7C6CB457D5476Bca",
  "extraData": "0x476574682f76312e302e312d38326566323666362f6c696e75782f676f312e34",
  "transactions": [
    {
      "hash": "0xba72995f54a44e9abda3d0b18f22ecabe16d10a98cc72ecc7a4bd5855563f098",
      "blockHash": "0xf7aa9d7012265f8cff3717b461a2494b14dae33dcf77858723113c04f144f64a",
      "blockNumber": 105898,
      "transactionIndex": 0,
      "confirmations": null,
      "from": "0x87C5B5874A18B4306DF8a752a6C8cc3E82daFc19",
      "gasPrice": {
        "_hex": "0x10c22022422"
      },
      "gasLimit": {
        "_hex": "0x493e0"
      },
      "to": "0xD79B4C6791784184e2755B2fC1659eaaB0f80456",
      "value": {
        "_hex": "0x0"
      },
      "nonce": 293,
      "data": "0xbd66528a6b6b6b0000000000000000000000000000000000000000000000000000000000",
      "r": "0xc9ac872c87af9fe74e0aad8fa718c71ad1a218cdfe273b35f97e6101d2e1069d",
      "s": "0x701f4770d5490d82c94ad11644a883ae2e2eba721f9edbd3512623c19711846e",
      "v": 28,
      "creates": null,
      "raw": "0xf88c82012586010c22022422830493e094d79b4c6791784184e2755b2fc1659eaab0f8045680a4bd66528a6b6b6b00000000000000000000000000000000000000000000000000000000001ca0c9ac872c87af9fe74e0aad8fa718c71ad1a218cdfe273b35f97e6101d2e1069da0701f4770d5490d82c94ad11644a883ae2e2eba721f9edbd3512623c19711846e",
      "networkId": 0,
      "chainId": 0
    }
  ]
}