{
  "hash": "0x8db08f0b70b139196d1f19fa3f8ac7869d2d82101fabdf66225ff8acf346516b",
  "parentHash": "0x795cd25fe6c1cf3dc433c0147eecc294d166443a023b4f838cfca6fc61f1fc84",
  "number": 71850,
  "timestamp": 1439342900,
  "nonce": "0x7e1188f913b8311a",
  "difficulty": 2168634808216,
  "gasLimit": {
    "_hex": "0x2fefd8"
  },
  "gasUsed": {
    "_hex": "0xe608"
  },
  "miner": "0xe6A7a1d47ff21B6321162AEA7C6CB457D5476Bca",
  "extraData": "0x476574682f76312e302e312d38326566323666362f6c696e75782f676f312e34",
  "transactions": [
    {
      "hash": "0xfa66abc4f32860f2bccdb2a8f295df3777ce27b1434d676af53f87754c8977e1",
      "blockHash": "0x8db08f0b70b139196d1f19fa3f8ac7869d2d82101fabdf66225ff8acf346516b",
      "blockNumber": 71850,
      "transactionIndex": 0,
      "confirmations": null,
      "from": "0xfC372FF6927CB396d9cf29803500110Da632bC52",
      "gasPrice": {
        "_hex": "0x101d6da13a0"
      },
      "gasLimit": {
        "_hex": "0x5208"
      },
      "to": "0x60664De32450711A29F363c14A76107111689e17",
      "value": {
        "_hex": "0x3635c9adc5dea00000"
      },
      "nonce": 7,
      "data": "0x",
      "r": "0x51b4284886f5bb53e0996fe0ec2fb45dd770712e1dcccbac12fa5c9d1868997d",
      "s": "0x376c3386f946f4a36d172daa87259f23616a2e84d433f645b0e267e2fea6b45a",
      "v": 28,
      "creates": null,
      "raw": "0xf86e07860101d6da13a08252089460664de32450711a29f363c14a76107111689e17893635c9adc5dea00000801ca051b4284886f5bb53e0996fe0ec2fb45dd770712e1dcccbac12fa5c9d1868997da0376c3386f946f4a36d172daa87259f23616a2e84d433f645b0e267e2fea6b45a",
      "networkId": 0,
      "chainId": 0
    },
    {
      "hash": "0xc2e2b81c0be3ffa221875d893e44029b77c2c104c87b1673a465983edc4779c5",
      "blockHash": "0x8db08f0b70b139196d1f19fa3f8ac7869d2d82101fabdf66225ff8acf346516b",
      "blockNumber": 71850,
      "transactionIndex": 1,
      "confirmations": null,
      "from": "0x17580B766f7453525ca4C6A88b01b50570EA088C",
      "gasPrice": {
        "_hex": "0xd00079f36"
      },
      "gasLimit": {
        "_hex": "0x61a80"
      },
      "to": "0x5Fe5B7546D1628f7348B023A0393de1FC825A4fD",
      "value": {
        "_hex": "0x29a2241af62c0000"
      },
      "nonce": 269,
      "data": "0xb595b8b50000000000000000000000000000000000000000000000000000000000000001",
      "r": "0x0787477ee382aae81dd0365d112e27b7d810388d27562f8cf0827dd03549e9f4",
      "s": "0x2ed0cd0b40ba2f7282e6a1cce50e70c57070496f084a5880da2a31ad5e656ede",
      "v": 28,
      "creates": null,
      "raw": "0xf89382010d850d00079f3683061a80945fe5b7546d1628f7348b023a0393de1fc825a4fd8829a2241af62c0000a4b595b8b500000000000000000000000000000000000000000000000000000000000000011ca00787477ee382aae81dd0365d112e27b7d810388d27562f8cf0827dd03549e9f4a02ed0cd0b40ba2f7282e6a1cce50e70c57070496f084a5880da2a31ad5e656ede",
      "networkId": 0,
      "chainId": 0
    }
  ]
}