{
  "hash": "0x8a03243134f210f5167178e88955cc4ef02d3e939efbc5aef116d3cf083603db",
  "parentHash": "0x196f9dde4167764ecd92f4af9e2c3e113da87e869d48c787119e640f28a346c5",
  "number": 88128,
  "timestamp": 1439603114,
  "nonce": "0xe8c0a938ba185eab",
  "difficulty": 3201946651171,
  "gasLimit": {
    "_hex": "0x2fefd8"
  },
  "gasUsed": {
    "_hex": "0x81a6"
  },
  "miner": "0xe6A7a1d47ff21B6321162AEA7C6CB457D5476Bca",
  "extraData": "0x476574682f76312e302e312d38326566323666362f6c696e75782f676f312e34",
  "transactions": [
    {
      "hash": "0xd451f97d8b989c5fd08e6a9e9107701b814dd56a1efde536d175da4759401cc4",
      "blockHash": "0x8a03243134f210f5167178e88955cc4ef02d3e939efbc5aef116d3cf083603db",
      "blockNumber": 88128,
      "transactionIndex": 0,
      "confirmations": null,
      "from": "0xFD2605a2bF58fDbB90db1Da55dF61628B47F9e8c",
      "gasPrice": {
        "_hex": "0xdc8b1c67b"
      },
      "gasLimit": {
        "_hex": "0x15f90"
      },
      "to": "0xa50156cF80fa9eC2e16899E4fb7e072300787417",
      "value": {
        "_hex": "0x0"
      },
      "nonce": 66,
      "data": "0x960edffb000000000000000000000000000000000000000000000000000000000000000100000000000000000000000000000000000000000000000000000000000000010000000000000000000000000000000000000000000000000000000000000000",
      "r": "0x98a8378a465f4d33b07e709799c37cac125e52f3c738b1033c7c5ea88f0ce38f",
      "s": "0x4ba0ffb94059e52a171e12c0e9221bed25389bcefcff41c27dde18506f88d359",
      "v": 27,
      "creates": null,
      "raw": "0xf8ca42850dc8b1c67b83015f9094a50156cf80fa9ec2e16899e4fb7e07230078741780b864960edffb0000000000000000000000000000000000000000000000000000000000000001000000000000000000000000000000000000000000000000000000000000000100000000000000000000000000000000000000000000000000000000000000001ba098a8378a465f4d33b07e709799c37cac125e52f3c738b1033c7c5ea88f0ce38fa04ba0ffb94059e52a171e12c0e9221bed25389bcefcff41c27dde18506f88d359",
      "networkId": 0,
      "chainId": 0
    }
  ]
}