{
  "hash": "0x63e39c64335f67371746daedc27c84032ef1d0e09d970359ebbe40d5528f3471",
  "parentHash": "0x80fadb5eefc55b940c6f6e0ef5b344c365c43dba9a32d4059ad2fc8f00d3f9fa",
  "number": 71309,
  "timestamp": 1439334057,
  "nonce": "0x2de9e3da27e21930",
  "difficulty": 2159264834951,
  "gasLimit": {
    "_hex": "0x2fefd8"
  },
  "gasUsed": {
    "_hex": "0x5208"
  },
  "miner": "0x445Aa5d2cB3Bc1A77460aB63C13328368d12fb9F",
  "extraData": "0x",
  "transactions": [
    {
      "hash": "0xf845dd22eb68d21ef4002bfbf94929e2ac011db32322c4ddb6d675c38e279cef",
      "blockHash": "0x63e39c64335f67371746daedc27c84032ef1d0e09d970359ebbe40d5528f3471",
      "blockNumber": 71309,
      "transactionIndex": 0,
      "confirmations": null,
      "from": "0x120A270bbC009644e35F0bB6ab13f95b8199c4ad",
      "gasPrice": {
        "_hex": "0xda5814f2a"
      },
      "gasLimit": {
        "_hex": "0x15f90"
      },
      "to": "0x5D0A4935EEC4434871C16A885443ae9F96589E6f",
      "value": {
        "_hex": "0x2ec78828f6746c4000"
      },
      "nonce": 226,
      "data": "0x",
      "r": "0xc6a2d529b972b1cd419b8b3ffae6bb4bbb9347f57145ba8dcf3d8fd05e6e324d",
      "s": "0x7861054789a5e391392722e6482bec8ee296f707a77bb05ed497e9f63e5a9f54",
      "v": 28,
      "creates": null,
      "raw": "0xf86f81e2850da5814f2a83015f90945d0a4935eec4434871c16a885443ae9f96589e6f892ec78828f6746c4000801ca0c6a2d529b972b1cd419b8b3ffae6bb4bbb9347f57145ba8dcf3d8fd05e6e324da07861054789a5e391392722e6482bec8ee296f707a77bb05ed497e9f63e5a9f54",
      "networkId": 0,
      "chainId": 0
    }
  ]
}