{
  "hash": "0x2c32e3fd913e34ca8de03eedaef07b8619a6eb22b346ae4c3ab2008445c349a2",
  "parentHash": "0xd28aefdf5c444810aecb4ddc3165cba39886bc8f8d747c6a4bd1f4b65c8c6dfb",
  "number": 75269,
  "timestamp": 1439400430,
  "nonce": "0x60aa883c9af349bd",
  "difficulty": 2198665157648,
  "gasLimit": {
    "_hex": "0x2fefd8"
  },
  "gasUsed": {
    "_hex": "0x20903"
  },
  "miner": "0x01d9DA08cc6Fb97c0DE1B6F4C28910A0859Ed1A1",
  "extraData": "0x476574682f76312e302e312f6c696e75782f676f312e342e32",
  "transactions": [
    {
      "hash": "0x251759b12f09a91119481965c5b465666cef1be3a7327703f7d4e81b7f97288d",
      "blockHash": "0x2c32e3fd913e34ca8de03eedaef07b8619a6eb22b346ae4c3ab2008445c349a2",
      "blockNumber": 75269,
      "transactionIndex": 0,
      "confirmations": null,
      "from": "0x326Be8F71bFb0379f989aAB1CC1fE37f0a771f60",
      "gasPrice": {
        "_hex": "0x1159e9fbee6"
      },
      "gasLimit": {
        "_hex": "0x493e0"
      },
      "to": "0xD79B4C6791784184e2755B2fC1659eaaB0f80456",
      "value": {
        "_hex": "0xde0b6b3a7640000"
      },
      "nonce": 90,
      "data": "0x8d21618600000000000000000000000000000000000000000000000000000000000000e682f6b8d36ae7ebffebb931897c804323fc5c5ce99fd78acc42c38c24658f0c13",
      "r": "0x2919176e0f41bd91ae778e83087c7cc6761bb370d3bfadd6261be1121873fd7f",
      "s": "0x7efd1f1ec442f8cf1454b9717a9f9bd013a2a23cfff2d6a467af2c0eb0262b05",
      "v": 27,
      "creates": null,
      "raw": "0xf8b35a8601159e9fbee6830493e094d79b4c6791784184e2755b2fc1659eaab0f80456880de0b6b3a7640000b8448d21618600000000000000000000000000000000000000000000000000000000000000e682f6b8d36ae7ebffebb931897c804323fc5c5ce99fd78acc42c38c24658f0c131ba02919176e0f41bd91ae778e83087c7cc6761bb370d3bfadd6261be1121873fd7fa07efd1f1ec442f8cf1454b9717a9f9bd013a2a23cfff2d6a467af2c0eb0262b05",
      "networkId": 0,
      "chainId": 0
    },
    {
      "hash": "0x8d2ff1403db99359409dff64dc8e85cafa7223144ef0e6487547fa0a2ec8b076",
      "blockHash": "0x2c32e3fd913e34ca8de03eedaef07b8619a6eb22b346ae4c3ab2008445c349a2",
      "blockNumber": 75269,
      "transactionIndex": 1,
      "confirmations": null,
      "from": "0xF23D01589EB12d439f7448fF54307529F191858d",
      "gasPrice": {
        "_hex": "0x110c8f7d8de"
      },
      "gasLimit": {
        "_hex": "0xc350"
      },
      "to": "0x2910543Af39abA0Cd09dBb2D50200b3E800A63D2",
      "value": {
        "_hex": "0x6c6a3016135fb60000"
      },
      "nonce": 0,
      "data": "0x454e414b5a57334838",
      "r": "0x3ac7e34505552241caa01939de27252be0231703d012777071d9732f1881c709",
      "s": "0x93d4ff49c4c739150e0882dd130f5b74bc512a712c30294ed41f1d98b0461b56",
      "v": 27,
      "creates": null,
      "raw": "0xf87780860110c8f7d8de82c350942910543af39aba0cd09dbb2d50200b3e800a63d2896c6a3016135fb6000089454e414b5a573348381ba03ac7e34505552241caa01939de27252be0231703d012777071d9732f1881c709a093d4ff49c4c739150e0882dd130f5b74bc512a712c30294ed41f1d98b0461b56",
      "networkId": 0,
      "chainId": 0
    }
  ]
}