{
  "hash": "0x1dc5a5ae05fc177dbb7a522dc792792fee2a6ff74a1cb5e04eaaca311f5931d5",
  "parentHash": "0x47c4644a46452c51b814bdb09aa0d61beff4eb40eddca39a6856e26f8b80cf61",
  "number": 105114,
  "timestamp": 1439881902,
  "nonce": "0xb89bf37bd2ee64b1",
  "difficulty": 4316804104785,
  "gasLimit": {
    "_hex": "0x2fefd8"
  },
  "gasUsed": {
    "_hex": "0x5208"
  },
  "miner": "0x55bAf64fc9eAccFFd7Cc643BB61142E1C6ac093e",
  "extraData": "0x",
  "transactions": [
    {
      "hash": "0xa5592a27e80e2bed45d4f5feb6c3836f1fb3eacaef12f0e7e19e335e341494c7",
      "blockHash": "0x1dc5a5ae05fc177dbb7a522dc792792fee2a6ff74a1cb5e04eaaca311f5931d5",
      "blockNumber": 105114,
      "transactionIndex": 0,
      "confirmations": null,
      "from": "0x2910543Af39abA0Cd09dBb2D50200b3E800A63D2",
      "gasPrice": {
        "_hex": "0xdfacf8ca3"
      },
      "gasLimit": {
        "_hex": "0x5208"
      },
      "to": "0x2915f76954D60f7dF1D8A3B395fFAF3A6175C525",
      "value": {
        "_hex": "0x27e4f10cedc178000"
      },
      "nonce": 1022,
      "data": "0x",
      "r": "0x6c7843e97918c04cabfca9d44cd2778a00dac450539d8d53d500d207d027fcbf",
      "s": "0x1edd0bb66183d6df0356cab771bb17f43fd38047afe030e6b3fcb0dfe932d1b8",
      "v": 27,
      "creates": null,
      "raw": "0xf86f8203fe850dfacf8ca3825208942915f76954d60f7df1d8a3b395ffaf3a6175c52589027e4f10cedc178000801ba06c7843e97918c04cabfca9d44cd2778a00dac450539d8d53d500d207d027fcbfa01edd0bb66183d6df0356cab771bb17f43fd38047afe030e6b3fcb0dfe932d1b8",
      "networkId": 0,
      "chainId": 0
    }
  ]
}