{
  "hash": "0xac4810d9cfa7843c220bf3c93973a58f45d70004198672e42155436986c636e8",
  "parentHash": "0xe62300fa5b6445516d86917dbe2492f57e0857d5b90c617f31e23cd2b01aa799",
  "number": 120151,
  "timestamp": 1440154851,
  "nonce": "0xefae78401fad7ff0",
  "difficulty": 4409106266213,
  "gasLimit": {
    "_hex": "0x2fefd8"
  },
  "gasUsed": {
    "_hex": "0x5208"
  },
  "miner": "0x52bc44d5378309EE2abF1539BF71dE1b7d7bE3b5",
  "extraData": "0xd783010002844765746887676f312e342e32856c696e7578",
  "transactions": [
    {
      "hash": "0x41ebdc556e77472e01dcbead65bfafef0913c4b963f5ee1ce1e8730e1542fcae",
      "blockHash": "0xac4810d9cfa7843c220bf3c93973a58f45d70004198672e42155436986c636e8",
      "blockNumber": 120151,
      "transactionIndex": 0,
      "confirmations": null,
      "from": "0x1463cEF3d9007Db05b7C3B8981D38602EE0D855a",
      "gasPrice": {
        "_hex": "0xba43b7400"
      },
      "gasLimit": {
        "_hex": "0x5208"
      },
      "to": "0x32Be343B94f860124dC4fEe278FDCBD38C102D88",
      "value": {
        "_hex": "0x15f8a8030866000"
      },
      "nonce": 9,
      "data": "0x",
      "r": "0xdb1b3c248d646bcbb78ab4171bc30b7fffb2b306f7cb67d6d9e51528352b779f",
      "s": "0x14d3e4f2df3d9b74f47a7c8e46dbfcf99dcd99b01342ef8c35734f9b3b56acaa",
      "v": 27,
      "creates": null,
      "raw": "0xf86c09850ba43b74008252089432be343b94f860124dc4fee278fdcbd38c102d8888015f8a8030866000801ba0db1b3c248d646bcbb78ab4171bc30b7fffb2b306f7cb67d6d9e51528352b779fa014d3e4f2df3d9b74f47a7c8e46dbfcf99dcd99b01342ef8c35734f9b3b56acaa",
      "networkId": 0,
      "chainId": 0
    }
  ]
}