{
  "hash": "0xd6a223fba9ddd5f13d164b502998407b9c91963167d75e2f5f62d948c8ce6a30",
  "parentHash": "0x1443df4bf1997928c6316ec2d3ce1cd4382e817f7926bc238ab888e3fb8be7a1",
  "number": 93199,
  "timestamp": 1439684973,
  "nonce": "0xea7a008f48061d2c",
  "difficulty": 3596113471188,
  "gasLimit": {
    "_hex": "0x2fefd8"
  },
  "gasUsed": {
    "_hex": "0x410e7"
  },
  "miner": "0xaEAf103356C2Ee943F748E8655659D29881323E1",
  "extraData": "0x476574682f76312e302e312f77696e646f77732f676f312e342e32",
  "transactions": [
    {
      "hash": "0x8e1bc7c073197fb95d7675504c29df2616cbd565e475bff422df92939f555e81",
      "blockHash": "0xd6a223fba9ddd5f13d164b502998407b9c91963167d75e2f5f62d948c8ce6a30",
      "blockNumber": 93199,
      "transactionIndex": 0,
      "confirmations": null,
      "from": "0x02020D22dCF88f5eDd66B382D7da019F161fB7e3",
      "gasPrice": {
        "_hex": "0xde8e93e73"
      },
      "gasLimit": {
        "_hex": "0x15f90"
      },
      "to": "0xCAc7000C7dBaa2E33Af15325AF5D435E011C7BdD",
      "value": {
        "_hex": "0x1bc16d674ec80000"
      },
      "nonce": 25,
      "data": "0xb214faa5384e53354b355737410000000000000000000000000000000000000000000000",
      "r": "0x7e7dd00deb3ab9e974e0b501576fe9428b1e2a2c7eaaa3996d1c65dbfb63e6f6",
      "s": "0x74e720d5aed69d13ad07f6c480ec4a70037a44b2d3c9c5b56ba2afb010128233",
      "v": 28,
      "creates": null,
      "raw": "0xf89119850de8e93e7383015f9094cac7000c7dbaa2e33af15325af5d435e011c7bdd881bc16d674ec80000a4b214faa5384e53354b3557374100000000000000000000000000000000000000000000001ca07e7dd00deb3ab9e974e0b501576fe9428b1e2a2c7eaaa3996d1c65dbfb63e6f6a074e720d5aed69d13ad07f6c480ec4a70037a44b2d3c9c5b56ba2afb010128233",
      "networkId": 0,
      "chainId": 0
    },
    {
      "hash": "0x91d6caefcadf4b071b6f0e6f6811182e053a8cbdcd830bd833e0e1aa4d2d2662",
      "blockHash": "0xd6a223fba9ddd5f13d164b502998407b9c91963167d75e2f5f62d948c8ce6a30",
      "blockNumber": 93199,
      "transactionIndex": 1,
      "confirmations": null,
      "from": "0x797e99024A03481AD2a00ffe9c98Fe145c817969",
      "gasPrice": {
        "_hex": "0xd815fc529"
      },
      "gasLimit": {
        "_hex": "0xf4240"
      },
      "to": null,
      "value": {
        "_hex": "0x0"
      },
      "nonce": 1,
      "data": "0x60606040526040516102b43803806102b48339016040526060805160600190602001505b5b33600060006101000a81548173ffffffffffffffffffffffffffffffffffffffff021916908302179055505b806001600050908051906020019082805482825590600052602060002090601f01602090048101928215609e579182015b82811115609d5782518260005055916020019190600101906081565b5b50905060c5919060a9565b8082111560c1576000818150600090555060010160a9565b5090565b50505b506101dc806100d86000396000f30060606040526000357c01000000000000000000000000000000000000000000000000000000009004806341c0e1b514610044578063cfae32171461005157610042565b005b61004f6004506100ca565b005b61005c60045061015e565b60405180806020018281038252838181518152602001915080519060200190808383829060006004602084601f0104600302600f01f150905090810190601f1680156100bc5780820380516001836020036101000a031916815260200191505b509250505060405180910390f35b600060009054906101000a900473ffffffffffffffffffffffffffffffffffffffff1673ffffffffffffffffffffffffffffffffffffffff163373ffffffffffffffffffffffffffffffffffffffff16141561015b57600060009054906101000a900473ffffffffffffffffffffffffffffffffffffffff1673ffffffffffffffffffffffffffffffffffffffff16ff5b5b565b60206040519081016040528060008152602001506001600050805480601f016020809104026020016040519081016040528092919081815260200182805480156101cd57820191906000526020600020905b8154815290600101906020018083116101b057829003601f168201915b505050505090506101d9565b9056000000000000000000000000000000000000000000000000000000000000002000000000000000000000000000000000000000000000000000000000000000114c696e7578c3a16bc5af6d207a64617221000000000000000000000000000000",
      "r": "0x6a7947e081fe4ece9fe362ff6f8eac8d7655c7fe830ea20ee8ddf06e7ef42272",
      "s": "0x0da6dd8140ef0cf5ccbaea07500efb5bb4f023d97a54242ccb266858cc0f1607",
      "v": 28,
      "creates": "0x4113CAa93A1B90A0659314052305FbE94D2b3D8B",
      "raw": "0xf9036701850d815fc529830f42408080b9031460606040526040516102b43803806102b48339016040526060805160600190602001505b5b33600060006101000a81548173ffffffffffffffffffffffffffffffffffffffff021916908302179055505b806001600050908051906020019082805482825590600052602060002090601f01602090048101928215609e579182015b82811115609d5782518260005055916020019190600101906081565b5b50905060c5919060a9565b8082111560c1576000818150600090555060010160a9565b5090565b50505b506101dc806100d86000396000f30060606040526000357c01000000000000000000000000000000000000000000000000000000009004806341c0e1b514610044578063cfae32171461005157610042565b005b61004f6004506100ca565b005b61005c60045061015e565b60405180806020018281038252838181518152602001915080519060200190808383829060006004602084601f0104600302600f01f150905090810190601f1680156100bc5780820380516001836020036101000a031916815260200191505b509250505060405180910390f35b600060009054906101000a900473ffffffffffffffffffffffffffffffffffffffff1673ffffffffffffffffffffffffffffffffffffffff163373ffffffffffffffffffffffffffffffffffffffff16141561015b57600060009054906101000a900473ffffffffffffffffffffffffffffffffffffffff1673ffffffffffffffffffffffffffffffffffffffff16ff5b5b565b60206040519081016040528060008152602001506001600050805480601f016020809104026020016040519081016040528092919081815260200182805480156101cd57820191906000526020600020905b8154815290600101906020018083116101b057829003601f168201915b505050505090506101d9565b9056000000000000000000000000000000000000000000000000000000000000002000000000000000000000000000000000000000000000000000000000000000114c696e7578c3a16bc5af6d207a646172210000000000000000000000000000001ca06a7947e081fe4ece9fe362ff6f8eac8d7655c7fe830ea20ee8ddf06e7ef42272a00da6dd8140ef0cf5ccbaea07500efb5bb4f023d97a54242ccb266858cc0f1607",
      "networkId": 0,
      "chainId": 0
    },
    {
      "hash": "0x6e96a21ed46e8e133906c2c20a49f40536686a6569419ea321ed3ae7eb7b06ae",
      "blockHash": "0xd6a223fba9ddd5f13d164b502998407b9c91963167d75e2f5f62d948c8ce6a30",
      "blockNumber": 93199,
      "transactionIndex": 2,
      "confirmations": null,
      "from": "0x2a48440fB39E0fb7E72631A2FFf5D7B6AE41770b",
      "gasPrice": {
        "_hex": "0xd7d40ace3"
      },
      "gasLimit": {
        "_hex": "0x15f90"
      },
      "to": "0xb1A2a1e9b8AC33fdcB2118b73A875b096AEd24aD",
      "value": {
        "_hex": "0x67f1d350f7ad0000"
      },
      "nonce": 0,
      "data": "0x",
      "r": "0xa49b1c9bc57ba272876122a895ce9745f354682f708492e2fef86f385c78ed68",
      "s": "0x44054aea441e52de3e78cf9b7d4c1f864cc7617af8b809f9cfd944e9c0b32875",
      "v": 28,
      "creates": null,
      "raw": "0xf86d80850d7d40ace383015f9094b1a2a1e9b8ac33fdcb2118b73a875b096aed24ad8867f1d350f7ad0000801ca0a49b1c9bc57ba272876122a895ce9745f354682f708492e2fef86f385c78ed68a044054aea441e52de3e78cf9b7d4c1f864cc7617af8b809f9cfd944e9c0b32875",
      "networkId": 0,
      "chainId": 0
    }
  ]
}