{
  "hash": "0x56d7563503947be76dc4c9ce831f9f707d1cb974272586da06cb8ea0ee271e3a",
  "parentHash": "0x0b24e3065e98532da385d8aa3cc86dbbe7fb20a222be27948161a8f0f1f6a713",
  "number": 55317,
  "timestamp": 1439068689,
  "nonce": "0x89ed594030bccbe9",
  "difficulty": 1634604281054,
  "gasLimit": {
    "_hex": "0x2fefd8"
  },
  "gasUsed": {
    "_hex": "0x546c"
  },
  "miner": "0x9746c7e1ef2bd21FF3997fa467593a89cb852BD0",
  "extraData": "0x476574682f76312e302e312f77696e646f77732f676f312e342e32",
  "transactions": [
    {
      "hash": "0xba7664cdc07b7047eedeaf6aec135f7bb1600f616f3b18f2fc9081fb9bcd2173",
      "blockHash": "0x56d7563503947be76dc4c9ce831f9f707d1cb974272586da06cb8ea0ee271e3a",
      "blockNumber": 55317,
      "transactionIndex": 0,
      "confirmations": null,
      "from": "0xFEaA6f0a842422DdD202CF41d44eFf708127136e",
      "gasPrice": {
        "_hex": "0x9184e72a000"
      },
      "gasLimit": {
        "_hex": "0x993f9"
      },
      "to": "0x2910543Af39abA0Cd09dBb2D50200b3E800A63D2",
      "value": {
        "_hex": "0xde0b6b3a7640000"
      },
      "nonce": 0,
      "data": "0x454e32544635393930",
      "r": "0x7cd7c38686cadeb2735f3a86d497b864759d28341e407dbd25c21b1c7b14d260",
      "s": "0x998900dcb232ef991b8dd5c4e73d2c34586fe67aee8a5993adbc4bf9257509b9",
      "v": 27,
      "creates": null,
      "raw": "0xf877808609184e72a000830993f9942910543af39aba0cd09dbb2d50200b3e800a63d2880de0b6b3a764000089454e325446353939301ba07cd7c38686cadeb2735f3a86d497b864759d28341e407dbd25c21b1c7b14d260a0998900dcb232ef991b8dd5c4e73d2c34586fe67aee8a5993adbc4bf9257509b9",
      "networkId": 0,
      "chainId": 0
    }
  ]
}