{
  "hash": "0xcfaf1d348ef3f511ccc92e68fd1bb5178431e7e8275abe5bd1fa42939ee0f9ad",
  "parentHash": "0xf1a9306edcecbe14fe557e54dcfffbb01d3bf4b5929ad379814fb7b1a464df84",
  "number": 84942,
  "timestamp": 1439556549,
  "nonce": "0xd9e22d98eeb39cba",
  "difficulty": 2694700800562,
  "gasLimit": {
    "_hex": "0x2fefd8"
  },
  "gasUsed": {
    "_hex": "0xf618"
  },
  "miner": "0xe6A7a1d47ff21B6321162AEA7C6CB457D5476Bca",
  "extraData": "0x476574682f76312e302e312d38326566323666362f6c696e75782f676f312e34",
  "transactions": [
    {
      "hash": "0x330e3bae1b31a64f425c227359a981b4211df3013a39c6021a4dc09dc063d1bb",
      "blockHash": "0xcfaf1d348ef3f511ccc92e68fd1bb5178431e7e8275abe5bd1fa42939ee0f9ad",
      "blockNumber": 84942,
      "transactionIndex": 0,
      "confirmations": null,
      "from": "0xa70a9a7040d542C632D8e0bE7c5513A8a5Bbc752",
      "gasPrice": {
        "_hex": "0xdb4f499eb"
      },
      "gasLimit": {
        "_hex": "0x5208"
      },
      "to": "0x32Be343B94f860124dC4fEe278FDCBD38C102D88",
      "value": {
        "_hex": "0x455f2d1e66b5d000"
      },
      "nonce": 83,
      "data": "0x",
      "r": "0xa0ad71cdc2185940fb854bb0dac5c309d84077ab63338fe0535a0871953b4edc",
      "s": "0x7b8765f8744092a89f2c45938653c7a569375e6b8262cd31cac501d5a8e3a12a",
      "v": 28,
      "creates": null,
      "raw": "0xf86c53850db4f499eb8252089432be343b94f860124dc4fee278fdcbd38c102d8888455f2d1e66b5d000801ca0a0ad71cdc2185940fb854bb0dac5c309d84077ab63338fe0535a0871953b4edca07b8765f8744092a89f2c45938653c7a569375e6b8262cd31cac501d5a8e3a12a",
      "networkId": 0,
      "chainId": 0
    },
    {
      "hash": "0xadaaaf5b109dbebb2155bf46cf8bf28e31eac5e6a0404fe83887d5bcd26a212d",
      "blockHash": "0xcfaf1d348ef3f511ccc92e68fd1bb5178431e7e8275abe5bd1fa42939ee0f9ad",
      "blockNumber": 84942,
      "transactionIndex": 1,
      "confirmations": null,
      "from": "0x2910543Af39abA0Cd09dBb2D50200b3E800A63D2",
      "gasPrice": {
        "_hex": "0xd9083d338"
      },
      "gasLimit": {
        "_hex": "0x5208"
      },
      "to": "0x4D6a328Fd4a193CD377Da0E0AC73120f194991f2",
      "value": {
        "_hex": "0x41c05b942f4378000"
      },
      "nonce": 581,
      "data": "0x",
      "r": "0x721a7cbe21727763a1eff05822b045928432bde1e9a68884a04204aaa4428407",
      "s": "0x1eb38f411f0b867a79e80d2842cdc19efc13459deac740b4d68e0266399a9f5e",
      "v": 27,
      "creates": null,
      "raw": "0xf86f820245850d9083d338825208944d6a328fd4a193cd377da0e0ac73120f194991f289041c05b942f4378000801ba0721a7cbe21727763a1eff05822b045928432bde1e9a68884a04204aaa4428407a01eb38f411f0b867a79e80d2842cdc19efc13459deac740b4d68e0266399a9f5e",
      "networkId": 0,
      "chainId": 0
    },
    {
      "hash": "0x5186ac139d3d23712356a8eb567ac3f3726d2d3965a7d5083e6ef891a584c40a",
      "blockHash": "0xcfaf1d348ef3f511ccc92e68fd1bb5178431e7e8275abe5bd1fa42939ee0f9ad",
      "blockNumber": 84942,
      "transactionIndex": 2,
      "confirmations": null,
      "from": "0x5B7970CD176308e0Ffd0358e8B14aaF4A19BA544",
      "gasPrice": {
        "_hex": "0xcf00e7b15"
      },
      "gasLimit": {
        "_hex": "0x15f90"
      },
      "to": "0x663F37156fa35DBA128c9682f13D515b68002002",
      "value": {
        "_hex": "0x270801d946c940000"
      },
      "nonce": 3,
      "data": "0x",
      "r": "0xbb01b0be079ffa153a84f5afb1374723dfc00b5a0e981f47541cde75f8dd17db",
      "s": "0x71c77df514c3d2124c0087378d4f25f8c6e592e492ae5630aae28c13e3b8956a",
      "v": 28,
      "creates": null,
      "raw": "0xf86e03850cf00e7b1583015f9094663f37156fa35dba128c9682f13d515b68002002890270801d946c940000801ca0bb01b0be079ffa153a84f5afb1374723dfc00b5a0e981f47541cde75f8dd17dba071c77df514c3d2124c0087378d4f25f8c6e592e492ae5630aae28c13e3b8956a",
      "networkId": 0,
      "chainId": 0
    }
  ]
}