{
  "hash": "0x16e8e37ffd4411d67359b5958ff36c0afaa5f62c2e158ae0bdcb7952a30aab75",
  "parentHash": "0x52a938a212249e8208150b64ac24779532831d0639c8ce81260f3e1b32e10d1b",
  "number": 76875,
  "timestamp": 1439427773,
  "nonce": "0x8e1f04f8f9fbe394",
  "difficulty": 2230682111282,
  "gasLimit": {
    "_hex": "0x2fefd8"
  },
  "gasUsed": {
    "_hex": "0x5208"
  },
  "miner": "0xe6A7a1d47ff21B6321162AEA7C6CB457D5476Bca",
  "extraData": "0x476574682f76312e302e312d38326566323666362f6c696e75782f676f312e34",
  "transactions": [
    {
      "hash": "0xba7884172d760da1a3c32938c209b459fd9094c6e23b5fd54564eb613ea4b5a3",
      "blockHash": "0x16e8e37ffd4411d67359b5958ff36c0afaa5f62c2e158ae0bdcb7952a30aab75",
      "blockNumber": 76875,
      "transactionIndex": 0,
      "confirmations": null,
      "from": "0xA5a5181868a8Df772f87DC95aB9B366e974Da936",
      "gasPrice": {
        "_hex": "0xba43b7400"
      },
      "gasLimit": {
        "_hex": "0x5267"
      },
      "to": "0x1527fcd698B3A8707bb745F80ab114FfF3Db35E2",
      "value": {
        "_hex": "0x2386f26fc10000"
      },
      "nonce": 1,
      "data": "0x",
      "r": "0x21353c2d95a2602c0ffcb69958046e5c5f252641294bae7439d1245b1d689961",
      "s": "0x966b02cde8a235574ad44c9dd4276f12cb6632748d0912e7a1c9a8cf3959dae6",
      "v": 28,
      "creates": null,
      "raw": "0xf86b01850ba43b7400825267941527fcd698b3a8707bb745f80ab114fff3db35e2872386f26fc10000801ca021353c2d95a2602c0ffcb69958046e5c5f252641294bae7439d1245b1d689961a0966b02cde8a235574ad44c9dd4276f12cb6632748d0912e7a1c9a8cf3959dae6",
      "networkId": 0,
      "chainId": 0
    }
  ]
}