{
  "hash": "0xa32b07a2e2a13a55e711aee13e14b0883a80537799a20057941f41b59d70b309",
  "parentHash": "0x3e4cc89ffaa25b00fe28ee619aec39536c72a0863cc45218c054ec694a0b17a4",
  "number": 110334,
  "timestamp": 1439972002,
  "nonce": "0x8e15f4368fd130cb",
  "difficulty": 4360711594156,
  "gasLimit": {
    "_hex": "0x2ff03e"
  },
  "gasUsed": {
    "_hex": "0xa9308"
  },
  "miner": "0xe6A7a1d47ff21B6321162AEA7C6CB457D5476Bca",
  "extraData": "0x476574682f76312e302e312d38326566323666362f6c696e75782f676f312e34",
  "transactions": [
    {
      "hash": "0xe1f459c1a4899c29d099f6dab112cc5faf87f20fbdcf9a25c3005dcdd41fe99c",
      "blockHash": "0xa32b07a2e2a13a55e711aee13e14b0883a80537799a20057941f41b59d70b309",
      "blockNumber": 110334,
      "transactionIndex": 0,
      "confirmations": null,
      "from": "0xe6A7a1d47ff21B6321162AEA7C6CB457D5476Bca",
      "gasPrice": {
        "_hex": "0xdaf50c955"
      },
      "gasLimit": {
        "_hex": "0x55f0"
      },
      "to": "0x1333a55102f1f4B3df95298b6CE863eF8d5BAf45",
      "value": {
        "_hex": "0x398b8d5fcfeeac10"
      },
      "nonce": 4278,
      "data": "0x",
      "r": "0x2093f1de519a6b055fce85caf0eecbe7bcf412ea193fb09b48317f916e8d5624",
      "s": "0x2c954ebd1617351bbaa3de7d6086e3ecf1e4aa10dc18db90be02bca6c495bf7b",
      "v": 28,
      "creates": null,
      "raw": "0xf86e8210b6850daf50c9558255f0941333a55102f1f4b3df95298b6ce863ef8d5baf4588398b8d5fcfeeac10801ca02093f1de519a6b055fce85caf0eecbe7bcf412ea193fb09b48317f916e8d5624a02c954ebd1617351bbaa3de7d6086e3ecf1e4aa10dc18db90be02bca6c495bf7b",
      "networkId": 0,
      "chainId": 0
    },
    {
      "hash": "0x8773adbe9d2e9d72890c45f6ae07eb2f5a61ec017b983ae3d21ed1b92893e04c",
      "blockHash": "0xa32b07a2e2a13a55e711aee13e14b0883a80537799a20057941f41b59d70b309",
      "blockNumber": 110334,
      "transactionIndex": 1,
      "confirmations": null,
      "from": "0xe6A7a1d47ff21B6321162AEA7C6CB457D5476Bca",
      "gasPrice": {
        "_hex": "0xdaf50c955"
      },
      "gasLimit": {
        "_hex": "0x55f0"
      },
      "to": "0x5A698FA3F55962225Cd42eb7bE1ECA74d666d1b6",
      "value": {
        "_hex": "0x3a42aa8aa7914818"
      },
      "nonce": 4279,
      "data": "0x",
      "r": "0x187ea68b96b4a9a0a9369859c1d5d984914b58632c7d7dcf20b3d5c4aea77136",
      "s": "0x22e49ed80740c09f64842aa3669a3e020afe22f83aeb9dd48a6553a6108f725e",
      "v": 27,
      "creates": null,
      "raw": "0xf86e8210b7850daf50c9558255f0945a698fa3f55962225cd42eb7be1eca74d666d1b6883a42aa8aa7914818801ba0187ea68b96b4a9a0a9369859c1d5d984914b58632c7d7dcf20b3d5c4aea77136a022e49ed80740c09f64842aa3669a3e020afe22f83aeb9dd48a6553a6108f725e",
      "networkId": 0,
      "chainId": 0
    },
    {
      "hash": "0x19f9e4191bd4af6648484f0f44586dd4cb7fa2c21548b9c0743e9376c23bbf17",
      "blockHash": "0xa32b07a2e2a13a55e711aee13e14b0883a80537799a20057941f41b59d70b309",
      "blockNumber": 110334,
      "transactionIndex": 2,
      "confirmations": null,
      "from": "0xe6A7a1d47ff21B6321162AEA7C6CB457D5476Bca",
      "gasPrice": {
        "_hex": "0xdaf50c955"
      },
      "gasLimit": {
        "_hex": "0x55f0"
      },
      "to": "0x0094B66634dc6758951e5900ec3F4Bcc7597C062",
      "value": {
        "_hex": "0x3a5a3b8b54909804"
      },
      "nonce": 4280,
      "data": "0x",
      "r": "0xc770d8f92530ff917e50e21f7aab797338faae9f2a7e1da1b8fef8710e0caf1f",
      "s": "0x29b8e748759cb8173870012c8f435103445d71830a03e5ef39a43ddc2d07a8ac",
      "v": 27,
      "creates": null,
      "raw": "0xf86e8210b8850daf50c9558255f0940094b66634dc6758951e5900ec3f4bcc7597c062883a5a3b8b54909804801ba0c770d8f92530ff917e50e21f7aab797338faae9f2a7e1da1b8fef8710e0caf1fa029b8e748759cb8173870012c8f435103445d71830a03e5ef39a43ddc2d07a8ac",
      "networkId": 0,
      "chainId": 0
    },
    {
      "hash": "0x7a5710789f9dcadcde4eaf562add9862587a6a5846300b8762c8c809b6c92fdf",
      "blockHash": "0xa32b07a2e2a13a55e711aee13e14b0883a80537799a20057941f41b59d70b309",
      "blockNumber": 110334,
      "transactionIndex": 3,
      "confirmations": null,
      "from": "0xe6A7a1d47ff21B6321162AEA7C6CB457D5476Bca",
      "gasPrice": {
        "_hex": "0xdaf50c955"
      },
      "gasLimit": {
        "_hex": "0x55f0"
      },
      "to": "0x8421b6810A1aee71B0baa38D7E1b5de6f71245d2",
      "value": {
        "_hex": "0x3a5acf5e3a4b57d8"
      },
      "nonce": 4281,
      "data": "0x",
      "r": "0x92d021a29936f0a6178022cd9eae58643997afc9e4bfc91dfe98475b018a2afe",
      "s": "0x5c0d370f6dcc5713073395a6bf1df7713abffd4afb4ae1de0e5dd2b3fe0f9334",
      "v": 28,
      "creates": null,
      "raw": "0xf86e8210b9850daf50c9558255f0948421b6810a1aee71b0baa38d7e1b5de6f71245d2883a5acf5e3a4b57d8801ca092d021a29936f0a6178022cd9eae58643997afc9e4bfc91dfe98475b018a2afea05c0d370f6dcc5713073395a6bf1df7713abffd4afb4ae1de0e5dd2b3fe0f9334",
      "networkId": 0,
      "chainId": 0
    },
    {
      "hash": "0xd89e23a0732f5d69f22f24c3683361858e0a3f8843997e39c5b150430fab084f",
      "blockHash": "0xa32b07a2e2a13a55e711aee13e14b0883a80537799a20057941f41b59d70b309",
      "blockNumber": 110334,
      "transactionIndex": 4,
      "confirmations": null,
      "from": "0xe6A7a1d47ff21B6321162AEA7C6CB457D5476Bca",
      "gasPrice": {
        "_hex": "0xdaf50c955"
      },
      "gasLimit": {
        "_hex": "0x55f0"
      },
      "to": "0x4C9560759adF54ABEdd7318d1413C4fA49240074",
      "value": {
        "_hex": "0x3ab6252962b90090"
      },
      "nonce": 4282,
      "data": "0x",
      "r": "0x54cf08c406e06a658ea085a4cadead6b7da37cc7a7e65fc4b48f95af83acbd98",
      "s": "0x1b60d8cdde6d773c2bd5a1b82d3d90b1a6fa39bd43c851c4bcc67de1d0d2e895",
      "v": 27,
      "creates": null,
      "raw": "0xf86e8210ba850daf50c9558255f0944c9560759adf54abedd7318d1413c4fa49240074883ab6252962b90090801ba054cf08c406e06a658ea085a4cadead6b7da37cc7a7e65fc4b48f95af83acbd98a01b60d8cdde6d773c2bd5a1b82d3d90b1a6fa39bd43c851c4bcc67de1d0d2e895",
      "networkId": 0,
      "chainId": 0
    },
    {
      "hash": "0x9192c741ef8fcbbb8743c440ecf1d01847d99daba47ad93a8e436928fd906220",
      "blockHash": "0xa32b07a2e2a13a55e711aee13e14b0883a80537799a20057941f41b59d70b309",
      "blockNumber": 110334,
      "transactionIndex": 5,
      "confirmations": null,
      "from": "0xe6A7a1d47ff21B6321162AEA7C6CB457D5476Bca",
      "gasPrice": {
        "_hex": "0xdaf50c955"
      },
      "gasLimit": {
        "_hex": "0x55f0"
      },
      "to": "0x2118baa5B9d6423676CF5502Eb6eaeD859228c33",
      "value": {
        "_hex": "0x3b0a7f989003a000"
      },
      "nonce": 4283,
      "data": "0x",
      "r": "0x676bb107ad4bed3faaffd68c82b4976b241e7505fa071a0477666308ec3104a4",
      "s": "0x370fbf0c59c28098a810ef49cc15d92f72d6d860978b1f175de330797665ec50",
      "v": 28,
      "creates": null,
      "raw": "0xf86e8210bb850daf50c9558255f0942118baa5b9d6423676cf5502eb6eaed859228c33883b0a7f989003a000801ca0676bb107ad4bed3faaffd68c82b4976b241e7505fa071a0477666308ec3104a4a0370fbf0c59c28098a810ef49cc15d92f72d6d860978b1f175de330797665ec50",
      "networkId": 0,
      "chainId": 0
    },
    {
      "hash": "0xa9b35322526544cf5b9401a70ff0bd38f98f9651cf5880c14549b7d437c58b7f",
      "blockHash": "0xa32b07a2e2a13a55e711aee13e14b0883a80537799a20057941f41b59d70b309",
      "blockNumber": 110334,
      "transactionIndex": 6,
      "confirmations": null,
      "from": "0xe6A7a1d47ff21B6321162AEA7C6CB457D5476Bca",
      "gasPrice": {
        "_hex": "0xdaf50c955"
      },
      "gasLimit": {
        "_hex": "0x55f0"
      },
      "to": "0x51f8ecFF73486E3161082dDEc7FbB5450b45D689",
      "value": {
        "_hex": "0x3b7ae09e4d5fd930"
      },
      "nonce": 4284,
      "data": "0x",
      "r": "0x957377140fa0df39c44277b179471ff5fb6e9cf5d7f6c43cb74f3cbeed6d602b",
      "s": "0x2102f726cb2e9467aaef47897171265479549ba99e033ce81fd9a9434872e7e0",
      "v": 27,
      "creates": null,
      "raw": "0xf86e8210bc850daf50c9558255f09451f8ecff73486e3161082ddec7fbb5450b45d689883b7ae09e4d5fd930801ba0957377140fa0df39c44277b179471ff5fb6e9cf5d7f6c43cb74f3cbeed6d602ba02102f726cb2e9467aaef47897171265479549ba99e033ce81fd9a9434872e7e0",
      "networkId": 0,
      "chainId": 0
    },
    {
      "hash": "0xbe142d0973b922e7254765217cf594686834cd4c8504f9817328cfcc22b01420",
      "blockHash": "0xa32b07a2e2a13a55e711aee13e14b0883a80537799a20057941f41b59d70b309",
      "blockNumber": 110334,
      "transactionIndex": 7,
      "confirmations": null,
      "from": "0xe6A7a1d47ff21B6321162AEA7C6CB457D5476Bca",
      "gasPrice": {
        "_hex": "0xdaf50c955"
      },
      "gasLimit": {
        "_hex": "0x55f0"
      },
      "to": "0xa50ec0D39fa913E62f1Bae7074E6F36caA71855b",
      "value": {
        "_hex": "0x3b9e9038f162c1d8"
      },
      "nonce": 4285,
      "data": "0x",
      "r": "0x06edd36ad983b87f1c79f573bce40ec5edea7bbf585a6b0b4fc1454a628f7def",
      "s": "0x25134e587d6abdf8637b6bc440f190674b571df4b025d80de0ecae2d0d07230c",
      "v": 28,
      "creates": null,
      "raw": "0xf86e8210bd850daf50c9558255f094a50ec0d39fa913e62f1bae7074e6f36caa71855b883b9e9038f162c1d8801ca006edd36ad983b87f1c79f573bce40ec5edea7bbf585a6b0b4fc1454a628f7defa025134e587d6abdf8637b6bc440f190674b571df4b025d80de0ecae2d0d07230c",
      "networkId": 0,
      "chainId": 0
    },
    {
      "hash": "0x7741fb5b3d6a522f9a3106550d001780984ad35fe4089ab0f9e35187c82036fe",
      "blockHash": "0xa32b07a2e2a13a55e711aee13e14b0883a80537799a20057941f41b59d70b309",
      "blockNumber": 110334,
      "transactionIndex": 8,
      "confirmations": null,
      "from": "0xe6A7a1d47ff21B6321162AEA7C6CB457D5476Bca",
      "gasPrice": {
        "_hex": "0xdaf50c955"
      },
      "gasLimit": {
        "_hex": "0x55f0"
      },
      "to": "0x7001C4730b81A539eF8b760A3eEb14C64515137B",
      "value": {
        "_hex": "0x3bc59d35461b8fe0"
      },
      "nonce": 4286,
      "data": "0x",
      "r": "0xbd716059132d1c9c1d2feb98d81c1bc63033260780ee12ad6606db4b44cc3fdd",
      "s": "0x1494c1f33f3858a6adbd7f11f35f26fe7f7a549b8ddac9679bd2ceb71bb8ecb7",
      "v": 27,
      "creates": null,
      "raw": "0xf86e8210be850daf50c9558255f0947001c4730b81a539ef8b760a3eeb14c64515137b883bc59d35461b8fe0801ba0bd716059132d1c9c1d2feb98d81c1bc63033260780ee12ad6606db4b44cc3fdda01494c1f33f3858a6adbd7f11f35f26fe7f7a549b8ddac9679bd2ceb71bb8ecb7",
      "networkId": 0,
      "chainId": 0
    },
    {
      "hash": "0xaff0315e6d3a92afb1b91e1a05aed3a88897331cd00ddadebdac736140433cb7",
      "blockHash": "0xa32b07a2e2a13a55e711aee13e14b0883a80537799a20057941f41b59d70b309",
      "blockNumber": 110334,
      "transactionIndex": 9,
      "confirmations": null,
      "from": "0xe6A7a1d47ff21B6321162AEA7C6CB457D5476Bca",
      "gasPrice": {
        "_hex": "0xdaf50c955"
      },
      "gasLimit": {
        "_hex": "0x55f0"
      },
      "to": "0xB5ebc1ED9a468C33fceC311Cf6AAb5d07774F0ea",
      "value": {
        "_hex": "0x3c77339466be0dc0"
      },
      "nonce": 4287,
      "data": "0x",
      "r": "0x4d7c94c882d60f2adbeee982823446d3de442b4c694951e717082bee78561ef1",
      "s": "0x1cc21b6e549687c9a24442d4b52628552896ea81d2657add77bc14c856219ae2",
      "v": 28,
      "creates": null,
      "raw": "0xf86e8210bf850daf50c9558255f094b5ebc1ed9a468c33fcec311cf6aab5d07774f0ea883c77339466be0dc0801ca04d7c94c882d60f2adbeee982823446d3de442b4c694951e717082bee78561ef1a01cc21b6e549687c9a24442d4b52628552896ea81d2657add77bc14c856219ae2",
      "networkId": 0,
      "chainId": 0
    },
    {
      "hash": "0xaad1e84541802108622efb406e566550dfcf37cfb6ed407d06a3b54f7b779595",
      "blockHash": "0xa32b07a2e2a13a55e711aee13e14b0883a80537799a20057941f41b59d70b309",
      "blockNumber": 110334,
      "transactionIndex": 10,
      "confirmations": null,
      "from": "0xe6A7a1d47ff21B6321162AEA7C6CB457D5476Bca",
      "gasPrice": {
        "_hex": "0xdaf50c955"
      },
      "gasLimit": {
        "_hex": "0x55f0"
      },
      "to": "0xB36712fddBD16B781eC9263B441Ee9DF97e8CCc5",
      "value": {
        "_hex": "0x3cd4382787967600"
      },
      "nonce": 4288,
      "data": "0x",
      "r": "0x147c29be39f43dd3cc5699b1a9d72887db6332771d7be4c4d41abd38d1588414",
      "s": "0x1aebc22cffaa884379329a9e39f3b2246c6f9086722caf2e066a9875af3f0f66",
      "v": 27,
      "creates": null,
      "raw": "0xf86e8210c0850daf50c9558255f094b36712fddbd16b781ec9263b441ee9df97e8ccc5883cd4382787967600801ba0147c29be39f43dd3cc5699b1a9d72887db6332771d7be4c4d41abd38d1588414a01aebc22cffaa884379329a9e39f3b2246c6f9086722caf2e066a9875af3f0f66",
      "networkId": 0,
      "chainId": 0
    },
    {
      "hash": "0x99aeb245c41adcdc22fa257b2be25d27ee0cf16dd4b4d5b451a5a9aab38e496d",
      "blockHash": "0xa32b07a2e2a13a55e711aee13e14b0883a80537799a20057941f41b59d70b309",
      "blockNumber": 110334,
      "transactionIndex": 11,
      "confirmations": null,
      "from": "0xe6A7a1d47ff21B6321162AEA7C6CB457D5476Bca",
      "gasPrice": {
        "_hex": "0xdaf50c955"
      },
      "gasLimit": {
        "_hex": "0x55f0"
      },
      "to": "0xcD690730A45cdebeF24F2a3db2de181bFBA5CBea",
      "value": {
        "_hex": "0x3d59f31320839bdc"
      },
      "nonce": 4289,
      "data": "0x",
      "r": "0xe3cef2cd3e0f526327636c615a0945deaef836bf65b3b757ed5373f85b25e595",
      "s": "0x7819c6e04cc0acb4b3a9844d0e062ca13c99e0ddbb72c390242ef09126505529",
      "v": 27,
      "creates": null,
      "raw": "0xf86e8210c1850daf50c9558255f094cd690730a45cdebef24f2a3db2de181bfba5cbea883d59f31320839bdc801ba0e3cef2cd3e0f526327636c615a0945deaef836bf65b3b757ed5373f85b25e595a07819c6e04cc0acb4b3a9844d0e062ca13c99e0ddbb72c390242ef09126505529",
      "networkId": 0,
      "chainId": 0
    },
    {
      "hash": "0x49135fb8fcdbac5bcb9437a4cb641aafedb5e0fe5e9b914d4f36c04f6c388c5f",
      "blockHash": "0xa32b07a2e2a13a55e711aee13e14b0883a80537799a20057941f41b59d70b309",
      "blockNumber": 110334,
      "transactionIndex": 12,
      "confirmations": null,
      "from": "0xe6A7a1d47ff21B6321162AEA7C6CB457D5476Bca",
      "gasPrice": {
        "_hex": "0xdaf50c955"
      },
      "gasLimit": {
        "_hex": "0x55f0"
      },
      "to": "0xc544B25bb91b87e380dda392687c6216b0260671",
      "value": {
        "_hex": "0x3d6304d8104505c8"
      },
      "nonce": 4290,
      "data": "0x",
      "r": "0x0721e78f7c00087f022adddb9dfbc29e22431e99d4f4803d6060662434e326d3",
      "s": "0x2844e58ee253ddab343f37820abd83d13a3f92ba1930b98a13453b7ad5fe744e",
      "v": 28,
      "creates": null,
      "raw": "0xf86e8210c2850daf50c9558255f094c544b25bb91b87e380dda392687c6216b0260671883d6304d8104505c8801ca00721e78f7c00087f022adddb9dfbc29e22431e99d4f4803d6060662434e326d3a02844e58ee253ddab343f37820abd83d13a3f92ba1930b98a13453b7ad5fe744e",
      "networkId": 0,
      "chainId": 0
    },
    {
      "hash": "0x19048189d0d56534201975c7db07d8bd6233eb9b50d0237f8ac4249174ed9803",
      "blockHash": "0xa32b07a2e2a13a55e711aee13e14b0883a80537799a20057941f41b59d70b309",
      "blockNumber": 110334,
      "transactionIndex": 13,
      "confirmations": null,
      "from": "0xe6A7a1d47ff21B6321162AEA7C6CB457D5476Bca",
      "gasPrice": {
        "_hex": "0xdaf50c955"
      },
      "gasLimit": {
        "_hex": "0x55f0"
      },
      "to": "0x7B578F673507975447C714DF2bdCd15801fe30Fe",
      "value": {
        "_hex": "0x3d665dcb850c13d4"
      },
      "nonce": 4291,
      "data": "0x",
      "r": "0xb5b2763bdf899cf25a0297f8f87ac8dd4a68e2d77820fcbbbbe98d61c4853f22",
      "s": "0x071dd682b82dcba0fa2ea5200b241b7b0110dba7bc3fb1353f36c2499f319b7b",
      "v": 27,
      "creates": null,
      "raw": "0xf86e8210c3850daf50c9558255f0947b578f673507975447c714df2bdcd15801fe30fe883d665dcb850c13d4801ba0b5b2763bdf899cf25a0297f8f87ac8dd4a68e2d77820fcbbbbe98d61c4853f22a0071dd682b82dcba0fa2ea5200b241b7b0110dba7bc3fb1353f36c2499f319b7b",
      "networkId": 0,
      "chainId": 0
    },
    {
      "hash": "0x67c072253dab0643cbe4f84e7c3a3630299d81fecdf1571801d90d33d9b3734f",
      "blockHash": "0xa32b07a2e2a13a55e711aee13e14b0883a80537799a20057941f41b59d70b309",
      "blockNumber": 110334,
      "transactionIndex": 14,
      "confirmations": null,
      "from": "0xe6A7a1d47ff21B6321162AEA7C6CB457D5476Bca",
      "gasPrice": {
        "_hex": "0xdaf50c955"
      },
      "gasLimit": {
        "_hex": "0x55f0"
      },
      "to": "0xd4dc4b9843C73687bfc779afB40669da5F766Ef6",
      "value": {
        "_hex": "0x3e52f5911f03541c"
      },
      "nonce": 4292,
      "data": "0x",
      "r": "0x73224f4ee92fb0c43e22490cdd4558999d8d0b7e6bc43730cb67eb7228a7b85f",
      "s": "0x201acf899c8797264a0174138ab40ce217694a0a9e5c0cd3e039a9d0a64b394d",
      "v": 28,
      "creates": null,
      "raw": "0xf86e8210c4850daf50c9558255f094d4dc4b9843c73687bfc779afb40669da5f766ef6883e52f5911f03541c801ca073224f4ee92fb0c43e22490cdd4558999d8d0b7e6bc43730cb67eb7228a7b85fa0201acf899c8797264a0174138ab40ce217694a0a9e5c0cd3e039a9d0a64b394d",
      "networkId": 0,
      "chainId": 0
    },
    {
      "hash": "0x950d898796150138d5e963ee388d5b49d257c8e8d9017c1f3916c477ce54e955",
      "blockHash": "0xa32b07a2e2a13a55e711aee13e14b0883a80537799a20057941f41b59d70b309",
      "blockNumber": 110334,
      "transactionIndex": 15,
      "confirmations": null,
      "from": "0xe6A7a1d47ff21B6321162AEA7C6CB457D5476Bca",
      "gasPrice": {
        "_hex": "0xdaf50c955"
      },
      "gasLimit": {
        "_hex": "0x55f0"
      },
      "to": "0x3730a07b6d2d7413d0d76B91935F60bB0b1d8E2F",
      "value": {
        "_hex": "0x3f83c7a290763ff0"
      },
      "nonce": 4293,
      "data": "0x",
      "r": "0x87b7318378dc72b80055d8f8997f2673083115a99492c1d6f9dc4733584bf40c",
      "s": "0x4cc717fdb59fabe192709c4c47c7e05d5a0c386e6b683a3b3336b2315a7ea6eb",
      "v": 27,
      "creates": null,
      "raw": "0xf86e8210c5850daf50c9558255f0943730a07b6d2d7413d0d76b91935f60bb0b1d8e2f883f83c7a290763ff0801ba087b7318378dc72b80055d8f8997f2673083115a99492c1d6f9dc4733584bf40ca04cc717fdb59fabe192709c4c47c7e05d5a0c386e6b683a3b3336b2315a7ea6eb",
      "networkId": 0,
      "chainId": 0
    },
    {
      "hash": "0xa2c460f95acc31b3f746641c4f37474777920838b2788e491819be6709b4256b",
      "blockHash": "0xa32b07a2e2a13a55e711aee13e14b0883a80537799a20057941f41b59d70b309",
      "blockNumber": 110334,
      "transactionIndex": 16,
      "confirmations": null,
      "from": "0xe6A7a1d47ff21B6321162AEA7C6CB457D5476Bca",
      "gasPrice": {
        "_hex": "0xdaf50c955"
      },
      "gasLimit": {
        "_hex": "0x55f0"
      },
      "to": "0x99DD8707E14E7A8D702b2700f6e8072DF8ee91D7",
      "value": {
        "_hex": "0x3f9d7138e0b07d38"
      },
      "nonce": 4294,
      "data": "0x",
      "r": "0xed5db75e63624a101d1b34deed744f8fda860176390925e32a4fc5d37ca08f96",
      "s": "0x00c2fd47907afc63290e08db74a90b13d9cd00ff4f888e1785715e5c179d77cc",
      "v": 27,
      "creates": null,
      "raw": "0xf86d8210c6850daf50c9558255f09499dd8707e14e7a8d702b2700f6e8072df8ee91d7883f9d7138e0b07d38801ba0ed5db75e63624a101d1b34deed744f8fda860176390925e32a4fc5d37ca08f969fc2fd47907afc63290e08db74a90b13d9cd00ff4f888e1785715e5c179d77cc",
      "networkId": 0,
      "chainId": 0
    },
    {
      "hash": "0x6b44cd30bb0c2b5bd7be86a243f0d42c452d4949b674992f9a769220c0a082c3",
      "blockHash": "0xa32b07a2e2a13a55e711aee13e14b0883a80537799a20057941f41b59d70b309",
      "blockNumber": 110334,
      "transactionIndex": 17,
      "confirmations": null,
      "from": "0xe6A7a1d47ff21B6321162AEA7C6CB457D5476Bca",
      "gasPrice": {
        "_hex": "0xdaf50c955"
      },
      "gasLimit": {
        "_hex": "0x55f0"
      },
      "to": "0x1A99941B3E60c242bb3941e5BB5e1049145CDf9B",
      "value": {
        "_hex": "0x3fcc8be17eb879e4"
      },
      "nonce": 4295,
      "data": "0x",
      "r": "0x0443c40d6eb1fd3f28a693b918829a9e0f7c3cb07d0077c6082b7a432c4f9169",
      "s": "0x3cff93661bb9bf8e884c5de416a4a0f435105e590d8dfe9b7d05787fa3a028af",
      "v": 28,
      "creates": null,
      "raw": "0xf86e8210c7850daf50c9558255f0941a99941b3e60c242bb3941e5bb5e1049145cdf9b883fcc8be17eb879e4801ca00443c40d6eb1fd3f28a693b918829a9e0f7c3cb07d0077c6082b7a432c4f9169a03cff93661bb9bf8e884c5de416a4a0f435105e590d8dfe9b7d05787fa3a028af",
      "networkId": 0,
      "chainId": 0
    },
    {
      "hash": "0x7462b8c2638b623b102c46bdf1097836ff91cc6dea253b2d65cb9068008e5ac3",
      "blockHash": "0xa32b07a2e2a13a55e711aee13e14b0883a80537799a20057941f41b59d70b309",
      "blockNumber": 110334,
      "transactionIndex": 18,
      "confirmations": null,
      "from": "0xe6A7a1d47ff21B6321162AEA7C6CB457D5476Bca",
      "gasPrice": {
        "_hex": "0xdaf50c955"
      },
      "gasLimit": {
        "_hex": "0x55f0"
      },
      "to": "0x0f7E5465DB8bC57940471E530a83Fb7Ac5b82d7f",
      "value": {
        "_hex": "0x3ff997b3915de7e0"
      },
      "nonce": 4296,
      "data": "0x",
      "r": "0x61304b948de947097fecb1394bbaeba8e8431bd63bfe4e6692b1a89b9f0ee17c",
      "s": "0x19ff00c64c006daa15a69c4180691c795077ab590e67838ecab567652e780c0f",
      "v": 28,
      "creates": null,
      "raw": "0xf86e8210c8850daf50c9558255f0940f7e5465db8bc57940471e530a83fb7ac5b82d7f883ff997b3915de7e0801ca061304b948de947097fecb1394bbaeba8e8431bd63bfe4e6692b1a89b9f0ee17ca019ff00c64c006daa15a69c4180691c795077ab590e67838ecab567652e780c0f",
      "networkId": 0,
      "chainId": 0
    },
    {
      "hash": "0x4acca081871842527c1daf63c6aac682872a807ee86b315855449ab4e68d0f1b",
      "blockHash": "0xa32b07a2e2a13a55e711aee13e14b0883a80537799a20057941f41b59d70b309",
      "blockNumber": 110334,
      "transactionIndex": 19,
      "confirmations": null,
      "from": "0xe6A7a1d47ff21B6321162AEA7C6CB457D5476Bca",
      "gasPrice": {
        "_hex": "0xdaf50c955"
      },
      "gasLimit": {
        "_hex": "0x55f0"
      },
      "to": "0x46e97208BC7F618816Cb502A2b516fb4BC41f1D3",
      "value": {
        "_hex": "0x4052bd9e3ed99900"
      },
      "nonce": 4297,
      "data": "0x",
      "r": "0x16aaa2df5fa372c853fe93f6544293ffc3cc7d6bd52cd385fb77b2b2c4b458f5",
      "s": "0x3d2da52fb7eccbfedae3cee0116f2fbd9307a688cd633d970e41be5817b04ab8",
      "v": 27,
      "creates": null,
      "raw": "0xf86e8210c9850daf50c9558255f09446e97208bc7f618816cb502a2b516fb4bc41f1d3884052bd9e3ed99900801ba016aaa2df5fa372c853fe93f6544293ffc3cc7d6bd52cd385fb77b2b2c4b458f5a03d2da52fb7eccbfedae3cee0116f2fbd9307a688cd633d970e41be5817b04ab8",
      "networkId": 0,
      "chainId": 0
    },
    {
      "hash": "0x3efabc177efa33b71b2aa39f4a5a1cb974f140afed5b456459eb1a55e4a8eb84",
      "blockHash": "0xa32b07a2e2a13a55e711aee13e14b0883a80537799a20057941f41b59d70b309",
      "blockNumber": 110334,
      "transactionIndex": 20,
      "confirmations": null,
      "from": "0xe6A7a1d47ff21B6321162AEA7C6CB457D5476Bca",
      "gasPrice": {
        "_hex": "0xdaf50c955"
      },
      "gasLimit": {
        "_hex": "0x55f0"
      },
      "to": "0x0Bce1f08Ac26719f94701275c8cAfF71f7D27AAC",
      "value": {
        "_hex": "0x4072ccc59ee7a318"
      },
      "nonce": 4298,
      "data": "0x",
      "r": "0xcfc3d24c48a23589d27b564bdfa85beb68ce79257f2f9638fa291e899ea04b85",
      "s": "0x7e19a1010cd7aa184c1a6472f6a7947311c40e8f53f2294d3f00f526af3aa62d",
      "v": 27,
      "creates": null,
      "raw": "0xf86e8210ca850daf50c9558255f0940bce1f08ac26719f94701275c8caff71f7d27aac884072ccc59ee7a318801ba0cfc3d24c48a23589d27b564bdfa85beb68ce79257f2f9638fa291e899ea04b85a07e19a1010cd7aa184c1a6472f6a7947311c40e8f53f2294d3f00f526af3aa62d",
      "networkId": 0,
      "chainId": 0
    },
    {
      "hash": "0xa9858d0385346709bc82d7854b8821687c522469e5225574b5f9482ed1f8ee03",
      "blockHash": "0xa32b07a2e2a13a55e711aee13e14b0883a80537799a20057941f41b59d70b309",
      "blockNumber": 110334,
      "transactionIndex": 21,
      "confirmations": null,
      "from": "0xe6A7a1d47ff21B6321162AEA7C6CB457D5476Bca",
      "gasPrice": {
        "_hex": "0xdaf50c955"
      },
      "gasLimit": {
        "_hex": "0x55f0"
      },
      "to": "0x357A01795bfA480a007fB4B1B6eDf2e8C23f1840",
      "value": {
        "_hex": "0x413c9a78e5231d80"
      },
      "nonce": 4299,
      "data": "0x",
      "r": "0x7f6b8d279d6d327555ad56d8238d145fa7430b40b70ca3928f9d145fe0bc73ad",
      "s": "0x264175d5de425d5795a5603f010670db3e305bb58579e0f57782c1ee726603f2",
      "v": 28,
      "creates": null,
      "raw": "0xf86e8210cb850daf50c9558255f094357a01795bfa480a007fb4b1b6edf2e8c23f184088413c9a78e5231d80801ca07f6b8d279d6d327555ad56d8238d145fa7430b40b70ca3928f9d145fe0bc73ada0264175d5de425d5795a5603f010670db3e305bb58579e0f57782c1ee726603f2",
      "networkId": 0,
      "chainId": 0
    },
    {
      "hash": "0x8e99d2d669f4e8e4350f04217ed4719daca954517080c81fd15617c217e209a7",
      "blockHash": "0xa32b07a2e2a13a55e711aee13e14b0883a80537799a20057941f41b59d70b309",
      "blockNumber": 110334,
      "transactionIndex": 22,
      "confirmations": null,
      "from": "0xe6A7a1d47ff21B6321162AEA7C6CB457D5476Bca",
      "gasPrice": {
        "_hex": "0xdaf50c955"
      },
      "gasLimit": {
        "_hex": "0x55f0"
      },
      "to": "0xA56697139eB8704667673Af60c361AF8C32694E3",
      "value": {
        "_hex": "0x414da389c0948fc8"
      },
      "nonce": 4300,
      "data": "0x",
      "r": "0x0867f5193aaefc90ae0b9e4d3c86585f8315ed8e5fd9671399fd35d01c1afbb4",
      "s": "0x3c9ea0334a2bd3fa482d0c420f92d4b114900095af10565024e7ba082aa9e836",
      "v": 27,
      "creates": null,
      "raw": "0xf86e8210cc850daf50c9558255f094a56697139eb8704667673af60c361af8c32694e388414da389c0948fc8801ba00867f5193aaefc90ae0b9e4d3c86585f8315ed8e5fd9671399fd35d01c1afbb4a03c9ea0334a2bd3fa482d0c420f92d4b114900095af10565024e7ba082aa9e836",
      "networkId": 0,
      "chainId": 0
    },
    {
      "hash": "0xbf39fe9438b43e2b40dac75d961ff7556e74886853072262d7de6dc89fd43ef0",
      "blockHash": "0xa32b07a2e2a13a55e711aee13e14b0883a80537799a20057941f41b59d70b309",
      "blockNumber": 110334,
      "transactionIndex": 23,
      "confirmations": null,
      "from": "0xe6A7a1d47ff21B6321162AEA7C6CB457D5476Bca",
      "gasPrice": {
        "_hex": "0xdaf50c955"
      },
      "gasLimit": {
        "_hex": "0x55f0"
      },
      "to": "0xB89C0F465b0472fa5A58eCDd01eD937205ae4d06",
      "value": {
        "_hex": "0x4167f3d501a47888"
      },
      "nonce": 4301,
      "data": "0x",
      "r": "0x74e90ce5e16955e49af916aef0729e776cf5d89854384ac9b1ce8a9c5af1f487",
      "s": "0x7cf7ad37b8a38bcf0f3202a80b58d6ecdcc674ef4276f88af8ab3d09322dcf9c",
      "v": 28,
      "creates": null,
      "raw": "0xf86e8210cd850daf50c9558255f094b89c0f465b0472fa5a58ecdd01ed937205ae4d06884167f3d501a47888801ca074e90ce5e16955e49af916aef0729e776cf5d89854384ac9b1ce8a9c5af1f487a07cf7ad37b8a38bcf0f3202a80b58d6ecdcc674ef4276f88af8ab3d09322dcf9c",
      "networkId": 0,
      "chainId": 0
    },
    {
      "hash": "0xb4c35af7baf9548561e5e37c791930322eff59d361e5f218637c8a6d87b94cc9",
      "blockHash": "0xa32b07a2e2a13a55e711aee13e14b0883a80537799a20057941f41b59d70b309",
      "blockNumber": 110334,
      "transactionIndex": 24,
      "confirmations": null,
      "from": "0xe6A7a1d47ff21B6321162AEA7C6CB457D5476Bca",
      "gasPrice": {
        "_hex": "0xdaf50c955"
      },
      "gasLimit": {
        "_hex": "0x55f0"
      },
      "to": "0xD671e71108Bd20F1A8e2A4f73a7449Bf8DAa840f",
      "value": {
        "_hex": "0x418b3efb2b6673a8"
      },
      "nonce": 4302,
      "data": "0x",
      "r": "0x750fe6421042d52adb992b96332697efffefb5cdcd08d49a9dcd438a195bdfc6",
      "s": "0x76ccce1c0f02c94337cae17d863909432c05be6bd6bfba93d0b07b6200e7e929",
      "v": 27,
      "creates": null,
      "raw": "0xf86e8210ce850daf50c9558255f094d671e71108bd20f1a8e2a4f73a7449bf8daa840f88418b3efb2b6673a8801ba0750fe6421042d52adb992b96332697efffefb5cdcd08d49a9dcd438a195bdfc6a076ccce1c0f02c94337cae17d863909432c05be6bd6bfba93d0b07b6200e7e929",
      "networkId": 0,
      "chainId": 0
    },
    {
      "hash": "0xefbbb794144374d04981816e5098248ea4ae21068a6aca13cb83af5ebbc40919",
      "blockHash": "0xa32b07a2e2a13a55e711aee13e14b0883a80537799a20057941f41b59d70b309",
      "blockNumber": 110334,
      "transactionIndex": 25,
      "confirmations": null,
      "from": "0xe6A7a1d47ff21B6321162AEA7C6CB457D5476Bca",
      "gasPrice": {
        "_hex": "0xdaf50c955"
      },
      "gasLimit": {
        "_hex": "0x55f0"
      },
      "to": "0x3fc4eAB8A8df5a124043b29146709935c65F1f7d",
      "value": {
        "_hex": "0x42032af3f352b0f0"
      },
      "nonce": 4303,
      "data": "0x",
      "r": "0x25f3aa21a83a420f430ed9533043a1d7ee0c0a27571686993d9b53d28b535fcf",
      "s": "0x1014e36b3f323e02c3b4dee0773dd74e66267715e42e4cbf833078315cc221bd",
      "v": 27,
      "creates": null,
      "raw": "0xf86e8210cf850daf50c9558255f0943fc4eab8a8df5a124043b29146709935c65f1f7d8842032af3f352b0f0801ba025f3aa21a83a420f430ed9533043a1d7ee0c0a27571686993d9b53d28b535fcfa01014e36b3f323e02c3b4dee0773dd74e66267715e42e4cbf833078315cc221bd",
      "networkId": 0,
      "chainId": 0
    },
    {
      "hash": "0xf873898a7362255f0ca26f276a1dcd175034049ad25be9e9dec16acb6d3518f5",
      "blockHash": "0xa32b07a2e2a13a55e711aee13e14b0883a80537799a20057941f41b59d70b309",
      "blockNumber": 110334,
      "transactionIndex": 26,
      "confirmations": null,
      "from": "0xe6A7a1d47ff21B6321162AEA7C6CB457D5476Bca",
      "gasPrice": {
        "_hex": "0xdaf50c955"
      },
      "gasLimit": {
        "_hex": "0x55f0"
      },
      "to": "0xC711d87af18Db9a7EbE2CFB279b73c8785E55d41",
      "value": {
        "_hex": "0x42992d72bac4a000"
      },
      "nonce": 4304,
      "data": "0x",
      "r": "0x11e48bd718bc956cc5d39d48c6a03ec16b75bf3d94d82c62b08134c4de07baaa",
      "s": "0x5f19c3ea6029fbcbbc95614da64db5e10d160508386481b86bc2b8581a50b353",
      "v": 28,
      "creates": null,
      "raw": "0xf86e8210d0850daf50c9558255f094c711d87af18db9a7ebe2cfb279b73c8785e55d418842992d72bac4a000801ca011e48bd718bc956cc5d39d48c6a03ec16b75bf3d94d82c62b08134c4de07baaaa05f19c3ea6029fbcbbc95614da64db5e10d160508386481b86bc2b8581a50b353",
      "networkId": 0,
      "chainId": 0
    },
    {
      "hash": "0x722d8b12e52dae961ca17abcd59e8faef9e82c35d9a9c0fd347e390c3a14f006",
      "blockHash": "0xa32b07a2e2a13a55e711aee13e14b0883a80537799a20057941f41b59d70b309",
      "blockNumber": 110334,
      "transactionIndex": 27,
      "confirmations": null,
      "from": "0xe6A7a1d47ff21B6321162AEA7C6CB457D5476Bca",
      "gasPrice": {
        "_hex": "0xdaf50c955"
      },
      "gasLimit": {
        "_hex": "0x55f0"
      },
      "to": "0xcabcF33e299eEFB1bBde6Ef75a21853831e8b339",
      "value": {
        "_hex": "0x433ee432585dbba0"
      },
      "nonce": 4305,
      "data": "0x",
      "r": "0x6415b30084f7c433f74aeba8d21806544be8725fbbade2b7cd62e110d63d6db0",
      "s": "0x5300633006ec1cfed4321a1a7a73c7f9873d4dac221c400001734dd2dd2481e6",
      "v": 27,
      "creates": null,
      "raw": "0xf86e8210d1850daf50c9558255f094cabcf33e299eefb1bbde6ef75a21853831e8b33988433ee432585dbba0801ba06415b30084f7c433f74aeba8d21806544be8725fbbade2b7cd62e110d63d6db0a05300633006ec1cfed4321a1a7a73c7f9873d4dac221c400001734dd2dd2481e6",
      "networkId": 0,
      "chainId": 0
    },
    {
      "hash": "0x05af7756bdc68a6eadbc610fcafb1b8a9ed425626d734eed4a63eeefcc2e9eef",
      "blockHash": "0xa32b07a2e2a13a55e711aee13e14b0883a80537799a20057941f41b59d70b309",
      "blockNumber": 110334,
      "transactionIndex": 28,
      "confirmations": null,
      "from": "0xe6A7a1d47ff21B6321162AEA7C6CB457D5476Bca",
      "gasPrice": {
        "_hex": "0xdaf50c955"
      },
      "gasLimit": {
        "_hex": "0x55f0"
      },
      "to": "0xF2B3F8Eb4e663dA275b8C57fe45A0E8D489Eac2E",
      "value": {
        "_hex": "0x46d6faafc3d0be30"
      },
      "nonce": 4306,
      "data": "0x",
      "r": "0xb506ec32e163ccd7017165c128633843e3ac1ac8ebd66f4d11454aef1e5ec85d",
      "s": "0x706387836ece22d4b9a4653b40367c167d1610ab8c89cec7bfc55f8afdecb78c",
      "v": 27,
      "creates": null,
      "raw": "0xf86e8210d2850daf50c9558255f094f2b3f8eb4e663da275b8c57fe45a0e8d489eac2e8846d6faafc3d0be30801ba0b506ec32e163ccd7017165c128633843e3ac1ac8ebd66f4d11454aef1e5ec85da0706387836ece22d4b9a4653b40367c167d1610ab8c89cec7bfc55f8afdecb78c",
      "networkId": 0,
      "chainId": 0
    },
    {
      "hash": "0xa85e6a6c4fe2f54e94fd6fd3b044389f97fb8239eb4d356edecaca317dbddae2",
      "blockHash": "0xa32b07a2e2a13a55e711aee13e14b0883a80537799a20057941f41b59d70b309",
      "blockNumber": 110334,
      "transactionIndex": 29,
      "confirmations": null,
      "from": "0xe6A7a1d47ff21B6321162AEA7C6CB457D5476Bca",
      "gasPrice": {
        "_hex": "0xdaf50c955"
      },
      "gasLimit": {
        "_hex": "0x55f0"
      },
      "to": "0xCadcea36EC3feB740167E4370777fab1549F8759",
      "value": {
        "_hex": "0x46f02fc16dfda530"
      },
      "nonce": 4307,
      "data": "0x",
      "r": "0xd0fbd3e28a8cefe090bf794573a87dff31201418f7a039b920f64a9a6618fb10",
      "s": "0x230966830b19bea107c84867fc23ac30ccb26bc524262887727c4466fd6e7eae",
      "v": 28,
      "creates": null,
      "raw": "0xf86e8210d3850daf50c9558255f094cadcea36ec3feb740167e4370777fab1549f87598846f02fc16dfda530801ca0d0fbd3e28a8cefe090bf794573a87dff31201418f7a039b920f64a9a6618fb10a0230966830b19bea107c84867fc23ac30ccb26bc524262887727c4466fd6e7eae",
      "networkId": 0,
      "chainId": 0
    },
    {
      "hash": "0xd2a38d4336de9fb3688c72354a4d6da9da0ad8db8f9d90bb48a4c7eac05cc318",
      "blockHash": "0xa32b07a2e2a13a55e711aee13e14b0883a80537799a20057941f41b59d70b309",
      "blockNumber": 110334,
      "transactionIndex": 30,
      "confirmations": null,
      "from": "0xe6A7a1d47ff21B6321162AEA7C6CB457D5476Bca",
      "gasPrice": {
        "_hex": "0xdaf50c955"
      },
      "gasLimit": {
        "_hex": "0x55f0"
      },
      "to": "0x1c69e6202df7794272b70FaEa8f7408c856B1f08",
      "value": {
        "_hex": "0x48f294be4dc7c910"
      },
      "nonce": 4308,
      "data": "0x",
      "r": "0xfa0d0920fb66c329d1852f6cf07eb23eb4e4fa0ae4d87d1ceedd289b8f168664",
      "s": "0x08722b1c161b7bc5569694fb757bd83bca36ea8decf5df36f1d21c6428e81b4f",
      "v": 27,
      "creates": null,
      "raw": "0xf86e8210d4850daf50c9558255f0941c69e6202df7794272b70faea8f7408c856b1f088848f294be4dc7c910801ba0fa0d0920fb66c329d1852f6cf07eb23eb4e4fa0ae4d87d1ceedd289b8f168664a008722b1c161b7bc5569694fb757bd83bca36ea8decf5df36f1d21c6428e81b4f",
      "networkId": 0,
      "chainId": 0
    },
    {
      "hash": "0xd9d1471e9f563fb6510109f18f14346956ea0bcb4d39295251de962c7df497b4",
      "blockHash": "0xa32b07a2e2a13a55e711aee13e14b0883a80537799a20057941f41b59d70b309",
      "blockNumber": 110334,
      "transactionIndex": 31,
      "confirmations": null,
      "from": "0xb82415923664590236aea1c1912955E7653B9FCa",
      "gasPrice": {
        "_hex": "0xd768d7899"
      },
      "gasLimit": {
        "_hex": "0x5208"
      },
      "to": "0x32Be343B94f860124dC4fEe278FDCBD38C102D88",
      "value": {
        "_hex": "0x1497953ca8891400"
      },
      "nonce": 5,
      "data": "0x",
      "r": "0x5bd2633768cd079495ff829ea99a093369651752070ef597a52c4fdd19da2a14",
      "s": "0x59c2056395dae31c4093464e4479fd88a2b2e0a8acb53edf43b7d518c6a3f62e",
      "v": 27,
      "creates": null,
      "raw": "0xf86c05850d768d78998252089432be343b94f860124dc4fee278fdcbd38c102d88881497953ca8891400801ba05bd2633768cd079495ff829ea99a093369651752070ef597a52c4fdd19da2a14a059c2056395dae31c4093464e4479fd88a2b2e0a8acb53edf43b7d518c6a3f62e",
      "networkId": 0,
      "chainId": 0
    },
    {
      "hash": "0xc906ff516c340bdeb605947d5d924d6e613ceb9db281732da5241238d40b07de",
      "blockHash": "0xa32b07a2e2a13a55e711aee13e14b0883a80537799a20057941f41b59d70b309",
      "blockNumber": 110334,
      "transactionIndex": 32,
      "confirmations": null,
      "from": "0xcabcF33e299eEFB1bBde6Ef75a21853831e8b339",
      "gasPrice": {
        "_hex": "0xcf23689f1"
      },
      "gasLimit": {
        "_hex": "0x15f90"
      },
      "to": "0xf00955cEDD33a99B4a993aABeb4239e268aaD294",
      "value": {
        "_hex": "0x3d0ff0b013b80000"
      },
      "nonce": 2,
      "data": "0x",
      "r": "0x7e7e368dc7013b69b033774ec62de266beacb936e92616a54d36c982bd9fc3fb",
      "s": "0x49fe9c4f6e5c37a5e0365d3090dfc8a06212d86dabde528549debbd562ba4162",
      "v": 28,
      "creates": null,
      "raw": "0xf86d02850cf23689f183015f9094f00955cedd33a99b4a993aabeb4239e268aad294883d0ff0b013b80000801ca07e7e368dc7013b69b033774ec62de266beacb936e92616a54d36c982bd9fc3fba049fe9c4f6e5c37a5e0365d3090dfc8a06212d86dabde528549debbd562ba4162",
      "networkId": 0,
      "chainId": 0
    }
  ]
}