{
  "hash": "0xff8d136da1999e076db9775b65656f29b414d07391841559b9ecbb70fab35590",
  "parentHash": "0xc4c186db3d0e03fa036ab2cfc92a8bf67286da5fb1ea549220266938d9662612",
  "number": 48334,
  "timestamp": 1438955589,
  "nonce": "0xe3d1f07e651bc9a2",
  "difficulty": 1454347567940,
  "gasLimit": {
    "_hex": "0x15a5b"
  },
  "gasUsed": {
    "_hex": "0x546c"
  },
  "miner": "0x580992B51e3925e23280EfB93d3047C82f17E038",
  "extraData": "0x476574682f76312e302e312f6c696e75782f676f312e342e32",
  "transactions": [
    {
      "hash": "0x0ef4b177f56450f6f3b7ee391906d4f670c18d3141283ac82ecaebf5ca5b2907",
      "blockHash": "0xff8d136da1999e076db9775b65656f29b414d07391841559b9ecbb70fab35590",
      "blockNumber": 48334,
      "transactionIndex": 0,
      "confirmations": null,
      "from": "0xB7c9f12B038E73436D17E1c12FFE1aECCdb3f58c",
      "gasPrice": {
        "_hex": "0xcf67b9ac6"
      },
      "gasLimit": {
        "_hex": "0x55f0"
      },
      "to": "0x2910543Af39abA0Cd09dBb2D50200b3E800A63D2",
      "value": {
        "_hex": "0x55005f0c614480000"
      },
      "nonce": 2,
      "data": "0x454e3030434e505252",
      "r": "0x80662804477e61fad0626881a8a68005071c6425f1e3fd8916f3a91b1be6c06e",
      "s": "0x289e90842ab55026f9aa02e3bad1e39888d8dd8a6d7715f22a6833f669a62e95",
      "v": 28,
      "creates": null,
      "raw": "0xf87602850cf67b9ac68255f0942910543af39aba0cd09dbb2d50200b3e800a63d289055005f0c61448000089454e3030434e5052521ca080662804477e61fad0626881a8a68005071c6425f1e3fd8916f3a91b1be6c06ea0289e90842ab55026f9aa02e3bad1e39888d8dd8a6d7715f22a6833f669a62e95",
      "networkId": 0,
      "chainId": 0
    }
  ]
}