{
  "hash": "0xb99f720d6f209f434075592dde90b19223810999d71de50e1226036767f0de81",
  "parentHash": "0x9fcda4384a5100ac443e4cbf7a252f16136a2352539bf7d8b20d8ec54db1a6b6",
  "number": 106499,
  "timestamp": 1439905190,
  "nonce": "0x1ff70efbb390f6ec",
  "difficulty": 4507791156206,
  "gasLimit": {
    "_hex": "0x2fefd8"
  },
  "gasUsed": {
    "_hex": "0x5208"
  },
  "miner": "0x0D4EcC7d750180EBf4A9Df728B6669B5Bceb5E40",
  "extraData": "0x",
  "transactions": [
    {
      "hash": "0x45549f4873f13c42a88982dc5126a9e2b1347dc3d88ca6627db6c478fde6876b",
      "blockHash": "0xb99f720d6f209f434075592dde90b19223810999d71de50e1226036767f0de81",
      "blockNumber": 106499,
      "transactionIndex": 0,
      "confirmations": null,
      "from": "0xC47Aaa860008be6f65B58c6C6E02a84e666EfE31",
      "gasPrice": {
        "_hex": "0xd515e7614"
      },
      "gasLimit": {
        "_hex": "0x15f90"
      },
      "to": "0xef272Ba5EDbf617601a050C7836c0DE5396cD8Bf",
      "value": {
        "_hex": "0x56bc3d0aebe496d59"
      },
      "nonce": 83,
      "data": "0x",
      "r": "0xa4e4a7787a91db12655794953f02a33e104341a57328976d1077a6491e799fc0",
      "s": "0x641091fdf040918493484a4f9e7e1dd86b27bf3d008ddbe6e882abe9f1e44cb2",
      "v": 27,
      "creates": null,
      "raw": "0xf86e53850d515e761483015f9094ef272ba5edbf617601a050c7836c0de5396cd8bf89056bc3d0aebe496d59801ba0a4e4a7787a91db12655794953f02a33e104341a57328976d1077a6491e799fc0a0641091fdf040918493484a4f9e7e1dd86b27bf3d008ddbe6e882abe9f1e44cb2",
      "networkId": 0,
      "chainId": 0
    }
  ]
}