{
  "hash": "0xd83f879fc254f0018ef601f890ce5e7ac7af9d211c9eb1a1c9ede583294d5f4e",
  "parentHash": "0xe883300f96cef2375a5afc7cb184a5d6b35409d54c9199cd9b3d15d7d6c2a64b",
  "number": 90579,
  "timestamp": 1439642239,
  "nonce": "0x52d6d83f6e5e2fcb",
  "difficulty": 3333404380650,
  "gasLimit": {
    "_hex": "0x2fefd8"
  },
  "gasUsed": {
    "_hex": "0xa410"
  },
  "miner": "0x88D74a59454F6cF3B51ef6b9136AFb6b9D405A88",
  "extraData": "0x476574682f76312e302e312d37666266393930632f6c696e75782f676f312e34",
  "transactions": [
    {
      "hash": "0xd0864f7e15d859a61fa9c7c3db3242f0494422b0cbd1c095775f36712468e7bf",
      "blockHash": "0xd83f879fc254f0018ef601f890ce5e7ac7af9d211c9eb1a1c9ede583294d5f4e",
      "blockNumber": 90579,
      "transactionIndex": 0,
      "confirmations": null,
      "from": "0x32Be343B94f860124dC4fEe278FDCBD38C102D88",
      "gasPrice": {
        "_hex": "0xd8d615b0d"
      },
      "gasLimit": {
        "_hex": "0x5208"
      },
      "to": "0x031778CE7A0BB1Aac0f29615378Fb240ed41c51b",
      "value": {
        "_hex": "0xdc830ec76dffc00"
      },
      "nonce": 858,
      "data": "0x",
      "r": "0x06cc7d8bbf0b7e23ca3c1539a10a76bc58bb3c6584e2f176c7bec807145017b6",
      "s": "0x2086830b9cee5f0144dd4fd12e002bb99218929fa82e9b27747411d391d94d5a",
      "v": 27,
      "creates": null,
      "raw": "0xf86e82035a850d8d615b0d82520894031778ce7a0bb1aac0f29615378fb240ed41c51b880dc830ec76dffc00801ba006cc7d8bbf0b7e23ca3c1539a10a76bc58bb3c6584e2f176c7bec807145017b6a02086830b9cee5f0144dd4fd12e002bb99218929fa82e9b27747411d391d94d5a",
      "networkId": 0,
      "chainId": 0
    },
    {
      "hash": "0x5a9c7a4b5f6d4f3643408f314d7df7dcc3fe47fc668cc5c760a3ebceccd25f76",
      "blockHash": "0xd83f879fc254f0018ef601f890ce5e7ac7af9d211c9eb1a1c9ede583294d5f4e",
      "blockNumber": 90579,
      "transactionIndex": 1,
      "confirmations": null,
      "from": "0x859217617481BD9b6E3e38f6aE9BB677F0D26154",
      "gasPrice": {
        "_hex": "0xd8d615b0d"
      },
      "gasLimit": {
        "_hex": "0x5208"
      },
      "to": "0x32Be343B94f860124dC4fEe278FDCBD38C102D88",
      "value": {
        "_hex": "0x7caee51e5db0f00000"
      },
      "nonce": 7,
      "data": "0x",
      "r": "0x6ba5bf1840ef94ff8dbc4b2c09ab096938b9d807ef50fdb192e527e08209c3c3",
      "s": "0x7f500eb9ecca9c99776a2d3db5b269fee7faac607b0ea9f98e1718a5ac03eed3",
      "v": 28,
      "creates": null,
      "raw": "0xf86d07850d8d615b0d8252089432be343b94f860124dc4fee278fdcbd38c102d88897caee51e5db0f00000801ca06ba5bf1840ef94ff8dbc4b2c09ab096938b9d807ef50fdb192e527e08209c3c3a07f500eb9ecca9c99776a2d3db5b269fee7faac607b0ea9f98e1718a5ac03eed3",
      "networkId": 0,
      "chainId": 0
    }
  ]
}