{
  "hash": "0x2d8f4306ae77e14cc7b01df4d8d4ef65e2d70ef63280cb9d379bac909992d6a8",
  "parentHash": "0x2bc5536a51d1ae9a9a2b56e5b0421c7ef7f3e1c6fa9cbc4be4896ef53894080e",
  "number": 62854,
  "timestamp": 1439195151,
  "nonce": "0x0ea68aea445712f0",
  "difficulty": 1785784367706,
  "gasLimit": {
    "_hex": "0x2fefd8"
  },
  "gasUsed": {
    "_hex": "0x5208"
  },
  "miner": "0xbb7B8287f3F0a933474a79eAe42CBCa977791171",
  "extraData": "0x476574682f4c5649562f76312e302e312f6c696e75782f676f312e342e32",
  "transactions": [
    {
      "hash": "0x6657c2a641329d65a70bf35aad654f2eafd98b6804e59b290bbafae63a5f7eaf",
      "blockHash": "0x2d8f4306ae77e14cc7b01df4d8d4ef65e2d70ef63280cb9d379bac909992d6a8",
      "blockNumber": 62854,
      "transactionIndex": 0,
      "confirmations": null,
      "from": "0x32Be343B94f860124dC4fEe278FDCBD38C102D88",
      "gasPrice": {
        "_hex": "0xd61956fee"
      },
      "gasLimit": {
        "_hex": "0x5208"
      },
      "to": "0xAFe1985fd7FFF4cD6c2370b2BdA170DE647c125d",
      "value": {
        "_hex": "0x8aa39c121a270000"
      },
      "nonce": 157,
      "data": "0x",
      "r": "0xad8081c26e16895e2cc2cde0fc788f7584f6a92485c29e4077af1b7d3ab87630",
      "s": "0x3c0d4930c9b8815d3583ed5bc376f0355604b0df433ff963d621a65fe3105dc9",
      "v": 27,
      "creates": null,
      "raw": "0xf86d819d850d61956fee82520894afe1985fd7fff4cd6c2370b2bda170de647c125d888aa39c121a270000801ba0ad8081c26e16895e2cc2cde0fc788f7584f6a92485c29e4077af1b7d3ab87630a03c0d4930c9b8815d3583ed5bc376f0355604b0df433ff963d621a65fe3105dc9",
      "networkId": 0,
      "chainId": 0
    }
  ]
}