{
  "hash": "0x7a07d02ae89be1ace2f80589f6ab2617cc0fe65c99d010b1f852322ec066064b",
  "parentHash": "0x129b46e7f7e9b509c5c6cb7540d1ed0b43c0e4f661614fd3cdc883369d5c0876",
  "number": 108290,
  "timestamp": 1439937862,
  "nonce": "0xa063de367daf89dd",
  "difficulty": 4344769323566,
  "gasLimit": {
    "_hex": "0x2fefd5"
  },
  "gasUsed": {
    "_hex": "0x20fc6"
  },
  "miner": "0xe6A7a1d47ff21B6321162AEA7C6CB457D5476Bca",
  "extraData": "0x476574682f76312e302e312d38326566323666362f6c696e75782f676f312e34",
  "transactions": [
    {
      "hash": "0x6c199e247bf0a9fb40621d4d175cb2e1183959f046161feaac19df67f6319165",
      "blockHash": "0x7a07d02ae89be1ace2f80589f6ab2617cc0fe65c99d010b1f852322ec066064b",
      "blockNumber": 108290,
      "transactionIndex": 0,
      "confirmations": null,
      "from": "0x65Fe776c996eB7c15f86F236B945353b9a18f335",
      "gasPrice": {
        "_hex": "0xe17e7f720"
      },
      "gasLimit": {
        "_hex": "0x7530"
      },
      "to": "0x6De181Fc4C140FA31F196e5393516c49EEeBdAd3",
      "value": {
        "_hex": "0x4ce208a5d7aa0000"
      },
      "nonce": 5,
      "data": "0x",
      "r": "0x68195d275a314b2909377e0da86aa7ae0fa361cdf3dc2f8d4f973a4308f8b455",
      "s": "0x69f2bba7894d54a7915ee8505b3682b0c5e96838bdfa549cf97c6730751564f4",
      "v": 28,
      "creates": null,
      "raw": "0xf86c05850e17e7f720827530946de181fc4c140fa31f196e5393516c49eeebdad3884ce208a5d7aa0000801ca068195d275a314b2909377e0da86aa7ae0fa361cdf3dc2f8d4f973a4308f8b455a069f2bba7894d54a7915ee8505b3682b0c5e96838bdfa549cf97c6730751564f4",
      "networkId": 0,
      "chainId": 0
    },
    {
      "hash": "0x8202e7b5adb305ebe45413cd8b75b71506d8fb700db6bab4612e162257da2acc",
      "blockHash": "0x7a07d02ae89be1ace2f80589f6ab2617cc0fe65c99d010b1f852322ec066064b",
      "blockNumber": 108290,
      "transactionIndex": 1,
      "confirmations": null,
      "from": "0xf32866D5cE9a9b5673e076be48AbCd6ED48ADe78",
      "gasPrice": {
        "_hex": "0xd23ee12e2"
      },
      "gasLimit": {
        "_hex": "0x249f0"
      },
      "to": "0xE28e72FCf78647ADCe1F1252F240bbfaebD63BcC",
      "value": {
        "_hex": "0xde0b6b3a7640000"
      },
      "nonce": 0,
      "data": "0x45466f3a",
      "r": "0x1d9e4faecbe12cd3920ebc904b104aa7d1365208917b7b35d22817d946a87d20",
      "s": "0x7c9db130ca383d78c49f30ea4a3e25b4a90bdd08ee3892bada88adb2c11e4c4f",
      "v": 27,
      "creates": null,
      "raw": "0xf87180850d23ee12e2830249f094e28e72fcf78647adce1f1252f240bbfaebd63bcc880de0b6b3a76400008445466f3a1ba01d9e4faecbe12cd3920ebc904b104aa7d1365208917b7b35d22817d946a87d20a07c9db130ca383d78c49f30ea4a3e25b4a90bdd08ee3892bada88adb2c11e4c4f",
      "networkId": 0,
      "chainId": 0
    }
  ]
}