{
  "hash": "0xbaa8788bfa0c290db9d470c5b7c6b62b35635f3726bacda61318b99725c9edba",
  "parentHash": "0x51691afb0a40cc9b8bed90898da28dcfe02d32a3f68792dc1b60203446ad3ba5",
  "number": 86629,
  "timestamp": 1439580612,
  "nonce": "0x6b6f6ac98f53c1e3",
  "difficulty": 2940231802328,
  "gasLimit": {
    "_hex": "0x2fefd8"
  },
  "gasUsed": {
    "_hex": "0xa410"
  },
  "miner": "0x007f7f58D3eb5b7510A301eCC749FC1fCDDBE14D",
  "extraData": "0x476574682f76312e302e312f77696e646f77732f676f312e342e32",
  "transactions": [
    {
      "hash": "0xdcfac73d6cdfac0040823d603521a51ac7a4146932bdc6207e9db98e94da61b2",
      "blockHash": "0xbaa8788bfa0c290db9d470c5b7c6b62b35635f3726bacda61318b99725c9edba",
      "blockNumber": 86629,
      "transactionIndex": 0,
      "confirmations": null,
      "from": "0xe55bf6FC31c358dcC01D394e6adDde47d3548635",
      "gasPrice": {
        "_hex": "0xd7a67176c"
      },
      "gasLimit": {
        "_hex": "0x5208"
      },
      "to": "0x32Be343B94f860124dC4fEe278FDCBD38C102D88",
      "value": {
        "_hex": "0xf9c890fdad9c1000"
      },
      "nonce": 1,
      "data": "0x",
      "r": "0x1dd028815d6c064ecb17a37a95298a0c91c66607e5bacdb6490cff96b4cd582a",
      "s": "0x185efea787cea8e4994b1e47b99ed7570eff8fc4b9c68e03ea84e1b894a9813a",
      "v": 28,
      "creates": null,
      "raw": "0xf86c01850d7a67176c8252089432be343b94f860124dc4fee278fdcbd38c102d8888f9c890fdad9c1000801ca01dd028815d6c064ecb17a37a95298a0c91c66607e5bacdb6490cff96b4cd582aa0185efea787cea8e4994b1e47b99ed7570eff8fc4b9c68e03ea84e1b894a9813a",
      "networkId": 0,
      "chainId": 0
    },
    {
      "hash": "0x6ab90b7a3aee0eb2e50b4911abba25eb5368f180fc325086937e07a3f19c6e3b",
      "blockHash": "0xbaa8788bfa0c290db9d470c5b7c6b62b35635f3726bacda61318b99725c9edba",
      "blockNumber": 86629,
      "transactionIndex": 1,
      "confirmations": null,
      "from": "0x19ae27E1b61445EB9f27821A5eB4b3e957319e7e",
      "gasPrice": {
        "_hex": "0xd7a67176c"
      },
      "gasLimit": {
        "_hex": "0x5208"
      },
      "to": "0x32Be343B94f860124dC4fEe278FDCBD38C102D88",
      "value": {
        "_hex": "0x11b61377815bf400000"
      },
      "nonce": 7,
      "data": "0x",
      "r": "0x5ea92334bdd243c6436b01d32a46ba31116f1ff4feafd171df0cfb5b4f3c82ae",
      "s": "0x51f0a8cf32d72079d23d4725a36db9b0bd98bc7a1d97a528ff04075ebb87ec4a",
      "v": 27,
      "creates": null,
      "raw": "0xf86e07850d7a67176c8252089432be343b94f860124dc4fee278fdcbd38c102d888a011b61377815bf400000801ba05ea92334bdd243c6436b01d32a46ba31116f1ff4feafd171df0cfb5b4f3c82aea051f0a8cf32d72079d23d4725a36db9b0bd98bc7a1d97a528ff04075ebb87ec4a",
      "networkId": 0,
      "chainId": 0
    }
  ]
}