{
  "hash": "0xb57a42ad2390e8bfdfd306e020d48f60f97687d41cd665d4b0b1f7abe95d4a01",
  "parentHash": "0xfa9aa5e159ca21c646c2490a88855b317ef8a5bb6bffdc62e3834f0bf988fe78",
  "number": 56679,
  "timestamp": 1439090799,
  "nonce": "0x27a678b129550be5",
  "difficulty": 1686218393178,
  "gasLimit": {
    "_hex": "0x2fefd8"
  },
  "gasUsed": {
    "_hex": "0x10db5"
  },
  "miner": "0x01d9DA08cc6Fb97c0DE1B6F4C28910A0859Ed1A1",
  "extraData": "0x476574682f76312e302e312f6c696e75782f676f312e342e32",
  "transactions": [
    {
      "hash": "0xdf23d2384f45e94cdbbc45cc74b1997922f6cb7d6a9750969cd9deac76e6ff7f",
      "blockHash": "0xb57a42ad2390e8bfdfd306e020d48f60f97687d41cd665d4b0b1f7abe95d4a01",
      "blockNumber": 56679,
      "transactionIndex": 0,
      "confirmations": null,
      "from": "0x073f70b5bfAde6409E4951EF72BC8F4157677729",
      "gasPrice": {
        "_hex": "0xd2a7d6d1f"
      },
      "gasLimit": {
        "_hex": "0x186a0"
      },
      "to": "0x7AF6Af3d4491A161670837d0737baDA43FfbB992",
      "value": {
        "_hex": "0x16345785d8a0000"
      },
      "nonce": 15,
      "data": "0x67dd74ca42fe2c6839609ffb230e0fccfa1a19826c7f011657eabe33f62bc4ae927b8df8",
      "r": "0x249eb50d87505ba69974509311a12d434c88972f61a10faa539a6217572c6a10",
      "s": "0x64aa78e9ebce93e6d2324b9105dbdda78a6d3858a33070aa3c4670b216e9879f",
      "v": 28,
      "creates": null,
      "raw": "0xf8910f850d2a7d6d1f830186a0947af6af3d4491a161670837d0737bada43ffbb99288016345785d8a0000a467dd74ca42fe2c6839609ffb230e0fccfa1a19826c7f011657eabe33f62bc4ae927b8df81ca0249eb50d87505ba69974509311a12d434c88972f61a10faa539a6217572c6a10a064aa78e9ebce93e6d2324b9105dbdda78a6d3858a33070aa3c4670b216e9879f",
      "networkId": 0,
      "chainId": 0
    }
  ]
}