{
  "hash": "0x139eea3fb79684ce0b291a685487a7d1ae835888c240fd6c89985f1fe9260124",
  "parentHash": "0x7aa28c7ae984f1df16fcf0abbcce8a9ba3ac538a5548a4912480364158615f7d",
  "number": 100649,
  "timestamp": 1439809882,
  "nonce": "0x8feabc356f603edc",
  "difficulty": 3828381500537,
  "gasLimit": {
    "_hex": "0x2fefd8"
  },
  "gasUsed": {
    "_hex": "0xf618"
  },
  "miner": "0x0037ce3d4B7f8729C8607D8D0248252Be68202c0",
  "extraData": "0x476574682f76312e302e312f77696e646f77732f676f312e342e32",
  "transactions": [
    {
      "hash": "0x5cdead27014d0199feedff78a393225953ecaef13c4307d1e2c76dc2e2e58ccd",
      "blockHash": "0x139eea3fb79684ce0b291a685487a7d1ae835888c240fd6c89985f1fe9260124",
      "blockNumber": 100649,
      "transactionIndex": 0,
      "confirmations": null,
      "from": "0xa6BDc31c431B8F97848c9D60cbbe9660dc450eB7",
      "gasPrice": {
        "_hex": "0xdc330cc94"
      },
      "gasLimit": {
        "_hex": "0x5208"
      },
      "to": "0x32Be343B94f860124dC4fEe278FDCBD38C102D88",
      "value": {
        "_hex": "0x455f288feb709c00"
      },
      "nonce": 151,
      "data": "0x",
      "r": "0x8a4d504f65b2e615b02db449698121dfcd860627188cd972fc580e483b27322a",
      "s": "0x790544ebd521ceaed439084f0315a5759f55cb06eeb293e8cb256309351a2169",
      "v": 28,
      "creates": null,
      "raw": "0xf86d8197850dc330cc948252089432be343b94f860124dc4fee278fdcbd38c102d8888455f288feb709c00801ca08a4d504f65b2e615b02db449698121dfcd860627188cd972fc580e483b27322aa0790544ebd521ceaed439084f0315a5759f55cb06eeb293e8cb256309351a2169",
      "networkId": 0,
      "chainId": 0
    },
    {
      "hash": "0xcabc75d31f1c0f481d0dba3189aaa3eb31f481d15eb00a13238e8fd35eece3cb",
      "blockHash": "0x139eea3fb79684ce0b291a685487a7d1ae835888c240fd6c89985f1fe9260124",
      "blockNumber": 100649,
      "transactionIndex": 1,
      "confirmations": null,
      "from": "0x4Dbfc5Cd4D88480476F951dbCD591396773aE56c",
      "gasPrice": {
        "_hex": "0xdc330cc94"
      },
      "gasLimit": {
        "_hex": "0x5208"
      },
      "to": "0x32Be343B94f860124dC4fEe278FDCBD38C102D88",
      "value": {
        "_hex": "0x2aeab59d6c50e2000"
      },
      "nonce": 5,
      "data": "0x",
      "r": "0x98e80130805b35398d2bca89d2df2fed2f9c743782a1ab105bac9edfb72e4938",
      "s": "0x142b4a20d1a136a0a0338efc313bdee1718ea4d264c884b1e58b06d583043330",
      "v": 28,
      "creates": null,
      "raw": "0xf86d05850dc330cc948252089432be343b94f860124dc4fee278fdcbd38c102d888902aeab59d6c50e2000801ca098e80130805b35398d2bca89d2df2fed2f9c743782a1ab105bac9edfb72e4938a0142b4a20d1a136a0a0338efc313bdee1718ea4d264c884b1e58b06d583043330",
      "networkId": 0,
      "chainId": 0
    },
    {
      "hash": "0xd567bff14de44c4816992db1802de2a7295ea1185c73a751a9e5053f1d570d7b",
      "blockHash": "0x139eea3fb79684ce0b291a685487a7d1ae835888c240fd6c89985f1fe9260124",
      "blockNumber": 100649,
      "transactionIndex": 2,
      "confirmations": null,
      "from": "0x8F79f76381Aad7B98C19aF55eE75fdfEeb012211",
      "gasPrice": {
        "_hex": "0xdc330cc94"
      },
      "gasLimit": {
        "_hex": "0x5208"
      },
      "to": "0x32Be343B94f860124dC4fEe278FDCBD38C102D88",
      "value": {
        "_hex": "0x2a7fe9a9e2db64000"
      },
      "nonce": 39,
      "data": "0x",
      "r": "0x86f508839fdd865abd5735520d51fc7c622c5f7f7c4985000aa557a25c8c8bdc",
      "s": "0x2ea93aa84d37e8e678f646b3e3c862086262f4315a44931c02a7bf05ba3286bf",
      "v": 28,
      "creates": null,
      "raw": "0xf86d27850dc330cc948252089432be343b94f860124dc4fee278fdcbd38c102d888902a7fe9a9e2db64000801ca086f508839fdd865abd5735520d51fc7c622c5f7f7c4985000aa557a25c8c8bdca02ea93aa84d37e8e678f646b3e3c862086262f4315a44931c02a7bf05ba3286bf",
      "networkId": 0,
      "chainId": 0
    }
  ]
}