{
  "hash": "0x7db2936541b0e42600ab04389c6fc51d6a8574a20c24dec45f859a76b14ca36e",
  "parentHash": "0x2947856dff34a2018c74c5912ae8189662f31f1ba7ce3358b1028172c605aeec",
  "number": 77511,
  "timestamp": 1439438550,
  "nonce": "0x352edcd0d1100eef",
  "difficulty": 2239242975515,
  "gasLimit": {
    "_hex": "0x2fefd5"
  },
  "gasUsed": {
    "_hex": "0x5208"
  },
  "miner": "0xA1623430350C5df1b52B0b57483A5bb45d1796Da",
  "extraData": "0x476574682f76312e302e312d38326566323666362f6c696e75782f676f312e34",
  "transactions": [
    {
      "hash": "0x17c5fc2036a6b9fe3dcc3b264f211aa7c34c4446f65e0b076a68511c1e4c3bff",
      "blockHash": "0x7db2936541b0e42600ab04389c6fc51d6a8574a20c24dec45f859a76b14ca36e",
      "blockNumber": 77511,
      "transactionIndex": 0,
      "confirmations": null,
      "from": "0x2910543Af39abA0Cd09dBb2D50200b3E800A63D2",
      "gasPrice": {
        "_hex": "0xce564f1b0"
      },
      "gasLimit": {
        "_hex": "0x5208"
      },
      "to": "0x765EeAAd1F3F92C0d5aC5361913D96e37ceaeE1A",
      "value": {
        "_hex": "0x75badd8ce4fa012000"
      },
      "nonce": 335,
      "data": "0x",
      "r": "0x6d8fc72ff595713f16055d647727482a8451c7ae4ffe65178bf7ba82e6bb62b2",
      "s": "0x0cd8a57aa2f9f59e0e853f3fc800b25ea2cb0e53342a8f05fc5e35f28120b8d4",
      "v": 28,
      "creates": null,
      "raw": "0xf86f82014f850ce564f1b082520894765eeaad1f3f92c0d5ac5361913d96e37ceaee1a8975badd8ce4fa012000801ca06d8fc72ff595713f16055d647727482a8451c7ae4ffe65178bf7ba82e6bb62b2a00cd8a57aa2f9f59e0e853f3fc800b25ea2cb0e53342a8f05fc5e35f28120b8d4",
      "networkId": 0,
      "chainId": 0
    }
  ]
}