{
  "hash": "0x3b1e3783042657438a469bafa1a5c1480f5d2b286c45abf263899116ba95e208",
  "parentHash": "0x85c441b70aabce5d53e9f53e0e9394f46e7adeda2c73c8bf3b8484857602c40c",
  "number": 79860,
  "timestamp": 1439476299,
  "nonce": "0xb68b5e70a0e85069",
  "difficulty": 2351784117089,
  "gasLimit": {
    "_hex": "0x2fefd8"
  },
  "gasUsed": {
    "_hex": "0x5208"
  },
  "miner": "0xe6A7a1d47ff21B6321162AEA7C6CB457D5476Bca",
  "extraData": "0x476574682f76312e302e312d38326566323666362f6c696e75782f676f312e34",
  "transactions": [
    {
      "hash": "0x16461d9daa2450a52f0926e6be03a3e7d25cb2408b52d2afae829874bb62f1b1",
      "blockHash": "0x3b1e3783042657438a469bafa1a5c1480f5d2b286c45abf263899116ba95e208",
      "blockNumber": 79860,
      "transactionIndex": 0,
      "confirmations": null,
      "from": "0xA1623430350C5df1b52B0b57483A5bb45d1796Da",
      "gasPrice": {
        "_hex": "0xd1237fc5a"
      },
      "gasLimit": {
        "_hex": "0x7530"
      },
      "to": "0xf2881e3e520bF84469Fa00a56449D357FB1af54A",
      "value": {
        "_hex": "0x15c551d03b64e0000"
      },
      "nonce": 5,
      "data": "0x",
      "r": "0x29ca3374cfb9a1424090312374bf90577641e0f5e52cdbf7eefe11b5a1c76b0b",
      "s": "0x6c3586a732d4e8062e18135fe0dec9d746d444ef9465b9778cd56f97708c3cb4",
      "v": 27,
      "creates": null,
      "raw": "0xf86d05850d1237fc5a82753094f2881e3e520bf84469fa00a56449d357fb1af54a89015c551d03b64e0000801ba029ca3374cfb9a1424090312374bf90577641e0f5e52cdbf7eefe11b5a1c76b0ba06c3586a732d4e8062e18135fe0dec9d746d444ef9465b9778cd56f97708c3cb4",
      "networkId": 0,
      "chainId": 0
    }
  ]
}