{
  "hash": "0xa0a906bf0d97d9f6187bf184fb96146b81af83768e8bad792b4980c9db3e51dd",
  "parentHash": "0x71499dac862762d39cc3ee3169581920954755f58ecd7a7f9aad1b722f7ee42a",
  "number": 71048,
  "timestamp": 1439329690,
  "nonce": "0x43bc042c4de41a66",
  "difficulty": 2149863585683,
  "gasLimit": {
    "_hex": "0x2fefd8"
  },
  "gasUsed": {
    "_hex": "0x1dc20"
  },
  "miner": "0x3FF679B0823a026F2378E5f5F22A6F127cC85828",
  "extraData": "0x",
  "transactions": [
    {
      "hash": "0x482783202e87049724fd394fff4b0fbb17eba5c0163fc6bdb59402823999c6b1",
      "blockHash": "0xa0a906bf0d97d9f6187bf184fb96146b81af83768e8bad792b4980c9db3e51dd",
      "blockNumber": 71048,
      "transactionIndex": 0,
      "confirmations": null,
      "from": "0x644e5cB4F43432ba0E15B74fc638033Bcb066405",
      "gasPrice": {
        "_hex": "0x9184e72a000"
      },
      "gasLimit": {
        "_hex": "0x61a8"
      },
      "to": "0x3175a28CF6105466923f11bFFabD279F162aa2f8",
      "value": {
        "_hex": "0x83d6c7aab6360000"
      },
      "nonce": 0,
      "data": "0x",
      "r": "0xc0c2912d12306f2920cbd47e9bf903fb8c45ffa1e6133cf7872e192d60652ca9",
      "s": "0xc39e63f3a66bc2edaf33abe4c05b971e82cd5d4f7371d28ef973d7e65f74c249",
      "v": 28,
      "creates": null,
      "raw": "0xf86d808609184e72a0008261a8943175a28cf6105466923f11bffabd279f162aa2f88883d6c7aab6360000801ca0c0c2912d12306f2920cbd47e9bf903fb8c45ffa1e6133cf7872e192d60652ca9a0c39e63f3a66bc2edaf33abe4c05b971e82cd5d4f7371d28ef973d7e65f74c249",
      "networkId": 0,
      "chainId": 0
    },
    {
      "hash": "0xe49b8129c75e41d2d2826f90649a9d52cebffdb4253a113cb9c88380bcc9ec36",
      "blockHash": "0xa0a906bf0d97d9f6187bf184fb96146b81af83768e8bad792b4980c9db3e51dd",
      "blockNumber": 71048,
      "transactionIndex": 1,
      "confirmations": null,
      "from": "0xa70a9a7040d542C632D8e0bE7c5513A8a5Bbc752",
      "gasPrice": {
        "_hex": "0xd693ae30d"
      },
      "gasLimit": {
        "_hex": "0x5208"
      },
      "to": "0x32Be343B94f860124dC4fEe278FDCBD38C102D88",
      "value": {
        "_hex": "0x45704c19de887800"
      },
      "nonce": 14,
      "data": "0x",
      "r": "0xc82531f890fc591a4ae235916ed8c4dc1cce8870eb0a9049252e5ee8df90056f",
      "s": "0x5c6818774d8b42febb75a51a408f2ecf95f04bbf0efd3f96ecf3064a198ecc41",
      "v": 28,
      "creates": null,
      "raw": "0xf86c0e850d693ae30d8252089432be343b94f860124dc4fee278fdcbd38c102d888845704c19de887800801ca0c82531f890fc591a4ae235916ed8c4dc1cce8870eb0a9049252e5ee8df90056fa05c6818774d8b42febb75a51a408f2ecf95f04bbf0efd3f96ecf3064a198ecc41",
      "networkId": 0,
      "chainId": 0
    },
    {
      "hash": "0xb04ded00e055cb4ed73d64a0160e73be12e471ff6268207f654819f276cc8e44",
      "blockHash": "0xa0a906bf0d97d9f6187bf184fb96146b81af83768e8bad792b4980c9db3e51dd",
      "blockNumber": 71048,
      "transactionIndex": 2,
      "confirmations": null,
      "from": "0xa114c802ef29776f05f9c6925cE915232e8ae102",
      "gasPrice": {
        "_hex": "0xd693ae30d"
      },
      "gasLimit": {
        "_hex": "0x5208"
      },
      "to": "0x32Be343B94f860124dC4fEe278FDCBD38C102D88",
      "value": {
        "_hex": "0x6f01697d48ce0000"
      },
      "nonce": 3,
      "data": "0x",
      "r": "0x4ec10c0b0cad28ce51f8dfca7b4f27c824e2f754e0738e3c1e31ca2cb8fd490a",
      "s": "0x4d42819f244f64dd1102beed07578120fceeef018f21f680113795166a37a36d",
      "v": 27,
      "creates": null,
      "raw": "0xf86c03850d693ae30d8252089432be343b94f860124dc4fee278fdcbd38c102d88886f01697d48ce0000801ba04ec10c0b0cad28ce51f8dfca7b4f27c824e2f754e0738e3c1e31ca2cb8fd490aa04d42819f244f64dd1102beed07578120fceeef018f21f680113795166a37a36d",
      "networkId": 0,
      "chainId": 0
    },
    {
      "hash": "0x5ab46324cdd30dc3b5ddb2d7607090a5f770edfb922973ff99fe54df688495d4",
      "blockHash": "0xa0a906bf0d97d9f6187bf184fb96146b81af83768e8bad792b4980c9db3e51dd",
      "blockNumber": 71048,
      "transactionIndex": 3,
      "confirmations": null,
      "from": "0x597f19B04CEf3204943aB6D8CFd4f4457451222D",
      "gasPrice": {
        "_hex": "0xd693ae30d"
      },
      "gasLimit": {
        "_hex": "0x5208"
      },
      "to": "0x32Be343B94f860124dC4fEe278FDCBD38C102D88",
      "value": {
        "_hex": "0x12323a2b7e9600000"
      },
      "nonce": 1,
      "data": "0x",
      "r": "0x6cbbf014fe7d3464e31c18265730319d0fc63b5bd1f4cedb200113850499f204",
      "s": "0x05f3169fe70473287a967a1349364395870376be7e8e49a8b354312ae7b0297a",
      "v": 28,
      "creates": null,
      "raw": "0xf86d01850d693ae30d8252089432be343b94f860124dc4fee278fdcbd38c102d8889012323a2b7e9600000801ca06cbbf014fe7d3464e31c18265730319d0fc63b5bd1f4cedb200113850499f204a005f3169fe70473287a967a1349364395870376be7e8e49a8b354312ae7b0297a",
      "networkId": 0,
      "chainId": 0
    },
    {
      "hash": "0xb91224bff217f365a27bff7e1d7bce74752e77f65a5606245afc643d783a53df",
      "blockHash": "0xa0a906bf0d97d9f6187bf184fb96146b81af83768e8bad792b4980c9db3e51dd",
      "blockNumber": 71048,
      "transactionIndex": 4,
      "confirmations": null,
      "from": "0x17580B766f7453525ca4C6A88b01b50570EA088C",
      "gasPrice": {
        "_hex": "0xd076ce63d"
      },
      "gasLimit": {
        "_hex": "0x61a80"
      },
      "to": "0x5Fe5B7546D1628f7348B023A0393de1FC825A4fD",
      "value": {
        "_hex": "0x29a2241af62c0000"
      },
      "nonce": 89,
      "data": "0xb595b8b50000000000000000000000000000000000000000000000000000000000000001",
      "r": "0x79e731ef6d230ec6c77f42ccada83411b64208d3a9d0d555998f90207a9d6dcd",
      "s": "0x227df62cdbb90ef83ab8a9dfaf4bf9846e382731424100115639141c28855f2a",
      "v": 27,
      "creates": null,
      "raw": "0xf89159850d076ce63d83061a80945fe5b7546d1628f7348b023a0393de1fc825a4fd8829a2241af62c0000a4b595b8b500000000000000000000000000000000000000000000000000000000000000011ba079e731ef6d230ec6c77f42ccada83411b64208d3a9d0d555998f90207a9d6dcda0227df62cdbb90ef83ab8a9dfaf4bf9846e382731424100115639141c28855f2a",
      "networkId": 0,
      "chainId": 0
    }
  ]
}