{
  "hash": "0x96e090c28cf947c4b8244396fd0f246b37ebde157572e6a0d17e388f7a8da8f0",
  "parentHash": "0x3497039dc5ecf7c2696804e8a1783715b990b0a9e431fb8bffcce154ad864eb0",
  "number": 92431,
  "timestamp": 1439671823,
  "nonce": "0x5e21f946ca1137a7",
  "difficulty": 3523438676772,
  "gasLimit": {
    "_hex": "0x2fefd8"
  },
  "gasUsed": {
    "_hex": "0xa410"
  },
  "miner": "0x0000000000000000000000000000000000000000",
  "extraData": "0xdd809b302e392e34302b2b616339392d5257696e646f2f6d73762f4a4954",
  "transactions": [
    {
      "hash": "0x3dd051e3ad73ab65c2a7d7873ba344136715ca4217cd1a36428236d00747603c",
      "blockHash": "0x96e090c28cf947c4b8244396fd0f246b37ebde157572e6a0d17e388f7a8da8f0",
      "blockNumber": 92431,
      "transactionIndex": 0,
      "confirmations": null,
      "from": "0x431FB4645A5E2A132F13a30D9c0889E8a6b62145",
      "gasPrice": {
        "_hex": "0xcc6361364"
      },
      "gasLimit": {
        "_hex": "0x30d40"
      },
      "to": "0x120A270bbC009644e35F0bB6ab13f95b8199c4ad",
      "value": {
        "_hex": "0x12a861a9efc9300"
      },
      "nonce": 0,
      "data": "0x",
      "r": "0x97dc630124637d4a02cebc1ca2f54abe649141d0e755779c2896743c5ec15d50",
      "s": "0x0a2bb60721f32b1b55c4e2f5088141adfb0fd172eea6d2fdecb0be1b14a6a913",
      "v": 28,
      "creates": null,
      "raw": "0xf86d80850cc636136483030d4094120a270bbc009644e35f0bb6ab13f95b8199c4ad88012a861a9efc9300801ca097dc630124637d4a02cebc1ca2f54abe649141d0e755779c2896743c5ec15d50a00a2bb60721f32b1b55c4e2f5088141adfb0fd172eea6d2fdecb0be1b14a6a913",
      "networkId": 0,
      "chainId": 0
    },
    {
      "hash": "0xef9ce940a6b5d0ef1d6a7e7f1c7502c0ac781ed925550d9d17e936a1fad7e747",
      "blockHash": "0x96e090c28cf947c4b8244396fd0f246b37ebde157572e6a0d17e388f7a8da8f0",
      "blockNumber": 92431,
      "transactionIndex": 1,
      "confirmations": null,
      "from": "0x32Be343B94f860124dC4fEe278FDCBD38C102D88",
      "gasPrice": {
        "_hex": "0xcb088081b"
      },
      "gasLimit": {
        "_hex": "0x5208"
      },
      "to": "0x573d9861a36f50077A4a4E4a4d2C7346EA93a5Ef",
      "value": {
        "_hex": "0xac8aeaacfc6dc000"
      },
      "nonce": 895,
      "data": "0x",
      "r": "0x037b0c2981328cba83b62ca7d539472a9f6fe351470a164934ee225ef99c6072",
      "s": "0x0fe3d412e46cd5aa351caaaa92dd80f8dabdeefc589283afe72be964750296a5",
      "v": 28,
      "creates": null,
      "raw": "0xf86e82037f850cb088081b82520894573d9861a36f50077a4a4e4a4d2c7346ea93a5ef88ac8aeaacfc6dc000801ca0037b0c2981328cba83b62ca7d539472a9f6fe351470a164934ee225ef99c6072a00fe3d412e46cd5aa351caaaa92dd80f8dabdeefc589283afe72be964750296a5",
      "networkId": 0,
      "chainId": 0
    }
  ]
}