{
  "hash": "0x808da1cbfb230d086844158be8f43f9cacb11470036d3f192734c400c380c4c2",
  "parentHash": "0x9d3277a4a863e6a035ff443004c5b54f76c539bc40d5e23bb6da40a2fcd7145d",
  "number": 93025,
  "timestamp": 1439681118,
  "nonce": "0x39f0d8830f718ca6",
  "difficulty": 3649254324347,
  "gasLimit": {
    "_hex": "0x2fefd8"
  },
  "gasUsed": {
    "_hex": "0x5208"
  },
  "miner": "0x790b8a3cE86E707ED0eD32bF89B3269692a23CC1",
  "extraData": "0xd783010001844765746887676f312e342e32856c696e7578",
  "transactions": [
    {
      "hash": "0x1e29bd064953d7096f60573cb2e3bfe6fdc664d480fad86f0620b2366488bbf5",
      "blockHash": "0x808da1cbfb230d086844158be8f43f9cacb11470036d3f192734c400c380c4c2",
      "blockNumber": 93025,
      "transactionIndex": 0,
      "confirmations": null,
      "from": "0x32Be343B94f860124dC4fEe278FDCBD38C102D88",
      "gasPrice": {
        "_hex": "0xd07c78219"
      },
      "gasLimit": {
        "_hex": "0x5208"
      },
      "to": "0xe0777eE2D5713C0B6A72BB8c02D0Bf927b8D8809",
      "value": {
        "_hex": "0xdbd2fc137a30000"
      },
      "nonce": 908,
      "data": "0x",
      "r": "0x4a1a82b1ea637a28f5e4d520b7f793efe760c1e2fee67c66a6e73ab4653c589a",
      "s": "0x7c352dbf37db3a387a25c12a103a5eb4cbeca0a89762465687350bad8c1e79fe",
      "v": 28,
      "creates": null,
      "raw": "0xf86e82038c850d07c7821982520894e0777ee2d5713c0b6a72bb8c02d0bf927b8d8809880dbd2fc137a30000801ca04a1a82b1ea637a28f5e4d520b7f793efe760c1e2fee67c66a6e73ab4653c589aa07c352dbf37db3a387a25c12a103a5eb4cbeca0a89762465687350bad8c1e79fe",
      "networkId": 0,
      "chainId": 0
    }
  ]
}