{
  "hash": "0xde339343d23692df05c17c224b0d5b146b8010fe2a110fc860105cb17b1bf772",
  "parentHash": "0x163892c2d8e2c264a72107b847320f8aed8bc56ccdd5e3adff79b66bbb1438dd",
  "number": 81181,
  "timestamp": 1439497454,
  "nonce": "0xaaa1e2dc62f24970",
  "difficulty": 2446277662421,
  "gasLimit": {
    "_hex": "0x2fefd8"
  },
  "gasUsed": {
    "_hex": "0x5208"
  },
  "miner": "0x2C674A948592B20a4B775E1a3991Db043E6CF0FE",
  "extraData": "0x476574682f76312e302e312d38326566323666362f6c696e75782f676f312e34",
  "transactions": [
    {
      "hash": "0xd029f82654f63aefa1126a1767d3dcf66ffebb2e7a4dae290d542de9992e5362",
      "blockHash": "0xde339343d23692df05c17c224b0d5b146b8010fe2a110fc860105cb17b1bf772",
      "blockNumber": 81181,
      "transactionIndex": 0,
      "confirmations": null,
      "from": "0x120A270bbC009644e35F0bB6ab13f95b8199c4ad",
      "gasPrice": {
        "_hex": "0xd54323d63"
      },
      "gasLimit": {
        "_hex": "0x3d090"
      },
      "to": "0x9f8aF3029af4Ba51bbAa32cF064816e07A35BBbD",
      "value": {
        "_hex": "0x1971f0dfc4da0be000"
      },
      "nonce": 370,
      "data": "0x",
      "r": "0xc811d19f7b64d0f43439cbb9ca440d03a8d3ed7e68ad19ad46e17a40eea5773d",
      "s": "0x0d36bfbae2ea7a510dcf2d3c0594bffe3516be6f8a559bb6c30f541306fb4f52",
      "v": 27,
      "creates": null,
      "raw": "0xf870820172850d54323d638303d090949f8af3029af4ba51bbaa32cf064816e07a35bbbd891971f0dfc4da0be000801ba0c811d19f7b64d0f43439cbb9ca440d03a8d3ed7e68ad19ad46e17a40eea5773da00d36bfbae2ea7a510dcf2d3c0594bffe3516be6f8a559bb6c30f541306fb4f52",
      "networkId": 0,
      "chainId": 0
    }
  ]
}