{
  "hash": "0x4422f9fa0d552cbe63e7a3cd40b9411c641197971faf4b4b795f60314192a15b",
  "parentHash": "0xf3e0490560bccda12352fadddcfa957981bb81083697912115de787258edd1c2",
  "number": 106623,
  "timestamp": 1439907560,
  "nonce": "0x1c56585de0a7023c",
  "difficulty": 4481389301594,
  "gasLimit": {
    "_hex": "0x2fefd8"
  },
  "gasUsed": {
    "_hex": "0x5208"
  },
  "miner": "0xe6A7a1d47ff21B6321162AEA7C6CB457D5476Bca",
  "extraData": "0x476574682f76312e302e312d38326566323666362f6c696e75782f676f312e34",
  "transactions": [
    {
      "hash": "0x22162f66e029a3b65bdbcbf6bfb0b655e07558a577cd2863a858acad89dbd5c3",
      "blockHash": "0x4422f9fa0d552cbe63e7a3cd40b9411c641197971faf4b4b795f60314192a15b",
      "blockNumber": 106623,
      "transactionIndex": 0,
      "confirmations": null,
      "from": "0x120A270bbC009644e35F0bB6ab13f95b8199c4ad",
      "gasPrice": {
        "_hex": "0xdae62ed5f"
      },
      "gasLimit": {
        "_hex": "0x3d090"
      },
      "to": "0xCe84Ab71d60e52894D4861869f0cA058fc26406F",
      "value": {
        "_hex": "0x9c2007651b2500000"
      },
      "nonce": 784,
      "data": "0x",
      "r": "0x877833c0bd7a0c4526c6281ced1cff583fd3b69e3529f44fc192a5b08f7b4366",
      "s": "0x7192b52d889f48e2cd80f472e8d90daf872aac547fad5baf04fab968c22969ce",
      "v": 27,
      "creates": null,
      "raw": "0xf870820310850dae62ed5f8303d09094ce84ab71d60e52894d4861869f0ca058fc26406f8909c2007651b2500000801ba0877833c0bd7a0c4526c6281ced1cff583fd3b69e3529f44fc192a5b08f7b4366a07192b52d889f48e2cd80f472e8d90daf872aac547fad5baf04fab968c22969ce",
      "networkId": 0,
      "chainId": 0
    }
  ]
}