{
  "hash": "0x44b2e62fadc51295b5ceb4561f3e327ce3aa504d0f60733f75b7de6f2c533b11",
  "parentHash": "0xd268a1f19220ca70b4837bc3b22168fbff2249c61f95271d460775f1614e14c9",
  "number": 80171,
  "timestamp": 1439481248,
  "nonce": "0x9a2b285c1d649ba9",
  "difficulty": 2366672171896,
  "gasLimit": {
    "_hex": "0x2fefd8"
  },
  "gasUsed": {
    "_hex": "0x57b4"
  },
  "miner": "0xF2d2AfF1320476cb8C6b607199D23175cc595693",
  "extraData": "0x476574682f76312e302e312f77696e646f77732f676f312e342e32",
  "transactions": [
    {
      "hash": "0xf53b7c6fee338aedf1c74889a03aa8b5a059812765d7f91c7b36b995a6f2e4f8",
      "blockHash": "0x44b2e62fadc51295b5ceb4561f3e327ce3aa504d0f60733f75b7de6f2c533b11",
      "blockNumber": 80171,
      "transactionIndex": 0,
      "confirmations": null,
      "from": "0x87C5B5874A18B4306DF8a752a6C8cc3E82daFc19",
      "gasPrice": {
        "_hex": "0x113ad7e6679"
      },
      "gasLimit": {
        "_hex": "0x493e0"
      },
      "to": "0xC4c51de1AbF5D60DBd329eC0F999Fd8f021ae9fC",
      "value": {
        "_hex": "0x0"
      },
      "nonce": 135,
      "data": "0xbd66528a6b6b6b0000000000000000000000000000000000000000000000000000000000",
      "r": "0xd0e5d564b83b23169e491a71922ab962ee4fa1aade41497dca2d457ecdd902b1",
      "s": "0x633f600727405dd8b9224ff74ea1e20bb2587ddb99f067c6a8fbcb348bb1e77d",
      "v": 27,
      "creates": null,
      "raw": "0xf88b8187860113ad7e6679830493e094c4c51de1abf5d60dbd329ec0f999fd8f021ae9fc80a4bd66528a6b6b6b00000000000000000000000000000000000000000000000000000000001ba0d0e5d564b83b23169e491a71922ab962ee4fa1aade41497dca2d457ecdd902b1a0633f600727405dd8b9224ff74ea1e20bb2587ddb99f067c6a8fbcb348bb1e77d",
      "networkId": 0,
      "chainId": 0
    }
  ]
}