{
  "hash": "0x0dd86feb0d03f82b05f6aac38de08ab228d68c800f51477c0e2d0893c8ba77e4",
  "parentHash": "0xd303410fe641286634934f5eb5bc85098ad3b5b022fa8f257773f094b9ae08f6",
  "number": 81839,
  "timestamp": 1439508734,
  "nonce": "0x660c325c68d26c8f",
  "difficulty": 2422314485950,
  "gasLimit": {
    "_hex": "0x2fefd8"
  },
  "gasUsed": {
    "_hex": "0x5208"
  },
  "miner": "0x26E3f7C9e444f2Ca9E0BE2aF841bd060cF1CbDDb",
  "extraData": "0x476574682f76312e302e312f6c696e75782f676f312e342e32",
  "transactions": [
    {
      "hash": "0xe69cc6dc2a0e3f43d76481149727c11e7ce39c2dfc77c75d175b8e2204a9e0af",
      "blockHash": "0x0dd86feb0d03f82b05f6aac38de08ab228d68c800f51477c0e2d0893c8ba77e4",
      "blockNumber": 81839,
      "transactionIndex": 0,
      "confirmations": null,
      "from": "0xafa4dbAdd4e76B6C5946DFB726E5095516A96144",
      "gasPrice": {
        "_hex": "0x107b5044829"
      },
      "gasLimit": {
        "_hex": "0x59d8"
      },
      "to": "0x528419cd4425d074D168Ae82CdFc335076b09B2F",
      "value": {
        "_hex": "0x9e778ca038fde0000"
      },
      "nonce": 0,
      "data": "0x",
      "r": "0xbc9dcc221f15c38930970d0b556caa7ec203d1710dbce69d32a4a65f3d121c44",
      "s": "0x706682cd90c1c4001ac0a6f151cc2e0b5a212799681cc1d6d1836d28d43216cf",
      "v": 28,
      "creates": null,
      "raw": "0xf86e80860107b50448298259d894528419cd4425d074d168ae82cdfc335076b09b2f8909e778ca038fde0000801ca0bc9dcc221f15c38930970d0b556caa7ec203d1710dbce69d32a4a65f3d121c44a0706682cd90c1c4001ac0a6f151cc2e0b5a212799681cc1d6d1836d28d43216cf",
      "networkId": 0,
      "chainId": 0
    }
  ]
}