{
  "hash": "0xd54d2a974ff4e0f1c2255c743e90e4105807e3b507259372ee4cf8d3e4e610b0",
  "parentHash": "0x68a220ea315918644be9ff3821cddb347865fec83a69a4954ecd97a73e38b19a",
  "number": 105206,
  "timestamp": 1439883602,
  "nonce": "0xdb996745a02efa8c",
  "difficulty": 4329422054494,
  "gasLimit": {
    "_hex": "0x2fefd5"
  },
  "gasUsed": {
    "_hex": "0x5208"
  },
  "miner": "0xe6A7a1d47ff21B6321162AEA7C6CB457D5476Bca",
  "extraData": "0x476574682f76312e302e312d38326566323666362f6c696e75782f676f312e34",
  "transactions": [
    {
      "hash": "0xcd64186b1da1c2cb42ea377054cd9cfc4c5bb069b50fc377ab7355cad35f568e",
      "blockHash": "0xd54d2a974ff4e0f1c2255c743e90e4105807e3b507259372ee4cf8d3e4e610b0",
      "blockNumber": 105206,
      "transactionIndex": 0,
      "confirmations": null,
      "from": "0xcf00A85f3826941e7A25BFcF9Aac575d40410852",
      "gasPrice": {
        "_hex": "0xcb5bea614"
      },
      "gasLimit": {
        "_hex": "0x15f90"
      },
      "to": "0xD9666150A9dA92d9108198a4072970805a8B3428",
      "value": {
        "_hex": "0x4563918244f40000"
      },
      "nonce": 64,
      "data": "0x",
      "r": "0x1c85d87bcb8ee531223f1802c34de01067f002f1cac1fec697bd3ba444132d05",
      "s": "0x77a430e74dcf41ca450a1dc43650a14d296d561f39e1595db1fc09cc597256d3",
      "v": 27,
      "creates": null,
      "raw": "0xf86d40850cb5bea61483015f9094d9666150a9da92d9108198a4072970805a8b3428884563918244f40000801ba01c85d87bcb8ee531223f1802c34de01067f002f1cac1fec697bd3ba444132d05a077a430e74dcf41ca450a1dc43650a14d296d561f39e1595db1fc09cc597256d3",
      "networkId": 0,
      "chainId": 0
    }
  ]
}