{
  "hash": "0xe3c7a45f95d4b40b0b0b2354a039b1188ef21b1cf8103eb63bed6683d1ce10d2",
  "parentHash": "0x73f083e63b158b29f04bde78c8d00795dd88d268d08ea96c73e1bcbf9c564f81",
  "number": 106680,
  "timestamp": 1439908625,
  "nonce": "0xa98db55c100b487c",
  "difficulty": 4453002815599,
  "gasLimit": {
    "_hex": "0x2fefd8"
  },
  "gasUsed": {
    "_hex": "0x5208"
  },
  "miner": "0x9746c7e1ef2bd21FF3997fa467593a89cb852BD0",
  "extraData": "0x476574682f76312e302e312f77696e646f77732f676f312e342e32",
  "transactions": [
    {
      "hash": "0x5b3037db0cb88f7726ab407f7e720f86e3f8b568c5837e25895a074e8ca94617",
      "blockHash": "0xe3c7a45f95d4b40b0b0b2354a039b1188ef21b1cf8103eb63bed6683d1ce10d2",
      "blockNumber": 106680,
      "transactionIndex": 0,
      "confirmations": null,
      "from": "0x007f7f58D3eb5b7510A301eCC749FC1fCDDBE14D",
      "gasPrice": {
        "_hex": "0xd6d9651bf"
      },
      "gasLimit": {
        "_hex": "0x15f90"
      },
      "to": "0xb1abce2918E21ddb93AA452731a12672A3d9F75a",
      "value": {
        "_hex": "0x813ca56906d340000"
      },
      "nonce": 257,
      "data": "0x",
      "r": "0x310c57edb5482a7d2e6e535b4ec2ea46d47a3ff4066293e8639a160532377962",
      "s": "0x4ebb11a2bc3bd504485a492ac17efd983721d3c610c16d7800170580c057f255",
      "v": 28,
      "creates": null,
      "raw": "0xf870820101850d6d9651bf83015f9094b1abce2918e21ddb93aa452731a12672a3d9f75a890813ca56906d340000801ca0310c57edb5482a7d2e6e535b4ec2ea46d47a3ff4066293e8639a160532377962a04ebb11a2bc3bd504485a492ac17efd983721d3c610c16d7800170580c057f255",
      "networkId": 0,
      "chainId": 0
    }
  ]
}