{
  "hash": "0xa26a4604a25ae1c7cc368138a784911d09c0ac5bd0dad044e556c6386ec039c5",
  "parentHash": "0x2b0550507410fc254a4c4d0253922d07c2c54b96c9f6f19a83e835488fa4bff7",
  "number": 119875,
  "timestamp": 1440150181,
  "nonce": "0x9babee0336694bdc",
  "difficulty": 4404947527952,
  "gasLimit": {
    "_hex": "0x2fefd8"
  },
  "gasUsed": {
    "_hex": "0x5208"
  },
  "miner": "0x52bc44d5378309EE2abF1539BF71dE1b7d7bE3b5",
  "extraData": "0xd783010002844765746887676f312e342e32856c696e7578",
  "transactions": [
    {
      "hash": "0x8f68838f90630216cf23f8066a67488d966ad9adaefb85d6dac76cfc69e1de32",
      "blockHash": "0xa26a4604a25ae1c7cc368138a784911d09c0ac5bd0dad044e556c6386ec039c5",
      "blockNumber": 119875,
      "transactionIndex": 0,
      "confirmations": null,
      "from": "0x32Be343B94f860124dC4fEe278FDCBD38C102D88",
      "gasPrice": {
        "_hex": "0xba43b7400"
      },
      "gasLimit": {
        "_hex": "0x5208"
      },
      "to": "0xAAc7c655830b2fF580BDFEa1a416E5efAfAb3291",
      "value": {
        "_hex": "0x1156abf16a40f0000"
      },
      "nonce": 1516,
      "data": "0x",
      "r": "0xc9537c862eee89d20b7e624cfb40bb40e9e802ae03dfe7cb2bc3f8718dff2639",
      "s": "0x6a0678924ee6b15629d021c65726f28d7acf51552a7f323a5286b57a7c562ad7",
      "v": 27,
      "creates": null,
      "raw": "0xf86f8205ec850ba43b740082520894aac7c655830b2ff580bdfea1a416e5efafab32918901156abf16a40f0000801ba0c9537c862eee89d20b7e624cfb40bb40e9e802ae03dfe7cb2bc3f8718dff2639a06a0678924ee6b15629d021c65726f28d7acf51552a7f323a5286b57a7c562ad7",
      "networkId": 0,
      "chainId": 0
    }
  ]
}