{
  "hash": "0x54dd734f3edf101fde3cb41a53ce0b9850dfdc86e146bf8168f842d54b98dc59",
  "parentHash": "0x1d90544bb4354fda2acb4578f720e5ab6a5343da572049a06b30108467215e35",
  "number": 115403,
  "timestamp": 1440056561,
  "nonce": "0x53a9e350dfa4f4a8",
  "difficulty": 4573921024776,
  "gasLimit": {
    "_hex": "0x2fefd8"
  },
  "gasUsed": {
    "_hex": "0x23e38"
  },
  "miner": "0xe6A7a1d47ff21B6321162AEA7C6CB457D5476Bca",
  "extraData": "0x476574682f76312e302e312d38326566323666362f6c696e75782f676f312e34",
  "transactions": [
    {
      "hash": "0x21c89dd4e98771ff9c0f5e948553c61f9dd6d26e6a50d0e7c52b068df167fe13",
      "blockHash": "0x54dd734f3edf101fde3cb41a53ce0b9850dfdc86e146bf8168f842d54b98dc59",
      "blockNumber": 115403,
      "transactionIndex": 0,
      "confirmations": null,
      "from": "0xA542d5046D885E5fC7Dc4006ADb648C5710Ff0ED",
      "gasPrice": {
        "_hex": "0x746a528800"
      },
      "gasLimit": {
        "_hex": "0x5208"
      },
      "to": "0xE3a44b84A68C84F674E1e8c17445742DE48D9501",
      "value": {
        "_hex": "0x22b1c8c1227a0000"
      },
      "nonce": 7,
      "data": "0x",
      "r": "0x5cd893a8ea5174666abf58bd92a639e29affc39c97e61fb13236e96af21bf40c",
      "s": "0x6b5537fdfc06ef348a83ec6773e0981890741c4a0c145c699e8e8c2ce4c9489d",
      "v": 28,
      "creates": null,
      "raw": "0xf86c0785746a52880082520894e3a44b84a68c84f674e1e8c17445742de48d95018822b1c8c1227a0000801ca05cd893a8ea5174666abf58bd92a639e29affc39c97e61fb13236e96af21bf40ca06b5537fdfc06ef348a83ec6773e0981890741c4a0c145c699e8e8c2ce4c9489d",
      "networkId": 0,
      "chainId": 0
    },
    {
      "hash": "0xae1e2063d4d33e588ce54db9ef0b739951ded61d4ba8c263357953d4800e0397",
      "blockHash": "0x54dd734f3edf101fde3cb41a53ce0b9850dfdc86e146bf8168f842d54b98dc59",
      "blockNumber": 115403,
      "transactionIndex": 1,
      "confirmations": null,
      "from": "0x665646727edaAEbB32B5F1A9b4e4F3BD867AA8fB",
      "gasPrice": {
        "_hex": "0xccd1651fd"
      },
      "gasLimit": {
        "_hex": "0x5208"
      },
      "to": "0x32Be343B94f860124dC4fEe278FDCBD38C102D88",
      "value": {
        "_hex": "0xf71cd1fa60133800"
      },
      "nonce": 7,
      "data": "0x",
      "r": "0x84d3452500f3974d8aa161ff964b02d069fbd1224b274788ea9a796bf6c20890",
      "s": "0x3d6d108b91c3f1979a8d3db289f1566bc2d164baa932ce84e02b6720e73870c7",
      "v": 27,
      "creates": null,
      "raw": "0xf86c07850ccd1651fd8252089432be343b94f860124dc4fee278fdcbd38c102d8888f71cd1fa60133800801ba084d3452500f3974d8aa161ff964b02d069fbd1224b274788ea9a796bf6c20890a03d6d108b91c3f1979a8d3db289f1566bc2d164baa932ce84e02b6720e73870c7",
      "networkId": 0,
      "chainId": 0
    },
    {
      "hash": "0xa4d41a5e6c1ec1bbf2960aab7bab0edeb1a2be10bcaaab1d260656b1073bb3bb",
      "blockHash": "0x54dd734f3edf101fde3cb41a53ce0b9850dfdc86e146bf8168f842d54b98dc59",
      "blockNumber": 115403,
      "transactionIndex": 2,
      "confirmations": null,
      "from": "0xF2B3F8Eb4e663dA275b8C57fe45A0E8D489Eac2E",
      "gasPrice": {
        "_hex": "0xccd1651fd"
      },
      "gasLimit": {
        "_hex": "0x5208"
      },
      "to": "0x32Be343B94f860124dC4fEe278FDCBD38C102D88",
      "value": {
        "_hex": "0x20177ebc18057000"
      },
      "nonce": 5,
      "data": "0x",
      "r": "0xa10169089ee5fd698900247fdfc0edb66058a723bbd0b39ea0bdfbbf55e791a9",
      "s": "0x3ad3a49dd4501742497ab3d7a09221ec38effd695a5ce8c7a319f375ce3979ef",
      "v": 28,
      "creates": null,
      "raw": "0xf86c05850ccd1651fd8252089432be343b94f860124dc4fee278fdcbd38c102d888820177ebc18057000801ca0a10169089ee5fd698900247fdfc0edb66058a723bbd0b39ea0bdfbbf55e791a9a03ad3a49dd4501742497ab3d7a09221ec38effd695a5ce8c7a319f375ce3979ef",
      "networkId": 0,
      "chainId": 0
    },
    {
      "hash": "0xb23ebc22b600411ef85e86b2d8ec067090f88449553ddc0419d6accb615475ba",
      "blockHash": "0x54dd734f3edf101fde3cb41a53ce0b9850dfdc86e146bf8168f842d54b98dc59",
      "blockNumber": 115403,
      "transactionIndex": 3,
      "confirmations": null,
      "from": "0xB28fE7b9815982FF203F751ce550111D752d8795",
      "gasPrice": {
        "_hex": "0xccd1651fd"
      },
      "gasLimit": {
        "_hex": "0x5208"
      },
      "to": "0x32Be343B94f860124dC4fEe278FDCBD38C102D88",
      "value": {
        "_hex": "0x2779432dad85e0000"
      },
      "nonce": 7,
      "data": "0x",
      "r": "0xd30085bea2fdb45d4e78aab85b561c16063dca715992e84469e66158b4cb3c69",
      "s": "0x7f39a5d5e11900dd391ba4359b6adf2f3914bd1597deaca73079c0c9bac548ab",
      "v": 27,
      "creates": null,
      "raw": "0xf86d07850ccd1651fd8252089432be343b94f860124dc4fee278fdcbd38c102d888902779432dad85e0000801ba0d30085bea2fdb45d4e78aab85b561c16063dca715992e84469e66158b4cb3c69a07f39a5d5e11900dd391ba4359b6adf2f3914bd1597deaca73079c0c9bac548ab",
      "networkId": 0,
      "chainId": 0
    },
    {
      "hash": "0x6150cd47d81faccf46c143351104f2c35281bd6cf42ab62786c6276d9e272ae1",
      "blockHash": "0x54dd734f3edf101fde3cb41a53ce0b9850dfdc86e146bf8168f842d54b98dc59",
      "blockNumber": 115403,
      "transactionIndex": 4,
      "confirmations": null,
      "from": "0x3F6DDbC103F2999640fe4AFc6884708fa691C2b8",
      "gasPrice": {
        "_hex": "0xccd1651fd"
      },
      "gasLimit": {
        "_hex": "0x5208"
      },
      "to": "0x32Be343B94f860124dC4fEe278FDCBD38C102D88",
      "value": {
        "_hex": "0x384646d179d7b800"
      },
      "nonce": 7,
      "data": "0x",
      "r": "0xa75935b0fa26b302c343fde0baff2989ec6f22fae7835b1a13267b7db2a0582a",
      "s": "0x3c065dac931553f14f3c4e053e108c87b44d720489ef4be36891c62caabe475b",
      "v": 27,
      "creates": null,
      "raw": "0xf86c07850ccd1651fd8252089432be343b94f860124dc4fee278fdcbd38c102d8888384646d179d7b800801ba0a75935b0fa26b302c343fde0baff2989ec6f22fae7835b1a13267b7db2a0582aa03c065dac931553f14f3c4e053e108c87b44d720489ef4be36891c62caabe475b",
      "networkId": 0,
      "chainId": 0
    },
    {
      "hash": "0x2e615dda832f13039a305ca8392b0c9a95f50f5f0dbc0f12d13794888916e554",
      "blockHash": "0x54dd734f3edf101fde3cb41a53ce0b9850dfdc86e146bf8168f842d54b98dc59",
      "blockNumber": 115403,
      "transactionIndex": 5,
      "confirmations": null,
      "from": "0x8fA33bA169f6aFf86fB3C9E172bddA7CA6D2A66a",
      "gasPrice": {
        "_hex": "0xccd1651fd"
      },
      "gasLimit": {
        "_hex": "0x5208"
      },
      "to": "0x32Be343B94f860124dC4fEe278FDCBD38C102D88",
      "value": {
        "_hex": "0x4a30f0dd13d5dc00"
      },
      "nonce": 6,
      "data": "0x",
      "r": "0x6d1f667e81a91ff0910d16e732cdd1853dcf7410307563116c81c1d4e984a3e7",
      "s": "0x04410f14636c412513bdb1d378f426610703c6588ebeb745b1e74229d7e60799",
      "v": 28,
      "creates": null,
      "raw": "0xf86c06850ccd1651fd8252089432be343b94f860124dc4fee278fdcbd38c102d88884a30f0dd13d5dc00801ca06d1f667e81a91ff0910d16e732cdd1853dcf7410307563116c81c1d4e984a3e7a004410f14636c412513bdb1d378f426610703c6588ebeb745b1e74229d7e60799",
      "networkId": 0,
      "chainId": 0
    },
    {
      "hash": "0xf66bee91c22f91f430715d219eaa5c07dbb1cb3f4c659c605d86c5584389138a",
      "blockHash": "0x54dd734f3edf101fde3cb41a53ce0b9850dfdc86e146bf8168f842d54b98dc59",
      "blockNumber": 115403,
      "transactionIndex": 6,
      "confirmations": null,
      "from": "0x59cC965F1643a68ad7a4272ff1654d4af4343ea7",
      "gasPrice": {
        "_hex": "0xccd1651fd"
      },
      "gasLimit": {
        "_hex": "0x5208"
      },
      "to": "0x32Be343B94f860124dC4fEe278FDCBD38C102D88",
      "value": {
        "_hex": "0x4411ac09b50704000"
      },
      "nonce": 7,
      "data": "0x",
      "r": "0x0bba44743865370318a0531e2dcb644d487029b0aa50e9928efdc24de05731e9",
      "s": "0x7172b38d6e69b0e4f13dc04e6e95537b929449b8f20fb8eb6ecb243c015c56ff",
      "v": 27,
      "creates": null,
      "raw": "0xf86d07850ccd1651fd8252089432be343b94f860124dc4fee278fdcbd38c102d888904411ac09b50704000801ba00bba44743865370318a0531e2dcb644d487029b0aa50e9928efdc24de05731e9a07172b38d6e69b0e4f13dc04e6e95537b929449b8f20fb8eb6ecb243c015c56ff",
      "networkId": 0,
      "chainId": 0
    }
  ]
}