{
  "hash": "0x533058355303883d66af0fe01a04d8285935668f08a06e645ba59d12da2f5888",
  "parentHash": "0xa9d8163cfafeac378d41100147ea95f7a364e9ae5a5df4f63880e1c796096edf",
  "number": 94584,
  "timestamp": 1439710633,
  "nonce": "0x9459b95a7cfa0888",
  "difficulty": 3500245452011,
  "gasLimit": {
    "_hex": "0x2fefd8"
  },
  "gasUsed": {
    "_hex": "0x5208"
  },
  "miner": "0xeB1325C8D9d3ea8D74aC11F4B00F1B2367686319",
  "extraData": "0x",
  "transactions": [
    {
      "hash": "0x989bef7b054eefafb3ab4bfc0c5e09123eb4828ea1d0acb2e9595903c2ad113a",
      "blockHash": "0x533058355303883d66af0fe01a04d8285935668f08a06e645ba59d12da2f5888",
      "blockNumber": 94584,
      "transactionIndex": 0,
      "confirmations": null,
      "from": "0xa70a9a7040d542C632D8e0bE7c5513A8a5Bbc752",
      "gasPrice": {
        "_hex": "0xd6e46f1c5"
      },
      "gasLimit": {
        "_hex": "0x5208"
      },
      "to": "0x32Be343B94f860124dC4fEe278FDCBD38C102D88",
      "value": {
        "_hex": "0x455f396a4581f000"
      },
      "nonce": 149,
      "data": "0x",
      "r": "0x842e03fcd9bd9c936b850d9d984b9a9a0d5d935051048f58633e3cd7d17ad4a5",
      "s": "0x7dc6799423b360f7515b9b053b0c5b61a2110cd7ceeae31bd0b22df2d9242fbb",
      "v": 27,
      "creates": null,
      "raw": "0xf86d8195850d6e46f1c58252089432be343b94f860124dc4fee278fdcbd38c102d8888455f396a4581f000801ba0842e03fcd9bd9c936b850d9d984b9a9a0d5d935051048f58633e3cd7d17ad4a5a07dc6799423b360f7515b9b053b0c5b61a2110cd7ceeae31bd0b22df2d9242fbb",
      "networkId": 0,
      "chainId": 0
    }
  ]
}