{
  "hash": "0x98dd8316191556a21302e1628050b2f03d724441ce96d1d4140477f8c7cec2f1",
  "parentHash": "0x96b398cc423580261989fc384dcbb2ce92e6554c57b953621126678d2d72afc3",
  "number": 83754,
  "timestamp": 1439540371,
  "nonce": "0x5d133a316904b41a",
  "difficulty": 2437182973308,
  "gasLimit": {
    "_hex": "0x2fefd8"
  },
  "gasUsed": {
    "_hex": "0xa674"
  },
  "miner": "0xe6A7a1d47ff21B6321162AEA7C6CB457D5476Bca",
  "extraData": "0x476574682f76312e302e312d38326566323666362f6c696e75782f676f312e34",
  "transactions": [
    {
      "hash": "0x6a94b371b506d504b3c0231108b51f6d879422c23a42e75e98addb7d7b907f48",
      "blockHash": "0x98dd8316191556a21302e1628050b2f03d724441ce96d1d4140477f8c7cec2f1",
      "blockNumber": 83754,
      "transactionIndex": 0,
      "confirmations": null,
      "from": "0x3ad915D550B723415620f5a9b5b88A85F382f035",
      "gasPrice": {
        "_hex": "0x110c8f7d8de"
      },
      "gasLimit": {
        "_hex": "0xc350"
      },
      "to": "0x2910543Af39abA0Cd09dBb2D50200b3E800A63D2",
      "value": {
        "_hex": "0x4563918244f40000"
      },
      "nonce": 0,
      "data": "0x454e4e363734333947",
      "r": "0xc772f949afbaa4bd3f5707daff3cb5b56962751ff3f173479298b8465fd6f91a",
      "s": "0xdfc8393cb4855a2bdaa1f99b73cd61bbc70a73be1f5b5783e3ad99e92a7616cf",
      "v": 28,
      "creates": null,
      "raw": "0xf87680860110c8f7d8de82c350942910543af39aba0cd09dbb2d50200b3e800a63d2884563918244f4000089454e4e3637343339471ca0c772f949afbaa4bd3f5707daff3cb5b56962751ff3f173479298b8465fd6f91aa0dfc8393cb4855a2bdaa1f99b73cd61bbc70a73be1f5b5783e3ad99e92a7616cf",
      "networkId": 0,
      "chainId": 0
    },
    {
      "hash": "0x97a5830cdb09700315d3f6132434703b0158ccc0928f98767e2998d385cd9520",
      "blockHash": "0x98dd8316191556a21302e1628050b2f03d724441ce96d1d4140477f8c7cec2f1",
      "blockNumber": 83754,
      "transactionIndex": 1,
      "confirmations": null,
      "from": "0xAaf5B207b88B0dE4Ac40d747CEE06e172dF6E745",
      "gasPrice": {
        "_hex": "0xdd03a4965"
      },
      "gasLimit": {
        "_hex": "0x5208"
      },
      "to": "0xDA3399B554b6Ab5Da37Dc30F7211076390B672AB",
      "value": {
        "_hex": "0xa80d24677efef00000"
      },
      "nonce": 0,
      "data": "0x",
      "r": "0xdb6482a3435135720df910482bd1773689ca1bb96c8293729d76f13c82b0f219",
      "s": "0x1fc4a7aea6f07e5425337186fbb4a0751438cdc5b854b1dcd6699e7c96531265",
      "v": 27,
      "creates": null,
      "raw": "0xf86d80850dd03a496582520894da3399b554b6ab5da37dc30f7211076390b672ab89a80d24677efef00000801ba0db6482a3435135720df910482bd1773689ca1bb96c8293729d76f13c82b0f219a01fc4a7aea6f07e5425337186fbb4a0751438cdc5b854b1dcd6699e7c96531265",
      "networkId": 0,
      "chainId": 0
    }
  ]
}