{
  "hash": "0xafed6b32d929d5d13688c3c82cc0ff20015b2f077af38e78774be09553b83f0a",
  "parentHash": "0xeaeb571bab2060f68865ea62110f6aa995393cb7b90eae19c17b9dde8f26ca3d",
  "number": 47173,
  "timestamp": 1438935557,
  "nonce": "0x1d2fa83b19701d7c",
  "difficulty": 1458104349883,
  "gasLimit": {
    "_hex": "0x9f65"
  },
  "gasUsed": {
    "_hex": "0x5208"
  },
  "miner": "0xf927a40C8B7F6E07c5af7FA2155B4864a4112B13",
  "extraData": "0x476574682f76312e302e312f6c696e75782f676f312e342e32",
  "transactions": [
    {
      "hash": "0x34aec556417ecd1a0b29dcc245f640ca76586e261e52651cfacb8fa988330a78",
      "blockHash": "0xafed6b32d929d5d13688c3c82cc0ff20015b2f077af38e78774be09553b83f0a",
      "blockNumber": 47173,
      "transactionIndex": 0,
      "confirmations": null,
      "from": "0xa0E74ae010D51894734c308D612131056bB721AD",
      "gasPrice": {
        "_hex": "0xd7af155c1"
      },
      "gasLimit": {
        "_hex": "0x5208"
      },
      "to": "0x32Be343B94f860124dC4fEe278FDCBD38C102D88",
      "value": {
        "_hex": "0x45634c6577ff24000"
      },
      "nonce": 2,
      "data": "0x",
      "r": "0xc09012b803293ba357e74cecaf125942fc2fed95f6f583bd6f333c069354635d",
      "s": "0x2871931631a8434f8d6efa8cf29147bc75d007cd2bd7f9b3133096c53d0efca5",
      "v": 28,
      "creates": null,
      "raw": "0xf86d02850d7af155c18252089432be343b94f860124dc4fee278fdcbd38c102d8889045634c6577ff24000801ca0c09012b803293ba357e74cecaf125942fc2fed95f6f583bd6f333c069354635da02871931631a8434f8d6efa8cf29147bc75d007cd2bd7f9b3133096c53d0efca5",
      "networkId": 0,
      "chainId": 0
    }
  ]
}