{
  "hash": "0x7f0afe5f70442740cc33bf7914ebc5d2b6df6d92819ef97e7d062e04bc703c64",
  "parentHash": "0xe929833ff3ea14a1e56da2b9096a2d12b668eff687b8415e66be6c6c887f20f6",
  "number": 105843,
  "timestamp": 1439894303,
  "nonce": "0x9712bc4bd90f1319",
  "difficulty": 4455622216190,
  "gasLimit": {
    "_hex": "0x2fefd8"
  },
  "gasUsed": {
    "_hex": "0x5208"
  },
  "miner": "0x580992B51e3925e23280EfB93d3047C82f17E038",
  "extraData": "0x476574682f76312e302e312f6c696e75782f676f312e342e32",
  "transactions": [
    {
      "hash": "0xe6dbf26c67d01eea1aad39d3b12f91ba9755960fabc9c3df87e4c65c5c0ccdaa",
      "blockHash": "0x7f0afe5f70442740cc33bf7914ebc5d2b6df6d92819ef97e7d062e04bc703c64",
      "blockNumber": 105843,
      "transactionIndex": 0,
      "confirmations": null,
      "from": "0x06EC48800B2DB3eEfa052e98A9b5Fc2Bf783Ee74",
      "gasPrice": {
        "_hex": "0xda2573cd3"
      },
      "gasLimit": {
        "_hex": "0x5208"
      },
      "to": "0x32Be343B94f860124dC4fEe278FDCBD38C102D88",
      "value": {
        "_hex": "0x798d5c5e3583e400"
      },
      "nonce": 23,
      "data": "0x",
      "r": "0x66c2887f1bcb93bb30b2424c4f40a704e5869329c4d64ff6654ca89041a8d014",
      "s": "0x3f3a803288493e04523b59600d57a453c374421bf3611b4938771a65b67cccb3",
      "v": 28,
      "creates": null,
      "raw": "0xf86c17850da2573cd38252089432be343b94f860124dc4fee278fdcbd38c102d8888798d5c5e3583e400801ca066c2887f1bcb93bb30b2424c4f40a704e5869329c4d64ff6654ca89041a8d014a03f3a803288493e04523b59600d57a453c374421bf3611b4938771a65b67cccb3",
      "networkId": 0,
      "chainId": 0
    }
  ]
}