{
  "hash": "0xf5243fcde5008b7a61fadd94f0207ddfd102f4c7f88d9c926994dd9f3bc8963c",
  "parentHash": "0xcc64eede086d1937b847e08d9ec4cfbbff5c70ce470d73f7c3122a11a5e4a02d",
  "number": 99954,
  "timestamp": 1439798296,
  "nonce": "0x4706013e4a7ea463",
  "difficulty": 3853079259866,
  "gasLimit": {
    "_hex": "0x2fefd8"
  },
  "gasUsed": {
    "_hex": "0x38658"
  },
  "miner": "0x790b8a3cE86E707ED0eD32bF89B3269692a23CC1",
  "extraData": "0xd783010001844765746887676f312e342e32856c696e7578",
  "transactions": [
    {
      "hash": "0x60fd387f47a5df68fce82e25ba648b9af863ac0da926c4be67e03236e0df0f64",
      "blockHash": "0xf5243fcde5008b7a61fadd94f0207ddfd102f4c7f88d9c926994dd9f3bc8963c",
      "blockNumber": 99954,
      "transactionIndex": 0,
      "confirmations": null,
      "from": "0xe6A7a1d47ff21B6321162AEA7C6CB457D5476Bca",
      "gasPrice": {
        "_hex": "0xcf9d58024"
      },
      "gasLimit": {
        "_hex": "0x55f0"
      },
      "to": "0x2D96cefBdEC4c5A6eA88d9496fdEDDEFA561aDCd",
      "value": {
        "_hex": "0x25745a997c7afbd4"
      },
      "nonce": 3155,
      "data": "0x",
      "r": "0x1f5c5e85e79ace8b19ca755b070673b989e48a6938a5451c856bea88516ae9a0",
      "s": "0x6e9c4bb431531da4649877e9818f7af5c553145b3c8d608d4ddf4d9948463767",
      "v": 27,
      "creates": null,
      "raw": "0xf86e820c53850cf9d580248255f0942d96cefbdec4c5a6ea88d9496fdeddefa561adcd8825745a997c7afbd4801ba01f5c5e85e79ace8b19ca755b070673b989e48a6938a5451c856bea88516ae9a0a06e9c4bb431531da4649877e9818f7af5c553145b3c8d608d4ddf4d9948463767",
      "networkId": 0,
      "chainId": 0
    },
    {
      "hash": "0x16cdc792a4ac50ff7f33dee47f1ec0dafdfb238f88371007a415cd10e418429e",
      "blockHash": "0xf5243fcde5008b7a61fadd94f0207ddfd102f4c7f88d9c926994dd9f3bc8963c",
      "blockNumber": 99954,
      "transactionIndex": 1,
      "confirmations": null,
      "from": "0xe6A7a1d47ff21B6321162AEA7C6CB457D5476Bca",
      "gasPrice": {
        "_hex": "0xcf9d58024"
      },
      "gasLimit": {
        "_hex": "0x55f0"
      },
      "to": "0xF178805EA39C903a49e6A465DBD40f22576aE24a",
      "value": {
        "_hex": "0x257bbd4421e8b548"
      },
      "nonce": 3156,
      "data": "0x",
      "r": "0x4a429c4b5328925a8300d21bb6e090f87771a94163a1724085c6a27e78545bf1",
      "s": "0x4812634ae3d1fc5f5f75369724bb7680ba0b047350ebadf69c68e4fd74d2ff90",
      "v": 27,
      "creates": null,
      "raw": "0xf86e820c54850cf9d580248255f094f178805ea39c903a49e6a465dbd40f22576ae24a88257bbd4421e8b548801ba04a429c4b5328925a8300d21bb6e090f87771a94163a1724085c6a27e78545bf1a04812634ae3d1fc5f5f75369724bb7680ba0b047350ebadf69c68e4fd74d2ff90",
      "networkId": 0,
      "chainId": 0
    },
    {
      "hash": "0x215a451aa8dedd9bc177f272cafe5e547b66cd252215f6900f9fa7ddc6989b8c",
      "blockHash": "0xf5243fcde5008b7a61fadd94f0207ddfd102f4c7f88d9c926994dd9f3bc8963c",
      "blockNumber": 99954,
      "transactionIndex": 2,
      "confirmations": null,
      "from": "0xe6A7a1d47ff21B6321162AEA7C6CB457D5476Bca",
      "gasPrice": {
        "_hex": "0xcf9d58024"
      },
      "gasLimit": {
        "_hex": "0x55f0"
      },
      "to": "0xBDda295a4aa9E3A60063548157510B47c6BE932f",
      "value": {
        "_hex": "0x25a4b53ef97cdff0"
      },
      "nonce": 3157,
      "data": "0x",
      "r": "0xc682eda69359cd5a1da1a3d9486053e8263669a0f3d6d17b4eb4ef05578bea9e",
      "s": "0x364f1262d0ed4ba7f43b605a6c05eb2dbe90a8090e9999c8bb0e3e77c2e0a13a",
      "v": 28,
      "creates": null,
      "raw": "0xf86e820c55850cf9d580248255f094bdda295a4aa9e3a60063548157510b47c6be932f8825a4b53ef97cdff0801ca0c682eda69359cd5a1da1a3d9486053e8263669a0f3d6d17b4eb4ef05578bea9ea0364f1262d0ed4ba7f43b605a6c05eb2dbe90a8090e9999c8bb0e3e77c2e0a13a",
      "networkId": 0,
      "chainId": 0
    },
    {
      "hash": "0xfc446bae86bbae5741b9c244536a454ba1a8c83c82a2c9beb6711aa036fe1f75",
      "blockHash": "0xf5243fcde5008b7a61fadd94f0207ddfd102f4c7f88d9c926994dd9f3bc8963c",
      "blockNumber": 99954,
      "transactionIndex": 3,
      "confirmations": null,
      "from": "0xe6A7a1d47ff21B6321162AEA7C6CB457D5476Bca",
      "gasPrice": {
        "_hex": "0xcf9d58024"
      },
      "gasLimit": {
        "_hex": "0x55f0"
      },
      "to": "0x02f4c7248513B56356B261cB797fBC618c410569",
      "value": {
        "_hex": "0x260ea8fb6616f3fc"
      },
      "nonce": 3158,
      "data": "0x",
      "r": "0x9c5ca04ea1708866b3b1d6173735d67dca50a8d94397eff3600d809508b18107",
      "s": "0x4ffcf304203434636550c298d7f86247c2902e8ffe83c185dcb951284cb5ffdd",
      "v": 28,
      "creates": null,
      "raw": "0xf86e820c56850cf9d580248255f09402f4c7248513b56356b261cb797fbc618c41056988260ea8fb6616f3fc801ca09c5ca04ea1708866b3b1d6173735d67dca50a8d94397eff3600d809508b18107a04ffcf304203434636550c298d7f86247c2902e8ffe83c185dcb951284cb5ffdd",
      "networkId": 0,
      "chainId": 0
    },
    {
      "hash": "0x7d4d47fbb7aae8ab3d007e1f555957686250df0b2f5df59f70217ede10095410",
      "blockHash": "0xf5243fcde5008b7a61fadd94f0207ddfd102f4c7f88d9c926994dd9f3bc8963c",
      "blockNumber": 99954,
      "transactionIndex": 4,
      "confirmations": null,
      "from": "0xe6A7a1d47ff21B6321162AEA7C6CB457D5476Bca",
      "gasPrice": {
        "_hex": "0xcf9d58024"
      },
      "gasLimit": {
        "_hex": "0x55f0"
      },
      "to": "0x5C2422A39Bcb8E469423cA039cf2b89BbE55E93E",
      "value": {
        "_hex": "0x26aace1d82bb3750"
      },
      "nonce": 3159,
      "data": "0x",
      "r": "0x02fb8bbbe253f75586335a88921e0df372412a4765b7938203ac4af94ca6d800",
      "s": "0x4cbacc19b3b02925dc529efbbe83db106ed8d19be6fbb8ea40af307fb0a0590b",
      "v": 27,
      "creates": null,
      "raw": "0xf86e820c57850cf9d580248255f0945c2422a39bcb8e469423ca039cf2b89bbe55e93e8826aace1d82bb3750801ba002fb8bbbe253f75586335a88921e0df372412a4765b7938203ac4af94ca6d800a04cbacc19b3b02925dc529efbbe83db106ed8d19be6fbb8ea40af307fb0a0590b",
      "networkId": 0,
      "chainId": 0
    },
    {
      "hash": "0x5fb439bed6fb839e16e24e8e0ff21ae46b11e9107c4387a94991c2f7f5ec3c7a",
      "blockHash": "0xf5243fcde5008b7a61fadd94f0207ddfd102f4c7f88d9c926994dd9f3bc8963c",
      "blockNumber": 99954,
      "transactionIndex": 5,
      "confirmations": null,
      "from": "0xe6A7a1d47ff21B6321162AEA7C6CB457D5476Bca",
      "gasPrice": {
        "_hex": "0xcf9d58024"
      },
      "gasLimit": {
        "_hex": "0x55f0"
      },
      "to": "0xE2376E68D8260aC85EA789CA4fAcce34a816dDeC",
      "value": {
        "_hex": "0x26c2752829fc420c"
      },
      "nonce": 3160,
      "data": "0x",
      "r": "0x7ab571014f79e0c10993d4708d39282f13c2c57f5efc2b41a56325c8b68ffc9f",
      "s": "0x2bc00a8c016a7e74ed2f4a0096d83f67d530acf1a074a25d07711feceef7196f",
      "v": 27,
      "creates": null,
      "raw": "0xf86e820c58850cf9d580248255f094e2376e68d8260ac85ea789ca4facce34a816ddec8826c2752829fc420c801ba07ab571014f79e0c10993d4708d39282f13c2c57f5efc2b41a56325c8b68ffc9fa02bc00a8c016a7e74ed2f4a0096d83f67d530acf1a074a25d07711feceef7196f",
      "networkId": 0,
      "chainId": 0
    },
    {
      "hash": "0x1fa5a4b71717962836ba2a228c6bb3086e0351b1178d644e1e61a3e6aaf63d9d",
      "blockHash": "0xf5243fcde5008b7a61fadd94f0207ddfd102f4c7f88d9c926994dd9f3bc8963c",
      "blockNumber": 99954,
      "transactionIndex": 6,
      "confirmations": null,
      "from": "0xe6A7a1d47ff21B6321162AEA7C6CB457D5476Bca",
      "gasPrice": {
        "_hex": "0xcf9d58024"
      },
      "gasLimit": {
        "_hex": "0x55f0"
      },
      "to": "0x144BC9FE471D3C71D8e09D58060d78661B1D4F32",
      "value": {
        "_hex": "0x26f9a3cbcfced858"
      },
      "nonce": 3161,
      "data": "0x",
      "r": "0xa847c8b6280eb29a143d507801f560c503b9392615106c34d81ba5888e9afa86",
      "s": "0x64c23d8836d24e445c4b62e32a78cf4a831651721e3a5742f5461ae63602da2f",
      "v": 28,
      "creates": null,
      "raw": "0xf86e820c59850cf9d580248255f094144bc9fe471d3c71d8e09d58060d78661b1d4f328826f9a3cbcfced858801ca0a847c8b6280eb29a143d507801f560c503b9392615106c34d81ba5888e9afa86a064c23d8836d24e445c4b62e32a78cf4a831651721e3a5742f5461ae63602da2f",
      "networkId": 0,
      "chainId": 0
    },
    {
      "hash": "0x9c7286069891107bbb7c6b33cf382c8c1996dd7a6f15de1c3d57e8786dc224c7",
      "blockHash": "0xf5243fcde5008b7a61fadd94f0207ddfd102f4c7f88d9c926994dd9f3bc8963c",
      "blockNumber": 99954,
      "transactionIndex": 7,
      "confirmations": null,
      "from": "0xe6A7a1d47ff21B6321162AEA7C6CB457D5476Bca",
      "gasPrice": {
        "_hex": "0xcf9d58024"
      },
      "gasLimit": {
        "_hex": "0x55f0"
      },
      "to": "0x237213131Cf2e4027D4E8Bb293379823874a16fD",
      "value": {
        "_hex": "0x26fad974731f93d8"
      },
      "nonce": 3162,
      "data": "0x",
      "r": "0x64c9341bced2475dabb15eb116389741bc0cf8ea3766a8803048a79d45bda3ae",
      "s": "0x00625eb8f06eceb2131ea289cc36d6383cd877fc37f173dc7450e4c25df1a61f",
      "v": 28,
      "creates": null,
      "raw": "0xf86d820c5a850cf9d580248255f094237213131cf2e4027d4e8bb293379823874a16fd8826fad974731f93d8801ca064c9341bced2475dabb15eb116389741bc0cf8ea3766a8803048a79d45bda3ae9f625eb8f06eceb2131ea289cc36d6383cd877fc37f173dc7450e4c25df1a61f",
      "networkId": 0,
      "chainId": 0
    },
    {
      "hash": "0xcfb2690a7153cf59c1daed127eba67b72b9169917b6d1e4db742ca3cefeb9aa9",
      "blockHash": "0xf5243fcde5008b7a61fadd94f0207ddfd102f4c7f88d9c926994dd9f3bc8963c",
      "blockNumber": 99954,
      "transactionIndex": 8,
      "confirmations": null,
      "from": "0xe6A7a1d47ff21B6321162AEA7C6CB457D5476Bca",
      "gasPrice": {
        "_hex": "0xcf9d58024"
      },
      "gasLimit": {
        "_hex": "0x55f0"
      },
      "to": "0xb2Cc35A981a37f727C203350f78142ceCb16fb45",
      "value": {
        "_hex": "0x277ca93a1e9dd3c0"
      },
      "nonce": 3163,
      "data": "0x",
      "r": "0x33461d701f70d4f45c8dd272083d68bc3b914ec664e55077e5e09faabcf9e4f9",
      "s": "0x3261e333626fb59f945e5eedee1a2ac7cecb5530556983c42419d18987bfe060",
      "v": 28,
      "creates": null,
      "raw": "0xf86e820c5b850cf9d580248255f094b2cc35a981a37f727c203350f78142cecb16fb4588277ca93a1e9dd3c0801ca033461d701f70d4f45c8dd272083d68bc3b914ec664e55077e5e09faabcf9e4f9a03261e333626fb59f945e5eedee1a2ac7cecb5530556983c42419d18987bfe060",
      "networkId": 0,
      "chainId": 0
    },
    {
      "hash": "0x45f153b6670c5290ff5dbdc6dfd12acfe18b49585b924c102c4e5fe701577a15",
      "blockHash": "0xf5243fcde5008b7a61fadd94f0207ddfd102f4c7f88d9c926994dd9f3bc8963c",
      "blockNumber": 99954,
      "transactionIndex": 9,
      "confirmations": null,
      "from": "0xe6A7a1d47ff21B6321162AEA7C6CB457D5476Bca",
      "gasPrice": {
        "_hex": "0xcf9d58024"
      },
      "gasLimit": {
        "_hex": "0x55f0"
      },
      "to": "0x0c5aa6cDcC0582B50e5D76B1aA092071b5c3eC74",
      "value": {
        "_hex": "0x27b6eb14d01e0b00"
      },
      "nonce": 3164,
      "data": "0x",
      "r": "0xad42390e11a8e214fbb3be826e924ff502b2b3c151b5d98f64fab8fc19231c79",
      "s": "0x091f1e1badebcc7193a5a553e86f6af7a1a42e4c705e484a9472da3b91b8389a",
      "v": 27,
      "creates": null,
      "raw": "0xf86e820c5c850cf9d580248255f0940c5aa6cdcc0582b50e5d76b1aa092071b5c3ec748827b6eb14d01e0b00801ba0ad42390e11a8e214fbb3be826e924ff502b2b3c151b5d98f64fab8fc19231c79a0091f1e1badebcc7193a5a553e86f6af7a1a42e4c705e484a9472da3b91b8389a",
      "networkId": 0,
      "chainId": 0
    },
    {
      "hash": "0x2a4f247ec0c374686e7b41e75392d98ac127a8750db44941f5ddc47157231b3d",
      "blockHash": "0xf5243fcde5008b7a61fadd94f0207ddfd102f4c7f88d9c926994dd9f3bc8963c",
      "blockNumber": 99954,
      "transactionIndex": 10,
      "confirmations": null,
      "from": "0xe6A7a1d47ff21B6321162AEA7C6CB457D5476Bca",
      "gasPrice": {
        "_hex": "0xcf9d58024"
      },
      "gasLimit": {
        "_hex": "0x55f0"
      },
      "to": "0x8f9822e187F830d1100DF89B4b088c6Ce5F10d7d",
      "value": {
        "_hex": "0x27eb932218331a18"
      },
      "nonce": 3165,
      "data": "0x",
      "r": "0x37a6f9c6b8d9601f750184a559d47313b88aca7a4f9c0f7bdc4490a1d6143f51",
      "s": "0x764d514cffeb5646f1a2d51d8bec44dd52ae6ec1c5f8c0f06cf52c29ba8a3f85",
      "v": 27,
      "creates": null,
      "raw": "0xf86e820c5d850cf9d580248255f0948f9822e187f830d1100df89b4b088c6ce5f10d7d8827eb932218331a18801ba037a6f9c6b8d9601f750184a559d47313b88aca7a4f9c0f7bdc4490a1d6143f51a0764d514cffeb5646f1a2d51d8bec44dd52ae6ec1c5f8c0f06cf52c29ba8a3f85",
      "networkId": 0,
      "chainId": 0
    }
  ]
}