{
  "hash": "0x825183f7fdf3afa5fedb128e443c7ebb732a368bdc54b4038ea780841db740ed",
  "parentHash": "0xbac2bdf436b4010a9b6e8df25c00f64ad644b85bf41f5614e037f54ed1ff092e",
  "number": 47708,
  "timestamp": 1438945180,
  "nonce": "0xb7caa04e2b4f2e36",
  "difficulty": 1443137434633,
  "gasLimit": {
    "_hex": "0xe70f"
  },
  "gasUsed": {
    "_hex": "0xa410"
  },
  "miner": "0x0037ce3d4B7f8729C8607D8D0248252Be68202c0",
  "extraData": "0x476574682f76312e302e312f77696e646f77732f676f312e342e32",
  "transactions": [
    {
      "hash": "0xea93bdc28ba13930d735277c0c45dffa70d74f82e5990df66e554680948b7143",
      "blockHash": "0x825183f7fdf3afa5fedb128e443c7ebb732a368bdc54b4038ea780841db740ed",
      "blockNumber": 47708,
      "transactionIndex": 0,
      "confirmations": null,
      "from": "0xe6A7a1d47ff21B6321162AEA7C6CB457D5476Bca",
      "gasPrice": {
        "_hex": "0xcd24e6a49"
      },
      "gasLimit": {
        "_hex": "0x55f0"
      },
      "to": "0xf6939024FA41613B3B6c4DE6D086Aa16648f5fa3",
      "value": {
        "_hex": "0x1619ea032dab5c6c0"
      },
      "nonce": 215,
      "data": "0x",
      "r": "0x065313cbb48022166860bb31db4758bc725c6d6fd137cba0abde26b52b1273d8",
      "s": "0x4c2efb56c98ad4f2e57bb47f60357ae8ef005760e141570ea305106610841827",
      "v": 28,
      "creates": null,
      "raw": "0xf86e81d7850cd24e6a498255f094f6939024fa41613b3b6c4de6d086aa16648f5fa38901619ea032dab5c6c0801ca0065313cbb48022166860bb31db4758bc725c6d6fd137cba0abde26b52b1273d8a04c2efb56c98ad4f2e57bb47f60357ae8ef005760e141570ea305106610841827",
      "networkId": 0,
      "chainId": 0
    },
    {
      "hash": "0xb2b99c9b55f17f662e74ce912a6dbf8d03a17058021166afd4f72accae7f0b15",
      "blockHash": "0x825183f7fdf3afa5fedb128e443c7ebb732a368bdc54b4038ea780841db740ed",
      "blockNumber": 47708,
      "transactionIndex": 1,
      "confirmations": null,
      "from": "0xe6A7a1d47ff21B6321162AEA7C6CB457D5476Bca",
      "gasPrice": {
        "_hex": "0xcd24e6a49"
      },
      "gasLimit": {
        "_hex": "0x55f0"
      },
      "to": "0x3C70Da88410CF0c9c5496174DFe9cd887a0B834b",
      "value": {
        "_hex": "0x1cf33bcdff8b2e3c0"
      },
      "nonce": 216,
      "data": "0x",
      "r": "0xdb8e2915873bb7aa052266642540f40ec0852cac9c2c5c4817692aecc62b9278",
      "s": "0x43a73cdd875f03588dbb585cc3e71023b5a2f05c19b977ca5c300aad5ef500bb",
      "v": 27,
      "creates": null,
      "raw": "0xf86e81d8850cd24e6a498255f0943c70da88410cf0c9c5496174dfe9cd887a0b834b8901cf33bcdff8b2e3c0801ba0db8e2915873bb7aa052266642540f40ec0852cac9c2c5c4817692aecc62b9278a043a73cdd875f03588dbb585cc3e71023b5a2f05c19b977ca5c300aad5ef500bb",
      "networkId": 0,
      "chainId": 0
    }
  ]
}