{
  "hash": "0x709fd778946c85405ea7c5fce16a9bc51f6d31f3fec9798a70697c3334acc06b",
  "parentHash": "0xdcb449530c47729c1c9126a0d2e0506ade2ff874964a24fce5031701c31be8fb",
  "number": 107089,
  "timestamp": 1439915686,
  "nonce": "0x6a2b219a49018a2d",
  "difficulty": 4472396674037,
  "gasLimit": {
    "_hex": "0x2fefd8"
  },
  "gasUsed": {
    "_hex": "0x5208"
  },
  "miner": "0x95d2EecfE307D4F6A06338468949b9DA10Ea600a",
  "extraData": "0x",
  "transactions": [
    {
      "hash": "0x8c598b21deabbf35ceafca769dfe2a7e8afb9adbcc8e143f5b722636274a7e12",
      "blockHash": "0x709fd778946c85405ea7c5fce16a9bc51f6d31f3fec9798a70697c3334acc06b",
      "blockNumber": 107089,
      "transactionIndex": 0,
      "confirmations": null,
      "from": "0x415655297A0F299D13ACcE68195890200c5d4A8B",
      "gasPrice": {
        "_hex": "0xd641f460d"
      },
      "gasLimit": {
        "_hex": "0x55f0"
      },
      "to": "0x4c225a03584D0D8E46DBa7F48ea5dBd7642011DB",
      "value": {
        "_hex": "0x3782dace9d900000"
      },
      "nonce": 0,
      "data": "0x",
      "r": "0x5d8f44f637c31e8442400f802ee3dd09e3ae52044246ede2956cdc3f84fed878",
      "s": "0x5e67abc4c28cd20e9dbf987549b6c1f331102885ccbb033838d5d297f4f707a3",
      "v": 27,
      "creates": null,
      "raw": "0xf86c80850d641f460d8255f0944c225a03584d0d8e46dba7f48ea5dbd7642011db883782dace9d900000801ba05d8f44f637c31e8442400f802ee3dd09e3ae52044246ede2956cdc3f84fed878a05e67abc4c28cd20e9dbf987549b6c1f331102885ccbb033838d5d297f4f707a3",
      "networkId": 0,
      "chainId": 0
    }
  ]
}