{
  "hash": "0x27544d44f25c8289dc13c78f499e36ba92ed0ee23959c2d924de851a67d2c73c",
  "parentHash": "0x728aa68f602dd03c16c2024a4a2e1498e6f198c70b9ad32f21583913e06779bd",
  "number": 51680,
  "timestamp": 1439009025,
  "nonce": "0x23c73ff4c77a1032",
  "difficulty": 1556621704845,
  "gasLimit": {
    "_hex": "0xce8fa"
  },
  "gasUsed": {
    "_hex": "0x546c"
  },
  "miner": "0xf927a40C8B7F6E07c5af7FA2155B4864a4112B13",
  "extraData": "0x476574682f76312e302e312f6c696e75782f676f312e342e32",
  "transactions": [
    {
      "hash": "0xb603679cbf0e394a1a6284212f67d41762f23123b459d88d15eb15d9ff003f45",
      "blockHash": "0x27544d44f25c8289dc13c78f499e36ba92ed0ee23959c2d924de851a67d2c73c",
      "blockNumber": 51680,
      "transactionIndex": 0,
      "confirmations": null,
      "from": "0xdbE8AfF79C6700AFE41999c573d2d15691Fb59ee",
      "gasPrice": {
        "_hex": "0xcf0d3a3c8"
      },
      "gasLimit": {
        "_hex": "0x15f90"
      },
      "to": "0xf8E0CA3Ed80bd541b94BEdCf259e8CF2141A9523",
      "value": {
        "_hex": "0x80c92ed51ba0000"
      },
      "nonce": 2,
      "data": "0x454e433933464b3330",
      "r": "0xadf51753ec3557638131c52632d34e53915b7f4f29d2c68a1a84dfc21ef0fdcf",
      "s": "0x0ab48e492d0a89e60a5e05abdfb124b8feb96f24271f672a397ff52d7a0d3808",
      "v": 28,
      "creates": null,
      "raw": "0xf87602850cf0d3a3c883015f9094f8e0ca3ed80bd541b94bedcf259e8cf2141a952388080c92ed51ba000089454e433933464b33301ca0adf51753ec3557638131c52632d34e53915b7f4f29d2c68a1a84dfc21ef0fdcfa00ab48e492d0a89e60a5e05abdfb124b8feb96f24271f672a397ff52d7a0d3808",
      "networkId": 0,
      "chainId": 0
    }
  ]
}