{
  "hash": "0xa3523d226e40a349bfc18cd888289b3a0902f105d6310ce0670c4527b7eb9a27",
  "parentHash": "0x6f879c249326a99db5c75bff85a2f64d60b3648b5ca0853de3fe471d27e2e147",
  "number": 104402,
  "timestamp": 1439869224,
  "nonce": "0x5ddb539c9cbdb5d6",
  "difficulty": 4321388564253,
  "gasLimit": {
    "_hex": "0x2fefd8"
  },
  "gasUsed": {
    "_hex": "0x5208"
  },
  "miner": "0xD6e6b0E55C9b50F68269e40E31f8Ce7a8B43f9fC",
  "extraData": "0x476574682f76312e302e312f77696e646f77732f676f312e342e32",
  "transactions": [
    {
      "hash": "0x5c9163d66b03765cfd3d9f902f4da2294953c7d84c3eb20a00931521e5247402",
      "blockHash": "0xa3523d226e40a349bfc18cd888289b3a0902f105d6310ce0670c4527b7eb9a27",
      "blockNumber": 104402,
      "transactionIndex": 0,
      "confirmations": null,
      "from": "0xa6BDc31c431B8F97848c9D60cbbe9660dc450eB7",
      "gasPrice": {
        "_hex": "0xccde1d664"
      },
      "gasLimit": {
        "_hex": "0x5208"
      },
      "to": "0x32Be343B94f860124dC4fEe278FDCBD38C102D88",
      "value": {
        "_hex": "0x455f772924d76400"
      },
      "nonce": 169,
      "data": "0x",
      "r": "0x82a44518dc9bef88a67e551b49696fb38c6a5dc5908a17dbce03990ce0151c6b",
      "s": "0x7fd15768e9b92aeedb7ba225551e2a1ff4f44c240ff13acf0ff331370a0f64a8",
      "v": 28,
      "creates": null,
      "raw": "0xf86d81a9850ccde1d6648252089432be343b94f860124dc4fee278fdcbd38c102d8888455f772924d76400801ca082a44518dc9bef88a67e551b49696fb38c6a5dc5908a17dbce03990ce0151c6ba07fd15768e9b92aeedb7ba225551e2a1ff4f44c240ff13acf0ff331370a0f64a8",
      "networkId": 0,
      "chainId": 0
    }
  ]
}