{
  "hash": "0x02f631b5972baaf639423d2542a80e461df6f01dac1d518b8a8ba1540fe0cfa2",
  "parentHash": "0x5799d144fe98c1fb001363a2f6d9a63765cf04b0415d4d512266456edd692789",
  "number": 54437,
  "timestamp": 1439054336,
  "nonce": "0xcd80d76b293df557",
  "difficulty": 1606290563544,
  "gasLimit": {
    "_hex": "0x2fefd8"
  },
  "gasUsed": {
    "_hex": "0x5208"
  },
  "miner": "0xf927a40C8B7F6E07c5af7FA2155B4864a4112B13",
  "extraData": "0x476574682f76312e302e312f6c696e75782f676f312e342e32",
  "transactions": [
    {
      "hash": "0xd6bafd491bf777de49d5484a41d91371f91652711402f22d1a93d298fa8498a5",
      "blockHash": "0x02f631b5972baaf639423d2542a80e461df6f01dac1d518b8a8ba1540fe0cfa2",
      "blockNumber": 54437,
      "transactionIndex": 0,
      "confirmations": null,
      "from": "0x439632734cdF5a84774156c1938CbeDe2eF398F0",
      "gasPrice": {
        "_hex": "0xce5639ee8"
      },
      "gasLimit": {
        "_hex": "0x5208"
      },
      "to": "0x32Be343B94f860124dC4fEe278FDCBD38C102D88",
      "value": {
        "_hex": "0x15aedb5aa6231f000"
      },
      "nonce": 5,
      "data": "0x",
      "r": "0x36e3ab8d73b40a47c2ac72dd277f7612f9337a138c8cda0c677946843e5b5c7a",
      "s": "0x153a45ebb713edfc87a8db746aac3b8fbe5ff29133063d6d90aeac44ac88ef12",
      "v": 27,
      "creates": null,
      "raw": "0xf86d05850ce5639ee88252089432be343b94f860124dc4fee278fdcbd38c102d8889015aedb5aa6231f000801ba036e3ab8d73b40a47c2ac72dd277f7612f9337a138c8cda0c677946843e5b5c7aa0153a45ebb713edfc87a8db746aac3b8fbe5ff29133063d6d90aeac44ac88ef12",
      "networkId": 0,
      "chainId": 0
    }
  ]
}