{
  "hash": "0x0260bd500505e2519711c815b2582a512ac8023c07e18d7c985aa836a9494b74",
  "parentHash": "0x7801f248d53448811098a15777eefe4a38e987e768d0a809ef5745ee8b666f53",
  "number": 87210,
  "timestamp": 1439588935,
  "nonce": "0x2247bf8b5e3a161d",
  "difficulty": 3064618437732,
  "gasLimit": {
    "_hex": "0x2fefd8"
  },
  "gasUsed": {
    "_hex": "0x5208"
  },
  "miner": "0x123843545FB525C8E134c9A5F15ADA6865cc3848",
  "extraData": "0x476574682f76312e302e312f77696e646f77732f676f312e342e32",
  "transactions": [
    {
      "hash": "0x653de336caf7f93f1a582a88b5b6620e5eac3fb0b5162082f4737969c92bfea3",
      "blockHash": "0x0260bd500505e2519711c815b2582a512ac8023c07e18d7c985aa836a9494b74",
      "blockNumber": 87210,
      "transactionIndex": 0,
      "confirmations": null,
      "from": "0x2910543Af39abA0Cd09dBb2D50200b3E800A63D2",
      "gasPrice": {
        "_hex": "0xd8f497858"
      },
      "gasLimit": {
        "_hex": "0x5208"
      },
      "to": "0x141d08EDaDA2C1bA62A2940184Ba03d62d3fFF22",
      "value": {
        "_hex": "0x14cff5d5e797f8000"
      },
      "nonce": 697,
      "data": "0x",
      "r": "0x3c97018878a9c04b2e3dbd0c3e965f9e1d861106b025bc9b67e44105997e73c0",
      "s": "0x1b8adfdce10c9654f7233d176988143a05db085c084d368572ecc3d2851c1f06",
      "v": 28,
      "creates": null,
      "raw": "0xf86f8202b9850d8f49785882520894141d08edada2c1ba62a2940184ba03d62d3fff2289014cff5d5e797f8000801ca03c97018878a9c04b2e3dbd0c3e965f9e1d861106b025bc9b67e44105997e73c0a01b8adfdce10c9654f7233d176988143a05db085c084d368572ecc3d2851c1f06",
      "networkId": 0,
      "chainId": 0
    }
  ]
}