{
  "hash": "0x91bf438b029339002be7d82559b1269a738b714a85842d6f92817fde2f84813a",
  "parentHash": "0x5a7a004d883eeca4870d8f76392dc93df8065f1434f25f29655a342ae83b6b99",
  "number": 120414,
  "timestamp": 1440159664,
  "nonce": "0xe21d4a2cc9aaf8d2",
  "difficulty": 4389635195033,
  "gasLimit": {
    "_hex": "0x2fefd8"
  },
  "gasUsed": {
    "_hex": "0x5208"
  },
  "miner": "0xf927a40C8B7F6E07c5af7FA2155B4864a4112B13",
  "extraData": "0x476574682f76312e302e322f6c696e75782f676f312e342e32",
  "transactions": [
    {
      "hash": "0xfc8d37497a56d4b868b6a8a4184fd61780e4b140ab9d15f40364d73b6139f114",
      "blockHash": "0x91bf438b029339002be7d82559b1269a738b714a85842d6f92817fde2f84813a",
      "blockNumber": 120414,
      "transactionIndex": 0,
      "confirmations": null,
      "from": "0x2c640E5e3DE20DECa76ee10c5Fd6ECd074EFb3e8",
      "gasPrice": {
        "_hex": "0xba43b7400"
      },
      "gasLimit": {
        "_hex": "0x7530"
      },
      "to": "0xa9f5E7bf6Cbf6fEc55B30850Eb492b47A376d050",
      "value": {
        "_hex": "0x19274b259f6540000"
      },
      "nonce": 7,
      "data": "0x",
      "r": "0xb1d4f8ed422bcecaac8b614bce302db04b0b7861dbec5258f00e45cca995b8a3",
      "s": "0x76e3bb2cda8b5c71995b31cc1266bccdf563fef703388b232b6c329a623ebd3a",
      "v": 28,
      "creates": null,
      "raw": "0xf86d07850ba43b740082753094a9f5e7bf6cbf6fec55b30850eb492b47a376d05089019274b259f6540000801ca0b1d4f8ed422bcecaac8b614bce302db04b0b7861dbec5258f00e45cca995b8a3a076e3bb2cda8b5c71995b31cc1266bccdf563fef703388b232b6c329a623ebd3a",
      "networkId": 0,
      "chainId": 0
    }
  ]
}