{
  "hash": "0x62dafe48620c6e217091acfde5f924178f0a2f40584241fd923802bba9aae8d1",
  "parentHash": "0xf96e1c7aeb34af093b87f15f2fe1946154935daa3454d594198ff215438cc356",
  "number": 81471,
  "timestamp": 1439502282,
  "nonce": "0xced3bf0572f2cea2",
  "difficulty": 2446193094356,
  "gasLimit": {
    "_hex": "0x2fefd8"
  },
  "gasUsed": {
    "_hex": "0x5208"
  },
  "miner": "0x580992B51e3925e23280EfB93d3047C82f17E038",
  "extraData": "0x476574682f76312e302e312f6c696e75782f676f312e342e32",
  "transactions": [
    {
      "hash": "0x0fefdc521130a1d539bf90d9311852b3e483eeab9c4ad7d249a4ba24782af5fa",
      "blockHash": "0x62dafe48620c6e217091acfde5f924178f0a2f40584241fd923802bba9aae8d1",
      "blockNumber": 81471,
      "transactionIndex": 0,
      "confirmations": null,
      "from": "0xcfB28bCf7F2c14f488e13B0C6598bcf00c233b92",
      "gasPrice": {
        "_hex": "0xce962d5be"
      },
      "gasLimit": {
        "_hex": "0x15f90"
      },
      "to": "0x4eC68687B54dba931f2Ab0c35B4487b16F10f2e9",
      "value": {
        "_hex": "0x98a7d9b8314c0000"
      },
      "nonce": 2,
      "data": "0x",
      "r": "0x6a51b6f6f3c7744bfde47e071ecd3136ccd83a1688d247c00c30335c26c0816a",
      "s": "0x2ef08919d13a0cf9f263eee5c4f5c3d8862bb7bcfd129e00bce3a45a1c711364",
      "v": 27,
      "creates": null,
      "raw": "0xf86d02850ce962d5be83015f90944ec68687b54dba931f2ab0c35b4487b16f10f2e98898a7d9b8314c0000801ba06a51b6f6f3c7744bfde47e071ecd3136ccd83a1688d247c00c30335c26c0816aa02ef08919d13a0cf9f263eee5c4f5c3d8862bb7bcfd129e00bce3a45a1c711364",
      "networkId": 0,
      "chainId": 0
    }
  ]
}