{
  "hash": "0x004b857387d782ab107760e0a56a932c1aa54484616bcfb89774c15d2d30ac53",
  "parentHash": "0x2cb39644938ae6f896268d5c57ba753a17677f7831840bb824853da67cdac4b1",
  "number": 84253,
  "timestamp": 1439547053,
  "nonce": "0x31dcdef20e42c475",
  "difficulty": 2530409195404,
  "gasLimit": {
    "_hex": "0x2fefd8"
  },
  "gasUsed": {
    "_hex": "0x19a28"
  },
  "miner": "0xe6A7a1d47ff21B6321162AEA7C6CB457D5476Bca",
  "extraData": "0x476574682f76312e302e312d38326566323666362f6c696e75782f676f312e34",
  "transactions": [
    {
      "hash": "0xf97acc69dd335789630e71c519d3bed601c393fec886fdc005f927a2f365c2b5",
      "blockHash": "0x004b857387d782ab107760e0a56a932c1aa54484616bcfb89774c15d2d30ac53",
      "blockNumber": 84253,
      "transactionIndex": 0,
      "confirmations": null,
      "from": "0xe6A7a1d47ff21B6321162AEA7C6CB457D5476Bca",
      "gasPrice": {
        "_hex": "0xe1af61c96"
      },
      "gasLimit": {
        "_hex": "0x55f0"
      },
      "to": "0x1C8ec4eb0bf7e12EaAA128F202bee847ee920a63",
      "value": {
        "_hex": "0xf10226d19c83724"
      },
      "nonce": 1410,
      "data": "0x",
      "r": "0x391d56ee9fa800414393481356b5382d150b10fcdafd30ff195c648853389ff0",
      "s": "0x39f03bf40c604433003ea38422f7dba20d1067f89b31ffaae81b3db9c48c46d8",
      "v": 27,
      "creates": null,
      "raw": "0xf86e820582850e1af61c968255f0941c8ec4eb0bf7e12eaaa128f202bee847ee920a63880f10226d19c83724801ba0391d56ee9fa800414393481356b5382d150b10fcdafd30ff195c648853389ff0a039f03bf40c604433003ea38422f7dba20d1067f89b31ffaae81b3db9c48c46d8",
      "networkId": 0,
      "chainId": 0
    },
    {
      "hash": "0xf52b7afb6818dbc0835f520b350dde2dc0b016a5a9107c4ed3eaac8ddbf13228",
      "blockHash": "0x004b857387d782ab107760e0a56a932c1aa54484616bcfb89774c15d2d30ac53",
      "blockNumber": 84253,
      "transactionIndex": 1,
      "confirmations": null,
      "from": "0xe6A7a1d47ff21B6321162AEA7C6CB457D5476Bca",
      "gasPrice": {
        "_hex": "0xe1af61c96"
      },
      "gasLimit": {
        "_hex": "0x55f0"
      },
      "to": "0x111bC4e928A5Ad3d615b86f248a5297bb7B8EB81",
      "value": {
        "_hex": "0xf1962a132c0bae4"
      },
      "nonce": 1411,
      "data": "0x",
      "r": "0x4e3ad5c782ce585271b08abcc827043bc3155dc77d427d336c6914ad6fbb0ab2",
      "s": "0x6e032231a7b8914305d6419e683e2a2eeb01de1ac3a548454de6b09b0643c6d9",
      "v": 27,
      "creates": null,
      "raw": "0xf86e820583850e1af61c968255f094111bc4e928a5ad3d615b86f248a5297bb7b8eb81880f1962a132c0bae4801ba04e3ad5c782ce585271b08abcc827043bc3155dc77d427d336c6914ad6fbb0ab2a06e032231a7b8914305d6419e683e2a2eeb01de1ac3a548454de6b09b0643c6d9",
      "networkId": 0,
      "chainId": 0
    },
    {
      "hash": "0xc456aaa99b2d7a412031c964a73b51f8b1911d1d66bb230226d88025546bfa29",
      "blockHash": "0x004b857387d782ab107760e0a56a932c1aa54484616bcfb89774c15d2d30ac53",
      "blockNumber": 84253,
      "transactionIndex": 2,
      "confirmations": null,
      "from": "0xe6A7a1d47ff21B6321162AEA7C6CB457D5476Bca",
      "gasPrice": {
        "_hex": "0xe1af61c96"
      },
      "gasLimit": {
        "_hex": "0x55f0"
      },
      "to": "0xfEE4dEb01301A2633e0046305A31fcA8d04F416c",
      "value": {
        "_hex": "0xf605b8c9d2d1a28"
      },
      "nonce": 1412,
      "data": "0x",
      "r": "0xbb49aec1d18f394ae8cf7907856b82d3d5beec9047b4ca29f55fe4e4ce7a3b41",
      "s": "0x6aec117f5fc5487d9087cab900ab9ba67cb530444d11feee5ad3a6cea00d41b5",
      "v": 27,
      "creates": null,
      "raw": "0xf86e820584850e1af61c968255f094fee4deb01301a2633e0046305a31fca8d04f416c880f605b8c9d2d1a28801ba0bb49aec1d18f394ae8cf7907856b82d3d5beec9047b4ca29f55fe4e4ce7a3b41a06aec117f5fc5487d9087cab900ab9ba67cb530444d11feee5ad3a6cea00d41b5",
      "networkId": 0,
      "chainId": 0
    },
    {
      "hash": "0x8e8c715ff6d916ef0a997aaed553025afb9d24d63df1aa70bbed3d708490c02b",
      "blockHash": "0x004b857387d782ab107760e0a56a932c1aa54484616bcfb89774c15d2d30ac53",
      "blockNumber": 84253,
      "transactionIndex": 3,
      "confirmations": null,
      "from": "0xe6A7a1d47ff21B6321162AEA7C6CB457D5476Bca",
      "gasPrice": {
        "_hex": "0xe1af61c96"
      },
      "gasLimit": {
        "_hex": "0x55f0"
      },
      "to": "0xfeB0907bd66A4de5a6e71bd8dA6b2eb87612763B",
      "value": {
        "_hex": "0xf62553b410ee6e0"
      },
      "nonce": 1413,
      "data": "0x",
      "r": "0x50b4c7d8367d6e3047ca244d6942bb2dfb296dff63314c11e278ff3aed268ee7",
      "s": "0x02ac4bbb7597ee7033fc6b3c3237c95e9bc0c65b5867821a28d2ca86de0e3245",
      "v": 28,
      "creates": null,
      "raw": "0xf86e820585850e1af61c968255f094feb0907bd66a4de5a6e71bd8da6b2eb87612763b880f62553b410ee6e0801ca050b4c7d8367d6e3047ca244d6942bb2dfb296dff63314c11e278ff3aed268ee7a002ac4bbb7597ee7033fc6b3c3237c95e9bc0c65b5867821a28d2ca86de0e3245",
      "networkId": 0,
      "chainId": 0
    },
    {
      "hash": "0x4c636dd4ed1f12a8332e3ee1251bfd7ded6d3ea40fa16aa9438afe8336628339",
      "blockHash": "0x004b857387d782ab107760e0a56a932c1aa54484616bcfb89774c15d2d30ac53",
      "blockNumber": 84253,
      "transactionIndex": 4,
      "confirmations": null,
      "from": "0xe6A7a1d47ff21B6321162AEA7C6CB457D5476Bca",
      "gasPrice": {
        "_hex": "0xe1af61c96"
      },
      "gasLimit": {
        "_hex": "0x55f0"
      },
      "to": "0x740Ab9f08593f931fC5d0589a528663565e707ee",
      "value": {
        "_hex": "0xf69df3709cd52ec"
      },
      "nonce": 1414,
      "data": "0x",
      "r": "0x0a3019d0adba1067473cd3cefd5b3aabc2d6cb7134d4260e5d7ef7216ab207cc",
      "s": "0x2f320536bb114826c99cc97891adb50350768fcb4d73817871f655f1d4cc170d",
      "v": 28,
      "creates": null,
      "raw": "0xf86e820586850e1af61c968255f094740ab9f08593f931fc5d0589a528663565e707ee880f69df3709cd52ec801ca00a3019d0adba1067473cd3cefd5b3aabc2d6cb7134d4260e5d7ef7216ab207cca02f320536bb114826c99cc97891adb50350768fcb4d73817871f655f1d4cc170d",
      "networkId": 0,
      "chainId": 0
    }
  ]
}