{
  "hash": "0x7783edfdabd73e84c26df90a8605810e0b404dd701a99c203189185d2c84ba00",
  "parentHash": "0xceee2aaadb28bc649217e2b05f780766043ad04b720e843ddda0fcda560496a8",
  "number": 52570,
  "timestamp": 1439023725,
  "nonce": "0x456f3df3ac4a5098",
  "difficulty": 1567132852114,
  "gasLimit": {
    "_hex": "0x1599b0"
  },
  "gasUsed": {
    "_hex": "0xf9448"
  },
  "miner": "0xbb7B8287f3F0a933474a79eAe42CBCa977791171",
  "extraData": "0x476574682f4c5649562f76312e302e312f6c696e75782f676f312e342e32",
  "transactions": [
    {
      "hash": "0x6505cdde56ffc0dba76aff4dc20a913f51f9eb7f0332912c9b0409b5f4c5dd2d",
      "blockHash": "0x7783edfdabd73e84c26df90a8605810e0b404dd701a99c203189185d2c84ba00",
      "blockNumber": 52570,
      "transactionIndex": 0,
      "confirmations": null,
      "from": "0x54dAeb3E8a6BBC797E4aD2b0339f134b186e4637",
      "gasPrice": {
        "_hex": "0xe7d27df17"
      },
      "gasLimit": {
        "_hex": "0x7a120"
      },
      "to": "0xBAA54d6E90c3F4d7Ebec11bD180134C7eD8eBb52",
      "value": {
        "_hex": "0x16345785d8a0000"
      },
      "nonce": 736,
      "data": "0x",
      "r": "0x11377437192062a501de4074fa7f4c1e60c4f55cb1e84b42451a8eb4bda2fbf7",
      "s": "0x7e32a90d2acdb48abcd93dbea4a6cf039c3baf28e1f56e13f5df9c1193a09b88",
      "v": 27,
      "creates": null,
      "raw": "0xf86f8202e0850e7d27df178307a12094baa54d6e90c3f4d7ebec11bd180134c7ed8ebb5288016345785d8a0000801ba011377437192062a501de4074fa7f4c1e60c4f55cb1e84b42451a8eb4bda2fbf7a07e32a90d2acdb48abcd93dbea4a6cf039c3baf28e1f56e13f5df9c1193a09b88",
      "networkId": 0,
      "chainId": 0
    },
    {
      "hash": "0xe781dfb9f72765e8bf2641402f4dab8ca9dd6d264b58a134d5e799cef63961be",
      "blockHash": "0x7783edfdabd73e84c26df90a8605810e0b404dd701a99c203189185d2c84ba00",
      "blockNumber": 52570,
      "transactionIndex": 1,
      "confirmations": null,
      "from": "0x54dAeb3E8a6BBC797E4aD2b0339f134b186e4637",
      "gasPrice": {
        "_hex": "0xdc89443da"
      },
      "gasLimit": {
        "_hex": "0x5208"
      },
      "to": "0x54dAeb3E8a6BBC797E4aD2b0339f134b186e4637",
      "value": {
        "_hex": "0x0"
      },
      "nonce": 737,
      "data": "0x",
      "r": "0xeffddc943bfc874d7b5a14ca9ae67de4aee661fcccef1dfd5de17ee90059c923",
      "s": "0x40016028134c816f1254ca81bfd5750fa7ddd17e17ee7a7a3fd233c2b7b2b17f",
      "v": 28,
      "creates": null,
      "raw": "0xf8668202e1850dc89443da8252089454daeb3e8a6bbc797e4ad2b0339f134b186e463780801ca0effddc943bfc874d7b5a14ca9ae67de4aee661fcccef1dfd5de17ee90059c923a040016028134c816f1254ca81bfd5750fa7ddd17e17ee7a7a3fd233c2b7b2b17f",
      "networkId": 0,
      "chainId": 0
    },
    {
      "hash": "0x5059a8b4e9744815732eb99f758f50428dcc76a98683bf5c586c69b854aed5ff",
      "blockHash": "0x7783edfdabd73e84c26df90a8605810e0b404dd701a99c203189185d2c84ba00",
      "blockNumber": 52570,
      "transactionIndex": 2,
      "confirmations": null,
      "from": "0x54dAeb3E8a6BBC797E4aD2b0339f134b186e4637",
      "gasPrice": {
        "_hex": "0xe7d27df17"
      },
      "gasLimit": {
        "_hex": "0x7a120"
      },
      "to": "0xBAA54d6E90c3F4d7Ebec11bD180134C7eD8eBb52",
      "value": {
        "_hex": "0x16345785d8a0000"
      },
      "nonce": 738,
      "data": "0x",
      "r": "0xbb3baaf6873267a16b7df5ed43890328970b12940a6740588b2bad26776a9296",
      "s": "0x74febcd8ea973f48c6ed03c8023a38c9ee7f2cb6512d9ec82894dd93fce02d9f",
      "v": 27,
      "creates": null,
      "raw": "0xf86f8202e2850e7d27df178307a12094baa54d6e90c3f4d7ebec11bd180134c7ed8ebb5288016345785d8a0000801ba0bb3baaf6873267a16b7df5ed43890328970b12940a6740588b2bad26776a9296a074febcd8ea973f48c6ed03c8023a38c9ee7f2cb6512d9ec82894dd93fce02d9f",
      "networkId": 0,
      "chainId": 0
    }
  ]
}