{
  "hash": "0x1c5f2a503a762839de53b43454cf152e73ec45dba488fe7453345602e0f295c8",
  "parentHash": "0x9ce93edd377a32217314cf72897c521ba05f486126c3e3a8d4551ca2f6787757",
  "number": 94253,
  "timestamp": 1439705254,
  "nonce": "0x0bbd42104dd44684",
  "difficulty": 3464674352976,
  "gasLimit": {
    "_hex": "0x2fefd8"
  },
  "gasUsed": {
    "_hex": "0x5208"
  },
  "miner": "0x893FF53FE9b3DA680472E1948F2294F970D44678",
  "extraData": "0x476574682f76312e302e312f6c696e75782f676f312e342e32",
  "transactions": [
    {
      "hash": "0xb00db36d9e1c064f331f4824994eb09098868817afeb4ce80a7e5571fd9c337a",
      "blockHash": "0x1c5f2a503a762839de53b43454cf152e73ec45dba488fe7453345602e0f295c8",
      "blockNumber": 94253,
      "transactionIndex": 0,
      "confirmations": null,
      "from": "0x2910543Af39abA0Cd09dBb2D50200b3E800A63D2",
      "gasPrice": {
        "_hex": "0xd3abdd582"
      },
      "gasLimit": {
        "_hex": "0x5208"
      },
      "to": "0x2C6dA0AeEF23c6a9eA4a8f19c0810e505FDEb231",
      "value": {
        "_hex": "0x104344570ef14f8000"
      },
      "nonce": 869,
      "data": "0x",
      "r": "0x45f1779d93c8f4b2c82ee00ebe89db4a5a5e77d051db8d6a80001eb92f722710",
      "s": "0x4cecdbab72cedcda5cf5edf8885158e20a4a7d44704510f1ece68dad2686f03e",
      "v": 27,
      "creates": null,
      "raw": "0xf86f820365850d3abdd582825208942c6da0aeef23c6a9ea4a8f19c0810e505fdeb23189104344570ef14f8000801ba045f1779d93c8f4b2c82ee00ebe89db4a5a5e77d051db8d6a80001eb92f722710a04cecdbab72cedcda5cf5edf8885158e20a4a7d44704510f1ece68dad2686f03e",
      "networkId": 0,
      "chainId": 0
    }
  ]
}