{
  "hash": "0x01c10b435e1edb42d6c3aa255d4661f8c11e66feafc4c20a8d1f1c7fcea29a0a",
  "parentHash": "0x14e40351ec12348e528bea1878fd673c2583d76cd3aec6a63165a17967a0c6db",
  "number": 75631,
  "timestamp": 1439406578,
  "nonce": "0x6920fccb286b0cd8",
  "difficulty": 2226659742961,
  "gasLimit": {
    "_hex": "0x2fefd8"
  },
  "gasUsed": {
    "_hex": "0x153eb"
  },
  "miner": "0x785ffdDd5cE55c6DF963f345e68d3F2024E5Acb1",
  "extraData": "0x",
  "transactions": [
    {
      "hash": "0x70894f72c88bedf2719ed7fd5c06a6a8b50d0a41f88434727982ccebb6fce472",
      "blockHash": "0x01c10b435e1edb42d6c3aa255d4661f8c11e66feafc4c20a8d1f1c7fcea29a0a",
      "blockNumber": 75631,
      "transactionIndex": 0,
      "confirmations": null,
      "from": "0x0BB0c12682A2F15C9b5741B2385CBe41f034068e",
      "gasPrice": {
        "_hex": "0x110c8f7d8de"
      },
      "gasLimit": {
        "_hex": "0xc350"
      },
      "to": "0x2910543Af39abA0Cd09dBb2D50200b3E800A63D2",
      "value": {
        "_hex": "0x5142cdcdf5268c0000"
      },
      "nonce": 0,
      "data": "0x454e50344155513247",
      "r": "0x1bd805fe454ac63e382ad5c996896a47b9f1fbaba1fe2468a56c646d468089ba",
      "s": "0x3f623eb3961955f06117970dee967dc9a1e02837c6b8c9ef5945cadde1dafab0",
      "v": 27,
      "creates": null,
      "raw": "0xf87780860110c8f7d8de82c350942910543af39aba0cd09dbb2d50200b3e800a63d2895142cdcdf5268c000089454e503441555132471ba01bd805fe454ac63e382ad5c996896a47b9f1fbaba1fe2468a56c646d468089baa03f623eb3961955f06117970dee967dc9a1e02837c6b8c9ef5945cadde1dafab0",
      "networkId": 0,
      "chainId": 0
    },
    {
      "hash": "0x3444c2ff04b2e3d50b7eba103d1c03806eb1205b214eb0c65d3c45f4c26574ed",
      "blockHash": "0x01c10b435e1edb42d6c3aa255d4661f8c11e66feafc4c20a8d1f1c7fcea29a0a",
      "blockNumber": 75631,
      "transactionIndex": 1,
      "confirmations": null,
      "from": "0x87C5B5874A18B4306DF8a752a6C8cc3E82daFc19",
      "gasPrice": {
        "_hex": "0x100cc406db9"
      },
      "gasLimit": {
        "_hex": "0x493e0"
      },
      "to": "0xD79B4C6791784184e2755B2fC1659eaaB0f80456",
      "value": {
        "_hex": "0x0"
      },
      "nonce": 57,
      "data": "0x03750d94000000000000000000000000326be8f71bfb0379f989aab1cc1fe37f0a771f603364643561333130313164646232663700000000000000000000000000000000",
      "r": "0xc6e3cd8d0233f9c693deb2b4c257443f9cf56a002319aaf85efd1dcbbdfbb6c9",
      "s": "0x4128d7ea19f5fda808b767317bea02d4abf37ccce6588a060ac7b338b8583542",
      "v": 28,
      "creates": null,
      "raw": "0xf8ab39860100cc406db9830493e094d79b4c6791784184e2755b2fc1659eaab0f8045680b84403750d94000000000000000000000000326be8f71bfb0379f989aab1cc1fe37f0a771f6033646435613331303131646462326637000000000000000000000000000000001ca0c6e3cd8d0233f9c693deb2b4c257443f9cf56a002319aaf85efd1dcbbdfbb6c9a04128d7ea19f5fda808b767317bea02d4abf37ccce6588a060ac7b338b8583542",
      "networkId": 0,
      "chainId": 0
    },
    {
      "hash": "0xc17d24c2360d4153d025b1260a8672f4c7481b84b95dc6ef3d8857ae2825f3bb",
      "blockHash": "0x01c10b435e1edb42d6c3aa255d4661f8c11e66feafc4c20a8d1f1c7fcea29a0a",
      "blockNumber": 75631,
      "transactionIndex": 2,
      "confirmations": null,
      "from": "0xaFF2628417768132E1d04f605Fe1e797f2ECA3F8",
      "gasPrice": {
        "_hex": "0x746a528800"
      },
      "gasLimit": {
        "_hex": "0x5b04"
      },
      "to": "0x1467bcfA961fE8067c779935a78B4a73E7393BD8",
      "value": {
        "_hex": "0x257853b1dd8e0000"
      },
      "nonce": 1,
      "data": "0x",
      "r": "0x848252938cc34015eabb15635d47e6e31207c80c33dceffe42264b220f865f57",
      "s": "0x0f07c4617142d5d4d80d5dfd86839d4b58a283781e31c161c497d96580c037cd",
      "v": 28,
      "creates": null,
      "raw": "0xf86c0185746a528800825b04941467bcfa961fe8067c779935a78b4a73e7393bd888257853b1dd8e0000801ca0848252938cc34015eabb15635d47e6e31207c80c33dceffe42264b220f865f57a00f07c4617142d5d4d80d5dfd86839d4b58a283781e31c161c497d96580c037cd",
      "networkId": 0,
      "chainId": 0
    }
  ]
}