{
  "hash": "0x33b3bea98bf8ecff59b866d1f96df2ab77993f2ae01bdf429a7293262673e86f",
  "parentHash": "0x3aa997dccf31a0993910d7ed47341b65398567fa55a12cf885b5c8f34b8db8a6",
  "number": 48724,
  "timestamp": 1438961918,
  "nonce": "0x25fdd19eaf2f8433",
  "difficulty": 1477181533269,
  "gasLimit": {
    "_hex": "0x1ccc0"
  },
  "gasUsed": {
    "_hex": "0xf87c"
  },
  "miner": "0xDdf735543837695220A5fF5920f5756696840A5D",
  "extraData": "0x476574682f76312e302e312f6c696e75782f676f312e342e32",
  "transactions": [
    {
      "hash": "0x32f2feaa51bbc1f265d0ddb791bda378649cab0eb0a9ae1d78ff9975a226bec3",
      "blockHash": "0x33b3bea98bf8ecff59b866d1f96df2ab77993f2ae01bdf429a7293262673e86f",
      "blockNumber": 48724,
      "transactionIndex": 0,
      "confirmations": null,
      "from": "0xF8ae857b67A4a2893A3fBE7c7a87ff1C01c6A6e7",
      "gasPrice": {
        "_hex": "0x110c8f7d8de"
      },
      "gasLimit": {
        "_hex": "0xc350"
      },
      "to": "0x2910543Af39abA0Cd09dBb2D50200b3E800A63D2",
      "value": {
        "_hex": "0x3635c9adc5dea00000"
      },
      "nonce": 0,
      "data": "0x454e30373557365a38",
      "r": "0x348fd6e62c8d6745b07a90f8753887d53972171bf2c3229754af622178f8d18f",
      "s": "0xa73fd2d7513b8e4521cb573792cd453411b6d772bffc3ffd75194116d3bc4618",
      "v": 28,
      "creates": null,
      "raw": "0xf87780860110c8f7d8de82c350942910543af39aba0cd09dbb2d50200b3e800a63d2893635c9adc5dea0000089454e30373557365a381ca0348fd6e62c8d6745b07a90f8753887d53972171bf2c3229754af622178f8d18fa0a73fd2d7513b8e4521cb573792cd453411b6d772bffc3ffd75194116d3bc4618",
      "networkId": 0,
      "chainId": 0
    },
    {
      "hash": "0xdcc9305b094f042cde7a30aa7be3130aba77f1fed94f5026f0ddb5f5cb47c40b",
      "blockHash": "0x33b3bea98bf8ecff59b866d1f96df2ab77993f2ae01bdf429a7293262673e86f",
      "blockNumber": 48724,
      "transactionIndex": 1,
      "confirmations": null,
      "from": "0xFe0412b699317daB06160e62f01A9dB95A261143",
      "gasPrice": {
        "_hex": "0xe0a58f716"
      },
      "gasLimit": {
        "_hex": "0x5208"
      },
      "to": "0x32Be343B94f860124dC4fEe278FDCBD38C102D88",
      "value": {
        "_hex": "0xb62515f9d92070000"
      },
      "nonce": 1,
      "data": "0x",
      "r": "0x3e7875807c55f0896e1b295fbaa102d1ef9db620d934680a1f7f23af7fc1aac7",
      "s": "0x6ed45352c07ded9f602d412579386e945713719b9b809b0486ddd86ad5f257a3",
      "v": 27,
      "creates": null,
      "raw": "0xf86d01850e0a58f7168252089432be343b94f860124dc4fee278fdcbd38c102d88890b62515f9d92070000801ba03e7875807c55f0896e1b295fbaa102d1ef9db620d934680a1f7f23af7fc1aac7a06ed45352c07ded9f602d412579386e945713719b9b809b0486ddd86ad5f257a3",
      "networkId": 0,
      "chainId": 0
    },
    {
      "hash": "0x9534ec21fe579251fe8b876f7365e2da4c7cbfa1bcd8cc2059957ecc7c9e114c",
      "blockHash": "0x33b3bea98bf8ecff59b866d1f96df2ab77993f2ae01bdf429a7293262673e86f",
      "blockNumber": 48724,
      "transactionIndex": 2,
      "confirmations": null,
      "from": "0xD8d0549637b65D58E7FB6cbDd11530b399d1Ddac",
      "gasPrice": {
        "_hex": "0xe0a58f716"
      },
      "gasLimit": {
        "_hex": "0x5208"
      },
      "to": "0x32Be343B94f860124dC4fEe278FDCBD38C102D88",
      "value": {
        "_hex": "0x56bc2de6ba50f0000"
      },
      "nonce": 0,
      "data": "0x",
      "r": "0xa2c4e3590e8bb70c689a0b198785440a9c40910b176b34e899d0cb7434676654",
      "s": "0x176d7838a51985900a271ff569e63c750e5422539c0ac9fe68e7d3603b3207b6",
      "v": 27,
      "creates": null,
      "raw": "0xf86d80850e0a58f7168252089432be343b94f860124dc4fee278fdcbd38c102d8889056bc2de6ba50f0000801ba0a2c4e3590e8bb70c689a0b198785440a9c40910b176b34e899d0cb7434676654a0176d7838a51985900a271ff569e63c750e5422539c0ac9fe68e7d3603b3207b6",
      "networkId": 0,
      "chainId": 0
    }
  ]
}