{
  "hash": "0xdc90408c6ad53b54e3a8b5a6a8ec4a077ad8fe52397600d1ea44ac6a6e283ab3",
  "parentHash": "0x09a434b472c6af959b97434a856c15ec42e0097e608e7c089d81e2580b4acc08",
  "number": 96684,
  "timestamp": 1439744196,
  "nonce": "0x97b71a985627d9b2",
  "difficulty": 3743292506495,
  "gasLimit": {
    "_hex": "0x2fefd8"
  },
  "gasUsed": {
    "_hex": "0x5208"
  },
  "miner": "0x790b8a3cE86E707ED0eD32bF89B3269692a23CC1",
  "extraData": "0xd783010001844765746887676f312e342e32856c696e7578",
  "transactions": [
    {
      "hash": "0x4a6655579b4501f5f58d8b0312dc72b363d27887e473c3838345f9891240c8a0",
      "blockHash": "0xdc90408c6ad53b54e3a8b5a6a8ec4a077ad8fe52397600d1ea44ac6a6e283ab3",
      "blockNumber": 96684,
      "transactionIndex": 0,
      "confirmations": null,
      "from": "0x32Be343B94f860124dC4fEe278FDCBD38C102D88",
      "gasPrice": {
        "_hex": "0xcf951035d"
      },
      "gasLimit": {
        "_hex": "0x5208"
      },
      "to": "0x33Badc62e60284A872ED0bD4e0e32727eA650616",
      "value": {
        "_hex": "0x29b2b062d8cae000"
      },
      "nonce": 1009,
      "data": "0x",
      "r": "0x7cac8ad20d8920a9cab2d3ce9a2df79b6c8f559c358a93c4020bd0c143d46382",
      "s": "0x772273a998cd86b99ffb589ad7c5618e3dde6b4b37d9bfcadebac947c2d966b6",
      "v": 27,
      "creates": null,
      "raw": "0xf86e8203f1850cf951035d8252089433badc62e60284a872ed0bd4e0e32727ea6506168829b2b062d8cae000801ba07cac8ad20d8920a9cab2d3ce9a2df79b6c8f559c358a93c4020bd0c143d46382a0772273a998cd86b99ffb589ad7c5618e3dde6b4b37d9bfcadebac947c2d966b6",
      "networkId": 0,
      "chainId": 0
    }
  ]
}