{
  "hash": "0xc70b7ab880da7300d2afbb379fd46da6cf1b150b3b2da16c2b53975ee000175c",
  "parentHash": "0xd1450398049f296010b262cca493a6305a97b5fa2765f2edc8aa373be8ac5e6c",
  "number": 96663,
  "timestamp": 1439743983,
  "nonce": "0x8ecf72ed3f7a47ae",
  "difficulty": 3726887911327,
  "gasLimit": {
    "_hex": "0x2fefd8"
  },
  "gasUsed": {
    "_hex": "0xf618"
  },
  "miner": "0x2660299c07076aEB9cEF872a41EAF75E4C16020D",
  "extraData": "0x476574682f76312e302e312f77696e646f77732f676f312e342e32",
  "transactions": [
    {
      "hash": "0x0e4ed2d8ea53944babecf8d12430cff2429de61176c542797328018ff385eb41",
      "blockHash": "0xc70b7ab880da7300d2afbb379fd46da6cf1b150b3b2da16c2b53975ee000175c",
      "blockNumber": 96663,
      "transactionIndex": 0,
      "confirmations": null,
      "from": "0x120A270bbC009644e35F0bB6ab13f95b8199c4ad",
      "gasPrice": {
        "_hex": "0xd8a43604f"
      },
      "gasLimit": {
        "_hex": "0x3d090"
      },
      "to": "0x1A45221Bb8D9c78D59bf1De0B3a361F5da3f965E",
      "value": {
        "_hex": "0x46d7f3b006b400"
      },
      "nonce": 623,
      "data": "0x",
      "r": "0xdd6a664068310aa38d897fd2628684219ed6cf6ffe0960a386e5b01ea416657d",
      "s": "0x1a3fbae85ae4dc01c3c39613e19c1af502fe2bd3cadb069c32fb350205701663",
      "v": 28,
      "creates": null,
      "raw": "0xf86e82026f850d8a43604f8303d090941a45221bb8d9c78d59bf1de0b3a361f5da3f965e8746d7f3b006b400801ca0dd6a664068310aa38d897fd2628684219ed6cf6ffe0960a386e5b01ea416657da01a3fbae85ae4dc01c3c39613e19c1af502fe2bd3cadb069c32fb350205701663",
      "networkId": 0,
      "chainId": 0
    },
    {
      "hash": "0x8a1d78a80dbc81f01d96f446d493565b751b454fa82144d8433a4c282e9a0ffc",
      "blockHash": "0xc70b7ab880da7300d2afbb379fd46da6cf1b150b3b2da16c2b53975ee000175c",
      "blockNumber": 96663,
      "transactionIndex": 1,
      "confirmations": null,
      "from": "0x19ae27E1b61445EB9f27821A5eB4b3e957319e7e",
      "gasPrice": {
        "_hex": "0xcc629aa58"
      },
      "gasLimit": {
        "_hex": "0x5208"
      },
      "to": "0x32Be343B94f860124dC4fEe278FDCBD38C102D88",
      "value": {
        "_hex": "0x8d7bb119c1a0680000"
      },
      "nonce": 12,
      "data": "0x",
      "r": "0x1abd183e8c6b7ae4365d38b59a5d1c5ba82abc8f2546109e8049768db9a370a5",
      "s": "0x08c8a94f08817c52844351a3ed93513d02d272502f455fdbdc917df8361efcb6",
      "v": 28,
      "creates": null,
      "raw": "0xf86d0c850cc629aa588252089432be343b94f860124dc4fee278fdcbd38c102d88898d7bb119c1a0680000801ca01abd183e8c6b7ae4365d38b59a5d1c5ba82abc8f2546109e8049768db9a370a5a008c8a94f08817c52844351a3ed93513d02d272502f455fdbdc917df8361efcb6",
      "networkId": 0,
      "chainId": 0
    },
    {
      "hash": "0x13801e82b0a07cf8828d1a855ff31fb415cd3c7afafecf644bc1edb02d79dabb",
      "blockHash": "0xc70b7ab880da7300d2afbb379fd46da6cf1b150b3b2da16c2b53975ee000175c",
      "blockNumber": 96663,
      "transactionIndex": 2,
      "confirmations": null,
      "from": "0x032571e10DCD19b1B0441f8D5005ae09D39a7D08",
      "gasPrice": {
        "_hex": "0xcc629aa58"
      },
      "gasLimit": {
        "_hex": "0x5208"
      },
      "to": "0x32Be343B94f860124dC4fEe278FDCBD38C102D88",
      "value": {
        "_hex": "0xd84c37f540ad600000"
      },
      "nonce": 1,
      "data": "0x",
      "r": "0x048ebde524c88882424f4456adf9eca70703c02ffb422ec600daf526f7e9ec13",
      "s": "0x52e8e9fd9ba78c45f9acaaf8d248179a6ac9bfa71f823fd8d1a6e7c6978d47f2",
      "v": 27,
      "creates": null,
      "raw": "0xf86d01850cc629aa588252089432be343b94f860124dc4fee278fdcbd38c102d8889d84c37f540ad600000801ba0048ebde524c88882424f4456adf9eca70703c02ffb422ec600daf526f7e9ec13a052e8e9fd9ba78c45f9acaaf8d248179a6ac9bfa71f823fd8d1a6e7c6978d47f2",
      "networkId": 0,
      "chainId": 0
    }
  ]
}