{
  "hash": "0x8a463f62d104da8ff2d9191f2085939cbbff6feb0589371d5d7535cebf3a4eed",
  "parentHash": "0x43e9f647c5a8cded08ffe49fcf1d91595ead04cc839fc67e7cf3295fb53c105b",
  "number": 87754,
  "timestamp": 1439596896,
  "nonce": "0x5715bd5cb634e303",
  "difficulty": 3177170551380,
  "gasLimit": {
    "_hex": "0x2fefd5"
  },
  "gasUsed": {
    "_hex": "0xa410"
  },
  "miner": "0xe6A7a1d47ff21B6321162AEA7C6CB457D5476Bca",
  "extraData": "0x476574682f76312e302e312d38326566323666362f6c696e75782f676f312e34",
  "transactions": [
    {
      "hash": "0x115d078b4689b64ccc89a278c36b88a811b8437ada427cd7050f7cfeef051379",
      "blockHash": "0x8a463f62d104da8ff2d9191f2085939cbbff6feb0589371d5d7535cebf3a4eed",
      "blockNumber": 87754,
      "transactionIndex": 0,
      "confirmations": null,
      "from": "0xa6BDc31c431B8F97848c9D60cbbe9660dc450eB7",
      "gasPrice": {
        "_hex": "0xd8bd2d599"
      },
      "gasLimit": {
        "_hex": "0x5208"
      },
      "to": "0x32Be343B94f860124dC4fEe278FDCBD38C102D88",
      "value": {
        "_hex": "0x455f3a4c1e035400"
      },
      "nonce": 81,
      "data": "0x",
      "r": "0xa4396ec579d46a5bb89437ff21864b6ed8a0208342cdb2ce2de858064c28651c",
      "s": "0x3ea7f21e32c3941d43f4345cd6946efacf5e4c097cc416e8c232c4cb148cd4cb",
      "v": 27,
      "creates": null,
      "raw": "0xf86c51850d8bd2d5998252089432be343b94f860124dc4fee278fdcbd38c102d8888455f3a4c1e035400801ba0a4396ec579d46a5bb89437ff21864b6ed8a0208342cdb2ce2de858064c28651ca03ea7f21e32c3941d43f4345cd6946efacf5e4c097cc416e8c232c4cb148cd4cb",
      "networkId": 0,
      "chainId": 0
    },
    {
      "hash": "0x66835727bba20f96b422df5cdbd5c41e0bbd1b4ad5f48a02ebb9a3b9be415a26",
      "blockHash": "0x8a463f62d104da8ff2d9191f2085939cbbff6feb0589371d5d7535cebf3a4eed",
      "blockNumber": 87754,
      "transactionIndex": 1,
      "confirmations": null,
      "from": "0x0D4EcC7d750180EBf4A9Df728B6669B5Bceb5E40",
      "gasPrice": {
        "_hex": "0xd6682819a"
      },
      "gasLimit": {
        "_hex": "0x5208"
      },
      "to": "0x32Be343B94f860124dC4fEe278FDCBD38C102D88",
      "value": {
        "_hex": "0x455f3a4c1e035400"
      },
      "nonce": 34,
      "data": "0x",
      "r": "0x4bdf0268e04182ecaba1b935a0e664f0680cacbb67804ee8627b1ff11359f0be",
      "s": "0x2dbc34e5be595c69ed28648d1fe16eb7d9127afdcb7a5a777d527316dec8f852",
      "v": 27,
      "creates": null,
      "raw": "0xf86c22850d6682819a8252089432be343b94f860124dc4fee278fdcbd38c102d8888455f3a4c1e035400801ba04bdf0268e04182ecaba1b935a0e664f0680cacbb67804ee8627b1ff11359f0bea02dbc34e5be595c69ed28648d1fe16eb7d9127afdcb7a5a777d527316dec8f852",
      "networkId": 0,
      "chainId": 0
    }
  ]
}