{
  "hash": "0xee04b18a218eadc6ea07444b45b3196a7a1040e51d1dd734d58dcd23ecfa5d93",
  "parentHash": "0x2913a32a9c6db16545cf385b6e3885a3bcaf179d9771a288b874c72fdb66d6e4",
  "number": 120577,
  "timestamp": 1440162292,
  "nonce": "0x44b7ad9371ebf459",
  "difficulty": 4426138242583,
  "gasLimit": {
    "_hex": "0x2fefd8"
  },
  "gasUsed": {
    "_hex": "0x5208"
  },
  "miner": "0x52bc44d5378309EE2abF1539BF71dE1b7d7bE3b5",
  "extraData": "0xd783010002844765746887676f312e342e32856c696e7578",
  "transactions": [
    {
      "hash": "0x6425a8278c0809835ea285e0f2a96bf42c575b727433fe288e6686c6de161dc9",
      "blockHash": "0xee04b18a218eadc6ea07444b45b3196a7a1040e51d1dd734d58dcd23ecfa5d93",
      "blockNumber": 120577,
      "transactionIndex": 0,
      "confirmations": null,
      "from": "0x32Be343B94f860124dC4fEe278FDCBD38C102D88",
      "gasPrice": {
        "_hex": "0xba43b7400"
      },
      "gasLimit": {
        "_hex": "0x5208"
      },
      "to": "0xF3BB3a71bA12A87dE8523E92779a1dd882460c20",
      "value": {
        "_hex": "0x9aaf6f51d3b2a000"
      },
      "nonce": 1524,
      "data": "0x",
      "r": "0x0f4f2c81e05bb8e6483ca99b53b13374ff2a4a617d2bb93a07ef92d7e768f94c",
      "s": "0x396cc91de5cec97150a4bb78239ec47fd5546899b5a0b879e1c15793279097d2",
      "v": 27,
      "creates": null,
      "raw": "0xf86e8205f4850ba43b740082520894f3bb3a71ba12a87de8523e92779a1dd882460c20889aaf6f51d3b2a000801ba00f4f2c81e05bb8e6483ca99b53b13374ff2a4a617d2bb93a07ef92d7e768f94ca0396cc91de5cec97150a4bb78239ec47fd5546899b5a0b879e1c15793279097d2",
      "networkId": 0,
      "chainId": 0
    }
  ]
}