{
  "hash": "0xdcdcc46c997640743959554566c9748b9a89d4f6a62b6bd13b2fefabbeedb3fd",
  "parentHash": "0x71ba94c0241e51465389e598c3324ec4108795ba8e60f10d2ca0718dac9cef07",
  "number": 111326,
  "timestamp": 1439988212,
  "nonce": "0x7c36fb416d8f3279",
  "difficulty": 4437517615451,
  "gasLimit": {
    "_hex": "0x2fefd8"
  },
  "gasUsed": {
    "_hex": "0x5208"
  },
  "miner": "0x52bc44d5378309EE2abF1539BF71dE1b7d7bE3b5",
  "extraData": "0x476574682f76312e302e312d63303261396266632f6c696e75782f676f312e34",
  "transactions": [
    {
      "hash": "0x8dfa4a55a58f145dc703c354d82a96582a4ffd8c6fb9911bd264b8522ccc1288",
      "blockHash": "0xdcdcc46c997640743959554566c9748b9a89d4f6a62b6bd13b2fefabbeedb3fd",
      "blockNumber": 111326,
      "transactionIndex": 0,
      "confirmations": null,
      "from": "0xc15fa6D616245a5c7B7D75A6dFDcA10C0250BD2B",
      "gasPrice": {
        "_hex": "0xdf4ca74f7"
      },
      "gasLimit": {
        "_hex": "0x15f90"
      },
      "to": "0xdeE4977F74E6Aef6D627191c9A45D2627e331150",
      "value": {
        "_hex": "0x1158e460913d00000"
      },
      "nonce": 16,
      "data": "0x",
      "r": "0x0f61cea8b960cbbd707190ee07cde0db1d9dbba5c6d4d2b940270a86bcd19dcf",
      "s": "0x673db171ef377197740cb9877cc691829af423ccfbbdd5cf5db95dcc97ed24da",
      "v": 28,
      "creates": null,
      "raw": "0xf86e10850df4ca74f783015f9094dee4977f74e6aef6d627191c9a45d2627e3311508901158e460913d00000801ca00f61cea8b960cbbd707190ee07cde0db1d9dbba5c6d4d2b940270a86bcd19dcfa0673db171ef377197740cb9877cc691829af423ccfbbdd5cf5db95dcc97ed24da",
      "networkId": 0,
      "chainId": 0
    }
  ]
}