{
  "hash": "0x3b8734ff2f562df4ff1285be4abd42ba5b0f99dc20719c24c2cd25091f137c3c",
  "parentHash": "0xa339495c5d7463a9aa6943a2e7cfc9440ff09194aa6a1c24f25dc2932cf5ea6a",
  "number": 91032,
  "timestamp": 1439649383,
  "nonce": "0x54734153b0e621ad",
  "difficulty": 3430646448980,
  "gasLimit": {
    "_hex": "0x2fefd8"
  },
  "gasUsed": {
    "_hex": "0x5208"
  },
  "miner": "0x790b8a3cE86E707ED0eD32bF89B3269692a23CC1",
  "extraData": "0xd783010001844765746887676f312e342e32856c696e7578",
  "transactions": [
    {
      "hash": "0x474df2465178e9bf52621aec834b576bfcbe2010d095284a374b88761cc0689a",
      "blockHash": "0x3b8734ff2f562df4ff1285be4abd42ba5b0f99dc20719c24c2cd25091f137c3c",
      "blockNumber": 91032,
      "transactionIndex": 0,
      "confirmations": null,
      "from": "0xcd3078E3E503acB396F88661da737735cc02222A",
      "gasPrice": {
        "_hex": "0x746a528800"
      },
      "gasLimit": {
        "_hex": "0x5b04"
      },
      "to": "0x2910543Af39abA0Cd09dBb2D50200b3E800A63D2",
      "value": {
        "_hex": "0x0"
      },
      "nonce": 2,
      "data": "0x",
      "r": "0x57f704f554fb03192264638b373240043ffa07363359d722a447426f6cbc26e1",
      "s": "0x34b4cf4ab1b6ff0c0dfa71f261033ce05c2a5bca38f005544e76ff4696507d49",
      "v": 27,
      "creates": null,
      "raw": "0xf8640285746a528800825b04942910543af39aba0cd09dbb2d50200b3e800a63d280801ba057f704f554fb03192264638b373240043ffa07363359d722a447426f6cbc26e1a034b4cf4ab1b6ff0c0dfa71f261033ce05c2a5bca38f005544e76ff4696507d49",
      "networkId": 0,
      "chainId": 0
    }
  ]
}