{
  "hash": "0x1f7cf84bf7f952cfbb6fc991bed31af84714fd0186825638579bbf48cb262db4",
  "parentHash": "0x2de08a2dc1faea6bd91104fbe278cf28a0a6b628018ed6636b0a799b67e398bf",
  "number": 46450,
  "timestamp": 1438923316,
  "nonce": "0x6b36f750aa3ce42a",
  "difficulty": 1468949631875,
  "gasLimit": {
    "_hex": "0x615c"
  },
  "gasUsed": {
    "_hex": "0x5208"
  },
  "miner": "0x251884Cf75a54d7d2b783d702c83cc5ee9e718bD",
  "extraData": "0x476574682f76312e302e302f77696e646f77732f676f312e342e32",
  "transactions": [
    {
      "hash": "0x4fb4ba87dce647bf43d31d9646fad02b1b026f4acf9e5bc4727444553721a5a2",
      "blockHash": "0x1f7cf84bf7f952cfbb6fc991bed31af84714fd0186825638579bbf48cb262db4",
      "blockNumber": 46450,
      "transactionIndex": 0,
      "confirmations": null,
      "from": "0xa89AC93b23370472DaAc337E9afdF642543F3E57",
      "gasPrice": {
        "_hex": "0x746a528800"
      },
      "gasLimit": {
        "_hex": "0x5208"
      },
      "to": "0xB5046cb3dC1DEDbd364514a2848E44C1dE4ED147",
      "value": {
        "_hex": "0x3635c9adc5dea00000"
      },
      "nonce": 2,
      "data": "0x",
      "r": "0x853be9f2a054f97b3a6c203d1590900620456d4560fc152016a5a04d01a1491b",
      "s": "0x41155b4ca63611a2c7cb9aca4e2cd9a0e6d0d8b63dc01aa1fff8fd66c5b920af",
      "v": 28,
      "creates": null,
      "raw": "0xf86d0285746a52880082520894b5046cb3dc1dedbd364514a2848e44c1de4ed147893635c9adc5dea00000801ca0853be9f2a054f97b3a6c203d1590900620456d4560fc152016a5a04d01a1491ba041155b4ca63611a2c7cb9aca4e2cd9a0e6d0d8b63dc01aa1fff8fd66c5b920af",
      "networkId": 0,
      "chainId": 0
    }
  ]
}