{
  "hash": "0x183559f6ef83f69e9bf8f00728eef412378bf07de9c0fbb2af5fa9239a0f3512",
  "parentHash": "0x70d5ce4fa74beb0f5e00d8bf843d20379d8ea649168e1f2dd7269a075ab02543",
  "number": 118826,
  "timestamp": 1440132137,
  "nonce": "0x176dbdb311e1dc13",
  "difficulty": 4386180778645,
  "gasLimit": {
    "_hex": "0x2fefd8"
  },
  "gasUsed": {
    "_hex": "0x5208"
  },
  "miner": "0xE13f83e0288E460362D9E7421f0601fB88C4fd91",
  "extraData": "0x",
  "transactions": [
    {
      "hash": "0xa5583e1db38046196b9b8be572bc9813d1665cf84b395ada74eebb3dc9fdd894",
      "blockHash": "0x183559f6ef83f69e9bf8f00728eef412378bf07de9c0fbb2af5fa9239a0f3512",
      "blockNumber": 118826,
      "transactionIndex": 0,
      "confirmations": null,
      "from": "0x1308A2e95c0160B90803ddCA9B9a5bb55E416d79",
      "gasPrice": {
        "_hex": "0xd27c8ef0c"
      },
      "gasLimit": {
        "_hex": "0x15f90"
      },
      "to": "0x89b410599Ff5A31829A455E5dF0EE2990564Ccb8",
      "value": {
        "_hex": "0x15a30e4347787d400"
      },
      "nonce": 181,
      "data": "0x",
      "r": "0x0fff9bea72f66bfc334ada3eb93bb0899886ac41f1e1028a32cbdd4eabea409a",
      "s": "0x143e6fd803e0e8d7d983664cb5284736f8dc7f4b2ccd91d5ea03dbb0dabe2c5f",
      "v": 28,
      "creates": null,
      "raw": "0xf86f81b5850d27c8ef0c83015f909489b410599ff5a31829a455e5df0ee2990564ccb889015a30e4347787d400801ca00fff9bea72f66bfc334ada3eb93bb0899886ac41f1e1028a32cbdd4eabea409aa0143e6fd803e0e8d7d983664cb5284736f8dc7f4b2ccd91d5ea03dbb0dabe2c5f",
      "networkId": 0,
      "chainId": 0
    }
  ]
}