{
  "hash": "0xe75c01c2f875c763e6f8942496b0a884eeb1d859dcb5a5cf06d8ec4a30da4f61",
  "parentHash": "0xab874dc6593a0be47142eb0c4974e4f42ee351edb71a7a9c196eb82e3e1cef8e",
  "number": 53115,
  "timestamp": 1439032621,
  "nonce": "0x3ff24cefa9317a62",
  "difficulty": 1575470355439,
  "gasLimit": {
    "_hex": "0x1fe0e2"
  },
  "gasUsed": {
    "_hex": "0x5208"
  },
  "miner": "0x4F85e43F44D2B0e6f57C9355806cE3e1B3F40Ab8",
  "extraData": "0x476574682f76312e302e312f6c696e75782f676f312e342e32",
  "transactions": [
    {
      "hash": "0xd139780948986cf0f5a8bbbbdb82ea508125c68dccd067803caa5bc6d46f1429",
      "blockHash": "0xe75c01c2f875c763e6f8942496b0a884eeb1d859dcb5a5cf06d8ec4a30da4f61",
      "blockNumber": 53115,
      "transactionIndex": 0,
      "confirmations": null,
      "from": "0x171Ca02a8b6d62bf4ca47E906914079861972Cb2",
      "gasPrice": {
        "_hex": "0xd2e2040d4"
      },
      "gasLimit": {
        "_hex": "0x5208"
      },
      "to": "0xCb75F1f9cC69e3B1A27b8d9C08bB73A58Ede24bE",
      "value": {
        "_hex": "0xad762c7d6dd97f980"
      },
      "nonce": 1,
      "data": "0x",
      "r": "0xcbddf375d85d786b24c6a1ed829532227d86c4f106a46da45442e16b64066b2b",
      "s": "0x7cc803670e589cff065c2acd6db5c6cb8cc8a1637ac6b35f91c71145dc87674b",
      "v": 27,
      "creates": null,
      "raw": "0xf86d01850d2e2040d482520894cb75f1f9cc69e3b1a27b8d9c08bb73a58ede24be890ad762c7d6dd97f980801ba0cbddf375d85d786b24c6a1ed829532227d86c4f106a46da45442e16b64066b2ba07cc803670e589cff065c2acd6db5c6cb8cc8a1637ac6b35f91c71145dc87674b",
      "networkId": 0,
      "chainId": 0
    }
  ]
}