{
  "hash": "0x06ab89e844ce00ba45deac9fbfdd0d907c023981cee82563fd0e23a53524e7c3",
  "parentHash": "0x7b63aa356001c02f812b9594efec0b28d2994659df1a9292899e21c8a9dc7a2c",
  "number": 91703,
  "timestamp": 1439660115,
  "nonce": "0x5ed3b3b12cb640ce",
  "difficulty": 3489500379287,
  "gasLimit": {
    "_hex": "0x2fefd8"
  },
  "gasUsed": {
    "_hex": "0x5208"
  },
  "miner": "0x53824166ea5271d3425e3194c848A90CA4e97eB2",
  "extraData": "0x476574682f76312e302e312f6c696e75782f676f312e342e32",
  "transactions": [
    {
      "hash": "0x29ea0049dab6eadb006b3fcff5379122ce281b4fd542de710fb5ce9c0fd16249",
      "blockHash": "0x06ab89e844ce00ba45deac9fbfdd0d907c023981cee82563fd0e23a53524e7c3",
      "blockNumber": 91703,
      "transactionIndex": 0,
      "confirmations": null,
      "from": "0x004B37d3e250EB1826Fc6a587DEDdc18E7bE6F6f",
      "gasPrice": {
        "_hex": "0xd3d37f23a"
      },
      "gasLimit": {
        "_hex": "0x5208"
      },
      "to": "0xD5eC7fec1F39ba7E58cDe6Abed1Dd4E530DAEF6e",
      "value": {
        "_hex": "0x14d1120d7b1600000"
      },
      "nonce": 0,
      "data": "0x",
      "r": "0x1b6d29095022c7344019195b2c9fa9c7ca0f8d5059bf02e0f362e0b805efda30",
      "s": "0x3f13f97645c0969390edf10f22172ef0f33faa336a823c99cec4a79a4f45e8ec",
      "v": 28,
      "creates": null,
      "raw": "0xf86d80850d3d37f23a82520894d5ec7fec1f39ba7e58cde6abed1dd4e530daef6e89014d1120d7b1600000801ca01b6d29095022c7344019195b2c9fa9c7ca0f8d5059bf02e0f362e0b805efda30a03f13f97645c0969390edf10f22172ef0f33faa336a823c99cec4a79a4f45e8ec",
      "networkId": 0,
      "chainId": 0
    }
  ]
}