{
  "hash": "0x739a4f5d5bf9dad1d15e5d0347367003c1aa51b4029c6e30fc8dd42efe5a8882",
  "parentHash": "0x782706eb825b8395e6ecdc7e51a312f65b6ef9f2710dafa65df40802b8b119f3",
  "number": 92929,
  "timestamp": 1439679414,
  "nonce": "0x0d69ae66ce3bf0af",
  "difficulty": 3663579029172,
  "gasLimit": {
    "_hex": "0x2fefd8"
  },
  "gasUsed": {
    "_hex": "0x5208"
  },
  "miner": "0xA1623430350C5df1b52B0b57483A5bb45d1796Da",
  "extraData": "0x476574682f76312e302e312d38326566323666362f6c696e75782f676f312e34",
  "transactions": [
    {
      "hash": "0x6f2270076e01027634847f2c87c92d1b712c42b8214aeaad6bdcff4291543f48",
      "blockHash": "0x739a4f5d5bf9dad1d15e5d0347367003c1aa51b4029c6e30fc8dd42efe5a8882",
      "blockNumber": 92929,
      "transactionIndex": 0,
      "confirmations": null,
      "from": "0xdC49b9dc1AbB93Ebb856547a1C0578D65f4A32DE",
      "gasPrice": {
        "_hex": "0xd474e7bc4"
      },
      "gasLimit": {
        "_hex": "0x5208"
      },
      "to": "0x7147dFfD3d08ad00917cFEa2b60188439944990b",
      "value": {
        "_hex": "0x22b1c8c1227a00000"
      },
      "nonce": 2,
      "data": "0x",
      "r": "0x584170705c376e86376f96a0001db436cc4d544493dcc944a6afe205b9f4c418",
      "s": "0x3311e6f5b6a53b605f3025d80c619a2642c7ac0d2424ee7005a043f1363f21b8",
      "v": 28,
      "creates": null,
      "raw": "0xf86d02850d474e7bc4825208947147dffd3d08ad00917cfea2b60188439944990b89022b1c8c1227a00000801ca0584170705c376e86376f96a0001db436cc4d544493dcc944a6afe205b9f4c418a03311e6f5b6a53b605f3025d80c619a2642c7ac0d2424ee7005a043f1363f21b8",
      "networkId": 0,
      "chainId": 0
    }
  ]
}