{
  "hash": "0xfcd41b6f4f66ab3454d1e8bac5436d2fd99fcb6d44d6bdf6437e15e5eb790414",
  "parentHash": "0xe9a3327693605ce199a9222bf0e033c3576b01bba17a2fa7cd2123116d9372d2",
  "number": 100664,
  "timestamp": 1439810116,
  "nonce": "0xbe24f12b54f464a7",
  "difficulty": 3833986735400,
  "gasLimit": {
    "_hex": "0x2fefd8"
  },
  "gasUsed": {
    "_hex": "0xa410"
  },
  "miner": "0xe6A7a1d47ff21B6321162AEA7C6CB457D5476Bca",
  "extraData": "0x476574682f76312e302e312d38326566323666362f6c696e75782f676f312e34",
  "transactions": [
    {
      "hash": "0xd045b73a77eb5cb3060198c1524d14ff2c40fd5ec350138d50432f8bb916cd0e",
      "blockHash": "0xfcd41b6f4f66ab3454d1e8bac5436d2fd99fcb6d44d6bdf6437e15e5eb790414",
      "blockNumber": 100664,
      "transactionIndex": 0,
      "confirmations": null,
      "from": "0xF928B4834e4E886e04630Af5b4Ea8eBf46Fb205b",
      "gasPrice": {
        "_hex": "0xd357235b5"
      },
      "gasLimit": {
        "_hex": "0x5208"
      },
      "to": "0x32Be343B94f860124dC4fEe278FDCBD38C102D88",
      "value": {
        "_hex": "0x2c1ddeffb7cb02000"
      },
      "nonce": 5,
      "data": "0x",
      "r": "0x44a7d97d19e5a97c43c39beda8511db5244b9e1be1a48b195e4884baa1921658",
      "s": "0x32f29c44fb1bcd495e357d65f494e85a218a547b72536dd1739152e518819472",
      "v": 28,
      "creates": null,
      "raw": "0xf86d05850d357235b58252089432be343b94f860124dc4fee278fdcbd38c102d888902c1ddeffb7cb02000801ca044a7d97d19e5a97c43c39beda8511db5244b9e1be1a48b195e4884baa1921658a032f29c44fb1bcd495e357d65f494e85a218a547b72536dd1739152e518819472",
      "networkId": 0,
      "chainId": 0
    },
    {
      "hash": "0x9cca6f4863e48bf3408c0964b95ea10a02a1e1d8a381e537c474851279074940",
      "blockHash": "0xfcd41b6f4f66ab3454d1e8bac5436d2fd99fcb6d44d6bdf6437e15e5eb790414",
      "blockNumber": 100664,
      "transactionIndex": 1,
      "confirmations": null,
      "from": "0xa61ff394e3846F8bfbBF8801afb051730B04Ee75",
      "gasPrice": {
        "_hex": "0xd357235b5"
      },
      "gasLimit": {
        "_hex": "0x5208"
      },
      "to": "0x32Be343B94f860124dC4fEe278FDCBD38C102D88",
      "value": {
        "_hex": "0x2aaa2167de1438000"
      },
      "nonce": 5,
      "data": "0x",
      "r": "0xd282e253f7546079413decbabf11e322a5201da34ee9a602f563f80edfaa031c",
      "s": "0x1c55c62e8a7f43164a50923d532831b03bb9071296d13361c5be4d5de1299e02",
      "v": 28,
      "creates": null,
      "raw": "0xf86d05850d357235b58252089432be343b94f860124dc4fee278fdcbd38c102d888902aaa2167de1438000801ca0d282e253f7546079413decbabf11e322a5201da34ee9a602f563f80edfaa031ca01c55c62e8a7f43164a50923d532831b03bb9071296d13361c5be4d5de1299e02",
      "networkId": 0,
      "chainId": 0
    }
  ]
}