{
  "hash": "0x624a57460b3f940aba745c4353689fc5bb23b3b67accd094c571d4dc418e0903",
  "parentHash": "0xf8bce49677dfa81f9215dc445019dba0486fd1e852e5d9814ca36ab4643dba4a",
  "number": 112746,
  "timestamp": 1440012521,
  "nonce": "0x0a590aedbcb61d70",
  "difficulty": 4441101404873,
  "gasLimit": {
    "_hex": "0x2fefd8"
  },
  "gasUsed": {
    "_hex": "0xa410"
  },
  "miner": "0xe6A7a1d47ff21B6321162AEA7C6CB457D5476Bca",
  "extraData": "0x476574682f76312e302e312d38326566323666362f6c696e75782f676f312e34",
  "transactions": [
    {
      "hash": "0xa9e86da6a8b6a28b2edb84f437224d2bd05adcb0de285b6c78da13a549be5eeb",
      "blockHash": "0x624a57460b3f940aba745c4353689fc5bb23b3b67accd094c571d4dc418e0903",
      "blockNumber": 112746,
      "transactionIndex": 0,
      "confirmations": null,
      "from": "0xAdCa16b4654a92cb67666C0cF61976cEEE81cEEB",
      "gasPrice": {
        "_hex": "0xcf9880e11"
      },
      "gasLimit": {
        "_hex": "0x5208"
      },
      "to": "0x32Be343B94f860124dC4fEe278FDCBD38C102D88",
      "value": {
        "_hex": "0x6b4a056247896c00"
      },
      "nonce": 8,
      "data": "0x",
      "r": "0xf6c60fd73cc4f23eb60b12306f8e74ef26caaa7d89a8ae92e2289e2a1c07b279",
      "s": "0x53fa216d18fe28941df1a1209fe02e75c7579bbb85b0b546be5fdded22a4dd03",
      "v": 28,
      "creates": null,
      "raw": "0xf86c08850cf9880e118252089432be343b94f860124dc4fee278fdcbd38c102d88886b4a056247896c00801ca0f6c60fd73cc4f23eb60b12306f8e74ef26caaa7d89a8ae92e2289e2a1c07b279a053fa216d18fe28941df1a1209fe02e75c7579bbb85b0b546be5fdded22a4dd03",
      "networkId": 0,
      "chainId": 0
    },
    {
      "hash": "0x49ef258acd751692813b0e8117b5b0f3c4cc6bdd44ce6e86ae75e8e28caac11f",
      "blockHash": "0x624a57460b3f940aba745c4353689fc5bb23b3b67accd094c571d4dc418e0903",
      "blockNumber": 112746,
      "transactionIndex": 1,
      "confirmations": null,
      "from": "0xcabcF33e299eEFB1bBde6Ef75a21853831e8b339",
      "gasPrice": {
        "_hex": "0xcf90feb11"
      },
      "gasLimit": {
        "_hex": "0x15f90"
      },
      "to": "0xf00955cEDD33a99B4a993aABeb4239e268aaD294",
      "value": {
        "_hex": "0x26710452ebd50000"
      },
      "nonce": 3,
      "data": "0x",
      "r": "0x65c6c6dbb576309255b8ad0acad493ae7a737e08562ae0667cef501994358756",
      "s": "0x4212e9cf75288cbe0160fbe43b98a580210adefee44b039b596e5d3a56373560",
      "v": 28,
      "creates": null,
      "raw": "0xf86d03850cf90feb1183015f9094f00955cedd33a99b4a993aabeb4239e268aad2948826710452ebd50000801ca065c6c6dbb576309255b8ad0acad493ae7a737e08562ae0667cef501994358756a04212e9cf75288cbe0160fbe43b98a580210adefee44b039b596e5d3a56373560",
      "networkId": 0,
      "chainId": 0
    }
  ]
}