{
  "hash": "0xf0b07003914040db09e57f9f68c3b8a8e0049b0cb4535ba4257e60e994a2c3f1",
  "parentHash": "0xfe6e2047bb1676a7989543ebc083b6eca7f4d4bd61d21a5539327eefa2501bb1",
  "number": 120857,
  "timestamp": 1440167042,
  "nonce": "0x9bc14f5a6ded21d4",
  "difficulty": 4443313345162,
  "gasLimit": {
    "_hex": "0x2fefd8"
  },
  "gasUsed": {
    "_hex": "0x5208"
  },
  "miner": "0xe6A7a1d47ff21B6321162AEA7C6CB457D5476Bca",
  "extraData": "0xd783010002844765746887676f312e342e32856c696e7578",
  "transactions": [
    {
      "hash": "0x525d8339cb50be12e3c18d56fa0e3c3669db29e697aa32b98d83f438a3705c36",
      "blockHash": "0xf0b07003914040db09e57f9f68c3b8a8e0049b0cb4535ba4257e60e994a2c3f1",
      "blockNumber": 120857,
      "transactionIndex": 0,
      "confirmations": null,
      "from": "0xf6717e122e4Ddfb060b1c2CC6D7B86EE9313F6E2",
      "gasPrice": {
        "_hex": "0xba43b7400"
      },
      "gasLimit": {
        "_hex": "0x15f90"
      },
      "to": "0x33F36DffD23cf019833E1d59cBc7138824b12289",
      "value": {
        "_hex": "0x44004c09e76a0000"
      },
      "nonce": 0,
      "data": "0x",
      "r": "0xaf820323874f1d12e2ad4f89150fd5215a60ebaeba48f277e0dc9148073c2456",
      "s": "0x41f6800409180b57323e040f6927ee167fd1c1a902304320613d3490be1172e9",
      "v": 28,
      "creates": null,
      "raw": "0xf86d80850ba43b740083015f909433f36dffd23cf019833e1d59cbc7138824b122898844004c09e76a0000801ca0af820323874f1d12e2ad4f89150fd5215a60ebaeba48f277e0dc9148073c2456a041f6800409180b57323e040f6927ee167fd1c1a902304320613d3490be1172e9",
      "networkId": 0,
      "chainId": 0
    }
  ]
}