{
  "hash": "0x5f55899b9042b1eeba2b32c4f540b1fdcc6e459956e4e145faf4642b0510ee19",
  "parentHash": "0x1391746a031837d1162c2f6fcdff8bbdfc7180e09be6299c6198df85d34fea54",
  "number": 114953,
  "timestamp": 1440049244,
  "nonce": "0xa7a0998d3ea7fc5e",
  "difficulty": 4481315579224,
  "gasLimit": {
    "_hex": "0x2fefd8"
  },
  "gasUsed": {
    "_hex": "0x20fc6"
  },
  "miner": "0x790b8a3cE86E707ED0eD32bF89B3269692a23CC1",
  "extraData": "0xd783010001844765746887676f312e342e32856c696e7578",
  "transactions": [
    {
      "hash": "0x1234d5b64d5e138b3c34d4b93c25030e0fdc65907d6332d25e288572ad21316f",
      "blockHash": "0x5f55899b9042b1eeba2b32c4f540b1fdcc6e459956e4e145faf4642b0510ee19",
      "blockNumber": 114953,
      "transactionIndex": 0,
      "confirmations": null,
      "from": "0xe3d915EdA3B825D6ee4AF9328D32Ac18ada35497",
      "gasPrice": {
        "_hex": "0xdb2816147"
      },
      "gasLimit": {
        "_hex": "0x15f90"
      },
      "to": "0x79204D7826f5d18687B4bB92dF98b98218Ab38B9",
      "value": {
        "_hex": "0xd480ed9ef32b40000"
      },
      "nonce": 5,
      "data": "0x",
      "r": "0x22ba47639ae6511fc7a01c27a5fff48336329a2c1c1d42b0a28d5d9cfdd40f24",
      "s": "0x16c1e2b2b56edbf7aadbf71b2040f01917d360b8e5a73754877109af55bc1104",
      "v": 28,
      "creates": null,
      "raw": "0xf86e05850db281614783015f909479204d7826f5d18687b4bb92df98b98218ab38b9890d480ed9ef32b40000801ca022ba47639ae6511fc7a01c27a5fff48336329a2c1c1d42b0a28d5d9cfdd40f24a016c1e2b2b56edbf7aadbf71b2040f01917d360b8e5a73754877109af55bc1104",
      "networkId": 0,
      "chainId": 0
    },
    {
      "hash": "0x1c4ff56fc65146ba0eb2417ed40621ea483822fdfd15c988a3aef290af475d05",
      "blockHash": "0x5f55899b9042b1eeba2b32c4f540b1fdcc6e459956e4e145faf4642b0510ee19",
      "blockNumber": 114953,
      "transactionIndex": 1,
      "confirmations": null,
      "from": "0x41c043029b0D13183C40Ffaafb3951Dc79eCA200",
      "gasPrice": {
        "_hex": "0xd5fc85156"
      },
      "gasLimit": {
        "_hex": "0x249f0"
      },
      "to": "0xE28e72FCf78647ADCe1F1252F240bbfaebD63BcC",
      "value": {
        "_hex": "0xc7d713b49da0000"
      },
      "nonce": 0,
      "data": "0x45466f3a",
      "r": "0xbba279d6d847a9d3436d818981dee9b2fd0ce8590403f2a4d0423b8f4e674d92",
      "s": "0x5dbf737402744c182d2b086a9a6eca33a0ca6f0f74c1c42a4e97cc4636382206",
      "v": 28,
      "creates": null,
      "raw": "0xf87180850d5fc85156830249f094e28e72fcf78647adce1f1252f240bbfaebd63bcc880c7d713b49da00008445466f3a1ca0bba279d6d847a9d3436d818981dee9b2fd0ce8590403f2a4d0423b8f4e674d92a05dbf737402744c182d2b086a9a6eca33a0ca6f0f74c1c42a4e97cc4636382206",
      "networkId": 0,
      "chainId": 0
    }
  ]
}