{
  "hash": "0x2a0cce5e4c8df469d6018c8c509211b838d714a3ecd94d722a36dfba6150521a",
  "parentHash": "0xbf8a931b3b471e9769c6886c5d3d4927740a9e0fd4076f5c1c15aa0f6aa8a359",
  "number": 56142,
  "timestamp": 1439082563,
  "nonce": "0x0e8d89d843d178f6",
  "difficulty": 1641641948408,
  "gasLimit": {
    "_hex": "0x2fefd8"
  },
  "gasUsed": {
    "_hex": "0x2a20"
  },
  "miner": "0xbb7B8287f3F0a933474a79eAe42CBCa977791171",
  "extraData": "0x476574682f4c5649562f76312e302e312f6c696e75782f676f312e342e32",
  "transactions": [
    {
      "hash": "0x34b6f523be7dd951780592aee5c0e5aff84b6c2c59d74bfc59e98c7817841b91",
      "blockHash": "0x2a0cce5e4c8df469d6018c8c509211b838d714a3ecd94d722a36dfba6150521a",
      "blockNumber": 56142,
      "transactionIndex": 0,
      "confirmations": null,
      "from": "0xA1eEc0a9b7C50B8e79A0D9B8760bC5681fb199EC",
      "gasPrice": {
        "_hex": "0xd238784e0"
      },
      "gasLimit": {
        "_hex": "0x15f90"
      },
      "to": "0x3d26E176a2D25d3AE98f67C9f1086704Be816E5e",
      "value": {
        "_hex": "0x0"
      },
      "nonce": 1,
      "data": "0x41c0e1b5",
      "r": "0x9aae1d7b6870637a9d7a0de341b95cc00607a9d37882d677d5328be5b57fbf05",
      "s": "0x28b7dade64572c8e002cbf21e3e47c090f6528cc015b1457055ebc788960f804",
      "v": 28,
      "creates": null,
      "raw": "0xf86901850d238784e083015f90943d26e176a2d25d3ae98f67c9f1086704be816e5e808441c0e1b51ca09aae1d7b6870637a9d7a0de341b95cc00607a9d37882d677d5328be5b57fbf05a028b7dade64572c8e002cbf21e3e47c090f6528cc015b1457055ebc788960f804",
      "networkId": 0,
      "chainId": 0
    }
  ]
}