{
  "hash": "0x31c96ae997d281e842fae43b46876df14da61d3e371f9e3994c00d632eb7baa7",
  "parentHash": "0x16a2b46606eb369ba3493e8376ab6f998507afb76d4095db8556a5fa8f0e34b5",
  "number": 46827,
  "timestamp": 1438929842,
  "nonce": "0x8654cbf36e093aa2",
  "difficulty": 1458164492709,
  "gasLimit": {
    "_hex": "0x7c96"
  },
  "gasUsed": {
    "_hex": "0x5208"
  },
  "miner": "0xbb7B8287f3F0a933474a79eAe42CBCa977791171",
  "extraData": "0x476574682f4c5649562f76312e302e312f6c696e75782f676f312e342e32",
  "transactions": [
    {
      "hash": "0xcf9b2cf02d7141a20b885c8d824c19053ac82a4fd4ff2e8811b91119c85f531e",
      "blockHash": "0x31c96ae997d281e842fae43b46876df14da61d3e371f9e3994c00d632eb7baa7",
      "blockNumber": 46827,
      "transactionIndex": 0,
      "confirmations": null,
      "from": "0xe6A7a1d47ff21B6321162AEA7C6CB457D5476Bca",
      "gasPrice": {
        "_hex": "0xd022c24ff"
      },
      "gasLimit": {
        "_hex": "0x5208"
      },
      "to": "0x9766FAd89B75D0931c75B3BD3CbCB45402351A67",
      "value": {
        "_hex": "0x103ac5e6b952401c"
      },
      "nonce": 6,
      "data": "0x",
      "r": "0x1f33857324c0174b82c8410aa9ecc370fda2774f82a6a39a401b42b92f869eaf",
      "s": "0x068f24732486e09fca789dc46870406b222aeb1a03ea728880d80bd632b5fecf",
      "v": 28,
      "creates": null,
      "raw": "0xf86c06850d022c24ff825208949766fad89b75d0931c75b3bd3cbcb45402351a6788103ac5e6b952401c801ca01f33857324c0174b82c8410aa9ecc370fda2774f82a6a39a401b42b92f869eafa0068f24732486e09fca789dc46870406b222aeb1a03ea728880d80bd632b5fecf",
      "networkId": 0,
      "chainId": 0
    }
  ]
}