{
  "hash": "0x75a01ff36466779d01c22fc469ae11516f2fac8687d82348698460b465d36335",
  "parentHash": "0x0be1565bf810fa9212d634bf7c4d1e550b04b23a133556177a269384a6e2b166",
  "number": 60728,
  "timestamp": 1439160564,
  "nonce": "0xab3f45db73210b96",
  "difficulty": 1732971802166,
  "gasLimit": {
    "_hex": "0x2fefd8"
  },
  "gasUsed": {
    "_hex": "0x5208"
  },
  "miner": "0x47ff6576639c2e94762eA5443978D7681C0E78DC",
  "extraData": "0x476574682f76312e302e312f6c696e75782f676f312e342e32",
  "transactions": [
    {
      "hash": "0x5579f4655d4ef00471d976d2b64ecad916a78dd30533464b592b1f774d5bcbc8",
      "blockHash": "0x75a01ff36466779d01c22fc469ae11516f2fac8687d82348698460b465d36335",
      "blockNumber": 60728,
      "transactionIndex": 0,
      "confirmations": null,
      "from": "0x32Be343B94f860124dC4fEe278FDCBD38C102D88",
      "gasPrice": {
        "_hex": "0xd0f2283aa"
      },
      "gasLimit": {
        "_hex": "0x5208"
      },
      "to": "0x7DB510456197ac9DE2fa88285a415ea3829a9522",
      "value": {
        "_hex": "0xad76b3568565f0000"
      },
      "nonce": 125,
      "data": "0x",
      "r": "0xa25dfa959a4e74c9a3731975f44fdb86dcd4b6eef5a0d996178c5d55071e090b",
      "s": "0x5dfb61139160bc9b6d4ef30cb52ece50ec464331769a2f82f478142c39a4aa9f",
      "v": 28,
      "creates": null,
      "raw": "0xf86d7d850d0f2283aa825208947db510456197ac9de2fa88285a415ea3829a9522890ad76b3568565f0000801ca0a25dfa959a4e74c9a3731975f44fdb86dcd4b6eef5a0d996178c5d55071e090ba05dfb61139160bc9b6d4ef30cb52ece50ec464331769a2f82f478142c39a4aa9f",
      "networkId": 0,
      "chainId": 0
    }
  ]
}