{
  "hash": "0x47dbdcd2b2f9304128dddb6ac1626c9fed4b0e2d2b7e218a6b108766e4136636",
  "parentHash": "0xaa51b76e3b153dedabc00dc89850f6faa2ae2e7f496a45b90860785363c9c85a",
  "number": 115268,
  "timestamp": 1440054187,
  "nonce": "0x83001112f7f4770a",
  "difficulty": 4558387550149,
  "gasLimit": {
    "_hex": "0x2fefd8"
  },
  "gasUsed": {
    "_hex": "0x5208"
  },
  "miner": "0x52bc44d5378309EE2abF1539BF71dE1b7d7bE3b5",
  "extraData": "0x476574682f76312e302e312d39353236303766382f6c696e75782f676f312e34",
  "transactions": [
    {
      "hash": "0x06bb4e6a8ebdd865d3f16bc1af6c627cc86f44f3957428e728de9ec82fa6fc20",
      "blockHash": "0x47dbdcd2b2f9304128dddb6ac1626c9fed4b0e2d2b7e218a6b108766e4136636",
      "blockNumber": 115268,
      "transactionIndex": 0,
      "confirmations": null,
      "from": "0xCD1e66ED539dd92Fc40bBAa1FA16de8c02C14D45",
      "gasPrice": {
        "_hex": "0xde534210e"
      },
      "gasLimit": {
        "_hex": "0x5208"
      },
      "to": "0xe0e82eD3e93079cE76aAC1dA7b4bfa990D885A0D",
      "value": {
        "_hex": "0x5c0f44947b9a53b90"
      },
      "nonce": 18,
      "data": "0x",
      "r": "0xf37c53bd10d0c462f142587af97717b3cff31a884eb0b14a2a4d0791342cfbe9",
      "s": "0x577ac7ac1701fa0a3de90cf35b6dd8a1a6617df4641de80501c9f43f9d4b7e27",
      "v": 27,
      "creates": null,
      "raw": "0xf86d12850de534210e82520894e0e82ed3e93079ce76aac1da7b4bfa990d885a0d8905c0f44947b9a53b90801ba0f37c53bd10d0c462f142587af97717b3cff31a884eb0b14a2a4d0791342cfbe9a0577ac7ac1701fa0a3de90cf35b6dd8a1a6617df4641de80501c9f43f9d4b7e27",
      "networkId": 0,
      "chainId": 0
    }
  ]
}