{
  "hash": "0x6795c28a111212713e56bf94720847981662c7a810dee2cc2ad42b6ec55c96a3",
  "parentHash": "0x2e00b749f41f89cd057c9df333be5543c5afc69c9431f0873b397346990d5ec2",
  "number": 110847,
  "timestamp": 1439980479,
  "nonce": "0x0f638adb67525775",
  "difficulty": 4405386542550,
  "gasLimit": {
    "_hex": "0x2fefd8"
  },
  "gasUsed": {
    "_hex": "0x5208"
  },
  "miner": "0xe6A7a1d47ff21B6321162AEA7C6CB457D5476Bca",
  "extraData": "0x476574682f76312e302e312d38326566323666362f6c696e75782f676f312e34",
  "transactions": [
    {
      "hash": "0x7df5d8d34b54eaa29f36b8313f04268cca07588b8470ca967229b9c0b18af109",
      "blockHash": "0x6795c28a111212713e56bf94720847981662c7a810dee2cc2ad42b6ec55c96a3",
      "blockNumber": 110847,
      "transactionIndex": 0,
      "confirmations": null,
      "from": "0xC5421FF9a6C1dfE6fE5BE19FA1322E70b77c8cb1",
      "gasPrice": {
        "_hex": "0xd018bf9fc"
      },
      "gasLimit": {
        "_hex": "0x5208"
      },
      "to": "0x32Be343B94f860124dC4fEe278FDCBD38C102D88",
      "value": {
        "_hex": "0x20658975bc4fde000"
      },
      "nonce": 5,
      "data": "0x",
      "r": "0x3c20e667440758f36b48d1542c850924add4a6521c3298052aaf7b7bc2692ebd",
      "s": "0x7f432f0cf263ae0ceb2381c419f01817c7d2a68e3f26262c16b7475c27080709",
      "v": 28,
      "creates": null,
      "raw": "0xf86d05850d018bf9fc8252089432be343b94f860124dc4fee278fdcbd38c102d8889020658975bc4fde000801ca03c20e667440758f36b48d1542c850924add4a6521c3298052aaf7b7bc2692ebda07f432f0cf263ae0ceb2381c419f01817c7d2a68e3f26262c16b7475c27080709",
      "networkId": 0,
      "chainId": 0
    }
  ]
}