{
  "hash": "0xb2a8f10267f92d3f530053d67393913c8275388dbb57b7c9ebd59842f4640754",
  "parentHash": "0x039f027c975aee0b786a7a6322fcf61d525088496aa10990ab9a0e00523cb000",
  "number": 59258,
  "timestamp": 1439135045,
  "nonce": "0xfc3358bbd0c072dd",
  "difficulty": 1706403562563,
  "gasLimit": {
    "_hex": "0x2fefd8"
  },
  "gasUsed": {
    "_hex": "0x14820"
  },
  "miner": "0x88D74a59454F6cF3B51ef6b9136AFb6b9D405A88",
  "extraData": "0x476574682f76312e302e312d37666266393930632f6c696e75782f676f312e34",
  "transactions": [
    {
      "hash": "0x351f4e8aa3e5730fa406b58234dfb7e20bbe1293d75eebdaa01cf8bddb50352b",
      "blockHash": "0xb2a8f10267f92d3f530053d67393913c8275388dbb57b7c9ebd59842f4640754",
      "blockNumber": 59258,
      "transactionIndex": 0,
      "confirmations": null,
      "from": "0xF5EeDc192aB70b08D8354384aD94efD095849E00",
      "gasPrice": {
        "_hex": "0xdc5cf3239"
      },
      "gasLimit": {
        "_hex": "0x5208"
      },
      "to": "0x32Be343B94f860124dC4fEe278FDCBD38C102D88",
      "value": {
        "_hex": "0x332c5bd4ee5f22000"
      },
      "nonce": 15,
      "data": "0x",
      "r": "0x7223b6cfb2f41ccab19627545c89c22830a1172fd288b8528d9c32c83b589617",
      "s": "0x4f979afb47896fd163b4f77bebc9ba44407d6c9257b14f77cd6e726c8ce05d85",
      "v": 27,
      "creates": null,
      "raw": "0xf86d0f850dc5cf32398252089432be343b94f860124dc4fee278fdcbd38c102d88890332c5bd4ee5f22000801ba07223b6cfb2f41ccab19627545c89c22830a1172fd288b8528d9c32c83b589617a04f979afb47896fd163b4f77bebc9ba44407d6c9257b14f77cd6e726c8ce05d85",
      "networkId": 0,
      "chainId": 0
    },
    {
      "hash": "0x7432c1e83f6a5ad011b6c57244f9005cf2176cc17a961ac611776c8e91953d5a",
      "blockHash": "0xb2a8f10267f92d3f530053d67393913c8275388dbb57b7c9ebd59842f4640754",
      "blockNumber": 59258,
      "transactionIndex": 1,
      "confirmations": null,
      "from": "0x4c74B6F32c9680aCB5Fe0e72B7Aa95C612540A04",
      "gasPrice": {
        "_hex": "0xdc5cf3239"
      },
      "gasLimit": {
        "_hex": "0x5208"
      },
      "to": "0x32Be343B94f860124dC4fEe278FDCBD38C102D88",
      "value": {
        "_hex": "0xad78a528fe44b0000"
      },
      "nonce": 3,
      "data": "0x",
      "r": "0x0f84e55b6f217d7d57fc465ba195067a7228610ec1be4df1c7bda134195e5316",
      "s": "0x6ca9d42e149bb291e437ef97cd05d5c3496bd1d633c9e675f69ba7c90d06a1f8",
      "v": 27,
      "creates": null,
      "raw": "0xf86d03850dc5cf32398252089432be343b94f860124dc4fee278fdcbd38c102d88890ad78a528fe44b0000801ba00f84e55b6f217d7d57fc465ba195067a7228610ec1be4df1c7bda134195e5316a06ca9d42e149bb291e437ef97cd05d5c3496bd1d633c9e675f69ba7c90d06a1f8",
      "networkId": 0,
      "chainId": 0
    },
    {
      "hash": "0x0e48d325667ddb282fe8aea1b24c066480a4c0365389ce64bec3abca34f62e90",
      "blockHash": "0xb2a8f10267f92d3f530053d67393913c8275388dbb57b7c9ebd59842f4640754",
      "blockNumber": 59258,
      "transactionIndex": 2,
      "confirmations": null,
      "from": "0x249502491a53b217181420Cc4A6dE23a720636CA",
      "gasPrice": {
        "_hex": "0xdc5cf3239"
      },
      "gasLimit": {
        "_hex": "0x5208"
      },
      "to": "0x32Be343B94f860124dC4fEe278FDCBD38C102D88",
      "value": {
        "_hex": "0x11589dc3e31fac000"
      },
      "nonce": 0,
      "data": "0x",
      "r": "0x340253338a0c56bbe6cff512212969bf90a2a18dc2ad164bc0124bdccd40ed95",
      "s": "0x421d7eefb2bb067d373e43603257103f820ca7511a3eeb19ba39a872955cb591",
      "v": 28,
      "creates": null,
      "raw": "0xf86d80850dc5cf32398252089432be343b94f860124dc4fee278fdcbd38c102d8889011589dc3e31fac000801ca0340253338a0c56bbe6cff512212969bf90a2a18dc2ad164bc0124bdccd40ed95a0421d7eefb2bb067d373e43603257103f820ca7511a3eeb19ba39a872955cb591",
      "networkId": 0,
      "chainId": 0
    },
    {
      "hash": "0x7b0a0c1c9f1880d8b59842d823e5986e991ddaf927c562f0b5dd5f2a4dd23631",
      "blockHash": "0xb2a8f10267f92d3f530053d67393913c8275388dbb57b7c9ebd59842f4640754",
      "blockNumber": 59258,
      "transactionIndex": 3,
      "confirmations": null,
      "from": "0x435443b81DFdb9Bd8c6787bC2518e2D47e57C15f",
      "gasPrice": {
        "_hex": "0xcafcef618"
      },
      "gasLimit": {
        "_hex": "0x15f90"
      },
      "to": "0x15eC455c1446538CaA87b185CEa4A0c7A537c56F",
      "value": {
        "_hex": "0x14386a33c2e4b400000"
      },
      "nonce": 0,
      "data": "0x",
      "r": "0x55c192316a86808644bf72d9adc56e7169a9e5703645f16a00d6113e0ceba959",
      "s": "0x7fe02d19b7d5f28ff57b4b5d58409a0b5b613f12ac89e08d9849e2371b8526a9",
      "v": 27,
      "creates": null,
      "raw": "0xf86f80850cafcef61883015f909415ec455c1446538caa87b185cea4a0c7a537c56f8a014386a33c2e4b400000801ba055c192316a86808644bf72d9adc56e7169a9e5703645f16a00d6113e0ceba959a07fe02d19b7d5f28ff57b4b5d58409a0b5b613f12ac89e08d9849e2371b8526a9",
      "networkId": 0,
      "chainId": 0
    }
  ]
}