{
  "hash": "0x5de846283f450c97cd86c440fa3059e61780a3ff55f41e63254827e84be0acea",
  "parentHash": "0x9238b09497add1dbb231e86ec0b11fcb9af8e13e7d27b691452daa9ab8c60fd8",
  "number": 48697,
  "timestamp": 1438961392,
  "nonce": "0x7dd93e8c82029eef",
  "difficulty": 1470708988766,
  "gasLimit": {
    "_hex": "0x1c3ca"
  },
  "gasUsed": {
    "_hex": "0xa674"
  },
  "miner": "0xC0b040Cc7524D264117123f408ac3EAE0aBFDb68",
  "extraData": "0x476574682f76312e302e312f6c696e75782f676f312e342e32",
  "transactions": [
    {
      "hash": "0x84874393f7bb2b2904f98ac98f79469b099f3d443bb135649890a6fdc95c15af",
      "blockHash": "0x5de846283f450c97cd86c440fa3059e61780a3ff55f41e63254827e84be0acea",
      "blockNumber": 48697,
      "transactionIndex": 0,
      "confirmations": null,
      "from": "0x9c344098BA615A398F11D009905b177C44a7b602",
      "gasPrice": {
        "_hex": "0x1005009eb22"
      },
      "gasLimit": {
        "_hex": "0x15f90"
      },
      "to": "0x2910543Af39abA0Cd09dBb2D50200b3E800A63D2",
      "value": {
        "_hex": "0xad78ebc5ac6200000"
      },
      "nonce": 3,
      "data": "0x454e515a3244355030",
      "r": "0x9507f29984a2017fa43329ad0221b2e3608bcbe0b19a451ed7753a317bb513d1",
      "s": "0x0437bcb70b41db86bdb0e8ddf0776df99de5bd357aa22d25752afd87acb22abc",
      "v": 27,
      "creates": null,
      "raw": "0xf878038601005009eb2283015f90942910543af39aba0cd09dbb2d50200b3e800a63d2890ad78ebc5ac620000089454e515a32443550301ba09507f29984a2017fa43329ad0221b2e3608bcbe0b19a451ed7753a317bb513d1a00437bcb70b41db86bdb0e8ddf0776df99de5bd357aa22d25752afd87acb22abc",
      "networkId": 0,
      "chainId": 0
    },
    {
      "hash": "0x3607c1d4c5a28a241d6055cdb4ff96a4e4dc6bbb0841e6cf546afc50bf7e5786",
      "blockHash": "0x5de846283f450c97cd86c440fa3059e61780a3ff55f41e63254827e84be0acea",
      "blockNumber": 48697,
      "transactionIndex": 1,
      "confirmations": null,
      "from": "0x9c344098BA615A398F11D009905b177C44a7b602",
      "gasPrice": {
        "_hex": "0x1005009eb22"
      },
      "gasLimit": {
        "_hex": "0x15f90"
      },
      "to": "0xFe0412b699317daB06160e62f01A9dB95A261143",
      "value": {
        "_hex": "0x4563918244f40000"
      },
      "nonce": 4,
      "data": "0x",
      "r": "0x70edbb3aecaa2776a48418558578d86485eb30036bdd53e0a1989a9aa79af066",
      "s": "0x20cfbc40715e949e63453dc7942db442da5510e71c01442a24e950c78b51e8de",
      "v": 28,
      "creates": null,
      "raw": "0xf86e048601005009eb2283015f9094fe0412b699317dab06160e62f01a9db95a261143884563918244f40000801ca070edbb3aecaa2776a48418558578d86485eb30036bdd53e0a1989a9aa79af066a020cfbc40715e949e63453dc7942db442da5510e71c01442a24e950c78b51e8de",
      "networkId": 0,
      "chainId": 0
    }
  ]
}