{
  "hash": "0xc610a5139536d6c1706a79ad26b643570240a17672478f6776c5d3d302ad95d4",
  "parentHash": "0x7139e743036bb680d33408d5ce8d2b0225d1f4593c5db8b3763190786c0d5179",
  "number": 112918,
  "timestamp": 1440015270,
  "nonce": "0xdfd95bed6648b668",
  "difficulty": 4458391969885,
  "gasLimit": {
    "_hex": "0x2fefd8"
  },
  "gasUsed": {
    "_hex": "0xf4240"
  },
  "miner": "0xe6A7a1d47ff21B6321162AEA7C6CB457D5476Bca",
  "extraData": "0x476574682f76312e302e312d38326566323666362f6c696e75782f676f312e34",
  "transactions": [
    {
      "hash": "0x5d2d62af6880dd8386785b4f136544867db5fd5dfa17dc91da96296cfea58884",
      "blockHash": "0xc610a5139536d6c1706a79ad26b643570240a17672478f6776c5d3d302ad95d4",
      "blockNumber": 112918,
      "transactionIndex": 0,
      "confirmations": null,
      "from": "0x13F26856CBaCaAba9c4488a31C72E605fAe029FC",
      "gasPrice": {
        "_hex": "0xdab9b996c"
      },
      "gasLimit": {
        "_hex": "0xf4240"
      },
      "to": "0xb20e50D4dE13C4459a111971633c082a09C977c9",
      "value": {
        "_hex": "0x470de4df820000"
      },
      "nonce": 7,
      "data": "0x",
      "r": "0x710a00de17bf2138fedfbfe27d67fd89f0f20919e0b8e401dee9961dd4ba3f89",
      "s": "0x4299399afc95959571b43953b39293bae9ef43e05857d9b3ae836f7d651fe636",
      "v": 27,
      "creates": null,
      "raw": "0xf86c07850dab9b996c830f424094b20e50d4de13c4459a111971633c082a09c977c987470de4df820000801ba0710a00de17bf2138fedfbfe27d67fd89f0f20919e0b8e401dee9961dd4ba3f89a04299399afc95959571b43953b39293bae9ef43e05857d9b3ae836f7d651fe636",
      "networkId": 0,
      "chainId": 0
    }
  ]
}