{
  "hash": "0xede63384b5290440e50c6fd27da1ec625f14c1cf9cb4c25b52a9b70db7b628da",
  "parentHash": "0xdf434f6300f9721f2b849b1612c6f8407c78d684bb61941a61c341bf276d334e",
  "number": 51993,
  "timestamp": 1439014419,
  "nonce": "0xfa4acbafe0c69417",
  "difficulty": 1558845417967,
  "gasLimit": {
    "_hex": "0xf8d3f"
  },
  "gasUsed": {
    "_hex": "0xfae0"
  },
  "miner": "0xf927a40C8B7F6E07c5af7FA2155B4864a4112B13",
  "extraData": "0x",
  "transactions": [
    {
      "hash": "0xc62cbd383047b1e9b24c459247bc2196e78b286c4addb6ba48a038537fda36ae",
      "blockHash": "0xede63384b5290440e50c6fd27da1ec625f14c1cf9cb4c25b52a9b70db7b628da",
      "blockNumber": 51993,
      "transactionIndex": 0,
      "confirmations": null,
      "from": "0xF2d2AfF1320476cb8C6b607199D23175cc595693",
      "gasPrice": {
        "_hex": "0xded0741fb"
      },
      "gasLimit": {
        "_hex": "0x15f90"
      },
      "to": "0xF5EeDc192aB70b08D8354384aD94efD095849E00",
      "value": {
        "_hex": "0x7b995b300ad2a00000"
      },
      "nonce": 1,
      "data": "0x",
      "r": "0x42839d68d63df826bcc764cd7f79b0f7895de5cb5671374b3ae1f9a998627eb4",
      "s": "0x44703aab71481ad7192ad663577e02cae6609eef88e1568845ca1deeaea5025f",
      "v": 27,
      "creates": null,
      "raw": "0xf86e01850ded0741fb83015f9094f5eedc192ab70b08d8354384ad94efd095849e00897b995b300ad2a00000801ba042839d68d63df826bcc764cd7f79b0f7895de5cb5671374b3ae1f9a998627eb4a044703aab71481ad7192ad663577e02cae6609eef88e1568845ca1deeaea5025f",
      "networkId": 0,
      "chainId": 0
    },
    {
      "hash": "0x5fa515d9818bc833b62843ae49da33e0d89a0953ed69d7ec9344f9e695e0d255",
      "blockHash": "0xede63384b5290440e50c6fd27da1ec625f14c1cf9cb4c25b52a9b70db7b628da",
      "blockNumber": 51993,
      "transactionIndex": 1,
      "confirmations": null,
      "from": "0x6cc7E5cA124De46300E5D1a006D3f741B737f218",
      "gasPrice": {
        "_hex": "0xd8364fc25"
      },
      "gasLimit": {
        "_hex": "0x15f90"
      },
      "to": "0x2910543Af39abA0Cd09dBb2D50200b3E800A63D2",
      "value": {
        "_hex": "0x8ac7230489e80000"
      },
      "nonce": 0,
      "data": "0x454e3635344b313852",
      "r": "0x13a75381e6c209390a55347d568ec3d3dabb3160f6dbc1146024e0128131e7f0",
      "s": "0x515b8a42fb8b55c5f300ba1cc219b84b59109f87ca603296291288e8aaa05be5",
      "v": 28,
      "creates": null,
      "raw": "0xf87680850d8364fc2583015f90942910543af39aba0cd09dbb2d50200b3e800a63d2888ac7230489e8000089454e3635344b3138521ca013a75381e6c209390a55347d568ec3d3dabb3160f6dbc1146024e0128131e7f0a0515b8a42fb8b55c5f300ba1cc219b84b59109f87ca603296291288e8aaa05be5",
      "networkId": 0,
      "chainId": 0
    },
    {
      "hash": "0xf1805daaa7f01842a318b12e945f3d6805101e69b2c221200a8e8f2bcee26a9f",
      "blockHash": "0xede63384b5290440e50c6fd27da1ec625f14c1cf9cb4c25b52a9b70db7b628da",
      "blockNumber": 51993,
      "transactionIndex": 2,
      "confirmations": null,
      "from": "0x157c6f2431eB1a95797EE86F7d17b3c0FD47A247",
      "gasPrice": {
        "_hex": "0xd3d37f23a"
      },
      "gasLimit": {
        "_hex": "0x15f90"
      },
      "to": "0xc0b9d23f8d37650D0141B559dbD33d94Ea004e07",
      "value": {
        "_hex": "0xde0b6b3a7640000"
      },
      "nonce": 0,
      "data": "0x454e433933464b3330",
      "r": "0x5996eacb15c2fca91161b7bcbadee26e908997d375d72396988b73921d934d07",
      "s": "0x70c610ad09a4cc6412d51d6bbd2a025f4e11e7e41b4d10f055c7cdaffed5e20f",
      "v": 27,
      "creates": null,
      "raw": "0xf87680850d3d37f23a83015f9094c0b9d23f8d37650d0141b559dbd33d94ea004e07880de0b6b3a764000089454e433933464b33301ba05996eacb15c2fca91161b7bcbadee26e908997d375d72396988b73921d934d07a070c610ad09a4cc6412d51d6bbd2a025f4e11e7e41b4d10f055c7cdaffed5e20f",
      "networkId": 0,
      "chainId": 0
    }
  ]
}