{
  "hash": "0xede8f11014811747a68e9873bab64fbb887923cb5c8592c2d4f46fea4c235474",
  "parentHash": "0x241548ec896cdaad8e7e71819bdf04e591d9dc0f806946ef22b354e788ee48bb",
  "number": 105370,
  "timestamp": 1439886340,
  "nonce": "0x92f5a0d88351caf2",
  "difficulty": 4371823215315,
  "gasLimit": {
    "_hex": "0x2fefd8"
  },
  "gasUsed": {
    "_hex": "0x5208"
  },
  "miner": "0x790b8a3cE86E707ED0eD32bF89B3269692a23CC1",
  "extraData": "0xd783010001844765746887676f312e342e32856c696e7578",
  "transactions": [
    {
      "hash": "0xbe588a8c72947e1496215d808369a44e55d1d26df802509f378acd278113e487",
      "blockHash": "0xede8f11014811747a68e9873bab64fbb887923cb5c8592c2d4f46fea4c235474",
      "blockNumber": 105370,
      "transactionIndex": 0,
      "confirmations": null,
      "from": "0x701aE497d3522329870Ada714AA902424EA8Da01",
      "gasPrice": {
        "_hex": "0xe07d5e88c"
      },
      "gasLimit": {
        "_hex": "0x5208"
      },
      "to": "0x32Be343B94f860124dC4fEe278FDCBD38C102D88",
      "value": {
        "_hex": "0x24295ebe657c88000"
      },
      "nonce": 7,
      "data": "0x",
      "r": "0xbf443a1e6b6fd25e0c28f8bbffa6238d4b1fa8b85347b094b2ccbd17c1a9cb08",
      "s": "0x4b1a35e6b3555a71093fbc97a2bad0e4a3657e8bd73dcec17aa5481623a332c1",
      "v": 28,
      "creates": null,
      "raw": "0xf86d07850e07d5e88c8252089432be343b94f860124dc4fee278fdcbd38c102d8889024295ebe657c88000801ca0bf443a1e6b6fd25e0c28f8bbffa6238d4b1fa8b85347b094b2ccbd17c1a9cb08a04b1a35e6b3555a71093fbc97a2bad0e4a3657e8bd73dcec17aa5481623a332c1",
      "networkId": 0,
      "chainId": 0
    }
  ]
}