{
  "hash": "0xec74bbedfc4d929f6820bd58c47bb8e223fb9e1d276a91594e0aa099c3685839",
  "parentHash": "0xc085aca57d12140c808767bd5ce98615abbd0e125f15c304683fd591ecf529f5",
  "number": 51034,
  "timestamp": 1438998390,
  "nonce": "0x3aad8960ef343a56",
  "difficulty": 1552187491250,
  "gasLimit": {
    "_hex": "0x8be81"
  },
  "gasUsed": {
    "_hex": "0x546c"
  },
  "miner": "0xbcB2E3693d246E1fc00348754334BadEb88b2a11",
  "extraData": "0x476574682f76312e302e302f6c696e75782f676f312e342e32",
  "transactions": [
    {
      "hash": "0xae30e0b7dec8bb1092811015cec394ccb112c04f3cc3cdf92c0c9470468d8ef6",
      "blockHash": "0xec74bbedfc4d929f6820bd58c47bb8e223fb9e1d276a91594e0aa099c3685839",
      "blockNumber": 51034,
      "transactionIndex": 0,
      "confirmations": null,
      "from": "0x57883010B4AC857feDAC03eAB2551723a8447ffB",
      "gasPrice": {
        "_hex": "0x110c8f7d8de"
      },
      "gasLimit": {
        "_hex": "0xc350"
      },
      "to": "0x2910543Af39abA0Cd09dBb2D50200b3E800A63D2",
      "value": {
        "_hex": "0x1b0d04202f47ec0000"
      },
      "nonce": 1,
      "data": "0x454e4b484545593252",
      "r": "0x641478405fbfda89bcb14f4d6a8e72d75d2e6e0651d01cc13b0a5db42b6e2a2a",
      "s": "0xb067d47705d01c2a6a994dafad1bab9b6d3f7dbc20e4d4487d08583ab5901ab7",
      "v": 27,
      "creates": null,
      "raw": "0xf87701860110c8f7d8de82c350942910543af39aba0cd09dbb2d50200b3e800a63d2891b0d04202f47ec000089454e4b4845455932521ba0641478405fbfda89bcb14f4d6a8e72d75d2e6e0651d01cc13b0a5db42b6e2a2aa0b067d47705d01c2a6a994dafad1bab9b6d3f7dbc20e4d4487d08583ab5901ab7",
      "networkId": 0,
      "chainId": 0
    }
  ]
}