{
  "hash": "0xd59df8205d4951d049b77ad1e274108f55ed7255f996a9e9ff6b526845c45650",
  "parentHash": "0x7217e9e84e927baa6e15241a464effa2e7c66f0a7ca9fb20bceee433615e8827",
  "number": 80525,
  "timestamp": 1439486736,
  "nonce": "0x73fec72397ffdd7c",
  "difficulty": 2425061017344,
  "gasLimit": {
    "_hex": "0x2fefd8"
  },
  "gasUsed": {
    "_hex": "0x5208"
  },
  "miner": "0xeB1325C8D9d3ea8D74aC11F4B00F1B2367686319",
  "extraData": "0x476574682f76312e302e312f77696e646f77732f676f312e342e32",
  "transactions": [
    {
      "hash": "0x619e6c3a23b8e17c13059479c0574372d2bfa511a81ef1a78687132b6b8da7a9",
      "blockHash": "0xd59df8205d4951d049b77ad1e274108f55ed7255f996a9e9ff6b526845c45650",
      "blockNumber": 80525,
      "transactionIndex": 0,
      "confirmations": null,
      "from": "0x972ad000397A3c903299F1353d6d4b85eE4E4e2A",
      "gasPrice": {
        "_hex": "0xdb4917f9a"
      },
      "gasLimit": {
        "_hex": "0x5208"
      },
      "to": "0x32Be343B94f860124dC4fEe278FDCBD38C102D88",
      "value": {
        "_hex": "0x15aed679cdb94a000"
      },
      "nonce": 6,
      "data": "0x",
      "r": "0x13e440de0c62008b2819d292d51be915537f03d04da89426db6ed48fb7b3ff1d",
      "s": "0x57370eaf1c064d5c332a7ac2811b417ce8a691c34c583df8cc72897863adee33",
      "v": 27,
      "creates": null,
      "raw": "0xf86d06850db4917f9a8252089432be343b94f860124dc4fee278fdcbd38c102d8889015aed679cdb94a000801ba013e440de0c62008b2819d292d51be915537f03d04da89426db6ed48fb7b3ff1da057370eaf1c064d5c332a7ac2811b417ce8a691c34c583df8cc72897863adee33",
      "networkId": 0,
      "chainId": 0
    }
  ]
}