{
  "hash": "0xfde8a9082436e38e5cbe972a5ea9cf4ff9dba3d8d1afe502b20b46545259086b",
  "parentHash": "0x3a485783d367fb2dec14b8312c57dc578cbf238bcccb6f4d6d0dfc5a471cc50e",
  "number": 102459,
  "timestamp": 1439838394,
  "nonce": "0x99306c5fc1143649",
  "difficulty": 3960641672005,
  "gasLimit": {
    "_hex": "0x2fefd8"
  },
  "gasUsed": {
    "_hex": "0x5208"
  },
  "miner": "0xe6A7a1d47ff21B6321162AEA7C6CB457D5476Bca",
  "extraData": "0x476574682f76312e302e312d38326566323666362f6c696e75782f676f312e34",
  "transactions": [
    {
      "hash": "0x485f0536a253698f8d7bba75753be4b6e69621c0e2e21bdc800305a424bb596d",
      "blockHash": "0xfde8a9082436e38e5cbe972a5ea9cf4ff9dba3d8d1afe502b20b46545259086b",
      "blockNumber": 102459,
      "transactionIndex": 0,
      "confirmations": null,
      "from": "0x2910543Af39abA0Cd09dBb2D50200b3E800A63D2",
      "gasPrice": {
        "_hex": "0xd5aa70bfd"
      },
      "gasLimit": {
        "_hex": "0x5208"
      },
      "to": "0x745AecBAF9BB39b74a67ea1cE623dE368481baA6",
      "value": {
        "_hex": "0x11c37937e08000"
      },
      "nonce": 996,
      "data": "0x",
      "r": "0xe930f9d5e9f324aba78c1ed66b0df252dc9214531593143ae7309192f65ca349",
      "s": "0x3cbf136e654dc7191816d8f25a070e43e4557cbd9b8ea02a6ca24ed617d16f05",
      "v": 27,
      "creates": null,
      "raw": "0xf86d8203e4850d5aa70bfd82520894745aecbaf9bb39b74a67ea1ce623de368481baa68711c37937e08000801ba0e930f9d5e9f324aba78c1ed66b0df252dc9214531593143ae7309192f65ca349a03cbf136e654dc7191816d8f25a070e43e4557cbd9b8ea02a6ca24ed617d16f05",
      "networkId": 0,
      "chainId": 0
    }
  ]
}