{
  "hash": "0xd68011a002e53f6b5298e99e8202461e382db628cb8d7c3fed18bd9e3cf3fe98",
  "parentHash": "0xdeb9bf26a3709d9d3ee2e9163669da2cbf23c48d16d4c8e6e1c7a1e21020d7e8",
  "number": 94827,
  "timestamp": 1439714756,
  "nonce": "0xc642a918533c5991",
  "difficulty": 3501853531022,
  "gasLimit": {
    "_hex": "0x2fe3de"
  },
  "gasUsed": {
    "_hex": "0x546c"
  },
  "miner": "0xad5C1768e5974C231b2148169da064e61910f31a",
  "extraData": "0x476574682f76312e302e302f6c696e75782f676f312e342e32",
  "transactions": [
    {
      "hash": "0x3a81a334391e33f29c37bd6ca03ce089a3c80cfd07554bea0ec877dc07609dc3",
      "blockHash": "0xd68011a002e53f6b5298e99e8202461e382db628cb8d7c3fed18bd9e3cf3fe98",
      "blockNumber": 94827,
      "transactionIndex": 0,
      "confirmations": null,
      "from": "0x090cebef292c3EB081a05fd8aAF7d39bf07B89d4",
      "gasPrice": {
        "_hex": "0x110c8f7d8de"
      },
      "gasLimit": {
        "_hex": "0xc350"
      },
      "to": "0x2910543Af39abA0Cd09dBb2D50200b3E800A63D2",
      "value": {
        "_hex": "0x1b25ff02a5dba00000"
      },
      "nonce": 4,
      "data": "0x454e4858564a594652",
      "r": "0xe97e1508c70e5ffece404fcd87b83a74afa55cf5ccb1276ddeb33bb3d80c9004",
      "s": "0xb05b8e4faaa01d53182f1475b3dd76e000980dd7895357d65087d987bb53ef70",
      "v": 27,
      "creates": null,
      "raw": "0xf87704860110c8f7d8de82c350942910543af39aba0cd09dbb2d50200b3e800a63d2891b25ff02a5dba0000089454e4858564a5946521ba0e97e1508c70e5ffece404fcd87b83a74afa55cf5ccb1276ddeb33bb3d80c9004a0b05b8e4faaa01d53182f1475b3dd76e000980dd7895357d65087d987bb53ef70",
      "networkId": 0,
      "chainId": 0
    }
  ]
}