{
  "hash": "0x69ee03d3bfbfb0416568dc32b44ea74c12520a7b183696f4f6f81ae3f0158507",
  "parentHash": "0x8fb5be9341d510b0508caacd09fbe2f16dfd2cbb3a5788282eb108c69e93e127",
  "number": 95366,
  "timestamp": 1439723140,
  "nonce": "0x813e6f08d42eff48",
  "difficulty": 3561985093154,
  "gasLimit": {
    "_hex": "0x2fefd8"
  },
  "gasUsed": {
    "_hex": "0x5208"
  },
  "miner": "0xF11940EA05aA9CC3F13aCF5C5cA6EDCF312E3Aec",
  "extraData": "0x476574682f76312e302e312f77696e646f77732f676f312e342e32",
  "transactions": [
    {
      "hash": "0x291b468b624dace89b77bddc1c20b73cb31ff9f9ba27548bc53145a3c649c391",
      "blockHash": "0x69ee03d3bfbfb0416568dc32b44ea74c12520a7b183696f4f6f81ae3f0158507",
      "blockNumber": 95366,
      "transactionIndex": 0,
      "confirmations": null,
      "from": "0xD58c3AfB06F28bE4dc3e3bc8573eDe1D73773458",
      "gasPrice": {
        "_hex": "0xba43b7400"
      },
      "gasLimit": {
        "_hex": "0x5208"
      },
      "to": "0xC47Aaa860008be6f65B58c6C6E02a84e666EfE31",
      "value": {
        "_hex": "0x514151737470e3fcb0"
      },
      "nonce": 2,
      "data": "0x",
      "r": "0x009acb10a3b871caa94859007059d4f69d0c8de758327ec1331aa3e26e2b6de3",
      "s": "0x2a205e381090e8d0f78a9a96fa36d4867dbe4e1bdf367f9503d2fb1de6022043",
      "v": 28,
      "creates": null,
      "raw": "0xf86c02850ba43b740082520894c47aaa860008be6f65b58c6c6e02a84e666efe3189514151737470e3fcb0801c9f9acb10a3b871caa94859007059d4f69d0c8de758327ec1331aa3e26e2b6de3a02a205e381090e8d0f78a9a96fa36d4867dbe4e1bdf367f9503d2fb1de6022043",
      "networkId": 0,
      "chainId": 0
    }
  ]
}