{
  "hash": "0xa35ca047094017867052e13bd904b535e806b9810c8a21839307e7a4716f9da0",
  "parentHash": "0xc44f1fffd2b326ca0a8236267944de2e291fd601b55984361d5cd95c16c10c08",
  "number": 64036,
  "timestamp": 1439214282,
  "nonce": "0x54ca603dcc9f9e54",
  "difficulty": 1851228828773,
  "gasLimit": {
    "_hex": "0x2fefd8"
  },
  "gasUsed": {
    "_hex": "0x5318"
  },
  "miner": "0x2134e2a2b718DCa96580ECAC31E653Ea1fdd58DA",
  "extraData": "0x476574682f76312e302e312f77696e646f77732f676f312e342e32",
  "transactions": [
    {
      "hash": "0x2a289264517f146a943488809d8ad7915cdd0523a8c9f07d92e6b7a40fdc0cea",
      "blockHash": "0xa35ca047094017867052e13bd904b535e806b9810c8a21839307e7a4716f9da0",
      "blockNumber": 64036,
      "transactionIndex": 0,
      "confirmations": null,
      "from": "0x828B10061A800ddd5F632023F3A56C58065F5f90",
      "gasPrice": {
        "_hex": "0xd2f9d1ddd"
      },
      "gasLimit": {
        "_hex": "0x15f90"
      },
      "to": "0xC7d3E431Be6222543364408a94C12C0D089Be305",
      "value": {
        "_hex": "0x0"
      },
      "nonce": 1,
      "data": "0x3ba15036",
      "r": "0x6ae818c6a9f57b061089caca51aa861be3f5d1942966e6c6b038a5308bc2c2c5",
      "s": "0x65d1093d5b6393f767e487bc64d80cee4b9dcdf6c7af7121c1395108d1340822",
      "v": 27,
      "creates": null,
      "raw": "0xf86901850d2f9d1ddd83015f9094c7d3e431be6222543364408a94c12c0d089be30580843ba150361ba06ae818c6a9f57b061089caca51aa861be3f5d1942966e6c6b038a5308bc2c2c5a065d1093d5b6393f767e487bc64d80cee4b9dcdf6c7af7121c1395108d1340822",
      "networkId": 0,
      "chainId": 0
    }
  ]
}