{
  "hash": "0xed2b817db6524d9eec02b4575ebf1fc2445f92a6fd0dcee7726d1471ec16a67c",
  "parentHash": "0x57ca821b0ffb362d4057c7f51620e8224d1820b56bcb7f288f8a2d5e956dd808",
  "number": 85333,
  "timestamp": 1439561978,
  "nonce": "0xb4966e5e0f5702c8",
  "difficulty": 2743698903619,
  "gasLimit": {
    "_hex": "0x2fe3de"
  },
  "gasUsed": {
    "_hex": "0x5208"
  },
  "miner": "0x87cD3b7f4DBBFE553DB92Ac1C97c6C24231c5D26",
  "extraData": "0x476574682f76312e302e302f6c696e75782f676f312e342e32",
  "transactions": [
    {
      "hash": "0x55c930a0ee53d6bd35ea30f7020d3642bf2bc962a9b820b3b314227bff460208",
      "blockHash": "0xed2b817db6524d9eec02b4575ebf1fc2445f92a6fd0dcee7726d1471ec16a67c",
      "blockNumber": 85333,
      "transactionIndex": 0,
      "confirmations": null,
      "from": "0xD2a5A024230a57Ccc666760b89b0e26CAFd189C7",
      "gasPrice": {
        "_hex": "0x1057af7d5ec"
      },
      "gasLimit": {
        "_hex": "0x15f90"
      },
      "to": "0x151e1b655BC131b5aCf57Df4C4193029a2Af43bE",
      "value": {
        "_hex": "0xdd2d5fcf3bc9c0000"
      },
      "nonce": 10,
      "data": "0x",
      "r": "0x8a39fcd8d6ada8c23c470c431c80a942ec1c88a332896ec41573c0776e08a7f1",
      "s": "0x1ad22e15b499ddd38a1541863939cdac66186a1a69859f679d02b383f3c1aac8",
      "v": 27,
      "creates": null,
      "raw": "0xf86f0a8601057af7d5ec83015f9094151e1b655bc131b5acf57df4c4193029a2af43be890dd2d5fcf3bc9c0000801ba08a39fcd8d6ada8c23c470c431c80a942ec1c88a332896ec41573c0776e08a7f1a01ad22e15b499ddd38a1541863939cdac66186a1a69859f679d02b383f3c1aac8",
      "networkId": 0,
      "chainId": 0
    }
  ]
}