{
  "hash": "0xa2d8b9937717b80bea1c92aea57661b3538c5b60f6c3c9d5b0227b69c2aae0e6",
  "parentHash": "0x82f6b759f38f694e62a49862714810ff672e67cbd70e2d0e399ba5618c1ddc1e",
  "number": 119406,
  "timestamp": 1440142289,
  "nonce": "0x37f8388fe2fe33c0",
  "difficulty": 4407345310695,
  "gasLimit": {
    "_hex": "0x2fefd8"
  },
  "gasUsed": {
    "_hex": "0xf618"
  },
  "miner": "0xe6A7a1d47ff21B6321162AEA7C6CB457D5476Bca",
  "extraData": "0xd783010002844765746887676f312e342e32856c696e7578",
  "transactions": [
    {
      "hash": "0x4256a4197a3cfa9bc5121b7452bfb5f092493a98b4fe65eafc0535d85885757a",
      "blockHash": "0xa2d8b9937717b80bea1c92aea57661b3538c5b60f6c3c9d5b0227b69c2aae0e6",
      "blockNumber": 119406,
      "transactionIndex": 0,
      "confirmations": null,
      "from": "0xB0b3385a645Eb80B431224920043447Ab1303eA8",
      "gasPrice": {
        "_hex": "0xba43b7400"
      },
      "gasLimit": {
        "_hex": "0x5208"
      },
      "to": "0x32Be343B94f860124dC4fEe278FDCBD38C102D88",
      "value": {
        "_hex": "0x39ee0fcb315d3c00"
      },
      "nonce": 9,
      "data": "0x",
      "r": "0xb2e464d29d35fdbb09643ec2367c4bcd5de486146042ece0959221d06fd6b65c",
      "s": "0x32b09f9cf86210e30a2a92951e595449df55f8f904089cd29086ca62ed134275",
      "v": 28,
      "creates": null,
      "raw": "0xf86c09850ba43b74008252089432be343b94f860124dc4fee278fdcbd38c102d888839ee0fcb315d3c00801ca0b2e464d29d35fdbb09643ec2367c4bcd5de486146042ece0959221d06fd6b65ca032b09f9cf86210e30a2a92951e595449df55f8f904089cd29086ca62ed134275",
      "networkId": 0,
      "chainId": 0
    },
    {
      "hash": "0xed0486d197563abca304811de6cd0e837f3e70701cf9d8b5759b3e9ca836a3ef",
      "blockHash": "0xa2d8b9937717b80bea1c92aea57661b3538c5b60f6c3c9d5b0227b69c2aae0e6",
      "blockNumber": 119406,
      "transactionIndex": 1,
      "confirmations": null,
      "from": "0xdc41BFACFAaF8B0F0949aB5A3f18f47063Ae62fB",
      "gasPrice": {
        "_hex": "0xba43b7400"
      },
      "gasLimit": {
        "_hex": "0x5208"
      },
      "to": "0x32Be343B94f860124dC4fEe278FDCBD38C102D88",
      "value": {
        "_hex": "0x2085b78fa86af8000"
      },
      "nonce": 11,
      "data": "0x",
      "r": "0x51082562dbb08aff0237f8ad179ac5d71320b36f520321e02a6dac4555bde98e",
      "s": "0x26a979609c159a13bc11e8fdbf334114739dddaa18ddbc64ae29c4c08a00f3ac",
      "v": 28,
      "creates": null,
      "raw": "0xf86d0b850ba43b74008252089432be343b94f860124dc4fee278fdcbd38c102d888902085b78fa86af8000801ca051082562dbb08aff0237f8ad179ac5d71320b36f520321e02a6dac4555bde98ea026a979609c159a13bc11e8fdbf334114739dddaa18ddbc64ae29c4c08a00f3ac",
      "networkId": 0,
      "chainId": 0
    },
    {
      "hash": "0x5e62460567efd120f94742b11c4649446eed36bc96c8fb6eaae3f989e9a197c4",
      "blockHash": "0xa2d8b9937717b80bea1c92aea57661b3538c5b60f6c3c9d5b0227b69c2aae0e6",
      "blockNumber": 119406,
      "transactionIndex": 2,
      "confirmations": null,
      "from": "0xb1abce2918E21ddb93AA452731a12672A3d9F75a",
      "gasPrice": {
        "_hex": "0xba43b7400"
      },
      "gasLimit": {
        "_hex": "0x5208"
      },
      "to": "0x32Be343B94f860124dC4fEe278FDCBD38C102D88",
      "value": {
        "_hex": "0x455fd68a17f06000"
      },
      "nonce": 195,
      "data": "0x",
      "r": "0x5bc2c062630cbbb71917eb180e333e7b7ac33b0e40817286110f3194093ce8e7",
      "s": "0x0956646baaf5f8c6b32b583e269b64be927676a45d0eca0ec4a01938bde03cbc",
      "v": 28,
      "creates": null,
      "raw": "0xf86d81c3850ba43b74008252089432be343b94f860124dc4fee278fdcbd38c102d8888455fd68a17f06000801ca05bc2c062630cbbb71917eb180e333e7b7ac33b0e40817286110f3194093ce8e7a00956646baaf5f8c6b32b583e269b64be927676a45d0eca0ec4a01938bde03cbc",
      "networkId": 0,
      "chainId": 0
    }
  ]
}