{
  "hash": "0x0c1c5d7dd28b778b6a76d915d657ef8a65a59ff30c3782a859057cc2ebe1466b",
  "parentHash": "0x32e70aa89bc1cfaf072b34b88b52448eaad44339e10f4240a37350499a137e5d",
  "number": 97427,
  "timestamp": 1439756038,
  "nonce": "0x16e83faa9f8da17b",
  "difficulty": 3811197364426,
  "gasLimit": {
    "_hex": "0x2fefd8"
  },
  "gasUsed": {
    "_hex": "0x5208"
  },
  "miner": "0xe6A7a1d47ff21B6321162AEA7C6CB457D5476Bca",
  "extraData": "0x476574682f76312e302e312d38326566323666362f6c696e75782f676f312e34",
  "transactions": [
    {
      "hash": "0xe7114a85b1d2971a1a6fb04e3581828ecc0eafd0baa0ea829d5df7770b19c485",
      "blockHash": "0x0c1c5d7dd28b778b6a76d915d657ef8a65a59ff30c3782a859057cc2ebe1466b",
      "blockNumber": 97427,
      "transactionIndex": 0,
      "confirmations": null,
      "from": "0x32Be343B94f860124dC4fEe278FDCBD38C102D88",
      "gasPrice": {
        "_hex": "0xd27373674"
      },
      "gasLimit": {
        "_hex": "0x5208"
      },
      "to": "0xf669D33ffC879Ed84BECd4EF67CB17c76f4607D5",
      "value": {
        "_hex": "0x179679abaa0a830000"
      },
      "nonce": 1026,
      "data": "0x",
      "r": "0x52ea265bf076528e6d7f104ec9ee9b74feff89cf93237392e16fae82ed5ef0bd",
      "s": "0x65085da86e0242469d6b955e2e8e3c224b62f971c7b8c8015cc7c7d9f5dbaa6c",
      "v": 28,
      "creates": null,
      "raw": "0xf86f820402850d2737367482520894f669d33ffc879ed84becd4ef67cb17c76f4607d589179679abaa0a830000801ca052ea265bf076528e6d7f104ec9ee9b74feff89cf93237392e16fae82ed5ef0bda065085da86e0242469d6b955e2e8e3c224b62f971c7b8c8015cc7c7d9f5dbaa6c",
      "networkId": 0,
      "chainId": 0
    }
  ]
}