{
  "hash": "0xe22cdf907d71e2f4bec18fcbf2586f7353d091e96e21688a5b6cfa96319fc619",
  "parentHash": "0x53aa8f3608ede5e5a6d33c3978018d74c5b4a35f20e89569187e5067877af749",
  "number": 119955,
  "timestamp": 1440151352,
  "nonce": "0x179973368273b1f1",
  "difficulty": 4430791277747,
  "gasLimit": {
    "_hex": "0x2fefd8"
  },
  "gasUsed": {
    "_hex": "0xa410"
  },
  "miner": "0x52bc44d5378309EE2abF1539BF71dE1b7d7bE3b5",
  "extraData": "0xd783010002844765746887676f312e342e32856c696e7578",
  "transactions": [
    {
      "hash": "0x011e02d9a0d931743e19a4d6d3890ead2affe3623797c42fd7a8ca8272855e9b",
      "blockHash": "0xe22cdf907d71e2f4bec18fcbf2586f7353d091e96e21688a5b6cfa96319fc619",
      "blockNumber": 119955,
      "transactionIndex": 0,
      "confirmations": null,
      "from": "0x608f4b86321a68453f9adf6F06F7Fc3E621739ad",
      "gasPrice": {
        "_hex": "0xba43b7400"
      },
      "gasLimit": {
        "_hex": "0x5208"
      },
      "to": "0x32Be343B94f860124dC4fEe278FDCBD38C102D88",
      "value": {
        "_hex": "0xd026f98ea1d86000"
      },
      "nonce": 50,
      "data": "0x",
      "r": "0xd37df164236789d99a8f342318b99a6f89d5e7d015634e165c75a541a36caa69",
      "s": "0x7ebd15ae6853e2d3505a58e145b6fcd9ec6b6a1cd758a588db45ddfad29afa28",
      "v": 28,
      "creates": null,
      "raw": "0xf86c32850ba43b74008252089432be343b94f860124dc4fee278fdcbd38c102d8888d026f98ea1d86000801ca0d37df164236789d99a8f342318b99a6f89d5e7d015634e165c75a541a36caa69a07ebd15ae6853e2d3505a58e145b6fcd9ec6b6a1cd758a588db45ddfad29afa28",
      "networkId": 0,
      "chainId": 0
    },
    {
      "hash": "0xf207d7eb2a1e75bc1cfad727d5576ad1389763c33b582d8f2ef122b7b6754f03",
      "blockHash": "0xe22cdf907d71e2f4bec18fcbf2586f7353d091e96e21688a5b6cfa96319fc619",
      "blockNumber": 119955,
      "transactionIndex": 1,
      "confirmations": null,
      "from": "0xb1abce2918E21ddb93AA452731a12672A3d9F75a",
      "gasPrice": {
        "_hex": "0xba43b7400"
      },
      "gasLimit": {
        "_hex": "0x5208"
      },
      "to": "0x32Be343B94f860124dC4fEe278FDCBD38C102D88",
      "value": {
        "_hex": "0x455fd68a17f06000"
      },
      "nonce": 204,
      "data": "0x",
      "r": "0xd8c3ba678bfdf6af070ee2a9ea5c64ebe3d4937b9c506300095ddd4b0c5d3673",
      "s": "0x4771d0f192836007a6e1729c2671a477b8098c2a92d3c0490c1822fb5d815eae",
      "v": 28,
      "creates": null,
      "raw": "0xf86d81cc850ba43b74008252089432be343b94f860124dc4fee278fdcbd38c102d8888455fd68a17f06000801ca0d8c3ba678bfdf6af070ee2a9ea5c64ebe3d4937b9c506300095ddd4b0c5d3673a04771d0f192836007a6e1729c2671a477b8098c2a92d3c0490c1822fb5d815eae",
      "networkId": 0,
      "chainId": 0
    }
  ]
}