{
  "hash": "0xd536bddb8687c186a731cd108d17b3d9fe011cc2c93148070bed87be5b9e5baa",
  "parentHash": "0x811fb08ce33d895298395e74311c7aa141f47149546857b923b2d26ea053e7c0",
  "number": 86864,
  "timestamp": 1439583842,
  "nonce": "0xa5ec6753d6aef02b",
  "difficulty": 2970452551497,
  "gasLimit": {
    "_hex": "0x2fefd8"
  },
  "gasUsed": {
    "_hex": "0x5438"
  },
  "miner": "0x070c8963Cf4abCe1BFaF5973F2E0f7697925B242",
  "extraData": "0x",
  "transactions": [
    {
      "hash": "0x97a6494d90fb2df69e80c12db8ba6e6254fc281a78666e035d005cb7d9ca9a18",
      "blockHash": "0xd536bddb8687c186a731cd108d17b3d9fe011cc2c93148070bed87be5b9e5baa",
      "blockNumber": 86864,
      "transactionIndex": 0,
      "confirmations": null,
      "from": "0xf669D33ffC879Ed84BECd4EF67CB17c76f4607D5",
      "gasPrice": {
        "_hex": "0xd99430be6"
      },
      "gasLimit": {
        "_hex": "0x15f90"
      },
      "to": "0x056507108FE6d30189EcCD6cd7F4Fad56eEef622",
      "value": {
        "_hex": "0x22b1c8c1227a00000"
      },
      "nonce": 2,
      "data": "0x000002ff0002ff000a853a0a",
      "r": "0x4e516d1c42aac2eb3fda7b86c2ed9c9b43c3f447af6542b20681e2785ea0573f",
      "s": "0x7eec532c67ffb81a10fe9a504440a3f6126f239f04167a9a20aef50432643b15",
      "v": 28,
      "creates": null,
      "raw": "0xf87a02850d99430be683015f9094056507108fe6d30189eccd6cd7f4fad56eeef62289022b1c8c1227a000008c000002ff0002ff000a853a0a1ca04e516d1c42aac2eb3fda7b86c2ed9c9b43c3f447af6542b20681e2785ea0573fa07eec532c67ffb81a10fe9a504440a3f6126f239f04167a9a20aef50432643b15",
      "networkId": 0,
      "chainId": 0
    }
  ]
}