{
  "hash": "0x9437aa20ebc6dabdb9ec4b764465cd0a6d6f4d05d266ec4ac6089398dfa78f7d",
  "parentHash": "0x6fe281727fe10d8bf1c4b28030a4e921114a7d6aac5c60a7803f812c3256fbdf",
  "number": 49269,
  "timestamp": 1438970793,
  "nonce": "0xb93e2144917d165b",
  "difficulty": 1480696137126,
  "gasLimit": {
    "_hex": "0x2b0db"
  },
  "gasUsed": {
    "_hex": "0xa674"
  },
  "miner": "0x70C6b45fe0A5116E97B112B806A76E2F51E24413",
  "extraData": "0x476574682f76312e302e302f77696e646f77732f676f312e342e32",
  "transactions": [
    {
      "hash": "0x197f6d813e6a912f6cf15a04e7c93ae728c7235b22abdb578d627d6b592f1539",
      "blockHash": "0x9437aa20ebc6dabdb9ec4b764465cd0a6d6f4d05d266ec4ac6089398dfa78f7d",
      "blockNumber": 49269,
      "transactionIndex": 0,
      "confirmations": null,
      "from": "0x8A7a06Be199A3a58019D846AC9cbD4D95DD757de",
      "gasPrice": {
        "_hex": "0x114b84a3955"
      },
      "gasLimit": {
        "_hex": "0x61a8"
      },
      "to": "0x2910543Af39abA0Cd09dBb2D50200b3E800A63D2",
      "value": {
        "_hex": "0x4563918244f40000"
      },
      "nonce": 0,
      "data": "0x454e51594e32314b52",
      "r": "0xa6705b824b8c6769c631e4918fccd7386abce13665c47df82479cbd635c6e6b3",
      "s": "0x3156f60d1a7a05a2c4ee19516e7042141b241c5970d3316d0d9b3957701f5574",
      "v": 27,
      "creates": null,
      "raw": "0xf87680860114b84a39558261a8942910543af39aba0cd09dbb2d50200b3e800a63d2884563918244f4000089454e51594e32314b521ba0a6705b824b8c6769c631e4918fccd7386abce13665c47df82479cbd635c6e6b3a03156f60d1a7a05a2c4ee19516e7042141b241c5970d3316d0d9b3957701f5574",
      "networkId": 0,
      "chainId": 0
    },
    {
      "hash": "0x4a91462db47b4c2edfc51111480deda08ede89451cd9d344e5c36e6f6ed68f9d",
      "blockHash": "0x9437aa20ebc6dabdb9ec4b764465cd0a6d6f4d05d266ec4ac6089398dfa78f7d",
      "blockNumber": 49269,
      "transactionIndex": 1,
      "confirmations": null,
      "from": "0x52F939Cea5843A3315E91D6E61cFe35034E85387",
      "gasPrice": {
        "_hex": "0x9184e72a000"
      },
      "gasLimit": {
        "_hex": "0x89e7"
      },
      "to": "0x6dED38803DA575897de5d51b7AEF3b86f35945A1",
      "value": {
        "_hex": "0x2c68af0bb140000"
      },
      "nonce": 2,
      "data": "0x",
      "r": "0x62603c4dbdfc21d50c92a29b29cc1d2280e601ec7dcfe5ad3256bd6fde1fde3e",
      "s": "0x1cfa23b1936f1859d67dfe32e0fb886a6dfcedfef83ed65548df15705af70313",
      "v": 28,
      "creates": null,
      "raw": "0xf86d028609184e72a0008289e7946ded38803da575897de5d51b7aef3b86f35945a18802c68af0bb140000801ca062603c4dbdfc21d50c92a29b29cc1d2280e601ec7dcfe5ad3256bd6fde1fde3ea01cfa23b1936f1859d67dfe32e0fb886a6dfcedfef83ed65548df15705af70313",
      "networkId": 0,
      "chainId": 0
    }
  ]
}