{
  "hash": "0x5c9bc04905b17f2facdb9b9b797c888d9207d67f19de181ebe37c2042e42d77c",
  "parentHash": "0x1f76a7d1f490458a5b4f6b37c428ff453faadfb32d111cdb2002f69fbf8cfe4b",
  "number": 64693,
  "timestamp": 1439224954,
  "nonce": "0xffa92d1f14cb0591",
  "difficulty": 1884830200468,
  "gasLimit": {
    "_hex": "0x2fefd8"
  },
  "gasUsed": {
    "_hex": "0xa410"
  },
  "miner": "0xf927a40C8B7F6E07c5af7FA2155B4864a4112B13",
  "extraData": "0x",
  "transactions": [
    {
      "hash": "0xef6c808110499b4de36cb8568ddadf57aae5ccc89a687d13c7f02b0c285bc623",
      "blockHash": "0x5c9bc04905b17f2facdb9b9b797c888d9207d67f19de181ebe37c2042e42d77c",
      "blockNumber": 64693,
      "transactionIndex": 0,
      "confirmations": null,
      "from": "0xD96719eF8eFF64F6e84Fd03120014834F4E76c40",
      "gasPrice": {
        "_hex": "0xd412adff8"
      },
      "gasLimit": {
        "_hex": "0x5208"
      },
      "to": "0x32Be343B94f860124dC4fEe278FDCBD38C102D88",
      "value": {
        "_hex": "0x454d8ebe584b2c00"
      },
      "nonce": 0,
      "data": "0x",
      "r": "0x2fdb4b8d1757577abbb85047aec380d9c0017ea93ad906cffd84750b03355ac0",
      "s": "0x4162e0b8882975bb9c49c00e4790bf7e8e76e14c51dfa0a8a3d3459c847268a0",
      "v": 28,
      "creates": null,
      "raw": "0xf86c80850d412adff88252089432be343b94f860124dc4fee278fdcbd38c102d8888454d8ebe584b2c00801ca02fdb4b8d1757577abbb85047aec380d9c0017ea93ad906cffd84750b03355ac0a04162e0b8882975bb9c49c00e4790bf7e8e76e14c51dfa0a8a3d3459c847268a0",
      "networkId": 0,
      "chainId": 0
    },
    {
      "hash": "0x49d530117f8ed4e93cbd98824b403fc542eb1b9d36cdc689d5f2d5ad4e82c8c4",
      "blockHash": "0x5c9bc04905b17f2facdb9b9b797c888d9207d67f19de181ebe37c2042e42d77c",
      "blockNumber": 64693,
      "transactionIndex": 1,
      "confirmations": null,
      "from": "0xAca1c2275abD87B31518221C1fa80E9d34151A71",
      "gasPrice": {
        "_hex": "0xd412adff8"
      },
      "gasLimit": {
        "_hex": "0x5208"
      },
      "to": "0x32Be343B94f860124dC4fEe278FDCBD38C102D88",
      "value": {
        "_hex": "0x894ddac83fb53000"
      },
      "nonce": 0,
      "data": "0x",
      "r": "0x9d9545577cfe23461a8bdcc9a3d4536325104d4f1386268a8b5ea7388654d27f",
      "s": "0x06f73205e7f56c2c3071999a05b2d5a0e9db5e5a5cebd6d86bb81777e80e333d",
      "v": 28,
      "creates": null,
      "raw": "0xf86c80850d412adff88252089432be343b94f860124dc4fee278fdcbd38c102d8888894ddac83fb53000801ca09d9545577cfe23461a8bdcc9a3d4536325104d4f1386268a8b5ea7388654d27fa006f73205e7f56c2c3071999a05b2d5a0e9db5e5a5cebd6d86bb81777e80e333d",
      "networkId": 0,
      "chainId": 0
    }
  ]
}