{
  "hash": "0x57ea1981ae026d5c3208b465c110fbc471b5ff20ba36ad5b1df67e3f926e5593",
  "parentHash": "0x2a58f7474715cc92c3c6d3168b8e779e78190fe0ba070a47a1eef71018c4dedb",
  "number": 63852,
  "timestamp": 1439211297,
  "nonce": "0x5d5029deea588c88",
  "difficulty": 1853078198512,
  "gasLimit": {
    "_hex": "0x2fefd8"
  },
  "gasUsed": {
    "_hex": "0xa674"
  },
  "miner": "0xf927a40C8B7F6E07c5af7FA2155B4864a4112B13",
  "extraData": "0x476574682f76312e302e312f6c696e75782f676f312e342e32",
  "transactions": [
    {
      "hash": "0x9acb8e024eef7efc54fcc39958472a2d3992c531ea1c19c7496f12a7769f6a28",
      "blockHash": "0x57ea1981ae026d5c3208b465c110fbc471b5ff20ba36ad5b1df67e3f926e5593",
      "blockNumber": 63852,
      "transactionIndex": 0,
      "confirmations": null,
      "from": "0x0B5e2011eBc25a007f21362960498AFb8Af280fb",
      "gasPrice": {
        "_hex": "0xd7d40ace3"
      },
      "gasLimit": {
        "_hex": "0x55f0"
      },
      "to": "0x2910543Af39abA0Cd09dBb2D50200b3E800A63D2",
      "value": {
        "_hex": "0x2086ac351052600000"
      },
      "nonce": 2,
      "data": "0x454e58395059555538",
      "r": "0xbd40854e49ca859101a2dfa97be61e3b813a847a148b423231568d9171aef681",
      "s": "0x4f1f2f63c19044baf535d3f4440e01e3dac27f11b076032e39ff46afed097e41",
      "v": 28,
      "creates": null,
      "raw": "0xf87602850d7d40ace38255f0942910543af39aba0cd09dbb2d50200b3e800a63d2892086ac35105260000089454e583950595555381ca0bd40854e49ca859101a2dfa97be61e3b813a847a148b423231568d9171aef681a04f1f2f63c19044baf535d3f4440e01e3dac27f11b076032e39ff46afed097e41",
      "networkId": 0,
      "chainId": 0
    },
    {
      "hash": "0x25140e50318916cfb07af8b5584244b72345458566d51bc0014742aa48c1cf38",
      "blockHash": "0x57ea1981ae026d5c3208b465c110fbc471b5ff20ba36ad5b1df67e3f926e5593",
      "blockNumber": 63852,
      "transactionIndex": 1,
      "confirmations": null,
      "from": "0x43c2AeB7b46cbB31eE7f9A86BDAfB5C87cD486a3",
      "gasPrice": {
        "_hex": "0xba43b7400"
      },
      "gasLimit": {
        "_hex": "0x5264"
      },
      "to": "0xf79785E5a846aCea08F94379fCCe79B1054bDB99",
      "value": {
        "_hex": "0x4563918244f40000"
      },
      "nonce": 3,
      "data": "0x",
      "r": "0x01eaa7c4d14abe095a284f8f3ca01f62f8e3bb2050faae50ab495ea4ad4c5e50",
      "s": "0xb6060f00ba8d82aaab8d9d8f816579751d260823993dc2da090dc2311e496b94",
      "v": 27,
      "creates": null,
      "raw": "0xf86c03850ba43b740082526494f79785e5a846acea08f94379fcce79b1054bdb99884563918244f40000801ba001eaa7c4d14abe095a284f8f3ca01f62f8e3bb2050faae50ab495ea4ad4c5e50a0b6060f00ba8d82aaab8d9d8f816579751d260823993dc2da090dc2311e496b94",
      "networkId": 0,
      "chainId": 0
    }
  ]
}