{
  "hash": "0xe2e81d2fe47cd250151abca4de412de2b2823ae99f9a9cd3ebda8e0c973d0e84",
  "parentHash": "0x72301e4bbeff66278f911645ab0255f1fc693c3b0af8701ca06d090c0438d361",
  "number": 89116,
  "timestamp": 1439618448,
  "nonce": "0xe175e087f9862f9e",
  "difficulty": 3261528216209,
  "gasLimit": {
    "_hex": "0x2fefd8"
  },
  "gasUsed": {
    "_hex": "0x5208"
  },
  "miner": "0xF2d2AfF1320476cb8C6b607199D23175cc595693",
  "extraData": "0x476574682f76312e302e312f77696e646f77732f676f312e342e32",
  "transactions": [
    {
      "hash": "0xc54e56f835b43086c594d8e4c0c5c9edd8320062e268cbc0cfecac434fd00314",
      "blockHash": "0xe2e81d2fe47cd250151abca4de412de2b2823ae99f9a9cd3ebda8e0c973d0e84",
      "blockNumber": 89116,
      "transactionIndex": 0,
      "confirmations": null,
      "from": "0xdeE4977F74E6Aef6D627191c9A45D2627e331150",
      "gasPrice": {
        "_hex": "0xd772e8da8"
      },
      "gasLimit": {
        "_hex": "0x5208"
      },
      "to": "0x32Be343B94f860124dC4fEe278FDCBD38C102D88",
      "value": {
        "_hex": "0x1d7d3f342c21bd000"
      },
      "nonce": 6,
      "data": "0x",
      "r": "0xd8fd997a17d92ff8ebe3438627f36c7734f369c8d0db1f2d15b744cdac9dd15e",
      "s": "0x003d3474e18f5ee6d2c6490f78ad31cd593079ae3a9f495d0473d4b24a4e6184",
      "v": 27,
      "creates": null,
      "raw": "0xf86c06850d772e8da88252089432be343b94f860124dc4fee278fdcbd38c102d888901d7d3f342c21bd000801ba0d8fd997a17d92ff8ebe3438627f36c7734f369c8d0db1f2d15b744cdac9dd15e9f3d3474e18f5ee6d2c6490f78ad31cd593079ae3a9f495d0473d4b24a4e6184",
      "networkId": 0,
      "chainId": 0
    }
  ]
}