{
  "hash": "0xe293db854801e330e331132f88f4ee339a49cff568174fce568264abc80a95ef",
  "parentHash": "0xb8b5d261e5d3ae5ef3d9c9c5678267a74e14ed1e6792775f156ecabfbcaa2a9b",
  "number": 105309,
  "timestamp": 1439885297,
  "nonce": "0x9a7f304f5b03c4d1",
  "difficulty": 4365455609525,
  "gasLimit": {
    "_hex": "0x2fefd8"
  },
  "gasUsed": {
    "_hex": "0x854d0"
  },
  "miner": "0x580992B51e3925e23280EfB93d3047C82f17E038",
  "extraData": "0x476574682f76312e302e312f6c696e75782f676f312e342e32",
  "transactions": [
    {
      "hash": "0x67f7c3a0bf8319ee052a86e35619a8568c714832fc1c7656987bb3807c13d300",
      "blockHash": "0xe293db854801e330e331132f88f4ee339a49cff568174fce568264abc80a95ef",
      "blockNumber": 105309,
      "transactionIndex": 0,
      "confirmations": null,
      "from": "0x4C2F1AFeF7c5868C44832fc77cB03b55f89E6D6E",
      "gasPrice": {
        "_hex": "0x103ef3e96dc"
      },
      "gasLimit": {
        "_hex": "0x15f90"
      },
      "to": "0x2878c60b86FBf89645547fEcFA7f74B067f32E52",
      "value": {
        "_hex": "0xde0b6b3a7640000"
      },
      "nonce": 0,
      "data": "0x",
      "r": "0xc457d66b9796f6ae058578273c6660888a8c8afc39eb29600998aee304207fb0",
      "s": "0x15fe0e31d8cc0ccbaafa67f3886892040c77d14b2554b77ca5e92eb7b750df17",
      "v": 27,
      "creates": null,
      "raw": "0xf86e80860103ef3e96dc83015f90942878c60b86fbf89645547fecfa7f74b067f32e52880de0b6b3a7640000801ba0c457d66b9796f6ae058578273c6660888a8c8afc39eb29600998aee304207fb0a015fe0e31d8cc0ccbaafa67f3886892040c77d14b2554b77ca5e92eb7b750df17",
      "networkId": 0,
      "chainId": 0
    },
    {
      "hash": "0xc914661f7cc12c2eff31b69d0b001added1418956645ac31ce54fa38989da560",
      "blockHash": "0xe293db854801e330e331132f88f4ee339a49cff568174fce568264abc80a95ef",
      "blockNumber": 105309,
      "transactionIndex": 1,
      "confirmations": null,
      "from": "0xa70a9a7040d542C632D8e0bE7c5513A8a5Bbc752",
      "gasPrice": {
        "_hex": "0xdd495d165"
      },
      "gasLimit": {
        "_hex": "0x5208"
      },
      "to": "0x32Be343B94f860124dC4fEe278FDCBD38C102D88",
      "value": {
        "_hex": "0x455f22fcaaf7a800"
      },
      "nonce": 241,
      "data": "0x",
      "r": "0xf04bffa20524a377e300d7a1b65b89ae85c972fb438e827333472b8b137f915a",
      "s": "0x53409bdc7247fca4beba1ab6f44df69ced9149e7faeeb8633a3e62099586ced9",
      "v": 28,
      "creates": null,
      "raw": "0xf86d81f1850dd495d1658252089432be343b94f860124dc4fee278fdcbd38c102d8888455f22fcaaf7a800801ca0f04bffa20524a377e300d7a1b65b89ae85c972fb438e827333472b8b137f915aa053409bdc7247fca4beba1ab6f44df69ced9149e7faeeb8633a3e62099586ced9",
      "networkId": 0,
      "chainId": 0
    },
    {
      "hash": "0x55355d0f3a567e632a629772b38100e90d2ac945f339ac1ddfc96ccdf5bce1fd",
      "blockHash": "0xe293db854801e330e331132f88f4ee339a49cff568174fce568264abc80a95ef",
      "blockNumber": 105309,
      "transactionIndex": 2,
      "confirmations": null,
      "from": "0xe6A7a1d47ff21B6321162AEA7C6CB457D5476Bca",
      "gasPrice": {
        "_hex": "0xd58dacb3e"
      },
      "gasLimit": {
        "_hex": "0x55f0"
      },
      "to": "0x740Ab9f08593f931fC5d0589a528663565e707ee",
      "value": {
        "_hex": "0xe02737132eae918"
      },
      "nonce": 3552,
      "data": "0x",
      "r": "0x8c4ad1b85822c5c4496b6d6317b26ef560b31c476b6041d27cfeac69f57eefff",
      "s": "0x3fe6f51aea2427f98a7dfaf451a7e35ced5ddb2a107b476833b80dbb8a92a58b",
      "v": 28,
      "creates": null,
      "raw": "0xf86e820de0850d58dacb3e8255f094740ab9f08593f931fc5d0589a528663565e707ee880e02737132eae918801ca08c4ad1b85822c5c4496b6d6317b26ef560b31c476b6041d27cfeac69f57eefffa03fe6f51aea2427f98a7dfaf451a7e35ced5ddb2a107b476833b80dbb8a92a58b",
      "networkId": 0,
      "chainId": 0
    },
    {
      "hash": "0x206e19aba3c5d80727a13feb37a6b04496037dc9cb968f66288bd58dad789232",
      "blockHash": "0xe293db854801e330e331132f88f4ee339a49cff568174fce568264abc80a95ef",
      "blockNumber": 105309,
      "transactionIndex": 3,
      "confirmations": null,
      "from": "0xe6A7a1d47ff21B6321162AEA7C6CB457D5476Bca",
      "gasPrice": {
        "_hex": "0xd58dacb3e"
      },
      "gasLimit": {
        "_hex": "0x55f0"
      },
      "to": "0x9FA0960220d2d51D54f755501E391Da140c2EF63",
      "value": {
        "_hex": "0xe675e001d01ed70"
      },
      "nonce": 3553,
      "data": "0x",
      "r": "0xb1fdb25c38f0257f3c773946a37c39444fe7cb53d6c92e0710a9ba6ffb4fbfd4",
      "s": "0x7a742c9475db50838eac58424e4c2ee100692d36130db8a138d636f21f44c360",
      "v": 28,
      "creates": null,
      "raw": "0xf86e820de1850d58dacb3e8255f0949fa0960220d2d51d54f755501e391da140c2ef63880e675e001d01ed70801ca0b1fdb25c38f0257f3c773946a37c39444fe7cb53d6c92e0710a9ba6ffb4fbfd4a07a742c9475db50838eac58424e4c2ee100692d36130db8a138d636f21f44c360",
      "networkId": 0,
      "chainId": 0
    },
    {
      "hash": "0x82ad22fc684ed48267c568cd94c7a3531789837df6ee656b886a5c25dfcbc939",
      "blockHash": "0xe293db854801e330e331132f88f4ee339a49cff568174fce568264abc80a95ef",
      "blockNumber": 105309,
      "transactionIndex": 4,
      "confirmations": null,
      "from": "0xe6A7a1d47ff21B6321162AEA7C6CB457D5476Bca",
      "gasPrice": {
        "_hex": "0xd58dacb3e"
      },
      "gasLimit": {
        "_hex": "0x55f0"
      },
      "to": "0x8133cC8164c511DDC7C1c233C9628CA4dbcE3e55",
      "value": {
        "_hex": "0xe696b1e85fc7e94"
      },
      "nonce": 3554,
      "data": "0x",
      "r": "0x9125c4e6e2452a03cdafa2a00ab31830135bd2e2ea66bf15b9acd7b0b0d003f9",
      "s": "0x03fa3253c6b8199fb86fd3d56b7065f222d6503e5a682fb42e760477a3a9353f",
      "v": 28,
      "creates": null,
      "raw": "0xf86e820de2850d58dacb3e8255f0948133cc8164c511ddc7c1c233c9628ca4dbce3e55880e696b1e85fc7e94801ca09125c4e6e2452a03cdafa2a00ab31830135bd2e2ea66bf15b9acd7b0b0d003f9a003fa3253c6b8199fb86fd3d56b7065f222d6503e5a682fb42e760477a3a9353f",
      "networkId": 0,
      "chainId": 0
    },
    {
      "hash": "0xffad2c2ece1c3a1fc157dad1063983b1a0f9487f9cdd6d70abb0520aaca5e82c",
      "blockHash": "0xe293db854801e330e331132f88f4ee339a49cff568174fce568264abc80a95ef",
      "blockNumber": 105309,
      "transactionIndex": 5,
      "confirmations": null,
      "from": "0xe6A7a1d47ff21B6321162AEA7C6CB457D5476Bca",
      "gasPrice": {
        "_hex": "0xd58dacb3e"
      },
      "gasLimit": {
        "_hex": "0x55f0"
      },
      "to": "0x1E9Cb3929516130db1ac4CB03a20cAe1CEE52F71",
      "value": {
        "_hex": "0xe69a4504d2a4090"
      },
      "nonce": 3555,
      "data": "0x",
      "r": "0x842a7c9866377d9cab5088280137594f57202c46f0ab907823ab8be6e956efda",
      "s": "0x35625ec51dd1e363c2c0ff9dff6d03ff7ad8ea97ce20b161e264700e6a18c0a6",
      "v": 27,
      "creates": null,
      "raw": "0xf86e820de3850d58dacb3e8255f0941e9cb3929516130db1ac4cb03a20cae1cee52f71880e69a4504d2a4090801ba0842a7c9866377d9cab5088280137594f57202c46f0ab907823ab8be6e956efdaa035625ec51dd1e363c2c0ff9dff6d03ff7ad8ea97ce20b161e264700e6a18c0a6",
      "networkId": 0,
      "chainId": 0
    },
    {
      "hash": "0x64732783d215e94d6a5f5335fbeab61856f6a2360a5ede459fd7313bdebbfa86",
      "blockHash": "0xe293db854801e330e331132f88f4ee339a49cff568174fce568264abc80a95ef",
      "blockNumber": 105309,
      "transactionIndex": 6,
      "confirmations": null,
      "from": "0xe6A7a1d47ff21B6321162AEA7C6CB457D5476Bca",
      "gasPrice": {
        "_hex": "0xd58dacb3e"
      },
      "gasLimit": {
        "_hex": "0x55f0"
      },
      "to": "0x468569500925D53e06Dd0993014aD166fD7Dd381",
      "value": {
        "_hex": "0xe8243fd067d8174"
      },
      "nonce": 3556,
      "data": "0x",
      "r": "0xdf2f49bbf5b465abbe03052eeba315416d91e87a5b15c498c145241291cadb7b",
      "s": "0x3131de793a16f8a9e4bae314224afcd1d25657aa5a82c488c8031a3b0aaac79c",
      "v": 28,
      "creates": null,
      "raw": "0xf86e820de4850d58dacb3e8255f094468569500925d53e06dd0993014ad166fd7dd381880e8243fd067d8174801ca0df2f49bbf5b465abbe03052eeba315416d91e87a5b15c498c145241291cadb7ba03131de793a16f8a9e4bae314224afcd1d25657aa5a82c488c8031a3b0aaac79c",
      "networkId": 0,
      "chainId": 0
    },
    {
      "hash": "0x87b1e14cc99dcb84a265c586e38ef1d8d30bbb52f0b6b28c8c430058a153c2a3",
      "blockHash": "0xe293db854801e330e331132f88f4ee339a49cff568174fce568264abc80a95ef",
      "blockNumber": 105309,
      "transactionIndex": 7,
      "confirmations": null,
      "from": "0xe6A7a1d47ff21B6321162AEA7C6CB457D5476Bca",
      "gasPrice": {
        "_hex": "0xd58dacb3e"
      },
      "gasLimit": {
        "_hex": "0x55f0"
      },
      "to": "0x83467Bcd87d0E6b641A9c2868e63Cb239adf1dc4",
      "value": {
        "_hex": "0xea24c222096e9e0"
      },
      "nonce": 3557,
      "data": "0x",
      "r": "0x3fd4f2c3e449bbbdf23725a346d6f64b631742b069647ee19f711e09609d54ab",
      "s": "0x068e2eec5ebb6deed3527c02222410f6a1238b563250b4fc73b57f8b7c166c42",
      "v": 28,
      "creates": null,
      "raw": "0xf86e820de5850d58dacb3e8255f09483467bcd87d0e6b641a9c2868e63cb239adf1dc4880ea24c222096e9e0801ca03fd4f2c3e449bbbdf23725a346d6f64b631742b069647ee19f711e09609d54aba0068e2eec5ebb6deed3527c02222410f6a1238b563250b4fc73b57f8b7c166c42",
      "networkId": 0,
      "chainId": 0
    },
    {
      "hash": "0xcf2a7a0d53dd87ae24af567677c3127c58e31daef994f3ce1ce6f8700c9586f8",
      "blockHash": "0xe293db854801e330e331132f88f4ee339a49cff568174fce568264abc80a95ef",
      "blockNumber": 105309,
      "transactionIndex": 8,
      "confirmations": null,
      "from": "0xe6A7a1d47ff21B6321162AEA7C6CB457D5476Bca",
      "gasPrice": {
        "_hex": "0xd58dacb3e"
      },
      "gasLimit": {
        "_hex": "0x55f0"
      },
      "to": "0x592CCFDc715B005B702E3a77d8644A0995f81080",
      "value": {
        "_hex": "0xf5e0d89a8dcb5d4"
      },
      "nonce": 3558,
      "data": "0x",
      "r": "0x708d57b5c68543465347409061cfee7652c50e6522295741ed4d699b48fdf8ff",
      "s": "0x56dba780e6808d01799a131b1479ce1958cfa21fe620a6cf451b7349a7a80e4f",
      "v": 27,
      "creates": null,
      "raw": "0xf86e820de6850d58dacb3e8255f094592ccfdc715b005b702e3a77d8644a0995f81080880f5e0d89a8dcb5d4801ba0708d57b5c68543465347409061cfee7652c50e6522295741ed4d699b48fdf8ffa056dba780e6808d01799a131b1479ce1958cfa21fe620a6cf451b7349a7a80e4f",
      "networkId": 0,
      "chainId": 0
    },
    {
      "hash": "0x6aa86aa3a9084f1343ce800b12b1e8ecb664374d18b7f9fc9e4b06c9e048bd11",
      "blockHash": "0xe293db854801e330e331132f88f4ee339a49cff568174fce568264abc80a95ef",
      "blockNumber": 105309,
      "transactionIndex": 9,
      "confirmations": null,
      "from": "0xe6A7a1d47ff21B6321162AEA7C6CB457D5476Bca",
      "gasPrice": {
        "_hex": "0xd58dacb3e"
      },
      "gasLimit": {
        "_hex": "0x55f0"
      },
      "to": "0x2AC36246B388F762Fdc3CA30E749A1494fDA99Ee",
      "value": {
        "_hex": "0xf6e720a4d5cc884"
      },
      "nonce": 3559,
      "data": "0x",
      "r": "0x66d7123463404e98a95753998f65baa8f03e5dbc74f6d686c11719ac8a34520d",
      "s": "0x6feb64eb3657e56f33cc558d24f6df5a22084eba767c2cd41e2afd498a67df9d",
      "v": 28,
      "creates": null,
      "raw": "0xf86e820de7850d58dacb3e8255f0942ac36246b388f762fdc3ca30e749a1494fda99ee880f6e720a4d5cc884801ca066d7123463404e98a95753998f65baa8f03e5dbc74f6d686c11719ac8a34520da06feb64eb3657e56f33cc558d24f6df5a22084eba767c2cd41e2afd498a67df9d",
      "networkId": 0,
      "chainId": 0
    },
    {
      "hash": "0x917f6a98cd8e4af367c63919ba39a92345f9db28553c95eaa2c0f21f9e1bc5db",
      "blockHash": "0xe293db854801e330e331132f88f4ee339a49cff568174fce568264abc80a95ef",
      "blockNumber": 105309,
      "transactionIndex": 10,
      "confirmations": null,
      "from": "0xe6A7a1d47ff21B6321162AEA7C6CB457D5476Bca",
      "gasPrice": {
        "_hex": "0xd58dacb3e"
      },
      "gasLimit": {
        "_hex": "0x55f0"
      },
      "to": "0x676f38C13B01f0489cc4aC94F883fdCDE708C0de",
      "value": {
        "_hex": "0xf9da7fddf772928"
      },
      "nonce": 3560,
      "data": "0x",
      "r": "0x5e761d17121829579776c35f7fd2e743b421021e22f8de8fa8f20f93700457af",
      "s": "0x34da8c392d5fc0b9781db3b0097af7c6bda10554ffede460f9c45d5178287473",
      "v": 28,
      "creates": null,
      "raw": "0xf86e820de8850d58dacb3e8255f094676f38c13b01f0489cc4ac94f883fdcde708c0de880f9da7fddf772928801ca05e761d17121829579776c35f7fd2e743b421021e22f8de8fa8f20f93700457afa034da8c392d5fc0b9781db3b0097af7c6bda10554ffede460f9c45d5178287473",
      "networkId": 0,
      "chainId": 0
    },
    {
      "hash": "0x73579f7e98299b995e2b6b5b9811e87bcd682ea80018af869b5fe41ff5f815b6",
      "blockHash": "0xe293db854801e330e331132f88f4ee339a49cff568174fce568264abc80a95ef",
      "blockNumber": 105309,
      "transactionIndex": 11,
      "confirmations": null,
      "from": "0xe6A7a1d47ff21B6321162AEA7C6CB457D5476Bca",
      "gasPrice": {
        "_hex": "0xd58dacb3e"
      },
      "gasLimit": {
        "_hex": "0x55f0"
      },
      "to": "0x338f82f23454993F348164343Ab42acd09c1F18F",
      "value": {
        "_hex": "0xfc1a49fe2ea719c"
      },
      "nonce": 3561,
      "data": "0x",
      "r": "0x0a6eb469ec41e0c23b03e38e8bcdfc0c8b15cf1e5606071b084b2e60c514f50c",
      "s": "0x6e4235c84b79775d033999a6b0867e6323a791ae45fe610af8359cc62856e431",
      "v": 27,
      "creates": null,
      "raw": "0xf86e820de9850d58dacb3e8255f094338f82f23454993f348164343ab42acd09c1f18f880fc1a49fe2ea719c801ba00a6eb469ec41e0c23b03e38e8bcdfc0c8b15cf1e5606071b084b2e60c514f50ca06e4235c84b79775d033999a6b0867e6323a791ae45fe610af8359cc62856e431",
      "networkId": 0,
      "chainId": 0
    },
    {
      "hash": "0xa2b6e06be26cf3b753f351c7bba047c33d28a19485b6fbe2c6617407dbf85a89",
      "blockHash": "0xe293db854801e330e331132f88f4ee339a49cff568174fce568264abc80a95ef",
      "blockNumber": 105309,
      "transactionIndex": 12,
      "confirmations": null,
      "from": "0xe6A7a1d47ff21B6321162AEA7C6CB457D5476Bca",
      "gasPrice": {
        "_hex": "0xd58dacb3e"
      },
      "gasLimit": {
        "_hex": "0x55f0"
      },
      "to": "0xc41fDDa36003210005a385c88A71007e62A81C7D",
      "value": {
        "_hex": "0xfc94321032477ec"
      },
      "nonce": 3562,
      "data": "0x",
      "r": "0x71914808762c276fe5e3ca894cb7ad3e943b6403887d2754fa7bc97b473bffc1",
      "s": "0x2fc817acca1aec50a13e3fd345ae8ad5b910c704e0eb45e3d8b7f41b99d5cc49",
      "v": 28,
      "creates": null,
      "raw": "0xf86e820dea850d58dacb3e8255f094c41fdda36003210005a385c88a71007e62a81c7d880fc94321032477ec801ca071914808762c276fe5e3ca894cb7ad3e943b6403887d2754fa7bc97b473bffc1a02fc817acca1aec50a13e3fd345ae8ad5b910c704e0eb45e3d8b7f41b99d5cc49",
      "networkId": 0,
      "chainId": 0
    },
    {
      "hash": "0xe57205ded0f58aaeb25c4f2a431adba0a54073df9bac9b855bba62094bde52a7",
      "blockHash": "0xe293db854801e330e331132f88f4ee339a49cff568174fce568264abc80a95ef",
      "blockNumber": 105309,
      "transactionIndex": 13,
      "confirmations": null,
      "from": "0xe6A7a1d47ff21B6321162AEA7C6CB457D5476Bca",
      "gasPrice": {
        "_hex": "0xd58dacb3e"
      },
      "gasLimit": {
        "_hex": "0x55f0"
      },
      "to": "0xB93e0e8caA1e3Ef697AC2D6193fDffe5Aba4d49A",
      "value": {
        "_hex": "0xff42a7eed6df228"
      },
      "nonce": 3563,
      "data": "0x",
      "r": "0xcd76f4e62526ef7886c2c84a2205e9b07c627c59d37c0acc11a06bb8f6e11dae",
      "s": "0x1ca3ec41ca65cd1f583cdc717ee5d00196992995f7b30372258a347d3c4c99a3",
      "v": 27,
      "creates": null,
      "raw": "0xf86e820deb850d58dacb3e8255f094b93e0e8caa1e3ef697ac2d6193fdffe5aba4d49a880ff42a7eed6df228801ba0cd76f4e62526ef7886c2c84a2205e9b07c627c59d37c0acc11a06bb8f6e11daea01ca3ec41ca65cd1f583cdc717ee5d00196992995f7b30372258a347d3c4c99a3",
      "networkId": 0,
      "chainId": 0
    },
    {
      "hash": "0xa7648a8480d995d96a646717df507679c8162b4932c77b13f549bae2a9812dbf",
      "blockHash": "0xe293db854801e330e331132f88f4ee339a49cff568174fce568264abc80a95ef",
      "blockNumber": 105309,
      "transactionIndex": 14,
      "confirmations": null,
      "from": "0xe6A7a1d47ff21B6321162AEA7C6CB457D5476Bca",
      "gasPrice": {
        "_hex": "0xd58dacb3e"
      },
      "gasLimit": {
        "_hex": "0x55f0"
      },
      "to": "0xdCe26B66eabfB4dE900E4944DcC2FA2d455021fc",
      "value": {
        "_hex": "0x10315274b9e71028"
      },
      "nonce": 3564,
      "data": "0x",
      "r": "0x7867498e4178dfa9d30ceb9820ad8ada2cbe18369c8b69934878d5dbfbaf40a9",
      "s": "0x5129717e77ad31d352cf5467ec576abe0760c8148cd751144d622c452da4798c",
      "v": 27,
      "creates": null,
      "raw": "0xf86e820dec850d58dacb3e8255f094dce26b66eabfb4de900e4944dcc2fa2d455021fc8810315274b9e71028801ba07867498e4178dfa9d30ceb9820ad8ada2cbe18369c8b69934878d5dbfbaf40a9a05129717e77ad31d352cf5467ec576abe0760c8148cd751144d622c452da4798c",
      "networkId": 0,
      "chainId": 0
    },
    {
      "hash": "0xec01c4a196e84288b2482df8dbb6e3bdcbcbae71da3eb3c98111d4e9aa739556",
      "blockHash": "0xe293db854801e330e331132f88f4ee339a49cff568174fce568264abc80a95ef",
      "blockNumber": 105309,
      "transactionIndex": 15,
      "confirmations": null,
      "from": "0xe6A7a1d47ff21B6321162AEA7C6CB457D5476Bca",
      "gasPrice": {
        "_hex": "0xd58dacb3e"
      },
      "gasLimit": {
        "_hex": "0x55f0"
      },
      "to": "0x62C0628EeA08203A030EE278217315fD43A5d57A",
      "value": {
        "_hex": "0x10353171be4159dc"
      },
      "nonce": 3565,
      "data": "0x",
      "r": "0x9e9680dc12669aebb92e5f6d885b19d99a05a410b74ea523f396e8df0a926b6d",
      "s": "0x28c8e279fe153b73b89e5b6ed405cfcdedbbe76ff240ba96b6286eaf70b43ef2",
      "v": 27,
      "creates": null,
      "raw": "0xf86e820ded850d58dacb3e8255f09462c0628eea08203a030ee278217315fd43a5d57a8810353171be4159dc801ba09e9680dc12669aebb92e5f6d885b19d99a05a410b74ea523f396e8df0a926b6da028c8e279fe153b73b89e5b6ed405cfcdedbbe76ff240ba96b6286eaf70b43ef2",
      "networkId": 0,
      "chainId": 0
    },
    {
      "hash": "0xd43ada05d0203d1de0df5c5ff8612664ef9cb7b77143b3463bb048dee47fbd7b",
      "blockHash": "0xe293db854801e330e331132f88f4ee339a49cff568174fce568264abc80a95ef",
      "blockNumber": 105309,
      "transactionIndex": 16,
      "confirmations": null,
      "from": "0xe6A7a1d47ff21B6321162AEA7C6CB457D5476Bca",
      "gasPrice": {
        "_hex": "0xd58dacb3e"
      },
      "gasLimit": {
        "_hex": "0x55f0"
      },
      "to": "0x0d271b81faBA0B8eD00aC8542D9896B69AAaA0E5",
      "value": {
        "_hex": "0x10412e8f43dd88d8"
      },
      "nonce": 3566,
      "data": "0x",
      "r": "0x7412e32f3d13c431bf4d48a1320dce8979449ab0a24f3a65ead4f6fea6a77ea2",
      "s": "0x492ddcaab9dd3b0c59858c97311d8ae2d31336862e203a5d2faa2763e1f2f230",
      "v": 28,
      "creates": null,
      "raw": "0xf86e820dee850d58dacb3e8255f0940d271b81faba0b8ed00ac8542d9896b69aaaa0e58810412e8f43dd88d8801ca07412e32f3d13c431bf4d48a1320dce8979449ab0a24f3a65ead4f6fea6a77ea2a0492ddcaab9dd3b0c59858c97311d8ae2d31336862e203a5d2faa2763e1f2f230",
      "networkId": 0,
      "chainId": 0
    },
    {
      "hash": "0x34c25c57a70aa733d99a378e1b9c45afe3c26187e1e6216a625fed6d55722956",
      "blockHash": "0xe293db854801e330e331132f88f4ee339a49cff568174fce568264abc80a95ef",
      "blockNumber": 105309,
      "transactionIndex": 17,
      "confirmations": null,
      "from": "0xe6A7a1d47ff21B6321162AEA7C6CB457D5476Bca",
      "gasPrice": {
        "_hex": "0xd58dacb3e"
      },
      "gasLimit": {
        "_hex": "0x55f0"
      },
      "to": "0xC2892E890641c57e54FF8608B2B192ed5dC19a0F",
      "value": {
        "_hex": "0x10455b70f4c5cdd8"
      },
      "nonce": 3567,
      "data": "0x",
      "r": "0x33d4fc7e763e55d03766bf398efb4d5818d54d9ff530e89182b136af3967c597",
      "s": "0x2b589cd7691a79aa3f756f9f0371a919a7fb759ea4f929a9a7eca807e0a3d34d",
      "v": 28,
      "creates": null,
      "raw": "0xf86e820def850d58dacb3e8255f094c2892e890641c57e54ff8608b2b192ed5dc19a0f8810455b70f4c5cdd8801ca033d4fc7e763e55d03766bf398efb4d5818d54d9ff530e89182b136af3967c597a02b589cd7691a79aa3f756f9f0371a919a7fb759ea4f929a9a7eca807e0a3d34d",
      "networkId": 0,
      "chainId": 0
    },
    {
      "hash": "0x72272b205b3cc90c5e659291675316dfd08836cb3cc6274fa504b093cba2cb7a",
      "blockHash": "0xe293db854801e330e331132f88f4ee339a49cff568174fce568264abc80a95ef",
      "blockNumber": 105309,
      "transactionIndex": 18,
      "confirmations": null,
      "from": "0xe6A7a1d47ff21B6321162AEA7C6CB457D5476Bca",
      "gasPrice": {
        "_hex": "0xd58dacb3e"
      },
      "gasLimit": {
        "_hex": "0x55f0"
      },
      "to": "0x5E4b2D8d8fc2332da92f225890520d41EdB0Ea50",
      "value": {
        "_hex": "0x104de1380ef80568"
      },
      "nonce": 3568,
      "data": "0x",
      "r": "0x4740746cba56f48c9248732f9cbcc4b4acf1b21f1e62ef6190f052e4ad53512a",
      "s": "0x2f2dd58c400a647f062ddc8de21ecbfed309d20b2b58a250d6d9f482d686dd7c",
      "v": 28,
      "creates": null,
      "raw": "0xf86e820df0850d58dacb3e8255f0945e4b2d8d8fc2332da92f225890520d41edb0ea5088104de1380ef80568801ca04740746cba56f48c9248732f9cbcc4b4acf1b21f1e62ef6190f052e4ad53512aa02f2dd58c400a647f062ddc8de21ecbfed309d20b2b58a250d6d9f482d686dd7c",
      "networkId": 0,
      "chainId": 0
    },
    {
      "hash": "0x552e444375b41911609990369438c2d4ac2d13f4c494b018cccb617255e337db",
      "blockHash": "0xe293db854801e330e331132f88f4ee339a49cff568174fce568264abc80a95ef",
      "blockNumber": 105309,
      "transactionIndex": 19,
      "confirmations": null,
      "from": "0xe6A7a1d47ff21B6321162AEA7C6CB457D5476Bca",
      "gasPrice": {
        "_hex": "0xd58dacb3e"
      },
      "gasLimit": {
        "_hex": "0x55f0"
      },
      "to": "0x45fe0E379195681d4C1002eA4Def348C19a320df",
      "value": {
        "_hex": "0x105f3d16fce63f10"
      },
      "nonce": 3569,
      "data": "0x",
      "r": "0xa0277656547e2bc0614bb2bf132bef79fb02204fbb57468a0aa801f9fd3125a3",
      "s": "0x512d367f83fea7f983ee7e5a035846a1acd8c3a4086b82b7ab041d59b9f8e0bd",
      "v": 27,
      "creates": null,
      "raw": "0xf86e820df1850d58dacb3e8255f09445fe0e379195681d4c1002ea4def348c19a320df88105f3d16fce63f10801ba0a0277656547e2bc0614bb2bf132bef79fb02204fbb57468a0aa801f9fd3125a3a0512d367f83fea7f983ee7e5a035846a1acd8c3a4086b82b7ab041d59b9f8e0bd",
      "networkId": 0,
      "chainId": 0
    },
    {
      "hash": "0xddeae13d3b61880c2e01cf0d8820c9a8e77037438dede07724caed1255e28240",
      "blockHash": "0xe293db854801e330e331132f88f4ee339a49cff568174fce568264abc80a95ef",
      "blockNumber": 105309,
      "transactionIndex": 20,
      "confirmations": null,
      "from": "0xe6A7a1d47ff21B6321162AEA7C6CB457D5476Bca",
      "gasPrice": {
        "_hex": "0xd58dacb3e"
      },
      "gasLimit": {
        "_hex": "0x55f0"
      },
      "to": "0xFACDD7f1B8a4bF2D881953e5751654D233024935",
      "value": {
        "_hex": "0x106ff37189f3da2c"
      },
      "nonce": 3570,
      "data": "0x",
      "r": "0x5d0daa01abc5f57a5838cd85f09afae186dc0d807db48d9d5928475e3ca84ae2",
      "s": "0x4a2f293284e29e0cf52dbd383b5f335add68dfb8ff30c0d57d78df400323e292",
      "v": 28,
      "creates": null,
      "raw": "0xf86e820df2850d58dacb3e8255f094facdd7f1b8a4bf2d881953e5751654d23302493588106ff37189f3da2c801ca05d0daa01abc5f57a5838cd85f09afae186dc0d807db48d9d5928475e3ca84ae2a04a2f293284e29e0cf52dbd383b5f335add68dfb8ff30c0d57d78df400323e292",
      "networkId": 0,
      "chainId": 0
    },
    {
      "hash": "0x9432d2f8ce54a92203fe1eb0fb8303daed8c41bd618843ffdbef28495fba667a",
      "blockHash": "0xe293db854801e330e331132f88f4ee339a49cff568174fce568264abc80a95ef",
      "blockNumber": 105309,
      "transactionIndex": 21,
      "confirmations": null,
      "from": "0xe6A7a1d47ff21B6321162AEA7C6CB457D5476Bca",
      "gasPrice": {
        "_hex": "0xd58dacb3e"
      },
      "gasLimit": {
        "_hex": "0x55f0"
      },
      "to": "0x9E5B4729c3266d77caE7F08C303b191Ac4d6B8CD",
      "value": {
        "_hex": "0x10776de308824124"
      },
      "nonce": 3571,
      "data": "0x",
      "r": "0xfe9a4161263b937ee03ccf1dd0483046e5f11f4115e516dde14b35d41e56e368",
      "s": "0x0a5b81937bd200a2aef7cab12d924e8f646e9669713362a9c062c810aee9c451",
      "v": 27,
      "creates": null,
      "raw": "0xf86e820df3850d58dacb3e8255f0949e5b4729c3266d77cae7f08c303b191ac4d6b8cd8810776de308824124801ba0fe9a4161263b937ee03ccf1dd0483046e5f11f4115e516dde14b35d41e56e368a00a5b81937bd200a2aef7cab12d924e8f646e9669713362a9c062c810aee9c451",
      "networkId": 0,
      "chainId": 0
    },
    {
      "hash": "0x7bf333ef5cd366ffcec4737769ee051fcd504c9e05905642a4c12c1244e1c862",
      "blockHash": "0xe293db854801e330e331132f88f4ee339a49cff568174fce568264abc80a95ef",
      "blockNumber": 105309,
      "transactionIndex": 22,
      "confirmations": null,
      "from": "0xe6A7a1d47ff21B6321162AEA7C6CB457D5476Bca",
      "gasPrice": {
        "_hex": "0xd58dacb3e"
      },
      "gasLimit": {
        "_hex": "0x55f0"
      },
      "to": "0x52524C3c4B039D2C330eD2D34973906987B21413",
      "value": {
        "_hex": "0x10993291aac2f8f4"
      },
      "nonce": 3572,
      "data": "0x",
      "r": "0x09e079766124c2b3d7d9515824db2fce93ed678b43350f11f1798cb24e6d72d3",
      "s": "0x4e032ad8decac9058abd16feb820cd51caa0f4be95fac4a49aae04a40d369a91",
      "v": 27,
      "creates": null,
      "raw": "0xf86e820df4850d58dacb3e8255f09452524c3c4b039d2c330ed2d34973906987b214138810993291aac2f8f4801ba009e079766124c2b3d7d9515824db2fce93ed678b43350f11f1798cb24e6d72d3a04e032ad8decac9058abd16feb820cd51caa0f4be95fac4a49aae04a40d369a91",
      "networkId": 0,
      "chainId": 0
    },
    {
      "hash": "0xfc206556a797cd57ea70ffc43edbaa35f3e2939dcd50eb032ef9c6a0f5892fd4",
      "blockHash": "0xe293db854801e330e331132f88f4ee339a49cff568174fce568264abc80a95ef",
      "blockNumber": 105309,
      "transactionIndex": 23,
      "confirmations": null,
      "from": "0xe6A7a1d47ff21B6321162AEA7C6CB457D5476Bca",
      "gasPrice": {
        "_hex": "0xd58dacb3e"
      },
      "gasLimit": {
        "_hex": "0x55f0"
      },
      "to": "0x08FE5A3C0709cF74d76cFd0e0Cd9d2A447eA263C",
      "value": {
        "_hex": "0x10e6fbd56f14f6f8"
      },
      "nonce": 3573,
      "data": "0x",
      "r": "0x9ffad92e908197ac4836e2625cd0cd0d6543f42f1dcfca75c88a4acf25ffb0f8",
      "s": "0x79177e2cdf3d34ee30331958f4e0b91dc9fb2a0cf8aa2df04a85e971c515fc81",
      "v": 28,
      "creates": null,
      "raw": "0xf86e820df5850d58dacb3e8255f09408fe5a3c0709cf74d76cfd0e0cd9d2a447ea263c8810e6fbd56f14f6f8801ca09ffad92e908197ac4836e2625cd0cd0d6543f42f1dcfca75c88a4acf25ffb0f8a079177e2cdf3d34ee30331958f4e0b91dc9fb2a0cf8aa2df04a85e971c515fc81",
      "networkId": 0,
      "chainId": 0
    },
    {
      "hash": "0xab89ec4c8d0447fab685fc45994148aa3dbfefbd6d61f23311dc6e01fb7665cd",
      "blockHash": "0xe293db854801e330e331132f88f4ee339a49cff568174fce568264abc80a95ef",
      "blockNumber": 105309,
      "transactionIndex": 24,
      "confirmations": null,
      "from": "0xe6A7a1d47ff21B6321162AEA7C6CB457D5476Bca",
      "gasPrice": {
        "_hex": "0xd58dacb3e"
      },
      "gasLimit": {
        "_hex": "0x55f0"
      },
      "to": "0xb62A0BF317fceb39ed916f0F9E60e623Ad309127",
      "value": {
        "_hex": "0x11c34355efb0342c"
      },
      "nonce": 3574,
      "data": "0x",
      "r": "0xdce04c7c2ff37ebb79d891205b0130f5267444816c67cd180e6e345f0639b30c",
      "s": "0x6d3b87026eec1fad65edcc5c27088cf931d28b379de1de2e4822197dd5be0a81",
      "v": 27,
      "creates": null,
      "raw": "0xf86e820df6850d58dacb3e8255f094b62a0bf317fceb39ed916f0f9e60e623ad3091278811c34355efb0342c801ba0dce04c7c2ff37ebb79d891205b0130f5267444816c67cd180e6e345f0639b30ca06d3b87026eec1fad65edcc5c27088cf931d28b379de1de2e4822197dd5be0a81",
      "networkId": 0,
      "chainId": 0
    },
    {
      "hash": "0x4aa864f8187bfd21431dfc5284b5eb8d30da6320b5f2bec1cc1dd6410fe86b0e",
      "blockHash": "0xe293db854801e330e331132f88f4ee339a49cff568174fce568264abc80a95ef",
      "blockNumber": 105309,
      "transactionIndex": 25,
      "confirmations": null,
      "from": "0xe6A7a1d47ff21B6321162AEA7C6CB457D5476Bca",
      "gasPrice": {
        "_hex": "0xd58dacb3e"
      },
      "gasLimit": {
        "_hex": "0x55f0"
      },
      "to": "0x9653c9859b18f8777Fe4eEc9a67c9F64F3D6F62a",
      "value": {
        "_hex": "0x11ca53007e4a3514"
      },
      "nonce": 3575,
      "data": "0x",
      "r": "0x0b2b6f80e03e229fbf5e393fdefc7116a4c2b0a70ba5e27ec571e77a9788138a",
      "s": "0x1e8c6e2a08d9af623b69d161248d24da56fc96fb81b07049604093d094bd0a62",
      "v": 28,
      "creates": null,
      "raw": "0xf86e820df7850d58dacb3e8255f0949653c9859b18f8777fe4eec9a67c9f64f3d6f62a8811ca53007e4a3514801ca00b2b6f80e03e229fbf5e393fdefc7116a4c2b0a70ba5e27ec571e77a9788138aa01e8c6e2a08d9af623b69d161248d24da56fc96fb81b07049604093d094bd0a62",
      "networkId": 0,
      "chainId": 0
    }
  ]
}