{
  "hash": "0x3cd245ed4a7a759ffde31cc0545799d78c0b0381bb3dd5128874924a44095a48",
  "parentHash": "0x423a78b424191727335853b41df7fa32c4d99d42181b4b93df0f6ac2975f4039",
  "number": 94750,
  "timestamp": 1439713632,
  "nonce": "0xf9eb4ffaa21c5964",
  "difficulty": 3483127139374,
  "gasLimit": {
    "_hex": "0x2fefd8"
  },
  "gasUsed": {
    "_hex": "0x5208"
  },
  "miner": "0xe6A7a1d47ff21B6321162AEA7C6CB457D5476Bca",
  "extraData": "0x476574682f76312e302e312d38326566323666362f6c696e75782f676f312e34",
  "transactions": [
    {
      "hash": "0x8823fc1cf3b5a03628c8e26a9fa4135e175b73461f04b0a2bd552388f1274fc3",
      "blockHash": "0x3cd245ed4a7a759ffde31cc0545799d78c0b0381bb3dd5128874924a44095a48",
      "blockNumber": 94750,
      "transactionIndex": 0,
      "confirmations": null,
      "from": "0xa80b38CE85260252BDb8BE027868c1A32a2201a6",
      "gasPrice": {
        "_hex": "0xd5b022bc2"
      },
      "gasLimit": {
        "_hex": "0x5208"
      },
      "to": "0x32Be343B94f860124dC4fEe278FDCBD38C102D88",
      "value": {
        "_hex": "0xd8d6e23e0009b0000"
      },
      "nonce": 3,
      "data": "0x",
      "r": "0xefb2d925295721510e9759dd25079fba3902a0a3f12c20b9b4851e6e188b47f0",
      "s": "0x564720b0cd3d1d8cdaf9e422e92badcec95419678103e2ad6e52753a3841054b",
      "v": 28,
      "creates": null,
      "raw": "0xf86d03850d5b022bc28252089432be343b94f860124dc4fee278fdcbd38c102d88890d8d6e23e0009b0000801ca0efb2d925295721510e9759dd25079fba3902a0a3f12c20b9b4851e6e188b47f0a0564720b0cd3d1d8cdaf9e422e92badcec95419678103e2ad6e52753a3841054b",
      "networkId": 0,
      "chainId": 0
    }
  ]
}