{
  "hash": "0xd47d5d4b0e0fc49d47a6a0138b5a91813b2b3ab3ba01cfe12fb0967b60d261f0",
  "parentHash": "0x6af06697d0e42f5d706e1c54936338e9f0cd9d9ac01275a22c4ca7e46844656f",
  "number": 60168,
  "timestamp": 1439150535,
  "nonce": "0x08ef2a4b6eea28fd",
  "difficulty": 1738172344436,
  "gasLimit": {
    "_hex": "0x2fefd8"
  },
  "gasUsed": {
    "_hex": "0x5208"
  },
  "miner": "0xf927a40C8B7F6E07c5af7FA2155B4864a4112B13",
  "extraData": "0x476574682f76312e302e302f6c696e75782f676f312e342e32",
  "transactions": [
    {
      "hash": "0x8492e59876020ff4a18da306b27aaae2d8323cbf8ba31d3086d7de3d60338468",
      "blockHash": "0xd47d5d4b0e0fc49d47a6a0138b5a91813b2b3ab3ba01cfe12fb0967b60d261f0",
      "blockNumber": 60168,
      "transactionIndex": 0,
      "confirmations": null,
      "from": "0x723E32E60829d5d032A8aD7af228b3582CD5163c",
      "gasPrice": {
        "_hex": "0xdee0c892c"
      },
      "gasLimit": {
        "_hex": "0x5208"
      },
      "to": "0x32Be343B94f860124dC4fEe278FDCBD38C102D88",
      "value": {
        "_hex": "0xdca704079112400"
      },
      "nonce": 0,
      "data": "0x",
      "r": "0x9644b876abd378a335696362a14db3ec6256b063e4bb9b0f5e1467b887f8ad2c",
      "s": "0x17931ffca9b55a931e8e49b1b292ab9edbe1bdc0cafe01f17b7def1a2586299f",
      "v": 28,
      "creates": null,
      "raw": "0xf86c80850dee0c892c8252089432be343b94f860124dc4fee278fdcbd38c102d88880dca704079112400801ca09644b876abd378a335696362a14db3ec6256b063e4bb9b0f5e1467b887f8ad2ca017931ffca9b55a931e8e49b1b292ab9edbe1bdc0cafe01f17b7def1a2586299f",
      "networkId": 0,
      "chainId": 0
    }
  ]
}