{
  "hash": "0x2454614e6bf1051368b21734bf69ba13894277063000a41e2a978748f37e3752",
  "parentHash": "0x50e15f23715f5c28614a3b5aa75249fb3b4b2f79e3f0a9f005fce7286ff84645",
  "number": 97378,
  "timestamp": 1439755099,
  "nonce": "0xe4bdfd48e508b0b8",
  "difficulty": 3813081028306,
  "gasLimit": {
    "_hex": "0x2fefd8"
  },
  "gasUsed": {
    "_hex": "0x5208"
  },
  "miner": "0x007f7f58D3eb5b7510A301eCC749FC1fCDDBE14D",
  "extraData": "0x476574682f76312e302e312f77696e646f77732f676f312e342e32",
  "transactions": [
    {
      "hash": "0x45a3f4e6c445b10cf79d335b764c6425d118533cc37e50db1131694e50cb43e3",
      "blockHash": "0x2454614e6bf1051368b21734bf69ba13894277063000a41e2a978748f37e3752",
      "blockNumber": 97378,
      "transactionIndex": 0,
      "confirmations": null,
      "from": "0x2910543Af39abA0Cd09dBb2D50200b3E800A63D2",
      "gasPrice": {
        "_hex": "0xcdbf29f41"
      },
      "gasLimit": {
        "_hex": "0x5208"
      },
      "to": "0x7d3e543308c8E6E9F06536ee1A9E34944d28bcdA",
      "value": {
        "_hex": "0x13d6641b43bc0000"
      },
      "nonce": 921,
      "data": "0x",
      "r": "0xe9a6ff1feb15b116bc70b48f5813bf5f4d889b5175e11fedd694765e8d27fcbb",
      "s": "0x2a3437a2489fccb0f4c54b45e66e2b2042f8ce4be7d22c0feda1053704fc063e",
      "v": 27,
      "creates": null,
      "raw": "0xf86e820399850cdbf29f41825208947d3e543308c8e6e9f06536ee1a9e34944d28bcda8813d6641b43bc0000801ba0e9a6ff1feb15b116bc70b48f5813bf5f4d889b5175e11fedd694765e8d27fcbba02a3437a2489fccb0f4c54b45e66e2b2042f8ce4be7d22c0feda1053704fc063e",
      "networkId": 0,
      "chainId": 0
    }
  ]
}