{
  "hash": "0x91bc818ed7ca6131c3504a904ab0eb1954d94fc8f949780f06499f6dd557d551",
  "parentHash": "0xcbb647390fedb84ccf5e03176ed916cfa0c5a6c3503a0ffb1fa73e968dd07782",
  "number": 101759,
  "timestamp": 1439827664,
  "nonce": "0x771c9e728bc4c9a2",
  "difficulty": 3880568575257,
  "gasLimit": {
    "_hex": "0x2fefd8"
  },
  "gasUsed": {
    "_hex": "0xf61c"
  },
  "miner": "0xe6A7a1d47ff21B6321162AEA7C6CB457D5476Bca",
  "extraData": "0x476574682f76312e302e312d38326566323666362f6c696e75782f676f312e34",
  "transactions": [
    {
      "hash": "0x2910fd99a0f2670623268d9978938cdca1efe8bc71f7350270eaf75db897435e",
      "blockHash": "0x91bc818ed7ca6131c3504a904ab0eb1954d94fc8f949780f06499f6dd557d551",
      "blockNumber": 101759,
      "transactionIndex": 0,
      "confirmations": null,
      "from": "0x007f7f58D3eb5b7510A301eCC749FC1fCDDBE14D",
      "gasPrice": {
        "_hex": "0xe0cfe7246"
      },
      "gasLimit": {
        "_hex": "0x15f90"
      },
      "to": "0xb1abce2918E21ddb93AA452731a12672A3d9F75a",
      "value": {
        "_hex": "0x4563918244f40000"
      },
      "nonce": 193,
      "data": "0x",
      "r": "0x6f20b994d7ac3f86310e530a4a7bbde1420dffa5245bbe4b51475be55c261d15",
      "s": "0x4538b324d464ef366f0b0195afba45355732f6d96d30da93ff0b162e9f4a6fba",
      "v": 27,
      "creates": null,
      "raw": "0xf86e81c1850e0cfe724683015f9094b1abce2918e21ddb93aa452731a12672a3d9f75a884563918244f40000801ba06f20b994d7ac3f86310e530a4a7bbde1420dffa5245bbe4b51475be55c261d15a04538b324d464ef366f0b0195afba45355732f6d96d30da93ff0b162e9f4a6fba",
      "networkId": 0,
      "chainId": 0
    },
    {
      "hash": "0xe8b5c6209f067f13250ab22634a15446e2da91a1c9e951cf378f567b0f308276",
      "blockHash": "0x91bc818ed7ca6131c3504a904ab0eb1954d94fc8f949780f06499f6dd557d551",
      "blockNumber": 101759,
      "transactionIndex": 1,
      "confirmations": null,
      "from": "0x95a204DD5D814E40f300bA0DfB1194286F03e28A",
      "gasPrice": {
        "_hex": "0xde83afe97"
      },
      "gasLimit": {
        "_hex": "0x7530"
      },
      "to": "0xe7B79D2Fd13B6F1aEfF4274e8a17364219e00D01",
      "value": {
        "_hex": "0xd003dfda0713e0000"
      },
      "nonce": 7,
      "data": "0x00",
      "r": "0x723b45c61790bf97022e873c1f5e016a17a8d7761be36dcb3ac563605c97578d",
      "s": "0x534094c1eda1947b5bd91e3a97ecc4b551677b3c34a302b273b9a0cb768bbc40",
      "v": 27,
      "creates": null,
      "raw": "0xf86d07850de83afe9782753094e7b79d2fd13b6f1aeff4274e8a17364219e00d01890d003dfda0713e0000001ba0723b45c61790bf97022e873c1f5e016a17a8d7761be36dcb3ac563605c97578da0534094c1eda1947b5bd91e3a97ecc4b551677b3c34a302b273b9a0cb768bbc40",
      "networkId": 0,
      "chainId": 0
    },
    {
      "hash": "0xa60bb7df0f62c408118d2e18f8c744795a82fb207015c22ddce6602b5eacefed",
      "blockHash": "0x91bc818ed7ca6131c3504a904ab0eb1954d94fc8f949780f06499f6dd557d551",
      "blockNumber": 101759,
      "transactionIndex": 2,
      "confirmations": null,
      "from": "0x32Be343B94f860124dC4fEe278FDCBD38C102D88",
      "gasPrice": {
        "_hex": "0xcf5926823"
      },
      "gasLimit": {
        "_hex": "0x5208"
      },
      "to": "0x7BBab06B74112eA1c7550FA97c6efAdA136eC531",
      "value": {
        "_hex": "0x719d9f6fc386b0000"
      },
      "nonce": 1085,
      "data": "0x",
      "r": "0x19a9851a7f8cd0ded71d4621d16afe76a54476e27996a8636ee2d8e40c06938b",
      "s": "0x0135a1c130df83fca629eb2d4d18a9bde82fa7bec8bf1f8f8f0b1713e0dcadf9",
      "v": 27,
      "creates": null,
      "raw": "0xf86f82043d850cf5926823825208947bbab06b74112ea1c7550fa97c6efada136ec531890719d9f6fc386b0000801ba019a9851a7f8cd0ded71d4621d16afe76a54476e27996a8636ee2d8e40c06938ba00135a1c130df83fca629eb2d4d18a9bde82fa7bec8bf1f8f8f0b1713e0dcadf9",
      "networkId": 0,
      "chainId": 0
    }
  ]
}