{
  "hash": "0x241420a0458d1aa5ab39447545dfeaeea181689dfae3b8e31436adf6da0accf3",
  "parentHash": "0x89e82d6220cc6055b32a824fcce00794c8f57754f0a4b6dc04bd0d71d57d3412",
  "number": 93773,
  "timestamp": 1439697471,
  "nonce": "0x0b5db2527d33d2ca",
  "difficulty": 3427851494649,
  "gasLimit": {
    "_hex": "0x2fefd8"
  },
  "gasUsed": {
    "_hex": "0xa678"
  },
  "miner": "0x21D46e5e1C37D3fa2157A393Fa444EafE63646Fa",
  "extraData": "0x",
  "transactions": [
    {
      "hash": "0x0fd885128ac7c1044e0ecccd799265f529f9c97804c790e3933086cd6dae62c7",
      "blockHash": "0x241420a0458d1aa5ab39447545dfeaeea181689dfae3b8e31436adf6da0accf3",
      "blockNumber": 93773,
      "transactionIndex": 0,
      "confirmations": null,
      "from": "0x6C63Fc85029A2654D79b2Bea4dE349e4524577C5",
      "gasPrice": {
        "_hex": "0x110c8f7d8de"
      },
      "gasLimit": {
        "_hex": "0xc350"
      },
      "to": "0x2910543Af39abA0Cd09dBb2D50200b3E800A63D2",
      "value": {
        "_hex": "0x8ac7230489e800000"
      },
      "nonce": 0,
      "data": "0x454e4a3652384b4438",
      "r": "0xf981ab75c9456fba81502b6c55b65d10837588f456535eab8045b1b87805a9e7",
      "s": "0x89f919dc35d9872f92dbca9cfb8270caca9c9d5b7c4d06da665d2712cd8d038d",
      "v": 28,
      "creates": null,
      "raw": "0xf87780860110c8f7d8de82c350942910543af39aba0cd09dbb2d50200b3e800a63d28908ac7230489e80000089454e4a3652384b44381ca0f981ab75c9456fba81502b6c55b65d10837588f456535eab8045b1b87805a9e7a089f919dc35d9872f92dbca9cfb8270caca9c9d5b7c4d06da665d2712cd8d038d",
      "networkId": 0,
      "chainId": 0
    },
    {
      "hash": "0xf06ad60f1dc98916bed5ad523f600ff9e4756fe554418753617c0de3e85c5111",
      "blockHash": "0x241420a0458d1aa5ab39447545dfeaeea181689dfae3b8e31436adf6da0accf3",
      "blockNumber": 93773,
      "transactionIndex": 1,
      "confirmations": null,
      "from": "0x8375eA550366a24550ec93283600485F4Ba8CFE5",
      "gasPrice": {
        "_hex": "0xd05022567"
      },
      "gasLimit": {
        "_hex": "0x7530"
      },
      "to": "0xb9836ec1f42Bd48331bceaedb74a6Bcdc22832bD",
      "value": {
        "_hex": "0xaa87bee538000"
      },
      "nonce": 10,
      "data": "0x00",
      "r": "0x28ee82023f33c2d6a54dc7ac4f2720e7e78ff3e2ee239881da9fd8543f999c1f",
      "s": "0xbc7437be0871d458d1e75f9da30ffb25c00548bc162273ec51035af4dbe23962",
      "v": 27,
      "creates": null,
      "raw": "0xf86b0a850d0502256782753094b9836ec1f42bd48331bceaedb74a6bcdc22832bd870aa87bee538000001ba028ee82023f33c2d6a54dc7ac4f2720e7e78ff3e2ee239881da9fd8543f999c1fa0bc7437be0871d458d1e75f9da30ffb25c00548bc162273ec51035af4dbe23962",
      "networkId": 0,
      "chainId": 0
    }
  ]
}