{
  "hash": "0x905795f01571bbdcbd4d845d203be39baf1214a2d008243ebfa8b72882d0d117",
  "parentHash": "0xb442a990887b6f59191699441e8ed48ad54e1ae60debacfe226f043991fda07a",
  "number": 94179,
  "timestamp": 1439703880,
  "nonce": "0xd011247f649fffd9",
  "difficulty": 3474870303620,
  "gasLimit": {
    "_hex": "0x2fefd8"
  },
  "gasUsed": {
    "_hex": "0xa410"
  },
  "miner": "0xaA35779Ef4dfBEd0B3D6F46F5f11cb86261B17A5",
  "extraData": "0x476574682f76312e302e312f77696e646f77732f676f312e342e32",
  "transactions": [
    {
      "hash": "0xf4b3e09960b8d4a7ff6e88f81e64a0210830d6679073db5ab10c38510a14517e",
      "blockHash": "0x905795f01571bbdcbd4d845d203be39baf1214a2d008243ebfa8b72882d0d117",
      "blockNumber": 94179,
      "transactionIndex": 0,
      "confirmations": null,
      "from": "0x32Be343B94f860124dC4fEe278FDCBD38C102D88",
      "gasPrice": {
        "_hex": "0xdeabc4686"
      },
      "gasLimit": {
        "_hex": "0x5208"
      },
      "to": "0x54A6ae0918896330899e0999038D20D94031c6fe",
      "value": {
        "_hex": "0x56ba3d73af34f0000"
      },
      "nonce": 946,
      "data": "0x",
      "r": "0x1e361464108bc37fcf9cde2b98190afffa65c6a07e11f6604bb4b110689941e4",
      "s": "0x26ee6e6336d84cede6f3e3782f0313dd8e10df4ff392a5f3523fbcb3cb52c023",
      "v": 28,
      "creates": null,
      "raw": "0xf86f8203b2850deabc46868252089454a6ae0918896330899e0999038d20d94031c6fe89056ba3d73af34f0000801ca01e361464108bc37fcf9cde2b98190afffa65c6a07e11f6604bb4b110689941e4a026ee6e6336d84cede6f3e3782f0313dd8e10df4ff392a5f3523fbcb3cb52c023",
      "networkId": 0,
      "chainId": 0
    },
    {
      "hash": "0xcbdf2e2453ef90923654fb36375f367a2e9a70c1c7be249567575270c87da468",
      "blockHash": "0x905795f01571bbdcbd4d845d203be39baf1214a2d008243ebfa8b72882d0d117",
      "blockNumber": 94179,
      "transactionIndex": 1,
      "confirmations": null,
      "from": "0x120A270bbC009644e35F0bB6ab13f95b8199c4ad",
      "gasPrice": {
        "_hex": "0xd0c4c6168"
      },
      "gasLimit": {
        "_hex": "0x3d090"
      },
      "to": "0xbf8FB42460312d1EE4AF5A72C7c4c32f112DA644",
      "value": {
        "_hex": "0x1fdef3d4e02a0c400"
      },
      "nonce": 575,
      "data": "0x",
      "r": "0x4771a5186391520399fa5cc3ec2a33be69b631dc246fea256267184772ac0e55",
      "s": "0x4472646586f0d1dca83330f928a732809ff775c0e4836028af5a4478f0c29e5f",
      "v": 27,
      "creates": null,
      "raw": "0xf87082023f850d0c4c61688303d09094bf8fb42460312d1ee4af5a72c7c4c32f112da6448901fdef3d4e02a0c400801ba04771a5186391520399fa5cc3ec2a33be69b631dc246fea256267184772ac0e55a04472646586f0d1dca83330f928a732809ff775c0e4836028af5a4478f0c29e5f",
      "networkId": 0,
      "chainId": 0
    }
  ]
}