{
  "hash": "0x794d8af4e74f759e4e1abfc4e7d56e0e37ab20d7614967f3ec8e3281cc4d748a",
  "parentHash": "0x87319913aec1e0a658e904a57bfec60c6e2cba1efc9d94bd81aedfb04dfd329c",
  "number": 65808,
  "timestamp": 1439243152,
  "nonce": "0xcb71ed31a6be6b4c",
  "difficulty": 1951059953168,
  "gasLimit": {
    "_hex": "0x2fe3de"
  },
  "gasUsed": {
    "_hex": "0x5208"
  },
  "miner": "0x9Fa9952255B2b06639A04D63804d4BdFFf6E2d7e",
  "extraData": "0x476574682f76312e302e302f77696e646f77732f676f312e342e32",
  "transactions": [
    {
      "hash": "0x8322cf3d8078bd6f4c1dada7f347e3a35d5047cd322f7741d7074c0083672385",
      "blockHash": "0x794d8af4e74f759e4e1abfc4e7d56e0e37ab20d7614967f3ec8e3281cc4d748a",
      "blockNumber": 65808,
      "transactionIndex": 0,
      "confirmations": null,
      "from": "0xD9E6086071980fE3484b6BaABA07A10b47B046A6",
      "gasPrice": {
        "_hex": "0x117ccbf955a"
      },
      "gasLimit": {
        "_hex": "0x15f90"
      },
      "to": "0x9671195D09EDbE08bf945d66f637e59B5357afa2",
      "value": {
        "_hex": "0x16345785d8a0000"
      },
      "nonce": 11,
      "data": "0x",
      "r": "0x4300434b2549fe6d333a2aaae8974f64b695b54d5533b06f741e4b37edd6ced4",
      "s": "0x02a213f23003668eb840b5d190fcccd7dbe6021509b0c4e20c35880c4baf5c9c",
      "v": 27,
      "creates": null,
      "raw": "0xf86e0b860117ccbf955a83015f90949671195d09edbe08bf945d66f637e59b5357afa288016345785d8a0000801ba04300434b2549fe6d333a2aaae8974f64b695b54d5533b06f741e4b37edd6ced4a002a213f23003668eb840b5d190fcccd7dbe6021509b0c4e20c35880c4baf5c9c",
      "networkId": 0,
      "chainId": 0
    }
  ]
}