{
  "hash": "0x911fa0ec3024a529912dadd2cd03f4a43ca6686515030b8f2497062fabfa9c90",
  "parentHash": "0x1e68689829d6046b9114db8db4cc29268aef230772fd5c5c73b3cc5b769648f9",
  "number": 107175,
  "timestamp": 1439917563,
  "nonce": "0x17baa0b45f241e3c",
  "difficulty": 4450566398945,
  "gasLimit": {
    "_hex": "0x2fefd8"
  },
  "gasUsed": {
    "_hex": "0x5208"
  },
  "miner": "0xe6A7a1d47ff21B6321162AEA7C6CB457D5476Bca",
  "extraData": "0x476574682f76312e302e312d38326566323666362f6c696e75782f676f312e34",
  "transactions": [
    {
      "hash": "0xdfb71c5e7f370a5ba8a2e169581a25c5b44b698a958a264dafe27f575097dd79",
      "blockHash": "0x911fa0ec3024a529912dadd2cd03f4a43ca6686515030b8f2497062fabfa9c90",
      "blockNumber": 107175,
      "transactionIndex": 0,
      "confirmations": null,
      "from": "0xAf5e1c1F54aaC6dBcD5cfDD067Ef4208279280D1",
      "gasPrice": {
        "_hex": "0xcbe1d8a68"
      },
      "gasLimit": {
        "_hex": "0x15f90"
      },
      "to": "0x8B87d514623d1127f9b56DB60FA1498C1C4bF72e",
      "value": {
        "_hex": "0xde0b6b3a7640000"
      },
      "nonce": 2,
      "data": "0x",
      "r": "0x3fdbac91ba2017747762f68a43c44811ac2b574fcb49a736493f5ee3b7a9907c",
      "s": "0x180fdf5b73675ada71c86a0d7446e2e1be64187335ca4de959ce3fce82225b9d",
      "v": 28,
      "creates": null,
      "raw": "0xf86d02850cbe1d8a6883015f90948b87d514623d1127f9b56db60fa1498c1c4bf72e880de0b6b3a7640000801ca03fdbac91ba2017747762f68a43c44811ac2b574fcb49a736493f5ee3b7a9907ca0180fdf5b73675ada71c86a0d7446e2e1be64187335ca4de959ce3fce82225b9d",
      "networkId": 0,
      "chainId": 0
    }
  ]
}