{
  "hash": "0x523400708a303f0d45c4aff1e32e4523fe919106f30c3e38b02be2aa501c88a5",
  "parentHash": "0x0b432d5a15d5d05ba1060d0c5a482dbccacc1ceedf44562e369a00ebd2ff1c9e",
  "number": 73752,
  "timestamp": 1439374459,
  "nonce": "0x6bb86834ce283c39",
  "difficulty": 2221727790679,
  "gasLimit": {
    "_hex": "0x2fefd8"
  },
  "gasUsed": {
    "_hex": "0x5208"
  },
  "miner": "0xbb7B8287f3F0a933474a79eAe42CBCa977791171",
  "extraData": "0x476574682f4c5649562f76312e302e312f6c696e75782f676f312e342e32",
  "transactions": [
    {
      "hash": "0x49bfcb41b7821a66d439f71989b141e62d829b1febffa8a144f2510abc17ab81",
      "blockHash": "0x523400708a303f0d45c4aff1e32e4523fe919106f30c3e38b02be2aa501c88a5",
      "blockNumber": 73752,
      "transactionIndex": 0,
      "confirmations": null,
      "from": "0x8B454d830feF179e66206840F8F3D1d83bC32b17",
      "gasPrice": {
        "_hex": "0xd4fba4f22"
      },
      "gasLimit": {
        "_hex": "0x15f90"
      },
      "to": "0x1543667B9bad3e41865C3233E1764d8dda8E1F3D",
      "value": {
        "_hex": "0x657b3801b80b40000"
      },
      "nonce": 10,
      "data": "0x",
      "r": "0x6c88a0863b9fc66283bc2df5688e8170fd81405091fdc3c7da766906ffbe86d1",
      "s": "0x2a83ebe0578668053524486adebac061b3151d1c6d8e2d09807a2638905c522c",
      "v": 28,
      "creates": null,
      "raw": "0xf86e0a850d4fba4f2283015f90941543667b9bad3e41865c3233e1764d8dda8e1f3d890657b3801b80b40000801ca06c88a0863b9fc66283bc2df5688e8170fd81405091fdc3c7da766906ffbe86d1a02a83ebe0578668053524486adebac061b3151d1c6d8e2d09807a2638905c522c",
      "networkId": 0,
      "chainId": 0
    }
  ]
}