{
  "hash": "0x0da92a72e5d3f6ea4b8b093a57906f15362a8d51d0c6d12ab19599dcc77b5d37",
  "parentHash": "0xe62f1148ced648b298aa5398b86a909b054c6b3c87b64710aebb1f4194c46047",
  "number": 84380,
  "timestamp": 1439548894,
  "nonce": "0x38801d55f3f015b6",
  "difficulty": 2548971913562,
  "gasLimit": {
    "_hex": "0x2fefd8"
  },
  "gasUsed": {
    "_hex": "0x546c"
  },
  "miner": "0x1217627fe41A00f0b828317F43E6d58F47dBfc43",
  "extraData": "0x476574682f76312e302e302d66313265303136312f6c696e75782f676f312e34",
  "transactions": [
    {
      "hash": "0x4e6e62142b88334fe5ca963bcf861f6bf1f9ad7c89239ab1fc90da5773ed6078",
      "blockHash": "0x0da92a72e5d3f6ea4b8b093a57906f15362a8d51d0c6d12ab19599dcc77b5d37",
      "blockNumber": 84380,
      "transactionIndex": 0,
      "confirmations": null,
      "from": "0x6651736Fb59B91fEE9c93aa0BD6eA2F7b2506180",
      "gasPrice": {
        "_hex": "0x110c8f7d8de"
      },
      "gasLimit": {
        "_hex": "0xc350"
      },
      "to": "0x2910543Af39abA0Cd09dBb2D50200b3E800A63D2",
      "value": {
        "_hex": "0x4563918244f400000"
      },
      "nonce": 2,
      "data": "0x454e343041304b5530",
      "r": "0x9761e99c648ef15e410c57207d0f10e1cca57bf964fd7501e984f2e0c0557efb",
      "s": "0xc97575334222fd22da2adfe550026cafcbe8085d214261e64c3fa51c04a438e7",
      "v": 28,
      "creates": null,
      "raw": "0xf87702860110c8f7d8de82c350942910543af39aba0cd09dbb2d50200b3e800a63d28904563918244f40000089454e343041304b55301ca09761e99c648ef15e410c57207d0f10e1cca57bf964fd7501e984f2e0c0557efba0c97575334222fd22da2adfe550026cafcbe8085d214261e64c3fa51c04a438e7",
      "networkId": 0,
      "chainId": 0
    }
  ]
}