{
  "hash": "0xd78a7824d38d8641f6261d21f8e26dc62685a3aae1eaddd8658cbb9a8600606e",
  "parentHash": "0x77b4964ba88072af003dd89b7c9e5f419008eb01e059fd679ea36e8128e4e09c",
  "number": 50785,
  "timestamp": 1438994506,
  "nonce": "0xc6365cab55e2ef2c",
  "difficulty": 1548448554930,
  "gasLimit": {
    "_hex": "0x7802b"
  },
  "gasUsed": {
    "_hex": "0x5208"
  },
  "miner": "0xf927a40C8B7F6E07c5af7FA2155B4864a4112B13",
  "extraData": "0x476574682f76312e302e312f6c696e75782f676f312e342e32",
  "transactions": [
    {
      "hash": "0xcd9a6d18bfa4fced4ee191af9090336994b850db1c2e2892a36842e894aff4f0",
      "blockHash": "0xd78a7824d38d8641f6261d21f8e26dc62685a3aae1eaddd8658cbb9a8600606e",
      "blockNumber": 50785,
      "transactionIndex": 0,
      "confirmations": null,
      "from": "0xC939D6e2515872B4A5bed252f1d82A4dCE4A1507",
      "gasPrice": {
        "_hex": "0xfdfda21cd1"
      },
      "gasLimit": {
        "_hex": "0x15f90"
      },
      "to": "0x3aAE6435730f753ecF6214996ae2a55A1503F97c",
      "value": {
        "_hex": "0x56bc75e2d63100000"
      },
      "nonce": 4,
      "data": "0x",
      "r": "0x51be1a54d484c5af34195287c7aab9f18c88dbfecf6cbff09c89529146214fa2",
      "s": "0x312b918c864817e5d13cbe245d061578703a98e0e3c8d634aadf1039158aecbd",
      "v": 28,
      "creates": null,
      "raw": "0xf86e0485fdfda21cd183015f90943aae6435730f753ecf6214996ae2a55a1503f97c89056bc75e2d63100000801ca051be1a54d484c5af34195287c7aab9f18c88dbfecf6cbff09c89529146214fa2a0312b918c864817e5d13cbe245d061578703a98e0e3c8d634aadf1039158aecbd",
      "networkId": 0,
      "chainId": 0
    }
  ]
}