{
  "hash": "0x5b7f1e21da24cc61b0fd899b08028cc229ebe1e813a56796f97bb0ac44239c97",
  "parentHash": "0x21c365e5bae29514178205c09218dccfcd976adcd4cc27522250cdced4f0803e",
  "number": 103323,
  "timestamp": 1439851338,
  "nonce": "0x962173a5f1b3076b",
  "difficulty": 4174678848644,
  "gasLimit": {
    "_hex": "0x2fefd8"
  },
  "gasUsed": {
    "_hex": "0x5208"
  },
  "miner": "0x580992B51e3925e23280EfB93d3047C82f17E038",
  "extraData": "0x476574682f76312e302e312f6c696e75782f676f312e342e32",
  "transactions": [
    {
      "hash": "0x2bdedba878430aed055e3141a1de7be2d474fec1bc45307ef55e004055904fb9",
      "blockHash": "0x5b7f1e21da24cc61b0fd899b08028cc229ebe1e813a56796f97bb0ac44239c97",
      "blockNumber": 103323,
      "transactionIndex": 0,
      "confirmations": null,
      "from": "0x743d4BEc153584BfA955305c168A1435Ec883049",
      "gasPrice": {
        "_hex": "0x174876e800"
      },
      "gasLimit": {
        "_hex": "0xc350"
      },
      "to": "0x3175a28CF6105466923f11bFFabD279F162aa2f8",
      "value": {
        "_hex": "0x1feb3dd067660000"
      },
      "nonce": 2,
      "data": "0x",
      "r": "0x088c445dae39af4bae3dc58045ac23dd33c98ef6e941f750dc426e4b74415d88",
      "s": "0x2dd61faecd52fbcfd024728e9aa0b4aee4a068ea82f5b0e2abb6c1b3dc6f4f8d",
      "v": 27,
      "creates": null,
      "raw": "0xf86c0285174876e80082c350943175a28cf6105466923f11bffabd279f162aa2f8881feb3dd067660000801ba0088c445dae39af4bae3dc58045ac23dd33c98ef6e941f750dc426e4b74415d88a02dd61faecd52fbcfd024728e9aa0b4aee4a068ea82f5b0e2abb6c1b3dc6f4f8d",
      "networkId": 0,
      "chainId": 0
    }
  ]
}