{
  "hash": "0xbdb3476a51941c0b31c7003b7525f2cefb55e0e19a39e032ff0044a7c799ac0e",
  "parentHash": "0x00a9e3e4bf1d302b9570dfadea06cfa3ebc665d0a24ae4d9ed0cecb20f0f2ce8",
  "number": 79845,
  "timestamp": 1439476072,
  "nonce": "0xe269b8a7f19776ba",
  "difficulty": 2352936937044,
  "gasLimit": {
    "_hex": "0x2fefd8"
  },
  "gasUsed": {
    "_hex": "0x546c"
  },
  "miner": "0xe6A7a1d47ff21B6321162AEA7C6CB457D5476Bca",
  "extraData": "0x476574682f76312e302e312d38326566323666362f6c696e75782f676f312e34",
  "transactions": [
    {
      "hash": "0xb402359f8349a00fa3738985f2f45c37a075e7cb4ed2f1eda0c9bdad80ab8c95",
      "blockHash": "0xbdb3476a51941c0b31c7003b7525f2cefb55e0e19a39e032ff0044a7c799ac0e",
      "blockNumber": 79845,
      "transactionIndex": 0,
      "confirmations": null,
      "from": "0xB1A4B41b8e75a153841c99c62d18588d45e7b406",
      "gasPrice": {
        "_hex": "0xe10af4eeb"
      },
      "gasLimit": {
        "_hex": "0x15f90"
      },
      "to": "0x2910543Af39abA0Cd09dBb2D50200b3E800A63D2",
      "value": {
        "_hex": "0x410d586a20a4c0000"
      },
      "nonce": 5,
      "data": "0x454e46435045515752",
      "r": "0x768417f8c1517da1db154c552a36e862fe7db0bd7410d124b7954c84d8605146",
      "s": "0x0359bedf419e2dd07aba9f22274ff6173fb597e5996c85adc4a7f74d85f508b1",
      "v": 27,
      "creates": null,
      "raw": "0xf87705850e10af4eeb83015f90942910543af39aba0cd09dbb2d50200b3e800a63d2890410d586a20a4c000089454e464350455157521ba0768417f8c1517da1db154c552a36e862fe7db0bd7410d124b7954c84d8605146a00359bedf419e2dd07aba9f22274ff6173fb597e5996c85adc4a7f74d85f508b1",
      "networkId": 0,
      "chainId": 0
    }
  ]
}