{
  "hash": "0xc38fb10f727f19c35fbc24c02b2211d453cdef07aea8b41254f39c3506c63e9b",
  "parentHash": "0x61600ba45c80b3192f1cddbf8fe2c1c9527f55885d15377348b9365bea1c272f",
  "number": 59252,
  "timestamp": 1439134944,
  "nonce": "0x3e710a2d314aecc5",
  "difficulty": 1704739185438,
  "gasLimit": {
    "_hex": "0x2fe3fb"
  },
  "gasUsed": {
    "_hex": "0xf618"
  },
  "miner": "0xf8E0CA3Ed80bd541b94BEdCf259e8CF2141A9523",
  "extraData": "0x476574682f76312e302e312f77696e646f77732f676f312e342e32",
  "transactions": [
    {
      "hash": "0xf81632c6b6473c7494244c2dfb29ec51e60ef8042a1187ca37faf9cbbad5eeba",
      "blockHash": "0xc38fb10f727f19c35fbc24c02b2211d453cdef07aea8b41254f39c3506c63e9b",
      "blockNumber": 59252,
      "transactionIndex": 0,
      "confirmations": null,
      "from": "0x72c083BeadBdc227c5fb43881597E32e83C26056",
      "gasPrice": {
        "_hex": "0x10dc90d85e7"
      },
      "gasLimit": {
        "_hex": "0x15f90"
      },
      "to": "0x249502491a53b217181420Cc4A6dE23a720636CA",
      "value": {
        "_hex": "0x8ac7230489e80000"
      },
      "nonce": 0,
      "data": "0x",
      "r": "0x7fc98c17697e1a1f3b3b31e8315c7babb189e2c69bbb8313c0d00d0267d556f0",
      "s": "0x5d93228894ebb09f60ad80a3bb14148b7fcc1554538bfba581e361939eec43bf",
      "v": 28,
      "creates": null,
      "raw": "0xf86e8086010dc90d85e783015f9094249502491a53b217181420cc4a6de23a720636ca888ac7230489e80000801ca07fc98c17697e1a1f3b3b31e8315c7babb189e2c69bbb8313c0d00d0267d556f0a05d93228894ebb09f60ad80a3bb14148b7fcc1554538bfba581e361939eec43bf",
      "networkId": 0,
      "chainId": 0
    },
    {
      "hash": "0x7516ff621d4598b35a6f74a1b080725a761838865c192e88f8dc301cc11ab61a",
      "blockHash": "0xc38fb10f727f19c35fbc24c02b2211d453cdef07aea8b41254f39c3506c63e9b",
      "blockNumber": 59252,
      "transactionIndex": 1,
      "confirmations": null,
      "from": "0xA10C59651885FeAaac91F871082a23BBbaBeDfCf",
      "gasPrice": {
        "_hex": "0x1063418c158"
      },
      "gasLimit": {
        "_hex": "0x5208"
      },
      "to": "0x4c74B6F32c9680aCB5Fe0e72B7Aa95C612540A04",
      "value": {
        "_hex": "0x56bc75e2d63100000"
      },
      "nonce": 4,
      "data": "0x",
      "r": "0xf8371b794b7d60aa60453ab6a32ae22e5e65a13a1e6079ffd23c4362b984a849",
      "s": "0x714ea7b32bcde1d44cc3144186ea20588aefd502f48bbbee32fa0e2e7c8f2fc0",
      "v": 27,
      "creates": null,
      "raw": "0xf86e048601063418c158825208944c74b6f32c9680acb5fe0e72b7aa95c612540a0489056bc75e2d63100000801ba0f8371b794b7d60aa60453ab6a32ae22e5e65a13a1e6079ffd23c4362b984a849a0714ea7b32bcde1d44cc3144186ea20588aefd502f48bbbee32fa0e2e7c8f2fc0",
      "networkId": 0,
      "chainId": 0
    },
    {
      "hash": "0x70f6bbcba35115c5c632f67f1cd4d81b4ce17579fc0e44f0907c6e755768835f",
      "blockHash": "0xc38fb10f727f19c35fbc24c02b2211d453cdef07aea8b41254f39c3506c63e9b",
      "blockNumber": 59252,
      "transactionIndex": 2,
      "confirmations": null,
      "from": "0x72c083BeadBdc227c5fb43881597E32e83C26056",
      "gasPrice": {
        "_hex": "0x1056c6e0788"
      },
      "gasLimit": {
        "_hex": "0x15f90"
      },
      "to": "0x249502491a53b217181420Cc4A6dE23a720636CA",
      "value": {
        "_hex": "0x8ac7230489e80000"
      },
      "nonce": 1,
      "data": "0x",
      "r": "0x331fdc17d6297cad2d83af418d3936fb3b8d0b27e7415e84a0ec1d702b7c2375",
      "s": "0x01e84898cd69800fc6643cc48d4b2afcf6842ac2723987480d1719d688032b19",
      "v": 28,
      "creates": null,
      "raw": "0xf86e018601056c6e078883015f9094249502491a53b217181420cc4a6de23a720636ca888ac7230489e80000801ca0331fdc17d6297cad2d83af418d3936fb3b8d0b27e7415e84a0ec1d702b7c2375a001e84898cd69800fc6643cc48d4b2afcf6842ac2723987480d1719d688032b19",
      "networkId": 0,
      "chainId": 0
    }
  ]
}