{
  "hash": "0x6ef89b8b662d9d28a418a133c82ec4eabf101221089bd3ae20278e67e14e24c8",
  "parentHash": "0x2211bfc5aca4612ac91095ef00ede765e5bc17d50089b78f0b84f8463f9a8073",
  "number": 48905,
  "timestamp": 1438964890,
  "nonce": "0xb7f849677350ef7e",
  "difficulty": 1477871101290,
  "gasLimit": {
    "_hex": "0x20b9c"
  },
  "gasUsed": {
    "_hex": "0xa674"
  },
  "miner": "0x47ff6576639c2e94762eA5443978D7681C0E78DC",
  "extraData": "0x476574682f76312e302e312f6c696e75782f676f312e342e32",
  "transactions": [
    {
      "hash": "0x4d5fbfbac146bdc0596b58ebc52221633db5e79939fa95ffa67128ae63447a04",
      "blockHash": "0x6ef89b8b662d9d28a418a133c82ec4eabf101221089bd3ae20278e67e14e24c8",
      "blockNumber": 48905,
      "transactionIndex": 0,
      "confirmations": null,
      "from": "0xD043a011EC4270eE7eC8B968737515E503F83028",
      "gasPrice": {
        "_hex": "0x110c8f7d8de"
      },
      "gasLimit": {
        "_hex": "0xc350"
      },
      "to": "0x2910543Af39abA0Cd09dBb2D50200b3E800A63D2",
      "value": {
        "_hex": "0x15af1d78b58c400000"
      },
      "nonce": 0,
      "data": "0x454e4750575a413647",
      "r": "0xeae49d31abd65c396733c08cf14e7f7c7bb8a7dca373630704255d2e62aa46e2",
      "s": "0x1b3df7299d5e80344b53711559c30dd533ea9ab226186aadcebbe545472250d8",
      "v": 28,
      "creates": null,
      "raw": "0xf87780860110c8f7d8de82c350942910543af39aba0cd09dbb2d50200b3e800a63d28915af1d78b58c40000089454e4750575a4136471ca0eae49d31abd65c396733c08cf14e7f7c7bb8a7dca373630704255d2e62aa46e2a01b3df7299d5e80344b53711559c30dd533ea9ab226186aadcebbe545472250d8",
      "networkId": 0,
      "chainId": 0
    },
    {
      "hash": "0x98b350e5d65c59481bbfd87112b4958e62a68bf64e84d0464acacc0217b30806",
      "blockHash": "0x6ef89b8b662d9d28a418a133c82ec4eabf101221089bd3ae20278e67e14e24c8",
      "blockNumber": 48905,
      "transactionIndex": 1,
      "confirmations": null,
      "from": "0x07BC2CC8eeDC01970700efC9c4Fb36735e98CD71",
      "gasPrice": {
        "_hex": "0xd67cac590"
      },
      "gasLimit": {
        "_hex": "0x15f90"
      },
      "to": "0x985D744C50fdcB355d105EE00565A8b32BF0B08f",
      "value": {
        "_hex": "0xde0b6b3a7640000"
      },
      "nonce": 2,
      "data": "0x",
      "r": "0x5c1eb08ec6be130b06a55ec5e17ad0898f6f8bb0013f63880efbab68dbb427b5",
      "s": "0x69b1d464fb190d7f1fcb58435a9ea180eb63f4bfc07ffb2bb5238a82344eef15",
      "v": 27,
      "creates": null,
      "raw": "0xf86d02850d67cac59083015f9094985d744c50fdcb355d105ee00565a8b32bf0b08f880de0b6b3a7640000801ba05c1eb08ec6be130b06a55ec5e17ad0898f6f8bb0013f63880efbab68dbb427b5a069b1d464fb190d7f1fcb58435a9ea180eb63f4bfc07ffb2bb5238a82344eef15",
      "networkId": 0,
      "chainId": 0
    }
  ]
}