{
  "hash": "0x6a698a217e4f063434dbda8f2b7d08f4bcbb3f5a5750c992ee2d06ac88d2dddc",
  "parentHash": "0x38bb9a3644f8a662da8b1ded558cace7570e20638b38e437e7c5dc7a315d9197",
  "number": 54695,
  "timestamp": 1439058454,
  "nonce": "0xf9814840839a4a89",
  "difficulty": 1620420737621,
  "gasLimit": {
    "_hex": "0x2fefd8"
  },
  "gasUsed": {
    "_hex": "0x7a120"
  },
  "miner": "0x1B7047b4338ACf65bE94C1A3e8c5c9338ad7d67C",
  "extraData": "0x476574682f76312e302e312d38326566323666362f6c696e75782f676f312e34",
  "transactions": [
    {
      "hash": "0xd277c23a8f37abb9018c0db13d0bbf52e97b54c0ed3651e0916c9d73decd6a38",
      "blockHash": "0x6a698a217e4f063434dbda8f2b7d08f4bcbb3f5a5750c992ee2d06ac88d2dddc",
      "blockNumber": 54695,
      "transactionIndex": 0,
      "confirmations": null,
      "from": "0xC151A0473225AE2768CF864F30ef38AC4b36C06C",
      "gasPrice": {
        "_hex": "0xd1217f556"
      },
      "gasLimit": {
        "_hex": "0x7a120"
      },
      "to": "0xBAA54d6E90c3F4d7Ebec11bD180134C7eD8eBb52",
      "value": {
        "_hex": "0x16345785d8a0000"
      },
      "nonce": 5,
      "data": "0x",
      "r": "0x2263a5addaec669ba83f1b8f82cbafeea9220c4efdcdaac561c73226a18e4de4",
      "s": "0x5490c2a2d3962cafd92a15823e81bb86ef0cc89fb3c49557b8aa8a77954e76d7",
      "v": 27,
      "creates": null,
      "raw": "0xf86d05850d1217f5568307a12094baa54d6e90c3f4d7ebec11bd180134c7ed8ebb5288016345785d8a0000801ba02263a5addaec669ba83f1b8f82cbafeea9220c4efdcdaac561c73226a18e4de4a05490c2a2d3962cafd92a15823e81bb86ef0cc89fb3c49557b8aa8a77954e76d7",
      "networkId": 0,
      "chainId": 0
    }
  ]
}