{
  "hash": "0x234beafb5b30b9579dd31dd0227a1509cbd9d3acbb6b1597d5e00daf10d21730",
  "parentHash": "0xb736629984ab8a2053dadc2389a23570bb897a6c5d373d75fbed0ee7223c2b61",
  "number": 111053,
  "timestamp": 1439983922,
  "nonce": "0x1c60d73e1071849d",
  "difficulty": 4409582491563,
  "gasLimit": {
    "_hex": "0x2fefd8"
  },
  "gasUsed": {
    "_hex": "0x5208"
  },
  "miner": "0xC6A5D22D1DDd24B32a308bA4A49ec3cA38a2D0A6",
  "extraData": "0x",
  "transactions": [
    {
      "hash": "0x4d12ca19dba60a23c1494e3e4ce312313d9ebfe2d9454c3bf1c403d3654bb416",
      "blockHash": "0x234beafb5b30b9579dd31dd0227a1509cbd9d3acbb6b1597d5e00daf10d21730",
      "blockNumber": 111053,
      "transactionIndex": 0,
      "confirmations": null,
      "from": "0x007f7f58D3eb5b7510A301eCC749FC1fCDDBE14D",
      "gasPrice": {
        "_hex": "0xd382b0b9c"
      },
      "gasLimit": {
        "_hex": "0x15f90"
      },
      "to": "0xb1abce2918E21ddb93AA452731a12672A3d9F75a",
      "value": {
        "_hex": "0x4563918244f40000"
      },
      "nonce": 301,
      "data": "0x",
      "r": "0xff3d4f5dbbaa1daf888062765c731e65581539bba9b53da28c027943117b2582",
      "s": "0x338e6a23cfea274aa028e7691f611fe4d50e7529b60facf14cc6ad52c50d486e",
      "v": 28,
      "creates": null,
      "raw": "0xf86f82012d850d382b0b9c83015f9094b1abce2918e21ddb93aa452731a12672a3d9f75a884563918244f40000801ca0ff3d4f5dbbaa1daf888062765c731e65581539bba9b53da28c027943117b2582a0338e6a23cfea274aa028e7691f611fe4d50e7529b60facf14cc6ad52c50d486e",
      "networkId": 0,
      "chainId": 0
    }
  ]
}