{
  "hash": "0xb87debcc8d2857da2a6e7fc83c19b75cf44a090c5687a30f81ce9f6d5c06d287",
  "parentHash": "0x92357d7db16b52ca9c194e15e66896016906f3b8865c8a86714f7cdd65f1d1f0",
  "number": 52578,
  "timestamp": 1439023855,
  "nonce": "0x743c69e638b0c0cd",
  "difficulty": 1565601702766,
  "gasLimit": {
    "_hex": "0x15c4fd"
  },
  "gasUsed": {
    "_hex": "0xf4240"
  },
  "miner": "0x0037ce3d4B7f8729C8607D8D0248252Be68202c0",
  "extraData": "0x476574682f76312e302e312f77696e646f77732f676f312e342e32",
  "transactions": [
    {
      "hash": "0x01132c5c093a09d77ce0e8fa5e9fa6cd8f0393f9386e399f3261054df93080dd",
      "blockHash": "0xb87debcc8d2857da2a6e7fc83c19b75cf44a090c5687a30f81ce9f6d5c06d287",
      "blockNumber": 52578,
      "transactionIndex": 0,
      "confirmations": null,
      "from": "0x54dAeb3E8a6BBC797E4aD2b0339f134b186e4637",
      "gasPrice": {
        "_hex": "0xdf4ba21f9"
      },
      "gasLimit": {
        "_hex": "0x7a120"
      },
      "to": "0xBAA54d6E90c3F4d7Ebec11bD180134C7eD8eBb52",
      "value": {
        "_hex": "0x16345785d8a0000"
      },
      "nonce": 751,
      "data": "0x",
      "r": "0xf8f33f46f1a6aa8d0d03d44a97214bea2846dc373f4ee09d2fc20ca93cbf9e6f",
      "s": "0x0385fe76c5d4c6800f622af70809d8127df788852def5a8c1a342d95d88a88f0",
      "v": 28,
      "creates": null,
      "raw": "0xf86f8202ef850df4ba21f98307a12094baa54d6e90c3f4d7ebec11bd180134c7ed8ebb5288016345785d8a0000801ca0f8f33f46f1a6aa8d0d03d44a97214bea2846dc373f4ee09d2fc20ca93cbf9e6fa00385fe76c5d4c6800f622af70809d8127df788852def5a8c1a342d95d88a88f0",
      "networkId": 0,
      "chainId": 0
    },
    {
      "hash": "0x6736d57a07a4d83f3b259cc20f65bd7c07fb8021d2bd86b6a03e6d5af6a69b8c",
      "blockHash": "0xb87debcc8d2857da2a6e7fc83c19b75cf44a090c5687a30f81ce9f6d5c06d287",
      "blockNumber": 52578,
      "transactionIndex": 1,
      "confirmations": null,
      "from": "0x54dAeb3E8a6BBC797E4aD2b0339f134b186e4637",
      "gasPrice": {
        "_hex": "0xdf4ba21f9"
      },
      "gasLimit": {
        "_hex": "0x7a120"
      },
      "to": "0xBAA54d6E90c3F4d7Ebec11bD180134C7eD8eBb52",
      "value": {
        "_hex": "0x16345785d8a0000"
      },
      "nonce": 752,
      "data": "0x",
      "r": "0xc50e3d08c8001a5a457febfeb19adf6c2ecd5a107e81e364d9b0751ba14d40b6",
      "s": "0x78bbd4e7acc14420f7cf797ebd1e70bb0c9e79057860ac4453a3dba9f3455565",
      "v": 28,
      "creates": null,
      "raw": "0xf86f8202f0850df4ba21f98307a12094baa54d6e90c3f4d7ebec11bd180134c7ed8ebb5288016345785d8a0000801ca0c50e3d08c8001a5a457febfeb19adf6c2ecd5a107e81e364d9b0751ba14d40b6a078bbd4e7acc14420f7cf797ebd1e70bb0c9e79057860ac4453a3dba9f3455565",
      "networkId": 0,
      "chainId": 0
    }
  ]
}