{
  "hash": "0xf96a0056ef084419fae0d41711364cf7b451665e648a75e5bf67d1688daa22b0",
  "parentHash": "0xe6263d37011801c870cee273ec854675ecb20f4f79ec1e1c738c9710d2519d91",
  "number": 65246,
  "timestamp": 1439233745,
  "nonce": "0xad732026077e617d",
  "difficulty": 1937897937428,
  "gasLimit": {
    "_hex": "0x2fefd8"
  },
  "gasUsed": {
    "_hex": "0xa410"
  },
  "miner": "0x0Cb6EEF179Ba9E7036f95bEEB01e250ab85A8c88",
  "extraData": "0x476574682f76312e302e312f77696e646f77732f676f312e342e32",
  "transactions": [
    {
      "hash": "0x934965519d40a9355a8643100dba63d609d649b014b42ae6db35a8aa72ad6869",
      "blockHash": "0xf96a0056ef084419fae0d41711364cf7b451665e648a75e5bf67d1688daa22b0",
      "blockNumber": 65246,
      "transactionIndex": 0,
      "confirmations": null,
      "from": "0xbBFaA2313d733f726f45c1b23210bA36a5feB58B",
      "gasPrice": {
        "_hex": "0xba43b7400"
      },
      "gasLimit": {
        "_hex": "0x5208"
      },
      "to": "0xf6E4C4178068C99D971410D42D97a0A59a480930",
      "value": {
        "_hex": "0x6fe3d4ad99ea000"
      },
      "nonce": 1,
      "data": "0x",
      "r": "0xa65bf16e97843ac1794bf66ff43ff028d363a296990a731eea63245d71967ecd",
      "s": "0x7acf5d891ec19586171ad8c845cb44c0a7c169e6c0f66cabc3afeb6fb51be468",
      "v": 28,
      "creates": null,
      "raw": "0xf86c01850ba43b740082520894f6e4c4178068c99d971410d42d97a0a59a4809308806fe3d4ad99ea000801ca0a65bf16e97843ac1794bf66ff43ff028d363a296990a731eea63245d71967ecda07acf5d891ec19586171ad8c845cb44c0a7c169e6c0f66cabc3afeb6fb51be468",
      "networkId": 0,
      "chainId": 0
    },
    {
      "hash": "0x384a90334dcca8fac077bcce258c4a672864c7154ae4c44b8d636ca4c0c9bc67",
      "blockHash": "0xf96a0056ef084419fae0d41711364cf7b451665e648a75e5bf67d1688daa22b0",
      "blockNumber": 65246,
      "transactionIndex": 1,
      "confirmations": null,
      "from": "0x698593552FE74Bab60DC875248051874dbe36221",
      "gasPrice": {
        "_hex": "0xba43b7400"
      },
      "gasLimit": {
        "_hex": "0x5208"
      },
      "to": "0xe917A3BFD05093C2f7cAA0Afd63E9Eeb3EC45fa8",
      "value": {
        "_hex": "0x771ed2b1970d000"
      },
      "nonce": 1,
      "data": "0x",
      "r": "0x8e52981d441e6f37e815fd4da1d4d98db3d787f52f9130bd114e91972c609473",
      "s": "0x2fd59cabd05b895f836e94aac7c2e93e735d2579bd5e601f386393bc2c449485",
      "v": 27,
      "creates": null,
      "raw": "0xf86c01850ba43b740082520894e917a3bfd05093c2f7caa0afd63e9eeb3ec45fa8880771ed2b1970d000801ba08e52981d441e6f37e815fd4da1d4d98db3d787f52f9130bd114e91972c609473a02fd59cabd05b895f836e94aac7c2e93e735d2579bd5e601f386393bc2c449485",
      "networkId": 0,
      "chainId": 0
    }
  ]
}