{
  "hash": "0x22621eb73fba32e0058b6a15b0c578a892444dd26275f02661943a223bb5bd41",
  "parentHash": "0x7eb9babbb8972c1faff4b028aa85fa883ac02cd260bf32f673cd5e5cddae6bcc",
  "number": 113007,
  "timestamp": 1440016530,
  "nonce": "0xe78bd89e6d747131",
  "difficulty": 4473609224248,
  "gasLimit": {
    "_hex": "0x2fefd8"
  },
  "gasUsed": {
    "_hex": "0xa410"
  },
  "miner": "0xA21Ba94e45f0E168dA824fC67aC9cb5Cb577a8aF",
  "extraData": "0x",
  "transactions": [
    {
      "hash": "0x96c357d7e162c4e244cbee0d328d6d9ea8aaeba9fbed3709c8768255274c414b",
      "blockHash": "0x22621eb73fba32e0058b6a15b0c578a892444dd26275f02661943a223bb5bd41",
      "blockNumber": 113007,
      "transactionIndex": 0,
      "confirmations": null,
      "from": "0x141d08EDaDA2C1bA62A2940184Ba03d62d3fFF22",
      "gasPrice": {
        "_hex": "0xba43b7400"
      },
      "gasLimit": {
        "_hex": "0x5208"
      },
      "to": "0xC47Aaa860008be6f65B58c6C6E02a84e666EfE31",
      "value": {
        "_hex": "0x1bc015803879be000"
      },
      "nonce": 8,
      "data": "0x",
      "r": "0x553cec4fd6cf6a087158f772bfed06326f56419a1d55d2ff77a7584e8dc6e2a3",
      "s": "0x7444200fd140e9fbecf326b300711df4f55ddb9777078e63ef67d1aadb71ea52",
      "v": 28,
      "creates": null,
      "raw": "0xf86d08850ba43b740082520894c47aaa860008be6f65b58c6c6e02a84e666efe318901bc015803879be000801ca0553cec4fd6cf6a087158f772bfed06326f56419a1d55d2ff77a7584e8dc6e2a3a07444200fd140e9fbecf326b300711df4f55ddb9777078e63ef67d1aadb71ea52",
      "networkId": 0,
      "chainId": 0
    },
    {
      "hash": "0x7f34e63f10527e9074bc16a78d6c05715d8fe7572f85907af94191577c191aad",
      "blockHash": "0x22621eb73fba32e0058b6a15b0c578a892444dd26275f02661943a223bb5bd41",
      "blockNumber": 113007,
      "transactionIndex": 1,
      "confirmations": null,
      "from": "0xcC26443fa886eca41C2c5aE022228246e376d352",
      "gasPrice": {
        "_hex": "0xba43b7400"
      },
      "gasLimit": {
        "_hex": "0x5208"
      },
      "to": "0xC47Aaa860008be6f65B58c6C6E02a84e666EfE31",
      "value": {
        "_hex": "0xddcfbbb7a606000"
      },
      "nonce": 0,
      "data": "0x",
      "r": "0x8477ff510b3c590b0f5cca42a0e2421511bd3deeb02f4bec8910304d1013a60d",
      "s": "0x12379e7bbfaa685780079ec7e323c814b39da59fee3c7edb513fbacd10c2f284",
      "v": 28,
      "creates": null,
      "raw": "0xf86c80850ba43b740082520894c47aaa860008be6f65b58c6c6e02a84e666efe31880ddcfbbb7a606000801ca08477ff510b3c590b0f5cca42a0e2421511bd3deeb02f4bec8910304d1013a60da012379e7bbfaa685780079ec7e323c814b39da59fee3c7edb513fbacd10c2f284",
      "networkId": 0,
      "chainId": 0
    }
  ]
}