{
  "hash": "0x3d0570a019e6d68d6e72a01cec3c1d0651d6036aff96f63825facb9314774cf8",
  "parentHash": "0x04d6eb46e68583fb2bb4d09d45646f8fb8943e6c585d29111bdc926d15fafe94",
  "number": 68647,
  "timestamp": 1439291324,
  "nonce": "0xa4ff94f5c6a1bf5d",
  "difficulty": 2023149492844,
  "gasLimit": {
    "_hex": "0x2fefd8"
  },
  "gasUsed": {
    "_hex": "0x14820"
  },
  "miner": "0x72e3Ea8234b449531A581F05f1c1E07cceb559d2",
  "extraData": "0x476574682f76312e302e312f6c696e75782f676f312e342e32",
  "transactions": [
    {
      "hash": "0xe3e79037f238b6adf19592d7b16151183de60560a29e19a99ba6d4a652760882",
      "blockHash": "0x3d0570a019e6d68d6e72a01cec3c1d0651d6036aff96f63825facb9314774cf8",
      "blockNumber": 68647,
      "transactionIndex": 0,
      "confirmations": null,
      "from": "0xc32f1C81E94bf589bf68eDf1613D44Ae75E78c97",
      "gasPrice": {
        "_hex": "0xba43b7400"
      },
      "gasLimit": {
        "_hex": "0x5208"
      },
      "to": "0xaeC632FbdD1EE3Aa620CEB2e2fC02da27F3A526e",
      "value": {
        "_hex": "0x1a921f4b554d000"
      },
      "nonce": 1,
      "data": "0x",
      "r": "0x13bc79e1924cc19b5b2ab290839e72310da2e7c3d7832f4bc6a54ff6a427b5e6",
      "s": "0x268edb08952fe0bc3c6876a273580ee0418e11572e30f45ccd841ea1197592ac",
      "v": 28,
      "creates": null,
      "raw": "0xf86c01850ba43b740082520894aec632fbdd1ee3aa620ceb2e2fc02da27f3a526e8801a921f4b554d000801ca013bc79e1924cc19b5b2ab290839e72310da2e7c3d7832f4bc6a54ff6a427b5e6a0268edb08952fe0bc3c6876a273580ee0418e11572e30f45ccd841ea1197592ac",
      "networkId": 0,
      "chainId": 0
    },
    {
      "hash": "0xcc32eb36362b0121ba20792066a8f64aa4d880fd598178288c5485f2cbff310a",
      "blockHash": "0x3d0570a019e6d68d6e72a01cec3c1d0651d6036aff96f63825facb9314774cf8",
      "blockNumber": 68647,
      "transactionIndex": 1,
      "confirmations": null,
      "from": "0xE328e09929a46531059a8d528eBBB24413373A2e",
      "gasPrice": {
        "_hex": "0xba43b7400"
      },
      "gasLimit": {
        "_hex": "0x5208"
      },
      "to": "0x1c6e931c7a8F3528cD5e7C92480EB2485E42782c",
      "value": {
        "_hex": "0x1a921f4b554d000"
      },
      "nonce": 1,
      "data": "0x",
      "r": "0x249d296a6b7d2cb98987516dbc60777c4af4439d22d5446128a28fc0241023b3",
      "s": "0x115c6623246cd770a7d2ba4d09d69ae954a935e2636e0118dc2be8a1000585b7",
      "v": 27,
      "creates": null,
      "raw": "0xf86c01850ba43b7400825208941c6e931c7a8f3528cd5e7c92480eb2485e42782c8801a921f4b554d000801ba0249d296a6b7d2cb98987516dbc60777c4af4439d22d5446128a28fc0241023b3a0115c6623246cd770a7d2ba4d09d69ae954a935e2636e0118dc2be8a1000585b7",
      "networkId": 0,
      "chainId": 0
    },
    {
      "hash": "0xb620d9593de2d3df9a478621cd5ed672073b3ed94734de8c0b86309a26368a2e",
      "blockHash": "0x3d0570a019e6d68d6e72a01cec3c1d0651d6036aff96f63825facb9314774cf8",
      "blockNumber": 68647,
      "transactionIndex": 2,
      "confirmations": null,
      "from": "0x5095EEdD09596070D07dDd273dc8d7712Ed627cA",
      "gasPrice": {
        "_hex": "0xba43b7400"
      },
      "gasLimit": {
        "_hex": "0x5208"
      },
      "to": "0x602878552DdFE569dAb7112E56566BCC91A2f779",
      "value": {
        "_hex": "0x1a921f4b554d000"
      },
      "nonce": 1,
      "data": "0x",
      "r": "0x05f8a4ec2fc41b337c4fdb17532286f3936c484c8b1abf38e27fb5a9df2f979a",
      "s": "0x060a184f9a8e7b2f3c299cd4c01955ca4f4a480e46160c470cd3b2e46d1cfec6",
      "v": 28,
      "creates": null,
      "raw": "0xf86c01850ba43b740082520894602878552ddfe569dab7112e56566bcc91a2f7798801a921f4b554d000801ca005f8a4ec2fc41b337c4fdb17532286f3936c484c8b1abf38e27fb5a9df2f979aa0060a184f9a8e7b2f3c299cd4c01955ca4f4a480e46160c470cd3b2e46d1cfec6",
      "networkId": 0,
      "chainId": 0
    },
    {
      "hash": "0xd034a332503c296c16643b1a6318f0dbf43153054ec663df7580f47a5cbb465c",
      "blockHash": "0x3d0570a019e6d68d6e72a01cec3c1d0651d6036aff96f63825facb9314774cf8",
      "blockNumber": 68647,
      "transactionIndex": 3,
      "confirmations": null,
      "from": "0x1b9472748f76ee7B41aA671856A5Ca23cB9DA170",
      "gasPrice": {
        "_hex": "0xba43b7400"
      },
      "gasLimit": {
        "_hex": "0x5208"
      },
      "to": "0xB3DfdC921ca3bBA87720C55E91e1Bf4c04CD558a",
      "value": {
        "_hex": "0x1a921f4b554d000"
      },
      "nonce": 1,
      "data": "0x",
      "r": "0x0f0f4d4a4bae51aad1f733e1de31631b1a6e4db2921443ee10478e3d27292fca",
      "s": "0x03f505ea742630c598aca19f825d1387223a564b9f9cf40dd5cb5b45781d2789",
      "v": 27,
      "creates": null,
      "raw": "0xf86c01850ba43b740082520894b3dfdc921ca3bba87720c55e91e1bf4c04cd558a8801a921f4b554d000801ba00f0f4d4a4bae51aad1f733e1de31631b1a6e4db2921443ee10478e3d27292fcaa003f505ea742630c598aca19f825d1387223a564b9f9cf40dd5cb5b45781d2789",
      "networkId": 0,
      "chainId": 0
    }
  ]
}