{
  "hash": "0x390ac0b2d25960635ef956ae31a026753c3d77ac1e878ecc820b53ef8759ce72",
  "parentHash": "0x1dff1bf5df5964ffc7d7f11fbfec672470b50e836fb559df46e955d8a2be6d6b",
  "number": 52632,
  "timestamp": 1439024840,
  "nonce": "0x7dc78ad5d1cd11f1",
  "difficulty": 1567121269514,
  "gasLimit": {
    "_hex": "0x16a727"
  },
  "gasUsed": {
    "_hex": "0x103abc"
  },
  "miner": "0xC759dc67E0c3816fdC56A2f5bb29920fc07e767D",
  "extraData": "0x476574682f76312e302e312f77696e646f77732f676f312e342e32",
  "transactions": [
    {
      "hash": "0x5fc322e6b8b80ed434e744010e8f94cd7059a7cc2db9653b54c81973445938af",
      "blockHash": "0x390ac0b2d25960635ef956ae31a026753c3d77ac1e878ecc820b53ef8759ce72",
      "blockNumber": 52632,
      "transactionIndex": 0,
      "confirmations": null,
      "from": "0x5CB548bF1ebaDdD4b08c2F3281d3e755008bc62B",
      "gasPrice": {
        "_hex": "0x10e83e5fd2e"
      },
      "gasLimit": {
        "_hex": "0x15f90"
      },
      "to": "0x2910543Af39abA0Cd09dBb2D50200b3E800A63D2",
      "value": {
        "_hex": "0x168d28e3f00280000"
      },
      "nonce": 0,
      "data": "0x454e41444832545a30",
      "r": "0xb80665197e7d355300bc9dfe705187ce04a976022767b939f7fa32aef945acb9",
      "s": "0x48f27497014189d808d56e066353fa6d084c701d608d23a00d9c1de9f49ed963",
      "v": 27,
      "creates": null,
      "raw": "0xf8788086010e83e5fd2e83015f90942910543af39aba0cd09dbb2d50200b3e800a63d2890168d28e3f0028000089454e41444832545a301ba0b80665197e7d355300bc9dfe705187ce04a976022767b939f7fa32aef945acb9a048f27497014189d808d56e066353fa6d084c701d608d23a00d9c1de9f49ed963",
      "networkId": 0,
      "chainId": 0
    },
    {
      "hash": "0x158db5ee85720283f2336b19f368f3eae089aea20528af9d39d7c353ad8f63b9",
      "blockHash": "0x390ac0b2d25960635ef956ae31a026753c3d77ac1e878ecc820b53ef8759ce72",
      "blockNumber": 52632,
      "transactionIndex": 1,
      "confirmations": null,
      "from": "0x54dAeb3E8a6BBC797E4aD2b0339f134b186e4637",
      "gasPrice": {
        "_hex": "0xe1780dfbb"
      },
      "gasLimit": {
        "_hex": "0x7a120"
      },
      "to": "0xBAA54d6E90c3F4d7Ebec11bD180134C7eD8eBb52",
      "value": {
        "_hex": "0x16345785d8a0000"
      },
      "nonce": 823,
      "data": "0x",
      "r": "0x3a9ec33fcde250f9ab099e6e849a04dab1b60c588e8d60eb37203bc785fa9283",
      "s": "0x484ac30ac67d6d9fbe225269db0a76b5c4aa35d539598bd6036a84430a61977f",
      "v": 27,
      "creates": null,
      "raw": "0xf86f820337850e1780dfbb8307a12094baa54d6e90c3f4d7ebec11bd180134c7ed8ebb5288016345785d8a0000801ba03a9ec33fcde250f9ab099e6e849a04dab1b60c588e8d60eb37203bc785fa9283a0484ac30ac67d6d9fbe225269db0a76b5c4aa35d539598bd6036a84430a61977f",
      "networkId": 0,
      "chainId": 0
    },
    {
      "hash": "0xa7d00877080ed1b063cfbed2691c5b4c9fafee4b90850d20caceb4163e908b82",
      "blockHash": "0x390ac0b2d25960635ef956ae31a026753c3d77ac1e878ecc820b53ef8759ce72",
      "blockNumber": 52632,
      "transactionIndex": 2,
      "confirmations": null,
      "from": "0x54dAeb3E8a6BBC797E4aD2b0339f134b186e4637",
      "gasPrice": {
        "_hex": "0xd8bd64e50"
      },
      "gasLimit": {
        "_hex": "0x7a120"
      },
      "to": "0xBAA54d6E90c3F4d7Ebec11bD180134C7eD8eBb52",
      "value": {
        "_hex": "0x16345785d8a0000"
      },
      "nonce": 824,
      "data": "0x",
      "r": "0x7bc8f34b49a6d98552beae2224e3c320740ca7c249f4dd24d65144b28beaff29",
      "s": "0x0af36f3f8e667bb81a4f02c8509731cc15def931896fbd267b29bef86afe17a4",
      "v": 28,
      "creates": null,
      "raw": "0xf86f820338850d8bd64e508307a12094baa54d6e90c3f4d7ebec11bd180134c7ed8ebb5288016345785d8a0000801ca07bc8f34b49a6d98552beae2224e3c320740ca7c249f4dd24d65144b28beaff29a00af36f3f8e667bb81a4f02c8509731cc15def931896fbd267b29bef86afe17a4",
      "networkId": 0,
      "chainId": 0
    },
    {
      "hash": "0xf081d9fc351e67b5d00ea5e82769738ec488869f799dd4c793ade0c2c87e9315",
      "blockHash": "0x390ac0b2d25960635ef956ae31a026753c3d77ac1e878ecc820b53ef8759ce72",
      "blockNumber": 52632,
      "transactionIndex": 3,
      "confirmations": null,
      "from": "0x32Be343B94f860124dC4fEe278FDCBD38C102D88",
      "gasPrice": {
        "_hex": "0xd8643ed23"
      },
      "gasLimit": {
        "_hex": "0x5208"
      },
      "to": "0x3cD41F8B22D7F3f4793E10f8E96247356A567dD9",
      "value": {
        "_hex": "0x5698eef06670000"
      },
      "nonce": 18,
      "data": "0x",
      "r": "0xd54364fb32da514cdb5a9974de807c16cf2dfa38815343e3c558305988cdc06b",
      "s": "0x1d243c9044ff0a68ce9eecf10b402ca107be386edc6284f48f39b1be49c1ff08",
      "v": 27,
      "creates": null,
      "raw": "0xf86c12850d8643ed23825208943cd41f8b22d7f3f4793e10f8e96247356a567dd98805698eef06670000801ba0d54364fb32da514cdb5a9974de807c16cf2dfa38815343e3c558305988cdc06ba01d243c9044ff0a68ce9eecf10b402ca107be386edc6284f48f39b1be49c1ff08",
      "networkId": 0,
      "chainId": 0
    },
    {
      "hash": "0xb806620afd068277a1ad7b5a95fc4d2e67f416979e8fb24d6ddaf3892d353473",
      "blockHash": "0x390ac0b2d25960635ef956ae31a026753c3d77ac1e878ecc820b53ef8759ce72",
      "blockNumber": 52632,
      "transactionIndex": 4,
      "confirmations": null,
      "from": "0x32Be343B94f860124dC4fEe278FDCBD38C102D88",
      "gasPrice": {
        "_hex": "0xd8643ed23"
      },
      "gasLimit": {
        "_hex": "0x5208"
      },
      "to": "0x0000000000000000000000000000000000000000",
      "value": {
        "_hex": "0xdbd2fc137a30000"
      },
      "nonce": 19,
      "data": "0x",
      "r": "0x598b653bbb2e352f999eb8349e5ed77c9ac00387d5e50e47af1841d46bfcb945",
      "s": "0x669423c6c4014a17f0fee95bcc33890800b9ad89f65507349cdcc3537ef827f4",
      "v": 27,
      "creates": null,
      "raw": "0xf86c13850d8643ed23825208940000000000000000000000000000000000000000880dbd2fc137a30000801ba0598b653bbb2e352f999eb8349e5ed77c9ac00387d5e50e47af1841d46bfcb945a0669423c6c4014a17f0fee95bcc33890800b9ad89f65507349cdcc3537ef827f4",
      "networkId": 0,
      "chainId": 0
    }
  ]
}