{
  "hash": "0x46b362b81fbaacf655c0b02e9114145af52251d7a0cbb76cc789ba498c5c1887",
  "parentHash": "0x80834e087109df924dab470651b3e712c8983b4132926d26e0d8206f2f736cf1",
  "number": 94646,
  "timestamp": 1439711530,
  "nonce": "0x8d832b1b82b52afa",
  "difficulty": 3513919055066,
  "gasLimit": {
    "_hex": "0x2fefd8"
  },
  "gasUsed": {
    "_hex": "0xa410"
  },
  "miner": "0xe6A7a1d47ff21B6321162AEA7C6CB457D5476Bca",
  "extraData": "0x476574682f76312e302e312d38326566323666362f6c696e75782f676f312e34",
  "transactions": [
    {
      "hash": "0x1017943eebe27592118a0d4b7d78cf4edf1324084db54312c092c87e6f5b41f8",
      "blockHash": "0x46b362b81fbaacf655c0b02e9114145af52251d7a0cbb76cc789ba498c5c1887",
      "blockNumber": 94646,
      "transactionIndex": 0,
      "confirmations": null,
      "from": "0xe6A7a1d47ff21B6321162AEA7C6CB457D5476Bca",
      "gasPrice": {
        "_hex": "0xe15c82b7b"
      },
      "gasLimit": {
        "_hex": "0x55f0"
      },
      "to": "0xd223eD5b348a82910987CbBc7875a7AE62E1Ba53",
      "value": {
        "_hex": "0x190d24a40df6d1e0"
      },
      "nonce": 2581,
      "data": "0x",
      "r": "0x92d2d190b7f4438f534df6bb67d8091d27a9f1f4a897b8e019f83683e79e678b",
      "s": "0x37a02d6a4521db4920317caa3805ef5eb4ceb02518619178575ad631565f2205",
      "v": 27,
      "creates": null,
      "raw": "0xf86e820a15850e15c82b7b8255f094d223ed5b348a82910987cbbc7875a7ae62e1ba5388190d24a40df6d1e0801ba092d2d190b7f4438f534df6bb67d8091d27a9f1f4a897b8e019f83683e79e678ba037a02d6a4521db4920317caa3805ef5eb4ceb02518619178575ad631565f2205",
      "networkId": 0,
      "chainId": 0
    },
    {
      "hash": "0x1eccb57fc221372383991b40d07bfae5975898d8987c673667efb90483ed9909",
      "blockHash": "0x46b362b81fbaacf655c0b02e9114145af52251d7a0cbb76cc789ba498c5c1887",
      "blockNumber": 94646,
      "transactionIndex": 1,
      "confirmations": null,
      "from": "0xe6A7a1d47ff21B6321162AEA7C6CB457D5476Bca",
      "gasPrice": {
        "_hex": "0xe15c82b7b"
      },
      "gasLimit": {
        "_hex": "0x55f0"
      },
      "to": "0x1918175e6aB029996E0BC00238AeA5f89f3F84ad",
      "value": {
        "_hex": "0x1938cb04f3c52c08"
      },
      "nonce": 2582,
      "data": "0x",
      "r": "0xcb87336c14c6ea5ed606eca103081389ceeb2f69eb8e4027f4f48247686f3c76",
      "s": "0x51eb069552fb0cdab1b13810a532661500fc6422ec6ca2e6d6486fc193ef1147",
      "v": 27,
      "creates": null,
      "raw": "0xf86e820a16850e15c82b7b8255f0941918175e6ab029996e0bc00238aea5f89f3f84ad881938cb04f3c52c08801ba0cb87336c14c6ea5ed606eca103081389ceeb2f69eb8e4027f4f48247686f3c76a051eb069552fb0cdab1b13810a532661500fc6422ec6ca2e6d6486fc193ef1147",
      "networkId": 0,
      "chainId": 0
    }
  ]
}