{
  "hash": "0x6fd52b38f0e0c32db3f488bbd02d97436f6ac4801a3314d833fa23195358a958",
  "parentHash": "0xa7f81cd8a6b931521cc6da168089eb7b88a43574aeb62b8f97cec5b494e66d59",
  "number": 120309,
  "timestamp": 1440157697,
  "nonce": "0xa9ffb25c274a14b7",
  "difficulty": 4426279651518,
  "gasLimit": {
    "_hex": "0x2fefd8"
  },
  "gasUsed": {
    "_hex": "0xa410"
  },
  "miner": "0xe6A7a1d47ff21B6321162AEA7C6CB457D5476Bca",
  "extraData": "0xd783010002844765746887676f312e342e32856c696e7578",
  "transactions": [
    {
      "hash": "0x0e9573c1fba0b2aceb4da6bb8f6fa4be94327816a88beb7809302b96f8859f55",
      "blockHash": "0x6fd52b38f0e0c32db3f488bbd02d97436f6ac4801a3314d833fa23195358a958",
      "blockNumber": 120309,
      "transactionIndex": 0,
      "confirmations": null,
      "from": "0x2910543Af39abA0Cd09dBb2D50200b3E800A63D2",
      "gasPrice": {
        "_hex": "0xd8e5d9367"
      },
      "gasLimit": {
        "_hex": "0x5208"
      },
      "to": "0xc2d8A8b3496243E22B7247990737217985B94421",
      "value": {
        "_hex": "0xc62b02b05ca36000"
      },
      "nonce": 1177,
      "data": "0x",
      "r": "0x4713adeb0303a21adc8834b39dee84ae1c853f08c7447bbebee71be833e16045",
      "s": "0x68c91a9c84da4ea29edb57005672041695bcab6d41a1b948baf9eb5dcdf6638f",
      "v": 28,
      "creates": null,
      "raw": "0xf86e820499850d8e5d936782520894c2d8a8b3496243e22b7247990737217985b9442188c62b02b05ca36000801ca04713adeb0303a21adc8834b39dee84ae1c853f08c7447bbebee71be833e16045a068c91a9c84da4ea29edb57005672041695bcab6d41a1b948baf9eb5dcdf6638f",
      "networkId": 0,
      "chainId": 0
    },
    {
      "hash": "0x594f8b09d424cdf79a36efcac24b780cb73a3258f853ec2af79ae5f624879c6a",
      "blockHash": "0x6fd52b38f0e0c32db3f488bbd02d97436f6ac4801a3314d833fa23195358a958",
      "blockNumber": 120309,
      "transactionIndex": 1,
      "confirmations": null,
      "from": "0xAae61E43CB0d0C96b30699F77E00D711d0a3979b",
      "gasPrice": {
        "_hex": "0xd4d496021"
      },
      "gasLimit": {
        "_hex": "0x15f90"
      },
      "to": "0xaed5c6263d084cFFc0a3fAD197702CecE3e9c3E3",
      "value": {
        "_hex": "0x1aa535d3d0c00000"
      },
      "nonce": 8,
      "data": "0x",
      "r": "0x5a1b960a76a4ff36a6291c77be36c9d63f0a49c0556c26a7aa047726a1bee211",
      "s": "0x5c22eabd5dd97b34939628cd204922f0b3d963635f690fcad1d951fac842dcc9",
      "v": 28,
      "creates": null,
      "raw": "0xf86d08850d4d49602183015f9094aed5c6263d084cffc0a3fad197702cece3e9c3e3881aa535d3d0c00000801ca05a1b960a76a4ff36a6291c77be36c9d63f0a49c0556c26a7aa047726a1bee211a05c22eabd5dd97b34939628cd204922f0b3d963635f690fcad1d951fac842dcc9",
      "networkId": 0,
      "chainId": 0
    }
  ]
}