{
  "hash": "0xaaea186b85c2b2be66a7b2a6a4583113388d0f8508a1f16270e618d8fb562280",
  "parentHash": "0x2fc43f5794971e499676957a016e05bd49bd28f0ec9f279a96ef754a82136fd3",
  "number": 80874,
  "timestamp": 1439492520,
  "nonce": "0x78a82bedbfcc25d8",
  "difficulty": 2440401899303,
  "gasLimit": {
    "_hex": "0x2fefd8"
  },
  "gasUsed": {
    "_hex": "0x29040"
  },
  "miner": "0x88D74a59454F6cF3B51ef6b9136AFb6b9D405A88",
  "extraData": "0x476574682f76312e302e312d38326566323666362f6c696e75782f676f312e34",
  "transactions": [
    {
      "hash": "0xf4f7b5b167c249c43b226a51ea437dba16256cabb5ff28eca39cd74a0f9f0946",
      "blockHash": "0xaaea186b85c2b2be66a7b2a6a4583113388d0f8508a1f16270e618d8fb562280",
      "blockNumber": 80874,
      "transactionIndex": 0,
      "confirmations": null,
      "from": "0x0Dcc3Adb3Aa09b568a94E6D470A06ED9FfC0Dcf7",
      "gasPrice": {
        "_hex": "0xd963c795f"
      },
      "gasLimit": {
        "_hex": "0x5208"
      },
      "to": "0x32Be343B94f860124dC4fEe278FDCBD38C102D88",
      "value": {
        "_hex": "0x987746f31392a000000"
      },
      "nonce": 0,
      "data": "0x",
      "r": "0xa0044068ef954c2d68f2aa1a128f5a856c770a586fe740bd174479b9f35fd69c",
      "s": "0x6653ed7506b19100f46e49f73333ef0d6a075802014170357916049f086e62ea",
      "v": 28,
      "creates": null,
      "raw": "0xf86e80850d963c795f8252089432be343b94f860124dc4fee278fdcbd38c102d888a0987746f31392a000000801ca0a0044068ef954c2d68f2aa1a128f5a856c770a586fe740bd174479b9f35fd69ca06653ed7506b19100f46e49f73333ef0d6a075802014170357916049f086e62ea",
      "networkId": 0,
      "chainId": 0
    },
    {
      "hash": "0x6701ddf4682655f47676221aef5d45d0f10b454fdfd683ae2e70337fac18f1f9",
      "blockHash": "0xaaea186b85c2b2be66a7b2a6a4583113388d0f8508a1f16270e618d8fb562280",
      "blockNumber": 80874,
      "transactionIndex": 1,
      "confirmations": null,
      "from": "0x1527fcd698B3A8707bb745F80ab114FfF3Db35E2",
      "gasPrice": {
        "_hex": "0xd963c795f"
      },
      "gasLimit": {
        "_hex": "0x5208"
      },
      "to": "0x32Be343B94f860124dC4fEe278FDCBD38C102D88",
      "value": {
        "_hex": "0xddc514d57fdf400"
      },
      "nonce": 2,
      "data": "0x",
      "r": "0x4f0a5127c3f727b680cf73708f6041c9a20fa88e8b965a8e0f8c76a89621dee6",
      "s": "0x7d722a2a48db67930464071a9240a2feb4d2916118d6216e5f1550c1c55b0a03",
      "v": 27,
      "creates": null,
      "raw": "0xf86c02850d963c795f8252089432be343b94f860124dc4fee278fdcbd38c102d88880ddc514d57fdf400801ba04f0a5127c3f727b680cf73708f6041c9a20fa88e8b965a8e0f8c76a89621dee6a07d722a2a48db67930464071a9240a2feb4d2916118d6216e5f1550c1c55b0a03",
      "networkId": 0,
      "chainId": 0
    },
    {
      "hash": "0xd504769ad67d4ff947a377338cabcfe95ebfb507a118713b0743faff55be25bf",
      "blockHash": "0xaaea186b85c2b2be66a7b2a6a4583113388d0f8508a1f16270e618d8fb562280",
      "blockNumber": 80874,
      "transactionIndex": 2,
      "confirmations": null,
      "from": "0xdEC7d1B05f89c0Ce0870Ea4AeA18138264675478",
      "gasPrice": {
        "_hex": "0xd963c795f"
      },
      "gasLimit": {
        "_hex": "0x5208"
      },
      "to": "0x32Be343B94f860124dC4fEe278FDCBD38C102D88",
      "value": {
        "_hex": "0x15bce81c0522130000"
      },
      "nonce": 1,
      "data": "0x",
      "r": "0xe1216bb40456ef76387f1ad1bca81698248f2b80e87625c3d50b4cc9afba5132",
      "s": "0x081adfdf16319ff7ef90b63db85f590c2038ab10724da0369f32ffadd6b6a8a3",
      "v": 27,
      "creates": null,
      "raw": "0xf86d01850d963c795f8252089432be343b94f860124dc4fee278fdcbd38c102d888915bce81c0522130000801ba0e1216bb40456ef76387f1ad1bca81698248f2b80e87625c3d50b4cc9afba5132a0081adfdf16319ff7ef90b63db85f590c2038ab10724da0369f32ffadd6b6a8a3",
      "networkId": 0,
      "chainId": 0
    },
    {
      "hash": "0x5256734ae79b7d0a5e1b71bcfe299017f2d620aa5de98e8bd498e3823d81f01f",
      "blockHash": "0xaaea186b85c2b2be66a7b2a6a4583113388d0f8508a1f16270e618d8fb562280",
      "blockNumber": 80874,
      "transactionIndex": 3,
      "confirmations": null,
      "from": "0x16523F61826ef02827951E2E64104db2dA8a0329",
      "gasPrice": {
        "_hex": "0xd963c795f"
      },
      "gasLimit": {
        "_hex": "0x5208"
      },
      "to": "0x32Be343B94f860124dC4fEe278FDCBD38C102D88",
      "value": {
        "_hex": "0x1b1abcf563db920000"
      },
      "nonce": 0,
      "data": "0x",
      "r": "0x48041d0d3c0991a90625b9610c260dace254870d2b750461ef156f7a2d813afc",
      "s": "0x4abdd3751f2103859b41f92946129142fb7a1dced15839635afbc34d8410300a",
      "v": 28,
      "creates": null,
      "raw": "0xf86d80850d963c795f8252089432be343b94f860124dc4fee278fdcbd38c102d88891b1abcf563db920000801ca048041d0d3c0991a90625b9610c260dace254870d2b750461ef156f7a2d813afca04abdd3751f2103859b41f92946129142fb7a1dced15839635afbc34d8410300a",
      "networkId": 0,
      "chainId": 0
    },
    {
      "hash": "0xa8a3769ae68073409f9858c034e46e223015a8af86c09b0f1e765d46f19f9801",
      "blockHash": "0xaaea186b85c2b2be66a7b2a6a4583113388d0f8508a1f16270e618d8fb562280",
      "blockNumber": 80874,
      "transactionIndex": 4,
      "confirmations": null,
      "from": "0xC7D86867a958b0F52385C9c1CD058B6d1eBdEc94",
      "gasPrice": {
        "_hex": "0xd963c795f"
      },
      "gasLimit": {
        "_hex": "0x5208"
      },
      "to": "0x32Be343B94f860124dC4fEe278FDCBD38C102D88",
      "value": {
        "_hex": "0x455f36f5a0f77800"
      },
      "nonce": 0,
      "data": "0x",
      "r": "0x4537d3fcdbfb30aa3430c153cb05ea2dd93dade6d5f10fb9e1dc2ddedcd83d92",
      "s": "0x0f8007ffaec9609bcc431b992e0de7798a9e5752f8a8c2956183f4287c39e6c6",
      "v": 28,
      "creates": null,
      "raw": "0xf86c80850d963c795f8252089432be343b94f860124dc4fee278fdcbd38c102d8888455f36f5a0f77800801ca04537d3fcdbfb30aa3430c153cb05ea2dd93dade6d5f10fb9e1dc2ddedcd83d92a00f8007ffaec9609bcc431b992e0de7798a9e5752f8a8c2956183f4287c39e6c6",
      "networkId": 0,
      "chainId": 0
    },
    {
      "hash": "0xb7ac74a839e7f27e9fbf7b8cb54d45dfb88eae8d4c6db6ff9c30f06224614a79",
      "blockHash": "0xaaea186b85c2b2be66a7b2a6a4583113388d0f8508a1f16270e618d8fb562280",
      "blockNumber": 80874,
      "transactionIndex": 5,
      "confirmations": null,
      "from": "0x37A8F34f58a1a6894b514E33142e1a3eb63b2a52",
      "gasPrice": {
        "_hex": "0xd963c795f"
      },
      "gasLimit": {
        "_hex": "0x5208"
      },
      "to": "0x32Be343B94f860124dC4fEe278FDCBD38C102D88",
      "value": {
        "_hex": "0x324e50a2748ab8000"
      },
      "nonce": 0,
      "data": "0x",
      "r": "0x2a2b7268b577ac0e0c3f3d9f3856ede30cf844280738072689fb4940e0143622",
      "s": "0x54dc45c8ec975c75b17361170123386c3faa89e24dd0c467ee9f357d8ff1c91d",
      "v": 27,
      "creates": null,
      "raw": "0xf86d80850d963c795f8252089432be343b94f860124dc4fee278fdcbd38c102d88890324e50a2748ab8000801ba02a2b7268b577ac0e0c3f3d9f3856ede30cf844280738072689fb4940e0143622a054dc45c8ec975c75b17361170123386c3faa89e24dd0c467ee9f357d8ff1c91d",
      "networkId": 0,
      "chainId": 0
    },
    {
      "hash": "0xe892bc0b0e33d21b7dbcb278ec14bcee3fadc7dfac4815626ff97c0efb111035",
      "blockHash": "0xaaea186b85c2b2be66a7b2a6a4583113388d0f8508a1f16270e618d8fb562280",
      "blockNumber": 80874,
      "transactionIndex": 6,
      "confirmations": null,
      "from": "0xaA9485EBA854ABA86Bfdd64C8f4f08Badd0f31C3",
      "gasPrice": {
        "_hex": "0xd963c795f"
      },
      "gasLimit": {
        "_hex": "0x5208"
      },
      "to": "0x32Be343B94f860124dC4fEe278FDCBD38C102D88",
      "value": {
        "_hex": "0x43bd695a8ba058000"
      },
      "nonce": 1,
      "data": "0x",
      "r": "0x3ebfc7e780f004059b52bd57098e40edcaa2d03b1f6e2a32cacf4e524afe0f49",
      "s": "0x6ac0cedd874434820f60425350af59f8cb997c566fda6ff0219416f65fe7cfa9",
      "v": 27,
      "creates": null,
      "raw": "0xf86d01850d963c795f8252089432be343b94f860124dc4fee278fdcbd38c102d8889043bd695a8ba058000801ba03ebfc7e780f004059b52bd57098e40edcaa2d03b1f6e2a32cacf4e524afe0f49a06ac0cedd874434820f60425350af59f8cb997c566fda6ff0219416f65fe7cfa9",
      "networkId": 0,
      "chainId": 0
    },
    {
      "hash": "0xf51d3cf665d5ef409cac75812c21fa3817993ce4311ff30a1b2f1e557b084898",
      "blockHash": "0xaaea186b85c2b2be66a7b2a6a4583113388d0f8508a1f16270e618d8fb562280",
      "blockNumber": 80874,
      "transactionIndex": 7,
      "confirmations": null,
      "from": "0x1d6C4F7d4438bd7E81D4FE153Dd956bCaBcfF265",
      "gasPrice": {
        "_hex": "0xcd774d677"
      },
      "gasLimit": {
        "_hex": "0x15f90"
      },
      "to": "0xaA9485EBA854ABA86Bfdd64C8f4f08Badd0f31C3",
      "value": {
        "_hex": "0x5ccec5d16f6cc0000"
      },
      "nonce": 0,
      "data": "0x",
      "r": "0x78bb3ab58870717ef350efb0806453da3f4ec4e17dfdc38fb4610264e75bd4ad",
      "s": "0x67073955eb7d80de6d29cf23e9c6ce7ab4ef5dd7e6a501964a8f8d9cdff2b832",
      "v": 28,
      "creates": null,
      "raw": "0xf86e80850cd774d67783015f9094aa9485eba854aba86bfdd64c8f4f08badd0f31c38905ccec5d16f6cc0000801ca078bb3ab58870717ef350efb0806453da3f4ec4e17dfdc38fb4610264e75bd4ada067073955eb7d80de6d29cf23e9c6ce7ab4ef5dd7e6a501964a8f8d9cdff2b832",
      "networkId": 0,
      "chainId": 0
    }
  ]
}