{
  "hash": "0x2d7d738e5717076a269277240f925c7f0531293c47764d02fdbc7e410b390cf5",
  "parentHash": "0x5d154b71e144c793dec9fc7b452f020cce1557988ad951e08f29801924e7e80f",
  "number": 120444,
  "timestamp": 1440160060,
  "nonce": "0x93d614a428031cba",
  "difficulty": 4402498567507,
  "gasLimit": {
    "_hex": "0x2fefd8"
  },
  "gasUsed": {
    "_hex": "0x5208"
  },
  "miner": "0xa50ec0D39fa913E62f1Bae7074E6F36caA71855b",
  "extraData": "0xd783010100844765746887676f312e342e32856c696e7578",
  "transactions": [
    {
      "hash": "0x8ca0f8872d658aebc603c7fce20984987c2725dd4281bdbb6d7bb28338f00640",
      "blockHash": "0x2d7d738e5717076a269277240f925c7f0531293c47764d02fdbc7e410b390cf5",
      "blockNumber": 120444,
      "transactionIndex": 0,
      "confirmations": null,
      "from": "0x7884D470204862a0d1A21122F41ee77430396Ee5",
      "gasPrice": {
        "_hex": "0xdf14bd082"
      },
      "gasLimit": {
        "_hex": "0x15f90"
      },
      "to": "0xa3996Da6398FEd2F271F75486d810eF151dc9e71",
      "value": {
        "_hex": "0x186cc6acd4b0000"
      },
      "nonce": 110,
      "data": "0x",
      "r": "0xb15d7874ce180cb4305bd0d26529bf891e03ed7e1aef5c1cca4f074521a58ec2",
      "s": "0x176affb538708da351693d290f3f601944c346ba874b419e77767e3925d6f2a9",
      "v": 28,
      "creates": null,
      "raw": "0xf86d6e850df14bd08283015f9094a3996da6398fed2f271f75486d810ef151dc9e71880186cc6acd4b0000801ca0b15d7874ce180cb4305bd0d26529bf891e03ed7e1aef5c1cca4f074521a58ec2a0176affb538708da351693d290f3f601944c346ba874b419e77767e3925d6f2a9",
      "networkId": 0,
      "chainId": 0
    }
  ]
}