{
  "hash": "0x9a3c9b8349130c6af65be39336af534eef3a67cc092227b4143aecf1a72f246d",
  "parentHash": "0xfa3dbcb01456e2694ae43dd84a5d555fa8e28ba6f81f5c708e5c27f0cf13c3a2",
  "number": 68690,
  "timestamp": 1439292163,
  "nonce": "0xb3d8f15c41c251a2",
  "difficulty": 2018205841841,
  "gasLimit": {
    "_hex": "0x2fefd8"
  },
  "gasUsed": {
    "_hex": "0x5208"
  },
  "miner": "0x88D74a59454F6cF3B51ef6b9136AFb6b9D405A88",
  "extraData": "0x476574682f76312e302e312d38326566323666362f6c696e75782f676f312e34",
  "transactions": [
    {
      "hash": "0x1a3c163609ce15973ac16adc7be992593b6fcdd466c64e30e5909b1341261017",
      "blockHash": "0x9a3c9b8349130c6af65be39336af534eef3a67cc092227b4143aecf1a72f246d",
      "blockNumber": 68690,
      "transactionIndex": 0,
      "confirmations": null,
      "from": "0x32Be343B94f860124dC4fEe278FDCBD38C102D88",
      "gasPrice": {
        "_hex": "0xd066842ea"
      },
      "gasLimit": {
        "_hex": "0x5208"
      },
      "to": "0x196fD2a85180d94075490F5E912AEAb912DecDf8",
      "value": {
        "_hex": "0xf18a4562aab8000"
      },
      "nonce": 229,
      "data": "0x",
      "r": "0xb56ba5ca18a1a17e6f68202c637b5cf49d18150b7c6907eef9036b84332bded4",
      "s": "0x1f7fdf2a3c8075f6992b1cbb04f4c6909650919570bcbe6e9f98b1d1caca2512",
      "v": 28,
      "creates": null,
      "raw": "0xf86d81e5850d066842ea82520894196fd2a85180d94075490f5e912aeab912decdf8880f18a4562aab8000801ca0b56ba5ca18a1a17e6f68202c637b5cf49d18150b7c6907eef9036b84332bded4a01f7fdf2a3c8075f6992b1cbb04f4c6909650919570bcbe6e9f98b1d1caca2512",
      "networkId": 0,
      "chainId": 0
    }
  ]
}