{
  "hash": "0xbaccea8206b53e4435d46a9153d82764ed1e6512ffb170662350093ae4b8383b",
  "parentHash": "0xfb2cd598f9de854d0fe800ad6932f1ffa2b54f29d77fae7cd15476d82a297853",
  "number": 119297,
  "timestamp": 1440140258,
  "nonce": "0xc63530c5313e4ab4",
  "difficulty": 4422492718898,
  "gasLimit": {
    "_hex": "0x2fefd8"
  },
  "gasUsed": {
    "_hex": "0x546c"
  },
  "miner": "0xe6A7a1d47ff21B6321162AEA7C6CB457D5476Bca",
  "extraData": "0xd783010002844765746887676f312e342e32856c696e7578",
  "transactions": [
    {
      "hash": "0xd55aba302670b1c21898057671fab2b3e602b74b825ba0670a7956276a5dbb4d",
      "blockHash": "0xbaccea8206b53e4435d46a9153d82764ed1e6512ffb170662350093ae4b8383b",
      "blockNumber": 119297,
      "transactionIndex": 0,
      "confirmations": null,
      "from": "0xe9c758f8da41e3346e4350E5Ac3976345C6c1082",
      "gasPrice": {
        "_hex": "0x110c8f7d8de"
      },
      "gasLimit": {
        "_hex": "0xc350"
      },
      "to": "0x2910543Af39abA0Cd09dBb2D50200b3E800A63D2",
      "value": {
        "_hex": "0x8ac7230489e80000"
      },
      "nonce": 0,
      "data": "0x454e474b4148583338",
      "r": "0x3bedb8a0101d2104b13aca4c1045370a344f33c7b4f2d0f1f288fc1c43620844",
      "s": "0x4ebf3d8b2004655303ae1afef6aef4f543882c2f92e9ea159f2bccb08743289b",
      "v": 27,
      "creates": null,
      "raw": "0xf87680860110c8f7d8de82c350942910543af39aba0cd09dbb2d50200b3e800a63d2888ac7230489e8000089454e474b41485833381ba03bedb8a0101d2104b13aca4c1045370a344f33c7b4f2d0f1f288fc1c43620844a04ebf3d8b2004655303ae1afef6aef4f543882c2f92e9ea159f2bccb08743289b",
      "networkId": 0,
      "chainId": 0
    }
  ]
}