{
  "hash": "0x3ba6eeeb5533bc0258e71ace1d2713881aeefc1e127b91f336cdfc18a46f2ddf",
  "parentHash": "0xe35bcc2edffe4017c1d257441b3a8ebfb669c455cb8700058aeeddf85420e720",
  "number": 56633,
  "timestamp": 1439090127,
  "nonce": "0xb583c0cdd9529ad5",
  "difficulty": 1679653660719,
  "gasLimit": {
    "_hex": "0x2fefd8"
  },
  "gasUsed": {
    "_hex": "0x546c"
  },
  "miner": "0xbe4532E1B1Db5c913Cf553be76180c1777055403",
  "extraData": "0x476574682f686261722f76312e302e312f6c696e75782f676f312e342e32",
  "transactions": [
    {
      "hash": "0xb0f142bde0a9fa4f55624b5bec7e5b274a71bca7d97e00f85ffbc50a66f22356",
      "blockHash": "0x3ba6eeeb5533bc0258e71ace1d2713881aeefc1e127b91f336cdfc18a46f2ddf",
      "blockNumber": 56633,
      "transactionIndex": 0,
      "confirmations": null,
      "from": "0xD09cb2e6082d693A13E8d2f68DD1DD8461F55840",
      "gasPrice": {
        "_hex": "0x110c8f7d8de"
      },
      "gasLimit": {
        "_hex": "0xc350"
      },
      "to": "0x2910543Af39abA0Cd09dBb2D50200b3E800A63D2",
      "value": {
        "_hex": "0x1568e4bd84a8c60000"
      },
      "nonce": 2,
      "data": "0x454e36314a33313647",
      "r": "0xe6538f446451bee16ab580104f64a683b1486f351ad1f2797dcdf7dce839eff0",
      "s": "0xec32bab640f7f75e121cff29cc0e9145dcb21c40061e0f0886edfa38416dc695",
      "v": 28,
      "creates": null,
      "raw": "0xf87702860110c8f7d8de82c350942910543af39aba0cd09dbb2d50200b3e800a63d2891568e4bd84a8c6000089454e36314a333136471ca0e6538f446451bee16ab580104f64a683b1486f351ad1f2797dcdf7dce839eff0a0ec32bab640f7f75e121cff29cc0e9145dcb21c40061e0f0886edfa38416dc695",
      "networkId": 0,
      "chainId": 0
    }
  ]
}