{
  "hash": "0x0cf22b194e6b7178d952526362444adbf6a5fe7317971f15bf858f9e0b93d678",
  "parentHash": "0x0119623dec9d4bff54f0575c0bdac1cfe242577697f28506e978a38991cb0ea9",
  "number": 96590,
  "timestamp": 1439742689,
  "nonce": "0x67bbf718654cf64c",
  "difficulty": 3714203590722,
  "gasLimit": {
    "_hex": "0x2fefd8"
  },
  "gasUsed": {
    "_hex": "0x5208"
  },
  "miner": "0xC603Ab5ef41fC61AA8b76bEddb09e3Cfcbb174BD",
  "extraData": "0x476574682f76312e302e312f77696e646f77732f676f312e342e32",
  "transactions": [
    {
      "hash": "0xbf937824c6ad609f536e80fe9a35bc6f81fcea3e3729c265cda9e09cda77fd2d",
      "blockHash": "0x0cf22b194e6b7178d952526362444adbf6a5fe7317971f15bf858f9e0b93d678",
      "blockNumber": 96590,
      "transactionIndex": 0,
      "confirmations": null,
      "from": "0xb1abce2918E21ddb93AA452731a12672A3d9F75a",
      "gasPrice": {
        "_hex": "0xcc01f88d4"
      },
      "gasLimit": {
        "_hex": "0x5208"
      },
      "to": "0x32Be343B94f860124dC4fEe278FDCBD38C102D88",
      "value": {
        "_hex": "0x455f7b925f5e5800"
      },
      "nonce": 59,
      "data": "0x",
      "r": "0xc226e0479f5461dcb5ede4f9636de67ee54220b4de1bf6cc42e3fa8954598ff4",
      "s": "0x1ebdb82b22f39355cbc1beac2cc7fc3cb3c8b00dfe152050c85d3145884c97e1",
      "v": 27,
      "creates": null,
      "raw": "0xf86c3b850cc01f88d48252089432be343b94f860124dc4fee278fdcbd38c102d8888455f7b925f5e5800801ba0c226e0479f5461dcb5ede4f9636de67ee54220b4de1bf6cc42e3fa8954598ff4a01ebdb82b22f39355cbc1beac2cc7fc3cb3c8b00dfe152050c85d3145884c97e1",
      "networkId": 0,
      "chainId": 0
    }
  ]
}