{
  "hash": "0xe200a4f24d8b80ffe326a89ce53b21023ee4e7f97b32358eca4fee463ab35d40",
  "parentHash": "0xe9b02dcd0298eae18f07dfbe6d2f95d3891f752728c701c265be045810abde7b",
  "number": 79091,
  "timestamp": 1439464222,
  "nonce": "0x9de947943f2d10d2",
  "difficulty": 2323463310070,
  "gasLimit": {
    "_hex": "0x2fefd8"
  },
  "gasUsed": {
    "_hex": "0xa410"
  },
  "miner": "0xa70a9a7040d542C632D8e0bE7c5513A8a5Bbc752",
  "extraData": "0x",
  "transactions": [
    {
      "hash": "0xd8f504f3694fa4ca7d13c40014efb74151d15d7bcdd51461002aba4f50ed43e1",
      "blockHash": "0xe200a4f24d8b80ffe326a89ce53b21023ee4e7f97b32358eca4fee463ab35d40",
      "blockNumber": 79091,
      "transactionIndex": 0,
      "confirmations": null,
      "from": "0xe6A7a1d47ff21B6321162AEA7C6CB457D5476Bca",
      "gasPrice": {
        "_hex": "0xd87e41b04"
      },
      "gasLimit": {
        "_hex": "0x55f0"
      },
      "to": "0x1918175e6aB029996E0BC00238AeA5f89f3F84ad",
      "value": {
        "_hex": "0x232a50e0ba8b6800"
      },
      "nonce": 1109,
      "data": "0x",
      "r": "0xb49045ef701f1242c917c93bb05a0b7e79b1f1b9759f594b00b3660786479340",
      "s": "0x38507a31d63022c13250f176360b877804bdc9c8b0c26609cde1be8693f0e955",
      "v": 28,
      "creates": null,
      "raw": "0xf86e820455850d87e41b048255f0941918175e6ab029996e0bc00238aea5f89f3f84ad88232a50e0ba8b6800801ca0b49045ef701f1242c917c93bb05a0b7e79b1f1b9759f594b00b3660786479340a038507a31d63022c13250f176360b877804bdc9c8b0c26609cde1be8693f0e955",
      "networkId": 0,
      "chainId": 0
    },
    {
      "hash": "0x58ffaf80d29c7a4c098b3ac8ef64370d52dcb77aaa40b2e01e174a74ae550687",
      "blockHash": "0xe200a4f24d8b80ffe326a89ce53b21023ee4e7f97b32358eca4fee463ab35d40",
      "blockNumber": 79091,
      "transactionIndex": 1,
      "confirmations": null,
      "from": "0xe6A7a1d47ff21B6321162AEA7C6CB457D5476Bca",
      "gasPrice": {
        "_hex": "0xd68208d52"
      },
      "gasLimit": {
        "_hex": "0x55f0"
      },
      "to": "0x663555F143e6a4674c0FdF2e73f12fdaf5D51112",
      "value": {
        "_hex": "0x23598d602db3f5f0"
      },
      "nonce": 1110,
      "data": "0x",
      "r": "0x57beb62790301768b99647958a370051651ac41e201a50ac352fa113b03b20af",
      "s": "0x31a5801e5b8b228314150ffac4914b74e850bc4216f9658e48a15577d9f4abf7",
      "v": 27,
      "creates": null,
      "raw": "0xf86e820456850d68208d528255f094663555f143e6a4674c0fdf2e73f12fdaf5d511128823598d602db3f5f0801ba057beb62790301768b99647958a370051651ac41e201a50ac352fa113b03b20afa031a5801e5b8b228314150ffac4914b74e850bc4216f9658e48a15577d9f4abf7",
      "networkId": 0,
      "chainId": 0
    }
  ]
}