{
  "hash": "0x6c92d79f8349bc07de9b6946740893db74534220601dfe610ae797ab5eae3272",
  "parentHash": "0xad334183aff9dab706ec0f99e3403be92bbec0acace918e997943b6acd013c18",
  "number": 49010,
  "timestamp": 1438966362,
  "nonce": "0xfa8f0364b2b714c2",
  "difficulty": 1487263340441,
  "gasLimit": {
    "_hex": "0x234e1"
  },
  "gasUsed": {
    "_hex": "0xa674"
  },
  "miner": "0x9298A283561414096A90B8e52c2202D03F3406A9",
  "extraData": "0x476574682f76312e302e312f6c696e75782f676f312e342e32",
  "transactions": [
    {
      "hash": "0xd99e6a51d722b94c9bb4a06853d33d4147492fc167d60631b95e2aeffe093921",
      "blockHash": "0x6c92d79f8349bc07de9b6946740893db74534220601dfe610ae797ab5eae3272",
      "blockNumber": 49010,
      "transactionIndex": 0,
      "confirmations": null,
      "from": "0x51865db148881951f51251710e82b9Be0d7eaDB2",
      "gasPrice": {
        "_hex": "0x117edb86d59"
      },
      "gasLimit": {
        "_hex": "0x15f90"
      },
      "to": "0x2910543Af39abA0Cd09dBb2D50200b3E800A63D2",
      "value": {
        "_hex": "0x35f0661c4399ac0000"
      },
      "nonce": 1,
      "data": "0x454e525942374b5938",
      "r": "0x6488a6c92855d4e8fe4a839e5766a16961a2d6e17a5837e324be7625dc42459f",
      "s": "0x413922809992849470826cc8cdb83d798752e2af52e4933d649cf6efaa991da3",
      "v": 28,
      "creates": null,
      "raw": "0xf87801860117edb86d5983015f90942910543af39aba0cd09dbb2d50200b3e800a63d28935f0661c4399ac000089454e525942374b59381ca06488a6c92855d4e8fe4a839e5766a16961a2d6e17a5837e324be7625dc42459fa0413922809992849470826cc8cdb83d798752e2af52e4933d649cf6efaa991da3",
      "networkId": 0,
      "chainId": 0
    },
    {
      "hash": "0x86a966902418717a861127d34598fcce98e239886061291dbd69c1196c8d0ae0",
      "blockHash": "0x6c92d79f8349bc07de9b6946740893db74534220601dfe610ae797ab5eae3272",
      "blockNumber": 49010,
      "transactionIndex": 1,
      "confirmations": null,
      "from": "0xE6d49F86C228f47367a35E886CAACB271e539429",
      "gasPrice": {
        "_hex": "0x45d964b800"
      },
      "gasLimit": {
        "_hex": "0x5208"
      },
      "to": "0x1Bb2E0301Ccc81367BC1C2c97B9d60548ECe3B69",
      "value": {
        "_hex": "0xde0b6b3a7640000"
      },
      "nonce": 2,
      "data": "0x",
      "r": "0x1bbb38205113d9b212f0a7d52191347ab06ceedd8dd10c74b1a0bd479c3acffc",
      "s": "0x35f693a9a2a15a538a4c744c8e80dee40fa0241d315887ae84a8abaade485fd6",
      "v": 28,
      "creates": null,
      "raw": "0xf86c028545d964b800825208941bb2e0301ccc81367bc1c2c97b9d60548ece3b69880de0b6b3a7640000801ca01bbb38205113d9b212f0a7d52191347ab06ceedd8dd10c74b1a0bd479c3acffca035f693a9a2a15a538a4c744c8e80dee40fa0241d315887ae84a8abaade485fd6",
      "networkId": 0,
      "chainId": 0
    }
  ]
}