{
  "hash": "0x4a6da6bcb60c538296375dc8da3710ce8486533378c8d6a421b327d264c95dd2",
  "parentHash": "0x1d7a0ef5b81b3b9d976be5371383b3e7df1018a965a52b8de0ec143c7f140886",
  "number": 64604,
  "timestamp": 1439223436,
  "nonce": "0x008e3fd5373f986a",
  "difficulty": 1891303579956,
  "gasLimit": {
    "_hex": "0x2fefd8"
  },
  "gasUsed": {
    "_hex": "0x272f0"
  },
  "miner": "0xf927a40C8B7F6E07c5af7FA2155B4864a4112B13",
  "extraData": "0x",
  "transactions": [
    {
      "hash": "0x04c85468c615738cf47c50dbb09fb7d4a572287aad183b3f79d746317a8c7758",
      "blockHash": "0x4a6da6bcb60c538296375dc8da3710ce8486533378c8d6a421b327d264c95dd2",
      "blockNumber": 64604,
      "transactionIndex": 0,
      "confirmations": null,
      "from": "0xaFA6B25669A8e28d6EfBE9350C7198B086E0d926",
      "gasPrice": {
        "_hex": "0xba43b7400"
      },
      "gasLimit": {
        "_hex": "0x5208"
      },
      "to": "0x2532Ae875FD239DD5f303dB643011a80bBFF49a6",
      "value": {
        "_hex": "0x36ef271c4dd000"
      },
      "nonce": 1,
      "data": "0x",
      "r": "0xe147857a496ec0b64aa1ecb0e3db5f6fefaafe91b13c69400075c5d1f4ad66e9",
      "s": "0x1768ca96d5ab4eacf7ba6047c354596e9a507d789464d109f44598226f6411aa",
      "v": 27,
      "creates": null,
      "raw": "0xf86b01850ba43b7400825208942532ae875fd239dd5f303db643011a80bbff49a68736ef271c4dd000801ba0e147857a496ec0b64aa1ecb0e3db5f6fefaafe91b13c69400075c5d1f4ad66e9a01768ca96d5ab4eacf7ba6047c354596e9a507d789464d109f44598226f6411aa",
      "networkId": 0,
      "chainId": 0
    },
    {
      "hash": "0x748b50c0eb04e95a69cc073b2d655a14103b62d3b5432f9ba1830cedcd240126",
      "blockHash": "0x4a6da6bcb60c538296375dc8da3710ce8486533378c8d6a421b327d264c95dd2",
      "blockNumber": 64604,
      "transactionIndex": 1,
      "confirmations": null,
      "from": "0x32E7Fb3cACD1A97Ff982D489ac1485FBA183aeF2",
      "gasPrice": {
        "_hex": "0xba43b7400"
      },
      "gasLimit": {
        "_hex": "0x15f90"
      },
      "to": "0x793AE8C1b1a160BFc07BFB0d04F85eab1A71F4f2",
      "value": {
        "_hex": "0x0"
      },
      "nonce": 0,
      "data": "0x3ba15036",
      "r": "0x4a5b60299dc5e1c67040c0404a8cee3aea64218abeba458af6709a07a5701d50",
      "s": "0x49c87aebdc90b8418d628898a6730f1d3c925e3975aa42de5500636ed46edf97",
      "v": 28,
      "creates": null,
      "raw": "0xf86980850ba43b740083015f9094793ae8c1b1a160bfc07bfb0d04f85eab1a71f4f280843ba150361ca04a5b60299dc5e1c67040c0404a8cee3aea64218abeba458af6709a07a5701d50a049c87aebdc90b8418d628898a6730f1d3c925e3975aa42de5500636ed46edf97",
      "networkId": 0,
      "chainId": 0
    },
    {
      "hash": "0xcb432735e0412e00764ec946898f9c426242bc5960f8608bbea16ddc3ecc7c27",
      "blockHash": "0x4a6da6bcb60c538296375dc8da3710ce8486533378c8d6a421b327d264c95dd2",
      "blockNumber": 64604,
      "transactionIndex": 2,
      "confirmations": null,
      "from": "0xB0463d06A1064c69Cd455A332054e3D25B2a5292",
      "gasPrice": {
        "_hex": "0xba43b7400"
      },
      "gasLimit": {
        "_hex": "0x15f90"
      },
      "to": "0x793AE8C1b1a160BFc07BFB0d04F85eab1A71F4f2",
      "value": {
        "_hex": "0x0"
      },
      "nonce": 0,
      "data": "0x3ba15036",
      "r": "0x882ae2b916b99c0fe8b0ae846c97c722cc00eb0cbfe108f72af0149a94a0a707",
      "s": "0x52c01244a834f632b2cc8eef9d5431433ec334c53c165cd7fee5dfc63e1e7afc",
      "v": 27,
      "creates": null,
      "raw": "0xf86980850ba43b740083015f9094793ae8c1b1a160bfc07bfb0d04f85eab1a71f4f280843ba150361ba0882ae2b916b99c0fe8b0ae846c97c722cc00eb0cbfe108f72af0149a94a0a707a052c01244a834f632b2cc8eef9d5431433ec334c53c165cd7fee5dfc63e1e7afc",
      "networkId": 0,
      "chainId": 0
    },
    {
      "hash": "0x753577a9a5e13de275de8296fb88efe459d8b562efed5db7dea875c8acffbd60",
      "blockHash": "0x4a6da6bcb60c538296375dc8da3710ce8486533378c8d6a421b327d264c95dd2",
      "blockNumber": 64604,
      "transactionIndex": 3,
      "confirmations": null,
      "from": "0x3426DD8C75EEDbba37D7501f3410967385101F50",
      "gasPrice": {
        "_hex": "0xba43b7400"
      },
      "gasLimit": {
        "_hex": "0x5208"
      },
      "to": "0x3f00A880b635612516591a7F662F86119390a41a",
      "value": {
        "_hex": "0x4e1253f5de4000"
      },
      "nonce": 1,
      "data": "0x",
      "r": "0xe42d652bb254d6504926afc5e06e849ec6215b58df34dd578d50d646387a2ef7",
      "s": "0x0fb4f00a94fe08031cffa95209f6a4bb099b5d37a014d9a043844ba1c151c94c",
      "v": 28,
      "creates": null,
      "raw": "0xf86b01850ba43b7400825208943f00a880b635612516591a7f662f86119390a41a874e1253f5de4000801ca0e42d652bb254d6504926afc5e06e849ec6215b58df34dd578d50d646387a2ef7a00fb4f00a94fe08031cffa95209f6a4bb099b5d37a014d9a043844ba1c151c94c",
      "networkId": 0,
      "chainId": 0
    },
    {
      "hash": "0x893a9c28ed45db1a833c011a98862b487643ef1116c566305c26b28bbe3c6efb",
      "blockHash": "0x4a6da6bcb60c538296375dc8da3710ce8486533378c8d6a421b327d264c95dd2",
      "blockNumber": 64604,
      "transactionIndex": 4,
      "confirmations": null,
      "from": "0x6747f922385c9a6F9cfDf095F34345257DD597bE",
      "gasPrice": {
        "_hex": "0xba43b7400"
      },
      "gasLimit": {
        "_hex": "0x5208"
      },
      "to": "0xa4BF122dE95312d05F56B54182368a0B56e0Ee6b",
      "value": {
        "_hex": "0x1fcbfa42bd6000"
      },
      "nonce": 14,
      "data": "0x",
      "r": "0xdce9ac08a14dd318504befb2229792dd060b02030e12216a25f5a1b66355c6fc",
      "s": "0x0d4f736df32a8ae47f9fadf31d6d71895a36ca7e9d925a33ccf2e91729f7976d",
      "v": 28,
      "creates": null,
      "raw": "0xf86b0e850ba43b740082520894a4bf122de95312d05f56b54182368a0b56e0ee6b871fcbfa42bd6000801ca0dce9ac08a14dd318504befb2229792dd060b02030e12216a25f5a1b66355c6fca00d4f736df32a8ae47f9fadf31d6d71895a36ca7e9d925a33ccf2e91729f7976d",
      "networkId": 0,
      "chainId": 0
    }
  ]
}