{
  "hash": "0x87e66aab1e2fb67711b91eae63393c95df60d77f11b059140fa017b1d5f97965",
  "parentHash": "0x6b2548941938cb99d3580a8ac56e119d9e45e29a1c3b32e2b9c8189bf335bcca",
  "number": 108134,
  "timestamp": 1439934644,
  "nonce": "0x28bffda04e7cd41f",
  "difficulty": 4374652997963,
  "gasLimit": {
    "_hex": "0x2fefd8"
  },
  "gasUsed": {
    "_hex": "0x14820"
  },
  "miner": "0xe6A7a1d47ff21B6321162AEA7C6CB457D5476Bca",
  "extraData": "0x476574682f76312e302e312d38326566323666362f6c696e75782f676f312e34",
  "transactions": [
    {
      "hash": "0x520a929f799d2375bfe0b0f1ee4ecc3fa577fbce038dfde0867d4472801b3cae",
      "blockHash": "0x87e66aab1e2fb67711b91eae63393c95df60d77f11b059140fa017b1d5f97965",
      "blockNumber": 108134,
      "transactionIndex": 0,
      "confirmations": null,
      "from": "0x2Ba293248CEDDE748A4b083fb63829d20D32607d",
      "gasPrice": {
        "_hex": "0xdee6433c5"
      },
      "gasLimit": {
        "_hex": "0x5208"
      },
      "to": "0x32Be343B94f860124dC4fEe278FDCBD38C102D88",
      "value": {
        "_hex": "0xa5cdbd393bed800"
      },
      "nonce": 0,
      "data": "0x",
      "r": "0xd005c26654506949443773165372cb7c645d9203176ceed8244f67695d9edb22",
      "s": "0x6cded2134cc04ead238a0bda0d69edb1b877270edf3bdaf67e93c309ef48edf8",
      "v": 27,
      "creates": null,
      "raw": "0xf86c80850dee6433c58252089432be343b94f860124dc4fee278fdcbd38c102d88880a5cdbd393bed800801ba0d005c26654506949443773165372cb7c645d9203176ceed8244f67695d9edb22a06cded2134cc04ead238a0bda0d69edb1b877270edf3bdaf67e93c309ef48edf8",
      "networkId": 0,
      "chainId": 0
    },
    {
      "hash": "0xdbc3e750f28733f74c4e83c94f9f3955ac8feb3b9570385d0442c1c4503dae4d",
      "blockHash": "0x87e66aab1e2fb67711b91eae63393c95df60d77f11b059140fa017b1d5f97965",
      "blockNumber": 108134,
      "transactionIndex": 1,
      "confirmations": null,
      "from": "0x9b348D2bdf75e886B346cC967d890E5Ff93535B6",
      "gasPrice": {
        "_hex": "0xdee6433c5"
      },
      "gasLimit": {
        "_hex": "0x5208"
      },
      "to": "0x32Be343B94f860124dC4fEe278FDCBD38C102D88",
      "value": {
        "_hex": "0x1e2770331951fc00"
      },
      "nonce": 0,
      "data": "0x",
      "r": "0x295428523093fd3f2cad8bef2b1fe051461626d76aa7f84d9f35e4a67db47ab5",
      "s": "0x72b5f42de8cdfce81ede6871b4013a9f51ea35ab1fba11d976ac0592f59b52a0",
      "v": 27,
      "creates": null,
      "raw": "0xf86c80850dee6433c58252089432be343b94f860124dc4fee278fdcbd38c102d88881e2770331951fc00801ba0295428523093fd3f2cad8bef2b1fe051461626d76aa7f84d9f35e4a67db47ab5a072b5f42de8cdfce81ede6871b4013a9f51ea35ab1fba11d976ac0592f59b52a0",
      "networkId": 0,
      "chainId": 0
    },
    {
      "hash": "0xcaf5dd039d7af177a6083984083b92da11de8bef946dcf4295f7cc4771e75804",
      "blockHash": "0x87e66aab1e2fb67711b91eae63393c95df60d77f11b059140fa017b1d5f97965",
      "blockNumber": 108134,
      "transactionIndex": 2,
      "confirmations": null,
      "from": "0x120A270bbC009644e35F0bB6ab13f95b8199c4ad",
      "gasPrice": {
        "_hex": "0xd6b953d90"
      },
      "gasLimit": {
        "_hex": "0x3d090"
      },
      "to": "0xD021d7e87Aa8053C9A196aEF9ad37Aa7CdC44898",
      "value": {
        "_hex": "0x5944cc022c7867000"
      },
      "nonce": 827,
      "data": "0x",
      "r": "0x0355ef0eff44c1db4be2f58bc6168cd5f0c4e4032f8a601b80df0b1c10f32f44",
      "s": "0x5e9ff47a331e759abd8af39969e78a3efc0617ef08d746fc8bf92abf48415846",
      "v": 28,
      "creates": null,
      "raw": "0xf87082033b850d6b953d908303d09094d021d7e87aa8053c9a196aef9ad37aa7cdc448988905944cc022c7867000801ca00355ef0eff44c1db4be2f58bc6168cd5f0c4e4032f8a601b80df0b1c10f32f44a05e9ff47a331e759abd8af39969e78a3efc0617ef08d746fc8bf92abf48415846",
      "networkId": 0,
      "chainId": 0
    },
    {
      "hash": "0xb0930798c7989040f01164fac19a39e1cd77ca671577483ea309ba0378a60f68",
      "blockHash": "0x87e66aab1e2fb67711b91eae63393c95df60d77f11b059140fa017b1d5f97965",
      "blockNumber": 108134,
      "transactionIndex": 3,
      "confirmations": null,
      "from": "0x001bC0Ef77194c76bCf47CD4afFa70Fd84c138EA",
      "gasPrice": {
        "_hex": "0xba43b7400"
      },
      "gasLimit": {
        "_hex": "0x5b04"
      },
      "to": "0xB90a2809c2E22c4Ff9997A58Bd5B96fA2195D7Eb",
      "value": {
        "_hex": "0x56bc75e2d63100000"
      },
      "nonce": 0,
      "data": "0x",
      "r": "0x4e988aad59c1c982701bc04503b6050c9854e3aa2a99cf82a8165fefe31b449c",
      "s": "0x039376d14db7dda41e5ae1d07c017a69dc58dd7f24ee1ce49fff4d03b2516241",
      "v": 27,
      "creates": null,
      "raw": "0xf86d80850ba43b7400825b0494b90a2809c2e22c4ff9997a58bd5b96fa2195d7eb89056bc75e2d63100000801ba04e988aad59c1c982701bc04503b6050c9854e3aa2a99cf82a8165fefe31b449ca0039376d14db7dda41e5ae1d07c017a69dc58dd7f24ee1ce49fff4d03b2516241",
      "networkId": 0,
      "chainId": 0
    }
  ]
}