{
  "hash": "0x69951683739071eb38f3df57eb4a19c159871219262f39db0470a7cf7ce7fb2f",
  "parentHash": "0xe08fd3256d13760e129967c5154e6c889edb49400aba9a3f12b63e2d46700997",
  "number": 52951,
  "timestamp": 1439030032,
  "nonce": "0xdf5c3b26f3f9e4d4",
  "difficulty": 1572427008837,
  "gasLimit": {
    "_hex": "0x1c7747"
  },
  "gasUsed": {
    "_hex": "0x5208"
  },
  "miner": "0xF2d2AfF1320476cb8C6b607199D23175cc595693",
  "extraData": "0x476574682f76312e302e312f77696e646f77732f676f312e342e32",
  "transactions": [
    {
      "hash": "0x30403fb9f8e9ed6dae04084290d19c44d3c706dd32d1fb3a38beefb36e10c4f5",
      "blockHash": "0x69951683739071eb38f3df57eb4a19c159871219262f39db0470a7cf7ce7fb2f",
      "blockNumber": 52951,
      "transactionIndex": 0,
      "confirmations": null,
      "from": "0x99425213944D7885b88Ec9D20D974B7Ac89D62E2",
      "gasPrice": {
        "_hex": "0xdecc8156d"
      },
      "gasLimit": {
        "_hex": "0x5208"
      },
      "to": "0x32Be343B94f860124dC4fEe278FDCBD38C102D88",
      "value": {
        "_hex": "0x1048f31ddbf6cd000"
      },
      "nonce": 2,
      "data": "0x",
      "r": "0x7d9b8a78ec331d045112e5a494dd38756beec81f4fd5da34a97eeac7cc209860",
      "s": "0x4998cacf2e296d346d8ac4b6b00706f37050eb4f504778197150c62d411d1d1a",
      "v": 28,
      "creates": null,
      "raw": "0xf86d02850decc8156d8252089432be343b94f860124dc4fee278fdcbd38c102d888901048f31ddbf6cd000801ca07d9b8a78ec331d045112e5a494dd38756beec81f4fd5da34a97eeac7cc209860a04998cacf2e296d346d8ac4b6b00706f37050eb4f504778197150c62d411d1d1a",
      "networkId": 0,
      "chainId": 0
    }
  ]
}