{
  "hash": "0x798863e0541de4996281d79a89ac88511c195b175eb4f2e49a2c3a1a4bd7ab4b",
  "parentHash": "0xba78620ecdd822652383b79b7337f1b448993f8b96153d2956ee7e136fc53c48",
  "number": 122129,
  "timestamp": 1440188627,
  "nonce": "0xac53d2ca24848998",
  "difficulty": 4477483695123,
  "gasLimit": {
    "_hex": "0x2fefd8"
  },
  "gasUsed": {
    "_hex": "0x2b3d6"
  },
  "miner": "0x52bc44d5378309EE2abF1539BF71dE1b7d7bE3b5",
  "extraData": "0xd783010002844765746887676f312e342e32856c696e7578",
  "transactions": [
    {
      "hash": "0x5b6d038e03cf1c8b87ab53fc63f1fe01833f5158203e052e9ebca6ef4efee38a",
      "blockHash": "0x798863e0541de4996281d79a89ac88511c195b175eb4f2e49a2c3a1a4bd7ab4b",
      "blockNumber": 122129,
      "transactionIndex": 0,
      "confirmations": null,
      "from": "0x92762b7a067B2278454eF38d6cb6a96A4c92834e",
      "gasPrice": {
        "_hex": "0xba43b7400"
      },
      "gasLimit": {
        "_hex": "0x7a120"
      },
      "to": "0xBBDa93a81B882774e1c9b5e3F933Fa35DaC8bc88",
      "value": {
        "_hex": "0x4563918244f40000"
      },
      "nonce": 3,
      "data": "0x",
      "r": "0xe48071bc3f8d8f7a6be5c09a801d3c8922a7a51857c35ecb70f57845b023f343",
      "s": "0x6effbe4c15f065f531a0c641ba52be9d8c86dcebe6ffa395404620d1e87b6a22",
      "v": 28,
      "creates": null,
      "raw": "0xf86d03850ba43b74008307a12094bbda93a81b882774e1c9b5e3f933fa35dac8bc88884563918244f40000801ca0e48071bc3f8d8f7a6be5c09a801d3c8922a7a51857c35ecb70f57845b023f343a06effbe4c15f065f531a0c641ba52be9d8c86dcebe6ffa395404620d1e87b6a22",
      "networkId": 0,
      "chainId": 0
    },
    {
      "hash": "0x77fb250fec2f3e1f937b70171419d852e11d0f43c39ac54b469495008db3e193",
      "blockHash": "0x798863e0541de4996281d79a89ac88511c195b175eb4f2e49a2c3a1a4bd7ab4b",
      "blockNumber": 122129,
      "transactionIndex": 1,
      "confirmations": null,
      "from": "0xB4B3c8B3bA50E3FF2C3bD7c750Cbe1B8F8f5b302",
      "gasPrice": {
        "_hex": "0xba43b7400"
      },
      "gasLimit": {
        "_hex": "0x249f0"
      },
      "to": "0xE28e72FCf78647ADCe1F1252F240bbfaebD63BcC",
      "value": {
        "_hex": "0x9b6e64a8ec60000"
      },
      "nonce": 0,
      "data": "0x45466f3a",
      "r": "0x4817ea9887367dc8d73eed1f17d4324deecac9f55deb473757bccfc6295db612",
      "s": "0x17b729b5078369579b3d3ace3fa656715e914dad3ce187954757a2ace07bd1d7",
      "v": 28,
      "creates": null,
      "raw": "0xf87180850ba43b7400830249f094e28e72fcf78647adce1f1252f240bbfaebd63bcc8809b6e64a8ec600008445466f3a1ca04817ea9887367dc8d73eed1f17d4324deecac9f55deb473757bccfc6295db612a017b729b5078369579b3d3ace3fa656715e914dad3ce187954757a2ace07bd1d7",
      "networkId": 0,
      "chainId": 0
    },
    {
      "hash": "0x9728cb9aa151ee4dbe24ae3e7c67636286e8da4060d1058afba3c0f86b728337",
      "blockHash": "0x798863e0541de4996281d79a89ac88511c195b175eb4f2e49a2c3a1a4bd7ab4b",
      "blockNumber": 122129,
      "transactionIndex": 2,
      "confirmations": null,
      "from": "0x767D74B2FF125F1CC09922FA88b1002713090b78",
      "gasPrice": {
        "_hex": "0xba43b7400"
      },
      "gasLimit": {
        "_hex": "0x7a120"
      },
      "to": "0xBBDa93a81B882774e1c9b5e3F933Fa35DaC8bc88",
      "value": {
        "_hex": "0x15af1d78b58c40000"
      },
      "nonce": 2,
      "data": "0x",
      "r": "0xdd1e7d57c3badc0d571151def6f9a40d1e737fcdc6e8f9286f145c6464923523",
      "s": "0x45ff0d4ded7f4cb1edd3ff4d81553a405945672d4305653a3081e1f369f855f0",
      "v": 28,
      "creates": null,
      "raw": "0xf86e02850ba43b74008307a12094bbda93a81b882774e1c9b5e3f933fa35dac8bc8889015af1d78b58c40000801ca0dd1e7d57c3badc0d571151def6f9a40d1e737fcdc6e8f9286f145c6464923523a045ff0d4ded7f4cb1edd3ff4d81553a405945672d4305653a3081e1f369f855f0",
      "networkId": 0,
      "chainId": 0
    },
    {
      "hash": "0x3e1a6a0c25d5dbeff1163fba787af7c9c2807d9104a40c0ae6737d814f888694",
      "blockHash": "0x798863e0541de4996281d79a89ac88511c195b175eb4f2e49a2c3a1a4bd7ab4b",
      "blockNumber": 122129,
      "transactionIndex": 3,
      "confirmations": null,
      "from": "0xcA8f4Fb1A28593337AeE456Acc76ABD4C3c83257",
      "gasPrice": {
        "_hex": "0xba43b7400"
      },
      "gasLimit": {
        "_hex": "0x5208"
      },
      "to": "0xf357482c5A92C7B2Cee6a157034362b7d7d88c5A",
      "value": {
        "_hex": "0x4c0cdef739240000"
      },
      "nonce": 7,
      "data": "0x",
      "r": "0xc3755d442fab190d81677c27fae2426acbd9d925a620d553c594da7aaf96fd66",
      "s": "0x6ada6047b043f6d5e4c1f6b6f0adf251f822a63e72f1da1d4a65cad8a4bac51d",
      "v": 28,
      "creates": null,
      "raw": "0xf86c07850ba43b740082520894f357482c5a92c7b2cee6a157034362b7d7d88c5a884c0cdef739240000801ca0c3755d442fab190d81677c27fae2426acbd9d925a620d553c594da7aaf96fd66a06ada6047b043f6d5e4c1f6b6f0adf251f822a63e72f1da1d4a65cad8a4bac51d",
      "networkId": 0,
      "chainId": 0
    }
  ]
}