{
  "hash": "0x30521da181665f8fcb2332df99b4a2a1bd753593236abb9b46257aed59878d84",
  "parentHash": "0xe79b863bc2f9f45298005f7d893914f7e55100b330268dc56191a038b749e15b",
  "number": 82155,
  "timestamp": 1439514528,
  "nonce": "0xfc2e9667baaf8cb1",
  "difficulty": 2389332255829,
  "gasLimit": {
    "_hex": "0x2fefd8"
  },
  "gasUsed": {
    "_hex": "0x5208"
  },
  "miner": "0x6BB048244aC4f934163a15b7a472Ce7B48fC9F32",
  "extraData": "0x476574682f76312e302e312d37666266393930632f6c696e75782f676f312e34",
  "transactions": [
    {
      "hash": "0x2b97cc4eaf83efba8497d7116d76ac9641570c6f5486aa499f8fa4130aea6b66",
      "blockHash": "0x30521da181665f8fcb2332df99b4a2a1bd753593236abb9b46257aed59878d84",
      "blockNumber": 82155,
      "transactionIndex": 0,
      "confirmations": null,
      "from": "0x21D46e5e1C37D3fa2157A393Fa444EafE63646Fa",
      "gasPrice": {
        "_hex": "0xd0a7e5746"
      },
      "gasLimit": {
        "_hex": "0x15f90"
      },
      "to": "0x2D1d94521E896625F8Ec3f65171Fa82262Da6BCF",
      "value": {
        "_hex": "0xde0b6b3a7640000"
      },
      "nonce": 0,
      "data": "0x",
      "r": "0xaf85b9c1d62cbaaeb5637a12a8666770f457265cbb6553114505a0259ab86226",
      "s": "0x54a9a7567ceee6f1f20fa5a3f8ca3298d3adea7709f28dece7a381fd234638f4",
      "v": 27,
      "creates": null,
      "raw": "0xf86d80850d0a7e574683015f90942d1d94521e896625f8ec3f65171fa82262da6bcf880de0b6b3a7640000801ba0af85b9c1d62cbaaeb5637a12a8666770f457265cbb6553114505a0259ab86226a054a9a7567ceee6f1f20fa5a3f8ca3298d3adea7709f28dece7a381fd234638f4",
      "networkId": 0,
      "chainId": 0
    }
  ]
}