{
  "hash": "0xfbc2fce2ca893e37bf729b309042e8b438fdfca706c034b4df8ecaa77dd872e9",
  "parentHash": "0xce36cdb92c9b041e5f46f2337fbce0235267d416c9f6c973edfc7a10179e3c1f",
  "number": 110907,
  "timestamp": 1439981503,
  "nonce": "0x6699091aa884b477",
  "difficulty": 4409659239070,
  "gasLimit": {
    "_hex": "0x2fefd8"
  },
  "gasUsed": {
    "_hex": "0x5208"
  },
  "miner": "0x9746c7e1ef2bd21FF3997fa467593a89cb852BD0",
  "extraData": "0x476574682f76312e302e312f77696e646f77732f676f312e342e32",
  "transactions": [
    {
      "hash": "0x4348a21fcef378299b3bbc5ae3d5307b1f5bf431e2fe2fdbc330ecc4ee929b1a",
      "blockHash": "0xfbc2fce2ca893e37bf729b309042e8b438fdfca706c034b4df8ecaa77dd872e9",
      "blockNumber": 110907,
      "transactionIndex": 0,
      "confirmations": null,
      "from": "0x32Be343B94f860124dC4fEe278FDCBD38C102D88",
      "gasPrice": {
        "_hex": "0xd96a171a9"
      },
      "gasLimit": {
        "_hex": "0x5208"
      },
      "to": "0x050A4C817B7DD7334cd378B11c0Be4f9D4684816",
      "value": {
        "_hex": "0x1d7d843dc3b480000"
      },
      "nonce": 1296,
      "data": "0x",
      "r": "0xca5ee1f5567786a6b5a9bf12bd808be5b954b1779a4d101982219928199317c9",
      "s": "0x146c5e606fabb9894743b4bd0243f459050ec36f1f117e992707d4fd59e16235",
      "v": 28,
      "creates": null,
      "raw": "0xf86f820510850d96a171a982520894050a4c817b7dd7334cd378b11c0be4f9d46848168901d7d843dc3b480000801ca0ca5ee1f5567786a6b5a9bf12bd808be5b954b1779a4d101982219928199317c9a0146c5e606fabb9894743b4bd0243f459050ec36f1f117e992707d4fd59e16235",
      "networkId": 0,
      "chainId": 0
    }
  ]
}