{
  "hash": "0x085e42b1b6bbdd4323ce7180bd935a91ebddc32e503ddd3b020fab1735cb5fa0",
  "parentHash": "0x0b38a59873a79833f8688058251c67c43a8e04c2496af183b87f7d4bee393df1",
  "number": 52586,
  "timestamp": 1439023945,
  "nonce": "0x6a4d66c06db98372",
  "difficulty": 1567129863047,
  "gasLimit": {
    "_hex": "0x15e07b"
  },
  "gasUsed": {
    "_hex": "0xf96ac"
  },
  "miner": "0xf927a40C8B7F6E07c5af7FA2155B4864a4112B13",
  "extraData": "0x476574682f76312e302e312f6c696e75782f676f312e342e32",
  "transactions": [
    {
      "hash": "0x1253129556c2acbbc9d3eb846848387cb33c8139e82d303ccbc66a59ad68f594",
      "blockHash": "0x085e42b1b6bbdd4323ce7180bd935a91ebddc32e503ddd3b020fab1735cb5fa0",
      "blockNumber": 52586,
      "transactionIndex": 0,
      "confirmations": null,
      "from": "0x54dAeb3E8a6BBC797E4aD2b0339f134b186e4637",
      "gasPrice": {
        "_hex": "0xdce5b224a"
      },
      "gasLimit": {
        "_hex": "0x7a120"
      },
      "to": "0xBAA54d6E90c3F4d7Ebec11bD180134C7eD8eBb52",
      "value": {
        "_hex": "0x16345785d8a0000"
      },
      "nonce": 763,
      "data": "0x",
      "r": "0x8e309202a7f1c92438854c43d10a3c50385275a336ab949ed9ae33d264b6865a",
      "s": "0x2593b2ca95f1a703d3ce36da3b14c545ffac263c827ae0005f77ea31907d544a",
      "v": 27,
      "creates": null,
      "raw": "0xf86f8202fb850dce5b224a8307a12094baa54d6e90c3f4d7ebec11bd180134c7ed8ebb5288016345785d8a0000801ba08e309202a7f1c92438854c43d10a3c50385275a336ab949ed9ae33d264b6865aa02593b2ca95f1a703d3ce36da3b14c545ffac263c827ae0005f77ea31907d544a",
      "networkId": 0,
      "chainId": 0
    },
    {
      "hash": "0x8ee29b35db9befacafe2c148f47c8faed4c982e1f1c8e22284407c9add7c0160",
      "blockHash": "0x085e42b1b6bbdd4323ce7180bd935a91ebddc32e503ddd3b020fab1735cb5fa0",
      "blockNumber": 52586,
      "transactionIndex": 1,
      "confirmations": null,
      "from": "0x54dAeb3E8a6BBC797E4aD2b0339f134b186e4637",
      "gasPrice": {
        "_hex": "0xe1780dfbb"
      },
      "gasLimit": {
        "_hex": "0x7a120"
      },
      "to": "0xBAA54d6E90c3F4d7Ebec11bD180134C7eD8eBb52",
      "value": {
        "_hex": "0x16345785d8a0000"
      },
      "nonce": 764,
      "data": "0x",
      "r": "0xc4815402d1cac3821d97aa3fb488c782194d3e3c0d19edc4729b56f5d2593697",
      "s": "0x0b37f709ca6ead87e15276241ed83027d250e479ef0c94e07eb989fb6e9ab298",
      "v": 27,
      "creates": null,
      "raw": "0xf86f8202fc850e1780dfbb8307a12094baa54d6e90c3f4d7ebec11bd180134c7ed8ebb5288016345785d8a0000801ba0c4815402d1cac3821d97aa3fb488c782194d3e3c0d19edc4729b56f5d2593697a00b37f709ca6ead87e15276241ed83027d250e479ef0c94e07eb989fb6e9ab298",
      "networkId": 0,
      "chainId": 0
    },
    {
      "hash": "0x0fd342cf6a650e99869903a8b924c293b7f39d04f6e08d2b2e66d68b6b3f1d39",
      "blockHash": "0x085e42b1b6bbdd4323ce7180bd935a91ebddc32e503ddd3b020fab1735cb5fa0",
      "blockNumber": 52586,
      "transactionIndex": 2,
      "confirmations": null,
      "from": "0x2C964849b1F69CC7CeA4442538ED87Fdf16cFc8f",
      "gasPrice": {
        "_hex": "0xd2563a899"
      },
      "gasLimit": {
        "_hex": "0x15f90"
      },
      "to": "0x2910543Af39abA0Cd09dBb2D50200b3E800A63D2",
      "value": {
        "_hex": "0x6c5db2a4d815dc0000"
      },
      "nonce": 1,
      "data": "0x454e56573656563752",
      "r": "0xe57aba14b2b98783685f941f93c030e867eec15ad394873cc7d8f24803c9933a",
      "s": "0x43f9eb99b1790cf516b6a87d99c37a4a98fdb8a7fe4a5438968a5f908abba27b",
      "v": 28,
      "creates": null,
      "raw": "0xf87701850d2563a89983015f90942910543af39aba0cd09dbb2d50200b3e800a63d2896c5db2a4d815dc000089454e565736565637521ca0e57aba14b2b98783685f941f93c030e867eec15ad394873cc7d8f24803c9933aa043f9eb99b1790cf516b6a87d99c37a4a98fdb8a7fe4a5438968a5f908abba27b",
      "networkId": 0,
      "chainId": 0
    }
  ]
}