{
  "hash": "0x4587296f444cae968da98bca877292fd2f108d0f5e840ca384160d39c79c9ec8",
  "parentHash": "0x8105fa32d8c3a361eab30375ad3c22a8f20865df6529d613ff8d7e4682b07b08",
  "number": 89851,
  "timestamp": 1439630135,
  "nonce": "0x440b91213f91bfd9",
  "difficulty": 3343474682739,
  "gasLimit": {
    "_hex": "0x2fefd8"
  },
  "gasUsed": {
    "_hex": "0x5208"
  },
  "miner": "0x6DE55b563cE6E319cCB403032Da3BE5Ad4ec4FcF",
  "extraData": "0x",
  "transactions": [
    {
      "hash": "0xaa37daabd3b8912b067908971989b57b0d44206ae7f49ea6ae3ebab4fc4da06b",
      "blockHash": "0x4587296f444cae968da98bca877292fd2f108d0f5e840ca384160d39c79c9ec8",
      "blockNumber": 89851,
      "transactionIndex": 0,
      "confirmations": null,
      "from": "0x4369BF4867c99a39513Bb176d468A7e326F3a542",
      "gasPrice": {
        "_hex": "0xcc331f717"
      },
      "gasLimit": {
        "_hex": "0x5208"
      },
      "to": "0x32Be343B94f860124dC4fEe278FDCBD38C102D88",
      "value": {
        "_hex": "0x898cd05433c50800"
      },
      "nonce": 3,
      "data": "0x",
      "r": "0xd933474c8ef9c5d066bfcce82bed6aa530ab7e406f64c5dbb9e0021ae9ce6d0a",
      "s": "0x213923b0c646652f31c68df08830663361716441d27c066e3513af65ffbed1ff",
      "v": 27,
      "creates": null,
      "raw": "0xf86c03850cc331f7178252089432be343b94f860124dc4fee278fdcbd38c102d8888898cd05433c50800801ba0d933474c8ef9c5d066bfcce82bed6aa530ab7e406f64c5dbb9e0021ae9ce6d0aa0213923b0c646652f31c68df08830663361716441d27c066e3513af65ffbed1ff",
      "networkId": 0,
      "chainId": 0
    }
  ]
}