{
  "hash": "0x9a84920778185d65cbf0a6c102242e6fa445b7f3040f7e54cd198b84a613438c",
  "parentHash": "0x8c97a8c6487a6c000a39231572ad3e179cce209a08c03faf7dfbfc2c8b080dc0",
  "number": 89786,
  "timestamp": 1439629131,
  "nonce": "0xeb8935a80a8c4c76",
  "difficulty": 3335347702524,
  "gasLimit": {
    "_hex": "0x2fefd8"
  },
  "gasUsed": {
    "_hex": "0x14820"
  },
  "miner": "0x790b8a3cE86E707ED0eD32bF89B3269692a23CC1",
  "extraData": "0xd783010001844765746887676f312e342e32856c696e7578",
  "transactions": [
    {
      "hash": "0xc54b8bf130c8df61cee059c01e9f3be8ae407b850216a63900e69abc44b3605c",
      "blockHash": "0x9a84920778185d65cbf0a6c102242e6fa445b7f3040f7e54cd198b84a613438c",
      "blockNumber": 89786,
      "transactionIndex": 0,
      "confirmations": null,
      "from": "0xe6A7a1d47ff21B6321162AEA7C6CB457D5476Bca",
      "gasPrice": {
        "_hex": "0xe1185f635"
      },
      "gasLimit": {
        "_hex": "0x55f0"
      },
      "to": "0x2561d06bcc264cb07D32663B326f510d61E48f4c",
      "value": {
        "_hex": "0x9ffda41418abd790"
      },
      "nonce": 2289,
      "data": "0x",
      "r": "0x4ee7851f5afcd02df8f7de983ae54ca572037565e08fc1530de97b3a90ceb164",
      "s": "0x0e90733114ff187b64272d4f6126a3ff637d9493c64ed1e3c279a6a0fed6da9f",
      "v": 28,
      "creates": null,
      "raw": "0xf86e8208f1850e1185f6358255f0942561d06bcc264cb07d32663b326f510d61e48f4c889ffda41418abd790801ca04ee7851f5afcd02df8f7de983ae54ca572037565e08fc1530de97b3a90ceb164a00e90733114ff187b64272d4f6126a3ff637d9493c64ed1e3c279a6a0fed6da9f",
      "networkId": 0,
      "chainId": 0
    },
    {
      "hash": "0xdcdacc06940b82a5f32100f402cfcdaf0d98aca4d30e1cf66c06093061dbf3cc",
      "blockHash": "0x9a84920778185d65cbf0a6c102242e6fa445b7f3040f7e54cd198b84a613438c",
      "blockNumber": 89786,
      "transactionIndex": 1,
      "confirmations": null,
      "from": "0xe6A7a1d47ff21B6321162AEA7C6CB457D5476Bca",
      "gasPrice": {
        "_hex": "0xe1185f635"
      },
      "gasLimit": {
        "_hex": "0x55f0"
      },
      "to": "0xC13Dad778D7BcE116BD97f744625D57f7124c38A",
      "value": {
        "_hex": "0xa019e7bef0a5b3f0"
      },
      "nonce": 2290,
      "data": "0x",
      "r": "0xfe0f1c67b0f3180429b41a552a592845d6e5627f32225b8da23fc5b843217c59",
      "s": "0x78aca568cbee79f0b72583ea7c0bc83a5707c75bb7c27c3d70e40fccf222ed1d",
      "v": 27,
      "creates": null,
      "raw": "0xf86e8208f2850e1185f6358255f094c13dad778d7bce116bd97f744625d57f7124c38a88a019e7bef0a5b3f0801ba0fe0f1c67b0f3180429b41a552a592845d6e5627f32225b8da23fc5b843217c59a078aca568cbee79f0b72583ea7c0bc83a5707c75bb7c27c3d70e40fccf222ed1d",
      "networkId": 0,
      "chainId": 0
    },
    {
      "hash": "0xe49dd31a80a7b6ff61c3602bae9adcfc3aa42baf563c9eac53a3f19a7afcca36",
      "blockHash": "0x9a84920778185d65cbf0a6c102242e6fa445b7f3040f7e54cd198b84a613438c",
      "blockNumber": 89786,
      "transactionIndex": 2,
      "confirmations": null,
      "from": "0x0156B1dF46A295901BdCA64D7809fd623AE50129",
      "gasPrice": {
        "_hex": "0xd28bbf2d4"
      },
      "gasLimit": {
        "_hex": "0x5208"
      },
      "to": "0x32Be343B94f860124dC4fEe278FDCBD38C102D88",
      "value": {
        "_hex": "0x21fefc60cba86800"
      },
      "nonce": 0,
      "data": "0x",
      "r": "0xa404bffccb8ef38e67efc0c45ebe0d459d9acd187f7fc877a9a834b5ce53fb9b",
      "s": "0x21cbe02e150b569fe66d415ef41be5d81eabd815386615b3a6f83edecfe2e7ad",
      "v": 28,
      "creates": null,
      "raw": "0xf86c80850d28bbf2d48252089432be343b94f860124dc4fee278fdcbd38c102d888821fefc60cba86800801ca0a404bffccb8ef38e67efc0c45ebe0d459d9acd187f7fc877a9a834b5ce53fb9ba021cbe02e150b569fe66d415ef41be5d81eabd815386615b3a6f83edecfe2e7ad",
      "networkId": 0,
      "chainId": 0
    },
    {
      "hash": "0x7d9086f7ab3a74b68fb64e8089ca39dccc06a13d38e576164023ccceab3ed786",
      "blockHash": "0x9a84920778185d65cbf0a6c102242e6fa445b7f3040f7e54cd198b84a613438c",
      "blockNumber": 89786,
      "transactionIndex": 3,
      "confirmations": null,
      "from": "0x806C4e20CC913d7b70f5b7e24C6Ba15B16c56a5C",
      "gasPrice": {
        "_hex": "0xd28bbf2d4"
      },
      "gasLimit": {
        "_hex": "0x5208"
      },
      "to": "0x32Be343B94f860124dC4fEe278FDCBD38C102D88",
      "value": {
        "_hex": "0x2ac835dfbd005800"
      },
      "nonce": 0,
      "data": "0x",
      "r": "0x37e1d4fcb117506c7edb812361339cff4b5ae3d9e42f60dc38f3c409c3d502aa",
      "s": "0x0f49861a691e5cc1bc215c778df1af471d1041d8074bd0a83bd2c06e4a444283",
      "v": 27,
      "creates": null,
      "raw": "0xf86c80850d28bbf2d48252089432be343b94f860124dc4fee278fdcbd38c102d88882ac835dfbd005800801ba037e1d4fcb117506c7edb812361339cff4b5ae3d9e42f60dc38f3c409c3d502aaa00f49861a691e5cc1bc215c778df1af471d1041d8074bd0a83bd2c06e4a444283",
      "networkId": 0,
      "chainId": 0
    }
  ]
}