{
  "hash": "0x08fdc115ebd995a7b4edb864a612c28bd9c28c10fc155cdbd6d7dd30e130aa79",
  "parentHash": "0x58c7f1677447298724657f31f21a350386db4cff390fb052dc91e5010c0d4eb6",
  "number": 48897,
  "timestamp": 1438964800,
  "nonce": "0x5a8e4bbd248f6f26",
  "difficulty": 1474988857708,
  "gasLimit": {
    "_hex": "0x20795"
  },
  "gasUsed": {
    "_hex": "0xa674"
  },
  "miner": "0x3f113041D56Dda809a245Fe338832c2D373e7c80",
  "extraData": "0x476574682f76312e302e312f77696e646f77732f676f312e342e32",
  "transactions": [
    {
      "hash": "0xf66d821e08e2fba51b0bc96f059529597869e64594cda270cd181f0be6cd9bf1",
      "blockHash": "0x08fdc115ebd995a7b4edb864a612c28bd9c28c10fc155cdbd6d7dd30e130aa79",
      "blockNumber": 48897,
      "transactionIndex": 0,
      "confirmations": null,
      "from": "0x9F46e7C1E9078caE86305ac7060b01467D6685eE",
      "gasPrice": {
        "_hex": "0x110c8f7d8de"
      },
      "gasLimit": {
        "_hex": "0xc350"
      },
      "to": "0x2910543Af39abA0Cd09dBb2D50200b3E800A63D2",
      "value": {
        "_hex": "0x240cba98add2c40000"
      },
      "nonce": 0,
      "data": "0x454e34445430325452",
      "r": "0x614810f68fb9b72071e2448f327575d9d42cada80a0ba9482eebf8ed7587b159",
      "s": "0xeb670ac15910f21907e0623ce356a007e4f6eaceac254575f682148a6a015fe8",
      "v": 27,
      "creates": null,
      "raw": "0xf87780860110c8f7d8de82c350942910543af39aba0cd09dbb2d50200b3e800a63d289240cba98add2c4000089454e344454303254521ba0614810f68fb9b72071e2448f327575d9d42cada80a0ba9482eebf8ed7587b159a0eb670ac15910f21907e0623ce356a007e4f6eaceac254575f682148a6a015fe8",
      "networkId": 0,
      "chainId": 0
    },
    {
      "hash": "0x3318ebd7144c80f933e6ed7b81f99f7cab7e091bce2eb17834c06556bfa787e8",
      "blockHash": "0x08fdc115ebd995a7b4edb864a612c28bd9c28c10fc155cdbd6d7dd30e130aa79",
      "blockNumber": 48897,
      "transactionIndex": 1,
      "confirmations": null,
      "from": "0x761E6CaEC189C230A162EC006530193E67cf9D19",
      "gasPrice": {
        "_hex": "0xd8364fc25"
      },
      "gasLimit": {
        "_hex": "0x15f90"
      },
      "to": "0x8143a7314E1e89e35885e25C35362acA01b0F1fF",
      "value": {
        "_hex": "0x8ac7230489e80000"
      },
      "nonce": 2,
      "data": "0x",
      "r": "0xd2b44e642b4ffee3949e2596e16319eb3c9753b9c0c42690775c77613ba11fc6",
      "s": "0x73b1d4b377939bae5f0e802639ef3c3b17a5e05e569af8bbaac118b407ec9293",
      "v": 28,
      "creates": null,
      "raw": "0xf86d02850d8364fc2583015f90948143a7314e1e89e35885e25c35362aca01b0f1ff888ac7230489e80000801ca0d2b44e642b4ffee3949e2596e16319eb3c9753b9c0c42690775c77613ba11fc6a073b1d4b377939bae5f0e802639ef3c3b17a5e05e569af8bbaac118b407ec9293",
      "networkId": 0,
      "chainId": 0
    }
  ]
}