{
  "hash": "0x272b0d696d7ac81956ead6f23abf995ef37a4a25980d3d5cb07651190038d0e4",
  "parentHash": "0xc457fa925350ca7795a0aa604c174528e66d6656834212fa5f0b3e9041e2d616",
  "number": 48155,
  "timestamp": 1438952405,
  "nonce": "0xdc6690760db62ffb",
  "difficulty": 1466501325832,
  "gasLimit": {
    "_hex": "0x130d1"
  },
  "gasUsed": {
    "_hex": "0xfae0"
  },
  "miner": "0xf8E0CA3Ed80bd541b94BEdCf259e8CF2141A9523",
  "extraData": "0x476574682f76312e302e312f77696e646f77732f676f312e342e32",
  "transactions": [
    {
      "hash": "0x343f5ab4f7c550d50d2c04f785a2bae330d53eafac5a706c11fd626198d573e3",
      "blockHash": "0x272b0d696d7ac81956ead6f23abf995ef37a4a25980d3d5cb07651190038d0e4",
      "blockNumber": 48155,
      "transactionIndex": 0,
      "confirmations": null,
      "from": "0xca70f4DdBF069D2143BD6bbc7F696b52789B32E7",
      "gasPrice": {
        "_hex": "0x110c8f7d8de"
      },
      "gasLimit": {
        "_hex": "0xc350"
      },
      "to": "0x2910543Af39abA0Cd09dBb2D50200b3E800A63D2",
      "value": {
        "_hex": "0xde0b6b3a7640000"
      },
      "nonce": 0,
      "data": "0x454e4d3843474d4730",
      "r": "0x38320843fe02323bae7c6e5902b2b86594a61bd1397b107385ca46ac4661dc76",
      "s": "0x1fb39312261fbad532db88090dae4a1487bcfe89ff9acf9877c039976a6e36f1",
      "v": 27,
      "creates": null,
      "raw": "0xf87680860110c8f7d8de82c350942910543af39aba0cd09dbb2d50200b3e800a63d2880de0b6b3a764000089454e4d3843474d47301ba038320843fe02323bae7c6e5902b2b86594a61bd1397b107385ca46ac4661dc76a01fb39312261fbad532db88090dae4a1487bcfe89ff9acf9877c039976a6e36f1",
      "networkId": 0,
      "chainId": 0
    },
    {
      "hash": "0xd14cc9af3fe9e91b2baab176b50077f352f5cf283e72132240385a52763fb095",
      "blockHash": "0x272b0d696d7ac81956ead6f23abf995ef37a4a25980d3d5cb07651190038d0e4",
      "blockNumber": 48155,
      "transactionIndex": 1,
      "confirmations": null,
      "from": "0xa76d3F156251b72c0CCf4B47A3393cBD6f49A9C5",
      "gasPrice": {
        "_hex": "0xd1a6e09b5"
      },
      "gasLimit": {
        "_hex": "0x55f0"
      },
      "to": "0x2910543Af39abA0Cd09dBb2D50200b3E800A63D2",
      "value": {
        "_hex": "0x4563918244f40000"
      },
      "nonce": 0,
      "data": "0x454e4d323354595a30",
      "r": "0xc40fef36f2a7a0287f24a6c5baef1f93f452d0baed0d20184cfb2b476d83a5c5",
      "s": "0x7de4c50f59fb6703ee7a4a4127dfab8e65ceae7ad6cd26d582d3822dfda9d54c",
      "v": 27,
      "creates": null,
      "raw": "0xf87580850d1a6e09b58255f0942910543af39aba0cd09dbb2d50200b3e800a63d2884563918244f4000089454e4d323354595a301ba0c40fef36f2a7a0287f24a6c5baef1f93f452d0baed0d20184cfb2b476d83a5c5a07de4c50f59fb6703ee7a4a4127dfab8e65ceae7ad6cd26d582d3822dfda9d54c",
      "networkId": 0,
      "chainId": 0
    },
    {
      "hash": "0x200c267df8b23d067357d9c49f70f5893e0d97f11b9dd76cdebc1f0499a23784",
      "blockHash": "0x272b0d696d7ac81956ead6f23abf995ef37a4a25980d3d5cb07651190038d0e4",
      "blockNumber": 48155,
      "transactionIndex": 2,
      "confirmations": null,
      "from": "0xDD9B485a3b1cd33A6a9C62f1E5BEe92701856d25",
      "gasPrice": {
        "_hex": "0xa7a358200"
      },
      "gasLimit": {
        "_hex": "0x5208"
      },
      "to": "0x0c86db7DffC9eCbBe8da476416F54F4c47F97322",
      "value": {
        "_hex": "0x2b5e3af16b1880000"
      },
      "nonce": 2,
      "data": "0x",
      "r": "0xae61458ef1e002a3d99d268cbfab4355c01df7830db697e2eb791e61ffe0e82a",
      "s": "0x01516a6fbe2beb04c27ddde61dc6ad9d46ac77f5d506f27876c905c7adaa67a5",
      "v": 28,
      "creates": null,
      "raw": "0xf86d02850a7a358200825208940c86db7dffc9ecbbe8da476416f54f4c47f973228902b5e3af16b1880000801ca0ae61458ef1e002a3d99d268cbfab4355c01df7830db697e2eb791e61ffe0e82aa001516a6fbe2beb04c27ddde61dc6ad9d46ac77f5d506f27876c905c7adaa67a5",
      "networkId": 0,
      "chainId": 0
    }
  ]
}