{
  "hash": "0x9e4b9e3fc3ac1225e7e68e9d2a18134133af92c509f7145f1c24b5bf4ebaa648",
  "parentHash": "0x822552323aedd9c9d198328203a87c883cf36dadd322e748e90138e049d9ff99",
  "number": 62027,
  "timestamp": 1439182290,
  "nonce": "0x59b64b1da8a69416",
  "difficulty": 1742035018635,
  "gasLimit": {
    "_hex": "0x2fefd8"
  },
  "gasUsed": {
    "_hex": "0x14820"
  },
  "miner": "0x5F8F73E26CdF436f19Cb24C82F90A15AFe55b592",
  "extraData": "0x476574682f76312e302e312f77696e646f77732f676f312e342e32",
  "transactions": [
    {
      "hash": "0xd595beb90db073f70baf8212c1b823fd5788705398942f6fa75249febe197b09",
      "blockHash": "0x9e4b9e3fc3ac1225e7e68e9d2a18134133af92c509f7145f1c24b5bf4ebaa648",
      "blockNumber": 62027,
      "transactionIndex": 0,
      "confirmations": null,
      "from": "0x4E892e8081BF36E488FddB3b2630f3f1E8da30d2",
      "gasPrice": {
        "_hex": "0x9184e72a000"
      },
      "gasLimit": {
        "_hex": "0x15f90"
      },
      "to": "0x025c3B43d57E72D2150E14B2B0c6D923FbFC0474",
      "value": {
        "_hex": "0x3635c9adc5dea00000"
      },
      "nonce": 8,
      "data": "0x",
      "r": "0xd426344d4ff0c4159f0a579b44419091acf83da81e9fe51af74cb86e08273e44",
      "s": "0x1c5b0a432b1e06bf58b0825578f8f023eb4ce430df6bd0dad76e2ed1218eabb8",
      "v": 28,
      "creates": null,
      "raw": "0xf86f088609184e72a00083015f9094025c3b43d57e72d2150e14b2b0c6d923fbfc0474893635c9adc5dea00000801ca0d426344d4ff0c4159f0a579b44419091acf83da81e9fe51af74cb86e08273e44a01c5b0a432b1e06bf58b0825578f8f023eb4ce430df6bd0dad76e2ed1218eabb8",
      "networkId": 0,
      "chainId": 0
    },
    {
      "hash": "0x414aa6b3bcc83164476aac96979fcac21cc835f29e5388227c2bd9ef1f662f0a",
      "blockHash": "0x9e4b9e3fc3ac1225e7e68e9d2a18134133af92c509f7145f1c24b5bf4ebaa648",
      "blockNumber": 62027,
      "transactionIndex": 1,
      "confirmations": null,
      "from": "0x4E892e8081BF36E488FddB3b2630f3f1E8da30d2",
      "gasPrice": {
        "_hex": "0x9184e72a000"
      },
      "gasLimit": {
        "_hex": "0x15f90"
      },
      "to": "0x025c3B43d57E72D2150E14B2B0c6D923FbFC0474",
      "value": {
        "_hex": "0x3635c9adc5dea00000"
      },
      "nonce": 9,
      "data": "0x",
      "r": "0x3e78ea966eef2e2794223c13a1283464d2062948cb528794eb7276d7e0386c62",
      "s": "0x37a4d3e7722fc214df36c09e6ce21da9e9fd113f84a0e173df76e8854cb6a5ac",
      "v": 28,
      "creates": null,
      "raw": "0xf86f098609184e72a00083015f9094025c3b43d57e72d2150e14b2b0c6d923fbfc0474893635c9adc5dea00000801ca03e78ea966eef2e2794223c13a1283464d2062948cb528794eb7276d7e0386c62a037a4d3e7722fc214df36c09e6ce21da9e9fd113f84a0e173df76e8854cb6a5ac",
      "networkId": 0,
      "chainId": 0
    },
    {
      "hash": "0xe553d2e910e329d9fa9607e708ac34bbd16f5ef45c2e728835ba5f114934c48f",
      "blockHash": "0x9e4b9e3fc3ac1225e7e68e9d2a18134133af92c509f7145f1c24b5bf4ebaa648",
      "blockNumber": 62027,
      "transactionIndex": 2,
      "confirmations": null,
      "from": "0x4E892e8081BF36E488FddB3b2630f3f1E8da30d2",
      "gasPrice": {
        "_hex": "0x9184e72a000"
      },
      "gasLimit": {
        "_hex": "0x15f90"
      },
      "to": "0x025c3B43d57E72D2150E14B2B0c6D923FbFC0474",
      "value": {
        "_hex": "0x3635c9adc5dea00000"
      },
      "nonce": 10,
      "data": "0x",
      "r": "0xf5c2b3d4003aa8461aa865f0663d2d74d3edd814093cc3543f4a75dbcd73cfc1",
      "s": "0x02ae29ae34e03045da1e533dbbeb9ce0e64b5e994392e36214f91bce78b99c7d",
      "v": 27,
      "creates": null,
      "raw": "0xf86f0a8609184e72a00083015f9094025c3b43d57e72d2150e14b2b0c6d923fbfc0474893635c9adc5dea00000801ba0f5c2b3d4003aa8461aa865f0663d2d74d3edd814093cc3543f4a75dbcd73cfc1a002ae29ae34e03045da1e533dbbeb9ce0e64b5e994392e36214f91bce78b99c7d",
      "networkId": 0,
      "chainId": 0
    },
    {
      "hash": "0x3317dfc229ade9b0367f1dfe5ebf40e1c9eb0e1852ec1584bf2aa76be64552d8",
      "blockHash": "0x9e4b9e3fc3ac1225e7e68e9d2a18134133af92c509f7145f1c24b5bf4ebaa648",
      "blockNumber": 62027,
      "transactionIndex": 3,
      "confirmations": null,
      "from": "0x4E892e8081BF36E488FddB3b2630f3f1E8da30d2",
      "gasPrice": {
        "_hex": "0x9184e72a000"
      },
      "gasLimit": {
        "_hex": "0x15f90"
      },
      "to": "0x025c3B43d57E72D2150E14B2B0c6D923FbFC0474",
      "value": {
        "_hex": "0x3635c9adc5dea00000"
      },
      "nonce": 11,
      "data": "0x",
      "r": "0x15aa6900d6410a532273b807eb538dd225a72d520efefe3fced4bc417f448688",
      "s": "0x6c4ab8f27521a971547327b89701d7d49ec98aff7bc17d612e951cc39297d9e1",
      "v": 28,
      "creates": null,
      "raw": "0xf86f0b8609184e72a00083015f9094025c3b43d57e72d2150e14b2b0c6d923fbfc0474893635c9adc5dea00000801ca015aa6900d6410a532273b807eb538dd225a72d520efefe3fced4bc417f448688a06c4ab8f27521a971547327b89701d7d49ec98aff7bc17d612e951cc39297d9e1",
      "networkId": 0,
      "chainId": 0
    }
  ]
}