{
  "hash": "0x839aa1852abdf07addffa9d818305d4390ba3048d5b4b3586983a425788911fb",
  "parentHash": "0xd24757b1ad05248e50516bfdf712ffc580e20522afb72acacb6b3ca74a5fb1b7",
  "number": 107500,
  "timestamp": 1439923367,
  "nonce": "0x74238f9aa6b7cc68",
  "difficulty": 4430879486865,
  "gasLimit": {
    "_hex": "0x2fefd8"
  },
  "gasUsed": {
    "_hex": "0x5208"
  },
  "miner": "0xe6A7a1d47ff21B6321162AEA7C6CB457D5476Bca",
  "extraData": "0x476574682f76312e302e312d38326566323666362f6c696e75782f676f312e34",
  "transactions": [
    {
      "hash": "0x0eaca0c62115c716bee1a084fc335ef52f1f271351959ecbb9d1bc5cf168a93a",
      "blockHash": "0x839aa1852abdf07addffa9d818305d4390ba3048d5b4b3586983a425788911fb",
      "blockNumber": 107500,
      "transactionIndex": 0,
      "confirmations": null,
      "from": "0x32Be343B94f860124dC4fEe278FDCBD38C102D88",
      "gasPrice": {
        "_hex": "0xdf8317ed0"
      },
      "gasLimit": {
        "_hex": "0x5208"
      },
      "to": "0x4A2D52D0898f560E53cdf4585A034517c06d0544",
      "value": {
        "_hex": "0x299cd1c148ab8000"
      },
      "nonce": 1221,
      "data": "0x",
      "r": "0xd0babd9c8374f72c21cc22ef33769f199d47364c607d1955e22b942f4c03b662",
      "s": "0x6953e2a0cf0e3de9fc8d7dd327dabb7c7220ff7f99afcac0d8cca5f8f5706adc",
      "v": 27,
      "creates": null,
      "raw": "0xf86e8204c5850df8317ed0825208944a2d52d0898f560e53cdf4585a034517c06d054488299cd1c148ab8000801ba0d0babd9c8374f72c21cc22ef33769f199d47364c607d1955e22b942f4c03b662a06953e2a0cf0e3de9fc8d7dd327dabb7c7220ff7f99afcac0d8cca5f8f5706adc",
      "networkId": 0,
      "chainId": 0
    }
  ]
}