{
  "hash": "0x8e3dcd6686c1c6a5aa7c529d1e4d6bd12bd149fe82f64f1163009b0d4a58ad6f",
  "parentHash": "0xc1ea4e09c85703fc8ff111c20601c6d5c785ac7bd0b65cb0da922c1fa348f934",
  "number": 117902,
  "timestamp": 1440117183,
  "nonce": "0x48dbd7041d184ed0",
  "difficulty": 4356779238864,
  "gasLimit": {
    "_hex": "0x2fefd8"
  },
  "gasUsed": {
    "_hex": "0x5208"
  },
  "miner": "0x9D551f41feD6FC27B719777c224DfeCcE170004d",
  "extraData": "0x476574682f76312e302e322d61303330336666342f6c696e75782f676f312e34",
  "transactions": [
    {
      "hash": "0x7a4916a1435ff6d092f8758f1a5efe7ef7839a89d715ee73e3ba770a13ee7652",
      "blockHash": "0x8e3dcd6686c1c6a5aa7c529d1e4d6bd12bd149fe82f64f1163009b0d4a58ad6f",
      "blockNumber": 117902,
      "transactionIndex": 0,
      "confirmations": null,
      "from": "0x5D9067970755043fF5cE7FA2cd21C12F3646Bc55",
      "gasPrice": {
        "_hex": "0xba43b7400"
      },
      "gasLimit": {
        "_hex": "0x5208"
      },
      "to": "0x32Be343B94f860124dC4fEe278FDCBD38C102D88",
      "value": {
        "_hex": "0x7dc659ad123e7800"
      },
      "nonce": 8,
      "data": "0x",
      "r": "0xb1d29c25d8dd9ee84164f8a92b45af30cf9345846ccb30a540b36ec92713eeae",
      "s": "0x5e8f9a7b5ea44399ed07e7e9310768def9fbf3772a35252cfde45b3a6b2d945c",
      "v": 28,
      "creates": null,
      "raw": "0xf86c08850ba43b74008252089432be343b94f860124dc4fee278fdcbd38c102d88887dc659ad123e7800801ca0b1d29c25d8dd9ee84164f8a92b45af30cf9345846ccb30a540b36ec92713eeaea05e8f9a7b5ea44399ed07e7e9310768def9fbf3772a35252cfde45b3a6b2d945c",
      "networkId": 0,
      "chainId": 0
    }
  ]
}