{
  "hash": "0x8a60c6759aba77baee19a2a817b81b85d599c9579289ceac642dcba3e20ada74",
  "parentHash": "0xf844f89f25e1be5a2d037804d5cf96fa899b264b5d03bdf18f8cc322216daa2b",
  "number": 97352,
  "timestamp": 1439754738,
  "nonce": "0x29a9f2d09fbfd735",
  "difficulty": 3801938023468,
  "gasLimit": {
    "_hex": "0x2fefd8"
  },
  "gasUsed": {
    "_hex": "0x5208"
  },
  "miner": "0xe6A7a1d47ff21B6321162AEA7C6CB457D5476Bca",
  "extraData": "0x476574682f76312e302e312d38326566323666362f6c696e75782f676f312e34",
  "transactions": [
    {
      "hash": "0x9eeb1948d8986a6a4095091f31fbd30c73e07e5fc00fc4cf8396963aef92dc52",
      "blockHash": "0x8a60c6759aba77baee19a2a817b81b85d599c9579289ceac642dcba3e20ada74",
      "blockNumber": 97352,
      "transactionIndex": 0,
      "confirmations": null,
      "from": "0x120A270bbC009644e35F0bB6ab13f95b8199c4ad",
      "gasPrice": {
        "_hex": "0xdea4811af"
      },
      "gasLimit": {
        "_hex": "0x3d090"
      },
      "to": "0x8d304933a1F93F268bFDcFF9FFE6846a75167279",
      "value": {
        "_hex": "0x4703374bb9a9c00"
      },
      "nonce": 642,
      "data": "0x",
      "r": "0xc862e752de5f824f340deaf86eb8c9ecdf82a0e386d67001b1c80bc00e7aaef6",
      "s": "0x65dc3e56a72e60a2c060605df42e641f554dbaa62498e1a8de4edeb54f2bdbc5",
      "v": 27,
      "creates": null,
      "raw": "0xf86f820282850dea4811af8303d090948d304933a1f93f268bfdcff9ffe6846a751672798804703374bb9a9c00801ba0c862e752de5f824f340deaf86eb8c9ecdf82a0e386d67001b1c80bc00e7aaef6a065dc3e56a72e60a2c060605df42e641f554dbaa62498e1a8de4edeb54f2bdbc5",
      "networkId": 0,
      "chainId": 0
    }
  ]
}