{
  "hash": "0x94b1bcf87b8ce0108638a86a681d22a6aae6867eb6fefd0818d372f8e2402094",
  "parentHash": "0x348a8ebd7ea8e46fcac78b7e47c8028ba9789166eada659af035d5d23589d68d",
  "number": 50809,
  "timestamp": 1438994963,
  "nonce": "0x16f7d0fe3ae7e8a8",
  "difficulty": 1548444124786,
  "gasLimit": {
    "_hex": "0x79b30"
  },
  "gasUsed": {
    "_hex": "0x5208"
  },
  "miner": "0x0037ce3d4B7f8729C8607D8D0248252Be68202c0",
  "extraData": "0x476574682f76312e302e312f77696e646f77732f676f312e342e32",
  "transactions": [
    {
      "hash": "0xe885129b4d557a4d7165ce646060beab5baf2fa47843b875374fb685a031392b",
      "blockHash": "0x94b1bcf87b8ce0108638a86a681d22a6aae6867eb6fefd0818d372f8e2402094",
      "blockNumber": 50809,
      "transactionIndex": 0,
      "confirmations": null,
      "from": "0xE52F3039aE6D54885703588D0F8726596022ff9D",
      "gasPrice": {
        "_hex": "0xce9fb5a64"
      },
      "gasLimit": {
        "_hex": "0x5208"
      },
      "to": "0x32Be343B94f860124dC4fEe278FDCBD38C102D88",
      "value": {
        "_hex": "0xb5d164da5b9ac00"
      },
      "nonce": 2,
      "data": "0x",
      "r": "0x07dd169f240861b1fbebb63cdd7308217c7105a57db0ec2f56cac8521e03afa1",
      "s": "0x3ab3532d0eb11fd77ac09b4d80b0f6eae62742f089d00affaddf0e04cfcf1aa5",
      "v": 28,
      "creates": null,
      "raw": "0xf86c02850ce9fb5a648252089432be343b94f860124dc4fee278fdcbd38c102d88880b5d164da5b9ac00801ca007dd169f240861b1fbebb63cdd7308217c7105a57db0ec2f56cac8521e03afa1a03ab3532d0eb11fd77ac09b4d80b0f6eae62742f089d00affaddf0e04cfcf1aa5",
      "networkId": 0,
      "chainId": 0
    }
  ]
}