{
  "hash": "0x67c13c15ca6e6cc0ea2043d43dbc110aad1a701c1aca2a065e246f86a11f096f",
  "parentHash": "0x51e41909bee27069f4b405902d4688266c2e5df74aa812ccbd0589a1dae669f7",
  "number": 101460,
  "timestamp": 1439823385,
  "nonce": "0x5a87a61a6b104f5a",
  "difficulty": 3841117805541,
  "gasLimit": {
    "_hex": "0x2fefd8"
  },
  "gasUsed": {
    "_hex": "0xf618"
  },
  "miner": "0xe6A7a1d47ff21B6321162AEA7C6CB457D5476Bca",
  "extraData": "0x476574682f76312e302e312d38326566323666362f6c696e75782f676f312e34",
  "transactions": [
    {
      "hash": "0xaae7678c4e5bf3a242b85c384f7fe2294f17c6a29212b6a376dd8ff6ea3b27fb",
      "blockHash": "0x67c13c15ca6e6cc0ea2043d43dbc110aad1a701c1aca2a065e246f86a11f096f",
      "blockNumber": 101460,
      "transactionIndex": 0,
      "confirmations": null,
      "from": "0xb4A9c47d4182b60B07a31d310cEDA8105a1122c4",
      "gasPrice": {
        "_hex": "0xdc9ed0fc7"
      },
      "gasLimit": {
        "_hex": "0x5208"
      },
      "to": "0x32Be343B94f860124dC4fEe278FDCBD38C102D88",
      "value": {
        "_hex": "0x11f903bd6f7ea000"
      },
      "nonce": 4,
      "data": "0x",
      "r": "0x3b2fa0fe7dd525605635e306cb4fc0227da1b263580b4d300623010210dec678",
      "s": "0x49d71e9166f1026235658947ca3c16803c55849e2a09e35c90c7db8d7b4c031f",
      "v": 27,
      "creates": null,
      "raw": "0xf86c04850dc9ed0fc78252089432be343b94f860124dc4fee278fdcbd38c102d888811f903bd6f7ea000801ba03b2fa0fe7dd525605635e306cb4fc0227da1b263580b4d300623010210dec678a049d71e9166f1026235658947ca3c16803c55849e2a09e35c90c7db8d7b4c031f",
      "networkId": 0,
      "chainId": 0
    },
    {
      "hash": "0xabb93fc53d043b2d3d1dd15c9e91693b59baf42e231acc7e1f848189f8689262",
      "blockHash": "0x67c13c15ca6e6cc0ea2043d43dbc110aad1a701c1aca2a065e246f86a11f096f",
      "blockNumber": 101460,
      "transactionIndex": 1,
      "confirmations": null,
      "from": "0x2910543Af39abA0Cd09dBb2D50200b3E800A63D2",
      "gasPrice": {
        "_hex": "0xda5e072f6"
      },
      "gasLimit": {
        "_hex": "0x5208"
      },
      "to": "0xBe03672a7Be6D787BD02C29962183339BCc313F4",
      "value": {
        "_hex": "0xaa178e4bd0b7ebe000"
      },
      "nonce": 971,
      "data": "0x",
      "r": "0x121cfdc89bd4b8ab267144ecf288ae346de48d717d7dfd843f3dcb56e28060fd",
      "s": "0x6ad61f85a2c6a4d9e072ef26b37981999ac8e63d287f3ebb676b1bede9870662",
      "v": 27,
      "creates": null,
      "raw": "0xf86f8203cb850da5e072f682520894be03672a7be6d787bd02c29962183339bcc313f489aa178e4bd0b7ebe000801ba0121cfdc89bd4b8ab267144ecf288ae346de48d717d7dfd843f3dcb56e28060fda06ad61f85a2c6a4d9e072ef26b37981999ac8e63d287f3ebb676b1bede9870662",
      "networkId": 0,
      "chainId": 0
    },
    {
      "hash": "0xf292cbc545bd466ce3956b8da01347eb5858ce01ecb7a9c0c203078222888142",
      "blockHash": "0x67c13c15ca6e6cc0ea2043d43dbc110aad1a701c1aca2a065e246f86a11f096f",
      "blockNumber": 101460,
      "transactionIndex": 2,
      "confirmations": null,
      "from": "0x7884D470204862a0d1A21122F41ee77430396Ee5",
      "gasPrice": {
        "_hex": "0xd0f9e69e8"
      },
      "gasLimit": {
        "_hex": "0x15f90"
      },
      "to": "0x414159CAfdb23F0d1f0a28AaE70Ca44D6E58268a",
      "value": {
        "_hex": "0x186cc6acd4b0000"
      },
      "nonce": 87,
      "data": "0x",
      "r": "0x93dce5267e9660e708cd202f182c22d557b94cf5f822ed2d185c1554e6f7ba83",
      "s": "0x52b9d7dca1bde148c46ee266fc888ca94dbbaa919899742476df3659a95cb22e",
      "v": 28,
      "creates": null,
      "raw": "0xf86d57850d0f9e69e883015f9094414159cafdb23f0d1f0a28aae70ca44d6e58268a880186cc6acd4b0000801ca093dce5267e9660e708cd202f182c22d557b94cf5f822ed2d185c1554e6f7ba83a052b9d7dca1bde148c46ee266fc888ca94dbbaa919899742476df3659a95cb22e",
      "networkId": 0,
      "chainId": 0
    }
  ]
}