{
  "hash": "0xbe6ec6460fd4c59c49cef3c926626a1d0a8a9ec1651831b972f624c19758ac41",
  "parentHash": "0xec7bc4ff52c3a7fd1b510909580893276afb7b6d86943233f0c637949e34ff34",
  "number": 87037,
  "timestamp": 1439586329,
  "nonce": "0x78183f883154a209",
  "difficulty": 3021591070959,
  "gasLimit": {
    "_hex": "0x2fefd8"
  },
  "gasUsed": {
    "_hex": "0x5208"
  },
  "miner": "0x790b8a3cE86E707ED0eD32bF89B3269692a23CC1",
  "extraData": "0xd783010001844765746887676f312e342e32856c696e7578",
  "transactions": [
    {
      "hash": "0xcc1b62ffe3921b87d87e7f0360ab78cc2e90a30f359ed583cf00e68f916d022a",
      "blockHash": "0xbe6ec6460fd4c59c49cef3c926626a1d0a8a9ec1651831b972f624c19758ac41",
      "blockNumber": 87037,
      "transactionIndex": 0,
      "confirmations": null,
      "from": "0xA55d7191414077D72850992A603Fa1db834bfB74",
      "gasPrice": {
        "_hex": "0xd807c02ac"
      },
      "gasLimit": {
        "_hex": "0x15f90"
      },
      "to": "0x0B9C3632dc66A719f83ae395BC99cC1C8d04462b",
      "value": {
        "_hex": "0x14d1120d7b160000"
      },
      "nonce": 0,
      "data": "0x",
      "r": "0xfd22d3d0866b713a1a334786d1639107da614d6b5840571f8447709ef2bc4068",
      "s": "0x38aaccdb568eaa3a93a6e1982d534fd8e5061a93d0a06d8c140454bc3c5a750d",
      "v": 28,
      "creates": null,
      "raw": "0xf86d80850d807c02ac83015f90940b9c3632dc66a719f83ae395bc99cc1c8d04462b8814d1120d7b160000801ca0fd22d3d0866b713a1a334786d1639107da614d6b5840571f8447709ef2bc4068a038aaccdb568eaa3a93a6e1982d534fd8e5061a93d0a06d8c140454bc3c5a750d",
      "networkId": 0,
      "chainId": 0
    }
  ]
}