{
  "hash": "0x3a9c4e1807d6bb3418be7e9a56842aa38a35835a20b0b7c59f51ba19f53cfaba",
  "parentHash": "0xfc0287df00e9e811db4ce386fe8a234c2fb5ec49ae4f187d98e88781add93c2e",
  "number": 48867,
  "timestamp": 1438964328,
  "nonce": "0xc810e48204bdaef3",
  "difficulty": 1473554411720,
  "gasLimit": {
    "_hex": "0x1fe86"
  },
  "gasUsed": {
    "_hex": "0xa8d8"
  },
  "miner": "0x9b7999611FD5eFF3ef9A86653490c42E83ED4B8E",
  "extraData": "0x",
  "transactions": [
    {
      "hash": "0x260b287f538d4352e6a7327ec44c68ce746cb4845ec2a43e7541ad6b32f8e686",
      "blockHash": "0x3a9c4e1807d6bb3418be7e9a56842aa38a35835a20b0b7c59f51ba19f53cfaba",
      "blockNumber": 48867,
      "transactionIndex": 0,
      "confirmations": null,
      "from": "0x5a30FeaC37ac9F72D7B4aF0f2BC73952C74FD5c3",
      "gasPrice": {
        "_hex": "0x110c8f7d8de"
      },
      "gasLimit": {
        "_hex": "0xc350"
      },
      "to": "0x2910543Af39abA0Cd09dBb2D50200b3E800A63D2",
      "value": {
        "_hex": "0x6c5db2a4d815dc0000"
      },
      "nonce": 0,
      "data": "0x454e344d4a35325947",
      "r": "0x9bc8f5d2c0a073f22e81f49eff500dc32a21040b74a271b39ad55699a59c0e28",
      "s": "0xe6fbb760a1bc73ddc5c593d5f7983ffe2c1d22b9fdf59e43f61aa739b3e0f141",
      "v": 28,
      "creates": null,
      "raw": "0xf87780860110c8f7d8de82c350942910543af39aba0cd09dbb2d50200b3e800a63d2896c5db2a4d815dc000089454e344d4a353259471ca09bc8f5d2c0a073f22e81f49eff500dc32a21040b74a271b39ad55699a59c0e28a0e6fbb760a1bc73ddc5c593d5f7983ffe2c1d22b9fdf59e43f61aa739b3e0f141",
      "networkId": 0,
      "chainId": 0
    },
    {
      "hash": "0x70f008b7313dd4b69fb10afb92267f2da33c98c76a3d1c3b1c941e5120acc0bf",
      "blockHash": "0x3a9c4e1807d6bb3418be7e9a56842aa38a35835a20b0b7c59f51ba19f53cfaba",
      "blockNumber": 48867,
      "transactionIndex": 1,
      "confirmations": null,
      "from": "0xf2Efe96560C9D97b72bd36447843885C1D90C231",
      "gasPrice": {
        "_hex": "0x110c8f7d8de"
      },
      "gasLimit": {
        "_hex": "0xc350"
      },
      "to": "0x2910543Af39abA0Cd09dBb2D50200b3E800A63D2",
      "value": {
        "_hex": "0x514f6ec622e0270000"
      },
      "nonce": 1,
      "data": "0x454e50315156315052",
      "r": "0x2a1addcb5b49025c61ca1106263bb03b5439632568398198e07c4964c9a66bdd",
      "s": "0xa0abf2c55639720a016cf98a09e77c8f736bb47de2adce20132ef9e25cf2d1ad",
      "v": 27,
      "creates": null,
      "raw": "0xf87701860110c8f7d8de82c350942910543af39aba0cd09dbb2d50200b3e800a63d289514f6ec622e027000089454e503151563150521ba02a1addcb5b49025c61ca1106263bb03b5439632568398198e07c4964c9a66bdda0a0abf2c55639720a016cf98a09e77c8f736bb47de2adce20132ef9e25cf2d1ad",
      "networkId": 0,
      "chainId": 0
    }
  ]
}