{
  "hash": "0x0de60ca7a80460a9c286a59c602b25593903196d8d9f430cdb4d2cb9a77a3159",
  "parentHash": "0xe6215efd921ee2eb9f4a16ed6b299e45679c9a8f080e9c86431d4ca8db366a5f",
  "number": 64704,
  "timestamp": 1439225128,
  "nonce": "0x63e764fa424bcb5a",
  "difficulty": 1885748279725,
  "gasLimit": {
    "_hex": "0x2fefd8"
  },
  "gasUsed": {
    "_hex": "0x5208"
  },
  "miner": "0xbb7B8287f3F0a933474a79eAe42CBCa977791171",
  "extraData": "0x476574682f4c5649562f76312e302e312f6c696e75782f676f312e342e32",
  "transactions": [
    {
      "hash": "0xa4597881e70fbde12eefb9dd1721746d537fc9932976416cb0da17d705919629",
      "blockHash": "0x0de60ca7a80460a9c286a59c602b25593903196d8d9f430cdb4d2cb9a77a3159",
      "blockNumber": 64704,
      "transactionIndex": 0,
      "confirmations": null,
      "from": "0xF2d2AfF1320476cb8C6b607199D23175cc595693",
      "gasPrice": {
        "_hex": "0xd69b48315"
      },
      "gasLimit": {
        "_hex": "0x15f90"
      },
      "to": "0xF5EeDc192aB70b08D8354384aD94efD095849E00",
      "value": {
        "_hex": "0x402f4cfee62e80000"
      },
      "nonce": 20,
      "data": "0x",
      "r": "0x6e126272f1345649d88b6c2d16cf59e2f08ef4fdae18f0c447382eb598285af2",
      "s": "0x14dd6c8310f648d7c90e32f3a59f766f83a205916afc51e51cbcb7ee90832791",
      "v": 28,
      "creates": null,
      "raw": "0xf86e14850d69b4831583015f9094f5eedc192ab70b08d8354384ad94efd095849e00890402f4cfee62e80000801ca06e126272f1345649d88b6c2d16cf59e2f08ef4fdae18f0c447382eb598285af2a014dd6c8310f648d7c90e32f3a59f766f83a205916afc51e51cbcb7ee90832791",
      "networkId": 0,
      "chainId": 0
    }
  ]
}