{
  "hash": "0x83d0b0974a7a3844cfa7508cfa8bf0e9c1b6abac30f64d2cc6f9190f9721f9ed",
  "parentHash": "0xd1cd2fbeb1ab7bf269c55fafafd09f701e0909bf4f7280214623bc5c9e15d477",
  "number": 98578,
  "timestamp": 1439775258,
  "nonce": "0x0e145a04ed0001ff",
  "difficulty": 3861245475701,
  "gasLimit": {
    "_hex": "0x2fefd8"
  },
  "gasUsed": {
    "_hex": "0x5208"
  },
  "miner": "0xC603Ab5ef41fC61AA8b76bEddb09e3Cfcbb174BD",
  "extraData": "0x476574682f76312e302e312f77696e646f77732f676f312e342e32",
  "transactions": [
    {
      "hash": "0x97c2e0c483691a2a880b588de7e03f233b1834fb9a148d4fa82cf1e8d9712dce",
      "blockHash": "0x83d0b0974a7a3844cfa7508cfa8bf0e9c1b6abac30f64d2cc6f9190f9721f9ed",
      "blockNumber": 98578,
      "transactionIndex": 0,
      "confirmations": null,
      "from": "0xa6BDc31c431B8F97848c9D60cbbe9660dc450eB7",
      "gasPrice": {
        "_hex": "0xce2e026d6"
      },
      "gasLimit": {
        "_hex": "0x5208"
      },
      "to": "0x32Be343B94f860124dC4fEe278FDCBD38C102D88",
      "value": {
        "_hex": "0x455f706e32785400"
      },
      "nonce": 142,
      "data": "0x",
      "r": "0x6612567a60a0f7b2b1a098c99fb54139e32c093d57a4ddac330d06b011f7002d",
      "s": "0x022b38bc1301c699673d3379ef78c3d6ddd805ea31df325e7cd5d82b09883d8f",
      "v": 27,
      "creates": null,
      "raw": "0xf86d818e850ce2e026d68252089432be343b94f860124dc4fee278fdcbd38c102d8888455f706e32785400801ba06612567a60a0f7b2b1a098c99fb54139e32c093d57a4ddac330d06b011f7002da0022b38bc1301c699673d3379ef78c3d6ddd805ea31df325e7cd5d82b09883d8f",
      "networkId": 0,
      "chainId": 0
    }
  ]
}