{
  "hash": "0xdb2cbc81e5e058013a24f6ca9d8aff5fbb7a49da2bfb7f474193f014e86eaf8b",
  "parentHash": "0xa4745f2b4a26c432bee2ecee3c2c76f44a8c12eaafcbda764ae3aa6117574f9d",
  "number": 60231,
  "timestamp": 1439151913,
  "nonce": "0x8454b9b1bd82dc6b",
  "difficulty": 1739008208383,
  "gasLimit": {
    "_hex": "0x2fefd8"
  },
  "gasUsed": {
    "_hex": "0xa674"
  },
  "miner": "0x0037ce3d4B7f8729C8607D8D0248252Be68202c0",
  "extraData": "0x476574682f76312e302e312f77696e646f77732f676f312e342e32",
  "transactions": [
    {
      "hash": "0x609714ee74e086573490f816c0173cc5376991d82069b5dfdceecf558fe61bf8",
      "blockHash": "0xdb2cbc81e5e058013a24f6ca9d8aff5fbb7a49da2bfb7f474193f014e86eaf8b",
      "blockNumber": 60231,
      "transactionIndex": 0,
      "confirmations": null,
      "from": "0xCBde9734b8E6aA538c291D6d7fAcEDb0F338F857",
      "gasPrice": {
        "_hex": "0x104185aedd6"
      },
      "gasLimit": {
        "_hex": "0x55f0"
      },
      "to": "0x2910543Af39abA0Cd09dBb2D50200b3E800A63D2",
      "value": {
        "_hex": "0x1b1ae4d6e2ef500000"
      },
      "nonce": 0,
      "data": "0x454e5a50504b564852",
      "r": "0x4bfb7433fd33bca92bfb16f32740afe07e2b77f6bd8ea3dc698b7cc7c9ee50c6",
      "s": "0x1808da4db0e57ac733ba48af9682ce1a0c236b00f7b2562b7d781aca0011c829",
      "v": 28,
      "creates": null,
      "raw": "0xf87780860104185aedd68255f0942910543af39aba0cd09dbb2d50200b3e800a63d2891b1ae4d6e2ef50000089454e5a50504b5648521ca04bfb7433fd33bca92bfb16f32740afe07e2b77f6bd8ea3dc698b7cc7c9ee50c6a01808da4db0e57ac733ba48af9682ce1a0c236b00f7b2562b7d781aca0011c829",
      "networkId": 0,
      "chainId": 0
    },
    {
      "hash": "0x5a26853324d33a426cf1bdd5c28e885ec6c27aaba4a1840a35f5b947b75d56d2",
      "blockHash": "0xdb2cbc81e5e058013a24f6ca9d8aff5fbb7a49da2bfb7f474193f014e86eaf8b",
      "blockNumber": 60231,
      "transactionIndex": 1,
      "confirmations": null,
      "from": "0xa5c336083B04f9471B8c6ed73679b74d66c363EC",
      "gasPrice": {
        "_hex": "0xba43b7400"
      },
      "gasLimit": {
        "_hex": "0x5208"
      },
      "to": "0x42DbB395D3D789B9D56D5d1e71e795d4228C9D5C",
      "value": {
        "_hex": "0xa3650691a4f3de6000"
      },
      "nonce": 0,
      "data": "0x",
      "r": "0x5e8eb631c753a40590924cab689aeeae4bb8202dc91724491177ca067c9ab7a6",
      "s": "0x8275b7ddf89f74a66f3f89304a5fb418d57a0d928553204246d9eabc7b71dc42",
      "v": 28,
      "creates": null,
      "raw": "0xf86d80850ba43b74008252089442dbb395d3d789b9d56d5d1e71e795d4228c9d5c89a3650691a4f3de6000801ca05e8eb631c753a40590924cab689aeeae4bb8202dc91724491177ca067c9ab7a6a08275b7ddf89f74a66f3f89304a5fb418d57a0d928553204246d9eabc7b71dc42",
      "networkId": 0,
      "chainId": 0
    }
  ]
}