{
  "hash": "0x0634acfafa8970a0d4c91c762e3a912e1d5db17618c9c81d76e53e83469856d8",
  "parentHash": "0xd15fb4d3225702b4f85e2e30de6a1b88fe1ca93d72910177fb1e17c53a879708",
  "number": 94716,
  "timestamp": 1439712943,
  "nonce": "0x70bb1f6ca4780c23",
  "difficulty": 3486544423756,
  "gasLimit": {
    "_hex": "0x2fefd8"
  },
  "gasUsed": {
    "_hex": "0xf618"
  },
  "miner": "0xe6A7a1d47ff21B6321162AEA7C6CB457D5476Bca",
  "extraData": "0x476574682f76312e302e312d38326566323666362f6c696e75782f676f312e34",
  "transactions": [
    {
      "hash": "0x75ba6ad4723799f2e8bea5010eff7770035c95c5643c3e8db5f6ae8a712f45f5",
      "blockHash": "0x0634acfafa8970a0d4c91c762e3a912e1d5db17618c9c81d76e53e83469856d8",
      "blockNumber": 94716,
      "transactionIndex": 0,
      "confirmations": null,
      "from": "0x90fba3C13F19F8cf72A3Bb9EE63C8f728F548654",
      "gasPrice": {
        "_hex": "0xdd31eb0a5"
      },
      "gasLimit": {
        "_hex": "0x5208"
      },
      "to": "0x32Be343B94f860124dC4fEe278FDCBD38C102D88",
      "value": {
        "_hex": "0xb91cb9b4350f1800"
      },
      "nonce": 5,
      "data": "0x",
      "r": "0x2c7aa668a5d4230a4b9ca7b615f5fa5a47ef4030bd0ce8c7080d05c64d651cf8",
      "s": "0x6103987fa2050b5d3d839ba099c3ee3e7e6fb309c0e1d79f37e5f24e236f889b",
      "v": 28,
      "creates": null,
      "raw": "0xf86c05850dd31eb0a58252089432be343b94f860124dc4fee278fdcbd38c102d8888b91cb9b4350f1800801ca02c7aa668a5d4230a4b9ca7b615f5fa5a47ef4030bd0ce8c7080d05c64d651cf8a06103987fa2050b5d3d839ba099c3ee3e7e6fb309c0e1d79f37e5f24e236f889b",
      "networkId": 0,
      "chainId": 0
    },
    {
      "hash": "0xaa1c64488249b40ce1f0af390514cc1212d740278f84c944cfb2901fe411cbe9",
      "blockHash": "0x0634acfafa8970a0d4c91c762e3a912e1d5db17618c9c81d76e53e83469856d8",
      "blockNumber": 94716,
      "transactionIndex": 1,
      "confirmations": null,
      "from": "0x2b176421eEBBf303fa94aD4fE78362Fa9e4Ca693",
      "gasPrice": {
        "_hex": "0xdd31eb0a5"
      },
      "gasLimit": {
        "_hex": "0x5208"
      },
      "to": "0x32Be343B94f860124dC4fEe278FDCBD38C102D88",
      "value": {
        "_hex": "0x1a50b1fb8092f1000"
      },
      "nonce": 5,
      "data": "0x",
      "r": "0xcb4ba2752d0731498968a443ff8c258b2ea65766ba267842e33c502a33fc5b54",
      "s": "0x40bd1d3dc20b1c107ba0068e75f87fec5ab78c4f2b26b0cd944bf609f9cc88b4",
      "v": 27,
      "creates": null,
      "raw": "0xf86d05850dd31eb0a58252089432be343b94f860124dc4fee278fdcbd38c102d888901a50b1fb8092f1000801ba0cb4ba2752d0731498968a443ff8c258b2ea65766ba267842e33c502a33fc5b54a040bd1d3dc20b1c107ba0068e75f87fec5ab78c4f2b26b0cd944bf609f9cc88b4",
      "networkId": 0,
      "chainId": 0
    },
    {
      "hash": "0x04268fb5f2ae4ca03126c9753774426d5cf30514d474db675e5f00238b4aad99",
      "blockHash": "0x0634acfafa8970a0d4c91c762e3a912e1d5db17618c9c81d76e53e83469856d8",
      "blockNumber": 94716,
      "transactionIndex": 2,
      "confirmations": null,
      "from": "0x1308A2e95c0160B90803ddCA9B9a5bb55E416d79",
      "gasPrice": {
        "_hex": "0xcb8534f1f"
      },
      "gasLimit": {
        "_hex": "0x15f90"
      },
      "to": "0x1E1b3D8C74C466E4Cc4CA0d9b4000E8d3fe326fe",
      "value": {
        "_hex": "0xa4384fa8b1f98cc00"
      },
      "nonce": 149,
      "data": "0x",
      "r": "0x4db4f16f3229bb7bc7a012c06487fd5b48f7a6a191db2444614324548fb7df41",
      "s": "0x24cfeedc41458499b323b927f05f2951da7cca194f6533ad5aa22c63b45649d7",
      "v": 28,
      "creates": null,
      "raw": "0xf86f8195850cb8534f1f83015f90941e1b3d8c74c466e4cc4ca0d9b4000e8d3fe326fe890a4384fa8b1f98cc00801ca04db4f16f3229bb7bc7a012c06487fd5b48f7a6a191db2444614324548fb7df41a024cfeedc41458499b323b927f05f2951da7cca194f6533ad5aa22c63b45649d7",
      "networkId": 0,
      "chainId": 0
    }
  ]
}