{
  "hash": "0x4c63f717954d38b1345632b9741b3c87c105bf83fda38ed5f42e99ad395c24a3",
  "parentHash": "0xb89f07d926d350a4c3abccce387e61329e814b053335e43c2ab1c5c663c8c616",
  "number": 58669,
  "timestamp": 1439124641,
  "nonce": "0x11bc0443ef075702",
  "difficulty": 1712366204323,
  "gasLimit": {
    "_hex": "0x2fefd8"
  },
  "gasUsed": {
    "_hex": "0x5208"
  },
  "miner": "0x88D74a59454F6cF3B51ef6b9136AFb6b9D405A88",
  "extraData": "0x476574682f76312e302e312d38326566323666362f6c696e75782f676f312e34",
  "transactions": [
    {
      "hash": "0x8135134786346a189650f6f9c9fffa66b258761828a8e894b63d5a250581db68",
      "blockHash": "0x4c63f717954d38b1345632b9741b3c87c105bf83fda38ed5f42e99ad395c24a3",
      "blockNumber": 58669,
      "transactionIndex": 0,
      "confirmations": null,
      "from": "0xEF247E639d49461D25F57e9362CadE3120910Ce0",
      "gasPrice": {
        "_hex": "0xda92387b7"
      },
      "gasLimit": {
        "_hex": "0x15f90"
      },
      "to": "0xF87481A262E993a75F791E7859E71BaC36A606Eb",
      "value": {
        "_hex": "0x68155a43676e00000"
      },
      "nonce": 7,
      "data": "0x",
      "r": "0xa944604a5ec0df4e5868494b4b5ab94ff5ab34cee787e24a5a64ff3042574549",
      "s": "0x50d86e30ef54d576a58b842e57bcdcae1cd6e24002721c5502daa2b4b7f08d0d",
      "v": 27,
      "creates": null,
      "raw": "0xf86e07850da92387b783015f9094f87481a262e993a75f791e7859e71bac36a606eb89068155a43676e00000801ba0a944604a5ec0df4e5868494b4b5ab94ff5ab34cee787e24a5a64ff3042574549a050d86e30ef54d576a58b842e57bcdcae1cd6e24002721c5502daa2b4b7f08d0d",
      "networkId": 0,
      "chainId": 0
    }
  ]
}