{
  "hash": "0x4c58c48bbdd3e04d203dc50588e60e3eaccb9712bf5d01854055f9032ef07459",
  "parentHash": "0x82e2020aa61e3938e128310454e9cf69a4380c104b3479de8fd3650465cc0f92",
  "number": 108486,
  "timestamp": 1439941382,
  "nonce": "0xbe198e859fdc8dc7",
  "difficulty": 4306649566275,
  "gasLimit": {
    "_hex": "0x2fefd8"
  },
  "gasUsed": {
    "_hex": "0x5208"
  },
  "miner": "0xf927a40C8B7F6E07c5af7FA2155B4864a4112B13",
  "extraData": "0x",
  "transactions": [
    {
      "hash": "0x558c4ffe757e46fbe20a218045cd3ea70b57e3b4efc1cc18a5654b9ec821e987",
      "blockHash": "0x4c58c48bbdd3e04d203dc50588e60e3eaccb9712bf5d01854055f9032ef07459",
      "blockNumber": 108486,
      "transactionIndex": 0,
      "confirmations": null,
      "from": "0x0D4EcC7d750180EBf4A9Df728B6669B5Bceb5E40",
      "gasPrice": {
        "_hex": "0xcca716b89"
      },
      "gasLimit": {
        "_hex": "0x5208"
      },
      "to": "0x32Be343B94f860124dC4fEe278FDCBD38C102D88",
      "value": {
        "_hex": "0x4563333b0b79c800"
      },
      "nonce": 92,
      "data": "0x",
      "r": "0x130369bfb3383f07f4273d071e49648f090586eb8c6909c9e894e98f64c8c519",
      "s": "0x6005cf9f1cba2b7ec5c2036f7b2014a8883d4bb6beb6a6816a2e77b69300e656",
      "v": 28,
      "creates": null,
      "raw": "0xf86c5c850cca716b898252089432be343b94f860124dc4fee278fdcbd38c102d88884563333b0b79c800801ca0130369bfb3383f07f4273d071e49648f090586eb8c6909c9e894e98f64c8c519a06005cf9f1cba2b7ec5c2036f7b2014a8883d4bb6beb6a6816a2e77b69300e656",
      "networkId": 0,
      "chainId": 0
    }
  ]
}