{
  "hash": "0x1975d2ce080b6ab04c1e6e2143581bae4b70f75ab1d28f20b2c7e06fbbdc29d2",
  "parentHash": "0x4e97d2837b4b43e7329efb17689cf59e1db28b0ceb8dbaea410e7b84384f9dd9",
  "number": 93458,
  "timestamp": 1439690647,
  "nonce": "0xd0252e1fb8b4fa8c",
  "difficulty": 3514416733820,
  "gasLimit": {
    "_hex": "0x2fefd5"
  },
  "gasUsed": {
    "_hex": "0x5208"
  },
  "miner": "0xf8E0CA3Ed80bd541b94BEdCf259e8CF2141A9523",
  "extraData": "0x476574682f76312e302e312f77696e646f77732f676f312e342e32",
  "transactions": [
    {
      "hash": "0xbf112bac5c30014a6e26b4efdc71290067d333e24efb8259d5524bba34585a01",
      "blockHash": "0x1975d2ce080b6ab04c1e6e2143581bae4b70f75ab1d28f20b2c7e06fbbdc29d2",
      "blockNumber": 93458,
      "transactionIndex": 0,
      "confirmations": null,
      "from": "0x32Be343B94f860124dC4fEe278FDCBD38C102D88",
      "gasPrice": {
        "_hex": "0xd1eaeebca"
      },
      "gasLimit": {
        "_hex": "0x5208"
      },
      "to": "0xc8ebccC5F5689Fa8659d83713341e5aD19349448",
      "value": {
        "_hex": "0xf2d992502294f800"
      },
      "nonce": 919,
      "data": "0x",
      "r": "0xbe0fc213145014e4ebbf5fc0015a7ad015598df8a33747a1767ba080b45c0162",
      "s": "0x0261eb0601e33b9bc3f15831d96ad0834f2718cfcd15df83adb6d918e2e1c79f",
      "v": 28,
      "creates": null,
      "raw": "0xf86e820397850d1eaeebca82520894c8ebccc5f5689fa8659d83713341e5ad1934944888f2d992502294f800801ca0be0fc213145014e4ebbf5fc0015a7ad015598df8a33747a1767ba080b45c0162a00261eb0601e33b9bc3f15831d96ad0834f2718cfcd15df83adb6d918e2e1c79f",
      "networkId": 0,
      "chainId": 0
    }
  ]
}