{
  "hash": "0x2b565d6eef140552accf1f43110ea87f36bd7152e75664136aadc8158b98b7c8",
  "parentHash": "0xf25437290e514ad800473bb40b94527443fcb1a5cd420fc6c328f344e4987d1c",
  "number": 117275,
  "timestamp": 1440106439,
  "nonce": "0x42cc7da9047f15a5",
  "difficulty": 4329535083266,
  "gasLimit": {
    "_hex": "0x2fefd8"
  },
  "gasUsed": {
    "_hex": "0x546c"
  },
  "miner": "0xe6A7a1d47ff21B6321162AEA7C6CB457D5476Bca",
  "extraData": "0xd783010002844765746887676f312e342e32856c696e7578",
  "transactions": [
    {
      "hash": "0xa6375a9a2c63d0c1fb7ae7b9c5423be5398993a10395f1a6938203ead139740e",
      "blockHash": "0x2b565d6eef140552accf1f43110ea87f36bd7152e75664136aadc8158b98b7c8",
      "blockNumber": 117275,
      "transactionIndex": 0,
      "confirmations": null,
      "from": "0x27F03cF1aBC5e1b51DBc444B289e542c9Ddfb0e6",
      "gasPrice": {
        "_hex": "0x110c8f7d8de"
      },
      "gasLimit": {
        "_hex": "0xc350"
      },
      "to": "0x2910543Af39abA0Cd09dBb2D50200b3E800A63D2",
      "value": {
        "_hex": "0x3635c9adc5dea00000"
      },
      "nonce": 2,
      "data": "0x454e51313654353738",
      "r": "0x233d8da92e944b152f02f70c25ae086f3edfb3fa5d5365eee2a42bd3d6c062fe",
      "s": "0xf0c4d2e4be6f1d5e6e68e9fc8ebd38a365389bf03d88a073eb255dd97d247e48",
      "v": 27,
      "creates": null,
      "raw": "0xf87702860110c8f7d8de82c350942910543af39aba0cd09dbb2d50200b3e800a63d2893635c9adc5dea0000089454e513136543537381ba0233d8da92e944b152f02f70c25ae086f3edfb3fa5d5365eee2a42bd3d6c062fea0f0c4d2e4be6f1d5e6e68e9fc8ebd38a365389bf03d88a073eb255dd97d247e48",
      "networkId": 0,
      "chainId": 0
    }
  ]
}