{
  "hash": "0x6ef427238af956d29431e859d6f7b516268b916eeb31f2ae67291f557f65814f",
  "parentHash": "0xe5b28344530552cc7a88c766a01727cf8b8cf6ecfaa9e0fe11f28bd4b0bf14be",
  "number": 97240,
  "timestamp": 1439753037,
  "nonce": "0xe664924157e202ae",
  "difficulty": 3783469634893,
  "gasLimit": {
    "_hex": "0x2fefd8"
  },
  "gasUsed": {
    "_hex": "0x3df2e"
  },
  "miner": "0x2f6BCe4fc330B69C9B4c2694d57C63Ec7B18feC7",
  "extraData": "0x476574682f76312e302e312f77696e646f77732f676f312e342e32",
  "transactions": [
    {
      "hash": "0x7a1f2d5df77a34d34afdd57f41251e255617d3c337a1b91014db613f5f4eae79",
      "blockHash": "0x6ef427238af956d29431e859d6f7b516268b916eeb31f2ae67291f557f65814f",
      "blockNumber": 97240,
      "transactionIndex": 0,
      "confirmations": null,
      "from": "0xFBb1b73C4f0BDa4f67dcA266ce6Ef42f520fBB98",
      "gasPrice": {
        "_hex": "0xdef6a0eea"
      },
      "gasLimit": {
        "_hex": "0x15f90"
      },
      "to": "0xCAc7000C7dBaa2E33Af15325AF5D435E011C7BdD",
      "value": {
        "_hex": "0x0"
      },
      "nonce": 75,
      "data": "0x3feb1bd842495454524558303000000000000000000000000000000000000000000000000000000000000000000000002aedf47e935c75601e9d779453f1a5f8c616bd6e0000000000000000000000000000000000000000000002c686e193b99ad87c00",
      "r": "0x7368faf91dc9e353597e91b0639db8f2ad57edba6d346778b2f621914dda4ac8",
      "s": "0x28450a746fb1c754748af897b0461d8866d9879800c132e39718d0f1fa816201",
      "v": 27,
      "creates": null,
      "raw": "0xf8ca4b850def6a0eea83015f9094cac7000c7dbaa2e33af15325af5d435e011c7bdd80b8643feb1bd842495454524558303000000000000000000000000000000000000000000000000000000000000000000000002aedf47e935c75601e9d779453f1a5f8c616bd6e0000000000000000000000000000000000000000000002c686e193b99ad87c001ba07368faf91dc9e353597e91b0639db8f2ad57edba6d346778b2f621914dda4ac8a028450a746fb1c754748af897b0461d8866d9879800c132e39718d0f1fa816201",
      "networkId": 0,
      "chainId": 0
    },
    {
      "hash": "0x6159d315fbbdc5dc143e6c61d11489b446cdba7b5121d4a36182cac3787c992d",
      "blockHash": "0x6ef427238af956d29431e859d6f7b516268b916eeb31f2ae67291f557f65814f",
      "blockNumber": 97240,
      "transactionIndex": 1,
      "confirmations": null,
      "from": "0x4BBc2EF7E5482B88E8c9C4bc05c5A3d3FF2B03c7",
      "gasPrice": {
        "_hex": "0xdec65fd6f"
      },
      "gasLimit": {
        "_hex": "0xf4240"
      },
      "to": null,
      "value": {
        "_hex": "0x0"
      },
      "nonce": 4,
      "data": "0x60606040526040516102b43803806102b48339016040526060805160600190602001505b5b33600060006101000a81548173ffffffffffffffffffffffffffffffffffffffff021916908302179055505b806001600050908051906020019082805482825590600052602060002090601f01602090048101928215609e579182015b82811115609d5782518260005055916020019190600101906081565b5b50905060c5919060a9565b8082111560c1576000818150600090555060010160a9565b5090565b50505b506101dc806100d86000396000f30060606040526000357c01000000000000000000000000000000000000000000000000000000009004806341c0e1b514610044578063cfae32171461005157610042565b005b61004f6004506100ca565b005b61005c60045061015e565b60405180806020018281038252838181518152602001915080519060200190808383829060006004602084601f0104600302600f01f150905090810190601f1680156100bc5780820380516001836020036101000a031916815260200191505b509250505060405180910390f35b600060009054906101000a900473ffffffffffffffffffffffffffffffffffffffff1673ffffffffffffffffffffffffffffffffffffffff163373ffffffffffffffffffffffffffffffffffffffff16141561015b57600060009054906101000a900473ffffffffffffffffffffffffffffffffffffffff1673ffffffffffffffffffffffffffffffffffffffff16ff5b5b565b60206040519081016040528060008152602001506001600050805480601f016020809104026020016040519081016040528092919081815260200182805480156101cd57820191906000526020600020905b8154815290600101906020018083116101b057829003601f168201915b505050505090506101d9565b905600000000000000000000000000000000000000000000000000000000000000200000000000000000000000000000000000000000000000000000000000000005486f6c6121000000000000000000000000000000000000000000000000000000",
      "r": "0x62c258fe2c884f1095a33fdb644f66588b8f01c306e1de809e37b97fb64cf4e1",
      "s": "0x1efc21209cfbe24f5d34e40dc9c0a79564618842cb408d6e7d0650949c1436dd",
      "v": 28,
      "creates": "0xFD8fae660D861036728B466c620c24f745b61974",
      "raw": "0xf9036704850dec65fd6f830f42408080b9031460606040526040516102b43803806102b48339016040526060805160600190602001505b5b33600060006101000a81548173ffffffffffffffffffffffffffffffffffffffff021916908302179055505b806001600050908051906020019082805482825590600052602060002090601f01602090048101928215609e579182015b82811115609d5782518260005055916020019190600101906081565b5b50905060c5919060a9565b8082111560c1576000818150600090555060010160a9565b5090565b50505b506101dc806100d86000396000f30060606040526000357c01000000000000000000000000000000000000000000000000000000009004806341c0e1b514610044578063cfae32171461005157610042565b005b61004f6004506100ca565b005b61005c60045061015e565b60405180806020018281038252838181518152602001915080519060200190808383829060006004602084601f0104600302600f01f150905090810190601f1680156100bc5780820380516001836020036101000a031916815260200191505b509250505060405180910390f35b600060009054906101000a900473ffffffffffffffffffffffffffffffffffffffff1673ffffffffffffffffffffffffffffffffffffffff163373ffffffffffffffffffffffffffffffffffffffff16141561015b57600060009054906101000a900473ffffffffffffffffffffffffffffffffffffffff1673ffffffffffffffffffffffffffffffffffffffff16ff5b5b565b60206040519081016040528060008152602001506001600050805480601f016020809104026020016040519081016040528092919081815260200182805480156101cd57820191906000526020600020905b8154815290600101906020018083116101b057829003601f168201915b505050505090506101d9565b905600000000000000000000000000000000000000000000000000000000000000200000000000000000000000000000000000000000000000000000000000000005486f6c61210000000000000000000000000000000000000000000000000000001ca062c258fe2c884f1095a33fdb644f66588b8f01c306e1de809e37b97fb64cf4e1a01efc21209cfbe24f5d34e40dc9c0a79564618842cb408d6e7d0650949c1436dd",
      "networkId": 0,
      "chainId": 0
    }
  ]
}