{
  "hash": "0xdd344d1693b933aec61a6b189f74b6b42c2f7f63edc6509a76030c3b91db8d5e",
  "parentHash": "0x02c7529f45473e1cd8ec5fb2741c53ffae53cf8792860a4eaffd344b0105d6b8",
  "number": 68176,
  "timestamp": 1439283773,
  "nonce": "0x7d9f28f3e4eb771d",
  "difficulty": 1971574951973,
  "gasLimit": {
    "_hex": "0x2fefd8"
  },
  "gasUsed": {
    "_hex": "0x5208"
  },
  "miner": "0xe6A7a1d47ff21B6321162AEA7C6CB457D5476Bca",
  "extraData": "0x476574682f76312e302e312d38326566323666362f6c696e75782f676f312e34",
  "transactions": [
    {
      "hash": "0x46e978445b80d7b3073e833c3e135fded465a417d68f93caf01c3fbe74220ddf",
      "blockHash": "0xdd344d1693b933aec61a6b189f74b6b42c2f7f63edc6509a76030c3b91db8d5e",
      "blockNumber": 68176,
      "transactionIndex": 0,
      "confirmations": null,
      "from": "0x2910543Af39abA0Cd09dBb2D50200b3E800A63D2",
      "gasPrice": {
        "_hex": "0xd4d6a8320"
      },
      "gasLimit": {
        "_hex": "0x5208"
      },
      "to": "0xc72322CEA06c8576280ED2f09d907e76Ca73686a",
      "value": {
        "_hex": "0xd613508dd3e9b38000"
      },
      "nonce": 214,
      "data": "0x",
      "r": "0x03d6ad0464515c469753ef42a62fec99f10bdb19ba6cc42393d058d7a5823a9f",
      "s": "0x381ad3db7506977b00ab310b6cf2464c75540b6047e58ed861e82d379e05a951",
      "v": 27,
      "creates": null,
      "raw": "0xf86e81d6850d4d6a832082520894c72322cea06c8576280ed2f09d907e76ca73686a89d613508dd3e9b38000801ba003d6ad0464515c469753ef42a62fec99f10bdb19ba6cc42393d058d7a5823a9fa0381ad3db7506977b00ab310b6cf2464c75540b6047e58ed861e82d379e05a951",
      "networkId": 0,
      "chainId": 0
    }
  ]
}