{
  "hash": "0x7f97a8797e06afad884cbc4dee1cc9631d75b499454a92d01402a79c9b8076d1",
  "parentHash": "0x2308e22c21c2b66169ec635da6f489d3eac60f14d640c3f67a3a225c02167fe2",
  "number": 85569,
  "timestamp": 1439565578,
  "nonce": "0xb880dbdb171df4f4",
  "difficulty": 2767841860052,
  "gasLimit": {
    "_hex": "0x2fefd8"
  },
  "gasUsed": {
    "_hex": "0xa674"
  },
  "miner": "0xe6A7a1d47ff21B6321162AEA7C6CB457D5476Bca",
  "extraData": "0x476574682f76312e302e312d38326566323666362f6c696e75782f676f312e34",
  "transactions": [
    {
      "hash": "0x6e7fb2658ec86d1914f9080a7dbaeccafd3575d33d12b42c4e3a90861f28ac1a",
      "blockHash": "0x7f97a8797e06afad884cbc4dee1cc9631d75b499454a92d01402a79c9b8076d1",
      "blockNumber": 85569,
      "transactionIndex": 0,
      "confirmations": null,
      "from": "0xAcEc91Ef6941cf630BA9a3e787a012f4A2d91DD4",
      "gasPrice": {
        "_hex": "0x110c8f7d8de"
      },
      "gasLimit": {
        "_hex": "0xc350"
      },
      "to": "0x2910543Af39abA0Cd09dBb2D50200b3E800A63D2",
      "value": {
        "_hex": "0x65a4c3f17b7b9360000"
      },
      "nonce": 1,
      "data": "0x454e52353639435830",
      "r": "0x393ca56615cc423da9595f6cf7e438611c5a06c4b091de602af14807ec5b6659",
      "s": "0xe7dfd4bc427675da004fbf6715a3507e52fc7a5e023b8877a04ea9ea91f9ec3c",
      "v": 28,
      "creates": null,
      "raw": "0xf87801860110c8f7d8de82c350942910543af39aba0cd09dbb2d50200b3e800a63d28a065a4c3f17b7b936000089454e523536394358301ca0393ca56615cc423da9595f6cf7e438611c5a06c4b091de602af14807ec5b6659a0e7dfd4bc427675da004fbf6715a3507e52fc7a5e023b8877a04ea9ea91f9ec3c",
      "networkId": 0,
      "chainId": 0
    },
    {
      "hash": "0xfb5c52ef257fe48c6e9ec0ea940051faf10aaaa5ba2238e5eb4acdd472a255d7",
      "blockHash": "0x7f97a8797e06afad884cbc4dee1cc9631d75b499454a92d01402a79c9b8076d1",
      "blockNumber": 85569,
      "transactionIndex": 1,
      "confirmations": null,
      "from": "0xbE97502418b30440315e0F5c824943C7500ce91A",
      "gasPrice": {
        "_hex": "0xba43b7400"
      },
      "gasLimit": {
        "_hex": "0x5267"
      },
      "to": "0x3e62D786a6d5843586E452F1cC6ddbb3b761C905",
      "value": {
        "_hex": "0x3d68c20e2b1a8000"
      },
      "nonce": 0,
      "data": "0x",
      "r": "0x83cc0febf84435d05aae23a4163c84729030220b0c3bee1da4b84c214b0529a2",
      "s": "0x66df5a52e6fd0407266fce17431598c3b5621dafd616995c906dfb46362e2c42",
      "v": 28,
      "creates": null,
      "raw": "0xf86c80850ba43b7400825267943e62d786a6d5843586e452f1cc6ddbb3b761c905883d68c20e2b1a8000801ca083cc0febf84435d05aae23a4163c84729030220b0c3bee1da4b84c214b0529a2a066df5a52e6fd0407266fce17431598c3b5621dafd616995c906dfb46362e2c42",
      "networkId": 0,
      "chainId": 0
    }
  ]
}