{
  "hash": "0xfb9211426722f7035658b6251332203b7258650a383e4aef52b463ffe6256539",
  "parentHash": "0x97e21e946cb5e77767963d00aa7467a35b3960ab33e0359be2a7e263a1192e04",
  "number": 119493,
  "timestamp": 1440143882,
  "nonce": "0xb5db09bbeafc742c",
  "difficulty": 4396552715885,
  "gasLimit": {
    "_hex": "0x2fefd8"
  },
  "gasUsed": {
    "_hex": "0x5208"
  },
  "miner": "0x52bc44d5378309EE2abF1539BF71dE1b7d7bE3b5",
  "extraData": "0xd783010002844765746887676f312e342e32856c696e7578",
  "transactions": [
    {
      "hash": "0xd9601f151fa160f7c096a914aca86bbd998b2e78045ca9f4d3b41928e4471c14",
      "blockHash": "0xfb9211426722f7035658b6251332203b7258650a383e4aef52b463ffe6256539",
      "blockNumber": 119493,
      "transactionIndex": 0,
      "confirmations": null,
      "from": "0xEFAa23397C85dF68fF1708b489856B006B30EEd2",
      "gasPrice": {
        "_hex": "0xba43b7400"
      },
      "gasLimit": {
        "_hex": "0x5208"
      },
      "to": "0x32Be343B94f860124dC4fEe278FDCBD38C102D88",
      "value": {
        "_hex": "0x362caa21fe45b000"
      },
      "nonce": 2,
      "data": "0x",
      "r": "0xc059cdb69f2fb372a7ea07dced2880b5a90d00b0853dba77c1ffd7cdbf190653",
      "s": "0x43c56db92557dc898d47f56f318ae915c1909182fb92d868cbeca053e3c73f34",
      "v": 28,
      "creates": null,
      "raw": "0xf86c02850ba43b74008252089432be343b94f860124dc4fee278fdcbd38c102d8888362caa21fe45b000801ca0c059cdb69f2fb372a7ea07dced2880b5a90d00b0853dba77c1ffd7cdbf190653a043c56db92557dc898d47f56f318ae915c1909182fb92d868cbeca053e3c73f34",
      "networkId": 0,
      "chainId": 0
    }
  ]
}