{
  "hash": "0xd9b2f87e47d546db6558509fc27d9899934cbb1c449bb8775dc4a046663898bd",
  "parentHash": "0x36042c6e5f6a406ad5d6cf3091f8d6133e642d91c352b166d2e1d162c44f68c3",
  "number": 105942,
  "timestamp": 1439895941,
  "nonce": "0xb3f77fcdf929b889",
  "difficulty": 4470824687270,
  "gasLimit": {
    "_hex": "0x2fefd8"
  },
  "gasUsed": {
    "_hex": "0xaa37"
  },
  "miner": "0xfC25864D8326b4CB335C6942218e5F4Ee8D1E1EF",
  "extraData": "0x476574682f76312e302e312f77696e646f77732f676f312e342e32",
  "transactions": [
    {
      "hash": "0xccd02fedda0a9770577cfe7ee6abf6953815c96ffed0c9fd578963ea8829a322",
      "blockHash": "0xd9b2f87e47d546db6558509fc27d9899934cbb1c449bb8775dc4a046663898bd",
      "blockNumber": 105942,
      "transactionIndex": 0,
      "confirmations": null,
      "from": "0x87C5B5874A18B4306DF8a752a6C8cc3E82daFc19",
      "gasPrice": {
        "_hex": "0x104b9e7f165"
      },
      "gasLimit": {
        "_hex": "0x493e0"
      },
      "to": "0xD79B4C6791784184e2755B2fC1659eaaB0f80456",
      "value": {
        "_hex": "0x0"
      },
      "nonce": 307,
      "data": "0x03750d9400000000000000000000000087c5b5874a18b4306df8a752a6c8cc3e82dafc196b6b6b0000000000000000000000000000000000000000000000000000000000",
      "r": "0xd41618a63e2cc8bd158abc5f525786d34dfbfe6f911967460c5667eea9d16f35",
      "s": "0x03dc98949384f420b88f150029635b2908527286eb8d8e0cec35591e89f869a6",
      "v": 28,
      "creates": null,
      "raw": "0xf8ad820133860104b9e7f165830493e094d79b4c6791784184e2755b2fc1659eaab0f8045680b84403750d9400000000000000000000000087c5b5874a18b4306df8a752a6c8cc3e82dafc196b6b6b00000000000000000000000000000000000000000000000000000000001ca0d41618a63e2cc8bd158abc5f525786d34dfbfe6f911967460c5667eea9d16f35a003dc98949384f420b88f150029635b2908527286eb8d8e0cec35591e89f869a6",
      "networkId": 0,
      "chainId": 0
    }
  ]
}