{
  "hash": "0xa22e418d6fbdf1c39d5ad59e99a7733eb8872eaa6b96b3f460b7652dde318f11",
  "parentHash": "0x63c0057144950d219feea16c1ecb178a8bdb6cb965effb8a57d2f34f90e941ba",
  "number": 65043,
  "timestamp": 1439230326,
  "nonce": "0x27bfedaf4872c291",
  "difficulty": 1923802754195,
  "gasLimit": {
    "_hex": "0x2fefd8"
  },
  "gasUsed": {
    "_hex": "0xa410"
  },
  "miner": "0xf927a40C8B7F6E07c5af7FA2155B4864a4112B13",
  "extraData": "0x",
  "transactions": [
    {
      "hash": "0x1f5c756aa9789757b2d37c94c62e98aa2cfd6181e7827edf22765448c9448c70",
      "blockHash": "0xa22e418d6fbdf1c39d5ad59e99a7733eb8872eaa6b96b3f460b7652dde318f11",
      "blockNumber": 65043,
      "transactionIndex": 0,
      "confirmations": null,
      "from": "0x1cE501F87C4123068e4F0997647c00332545b09C",
      "gasPrice": {
        "_hex": "0xba43b7400"
      },
      "gasLimit": {
        "_hex": "0x5208"
      },
      "to": "0x65CB677a0c0d982646F16b5c2c094E2d767B99c7",
      "value": {
        "_hex": "0x31b54c24e5bd000"
      },
      "nonce": 1,
      "data": "0x",
      "r": "0x21269d5056bdd655baa9ee9305acc94f68d658eb7b2841aa2e89a43d96798f82",
      "s": "0x2989880cd462518459f18e8725b50fb9363ddc70a4f1b7c0b96352801c57683f",
      "v": 27,
      "creates": null,
      "raw": "0xf86c01850ba43b74008252089465cb677a0c0d982646f16b5c2c094e2d767b99c788031b54c24e5bd000801ba021269d5056bdd655baa9ee9305acc94f68d658eb7b2841aa2e89a43d96798f82a02989880cd462518459f18e8725b50fb9363ddc70a4f1b7c0b96352801c57683f",
      "networkId": 0,
      "chainId": 0
    },
    {
      "hash": "0x80502add7e2a965f2e786ad562158fcd941ac5b4c391b1e47efcff75808e5c99",
      "blockHash": "0xa22e418d6fbdf1c39d5ad59e99a7733eb8872eaa6b96b3f460b7652dde318f11",
      "blockNumber": 65043,
      "transactionIndex": 1,
      "confirmations": null,
      "from": "0x4Cb08c8b93F06b3bF94f26d5cE702a9Bc827d669",
      "gasPrice": {
        "_hex": "0xba43b7400"
      },
      "gasLimit": {
        "_hex": "0x5208"
      },
      "to": "0x9d87318916d47DcFCfcc3f183D3D50Cb7E07e524",
      "value": {
        "_hex": "0x377e175b49d9000"
      },
      "nonce": 1,
      "data": "0x",
      "r": "0x06c524feb74091d7650427eb5d14f5080e0567d686e4474aa73e8af8db7ce851",
      "s": "0x4209ec518060af72988bb3e6c4386c187f77bdeaa11e1e7c1819dea56d646884",
      "v": 28,
      "creates": null,
      "raw": "0xf86c01850ba43b7400825208949d87318916d47dcfcfcc3f183d3d50cb7e07e524880377e175b49d9000801ca006c524feb74091d7650427eb5d14f5080e0567d686e4474aa73e8af8db7ce851a04209ec518060af72988bb3e6c4386c187f77bdeaa11e1e7c1819dea56d646884",
      "networkId": 0,
      "chainId": 0
    }
  ]
}