{
  "hash": "0xdec94b255e853ce9e15a37a68c24ae6cf95cc6b930d2e76963eb40204188c7b2",
  "parentHash": "0xde9143b7796cc75a6ac6312055860aa09660b32b1860ffc3466b41b763ab0fed",
  "number": 92671,
  "timestamp": 1439675420,
  "nonce": "0x8e9f98ac427f1a42",
  "difficulty": 3575329136252,
  "gasLimit": {
    "_hex": "0x2fefd8"
  },
  "gasUsed": {
    "_hex": "0x5208"
  },
  "miner": "0xe6A7a1d47ff21B6321162AEA7C6CB457D5476Bca",
  "extraData": "0x476574682f76312e302e312d38326566323666362f6c696e75782f676f312e34",
  "transactions": [
    {
      "hash": "0x2346c231f605d3ff32b2188b656b5782c9a3ec13f7ce97028ebd41ce7c8982df",
      "blockHash": "0xdec94b255e853ce9e15a37a68c24ae6cf95cc6b930d2e76963eb40204188c7b2",
      "blockNumber": 92671,
      "transactionIndex": 0,
      "confirmations": null,
      "from": "0x5F93ff832774dB5114C55bB4Bf44CCf3B58f903f",
      "gasPrice": {
        "_hex": "0xdc1326995"
      },
      "gasLimit": {
        "_hex": "0x15f90"
      },
      "to": "0x7a10A647313b28DC7fD0EB1197E6f0840B97d642",
      "value": {
        "_hex": "0x82aca9df74aa8d400"
      },
      "nonce": 2,
      "data": "0x",
      "r": "0xef681e6e3a8ad6b04cd8c003ac6bc1f22481b3e1c2ca298478d79e523765296f",
      "s": "0x56851c47e5a0aaabca6d43a7e53d4d52ef07978e7ae5b507c8a05761e4665d3f",
      "v": 28,
      "creates": null,
      "raw": "0xf86e02850dc132699583015f90947a10a647313b28dc7fd0eb1197e6f0840b97d64289082aca9df74aa8d400801ca0ef681e6e3a8ad6b04cd8c003ac6bc1f22481b3e1c2ca298478d79e523765296fa056851c47e5a0aaabca6d43a7e53d4d52ef07978e7ae5b507c8a05761e4665d3f",
      "networkId": 0,
      "chainId": 0
    }
  ]
}