{
  "hash": "0x04fba77fdf01a80a4a9bced9a0a3c5bccfa899305be96342381d54018cea056a",
  "parentHash": "0xc8893b9a255a6b3a20b663873fcf5d9d0635525282da4ad560f28a9d34ea1e59",
  "number": 70834,
  "timestamp": 1439326178,
  "nonce": "0x134a8aa46df15fdb",
  "difficulty": 2147819926044,
  "gasLimit": {
    "_hex": "0x2fefd8"
  },
  "gasUsed": {
    "_hex": "0x5208"
  },
  "miner": "0xe6A7a1d47ff21B6321162AEA7C6CB457D5476Bca",
  "extraData": "0x476574682f76312e302e312d38326566323666362f6c696e75782f676f312e34",
  "transactions": [
    {
      "hash": "0x1049ae44a96d9589cfa9aaf4b8e7dbb01b4597154b0b873c8a2726f026c2cc11",
      "blockHash": "0x04fba77fdf01a80a4a9bced9a0a3c5bccfa899305be96342381d54018cea056a",
      "blockNumber": 70834,
      "transactionIndex": 0,
      "confirmations": null,
      "from": "0xEF247E639d49461D25F57e9362CadE3120910Ce0",
      "gasPrice": {
        "_hex": "0xd253a032b"
      },
      "gasLimit": {
        "_hex": "0x15f90"
      },
      "to": "0xF87481A262E993a75F791E7859E71BaC36A606Eb",
      "value": {
        "_hex": "0xd02ab486cedc0000"
      },
      "nonce": 14,
      "data": "0x",
      "r": "0x8ba50df94cec427a3f74cd6fae422ffd787f271c539c4a46f4754f0c8fc0325e",
      "s": "0x61ab13575e5fded446459583808f860b28126014944de1154940c095b023a7f9",
      "v": 28,
      "creates": null,
      "raw": "0xf86d0e850d253a032b83015f9094f87481a262e993a75f791e7859e71bac36a606eb88d02ab486cedc0000801ca08ba50df94cec427a3f74cd6fae422ffd787f271c539c4a46f4754f0c8fc0325ea061ab13575e5fded446459583808f860b28126014944de1154940c095b023a7f9",
      "networkId": 0,
      "chainId": 0
    }
  ]
}