{
  "hash": "0x432aa265be26dba978a622600f35329e088654c9d8984b3e135646bf708542a9",
  "parentHash": "0xdcdcc46c997640743959554566c9748b9a89d4f6a62b6bd13b2fefabbeedb3fd",
  "number": 111327,
  "timestamp": 1439988256,
  "nonce": "0x6ef0a5dcd529e1ab",
  "difficulty": 4435350858803,
  "gasLimit": {
    "_hex": "0x2fefd8"
  },
  "gasUsed": {
    "_hex": "0xf618"
  },
  "miner": "0xe6A7a1d47ff21B6321162AEA7C6CB457D5476Bca",
  "extraData": "0x476574682f76312e302e312d38326566323666362f6c696e75782f676f312e34",
  "transactions": [
    {
      "hash": "0x588c05adc274b9c2c43b06d30b439b379d961579b8d5ae7f749360f9303a3ce8",
      "blockHash": "0x432aa265be26dba978a622600f35329e088654c9d8984b3e135646bf708542a9",
      "blockNumber": 111327,
      "transactionIndex": 0,
      "confirmations": null,
      "from": "0x0cA19A53a3256482A89770FC1daFC7630717F201",
      "gasPrice": {
        "_hex": "0xe086130e9"
      },
      "gasLimit": {
        "_hex": "0x5208"
      },
      "to": "0x32Be343B94f860124dC4fEe278FDCBD38C102D88",
      "value": {
        "_hex": "0x883e84b4d9f5c000"
      },
      "nonce": 8,
      "data": "0x",
      "r": "0xe6fc3cd4fcc025d6ddc6e30575145e9e9f9f4044d5a9ed980667da9ba6587f6a",
      "s": "0x55b8b1d4b6d31fff90c9361f7ef4a58428d69e3e2db3b51f6f38960bc4e89430",
      "v": 28,
      "creates": null,
      "raw": "0xf86c08850e086130e98252089432be343b94f860124dc4fee278fdcbd38c102d8888883e84b4d9f5c000801ca0e6fc3cd4fcc025d6ddc6e30575145e9e9f9f4044d5a9ed980667da9ba6587f6aa055b8b1d4b6d31fff90c9361f7ef4a58428d69e3e2db3b51f6f38960bc4e89430",
      "networkId": 0,
      "chainId": 0
    },
    {
      "hash": "0xd94894b17d39cbb27c9abee31cdc4a882950e9fd1dae9bc5d689a3d54e6f6c2d",
      "blockHash": "0x432aa265be26dba978a622600f35329e088654c9d8984b3e135646bf708542a9",
      "blockNumber": 111327,
      "transactionIndex": 1,
      "confirmations": null,
      "from": "0xa70a9a7040d542C632D8e0bE7c5513A8a5Bbc752",
      "gasPrice": {
        "_hex": "0xe086130e9"
      },
      "gasLimit": {
        "_hex": "0x5208"
      },
      "to": "0x32Be343B94f860124dC4fEe278FDCBD38C102D88",
      "value": {
        "_hex": "0x455f126382334400"
      },
      "nonce": 291,
      "data": "0x",
      "r": "0x2c550ef9e0b4f3600775ed4210903332338043f1de2c7692d090469e8e3448bd",
      "s": "0x0f648fb9b2e89ebbeaf180a6d07ce1cedb8dab4987d64ef75c5a13cb8ea805af",
      "v": 27,
      "creates": null,
      "raw": "0xf86e820123850e086130e98252089432be343b94f860124dc4fee278fdcbd38c102d8888455f126382334400801ba02c550ef9e0b4f3600775ed4210903332338043f1de2c7692d090469e8e3448bda00f648fb9b2e89ebbeaf180a6d07ce1cedb8dab4987d64ef75c5a13cb8ea805af",
      "networkId": 0,
      "chainId": 0
    },
    {
      "hash": "0xac98dc816391172ecc9ae7783fb9c6dc36744e2684b18015e5150b10f6945a1f",
      "blockHash": "0x432aa265be26dba978a622600f35329e088654c9d8984b3e135646bf708542a9",
      "blockNumber": 111327,
      "transactionIndex": 2,
      "confirmations": null,
      "from": "0xF5EeDc192aB70b08D8354384aD94efD095849E00",
      "gasPrice": {
        "_hex": "0xe086130e9"
      },
      "gasLimit": {
        "_hex": "0x5208"
      },
      "to": "0x32Be343B94f860124dC4fEe278FDCBD38C102D88",
      "value": {
        "_hex": "0xa6884879ec83f8000"
      },
      "nonce": 49,
      "data": "0x",
      "r": "0x86c700217e7a647cbd97d1c5c92dc373eaa9c8e841af9f8fe8ad8152b7a18be9",
      "s": "0x14f4fc2669dc59e55b36f8b1101234a1edceec7cf4a99bf31bac0e5cba696227",
      "v": 28,
      "creates": null,
      "raw": "0xf86d31850e086130e98252089432be343b94f860124dc4fee278fdcbd38c102d88890a6884879ec83f8000801ca086c700217e7a647cbd97d1c5c92dc373eaa9c8e841af9f8fe8ad8152b7a18be9a014f4fc2669dc59e55b36f8b1101234a1edceec7cf4a99bf31bac0e5cba696227",
      "networkId": 0,
      "chainId": 0
    }
  ]
}