{
  "hash": "0x4aa04d92960e3895e52e0acf3e7bcd9c6d4b825a02e73ba9a621c000eefe7834",
  "parentHash": "0x8ef4a38102c0c04154517126e3705efa13ccadaf799bb5eb925b4216a83ca295",
  "number": 78977,
  "timestamp": 1439462571,
  "nonce": "0xf142f408edb5cac1",
  "difficulty": 2294183839962,
  "gasLimit": {
    "_hex": "0x2fefd8"
  },
  "gasUsed": {
    "_hex": "0x5208"
  },
  "miner": "0xB5EDD17d2582A94610ebf0C6832c1652EBBBe210",
  "extraData": "0x476574682f76312e302e312d38326566323666362f6c696e75782f676f312e34",
  "transactions": [
    {
      "hash": "0x4b2686fc984ad71df14feac1ed7fbb3ffbf4dd4bc937905dcae15533af1a698c",
      "blockHash": "0x4aa04d92960e3895e52e0acf3e7bcd9c6d4b825a02e73ba9a621c000eefe7834",
      "blockNumber": 78977,
      "transactionIndex": 0,
      "confirmations": null,
      "from": "0x723E05fF30e4ba7A87b4D7D459eE5B488A9c36d1",
      "gasPrice": {
        "_hex": "0xcde4f8ba8"
      },
      "gasLimit": {
        "_hex": "0x15f90"
      },
      "to": "0xabceA603089850F8f6bB612A9031554D90A247CF",
      "value": {
        "_hex": "0x4563918244f40000"
      },
      "nonce": 14,
      "data": "0x",
      "r": "0x827d2a61fc89e5436560893ca30bf605122181f39c1e1524664faf5cf66c9d3d",
      "s": "0x0e70a6a13910f61761df816cede6def7cc8f0217096b0536b3f99bdebcfd6503",
      "v": 27,
      "creates": null,
      "raw": "0xf86d0e850cde4f8ba883015f9094abcea603089850f8f6bb612a9031554d90a247cf884563918244f40000801ba0827d2a61fc89e5436560893ca30bf605122181f39c1e1524664faf5cf66c9d3da00e70a6a13910f61761df816cede6def7cc8f0217096b0536b3f99bdebcfd6503",
      "networkId": 0,
      "chainId": 0
    }
  ]
}