{
  "hash": "0xc555d79796b172abdea25f8d662c0db886e3c85ed070b5a0b109cf931a07133a",
  "parentHash": "0xb32736ccfe5cde5de114e7a3814c4933761f96021bd8db8acacc1be24e0c881f",
  "number": 53056,
  "timestamp": 1439031798,
  "nonce": "0x94de3f26e6e7b75b",
  "difficulty": 1576250902261,
  "gasLimit": {
    "_hex": "0x1eafc6"
  },
  "gasUsed": {
    "_hex": "0xa674"
  },
  "miner": "0x9252A9C83D5703eDC585CfDcE80d5F903D357514",
  "extraData": "0x476574682f76312e302e312f6c696e75782f676f312e342e32",
  "transactions": [
    {
      "hash": "0x3945f4669b18ac735fee08fc353ae761dbc392c1a209c696275376694b5791b3",
      "blockHash": "0xc555d79796b172abdea25f8d662c0db886e3c85ed070b5a0b109cf931a07133a",
      "blockNumber": 53056,
      "transactionIndex": 0,
      "confirmations": null,
      "from": "0x8421b6810A1aee71B0baa38D7E1b5de6f71245d2",
      "gasPrice": {
        "_hex": "0x106ce997e44"
      },
      "gasLimit": {
        "_hex": "0x15f90"
      },
      "to": "0x2910543Af39abA0Cd09dBb2D50200b3E800A63D2",
      "value": {
        "_hex": "0x22b1c8c1227a00000"
      },
      "nonce": 0,
      "data": "0x454e4a354a50384452",
      "r": "0xecf599c9c2eddb6d50dbae1cef44300d4a155febcf196ea4d565469a74c5b6e5",
      "s": "0x67be95c2c89f1004979ddb519c57eabd4596c6985e8e0c0bf88968d1bfab372f",
      "v": 28,
      "creates": null,
      "raw": "0xf87880860106ce997e4483015f90942910543af39aba0cd09dbb2d50200b3e800a63d289022b1c8c1227a0000089454e4a354a503844521ca0ecf599c9c2eddb6d50dbae1cef44300d4a155febcf196ea4d565469a74c5b6e5a067be95c2c89f1004979ddb519c57eabd4596c6985e8e0c0bf88968d1bfab372f",
      "networkId": 0,
      "chainId": 0
    },
    {
      "hash": "0x9dbc53c7218894c59e9f80d17670425f60d4af505cbc91c0855b05a76dedc4b5",
      "blockHash": "0xc555d79796b172abdea25f8d662c0db886e3c85ed070b5a0b109cf931a07133a",
      "blockNumber": 53056,
      "transactionIndex": 1,
      "confirmations": null,
      "from": "0x07BC2CC8eeDC01970700efC9c4Fb36735e98CD71",
      "gasPrice": {
        "_hex": "0xe0097cd63"
      },
      "gasLimit": {
        "_hex": "0x5208"
      },
      "to": "0x0fFecdF99016b9C74f1088c858B0A6b71992A471",
      "value": {
        "_hex": "0x8ac7230489e80000"
      },
      "nonce": 4,
      "data": "0x",
      "r": "0xaeeb096831262e7abe28e0db09540efb41cd40af13e44b59d2b425497a9f09c6",
      "s": "0x2520d91a6d494120e36d9a17ba1fd298bcb8104805e267ef1ca4914de13769cc",
      "v": 28,
      "creates": null,
      "raw": "0xf86c04850e0097cd63825208940ffecdf99016b9c74f1088c858b0a6b71992a471888ac7230489e80000801ca0aeeb096831262e7abe28e0db09540efb41cd40af13e44b59d2b425497a9f09c6a02520d91a6d494120e36d9a17ba1fd298bcb8104805e267ef1ca4914de13769cc",
      "networkId": 0,
      "chainId": 0
    }
  ]
}