{
  "hash": "0xb7761e5909920bc273db54df7b40407387ef095a2a7ced676f3e15e870575f0c",
  "parentHash": "0xa1f75c92927cc830c2ff7ec1ff136b5fc3d14d09e877ed0bcd0232296e0af4e5",
  "number": 112922,
  "timestamp": 1440015330,
  "nonce": "0xef3b18aac9e294ec",
  "difficulty": 4454038072516,
  "gasLimit": {
    "_hex": "0x2fefd8"
  },
  "gasUsed": {
    "_hex": "0x5208"
  },
  "miner": "0xe6A7a1d47ff21B6321162AEA7C6CB457D5476Bca",
  "extraData": "0x476574682f76312e302e312d38326566323666362f6c696e75782f676f312e34",
  "transactions": [
    {
      "hash": "0xb0a3a003a263752ac51e9fb47e9edc55820d948797d8838af112717d99f2452e",
      "blockHash": "0xb7761e5909920bc273db54df7b40407387ef095a2a7ced676f3e15e870575f0c",
      "blockNumber": 112922,
      "transactionIndex": 0,
      "confirmations": null,
      "from": "0xd268fB48FA174088a25a120aFF0fd8eb0C2d4c87",
      "gasPrice": {
        "_hex": "0xd0205f184"
      },
      "gasLimit": {
        "_hex": "0x1d8a8"
      },
      "to": "0xb15E28e6E96AE767223559fc575051059F0d4B51",
      "value": {
        "_hex": "0x2a0cb8f2456f0000"
      },
      "nonce": 19,
      "data": "0x",
      "r": "0xa22bc7c9b619ed77ddc82cbdc12eb436ccfc8d5a2c4266fadc9961d5bbf9cb2b",
      "s": "0x0887a936560910bf86603ff2241f9d505cfe203882bed8c4768829b9a6f5f079",
      "v": 28,
      "creates": null,
      "raw": "0xf86d13850d0205f1848301d8a894b15e28e6e96ae767223559fc575051059f0d4b51882a0cb8f2456f0000801ca0a22bc7c9b619ed77ddc82cbdc12eb436ccfc8d5a2c4266fadc9961d5bbf9cb2ba00887a936560910bf86603ff2241f9d505cfe203882bed8c4768829b9a6f5f079",
      "networkId": 0,
      "chainId": 0
    }
  ]
}