{
  "hash": "0x814a1cc155ccef62ad8bbfac7c82b9bddad790ffa7a909ee34be40b7e6bd4a9c",
  "parentHash": "0xfc09c788b63eb60f9adc70beebf33bf26dc65df26a5f84c1c3e88fe746627936",
  "number": 64531,
  "timestamp": 1439222388,
  "nonce": "0xc5eb6bf241f14439",
  "difficulty": 1877518201439,
  "gasLimit": {
    "_hex": "0x2fefd8"
  },
  "gasUsed": {
    "_hex": "0xf618"
  },
  "miner": "0xf8E0CA3Ed80bd541b94BEdCf259e8CF2141A9523",
  "extraData": "0x476574682f76312e302e312f77696e646f77732f676f312e342e32",
  "transactions": [
    {
      "hash": "0x8a1f8df129cbe39a4a986eae4b99a5d3b51112eb4fb069f4a9c1bc462448ec32",
      "blockHash": "0x814a1cc155ccef62ad8bbfac7c82b9bddad790ffa7a909ee34be40b7e6bd4a9c",
      "blockNumber": 64531,
      "transactionIndex": 0,
      "confirmations": null,
      "from": "0x83d28958d42998Bdc3A65F3bCC76a8680E21D1f5",
      "gasPrice": {
        "_hex": "0xba43b7400"
      },
      "gasLimit": {
        "_hex": "0x5208"
      },
      "to": "0x50fa732a1Ae48d282Aa68468f95Ada1DB6CdC052",
      "value": {
        "_hex": "0x7c58ada8ff2000"
      },
      "nonce": 1,
      "data": "0x",
      "r": "0xfe237b615b110cc763944f6bb0c005d4372566aab3bb6998e97ec4fce9ae7f32",
      "s": "0x3c19f3c70ff53773390fc7eb7d3d11f5da8c3a5a23873254694e4a90c40846b1",
      "v": 28,
      "creates": null,
      "raw": "0xf86b01850ba43b74008252089450fa732a1ae48d282aa68468f95ada1db6cdc052877c58ada8ff2000801ca0fe237b615b110cc763944f6bb0c005d4372566aab3bb6998e97ec4fce9ae7f32a03c19f3c70ff53773390fc7eb7d3d11f5da8c3a5a23873254694e4a90c40846b1",
      "networkId": 0,
      "chainId": 0
    },
    {
      "hash": "0xa9db73021103d4bbb86793605a383192640e1f8517745b492a0755b356833aaa",
      "blockHash": "0x814a1cc155ccef62ad8bbfac7c82b9bddad790ffa7a909ee34be40b7e6bd4a9c",
      "blockNumber": 64531,
      "transactionIndex": 1,
      "confirmations": null,
      "from": "0xe53BDA6bEcD6b70868fC69d9312C1BA44e899B12",
      "gasPrice": {
        "_hex": "0xba43b7400"
      },
      "gasLimit": {
        "_hex": "0x5208"
      },
      "to": "0xD1B2c3Be83ae9fF32e366E3A0B01Ed930700CE04",
      "value": {
        "_hex": "0x653580cf6eb000"
      },
      "nonce": 1,
      "data": "0x",
      "r": "0x5227a4dd1267eeae0107d9afa5ced8b3ce36e01f6e0441d5d94710fb7f2ef936",
      "s": "0x4ea48dad3eeff479cdf7fd8d69cb86ad35622cf8810124d15e0193eb639d80af",
      "v": 27,
      "creates": null,
      "raw": "0xf86b01850ba43b740082520894d1b2c3be83ae9ff32e366e3a0b01ed930700ce0487653580cf6eb000801ba05227a4dd1267eeae0107d9afa5ced8b3ce36e01f6e0441d5d94710fb7f2ef936a04ea48dad3eeff479cdf7fd8d69cb86ad35622cf8810124d15e0193eb639d80af",
      "networkId": 0,
      "chainId": 0
    },
    {
      "hash": "0x361f6f24ff609fa544f20cd15a732a5270ed4b63e927f8d313576e88c20aa3b6",
      "blockHash": "0x814a1cc155ccef62ad8bbfac7c82b9bddad790ffa7a909ee34be40b7e6bd4a9c",
      "blockNumber": 64531,
      "transactionIndex": 2,
      "confirmations": null,
      "from": "0x12b24cEa0a89Eef1f1bD18E2329B61439d36Fc90",
      "gasPrice": {
        "_hex": "0xba43b7400"
      },
      "gasLimit": {
        "_hex": "0x5208"
      },
      "to": "0x255A59Ec7Cffe5fCF068fc198eA3A507CdFbF641",
      "value": {
        "_hex": "0x653580cf6eb000"
      },
      "nonce": 1,
      "data": "0x",
      "r": "0xecd43a908ab5e2779c2aa1a9883814dd9462730a69f30bdd1c327eaa7ec00edc",
      "s": "0x0e44eb252f35d411b12c5a2031b2770aba12ace5cdec04417d387a627e233296",
      "v": 27,
      "creates": null,
      "raw": "0xf86b01850ba43b740082520894255a59ec7cffe5fcf068fc198ea3a507cdfbf64187653580cf6eb000801ba0ecd43a908ab5e2779c2aa1a9883814dd9462730a69f30bdd1c327eaa7ec00edca00e44eb252f35d411b12c5a2031b2770aba12ace5cdec04417d387a627e233296",
      "networkId": 0,
      "chainId": 0
    }
  ]
}