{
  "hash": "0xf5f50830e57e025cdcd5585d9cc8753cdaffe5f98cd587a5ce539583c14018fb",
  "parentHash": "0x2ec86d492963aee5be3744d01331e9d6a80aa43cb903ccf7e0e6ea044da9db16",
  "number": 109406,
  "timestamp": 1439955943,
  "nonce": "0x3fb57d80b7afb5fa",
  "difficulty": 4477715886001,
  "gasLimit": {
    "_hex": "0x2fefd8"
  },
  "gasUsed": {
    "_hex": "0x5208"
  },
  "miner": "0xe6A7a1d47ff21B6321162AEA7C6CB457D5476Bca",
  "extraData": "0x476574682f76312e302e312d38326566323666362f6c696e75782f676f312e34",
  "transactions": [
    {
      "hash": "0x42ae474e7f21d77962caaea48796b0a972605d0dfc67fdc2ed59a9bd90b43dfb",
      "blockHash": "0xf5f50830e57e025cdcd5585d9cc8753cdaffe5f98cd587a5ce539583c14018fb",
      "blockNumber": 109406,
      "transactionIndex": 0,
      "confirmations": null,
      "from": "0xA5a5181868a8Df772f87DC95aB9B366e974Da936",
      "gasPrice": {
        "_hex": "0xba43b7400"
      },
      "gasLimit": {
        "_hex": "0x5265"
      },
      "to": "0x1527fcd698B3A8707bb745F80ab114FfF3Db35E2",
      "value": {
        "_hex": "0x30927f74c9de00000"
      },
      "nonce": 9,
      "data": "0x",
      "r": "0x4a679464f626d52725b2dfd17f028e8c35e69c504e3013422dd0895a0d1805ea",
      "s": "0x36de3907c760e26b5eb148d96081954c45d6e5c0d8575ffa4bf9785d5eb773ff",
      "v": 27,
      "creates": null,
      "raw": "0xf86d09850ba43b7400825265941527fcd698b3a8707bb745f80ab114fff3db35e289030927f74c9de00000801ba04a679464f626d52725b2dfd17f028e8c35e69c504e3013422dd0895a0d1805eaa036de3907c760e26b5eb148d96081954c45d6e5c0d8575ffa4bf9785d5eb773ff",
      "networkId": 0,
      "chainId": 0
    }
  ]
}