{
  "hash": "0x59d88942626097b17e1e1e17f7cd17e2d9e9885f545aeaaba9e9c31d3f72cd2e",
  "parentHash": "0x01e1d12ee0260b5d882488ecf12f39d784f75220c0b816d9879824ead081886e",
  "number": 68844,
  "timestamp": 1439294620,
  "nonce": "0xc58283a9a7371d0d",
  "difficulty": 2016198885397,
  "gasLimit": {
    "_hex": "0x2fefd8"
  },
  "gasUsed": {
    "_hex": "0x5208"
  },
  "miner": "0x39A1BB80a741bF5EC39FB9BE59408Fa0F418fFBf",
  "extraData": "0x476574682f76312e302e312f77696e646f77732f676f312e342e32",
  "transactions": [
    {
      "hash": "0x8792fc9d1fd91e1366a51699ab1210b713c01185d9c052f780e822600a456d43",
      "blockHash": "0x59d88942626097b17e1e1e17f7cd17e2d9e9885f545aeaaba9e9c31d3f72cd2e",
      "blockNumber": 68844,
      "transactionIndex": 0,
      "confirmations": null,
      "from": "0x79d5794171E11dd5C2f0e26E1C187319db2FE6f7",
      "gasPrice": {
        "_hex": "0xd3043396f"
      },
      "gasLimit": {
        "_hex": "0x5208"
      },
      "to": "0x32Be343B94f860124dC4fEe278FDCBD38C102D88",
      "value": {
        "_hex": "0x45637f84e1145800"
      },
      "nonce": 11,
      "data": "0x",
      "r": "0x6374dda87e16cb10f749965d36a1233460e5115d384174f6f7eff3cc0d822704",
      "s": "0x75662ddeb8519acedafe6b4f009ffb1645d373950b8e5a2042eca181d189bb0d",
      "v": 28,
      "creates": null,
      "raw": "0xf86c0b850d3043396f8252089432be343b94f860124dc4fee278fdcbd38c102d888845637f84e1145800801ca06374dda87e16cb10f749965d36a1233460e5115d384174f6f7eff3cc0d822704a075662ddeb8519acedafe6b4f009ffb1645d373950b8e5a2042eca181d189bb0d",
      "networkId": 0,
      "chainId": 0
    }
  ]
}