{
  "hash": "0x1d79ba85cf7e44320b06500348540f41cb74d73d599f2037b169a5c76c12e29e",
  "parentHash": "0x53619715d5c73a1ad26f8c836b26cdf7563e98428b3b5b66e6f13fc0fd271a1e",
  "number": 118907,
  "timestamp": 1440133364,
  "nonce": "0x07f8cfac05bff2fa",
  "difficulty": 4401155761125,
  "gasLimit": {
    "_hex": "0x2fefd8"
  },
  "gasUsed": {
    "_hex": "0xa410"
  },
  "miner": "0x52bc44d5378309EE2abF1539BF71dE1b7d7bE3b5",
  "extraData": "0xd783010002844765746887676f312e342e32856c696e7578",
  "transactions": [
    {
      "hash": "0x69dac1d1dd69597a6b6a0a266692d28ea7782039ae134d478a1829fb447ae719",
      "blockHash": "0x1d79ba85cf7e44320b06500348540f41cb74d73d599f2037b169a5c76c12e29e",
      "blockNumber": 118907,
      "transactionIndex": 0,
      "confirmations": null,
      "from": "0x645B979F8ce622236DB26feB803455d40C328615",
      "gasPrice": {
        "_hex": "0xba43b7400"
      },
      "gasLimit": {
        "_hex": "0x5208"
      },
      "to": "0x32Be343B94f860124dC4fEe278FDCBD38C102D88",
      "value": {
        "_hex": "0x3635c5f2cdb19c0000"
      },
      "nonce": 12,
      "data": "0x",
      "r": "0x16e930fdcbc097b1b5887b20de4d7236409c3d1da349674f46928c0212c53e74",
      "s": "0x53a7df7409c8c2d0156a0574c58ceec4f884269f93af814e7a9f182e317dee76",
      "v": 28,
      "creates": null,
      "raw": "0xf86d0c850ba43b74008252089432be343b94f860124dc4fee278fdcbd38c102d88893635c5f2cdb19c0000801ca016e930fdcbc097b1b5887b20de4d7236409c3d1da349674f46928c0212c53e74a053a7df7409c8c2d0156a0574c58ceec4f884269f93af814e7a9f182e317dee76",
      "networkId": 0,
      "chainId": 0
    },
    {
      "hash": "0x4176138480fb7f42af6c77d784670e7c779bdc259259d0db19c764df49197ad9",
      "blockHash": "0x1d79ba85cf7e44320b06500348540f41cb74d73d599f2037b169a5c76c12e29e",
      "blockNumber": 118907,
      "transactionIndex": 1,
      "confirmations": null,
      "from": "0x89b410599Ff5A31829A455E5dF0EE2990564Ccb8",
      "gasPrice": {
        "_hex": "0xba43b7400"
      },
      "gasLimit": {
        "_hex": "0x5208"
      },
      "to": "0x32Be343B94f860124dC4fEe278FDCBD38C102D88",
      "value": {
        "_hex": "0x15a2d2939f6785000"
      },
      "nonce": 0,
      "data": "0x",
      "r": "0x1d811de143ff6e6f089c094f37bd630067ab15577a4da4eaca08be4deaa07cc2",
      "s": "0x31657dd1bfa7f3f16e16befab08beca94b2cab1e33cc50a2a48cb2ba379766a4",
      "v": 28,
      "creates": null,
      "raw": "0xf86d80850ba43b74008252089432be343b94f860124dc4fee278fdcbd38c102d8889015a2d2939f6785000801ca01d811de143ff6e6f089c094f37bd630067ab15577a4da4eaca08be4deaa07cc2a031657dd1bfa7f3f16e16befab08beca94b2cab1e33cc50a2a48cb2ba379766a4",
      "networkId": 0,
      "chainId": 0
    }
  ]
}