{
  "hash": "0x3ec75ee5482cc1a21b1e17449fcee30f6ef8a086a290af7f3c8c1b923de0ca13",
  "parentHash": "0xc72461a28715fa7ffcc284ca61f040c7a8322fa5981db684a47b23c7610737be",
  "number": 68507,
  "timestamp": 1439289096,
  "nonce": "0x40d856f85defb9f7",
  "difficulty": 2005479287200,
  "gasLimit": {
    "_hex": "0x2fefd8"
  },
  "gasUsed": {
    "_hex": "0xa410"
  },
  "miner": "0x31995C46B15C84523cDEE26f49A681b8237e43F5",
  "extraData": "0x476574682f76312e302e312f77696e646f77732f676f312e342e32",
  "transactions": [
    {
      "hash": "0x7c6c321e7921db533023fd029829da2cb87f5396f2d736b38a8fea0988f74973",
      "blockHash": "0x3ec75ee5482cc1a21b1e17449fcee30f6ef8a086a290af7f3c8c1b923de0ca13",
      "blockNumber": 68507,
      "transactionIndex": 0,
      "confirmations": null,
      "from": "0xE2AAE26A1263Fd248aBAF160690889157Dbcc689",
      "gasPrice": {
        "_hex": "0xba43b7400"
      },
      "gasLimit": {
        "_hex": "0x5208"
      },
      "to": "0x6B675e1101Fc0B1483A6B4645a6f9c75dDc82d5e",
      "value": {
        "_hex": "0xaa9f075c200000"
      },
      "nonce": 1,
      "data": "0x",
      "r": "0x276bb961cdb32f918a3a11c896cf9f1af0c5ca814b2c224d7a9a40433a2354d0",
      "s": "0x502b8b17a248fae9bdd5ae697fd194450e9ff7fe54e258f60e4f4c910789cd20",
      "v": 28,
      "creates": null,
      "raw": "0xf86b01850ba43b7400825208946b675e1101fc0b1483a6b4645a6f9c75ddc82d5e87aa9f075c200000801ca0276bb961cdb32f918a3a11c896cf9f1af0c5ca814b2c224d7a9a40433a2354d0a0502b8b17a248fae9bdd5ae697fd194450e9ff7fe54e258f60e4f4c910789cd20",
      "networkId": 0,
      "chainId": 0
    },
    {
      "hash": "0x067783d3dc6c7fb3e67d95564e26a4f90b51f639a27295465150e4aa92425b64",
      "blockHash": "0x3ec75ee5482cc1a21b1e17449fcee30f6ef8a086a290af7f3c8c1b923de0ca13",
      "blockNumber": 68507,
      "transactionIndex": 1,
      "confirmations": null,
      "from": "0x6747f922385c9a6F9cfDf095F34345257DD597bE",
      "gasPrice": {
        "_hex": "0xba43b7400"
      },
      "gasLimit": {
        "_hex": "0x5208"
      },
      "to": "0x8a0F71A278613BcE15f499384374FAaeA986e2e7",
      "value": {
        "_hex": "0x1fcbfa42bd6000"
      },
      "nonce": 116,
      "data": "0x",
      "r": "0xfef585cbd39b75aee6c6ba0a0b6265816b8c600c412f210082ffbaa9e6176a1c",
      "s": "0x2dde6f252d517d3704b7be5095e79cea6f7aeb54507b5bb525e59c4073b9828a",
      "v": 27,
      "creates": null,
      "raw": "0xf86b74850ba43b7400825208948a0f71a278613bce15f499384374faaea986e2e7871fcbfa42bd6000801ba0fef585cbd39b75aee6c6ba0a0b6265816b8c600c412f210082ffbaa9e6176a1ca02dde6f252d517d3704b7be5095e79cea6f7aeb54507b5bb525e59c4073b9828a",
      "networkId": 0,
      "chainId": 0
    }
  ]
}