{
  "hash": "0xbe523aa330a221ba49200209c3bf4c1887bfd3abc82d28256b4564f89e75bca2",
  "parentHash": "0x53eeadbe03ce77cd5aa29499e1893ca32893ac4ed4d584c831c385874103d67a",
  "number": 108344,
  "timestamp": 1439938650,
  "nonce": "0x1a746a9986f0dba9",
  "difficulty": 4357488754341,
  "gasLimit": {
    "_hex": "0x2fefd8"
  },
  "gasUsed": {
    "_hex": "0x19a28"
  },
  "miner": "0x623d2411c3bb3340784155F9a688b0085251aB5c",
  "extraData": "0x",
  "transactions": [
    {
      "hash": "0x47addc42e987b708aa114b5af5e70e2cec7461d7291c0e7af062cd7be70f2e55",
      "blockHash": "0xbe523aa330a221ba49200209c3bf4c1887bfd3abc82d28256b4564f89e75bca2",
      "blockNumber": 108344,
      "transactionIndex": 0,
      "confirmations": null,
      "from": "0xB8796061FcCcC0c40BD2060d95d6cff928bD1C1B",
      "gasPrice": {
        "_hex": "0xddbe7fca1"
      },
      "gasLimit": {
        "_hex": "0x5208"
      },
      "to": "0x32Be343B94f860124dC4fEe278FDCBD38C102D88",
      "value": {
        "_hex": "0x16abf7ea2cebde000"
      },
      "nonce": 8,
      "data": "0x",
      "r": "0xef092b294601a0488479df214bd7783108d7d1cabc991191b1c60da7b2d1a3a7",
      "s": "0x5b742fea08e18684b2d1b0c62ddc151872f14d0af410f709ea40497de79e2d39",
      "v": 27,
      "creates": null,
      "raw": "0xf86d08850ddbe7fca18252089432be343b94f860124dc4fee278fdcbd38c102d8889016abf7ea2cebde000801ba0ef092b294601a0488479df214bd7783108d7d1cabc991191b1c60da7b2d1a3a7a05b742fea08e18684b2d1b0c62ddc151872f14d0af410f709ea40497de79e2d39",
      "networkId": 0,
      "chainId": 0
    },
    {
      "hash": "0x255ea525834f4655e8544fbeea5569abd0614a888f746ef50c81a6b48bf512a0",
      "blockHash": "0xbe523aa330a221ba49200209c3bf4c1887bfd3abc82d28256b4564f89e75bca2",
      "blockNumber": 108344,
      "transactionIndex": 1,
      "confirmations": null,
      "from": "0x6A8CC233E14F874983bB2F37D1DE706f6910Ef0b",
      "gasPrice": {
        "_hex": "0xddbe7fca1"
      },
      "gasLimit": {
        "_hex": "0x5208"
      },
      "to": "0x32Be343B94f860124dC4fEe278FDCBD38C102D88",
      "value": {
        "_hex": "0x1455e2be20bec000"
      },
      "nonce": 12,
      "data": "0x",
      "r": "0x4e117bde1468caa47ded7e3337f5688aafb60b48d0d1c2b6fc3a580e7867267a",
      "s": "0x67961fbff5ca366afe2157b4f17cadaf42da54c742ec29e5337fae03f085c27d",
      "v": 28,
      "creates": null,
      "raw": "0xf86c0c850ddbe7fca18252089432be343b94f860124dc4fee278fdcbd38c102d88881455e2be20bec000801ca04e117bde1468caa47ded7e3337f5688aafb60b48d0d1c2b6fc3a580e7867267aa067961fbff5ca366afe2157b4f17cadaf42da54c742ec29e5337fae03f085c27d",
      "networkId": 0,
      "chainId": 0
    },
    {
      "hash": "0xc7d33d83ddcf5d11a5a3ad074a58fc531ff63c5ab2ea9958885baf2f6f146abd",
      "blockHash": "0xbe523aa330a221ba49200209c3bf4c1887bfd3abc82d28256b4564f89e75bca2",
      "blockNumber": 108344,
      "transactionIndex": 2,
      "confirmations": null,
      "from": "0x79d5794171E11dd5C2f0e26E1C187319db2FE6f7",
      "gasPrice": {
        "_hex": "0xddbe7fca1"
      },
      "gasLimit": {
        "_hex": "0x5208"
      },
      "to": "0x32Be343B94f860124dC4fEe278FDCBD38C102D88",
      "value": {
        "_hex": "0x45637cc112f59800"
      },
      "nonce": 42,
      "data": "0x",
      "r": "0x1e2fc19ecbd53340767c40972a9e56d17dce564dd8b59b68bab64e1ce2201ba0",
      "s": "0x32a4083620efb4d0275c5588409ea4ba580fc434d0c5a4ebbbdc871d871d727e",
      "v": 27,
      "creates": null,
      "raw": "0xf86c2a850ddbe7fca18252089432be343b94f860124dc4fee278fdcbd38c102d888845637cc112f59800801ba01e2fc19ecbd53340767c40972a9e56d17dce564dd8b59b68bab64e1ce2201ba0a032a4083620efb4d0275c5588409ea4ba580fc434d0c5a4ebbbdc871d871d727e",
      "networkId": 0,
      "chainId": 0
    },
    {
      "hash": "0xa4ff0ea1d019db1db6e0f1332d8e071352a6073f0561814ac789056a425370b0",
      "blockHash": "0xbe523aa330a221ba49200209c3bf4c1887bfd3abc82d28256b4564f89e75bca2",
      "blockNumber": 108344,
      "transactionIndex": 3,
      "confirmations": null,
      "from": "0x5a0f0935E8E5591B2f9f2d55f29C626B50292088",
      "gasPrice": {
        "_hex": "0xddbe7fca1"
      },
      "gasLimit": {
        "_hex": "0x5208"
      },
      "to": "0x32Be343B94f860124dC4fEe278FDCBD38C102D88",
      "value": {
        "_hex": "0x3e6752da546542000"
      },
      "nonce": 23,
      "data": "0x",
      "r": "0x18d89098dfce978cca118ebf38abe57bf5677003e59421abbdc253415349b845",
      "s": "0x4c4024f006b00b0de071d3487c7fab46ccb100983321d5808081e9dc92a3fe32",
      "v": 28,
      "creates": null,
      "raw": "0xf86d17850ddbe7fca18252089432be343b94f860124dc4fee278fdcbd38c102d888903e6752da546542000801ca018d89098dfce978cca118ebf38abe57bf5677003e59421abbdc253415349b845a04c4024f006b00b0de071d3487c7fab46ccb100983321d5808081e9dc92a3fe32",
      "networkId": 0,
      "chainId": 0
    },
    {
      "hash": "0x71c42c11dcf01dd8b038f03785deb68f3ebe83bbe5b84f5852fe98aa2a899338",
      "blockHash": "0xbe523aa330a221ba49200209c3bf4c1887bfd3abc82d28256b4564f89e75bca2",
      "blockNumber": 108344,
      "transactionIndex": 4,
      "confirmations": null,
      "from": "0xc597A5d92F5dC1137D847db733cfe02c6d209f13",
      "gasPrice": {
        "_hex": "0xba43b7400"
      },
      "gasLimit": {
        "_hex": "0x15f90"
      },
      "to": "0x196DAA0CA5AAE3dC7ff55F495f9749733C58f4Fb",
      "value": {
        "_hex": "0x46525ab65ad9d000"
      },
      "nonce": 45,
      "data": "0x",
      "r": "0xaee5b198867427d420f6d41490f18b234a74dca61562e376fee6e12d557b2a56",
      "s": "0x4cc94061119b5b20a8898cbb7d8c864f411e7c2c55b62c4674032fc58e5d2fa1",
      "v": 27,
      "creates": null,
      "raw": "0xf86d2d850ba43b740083015f9094196daa0ca5aae3dc7ff55f495f9749733c58f4fb8846525ab65ad9d000801ba0aee5b198867427d420f6d41490f18b234a74dca61562e376fee6e12d557b2a56a04cc94061119b5b20a8898cbb7d8c864f411e7c2c55b62c4674032fc58e5d2fa1",
      "networkId": 0,
      "chainId": 0
    }
  ]
}