{
  "hash": "0x5af4b981c41c3422f8b6f72cf70739cf2c8e77345faf89a76a9754a656632c38",
  "parentHash": "0x17c7b3b0ea6fd7285fb65bf08941338674c078cca6029c61e743ec2189cfe4c2",
  "number": 71907,
  "timestamp": 1439343830,
  "nonce": "0xe51384270f1df5a8",
  "difficulty": 2167561434420,
  "gasLimit": {
    "_hex": "0x2fefd8"
  },
  "gasUsed": {
    "_hex": "0x5208"
  },
  "miner": "0x580992B51e3925e23280EfB93d3047C82f17E038",
  "extraData": "0x476574682f76312e302e312f6c696e75782f676f312e342e32",
  "transactions": [
    {
      "hash": "0xbb8619f9704463218d625f8035e93f684f93efbd1e891d89c0722b938cf7c466",
      "blockHash": "0x5af4b981c41c3422f8b6f72cf70739cf2c8e77345faf89a76a9754a656632c38",
      "blockNumber": 71907,
      "transactionIndex": 0,
      "confirmations": null,
      "from": "0x120A270bbC009644e35F0bB6ab13f95b8199c4ad",
      "gasPrice": {
        "_hex": "0xe05ca6c28"
      },
      "gasLimit": {
        "_hex": "0x15f90"
      },
      "to": "0x0C834b0a01810533a5417Ee59c7bB6b5D3956A82",
      "value": {
        "_hex": "0x335c7e3edb7395c400"
      },
      "nonce": 241,
      "data": "0x",
      "r": "0x5647db6dbaa52b5a9701e11ef7f89cb9967446cfeb6f2feefc5bf015e530d7d0",
      "s": "0x372378431c5f6b074b6c8f50ed7a63be454e924da39b4eaef50a896064ade915",
      "v": 27,
      "creates": null,
      "raw": "0xf86f81f1850e05ca6c2883015f90940c834b0a01810533a5417ee59c7bb6b5d3956a8289335c7e3edb7395c400801ba05647db6dbaa52b5a9701e11ef7f89cb9967446cfeb6f2feefc5bf015e530d7d0a0372378431c5f6b074b6c8f50ed7a63be454e924da39b4eaef50a896064ade915",
      "networkId": 0,
      "chainId": 0
    }
  ]
}