{
  "hash": "0x7844c0e24150d254791f09d0138eac99aebaddf505b9c8da79dcdcf433bbc76b",
  "parentHash": "0x12de93ded598ed968552becfbec763b25cbad7263ba1bdb843daa6cb1ca32c45",
  "number": 94666,
  "timestamp": 1439711944,
  "nonce": "0xfe62de8177eacad1",
  "difficulty": 3493381557877,
  "gasLimit": {
    "_hex": "0x2fefd8"
  },
  "gasUsed": {
    "_hex": "0x52080"
  },
  "miner": "0xFf7CAe450435b0BF2776edf6dFe650A0D45e2D7f",
  "extraData": "0x476574682f76312e302e312d38326566323666362f6c696e75782f676f312e34",
  "transactions": [
    {
      "hash": "0x18ae2be4b4640bb82230728f53cf83253034cbfc3488ea4e714634678abb0523",
      "blockHash": "0x7844c0e24150d254791f09d0138eac99aebaddf505b9c8da79dcdcf433bbc76b",
      "blockNumber": 94666,
      "transactionIndex": 0,
      "confirmations": null,
      "from": "0xAD8c7FBFaBC46C35aDb03F7b3A67e731E5793899",
      "gasPrice": {
        "_hex": "0xd7c07c792"
      },
      "gasLimit": {
        "_hex": "0x5208"
      },
      "to": "0x32Be343B94f860124dC4fEe278FDCBD38C102D88",
      "value": {
        "_hex": "0x46f2d5248e304000"
      },
      "nonce": 7,
      "data": "0x",
      "r": "0xd6c9b9f8ff6a0faf9f034aa48aae47897a16007274c59faa81980e8e52d610b8",
      "s": "0x6a4d246043a65f6f9868c24432496d438584e65616941080eafb0f69507e96d0",
      "v": 27,
      "creates": null,
      "raw": "0xf86c07850d7c07c7928252089432be343b94f860124dc4fee278fdcbd38c102d888846f2d5248e304000801ba0d6c9b9f8ff6a0faf9f034aa48aae47897a16007274c59faa81980e8e52d610b8a06a4d246043a65f6f9868c24432496d438584e65616941080eafb0f69507e96d0",
      "networkId": 0,
      "chainId": 0
    },
    {
      "hash": "0xce5bb9fb83bcdb2b8befae52c52b87ec762bb4f79b61e0813be5ba2e05747b5e",
      "blockHash": "0x7844c0e24150d254791f09d0138eac99aebaddf505b9c8da79dcdcf433bbc76b",
      "blockNumber": 94666,
      "transactionIndex": 1,
      "confirmations": null,
      "from": "0xe6A7a1d47ff21B6321162AEA7C6CB457D5476Bca",
      "gasPrice": {
        "_hex": "0xce0b324ca"
      },
      "gasLimit": {
        "_hex": "0x55f0"
      },
      "to": "0xabceA603089850F8f6bB612A9031554D90A247CF",
      "value": {
        "_hex": "0xd3d5ad58077268f0"
      },
      "nonce": 2873,
      "data": "0x",
      "r": "0x8db7b33bcaa5df10e351df5df23ffcc0d32d097f109f74175a0f59e45a4020dc",
      "s": "0x1ada48946aee376a96f5062a5c23e24dec75770d30dd3e38eb7d96e235114b9a",
      "v": 27,
      "creates": null,
      "raw": "0xf86e820b39850ce0b324ca8255f094abcea603089850f8f6bb612a9031554d90a247cf88d3d5ad58077268f0801ba08db7b33bcaa5df10e351df5df23ffcc0d32d097f109f74175a0f59e45a4020dca01ada48946aee376a96f5062a5c23e24dec75770d30dd3e38eb7d96e235114b9a",
      "networkId": 0,
      "chainId": 0
    },
    {
      "hash": "0x724dfce90f2e67891be26aac13c1aaa3d0e03eac919cc5c7a54c5c57784a47cf",
      "blockHash": "0x7844c0e24150d254791f09d0138eac99aebaddf505b9c8da79dcdcf433bbc76b",
      "blockNumber": 94666,
      "transactionIndex": 2,
      "confirmations": null,
      "from": "0xe6A7a1d47ff21B6321162AEA7C6CB457D5476Bca",
      "gasPrice": {
        "_hex": "0xce0b324ca"
      },
      "gasLimit": {
        "_hex": "0x55f0"
      },
      "to": "0xB6AC12CefF0375Da80503AcCa54bf3061Fa917a8",
      "value": {
        "_hex": "0xd65f55707f35eff0"
      },
      "nonce": 2874,
      "data": "0x",
      "r": "0xb4dc40e0adeace881ff7528da9cd27d5d3bb5f8c2f1ac9152b6ed3804bcd7337",
      "s": "0x2f25bbbaac2cf078f9df629ce5d3d75c6d57b0eb6a74afd73edae0abbe923cfa",
      "v": 27,
      "creates": null,
      "raw": "0xf86e820b3a850ce0b324ca8255f094b6ac12ceff0375da80503acca54bf3061fa917a888d65f55707f35eff0801ba0b4dc40e0adeace881ff7528da9cd27d5d3bb5f8c2f1ac9152b6ed3804bcd7337a02f25bbbaac2cf078f9df629ce5d3d75c6d57b0eb6a74afd73edae0abbe923cfa",
      "networkId": 0,
      "chainId": 0
    },
    {
      "hash": "0x86b9c438db09c31e82a6e948a6a194f0bf9f989dc0bd99faa79b272cfe7a16ed",
      "blockHash": "0x7844c0e24150d254791f09d0138eac99aebaddf505b9c8da79dcdcf433bbc76b",
      "blockNumber": 94666,
      "transactionIndex": 3,
      "confirmations": null,
      "from": "0xe6A7a1d47ff21B6321162AEA7C6CB457D5476Bca",
      "gasPrice": {
        "_hex": "0xce0b324ca"
      },
      "gasLimit": {
        "_hex": "0x55f0"
      },
      "to": "0xE6D67E3661E28eE2DfC1c68D5DeeA3C3bB880059",
      "value": {
        "_hex": "0xd69f1b6b797457b8"
      },
      "nonce": 2875,
      "data": "0x",
      "r": "0xdd4a572779abfc0c1f25fd7ae741639f882d765b78c18c95c18b48e203b8d3bb",
      "s": "0x58604c581453968c0708473f292c9b1e244305ce5f21085ee41f56afa7a282cd",
      "v": 27,
      "creates": null,
      "raw": "0xf86e820b3b850ce0b324ca8255f094e6d67e3661e28ee2dfc1c68d5deea3c3bb88005988d69f1b6b797457b8801ba0dd4a572779abfc0c1f25fd7ae741639f882d765b78c18c95c18b48e203b8d3bba058604c581453968c0708473f292c9b1e244305ce5f21085ee41f56afa7a282cd",
      "networkId": 0,
      "chainId": 0
    },
    {
      "hash": "0xd3392d1f07df511383ce0d91c493b8991c0e9513ec6212eefe67c2d82c889ad4",
      "blockHash": "0x7844c0e24150d254791f09d0138eac99aebaddf505b9c8da79dcdcf433bbc76b",
      "blockNumber": 94666,
      "transactionIndex": 4,
      "confirmations": null,
      "from": "0xe6A7a1d47ff21B6321162AEA7C6CB457D5476Bca",
      "gasPrice": {
        "_hex": "0xce0b324ca"
      },
      "gasLimit": {
        "_hex": "0x55f0"
      },
      "to": "0x229f76DdF9053EEb247D1aB455af64e6D26029b8",
      "value": {
        "_hex": "0xd725a0c7bedb4650"
      },
      "nonce": 2876,
      "data": "0x",
      "r": "0xc47dd8ee80ca24f69448099ad217be38df86f7961d0374681ee9dcbd70591d5c",
      "s": "0x6d9c7618dbc6c38a2db27525a7c17e8177e3a5dc3c45b71c5be117bb5c5e655f",
      "v": 28,
      "creates": null,
      "raw": "0xf86e820b3c850ce0b324ca8255f094229f76ddf9053eeb247d1ab455af64e6d26029b888d725a0c7bedb4650801ca0c47dd8ee80ca24f69448099ad217be38df86f7961d0374681ee9dcbd70591d5ca06d9c7618dbc6c38a2db27525a7c17e8177e3a5dc3c45b71c5be117bb5c5e655f",
      "networkId": 0,
      "chainId": 0
    },
    {
      "hash": "0xca4f81dd974fbfc3308c3d2b093fb6def4fe60723e40a04a7ea89b5cebb6b0d2",
      "blockHash": "0x7844c0e24150d254791f09d0138eac99aebaddf505b9c8da79dcdcf433bbc76b",
      "blockNumber": 94666,
      "transactionIndex": 5,
      "confirmations": null,
      "from": "0xe6A7a1d47ff21B6321162AEA7C6CB457D5476Bca",
      "gasPrice": {
        "_hex": "0xce0b324ca"
      },
      "gasLimit": {
        "_hex": "0x55f0"
      },
      "to": "0x0A319A7e0C887F104359e1eEe6717BD8f232d3Da",
      "value": {
        "_hex": "0xd798aa85e3be1ed0"
      },
      "nonce": 2877,
      "data": "0x",
      "r": "0x0b5ca8df97b3864aec97ca113a2db2b4d44924f73a20e93f8592bdf1edae3c90",
      "s": "0x48864f50fa3c5f07d7c4f7a3f86f1d8811dac3294dc638c9d8f72e0293df5686",
      "v": 27,
      "creates": null,
      "raw": "0xf86e820b3d850ce0b324ca8255f0940a319a7e0c887f104359e1eee6717bd8f232d3da88d798aa85e3be1ed0801ba00b5ca8df97b3864aec97ca113a2db2b4d44924f73a20e93f8592bdf1edae3c90a048864f50fa3c5f07d7c4f7a3f86f1d8811dac3294dc638c9d8f72e0293df5686",
      "networkId": 0,
      "chainId": 0
    },
    {
      "hash": "0xe2e45a852a2e62de4e981c7dc8c4f5326046ede4773bc7d07e23e0b67ef3850f",
      "blockHash": "0x7844c0e24150d254791f09d0138eac99aebaddf505b9c8da79dcdcf433bbc76b",
      "blockNumber": 94666,
      "transactionIndex": 6,
      "confirmations": null,
      "from": "0xe6A7a1d47ff21B6321162AEA7C6CB457D5476Bca",
      "gasPrice": {
        "_hex": "0xce0b324ca"
      },
      "gasLimit": {
        "_hex": "0x55f0"
      },
      "to": "0x1CaC89419da71AC175A5B99CEE0163720430990c",
      "value": {
        "_hex": "0xe216dd23f130c0f0"
      },
      "nonce": 2878,
      "data": "0x",
      "r": "0xaeb3555a8130faaa18cf3da26054b1702b8d7626a1631a392bdf58e44e99ff3c",
      "s": "0x2b676067a80cf52d4c7c865a0e07ca8fc987e8cf4fa6b6f1530b4f3ba895e22d",
      "v": 27,
      "creates": null,
      "raw": "0xf86e820b3e850ce0b324ca8255f0941cac89419da71ac175a5b99cee0163720430990c88e216dd23f130c0f0801ba0aeb3555a8130faaa18cf3da26054b1702b8d7626a1631a392bdf58e44e99ff3ca02b676067a80cf52d4c7c865a0e07ca8fc987e8cf4fa6b6f1530b4f3ba895e22d",
      "networkId": 0,
      "chainId": 0
    },
    {
      "hash": "0xae5bd767edc7a6bc2bc24c5997c8180bc3a7c8922c08fb291ac2e0fb84a2f336",
      "blockHash": "0x7844c0e24150d254791f09d0138eac99aebaddf505b9c8da79dcdcf433bbc76b",
      "blockNumber": 94666,
      "transactionIndex": 7,
      "confirmations": null,
      "from": "0xe6A7a1d47ff21B6321162AEA7C6CB457D5476Bca",
      "gasPrice": {
        "_hex": "0xce0b324ca"
      },
      "gasLimit": {
        "_hex": "0x55f0"
      },
      "to": "0xD72ab61a64fEAeE7b5EB3D42B5445858B95d38fd",
      "value": {
        "_hex": "0xe34ff54fa21818c8"
      },
      "nonce": 2879,
      "data": "0x",
      "r": "0x94c9c23775d30ac88fd68b1187d63865c4c58438697a201855cfa7e3fd799780",
      "s": "0x0a9054e4b4210f021e336d75d7e091b2e00ebb6f657a44a61bdd0291b73a6a5e",
      "v": 27,
      "creates": null,
      "raw": "0xf86e820b3f850ce0b324ca8255f094d72ab61a64feaee7b5eb3d42b5445858b95d38fd88e34ff54fa21818c8801ba094c9c23775d30ac88fd68b1187d63865c4c58438697a201855cfa7e3fd799780a00a9054e4b4210f021e336d75d7e091b2e00ebb6f657a44a61bdd0291b73a6a5e",
      "networkId": 0,
      "chainId": 0
    },
    {
      "hash": "0xce72b968a9cac646c70af4629fc078825489c2ab3b33e0b1ec30d8b060ac02fe",
      "blockHash": "0x7844c0e24150d254791f09d0138eac99aebaddf505b9c8da79dcdcf433bbc76b",
      "blockNumber": 94666,
      "transactionIndex": 8,
      "confirmations": null,
      "from": "0xe6A7a1d47ff21B6321162AEA7C6CB457D5476Bca",
      "gasPrice": {
        "_hex": "0xce0b324ca"
      },
      "gasLimit": {
        "_hex": "0x55f0"
      },
      "to": "0xeF0a7407D5b9AF9fA9f38f67aBB66d20686afb55",
      "value": {
        "_hex": "0xe3a0bd3691912e68"
      },
      "nonce": 2880,
      "data": "0x",
      "r": "0x1e1ad11de8aa18f0d0c17f0b34af28133489028f7f7ffe9e9c5af592d9ef201f",
      "s": "0x76d3c0c0badeac60acc456b7ba812c57ffe9e864d324218f100a3e06644d82d3",
      "v": 28,
      "creates": null,
      "raw": "0xf86e820b40850ce0b324ca8255f094ef0a7407d5b9af9fa9f38f67abb66d20686afb5588e3a0bd3691912e68801ca01e1ad11de8aa18f0d0c17f0b34af28133489028f7f7ffe9e9c5af592d9ef201fa076d3c0c0badeac60acc456b7ba812c57ffe9e864d324218f100a3e06644d82d3",
      "networkId": 0,
      "chainId": 0
    },
    {
      "hash": "0xbc2d541eeec188dd26728365c05709a2254ae494329d40146a69d019beffed1c",
      "blockHash": "0x7844c0e24150d254791f09d0138eac99aebaddf505b9c8da79dcdcf433bbc76b",
      "blockNumber": 94666,
      "transactionIndex": 9,
      "confirmations": null,
      "from": "0xe6A7a1d47ff21B6321162AEA7C6CB457D5476Bca",
      "gasPrice": {
        "_hex": "0xce0b324ca"
      },
      "gasLimit": {
        "_hex": "0x55f0"
      },
      "to": "0x065317E0625de4403Cc8D0804Eb46426Cd5B033F",
      "value": {
        "_hex": "0xe726f80196f73fc0"
      },
      "nonce": 2881,
      "data": "0x",
      "r": "0x24049c5e45792b6ba980478efafb490cf6066403c65286a46fe9457aaa8cdded",
      "s": "0x59cdaf9de184f96be3688146db6fef1f03ba6336a18ae4d793d7ca14fa0b948d",
      "v": 28,
      "creates": null,
      "raw": "0xf86e820b41850ce0b324ca8255f094065317e0625de4403cc8d0804eb46426cd5b033f88e726f80196f73fc0801ca024049c5e45792b6ba980478efafb490cf6066403c65286a46fe9457aaa8cddeda059cdaf9de184f96be3688146db6fef1f03ba6336a18ae4d793d7ca14fa0b948d",
      "networkId": 0,
      "chainId": 0
    },
    {
      "hash": "0xdb1a57d9669e69148afc272d6566996561adf79247a7961774f04bcc0e69008b",
      "blockHash": "0x7844c0e24150d254791f09d0138eac99aebaddf505b9c8da79dcdcf433bbc76b",
      "blockNumber": 94666,
      "transactionIndex": 10,
      "confirmations": null,
      "from": "0xe6A7a1d47ff21B6321162AEA7C6CB457D5476Bca",
      "gasPrice": {
        "_hex": "0xce0b324ca"
      },
      "gasLimit": {
        "_hex": "0x55f0"
      },
      "to": "0xe2F72eC9A4d57A125f9397267198Fbd81c86aB9A",
      "value": {
        "_hex": "0xed9d9e9bfb75c648"
      },
      "nonce": 2882,
      "data": "0x",
      "r": "0x9dbdc471ce8abe5c7c992367f31a09040e15c8213b8a44d5a6d5c3096449d86d",
      "s": "0x5591674fb88c7e3144c0bb9c4d4fd40c56573603f7f24d2cae55f14364d6b64a",
      "v": 28,
      "creates": null,
      "raw": "0xf86e820b42850ce0b324ca8255f094e2f72ec9a4d57a125f9397267198fbd81c86ab9a88ed9d9e9bfb75c648801ca09dbdc471ce8abe5c7c992367f31a09040e15c8213b8a44d5a6d5c3096449d86da05591674fb88c7e3144c0bb9c4d4fd40c56573603f7f24d2cae55f14364d6b64a",
      "networkId": 0,
      "chainId": 0
    },
    {
      "hash": "0x99136aa760925dcf680e75afdef4bf021e9e66fac80da4cf5a056cf090c94311",
      "blockHash": "0x7844c0e24150d254791f09d0138eac99aebaddf505b9c8da79dcdcf433bbc76b",
      "blockNumber": 94666,
      "transactionIndex": 11,
      "confirmations": null,
      "from": "0xe6A7a1d47ff21B6321162AEA7C6CB457D5476Bca",
      "gasPrice": {
        "_hex": "0xce0b324ca"
      },
      "gasLimit": {
        "_hex": "0x55f0"
      },
      "to": "0x27e806e70622d2864e1B1f4426D72FFb0457C83a",
      "value": {
        "_hex": "0xede41929e3a498d8"
      },
      "nonce": 2883,
      "data": "0x",
      "r": "0x4bbdf56d932a4ec465435b818ee9be8b3e19142ac450a2b8ef691997cb6cf40a",
      "s": "0x4a53db0c98ea3c2e5278f95185d52a144385a5484668dd924d55cfb472f394ab",
      "v": 27,
      "creates": null,
      "raw": "0xf86e820b43850ce0b324ca8255f09427e806e70622d2864e1b1f4426d72ffb0457c83a88ede41929e3a498d8801ba04bbdf56d932a4ec465435b818ee9be8b3e19142ac450a2b8ef691997cb6cf40aa04a53db0c98ea3c2e5278f95185d52a144385a5484668dd924d55cfb472f394ab",
      "networkId": 0,
      "chainId": 0
    },
    {
      "hash": "0x0137577e22ff9a9db623380e91568806ec051ced73bd3af64b30941cb6abcf07",
      "blockHash": "0x7844c0e24150d254791f09d0138eac99aebaddf505b9c8da79dcdcf433bbc76b",
      "blockNumber": 94666,
      "transactionIndex": 12,
      "confirmations": null,
      "from": "0xe6A7a1d47ff21B6321162AEA7C6CB457D5476Bca",
      "gasPrice": {
        "_hex": "0xce0b324ca"
      },
      "gasLimit": {
        "_hex": "0x55f0"
      },
      "to": "0xe7523F78ae9eDb81dC7B2A9ca718Ba3776C14f2e",
      "value": {
        "_hex": "0xf54cb92e4aa8ba00"
      },
      "nonce": 2884,
      "data": "0x",
      "r": "0x495d433e344eaae099e0979cfdd2f3f15ed8b9c05de62e9596a954ec877ff3a9",
      "s": "0x46a14b2ba8b4d9290f4c5158b9432d0a5df7919dfc296ae390e1613b088ae250",
      "v": 28,
      "creates": null,
      "raw": "0xf86e820b44850ce0b324ca8255f094e7523f78ae9edb81dc7b2a9ca718ba3776c14f2e88f54cb92e4aa8ba00801ca0495d433e344eaae099e0979cfdd2f3f15ed8b9c05de62e9596a954ec877ff3a9a046a14b2ba8b4d9290f4c5158b9432d0a5df7919dfc296ae390e1613b088ae250",
      "networkId": 0,
      "chainId": 0
    },
    {
      "hash": "0x9df0613eda5e621f7542eb08a3fa7d5fb38d94addf4b0f438b19f4a278e6776a",
      "blockHash": "0x7844c0e24150d254791f09d0138eac99aebaddf505b9c8da79dcdcf433bbc76b",
      "blockNumber": 94666,
      "transactionIndex": 13,
      "confirmations": null,
      "from": "0xe6A7a1d47ff21B6321162AEA7C6CB457D5476Bca",
      "gasPrice": {
        "_hex": "0xce0b324ca"
      },
      "gasLimit": {
        "_hex": "0x55f0"
      },
      "to": "0x72E9B6674F1F4eb48556178f40657D8f129bFb79",
      "value": {
        "_hex": "0xf82520a391212140"
      },
      "nonce": 2885,
      "data": "0x",
      "r": "0x8960cc541007d21124a28de81406606510087785daee3b88b8634bca98ed551e",
      "s": "0x03c33b7f3d782442909669fe7774a29c9822ac8811f461a78fccf1c352cc92ba",
      "v": 27,
      "creates": null,
      "raw": "0xf86e820b45850ce0b324ca8255f09472e9b6674f1f4eb48556178f40657d8f129bfb7988f82520a391212140801ba08960cc541007d21124a28de81406606510087785daee3b88b8634bca98ed551ea003c33b7f3d782442909669fe7774a29c9822ac8811f461a78fccf1c352cc92ba",
      "networkId": 0,
      "chainId": 0
    },
    {
      "hash": "0x2560d01b56f0db3c5eb776582ec7bf6a5ab3df85386dfb0b30bd67f0c3123aa5",
      "blockHash": "0x7844c0e24150d254791f09d0138eac99aebaddf505b9c8da79dcdcf433bbc76b",
      "blockNumber": 94666,
      "transactionIndex": 14,
      "confirmations": null,
      "from": "0xe6A7a1d47ff21B6321162AEA7C6CB457D5476Bca",
      "gasPrice": {
        "_hex": "0xce0b324ca"
      },
      "gasLimit": {
        "_hex": "0x55f0"
      },
      "to": "0x02020D22dCF88f5eDd66B382D7da019F161fB7e3",
      "value": {
        "_hex": "0xf8e765c8b80708d8"
      },
      "nonce": 2886,
      "data": "0x",
      "r": "0xb0a28a3c3df80d1feef8a96be762bdcc0570a233b506e8abde8a1445bc3fd21e",
      "s": "0x572c39a15437d1d4e68413ed977610226e749a63fb705121b08cde745701f9c3",
      "v": 27,
      "creates": null,
      "raw": "0xf86e820b46850ce0b324ca8255f09402020d22dcf88f5edd66b382d7da019f161fb7e388f8e765c8b80708d8801ba0b0a28a3c3df80d1feef8a96be762bdcc0570a233b506e8abde8a1445bc3fd21ea0572c39a15437d1d4e68413ed977610226e749a63fb705121b08cde745701f9c3",
      "networkId": 0,
      "chainId": 0
    },
    {
      "hash": "0x65dec2d01dcb7d7001033739e9b26e4f9615eb37d88be40e067faf291e8bc35d",
      "blockHash": "0x7844c0e24150d254791f09d0138eac99aebaddf505b9c8da79dcdcf433bbc76b",
      "blockNumber": 94666,
      "transactionIndex": 15,
      "confirmations": null,
      "from": "0xe6A7a1d47ff21B6321162AEA7C6CB457D5476Bca",
      "gasPrice": {
        "_hex": "0xce0b324ca"
      },
      "gasLimit": {
        "_hex": "0x55f0"
      },
      "to": "0xC96Bd2Aa7AcB234ecA4E38E33bF2C080e7680FA5",
      "value": {
        "_hex": "0xf99e1c1bb8b950b8"
      },
      "nonce": 2887,
      "data": "0x",
      "r": "0x3ef2326e4bfe158964959f5c97d9b872491ac3b98bd42bacbbe77f967c6ce62e",
      "s": "0x3448096a43381743db86bf870076286d43d0e4d6b34a4834ad8513e5936b1be4",
      "v": 28,
      "creates": null,
      "raw": "0xf86e820b47850ce0b324ca8255f094c96bd2aa7acb234eca4e38e33bf2c080e7680fa588f99e1c1bb8b950b8801ca03ef2326e4bfe158964959f5c97d9b872491ac3b98bd42bacbbe77f967c6ce62ea03448096a43381743db86bf870076286d43d0e4d6b34a4834ad8513e5936b1be4",
      "networkId": 0,
      "chainId": 0
    }
  ]
}