{
  "hash": "0x6c9224b33d2c5b905f5d38d8e2ed94cbc0fc9b8f4f0b2c97dca9aa06f054984f",
  "parentHash": "0x9d15bd44b4bd53a367fc9b8bd5aab748b2a19b30ee5e936ec295c584d7c6d8d3",
  "number": 64923,
  "timestamp": 1439228467,
  "nonce": "0x40bbb13cd2284a7a",
  "difficulty": 1912590791037,
  "gasLimit": {
    "_hex": "0x2fefd8"
  },
  "gasUsed": {
    "_hex": "0xa410"
  },
  "miner": "0x2134e2a2b718DCa96580ECAC31E653Ea1fdd58DA",
  "extraData": "0x476574682f76312e302e312f77696e646f77732f676f312e342e32",
  "transactions": [
    {
      "hash": "0xddac382a1725150c963541ca322c563202379c612a56efa091b3af541c486630",
      "blockHash": "0x6c9224b33d2c5b905f5d38d8e2ed94cbc0fc9b8f4f0b2c97dca9aa06f054984f",
      "blockNumber": 64923,
      "transactionIndex": 0,
      "confirmations": null,
      "from": "0x95dF4e3445D7662624c48eba74cF9e0a53E9f732",
      "gasPrice": {
        "_hex": "0xd36ca13e2"
      },
      "gasLimit": {
        "_hex": "0x53fc"
      },
      "to": "0x43279854AaF8825a6d1fcCf056caF190Ab8a7b76",
      "value": {
        "_hex": "0x4563918244f40000"
      },
      "nonce": 1,
      "data": "0x",
      "r": "0x12a39feb4af844db744f7b0fa616b4c4b4af7b428af38179a83fc2749d2efc7d",
      "s": "0x301b7b08b09f6615a4a6db85b8d2b36467c18b4be065e0452efdc6958c9f706d",
      "v": 28,
      "creates": null,
      "raw": "0xf86c01850d36ca13e28253fc9443279854aaf8825a6d1fccf056caf190ab8a7b76884563918244f40000801ca012a39feb4af844db744f7b0fa616b4c4b4af7b428af38179a83fc2749d2efc7da0301b7b08b09f6615a4a6db85b8d2b36467c18b4be065e0452efdc6958c9f706d",
      "networkId": 0,
      "chainId": 0
    },
    {
      "hash": "0x1828d442841a3d498ee761b2c177f4e19f593024ccb6fb31677c3093ef5aea8a",
      "blockHash": "0x6c9224b33d2c5b905f5d38d8e2ed94cbc0fc9b8f4f0b2c97dca9aa06f054984f",
      "blockNumber": 64923,
      "transactionIndex": 1,
      "confirmations": null,
      "from": "0xC624b0Cd3307f6CFFC473f5019FA380E6811ee58",
      "gasPrice": {
        "_hex": "0xd090ec3ee"
      },
      "gasLimit": {
        "_hex": "0x5208"
      },
      "to": "0x32Be343B94f860124dC4fEe278FDCBD38C102D88",
      "value": {
        "_hex": "0xd6031137b4bf000"
      },
      "nonce": 3,
      "data": "0x",
      "r": "0x47c15ee80e0fb0eca9169f82b0133cecbaabf071c9ca66dbc62cec67128dbfbd",
      "s": "0x51f0a68cab3ffa696db1c8fcfb5fde066e430a948f5bc50b40cf63e8db4818bb",
      "v": 28,
      "creates": null,
      "raw": "0xf86c03850d090ec3ee8252089432be343b94f860124dc4fee278fdcbd38c102d88880d6031137b4bf000801ca047c15ee80e0fb0eca9169f82b0133cecbaabf071c9ca66dbc62cec67128dbfbda051f0a68cab3ffa696db1c8fcfb5fde066e430a948f5bc50b40cf63e8db4818bb",
      "networkId": 0,
      "chainId": 0
    }
  ]
}