{
  "hash": "0x939221ee765223a41ad6630c2be67dd48b64eac3a8a51d1216f1d62c9471e9af",
  "parentHash": "0x2095d2800a96eeda00daea7738157c01b4c53e8b70a59479307cae15ea2dc45d",
  "number": 85990,
  "timestamp": 1439571909,
  "nonce": "0x2fa8522e64bca55e",
  "difficulty": 2790772668008,
  "gasLimit": {
    "_hex": "0x2fefd8"
  },
  "gasUsed": {
    "_hex": "0xa410"
  },
  "miner": "0xe6A7a1d47ff21B6321162AEA7C6CB457D5476Bca",
  "extraData": "0x476574682f76312e302e312d38326566323666362f6c696e75782f676f312e34",
  "transactions": [
    {
      "hash": "0xf58b79b51142a2be7d1cdcfb12cc58f0469be5ce87584b9326a50de8317eb5f7",
      "blockHash": "0x939221ee765223a41ad6630c2be67dd48b64eac3a8a51d1216f1d62c9471e9af",
      "blockNumber": 85990,
      "transactionIndex": 0,
      "confirmations": null,
      "from": "0xC47Aaa860008be6f65B58c6C6E02a84e666EfE31",
      "gasPrice": {
        "_hex": "0xd8c5b056e"
      },
      "gasLimit": {
        "_hex": "0x15f90"
      },
      "to": "0xFd1356C729AbA6307fdddAF2abF89c2563bBc1bF",
      "value": {
        "_hex": "0x21e19dd3c3c0d766431"
      },
      "nonce": 17,
      "data": "0x",
      "r": "0xa69db0a367ab671f62f40a786442082aaf43a1ad562d3836d6c881ff7c128cc6",
      "s": "0x380b3c8545b8e8a8ebc698c5871ae4e025c017396e3df75afd6c740027299821",
      "v": 27,
      "creates": null,
      "raw": "0xf86f11850d8c5b056e83015f9094fd1356c729aba6307fdddaf2abf89c2563bbc1bf8a021e19dd3c3c0d766431801ba0a69db0a367ab671f62f40a786442082aaf43a1ad562d3836d6c881ff7c128cc6a0380b3c8545b8e8a8ebc698c5871ae4e025c017396e3df75afd6c740027299821",
      "networkId": 0,
      "chainId": 0
    },
    {
      "hash": "0xc9a27cde70e23cadc4e7a6a6de85a23f2ffd2f18d570fcccd29e67d28de2d451",
      "blockHash": "0x939221ee765223a41ad6630c2be67dd48b64eac3a8a51d1216f1d62c9471e9af",
      "blockNumber": 85990,
      "transactionIndex": 1,
      "confirmations": null,
      "from": "0x7Fe1431454CeFEb2c76098586817aF697748fcE1",
      "gasPrice": {
        "_hex": "0xba43b7400"
      },
      "gasLimit": {
        "_hex": "0x5208"
      },
      "to": "0xC47Aaa860008be6f65B58c6C6E02a84e666EfE31",
      "value": {
        "_hex": "0x3635c5f2cdb19b2780"
      },
      "nonce": 1,
      "data": "0x",
      "r": "0xda49c33cb26066aa462177bc62d198f80a6c6cacb2e246e5344a6fe10a3b6e1a",
      "s": "0x082bb48bd211bdf4ff8bb93e6d66b3cffa1a9cdb441ddff2a78c51def34d9d03",
      "v": 28,
      "creates": null,
      "raw": "0xf86d01850ba43b740082520894c47aaa860008be6f65b58c6c6e02a84e666efe31893635c5f2cdb19b2780801ca0da49c33cb26066aa462177bc62d198f80a6c6cacb2e246e5344a6fe10a3b6e1aa0082bb48bd211bdf4ff8bb93e6d66b3cffa1a9cdb441ddff2a78c51def34d9d03",
      "networkId": 0,
      "chainId": 0
    }
  ]
}