{
  "hash": "0x31cfa4a1dce3c64d2abfd6afe27b6128ba4c8bdb45d735e257fde57baf57aba7",
  "parentHash": "0x4d23ecb64f2b66d42746576cfa85d5de99e56116aa584ddc268f09b2cbed5f85",
  "number": 95249,
  "timestamp": 1439721299,
  "nonce": "0xad44f8d933f90b2c",
  "difficulty": 3546415644395,
  "gasLimit": {
    "_hex": "0x2fefd8"
  },
  "gasUsed": {
    "_hex": "0x5208"
  },
  "miner": "0xf927a40C8B7F6E07c5af7FA2155B4864a4112B13",
  "extraData": "0x",
  "transactions": [
    {
      "hash": "0xa0b5d583ba455bb3fc6212f3874401dd92b4bea9e32e1797003e7fc91c535474",
      "blockHash": "0x31cfa4a1dce3c64d2abfd6afe27b6128ba4c8bdb45d735e257fde57baf57aba7",
      "blockNumber": 95249,
      "transactionIndex": 0,
      "confirmations": null,
      "from": "0xd121f6B6DE47879cc29a8262cA01F7B4ACE9707e",
      "gasPrice": {
        "_hex": "0xd7d40ace3"
      },
      "gasLimit": {
        "_hex": "0x15f90"
      },
      "to": "0x9cF18B3eb373C383a42d06136ba331D766ed9Fbb",
      "value": {
        "_hex": "0x7f808e9291e6c0000"
      },
      "nonce": 2,
      "data": "0x",
      "r": "0x2f0852284c9b98947d86da8128783cb6e69f680eefd857664cf87785f08b45af",
      "s": "0x1b1e546d3fb37d3dae22c9d4289214bd9a8044bfc145f7358a09187c102c3f62",
      "v": 28,
      "creates": null,
      "raw": "0xf86e02850d7d40ace383015f90949cf18b3eb373c383a42d06136ba331d766ed9fbb8907f808e9291e6c0000801ca02f0852284c9b98947d86da8128783cb6e69f680eefd857664cf87785f08b45afa01b1e546d3fb37d3dae22c9d4289214bd9a8044bfc145f7358a09187c102c3f62",
      "networkId": 0,
      "chainId": 0
    }
  ]
}