{
  "hash": "0xa63da0af3c849df42797c1c765a25573a0bd8d777c6edde487320946bea8fc95",
  "parentHash": "0x8cd5a2f4144526494cb67578fe7eafe6187b6890cd83b75901cf6f928dec8523",
  "number": 61568,
  "timestamp": 1439174572,
  "nonce": "0x3b09e35a82199923",
  "difficulty": 1736185957420,
  "gasLimit": {
    "_hex": "0x2fefd8"
  },
  "gasUsed": {
    "_hex": "0xa481"
  },
  "miner": "0x4947190fcC30D3fb3a16233b259bFe6b3492339a",
  "extraData": "0x476574682f76312e302e312d38326566323666362f6c696e75782f676f312e34",
  "transactions": [
    {
      "hash": "0x61091da92c7357bb33d036c175d556acb7279a3ccf433934c7b60a136b2b588b",
      "blockHash": "0xa63da0af3c849df42797c1c765a25573a0bd8d777c6edde487320946bea8fc95",
      "blockNumber": 61568,
      "transactionIndex": 0,
      "confirmations": null,
      "from": "0xE2beA3e7d349ab64EBD9873418e78912e13CD35f",
      "gasPrice": {
        "_hex": "0xd968c335b"
      },
      "gasLimit": {
        "_hex": "0x15f90"
      },
      "to": "0x1702C089c3D4B2b8e09232F36114E41c214D6939",
      "value": {
        "_hex": "0xde0b6b3a7640000"
      },
      "nonce": 7,
      "data": "0x",
      "r": "0x543ddcb1397f5f014772876c922eacdd6aca21374799c10c57940071e95ea857",
      "s": "0x33a5ce635834f80556bb1c66e904767489b1b99321ceb53b9f5d4fc5b4f3fe90",
      "v": 27,
      "creates": null,
      "raw": "0xf86d07850d968c335b83015f90941702c089c3d4b2b8e09232f36114e41c214d6939880de0b6b3a7640000801ba0543ddcb1397f5f014772876c922eacdd6aca21374799c10c57940071e95ea857a033a5ce635834f80556bb1c66e904767489b1b99321ceb53b9f5d4fc5b4f3fe90",
      "networkId": 0,
      "chainId": 0
    },
    {
      "hash": "0xd3524c42fb62c8965504d4c9c29b45d5413e29a991606665abacbfa4ddf40c25",
      "blockHash": "0xa63da0af3c849df42797c1c765a25573a0bd8d777c6edde487320946bea8fc95",
      "blockNumber": 61568,
      "transactionIndex": 1,
      "confirmations": null,
      "from": "0xE2beA3e7d349ab64EBD9873418e78912e13CD35f",
      "gasPrice": {
        "_hex": "0xd968c335b"
      },
      "gasLimit": {
        "_hex": "0x15f90"
      },
      "to": "0x3d20CA881Df543228b314BBE1D47bB54DB124383",
      "value": {
        "_hex": "0x29a2241af62c0000"
      },
      "nonce": 8,
      "data": "0x",
      "r": "0x11ccc9760b37eea7ef96ea3f8e48342bdb4657988c8b091da280bc89da08d883",
      "s": "0x216a6f45c2a015da61f0f10cf9cbfe69a19614f90e18baea7a64f536c71c8f95",
      "v": 27,
      "creates": null,
      "raw": "0xf86d08850d968c335b83015f90943d20ca881df543228b314bbe1d47bb54db1243838829a2241af62c0000801ba011ccc9760b37eea7ef96ea3f8e48342bdb4657988c8b091da280bc89da08d883a0216a6f45c2a015da61f0f10cf9cbfe69a19614f90e18baea7a64f536c71c8f95",
      "networkId": 0,
      "chainId": 0
    }
  ]
}