{
  "hash": "0xeed508ed03fa3b466a8f0c43d8eac6417bb9d78e73b56cf66adfa4fb2b6bd235",
  "parentHash": "0x2589427e968e2111bfc1f556701205c7d3caa7f64db04e70dd9c0d96733199d2",
  "number": 51635,
  "timestamp": 1439008253,
  "nonce": "0x43672394d035f3c2",
  "difficulty": 1558911946126,
  "gasLimit": {
    "_hex": "0xc8106"
  },
  "gasUsed": {
    "_hex": "0x7a120"
  },
  "miner": "0xbb7B8287f3F0a933474a79eAe42CBCa977791171",
  "extraData": "0x476574682f4c5649562f76312e302e312f6c696e75782f676f312e342e32",
  "transactions": [
    {
      "hash": "0x1d54b20075517dc9f2e7d26db5126c2659781f4b6a133ad057edd4f8812498be",
      "blockHash": "0xeed508ed03fa3b466a8f0c43d8eac6417bb9d78e73b56cf66adfa4fb2b6bd235",
      "blockNumber": 51635,
      "transactionIndex": 0,
      "confirmations": null,
      "from": "0xFCf9f6A78f06227522c6f948ec0119dA31680Ef7",
      "gasPrice": {
        "_hex": "0xd7f56563d"
      },
      "gasLimit": {
        "_hex": "0x7a120"
      },
      "to": "0xBAA54d6E90c3F4d7Ebec11bD180134C7eD8eBb52",
      "value": {
        "_hex": "0x16345785d8a0000"
      },
      "nonce": 41,
      "data": "0x",
      "r": "0x3778c71af66c85ef2d67c2bac6ec9931f7f6f2a8d53c50c41645a9ade3a4e966",
      "s": "0x0093ff5008f2ce8318dbcea41ce6ca13024165b8f15763cc3bfedae07d7c235b",
      "v": 28,
      "creates": null,
      "raw": "0xf86c29850d7f56563d8307a12094baa54d6e90c3f4d7ebec11bd180134c7ed8ebb5288016345785d8a0000801ca03778c71af66c85ef2d67c2bac6ec9931f7f6f2a8d53c50c41645a9ade3a4e9669f93ff5008f2ce8318dbcea41ce6ca13024165b8f15763cc3bfedae07d7c235b",
      "networkId": 0,
      "chainId": 0
    }
  ]
}