{
  "hash": "0x10e7307a6c8f6957036ab950d73e558051b5b023f0e451876886220495cd3c27",
  "parentHash": "0x35167342473c81a9c2024d2dd587da5083c8d2a5f211c211d163a1d8d6ceec31",
  "number": 81779,
  "timestamp": 1439507771,
  "nonce": "0x53980fe03444688c",
  "difficulty": 2422331811760,
  "gasLimit": {
    "_hex": "0x2fefd8"
  },
  "gasUsed": {
    "_hex": "0x5208"
  },
  "miner": "0xF2d2AfF1320476cb8C6b607199D23175cc595693",
  "extraData": "0x476574682f76312e302e312f77696e646f77732f676f312e342e32",
  "transactions": [
    {
      "hash": "0x17329c247ac4f30278ba8e42fee736f00cf6844002964d8ab01407e1cf605e0d",
      "blockHash": "0x10e7307a6c8f6957036ab950d73e558051b5b023f0e451876886220495cd3c27",
      "blockNumber": 81779,
      "transactionIndex": 0,
      "confirmations": null,
      "from": "0x32Be343B94f860124dC4fEe278FDCBD38C102D88",
      "gasPrice": {
        "_hex": "0xcb1f38357"
      },
      "gasLimit": {
        "_hex": "0x5208"
      },
      "to": "0x8AdB5004B6025f672a1E22044E627145a6EDC0d7",
      "value": {
        "_hex": "0xc84be7438b5030000"
      },
      "nonce": 616,
      "data": "0x",
      "r": "0xac51546be228192e2b5c53567e968e8742e75752817f502acce72a212332edf1",
      "s": "0x69e6f07e4881956c34b57271464c48d94b755ff77b884dd2f4e840c1a12d997a",
      "v": 28,
      "creates": null,
      "raw": "0xf86f820268850cb1f38357825208948adb5004b6025f672a1e22044e627145a6edc0d7890c84be7438b5030000801ca0ac51546be228192e2b5c53567e968e8742e75752817f502acce72a212332edf1a069e6f07e4881956c34b57271464c48d94b755ff77b884dd2f4e840c1a12d997a",
      "networkId": 0,
      "chainId": 0
    }
  ]
}