{
  "hash": "0xf87b44e4fa60ef63cb1e4b0893ddf1bd9cd0282b5bfc7ca8de7d82aabef8d466",
  "parentHash": "0x681c546a8faf30bcf4e4a73b83999b4d999fbb70ee26aa2d2055e478b9a79af5",
  "number": 74278,
  "timestamp": 1439383528,
  "nonce": "0xfe05e2108c9b6c57",
  "difficulty": 2208609424294,
  "gasLimit": {
    "_hex": "0x2fefd8"
  },
  "gasUsed": {
    "_hex": "0x23e38"
  },
  "miner": "0x31995C46B15C84523cDEE26f49A681b8237e43F5",
  "extraData": "0x476574682f76312e302e312f77696e646f77732f676f312e342e32",
  "transactions": [
    {
      "hash": "0x075b4e3d3ea73f5e3f2b5d481bcf8ebe9093e6b9ebb137e75aa376e1434fadfb",
      "blockHash": "0xf87b44e4fa60ef63cb1e4b0893ddf1bd9cd0282b5bfc7ca8de7d82aabef8d466",
      "blockNumber": 74278,
      "transactionIndex": 0,
      "confirmations": null,
      "from": "0x2118baa5B9d6423676CF5502Eb6eaeD859228c33",
      "gasPrice": {
        "_hex": "0xe0e3fedae"
      },
      "gasLimit": {
        "_hex": "0x5208"
      },
      "to": "0x32Be343B94f860124dC4fEe278FDCBD38C102D88",
      "value": {
        "_hex": "0x9351361039703000"
      },
      "nonce": 1,
      "data": "0x",
      "r": "0xcc97bc3cdd1aac46c7f60310d66257b9475fd4e95e454d99cedaa119d0d36b6c",
      "s": "0x7c9487ce56bc6b08fcc66c63b6759284aa89464c2d2ebe506a8b22e4e2b9f225",
      "v": 27,
      "creates": null,
      "raw": "0xf86c01850e0e3fedae8252089432be343b94f860124dc4fee278fdcbd38c102d88889351361039703000801ba0cc97bc3cdd1aac46c7f60310d66257b9475fd4e95e454d99cedaa119d0d36b6ca07c9487ce56bc6b08fcc66c63b6759284aa89464c2d2ebe506a8b22e4e2b9f225",
      "networkId": 0,
      "chainId": 0
    },
    {
      "hash": "0x968b7bdb5233dfffcd8fd4ab31767df10a6179703504e6876a3762d76d62c3e1",
      "blockHash": "0xf87b44e4fa60ef63cb1e4b0893ddf1bd9cd0282b5bfc7ca8de7d82aabef8d466",
      "blockNumber": 74278,
      "transactionIndex": 1,
      "confirmations": null,
      "from": "0xE6D67E3661E28eE2DfC1c68D5DeeA3C3bB880059",
      "gasPrice": {
        "_hex": "0xded65cfb2"
      },
      "gasLimit": {
        "_hex": "0x5208"
      },
      "to": "0x32Be343B94f860124dC4fEe278FDCBD38C102D88",
      "value": {
        "_hex": "0x18db9165c6ec3f000"
      },
      "nonce": 1,
      "data": "0x",
      "r": "0x1c289f5143eeb85d556d5f6408aecce247d85ecaf45dd9962234315103477bdd",
      "s": "0x36ad693c07571ec71efe6daf81cd216574f41eadc054b367481aa1898b7ee210",
      "v": 28,
      "creates": null,
      "raw": "0xf86d01850ded65cfb28252089432be343b94f860124dc4fee278fdcbd38c102d8889018db9165c6ec3f000801ca01c289f5143eeb85d556d5f6408aecce247d85ecaf45dd9962234315103477bdda036ad693c07571ec71efe6daf81cd216574f41eadc054b367481aa1898b7ee210",
      "networkId": 0,
      "chainId": 0
    },
    {
      "hash": "0xa697bc6d2f3830ead705dcd69776f1f6ce0ace821f28edc6cb6b5b941404fc4e",
      "blockHash": "0xf87b44e4fa60ef63cb1e4b0893ddf1bd9cd0282b5bfc7ca8de7d82aabef8d466",
      "blockNumber": 74278,
      "transactionIndex": 2,
      "confirmations": null,
      "from": "0xC8E18619E6F0976FC389a37cba21bc6d080284ee",
      "gasPrice": {
        "_hex": "0xded65cfb2"
      },
      "gasLimit": {
        "_hex": "0x5208"
      },
      "to": "0x32Be343B94f860124dC4fEe278FDCBD38C102D88",
      "value": {
        "_hex": "0x88640686224b2800"
      },
      "nonce": 0,
      "data": "0x",
      "r": "0x043f74f6651e95223cf111725d78c88c27380daceeae40a931e89beb33a9ff24",
      "s": "0x53488d9962d2f18e0d36d7298d0782e543a26d0e83d3f9937274643f6b9afba8",
      "v": 27,
      "creates": null,
      "raw": "0xf86c80850ded65cfb28252089432be343b94f860124dc4fee278fdcbd38c102d888888640686224b2800801ba0043f74f6651e95223cf111725d78c88c27380daceeae40a931e89beb33a9ff24a053488d9962d2f18e0d36d7298d0782e543a26d0e83d3f9937274643f6b9afba8",
      "networkId": 0,
      "chainId": 0
    },
    {
      "hash": "0x3865804ee334c70db739a0446d67ec829c30b71c1196d1d5ea094f624df480b3",
      "blockHash": "0xf87b44e4fa60ef63cb1e4b0893ddf1bd9cd0282b5bfc7ca8de7d82aabef8d466",
      "blockNumber": 74278,
      "transactionIndex": 3,
      "confirmations": null,
      "from": "0xb4eb03c9bDD4944DE22085E8e1dB5Ebd36889Bd8",
      "gasPrice": {
        "_hex": "0xded65cfb2"
      },
      "gasLimit": {
        "_hex": "0x5208"
      },
      "to": "0x32Be343B94f860124dC4fEe278FDCBD38C102D88",
      "value": {
        "_hex": "0xb2222a97ef25e000"
      },
      "nonce": 1,
      "data": "0x",
      "r": "0x9393ccaed9f55607f42857f400e0e2b37aaf6287392bae465839192938ac4f4d",
      "s": "0x02b29b8768054299acc221bfbb13ee28eaa4f58685a3a3aa8e27024744764cf4",
      "v": 27,
      "creates": null,
      "raw": "0xf86c01850ded65cfb28252089432be343b94f860124dc4fee278fdcbd38c102d8888b2222a97ef25e000801ba09393ccaed9f55607f42857f400e0e2b37aaf6287392bae465839192938ac4f4da002b29b8768054299acc221bfbb13ee28eaa4f58685a3a3aa8e27024744764cf4",
      "networkId": 0,
      "chainId": 0
    },
    {
      "hash": "0x06769c10485499e1947d63b927fb4bdbdf2f9a9a8f5faffa1fcd755f6645dce0",
      "blockHash": "0xf87b44e4fa60ef63cb1e4b0893ddf1bd9cd0282b5bfc7ca8de7d82aabef8d466",
      "blockNumber": 74278,
      "transactionIndex": 4,
      "confirmations": null,
      "from": "0x842aC76913Df36aFcbdfE5fA4872759ed84210Bf",
      "gasPrice": {
        "_hex": "0xded65cfb2"
      },
      "gasLimit": {
        "_hex": "0x5208"
      },
      "to": "0x32Be343B94f860124dC4fEe278FDCBD38C102D88",
      "value": {
        "_hex": "0xce9bb023909f2800"
      },
      "nonce": 1,
      "data": "0x",
      "r": "0xd26163b36f2fc57b7ba304394a591566bb73670413017fe75e6638344ee37da4",
      "s": "0x1f18526c7ac358850f3c996418c0759cd60ee85b21151101cbd806a96af1eb4a",
      "v": 28,
      "creates": null,
      "raw": "0xf86c01850ded65cfb28252089432be343b94f860124dc4fee278fdcbd38c102d8888ce9bb023909f2800801ca0d26163b36f2fc57b7ba304394a591566bb73670413017fe75e6638344ee37da4a01f18526c7ac358850f3c996418c0759cd60ee85b21151101cbd806a96af1eb4a",
      "networkId": 0,
      "chainId": 0
    },
    {
      "hash": "0x43af2642937f57c4288e676ff9cfbcbd99d23b7fc792c7fb66ce929832de20df",
      "blockHash": "0xf87b44e4fa60ef63cb1e4b0893ddf1bd9cd0282b5bfc7ca8de7d82aabef8d466",
      "blockNumber": 74278,
      "transactionIndex": 5,
      "confirmations": null,
      "from": "0x6589D22b54648e5D67Dc008eBd0c836D3DF39c87",
      "gasPrice": {
        "_hex": "0xded65cfb2"
      },
      "gasLimit": {
        "_hex": "0x5208"
      },
      "to": "0x32Be343B94f860124dC4fEe278FDCBD38C102D88",
      "value": {
        "_hex": "0x76b39362d5380400"
      },
      "nonce": 1,
      "data": "0x",
      "r": "0x518aa51efabdf6e43a8f9be6ef9ce205cfb9d6baedb55894ee335e86e83e8082",
      "s": "0x5ccff685b6e5889a2cf8cca67eecac11b4efc903f2c867e6b698fc353b20b567",
      "v": 27,
      "creates": null,
      "raw": "0xf86c01850ded65cfb28252089432be343b94f860124dc4fee278fdcbd38c102d888876b39362d5380400801ba0518aa51efabdf6e43a8f9be6ef9ce205cfb9d6baedb55894ee335e86e83e8082a05ccff685b6e5889a2cf8cca67eecac11b4efc903f2c867e6b698fc353b20b567",
      "networkId": 0,
      "chainId": 0
    },
    {
      "hash": "0x9b0ec57bf5a76d23566152513752ed012afcdbbfb0b1861a15accfcbf0a00d0d",
      "blockHash": "0xf87b44e4fa60ef63cb1e4b0893ddf1bd9cd0282b5bfc7ca8de7d82aabef8d466",
      "blockNumber": 74278,
      "transactionIndex": 6,
      "confirmations": null,
      "from": "0xe6A7a1d47ff21B6321162AEA7C6CB457D5476Bca",
      "gasPrice": {
        "_hex": "0xd0983bae0"
      },
      "gasLimit": {
        "_hex": "0x55f0"
      },
      "to": "0xd0DF24FD0DfcDc3850D1590dAA1D03ca7706b11B",
      "value": {
        "_hex": "0xa16abf54ba5039280"
      },
      "nonce": 976,
      "data": "0x",
      "r": "0xb3fe493d5d5bedc7650403759225766b7d0ba4e490bdcffa780b033b90e4f1bc",
      "s": "0x57059ccf383584154ccc6ba2125d7cb30076c73307b1ce69639de37fe19222b0",
      "v": 27,
      "creates": null,
      "raw": "0xf86f8203d0850d0983bae08255f094d0df24fd0dfcdc3850d1590daa1d03ca7706b11b890a16abf54ba5039280801ba0b3fe493d5d5bedc7650403759225766b7d0ba4e490bdcffa780b033b90e4f1bca057059ccf383584154ccc6ba2125d7cb30076c73307b1ce69639de37fe19222b0",
      "networkId": 0,
      "chainId": 0
    }
  ]
}