{
  "hash": "0x9654250f64b65f9013bdcef32cd159ef266abf86d28a2768162fb325562916fe",
  "parentHash": "0x2ac9fa73149fc82a86b91940e6be7186a88c0f1a8afa7f70448bb3b0f34a0879",
  "number": 84833,
  "timestamp": 1439555071,
  "nonce": "0xe3557d2731181b1d",
  "difficulty": 2649074481441,
  "gasLimit": {
    "_hex": "0x2fefd8"
  },
  "gasUsed": {
    "_hex": "0x5208"
  },
  "miner": "0xe6A7a1d47ff21B6321162AEA7C6CB457D5476Bca",
  "extraData": "0x476574682f76312e302e312d38326566323666362f6c696e75782f676f312e34",
  "transactions": [
    {
      "hash": "0xdab1e6d95f216e1dce2b8567101a5c33ec71a7905ca1f533d057481570de1635",
      "blockHash": "0x9654250f64b65f9013bdcef32cd159ef266abf86d28a2768162fb325562916fe",
      "blockNumber": 84833,
      "transactionIndex": 0,
      "confirmations": null,
      "from": "0x32Be343B94f860124dC4fEe278FDCBD38C102D88",
      "gasPrice": {
        "_hex": "0xdfc1395f1"
      },
      "gasLimit": {
        "_hex": "0x5208"
      },
      "to": "0x2237202dcd4E21eed6Fb8f10843068cB31495938",
      "value": {
        "_hex": "0x681321d44071f0000"
      },
      "nonce": 707,
      "data": "0x",
      "r": "0x668918502da9a223c79da881f79442422c8288c82212bc2892cb9d2214e48666",
      "s": "0x0d0400fe70e7075980ba0e9bb66105c79a669a22d13da5ab68ac1e48240de878",
      "v": 28,
      "creates": null,
      "raw": "0xf86f8202c3850dfc1395f1825208942237202dcd4e21eed6fb8f10843068cb31495938890681321d44071f0000801ca0668918502da9a223c79da881f79442422c8288c82212bc2892cb9d2214e48666a00d0400fe70e7075980ba0e9bb66105c79a669a22d13da5ab68ac1e48240de878",
      "networkId": 0,
      "chainId": 0
    }
  ]
}