{
  "hash": "0x8f320d10b3bfad299d82f896d77d1bda316ac21b7f914032b6c51199ad5bfaa0",
  "parentHash": "0x5544a454c0627544a1d633558eff64e6b3b1b75b8a40135a657e062a5ffcd63b",
  "number": 49118,
  "timestamp": 1438968340,
  "nonce": "0xf6043e89b92b6ce1",
  "difficulty": 1478555350959,
  "gasLimit": {
    "_hex": "0x26598"
  },
  "gasUsed": {
    "_hex": "0x5208"
  },
  "miner": "0x5B3e850E39e6f2C7dD38707b649e2B3536F14C0b",
  "extraData": "0x476574682f76312e302e312f64617277696e2f676f312e342e32",
  "transactions": [
    {
      "hash": "0x06fd2d9a420c8efeb41cfb14664bd4e798547d0413a1ac062bd757f0e338b0e4",
      "blockHash": "0x8f320d10b3bfad299d82f896d77d1bda316ac21b7f914032b6c51199ad5bfaa0",
      "blockNumber": 49118,
      "transactionIndex": 0,
      "confirmations": null,
      "from": "0x93868ddb2a794d02eBDA2FA4807c76E3609858Dc",
      "gasPrice": {
        "_hex": "0x111eaf1012b"
      },
      "gasLimit": {
        "_hex": "0x5208"
      },
      "to": "0x7c3f4907164F65CcA6ec853aC340ef1e71B1f5C9",
      "value": {
        "_hex": "0xde0b6b3a7640000"
      },
      "nonce": 1,
      "data": "0x",
      "r": "0xfcc40c6365feb9573eafbed73280e386027e2fb3a79c1522ef790e80e9e94b76",
      "s": "0x54e9dfc502b7489e4ea8c2beb0c1dc8cb75556dc1c14bc43f2768c13e757b4b0",
      "v": 27,
      "creates": null,
      "raw": "0xf86d01860111eaf1012b825208947c3f4907164f65cca6ec853ac340ef1e71b1f5c9880de0b6b3a7640000801ba0fcc40c6365feb9573eafbed73280e386027e2fb3a79c1522ef790e80e9e94b76a054e9dfc502b7489e4ea8c2beb0c1dc8cb75556dc1c14bc43f2768c13e757b4b0",
      "networkId": 0,
      "chainId": 0
    }
  ]
}