{
  "hash": "0xefdefbad54c2566d9eb86937acde5739f75cb5215915fac7de0b1a9e67a6f3d9",
  "parentHash": "0x55cbe6e2b5ed11f5523ca326e96001692ed417eadf3700a425cbe2f56285ba92",
  "number": 112393,
  "timestamp": 1440006783,
  "nonce": "0x633546d7d7e229c3",
  "difficulty": 4408878159059,
  "gasLimit": {
    "_hex": "0x2fefd8"
  },
  "gasUsed": {
    "_hex": "0xa410"
  },
  "miner": "0x88D74a59454F6cF3B51ef6b9136AFb6b9D405A88",
  "extraData": "0x",
  "transactions": [
    {
      "hash": "0x9fb0dc2f7e9f9cd9fc02b717de9354980f3b006017fd6d08bb9d337d0f55f6c8",
      "blockHash": "0xefdefbad54c2566d9eb86937acde5739f75cb5215915fac7de0b1a9e67a6f3d9",
      "blockNumber": 112393,
      "transactionIndex": 0,
      "confirmations": null,
      "from": "0xa70a9a7040d542C632D8e0bE7c5513A8a5Bbc752",
      "gasPrice": {
        "_hex": "0xda8ffeba4"
      },
      "gasLimit": {
        "_hex": "0x5208"
      },
      "to": "0x32Be343B94f860124dC4fEe278FDCBD38C102D88",
      "value": {
        "_hex": "0x455f30f29e43c400"
      },
      "nonce": 295,
      "data": "0x",
      "r": "0x2a7a1867c56428a6c84549a4e6a19bdce4fe7fc901f3ea8336b33302cb4d2132",
      "s": "0x4206af890cb6f6895cd90febb54096ebee7799040eb0197ade85864534b21f1c",
      "v": 28,
      "creates": null,
      "raw": "0xf86e820127850da8ffeba48252089432be343b94f860124dc4fee278fdcbd38c102d8888455f30f29e43c400801ca02a7a1867c56428a6c84549a4e6a19bdce4fe7fc901f3ea8336b33302cb4d2132a04206af890cb6f6895cd90febb54096ebee7799040eb0197ade85864534b21f1c",
      "networkId": 0,
      "chainId": 0
    },
    {
      "hash": "0x60abf22cc5e94600e5b20f88823dbc80ceb9f4bc4d750ba6209412167d34135a",
      "blockHash": "0xefdefbad54c2566d9eb86937acde5739f75cb5215915fac7de0b1a9e67a6f3d9",
      "blockNumber": 112393,
      "transactionIndex": 1,
      "confirmations": null,
      "from": "0x2910543Af39abA0Cd09dBb2D50200b3E800A63D2",
      "gasPrice": {
        "_hex": "0xd425de012"
      },
      "gasLimit": {
        "_hex": "0x5208"
      },
      "to": "0x2f86ba8019945f39edE131D38d4d8780884DA553",
      "value": {
        "_hex": "0x14542a84f29ffdf8000"
      },
      "nonce": 1105,
      "data": "0x",
      "r": "0x373d5ed07210cc80298a9175b5ed7afba95afcf0df2f00976e779687f2928cff",
      "s": "0x2be0de82db4984ffafd049f281a44f7e2477549db43c7f2f1e09f93633705c4e",
      "v": 28,
      "creates": null,
      "raw": "0xf870820451850d425de012825208942f86ba8019945f39ede131d38d4d8780884da5538a014542a84f29ffdf8000801ca0373d5ed07210cc80298a9175b5ed7afba95afcf0df2f00976e779687f2928cffa02be0de82db4984ffafd049f281a44f7e2477549db43c7f2f1e09f93633705c4e",
      "networkId": 0,
      "chainId": 0
    }
  ]
}