{
  "hash": "0xd3803be467afd09e3b806c477184d3eb2ac28e0bcb3330ecbc271f1b3059bfdd",
  "parentHash": "0x7e4c2029ed66c1362241b401d4ff6ee5ccaedce18d5928ec500616871f92e245",
  "number": 51602,
  "timestamp": 1439007816,
  "nonce": "0xfa9262dfcab18ece",
  "difficulty": 1553598840730,
  "gasLimit": {
    "_hex": "0xc379e"
  },
  "gasUsed": {
    "_hex": "0x5208"
  },
  "miner": "0x06D138312754bDEB5c1175f47cE00620c480E9C9",
  "extraData": "0x476574682f76312e302e312f6c696e75782f676f312e342e32",
  "transactions": [
    {
      "hash": "0xcad38d6c72186dab2e5928ad9a8b645818c39ddcdf3fa22d6657059d45b69498",
      "blockHash": "0xd3803be467afd09e3b806c477184d3eb2ac28e0bcb3330ecbc271f1b3059bfdd",
      "blockNumber": 51602,
      "transactionIndex": 0,
      "confirmations": null,
      "from": "0x040F866D0793aEbf4DaCDA92B2F2128e8599B5CF",
      "gasPrice": {
        "_hex": "0xd7d40ace3"
      },
      "gasLimit": {
        "_hex": "0x7a120"
      },
      "to": "0xCbbdAd70d0ff27254925AD37B5C135EEe1116615",
      "value": {
        "_hex": "0x343770c3cfe28000"
      },
      "nonce": 0,
      "data": "0x",
      "r": "0x273410ed8fc8b2df6bc2662bb5d8f0c82c460e9b466e37fbd4a0e5a2349a806d",
      "s": "0x72da942dfbab12088f8856af7fe8ec69c13ffbed3ea774836f41ddde138f5c38",
      "v": 28,
      "creates": null,
      "raw": "0xf86d80850d7d40ace38307a12094cbbdad70d0ff27254925ad37b5c135eee111661588343770c3cfe28000801ca0273410ed8fc8b2df6bc2662bb5d8f0c82c460e9b466e37fbd4a0e5a2349a806da072da942dfbab12088f8856af7fe8ec69c13ffbed3ea774836f41ddde138f5c38",
      "networkId": 0,
      "chainId": 0
    }
  ]
}