{
  "hash": "0x22b915c5b015303f3b28f55a33a74e9ff19d55ba9e999200197250ae76848b5e",
  "parentHash": "0x5e410a2d7172decca4888e0d5dd5ce773c7ed56451e4b6628c7e0d82daf5d2eb",
  "number": 80197,
  "timestamp": 1439481649,
  "nonce": "0xce835b5513de9326",
  "difficulty": 2373608592030,
  "gasLimit": {
    "_hex": "0x2fefd8"
  },
  "gasUsed": {
    "_hex": "0x17a15"
  },
  "miner": "0xe6A7a1d47ff21B6321162AEA7C6CB457D5476Bca",
  "extraData": "0x476574682f76312e302e312d38326566323666362f6c696e75782f676f312e34",
  "transactions": [
    {
      "hash": "0xfa4cb4bb0aa6104ad3d8783ab3547fb166b75b2bb62c2e6c5e7c1fe9344c3b7f",
      "blockHash": "0x22b915c5b015303f3b28f55a33a74e9ff19d55ba9e999200197250ae76848b5e",
      "blockNumber": 80197,
      "transactionIndex": 0,
      "confirmations": null,
      "from": "0x87C5B5874A18B4306DF8a752a6C8cc3E82daFc19",
      "gasPrice": {
        "_hex": "0x10b012a1b05"
      },
      "gasLimit": {
        "_hex": "0x493e0"
      },
      "to": "0xC4c51de1AbF5D60DBd329eC0F999Fd8f021ae9fC",
      "value": {
        "_hex": "0x3c631853ab64b922"
      },
      "nonce": 138,
      "data": "0x8d216186000000000000000000000000000000000000000000000000000000000000001ad3d96ceed0cfca4794c2a5a3d3aeefe69da0a2a669e66a5651f30b64831c3db0",
      "r": "0xf328747a7097abba9630690bae4938e020ad736bdd22721f21ad61eb93114dd9",
      "s": "0x48b4fafcf3738bffecf647a2b0d6c1094aaffcbd399c00187ae1f002d571ce00",
      "v": 28,
      "creates": null,
      "raw": "0xf8b4818a86010b012a1b05830493e094c4c51de1abf5d60dbd329ec0f999fd8f021ae9fc883c631853ab64b922b8448d216186000000000000000000000000000000000000000000000000000000000000001ad3d96ceed0cfca4794c2a5a3d3aeefe69da0a2a669e66a5651f30b64831c3db01ca0f328747a7097abba9630690bae4938e020ad736bdd22721f21ad61eb93114dd9a048b4fafcf3738bffecf647a2b0d6c1094aaffcbd399c00187ae1f002d571ce00",
      "networkId": 0,
      "chainId": 0
    }
  ]
}