{
  "hash": "0x4c836271f0d58f80e332fc2360ba1a0e3843b7e8f230b86c58c2afb955f4c21b",
  "parentHash": "0x98682705ce1e851a6365b9145df8ae2bd111604423bd5098ebd36114e37870fb",
  "number": 103709,
  "timestamp": 1439857793,
  "nonce": "0x46a47b9bee219f4e",
  "difficulty": 4207227664104,
  "gasLimit": {
    "_hex": "0x2fefd8"
  },
  "gasUsed": {
    "_hex": "0x5208"
  },
  "miner": "0xbb7B8287f3F0a933474a79eAe42CBCa977791171",
  "extraData": "0x476574682f4c5649562f76312e302e312f6c696e75782f676f312e342e32",
  "transactions": [
    {
      "hash": "0x6b68a7ff7ee40c5ef750b963d9914ba4fbe630f751720edc83f89c27390f9653",
      "blockHash": "0x4c836271f0d58f80e332fc2360ba1a0e3843b7e8f230b86c58c2afb955f4c21b",
      "blockNumber": 103709,
      "transactionIndex": 0,
      "confirmations": null,
      "from": "0x007f7f58D3eb5b7510A301eCC749FC1fCDDBE14D",
      "gasPrice": {
        "_hex": "0xe0cfe7246"
      },
      "gasLimit": {
        "_hex": "0x15f90"
      },
      "to": "0xb1abce2918E21ddb93AA452731a12672A3d9F75a",
      "value": {
        "_hex": "0x4563918244f40000"
      },
      "nonce": 231,
      "data": "0x",
      "r": "0x20d50a9494270ce566764f7e9d7c95e1a02a09edfe20e267efe3efa4254eaa8d",
      "s": "0x7762a3378e7ee67fb2b8e2f8f647a06a7fe52bb0b698968e8372c753d4fc1b7d",
      "v": 28,
      "creates": null,
      "raw": "0xf86e81e7850e0cfe724683015f9094b1abce2918e21ddb93aa452731a12672a3d9f75a884563918244f40000801ca020d50a9494270ce566764f7e9d7c95e1a02a09edfe20e267efe3efa4254eaa8da07762a3378e7ee67fb2b8e2f8f647a06a7fe52bb0b698968e8372c753d4fc1b7d",
      "networkId": 0,
      "chainId": 0
    }
  ]
}