{
  "hash": "0x20882468c848b8a29c63b580fda521e9b452d461570221cf9bcdb368c8140e2b",
  "parentHash": "0xd8290a6a651c59cf94b34100baa1f40349fe9a1d1badf6d4791490cd91fd211b",
  "number": 93408,
  "timestamp": 1439689810,
  "nonce": "0x2a450bdf337869fe",
  "difficulty": 3504156544096,
  "gasLimit": {
    "_hex": "0x2fefd8"
  },
  "gasUsed": {
    "_hex": "0x5208"
  },
  "miner": "0x007f7f58D3eb5b7510A301eCC749FC1fCDDBE14D",
  "extraData": "0x476574682f76312e302e312f77696e646f77732f676f312e342e32",
  "transactions": [
    {
      "hash": "0xc17607bb4ce4acfe1b368ca959a7fce372d95df7099cdf1044ea5484e76d1197",
      "blockHash": "0x20882468c848b8a29c63b580fda521e9b452d461570221cf9bcdb368c8140e2b",
      "blockNumber": 93408,
      "transactionIndex": 0,
      "confirmations": null,
      "from": "0x00E681Bc2D10DB62De85848324492250348E90Bf",
      "gasPrice": {
        "_hex": "0xd8364fc25"
      },
      "gasLimit": {
        "_hex": "0x15f90"
      },
      "to": "0x5562e886dF729822Ef77862A12f4631658cEa98e",
      "value": {
        "_hex": "0x6c6b935b8bbd400000"
      },
      "nonce": 2,
      "data": "0x",
      "r": "0x7aca3d7bf3410a372a59875ea9e254ff848a1c37916634829fd0cc78829f0195",
      "s": "0x1f19e7b15887c4a1c23c5eccf67991920f8a0ba89743bc7a98bc049fea7402d4",
      "v": 27,
      "creates": null,
      "raw": "0xf86e02850d8364fc2583015f90945562e886df729822ef77862a12f4631658cea98e896c6b935b8bbd400000801ba07aca3d7bf3410a372a59875ea9e254ff848a1c37916634829fd0cc78829f0195a01f19e7b15887c4a1c23c5eccf67991920f8a0ba89743bc7a98bc049fea7402d4",
      "networkId": 0,
      "chainId": 0
    }
  ]
}