{
  "hash": "0xc8bc34dbe3cf43ca36383ad0e5f025bb0abe441ed67b491759f5fad591e434c1",
  "parentHash": "0x7891e3dbef4f358c4bdfdc06869dabd26f2911943b66286d4f326ef59328fcb0",
  "number": 55302,
  "timestamp": 1439068391,
  "nonce": "0x6addc23b1890f1db",
  "difficulty": 1640203799785,
  "gasLimit": {
    "_hex": "0x2fefd5"
  },
  "gasUsed": {
    "_hex": "0x546c"
  },
  "miner": "0xeB1325C8D9d3ea8D74aC11F4B00F1B2367686319",
  "extraData": "0x476574682f76312e302e312f77696e646f77732f676f312e342e32",
  "transactions": [
    {
      "hash": "0x5d6d976b6bf7b1b71a781048158639c38b08ee9b5505f758f442fabffd380238",
      "blockHash": "0xc8bc34dbe3cf43ca36383ad0e5f025bb0abe441ed67b491759f5fad591e434c1",
      "blockNumber": 55302,
      "transactionIndex": 0,
      "confirmations": null,
      "from": "0x9d4174aa6af28476E229DaDB46180808c67505C1",
      "gasPrice": {
        "_hex": "0xd209d30b3"
      },
      "gasLimit": {
        "_hex": "0x15f90"
      },
      "to": "0x2910543Af39abA0Cd09dBb2D50200b3E800A63D2",
      "value": {
        "_hex": "0xde0b6b3a7640000"
      },
      "nonce": 0,
      "data": "0x454e33393641313730",
      "r": "0x0e0e4b95db36301860db9a8ecdc391b9fcbb2b2874e045c068641b53daaae4ff",
      "s": "0x048c5221336b70d6ed4dfc5a3a3adb78c336f1632af36b1219f6792d6fb3fcb3",
      "v": 27,
      "creates": null,
      "raw": "0xf87680850d209d30b383015f90942910543af39aba0cd09dbb2d50200b3e800a63d2880de0b6b3a764000089454e333936413137301ba00e0e4b95db36301860db9a8ecdc391b9fcbb2b2874e045c068641b53daaae4ffa0048c5221336b70d6ed4dfc5a3a3adb78c336f1632af36b1219f6792d6fb3fcb3",
      "networkId": 0,
      "chainId": 0
    }
  ]
}