{
  "hash": "0xd9117886ac9790c97c5baf2aa57aaf2d207a534bdef2981f1d0fc6b0287f89fa",
  "parentHash": "0xfdf3b4c25994e893500df7b7ff4a7486f94104a10e5df4a5fb249b52dfee6265",
  "number": 121289,
  "timestamp": 1440174644,
  "nonce": "0x13248c2259a1a601",
  "difficulty": 4412815453522,
  "gasLimit": {
    "_hex": "0x2fefd8"
  },
  "gasUsed": {
    "_hex": "0x5208"
  },
  "miner": "0xe6A7a1d47ff21B6321162AEA7C6CB457D5476Bca",
  "extraData": "0xd783010002844765746887676f312e342e32856c696e7578",
  "transactions": [
    {
      "hash": "0x975556a559fff243ed2ff965651723b1ef176e46c454e74f4e4c7cd4b0f1e7fb",
      "blockHash": "0xd9117886ac9790c97c5baf2aa57aaf2d207a534bdef2981f1d0fc6b0287f89fa",
      "blockNumber": 121289,
      "transactionIndex": 0,
      "confirmations": null,
      "from": "0x8d304933a1F93F268bFDcFF9FFE6846a75167279",
      "gasPrice": {
        "_hex": "0xba43b7400"
      },
      "gasLimit": {
        "_hex": "0x5208"
      },
      "to": "0x32Be343B94f860124dC4fEe278FDCBD38C102D88",
      "value": {
        "_hex": "0x39c632538e33400"
      },
      "nonce": 8,
      "data": "0x",
      "r": "0x31b841735b9796cd289dafb267a60140eb512d7ef70065a4dc3b313b4b8c50f3",
      "s": "0x1f386dffe6faed3b2b6e8617e53f0a1e1b364115a10bf6a298415e6aa1bccaff",
      "v": 28,
      "creates": null,
      "raw": "0xf86c08850ba43b74008252089432be343b94f860124dc4fee278fdcbd38c102d8888039c632538e33400801ca031b841735b9796cd289dafb267a60140eb512d7ef70065a4dc3b313b4b8c50f3a01f386dffe6faed3b2b6e8617e53f0a1e1b364115a10bf6a298415e6aa1bccaff",
      "networkId": 0,
      "chainId": 0
    }
  ]
}