{
  "hash": "0x9bc512dbb6cbc7483578d6b2174661c1e6f6d369278f956812e89cac0bd85db5",
  "parentHash": "0xd21ea181f41dd155b67432eb6371b769732f18da92b7e9fa809d9f5cafdbd677",
  "number": 114757,
  "timestamp": 1440045831,
  "nonce": "0xd6ab067512006e39",
  "difficulty": 4459591685616,
  "gasLimit": {
    "_hex": "0x2fefd8"
  },
  "gasUsed": {
    "_hex": "0x5208"
  },
  "miner": "0x9D49F602b0fdb924Bd63DDE2Bd0907E4A07c63a7",
  "extraData": "0x476574682f76312e302e312f6c696e75782f676f312e342e32",
  "transactions": [
    {
      "hash": "0xbed31c97aa0ff75302a04e43713d4422a20e255fc15ca1ebf65a5bf3d2fe1864",
      "blockHash": "0x9bc512dbb6cbc7483578d6b2174661c1e6f6d369278f956812e89cac0bd85db5",
      "blockNumber": 114757,
      "transactionIndex": 0,
      "confirmations": null,
      "from": "0xa8E7201ff619fAFFc332E6aD37Ed41e301bf014a",
      "gasPrice": {
        "_hex": "0xcf308adf8"
      },
      "gasLimit": {
        "_hex": "0x15f90"
      },
      "to": "0x00C865a16eD3c930DD70B642507639D199C62180",
      "value": {
        "_hex": "0x1158e460913d00000"
      },
      "nonce": 9,
      "data": "0x",
      "r": "0x993471b3b5d286ae53274d2c10ea216fe49993336cba747140ba1f036d972636",
      "s": "0x2cbe66d0f4f31696c676b1678bb9c879334ceea9043db6ddc26d1997d945abd7",
      "v": 27,
      "creates": null,
      "raw": "0xf86e09850cf308adf883015f909400c865a16ed3c930dd70b642507639d199c621808901158e460913d00000801ba0993471b3b5d286ae53274d2c10ea216fe49993336cba747140ba1f036d972636a02cbe66d0f4f31696c676b1678bb9c879334ceea9043db6ddc26d1997d945abd7",
      "networkId": 0,
      "chainId": 0
    }
  ]
}