{
  "hash": "0x3c113f5633f84b502b6245edb3fbc9633173cf327a5e0f95fc5dacf1c2795a00",
  "parentHash": "0x385bd19ba45c366e3dfab9a871b132ccaddb22a2c305d3aaf837a112bcadfaf9",
  "number": 101930,
  "timestamp": 1439830097,
  "nonce": "0x5df81559234a6029",
  "difficulty": 3920484351341,
  "gasLimit": {
    "_hex": "0x2fefd8"
  },
  "gasUsed": {
    "_hex": "0xa410"
  },
  "miner": "0xC978e305Aaa59952FAb39Ba288d6E9CB09B952E1",
  "extraData": "0x476574682f76312e302e312f77696e646f77732f676f312e342e32",
  "transactions": [
    {
      "hash": "0x73599a37b2c512c0e682d18ca228ff72fe2c486a08f3d4719158dd282c26ecc6",
      "blockHash": "0x3c113f5633f84b502b6245edb3fbc9633173cf327a5e0f95fc5dacf1c2795a00",
      "blockNumber": 101930,
      "transactionIndex": 0,
      "confirmations": null,
      "from": "0x37C543aA8401165F7212ee311C488FcA6A5721D1",
      "gasPrice": {
        "_hex": "0xdc6975700"
      },
      "gasLimit": {
        "_hex": "0x5208"
      },
      "to": "0x32Be343B94f860124dC4fEe278FDCBD38C102D88",
      "value": {
        "_hex": "0xb0820f929bb9f800"
      },
      "nonce": 0,
      "data": "0x",
      "r": "0xcd11c6d4e14d0aecbb9413c15eac2c063765946d0983f33411246c1577938c16",
      "s": "0x2b3e740883ec69d5df93966b5fa2e0411e5a6d6f7982a812a23a07b65570304a",
      "v": 27,
      "creates": null,
      "raw": "0xf86c80850dc69757008252089432be343b94f860124dc4fee278fdcbd38c102d8888b0820f929bb9f800801ba0cd11c6d4e14d0aecbb9413c15eac2c063765946d0983f33411246c1577938c16a02b3e740883ec69d5df93966b5fa2e0411e5a6d6f7982a812a23a07b65570304a",
      "networkId": 0,
      "chainId": 0
    },
    {
      "hash": "0x6bcf99371a638ca12a9394ab6edf122ba15359d78fb2d4542c6aa43aec45d71c",
      "blockHash": "0x3c113f5633f84b502b6245edb3fbc9633173cf327a5e0f95fc5dacf1c2795a00",
      "blockNumber": 101930,
      "transactionIndex": 1,
      "confirmations": null,
      "from": "0xa645B1DF84b4B5d3B420137e2023127E71bb8DC2",
      "gasPrice": {
        "_hex": "0xda6d10bb3"
      },
      "gasLimit": {
        "_hex": "0x5208"
      },
      "to": "0x32Be343B94f860124dC4fEe278FDCBD38C102D88",
      "value": {
        "_hex": "0x11ff56cda77eb30000"
      },
      "nonce": 0,
      "data": "0x",
      "r": "0xaf0e2f105a01439ef5633c5172aa743d20bf388865336d07393bf7b2cd437593",
      "s": "0x3c6d9ef73a51e5a5b82537f2fc889cd800462d2c799e3555e8e80a7764c0d0de",
      "v": 27,
      "creates": null,
      "raw": "0xf86d80850da6d10bb38252089432be343b94f860124dc4fee278fdcbd38c102d888911ff56cda77eb30000801ba0af0e2f105a01439ef5633c5172aa743d20bf388865336d07393bf7b2cd437593a03c6d9ef73a51e5a5b82537f2fc889cd800462d2c799e3555e8e80a7764c0d0de",
      "networkId": 0,
      "chainId": 0
    }
  ]
}