{
  "hash": "0xbcb64ce4a0371f55cc146183d7bd38a82d8b4332fbe782736078fac38abc09db",
  "parentHash": "0x3141ec60f32334d409cba5ceb2ece28db43349faaab6dff770fcbc072593b50f",
  "number": 120879,
  "timestamp": 1440167392,
  "nonce": "0x448da0afa1840d26",
  "difficulty": 4451988496873,
  "gasLimit": {
    "_hex": "0x2fefd8"
  },
  "gasUsed": {
    "_hex": "0x5208"
  },
  "miner": "0xe6A7a1d47ff21B6321162AEA7C6CB457D5476Bca",
  "extraData": "0xd783010002844765746887676f312e342e32856c696e7578",
  "transactions": [
    {
      "hash": "0xac09ad9a3aa8e3e0d367cc27c99ffcd4181a80db13a71c554422927292fe9174",
      "blockHash": "0xbcb64ce4a0371f55cc146183d7bd38a82d8b4332fbe782736078fac38abc09db",
      "blockNumber": 120879,
      "transactionIndex": 0,
      "confirmations": null,
      "from": "0x608f4b86321a68453f9adf6F06F7Fc3E621739ad",
      "gasPrice": {
        "_hex": "0xba43b7400"
      },
      "gasLimit": {
        "_hex": "0x5208"
      },
      "to": "0x32Be343B94f860124dC4fEe278FDCBD38C102D88",
      "value": {
        "_hex": "0xd026f98ea1d86000"
      },
      "nonce": 84,
      "data": "0x",
      "r": "0x62ff045da7cffd3d12051d3cde0f72b97b79dd0d743d0b7517af68a4b7d8b6ec",
      "s": "0x6b093b8e0855e2f9ed2294d08e4ae91ee11ee18bb00e9ed698faffe00f0015a9",
      "v": 27,
      "creates": null,
      "raw": "0xf86c54850ba43b74008252089432be343b94f860124dc4fee278fdcbd38c102d8888d026f98ea1d86000801ba062ff045da7cffd3d12051d3cde0f72b97b79dd0d743d0b7517af68a4b7d8b6eca06b093b8e0855e2f9ed2294d08e4ae91ee11ee18bb00e9ed698faffe00f0015a9",
      "networkId": 0,
      "chainId": 0
    }
  ]
}