{
  "hash": "0x55af59004fa144710a31d24d4e1979ef30c0a2bcf60e719a75550c20214b6135",
  "parentHash": "0xca27f051a49a4d24064753c5af176286a5f6d52d8f2ad3c048eb0409549de2d2",
  "number": 88725,
  "timestamp": 1439612424,
  "nonce": "0xc481260288dcef8f",
  "difficulty": 3241041787911,
  "gasLimit": {
    "_hex": "0x2fefd8"
  },
  "gasUsed": {
    "_hex": "0xa410"
  },
  "miner": "0x9D49F602b0fdb924Bd63DDE2Bd0907E4A07c63a7",
  "extraData": "0x476574682f76312e302e312f6c696e75782f676f312e342e32",
  "transactions": [
    {
      "hash": "0x0d633bba7ab6c1ece7d49e671baa327b3d661ac2a999932b9765c6ba50726eb2",
      "blockHash": "0x55af59004fa144710a31d24d4e1979ef30c0a2bcf60e719a75550c20214b6135",
      "blockNumber": 88725,
      "transactionIndex": 0,
      "confirmations": null,
      "from": "0xE12517204a15E890f12755207271102F4800A0c4",
      "gasPrice": {
        "_hex": "0xdd3639d36"
      },
      "gasLimit": {
        "_hex": "0x5208"
      },
      "to": "0x32Be343B94f860124dC4fEe278FDCBD38C102D88",
      "value": {
        "_hex": "0x1a050fae9cdaf1000"
      },
      "nonce": 11,
      "data": "0x",
      "r": "0x70481892d1bc44723350a9d30e78d1b8d5646675cfba1f3a4809b83c46dea866",
      "s": "0x09982ef9b38b9520580da9782ebea5d8f24cb32ea2375da16d9c8f862d9ad521",
      "v": 27,
      "creates": null,
      "raw": "0xf86d0b850dd3639d368252089432be343b94f860124dc4fee278fdcbd38c102d888901a050fae9cdaf1000801ba070481892d1bc44723350a9d30e78d1b8d5646675cfba1f3a4809b83c46dea866a009982ef9b38b9520580da9782ebea5d8f24cb32ea2375da16d9c8f862d9ad521",
      "networkId": 0,
      "chainId": 0
    },
    {
      "hash": "0xa7284336ff3507076ae7bf649ebcc21773e477024e93ad02479742400bd5ccd9",
      "blockHash": "0x55af59004fa144710a31d24d4e1979ef30c0a2bcf60e719a75550c20214b6135",
      "blockNumber": 88725,
      "transactionIndex": 1,
      "confirmations": null,
      "from": "0x95B8Be50517B180F2F101f1cFe0E4C66Ad6fa7dd",
      "gasPrice": {
        "_hex": "0xda2289d47"
      },
      "gasLimit": {
        "_hex": "0x7530"
      },
      "to": "0xbCab99c9250A69cCD7395f2543ed52FF1e220398",
      "value": {
        "_hex": "0xde0b6b3a7640000"
      },
      "nonce": 0,
      "data": "0x",
      "r": "0xfb041206d74b9ee08650c77503a2794137ad7574f52ab685b5ff34c65c263116",
      "s": "0x32d51e0e46649b0f976fc4a485522e37d70ba51f4b75296b27badd4b24202522",
      "v": 28,
      "creates": null,
      "raw": "0xf86c80850da2289d4782753094bcab99c9250a69ccd7395f2543ed52ff1e220398880de0b6b3a7640000801ca0fb041206d74b9ee08650c77503a2794137ad7574f52ab685b5ff34c65c263116a032d51e0e46649b0f976fc4a485522e37d70ba51f4b75296b27badd4b24202522",
      "networkId": 0,
      "chainId": 0
    }
  ]
}