{
  "hash": "0x4e79be95d42f5fe5f263af6cd45751614115127327950454f6fde4210f81bc7a",
  "parentHash": "0xe97fb646e29b2f532d4e71e1d56f619f5cd8d01ad940a47f82080659c4aee6af",
  "number": 48074,
  "timestamp": 1438950871,
  "nonce": "0xc605268763a5cd67",
  "difficulty": 1461511538413,
  "gasLimit": {
    "_hex": "0x124c6"
  },
  "gasUsed": {
    "_hex": "0x546c"
  },
  "miner": "0xab84940B570d6358ed6A9Dbf7e0bc8Ec8F5A6E89",
  "extraData": "0x322831652933",
  "transactions": [
    {
      "hash": "0x70116b5d08ee5abcabd0cce1aef1b2339c5e575dc51e97af7218f0d032dca65e",
      "blockHash": "0x4e79be95d42f5fe5f263af6cd45751614115127327950454f6fde4210f81bc7a",
      "blockNumber": 48074,
      "transactionIndex": 0,
      "confirmations": null,
      "from": "0x20c6Efe179C293690A5B3375F5bd81c2f07Ed037",
      "gasPrice": {
        "_hex": "0xd39c81bce"
      },
      "gasLimit": {
        "_hex": "0x55f0"
      },
      "to": "0x2910543Af39abA0Cd09dBb2D50200b3E800A63D2",
      "value": {
        "_hex": "0xde0b6b3a7640000"
      },
      "nonce": 0,
      "data": "0x454e45554350585a30",
      "r": "0x7324777d10e232d11c805d97463601204c3a8a137a8325fea051db96ff526c3c",
      "s": "0x46782b92e477945563211bc3a86996a0fda62c39dc2de8b0d927648fc519bbd0",
      "v": 27,
      "creates": null,
      "raw": "0xf87580850d39c81bce8255f0942910543af39aba0cd09dbb2d50200b3e800a63d2880de0b6b3a764000089454e45554350585a301ba07324777d10e232d11c805d97463601204c3a8a137a8325fea051db96ff526c3ca046782b92e477945563211bc3a86996a0fda62c39dc2de8b0d927648fc519bbd0",
      "networkId": 0,
      "chainId": 0
    }
  ]
}