{
  "hash": "0xffb9ee2ec4e601779e3e0de7d4eb375cd8285b33241786ed6e22301199c92049",
  "parentHash": "0x4b3343b7eef6e91cc4b1b6b231f174fafdad96e88f680d1258264a6806c388d8",
  "number": 110784,
  "timestamp": 1439979443,
  "nonce": "0x048eeff10a02f547",
  "difficulty": 4386102348475,
  "gasLimit": {
    "_hex": "0x2fefd8"
  },
  "gasUsed": {
    "_hex": "0x5208"
  },
  "miner": "0xe6A7a1d47ff21B6321162AEA7C6CB457D5476Bca",
  "extraData": "0x476574682f76312e302e312d38326566323666362f6c696e75782f676f312e34",
  "transactions": [
    {
      "hash": "0xee65da41b5443219c3170aa3be34a1d81a49e98aa21ba885da6247de2d0f33dc",
      "blockHash": "0xffb9ee2ec4e601779e3e0de7d4eb375cd8285b33241786ed6e22301199c92049",
      "blockNumber": 110784,
      "transactionIndex": 0,
      "confirmations": null,
      "from": "0x976349705b839e2F5719387Fb27D2519d519da03",
      "gasPrice": {
        "_hex": "0xd3d759039"
      },
      "gasLimit": {
        "_hex": "0x15f90"
      },
      "to": "0x1454Fe62A285aEBa20F1c08fD413f6A95e5199eD",
      "value": {
        "_hex": "0x16345785d8a0000"
      },
      "nonce": 32,
      "data": "0x",
      "r": "0xa9d1c16e9643fb82c07c87f2402157735d2898f95d05dfeff1792560d071268f",
      "s": "0x43ce0c5fcd1b2a991f16d6e9f45ef2f5a4b7d736e966afeecc8a6208e34b2d0e",
      "v": 27,
      "creates": null,
      "raw": "0xf86d20850d3d75903983015f90941454fe62a285aeba20f1c08fd413f6a95e5199ed88016345785d8a0000801ba0a9d1c16e9643fb82c07c87f2402157735d2898f95d05dfeff1792560d071268fa043ce0c5fcd1b2a991f16d6e9f45ef2f5a4b7d736e966afeecc8a6208e34b2d0e",
      "networkId": 0,
      "chainId": 0
    }
  ]
}