{
  "hash": "0x02a98055608aa208495a3bf3fd2137d3609d306b6f79fd1dd509508004ab676e",
  "parentHash": "0xf1957ecaae859063a4b6a963ff610e1bf7a86458e493d6a24256e50a5db9029e",
  "number": 64911,
  "timestamp": 1439228300,
  "nonce": "0x99ad998a4420a676",
  "difficulty": 1908861638105,
  "gasLimit": {
    "_hex": "0x2fefd8"
  },
  "gasUsed": {
    "_hex": "0x11074"
  },
  "miner": "0x77ae86B52e88E569BBc84Dd0F70d5b8905F589c9",
  "extraData": "0x57687920646f2049203c33206d696e696e673f",
  "transactions": [
    {
      "hash": "0x80fc20f34919f8cc549d75a15fbc81a762a2b86a6ff3fe6216e5205b379f684d",
      "blockHash": "0x02a98055608aa208495a3bf3fd2137d3609d306b6f79fd1dd509508004ab676e",
      "blockNumber": 64911,
      "transactionIndex": 0,
      "confirmations": null,
      "from": "0x3Ad06149b21C55Ff867cc3fb9740D2BCc7101231",
      "gasPrice": {
        "_hex": "0xd929236dd"
      },
      "gasLimit": {
        "_hex": "0x15f90"
      },
      "to": "0xC624b0Cd3307f6CFFC473f5019FA380E6811ee58",
      "value": {
        "_hex": "0xd645e6320408000"
      },
      "nonce": 21,
      "data": "0x",
      "r": "0x76308f7126a84b7600863e504d79aeb85426cea277b6a560ce80b545e46c31b5",
      "s": "0x2b94291b1b885657df5e2baad3f92d9fa9fa515280dbfec225cce5aaa6c03c79",
      "v": 28,
      "creates": null,
      "raw": "0xf86d15850d929236dd83015f9094c624b0cd3307f6cffc473f5019fa380e6811ee58880d645e6320408000801ca076308f7126a84b7600863e504d79aeb85426cea277b6a560ce80b545e46c31b5a02b94291b1b885657df5e2baad3f92d9fa9fa515280dbfec225cce5aaa6c03c79",
      "networkId": 0,
      "chainId": 0
    },
    {
      "hash": "0x5922b3a2f4ca8cf49bdc1a069218f845fd07bdc7516dbe3efce7bc73121fcf35",
      "blockHash": "0x02a98055608aa208495a3bf3fd2137d3609d306b6f79fd1dd509508004ab676e",
      "blockNumber": 64911,
      "transactionIndex": 1,
      "confirmations": null,
      "from": "0x70cc0dB519BcA4E67aEE568550c9f427546fBDF6",
      "gasPrice": {
        "_hex": "0xba43b7400"
      },
      "gasLimit": {
        "_hex": "0x15f90"
      },
      "to": "0x793AE8C1b1a160BFc07BFB0d04F85eab1A71F4f2",
      "value": {
        "_hex": "0x0"
      },
      "nonce": 0,
      "data": "0x3ba15036",
      "r": "0x92a87fad02bc89d5d8698368aa417263264eb24b17691d849160fcc966d6857b",
      "s": "0x2e195dff281aff7c670e252aff05f9aeec0cea2e15d029891e55379c4028ee57",
      "v": 27,
      "creates": null,
      "raw": "0xf86980850ba43b740083015f9094793ae8c1b1a160bfc07bfb0d04f85eab1a71f4f280843ba150361ba092a87fad02bc89d5d8698368aa417263264eb24b17691d849160fcc966d6857ba02e195dff281aff7c670e252aff05f9aeec0cea2e15d029891e55379c4028ee57",
      "networkId": 0,
      "chainId": 0
    }
  ]
}