{
  "hash": "0xad3ebb3f1320bc66e309d2ac4ff00829847c9ca6180527a96393f0034b403430",
  "parentHash": "0x9a0e73024f557e1dedf2baab8a93db1bbbc0d4ba1a603efd69fb9d28bd664103",
  "number": 121860,
  "timestamp": 1440183825,
  "nonce": "0xbc0e6dc04349938d",
  "difficulty": 4492957854365,
  "gasLimit": {
    "_hex": "0x2fefd8"
  },
  "gasUsed": {
    "_hex": "0x18326"
  },
  "miner": "0x365E6b1145B179761f29a21aa93A6d4E015Ab597",
  "extraData": "0x",
  "transactions": [
    {
      "hash": "0xaf787b0dd30868c271b4e6da1bb83f82cf6bcc0f9985f5598ced27aa39b9d6b4",
      "blockHash": "0xad3ebb3f1320bc66e309d2ac4ff00829847c9ca6180527a96393f0034b403430",
      "blockNumber": 121860,
      "transactionIndex": 0,
      "confirmations": null,
      "from": "0x4245271A2F40593fb9F66A98202b3Dc1a8593cD2",
      "gasPrice": {
        "_hex": "0xba43b7400"
      },
      "gasLimit": {
        "_hex": "0x249f0"
      },
      "to": "0xE28e72FCf78647ADCe1F1252F240bbfaebD63BcC",
      "value": {
        "_hex": "0x8ac7230489e80000"
      },
      "nonce": 6,
      "data": "0x45466f3a",
      "r": "0xa35222bdeebb4ca2ebacb2ad85058d2f5dbc954d4f00474199e893092560cd53",
      "s": "0x17f8ebab90d43bc43220d19ca34c39049e8c933d6c5177a50f3f0d9c922fde0a",
      "v": 27,
      "creates": null,
      "raw": "0xf87106850ba43b7400830249f094e28e72fcf78647adce1f1252f240bbfaebd63bcc888ac7230489e800008445466f3a1ba0a35222bdeebb4ca2ebacb2ad85058d2f5dbc954d4f00474199e893092560cd53a017f8ebab90d43bc43220d19ca34c39049e8c933d6c5177a50f3f0d9c922fde0a",
      "networkId": 0,
      "chainId": 0
    }
  ]
}