{
  "hash": "0xd6a85427c6d43040220a3220b204612ffde33115e4424031693ab9eb3220e2c5",
  "parentHash": "0xdb3c10d4b617ffa7fa5c2d04f900694a9250e241a295890627160bccaf48c36a",
  "number": 53021,
  "timestamp": 1439031117,
  "nonce": "0x276ed2195cf4df15",
  "difficulty": 1575488009746,
  "gasLimit": {
    "_hex": "0x1df293"
  },
  "gasUsed": {
    "_hex": "0x5208"
  },
  "miner": "0x3FF679B0823a026F2378E5f5F22A6F127cC85828",
  "extraData": "0x476574682f76312e302e302f6c696e75782f676f312e342e32",
  "transactions": [
    {
      "hash": "0xcc74d9bef95d2258479fa33a1c2a2eac7c3d3954cdfcf9fe3ee70ac667d9d4ad",
      "blockHash": "0xd6a85427c6d43040220a3220b204612ffde33115e4424031693ab9eb3220e2c5",
      "blockNumber": 53021,
      "transactionIndex": 0,
      "confirmations": null,
      "from": "0x47C247F53b9FBeb17Bba0703A00c009fdb0f6EaE",
      "gasPrice": {
        "_hex": "0xd7e3f232d"
      },
      "gasLimit": {
        "_hex": "0x5208"
      },
      "to": "0x900C0aFc99968F30e64a7DEe5828042b6422a098",
      "value": {
        "_hex": "0x2a5a058fc295ed00000"
      },
      "nonce": 1,
      "data": "0x",
      "r": "0x69b8a4ac85d55d97b6e75d4a39cf059c9b27b89587472f35f33020e8410561fc",
      "s": "0x2cda8f96eeebc3e3ff41c7ced4b60bf6fbc72247d45adc2eefcc2546730d3f6f",
      "v": 27,
      "creates": null,
      "raw": "0xf86e01850d7e3f232d82520894900c0afc99968f30e64a7dee5828042b6422a0988a02a5a058fc295ed00000801ba069b8a4ac85d55d97b6e75d4a39cf059c9b27b89587472f35f33020e8410561fca02cda8f96eeebc3e3ff41c7ced4b60bf6fbc72247d45adc2eefcc2546730d3f6f",
      "networkId": 0,
      "chainId": 0
    }
  ]
}