{
  "hash": "0x31b22d7adae166ede45555ff70479d4e87003e27ff5941de38eddc48a1430d2a",
  "parentHash": "0x3ff344b2a1b27174d7fa28efc63644c8b182fc4a2321d604410ce9582180a906",
  "number": 59577,
  "timestamp": 1439140526,
  "nonce": "0x37aacfe135fe309e",
  "difficulty": 1697198336143,
  "gasLimit": {
    "_hex": "0x2fefd8"
  },
  "gasUsed": {
    "_hex": "0x5208"
  },
  "miner": "0xF2d2AfF1320476cb8C6b607199D23175cc595693",
  "extraData": "0x476574682f76312e302e312f77696e646f77732f676f312e342e32",
  "transactions": [
    {
      "hash": "0xef87b3cc851ac304cd0f397580328d795df98f1e44e1a0642b204e14a8198bcc",
      "blockHash": "0x31b22d7adae166ede45555ff70479d4e87003e27ff5941de38eddc48a1430d2a",
      "blockNumber": 59577,
      "transactionIndex": 0,
      "confirmations": null,
      "from": "0x86d3856ad0105B9d4199936c1fd203664BA325dC",
      "gasPrice": {
        "_hex": "0xd571ef6c5"
      },
      "gasLimit": {
        "_hex": "0x5208"
      },
      "to": "0x32Be343B94f860124dC4fEe278FDCBD38C102D88",
      "value": {
        "_hex": "0x46c290a825ce3800"
      },
      "nonce": 4,
      "data": "0x",
      "r": "0x4e2cc033f886d474a83ea5cd8bc116929ca6c22c9e653b276ac2139f380da808",
      "s": "0x494c55675c37f20e3acff7352c587315718efc60306bdda93c8013e86ef7ccfd",
      "v": 27,
      "creates": null,
      "raw": "0xf86c04850d571ef6c58252089432be343b94f860124dc4fee278fdcbd38c102d888846c290a825ce3800801ba04e2cc033f886d474a83ea5cd8bc116929ca6c22c9e653b276ac2139f380da808a0494c55675c37f20e3acff7352c587315718efc60306bdda93c8013e86ef7ccfd",
      "networkId": 0,
      "chainId": 0
    }
  ]
}