{
  "hash": "0xd803335ce00269baa0c471fbdd068ab56b8c8e255c8053b1e6ec2ee466f6b9fa",
  "parentHash": "0x1714073a1addb1411e5e43fa9f00be78ebd91597de1a99ef3cc76e2dbb503995",
  "number": 91007,
  "timestamp": 1439649049,
  "nonce": "0x869c6f2a6f640b3d",
  "difficulty": 3422291261653,
  "gasLimit": {
    "_hex": "0x2fefd8"
  },
  "gasUsed": {
    "_hex": "0xa410"
  },
  "miner": "0xe6A7a1d47ff21B6321162AEA7C6CB457D5476Bca",
  "extraData": "0x476574682f76312e302e312d38326566323666362f6c696e75782f676f312e34",
  "transactions": [
    {
      "hash": "0xe01aa75364392760f59f06271ce2d955b13fca42982354547cfe1c2a7a6c9e1e",
      "blockHash": "0xd803335ce00269baa0c471fbdd068ab56b8c8e255c8053b1e6ec2ee466f6b9fa",
      "blockNumber": 91007,
      "transactionIndex": 0,
      "confirmations": null,
      "from": "0x72bb27Cb99f3E2C2CF90A98F707d30E4A201A071",
      "gasPrice": {
        "_hex": "0xd641f460d"
      },
      "gasLimit": {
        "_hex": "0x15f90"
      },
      "to": "0x6896e22C387dc77Eef9566aaecbf584a65130067",
      "value": {
        "_hex": "0x2b5e3af16b1880000"
      },
      "nonce": 1,
      "data": "0x",
      "r": "0xd30d8785422d08da45746f13d78207aa6add901653a2ac45bd0889e57c3afb32",
      "s": "0x1ca04a5beda872ef82e070c2fe09bf83543f8f87c7faa10fbcd811eec62662c8",
      "v": 28,
      "creates": null,
      "raw": "0xf86e01850d641f460d83015f90946896e22c387dc77eef9566aaecbf584a651300678902b5e3af16b1880000801ca0d30d8785422d08da45746f13d78207aa6add901653a2ac45bd0889e57c3afb32a01ca04a5beda872ef82e070c2fe09bf83543f8f87c7faa10fbcd811eec62662c8",
      "networkId": 0,
      "chainId": 0
    },
    {
      "hash": "0xcd0640a0d1d58f99e2bbff49579c7c8250bad4eef51fb7d0257d4ebcf8c7e87e",
      "blockHash": "0xd803335ce00269baa0c471fbdd068ab56b8c8e255c8053b1e6ec2ee466f6b9fa",
      "blockNumber": 91007,
      "transactionIndex": 1,
      "confirmations": null,
      "from": "0x5a0f0935E8E5591B2f9f2d55f29C626B50292088",
      "gasPrice": {
        "_hex": "0xce5a6d515"
      },
      "gasLimit": {
        "_hex": "0x5208"
      },
      "to": "0x32Be343B94f860124dC4fEe278FDCBD38C102D88",
      "value": {
        "_hex": "0x56bb178be40328000"
      },
      "nonce": 19,
      "data": "0x",
      "r": "0x467066ac7ce6ec97df7fbdd5b4c2dd7343dcdf8b34d8e0e788a10be6b196365a",
      "s": "0x1f0c1df59988e351089fd3b351b83be0f32554724be1acc94ef9c46c36007c14",
      "v": 27,
      "creates": null,
      "raw": "0xf86d13850ce5a6d5158252089432be343b94f860124dc4fee278fdcbd38c102d8889056bb178be40328000801ba0467066ac7ce6ec97df7fbdd5b4c2dd7343dcdf8b34d8e0e788a10be6b196365aa01f0c1df59988e351089fd3b351b83be0f32554724be1acc94ef9c46c36007c14",
      "networkId": 0,
      "chainId": 0
    }
  ]
}