{
  "hash": "0x8c0dabfd8a66e6b4e42d979497ca1be1403f3403d93d9331e3dd30050a2fb1fd",
  "parentHash": "0x91c76d0400241b6a3b9909e9548752b7f8a643dad6673baadf308b665423d519",
  "number": 47378,
  "timestamp": 1438939250,
  "nonce": "0xe67f8c20f836cd1e",
  "difficulty": 1451675246693,
  "gasLimit": {
    "_hex": "0xb751"
  },
  "gasUsed": {
    "_hex": "0x5208"
  },
  "miner": "0xBb12b5a9B85D4AB8CDE6056E9c1b2a4a337D2261",
  "extraData": "0x476574682f76312e302e312d36393865393864392f6c696e75782f676f312e34",
  "transactions": [
    {
      "hash": "0x0735deb4da27dd978dc82e3f94b3c0d3846ae4d78cc6c3c5a81438130c0d222c",
      "blockHash": "0x8c0dabfd8a66e6b4e42d979497ca1be1403f3403d93d9331e3dd30050a2fb1fd",
      "blockNumber": 47378,
      "transactionIndex": 0,
      "confirmations": null,
      "from": "0x23c99bA087448e19C9701Df66e0cab52368331FA",
      "gasPrice": {
        "_hex": "0x45d964b800"
      },
      "gasLimit": {
        "_hex": "0x5208"
      },
      "to": "0xC3e7418901ea7aa9c78094F9dB49063627f5cFbb",
      "value": {
        "_hex": "0x2386f26fc10000"
      },
      "nonce": 1,
      "data": "0x",
      "r": "0xab40fd5be71d9b26d1702a5482a6ead128164d9a828aa628e72f71fd646b5d40",
      "s": "0x2ead8288e75b305e5dacc302dea75a341e529e306ab7f1aa00abfdab65795b5d",
      "v": 27,
      "creates": null,
      "raw": "0xf86b018545d964b80082520894c3e7418901ea7aa9c78094f9db49063627f5cfbb872386f26fc10000801ba0ab40fd5be71d9b26d1702a5482a6ead128164d9a828aa628e72f71fd646b5d40a02ead8288e75b305e5dacc302dea75a341e529e306ab7f1aa00abfdab65795b5d",
      "networkId": 0,
      "chainId": 0
    }
  ]
}