{
  "hash": "0x48e1024d2309fec692d83d413b7d1dc2cf62d67673306ae7bce97e842c5b71c6",
  "parentHash": "0xe8ddebc62cc1009f1cbff29bbe867208e5d0d7516c451ab416f55487d8ebfe37",
  "number": 88691,
  "timestamp": 1439611927,
  "nonce": "0x5f3c819a683c1f19",
  "difficulty": 3231573540933,
  "gasLimit": {
    "_hex": "0x2fefd8"
  },
  "gasUsed": {
    "_hex": "0xa410"
  },
  "miner": "0x785ffdDd5cE55c6DF963f345e68d3F2024E5Acb1",
  "extraData": "0x",
  "transactions": [
    {
      "hash": "0x6d10107b323811e058c116c4494f019eb48bd830f1b6f53fae12911e7f8df287",
      "blockHash": "0x48e1024d2309fec692d83d413b7d1dc2cf62d67673306ae7bce97e842c5b71c6",
      "blockNumber": 88691,
      "transactionIndex": 0,
      "confirmations": null,
      "from": "0x96811Ad897894eC178872117C8BF2f03971A393B",
      "gasPrice": {
        "_hex": "0xcbde18990"
      },
      "gasLimit": {
        "_hex": "0x5208"
      },
      "to": "0x32Be343B94f860124dC4fEe278FDCBD38C102D88",
      "value": {
        "_hex": "0x5a3082cd2b2e8000"
      },
      "nonce": 35,
      "data": "0x",
      "r": "0xfd710e03849921daf07e967d93ad91539292dbefd60f8f0a3fd6333a61b00499",
      "s": "0x7b022280c7931ff5456dec9725b1596a1906913bbdcddeb906d59bd474562d88",
      "v": 27,
      "creates": null,
      "raw": "0xf86c23850cbde189908252089432be343b94f860124dc4fee278fdcbd38c102d88885a3082cd2b2e8000801ba0fd710e03849921daf07e967d93ad91539292dbefd60f8f0a3fd6333a61b00499a07b022280c7931ff5456dec9725b1596a1906913bbdcddeb906d59bd474562d88",
      "networkId": 0,
      "chainId": 0
    },
    {
      "hash": "0x14e7e8e3f15d50db4d65ee386ff26127ae4238c2c3e106aba59f1e71ef1aa4a1",
      "blockHash": "0x48e1024d2309fec692d83d413b7d1dc2cf62d67673306ae7bce97e842c5b71c6",
      "blockNumber": 88691,
      "transactionIndex": 1,
      "confirmations": null,
      "from": "0x0bCa038BF4ACAd3Cbf73463EccC7717dDCDc3D83",
      "gasPrice": {
        "_hex": "0xcbde18990"
      },
      "gasLimit": {
        "_hex": "0x5208"
      },
      "to": "0x32Be343B94f860124dC4fEe278FDCBD38C102D88",
      "value": {
        "_hex": "0x3635c5988de8b60000"
      },
      "nonce": 6,
      "data": "0x",
      "r": "0x772d9ec892a0c688bb8a9ee3c0d7772a61df7c8f4af6f3793d5a79789ec9e385",
      "s": "0x41676fe66cf1722baf9e6b38467fa5ec4aebb8019bb08470b05fde682b6e6c0e",
      "v": 28,
      "creates": null,
      "raw": "0xf86d06850cbde189908252089432be343b94f860124dc4fee278fdcbd38c102d88893635c5988de8b60000801ca0772d9ec892a0c688bb8a9ee3c0d7772a61df7c8f4af6f3793d5a79789ec9e385a041676fe66cf1722baf9e6b38467fa5ec4aebb8019bb08470b05fde682b6e6c0e",
      "networkId": 0,
      "chainId": 0
    }
  ]
}