{
  "hash": "0x620f42b59e4d598de02f4ec16f8b64041ecef7b762d4522b50e3b83dfb2ae84e",
  "parentHash": "0x986668b937e900c0d1e77ec0e005bbeafeae5f3f83e5f85d18bade8c83745730",
  "number": 52006,
  "timestamp": 1439014607,
  "nonce": "0xcad470775de4122e",
  "difficulty": 1559604341922,
  "gasLimit": {
    "_hex": "0xf98e3"
  },
  "gasUsed": {
    "_hex": "0x5208"
  },
  "miner": "0xf927a40C8B7F6E07c5af7FA2155B4864a4112B13",
  "extraData": "0x476574682f76312e302e312f6c696e75782f676f312e342e32",
  "transactions": [
    {
      "hash": "0x96fc21450bcec38ac3c36f7f683c3597b3cc5d27d93f21ba0365e330cd4ba1cb",
      "blockHash": "0x620f42b59e4d598de02f4ec16f8b64041ecef7b762d4522b50e3b83dfb2ae84e",
      "blockNumber": 52006,
      "transactionIndex": 0,
      "confirmations": null,
      "from": "0x9b760457B75C17F09C52eEa70b478008fD04c941",
      "gasPrice": {
        "_hex": "0xcc2f38e67"
      },
      "gasLimit": {
        "_hex": "0x15f90"
      },
      "to": "0xA09503A48cDB1bb521dD4F5a921F877bC7D8DfA0",
      "value": {
        "_hex": "0x16345785d8a0000"
      },
      "nonce": 0,
      "data": "0x",
      "r": "0x1b60d39456bff6a41432dac9dfb7a916910a0d60c74b824d9ccc041d3acb82c1",
      "s": "0x7760b4906384fdc30dd9d310481b489168ffc370d8accc5ff14ccc68bc038194",
      "v": 27,
      "creates": null,
      "raw": "0xf86d80850cc2f38e6783015f9094a09503a48cdb1bb521dd4f5a921f877bc7d8dfa088016345785d8a0000801ba01b60d39456bff6a41432dac9dfb7a916910a0d60c74b824d9ccc041d3acb82c1a07760b4906384fdc30dd9d310481b489168ffc370d8accc5ff14ccc68bc038194",
      "networkId": 0,
      "chainId": 0
    }
  ]
}