{
  "hash": "0xe3338804f862bcd2f8202ce60229001d4d0057762a784f072145cd288ac2e7cd",
  "parentHash": "0x69d7fea15bf98d43680279cb499ee18c3731b7a014817e1d80cb8ba988da884a",
  "number": 68914,
  "timestamp": 1439295597,
  "nonce": "0xd8b9616ca1f6b4d6",
  "difficulty": 2026050774672,
  "gasLimit": {
    "_hex": "0x2fefd8"
  },
  "gasUsed": {
    "_hex": "0x12988c"
  },
  "miner": "0x2c640E5e3DE20DECa76ee10c5Fd6ECd074EFb3e8",
  "extraData": "0x476574682f76312e302e312f77696e646f77732f676f312e342e32",
  "transactions": [
    {
      "hash": "0xb66273c5e7f63ea40f7ff9db4471df4f106c46fcf77c6ee8deab3ae085bc017f",
      "blockHash": "0xe3338804f862bcd2f8202ce60229001d4d0057762a784f072145cd288ac2e7cd",
      "blockNumber": 68914,
      "transactionIndex": 0,
      "confirmations": null,
      "from": "0xb18C46a37F3740f1280e4C5406E17db6753c9897",
      "gasPrice": {
        "_hex": "0xba43b7400"
      },
      "gasLimit": {
        "_hex": "0x15f90"
      },
      "to": "0x793AE8C1b1a160BFc07BFB0d04F85eab1A71F4f2",
      "value": {
        "_hex": "0x0"
      },
      "nonce": 0,
      "data": "0x3ba15036",
      "r": "0x2e029a5a6436b378cc938bee09f62cc6bc946be45ee54d1fc663a43d5cccd1aa",
      "s": "0x5c0f7081289bd1a0d0b2159d9ea21fd12bd88171fd61c0ab62ed6fb77ea9b88b",
      "v": 28,
      "creates": null,
      "raw": "0xf86980850ba43b740083015f9094793ae8c1b1a160bfc07bfb0d04f85eab1a71f4f280843ba150361ca02e029a5a6436b378cc938bee09f62cc6bc946be45ee54d1fc663a43d5cccd1aaa05c0f7081289bd1a0d0b2159d9ea21fd12bd88171fd61c0ab62ed6fb77ea9b88b",
      "networkId": 0,
      "chainId": 0
    },
    {
      "hash": "0xb49234e447dc3d2b39dff2c019c7e0386e170265013a8e35229d0c6b2981b49a",
      "blockHash": "0xe3338804f862bcd2f8202ce60229001d4d0057762a784f072145cd288ac2e7cd",
      "blockNumber": 68914,
      "transactionIndex": 1,
      "confirmations": null,
      "from": "0x273c12BFf5EBDdEbd5CF83c53FFB5A35bD819a82",
      "gasPrice": {
        "_hex": "0xba43b7400"
      },
      "gasLimit": {
        "_hex": "0x15f90"
      },
      "to": "0x793AE8C1b1a160BFc07BFB0d04F85eab1A71F4f2",
      "value": {
        "_hex": "0x0"
      },
      "nonce": 0,
      "data": "0x3ba15036",
      "r": "0x3cdb74fb114001df27572843232db9a9c9d9b5d5e7784363dd85a7fedf62cbb3",
      "s": "0x5e23d3d56786603341cd04771bda4bb57f4ee6a3ca473081588cedb9abd5d4c6",
      "v": 27,
      "creates": null,
      "raw": "0xf86980850ba43b740083015f9094793ae8c1b1a160bfc07bfb0d04f85eab1a71f4f280843ba150361ba03cdb74fb114001df27572843232db9a9c9d9b5d5e7784363dd85a7fedf62cbb3a05e23d3d56786603341cd04771bda4bb57f4ee6a3ca473081588cedb9abd5d4c6",
      "networkId": 0,
      "chainId": 0
    },
    {
      "hash": "0x47210f93c23927131c00f00d180a8e33b568f90bcc24573c3f9bb2b986e7dc3c",
      "blockHash": "0xe3338804f862bcd2f8202ce60229001d4d0057762a784f072145cd288ac2e7cd",
      "blockNumber": 68914,
      "transactionIndex": 2,
      "confirmations": null,
      "from": "0x45Ce3B8C22291b9cc797021FA0ABF8BEdc55A6A4",
      "gasPrice": {
        "_hex": "0xba43b7400"
      },
      "gasLimit": {
        "_hex": "0x15f90"
      },
      "to": "0x793AE8C1b1a160BFc07BFB0d04F85eab1A71F4f2",
      "value": {
        "_hex": "0x0"
      },
      "nonce": 0,
      "data": "0x3ba15036",
      "r": "0x1b467ef00e4cb6936d8c2755baa00310e2156142fee9149047ffa9b00e5a27e4",
      "s": "0x523aac6152dc0d34b74210b1e4c34601dc5e0dfacfe6dde5652eadc37f87821b",
      "v": 28,
      "creates": null,
      "raw": "0xf86980850ba43b740083015f9094793ae8c1b1a160bfc07bfb0d04f85eab1a71f4f280843ba150361ca01b467ef00e4cb6936d8c2755baa00310e2156142fee9149047ffa9b00e5a27e4a0523aac6152dc0d34b74210b1e4c34601dc5e0dfacfe6dde5652eadc37f87821b",
      "networkId": 0,
      "chainId": 0
    },
    {
      "hash": "0x8cfd4832dd4762c31ab6703b5aee42eaa37ecb1ed891efd1506bf990935d2fa2",
      "blockHash": "0xe3338804f862bcd2f8202ce60229001d4d0057762a784f072145cd288ac2e7cd",
      "blockNumber": 68914,
      "transactionIndex": 3,
      "confirmations": null,
      "from": "0xd3E3ae51Ae2adEe3F17318Fc1562f7E6Be20f357",
      "gasPrice": {
        "_hex": "0xba43b7400"
      },
      "gasLimit": {
        "_hex": "0x15f90"
      },
      "to": "0x793AE8C1b1a160BFc07BFB0d04F85eab1A71F4f2",
      "value": {
        "_hex": "0x0"
      },
      "nonce": 0,
      "data": "0x3ba15036",
      "r": "0x1371444cca1c540e8f17233835ebc09f222db7fd9577c03a1b25cf990e56a19d",
      "s": "0x646de1a72de4a98526e276bcb3f80171d747e8f820894101f9b675b1903c9620",
      "v": 28,
      "creates": null,
      "raw": "0xf86980850ba43b740083015f9094793ae8c1b1a160bfc07bfb0d04f85eab1a71f4f280843ba150361ca01371444cca1c540e8f17233835ebc09f222db7fd9577c03a1b25cf990e56a19da0646de1a72de4a98526e276bcb3f80171d747e8f820894101f9b675b1903c9620",
      "networkId": 0,
      "chainId": 0
    },
    {
      "hash": "0x65341902751523bf015550abd1d39ad705e1b74048bc948d563d95dd8313f493",
      "blockHash": "0xe3338804f862bcd2f8202ce60229001d4d0057762a784f072145cd288ac2e7cd",
      "blockNumber": 68914,
      "transactionIndex": 4,
      "confirmations": null,
      "from": "0xc357564165E9e75dA11Ee063fD186Be11F8F581f",
      "gasPrice": {
        "_hex": "0xba43b7400"
      },
      "gasLimit": {
        "_hex": "0x15f90"
      },
      "to": "0x793AE8C1b1a160BFc07BFB0d04F85eab1A71F4f2",
      "value": {
        "_hex": "0x0"
      },
      "nonce": 0,
      "data": "0x3ba15036",
      "r": "0xb7d62c9deb6348c317c58209842a958dc6210443180c4b7b2df292f67a4a436c",
      "s": "0x7ee900aedde38024006860060e8bfd64407bb3afd3a81bec61dfa1047bf58747",
      "v": 27,
      "creates": null,
      "raw": "0xf86980850ba43b740083015f9094793ae8c1b1a160bfc07bfb0d04f85eab1a71f4f280843ba150361ba0b7d62c9deb6348c317c58209842a958dc6210443180c4b7b2df292f67a4a436ca07ee900aedde38024006860060e8bfd64407bb3afd3a81bec61dfa1047bf58747",
      "networkId": 0,
      "chainId": 0
    },
    {
      "hash": "0xce7fffc5c65311572048fcd3c59f96b0eeff80fead08f537ccfb05023f0f2071",
      "blockHash": "0xe3338804f862bcd2f8202ce60229001d4d0057762a784f072145cd288ac2e7cd",
      "blockNumber": 68914,
      "transactionIndex": 5,
      "confirmations": null,
      "from": "0xfBe697c5FE5095015F707e69D9be951fE01A7795",
      "gasPrice": {
        "_hex": "0xba43b7400"
      },
      "gasLimit": {
        "_hex": "0x15f90"
      },
      "to": "0x793AE8C1b1a160BFc07BFB0d04F85eab1A71F4f2",
      "value": {
        "_hex": "0x0"
      },
      "nonce": 0,
      "data": "0x3ba15036",
      "r": "0x6d7f804a354ad743bec236fa33eeaaa6cad3b1d48f7eb6fe0ee80163627e680e",
      "s": "0x173052ed36613e1a093918ef2eda7e5088aa21722cdbdb9c3bc54f90c72f6a54",
      "v": 27,
      "creates": null,
      "raw": "0xf86980850ba43b740083015f9094793ae8c1b1a160bfc07bfb0d04f85eab1a71f4f280843ba150361ba06d7f804a354ad743bec236fa33eeaaa6cad3b1d48f7eb6fe0ee80163627e680ea0173052ed36613e1a093918ef2eda7e5088aa21722cdbdb9c3bc54f90c72f6a54",
      "networkId": 0,
      "chainId": 0
    },
    {
      "hash": "0x904f677581d3e9cbb10b6dc712c3f27539b8c5359307861e71e5b69c7e5dd4a9",
      "blockHash": "0xe3338804f862bcd2f8202ce60229001d4d0057762a784f072145cd288ac2e7cd",
      "blockNumber": 68914,
      "transactionIndex": 6,
      "confirmations": null,
      "from": "0xfbf7EBA1555a250BBF7740FF1703320C7F834c17",
      "gasPrice": {
        "_hex": "0xba43b7400"
      },
      "gasLimit": {
        "_hex": "0x15f90"
      },
      "to": "0x793AE8C1b1a160BFc07BFB0d04F85eab1A71F4f2",
      "value": {
        "_hex": "0x0"
      },
      "nonce": 0,
      "data": "0x3ba15036",
      "r": "0x976775b31be038ef2f269dc70db7e7b46151f399d1582c1a4cabb92a410bf6fe",
      "s": "0x6045f73ea501abaf97bcc6382c108c5d1c5516cf717ead8562b9c3af355fd09e",
      "v": 28,
      "creates": null,
      "raw": "0xf86980850ba43b740083015f9094793ae8c1b1a160bfc07bfb0d04f85eab1a71f4f280843ba150361ca0976775b31be038ef2f269dc70db7e7b46151f399d1582c1a4cabb92a410bf6fea06045f73ea501abaf97bcc6382c108c5d1c5516cf717ead8562b9c3af355fd09e",
      "networkId": 0,
      "chainId": 0
    },
    {
      "hash": "0x1ebe4242714301705d90fb3a5428af53eb323f573c8728f221f0a71e23ba22ad",
      "blockHash": "0xe3338804f862bcd2f8202ce60229001d4d0057762a784f072145cd288ac2e7cd",
      "blockNumber": 68914,
      "transactionIndex": 7,
      "confirmations": null,
      "from": "0xC5e75A17e4b0f48147eA05e6B93D137F2BedE600",
      "gasPrice": {
        "_hex": "0xba43b7400"
      },
      "gasLimit": {
        "_hex": "0x15f90"
      },
      "to": "0x793AE8C1b1a160BFc07BFB0d04F85eab1A71F4f2",
      "value": {
        "_hex": "0x0"
      },
      "nonce": 0,
      "data": "0x3ba15036",
      "r": "0xac4edc4a52fead870d07832e25953e0f01eab4b9e54f30ef32e91612c16f1144",
      "s": "0x502fc400c02f730fd8f941deb868104deb2aa070650dd280e8d8ee800e711dca",
      "v": 28,
      "creates": null,
      "raw": "0xf86980850ba43b740083015f9094793ae8c1b1a160bfc07bfb0d04f85eab1a71f4f280843ba150361ca0ac4edc4a52fead870d07832e25953e0f01eab4b9e54f30ef32e91612c16f1144a0502fc400c02f730fd8f941deb868104deb2aa070650dd280e8d8ee800e711dca",
      "networkId": 0,
      "chainId": 0
    },
    {
      "hash": "0x4979d663797bad1c83d81fa286bfa71728a0a8e09f965b584d6cb34e118fddb5",
      "blockHash": "0xe3338804f862bcd2f8202ce60229001d4d0057762a784f072145cd288ac2e7cd",
      "blockNumber": 68914,
      "transactionIndex": 8,
      "confirmations": null,
      "from": "0xBbB64d6D19aBE60a9Fd2D53C6E22349D8F2c4642",
      "gasPrice": {
        "_hex": "0xba43b7400"
      },
      "gasLimit": {
        "_hex": "0x15f90"
      },
      "to": "0x793AE8C1b1a160BFc07BFB0d04F85eab1A71F4f2",
      "value": {
        "_hex": "0x0"
      },
      "nonce": 0,
      "data": "0x3ba15036",
      "r": "0xa83f20c5dd6bfe36158b70e977d2b84ddc0bf7f6c4d7f76b007979a1191f45b7",
      "s": "0x265897199286ea6274ba34501014d711074f6b3d5af2d9dd28ecdab5e96c31a6",
      "v": 28,
      "creates": null,
      "raw": "0xf86980850ba43b740083015f9094793ae8c1b1a160bfc07bfb0d04f85eab1a71f4f280843ba150361ca0a83f20c5dd6bfe36158b70e977d2b84ddc0bf7f6c4d7f76b007979a1191f45b7a0265897199286ea6274ba34501014d711074f6b3d5af2d9dd28ecdab5e96c31a6",
      "networkId": 0,
      "chainId": 0
    },
    {
      "hash": "0x07510fb478ee216684aa0adc3e618926bbc2eaf9e06947df92cff823742081b8",
      "blockHash": "0xe3338804f862bcd2f8202ce60229001d4d0057762a784f072145cd288ac2e7cd",
      "blockNumber": 68914,
      "transactionIndex": 9,
      "confirmations": null,
      "from": "0x66c00128006D8A4246022a21F5670c5ea62DdB91",
      "gasPrice": {
        "_hex": "0xba43b7400"
      },
      "gasLimit": {
        "_hex": "0x15f90"
      },
      "to": "0x793AE8C1b1a160BFc07BFB0d04F85eab1A71F4f2",
      "value": {
        "_hex": "0x0"
      },
      "nonce": 0,
      "data": "0x3ba15036",
      "r": "0xad134dc1a5610d2857f169678b4c6fdc9be6327142a76eea87b980cce488acec",
      "s": "0x0f17659a48095d5e44360249adaf840068b06ee15d1009b28bb153e5ebd1137a",
      "v": 28,
      "creates": null,
      "raw": "0xf86980850ba43b740083015f9094793ae8c1b1a160bfc07bfb0d04f85eab1a71f4f280843ba150361ca0ad134dc1a5610d2857f169678b4c6fdc9be6327142a76eea87b980cce488aceca00f17659a48095d5e44360249adaf840068b06ee15d1009b28bb153e5ebd1137a",
      "networkId": 0,
      "chainId": 0
    },
    {
      "hash": "0x6856dfc95c4350652ad407fcda9d4385700d279f46c977e57c79e6f138164d4a",
      "blockHash": "0xe3338804f862bcd2f8202ce60229001d4d0057762a784f072145cd288ac2e7cd",
      "blockNumber": 68914,
      "transactionIndex": 10,
      "confirmations": null,
      "from": "0xBc8f4e4432bFf6e605c5D9ef7d51656FbAA50dD9",
      "gasPrice": {
        "_hex": "0xba43b7400"
      },
      "gasLimit": {
        "_hex": "0x15f90"
      },
      "to": "0x793AE8C1b1a160BFc07BFB0d04F85eab1A71F4f2",
      "value": {
        "_hex": "0x0"
      },
      "nonce": 0,
      "data": "0x3ba15036",
      "r": "0x6185964879606c40fe3e2267224cd3a3781c1635597a4c73d966aca5a97f3c6b",
      "s": "0x7c33547c105e24473922de45196685751747feaa8bff479574a0c30b66fb449b",
      "v": 27,
      "creates": null,
      "raw": "0xf86980850ba43b740083015f9094793ae8c1b1a160bfc07bfb0d04f85eab1a71f4f280843ba150361ba06185964879606c40fe3e2267224cd3a3781c1635597a4c73d966aca5a97f3c6ba07c33547c105e24473922de45196685751747feaa8bff479574a0c30b66fb449b",
      "networkId": 0,
      "chainId": 0
    },
    {
      "hash": "0x3e7f4441da9877ad8d87505ffa62a2ec414b6982a99be46e2e46a4d387cb2d77",
      "blockHash": "0xe3338804f862bcd2f8202ce60229001d4d0057762a784f072145cd288ac2e7cd",
      "blockNumber": 68914,
      "transactionIndex": 11,
      "confirmations": null,
      "from": "0x1C8e2ae5c64944f2C65AF7Ae5387E02fb72A9895",
      "gasPrice": {
        "_hex": "0xba43b7400"
      },
      "gasLimit": {
        "_hex": "0x15f90"
      },
      "to": "0x793AE8C1b1a160BFc07BFB0d04F85eab1A71F4f2",
      "value": {
        "_hex": "0x0"
      },
      "nonce": 0,
      "data": "0x3ba15036",
      "r": "0x79cfd3c79b5b7f7da2087261c6b46f91ccfa4d4115c0ed20c4ea118a7ef7439e",
      "s": "0x5cdc1a6ee27e4ec7d15b3fb6748f57bc078449a3970013d1e415a69a52343a0a",
      "v": 28,
      "creates": null,
      "raw": "0xf86980850ba43b740083015f9094793ae8c1b1a160bfc07bfb0d04f85eab1a71f4f280843ba150361ca079cfd3c79b5b7f7da2087261c6b46f91ccfa4d4115c0ed20c4ea118a7ef7439ea05cdc1a6ee27e4ec7d15b3fb6748f57bc078449a3970013d1e415a69a52343a0a",
      "networkId": 0,
      "chainId": 0
    },
    {
      "hash": "0xc2ad13434ee8f83e572c304f440970e79e18eb548f67a87bd3ffd23b5912d343",
      "blockHash": "0xe3338804f862bcd2f8202ce60229001d4d0057762a784f072145cd288ac2e7cd",
      "blockNumber": 68914,
      "transactionIndex": 12,
      "confirmations": null,
      "from": "0xA3fef266777130b9CAD0E1b2e2fEdFDf3cC0a384",
      "gasPrice": {
        "_hex": "0xba43b7400"
      },
      "gasLimit": {
        "_hex": "0x15f90"
      },
      "to": "0x793AE8C1b1a160BFc07BFB0d04F85eab1A71F4f2",
      "value": {
        "_hex": "0x0"
      },
      "nonce": 0,
      "data": "0x3ba15036",
      "r": "0x1427b7440e33c3bd50add29095b40a369ef66c99952f1e4ef1314748ff950640",
      "s": "0x39bc7bcb41245910cd63af44fd9000fa1925ec32065d118b2696dc5b51ad7cf2",
      "v": 28,
      "creates": null,
      "raw": "0xf86980850ba43b740083015f9094793ae8c1b1a160bfc07bfb0d04f85eab1a71f4f280843ba150361ca01427b7440e33c3bd50add29095b40a369ef66c99952f1e4ef1314748ff950640a039bc7bcb41245910cd63af44fd9000fa1925ec32065d118b2696dc5b51ad7cf2",
      "networkId": 0,
      "chainId": 0
    },
    {
      "hash": "0x25234b8f33f477e34ff0239bc30be8cd33d75c4ee164a815a4653161466ae389",
      "blockHash": "0xe3338804f862bcd2f8202ce60229001d4d0057762a784f072145cd288ac2e7cd",
      "blockNumber": 68914,
      "transactionIndex": 13,
      "confirmations": null,
      "from": "0x921171015a30a15260CCb44086f5B0001Ca28046",
      "gasPrice": {
        "_hex": "0xba43b7400"
      },
      "gasLimit": {
        "_hex": "0x15f90"
      },
      "to": "0x793AE8C1b1a160BFc07BFB0d04F85eab1A71F4f2",
      "value": {
        "_hex": "0x0"
      },
      "nonce": 0,
      "data": "0x3ba15036",
      "r": "0x3ac2e34f6500bd3276128d3cb488fddaa751e233004c9acb4d63aed0ab4d5345",
      "s": "0x109df700a088e0e13a2c7f64beade81f0a04f3a2e3f904592a9362e166caed81",
      "v": 27,
      "creates": null,
      "raw": "0xf86980850ba43b740083015f9094793ae8c1b1a160bfc07bfb0d04f85eab1a71f4f280843ba150361ba03ac2e34f6500bd3276128d3cb488fddaa751e233004c9acb4d63aed0ab4d5345a0109df700a088e0e13a2c7f64beade81f0a04f3a2e3f904592a9362e166caed81",
      "networkId": 0,
      "chainId": 0
    },
    {
      "hash": "0x8258e31a1f3771798078602bf273a98d55b612c08401b51562bd14cb2ba25338",
      "blockHash": "0xe3338804f862bcd2f8202ce60229001d4d0057762a784f072145cd288ac2e7cd",
      "blockNumber": 68914,
      "transactionIndex": 14,
      "confirmations": null,
      "from": "0xdF141AcFf66d6CCFEb1645B2ecfbb063229E3F01",
      "gasPrice": {
        "_hex": "0xba43b7400"
      },
      "gasLimit": {
        "_hex": "0x15f90"
      },
      "to": "0x793AE8C1b1a160BFc07BFB0d04F85eab1A71F4f2",
      "value": {
        "_hex": "0x0"
      },
      "nonce": 0,
      "data": "0x3ba15036",
      "r": "0x8144ce6f6918fe9ee8bc1d9dbedb80d079741d2c940dede865bff246bfddefa0",
      "s": "0x007eef17a4f2cda99969b1a86a8d9507001292f39fb9af14096c92aa5593afbc",
      "v": 28,
      "creates": null,
      "raw": "0xf86880850ba43b740083015f9094793ae8c1b1a160bfc07bfb0d04f85eab1a71f4f280843ba150361ca08144ce6f6918fe9ee8bc1d9dbedb80d079741d2c940dede865bff246bfddefa09f7eef17a4f2cda99969b1a86a8d9507001292f39fb9af14096c92aa5593afbc",
      "networkId": 0,
      "chainId": 0
    },
    {
      "hash": "0x3429ec1f84b4e39e026bbd72bde83d46142736689f9f8f8006f7200ec150c788",
      "blockHash": "0xe3338804f862bcd2f8202ce60229001d4d0057762a784f072145cd288ac2e7cd",
      "blockNumber": 68914,
      "transactionIndex": 15,
      "confirmations": null,
      "from": "0xa2c923bbe9Fc444d88EEEEeE8199A87BDb8085F7",
      "gasPrice": {
        "_hex": "0xba43b7400"
      },
      "gasLimit": {
        "_hex": "0x15f90"
      },
      "to": "0x793AE8C1b1a160BFc07BFB0d04F85eab1A71F4f2",
      "value": {
        "_hex": "0x0"
      },
      "nonce": 0,
      "data": "0x3ba15036",
      "r": "0xd6b26911c4fd9a15bd269b62fcd975a7b11cf124b30dd31d2b94dee670105e2d",
      "s": "0x7447eecbb09a023c3de30aa4c0f66538914e4286f5ca3ad987fbe6f0d083fad3",
      "v": 28,
      "creates": null,
      "raw": "0xf86980850ba43b740083015f9094793ae8c1b1a160bfc07bfb0d04f85eab1a71f4f280843ba150361ca0d6b26911c4fd9a15bd269b62fcd975a7b11cf124b30dd31d2b94dee670105e2da07447eecbb09a023c3de30aa4c0f66538914e4286f5ca3ad987fbe6f0d083fad3",
      "networkId": 0,
      "chainId": 0
    },
    {
      "hash": "0xe264ffd44dd64b2246dffe9fa064e0fd390ed2f222d9b5e575516a9a3180c77c",
      "blockHash": "0xe3338804f862bcd2f8202ce60229001d4d0057762a784f072145cd288ac2e7cd",
      "blockNumber": 68914,
      "transactionIndex": 16,
      "confirmations": null,
      "from": "0x06CE2849B3f77F16754C8923Ef69Db2cF1F956b7",
      "gasPrice": {
        "_hex": "0xba43b7400"
      },
      "gasLimit": {
        "_hex": "0x15f90"
      },
      "to": "0x793AE8C1b1a160BFc07BFB0d04F85eab1A71F4f2",
      "value": {
        "_hex": "0x0"
      },
      "nonce": 0,
      "data": "0x3ba15036",
      "r": "0x100dcda7b874f5f120ba1327cbc4dca78c174c32fa1f35ef841adad96fda25a0",
      "s": "0x5648a3faed9f6a2eb2a4e1cc64774f135f85e899ddc88a2db957cc19a1710b16",
      "v": 27,
      "creates": null,
      "raw": "0xf86980850ba43b740083015f9094793ae8c1b1a160bfc07bfb0d04f85eab1a71f4f280843ba150361ba0100dcda7b874f5f120ba1327cbc4dca78c174c32fa1f35ef841adad96fda25a0a05648a3faed9f6a2eb2a4e1cc64774f135f85e899ddc88a2db957cc19a1710b16",
      "networkId": 0,
      "chainId": 0
    },
    {
      "hash": "0x9541415cf9f6d0f194a8c6d46b4ff617a8cbd536075cb86d9a0c6e89ee5ee327",
      "blockHash": "0xe3338804f862bcd2f8202ce60229001d4d0057762a784f072145cd288ac2e7cd",
      "blockNumber": 68914,
      "transactionIndex": 17,
      "confirmations": null,
      "from": "0xFe620a3A479F251615FdA280ce10b3346adC5e53",
      "gasPrice": {
        "_hex": "0xba43b7400"
      },
      "gasLimit": {
        "_hex": "0x15f90"
      },
      "to": "0x793AE8C1b1a160BFc07BFB0d04F85eab1A71F4f2",
      "value": {
        "_hex": "0x0"
      },
      "nonce": 0,
      "data": "0x3ba15036",
      "r": "0xdfa064c09f99eeb98a77bc9f09439670c37c1c8f3a98d45ac71790232da27387",
      "s": "0x7e9b346fd1f4ed74ae20c4990db28b0ae185d84dff9c1f67a340d797ccb8adce",
      "v": 28,
      "creates": null,
      "raw": "0xf86980850ba43b740083015f9094793ae8c1b1a160bfc07bfb0d04f85eab1a71f4f280843ba150361ca0dfa064c09f99eeb98a77bc9f09439670c37c1c8f3a98d45ac71790232da27387a07e9b346fd1f4ed74ae20c4990db28b0ae185d84dff9c1f67a340d797ccb8adce",
      "networkId": 0,
      "chainId": 0
    },
    {
      "hash": "0x3e7b2c9d26bf0993e3c844994c0711180b113676ea8cf7555897b5d4c5ec2a40",
      "blockHash": "0xe3338804f862bcd2f8202ce60229001d4d0057762a784f072145cd288ac2e7cd",
      "blockNumber": 68914,
      "transactionIndex": 18,
      "confirmations": null,
      "from": "0x438CC3695042594a7F22A8C5264c35F7424BBA80",
      "gasPrice": {
        "_hex": "0xba43b7400"
      },
      "gasLimit": {
        "_hex": "0x15f90"
      },
      "to": "0x793AE8C1b1a160BFc07BFB0d04F85eab1A71F4f2",
      "value": {
        "_hex": "0x0"
      },
      "nonce": 0,
      "data": "0x3ba15036",
      "r": "0x69674d9ea316d6c797da9ab3d00eb24872f68ae8c1dd5e1a90ff02895b5bfaac",
      "s": "0x76fa1a28bb95b0d252d80f7bf94b7fed8d7f897954b7459942fafb98a74c300b",
      "v": 27,
      "creates": null,
      "raw": "0xf86980850ba43b740083015f9094793ae8c1b1a160bfc07bfb0d04f85eab1a71f4f280843ba150361ba069674d9ea316d6c797da9ab3d00eb24872f68ae8c1dd5e1a90ff02895b5bfaaca076fa1a28bb95b0d252d80f7bf94b7fed8d7f897954b7459942fafb98a74c300b",
      "networkId": 0,
      "chainId": 0
    },
    {
      "hash": "0x51f805d1f67538d4a9758ec1ee3dba053c86c672a617ecad32c6493e73c82169",
      "blockHash": "0xe3338804f862bcd2f8202ce60229001d4d0057762a784f072145cd288ac2e7cd",
      "blockNumber": 68914,
      "transactionIndex": 19,
      "confirmations": null,
      "from": "0x569aaE4BbE9223F05Be4A3a9FABD908ef9565a4E",
      "gasPrice": {
        "_hex": "0xba43b7400"
      },
      "gasLimit": {
        "_hex": "0x15f90"
      },
      "to": "0x793AE8C1b1a160BFc07BFB0d04F85eab1A71F4f2",
      "value": {
        "_hex": "0x0"
      },
      "nonce": 0,
      "data": "0x3ba15036",
      "r": "0x917a986dbf48cb1a90d3194251d18d4041626c0d8cf017c667478c1a9ee43588",
      "s": "0x582b1acf879921a20e00f5fa81c1020cbc66b617dbebfbc32a5eacfb47e99d23",
      "v": 27,
      "creates": null,
      "raw": "0xf86980850ba43b740083015f9094793ae8c1b1a160bfc07bfb0d04f85eab1a71f4f280843ba150361ba0917a986dbf48cb1a90d3194251d18d4041626c0d8cf017c667478c1a9ee43588a0582b1acf879921a20e00f5fa81c1020cbc66b617dbebfbc32a5eacfb47e99d23",
      "networkId": 0,
      "chainId": 0
    },
    {
      "hash": "0xf8604d931905073d5406b620f69fc884776aedede5560cf44da17bdc93e30ba4",
      "blockHash": "0xe3338804f862bcd2f8202ce60229001d4d0057762a784f072145cd288ac2e7cd",
      "blockNumber": 68914,
      "transactionIndex": 20,
      "confirmations": null,
      "from": "0xe2630676d1f72cbca15690d38D629C0011415B07",
      "gasPrice": {
        "_hex": "0xba43b7400"
      },
      "gasLimit": {
        "_hex": "0x15f90"
      },
      "to": "0x793AE8C1b1a160BFc07BFB0d04F85eab1A71F4f2",
      "value": {
        "_hex": "0x0"
      },
      "nonce": 0,
      "data": "0x3ba15036",
      "r": "0xabf0b88f30567c3b4695cdad1827e7a2fbd9347f779a0c69d8c08c58c85d0a29",
      "s": "0x2fc74bbac0c78f0d2bf61d4c467c76ded37cad88c790148cb029f8e4ad89e19c",
      "v": 28,
      "creates": null,
      "raw": "0xf86980850ba43b740083015f9094793ae8c1b1a160bfc07bfb0d04f85eab1a71f4f280843ba150361ca0abf0b88f30567c3b4695cdad1827e7a2fbd9347f779a0c69d8c08c58c85d0a29a02fc74bbac0c78f0d2bf61d4c467c76ded37cad88c790148cb029f8e4ad89e19c",
      "networkId": 0,
      "chainId": 0
    },
    {
      "hash": "0x5e7f24bf4fa129dfc369111b6a0406ebfddc27003e28d2b851ff27d68750c8ed",
      "blockHash": "0xe3338804f862bcd2f8202ce60229001d4d0057762a784f072145cd288ac2e7cd",
      "blockNumber": 68914,
      "transactionIndex": 21,
      "confirmations": null,
      "from": "0x455C848bd6CE7585b0c9e132d3266637249f2d3B",
      "gasPrice": {
        "_hex": "0xba43b7400"
      },
      "gasLimit": {
        "_hex": "0x15f90"
      },
      "to": "0x793AE8C1b1a160BFc07BFB0d04F85eab1A71F4f2",
      "value": {
        "_hex": "0x0"
      },
      "nonce": 0,
      "data": "0x3ba15036",
      "r": "0x0410131874c0dd0d0f8d6d118b9120ea42ef553121a582ab8b097d0a57fdacc0",
      "s": "0x31a4ee3a0e6cd950c0e1813e9df69daf2d5ae50330c609f8e2c3403e0cf48ab2",
      "v": 27,
      "creates": null,
      "raw": "0xf86980850ba43b740083015f9094793ae8c1b1a160bfc07bfb0d04f85eab1a71f4f280843ba150361ba00410131874c0dd0d0f8d6d118b9120ea42ef553121a582ab8b097d0a57fdacc0a031a4ee3a0e6cd950c0e1813e9df69daf2d5ae50330c609f8e2c3403e0cf48ab2",
      "networkId": 0,
      "chainId": 0
    },
    {
      "hash": "0x8ca26302e63fb3c5229fdf7d43b35f534abf1ce7d453df90b7751e4f7a954e69",
      "blockHash": "0xe3338804f862bcd2f8202ce60229001d4d0057762a784f072145cd288ac2e7cd",
      "blockNumber": 68914,
      "transactionIndex": 22,
      "confirmations": null,
      "from": "0xEE0664C04cB7196068D56EdA270A2DF41bF57D38",
      "gasPrice": {
        "_hex": "0xba43b7400"
      },
      "gasLimit": {
        "_hex": "0x15f90"
      },
      "to": "0x793AE8C1b1a160BFc07BFB0d04F85eab1A71F4f2",
      "value": {
        "_hex": "0x0"
      },
      "nonce": 0,
      "data": "0x3ba15036",
      "r": "0xc1e1b9263214fc2af504e2e246e8749d3fecdaa593e2ff4f5ea5cedacb35b8a5",
      "s": "0x59da7c136e03e76930e4e3ceb1088224690f0316dce03ba7ab33938f4c8e087a",
      "v": 27,
      "creates": null,
      "raw": "0xf86980850ba43b740083015f9094793ae8c1b1a160bfc07bfb0d04f85eab1a71f4f280843ba150361ba0c1e1b9263214fc2af504e2e246e8749d3fecdaa593e2ff4f5ea5cedacb35b8a5a059da7c136e03e76930e4e3ceb1088224690f0316dce03ba7ab33938f4c8e087a",
      "networkId": 0,
      "chainId": 0
    },
    {
      "hash": "0x0d80bd1b65f1ee7ae4cccfadf4e1b034f13f2da0da99c3ff71af227967867944",
      "blockHash": "0xe3338804f862bcd2f8202ce60229001d4d0057762a784f072145cd288ac2e7cd",
      "blockNumber": 68914,
      "transactionIndex": 23,
      "confirmations": null,
      "from": "0x96Bd809f0FF46b5675B1467791d47c325B40e815",
      "gasPrice": {
        "_hex": "0xba43b7400"
      },
      "gasLimit": {
        "_hex": "0x15f90"
      },
      "to": "0x793AE8C1b1a160BFc07BFB0d04F85eab1A71F4f2",
      "value": {
        "_hex": "0x0"
      },
      "nonce": 0,
      "data": "0x3ba15036",
      "r": "0x44c5ad5097415828343f85418650f07e785191737436a5637b0e99b3750946ef",
      "s": "0x77ef5e4239a661b4de4964ef6862bcaf330d53992f6bb1fc20ad81cfb1ca63b7",
      "v": 28,
      "creates": null,
      "raw": "0xf86980850ba43b740083015f9094793ae8c1b1a160bfc07bfb0d04f85eab1a71f4f280843ba150361ca044c5ad5097415828343f85418650f07e785191737436a5637b0e99b3750946efa077ef5e4239a661b4de4964ef6862bcaf330d53992f6bb1fc20ad81cfb1ca63b7",
      "networkId": 0,
      "chainId": 0
    },
    {
      "hash": "0x9719afb6d1dda7b8b7a76bdfc311afa286af4710fac39d862349fd2d46b10418",
      "blockHash": "0xe3338804f862bcd2f8202ce60229001d4d0057762a784f072145cd288ac2e7cd",
      "blockNumber": 68914,
      "transactionIndex": 24,
      "confirmations": null,
      "from": "0x22AA4a97a71c509AeecC0aaAA8784Ac1dFCf1211",
      "gasPrice": {
        "_hex": "0xba43b7400"
      },
      "gasLimit": {
        "_hex": "0x15f90"
      },
      "to": "0x793AE8C1b1a160BFc07BFB0d04F85eab1A71F4f2",
      "value": {
        "_hex": "0x0"
      },
      "nonce": 0,
      "data": "0x3ba15036",
      "r": "0x518ce061d02fd0ebd0d3e236744c9af63d715b8e098af7351a7f971f4207e263",
      "s": "0x115e745260e00d950678a990b9282d06ddaca41c9c9d6d4c3825a86f8f0fbc2d",
      "v": 27,
      "creates": null,
      "raw": "0xf86980850ba43b740083015f9094793ae8c1b1a160bfc07bfb0d04f85eab1a71f4f280843ba150361ba0518ce061d02fd0ebd0d3e236744c9af63d715b8e098af7351a7f971f4207e263a0115e745260e00d950678a990b9282d06ddaca41c9c9d6d4c3825a86f8f0fbc2d",
      "networkId": 0,
      "chainId": 0
    }
  ]
}