{
  "hash": "0x7201f2a773cd1a399054a590be779a95f2dd9380f45fda4eb9d3b61432bf471a",
  "parentHash": "0xa20db2a4154b3c6fb6d524a3b05ab19326c55ac1bc1825b6a01c8efc1b0205cd",
  "number": 52543,
  "timestamp": 1439023335,
  "nonce": "0x81f10c6420066d14",
  "difficulty": 1563316542257,
  "gasLimit": {
    "_hex": "0x152812"
  },
  "gasUsed": {
    "_hex": "0xf4240"
  },
  "miner": "0xe6A7a1d47ff21B6321162AEA7C6CB457D5476Bca",
  "extraData": "0x657468706f6f6c2e6f7267",
  "transactions": [
    {
      "hash": "0x9d5eb2ebef14b0567a0527b3344244c9c46c47529f3718a02c7cb437f64c73e3",
      "blockHash": "0x7201f2a773cd1a399054a590be779a95f2dd9380f45fda4eb9d3b61432bf471a",
      "blockNumber": 52543,
      "transactionIndex": 0,
      "confirmations": null,
      "from": "0x54dAeb3E8a6BBC797E4aD2b0339f134b186e4637",
      "gasPrice": {
        "_hex": "0xe7d27df17"
      },
      "gasLimit": {
        "_hex": "0x7a120"
      },
      "to": "0xBAA54d6E90c3F4d7Ebec11bD180134C7eD8eBb52",
      "value": {
        "_hex": "0x16345785d8a0000"
      },
      "nonce": 691,
      "data": "0x",
      "r": "0x5e82710c116bd70b4936e226194a4465d8df4a3932e26cf200583bfc0959fd37",
      "s": "0x0872216a099baf060e2b5d652f616503b527be9ae0989d6335e1334e409c4d88",
      "v": 27,
      "creates": null,
      "raw": "0xf86f8202b3850e7d27df178307a12094baa54d6e90c3f4d7ebec11bd180134c7ed8ebb5288016345785d8a0000801ba05e82710c116bd70b4936e226194a4465d8df4a3932e26cf200583bfc0959fd37a00872216a099baf060e2b5d652f616503b527be9ae0989d6335e1334e409c4d88",
      "networkId": 0,
      "chainId": 0
    },
    {
      "hash": "0xbf9bfa886a222b8c1bc27611718de747e770359d5b8b33f94106523cd337c240",
      "blockHash": "0x7201f2a773cd1a399054a590be779a95f2dd9380f45fda4eb9d3b61432bf471a",
      "blockNumber": 52543,
      "transactionIndex": 1,
      "confirmations": null,
      "from": "0x54dAeb3E8a6BBC797E4aD2b0339f134b186e4637",
      "gasPrice": {
        "_hex": "0xe7d27df17"
      },
      "gasLimit": {
        "_hex": "0x7a120"
      },
      "to": "0xBAA54d6E90c3F4d7Ebec11bD180134C7eD8eBb52",
      "value": {
        "_hex": "0x16345785d8a0000"
      },
      "nonce": 692,
      "data": "0x",
      "r": "0x153bea12e4246b9b6c68ff12211d86f5cdea1edbc15328ae7f1380a5f3c9a0be",
      "s": "0x5df7bbea59f171ecdb53a06258471472201663558345f32964a3960cfe8a603c",
      "v": 28,
      "creates": null,
      "raw": "0xf86f8202b4850e7d27df178307a12094baa54d6e90c3f4d7ebec11bd180134c7ed8ebb5288016345785d8a0000801ca0153bea12e4246b9b6c68ff12211d86f5cdea1edbc15328ae7f1380a5f3c9a0bea05df7bbea59f171ecdb53a06258471472201663558345f32964a3960cfe8a603c",
      "networkId": 0,
      "chainId": 0
    }
  ]
}