{
  "hash": "0xbb4a600555f34b928c680c4b7bd16c3bbc53046349fef0d71e0ca4b8aece76d7",
  "parentHash": "0xa3f7adbe4eee807d9398bf673dd1c8b6ff9be68ad3c914e5b2ead5d7f7375246",
  "number": 69044,
  "timestamp": 1439297578,
  "nonce": "0xe55f3cde9a5cda90",
  "difficulty": 2041909644957,
  "gasLimit": {
    "_hex": "0x2fefd8"
  },
  "gasUsed": {
    "_hex": "0xbe6c"
  },
  "miner": "0x580992B51e3925e23280EfB93d3047C82f17E038",
  "extraData": "0x476574682f76312e302e312f6c696e75782f676f312e342e32",
  "transactions": [
    {
      "hash": "0x61c86d00b80fee0658799d450fcec573dcebf5c7b88bf0347a80f6bdb2e72d7e",
      "blockHash": "0xbb4a600555f34b928c680c4b7bd16c3bbc53046349fef0d71e0ca4b8aece76d7",
      "blockNumber": 69044,
      "transactionIndex": 0,
      "confirmations": null,
      "from": "0x6904Da81b3FE5e6AcF1B9c1Bcdbe2e53dAcC2cC1",
      "gasPrice": {
        "_hex": "0xba43b7400"
      },
      "gasLimit": {
        "_hex": "0x15f90"
      },
      "to": "0x793AE8C1b1a160BFc07BFB0d04F85eab1A71F4f2",
      "value": {
        "_hex": "0x0"
      },
      "nonce": 0,
      "data": "0x3ba15036",
      "r": "0x60e6961cf7458ed38da30b70e474b51ccc065d32ade5ceb56ad3266d2954c67e",
      "s": "0x49977b646736024c9647e428da9e81ef0f453786fb6d588facaf3a193293b163",
      "v": 27,
      "creates": null,
      "raw": "0xf86980850ba43b740083015f9094793ae8c1b1a160bfc07bfb0d04f85eab1a71f4f280843ba150361ba060e6961cf7458ed38da30b70e474b51ccc065d32ade5ceb56ad3266d2954c67ea049977b646736024c9647e428da9e81ef0f453786fb6d588facaf3a193293b163",
      "networkId": 0,
      "chainId": 0
    }
  ]
}