{
  "hash": "0xc6dc49a417cf8e782b4baea5f3df4094112ff514f1ea4d5963951b1fe937ee33",
  "parentHash": "0xb7fc0c7a07bf4ad3083273949e0308d25067e2fc08f67d5f3ee9d20c35411c1e",
  "number": 51307,
  "timestamp": 1439002713,
  "nonce": "0x207e02ff9fc2a9ac",
  "difficulty": 1566603689461,
  "gasLimit": {
    "_hex": "0xa2f09"
  },
  "gasUsed": {
    "_hex": "0x5208"
  },
  "miner": "0xf927a40C8B7F6E07c5af7FA2155B4864a4112B13",
  "extraData": "0x476574682f76312e302e312f6c696e75782f676f312e342e32",
  "transactions": [
    {
      "hash": "0xfa4c15999c1ecae923a5e39acd81de10ceb39ec848805145eeaf2af880c0601c",
      "blockHash": "0xc6dc49a417cf8e782b4baea5f3df4094112ff514f1ea4d5963951b1fe937ee33",
      "blockNumber": 51307,
      "transactionIndex": 0,
      "confirmations": null,
      "from": "0x475351efe1D9cf36276Ff2b7aE1D38bDB072E22c",
      "gasPrice": {
        "_hex": "0xd52ed0ae6"
      },
      "gasLimit": {
        "_hex": "0x15f90"
      },
      "to": "0xDa2Bee57D678525f6d3E09F49D1786cFEaa1B290",
      "value": {
        "_hex": "0x8ac7230489e80000"
      },
      "nonce": 2,
      "data": "0x",
      "r": "0xd258b68c76e1edccccdd4f5941ddb44302952ce421c421c5b51783ca49f096c9",
      "s": "0x30e133240ae37c6b6351fde6e6ae465e04e6d7e116af797155cdb3e4b0771af1",
      "v": 27,
      "creates": null,
      "raw": "0xf86d02850d52ed0ae683015f9094da2bee57d678525f6d3e09f49d1786cfeaa1b290888ac7230489e80000801ba0d258b68c76e1edccccdd4f5941ddb44302952ce421c421c5b51783ca49f096c9a030e133240ae37c6b6351fde6e6ae465e04e6d7e116af797155cdb3e4b0771af1",
      "networkId": 0,
      "chainId": 0
    }
  ]
}