{
  "hash": "0x806427438793ad8c42d07ad6d77dce7b53f0c11ed112f152138ab1088ebc2251",
  "parentHash": "0xa32b07a2e2a13a55e711aee13e14b0883a80537799a20057941f41b59d70b309",
  "number": 110335,
  "timestamp": 1439972010,
  "nonce": "0x7c10b91663e58088",
  "difficulty": 4362840847864,
  "gasLimit": {
    "_hex": "0x2fefd8"
  },
  "gasUsed": {
    "_hex": "0x29040"
  },
  "miner": "0xaB638742EBe3A78F2a85028350e1AADB86C0a6ed",
  "extraData": "0x",
  "transactions": [
    {
      "hash": "0xf7be959f9fd5a7e3a87876a043e5a887ae0218c4e739d1f56c0aedb46eb8ac84",
      "blockHash": "0x806427438793ad8c42d07ad6d77dce7b53f0c11ed112f152138ab1088ebc2251",
      "blockNumber": 110335,
      "transactionIndex": 0,
      "confirmations": null,
      "from": "0xe6A7a1d47ff21B6321162AEA7C6CB457D5476Bca",
      "gasPrice": {
        "_hex": "0xdaf50c955"
      },
      "gasLimit": {
        "_hex": "0x55f0"
      },
      "to": "0xc1BED23F5A2bA19A363215fC2c288FD8ee533E15",
      "value": {
        "_hex": "0x49bec923af3ee910"
      },
      "nonce": 4309,
      "data": "0x",
      "r": "0xd26311a7733e7dfc72975bc109c438e16fe7a7b38e6b833bfa6951505fff5fdb",
      "s": "0x44dbaa4d7fe33f9833a489c8971767a26b8f64e71da9e7afcea0aa2efb3acd23",
      "v": 27,
      "creates": null,
      "raw": "0xf86e8210d5850daf50c9558255f094c1bed23f5a2ba19a363215fc2c288fd8ee533e158849bec923af3ee910801ba0d26311a7733e7dfc72975bc109c438e16fe7a7b38e6b833bfa6951505fff5fdba044dbaa4d7fe33f9833a489c8971767a26b8f64e71da9e7afcea0aa2efb3acd23",
      "networkId": 0,
      "chainId": 0
    },
    {
      "hash": "0xdd8391dfe0a25fe2bc763ee78fd2754193071a5499e92bf124de7a94d3093802",
      "blockHash": "0x806427438793ad8c42d07ad6d77dce7b53f0c11ed112f152138ab1088ebc2251",
      "blockNumber": 110335,
      "transactionIndex": 1,
      "confirmations": null,
      "from": "0xe6A7a1d47ff21B6321162AEA7C6CB457D5476Bca",
      "gasPrice": {
        "_hex": "0xd8995b99a"
      },
      "gasLimit": {
        "_hex": "0x55f0"
      },
      "to": "0x790b8a3cE86E707ED0eD32bF89B3269692a23CC1",
      "value": {
        "_hex": "0x49dca157f992b238"
      },
      "nonce": 4310,
      "data": "0x",
      "r": "0xb869df492b955751b1ab5291a94949c3c634fb485ac7cbb56e0e6b211416d3f2",
      "s": "0x05b108b4f56a4118072e854d3085d94afb1c3e13687bb3933015fda81b69629a",
      "v": 28,
      "creates": null,
      "raw": "0xf86e8210d6850d8995b99a8255f094790b8a3ce86e707ed0ed32bf89b3269692a23cc18849dca157f992b238801ca0b869df492b955751b1ab5291a94949c3c634fb485ac7cbb56e0e6b211416d3f2a005b108b4f56a4118072e854d3085d94afb1c3e13687bb3933015fda81b69629a",
      "networkId": 0,
      "chainId": 0
    },
    {
      "hash": "0x8b1657be87a8fc670f98b5ce775c3a2ca0a0aeb3a67c73ac56a041286d81280c",
      "blockHash": "0x806427438793ad8c42d07ad6d77dce7b53f0c11ed112f152138ab1088ebc2251",
      "blockNumber": 110335,
      "transactionIndex": 2,
      "confirmations": null,
      "from": "0xe6A7a1d47ff21B6321162AEA7C6CB457D5476Bca",
      "gasPrice": {
        "_hex": "0xd8995b99a"
      },
      "gasLimit": {
        "_hex": "0x55f0"
      },
      "to": "0x037658E13e294088Cfd16A534b9C1F3B37282eB2",
      "value": {
        "_hex": "0x49ee1d5c0347e2f8"
      },
      "nonce": 4311,
      "data": "0x",
      "r": "0x73b0749de116bebaeee538aa72ed306f849a1e7c9624854c05c927b15fe34454",
      "s": "0x2f4622281f77e4e17746adcc3a7e12a2a6a2b906ffef8a5160da4d68fc9d7a3f",
      "v": 27,
      "creates": null,
      "raw": "0xf86e8210d7850d8995b99a8255f094037658e13e294088cfd16a534b9c1f3b37282eb28849ee1d5c0347e2f8801ba073b0749de116bebaeee538aa72ed306f849a1e7c9624854c05c927b15fe34454a02f4622281f77e4e17746adcc3a7e12a2a6a2b906ffef8a5160da4d68fc9d7a3f",
      "networkId": 0,
      "chainId": 0
    },
    {
      "hash": "0x6f69829cd1c26ae0841c76acaf7b04633aba9dac5a2e05baccb38ebee62e9ce0",
      "blockHash": "0x806427438793ad8c42d07ad6d77dce7b53f0c11ed112f152138ab1088ebc2251",
      "blockNumber": 110335,
      "transactionIndex": 3,
      "confirmations": null,
      "from": "0xe6A7a1d47ff21B6321162AEA7C6CB457D5476Bca",
      "gasPrice": {
        "_hex": "0xd8995b99a"
      },
      "gasLimit": {
        "_hex": "0x55f0"
      },
      "to": "0x3205cd1aC9e2Bb844A056D57E3f2463613554677",
      "value": {
        "_hex": "0x4ac56e43066d7f50"
      },
      "nonce": 4312,
      "data": "0x",
      "r": "0x9cff0c57a16740bc8e64555a7991b79cf5171def442f4b3485afc8c889fbb2f9",
      "s": "0x0e33315b22c5da8f1f60ae7f479db96e4b8e2642605924a560d07546b12e2b23",
      "v": 27,
      "creates": null,
      "raw": "0xf86e8210d8850d8995b99a8255f0943205cd1ac9e2bb844a056d57e3f2463613554677884ac56e43066d7f50801ba09cff0c57a16740bc8e64555a7991b79cf5171def442f4b3485afc8c889fbb2f9a00e33315b22c5da8f1f60ae7f479db96e4b8e2642605924a560d07546b12e2b23",
      "networkId": 0,
      "chainId": 0
    },
    {
      "hash": "0x40441aa1f3f9735def5a2ab1dffac466aaa619603b6804b194813006a91a165b",
      "blockHash": "0x806427438793ad8c42d07ad6d77dce7b53f0c11ed112f152138ab1088ebc2251",
      "blockNumber": 110335,
      "transactionIndex": 4,
      "confirmations": null,
      "from": "0xe6A7a1d47ff21B6321162AEA7C6CB457D5476Bca",
      "gasPrice": {
        "_hex": "0xd8995b99a"
      },
      "gasLimit": {
        "_hex": "0x55f0"
      },
      "to": "0xA88B1eAe9655f8f49d669A10EA450fC4df44A268",
      "value": {
        "_hex": "0x4b224b7e81c51d78"
      },
      "nonce": 4313,
      "data": "0x",
      "r": "0x6e9857bba9f052f0d5a898edfba7dacf3914012492d840a0b21188db73e9314b",
      "s": "0x49849236af2bf742f1d7f02e3674d8e5983d8d074e6e821f037aa728d0de0de3",
      "v": 28,
      "creates": null,
      "raw": "0xf86e8210d9850d8995b99a8255f094a88b1eae9655f8f49d669a10ea450fc4df44a268884b224b7e81c51d78801ca06e9857bba9f052f0d5a898edfba7dacf3914012492d840a0b21188db73e9314ba049849236af2bf742f1d7f02e3674d8e5983d8d074e6e821f037aa728d0de0de3",
      "networkId": 0,
      "chainId": 0
    },
    {
      "hash": "0x4b09690ad33e527a70b044cb02949ada970784d99451c321ce0fb3c546a8e4b5",
      "blockHash": "0x806427438793ad8c42d07ad6d77dce7b53f0c11ed112f152138ab1088ebc2251",
      "blockNumber": 110335,
      "transactionIndex": 5,
      "confirmations": null,
      "from": "0xe6A7a1d47ff21B6321162AEA7C6CB457D5476Bca",
      "gasPrice": {
        "_hex": "0xd8995b99a"
      },
      "gasLimit": {
        "_hex": "0x55f0"
      },
      "to": "0x796C24bD0325fc7d33BE618526173a8f4D5083Ce",
      "value": {
        "_hex": "0x4bf83d4bef59d000"
      },
      "nonce": 4314,
      "data": "0x",
      "r": "0xc5f80a9146330e11e14a3a0ceb3dc0997811a999cf1a3c78d8ff4a503ae5cf2a",
      "s": "0x5c09589bfbec7744d70b5a8f975d6a9eac8045806b162a9757329550d424614d",
      "v": 28,
      "creates": null,
      "raw": "0xf86e8210da850d8995b99a8255f094796c24bd0325fc7d33be618526173a8f4d5083ce884bf83d4bef59d000801ca0c5f80a9146330e11e14a3a0ceb3dc0997811a999cf1a3c78d8ff4a503ae5cf2aa05c09589bfbec7744d70b5a8f975d6a9eac8045806b162a9757329550d424614d",
      "networkId": 0,
      "chainId": 0
    },
    {
      "hash": "0xed24ea4ce77310124eb3c18e90caa701d35928878ef87d7b8cff544c08e3035d",
      "blockHash": "0x806427438793ad8c42d07ad6d77dce7b53f0c11ed112f152138ab1088ebc2251",
      "blockNumber": 110335,
      "transactionIndex": 6,
      "confirmations": null,
      "from": "0xe6A7a1d47ff21B6321162AEA7C6CB457D5476Bca",
      "gasPrice": {
        "_hex": "0xd8995b99a"
      },
      "gasLimit": {
        "_hex": "0x55f0"
      },
      "to": "0xc7Dda420b6e858441b9Ea42B762dF14C59552fbb",
      "value": {
        "_hex": "0x4d00a4f22ea5fc90"
      },
      "nonce": 4315,
      "data": "0x",
      "r": "0xe5dda03f2eda9a64ea19e6f4eb2968d16285759c7105b8fb21f666d503456dc6",
      "s": "0x348466b362801890e11eb8eeddc71f6dea887b528691a26823d3a79ccd67c4cc",
      "v": 27,
      "creates": null,
      "raw": "0xf86e8210db850d8995b99a8255f094c7dda420b6e858441b9ea42b762df14c59552fbb884d00a4f22ea5fc90801ba0e5dda03f2eda9a64ea19e6f4eb2968d16285759c7105b8fb21f666d503456dc6a0348466b362801890e11eb8eeddc71f6dea887b528691a26823d3a79ccd67c4cc",
      "networkId": 0,
      "chainId": 0
    },
    {
      "hash": "0x27e9ab49015c1aa40174d9d6d734bc36116c27b0da714dead57768a9aaa39b63",
      "blockHash": "0x806427438793ad8c42d07ad6d77dce7b53f0c11ed112f152138ab1088ebc2251",
      "blockNumber": 110335,
      "transactionIndex": 7,
      "confirmations": null,
      "from": "0x3b09EfC81d5e3F72737B4063883CEDdfBc79ae88",
      "gasPrice": {
        "_hex": "0xd57889d24"
      },
      "gasLimit": {
        "_hex": "0x5208"
      },
      "to": "0x32Be343B94f860124dC4fEe278FDCBD38C102D88",
      "value": {
        "_hex": "0x165736b4579a8800"
      },
      "nonce": 7,
      "data": "0x",
      "r": "0xf22d2e6bda970cbd74dd703a0535681b72feaffaa3111acc820f1ee69eac3af6",
      "s": "0x2a54606c0ef6c1ac8fe2e288240aecca8f1393f32aa019caf2221cceba1e50f1",
      "v": 27,
      "creates": null,
      "raw": "0xf86c07850d57889d248252089432be343b94f860124dc4fee278fdcbd38c102d8888165736b4579a8800801ba0f22d2e6bda970cbd74dd703a0535681b72feaffaa3111acc820f1ee69eac3af6a02a54606c0ef6c1ac8fe2e288240aecca8f1393f32aa019caf2221cceba1e50f1",
      "networkId": 0,
      "chainId": 0
    }
  ]
}