{
  "hash": "0x424cbad519b36218b848a3e68b54fa7f68d1184761b27fe0b632fb163bb724fc",
  "parentHash": "0x26322e55e457d7267be12885bce542adca6a8d31406335ef3ee7e6805eac6603",
  "number": 120798,
  "timestamp": 1440166061,
  "nonce": "0xcbe72fb933a222a8",
  "difficulty": 4445514728446,
  "gasLimit": {
    "_hex": "0x2fefd8"
  },
  "gasUsed": {
    "_hex": "0xf618"
  },
  "miner": "0xe6A7a1d47ff21B6321162AEA7C6CB457D5476Bca",
  "extraData": "0xd783010002844765746887676f312e342e32856c696e7578",
  "transactions": [
    {
      "hash": "0xfa5b44c93e59084eb246a1cf2d712376dd9c181e080b979de76c25a3fa6f7e5f",
      "blockHash": "0x424cbad519b36218b848a3e68b54fa7f68d1184761b27fe0b632fb163bb724fc",
      "blockNumber": 120798,
      "transactionIndex": 0,
      "confirmations": null,
      "from": "0x847B8DC7fE5FCEbda3c7b5171d9bCaB859784261",
      "gasPrice": {
        "_hex": "0xba43b7400"
      },
      "gasLimit": {
        "_hex": "0x15f90"
      },
      "to": "0x0A38f5Ba343D4eA8641F955ecf98e1c43dF1B5a3",
      "value": {
        "_hex": "0xde0b6b3a7640000"
      },
      "nonce": 0,
      "data": "0x",
      "r": "0xebff53c0175b48137bca7c4cf878d944395dd09d49f7fe9ef17ac7f3e749cefa",
      "s": "0x7c159063dee9dc011d3348d1ed34c0d3a78fb5b763d15350dc5718629b90048e",
      "v": 27,
      "creates": null,
      "raw": "0xf86d80850ba43b740083015f90940a38f5ba343d4ea8641f955ecf98e1c43df1b5a3880de0b6b3a7640000801ba0ebff53c0175b48137bca7c4cf878d944395dd09d49f7fe9ef17ac7f3e749cefaa07c159063dee9dc011d3348d1ed34c0d3a78fb5b763d15350dc5718629b90048e",
      "networkId": 0,
      "chainId": 0
    },
    {
      "hash": "0x019dbc5ebfb92ef5bc767c25456ab0dcbd21833a133a4959422a6c3c4024fe0f",
      "blockHash": "0x424cbad519b36218b848a3e68b54fa7f68d1184761b27fe0b632fb163bb724fc",
      "blockNumber": 120798,
      "transactionIndex": 1,
      "confirmations": null,
      "from": "0x790b8a3cE86E707ED0eD32bF89B3269692a23CC1",
      "gasPrice": {
        "_hex": "0xba43b7400"
      },
      "gasLimit": {
        "_hex": "0x15f90"
      },
      "to": "0x4D67f4F0Db45b3B5a3424B39ed8d972F710381D5",
      "value": {
        "_hex": "0x2f9e3fb2098f20000"
      },
      "nonce": 73,
      "data": "0x",
      "r": "0x052d27fd07f6f381277751ee4fb48e5b0471e88c2d21022453d7705df55702b1",
      "s": "0x03359f1d82ba62aa006cb462e6d56852e66ff4b6f8cd8812fc0970661b6221a7",
      "v": 28,
      "creates": null,
      "raw": "0xf86e49850ba43b740083015f90944d67f4f0db45b3b5a3424b39ed8d972f710381d58902f9e3fb2098f20000801ca0052d27fd07f6f381277751ee4fb48e5b0471e88c2d21022453d7705df55702b1a003359f1d82ba62aa006cb462e6d56852e66ff4b6f8cd8812fc0970661b6221a7",
      "networkId": 0,
      "chainId": 0
    },
    {
      "hash": "0x7d28b366e05705fcda272c40ec8cce3fb1c8241426b2ba21a0798867bc10d5c4",
      "blockHash": "0x424cbad519b36218b848a3e68b54fa7f68d1184761b27fe0b632fb163bb724fc",
      "blockNumber": 120798,
      "transactionIndex": 2,
      "confirmations": null,
      "from": "0x32Be343B94f860124dC4fEe278FDCBD38C102D88",
      "gasPrice": {
        "_hex": "0xba43b7400"
      },
      "gasLimit": {
        "_hex": "0x5208"
      },
      "to": "0x58c977DFA4D86E0B9d663F0Fd3869b3bF8fc6Df9",
      "value": {
        "_hex": "0x1043561a8829300000"
      },
      "nonce": 1537,
      "data": "0x",
      "r": "0xf503dde319c78480e7e0a19c5769aeb66ab29c999113d83f9a4220c318f3bb1d",
      "s": "0x36fa23d9d3d8d8b86e8f7a54f4d90d0e2ec83f7f4059e706053843a165e6e525",
      "v": 27,
      "creates": null,
      "raw": "0xf86f820601850ba43b74008252089458c977dfa4d86e0b9d663f0fd3869b3bf8fc6df9891043561a8829300000801ba0f503dde319c78480e7e0a19c5769aeb66ab29c999113d83f9a4220c318f3bb1da036fa23d9d3d8d8b86e8f7a54f4d90d0e2ec83f7f4059e706053843a165e6e525",
      "networkId": 0,
      "chainId": 0
    }
  ]
}