{
  "hash": "0xccaead824199fa398ff57945549487f5d7ae0324e167a14dd4b720cf2008b220",
  "parentHash": "0x8cceda546cecd39dd945480f5f3ca6e9695425ed8886c6cb44d7880241204e45",
  "number": 59807,
  "timestamp": 1439144021,
  "nonce": "0x360ccb1c93d5629e",
  "difficulty": 1720514393202,
  "gasLimit": {
    "_hex": "0x2fefd5"
  },
  "gasUsed": {
    "_hex": "0x5208"
  },
  "miner": "0x157c6f2431eB1a95797EE86F7d17b3c0FD47A247",
  "extraData": "0x476574682f76312e302e312f77696e646f77732f676f312e342e32",
  "transactions": [
    {
      "hash": "0x8324525b97bd35e51d6ca9777137f695f092ec839e0cee156d828c56209e1046",
      "blockHash": "0xccaead824199fa398ff57945549487f5d7ae0324e167a14dd4b720cf2008b220",
      "blockNumber": 59807,
      "transactionIndex": 0,
      "confirmations": null,
      "from": "0xB0bF4A71F730782368Ef660FE6D298F432F95450",
      "gasPrice": {
        "_hex": "0xd8aaffddb"
      },
      "gasLimit": {
        "_hex": "0x5208"
      },
      "to": "0x32Be343B94f860124dC4fEe278FDCBD38C102D88",
      "value": {
        "_hex": "0x1b1ae0744c12440000"
      },
      "nonce": 8,
      "data": "0x",
      "r": "0xf4e26ccb80a1ac3dec543829751cbf1c95ae740958e9c99ad791df1efbbdca6b",
      "s": "0x1abf9b3b8c7ad042c503be624fbe78174fafe6628c75b74d34e81d1f40070ff0",
      "v": 27,
      "creates": null,
      "raw": "0xf86d08850d8aaffddb8252089432be343b94f860124dc4fee278fdcbd38c102d88891b1ae0744c12440000801ba0f4e26ccb80a1ac3dec543829751cbf1c95ae740958e9c99ad791df1efbbdca6ba01abf9b3b8c7ad042c503be624fbe78174fafe6628c75b74d34e81d1f40070ff0",
      "networkId": 0,
      "chainId": 0
    }
  ]
}