{
  "hash": "0x81a6ce3480a6c851b57828b14b4c18cd037a9dcda39c4e71073e2a9323b3ec4c",
  "parentHash": "0x7fb05db40b4b58b7394b380eac5782a9360806a2cbb0bf6d2f963afa036b0973",
  "number": 85046,
  "timestamp": 1439557805,
  "nonce": "0xfdc10811010e1aef",
  "difficulty": 2715801932472,
  "gasLimit": {
    "_hex": "0x2fefd8"
  },
  "gasUsed": {
    "_hex": "0xf618"
  },
  "miner": "0xbb7B8287f3F0a933474a79eAe42CBCa977791171",
  "extraData": "0x476574682f4c5649562f76312e302e312f6c696e75782f676f312e342e32",
  "transactions": [
    {
      "hash": "0x6595989c3d5c12334632f84a0125223c7e8aabaa891d134570ab4c73145f1ced",
      "blockHash": "0x81a6ce3480a6c851b57828b14b4c18cd037a9dcda39c4e71073e2a9323b3ec4c",
      "blockNumber": 85046,
      "transactionIndex": 0,
      "confirmations": null,
      "from": "0xfe8635C30D5b0a49D09Fc9480d59e05d7450fd41",
      "gasPrice": {
        "_hex": "0xcea1aaf71"
      },
      "gasLimit": {
        "_hex": "0x5208"
      },
      "to": "0x32Be343B94f860124dC4fEe278FDCBD38C102D88",
      "value": {
        "_hex": "0x12061ad3e972c000"
      },
      "nonce": 0,
      "data": "0x",
      "r": "0x2de3c35ba33395bfb57fdb296496776c81d99ff63a3226392c3c244cd07c034b",
      "s": "0x6ef5b6fe4c7f4a3a5fa351bf1e335b8c106c9dee36313bf282942ff3cd053c6d",
      "v": 27,
      "creates": null,
      "raw": "0xf86c80850cea1aaf718252089432be343b94f860124dc4fee278fdcbd38c102d888812061ad3e972c000801ba02de3c35ba33395bfb57fdb296496776c81d99ff63a3226392c3c244cd07c034ba06ef5b6fe4c7f4a3a5fa351bf1e335b8c106c9dee36313bf282942ff3cd053c6d",
      "networkId": 0,
      "chainId": 0
    },
    {
      "hash": "0xd4639e8492aa582440a140cde9cfb6966c7527484da9b8c54fd9fca7b8fdbbc5",
      "blockHash": "0x81a6ce3480a6c851b57828b14b4c18cd037a9dcda39c4e71073e2a9323b3ec4c",
      "blockNumber": 85046,
      "transactionIndex": 1,
      "confirmations": null,
      "from": "0xA1A13F48D504123E1d50e360267F894e8e43838c",
      "gasPrice": {
        "_hex": "0xba43b7400"
      },
      "gasLimit": {
        "_hex": "0x5208"
      },
      "to": "0xC47Aaa860008be6f65B58c6C6E02a84e666EfE31",
      "value": {
        "_hex": "0x251c17956f920b00"
      },
      "nonce": 0,
      "data": "0x",
      "r": "0x32c696706685a14a4ffe855308f038796aaffdb8de1448f3a99504dc28b4ccf9",
      "s": "0x2da9dd204674506dee3cb8a7b97f8ed92a3622bfc86022a6c8cd0ff677bd5e4a",
      "v": 28,
      "creates": null,
      "raw": "0xf86c80850ba43b740082520894c47aaa860008be6f65b58c6c6e02a84e666efe3188251c17956f920b00801ca032c696706685a14a4ffe855308f038796aaffdb8de1448f3a99504dc28b4ccf9a02da9dd204674506dee3cb8a7b97f8ed92a3622bfc86022a6c8cd0ff677bd5e4a",
      "networkId": 0,
      "chainId": 0
    },
    {
      "hash": "0x73e04ee71fd8d00271b756fb65525688ea1dd2030fb9b6751a14fd123d6d0980",
      "blockHash": "0x81a6ce3480a6c851b57828b14b4c18cd037a9dcda39c4e71073e2a9323b3ec4c",
      "blockNumber": 85046,
      "transactionIndex": 2,
      "confirmations": null,
      "from": "0x4C9560759adF54ABEdd7318d1413C4fA49240074",
      "gasPrice": {
        "_hex": "0xba43b7400"
      },
      "gasLimit": {
        "_hex": "0x5208"
      },
      "to": "0xC47Aaa860008be6f65B58c6C6E02a84e666EfE31",
      "value": {
        "_hex": "0x2632a813ab791ac0"
      },
      "nonce": 1,
      "data": "0x",
      "r": "0xd9407af303a877d327bc32e63159df96526f0f2388b6b7d37e30b00618da0656",
      "s": "0x44e2a76b7510af2b214df9c514b8fe829d777bb186cd45bc7a809121432626ed",
      "v": 28,
      "creates": null,
      "raw": "0xf86c01850ba43b740082520894c47aaa860008be6f65b58c6c6e02a84e666efe31882632a813ab791ac0801ca0d9407af303a877d327bc32e63159df96526f0f2388b6b7d37e30b00618da0656a044e2a76b7510af2b214df9c514b8fe829d777bb186cd45bc7a809121432626ed",
      "networkId": 0,
      "chainId": 0
    }
  ]
}