{
  "hash": "0x95de1901657ced2f9d46e3247a5650659a0e31625f332125acf26d99d8b9b7f8",
  "parentHash": "0x488bbd3aee95c7803b3aef50590ab1cc7336f359a1183f9dd021e18f8229fb1c",
  "number": 48500,
  "timestamp": 1438958192,
  "nonce": "0xd835872919f9fcd1",
  "difficulty": 1461437320120,
  "gasLimit": {
    "_hex": "0x184aa"
  },
  "gasUsed": {
    "_hex": "0xa8d8"
  },
  "miner": "0xB7f5530DF01aeFE061dAbFA6E778eE694157A71f",
  "extraData": "0x476574682f76312e302e312f6c696e75782f676f312e342e32",
  "transactions": [
    {
      "hash": "0x395ee184d4fc5b9999181de2d6c1f965fbc3146abb8542eda152dc203efdce52",
      "blockHash": "0x95de1901657ced2f9d46e3247a5650659a0e31625f332125acf26d99d8b9b7f8",
      "blockNumber": 48500,
      "transactionIndex": 0,
      "confirmations": null,
      "from": "0x5584a5A361e70D0757D8Ca2B151f041136C9C28a",
      "gasPrice": {
        "_hex": "0x10c85d9fb24"
      },
      "gasLimit": {
        "_hex": "0x15f90"
      },
      "to": "0x2910543Af39abA0Cd09dBb2D50200b3E800A63D2",
      "value": {
        "_hex": "0x56bc75e2d63100000"
      },
      "nonce": 2,
      "data": "0x454e433933464b3330",
      "r": "0x37b89e4269a4b70e1f0c0cbd7e65ad9c41e85dbae34c26d41a2c4c746b9de4c9",
      "s": "0x5798735d1b2154f9be3028c90965a16747407a7b6baf4094384522b390132c63",
      "v": 28,
      "creates": null,
      "raw": "0xf8780286010c85d9fb2483015f90942910543af39aba0cd09dbb2d50200b3e800a63d289056bc75e2d6310000089454e433933464b33301ca037b89e4269a4b70e1f0c0cbd7e65ad9c41e85dbae34c26d41a2c4c746b9de4c9a05798735d1b2154f9be3028c90965a16747407a7b6baf4094384522b390132c63",
      "networkId": 0,
      "chainId": 0
    },
    {
      "hash": "0x5c0f06171bb3c207fcc10ef1a798735e3ee6d5607ac59e252f350733bb9ab0bc",
      "blockHash": "0x95de1901657ced2f9d46e3247a5650659a0e31625f332125acf26d99d8b9b7f8",
      "blockNumber": 48500,
      "transactionIndex": 1,
      "confirmations": null,
      "from": "0xf49c47b3Efd86b6E6A5bC9418D1F9fEC814b69Ef",
      "gasPrice": {
        "_hex": "0xe8d4a51000"
      },
      "gasLimit": {
        "_hex": "0x55f0"
      },
      "to": "0x2910543Af39abA0Cd09dBb2D50200b3E800A63D2",
      "value": {
        "_hex": "0x416336d498407ac0000"
      },
      "nonce": 1,
      "data": "0x454e4134384a5a4d52",
      "r": "0xa9005f67ba1cf7f597321446a991bc143f9a06a977230c4860f50aa36a0b5f59",
      "s": "0x7394b8804568f2b2ff03c19b6d6955cbea65e8debfc5cf93ebd0b09138f384c5",
      "v": 27,
      "creates": null,
      "raw": "0xf8770185e8d4a510008255f0942910543af39aba0cd09dbb2d50200b3e800a63d28a0416336d498407ac000089454e4134384a5a4d521ba0a9005f67ba1cf7f597321446a991bc143f9a06a977230c4860f50aa36a0b5f59a07394b8804568f2b2ff03c19b6d6955cbea65e8debfc5cf93ebd0b09138f384c5",
      "networkId": 0,
      "chainId": 0
    }
  ]
}