{
  "hash": "0x99fa40e020056522f6e0117e43dcd0ab7e1263ddd4fb58cf7cbe930247875e15",
  "parentHash": "0x567d15c9c821894bde95bf186ed505daa2264b63f17760251883219470456eef",
  "number": 80211,
  "timestamp": 1439481884,
  "nonce": "0x58425906952df7ea",
  "difficulty": 2375923736291,
  "gasLimit": {
    "_hex": "0x2fefd8"
  },
  "gasUsed": {
    "_hex": "0x5208"
  },
  "miner": "0x2134e2a2b718DCa96580ECAC31E653Ea1fdd58DA",
  "extraData": "0x476574682f76312e302e312f77696e646f77732f676f312e342e32",
  "transactions": [
    {
      "hash": "0xa45bdd1504c9dd2464ce311f512158e2b7c336e3663ac726561a0f6b9a778943",
      "blockHash": "0x99fa40e020056522f6e0117e43dcd0ab7e1263ddd4fb58cf7cbe930247875e15",
      "blockNumber": 80211,
      "transactionIndex": 0,
      "confirmations": null,
      "from": "0xBD744E3F13D79B33F6c8E1d5E32F8E9BA2866c46",
      "gasPrice": {
        "_hex": "0xd6badd51e"
      },
      "gasLimit": {
        "_hex": "0x5208"
      },
      "to": "0xD2e57181beE0BF25a2E7D377EaCCec854Bd65334",
      "value": {
        "_hex": "0x56bc75e2d63100000"
      },
      "nonce": 14,
      "data": "0x",
      "r": "0x09773efc712fa2892663355ef6b4d947013028124e412201010d29d9b4b63c5f",
      "s": "0x64647a48a2358fc07d6b9a10bbf2a118a63264fbd4c7f4c7a955d9361ffe7a7f",
      "v": 28,
      "creates": null,
      "raw": "0xf86d0e850d6badd51e82520894d2e57181bee0bf25a2e7d377eaccec854bd6533489056bc75e2d63100000801ca009773efc712fa2892663355ef6b4d947013028124e412201010d29d9b4b63c5fa064647a48a2358fc07d6b9a10bbf2a118a63264fbd4c7f4c7a955d9361ffe7a7f",
      "networkId": 0,
      "chainId": 0
    }
  ]
}