{
  "hash": "0xa6ca22ff252af2b9d044da73d791db5b02112e25f8821dfe34aa1beeb982301a",
  "parentHash": "0x4965bad8b3e0a2dc502a90bbfa10e2e96b5644720fa2cd6a37ea5dba60a2fcc2",
  "number": 55479,
  "timestamp": 1439071294,
  "nonce": "0xced05c719adb9fdc",
  "difficulty": 1631383304623,
  "gasLimit": {
    "_hex": "0x2fefd8"
  },
  "gasUsed": {
    "_hex": "0xddfd"
  },
  "miner": "0xE4C6175183029A0f039bf2DFffa5C6e8F3cA9B23",
  "extraData": "0x",
  "transactions": [
    {
      "hash": "0xde97a9979ddbc6265819192da74d73a55cfad347bb5d26f33b6f174c2584f531",
      "blockHash": "0xa6ca22ff252af2b9d044da73d791db5b02112e25f8821dfe34aa1beeb982301a",
      "blockNumber": 55479,
      "transactionIndex": 0,
      "confirmations": null,
      "from": "0x0028795F5139935918A4176C80b01d32549E2819",
      "gasPrice": {
        "_hex": "0xd9993c42c"
      },
      "gasLimit": {
        "_hex": "0x7a120"
      },
      "to": "0xBAA54d6E90c3F4d7Ebec11bD180134C7eD8eBb52",
      "value": {
        "_hex": "0x16345785d8a0000"
      },
      "nonce": 2,
      "data": "0x",
      "r": "0x50899c0b5c9b9217244b1e72b475ec3ed48800108fc2493e306cf09b764847c7",
      "s": "0x292d48ff27c323b59372efcc7921df0535eeccd65d4dff9c7afcaf01515d73ee",
      "v": 28,
      "creates": null,
      "raw": "0xf86d02850d9993c42c8307a12094baa54d6e90c3f4d7ebec11bd180134c7ed8ebb5288016345785d8a0000801ca050899c0b5c9b9217244b1e72b475ec3ed48800108fc2493e306cf09b764847c7a0292d48ff27c323b59372efcc7921df0535eeccd65d4dff9c7afcaf01515d73ee",
      "networkId": 0,
      "chainId": 0
    }
  ]
}