{
  "hash": "0x1f4b2121af24689db55c28cbfd284a3be79b29e74657ed374b4600de0ac98cff",
  "parentHash": "0xdb9189e6db0526fded1bf41e78d51149037d4ea6e8e11a74cc14fcbcf15366dc",
  "number": 76193,
  "timestamp": 1439416378,
  "nonce": "0x0adfe17877513bad",
  "difficulty": 2235224888154,
  "gasLimit": {
    "_hex": "0x2fefd8"
  },
  "gasUsed": {
    "_hex": "0x5208"
  },
  "miner": "0xe6A7a1d47ff21B6321162AEA7C6CB457D5476Bca",
  "extraData": "0x476574682f76312e302e312d38326566323666362f6c696e75782f676f312e34",
  "transactions": [
    {
      "hash": "0x61e464c77a2a042d0c5a50dda125af814a834af54553afc912fadd93621922ba",
      "blockHash": "0x1f4b2121af24689db55c28cbfd284a3be79b29e74657ed374b4600de0ac98cff",
      "blockNumber": 76193,
      "transactionIndex": 0,
      "confirmations": null,
      "from": "0x64CF897D51472Dc7CfF0e6368EB15B9e2d5168E3",
      "gasPrice": {
        "_hex": "0x746a528800"
      },
      "gasLimit": {
        "_hex": "0x5b04"
      },
      "to": "0x9bc6B0dEB59eF75AeDe905EBa5a779514F43D409",
      "value": {
        "_hex": "0x6c5db2a4d815dc0000"
      },
      "nonce": 12,
      "data": "0x",
      "r": "0x121bbbbac46eda6fdbdc461aafd1fcdd0cd54af35124bca5df02878cf76d09da",
      "s": "0x37bd98a38bc7f3481915f81382a03aa529860c4f0a3533217f8bfb9777153655",
      "v": 28,
      "creates": null,
      "raw": "0xf86d0c85746a528800825b04949bc6b0deb59ef75aede905eba5a779514f43d409896c5db2a4d815dc0000801ca0121bbbbac46eda6fdbdc461aafd1fcdd0cd54af35124bca5df02878cf76d09daa037bd98a38bc7f3481915f81382a03aa529860c4f0a3533217f8bfb9777153655",
      "networkId": 0,
      "chainId": 0
    }
  ]
}