{
  "hash": "0xce6e796149af8e25c40c8169baee124f648063e5bfade146b457bf7f622b1fe3",
  "parentHash": "0x6ccf48ba606105208eeccf6ea76fb7927ebf0d20694b6b9ed44aecdd2ccc1a3e",
  "number": 55499,
  "timestamp": 1439071694,
  "nonce": "0x32017fd8378b8020",
  "difficulty": 1626606977138,
  "gasLimit": {
    "_hex": "0x2fefd8"
  },
  "gasUsed": {
    "_hex": "0x546c"
  },
  "miner": "0x1B7047b4338ACf65bE94C1A3e8c5c9338ad7d67C",
  "extraData": "0x476574682f76312e302e312d38326566323666362f6c696e75782f676f312e34",
  "transactions": [
    {
      "hash": "0x21b349e4917c27b9115ded8b7a7bb8abe891fcd6e86a6853cf724eccc5130653",
      "blockHash": "0xce6e796149af8e25c40c8169baee124f648063e5bfade146b457bf7f622b1fe3",
      "blockNumber": 55499,
      "transactionIndex": 0,
      "confirmations": null,
      "from": "0xB537d36A70EEb8d3e5c80dE815225c1158cb92C4",
      "gasPrice": {
        "_hex": "0x110c8f7d8de"
      },
      "gasLimit": {
        "_hex": "0xc350"
      },
      "to": "0x2910543Af39abA0Cd09dBb2D50200b3E800A63D2",
      "value": {
        "_hex": "0x363466684d81160000"
      },
      "nonce": 1,
      "data": "0x454e38453751304e38",
      "r": "0xac878db9f415d6cd733a70ed52fef3d7561550aacf32053bea4dcbc284339521",
      "s": "0xcec97fdb44efe540f2fad52ec1dfdc86bef15f49bb99bc568ed1251ecab34710",
      "v": 27,
      "creates": null,
      "raw": "0xf87701860110c8f7d8de82c350942910543af39aba0cd09dbb2d50200b3e800a63d289363466684d8116000089454e38453751304e381ba0ac878db9f415d6cd733a70ed52fef3d7561550aacf32053bea4dcbc284339521a0cec97fdb44efe540f2fad52ec1dfdc86bef15f49bb99bc568ed1251ecab34710",
      "networkId": 0,
      "chainId": 0
    }
  ]
}