{
  "hash": "0x84780f865c2c2ea3ed31070fb2853315829262f71fa1453b48f6cefe0fa952ce",
  "parentHash": "0xc7411336d4170b365501dafdb0b2a0f6ebc30a9373d39eb44223874b796b3094",
  "number": 69374,
  "timestamp": 1439303027,
  "nonce": "0x304165eac309658e",
  "difficulty": 2053828283209,
  "gasLimit": {
    "_hex": "0x2fefd8"
  },
  "gasUsed": {
    "_hex": "0x5208"
  },
  "miner": "0x88C96e25787Fd9e2746F7Ce708f2285eCC16348f",
  "extraData": "0x476574682f76312e302e312f77696e646f77732f676f312e342e32",
  "transactions": [
    {
      "hash": "0xdcee83b24c59f71d036b0de39af8b43cc6f1130afbb27c7bf3be7cd845d0b5b6",
      "blockHash": "0x84780f865c2c2ea3ed31070fb2853315829262f71fa1453b48f6cefe0fa952ce",
      "blockNumber": 69374,
      "transactionIndex": 0,
      "confirmations": null,
      "from": "0x120A270bbC009644e35F0bB6ab13f95b8199c4ad",
      "gasPrice": {
        "_hex": "0xd28bad372"
      },
      "gasLimit": {
        "_hex": "0x15f90"
      },
      "to": "0x63116ca569ba01384f4B68C196f4745cf45C7d11",
      "value": {
        "_hex": "0x2a8966938f3aed0400"
      },
      "nonce": 177,
      "data": "0x",
      "r": "0xfce225aba8933aa47cb613bbf607ac87d7328ef6a28fd98ec79b22a227251b8b",
      "s": "0x2123bc7c092315cf9782f1d0fbe7e78c7e9f0ad4f9ce2291d6b6e13830a31d39",
      "v": 27,
      "creates": null,
      "raw": "0xf86f81b1850d28bad37283015f909463116ca569ba01384f4b68c196f4745cf45c7d11892a8966938f3aed0400801ba0fce225aba8933aa47cb613bbf607ac87d7328ef6a28fd98ec79b22a227251b8ba02123bc7c092315cf9782f1d0fbe7e78c7e9f0ad4f9ce2291d6b6e13830a31d39",
      "networkId": 0,
      "chainId": 0
    }
  ]
}