{
  "hash": "0x2651c4c241cc67ef2599bffe7a8b64b4a548fea641508fb9d97f9c172e1250f0",
  "parentHash": "0xfc8b3bf18a7c0bf199f65ed61845e8d6af9181b4775770cf11174d228df5569e",
  "number": 112690,
  "timestamp": 1440011508,
  "nonce": "0xb324ca4e967e0985",
  "difficulty": 4419498696939,
  "gasLimit": {
    "_hex": "0x2fefd8"
  },
  "gasUsed": {
    "_hex": "0x802c8"
  },
  "miner": "0xe6A7a1d47ff21B6321162AEA7C6CB457D5476Bca",
  "extraData": "0x476574682f76312e302e312d38326566323666362f6c696e75782f676f312e34",
  "transactions": [
    {
      "hash": "0xdf42c02647974ac09049a687aff41d538927be0a1990db1cb93c0648fe5df99b",
      "blockHash": "0x2651c4c241cc67ef2599bffe7a8b64b4a548fea641508fb9d97f9c172e1250f0",
      "blockNumber": 112690,
      "transactionIndex": 0,
      "confirmations": null,
      "from": "0x8461Ecc4a6A45eb1a5b947FB86B88069b91fcD6F",
      "gasPrice": {
        "_hex": "0x10e6196ff4c"
      },
      "gasLimit": {
        "_hex": "0x7530"
      },
      "to": "0x6A62b5108FE4EDDd296093fFB802B67B85E90ddE",
      "value": {
        "_hex": "0x2f534f0aa5d4040000"
      },
      "nonce": 6,
      "data": "0x",
      "r": "0x581fd6c15b98e2bda9ec2b44ee357f0019484aa30f286ba6734e6eacd616636a",
      "s": "0x190db81e84915a7f45054fad40984245259b2e94477088782ef7e591d801b0bb",
      "v": 27,
      "creates": null,
      "raw": "0xf86e0686010e6196ff4c827530946a62b5108fe4eddd296093ffb802b67b85e90dde892f534f0aa5d4040000801ba0581fd6c15b98e2bda9ec2b44ee357f0019484aa30f286ba6734e6eacd616636aa0190db81e84915a7f45054fad40984245259b2e94477088782ef7e591d801b0bb",
      "networkId": 0,
      "chainId": 0
    },
    {
      "hash": "0x67b7bd3def78cc4a07e5dbed28f74a667fcbf0a8b941870cafb026107f9f8a15",
      "blockHash": "0x2651c4c241cc67ef2599bffe7a8b64b4a548fea641508fb9d97f9c172e1250f0",
      "blockNumber": 112690,
      "transactionIndex": 1,
      "confirmations": null,
      "from": "0xe6A7a1d47ff21B6321162AEA7C6CB457D5476Bca",
      "gasPrice": {
        "_hex": "0xd6efa3bec"
      },
      "gasLimit": {
        "_hex": "0x55f0"
      },
      "to": "0x27e806e70622d2864e1B1f4426D72FFb0457C83a",
      "value": {
        "_hex": "0x47f11edc0c9498d8"
      },
      "nonce": 4849,
      "data": "0x",
      "r": "0x82cbfdfbee4bf48bdeaa2e97e895520727b0efd4fe86b140e90db7ecce1aa490",
      "s": "0x1c5eefc7de4bf66382724d362e192435b16aa0dd42a00657b2f2cb04ea113fd1",
      "v": 27,
      "creates": null,
      "raw": "0xf86e8212f1850d6efa3bec8255f09427e806e70622d2864e1b1f4426d72ffb0457c83a8847f11edc0c9498d8801ba082cbfdfbee4bf48bdeaa2e97e895520727b0efd4fe86b140e90db7ecce1aa490a01c5eefc7de4bf66382724d362e192435b16aa0dd42a00657b2f2cb04ea113fd1",
      "networkId": 0,
      "chainId": 0
    },
    {
      "hash": "0x1c63b7fc99a5102b3f12ae0f93eda786a48cfee6ca842e1a9b6953415a1e494f",
      "blockHash": "0x2651c4c241cc67ef2599bffe7a8b64b4a548fea641508fb9d97f9c172e1250f0",
      "blockNumber": 112690,
      "transactionIndex": 2,
      "confirmations": null,
      "from": "0xe6A7a1d47ff21B6321162AEA7C6CB457D5476Bca",
      "gasPrice": {
        "_hex": "0xd6efa3bec"
      },
      "gasLimit": {
        "_hex": "0x55f0"
      },
      "to": "0x4EF5e475724b7c945A4bdbB1Be68d76103bA9013",
      "value": {
        "_hex": "0x484eabcd958617a8"
      },
      "nonce": 4850,
      "data": "0x",
      "r": "0x3a7b384b142c9a4fb549ef10d47544e4f7392432ce526828364564b1301a70c6",
      "s": "0x4f952204fb05fa685bf3352f00a9bc2144dd92c6f5170c9fb65cd7cdde85ea38",
      "v": 28,
      "creates": null,
      "raw": "0xf86e8212f2850d6efa3bec8255f0944ef5e475724b7c945a4bdbb1be68d76103ba901388484eabcd958617a8801ca03a7b384b142c9a4fb549ef10d47544e4f7392432ce526828364564b1301a70c6a04f952204fb05fa685bf3352f00a9bc2144dd92c6f5170c9fb65cd7cdde85ea38",
      "networkId": 0,
      "chainId": 0
    },
    {
      "hash": "0xca552fd313b35afcabb01fddc5dcf20ee9ef040cf69a2c0dee2807368c20b4b2",
      "blockHash": "0x2651c4c241cc67ef2599bffe7a8b64b4a548fea641508fb9d97f9c172e1250f0",
      "blockNumber": 112690,
      "transactionIndex": 3,
      "confirmations": null,
      "from": "0xe6A7a1d47ff21B6321162AEA7C6CB457D5476Bca",
      "gasPrice": {
        "_hex": "0xd6efa3bec"
      },
      "gasLimit": {
        "_hex": "0x55f0"
      },
      "to": "0xf07aAde57CeD1af9a2D538eCcbfD96103f6F2410",
      "value": {
        "_hex": "0x48bd9da99a1cffd8"
      },
      "nonce": 4851,
      "data": "0x",
      "r": "0x5e6978a7cf86747be47aceea914cd849146dcbde44ca4f7a38f4bbcbe7d02a02",
      "s": "0x456c0c038070dbd606420861b11432124c317ad98b6ecf5bfd339b412a4a588c",
      "v": 28,
      "creates": null,
      "raw": "0xf86e8212f3850d6efa3bec8255f094f07aade57ced1af9a2d538eccbfd96103f6f24108848bd9da99a1cffd8801ca05e6978a7cf86747be47aceea914cd849146dcbde44ca4f7a38f4bbcbe7d02a02a0456c0c038070dbd606420861b11432124c317ad98b6ecf5bfd339b412a4a588c",
      "networkId": 0,
      "chainId": 0
    },
    {
      "hash": "0x8a97552e5215646a1037d1a14b73f7cd102d135d47aff2f9725352b3c0c07c9a",
      "blockHash": "0x2651c4c241cc67ef2599bffe7a8b64b4a548fea641508fb9d97f9c172e1250f0",
      "blockNumber": 112690,
      "transactionIndex": 4,
      "confirmations": null,
      "from": "0xe6A7a1d47ff21B6321162AEA7C6CB457D5476Bca",
      "gasPrice": {
        "_hex": "0xd6efa3bec"
      },
      "gasLimit": {
        "_hex": "0x55f0"
      },
      "to": "0x4Ae88c32B4ab8552f9116CAD3560Ffd0e3155007",
      "value": {
        "_hex": "0x49add0ab39248310"
      },
      "nonce": 4852,
      "data": "0x",
      "r": "0xd5548674211c7533393e90771a61eee263a11455df3e4499cefe36d47acd93c0",
      "s": "0x27bbbfe046f56439bc052eaf7dd4ddf0e9a1e98bbb6eb754483cdc56b97d53c7",
      "v": 27,
      "creates": null,
      "raw": "0xf86e8212f4850d6efa3bec8255f0944ae88c32b4ab8552f9116cad3560ffd0e31550078849add0ab39248310801ba0d5548674211c7533393e90771a61eee263a11455df3e4499cefe36d47acd93c0a027bbbfe046f56439bc052eaf7dd4ddf0e9a1e98bbb6eb754483cdc56b97d53c7",
      "networkId": 0,
      "chainId": 0
    },
    {
      "hash": "0x9b3d60e01ae64ab72cfc96c1265dcef52f2c20de3d5a56e9f2b51ebb84f1ee61",
      "blockHash": "0x2651c4c241cc67ef2599bffe7a8b64b4a548fea641508fb9d97f9c172e1250f0",
      "blockNumber": 112690,
      "transactionIndex": 5,
      "confirmations": null,
      "from": "0xe6A7a1d47ff21B6321162AEA7C6CB457D5476Bca",
      "gasPrice": {
        "_hex": "0xd6efa3bec"
      },
      "gasLimit": {
        "_hex": "0x55f0"
      },
      "to": "0x9ac4E9D48C027208905CF2A81f304664A5dAeF87",
      "value": {
        "_hex": "0x4ae9869ec05e2828"
      },
      "nonce": 4853,
      "data": "0x",
      "r": "0x76f320828ecc61bf3084d12876e039c0a4f227c23d161e984f95a2806a478ee9",
      "s": "0x7b35243088a1600926afbb23d4b0e2b2445578e479b777177931fe627b685061",
      "v": 28,
      "creates": null,
      "raw": "0xf86e8212f5850d6efa3bec8255f0949ac4e9d48c027208905cf2a81f304664a5daef87884ae9869ec05e2828801ca076f320828ecc61bf3084d12876e039c0a4f227c23d161e984f95a2806a478ee9a07b35243088a1600926afbb23d4b0e2b2445578e479b777177931fe627b685061",
      "networkId": 0,
      "chainId": 0
    },
    {
      "hash": "0xe4a5ee8671fb7d37feeef439dc002d1bf6fbf3d0694585382422d16e87a20f3a",
      "blockHash": "0x2651c4c241cc67ef2599bffe7a8b64b4a548fea641508fb9d97f9c172e1250f0",
      "blockNumber": 112690,
      "transactionIndex": 6,
      "confirmations": null,
      "from": "0xe6A7a1d47ff21B6321162AEA7C6CB457D5476Bca",
      "gasPrice": {
        "_hex": "0xd6efa3bec"
      },
      "gasLimit": {
        "_hex": "0x55f0"
      },
      "to": "0xcF9DD62019778E76a6B393f0ac4590f03A7429F7",
      "value": {
        "_hex": "0x4c4e5f9c96c4d448"
      },
      "nonce": 4854,
      "data": "0x",
      "r": "0x985f7bac18b7a54b4e1b5c7e5a7d3f88be3b489e7b7c2911c13779ff03eb5570",
      "s": "0x6761e685e51a457114946a4f2e73ba3582d54b3a9902cc318fdf3abd5c5dc1ad",
      "v": 27,
      "creates": null,
      "raw": "0xf86e8212f6850d6efa3bec8255f094cf9dd62019778e76a6b393f0ac4590f03a7429f7884c4e5f9c96c4d448801ba0985f7bac18b7a54b4e1b5c7e5a7d3f88be3b489e7b7c2911c13779ff03eb5570a06761e685e51a457114946a4f2e73ba3582d54b3a9902cc318fdf3abd5c5dc1ad",
      "networkId": 0,
      "chainId": 0
    },
    {
      "hash": "0x7d2f6aef244c6f39f795617884b8071ff047b0df81804c1fb3811b9162f0a89b",
      "blockHash": "0x2651c4c241cc67ef2599bffe7a8b64b4a548fea641508fb9d97f9c172e1250f0",
      "blockNumber": 112690,
      "transactionIndex": 7,
      "confirmations": null,
      "from": "0xe6A7a1d47ff21B6321162AEA7C6CB457D5476Bca",
      "gasPrice": {
        "_hex": "0xd6efa3bec"
      },
      "gasLimit": {
        "_hex": "0x55f0"
      },
      "to": "0x10c4712a317A10F60fE9347b199400d6BaA89558",
      "value": {
        "_hex": "0x4cfeb127496d4300"
      },
      "nonce": 4855,
      "data": "0x",
      "r": "0x2f91333abf705bda576e35eff00f1b7ee9d17a71427378e9279467f08f453f69",
      "s": "0x437b5afc859c62979d91ac9c2df38b2aa7eb3d4abb96e6fae5facd524ea33d56",
      "v": 27,
      "creates": null,
      "raw": "0xf86e8212f7850d6efa3bec8255f09410c4712a317a10f60fe9347b199400d6baa89558884cfeb127496d4300801ba02f91333abf705bda576e35eff00f1b7ee9d17a71427378e9279467f08f453f69a0437b5afc859c62979d91ac9c2df38b2aa7eb3d4abb96e6fae5facd524ea33d56",
      "networkId": 0,
      "chainId": 0
    },
    {
      "hash": "0xf78ac85cd0491222a217678dcf3d4f345bce7ff109f1455bd51438b104dadec9",
      "blockHash": "0x2651c4c241cc67ef2599bffe7a8b64b4a548fea641508fb9d97f9c172e1250f0",
      "blockNumber": 112690,
      "transactionIndex": 8,
      "confirmations": null,
      "from": "0xe6A7a1d47ff21B6321162AEA7C6CB457D5476Bca",
      "gasPrice": {
        "_hex": "0xd6efa3bec"
      },
      "gasLimit": {
        "_hex": "0x55f0"
      },
      "to": "0x18883522e2679aA9b41E0fA688F20c3802897525",
      "value": {
        "_hex": "0x4d3731c777d369f0"
      },
      "nonce": 4856,
      "data": "0x",
      "r": "0xecf8e80d2504edf93d0622036d14f37fed2a11daa574875652a1d21426722dff",
      "s": "0x41cd0b6cda7d09b41bc95f38d5bf6694c3c1f22052ea987ddb6b5a521163690c",
      "v": 27,
      "creates": null,
      "raw": "0xf86e8212f8850d6efa3bec8255f09418883522e2679aa9b41e0fa688f20c3802897525884d3731c777d369f0801ba0ecf8e80d2504edf93d0622036d14f37fed2a11daa574875652a1d21426722dffa041cd0b6cda7d09b41bc95f38d5bf6694c3c1f22052ea987ddb6b5a521163690c",
      "networkId": 0,
      "chainId": 0
    },
    {
      "hash": "0x0a534fc5c47762d7e7e576c60e5dcdf438fa94fc9ecee78e44237c0fe23b86f5",
      "blockHash": "0x2651c4c241cc67ef2599bffe7a8b64b4a548fea641508fb9d97f9c172e1250f0",
      "blockNumber": 112690,
      "transactionIndex": 9,
      "confirmations": null,
      "from": "0xe6A7a1d47ff21B6321162AEA7C6CB457D5476Bca",
      "gasPrice": {
        "_hex": "0xd6efa3bec"
      },
      "gasLimit": {
        "_hex": "0x55f0"
      },
      "to": "0xDD6f935a791F13ce18c10310c688E09cfc4a5d60",
      "value": {
        "_hex": "0x4d3a72860730b1c8"
      },
      "nonce": 4857,
      "data": "0x",
      "r": "0x9c5db07a45331f456a3f64055fe27ab8abac229050e73ed282ed10c6811c6962",
      "s": "0x7bdcfab1b84a934787bf0f417a072f3cb05861b507001ad6c28716ad55d92b3e",
      "v": 28,
      "creates": null,
      "raw": "0xf86e8212f9850d6efa3bec8255f094dd6f935a791f13ce18c10310c688e09cfc4a5d60884d3a72860730b1c8801ca09c5db07a45331f456a3f64055fe27ab8abac229050e73ed282ed10c6811c6962a07bdcfab1b84a934787bf0f417a072f3cb05861b507001ad6c28716ad55d92b3e",
      "networkId": 0,
      "chainId": 0
    },
    {
      "hash": "0xc5294da4ceca359f4a06af84098204161265abafbcbaf2d548234b4786ae3842",
      "blockHash": "0x2651c4c241cc67ef2599bffe7a8b64b4a548fea641508fb9d97f9c172e1250f0",
      "blockNumber": 112690,
      "transactionIndex": 10,
      "confirmations": null,
      "from": "0xe6A7a1d47ff21B6321162AEA7C6CB457D5476Bca",
      "gasPrice": {
        "_hex": "0xd6efa3bec"
      },
      "gasLimit": {
        "_hex": "0x55f0"
      },
      "to": "0x952f389eCE021cECc7e7E00B5316925e14396B92",
      "value": {
        "_hex": "0x4ee80d2da6f88348"
      },
      "nonce": 4858,
      "data": "0x",
      "r": "0x3c7a546a233c5c8ad6ac2e5d66fcc88c23b4bd85799c9f50fd0cddf40432a062",
      "s": "0x55fad1230bb7a8206da15ba61fdef02d8ece42219094058a31d87bed71cdee54",
      "v": 28,
      "creates": null,
      "raw": "0xf86e8212fa850d6efa3bec8255f094952f389ece021cecc7e7e00b5316925e14396b92884ee80d2da6f88348801ca03c7a546a233c5c8ad6ac2e5d66fcc88c23b4bd85799c9f50fd0cddf40432a062a055fad1230bb7a8206da15ba61fdef02d8ece42219094058a31d87bed71cdee54",
      "networkId": 0,
      "chainId": 0
    },
    {
      "hash": "0xe2029b7ae36b6de7c42527c4377153bda34b5dd6ddb284f6464f4024a70642aa",
      "blockHash": "0x2651c4c241cc67ef2599bffe7a8b64b4a548fea641508fb9d97f9c172e1250f0",
      "blockNumber": 112690,
      "transactionIndex": 11,
      "confirmations": null,
      "from": "0xe6A7a1d47ff21B6321162AEA7C6CB457D5476Bca",
      "gasPrice": {
        "_hex": "0xd6efa3bec"
      },
      "gasLimit": {
        "_hex": "0x55f0"
      },
      "to": "0xD924AAC0bCB65C13bE4044f6BeA8aAe34D7a7126",
      "value": {
        "_hex": "0x502cb769aa319140"
      },
      "nonce": 4859,
      "data": "0x",
      "r": "0xba522e08ae1dddf447fde9ad975f1be42bfcaeefc57dcbcfe6267c1060bb0c50",
      "s": "0x48a5bcdda4f4de253e2949ca5acd7979befe22b952172c4e66b5fb3d5841cd9e",
      "v": 27,
      "creates": null,
      "raw": "0xf86e8212fb850d6efa3bec8255f094d924aac0bcb65c13be4044f6bea8aae34d7a712688502cb769aa319140801ba0ba522e08ae1dddf447fde9ad975f1be42bfcaeefc57dcbcfe6267c1060bb0c50a048a5bcdda4f4de253e2949ca5acd7979befe22b952172c4e66b5fb3d5841cd9e",
      "networkId": 0,
      "chainId": 0
    },
    {
      "hash": "0xbd1c93e08669e04bfc38a86ef0f1c8f2aa4b952ef2ddeac9f4b3c434da4e768d",
      "blockHash": "0x2651c4c241cc67ef2599bffe7a8b64b4a548fea641508fb9d97f9c172e1250f0",
      "blockNumber": 112690,
      "transactionIndex": 12,
      "confirmations": null,
      "from": "0xe6A7a1d47ff21B6321162AEA7C6CB457D5476Bca",
      "gasPrice": {
        "_hex": "0xd6efa3bec"
      },
      "gasLimit": {
        "_hex": "0x55f0"
      },
      "to": "0x99181ED48C7c51532622dA23e20E2B38392476A7",
      "value": {
        "_hex": "0x5060648455681cc8"
      },
      "nonce": 4860,
      "data": "0x",
      "r": "0x4907d50e03264b2dc433bf34c2088b2dcd3cecc1564f56c264ffb8164e37c7d2",
      "s": "0x65ff18a770ce823659893dc73d2332a149d8f939c76ef46ff8c555163224d716",
      "v": 28,
      "creates": null,
      "raw": "0xf86e8212fc850d6efa3bec8255f09499181ed48c7c51532622da23e20e2b38392476a7885060648455681cc8801ca04907d50e03264b2dc433bf34c2088b2dcd3cecc1564f56c264ffb8164e37c7d2a065ff18a770ce823659893dc73d2332a149d8f939c76ef46ff8c555163224d716",
      "networkId": 0,
      "chainId": 0
    },
    {
      "hash": "0x74c4fa300e952a46cbaf026f357615305aca4ded2016a1879ca5fc019084d0b7",
      "blockHash": "0x2651c4c241cc67ef2599bffe7a8b64b4a548fea641508fb9d97f9c172e1250f0",
      "blockNumber": 112690,
      "transactionIndex": 13,
      "confirmations": null,
      "from": "0xe6A7a1d47ff21B6321162AEA7C6CB457D5476Bca",
      "gasPrice": {
        "_hex": "0xd6efa3bec"
      },
      "gasLimit": {
        "_hex": "0x55f0"
      },
      "to": "0x9B7280891dc19fd3A2e754cB9007203820650403",
      "value": {
        "_hex": "0x511c0d61c3196398"
      },
      "nonce": 4861,
      "data": "0x",
      "r": "0xd5b851d1343997d5a9214eead650add49691cbe3f36ee505b5886bad2f96616e",
      "s": "0x7460f03c4631c8a876503ff03726e82b79521292264dd93c96f8cbb801cf523b",
      "v": 27,
      "creates": null,
      "raw": "0xf86e8212fd850d6efa3bec8255f0949b7280891dc19fd3a2e754cb900720382065040388511c0d61c3196398801ba0d5b851d1343997d5a9214eead650add49691cbe3f36ee505b5886bad2f96616ea07460f03c4631c8a876503ff03726e82b79521292264dd93c96f8cbb801cf523b",
      "networkId": 0,
      "chainId": 0
    },
    {
      "hash": "0x572a0777b0d974a653e2e6dbd73477ba979e07f856d63b91542e36b910632294",
      "blockHash": "0x2651c4c241cc67ef2599bffe7a8b64b4a548fea641508fb9d97f9c172e1250f0",
      "blockNumber": 112690,
      "transactionIndex": 14,
      "confirmations": null,
      "from": "0xe6A7a1d47ff21B6321162AEA7C6CB457D5476Bca",
      "gasPrice": {
        "_hex": "0xd6efa3bec"
      },
      "gasLimit": {
        "_hex": "0x55f0"
      },
      "to": "0x806C4e20CC913d7b70f5b7e24C6Ba15B16c56a5C",
      "value": {
        "_hex": "0x5179d1c08a6ff418"
      },
      "nonce": 4862,
      "data": "0x",
      "r": "0x28e4a0d01df70c1d5d9f857a0b460aebc987f9e1755ed08434a175b8d8e3b403",
      "s": "0x0deff4161d7e774a5e8b7cf3d55ffed6c81752c9cbd0d617f7e342918ce64f12",
      "v": 28,
      "creates": null,
      "raw": "0xf86e8212fe850d6efa3bec8255f094806c4e20cc913d7b70f5b7e24c6ba15b16c56a5c885179d1c08a6ff418801ca028e4a0d01df70c1d5d9f857a0b460aebc987f9e1755ed08434a175b8d8e3b403a00deff4161d7e774a5e8b7cf3d55ffed6c81752c9cbd0d617f7e342918ce64f12",
      "networkId": 0,
      "chainId": 0
    },
    {
      "hash": "0x18bed3935a62b30e6f3600585e048a93da0ba0dab492b9830d1766c933545a2f",
      "blockHash": "0x2651c4c241cc67ef2599bffe7a8b64b4a548fea641508fb9d97f9c172e1250f0",
      "blockNumber": 112690,
      "transactionIndex": 15,
      "confirmations": null,
      "from": "0xe6A7a1d47ff21B6321162AEA7C6CB457D5476Bca",
      "gasPrice": {
        "_hex": "0xd6efa3bec"
      },
      "gasLimit": {
        "_hex": "0x55f0"
      },
      "to": "0x7550E0d09f273C690454B44F794D7D381B2E55EA",
      "value": {
        "_hex": "0x51c8c2a31f1147d0"
      },
      "nonce": 4863,
      "data": "0x",
      "r": "0x868836b7eeb1481d8b7d97fe33420ced4e5d8b9adfdf55c199c7207e40337a5a",
      "s": "0x382256cb267389e658af064b9e1d58e96d49dbdc5ab95c590cb262546b31326c",
      "v": 28,
      "creates": null,
      "raw": "0xf86e8212ff850d6efa3bec8255f0947550e0d09f273c690454b44f794d7d381b2e55ea8851c8c2a31f1147d0801ca0868836b7eeb1481d8b7d97fe33420ced4e5d8b9adfdf55c199c7207e40337a5aa0382256cb267389e658af064b9e1d58e96d49dbdc5ab95c590cb262546b31326c",
      "networkId": 0,
      "chainId": 0
    },
    {
      "hash": "0xc968d0746732beee4899cd53afc7015bffe124df264f0320916d383d06aaa1c2",
      "blockHash": "0x2651c4c241cc67ef2599bffe7a8b64b4a548fea641508fb9d97f9c172e1250f0",
      "blockNumber": 112690,
      "transactionIndex": 16,
      "confirmations": null,
      "from": "0xe6A7a1d47ff21B6321162AEA7C6CB457D5476Bca",
      "gasPrice": {
        "_hex": "0xd6efa3bec"
      },
      "gasLimit": {
        "_hex": "0x55f0"
      },
      "to": "0x0c5aa6cDcC0582B50e5D76B1aA092071b5c3eC74",
      "value": {
        "_hex": "0x525a105d82283998"
      },
      "nonce": 4864,
      "data": "0x",
      "r": "0x5538426deea675d98b2e1338fb939f463bdfaac9465d8a4f7ed6a51fa6976029",
      "s": "0x538a294c563cea1999704d6e590961f6140982ffe75df60179285c3341500493",
      "v": 28,
      "creates": null,
      "raw": "0xf86e821300850d6efa3bec8255f0940c5aa6cdcc0582b50e5d76b1aa092071b5c3ec7488525a105d82283998801ca05538426deea675d98b2e1338fb939f463bdfaac9465d8a4f7ed6a51fa6976029a0538a294c563cea1999704d6e590961f6140982ffe75df60179285c3341500493",
      "networkId": 0,
      "chainId": 0
    },
    {
      "hash": "0xa7fa4a3cb8e70dfaf97e03a709fc3ddcb0148b82866b82cb06e5e1097bcc6d32",
      "blockHash": "0x2651c4c241cc67ef2599bffe7a8b64b4a548fea641508fb9d97f9c172e1250f0",
      "blockNumber": 112690,
      "transactionIndex": 17,
      "confirmations": null,
      "from": "0xe6A7a1d47ff21B6321162AEA7C6CB457D5476Bca",
      "gasPrice": {
        "_hex": "0xd6efa3bec"
      },
      "gasLimit": {
        "_hex": "0x55f0"
      },
      "to": "0x702bD0d370bBf0B97B66FE95578c62697c583393",
      "value": {
        "_hex": "0x53638fb7510f9b10"
      },
      "nonce": 4865,
      "data": "0x",
      "r": "0x4b2ced0f6900ad6794ab2e1005fa53c6a2d45c96beef6511377b7507c5905ea9",
      "s": "0x591c6ae1c78254049961f97212d4ed1c00e69daa3bdee10d0e6ecd94fc39c6cb",
      "v": 27,
      "creates": null,
      "raw": "0xf86e821301850d6efa3bec8255f094702bd0d370bbf0b97b66fe95578c62697c5833938853638fb7510f9b10801ba04b2ced0f6900ad6794ab2e1005fa53c6a2d45c96beef6511377b7507c5905ea9a0591c6ae1c78254049961f97212d4ed1c00e69daa3bdee10d0e6ecd94fc39c6cb",
      "networkId": 0,
      "chainId": 0
    },
    {
      "hash": "0xbdab1e550c3115721e31446a275f99ec69d7709ad681ca4ec0a89659944561be",
      "blockHash": "0x2651c4c241cc67ef2599bffe7a8b64b4a548fea641508fb9d97f9c172e1250f0",
      "blockNumber": 112690,
      "transactionIndex": 18,
      "confirmations": null,
      "from": "0xe6A7a1d47ff21B6321162AEA7C6CB457D5476Bca",
      "gasPrice": {
        "_hex": "0xd6efa3bec"
      },
      "gasLimit": {
        "_hex": "0x55f0"
      },
      "to": "0x065317E0625de4403Cc8D0804Eb46426Cd5B033F",
      "value": {
        "_hex": "0x53c14608ba027060"
      },
      "nonce": 4866,
      "data": "0x",
      "r": "0xccfc7c53d0b03ca709e5f098fa1415e3acf14faa95bee2d0352c81477f9c2a11",
      "s": "0x25249e6e47e2f9e03acad58c4bff128eb4dfdadf0080e5c394833457d95bd829",
      "v": 27,
      "creates": null,
      "raw": "0xf86e821302850d6efa3bec8255f094065317e0625de4403cc8d0804eb46426cd5b033f8853c14608ba027060801ba0ccfc7c53d0b03ca709e5f098fa1415e3acf14faa95bee2d0352c81477f9c2a11a025249e6e47e2f9e03acad58c4bff128eb4dfdadf0080e5c394833457d95bd829",
      "networkId": 0,
      "chainId": 0
    },
    {
      "hash": "0xe9cd1edf506e040257a398dca53667630541acfa5bd743aa2672a0be23cb3abc",
      "blockHash": "0x2651c4c241cc67ef2599bffe7a8b64b4a548fea641508fb9d97f9c172e1250f0",
      "blockNumber": 112690,
      "transactionIndex": 19,
      "confirmations": null,
      "from": "0xe6A7a1d47ff21B6321162AEA7C6CB457D5476Bca",
      "gasPrice": {
        "_hex": "0xd6efa3bec"
      },
      "gasLimit": {
        "_hex": "0x55f0"
      },
      "to": "0x7CabE4dE323c392C7135680c61a04d5Eb7519897",
      "value": {
        "_hex": "0x549aa4402988c8c0"
      },
      "nonce": 4867,
      "data": "0x",
      "r": "0x23ae37818392be6bbc9cd291618f1d7095592aaed74e5f2a7857cacfd1046693",
      "s": "0x61e619ec82f28afd48b474d8ce4b7007ec30a500b2c557f521602399cea127f2",
      "v": 27,
      "creates": null,
      "raw": "0xf86e821303850d6efa3bec8255f0947cabe4de323c392c7135680c61a04d5eb751989788549aa4402988c8c0801ba023ae37818392be6bbc9cd291618f1d7095592aaed74e5f2a7857cacfd1046693a061e619ec82f28afd48b474d8ce4b7007ec30a500b2c557f521602399cea127f2",
      "networkId": 0,
      "chainId": 0
    },
    {
      "hash": "0x3cafbe1b37eadcadae812507cc27cc210ab725114f2945b34502f861ba7d97f4",
      "blockHash": "0x2651c4c241cc67ef2599bffe7a8b64b4a548fea641508fb9d97f9c172e1250f0",
      "blockNumber": 112690,
      "transactionIndex": 20,
      "confirmations": null,
      "from": "0xe6A7a1d47ff21B6321162AEA7C6CB457D5476Bca",
      "gasPrice": {
        "_hex": "0xd6efa3bec"
      },
      "gasLimit": {
        "_hex": "0x55f0"
      },
      "to": "0xe6F63A7e7F8dc774F8E3504c9b0c5458D7E28ED8",
      "value": {
        "_hex": "0x556b67059f5a9188"
      },
      "nonce": 4868,
      "data": "0x",
      "r": "0xaa8b1ea015611e914046c678e18596cb1f0cd7470b1e7487cf0aa85fbea40791",
      "s": "0x5cd8664a09cfb8c9cb99103767a798176c0d67c39a696aabbf9797ad529f20c3",
      "v": 27,
      "creates": null,
      "raw": "0xf86e821304850d6efa3bec8255f094e6f63a7e7f8dc774f8e3504c9b0c5458d7e28ed888556b67059f5a9188801ba0aa8b1ea015611e914046c678e18596cb1f0cd7470b1e7487cf0aa85fbea40791a05cd8664a09cfb8c9cb99103767a798176c0d67c39a696aabbf9797ad529f20c3",
      "networkId": 0,
      "chainId": 0
    },
    {
      "hash": "0x28b8a0ec179cdbbd77998594bd6aae071d1cd7dd0b7a57800f3c517de7afc849",
      "blockHash": "0x2651c4c241cc67ef2599bffe7a8b64b4a548fea641508fb9d97f9c172e1250f0",
      "blockNumber": 112690,
      "transactionIndex": 21,
      "confirmations": null,
      "from": "0xe6A7a1d47ff21B6321162AEA7C6CB457D5476Bca",
      "gasPrice": {
        "_hex": "0xd6efa3bec"
      },
      "gasLimit": {
        "_hex": "0x55f0"
      },
      "to": "0x263D845A19110802000139cbb7a4BBF2B2B8d6C0",
      "value": {
        "_hex": "0x562eb1e32fe43858"
      },
      "nonce": 4869,
      "data": "0x",
      "r": "0x5ee5f06e5980547e3a5145617436490df583ae9ebef36b3387c2d8814ab02ca4",
      "s": "0x552dbf1b95ebf38c50e24dc072c3b40149014c8e73bd5e8730d32d68c18b5397",
      "v": 28,
      "creates": null,
      "raw": "0xf86e821305850d6efa3bec8255f094263d845a19110802000139cbb7a4bbf2b2b8d6c088562eb1e32fe43858801ca05ee5f06e5980547e3a5145617436490df583ae9ebef36b3387c2d8814ab02ca4a0552dbf1b95ebf38c50e24dc072c3b40149014c8e73bd5e8730d32d68c18b5397",
      "networkId": 0,
      "chainId": 0
    },
    {
      "hash": "0x8a50ac61f2856850eff19756b4138ebebad1ec77d63dc22ae7e4c2ca9e171fe5",
      "blockHash": "0x2651c4c241cc67ef2599bffe7a8b64b4a548fea641508fb9d97f9c172e1250f0",
      "blockNumber": 112690,
      "transactionIndex": 22,
      "confirmations": null,
      "from": "0xe6A7a1d47ff21B6321162AEA7C6CB457D5476Bca",
      "gasPrice": {
        "_hex": "0xd6efa3bec"
      },
      "gasLimit": {
        "_hex": "0x55f0"
      },
      "to": "0x03bbfbb9d362b4B1C6a113BE654A0190Fc6aEa80",
      "value": {
        "_hex": "0x5631d6f497d76e38"
      },
      "nonce": 4870,
      "data": "0x",
      "r": "0xb6d9c88ae5982c248ca1cb0767a302fbeb39eb987cc228af0c72134c467fe8d5",
      "s": "0x1c43e36e7a6557f21ab78327d29f614ef538b302013724d3b5bab39712cbb6bd",
      "v": 28,
      "creates": null,
      "raw": "0xf86e821306850d6efa3bec8255f09403bbfbb9d362b4b1c6a113be654a0190fc6aea80885631d6f497d76e38801ca0b6d9c88ae5982c248ca1cb0767a302fbeb39eb987cc228af0c72134c467fe8d5a01c43e36e7a6557f21ab78327d29f614ef538b302013724d3b5bab39712cbb6bd",
      "networkId": 0,
      "chainId": 0
    },
    {
      "hash": "0xe2ecd5117224c9ee612b2389c0580295ebfcc61ead18f6beb55756a86372e54c",
      "blockHash": "0x2651c4c241cc67ef2599bffe7a8b64b4a548fea641508fb9d97f9c172e1250f0",
      "blockNumber": 112690,
      "transactionIndex": 23,
      "confirmations": null,
      "from": "0xe6A7a1d47ff21B6321162AEA7C6CB457D5476Bca",
      "gasPrice": {
        "_hex": "0xd6efa3bec"
      },
      "gasLimit": {
        "_hex": "0x55f0"
      },
      "to": "0x629e35e0A481d821293F354E0dD27E43a354D061",
      "value": {
        "_hex": "0x5661ee066199c8f8"
      },
      "nonce": 4871,
      "data": "0x",
      "r": "0x1b56de41b45560b075b0d42220c27d5686e166501a3a65be1c70b6858b3e5b3c",
      "s": "0x309065d6acea69e326c3c0f2edbcb3ff1746dd04cc67b1910abfafd361f334da",
      "v": 27,
      "creates": null,
      "raw": "0xf86e821307850d6efa3bec8255f094629e35e0a481d821293f354e0dd27e43a354d061885661ee066199c8f8801ba01b56de41b45560b075b0d42220c27d5686e166501a3a65be1c70b6858b3e5b3ca0309065d6acea69e326c3c0f2edbcb3ff1746dd04cc67b1910abfafd361f334da",
      "networkId": 0,
      "chainId": 0
    },
    {
      "hash": "0xd1b9a0c13f6a3a79ebb1c0f834fb32099d10127d8f2087e95d2ab74a3dafa64c",
      "blockHash": "0x2651c4c241cc67ef2599bffe7a8b64b4a548fea641508fb9d97f9c172e1250f0",
      "blockNumber": 112690,
      "transactionIndex": 24,
      "confirmations": null,
      "from": "0xe6A7a1d47ff21B6321162AEA7C6CB457D5476Bca",
      "gasPrice": {
        "_hex": "0xd6efa3bec"
      },
      "gasLimit": {
        "_hex": "0x55f0"
      },
      "to": "0x98468422cC6f9c345bb48c434c8048409D5F2724",
      "value": {
        "_hex": "0x56779a3f3fb72960"
      },
      "nonce": 4872,
      "data": "0x",
      "r": "0x309010831b33eda63d47d2690d56437441075c69182429287d87fb3ac221139a",
      "s": "0x3cf37913bd6937ed2b6ef7f3bde331f4e48cdc7c6e4f0c149980967b21c37da2",
      "v": 27,
      "creates": null,
      "raw": "0xf86e821308850d6efa3bec8255f09498468422cc6f9c345bb48c434c8048409d5f27248856779a3f3fb72960801ba0309010831b33eda63d47d2690d56437441075c69182429287d87fb3ac221139aa03cf37913bd6937ed2b6ef7f3bde331f4e48cdc7c6e4f0c149980967b21c37da2",
      "networkId": 0,
      "chainId": 0
    }
  ]
}