{
  "hash": "0xab8afc54be66e782fec8153b79451b1d80db171ded39b483b4225c0926915452",
  "parentHash": "0x563240467814da963f9c46fe418bdc21360bc5e7d96f7f7d774d8caa34f9ea21",
  "number": 119454,
  "timestamp": 1440143363,
  "nonce": "0xe5ab14cb169df8d5",
  "difficulty": 4385852426342,
  "gasLimit": {
    "_hex": "0x2fefd8"
  },
  "gasUsed": {
    "_hex": "0x5208"
  },
  "miner": "0x608f4b86321a68453f9adf6F06F7Fc3E621739ad",
  "extraData": "0xd783010002844765746887676f312e342e32856c696e7578",
  "transactions": [
    {
      "hash": "0x29c48c0fb2c26ebde4ba424a5bca47982b4a2275f64b178ef9c90e968941168c",
      "blockHash": "0xab8afc54be66e782fec8153b79451b1d80db171ded39b483b4225c0926915452",
      "blockNumber": 119454,
      "transactionIndex": 0,
      "confirmations": null,
      "from": "0x19d1f826fce0c97733e0202eFCCc4A5608e8Eb6d",
      "gasPrice": {
        "_hex": "0xba43b7400"
      },
      "gasLimit": {
        "_hex": "0x5208"
      },
      "to": "0x32Be343B94f860124dC4fEe278FDCBD38C102D88",
      "value": {
        "_hex": "0x101cf8e0750e9d000"
      },
      "nonce": 9,
      "data": "0x",
      "r": "0x55550dfbe317de35561e101eca0882ab10de2e0f15731316ac29d19f2b5431e9",
      "s": "0x477b4b5d5b456f3e8133a8f801e9fcab38d1b166eac7db340f76669a8909b7ff",
      "v": 28,
      "creates": null,
      "raw": "0xf86d09850ba43b74008252089432be343b94f860124dc4fee278fdcbd38c102d88890101cf8e0750e9d000801ca055550dfbe317de35561e101eca0882ab10de2e0f15731316ac29d19f2b5431e9a0477b4b5d5b456f3e8133a8f801e9fcab38d1b166eac7db340f76669a8909b7ff",
      "networkId": 0,
      "chainId": 0
    }
  ]
}