{
  "hash": "0x3a846bb04b6bbf1323105eb30a15a0a533805c0eb504e8a7509873137f1a34d5",
  "parentHash": "0x0132540ca702a52ef4ed5f6b417b4ea84f7952732b452d1c61fccfa6efac3f04",
  "number": 84633,
  "timestamp": 1439552369,
  "nonce": "0x58449c949f88aefe",
  "difficulty": 2595362904543,
  "gasLimit": {
    "_hex": "0x2fefd8"
  },
  "gasUsed": {
    "_hex": "0x546c"
  },
  "miner": "0xa50ec0D39fa913E62f1Bae7074E6F36caA71855b",
  "extraData": "0xd783010001844765746887676f312e342e32856c696e7578",
  "transactions": [
    {
      "hash": "0x4fb6f5e808b974cb78356c07f18e32dca78e17b2b22d377da8a821dddfa0daf2",
      "blockHash": "0x3a846bb04b6bbf1323105eb30a15a0a533805c0eb504e8a7509873137f1a34d5",
      "blockNumber": 84633,
      "transactionIndex": 0,
      "confirmations": null,
      "from": "0x32EF5Cdc671dF5562a901AeE5DB716B9bE76Dcf6",
      "gasPrice": {
        "_hex": "0x110c8f7d8de"
      },
      "gasLimit": {
        "_hex": "0xc350"
      },
      "to": "0x2910543Af39abA0Cd09dBb2D50200b3E800A63D2",
      "value": {
        "_hex": "0x356df29a11410000"
      },
      "nonce": 2,
      "data": "0x454e55384735584438",
      "r": "0xc91dfe16ca1b872b6c8aec66d9ff38ab1c9a3c3ef75b2e76be2e20d96468c089",
      "s": "0x37144298e8fee3807c81cc27c44ac1c5be5f23ee19067608c94b1a94ed215660",
      "v": 28,
      "creates": null,
      "raw": "0xf87602860110c8f7d8de82c350942910543af39aba0cd09dbb2d50200b3e800a63d288356df29a1141000089454e553847355844381ca0c91dfe16ca1b872b6c8aec66d9ff38ab1c9a3c3ef75b2e76be2e20d96468c089a037144298e8fee3807c81cc27c44ac1c5be5f23ee19067608c94b1a94ed215660",
      "networkId": 0,
      "chainId": 0
    }
  ]
}