{
  "hash": "0x46c528d4645099dbc33d8b112c57a36a17e6766bd791fe5d3286e8d55df34410",
  "parentHash": "0x0c032aa7d106317aaa255bb215679009cbcbbef75f7e74db75988308aa7ddf71",
  "number": 61779,
  "timestamp": 1439178088,
  "nonce": "0x8b974d6a12811cda",
  "difficulty": 1728529494835,
  "gasLimit": {
    "_hex": "0x2fefd8"
  },
  "gasUsed": {
    "_hex": "0x5208"
  },
  "miner": "0xa50ec0D39fa913E62f1Bae7074E6F36caA71855b",
  "extraData": "0x",
  "transactions": [
    {
      "hash": "0xe7c7a2ea882454473c1532e678c62adfc66a74743cd1776943731e5ae15f735d",
      "blockHash": "0x46c528d4645099dbc33d8b112c57a36a17e6766bd791fe5d3286e8d55df34410",
      "blockNumber": 61779,
      "transactionIndex": 0,
      "confirmations": null,
      "from": "0x120A270bbC009644e35F0bB6ab13f95b8199c4ad",
      "gasPrice": {
        "_hex": "0xcf8b19acf"
      },
      "gasLimit": {
        "_hex": "0x15f90"
      },
      "to": "0xcCF7110d1Bd9A74bfd1d7d7d2d9D55607E7B837d",
      "value": {
        "_hex": "0x25b7823b21e942400"
      },
      "nonce": 85,
      "data": "0x",
      "r": "0x246c3d6ef6651caddd22416c8887ec671f27e5a20ad71eb41bdfa7ac4ac6a9af",
      "s": "0x2c10ec9399650a96e8f04ac1d801e35d6c2dc44fee65107033fca95ef580d8c1",
      "v": 28,
      "creates": null,
      "raw": "0xf86e55850cf8b19acf83015f9094ccf7110d1bd9a74bfd1d7d7d2d9d55607e7b837d89025b7823b21e942400801ca0246c3d6ef6651caddd22416c8887ec671f27e5a20ad71eb41bdfa7ac4ac6a9afa02c10ec9399650a96e8f04ac1d801e35d6c2dc44fee65107033fca95ef580d8c1",
      "networkId": 0,
      "chainId": 0
    }
  ]
}