{
  "hash": "0xdb51f3eaff0b4cf7ddcd87947a59b952124df48be34006e7184c0bb2a8f5b984",
  "parentHash": "0x379ac3d270b8f7cee37eec6a0ed93e2f4f0274b238e2b1fa583e2f90a5cfe0f2",
  "number": 47621,
  "timestamp": 1438943829,
  "nonce": "0xc662236988339ff3",
  "difficulty": 1445267943825,
  "gasLimit": {
    "_hex": "0xd7c5"
  },
  "gasUsed": {
    "_hex": "0x5208"
  },
  "miner": "0x6e9E0a2aAa3c4d41aa69f4E7328095278284f7e2",
  "extraData": "0x476574682f76312e302e312f6c696e75782f676f312e342e32",
  "transactions": [
    {
      "hash": "0x035bd27ea021b440376a4a7216309e62465a4d4177d443fd095b1eb19ad40707",
      "blockHash": "0xdb51f3eaff0b4cf7ddcd87947a59b952124df48be34006e7184c0bb2a8f5b984",
      "blockNumber": 47621,
      "transactionIndex": 0,
      "confirmations": null,
      "from": "0x900C0aFc99968F30e64a7DEe5828042b6422a098",
      "gasPrice": {
        "_hex": "0xf6f05e56a"
      },
      "gasLimit": {
        "_hex": "0x5208"
      },
      "to": "0x32Be343B94f860124dC4fEe278FDCBD38C102D88",
      "value": {
        "_hex": "0x16c63b1dc5303000000"
      },
      "nonce": 1,
      "data": "0x",
      "r": "0x448541b86bcc126a4c6b9646cce1c839869bf9ef3f48672065ad44b3bea93f57",
      "s": "0x155164939c746155494766296619bd22ac408077e8816bc8d5c0c9e827ce2845",
      "v": 27,
      "creates": null,
      "raw": "0xf86e01850f6f05e56a8252089432be343b94f860124dc4fee278fdcbd38c102d888a016c63b1dc5303000000801ba0448541b86bcc126a4c6b9646cce1c839869bf9ef3f48672065ad44b3bea93f57a0155164939c746155494766296619bd22ac408077e8816bc8d5c0c9e827ce2845",
      "networkId": 0,
      "chainId": 0
    }
  ]
}