{
  "hash": "0x1e8c9d0964406e145cae0022fb6c48d2c1d259da2e46eb5ce43ae5a55e5aad65",
  "parentHash": "0xa2fc030789d7a630b1770310387d78ae455cc020fcfad208654434bece47ec4e",
  "number": 71409,
  "timestamp": 1439335485,
  "nonce": "0x7136d1b2713b0a7c",
  "difficulty": 2178300426437,
  "gasLimit": {
    "_hex": "0x2fefd8"
  },
  "gasUsed": {
    "_hex": "0x9400"
  },
  "miner": "0x88D74a59454F6cF3B51ef6b9136AFb6b9D405A88",
  "extraData": "0x476574682f76312e302e312d37666266393930632f6c696e75782f676f312e34",
  "transactions": [
    {
      "hash": "0x838a1eab22c763ba63eb93413adb70209e675269e73dfdf9ed6b8fce3d13d8f4",
      "blockHash": "0x1e8c9d0964406e145cae0022fb6c48d2c1d259da2e46eb5ce43ae5a55e5aad65",
      "blockNumber": 71409,
      "transactionIndex": 0,
      "confirmations": null,
      "from": "0x17580B766f7453525ca4C6A88b01b50570EA088C",
      "gasPrice": {
        "_hex": "0xdd3c81c40"
      },
      "gasLimit": {
        "_hex": "0x61a80"
      },
      "to": "0x5Fe5B7546D1628f7348B023A0393de1FC825A4fD",
      "value": {
        "_hex": "0x1bc16d674ec80000"
      },
      "nonce": 178,
      "data": "0xb595b8b50000000000000000000000000000000000000000000000000000000000000001",
      "r": "0xb5898aea0bccdf25f2cba5beb241a8c797f6112706d4b5e6e4b56ffa716d92f6",
      "s": "0x4a457a626e9d53b7012592e23bcb67e25f9fbae902ebaaf3e28bde5a070f6ef1",
      "v": 27,
      "creates": null,
      "raw": "0xf89281b2850dd3c81c4083061a80945fe5b7546d1628f7348b023a0393de1fc825a4fd881bc16d674ec80000a4b595b8b500000000000000000000000000000000000000000000000000000000000000011ba0b5898aea0bccdf25f2cba5beb241a8c797f6112706d4b5e6e4b56ffa716d92f6a04a457a626e9d53b7012592e23bcb67e25f9fbae902ebaaf3e28bde5a070f6ef1",
      "networkId": 0,
      "chainId": 0
    }
  ]
}