{
  "hash": "0x224722b89dde42b125e25ad752e2d85c0952625b607546e2fa966429eaffcecb",
  "parentHash": "0xf39f37bce1f3c2083e92f6cdc4734b24a3035116baf9cede5d1a5d21009bde59",
  "number": 101223,
  "timestamp": 1439819378,
  "nonce": "0x8852c9339f165feb",
  "difficulty": 3839351187561,
  "gasLimit": {
    "_hex": "0x2fefd8"
  },
  "gasUsed": {
    "_hex": "0x5208"
  },
  "miner": "0x995D4E6240b95F3312285Af1472aEA2Aca9795Bc",
  "extraData": "0x",
  "transactions": [
    {
      "hash": "0x09743087c2e108f3ff84c90e0028ab6b3ac8c348cabc7f09bfdaf7aa370e1a09",
      "blockHash": "0x224722b89dde42b125e25ad752e2d85c0952625b607546e2fa966429eaffcecb",
      "blockNumber": 101223,
      "transactionIndex": 0,
      "confirmations": null,
      "from": "0x0EB0AcFB7C81a83296b8C023673f362e8FCd88bD",
      "gasPrice": {
        "_hex": "0xdefe7e008"
      },
      "gasLimit": {
        "_hex": "0x5208"
      },
      "to": "0x32Be343B94f860124dC4fEe278FDCBD38C102D88",
      "value": {
        "_hex": "0x173c831c85acd000"
      },
      "nonce": 6,
      "data": "0x",
      "r": "0xe76a22dbe525b5107e0711b464ec502ed3997afea4fd6fed78eff60eb7a4f54b",
      "s": "0x121d6249958e8f91844bb96340daf0b4820d097fce152d44b9b567a51a0ccb56",
      "v": 28,
      "creates": null,
      "raw": "0xf86c06850defe7e0088252089432be343b94f860124dc4fee278fdcbd38c102d8888173c831c85acd000801ca0e76a22dbe525b5107e0711b464ec502ed3997afea4fd6fed78eff60eb7a4f54ba0121d6249958e8f91844bb96340daf0b4820d097fce152d44b9b567a51a0ccb56",
      "networkId": 0,
      "chainId": 0
    }
  ]
}