{
  "hash": "0xa2fb35171b84d9d3db28791d847d6b15e0319e480cb260e1bd8e634ff6d6525f",
  "parentHash": "0x644a5c0c3e3ef05c086ea13d959e12e797dc7e5f6f730c557fa860a412bd3857",
  "number": 68865,
  "timestamp": 1439294869,
  "nonce": "0xe3ea80893a09302d",
  "difficulty": 2021122200305,
  "gasLimit": {
    "_hex": "0x2fefd8"
  },
  "gasUsed": {
    "_hex": "0xf618"
  },
  "miner": "0x5F8F73E26CdF436f19Cb24C82F90A15AFe55b592",
  "extraData": "0x476574682f76312e302e312f77696e646f77732f676f312e342e32",
  "transactions": [
    {
      "hash": "0x4318f20aaf6c99c1135da939ddd72fbc1b77cd1966f5fbc36cc638faea24c2ad",
      "blockHash": "0xa2fb35171b84d9d3db28791d847d6b15e0319e480cb260e1bd8e634ff6d6525f",
      "blockNumber": 68865,
      "transactionIndex": 0,
      "confirmations": null,
      "from": "0x9746c7e1ef2bd21FF3997fa467593a89cb852BD0",
      "gasPrice": {
        "_hex": "0xd74135ab0"
      },
      "gasLimit": {
        "_hex": "0x5208"
      },
      "to": "0xB0bF4A71F730782368Ef660FE6D298F432F95450",
      "value": {
        "_hex": "0x1b1ae4d6e2ef500000"
      },
      "nonce": 16,
      "data": "0x",
      "r": "0xb891621165b5646c379f45b6f263f9036543d123e93ffd0025aa151f524e322c",
      "s": "0x6b1bb96f019ada348405b5d72c3863f77e00bfe3c8a11d545636e9f2e1ca5810",
      "v": 28,
      "creates": null,
      "raw": "0xf86d10850d74135ab082520894b0bf4a71f730782368ef660fe6d298f432f95450891b1ae4d6e2ef500000801ca0b891621165b5646c379f45b6f263f9036543d123e93ffd0025aa151f524e322ca06b1bb96f019ada348405b5d72c3863f77e00bfe3c8a11d545636e9f2e1ca5810",
      "networkId": 0,
      "chainId": 0
    },
    {
      "hash": "0x9830c1ef2ae27be036ee83729075c029c5ff45245853b47d64616aeb10cfea3e",
      "blockHash": "0xa2fb35171b84d9d3db28791d847d6b15e0319e480cb260e1bd8e634ff6d6525f",
      "blockNumber": 68865,
      "transactionIndex": 1,
      "confirmations": null,
      "from": "0x1543667B9bad3e41865C3233E1764d8dda8E1F3D",
      "gasPrice": {
        "_hex": "0xd555bf3f2"
      },
      "gasLimit": {
        "_hex": "0x5208"
      },
      "to": "0x32Be343B94f860124dC4fEe278FDCBD38C102D88",
      "value": {
        "_hex": "0xa6884c0fb69318000"
      },
      "nonce": 5,
      "data": "0x",
      "r": "0xd530deafa1dd8c00c1016131c8428961e9be1618e1bd3c0c640e826dba4829ad",
      "s": "0x7ecf99fc516c3265a0f0e41ec50841fdce1747e8736eae29980a2dcc44d50755",
      "v": 27,
      "creates": null,
      "raw": "0xf86d05850d555bf3f28252089432be343b94f860124dc4fee278fdcbd38c102d88890a6884c0fb69318000801ba0d530deafa1dd8c00c1016131c8428961e9be1618e1bd3c0c640e826dba4829ada07ecf99fc516c3265a0f0e41ec50841fdce1747e8736eae29980a2dcc44d50755",
      "networkId": 0,
      "chainId": 0
    },
    {
      "hash": "0x553a537444654c741855710a7e5080931cd9bf3bafe584b0a3739fb6c5d43700",
      "blockHash": "0xa2fb35171b84d9d3db28791d847d6b15e0319e480cb260e1bd8e634ff6d6525f",
      "blockNumber": 68865,
      "transactionIndex": 2,
      "confirmations": null,
      "from": "0x6747f922385c9a6F9cfDf095F34345257DD597bE",
      "gasPrice": {
        "_hex": "0xba43b7400"
      },
      "gasLimit": {
        "_hex": "0x5208"
      },
      "to": "0x151dD5788653fa4BE994c84a5987A87d8cFA0FaA",
      "value": {
        "_hex": "0x1fcbfa42bd6000"
      },
      "nonce": 135,
      "data": "0x",
      "r": "0x88d368ca324cecad1501ae80a4a07b9d470d74ddd442dd7415b7fc8996f04491",
      "s": "0x111baf65884aeb2e93f814de114736a4e90161d07e17b4b235df1fa501f1ab48",
      "v": 28,
      "creates": null,
      "raw": "0xf86c8187850ba43b740082520894151dd5788653fa4be994c84a5987a87d8cfa0faa871fcbfa42bd6000801ca088d368ca324cecad1501ae80a4a07b9d470d74ddd442dd7415b7fc8996f04491a0111baf65884aeb2e93f814de114736a4e90161d07e17b4b235df1fa501f1ab48",
      "networkId": 0,
      "chainId": 0
    }
  ]
}