{
  "hash": "0x3e9ba0b50b91cd11e71ddb10608e8e996447b1f57b91ada1266ebd89b2d49f4f",
  "parentHash": "0xd9aec76725a22ad0ce2b0e33c1bd3fb00d4bb417790beb1135b92dc9fe9e0512",
  "number": 110777,
  "timestamp": 1439979291,
  "nonce": "0xed2e442c29656f69",
  "difficulty": 4392535677088,
  "gasLimit": {
    "_hex": "0x2fefd8"
  },
  "gasUsed": {
    "_hex": "0x5208"
  },
  "miner": "0xa70a9a7040d542C632D8e0bE7c5513A8a5Bbc752",
  "extraData": "0x",
  "transactions": [
    {
      "hash": "0xae665c7714ae7bcb3371705c93176a4283120b1ef5eba78f902de4590e60bf3b",
      "blockHash": "0x3e9ba0b50b91cd11e71ddb10608e8e996447b1f57b91ada1266ebd89b2d49f4f",
      "blockNumber": 110777,
      "transactionIndex": 0,
      "confirmations": null,
      "from": "0xB76CeFA8d0680c6dA05CA47e1C4B70aA092B69a9",
      "gasPrice": {
        "_hex": "0xd22ab32dd"
      },
      "gasLimit": {
        "_hex": "0x15f90"
      },
      "to": "0xeC06c233d618b41076FbfF739Efb85a4999F89Da",
      "value": {
        "_hex": "0xf43fc2c04ee0000"
      },
      "nonce": 8,
      "data": "0x",
      "r": "0x0125f32fdba9850218d26498a3d0cb63848b04fb42035dd3b2966f7e184437e8",
      "s": "0x36d0dc18e9d0221df65840ad07b87e5f4cedd2d5e4c5500dde35b2bdab8be62b",
      "v": 28,
      "creates": null,
      "raw": "0xf86d08850d22ab32dd83015f9094ec06c233d618b41076fbff739efb85a4999f89da880f43fc2c04ee0000801ca00125f32fdba9850218d26498a3d0cb63848b04fb42035dd3b2966f7e184437e8a036d0dc18e9d0221df65840ad07b87e5f4cedd2d5e4c5500dde35b2bdab8be62b",
      "networkId": 0,
      "chainId": 0
    }
  ]
}