{
  "hash": "0xe22a0b82658c3126ac935fe0a47ff334c9a3d99776b24f6ae11e198a3b84e655",
  "parentHash": "0xd0cc021af44f0a29b79a85b6bb1250bb6be48397a9c12993b31400fcd9c64eff",
  "number": 50020,
  "timestamp": 1438982854,
  "nonce": "0x5048cb1479f462a4",
  "difficulty": 1500211965896,
  "gasLimit": {
    "_hex": "0x4b502"
  },
  "gasUsed": {
    "_hex": "0x5208"
  },
  "miner": "0xd83630DD777Ce7c8Df15D55A8Bb72EB7C7b4568D",
  "extraData": "0x",
  "transactions": [
    {
      "hash": "0x14343280575396dce459a318d9ea44bc918d74abc21b4f873df1c842625b7e0e",
      "blockHash": "0xe22a0b82658c3126ac935fe0a47ff334c9a3d99776b24f6ae11e198a3b84e655",
      "blockNumber": 50020,
      "transactionIndex": 0,
      "confirmations": null,
      "from": "0x8C6AE7a05a1dE57582ae2768204276c0ff47ed03",
      "gasPrice": {
        "_hex": "0xdf8475800"
      },
      "gasLimit": {
        "_hex": "0x5208"
      },
      "to": "0x7a19C3C33f2a800b2FA361fD24277cAb0A1C1dB1",
      "value": {
        "_hex": "0x14542ba12a337c00000"
      },
      "nonce": 7,
      "data": "0x",
      "r": "0x809db16debf364fa1d4abc975912070f9237737708d41e0b922c07d202fc64cc",
      "s": "0x2aae38c0071949866fa930958f49d42c9667b8f1facbf0c703b68f7137553bf4",
      "v": 27,
      "creates": null,
      "raw": "0xf86e07850df8475800825208947a19c3c33f2a800b2fa361fd24277cab0a1c1db18a014542ba12a337c00000801ba0809db16debf364fa1d4abc975912070f9237737708d41e0b922c07d202fc64cca02aae38c0071949866fa930958f49d42c9667b8f1facbf0c703b68f7137553bf4",
      "networkId": 0,
      "chainId": 0
    }
  ]
}