{
  "hash": "0xe3dc94ad30002acb0288e3559ce4723e4e27ad3206a1b4b5c9dfc7c66a6c2996",
  "parentHash": "0xe22e3d1fb79fdb6355c03e2989f5c93a27ad980b284f9e1b8f6f855df3fe037c",
  "number": 114590,
  "timestamp": 1440042968,
  "nonce": "0x15f6dbef66a8cb4d",
  "difficulty": 4505644871525,
  "gasLimit": {
    "_hex": "0x2fefd8"
  },
  "gasUsed": {
    "_hex": "0x5208"
  },
  "miner": "0xe6A7a1d47ff21B6321162AEA7C6CB457D5476Bca",
  "extraData": "0x476574682f76312e302e312d38326566323666362f6c696e75782f676f312e34",
  "transactions": [
    {
      "hash": "0xac9a48d98368e6715f3aa9461ab7b0719cd4422aba9a1f0c7753e0f9f300f980",
      "blockHash": "0xe3dc94ad30002acb0288e3559ce4723e4e27ad3206a1b4b5c9dfc7c66a6c2996",
      "blockNumber": 114590,
      "transactionIndex": 0,
      "confirmations": null,
      "from": "0xA144f6b60f72d64a21E330DaDB62D8990AdE2B09",
      "gasPrice": {
        "_hex": "0xba43b7400"
      },
      "gasLimit": {
        "_hex": "0x15f90"
      },
      "to": "0x99C1262466e1623551D496779CEFF1Fc07d14841",
      "value": {
        "_hex": "0xde0b6b3a7640000"
      },
      "nonce": 0,
      "data": "0x",
      "r": "0xbc7765f0be3306841e7377b819eaad3b159bea9374119eb672b14bd68f4cf9b9",
      "s": "0x175357e7536610685e64665c7b89d2305095e6d9a237f4d03cdaa043a9529092",
      "v": 27,
      "creates": null,
      "raw": "0xf86d80850ba43b740083015f909499c1262466e1623551d496779ceff1fc07d14841880de0b6b3a7640000801ba0bc7765f0be3306841e7377b819eaad3b159bea9374119eb672b14bd68f4cf9b9a0175357e7536610685e64665c7b89d2305095e6d9a237f4d03cdaa043a9529092",
      "networkId": 0,
      "chainId": 0
    }
  ]
}