{
  "hash": "0x94f569a924394b30d3677fac2dada2f683f6b6dea2033f2b82307963f3cbd2da",
  "parentHash": "0x1fe06260358cf50d299908b37459f9be632707d4fb28d7a338f2f0c145e39b1f",
  "number": 102387,
  "timestamp": 1439837177,
  "nonce": "0x4e6becfabf5edbfa",
  "difficulty": 3964545403469,
  "gasLimit": {
    "_hex": "0x2fefd8"
  },
  "gasUsed": {
    "_hex": "0x5208"
  },
  "miner": "0xe6A7a1d47ff21B6321162AEA7C6CB457D5476Bca",
  "extraData": "0x476574682f76312e302e312d38326566323666362f6c696e75782f676f312e34",
  "transactions": [
    {
      "hash": "0x7abe3a1708f1ea4e3bc93ad9e50e3597bf7a8fc5f3de88dc2f2857aa86d96eb9",
      "blockHash": "0x94f569a924394b30d3677fac2dada2f683f6b6dea2033f2b82307963f3cbd2da",
      "blockNumber": 102387,
      "transactionIndex": 0,
      "confirmations": null,
      "from": "0xe0e82eD3e93079cE76aAC1dA7b4bfa990D885A0D",
      "gasPrice": {
        "_hex": "0xdd753971c"
      },
      "gasLimit": {
        "_hex": "0x5208"
      },
      "to": "0xFBb1b73C4f0BDa4f67dcA266ce6Ef42f520fBB98",
      "value": {
        "_hex": "0x6cf215b7e29468b20"
      },
      "nonce": 3,
      "data": "0x",
      "r": "0x58a88e8a161b1219b8d67186f732fe8b3003b2c6878a900abc872cd4f13c5046",
      "s": "0x0bf738811963d4d1fbb1d0f8819c2457de76f224f2a76f0dfab0e00db18b83c3",
      "v": 27,
      "creates": null,
      "raw": "0xf86d03850dd753971c82520894fbb1b73c4f0bda4f67dca266ce6ef42f520fbb988906cf215b7e29468b20801ba058a88e8a161b1219b8d67186f732fe8b3003b2c6878a900abc872cd4f13c5046a00bf738811963d4d1fbb1d0f8819c2457de76f224f2a76f0dfab0e00db18b83c3",
      "networkId": 0,
      "chainId": 0
    }
  ]
}