{
  "hash": "0xc5bc54cbe5c92c5e5e57cd3899067fc100fdb0e76f57c835c6d68712f04a2103",
  "parentHash": "0x3bbf574aeed0672d5466e0c4202056c35f5448baf9ec8bebb6d52a4c1c834497",
  "number": 53971,
  "timestamp": 1439046571,
  "nonce": "0x6b756b1d03c7e772",
  "difficulty": 1607949294557,
  "gasLimit": {
    "_hex": "0x2fefd8"
  },
  "gasUsed": {
    "_hex": "0x5208"
  },
  "miner": "0xf8E0CA3Ed80bd541b94BEdCf259e8CF2141A9523",
  "extraData": "0x476574682f76312e302e312f77696e646f77732f676f312e342e32",
  "transactions": [
    {
      "hash": "0x82b944911f115c89f640f54a3246a5fdb237ec703cbc40920939329a9308adc8",
      "blockHash": "0xc5bc54cbe5c92c5e5e57cd3899067fc100fdb0e76f57c835c6d68712f04a2103",
      "blockNumber": 53971,
      "transactionIndex": 0,
      "confirmations": null,
      "from": "0x6BD72C1161826cFA413c4fb70CCE879BA7c2219c",
      "gasPrice": {
        "_hex": "0xd4e0ffb27"
      },
      "gasLimit": {
        "_hex": "0x5208"
      },
      "to": "0x32Be343B94f860124dC4fEe278FDCBD38C102D88",
      "value": {
        "_hex": "0x6c5dae616c53fc0000"
      },
      "nonce": 1,
      "data": "0x",
      "r": "0x643af98e44fc3d7529b752b51452703d67f6ee160501b1d5c929b6712aa98784",
      "s": "0x13df286ebda4094cdbe55ad825a43f80c649e4cae9e5cf4633ac9460fc945bde",
      "v": 28,
      "creates": null,
      "raw": "0xf86d01850d4e0ffb278252089432be343b94f860124dc4fee278fdcbd38c102d88896c5dae616c53fc0000801ca0643af98e44fc3d7529b752b51452703d67f6ee160501b1d5c929b6712aa98784a013df286ebda4094cdbe55ad825a43f80c649e4cae9e5cf4633ac9460fc945bde",
      "networkId": 0,
      "chainId": 0
    }
  ]
}