{
  "hash": "0x2ccdb020d05289ab9680e6d99086fcefe5573a135db1fcd01a5302b6a26c3558",
  "parentHash": "0xe7b4fb496017a5c49682fae7046aaa3e66a5bd82207c67c44d291bc623371569",
  "number": 81071,
  "timestamp": 1439495741,
  "nonce": "0x21f848e6b0cc8d3e",
  "difficulty": 2429643946978,
  "gasLimit": {
    "_hex": "0x2fefd8"
  },
  "gasUsed": {
    "_hex": "0xf618"
  },
  "miner": "0x900deD2eC098c430caD5347E6F3322932D7BB3a9",
  "extraData": "0x476574682f76312e302e312f77696e646f77732f676f312e342e32",
  "transactions": [
    {
      "hash": "0x0196e8246f43fea3bc952cf57f44f1de11a98daa6d72f6d2739785ee8be8d80c",
      "blockHash": "0x2ccdb020d05289ab9680e6d99086fcefe5573a135db1fcd01a5302b6a26c3558",
      "blockNumber": 81071,
      "transactionIndex": 0,
      "confirmations": null,
      "from": "0xFd1356C729AbA6307fdddAF2abF89c2563bBc1bF",
      "gasPrice": {
        "_hex": "0xcdc617f70"
      },
      "gasLimit": {
        "_hex": "0x5208"
      },
      "to": "0x32Be343B94f860124dC4fEe278FDCBD38C102D88",
      "value": {
        "_hex": "0x10f0cda8cfb63700000"
      },
      "nonce": 1,
      "data": "0x",
      "r": "0x75e1068136e1b7d344277b07788a6a0dae04d3e67f0dd1b911bf8c3c914a3615",
      "s": "0x27f2af93fb101a0ae3e9f094c17444ea9b0b62dd0aaa28a0acb989c7139a7f56",
      "v": 27,
      "creates": null,
      "raw": "0xf86e01850cdc617f708252089432be343b94f860124dc4fee278fdcbd38c102d888a010f0cda8cfb63700000801ba075e1068136e1b7d344277b07788a6a0dae04d3e67f0dd1b911bf8c3c914a3615a027f2af93fb101a0ae3e9f094c17444ea9b0b62dd0aaa28a0acb989c7139a7f56",
      "networkId": 0,
      "chainId": 0
    },
    {
      "hash": "0xc85af63185c51880a8ab5fab5b9ff1a8ec837ad16ee9ef1f39e922fa5f671fff",
      "blockHash": "0x2ccdb020d05289ab9680e6d99086fcefe5573a135db1fcd01a5302b6a26c3558",
      "blockNumber": 81071,
      "transactionIndex": 1,
      "confirmations": null,
      "from": "0x3c0552a53b84E1F265708FA1AfA9b5E71ccAffFa",
      "gasPrice": {
        "_hex": "0xcdc617f70"
      },
      "gasLimit": {
        "_hex": "0x5208"
      },
      "to": "0x32Be343B94f860124dC4fEe278FDCBD38C102D88",
      "value": {
        "_hex": "0x10d9e9ef701f760000"
      },
      "nonce": 2,
      "data": "0x",
      "r": "0x237b3b712ba5ac6d52d0daf18fb9e87cf028f4675a3569f6f642beffd4ef9a63",
      "s": "0x21f52d1dc96fa27c4b70556b22dda5a2b9a989206f3065ca7692d09a2905b5be",
      "v": 27,
      "creates": null,
      "raw": "0xf86d02850cdc617f708252089432be343b94f860124dc4fee278fdcbd38c102d888910d9e9ef701f760000801ba0237b3b712ba5ac6d52d0daf18fb9e87cf028f4675a3569f6f642beffd4ef9a63a021f52d1dc96fa27c4b70556b22dda5a2b9a989206f3065ca7692d09a2905b5be",
      "networkId": 0,
      "chainId": 0
    },
    {
      "hash": "0x9184ed45181043278b01ce84602b1e3ec599be740eb74e31960c1bdd9590e2ba",
      "blockHash": "0x2ccdb020d05289ab9680e6d99086fcefe5573a135db1fcd01a5302b6a26c3558",
      "blockNumber": 81071,
      "transactionIndex": 2,
      "confirmations": null,
      "from": "0xC3Ff472485ebe25dAe8d7d96d49Bb59a03103B38",
      "gasPrice": {
        "_hex": "0xba43b7400"
      },
      "gasLimit": {
        "_hex": "0x5266"
      },
      "to": "0x0e2feEC433472451e3E7ea6da95D453C2a82e4dC",
      "value": {
        "_hex": "0xd928dd17e550000"
      },
      "nonce": 5,
      "data": "0x",
      "r": "0x65c7725f9cc00c807e5fbe5c047d8fbfe895f32968b467f6408738f9d3b3e052",
      "s": "0x685d343cacb7d51187b942c538cc9bd8b23a95a47a9c24fb9aa3e686395cf057",
      "v": 28,
      "creates": null,
      "raw": "0xf86c05850ba43b7400825266940e2feec433472451e3e7ea6da95d453c2a82e4dc880d928dd17e550000801ca065c7725f9cc00c807e5fbe5c047d8fbfe895f32968b467f6408738f9d3b3e052a0685d343cacb7d51187b942c538cc9bd8b23a95a47a9c24fb9aa3e686395cf057",
      "networkId": 0,
      "chainId": 0
    }
  ]
}