{
  "hash": "0x625e9fb16e9154d5eb64e36f176c3569d2ebf2f30c566c7d8695f7ac4fdb9107",
  "parentHash": "0x0b35136441190b7aab181edfcf88b89e3c8a2894f816bae9096f159bd8b8c5be",
  "number": 104570,
  "timestamp": 1439871941,
  "nonce": "0xc92f2dbc9acb940c",
  "difficulty": 4363708966512,
  "gasLimit": {
    "_hex": "0x2fefd8"
  },
  "gasUsed": {
    "_hex": "0x5208"
  },
  "miner": "0xca3Ce19d512bEdA23b61bDD59C27Eb1Ec2393c1f",
  "extraData": "0x",
  "transactions": [
    {
      "hash": "0xb4e2ef69202af21ae0005697df4ef7c45b916dea2e548c125c5d4cde3436d9f2",
      "blockHash": "0x625e9fb16e9154d5eb64e36f176c3569d2ebf2f30c566c7d8695f7ac4fdb9107",
      "blockNumber": 104570,
      "transactionIndex": 0,
      "confirmations": null,
      "from": "0xcf00A85f3826941e7A25BFcF9Aac575d40410852",
      "gasPrice": {
        "_hex": "0xcb5bea614"
      },
      "gasLimit": {
        "_hex": "0x15f90"
      },
      "to": "0xD9666150A9dA92d9108198a4072970805a8B3428",
      "value": {
        "_hex": "0x4563918244f40000"
      },
      "nonce": 59,
      "data": "0x",
      "r": "0x3f72bf839245a2b374aa8db577f2faff53581283f95ba40e591fa6f27b7ce4c9",
      "s": "0x100883c303dd32742b8ae5edcced43b0716c14a1bc490046c28d354ad60a6282",
      "v": 27,
      "creates": null,
      "raw": "0xf86d3b850cb5bea61483015f9094d9666150a9da92d9108198a4072970805a8b3428884563918244f40000801ba03f72bf839245a2b374aa8db577f2faff53581283f95ba40e591fa6f27b7ce4c9a0100883c303dd32742b8ae5edcced43b0716c14a1bc490046c28d354ad60a6282",
      "networkId": 0,
      "chainId": 0
    }
  ]
}