{
  "hash": "0x83d15c8befc4b369057017630bc34821091fe95a493316092c6aa4e6eb6bf09b",
  "parentHash": "0x54d1537121deb7f00bb08c7811b39d81f54bba4962a73090ab19c59a8c53a352",
  "number": 118128,
  "timestamp": 1440120936,
  "nonce": "0x5db28a7664b8bf79",
  "difficulty": 4335440949485,
  "gasLimit": {
    "_hex": "0x2fefd8"
  },
  "gasUsed": {
    "_hex": "0x5208"
  },
  "miner": "0x64DcD9c2733262031AbFE744614d9Ed5AEDb0EFB",
  "extraData": "0x476574682f76312e302e312f6c696e75782f676f312e342e32",
  "transactions": [
    {
      "hash": "0x03e6799c8ef2eade3a84ac791975b4ca5a0d78759a49f8897939ea90d052653b",
      "blockHash": "0x83d15c8befc4b369057017630bc34821091fe95a493316092c6aa4e6eb6bf09b",
      "blockNumber": 118128,
      "transactionIndex": 0,
      "confirmations": null,
      "from": "0x790b8a3cE86E707ED0eD32bF89B3269692a23CC1",
      "gasPrice": {
        "_hex": "0xba43b7400"
      },
      "gasLimit": {
        "_hex": "0x15f90"
      },
      "to": "0x4D67f4F0Db45b3B5a3424B39ed8d972F710381D5",
      "value": {
        "_hex": "0x2c2612051fb620000"
      },
      "nonce": 62,
      "data": "0x",
      "r": "0xd326f541af7181d3a2169bc79a21f84ee3913385eb1484a2034c598113aea570",
      "s": "0x3bd7c73fbdbbcde4df2bbf25818abf6f3eb82a985ef3e73d677e66756ad84a92",
      "v": 28,
      "creates": null,
      "raw": "0xf86e3e850ba43b740083015f90944d67f4f0db45b3b5a3424b39ed8d972f710381d58902c2612051fb620000801ca0d326f541af7181d3a2169bc79a21f84ee3913385eb1484a2034c598113aea570a03bd7c73fbdbbcde4df2bbf25818abf6f3eb82a985ef3e73d677e66756ad84a92",
      "networkId": 0,
      "chainId": 0
    }
  ]
}