{
  "hash": "0xd4fbe3837459d1e41046b80757c19d5559fd28112f1abf9d36338856eb9b8dc2",
  "parentHash": "0x7f2eac314a238a697ec924bc0979e93ab61fc9018772d0a62cd83e9003387fc6",
  "number": 98453,
  "timestamp": 1439772990,
  "nonce": "0x0e4a56b14d4fc31a",
  "difficulty": 3870741540189,
  "gasLimit": {
    "_hex": "0x2fefd8"
  },
  "gasUsed": {
    "_hex": "0x546c"
  },
  "miner": "0xe6A7a1d47ff21B6321162AEA7C6CB457D5476Bca",
  "extraData": "0x476574682f76312e302e312d38326566323666362f6c696e75782f676f312e34",
  "transactions": [
    {
      "hash": "0x42f6fc2c02b136bddcc2ad094ffb13916589ea9bc4fb92906267e377a643c985",
      "blockHash": "0xd4fbe3837459d1e41046b80757c19d5559fd28112f1abf9d36338856eb9b8dc2",
      "blockNumber": 98453,
      "transactionIndex": 0,
      "confirmations": null,
      "from": "0x85Ca1E727E9d1A87991CC2C41840ebB9edF21d1B",
      "gasPrice": {
        "_hex": "0x110c8f7d8de"
      },
      "gasLimit": {
        "_hex": "0xc350"
      },
      "to": "0x2910543Af39abA0Cd09dBb2D50200b3E800A63D2",
      "value": {
        "_hex": "0x2386f26fc10000"
      },
      "nonce": 2,
      "data": "0x454e4e544e32334652",
      "r": "0xc0e1732f1e5eed8af71032d43d0833d55e8f7487fd196e38a647dfea03e5f1ac",
      "s": "0x94a5034d5defd9f8dc8e066809201f07bc08338b79eb9556b73ee4ad078c7042",
      "v": 27,
      "creates": null,
      "raw": "0xf87502860110c8f7d8de82c350942910543af39aba0cd09dbb2d50200b3e800a63d2872386f26fc1000089454e4e544e323346521ba0c0e1732f1e5eed8af71032d43d0833d55e8f7487fd196e38a647dfea03e5f1aca094a5034d5defd9f8dc8e066809201f07bc08338b79eb9556b73ee4ad078c7042",
      "networkId": 0,
      "chainId": 0
    }
  ]
}