{
  "hash": "0xefff047105b4a97be6c241e05043d842905ad5d8bfcbe4e87389ece1737ed99e",
  "parentHash": "0xa7d9e6a69a109afd3c66b559fcbb74d7a249c6ca5c142b7c47e0c7da1965c543",
  "number": 89749,
  "timestamp": 1439628490,
  "nonce": "0x9943fe5f740d059f",
  "difficulty": 3340251779297,
  "gasLimit": {
    "_hex": "0x2fefd8"
  },
  "gasUsed": {
    "_hex": "0x5208"
  },
  "miner": "0xD0ee3F53eE0fCf3F9fbCcdd17BD1b6441DdC2074",
  "extraData": "0x476574682f76312e302e312d38326566323666362f6c696e75782f676f312e34",
  "transactions": [
    {
      "hash": "0x21172a52d33d95a0620bc120999ef0d60b3303f9dd997e51ad14f5659ee60fe2",
      "blockHash": "0xefff047105b4a97be6c241e05043d842905ad5d8bfcbe4e87389ece1737ed99e",
      "blockNumber": 89749,
      "transactionIndex": 0,
      "confirmations": null,
      "from": "0x2910543Af39abA0Cd09dBb2D50200b3E800A63D2",
      "gasPrice": {
        "_hex": "0xd439101e6"
      },
      "gasLimit": {
        "_hex": "0x5208"
      },
      "to": "0x6FDdbd9BCA66E28765c2162c8433548c1052eD11",
      "value": {
        "_hex": "0x4293a76065d51e78000"
      },
      "nonce": 764,
      "data": "0x",
      "r": "0xd27fad3af4ad45cf3d2012fd9f8442799767d94d001c40ec28e02adf727ac1fc",
      "s": "0x2e4f1c80c0a6533289da286a6be6839814c24975331777d709401468e4107155",
      "v": 28,
      "creates": null,
      "raw": "0xf8708202fc850d439101e6825208946fddbd9bca66e28765c2162c8433548c1052ed118a04293a76065d51e78000801ca0d27fad3af4ad45cf3d2012fd9f8442799767d94d001c40ec28e02adf727ac1fca02e4f1c80c0a6533289da286a6be6839814c24975331777d709401468e4107155",
      "networkId": 0,
      "chainId": 0
    }
  ]
}