{
  "hash": "0xf812b69e7dddf262cadf4ffdee5256c2875d14accb4a8758903cd8c2c030c6ba",
  "parentHash": "0xd452209b0009a66a9359b11494176559e8cc5e2f969850888174ed8e5125bf3c",
  "number": 81220,
  "timestamp": 1439498030,
  "nonce": "0xb66e68c31d7e1ada",
  "difficulty": 2454641857257,
  "gasLimit": {
    "_hex": "0x2fefd8"
  },
  "gasUsed": {
    "_hex": "0x1f180"
  },
  "miner": "0x9746c7e1ef2bd21FF3997fa467593a89cb852BD0",
  "extraData": "0x476574682f76312e302e312f77696e646f77732f676f312e342e32",
  "transactions": [
    {
      "hash": "0x86383d51ec1e0430a900c0ee00a807a906346d0dcf59b44deefd128ddfb77d7c",
      "blockHash": "0xf812b69e7dddf262cadf4ffdee5256c2875d14accb4a8758903cd8c2c030c6ba",
      "blockNumber": 81220,
      "transactionIndex": 0,
      "confirmations": null,
      "from": "0x6f4250B4C1Db1B611E43cbd9a04c4138c7c0aF39",
      "gasPrice": {
        "_hex": "0x106070f8c6b"
      },
      "gasLimit": {
        "_hex": "0x61a8"
      },
      "to": "0x2910543Af39abA0Cd09dBb2D50200b3E800A63D2",
      "value": {
        "_hex": "0x21d3bd55e803c0000"
      },
      "nonce": 1,
      "data": "0x584532354554484b52414b454e46305054333538",
      "r": "0x2753163e61626847af3a59bd35353bd3f69b18191a31d7a77d16147698533a03",
      "s": "0x41014890304bae10a16d2b61956894343a2a5bdb11d9b0e61ede726510ea2634",
      "v": 28,
      "creates": null,
      "raw": "0xf88201860106070f8c6b8261a8942910543af39aba0cd09dbb2d50200b3e800a63d289021d3bd55e803c000094584532354554484b52414b454e463050543335381ca02753163e61626847af3a59bd35353bd3f69b18191a31d7a77d16147698533a03a041014890304bae10a16d2b61956894343a2a5bdb11d9b0e61ede726510ea2634",
      "networkId": 0,
      "chainId": 0
    },
    {
      "hash": "0x22cceb7728d8d6cec170354360c9ebb30ac96eedc2b7de5898402afafb5c5390",
      "blockHash": "0xf812b69e7dddf262cadf4ffdee5256c2875d14accb4a8758903cd8c2c030c6ba",
      "blockNumber": 81220,
      "transactionIndex": 1,
      "confirmations": null,
      "from": "0x2910543Af39abA0Cd09dBb2D50200b3E800A63D2",
      "gasPrice": {
        "_hex": "0xd25c2ed7a"
      },
      "gasLimit": {
        "_hex": "0x5208"
      },
      "to": "0x9f2DCCCF9e6A2601798E05e9ab5Eb6ccf7bAA111",
      "value": {
        "_hex": "0x56bb59ab42b2f8000"
      },
      "nonce": 449,
      "data": "0x",
      "r": "0x6cb253bb79c11d2f3ebaa6d16c808c467fb3333c0d6783aecc469648192f8229",
      "s": "0x67dde7a1ff4a8ebb04db9c9ea6f8eab53819affcf834ce0e4386d7b4b9b2dfae",
      "v": 27,
      "creates": null,
      "raw": "0xf86f8201c1850d25c2ed7a825208949f2dcccf9e6a2601798e05e9ab5eb6ccf7baa11189056bb59ab42b2f8000801ba06cb253bb79c11d2f3ebaa6d16c808c467fb3333c0d6783aecc469648192f8229a067dde7a1ff4a8ebb04db9c9ea6f8eab53819affcf834ce0e4386d7b4b9b2dfae",
      "networkId": 0,
      "chainId": 0
    },
    {
      "hash": "0x7c5f358abf11f43285c54765afba022bfa52b708928b96f423cc246358552e04",
      "blockHash": "0xf812b69e7dddf262cadf4ffdee5256c2875d14accb4a8758903cd8c2c030c6ba",
      "blockNumber": 81220,
      "transactionIndex": 2,
      "confirmations": null,
      "from": "0x2910543Af39abA0Cd09dBb2D50200b3E800A63D2",
      "gasPrice": {
        "_hex": "0xd25c2ed7a"
      },
      "gasLimit": {
        "_hex": "0x5208"
      },
      "to": "0x9Df360518f39eFB9729De3B6f9f1225f542c63E6",
      "value": {
        "_hex": "0x3e5762f790bb578000"
      },
      "nonce": 450,
      "data": "0x",
      "r": "0x63fda057599f434a8abef6dbe0a2ddc68bd75b9b43543b9bb0e749b0098bdd25",
      "s": "0x29e2687ca933d3a10f76313bc3df1a7c4486cadbdb95cd8aee8789b66d89889f",
      "v": 27,
      "creates": null,
      "raw": "0xf86f8201c2850d25c2ed7a825208949df360518f39efb9729de3b6f9f1225f542c63e6893e5762f790bb578000801ba063fda057599f434a8abef6dbe0a2ddc68bd75b9b43543b9bb0e749b0098bdd25a029e2687ca933d3a10f76313bc3df1a7c4486cadbdb95cd8aee8789b66d89889f",
      "networkId": 0,
      "chainId": 0
    },
    {
      "hash": "0x6687bfaa48a8ded99b2c20d2bfb9f833af0f27e64e69799548beef4c31058d9c",
      "blockHash": "0xf812b69e7dddf262cadf4ffdee5256c2875d14accb4a8758903cd8c2c030c6ba",
      "blockNumber": 81220,
      "transactionIndex": 3,
      "confirmations": null,
      "from": "0x2910543Af39abA0Cd09dBb2D50200b3E800A63D2",
      "gasPrice": {
        "_hex": "0xd25c2ed7a"
      },
      "gasLimit": {
        "_hex": "0x5208"
      },
      "to": "0x0CDf45a0f7A9bFD8777c2B6311a6614345aB9D9d",
      "value": {
        "_hex": "0xbdbc301cbb534f8000"
      },
      "nonce": 451,
      "data": "0x",
      "r": "0xa8b0aa447cfc64271be777004fd8b11ef8ab8b59703bfb3869971192786798f6",
      "s": "0x5b379f1a8d8dd7e6e342170c8833e4a4017c658b0b350781d1ebb459821c4ba7",
      "v": 28,
      "creates": null,
      "raw": "0xf86f8201c3850d25c2ed7a825208940cdf45a0f7a9bfd8777c2b6311a6614345ab9d9d89bdbc301cbb534f8000801ca0a8b0aa447cfc64271be777004fd8b11ef8ab8b59703bfb3869971192786798f6a05b379f1a8d8dd7e6e342170c8833e4a4017c658b0b350781d1ebb459821c4ba7",
      "networkId": 0,
      "chainId": 0
    },
    {
      "hash": "0xe44d93d080039d85a7f0c240883b510aaa77b21515581fa68aea9ed328c2b2df",
      "blockHash": "0xf812b69e7dddf262cadf4ffdee5256c2875d14accb4a8758903cd8c2c030c6ba",
      "blockNumber": 81220,
      "transactionIndex": 4,
      "confirmations": null,
      "from": "0x2910543Af39abA0Cd09dBb2D50200b3E800A63D2",
      "gasPrice": {
        "_hex": "0xd25c2ed7a"
      },
      "gasLimit": {
        "_hex": "0x5208"
      },
      "to": "0xFd1356C729AbA6307fdddAF2abF89c2563bBc1bF",
      "value": {
        "_hex": "0x10f0cdea164213f8000"
      },
      "nonce": 452,
      "data": "0x",
      "r": "0xd2dd14f64f43adfd359604539f4e165dddd5d6b588c7ca148c68041a2db019d4",
      "s": "0x72d3b0832e3280a92a8fa4995321cd6287126a835bd3f775cf5bda8a6110bbf1",
      "v": 28,
      "creates": null,
      "raw": "0xf8708201c4850d25c2ed7a82520894fd1356c729aba6307fdddaf2abf89c2563bbc1bf8a010f0cdea164213f8000801ca0d2dd14f64f43adfd359604539f4e165dddd5d6b588c7ca148c68041a2db019d4a072d3b0832e3280a92a8fa4995321cd6287126a835bd3f775cf5bda8a6110bbf1",
      "networkId": 0,
      "chainId": 0
    },
    {
      "hash": "0x1e23d3ab0b6a8980defa66dd4af3f059856ab7fada7aa7c1c27631473f9f416f",
      "blockHash": "0xf812b69e7dddf262cadf4ffdee5256c2875d14accb4a8758903cd8c2c030c6ba",
      "blockNumber": 81220,
      "transactionIndex": 5,
      "confirmations": null,
      "from": "0x2910543Af39abA0Cd09dBb2D50200b3E800A63D2",
      "gasPrice": {
        "_hex": "0xd25c2ed7a"
      },
      "gasLimit": {
        "_hex": "0x5208"
      },
      "to": "0x9630Db4398d754a15E7E3A395269D2e884C5ec59",
      "value": {
        "_hex": "0x2b5d1eb9d79a78000"
      },
      "nonce": 453,
      "data": "0x",
      "r": "0x07edd874046f8fd3b32222f9ef25fc44ff25ab2f2ecf499cc77d55d9d0a7c8c7",
      "s": "0x46db86f519bc899aff05f810a798169d7eec449f0a575a9056c7addcb773de9f",
      "v": 28,
      "creates": null,
      "raw": "0xf86f8201c5850d25c2ed7a825208949630db4398d754a15e7e3a395269d2e884c5ec598902b5d1eb9d79a78000801ca007edd874046f8fd3b32222f9ef25fc44ff25ab2f2ecf499cc77d55d9d0a7c8c7a046db86f519bc899aff05f810a798169d7eec449f0a575a9056c7addcb773de9f",
      "networkId": 0,
      "chainId": 0
    }
  ]
}