{
  "hash": "0xe2d3577e90e88f88d8c8f3142d13010a4c918b33ebdabc6c2234a118fe8979df",
  "parentHash": "0xffe33e4b44d9a065d2d396838d5c12a7f8a6d5f564b7019bb6cbd1e2979cccc6",
  "number": 66843,
  "timestamp": 1439261262,
  "nonce": "0xb9bf2bdfa44d995b",
  "difficulty": 1949866927063,
  "gasLimit": {
    "_hex": "0x2fefd8"
  },
  "gasUsed": {
    "_hex": "0x5208"
  },
  "miner": "0x88D74a59454F6cF3B51ef6b9136AFb6b9D405A88",
  "extraData": "0x476574682f76312e302e312d37666266393930632f6c696e75782f676f312e34",
  "transactions": [
    {
      "hash": "0xb3975d116569bf24b63505c291942c8aaaf82dd8834812d39ee94bad0c9c64f0",
      "blockHash": "0xe2d3577e90e88f88d8c8f3142d13010a4c918b33ebdabc6c2234a118fe8979df",
      "blockNumber": 66843,
      "transactionIndex": 0,
      "confirmations": null,
      "from": "0x009781507fC411166590C7f205FBeC84c4fbe0AA",
      "gasPrice": {
        "_hex": "0xba43b7400"
      },
      "gasLimit": {
        "_hex": "0x5208"
      },
      "to": "0x00cDBe22d1E508635F75Ee617b459595072c9229",
      "value": {
        "_hex": "0x15f8a8030866000"
      },
      "nonce": 0,
      "data": "0x",
      "r": "0x58638142bdc3b765479870553cc731039db2b8f35a60b87ff14751a07037723e",
      "s": "0x6fd079e4abfe1ecf96f1036f4393bf7f6fab028b5e88011eadb976ee6c3ce426",
      "v": 28,
      "creates": null,
      "raw": "0xf86c80850ba43b74008252089400cdbe22d1e508635f75ee617b459595072c922988015f8a8030866000801ca058638142bdc3b765479870553cc731039db2b8f35a60b87ff14751a07037723ea06fd079e4abfe1ecf96f1036f4393bf7f6fab028b5e88011eadb976ee6c3ce426",
      "networkId": 0,
      "chainId": 0
    }
  ]
}