{
  "hash": "0x26811cdedf06882d4ef7bcfa486c59c3ef2ec0677b3b78b1c91c10a4f1812899",
  "parentHash": "0x4f859178b8c514311127eb77d18d4fe8738b14ce46661535f28ba22115f93387",
  "number": 89670,
  "timestamp": 1439627324,
  "nonce": "0xd8b0323d35d71d72",
  "difficulty": 3315907644392,
  "gasLimit": {
    "_hex": "0x2fefd8"
  },
  "gasUsed": {
    "_hex": "0x5208"
  },
  "miner": "0xD0ee3F53eE0fCf3F9fbCcdd17BD1b6441DdC2074",
  "extraData": "0x476574682f76312e302e312d38326566323666362f6c696e75782f676f312e34",
  "transactions": [
    {
      "hash": "0xba1cebd2df385fa93a28643322f16b331e1d615091e1100315acd00c33c33c2a",
      "blockHash": "0x26811cdedf06882d4ef7bcfa486c59c3ef2ec0677b3b78b1c91c10a4f1812899",
      "blockNumber": 89670,
      "transactionIndex": 0,
      "confirmations": null,
      "from": "0x790b8a3cE86E707ED0eD32bF89B3269692a23CC1",
      "gasPrice": {
        "_hex": "0xd70da82f3"
      },
      "gasLimit": {
        "_hex": "0x15f90"
      },
      "to": "0x4D67f4F0Db45b3B5a3424B39ed8d972F710381D5",
      "value": {
        "_hex": "0x3a2addc7009a240000"
      },
      "nonce": 3,
      "data": "0x",
      "r": "0x002cb63cb30b3d0707d8bfe91c35e9a401183d65aa5e793ba4e30be2952389b1",
      "s": "0x27ee820b4e050c2f9bc95f4e6084386e16f469014b442263dc830a0a022544b5",
      "v": 28,
      "creates": null,
      "raw": "0xf86d03850d70da82f383015f90944d67f4f0db45b3b5a3424b39ed8d972f710381d5893a2addc7009a240000801c9f2cb63cb30b3d0707d8bfe91c35e9a401183d65aa5e793ba4e30be2952389b1a027ee820b4e050c2f9bc95f4e6084386e16f469014b442263dc830a0a022544b5",
      "networkId": 0,
      "chainId": 0
    }
  ]
}