{
  "hash": "0xc540456683a73bc3064de304d5fcf85917e6a8045e025484722097c65f1f85a6",
  "parentHash": "0xb9dd102b4292598a0933894d82bec00c54ad98b5d25d4630e4fabeb9bc65bf9a",
  "number": 88701,
  "timestamp": 1439612118,
  "nonce": "0x20ce03a407167e3c",
  "difficulty": 3231569688599,
  "gasLimit": {
    "_hex": "0x2fefd8"
  },
  "gasUsed": {
    "_hex": "0xa410"
  },
  "miner": "0xe6A7a1d47ff21B6321162AEA7C6CB457D5476Bca",
  "extraData": "0x476574682f76312e302e312d38326566323666362f6c696e75782f676f312e34",
  "transactions": [
    {
      "hash": "0xc216f94d2ee2d6a1cd851adfff39a74405bb35916e59cd33d71c3330bacf84f0",
      "blockHash": "0xc540456683a73bc3064de304d5fcf85917e6a8045e025484722097c65f1f85a6",
      "blockNumber": 88701,
      "transactionIndex": 0,
      "confirmations": null,
      "from": "0x120A270bbC009644e35F0bB6ab13f95b8199c4ad",
      "gasPrice": {
        "_hex": "0xcea903065"
      },
      "gasLimit": {
        "_hex": "0x3d090"
      },
      "to": "0x53BFCE3f348BBcE29164602DB6C6557c73298a4c",
      "value": {
        "_hex": "0x26bf9c1b93c1d2800"
      },
      "nonce": 520,
      "data": "0x",
      "r": "0x5bd0227e338b02fd27f4ff897b3e05248ed4e3e35423d33be72b36571434e6b0",
      "s": "0x2f0323790f407a925e8f72bd34726e3dcf3815d5ecc3460c36a07cd976698a22",
      "v": 27,
      "creates": null,
      "raw": "0xf870820208850cea9030658303d0909453bfce3f348bbce29164602db6c6557c73298a4c89026bf9c1b93c1d2800801ba05bd0227e338b02fd27f4ff897b3e05248ed4e3e35423d33be72b36571434e6b0a02f0323790f407a925e8f72bd34726e3dcf3815d5ecc3460c36a07cd976698a22",
      "networkId": 0,
      "chainId": 0
    },
    {
      "hash": "0x4909cdd88c06371d9d5fb6be1872d4bfe091b9db4111772092338394a3ebbdaa",
      "blockHash": "0xc540456683a73bc3064de304d5fcf85917e6a8045e025484722097c65f1f85a6",
      "blockNumber": 88701,
      "transactionIndex": 1,
      "confirmations": null,
      "from": "0x54A6ae0918896330899e0999038D20D94031c6fe",
      "gasPrice": {
        "_hex": "0xba43b7400"
      },
      "gasLimit": {
        "_hex": "0x5208"
      },
      "to": "0xC47Aaa860008be6f65B58c6C6E02a84e666EfE31",
      "value": {
        "_hex": "0x15adc5919f3dfe000"
      },
      "nonce": 0,
      "data": "0x",
      "r": "0xeab8a09df83d3b4d7e6b2566a36fe67bb747f6ea54dc8ca44a749aa4a9323ffa",
      "s": "0x112d213d7599f1f97376ddbc343af42a92e1be8b1b190cc38f6b73c18fb256ec",
      "v": 27,
      "creates": null,
      "raw": "0xf86d80850ba43b740082520894c47aaa860008be6f65b58c6c6e02a84e666efe3189015adc5919f3dfe000801ba0eab8a09df83d3b4d7e6b2566a36fe67bb747f6ea54dc8ca44a749aa4a9323ffaa0112d213d7599f1f97376ddbc343af42a92e1be8b1b190cc38f6b73c18fb256ec",
      "networkId": 0,
      "chainId": 0
    }
  ]
}