{
  "hash": "0x537e0c6c3d70ffd73bf91b6a82aa19d2db4e4790005c649a36cbae60183ea1df",
  "parentHash": "0x6a016db0df2c15883b3a810ebaef301aa508cae12538bc772c51ec3cb575ca8d",
  "number": 104686,
  "timestamp": 1439873725,
  "nonce": "0x53ef347a17c0f02e",
  "difficulty": 4363648624341,
  "gasLimit": {
    "_hex": "0x2fefd8"
  },
  "gasUsed": {
    "_hex": "0x5208"
  },
  "miner": "0xcf00A85f3826941e7A25BFcF9Aac575d40410852",
  "extraData": "0x476574682f76312e302e312f77696e646f77732f676f312e342e32",
  "transactions": [
    {
      "hash": "0xb8f8af38d60f317d9ec86c2d878b4d028f63a768dbdc88226ab0987eea945ab6",
      "blockHash": "0x537e0c6c3d70ffd73bf91b6a82aa19d2db4e4790005c649a36cbae60183ea1df",
      "blockNumber": 104686,
      "transactionIndex": 0,
      "confirmations": null,
      "from": "0x120A270bbC009644e35F0bB6ab13f95b8199c4ad",
      "gasPrice": {
        "_hex": "0xcb4825d78"
      },
      "gasLimit": {
        "_hex": "0x3d090"
      },
      "to": "0xCA092A957744f6385B1aee5dC694143E8A06F805",
      "value": {
        "_hex": "0x16345785d8a0000"
      },
      "nonce": 754,
      "data": "0x",
      "r": "0x8fcc9308875385bf63a36dbf0d7f02dfe3cadb293aa2d3ed332bac47232c23e8",
      "s": "0x49a4e6cab0606571a20688d4e10df7a3ec214b91c4b49e8beb22cdf653da825f",
      "v": 28,
      "creates": null,
      "raw": "0xf86f8202f2850cb4825d788303d09094ca092a957744f6385b1aee5dc694143e8a06f80588016345785d8a0000801ca08fcc9308875385bf63a36dbf0d7f02dfe3cadb293aa2d3ed332bac47232c23e8a049a4e6cab0606571a20688d4e10df7a3ec214b91c4b49e8beb22cdf653da825f",
      "networkId": 0,
      "chainId": 0
    }
  ]
}