{
  "hash": "0x7db46c785ced804a0f74c1f1dfc4d298f1d81e3a739f5c1c228200cf1b5b85f9",
  "parentHash": "0xd2a79381cdcd1026b481790fb4a02d35b5ef906d01f28b8cc1ad6d307988825f",
  "number": 81818,
  "timestamp": 1439508351,
  "nonce": "0x2b6bfcc511bd42f4",
  "difficulty": 2428241643926,
  "gasLimit": {
    "_hex": "0x2fefd8"
  },
  "gasUsed": {
    "_hex": "0x2c75c"
  },
  "miner": "0xbb7B8287f3F0a933474a79eAe42CBCa977791171",
  "extraData": "0x476574682f4c5649562f76312e302e312f6c696e75782f676f312e342e32",
  "transactions": [
    {
      "hash": "0x248335bd88c3556b19d79b8dca903d58b248152f4014cf8f8f282aa30c94421d",
      "blockHash": "0x7db46c785ced804a0f74c1f1dfc4d298f1d81e3a739f5c1c228200cf1b5b85f9",
      "blockNumber": 81818,
      "transactionIndex": 0,
      "confirmations": null,
      "from": "0x8D1c6749EAB6Db364671E1e1a2f12711a977B184",
      "gasPrice": {
        "_hex": "0x116ac344af7"
      },
      "gasLimit": {
        "_hex": "0x59d8"
      },
      "to": "0x528419cd4425d074D168Ae82CdFc335076b09B2F",
      "value": {
        "_hex": "0xde0b6b3a7640000"
      },
      "nonce": 0,
      "data": "0x",
      "r": "0xa44c9ff5d80e07db254b871f92d6f45394e1bb60e26f00d47c3ddd00218b1de0",
      "s": "0x4617a7ceb521bd0997de3e9a4141a1de4241084075462001bfbec444fe6a3f8f",
      "v": 28,
      "creates": null,
      "raw": "0xf86d80860116ac344af78259d894528419cd4425d074d168ae82cdfc335076b09b2f880de0b6b3a7640000801ca0a44c9ff5d80e07db254b871f92d6f45394e1bb60e26f00d47c3ddd00218b1de0a04617a7ceb521bd0997de3e9a4141a1de4241084075462001bfbec444fe6a3f8f",
      "networkId": 0,
      "chainId": 0
    },
    {
      "hash": "0x92e5a93202457cc504c2b32a04feb9babbf5ffc6d318a3bfecd5184578e91597",
      "blockHash": "0x7db46c785ced804a0f74c1f1dfc4d298f1d81e3a739f5c1c228200cf1b5b85f9",
      "blockNumber": 81818,
      "transactionIndex": 1,
      "confirmations": null,
      "from": "0xBf6925c00751008440A6739A02Bf2b6CDaAb5e3A",
      "gasPrice": {
        "_hex": "0x110c8f7d8de"
      },
      "gasLimit": {
        "_hex": "0xc350"
      },
      "to": "0x2910543Af39abA0Cd09dBb2D50200b3E800A63D2",
      "value": {
        "_hex": "0x1b1981916a91c60000"
      },
      "nonce": 1,
      "data": "0x454e5145334a344152",
      "r": "0x6530d1a2b40da8449570a0503ca80fb1f8f831fc591b430d6b5d9f766b748960",
      "s": "0xff47c6ac20794846ae5595f1baa96369f3b8b7ce431a07159878b47c57d28aef",
      "v": 28,
      "creates": null,
      "raw": "0xf87701860110c8f7d8de82c350942910543af39aba0cd09dbb2d50200b3e800a63d2891b1981916a91c6000089454e5145334a3441521ca06530d1a2b40da8449570a0503ca80fb1f8f831fc591b430d6b5d9f766b748960a0ff47c6ac20794846ae5595f1baa96369f3b8b7ce431a07159878b47c57d28aef",
      "networkId": 0,
      "chainId": 0
    },
    {
      "hash": "0x0f8cf7cb243adcddb1d9dbfc865908b9eab491245e2998e216bb25e1f5998d94",
      "blockHash": "0x7db46c785ced804a0f74c1f1dfc4d298f1d81e3a739f5c1c228200cf1b5b85f9",
      "blockNumber": 81818,
      "transactionIndex": 2,
      "confirmations": null,
      "from": "0x2905726Ed11131A984ce9C0119cB32DBC99dE90B",
      "gasPrice": {
        "_hex": "0x10e64139f74"
      },
      "gasLimit": {
        "_hex": "0x30d40"
      },
      "to": "0xd94BAdbEC21695B7a36ABCb979EFad0108319d18",
      "value": {
        "_hex": "0x1902d7bb38000"
      },
      "nonce": 28,
      "data": "0xa69beaba5374617220576172732045702034000000000000000000000000000000000000",
      "r": "0xe6c0143b8722541a9c9a3e71915f5418bf551e85d42b5fd61b49a3dc59859284",
      "s": "0x4fa0bf95ded86afd4c299d4a8e88b3ad31a9f351d52e19f7c9df46a515641f5e",
      "v": 28,
      "creates": null,
      "raw": "0xf8911c86010e64139f7483030d4094d94badbec21695b7a36abcb979efad0108319d188701902d7bb38000a4a69beaba53746172205761727320457020340000000000000000000000000000000000001ca0e6c0143b8722541a9c9a3e71915f5418bf551e85d42b5fd61b49a3dc59859284a04fa0bf95ded86afd4c299d4a8e88b3ad31a9f351d52e19f7c9df46a515641f5e",
      "networkId": 0,
      "chainId": 0
    },
    {
      "hash": "0x4dfea730f968168aa8641bcec1a7cc054eb52ae98b4e0a54e74f696d3aac82d2",
      "blockHash": "0x7db46c785ced804a0f74c1f1dfc4d298f1d81e3a739f5c1c228200cf1b5b85f9",
      "blockNumber": 81818,
      "transactionIndex": 3,
      "confirmations": null,
      "from": "0x0D82Cd113DC35DdDA93f38166cD5CDe8b88e36A1",
      "gasPrice": {
        "_hex": "0xe17512e49"
      },
      "gasLimit": {
        "_hex": "0x15f90"
      },
      "to": "0x54302cdad49413689acA2a6fB49161E5B56Faf4A",
      "value": {
        "_hex": "0x2386f26fc10000"
      },
      "nonce": 2,
      "data": "0x101e895200000000000000000000000073ccaa6fce871d925d908fb141b0f6f720fe60eb",
      "r": "0xa6a930f26a2ec7803714aadbab774cda34c9cf23a1a302780147c7e84ec046a8",
      "s": "0x475130024284fdcbf4ce7ab9f922b04e585604d217aeab8a71c82a3460ae6e23",
      "v": 28,
      "creates": null,
      "raw": "0xf89002850e17512e4983015f909454302cdad49413689aca2a6fb49161e5b56faf4a872386f26fc10000a4101e895200000000000000000000000073ccaa6fce871d925d908fb141b0f6f720fe60eb1ca0a6a930f26a2ec7803714aadbab774cda34c9cf23a1a302780147c7e84ec046a8a0475130024284fdcbf4ce7ab9f922b04e585604d217aeab8a71c82a3460ae6e23",
      "networkId": 0,
      "chainId": 0
    },
    {
      "hash": "0xc72d85ef9048b09fc4119d16e814ef49bdacd5773d5baa3704c85fcf3f4aaed7",
      "blockHash": "0x7db46c785ced804a0f74c1f1dfc4d298f1d81e3a739f5c1c228200cf1b5b85f9",
      "blockNumber": 81818,
      "transactionIndex": 4,
      "confirmations": null,
      "from": "0x2910543Af39abA0Cd09dBb2D50200b3E800A63D2",
      "gasPrice": {
        "_hex": "0xcaf080046"
      },
      "gasLimit": {
        "_hex": "0x5208"
      },
      "to": "0x0b4DFb6CDa1BBAcf0aaAd9891EDAD0ee2A95Eb52",
      "value": {
        "_hex": "0xebda5e74e5c38000"
      },
      "nonce": 500,
      "data": "0x",
      "r": "0xbc1b4bbec47c471ebae5d81b87a150be4710cce682bad5529c5adc5931c85cef",
      "s": "0x6a66b3504f4990a90323de025fe7f17f774609858fa9b81ec049a57c89e747fa",
      "v": 27,
      "creates": null,
      "raw": "0xf86e8201f4850caf080046825208940b4dfb6cda1bbacf0aaad9891edad0ee2a95eb5288ebda5e74e5c38000801ba0bc1b4bbec47c471ebae5d81b87a150be4710cce682bad5529c5adc5931c85cefa06a66b3504f4990a90323de025fe7f17f774609858fa9b81ec049a57c89e747fa",
      "networkId": 0,
      "chainId": 0
    },
    {
      "hash": "0xeec546cc418dbd423de087c270bc1f11f4034afeaab0ca37ef4b3b1c900d43dc",
      "blockHash": "0x7db46c785ced804a0f74c1f1dfc4d298f1d81e3a739f5c1c228200cf1b5b85f9",
      "blockNumber": 81818,
      "transactionIndex": 5,
      "confirmations": null,
      "from": "0xaD9c137D6bFC458Aabd4163b3463F557fADB70b4",
      "gasPrice": {
        "_hex": "0xba43b7400"
      },
      "gasLimit": {
        "_hex": "0x5208"
      },
      "to": "0xC47Aaa860008be6f65B58c6C6E02a84e666EfE31",
      "value": {
        "_hex": "0x821958ed2afb3e000"
      },
      "nonce": 0,
      "data": "0x",
      "r": "0x2381446e48b894f70e0325c15c32e4db1b32a8f670da17453a19037c01f8f2e2",
      "s": "0x3616e9faa2890c5d93d8e33418f10792ddd7f39cf9a7ddedef721a62898054ea",
      "v": 27,
      "creates": null,
      "raw": "0xf86d80850ba43b740082520894c47aaa860008be6f65b58c6c6e02a84e666efe31890821958ed2afb3e000801ba02381446e48b894f70e0325c15c32e4db1b32a8f670da17453a19037c01f8f2e2a03616e9faa2890c5d93d8e33418f10792ddd7f39cf9a7ddedef721a62898054ea",
      "networkId": 0,
      "chainId": 0
    }
  ]
}