{
  "hash": "0xd99987fba4efcbb7c3a439db4a5862f4dcb4fb42a7f60a9ae81e304df06cfd0c",
  "parentHash": "0x475dcacf2662fef524d158f6a6d08599f6b3b4f1512dca6f21b31ab448ccc887",
  "number": 71208,
  "timestamp": 1439332442,
  "nonce": "0xd351abea92884e37",
  "difficulty": 2145627805906,
  "gasLimit": {
    "_hex": "0x2fefd8"
  },
  "gasUsed": {
    "_hex": "0x19a28"
  },
  "miner": "0xf927a40C8B7F6E07c5af7FA2155B4864a4112B13",
  "extraData": "0x",
  "transactions": [
    {
      "hash": "0x113070cdfc1ffd7e13794b483076cdd3a683ae8bdd63714d77843ee2137e5951",
      "blockHash": "0xd99987fba4efcbb7c3a439db4a5862f4dcb4fb42a7f60a9ae81e304df06cfd0c",
      "blockNumber": 71208,
      "transactionIndex": 0,
      "confirmations": null,
      "from": "0xE5cd922132641CF77d8a95dE3F3B335Ee6D54d71",
      "gasPrice": {
        "_hex": "0xe13b6a498"
      },
      "gasLimit": {
        "_hex": "0x15f90"
      },
      "to": "0x5dF3c258e20B5c4D2B931A34b76335977DD0343d",
      "value": {
        "_hex": "0x38d7ea4c68000"
      },
      "nonce": 1,
      "data": "0x",
      "r": "0xfc8eb3810cbdb5df0dc72b6331c69530aa27c1b08cfce2e090fa0c859fa4f39f",
      "s": "0x22934e4e2a48fa77502cacafcdbc0155815e8e88a18f92c41703129e7cf02e3e",
      "v": 28,
      "creates": null,
      "raw": "0xf86c01850e13b6a49883015f90945df3c258e20b5c4d2b931a34b76335977dd0343d87038d7ea4c68000801ca0fc8eb3810cbdb5df0dc72b6331c69530aa27c1b08cfce2e090fa0c859fa4f39fa022934e4e2a48fa77502cacafcdbc0155815e8e88a18f92c41703129e7cf02e3e",
      "networkId": 0,
      "chainId": 0
    },
    {
      "hash": "0x390a5e732357a0fa1295a8f6293d661fc223c31816fb87b9c09af272c36200de",
      "blockHash": "0xd99987fba4efcbb7c3a439db4a5862f4dcb4fb42a7f60a9ae81e304df06cfd0c",
      "blockNumber": 71208,
      "transactionIndex": 1,
      "confirmations": null,
      "from": "0x1e7B5e4d1F572BEcf2c00fC90cB4767b4A6E33D4",
      "gasPrice": {
        "_hex": "0xdac2773b9"
      },
      "gasLimit": {
        "_hex": "0x15f90"
      },
      "to": "0x3a5e3acAF9E194bFc9bE8a16B3f437D7eA1d7A15",
      "value": {
        "_hex": "0x186fa36b328443"
      },
      "nonce": 1,
      "data": "0x",
      "r": "0xad7a8af42c38067d6df63efb36e55ffa420232dac0daf6c2e8f08eaf2223077a",
      "s": "0x6f86a55b353def5c78c08bb9a1103cce80a8fb1334a9ba5f7310f588cba5f1a6",
      "v": 28,
      "creates": null,
      "raw": "0xf86c01850dac2773b983015f90943a5e3acaf9e194bfc9be8a16b3f437d7ea1d7a1587186fa36b328443801ca0ad7a8af42c38067d6df63efb36e55ffa420232dac0daf6c2e8f08eaf2223077aa06f86a55b353def5c78c08bb9a1103cce80a8fb1334a9ba5f7310f588cba5f1a6",
      "networkId": 0,
      "chainId": 0
    },
    {
      "hash": "0x60a91ceb80535001cd27f7381cd484008bd4b13023babb02d3fed587fdeca4a7",
      "blockHash": "0xd99987fba4efcbb7c3a439db4a5862f4dcb4fb42a7f60a9ae81e304df06cfd0c",
      "blockNumber": 71208,
      "transactionIndex": 2,
      "confirmations": null,
      "from": "0x285B048CC4cB946abCF3eF11aDe982C36946AF18",
      "gasPrice": {
        "_hex": "0xd1518f14e"
      },
      "gasLimit": {
        "_hex": "0x5208"
      },
      "to": "0x32Be343B94f860124dC4fEe278FDCBD38C102D88",
      "value": {
        "_hex": "0x41358fee53afd000"
      },
      "nonce": 5,
      "data": "0x",
      "r": "0x373710c5ee73db5b911e043be47ff27d75c158d602837c97c209940e9123062f",
      "s": "0x61676ff8015c7809287c48e4e354d431ece9b45a8db17d57b56ee21068cb45ea",
      "v": 28,
      "creates": null,
      "raw": "0xf86c05850d1518f14e8252089432be343b94f860124dc4fee278fdcbd38c102d888841358fee53afd000801ca0373710c5ee73db5b911e043be47ff27d75c158d602837c97c209940e9123062fa061676ff8015c7809287c48e4e354d431ece9b45a8db17d57b56ee21068cb45ea",
      "networkId": 0,
      "chainId": 0
    },
    {
      "hash": "0xf0a089eab0b760fdf0deab1a9ddca214c81510e8a7287bbe9cb6654e04e20a01",
      "blockHash": "0xd99987fba4efcbb7c3a439db4a5862f4dcb4fb42a7f60a9ae81e304df06cfd0c",
      "blockNumber": 71208,
      "transactionIndex": 3,
      "confirmations": null,
      "from": "0xabceA603089850F8f6bB612A9031554D90A247CF",
      "gasPrice": {
        "_hex": "0xd1518f14e"
      },
      "gasLimit": {
        "_hex": "0x5208"
      },
      "to": "0x32Be343B94f860124dC4fEe278FDCBD38C102D88",
      "value": {
        "_hex": "0x455f60576c4dd000"
      },
      "nonce": 4,
      "data": "0x",
      "r": "0x16e6ee6adb8628b1318625d41290154b515b2bc00361d7a3133a7201183d44fe",
      "s": "0x5471fc2f3ddca0fd15f712ff69747e4df2a94d16c9085d90082c1f286c05f6c9",
      "v": 27,
      "creates": null,
      "raw": "0xf86c04850d1518f14e8252089432be343b94f860124dc4fee278fdcbd38c102d8888455f60576c4dd000801ba016e6ee6adb8628b1318625d41290154b515b2bc00361d7a3133a7201183d44fea05471fc2f3ddca0fd15f712ff69747e4df2a94d16c9085d90082c1f286c05f6c9",
      "networkId": 0,
      "chainId": 0
    },
    {
      "hash": "0x16a606d097415fff863d55158e7b17db77d9528be6fc9c03b7a8e9f73d4a5f2d",
      "blockHash": "0xd99987fba4efcbb7c3a439db4a5862f4dcb4fb42a7f60a9ae81e304df06cfd0c",
      "blockNumber": 71208,
      "transactionIndex": 4,
      "confirmations": null,
      "from": "0x6d921977dEFE5f4e0682CA512De1D07b1f4802E1",
      "gasPrice": {
        "_hex": "0xd1518f14e"
      },
      "gasLimit": {
        "_hex": "0x5208"
      },
      "to": "0x32Be343B94f860124dC4fEe278FDCBD38C102D88",
      "value": {
        "_hex": "0x10a31ba4b2db8000"
      },
      "nonce": 2,
      "data": "0x",
      "r": "0x3950eab9463c4952b465dece0d1992ff7b2a4c7810efbe0082293f44cbc4a39b",
      "s": "0x4b1beea09279a6cff7b87666f0c34ce799ed5df255e19700a5798f19da6ed9d7",
      "v": 28,
      "creates": null,
      "raw": "0xf86c02850d1518f14e8252089432be343b94f860124dc4fee278fdcbd38c102d888810a31ba4b2db8000801ca03950eab9463c4952b465dece0d1992ff7b2a4c7810efbe0082293f44cbc4a39ba04b1beea09279a6cff7b87666f0c34ce799ed5df255e19700a5798f19da6ed9d7",
      "networkId": 0,
      "chainId": 0
    }
  ]
}