{
  "hash": "0xa41eaaa60dcd56ea5f45cb953ae3054296efd71580fc8c11758b300c445addbb",
  "parentHash": "0x33390032874b31d143408867dfb3a3e79691f4c9a788e2a658a235ce32140a5c",
  "number": 103412,
  "timestamp": 1439852978,
  "nonce": "0x68dea98b10e688b6",
  "difficulty": 4168523845978,
  "gasLimit": {
    "_hex": "0x2fefd8"
  },
  "gasUsed": {
    "_hex": "0x546c"
  },
  "miner": "0xe6A7a1d47ff21B6321162AEA7C6CB457D5476Bca",
  "extraData": "0x476574682f76312e302e312d38326566323666362f6c696e75782f676f312e34",
  "transactions": [
    {
      "hash": "0xe08f7458276d4060809f22f0b9e20bc6f5f44588ed2bdea94c3858c53bdd85b5",
      "blockHash": "0xa41eaaa60dcd56ea5f45cb953ae3054296efd71580fc8c11758b300c445addbb",
      "blockNumber": 103412,
      "transactionIndex": 0,
      "confirmations": null,
      "from": "0x6C05E34e5Ef2f42Ed09deFF1026cD66BCb6960bb",
      "gasPrice": {
        "_hex": "0x9184e72a000"
      },
      "gasLimit": {
        "_hex": "0x99194"
      },
      "to": "0x2910543Af39abA0Cd09dBb2D50200b3E800A63D2",
      "value": {
        "_hex": "0x3782dace9d900000"
      },
      "nonce": 2,
      "data": "0x454e32383547574138",
      "r": "0x466ff28797055b81da0ce52f09db35906afdbbcbace560861c043e4165ff2688",
      "s": "0x1da0b6c60220d11f2737711b483d36d55342d12f9587e94d3d4434783d6d8c88",
      "v": 28,
      "creates": null,
      "raw": "0xf877028609184e72a00083099194942910543af39aba0cd09dbb2d50200b3e800a63d2883782dace9d90000089454e323835475741381ca0466ff28797055b81da0ce52f09db35906afdbbcbace560861c043e4165ff2688a01da0b6c60220d11f2737711b483d36d55342d12f9587e94d3d4434783d6d8c88",
      "networkId": 0,
      "chainId": 0
    }
  ]
}