{
  "hash": "0x9842e70602607b099e4e539477f4ae5064fca81f3f6f12d0b9449d48d8340119",
  "parentHash": "0x36824bf877e3c51fb14d18548e003a3d29890a7ce66ddec0f48732ee80d45e02",
  "number": 101193,
  "timestamp": 1439818882,
  "nonce": "0x437b4fd43d465202",
  "difficulty": 3846871006155,
  "gasLimit": {
    "_hex": "0x2fefd8"
  },
  "gasUsed": {
    "_hex": "0x5208"
  },
  "miner": "0x7E6930B63D03e88F5928C5cd6ee3FCee4D714F7F",
  "extraData": "0x",
  "transactions": [
    {
      "hash": "0xfee5431f1fb1c343d3913cec9a5c55689f3a8d68aff8845a87c912ce4346031a",
      "blockHash": "0x9842e70602607b099e4e539477f4ae5064fca81f3f6f12d0b9449d48d8340119",
      "blockNumber": 101193,
      "transactionIndex": 0,
      "confirmations": null,
      "from": "0xb1abce2918E21ddb93AA452731a12672A3d9F75a",
      "gasPrice": {
        "_hex": "0xda33d22b2"
      },
      "gasLimit": {
        "_hex": "0x5208"
      },
      "to": "0x32Be343B94f860124dC4fEe278FDCBD38C102D88",
      "value": {
        "_hex": "0x455f3d432527ac00"
      },
      "nonce": 87,
      "data": "0x",
      "r": "0xf174b4c56787b8ddd979e6bd4e5f50ffcb8e4103d8dc3d7e6804dcecba6e68cc",
      "s": "0x76f02ebe394c287f3d1f330468413b7a0665864106a585810785f4625804e067",
      "v": 28,
      "creates": null,
      "raw": "0xf86c57850da33d22b28252089432be343b94f860124dc4fee278fdcbd38c102d8888455f3d432527ac00801ca0f174b4c56787b8ddd979e6bd4e5f50ffcb8e4103d8dc3d7e6804dcecba6e68cca076f02ebe394c287f3d1f330468413b7a0665864106a585810785f4625804e067",
      "networkId": 0,
      "chainId": 0
    }
  ]
}