{
  "hash": "0xeaf3e4b514f5066762d55af690c9e469b1f8ea4555ae2ec904c1d1e18079a685",
  "parentHash": "0xf4e0a6cc13180cc9bdd729207fa98f3edb395f04d748c931a4d42e2b0d94a5a5",
  "number": 99651,
  "timestamp": 1439793816,
  "nonce": "0xe6d03c4731a8107c",
  "difficulty": 3776845826883,
  "gasLimit": {
    "_hex": "0x2fefd8"
  },
  "gasUsed": {
    "_hex": "0x5208"
  },
  "miner": "0x108b54b7E3c09F8127CB8B28ffA3AD4001b32998",
  "extraData": "0x476574682f76312e302e312d38326566323666362f6c696e75782f676f312e34",
  "transactions": [
    {
      "hash": "0x1a1c5120b944f9a6822072e9833b2da0138b40063671737e93e52e1f8ba875a4",
      "blockHash": "0xeaf3e4b514f5066762d55af690c9e469b1f8ea4555ae2ec904c1d1e18079a685",
      "blockNumber": 99651,
      "transactionIndex": 0,
      "confirmations": null,
      "from": "0xa70a9a7040d542C632D8e0bE7c5513A8a5Bbc752",
      "gasPrice": {
        "_hex": "0xd6ea6366d"
      },
      "gasLimit": {
        "_hex": "0x5208"
      },
      "to": "0x32Be343B94f860124dC4fEe278FDCBD38C102D88",
      "value": {
        "_hex": "0x455f43a59dc2e400"
      },
      "nonce": 199,
      "data": "0x",
      "r": "0x1c196f30e8cd086bd22ef675edaded6c9b293e0c682f7d9098e5a759816ccee1",
      "s": "0x5553fb91f01b42687dbc03c40c76c7e8ef244f8f8534df51f09a207324035cda",
      "v": 27,
      "creates": null,
      "raw": "0xf86d81c7850d6ea6366d8252089432be343b94f860124dc4fee278fdcbd38c102d8888455f43a59dc2e400801ba01c196f30e8cd086bd22ef675edaded6c9b293e0c682f7d9098e5a759816ccee1a05553fb91f01b42687dbc03c40c76c7e8ef244f8f8534df51f09a207324035cda",
      "networkId": 0,
      "chainId": 0
    }
  ]
}