{
  "hash": "0x60a78afc8eb702c7b2787e2786223a36814dda24ef356e9ab37f412a05be3861",
  "parentHash": "0x879cd4dff5a013d50b1d864fc4a8c2c3853f4b3bb60c589747e1c113f9e40445",
  "number": 47325,
  "timestamp": 1438938207,
  "nonce": "0x6072d2d9a9684913",
  "difficulty": 1452393421962,
  "gasLimit": {
    "_hex": "0xb152"
  },
  "gasUsed": {
    "_hex": "0x5208"
  },
  "miner": "0xf927a40C8B7F6E07c5af7FA2155B4864a4112B13",
  "extraData": "0x476574682f76312e302e312f6c696e75782f676f312e342e32",
  "transactions": [
    {
      "hash": "0xe8be597383a97f7f4baaa20d4768906c23aad0d437c475cfbfd026816683ea5c",
      "blockHash": "0x60a78afc8eb702c7b2787e2786223a36814dda24ef356e9ab37f412a05be3861",
      "blockNumber": 47325,
      "transactionIndex": 0,
      "confirmations": null,
      "from": "0x3E4FbD661015f6461ed6735CefeF01F31445De3a",
      "gasPrice": {
        "_hex": "0x746a528800"
      },
      "gasLimit": {
        "_hex": "0x5208"
      },
      "to": "0x53dAc344f48a004729edB5A2aB8900893B904783",
      "value": {
        "_hex": "0x38d7ea4c68000"
      },
      "nonce": 3,
      "data": "0x",
      "r": "0x48871ff8316b139f6bba9283aa89a9a1b77a026cfd0abce6ecdba4b894b04941",
      "s": "0x51eb6de677d81a55367b4a01308a1f51405ce7757fe973ae02bc464474ed34b7",
      "v": 28,
      "creates": null,
      "raw": "0xf86b0385746a5288008252089453dac344f48a004729edb5a2ab8900893b90478387038d7ea4c68000801ca048871ff8316b139f6bba9283aa89a9a1b77a026cfd0abce6ecdba4b894b04941a051eb6de677d81a55367b4a01308a1f51405ce7757fe973ae02bc464474ed34b7",
      "networkId": 0,
      "chainId": 0
    }
  ]
}