{
  "hash": "0x7dd6bc85352cdca252d0ddac64b1eb35583c20f8b153b95027d5fcd2e46302ac",
  "parentHash": "0x76b5a51daaad2d00b17ed7b7ac56294aafd2903bfe16cf1e8cdd957619f2cd76",
  "number": 102810,
  "timestamp": 1439843493,
  "nonce": "0x78a15d0a201dcf1d",
  "difficulty": 4056376109694,
  "gasLimit": {
    "_hex": "0x2fefd8"
  },
  "gasUsed": {
    "_hex": "0x5208"
  },
  "miner": "0xe6A7a1d47ff21B6321162AEA7C6CB457D5476Bca",
  "extraData": "0x476574682f76312e302e312d38326566323666362f6c696e75782f676f312e34",
  "transactions": [
    {
      "hash": "0x3dfbd6a0ed196fdf23c4708c9aa2b22033f4727880ef13c99a6ba81af82eaf41",
      "blockHash": "0x7dd6bc85352cdca252d0ddac64b1eb35583c20f8b153b95027d5fcd2e46302ac",
      "blockNumber": 102810,
      "transactionIndex": 0,
      "confirmations": null,
      "from": "0x32Be343B94f860124dC4fEe278FDCBD38C102D88",
      "gasPrice": {
        "_hex": "0xd9ccf4f50"
      },
      "gasLimit": {
        "_hex": "0x5208"
      },
      "to": "0xCD1e66ED539dd92Fc40bBAa1FA16de8c02C14D45",
      "value": {
        "_hex": "0x6d0f71cd2141d0000"
      },
      "nonce": 1114,
      "data": "0x",
      "r": "0xa3e06b6511a9eea28f71e188d244ccb149a77c2b3f6b37b007dc2fdafee4ca4e",
      "s": "0x3d0c3b0fabcb14a11dc950658964d03daf3c2e79cf4ac6a3d8575ea5d8b4226b",
      "v": 27,
      "creates": null,
      "raw": "0xf86f82045a850d9ccf4f5082520894cd1e66ed539dd92fc40bbaa1fa16de8c02c14d458906d0f71cd2141d0000801ba0a3e06b6511a9eea28f71e188d244ccb149a77c2b3f6b37b007dc2fdafee4ca4ea03d0c3b0fabcb14a11dc950658964d03daf3c2e79cf4ac6a3d8575ea5d8b4226b",
      "networkId": 0,
      "chainId": 0
    }
  ]
}