{
  "hash": "0xe4a44c13b03d4892e6cc040132bfb254c010f5d8090e9ea4ed903366f37613c8",
  "parentHash": "0x4e65da182d7a6d60b7ec16af24c7ba0598a64416759d1987a4d707b0e48ca792",
  "number": 68482,
  "timestamp": 1439288604,
  "nonce": "0x064a201585f9afad",
  "difficulty": 2006464744043,
  "gasLimit": {
    "_hex": "0x2fefd8"
  },
  "gasUsed": {
    "_hex": "0xa410"
  },
  "miner": "0x93641e54c9aA6F9038FE7Adb03629a1747326Cd6",
  "extraData": "0x476574682f76312e302e312f77696e646f77732f676f312e342e32",
  "transactions": [
    {
      "hash": "0x08a582bfa7041bd50ca2dc6b6b4eac9fafc988e8b111b77ac974e2b1158f5a6a",
      "blockHash": "0xe4a44c13b03d4892e6cc040132bfb254c010f5d8090e9ea4ed903366f37613c8",
      "blockNumber": 68482,
      "transactionIndex": 0,
      "confirmations": null,
      "from": "0x6429e332f21e2FA7ac4a8cDa7c080a0F5C89793D",
      "gasPrice": {
        "_hex": "0xba43b7400"
      },
      "gasLimit": {
        "_hex": "0x5208"
      },
      "to": "0xe2717a9c20e462eA9bE2108B3C96618CA442CAe3",
      "value": {
        "_hex": "0x653580cf6eb000"
      },
      "nonce": 1,
      "data": "0x",
      "r": "0xcc4e4e77012173da39dd62a631e104745d9b7bb5cd3391595bdca1ea2077930f",
      "s": "0x694a87b625710ab067653be02cb2e6ff9c0a915c2510ed3011ac119f5fb68ba8",
      "v": 27,
      "creates": null,
      "raw": "0xf86b01850ba43b740082520894e2717a9c20e462ea9be2108b3c96618ca442cae387653580cf6eb000801ba0cc4e4e77012173da39dd62a631e104745d9b7bb5cd3391595bdca1ea2077930fa0694a87b625710ab067653be02cb2e6ff9c0a915c2510ed3011ac119f5fb68ba8",
      "networkId": 0,
      "chainId": 0
    },
    {
      "hash": "0x0737c45cb00fe68ac8d88f7c637b82c9844b8b34dd45418adba459ce6c43dedb",
      "blockHash": "0xe4a44c13b03d4892e6cc040132bfb254c010f5d8090e9ea4ed903366f37613c8",
      "blockNumber": 68482,
      "transactionIndex": 1,
      "confirmations": null,
      "from": "0x6747f922385c9a6F9cfDf095F34345257DD597bE",
      "gasPrice": {
        "_hex": "0xba43b7400"
      },
      "gasLimit": {
        "_hex": "0x5208"
      },
      "to": "0x780D5A1E44482Bc80d68c26e96c6D1072A3F0558",
      "value": {
        "_hex": "0x1fcbfa42bd6000"
      },
      "nonce": 105,
      "data": "0x",
      "r": "0x919737fc6582987cf2b513f36cb9635abc073ae57d7947c6becdf527b0ffd477",
      "s": "0x30832276436fd25ce4ce6ded586c535d9d51850056fcdd71ef5c869e61da03f1",
      "v": 27,
      "creates": null,
      "raw": "0xf86b69850ba43b740082520894780d5a1e44482bc80d68c26e96c6d1072a3f0558871fcbfa42bd6000801ba0919737fc6582987cf2b513f36cb9635abc073ae57d7947c6becdf527b0ffd477a030832276436fd25ce4ce6ded586c535d9d51850056fcdd71ef5c869e61da03f1",
      "networkId": 0,
      "chainId": 0
    }
  ]
}