{
  "hash": "0x810b1e1a0cc27226042031aee11ae24a65fbafd3bfc6cac9e9ed67d905464b1d",
  "parentHash": "0x113ad9e8dbc7d3966315f77b35dc63778deca169644b1137da0a2b9029998827",
  "number": 101503,
  "timestamp": 1439823965,
  "nonce": "0xd8ab3fff27667535",
  "difficulty": 3854249332810,
  "gasLimit": {
    "_hex": "0x2fefd8"
  },
  "gasUsed": {
    "_hex": "0x42a68"
  },
  "miner": "0x710c5fEBe84c40b3C12BE2cB2378B863f67235df",
  "extraData": "0x476574682f76312e302e312f6c696e75782f676f312e342e32",
  "transactions": [
    {
      "hash": "0x4f2a919e63f67493b0527846576464d9b771249495e0ba4a5cf1c94ed5448711",
      "blockHash": "0x810b1e1a0cc27226042031aee11ae24a65fbafd3bfc6cac9e9ed67d905464b1d",
      "blockNumber": 101503,
      "transactionIndex": 0,
      "confirmations": null,
      "from": "0xdD39E4C4B7b8ecCb8618438312b65d87c32F03e0",
      "gasPrice": {
        "_hex": "0xd6b187d36"
      },
      "gasLimit": {
        "_hex": "0x5208"
      },
      "to": "0x601B2281BDE506E33c74A57917e6E2D48476697e",
      "value": {
        "_hex": "0x6f05b59d3b20000"
      },
      "nonce": 1,
      "data": "0x",
      "r": "0xd6af1e8cce27f7e3d2e0f78de70737c2d6f8c83887021cf409aea0a1f1d9f601",
      "s": "0x4b40324261814798dfb35eeebd4ae2a674922fba80e1f843ca04290e1eaa038c",
      "v": 28,
      "creates": null,
      "raw": "0xf86c01850d6b187d3682520894601b2281bde506e33c74a57917e6e2d48476697e8806f05b59d3b20000801ca0d6af1e8cce27f7e3d2e0f78de70737c2d6f8c83887021cf409aea0a1f1d9f601a04b40324261814798dfb35eeebd4ae2a674922fba80e1f843ca04290e1eaa038c",
      "networkId": 0,
      "chainId": 0
    },
    {
      "hash": "0x6736c59328b8b2ec2fbb7d4d25b15b03e6af2cd9412d4f4d44d8fc0cfec24abe",
      "blockHash": "0x810b1e1a0cc27226042031aee11ae24a65fbafd3bfc6cac9e9ed67d905464b1d",
      "blockNumber": 101503,
      "transactionIndex": 1,
      "confirmations": null,
      "from": "0xb62A0BF317fceb39ed916f0F9E60e623Ad309127",
      "gasPrice": {
        "_hex": "0xd1f69d26c"
      },
      "gasLimit": {
        "_hex": "0x15f90"
      },
      "to": "0x6107CF14d0229Ca0D8F3256D50D8114e5Dae6E1d",
      "value": {
        "_hex": "0x8ac7230489e80000"
      },
      "nonce": 5,
      "data": "0x",
      "r": "0x5108c5a95985b104cf04f02c6536f8264046e993c55787d4b6ee27b3ef7fce55",
      "s": "0x2a9a357df0d532cd3b5792a8772547baa2d00e7912fbcf4a339fe57c32f7cbb9",
      "v": 27,
      "creates": null,
      "raw": "0xf86d05850d1f69d26c83015f90946107cf14d0229ca0d8f3256d50d8114e5dae6e1d888ac7230489e80000801ba05108c5a95985b104cf04f02c6536f8264046e993c55787d4b6ee27b3ef7fce55a02a9a357df0d532cd3b5792a8772547baa2d00e7912fbcf4a339fe57c32f7cbb9",
      "networkId": 0,
      "chainId": 0
    },
    {
      "hash": "0x14c87abaae8af2e2daa83cc961d9014b069179ebf5c834dd5000efa03d73ad52",
      "blockHash": "0x810b1e1a0cc27226042031aee11ae24a65fbafd3bfc6cac9e9ed67d905464b1d",
      "blockNumber": 101503,
      "transactionIndex": 2,
      "confirmations": null,
      "from": "0xb62A0BF317fceb39ed916f0F9E60e623Ad309127",
      "gasPrice": {
        "_hex": "0xcfe6c8688"
      },
      "gasLimit": {
        "_hex": "0x15f90"
      },
      "to": "0x6107CF14d0229Ca0D8F3256D50D8114e5Dae6E1d",
      "value": {
        "_hex": "0x8ac7230489e80000"
      },
      "nonce": 6,
      "data": "0x",
      "r": "0xcb9a540eafc56fc3f39311f45ac012507ef46b85daf509390c5da70edb84312f",
      "s": "0x6d2a8f6da669686c10b9c2d25ffbb96e93123bcf25ef196db7c074ce240b3cee",
      "v": 28,
      "creates": null,
      "raw": "0xf86d06850cfe6c868883015f90946107cf14d0229ca0d8f3256d50d8114e5dae6e1d888ac7230489e80000801ca0cb9a540eafc56fc3f39311f45ac012507ef46b85daf509390c5da70edb84312fa06d2a8f6da669686c10b9c2d25ffbb96e93123bcf25ef196db7c074ce240b3cee",
      "networkId": 0,
      "chainId": 0
    },
    {
      "hash": "0x641f388f865d6cb11b26096192ed46fa55f2cd604cdeceacd542c0fc6e3fcd92",
      "blockHash": "0x810b1e1a0cc27226042031aee11ae24a65fbafd3bfc6cac9e9ed67d905464b1d",
      "blockNumber": 101503,
      "transactionIndex": 3,
      "confirmations": null,
      "from": "0x5f8C114C5E534b67aF96E9B7b4432261B933D4fB",
      "gasPrice": {
        "_hex": "0xba43b7400"
      },
      "gasLimit": {
        "_hex": "0x15f90"
      },
      "to": "0xc597A5d92F5dC1137D847db733cfe02c6d209f13",
      "value": {
        "_hex": "0x80577f0082d0000"
      },
      "nonce": 0,
      "data": "0x",
      "r": "0x7052ff7ec56edc412429435de5b41cf210389cb9600369141731148ed208e46a",
      "s": "0x7f0acd8e4de376a519e70275a860bf5ba7e1351302c2a0c2de0ad3dca1a4f575",
      "v": 27,
      "creates": null,
      "raw": "0xf86d80850ba43b740083015f9094c597a5d92f5dc1137d847db733cfe02c6d209f1388080577f0082d0000801ba07052ff7ec56edc412429435de5b41cf210389cb9600369141731148ed208e46aa07f0acd8e4de376a519e70275a860bf5ba7e1351302c2a0c2de0ad3dca1a4f575",
      "networkId": 0,
      "chainId": 0
    },
    {
      "hash": "0x5246382da3b4711c30e544f1607f70ae89459bc780a632cf76383a40db24a9cc",
      "blockHash": "0x810b1e1a0cc27226042031aee11ae24a65fbafd3bfc6cac9e9ed67d905464b1d",
      "blockNumber": 101503,
      "transactionIndex": 4,
      "confirmations": null,
      "from": "0x0fE84fde8E193116965DeC7CBDadA0E886536650",
      "gasPrice": {
        "_hex": "0xba43b7400"
      },
      "gasLimit": {
        "_hex": "0x15f90"
      },
      "to": "0xc597A5d92F5dC1137D847db733cfe02c6d209f13",
      "value": {
        "_hex": "0x45356213e6df8000"
      },
      "nonce": 0,
      "data": "0x",
      "r": "0xba06637d9778aca87a335125791f32f50cd62805632d2dd891e5f8c3910f5e2d",
      "s": "0x48690ef0f466dad42b70e7cdcc13882414b462cb1cbd8c77cbb24cbf50a1c63d",
      "v": 28,
      "creates": null,
      "raw": "0xf86d80850ba43b740083015f9094c597a5d92f5dc1137d847db733cfe02c6d209f138845356213e6df8000801ca0ba06637d9778aca87a335125791f32f50cd62805632d2dd891e5f8c3910f5e2da048690ef0f466dad42b70e7cdcc13882414b462cb1cbd8c77cbb24cbf50a1c63d",
      "networkId": 0,
      "chainId": 0
    },
    {
      "hash": "0x4b55058ce65f8bed1336dfa14c40417bbf480c3d62e6cb456a23050fd9cdaef7",
      "blockHash": "0x810b1e1a0cc27226042031aee11ae24a65fbafd3bfc6cac9e9ed67d905464b1d",
      "blockNumber": 101503,
      "transactionIndex": 5,
      "confirmations": null,
      "from": "0x3ce124C7f1505f7bd76cdC78Bf0079b7e9922949",
      "gasPrice": {
        "_hex": "0xba43b7400"
      },
      "gasLimit": {
        "_hex": "0x15f90"
      },
      "to": "0xc597A5d92F5dC1137D847db733cfe02c6d209f13",
      "value": {
        "_hex": "0xd928dd17e550000"
      },
      "nonce": 0,
      "data": "0x",
      "r": "0xb0906c3dbf586d48aa32a1b482178d9859aab709907065b9a2b43dcb3f384c52",
      "s": "0x307a8e3803cbcf120478ce26801c7ad531158005b3be5d118cec6638a2edde3c",
      "v": 28,
      "creates": null,
      "raw": "0xf86d80850ba43b740083015f9094c597a5d92f5dc1137d847db733cfe02c6d209f13880d928dd17e550000801ca0b0906c3dbf586d48aa32a1b482178d9859aab709907065b9a2b43dcb3f384c52a0307a8e3803cbcf120478ce26801c7ad531158005b3be5d118cec6638a2edde3c",
      "networkId": 0,
      "chainId": 0
    },
    {
      "hash": "0xe0c8e1c44f032bb81385456f3ad885d4ae8ce9f60b302a10ae2c3ff99f4dd39e",
      "blockHash": "0x810b1e1a0cc27226042031aee11ae24a65fbafd3bfc6cac9e9ed67d905464b1d",
      "blockNumber": 101503,
      "transactionIndex": 6,
      "confirmations": null,
      "from": "0x04f621c6f3c9A83209915FcbD517CC8502426F32",
      "gasPrice": {
        "_hex": "0xba43b7400"
      },
      "gasLimit": {
        "_hex": "0x15f90"
      },
      "to": "0xc597A5d92F5dC1137D847db733cfe02c6d209f13",
      "value": {
        "_hex": "0x65cd46b4b4ee9c00"
      },
      "nonce": 0,
      "data": "0x",
      "r": "0x67d682ca0e046c254693c52eba8ac35b39ae6fce0cc0dd0066eb20b442f1b414",
      "s": "0x3165ee98b7cf0144eeea5a135549d3909894eb5dd0b66ee39f7f923004acaedf",
      "v": 28,
      "creates": null,
      "raw": "0xf86d80850ba43b740083015f9094c597a5d92f5dc1137d847db733cfe02c6d209f138865cd46b4b4ee9c00801ca067d682ca0e046c254693c52eba8ac35b39ae6fce0cc0dd0066eb20b442f1b414a03165ee98b7cf0144eeea5a135549d3909894eb5dd0b66ee39f7f923004acaedf",
      "networkId": 0,
      "chainId": 0
    },
    {
      "hash": "0xc4bedfaaeb13270be5ba25f4ea3ceee32246ec48b3115da49f31712f00f4f402",
      "blockHash": "0x810b1e1a0cc27226042031aee11ae24a65fbafd3bfc6cac9e9ed67d905464b1d",
      "blockNumber": 101503,
      "transactionIndex": 7,
      "confirmations": null,
      "from": "0x993C1e942e3272A16Abcb65471e5C3eb6430a44d",
      "gasPrice": {
        "_hex": "0xba43b7400"
      },
      "gasLimit": {
        "_hex": "0x15f90"
      },
      "to": "0xc597A5d92F5dC1137D847db733cfe02c6d209f13",
      "value": {
        "_hex": "0x28a81e6a8f5b4d460"
      },
      "nonce": 0,
      "data": "0x",
      "r": "0x01448dcbef2f3f55cc7f4cae290401bdb3414e63877f44cbec9d052080fa8a2c",
      "s": "0x7ad298e1f862e3e4ab7018df39af5c8efd1e2da653c605aadbd29eba641412d1",
      "v": 28,
      "creates": null,
      "raw": "0xf86e80850ba43b740083015f9094c597a5d92f5dc1137d847db733cfe02c6d209f1389028a81e6a8f5b4d460801ca001448dcbef2f3f55cc7f4cae290401bdb3414e63877f44cbec9d052080fa8a2ca07ad298e1f862e3e4ab7018df39af5c8efd1e2da653c605aadbd29eba641412d1",
      "networkId": 0,
      "chainId": 0
    },
    {
      "hash": "0x5658a079bd8aa1ffed57cab546a9923794134706c955beccd0bf7af65ed964cf",
      "blockHash": "0x810b1e1a0cc27226042031aee11ae24a65fbafd3bfc6cac9e9ed67d905464b1d",
      "blockNumber": 101503,
      "transactionIndex": 8,
      "confirmations": null,
      "from": "0x1dB6f74C0aDD5cC100b1eD2f5Ba7083d06D6587A",
      "gasPrice": {
        "_hex": "0xba43b7400"
      },
      "gasLimit": {
        "_hex": "0x15f90"
      },
      "to": "0xc597A5d92F5dC1137D847db733cfe02c6d209f13",
      "value": {
        "_hex": "0x2af642031cd746000"
      },
      "nonce": 0,
      "data": "0x",
      "r": "0x1ff623c958adcc49eada3ad2ebe80de657f6c662b29249d63faa5a70c95735c9",
      "s": "0x5c640bb327d377aa418bb6a07410775351526f63428577e7e630f5a73e554e63",
      "v": 27,
      "creates": null,
      "raw": "0xf86e80850ba43b740083015f9094c597a5d92f5dc1137d847db733cfe02c6d209f138902af642031cd746000801ba01ff623c958adcc49eada3ad2ebe80de657f6c662b29249d63faa5a70c95735c9a05c640bb327d377aa418bb6a07410775351526f63428577e7e630f5a73e554e63",
      "networkId": 0,
      "chainId": 0
    },
    {
      "hash": "0x9a31b0c536a523d3f6014445535cea8ef9515f98e39c86c570d32c36310d6ad5",
      "blockHash": "0x810b1e1a0cc27226042031aee11ae24a65fbafd3bfc6cac9e9ed67d905464b1d",
      "blockNumber": 101503,
      "transactionIndex": 9,
      "confirmations": null,
      "from": "0x4B0eF2aF1893Ad716fC646bb170C86F879318b0e",
      "gasPrice": {
        "_hex": "0xba43b7400"
      },
      "gasLimit": {
        "_hex": "0x15f90"
      },
      "to": "0xc597A5d92F5dC1137D847db733cfe02c6d209f13",
      "value": {
        "_hex": "0x113536d7b56b0d000"
      },
      "nonce": 0,
      "data": "0x",
      "r": "0x4bbb8b6cbe270c3aaa5cdb84b682266b48376f9372dcbdbe1f59c32d119c6517",
      "s": "0x18775cabfce82e019c0c25c33d83277f0eadfb84137fbaaddd04d4771d9771e9",
      "v": 28,
      "creates": null,
      "raw": "0xf86e80850ba43b740083015f9094c597a5d92f5dc1137d847db733cfe02c6d209f13890113536d7b56b0d000801ca04bbb8b6cbe270c3aaa5cdb84b682266b48376f9372dcbdbe1f59c32d119c6517a018775cabfce82e019c0c25c33d83277f0eadfb84137fbaaddd04d4771d9771e9",
      "networkId": 0,
      "chainId": 0
    },
    {
      "hash": "0x3a451b91d100c098ed8fc08e9a502cd7fe3faab443e1ed84214643244b7ec297",
      "blockHash": "0x810b1e1a0cc27226042031aee11ae24a65fbafd3bfc6cac9e9ed67d905464b1d",
      "blockNumber": 101503,
      "transactionIndex": 10,
      "confirmations": null,
      "from": "0xc596284e883BA53AcE42273A8Ba8C091b3A9F566",
      "gasPrice": {
        "_hex": "0xba43b7400"
      },
      "gasLimit": {
        "_hex": "0x15f90"
      },
      "to": "0xc597A5d92F5dC1137D847db733cfe02c6d209f13",
      "value": {
        "_hex": "0x451568a01be503e8"
      },
      "nonce": 0,
      "data": "0x",
      "r": "0xbed0fc9b98a89b4d844abdca51a7b82b31799917ec4d191bcaf5a1a21227768d",
      "s": "0x3d62bf7c1e9dc46a7e9aafe46af090a4e967ac1acdc3d74eff93ca15e80dd5fa",
      "v": 28,
      "creates": null,
      "raw": "0xf86d80850ba43b740083015f9094c597a5d92f5dc1137d847db733cfe02c6d209f1388451568a01be503e8801ca0bed0fc9b98a89b4d844abdca51a7b82b31799917ec4d191bcaf5a1a21227768da03d62bf7c1e9dc46a7e9aafe46af090a4e967ac1acdc3d74eff93ca15e80dd5fa",
      "networkId": 0,
      "chainId": 0
    },
    {
      "hash": "0x752f2a5fead6babf1f06e0fcb6edcfac05fe5a7a7ca87c27a0578ca3896a44bf",
      "blockHash": "0x810b1e1a0cc27226042031aee11ae24a65fbafd3bfc6cac9e9ed67d905464b1d",
      "blockNumber": 101503,
      "transactionIndex": 11,
      "confirmations": null,
      "from": "0x7C48Af3491Db4Da33cDD59d6e1F8bF37D6F12fb8",
      "gasPrice": {
        "_hex": "0xba43b7400"
      },
      "gasLimit": {
        "_hex": "0x15f90"
      },
      "to": "0xc597A5d92F5dC1137D847db733cfe02c6d209f13",
      "value": {
        "_hex": "0x25165835a11532800"
      },
      "nonce": 0,
      "data": "0x",
      "r": "0x819bd665468153b38a1037b074806c7e97b691e3aef637f1eae22d99908d8420",
      "s": "0x06594cfbe71c160bc7ee0637c615ae8a91dfbfb82fcc74e1a5c9d92f0623e917",
      "v": 27,
      "creates": null,
      "raw": "0xf86e80850ba43b740083015f9094c597a5d92f5dc1137d847db733cfe02c6d209f1389025165835a11532800801ba0819bd665468153b38a1037b074806c7e97b691e3aef637f1eae22d99908d8420a006594cfbe71c160bc7ee0637c615ae8a91dfbfb82fcc74e1a5c9d92f0623e917",
      "networkId": 0,
      "chainId": 0
    },
    {
      "hash": "0xf86fb954d27661fcddc727d8bd43ced0f7967f5f1d498f3015b7e30d6063cb08",
      "blockHash": "0x810b1e1a0cc27226042031aee11ae24a65fbafd3bfc6cac9e9ed67d905464b1d",
      "blockNumber": 101503,
      "transactionIndex": 12,
      "confirmations": null,
      "from": "0x8ff16906f302B048E32dCF4d87eF3a0F42C9f3Bf",
      "gasPrice": {
        "_hex": "0xba43b7400"
      },
      "gasLimit": {
        "_hex": "0x15f90"
      },
      "to": "0xc597A5d92F5dC1137D847db733cfe02c6d209f13",
      "value": {
        "_hex": "0x35001c740bcdc7800"
      },
      "nonce": 0,
      "data": "0x",
      "r": "0xc53dd0051dc8d2d1f521be133cbb225621ee1590e82144f2bd4075a0274485ad",
      "s": "0x2b416520d2ff466d55794264651353ed8cdef2fa74314b1fb672030220c00d17",
      "v": 28,
      "creates": null,
      "raw": "0xf86e80850ba43b740083015f9094c597a5d92f5dc1137d847db733cfe02c6d209f1389035001c740bcdc7800801ca0c53dd0051dc8d2d1f521be133cbb225621ee1590e82144f2bd4075a0274485ada02b416520d2ff466d55794264651353ed8cdef2fa74314b1fb672030220c00d17",
      "networkId": 0,
      "chainId": 0
    }
  ]
}