{
  "hash": "0x68f85160f79a9e695d2aa2cbc73975f66f7ce3f982aa779188d96ecc225f5140",
  "parentHash": "0xb8c567d7618bc653865d9990b130b0f990fe09b9b3048a8b0126af81c88b1c2c",
  "number": 90996,
  "timestamp": 1439648798,
  "nonce": "0xe0465ab5e4bcebdc",
  "difficulty": 3423967200327,
  "gasLimit": {
    "_hex": "0x2fefd8"
  },
  "gasUsed": {
    "_hex": "0x5208"
  },
  "miner": "0x957523c697993cB24FCf75EfBce4f228325e7383",
  "extraData": "0x476574682f76312e302e312f6c696e75782f676f312e342e32",
  "transactions": [
    {
      "hash": "0xe40d8223150ddfdc5039522ec33e18c240dc31b4a1474246ca17758b37917731",
      "blockHash": "0x68f85160f79a9e695d2aa2cbc73975f66f7ce3f982aa779188d96ecc225f5140",
      "blockNumber": 90996,
      "transactionIndex": 0,
      "confirmations": null,
      "from": "0xB7576e9d314Df41EC5506494293Afb1bd5D3f65d",
      "gasPrice": {
        "_hex": "0xba43b7400"
      },
      "gasLimit": {
        "_hex": "0x5208"
      },
      "to": "0x2a869cE3f74335f5BdEFfB9f3A30D3887721060F",
      "value": {
        "_hex": "0xde0b6b3a7640000"
      },
      "nonce": 5,
      "data": "0x",
      "r": "0x6cd506bfdcb4fef30507c66d0732ed5765d3714b360fb3eec42fe4565eaa786e",
      "s": "0x15023294880dec2c0ceccede7c917c63dea3af9faeca033a2d0dde8991b74844",
      "v": 27,
      "creates": null,
      "raw": "0xf86c05850ba43b7400825208942a869ce3f74335f5bdeffb9f3a30d3887721060f880de0b6b3a7640000801ba06cd506bfdcb4fef30507c66d0732ed5765d3714b360fb3eec42fe4565eaa786ea015023294880dec2c0ceccede7c917c63dea3af9faeca033a2d0dde8991b74844",
      "networkId": 0,
      "chainId": 0
    }
  ]
}