{
  "hash": "0xddf3b1c8cee3947560518fc46a1ff568a03277fd2a5666e4a11ab115f93db9d6",
  "parentHash": "0xbfea61855cfaef65d5d66d26fa7be36b0c7c2c39fb781d278adcb9457fac8c2b",
  "number": 81326,
  "timestamp": 1439499976,
  "nonce": "0x0c762caec6b19a3a",
  "difficulty": 2437888494103,
  "gasLimit": {
    "_hex": "0x2fefd5"
  },
  "gasUsed": {
    "_hex": "0xa410"
  },
  "miner": "0xf8E0CA3Ed80bd541b94BEdCf259e8CF2141A9523",
  "extraData": "0x476574682f76312e302e312f77696e646f77732f676f312e342e32",
  "transactions": [
    {
      "hash": "0xc6bcc27358e838f24161221e707a15834a7c9965a360860604fa732080afc3e3",
      "blockHash": "0xddf3b1c8cee3947560518fc46a1ff568a03277fd2a5666e4a11ab115f93db9d6",
      "blockNumber": 81326,
      "transactionIndex": 0,
      "confirmations": null,
      "from": "0x95a204DD5D814E40f300bA0DfB1194286F03e28A",
      "gasPrice": {
        "_hex": "0x746a528800"
      },
      "gasLimit": {
        "_hex": "0x5b04"
      },
      "to": "0xe7B79D2Fd13B6F1aEfF4274e8a17364219e00D01",
      "value": {
        "_hex": "0x22b1c8c1227a00000"
      },
      "nonce": 5,
      "data": "0x",
      "r": "0x55524fa4975a091c291a76f2e4848a8f964741c8ce3643bc6ccea84e07030fae",
      "s": "0x151daeb5814cecb5d25bad6c4b02efd2fe3e1094d1bfc56502d192f2ce2a7bb6",
      "v": 28,
      "creates": null,
      "raw": "0xf86d0585746a528800825b0494e7b79d2fd13b6f1aeff4274e8a17364219e00d0189022b1c8c1227a00000801ca055524fa4975a091c291a76f2e4848a8f964741c8ce3643bc6ccea84e07030faea0151daeb5814cecb5d25bad6c4b02efd2fe3e1094d1bfc56502d192f2ce2a7bb6",
      "networkId": 0,
      "chainId": 0
    },
    {
      "hash": "0x996d75da4afc5bd11829d784f0f5e318b817528cab104e2a85283565d68d867b",
      "blockHash": "0xddf3b1c8cee3947560518fc46a1ff568a03277fd2a5666e4a11ab115f93db9d6",
      "blockNumber": 81326,
      "transactionIndex": 1,
      "confirmations": null,
      "from": "0x6f137a71A6f197dF2cBBF010dcbD3C444Ef5c925",
      "gasPrice": {
        "_hex": "0xd6a95e35e"
      },
      "gasLimit": {
        "_hex": "0x15f90"
      },
      "to": "0xd3CdA913deB6f67967B99D67aCDFa1712C293601",
      "value": {
        "_hex": "0x2a802f8630a240000"
      },
      "nonce": 2,
      "data": "0x",
      "r": "0xfc2ade000598d53dd95c944b6708c50980119afa7562fee4216ff87b8799c518",
      "s": "0x789c3af77555591018e35ee33b59889cea758988a1366f8d32029172a0ea4c71",
      "v": 27,
      "creates": null,
      "raw": "0xf86e02850d6a95e35e83015f9094d3cda913deb6f67967b99d67acdfa1712c2936018902a802f8630a240000801ba0fc2ade000598d53dd95c944b6708c50980119afa7562fee4216ff87b8799c518a0789c3af77555591018e35ee33b59889cea758988a1366f8d32029172a0ea4c71",
      "networkId": 0,
      "chainId": 0
    }
  ]
}