{
  "hash": "0x6e71f6442cfa30cb62ee6d50c156379e988d4e0ef39561661fa235bfc26dda1d",
  "parentHash": "0xc5805d11ae9e491d01d3ba668d4e5394f8086058abec0de7df9bcf1c341ea8c8",
  "number": 70937,
  "timestamp": 1439327728,
  "nonce": "0x94862d8cda85a258",
  "difficulty": 2159360591540,
  "gasLimit": {
    "_hex": "0x2fefd8"
  },
  "gasUsed": {
    "_hex": "0xe5ba"
  },
  "miner": "0x3FF679B0823a026F2378E5f5F22A6F127cC85828",
  "extraData": "0x",
  "transactions": [
    {
      "hash": "0xa38c1a1a9a8cacaff0c1d74c15510fc490b38a9e42b05a0fd537ea560fd9620f",
      "blockHash": "0x6e71f6442cfa30cb62ee6d50c156379e988d4e0ef39561661fa235bfc26dda1d",
      "blockNumber": 70937,
      "transactionIndex": 0,
      "confirmations": null,
      "from": "0x17580B766f7453525ca4C6A88b01b50570EA088C",
      "gasPrice": {
        "_hex": "0xdec6f5b44"
      },
      "gasLimit": {
        "_hex": "0x61a80"
      },
      "to": "0x5Fe5B7546D1628f7348B023A0393de1FC825A4fD",
      "value": {
        "_hex": "0x29a2241af62c0000"
      },
      "nonce": 56,
      "data": "0xb595b8b50000000000000000000000000000000000000000000000000000000000000000",
      "r": "0x7476f05c07adbb66fec942003f59460d35d0e9ac60ae94a30d7613248e7b0e26",
      "s": "0x490253d6efad32c7bef07383fc5c45721db79bc96342d6127c89c27a4965f578",
      "v": 27,
      "creates": null,
      "raw": "0xf89138850dec6f5b4483061a80945fe5b7546d1628f7348b023a0393de1fc825a4fd8829a2241af62c0000a4b595b8b500000000000000000000000000000000000000000000000000000000000000001ba07476f05c07adbb66fec942003f59460d35d0e9ac60ae94a30d7613248e7b0e26a0490253d6efad32c7bef07383fc5c45721db79bc96342d6127c89c27a4965f578",
      "networkId": 0,
      "chainId": 0
    },
    {
      "hash": "0x9a89537cc6cbaa44ad193a174e15fd8bf5eaf46be7ff8f9098ce2e3829752749",
      "blockHash": "0x6e71f6442cfa30cb62ee6d50c156379e988d4e0ef39561661fa235bfc26dda1d",
      "blockNumber": 70937,
      "transactionIndex": 1,
      "confirmations": null,
      "from": "0xB5EDD17d2582A94610ebf0C6832c1652EBBBe210",
      "gasPrice": {
        "_hex": "0xce1f4e04e"
      },
      "gasLimit": {
        "_hex": "0x5208"
      },
      "to": "0x98077F47f89BEd877C8877Bf95753f6cE0CE4fcF",
      "value": {
        "_hex": "0xb29052a4105ab0000"
      },
      "nonce": 2,
      "data": "0x",
      "r": "0xee8e5051ee2e3564988155560ff550ec11ca7739c19d70f830f9bbf6934332a2",
      "s": "0x2c95fbed18b47af5352de3a5d8d6aee46d7ab04ebc03482e202f3d74739882dc",
      "v": 27,
      "creates": null,
      "raw": "0xf86d02850ce1f4e04e8252089498077f47f89bed877c8877bf95753f6ce0ce4fcf890b29052a4105ab0000801ba0ee8e5051ee2e3564988155560ff550ec11ca7739c19d70f830f9bbf6934332a2a02c95fbed18b47af5352de3a5d8d6aee46d7ab04ebc03482e202f3d74739882dc",
      "networkId": 0,
      "chainId": 0
    }
  ]
}