{
  "hash": "0xebb39f731e8504ed2f7587ad17f06930e6b5fe443bbc4323ddb3dea6a14d1afe",
  "parentHash": "0x0340fbd22991e3a2cb482abd4a2e140f00d1a373c7a796682f0b4989d7c89658",
  "number": 63469,
  "timestamp": 1439204929,
  "nonce": "0x635e4714c7f6d5fc",
  "difficulty": 1839639420468,
  "gasLimit": {
    "_hex": "0x2fefd8"
  },
  "gasUsed": {
    "_hex": "0xf618"
  },
  "miner": "0x8c6e4B005B8b30B027f9fFB8FA9BE1dFF6E72ABB",
  "extraData": "0x476574682f76312e302e312f6c696e75782f676f312e342e32",
  "transactions": [
    {
      "hash": "0xc398920222c510a12bdadc9d21aea6f8c1ce16b8bcdeb8e6e0145bde4fb08ede",
      "blockHash": "0xebb39f731e8504ed2f7587ad17f06930e6b5fe443bbc4323ddb3dea6a14d1afe",
      "blockNumber": 63469,
      "transactionIndex": 0,
      "confirmations": null,
      "from": "0xA10C59651885FeAaac91F871082a23BBbaBeDfCf",
      "gasPrice": {
        "_hex": "0xff64e858c3"
      },
      "gasLimit": {
        "_hex": "0x5208"
      },
      "to": "0x4c74B6F32c9680aCB5Fe0e72B7Aa95C612540A04",
      "value": {
        "_hex": "0x56bc75e2d63100000"
      },
      "nonce": 8,
      "data": "0x",
      "r": "0x23bdad09a2e2112f648c177fba8df1e735ed2f70f606a9f2863d75010ad793ec",
      "s": "0x356425c3fa44ee57e5f4e099d55d449c48cddf685095175ecacbf0f6ef71b027",
      "v": 28,
      "creates": null,
      "raw": "0xf86d0885ff64e858c3825208944c74b6f32c9680acb5fe0e72b7aa95c612540a0489056bc75e2d63100000801ca023bdad09a2e2112f648c177fba8df1e735ed2f70f606a9f2863d75010ad793eca0356425c3fa44ee57e5f4e099d55d449c48cddf685095175ecacbf0f6ef71b027",
      "networkId": 0,
      "chainId": 0
    },
    {
      "hash": "0xa557fa50eadbce2a1ffdde5fbb297409c46f2c47f44dcf1bbcf8eed1c5c520a8",
      "blockHash": "0xebb39f731e8504ed2f7587ad17f06930e6b5fe443bbc4323ddb3dea6a14d1afe",
      "blockNumber": 63469,
      "transactionIndex": 1,
      "confirmations": null,
      "from": "0xc2CB9198f652c0d1e5bc0daf1c030D7AFdC1eB6B",
      "gasPrice": {
        "_hex": "0xdd9fdd723"
      },
      "gasLimit": {
        "_hex": "0x5208"
      },
      "to": "0x32Be343B94f860124dC4fEe278FDCBD38C102D88",
      "value": {
        "_hex": "0x24a54c3eaa7d540000"
      },
      "nonce": 1,
      "data": "0x",
      "r": "0xb60c82326da3c971ec747de7360e6f4605ee73f37b5c1f1d3c692445efcc9f26",
      "s": "0x4c9b99174d34af0e874e2348c303644f3e23bede4a2d307470168763c3749869",
      "v": 27,
      "creates": null,
      "raw": "0xf86d01850dd9fdd7238252089432be343b94f860124dc4fee278fdcbd38c102d888924a54c3eaa7d540000801ba0b60c82326da3c971ec747de7360e6f4605ee73f37b5c1f1d3c692445efcc9f26a04c9b99174d34af0e874e2348c303644f3e23bede4a2d307470168763c3749869",
      "networkId": 0,
      "chainId": 0
    },
    {
      "hash": "0x9efab3d37e1726683da06d6f575f64fde9bc0ecf3c15f3d099062836be1fbc8b",
      "blockHash": "0xebb39f731e8504ed2f7587ad17f06930e6b5fe443bbc4323ddb3dea6a14d1afe",
      "blockNumber": 63469,
      "transactionIndex": 2,
      "confirmations": null,
      "from": "0xA10CDF70bc138605c39F8651A78485Fe4F1C3811",
      "gasPrice": {
        "_hex": "0xdd9fdd723"
      },
      "gasLimit": {
        "_hex": "0x5208"
      },
      "to": "0x32Be343B94f860124dC4fEe278FDCBD38C102D88",
      "value": {
        "_hex": "0xddc467158888c00"
      },
      "nonce": 0,
      "data": "0x",
      "r": "0xb7c9c63d233c6708f5c73a7eb483e79bfa615cb2b2a7ef4ebd3d6ce3788612b1",
      "s": "0x03d9719e9421a557c4b07f992d6810e6e85329cec12a264116650bc32aa5cc4a",
      "v": 28,
      "creates": null,
      "raw": "0xf86c80850dd9fdd7238252089432be343b94f860124dc4fee278fdcbd38c102d88880ddc467158888c00801ca0b7c9c63d233c6708f5c73a7eb483e79bfa615cb2b2a7ef4ebd3d6ce3788612b1a003d9719e9421a557c4b07f992d6810e6e85329cec12a264116650bc32aa5cc4a",
      "networkId": 0,
      "chainId": 0
    }
  ]
}