{
  "hash": "0x9bda46a9460f44687028298d847ff539086183b989e4ab56492be27d8453378d",
  "parentHash": "0x1a7a7a4c20dd33d6f3c6b919fda0e81da3f8126f7b8458d5715b67fb6f081c3a",
  "number": 69756,
  "timestamp": 1439309163,
  "nonce": "0x54d59e81514b76bc",
  "difficulty": 2098335361928,
  "gasLimit": {
    "_hex": "0x2fefd5"
  },
  "gasUsed": {
    "_hex": "0x5208"
  },
  "miner": "0xf927a40C8B7F6E07c5af7FA2155B4864a4112B13",
  "extraData": "0x",
  "transactions": [
    {
      "hash": "0x2fc1504a2aec27cfae49377954066bba3dc45bb3de50ca38afb6f310f8402a2e",
      "blockHash": "0x9bda46a9460f44687028298d847ff539086183b989e4ab56492be27d8453378d",
      "blockNumber": 69756,
      "transactionIndex": 0,
      "confirmations": null,
      "from": "0x32Be343B94f860124dC4fEe278FDCBD38C102D88",
      "gasPrice": {
        "_hex": "0xd597b50f8"
      },
      "gasLimit": {
        "_hex": "0x5208"
      },
      "to": "0x8E1372aB42e7495276e7b0b5e785e8ed59111C0a",
      "value": {
        "_hex": "0x3635a626d36ee00000"
      },
      "nonce": 238,
      "data": "0x",
      "r": "0xdf8f786f1317e5790b51b6a6b2f40d86082365768cd36f1251a8b50e930d46b6",
      "s": "0x2df12597dc98735f7ffcb3a31cd9db30ed361d188b0260dfa43025a90bceee2b",
      "v": 28,
      "creates": null,
      "raw": "0xf86e81ee850d597b50f8825208948e1372ab42e7495276e7b0b5e785e8ed59111c0a893635a626d36ee00000801ca0df8f786f1317e5790b51b6a6b2f40d86082365768cd36f1251a8b50e930d46b6a02df12597dc98735f7ffcb3a31cd9db30ed361d188b0260dfa43025a90bceee2b",
      "networkId": 0,
      "chainId": 0
    }
  ]
}