{
  "hash": "0x588f376aa046a35272702e765c9922023043ba43945ce9968dd47488599a263d",
  "parentHash": "0xab38b5e1e4a3c1a40b8a5e4bd34e818097043bce08245f8e58cd7f05f1f57a7e",
  "number": 110801,
  "timestamp": 1439979719,
  "nonce": "0xf99ddaea72fba9c9",
  "difficulty": 4392523109960,
  "gasLimit": {
    "_hex": "0x2fefd8"
  },
  "gasUsed": {
    "_hex": "0x5208"
  },
  "miner": "0x9D49F602b0fdb924Bd63DDE2Bd0907E4A07c63a7",
  "extraData": "0x476574682f76312e302e312f6c696e75782f676f312e342e32",
  "transactions": [
    {
      "hash": "0x7d9b1e1f2e0df7ba56a5ecac670fc662e5418386b02c39177eeb3b5bccf18e57",
      "blockHash": "0x588f376aa046a35272702e765c9922023043ba43945ce9968dd47488599a263d",
      "blockNumber": 110801,
      "transactionIndex": 0,
      "confirmations": null,
      "from": "0x95A466C2ba3A392003E9ef63F4442236C6E1B40E",
      "gasPrice": {
        "_hex": "0xd875c90bb"
      },
      "gasLimit": {
        "_hex": "0x5208"
      },
      "to": "0x32Be343B94f860124dC4fEe278FDCBD38C102D88",
      "value": {
        "_hex": "0x63e73411b32a2800"
      },
      "nonce": 5,
      "data": "0x",
      "r": "0x87d36a5663a18e3064d1905541a5a8ef081c210c552a7430a9155247b1588cb8",
      "s": "0x7b6df963613c29792593ba8e51ce28cf8c4ae21489059fcf91c6289061c619e2",
      "v": 28,
      "creates": null,
      "raw": "0xf86c05850d875c90bb8252089432be343b94f860124dc4fee278fdcbd38c102d888863e73411b32a2800801ca087d36a5663a18e3064d1905541a5a8ef081c210c552a7430a9155247b1588cb8a07b6df963613c29792593ba8e51ce28cf8c4ae21489059fcf91c6289061c619e2",
      "networkId": 0,
      "chainId": 0
    }
  ]
}