{
  "hash": "0x5e68704e3568ace9afa11bab27dc5cd9fe271da74ae1d903ca145d9501025ea1",
  "parentHash": "0x30e408a32391ccecb1185af31914323eed2a89f4f5e7ee9934270ed2ed075d1b",
  "number": 105824,
  "timestamp": 1439894054,
  "nonce": "0xae5e0732c6921e48",
  "difficulty": 4436094851542,
  "gasLimit": {
    "_hex": "0x2fefd8"
  },
  "gasUsed": {
    "_hex": "0x5208"
  },
  "miner": "0xe6A7a1d47ff21B6321162AEA7C6CB457D5476Bca",
  "extraData": "0x476574682f76312e302e312d38326566323666362f6c696e75782f676f312e34",
  "transactions": [
    {
      "hash": "0x50ce869e0955656db5c5c755a8f464aae3bfc2e50e652e29df907f2a81abf1ae",
      "blockHash": "0x5e68704e3568ace9afa11bab27dc5cd9fe271da74ae1d903ca145d9501025ea1",
      "blockNumber": 105824,
      "transactionIndex": 0,
      "confirmations": null,
      "from": "0x60f7C29656Fc491e766750556fE4F0E407f81eB5",
      "gasPrice": {
        "_hex": "0xd1f217cbf"
      },
      "gasLimit": {
        "_hex": "0x15f90"
      },
      "to": "0x03085885277Ccf51036F9D8703E9C42b97409963",
      "value": {
        "_hex": "0x3e8"
      },
      "nonce": 0,
      "data": "0x",
      "r": "0xb56d271a45bba59e8c6a4a07a85ca97a75396e811ebb66b0c639fd8a65abd4b6",
      "s": "0x14213f6ea2b15438d513390704557bfc7131f4f8b7f7c62f009b459a830b9e04",
      "v": 28,
      "creates": null,
      "raw": "0xf86780850d1f217cbf83015f909403085885277ccf51036f9d8703e9c42b974099638203e8801ca0b56d271a45bba59e8c6a4a07a85ca97a75396e811ebb66b0c639fd8a65abd4b6a014213f6ea2b15438d513390704557bfc7131f4f8b7f7c62f009b459a830b9e04",
      "networkId": 0,
      "chainId": 0
    }
  ]
}