{
  "hash": "0x52d1b63fbab0323adc5da9ff5bc6f7e6e5e04ca2893ad808bd5e89d36c72d668",
  "parentHash": "0xdea1249606dc1c532828d60d504a5c82614f6e55455df794e8f0ade2d1be2608",
  "number": 49276,
  "timestamp": 1438970972,
  "nonce": "0xe8897b9710e687fb",
  "difficulty": 1478527502534,
  "gasLimit": {
    "_hex": "0x2b58a"
  },
  "gasUsed": {
    "_hex": "0x546c"
  },
  "miner": "0x55bAf64fc9eAccFFd7Cc643BB61142E1C6ac093e",
  "extraData": "0x",
  "transactions": [
    {
      "hash": "0xb385960061a61664367ab38564d0a44da40491ca159f88378bbd20a7e19cae37",
      "blockHash": "0x52d1b63fbab0323adc5da9ff5bc6f7e6e5e04ca2893ad808bd5e89d36c72d668",
      "blockNumber": 49276,
      "transactionIndex": 0,
      "confirmations": null,
      "from": "0xb6E6C3222B6b6f9bE2875D2a89f127fb64100Fe2",
      "gasPrice": {
        "_hex": "0xcf0d68a28"
      },
      "gasLimit": {
        "_hex": "0x15f90"
      },
      "to": "0x2910543Af39abA0Cd09dBb2D50200b3E800A63D2",
      "value": {
        "_hex": "0x10f0cccddeae95f0000"
      },
      "nonce": 3,
      "data": "0x454e324a3854314430",
      "r": "0xbb6ae0c6f0e9e7aa4f219dd2a6c542d90080471b3dee62acfafe70ac32e712d3",
      "s": "0x3bf47f2306cf59682ee6903fe8e61a4fb7ca05b61eb6a54e5e4529eb1273ed71",
      "v": 27,
      "creates": null,
      "raw": "0xf87803850cf0d68a2883015f90942910543af39aba0cd09dbb2d50200b3e800a63d28a010f0cccddeae95f000089454e324a38543144301ba0bb6ae0c6f0e9e7aa4f219dd2a6c542d90080471b3dee62acfafe70ac32e712d3a03bf47f2306cf59682ee6903fe8e61a4fb7ca05b61eb6a54e5e4529eb1273ed71",
      "networkId": 0,
      "chainId": 0
    }
  ]
}