{
  "hash": "0xaa19bdac0ebb1586225439261621208ab22d2ce84b01691fa45b8cb83015210c",
  "parentHash": "0x432ed2ab976e0626e15d6574f2b0a3d2b8c2d4e51ca9c9d2e5220b653354f911",
  "number": 116324,
  "timestamp": 1440072179,
  "nonce": "0x96bb1454ffd1dc1a",
  "difficulty": 4589077422462,
  "gasLimit": {
    "_hex": "0x2fefd8"
  },
  "gasUsed": {
    "_hex": "0x5208"
  },
  "miner": "0x52bc44d5378309EE2abF1539BF71dE1b7d7bE3b5",
  "extraData": "0x476574682f76312e302e312d65626434373230372f6c696e75782f676f312e34",
  "transactions": [
    {
      "hash": "0x6f377179569536095297d4688753c8168096ba9133bc2816e3829fc6f7fea85a",
      "blockHash": "0xaa19bdac0ebb1586225439261621208ab22d2ce84b01691fa45b8cb83015210c",
      "blockNumber": 116324,
      "transactionIndex": 0,
      "confirmations": null,
      "from": "0xD9176cf582B2f51fAD57941e0a84dfBa0Ed3620D",
      "gasPrice": {
        "_hex": "0xd36dadf6b"
      },
      "gasLimit": {
        "_hex": "0x5208"
      },
      "to": "0x32Be343B94f860124dC4fEe278FDCBD38C102D88",
      "value": {
        "_hex": "0x81c19bb676a900000"
      },
      "nonce": 2,
      "data": "0x",
      "r": "0x115c64af255dd76f5afc2e4ee594cf27a5551407ceecd7291af61bfe25f148ca",
      "s": "0x4edd2385894137581690fcc0de6e8ef7d23090525ed230456ef82b693d154c92",
      "v": 28,
      "creates": null,
      "raw": "0xf86d02850d36dadf6b8252089432be343b94f860124dc4fee278fdcbd38c102d8889081c19bb676a900000801ca0115c64af255dd76f5afc2e4ee594cf27a5551407ceecd7291af61bfe25f148caa04edd2385894137581690fcc0de6e8ef7d23090525ed230456ef82b693d154c92",
      "networkId": 0,
      "chainId": 0
    }
  ]
}