{
  "hash": "0x809e2e71008bf7bac27d1ace7ec0957b2a256efbce6e5cb0f7874ccce66baa81",
  "parentHash": "0x9f981cacf910469edab8ce4185e44240acc6e6d22a15c0dd3f14ebb77dae6d4d",
  "number": 103737,
  "timestamp": 1439858200,
  "nonce": "0x80b2e2ff10f36707",
  "difficulty": 4207213620987,
  "gasLimit": {
    "_hex": "0x2fefd8"
  },
  "gasUsed": {
    "_hex": "0x5208"
  },
  "miner": "0xe6A7a1d47ff21B6321162AEA7C6CB457D5476Bca",
  "extraData": "0x476574682f76312e302e312d38326566323666362f6c696e75782f676f312e34",
  "transactions": [
    {
      "hash": "0x23cf4ace8b2ff6a78ef2a39a38948901bc9e43b41b11b2cc08d2f2c85ba4f915",
      "blockHash": "0x809e2e71008bf7bac27d1ace7ec0957b2a256efbce6e5cb0f7874ccce66baa81",
      "blockNumber": 103737,
      "transactionIndex": 0,
      "confirmations": null,
      "from": "0xa6BDc31c431B8F97848c9D60cbbe9660dc450eB7",
      "gasPrice": {
        "_hex": "0xd7a01c988"
      },
      "gasLimit": {
        "_hex": "0x5208"
      },
      "to": "0x32Be343B94f860124dC4fEe278FDCBD38C102D88",
      "value": {
        "_hex": "0x45637362eb1e4000"
      },
      "nonce": 161,
      "data": "0x",
      "r": "0xed92526864f7edb5ceae0346a176b5b029786bf674fd1e5a42b33e18082078c9",
      "s": "0x271521ddf7eee228ec9ed54215bf608eb3fff58924ee95af50b4a7c846844194",
      "v": 28,
      "creates": null,
      "raw": "0xf86d81a1850d7a01c9888252089432be343b94f860124dc4fee278fdcbd38c102d888845637362eb1e4000801ca0ed92526864f7edb5ceae0346a176b5b029786bf674fd1e5a42b33e18082078c9a0271521ddf7eee228ec9ed54215bf608eb3fff58924ee95af50b4a7c846844194",
      "networkId": 0,
      "chainId": 0
    }
  ]
}