{
  "hash": "0x121a1a67e7d3803ed6d7c2eb7ff52616f2be9fdb1cb3241c191e31c7c70905c9",
  "parentHash": "0x7c5d87149ccce82eaed367c4d24d1a9a37644600abd3aafcb653e7a31d8ba901",
  "number": 95769,
  "timestamp": 1439729334,
  "nonce": "0x9f0652eee058ab4f",
  "difficulty": 3626747953757,
  "gasLimit": {
    "_hex": "0x2fefd8"
  },
  "gasUsed": {
    "_hex": "0xa410"
  },
  "miner": "0xe6A7a1d47ff21B6321162AEA7C6CB457D5476Bca",
  "extraData": "0x476574682f76312e302e312d38326566323666362f6c696e75782f676f312e34",
  "transactions": [
    {
      "hash": "0xc6d5eaeb2e1ddd324d05fe57551faa05fca45b6e6d0128db0192333dadb84b5f",
      "blockHash": "0x121a1a67e7d3803ed6d7c2eb7ff52616f2be9fdb1cb3241c191e31c7c70905c9",
      "blockNumber": 95769,
      "transactionIndex": 0,
      "confirmations": null,
      "from": "0x9d9C4EFe9F433989E23Be94049215329Fa55B4Cb",
      "gasPrice": {
        "_hex": "0xd7d40ace3"
      },
      "gasLimit": {
        "_hex": "0x5208"
      },
      "to": "0xa5D364A2d05C34Dd34e3163E76554626debAe686",
      "value": {
        "_hex": "0xde219f91fc18a0000"
      },
      "nonce": 1,
      "data": "0x",
      "r": "0xc7845f4b2ece1e81058baaed0368a0b5fb8b1bcf49ace5217b1617cc9b3bfda0",
      "s": "0x1ed68bc186210386c668e412971516dc60a0c20ccede208cded1ddfd55d72052",
      "v": 28,
      "creates": null,
      "raw": "0xf86d01850d7d40ace382520894a5d364a2d05c34dd34e3163e76554626debae686890de219f91fc18a0000801ca0c7845f4b2ece1e81058baaed0368a0b5fb8b1bcf49ace5217b1617cc9b3bfda0a01ed68bc186210386c668e412971516dc60a0c20ccede208cded1ddfd55d72052",
      "networkId": 0,
      "chainId": 0
    },
    {
      "hash": "0xb0502014c335c8d66a3674529514a4f635a8f1ecbc9f490e8077946a38f8b430",
      "blockHash": "0x121a1a67e7d3803ed6d7c2eb7ff52616f2be9fdb1cb3241c191e31c7c70905c9",
      "blockNumber": 95769,
      "transactionIndex": 1,
      "confirmations": null,
      "from": "0xCdA0AD7542e30BF520652A05056eBe0105c7e49A",
      "gasPrice": {
        "_hex": "0xd641f460d"
      },
      "gasLimit": {
        "_hex": "0x1e8480"
      },
      "to": "0x02E816AFC1b5C0f39852131959D946eb3b07b5ad",
      "value": {
        "_hex": "0x0"
      },
      "nonce": 5,
      "data": "0x",
      "r": "0xa9f06641d4e4b54c27c2c85a7a537b63477167ecf57cba3977dd49f1fb50dd22",
      "s": "0x06028c490dbfff189a3f63c066f0dcb194987d00f1ddea4b3734bbd775110617",
      "v": 28,
      "creates": null,
      "raw": "0xf86505850d641f460d831e84809402e816afc1b5c0f39852131959d946eb3b07b5ad80801ca0a9f06641d4e4b54c27c2c85a7a537b63477167ecf57cba3977dd49f1fb50dd22a006028c490dbfff189a3f63c066f0dcb194987d00f1ddea4b3734bbd775110617",
      "networkId": 0,
      "chainId": 0
    }
  ]
}