{
  "hash": "0xa8958c6d11289625b494f6ed7ce0b0f7ff3c68c65736b56fd1c4bd71481eb771",
  "parentHash": "0x3e3f896b1a74b71dd8304ff6c68085950c247c051efcbe4b7e042e2ee5721ace",
  "number": 64410,
  "timestamp": 1439220245,
  "nonce": "0x6b332a5ff5043dc8",
  "difficulty": 1872967023390,
  "gasLimit": {
    "_hex": "0x2fefd8"
  },
  "gasUsed": {
    "_hex": "0xbe6c"
  },
  "miner": "0x88D74a59454F6cF3B51ef6b9136AFb6b9D405A88",
  "extraData": "0x476574682f76312e302e312d38326566323666362f6c696e75782f676f312e34",
  "transactions": [
    {
      "hash": "0x7e994f417b96a847276bb4285c327d5eb405c283038faffdf38f523b6d283f79",
      "blockHash": "0xa8958c6d11289625b494f6ed7ce0b0f7ff3c68c65736b56fd1c4bd71481eb771",
      "blockNumber": 64410,
      "transactionIndex": 0,
      "confirmations": null,
      "from": "0x21b7afa908859FF2EDAAE67ED02dC97f2ebF7089",
      "gasPrice": {
        "_hex": "0xba43b7400"
      },
      "gasLimit": {
        "_hex": "0x15f90"
      },
      "to": "0x793AE8C1b1a160BFc07BFB0d04F85eab1A71F4f2",
      "value": {
        "_hex": "0x0"
      },
      "nonce": 0,
      "data": "0x3ba15036",
      "r": "0x59208baf22753a93a258d26dfc34e9be62a79fd16449c85321ad5205ffb3892f",
      "s": "0x5ee4564f264379a97a1b360f10fbd9b32cb44f51a134bc4f0d87705c69e7974f",
      "v": 28,
      "creates": null,
      "raw": "0xf86980850ba43b740083015f9094793ae8c1b1a160bfc07bfb0d04f85eab1a71f4f280843ba150361ca059208baf22753a93a258d26dfc34e9be62a79fd16449c85321ad5205ffb3892fa05ee4564f264379a97a1b360f10fbd9b32cb44f51a134bc4f0d87705c69e7974f",
      "networkId": 0,
      "chainId": 0
    }
  ]
}