{
  "hash": "0xb0cc902126c345522061b2d0daefe8a7b91f8282597015e76b90b6c50ba81c0f",
  "parentHash": "0x2bd9e959306516792b89ccb6d45d2421beca3f5e36e680dbe01518ef8a813934",
  "number": 46254,
  "timestamp": 1438920042,
  "nonce": "0x3955f295a5208a38",
  "difficulty": 1460401793388,
  "gasLimit": {
    "_hex": "0x56c2"
  },
  "gasUsed": {
    "_hex": "0x5208"
  },
  "miner": "0x0037ce3d4B7f8729C8607D8D0248252Be68202c0",
  "extraData": "0x476574682f76312e302e312f77696e646f77732f676f312e342e32",
  "transactions": [
    {
      "hash": "0xe92bfc194a46e254244a83d8f1d07475cc28c871c12f53c3f9257d3af18e91b5",
      "blockHash": "0xb0cc902126c345522061b2d0daefe8a7b91f8282597015e76b90b6c50ba81c0f",
      "blockNumber": 46254,
      "transactionIndex": 0,
      "confirmations": null,
      "from": "0x22F2DcFf5aD78c3Eb6850B5Cb951127B659522E6",
      "gasPrice": {
        "_hex": "0x1bf08eb000"
      },
      "gasLimit": {
        "_hex": "0x5208"
      },
      "to": "0xb5CE1861d98E85c84531Dbc18720278328Fd97f6",
      "value": {
        "_hex": "0xde0b6b3a7640000"
      },
      "nonce": 0,
      "data": "0x",
      "r": "0x67002b8f5ac9fef990bfe7e08b7a314d4630acb02164732287d747f08c5b26ff",
      "s": "0x6c89b1e3842f02f36a04b37d47ce8b65454617d1303f0b69344d5347b836a42a",
      "v": 28,
      "creates": null,
      "raw": "0xf86c80851bf08eb00082520894b5ce1861d98e85c84531dbc18720278328fd97f6880de0b6b3a7640000801ca067002b8f5ac9fef990bfe7e08b7a314d4630acb02164732287d747f08c5b26ffa06c89b1e3842f02f36a04b37d47ce8b65454617d1303f0b69344d5347b836a42a",
      "networkId": 0,
      "chainId": 0
    }
  ]
}