{
  "hash": "0xdf091cb0b56672c7961ffa6eb38c93689da0abbd6e65fac7715ea5859ebc7ed4",
  "parentHash": "0x0f4e8564c62fe97a4f18b179bc1df21466f6619604842e0815916d94fb7d0b7f",
  "number": 74382,
  "timestamp": 1439385184,
  "nonce": "0xfdf08c9b1e2edd9b",
  "difficulty": 2212899895065,
  "gasLimit": {
    "_hex": "0x2fefd8"
  },
  "gasUsed": {
    "_hex": "0xad5d"
  },
  "miner": "0xe6A7a1d47ff21B6321162AEA7C6CB457D5476Bca",
  "extraData": "0x476574682f76312e302e312d38326566323666362f6c696e75782f676f312e34",
  "transactions": [
    {
      "hash": "0x0f9a7bf6dcebd0532014e9016759932968aa6b8e0d6f484b2bbf2af0bb8c75b6",
      "blockHash": "0xdf091cb0b56672c7961ffa6eb38c93689da0abbd6e65fac7715ea5859ebc7ed4",
      "blockNumber": 74382,
      "transactionIndex": 0,
      "confirmations": null,
      "from": "0x87C5B5874A18B4306DF8a752a6C8cc3E82daFc19",
      "gasPrice": {
        "_hex": "0x115aa97fe41"
      },
      "gasLimit": {
        "_hex": "0x493e0"
      },
      "to": "0x88A91FD7Fb8AAEa8cDAD2C990f1DBDcd28022a02",
      "value": {
        "_hex": "0x0"
      },
      "nonce": 17,
      "data": "0x03750d94000000000000000000000000326be8f71bfb0379f989aab1cc1fe37f0a771f606242576e786b506e44305550357a755500000000000000000000000000000000",
      "r": "0x52e120500b94de05245477a7767c486bd08c8287f1b80ef1d1dcfde90c8faff4",
      "s": "0x6cd1e2864f89d9f1f263bc52cb743b9c27062838431e97052ec9308448735f5f",
      "v": 27,
      "creates": null,
      "raw": "0xf8ab11860115aa97fe41830493e09488a91fd7fb8aaea8cdad2c990f1dbdcd28022a0280b84403750d94000000000000000000000000326be8f71bfb0379f989aab1cc1fe37f0a771f606242576e786b506e44305550357a7555000000000000000000000000000000001ba052e120500b94de05245477a7767c486bd08c8287f1b80ef1d1dcfde90c8faff4a06cd1e2864f89d9f1f263bc52cb743b9c27062838431e97052ec9308448735f5f",
      "networkId": 0,
      "chainId": 0
    }
  ]
}