{
  "hash": "0x0bb342cdae38b76a291b7eb3853b1ac92356ad7719bde2c1048a56b0073ae5bb",
  "parentHash": "0x2401d156bfdca557db3e3d8029cbef133df3ea93f67b32f72b5e1804a562e3ba",
  "number": 55393,
  "timestamp": 1439069951,
  "nonce": "0xca9e148b672a75a1",
  "difficulty": 1625039803186,
  "gasLimit": {
    "_hex": "0x2fe3db"
  },
  "gasUsed": {
    "_hex": "0xaf1f"
  },
  "miner": "0xf8E0CA3Ed80bd541b94BEdCf259e8CF2141A9523",
  "extraData": "0x476574682f76312e302e312f77696e646f77732f676f312e342e32",
  "transactions": [
    {
      "hash": "0x1bca9fdac89c85a40f5300d18854a8161e810b57293a09e9e8a240fc359a2124",
      "blockHash": "0x0bb342cdae38b76a291b7eb3853b1ac92356ad7719bde2c1048a56b0073ae5bb",
      "blockNumber": 55393,
      "transactionIndex": 0,
      "confirmations": null,
      "from": "0x8f660f8B2E4c7CC2B4AC9c47eD28508d5F8f8650",
      "gasPrice": {
        "_hex": "0x110c8f7d8de"
      },
      "gasLimit": {
        "_hex": "0xc350"
      },
      "to": "0x2910543Af39abA0Cd09dBb2D50200b3E800A63D2",
      "value": {
        "_hex": "0x43c325e4dfd06f60000"
      },
      "nonce": 0,
      "data": "0x454e54424246463052",
      "r": "0x1abef016c2eff7ffd9af9423ec68fb465af5ecdcee8eed9dbae92f0f18f56bbd",
      "s": "0x509bd427c8b038c6a84d314cba3e228d58aed07f7a5bf2b9b850fa7e03111c0c",
      "v": 28,
      "creates": null,
      "raw": "0xf87880860110c8f7d8de82c350942910543af39aba0cd09dbb2d50200b3e800a63d28a043c325e4dfd06f6000089454e544242464630521ca01abef016c2eff7ffd9af9423ec68fb465af5ecdcee8eed9dbae92f0f18f56bbda0509bd427c8b038c6a84d314cba3e228d58aed07f7a5bf2b9b850fa7e03111c0c",
      "networkId": 0,
      "chainId": 0
    },
    {
      "hash": "0xef4a46153c4ad0e3436324bc06b4e186098674fbfbfbe90a31e9a4b930d6240a",
      "blockHash": "0x0bb342cdae38b76a291b7eb3853b1ac92356ad7719bde2c1048a56b0073ae5bb",
      "blockNumber": 55393,
      "transactionIndex": 1,
      "confirmations": null,
      "from": "0x073f70b5bfAde6409E4951EF72BC8F4157677729",
      "gasPrice": {
        "_hex": "0xcb7bb2c05"
      },
      "gasLimit": {
        "_hex": "0x15f90"
      },
      "to": "0xF6bF0eE51FE0ee92500bB22295382E9241eC3b5C",
      "value": {
        "_hex": "0xc8"
      },
      "nonce": 8,
      "data": "0xe54232745994471abb010fa833ac17a8954977a3307fd98819ec2c874000000000000000",
      "r": "0xc2ab61980132bfe9552aa362f1aa801de02ed2fbee011fb9192c9697f2bb8658",
      "s": "0x32d5a4b5a55d478377ffd83c019899f0a42686652995597c5bc1977738b3b782",
      "v": 27,
      "creates": null,
      "raw": "0xf88a08850cb7bb2c0583015f9094f6bf0ee51fe0ee92500bb22295382e9241ec3b5c81c8a4e54232745994471abb010fa833ac17a8954977a3307fd98819ec2c8740000000000000001ba0c2ab61980132bfe9552aa362f1aa801de02ed2fbee011fb9192c9697f2bb8658a032d5a4b5a55d478377ffd83c019899f0a42686652995597c5bc1977738b3b782",
      "networkId": 0,
      "chainId": 0
    }
  ]
}