{
  "hash": "0xdb85f571593538a96097ae43e5ef97133e7f7d9b0babe4608da1bf3adc1e4f8e",
  "parentHash": "0x4a4e626f67960428ea6816501868818dd1ff2b4d8379f08c1a6e1780ae4133cd",
  "number": 73237,
  "timestamp": 1439365677,
  "nonce": "0x68ad194970c55ca5",
  "difficulty": 2203497318020,
  "gasLimit": {
    "_hex": "0x2fefd8"
  },
  "gasUsed": {
    "_hex": "0xbffd"
  },
  "miner": "0x8eB3747b8397C48BC29fd5Df6765AbCEfbDffFCA",
  "extraData": "0x476574682f76312e302e312d38326566323666362f6c696e75782f676f312e34",
  "transactions": [
    {
      "hash": "0x9732e433641e8641d74617518f0c59e68f646b9aba8e8a5eaf63787f581047b6",
      "blockHash": "0xdb85f571593538a96097ae43e5ef97133e7f7d9b0babe4608da1bf3adc1e4f8e",
      "blockNumber": 73237,
      "transactionIndex": 0,
      "confirmations": null,
      "from": "0xA10C59651885FeAaac91F871082a23BBbaBeDfCf",
      "gasPrice": {
        "_hex": "0x1172c24e4e2"
      },
      "gasLimit": {
        "_hex": "0x5208"
      },
      "to": "0x4c74B6F32c9680aCB5Fe0e72B7Aa95C612540A04",
      "value": {
        "_hex": "0x56bc75e2d63100000"
      },
      "nonce": 19,
      "data": "0x",
      "r": "0x752a81afb9d962c4206012a0aaad23c1336d03cb8353886008c38df964532af2",
      "s": "0x58c61de738d996ee14d71b74a25f477f25fa48b4fff83089e62c987687891e84",
      "v": 28,
      "creates": null,
      "raw": "0xf86e138601172c24e4e2825208944c74b6f32c9680acb5fe0e72b7aa95c612540a0489056bc75e2d63100000801ca0752a81afb9d962c4206012a0aaad23c1336d03cb8353886008c38df964532af2a058c61de738d996ee14d71b74a25f477f25fa48b4fff83089e62c987687891e84",
      "networkId": 0,
      "chainId": 0
    },
    {
      "hash": "0x2dc455afd3e107c4835abf390da2f19edfa7ecaddfcc11ce6d6e065333321cb2",
      "blockHash": "0xdb85f571593538a96097ae43e5ef97133e7f7d9b0babe4608da1bf3adc1e4f8e",
      "blockNumber": 73237,
      "transactionIndex": 1,
      "confirmations": null,
      "from": "0x326Be8F71bFb0379f989aAB1CC1fE37f0a771f60",
      "gasPrice": {
        "_hex": "0x10072fe03e2"
      },
      "gasLimit": {
        "_hex": "0x493e0"
      },
      "to": "0x7153FdeEf24E488Af4dc001F620407764ee47747",
      "value": {
        "_hex": "0x0"
      },
      "nonce": 31,
      "data": "0x55b775ea00000000000000000000000087c5b5874a18b4306df8a752a6c8cc3e82dafc19",
      "r": "0x61e1d9c1e36c63e7922b6d7ce0e53be91c5fd7e3cdb9a9967b82bedd602e4d3b",
      "s": "0x409b9f9e333ce6d0cbb06d06a22bc0cb4fc4ead245cc1242947e5c825158494d",
      "v": 27,
      "creates": null,
      "raw": "0xf88a1f86010072fe03e2830493e0947153fdeef24e488af4dc001f620407764ee4774780a455b775ea00000000000000000000000087c5b5874a18b4306df8a752a6c8cc3e82dafc191ba061e1d9c1e36c63e7922b6d7ce0e53be91c5fd7e3cdb9a9967b82bedd602e4d3ba0409b9f9e333ce6d0cbb06d06a22bc0cb4fc4ead245cc1242947e5c825158494d",
      "networkId": 0,
      "chainId": 0
    }
  ]
}