{
  "hash": "0xedac4b58fd06aaea02c013ef17441f98f6d7a5fa73738d4b9d2d901f1c80d630",
  "parentHash": "0xed9c317216dfad9439cf0d8312658f12988025ad815c9496212efc4ccc50ff02",
  "number": 91906,
  "timestamp": 1439663574,
  "nonce": "0x71ab072bc44d6088",
  "difficulty": 3477509579983,
  "gasLimit": {
    "_hex": "0x2fefd8"
  },
  "gasUsed": {
    "_hex": "0x5208"
  },
  "miner": "0x157c6f2431eB1a95797EE86F7d17b3c0FD47A247",
  "extraData": "0x476574682f76312e302e312f77696e646f77732f676f312e342e32",
  "transactions": [
    {
      "hash": "0x2c8930c4134febe3e4a3d1d909238724d208a6d37f06630d5873dfe169341750",
      "blockHash": "0xedac4b58fd06aaea02c013ef17441f98f6d7a5fa73738d4b9d2d901f1c80d630",
      "blockNumber": 91906,
      "transactionIndex": 0,
      "confirmations": null,
      "from": "0x32Be343B94f860124dC4fEe278FDCBD38C102D88",
      "gasPrice": {
        "_hex": "0xce912f95e"
      },
      "gasLimit": {
        "_hex": "0x5208"
      },
      "to": "0xf1f13E70bf1318a5E7171447154Bf1A9B7565B0C",
      "value": {
        "_hex": "0x6ccd46763f10000"
      },
      "nonce": 888,
      "data": "0x",
      "r": "0x191d7c9161b7214486a73a40545c5685e1c90fa17cf24ac1a5aab7649fa8ced4",
      "s": "0x7c1bbedcf1c2d9df55f0521dd18a8491447288038ecc22d8ea2a02a3211ad681",
      "v": 28,
      "creates": null,
      "raw": "0xf86e820378850ce912f95e82520894f1f13e70bf1318a5e7171447154bf1a9b7565b0c8806ccd46763f10000801ca0191d7c9161b7214486a73a40545c5685e1c90fa17cf24ac1a5aab7649fa8ced4a07c1bbedcf1c2d9df55f0521dd18a8491447288038ecc22d8ea2a02a3211ad681",
      "networkId": 0,
      "chainId": 0
    }
  ]
}