{
  "hash": "0x36bc86c6c4a63f51205ec1154de9ea8b14c2786f43b2e4377294eb46ba5a39f2",
  "parentHash": "0x2dc4afabcdcb6b205bb48e7180ebf4f0d01a8d2b3aeabf8b08e9ef079aaaa5f7",
  "number": 85160,
  "timestamp": 1439559319,
  "nonce": "0x1c3955ea3e518d72",
  "difficulty": 2745095539675,
  "gasLimit": {
    "_hex": "0x2fefd8"
  },
  "gasUsed": {
    "_hex": "0x33450"
  },
  "miner": "0x445Aa5d2cB3Bc1A77460aB63C13328368d12fb9F",
  "extraData": "0x",
  "transactions": [
    {
      "hash": "0xd43a64f79fe0f453938d47280446e18d81a4bf5a673664551a6a0a23fec5ed9f",
      "blockHash": "0x36bc86c6c4a63f51205ec1154de9ea8b14c2786f43b2e4377294eb46ba5a39f2",
      "blockNumber": 85160,
      "transactionIndex": 0,
      "confirmations": null,
      "from": "0x98E6F547db88e75f1f9c8Ac2C5CF1627bA580b3E",
      "gasPrice": {
        "_hex": "0xdb4226fdd"
      },
      "gasLimit": {
        "_hex": "0x15f90"
      },
      "to": "0x23c8E5E706581FBe9beFFbAbFb7f98A73f047Acd",
      "value": {
        "_hex": "0x1bc16d674ec80000"
      },
      "nonce": 2,
      "data": "0x",
      "r": "0x5399e6e7a53104d6a72c75e51dcf1947c0b24fcc17cd35036062c2c68acca1f0",
      "s": "0x64402b25001111f9809de60cfa99dde57a193d859a11fcc6b6fd99f2d9cf4839",
      "v": 27,
      "creates": null,
      "raw": "0xf86d02850db4226fdd83015f909423c8e5e706581fbe9beffbabfb7f98a73f047acd881bc16d674ec80000801ba05399e6e7a53104d6a72c75e51dcf1947c0b24fcc17cd35036062c2c68acca1f0a064402b25001111f9809de60cfa99dde57a193d859a11fcc6b6fd99f2d9cf4839",
      "networkId": 0,
      "chainId": 0
    },
    {
      "hash": "0xf7a726b51145433fb4909b0b5a8d19d2cfd31a57e3cfdced9f3b63c9d42b97c6",
      "blockHash": "0x36bc86c6c4a63f51205ec1154de9ea8b14c2786f43b2e4377294eb46ba5a39f2",
      "blockNumber": 85160,
      "transactionIndex": 1,
      "confirmations": null,
      "from": "0x1Dc9BaE77DBE79A2EFD8E2Bae6EAB9ba29fD8EB2",
      "gasPrice": {
        "_hex": "0xd38b102e9"
      },
      "gasLimit": {
        "_hex": "0x5208"
      },
      "to": "0x32Be343B94f860124dC4fEe278FDCBD38C102D88",
      "value": {
        "_hex": "0xad6629a3dff800"
      },
      "nonce": 0,
      "data": "0x",
      "r": "0xa4ae1abda81a28053fb426164267258047b0c217614917afdb2b01fc467f7d13",
      "s": "0x1a5dd5a6f40dcb19147d20801b0479cf5b65be0ea5dbf5a0860f84ad6fcbdcd0",
      "v": 27,
      "creates": null,
      "raw": "0xf86b80850d38b102e98252089432be343b94f860124dc4fee278fdcbd38c102d8887ad6629a3dff800801ba0a4ae1abda81a28053fb426164267258047b0c217614917afdb2b01fc467f7d13a01a5dd5a6f40dcb19147d20801b0479cf5b65be0ea5dbf5a0860f84ad6fcbdcd0",
      "networkId": 0,
      "chainId": 0
    },
    {
      "hash": "0x21158bc742ea070e97e1d26957a9b36e4902d43d1d742e12fb120c1bbde7ecba",
      "blockHash": "0x36bc86c6c4a63f51205ec1154de9ea8b14c2786f43b2e4377294eb46ba5a39f2",
      "blockNumber": 85160,
      "transactionIndex": 2,
      "confirmations": null,
      "from": "0x503901873Fa95Da0f39dcD5bBf02E6c388793bDA",
      "gasPrice": {
        "_hex": "0xd38b102e9"
      },
      "gasLimit": {
        "_hex": "0x5208"
      },
      "to": "0x32Be343B94f860124dC4fEe278FDCBD38C102D88",
      "value": {
        "_hex": "0x1bbd30d4c3e2f800"
      },
      "nonce": 0,
      "data": "0x",
      "r": "0x1d0d3889a75971d9308deb25f4d1fb52da560e37ef56b86aaa3929985464427b",
      "s": "0x2a224c8719e26cf181df7f011b171a44d34ce60e512ce6e4997c0629fe810870",
      "v": 28,
      "creates": null,
      "raw": "0xf86c80850d38b102e98252089432be343b94f860124dc4fee278fdcbd38c102d88881bbd30d4c3e2f800801ca01d0d3889a75971d9308deb25f4d1fb52da560e37ef56b86aaa3929985464427ba02a224c8719e26cf181df7f011b171a44d34ce60e512ce6e4997c0629fe810870",
      "networkId": 0,
      "chainId": 0
    },
    {
      "hash": "0x97470a22916119871ae854bf0a472cc8eff9ae28e035c599bfd2c3735715357b",
      "blockHash": "0x36bc86c6c4a63f51205ec1154de9ea8b14c2786f43b2e4377294eb46ba5a39f2",
      "blockNumber": 85160,
      "transactionIndex": 3,
      "confirmations": null,
      "from": "0x8EB44b62108312F9764f111B35c9A291089d8173",
      "gasPrice": {
        "_hex": "0xd38b102e9"
      },
      "gasLimit": {
        "_hex": "0x5208"
      },
      "to": "0x32Be343B94f860124dC4fEe278FDCBD38C102D88",
      "value": {
        "_hex": "0xddc7a211c7ef800"
      },
      "nonce": 0,
      "data": "0x",
      "r": "0x2e01bd621c765cc02a4e66d2f1fd47185d3c0c78e11de04441b87baf232a23c0",
      "s": "0x02479022b48d2fbc6c7c5a8b5e106d05fd40f765be0cac6c36bde270cc58c8c7",
      "v": 27,
      "creates": null,
      "raw": "0xf86c80850d38b102e98252089432be343b94f860124dc4fee278fdcbd38c102d88880ddc7a211c7ef800801ba02e01bd621c765cc02a4e66d2f1fd47185d3c0c78e11de04441b87baf232a23c0a002479022b48d2fbc6c7c5a8b5e106d05fd40f765be0cac6c36bde270cc58c8c7",
      "networkId": 0,
      "chainId": 0
    },
    {
      "hash": "0x9bd117b633f2e14c9c0c5ba652382b033fd7488ff933d30607c2f17666066e00",
      "blockHash": "0x36bc86c6c4a63f51205ec1154de9ea8b14c2786f43b2e4377294eb46ba5a39f2",
      "blockNumber": 85160,
      "transactionIndex": 4,
      "confirmations": null,
      "from": "0xA6905dC8E8b859cFCe7Adb4b39985757E544fF9D",
      "gasPrice": {
        "_hex": "0xd38b102e9"
      },
      "gasLimit": {
        "_hex": "0x5208"
      },
      "to": "0x32Be343B94f860124dC4fEe278FDCBD38C102D88",
      "value": {
        "_hex": "0x6c6b8f1ef9325c0000"
      },
      "nonce": 0,
      "data": "0x",
      "r": "0x97c3ca4c7b0dace95198982cb3cc4e918d032e5ef1c528cfe95550458ff08ebc",
      "s": "0x156ac47b87254ccb0f2dc3ec04efe86b0981aa48bc8ac8a7e24c99a37a4a03c3",
      "v": 28,
      "creates": null,
      "raw": "0xf86d80850d38b102e98252089432be343b94f860124dc4fee278fdcbd38c102d88896c6b8f1ef9325c0000801ca097c3ca4c7b0dace95198982cb3cc4e918d032e5ef1c528cfe95550458ff08ebca0156ac47b87254ccb0f2dc3ec04efe86b0981aa48bc8ac8a7e24c99a37a4a03c3",
      "networkId": 0,
      "chainId": 0
    },
    {
      "hash": "0x7b5c3976e5e89d9e1170416e1920007551c6c21bd8261ba8857548db14069d40",
      "blockHash": "0x36bc86c6c4a63f51205ec1154de9ea8b14c2786f43b2e4377294eb46ba5a39f2",
      "blockNumber": 85160,
      "transactionIndex": 5,
      "confirmations": null,
      "from": "0x4FCD326ae0739D0DA0fC71020adb6aBf9abf3BdA",
      "gasPrice": {
        "_hex": "0xba43b7400"
      },
      "gasLimit": {
        "_hex": "0x5208"
      },
      "to": "0xC47Aaa860008be6f65B58c6C6E02a84e666EfE31",
      "value": {
        "_hex": "0xddcfbbb7a606000"
      },
      "nonce": 2,
      "data": "0x",
      "r": "0xae02d7bd50bf26308b57d814bf4a3d135de370374ab160e23d10b6cdbaf1d843",
      "s": "0x2d163258bc417c913cf0f09cb292132cdb72ad1f3c3aee28f9845d2870473487",
      "v": 28,
      "creates": null,
      "raw": "0xf86c02850ba43b740082520894c47aaa860008be6f65b58c6c6e02a84e666efe31880ddcfbbb7a606000801ca0ae02d7bd50bf26308b57d814bf4a3d135de370374ab160e23d10b6cdbaf1d843a02d163258bc417c913cf0f09cb292132cdb72ad1f3c3aee28f9845d2870473487",
      "networkId": 0,
      "chainId": 0
    },
    {
      "hash": "0xc18c0df5742bc3f98bbed326d7ffd51ac7698dd33250bd16e18a2500823e827f",
      "blockHash": "0x36bc86c6c4a63f51205ec1154de9ea8b14c2786f43b2e4377294eb46ba5a39f2",
      "blockNumber": 85160,
      "transactionIndex": 6,
      "confirmations": null,
      "from": "0x2C6dA0AeEF23c6a9eA4a8f19c0810e505FDEb231",
      "gasPrice": {
        "_hex": "0xba43b7400"
      },
      "gasLimit": {
        "_hex": "0x5208"
      },
      "to": "0xC47Aaa860008be6f65B58c6C6E02a84e666EfE31",
      "value": {
        "_hex": "0x119f95b91a7a99e000"
      },
      "nonce": 5,
      "data": "0x",
      "r": "0x35b4170126c3ebd78bcdaac2751b2f21159dcacc0edab8f3be019345d18d2b6a",
      "s": "0x5de4209c9a5b6253ff0d76a01ec6f4765f68f5b956300520181a7e93fb931964",
      "v": 27,
      "creates": null,
      "raw": "0xf86d05850ba43b740082520894c47aaa860008be6f65b58c6c6e02a84e666efe3189119f95b91a7a99e000801ba035b4170126c3ebd78bcdaac2751b2f21159dcacc0edab8f3be019345d18d2b6aa05de4209c9a5b6253ff0d76a01ec6f4765f68f5b956300520181a7e93fb931964",
      "networkId": 0,
      "chainId": 0
    },
    {
      "hash": "0xcab94727927460504bba379b61dc858a1087c5a2becfffddf0610b566b19f6e1",
      "blockHash": "0x36bc86c6c4a63f51205ec1154de9ea8b14c2786f43b2e4377294eb46ba5a39f2",
      "blockNumber": 85160,
      "transactionIndex": 7,
      "confirmations": null,
      "from": "0x28a9D631e5C22Ee57312DDdc75936822a2243A05",
      "gasPrice": {
        "_hex": "0xba43b7400"
      },
      "gasLimit": {
        "_hex": "0x5208"
      },
      "to": "0xC47Aaa860008be6f65B58c6C6E02a84e666EfE31",
      "value": {
        "_hex": "0x179fc60d8a35e5cf0"
      },
      "nonce": 7,
      "data": "0x",
      "r": "0xad26db4c684eb92454d6f629623322bb9dcd337e941930121bb245176836ead2",
      "s": "0x090089f44160ba84e807ef149d4005a014876a26abd607cbf34712d59b558a63",
      "v": 28,
      "creates": null,
      "raw": "0xf86d07850ba43b740082520894c47aaa860008be6f65b58c6c6e02a84e666efe31890179fc60d8a35e5cf0801ca0ad26db4c684eb92454d6f629623322bb9dcd337e941930121bb245176836ead2a0090089f44160ba84e807ef149d4005a014876a26abd607cbf34712d59b558a63",
      "networkId": 0,
      "chainId": 0
    },
    {
      "hash": "0xccf354bc07e7536666530155a05f3f1817d68439b14937f54f98e491e2cb8ff2",
      "blockHash": "0x36bc86c6c4a63f51205ec1154de9ea8b14c2786f43b2e4377294eb46ba5a39f2",
      "blockNumber": 85160,
      "transactionIndex": 8,
      "confirmations": null,
      "from": "0x63d25FB5edc318Aae1DEc4F3aBd7c645f921cff8",
      "gasPrice": {
        "_hex": "0xba43b7400"
      },
      "gasLimit": {
        "_hex": "0x5208"
      },
      "to": "0xC47Aaa860008be6f65B58c6C6E02a84e666EfE31",
      "value": {
        "_hex": "0x492f588929c9b930"
      },
      "nonce": 1,
      "data": "0x",
      "r": "0x13b3b346dfcd3cace97d2a737295f4225f6d877bcd9e11a693c66a4e206facf0",
      "s": "0x0322439d7f52e0bfff017177c72e0f4f65d472750601eb532d05bbaff62fedf4",
      "v": 28,
      "creates": null,
      "raw": "0xf86c01850ba43b740082520894c47aaa860008be6f65b58c6c6e02a84e666efe3188492f588929c9b930801ca013b3b346dfcd3cace97d2a737295f4225f6d877bcd9e11a693c66a4e206facf0a00322439d7f52e0bfff017177c72e0f4f65d472750601eb532d05bbaff62fedf4",
      "networkId": 0,
      "chainId": 0
    },
    {
      "hash": "0x24cd97d50601d1e9e3adf73fcdd6d813973cffcd7a6916ed1ce0a96bf11fe692",
      "blockHash": "0x36bc86c6c4a63f51205ec1154de9ea8b14c2786f43b2e4377294eb46ba5a39f2",
      "blockNumber": 85160,
      "transactionIndex": 9,
      "confirmations": null,
      "from": "0xB111131B23148a685D28A018B3577910B86280FC",
      "gasPrice": {
        "_hex": "0xba43b7400"
      },
      "gasLimit": {
        "_hex": "0x5208"
      },
      "to": "0xC47Aaa860008be6f65B58c6C6E02a84e666EfE31",
      "value": {
        "_hex": "0x298ca5a99147b8f0"
      },
      "nonce": 3,
      "data": "0x",
      "r": "0x268078a953b74a8d396f3e6a9bf5028c56703ee3c12de29e3a799edc74f868aa",
      "s": "0x3b3c9efc9637776b4092c65739abeab22708f53f1bae042e3502da4badd618e3",
      "v": 27,
      "creates": null,
      "raw": "0xf86c03850ba43b740082520894c47aaa860008be6f65b58c6c6e02a84e666efe3188298ca5a99147b8f0801ba0268078a953b74a8d396f3e6a9bf5028c56703ee3c12de29e3a799edc74f868aaa03b3c9efc9637776b4092c65739abeab22708f53f1bae042e3502da4badd618e3",
      "networkId": 0,
      "chainId": 0
    }
  ]
}