{
  "hash": "0xc29c64bb1168ae651de37994d4d91b76efac9b263e9dfebe5c6a5cb4a6209268",
  "parentHash": "0x76b9bed36832f9b90e1aef11385409d8d56430afd16c7cef057a820ba6c8a5e7",
  "number": 62728,
  "timestamp": 1439193416,
  "nonce": "0x9aa170d84274094b",
  "difficulty": 1765005858855,
  "gasLimit": {
    "_hex": "0x2fefd8"
  },
  "gasUsed": {
    "_hex": "0x5208"
  },
  "miner": "0x52C5410c716E50972396d3BEA76706c5D4C31B8e",
  "extraData": "0x",
  "transactions": [
    {
      "hash": "0x4198b9a666c76ceceb8043f7ba118741d7758ee11d434d95b4b4582049bda0e3",
      "blockHash": "0xc29c64bb1168ae651de37994d4d91b76efac9b263e9dfebe5c6a5cb4a6209268",
      "blockNumber": 62728,
      "transactionIndex": 0,
      "confirmations": null,
      "from": "0x32Be343B94f860124dC4fEe278FDCBD38C102D88",
      "gasPrice": {
        "_hex": "0xde5d32eeb"
      },
      "gasLimit": {
        "_hex": "0x5208"
      },
      "to": "0x9c344098BA615A398F11D009905b177C44a7b602",
      "value": {
        "_hex": "0x1b3682bd57ce570000"
      },
      "nonce": 154,
      "data": "0x",
      "r": "0xd590840472b2f444407237836b3b811d2b7e4902acb571d0eee41c16d022c55c",
      "s": "0x7dcb7f2e98eebfaeeec7b64dc06534b693303ad728b9517c4d421daceb300b89",
      "v": 27,
      "creates": null,
      "raw": "0xf86e819a850de5d32eeb825208949c344098ba615a398f11d009905b177c44a7b602891b3682bd57ce570000801ba0d590840472b2f444407237836b3b811d2b7e4902acb571d0eee41c16d022c55ca07dcb7f2e98eebfaeeec7b64dc06534b693303ad728b9517c4d421daceb300b89",
      "networkId": 0,
      "chainId": 0
    }
  ]
}