{
  "hash": "0x1de7c313cbe755a6ed7d0ac1056828dc6ebbf585870a70c6d9e636efac259c80",
  "parentHash": "0x9dfeb508aceb910b38603d84c453b4087b2c039320ce6b9f20bf678f25460259",
  "number": 120961,
  "timestamp": 1440169068,
  "nonce": "0xc8d24ff9d0d6ae14",
  "difficulty": 4425935634667,
  "gasLimit": {
    "_hex": "0x2fefd8"
  },
  "gasUsed": {
    "_hex": "0x5208"
  },
  "miner": "0x35e8e5dC5FBd97c5b421A80B596C030a2Be2A04D",
  "extraData": "0x",
  "transactions": [
    {
      "hash": "0x7cb93632728c1ddc69fe3b7d5855188f82a0ee36a235f9e37dad4b272275fe9e",
      "blockHash": "0x1de7c313cbe755a6ed7d0ac1056828dc6ebbf585870a70c6d9e636efac259c80",
      "blockNumber": 120961,
      "transactionIndex": 0,
      "confirmations": null,
      "from": "0xC2B0FB302729ef0f4aa96C0E02cC2346459294DF",
      "gasPrice": {
        "_hex": "0xba43b7400"
      },
      "gasLimit": {
        "_hex": "0x15f90"
      },
      "to": "0xcE2b6a73E0155C41C002D0745D93D9BEd0fbD019",
      "value": {
        "_hex": "0xde0b6b3a7640000"
      },
      "nonce": 5,
      "data": "0x",
      "r": "0x9783e5980dfa8268744d44d2c7fbdf9cc6b052d82127b242db614d0f8da852b8",
      "s": "0x047c4cbca547fc1ba8b053bd3cb993a35aeb3bb33821a124f88276838ea5f795",
      "v": 27,
      "creates": null,
      "raw": "0xf86d05850ba43b740083015f9094ce2b6a73e0155c41c002d0745d93d9bed0fbd019880de0b6b3a7640000801ba09783e5980dfa8268744d44d2c7fbdf9cc6b052d82127b242db614d0f8da852b8a0047c4cbca547fc1ba8b053bd3cb993a35aeb3bb33821a124f88276838ea5f795",
      "networkId": 0,
      "chainId": 0
    }
  ]
}