{
  "hash": "0x51cd2c9542a28241db86cd7e6def57afc2b9cb32441bcd5245caf2de4835f7c2",
  "parentHash": "0xb5cd6e7bcb7fced8f53543ebbda70bb2586c76d5a79b41a85a34d1e6b08c24ea",
  "number": 109286,
  "timestamp": 1439954003,
  "nonce": "0x88b870ebf70812e0",
  "difficulty": 4451619663078,
  "gasLimit": {
    "_hex": "0x2fefd8"
  },
  "gasUsed": {
    "_hex": "0x5208"
  },
  "miner": "0xEF247E639d49461D25F57e9362CadE3120910Ce0",
  "extraData": "0x476574682f76312e302e312f6c696e75782f676f312e342e32",
  "transactions": [
    {
      "hash": "0x303f35eff3915807110421ca26a197c52dea0d9171fb545b82e1d69e0e069509",
      "blockHash": "0x51cd2c9542a28241db86cd7e6def57afc2b9cb32441bcd5245caf2de4835f7c2",
      "blockNumber": 109286,
      "transactionIndex": 0,
      "confirmations": null,
      "from": "0x007f7f58D3eb5b7510A301eCC749FC1fCDDBE14D",
      "gasPrice": {
        "_hex": "0xd382b0b9c"
      },
      "gasLimit": {
        "_hex": "0x15f90"
      },
      "to": "0xb1abce2918E21ddb93AA452731a12672A3d9F75a",
      "value": {
        "_hex": "0x4563918244f40000"
      },
      "nonce": 264,
      "data": "0x",
      "r": "0x42d4fbfb10849f12bac52435a665edfde4433c5d238c8b0d371c8ba32aa9cc13",
      "s": "0x3cca646062b3c3d4ca35260e9ef59204b6641a9cf75e970ef36df4d8d29edc2d",
      "v": 28,
      "creates": null,
      "raw": "0xf86f820108850d382b0b9c83015f9094b1abce2918e21ddb93aa452731a12672a3d9f75a884563918244f40000801ca042d4fbfb10849f12bac52435a665edfde4433c5d238c8b0d371c8ba32aa9cc13a03cca646062b3c3d4ca35260e9ef59204b6641a9cf75e970ef36df4d8d29edc2d",
      "networkId": 0,
      "chainId": 0
    }
  ]
}