{
  "hash": "0x846013b106beaae59c6bada13a6ac57fead22045ff51b65f977c11181a46105e",
  "parentHash": "0xb2ae710dd7898cafa19f9ebfa9efbf8d96b5dbe10a5fbab929c70acc5e11bf2d",
  "number": 82513,
  "timestamp": 1439520623,
  "nonce": "0x56a200d6e182d668",
  "difficulty": 2377592559749,
  "gasLimit": {
    "_hex": "0x2fefd8"
  },
  "gasUsed": {
    "_hex": "0x14820"
  },
  "miner": "0x8df03bD37602d97980327B58D940258dC57007B3",
  "extraData": "0x",
  "transactions": [
    {
      "hash": "0x376ff2f9291528aea42fa8502d508f5731d1c571088f914682ff5a3a1d9ff91d",
      "blockHash": "0x846013b106beaae59c6bada13a6ac57fead22045ff51b65f977c11181a46105e",
      "blockNumber": 82513,
      "transactionIndex": 0,
      "confirmations": null,
      "from": "0x79b3CC55449605B142479d28864956bd9e18f283",
      "gasPrice": {
        "_hex": "0xba43b7400"
      },
      "gasLimit": {
        "_hex": "0x5208"
      },
      "to": "0xC47Aaa860008be6f65B58c6C6E02a84e666EfE31",
      "value": {
        "_hex": "0x56bb1dfbbfe2be000"
      },
      "nonce": 2,
      "data": "0x",
      "r": "0x04bcd89d2fe3a52f19cbf86c1c95b534112358b327954116a11fc29cbee83a31",
      "s": "0x5ec13778ed30c7ede056b38b5d82ee41bf1331822ee2f9a43514374ff5d9a8f8",
      "v": 28,
      "creates": null,
      "raw": "0xf86d02850ba43b740082520894c47aaa860008be6f65b58c6c6e02a84e666efe3189056bb1dfbbfe2be000801ca004bcd89d2fe3a52f19cbf86c1c95b534112358b327954116a11fc29cbee83a31a05ec13778ed30c7ede056b38b5d82ee41bf1331822ee2f9a43514374ff5d9a8f8",
      "networkId": 0,
      "chainId": 0
    },
    {
      "hash": "0xc2e48bd54637cd3a8eb898caa1e78c1ece46bda6ad0addc89c2f2de566cd6dac",
      "blockHash": "0x846013b106beaae59c6bada13a6ac57fead22045ff51b65f977c11181a46105e",
      "blockNumber": 82513,
      "transactionIndex": 1,
      "confirmations": null,
      "from": "0x5F28bcc5faFC8982536A9e4be559657998CdE1E3",
      "gasPrice": {
        "_hex": "0xba43b7400"
      },
      "gasLimit": {
        "_hex": "0x5208"
      },
      "to": "0xC47Aaa860008be6f65B58c6C6E02a84e666EfE31",
      "value": {
        "_hex": "0x571fe075731f7e400"
      },
      "nonce": 5,
      "data": "0x",
      "r": "0x06cb19611763075edfe24fc2897b2260932e5534738d081b4116db65a7f85e25",
      "s": "0x123d7ea870b402095e7bd874ef68ebb589f3838233f150168b17754288dc72e2",
      "v": 27,
      "creates": null,
      "raw": "0xf86d05850ba43b740082520894c47aaa860008be6f65b58c6c6e02a84e666efe31890571fe075731f7e400801ba006cb19611763075edfe24fc2897b2260932e5534738d081b4116db65a7f85e25a0123d7ea870b402095e7bd874ef68ebb589f3838233f150168b17754288dc72e2",
      "networkId": 0,
      "chainId": 0
    },
    {
      "hash": "0x6a1352b414b45cd45d798c577e191d33b928e9196251e0e5e24d6942ee7bec72",
      "blockHash": "0x846013b106beaae59c6bada13a6ac57fead22045ff51b65f977c11181a46105e",
      "blockNumber": 82513,
      "transactionIndex": 2,
      "confirmations": null,
      "from": "0xEdD03B3afA58aaE8C5732fF58e26099bc5C10659",
      "gasPrice": {
        "_hex": "0xba43b7400"
      },
      "gasLimit": {
        "_hex": "0x5208"
      },
      "to": "0xC47Aaa860008be6f65B58c6C6E02a84e666EfE31",
      "value": {
        "_hex": "0x1dd0b307883bf3e000"
      },
      "nonce": 1,
      "data": "0x",
      "r": "0x90f1307c14b48a8cce7154e415066810b0484ccf2154a67ef8ab2b8cf0c23173",
      "s": "0x3c9692cc2b790dff77d42feb8c9c21f5e95cf64daf438cac20d8bd0eaff93676",
      "v": 28,
      "creates": null,
      "raw": "0xf86d01850ba43b740082520894c47aaa860008be6f65b58c6c6e02a84e666efe31891dd0b307883bf3e000801ca090f1307c14b48a8cce7154e415066810b0484ccf2154a67ef8ab2b8cf0c23173a03c9692cc2b790dff77d42feb8c9c21f5e95cf64daf438cac20d8bd0eaff93676",
      "networkId": 0,
      "chainId": 0
    },
    {
      "hash": "0x2ca6e173a15c142c2455e313c097bf18a36c7832e16cbe37be042ab5b892dffe",
      "blockHash": "0x846013b106beaae59c6bada13a6ac57fead22045ff51b65f977c11181a46105e",
      "blockNumber": 82513,
      "transactionIndex": 3,
      "confirmations": null,
      "from": "0x4c1E3793EC978772BC3f5dd236933Bf9Ed342D4e",
      "gasPrice": {
        "_hex": "0xba43b7400"
      },
      "gasLimit": {
        "_hex": "0x5208"
      },
      "to": "0xC47Aaa860008be6f65B58c6C6E02a84e666EfE31",
      "value": {
        "_hex": "0x56bc3a335360c6000"
      },
      "nonce": 0,
      "data": "0x",
      "r": "0xd6f241c7cab1d10b712db0e58227a07f5b0aabf0e9a7034f2c058583533592a7",
      "s": "0x16dd51cd7267b5d7cbeef447bfc37c0172a213d2d2ff10725bbdb58ce4fc2875",
      "v": 28,
      "creates": null,
      "raw": "0xf86d80850ba43b740082520894c47aaa860008be6f65b58c6c6e02a84e666efe3189056bc3a335360c6000801ca0d6f241c7cab1d10b712db0e58227a07f5b0aabf0e9a7034f2c058583533592a7a016dd51cd7267b5d7cbeef447bfc37c0172a213d2d2ff10725bbdb58ce4fc2875",
      "networkId": 0,
      "chainId": 0
    }
  ]
}