{
  "hash": "0xea90b7692f0940d1c4f876501739170324cdcece9ed1a5c258d972f6bf32eb5e",
  "parentHash": "0x33bcd1d61f9543efebea71dd817ca87c9f80f0f68535a7ce1acaea949bf144ea",
  "number": 80771,
  "timestamp": 1439490482,
  "nonce": "0xb53486975f8588ed",
  "difficulty": 2448787456056,
  "gasLimit": {
    "_hex": "0x2fefd8"
  },
  "gasUsed": {
    "_hex": "0xf618"
  },
  "miner": "0xF11940EA05aA9CC3F13aCF5C5cA6EDCF312E3Aec",
  "extraData": "0x476574682f76312e302e312f77696e646f77732f676f312e342e32",
  "transactions": [
    {
      "hash": "0xf5ddf4c3c1482ca293639cbb391d67a468e2659a4ecd0405320490dde961a44f",
      "blockHash": "0xea90b7692f0940d1c4f876501739170324cdcece9ed1a5c258d972f6bf32eb5e",
      "blockNumber": 80771,
      "transactionIndex": 0,
      "confirmations": null,
      "from": "0xa6BDc31c431B8F97848c9D60cbbe9660dc450eB7",
      "gasPrice": {
        "_hex": "0xd4fae4e62"
      },
      "gasLimit": {
        "_hex": "0x5208"
      },
      "to": "0x32Be343B94f860124dC4fEe278FDCBD38C102D88",
      "value": {
        "_hex": "0x8ac2df1411639000"
      },
      "nonce": 45,
      "data": "0x",
      "r": "0xf79a4f5eec086706ce81f57c6c6d3c592d9b424ec61ffec9adc182aae76c2873",
      "s": "0x43659498e9806d8d18f21283b37747b8a261adecaa59a6dd5c0a573e17cd7a7e",
      "v": 28,
      "creates": null,
      "raw": "0xf86c2d850d4fae4e628252089432be343b94f860124dc4fee278fdcbd38c102d88888ac2df1411639000801ca0f79a4f5eec086706ce81f57c6c6d3c592d9b424ec61ffec9adc182aae76c2873a043659498e9806d8d18f21283b37747b8a261adecaa59a6dd5c0a573e17cd7a7e",
      "networkId": 0,
      "chainId": 0
    },
    {
      "hash": "0x0d083ec211bd4af5602433ab3aca7787f690f06d4478bb8e04fb0aab18702cf8",
      "blockHash": "0xea90b7692f0940d1c4f876501739170324cdcece9ed1a5c258d972f6bf32eb5e",
      "blockNumber": 80771,
      "transactionIndex": 1,
      "confirmations": null,
      "from": "0x1A9cbB22dc982354ADA98BE8cC13e611eEdD7794",
      "gasPrice": {
        "_hex": "0xd4fae4e62"
      },
      "gasLimit": {
        "_hex": "0x5208"
      },
      "to": "0x32Be343B94f860124dC4fEe278FDCBD38C102D88",
      "value": {
        "_hex": "0x8abf51956c9d1000"
      },
      "nonce": 0,
      "data": "0x",
      "r": "0xdfc86c4bd132b3830c792cbe1f09bef50ee20abb5d5bbf83e356b9a9e9ae8423",
      "s": "0x2fd292e2ef87959b21251b9ddc763c5aaba854b33929bd655e7c771f1b2f61f1",
      "v": 28,
      "creates": null,
      "raw": "0xf86c80850d4fae4e628252089432be343b94f860124dc4fee278fdcbd38c102d88888abf51956c9d1000801ca0dfc86c4bd132b3830c792cbe1f09bef50ee20abb5d5bbf83e356b9a9e9ae8423a02fd292e2ef87959b21251b9ddc763c5aaba854b33929bd655e7c771f1b2f61f1",
      "networkId": 0,
      "chainId": 0
    },
    {
      "hash": "0xc057f34ef619263ae016dce1d2d771f8bab4d2c4b7c7b43979e5078b7a4fdd29",
      "blockHash": "0xea90b7692f0940d1c4f876501739170324cdcece9ed1a5c258d972f6bf32eb5e",
      "blockNumber": 80771,
      "transactionIndex": 2,
      "confirmations": null,
      "from": "0x4b0424c09BaC4Ee3f4376f1D3fA354E8Cb2D3171",
      "gasPrice": {
        "_hex": "0xcb342f08f"
      },
      "gasLimit": {
        "_hex": "0x15f90"
      },
      "to": "0x34d34F0a638F6991e4E2536F41295DF6E934A646",
      "value": {
        "_hex": "0x7a1c53e182a98000"
      },
      "nonce": 6,
      "data": "0x",
      "r": "0x8742283c2c423dce5eed086427678bc992e414a3b0d37bc964c8584ad5c42026",
      "s": "0x5ffa4786a8116e3f886749876cb3422303f2444b544e576a2d67b85b0bb31550",
      "v": 27,
      "creates": null,
      "raw": "0xf86d06850cb342f08f83015f909434d34f0a638f6991e4e2536f41295df6e934a646887a1c53e182a98000801ba08742283c2c423dce5eed086427678bc992e414a3b0d37bc964c8584ad5c42026a05ffa4786a8116e3f886749876cb3422303f2444b544e576a2d67b85b0bb31550",
      "networkId": 0,
      "chainId": 0
    }
  ]
}