{
  "hash": "0xb52b58ae6a0e8b0f295c91e15081fc297f60ace2706c6c4aeac7877518c2b1e0",
  "parentHash": "0x9a16257c832ee94326b1ebb7ae0d3822495e8f48ae2463bccf4027312f0c2096",
  "number": 87898,
  "timestamp": 1439599171,
  "nonce": "0x1fe3e52cfe81a451",
  "difficulty": 3192667210998,
  "gasLimit": {
    "_hex": "0x2fefd8"
  },
  "gasUsed": {
    "_hex": "0x5208"
  },
  "miner": "0xf927a40C8B7F6E07c5af7FA2155B4864a4112B13",
  "extraData": "0x",
  "transactions": [
    {
      "hash": "0x8271f76d11d723cf1dab8e8c181ea8e5c62737165287f84322a753fc2dc58c16",
      "blockHash": "0xb52b58ae6a0e8b0f295c91e15081fc297f60ace2706c6c4aeac7877518c2b1e0",
      "blockNumber": 87898,
      "transactionIndex": 0,
      "confirmations": null,
      "from": "0x661eedD93dA06499d3220aA2aDF05d6d2417e60c",
      "gasPrice": {
        "_hex": "0x10f0ff41740"
      },
      "gasLimit": {
        "_hex": "0x15f90"
      },
      "to": "0x67A75F5fBBCa0974C961b43E7D62204a4093c1Bb",
      "value": {
        "_hex": "0x4563918244f40000"
      },
      "nonce": 2,
      "data": "0x",
      "r": "0x9b1612bcbd4744ab4cdde51b3cc6a269115c8e77c447ac5c40f30337a949043b",
      "s": "0x75de81d1c8eb426acb2e17ef9f3ab8d5be569a709fa1ce9e32b1f34d1a8cf605",
      "v": 28,
      "creates": null,
      "raw": "0xf86e0286010f0ff4174083015f909467a75f5fbbca0974c961b43e7d62204a4093c1bb884563918244f40000801ca09b1612bcbd4744ab4cdde51b3cc6a269115c8e77c447ac5c40f30337a949043ba075de81d1c8eb426acb2e17ef9f3ab8d5be569a709fa1ce9e32b1f34d1a8cf605",
      "networkId": 0,
      "chainId": 0
    }
  ]
}