{
  "hash": "0x61a55a0147e75fa789517923469788af2b7ca5498fc6a3bd3fdc09dff7aa4b9b",
  "parentHash": "0xc5167c06ce1fe8c92e36a9407595a934e72f8f89fe115d468a90834156f76538",
  "number": 112283,
  "timestamp": 1440004926,
  "nonce": "0x04559a66bb068f2e",
  "difficulty": 4391747159411,
  "gasLimit": {
    "_hex": "0x2fefd8"
  },
  "gasUsed": {
    "_hex": "0x5208"
  },
  "miner": "0x007f7f58D3eb5b7510A301eCC749FC1fCDDBE14D",
  "extraData": "0x476574682f76312e302e312f77696e646f77732f676f312e342e32",
  "transactions": [
    {
      "hash": "0xb97a63ddf43cc3961ecde9d1b7e55e45b7407ac5694866949b973aa3ca94aaf3",
      "blockHash": "0x61a55a0147e75fa789517923469788af2b7ca5498fc6a3bd3fdc09dff7aa4b9b",
      "blockNumber": 112283,
      "transactionIndex": 0,
      "confirmations": null,
      "from": "0x84b91e2E2902d05E2B591B41083Bd7BEB2d52c74",
      "gasPrice": {
        "_hex": "0xdeac196a4"
      },
      "gasLimit": {
        "_hex": "0x15f90"
      },
      "to": "0xC2320fb657A740fbA1e44f7a0A37efcb8BCC3B5F",
      "value": {
        "_hex": "0x1a055690d9db80000"
      },
      "nonce": 0,
      "data": "0x",
      "r": "0xfff68b81709cb1302176c67c796e27e09c602d3c8c6f803e8d7bfce9cd016aea",
      "s": "0x2670a985d8f494d718312473823c3c1564d1e00f0e142f7a336c221ea4a417b8",
      "v": 27,
      "creates": null,
      "raw": "0xf86e80850deac196a483015f9094c2320fb657a740fba1e44f7a0a37efcb8bcc3b5f8901a055690d9db80000801ba0fff68b81709cb1302176c67c796e27e09c602d3c8c6f803e8d7bfce9cd016aeaa02670a985d8f494d718312473823c3c1564d1e00f0e142f7a336c221ea4a417b8",
      "networkId": 0,
      "chainId": 0
    }
  ]
}