{
  "hash": "0x4ec76597138a27473813afbbe1d9ffda3be233a556062b9edc4ef37898a91af5",
  "parentHash": "0x1b95ba5f0318e8f6e201bc74d84f8a40c5ad19b538075611d933779291dae186",
  "number": 69643,
  "timestamp": 1439307410,
  "nonce": "0xb018a1508a82f7ce",
  "difficulty": 2076957140077,
  "gasLimit": {
    "_hex": "0x2fefd8"
  },
  "gasUsed": {
    "_hex": "0xf618"
  },
  "miner": "0xe6A7a1d47ff21B6321162AEA7C6CB457D5476Bca",
  "extraData": "0x476574682f76312e302e312d38326566323666362f6c696e75782f676f312e34",
  "transactions": [
    {
      "hash": "0x9b5eb9ee19d4fc44335eecd8e0d60e2ff6d0f70f9484e68883a8e6037b1ee013",
      "blockHash": "0x4ec76597138a27473813afbbe1d9ffda3be233a556062b9edc4ef37898a91af5",
      "blockNumber": 69643,
      "transactionIndex": 0,
      "confirmations": null,
      "from": "0xDDbbB9D6C0f9cea8A7f29Fe427b1FD90Fa787E96",
      "gasPrice": {
        "_hex": "0xd1729de14"
      },
      "gasLimit": {
        "_hex": "0x5208"
      },
      "to": "0x32Be343B94f860124dC4fEe278FDCBD38C102D88",
      "value": {
        "_hex": "0x3bd7b491e16094000"
      },
      "nonce": 0,
      "data": "0x",
      "r": "0x7ab4246987dbd70c020d7a8331d5e6a39acda0d504d13e7f439c000ceae3b134",
      "s": "0x3c81ddc5e6f057aad6174ed57fe622b44ff66d411acf41ad7d40f9965017a51f",
      "v": 27,
      "creates": null,
      "raw": "0xf86d80850d1729de148252089432be343b94f860124dc4fee278fdcbd38c102d888903bd7b491e16094000801ba07ab4246987dbd70c020d7a8331d5e6a39acda0d504d13e7f439c000ceae3b134a03c81ddc5e6f057aad6174ed57fe622b44ff66d411acf41ad7d40f9965017a51f",
      "networkId": 0,
      "chainId": 0
    },
    {
      "hash": "0x1d9712e02ff22483093c4de2049eff681c91ef72842e851173d902c126cd592d",
      "blockHash": "0x4ec76597138a27473813afbbe1d9ffda3be233a556062b9edc4ef37898a91af5",
      "blockNumber": 69643,
      "transactionIndex": 1,
      "confirmations": null,
      "from": "0x99425213944D7885b88Ec9D20D974B7Ac89D62E2",
      "gasPrice": {
        "_hex": "0xd1729de14"
      },
      "gasLimit": {
        "_hex": "0x5208"
      },
      "to": "0x32Be343B94f860124dC4fEe278FDCBD38C102D88",
      "value": {
        "_hex": "0xddc84ded759cc00"
      },
      "nonce": 3,
      "data": "0x",
      "r": "0xd36dc81d210f1992f139842d3df2b2cd0607f9b4f3d82860c83e9a10786d4255",
      "s": "0x7285876ebc0024b39f766476ab1ab8ca78906f33757b1c3e8e7e6c32d972186a",
      "v": 28,
      "creates": null,
      "raw": "0xf86c03850d1729de148252089432be343b94f860124dc4fee278fdcbd38c102d88880ddc84ded759cc00801ca0d36dc81d210f1992f139842d3df2b2cd0607f9b4f3d82860c83e9a10786d4255a07285876ebc0024b39f766476ab1ab8ca78906f33757b1c3e8e7e6c32d972186a",
      "networkId": 0,
      "chainId": 0
    },
    {
      "hash": "0xf8ffa75fead1160e8fe6baa7d8a9b22aef1600c9101f47142337b6e2824c93df",
      "blockHash": "0x4ec76597138a27473813afbbe1d9ffda3be233a556062b9edc4ef37898a91af5",
      "blockNumber": 69643,
      "transactionIndex": 2,
      "confirmations": null,
      "from": "0xC25f24A505b8fEF751D8f4FCc397651001F7a160",
      "gasPrice": {
        "_hex": "0xd1729de14"
      },
      "gasLimit": {
        "_hex": "0x5208"
      },
      "to": "0x32Be343B94f860124dC4fEe278FDCBD38C102D88",
      "value": {
        "_hex": "0x33e2f45cc7f7b000"
      },
      "nonce": 14,
      "data": "0x",
      "r": "0x6abe9980284e5758e4f809ba0c4bbcdf273d35ebef28550c73094feebb2e820a",
      "s": "0x2e652a10527c581b24e9bbdfce2622991c24bbf9edc92fb86de6e65dbd6d650d",
      "v": 28,
      "creates": null,
      "raw": "0xf86c0e850d1729de148252089432be343b94f860124dc4fee278fdcbd38c102d888833e2f45cc7f7b000801ca06abe9980284e5758e4f809ba0c4bbcdf273d35ebef28550c73094feebb2e820aa02e652a10527c581b24e9bbdfce2622991c24bbf9edc92fb86de6e65dbd6d650d",
      "networkId": 0,
      "chainId": 0
    }
  ]
}