{
  "hash": "0x6268cc40a3acb418f93a37f3efa9dce78815708f93a90a57e98f0ba34694c062",
  "parentHash": "0xa3a01932535893e11bfc1d32bc5238a1ca60e62d10050b67bcce94ca6a3deea0",
  "number": 56371,
  "timestamp": 1439086282,
  "nonce": "0x8efe28d2984e9d47",
  "difficulty": 1647217662020,
  "gasLimit": {
    "_hex": "0x2fefd8"
  },
  "gasUsed": {
    "_hex": "0x546c"
  },
  "miner": "0x88D74a59454F6cF3B51ef6b9136AFb6b9D405A88",
  "extraData": "0x476574682f76312e302e312d37666266393930632f6c696e75782f676f312e34",
  "transactions": [
    {
      "hash": "0xc5f1c92daddffacd965b73a13e8d766529b29891d45247ce1898222f81d99a66",
      "blockHash": "0x6268cc40a3acb418f93a37f3efa9dce78815708f93a90a57e98f0ba34694c062",
      "blockNumber": 56371,
      "transactionIndex": 0,
      "confirmations": null,
      "from": "0xeDA4B2FA59d684B27a810DF8978a73DF308a63c2",
      "gasPrice": {
        "_hex": "0x110c8f7d8de"
      },
      "gasLimit": {
        "_hex": "0xc350"
      },
      "to": "0x2910543Af39abA0Cd09dBb2D50200b3E800A63D2",
      "value": {
        "_hex": "0xd8c9460063d31c0000"
      },
      "nonce": 0,
      "data": "0x454e47465741575552",
      "r": "0xb564d08ea27efa7e012b8108ba72279e0a64fc9eb3669e43b778334584ebec38",
      "s": "0xd1ec43a76c60edcd57c66f6ce8ffc9a61e961dafab9608fc89957df3a5ed7126",
      "v": 28,
      "creates": null,
      "raw": "0xf87780860110c8f7d8de82c350942910543af39aba0cd09dbb2d50200b3e800a63d289d8c9460063d31c000089454e474657415755521ca0b564d08ea27efa7e012b8108ba72279e0a64fc9eb3669e43b778334584ebec38a0d1ec43a76c60edcd57c66f6ce8ffc9a61e961dafab9608fc89957df3a5ed7126",
      "networkId": 0,
      "chainId": 0
    }
  ]
}