{
  "hash": "0x8f38e27cb093ab4255091de5f93dde4f68075c41583d0d632d47c8cdacfd87c0",
  "parentHash": "0xdc15597b67e696abc07a3c53bfbb51016040968de24c5cc4f9c92a2c15c94284",
  "number": 61731,
  "timestamp": 1439177257,
  "nonce": "0x5ba95569edd03b22",
  "difficulty": 1733610891560,
  "gasLimit": {
    "_hex": "0x2fefd8"
  },
  "gasUsed": {
    "_hex": "0x4381c"
  },
  "miner": "0xfFcD9CAE6d9f54fd8ae05296F839892677ff6EaA",
  "extraData": "0x476574682f76312e302e312f77696e646f77732f676f312e342e32",
  "transactions": [
    {
      "hash": "0x50a7bbe2be29ff31818b10f018af2659eccbbcefb0cb1b57c586b62cf67fd79b",
      "blockHash": "0x8f38e27cb093ab4255091de5f93dde4f68075c41583d0d632d47c8cdacfd87c0",
      "blockNumber": 61731,
      "transactionIndex": 0,
      "confirmations": null,
      "from": "0xFD2605a2bF58fDbB90db1Da55dF61628B47F9e8c",
      "gasPrice": {
        "_hex": "0xceb473acb"
      },
      "gasLimit": {
        "_hex": "0x61a80"
      },
      "to": "0x020522bF9B8eD6FF41E2fa6765a17E20E2767D64",
      "value": {
        "_hex": "0x56bc75e2d63100000"
      },
      "nonce": 52,
      "data": "0x",
      "r": "0x31874a3b7d35ee269cd9ba3eaa65ca37c6a2ec190f7187a89b02fdea73edf2c7",
      "s": "0x2aa76d4943bd3a719a6d4f231ff476fdffcceb69926e7c77b71d6a9fd303dc8d",
      "v": 27,
      "creates": null,
      "raw": "0xf86e34850ceb473acb83061a8094020522bf9b8ed6ff41e2fa6765a17e20e2767d6489056bc75e2d63100000801ba031874a3b7d35ee269cd9ba3eaa65ca37c6a2ec190f7187a89b02fdea73edf2c7a02aa76d4943bd3a719a6d4f231ff476fdffcceb69926e7c77b71d6a9fd303dc8d",
      "networkId": 0,
      "chainId": 0
    }
  ]
}