{
  "hash": "0x04c9998410ad4a4fda0f8af5a6d85617b6b0be8e39c3b3d9f0db4fdbf529c406",
  "parentHash": "0xb0e2153ed84852661f261213c54f01d0be99dec441fb90b400ca9acd465de502",
  "number": 91635,
  "timestamp": 1439658904,
  "nonce": "0x32683242a249ab14",
  "difficulty": 3499766885497,
  "gasLimit": {
    "_hex": "0x2fe3fa"
  },
  "gasUsed": {
    "_hex": "0xa410"
  },
  "miner": "0x5F8F73E26CdF436f19Cb24C82F90A15AFe55b592",
  "extraData": "0x476574682f76312e302e312f77696e646f77732f676f312e342e32",
  "transactions": [
    {
      "hash": "0x63606112337c3342873525792d1f8a59bd93b480b2335270c94daaf60de8f101",
      "blockHash": "0x04c9998410ad4a4fda0f8af5a6d85617b6b0be8e39c3b3d9f0db4fdbf529c406",
      "blockNumber": 91635,
      "transactionIndex": 0,
      "confirmations": null,
      "from": "0x32Be343B94f860124dC4fEe278FDCBD38C102D88",
      "gasPrice": {
        "_hex": "0xd065e8191"
      },
      "gasLimit": {
        "_hex": "0x5208"
      },
      "to": "0xb794F5eA0ba39494cE839613fffBA74279579268",
      "value": {
        "_hex": "0x1fc3842bd1f072000000"
      },
      "nonce": 881,
      "data": "0x",
      "r": "0xc81c278c0e67701ccf08c963b6edfd78b4cfbcf6a942e3268a9e122df236779e",
      "s": "0x487263a57b8fcce9aabd385b85f9891ec0b3a9c52bf8f34d7a57a3357a8de6ec",
      "v": 27,
      "creates": null,
      "raw": "0xf870820371850d065e819182520894b794f5ea0ba39494ce839613fffba742795792688a1fc3842bd1f072000000801ba0c81c278c0e67701ccf08c963b6edfd78b4cfbcf6a942e3268a9e122df236779ea0487263a57b8fcce9aabd385b85f9891ec0b3a9c52bf8f34d7a57a3357a8de6ec",
      "networkId": 0,
      "chainId": 0
    },
    {
      "hash": "0xff9b2e7239f03d1e6853623ff33fe27387834951ed29f6908b36de44f44c672c",
      "blockHash": "0x04c9998410ad4a4fda0f8af5a6d85617b6b0be8e39c3b3d9f0db4fdbf529c406",
      "blockNumber": 91635,
      "transactionIndex": 1,
      "confirmations": null,
      "from": "0x2910543Af39abA0Cd09dBb2D50200b3E800A63D2",
      "gasPrice": {
        "_hex": "0xcdce4b776"
      },
      "gasLimit": {
        "_hex": "0x5208"
      },
      "to": "0x8991F62808482Bde546e7e5Bd7c91d26C405dD3d",
      "value": {
        "_hex": "0xde0b6b3a7640000"
      },
      "nonce": 811,
      "data": "0x",
      "r": "0x23ace695bd27b43bb1addb0c30834e62ebf94e45a6a332d422eaad0ce9a38d92",
      "s": "0x01d672928caabf2f85f93a834bd51dd944ff50df28a25ef3b01edf9ada2012c4",
      "v": 27,
      "creates": null,
      "raw": "0xf86e82032b850cdce4b776825208948991f62808482bde546e7e5bd7c91d26c405dd3d880de0b6b3a7640000801ba023ace695bd27b43bb1addb0c30834e62ebf94e45a6a332d422eaad0ce9a38d92a001d672928caabf2f85f93a834bd51dd944ff50df28a25ef3b01edf9ada2012c4",
      "networkId": 0,
      "chainId": 0
    }
  ]
}