{
  "hash": "0x3d924a49f12c7fa8afa845be4025c0e762f738c037cc52cba44bd54e780bab5b",
  "parentHash": "0xc37aeb8734f803ba5722146b029c8bc128ccdd0a4cd2d89c24d042443a61fad6",
  "number": 80374,
  "timestamp": 1439484728,
  "nonce": "0x17e43a765e2b51ea",
  "difficulty": 2381685139131,
  "gasLimit": {
    "_hex": "0x2fefd8"
  },
  "gasUsed": {
    "_hex": "0x5208"
  },
  "miner": "0x900deD2eC098c430caD5347E6F3322932D7BB3a9",
  "extraData": "0x476574682f76312e302e312f77696e646f77732f676f312e342e32",
  "transactions": [
    {
      "hash": "0xaaf7a0df94501a567073e7f23fc15f82080f427adafcfa40053806c33518a5e8",
      "blockHash": "0x3d924a49f12c7fa8afa845be4025c0e762f738c037cc52cba44bd54e780bab5b",
      "blockNumber": 80374,
      "transactionIndex": 0,
      "confirmations": null,
      "from": "0x1467bcfA961fE8067c779935a78B4a73E7393BD8",
      "gasPrice": {
        "_hex": "0xcb8b6841a"
      },
      "gasLimit": {
        "_hex": "0x5208"
      },
      "to": "0x32Be343B94f860124dC4fEe278FDCBD38C102D88",
      "value": {
        "_hex": "0x1bbd5029c7e62c00"
      },
      "nonce": 3,
      "data": "0x",
      "r": "0x60b5e0fa9f581cde55cbb50437ae088538579fff2399c3450bb8112287304ad6",
      "s": "0x6abeea76d52009ad97302dbe44d5ae2846a780a38de5340b835523a97cc1daf9",
      "v": 28,
      "creates": null,
      "raw": "0xf86c03850cb8b6841a8252089432be343b94f860124dc4fee278fdcbd38c102d88881bbd5029c7e62c00801ca060b5e0fa9f581cde55cbb50437ae088538579fff2399c3450bb8112287304ad6a06abeea76d52009ad97302dbe44d5ae2846a780a38de5340b835523a97cc1daf9",
      "networkId": 0,
      "chainId": 0
    }
  ]
}