{
  "hash": "0xbed0c8792ce93803f7692a29586eef854f0f43d6e90b7d341b66963803bc2370",
  "parentHash": "0xdefe62569672944564017a0ed9a01e1810ee5c46de3c9ec9288579aa755353cb",
  "number": 98978,
  "timestamp": 1439782318,
  "nonce": "0xbd64a8619572fba0",
  "difficulty": 3827274942212,
  "gasLimit": {
    "_hex": "0x2fefd8"
  },
  "gasUsed": {
    "_hex": "0xa410"
  },
  "miner": "0x3D5292e9d2a2D31014717ff936A0F9375A5Cc8b7",
  "extraData": "0x476574682f76312e302e312f77696e646f77732f676f312e342e32",
  "transactions": [
    {
      "hash": "0x2a0234c12bcb04b819990c23260101b8212f4be56d0848275ebc75d710a34f83",
      "blockHash": "0xbed0c8792ce93803f7692a29586eef854f0f43d6e90b7d341b66963803bc2370",
      "blockNumber": 98978,
      "transactionIndex": 0,
      "confirmations": null,
      "from": "0xEeEF7b645016C97Fa22E2B9FA68008c0F7a8E825",
      "gasPrice": {
        "_hex": "0xccfc883dc"
      },
      "gasLimit": {
        "_hex": "0x5208"
      },
      "to": "0x32Be343B94f860124dC4fEe278FDCBD38C102D88",
      "value": {
        "_hex": "0x1bbd52722f8eb800"
      },
      "nonce": 0,
      "data": "0x",
      "r": "0xbd8269aa6aaa9851c183efc712b380042c91edca46c3aadd5580420f6038f170",
      "s": "0x30f925ce50b97222c41cbb86e3a3d8d1e66c7c3f97f085fd034fbad66e5d87f1",
      "v": 28,
      "creates": null,
      "raw": "0xf86c80850ccfc883dc8252089432be343b94f860124dc4fee278fdcbd38c102d88881bbd52722f8eb800801ca0bd8269aa6aaa9851c183efc712b380042c91edca46c3aadd5580420f6038f170a030f925ce50b97222c41cbb86e3a3d8d1e66c7c3f97f085fd034fbad66e5d87f1",
      "networkId": 0,
      "chainId": 0
    },
    {
      "hash": "0xc14cbc6650092a047b932394ac4ed6c8fde9ac6198cb4c9633e80fe42fd0cf1a",
      "blockHash": "0xbed0c8792ce93803f7692a29586eef854f0f43d6e90b7d341b66963803bc2370",
      "blockNumber": 98978,
      "transactionIndex": 1,
      "confirmations": null,
      "from": "0x32Be343B94f860124dC4fEe278FDCBD38C102D88",
      "gasPrice": {
        "_hex": "0xccfc883dc"
      },
      "gasLimit": {
        "_hex": "0x5208"
      },
      "to": "0x1904b93787C5bdd897C2362b2879b84AC3D80f57",
      "value": {
        "_hex": "0x36b8cb4bc1f650000"
      },
      "nonce": 1051,
      "data": "0x",
      "r": "0xc5884aa86fdb0fe52ed3f16c48e10008af39b03fae1fc0ba10439216e3762d7a",
      "s": "0x2e51320cdd60306e3aa1c7fabef6e7bbcadc52c9a1bb18cd2013d36181dd7276",
      "v": 27,
      "creates": null,
      "raw": "0xf86f82041b850ccfc883dc825208941904b93787c5bdd897c2362b2879b84ac3d80f5789036b8cb4bc1f650000801ba0c5884aa86fdb0fe52ed3f16c48e10008af39b03fae1fc0ba10439216e3762d7aa02e51320cdd60306e3aa1c7fabef6e7bbcadc52c9a1bb18cd2013d36181dd7276",
      "networkId": 0,
      "chainId": 0
    }
  ]
}