{
  "hash": "0xb33b0ae1765bbd5f1204d5285839b882706ac81dfe3607f7958cedc10eab4342",
  "parentHash": "0x34109ee65977e8c488212c0b988edcec5867f57e1516d38be792b4d48725adda",
  "number": 57805,
  "timestamp": 1439109978,
  "nonce": "0x6f7a8464f51f6ae8",
  "difficulty": 1731038200525,
  "gasLimit": {
    "_hex": "0x2fefd8"
  },
  "gasUsed": {
    "_hex": "0xa410"
  },
  "miner": "0xf927a40C8B7F6E07c5af7FA2155B4864a4112B13",
  "extraData": "0x476574682f76312e302e312f6c696e75782f676f312e342e32",
  "transactions": [
    {
      "hash": "0xd6dd788af63b17ce9fa892847a711b71d47a3022f2557ad877406bc0d9b738a9",
      "blockHash": "0xb33b0ae1765bbd5f1204d5285839b882706ac81dfe3607f7958cedc10eab4342",
      "blockNumber": 57805,
      "transactionIndex": 0,
      "confirmations": null,
      "from": "0xF2d2AfF1320476cb8C6b607199D23175cc595693",
      "gasPrice": {
        "_hex": "0xd899c26be"
      },
      "gasLimit": {
        "_hex": "0x15f90"
      },
      "to": "0xF5EeDc192aB70b08D8354384aD94efD095849E00",
      "value": {
        "_hex": "0x91b77e5e5d9a00000"
      },
      "nonce": 12,
      "data": "0x",
      "r": "0xc7886076b6a4c5e79e06544ed2a8334b41d5f4094095fd0073cd438f6e636f28",
      "s": "0x0c8b4fd991d8dc434a394254c09b3cbc15dbfcf7e80f941011bdbe5ff04041ce",
      "v": 28,
      "creates": null,
      "raw": "0xf86e0c850d899c26be83015f9094f5eedc192ab70b08d8354384ad94efd095849e0089091b77e5e5d9a00000801ca0c7886076b6a4c5e79e06544ed2a8334b41d5f4094095fd0073cd438f6e636f28a00c8b4fd991d8dc434a394254c09b3cbc15dbfcf7e80f941011bdbe5ff04041ce",
      "networkId": 0,
      "chainId": 0
    },
    {
      "hash": "0x0340966a05dd7e16dd669bfa4400e475e68025218f447337b2ccdbfeb1de463b",
      "blockHash": "0xb33b0ae1765bbd5f1204d5285839b882706ac81dfe3607f7958cedc10eab4342",
      "blockNumber": 57805,
      "transactionIndex": 1,
      "confirmations": null,
      "from": "0xBc91527B31Fbbe397F91C2b9273Ea32b0d9a19a0",
      "gasPrice": {
        "_hex": "0xcfa78e598"
      },
      "gasLimit": {
        "_hex": "0x5208"
      },
      "to": "0x32Be343B94f860124dC4fEe278FDCBD38C102D88",
      "value": {
        "_hex": "0x169c553bad49c00"
      },
      "nonce": 1,
      "data": "0x",
      "r": "0x60c6f9f552e25d207f628c9ffcc74e5606a592da69cb20c2d44fcf89158e56e7",
      "s": "0x58eb30231fd0bc24568e6aea8e3f18bca408a7baa73c369fdbbea7feb9bb38bb",
      "v": 27,
      "creates": null,
      "raw": "0xf86c01850cfa78e5988252089432be343b94f860124dc4fee278fdcbd38c102d88880169c553bad49c00801ba060c6f9f552e25d207f628c9ffcc74e5606a592da69cb20c2d44fcf89158e56e7a058eb30231fd0bc24568e6aea8e3f18bca408a7baa73c369fdbbea7feb9bb38bb",
      "networkId": 0,
      "chainId": 0
    }
  ]
}