{
  "hash": "0x9a47e28f767138b8aeb78e0ea43343cf74c6d7980be36550d9b5ea6fe16d548d",
  "parentHash": "0x9adab5ef10209e894b5501956c939a1238514e05329cae5c1a45528c89138090",
  "number": 105958,
  "timestamp": 1439896301,
  "nonce": "0x62120133c69c0142",
  "difficulty": 4462092618212,
  "gasLimit": {
    "_hex": "0x2fefd8"
  },
  "gasUsed": {
    "_hex": "0x14e47"
  },
  "miner": "0xf927a40C8B7F6E07c5af7FA2155B4864a4112B13",
  "extraData": "0x",
  "transactions": [
    {
      "hash": "0xacc81e88c388a1a5d0152546a2ce307c32ab7b7357dbe0b95288f6edc2804bed",
      "blockHash": "0x9a47e28f767138b8aeb78e0ea43343cf74c6d7980be36550d9b5ea6fe16d548d",
      "blockNumber": 105958,
      "transactionIndex": 0,
      "confirmations": null,
      "from": "0x87C5B5874A18B4306DF8a752a6C8cc3E82daFc19",
      "gasPrice": {
        "_hex": "0x113f3a4be9d"
      },
      "gasLimit": {
        "_hex": "0x493e0"
      },
      "to": "0xD79B4C6791784184e2755B2fC1659eaaB0f80456",
      "value": {
        "_hex": "0x0"
      },
      "nonce": 312,
      "data": "0x03750d9400000000000000000000000087c5b5874a18b4306df8a752a6c8cc3e82dafc196b6b6b0000000000000000000000000000000000000000000000000000000000",
      "r": "0xf93094792efe05e5bb4dd1bbe6ae2cd54e5e2d92cc6aa69d6ced2f4a1cc5a0cf",
      "s": "0x73b3234039958992320be0d2e126e86c2733207490e52c2425ec2cdb9dc57e3c",
      "v": 27,
      "creates": null,
      "raw": "0xf8ad820138860113f3a4be9d830493e094d79b4c6791784184e2755b2fc1659eaab0f8045680b84403750d9400000000000000000000000087c5b5874a18b4306df8a752a6c8cc3e82dafc196b6b6b00000000000000000000000000000000000000000000000000000000001ba0f93094792efe05e5bb4dd1bbe6ae2cd54e5e2d92cc6aa69d6ced2f4a1cc5a0cfa073b3234039958992320be0d2e126e86c2733207490e52c2425ec2cdb9dc57e3c",
      "networkId": 0,
      "chainId": 0
    },
    {
      "hash": "0x5bd31d120a73e7295b465afd11c7b0b54308e414a6c5fdda3191d3bfff9a534c",
      "blockHash": "0x9a47e28f767138b8aeb78e0ea43343cf74c6d7980be36550d9b5ea6fe16d548d",
      "blockNumber": 105958,
      "transactionIndex": 1,
      "confirmations": null,
      "from": "0xf2881e3e520bF84469Fa00a56449D357FB1af54A",
      "gasPrice": {
        "_hex": "0xda13053a7"
      },
      "gasLimit": {
        "_hex": "0x5208"
      },
      "to": "0x32Be343B94f860124dC4fEe278FDCBD38C102D88",
      "value": {
        "_hex": "0x1c9f32f1935f9b000"
      },
      "nonce": 10,
      "data": "0x",
      "r": "0x1545991983327bfc0b86590d4690c7711937b7e14a263c12efa4a108710595df",
      "s": "0x10547a7907f9aff871b0e3f01b6de21b1c21aa626672e64a4a12ce5cec57f53f",
      "v": 28,
      "creates": null,
      "raw": "0xf86d0a850da13053a78252089432be343b94f860124dc4fee278fdcbd38c102d888901c9f32f1935f9b000801ca01545991983327bfc0b86590d4690c7711937b7e14a263c12efa4a108710595dfa010547a7907f9aff871b0e3f01b6de21b1c21aa626672e64a4a12ce5cec57f53f",
      "networkId": 0,
      "chainId": 0
    },
    {
      "hash": "0x80338ad2a1a625d4750dc7d1ef8b9bf154bed9d6748b512ee8fff2949735625b",
      "blockHash": "0x9a47e28f767138b8aeb78e0ea43343cf74c6d7980be36550d9b5ea6fe16d548d",
      "blockNumber": 105958,
      "transactionIndex": 2,
      "confirmations": null,
      "from": "0x6d37bd781411ccDd33792481E2C9CE5b62D3a5B8",
      "gasPrice": {
        "_hex": "0xda13053a7"
      },
      "gasLimit": {
        "_hex": "0x5208"
      },
      "to": "0x32Be343B94f860124dC4fEe278FDCBD38C102D88",
      "value": {
        "_hex": "0x10431039924a8b000"
      },
      "nonce": 7,
      "data": "0x",
      "r": "0x103b6f0dcd2effb3f87d33526e634124766a441ae5c2432ee744a3930a942c5f",
      "s": "0x0c67bb806897f851c1ab1d681d486c4984badbad86cac6e6d0c8ee1f4153eabf",
      "v": 28,
      "creates": null,
      "raw": "0xf86d07850da13053a78252089432be343b94f860124dc4fee278fdcbd38c102d8889010431039924a8b000801ca0103b6f0dcd2effb3f87d33526e634124766a441ae5c2432ee744a3930a942c5fa00c67bb806897f851c1ab1d681d486c4984badbad86cac6e6d0c8ee1f4153eabf",
      "networkId": 0,
      "chainId": 0
    }
  ]
}