{
  "hash": "0x4a4915ac9fd71655057e482491436f4c9a034fff6d1e809719f098d54e2b8381",
  "parentHash": "0xd17c952c161ac78da580945c1a6978795ebde231e1424f3f866cf36bbb67f430",
  "number": 61638,
  "timestamp": 1439175584,
  "nonce": "0x24f9799c6190c749",
  "difficulty": 1742966653155,
  "gasLimit": {
    "_hex": "0x2fefd8"
  },
  "gasUsed": {
    "_hex": "0xddfd"
  },
  "miner": "0x9746c7e1ef2bd21FF3997fa467593a89cb852BD0",
  "extraData": "0x476574682f76312e302e312f77696e646f77732f676f312e342e32",
  "transactions": [
    {
      "hash": "0x3794ffcb7542a4ebdb81747d7706b38d7fc62b202be71d79720f354822312c70",
      "blockHash": "0x4a4915ac9fd71655057e482491436f4c9a034fff6d1e809719f098d54e2b8381",
      "blockNumber": 61638,
      "transactionIndex": 0,
      "confirmations": null,
      "from": "0x475351efe1D9cf36276Ff2b7aE1D38bDB072E22c",
      "gasPrice": {
        "_hex": "0xd1621fb24"
      },
      "gasLimit": {
        "_hex": "0x61a80"
      },
      "to": "0x020522bF9B8eD6FF41E2fa6765a17E20E2767D64",
      "value": {
        "_hex": "0x56bc75e2d63100000"
      },
      "nonce": 5,
      "data": "0x",
      "r": "0x347c0f034fc784980a3394d2fc76ea42c276206b1072403aa389cba109fb1f58",
      "s": "0x2fc7a394ae95d3985ae0664fb66ea447e0a68c8da3c94d7c2f40c13275ef1575",
      "v": 27,
      "creates": null,
      "raw": "0xf86e05850d1621fb2483061a8094020522bf9b8ed6ff41e2fa6765a17e20e2767d6489056bc75e2d63100000801ba0347c0f034fc784980a3394d2fc76ea42c276206b1072403aa389cba109fb1f58a02fc7a394ae95d3985ae0664fb66ea447e0a68c8da3c94d7c2f40c13275ef1575",
      "networkId": 0,
      "chainId": 0
    }
  ]
}