{
  "hash": "0x5f2c61200c9a42fc67bbae28c90ce6123dd2e5e7ab6df30e301c1747b4b5a708",
  "parentHash": "0xfe394da1b7eac8b69d535f7a6c9e49d986aeeb6e05ee70942e35e65dcbaecdd7",
  "number": 96307,
  "timestamp": 1439738192,
  "nonce": "0xfc46d1f7227d550a",
  "difficulty": 3683624672811,
  "gasLimit": {
    "_hex": "0x2fefd8"
  },
  "gasUsed": {
    "_hex": "0x5208"
  },
  "miner": "0x9746c7e1ef2bd21FF3997fa467593a89cb852BD0",
  "extraData": "0x476574682f76312e302e312f77696e646f77732f676f312e342e32",
  "transactions": [
    {
      "hash": "0x5fe8a0eca58bc4056337abdb4388e3d903bec909be8b0e9bc9278119da711116",
      "blockHash": "0x5f2c61200c9a42fc67bbae28c90ce6123dd2e5e7ab6df30e301c1747b4b5a708",
      "blockNumber": 96307,
      "transactionIndex": 0,
      "confirmations": null,
      "from": "0xDB475D2957F27027Bc214C5A62AcbF48e28DC492",
      "gasPrice": {
        "_hex": "0xd2d1a8c91"
      },
      "gasLimit": {
        "_hex": "0x5208"
      },
      "to": "0x32Be343B94f860124dC4fEe278FDCBD38C102D88",
      "value": {
        "_hex": "0x43c33bd4f04dd800000"
      },
      "nonce": 0,
      "data": "0x",
      "r": "0xc26124e438614b7365f35132686f5bfe08dd3e014de0ed45c5eed4d8a3560c09",
      "s": "0x77cdff8136d50ef41e05fcc7ff74c97b47e1744c7585788b928b6e60b0b436c1",
      "v": 27,
      "creates": null,
      "raw": "0xf86e80850d2d1a8c918252089432be343b94f860124dc4fee278fdcbd38c102d888a043c33bd4f04dd800000801ba0c26124e438614b7365f35132686f5bfe08dd3e014de0ed45c5eed4d8a3560c09a077cdff8136d50ef41e05fcc7ff74c97b47e1744c7585788b928b6e60b0b436c1",
      "networkId": 0,
      "chainId": 0
    }
  ]
}