{
  "hash": "0xb767f57c6d61b82357484741ace0de8d485e3ec0208948e2c1ef8f0255c479d4",
  "parentHash": "0x62f31de4a73b3dd6d8563a51b072d196ccdc567f65e8a8c16f20ad5d3c3c2420",
  "number": 55260,
  "timestamp": 1439067785,
  "nonce": "0xf66b6e903cbd5073",
  "difficulty": 1637011599042,
  "gasLimit": {
    "_hex": "0x2fefd8"
  },
  "gasUsed": {
    "_hex": "0x1c9f8f"
  },
  "miner": "0xEF247E639d49461D25F57e9362CadE3120910Ce0",
  "extraData": "0x476574682f76312e302e312f6c696e75782f676f312e342e32",
  "transactions": [
    {
      "hash": "0x1b681b6b30c6a309704f799dbace86693f889b9ae784419ba348be8fec467be8",
      "blockHash": "0xb767f57c6d61b82357484741ace0de8d485e3ec0208948e2c1ef8f0255c479d4",
      "blockNumber": 55260,
      "transactionIndex": 0,
      "confirmations": null,
      "from": "0x8674c218F0351a62C3BA78C34FD2182A93Da94E2",
      "gasPrice": {
        "_hex": "0xdfcfbc771"
      },
      "gasLimit": {
        "_hex": "0xf4240"
      },
      "to": null,
      "value": {
        "_hex": "0x0"
      },
      "nonce": 48,
      "data": "0x60606040526108f2806100136000396000f3006060604052361561008a576000357c0100000000000000000000000000000000000000000000000000000000900480630a936fe51461008c57806315853113146100e157806339bfc4a11461010e5780636939cd9714610135578063affed0e0146101b4578063c36948b5146101d5578063de6f24bb14610257578063fe1e3eca146102af5761008a565b005b610097600450610587565b60405180806020018281038252838181518152602001915080519060200190602002808383829060006004602084601f0104600302600f01f1509050019250505060405180910390f35b6100f860048035906020018035906020015061030f565b6040518082815260200191505060405180910390f35b61011f600480359060200150610626565b6040518082815260200191505060405180910390f35b610146600480359060200150610699565b60405180806020018281038252838181518152602001915080519060200190808383829060006004602084601f0104600302600f01f150905090810190601f1680156101a65780820380516001836020036101000a031916815260200191505b509250505060405180910390f35b6101bf600450610343565b6040518082815260200191505060405180910390f35b6101ec6004803590602001803590602001506102c2565b604051808367ffffffffffffffff16815260200180602001828103825283818154815260200191508054801561024757820191906000526020600020905b81548152906001019060200180831161022a57829003601f168201915b5050935050505060405180910390f35b6102ad6004803590602001803590602001906004018035906020019191908080601f016020809104026020016040519081016040528093929190818152602001838380828437820191505050505050905061034c565b005b6102c060048035906020015061075d565b005b6000600050602052816000526040600020600050602052806000526040600020600091509150508060000160009054906101000a900467ffffffffffffffff169080600101600050905082565b6001600050602052816000526040600020600050818154811015610002579060005260206000209001600091509150505481565b60026000505481565b600060006000600260008181505480929190600101919050556001029250428260000160006101000a81548167ffffffffffffffff021916908302179055508382600101600050908051906020019082805482825590600052602060002090601f016020900481019282156103de579182015b828111156103dd5782518260005055916020019190600101906103bf565b5b50905061040991906103eb565b8082111561040557600081815060009055506001016103eb565b5090565b505081600060005060008773ffffffffffffffffffffffffffffffffffffffff16815260200190815260200160002060005060008581526020019081526020016000206000506000820160009054906101000a900467ffffffffffffffff168160000160006101000a81548167ffffffffffffffff02191690830217905550600182016000508160010160005090805482805482825590600052602060002090601f016020900481019282156104e857600052602060002091601f016020900482015b828111156104e75782548255916001019190600101906104cc565b5b50905061051391906104f5565b8082111561050f57600081815060009055506001016104f5565b5090565b5050905050600090505b6000600102600160005060008773ffffffffffffffffffffffffffffffffffffffff1681526020019081526020016000206000508281548110156100025790600052602060002090016000505414151561057f575b808060010191505061051d565b5b5050505050565b6020604051908101604052806000815260200150600160005060003373ffffffffffffffffffffffffffffffffffffffff16815260200190815260200160002060005080548060200260200160405190810160405280929190818152602001828054801561061757602002820191906000526020600020905b816000505481526020019060010190808311610600575b50505050509050610623565b90565b6000600060005060003373ffffffffffffffffffffffffffffffffffffffff168152602001908152602001600020600050600083815260200190815260200160002060005060000160009054906101000a900467ffffffffffffffff1667ffffffffffffffff169050610694565b919050565b6020604051908101604052806000815260200150600060005060003373ffffffffffffffffffffffffffffffffffffffff1681526020019081526020016000206000506000838152602001908152602001600020600050600101600050805480601f0160208091040260200160405190810160405280929190818152602001828054801561074c57820191906000526020600020905b81548152906001019060200180831161072f57829003601f168201915b50505050509050610758565b919050565b6000600060005060003373ffffffffffffffffffffffffffffffffffffffff168152602001908152602001600020600050600083815260200190815260200160002060006000820160006101000a81549067ffffffffffffffff021916905560018201600050805460008255601f01602090049060005260206000209081019061080591906107e7565b8082111561080157600081815060009055506001016107e7565b5090565b505050600090505b600160005060003373ffffffffffffffffffffffffffffffffffffffff168152602001908152602001600020600050548110156108ed5781600160005060003373ffffffffffffffffffffffffffffffffffffffff1681526020019081526020016000206000508281548110156100025790600052602060002090016000505414156108df57600160005060003373ffffffffffffffffffffffffffffffffffffffff168152602001908152602001600020600050818154811015610002579060005260206000209001600050600090555b5b808060010191505061080d565b5b505056",
      "r": "0xfeda7c1e2a2b545a7863f72c2c3ef6debd84e056231bd79c6229b17a84c9f5e9",
      "s": "0x7cbde195420735b7b141fad793f01a468c7e0987dba9dcc69242083dfc3ceef0",
      "v": 27,
      "creates": "0x6517102217a362f2506ED0c137c716f629b1b222",
      "raw": "0xf9095830850dfcfbc771830f42408080b9090560606040526108f2806100136000396000f3006060604052361561008a576000357c0100000000000000000000000000000000000000000000000000000000900480630a936fe51461008c57806315853113146100e157806339bfc4a11461010e5780636939cd9714610135578063affed0e0146101b4578063c36948b5146101d5578063de6f24bb14610257578063fe1e3eca146102af5761008a565b005b610097600450610587565b60405180806020018281038252838181518152602001915080519060200190602002808383829060006004602084601f0104600302600f01f1509050019250505060405180910390f35b6100f860048035906020018035906020015061030f565b6040518082815260200191505060405180910390f35b61011f600480359060200150610626565b6040518082815260200191505060405180910390f35b610146600480359060200150610699565b60405180806020018281038252838181518152602001915080519060200190808383829060006004602084601f0104600302600f01f150905090810190601f1680156101a65780820380516001836020036101000a031916815260200191505b509250505060405180910390f35b6101bf600450610343565b6040518082815260200191505060405180910390f35b6101ec6004803590602001803590602001506102c2565b604051808367ffffffffffffffff16815260200180602001828103825283818154815260200191508054801561024757820191906000526020600020905b81548152906001019060200180831161022a57829003601f168201915b5050935050505060405180910390f35b6102ad6004803590602001803590602001906004018035906020019191908080601f016020809104026020016040519081016040528093929190818152602001838380828437820191505050505050905061034c565b005b6102c060048035906020015061075d565b005b6000600050602052816000526040600020600050602052806000526040600020600091509150508060000160009054906101000a900467ffffffffffffffff169080600101600050905082565b6001600050602052816000526040600020600050818154811015610002579060005260206000209001600091509150505481565b60026000505481565b600060006000600260008181505480929190600101919050556001029250428260000160006101000a81548167ffffffffffffffff021916908302179055508382600101600050908051906020019082805482825590600052602060002090601f016020900481019282156103de579182015b828111156103dd5782518260005055916020019190600101906103bf565b5b50905061040991906103eb565b8082111561040557600081815060009055506001016103eb565b5090565b505081600060005060008773ffffffffffffffffffffffffffffffffffffffff16815260200190815260200160002060005060008581526020019081526020016000206000506000820160009054906101000a900467ffffffffffffffff168160000160006101000a81548167ffffffffffffffff02191690830217905550600182016000508160010160005090805482805482825590600052602060002090601f016020900481019282156104e857600052602060002091601f016020900482015b828111156104e75782548255916001019190600101906104cc565b5b50905061051391906104f5565b8082111561050f57600081815060009055506001016104f5565b5090565b5050905050600090505b6000600102600160005060008773ffffffffffffffffffffffffffffffffffffffff1681526020019081526020016000206000508281548110156100025790600052602060002090016000505414151561057f575b808060010191505061051d565b5b5050505050565b6020604051908101604052806000815260200150600160005060003373ffffffffffffffffffffffffffffffffffffffff16815260200190815260200160002060005080548060200260200160405190810160405280929190818152602001828054801561061757602002820191906000526020600020905b816000505481526020019060010190808311610600575b50505050509050610623565b90565b6000600060005060003373ffffffffffffffffffffffffffffffffffffffff168152602001908152602001600020600050600083815260200190815260200160002060005060000160009054906101000a900467ffffffffffffffff1667ffffffffffffffff169050610694565b919050565b6020604051908101604052806000815260200150600060005060003373ffffffffffffffffffffffffffffffffffffffff1681526020019081526020016000206000506000838152602001908152602001600020600050600101600050805480601f0160208091040260200160405190810160405280929190818152602001828054801561074c57820191906000526020600020905b81548152906001019060200180831161072f57829003601f168201915b50505050509050610758565b919050565b6000600060005060003373ffffffffffffffffffffffffffffffffffffffff168152602001908152602001600020600050600083815260200190815260200160002060006000820160006101000a81549067ffffffffffffffff021916905560018201600050805460008255601f01602090049060005260206000209081019061080591906107e7565b8082111561080157600081815060009055506001016107e7565b5090565b505050600090505b600160005060003373ffffffffffffffffffffffffffffffffffffffff168152602001908152602001600020600050548110156108ed5781600160005060003373ffffffffffffffffffffffffffffffffffffffff1681526020019081526020016000206000508281548110156100025790600052602060002090016000505414156108df57600160005060003373ffffffffffffffffffffffffffffffffffffffff168152602001908152602001600020600050818154811015610002579060005260206000209001600050600090555b5b808060010191505061080d565b5b5050561ba0feda7c1e2a2b545a7863f72c2c3ef6debd84e056231bd79c6229b17a84c9f5e9a07cbde195420735b7b141fad793f01a468c7e0987dba9dcc69242083dfc3ceef0",
      "networkId": 0,
      "chainId": 0
    },
    {
      "hash": "0x925eb172a2498fcc7c77d0facb53a459d25d5931af956b19e856ba8a6354c18b",
      "blockHash": "0xb767f57c6d61b82357484741ace0de8d485e3ec0208948e2c1ef8f0255c479d4",
      "blockNumber": 55260,
      "transactionIndex": 1,
      "confirmations": null,
      "from": "0x0ae3F81a67725a8A7758FeB8684c6c17dA20755D",
      "gasPrice": {
        "_hex": "0xd1e7ab519"
      },
      "gasLimit": {
        "_hex": "0x1e8480"
      },
      "to": "0xA327075af2a223A1C83a36aDa1126afE7430f955",
      "value": {
        "_hex": "0x8ac7230489e80000"
      },
      "nonce": 105,
      "data": "0x",
      "r": "0xf643fb341eb9ac067adcfde6575b597c23b03266d461542b8ee10100608489f7",
      "s": "0x2d0e48b37874e005665e1cd4d4e8c3f0e12e2f80015ce1d2b56d8176475af17b",
      "v": 28,
      "creates": null,
      "raw": "0xf86d69850d1e7ab519831e848094a327075af2a223a1c83a36ada1126afe7430f955888ac7230489e80000801ca0f643fb341eb9ac067adcfde6575b597c23b03266d461542b8ee10100608489f7a02d0e48b37874e005665e1cd4d4e8c3f0e12e2f80015ce1d2b56d8176475af17b",
      "networkId": 0,
      "chainId": 0
    },
    {
      "hash": "0x73d2becce741c23604720083f3c7ffd9fcafefc5d99be59c0cd45bbc085da27c",
      "blockHash": "0xb767f57c6d61b82357484741ace0de8d485e3ec0208948e2c1ef8f0255c479d4",
      "blockNumber": 55260,
      "transactionIndex": 2,
      "confirmations": null,
      "from": "0x0ae3F81a67725a8A7758FeB8684c6c17dA20755D",
      "gasPrice": {
        "_hex": "0xd1e7ab519"
      },
      "gasLimit": {
        "_hex": "0x1e8480"
      },
      "to": "0xA327075af2a223A1C83a36aDa1126afE7430f955",
      "value": {
        "_hex": "0x8ac7230489e80000"
      },
      "nonce": 106,
      "data": "0x",
      "r": "0x8b7b513638f67d924f0115145c16182e166409ef0719bbdda9560d97ed18079c",
      "s": "0x7731a71f847826c10be7cfc8270b6832a06d0a87153ac1fbcc8cde0c634f982a",
      "v": 28,
      "creates": null,
      "raw": "0xf86d6a850d1e7ab519831e848094a327075af2a223a1c83a36ada1126afe7430f955888ac7230489e80000801ca08b7b513638f67d924f0115145c16182e166409ef0719bbdda9560d97ed18079ca07731a71f847826c10be7cfc8270b6832a06d0a87153ac1fbcc8cde0c634f982a",
      "networkId": 0,
      "chainId": 0
    },
    {
      "hash": "0x7c0a21cb66573c8e24d6d128e28826dc6017c13c0408db0f23bd25bc25ba3dd0",
      "blockHash": "0xb767f57c6d61b82357484741ace0de8d485e3ec0208948e2c1ef8f0255c479d4",
      "blockNumber": 55260,
      "transactionIndex": 3,
      "confirmations": null,
      "from": "0x0ae3F81a67725a8A7758FeB8684c6c17dA20755D",
      "gasPrice": {
        "_hex": "0xd1e7ab519"
      },
      "gasLimit": {
        "_hex": "0x1e8480"
      },
      "to": "0xA327075af2a223A1C83a36aDa1126afE7430f955",
      "value": {
        "_hex": "0x8ac7230489e80000"
      },
      "nonce": 107,
      "data": "0x",
      "r": "0x1ab7f580acda7f9de3d9153f65e4042a77d917726cc25576f159ddada911f48c",
      "s": "0x4eeb28f2a6552083f8147cca420a5f15b03406076b059d1caa65b3041a9ef3aa",
      "v": 28,
      "creates": null,
      "raw": "0xf86d6b850d1e7ab519831e848094a327075af2a223a1c83a36ada1126afe7430f955888ac7230489e80000801ca01ab7f580acda7f9de3d9153f65e4042a77d917726cc25576f159ddada911f48ca04eeb28f2a6552083f8147cca420a5f15b03406076b059d1caa65b3041a9ef3aa",
      "networkId": 0,
      "chainId": 0
    }
  ]
}