{
  "hash": "0xb764c149f0a0d5212a4144b5aa9d0287f333c381ed91151aca98e313eece5f4d",
  "parentHash": "0x6667777ec6765eba4d62de51880c0a30c518cf9b3d69f3dde34a277d3d28d0df",
  "number": 103419,
  "timestamp": 1439853092,
  "nonce": "0xb55791a0c3ce6d25",
  "difficulty": 4170556274995,
  "gasLimit": {
    "_hex": "0x2fefd8"
  },
  "gasUsed": {
    "_hex": "0x5208"
  },
  "miner": "0x580992B51e3925e23280EfB93d3047C82f17E038",
  "extraData": "0x476574682f76312e302e312f6c696e75782f676f312e342e32",
  "transactions": [
    {
      "hash": "0x61ec8c88c8dee6ff018e0388c6d403290af248d6417a5fd0a368c5c8c405d9d8",
      "blockHash": "0xb764c149f0a0d5212a4144b5aa9d0287f333c381ed91151aca98e313eece5f4d",
      "blockNumber": 103419,
      "transactionIndex": 0,
      "confirmations": null,
      "from": "0x120A270bbC009644e35F0bB6ab13f95b8199c4ad",
      "gasPrice": {
        "_hex": "0xcb9cefdce"
      },
      "gasLimit": {
        "_hex": "0x3d090"
      },
      "to": "0x3704c19B4e0ba4fa67C6C93e3e6448dC02CCb8E2",
      "value": {
        "_hex": "0x11df4bfca21e7cc00"
      },
      "nonce": 719,
      "data": "0x",
      "r": "0xd23dc92424de5cff20427af63a9fd3eb4b763edf1333f80d8e79fe5d5e947e2d",
      "s": "0x2b3bc237da2fe41aa1043392f6fcd9fd6877fcc86debd25b3a530bcc9610cb8a",
      "v": 27,
      "creates": null,
      "raw": "0xf8708202cf850cb9cefdce8303d090943704c19b4e0ba4fa67c6c93e3e6448dc02ccb8e289011df4bfca21e7cc00801ba0d23dc92424de5cff20427af63a9fd3eb4b763edf1333f80d8e79fe5d5e947e2da02b3bc237da2fe41aa1043392f6fcd9fd6877fcc86debd25b3a530bcc9610cb8a",
      "networkId": 0,
      "chainId": 0
    }
  ]
}