{
  "hash": "0x074fbbc58c4aa2a67bb03979b5c252f5febb04e82e4646c219df8c483c6772a1",
  "parentHash": "0x1a85fbaa92e0e33287ec29e944b394b1aeb63d40eb21892a6c6ac82696dba01c",
  "number": 52266,
  "timestamp": 1439019070,
  "nonce": "0x4add1864e402f7bf",
  "difficulty": 1554993677917,
  "gasLimit": {
    "_hex": "0x11dfc0"
  },
  "gasUsed": {
    "_hex": "0x5208"
  },
  "miner": "0xf927a40C8B7F6E07c5af7FA2155B4864a4112B13",
  "extraData": "0x476574682f76312e302e312f6c696e75782f676f312e342e32",
  "transactions": [
    {
      "hash": "0xc4abc5dfc8773454c7c67530ce7bc50b45f18332bc1e12defbfb88820de076e5",
      "blockHash": "0x074fbbc58c4aa2a67bb03979b5c252f5febb04e82e4646c219df8c483c6772a1",
      "blockNumber": 52266,
      "transactionIndex": 0,
      "confirmations": null,
      "from": "0x32Be343B94f860124dC4fEe278FDCBD38C102D88",
      "gasPrice": {
        "_hex": "0xe802406f9"
      },
      "gasLimit": {
        "_hex": "0x5208"
      },
      "to": "0xbf15583D2498aF4A21576b3a3e5381E4fF66e152",
      "value": {
        "_hex": "0x6ccd46763f10000"
      },
      "nonce": 8,
      "data": "0x",
      "r": "0xe9b2d40d77a815b1a1e7e943718153c1f6259099021852a060ffb133f9105e8d",
      "s": "0x7d80258425e536e423a6c1c3e1104af39347aa48f55a756c969a3764626245b2",
      "v": 28,
      "creates": null,
      "raw": "0xf86c08850e802406f982520894bf15583d2498af4a21576b3a3e5381e4ff66e1528806ccd46763f10000801ca0e9b2d40d77a815b1a1e7e943718153c1f6259099021852a060ffb133f9105e8da07d80258425e536e423a6c1c3e1104af39347aa48f55a756c969a3764626245b2",
      "networkId": 0,
      "chainId": 0
    }
  ]
}