{
  "hash": "0x9e6b0a7b4990e5c4a41461525f622863ad4a3d3fb4b25daf93cd7982278fc0f9",
  "parentHash": "0x37b2d89c90d39c400167b0d5d0bf1a5633524211411259b2ec65f430a358a146",
  "number": 62309,
  "timestamp": 1439186564,
  "nonce": "0x8bdc162a534646d9",
  "difficulty": 1772867850911,
  "gasLimit": {
    "_hex": "0x2fefd8"
  },
  "gasUsed": {
    "_hex": "0x5208"
  },
  "miner": "0x6BB048244aC4f934163a15b7a472Ce7B48fC9F32",
  "extraData": "0x476574682f76312e302e312d37666266393930632f6c696e75782f676f312e34",
  "transactions": [
    {
      "hash": "0x47eb09c6b713da202232b6cc59c0f1e22c1c4c85b3fe1179d014adc15241c5f5",
      "blockHash": "0x9e6b0a7b4990e5c4a41461525f622863ad4a3d3fb4b25daf93cd7982278fc0f9",
      "blockNumber": 62309,
      "transactionIndex": 0,
      "confirmations": null,
      "from": "0x2910543Af39abA0Cd09dBb2D50200b3E800A63D2",
      "gasPrice": {
        "_hex": "0xd9786b572"
      },
      "gasLimit": {
        "_hex": "0x5208"
      },
      "to": "0xc3C487657F4DAB75565F06A3cdca1C2746b13C1b",
      "value": {
        "_hex": "0x1bc0512fbb49f8000"
      },
      "nonce": 110,
      "data": "0x",
      "r": "0x544bfdab4fc653ef93f31fe746832a146e1f782bd0da54e075548c7e800c14c5",
      "s": "0x4678b1b7ca12bb4959032d0ac1c99f2e5a5465a6efa54a37ae1f41269db5ced3",
      "v": 28,
      "creates": null,
      "raw": "0xf86d6e850d9786b57282520894c3c487657f4dab75565f06a3cdca1c2746b13c1b8901bc0512fbb49f8000801ca0544bfdab4fc653ef93f31fe746832a146e1f782bd0da54e075548c7e800c14c5a04678b1b7ca12bb4959032d0ac1c99f2e5a5465a6efa54a37ae1f41269db5ced3",
      "networkId": 0,
      "chainId": 0
    }
  ]
}