{
  "hash": "0x880e481ca2932019f69e87c9d3c310aa0e860816a63f1f11618356d9ea64ae17",
  "parentHash": "0x3e12b3e55a47b0d43af719072f7403436dddaeff5ae5b4032af572da62ae278a",
  "number": 69800,
  "timestamp": 1439309754,
  "nonce": "0x2aa520f4185537f4",
  "difficulty": 2102426650675,
  "gasLimit": {
    "_hex": "0x2fefd8"
  },
  "gasUsed": {
    "_hex": "0x5208"
  },
  "miner": "0xe6A7a1d47ff21B6321162AEA7C6CB457D5476Bca",
  "extraData": "0x476574682f76312e302e312d38326566323666362f6c696e75782f676f312e34",
  "transactions": [
    {
      "hash": "0x2e72a8162db5fa86019e56ae17024888a6d2761d4a964eb409587958a7db9730",
      "blockHash": "0x880e481ca2932019f69e87c9d3c310aa0e860816a63f1f11618356d9ea64ae17",
      "blockNumber": 69800,
      "transactionIndex": 0,
      "confirmations": null,
      "from": "0x1a79c7f4039C67A39d7513884cDC0E2C34222490",
      "gasPrice": {
        "_hex": "0xd829211eb"
      },
      "gasLimit": {
        "_hex": "0x15f90"
      },
      "to": "0x99425213944D7885b88Ec9D20D974B7Ac89D62E2",
      "value": {
        "_hex": "0x410d586a20a4c0000"
      },
      "nonce": 12,
      "data": "0x",
      "r": "0x0883bd9f85acf77345029737a86f2d8455b12b74abcf5001652301f903b1f186",
      "s": "0x06665606318517226cee080cef66b1cbf843e4cbf0dd4f32046cc5497aa38562",
      "v": 28,
      "creates": null,
      "raw": "0xf86e0c850d829211eb83015f909499425213944d7885b88ec9d20d974b7ac89d62e2890410d586a20a4c0000801ca00883bd9f85acf77345029737a86f2d8455b12b74abcf5001652301f903b1f186a006665606318517226cee080cef66b1cbf843e4cbf0dd4f32046cc5497aa38562",
      "networkId": 0,
      "chainId": 0
    }
  ]
}