{
  "hash": "0xf36e129c814ec4d2ebbba0f9bf6e35396048583f7133cf4b5720bd38d89f2f92",
  "parentHash": "0x47e54d5581ab1d52acad7331d005afc9df14935d4d6b517f44c541c07064e67d",
  "number": 104255,
  "timestamp": 1439866804,
  "nonce": "0x93ac21ba99f1a541",
  "difficulty": 4277378809195,
  "gasLimit": {
    "_hex": "0x2fefd8"
  },
  "gasUsed": {
    "_hex": "0x5208"
  },
  "miner": "0xe6A7a1d47ff21B6321162AEA7C6CB457D5476Bca",
  "extraData": "0x476574682f76312e302e312d38326566323666362f6c696e75782f676f312e34",
  "transactions": [
    {
      "hash": "0x530a3f962a73fd70955c04ac5c22a763118045a93f1944f336d5dbf4e4066b94",
      "blockHash": "0xf36e129c814ec4d2ebbba0f9bf6e35396048583f7133cf4b5720bd38d89f2f92",
      "blockNumber": 104255,
      "transactionIndex": 0,
      "confirmations": null,
      "from": "0x4A2D52D0898f560E53cdf4585A034517c06d0544",
      "gasPrice": {
        "_hex": "0xba43b7400"
      },
      "gasLimit": {
        "_hex": "0x5208"
      },
      "to": "0xC47Aaa860008be6f65B58c6C6E02a84e666EfE31",
      "value": {
        "_hex": "0x2b03400548b6d8f0"
      },
      "nonce": 1,
      "data": "0x",
      "r": "0xedbc89faa804acdd2c3e8913fd5401af1ff2b238ab60a0f116fb7f398f451ade",
      "s": "0x7ff2b8b960e112332287e06b863a0446eff555f19fafb31f0f52c6e7b59d64ff",
      "v": 27,
      "creates": null,
      "raw": "0xf86c01850ba43b740082520894c47aaa860008be6f65b58c6c6e02a84e666efe31882b03400548b6d8f0801ba0edbc89faa804acdd2c3e8913fd5401af1ff2b238ab60a0f116fb7f398f451adea07ff2b8b960e112332287e06b863a0446eff555f19fafb31f0f52c6e7b59d64ff",
      "networkId": 0,
      "chainId": 0
    }
  ]
}