{
  "hash": "0x338c7cec75fdbae65a6e0dbf5ab9e01328dda71baa746fd90d12563ebddf6280",
  "parentHash": "0x6e893aa123c98294ab0e468f8397d7d792b50122f6cffa68a30fbe82a1328bf0",
  "number": 59495,
  "timestamp": 1439139143,
  "nonce": "0xce44c396cc1c8c9d",
  "difficulty": 1698873172759,
  "gasLimit": {
    "_hex": "0x2fefd8"
  },
  "gasUsed": {
    "_hex": "0x5208"
  },
  "miner": "0x3222BA3F3e79eA0e31467EEE7639B57923558cCD",
  "extraData": "0x",
  "transactions": [
    {
      "hash": "0x24890d7562c2420f2e24d84d7c955d5ab6422ff0b2cefa92e455347dda5cdd2b",
      "blockHash": "0x338c7cec75fdbae65a6e0dbf5ab9e01328dda71baa746fd90d12563ebddf6280",
      "blockNumber": 59495,
      "transactionIndex": 0,
      "confirmations": null,
      "from": "0x400fb5A6482E54E44b2250E75251707514c605C1",
      "gasPrice": {
        "_hex": "0xd984019be"
      },
      "gasLimit": {
        "_hex": "0x5208"
      },
      "to": "0x931Ac2444b057f80A06A4FB627f26FFA5CE41184",
      "value": {
        "_hex": "0x393ef1a5127c80000"
      },
      "nonce": 0,
      "data": "0x",
      "r": "0x55c0052f4a59f4eaf06963c2c466930325d80d15872bdb0b02a0be08365fd59b",
      "s": "0x114044c08c25ee4836c71e9c778817397051b050fecd6dc0da7b24feb0ab4d14",
      "v": 27,
      "creates": null,
      "raw": "0xf86d80850d984019be82520894931ac2444b057f80a06a4fb627f26ffa5ce41184890393ef1a5127c80000801ba055c0052f4a59f4eaf06963c2c466930325d80d15872bdb0b02a0be08365fd59ba0114044c08c25ee4836c71e9c778817397051b050fecd6dc0da7b24feb0ab4d14",
      "networkId": 0,
      "chainId": 0
    }
  ]
}