{
  "hash": "0x89d52b2225b87bee2d85f52cedfb0d14fb33b08fa184809e57d2e7601d0e1c0c",
  "parentHash": "0xee96ac0eee6c2075b11845bc102de820c19f90c6ff1b6ce6839d03243e14f4f7",
  "number": 115357,
  "timestamp": 1440055862,
  "nonce": "0x5b5c15d4ead700e6",
  "difficulty": 4547224002807,
  "gasLimit": {
    "_hex": "0x2fefd8"
  },
  "gasUsed": {
    "_hex": "0xa410"
  },
  "miner": "0xa70a9a7040d542C632D8e0bE7c5513A8a5Bbc752",
  "extraData": "0x",
  "transactions": [
    {
      "hash": "0x8d9fb4c34fef5bccc8566687e6c552b9bad1f7d93b4dab2f524d344b3701751b",
      "blockHash": "0x89d52b2225b87bee2d85f52cedfb0d14fb33b08fa184809e57d2e7601d0e1c0c",
      "blockNumber": 115357,
      "transactionIndex": 0,
      "confirmations": null,
      "from": "0xb1abce2918E21ddb93AA452731a12672A3d9F75a",
      "gasPrice": {
        "_hex": "0xd5c9d8b5b"
      },
      "gasLimit": {
        "_hex": "0x5208"
      },
      "to": "0x32Be343B94f860124dC4fEe278FDCBD38C102D88",
      "value": {
        "_hex": "0x6658feeb8fa658000"
      },
      "nonce": 184,
      "data": "0x",
      "r": "0xb131b8f32faeb3b6b40e11edb0aace98fcda24739977a8afa2d62efba6f9d61f",
      "s": "0x43b5daff0df38d39ac1ff73ee79a243aba0419cf8d0a0c596c98debfd5a94db6",
      "v": 27,
      "creates": null,
      "raw": "0xf86e81b8850d5c9d8b5b8252089432be343b94f860124dc4fee278fdcbd38c102d888906658feeb8fa658000801ba0b131b8f32faeb3b6b40e11edb0aace98fcda24739977a8afa2d62efba6f9d61fa043b5daff0df38d39ac1ff73ee79a243aba0419cf8d0a0c596c98debfd5a94db6",
      "networkId": 0,
      "chainId": 0
    },
    {
      "hash": "0x3a538e1ef28841006184510129c4a35c79776f7e8cfb5992083a3c02b6ae27ce",
      "blockHash": "0x89d52b2225b87bee2d85f52cedfb0d14fb33b08fa184809e57d2e7601d0e1c0c",
      "blockNumber": 115357,
      "transactionIndex": 1,
      "confirmations": null,
      "from": "0xdc41BFACFAaF8B0F0949aB5A3f18f47063Ae62fB",
      "gasPrice": {
        "_hex": "0xd5c9d8b5b"
      },
      "gasLimit": {
        "_hex": "0x5208"
      },
      "to": "0x32Be343B94f860124dC4fEe278FDCBD38C102D88",
      "value": {
        "_hex": "0x22293bdde97114000"
      },
      "nonce": 9,
      "data": "0x",
      "r": "0x766e66494aa6291faa9f9a50ad94f30c9c66af312f7c3e4612f6c03d91da4455",
      "s": "0x05e1d99eb0520e5021e5926bc318c4ebb93224f83294732acef60c2080a97df3",
      "v": 28,
      "creates": null,
      "raw": "0xf86d09850d5c9d8b5b8252089432be343b94f860124dc4fee278fdcbd38c102d8889022293bdde97114000801ca0766e66494aa6291faa9f9a50ad94f30c9c66af312f7c3e4612f6c03d91da4455a005e1d99eb0520e5021e5926bc318c4ebb93224f83294732acef60c2080a97df3",
      "networkId": 0,
      "chainId": 0
    }
  ]
}