{
  "hash": "0x7080ee81f67a3c50f3a5f63e2b8144277f7f70e8bf247e4d447bd3ae107b720d",
  "parentHash": "0x856d2d04ce70a53eedc0cdcdf54172f5c48fbace510b0b60e4bda4d527bfa389",
  "number": 101020,
  "timestamp": 1439816151,
  "nonce": "0x5f9257ed63e2a624",
  "difficulty": 3863893087081,
  "gasLimit": {
    "_hex": "0x2fefd8"
  },
  "gasUsed": {
    "_hex": "0x5208"
  },
  "miner": "0xe6A7a1d47ff21B6321162AEA7C6CB457D5476Bca",
  "extraData": "0x476574682f76312e302e312d38326566323666362f6c696e75782f676f312e34",
  "transactions": [
    {
      "hash": "0x18f43c8877ef5c5f431e5ad8c2fcf35b70038110b174dc378475764abf2c1321",
      "blockHash": "0x7080ee81f67a3c50f3a5f63e2b8144277f7f70e8bf247e4d447bd3ae107b720d",
      "blockNumber": 101020,
      "transactionIndex": 0,
      "confirmations": null,
      "from": "0x32Be343B94f860124dC4fEe278FDCBD38C102D88",
      "gasPrice": {
        "_hex": "0xe1068c87d"
      },
      "gasLimit": {
        "_hex": "0x5208"
      },
      "to": "0x80bA7fe0Fc041a04C13C6Fdc9616aEd480A8782B",
      "value": {
        "_hex": "0x1a055690d9db80000"
      },
      "nonce": 1071,
      "data": "0x",
      "r": "0xea2e90e6511ecc153625c0898d7144e98541e90574b041e0fa6063735c8292e1",
      "s": "0x1011e70e486452271ef51bbd9211523415cadba79f5e06a0e261170aade5378e",
      "v": 28,
      "creates": null,
      "raw": "0xf86f82042f850e1068c87d8252089480ba7fe0fc041a04c13c6fdc9616aed480a8782b8901a055690d9db80000801ca0ea2e90e6511ecc153625c0898d7144e98541e90574b041e0fa6063735c8292e1a01011e70e486452271ef51bbd9211523415cadba79f5e06a0e261170aade5378e",
      "networkId": 0,
      "chainId": 0
    }
  ]
}