{
  "hash": "0xa7e691b12e382e20ed5192fcc517555912f62ae854518c5bb9e43e3f4872769e",
  "parentHash": "0x9a6d91f416ad4b579e3ccc3e2b661be76a876d485079e9e7b72467890935f740",
  "number": 100965,
  "timestamp": 1439815243,
  "nonce": "0x77731ed0fe5edab9",
  "difficulty": 3865805560581,
  "gasLimit": {
    "_hex": "0x2fefd8"
  },
  "gasUsed": {
    "_hex": "0x5208"
  },
  "miner": "0xa50ec0D39fa913E62f1Bae7074E6F36caA71855b",
  "extraData": "0xd783010001844765746887676f312e342e32856c696e7578",
  "transactions": [
    {
      "hash": "0xfc963ba8ac37066cdc9f9e2e90109f69b55bd62cd5a25a19b4347d582bf4f94f",
      "blockHash": "0xa7e691b12e382e20ed5192fcc517555912f62ae854518c5bb9e43e3f4872769e",
      "blockNumber": 100965,
      "transactionIndex": 0,
      "confirmations": null,
      "from": "0xcf00A85f3826941e7A25BFcF9Aac575d40410852",
      "gasPrice": {
        "_hex": "0xcb5bea614"
      },
      "gasLimit": {
        "_hex": "0x15f90"
      },
      "to": "0xD9666150A9dA92d9108198a4072970805a8B3428",
      "value": {
        "_hex": "0x4563918244f40000"
      },
      "nonce": 31,
      "data": "0x",
      "r": "0x1c9c29463975225b2c7deb4e8f35e5a31811fbb4714c8561d7a4c2687bd1afa8",
      "s": "0x0a4661849bc4248fa145f26ba8abc86e99e6572ae1c68d45e2aec3804d73adc3",
      "v": 27,
      "creates": null,
      "raw": "0xf86d1f850cb5bea61483015f9094d9666150a9da92d9108198a4072970805a8b3428884563918244f40000801ba01c9c29463975225b2c7deb4e8f35e5a31811fbb4714c8561d7a4c2687bd1afa8a00a4661849bc4248fa145f26ba8abc86e99e6572ae1c68d45e2aec3804d73adc3",
      "networkId": 0,
      "chainId": 0
    }
  ]
}