{
  "hash": "0xc1a263ca2048d58d7ded54381019f8a11146acf518f0e237e3a7e855c7bc8e5f",
  "parentHash": "0x2ad6e4c4506b73e85b023f1a226961cad37b8ae56912152d46ffe3b80d40cd1d",
  "number": 107931,
  "timestamp": 1439931112,
  "nonce": "0x072280ceccbdfe22",
  "difficulty": 4385452476505,
  "gasLimit": {
    "_hex": "0x2fefd8"
  },
  "gasUsed": {
    "_hex": "0xa410"
  },
  "miner": "0xe6A7a1d47ff21B6321162AEA7C6CB457D5476Bca",
  "extraData": "0x476574682f76312e302e312d38326566323666362f6c696e75782f676f312e34",
  "transactions": [
    {
      "hash": "0x7b0ef8a97e5fbeac6fbe4c6dc40543d833178da3b225e3eb42c8fc9a54630ad4",
      "blockHash": "0xc1a263ca2048d58d7ded54381019f8a11146acf518f0e237e3a7e855c7bc8e5f",
      "blockNumber": 107931,
      "transactionIndex": 0,
      "confirmations": null,
      "from": "0x6BED894B45159c6001dfbC5bd6257A10B9eF2202",
      "gasPrice": {
        "_hex": "0xd03726085"
      },
      "gasLimit": {
        "_hex": "0x15f90"
      },
      "to": "0xC4Cefd8e233244EE0b01B083a8a01D2cfca86910",
      "value": {
        "_hex": "0x38d7ea4c68000"
      },
      "nonce": 9,
      "data": "0x",
      "r": "0x260610cfa6a1e890ac1796bca2c450487ef93447c75cc3488250c12a2a8f1db8",
      "s": "0x1c8a33e2b15afdd0b0282bd20ca6689ffe36f5ae2c1c074b13936bf7de54ebb4",
      "v": 27,
      "creates": null,
      "raw": "0xf86c09850d0372608583015f9094c4cefd8e233244ee0b01b083a8a01d2cfca8691087038d7ea4c68000801ba0260610cfa6a1e890ac1796bca2c450487ef93447c75cc3488250c12a2a8f1db8a01c8a33e2b15afdd0b0282bd20ca6689ffe36f5ae2c1c074b13936bf7de54ebb4",
      "networkId": 0,
      "chainId": 0
    },
    {
      "hash": "0x141b4095312064970290f2de5c1aa6ac0819300badcb184c86acf897d5bbb328",
      "blockHash": "0xc1a263ca2048d58d7ded54381019f8a11146acf518f0e237e3a7e855c7bc8e5f",
      "blockNumber": 107931,
      "transactionIndex": 1,
      "confirmations": null,
      "from": "0x431FDD9f2Fdc4A532867E0e0a85463436807d17C",
      "gasPrice": {
        "_hex": "0xcafe57223"
      },
      "gasLimit": {
        "_hex": "0x5208"
      },
      "to": "0x32Be343B94f860124dC4fEe278FDCBD38C102D88",
      "value": {
        "_hex": "0x3635c5a6dc55c60000"
      },
      "nonce": 4,
      "data": "0x",
      "r": "0xa0203fc6504fcc909af2273fc32aae7b3cbfeda9556736cc3291826aaa97456a",
      "s": "0x24ac32df587f20a6902cc83420b9eff94e1b5fea4fc4cef419afe034e80ff8d3",
      "v": 28,
      "creates": null,
      "raw": "0xf86d04850cafe572238252089432be343b94f860124dc4fee278fdcbd38c102d88893635c5a6dc55c60000801ca0a0203fc6504fcc909af2273fc32aae7b3cbfeda9556736cc3291826aaa97456aa024ac32df587f20a6902cc83420b9eff94e1b5fea4fc4cef419afe034e80ff8d3",
      "networkId": 0,
      "chainId": 0
    }
  ]
}