{
  "hash": "0xb0150817882cee002cbd860c4a8f0eb5e1197c0316186108021864951b8fd18d",
  "parentHash": "0xa8958c6d11289625b494f6ed7ce0b0f7ff3c68c65736b56fd1c4bd71481eb771",
  "number": 64411,
  "timestamp": 1439220269,
  "nonce": "0x1c6cc7c05ab42038",
  "difficulty": 1872052488711,
  "gasLimit": {
    "_hex": "0x2fefd8"
  },
  "gasUsed": {
    "_hex": "0x5208"
  },
  "miner": "0xf927a40C8B7F6E07c5af7FA2155B4864a4112B13",
  "extraData": "0x",
  "transactions": [
    {
      "hash": "0x43f727a30e1c87b71d0c0df03779da61e13f5abff90986afecf3b566f0009bc6",
      "blockHash": "0xb0150817882cee002cbd860c4a8f0eb5e1197c0316186108021864951b8fd18d",
      "blockNumber": 64411,
      "transactionIndex": 0,
      "confirmations": null,
      "from": "0x120A270bbC009644e35F0bB6ab13f95b8199c4ad",
      "gasPrice": {
        "_hex": "0xcc0f01302"
      },
      "gasLimit": {
        "_hex": "0x15f90"
      },
      "to": "0x8AAcA7c86A96D7E1B362E33F6BcBbC5e8B90cC14",
      "value": {
        "_hex": "0x410d586a20a4c00000"
      },
      "nonce": 112,
      "data": "0x",
      "r": "0x1ba72a437e9e2625aa622137a2a64e300a23522d165c33d27ba2d747b6c75c3d",
      "s": "0x64b3ce33f160dbb8b1e80c396df2d72970cc63a06f1413e9d12473258ac0f134",
      "v": 28,
      "creates": null,
      "raw": "0xf86e70850cc0f0130283015f90948aaca7c86a96d7e1b362e33f6bcbbc5e8b90cc1489410d586a20a4c00000801ca01ba72a437e9e2625aa622137a2a64e300a23522d165c33d27ba2d747b6c75c3da064b3ce33f160dbb8b1e80c396df2d72970cc63a06f1413e9d12473258ac0f134",
      "networkId": 0,
      "chainId": 0
    }
  ]
}