{
  "hash": "0xcfc49471f5e73172f1f34ce70da9777db0969905588c359b7cb424014b87997d",
  "parentHash": "0x7724056f9a728039aa937346055b3fe6a77b93f3d5d74da4299efdf463f6289f",
  "number": 59341,
  "timestamp": 1439136514,
  "nonce": "0x83f0342ddcda7c58",
  "difficulty": 1703888918657,
  "gasLimit": {
    "_hex": "0x2fefd8"
  },
  "gasUsed": {
    "_hex": "0x5208"
  },
  "miner": "0x3f4B5a1545e3F3e6DE114Df82e18C4b8AECbF16c",
  "extraData": "0x476574682f76312e302e312d37636161613863332f6c696e75782f676f312e34",
  "transactions": [
    {
      "hash": "0x1ce957066f7c0d4be1324c7456f5fefc66bd6ed850917498409fc7d721726102",
      "blockHash": "0xcfc49471f5e73172f1f34ce70da9777db0969905588c359b7cb424014b87997d",
      "blockNumber": 59341,
      "transactionIndex": 0,
      "confirmations": null,
      "from": "0xeC210EC3715d5918B37CFa4D344a45d177eD849f",
      "gasPrice": {
        "_hex": "0xcb883293f"
      },
      "gasLimit": {
        "_hex": "0x5208"
      },
      "to": "0x32Be343B94f860124dC4fEe278FDCBD38C102D88",
      "value": {
        "_hex": "0x36a48e2b648790000"
      },
      "nonce": 2,
      "data": "0x",
      "r": "0x2aa17017476d6ee8825b6dbba457bcf90c0dd18efd02abc73fbd390a100518e7",
      "s": "0x3a68fd6aa2f425bd57307485426b93f4fc0a972ff864b3fe97b8ac8ef4e29ed0",
      "v": 27,
      "creates": null,
      "raw": "0xf86d02850cb883293f8252089432be343b94f860124dc4fee278fdcbd38c102d8889036a48e2b648790000801ba02aa17017476d6ee8825b6dbba457bcf90c0dd18efd02abc73fbd390a100518e7a03a68fd6aa2f425bd57307485426b93f4fc0a972ff864b3fe97b8ac8ef4e29ed0",
      "networkId": 0,
      "chainId": 0
    }
  ]
}