{
  "hash": "0xa1e86ddf55119359ba2aeffa067b0d109562cf6b13a3f766a7e092fa7e9fe48a",
  "parentHash": "0xd370311da50591ae9f913a4fd533d71040762f69886d8f1d35c7ada0b9954143",
  "number": 83874,
  "timestamp": 1439542072,
  "nonce": "0x0b33791150eb7a21",
  "difficulty": 2461064977275,
  "gasLimit": {
    "_hex": "0x2fefd8"
  },
  "gasUsed": {
    "_hex": "0x5208"
  },
  "miner": "0x8B454d830feF179e66206840F8F3D1d83bC32b17",
  "extraData": "0x476574682f76312e302e312f77696e646f77732f676f312e342e32",
  "transactions": [
    {
      "hash": "0x0d7ec72ad0e38eda811a9b3e4a9e51fd52b77fbf7df90a6c7d0d6d3111959a14",
      "blockHash": "0xa1e86ddf55119359ba2aeffa067b0d109562cf6b13a3f766a7e092fa7e9fe48a",
      "blockNumber": 83874,
      "transactionIndex": 0,
      "confirmations": null,
      "from": "0xcd0Af3474e22F069EC3407870DD770443d5b12B0",
      "gasPrice": {
        "_hex": "0xd8473895d"
      },
      "gasLimit": {
        "_hex": "0x7a120"
      },
      "to": "0x0bCa038BF4ACAd3Cbf73463EccC7717dDCDc3D83",
      "value": {
        "_hex": "0x56bc75e2d63100000"
      },
      "nonce": 12,
      "data": "0x",
      "r": "0x5ad0d82d712ad115cb2a862a265dc24b9a6adb14c40353a6c55a4d5fba5ef3b0",
      "s": "0x6845dc55ed2f674b50ad5fab000831362ab2d56b7f8293fee48f1b8f80b3e21a",
      "v": 27,
      "creates": null,
      "raw": "0xf86e0c850d8473895d8307a120940bca038bf4acad3cbf73463eccc7717ddcdc3d8389056bc75e2d63100000801ba05ad0d82d712ad115cb2a862a265dc24b9a6adb14c40353a6c55a4d5fba5ef3b0a06845dc55ed2f674b50ad5fab000831362ab2d56b7f8293fee48f1b8f80b3e21a",
      "networkId": 0,
      "chainId": 0
    }
  ]
}