{
  "hash": "0xa699819424ffc39ca3a02b5080a978200a4ad46f94cdca1355e4ac740a8cb7f4",
  "parentHash": "0xb7f8e4f9309eb92ad241385b706489ad11d0e5b62501566002f05c6504780a78",
  "number": 86337,
  "timestamp": 1439576842,
  "nonce": "0x7adb914bc32e5cba",
  "difficulty": 2863818980882,
  "gasLimit": {
    "_hex": "0x2fefd8"
  },
  "gasUsed": {
    "_hex": "0x5208"
  },
  "miner": "0x790b8a3cE86E707ED0eD32bF89B3269692a23CC1",
  "extraData": "0xd783010001844765746887676f312e342e32856c696e7578",
  "transactions": [
    {
      "hash": "0x343cc09c7c1e681fb88e211bf3e841e678e05a4a5b5920ac4e2f11ddf394169d",
      "blockHash": "0xa699819424ffc39ca3a02b5080a978200a4ad46f94cdca1355e4ac740a8cb7f4",
      "blockNumber": 86337,
      "transactionIndex": 0,
      "confirmations": null,
      "from": "0x09D6b0F8DE057aC9116C0f321eA4017444de0801",
      "gasPrice": {
        "_hex": "0xcd59b71ca"
      },
      "gasLimit": {
        "_hex": "0x5208"
      },
      "to": "0x32Be343B94f860124dC4fEe278FDCBD38C102D88",
      "value": {
        "_hex": "0x3635b3cd7a3a000000"
      },
      "nonce": 1,
      "data": "0x",
      "r": "0x2e7f6be629482b7b6510fd552364caf6747ee33c98b7b965a5da80c06a0701e6",
      "s": "0x200fd16a43513f052c0f29cb8abc3c8cca19c0bebb6f7010c2a5cefa9ba867bc",
      "v": 27,
      "creates": null,
      "raw": "0xf86d01850cd59b71ca8252089432be343b94f860124dc4fee278fdcbd38c102d88893635b3cd7a3a000000801ba02e7f6be629482b7b6510fd552364caf6747ee33c98b7b965a5da80c06a0701e6a0200fd16a43513f052c0f29cb8abc3c8cca19c0bebb6f7010c2a5cefa9ba867bc",
      "networkId": 0,
      "chainId": 0
    }
  ]
}