{
  "hash": "0xbb2503726bd7f4de3c27b494b5966fd18f38cd884d71d0ecc6d8399f0daffb40",
  "parentHash": "0x97d42db0012a594dfc079bca016fe0d3465616bdba3bef413a865d73ededaa03",
  "number": 79171,
  "timestamp": 1439465721,
  "nonce": "0x3cee37e35149e461",
  "difficulty": 2309867044558,
  "gasLimit": {
    "_hex": "0x2fefd8"
  },
  "gasUsed": {
    "_hex": "0x5208"
  },
  "miner": "0x88D74a59454F6cF3B51ef6b9136AFb6b9D405A88",
  "extraData": "0x476574682f76312e302e312d37666266393930632f6c696e75782f676f312e34",
  "transactions": [
    {
      "hash": "0x5c4f73bbee38e44a15eaf26cd9999fb9d454b9aa13023e5a83008dbe7fa9a2ca",
      "blockHash": "0xbb2503726bd7f4de3c27b494b5966fd18f38cd884d71d0ecc6d8399f0daffb40",
      "blockNumber": 79171,
      "transactionIndex": 0,
      "confirmations": null,
      "from": "0x120A270bbC009644e35F0bB6ab13f95b8199c4ad",
      "gasPrice": {
        "_hex": "0xd473b4f51"
      },
      "gasLimit": {
        "_hex": "0x3d090"
      },
      "to": "0xEAbb11145f81CfBBdb8a8B5d0eEb4C7E0b56A3F8",
      "value": {
        "_hex": "0x24faacb44c93303800"
      },
      "nonce": 333,
      "data": "0x",
      "r": "0xc8193d76570bae244701664f10f97662034338ead677ed6d070e849da5f24d12",
      "s": "0x76c85f424ea26f5d313eb8a8b2c4b96c4940f7d0fe498c915440e90c200e6ff4",
      "v": 28,
      "creates": null,
      "raw": "0xf87082014d850d473b4f518303d09094eabb11145f81cfbbdb8a8b5d0eeb4c7e0b56a3f88924faacb44c93303800801ca0c8193d76570bae244701664f10f97662034338ead677ed6d070e849da5f24d12a076c85f424ea26f5d313eb8a8b2c4b96c4940f7d0fe498c915440e90c200e6ff4",
      "networkId": 0,
      "chainId": 0
    }
  ]
}