{
  "hash": "0x0b01b70e67cb0659af8e0b76a37f12c08918f052e5b29a48efc032035cdd7a3a",
  "parentHash": "0xd95aac68bdf9509e96b7f84f6f66c72594ab37f16d85be86947beedc93f5bd58",
  "number": 92500,
  "timestamp": 1439673049,
  "nonce": "0x85539b4c41655b5e",
  "difficulty": 3525130530167,
  "gasLimit": {
    "_hex": "0x2fefd8"
  },
  "gasUsed": {
    "_hex": "0x5208"
  },
  "miner": "0x9Fa9952255B2b06639A04D63804d4BdFFf6E2d7e",
  "extraData": "0x476574682f76312e302e312f77696e646f77732f676f312e342e32",
  "transactions": [
    {
      "hash": "0x3935e403143fff430258f5e37104c56587d2fd6974ae589b5ea3773a33c9497c",
      "blockHash": "0x0b01b70e67cb0659af8e0b76a37f12c08918f052e5b29a48efc032035cdd7a3a",
      "blockNumber": 92500,
      "transactionIndex": 0,
      "confirmations": null,
      "from": "0x06402aC4416476Bf55199D9c7BE67C387bb6773c",
      "gasPrice": {
        "_hex": "0xd585f9a82"
      },
      "gasLimit": {
        "_hex": "0x5208"
      },
      "to": "0x32Be343B94f860124dC4fEe278FDCBD38C102D88",
      "value": {
        "_hex": "0xa96815fa9ea38800000"
      },
      "nonce": 0,
      "data": "0x",
      "r": "0x4b0a0fdd6d98396543fa5091f81fc422b526c5592df9bc47f5e18cf78a2df1c7",
      "s": "0x54a56d9af6fd669c7b1b2aa235fa11e427b8bea121e8bf60ec08e5e1557d7e8f",
      "v": 27,
      "creates": null,
      "raw": "0xf86e80850d585f9a828252089432be343b94f860124dc4fee278fdcbd38c102d888a0a96815fa9ea38800000801ba04b0a0fdd6d98396543fa5091f81fc422b526c5592df9bc47f5e18cf78a2df1c7a054a56d9af6fd669c7b1b2aa235fa11e427b8bea121e8bf60ec08e5e1557d7e8f",
      "networkId": 0,
      "chainId": 0
    }
  ]
}