{
  "hash": "0xc7e6738277354d82421c8430929c8566c4cac80ce8b2c15512dd226b1f47f146",
  "parentHash": "0xe0c42f5012a112261e22f2e1bee8c06e07928beed90089aed5c6ee0cacad2072",
  "number": 49099,
  "timestamp": 1438968015,
  "nonce": "0xb403ecd95773b9e0",
  "difficulty": 1479280828688,
  "gasLimit": {
    "_hex": "0x25d35"
  },
  "gasUsed": {
    "_hex": "0x546c"
  },
  "miner": "0xa31e9119dE51AcC81d26C5c97b7374e1478584F3",
  "extraData": "0x476574682f76312e302e302f6c696e75782f676f312e342e32",
  "transactions": [
    {
      "hash": "0xfa73feae5798f97ad1f2c01fa70424f90f2f4fa81d6fe9698bc4db2690b635fe",
      "blockHash": "0xc7e6738277354d82421c8430929c8566c4cac80ce8b2c15512dd226b1f47f146",
      "blockNumber": 49099,
      "transactionIndex": 0,
      "confirmations": null,
      "from": "0xddBd2B932c763bA5b1b7AE3B362eac3e8d40121A",
      "gasPrice": {
        "_hex": "0x746a528800"
      },
      "gasLimit": {
        "_hex": "0x59d8"
      },
      "to": "0x2910543Af39abA0Cd09dBb2D50200b3E800A63D2",
      "value": {
        "_hex": "0x4563918244f40000"
      },
      "nonce": 2,
      "data": "0x454e34354139455138",
      "r": "0x816a2f11d3b45191142a3b85564de3486dd2f6cc7ba44d01015f22a0f9ee38eb",
      "s": "0x5dc8054b92cd6064880ba54586df95422382e6470ff1c4785005b519aea429eb",
      "v": 28,
      "creates": null,
      "raw": "0xf8750285746a5288008259d8942910543af39aba0cd09dbb2d50200b3e800a63d2884563918244f4000089454e343541394551381ca0816a2f11d3b45191142a3b85564de3486dd2f6cc7ba44d01015f22a0f9ee38eba05dc8054b92cd6064880ba54586df95422382e6470ff1c4785005b519aea429eb",
      "networkId": 0,
      "chainId": 0
    }
  ]
}