{
  "hash": "0xb9828700768cf740629b1e7afe882b4b30ebc0a08c485800adc5b05aa8ecac71",
  "parentHash": "0x7af8297ee109493b88af7e298035f3702ed97faf8320c672f807b52d807d794d",
  "number": 46660,
  "timestamp": 1438927035,
  "nonce": "0x5d59c869e4df2b29",
  "difficulty": 1457481687266,
  "gasLimit": {
    "_hex": "0x6f2b"
  },
  "gasUsed": {
    "_hex": "0x5208"
  },
  "miner": "0x0eDEd3DA479d0beF8eeC92A76644D3f4E3C177f7",
  "extraData": "0x476574682f76312e302e312f6c696e75782f676f312e342e32",
  "transactions": [
    {
      "hash": "0xf5652204776e889042eed362423485b1bca756565f5470bf9f3aa3cba7aeccad",
      "blockHash": "0xb9828700768cf740629b1e7afe882b4b30ebc0a08c485800adc5b05aa8ecac71",
      "blockNumber": 46660,
      "transactionIndex": 0,
      "confirmations": null,
      "from": "0x821eB90994a2fBf94BdC3233910296f76F9BF6E7",
      "gasPrice": {
        "_hex": "0x45d964b800"
      },
      "gasLimit": {
        "_hex": "0x5208"
      },
      "to": "0x17f8255F73211f9129a7E93250e8B7DF5D7F752d",
      "value": {
        "_hex": "0x6c6b935b8bbd400000"
      },
      "nonce": 0,
      "data": "0x",
      "r": "0xd18dbb154416c38bbee454db9341aa68bd8f98f47bbe46504f8a1f386a08ef6d",
      "s": "0x6baadb452894f25de8e61e7554617f0726e0dcecfb7dfe9550ef6dd589ded612",
      "v": 28,
      "creates": null,
      "raw": "0xf86d808545d964b8008252089417f8255f73211f9129a7e93250e8b7df5d7f752d896c6b935b8bbd400000801ca0d18dbb154416c38bbee454db9341aa68bd8f98f47bbe46504f8a1f386a08ef6da06baadb452894f25de8e61e7554617f0726e0dcecfb7dfe9550ef6dd589ded612",
      "networkId": 0,
      "chainId": 0
    }
  ]
}