{
  "hash": "0x1e7008f4305df7e447e10e02a84988d7c300f5c271b1724c2b1307237f99ae2f",
  "parentHash": "0x608e2fc778b282f50706b8c6469585426e70bee35e1b27b90b18edce81c06da6",
  "number": 121409,
  "timestamp": 1440176733,
  "nonce": "0x7ef89a397a72f49a",
  "difficulty": 4399843260773,
  "gasLimit": {
    "_hex": "0x2fefd8"
  },
  "gasUsed": {
    "_hex": "0x5208"
  },
  "miner": "0x52bc44d5378309EE2abF1539BF71dE1b7d7bE3b5",
  "extraData": "0xd783010002844765746887676f312e342e32856c696e7578",
  "transactions": [
    {
      "hash": "0x53ff1d86712320a0b5a38ccbc90f9074ded8fa1468bfa30671ae27498eb4e30b",
      "blockHash": "0x1e7008f4305df7e447e10e02a84988d7c300f5c271b1724c2b1307237f99ae2f",
      "blockNumber": 121409,
      "transactionIndex": 0,
      "confirmations": null,
      "from": "0x84e408A4AFe356a0e3bad2d628afB8D28D7F78c5",
      "gasPrice": {
        "_hex": "0xba43b7400"
      },
      "gasLimit": {
        "_hex": "0x5208"
      },
      "to": "0x32Be343B94f860124dC4fEe278FDCBD38C102D88",
      "value": {
        "_hex": "0x6eca061a6ae6000"
      },
      "nonce": 0,
      "data": "0x",
      "r": "0x653dd069b3da37c5f6dda0c6ac2e601abd8a0b06c219aaf7bf2866699ed53c16",
      "s": "0x6a03861e3d900130e52dbc310e51304bdd7b4efc2df3c914ed82a212e0557ad3",
      "v": 27,
      "creates": null,
      "raw": "0xf86c80850ba43b74008252089432be343b94f860124dc4fee278fdcbd38c102d888806eca061a6ae6000801ba0653dd069b3da37c5f6dda0c6ac2e601abd8a0b06c219aaf7bf2866699ed53c16a06a03861e3d900130e52dbc310e51304bdd7b4efc2df3c914ed82a212e0557ad3",
      "networkId": 0,
      "chainId": 0
    }
  ]
}