{
  "hash": "0x3233f5370e49b73ebbce71bcce0b447bf1515575273c9e928304a2b8fbbe12cc",
  "parentHash": "0xfaf6f2f4512be2cb2038b344cd0862ede4e7c34095a0660157d1201eec75cd35",
  "number": 65436,
  "timestamp": 1439236926,
  "nonce": "0x20423d4d7cbb228a",
  "difficulty": 1951146476522,
  "gasLimit": {
    "_hex": "0x2fefd8"
  },
  "gasUsed": {
    "_hex": "0xa674"
  },
  "miner": "0x157c6f2431eB1a95797EE86F7d17b3c0FD47A247",
  "extraData": "0x476574682f76312e302e312f77696e646f77732f676f312e342e32",
  "transactions": [
    {
      "hash": "0xceee415ca233db575fe48827dc3e7cb1475e24b4b0e3802d7534891e2562e6b2",
      "blockHash": "0x3233f5370e49b73ebbce71bcce0b447bf1515575273c9e928304a2b8fbbe12cc",
      "blockNumber": 65436,
      "transactionIndex": 0,
      "confirmations": null,
      "from": "0x6FDdbd9BCA66E28765c2162c8433548c1052eD11",
      "gasPrice": {
        "_hex": "0xfea3296cfb"
      },
      "gasLimit": {
        "_hex": "0x55f0"
      },
      "to": "0x2910543Af39abA0Cd09dBb2D50200b3E800A63D2",
      "value": {
        "_hex": "0xde0b6b3a7640000"
      },
      "nonce": 0,
      "data": "0x454e384a4e31573638",
      "r": "0x6e39eeb05ac378d05d913b50214a28878d50a3aa4ee452cf6b6d9c4d1dc4b536",
      "s": "0x474a556927313096972d8fd62b53499e0488656155bb8477e893afb45e2e8860",
      "v": 28,
      "creates": null,
      "raw": "0xf8758085fea3296cfb8255f0942910543af39aba0cd09dbb2d50200b3e800a63d2880de0b6b3a764000089454e384a4e315736381ca06e39eeb05ac378d05d913b50214a28878d50a3aa4ee452cf6b6d9c4d1dc4b536a0474a556927313096972d8fd62b53499e0488656155bb8477e893afb45e2e8860",
      "networkId": 0,
      "chainId": 0
    },
    {
      "hash": "0xc46dc50293ee4562b485eb0027fce6605292cbd34d98fd3a8c74af44b2f3909f",
      "blockHash": "0x3233f5370e49b73ebbce71bcce0b447bf1515575273c9e928304a2b8fbbe12cc",
      "blockNumber": 65436,
      "transactionIndex": 1,
      "confirmations": null,
      "from": "0x120A270bbC009644e35F0bB6ab13f95b8199c4ad",
      "gasPrice": {
        "_hex": "0xd455e9240"
      },
      "gasLimit": {
        "_hex": "0x15f90"
      },
      "to": "0xD388D8671aC6EDb904D91c1585DEDbd6895b9EF8",
      "value": {
        "_hex": "0x11574399ecc51c000"
      },
      "nonce": 126,
      "data": "0x",
      "r": "0xc9096b4e8c106ff73f33510e5d5dadcf7b68039ba8f1e9e978a471e4488b88b0",
      "s": "0x552487845dfb564ac009a5ebb8cee00be77239420a82b14052d5c69980cc08c8",
      "v": 27,
      "creates": null,
      "raw": "0xf86e7e850d455e924083015f9094d388d8671ac6edb904d91c1585dedbd6895b9ef889011574399ecc51c000801ba0c9096b4e8c106ff73f33510e5d5dadcf7b68039ba8f1e9e978a471e4488b88b0a0552487845dfb564ac009a5ebb8cee00be77239420a82b14052d5c69980cc08c8",
      "networkId": 0,
      "chainId": 0
    }
  ]
}