{
  "hash": "0x107faa506d305ed3db1490e8648b3239a1c5805a54b54c1b0a18c3c39541d324",
  "parentHash": "0x0494b006681dae811e2bb27f23f4b4b91f6d17a7dbb395c1b75ca2eb43492277",
  "number": 52078,
  "timestamp": 1439015720,
  "nonce": "0x7a7c5ef699f654e1",
  "difficulty": 1564166769860,
  "gasLimit": {
    "_hex": "0x101812"
  },
  "gasUsed": {
    "_hex": "0xa410"
  },
  "miner": "0x8B454d830feF179e66206840F8F3D1d83bC32b17",
  "extraData": "0x476574682f76312e302e312f77696e646f77732f676f312e342e32",
  "transactions": [
    {
      "hash": "0x7da6611fba91b11770788278ad108296250abf31d68ca8705bd4f3ac53ee3193",
      "blockHash": "0x107faa506d305ed3db1490e8648b3239a1c5805a54b54c1b0a18c3c39541d324",
      "blockNumber": 52078,
      "transactionIndex": 0,
      "confirmations": null,
      "from": "0xB7A755cBC2Bb4D94e844A9b1D1ff53420d836478",
      "gasPrice": {
        "_hex": "0xe8d4a51000"
      },
      "gasLimit": {
        "_hex": "0x5b04"
      },
      "to": "0x0a7785F1310a78ed2a703C17083fC2C56EFaC179",
      "value": {
        "_hex": "0x16345785d8a0000"
      },
      "nonce": 0,
      "data": "0x",
      "r": "0x79ea5783aa4019e3f86f18f23e0f3f3c58da5f4610ca1045afdc0e844eeb991a",
      "s": "0x52269997201da0c720c3ab4c5365dbffdd7cc31dda0547acd7d9ecdfe5bb8519",
      "v": 27,
      "creates": null,
      "raw": "0xf86c8085e8d4a51000825b04940a7785f1310a78ed2a703c17083fc2c56efac17988016345785d8a0000801ba079ea5783aa4019e3f86f18f23e0f3f3c58da5f4610ca1045afdc0e844eeb991aa052269997201da0c720c3ab4c5365dbffdd7cc31dda0547acd7d9ecdfe5bb8519",
      "networkId": 0,
      "chainId": 0
    },
    {
      "hash": "0x881d884b5b0e3b3c4c764f9116a115eafbb2b1bb1edbf74d21c7c5a0a058cd27",
      "blockHash": "0x107faa506d305ed3db1490e8648b3239a1c5805a54b54c1b0a18c3c39541d324",
      "blockNumber": 52078,
      "transactionIndex": 1,
      "confirmations": null,
      "from": "0x9746c7e1ef2bd21FF3997fa467593a89cb852BD0",
      "gasPrice": {
        "_hex": "0xdf7b2e6b2"
      },
      "gasLimit": {
        "_hex": "0x5208"
      },
      "to": "0xEA81cA8638540cD9d4D73d060F2ceBf2241ffc3E",
      "value": {
        "_hex": "0x3627e8f712373c0000"
      },
      "nonce": 7,
      "data": "0x",
      "r": "0x655027c84a2d0937d1b8d9b4ad05531f83d1336cf3c35115730df84038e62f8b",
      "s": "0x31af454cf71a0b79e5931a48b9447acf43cb97e42c3a5ac07d9c9e8b865c299a",
      "v": 27,
      "creates": null,
      "raw": "0xf86d07850df7b2e6b282520894ea81ca8638540cd9d4d73d060f2cebf2241ffc3e893627e8f712373c0000801ba0655027c84a2d0937d1b8d9b4ad05531f83d1336cf3c35115730df84038e62f8ba031af454cf71a0b79e5931a48b9447acf43cb97e42c3a5ac07d9c9e8b865c299a",
      "networkId": 0,
      "chainId": 0
    }
  ]
}