{
  "hash": "0x821638dbf44a98afb8d9109a3bfe9ca2bd7071ff5964b9013a851cb1a4f2455b",
  "parentHash": "0x6e840efac36d2bd8de4fa676aed0f411e6085dcd7fdf49ec1b38faf33caa91e2",
  "number": 119611,
  "timestamp": 1440145950,
  "nonce": "0x006d658662225863",
  "difficulty": 4379350576453,
  "gasLimit": {
    "_hex": "0x2fefd8"
  },
  "gasUsed": {
    "_hex": "0xa410"
  },
  "miner": "0xe6A7a1d47ff21B6321162AEA7C6CB457D5476Bca",
  "extraData": "0xd783010002844765746887676f312e342e32856c696e7578",
  "transactions": [
    {
      "hash": "0x664a82f10cfd61a582543ba931503c76fc03e18efc2f949b333af715b634eaa0",
      "blockHash": "0x821638dbf44a98afb8d9109a3bfe9ca2bd7071ff5964b9013a851cb1a4f2455b",
      "blockNumber": 119611,
      "transactionIndex": 0,
      "confirmations": null,
      "from": "0x97A2b04809Fd7Dfa5C1d7B25e38Aad46964330F5",
      "gasPrice": {
        "_hex": "0xba43b7400"
      },
      "gasLimit": {
        "_hex": "0x15f90"
      },
      "to": "0xff8f61dC709E5782Dee998189520cb544177BB65",
      "value": {
        "_hex": "0x56d2aa3a5c09a0000"
      },
      "nonce": 5,
      "data": "0x",
      "r": "0xefca4f3ec62f77e6e491eed3338dc02440f80d94fcc2301c648c74e71c1ad598",
      "s": "0x772dbf53e7e43575c775d152e8e856043d58bb4f46da6a8e9188536c1716bbf3",
      "v": 28,
      "creates": null,
      "raw": "0xf86e05850ba43b740083015f9094ff8f61dc709e5782dee998189520cb544177bb6589056d2aa3a5c09a0000801ca0efca4f3ec62f77e6e491eed3338dc02440f80d94fcc2301c648c74e71c1ad598a0772dbf53e7e43575c775d152e8e856043d58bb4f46da6a8e9188536c1716bbf3",
      "networkId": 0,
      "chainId": 0
    },
    {
      "hash": "0xe06edfc4681f577df43858b0ffdc0af2d34d056bd184dc02946ab33df9f8ea5f",
      "blockHash": "0x821638dbf44a98afb8d9109a3bfe9ca2bd7071ff5964b9013a851cb1a4f2455b",
      "blockNumber": 119611,
      "transactionIndex": 1,
      "confirmations": null,
      "from": "0xde8B4cca204F866220e8e25817668Cd44a5fee88",
      "gasPrice": {
        "_hex": "0xba43b7400"
      },
      "gasLimit": {
        "_hex": "0x55f0"
      },
      "to": "0x931Ac2444b057f80A06A4FB627f26FFA5CE41184",
      "value": {
        "_hex": "0x1b64ba85466c7856a0"
      },
      "nonce": 0,
      "data": "0x",
      "r": "0xcb5f7b262e4fced0187a2c391ccc4db3da4ef2671cfe0623685f81c0f8a5a337",
      "s": "0x2354948266e3bd83ea192bf4e22cfd8e6acbaf7170adc5afc3aa21ab5193e4b2",
      "v": 28,
      "creates": null,
      "raw": "0xf86d80850ba43b74008255f094931ac2444b057f80a06a4fb627f26ffa5ce41184891b64ba85466c7856a0801ca0cb5f7b262e4fced0187a2c391ccc4db3da4ef2671cfe0623685f81c0f8a5a337a02354948266e3bd83ea192bf4e22cfd8e6acbaf7170adc5afc3aa21ab5193e4b2",
      "networkId": 0,
      "chainId": 0
    }
  ]
}