{
  "hash": "0x4b4594a33be7222ec10475a5d772babf309948076954e69ab86c259843cdbcd6",
  "parentHash": "0xf9b9f9d59710944fa169bb10db191575aca408c23aee66be058fadca8ceafb86",
  "number": 53986,
  "timestamp": 1439046797,
  "nonce": "0x96ac9ad198929329",
  "difficulty": 1608731741184,
  "gasLimit": {
    "_hex": "0x2fefd8"
  },
  "gasUsed": {
    "_hex": "0x7a120"
  },
  "miner": "0x911C819565DA29661e97381cbde506ACF7aabf65",
  "extraData": "0x",
  "transactions": [
    {
      "hash": "0xac77d2029b31e967d8adbcae236dbf2f8707e76a821c67ec31fbe14533dbf26c",
      "blockHash": "0x4b4594a33be7222ec10475a5d772babf309948076954e69ab86c259843cdbcd6",
      "blockNumber": 53986,
      "transactionIndex": 0,
      "confirmations": null,
      "from": "0x2d11763B4999FB3b61Ca8d19C8C77a743079f7bd",
      "gasPrice": {
        "_hex": "0xd70ceec0d"
      },
      "gasLimit": {
        "_hex": "0x7a120"
      },
      "to": "0xBAA54d6E90c3F4d7Ebec11bD180134C7eD8eBb52",
      "value": {
        "_hex": "0x16345785d8a0000"
      },
      "nonce": 0,
      "data": "0x",
      "r": "0x13fabae41d34858313bf6ead4ce3565e6a48c18245a6fef18f45444c042012c0",
      "s": "0x2945856b8a28bbdf6977533e6bbea1e31c7ac3473b9c88b12aa80213eed29fa0",
      "v": 27,
      "creates": null,
      "raw": "0xf86d80850d70ceec0d8307a12094baa54d6e90c3f4d7ebec11bd180134c7ed8ebb5288016345785d8a0000801ba013fabae41d34858313bf6ead4ce3565e6a48c18245a6fef18f45444c042012c0a02945856b8a28bbdf6977533e6bbea1e31c7ac3473b9c88b12aa80213eed29fa0",
      "networkId": 0,
      "chainId": 0
    }
  ]
}