{
  "hash": "0x339e9466c1f872c2174608ed617c9a53249e0c29d3bf261d14413866b69a8103",
  "parentHash": "0x9a2e7c756a13698d3f33b2545c1aa613e456056ad6720023deac1de5171a3764",
  "number": 87596,
  "timestamp": 1439594581,
  "nonce": "0x632d6ec0abfd6aa6",
  "difficulty": 3161754386637,
  "gasLimit": {
    "_hex": "0x2fefd8"
  },
  "gasUsed": {
    "_hex": "0x5208"
  },
  "miner": "0xe6A7a1d47ff21B6321162AEA7C6CB457D5476Bca",
  "extraData": "0x476574682f76312e302e312d38326566323666362f6c696e75782f676f312e34",
  "transactions": [
    {
      "hash": "0x56506384ab6d5b1dab455ccd636bafd6fe1e691c3bacf93acf4eabe3be8199d9",
      "blockHash": "0x339e9466c1f872c2174608ed617c9a53249e0c29d3bf261d14413866b69a8103",
      "blockNumber": 87596,
      "transactionIndex": 0,
      "confirmations": null,
      "from": "0x07BC2CC8eeDC01970700efC9c4Fb36735e98CD71",
      "gasPrice": {
        "_hex": "0xd7c362efb"
      },
      "gasLimit": {
        "_hex": "0x5208"
      },
      "to": "0x0fFecdF99016b9C74f1088c858B0A6b71992A471",
      "value": {
        "_hex": "0x363695196231a57540"
      },
      "nonce": 10,
      "data": "0x",
      "r": "0x481ca42b3199d13f3d9b31bc2339cb856a9a98bbe5251dc6686e2a931369aed0",
      "s": "0x2e305d524688f2a6624414ca9926e31195591f1a5765de82d1cc98490c8457db",
      "v": 28,
      "creates": null,
      "raw": "0xf86d0a850d7c362efb825208940ffecdf99016b9c74f1088c858b0a6b71992a47189363695196231a57540801ca0481ca42b3199d13f3d9b31bc2339cb856a9a98bbe5251dc6686e2a931369aed0a02e305d524688f2a6624414ca9926e31195591f1a5765de82d1cc98490c8457db",
      "networkId": 0,
      "chainId": 0
    }
  ]
}