{
  "hash": "0x2fe7e7c234434d98f9a5b90ea16874824dc6f213c2f4587bd964d148b68576ce",
  "parentHash": "0x3ed37ada8422de05835a1d80a3d8d9b776069dc206d164c170adb2911b98d7bf",
  "number": 115332,
  "timestamp": 1440055400,
  "nonce": "0x16594e090b6631bd",
  "difficulty": 4553903428692,
  "gasLimit": {
    "_hex": "0x2fefd8"
  },
  "gasUsed": {
    "_hex": "0xa410"
  },
  "miner": "0x0D2C9857E819cf1275eb59B49033343ccC35fe42",
  "extraData": "0x",
  "transactions": [
    {
      "hash": "0xd8f956ce78cef6e32a2ba38da9a54386e1c6eb6f2e1e37e06aff3f03b9f2eeeb",
      "blockHash": "0x2fe7e7c234434d98f9a5b90ea16874824dc6f213c2f4587bd964d148b68576ce",
      "blockNumber": 115332,
      "transactionIndex": 0,
      "confirmations": null,
      "from": "0x1E550f4ecF22cBCb73da4fc090FBf5a5c748b0F1",
      "gasPrice": {
        "_hex": "0xdfd68073d"
      },
      "gasLimit": {
        "_hex": "0x5208"
      },
      "to": "0x32Be343B94f860124dC4fEe278FDCBD38C102D88",
      "value": {
        "_hex": "0x863bf1b1a5b6d000"
      },
      "nonce": 8,
      "data": "0x",
      "r": "0xc0d2ca9f4d3601ea3a6f02e33f541d518b08e30a7b126fb37d122cd7b6796c8d",
      "s": "0x1aec89216dd9fa9860ab91ad2f1eacbaaa0bf304f92096c3eb134f1ad19bf452",
      "v": 27,
      "creates": null,
      "raw": "0xf86c08850dfd68073d8252089432be343b94f860124dc4fee278fdcbd38c102d8888863bf1b1a5b6d000801ba0c0d2ca9f4d3601ea3a6f02e33f541d518b08e30a7b126fb37d122cd7b6796c8da01aec89216dd9fa9860ab91ad2f1eacbaaa0bf304f92096c3eb134f1ad19bf452",
      "networkId": 0,
      "chainId": 0
    },
    {
      "hash": "0xddfdbc476d0d8ce519234d0bf29cb28d00b769245b3765c9f5fb385a59dc0c25",
      "blockHash": "0x2fe7e7c234434d98f9a5b90ea16874824dc6f213c2f4587bd964d148b68576ce",
      "blockNumber": 115332,
      "transactionIndex": 1,
      "confirmations": null,
      "from": "0x853Bff007d269E0526E871360d79d69D602770dc",
      "gasPrice": {
        "_hex": "0xdfd68073d"
      },
      "gasLimit": {
        "_hex": "0x5208"
      },
      "to": "0x32Be343B94f860124dC4fEe278FDCBD38C102D88",
      "value": {
        "_hex": "0x22a820f111378c000"
      },
      "nonce": 17,
      "data": "0x",
      "r": "0x4b1430057e46bd7c62df3c70a91a1ba31be29e56859cee308826356af3bd8e26",
      "s": "0x07fc5b6fbfe567182f4b17f827f1c8e843d61540ee40e73b22dcebb5549b191d",
      "v": 28,
      "creates": null,
      "raw": "0xf86d11850dfd68073d8252089432be343b94f860124dc4fee278fdcbd38c102d8889022a820f111378c000801ca04b1430057e46bd7c62df3c70a91a1ba31be29e56859cee308826356af3bd8e26a007fc5b6fbfe567182f4b17f827f1c8e843d61540ee40e73b22dcebb5549b191d",
      "networkId": 0,
      "chainId": 0
    }
  ]
}