{
  "hash": "0x4df4c2d1d4116cf417f105976b05cbb96dab50e79ecdda8a73832c35347d46bd",
  "parentHash": "0x770a8c2a61aa2a7c65bf1e2c2383dee920b962d1f7f1a9718d3bbf165250377e",
  "number": 63864,
  "timestamp": 1439211464,
  "nonce": "0x378cf38989fb1531",
  "difficulty": 1854886075799,
  "gasLimit": {
    "_hex": "0x2fefd5"
  },
  "gasUsed": {
    "_hex": "0x528f"
  },
  "miner": "0xee5379D0c1ca47327368027455074C26D9952628",
  "extraData": "0x476574682f76312e302e312d38326566323666362f6c696e75782f676f312e34",
  "transactions": [
    {
      "hash": "0x86f28d76369876be69bba530f8cf154e7a472873f0244500b495309947cff953",
      "blockHash": "0x4df4c2d1d4116cf417f105976b05cbb96dab50e79ecdda8a73832c35347d46bd",
      "blockNumber": 63864,
      "transactionIndex": 0,
      "confirmations": null,
      "from": "0xD9E6086071980fE3484b6BaABA07A10b47B046A6",
      "gasPrice": {
        "_hex": "0x111a9ef324b"
      },
      "gasLimit": {
        "_hex": "0x15f90"
      },
      "to": "0x125B606C67E8066Da65069652b656c19717745Fa",
      "value": {
        "_hex": "0x1aa535d3d0c0000"
      },
      "nonce": 6,
      "data": "0x",
      "r": "0x0d46352b7ec6c25b3192b95049e8dba3e44c76d0d2f309e3e3668701dd09b407",
      "s": "0x418041081a676fd753e7fc1a7d2fbe7cbd67aab4f106d1c9373c505b364754e0",
      "v": 27,
      "creates": null,
      "raw": "0xf86e06860111a9ef324b83015f9094125b606c67e8066da65069652b656c19717745fa8801aa535d3d0c0000801ba00d46352b7ec6c25b3192b95049e8dba3e44c76d0d2f309e3e3668701dd09b407a0418041081a676fd753e7fc1a7d2fbe7cbd67aab4f106d1c9373c505b364754e0",
      "networkId": 0,
      "chainId": 0
    }
  ]
}