{
  "hash": "0x367a3fecf49575d535ba1ebfe7f0873220c78d5de60822357eaacbf9bd6fd10c",
  "parentHash": "0x195577a12201faee53cc46090f33dd803a6a25ac25a9e9f1b5bbdb659a44610f",
  "number": 52471,
  "timestamp": 1439022063,
  "nonce": "0x8e11c30c284d4738",
  "difficulty": 1570982074762,
  "gasLimit": {
    "_hex": "0x142c3e"
  },
  "gasUsed": {
    "_hex": "0x546c"
  },
  "miner": "0x8f30e76a8Ddf9FaEf40fd58197421716764B72D8",
  "extraData": "0x476574682f76312e302e312f77696e646f77732f676f312e342e32",
  "transactions": [
    {
      "hash": "0x61462afe660985e07004005b9e5954111fed992c0ff0a4950e4a85d7bc6982ec",
      "blockHash": "0x367a3fecf49575d535ba1ebfe7f0873220c78d5de60822357eaacbf9bd6fd10c",
      "blockNumber": 52471,
      "transactionIndex": 0,
      "confirmations": null,
      "from": "0xD913f0771949753c4726ACAA2bD3619C5C20FF77",
      "gasPrice": {
        "_hex": "0xd9f451eec"
      },
      "gasLimit": {
        "_hex": "0x15f90"
      },
      "to": "0x2910543Af39abA0Cd09dBb2D50200b3E800A63D2",
      "value": {
        "_hex": "0x1b1ae4d6e2ef500000"
      },
      "nonce": 1,
      "data": "0x454e3139574a515047",
      "r": "0x50d7d5a5d39bf46bb0205405cf9465a231cf4b0703b49d7ff8ccb85193782299",
      "s": "0x4946f10c25bd6b8e962434a5e14cea5a1e25ea81d128d0a43ce6ce3beb8a2a70",
      "v": 28,
      "creates": null,
      "raw": "0xf87701850d9f451eec83015f90942910543af39aba0cd09dbb2d50200b3e800a63d2891b1ae4d6e2ef50000089454e3139574a5150471ca050d7d5a5d39bf46bb0205405cf9465a231cf4b0703b49d7ff8ccb85193782299a04946f10c25bd6b8e962434a5e14cea5a1e25ea81d128d0a43ce6ce3beb8a2a70",
      "networkId": 0,
      "chainId": 0
    }
  ]
}