{
  "hash": "0x320c7dcea5dcf4ea0adbbe719741457a1c0f61c4103aea5e969a21249237527e",
  "parentHash": "0xb4f7bf5601e12682021351f7af20c361a87be0ea9914b641e9e06bd6160a5fc6",
  "number": 73907,
  "timestamp": 1439377256,
  "nonce": "0xd29cff6156a955cb",
  "difficulty": 2227117406066,
  "gasLimit": {
    "_hex": "0x2fefd5"
  },
  "gasUsed": {
    "_hex": "0x5208"
  },
  "miner": "0x9746c7e1ef2bd21FF3997fa467593a89cb852BD0",
  "extraData": "0x476574682f76312e302e312f77696e646f77732f676f312e342e32",
  "transactions": [
    {
      "hash": "0x633d0f6d56c66ea5252fd44792e68f660e8a92b7fd96dd8e46f6b5f07ad9142f",
      "blockHash": "0x320c7dcea5dcf4ea0adbbe719741457a1c0f61c4103aea5e969a21249237527e",
      "blockNumber": 73907,
      "transactionIndex": 0,
      "confirmations": null,
      "from": "0xC25f24A505b8fEF751D8f4FCc397651001F7a160",
      "gasPrice": {
        "_hex": "0xcf707e11a"
      },
      "gasLimit": {
        "_hex": "0x5208"
      },
      "to": "0x32Be343B94f860124dC4fEe278FDCBD38C102D88",
      "value": {
        "_hex": "0x453be306a9bcfc00"
      },
      "nonce": 17,
      "data": "0x",
      "r": "0x4df76fb0a0fcb67c3a421daa69cb53cd20d88de651ac9a412b490aa8ef8ea469",
      "s": "0x7d20357d684f64d0ee2d916c77f6652508417d7f4d7e2f6d2c4d9d924b4c61bc",
      "v": 27,
      "creates": null,
      "raw": "0xf86c11850cf707e11a8252089432be343b94f860124dc4fee278fdcbd38c102d8888453be306a9bcfc00801ba04df76fb0a0fcb67c3a421daa69cb53cd20d88de651ac9a412b490aa8ef8ea469a07d20357d684f64d0ee2d916c77f6652508417d7f4d7e2f6d2c4d9d924b4c61bc",
      "networkId": 0,
      "chainId": 0
    }
  ]
}