{
  "hash": "0xee95e57329599bac00f3b3e937cb2a68d4fee61aeb712c484da615432b6b66d0",
  "parentHash": "0xafebd477f8ae248dc0fb2d2cf25192911d1a46813f2743ec7c98d920ec37a0e0",
  "number": 100163,
  "timestamp": 1439801858,
  "nonce": "0x0046c2b92358c9aa",
  "difficulty": 3836088355673,
  "gasLimit": {
    "_hex": "0x2fefd8"
  },
  "gasUsed": {
    "_hex": "0xf618"
  },
  "miner": "0xe6A7a1d47ff21B6321162AEA7C6CB457D5476Bca",
  "extraData": "0x476574682f76312e302e312d38326566323666362f6c696e75782f676f312e34",
  "transactions": [
    {
      "hash": "0x5b6c94bb21f261d525efb66651894164a6fdbb281740717ef8830731e21f451f",
      "blockHash": "0xee95e57329599bac00f3b3e937cb2a68d4fee61aeb712c484da615432b6b66d0",
      "blockNumber": 100163,
      "transactionIndex": 0,
      "confirmations": null,
      "from": "0xBA7933704d52A3e7fdBb5B5deD29e45213EA1111",
      "gasPrice": {
        "_hex": "0xd130ae6b6"
      },
      "gasLimit": {
        "_hex": "0x5208"
      },
      "to": "0x32Be343B94f860124dC4fEe278FDCBD38C102D88",
      "value": {
        "_hex": "0x31d4098cea2cbe000"
      },
      "nonce": 6,
      "data": "0x",
      "r": "0x7cf1523757934f5bfafc18c1789dc770d904ac0a114f3314c10417b52c22dd4b",
      "s": "0x12180332d96084a0fc7714db620e6ccc5c23c9110b9f6e2ebbbf819b92ad5d4b",
      "v": 27,
      "creates": null,
      "raw": "0xf86d06850d130ae6b68252089432be343b94f860124dc4fee278fdcbd38c102d8889031d4098cea2cbe000801ba07cf1523757934f5bfafc18c1789dc770d904ac0a114f3314c10417b52c22dd4ba012180332d96084a0fc7714db620e6ccc5c23c9110b9f6e2ebbbf819b92ad5d4b",
      "networkId": 0,
      "chainId": 0
    },
    {
      "hash": "0xcad223e726f3ad6280435162ddb85662e4c4cbf57d516054dbb8ceb890aa743d",
      "blockHash": "0xee95e57329599bac00f3b3e937cb2a68d4fee61aeb712c484da615432b6b66d0",
      "blockNumber": 100163,
      "transactionIndex": 1,
      "confirmations": null,
      "from": "0x7CabE4dE323c392C7135680c61a04d5Eb7519897",
      "gasPrice": {
        "_hex": "0xd130ae6b6"
      },
      "gasLimit": {
        "_hex": "0x5208"
      },
      "to": "0x32Be343B94f860124dC4fEe278FDCBD38C102D88",
      "value": {
        "_hex": "0xe0553a0284493800"
      },
      "nonce": 5,
      "data": "0x",
      "r": "0x2f3cef9ae68a034e6acb916ca7fa02542f3e6121f74f0c45cad29ff9a1aca0c7",
      "s": "0x5d55ec4e06a14a1b15011479036328c733dcdcbb38be1a6116bfb4197b79b3a5",
      "v": 27,
      "creates": null,
      "raw": "0xf86c05850d130ae6b68252089432be343b94f860124dc4fee278fdcbd38c102d8888e0553a0284493800801ba02f3cef9ae68a034e6acb916ca7fa02542f3e6121f74f0c45cad29ff9a1aca0c7a05d55ec4e06a14a1b15011479036328c733dcdcbb38be1a6116bfb4197b79b3a5",
      "networkId": 0,
      "chainId": 0
    },
    {
      "hash": "0xc221b4cd0a73160f945f9603b1ae2a66f70f21791aabe5d3a1faedddf944d2b5",
      "blockHash": "0xee95e57329599bac00f3b3e937cb2a68d4fee61aeb712c484da615432b6b66d0",
      "blockNumber": 100163,
      "transactionIndex": 2,
      "confirmations": null,
      "from": "0xb71F25995CC5De7A465fB37688126E07654Fa662",
      "gasPrice": {
        "_hex": "0xd130ae6b6"
      },
      "gasLimit": {
        "_hex": "0x5208"
      },
      "to": "0x32Be343B94f860124dC4fEe278FDCBD38C102D88",
      "value": {
        "_hex": "0x240cea0478007c00"
      },
      "nonce": 7,
      "data": "0x",
      "r": "0x36106afb215b8b782cbea45349020a5844004fa8d685c0c0b8c994df2884cbd3",
      "s": "0x43afa6612a0dc7d8e48072036402d4b2c9b7c99a2b6a783bd330572e72a223b4",
      "v": 28,
      "creates": null,
      "raw": "0xf86c07850d130ae6b68252089432be343b94f860124dc4fee278fdcbd38c102d8888240cea0478007c00801ca036106afb215b8b782cbea45349020a5844004fa8d685c0c0b8c994df2884cbd3a043afa6612a0dc7d8e48072036402d4b2c9b7c99a2b6a783bd330572e72a223b4",
      "networkId": 0,
      "chainId": 0
    }
  ]
}