{
  "hash": "0x6fe9d7facd205d48de2f07833084ce6203e25b19c63d3e27eb8da691f83293b2",
  "parentHash": "0xe5028791caea84178339be582cba58398957453d5f75e822a80185a3041be160",
  "number": 79755,
  "timestamp": 1439474608,
  "nonce": "0x0e8d850420f29f9c",
  "difficulty": 2350665488258,
  "gasLimit": {
    "_hex": "0x2fefd8"
  },
  "gasUsed": {
    "_hex": "0xf296"
  },
  "miner": "0xe6A7a1d47ff21B6321162AEA7C6CB457D5476Bca",
  "extraData": "0x476574682f76312e302e312d38326566323666362f6c696e75782f676f312e34",
  "transactions": [
    {
      "hash": "0x122f6129d8148ba65b0d49fcfc0b6f0159932832c2ab422eae0faef038acc695",
      "blockHash": "0x6fe9d7facd205d48de2f07833084ce6203e25b19c63d3e27eb8da691f83293b2",
      "blockNumber": 79755,
      "transactionIndex": 0,
      "confirmations": null,
      "from": "0xD1826373C4E0938f0b4302B40324f7f9c546492C",
      "gasPrice": {
        "_hex": "0xd4237a751"
      },
      "gasLimit": {
        "_hex": "0x30d40"
      },
      "to": "0x4dA64d12AEDF38B1Aa68404784A86059c7077EF0",
      "value": {
        "_hex": "0x16345785d8a0000"
      },
      "nonce": 28,
      "data": "0x",
      "r": "0x8d9411b916ac09040495d754d94b3fc88e212856537ec3893a8beb85eb5c5e7d",
      "s": "0x6a76c6f75c25a3e6b197d12462c4103e13e8f7c5d1f097cf958a5daa36213f3a",
      "v": 28,
      "creates": null,
      "raw": "0xf86d1c850d4237a75183030d40944da64d12aedf38b1aa68404784a86059c7077ef088016345785d8a0000801ca08d9411b916ac09040495d754d94b3fc88e212856537ec3893a8beb85eb5c5e7da06a76c6f75c25a3e6b197d12462c4103e13e8f7c5d1f097cf958a5daa36213f3a",
      "networkId": 0,
      "chainId": 0
    }
  ]
}