{
  "hash": "0xde7130aba9daaad6d20f763b240e6e04e36ac1a65ad703a9b79fac486be73a2a",
  "parentHash": "0xea774d822be0db18aa8ba0e12f2d8c03fc7a34264f73398fea6deee68d63a2d7",
  "number": 47848,
  "timestamp": 1438947364,
  "nonce": "0xf1d01d9661a926cb",
  "difficulty": 1458699107988,
  "gasLimit": {
    "_hex": "0xfbd1"
  },
  "gasUsed": {
    "_hex": "0x546c"
  },
  "miner": "0xc56e71225f1372c990E6829D53A1Ab76d27301cf",
  "extraData": "0x476574682f76312e302e302f77696e646f77732f676f312e342e32",
  "transactions": [
    {
      "hash": "0x92ecde520d8b2e7332850355015bcf0ea7f1ea107d305189a92453a7f0f76c31",
      "blockHash": "0xde7130aba9daaad6d20f763b240e6e04e36ac1a65ad703a9b79fac486be73a2a",
      "blockNumber": 47848,
      "transactionIndex": 0,
      "confirmations": null,
      "from": "0x74016F15e9262E1fAb078146a4002ACc513AfEf0",
      "gasPrice": {
        "_hex": "0xd98210384"
      },
      "gasLimit": {
        "_hex": "0x55f0"
      },
      "to": "0x2910543Af39abA0Cd09dBb2D50200b3E800A63D2",
      "value": {
        "_hex": "0xde0b6b3a7640000"
      },
      "nonce": 0,
      "data": "0x454e3030434e505252",
      "r": "0xafa570dbab9ab56fd098b360a0eb7641f3c9ee0ecff3ac511350a93d999a1dec",
      "s": "0x496def332d93436101e16f47ec5f131c420935b9f336380bcedfb6b6d9344179",
      "v": 27,
      "creates": null,
      "raw": "0xf87580850d982103848255f0942910543af39aba0cd09dbb2d50200b3e800a63d2880de0b6b3a764000089454e3030434e5052521ba0afa570dbab9ab56fd098b360a0eb7641f3c9ee0ecff3ac511350a93d999a1deca0496def332d93436101e16f47ec5f131c420935b9f336380bcedfb6b6d9344179",
      "networkId": 0,
      "chainId": 0
    }
  ]
}