{
  "hash": "0xb747939b3c60f624254882e4d9d6f782963272c91f2abcc73d7a4af86de54138",
  "parentHash": "0xcc9f1ee9c01eda630bc3caefb892e0924927de6e38690f2f403f31986c4fbe63",
  "number": 90015,
  "timestamp": 1439632718,
  "nonce": "0x7add15ec64480c00",
  "difficulty": 3349945795400,
  "gasLimit": {
    "_hex": "0x2fefd8"
  },
  "gasUsed": {
    "_hex": "0xa410"
  },
  "miner": "0xD3E2F0F585C1bDF616A23E113223ba0D26865B01",
  "extraData": "0x476574682f76312e302e312f77696e646f77732f676f312e342e32",
  "transactions": [
    {
      "hash": "0x309f72222dca037197662d39f71d20841c5fe4ac2cd041850c537482260df51b",
      "blockHash": "0xb747939b3c60f624254882e4d9d6f782963272c91f2abcc73d7a4af86de54138",
      "blockNumber": 90015,
      "transactionIndex": 0,
      "confirmations": null,
      "from": "0x23f2D0fd3B4C98Fb1698564deB4898275E2e831f",
      "gasPrice": {
        "_hex": "0xcda33a3f7"
      },
      "gasLimit": {
        "_hex": "0x5208"
      },
      "to": "0x32Be343B94f860124dC4fEe278FDCBD38C102D88",
      "value": {
        "_hex": "0x453bec4438eddc00"
      },
      "nonce": 13,
      "data": "0x",
      "r": "0xe7a268332b59847f47fae3fd1845e4bf78cf5e649b0a9ce8c067383c36989868",
      "s": "0x298e5151e07b6e75cd231717707d89a8bfcbd489df925ee5ee043adafb26e3ae",
      "v": 27,
      "creates": null,
      "raw": "0xf86c0d850cda33a3f78252089432be343b94f860124dc4fee278fdcbd38c102d8888453bec4438eddc00801ba0e7a268332b59847f47fae3fd1845e4bf78cf5e649b0a9ce8c067383c36989868a0298e5151e07b6e75cd231717707d89a8bfcbd489df925ee5ee043adafb26e3ae",
      "networkId": 0,
      "chainId": 0
    },
    {
      "hash": "0xdaf071c29e32a8139b8d0ae537cc49029e7d7ad6341f8704bf9c7ac79a3693f0",
      "blockHash": "0xb747939b3c60f624254882e4d9d6f782963272c91f2abcc73d7a4af86de54138",
      "blockNumber": 90015,
      "transactionIndex": 1,
      "confirmations": null,
      "from": "0x5a0f0935E8E5591B2f9f2d55f29C626B50292088",
      "gasPrice": {
        "_hex": "0xcda33a3f7"
      },
      "gasLimit": {
        "_hex": "0x5208"
      },
      "to": "0x32Be343B94f860124dC4fEe278FDCBD38C102D88",
      "value": {
        "_hex": "0x2b5cdcd51dd626000"
      },
      "nonce": 14,
      "data": "0x",
      "r": "0xa391f3558452df715598df886288d74e6ef9627ef57f88aeb12f17e085572088",
      "s": "0x11b7214c4c3a5f741ac82a23f329c5b5be0f8c526d572a498820a35c3e1d8a9f",
      "v": 27,
      "creates": null,
      "raw": "0xf86d0e850cda33a3f78252089432be343b94f860124dc4fee278fdcbd38c102d888902b5cdcd51dd626000801ba0a391f3558452df715598df886288d74e6ef9627ef57f88aeb12f17e085572088a011b7214c4c3a5f741ac82a23f329c5b5be0f8c526d572a498820a35c3e1d8a9f",
      "networkId": 0,
      "chainId": 0
    }
  ]
}