{
  "hash": "0x7a36d115eb1c4e247296177c9e5fa8326d396ff25a851434761d232454380086",
  "parentHash": "0xe295ca749479f1dad1fc096401895eda2e07959991b455a7f7c82f899fd357b1",
  "number": 96859,
  "timestamp": 1439746987,
  "nonce": "0x041c2bb8b18e9a5f",
  "difficulty": 3737735205532,
  "gasLimit": {
    "_hex": "0x2fefd8"
  },
  "gasUsed": {
    "_hex": "0x5208"
  },
  "miner": "0x88D74a59454F6cF3B51ef6b9136AFb6b9D405A88",
  "extraData": "0x476574682f76312e302e312d37666266393930632f6c696e75782f676f312e34",
  "transactions": [
    {
      "hash": "0xc40a557160e64a05ca22200c0d227c90380db50987665cef633aa4127604bc3b",
      "blockHash": "0x7a36d115eb1c4e247296177c9e5fa8326d396ff25a851434761d232454380086",
      "blockNumber": 96859,
      "transactionIndex": 0,
      "confirmations": null,
      "from": "0x972ad000397A3c903299F1353d6d4b85eE4E4e2A",
      "gasPrice": {
        "_hex": "0xcaed54d54"
      },
      "gasLimit": {
        "_hex": "0x5208"
      },
      "to": "0x32Be343B94f860124dC4fEe278FDCBD38C102D88",
      "value": {
        "_hex": "0x8ac312a0e8a7a000"
      },
      "nonce": 14,
      "data": "0x",
      "r": "0x5092195e1bf36c523628424149c0a603c2d595620f5dfc0be3f6093ee6b6e54b",
      "s": "0x592e87af7b27f63d19090b5fc9c8132cbfb36d18f7c033facad98148fbfb541a",
      "v": 27,
      "creates": null,
      "raw": "0xf86c0e850caed54d548252089432be343b94f860124dc4fee278fdcbd38c102d88888ac312a0e8a7a000801ba05092195e1bf36c523628424149c0a603c2d595620f5dfc0be3f6093ee6b6e54ba0592e87af7b27f63d19090b5fc9c8132cbfb36d18f7c033facad98148fbfb541a",
      "networkId": 0,
      "chainId": 0
    }
  ]
}