{
  "hash": "0xdd2e5b061702cadf955913f3b47960d1920b54468402a49b9c29caa749dcb82c",
  "parentHash": "0x9d655b6c93a2801a653727449875bf87d895392a88f1cf599a6e2c1171ee8e8e",
  "number": 51472,
  "timestamp": 1439005516,
  "nonce": "0x7aea2fbe4a79d1ba",
  "difficulty": 1561227518174,
  "gasLimit": {
    "_hex": "0xb6043"
  },
  "gasUsed": {
    "_hex": "0x5208"
  },
  "miner": "0xf8E0CA3Ed80bd541b94BEdCf259e8CF2141A9523",
  "extraData": "0x476574682f76312e302e312f77696e646f77732f676f312e342e32",
  "transactions": [
    {
      "hash": "0x9f8eebd74b845bf515a81ea0ec7a3ff7af4459800ae32d6dd1eba712e9dd72cf",
      "blockHash": "0xdd2e5b061702cadf955913f3b47960d1920b54468402a49b9c29caa749dcb82c",
      "blockNumber": 51472,
      "transactionIndex": 0,
      "confirmations": null,
      "from": "0x3e8c40498098dd81D00F8bCA8744a0053c82079A",
      "gasPrice": {
        "_hex": "0xba43b7400"
      },
      "gasLimit": {
        "_hex": "0x5b04"
      },
      "to": "0xe5113BcffaDB209830e48BF545404dB707EdE837",
      "value": {
        "_hex": "0x6fcca951468c0000"
      },
      "nonce": 4,
      "data": "0x",
      "r": "0x6345fbc70b4d8fb9580b71d4c37cc66be31c018f28614889765a14647847ce16",
      "s": "0x609af91adf606d92078ef23a877cabdad98ed215d7e1a262b48826ba6d749670",
      "v": 28,
      "creates": null,
      "raw": "0xf86c04850ba43b7400825b0494e5113bcffadb209830e48bf545404db707ede837886fcca951468c0000801ca06345fbc70b4d8fb9580b71d4c37cc66be31c018f28614889765a14647847ce16a0609af91adf606d92078ef23a877cabdad98ed215d7e1a262b48826ba6d749670",
      "networkId": 0,
      "chainId": 0
    }
  ]
}