{
  "hash": "0x8965598e76524680aa4b864d5db3632742b84ccb9caff8f3ea295a828bbb029d",
  "parentHash": "0x29847c94c6220edca93d064d389294afccaae5c11ddf2ef595853c8027f6cee8",
  "number": 119414,
  "timestamp": 1440142465,
  "nonce": "0x92736afb24c4d8b8",
  "difficulty": 4398741419609,
  "gasLimit": {
    "_hex": "0x2fefd8"
  },
  "gasUsed": {
    "_hex": "0xf618"
  },
  "miner": "0x52bc44d5378309EE2abF1539BF71dE1b7d7bE3b5",
  "extraData": "0xd783010002844765746887676f312e342e32856c696e7578",
  "transactions": [
    {
      "hash": "0xdbffc611b7a1cbea596d031d3f8a8127bdf65bd0d99f7a283eace85655ebad33",
      "blockHash": "0x8965598e76524680aa4b864d5db3632742b84ccb9caff8f3ea295a828bbb029d",
      "blockNumber": 119414,
      "transactionIndex": 0,
      "confirmations": null,
      "from": "0xb26EE724AA819BddDf6d87754C61669f000AbF6A",
      "gasPrice": {
        "_hex": "0xba43b7400"
      },
      "gasLimit": {
        "_hex": "0x5208"
      },
      "to": "0x32Be343B94f860124dC4fEe278FDCBD38C102D88",
      "value": {
        "_hex": "0x1553f8cda5f8c800"
      },
      "nonce": 9,
      "data": "0x",
      "r": "0x1b36c9db68891073992ef16b1014a6bc17206b8d0c842a9d70277b1ba92531af",
      "s": "0x24d1e621eebf3024bba22e13760cb6c2511d58c913a1349dedce111384fea763",
      "v": 28,
      "creates": null,
      "raw": "0xf86c09850ba43b74008252089432be343b94f860124dc4fee278fdcbd38c102d88881553f8cda5f8c800801ca01b36c9db68891073992ef16b1014a6bc17206b8d0c842a9d70277b1ba92531afa024d1e621eebf3024bba22e13760cb6c2511d58c913a1349dedce111384fea763",
      "networkId": 0,
      "chainId": 0
    },
    {
      "hash": "0x14316ca7fd885d9188126d8eae7fca0cf2bada9906033c5b259d3fcf3deae4c1",
      "blockHash": "0x8965598e76524680aa4b864d5db3632742b84ccb9caff8f3ea295a828bbb029d",
      "blockNumber": 119414,
      "transactionIndex": 1,
      "confirmations": null,
      "from": "0x2637e8641e6ef9C8951adf3E0c7058e76D766cbA",
      "gasPrice": {
        "_hex": "0xba43b7400"
      },
      "gasLimit": {
        "_hex": "0x5208"
      },
      "to": "0x32Be343B94f860124dC4fEe278FDCBD38C102D88",
      "value": {
        "_hex": "0x5953c0487c68ec00"
      },
      "nonce": 10,
      "data": "0x",
      "r": "0xd775c5228445be24abacc5f5cac285b48e5124d2030061be780483da688269bd",
      "s": "0x3dd7d93160993b7b59f8b228bec53639d9e0ddec3ec6b3aaf0e571fd5e0b7358",
      "v": 28,
      "creates": null,
      "raw": "0xf86c0a850ba43b74008252089432be343b94f860124dc4fee278fdcbd38c102d88885953c0487c68ec00801ca0d775c5228445be24abacc5f5cac285b48e5124d2030061be780483da688269bda03dd7d93160993b7b59f8b228bec53639d9e0ddec3ec6b3aaf0e571fd5e0b7358",
      "networkId": 0,
      "chainId": 0
    },
    {
      "hash": "0x1b50ef2b69f8d7cb21baef58dc13d47e2670f8015407e284e25cee116625c465",
      "blockHash": "0x8965598e76524680aa4b864d5db3632742b84ccb9caff8f3ea295a828bbb029d",
      "blockNumber": 119414,
      "transactionIndex": 2,
      "confirmations": null,
      "from": "0xFCb0b0382b155BE6Dd68dcdB7f29d2366D1C7502",
      "gasPrice": {
        "_hex": "0xba43b7400"
      },
      "gasLimit": {
        "_hex": "0x5208"
      },
      "to": "0x32Be343B94f860124dC4fEe278FDCBD38C102D88",
      "value": {
        "_hex": "0x230f502cf5289c00"
      },
      "nonce": 9,
      "data": "0x",
      "r": "0xa5c23beb41ed1ac810e7981e1557598f9cac74361ce38116db1ccf27790b6ad9",
      "s": "0x1b9b96f0b98c8df71d92d624ae2a70b055ab6cfaa0b361a33d72a4f2cd7c347c",
      "v": 28,
      "creates": null,
      "raw": "0xf86c09850ba43b74008252089432be343b94f860124dc4fee278fdcbd38c102d8888230f502cf5289c00801ca0a5c23beb41ed1ac810e7981e1557598f9cac74361ce38116db1ccf27790b6ad9a01b9b96f0b98c8df71d92d624ae2a70b055ab6cfaa0b361a33d72a4f2cd7c347c",
      "networkId": 0,
      "chainId": 0
    }
  ]
}