{
  "hash": "0x62c98b55fe30c3e307d8b5545e2771c2e4fb30c0400d7b4d74815fa02e4e7761",
  "parentHash": "0xc65f9b4f56cf22533a1da484bab5c780cc8ccc6ce6fdd60fb5a83386fb8c045b",
  "number": 122366,
  "timestamp": 1440193152,
  "nonce": "0x410ce5408485a5ef",
  "difficulty": 4483920631591,
  "gasLimit": {
    "_hex": "0x2fefd8"
  },
  "gasUsed": {
    "_hex": "0x5208"
  },
  "miner": "0xD0ee3F53eE0fCf3F9fbCcdd17BD1b6441DdC2074",
  "extraData": "0x",
  "transactions": [
    {
      "hash": "0xc9c1ef9d39f2a7f5eb189d33db49676fda0c99494ad5ff7b88ec457bab2cc2fa",
      "blockHash": "0x62c98b55fe30c3e307d8b5545e2771c2e4fb30c0400d7b4d74815fa02e4e7761",
      "blockNumber": 122366,
      "transactionIndex": 0,
      "confirmations": null,
      "from": "0xA881a976d37b162a8e82169bf5B83a627d8A1480",
      "gasPrice": {
        "_hex": "0xba43b7400"
      },
      "gasLimit": {
        "_hex": "0x15f90"
      },
      "to": "0x9990f7E058eD31e6Af66396499b989cAe124cC23",
      "value": {
        "_hex": "0xde0b6b3a7640000"
      },
      "nonce": 1,
      "data": "0x",
      "r": "0xe6ab37031a5fdd46f7ae8ae23b84c2fc816df4b21e60b9eb3745493ed0ae8b3c",
      "s": "0x195dda6d811b7c4e4c0ecbeb9b2cef554b326c03efa5cf0a4d48974d223f445f",
      "v": 27,
      "creates": null,
      "raw": "0xf86d01850ba43b740083015f90949990f7e058ed31e6af66396499b989cae124cc23880de0b6b3a7640000801ba0e6ab37031a5fdd46f7ae8ae23b84c2fc816df4b21e60b9eb3745493ed0ae8b3ca0195dda6d811b7c4e4c0ecbeb9b2cef554b326c03efa5cf0a4d48974d223f445f",
      "networkId": 0,
      "chainId": 0
    }
  ]
}