{
  "hash": "0x50f9d658deeccf3150fed7dba6407707530f1f07f872e4604eaa1cbf22d517ea",
  "parentHash": "0xf071a2ee924d6bc2aa14ecc48310fecd3ccf076197d1ed58c0d24bca5d3dfc2e",
  "number": 74524,
  "timestamp": 1439387445,
  "nonce": "0x1606607b2be10e49",
  "difficulty": 2217188656762,
  "gasLimit": {
    "_hex": "0x2fefd8"
  },
  "gasUsed": {
    "_hex": "0xa410"
  },
  "miner": "0x123843545FB525C8E134c9A5F15ADA6865cc3848",
  "extraData": "0x476574682f76312e302e312f77696e646f77732f676f312e342e32",
  "transactions": [
    {
      "hash": "0xb86d73f53960d1432b8bcf35526ee873fccd5359cef89dff7662b6e03624c751",
      "blockHash": "0x50f9d658deeccf3150fed7dba6407707530f1f07f872e4604eaa1cbf22d517ea",
      "blockNumber": 74524,
      "transactionIndex": 0,
      "confirmations": null,
      "from": "0x610CE98A3B5BFDEDf070Ff318c8b46d475Da32f8",
      "gasPrice": {
        "_hex": "0xdefb50ddf"
      },
      "gasLimit": {
        "_hex": "0x15f90"
      },
      "to": "0x120A270bbC009644e35F0bB6ab13f95b8199c4ad",
      "value": {
        "_hex": "0x18265998e88f31f800"
      },
      "nonce": 0,
      "data": "0x",
      "r": "0xb0f47a29025bd0fdf9867bb5a58b2aefda41b8639e380ff5a1479de2aff7a73a",
      "s": "0x3b7f4ba5d10fd045958d6cdb1aab4adf06246faa5645b1b729e21f36ea96af8b",
      "v": 28,
      "creates": null,
      "raw": "0xf86e80850defb50ddf83015f9094120a270bbc009644e35f0bb6ab13f95b8199c4ad8918265998e88f31f800801ca0b0f47a29025bd0fdf9867bb5a58b2aefda41b8639e380ff5a1479de2aff7a73aa03b7f4ba5d10fd045958d6cdb1aab4adf06246faa5645b1b729e21f36ea96af8b",
      "networkId": 0,
      "chainId": 0
    },
    {
      "hash": "0x5ba58e1a4c0e68f70e5530e72db3d38ae888b4fffa195deec51e1999e62fb6d9",
      "blockHash": "0x50f9d658deeccf3150fed7dba6407707530f1f07f872e4604eaa1cbf22d517ea",
      "blockNumber": 74524,
      "transactionIndex": 1,
      "confirmations": null,
      "from": "0x0037ce3d4B7f8729C8607D8D0248252Be68202c0",
      "gasPrice": {
        "_hex": "0xcf26f05c1"
      },
      "gasLimit": {
        "_hex": "0x15f90"
      },
      "to": "0xDC6A542F97876923583019b526335fD1fB0DfC6A",
      "value": {
        "_hex": "0xde0b6b3a7640000"
      },
      "nonce": 12,
      "data": "0x",
      "r": "0xd0abfb6636a20bcb48d0ec563e477e3ea4259afd80bc4cbf6e005f3720a0f263",
      "s": "0x0e8f51e1370b0558591dc12415f32f2dc423e43aeaffd14637375929df7d917b",
      "v": 28,
      "creates": null,
      "raw": "0xf86d0c850cf26f05c183015f9094dc6a542f97876923583019b526335fd1fb0dfc6a880de0b6b3a7640000801ca0d0abfb6636a20bcb48d0ec563e477e3ea4259afd80bc4cbf6e005f3720a0f263a00e8f51e1370b0558591dc12415f32f2dc423e43aeaffd14637375929df7d917b",
      "networkId": 0,
      "chainId": 0
    }
  ]
}