{
  "hash": "0x5e15433c724f7530b6ddbc57be02111ba0a29830e652630567269dcbb608e272",
  "parentHash": "0x14c5a4063f04e080485d2ed457e1e3e02172a559d4a2e4332a34466e2d305df6",
  "number": 118900,
  "timestamp": 1440133306,
  "nonce": "0xadc792edefcdc713",
  "difficulty": 4399010954511,
  "gasLimit": {
    "_hex": "0x2fefd8"
  },
  "gasUsed": {
    "_hex": "0x5208"
  },
  "miner": "0x52bc44d5378309EE2abF1539BF71dE1b7d7bE3b5",
  "extraData": "0xd783010002844765746887676f312e342e32856c696e7578",
  "transactions": [
    {
      "hash": "0x8ca983df12d60ce5f8842fd9aa8eaf6aa524df016980387154e6c54a457b3622",
      "blockHash": "0x5e15433c724f7530b6ddbc57be02111ba0a29830e652630567269dcbb608e272",
      "blockNumber": 118900,
      "transactionIndex": 0,
      "confirmations": null,
      "from": "0xb1abce2918E21ddb93AA452731a12672A3d9F75a",
      "gasPrice": {
        "_hex": "0xba43b7400"
      },
      "gasLimit": {
        "_hex": "0x5208"
      },
      "to": "0x32Be343B94f860124dC4fEe278FDCBD38C102D88",
      "value": {
        "_hex": "0x4e0fc8030ac248000"
      },
      "nonce": 187,
      "data": "0x",
      "r": "0x278068486ad4dbd430ad45ed9960e59443131227638a2913548f333604c2bbdf",
      "s": "0x11a2db68e046919007c2e23c1080da65d828cea17739d27312f03b40caba5f8f",
      "v": 27,
      "creates": null,
      "raw": "0xf86e81bb850ba43b74008252089432be343b94f860124dc4fee278fdcbd38c102d888904e0fc8030ac248000801ba0278068486ad4dbd430ad45ed9960e59443131227638a2913548f333604c2bbdfa011a2db68e046919007c2e23c1080da65d828cea17739d27312f03b40caba5f8f",
      "networkId": 0,
      "chainId": 0
    }
  ]
}