{
  "hash": "0x34cb049f8c1c0b5a87df02cea429bafe6bedb60a1412d09294712d655c0c72a2",
  "parentHash": "0xd8dd1d0cf4f1908de75e4150865b9b9d3eec8392d3357dec7f0dbb913df9369e",
  "number": 75180,
  "timestamp": 1439399014,
  "nonce": "0x0c6c33776de7f77b",
  "difficulty": 2193327139837,
  "gasLimit": {
    "_hex": "0x2fefd8"
  },
  "gasUsed": {
    "_hex": "0x5208"
  },
  "miner": "0xBE07744f624130f75511A91a43495e5C11114950",
  "extraData": "0x",
  "transactions": [
    {
      "hash": "0xecf36dfe5c93c05f83160fbf7ecbad84cc58361fa3a81a8bc4012bc1e623812d",
      "blockHash": "0x34cb049f8c1c0b5a87df02cea429bafe6bedb60a1412d09294712d655c0c72a2",
      "blockNumber": 75180,
      "transactionIndex": 0,
      "confirmations": null,
      "from": "0x8566f68Aee274dF135ee5A619ea3b17437121fC4",
      "gasPrice": {
        "_hex": "0xd9346d6fc"
      },
      "gasLimit": {
        "_hex": "0x15f90"
      },
      "to": "0x9E1B8Bfe4062F4fA08C9fb5eD4A4Ae55425a7EB1",
      "value": {
        "_hex": "0x11c37937e080000"
      },
      "nonce": 2,
      "data": "0x",
      "r": "0x72e6b301d38edb82f4f746a25848d59c974f3c35f5ef1623b8ebbc73d50d3122",
      "s": "0x1f3fc49f088a802d290472e5c73f727e339ffae1027f8dd695c94575b07f4d54",
      "v": 27,
      "creates": null,
      "raw": "0xf86d02850d9346d6fc83015f90949e1b8bfe4062f4fa08c9fb5ed4a4ae55425a7eb188011c37937e080000801ba072e6b301d38edb82f4f746a25848d59c974f3c35f5ef1623b8ebbc73d50d3122a01f3fc49f088a802d290472e5c73f727e339ffae1027f8dd695c94575b07f4d54",
      "networkId": 0,
      "chainId": 0
    }
  ]
}