{
  "hash": "0x6e08369980e5f6994d3277d90b5ba31ca70006f305a4a774d79a8e45d8e140b7",
  "parentHash": "0x7829a70c9e2105ada08f392a4be5f87599c78fed3af0a0f4c2d7257175675248",
  "number": 53923,
  "timestamp": 1439045880,
  "nonce": "0x56fba76219f02ed8",
  "difficulty": 1600126272085,
  "gasLimit": {
    "_hex": "0x2fefd8"
  },
  "gasUsed": {
    "_hex": "0x1ee94"
  },
  "miner": "0xbb7B8287f3F0a933474a79eAe42CBCa977791171",
  "extraData": "0x476574682f4c5649562f76312e302e312f6c696e75782f676f312e342e32",
  "transactions": [
    {
      "hash": "0x011c1406b6eeeaec8e50d052d40b5b5aad847e55042a11c04509b0fc89187cd8",
      "blockHash": "0x6e08369980e5f6994d3277d90b5ba31ca70006f305a4a774d79a8e45d8e140b7",
      "blockNumber": 53923,
      "transactionIndex": 0,
      "confirmations": null,
      "from": "0x64CF897D51472Dc7CfF0e6368EB15B9e2d5168E3",
      "gasPrice": {
        "_hex": "0x9184e72a000"
      },
      "gasLimit": {
        "_hex": "0x99407"
      },
      "to": "0x2910543Af39abA0Cd09dBb2D50200b3E800A63D2",
      "value": {
        "_hex": "0x56bc75e2d63100000"
      },
      "nonce": 5,
      "data": "0x454e35583543414430",
      "r": "0x84b31d3adde85de7a4f75e9b1c0fcb116bd23f1c1dcbb7edb576b8d47184f02e",
      "s": "0xffb449af2bda164d1db41322aca96de08c7450f3ecdf63a1f05382554d48d54e",
      "v": 28,
      "creates": null,
      "raw": "0xf878058609184e72a00083099407942910543af39aba0cd09dbb2d50200b3e800a63d289056bc75e2d6310000089454e355835434144301ca084b31d3adde85de7a4f75e9b1c0fcb116bd23f1c1dcbb7edb576b8d47184f02ea0ffb449af2bda164d1db41322aca96de08c7450f3ecdf63a1f05382554d48d54e",
      "networkId": 0,
      "chainId": 0
    },
    {
      "hash": "0xdda7e1b527ba3f6c1c31634c48fd4e229d750bea8c82eb36f69bc3969c7c750c",
      "blockHash": "0x6e08369980e5f6994d3277d90b5ba31ca70006f305a4a774d79a8e45d8e140b7",
      "blockNumber": 53923,
      "transactionIndex": 1,
      "confirmations": null,
      "from": "0x430F8F6FDc140D44d9c99dA1f0A0e7ea541DB4b0",
      "gasPrice": {
        "_hex": "0xd8835d65d"
      },
      "gasLimit": {
        "_hex": "0x15f90"
      },
      "to": "0x6111E933E5e6297DFd0AAd9aAB64017c69062a08",
      "value": {
        "_hex": "0xd02ab486cedc0000"
      },
      "nonce": 4,
      "data": "0x",
      "r": "0xf333cb8908584edd1ca2bef42c9b00b714edca90786001883c7b68d74f78fa29",
      "s": "0x1ad271f0642cf0ffaab71f945079e50931996a812b26c91d246edaa1b31503e8",
      "v": 27,
      "creates": null,
      "raw": "0xf86d04850d8835d65d83015f90946111e933e5e6297dfd0aad9aab64017c69062a0888d02ab486cedc0000801ba0f333cb8908584edd1ca2bef42c9b00b714edca90786001883c7b68d74f78fa29a01ad271f0642cf0ffaab71f945079e50931996a812b26c91d246edaa1b31503e8",
      "networkId": 0,
      "chainId": 0
    },
    {
      "hash": "0x3522465582963a8e7e278eb3c4b66c613b55dda7d95753f9b57b1c215d36f48a",
      "blockHash": "0x6e08369980e5f6994d3277d90b5ba31ca70006f305a4a774d79a8e45d8e140b7",
      "blockNumber": 53923,
      "transactionIndex": 2,
      "confirmations": null,
      "from": "0xA605F0841b2124c22a64894D298D6fCfc7d89f33",
      "gasPrice": {
        "_hex": "0xcf27df53d"
      },
      "gasLimit": {
        "_hex": "0x5208"
      },
      "to": "0x32Be343B94f860124dC4fEe278FDCBD38C102D88",
      "value": {
        "_hex": "0xb15fa5b8a74a800"
      },
      "nonce": 0,
      "data": "0x",
      "r": "0xd4b0ea5ef244b79ecb63c9b7c1765bd7b678f29e95deabc99efe1e7fb416a71d",
      "s": "0x3ae9c3b26997e3d7e7c30bf09fb305bee879e3344d88c79ca1cb6ece74c8b18c",
      "v": 28,
      "creates": null,
      "raw": "0xf86c80850cf27df53d8252089432be343b94f860124dc4fee278fdcbd38c102d88880b15fa5b8a74a800801ca0d4b0ea5ef244b79ecb63c9b7c1765bd7b678f29e95deabc99efe1e7fb416a71da03ae9c3b26997e3d7e7c30bf09fb305bee879e3344d88c79ca1cb6ece74c8b18c",
      "networkId": 0,
      "chainId": 0
    },
    {
      "hash": "0x2187ee665910e50b34b9fd3fb31df064b0359c0da3dae411fa66cf722d8dfba1",
      "blockHash": "0x6e08369980e5f6994d3277d90b5ba31ca70006f305a4a774d79a8e45d8e140b7",
      "blockNumber": 53923,
      "transactionIndex": 3,
      "confirmations": null,
      "from": "0x50851F0A477440DdfD402D389A84CA4a91A52AD6",
      "gasPrice": {
        "_hex": "0xcd3aad0ba"
      },
      "gasLimit": {
        "_hex": "0x5208"
      },
      "to": "0x32Be343B94f860124dC4fEe278FDCBD38C102D88",
      "value": {
        "_hex": "0x8ac2fcefe5e08000"
      },
      "nonce": 0,
      "data": "0x",
      "r": "0xc0f602c8290cf8f4a92139738ba7d3576dc96ae09aec5b12d0c43b8af75066a9",
      "s": "0x03de9592d1619c045c7ddd33a202d2174af0d6e2541adca250f6b046e14de7b0",
      "v": 27,
      "creates": null,
      "raw": "0xf86c80850cd3aad0ba8252089432be343b94f860124dc4fee278fdcbd38c102d88888ac2fcefe5e08000801ba0c0f602c8290cf8f4a92139738ba7d3576dc96ae09aec5b12d0c43b8af75066a9a003de9592d1619c045c7ddd33a202d2174af0d6e2541adca250f6b046e14de7b0",
      "networkId": 0,
      "chainId": 0
    },
    {
      "hash": "0xda8470987a4e56675ca63970f1e13e9fc6d8c36218a5eb25892ec9514bbd7ab3",
      "blockHash": "0x6e08369980e5f6994d3277d90b5ba31ca70006f305a4a774d79a8e45d8e140b7",
      "blockNumber": 53923,
      "transactionIndex": 4,
      "confirmations": null,
      "from": "0x32Be343B94f860124dC4fEe278FDCBD38C102D88",
      "gasPrice": {
        "_hex": "0xcd3aad0ba"
      },
      "gasLimit": {
        "_hex": "0x5208"
      },
      "to": "0xD6CBc00b3ECFF6E48a1106fEaf62f77C4F52E465",
      "value": {
        "_hex": "0x3bac47bdde7c560000"
      },
      "nonce": 42,
      "data": "0x",
      "r": "0xe3936a5622f06fdbe10e134433795c42e5801954057d80ceffaabc0e62123c1d",
      "s": "0x2b3f7a15d86c4530d4d06be037806aecc50c78883928a88a7bc3da96e8933d7a",
      "v": 27,
      "creates": null,
      "raw": "0xf86d2a850cd3aad0ba82520894d6cbc00b3ecff6e48a1106feaf62f77c4f52e465893bac47bdde7c560000801ba0e3936a5622f06fdbe10e134433795c42e5801954057d80ceffaabc0e62123c1da02b3f7a15d86c4530d4d06be037806aecc50c78883928a88a7bc3da96e8933d7a",
      "networkId": 0,
      "chainId": 0
    },
    {
      "hash": "0x0ba3b577f2896fb85057586dc3259d5aeb796929650bbca151443bcf1ebe3c1f",
      "blockHash": "0x6e08369980e5f6994d3277d90b5ba31ca70006f305a4a774d79a8e45d8e140b7",
      "blockNumber": 53923,
      "transactionIndex": 5,
      "confirmations": null,
      "from": "0x32Be343B94f860124dC4fEe278FDCBD38C102D88",
      "gasPrice": {
        "_hex": "0xcd3aad0ba"
      },
      "gasLimit": {
        "_hex": "0x5208"
      },
      "to": "0x1A6e2D880420fd418522F080D5E31feE4A74a55E",
      "value": {
        "_hex": "0x3635a626d36ee00000"
      },
      "nonce": 43,
      "data": "0x",
      "r": "0x11b6aeb1697399652e1e9a1dbc2bdbf68e2745f5f25b69af3fbc16d14fc4ea32",
      "s": "0x611ccce127abb2d548a37f42ed8455f8882b1ad4c16b93b5c290ba425539e832",
      "v": 27,
      "creates": null,
      "raw": "0xf86d2b850cd3aad0ba825208941a6e2d880420fd418522f080d5e31fee4a74a55e893635a626d36ee00000801ba011b6aeb1697399652e1e9a1dbc2bdbf68e2745f5f25b69af3fbc16d14fc4ea32a0611ccce127abb2d548a37f42ed8455f8882b1ad4c16b93b5c290ba425539e832",
      "networkId": 0,
      "chainId": 0
    }
  ]
}