{
  "hash": "0xce100273e2c69e631b428a6804b6e966412d1b96106cba2092b063d822a4804c",
  "parentHash": "0xf92ba5be8a5463bc1eb6857030ffcad93ac475014ed20a27d63968fc0a6f9d2b",
  "number": 120924,
  "timestamp": 1440168588,
  "nonce": "0xd410b6c1b8524055",
  "difficulty": 4415162780590,
  "gasLimit": {
    "_hex": "0x2fefd8"
  },
  "gasUsed": {
    "_hex": "0x5208"
  },
  "miner": "0x580992B51e3925e23280EfB93d3047C82f17E038",
  "extraData": "0x",
  "transactions": [
    {
      "hash": "0x4780cd79a18bf487d0f9b647f0d66af91fad3454276d230a89ef0a8c47268176",
      "blockHash": "0xce100273e2c69e631b428a6804b6e966412d1b96106cba2092b063d822a4804c",
      "blockNumber": 120924,
      "transactionIndex": 0,
      "confirmations": null,
      "from": "0x32Be343B94f860124dC4fEe278FDCBD38C102D88",
      "gasPrice": {
        "_hex": "0xba43b7400"
      },
      "gasLimit": {
        "_hex": "0x5208"
      },
      "to": "0x1B8BB4bD8A048f3951e78854a648207989D8aE46",
      "value": {
        "_hex": "0xde0b6b3a7640000"
      },
      "nonce": 1538,
      "data": "0x",
      "r": "0xf4ad8e991394914e90fe40fd60ae172968244002fe1e13394cf9ab02151777eb",
      "s": "0x7b02af4f8d2186b0cfaf9bf4b61d1617d50257d9b8956a5e9fa7291285b8d809",
      "v": 28,
      "creates": null,
      "raw": "0xf86e820602850ba43b7400825208941b8bb4bd8a048f3951e78854a648207989d8ae46880de0b6b3a7640000801ca0f4ad8e991394914e90fe40fd60ae172968244002fe1e13394cf9ab02151777eba07b02af4f8d2186b0cfaf9bf4b61d1617d50257d9b8956a5e9fa7291285b8d809",
      "networkId": 0,
      "chainId": 0
    }
  ]
}