{
  "hash": "0x74f74067ca52c35eeb29b0d6bebc36267604c28b4cd874b4fb9c910adaec52a3",
  "parentHash": "0xce33edd8f8b6aed46ce2c64267e4df24a9e21bf501245b3570bcef24375e7a07",
  "number": 54850,
  "timestamp": 1439061132,
  "nonce": "0x1513371f4a548ffb",
  "difficulty": 1606995956800,
  "gasLimit": {
    "_hex": "0x2fefd8"
  },
  "gasUsed": {
    "_hex": "0x5208"
  },
  "miner": "0xbe4532E1B1Db5c913Cf553be76180c1777055403",
  "extraData": "0x476574682f686261722f76312e302e312f6c696e75782f676f312e342e32",
  "transactions": [
    {
      "hash": "0x76226286d23261d914f27f97c64b45d7c54139ae757831f1c24a9e0f0a780022",
      "blockHash": "0x74f74067ca52c35eeb29b0d6bebc36267604c28b4cd874b4fb9c910adaec52a3",
      "blockNumber": 54850,
      "transactionIndex": 0,
      "confirmations": null,
      "from": "0x4278273854a158e72fcf5E752fD5fDA7238eBea8",
      "gasPrice": {
        "_hex": "0x1067474827b"
      },
      "gasLimit": {
        "_hex": "0x15f90"
      },
      "to": "0x9aD28d4b9331aAC808DED237E46c6f5d69FCEDF6",
      "value": {
        "_hex": "0x1a055690d9db80000"
      },
      "nonce": 0,
      "data": "0x",
      "r": "0x0a1b5b064034b6e07b304e70ae9b4d5b3a806b3f24e7b028d2560f1c135a3df1",
      "s": "0x003b6672445cf71e535eafdd2073e80255f5b4631118e996b91a83f163075576",
      "v": 27,
      "creates": null,
      "raw": "0xf86e808601067474827b83015f90949ad28d4b9331aac808ded237e46c6f5d69fcedf68901a055690d9db80000801ba00a1b5b064034b6e07b304e70ae9b4d5b3a806b3f24e7b028d2560f1c135a3df19f3b6672445cf71e535eafdd2073e80255f5b4631118e996b91a83f163075576",
      "networkId": 0,
      "chainId": 0
    }
  ]
}