{
  "hash": "0xa399d79fb20b24238a654a44d5acbd7868b1f453933907a140d56ff84c9a4c3e",
  "parentHash": "0x633aacc0c83f5b9af384cf1ac518d83adac0c0f602bd8b40500c22c9a3180d02",
  "number": 121057,
  "timestamp": 1440170629,
  "nonce": "0xff3abad0c9ab7595",
  "difficulty": 4421564940233,
  "gasLimit": {
    "_hex": "0x2fefd8"
  },
  "gasUsed": {
    "_hex": "0x546c"
  },
  "miner": "0xe6A7a1d47ff21B6321162AEA7C6CB457D5476Bca",
  "extraData": "0xd783010002844765746887676f312e342e32856c696e7578",
  "transactions": [
    {
      "hash": "0xf3737584054c6f1ecab4b28b893264f3f83c296d9e3dda95dbe7382e2a09ae62",
      "blockHash": "0xa399d79fb20b24238a654a44d5acbd7868b1f453933907a140d56ff84c9a4c3e",
      "blockNumber": 121057,
      "transactionIndex": 0,
      "confirmations": null,
      "from": "0x24Fd9A6C874c2faB3Ff36e9AFBF8CE0d32c7DE92",
      "gasPrice": {
        "_hex": "0xba43b7400"
      },
      "gasLimit": {
        "_hex": "0x15f90"
      },
      "to": "0x2910543Af39abA0Cd09dBb2D50200b3E800A63D2",
      "value": {
        "_hex": "0x6a94d74f430000"
      },
      "nonce": 2,
      "data": "0x454e505a3357575638",
      "r": "0xc6e8c336140c7135dd20669bcdc746e8168ee8088be1043dc6c01973dbc0b08c",
      "s": "0x0e71ed4d9855292f39fab1e5d41d600b19ed55482af7b4cf3f6241d26708bb76",
      "v": 27,
      "creates": null,
      "raw": "0xf87502850ba43b740083015f90942910543af39aba0cd09dbb2d50200b3e800a63d2876a94d74f43000089454e505a33575756381ba0c6e8c336140c7135dd20669bcdc746e8168ee8088be1043dc6c01973dbc0b08ca00e71ed4d9855292f39fab1e5d41d600b19ed55482af7b4cf3f6241d26708bb76",
      "networkId": 0,
      "chainId": 0
    }
  ]
}