{
  "hash": "0x85f1b9a0866fc77bf318061b9f4ef3c14bf0371b13accd48a193fca0fde6adf1",
  "parentHash": "0x4bc24bb489e361588b5323758c356d367a386cdb8191d0b93cda0f18ad73d792",
  "number": 91508,
  "timestamp": 1439656783,
  "nonce": "0x3a54314d9c6fe215",
  "difficulty": 3481072401063,
  "gasLimit": {
    "_hex": "0x2fefd8"
  },
  "gasUsed": {
    "_hex": "0xa410"
  },
  "miner": "0x123843545FB525C8E134c9A5F15ADA6865cc3848",
  "extraData": "0x476574682f76312e302e312f77696e646f77732f676f312e342e32",
  "transactions": [
    {
      "hash": "0x213f925f621e190b7517674e5b040fb0f6f39fd6bd7cc0621a9f2797486cb901",
      "blockHash": "0x85f1b9a0866fc77bf318061b9f4ef3c14bf0371b13accd48a193fca0fde6adf1",
      "blockNumber": 91508,
      "transactionIndex": 0,
      "confirmations": null,
      "from": "0x32Be343B94f860124dC4fEe278FDCBD38C102D88",
      "gasPrice": {
        "_hex": "0xd07992870"
      },
      "gasLimit": {
        "_hex": "0x5208"
      },
      "to": "0x5F28bcc5faFC8982536A9e4be559657998CdE1E3",
      "value": {
        "_hex": "0xad76b3568565f0000"
      },
      "nonce": 875,
      "data": "0x",
      "r": "0x2964235aecf8e2282d255090937c5b3279edcfb557dd459bb984b6c46efc6689",
      "s": "0x18e1c5cca12133f1fe778f29b569ebb51f0ef77a56a0cb64aae0f885933507c4",
      "v": 27,
      "creates": null,
      "raw": "0xf86f82036b850d07992870825208945f28bcc5fafc8982536a9e4be559657998cde1e3890ad76b3568565f0000801ba02964235aecf8e2282d255090937c5b3279edcfb557dd459bb984b6c46efc6689a018e1c5cca12133f1fe778f29b569ebb51f0ef77a56a0cb64aae0f885933507c4",
      "networkId": 0,
      "chainId": 0
    },
    {
      "hash": "0x29d45aa9bb18bb47f285d0f4469a4d81c43586e1087cb4bafd5580985cadd1b8",
      "blockHash": "0x85f1b9a0866fc77bf318061b9f4ef3c14bf0371b13accd48a193fca0fde6adf1",
      "blockNumber": 91508,
      "transactionIndex": 1,
      "confirmations": null,
      "from": "0xEF291bbC74308a7F70c577Ac49CEf00c76177301",
      "gasPrice": {
        "_hex": "0xd07992870"
      },
      "gasLimit": {
        "_hex": "0x5208"
      },
      "to": "0x32Be343B94f860124dC4fEe278FDCBD38C102D88",
      "value": {
        "_hex": "0xddc80187af73800"
      },
      "nonce": 0,
      "data": "0x",
      "r": "0xaf8f467a8a8b39a2be8099cde60af6bf0163d6ddecb0f9150f5b0758b9eb55a2",
      "s": "0x4d512af1221d93662d7b4a3d67db02e81cca60ba5fbabad80e75e243e8eb62db",
      "v": 27,
      "creates": null,
      "raw": "0xf86c80850d079928708252089432be343b94f860124dc4fee278fdcbd38c102d88880ddc80187af73800801ba0af8f467a8a8b39a2be8099cde60af6bf0163d6ddecb0f9150f5b0758b9eb55a2a04d512af1221d93662d7b4a3d67db02e81cca60ba5fbabad80e75e243e8eb62db",
      "networkId": 0,
      "chainId": 0
    }
  ]
}