{
  "hash": "0xe2d5763818bab6e350a0c3d22675a13908f3c111f2bab548d837d567bee23eda",
  "parentHash": "0x1a91108a80bd188f7585fe9a34f5fbffc2016e148b6964ac946a16de5461a95f",
  "number": 85228,
  "timestamp": 1439560340,
  "nonce": "0xf57f8e12fdafc409",
  "difficulty": 2753127287007,
  "gasLimit": {
    "_hex": "0x2fefd8"
  },
  "gasUsed": {
    "_hex": "0x5208"
  },
  "miner": "0xbb7B8287f3F0a933474a79eAe42CBCa977791171",
  "extraData": "0x476574682f4c5649562f76312e302e312f6c696e75782f676f312e342e32",
  "transactions": [
    {
      "hash": "0xdfab8813c2f42b0d34c29b48132963dd25b07eea88b0c6222190daaff39d018b",
      "blockHash": "0xe2d5763818bab6e350a0c3d22675a13908f3c111f2bab548d837d567bee23eda",
      "blockNumber": 85228,
      "transactionIndex": 0,
      "confirmations": null,
      "from": "0xa83A3BD5fBcceD1b6e82119B404769f74a89Cab4",
      "gasPrice": {
        "_hex": "0xda596c8b5"
      },
      "gasLimit": {
        "_hex": "0x15f90"
      },
      "to": "0xCDA330c8160f0c90B8B528C6Db267acc17381818",
      "value": {
        "_hex": "0x1d9c9a51e57d60000"
      },
      "nonce": 5,
      "data": "0x",
      "r": "0x1b57909bd531094df5eec099de2a70fd6de109f62121c6280573fbfc14d06b2a",
      "s": "0x440239aef7ff517d6221a19cd430eb255d23135a8459c86e24db09a0a07f1a10",
      "v": 27,
      "creates": null,
      "raw": "0xf86e05850da596c8b583015f9094cda330c8160f0c90b8b528c6db267acc173818188901d9c9a51e57d60000801ba01b57909bd531094df5eec099de2a70fd6de109f62121c6280573fbfc14d06b2aa0440239aef7ff517d6221a19cd430eb255d23135a8459c86e24db09a0a07f1a10",
      "networkId": 0,
      "chainId": 0
    }
  ]
}