{
  "hash": "0x98b5d3b95dd53b1c135115e55f033bf781ec44eb053261808d10a65ce6ab1350",
  "parentHash": "0x649cc5d17bddbe5f966198438e7081d15506ae35a90f192b90486e13d8bdaf31",
  "number": 49339,
  "timestamp": 1438972080,
  "nonce": "0xfb789aa644a1a12c",
  "difficulty": 1476352188388,
  "gasLimit": {
    "_hex": "0x2d8e2"
  },
  "gasUsed": {
    "_hex": "0xa674"
  },
  "miner": "0xbb7B8287f3F0a933474a79eAe42CBCa977791171",
  "extraData": "0x476574682f4c5649562f76312e302e312f6c696e75782f676f312e342e32",
  "transactions": [
    {
      "hash": "0x9e913506813acbfb97381c132bd1c895d320df1465bf760340539376127817a7",
      "blockHash": "0x98b5d3b95dd53b1c135115e55f033bf781ec44eb053261808d10a65ce6ab1350",
      "blockNumber": 49339,
      "transactionIndex": 0,
      "confirmations": null,
      "from": "0x1a79c7f4039C67A39d7513884cDC0E2C34222490",
      "gasPrice": {
        "_hex": "0xd7d40ace3"
      },
      "gasLimit": {
        "_hex": "0x15f90"
      },
      "to": "0x481b251c3Cd86c298f9f601f8BF7021412e193c6",
      "value": {
        "_hex": "0x2386f26fc10000"
      },
      "nonce": 0,
      "data": "0x",
      "r": "0x2efcc0d61e79f21da1017aa98ff25c8c8f23006e7f6783a20cf78d17fe9201d9",
      "s": "0x51c728623fe5cea8b367d7c4ffe8c9aed991920705986772c5757bd4782cbd9f",
      "v": 27,
      "creates": null,
      "raw": "0xf86c80850d7d40ace383015f9094481b251c3cd86c298f9f601f8bf7021412e193c6872386f26fc10000801ba02efcc0d61e79f21da1017aa98ff25c8c8f23006e7f6783a20cf78d17fe9201d9a051c728623fe5cea8b367d7c4ffe8c9aed991920705986772c5757bd4782cbd9f",
      "networkId": 0,
      "chainId": 0
    },
    {
      "hash": "0x52803cb90b2083f119924d0119d2d183fe31c6c3797484174fbb620ef266fc1c",
      "blockHash": "0x98b5d3b95dd53b1c135115e55f033bf781ec44eb053261808d10a65ce6ab1350",
      "blockNumber": 49339,
      "transactionIndex": 1,
      "confirmations": null,
      "from": "0x67350b5331926f5E28F3C1E986F96443809c8B8c",
      "gasPrice": {
        "_hex": "0xcfceb86e8"
      },
      "gasLimit": {
        "_hex": "0x15f90"
      },
      "to": "0x2910543Af39abA0Cd09dBb2D50200b3E800A63D2",
      "value": {
        "_hex": "0x1308a53f3027bf7000"
      },
      "nonce": 1,
      "data": "0x454e47333152313652",
      "r": "0xa48a8540c131e786ba0ef8b72a4120872610a684f46214f564379bec8c4c34f2",
      "s": "0x5a24b55fc2bd9f6d0b9e1dab1f433174e1c7dfef04a48b51d792d03630f0ad16",
      "v": 27,
      "creates": null,
      "raw": "0xf87701850cfceb86e883015f90942910543af39aba0cd09dbb2d50200b3e800a63d2891308a53f3027bf700089454e473331523136521ba0a48a8540c131e786ba0ef8b72a4120872610a684f46214f564379bec8c4c34f2a05a24b55fc2bd9f6d0b9e1dab1f433174e1c7dfef04a48b51d792d03630f0ad16",
      "networkId": 0,
      "chainId": 0
    }
  ]
}