{
  "hash": "0x50e5cc70c870ab14695b1883e75795ba6b9089a73ce3069e14b809028b0163c8",
  "parentHash": "0xbedf03654c939d8884b80c3a4ec74a9e0d1173354c568bf19427c79098fd3d02",
  "number": 95942,
  "timestamp": 1439732391,
  "nonce": "0x5b2caf57074d5781",
  "difficulty": 3614298463043,
  "gasLimit": {
    "_hex": "0x2fefd8"
  },
  "gasUsed": {
    "_hex": "0x520c"
  },
  "miner": "0xe6A7a1d47ff21B6321162AEA7C6CB457D5476Bca",
  "extraData": "0x476574682f76312e302e312d38326566323666362f6c696e75782f676f312e34",
  "transactions": [
    {
      "hash": "0x6786836be57fe021aae32c99a906d8e84519e52c109d251982895cf5ddfe5b11",
      "blockHash": "0x50e5cc70c870ab14695b1883e75795ba6b9089a73ce3069e14b809028b0163c8",
      "blockNumber": 95942,
      "transactionIndex": 0,
      "confirmations": null,
      "from": "0x2bc0c92E4De6f4C5650B1605B989a11b644F5dE9",
      "gasPrice": {
        "_hex": "0xd5d954326"
      },
      "gasLimit": {
        "_hex": "0x7530"
      },
      "to": "0xBf601a6902c80dfa30210B3Dc6245c7f0989Ea1c",
      "value": {
        "_hex": "0x3b9aca00"
      },
      "nonce": 0,
      "data": "0x00",
      "r": "0x42b25113a5791c845aef0a00d8df3648edefdffe91d2beea61bc552e3b3b5944",
      "s": "0x3af4738acce0fd204b686f288d24f6087b871f437af5f7af3179978daefd10e1",
      "v": 28,
      "creates": null,
      "raw": "0xf86880850d5d95432682753094bf601a6902c80dfa30210b3dc6245c7f0989ea1c843b9aca00001ca042b25113a5791c845aef0a00d8df3648edefdffe91d2beea61bc552e3b3b5944a03af4738acce0fd204b686f288d24f6087b871f437af5f7af3179978daefd10e1",
      "networkId": 0,
      "chainId": 0
    }
  ]
}