{
  "hash": "0x11f24526428d934009a79c66115b5142c068e701d2276ee72221f353a28632e7",
  "parentHash": "0x72cb325a34bc896672c99fa3fe50136de1bb1b7c921fc3c361582a70efcdbc76",
  "number": 117243,
  "timestamp": 1440105912,
  "nonce": "0xe9f7b7caf30bdc87",
  "difficulty": 4316885927250,
  "gasLimit": {
    "_hex": "0x2fefd8"
  },
  "gasUsed": {
    "_hex": "0xa410"
  },
  "miner": "0x0193d941b50d91BE6567c7eE1C0Fe7AF498b4137",
  "extraData": "0x4a5ace9e4e",
  "transactions": [
    {
      "hash": "0x6d9a817229ea07cfdcb7bf77a5d03d0ee9ec0f90c9ba4d15c972993bf71180f4",
      "blockHash": "0x11f24526428d934009a79c66115b5142c068e701d2276ee72221f353a28632e7",
      "blockNumber": 117243,
      "transactionIndex": 0,
      "confirmations": null,
      "from": "0xee5379D0c1ca47327368027455074C26D9952628",
      "gasPrice": {
        "_hex": "0xe0d470439"
      },
      "gasLimit": {
        "_hex": "0x15f90"
      },
      "to": "0x029b539130345336FA435C807F08B86a344A1BFe",
      "value": {
        "_hex": "0x2386f26fc10000"
      },
      "nonce": 27,
      "data": "0x",
      "r": "0xe715890fdadf8b1ab8e1a0014f7b205cfb359820496255c64048d8d150646264",
      "s": "0x6fef96cd63078be542e9d3463abb7b17f5858fda22cfa950156c682476fd654f",
      "v": 27,
      "creates": null,
      "raw": "0xf86c1b850e0d47043983015f9094029b539130345336fa435c807f08b86a344a1bfe872386f26fc10000801ba0e715890fdadf8b1ab8e1a0014f7b205cfb359820496255c64048d8d150646264a06fef96cd63078be542e9d3463abb7b17f5858fda22cfa950156c682476fd654f",
      "networkId": 0,
      "chainId": 0
    },
    {
      "hash": "0xd12d3207abf290a78648dd15797595165530bf329ab3d4aa884ab1b083df206f",
      "blockHash": "0x11f24526428d934009a79c66115b5142c068e701d2276ee72221f353a28632e7",
      "blockNumber": 117243,
      "transactionIndex": 1,
      "confirmations": null,
      "from": "0x007f7f58D3eb5b7510A301eCC749FC1fCDDBE14D",
      "gasPrice": {
        "_hex": "0xba43b7400"
      },
      "gasLimit": {
        "_hex": "0x15f90"
      },
      "to": "0xb1abce2918E21ddb93AA452731a12672A3d9F75a",
      "value": {
        "_hex": "0x4563918244f40000"
      },
      "nonce": 320,
      "data": "0x",
      "r": "0xc982b3ef1d3c720325bb92a636b2599ead62cf82b1cae62ecdd59314bc5c1548",
      "s": "0x5a1e5f6ccf9e2241d0e87d7bb930e6866f59aa0e8fde2ea045b7e2d03beb50be",
      "v": 27,
      "creates": null,
      "raw": "0xf86f820140850ba43b740083015f9094b1abce2918e21ddb93aa452731a12672a3d9f75a884563918244f40000801ba0c982b3ef1d3c720325bb92a636b2599ead62cf82b1cae62ecdd59314bc5c1548a05a1e5f6ccf9e2241d0e87d7bb930e6866f59aa0e8fde2ea045b7e2d03beb50be",
      "networkId": 0,
      "chainId": 0
    }
  ]
}