{
  "hash": "0x8c25b157223364e2af154c58cc20a040d45d636cccab0d64745f12476c1ec32e",
  "parentHash": "0x580e03c69ffb5c97dcad5e5c8c4c2f77fe6b5a88b693443967411d68ce04aa62",
  "number": 64511,
  "timestamp": 1439222044,
  "nonce": "0x307e1e18911499b7",
  "difficulty": 1875690054394,
  "gasLimit": {
    "_hex": "0x2fefd5"
  },
  "gasUsed": {
    "_hex": "0x64568"
  },
  "miner": "0xf927a40C8B7F6E07c5af7FA2155B4864a4112B13",
  "extraData": "0x",
  "transactions": [
    {
      "hash": "0xe0cfe60b782fce070ff47cdbb5b3b2863563c3389f1a2063c216070de00f89aa",
      "blockHash": "0x8c25b157223364e2af154c58cc20a040d45d636cccab0d64745f12476c1ec32e",
      "blockNumber": 64511,
      "transactionIndex": 0,
      "confirmations": null,
      "from": "0xd2Caa39FdB2b5dA4BbA15284B8Ae996536382B90",
      "gasPrice": {
        "_hex": "0xd1220919f"
      },
      "gasLimit": {
        "_hex": "0x15f90"
      },
      "to": "0x793AE8C1b1a160BFc07BFB0d04F85eab1A71F4f2",
      "value": {
        "_hex": "0x0"
      },
      "nonce": 0,
      "data": "0x3ba15036",
      "r": "0x14cb943081c4143b0712ee914b796e14b80cd0f83841ea2ca467348bcc07f077",
      "s": "0x15cf68bc8d05faf49b6f878920f9c399d4df85670953e02600eb1849dc79fdbc",
      "v": 27,
      "creates": null,
      "raw": "0xf86980850d1220919f83015f9094793ae8c1b1a160bfc07bfb0d04f85eab1a71f4f280843ba150361ba014cb943081c4143b0712ee914b796e14b80cd0f83841ea2ca467348bcc07f077a015cf68bc8d05faf49b6f878920f9c399d4df85670953e02600eb1849dc79fdbc",
      "networkId": 0,
      "chainId": 0
    },
    {
      "hash": "0xc41fbd8509dacd6b73f811765bed6a0f03939041df8abee56255dfe482ed10c6",
      "blockHash": "0x8c25b157223364e2af154c58cc20a040d45d636cccab0d64745f12476c1ec32e",
      "blockNumber": 64511,
      "transactionIndex": 1,
      "confirmations": null,
      "from": "0xfEf75e7815A4440D1Ba1f075d70978181C84eF5B",
      "gasPrice": {
        "_hex": "0xd1220919f"
      },
      "gasLimit": {
        "_hex": "0x15f90"
      },
      "to": "0x793AE8C1b1a160BFc07BFB0d04F85eab1A71F4f2",
      "value": {
        "_hex": "0x0"
      },
      "nonce": 0,
      "data": "0x3ba15036",
      "r": "0xc76a32e6c506649bdba6b5dd752aaf5f83f13d161b38292210a897d97879d70c",
      "s": "0x2a632aa3c68ed6bd70cf125345019defb57fa339ab3fec183ca35e16fa4db7b0",
      "v": 28,
      "creates": null,
      "raw": "0xf86980850d1220919f83015f9094793ae8c1b1a160bfc07bfb0d04f85eab1a71f4f280843ba150361ca0c76a32e6c506649bdba6b5dd752aaf5f83f13d161b38292210a897d97879d70ca02a632aa3c68ed6bd70cf125345019defb57fa339ab3fec183ca35e16fa4db7b0",
      "networkId": 0,
      "chainId": 0
    },
    {
      "hash": "0x933820e26b0feab7e1806d005eb346f26f60454e40df47c45b99ec3f5c4cac8b",
      "blockHash": "0x8c25b157223364e2af154c58cc20a040d45d636cccab0d64745f12476c1ec32e",
      "blockNumber": 64511,
      "transactionIndex": 2,
      "confirmations": null,
      "from": "0x88f171cb8C8B0428b309040077D44E9468D3374c",
      "gasPrice": {
        "_hex": "0xd1220919f"
      },
      "gasLimit": {
        "_hex": "0x15f90"
      },
      "to": "0x793AE8C1b1a160BFc07BFB0d04F85eab1A71F4f2",
      "value": {
        "_hex": "0x0"
      },
      "nonce": 0,
      "data": "0x3ba15036",
      "r": "0x5b2ed850a506c10a6d9f464100dba62e649ffab162b45c3bc694a823e8780266",
      "s": "0x5af57f4252453fb817b6cff7411af40bd5399f74ab4158b1bb96406aa9f55a58",
      "v": 27,
      "creates": null,
      "raw": "0xf86980850d1220919f83015f9094793ae8c1b1a160bfc07bfb0d04f85eab1a71f4f280843ba150361ba05b2ed850a506c10a6d9f464100dba62e649ffab162b45c3bc694a823e8780266a05af57f4252453fb817b6cff7411af40bd5399f74ab4158b1bb96406aa9f55a58",
      "networkId": 0,
      "chainId": 0
    },
    {
      "hash": "0xdaf5d2feaed570171a2afe047706597273ef106f4bc0b50d4a6d7420479c66be",
      "blockHash": "0x8c25b157223364e2af154c58cc20a040d45d636cccab0d64745f12476c1ec32e",
      "blockNumber": 64511,
      "transactionIndex": 3,
      "confirmations": null,
      "from": "0x298B0f31c60e320a4bDeBBB571C905453314F8eB",
      "gasPrice": {
        "_hex": "0xd1220919f"
      },
      "gasLimit": {
        "_hex": "0x15f90"
      },
      "to": "0x793AE8C1b1a160BFc07BFB0d04F85eab1A71F4f2",
      "value": {
        "_hex": "0x0"
      },
      "nonce": 0,
      "data": "0x3ba15036",
      "r": "0x8a9d279f6f7f3c1f43f9b52f35264a9c356ee28137e6d74041c4b903d338975c",
      "s": "0x02ac534a1eb4bf7b4594c135b31191da775cfa0910b73c16581c7ef5eb6e6d36",
      "v": 27,
      "creates": null,
      "raw": "0xf86980850d1220919f83015f9094793ae8c1b1a160bfc07bfb0d04f85eab1a71f4f280843ba150361ba08a9d279f6f7f3c1f43f9b52f35264a9c356ee28137e6d74041c4b903d338975ca002ac534a1eb4bf7b4594c135b31191da775cfa0910b73c16581c7ef5eb6e6d36",
      "networkId": 0,
      "chainId": 0
    },
    {
      "hash": "0x16e834f4d2a4cae0874d9e6fc345352bde65ec7345c38b147faf63680537b4ae",
      "blockHash": "0x8c25b157223364e2af154c58cc20a040d45d636cccab0d64745f12476c1ec32e",
      "blockNumber": 64511,
      "transactionIndex": 4,
      "confirmations": null,
      "from": "0x90F7e7d1E7411BCF05271E68cb58C97D075035Ba",
      "gasPrice": {
        "_hex": "0xd1220919f"
      },
      "gasLimit": {
        "_hex": "0x15f90"
      },
      "to": "0x793AE8C1b1a160BFc07BFB0d04F85eab1A71F4f2",
      "value": {
        "_hex": "0x0"
      },
      "nonce": 0,
      "data": "0x3ba15036",
      "r": "0xee45bb9fc54c6f823dd025a6fc0186b0db7e72d209913ebfe7052b8cecb422ce",
      "s": "0x5d877b4fbd84af4680596cb34993dbd96d62247397f23c26e9d1a5d86dbf7f39",
      "v": 27,
      "creates": null,
      "raw": "0xf86980850d1220919f83015f9094793ae8c1b1a160bfc07bfb0d04f85eab1a71f4f280843ba150361ba0ee45bb9fc54c6f823dd025a6fc0186b0db7e72d209913ebfe7052b8cecb422cea05d877b4fbd84af4680596cb34993dbd96d62247397f23c26e9d1a5d86dbf7f39",
      "networkId": 0,
      "chainId": 0
    },
    {
      "hash": "0x951c01cb144edc317c6720b0edbdde56e55ac2f838c1dee680e78a93bfcf31f9",
      "blockHash": "0x8c25b157223364e2af154c58cc20a040d45d636cccab0d64745f12476c1ec32e",
      "blockNumber": 64511,
      "transactionIndex": 5,
      "confirmations": null,
      "from": "0x8Ab7Ee7f086b6De601892c21486bF45F934741dE",
      "gasPrice": {
        "_hex": "0xd1220919f"
      },
      "gasLimit": {
        "_hex": "0x15f90"
      },
      "to": "0x793AE8C1b1a160BFc07BFB0d04F85eab1A71F4f2",
      "value": {
        "_hex": "0x0"
      },
      "nonce": 0,
      "data": "0x3ba15036",
      "r": "0x577e174d76f2ed62efc014b3e4b6ed9fd75365189abf6be1d1e728c54591e8e2",
      "s": "0x3b7b0b5f05d0f2b1e8cf515c60c2ef3f644543c7bb72cddca51c970a61f87fc5",
      "v": 27,
      "creates": null,
      "raw": "0xf86980850d1220919f83015f9094793ae8c1b1a160bfc07bfb0d04f85eab1a71f4f280843ba150361ba0577e174d76f2ed62efc014b3e4b6ed9fd75365189abf6be1d1e728c54591e8e2a03b7b0b5f05d0f2b1e8cf515c60c2ef3f644543c7bb72cddca51c970a61f87fc5",
      "networkId": 0,
      "chainId": 0
    },
    {
      "hash": "0xae797a621f943b73692b812512ec74a35b1198ff928b0ac364453d8c246761dc",
      "blockHash": "0x8c25b157223364e2af154c58cc20a040d45d636cccab0d64745f12476c1ec32e",
      "blockNumber": 64511,
      "transactionIndex": 6,
      "confirmations": null,
      "from": "0xdcBB43252786631B2ecD687720AfE370fcD203fC",
      "gasPrice": {
        "_hex": "0xd1220919f"
      },
      "gasLimit": {
        "_hex": "0x15f90"
      },
      "to": "0x793AE8C1b1a160BFc07BFB0d04F85eab1A71F4f2",
      "value": {
        "_hex": "0x0"
      },
      "nonce": 0,
      "data": "0x3ba15036",
      "r": "0x78e50450a684b30eba6ef36acc13e0af9f4dd774151e4507fbc133939f5cd5f9",
      "s": "0x70cd02bff04830b48935d29fade0772629c6d6628480782f9cb327d06a52868c",
      "v": 28,
      "creates": null,
      "raw": "0xf86980850d1220919f83015f9094793ae8c1b1a160bfc07bfb0d04f85eab1a71f4f280843ba150361ca078e50450a684b30eba6ef36acc13e0af9f4dd774151e4507fbc133939f5cd5f9a070cd02bff04830b48935d29fade0772629c6d6628480782f9cb327d06a52868c",
      "networkId": 0,
      "chainId": 0
    },
    {
      "hash": "0xaff17d84225839677318a7e9161ad83f69192a4ddd6e6d509a26f7f5e03ab3a1",
      "blockHash": "0x8c25b157223364e2af154c58cc20a040d45d636cccab0d64745f12476c1ec32e",
      "blockNumber": 64511,
      "transactionIndex": 7,
      "confirmations": null,
      "from": "0xD0d70F5336Ee17F3f2A5B5c7056Aa73f5c853926",
      "gasPrice": {
        "_hex": "0xd1220919f"
      },
      "gasLimit": {
        "_hex": "0x15f90"
      },
      "to": "0x793AE8C1b1a160BFc07BFB0d04F85eab1A71F4f2",
      "value": {
        "_hex": "0x0"
      },
      "nonce": 0,
      "data": "0x3ba15036",
      "r": "0x46ed68e89d720c0402f4742aa9e676ba4894a74413ca7ba5574d2c8c5893e638",
      "s": "0x0fe660cf272b7a6a2bc4d63ffd9416e6b32c7a59a71a93f1edb33283d61caa59",
      "v": 27,
      "creates": null,
      "raw": "0xf86980850d1220919f83015f9094793ae8c1b1a160bfc07bfb0d04f85eab1a71f4f280843ba150361ba046ed68e89d720c0402f4742aa9e676ba4894a74413ca7ba5574d2c8c5893e638a00fe660cf272b7a6a2bc4d63ffd9416e6b32c7a59a71a93f1edb33283d61caa59",
      "networkId": 0,
      "chainId": 0
    },
    {
      "hash": "0x330f265c2758d82300f6579497063eb1b8e5f43375b6fe981d7b4d121ce2ed0b",
      "blockHash": "0x8c25b157223364e2af154c58cc20a040d45d636cccab0d64745f12476c1ec32e",
      "blockNumber": 64511,
      "transactionIndex": 8,
      "confirmations": null,
      "from": "0x6747f922385c9a6F9cfDf095F34345257DD597bE",
      "gasPrice": {
        "_hex": "0xba43b7400"
      },
      "gasLimit": {
        "_hex": "0x5208"
      },
      "to": "0xD8aACaEebf46da28222493f28ec0742c59934cA0",
      "value": {
        "_hex": "0x1fcbfa42bd6000"
      },
      "nonce": 4,
      "data": "0x",
      "r": "0xbb6a337490362135c5714dc13d6313ac3e94a335d9157a8e08e7c20dff37ab97",
      "s": "0x22ff7ae2e637cf369f13a0527320781a8d9f5c6b62553690d09a9398f8205920",
      "v": 28,
      "creates": null,
      "raw": "0xf86b04850ba43b740082520894d8aacaeebf46da28222493f28ec0742c59934ca0871fcbfa42bd6000801ca0bb6a337490362135c5714dc13d6313ac3e94a335d9157a8e08e7c20dff37ab97a022ff7ae2e637cf369f13a0527320781a8d9f5c6b62553690d09a9398f8205920",
      "networkId": 0,
      "chainId": 0
    }
  ]
}