{
  "hash": "0xd09374b5e74ec4eda512170fb104b094babb02971fd1bf139e09289d25fec612",
  "parentHash": "0xa57a077fcbee308c239caf1bf445b2e5c707d0c8caa4652578163e484ee39bd0",
  "number": 92214,
  "timestamp": 1439668688,
  "nonce": "0xe6413451b56ee272",
  "difficulty": 3473987677043,
  "gasLimit": {
    "_hex": "0x2fefd8"
  },
  "gasUsed": {
    "_hex": "0x5208"
  },
  "miner": "0xbb7B8287f3F0a933474a79eAe42CBCa977791171",
  "extraData": "0x476574682f4c5649562f76312e302e312f6c696e75782f676f312e342e32",
  "transactions": [
    {
      "hash": "0xc59192f4085a40cbe2ff45e9f2066061d969d3b406af671c6bf0e80d7b55b967",
      "blockHash": "0xd09374b5e74ec4eda512170fb104b094babb02971fd1bf139e09289d25fec612",
      "blockNumber": 92214,
      "transactionIndex": 0,
      "confirmations": null,
      "from": "0xadB278005820C084109D69a604a0fce4CeD4aDa4",
      "gasPrice": {
        "_hex": "0xcf330d384"
      },
      "gasLimit": {
        "_hex": "0x15f90"
      },
      "to": "0x0EB0AcFB7C81a83296b8C023673f362e8FCd88bD",
      "value": {
        "_hex": "0x6adbe53422820000"
      },
      "nonce": 1,
      "data": "0x",
      "r": "0x86eceef8b40d6ee02f5b3d14e422c2e7faeb3ac830d2c5a419ce703eede9d5f2",
      "s": "0x3b231c0d15829585c6d7a8482385f7f350f39b9cfb91abe854d7d5f0b189709a",
      "v": 27,
      "creates": null,
      "raw": "0xf86d01850cf330d38483015f90940eb0acfb7c81a83296b8c023673f362e8fcd88bd886adbe53422820000801ba086eceef8b40d6ee02f5b3d14e422c2e7faeb3ac830d2c5a419ce703eede9d5f2a03b231c0d15829585c6d7a8482385f7f350f39b9cfb91abe854d7d5f0b189709a",
      "networkId": 0,
      "chainId": 0
    }
  ]
}