{
  "hash": "0x95cfffdd5d31103348e4b845be222cb644af12d323946ac3802ebd0df239462d",
  "parentHash": "0xb51b85fccf1e5510d91001d9c334582e2db7db728d2863112b1a2d75a6499ba0",
  "number": 63360,
  "timestamp": 1439203114,
  "nonce": "0x206460c8419d3d9b",
  "difficulty": 1828022757483,
  "gasLimit": {
    "_hex": "0x2fefd8"
  },
  "gasUsed": {
    "_hex": "0x546c"
  },
  "miner": "0xf927a40C8B7F6E07c5af7FA2155B4864a4112B13",
  "extraData": "0x476574682f76312e302e312f6c696e75782f676f312e342e32",
  "transactions": [
    {
      "hash": "0x1d9deaec0e9dd2709c2342e36018d1c22386f667d83714280f3f780647b33c13",
      "blockHash": "0x95cfffdd5d31103348e4b845be222cb644af12d323946ac3802ebd0df239462d",
      "blockNumber": 63360,
      "transactionIndex": 0,
      "confirmations": null,
      "from": "0x66Ec16EE9CaAb411c55a6629E318DE6eE216491D",
      "gasPrice": {
        "_hex": "0x110c8f7d8de"
      },
      "gasLimit": {
        "_hex": "0xc350"
      },
      "to": "0x2910543Af39abA0Cd09dBb2D50200b3E800A63D2",
      "value": {
        "_hex": "0x1b1ae4d6e2ef500000"
      },
      "nonce": 0,
      "data": "0x454e4444394d434747",
      "r": "0x91ad778bfeea9598463ef0e2f5d0980af5dd5d066a7d25ed3afe615639160971",
      "s": "0x4cb36ad858d725682d6ee6f598001094572dc2b04fc56dca5010ee92c5856ab5",
      "v": 27,
      "creates": null,
      "raw": "0xf87780860110c8f7d8de82c350942910543af39aba0cd09dbb2d50200b3e800a63d2891b1ae4d6e2ef50000089454e4444394d4347471ba091ad778bfeea9598463ef0e2f5d0980af5dd5d066a7d25ed3afe615639160971a04cb36ad858d725682d6ee6f598001094572dc2b04fc56dca5010ee92c5856ab5",
      "networkId": 0,
      "chainId": 0
    }
  ]
}