{
  "hash": "0xbe9f6d82a17093bf90ec8b337441ced92d632138da5133cd51ca7aa56f968379",
  "parentHash": "0x5afe51fb81eb73a0341b41f50b4f64a888298680119a2f5185b60599cf5bf698",
  "number": 91214,
  "timestamp": 1439652118,
  "nonce": "0x3789af873239dbef",
  "difficulty": 3447363821674,
  "gasLimit": {
    "_hex": "0x2fefd8"
  },
  "gasUsed": {
    "_hex": "0xf87c"
  },
  "miner": "0xf8E0CA3Ed80bd541b94BEdCf259e8CF2141A9523",
  "extraData": "0x476574682f76312e302e312f77696e646f77732f676f312e342e32",
  "transactions": [
    {
      "hash": "0xfc9d72f459c87b648252cf11ca222dd963a9aea0d5e90c02591b3ae71968edd2",
      "blockHash": "0xbe9f6d82a17093bf90ec8b337441ced92d632138da5133cd51ca7aa56f968379",
      "blockNumber": 91214,
      "transactionIndex": 0,
      "confirmations": null,
      "from": "0x849aB80790b28fF1FfD6Ba394eFc7463105C36f7",
      "gasPrice": {
        "_hex": "0x110c8f7d8de"
      },
      "gasLimit": {
        "_hex": "0xc350"
      },
      "to": "0x2910543Af39abA0Cd09dBb2D50200b3E800A63D2",
      "value": {
        "_hex": "0x6f05b59d3b20000"
      },
      "nonce": 1,
      "data": "0x454e36454d46314452",
      "r": "0xd0c3cbde8eef3c0583c7ea10287f2f0ba7ea2da9f2bf5dd34d52cb4bce862c1d",
      "s": "0x9a953ac7e1adb98333bcdbe2ef310235dae167923d0252277748bf92f69c7dd8",
      "v": 28,
      "creates": null,
      "raw": "0xf87601860110c8f7d8de82c350942910543af39aba0cd09dbb2d50200b3e800a63d28806f05b59d3b2000089454e36454d463144521ca0d0c3cbde8eef3c0583c7ea10287f2f0ba7ea2da9f2bf5dd34d52cb4bce862c1da09a953ac7e1adb98333bcdbe2ef310235dae167923d0252277748bf92f69c7dd8",
      "networkId": 0,
      "chainId": 0
    },
    {
      "hash": "0xa7fee061d790e2d0ac58d4ccaf9c212901adc20d01ffa8d24a931fbb65ab5785",
      "blockHash": "0xbe9f6d82a17093bf90ec8b337441ced92d632138da5133cd51ca7aa56f968379",
      "blockNumber": 91214,
      "transactionIndex": 1,
      "confirmations": null,
      "from": "0x9900467341E2d122D382794f203a0Fa60f42e508",
      "gasPrice": {
        "_hex": "0xd436f5879"
      },
      "gasLimit": {
        "_hex": "0x15f90"
      },
      "to": "0x3A441D091C9ab611250C154646E2C9cf65abEBC4",
      "value": {
        "_hex": "0x2fe0dcb89b190000"
      },
      "nonce": 2,
      "data": "0x",
      "r": "0x30a1a31422a030ff3df0ecc567af0e756496d784c4f00d6c01bc29deab33ec65",
      "s": "0x396b69f3bef9b2060ec33a95e8ffd4039740b89094439617e5421e9206f3d0ce",
      "v": 28,
      "creates": null,
      "raw": "0xf86d02850d436f587983015f90943a441d091c9ab611250c154646e2c9cf65abebc4882fe0dcb89b190000801ca030a1a31422a030ff3df0ecc567af0e756496d784c4f00d6c01bc29deab33ec65a0396b69f3bef9b2060ec33a95e8ffd4039740b89094439617e5421e9206f3d0ce",
      "networkId": 0,
      "chainId": 0
    },
    {
      "hash": "0x599c3ddf9705673a30072c96546b411cfc39dbb69b890c2e10b06bbabbef68d6",
      "blockHash": "0xbe9f6d82a17093bf90ec8b337441ced92d632138da5133cd51ca7aa56f968379",
      "blockNumber": 91214,
      "transactionIndex": 2,
      "confirmations": null,
      "from": "0x379965B927911bcF18D2d4F062Edf10c45847069",
      "gasPrice": {
        "_hex": "0xba43b7400"
      },
      "gasLimit": {
        "_hex": "0x5267"
      },
      "to": "0xE9820EfC74A9fe5fb68bf1e0FBf9945c1302bC0B",
      "value": {
        "_hex": "0x31708ae0045440000"
      },
      "nonce": 3,
      "data": "0x",
      "r": "0xf3f08e95b6ff6cc81252b7d5ec58b913d1607283408e1e7e77702b7b2e82085b",
      "s": "0x14e36d240288a8c63367629472207facd5cf6cb99ce2bd05f5f10c22b5137713",
      "v": 28,
      "creates": null,
      "raw": "0xf86d03850ba43b740082526794e9820efc74a9fe5fb68bf1e0fbf9945c1302bc0b89031708ae0045440000801ca0f3f08e95b6ff6cc81252b7d5ec58b913d1607283408e1e7e77702b7b2e82085ba014e36d240288a8c63367629472207facd5cf6cb99ce2bd05f5f10c22b5137713",
      "networkId": 0,
      "chainId": 0
    }
  ]
}