{
  "hash": "0xc25f8e68746ac60c4cd3752bf7d85f47232b7d21461d95eb0546361f24f54218",
  "parentHash": "0xc909ab9a7a0ab267b5d5663c30ac0dc65fa4c3f00a229f53beb9104ee22c7da3",
  "number": 88124,
  "timestamp": 1439603035,
  "nonce": "0xe16d1463f8238eca",
  "difficulty": 3205076608049,
  "gasLimit": {
    "_hex": "0x2fefd8"
  },
  "gasUsed": {
    "_hex": "0x5208"
  },
  "miner": "0xcf00A85f3826941e7A25BFcF9Aac575d40410852",
  "extraData": "0x476574682f76312e302e312f77696e646f77732f676f312e342e32",
  "transactions": [
    {
      "hash": "0x2c9a3b3bb6c8fee9abd521272848d2db575c0d8ccc195d778cf2f050d6da8db7",
      "blockHash": "0xc25f8e68746ac60c4cd3752bf7d85f47232b7d21461d95eb0546361f24f54218",
      "blockNumber": 88124,
      "transactionIndex": 0,
      "confirmations": null,
      "from": "0x120A270bbC009644e35F0bB6ab13f95b8199c4ad",
      "gasPrice": {
        "_hex": "0xd5d28f015"
      },
      "gasLimit": {
        "_hex": "0x3d090"
      },
      "to": "0x86271558801531D5ccc63a57d6980c476648fc3a",
      "value": {
        "_hex": "0x1043561a8829300000"
      },
      "nonce": 510,
      "data": "0x",
      "r": "0x94e89a58e9fd69a5652e65076949df6f4a7a9bbeac586438ebba3e89127f2de2",
      "s": "0x4c9a96eba42d1fa1ca967946df2e20bdab2870e50261f4ccc1b7077dfb72bca9",
      "v": 27,
      "creates": null,
      "raw": "0xf8708201fe850d5d28f0158303d0909486271558801531d5ccc63a57d6980c476648fc3a891043561a8829300000801ba094e89a58e9fd69a5652e65076949df6f4a7a9bbeac586438ebba3e89127f2de2a04c9a96eba42d1fa1ca967946df2e20bdab2870e50261f4ccc1b7077dfb72bca9",
      "networkId": 0,
      "chainId": 0
    }
  ]
}