{
  "hash": "0xb628d2125a0864c646908d8ed267e5fcb4f5aef30004756572c623f71ffb4096",
  "parentHash": "0x819aac22b27da5a8b484b3dfac77853f2904beb9ad18d64315f4305fb50779f6",
  "number": 109352,
  "timestamp": 1439955160,
  "nonce": "0xbca1bf0162963211",
  "difficulty": 4455934013042,
  "gasLimit": {
    "_hex": "0x2fefd8"
  },
  "gasUsed": {
    "_hex": "0x5208"
  },
  "miner": "0x9D49F602b0fdb924Bd63DDE2Bd0907E4A07c63a7",
  "extraData": "0x476574682f76312e302e312f6c696e75782f676f312e342e32",
  "transactions": [
    {
      "hash": "0xf8294d0401ed36d2be8ac9fe976d76b924b3cddb2b9177da8a83bc7c89cd21b2",
      "blockHash": "0xb628d2125a0864c646908d8ed267e5fcb4f5aef30004756572c623f71ffb4096",
      "blockNumber": 109352,
      "transactionIndex": 0,
      "confirmations": null,
      "from": "0x86d3856ad0105B9d4199936c1fd203664BA325dC",
      "gasPrice": {
        "_hex": "0xd4ad1c76d"
      },
      "gasLimit": {
        "_hex": "0x5208"
      },
      "to": "0x32Be343B94f860124dC4fEe278FDCBD38C102D88",
      "value": {
        "_hex": "0xe2382363252dc00"
      },
      "nonce": 26,
      "data": "0x",
      "r": "0x26465257eff84cb802c0141f56007b52394a5504f3dab38e087c286936fde8ec",
      "s": "0x3343a149d3e3273394bf8603925a91c74b4a70d986f51df29cb11e7b04264716",
      "v": 27,
      "creates": null,
      "raw": "0xf86c1a850d4ad1c76d8252089432be343b94f860124dc4fee278fdcbd38c102d88880e2382363252dc00801ba026465257eff84cb802c0141f56007b52394a5504f3dab38e087c286936fde8eca03343a149d3e3273394bf8603925a91c74b4a70d986f51df29cb11e7b04264716",
      "networkId": 0,
      "chainId": 0
    }
  ]
}