{
  "hash": "0xee3fd99df001d6e699105f4310af872ebae99b922c4ea11f7ca4483279c47b9b",
  "parentHash": "0xebe8407970014742af34d9e5684927a268d3c387a34087b7a9467a2e57d89560",
  "number": 59318,
  "timestamp": 1439136113,
  "nonce": "0x00c8ed93a7a06088",
  "difficulty": 1703061814137,
  "gasLimit": {
    "_hex": "0x2fefd8"
  },
  "gasUsed": {
    "_hex": "0x5208"
  },
  "miner": "0xeB1325C8D9d3ea8D74aC11F4B00F1B2367686319",
  "extraData": "0x476574682f76312e302e312f77696e646f77732f676f312e342e32",
  "transactions": [
    {
      "hash": "0xc602e99042aa3c09761d6918f6f5b4d298bb3b8bd79e650e62b6369d489e9ab5",
      "blockHash": "0xee3fd99df001d6e699105f4310af872ebae99b922c4ea11f7ca4483279c47b9b",
      "blockNumber": 59318,
      "transactionIndex": 0,
      "confirmations": null,
      "from": "0x00ec3B9E2e7Ba7FFBd1D77d100a29f8055C258Bb",
      "gasPrice": {
        "_hex": "0x2000000000"
      },
      "gasLimit": {
        "_hex": "0x5208"
      },
      "to": "0x008B1D771AF0dCFd83C30D9D93f3B83CdF18BebA",
      "value": {
        "_hex": "0x11c37937e08000"
      },
      "nonce": 7,
      "data": "0x",
      "r": "0x49c0b2e002045bb945cab74d6c1f664b7f6dfc9fb43941492158a1b1d71afe55",
      "s": "0x27ab177d13d6554043bb0893b6b23c89d16c3147fbe29c3abcc9cc05d71a2740",
      "v": 28,
      "creates": null,
      "raw": "0xf86b0785200000000082520894008b1d771af0dcfd83c30d9d93f3b83cdf18beba8711c37937e08000801ca049c0b2e002045bb945cab74d6c1f664b7f6dfc9fb43941492158a1b1d71afe55a027ab177d13d6554043bb0893b6b23c89d16c3147fbe29c3abcc9cc05d71a2740",
      "networkId": 0,
      "chainId": 0
    }
  ]
}