{
  "hash": "0x3a3ffd887e7d6db50cd5a4654e5db824e406afc15bbe29e2252d9cbdba7ece37",
  "parentHash": "0xcb3bfe41f35c44053ef14c5b3acf1f2e21b12aaf3a428066138f8858a128c30c",
  "number": 114648,
  "timestamp": 1440043969,
  "nonce": "0x148fa9aff7cd6a92",
  "difficulty": 4501215852973,
  "gasLimit": {
    "_hex": "0x2fefd8"
  },
  "gasUsed": {
    "_hex": "0x5208"
  },
  "miner": "0x52bc44d5378309EE2abF1539BF71dE1b7d7bE3b5",
  "extraData": "0x476574682f76312e302e312d65626434373230372f6c696e75782f676f312e34",
  "transactions": [
    {
      "hash": "0x410ab56c38132901f7e8f30cbf7ec9837e2e80ee99063a9c4aa9c42aca36ab52",
      "blockHash": "0x3a3ffd887e7d6db50cd5a4654e5db824e406afc15bbe29e2252d9cbdba7ece37",
      "blockNumber": 114648,
      "transactionIndex": 0,
      "confirmations": null,
      "from": "0x3d1FC29b89717742e275fB98A8D2a26F216f49F2",
      "gasPrice": {
        "_hex": "0xfef3ec9e61"
      },
      "gasLimit": {
        "_hex": "0x15f90"
      },
      "to": "0xf5EfDc94e8AD7D73B2bf860071004656e7Ea38c4",
      "value": {
        "_hex": "0x98a7d9b8314c0000"
      },
      "nonce": 3,
      "data": "0x",
      "r": "0x28bd58ed30b9975d27a2520eac9a8dd12de492753accec47b5b395227346ea19",
      "s": "0x0c365bcb7c326506e647c559b4025161662e992846092cde913a5109ef3c5ccf",
      "v": 27,
      "creates": null,
      "raw": "0xf86d0385fef3ec9e6183015f9094f5efdc94e8ad7d73b2bf860071004656e7ea38c48898a7d9b8314c0000801ba028bd58ed30b9975d27a2520eac9a8dd12de492753accec47b5b395227346ea19a00c365bcb7c326506e647c559b4025161662e992846092cde913a5109ef3c5ccf",
      "networkId": 0,
      "chainId": 0
    }
  ]
}