{
  "hash": "0x216010494913b7704b0ab1e5aff271d22f7f961494b5e6e07d69e5207d2ec9ef",
  "parentHash": "0x855b7b63c04c90df1e130afe4d917f22fd4b30322d26969835d30fd6593461e4",
  "number": 60747,
  "timestamp": 1439160926,
  "nonce": "0x2767df4fed2ed03e",
  "difficulty": 1728742158538,
  "gasLimit": {
    "_hex": "0x2fd7e7"
  },
  "gasUsed": {
    "_hex": "0x5208"
  },
  "miner": "0x70C6b45fe0A5116E97B112B806A76E2F51E24413",
  "extraData": "0x476574682f76312e302e302f77696e646f77732f676f312e342e32",
  "transactions": [
    {
      "hash": "0x7689a2702742379d68b2d5e6fb5a23855a332803382436e999b6d4cd9755f691",
      "blockHash": "0x216010494913b7704b0ab1e5aff271d22f7f961494b5e6e07d69e5207d2ec9ef",
      "blockNumber": 60747,
      "transactionIndex": 0,
      "confirmations": null,
      "from": "0xB0798DE851A7C081C98966a7A0eE5C14231FB447",
      "gasPrice": {
        "_hex": "0x10f3f5e96b1"
      },
      "gasLimit": {
        "_hex": "0x15f90"
      },
      "to": "0xAba5352947CBaEAcf6B2E11E03EaE0008176aeDF",
      "value": {
        "_hex": "0x14620c57dddae0000"
      },
      "nonce": 0,
      "data": "0x",
      "r": "0x3a7b9a6a554f4a6d6ee6eb073ec3973a1c512999df817f4bc7c392a04044a8b9",
      "s": "0x11abdd2345dca407fa5fce9eeedb91aac47aab1ed4e0577fd2e01bfe92743b35",
      "v": 27,
      "creates": null,
      "raw": "0xf86f8086010f3f5e96b183015f9094aba5352947cbaeacf6b2e11e03eae0008176aedf89014620c57dddae0000801ba03a7b9a6a554f4a6d6ee6eb073ec3973a1c512999df817f4bc7c392a04044a8b9a011abdd2345dca407fa5fce9eeedb91aac47aab1ed4e0577fd2e01bfe92743b35",
      "networkId": 0,
      "chainId": 0
    }
  ]
}