{
  "hash": "0x879c969ce36b8823041f0196de0fbc161002869b4fd947cb788ec49d9da7ade3",
  "parentHash": "0xbaede2e6af8eadb1f71b8f1c9bc64bf0e9992477e279a3dd2a8cc13ff2580faf",
  "number": 48292,
  "timestamp": 1438954776,
  "nonce": "0x68288705e0db90ba",
  "difficulty": 1457198162378,
  "gasLimit": {
    "_hex": "0x1523e"
  },
  "gasUsed": {
    "_hex": "0x546c"
  },
  "miner": "0xf8E0CA3Ed80bd541b94BEdCf259e8CF2141A9523",
  "extraData": "0x476574682f76312e302e312f77696e646f77732f676f312e342e32",
  "transactions": [
    {
      "hash": "0x64d64e676ca21de4ef903b13c53bebcba20fbc4f97397b85727309f93d170d88",
      "blockHash": "0x879c969ce36b8823041f0196de0fbc161002869b4fd947cb788ec49d9da7ade3",
      "blockNumber": 48292,
      "transactionIndex": 0,
      "confirmations": null,
      "from": "0x761E6CaEC189C230A162EC006530193E67cf9D19",
      "gasPrice": {
        "_hex": "0xe009a341c"
      },
      "gasLimit": {
        "_hex": "0x61a8"
      },
      "to": "0x2910543Af39abA0Cd09dBb2D50200b3E800A63D2",
      "value": {
        "_hex": "0x281d901f4fdd100000"
      },
      "nonce": 1,
      "data": "0x454e474e3341455147",
      "r": "0xb3ce753739747c019a8bd9d3cf665019de7757f615b3b95df6bcd2929abffddb",
      "s": "0x3edc0fb6e70291490944c6d3caa9230c9f7c3639ce3fe9829c6aa8eb2915a360",
      "v": 28,
      "creates": null,
      "raw": "0xf87601850e009a341c8261a8942910543af39aba0cd09dbb2d50200b3e800a63d289281d901f4fdd10000089454e474e33414551471ca0b3ce753739747c019a8bd9d3cf665019de7757f615b3b95df6bcd2929abffddba03edc0fb6e70291490944c6d3caa9230c9f7c3639ce3fe9829c6aa8eb2915a360",
      "networkId": 0,
      "chainId": 0
    }
  ]
}