{
  "hash": "0x13083e22b8a4e85483c381450bf3bbf78210262139d0486fa5888d067d791c39",
  "parentHash": "0x1755ee9c64f0113e1e40d5e4eb203c442c6eac658a9d722959343838a3441f5b",
  "number": 46471,
  "timestamp": 1438923716,
  "nonce": "0x13f6a65cd99935e9",
  "difficulty": 1466795753288,
  "gasLimit": {
    "_hex": "0x62f1"
  },
  "gasUsed": {
    "_hex": "0x5208"
  },
  "miner": "0xa50ec0D39fa913E62f1Bae7074E6F36caA71855b",
  "extraData": "0x476574682f76312e302e302f6c696e75782f676f312e342e32",
  "transactions": [
    {
      "hash": "0xf371a994f321da8d36c5799aeadae9991f442b2912e605df59882d95f950a01c",
      "blockHash": "0x13083e22b8a4e85483c381450bf3bbf78210262139d0486fa5888d067d791c39",
      "blockNumber": 46471,
      "transactionIndex": 0,
      "confirmations": null,
      "from": "0x7a19C3C33f2a800b2FA361fD24277cAb0A1C1dB1",
      "gasPrice": {
        "_hex": "0x746a528800"
      },
      "gasLimit": {
        "_hex": "0x5208"
      },
      "to": "0x32Be343B94f860124dC4fEe278FDCBD38C102D88",
      "value": {
        "_hex": "0xdbb6901e53fc000"
      },
      "nonce": 0,
      "data": "0x",
      "r": "0x220e7b7038dcbe4d880aea690ae0f179fd9dc5d28386caa655b4c283f7108452",
      "s": "0x3f30aea3dc0ce474d73ce78761b0cf6ad67dc8dfbeefe2fac1f3227b9231a084",
      "v": 28,
      "creates": null,
      "raw": "0xf86c8085746a5288008252089432be343b94f860124dc4fee278fdcbd38c102d88880dbb6901e53fc000801ca0220e7b7038dcbe4d880aea690ae0f179fd9dc5d28386caa655b4c283f7108452a03f30aea3dc0ce474d73ce78761b0cf6ad67dc8dfbeefe2fac1f3227b9231a084",
      "networkId": 0,
      "chainId": 0
    }
  ]
}