{
  "hash": "0x7a95b85d27a46ae3ef022dc826aebcb747d9cb4ceb6b9989f178b206b0b3d2ab",
  "parentHash": "0x7418dd2546977c497ec228d5aefc96d55df4c51def2566fbfe2f830368f3f809",
  "number": 89920,
  "timestamp": 1439631203,
  "nonce": "0x22d38a1ca77b98ca",
  "difficulty": 3338553138579,
  "gasLimit": {
    "_hex": "0x2fefd8"
  },
  "gasUsed": {
    "_hex": "0x5208"
  },
  "miner": "0x070c8963Cf4abCe1BFaF5973F2E0f7697925B242",
  "extraData": "0x",
  "transactions": [
    {
      "hash": "0xfa91249eaf0071fd29cf7e34a3911629a0d674880c6de31cd0dd577c3bbe8833",
      "blockHash": "0x7a95b85d27a46ae3ef022dc826aebcb747d9cb4ceb6b9989f178b206b0b3d2ab",
      "blockNumber": 89920,
      "transactionIndex": 0,
      "confirmations": null,
      "from": "0x30beD8049947963394D93412326225E4e3123601",
      "gasPrice": {
        "_hex": "0xd1864f300"
      },
      "gasLimit": {
        "_hex": "0x5208"
      },
      "to": "0x32Be343B94f860124dC4fEe278FDCBD38C102D88",
      "value": {
        "_hex": "0x161de00ac3e6c8000"
      },
      "nonce": 6,
      "data": "0x",
      "r": "0x7f904630762d97f8ee77672e0c93e62b11fe27bf14d5076c5a91e66d11bef80e",
      "s": "0x68851cb28fb9daac2ec8e695a22d76f481bd08cad30192c170730e56c4628365",
      "v": 28,
      "creates": null,
      "raw": "0xf86d06850d1864f3008252089432be343b94f860124dc4fee278fdcbd38c102d88890161de00ac3e6c8000801ca07f904630762d97f8ee77672e0c93e62b11fe27bf14d5076c5a91e66d11bef80ea068851cb28fb9daac2ec8e695a22d76f481bd08cad30192c170730e56c4628365",
      "networkId": 0,
      "chainId": 0
    }
  ]
}