{
  "hash": "0xfca0255999160dad8b6c8460a08ef12e5b8d4b14d7c26793c661968e8445cae3",
  "parentHash": "0x2c59d4b6b92a5b8f3b7dcd8ce369c648b814555427914dc7fb824973bf9b12f3",
  "number": 49854,
  "timestamp": 1438980164,
  "nonce": "0x5a887738dba8835d",
  "difficulty": 1495852845984,
  "gasLimit": {
    "_hex": "0x42560"
  },
  "gasUsed": {
    "_hex": "0x5208"
  },
  "miner": "0xbe4532E1B1Db5c913Cf553be76180c1777055403",
  "extraData": "0x476574682f686261722f76312e302e312f6c696e75782f676f312e342e32",
  "transactions": [
    {
      "hash": "0x025b672e2f983754dc569efc76788546a8f529c17377fda32864fbd1c75b85e7",
      "blockHash": "0xfca0255999160dad8b6c8460a08ef12e5b8d4b14d7c26793c661968e8445cae3",
      "blockNumber": 49854,
      "transactionIndex": 0,
      "confirmations": null,
      "from": "0x9def82c26c0c5fc4E0e7eC2f64425314E3F7B476",
      "gasPrice": {
        "_hex": "0xcce416600"
      },
      "gasLimit": {
        "_hex": "0x5208"
      },
      "to": "0x42e16B3732ae6f3e38AeE7546f36149C9eCB8F26",
      "value": {
        "_hex": "0x1bc16d674ec80000"
      },
      "nonce": 1,
      "data": "0x",
      "r": "0x188aa9f55c05e4ce33c821584795c008895fe0bd51b36d853e8b01de90259931",
      "s": "0x0eed26fc503de39a01945701591a90f503350ef82d4f01bff6bba9bc1453cb9f",
      "v": 28,
      "creates": null,
      "raw": "0xf86c01850cce4166008252089442e16b3732ae6f3e38aee7546f36149c9ecb8f26881bc16d674ec80000801ca0188aa9f55c05e4ce33c821584795c008895fe0bd51b36d853e8b01de90259931a00eed26fc503de39a01945701591a90f503350ef82d4f01bff6bba9bc1453cb9f",
      "networkId": 0,
      "chainId": 0
    }
  ]
}