{
  "hash": "0xcaf5ea4fee11ad85beba3938bf81503e05a2ad9be6bd135a73f2f4b5c08617ab",
  "parentHash": "0xbc471aa51d692cbee4a25cef514d1e56d16cf428900651c111f0d3c86513f84a",
  "number": 108222,
  "timestamp": 1439936596,
  "nonce": "0x9b074572dc1a935d",
  "difficulty": 4353298782922,
  "gasLimit": {
    "_hex": "0x2fefd8"
  },
  "gasUsed": {
    "_hex": "0x5208"
  },
  "miner": "0x580992B51e3925e23280EfB93d3047C82f17E038",
  "extraData": "0x476574682f76312e302e312f6c696e75782f676f312e342e32",
  "transactions": [
    {
      "hash": "0xf6ddc7869e4968778b602317feadeb57dc8f436502b2a5237b4dcdfed1c8570d",
      "blockHash": "0xcaf5ea4fee11ad85beba3938bf81503e05a2ad9be6bd135a73f2f4b5c08617ab",
      "blockNumber": 108222,
      "transactionIndex": 0,
      "confirmations": null,
      "from": "0x090041473c833bf54B1197fD120F895C537c26B0",
      "gasPrice": {
        "_hex": "0xcb61e2e50"
      },
      "gasLimit": {
        "_hex": "0x7a120"
      },
      "to": "0xBBDa93a81B882774e1c9b5e3F933Fa35DaC8bc88",
      "value": {
        "_hex": "0x8a5c8e2d3aa50000"
      },
      "nonce": 5,
      "data": "0x",
      "r": "0xbc610e92fd0b570d11569ab681f9806e6e48079cf71ffe076841eb0a7bb12569",
      "s": "0x3d5ba234207025f469aa47e9c35188788dc50465e10c89498307e0b2cc27e051",
      "v": 28,
      "creates": null,
      "raw": "0xf86d05850cb61e2e508307a12094bbda93a81b882774e1c9b5e3f933fa35dac8bc88888a5c8e2d3aa50000801ca0bc610e92fd0b570d11569ab681f9806e6e48079cf71ffe076841eb0a7bb12569a03d5ba234207025f469aa47e9c35188788dc50465e10c89498307e0b2cc27e051",
      "networkId": 0,
      "chainId": 0
    }
  ]
}