{
  "hash": "0x12a449cab8e4e235450cf8b31b6e8f680d869ca4a53047b25249b872405febb1",
  "parentHash": "0x2b6f043df7a7b21728d887d2a3ec13c27160f35debe01d996d006041e5c4e1ec",
  "number": 76467,
  "timestamp": 1439421137,
  "nonce": "0x32c4981dfeffe963",
  "difficulty": 2226437847365,
  "gasLimit": {
    "_hex": "0x2fefd8"
  },
  "gasUsed": {
    "_hex": "0xad77"
  },
  "miner": "0xe6A7a1d47ff21B6321162AEA7C6CB457D5476Bca",
  "extraData": "0x476574682f76312e302e312d38326566323666362f6c696e75782f676f312e34",
  "transactions": [
    {
      "hash": "0x4d4b50e99f08cd5430bd79466e725715e27589edaefa3a994995c8ce633deb42",
      "blockHash": "0x12a449cab8e4e235450cf8b31b6e8f680d869ca4a53047b25249b872405febb1",
      "blockNumber": 76467,
      "transactionIndex": 0,
      "confirmations": null,
      "from": "0x87C5B5874A18B4306DF8a752a6C8cc3E82daFc19",
      "gasPrice": {
        "_hex": "0x102cedfe9c3"
      },
      "gasLimit": {
        "_hex": "0x493e0"
      },
      "to": "0xD79B4C6791784184e2755B2fC1659eaaB0f80456",
      "value": {
        "_hex": "0x0"
      },
      "nonce": 79,
      "data": "0x03750d940000000000000000000000008be84a3adfbc51c59023b2413766e229108c35de6538323632343738346637633038303500000000000000000000000000000000",
      "r": "0x2dda7244c54d1ecf97c6feedde00dd1a9012856853fa71ded4439a836098d684",
      "s": "0x4bc2d93e587bcfdb39cacabe6a426f0a30fabe53d1b76607c0b603d366e32e9a",
      "v": 27,
      "creates": null,
      "raw": "0xf8ab4f860102cedfe9c3830493e094d79b4c6791784184e2755b2fc1659eaab0f8045680b84403750d940000000000000000000000008be84a3adfbc51c59023b2413766e229108c35de65383236323437383466376330383035000000000000000000000000000000001ba02dda7244c54d1ecf97c6feedde00dd1a9012856853fa71ded4439a836098d684a04bc2d93e587bcfdb39cacabe6a426f0a30fabe53d1b76607c0b603d366e32e9a",
      "networkId": 0,
      "chainId": 0
    }
  ]
}