{
  "hash": "0x47233f879e054cb361b711fc65c2c9228bca8e5e52e10206c0d589f8f63cc2c7",
  "parentHash": "0x420c5145f56fc43fb54f4514be7a4cc790d201a482f66da5a9d35646d2644092",
  "number": 105928,
  "timestamp": 1439895711,
  "nonce": "0x50ce4f6d3db984a7",
  "difficulty": 4466468232571,
  "gasLimit": {
    "_hex": "0x2fefd8"
  },
  "gasUsed": {
    "_hex": "0x2069f"
  },
  "miner": "0xe6A7a1d47ff21B6321162AEA7C6CB457D5476Bca",
  "extraData": "0x476574682f76312e302e312d38326566323666362f6c696e75782f676f312e34",
  "transactions": [
    {
      "hash": "0xaa69a9cd67c7d268241958643ba459e4b47a6dd4d3bc3eebef2a25387220f5a9",
      "blockHash": "0x47233f879e054cb361b711fc65c2c9228bca8e5e52e10206c0d589f8f63cc2c7",
      "blockNumber": 105928,
      "transactionIndex": 0,
      "confirmations": null,
      "from": "0x87C5B5874A18B4306DF8a752a6C8cc3E82daFc19",
      "gasPrice": {
        "_hex": "0x10d0fef3b9e"
      },
      "gasLimit": {
        "_hex": "0x493e0"
      },
      "to": "0xD79B4C6791784184e2755B2fC1659eaaB0f80456",
      "value": {
        "_hex": "0x1b2e25d90ec77e42"
      },
      "nonce": 303,
      "data": "0x8d2161860000000000000000000000000000000000000000000000000000000000000007d3d96ceed0cfca4794c2a5a3d3aeefe69da0a2a669e66a5651f30b64831c3db0",
      "r": "0xf72d0fdb549e40d4493cd3416ca79e9253fa4d4485cb8281922ad348460e697c",
      "s": "0x5c6ee3749a61f5b7c5f7fe6447274a05d31eaf1b6a5bf18188d044ba72d66955",
      "v": 28,
      "creates": null,
      "raw": "0xf8b582012f86010d0fef3b9e830493e094d79b4c6791784184e2755b2fc1659eaab0f80456881b2e25d90ec77e42b8448d2161860000000000000000000000000000000000000000000000000000000000000007d3d96ceed0cfca4794c2a5a3d3aeefe69da0a2a669e66a5651f30b64831c3db01ca0f72d0fdb549e40d4493cd3416ca79e9253fa4d4485cb8281922ad348460e697ca05c6ee3749a61f5b7c5f7fe6447274a05d31eaf1b6a5bf18188d044ba72d66955",
      "networkId": 0,
      "chainId": 0
    },
    {
      "hash": "0x542fe5584e6f3286333ce3c83b2d21558388bbd41030acf239458d9e457bf7f6",
      "blockHash": "0x47233f879e054cb361b711fc65c2c9228bca8e5e52e10206c0d589f8f63cc2c7",
      "blockNumber": 105928,
      "transactionIndex": 1,
      "confirmations": null,
      "from": "0xA542d5046D885E5fC7Dc4006ADb648C5710Ff0ED",
      "gasPrice": {
        "_hex": "0x746a528800"
      },
      "gasLimit": {
        "_hex": "0x5b04"
      },
      "to": "0x99181ED48C7c51532622dA23e20E2B38392476A7",
      "value": {
        "_hex": "0x1f76007d29cf8000"
      },
      "nonce": 3,
      "data": "0x",
      "r": "0x6207db38aca13090954afbd76f9c76bc5b36b39a1296667273996588ef3755dd",
      "s": "0x312fa9924503d9f350626ff7971261ece0f31822f830d1cee27da987a22c3c9f",
      "v": 28,
      "creates": null,
      "raw": "0xf86c0385746a528800825b049499181ed48c7c51532622da23e20e2b38392476a7881f76007d29cf8000801ca06207db38aca13090954afbd76f9c76bc5b36b39a1296667273996588ef3755dda0312fa9924503d9f350626ff7971261ece0f31822f830d1cee27da987a22c3c9f",
      "networkId": 0,
      "chainId": 0
    }
  ]
}