{
  "hash": "0xa774ccf6d3b513c207275038973ff7631fae9266d8c1570f88565865c6a6ff99",
  "parentHash": "0x2c38dff5b967e8865a8b81a125c93a651430548a31f61ff2efe2dd152ad1833c",
  "number": 64888,
  "timestamp": 1439227849,
  "nonce": "0xd58398db0f857a5f",
  "difficulty": 1907935035396,
  "gasLimit": {
    "_hex": "0x2fefd8"
  },
  "gasUsed": {
    "_hex": "0x5208"
  },
  "miner": "0x580992B51e3925e23280EfB93d3047C82f17E038",
  "extraData": "0x476574682f76312e302e312f6c696e75782f676f312e342e32",
  "transactions": [
    {
      "hash": "0x52868620d0b1e738510e4bbead5f466c39de533dc3f2860f01ccf0fe85df26c5",
      "blockHash": "0xa774ccf6d3b513c207275038973ff7631fae9266d8c1570f88565865c6a6ff99",
      "blockNumber": 64888,
      "transactionIndex": 0,
      "confirmations": null,
      "from": "0x1103a1821D0F8B343b0dDb9E7900Cb1DC9c4a2A8",
      "gasPrice": {
        "_hex": "0xba43b7400"
      },
      "gasLimit": {
        "_hex": "0x5208"
      },
      "to": "0xC1438123CC7975E7AB3991DE5A8b7f80D2E8Bc80",
      "value": {
        "_hex": "0x4e1253f5de4000"
      },
      "nonce": 1,
      "data": "0x",
      "r": "0x3ba67f11304f0faaedfd7189a600d5c2c298d4237682185f6c6fa702dbbbf0eb",
      "s": "0x162e52aaa1cc925923395515dec089575ea7a76269728d01f1962ff124cd05e9",
      "v": 28,
      "creates": null,
      "raw": "0xf86b01850ba43b740082520894c1438123cc7975e7ab3991de5a8b7f80d2e8bc80874e1253f5de4000801ca03ba67f11304f0faaedfd7189a600d5c2c298d4237682185f6c6fa702dbbbf0eba0162e52aaa1cc925923395515dec089575ea7a76269728d01f1962ff124cd05e9",
      "networkId": 0,
      "chainId": 0
    }
  ]
}