{
  "hash": "0xca4a1ff684818893c80096828bdf19ff6b97543dc2c1a345603ed92839fd295e",
  "parentHash": "0x44f501bb86b3ea66db27b32f66fab202558a3a1a9abf12186a5e12e732d32d8f",
  "number": 95839,
  "timestamp": 1439730444,
  "nonce": "0xfe531463c01dda84",
  "difficulty": 3637358419652,
  "gasLimit": {
    "_hex": "0x2fefd8"
  },
  "gasUsed": {
    "_hex": "0x5208"
  },
  "miner": "0xf927a40C8B7F6E07c5af7FA2155B4864a4112B13",
  "extraData": "0x",
  "transactions": [
    {
      "hash": "0xeee04585b2cfa292d8f2941a5e43005cf6b66d300289e8fab65f61234570b3df",
      "blockHash": "0xca4a1ff684818893c80096828bdf19ff6b97543dc2c1a345603ed92839fd295e",
      "blockNumber": 95839,
      "transactionIndex": 0,
      "confirmations": null,
      "from": "0x4D67f4F0Db45b3B5a3424B39ed8d972F710381D5",
      "gasPrice": {
        "_hex": "0xdab2b34cc"
      },
      "gasLimit": {
        "_hex": "0x5208"
      },
      "to": "0x32Be343B94f860124dC4fEe278FDCBD38C102D88",
      "value": {
        "_hex": "0x2de1e2c78aff22000"
      },
      "nonce": 7,
      "data": "0x",
      "r": "0xe71fc18442cb7a44d0aab2768a6964c3f7731d304af3eef33a66d5fbb206e672",
      "s": "0x59697b266bf9deb938156f753b561326d5adc3d8aa6e79d4ddaf36a5f17e90b3",
      "v": 28,
      "creates": null,
      "raw": "0xf86d07850dab2b34cc8252089432be343b94f860124dc4fee278fdcbd38c102d888902de1e2c78aff22000801ca0e71fc18442cb7a44d0aab2768a6964c3f7731d304af3eef33a66d5fbb206e672a059697b266bf9deb938156f753b561326d5adc3d8aa6e79d4ddaf36a5f17e90b3",
      "networkId": 0,
      "chainId": 0
    }
  ]
}