{
  "hash": "0x399085d6154cb700d3a6b5ac88861960132eb617418be95b38f284eefe24f3bf",
  "parentHash": "0x8d7c7ef22b9ccf164a0b66c27e2630472ea8ccc6449d45b5e244d00db73bd0e2",
  "number": 100011,
  "timestamp": 1439799314,
  "nonce": "0x3e8fe876abc4d72a",
  "difficulty": 3851172164075,
  "gasLimit": {
    "_hex": "0x2fefd8"
  },
  "gasUsed": {
    "_hex": "0xa410"
  },
  "miner": "0xe6A7a1d47ff21B6321162AEA7C6CB457D5476Bca",
  "extraData": "0x476574682f76312e302e312d38326566323666362f6c696e75782f676f312e34",
  "transactions": [
    {
      "hash": "0x792432118435bd58ddd478c80dc5657785204dd876d6e095ec08e2c6c4eb2e7e",
      "blockHash": "0x399085d6154cb700d3a6b5ac88861960132eb617418be95b38f284eefe24f3bf",
      "blockNumber": 100011,
      "transactionIndex": 0,
      "confirmations": null,
      "from": "0x007f7f58D3eb5b7510A301eCC749FC1fCDDBE14D",
      "gasPrice": {
        "_hex": "0xe0cfe7246"
      },
      "gasLimit": {
        "_hex": "0x15f90"
      },
      "to": "0xb1abce2918E21ddb93AA452731a12672A3d9F75a",
      "value": {
        "_hex": "0x4563918244f40000"
      },
      "nonce": 156,
      "data": "0x",
      "r": "0xa8d8198511ed0d5c0611309b18df4ed780e56a5ef8fdb911b1d32e237deedbd6",
      "s": "0x5afafb9dee89eb41f19531dbfef211c44fe3061c298e7397eb16d418a31f2c73",
      "v": 28,
      "creates": null,
      "raw": "0xf86e819c850e0cfe724683015f9094b1abce2918e21ddb93aa452731a12672a3d9f75a884563918244f40000801ca0a8d8198511ed0d5c0611309b18df4ed780e56a5ef8fdb911b1d32e237deedbd6a05afafb9dee89eb41f19531dbfef211c44fe3061c298e7397eb16d418a31f2c73",
      "networkId": 0,
      "chainId": 0
    },
    {
      "hash": "0xbf9e0819bc5779df2bf8d5eb9ece42d289d0e4d6029ce4ec623d8367e8e859db",
      "blockHash": "0x399085d6154cb700d3a6b5ac88861960132eb617418be95b38f284eefe24f3bf",
      "blockNumber": 100011,
      "transactionIndex": 1,
      "confirmations": null,
      "from": "0xC47Aaa860008be6f65B58c6C6E02a84e666EfE31",
      "gasPrice": {
        "_hex": "0xcee9b1153"
      },
      "gasLimit": {
        "_hex": "0x15f90"
      },
      "to": "0xeE097FF2d75523C83b4b1320479900c33BF22Cc0",
      "value": {
        "_hex": "0xde0b6b3a7640000"
      },
      "nonce": 35,
      "data": "0x",
      "r": "0x39ea5efc729a07858030f818dee7f853fa32991c5fe5938b9515b408d1c1f927",
      "s": "0x5c91882664be73128e409841aedcf863f755bb3c39bf9ee0c374f3265376f5c1",
      "v": 27,
      "creates": null,
      "raw": "0xf86d23850cee9b115383015f9094ee097ff2d75523c83b4b1320479900c33bf22cc0880de0b6b3a7640000801ba039ea5efc729a07858030f818dee7f853fa32991c5fe5938b9515b408d1c1f927a05c91882664be73128e409841aedcf863f755bb3c39bf9ee0c374f3265376f5c1",
      "networkId": 0,
      "chainId": 0
    }
  ]
}