{
  "hash": "0x3bcac960ee76706b448b8c998c2cbd0def948f98012506d55d1d6465dbbe9168",
  "parentHash": "0xfa655ce9da44fd83cccd9d70d5163e35a8f2d7d72124ca0d3f68d1f7cf7b650e",
  "number": 47251,
  "timestamp": 1438936915,
  "nonce": "0x894772473853ddf5",
  "difficulty": 1460941408717,
  "gasLimit": {
    "_hex": "0xa8de"
  },
  "gasUsed": {
    "_hex": "0xa410"
  },
  "miner": "0xbb7B8287f3F0a933474a79eAe42CBCa977791171",
  "extraData": "0x476574682f4c5649562f76312e302e312f6c696e75782f676f312e342e32",
  "transactions": [
    {
      "hash": "0x1cf9d175f0416e1cf035551d3cddde22b85dbff50cbcb344bae611c0eeb9879c",
      "blockHash": "0x3bcac960ee76706b448b8c998c2cbd0def948f98012506d55d1d6465dbbe9168",
      "blockNumber": 47251,
      "transactionIndex": 0,
      "confirmations": null,
      "from": "0xe6A7a1d47ff21B6321162AEA7C6CB457D5476Bca",
      "gasPrice": {
        "_hex": "0xd225cae34"
      },
      "gasLimit": {
        "_hex": "0x5208"
      },
      "to": "0x17CCeb5416303CC5b49303348eA8b6914ca47A62",
      "value": {
        "_hex": "0x858d978899f026a8"
      },
      "nonce": 87,
      "data": "0x",
      "r": "0x706d5347863eb8ccafd7440ffeb58c875c04474092116ac51cb7482ab3afb801",
      "s": "0x2abe7edbfb8bed330d9c06f02943d0918fef98a0671d07b30ca1be9e16958c0d",
      "v": 28,
      "creates": null,
      "raw": "0xf86c57850d225cae348252089417cceb5416303cc5b49303348ea8b6914ca47a6288858d978899f026a8801ca0706d5347863eb8ccafd7440ffeb58c875c04474092116ac51cb7482ab3afb801a02abe7edbfb8bed330d9c06f02943d0918fef98a0671d07b30ca1be9e16958c0d",
      "networkId": 0,
      "chainId": 0
    },
    {
      "hash": "0x3203a4bee551f97101c4bca14d503897a488bcf83b0dd8a98843e5c7b5d80aaa",
      "blockHash": "0x3bcac960ee76706b448b8c998c2cbd0def948f98012506d55d1d6465dbbe9168",
      "blockNumber": 47251,
      "transactionIndex": 1,
      "confirmations": null,
      "from": "0xe6A7a1d47ff21B6321162AEA7C6CB457D5476Bca",
      "gasPrice": {
        "_hex": "0xd225cae34"
      },
      "gasLimit": {
        "_hex": "0x5208"
      },
      "to": "0x8f9822e187F830d1100DF89B4b088c6Ce5F10d7d",
      "value": {
        "_hex": "0x86d97b7f54a81380"
      },
      "nonce": 88,
      "data": "0x",
      "r": "0xe7d7cb58e467496fdc4c31f20fd78b85a786ed3cb12f708e612602e56da2b1fe",
      "s": "0x2fddf64f48c96f06344ed9c79de02e9d2334a83a4f8e755dd3d92357c8f152a1",
      "v": 28,
      "creates": null,
      "raw": "0xf86c58850d225cae34825208948f9822e187f830d1100df89b4b088c6ce5f10d7d8886d97b7f54a81380801ca0e7d7cb58e467496fdc4c31f20fd78b85a786ed3cb12f708e612602e56da2b1fea02fddf64f48c96f06344ed9c79de02e9d2334a83a4f8e755dd3d92357c8f152a1",
      "networkId": 0,
      "chainId": 0
    }
  ]
}