{
  "hash": "0xd1fc203aa3fa9b0cdfe691754a6c72c6b2245f6e5658823be5c2992ce677e394",
  "parentHash": "0xba18849678bf972596937798a2a9839046d650e0114827cb860e0ed14e0d5df7",
  "number": 77954,
  "timestamp": 1439445608,
  "nonce": "0x5bd219e6f1878aa6",
  "difficulty": 2297827129182,
  "gasLimit": {
    "_hex": "0x2fefd8"
  },
  "gasUsed": {
    "_hex": "0x7a62"
  },
  "miner": "0xe6A7a1d47ff21B6321162AEA7C6CB457D5476Bca",
  "extraData": "0x476574682f76312e302e312d38326566323666362f6c696e75782f676f312e34",
  "transactions": [
    {
      "hash": "0x2f05132e4126320b1b2bab821bd0f2626851c990a302bcc5088974a0cfa48ec6",
      "blockHash": "0xd1fc203aa3fa9b0cdfe691754a6c72c6b2245f6e5658823be5c2992ce677e394",
      "blockNumber": 77954,
      "transactionIndex": 0,
      "confirmations": null,
      "from": "0xD1826373C4E0938f0b4302B40324f7f9c546492C",
      "gasPrice": {
        "_hex": "0xd394112e0"
      },
      "gasLimit": {
        "_hex": "0x30d40"
      },
      "to": "0x93eEA62C088759fd22ebc15a6f9645672D3a9265",
      "value": {
        "_hex": "0xe8d4a51000"
      },
      "nonce": 11,
      "data": "0x",
      "r": "0x4741c4c633fe3ecdde3eb0fec6f4d96dd22c9198587486247ebce10738e70e56",
      "s": "0x1412f27b123e45230eca20c7028afc42b8e2716f01131c78b41af1f5c7d349c0",
      "v": 27,
      "creates": null,
      "raw": "0xf86a0b850d394112e083030d409493eea62c088759fd22ebc15a6f9645672d3a926585e8d4a51000801ba04741c4c633fe3ecdde3eb0fec6f4d96dd22c9198587486247ebce10738e70e56a01412f27b123e45230eca20c7028afc42b8e2716f01131c78b41af1f5c7d349c0",
      "networkId": 0,
      "chainId": 0
    }
  ]
}