{
  "hash": "0x4d950a6db0c8ad15627985366c87cdab5d1acdb81a38fb1cdf3332e255ef28bb",
  "parentHash": "0xa8d7c818b961a19331f901345f2f1fc3855c3a297a67c473e6f7fbd1defa4651",
  "number": 68150,
  "timestamp": 1439283352,
  "nonce": "0x0f8f488d9d8e7cb8",
  "difficulty": 1969656630297,
  "gasLimit": {
    "_hex": "0x2fefd8"
  },
  "gasUsed": {
    "_hex": "0x1b6e8"
  },
  "miner": "0xee5379D0c1ca47327368027455074C26D9952628",
  "extraData": "0x476574682f76312e302e312d38326566323666362f6c696e75782f676f312e34",
  "transactions": [
    {
      "hash": "0x570f5dc3fad88ce8a13206094cad0350f3e56c86920d4950bceaa319dc54310f",
      "blockHash": "0x4d950a6db0c8ad15627985366c87cdab5d1acdb81a38fb1cdf3332e255ef28bb",
      "blockNumber": 68150,
      "transactionIndex": 0,
      "confirmations": null,
      "from": "0xDC44275B1715BaEA1B0345735a29AC42c9F51b4f",
      "gasPrice": {
        "_hex": "0x110c8f7d8de"
      },
      "gasLimit": {
        "_hex": "0xc350"
      },
      "to": "0x2910543Af39abA0Cd09dBb2D50200b3E800A63D2",
      "value": {
        "_hex": "0x3ba1910bf341b00000"
      },
      "nonce": 0,
      "data": "0x454e4a583334525952",
      "r": "0x18664b6db4de9e56f29ba83cb2af4fd387e0eb7dc503cd34b713def622bf4ddb",
      "s": "0x8de2cc64913d9d1c1421034370c25211b01d3824c6e15f7fd29156cd0e701ff9",
      "v": 28,
      "creates": null,
      "raw": "0xf87780860110c8f7d8de82c350942910543af39aba0cd09dbb2d50200b3e800a63d2893ba1910bf341b0000089454e4a5833345259521ca018664b6db4de9e56f29ba83cb2af4fd387e0eb7dc503cd34b713def622bf4ddba08de2cc64913d9d1c1421034370c25211b01d3824c6e15f7fd29156cd0e701ff9",
      "networkId": 0,
      "chainId": 0
    },
    {
      "hash": "0x2083b7194506e9b302e098c185480084d400b1bff2c872856cbd32029b781af7",
      "blockHash": "0x4d950a6db0c8ad15627985366c87cdab5d1acdb81a38fb1cdf3332e255ef28bb",
      "blockNumber": 68150,
      "transactionIndex": 1,
      "confirmations": null,
      "from": "0x32Be343B94f860124dC4fEe278FDCBD38C102D88",
      "gasPrice": {
        "_hex": "0xd80f83ccd"
      },
      "gasLimit": {
        "_hex": "0x5208"
      },
      "to": "0x120A270bbC009644e35F0bB6ab13f95b8199c4ad",
      "value": {
        "_hex": "0x14542ba12a337c00000"
      },
      "nonce": 218,
      "data": "0x",
      "r": "0x1fae0aa967e0b84b614e8a2c4c534fa4fb71e17dfd521b90d43777f74fef6218",
      "s": "0x720863d404c220002fdf71fdcbe229a6d6c87bedf5882b795533ae77a84bf8f3",
      "v": 28,
      "creates": null,
      "raw": "0xf86f81da850d80f83ccd82520894120a270bbc009644e35f0bb6ab13f95b8199c4ad8a014542ba12a337c00000801ca01fae0aa967e0b84b614e8a2c4c534fa4fb71e17dfd521b90d43777f74fef6218a0720863d404c220002fdf71fdcbe229a6d6c87bedf5882b795533ae77a84bf8f3",
      "networkId": 0,
      "chainId": 0
    },
    {
      "hash": "0x821f06474516f05cb4d0a1b84d378b8049956bfe31366e40e09d9382b8d15906",
      "blockHash": "0x4d950a6db0c8ad15627985366c87cdab5d1acdb81a38fb1cdf3332e255ef28bb",
      "blockNumber": 68150,
      "transactionIndex": 2,
      "confirmations": null,
      "from": "0x32Be343B94f860124dC4fEe278FDCBD38C102D88",
      "gasPrice": {
        "_hex": "0xd80f83ccd"
      },
      "gasLimit": {
        "_hex": "0x5208"
      },
      "to": "0xf913135189c4b40704b69f84F4fee0FC4981948a",
      "value": {
        "_hex": "0x13fbe85edc90000"
      },
      "nonce": 219,
      "data": "0x",
      "r": "0x90b67243900c06efd540ca556b5d10118ff9964e718b497a2539fc691c8de36e",
      "s": "0x49a7e541115e4b9b57cf5e1799f7be94e754a83448a4fc0af762492fec3ece48",
      "v": 28,
      "creates": null,
      "raw": "0xf86d81db850d80f83ccd82520894f913135189c4b40704b69f84f4fee0fc4981948a88013fbe85edc90000801ca090b67243900c06efd540ca556b5d10118ff9964e718b497a2539fc691c8de36ea049a7e541115e4b9b57cf5e1799f7be94e754a83448a4fc0af762492fec3ece48",
      "networkId": 0,
      "chainId": 0
    },
    {
      "hash": "0x0b83a94c31df0b0488c0dd60146ba6764f563d9ab9b4beb5123cbeef24962cd4",
      "blockHash": "0x4d950a6db0c8ad15627985366c87cdab5d1acdb81a38fb1cdf3332e255ef28bb",
      "blockNumber": 68150,
      "transactionIndex": 3,
      "confirmations": null,
      "from": "0xc44108A2D949A9bd5Cc53A6e455005e1334C8F08",
      "gasPrice": {
        "_hex": "0xba43b7400"
      },
      "gasLimit": {
        "_hex": "0x15f90"
      },
      "to": "0x793AE8C1b1a160BFc07BFB0d04F85eab1A71F4f2",
      "value": {
        "_hex": "0x0"
      },
      "nonce": 0,
      "data": "0x3ba15036",
      "r": "0x9235b14804ede4dc67e00f35a37845f079f897499b02dfef22ac3ab960d68c4f",
      "s": "0x7de53efa87ec5bcc454108ec07b9ef0a384f1861cc30889968c2d47aebaa1418",
      "v": 28,
      "creates": null,
      "raw": "0xf86980850ba43b740083015f9094793ae8c1b1a160bfc07bfb0d04f85eab1a71f4f280843ba150361ca09235b14804ede4dc67e00f35a37845f079f897499b02dfef22ac3ab960d68c4fa07de53efa87ec5bcc454108ec07b9ef0a384f1861cc30889968c2d47aebaa1418",
      "networkId": 0,
      "chainId": 0
    }
  ]
}