{
  "hash": "0xacee4327d7f38349bc1aa5229a853ef7bcb4adcda1ed0ae3bce4b8699827a8ab",
  "parentHash": "0xcdbbddab63d393b8876c115d685ae8796bf148d1c632d8e872c89392e296c6d7",
  "number": 121443,
  "timestamp": 1440177145,
  "nonce": "0x8ecaccf5db3a5e98",
  "difficulty": 4434333688998,
  "gasLimit": {
    "_hex": "0x2fefd8"
  },
  "gasUsed": {
    "_hex": "0x5208"
  },
  "miner": "0x007f7f58D3eb5b7510A301eCC749FC1fCDDBE14D",
  "extraData": "0x",
  "transactions": [
    {
      "hash": "0x3397ddc55bb433cb3a3a4da017a47a21e46e0acde926aed54b4093b677a2f118",
      "blockHash": "0xacee4327d7f38349bc1aa5229a853ef7bcb4adcda1ed0ae3bce4b8699827a8ab",
      "blockNumber": 121443,
      "transactionIndex": 0,
      "confirmations": null,
      "from": "0xa70a9a7040d542C632D8e0bE7c5513A8a5Bbc752",
      "gasPrice": {
        "_hex": "0xba43b7400"
      },
      "gasLimit": {
        "_hex": "0x5208"
      },
      "to": "0x32Be343B94f860124dC4fEe278FDCBD38C102D88",
      "value": {
        "_hex": "0x455fd68a17f06000"
      },
      "nonce": 333,
      "data": "0x",
      "r": "0x01954fc9da36a42eed647d13f45f2211ba79fd0e0fff4725ffa16fd4371d3bb2",
      "s": "0x630006015a92215bb991aa2e0d988d009edc0c5f1f04914cd0e1dab54a093339",
      "v": 27,
      "creates": null,
      "raw": "0xf86e82014d850ba43b74008252089432be343b94f860124dc4fee278fdcbd38c102d8888455fd68a17f06000801ba001954fc9da36a42eed647d13f45f2211ba79fd0e0fff4725ffa16fd4371d3bb2a0630006015a92215bb991aa2e0d988d009edc0c5f1f04914cd0e1dab54a093339",
      "networkId": 0,
      "chainId": 0
    }
  ]
}