{
  "hash": "0xf80a40c03cf633cbb5db258b4f6291ea70c7912324d5d44b0bca5c6b7fcd767e",
  "parentHash": "0xd0daeb54f8e8be540fae2d7c26cc9dec22f6be65ddb0247a21d2f0c26b72a510",
  "number": 68404,
  "timestamp": 1439287251,
  "nonce": "0x3a3c3f8cc0794b62",
  "difficulty": 2020246585640,
  "gasLimit": {
    "_hex": "0x2fefd8"
  },
  "gasUsed": {
    "_hex": "0x14820"
  },
  "miner": "0x6541237dAaFf6688A79f9F2F370Ca0E7Ee20BD33",
  "extraData": "0x476574682f76312e302e312f77696e646f77732f676f312e342e32",
  "transactions": [
    {
      "hash": "0x10e0a3bcb4c368ac96415e0a5aeccaebaac19e2034c55e66faf2a09d55dd4c0c",
      "blockHash": "0xf80a40c03cf633cbb5db258b4f6291ea70c7912324d5d44b0bca5c6b7fcd767e",
      "blockNumber": 68404,
      "transactionIndex": 0,
      "confirmations": null,
      "from": "0x29DAFf71bEEbD4B6c32327456DA46e8aee26e60C",
      "gasPrice": {
        "_hex": "0xba43b7400"
      },
      "gasLimit": {
        "_hex": "0x5208"
      },
      "to": "0xE911e68E68D12d178704A0d63C052Bf9194C126E",
      "value": {
        "_hex": "0x4e1253f5de4000"
      },
      "nonce": 1,
      "data": "0x",
      "r": "0xe6912263462919cbbd0f3b346b9fd83d46c5e5058099bbc580aa05cc94a6a410",
      "s": "0x2ecb2740a1eb44f8389c74da6904d53dffe70d0c10bab58aec776795cc31038c",
      "v": 27,
      "creates": null,
      "raw": "0xf86b01850ba43b740082520894e911e68e68d12d178704a0d63c052bf9194c126e874e1253f5de4000801ba0e6912263462919cbbd0f3b346b9fd83d46c5e5058099bbc580aa05cc94a6a410a02ecb2740a1eb44f8389c74da6904d53dffe70d0c10bab58aec776795cc31038c",
      "networkId": 0,
      "chainId": 0
    },
    {
      "hash": "0x828becd5aa4f701809e5595970b940e024008e739ce0e1bb721f8524a98d9afe",
      "blockHash": "0xf80a40c03cf633cbb5db258b4f6291ea70c7912324d5d44b0bca5c6b7fcd767e",
      "blockNumber": 68404,
      "transactionIndex": 1,
      "confirmations": null,
      "from": "0x6bD14fE0E8370F06CD2516dC6DB05189c6Af3e3C",
      "gasPrice": {
        "_hex": "0xba43b7400"
      },
      "gasLimit": {
        "_hex": "0x5208"
      },
      "to": "0x9ab934e3A4bE47c95768236c8C7C90542A3E2FDf",
      "value": {
        "_hex": "0x4e1253f5de4000"
      },
      "nonce": 1,
      "data": "0x",
      "r": "0xbdba016b86eb7df33dd9baa5b742edbe4196ce9b44b7a521dc7b03d0e7f202b4",
      "s": "0x0659b4dadc768b73038382829d6b1983839f1fbc29b975afef4eb24484be1e6f",
      "v": 28,
      "creates": null,
      "raw": "0xf86b01850ba43b7400825208949ab934e3a4be47c95768236c8c7c90542a3e2fdf874e1253f5de4000801ca0bdba016b86eb7df33dd9baa5b742edbe4196ce9b44b7a521dc7b03d0e7f202b4a00659b4dadc768b73038382829d6b1983839f1fbc29b975afef4eb24484be1e6f",
      "networkId": 0,
      "chainId": 0
    },
    {
      "hash": "0xfa883f06a4bbe76bb8a334fcc55c8138a900da9f6ff1130a076d2a61e8e2a4fc",
      "blockHash": "0xf80a40c03cf633cbb5db258b4f6291ea70c7912324d5d44b0bca5c6b7fcd767e",
      "blockNumber": 68404,
      "transactionIndex": 2,
      "confirmations": null,
      "from": "0x67db390312dc02A140c358aDd4f37966C7775096",
      "gasPrice": {
        "_hex": "0xba43b7400"
      },
      "gasLimit": {
        "_hex": "0x5208"
      },
      "to": "0xd07c28E0675b4A7fb5F5F1624520dD0Edc7Baa70",
      "value": {
        "_hex": "0x4e1253f5de4000"
      },
      "nonce": 1,
      "data": "0x",
      "r": "0x6689893c106d44a284bf5ca7a565ba1e5de93c02e6cdc95c9aa6f46a0dea2ffc",
      "s": "0x1ff02a8d9119fb65a4b3e4de0e0aaa2173bdb270c1bdb5341cce16a0d624da2d",
      "v": 28,
      "creates": null,
      "raw": "0xf86b01850ba43b740082520894d07c28e0675b4a7fb5f5f1624520dd0edc7baa70874e1253f5de4000801ca06689893c106d44a284bf5ca7a565ba1e5de93c02e6cdc95c9aa6f46a0dea2ffca01ff02a8d9119fb65a4b3e4de0e0aaa2173bdb270c1bdb5341cce16a0d624da2d",
      "networkId": 0,
      "chainId": 0
    },
    {
      "hash": "0x09fc02635e655157912cf963610e09ff6a55fd52c6f1f4f403a5052b391ab689",
      "blockHash": "0xf80a40c03cf633cbb5db258b4f6291ea70c7912324d5d44b0bca5c6b7fcd767e",
      "blockNumber": 68404,
      "transactionIndex": 3,
      "confirmations": null,
      "from": "0x8a9BfC8d363aa439151Cb5234F20c0C5614C7571",
      "gasPrice": {
        "_hex": "0xba43b7400"
      },
      "gasLimit": {
        "_hex": "0x5208"
      },
      "to": "0x7e31e41Ac07f88c918e8fBFe51935b7EAbbD87d2",
      "value": {
        "_hex": "0x4e1253f5de4000"
      },
      "nonce": 1,
      "data": "0x",
      "r": "0x89a48be46f4644787337ff3bf45425789c25504506a847c75ab6e9a595829a35",
      "s": "0x183f0e41e8a87ca76fa08469fc4b79f6d330442cd1b9f966e582ce13f571c179",
      "v": 28,
      "creates": null,
      "raw": "0xf86b01850ba43b7400825208947e31e41ac07f88c918e8fbfe51935b7eabbd87d2874e1253f5de4000801ca089a48be46f4644787337ff3bf45425789c25504506a847c75ab6e9a595829a35a0183f0e41e8a87ca76fa08469fc4b79f6d330442cd1b9f966e582ce13f571c179",
      "networkId": 0,
      "chainId": 0
    }
  ]
}