{
  "hash": "0xe06e8feaa1af29a36998006e7584b6c249b2048d6617ca658c419a0b5cb5c578",
  "parentHash": "0x19263d961d0c9b6d49055f85452b3a5bb8efdada618545139cf448d2b9207061",
  "number": 94023,
  "timestamp": 1439701356,
  "nonce": "0x332d3924f885a4cc",
  "difficulty": 3485130326772,
  "gasLimit": {
    "_hex": "0x2fefd8"
  },
  "gasUsed": {
    "_hex": "0x5208"
  },
  "miner": "0x88D74a59454F6cF3B51ef6b9136AFb6b9D405A88",
  "extraData": "0x476574682f76312e302e312d37666266393930632f6c696e75782f676f312e34",
  "transactions": [
    {
      "hash": "0x3c534b2ac935bc20097e1d223ae07b948f8b8351c65d1dc5cb26c528b4523b7a",
      "blockHash": "0xe06e8feaa1af29a36998006e7584b6c249b2048d6617ca658c419a0b5cb5c578",
      "blockNumber": 94023,
      "transactionIndex": 0,
      "confirmations": null,
      "from": "0x2f86ba8019945f39edE131D38d4d8780884DA553",
      "gasPrice": {
        "_hex": "0xcd613dc17"
      },
      "gasLimit": {
        "_hex": "0x5208"
      },
      "to": "0x32Be343B94f860124dC4fEe278FDCBD38C102D88",
      "value": {
        "_hex": "0x10f0cda846a1fb00000"
      },
      "nonce": 21,
      "data": "0x",
      "r": "0xc9fac771606b041d4be6570d7db85828595b83cc612335d42ef69956bc39acd5",
      "s": "0x1d46379603beb0eb5d7f21ffb616281d8a079cabc44ad2efe52fedcec0a6aac4",
      "v": 28,
      "creates": null,
      "raw": "0xf86e15850cd613dc178252089432be343b94f860124dc4fee278fdcbd38c102d888a010f0cda846a1fb00000801ca0c9fac771606b041d4be6570d7db85828595b83cc612335d42ef69956bc39acd5a01d46379603beb0eb5d7f21ffb616281d8a079cabc44ad2efe52fedcec0a6aac4",
      "networkId": 0,
      "chainId": 0
    }
  ]
}