{
  "hash": "0xb5417eb237b80fa5adccd70995bc9d476511d6423e9ca27fa1472e45772466fe",
  "parentHash": "0xd1de23d38f81f0382b2dbf305b0ddd4e1187f0d8329758cb527892ac3c34e03b",
  "number": 93206,
  "timestamp": 1439685048,
  "nonce": "0x8b4f2449a639d1a4",
  "difficulty": 3601382070815,
  "gasLimit": {
    "_hex": "0x2fefd8"
  },
  "gasUsed": {
    "_hex": "0x5208"
  },
  "miner": "0xa50ec0D39fa913E62f1Bae7074E6F36caA71855b",
  "extraData": "0xd783010001844765746887676f312e342e32856c696e7578",
  "transactions": [
    {
      "hash": "0x9d396d6709838d203682f7445929d56a5eaeb25b4dc350f95a10f034b5b2be0b",
      "blockHash": "0xb5417eb237b80fa5adccd70995bc9d476511d6423e9ca27fa1472e45772466fe",
      "blockNumber": 93206,
      "transactionIndex": 0,
      "confirmations": null,
      "from": "0x120A270bbC009644e35F0bB6ab13f95b8199c4ad",
      "gasPrice": {
        "_hex": "0xe084f15de"
      },
      "gasLimit": {
        "_hex": "0x3d090"
      },
      "to": "0xE482d255EDE56B04c3E8dF151F56e9ca62aAA8C2",
      "value": {
        "_hex": "0x18650127cc3dc80000"
      },
      "nonce": 563,
      "data": "0x",
      "r": "0xc54eba87c6e4caf40beb33a82d6d54c27cc8040bbf6bbbf9ec39afc43d84d822",
      "s": "0x34e8649d041f80ca9137c47a608835a0a39ca4bc5c23390d2ef6d470d11c140d",
      "v": 28,
      "creates": null,
      "raw": "0xf870820233850e084f15de8303d09094e482d255ede56b04c3e8df151f56e9ca62aaa8c28918650127cc3dc80000801ca0c54eba87c6e4caf40beb33a82d6d54c27cc8040bbf6bbbf9ec39afc43d84d822a034e8649d041f80ca9137c47a608835a0a39ca4bc5c23390d2ef6d470d11c140d",
      "networkId": 0,
      "chainId": 0
    }
  ]
}