{
  "hash": "0x6e299b8c365ce68c1fe4a12105b2dd59de02d6d8d1d04a89b90fbbdfd640487c",
  "parentHash": "0x4ddf0f87ae4aaaff24ca9893c7e066b0c020cd8c15645fc673b477cccaac6ffd",
  "number": 54857,
  "timestamp": 1439061220,
  "nonce": "0xe73a98c60dc88734",
  "difficulty": 1607779472819,
  "gasLimit": {
    "_hex": "0x2fefd8"
  },
  "gasUsed": {
    "_hex": "0x5208"
  },
  "miner": "0x03B35D960c861Fe987C50380d76db9D6Ae1fa510",
  "extraData": "0x",
  "transactions": [
    {
      "hash": "0xe457ba8fee276baff5ff8470fbf41fc573bc92a514d8137fd4212802e4808255",
      "blockHash": "0x6e299b8c365ce68c1fe4a12105b2dd59de02d6d8d1d04a89b90fbbdfd640487c",
      "blockNumber": 54857,
      "transactionIndex": 0,
      "confirmations": null,
      "from": "0x481bfBe24683C3aaCFCEac84dd144283A655F47B",
      "gasPrice": {
        "_hex": "0x746a528800"
      },
      "gasLimit": {
        "_hex": "0x5b04"
      },
      "to": "0x0998b6F1124aa2dB79848a78316a03A6bC8c880D",
      "value": {
        "_hex": "0x15935c0b4e3d780000"
      },
      "nonce": 1,
      "data": "0x",
      "r": "0x9d1c43fa655d706d76171894fc8fdfeef986e10634fd24b7460bc7af9fb9ed33",
      "s": "0x383151781b4fd5e56bcda474bd383355b8b272be740f9b7e6fe5a899dc8e4bd7",
      "v": 28,
      "creates": null,
      "raw": "0xf86d0185746a528800825b04940998b6f1124aa2db79848a78316a03a6bc8c880d8915935c0b4e3d780000801ca09d1c43fa655d706d76171894fc8fdfeef986e10634fd24b7460bc7af9fb9ed33a0383151781b4fd5e56bcda474bd383355b8b272be740f9b7e6fe5a899dc8e4bd7",
      "networkId": 0,
      "chainId": 0
    }
  ]
}