{
  "hash": "0x6478c7d85a9c853011be66321eba778c41a56e0f46974209cd4ac6b1f8c10ab7",
  "parentHash": "0x562e576064ac0e2e5245db6b6b195b386c5b4e4464d043f8c487ccb346447bae",
  "number": 99180,
  "timestamp": 1439785706,
  "nonce": "0xd58b9262f4ea2918",
  "difficulty": 3804823450417,
  "gasLimit": {
    "_hex": "0x2fefd8"
  },
  "gasUsed": {
    "_hex": "0x5208"
  },
  "miner": "0xad7210d76107F888745616FFF7979623b84F928c",
  "extraData": "0x476574682f76312e302e312f77696e646f77732f676f312e342e32",
  "transactions": [
    {
      "hash": "0x771fb16273cd38a5ce9d84ac6860cb3ab45d6058aa04d28dddb7fdedbc474ecd",
      "blockHash": "0x6478c7d85a9c853011be66321eba778c41a56e0f46974209cd4ac6b1f8c10ab7",
      "blockNumber": 99180,
      "transactionIndex": 0,
      "confirmations": null,
      "from": "0xC603Ab5ef41fC61AA8b76bEddb09e3Cfcbb174BD",
      "gasPrice": {
        "_hex": "0xdc2c41b2d"
      },
      "gasLimit": {
        "_hex": "0x15f90"
      },
      "to": "0x8F79f76381Aad7B98C19aF55eE75fdfEeb012211",
      "value": {
        "_hex": "0x340aad21b3b700000"
      },
      "nonce": 30,
      "data": "0x",
      "r": "0xe36951ea9607f4da202e4ec5748d834a2cddd69c30315a1a05cdf5a9659fe435",
      "s": "0x52ed2cd77ec1e76fb9e000cdfadbaff2cd094062ebd8f8de82c72bf372be9ee0",
      "v": 27,
      "creates": null,
      "raw": "0xf86e1e850dc2c41b2d83015f90948f79f76381aad7b98c19af55ee75fdfeeb012211890340aad21b3b700000801ba0e36951ea9607f4da202e4ec5748d834a2cddd69c30315a1a05cdf5a9659fe435a052ed2cd77ec1e76fb9e000cdfadbaff2cd094062ebd8f8de82c72bf372be9ee0",
      "networkId": 0,
      "chainId": 0
    }
  ]
}