{
  "hash": "0xdf4554a29adf55f428453e573f79a53b014439bd35f26e7577bd33b8332511a3",
  "parentHash": "0xd868130edbc452be86e54be609f108c75f1f463a2162022d54b9858f00757ea1",
  "number": 96327,
  "timestamp": 1439738562,
  "nonce": "0x4585bf0e47cb3684",
  "difficulty": 3680020364859,
  "gasLimit": {
    "_hex": "0x2fefd8"
  },
  "gasUsed": {
    "_hex": "0x5208"
  },
  "miner": "0xe6A7a1d47ff21B6321162AEA7C6CB457D5476Bca",
  "extraData": "0x476574682f76312e302e312d38326566323666362f6c696e75782f676f312e34",
  "transactions": [
    {
      "hash": "0x5437a632ecbb61890f2f7ff43ee00d766c017da8d01ee39ef253c913de4542a6",
      "blockHash": "0xdf4554a29adf55f428453e573f79a53b014439bd35f26e7577bd33b8332511a3",
      "blockNumber": 96327,
      "transactionIndex": 0,
      "confirmations": null,
      "from": "0x007f7f58D3eb5b7510A301eCC749FC1fCDDBE14D",
      "gasPrice": {
        "_hex": "0xcc8ddf695"
      },
      "gasLimit": {
        "_hex": "0x15f90"
      },
      "to": "0xb1abce2918E21ddb93AA452731a12672A3d9F75a",
      "value": {
        "_hex": "0x4563918244f40000"
      },
      "nonce": 78,
      "data": "0x",
      "r": "0x18529c8bf245822e7d2ef0f5a4d01a60365aaa1f6bea92705a63617db598e07c",
      "s": "0x683edd85e0479da880fa6d693e614c3028c98313b3d0728356bfdeb3ed2f5a9c",
      "v": 27,
      "creates": null,
      "raw": "0xf86d4e850cc8ddf69583015f9094b1abce2918e21ddb93aa452731a12672a3d9f75a884563918244f40000801ba018529c8bf245822e7d2ef0f5a4d01a60365aaa1f6bea92705a63617db598e07ca0683edd85e0479da880fa6d693e614c3028c98313b3d0728356bfdeb3ed2f5a9c",
      "networkId": 0,
      "chainId": 0
    }
  ]
}