{
  "hash": "0x911418524282d5e404359a4fb12ba4b0b905afd41b82cb32fa8e236f8198ed3d",
  "parentHash": "0x6247a224021f93df6e590dd4b50566144613d5628fb8d81d358915580eaffd4d",
  "number": 93761,
  "timestamp": 1439697280,
  "nonce": "0x293e5b7d1aeb4e9e",
  "difficulty": 3424510515954,
  "gasLimit": {
    "_hex": "0x2fefd5"
  },
  "gasUsed": {
    "_hex": "0xa410"
  },
  "miner": "0xf8E0CA3Ed80bd541b94BEdCf259e8CF2141A9523",
  "extraData": "0x476574682f76312e302e312f77696e646f77732f676f312e342e32",
  "transactions": [
    {
      "hash": "0xe58c263098f6917b91dcdbe93348b0c737381b326e712169ba23deaddf7a4439",
      "blockHash": "0x911418524282d5e404359a4fb12ba4b0b905afd41b82cb32fa8e236f8198ed3d",
      "blockNumber": 93761,
      "transactionIndex": 0,
      "confirmations": null,
      "from": "0xE9dEfDfce0C01e6385eD158792d329d53D7569Df",
      "gasPrice": {
        "_hex": "0xd16ec932d"
      },
      "gasLimit": {
        "_hex": "0x15f90"
      },
      "to": "0x296ddc7dB724c4b7252dEe85F3969df1b618ef1F",
      "value": {
        "_hex": "0x1bc16d674ec80000"
      },
      "nonce": 0,
      "data": "0x",
      "r": "0x9508af42087b382c74dd3d928e5dc1ada2a10767cd4b1ea870f929731913eeb8",
      "s": "0x0d90fd26479cdd5a821c9fa18051e47571342e31a314e3ef47c66192294498b2",
      "v": 27,
      "creates": null,
      "raw": "0xf86d80850d16ec932d83015f9094296ddc7db724c4b7252dee85f3969df1b618ef1f881bc16d674ec80000801ba09508af42087b382c74dd3d928e5dc1ada2a10767cd4b1ea870f929731913eeb8a00d90fd26479cdd5a821c9fa18051e47571342e31a314e3ef47c66192294498b2",
      "networkId": 0,
      "chainId": 0
    },
    {
      "hash": "0xed32fa1fbe2b57acfd98fe3324ec9bd7a98e80e2f28c65f1ad04345fbbd1f250",
      "blockHash": "0x911418524282d5e404359a4fb12ba4b0b905afd41b82cb32fa8e236f8198ed3d",
      "blockNumber": 93761,
      "transactionIndex": 1,
      "confirmations": null,
      "from": "0xcEf2F9eDE909391e2b692bb5001b8242F79f812b",
      "gasPrice": {
        "_hex": "0xba43b7400"
      },
      "gasLimit": {
        "_hex": "0x5267"
      },
      "to": "0x8Ba74c19d14CC77E53A2B1DA67e92F2454E56634",
      "value": {
        "_hex": "0x6c6b935b8bbd400000"
      },
      "nonce": 2,
      "data": "0x",
      "r": "0x82590c877b965cb94ae7dd3d96ad58592c6b431f708461e59c06478c7230be41",
      "s": "0x6386792d08c531c47ed58d67f4482da86325d27a702384f07c55d574294a8205",
      "v": 27,
      "creates": null,
      "raw": "0xf86d02850ba43b7400825267948ba74c19d14cc77e53a2b1da67e92f2454e56634896c6b935b8bbd400000801ba082590c877b965cb94ae7dd3d96ad58592c6b431f708461e59c06478c7230be41a06386792d08c531c47ed58d67f4482da86325d27a702384f07c55d574294a8205",
      "networkId": 0,
      "chainId": 0
    }
  ]
}