{
  "hash": "0x2c488bde1c42ac3cb8ef4b02def5c8339b712e752c65f82f1d981b4ea63dc809",
  "parentHash": "0xbf1eb5a773f5e4364d0293bbb8adc89a9bad0060d485dc9136e54b6b53f218b6",
  "number": 120093,
  "timestamp": 1440153773,
  "nonce": "0x9b9f7fcb90e7248d",
  "difficulty": 4417756762635,
  "gasLimit": {
    "_hex": "0x2fefd8"
  },
  "gasUsed": {
    "_hex": "0x2a2b"
  },
  "miner": "0xe6A7a1d47ff21B6321162AEA7C6CB457D5476Bca",
  "extraData": "0xd783010002844765746887676f312e342e32856c696e7578",
  "transactions": [
    {
      "hash": "0xebe41b285e8a80a2605fb99fa576669fb480e64fec16ebb6838182058cb674ef",
      "blockHash": "0x2c488bde1c42ac3cb8ef4b02def5c8339b712e752c65f82f1d981b4ea63dc809",
      "blockNumber": 120093,
      "transactionIndex": 0,
      "confirmations": null,
      "from": "0xD007C3Ce0bFCFE50559e15a3737C236f8Fa15BbE",
      "gasPrice": {
        "_hex": "0xba43b7400"
      },
      "gasLimit": {
        "_hex": "0x15f90"
      },
      "to": "0x07bB818A498A68E1A52A7457181efa52980109A9",
      "value": {
        "_hex": "0x0"
      },
      "nonce": 1,
      "data": "0x41c0e1b5",
      "r": "0x8576bd3c147c6a8e5b8e1a0b86826e2ceeddd0bec32bdae5b1af883cdb7eafc9",
      "s": "0x7a6ae63a9ff97bab5104332e53c5529de8024868374f5876072570ab7ba98445",
      "v": 27,
      "creates": null,
      "raw": "0xf86901850ba43b740083015f909407bb818a498a68e1a52a7457181efa52980109a9808441c0e1b51ba08576bd3c147c6a8e5b8e1a0b86826e2ceeddd0bec32bdae5b1af883cdb7eafc9a07a6ae63a9ff97bab5104332e53c5529de8024868374f5876072570ab7ba98445",
      "networkId": 0,
      "chainId": 0
    }
  ]
}