{
  "hash": "0x017549e860015fe141934f158b6003668f06203ef47b075399792b4767fcabd3",
  "parentHash": "0x31e6199b76d437639431ffbb5fc864372a00a847d2e0501999c992343d61eb5c",
  "number": 105452,
  "timestamp": 1439887900,
  "nonce": "0x06d56d304eb0d80e",
  "difficulty": 4388891146611,
  "gasLimit": {
    "_hex": "0x2fefd8"
  },
  "gasUsed": {
    "_hex": "0x5208"
  },
  "miner": "0x7366ADF97960d404c38D975e1A8786bEb14B6507",
  "extraData": "0x476574682f76312e302e312f77696e646f77732f676f312e342e32",
  "transactions": [
    {
      "hash": "0x1213f0206af8f163fac2450f20040c9f1d06412570495b1af34e7182b8a33fb4",
      "blockHash": "0x017549e860015fe141934f158b6003668f06203ef47b075399792b4767fcabd3",
      "blockNumber": 105452,
      "transactionIndex": 0,
      "confirmations": null,
      "from": "0x665646727edaAEbB32B5F1A9b4e4F3BD867AA8fB",
      "gasPrice": {
        "_hex": "0xcab15a115"
      },
      "gasLimit": {
        "_hex": "0x5208"
      },
      "to": "0x32Be343B94f860124dC4fEe278FDCBD38C102D88",
      "value": {
        "_hex": "0x7bbbb2f099aa50000"
      },
      "nonce": 4,
      "data": "0x",
      "r": "0x27d9aaa2d95f6c2247f64456655f1c740021a3fa979b0da6e7b0217fa6f5494f",
      "s": "0x7c77a0c3b55bec19ca75d4110ddb73043c0ebb409956bb5a0bad9bc44bc9b9cb",
      "v": 28,
      "creates": null,
      "raw": "0xf86d04850cab15a1158252089432be343b94f860124dc4fee278fdcbd38c102d888907bbbb2f099aa50000801ca027d9aaa2d95f6c2247f64456655f1c740021a3fa979b0da6e7b0217fa6f5494fa07c77a0c3b55bec19ca75d4110ddb73043c0ebb409956bb5a0bad9bc44bc9b9cb",
      "networkId": 0,
      "chainId": 0
    }
  ]
}