{
  "hash": "0x07ccd3c50e1fcce2f913bcfc1201c4f236ffd8d9dda0f771e3841581aca76a2d",
  "parentHash": "0x32a3dc12f4d7365407e53448a2cef0218af6a73c79b1f1e017dac546e171c5cc",
  "number": 115923,
  "timestamp": 1440065481,
  "nonce": "0x8a39f3fd1910cc5c",
  "difficulty": 4587056478295,
  "gasLimit": {
    "_hex": "0x2fefd8"
  },
  "gasUsed": {
    "_hex": "0x5208"
  },
  "miner": "0x790b8a3cE86E707ED0eD32bF89B3269692a23CC1",
  "extraData": "0xd783010001844765746887676f312e342e32856c696e7578",
  "transactions": [
    {
      "hash": "0x9a091ec40a4b061489812d72bcf5b58f33d1c60f10619df77cd8ccf5051fe56b",
      "blockHash": "0x07ccd3c50e1fcce2f913bcfc1201c4f236ffd8d9dda0f771e3841581aca76a2d",
      "blockNumber": 115923,
      "transactionIndex": 0,
      "confirmations": null,
      "from": "0x890Fe11f3c24dB8732D6C2e772E2297c7E65F139",
      "gasPrice": {
        "_hex": "0xce10dab15"
      },
      "gasLimit": {
        "_hex": "0x15f90"
      },
      "to": "0x45E19D9F052b9c35AC8385094C9fff6f1C544794",
      "value": {
        "_hex": "0x1b1ae4d6e2ef5000000"
      },
      "nonce": 3,
      "data": "0x",
      "r": "0x065991bf1626fc32e77347b834609390662b8b9a848d0532be9abee54f3ed38e",
      "s": "0x4bb5df9fd482c56226320d6e71064c9a9a81ff3bbb4c6d21b00bce1b85418147",
      "v": 27,
      "creates": null,
      "raw": "0xf86f03850ce10dab1583015f909445e19d9f052b9c35ac8385094c9fff6f1c5447948a01b1ae4d6e2ef5000000801ba0065991bf1626fc32e77347b834609390662b8b9a848d0532be9abee54f3ed38ea04bb5df9fd482c56226320d6e71064c9a9a81ff3bbb4c6d21b00bce1b85418147",
      "networkId": 0,
      "chainId": 0
    }
  ]
}