{
  "hash": "0x92ba323f0222a6d7d8d99c21bef82e55e6edbb25256f1d51cccc827eab17f0d6",
  "parentHash": "0xb77ff6cc88f8bc426819f50d04030d935ce1c1c93f32dc289a43b03b1055bc81",
  "number": 72405,
  "timestamp": 1439352193,
  "nonce": "0x3ec1f80dc7cac205",
  "difficulty": 2190841233226,
  "gasLimit": {
    "_hex": "0x2fefd8"
  },
  "gasUsed": {
    "_hex": "0xa410"
  },
  "miner": "0xe6A7a1d47ff21B6321162AEA7C6CB457D5476Bca",
  "extraData": "0x476574682f76312e302e312d38326566323666362f6c696e75782f676f312e34",
  "transactions": [
    {
      "hash": "0xabbc611209d2c092c4491fd86376597b9131efbe15ebeda1ef066350c696aeb2",
      "blockHash": "0x92ba323f0222a6d7d8d99c21bef82e55e6edbb25256f1d51cccc827eab17f0d6",
      "blockNumber": 72405,
      "transactionIndex": 0,
      "confirmations": null,
      "from": "0x120A270bbC009644e35F0bB6ab13f95b8199c4ad",
      "gasPrice": {
        "_hex": "0xd418cc39d"
      },
      "gasLimit": {
        "_hex": "0x15f90"
      },
      "to": "0x6baeC65168a4fBB94b9557C65Dfc7cef5c6fBb8a",
      "value": {
        "_hex": "0xf700e9354cd891000"
      },
      "nonce": 244,
      "data": "0x",
      "r": "0x0b1350d9f19a02f69a4aa0178c7328e106c4fe73ff355c42db7574a1fc8c0e01",
      "s": "0x5d38b092c9cc5e5c92800550fd0fcbf68dce6ab061ba4a0dbab9a1329cd53130",
      "v": 28,
      "creates": null,
      "raw": "0xf86f81f4850d418cc39d83015f90946baec65168a4fbb94b9557c65dfc7cef5c6fbb8a890f700e9354cd891000801ca00b1350d9f19a02f69a4aa0178c7328e106c4fe73ff355c42db7574a1fc8c0e01a05d38b092c9cc5e5c92800550fd0fcbf68dce6ab061ba4a0dbab9a1329cd53130",
      "networkId": 0,
      "chainId": 0
    },
    {
      "hash": "0xdd63f72e90a1683a72dd8b9690c7614ab4cac6c79b03e7d551a7ac31351dd7e7",
      "blockHash": "0x92ba323f0222a6d7d8d99c21bef82e55e6edbb25256f1d51cccc827eab17f0d6",
      "blockNumber": 72405,
      "transactionIndex": 1,
      "confirmations": null,
      "from": "0x120A270bbC009644e35F0bB6ab13f95b8199c4ad",
      "gasPrice": {
        "_hex": "0xd418cc39d"
      },
      "gasLimit": {
        "_hex": "0x15f90"
      },
      "to": "0x0C834b0a01810533a5417Ee59c7bB6b5D3956A82",
      "value": {
        "_hex": "0x2e5072c7e3481d3000"
      },
      "nonce": 245,
      "data": "0x",
      "r": "0xf75cd6cad15a8b37ce9490de1bd48fa763e41cee13aa8641ff681bd5363946b6",
      "s": "0x3ac1bba63abd8a83c31c14c77f4ba92b8d60d9fa63a44f55e0c53783c704a786",
      "v": 27,
      "creates": null,
      "raw": "0xf86f81f5850d418cc39d83015f90940c834b0a01810533a5417ee59c7bb6b5d3956a82892e5072c7e3481d3000801ba0f75cd6cad15a8b37ce9490de1bd48fa763e41cee13aa8641ff681bd5363946b6a03ac1bba63abd8a83c31c14c77f4ba92b8d60d9fa63a44f55e0c53783c704a786",
      "networkId": 0,
      "chainId": 0
    }
  ]
}