{
  "hash": "0x6900c05d55abe08dcffc862f6faf48ff2e6796b7c60b4bc51ff2277cd32ce03a",
  "parentHash": "0x517b2c1c2dc4e133790f2c4dcad7744008afa73aff63ab81dbf94505b0646a73",
  "number": 94671,
  "timestamp": 1439712012,
  "nonce": "0x3c368b5dcb02c70f",
  "difficulty": 3495085644004,
  "gasLimit": {
    "_hex": "0x2fefd8"
  },
  "gasUsed": {
    "_hex": "0x1ec30"
  },
  "miner": "0xe6A7a1d47ff21B6321162AEA7C6CB457D5476Bca",
  "extraData": "0x476574682f76312e302e312d38326566323666362f6c696e75782f676f312e34",
  "transactions": [
    {
      "hash": "0xb7088bc42ecfadb4b06c357a77a03752128048966cb75e1e89bc18b2a5a41722",
      "blockHash": "0x6900c05d55abe08dcffc862f6faf48ff2e6796b7c60b4bc51ff2277cd32ce03a",
      "blockNumber": 94671,
      "transactionIndex": 0,
      "confirmations": null,
      "from": "0xe6A7a1d47ff21B6321162AEA7C6CB457D5476Bca",
      "gasPrice": {
        "_hex": "0xd8dbe07b2"
      },
      "gasLimit": {
        "_hex": "0x55f0"
      },
      "to": "0x226E8B888E9F360E1Aea28229C40E2adC5D698b5",
      "value": {
        "_hex": "0x1b757d873cbe4c0a0"
      },
      "nonce": 2931,
      "data": "0x",
      "r": "0xca71d1ef0ae3dd7d19c62a3f153fad875d3112d9f7fda0af613cc9d0865f62f5",
      "s": "0x2e973e791ad9afa7edb0033dec88631a34c6bc103e4327f135815e274c0e76dd",
      "v": 28,
      "creates": null,
      "raw": "0xf86f820b73850d8dbe07b28255f094226e8b888e9f360e1aea28229c40e2adc5d698b58901b757d873cbe4c0a0801ca0ca71d1ef0ae3dd7d19c62a3f153fad875d3112d9f7fda0af613cc9d0865f62f5a02e973e791ad9afa7edb0033dec88631a34c6bc103e4327f135815e274c0e76dd",
      "networkId": 0,
      "chainId": 0
    },
    {
      "hash": "0xedcc0ecadaf9f621ccd5c3eeeacc4c821b74e601cc693e069e5b7b0bd8fb7afa",
      "blockHash": "0x6900c05d55abe08dcffc862f6faf48ff2e6796b7c60b4bc51ff2277cd32ce03a",
      "blockNumber": 94671,
      "transactionIndex": 1,
      "confirmations": null,
      "from": "0xe6A7a1d47ff21B6321162AEA7C6CB457D5476Bca",
      "gasPrice": {
        "_hex": "0xd8dbe07b2"
      },
      "gasLimit": {
        "_hex": "0x55f0"
      },
      "to": "0xBa9CF76D809cF9f2e3f180AFb33f0adb0826D7DF",
      "value": {
        "_hex": "0x1cacd1d60e3557e40"
      },
      "nonce": 2932,
      "data": "0x",
      "r": "0x0cf3c86eb6076ee64feaa9c06cb17ff04aa88d2b4d86e6c41944ef4e9e1ff5bf",
      "s": "0x3391e77275dc859026c4244e81b6b8d2f27d8174193542660ebc3140a8c28f4f",
      "v": 27,
      "creates": null,
      "raw": "0xf86f820b74850d8dbe07b28255f094ba9cf76d809cf9f2e3f180afb33f0adb0826d7df8901cacd1d60e3557e40801ba00cf3c86eb6076ee64feaa9c06cb17ff04aa88d2b4d86e6c41944ef4e9e1ff5bfa03391e77275dc859026c4244e81b6b8d2f27d8174193542660ebc3140a8c28f4f",
      "networkId": 0,
      "chainId": 0
    },
    {
      "hash": "0x16c1b7d50441361a02152efecfdb1f55562599ae530d421353e7097f0f36a1de",
      "blockHash": "0x6900c05d55abe08dcffc862f6faf48ff2e6796b7c60b4bc51ff2277cd32ce03a",
      "blockNumber": 94671,
      "transactionIndex": 2,
      "confirmations": null,
      "from": "0xe6A7a1d47ff21B6321162AEA7C6CB457D5476Bca",
      "gasPrice": {
        "_hex": "0xd8dbe07b2"
      },
      "gasLimit": {
        "_hex": "0x55f0"
      },
      "to": "0x04455296AB1f01C09050A906d4476480Cc7583d4",
      "value": {
        "_hex": "0x1d96666b328da7040"
      },
      "nonce": 2933,
      "data": "0x",
      "r": "0x6df5cda660d0fa66c8e2ba8508a2b96cec524133951b2290bcdd1e46514efda7",
      "s": "0x2b75602a680935a54278de3e3851673ac7b3dd98791882f5e047bad0a75f3846",
      "v": 28,
      "creates": null,
      "raw": "0xf86f820b75850d8dbe07b28255f09404455296ab1f01c09050a906d4476480cc7583d48901d96666b328da7040801ca06df5cda660d0fa66c8e2ba8508a2b96cec524133951b2290bcdd1e46514efda7a02b75602a680935a54278de3e3851673ac7b3dd98791882f5e047bad0a75f3846",
      "networkId": 0,
      "chainId": 0
    },
    {
      "hash": "0xc8e4176d7c0321381a8b9aab849a284b9b156cd62d0e53f84807d5aa32dd13e9",
      "blockHash": "0x6900c05d55abe08dcffc862f6faf48ff2e6796b7c60b4bc51ff2277cd32ce03a",
      "blockNumber": 94671,
      "transactionIndex": 3,
      "confirmations": null,
      "from": "0x117D2945355d346cE6637d6D5CC9A9E46CB43B73",
      "gasPrice": {
        "_hex": "0xcd44510bc"
      },
      "gasLimit": {
        "_hex": "0x5208"
      },
      "to": "0x32Be343B94f860124dC4fEe278FDCBD38C102D88",
      "value": {
        "_hex": "0x2cab0a4bf2e0e0000"
      },
      "nonce": 11,
      "data": "0x",
      "r": "0x34ae8ce1d96647b6a13326c78bc92b5e83ce9b02d2fee01de0e82c8cc0beede0",
      "s": "0x4e68a9bfbf1771d4a3edabf424a963e63f2b932d265fb086bcad8d01cafe4b26",
      "v": 28,
      "creates": null,
      "raw": "0xf86d0b850cd44510bc8252089432be343b94f860124dc4fee278fdcbd38c102d888902cab0a4bf2e0e0000801ca034ae8ce1d96647b6a13326c78bc92b5e83ce9b02d2fee01de0e82c8cc0beede0a04e68a9bfbf1771d4a3edabf424a963e63f2b932d265fb086bcad8d01cafe4b26",
      "networkId": 0,
      "chainId": 0
    },
    {
      "hash": "0x142d7eee600205b85aa61e3c8a0b007ab108632ed05d729146b4bd3b747b50e9",
      "blockHash": "0x6900c05d55abe08dcffc862f6faf48ff2e6796b7c60b4bc51ff2277cd32ce03a",
      "blockNumber": 94671,
      "transactionIndex": 4,
      "confirmations": null,
      "from": "0x007f7f58D3eb5b7510A301eCC749FC1fCDDBE14D",
      "gasPrice": {
        "_hex": "0xcc8ddf695"
      },
      "gasLimit": {
        "_hex": "0x15f90"
      },
      "to": "0xb1abce2918E21ddb93AA452731a12672A3d9F75a",
      "value": {
        "_hex": "0x4563918244f40000"
      },
      "nonce": 40,
      "data": "0x",
      "r": "0xe3adfaef08b204703173414e0f6b0fc64b073b3afeb7dabdff49fa7f4424f297",
      "s": "0x25d87ba15f1b11e6b36f2dd0a06db6272f6ec16f76c93e4721ef9479190aa531",
      "v": 27,
      "creates": null,
      "raw": "0xf86d28850cc8ddf69583015f9094b1abce2918e21ddb93aa452731a12672a3d9f75a884563918244f40000801ba0e3adfaef08b204703173414e0f6b0fc64b073b3afeb7dabdff49fa7f4424f297a025d87ba15f1b11e6b36f2dd0a06db6272f6ec16f76c93e4721ef9479190aa531",
      "networkId": 0,
      "chainId": 0
    },
    {
      "hash": "0x7e2fed5361728ce8780da90234cf687b72378a5c6d21c8dcfb4b7665a3bf508c",
      "blockHash": "0x6900c05d55abe08dcffc862f6faf48ff2e6796b7c60b4bc51ff2277cd32ce03a",
      "blockNumber": 94671,
      "transactionIndex": 5,
      "confirmations": null,
      "from": "0x3faFe90631678f97C1D101ea02D4cd743cBD24ed",
      "gasPrice": {
        "_hex": "0xba43b7400"
      },
      "gasLimit": {
        "_hex": "0x5208"
      },
      "to": "0xC47Aaa860008be6f65B58c6C6E02a84e666EfE31",
      "value": {
        "_hex": "0xc2347f61c293b8f0"
      },
      "nonce": 5,
      "data": "0x",
      "r": "0xa60cc089ca5beac71380963b6565bde1c436c69224163b72669726ab1ba1f761",
      "s": "0x4c150f79cf985525ad831842901daf0944958eff2cdcc03769f64ed953ec9b1e",
      "v": 28,
      "creates": null,
      "raw": "0xf86c05850ba43b740082520894c47aaa860008be6f65b58c6c6e02a84e666efe3188c2347f61c293b8f0801ca0a60cc089ca5beac71380963b6565bde1c436c69224163b72669726ab1ba1f761a04c150f79cf985525ad831842901daf0944958eff2cdcc03769f64ed953ec9b1e",
      "networkId": 0,
      "chainId": 0
    }
  ]
}