{
  "hash": "0x8a5f397d1c075e76f675ff941f00ac9f341dfcc0e57614be447a84a1cdc49d7a",
  "parentHash": "0xe1ca58916cb1a8255fa81d59945911c7b751fd410148ba269cdbf8e340363bb8",
  "number": 78711,
  "timestamp": 1439458022,
  "nonce": "0x2d8ac199f0fcf7d5",
  "difficulty": 2300987899828,
  "gasLimit": {
    "_hex": "0x2fefd8"
  },
  "gasUsed": {
    "_hex": "0x5208"
  },
  "miner": "0xe6A7a1d47ff21B6321162AEA7C6CB457D5476Bca",
  "extraData": "0x476574682f76312e302e312d38326566323666362f6c696e75782f676f312e34",
  "transactions": [
    {
      "hash": "0x8c02207f4fa93ffb8ce66f63c473b60317d5017812622cee4f363862e5815bb1",
      "blockHash": "0x8a5f397d1c075e76f675ff941f00ac9f341dfcc0e57614be447a84a1cdc49d7a",
      "blockNumber": 78711,
      "transactionIndex": 0,
      "confirmations": null,
      "from": "0x2910543Af39abA0Cd09dBb2D50200b3E800A63D2",
      "gasPrice": {
        "_hex": "0xdda9d8cf0"
      },
      "gasLimit": {
        "_hex": "0x5208"
      },
      "to": "0x643e0D1e2F964602FcbB9182D06f50A68F59Cb9e",
      "value": {
        "_hex": "0x89c44612644c666000"
      },
      "nonce": 347,
      "data": "0x",
      "r": "0xdaee87e8cfbf0663490471dcfadcc2373f79d1ce23122c9fb7f2bd1169120b74",
      "s": "0x32ccd69fbd3e9590c552d5ff9e489d4fe70164b7c8e6195b80c827653a136d5e",
      "v": 28,
      "creates": null,
      "raw": "0xf86f82015b850dda9d8cf082520894643e0d1e2f964602fcbb9182d06f50a68f59cb9e8989c44612644c666000801ca0daee87e8cfbf0663490471dcfadcc2373f79d1ce23122c9fb7f2bd1169120b74a032ccd69fbd3e9590c552d5ff9e489d4fe70164b7c8e6195b80c827653a136d5e",
      "networkId": 0,
      "chainId": 0
    }
  ]
}