{
  "hash": "0x4cfe54c03f1c198b7b9a076a5b29a426961c85c9e4b50340426bb044dd9617f0",
  "parentHash": "0x7e63b0751257e1eec9ad0110819ed350e787c58bfed37caf927e2c7b6dd3d53b",
  "number": 96405,
  "timestamp": 1439739904,
  "nonce": "0x2346a333c19d1b1a",
  "difficulty": 3662061260756,
  "gasLimit": {
    "_hex": "0x2fefd8"
  },
  "gasUsed": {
    "_hex": "0x5208"
  },
  "miner": "0x77EC9ad4A7E9418774C29415CAaF4Ee0da96eF64",
  "extraData": "0x",
  "transactions": [
    {
      "hash": "0x246a158274818c9e67525bf9b4a7a2a081fbda0a24f394c95ddc20ee6ce75a1f",
      "blockHash": "0x4cfe54c03f1c198b7b9a076a5b29a426961c85c9e4b50340426bb044dd9617f0",
      "blockNumber": 96405,
      "transactionIndex": 0,
      "confirmations": null,
      "from": "0x5e1E5C470DFbE20120224C1358Bb193e5837C840",
      "gasPrice": {
        "_hex": "0xba43b7400"
      },
      "gasLimit": {
        "_hex": "0x5208"
      },
      "to": "0xC47Aaa860008be6f65B58c6C6E02a84e666EfE31",
      "value": {
        "_hex": "0x34dc1bd8253938f0"
      },
      "nonce": 2,
      "data": "0x",
      "r": "0xf617ac7fa5d759b8976b905d12a87a539939539d0c2bbe65e7f243f7c8741e94",
      "s": "0x2f715f2f3c516f9364a6d5a3b8cd9f2f3682b9ce75f060b5fd1643094cc7576f",
      "v": 28,
      "creates": null,
      "raw": "0xf86c02850ba43b740082520894c47aaa860008be6f65b58c6c6e02a84e666efe318834dc1bd8253938f0801ca0f617ac7fa5d759b8976b905d12a87a539939539d0c2bbe65e7f243f7c8741e94a02f715f2f3c516f9364a6d5a3b8cd9f2f3682b9ce75f060b5fd1643094cc7576f",
      "networkId": 0,
      "chainId": 0
    }
  ]
}