{
  "hash": "0xdb2da73499f0861147da2f991828028dcdb963dde6d5dc7fb0a0ad881d2fae51",
  "parentHash": "0x65b1aa32e73cf3819178f18e2b67b5bd3c03810e8e832ee72d1ce2f97131b037",
  "number": 56286,
  "timestamp": 1439084841,
  "nonce": "0x66b8b21406569de9",
  "difficulty": 1648038863128,
  "gasLimit": {
    "_hex": "0x2fefd8"
  },
  "gasUsed": {
    "_hex": "0x546c"
  },
  "miner": "0x3cdA97032227293AaeAEF72f44C1AdCfC3daF366",
  "extraData": "0x476574682f76312e302e312d38326566323666362f6c696e75782f676f312e34",
  "transactions": [
    {
      "hash": "0x6ea0238824bd554919cce0495661eb6ef126c2e8a8ebd6e71708330bb19fc365",
      "blockHash": "0xdb2da73499f0861147da2f991828028dcdb963dde6d5dc7fb0a0ad881d2fae51",
      "blockNumber": 56286,
      "transactionIndex": 0,
      "confirmations": null,
      "from": "0xc749668042E71123A648975E08Ed6382f83E05e2",
      "gasPrice": {
        "_hex": "0x110c8f7d8de"
      },
      "gasLimit": {
        "_hex": "0xc350"
      },
      "to": "0x2910543Af39abA0Cd09dBb2D50200b3E800A63D2",
      "value": {
        "_hex": "0x9d3595ab2438d00000"
      },
      "nonce": 3,
      "data": "0x454e31545835574d30",
      "r": "0x8d8b4297d5e96785701671861bc9b2fd46b45d950ce8df321d1af1aea4fc87dc",
      "s": "0x3db0adf0df20c5fb35a5d985b21b5073651a9449161317ef4d6d6bd012a9b7a4",
      "v": 27,
      "creates": null,
      "raw": "0xf87703860110c8f7d8de82c350942910543af39aba0cd09dbb2d50200b3e800a63d2899d3595ab2438d0000089454e31545835574d301ba08d8b4297d5e96785701671861bc9b2fd46b45d950ce8df321d1af1aea4fc87dca03db0adf0df20c5fb35a5d985b21b5073651a9449161317ef4d6d6bd012a9b7a4",
      "networkId": 0,
      "chainId": 0
    }
  ]
}