{
  "hash": "0xf5b91e12388a1164c52ce36df3d91f3e36cdcb029fecd9a1e52ce948f1aa37d6",
  "parentHash": "0x74df99fc3280f0ec0ef9992fcd8b1262a0d7bfa4e17c714acb1de431d0600714",
  "number": 82617,
  "timestamp": 1439522294,
  "nonce": "0xcb3094f0f65be560",
  "difficulty": 2372923936725,
  "gasLimit": {
    "_hex": "0x2fefd8"
  },
  "gasUsed": {
    "_hex": "0xa410"
  },
  "miner": "0x02dE7d35a60bf6A216411476040ec648668769D7",
  "extraData": "0x476574682f76312e302e312f77696e646f77732f676f312e342e32",
  "transactions": [
    {
      "hash": "0x401ce37ac1e43ae1de5c6f7ecbfdfd0d3c74618e3b1d91990c19df2ee7ab25d0",
      "blockHash": "0xf5b91e12388a1164c52ce36df3d91f3e36cdcb029fecd9a1e52ce948f1aa37d6",
      "blockNumber": 82617,
      "transactionIndex": 0,
      "confirmations": null,
      "from": "0x003a0659d5452a076403d1411E617C9665955d59",
      "gasPrice": {
        "_hex": "0xba43b7400"
      },
      "gasLimit": {
        "_hex": "0x5213"
      },
      "to": "0x007761BFEF91f6D2B5aa41B0197BF496978eEb73",
      "value": {
        "_hex": "0x2c68af0bb140000"
      },
      "nonce": 0,
      "data": "0x",
      "r": "0xfe0f3c71cfafc5da2004f38a27cf6eb5061504e07b3113c5679f15f2c58666e2",
      "s": "0x1e25ecfa7cf7204f6bac5f9195cd3437b2c0bdabd4a0935e7549f3fe7aa788bc",
      "v": 28,
      "creates": null,
      "raw": "0xf86c80850ba43b740082521394007761bfef91f6d2b5aa41b0197bf496978eeb738802c68af0bb140000801ca0fe0f3c71cfafc5da2004f38a27cf6eb5061504e07b3113c5679f15f2c58666e2a01e25ecfa7cf7204f6bac5f9195cd3437b2c0bdabd4a0935e7549f3fe7aa788bc",
      "networkId": 0,
      "chainId": 0
    },
    {
      "hash": "0x3be504f3d757e9b58f9b861be2489f3eded10659ce1a00e02fcec8e86802f16d",
      "blockHash": "0xf5b91e12388a1164c52ce36df3d91f3e36cdcb029fecd9a1e52ce948f1aa37d6",
      "blockNumber": 82617,
      "transactionIndex": 1,
      "confirmations": null,
      "from": "0x59b7ee394b4F4EED8494C7920103D7e7e7E2BFF4",
      "gasPrice": {
        "_hex": "0xba43b7400"
      },
      "gasLimit": {
        "_hex": "0x5b04"
      },
      "to": "0x58ad1c67eF353A08C79710732002C43A8F4237B1",
      "value": {
        "_hex": "0xde0b6b3a7640000"
      },
      "nonce": 1,
      "data": "0x",
      "r": "0xdbce6967b5b7b369d79d298745b168f650b591112c3eb8a5d64222a4cc8e2c19",
      "s": "0xaeeb569a88ec7c4628ad00198f2d3272e3abc06c4ae436f5ca7fbdf29ab2a07a",
      "v": 27,
      "creates": null,
      "raw": "0xf86c01850ba43b7400825b049458ad1c67ef353a08c79710732002c43a8f4237b1880de0b6b3a7640000801ba0dbce6967b5b7b369d79d298745b168f650b591112c3eb8a5d64222a4cc8e2c19a0aeeb569a88ec7c4628ad00198f2d3272e3abc06c4ae436f5ca7fbdf29ab2a07a",
      "networkId": 0,
      "chainId": 0
    }
  ]
}