{
  "hash": "0x26a3634cb4ea03d02d54749f5fa8a2062315b6e0eb522e5020c9c8552ad7069a",
  "parentHash": "0x186573ff0d72377b7649f287eb4655e140e655101eaa75e97658ec718030b9a1",
  "number": 106829,
  "timestamp": 1439911314,
  "nonce": "0xe05f94f08bcaf140",
  "difficulty": 4424747610653,
  "gasLimit": {
    "_hex": "0x2fefd8"
  },
  "gasUsed": {
    "_hex": "0x6ed3"
  },
  "miner": "0xe6A7a1d47ff21B6321162AEA7C6CB457D5476Bca",
  "extraData": "0x476574682f76312e302e312d38326566323666362f6c696e75782f676f312e34",
  "transactions": [
    {
      "hash": "0xe98739ccfca54affbe0649a0d47b707bd930a46cba3ded56b0873ce9829b0e8f",
      "blockHash": "0x26a3634cb4ea03d02d54749f5fa8a2062315b6e0eb522e5020c9c8552ad7069a",
      "blockNumber": 106829,
      "transactionIndex": 0,
      "confirmations": null,
      "from": "0x87C5B5874A18B4306DF8a752a6C8cc3E82daFc19",
      "gasPrice": {
        "_hex": "0x114c815bbc1"
      },
      "gasLimit": {
        "_hex": "0x493e0"
      },
      "to": "0xD79B4C6791784184e2755B2fC1659eaaB0f80456",
      "value": {
        "_hex": "0x0"
      },
      "nonce": 360,
      "data": "0xbd66528a6b6b6b0000000000000000000000000000000000000000000000000000000000",
      "r": "0xbea1ef6ca1b2a72cbeee99d2aa25c0a52b872d7c62be75365430a15c81772d5a",
      "s": "0x78c78ac8d86f1c188731e3c2d031321c9db4988043786baf7f1da5a7c32ff74c",
      "v": 27,
      "creates": null,
      "raw": "0xf88c820168860114c815bbc1830493e094d79b4c6791784184e2755b2fc1659eaab0f8045680a4bd66528a6b6b6b00000000000000000000000000000000000000000000000000000000001ba0bea1ef6ca1b2a72cbeee99d2aa25c0a52b872d7c62be75365430a15c81772d5aa078c78ac8d86f1c188731e3c2d031321c9db4988043786baf7f1da5a7c32ff74c",
      "networkId": 0,
      "chainId": 0
    }
  ]
}