{
  "hash": "0x6c84678e6895bafdb4c84aa73d8d523c2377d8e742e67e103d261338aaed0aa9",
  "parentHash": "0xf60cf5de9dfdda4f55dea26068a2cb2396dff5b2c24b262cb62aaf78e064c764",
  "number": 90738,
  "timestamp": 1439644749,
  "nonce": "0xa7bd764e7964e9a9",
  "difficulty": 3377577575159,
  "gasLimit": {
    "_hex": "0x2fefd8"
  },
  "gasUsed": {
    "_hex": "0x5208"
  },
  "miner": "0x0eDEd3DA479d0beF8eeC92A76644D3f4E3C177f7",
  "extraData": "0x476574682f76312e302e312f6c696e75782f676f312e342e32",
  "transactions": [
    {
      "hash": "0x5e788d7f3eef4c41f656f62675cbb9de6b64a388ef26b86d68789840ed0cb71f",
      "blockHash": "0x6c84678e6895bafdb4c84aa73d8d523c2377d8e742e67e103d261338aaed0aa9",
      "blockNumber": 90738,
      "transactionIndex": 0,
      "confirmations": null,
      "from": "0xa70a9a7040d542C632D8e0bE7c5513A8a5Bbc752",
      "gasPrice": {
        "_hex": "0xd73ab5974"
      },
      "gasLimit": {
        "_hex": "0x5208"
      },
      "to": "0x32Be343B94f860124dC4fEe278FDCBD38C102D88",
      "value": {
        "_hex": "0x8ac2d38e1a8a2000"
      },
      "nonce": 115,
      "data": "0x",
      "r": "0xd080cd9c0376fbcb4571f10f8c4770e9ffe7d5202c803478cc8fe228cada897e",
      "s": "0x708746d6fd73336615dfce7b44c5a67cdc73b5a9a2a4a5def994186f902cd881",
      "v": 27,
      "creates": null,
      "raw": "0xf86c73850d73ab59748252089432be343b94f860124dc4fee278fdcbd38c102d88888ac2d38e1a8a2000801ba0d080cd9c0376fbcb4571f10f8c4770e9ffe7d5202c803478cc8fe228cada897ea0708746d6fd73336615dfce7b44c5a67cdc73b5a9a2a4a5def994186f902cd881",
      "networkId": 0,
      "chainId": 0
    }
  ]
}