{
  "hash": "0x64bdd002c0292f6da0b7e05a5453391726cfd7e22085f2a9bbff9fcdae4e7df6",
  "parentHash": "0xa8842a10a5289a7151cf2977e770795e0f97831a9666bb1bdc5eb7f3ddd843b5",
  "number": 59498,
  "timestamp": 1439139176,
  "nonce": "0x456673f943cd2033",
  "difficulty": 1699702295434,
  "gasLimit": {
    "_hex": "0x2fefd8"
  },
  "gasUsed": {
    "_hex": "0x5208"
  },
  "miner": "0xf927a40C8B7F6E07c5af7FA2155B4864a4112B13",
  "extraData": "0x476574682f76312e302e312f6c696e75782f676f312e342e32",
  "transactions": [
    {
      "hash": "0x608bdc5b2415e91f3208622274435e42e3bd1b47ad9b209d616fa2f7dd21058f",
      "blockHash": "0x64bdd002c0292f6da0b7e05a5453391726cfd7e22085f2a9bbff9fcdae4e7df6",
      "blockNumber": 59498,
      "transactionIndex": 0,
      "confirmations": null,
      "from": "0x5e1a72dde3Ffc20B77eA8382E916EF04C89ff2Bd",
      "gasPrice": {
        "_hex": "0xd641f460d"
      },
      "gasLimit": {
        "_hex": "0x15f90"
      },
      "to": "0xdD81AaddCc8448A5fC0ac28DB93ec6801C21E8Ef",
      "value": {
        "_hex": "0x29a2241af62c00000"
      },
      "nonce": 2,
      "data": "0x",
      "r": "0x7f319bd42a928fdef94a1abac96eb66a07a186e7ab75eab00b9cac9813160b4d",
      "s": "0x3fea6291e2742c182ba3de56393e97bfbebb67db4fbbae999ec790e138745039",
      "v": 27,
      "creates": null,
      "raw": "0xf86e02850d641f460d83015f9094dd81aaddcc8448a5fc0ac28db93ec6801c21e8ef89029a2241af62c00000801ba07f319bd42a928fdef94a1abac96eb66a07a186e7ab75eab00b9cac9813160b4da03fea6291e2742c182ba3de56393e97bfbebb67db4fbbae999ec790e138745039",
      "networkId": 0,
      "chainId": 0
    }
  ]
}