{
  "hash": "0xc133577893fbd7d7a6efff8a67cc8a8e2ad8986cd90703c6074d55219c616099",
  "parentHash": "0xa71301d76f84bdf40787673b51ba1e3bd2946ae44f726a5094cd970bf2405d79",
  "number": 46966,
  "timestamp": 1438932407,
  "nonce": "0x6796ce0ab11596ff",
  "difficulty": 1453164960185,
  "gasLimit": {
    "_hex": "0x8a1b"
  },
  "gasUsed": {
    "_hex": "0x5208"
  },
  "miner": "0xf8E0CA3Ed80bd541b94BEdCf259e8CF2141A9523",
  "extraData": "0x476574682f76312e302e312f77696e646f77732f676f312e342e32",
  "transactions": [
    {
      "hash": "0x06f1cbe55060962cad62b8c7e940f3267943ca13fc1b779398048c79d47479b3",
      "blockHash": "0xc133577893fbd7d7a6efff8a67cc8a8e2ad8986cd90703c6074d55219c616099",
      "blockNumber": 46966,
      "transactionIndex": 0,
      "confirmations": null,
      "from": "0xe6A7a1d47ff21B6321162AEA7C6CB457D5476Bca",
      "gasPrice": {
        "_hex": "0xd1b97f47d"
      },
      "gasLimit": {
        "_hex": "0x5208"
      },
      "to": "0x3630afDceC364199C429E0907896Fb114b38a0DD",
      "value": {
        "_hex": "0x19a759938865323c"
      },
      "nonce": 24,
      "data": "0x",
      "r": "0x6e547e676c7521c591fe0b8a047171e8acfdba7f71b93e24e321c465570d1f09",
      "s": "0x65b9d8247bba61860a894fc59ffed52fa4e579c0db2396b81baba5498fffb765",
      "v": 28,
      "creates": null,
      "raw": "0xf86c18850d1b97f47d825208943630afdcec364199c429e0907896fb114b38a0dd8819a759938865323c801ca06e547e676c7521c591fe0b8a047171e8acfdba7f71b93e24e321c465570d1f09a065b9d8247bba61860a894fc59ffed52fa4e579c0db2396b81baba5498fffb765",
      "networkId": 0,
      "chainId": 0
    }
  ]
}