{
  "hash": "0x9dc7d9b0c03f7b96b686ee10155a03e495d5aa2a1447c9b9dfb9e095f4275204",
  "parentHash": "0x524552ebbb1748681362e569552f46cc20f0cab58fa1a0ad9a66717cf0770d4d",
  "number": 107286,
  "timestamp": 1439919730,
  "nonce": "0xd10ca760ba4ff0b5",
  "difficulty": 4418030096313,
  "gasLimit": {
    "_hex": "0x2fefd8"
  },
  "gasUsed": {
    "_hex": "0x5208"
  },
  "miner": "0xe6A7a1d47ff21B6321162AEA7C6CB457D5476Bca",
  "extraData": "0x476574682f76312e302e312d38326566323666362f6c696e75782f676f312e34",
  "transactions": [
    {
      "hash": "0x3eef0bfc7bffbb0aef4080ad07f893c34fa4525484e1887ac0dee57816478df5",
      "blockHash": "0x9dc7d9b0c03f7b96b686ee10155a03e495d5aa2a1447c9b9dfb9e095f4275204",
      "blockNumber": 107286,
      "transactionIndex": 0,
      "confirmations": null,
      "from": "0x2910543Af39abA0Cd09dBb2D50200b3E800A63D2",
      "gasPrice": {
        "_hex": "0xd909d8d0d"
      },
      "gasLimit": {
        "_hex": "0x5208"
      },
      "to": "0xb70dba9391682b4a364e77fe99256301a6C0Bf1F",
      "value": {
        "_hex": "0x8ab55f8b52078000"
      },
      "nonce": 1044,
      "data": "0x",
      "r": "0x5d40a8c9d6f8d4338f4a56bbf2aa9dc9cfa1eaf44cbde7dab9c7c2ef1ca08665",
      "s": "0x2f3185ac14a559e5f0dce11b75a4357811eaca6477022c23d9d479fd85e2992a",
      "v": 27,
      "creates": null,
      "raw": "0xf86e820414850d909d8d0d82520894b70dba9391682b4a364e77fe99256301a6c0bf1f888ab55f8b52078000801ba05d40a8c9d6f8d4338f4a56bbf2aa9dc9cfa1eaf44cbde7dab9c7c2ef1ca08665a02f3185ac14a559e5f0dce11b75a4357811eaca6477022c23d9d479fd85e2992a",
      "networkId": 0,
      "chainId": 0
    }
  ]
}