{
  "hash": "0x489e3474df4705de2f3cdd9739dc14a041160f6e62e8ef1e4edb368b99188911",
  "parentHash": "0x0200febcaaf368dd4ce27d2c2c74315b47fc7839c2330459b71477d59df85d24",
  "number": 108250,
  "timestamp": 1439937124,
  "nonce": "0x6fc11e0ebc9fdbfd",
  "difficulty": 4349035072885,
  "gasLimit": {
    "_hex": "0x2fefd8"
  },
  "gasUsed": {
    "_hex": "0x5208"
  },
  "miner": "0xa50ec0D39fa913E62f1Bae7074E6F36caA71855b",
  "extraData": "0xd783010001844765746887676f312e342e32856c696e7578",
  "transactions": [
    {
      "hash": "0xd6b533a35081846cfe20919b82767e92c0f6952d862324571c7291e5dafafe89",
      "blockHash": "0x489e3474df4705de2f3cdd9739dc14a041160f6e62e8ef1e4edb368b99188911",
      "blockNumber": 108250,
      "transactionIndex": 0,
      "confirmations": null,
      "from": "0xa6BDc31c431B8F97848c9D60cbbe9660dc450eB7",
      "gasPrice": {
        "_hex": "0xe0bfca87e"
      },
      "gasLimit": {
        "_hex": "0x5208"
      },
      "to": "0x32Be343B94f860124dC4fEe278FDCBD38C102D88",
      "value": {
        "_hex": "0x456b6abcbe0d3400"
      },
      "nonce": 186,
      "data": "0x",
      "r": "0x16b66e59c6aa43211c2cf105c6534b17c0cd0c8f21bbd5e75a3603ef1c7af0aa",
      "s": "0x3b3d6763765eb978b07d8e47fa219ed8d918b36ec5b0e1cc5042c63be224977d",
      "v": 28,
      "creates": null,
      "raw": "0xf86d81ba850e0bfca87e8252089432be343b94f860124dc4fee278fdcbd38c102d8888456b6abcbe0d3400801ca016b66e59c6aa43211c2cf105c6534b17c0cd0c8f21bbd5e75a3603ef1c7af0aaa03b3d6763765eb978b07d8e47fa219ed8d918b36ec5b0e1cc5042c63be224977d",
      "networkId": 0,
      "chainId": 0
    }
  ]
}