{
  "hash": "0x5bb1ff3878b7d6c158411be2d9d56d053937b9ed9f7b6fe35b41cfe0a3724732",
  "parentHash": "0xc53cf720af25f16fbf03ebd1fafcc49218559d69db5d2cc5f43c55ba64ca83cd",
  "number": 108676,
  "timestamp": 1439944429,
  "nonce": "0x994b828741024638",
  "difficulty": 4336092197938,
  "gasLimit": {
    "_hex": "0x2fefd8"
  },
  "gasUsed": {
    "_hex": "0xa410"
  },
  "miner": "0xe6A7a1d47ff21B6321162AEA7C6CB457D5476Bca",
  "extraData": "0x476574682f76312e302e312d38326566323666362f6c696e75782f676f312e34",
  "transactions": [
    {
      "hash": "0x24d67845b6a15dcf5bb6cec44146fdd4f887918914952d6c288b59088280c8fc",
      "blockHash": "0x5bb1ff3878b7d6c158411be2d9d56d053937b9ed9f7b6fe35b41cfe0a3724732",
      "blockNumber": 108676,
      "transactionIndex": 0,
      "confirmations": null,
      "from": "0x32Be343B94f860124dC4fEe278FDCBD38C102D88",
      "gasPrice": {
        "_hex": "0xd8e7aa61f"
      },
      "gasLimit": {
        "_hex": "0x5208"
      },
      "to": "0x576e6acE6eBBaC590a6cb166598BFEbA1697BDB8",
      "value": {
        "_hex": "0xdb8ce6df3bbc480000"
      },
      "nonce": 1258,
      "data": "0x",
      "r": "0x3ccc93515975c476bd09f9cb19fc62c8e76ab6936d5c4932bc25e6170ca15033",
      "s": "0x4bcee290ad6062a43ad148adc43fc2b5e397d7c22ea8b3a873ccfdec82e3f41d",
      "v": 27,
      "creates": null,
      "raw": "0xf86f8204ea850d8e7aa61f82520894576e6ace6ebbac590a6cb166598bfeba1697bdb889db8ce6df3bbc480000801ba03ccc93515975c476bd09f9cb19fc62c8e76ab6936d5c4932bc25e6170ca15033a04bcee290ad6062a43ad148adc43fc2b5e397d7c22ea8b3a873ccfdec82e3f41d",
      "networkId": 0,
      "chainId": 0
    },
    {
      "hash": "0xcbcbcf801d67f51965157b372403630e25c69fac8a10acb8092b3b8d6f988c5e",
      "blockHash": "0x5bb1ff3878b7d6c158411be2d9d56d053937b9ed9f7b6fe35b41cfe0a3724732",
      "blockNumber": 108676,
      "transactionIndex": 1,
      "confirmations": null,
      "from": "0x32Be343B94f860124dC4fEe278FDCBD38C102D88",
      "gasPrice": {
        "_hex": "0xd8e7aa61f"
      },
      "gasLimit": {
        "_hex": "0x5208"
      },
      "to": "0xd4695Eeb842E88b528D462D6F55B41D48941Ccf3",
      "value": {
        "_hex": "0x12a27b1b4cdd8b00000"
      },
      "nonce": 1259,
      "data": "0x",
      "r": "0x020410c92e8676eaa114885ae66988c9400d1b5cad1dd12c912f250d339933db",
      "s": "0x1e2b1df3c5f1d6907027b28cddb54771e468b5aaa06be99f4bc11002fbd03b8f",
      "v": 28,
      "creates": null,
      "raw": "0xf8708204eb850d8e7aa61f82520894d4695eeb842e88b528d462d6f55b41d48941ccf38a012a27b1b4cdd8b00000801ca0020410c92e8676eaa114885ae66988c9400d1b5cad1dd12c912f250d339933dba01e2b1df3c5f1d6907027b28cddb54771e468b5aaa06be99f4bc11002fbd03b8f",
      "networkId": 0,
      "chainId": 0
    }
  ]
}