{
  "hash": "0x7d1c143297e5e7e7fbd35875a719dbefa790fe9496a760c023ababce77355d7a",
  "parentHash": "0x7b69119a81a4927222c9afed28e8c64f7855c59cd479f211ab9a8cd1d0c12890",
  "number": 101891,
  "timestamp": 1439829652,
  "nonce": "0x2fbe198d2d1728ad",
  "difficulty": 3888094035689,
  "gasLimit": {
    "_hex": "0x2fefd8"
  },
  "gasUsed": {
    "_hex": "0x20fc6"
  },
  "miner": "0x5F8F73E26CdF436f19Cb24C82F90A15AFe55b592",
  "extraData": "0x476574682f76312e302e312f77696e646f77732f676f312e342e32",
  "transactions": [
    {
      "hash": "0x1da152d3aff18b5bf08556cb5986ec980336149cdc56b65bca832e28a987e329",
      "blockHash": "0x7d1c143297e5e7e7fbd35875a719dbefa790fe9496a760c023ababce77355d7a",
      "blockNumber": 101891,
      "transactionIndex": 0,
      "confirmations": null,
      "from": "0x7229C03FFcDA05dB1dBD01A08cec6d0D0FBF065a",
      "gasPrice": {
        "_hex": "0xd72d74c1f"
      },
      "gasLimit": {
        "_hex": "0x5208"
      },
      "to": "0x32Be343B94f860124dC4fEe278FDCBD38C102D88",
      "value": {
        "_hex": "0x6c6b8f0c567f300000"
      },
      "nonce": 1,
      "data": "0x",
      "r": "0xba2f7e95ad2707b0089017e95b6ff93d53b98969c723aec9c61b593d2610c8fa",
      "s": "0x6c21c365d0842da9950730240905089f68251e044bd3f92740be25fb7977324b",
      "v": 27,
      "creates": null,
      "raw": "0xf86d01850d72d74c1f8252089432be343b94f860124dc4fee278fdcbd38c102d88896c6b8f0c567f300000801ba0ba2f7e95ad2707b0089017e95b6ff93d53b98969c723aec9c61b593d2610c8faa06c21c365d0842da9950730240905089f68251e044bd3f92740be25fb7977324b",
      "networkId": 0,
      "chainId": 0
    },
    {
      "hash": "0xfcbd15d4c6c11c9a1ad2f21b036c16a1c1a8b0cf4fc419b5af06b6a8d9804053",
      "blockHash": "0x7d1c143297e5e7e7fbd35875a719dbefa790fe9496a760c023ababce77355d7a",
      "blockNumber": 101891,
      "transactionIndex": 1,
      "confirmations": null,
      "from": "0x6bAF48E1C966D16559cE2ddDb616FFa72004851e",
      "gasPrice": {
        "_hex": "0xcd01555c5"
      },
      "gasLimit": {
        "_hex": "0x249f0"
      },
      "to": "0xE28e72FCf78647ADCe1F1252F240bbfaebD63BcC",
      "value": {
        "_hex": "0x3635c9adc5dea00000"
      },
      "nonce": 2,
      "data": "0x45466f3a",
      "r": "0x9ec6614aff35e172af9864db47b550396f9a3cab21aa1bd2647501bf2044399e",
      "s": "0x744b586f22ca746e4c0b8125ed770535bb943cd0e4f3d7bd33d818661dbac471",
      "v": 27,
      "creates": null,
      "raw": "0xf87202850cd01555c5830249f094e28e72fcf78647adce1f1252f240bbfaebd63bcc893635c9adc5dea000008445466f3a1ba09ec6614aff35e172af9864db47b550396f9a3cab21aa1bd2647501bf2044399ea0744b586f22ca746e4c0b8125ed770535bb943cd0e4f3d7bd33d818661dbac471",
      "networkId": 0,
      "chainId": 0
    }
  ]
}