{
  "hash": "0x9285f642eb00a2c989525494e7549ea81e1ce6305c21c3ead31e9e6e4faed375",
  "parentHash": "0xeee423bb33f3df9a52c622bd9f6786d9ec8738177426178b545be55631279f48",
  "number": 102185,
  "timestamp": 1439834159,
  "nonce": "0x5562bf7e6b65f2c0",
  "difficulty": 3910805646102,
  "gasLimit": {
    "_hex": "0x2fefd8"
  },
  "gasUsed": {
    "_hex": "0x20fc6"
  },
  "miner": "0xa50ec0D39fa913E62f1Bae7074E6F36caA71855b",
  "extraData": "0xd783010001844765746887676f312e342e32856c696e7578",
  "transactions": [
    {
      "hash": "0x507fdb902a4258030f03017d3264737d8527e8b88b0313a6cccbb583814b7051",
      "blockHash": "0x9285f642eb00a2c989525494e7549ea81e1ce6305c21c3ead31e9e6e4faed375",
      "blockNumber": 102185,
      "transactionIndex": 0,
      "confirmations": null,
      "from": "0xb50405193Dc0c7077dD65252C15C39242F0aCB76",
      "gasPrice": {
        "_hex": "0xdb258bd0a"
      },
      "gasLimit": {
        "_hex": "0x5208"
      },
      "to": "0x32Be343B94f860124dC4fEe278FDCBD38C102D88",
      "value": {
        "_hex": "0x15aed73fdaecbc000"
      },
      "nonce": 8,
      "data": "0x",
      "r": "0x0012ccace78d9abef48e1a4662af3e3bb42a6653e6d2de7cd8778e977f0d4380",
      "s": "0x1dda381a69d49a1a2e93a3f5784a3883ca9a62137bc4423c61f2550c7fecc207",
      "v": 28,
      "creates": null,
      "raw": "0xf86c08850db258bd0a8252089432be343b94f860124dc4fee278fdcbd38c102d8889015aed73fdaecbc000801c9f12ccace78d9abef48e1a4662af3e3bb42a6653e6d2de7cd8778e977f0d4380a01dda381a69d49a1a2e93a3f5784a3883ca9a62137bc4423c61f2550c7fecc207",
      "networkId": 0,
      "chainId": 0
    },
    {
      "hash": "0xe58efb7b051070f7f8c639c5d2c3d7793e7df852f6cca8c06a34fad8205d85b8",
      "blockHash": "0x9285f642eb00a2c989525494e7549ea81e1ce6305c21c3ead31e9e6e4faed375",
      "blockNumber": 102185,
      "transactionIndex": 1,
      "confirmations": null,
      "from": "0x785ffdDd5cE55c6DF963f345e68d3F2024E5Acb1",
      "gasPrice": {
        "_hex": "0xd579cb881"
      },
      "gasLimit": {
        "_hex": "0x249f0"
      },
      "to": "0xE28e72FCf78647ADCe1F1252F240bbfaebD63BcC",
      "value": {
        "_hex": "0x3635c9adc5dea00000"
      },
      "nonce": 0,
      "data": "0x45466f3a",
      "r": "0x10ffc76fef040bed6cc65db650ca445856b4f0e1665487fb4f2a8f5d21adcd8a",
      "s": "0x0c438e4824f7c97929ac55c6699a6fd0636761560e305b9e47285ce19476b94a",
      "v": 28,
      "creates": null,
      "raw": "0xf87280850d579cb881830249f094e28e72fcf78647adce1f1252f240bbfaebd63bcc893635c9adc5dea000008445466f3a1ca010ffc76fef040bed6cc65db650ca445856b4f0e1665487fb4f2a8f5d21adcd8aa00c438e4824f7c97929ac55c6699a6fd0636761560e305b9e47285ce19476b94a",
      "networkId": 0,
      "chainId": 0
    }
  ]
}