{
  "hash": "0x3ad1d7b9093e406e7802cfc505f782f9674c7fa122bac4d4862c003e61c7d069",
  "parentHash": "0x01b1bf59b6f05af8b29ca79678b7fd98b7112212efc516fe222cd0d5e11de392",
  "number": 63683,
  "timestamp": 1439208438,
  "nonce": "0xa7e5674112c696c0",
  "difficulty": 1843188955810,
  "gasLimit": {
    "_hex": "0x2fefd8"
  },
  "gasUsed": {
    "_hex": "0xa410"
  },
  "miner": "0xDB1045Bc6102648A8A70F35892836Fa6B5e451D7",
  "extraData": "0x476574682f76312e302e312f6c696e75782f676f312e342e32",
  "transactions": [
    {
      "hash": "0x7fe62043b1d815d05965e899b2c45ebbd69443425cbdd4cddcc47b8d9a03b257",
      "blockHash": "0x3ad1d7b9093e406e7802cfc505f782f9674c7fa122bac4d4862c003e61c7d069",
      "blockNumber": 63683,
      "transactionIndex": 0,
      "confirmations": null,
      "from": "0x32Be343B94f860124dC4fEe278FDCBD38C102D88",
      "gasPrice": {
        "_hex": "0xd09321d1f"
      },
      "gasLimit": {
        "_hex": "0x5208"
      },
      "to": "0x8b4dE250Ad96136dF6E061C8ffd3179276102099",
      "value": {
        "_hex": "0x354a6ba7a180000"
      },
      "nonce": 170,
      "data": "0x",
      "r": "0x485f4444851e557c2b6619026e98265ee1105e9e5f58f07d7614033943e8adf7",
      "s": "0x07d18f04f15d208fde430c4beb4f2ababf5decde6342bb843501a31c5bf5b062",
      "v": 27,
      "creates": null,
      "raw": "0xf86d81aa850d09321d1f825208948b4de250ad96136df6e061c8ffd3179276102099880354a6ba7a180000801ba0485f4444851e557c2b6619026e98265ee1105e9e5f58f07d7614033943e8adf7a007d18f04f15d208fde430c4beb4f2ababf5decde6342bb843501a31c5bf5b062",
      "networkId": 0,
      "chainId": 0
    },
    {
      "hash": "0x14ac676b6bff78f9ec87b69ae9b050656a2dd8a03ede04503589f135d43d2cbf",
      "blockHash": "0x3ad1d7b9093e406e7802cfc505f782f9674c7fa122bac4d4862c003e61c7d069",
      "blockNumber": 63683,
      "transactionIndex": 1,
      "confirmations": null,
      "from": "0x32Be343B94f860124dC4fEe278FDCBD38C102D88",
      "gasPrice": {
        "_hex": "0xd09321d1f"
      },
      "gasLimit": {
        "_hex": "0x5208"
      },
      "to": "0xbB7735934F8229F1fc2e76F7AfD82e14AA1e8E81",
      "value": {
        "_hex": "0x9be861035a17b00000"
      },
      "nonce": 171,
      "data": "0x",
      "r": "0x693a870762746d536b5e544c0403424c9ba1a8c0764a9f83e4b13534a46a768a",
      "s": "0x7ac132666c4bcc8d1fcea7b1b6dd0ce34ed9451dfe34f9e53bbf498c5ae27aa0",
      "v": 28,
      "creates": null,
      "raw": "0xf86e81ab850d09321d1f82520894bb7735934f8229f1fc2e76f7afd82e14aa1e8e81899be861035a17b00000801ca0693a870762746d536b5e544c0403424c9ba1a8c0764a9f83e4b13534a46a768aa07ac132666c4bcc8d1fcea7b1b6dd0ce34ed9451dfe34f9e53bbf498c5ae27aa0",
      "networkId": 0,
      "chainId": 0
    }
  ]
}