{
  "hash": "0x0769c44a1af84eac5f9b9a25ad7576a424752bdf676d154a7bb68b98ec8f633f",
  "parentHash": "0x3d85464f861087b865e8c2b17bc7eb4aecc43b38a9ee3e9f45caab70a993bfd1",
  "number": 69041,
  "timestamp": 1439297533,
  "nonce": "0x3393b151b97f3922",
  "difficulty": 2040913591947,
  "gasLimit": {
    "_hex": "0x2fefd8"
  },
  "gasUsed": {
    "_hex": "0x1ec30"
  },
  "miner": "0x88D74a59454F6cF3B51ef6b9136AFb6b9D405A88",
  "extraData": "0x476574682f76312e302e312d38326566323666362f6c696e75782f676f312e34",
  "transactions": [
    {
      "hash": "0x1ea5eb167d0f4797ba544ac8f93958cfc7f040bd51d349158aa06c588b175990",
      "blockHash": "0x0769c44a1af84eac5f9b9a25ad7576a424752bdf676d154a7bb68b98ec8f633f",
      "blockNumber": 69041,
      "transactionIndex": 0,
      "confirmations": null,
      "from": "0xdeF5E616a1EE801Fa9180B1eacae3b7b3cCC3e66",
      "gasPrice": {
        "_hex": "0xba43b7400"
      },
      "gasLimit": {
        "_hex": "0x5208"
      },
      "to": "0x1766204fa21eEF70c2F5881419fE7418B7765187",
      "value": {
        "_hex": "0x1ee8b7b42062000"
      },
      "nonce": 1,
      "data": "0x",
      "r": "0x72eda39e47058c65328bf74c36099f2844003f70d795f748b9a4cfa76790bb58",
      "s": "0x1ca31dcfde2edd124ccb68dc5c8a2b07ff4015133f1060a8e9e4c2364a812e66",
      "v": 27,
      "creates": null,
      "raw": "0xf86c01850ba43b7400825208941766204fa21eef70c2f5881419fe7418b77651878801ee8b7b42062000801ba072eda39e47058c65328bf74c36099f2844003f70d795f748b9a4cfa76790bb58a01ca31dcfde2edd124ccb68dc5c8a2b07ff4015133f1060a8e9e4c2364a812e66",
      "networkId": 0,
      "chainId": 0
    },
    {
      "hash": "0xa7ea048e8b820bd6bcca48cb08de72bbe38930b8e244a6eac9738bc0cd481659",
      "blockHash": "0x0769c44a1af84eac5f9b9a25ad7576a424752bdf676d154a7bb68b98ec8f633f",
      "blockNumber": 69041,
      "transactionIndex": 1,
      "confirmations": null,
      "from": "0x356Ea3a2D6743095fb9d5Ad81A91877B545F9244",
      "gasPrice": {
        "_hex": "0xba43b7400"
      },
      "gasLimit": {
        "_hex": "0x5208"
      },
      "to": "0xa8598Fe7bf655CD01aDcf0221215ba1e32df0e25",
      "value": {
        "_hex": "0x1ee8b7b42062000"
      },
      "nonce": 1,
      "data": "0x",
      "r": "0x682271abe4673dd015fa9f80aaf8d882797afe2d67215259bc25db27c6a5d34b",
      "s": "0x45dd44f88cf1831655228c54e79521789919c89f8e223c6bb725f575b89b84a8",
      "v": 27,
      "creates": null,
      "raw": "0xf86c01850ba43b740082520894a8598fe7bf655cd01adcf0221215ba1e32df0e258801ee8b7b42062000801ba0682271abe4673dd015fa9f80aaf8d882797afe2d67215259bc25db27c6a5d34ba045dd44f88cf1831655228c54e79521789919c89f8e223c6bb725f575b89b84a8",
      "networkId": 0,
      "chainId": 0
    },
    {
      "hash": "0xcc83f34e93ff764555948bf1aae25d8c20c30c2d886122d912254dcb1e0e29f5",
      "blockHash": "0x0769c44a1af84eac5f9b9a25ad7576a424752bdf676d154a7bb68b98ec8f633f",
      "blockNumber": 69041,
      "transactionIndex": 2,
      "confirmations": null,
      "from": "0x3FBBEf0B4AfbBfDb1C6e0a555d81C7B0A6edfa07",
      "gasPrice": {
        "_hex": "0xba43b7400"
      },
      "gasLimit": {
        "_hex": "0x5208"
      },
      "to": "0x865401542D17DB3B98C05B06B7fc33a954e63F1E",
      "value": {
        "_hex": "0x1ee8b7b42062000"
      },
      "nonce": 1,
      "data": "0x",
      "r": "0xce5d9223f7698a8353ded4d0e5bf59634e34929a47d9238484dd7bdfcf00d6b3",
      "s": "0x2b502fda7715e4c70225061336281a6d795640bd728cd3d2f220d680c7fc3fc0",
      "v": 27,
      "creates": null,
      "raw": "0xf86c01850ba43b740082520894865401542d17db3b98c05b06b7fc33a954e63f1e8801ee8b7b42062000801ba0ce5d9223f7698a8353ded4d0e5bf59634e34929a47d9238484dd7bdfcf00d6b3a02b502fda7715e4c70225061336281a6d795640bd728cd3d2f220d680c7fc3fc0",
      "networkId": 0,
      "chainId": 0
    },
    {
      "hash": "0xd38b553d68254cfddb65ce2aee557c7a51b5f30c6eb0eded5ca1247aa8be1f96",
      "blockHash": "0x0769c44a1af84eac5f9b9a25ad7576a424752bdf676d154a7bb68b98ec8f633f",
      "blockNumber": 69041,
      "transactionIndex": 3,
      "confirmations": null,
      "from": "0x6F0280e2d90691906fc539C81B380e6de8a5aF9B",
      "gasPrice": {
        "_hex": "0xba43b7400"
      },
      "gasLimit": {
        "_hex": "0x5208"
      },
      "to": "0xdC54F0B84fA18f9C24A7Fe21C724cA482B5dE0a1",
      "value": {
        "_hex": "0x1ee8b7b42062000"
      },
      "nonce": 1,
      "data": "0x",
      "r": "0x05842c087725bccb1bd45827c5ae9ae30e75aa487b4c9c8bc2cfda7af9d9cd18",
      "s": "0x64b377e889c1ffc3b9d59eb4e7238b539df486cf596e94983fb0872448b071ca",
      "v": 28,
      "creates": null,
      "raw": "0xf86c01850ba43b740082520894dc54f0b84fa18f9c24a7fe21c724ca482b5de0a18801ee8b7b42062000801ca005842c087725bccb1bd45827c5ae9ae30e75aa487b4c9c8bc2cfda7af9d9cd18a064b377e889c1ffc3b9d59eb4e7238b539df486cf596e94983fb0872448b071ca",
      "networkId": 0,
      "chainId": 0
    },
    {
      "hash": "0xe8e537c90dc1da2be1b905706c470d3a5625cee279c78660ffe33c102deef12c",
      "blockHash": "0x0769c44a1af84eac5f9b9a25ad7576a424752bdf676d154a7bb68b98ec8f633f",
      "blockNumber": 69041,
      "transactionIndex": 4,
      "confirmations": null,
      "from": "0x52d81F184518E75272cE87A995C66Fae39b0EE91",
      "gasPrice": {
        "_hex": "0xba43b7400"
      },
      "gasLimit": {
        "_hex": "0x5208"
      },
      "to": "0xCAb9a9D651A34dC88a385a0e7410b5E9034495aA",
      "value": {
        "_hex": "0x1ee8b7b42062000"
      },
      "nonce": 1,
      "data": "0x",
      "r": "0x0abb7f4991cf765dacce8216bb13a9242b949db881593eb81c024af1deaf0713",
      "s": "0x4bb540830ba637f28cbe8a7c8f42233fbde79c2994cd5fead580df6068657032",
      "v": 27,
      "creates": null,
      "raw": "0xf86c01850ba43b740082520894cab9a9d651a34dc88a385a0e7410b5e9034495aa8801ee8b7b42062000801ba00abb7f4991cf765dacce8216bb13a9242b949db881593eb81c024af1deaf0713a04bb540830ba637f28cbe8a7c8f42233fbde79c2994cd5fead580df6068657032",
      "networkId": 0,
      "chainId": 0
    },
    {
      "hash": "0x7b11faea54f5a818a8650d3848e321fa80184f1dba3d4b5b5a507d72a1bd5029",
      "blockHash": "0x0769c44a1af84eac5f9b9a25ad7576a424752bdf676d154a7bb68b98ec8f633f",
      "blockNumber": 69041,
      "transactionIndex": 5,
      "confirmations": null,
      "from": "0x2888c8b6607c163D7433ef019AbD7bf3CAC5bcD9",
      "gasPrice": {
        "_hex": "0xba43b7400"
      },
      "gasLimit": {
        "_hex": "0x5208"
      },
      "to": "0x5fFF49a728abC1b389176c849fa31fD330687431",
      "value": {
        "_hex": "0x1ee8b7b42062000"
      },
      "nonce": 1,
      "data": "0x",
      "r": "0xb7bbd51c6a58ad2e6de251c4d1595031ea07b5bd577bd4291ddc1e823b9135ec",
      "s": "0x2e3efa46f3283bd10825b93de7c6a707fb5a994b55684836d92399f48f0821f5",
      "v": 28,
      "creates": null,
      "raw": "0xf86c01850ba43b7400825208945fff49a728abc1b389176c849fa31fd3306874318801ee8b7b42062000801ca0b7bbd51c6a58ad2e6de251c4d1595031ea07b5bd577bd4291ddc1e823b9135eca02e3efa46f3283bd10825b93de7c6a707fb5a994b55684836d92399f48f0821f5",
      "networkId": 0,
      "chainId": 0
    }
  ]
}