{
  "hash": "0x1062bd8ff66e30cac5e77deb9e515686c9184d1f93e6fe615f9123c307076416",
  "parentHash": "0x34844f0fac4a5d651e2b77099e9328c0530da535d2ab25adae92fa65a883a6d5",
  "number": 68926,
  "timestamp": 1439295795,
  "nonce": "0xa39f42ad41cad03f",
  "difficulty": 2026047876384,
  "gasLimit": {
    "_hex": "0x2fefd8"
  },
  "gasUsed": {
    "_hex": "0xf618"
  },
  "miner": "0x580992B51e3925e23280EfB93d3047C82f17E038",
  "extraData": "0x476574682f76312e302e312f6c696e75782f676f312e342e32",
  "transactions": [
    {
      "hash": "0x7fba9f6399cc801e896e3fc90947d70b975761a4ecbfb54e4f2afb10a76ad119",
      "blockHash": "0x1062bd8ff66e30cac5e77deb9e515686c9184d1f93e6fe615f9123c307076416",
      "blockNumber": 68926,
      "transactionIndex": 0,
      "confirmations": null,
      "from": "0x348961B4206A8aaE63a94139f570917A1aE65968",
      "gasPrice": {
        "_hex": "0xba43b7400"
      },
      "gasLimit": {
        "_hex": "0x5208"
      },
      "to": "0x030951d215545ccFf7821BdF432795Ab09606e39",
      "value": {
        "_hex": "0x7c58ada8ff2000"
      },
      "nonce": 1,
      "data": "0x",
      "r": "0x5bc849baaa6949a2fc09195a429d13417468954b5daa16a52252948f4f9b7bb5",
      "s": "0x0b1b143940a5835d0462503f6ff634c77d74232ccbe0885e583401db9790bd88",
      "v": 27,
      "creates": null,
      "raw": "0xf86b01850ba43b740082520894030951d215545ccff7821bdf432795ab09606e39877c58ada8ff2000801ba05bc849baaa6949a2fc09195a429d13417468954b5daa16a52252948f4f9b7bb5a00b1b143940a5835d0462503f6ff634c77d74232ccbe0885e583401db9790bd88",
      "networkId": 0,
      "chainId": 0
    },
    {
      "hash": "0xfd2ba71c248e69542b4f636b374cf58f6134d11ac4046aec33f39360f759379a",
      "blockHash": "0x1062bd8ff66e30cac5e77deb9e515686c9184d1f93e6fe615f9123c307076416",
      "blockNumber": 68926,
      "transactionIndex": 1,
      "confirmations": null,
      "from": "0x82068120e889b9fEF3C88E2eCb0A65e231E4dFb7",
      "gasPrice": {
        "_hex": "0xba43b7400"
      },
      "gasLimit": {
        "_hex": "0x5208"
      },
      "to": "0xc72BB7f77AA77B86a03aDd6Ce3C82f3D57221943",
      "value": {
        "_hex": "0x7c58ada8ff2000"
      },
      "nonce": 1,
      "data": "0x",
      "r": "0xfa24705726b2972819c8f0bbd3800c071ceee0bf7e540825cc7081728b251a0a",
      "s": "0x624977c60414ac64def16bb055c82402d51870b48780fec23a06754d66e04910",
      "v": 27,
      "creates": null,
      "raw": "0xf86b01850ba43b740082520894c72bb7f77aa77b86a03add6ce3c82f3d57221943877c58ada8ff2000801ba0fa24705726b2972819c8f0bbd3800c071ceee0bf7e540825cc7081728b251a0aa0624977c60414ac64def16bb055c82402d51870b48780fec23a06754d66e04910",
      "networkId": 0,
      "chainId": 0
    },
    {
      "hash": "0xf06072208c9978eaafdae51b2fbdf8f028314280b73c298dbe8f3de83a3ade32",
      "blockHash": "0x1062bd8ff66e30cac5e77deb9e515686c9184d1f93e6fe615f9123c307076416",
      "blockNumber": 68926,
      "transactionIndex": 2,
      "confirmations": null,
      "from": "0xb15e1bF9402a2eA3Ad798337554d2b2833B63269",
      "gasPrice": {
        "_hex": "0xba43b7400"
      },
      "gasLimit": {
        "_hex": "0x5208"
      },
      "to": "0x48422003F3826aaE1135580537e941633BE3fBDD",
      "value": {
        "_hex": "0x7c58ada8ff2000"
      },
      "nonce": 1,
      "data": "0x",
      "r": "0xb31ce3632a7c89c28fb22b93416a5afb396a91b461ddd1cfb8aefcb6fa7aef7b",
      "s": "0x7710cee8afa96d61c5397765fee4f7ea6894d3ac7d028ea8219ab186a1c189e2",
      "v": 28,
      "creates": null,
      "raw": "0xf86b01850ba43b74008252089448422003f3826aae1135580537e941633be3fbdd877c58ada8ff2000801ca0b31ce3632a7c89c28fb22b93416a5afb396a91b461ddd1cfb8aefcb6fa7aef7ba07710cee8afa96d61c5397765fee4f7ea6894d3ac7d028ea8219ab186a1c189e2",
      "networkId": 0,
      "chainId": 0
    }
  ]
}