{
  "hash": "0x61ce21c493b33ad29e1ca967dc2cd303fe85dbdcfbd43880fd075b9f090be4b2",
  "parentHash": "0x12828a668e816d923decb4452e05f307398d580ee6a552d273b27b1bd92e57dd",
  "number": 93280,
  "timestamp": 1439686878,
  "nonce": "0xc8e6258196ed22b2",
  "difficulty": 3552448140231,
  "gasLimit": {
    "_hex": "0x2fefd8"
  },
  "gasUsed": {
    "_hex": "0x5208"
  },
  "miner": "0xf927a40C8B7F6E07c5af7FA2155B4864a4112B13",
  "extraData": "0x",
  "transactions": [
    {
      "hash": "0xf4629055663f8b629b43513926a99576b6598414ece0b991e17c1b6a137fa265",
      "blockHash": "0x61ce21c493b33ad29e1ca967dc2cd303fe85dbdcfbd43880fd075b9f090be4b2",
      "blockNumber": 93280,
      "transactionIndex": 0,
      "confirmations": null,
      "from": "0x835ad98Ab8AF27814f6563b3117d6B0Ab897F83b",
      "gasPrice": {
        "_hex": "0x118c45d7b16"
      },
      "gasLimit": {
        "_hex": "0x15f90"
      },
      "to": "0x7D8fE8238e11154E30c98ae93B52B4eE4ad7852d",
      "value": {
        "_hex": "0xb1a2bc2ec50000"
      },
      "nonce": 0,
      "data": "0x",
      "r": "0xf0e4319ecbc4026de97e873c807b8d6743a041d074e807fe194cb6851a1c9fe9",
      "s": "0x65ae62537a723a8448b1c847e201e5bbf4730f11d1b2576879a9aba4fab7bc9b",
      "v": 28,
      "creates": null,
      "raw": "0xf86d80860118c45d7b1683015f90947d8fe8238e11154e30c98ae93b52b4ee4ad7852d87b1a2bc2ec50000801ca0f0e4319ecbc4026de97e873c807b8d6743a041d074e807fe194cb6851a1c9fe9a065ae62537a723a8448b1c847e201e5bbf4730f11d1b2576879a9aba4fab7bc9b",
      "networkId": 0,
      "chainId": 0
    }
  ]
}