{
  "hash": "0x0aeb32f75f047c9532075c383c000e358ff5e0c6dfaf2ba5a1e209e2d5325677",
  "parentHash": "0xb68cc9c7f51354f3a23ec3d75fef9c06ed83f5151286870405c5a30e2ab8fe17",
  "number": 117706,
  "timestamp": 1440113858,
  "nonce": "0x5034ca1b837dac32",
  "difficulty": 4356881036302,
  "gasLimit": {
    "_hex": "0x2fefd8"
  },
  "gasUsed": {
    "_hex": "0x546c"
  },
  "miner": "0xe6A7a1d47ff21B6321162AEA7C6CB457D5476Bca",
  "extraData": "0xd783010002844765746887676f312e342e32856c696e7578",
  "transactions": [
    {
      "hash": "0x4b96379d5629eb5faa624ef9e9e929e2f9ef5ce2c8d3cfa77c866b50b32c292b",
      "blockHash": "0x0aeb32f75f047c9532075c383c000e358ff5e0c6dfaf2ba5a1e209e2d5325677",
      "blockNumber": 117706,
      "transactionIndex": 0,
      "confirmations": null,
      "from": "0x13848B46ea75BEb7eAa85F59D866d77Fd24cF21a",
      "gasPrice": {
        "_hex": "0x110c8f7d8de"
      },
      "gasLimit": {
        "_hex": "0xc350"
      },
      "to": "0x2910543Af39abA0Cd09dBb2D50200b3E800A63D2",
      "value": {
        "_hex": "0x56bc75e2d63100000"
      },
      "nonce": 0,
      "data": "0x454e394747434a5052",
      "r": "0xdba5f1843233c2f57df215c217b3c48e61f54f1879ca4432778be6cc71eb4f65",
      "s": "0x0a181a8282a11a73bcf1c475b02e95cb9cd3f83e395e680217fc2369e78bf1f0",
      "v": 28,
      "creates": null,
      "raw": "0xf87780860110c8f7d8de82c350942910543af39aba0cd09dbb2d50200b3e800a63d289056bc75e2d6310000089454e394747434a50521ca0dba5f1843233c2f57df215c217b3c48e61f54f1879ca4432778be6cc71eb4f65a00a181a8282a11a73bcf1c475b02e95cb9cd3f83e395e680217fc2369e78bf1f0",
      "networkId": 0,
      "chainId": 0
    }
  ]
}