{
  "hash": "0x6bbf8cf86a2de32017b46b659ed1960dd2cbc8198d8ed7e3422553bbc2ac9a0f",
  "parentHash": "0x5fe83005d0ed48e056579c641e5f8773abdfae059eb325bfcff1e08a8b8d6955",
  "number": 64677,
  "timestamp": 1439224711,
  "nonce": "0x76af0fc6200c1c90",
  "difficulty": 1882994035819,
  "gasLimit": {
    "_hex": "0x2fefd8"
  },
  "gasUsed": {
    "_hex": "0xa674"
  },
  "miner": "0x0338116f55fEd2F5ee9391C8624612Dc9744D149",
  "extraData": "0x476574682f76312e302e312f6c696e75782f676f312e342e32",
  "transactions": [
    {
      "hash": "0xca59557e30b97ef03a17e2d972062c5710cd14d12556e3b1957ba74eb4cd5ed5",
      "blockHash": "0x6bbf8cf86a2de32017b46b659ed1960dd2cbc8198d8ed7e3422553bbc2ac9a0f",
      "blockNumber": 64677,
      "transactionIndex": 0,
      "confirmations": null,
      "from": "0x4Da8030769844BC34186b85cD4c7348849fF49E9",
      "gasPrice": {
        "_hex": "0x110c8f7d8de"
      },
      "gasLimit": {
        "_hex": "0xc350"
      },
      "to": "0x2910543Af39abA0Cd09dBb2D50200b3E800A63D2",
      "value": {
        "_hex": "0x21e187d844254b60000"
      },
      "nonce": 0,
      "data": "0x454e5a31314b543138",
      "r": "0xb24c32c089518a69dc4ea28631e936a74dd43d506d884bcd817167804aff731c",
      "s": "0xe118309ca62a28593325c98b2a3cd14d26dc9de8b6d2848f9b7b24f5cf30d789",
      "v": 28,
      "creates": null,
      "raw": "0xf87880860110c8f7d8de82c350942910543af39aba0cd09dbb2d50200b3e800a63d28a021e187d844254b6000089454e5a31314b5431381ca0b24c32c089518a69dc4ea28631e936a74dd43d506d884bcd817167804aff731ca0e118309ca62a28593325c98b2a3cd14d26dc9de8b6d2848f9b7b24f5cf30d789",
      "networkId": 0,
      "chainId": 0
    },
    {
      "hash": "0xfdd38b19ae9cfbf3c5028083e956364aebccc89d6e0e7a4af261a992259a5cb8",
      "blockHash": "0x6bbf8cf86a2de32017b46b659ed1960dd2cbc8198d8ed7e3422553bbc2ac9a0f",
      "blockNumber": 64677,
      "transactionIndex": 1,
      "confirmations": null,
      "from": "0xd41CDe3742bE29F53EDb8A99B255F4c0C210935d",
      "gasPrice": {
        "_hex": "0xe03373286"
      },
      "gasLimit": {
        "_hex": "0x5208"
      },
      "to": "0x32Be343B94f860124dC4fEe278FDCBD38C102D88",
      "value": {
        "_hex": "0x21ea0b81d1c5c00"
      },
      "nonce": 4,
      "data": "0x",
      "r": "0x7b3f8c204910b136543619e13fdd44a3a7e3bec7ee11806c3eec900f62313ca4",
      "s": "0x128bfc67f9cce0ef6fa7304ba25e43b90e01d995eddcb32239f7a9cd2b6c37f8",
      "v": 27,
      "creates": null,
      "raw": "0xf86c04850e033732868252089432be343b94f860124dc4fee278fdcbd38c102d8888021ea0b81d1c5c00801ba07b3f8c204910b136543619e13fdd44a3a7e3bec7ee11806c3eec900f62313ca4a0128bfc67f9cce0ef6fa7304ba25e43b90e01d995eddcb32239f7a9cd2b6c37f8",
      "networkId": 0,
      "chainId": 0
    }
  ]
}