{
  "hash": "0xe16b97030b3e125ca91b1efefb6ae9766f7dca8ab72e8dd5a73c009d07d269f4",
  "parentHash": "0xf87249b56c5e09ea6d645d1e802a5072fea2ef261671c4bf356051a3801f910d",
  "number": 62487,
  "timestamp": 1439189664,
  "nonce": "0x4fbf86c89b1e7666",
  "difficulty": 1760752602751,
  "gasLimit": {
    "_hex": "0x2fe3de"
  },
  "gasUsed": {
    "_hex": "0x546c"
  },
  "miner": "0x9Fa9952255B2b06639A04D63804d4BdFFf6E2d7e",
  "extraData": "0x476574682f76312e302e302f77696e646f77732f676f312e342e32",
  "transactions": [
    {
      "hash": "0x209f18389cd8dcc06a1fc91adff22f9081a2efd700fa127235dee3a339e3d275",
      "blockHash": "0xe16b97030b3e125ca91b1efefb6ae9766f7dca8ab72e8dd5a73c009d07d269f4",
      "blockNumber": 62487,
      "transactionIndex": 0,
      "confirmations": null,
      "from": "0xAD44357E017e244f476931C7b8189Efee80a5D0A",
      "gasPrice": {
        "_hex": "0x110c8f7d8de"
      },
      "gasLimit": {
        "_hex": "0xc350"
      },
      "to": "0x2910543Af39abA0Cd09dBb2D50200b3E800A63D2",
      "value": {
        "_hex": "0x10357563d481cc0000"
      },
      "nonce": 0,
      "data": "0x454e31305a51465247",
      "r": "0x3ed62be48e3977b56f7bc60e2f2635923bfea05bcc880331ed63108529169b99",
      "s": "0xd035bf2cda46c43d6f13e26fed2b0e511822014e0d3f74b2b4757d5bacf7a4d2",
      "v": 28,
      "creates": null,
      "raw": "0xf87780860110c8f7d8de82c350942910543af39aba0cd09dbb2d50200b3e800a63d28910357563d481cc000089454e31305a514652471ca03ed62be48e3977b56f7bc60e2f2635923bfea05bcc880331ed63108529169b99a0d035bf2cda46c43d6f13e26fed2b0e511822014e0d3f74b2b4757d5bacf7a4d2",
      "networkId": 0,
      "chainId": 0
    }
  ]
}