{
  "hash": "0x08f653ae814d19222ac878272583a9384acc1c9b877804e104d9ca0d575aa410",
  "parentHash": "0x8bf9579abe91269eae20f0f32c7b96a6b44de98c33273e91c06f2ed1fdc3e865",
  "number": 93856,
  "timestamp": 1439699032,
  "nonce": "0xcf55bca416e88212",
  "difficulty": 3439553798259,
  "gasLimit": {
    "_hex": "0x2fefd8"
  },
  "gasUsed": {
    "_hex": "0x5208"
  },
  "miner": "0xe6A7a1d47ff21B6321162AEA7C6CB457D5476Bca",
  "extraData": "0x476574682f76312e302e312d38326566323666362f6c696e75782f676f312e34",
  "transactions": [
    {
      "hash": "0x2c0174768b7fa53e22009b4f8a2ca7cb531272a9f008755dcfef563dac902b4c",
      "blockHash": "0x08f653ae814d19222ac878272583a9384acc1c9b877804e104d9ca0d575aa410",
      "blockNumber": 93856,
      "transactionIndex": 0,
      "confirmations": null,
      "from": "0x2910543Af39abA0Cd09dBb2D50200b3E800A63D2",
      "gasPrice": {
        "_hex": "0xd15d0e35c"
      },
      "gasLimit": {
        "_hex": "0x5208"
      },
      "to": "0xAf078Ae030266aD29c156Ed6E57FEe912f90745C",
      "value": {
        "_hex": "0x4563918244f40000"
      },
      "nonce": 860,
      "data": "0x",
      "r": "0x4b986b6ff4610657f3a9e22bed5667100922065e01d93684d3fb11891bc4f282",
      "s": "0x5cd79534aae063c9ae9ae8586026dceb4a5f9b1a3502919b0f93bfb7f61cf2a0",
      "v": 28,
      "creates": null,
      "raw": "0xf86e82035c850d15d0e35c82520894af078ae030266ad29c156ed6e57fee912f90745c884563918244f40000801ca04b986b6ff4610657f3a9e22bed5667100922065e01d93684d3fb11891bc4f282a05cd79534aae063c9ae9ae8586026dceb4a5f9b1a3502919b0f93bfb7f61cf2a0",
      "networkId": 0,
      "chainId": 0
    }
  ]
}