{
  "hash": "0x72cdd58480f5cccc8ae9da6c42b84c4d94cbdca48fcd0d3aa5ad08d8f710bec1",
  "parentHash": "0x9a3aab0c87e29c1126b2a38b759114c1b505380c4379bae2a0089b2eecf3c8a4",
  "number": 75548,
  "timestamp": 1439405255,
  "nonce": "0x7d001857982b95f0",
  "difficulty": 2216918020335,
  "gasLimit": {
    "_hex": "0x2fefd8"
  },
  "gasUsed": {
    "_hex": "0xad77"
  },
  "miner": "0xe6A7a1d47ff21B6321162AEA7C6CB457D5476Bca",
  "extraData": "0x476574682f76312e302e312d38326566323666362f6c696e75782f676f312e34",
  "transactions": [
    {
      "hash": "0xc1a5fa7c8bf6b3e37d359cd56abb8389e76f5e415e744c0cd204267137e7f83b",
      "blockHash": "0x72cdd58480f5cccc8ae9da6c42b84c4d94cbdca48fcd0d3aa5ad08d8f710bec1",
      "blockNumber": 75548,
      "transactionIndex": 0,
      "confirmations": null,
      "from": "0x87C5B5874A18B4306DF8a752a6C8cc3E82daFc19",
      "gasPrice": {
        "_hex": "0x10384252bff"
      },
      "gasLimit": {
        "_hex": "0x493e0"
      },
      "to": "0xD79B4C6791784184e2755B2fC1659eaaB0f80456",
      "value": {
        "_hex": "0x0"
      },
      "nonce": 52,
      "data": "0x03750d940000000000000000000000009724ac4dc56e03379eba5d157d1513ecc32cbd8f3734393432313139323864623133326300000000000000000000000000000000",
      "r": "0xa14ec044c6df8b25582817a60bb8d8fe65b957f85fc43cc056b3b7458e56f667",
      "s": "0x1843e661e2f4108ec9daa52b662ea489b109a59553f38200adf75faf80759147",
      "v": 27,
      "creates": null,
      "raw": "0xf8ab3486010384252bff830493e094d79b4c6791784184e2755b2fc1659eaab0f8045680b84403750d940000000000000000000000009724ac4dc56e03379eba5d157d1513ecc32cbd8f37343934323131393238646231333263000000000000000000000000000000001ba0a14ec044c6df8b25582817a60bb8d8fe65b957f85fc43cc056b3b7458e56f667a01843e661e2f4108ec9daa52b662ea489b109a59553f38200adf75faf80759147",
      "networkId": 0,
      "chainId": 0
    }
  ]
}