{
  "hash": "0x67b61a15b17c1223d5c8fafb4603e8121831ea8173dfab1d379a0854fdd849fd",
  "parentHash": "0xe6d9d095ac192a95a3dc1de046d901364257b1ca46e31c5885ba896ce0b2e94f",
  "number": 80347,
  "timestamp": 1439484271,
  "nonce": "0x4d704189b146a1a1",
  "difficulty": 2382856024954,
  "gasLimit": {
    "_hex": "0x2fefd8"
  },
  "gasUsed": {
    "_hex": "0x206b5"
  },
  "miner": "0xC603Ab5ef41fC61AA8b76bEddb09e3Cfcbb174BD",
  "extraData": "0x476574682f76312e302e312f77696e646f77732f676f312e342e32",
  "transactions": [
    {
      "hash": "0xf925d14c41d7f2107dec090a19ed86e0151e4c6e7998810c6f1dc81089d27d75",
      "blockHash": "0x67b61a15b17c1223d5c8fafb4603e8121831ea8173dfab1d379a0854fdd849fd",
      "blockNumber": 80347,
      "transactionIndex": 0,
      "confirmations": null,
      "from": "0x87C5B5874A18B4306DF8a752a6C8cc3E82daFc19",
      "gasPrice": {
        "_hex": "0x1113afddfb3"
      },
      "gasLimit": {
        "_hex": "0x493e0"
      },
      "to": "0xC4c51de1AbF5D60DBd329eC0F999Fd8f021ae9fC",
      "value": {
        "_hex": "0x23b423340e201e38"
      },
      "nonce": 181,
      "data": "0x8d216186000000000000000000000000000000000000000000000000000000000000001ad3d96ceed0cfca4794c2a5a3d3aeefe69da0a2a669e66a5651f30b64831c3db0",
      "r": "0x17dc73d41b4341859b1300c12775c0f855f397dea2076ba6216c58e0969a1b04",
      "s": "0x527cc941459360b3f35eb6f70f58babc35327485e39da357b451e472795b2af4",
      "v": 27,
      "creates": null,
      "raw": "0xf8b481b58601113afddfb3830493e094c4c51de1abf5d60dbd329ec0f999fd8f021ae9fc8823b423340e201e38b8448d216186000000000000000000000000000000000000000000000000000000000000001ad3d96ceed0cfca4794c2a5a3d3aeefe69da0a2a669e66a5651f30b64831c3db01ba017dc73d41b4341859b1300c12775c0f855f397dea2076ba6216c58e0969a1b04a0527cc941459360b3f35eb6f70f58babc35327485e39da357b451e472795b2af4",
      "networkId": 0,
      "chainId": 0
    },
    {
      "hash": "0xa51bdafba4e93dc3f1aa01754e9b0afbf46b582bb4acf51ec9562bdacef1dc46",
      "blockHash": "0x67b61a15b17c1223d5c8fafb4603e8121831ea8173dfab1d379a0854fdd849fd",
      "blockNumber": 80347,
      "transactionIndex": 1,
      "confirmations": null,
      "from": "0x32Be343B94f860124dC4fEe278FDCBD38C102D88",
      "gasPrice": {
        "_hex": "0xd500f7ab0"
      },
      "gasLimit": {
        "_hex": "0x5208"
      },
      "to": "0x5F28bcc5faFC8982536A9e4be559657998CdE1E3",
      "value": {
        "_hex": "0xfb86b70912f870000"
      },
      "nonce": 532,
      "data": "0x",
      "r": "0x3997524e8d528ac5bd76e580674234961dadd8b191b0d78df4def1757270377c",
      "s": "0x26cb8c423e2d9747cbccb9ffd9c073af897be84aedf2346558a41c38ce5f87d4",
      "v": 27,
      "creates": null,
      "raw": "0xf86f820214850d500f7ab0825208945f28bcc5fafc8982536a9e4be559657998cde1e3890fb86b70912f870000801ba03997524e8d528ac5bd76e580674234961dadd8b191b0d78df4def1757270377ca026cb8c423e2d9747cbccb9ffd9c073af897be84aedf2346558a41c38ce5f87d4",
      "networkId": 0,
      "chainId": 0
    }
  ]
}