{
  "hash": "0xfc8b3bf18a7c0bf199f65ed61845e8d6af9181b4775770cf11174d228df5569e",
  "parentHash": "0x7171f5a108a638e1bb2f43dee9078ca6b04f6a4290656d84d369e00994faa1c5",
  "number": 112689,
  "timestamp": 1440011478,
  "nonce": "0x0acabebe704ab901",
  "difficulty": 4421657709492,
  "gasLimit": {
    "_hex": "0x2fefd8"
  },
  "gasUsed": {
    "_hex": "0x47c70"
  },
  "miner": "0xe6A7a1d47ff21B6321162AEA7C6CB457D5476Bca",
  "extraData": "0x476574682f76312e302e312d38326566323666362f6c696e75782f676f312e34",
  "transactions": [
    {
      "hash": "0x51815df748aa76899c9886759539f8669125355fdfe03c98e062be7c61c059c1",
      "blockHash": "0xfc8b3bf18a7c0bf199f65ed61845e8d6af9181b4775770cf11174d228df5569e",
      "blockNumber": 112689,
      "transactionIndex": 0,
      "confirmations": null,
      "from": "0xf295fEAdD38E108Dfb2C5f327160141A69aAd43b",
      "gasPrice": {
        "_hex": "0xd9b39675e"
      },
      "gasLimit": {
        "_hex": "0x15f90"
      },
      "to": "0xc8b25f8890816e7F491d8EE02BA8b4548c73D3A4",
      "value": {
        "_hex": "0x2ec4a5251d110000"
      },
      "nonce": 2,
      "data": "0x",
      "r": "0xacd3e79cdee4287601b9ecbb8751b2dffd8205632d734567436e352289d41f1f",
      "s": "0x113272d68fbef9ce18f445b17e43163f3e41d7eeeb03e6f90b83253eea84e160",
      "v": 27,
      "creates": null,
      "raw": "0xf86d02850d9b39675e83015f9094c8b25f8890816e7f491d8ee02ba8b4548c73d3a4882ec4a5251d110000801ba0acd3e79cdee4287601b9ecbb8751b2dffd8205632d734567436e352289d41f1fa0113272d68fbef9ce18f445b17e43163f3e41d7eeeb03e6f90b83253eea84e160",
      "networkId": 0,
      "chainId": 0
    },
    {
      "hash": "0x0384c3fc4156450134d7325c380401708558b847af01fee58d0854e6a6c4efe6",
      "blockHash": "0xfc8b3bf18a7c0bf199f65ed61845e8d6af9181b4775770cf11174d228df5569e",
      "blockNumber": 112689,
      "transactionIndex": 1,
      "confirmations": null,
      "from": "0xe6A7a1d47ff21B6321162AEA7C6CB457D5476Bca",
      "gasPrice": {
        "_hex": "0xd90cd757d"
      },
      "gasLimit": {
        "_hex": "0x55f0"
      },
      "to": "0x0959BFF932df2642345f8C3C8FBf0e1B94854311",
      "value": {
        "_hex": "0x405fd32a92bde978"
      },
      "nonce": 4836,
      "data": "0x",
      "r": "0xd76596a093620ed8e4443bd23f20ae82fd50ddbb31ef9980fee351ca51b48ccf",
      "s": "0x1eb22cc36a15c17d88df34215b46bcc36229789be78b00b99fe226362a3549d4",
      "v": 27,
      "creates": null,
      "raw": "0xf86e8212e4850d90cd757d8255f0940959bff932df2642345f8c3c8fbf0e1b9485431188405fd32a92bde978801ba0d76596a093620ed8e4443bd23f20ae82fd50ddbb31ef9980fee351ca51b48ccfa01eb22cc36a15c17d88df34215b46bcc36229789be78b00b99fe226362a3549d4",
      "networkId": 0,
      "chainId": 0
    },
    {
      "hash": "0x2cac34ad8a082a1a8e85c2f590a6b92fa1650ab62892e0e6ae528b75ebc7ce38",
      "blockHash": "0xfc8b3bf18a7c0bf199f65ed61845e8d6af9181b4775770cf11174d228df5569e",
      "blockNumber": 112689,
      "transactionIndex": 2,
      "confirmations": null,
      "from": "0xe6A7a1d47ff21B6321162AEA7C6CB457D5476Bca",
      "gasPrice": {
        "_hex": "0xd90cd757d"
      },
      "gasLimit": {
        "_hex": "0x55f0"
      },
      "to": "0x211D45933Ef88c3D7aD0120942CF50ab506e618F",
      "value": {
        "_hex": "0x4113c4b467bd6890"
      },
      "nonce": 4837,
      "data": "0x",
      "r": "0x9c398b67ffb136aed7eb3ba2fb517921521a4b31202d38176a1b8835fba7ce83",
      "s": "0x1760fd2bb0675cd10a8a65cfc9a6bac4fa2fcded9ce55765a4fd7cc9eac9855b",
      "v": 27,
      "creates": null,
      "raw": "0xf86e8212e5850d90cd757d8255f094211d45933ef88c3d7ad0120942cf50ab506e618f884113c4b467bd6890801ba09c398b67ffb136aed7eb3ba2fb517921521a4b31202d38176a1b8835fba7ce83a01760fd2bb0675cd10a8a65cfc9a6bac4fa2fcded9ce55765a4fd7cc9eac9855b",
      "networkId": 0,
      "chainId": 0
    },
    {
      "hash": "0xe33fcfbc81cbf9ad92150be40596080ad0154df88ccbda89950660f8cdfe6462",
      "blockHash": "0xfc8b3bf18a7c0bf199f65ed61845e8d6af9181b4775770cf11174d228df5569e",
      "blockNumber": 112689,
      "transactionIndex": 3,
      "confirmations": null,
      "from": "0xe6A7a1d47ff21B6321162AEA7C6CB457D5476Bca",
      "gasPrice": {
        "_hex": "0xd90cd757d"
      },
      "gasLimit": {
        "_hex": "0x55f0"
      },
      "to": "0x19aF4b2766b8115B49E1fd31Ae71CaA12E706A96",
      "value": {
        "_hex": "0x41565366d6d8eaf0"
      },
      "nonce": 4838,
      "data": "0x",
      "r": "0x57f4481dc74f630f4153d0bb7a7cc3d1b2246fd41288ad145eecd5ee526a88be",
      "s": "0x3278ec1c47ce40f5c002ba2b165632d72ed68978097659b709d9272ef724a3ee",
      "v": 27,
      "creates": null,
      "raw": "0xf86e8212e6850d90cd757d8255f09419af4b2766b8115b49e1fd31ae71caa12e706a968841565366d6d8eaf0801ba057f4481dc74f630f4153d0bb7a7cc3d1b2246fd41288ad145eecd5ee526a88bea03278ec1c47ce40f5c002ba2b165632d72ed68978097659b709d9272ef724a3ee",
      "networkId": 0,
      "chainId": 0
    },
    {
      "hash": "0xce55f9ffb9ab6e005875dc7371f1f04d1ac402b9bdd2a7aeb7400246d8076971",
      "blockHash": "0xfc8b3bf18a7c0bf199f65ed61845e8d6af9181b4775770cf11174d228df5569e",
      "blockNumber": 112689,
      "transactionIndex": 4,
      "confirmations": null,
      "from": "0xe6A7a1d47ff21B6321162AEA7C6CB457D5476Bca",
      "gasPrice": {
        "_hex": "0xd90cd757d"
      },
      "gasLimit": {
        "_hex": "0x55f0"
      },
      "to": "0x6111E933E5e6297DFd0AAd9aAB64017c69062a08",
      "value": {
        "_hex": "0x424d4375e2f2f460"
      },
      "nonce": 4839,
      "data": "0x",
      "r": "0xe1746b7136a279ddb5a54396822cf12f8eed548804b72206204662ab1e4876e3",
      "s": "0x1e893fd4e016e628de435a07f0b37681e401819ebf3620c069fd033e68f8adb0",
      "v": 27,
      "creates": null,
      "raw": "0xf86e8212e7850d90cd757d8255f0946111e933e5e6297dfd0aad9aab64017c69062a0888424d4375e2f2f460801ba0e1746b7136a279ddb5a54396822cf12f8eed548804b72206204662ab1e4876e3a01e893fd4e016e628de435a07f0b37681e401819ebf3620c069fd033e68f8adb0",
      "networkId": 0,
      "chainId": 0
    },
    {
      "hash": "0xd4bc4286ecc0e1d1d6e83d37c4b91ab9dd3c60c64dd416a37e5ca56495f5a757",
      "blockHash": "0xfc8b3bf18a7c0bf199f65ed61845e8d6af9181b4775770cf11174d228df5569e",
      "blockNumber": 112689,
      "transactionIndex": 5,
      "confirmations": null,
      "from": "0xe6A7a1d47ff21B6321162AEA7C6CB457D5476Bca",
      "gasPrice": {
        "_hex": "0xd90cd757d"
      },
      "gasLimit": {
        "_hex": "0x55f0"
      },
      "to": "0xaC49eeb6a55aF554D86d37b4A4eA7940010866E1",
      "value": {
        "_hex": "0x42a14ab9fc63ea18"
      },
      "nonce": 4840,
      "data": "0x",
      "r": "0x42bfd72fb1f7c7d89162ce8182d36ee682659f9436cc63876b427c0f0ccd50ab",
      "s": "0x09cc3238599cea3df15af0d9dec3c1d1ce18accd10118b749af09ca4c382aaf0",
      "v": 28,
      "creates": null,
      "raw": "0xf86e8212e8850d90cd757d8255f094ac49eeb6a55af554d86d37b4a4ea7940010866e18842a14ab9fc63ea18801ca042bfd72fb1f7c7d89162ce8182d36ee682659f9436cc63876b427c0f0ccd50aba009cc3238599cea3df15af0d9dec3c1d1ce18accd10118b749af09ca4c382aaf0",
      "networkId": 0,
      "chainId": 0
    },
    {
      "hash": "0x59e020345aaa08f7abe2eeb6b106f52d3b98ee9bb97437a7f892a2f7a5d00e0b",
      "blockHash": "0xfc8b3bf18a7c0bf199f65ed61845e8d6af9181b4775770cf11174d228df5569e",
      "blockNumber": 112689,
      "transactionIndex": 6,
      "confirmations": null,
      "from": "0xe6A7a1d47ff21B6321162AEA7C6CB457D5476Bca",
      "gasPrice": {
        "_hex": "0xd90cd757d"
      },
      "gasLimit": {
        "_hex": "0x55f0"
      },
      "to": "0x5BeBc02e4CDF3e92B5a2947CfD1430c4EBBa4039",
      "value": {
        "_hex": "0x42c44e45cd0dffa8"
      },
      "nonce": 4841,
      "data": "0x",
      "r": "0xaaceaa79872df38346a48a50aa8f1f7cbb4155c92a46c9bd9c1ed1320fc472ec",
      "s": "0x7fa0958eb2e31a1fe458c99fd9de995e17399d70ce7576bc3d99dd10b2db5286",
      "v": 27,
      "creates": null,
      "raw": "0xf86e8212e9850d90cd757d8255f0945bebc02e4cdf3e92b5a2947cfd1430c4ebba40398842c44e45cd0dffa8801ba0aaceaa79872df38346a48a50aa8f1f7cbb4155c92a46c9bd9c1ed1320fc472eca07fa0958eb2e31a1fe458c99fd9de995e17399d70ce7576bc3d99dd10b2db5286",
      "networkId": 0,
      "chainId": 0
    },
    {
      "hash": "0x3b6b3d467a90242e5b36ed7631a32c62e69e901ea0f87cfdd3e7f3d8dce6e699",
      "blockHash": "0xfc8b3bf18a7c0bf199f65ed61845e8d6af9181b4775770cf11174d228df5569e",
      "blockNumber": 112689,
      "transactionIndex": 7,
      "confirmations": null,
      "from": "0xe6A7a1d47ff21B6321162AEA7C6CB457D5476Bca",
      "gasPrice": {
        "_hex": "0xd90cd757d"
      },
      "gasLimit": {
        "_hex": "0x55f0"
      },
      "to": "0xAD220cCE3937674e425c9693786E3eC3615C900C",
      "value": {
        "_hex": "0x431355b5c9398610"
      },
      "nonce": 4842,
      "data": "0x",
      "r": "0x90321923d5276456799d1295b5cd304fc17050e22d9259f4b98b3898c1b50c6f",
      "s": "0x1a505e55c94c865af425793b9adc1cb8e093a16662ce53e14918ca08d3dbd852",
      "v": 28,
      "creates": null,
      "raw": "0xf86e8212ea850d90cd757d8255f094ad220cce3937674e425c9693786e3ec3615c900c88431355b5c9398610801ca090321923d5276456799d1295b5cd304fc17050e22d9259f4b98b3898c1b50c6fa01a505e55c94c865af425793b9adc1cb8e093a16662ce53e14918ca08d3dbd852",
      "networkId": 0,
      "chainId": 0
    },
    {
      "hash": "0xacbb16dfb003a16ade30c222fd6edbfce26789466b42cdc845c5d6a4fe2ac651",
      "blockHash": "0xfc8b3bf18a7c0bf199f65ed61845e8d6af9181b4775770cf11174d228df5569e",
      "blockNumber": 112689,
      "transactionIndex": 8,
      "confirmations": null,
      "from": "0xe6A7a1d47ff21B6321162AEA7C6CB457D5476Bca",
      "gasPrice": {
        "_hex": "0xd90cd757d"
      },
      "gasLimit": {
        "_hex": "0x55f0"
      },
      "to": "0xD51361E8863b74B1d3BF75246d30f33f9f103e1d",
      "value": {
        "_hex": "0x43f38f378425d028"
      },
      "nonce": 4843,
      "data": "0x",
      "r": "0xa35f57806d05f7ad7f64f2885dd902261658537fc6af944fb1dda560e64d3e2c",
      "s": "0x4ec34180646ed31ddca66857f2f6a66808c1a942fa76d0913bb3ee99a38bdd1b",
      "v": 27,
      "creates": null,
      "raw": "0xf86e8212eb850d90cd757d8255f094d51361e8863b74b1d3bf75246d30f33f9f103e1d8843f38f378425d028801ba0a35f57806d05f7ad7f64f2885dd902261658537fc6af944fb1dda560e64d3e2ca04ec34180646ed31ddca66857f2f6a66808c1a942fa76d0913bb3ee99a38bdd1b",
      "networkId": 0,
      "chainId": 0
    },
    {
      "hash": "0xad44936cbff10974ec8d4de7ac96fa70092d5f01eaf225c9c919ff39a2f79e9e",
      "blockHash": "0xfc8b3bf18a7c0bf199f65ed61845e8d6af9181b4775770cf11174d228df5569e",
      "blockNumber": 112689,
      "transactionIndex": 9,
      "confirmations": null,
      "from": "0xe6A7a1d47ff21B6321162AEA7C6CB457D5476Bca",
      "gasPrice": {
        "_hex": "0xd90cd757d"
      },
      "gasLimit": {
        "_hex": "0x55f0"
      },
      "to": "0x4CD33268dF93C6b4F6b3D504009EAE965Afe272d",
      "value": {
        "_hex": "0x4523298c690c2768"
      },
      "nonce": 4844,
      "data": "0x",
      "r": "0xdc6ed056e2a228b41ff3e6580108135d7d5c8454ccb1bd2f2380c3f1200fe974",
      "s": "0x13d2ca45e10578fab444370f0b4328dd3aff143d1f8662ed100639f9b411e48c",
      "v": 27,
      "creates": null,
      "raw": "0xf86e8212ec850d90cd757d8255f0944cd33268df93c6b4f6b3d504009eae965afe272d884523298c690c2768801ba0dc6ed056e2a228b41ff3e6580108135d7d5c8454ccb1bd2f2380c3f1200fe974a013d2ca45e10578fab444370f0b4328dd3aff143d1f8662ed100639f9b411e48c",
      "networkId": 0,
      "chainId": 0
    },
    {
      "hash": "0x773a261a9f2924cd51825b07ba2ac43d7bcf692e4c5b113feefaf631a17784c5",
      "blockHash": "0xfc8b3bf18a7c0bf199f65ed61845e8d6af9181b4775770cf11174d228df5569e",
      "blockNumber": 112689,
      "transactionIndex": 10,
      "confirmations": null,
      "from": "0xe6A7a1d47ff21B6321162AEA7C6CB457D5476Bca",
      "gasPrice": {
        "_hex": "0xd90cd757d"
      },
      "gasLimit": {
        "_hex": "0x55f0"
      },
      "to": "0x31353beec2eD3DFfC213c27A9F28ad8dfee828e9",
      "value": {
        "_hex": "0x458e57f4479441e0"
      },
      "nonce": 4845,
      "data": "0x",
      "r": "0x779445e60e01bb591741b49940861ef412c01ab9f8e85d6319b3889edd95f44e",
      "s": "0x317e61dd254aa0e3feb6fdf6050b4cb5c80e26aa2dd60f7a6724369af60346d4",
      "v": 28,
      "creates": null,
      "raw": "0xf86e8212ed850d90cd757d8255f09431353beec2ed3dffc213c27a9f28ad8dfee828e988458e57f4479441e0801ca0779445e60e01bb591741b49940861ef412c01ab9f8e85d6319b3889edd95f44ea0317e61dd254aa0e3feb6fdf6050b4cb5c80e26aa2dd60f7a6724369af60346d4",
      "networkId": 0,
      "chainId": 0
    },
    {
      "hash": "0x3de12e94e5e823368e37a002a5000651c5fe4f50a1d6670679281dfbaf1d6b3b",
      "blockHash": "0xfc8b3bf18a7c0bf199f65ed61845e8d6af9181b4775770cf11174d228df5569e",
      "blockNumber": 112689,
      "transactionIndex": 11,
      "confirmations": null,
      "from": "0xe6A7a1d47ff21B6321162AEA7C6CB457D5476Bca",
      "gasPrice": {
        "_hex": "0xd90cd757d"
      },
      "gasLimit": {
        "_hex": "0x55f0"
      },
      "to": "0xc517a1ceF7630dc7FeBd59e9f7fb80F56EaCB21E",
      "value": {
        "_hex": "0x45b6dab24efe79c8"
      },
      "nonce": 4846,
      "data": "0x",
      "r": "0x6e76c6497771af0d8e89dacbe3f1f0f0dccc341c0edaaf95a3f712c9a7f06075",
      "s": "0x44baab44602f30980cff38be3c4ddb4cba3ebf037b8a668825ac2426a662cad2",
      "v": 27,
      "creates": null,
      "raw": "0xf86e8212ee850d90cd757d8255f094c517a1cef7630dc7febd59e9f7fb80f56eacb21e8845b6dab24efe79c8801ba06e76c6497771af0d8e89dacbe3f1f0f0dccc341c0edaaf95a3f712c9a7f06075a044baab44602f30980cff38be3c4ddb4cba3ebf037b8a668825ac2426a662cad2",
      "networkId": 0,
      "chainId": 0
    },
    {
      "hash": "0xb3c84940e76c846116151284fba55173cee1be63f9164df3c3915cbc0e867fdd",
      "blockHash": "0xfc8b3bf18a7c0bf199f65ed61845e8d6af9181b4775770cf11174d228df5569e",
      "blockNumber": 112689,
      "transactionIndex": 12,
      "confirmations": null,
      "from": "0xe6A7a1d47ff21B6321162AEA7C6CB457D5476Bca",
      "gasPrice": {
        "_hex": "0xd90cd757d"
      },
      "gasLimit": {
        "_hex": "0x55f0"
      },
      "to": "0x77b8115f6C7A1a949B92a8C5Ab5e3Bce37693cf8",
      "value": {
        "_hex": "0x45c5d00f76a43e48"
      },
      "nonce": 4847,
      "data": "0x",
      "r": "0x5aff2afb88fbce53d2b19a29e2cd61b5550eefea6d278e941507f880d4a4c3d0",
      "s": "0x52d91c7fe9d6229763ecc660eba03ca9ab2e5d36b25373937c6b49b1f980d3a3",
      "v": 27,
      "creates": null,
      "raw": "0xf86e8212ef850d90cd757d8255f09477b8115f6c7a1a949b92a8c5ab5e3bce37693cf88845c5d00f76a43e48801ba05aff2afb88fbce53d2b19a29e2cd61b5550eefea6d278e941507f880d4a4c3d0a052d91c7fe9d6229763ecc660eba03ca9ab2e5d36b25373937c6b49b1f980d3a3",
      "networkId": 0,
      "chainId": 0
    },
    {
      "hash": "0x3903800ca9f899bbb5ad7e56ef848b3bfae1ec1a0a1cf0de289e42f83cec145e",
      "blockHash": "0xfc8b3bf18a7c0bf199f65ed61845e8d6af9181b4775770cf11174d228df5569e",
      "blockNumber": 112689,
      "transactionIndex": 13,
      "confirmations": null,
      "from": "0xe6A7a1d47ff21B6321162AEA7C6CB457D5476Bca",
      "gasPrice": {
        "_hex": "0xd90cd757d"
      },
      "gasLimit": {
        "_hex": "0x55f0"
      },
      "to": "0x82b25DdBdf31a6d7F0C93E1aC4c13f155AfAF7fd",
      "value": {
        "_hex": "0x45f69155b942bf80"
      },
      "nonce": 4848,
      "data": "0x",
      "r": "0x68bfbcf4fbf38144e1f3f91f6077f280a699aae4d79627b19d5cb2743eb2bdc7",
      "s": "0x67de33f3a9ba6a9e9b60c94b2cdbe73760840b2547bab03609a94c7f6eaf5d3c",
      "v": 27,
      "creates": null,
      "raw": "0xf86e8212f0850d90cd757d8255f09482b25ddbdf31a6d7f0c93e1ac4c13f155afaf7fd8845f69155b942bf80801ba068bfbcf4fbf38144e1f3f91f6077f280a699aae4d79627b19d5cb2743eb2bdc7a067de33f3a9ba6a9e9b60c94b2cdbe73760840b2547bab03609a94c7f6eaf5d3c",
      "networkId": 0,
      "chainId": 0
    }
  ]
}