{
  "hash": "0x96ddc1882bce0a51e4e6ecd6b4a32ffaf314d8b1ab9a8f0d1057c50ad0ff05e2",
  "parentHash": "0xa907a2b9452ad046fc6c52b25e179cd7c88fa7d7790a6993c323746cc237ba8b",
  "number": 56683,
  "timestamp": 1439090904,
  "nonce": "0x0e906535ebdd0024",
  "difficulty": 1684571695922,
  "gasLimit": {
    "_hex": "0x2fefd8"
  },
  "gasUsed": {
    "_hex": "0x5208"
  },
  "miner": "0x87898CE53471043FcCa0a2aF4E1dC6d8B3fCf607",
  "extraData": "0x476574682f5369626572696131392f76312e302e312d37666266393930632f6c",
  "transactions": [
    {
      "hash": "0xbf9e125f89849cde14713cb47c887cd3097150feb53ee8f3303fb8da4dbdd8d6",
      "blockHash": "0x96ddc1882bce0a51e4e6ecd6b4a32ffaf314d8b1ab9a8f0d1057c50ad0ff05e2",
      "blockNumber": 56683,
      "transactionIndex": 0,
      "confirmations": null,
      "from": "0xC6Bf5B6558f2eE21F2E43d9fF9B5408A0Cb89413",
      "gasPrice": {
        "_hex": "0xd2a120468"
      },
      "gasLimit": {
        "_hex": "0x15f90"
      },
      "to": "0x33A3f479f6c3e7F91128348490D1f7E8D2A0FAb5",
      "value": {
        "_hex": "0x4563918244f40000"
      },
      "nonce": 10,
      "data": "0x",
      "r": "0x617c0571fc5a91f27bc4febc2d8d5cd3b4233f12684d2ea491bf921df5863276",
      "s": "0x260da3672272b6812d13cb8c00a3bf0d98907b1097a46fbc22cd2958b514096d",
      "v": 27,
      "creates": null,
      "raw": "0xf86d0a850d2a12046883015f909433a3f479f6c3e7f91128348490d1f7e8d2a0fab5884563918244f40000801ba0617c0571fc5a91f27bc4febc2d8d5cd3b4233f12684d2ea491bf921df5863276a0260da3672272b6812d13cb8c00a3bf0d98907b1097a46fbc22cd2958b514096d",
      "networkId": 0,
      "chainId": 0
    }
  ]
}