{
  "hash": "0xfb8d7f6414da8263675feb8bac840e6ccc23f0c607fc4159b5a24332d1d92345",
  "parentHash": "0x8af0373edd3a18a7433261cdb5cdc11adb82db09fab7e8da3c804df9685916ed",
  "number": 93105,
  "timestamp": 1439682607,
  "nonce": "0x7f0f9f88e3a1c5ed",
  "difficulty": 3642099095872,
  "gasLimit": {
    "_hex": "0x2fefd8"
  },
  "gasUsed": {
    "_hex": "0xa410"
  },
  "miner": "0x77EC9ad4A7E9418774C29415CAaF4Ee0da96eF64",
  "extraData": "0x",
  "transactions": [
    {
      "hash": "0xcf02e6ce067ab6b25d2128ce027c96ac220891c159a2feea7caa71cbc65ffe92",
      "blockHash": "0xfb8d7f6414da8263675feb8bac840e6ccc23f0c607fc4159b5a24332d1d92345",
      "blockNumber": 93105,
      "transactionIndex": 0,
      "confirmations": null,
      "from": "0xc97b6E47df229442524F8f210926557900f81574",
      "gasPrice": {
        "_hex": "0xd599110b0"
      },
      "gasLimit": {
        "_hex": "0x5208"
      },
      "to": "0x32Be343B94f860124dC4fEe278FDCBD38C102D88",
      "value": {
        "_hex": "0x2017620dc78c5a000"
      },
      "nonce": 12,
      "data": "0x",
      "r": "0xd3b380b068872f8dfb81efe9b7207bacc7c1e7f09c1053b59ab03d9a22a71180",
      "s": "0x5a7eaf66a470363c05fcb4bb2ea8b767e41a97628942d823f11e6d6cc76cf500",
      "v": 27,
      "creates": null,
      "raw": "0xf86d0c850d599110b08252089432be343b94f860124dc4fee278fdcbd38c102d888902017620dc78c5a000801ba0d3b380b068872f8dfb81efe9b7207bacc7c1e7f09c1053b59ab03d9a22a71180a05a7eaf66a470363c05fcb4bb2ea8b767e41a97628942d823f11e6d6cc76cf500",
      "networkId": 0,
      "chainId": 0
    },
    {
      "hash": "0xbe026e9081a9ffb3d049b5c0e1c50b42b36efd89d63129aa1a4c19649e7db9ac",
      "blockHash": "0xfb8d7f6414da8263675feb8bac840e6ccc23f0c607fc4159b5a24332d1d92345",
      "blockNumber": 93105,
      "transactionIndex": 1,
      "confirmations": null,
      "from": "0xe02748D4D8B0B605617F1F46839dFD0D55026520",
      "gasPrice": {
        "_hex": "0xba43b7400"
      },
      "gasLimit": {
        "_hex": "0x5208"
      },
      "to": "0xC47Aaa860008be6f65B58c6C6E02a84e666EfE31",
      "value": {
        "_hex": "0x2e2ae0cdf7fcccf0"
      },
      "nonce": 0,
      "data": "0x",
      "r": "0x4e1f51d28b216f783efc6f8d991f5c1627806f936ee7147456cb251bd2b90ea1",
      "s": "0x679fe83a4553d31d97387946a37a68c910667492a33e688239175b610016bcd8",
      "v": 28,
      "creates": null,
      "raw": "0xf86c80850ba43b740082520894c47aaa860008be6f65b58c6c6e02a84e666efe31882e2ae0cdf7fcccf0801ca04e1f51d28b216f783efc6f8d991f5c1627806f936ee7147456cb251bd2b90ea1a0679fe83a4553d31d97387946a37a68c910667492a33e688239175b610016bcd8",
      "networkId": 0,
      "chainId": 0
    }
  ]
}