{
  "hash": "0xde90f1e9f20ae9edd51f7a0ac2edff2a126ad7d4a8bfe263a36b1c63de0adaa6",
  "parentHash": "0xf634c671ffefe149a993ce23db013f2b3babb49ad79ce71213f1d9fa92b6b711",
  "number": 80183,
  "timestamp": 1439481386,
  "nonce": "0xc9024c407441bc4e",
  "difficulty": 2375931666809,
  "gasLimit": {
    "_hex": "0x2fefd8"
  },
  "gasUsed": {
    "_hex": "0x5208"
  },
  "miner": "0xe090Ffdced499691fA9379752a59F8A058c1eE4A",
  "extraData": "0x476574682f76312e302e312f6c696e75782f676f312e342e32",
  "transactions": [
    {
      "hash": "0xced5967845ae1551b1ddd2c89f7bb1a6c84d13a76af308a192cce1cafbb375f6",
      "blockHash": "0xde90f1e9f20ae9edd51f7a0ac2edff2a126ad7d4a8bfe263a36b1c63de0adaa6",
      "blockNumber": 80183,
      "transactionIndex": 0,
      "confirmations": null,
      "from": "0xB43e1e0a5b31874b2a95b1bc58bFcBD8CE5967DA",
      "gasPrice": {
        "_hex": "0xd1f217cbf"
      },
      "gasLimit": {
        "_hex": "0x15f90"
      },
      "to": "0xb1A2a1e9b8AC33fdcB2118b73A875b096AEd24aD",
      "value": {
        "_hex": "0x45400a8fd5330000"
      },
      "nonce": 0,
      "data": "0x",
      "r": "0x8f51ff459909a7a6ad14cda24da5080b2081b95efe0cce3fa5843696faafec0e",
      "s": "0x01c09352a1ca234d48a6d0d9abdbf0bdbcb342dc4d58c637dcbd3cdbc2ce8365",
      "v": 27,
      "creates": null,
      "raw": "0xf86d80850d1f217cbf83015f9094b1a2a1e9b8ac33fdcb2118b73a875b096aed24ad8845400a8fd5330000801ba08f51ff459909a7a6ad14cda24da5080b2081b95efe0cce3fa5843696faafec0ea001c09352a1ca234d48a6d0d9abdbf0bdbcb342dc4d58c637dcbd3cdbc2ce8365",
      "networkId": 0,
      "chainId": 0
    }
  ]
}