{
  "hash": "0x0d5172f6758c9f3a97a1de2d7de6b95780b45ba1c5ce2e14788e010cee81e7f5",
  "parentHash": "0x470a4fe608eec50da657dee683c913515c635d3066b58f6bf2f4d64a420da743",
  "number": 73647,
  "timestamp": 1439372510,
  "nonce": "0x18a8e3e2e4e7f55b",
  "difficulty": 2225012510077,
  "gasLimit": {
    "_hex": "0x2fefd8"
  },
  "gasUsed": {
    "_hex": "0xa410"
  },
  "miner": "0xF2d2AfF1320476cb8C6b607199D23175cc595693",
  "extraData": "0x476574682f76312e302e312f77696e646f77732f676f312e342e32",
  "transactions": [
    {
      "hash": "0x71ebeb2eba6f79d4882ad0178a9fd705f3bf39044e85462679d4289c5e1a0ddb",
      "blockHash": "0x0d5172f6758c9f3a97a1de2d7de6b95780b45ba1c5ce2e14788e010cee81e7f5",
      "blockNumber": 73647,
      "transactionIndex": 0,
      "confirmations": null,
      "from": "0x2910543Af39abA0Cd09dBb2D50200b3E800A63D2",
      "gasPrice": {
        "_hex": "0xda5596abe"
      },
      "gasLimit": {
        "_hex": "0x5208"
      },
      "to": "0xdB98E1eDaA167C1A97120055E13B835aA99a6b76",
      "value": {
        "_hex": "0x82521fc9e44c52000"
      },
      "nonce": 289,
      "data": "0x",
      "r": "0xd2ec8f710201da81d40f2b928cc64171e52b1659c0930132b58ffa3dc334d718",
      "s": "0x327ff0a30bfded807a28265f2d764d7e792b4ec2bad78d80681f36975fdf07a6",
      "v": 28,
      "creates": null,
      "raw": "0xf86f820121850da5596abe82520894db98e1edaa167c1a97120055e13b835aa99a6b7689082521fc9e44c52000801ca0d2ec8f710201da81d40f2b928cc64171e52b1659c0930132b58ffa3dc334d718a0327ff0a30bfded807a28265f2d764d7e792b4ec2bad78d80681f36975fdf07a6",
      "networkId": 0,
      "chainId": 0
    },
    {
      "hash": "0xd08671df89f3aa2380d1631725dadf964e5687e2fe576b93d1eec092d78ee1a1",
      "blockHash": "0x0d5172f6758c9f3a97a1de2d7de6b95780b45ba1c5ce2e14788e010cee81e7f5",
      "blockNumber": 73647,
      "transactionIndex": 1,
      "confirmations": null,
      "from": "0xB0bF4A71F730782368Ef660FE6D298F432F95450",
      "gasPrice": {
        "_hex": "0xce1a67530"
      },
      "gasLimit": {
        "_hex": "0x5208"
      },
      "to": "0x32Be343B94f860124dC4fEe278FDCBD38C102D88",
      "value": {
        "_hex": "0x1a901993744a500000"
      },
      "nonce": 14,
      "data": "0x",
      "r": "0xeb414e7a81087676ea97ba5a81839daad447cc144d237e7055eb094d5c0c7441",
      "s": "0x50f5ad47e363facc7dabdcf217cedec68fa88e1a7f6d1b6f94aba3a521985040",
      "v": 28,
      "creates": null,
      "raw": "0xf86d0e850ce1a675308252089432be343b94f860124dc4fee278fdcbd38c102d88891a901993744a500000801ca0eb414e7a81087676ea97ba5a81839daad447cc144d237e7055eb094d5c0c7441a050f5ad47e363facc7dabdcf217cedec68fa88e1a7f6d1b6f94aba3a521985040",
      "networkId": 0,
      "chainId": 0
    }
  ]
}