{
  "hash": "0x978a839267393cbc24783c5b96c73fb41968579e544d4247700ec4498c5a70fb",
  "parentHash": "0xbd17a37668553dcb1ecb2752365a597da724df29f99b160b083bc3d4c8e5e89c",
  "number": 60714,
  "timestamp": 1439160363,
  "nonce": "0x4b55945ec8f4991b",
  "difficulty": 1734667879229,
  "gasLimit": {
    "_hex": "0x2fefd5"
  },
  "gasUsed": {
    "_hex": "0x5208"
  },
  "miner": "0xf8E0CA3Ed80bd541b94BEdCf259e8CF2141A9523",
  "extraData": "0x476574682f76312e302e312f77696e646f77732f676f312e342e32",
  "transactions": [
    {
      "hash": "0xfd5ba3a0d879aedcc0772857b69fff74ab51b2f6dc8c29bb6cf0b8ba30373b0e",
      "blockHash": "0x978a839267393cbc24783c5b96c73fb41968579e544d4247700ec4498c5a70fb",
      "blockNumber": 60714,
      "transactionIndex": 0,
      "confirmations": null,
      "from": "0xf48313D6892f75dCb41dFdf48901C9cb9B146ac8",
      "gasPrice": {
        "_hex": "0xcd4ad0d57"
      },
      "gasLimit": {
        "_hex": "0x5208"
      },
      "to": "0xe043F7B6fc487e0Ad927C9bEcd1D586F30eE1639",
      "value": {
        "_hex": "0x572b7b98736c20000"
      },
      "nonce": 0,
      "data": "0x",
      "r": "0x3271a1cf17fca9ca238ed2bb8d032844b49c8d2994992283c6f5bbd264518208",
      "s": "0x2ebee9f29e54c2bf53724b8a6e4c1ca7bdddbfb84f5bb3fc82c38712987ea92e",
      "v": 27,
      "creates": null,
      "raw": "0xf86d80850cd4ad0d5782520894e043f7b6fc487e0ad927c9becd1d586f30ee1639890572b7b98736c20000801ba03271a1cf17fca9ca238ed2bb8d032844b49c8d2994992283c6f5bbd264518208a02ebee9f29e54c2bf53724b8a6e4c1ca7bdddbfb84f5bb3fc82c38712987ea92e",
      "networkId": 0,
      "chainId": 0
    }
  ]
}