{
  "hash": "0xd56bcfd4ba651b6d43ed5275ead09437acdedfc5c0260fa8ea8110a45e9713aa",
  "parentHash": "0x09b0f3e20b128ab4bc3111b7da819da76eb38e3ed3601d06455d69918bb24017",
  "number": 76125,
  "timestamp": 1439415262,
  "nonce": "0x24fe5753741f967a",
  "difficulty": 2241801173497,
  "gasLimit": {
    "_hex": "0x2fefd8"
  },
  "gasUsed": {
    "_hex": "0x5208"
  },
  "miner": "0x923707da8Dd7Ff41a0bDD87b62c9E5DfA9c420a5",
  "extraData": "0x",
  "transactions": [
    {
      "hash": "0xc22360cd1e6297f1159fcd56921740c68bf93d5a32cf1c735de4ec522fa2690d",
      "blockHash": "0xd56bcfd4ba651b6d43ed5275ead09437acdedfc5c0260fa8ea8110a45e9713aa",
      "blockNumber": 76125,
      "transactionIndex": 0,
      "confirmations": null,
      "from": "0x63BBedc46A1113Ba7938CF7C18CCb5Aed20eC733",
      "gasPrice": {
        "_hex": "0xcd01555c5"
      },
      "gasLimit": {
        "_hex": "0x15f90"
      },
      "to": "0x0A319A7e0C887F104359e1eEe6717BD8f232d3Da",
      "value": {
        "_hex": "0x482a1c7300080000"
      },
      "nonce": 5,
      "data": "0x",
      "r": "0x2bf4f4eadfcaf4aa34a194b2e13556e4d94ec60b11b1cf89feb9a5e789acf30f",
      "s": "0x3c7bf625ab151d520d964629ab5f89a2ff0e4c500a0838af751d190fa0681933",
      "v": 27,
      "creates": null,
      "raw": "0xf86d05850cd01555c583015f90940a319a7e0c887f104359e1eee6717bd8f232d3da88482a1c7300080000801ba02bf4f4eadfcaf4aa34a194b2e13556e4d94ec60b11b1cf89feb9a5e789acf30fa03c7bf625ab151d520d964629ab5f89a2ff0e4c500a0838af751d190fa0681933",
      "networkId": 0,
      "chainId": 0
    }
  ]
}