{
  "hash": "0x38e28ea0b6df2ee747faa9cdc6feefd6e0591bd9d4d0b3a54e27fadc99c9dcf6",
  "parentHash": "0xbfbaf2bd1dc12d76bdbc767976cfa7b44c42ec6009c26b7b3333ec2ef7463500",
  "number": 98521,
  "timestamp": 1439774245,
  "nonce": "0x601e215cd82648d7",
  "difficulty": 3859386786182,
  "gasLimit": {
    "_hex": "0x2fefd8"
  },
  "gasUsed": {
    "_hex": "0x5208"
  },
  "miner": "0xe6A7a1d47ff21B6321162AEA7C6CB457D5476Bca",
  "extraData": "0x476574682f76312e302e312d38326566323666362f6c696e75782f676f312e34",
  "transactions": [
    {
      "hash": "0x234c6090456df15213ffaa55a5efed21dbbff52b33f9eb65012bf67b7f0ccba7",
      "blockHash": "0x38e28ea0b6df2ee747faa9cdc6feefd6e0591bd9d4d0b3a54e27fadc99c9dcf6",
      "blockNumber": 98521,
      "transactionIndex": 0,
      "confirmations": null,
      "from": "0x7D45E10A0d63eCCA0694a7cbfF030f4dD87DA0dC",
      "gasPrice": {
        "_hex": "0xcba45a5a8"
      },
      "gasLimit": {
        "_hex": "0x15f90"
      },
      "to": "0x6d921977dEFE5f4e0682CA512De1D07b1f4802E1",
      "value": {
        "_hex": "0x8ad1cb80783b8000"
      },
      "nonce": 23,
      "data": "0x",
      "r": "0x9186b31b03ec34192ecae85a37a31200c9bc77e41a86270dee26ba8c8af3f77d",
      "s": "0x54f9fa0d9e94a8f7ab445af3880894d82260aa0489ee94a0f360a76ad9472010",
      "v": 28,
      "creates": null,
      "raw": "0xf86d17850cba45a5a883015f90946d921977defe5f4e0682ca512de1d07b1f4802e1888ad1cb80783b8000801ca09186b31b03ec34192ecae85a37a31200c9bc77e41a86270dee26ba8c8af3f77da054f9fa0d9e94a8f7ab445af3880894d82260aa0489ee94a0f360a76ad9472010",
      "networkId": 0,
      "chainId": 0
    }
  ]
}