{
  "hash": "0xefc58f7955b76f2e4e58a5abf32694c0c3062460b36a511e6859d06f8204a180",
  "parentHash": "0x8d498cf5e5b13e7a4f448b4b8e6f7fb0a2f45a8d9a6fa5a41569a81d8d51a058",
  "number": 99947,
  "timestamp": 1439798206,
  "nonce": "0x3f91049fd72ff13c",
  "difficulty": 3847442442791,
  "gasLimit": {
    "_hex": "0x2fefd8"
  },
  "gasUsed": {
    "_hex": "0xf618"
  },
  "miner": "0xbb7B8287f3F0a933474a79eAe42CBCa977791171",
  "extraData": "0x476574682f4c5649562f76312e302e312f6c696e75782f676f312e342e32",
  "transactions": [
    {
      "hash": "0x51320f821ec0d26b0d584f1fe0158b3a1fa478bbeec1cc7f3f1dd2ad4249c030",
      "blockHash": "0xefc58f7955b76f2e4e58a5abf32694c0c3062460b36a511e6859d06f8204a180",
      "blockNumber": 99947,
      "transactionIndex": 0,
      "confirmations": null,
      "from": "0xB76CeFA8d0680c6dA05CA47e1C4B70aA092B69a9",
      "gasPrice": {
        "_hex": "0xdfeeb88a0"
      },
      "gasLimit": {
        "_hex": "0x15f90"
      },
      "to": "0xeC06c233d618b41076FbfF739Efb85a4999F89Da",
      "value": {
        "_hex": "0x130337bdce490000"
      },
      "nonce": 4,
      "data": "0x",
      "r": "0x54f71d0712baac41420c2272885ad4fbccd34dea333ddb1ed51660d4f0611ee3",
      "s": "0x1e6cc9812a2f24e8fd0b49e5819d592509c0f0a371a8022819b2cec9a841a4bc",
      "v": 28,
      "creates": null,
      "raw": "0xf86d04850dfeeb88a083015f9094ec06c233d618b41076fbff739efb85a4999f89da88130337bdce490000801ca054f71d0712baac41420c2272885ad4fbccd34dea333ddb1ed51660d4f0611ee3a01e6cc9812a2f24e8fd0b49e5819d592509c0f0a371a8022819b2cec9a841a4bc",
      "networkId": 0,
      "chainId": 0
    },
    {
      "hash": "0xe8a2aeda49e9273c91247d57c95741e49a1ca619960b5815024c8cd5f0bfa9ee",
      "blockHash": "0xefc58f7955b76f2e4e58a5abf32694c0c3062460b36a511e6859d06f8204a180",
      "blockNumber": 99947,
      "transactionIndex": 1,
      "confirmations": null,
      "from": "0xe6A7a1d47ff21B6321162AEA7C6CB457D5476Bca",
      "gasPrice": {
        "_hex": "0xdecb5ba9f"
      },
      "gasLimit": {
        "_hex": "0x55f0"
      },
      "to": "0x0d187496799a43E7c43e4324026E32d1Dc80D8E4",
      "value": {
        "_hex": "0x1bec63c6ea0935f4"
      },
      "nonce": 3098,
      "data": "0x",
      "r": "0x6e18cb4c6ced03de6ae1031f1e7b158aac9cd276acc62426bff12f7c7c3c8d85",
      "s": "0x1980d40bf95e7117fd66330ef1e3cd34d63bb6d0b5e0b92f33a34cc3438d5f0f",
      "v": 28,
      "creates": null,
      "raw": "0xf86e820c1a850decb5ba9f8255f0940d187496799a43e7c43e4324026e32d1dc80d8e4881bec63c6ea0935f4801ca06e18cb4c6ced03de6ae1031f1e7b158aac9cd276acc62426bff12f7c7c3c8d85a01980d40bf95e7117fd66330ef1e3cd34d63bb6d0b5e0b92f33a34cc3438d5f0f",
      "networkId": 0,
      "chainId": 0
    },
    {
      "hash": "0x7fb8a57f8abad89ef88b60686cb2d89309b9554e1dde4f2505101a2b2da3ac00",
      "blockHash": "0xefc58f7955b76f2e4e58a5abf32694c0c3062460b36a511e6859d06f8204a180",
      "blockNumber": 99947,
      "transactionIndex": 2,
      "confirmations": null,
      "from": "0xe6A7a1d47ff21B6321162AEA7C6CB457D5476Bca",
      "gasPrice": {
        "_hex": "0xdecb5ba9f"
      },
      "gasLimit": {
        "_hex": "0x55f0"
      },
      "to": "0x8eB3FbB4A0Cc2366e88FB476df63D3Ad6907907b",
      "value": {
        "_hex": "0x1bfd5089f6a17e28"
      },
      "nonce": 3099,
      "data": "0x",
      "r": "0xcdeb3237df77e5b9d3ecdb3272235695725fe51051d3f5955aba33e8a91b2b14",
      "s": "0x0ef660acb00b8a9e837966e91da7c6ec8661b7862bcfd3a39466f14aeff2def2",
      "v": 27,
      "creates": null,
      "raw": "0xf86e820c1b850decb5ba9f8255f0948eb3fbb4a0cc2366e88fb476df63d3ad6907907b881bfd5089f6a17e28801ba0cdeb3237df77e5b9d3ecdb3272235695725fe51051d3f5955aba33e8a91b2b14a00ef660acb00b8a9e837966e91da7c6ec8661b7862bcfd3a39466f14aeff2def2",
      "networkId": 0,
      "chainId": 0
    }
  ]
}