{
  "hash": "0x25f387bdb7da4374cb22d64e07603937f374869394e1ce2e1360df6501de6875",
  "parentHash": "0xdfc1a13ba29e93c3145232f3bf7cbb4df114a0e7d9e7c6bf685858c27d8c64d8",
  "number": 75164,
  "timestamp": 1439398671,
  "nonce": "0xc7849d6d553dac3b",
  "difficulty": 2197619360033,
  "gasLimit": {
    "_hex": "0x2fefd5"
  },
  "gasUsed": {
    "_hex": "0x5208"
  },
  "miner": "0xe6A7a1d47ff21B6321162AEA7C6CB457D5476Bca",
  "extraData": "0x476574682f76312e302e312d38326566323666362f6c696e75782f676f312e34",
  "transactions": [
    {
      "hash": "0x99f8f6af57d83293917aad85cb10a1f27de50bb45be53149002a7d68cf19467b",
      "blockHash": "0x25f387bdb7da4374cb22d64e07603937f374869394e1ce2e1360df6501de6875",
      "blockNumber": 75164,
      "transactionIndex": 0,
      "confirmations": null,
      "from": "0x8566f68Aee274dF135ee5A619ea3b17437121fC4",
      "gasPrice": {
        "_hex": "0xd7d7fd1fe"
      },
      "gasLimit": {
        "_hex": "0x15f90"
      },
      "to": "0x9E1B8Bfe4062F4fA08C9fb5eD4A4Ae55425a7EB1",
      "value": {
        "_hex": "0x8963dd8c2c5e0000"
      },
      "nonce": 1,
      "data": "0x",
      "r": "0x7146ef81e61ecc68d96bb8b601705d3e1970ffa91598c29e7270c84941d3087c",
      "s": "0x00cc59f33011118b86c8b71fbd719bb3caed854aa45965687b755d67bf87c3ca",
      "v": 28,
      "creates": null,
      "raw": "0xf86c01850d7d7fd1fe83015f90949e1b8bfe4062f4fa08c9fb5ed4a4ae55425a7eb1888963dd8c2c5e0000801ca07146ef81e61ecc68d96bb8b601705d3e1970ffa91598c29e7270c84941d3087c9fcc59f33011118b86c8b71fbd719bb3caed854aa45965687b755d67bf87c3ca",
      "networkId": 0,
      "chainId": 0
    }
  ]
}