{
  "hash": "0x273771193cc94028b7881ebba7e30c0ba7dc541ffc2670b36d28f341c97a20fc",
  "parentHash": "0x20a31df8a2728287c2aeb5513ff4ea2cea7ac60e5b94068666c6310529ef4136",
  "number": 105139,
  "timestamp": 1439882496,
  "nonce": "0x4ea1f7ea249a115f",
  "difficulty": 4297862585964,
  "gasLimit": {
    "_hex": "0x2fefd5"
  },
  "gasUsed": {
    "_hex": "0xa410"
  },
  "miner": "0xe6A7a1d47ff21B6321162AEA7C6CB457D5476Bca",
  "extraData": "0x476574682f76312e302e312d38326566323666362f6c696e75782f676f312e34",
  "transactions": [
    {
      "hash": "0xb535ffd6552fb066b920f8b52c0dce7dba3f7837a9bb6959ee2b39bc6d979628",
      "blockHash": "0x273771193cc94028b7881ebba7e30c0ba7dc541ffc2670b36d28f341c97a20fc",
      "blockNumber": 105139,
      "transactionIndex": 0,
      "confirmations": null,
      "from": "0xFBb1b73C4f0BDa4f67dcA266ce6Ef42f520fBB98",
      "gasPrice": {
        "_hex": "0xce17e0b4b"
      },
      "gasLimit": {
        "_hex": "0x5208"
      },
      "to": "0xc42333fFCaB0a62138cf32808723Db35bB9dC45b",
      "value": {
        "_hex": "0x2a303fe4b530000"
      },
      "nonce": 108,
      "data": "0x",
      "r": "0xbb4c39a3579a9e7e6b9ea53f021f7142c47baee81f805c229f8e4b6433c95531",
      "s": "0x1432d165a447c493d77130a1083eedad682dea8932e08fb8f2ddba82c6c030cd",
      "v": 28,
      "creates": null,
      "raw": "0xf86c6c850ce17e0b4b82520894c42333ffcab0a62138cf32808723db35bb9dc45b8802a303fe4b530000801ca0bb4c39a3579a9e7e6b9ea53f021f7142c47baee81f805c229f8e4b6433c95531a01432d165a447c493d77130a1083eedad682dea8932e08fb8f2ddba82c6c030cd",
      "networkId": 0,
      "chainId": 0
    },
    {
      "hash": "0x382b3403af46a4fe7bb39ea5d2cbff96f6fc24815ba2ff9d4a516f03b2aa7960",
      "blockHash": "0x273771193cc94028b7881ebba7e30c0ba7dc541ffc2670b36d28f341c97a20fc",
      "blockNumber": 105139,
      "transactionIndex": 1,
      "confirmations": null,
      "from": "0xFBb1b73C4f0BDa4f67dcA266ce6Ef42f520fBB98",
      "gasPrice": {
        "_hex": "0xce17e0b4b"
      },
      "gasLimit": {
        "_hex": "0x5208"
      },
      "to": "0x718d2DE7755FE6395eCa6532128EeBe7dE370eD6",
      "value": {
        "_hex": "0x2a303fe4b530000"
      },
      "nonce": 109,
      "data": "0x",
      "r": "0xc59fcd97c66afba43aa5f7c7b6e5416ce98dc9b0c1eac6ef88ab7acfcfcebd2a",
      "s": "0x5135f19095f674096688662c9834e1a1fbe4552e9223f64858e485a541422981",
      "v": 27,
      "creates": null,
      "raw": "0xf86c6d850ce17e0b4b82520894718d2de7755fe6395eca6532128eebe7de370ed68802a303fe4b530000801ba0c59fcd97c66afba43aa5f7c7b6e5416ce98dc9b0c1eac6ef88ab7acfcfcebd2aa05135f19095f674096688662c9834e1a1fbe4552e9223f64858e485a541422981",
      "networkId": 0,
      "chainId": 0
    }
  ]
}