{
  "hash": "0xcfbbc351be4b96f079722fbf4c9620598c9e3ee9c669bf1db940f796b36c500a",
  "parentHash": "0xce1bc19f114c5d0358bef679ddca25b6aaf4b29ac1466e9653cd96c0c0db3a3c",
  "number": 62215,
  "timestamp": 1439185034,
  "nonce": "0x29da1df26d5a25de",
  "difficulty": 1774619898652,
  "gasLimit": {
    "_hex": "0x2fefd5"
  },
  "gasUsed": {
    "_hex": "0xa674"
  },
  "miner": "0xa50ec0D39fa913E62f1Bae7074E6F36caA71855b",
  "extraData": "0x",
  "transactions": [
    {
      "hash": "0x0f2d006f901ae371971004a5cf274d824e5387004f631947efc5b25c652e4f64",
      "blockHash": "0xcfbbc351be4b96f079722fbf4c9620598c9e3ee9c669bf1db940f796b36c500a",
      "blockNumber": 62215,
      "transactionIndex": 0,
      "confirmations": null,
      "from": "0x66493587E4BFbAf65E6295308371a78761a2794D",
      "gasPrice": {
        "_hex": "0x10f579d4e95"
      },
      "gasLimit": {
        "_hex": "0x55f0"
      },
      "to": "0x2910543Af39abA0Cd09dBb2D50200b3E800A63D2",
      "value": {
        "_hex": "0x3830f00c278e8000"
      },
      "nonce": 2,
      "data": "0x454e395a3555385130",
      "r": "0xf46a56389e9742aa5010b4eec823c1405a550c3ce830b996afe8f29bc42e67cb",
      "s": "0x7c372300860db96bb20e29d414db79d2bb05e6ac6d021f98b5650ca336092fa6",
      "v": 27,
      "creates": null,
      "raw": "0xf8760286010f579d4e958255f0942910543af39aba0cd09dbb2d50200b3e800a63d2883830f00c278e800089454e395a35553851301ba0f46a56389e9742aa5010b4eec823c1405a550c3ce830b996afe8f29bc42e67cba07c372300860db96bb20e29d414db79d2bb05e6ac6d021f98b5650ca336092fa6",
      "networkId": 0,
      "chainId": 0
    },
    {
      "hash": "0xed3d6d2e517744ba6ae87a710abf6f2414691d0f4569cf5316b85b2e64819546",
      "blockHash": "0xcfbbc351be4b96f079722fbf4c9620598c9e3ee9c669bf1db940f796b36c500a",
      "blockNumber": 62215,
      "transactionIndex": 1,
      "confirmations": null,
      "from": "0x344BBD5023F03dA0BDFe384c65b4A5d62B0b2Bca",
      "gasPrice": {
        "_hex": "0xd9bde1e60"
      },
      "gasLimit": {
        "_hex": "0x55f0"
      },
      "to": "0x6da3A9d94B3cF82719F9c6857950046fA404Dd16",
      "value": {
        "_hex": "0x2386f26fc10000"
      },
      "nonce": 0,
      "data": "0x",
      "r": "0x01356dc99337c329d765f98688758138fce18d842f249fdc897282f47ebb3812",
      "s": "0x1bf1b884ae93d4b446c81b06a84ed633e90b707bad5155fe472856ef660b3fd9",
      "v": 27,
      "creates": null,
      "raw": "0xf86b80850d9bde1e608255f0946da3a9d94b3cf82719f9c6857950046fa404dd16872386f26fc10000801ba001356dc99337c329d765f98688758138fce18d842f249fdc897282f47ebb3812a01bf1b884ae93d4b446c81b06a84ed633e90b707bad5155fe472856ef660b3fd9",
      "networkId": 0,
      "chainId": 0
    }
  ]
}