{
  "hash": "0x921f8bc9bd0178e60fe90b2142b7bb2ac6541a897b8792a19f2b1a1f820e1722",
  "parentHash": "0x7e09a71cdf8262586ed02b2a84be47f4fae11267ea244fbac7f8b3df9e863549",
  "number": 105208,
  "timestamp": 1439883615,
  "nonce": "0x62d6861c096bd30a",
  "difficulty": 4333651037933,
  "gasLimit": {
    "_hex": "0x2fefd8"
  },
  "gasUsed": {
    "_hex": "0x5208"
  },
  "miner": "0x0eDEd3DA479d0beF8eeC92A76644D3f4E3C177f7",
  "extraData": "0x476574682f76312e302e312f6c696e75782f676f312e342e32",
  "transactions": [
    {
      "hash": "0x39410adacddadb644e7a8eb6968d6ff4ad9891bc57e93372f5446b0c4e400320",
      "blockHash": "0x921f8bc9bd0178e60fe90b2142b7bb2ac6541a897b8792a19f2b1a1f820e1722",
      "blockNumber": 105208,
      "transactionIndex": 0,
      "confirmations": null,
      "from": "0x4D52F282d1B4Ca07065FA433f90BDbb3b7c2928F",
      "gasPrice": {
        "_hex": "0xcb7761755"
      },
      "gasLimit": {
        "_hex": "0x15f90"
      },
      "to": "0x187b1f47Cd55b27878699DfCDCee2234cD49E97e",
      "value": {
        "_hex": "0x5171fd07f192e0000"
      },
      "nonce": 1,
      "data": "0x",
      "r": "0xc71ac8c43961ba7c9c3e0ff91abccc50ad3a0fda645bdb52d3ec5e826b9cb266",
      "s": "0x6e1aed48df451379cca626f57fc7a6e76ce5c68a6e628e045271e9d234cb0a01",
      "v": 28,
      "creates": null,
      "raw": "0xf86e01850cb776175583015f9094187b1f47cd55b27878699dfcdcee2234cd49e97e8905171fd07f192e0000801ca0c71ac8c43961ba7c9c3e0ff91abccc50ad3a0fda645bdb52d3ec5e826b9cb266a06e1aed48df451379cca626f57fc7a6e76ce5c68a6e628e045271e9d234cb0a01",
      "networkId": 0,
      "chainId": 0
    }
  ]
}