{
  "hash": "0x220ccc52ad708e8489ef957093b4acbbd1dfefe343138e16182cfb6ea89d72b6",
  "parentHash": "0x28734f18a520ca71cb3611c01ce49124730ec89c52f503b09f8b51e3cc0f4775",
  "number": 105090,
  "timestamp": 1439881636,
  "nonce": "0xbb4abd64e8418ab9",
  "difficulty": 4295789625079,
  "gasLimit": {
    "_hex": "0x2fefd8"
  },
  "gasUsed": {
    "_hex": "0x520c"
  },
  "miner": "0xe6A7a1d47ff21B6321162AEA7C6CB457D5476Bca",
  "extraData": "0x476574682f76312e302e312d38326566323666362f6c696e75782f676f312e34",
  "transactions": [
    {
      "hash": "0x94c24e17999830687dde76ca9aeacbc05a77cb466bb486bcbf368282a61720fa",
      "blockHash": "0x220ccc52ad708e8489ef957093b4acbbd1dfefe343138e16182cfb6ea89d72b6",
      "blockNumber": 105090,
      "transactionIndex": 0,
      "confirmations": null,
      "from": "0xb9836ec1f42Bd48331bceaedb74a6Bcdc22832bD",
      "gasPrice": {
        "_hex": "0xd4ebb7071"
      },
      "gasLimit": {
        "_hex": "0x7530"
      },
      "to": "0x7cB57B5A97eAbe94205C07890BE4c1aD31E486A8",
      "value": {
        "_hex": "0x38d7ea4c68000"
      },
      "nonce": 4,
      "data": "0x00",
      "r": "0xd7097c7528209a612d8c4de7164a7402f940cb44510d0083a8ab9c00492aa4e5",
      "s": "0x84937af9b008e3ff1496566600dce6440cf40b1b5786b5e8593344913676ab25",
      "v": 27,
      "creates": null,
      "raw": "0xf86b04850d4ebb7071827530947cb57b5a97eabe94205c07890be4c1ad31e486a887038d7ea4c68000001ba0d7097c7528209a612d8c4de7164a7402f940cb44510d0083a8ab9c00492aa4e5a084937af9b008e3ff1496566600dce6440cf40b1b5786b5e8593344913676ab25",
      "networkId": 0,
      "chainId": 0
    }
  ]
}