{
  "hash": "0x3491bc04b2547b4d2cd6655365e24d52e7822a43fb9c8ee0c6cf57e800dfff92",
  "parentHash": "0x396129042128afe0b8c815b6fa511a1661b191d7ae744e785186c65320ef6132",
  "number": 92580,
  "timestamp": 1439674251,
  "nonce": "0x73f62f31cd3c1eb5",
  "difficulty": 3528541071231,
  "gasLimit": {
    "_hex": "0x2fefd8"
  },
  "gasUsed": {
    "_hex": "0x5208"
  },
  "miner": "0x785ffdDd5cE55c6DF963f345e68d3F2024E5Acb1",
  "extraData": "0x",
  "transactions": [
    {
      "hash": "0x1bbb6f279f673097b51f5a43c0e68df705056fba1552e221d4eaac4ee918bc73",
      "blockHash": "0x3491bc04b2547b4d2cd6655365e24d52e7822a43fb9c8ee0c6cf57e800dfff92",
      "blockNumber": 92580,
      "transactionIndex": 0,
      "confirmations": null,
      "from": "0xfc510Dc637540f49bF28D065ea11cA81b5189BaF",
      "gasPrice": {
        "_hex": "0xba43b7400"
      },
      "gasLimit": {
        "_hex": "0x5b04"
      },
      "to": "0x59b8fF676EBC26F9cBCcd044b7531f1a92c14cDC",
      "value": {
        "_hex": "0x16345785d8a0000"
      },
      "nonce": 0,
      "data": "0x",
      "r": "0x96b895f6fd19989cd082ab8ad8d39ce9f3f2d9b2c7ddf4f0e879524954e54a70",
      "s": "0x1679c03ac5e95cc88d655400ce9895b56c6013dc2ded640f8f304fe97ba4a75e",
      "v": 28,
      "creates": null,
      "raw": "0xf86c80850ba43b7400825b049459b8ff676ebc26f9cbccd044b7531f1a92c14cdc88016345785d8a0000801ca096b895f6fd19989cd082ab8ad8d39ce9f3f2d9b2c7ddf4f0e879524954e54a70a01679c03ac5e95cc88d655400ce9895b56c6013dc2ded640f8f304fe97ba4a75e",
      "networkId": 0,
      "chainId": 0
    }
  ]
}