{
  "hash": "0x42150877c69d652fc746216037c89bb367e35decf5af64b53c67562a53deb3b1",
  "parentHash": "0x4fc8cd60f0d588abb8556edec2e0645d06f2d42c1d56fc6aeb5dfc2b0fc99371",
  "number": 86014,
  "timestamp": 1439572253,
  "nonce": "0x24309bfcc5aa2de7",
  "difficulty": 2788040657509,
  "gasLimit": {
    "_hex": "0x2fefd8"
  },
  "gasUsed": {
    "_hex": "0x5208"
  },
  "miner": "0x790b8a3cE86E707ED0eD32bF89B3269692a23CC1",
  "extraData": "0xd783010001844765746887676f312e342e32856c696e7578",
  "transactions": [
    {
      "hash": "0x4a2cfcbd40cd02498d42032971cfefa3413db9acbffbabb5ce12beb00c26f024",
      "blockHash": "0x42150877c69d652fc746216037c89bb367e35decf5af64b53c67562a53deb3b1",
      "blockNumber": 86014,
      "transactionIndex": 0,
      "confirmations": null,
      "from": "0x8156360BBd370961ceCa6B6691D75006Ad204Cf2",
      "gasPrice": {
        "_hex": "0xd39b3cc76"
      },
      "gasLimit": {
        "_hex": "0x55f0"
      },
      "to": "0x2C5CfC5ae898F1Dc91Ffcf34076b3567510265B9",
      "value": {
        "_hex": "0xa2a15d09519be00000"
      },
      "nonce": 8,
      "data": "0x",
      "r": "0x2a2050dec2efffe86d13d6bb4491229f2826b1e22c5f4d50aec2d4a5e046dc65",
      "s": "0x19fb03c85051d2d4a83e83ad1a4582e0be19d93b15c014701a29a473001b5c52",
      "v": 28,
      "creates": null,
      "raw": "0xf86d08850d39b3cc768255f0942c5cfc5ae898f1dc91ffcf34076b3567510265b989a2a15d09519be00000801ca02a2050dec2efffe86d13d6bb4491229f2826b1e22c5f4d50aec2d4a5e046dc65a019fb03c85051d2d4a83e83ad1a4582e0be19d93b15c014701a29a473001b5c52",
      "networkId": 0,
      "chainId": 0
    }
  ]
}