{
  "hash": "0x2638af02dbb1d64614b809169632076d1e9ace6d6aff7cad3052695f14615a15",
  "parentHash": "0xb9e38b1e3213187a8156b793882f202d83085dc6186dc138c96c85a9c76b0998",
  "number": 47166,
  "timestamp": 1438935401,
  "nonce": "0x8502c1770f8be294",
  "difficulty": 1458817706135,
  "gasLimit": {
    "_hex": "0x9e5b"
  },
  "gasUsed": {
    "_hex": "0x5208"
  },
  "miner": "0xf8E0CA3Ed80bd541b94BEdCf259e8CF2141A9523",
  "extraData": "0x476574682f76312e302e312f77696e646f77732f676f312e342e32",
  "transactions": [
    {
      "hash": "0x57c23e88919e1845e9bc7fb3f551543f9452ba2eb7d1e9c2b28f915d4b88877b",
      "blockHash": "0x2638af02dbb1d64614b809169632076d1e9ace6d6aff7cad3052695f14615a15",
      "blockNumber": 47166,
      "transactionIndex": 0,
      "confirmations": null,
      "from": "0x01434e4Ac3238bEC44a39ad642aBaBBB68D097e6",
      "gasPrice": {
        "_hex": "0x45d964b800"
      },
      "gasLimit": {
        "_hex": "0x5208"
      },
      "to": "0xb891F05f7E7E5F3767E96bF020C5b49dbEC895C0",
      "value": {
        "_hex": "0x1158e460913d00000"
      },
      "nonce": 2,
      "data": "0x",
      "r": "0xfb8b7eec2d11568d8c24dcc2c020c477233d81124af79378bfe69eafd36e1fda",
      "s": "0x738630ed0f9e992e7355ddf76c69cf31efacf972e09f5c023a5cd338fd2305c3",
      "v": 28,
      "creates": null,
      "raw": "0xf86d028545d964b80082520894b891f05f7e7e5f3767e96bf020c5b49dbec895c08901158e460913d00000801ca0fb8b7eec2d11568d8c24dcc2c020c477233d81124af79378bfe69eafd36e1fdaa0738630ed0f9e992e7355ddf76c69cf31efacf972e09f5c023a5cd338fd2305c3",
      "networkId": 0,
      "chainId": 0
    }
  ]
}