{
  "hash": "0x1e9ef37c1c1009931f7e2e75c0e21693eefdb47ce1a627004f81e61352d11d74",
  "parentHash": "0x2e9cd137ca37d5c30c8062bbc66dbaf7a351c67743928126d3f64e74f7fee329",
  "number": 103350,
  "timestamp": 1439851828,
  "nonce": "0xfe6f639c33ea60c7",
  "difficulty": 4176704320580,
  "gasLimit": {
    "_hex": "0x2fefd8"
  },
  "gasUsed": {
    "_hex": "0x5208"
  },
  "miner": "0xe6A7a1d47ff21B6321162AEA7C6CB457D5476Bca",
  "extraData": "0x476574682f76312e302e312d38326566323666362f6c696e75782f676f312e34",
  "transactions": [
    {
      "hash": "0x0bb7488de942d14c83dca2a1efc8eda94fce2140c62267c2e2d4e691a51e6eff",
      "blockHash": "0x1e9ef37c1c1009931f7e2e75c0e21693eefdb47ce1a627004f81e61352d11d74",
      "blockNumber": 103350,
      "transactionIndex": 0,
      "confirmations": null,
      "from": "0x007f7f58D3eb5b7510A301eCC749FC1fCDDBE14D",
      "gasPrice": {
        "_hex": "0xe0cfe7246"
      },
      "gasLimit": {
        "_hex": "0x15f90"
      },
      "to": "0xb1abce2918E21ddb93AA452731a12672A3d9F75a",
      "value": {
        "_hex": "0x4563918244f40000"
      },
      "nonce": 224,
      "data": "0x",
      "r": "0xeeb104faa67d003feb9989a0af71f939efc6c5ecb7045e6e3a2975e97714d69f",
      "s": "0x572a29e8c2feda833967484e5296ea8e5a4e13c662d0b6a0b80e82d7cb3a61d6",
      "v": 28,
      "creates": null,
      "raw": "0xf86e81e0850e0cfe724683015f9094b1abce2918e21ddb93aa452731a12672a3d9f75a884563918244f40000801ca0eeb104faa67d003feb9989a0af71f939efc6c5ecb7045e6e3a2975e97714d69fa0572a29e8c2feda833967484e5296ea8e5a4e13c662d0b6a0b80e82d7cb3a61d6",
      "networkId": 0,
      "chainId": 0
    }
  ]
}