{
  "hash": "0xeaa1580a164a47fad3c012b816964da10635641d607d38d56dd7bc8e797f2918",
  "parentHash": "0x2dc873f45d85d0cf14552e0f976071b34f817b3fc0ad80f8bc0061adbd673733",
  "number": 80899,
  "timestamp": 1439492955,
  "nonce": "0x2840941ebf8672d8",
  "difficulty": 2441586516346,
  "gasLimit": {
    "_hex": "0x2fefd8"
  },
  "gasUsed": {
    "_hex": "0x5208"
  },
  "miner": "0xbb7B8287f3F0a933474a79eAe42CBCa977791171",
  "extraData": "0x476574682f4c5649562f76312e302e312f6c696e75782f676f312e342e32",
  "transactions": [
    {
      "hash": "0x51ae374349863d60ad0bea54974a53869d0e71ff8e2c63d01ca2c388a8fb9daf",
      "blockHash": "0xeaa1580a164a47fad3c012b816964da10635641d607d38d56dd7bc8e797f2918",
      "blockNumber": 80899,
      "transactionIndex": 0,
      "confirmations": null,
      "from": "0x16919885ae5b483cFFd18E00783c6352297bAFbA",
      "gasPrice": {
        "_hex": "0x746a528800"
      },
      "gasLimit": {
        "_hex": "0x5b04"
      },
      "to": "0x2910543Af39abA0Cd09dBb2D50200b3E800A63D2",
      "value": {
        "_hex": "0x6f05b59d3b20000"
      },
      "nonce": 1,
      "data": "0x",
      "r": "0x73a3bcc459bbc89a7122ed0349e9f979cf4a540877172cce7e07d00124e352e9",
      "s": "0xd049b6d1e1672018b585803b92517d8bea33a36be578a00ede59e7bc7359c5d6",
      "v": 27,
      "creates": null,
      "raw": "0xf86c0185746a528800825b04942910543af39aba0cd09dbb2d50200b3e800a63d28806f05b59d3b20000801ba073a3bcc459bbc89a7122ed0349e9f979cf4a540877172cce7e07d00124e352e9a0d049b6d1e1672018b585803b92517d8bea33a36be578a00ede59e7bc7359c5d6",
      "networkId": 0,
      "chainId": 0
    }
  ]
}