{
  "hash": "0x2ee403a45cd3a17b1a014e173d7bcee1e3271fb013730cdb121ad32c7e720fd6",
  "parentHash": "0x25300b6a8dd8270914815753a93e123647d363b900ef0a1e2611aced2fd704be",
  "number": 91728,
  "timestamp": 1439660552,
  "nonce": "0xc59a589f10aa8fd4",
  "difficulty": 3474188950853,
  "gasLimit": {
    "_hex": "0x2fefd8"
  },
  "gasUsed": {
    "_hex": "0xa410"
  },
  "miner": "0x57a5156876AA9d5bA611Db7871966a2a8c1D8f4e",
  "extraData": "0x476574682f76312e302e312d38326566323666362f6c696e75782f676f312e34",
  "transactions": [
    {
      "hash": "0xd4c88fc11057c40a07867be947feac8006ad4718c8bfa63838a388fd5d7dbb5e",
      "blockHash": "0x2ee403a45cd3a17b1a014e173d7bcee1e3271fb013730cdb121ad32c7e720fd6",
      "blockNumber": 91728,
      "transactionIndex": 0,
      "confirmations": null,
      "from": "0x32Be343B94f860124dC4fEe278FDCBD38C102D88",
      "gasPrice": {
        "_hex": "0xcd3361d3e"
      },
      "gasLimit": {
        "_hex": "0x5208"
      },
      "to": "0x30509a1DB862170Af8f96520c084C4698A8014Ab",
      "value": {
        "_hex": "0xdbd2fc137a30000"
      },
      "nonce": 886,
      "data": "0x",
      "r": "0x8a3eceba3fbd6e909c2d72c92212107aaaeef9187964014f730d14a45a8ca4a2",
      "s": "0x13456d760ca6c884e189a9b3674badaf2be177eaef8a27f9ea61d471f9e564f5",
      "v": 28,
      "creates": null,
      "raw": "0xf86e820376850cd3361d3e8252089430509a1db862170af8f96520c084c4698a8014ab880dbd2fc137a30000801ca08a3eceba3fbd6e909c2d72c92212107aaaeef9187964014f730d14a45a8ca4a2a013456d760ca6c884e189a9b3674badaf2be177eaef8a27f9ea61d471f9e564f5",
      "networkId": 0,
      "chainId": 0
    },
    {
      "hash": "0x7279f3b6256ad3dcf4076b91507978fe7aeb45adb9d590013be2a53b691de773",
      "blockHash": "0x2ee403a45cd3a17b1a014e173d7bcee1e3271fb013730cdb121ad32c7e720fd6",
      "blockNumber": 91728,
      "transactionIndex": 1,
      "confirmations": null,
      "from": "0x834e9B529AC9Fa63B39A06f8D8C9B0D6791FA5dF",
      "gasPrice": {
        "_hex": "0xcc55e521b"
      },
      "gasLimit": {
        "_hex": "0x186a0"
      },
      "to": "0x2F853817afd3B8F3B86E9F60ee77B5d97773c0e3",
      "value": {
        "_hex": "0xde0b6b3a7640000"
      },
      "nonce": 10,
      "data": "0x",
      "r": "0x56047bffb7d87a8b471593635be86eb62d3bbaa69957f300bd60b2a478bfd3d2",
      "s": "0x6d7b20cef7551eea7c54369b7056fdcfcd3a51a590a1e82c00ed5931305c11ad",
      "v": 27,
      "creates": null,
      "raw": "0xf86d0a850cc55e521b830186a0942f853817afd3b8f3b86e9f60ee77b5d97773c0e3880de0b6b3a7640000801ba056047bffb7d87a8b471593635be86eb62d3bbaa69957f300bd60b2a478bfd3d2a06d7b20cef7551eea7c54369b7056fdcfcd3a51a590a1e82c00ed5931305c11ad",
      "networkId": 0,
      "chainId": 0
    }
  ]
}