{
  "hash": "0x17099b616c6beb7f2a3e4f1ab6fe66860a7bb20fa86a20b75e6ce88c101ff5a0",
  "parentHash": "0x88466c051b9ffeaa6f644127dca533e17d63f3395e457b2b266128108a7882c3",
  "number": 85717,
  "timestamp": 1439567721,
  "nonce": "0x068b288052b50cf3",
  "difficulty": 2786778306322,
  "gasLimit": {
    "_hex": "0x2ff5d7"
  },
  "gasUsed": {
    "_hex": "0xa410"
  },
  "miner": "0x47ff6576639c2e94762eA5443978D7681C0E78DC",
  "extraData": "0x476574682f76312e302e312f6c696e75782f676f312e342e32",
  "transactions": [
    {
      "hash": "0x56711d85693384ce8a91e304baae7e8d34c39da1b0e5cc8884e94f5a2057b27f",
      "blockHash": "0x17099b616c6beb7f2a3e4f1ab6fe66860a7bb20fa86a20b75e6ce88c101ff5a0",
      "blockNumber": 85717,
      "transactionIndex": 0,
      "confirmations": null,
      "from": "0x663F37156fa35DBA128c9682f13D515b68002002",
      "gasPrice": {
        "_hex": "0xba43b7400"
      },
      "gasLimit": {
        "_hex": "0x5208"
      },
      "to": "0xC47Aaa860008be6f65B58c6C6E02a84e666EfE31",
      "value": {
        "_hex": "0x2707c629c3f906000"
      },
      "nonce": 1,
      "data": "0x",
      "r": "0x70c687d9fb360148047a7db4be60879371b7b6b6007c3fa8bb2fc4b15c159fed",
      "s": "0x1620de3b13589e75a6bbe23fcaf09f4a387cdb2ed4ae108020b028327da92967",
      "v": 27,
      "creates": null,
      "raw": "0xf86d01850ba43b740082520894c47aaa860008be6f65b58c6c6e02a84e666efe318902707c629c3f906000801ba070c687d9fb360148047a7db4be60879371b7b6b6007c3fa8bb2fc4b15c159feda01620de3b13589e75a6bbe23fcaf09f4a387cdb2ed4ae108020b028327da92967",
      "networkId": 0,
      "chainId": 0
    },
    {
      "hash": "0x5fc571f8f086a4d37a100af4cb3c8bb0c7f1132243d7d50ea5e05f216ad44bba",
      "blockHash": "0x17099b616c6beb7f2a3e4f1ab6fe66860a7bb20fa86a20b75e6ce88c101ff5a0",
      "blockNumber": 85717,
      "transactionIndex": 1,
      "confirmations": null,
      "from": "0x65d6F6040D1B3E8E8bFD5F70B46A2dB2ADBFca9a",
      "gasPrice": {
        "_hex": "0xba43b7400"
      },
      "gasLimit": {
        "_hex": "0x5208"
      },
      "to": "0xC47Aaa860008be6f65B58c6C6E02a84e666EfE31",
      "value": {
        "_hex": "0x257498b9b08a38f0"
      },
      "nonce": 2,
      "data": "0x",
      "r": "0x2e371647babc805fb928ecf8666f4653e43ae5052c7b62d71ad2834889caf1f2",
      "s": "0x7ead5a635387917475c1e76dc449490872af81650aa88c4a070e3c67de7059d0",
      "v": 27,
      "creates": null,
      "raw": "0xf86c02850ba43b740082520894c47aaa860008be6f65b58c6c6e02a84e666efe3188257498b9b08a38f0801ba02e371647babc805fb928ecf8666f4653e43ae5052c7b62d71ad2834889caf1f2a07ead5a635387917475c1e76dc449490872af81650aa88c4a070e3c67de7059d0",
      "networkId": 0,
      "chainId": 0
    }
  ]
}