{
  "hash": "0x77122ec8e44c82e9a7330bb653fef399218dd4c1fab132c884bd3df6a1de46b5",
  "parentHash": "0x8558820060584e6659a99766c4b66ca6656c2560c9c1cfa4d53d6a2207a54eb1",
  "number": 57664,
  "timestamp": 1439107348,
  "nonce": "0x00804f16215c02cb",
  "difficulty": 1735298698983,
  "gasLimit": {
    "_hex": "0x2fe3de"
  },
  "gasUsed": {
    "_hex": "0x546c"
  },
  "miner": "0xad5C1768e5974C231b2148169da064e61910f31a",
  "extraData": "0x476574682f76312e302e302f6c696e75782f676f312e342e32",
  "transactions": [
    {
      "hash": "0x53d2beb95a2227f28575ba7c9c5a7835aa80ff8ff75f97c5ddd7f1cea8aa68f1",
      "blockHash": "0x77122ec8e44c82e9a7330bb653fef399218dd4c1fab132c884bd3df6a1de46b5",
      "blockNumber": 57664,
      "transactionIndex": 0,
      "confirmations": null,
      "from": "0xF1DF55dcc34a051012B575cB968BC9C458EA09C9",
      "gasPrice": {
        "_hex": "0x110c8f7d8de"
      },
      "gasLimit": {
        "_hex": "0xc350"
      },
      "to": "0x2910543Af39abA0Cd09dBb2D50200b3E800A63D2",
      "value": {
        "_hex": "0x69b5afac750bb80000"
      },
      "nonce": 2,
      "data": "0x454e44375246435447",
      "r": "0x8d92a791b866a0d405557f0ef5f496af3432973a5b08ac214e92882fc9d0c79b",
      "s": "0xfd5ff3a3c3d11f46d0d11ef086ec2376dd1c38bd164137894fd434affbbcd806",
      "v": 27,
      "creates": null,
      "raw": "0xf87702860110c8f7d8de82c350942910543af39aba0cd09dbb2d50200b3e800a63d28969b5afac750bb8000089454e443752464354471ba08d92a791b866a0d405557f0ef5f496af3432973a5b08ac214e92882fc9d0c79ba0fd5ff3a3c3d11f46d0d11ef086ec2376dd1c38bd164137894fd434affbbcd806",
      "networkId": 0,
      "chainId": 0
    }
  ]
}