{
  "hash": "0xb5a001df43bc9704565ccc1c678ec8abb475368ee5af93d33065512e5d9f5fdb",
  "parentHash": "0x1bc40f26192fe5d68d9f92ab3e945bc97dee3054bf6dd92b1682fc20785725a5",
  "number": 58423,
  "timestamp": 1439120283,
  "nonce": "0x994692bf0b7f1eb4",
  "difficulty": 1719118629937,
  "gasLimit": {
    "_hex": "0x2fefd8"
  },
  "gasUsed": {
    "_hex": "0x5208"
  },
  "miner": "0xa50ec0D39fa913E62f1Bae7074E6F36caA71855b",
  "extraData": "0x",
  "transactions": [
    {
      "hash": "0x8da0b7f94628c5c3bb0a50332706bfba4cac13e41f1fc28fe63810dbf606a258",
      "blockHash": "0xb5a001df43bc9704565ccc1c678ec8abb475368ee5af93d33065512e5d9f5fdb",
      "blockNumber": 58423,
      "transactionIndex": 0,
      "confirmations": null,
      "from": "0xf64EE50154E0D74461966B4bB90139C010BCA68B",
      "gasPrice": {
        "_hex": "0xcb6cf43b5"
      },
      "gasLimit": {
        "_hex": "0x15f90"
      },
      "to": "0xc97b6E47df229442524F8f210926557900f81574",
      "value": {
        "_hex": "0x4563918244f40000"
      },
      "nonce": 4,
      "data": "0x",
      "r": "0x4f552e9d97c3c4420396fdceb31b3b84e5d40be1fea21e4b1fe911838bdf1718",
      "s": "0x794d9a308d4ea4980ddf1c413cf8c6f6a31e3931a058527e54b174efd43707c7",
      "v": 27,
      "creates": null,
      "raw": "0xf86d04850cb6cf43b583015f9094c97b6e47df229442524f8f210926557900f81574884563918244f40000801ba04f552e9d97c3c4420396fdceb31b3b84e5d40be1fea21e4b1fe911838bdf1718a0794d9a308d4ea4980ddf1c413cf8c6f6a31e3931a058527e54b174efd43707c7",
      "networkId": 0,
      "chainId": 0
    }
  ]
}