{
  "hash": "0x0e1870073b63c9fa0802d696bccf991fac8635c3d73e1f17f511aac085f439ec",
  "parentHash": "0x37ec6f0c5a582b6f978169757c911d29e984ec740823ab4257289d947bd323cc",
  "number": 119347,
  "timestamp": 1440141208,
  "nonce": "0x122ce411886f1bb0",
  "difficulty": 4405224795133,
  "gasLimit": {
    "_hex": "0x2fefd8"
  },
  "gasUsed": {
    "_hex": "0xa410"
  },
  "miner": "0x52bc44d5378309EE2abF1539BF71dE1b7d7bE3b5",
  "extraData": "0xd783010002844765746887676f312e342e32856c696e7578",
  "transactions": [
    {
      "hash": "0xcd7030dbb399f43a064772e82e625eb987961b2285c774f1912251d1ec3a168f",
      "blockHash": "0x0e1870073b63c9fa0802d696bccf991fac8635c3d73e1f17f511aac085f439ec",
      "blockNumber": 119347,
      "transactionIndex": 0,
      "confirmations": null,
      "from": "0xeCdf9d571849dE520c84eBEd7Ac4551e483eA5b3",
      "gasPrice": {
        "_hex": "0xba43b7400"
      },
      "gasLimit": {
        "_hex": "0x5208"
      },
      "to": "0x32Be343B94f860124dC4fEe278FDCBD38C102D88",
      "value": {
        "_hex": "0x1fce5c03635f2c00"
      },
      "nonce": 11,
      "data": "0x",
      "r": "0xdc5492920d0a443231ba7438d74d8d81256cb4309c353a28c86cc1eecebd740d",
      "s": "0x6c806b789de890efa34f9e331c8725e5cb4c9e5464d343e4eb7b67c674524939",
      "v": 27,
      "creates": null,
      "raw": "0xf86c0b850ba43b74008252089432be343b94f860124dc4fee278fdcbd38c102d88881fce5c03635f2c00801ba0dc5492920d0a443231ba7438d74d8d81256cb4309c353a28c86cc1eecebd740da06c806b789de890efa34f9e331c8725e5cb4c9e5464d343e4eb7b67c674524939",
      "networkId": 0,
      "chainId": 0
    },
    {
      "hash": "0x7fc5c23fd5f87f125cb141b699781489e2f8d55139ee933bcdb191040b321252",
      "blockHash": "0x0e1870073b63c9fa0802d696bccf991fac8635c3d73e1f17f511aac085f439ec",
      "blockNumber": 119347,
      "transactionIndex": 1,
      "confirmations": null,
      "from": "0xe6A7a1d47ff21B6321162AEA7C6CB457D5476Bca",
      "gasPrice": {
        "_hex": "0xba43b7400"
      },
      "gasLimit": {
        "_hex": "0x55f0"
      },
      "to": "0xB415e74b9b5B2058EF3541265aaF7ce09C4953bc",
      "value": {
        "_hex": "0x5e19762b8dfcd9f0"
      },
      "nonce": 6191,
      "data": "0x",
      "r": "0x8a6bdb7a657b92199c1336ac0422eb3484cd23fb39dd9a3368893df976fe17ee",
      "s": "0x1f2fe869dd9ea2bb9320f3ec24f7d57b678d3986bba2b56696720c30709d3c18",
      "v": 27,
      "creates": null,
      "raw": "0xf86e82182f850ba43b74008255f094b415e74b9b5b2058ef3541265aaf7ce09c4953bc885e19762b8dfcd9f0801ba08a6bdb7a657b92199c1336ac0422eb3484cd23fb39dd9a3368893df976fe17eea01f2fe869dd9ea2bb9320f3ec24f7d57b678d3986bba2b56696720c30709d3c18",
      "networkId": 0,
      "chainId": 0
    }
  ]
}