{
  "hash": "0x7cfd1ad2e784fee63a6b523ee3fc64d28128fe7322b6ebcb0b812241f29e79b5",
  "parentHash": "0x6fdc7f71fe996ce65fbb230c2c406ca789e84193e60cb275c596f5814bea9868",
  "number": 48968,
  "timestamp": 1438965741,
  "nonce": "0x2e5e939b06c0f8e6",
  "difficulty": 1484368795793,
  "gasLimit": {
    "_hex": "0x22286"
  },
  "gasUsed": {
    "_hex": "0x5208"
  },
  "miner": "0xbb7B8287f3F0a933474a79eAe42CBCa977791171",
  "extraData": "0x476574682f4c5649562f76312e302e312f6c696e75782f676f312e342e32",
  "transactions": [
    {
      "hash": "0xd149d6a125c0136194e6f0da34e4fccc3ff349e6a83e98d1bd92d2ff2721a45e",
      "blockHash": "0x7cfd1ad2e784fee63a6b523ee3fc64d28128fe7322b6ebcb0b812241f29e79b5",
      "blockNumber": 48968,
      "transactionIndex": 0,
      "confirmations": null,
      "from": "0x47ff6576639c2e94762eA5443978D7681C0E78DC",
      "gasPrice": {
        "_hex": "0xd22ce015e"
      },
      "gasLimit": {
        "_hex": "0x5208"
      },
      "to": "0xeD17Ea8E9fd42159037deE95ea173a56c54f55ce",
      "value": {
        "_hex": "0x5f68e8131ecf80000"
      },
      "nonce": 2,
      "data": "0x",
      "r": "0xabd38d56a6be3fe6cb2aaa8ce61e577415dfb5d3f695ef31e5d6cc1fa4b904bb",
      "s": "0x0a28f172271ed3a8e2e8995cfca16d52aa2fc543fb7f919438369e961864985a",
      "v": 28,
      "creates": null,
      "raw": "0xf86d02850d22ce015e82520894ed17ea8e9fd42159037dee95ea173a56c54f55ce8905f68e8131ecf80000801ca0abd38d56a6be3fe6cb2aaa8ce61e577415dfb5d3f695ef31e5d6cc1fa4b904bba00a28f172271ed3a8e2e8995cfca16d52aa2fc543fb7f919438369e961864985a",
      "networkId": 0,
      "chainId": 0
    }
  ]
}