{
  "hash": "0xe5acf1301a842024454b1b956af967e9c4033bf8cd37bcae7c0b296aa3a00f38",
  "parentHash": "0x6be9def791a6b5d97a5f3187b5966220b41962f043ede1d4755c5879c95c0d1f",
  "number": 75845,
  "timestamp": 1439410338,
  "nonce": "0xc42188d266fb4396",
  "difficulty": 2228778419009,
  "gasLimit": {
    "_hex": "0x2fefd8"
  },
  "gasUsed": {
    "_hex": "0xad77"
  },
  "miner": "0xeB1325C8D9d3ea8D74aC11F4B00F1B2367686319",
  "extraData": "0x476574682f76312e302e312f77696e646f77732f676f312e342e32",
  "transactions": [
    {
      "hash": "0xa93c325d74715e34b4d5a40b952aeec4dcd2d5debc3ad6964274655e0e8d0eed",
      "blockHash": "0xe5acf1301a842024454b1b956af967e9c4033bf8cd37bcae7c0b296aa3a00f38",
      "blockNumber": 75845,
      "transactionIndex": 0,
      "confirmations": null,
      "from": "0x87C5B5874A18B4306DF8a752a6C8cc3E82daFc19",
      "gasPrice": {
        "_hex": "0x10a67cee47a"
      },
      "gasLimit": {
        "_hex": "0x493e0"
      },
      "to": "0xD79B4C6791784184e2755B2fC1659eaaB0f80456",
      "value": {
        "_hex": "0x0"
      },
      "nonce": 68,
      "data": "0x03750d940000000000000000000000009724ac4dc56e03379eba5d157d1513ecc32cbd8f6666616135653161366266633333363300000000000000000000000000000000",
      "r": "0x226b7b9be15f9cc398e70b0d1027c33c6e306a6d2003e55ccd5b69fd26c26b4d",
      "s": "0x02ee91fc15113b18b3d24254cb2eba1022733b31a6a1c10bd4ee456e98534938",
      "v": 27,
      "creates": null,
      "raw": "0xf8ab4486010a67cee47a830493e094d79b4c6791784184e2755b2fc1659eaab0f8045680b84403750d940000000000000000000000009724ac4dc56e03379eba5d157d1513ecc32cbd8f66666161356531613662666333333633000000000000000000000000000000001ba0226b7b9be15f9cc398e70b0d1027c33c6e306a6d2003e55ccd5b69fd26c26b4da002ee91fc15113b18b3d24254cb2eba1022733b31a6a1c10bd4ee456e98534938",
      "networkId": 0,
      "chainId": 0
    }
  ]
}