{
  "hash": "0xc3623f63fbccb9b5d58a0c54bab1cc1563fa89e90b173e666c9932d1e5bb1e4f",
  "parentHash": "0xc69887df7765ae239c7f1b793579f6a33de424440962dc8de4d102a438dc1766",
  "number": 122255,
  "timestamp": 1440190933,
  "nonce": "0xf14e234b6105e006",
  "difficulty": 4464318206375,
  "gasLimit": {
    "_hex": "0x2fefd8"
  },
  "gasUsed": {
    "_hex": "0x14820"
  },
  "miner": "0x52bc44d5378309EE2abF1539BF71dE1b7d7bE3b5",
  "extraData": "0xd783010002844765746887676f312e342e32856c696e7578",
  "transactions": [
    {
      "hash": "0x17da5c3c122d325fa52d3927a12392aacefcee7ef00b26d603ab3779e19d25eb",
      "blockHash": "0xc3623f63fbccb9b5d58a0c54bab1cc1563fa89e90b173e666c9932d1e5bb1e4f",
      "blockNumber": 122255,
      "transactionIndex": 0,
      "confirmations": null,
      "from": "0xa61ff394e3846F8bfbBF8801afb051730B04Ee75",
      "gasPrice": {
        "_hex": "0xdbd9f8497"
      },
      "gasLimit": {
        "_hex": "0x5208"
      },
      "to": "0x32Be343B94f860124dC4fEe278FDCBD38C102D88",
      "value": {
        "_hex": "0x455f29ef7e741800"
      },
      "nonce": 27,
      "data": "0x",
      "r": "0x403997e2cdc1a118f2dfc87db70fa3a4c8930703342d5f7393f15f8c047bbc51",
      "s": "0x1d029af386bdd13fa3492f61a476274bfaf5c79b8040b7d84acc313817787a56",
      "v": 28,
      "creates": null,
      "raw": "0xf86c1b850dbd9f84978252089432be343b94f860124dc4fee278fdcbd38c102d8888455f29ef7e741800801ca0403997e2cdc1a118f2dfc87db70fa3a4c8930703342d5f7393f15f8c047bbc51a01d029af386bdd13fa3492f61a476274bfaf5c79b8040b7d84acc313817787a56",
      "networkId": 0,
      "chainId": 0
    },
    {
      "hash": "0x6bba2732c8e19ce550cb3a782eeb5e023682ee15a74424ba9f8e3febde507185",
      "blockHash": "0xc3623f63fbccb9b5d58a0c54bab1cc1563fa89e90b173e666c9932d1e5bb1e4f",
      "blockNumber": 122255,
      "transactionIndex": 1,
      "confirmations": null,
      "from": "0x608f4b86321a68453f9adf6F06F7Fc3E621739ad",
      "gasPrice": {
        "_hex": "0xdbd9f8497"
      },
      "gasLimit": {
        "_hex": "0x5208"
      },
      "to": "0x32Be343B94f860124dC4fEe278FDCBD38C102D88",
      "value": {
        "_hex": "0x455f2a58448b2c00"
      },
      "nonce": 126,
      "data": "0x",
      "r": "0x296b65f45c6315e671a51e3df27e7d1e957d7141c9f1192db859c9ac2e83b3d9",
      "s": "0x5ada0801807477d57439d09077daa0eedc4ae04825617287d54f65d58afe7b80",
      "v": 28,
      "creates": null,
      "raw": "0xf86c7e850dbd9f84978252089432be343b94f860124dc4fee278fdcbd38c102d8888455f2a58448b2c00801ca0296b65f45c6315e671a51e3df27e7d1e957d7141c9f1192db859c9ac2e83b3d9a05ada0801807477d57439d09077daa0eedc4ae04825617287d54f65d58afe7b80",
      "networkId": 0,
      "chainId": 0
    },
    {
      "hash": "0x37712c1b1a5e520547bcfbe1d38078912a8eb7a4728159a7f5a2144e494a72ad",
      "blockHash": "0xc3623f63fbccb9b5d58a0c54bab1cc1563fa89e90b173e666c9932d1e5bb1e4f",
      "blockNumber": 122255,
      "transactionIndex": 2,
      "confirmations": null,
      "from": "0x2910543Af39abA0Cd09dBb2D50200b3E800A63D2",
      "gasPrice": {
        "_hex": "0xdb2daae4a"
      },
      "gasLimit": {
        "_hex": "0x5208"
      },
      "to": "0xFFf1471A813EaF20Ade11C3d58E3a64157216587",
      "value": {
        "_hex": "0x22b0ac898efbf8000"
      },
      "nonce": 1223,
      "data": "0x",
      "r": "0xcb1881293ae2f0ef34f8beb80d03139bf29a7a9d3dcc3892025d5964e3627b60",
      "s": "0x4b6db4f716bb7064c62bce8b82bc24a19b1c10a24334b148ba4e77932b089d16",
      "v": 27,
      "creates": null,
      "raw": "0xf86f8204c7850db2daae4a82520894fff1471a813eaf20ade11c3d58e3a6415721658789022b0ac898efbf8000801ba0cb1881293ae2f0ef34f8beb80d03139bf29a7a9d3dcc3892025d5964e3627b60a04b6db4f716bb7064c62bce8b82bc24a19b1c10a24334b148ba4e77932b089d16",
      "networkId": 0,
      "chainId": 0
    },
    {
      "hash": "0x14f7ad4de7b29e1d4ae5ea665c3248e3d1df5a52829f8560a410866699f31b8a",
      "blockHash": "0xc3623f63fbccb9b5d58a0c54bab1cc1563fa89e90b173e666c9932d1e5bb1e4f",
      "blockNumber": 122255,
      "transactionIndex": 3,
      "confirmations": null,
      "from": "0x007f7f58D3eb5b7510A301eCC749FC1fCDDBE14D",
      "gasPrice": {
        "_hex": "0xba43b7400"
      },
      "gasLimit": {
        "_hex": "0x15f90"
      },
      "to": "0xb1abce2918E21ddb93AA452731a12672A3d9F75a",
      "value": {
        "_hex": "0x4563918244f40000"
      },
      "nonce": 391,
      "data": "0x",
      "r": "0xcd7bc6ef5eb9ab81a0213ac7f09310c71fd333f41d9c835b5fff7652de699c68",
      "s": "0x6bd9d670a7cb2a284239233c5edb912fe733664317a616c52e3b9f23a3e27bc4",
      "v": 28,
      "creates": null,
      "raw": "0xf86f820187850ba43b740083015f9094b1abce2918e21ddb93aa452731a12672a3d9f75a884563918244f40000801ca0cd7bc6ef5eb9ab81a0213ac7f09310c71fd333f41d9c835b5fff7652de699c68a06bd9d670a7cb2a284239233c5edb912fe733664317a616c52e3b9f23a3e27bc4",
      "networkId": 0,
      "chainId": 0
    }
  ]
}