{
  "hash": "0x4b360c044038d384a7e75e2f0678543646d8e2277a319d27b8f2736362157425",
  "parentHash": "0xbec8d62c21b1cf1f7262fe87dadc5dbd22112c932b65794465376dcb69c05176",
  "number": 100838,
  "timestamp": 1439813144,
  "nonce": "0xd82a74e8ef61f377",
  "difficulty": 3852673239813,
  "gasLimit": {
    "_hex": "0x2fefd8"
  },
  "gasUsed": {
    "_hex": "0x5208"
  },
  "miner": "0xe6A7a1d47ff21B6321162AEA7C6CB457D5476Bca",
  "extraData": "0x476574682f76312e302e312d38326566323666362f6c696e75782f676f312e34",
  "transactions": [
    {
      "hash": "0x0be0f7bcf61c5d8ab53bf56e686c9d051119f4b8f6c503751f233b09a1e5e6b2",
      "blockHash": "0x4b360c044038d384a7e75e2f0678543646d8e2277a319d27b8f2736362157425",
      "blockNumber": 100838,
      "transactionIndex": 0,
      "confirmations": null,
      "from": "0x468569500925D53e06Dd0993014aD166fD7Dd381",
      "gasPrice": {
        "_hex": "0xdd6d40f00"
      },
      "gasLimit": {
        "_hex": "0x5208"
      },
      "to": "0x32Be343B94f860124dC4fEe278FDCBD38C102D88",
      "value": {
        "_hex": "0x21587aced7879c00"
      },
      "nonce": 5,
      "data": "0x",
      "r": "0xbb98963b27a7590431f2a1a336f30ca21bfec5ee3c574ed02e7b90ba05b04447",
      "s": "0x768d25d31116ecefd0ba16dc2a7c919ddbc38b37a0477e3b4f345fac4eb54c2b",
      "v": 27,
      "creates": null,
      "raw": "0xf86c05850dd6d40f008252089432be343b94f860124dc4fee278fdcbd38c102d888821587aced7879c00801ba0bb98963b27a7590431f2a1a336f30ca21bfec5ee3c574ed02e7b90ba05b04447a0768d25d31116ecefd0ba16dc2a7c919ddbc38b37a0477e3b4f345fac4eb54c2b",
      "networkId": 0,
      "chainId": 0
    }
  ]
}