{
  "hash": "0xcad59cc5c4258caf657f503e334bd1b11b37f54e6eb716fe51bfaeda8f846eaa",
  "parentHash": "0x2a82bc15a40d09eab79da2110212f51e2568d15592fbbecbbf7ba0494ce8513f",
  "number": 54520,
  "timestamp": 1439055423,
  "nonce": "0x19b5f3aa93dd2f5d",
  "difficulty": 1619663498095,
  "gasLimit": {
    "_hex": "0x2fefd8"
  },
  "gasUsed": {
    "_hex": "0x1b3fc"
  },
  "miner": "0x9746c7e1ef2bd21FF3997fa467593a89cb852BD0",
  "extraData": "0x476574682f76312e302e312f77696e646f77732f676f312e342e32",
  "transactions": [
    {
      "hash": "0x643f6ce15dec585de8b85d44f60e915ac74112391bcfa4524d1f9a649319be25",
      "blockHash": "0xcad59cc5c4258caf657f503e334bd1b11b37f54e6eb716fe51bfaeda8f846eaa",
      "blockNumber": 54520,
      "transactionIndex": 0,
      "confirmations": null,
      "from": "0x5Cc7D3066d45d27621F78bB4b339473e442a860F",
      "gasPrice": {
        "_hex": "0x110c8f7d8de"
      },
      "gasLimit": {
        "_hex": "0xc350"
      },
      "to": "0x2910543Af39abA0Cd09dBb2D50200b3E800A63D2",
      "value": {
        "_hex": "0x3627e8f712373c0000"
      },
      "nonce": 1,
      "data": "0x454e46474433454d47",
      "r": "0x61b28f2baa424da492f174d36d64bc2666adc2d5659df5ef5d385a96ea383784",
      "s": "0xe5a2adbf469219e3a1d8ad3b20e8f79804a2581753e23934b50afb9dcc2fe4bd",
      "v": 28,
      "creates": null,
      "raw": "0xf87701860110c8f7d8de82c350942910543af39aba0cd09dbb2d50200b3e800a63d2893627e8f712373c000089454e46474433454d471ca061b28f2baa424da492f174d36d64bc2666adc2d5659df5ef5d385a96ea383784a0e5a2adbf469219e3a1d8ad3b20e8f79804a2581753e23934b50afb9dcc2fe4bd",
      "networkId": 0,
      "chainId": 0
    },
    {
      "hash": "0x2b698369dcba807cffbda707d842dfddd7c599277199990b31be537c08fd136d",
      "blockHash": "0xcad59cc5c4258caf657f503e334bd1b11b37f54e6eb716fe51bfaeda8f846eaa",
      "blockNumber": 54520,
      "transactionIndex": 1,
      "confirmations": null,
      "from": "0xC151A0473225AE2768CF864F30ef38AC4b36C06C",
      "gasPrice": {
        "_hex": "0xce86c9ea7"
      },
      "gasLimit": {
        "_hex": "0x15f90"
      },
      "to": "0xBAA54d6E90c3F4d7Ebec11bD180134C7eD8eBb52",
      "value": {
        "_hex": "0x16345785d8a0000"
      },
      "nonce": 4,
      "data": "0x",
      "r": "0x85dcdb23c17410e840190f9d503b7c4973552c8f3257e233e474e4129212be2b",
      "s": "0x7fe9bf62ccd4ae6f6601ff447e94d8040f9e241d15686991227d4ca2606e889b",
      "v": 28,
      "creates": null,
      "raw": "0xf86d04850ce86c9ea783015f9094baa54d6e90c3f4d7ebec11bd180134c7ed8ebb5288016345785d8a0000801ca085dcdb23c17410e840190f9d503b7c4973552c8f3257e233e474e4129212be2ba07fe9bf62ccd4ae6f6601ff447e94d8040f9e241d15686991227d4ca2606e889b",
      "networkId": 0,
      "chainId": 0
    }
  ]
}