{
  "hash": "0x3d42716a9d611aac6f58b25aac94eea6aac8cb69f3d726b61031f73fbe078cb9",
  "parentHash": "0x3f50aae64d9d745017129f47bb750f6754e673a6bc96e04b762f2cfa644245bf",
  "number": 87613,
  "timestamp": 1439594883,
  "nonce": "0xb2fa4c90bdaa8136",
  "difficulty": 3160204533637,
  "gasLimit": {
    "_hex": "0x2fefd8"
  },
  "gasUsed": {
    "_hex": "0x5208"
  },
  "miner": "0xe6A7a1d47ff21B6321162AEA7C6CB457D5476Bca",
  "extraData": "0x476574682f76312e302e312d38326566323666362f6c696e75782f676f312e34",
  "transactions": [
    {
      "hash": "0x986e19be21e88d99024e5ee3bf89ba76eca3eeb95464818394184c21d5e50de3",
      "blockHash": "0x3d42716a9d611aac6f58b25aac94eea6aac8cb69f3d726b61031f73fbe078cb9",
      "blockNumber": 87613,
      "transactionIndex": 0,
      "confirmations": null,
      "from": "0x32Be343B94f860124dC4fEe278FDCBD38C102D88",
      "gasPrice": {
        "_hex": "0xd890eabaa"
      },
      "gasLimit": {
        "_hex": "0x5208"
      },
      "to": "0xb9F74FA1156092e37E3baFc85A8b57469f1AdddE",
      "value": {
        "_hex": "0x5885d5c52834d400"
      },
      "nonce": 790,
      "data": "0x",
      "r": "0xb8c3598fb42b0c7e845df900acf5e783006d4eb3b3ceca45840a63b7a248b488",
      "s": "0x4adc387671bbd6e114f25447f4391e3bea140a2765e09ec29b09f6340c3205f6",
      "v": 27,
      "creates": null,
      "raw": "0xf86e820316850d890eabaa82520894b9f74fa1156092e37e3bafc85a8b57469f1addde885885d5c52834d400801ba0b8c3598fb42b0c7e845df900acf5e783006d4eb3b3ceca45840a63b7a248b488a04adc387671bbd6e114f25447f4391e3bea140a2765e09ec29b09f6340c3205f6",
      "networkId": 0,
      "chainId": 0
    }
  ]
}