{
  "hash": "0x4c9b7b2d0e6a74e43ba36d18c06dfcfaab74db5dbea34ac0a53ea4c6ecee429e",
  "parentHash": "0x21ff4baf2e9d2d2c77ac333a6b175ea82896d143574e8c5c4467b833c965d08d",
  "number": 121271,
  "timestamp": 1440174368,
  "nonce": "0x5f59651a6bee2dc8",
  "difficulty": 4399915642680,
  "gasLimit": {
    "_hex": "0x2fefd8"
  },
  "gasUsed": {
    "_hex": "0x5208"
  },
  "miner": "0x6541237dAaFf6688A79f9F2F370Ca0E7Ee20BD33",
  "extraData": "0x",
  "transactions": [
    {
      "hash": "0xbc5d975568d54ecf7b4a201f8c9de1c1cd4374ea9861dc71e018537cd6bac35f",
      "blockHash": "0x4c9b7b2d0e6a74e43ba36d18c06dfcfaab74db5dbea34ac0a53ea4c6ecee429e",
      "blockNumber": 121271,
      "transactionIndex": 0,
      "confirmations": null,
      "from": "0x120A270bbC009644e35F0bB6ab13f95b8199c4ad",
      "gasPrice": {
        "_hex": "0xba43b7400"
      },
      "gasLimit": {
        "_hex": "0x3d090"
      },
      "to": "0x8d304933a1F93F268bFDcFF9FFE6846a75167279",
      "value": {
        "_hex": "0x3a01e1d65e6d400"
      },
      "nonce": 968,
      "data": "0x",
      "r": "0xc4adbb0e30c6cbc0e452381a1f024b0960d45fa1acd7c8a87697ca8e8bd7d226",
      "s": "0x46b0cc7477ed8d5b984bda6e111193de3fb2f461324688930c481e55468b1d85",
      "v": 27,
      "creates": null,
      "raw": "0xf86f8203c8850ba43b74008303d090948d304933a1f93f268bfdcff9ffe6846a751672798803a01e1d65e6d400801ba0c4adbb0e30c6cbc0e452381a1f024b0960d45fa1acd7c8a87697ca8e8bd7d226a046b0cc7477ed8d5b984bda6e111193de3fb2f461324688930c481e55468b1d85",
      "networkId": 0,
      "chainId": 0
    }
  ]
}