{
  "hash": "0x5f1be67ddce18d606e329a079e8e0a6d0215b377fb3736ea41d6fbbd2bbbd15d",
  "parentHash": "0x4ce76c215533e44bba76d9872ed0c10225ca9dfaf87bb9295f41f58c50606e8a",
  "number": 104814,
  "timestamp": 1439876259,
  "nonce": "0x85fb5472f26df345",
  "difficulty": 4346570045336,
  "gasLimit": {
    "_hex": "0x2fefd8"
  },
  "gasUsed": {
    "_hex": "0x5208"
  },
  "miner": "0xf927a40C8B7F6E07c5af7FA2155B4864a4112B13",
  "extraData": "0x",
  "transactions": [
    {
      "hash": "0x2ae171a13f9923ab1905b10dacb4b805fdf7cb294d54000460536dc6ab4d21db",
      "blockHash": "0x5f1be67ddce18d606e329a079e8e0a6d0215b377fb3736ea41d6fbbd2bbbd15d",
      "blockNumber": 104814,
      "transactionIndex": 0,
      "confirmations": null,
      "from": "0x0D4EcC7d750180EBf4A9Df728B6669B5Bceb5E40",
      "gasPrice": {
        "_hex": "0xdbd46abdb"
      },
      "gasLimit": {
        "_hex": "0x5208"
      },
      "to": "0x32Be343B94f860124dC4fEe278FDCBD38C102D88",
      "value": {
        "_hex": "0x455f2a743519dc00"
      },
      "nonce": 74,
      "data": "0x",
      "r": "0x6fd992b49db4f70df91bfb6d7fd329d948eedaec011bd79c7bf9d03d3bbd6449",
      "s": "0x2e8a75218fc7c4b7b8631dfd432f20a336cb2fac2b200cc1abb0fadc4a1139d8",
      "v": 28,
      "creates": null,
      "raw": "0xf86c4a850dbd46abdb8252089432be343b94f860124dc4fee278fdcbd38c102d8888455f2a743519dc00801ca06fd992b49db4f70df91bfb6d7fd329d948eedaec011bd79c7bf9d03d3bbd6449a02e8a75218fc7c4b7b8631dfd432f20a336cb2fac2b200cc1abb0fadc4a1139d8",
      "networkId": 0,
      "chainId": 0
    }
  ]
}