{
  "hash": "0x24b05fb4327d398ca483f423a746d56ebb385c5ea4580a1c29392fcabbaa4511",
  "parentHash": "0x026be2a0791b3fa8a891bbf2012697f84ca7ef3a5b54c859f7f26c921fc0c2a4",
  "number": 112725,
  "timestamp": 1440012043,
  "nonce": "0x160a2f9d0096cd50",
  "difficulty": 4438944539909,
  "gasLimit": {
    "_hex": "0x2fefd8"
  },
  "gasUsed": {
    "_hex": "0xa410"
  },
  "miner": "0xe6A7a1d47ff21B6321162AEA7C6CB457D5476Bca",
  "extraData": "0x476574682f76312e302e312d38326566323666362f6c696e75782f676f312e34",
  "transactions": [
    {
      "hash": "0xa5bbce5eb3a700b1756a1acaf6c63fcb92c0384a5a905d3f4327f6d44ac87ab9",
      "blockHash": "0x24b05fb4327d398ca483f423a746d56ebb385c5ea4580a1c29392fcabbaa4511",
      "blockNumber": 112725,
      "transactionIndex": 0,
      "confirmations": null,
      "from": "0xBFdD9820a04283b289957956353b5F3C1F665EcF",
      "gasPrice": {
        "_hex": "0xcd63fdc9c"
      },
      "gasLimit": {
        "_hex": "0x5208"
      },
      "to": "0x32Be343B94f860124dC4fEe278FDCBD38C102D88",
      "value": {
        "_hex": "0x800cf158bcaa5800"
      },
      "nonce": 49,
      "data": "0x",
      "r": "0x44225077c6122bfc5aa24b142372607eadadf5b33032dc5af23f6a68271952b5",
      "s": "0x59d93beed1c02a556d3f477edacc8f740b8deeeeaec3beaaca5db4b629d3241e",
      "v": 27,
      "creates": null,
      "raw": "0xf86c31850cd63fdc9c8252089432be343b94f860124dc4fee278fdcbd38c102d8888800cf158bcaa5800801ba044225077c6122bfc5aa24b142372607eadadf5b33032dc5af23f6a68271952b5a059d93beed1c02a556d3f477edacc8f740b8deeeeaec3beaaca5db4b629d3241e",
      "networkId": 0,
      "chainId": 0
    },
    {
      "hash": "0x9ea75e21381f68d69fcb3a4ed0c0ca8648de553b3147ced549634951c268a4e3",
      "blockHash": "0x24b05fb4327d398ca483f423a746d56ebb385c5ea4580a1c29392fcabbaa4511",
      "blockNumber": 112725,
      "transactionIndex": 1,
      "confirmations": null,
      "from": "0x097738363B1662599ad0777E19461601F5EC8dF9",
      "gasPrice": {
        "_hex": "0xcd63fdc9c"
      },
      "gasLimit": {
        "_hex": "0x5208"
      },
      "to": "0x32Be343B94f860124dC4fEe278FDCBD38C102D88",
      "value": {
        "_hex": "0x3986dd87f9f498000"
      },
      "nonce": 23,
      "data": "0x",
      "r": "0x45a2061fc77ffeb95cdd30c58c445fa855ea83f54a8b2b43c9e5b837df6fac81",
      "s": "0x7620226de17d3d70841004877d13dd87c6cfe86ae0c1562123011d4569d352a4",
      "v": 27,
      "creates": null,
      "raw": "0xf86d17850cd63fdc9c8252089432be343b94f860124dc4fee278fdcbd38c102d888903986dd87f9f498000801ba045a2061fc77ffeb95cdd30c58c445fa855ea83f54a8b2b43c9e5b837df6fac81a07620226de17d3d70841004877d13dd87c6cfe86ae0c1562123011d4569d352a4",
      "networkId": 0,
      "chainId": 0
    }
  ]
}