{
  "hash": "0xbfb9bd8217a234cffda3d19660e6e128e560a305a1a70258f95be3023c22b61e",
  "parentHash": "0xd1727f161019067fb1aa04de5dd283d5ab1a00d7df1330d7bff9118a93ba7cf9",
  "number": 64632,
  "timestamp": 1439223889,
  "nonce": "0x9df590a27d5a4dd8",
  "difficulty": 1889451198472,
  "gasLimit": {
    "_hex": "0x2fefd8"
  },
  "gasUsed": {
    "_hex": "0x546c"
  },
  "miner": "0x88D74a59454F6cF3B51ef6b9136AFb6b9D405A88",
  "extraData": "0x476574682f76312e302e312d37666266393930632f6c696e75782f676f312e34",
  "transactions": [
    {
      "hash": "0xfe5952c8e74b2ac4b6f9f924ec339f2cb212a136b6065e8938ed6f0c35d64ce9",
      "blockHash": "0xbfb9bd8217a234cffda3d19660e6e128e560a305a1a70258f95be3023c22b61e",
      "blockNumber": 64632,
      "transactionIndex": 0,
      "confirmations": null,
      "from": "0x157c6f2431eB1a95797EE86F7d17b3c0FD47A247",
      "gasPrice": {
        "_hex": "0xe01157132"
      },
      "gasLimit": {
        "_hex": "0x15f90"
      },
      "to": "0xc0b9d23f8d37650D0141B559dbD33d94Ea004e07",
      "value": {
        "_hex": "0x929589c9981040000"
      },
      "nonce": 4,
      "data": "0x454e433933464b3330",
      "r": "0x1472366240912183ff4c83215016d9b2249f193af82254540e9048831447e8cb",
      "s": "0x11d4cbb188c2cf5051dac7d3c7db56f4048af7ee695a6e99c04539d0df4e64df",
      "v": 27,
      "creates": null,
      "raw": "0xf87704850e0115713283015f9094c0b9d23f8d37650d0141b559dbd33d94ea004e07890929589c998104000089454e433933464b33301ba01472366240912183ff4c83215016d9b2249f193af82254540e9048831447e8cba011d4cbb188c2cf5051dac7d3c7db56f4048af7ee695a6e99c04539d0df4e64df",
      "networkId": 0,
      "chainId": 0
    }
  ]
}