{
  "hash": "0x2b72c941e7fb5fecde220b79bd5a052e6009f4b8cb0e464a8eaf1db3f03f440c",
  "parentHash": "0xea7ddd686321f4ed8ab8bea33c69e50957c539476f6d30cbc0dd4c0f1b049cc2",
  "number": 70573,
  "timestamp": 1439321908,
  "nonce": "0x839043ab7684eeb4",
  "difficulty": 2144742738126,
  "gasLimit": {
    "_hex": "0x2fefd8"
  },
  "gasUsed": {
    "_hex": "0x5208"
  },
  "miner": "0xA2Cb067D1B3038eEe446d994440C0ae9cf1abfdF",
  "extraData": "0x476574682f76312e302e312f77696e646f77732f676f312e342e32",
  "transactions": [
    {
      "hash": "0xc4363812d7ca5c0e9434ec992aea668993198aac56edafda3236fda8b3add89e",
      "blockHash": "0x2b72c941e7fb5fecde220b79bd5a052e6009f4b8cb0e464a8eaf1db3f03f440c",
      "blockNumber": 70573,
      "transactionIndex": 0,
      "confirmations": null,
      "from": "0x3f7DB8eC644A6DC4Aa6904bC4F2561F697374CCb",
      "gasPrice": {
        "_hex": "0xd02ddef65"
      },
      "gasLimit": {
        "_hex": "0x5208"
      },
      "to": "0x32Be343B94f860124dC4fEe278FDCBD38C102D88",
      "value": {
        "_hex": "0x71e52577a7aa180000"
      },
      "nonce": 0,
      "data": "0x",
      "r": "0xd5afc4004826bd33063165b88b9cc02ec4a4232ac5b27e9967ec9a81af223778",
      "s": "0x515f93a9fadf05d6764cbd93b93621eb27944bfdb5381ee4ef12376db803fe91",
      "v": 28,
      "creates": null,
      "raw": "0xf86d80850d02ddef658252089432be343b94f860124dc4fee278fdcbd38c102d888971e52577a7aa180000801ca0d5afc4004826bd33063165b88b9cc02ec4a4232ac5b27e9967ec9a81af223778a0515f93a9fadf05d6764cbd93b93621eb27944bfdb5381ee4ef12376db803fe91",
      "networkId": 0,
      "chainId": 0
    }
  ]
}