{
  "hash": "0xb2bf4aa6ab70cd3b85ad692d3e895f98db50c3ed5f6d6b0e34ab3bdb26e63581",
  "parentHash": "0xef0fbdbb7e21510cf93e0e7277f99a7c5c7b429a71106fbd34d641ac23d6c2e8",
  "number": 47493,
  "timestamp": 1438941488,
  "nonce": "0x63d657559209caf4",
  "difficulty": 1445289997034,
  "gasLimit": {
    "_hex": "0xc61d"
  },
  "gasUsed": {
    "_hex": "0x546c"
  },
  "miner": "0x9746c7e1ef2bd21FF3997fa467593a89cb852BD0",
  "extraData": "0x476574682f76312e302e312f77696e646f77732f676f312e342e32",
  "transactions": [
    {
      "hash": "0x9b53e1c08da5b10542acbb9d9e01d5d331e8da3ca4f0ba9d7c5e788f2bc1c598",
      "blockHash": "0xb2bf4aa6ab70cd3b85ad692d3e895f98db50c3ed5f6d6b0e34ab3bdb26e63581",
      "blockNumber": 47493,
      "transactionIndex": 0,
      "confirmations": null,
      "from": "0x1D889aFF5D57138c9819412d63b5d877567B5936",
      "gasPrice": {
        "_hex": "0x2081ff6f31"
      },
      "gasLimit": {
        "_hex": "0x7530"
      },
      "to": "0x2910543Af39abA0Cd09dBb2D50200b3E800A63D2",
      "value": {
        "_hex": "0xde0b6b3a7640000"
      },
      "nonce": 1,
      "data": "0x454e3651304d384252",
      "r": "0x18e99b7bdcb99f1ab253d8472e7f27456a1d5a0f5559075b5aa811ec8b7293c6",
      "s": "0x09799b15671839648a4ed014c2eafa83c058cf7a77c23dd26c956067849a3bb6",
      "v": 27,
      "creates": null,
      "raw": "0xf87501852081ff6f31827530942910543af39aba0cd09dbb2d50200b3e800a63d2880de0b6b3a764000089454e3651304d3842521ba018e99b7bdcb99f1ab253d8472e7f27456a1d5a0f5559075b5aa811ec8b7293c6a009799b15671839648a4ed014c2eafa83c058cf7a77c23dd26c956067849a3bb6",
      "networkId": 0,
      "chainId": 0
    }
  ]
}