{
  "hash": "0xcf6929574a41b774d38627e3c4a64b5716ab62aaa49db28578d32e361e62060b",
  "parentHash": "0xa44501f65849fc6af0c17a10167a4a80991259e9a8defa6c830cacd6c70bf470",
  "number": 122321,
  "timestamp": 1440192167,
  "nonce": "0xc7b2e11bb22650ee",
  "difficulty": 4464283082089,
  "gasLimit": {
    "_hex": "0x2fefd8"
  },
  "gasUsed": {
    "_hex": "0xf618"
  },
  "miner": "0x52bc44d5378309EE2abF1539BF71dE1b7d7bE3b5",
  "extraData": "0xd783010002844765746887676f312e342e32856c696e7578",
  "transactions": [
    {
      "hash": "0x7d33622592a050b578f29cda42d4cba205d27d56779d1c322f7e7dd19d04b642",
      "blockHash": "0xcf6929574a41b774d38627e3c4a64b5716ab62aaa49db28578d32e361e62060b",
      "blockNumber": 122321,
      "transactionIndex": 0,
      "confirmations": null,
      "from": "0xa83dfbE4EB8ddEc112360483a8dab6D1EAFB1D29",
      "gasPrice": {
        "_hex": "0xd6fcec3fe"
      },
      "gasLimit": {
        "_hex": "0x5208"
      },
      "to": "0x32Be343B94f860124dC4fEe278FDCBD38C102D88",
      "value": {
        "_hex": "0x361b471a22ed6000"
      },
      "nonce": 0,
      "data": "0x",
      "r": "0x7cdf29a6981929fe2e73164de6378d7a623a0d6431bb29882609f1693d0d3311",
      "s": "0x319172e4d72cc51c9bc5eb491e47c8f83a60c5a62952f0084261ced944ed5d70",
      "v": 27,
      "creates": null,
      "raw": "0xf86c80850d6fcec3fe8252089432be343b94f860124dc4fee278fdcbd38c102d8888361b471a22ed6000801ba07cdf29a6981929fe2e73164de6378d7a623a0d6431bb29882609f1693d0d3311a0319172e4d72cc51c9bc5eb491e47c8f83a60c5a62952f0084261ced944ed5d70",
      "networkId": 0,
      "chainId": 0
    },
    {
      "hash": "0x2a3100c55b89aa8768eed593f3a8e5fedfe49b1a941054956093b98c9892d8df",
      "blockHash": "0xcf6929574a41b774d38627e3c4a64b5716ab62aaa49db28578d32e361e62060b",
      "blockNumber": 122321,
      "transactionIndex": 1,
      "confirmations": null,
      "from": "0x2910543Af39abA0Cd09dBb2D50200b3E800A63D2",
      "gasPrice": {
        "_hex": "0xd06ff5d27"
      },
      "gasLimit": {
        "_hex": "0x5208"
      },
      "to": "0xee8bB0274117C9A1D3695E19bea188c382EC1A8E",
      "value": {
        "_hex": "0x5f67cbdb8b5178000"
      },
      "nonce": 1227,
      "data": "0x",
      "r": "0xdf33ad07b1cab8d8581d458df904430876f5043ca3231ffdf4abf40c6b3793c1",
      "s": "0x471192a63077de8448d53365fc57194b49739dd18a35555e132595c3b068ca39",
      "v": 27,
      "creates": null,
      "raw": "0xf86f8204cb850d06ff5d2782520894ee8bb0274117c9a1d3695e19bea188c382ec1a8e8905f67cbdb8b5178000801ba0df33ad07b1cab8d8581d458df904430876f5043ca3231ffdf4abf40c6b3793c1a0471192a63077de8448d53365fc57194b49739dd18a35555e132595c3b068ca39",
      "networkId": 0,
      "chainId": 0
    },
    {
      "hash": "0x55d20151f0ef2e1ea714236d4d56c0775e4e6e99b1bbf736354b0c5b54d0be38",
      "blockHash": "0xcf6929574a41b774d38627e3c4a64b5716ab62aaa49db28578d32e361e62060b",
      "blockNumber": 122321,
      "transactionIndex": 2,
      "confirmations": null,
      "from": "0xeDbc07d54406D3B56bdaeADEEa788b9721f779ba",
      "gasPrice": {
        "_hex": "0xba43b7400"
      },
      "gasLimit": {
        "_hex": "0x55f0"
      },
      "to": "0x0DBaD90C967BFfeA4d6B589c0d2AF50A0eA16304",
      "value": {
        "_hex": "0x35b2c80fc9c6f0000"
      },
      "nonce": 7,
      "data": "0x",
      "r": "0x5df709127af4be468b6c179243eee250b033344d21c31b645f9f5be8f697f157",
      "s": "0x2cea5d75771069d407a225fe9086a002b72a05e2dd012551ceca14078b3e2d51",
      "v": 27,
      "creates": null,
      "raw": "0xf86d07850ba43b74008255f0940dbad90c967bffea4d6b589c0d2af50a0ea1630489035b2c80fc9c6f0000801ba05df709127af4be468b6c179243eee250b033344d21c31b645f9f5be8f697f157a02cea5d75771069d407a225fe9086a002b72a05e2dd012551ceca14078b3e2d51",
      "networkId": 0,
      "chainId": 0
    }
  ]
}