{
  "hash": "0x258febc2d6289a31525c28721b9ac6e697d252d50914991a78f6ae8f27ac8806",
  "parentHash": "0xd55f26d32a8c11a10dca59d0fcbce6292441e82cc51c4fbd53ebf40ee56300d9",
  "number": 74713,
  "timestamp": 1439390922,
  "nonce": "0x45121162097f03eb",
  "difficulty": 2203109640316,
  "gasLimit": {
    "_hex": "0x2fefd8"
  },
  "gasUsed": {
    "_hex": "0x546c"
  },
  "miner": "0xe6A7a1d47ff21B6321162AEA7C6CB457D5476Bca",
  "extraData": "0x476574682f76312e302e312d38326566323666362f6c696e75782f676f312e34",
  "transactions": [
    {
      "hash": "0x08749737e1c0c12c6fa18c4cc28951666bc44c69ffab9c6c89db490a1f237d48",
      "blockHash": "0x258febc2d6289a31525c28721b9ac6e697d252d50914991a78f6ae8f27ac8806",
      "blockNumber": 74713,
      "transactionIndex": 0,
      "confirmations": null,
      "from": "0xaa8Eb0823b07B0e6d20aADda0e95cF3835BE192E",
      "gasPrice": {
        "_hex": "0x110c8f7d8de"
      },
      "gasLimit": {
        "_hex": "0xc350"
      },
      "to": "0x2910543Af39abA0Cd09dBb2D50200b3E800A63D2",
      "value": {
        "_hex": "0x1bafa9ee16e780000"
      },
      "nonce": 0,
      "data": "0x454e41364a42565947",
      "r": "0x4451d56162bc287278573dbc851944717c654dc77f2cd962a8b45af1a1de1750",
      "s": "0xf421031bee577f560ce7931e554803161a215f1acded172937c9161e0dbc3d9a",
      "v": 28,
      "creates": null,
      "raw": "0xf87780860110c8f7d8de82c350942910543af39aba0cd09dbb2d50200b3e800a63d28901bafa9ee16e78000089454e41364a425659471ca04451d56162bc287278573dbc851944717c654dc77f2cd962a8b45af1a1de1750a0f421031bee577f560ce7931e554803161a215f1acded172937c9161e0dbc3d9a",
      "networkId": 0,
      "chainId": 0
    }
  ]
}