{
  "hash": "0x1796af7f9b6865023c76284156251215b26d27f9aede39ab3266dfe8c6fc7150",
  "parentHash": "0x4937bcda12b874baf8a369ee8d2eb1c50c14e56986937418d90b92af3af13335",
  "number": 103825,
  "timestamp": 1439859462,
  "nonce": "0xa11a26d39c1214f5",
  "difficulty": 4240166727650,
  "gasLimit": {
    "_hex": "0x2fefd8"
  },
  "gasUsed": {
    "_hex": "0xa410"
  },
  "miner": "0xe64D681b0eBCa2997D5f35e72EbC7777973299D7",
  "extraData": "0x",
  "transactions": [
    {
      "hash": "0x9873a0ae939e5b1d0303fc46b15ba2f15ce18ac2b70164464f08aae144d75ba7",
      "blockHash": "0x1796af7f9b6865023c76284156251215b26d27f9aede39ab3266dfe8c6fc7150",
      "blockNumber": 103825,
      "transactionIndex": 0,
      "confirmations": null,
      "from": "0xa6BDc31c431B8F97848c9D60cbbe9660dc450eB7",
      "gasPrice": {
        "_hex": "0xcefb81060"
      },
      "gasLimit": {
        "_hex": "0x5208"
      },
      "to": "0x32Be343B94f860124dC4fEe278FDCBD38C102D88",
      "value": {
        "_hex": "0x455f6c542185a800"
      },
      "nonce": 164,
      "data": "0x",
      "r": "0x3c555c08ef5f952c855ad4c4ea26cdcf53ac9092e1cf7b5fc7e5a3fbd3b8489f",
      "s": "0x1b951a2a9f15ef56080287772d5c6ad14735517495c30560963836ec24dcdf80",
      "v": 27,
      "creates": null,
      "raw": "0xf86d81a4850cefb810608252089432be343b94f860124dc4fee278fdcbd38c102d8888455f6c542185a800801ba03c555c08ef5f952c855ad4c4ea26cdcf53ac9092e1cf7b5fc7e5a3fbd3b8489fa01b951a2a9f15ef56080287772d5c6ad14735517495c30560963836ec24dcdf80",
      "networkId": 0,
      "chainId": 0
    },
    {
      "hash": "0x1b8f79b2ff50dcb613033c6753153abe07e0b5769a4eced03d77cb67b713cfa3",
      "blockHash": "0x1796af7f9b6865023c76284156251215b26d27f9aede39ab3266dfe8c6fc7150",
      "blockNumber": 103825,
      "transactionIndex": 1,
      "confirmations": null,
      "from": "0x61F642543d22bAf5382908a714E675Cc0b51ea45",
      "gasPrice": {
        "_hex": "0xcefb81060"
      },
      "gasLimit": {
        "_hex": "0x5208"
      },
      "to": "0x32Be343B94f860124dC4fEe278FDCBD38C102D88",
      "value": {
        "_hex": "0x455f6c51cd79c400"
      },
      "nonce": 15,
      "data": "0x",
      "r": "0x06223b6023e7ccba50080cd11be0d5523856a76c96ac21c44c97d9dc56ad4c4b",
      "s": "0x2aa2c8e46f39a71035b9d0b5b902d05847fa4332ebab97619e144db38256be56",
      "v": 28,
      "creates": null,
      "raw": "0xf86c0f850cefb810608252089432be343b94f860124dc4fee278fdcbd38c102d8888455f6c51cd79c400801ca006223b6023e7ccba50080cd11be0d5523856a76c96ac21c44c97d9dc56ad4c4ba02aa2c8e46f39a71035b9d0b5b902d05847fa4332ebab97619e144db38256be56",
      "networkId": 0,
      "chainId": 0
    }
  ]
}