{
  "hash": "0xf3f2bac91d7adec1b29130621fe0d0e501f66492a9554ce4efadd3fe28760f0e",
  "parentHash": "0xd4c30774dae863e556f5c4f67620a7075b9494dc6e5cc0841836832dba9870be",
  "number": 59838,
  "timestamp": 1439144551,
  "nonce": "0x942257d1493ead16",
  "difficulty": 1719668148260,
  "gasLimit": {
    "_hex": "0x2fefd5"
  },
  "gasUsed": {
    "_hex": "0x5208"
  },
  "miner": "0xC49418429e58989172a4ACE0bab0cB8D3F00F97f",
  "extraData": "0x476574682f76312e302e312f6c696e75782f676f312e342e32",
  "transactions": [
    {
      "hash": "0x4b96a32b6ad37e3e6e5a8d1b9fd1b7ad9dcb97c35630d415e8cc81db2de3db7b",
      "blockHash": "0xf3f2bac91d7adec1b29130621fe0d0e501f66492a9554ce4efadd3fe28760f0e",
      "blockNumber": 59838,
      "transactionIndex": 0,
      "confirmations": null,
      "from": "0x3056b7BF97104D34E56b79083Cf078e9BEF5F96F",
      "gasPrice": {
        "_hex": "0xd8364fc25"
      },
      "gasLimit": {
        "_hex": "0x15f90"
      },
      "to": "0xc544B25bb91b87e380dda392687c6216b0260671",
      "value": {
        "_hex": "0x6124fee993bc0000"
      },
      "nonce": 3,
      "data": "0x",
      "r": "0x6b35cf18c917e4ab1e4279678bf2b1c5873b2210060e9028c343263d1da06b0d",
      "s": "0x0b2f025b20e91708213b9423ab355664e680fd3dfcdf7c78c23efce350aa081f",
      "v": 28,
      "creates": null,
      "raw": "0xf86d03850d8364fc2583015f9094c544b25bb91b87e380dda392687c6216b0260671886124fee993bc0000801ca06b35cf18c917e4ab1e4279678bf2b1c5873b2210060e9028c343263d1da06b0da00b2f025b20e91708213b9423ab355664e680fd3dfcdf7c78c23efce350aa081f",
      "networkId": 0,
      "chainId": 0
    }
  ]
}