{
  "hash": "0x4d7d5ef0561c2e18f6d1cc70229e522db4214c1638b4ea19c193561d68f36562",
  "parentHash": "0xaee5750bb0a10b3a650ddc334905338ecd6f9cc0ab4b719416a9c1a4dab1b1e8",
  "number": 47548,
  "timestamp": 1438942625,
  "nonce": "0xbdac4bb75fb7b08e",
  "difficulty": 1447399182685,
  "gasLimit": {
    "_hex": "0xce53"
  },
  "gasUsed": {
    "_hex": "0xa410"
  },
  "miner": "0x9746c7e1ef2bd21FF3997fa467593a89cb852BD0",
  "extraData": "0x476574682f76312e302e312f77696e646f77732f676f312e342e32",
  "transactions": [
    {
      "hash": "0x4b1371a17c3f3f786cf8148ec7206cbf97e2916ac769ffba626b2a66a2137b36",
      "blockHash": "0x4d7d5ef0561c2e18f6d1cc70229e522db4214c1638b4ea19c193561d68f36562",
      "blockNumber": 47548,
      "transactionIndex": 0,
      "confirmations": null,
      "from": "0xe6A7a1d47ff21B6321162AEA7C6CB457D5476Bca",
      "gasPrice": {
        "_hex": "0x1c63f281b0"
      },
      "gasLimit": {
        "_hex": "0x55f0"
      },
      "to": "0xFa78997D2C35062BE8197CBfa061371D0547CcD2",
      "value": {
        "_hex": "0xa05fdacebbb4009a0"
      },
      "nonce": 177,
      "data": "0x",
      "r": "0x9179e4ab0eee4747ee5c67f6697aaf7b6a5fd071cd02b9e49ad5356b7c19d0b7",
      "s": "0x728d312db8f18cab0ee40011243ca424597f2025d9a34dcb06f0a14743070283",
      "v": 27,
      "creates": null,
      "raw": "0xf86e81b1851c63f281b08255f094fa78997d2c35062be8197cbfa061371d0547ccd2890a05fdacebbb4009a0801ba09179e4ab0eee4747ee5c67f6697aaf7b6a5fd071cd02b9e49ad5356b7c19d0b7a0728d312db8f18cab0ee40011243ca424597f2025d9a34dcb06f0a14743070283",
      "networkId": 0,
      "chainId": 0
    },
    {
      "hash": "0x97bbefde782aca37189a05fbbe2ae41006d85072cc0041e8b96803965a9a3b3d",
      "blockHash": "0x4d7d5ef0561c2e18f6d1cc70229e522db4214c1638b4ea19c193561d68f36562",
      "blockNumber": 47548,
      "transactionIndex": 1,
      "confirmations": null,
      "from": "0xe6A7a1d47ff21B6321162AEA7C6CB457D5476Bca",
      "gasPrice": {
        "_hex": "0x1c63f281b0"
      },
      "gasLimit": {
        "_hex": "0x55f0"
      },
      "to": "0x4873313Ba85B8127aF35C5c73433720FC90ba4Fe",
      "value": {
        "_hex": "0xb40ef549781f1ba00"
      },
      "nonce": 178,
      "data": "0x",
      "r": "0xb5aae3361d97ad14fa95b4e8df06e5b01610772e7f4529e898793cfaf767ae43",
      "s": "0x5ae051c5d733aa194fabf9cf8573f40308eda1779130eaa999e110313262fe2f",
      "v": 28,
      "creates": null,
      "raw": "0xf86e81b2851c63f281b08255f0944873313ba85b8127af35c5c73433720fc90ba4fe890b40ef549781f1ba00801ca0b5aae3361d97ad14fa95b4e8df06e5b01610772e7f4529e898793cfaf767ae43a05ae051c5d733aa194fabf9cf8573f40308eda1779130eaa999e110313262fe2f",
      "networkId": 0,
      "chainId": 0
    }
  ]
}