{
  "hash": "0x0730cd037c138f1db797e381336a58cf56c66b90fdb03c3917453d45f62ec634",
  "parentHash": "0xae353dbc9c24f9e2a767def842230e24ea3af4c13ee21f1813907da5bbe299f8",
  "number": 68663,
  "timestamp": 1439291682,
  "nonce": "0x6d28b70e218eaa3a",
  "difficulty": 2017227122982,
  "gasLimit": {
    "_hex": "0x2fefd8"
  },
  "gasUsed": {
    "_hex": "0x6b1cc"
  },
  "miner": "0xD65B98DBBE8F63FA14139a10041Bba7E3A0d377D",
  "extraData": "0x476574682f76312e302e312f6c696e75782f676f312e342e32",
  "transactions": [
    {
      "hash": "0x641007d7788d1eef7d8356956205388ff2533f704276ed3fc93ccbc260232fbf",
      "blockHash": "0x0730cd037c138f1db797e381336a58cf56c66b90fdb03c3917453d45f62ec634",
      "blockNumber": 68663,
      "transactionIndex": 0,
      "confirmations": null,
      "from": "0xD8fE4d9435Ce101F18378713E1A890b21684f9Cb",
      "gasPrice": {
        "_hex": "0xba43b7400"
      },
      "gasLimit": {
        "_hex": "0x15f90"
      },
      "to": "0x793AE8C1b1a160BFc07BFB0d04F85eab1A71F4f2",
      "value": {
        "_hex": "0x0"
      },
      "nonce": 0,
      "data": "0x3ba15036",
      "r": "0xd044c4bbbdac2b2698d5394a98619a9ac9fd6876cd087b154c00089e880b6200",
      "s": "0x3cbcde36f7921c74cdc290a416fab54503c1f53977fc7fee67beabee74cab708",
      "v": 27,
      "creates": null,
      "raw": "0xf86980850ba43b740083015f9094793ae8c1b1a160bfc07bfb0d04f85eab1a71f4f280843ba150361ba0d044c4bbbdac2b2698d5394a98619a9ac9fd6876cd087b154c00089e880b6200a03cbcde36f7921c74cdc290a416fab54503c1f53977fc7fee67beabee74cab708",
      "networkId": 0,
      "chainId": 0
    },
    {
      "hash": "0x20387321b1d59fdb392c89efa9a5d160e355f1fe1119d7bc32d513db4eb90abf",
      "blockHash": "0x0730cd037c138f1db797e381336a58cf56c66b90fdb03c3917453d45f62ec634",
      "blockNumber": 68663,
      "transactionIndex": 1,
      "confirmations": null,
      "from": "0x86D329AC157AdA70189066571A3f3f91148c0A74",
      "gasPrice": {
        "_hex": "0xba43b7400"
      },
      "gasLimit": {
        "_hex": "0x15f90"
      },
      "to": "0x793AE8C1b1a160BFc07BFB0d04F85eab1A71F4f2",
      "value": {
        "_hex": "0x0"
      },
      "nonce": 0,
      "data": "0x3ba15036",
      "r": "0x0936fe355274e5762a7b40432707536a8502e83f990b9f43403a3f6dc8d9b242",
      "s": "0x1f2b60441ce3015368fc755f0e5b38db40951709b711e375573938bd3d307900",
      "v": 27,
      "creates": null,
      "raw": "0xf86980850ba43b740083015f9094793ae8c1b1a160bfc07bfb0d04f85eab1a71f4f280843ba150361ba00936fe355274e5762a7b40432707536a8502e83f990b9f43403a3f6dc8d9b242a01f2b60441ce3015368fc755f0e5b38db40951709b711e375573938bd3d307900",
      "networkId": 0,
      "chainId": 0
    },
    {
      "hash": "0x3603070aae40635c4f23e0f950ec8bd210439242913ddffcbc08aa217fa08e91",
      "blockHash": "0x0730cd037c138f1db797e381336a58cf56c66b90fdb03c3917453d45f62ec634",
      "blockNumber": 68663,
      "transactionIndex": 2,
      "confirmations": null,
      "from": "0xA79A188EeaF48A16BeE95c2f07B22D108ca1B5D8",
      "gasPrice": {
        "_hex": "0xba43b7400"
      },
      "gasLimit": {
        "_hex": "0x15f90"
      },
      "to": "0x793AE8C1b1a160BFc07BFB0d04F85eab1A71F4f2",
      "value": {
        "_hex": "0x0"
      },
      "nonce": 0,
      "data": "0x3ba15036",
      "r": "0xb24bf25afb83bde42de4a68efbe823c7e2bf257b62bc7a612019a0a8df7a4e65",
      "s": "0x14fed84207e15070625be9a0f2ebc50f5b487e9e6afee10ff76afe8b67c7725f",
      "v": 27,
      "creates": null,
      "raw": "0xf86980850ba43b740083015f9094793ae8c1b1a160bfc07bfb0d04f85eab1a71f4f280843ba150361ba0b24bf25afb83bde42de4a68efbe823c7e2bf257b62bc7a612019a0a8df7a4e65a014fed84207e15070625be9a0f2ebc50f5b487e9e6afee10ff76afe8b67c7725f",
      "networkId": 0,
      "chainId": 0
    },
    {
      "hash": "0x890a76edfcf280def395ff37ff677e0820d8ba93b4cb4e4a979e00bccfd8602c",
      "blockHash": "0x0730cd037c138f1db797e381336a58cf56c66b90fdb03c3917453d45f62ec634",
      "blockNumber": 68663,
      "transactionIndex": 3,
      "confirmations": null,
      "from": "0xBa1ccAAFAf02bf0bed9FBd4Ada0A2e7b454747ae",
      "gasPrice": {
        "_hex": "0xba43b7400"
      },
      "gasLimit": {
        "_hex": "0x15f90"
      },
      "to": "0x793AE8C1b1a160BFc07BFB0d04F85eab1A71F4f2",
      "value": {
        "_hex": "0x0"
      },
      "nonce": 0,
      "data": "0x3ba15036",
      "r": "0x549317cca2874e1c22737eb88e008110129e3374736b58f8725cefaab16792c9",
      "s": "0x1cd209ee874efb1494058d06d0ad607781c8c0060a9a5a378527e44ae70eabd6",
      "v": 28,
      "creates": null,
      "raw": "0xf86980850ba43b740083015f9094793ae8c1b1a160bfc07bfb0d04f85eab1a71f4f280843ba150361ca0549317cca2874e1c22737eb88e008110129e3374736b58f8725cefaab16792c9a01cd209ee874efb1494058d06d0ad607781c8c0060a9a5a378527e44ae70eabd6",
      "networkId": 0,
      "chainId": 0
    },
    {
      "hash": "0x10cdc2b58a9adff3320a3f53a93e6ab218708bef7450013d7d458da92aa57519",
      "blockHash": "0x0730cd037c138f1db797e381336a58cf56c66b90fdb03c3917453d45f62ec634",
      "blockNumber": 68663,
      "transactionIndex": 4,
      "confirmations": null,
      "from": "0x3C7C187E2b4448216F90D20DB51E0AC26dEa0d0F",
      "gasPrice": {
        "_hex": "0xba43b7400"
      },
      "gasLimit": {
        "_hex": "0x15f90"
      },
      "to": "0x793AE8C1b1a160BFc07BFB0d04F85eab1A71F4f2",
      "value": {
        "_hex": "0x0"
      },
      "nonce": 0,
      "data": "0x3ba15036",
      "r": "0xf67167201aac1144907ffa50d22b22d14b70263e3cc8e800341c3bcb3488c26a",
      "s": "0x53352b4870c3b33541348c65981329f2342ec68ff588040d9d1be4f9ea6f8abb",
      "v": 28,
      "creates": null,
      "raw": "0xf86980850ba43b740083015f9094793ae8c1b1a160bfc07bfb0d04f85eab1a71f4f280843ba150361ca0f67167201aac1144907ffa50d22b22d14b70263e3cc8e800341c3bcb3488c26aa053352b4870c3b33541348c65981329f2342ec68ff588040d9d1be4f9ea6f8abb",
      "networkId": 0,
      "chainId": 0
    },
    {
      "hash": "0xd5d306de9ed498eaea150d7fbbfee0729a5191710854407733a0aa3cccf70208",
      "blockHash": "0x0730cd037c138f1db797e381336a58cf56c66b90fdb03c3917453d45f62ec634",
      "blockNumber": 68663,
      "transactionIndex": 5,
      "confirmations": null,
      "from": "0x7262696500F27Dc72e09919B352d7A3d0D8D85B7",
      "gasPrice": {
        "_hex": "0xba43b7400"
      },
      "gasLimit": {
        "_hex": "0x15f90"
      },
      "to": "0x793AE8C1b1a160BFc07BFB0d04F85eab1A71F4f2",
      "value": {
        "_hex": "0x0"
      },
      "nonce": 0,
      "data": "0x3ba15036",
      "r": "0x0d486901bb5f4d47e205727fbe4c378746f5015bed81a900c4d4f3dee3549d82",
      "s": "0x2231af807b9d80d5c87efba605a933916cab0d28214488af512529a4730bf7d2",
      "v": 27,
      "creates": null,
      "raw": "0xf86980850ba43b740083015f9094793ae8c1b1a160bfc07bfb0d04f85eab1a71f4f280843ba150361ba00d486901bb5f4d47e205727fbe4c378746f5015bed81a900c4d4f3dee3549d82a02231af807b9d80d5c87efba605a933916cab0d28214488af512529a4730bf7d2",
      "networkId": 0,
      "chainId": 0
    },
    {
      "hash": "0x11475dbb1cc5b37ea821059d5cee16a380835957d5d01317f7f3ea24b65aa0f9",
      "blockHash": "0x0730cd037c138f1db797e381336a58cf56c66b90fdb03c3917453d45f62ec634",
      "blockNumber": 68663,
      "transactionIndex": 6,
      "confirmations": null,
      "from": "0x940937d0F38187133c30f0c69879a02e939d1a53",
      "gasPrice": {
        "_hex": "0xba43b7400"
      },
      "gasLimit": {
        "_hex": "0x15f90"
      },
      "to": "0x793AE8C1b1a160BFc07BFB0d04F85eab1A71F4f2",
      "value": {
        "_hex": "0x0"
      },
      "nonce": 0,
      "data": "0x3ba15036",
      "r": "0x9198a565050329836776ee773a754623a0e8702be34bd0971d3472f74744c67a",
      "s": "0x05321e5235ee24053ea3a8ae0329743a4d8efc28a3a981f95b14945020684c20",
      "v": 28,
      "creates": null,
      "raw": "0xf86980850ba43b740083015f9094793ae8c1b1a160bfc07bfb0d04f85eab1a71f4f280843ba150361ca09198a565050329836776ee773a754623a0e8702be34bd0971d3472f74744c67aa005321e5235ee24053ea3a8ae0329743a4d8efc28a3a981f95b14945020684c20",
      "networkId": 0,
      "chainId": 0
    },
    {
      "hash": "0x61163c30d0c9eb832e0f59354db244bb1411fe8bccac5135cca056c1d402fec7",
      "blockHash": "0x0730cd037c138f1db797e381336a58cf56c66b90fdb03c3917453d45f62ec634",
      "blockNumber": 68663,
      "transactionIndex": 7,
      "confirmations": null,
      "from": "0xA0300a193C9b548706DCacc9F117E887cbF0C70e",
      "gasPrice": {
        "_hex": "0xba43b7400"
      },
      "gasLimit": {
        "_hex": "0x15f90"
      },
      "to": "0x793AE8C1b1a160BFc07BFB0d04F85eab1A71F4f2",
      "value": {
        "_hex": "0x0"
      },
      "nonce": 0,
      "data": "0x3ba15036",
      "r": "0xb50a4e63f663db48284b55ca4f0e0cd74b4a9a50c7420312e55a92a7b6b061fd",
      "s": "0x0f2c5ab14f392359cbd78a97a398dc81bb63bf1d967560d679dfdb76363d8fd9",
      "v": 28,
      "creates": null,
      "raw": "0xf86980850ba43b740083015f9094793ae8c1b1a160bfc07bfb0d04f85eab1a71f4f280843ba150361ca0b50a4e63f663db48284b55ca4f0e0cd74b4a9a50c7420312e55a92a7b6b061fda00f2c5ab14f392359cbd78a97a398dc81bb63bf1d967560d679dfdb76363d8fd9",
      "networkId": 0,
      "chainId": 0
    },
    {
      "hash": "0x0db551c8e27b03d267a90bdcbaae55c78a8a45db10f4c68cbf551797cb54e580",
      "blockHash": "0x0730cd037c138f1db797e381336a58cf56c66b90fdb03c3917453d45f62ec634",
      "blockNumber": 68663,
      "transactionIndex": 8,
      "confirmations": null,
      "from": "0x519DBf805acC946F7Ac70044f032bc5f14695615",
      "gasPrice": {
        "_hex": "0xba43b7400"
      },
      "gasLimit": {
        "_hex": "0x15f90"
      },
      "to": "0x793AE8C1b1a160BFc07BFB0d04F85eab1A71F4f2",
      "value": {
        "_hex": "0x0"
      },
      "nonce": 0,
      "data": "0x3ba15036",
      "r": "0x8ad453b0d51567068cd1f6bcb9cf7a5d55d70cc536ba1753d2acf6b9cb2fe920",
      "s": "0x682f6c7b196fe59127c4ba9ac08ff1def713e5eb6b1c50a62e16a0e9f44f651b",
      "v": 27,
      "creates": null,
      "raw": "0xf86980850ba43b740083015f9094793ae8c1b1a160bfc07bfb0d04f85eab1a71f4f280843ba150361ba08ad453b0d51567068cd1f6bcb9cf7a5d55d70cc536ba1753d2acf6b9cb2fe920a0682f6c7b196fe59127c4ba9ac08ff1def713e5eb6b1c50a62e16a0e9f44f651b",
      "networkId": 0,
      "chainId": 0
    }
  ]
}