{
  "hash": "0x9b148c13c70c6f76ef67b5cfe2224c5056475938bfdac0db07d5a64cd6fca742",
  "parentHash": "0x66606d01edb6b8ffb4cec8cf3f1dbc299e529b55af7ac27ea3a28e05b74c40f0",
  "number": 99379,
  "timestamp": 1439788992,
  "nonce": "0x956eb2c02aaa19a0",
  "difficulty": 3799163930956,
  "gasLimit": {
    "_hex": "0x2fefd8"
  },
  "gasUsed": {
    "_hex": "0x5208"
  },
  "miner": "0x9746c7e1ef2bd21FF3997fa467593a89cb852BD0",
  "extraData": "0x476574682f76312e302e312f77696e646f77732f676f312e342e32",
  "transactions": [
    {
      "hash": "0x11d00e478125099d72cc5ab154fac0aa588789703c0d5e4df2306a4121645a58",
      "blockHash": "0x9b148c13c70c6f76ef67b5cfe2224c5056475938bfdac0db07d5a64cd6fca742",
      "blockNumber": 99379,
      "transactionIndex": 0,
      "confirmations": null,
      "from": "0xcf00A85f3826941e7A25BFcF9Aac575d40410852",
      "gasPrice": {
        "_hex": "0xcb5bea614"
      },
      "gasLimit": {
        "_hex": "0x15f90"
      },
      "to": "0xD9666150A9dA92d9108198a4072970805a8B3428",
      "value": {
        "_hex": "0x4563918244f40000"
      },
      "nonce": 18,
      "data": "0x",
      "r": "0x010233245a18dff4259d75126546db35684df831049b619677e1071d66b9702c",
      "s": "0x58ab9034d567a3f1cfe246288526501ea2934bb069c5f60a274055a46c80b0f6",
      "v": 28,
      "creates": null,
      "raw": "0xf86d12850cb5bea61483015f9094d9666150a9da92d9108198a4072970805a8b3428884563918244f40000801ca0010233245a18dff4259d75126546db35684df831049b619677e1071d66b9702ca058ab9034d567a3f1cfe246288526501ea2934bb069c5f60a274055a46c80b0f6",
      "networkId": 0,
      "chainId": 0
    }
  ]
}