{
  "hash": "0xf010f62b817da21b7b5a7ad9fdd4119beb1651efab32f9430141c33440cbf963",
  "parentHash": "0x6c7a29cd6dbbf5ebb3a4ec3a7ee5c27c0b903ba7099c901bd6ab7e8f74270f6a",
  "number": 81456,
  "timestamp": 1439502021,
  "nonce": "0x18f6eb631aa4b282",
  "difficulty": 2447392192602,
  "gasLimit": {
    "_hex": "0x2fefd8"
  },
  "gasUsed": {
    "_hex": "0x19a28"
  },
  "miner": "0x02dE7d35a60bf6A216411476040ec648668769D7",
  "extraData": "0x476574682f76312e302e312f77696e646f77732f676f312e342e32",
  "transactions": [
    {
      "hash": "0xa698b3d3446cc43002f12ce4407778bcaca790b2177fef4b18a7af575246f8cd",
      "blockHash": "0xf010f62b817da21b7b5a7ad9fdd4119beb1651efab32f9430141c33440cbf963",
      "blockNumber": 81456,
      "transactionIndex": 0,
      "confirmations": null,
      "from": "0xfC9491EAfD2285d8469b6A20000eb9d97F93Fe5F",
      "gasPrice": {
        "_hex": "0xdbb3709dd"
      },
      "gasLimit": {
        "_hex": "0x15f90"
      },
      "to": "0x4b1fE3B3697EFD4515b60Fc3c54995B215F58e97",
      "value": {
        "_hex": "0xf8b0a10e470000"
      },
      "nonce": 1,
      "data": "0x",
      "r": "0x7ed3e754b7c3292b19df7d0fb2d3c446570b54c7c3885257bb7a2f7f09c3b31a",
      "s": "0x51540fd901c8278471cbeadcc474bc43d19cde3e46750fa8a6b72b2af9c256e0",
      "v": 27,
      "creates": null,
      "raw": "0xf86c01850dbb3709dd83015f90944b1fe3b3697efd4515b60fc3c54995b215f58e9787f8b0a10e470000801ba07ed3e754b7c3292b19df7d0fb2d3c446570b54c7c3885257bb7a2f7f09c3b31aa051540fd901c8278471cbeadcc474bc43d19cde3e46750fa8a6b72b2af9c256e0",
      "networkId": 0,
      "chainId": 0
    },
    {
      "hash": "0x81d9ee427b77540a242d1817c2ccf63d173ba18a14a68e80b47f22ebd02eafd9",
      "blockHash": "0xf010f62b817da21b7b5a7ad9fdd4119beb1651efab32f9430141c33440cbf963",
      "blockNumber": 81456,
      "transactionIndex": 1,
      "confirmations": null,
      "from": "0x32Be343B94f860124dC4fEe278FDCBD38C102D88",
      "gasPrice": {
        "_hex": "0xd733422c6"
      },
      "gasLimit": {
        "_hex": "0x5208"
      },
      "to": "0x654C5Ab883F5816f49a6E6548452520ce62a047d",
      "value": {
        "_hex": "0x1ba51bb1a6a05800"
      },
      "nonce": 598,
      "data": "0x",
      "r": "0xf18837ec8f54e7823b67ce7159d22f07cf05ad9a6e6f8bd3ceb1322dd42cc50d",
      "s": "0x6ced4a422a2a1aab2604f375c5056e9a06fda008738df2078b6e169082ca6d87",
      "v": 27,
      "creates": null,
      "raw": "0xf86e820256850d733422c682520894654c5ab883f5816f49a6e6548452520ce62a047d881ba51bb1a6a05800801ba0f18837ec8f54e7823b67ce7159d22f07cf05ad9a6e6f8bd3ceb1322dd42cc50da06ced4a422a2a1aab2604f375c5056e9a06fda008738df2078b6e169082ca6d87",
      "networkId": 0,
      "chainId": 0
    },
    {
      "hash": "0xabf485c4668d88bb13cf0acf6de032c22cabc31bb07032fb260f5d22e7d61fb7",
      "blockHash": "0xf010f62b817da21b7b5a7ad9fdd4119beb1651efab32f9430141c33440cbf963",
      "blockNumber": 81456,
      "transactionIndex": 2,
      "confirmations": null,
      "from": "0x98f2c2754c77b49993EEA4Dcd2D9ABa71B696B60",
      "gasPrice": {
        "_hex": "0xd733422c6"
      },
      "gasLimit": {
        "_hex": "0x5208"
      },
      "to": "0x32Be343B94f860124dC4fEe278FDCBD38C102D88",
      "value": {
        "_hex": "0x1159bba311d10e000"
      },
      "nonce": 3,
      "data": "0x",
      "r": "0x60be8e28111b7039eaf8753bb1b57634e272ff6e3523abf698fe0fe979e39b64",
      "s": "0x7747827836d4ffad3a80abe906c442fbae20aac06931fea3667806c65b0d2fdb",
      "v": 27,
      "creates": null,
      "raw": "0xf86d03850d733422c68252089432be343b94f860124dc4fee278fdcbd38c102d888901159bba311d10e000801ba060be8e28111b7039eaf8753bb1b57634e272ff6e3523abf698fe0fe979e39b64a07747827836d4ffad3a80abe906c442fbae20aac06931fea3667806c65b0d2fdb",
      "networkId": 0,
      "chainId": 0
    },
    {
      "hash": "0x06069913ecfc818c9cf637a248c373bac824efa7346e915a7b1677ebf54990dc",
      "blockHash": "0xf010f62b817da21b7b5a7ad9fdd4119beb1651efab32f9430141c33440cbf963",
      "blockNumber": 81456,
      "transactionIndex": 3,
      "confirmations": null,
      "from": "0x32Be343B94f860124dC4fEe278FDCBD38C102D88",
      "gasPrice": {
        "_hex": "0xd733422c6"
      },
      "gasLimit": {
        "_hex": "0x5208"
      },
      "to": "0x76899c112A85c5a7d27Ff89f1b97112e900aeEBc",
      "value": {
        "_hex": "0x8aa39c121a270000"
      },
      "nonce": 599,
      "data": "0x",
      "r": "0xe5220d1b40c6cc4c6ef0da0ccc8de54336ef8b0c0488e642be6310fba28cf0b8",
      "s": "0x26f7765a0f3c3232f035d305923e5f94156b1daceef4a6a4872271aea321e7e0",
      "v": 27,
      "creates": null,
      "raw": "0xf86e820257850d733422c68252089476899c112a85c5a7d27ff89f1b97112e900aeebc888aa39c121a270000801ba0e5220d1b40c6cc4c6ef0da0ccc8de54336ef8b0c0488e642be6310fba28cf0b8a026f7765a0f3c3232f035d305923e5f94156b1daceef4a6a4872271aea321e7e0",
      "networkId": 0,
      "chainId": 0
    },
    {
      "hash": "0x682be012a152319b455859c3ce63a6a9dea5753dcc5b1f64ac331d3cb9014ff9",
      "blockHash": "0xf010f62b817da21b7b5a7ad9fdd4119beb1651efab32f9430141c33440cbf963",
      "blockNumber": 81456,
      "transactionIndex": 4,
      "confirmations": null,
      "from": "0x4d965A32023A4b9C94a3c6930805C2D515fA37d9",
      "gasPrice": {
        "_hex": "0xba43b7400"
      },
      "gasLimit": {
        "_hex": "0x5208"
      },
      "to": "0xC47Aaa860008be6f65B58c6C6E02a84e666EfE31",
      "value": {
        "_hex": "0x12649b05e69da000"
      },
      "nonce": 0,
      "data": "0x",
      "r": "0x5ae654585e9fdce944bbc6e5333098fbe9cdf699d1f3732696238bd85527c155",
      "s": "0x277a31071c5a5f803bafb0bea253115ec365221c358ff9ccc2153fce60aa8352",
      "v": 27,
      "creates": null,
      "raw": "0xf86c80850ba43b740082520894c47aaa860008be6f65b58c6c6e02a84e666efe318812649b05e69da000801ba05ae654585e9fdce944bbc6e5333098fbe9cdf699d1f3732696238bd85527c155a0277a31071c5a5f803bafb0bea253115ec365221c358ff9ccc2153fce60aa8352",
      "networkId": 0,
      "chainId": 0
    }
  ]
}