{
  "hash": "0x319eb984acb22188b5fc06ca2dbfd1ed3845bf3be33854f28e027bb223a95844",
  "parentHash": "0x2ebbbe774a5cb211fdceccec142ac4cc7ab94e158f6d42a0e63a443610b42034",
  "number": 97438,
  "timestamp": 1439756235,
  "nonce": "0x0bc94f37d8b2a255",
  "difficulty": 3805613652008,
  "gasLimit": {
    "_hex": "0x2fefd8"
  },
  "gasUsed": {
    "_hex": "0xa674"
  },
  "miner": "0xe6A7a1d47ff21B6321162AEA7C6CB457D5476Bca",
  "extraData": "0x476574682f76312e302e312d38326566323666362f6c696e75782f676f312e34",
  "transactions": [
    {
      "hash": "0x4b329c3934de630ac0aa334f38fd9fb9d373468b731b65ed7bb108c2981879bd",
      "blockHash": "0x319eb984acb22188b5fc06ca2dbfd1ed3845bf3be33854f28e027bb223a95844",
      "blockNumber": 97438,
      "transactionIndex": 0,
      "confirmations": null,
      "from": "0x4CA783B556e5Bf53AA13c8116613d65782C9B642",
      "gasPrice": {
        "_hex": "0x110c8f7d8de"
      },
      "gasLimit": {
        "_hex": "0xc350"
      },
      "to": "0x2910543Af39abA0Cd09dBb2D50200b3E800A63D2",
      "value": {
        "_hex": "0x10f0cf064dd59200000"
      },
      "nonce": 2,
      "data": "0x454e46554d4d574830",
      "r": "0x6048f4070c9125308b9eb6e1e2ac1cc61096691d62bc81272d1e47789d2e1cc5",
      "s": "0xdb3ce1680c6100481aa25c15461104bb5d2ff08632a6156c9e76c09de69ed2ce",
      "v": 27,
      "creates": null,
      "raw": "0xf87802860110c8f7d8de82c350942910543af39aba0cd09dbb2d50200b3e800a63d28a010f0cf064dd5920000089454e46554d4d5748301ba06048f4070c9125308b9eb6e1e2ac1cc61096691d62bc81272d1e47789d2e1cc5a0db3ce1680c6100481aa25c15461104bb5d2ff08632a6156c9e76c09de69ed2ce",
      "networkId": 0,
      "chainId": 0
    },
    {
      "hash": "0x4ca6972482e2edb6ae1821f01030c137ffff97e493aa1f0129a5f87ce77b875d",
      "blockHash": "0x319eb984acb22188b5fc06ca2dbfd1ed3845bf3be33854f28e027bb223a95844",
      "blockNumber": 97438,
      "transactionIndex": 1,
      "confirmations": null,
      "from": "0x32Be343B94f860124dC4fEe278FDCBD38C102D88",
      "gasPrice": {
        "_hex": "0xcdd6acd32"
      },
      "gasLimit": {
        "_hex": "0x5208"
      },
      "to": "0x0024771f89e6884D642040eF15Dd309Eb78BFf0C",
      "value": {
        "_hex": "0x866eb17d3e9cb0000"
      },
      "nonce": 1027,
      "data": "0x",
      "r": "0x4f810475c22d234f8f74e5f88d9558468bd6d8ed8bd3d348c0e241fdbabc4a47",
      "s": "0x31266eb462021d3ab4146db66523d2a2169cf88658e1ebb72709c874936b013c",
      "v": 27,
      "creates": null,
      "raw": "0xf86f820403850cdd6acd32825208940024771f89e6884d642040ef15dd309eb78bff0c890866eb17d3e9cb0000801ba04f810475c22d234f8f74e5f88d9558468bd6d8ed8bd3d348c0e241fdbabc4a47a031266eb462021d3ab4146db66523d2a2169cf88658e1ebb72709c874936b013c",
      "networkId": 0,
      "chainId": 0
    }
  ]
}