{
  "hash": "0x287bb504fd2a7998001d9df4c4d54a9fbdbe1da5638da1d87d9002373b3184f2",
  "parentHash": "0x21ce01d29cc47a5d301948915bfe5160c3d72582040cc261e3a4212f7c371dbc",
  "number": 106894,
  "timestamp": 1439912404,
  "nonce": "0x9c5fcc1a942a8818",
  "difficulty": 4457239866389,
  "gasLimit": {
    "_hex": "0x2fe3db"
  },
  "gasUsed": {
    "_hex": "0xf618"
  },
  "miner": "0xe6A7a1d47ff21B6321162AEA7C6CB457D5476Bca",
  "extraData": "0x476574682f76312e302e312d38326566323666362f6c696e75782f676f312e34",
  "transactions": [
    {
      "hash": "0xc4d9557c70ea3c7c6f114bf2b9fccad03ae1eba5c7c658a56a2ea4c971de3397",
      "blockHash": "0x287bb504fd2a7998001d9df4c4d54a9fbdbe1da5638da1d87d9002373b3184f2",
      "blockNumber": 106894,
      "transactionIndex": 0,
      "confirmations": null,
      "from": "0x6Ea9d172E15e969316f49CB2D5549fc3b00c1ef3",
      "gasPrice": {
        "_hex": "0xdc7a7b4d6"
      },
      "gasLimit": {
        "_hex": "0x5208"
      },
      "to": "0xFBb1b73C4f0BDa4f67dcA266ce6Ef42f520fBB98",
      "value": {
        "_hex": "0xd58c55ff786bdccd50"
      },
      "nonce": 2,
      "data": "0x",
      "r": "0x89ccf68918fbd79d9d7723ae48fc04b57bd5d7d058c3e7efbf8314e38b545390",
      "s": "0x59d5de4db641384a87f6827d686237b1849d24cdd7ebfe9b7a66a3d541db1deb",
      "v": 27,
      "creates": null,
      "raw": "0xf86d02850dc7a7b4d682520894fbb1b73c4f0bda4f67dca266ce6ef42f520fbb9889d58c55ff786bdccd50801ba089ccf68918fbd79d9d7723ae48fc04b57bd5d7d058c3e7efbf8314e38b545390a059d5de4db641384a87f6827d686237b1849d24cdd7ebfe9b7a66a3d541db1deb",
      "networkId": 0,
      "chainId": 0
    },
    {
      "hash": "0x9ae91954f29ddc3701fe573be48b8296d79647a39a43ac67cc20a9e308ba07d6",
      "blockHash": "0x287bb504fd2a7998001d9df4c4d54a9fbdbe1da5638da1d87d9002373b3184f2",
      "blockNumber": 106894,
      "transactionIndex": 1,
      "confirmations": null,
      "from": "0x120A270bbC009644e35F0bB6ab13f95b8199c4ad",
      "gasPrice": {
        "_hex": "0xd4807d934"
      },
      "gasLimit": {
        "_hex": "0x3d090"
      },
      "to": "0x60d85a32126130b225913C23dF4e5EF8b759fA09",
      "value": {
        "_hex": "0x25f273933db5700000"
      },
      "nonce": 793,
      "data": "0x",
      "r": "0xfc67db828ae0cf788157d89b67d740c0bfb6a467093a75baefd3c3b29a238ac5",
      "s": "0x17deafed141adc56f8d098e4b1715d22189c8c121c59a1d650689470a0e56cb1",
      "v": 27,
      "creates": null,
      "raw": "0xf870820319850d4807d9348303d0909460d85a32126130b225913c23df4e5ef8b759fa098925f273933db5700000801ba0fc67db828ae0cf788157d89b67d740c0bfb6a467093a75baefd3c3b29a238ac5a017deafed141adc56f8d098e4b1715d22189c8c121c59a1d650689470a0e56cb1",
      "networkId": 0,
      "chainId": 0
    },
    {
      "hash": "0x55da6771e961ffe225a6a092c73054cfeac1192b1802cf8230c7f6a5a37cd5f5",
      "blockHash": "0x287bb504fd2a7998001d9df4c4d54a9fbdbe1da5638da1d87d9002373b3184f2",
      "blockNumber": 106894,
      "transactionIndex": 2,
      "confirmations": null,
      "from": "0x85987614170a7d08Fbae35c5bc179A0110d1fA2F",
      "gasPrice": {
        "_hex": "0xce193e64c"
      },
      "gasLimit": {
        "_hex": "0x15f90"
      },
      "to": "0xDb2c60B49188a8D0C96A730C0B4b62D25866864C",
      "value": {
        "_hex": "0xe35fa931a0000"
      },
      "nonce": 0,
      "data": "0x",
      "r": "0x6fc64bc686df2a8f9bc9667c92f7726c176347801c0380e876c95c9fefb090fa",
      "s": "0x4de27cc775b721b5cbb2214c04d2e81f491e5b6617780be8291059ec9d4cdcb8",
      "v": 28,
      "creates": null,
      "raw": "0xf86c80850ce193e64c83015f9094db2c60b49188a8d0c96a730c0b4b62d25866864c870e35fa931a0000801ca06fc64bc686df2a8f9bc9667c92f7726c176347801c0380e876c95c9fefb090faa04de27cc775b721b5cbb2214c04d2e81f491e5b6617780be8291059ec9d4cdcb8",
      "networkId": 0,
      "chainId": 0
    }
  ]
}