{
  "hash": "0x46043c3e5b8e69e8bd269a1200d512764705164a4b1061ac8bd7cc1e261ed4f4",
  "parentHash": "0xff4e3693090b0d97ddd96b6330c7a2521495fef433b7ed50107c6893a1d64b0b",
  "number": 65765,
  "timestamp": 1439242494,
  "nonce": "0x22b821d4edb5d6d0",
  "difficulty": 1953930061475,
  "gasLimit": {
    "_hex": "0x2fefd8"
  },
  "gasUsed": {
    "_hex": "0xfb82"
  },
  "miner": "0x9746c7e1ef2bd21FF3997fa467593a89cb852BD0",
  "extraData": "0x476574682f76312e302e312f77696e646f77732f676f312e342e32",
  "transactions": [
    {
      "hash": "0xee97921eb0568c9db05404f4537d446807a501eb8c4a0274b9cd9d482e525bb3",
      "blockHash": "0x46043c3e5b8e69e8bd269a1200d512764705164a4b1061ac8bd7cc1e261ed4f4",
      "blockNumber": 65765,
      "transactionIndex": 0,
      "confirmations": null,
      "from": "0x314c7Daa4825ffC0293819119c5FDCC0CcF19827",
      "gasPrice": {
        "_hex": "0xd6a862840"
      },
      "gasLimit": {
        "_hex": "0x5208"
      },
      "to": "0x32Be343B94f860124dC4fEe278FDCBD38C102D88",
      "value": {
        "_hex": "0xa96815faefb16800000"
      },
      "nonce": 6,
      "data": "0x",
      "r": "0xb7602b0278aa530afaf00edb170c3966b3fc046cab5635fd58523a194ab5fe1b",
      "s": "0x7637d03938f503c15e6047227852537d40247c7488d8fef50bcc3d6b4cbf9f0d",
      "v": 28,
      "creates": null,
      "raw": "0xf86e06850d6a8628408252089432be343b94f860124dc4fee278fdcbd38c102d888a0a96815faefb16800000801ca0b7602b0278aa530afaf00edb170c3966b3fc046cab5635fd58523a194ab5fe1ba07637d03938f503c15e6047227852537d40247c7488d8fef50bcc3d6b4cbf9f0d",
      "networkId": 0,
      "chainId": 0
    },
    {
      "hash": "0x59e6692c0e6e25333b15f1ac418d102092b5820da99547ad56ec708bda012e7e",
      "blockHash": "0x46043c3e5b8e69e8bd269a1200d512764705164a4b1061ac8bd7cc1e261ed4f4",
      "blockNumber": 65765,
      "transactionIndex": 1,
      "confirmations": null,
      "from": "0xFBb1b73C4f0BDa4f67dcA266ce6Ef42f520fBB98",
      "gasPrice": {
        "_hex": "0xd5341da0e"
      },
      "gasLimit": {
        "_hex": "0x15f90"
      },
      "to": "0xa1A111bc074c9cfa781F0C38e63bD51c91b8af00",
      "value": {
        "_hex": "0x3bd913e6c1df40000"
      },
      "nonce": 4,
      "data": "0x432ced044254525800000000000000000000000000000000000000000000000000000000",
      "r": "0x9731d8761e6f65724adb424e18ef11332e9cd5779d7a67eac8cb329a9f60a7a9",
      "s": "0x2ff51c01f85119cf4ddca3c0584f8dee4dcd67edd25ae53f162646a00b69bef0",
      "v": 28,
      "creates": null,
      "raw": "0xf89204850d5341da0e83015f9094a1a111bc074c9cfa781f0c38e63bd51c91b8af008903bd913e6c1df40000a4432ced0442545258000000000000000000000000000000000000000000000000000000001ca09731d8761e6f65724adb424e18ef11332e9cd5779d7a67eac8cb329a9f60a7a9a02ff51c01f85119cf4ddca3c0584f8dee4dcd67edd25ae53f162646a00b69bef0",
      "networkId": 0,
      "chainId": 0
    }
  ]
}