{
  "hash": "0x624ca9c53fbf15f48f460137604926f08057b887afcf3c86a56b7900a4b72142",
  "parentHash": "0x73d6de9f595975c25d12922125d85624b370129cbf99f98fe8e7cc3af343b687",
  "number": 71419,
  "timestamp": 1439335727,
  "nonce": "0x9c5660ca647a95db",
  "difficulty": 2176171623914,
  "gasLimit": {
    "_hex": "0x2fefd8"
  },
  "gasUsed": {
    "_hex": "0xa6e0"
  },
  "miner": "0x580992B51e3925e23280EfB93d3047C82f17E038",
  "extraData": "0x476574682f76312e302e312f6c696e75782f676f312e342e32",
  "transactions": [
    {
      "hash": "0x7a50511dada657a28c5116dde7145b52258e695ff3c6403e901ac2a39ac31cde",
      "blockHash": "0x624ca9c53fbf15f48f460137604926f08057b887afcf3c86a56b7900a4b72142",
      "blockNumber": 71419,
      "transactionIndex": 0,
      "confirmations": null,
      "from": "0x4Fb832B837cc8069f986B1aB7f20759332f89FEb",
      "gasPrice": {
        "_hex": "0x10a7abbc06e"
      },
      "gasLimit": {
        "_hex": "0x15f90"
      },
      "to": "0x97E6E188c5d40431eFEd32DC89c77839c382d841",
      "value": {
        "_hex": "0x429d069189e0000"
      },
      "nonce": 0,
      "data": "0x",
      "r": "0x6eb1a85c5d3cb7245fa1944a121c2cd105cee3be2179e2f91b91f3c88d42fb87",
      "s": "0x6f0f0d4bc03b5a40a43f9deee75332488b435694d2e9282af34c614cfd11fafa",
      "v": 27,
      "creates": null,
      "raw": "0xf86e8086010a7abbc06e83015f909497e6e188c5d40431efed32dc89c77839c382d841880429d069189e0000801ba06eb1a85c5d3cb7245fa1944a121c2cd105cee3be2179e2f91b91f3c88d42fb87a06f0f0d4bc03b5a40a43f9deee75332488b435694d2e9282af34c614cfd11fafa",
      "networkId": 0,
      "chainId": 0
    },
    {
      "hash": "0xe3d219cfc59eb8fe85606fbe96d7ed00edef9674a9baacf96b5864c6e640a0f4",
      "blockHash": "0x624ca9c53fbf15f48f460137604926f08057b887afcf3c86a56b7900a4b72142",
      "blockNumber": 71419,
      "transactionIndex": 1,
      "confirmations": null,
      "from": "0x9d43a960d520cC21608309e5893fd421B09a55Cc",
      "gasPrice": {
        "_hex": "0xde2c2848b"
      },
      "gasLimit": {
        "_hex": "0x15f90"
      },
      "to": "0x0000000000000000000000000000000000000000",
      "value": {
        "_hex": "0x0"
      },
      "nonce": 1,
      "data": "0x432ced044443555344000000000000000000000000000000000000000000000000000000",
      "r": "0x7043322c9d2243b906271fa35ec44939c994406b7f95280b6c64cf0a79d04f9b",
      "s": "0x5c50bd4a65c4382b9efb4e05a9952a89035a2daed6ce179e733b3d6b115e64d6",
      "v": 27,
      "creates": null,
      "raw": "0xf88901850de2c2848b83015f9094000000000000000000000000000000000000000080a4432ced0444435553440000000000000000000000000000000000000000000000000000001ba07043322c9d2243b906271fa35ec44939c994406b7f95280b6c64cf0a79d04f9ba05c50bd4a65c4382b9efb4e05a9952a89035a2daed6ce179e733b3d6b115e64d6",
      "networkId": 0,
      "chainId": 0
    }
  ]
}