{
  "hash": "0xe1504235da98b57310e69491c7a62935eddc128b8b7b68051e4fcdd26e35e036",
  "parentHash": "0x0da43b7f59c4e370097b5fe5b02c119c02888eaeccc2af502cb695db4b67c278",
  "number": 46686,
  "timestamp": 1438927411,
  "nonce": "0x51610fc66eb23d7c",
  "difficulty": 1461753383801,
  "gasLimit": {
    "_hex": "0x7163"
  },
  "gasUsed": {
    "_hex": "0x5208"
  },
  "miner": "0x107C98584d4B18bC54E1D74F4d7a0bF505Ca466f",
  "extraData": "0x476574682f76312e302e312f6c696e75782f676f312e342e32",
  "transactions": [
    {
      "hash": "0x3ce4b7af9264d6b278871aa286cd2a497754516358c17d8f5283e876a43ecd63",
      "blockHash": "0xe1504235da98b57310e69491c7a62935eddc128b8b7b68051e4fcdd26e35e036",
      "blockNumber": 46686,
      "transactionIndex": 0,
      "confirmations": null,
      "from": "0xf06D9Ad3b665226845A219eDaD87696fcE2Fb88E",
      "gasPrice": {
        "_hex": "0x45d964b800"
      },
      "gasLimit": {
        "_hex": "0x5208"
      },
      "to": "0xa627e8DcbEFFa8d3F027715040fCB93a30890a53",
      "value": {
        "_hex": "0xde0b6b3a7640000"
      },
      "nonce": 1,
      "data": "0x",
      "r": "0x4d82acc2d199cae3214a0449298fce9dbf32f5e4f315976ff07cde3a4671c8d7",
      "s": "0x0fc3a2f7e22a0806afb678bc7c60cbcf1d5929f9a05e4e1cae09a0f52634da5e",
      "v": 27,
      "creates": null,
      "raw": "0xf86c018545d964b80082520894a627e8dcbeffa8d3f027715040fcb93a30890a53880de0b6b3a7640000801ba04d82acc2d199cae3214a0449298fce9dbf32f5e4f315976ff07cde3a4671c8d7a00fc3a2f7e22a0806afb678bc7c60cbcf1d5929f9a05e4e1cae09a0f52634da5e",
      "networkId": 0,
      "chainId": 0
    }
  ]
}