{
  "hash": "0x853012a8a945227a0ae635d80276f6ac0c3687a078f9b00a06e061a9c8789878",
  "parentHash": "0x86f5820612cf8b29b04d490df9378fc6d7d7f5dd679d84b2cc79ddb6e0aa3e43",
  "number": 115379,
  "timestamp": 1440056179,
  "nonce": "0x32dbd7bdb73062b4",
  "difficulty": 4560553522280,
  "gasLimit": {
    "_hex": "0x2fefd8"
  },
  "gasUsed": {
    "_hex": "0x1ec30"
  },
  "miner": "0xe6A7a1d47ff21B6321162AEA7C6CB457D5476Bca",
  "extraData": "0x476574682f76312e302e312d38326566323666362f6c696e75782f676f312e34",
  "transactions": [
    {
      "hash": "0x553c85129bb61502da243a8d66d9b4b5d827cced58f07cddbc0dc25446ecba9f",
      "blockHash": "0x853012a8a945227a0ae635d80276f6ac0c3687a078f9b00a06e061a9c8789878",
      "blockNumber": 115379,
      "transactionIndex": 0,
      "confirmations": null,
      "from": "0xc3DBDB3Efa722db2a3F6041b0ca0042782296ba9",
      "gasPrice": {
        "_hex": "0xd60b2db04"
      },
      "gasLimit": {
        "_hex": "0x15f90"
      },
      "to": "0x92857A8BC0A6F66180324f49541C695A3a0Ff944",
      "value": {
        "_hex": "0x238fd42c5cf040000"
      },
      "nonce": 9,
      "data": "0x",
      "r": "0x6486ca049f7c3cdfb3c210cf51fd50148927e94e53c1142dbf700ea895e84e62",
      "s": "0x60439e48ec55b596115907caa076cb0daf96340148c36fd7557e5635a8acec52",
      "v": 28,
      "creates": null,
      "raw": "0xf86e09850d60b2db0483015f909492857a8bc0a6f66180324f49541c695a3a0ff944890238fd42c5cf040000801ca06486ca049f7c3cdfb3c210cf51fd50148927e94e53c1142dbf700ea895e84e62a060439e48ec55b596115907caa076cb0daf96340148c36fd7557e5635a8acec52",
      "networkId": 0,
      "chainId": 0
    },
    {
      "hash": "0x4d3cda99be8033a56484e78ad9af24bd629bc09923274ae08a593b2051d0bd68",
      "blockHash": "0x853012a8a945227a0ae635d80276f6ac0c3687a078f9b00a06e061a9c8789878",
      "blockNumber": 115379,
      "transactionIndex": 1,
      "confirmations": null,
      "from": "0x7550E0d09f273C690454B44F794D7D381B2E55EA",
      "gasPrice": {
        "_hex": "0xd54302c19"
      },
      "gasLimit": {
        "_hex": "0x5208"
      },
      "to": "0x32Be343B94f860124dC4fEe278FDCBD38C102D88",
      "value": {
        "_hex": "0x57a57064a38dac00"
      },
      "nonce": 9,
      "data": "0x",
      "r": "0xba204d697ac35310169ba83f2b171543a20701e23188fa28bbccf852a1939dff",
      "s": "0x29dfa212521a28631410f4b6772b7abd69b67ca5924fe5805676cf0ef50400b7",
      "v": 27,
      "creates": null,
      "raw": "0xf86c09850d54302c198252089432be343b94f860124dc4fee278fdcbd38c102d888857a57064a38dac00801ba0ba204d697ac35310169ba83f2b171543a20701e23188fa28bbccf852a1939dffa029dfa212521a28631410f4b6772b7abd69b67ca5924fe5805676cf0ef50400b7",
      "networkId": 0,
      "chainId": 0
    },
    {
      "hash": "0xa1134ca49efbf39895bdc268dd0cbd0aef344756cee2c3303b91c833a7679abf",
      "blockHash": "0x853012a8a945227a0ae635d80276f6ac0c3687a078f9b00a06e061a9c8789878",
      "blockNumber": 115379,
      "transactionIndex": 2,
      "confirmations": null,
      "from": "0x0A38f5Ba343D4eA8641F955ecf98e1c43dF1B5a3",
      "gasPrice": {
        "_hex": "0xd54302c19"
      },
      "gasLimit": {
        "_hex": "0x5208"
      },
      "to": "0x32Be343B94f860124dC4fEe278FDCBD38C102D88",
      "value": {
        "_hex": "0x11367866701b88000"
      },
      "nonce": 7,
      "data": "0x",
      "r": "0x88b0604c40f0cb6b3c332144d836c717d48d3f75f95ee7edd4f0e67e23ccdefb",
      "s": "0x39153736d1ebf28e805911ba26ccc8eff1ab666570b5685a687c5bf8ea452c35",
      "v": 27,
      "creates": null,
      "raw": "0xf86d07850d54302c198252089432be343b94f860124dc4fee278fdcbd38c102d8889011367866701b88000801ba088b0604c40f0cb6b3c332144d836c717d48d3f75f95ee7edd4f0e67e23ccdefba039153736d1ebf28e805911ba26ccc8eff1ab666570b5685a687c5bf8ea452c35",
      "networkId": 0,
      "chainId": 0
    },
    {
      "hash": "0x98607353c195cd7ed78ed16745c215fb67498862a8c16669d55155740c0b968b",
      "blockHash": "0x853012a8a945227a0ae635d80276f6ac0c3687a078f9b00a06e061a9c8789878",
      "blockNumber": 115379,
      "transactionIndex": 3,
      "confirmations": null,
      "from": "0x3b09EfC81d5e3F72737B4063883CEDdfBc79ae88",
      "gasPrice": {
        "_hex": "0xd54302c19"
      },
      "gasLimit": {
        "_hex": "0x5208"
      },
      "to": "0x32Be343B94f860124dC4fEe278FDCBD38C102D88",
      "value": {
        "_hex": "0x2ca48da1d1e3e000"
      },
      "nonce": 9,
      "data": "0x",
      "r": "0x4222859acc2bf232c983c7340eab300ff613de608b5a3a2985d004098bdbdda3",
      "s": "0x420455e7c49e5afb227346a1adcd8568203d7fa2476eb4f2fddd6a72c98efcd3",
      "v": 28,
      "creates": null,
      "raw": "0xf86c09850d54302c198252089432be343b94f860124dc4fee278fdcbd38c102d88882ca48da1d1e3e000801ca04222859acc2bf232c983c7340eab300ff613de608b5a3a2985d004098bdbdda3a0420455e7c49e5afb227346a1adcd8568203d7fa2476eb4f2fddd6a72c98efcd3",
      "networkId": 0,
      "chainId": 0
    },
    {
      "hash": "0x49c98d833052df246e7608f808737a0bcf68d0002652d336f229264fdf2bc59c",
      "blockHash": "0x853012a8a945227a0ae635d80276f6ac0c3687a078f9b00a06e061a9c8789878",
      "blockNumber": 115379,
      "transactionIndex": 4,
      "confirmations": null,
      "from": "0xDd087A46e53FdDCe3d8FF96970235ae746b77D5c",
      "gasPrice": {
        "_hex": "0xd54302c19"
      },
      "gasLimit": {
        "_hex": "0x5208"
      },
      "to": "0x32Be343B94f860124dC4fEe278FDCBD38C102D88",
      "value": {
        "_hex": "0xe4c0714a467b000"
      },
      "nonce": 2,
      "data": "0x",
      "r": "0x709708580059fd2de87f09cc02cbe44ec2162b7e0ad89b1d14b9621b9cb8ceb3",
      "s": "0x5cc448e82c61454c9fcb075ace8109c1b261050ee05a902b3ab4ffc3308df89e",
      "v": 28,
      "creates": null,
      "raw": "0xf86c02850d54302c198252089432be343b94f860124dc4fee278fdcbd38c102d88880e4c0714a467b000801ca0709708580059fd2de87f09cc02cbe44ec2162b7e0ad89b1d14b9621b9cb8ceb3a05cc448e82c61454c9fcb075ace8109c1b261050ee05a902b3ab4ffc3308df89e",
      "networkId": 0,
      "chainId": 0
    },
    {
      "hash": "0x3bc5238b45fae4724c3d55b119cac78e44a2b840badcc784bc491e61aa534c31",
      "blockHash": "0x853012a8a945227a0ae635d80276f6ac0c3687a078f9b00a06e061a9c8789878",
      "blockNumber": 115379,
      "transactionIndex": 5,
      "confirmations": null,
      "from": "0xD671e71108Bd20F1A8e2A4f73a7449Bf8DAa840f",
      "gasPrice": {
        "_hex": "0xd54302c19"
      },
      "gasLimit": {
        "_hex": "0x5208"
      },
      "to": "0x32Be343B94f860124dC4fEe278FDCBD38C102D88",
      "value": {
        "_hex": "0x28b8a7184a54c000"
      },
      "nonce": 9,
      "data": "0x",
      "r": "0xe2fcd309d6198677a88a3271046dc398be603b560fbb07c8cafa797584ac192d",
      "s": "0x1354cea35c1d23dca3c54ab896ff1ae3d044cdded274fab4dbcc4f5295056ce3",
      "v": 27,
      "creates": null,
      "raw": "0xf86c09850d54302c198252089432be343b94f860124dc4fee278fdcbd38c102d888828b8a7184a54c000801ba0e2fcd309d6198677a88a3271046dc398be603b560fbb07c8cafa797584ac192da01354cea35c1d23dca3c54ab896ff1ae3d044cdded274fab4dbcc4f5295056ce3",
      "networkId": 0,
      "chainId": 0
    }
  ]
}