{
  "hash": "0xafede6d8a1348ef0af2b5324d3df9a7a3c8ee4781e71937b886bcd8c542dda23",
  "parentHash": "0x4eed00e6c8b788f8c0682292db5ced41290bd0de7d0b2821fcb871219c81cce6",
  "number": 54631,
  "timestamp": 1439057420,
  "nonce": "0xe5c760dcb304ae15",
  "difficulty": 1625187424416,
  "gasLimit": {
    "_hex": "0x2fefd5"
  },
  "gasUsed": {
    "_hex": "0x5208"
  },
  "miner": "0xf927a40C8B7F6E07c5af7FA2155B4864a4112B13",
  "extraData": "0x476574682f76312e302e312f6c696e75782f676f312e342e32",
  "transactions": [
    {
      "hash": "0xcb19ccf48169c4997cdf2cb7335a916d7f1fad9840b6e22f1041e467f45195bb",
      "blockHash": "0xafede6d8a1348ef0af2b5324d3df9a7a3c8ee4781e71937b886bcd8c542dda23",
      "blockNumber": 54631,
      "transactionIndex": 0,
      "confirmations": null,
      "from": "0xCA092A957744f6385B1aee5dC694143E8A06F805",
      "gasPrice": {
        "_hex": "0xcaf9cce82"
      },
      "gasLimit": {
        "_hex": "0x15f90"
      },
      "to": "0x5d5De1914CAFd268A7dF68028B849637c0c01cD6",
      "value": {
        "_hex": "0x3b7ca6c73ce1c00"
      },
      "nonce": 18,
      "data": "0x",
      "r": "0x7eb23582d0a01eb3b20d0450459f0c1e22cc41dc574045d422d4db2d97433063",
      "s": "0x7b93105f755a5fb60e6382d4e2a483a87aea14a8a82cee7e2606d00dc681d3b7",
      "v": 28,
      "creates": null,
      "raw": "0xf86d12850caf9cce8283015f90945d5de1914cafd268a7df68028b849637c0c01cd68803b7ca6c73ce1c00801ca07eb23582d0a01eb3b20d0450459f0c1e22cc41dc574045d422d4db2d97433063a07b93105f755a5fb60e6382d4e2a483a87aea14a8a82cee7e2606d00dc681d3b7",
      "networkId": 0,
      "chainId": 0
    }
  ]
}