{
  "hash": "0x6f473d383cf8cfd36e940b93ca4f12aadfac5d7fe7482f2a7df8da800bd20e3a",
  "parentHash": "0x508b2e369f08780e6c0a3101d91cadbffba537eb01ab05522cee320aeda7b39f",
  "number": 60062,
  "timestamp": 1439148459,
  "nonce": "0x104624ab0eaf7bf6",
  "difficulty": 1728039355260,
  "gasLimit": {
    "_hex": "0x2fefd8"
  },
  "gasUsed": {
    "_hex": "0x5208"
  },
  "miner": "0xa50ec0D39fa913E62f1Bae7074E6F36caA71855b",
  "extraData": "0x",
  "transactions": [
    {
      "hash": "0x4c82a663948e1442fe23ce7491b6a4c6a99a75a297e532668df72ae643745056",
      "blockHash": "0x6f473d383cf8cfd36e940b93ca4f12aadfac5d7fe7482f2a7df8da800bd20e3a",
      "blockNumber": 60062,
      "transactionIndex": 0,
      "confirmations": null,
      "from": "0x0d40Eecbe334645daAD62826cc6963b541830101",
      "gasPrice": {
        "_hex": "0x746a528800"
      },
      "gasLimit": {
        "_hex": "0x5b04"
      },
      "to": "0x0d40Eecbe334645daAD62826cc6963b541830101",
      "value": {
        "_hex": "0x16345785d8a0000"
      },
      "nonce": 0,
      "data": "0x",
      "r": "0xe5378ae6b137582543765e50983c372ff9e6fb04c9acb2788a102d0806d09421",
      "s": "0xbad875229cf669df48d46a83003383340e085bf7bfe2f4c28a53844cf0e52998",
      "v": 28,
      "creates": null,
      "raw": "0xf86c8085746a528800825b04940d40eecbe334645daad62826cc6963b54183010188016345785d8a0000801ca0e5378ae6b137582543765e50983c372ff9e6fb04c9acb2788a102d0806d09421a0bad875229cf669df48d46a83003383340e085bf7bfe2f4c28a53844cf0e52998",
      "networkId": 0,
      "chainId": 0
    }
  ]
}