{
  "hash": "0x6fb5a7ddcb9329d5e4ccb379d039ff36d51ea8a45184270cd10983f93aeb1e44",
  "parentHash": "0x69bd6e1f9e4294c8beb1bc488133927639e844322107f1b8eaebc8d007249a9f",
  "number": 86135,
  "timestamp": 1439573940,
  "nonce": "0x6a69a4ecbfda53c8",
  "difficulty": 2808495331844,
  "gasLimit": {
    "_hex": "0x2fefd8"
  },
  "gasUsed": {
    "_hex": "0x546c"
  },
  "miner": "0x306e6267d94f23a9b37Cb110f20852208Fbbf1aA",
  "extraData": "0x",
  "transactions": [
    {
      "hash": "0x97936820f065ad936fdf7a1be044ac94f43b49ac639b0310824a875e7ef8dccb",
      "blockHash": "0x6fb5a7ddcb9329d5e4ccb379d039ff36d51ea8a45184270cd10983f93aeb1e44",
      "blockNumber": 86135,
      "transactionIndex": 0,
      "confirmations": null,
      "from": "0xCfF7f89a4D4219A38295251331568210FfC1c134",
      "gasPrice": {
        "_hex": "0x110c8f7d8de"
      },
      "gasLimit": {
        "_hex": "0xc350"
      },
      "to": "0x2910543Af39abA0Cd09dBb2D50200b3E800A63D2",
      "value": {
        "_hex": "0x4563918244f40000"
      },
      "nonce": 0,
      "data": "0x454e554a4634524238",
      "r": "0xf17c2ec5a90fee52b1198648962c07ab0765e2cd899c139153951ef004353352",
      "s": "0x16f7f34b8926b06ddf05b6583b88cfe9ddb42f71a185cba4a89e7890369b5e30",
      "v": 28,
      "creates": null,
      "raw": "0xf87680860110c8f7d8de82c350942910543af39aba0cd09dbb2d50200b3e800a63d2884563918244f4000089454e554a46345242381ca0f17c2ec5a90fee52b1198648962c07ab0765e2cd899c139153951ef004353352a016f7f34b8926b06ddf05b6583b88cfe9ddb42f71a185cba4a89e7890369b5e30",
      "networkId": 0,
      "chainId": 0
    }
  ]
}