{
  "hash": "0x5c96aaac528034bad2711a07fa6f0e930a2db30c3e3857cc5165de88e09ad570",
  "parentHash": "0x8174740686819f026f60f80737f45bf92857fbc577130b3627ba2569d2bf5f38",
  "number": 119005,
  "timestamp": 1440135244,
  "nonce": "0xc303189744ecd45a",
  "difficulty": 4409708652384,
  "gasLimit": {
    "_hex": "0x2fefd8"
  },
  "gasUsed": {
    "_hex": "0x5208"
  },
  "miner": "0x608f4b86321a68453f9adf6F06F7Fc3E621739ad",
  "extraData": "0xd783010002844765746887676f312e342e32856c696e7578",
  "transactions": [
    {
      "hash": "0x0581c70f37cb0d30450db173914e08462dc14235a0eb46739244dabd40c98797",
      "blockHash": "0x5c96aaac528034bad2711a07fa6f0e930a2db30c3e3857cc5165de88e09ad570",
      "blockNumber": 119005,
      "transactionIndex": 0,
      "confirmations": null,
      "from": "0xa453AcECDf4a4ba4FF7f6020064604c84e297Fb1",
      "gasPrice": {
        "_hex": "0xba43b7400"
      },
      "gasLimit": {
        "_hex": "0x5208"
      },
      "to": "0xFBb1b73C4f0BDa4f67dcA266ce6Ef42f520fBB98",
      "value": {
        "_hex": "0xddcfbbb7a606000"
      },
      "nonce": 0,
      "data": "0x",
      "r": "0x680eed3e26fec6b5f37e1a273d814c50cf3c5d20164e75ca8b7b2de66abf536e",
      "s": "0x1e4dad127a0bcdf2b97f1a25e732b6e459b97bf2ada0ff342e1227451f7d7127",
      "v": 27,
      "creates": null,
      "raw": "0xf86c80850ba43b740082520894fbb1b73c4f0bda4f67dca266ce6ef42f520fbb98880ddcfbbb7a606000801ba0680eed3e26fec6b5f37e1a273d814c50cf3c5d20164e75ca8b7b2de66abf536ea01e4dad127a0bcdf2b97f1a25e732b6e459b97bf2ada0ff342e1227451f7d7127",
      "networkId": 0,
      "chainId": 0
    }
  ]
}