{
  "hash": "0x72c1b4540260175e50b8f60f7449b20a1ef8eec49dc634e1e7b1439f934cd474",
  "parentHash": "0x35b2f2ffbbf5b049e30ce0e3038cffd74ab9f7f53b21488c8a7b06ccfee2299e",
  "number": 88476,
  "timestamp": 1439608566,
  "nonce": "0xad248575563134a9",
  "difficulty": 3242720967040,
  "gasLimit": {
    "_hex": "0x2fefd8"
  },
  "gasUsed": {
    "_hex": "0x5208"
  },
  "miner": "0xe6A7a1d47ff21B6321162AEA7C6CB457D5476Bca",
  "extraData": "0x476574682f76312e302e312d38326566323666362f6c696e75782f676f312e34",
  "transactions": [
    {
      "hash": "0x8b29f071b68225b12a1569eae5fe415b9cf90de16f88afa44d89438d2c1bfb37",
      "blockHash": "0x72c1b4540260175e50b8f60f7449b20a1ef8eec49dc634e1e7b1439f934cd474",
      "blockNumber": 88476,
      "transactionIndex": 0,
      "confirmations": null,
      "from": "0x566B3E44014f2a2587e054AdFA915861AE82Fe39",
      "gasPrice": {
        "_hex": "0xba43b7400"
      },
      "gasLimit": {
        "_hex": "0x5208"
      },
      "to": "0xC47Aaa860008be6f65B58c6C6E02a84e666EfE31",
      "value": {
        "_hex": "0x39e384bc5a11194f0"
      },
      "nonce": 5,
      "data": "0x",
      "r": "0xf8c0f18fda8a92f321334f6231f09815af50179c0dedae2003c25d3439e07b12",
      "s": "0x7745700c169e365fa0c48ead5899e72f91205f27d214e45a8fa0308be2dc9bdd",
      "v": 27,
      "creates": null,
      "raw": "0xf86d05850ba43b740082520894c47aaa860008be6f65b58c6c6e02a84e666efe3189039e384bc5a11194f0801ba0f8c0f18fda8a92f321334f6231f09815af50179c0dedae2003c25d3439e07b12a07745700c169e365fa0c48ead5899e72f91205f27d214e45a8fa0308be2dc9bdd",
      "networkId": 0,
      "chainId": 0
    }
  ]
}