{
  "hash": "0x46735c840c471a4005bacd0168114687da0f05d486a5739074db826d8dc16855",
  "parentHash": "0x04b24400a3c7f387bcf4584a2356afd0e9ee36c1b11321607f89baeee4eb9b5a",
  "number": 94045,
  "timestamp": 1439701730,
  "nonce": "0xde59b631a8f03455",
  "difficulty": 3488526287970,
  "gasLimit": {
    "_hex": "0x2fefd8"
  },
  "gasUsed": {
    "_hex": "0x5208"
  },
  "miner": "0x157c6f2431eB1a95797EE86F7d17b3c0FD47A247",
  "extraData": "0x476574682f76312e302e312f77696e646f77732f676f312e342e32",
  "transactions": [
    {
      "hash": "0x155bbae16e2a97caaa23394fced4e5cca6173a08b168147693246cfe6880b386",
      "blockHash": "0x46735c840c471a4005bacd0168114687da0f05d486a5739074db826d8dc16855",
      "blockNumber": 94045,
      "transactionIndex": 0,
      "confirmations": null,
      "from": "0x47e25df8822538a8596b28c637896B4D143c351D",
      "gasPrice": {
        "_hex": "0xd359b698e"
      },
      "gasLimit": {
        "_hex": "0x15f90"
      },
      "to": "0x2878c60b86FBf89645547fEcFA7f74B067f32E52",
      "value": {
        "_hex": "0x56bc75e2d63100000"
      },
      "nonce": 1,
      "data": "0x",
      "r": "0x249ba169516f53f33c88dd66ff3a115d94d6307d7ed9df835ffa505d6be04743",
      "s": "0x327e4293792e5e2c9014d57cc633c0c930dd1274da786f1864ab8bd656dbbf64",
      "v": 27,
      "creates": null,
      "raw": "0xf86e01850d359b698e83015f90942878c60b86fbf89645547fecfa7f74b067f32e5289056bc75e2d63100000801ba0249ba169516f53f33c88dd66ff3a115d94d6307d7ed9df835ffa505d6be04743a0327e4293792e5e2c9014d57cc633c0c930dd1274da786f1864ab8bd656dbbf64",
      "networkId": 0,
      "chainId": 0
    }
  ]
}