{
  "hash": "0x36de7facd6a331c5986c262730934179e0b11e3a87c16b8cfb430c79df9aa005",
  "parentHash": "0x4ce7e36a8bbcedc58eeb3ba8a2883cafa426a0a33124bafae72f82dc69f471ba",
  "number": 91770,
  "timestamp": 1439661251,
  "nonce": "0x07c6cb3801a4dceb",
  "difficulty": 3480963678995,
  "gasLimit": {
    "_hex": "0x2fefd8"
  },
  "gasUsed": {
    "_hex": "0xf4240"
  },
  "miner": "0xC603Ab5ef41fC61AA8b76bEddb09e3Cfcbb174BD",
  "extraData": "0x476574682f76312e302e312f77696e646f77732f676f312e342e32",
  "transactions": [
    {
      "hash": "0x33e3c14638f980fe7ca1aabe3faad533f69305b8631712f56bcea0e8bd273195",
      "blockHash": "0x36de7facd6a331c5986c262730934179e0b11e3a87c16b8cfb430c79df9aa005",
      "blockNumber": 91770,
      "transactionIndex": 0,
      "confirmations": null,
      "from": "0x94B4EA2caa897785bb092aB92caa27081Ef32c82",
      "gasPrice": {
        "_hex": "0xd5403d590"
      },
      "gasLimit": {
        "_hex": "0x7a120"
      },
      "to": "0xA327075af2a223A1C83a36aDa1126afE7430f955",
      "value": {
        "_hex": "0x8ac7230489e80000"
      },
      "nonce": 11,
      "data": "0x",
      "r": "0x794f6a301e76ada72176ae8f4848dca581523d6f050ee86baf6cfa74a31f38e5",
      "s": "0x766ae8165d5fb2b745ee9f121bfc6d774baed183ca98ac30a32f1fe18b3a6aff",
      "v": 27,
      "creates": null,
      "raw": "0xf86d0b850d5403d5908307a12094a327075af2a223a1c83a36ada1126afe7430f955888ac7230489e80000801ba0794f6a301e76ada72176ae8f4848dca581523d6f050ee86baf6cfa74a31f38e5a0766ae8165d5fb2b745ee9f121bfc6d774baed183ca98ac30a32f1fe18b3a6aff",
      "networkId": 0,
      "chainId": 0
    },
    {
      "hash": "0x9966a7570422f3e7f274e7d634f8cd892268fe1473a8856215929de62199e5e5",
      "blockHash": "0x36de7facd6a331c5986c262730934179e0b11e3a87c16b8cfb430c79df9aa005",
      "blockNumber": 91770,
      "transactionIndex": 1,
      "confirmations": null,
      "from": "0x94B4EA2caa897785bb092aB92caa27081Ef32c82",
      "gasPrice": {
        "_hex": "0xd5403d590"
      },
      "gasLimit": {
        "_hex": "0x7a120"
      },
      "to": "0xBAA54d6E90c3F4d7Ebec11bD180134C7eD8eBb52",
      "value": {
        "_hex": "0x16345785d8a0000"
      },
      "nonce": 12,
      "data": "0x",
      "r": "0x4ef311925efe11fed92108264435735469981c9cabb1d2528da8c403f9e2698f",
      "s": "0x3798b5dc19141a38ba6fd47d10da466f87601c19a3ef948a84744641a1f9d5ed",
      "v": 27,
      "creates": null,
      "raw": "0xf86d0c850d5403d5908307a12094baa54d6e90c3f4d7ebec11bd180134c7ed8ebb5288016345785d8a0000801ba04ef311925efe11fed92108264435735469981c9cabb1d2528da8c403f9e2698fa03798b5dc19141a38ba6fd47d10da466f87601c19a3ef948a84744641a1f9d5ed",
      "networkId": 0,
      "chainId": 0
    }
  ]
}