{
  "hash": "0x7323b870f04fc408cbd64d74f0c9a2c16f49824e7adb705627cc629b56566d2f",
  "parentHash": "0xb753c4bc633c5e8915931d0e8e1f7b5378f197554d1e9431ae65503da0526958",
  "number": 59701,
  "timestamp": 1439142267,
  "nonce": "0x26bd9b6e65bf95cb",
  "difficulty": 1713828398850,
  "gasLimit": {
    "_hex": "0x2fefd5"
  },
  "gasUsed": {
    "_hex": "0x5208"
  },
  "miner": "0xDdf735543837695220A5fF5920f5756696840A5D",
  "extraData": "0x476574682f76312e302e312f6c696e75782f676f312e342e32",
  "transactions": [
    {
      "hash": "0x6f19d6e1fa610234d353bec0336d370b84a0ff85e23ebe132ce27878a7a52510",
      "blockHash": "0x7323b870f04fc408cbd64d74f0c9a2c16f49824e7adb705627cc629b56566d2f",
      "blockNumber": 59701,
      "transactionIndex": 0,
      "confirmations": null,
      "from": "0xeD17Ea8E9fd42159037deE95ea173a56c54f55ce",
      "gasPrice": {
        "_hex": "0xda77426b7"
      },
      "gasLimit": {
        "_hex": "0x5208"
      },
      "to": "0x32Be343B94f860124dC4fEe278FDCBD38C102D88",
      "value": {
        "_hex": "0x41eb1d0fee2d98000"
      },
      "nonce": 14,
      "data": "0x",
      "r": "0x0a60212c3f72bb74670a6d14a0e321e6e29e6874894e1e3c9c785d334b6d8271",
      "s": "0x7b34055f24fc9ac10b48d81889f3e2c31466077aa6ddcfb6a7a667bdd35559d2",
      "v": 28,
      "creates": null,
      "raw": "0xf86d0e850da77426b78252089432be343b94f860124dc4fee278fdcbd38c102d8889041eb1d0fee2d98000801ca00a60212c3f72bb74670a6d14a0e321e6e29e6874894e1e3c9c785d334b6d8271a07b34055f24fc9ac10b48d81889f3e2c31466077aa6ddcfb6a7a667bdd35559d2",
      "networkId": 0,
      "chainId": 0
    }
  ]
}