{
  "hash": "0xdd72acb0c5fa39db304b31974b55bd03c513ccc14195029f172dc3a33558efed",
  "parentHash": "0x738e9b85bf88d3838694069c568ad4fa19276d35d81affc5e02eef7c18ae0a62",
  "number": 121943,
  "timestamp": 1440185269,
  "nonce": "0x9220c7b0cc0a4a92",
  "difficulty": 4477582975158,
  "gasLimit": {
    "_hex": "0x2fefd8"
  },
  "gasUsed": {
    "_hex": "0x5208"
  },
  "miner": "0x52bc44d5378309EE2abF1539BF71dE1b7d7bE3b5",
  "extraData": "0xd783010002844765746887676f312e342e32856c696e7578",
  "transactions": [
    {
      "hash": "0xaf44acfb52b9af485a2808c6b85d487a07b7900066b079e696ce5e5f5fd6dbdb",
      "blockHash": "0xdd72acb0c5fa39db304b31974b55bd03c513ccc14195029f172dc3a33558efed",
      "blockNumber": 121943,
      "transactionIndex": 0,
      "confirmations": null,
      "from": "0xbF61b895993396Eccb341Cd1CDdC2ef0C0601c72",
      "gasPrice": {
        "_hex": "0xba43b7400"
      },
      "gasLimit": {
        "_hex": "0x5208"
      },
      "to": "0x1C257ad4A55105ea3B58Ed374b198dA266c85f63",
      "value": {
        "_hex": "0xb5e620f48000"
      },
      "nonce": 0,
      "data": "0x",
      "r": "0xcc6ae030f3e8d396b4a6ebb9e5c1706e2b851b136dcaf197130ec998c5cd6622",
      "s": "0x743d599802a5b9bf54a338db0d01b0a87f623fcfe54e49e3f8f7f13a112c948a",
      "v": 27,
      "creates": null,
      "raw": "0xf86a80850ba43b7400825208941c257ad4a55105ea3b58ed374b198da266c85f6386b5e620f48000801ba0cc6ae030f3e8d396b4a6ebb9e5c1706e2b851b136dcaf197130ec998c5cd6622a0743d599802a5b9bf54a338db0d01b0a87f623fcfe54e49e3f8f7f13a112c948a",
      "networkId": 0,
      "chainId": 0
    }
  ]
}