{
  "hash": "0x8409bb303cf9020a4b0f1b6fba0aba0808444ddaf9a369d1f3bfbf77b425ddcd",
  "parentHash": "0x83d11ed4da07dc7f4c3f77e7b2d624e1590d4d73861a0309cf9e90ecae56b620",
  "number": 54253,
  "timestamp": 1439051262,
  "nonce": "0x15f2ba5387ba8b87",
  "difficulty": 1604757885177,
  "gasLimit": {
    "_hex": "0x2fefd8"
  },
  "gasUsed": {
    "_hex": "0x546c"
  },
  "miner": "0xf927a40C8B7F6E07c5af7FA2155B4864a4112B13",
  "extraData": "0x476574682f76312e302e312f6c696e75782f676f312e342e32",
  "transactions": [
    {
      "hash": "0x2b8d01c4c48bb93f826b9fe93ee3212e902e5779635cb74a10f7ada1571967b9",
      "blockHash": "0x8409bb303cf9020a4b0f1b6fba0aba0808444ddaf9a369d1f3bfbf77b425ddcd",
      "blockNumber": 54253,
      "transactionIndex": 0,
      "confirmations": null,
      "from": "0x38695fC7e1367cEb163eBb053751f9f68ddB07a0",
      "gasPrice": {
        "_hex": "0x110c8f7d8de"
      },
      "gasLimit": {
        "_hex": "0xc350"
      },
      "to": "0x2910543Af39abA0Cd09dBb2D50200b3E800A63D2",
      "value": {
        "_hex": "0x56bc75e2d63100000"
      },
      "nonce": 0,
      "data": "0x454e39394546565530",
      "r": "0x15d1a3eaed1d0a3a5874f46a885f405efdd677afd22877e4bb7198299a0c15a6",
      "s": "0x98db53ec8a4edb29bec5d291e358f2c29a2a7da326dbe871bda6ce78d4316a50",
      "v": 28,
      "creates": null,
      "raw": "0xf87780860110c8f7d8de82c350942910543af39aba0cd09dbb2d50200b3e800a63d289056bc75e2d6310000089454e393945465655301ca015d1a3eaed1d0a3a5874f46a885f405efdd677afd22877e4bb7198299a0c15a6a098db53ec8a4edb29bec5d291e358f2c29a2a7da326dbe871bda6ce78d4316a50",
      "networkId": 0,
      "chainId": 0
    }
  ]
}