{
  "hash": "0x19984a080e20c8cbff9f616058faa8ae5de30a3fa759ab3737ffaa9039f5aa1d",
  "parentHash": "0x1cdbd67f56dde7157f612b6edab791efb38881ebedbb689eeac45d0ff14dce81",
  "number": 90121,
  "timestamp": 1439634863,
  "nonce": "0x8d98ec79d7177a3d",
  "difficulty": 3317348778678,
  "gasLimit": {
    "_hex": "0x2fefd5"
  },
  "gasUsed": {
    "_hex": "0x1345e"
  },
  "miner": "0xe6A7a1d47ff21B6321162AEA7C6CB457D5476Bca",
  "extraData": "0x476574682f76312e302e312d38326566323666362f6c696e75782f676f312e34",
  "transactions": [
    {
      "hash": "0x46914fed236624d90e1684f99c320cd696b286ca5eff372845f4100be372e486",
      "blockHash": "0x19984a080e20c8cbff9f616058faa8ae5de30a3fa759ab3737ffaa9039f5aa1d",
      "blockNumber": 90121,
      "transactionIndex": 0,
      "confirmations": null,
      "from": "0x9dD46b1C6D3F05e29E9c6f037eED9a595Af4A9aa",
      "gasPrice": {
        "_hex": "0x10b532011e0"
      },
      "gasLimit": {
        "_hex": "0x59d8"
      },
      "to": "0xF3786E61962AB4fBD64819cCf11A8Bb563f9EC47",
      "value": {
        "_hex": "0xde0b6b3a7640000"
      },
      "nonce": 0,
      "data": "0x",
      "r": "0x35f17122afc6dc84836c669a9e5bd91c066b1272369355e631818894a7e5c369",
      "s": "0x54d9715700ab99def0418efbe6bda3516ea18f7622117e5c1bffb773e8fbfd5b",
      "v": 28,
      "creates": null,
      "raw": "0xf86d8086010b532011e08259d894f3786e61962ab4fbd64819ccf11a8bb563f9ec47880de0b6b3a7640000801ca035f17122afc6dc84836c669a9e5bd91c066b1272369355e631818894a7e5c369a054d9715700ab99def0418efbe6bda3516ea18f7622117e5c1bffb773e8fbfd5b",
      "networkId": 0,
      "chainId": 0
    },
    {
      "hash": "0x7d34adf5f91487f808186b8f3f08ecbbf71592a19c2855d02b4be5a3d0a96a87",
      "blockHash": "0x19984a080e20c8cbff9f616058faa8ae5de30a3fa759ab3737ffaa9039f5aa1d",
      "blockNumber": 90121,
      "transactionIndex": 1,
      "confirmations": null,
      "from": "0xFBb1b73C4f0BDa4f67dcA266ce6Ef42f520fBB98",
      "gasPrice": {
        "_hex": "0xce7058dbf"
      },
      "gasLimit": {
        "_hex": "0x15f90"
      },
      "to": "0xCAc7000C7dBaa2E33Af15325AF5D435E011C7BdD",
      "value": {
        "_hex": "0x0"
      },
      "nonce": 40,
      "data": "0x3feb1bd842495454524558303000000000000000000000000000000000000000000000000000000000000000000000003f078914156a83a96e4e54e51444c2654e980387000000000000000000000000000000000000000000000001b05e5b316adc0800",
      "r": "0xa073ce0129dd3644c20238af0a62291cfe9008a41cf65b1598c4f694c000b3b1",
      "s": "0x1995a0ae3556b9dc16a3cafc8c2acda00839aac9afbcdc2dbfc8a4ef09b95544",
      "v": 27,
      "creates": null,
      "raw": "0xf8ca28850ce7058dbf83015f9094cac7000c7dbaa2e33af15325af5d435e011c7bdd80b8643feb1bd842495454524558303000000000000000000000000000000000000000000000000000000000000000000000003f078914156a83a96e4e54e51444c2654e980387000000000000000000000000000000000000000000000001b05e5b316adc08001ba0a073ce0129dd3644c20238af0a62291cfe9008a41cf65b1598c4f694c000b3b1a01995a0ae3556b9dc16a3cafc8c2acda00839aac9afbcdc2dbfc8a4ef09b95544",
      "networkId": 0,
      "chainId": 0
    }
  ]
}