{
  "hash": "0x0a73a0f4cdb1c6098c70a93ffbcf5d879fd1052b70a2b4e79be732fb8738414a",
  "parentHash": "0x417a9fbf8f1e2b2617e86e320f93989c9d899b8142855369c01f411fc6ad3c04",
  "number": 72909,
  "timestamp": 1439360212,
  "nonce": "0xa500989c428ab4d2",
  "difficulty": 2194992519388,
  "gasLimit": {
    "_hex": "0x2fefd8"
  },
  "gasUsed": {
    "_hex": "0x5208"
  },
  "miner": "0xf927a40C8B7F6E07c5af7FA2155B4864a4112B13",
  "extraData": "0x",
  "transactions": [
    {
      "hash": "0xb65ab520ccf75462dc1064a4d52559295da1bf323965c33a21cfe9d57de9535d",
      "blockHash": "0x0a73a0f4cdb1c6098c70a93ffbcf5d879fd1052b70a2b4e79be732fb8738414a",
      "blockNumber": 72909,
      "transactionIndex": 0,
      "confirmations": null,
      "from": "0xcaEFdC9e1FA8EBB611f06963088428cae1Ecac1A",
      "gasPrice": {
        "_hex": "0xccf21e7c1"
      },
      "gasLimit": {
        "_hex": "0x5208"
      },
      "to": "0x32Be343B94f860124dC4fEe278FDCBD38C102D88",
      "value": {
        "_hex": "0x14534b1afc358f00000"
      },
      "nonce": 1,
      "data": "0x",
      "r": "0xe86ca8e9b0002fcc5908de60f09475043fae3d91fe4daa45f7748f58a98ade4f",
      "s": "0x5e536838c1dcc8ef7a203950e1ef47385fc3da24a02e3fd396c2ebe4bede7bc2",
      "v": 28,
      "creates": null,
      "raw": "0xf86e01850ccf21e7c18252089432be343b94f860124dc4fee278fdcbd38c102d888a014534b1afc358f00000801ca0e86ca8e9b0002fcc5908de60f09475043fae3d91fe4daa45f7748f58a98ade4fa05e536838c1dcc8ef7a203950e1ef47385fc3da24a02e3fd396c2ebe4bede7bc2",
      "networkId": 0,
      "chainId": 0
    }
  ]
}