{
  "hash": "0x250dbbc57d7dbba827d3d0dfd6469e607c8f4c9e84c6dec3bae7f3584f4e4776",
  "parentHash": "0x9aee7124dfb51dce56e5ac4fefdc13865b738df5f1f8e0a25ae6b56144649142",
  "number": 111386,
  "timestamp": 1439989281,
  "nonce": "0xf5887670460baea4",
  "difficulty": 4441821475254,
  "gasLimit": {
    "_hex": "0x2fefd8"
  },
  "gasUsed": {
    "_hex": "0x5208"
  },
  "miner": "0xf927a40C8B7F6E07c5af7FA2155B4864a4112B13",
  "extraData": "0x",
  "transactions": [
    {
      "hash": "0xd066c57a797b502a85b360b4cb711a4388ce1703304cefa1005e00bb4763af1d",
      "blockHash": "0x250dbbc57d7dbba827d3d0dfd6469e607c8f4c9e84c6dec3bae7f3584f4e4776",
      "blockNumber": 111386,
      "transactionIndex": 0,
      "confirmations": null,
      "from": "0x226E8B888E9F360E1Aea28229C40E2adC5D698b5",
      "gasPrice": {
        "_hex": "0xd09573bb0"
      },
      "gasLimit": {
        "_hex": "0x15f90"
      },
      "to": "0xbA8c9CDA6af013Cc68A076E17c84d4cDbc5960c5",
      "value": {
        "_hex": "0x1ee9ab72bd2ec0000"
      },
      "nonce": 5,
      "data": "0x",
      "r": "0x789d6ff8edec1341a245f31b9ab24f0b9ba229bc44d6e11373dbe3f30c4de6ce",
      "s": "0x58680c69584cc84b862ae0d89f95f7a27dc0a5fffbd49b317c1ada8054dd74e9",
      "v": 28,
      "creates": null,
      "raw": "0xf86e05850d09573bb083015f9094ba8c9cda6af013cc68a076e17c84d4cdbc5960c58901ee9ab72bd2ec0000801ca0789d6ff8edec1341a245f31b9ab24f0b9ba229bc44d6e11373dbe3f30c4de6cea058680c69584cc84b862ae0d89f95f7a27dc0a5fffbd49b317c1ada8054dd74e9",
      "networkId": 0,
      "chainId": 0
    }
  ]
}