{
  "hash": "0xbb1bb7812770d82a51d27c88c006195211558e45705d852b2131bc1c787aa42e",
  "parentHash": "0xa3e78e3a596bd677e6d7a673a9fbea5f2044a2eace1bfb29729e3b7dc60e57d3",
  "number": 87191,
  "timestamp": 1439588539,
  "nonce": "0x447b6f0f9ce4779a",
  "difficulty": 3066122143648,
  "gasLimit": {
    "_hex": "0x2fefd8"
  },
  "gasUsed": {
    "_hex": "0x5208"
  },
  "miner": "0xa70a9a7040d542C632D8e0bE7c5513A8a5Bbc752",
  "extraData": "0x",
  "transactions": [
    {
      "hash": "0x2b94aadd29bdd4391158c1091b99763b27b1b73bcbee1930d2efabd6d7963268",
      "blockHash": "0xbb1bb7812770d82a51d27c88c006195211558e45705d852b2131bc1c787aa42e",
      "blockNumber": 87191,
      "transactionIndex": 0,
      "confirmations": null,
      "from": "0xC603Ab5ef41fC61AA8b76bEddb09e3Cfcbb174BD",
      "gasPrice": {
        "_hex": "0xd6cb30acb"
      },
      "gasLimit": {
        "_hex": "0x15f90"
      },
      "to": "0x8F79f76381Aad7B98C19aF55eE75fdfEeb012211",
      "value": {
        "_hex": "0x3cb71f51fc5580000"
      },
      "nonce": 18,
      "data": "0x",
      "r": "0xe1a0af59908fadaac49d172843b814f46cd8bbaf2e9f1e9860d8056077670d27",
      "s": "0x6618885def01167d11ec9dd1ca5a3d272174f95bc344957915355fe2bf098909",
      "v": 27,
      "creates": null,
      "raw": "0xf86e12850d6cb30acb83015f90948f79f76381aad7b98c19af55ee75fdfeeb0122118903cb71f51fc5580000801ba0e1a0af59908fadaac49d172843b814f46cd8bbaf2e9f1e9860d8056077670d27a06618885def01167d11ec9dd1ca5a3d272174f95bc344957915355fe2bf098909",
      "networkId": 0,
      "chainId": 0
    }
  ]
}