{
  "hash": "0x73569d2a421971869864eaaf74ffcd22db330b76c7bca8f2f887ba63c72c177a",
  "parentHash": "0x3c5c3c6cbd18f4294391ae86cce855cf422a8dbf6d4d55b3550c5d608ec6f1d8",
  "number": 99564,
  "timestamp": 1439792326,
  "nonce": "0x8c7e4150a2f04bbc",
  "difficulty": 3771356500901,
  "gasLimit": {
    "_hex": "0x2fefd8"
  },
  "gasUsed": {
    "_hex": "0x5208"
  },
  "miner": "0xe6A7a1d47ff21B6321162AEA7C6CB457D5476Bca",
  "extraData": "0x476574682f76312e302e312d38326566323666362f6c696e75782f676f312e34",
  "transactions": [
    {
      "hash": "0xccced835d3c2674090f3b36982e0e197637b5b9852e4bb63e0ea1d57586c5ff0",
      "blockHash": "0x73569d2a421971869864eaaf74ffcd22db330b76c7bca8f2f887ba63c72c177a",
      "blockNumber": 99564,
      "transactionIndex": 0,
      "confirmations": null,
      "from": "0xdeE4977F74E6Aef6D627191c9A45D2627e331150",
      "gasPrice": {
        "_hex": "0xdfede950d"
      },
      "gasLimit": {
        "_hex": "0x5208"
      },
      "to": "0x32Be343B94f860124dC4fEe278FDCBD38C102D88",
      "value": {
        "_hex": "0xd026387407aaa000"
      },
      "nonce": 15,
      "data": "0x",
      "r": "0x5614557ff7a7406dd9e734b734ba95ecbe0a87a825dd9545d8488e87bece4849",
      "s": "0x72d92bac40fd579b0ac700bf2627a1953b63d7a49a6604aae086927e59370cea",
      "v": 28,
      "creates": null,
      "raw": "0xf86c0f850dfede950d8252089432be343b94f860124dc4fee278fdcbd38c102d8888d026387407aaa000801ca05614557ff7a7406dd9e734b734ba95ecbe0a87a825dd9545d8488e87bece4849a072d92bac40fd579b0ac700bf2627a1953b63d7a49a6604aae086927e59370cea",
      "networkId": 0,
      "chainId": 0
    }
  ]
}