{
  "hash": "0x65cb3dc1710bdebdfbaffee049e69bd19609827c30abcf7d2d5bed3f67ef86e2",
  "parentHash": "0x0d71681546187053bf1b4a0f08425fdd0bfa9295e5f0375534242189fb0a5440",
  "number": 101453,
  "timestamp": 1439823297,
  "nonce": "0x02dbfd45b412be1f",
  "difficulty": 3846751776462,
  "gasLimit": {
    "_hex": "0x2fefd8"
  },
  "gasUsed": {
    "_hex": "0x5208"
  },
  "miner": "0x6541237dAaFf6688A79f9F2F370Ca0E7Ee20BD33",
  "extraData": "0x476574682f76312e302e312f77696e646f77732f676f312e342e32",
  "transactions": [
    {
      "hash": "0x42341c4f14a2197d27c3e4f2dfb31ba3dbdbfa682b323a3751298a4867b6ce74",
      "blockHash": "0x65cb3dc1710bdebdfbaffee049e69bd19609827c30abcf7d2d5bed3f67ef86e2",
      "blockNumber": 101453,
      "transactionIndex": 0,
      "confirmations": null,
      "from": "0x120A270bbC009644e35F0bB6ab13f95b8199c4ad",
      "gasPrice": {
        "_hex": "0xd9500c5bd"
      },
      "gasLimit": {
        "_hex": "0x3d090"
      },
      "to": "0x5dA68C70b2b675Cf00019749FCaCc89B31B3A667",
      "value": {
        "_hex": "0x15af1d78b58c400000"
      },
      "nonce": 677,
      "data": "0x",
      "r": "0xf3a4fa38f67ebbdc9d2e80801eeac29990c1de9a958a120d9ee11cbbea410ec3",
      "s": "0x1a477e9b8253ba95a034e39c7142e07e0de646075a608253179ca08a5efb27eb",
      "v": 28,
      "creates": null,
      "raw": "0xf8708202a5850d9500c5bd8303d090945da68c70b2b675cf00019749fcacc89b31b3a6678915af1d78b58c400000801ca0f3a4fa38f67ebbdc9d2e80801eeac29990c1de9a958a120d9ee11cbbea410ec3a01a477e9b8253ba95a034e39c7142e07e0de646075a608253179ca08a5efb27eb",
      "networkId": 0,
      "chainId": 0
    }
  ]
}