{
  "hash": "0x85f33873f062b6d5129133f49653e163100c8a93bad1c48a450f71f853a5db03",
  "parentHash": "0x24612a339991956c932c9d48b4b8f2e791e45ffb90c5255bc8a3e6bea0b17ec7",
  "number": 49588,
  "timestamp": 1438975898,
  "nonce": "0x20da3a8f198ee130",
  "difficulty": 1475587688516,
  "gasLimit": {
    "_hex": "0x36849"
  },
  "gasUsed": {
    "_hex": "0x5208"
  },
  "miner": "0xf927a40C8B7F6E07c5af7FA2155B4864a4112B13",
  "extraData": "0x476574682f76312e302e312f6c696e75782f676f312e342e32",
  "transactions": [
    {
      "hash": "0x16bfff94d39422d8402454fb0ab86c51b999fe0bfa9124aa63cd6b1ee904cbf8",
      "blockHash": "0x85f33873f062b6d5129133f49653e163100c8a93bad1c48a450f71f853a5db03",
      "blockNumber": 49588,
      "transactionIndex": 0,
      "confirmations": null,
      "from": "0x360A45Bb0fd4B1980981FbD42e4f6bAaa69EeC08",
      "gasPrice": {
        "_hex": "0xd3e0dd636"
      },
      "gasLimit": {
        "_hex": "0x5208"
      },
      "to": "0xbb30e448B72d6Fdd44973A4C7a312F92f22C8F07",
      "value": {
        "_hex": "0xde0b6b3a7640000"
      },
      "nonce": 0,
      "data": "0x",
      "r": "0x3a1aeb95c1745c0a418af7a98a50543a7fb505d02a2e52202616e9f917975035",
      "s": "0x46051317c5db5fccb41ce05fb0e1ad815e8145155e0380b043bfd13546672ebf",
      "v": 27,
      "creates": null,
      "raw": "0xf86c80850d3e0dd63682520894bb30e448b72d6fdd44973a4c7a312f92f22c8f07880de0b6b3a7640000801ba03a1aeb95c1745c0a418af7a98a50543a7fb505d02a2e52202616e9f917975035a046051317c5db5fccb41ce05fb0e1ad815e8145155e0380b043bfd13546672ebf",
      "networkId": 0,
      "chainId": 0
    }
  ]
}