{
  "hash": "0xef4078847a02b53e4422c415a2483d5a0805067c6665b3a86d126e8f55707acc",
  "parentHash": "0xe0cebe2c09bcfa8868009bf7c4c7c7aac56ba62c33fda21ac2c5b894ff729885",
  "number": 54355,
  "timestamp": 1439052833,
  "nonce": "0x36152c194245e66a",
  "difficulty": 1609446648326,
  "gasLimit": {
    "_hex": "0x2fefd8"
  },
  "gasUsed": {
    "_hex": "0x5208"
  },
  "miner": "0x157c6f2431eB1a95797EE86F7d17b3c0FD47A247",
  "extraData": "0x476574682f76312e302e312f77696e646f77732f676f312e342e32",
  "transactions": [
    {
      "hash": "0x11a520cc835434767ed5d713b8b45ab72809afb08fc00e735ba12a6ba961ed7b",
      "blockHash": "0xef4078847a02b53e4422c415a2483d5a0805067c6665b3a86d126e8f55707acc",
      "blockNumber": 54355,
      "transactionIndex": 0,
      "confirmations": null,
      "from": "0x47ff6576639c2e94762eA5443978D7681C0E78DC",
      "gasPrice": {
        "_hex": "0xdbac14a0a"
      },
      "gasLimit": {
        "_hex": "0x5208"
      },
      "to": "0xeD17Ea8E9fd42159037deE95ea173a56c54f55ce",
      "value": {
        "_hex": "0x56d071cb350d90000"
      },
      "nonce": 8,
      "data": "0x",
      "r": "0x724a7b1193f3c2eb9ef38b72362116be5a8d4dd310946c6e703a6d6ac8b5fdb9",
      "s": "0x746a45d212fe07157c4b98cd832e00a7c4667c10bc75d9496f21e267c72312ec",
      "v": 27,
      "creates": null,
      "raw": "0xf86d08850dbac14a0a82520894ed17ea8e9fd42159037dee95ea173a56c54f55ce89056d071cb350d90000801ba0724a7b1193f3c2eb9ef38b72362116be5a8d4dd310946c6e703a6d6ac8b5fdb9a0746a45d212fe07157c4b98cd832e00a7c4667c10bc75d9496f21e267c72312ec",
      "networkId": 0,
      "chainId": 0
    }
  ]
}