{
  "hash": "0xce7852cfb2c1340063879d2dfa346325d76958a0d2db2005c1e2acb8fdfb9253",
  "parentHash": "0x908a8bbf443c45b8da632cd5c137975f3337811a40f3f040a0e11fa298413bac",
  "number": 71650,
  "timestamp": 1439339617,
  "nonce": "0x8aa16cb52ea35437",
  "difficulty": 2177174512824,
  "gasLimit": {
    "_hex": "0x2fefd8"
  },
  "gasUsed": {
    "_hex": "0x546c"
  },
  "miner": "0xe6A7a1d47ff21B6321162AEA7C6CB457D5476Bca",
  "extraData": "0x476574682f76312e302e312d38326566323666362f6c696e75782f676f312e34",
  "transactions": [
    {
      "hash": "0x67052ce8e89b3538bc9eb36da36fd6254719526e431b0db813a99ac5c2f22784",
      "blockHash": "0xce7852cfb2c1340063879d2dfa346325d76958a0d2db2005c1e2acb8fdfb9253",
      "blockNumber": 71650,
      "transactionIndex": 0,
      "confirmations": null,
      "from": "0x335e22025B7A77c3A074c78b8E3dFE071341946E",
      "gasPrice": {
        "_hex": "0x110c8f7d8de"
      },
      "gasLimit": {
        "_hex": "0xc350"
      },
      "to": "0x2910543Af39abA0Cd09dBb2D50200b3E800A63D2",
      "value": {
        "_hex": "0x21e19e0c9bab2400000"
      },
      "nonce": 0,
      "data": "0x454e34324658504147",
      "r": "0x28b7c9afd745bbee1bd0f4fcd083194534ab8796ff3533e9f82bd2da95a4a2b0",
      "s": "0x7b51db435478506dc778c78fce13f426e26a2289122ba87c487bcc323b3c7660",
      "v": 27,
      "creates": null,
      "raw": "0xf87880860110c8f7d8de82c350942910543af39aba0cd09dbb2d50200b3e800a63d28a021e19e0c9bab240000089454e343246585041471ba028b7c9afd745bbee1bd0f4fcd083194534ab8796ff3533e9f82bd2da95a4a2b0a07b51db435478506dc778c78fce13f426e26a2289122ba87c487bcc323b3c7660",
      "networkId": 0,
      "chainId": 0
    }
  ]
}