{
  "hash": "0xb7892b8dcc42d89066346ef9398bc3f3e46f6a74f0db208597aa19d08e13c7d0",
  "parentHash": "0x7124fb1b25b15e464b727c348621b03b1d7f346564607e23615572933b04c550",
  "number": 53600,
  "timestamp": 1439040289,
  "nonce": "0x20fede02b3bf8d83",
  "difficulty": 1594727829349,
  "gasLimit": {
    "_hex": "0x2cd6bf"
  },
  "gasUsed": {
    "_hex": "0x5208"
  },
  "miner": "0xf8E0CA3Ed80bd541b94BEdCf259e8CF2141A9523",
  "extraData": "0x476574682f76312e302e312f77696e646f77732f676f312e342e32",
  "transactions": [
    {
      "hash": "0x1e3e3bdac448df92b78d3342cb32aae98962145f314e3879fcc3fc342f25a7ee",
      "blockHash": "0xb7892b8dcc42d89066346ef9398bc3f3e46f6a74f0db208597aa19d08e13c7d0",
      "blockNumber": 53600,
      "transactionIndex": 0,
      "confirmations": null,
      "from": "0x0037ce3d4B7f8729C8607D8D0248252Be68202c0",
      "gasPrice": {
        "_hex": "0xd1df8ebf4"
      },
      "gasLimit": {
        "_hex": "0x15f90"
      },
      "to": "0xDC6A542F97876923583019b526335fD1fB0DfC6A",
      "value": {
        "_hex": "0xde0b6b3a7640000"
      },
      "nonce": 2,
      "data": "0x",
      "r": "0x9b49a47a62bced672f9387561db63816f67b597a198bf92d4c9279b8950f8b6d",
      "s": "0x32313c8560334d28555bfaacc7de44215285aee1c8767c184a649b486af72fa2",
      "v": 27,
      "creates": null,
      "raw": "0xf86d02850d1df8ebf483015f9094dc6a542f97876923583019b526335fd1fb0dfc6a880de0b6b3a7640000801ba09b49a47a62bced672f9387561db63816f67b597a198bf92d4c9279b8950f8b6da032313c8560334d28555bfaacc7de44215285aee1c8767c184a649b486af72fa2",
      "networkId": 0,
      "chainId": 0
    }
  ]
}