{
  "hash": "0x81d36548b8a6fe83db4d807c8b91329dbe7b0f587ac330fa330790378e175dd7",
  "parentHash": "0x28171ba821a9cf120755a88c6093e0c3dff27fa71c03c6765b6f2f6971530629",
  "number": 59560,
  "timestamp": 1439140281,
  "nonce": "0xb10df53d45e79522",
  "difficulty": 1699689733019,
  "gasLimit": {
    "_hex": "0x2fefd8"
  },
  "gasUsed": {
    "_hex": "0x546c"
  },
  "miner": "0x66c564ACCCfd1470EE32bE2aCaE1696558C18fE1",
  "extraData": "0x476574682f76312e302e312f6c696e75782f676f312e34",
  "transactions": [
    {
      "hash": "0xd06eab91543cb60a3c75617bf84ef638cc5df9f70872c91ebb285af44a210450",
      "blockHash": "0x81d36548b8a6fe83db4d807c8b91329dbe7b0f587ac330fa330790378e175dd7",
      "blockNumber": 59560,
      "transactionIndex": 0,
      "confirmations": null,
      "from": "0xc8f2b320E6DFd70906C597bAD2f9501312C78259",
      "gasPrice": {
        "_hex": "0x110c8f7d8de"
      },
      "gasLimit": {
        "_hex": "0xc350"
      },
      "to": "0x2910543Af39abA0Cd09dBb2D50200b3E800A63D2",
      "value": {
        "_hex": "0x517a50a8c3c41c0000"
      },
      "nonce": 3,
      "data": "0x454e5a373058555647",
      "r": "0x7a1aafba2d7a5ac9aee670778249159babdcb8a071e9dd4c76f43b27a832e7de",
      "s": "0x2eae4357e10c52b47df6682cfa4bd132b117a8e8294a5d2c218191842c877936",
      "v": 27,
      "creates": null,
      "raw": "0xf87703860110c8f7d8de82c350942910543af39aba0cd09dbb2d50200b3e800a63d289517a50a8c3c41c000089454e5a3730585556471ba07a1aafba2d7a5ac9aee670778249159babdcb8a071e9dd4c76f43b27a832e7dea02eae4357e10c52b47df6682cfa4bd132b117a8e8294a5d2c218191842c877936",
      "networkId": 0,
      "chainId": 0
    }
  ]
}