{
  "hash": "0x9a93a27c3a057f776bd05cf25ccd072e41f5a72de0cf76616a24af0802a08241",
  "parentHash": "0xd29a8e71ab6ae2cabbe543884fbedda21c1e9833eb6f73af20568ab9ee57ccfd",
  "number": 83260,
  "timestamp": 1439532807,
  "nonce": "0xcb68900d00b7ca5d",
  "difficulty": 2415998548772,
  "gasLimit": {
    "_hex": "0x2fefd8"
  },
  "gasUsed": {
    "_hex": "0xa410"
  },
  "miner": "0x007f7f58D3eb5b7510A301eCC749FC1fCDDBE14D",
  "extraData": "0x476574682f76312e302e312f77696e646f77732f676f312e342e32",
  "transactions": [
    {
      "hash": "0x4aa589f764efa0caeefdddfc7ff7b5de75d00fefddf6ce1b0804dfeecd4c4e55",
      "blockHash": "0x9a93a27c3a057f776bd05cf25ccd072e41f5a72de0cf76616a24af0802a08241",
      "blockNumber": 83260,
      "transactionIndex": 0,
      "confirmations": null,
      "from": "0xd5A85B42F59351D806582F791600EA3e99811121",
      "gasPrice": {
        "_hex": "0xcc626918c"
      },
      "gasLimit": {
        "_hex": "0x15f90"
      },
      "to": "0xd6Bb39DA0858E6AEddcaa12a509327b2D05f5B51",
      "value": {
        "_hex": "0x3e8"
      },
      "nonce": 3,
      "data": "0x",
      "r": "0x24fc9df7b82593f604a4056b0ae6566f7c1551526030832eddc280366f0dfe47",
      "s": "0x63b55c4e27664a4ced62dc2333590cc8a729c5c37dff202766dd2c455dd10036",
      "v": 27,
      "creates": null,
      "raw": "0xf86703850cc626918c83015f9094d6bb39da0858e6aeddcaa12a509327b2d05f5b518203e8801ba024fc9df7b82593f604a4056b0ae6566f7c1551526030832eddc280366f0dfe47a063b55c4e27664a4ced62dc2333590cc8a729c5c37dff202766dd2c455dd10036",
      "networkId": 0,
      "chainId": 0
    },
    {
      "hash": "0xcdd45a8fcce123e36ef9513272431c1e9760ced84600e1f0138877911c1f614d",
      "blockHash": "0x9a93a27c3a057f776bd05cf25ccd072e41f5a72de0cf76616a24af0802a08241",
      "blockNumber": 83260,
      "transactionIndex": 1,
      "confirmations": null,
      "from": "0xd5A85B42F59351D806582F791600EA3e99811121",
      "gasPrice": {
        "_hex": "0xcc626918c"
      },
      "gasLimit": {
        "_hex": "0x15f90"
      },
      "to": "0xd6Bb39DA0858E6AEddcaa12a509327b2D05f5B51",
      "value": {
        "_hex": "0x3e8"
      },
      "nonce": 4,
      "data": "0x",
      "r": "0xd54994f0a4e08d69a02ce461bf55393cf0937205493bdd601acc6ff95a78d0c6",
      "s": "0x2ecf0f5fa09cfee6d036db9d64a5bc3907fd34ff8b32b7480d667215afe39ea7",
      "v": 27,
      "creates": null,
      "raw": "0xf86704850cc626918c83015f9094d6bb39da0858e6aeddcaa12a509327b2d05f5b518203e8801ba0d54994f0a4e08d69a02ce461bf55393cf0937205493bdd601acc6ff95a78d0c6a02ecf0f5fa09cfee6d036db9d64a5bc3907fd34ff8b32b7480d667215afe39ea7",
      "networkId": 0,
      "chainId": 0
    }
  ]
}