{
  "hash": "0xb4a62f504e5cd2fcaea687b1f5f78d982b3d6e883f530beb9c000782112f1739",
  "parentHash": "0xdcf0c8dd30a2ecc42038456752c3ad7e080f448031805f228065c71d827f513c",
  "number": 78222,
  "timestamp": 1439450522,
  "nonce": "0xd2393c5924b6d61f",
  "difficulty": 2284329684032,
  "gasLimit": {
    "_hex": "0x2fefd8"
  },
  "gasUsed": {
    "_hex": "0x5208"
  },
  "miner": "0xC603Ab5ef41fC61AA8b76bEddb09e3Cfcbb174BD",
  "extraData": "0x476574682f76312e302e312f77696e646f77732f676f312e342e32",
  "transactions": [
    {
      "hash": "0x8403a1def4a23759e75f80d0dd033808468822e40332f0a565dee19e69bf040c",
      "blockHash": "0xb4a62f504e5cd2fcaea687b1f5f78d982b3d6e883f530beb9c000782112f1739",
      "blockNumber": 78222,
      "transactionIndex": 0,
      "confirmations": null,
      "from": "0x20D0899381bA0B4167AC723f55Dc8924180B5523",
      "gasPrice": {
        "_hex": "0xba43b7400"
      },
      "gasLimit": {
        "_hex": "0x5208"
      },
      "to": "0xC47Aaa860008be6f65B58c6C6E02a84e666EfE31",
      "value": {
        "_hex": "0x174091744879a4f0"
      },
      "nonce": 0,
      "data": "0x",
      "r": "0x4c7f5dfccd1b7cdbf2ef7481e267076c160f52c8da4d848b61abd72d93dc5099",
      "s": "0x08ef779fdeaaa17797ea0a727a939294d32dcebb3a4beb31913b2134df32630b",
      "v": 27,
      "creates": null,
      "raw": "0xf86c80850ba43b740082520894c47aaa860008be6f65b58c6c6e02a84e666efe3188174091744879a4f0801ba04c7f5dfccd1b7cdbf2ef7481e267076c160f52c8da4d848b61abd72d93dc5099a008ef779fdeaaa17797ea0a727a939294d32dcebb3a4beb31913b2134df32630b",
      "networkId": 0,
      "chainId": 0
    }
  ]
}