{
  "hash": "0x84bd5539ede98f3f6c9033708ab55184be29175558a510ab2057f10195bde943",
  "parentHash": "0x603c43540b04fc582f0291a3d7e6404f68cb716edf014085d8e280803868ac12",
  "number": 62482,
  "timestamp": 1439189581,
  "nonce": "0xb1bad7d740caf43f",
  "difficulty": 1759894119044,
  "gasLimit": {
    "_hex": "0x2fefd8"
  },
  "gasUsed": {
    "_hex": "0x5208"
  },
  "miner": "0x0b21649ef6B76E8DbAC646C7cd474dF6F17aFc9b",
  "extraData": "0x476574682f6272656e646f6e682f76312e302e312f6c696e75782f676f312e34",
  "transactions": [
    {
      "hash": "0x939fb94f19cc281e5d3ecc5b12a38180fd119b643f22fea7ed05ba0877df69e1",
      "blockHash": "0x84bd5539ede98f3f6c9033708ab55184be29175558a510ab2057f10195bde943",
      "blockNumber": 62482,
      "transactionIndex": 0,
      "confirmations": null,
      "from": "0xE2beA3e7d349ab64EBD9873418e78912e13CD35f",
      "gasPrice": {
        "_hex": "0xe2bce1bdb"
      },
      "gasLimit": {
        "_hex": "0x15f90"
      },
      "to": "0x06896c6bb7e0Ac7C620Ee36A74D298B4786F1872",
      "value": {
        "_hex": "0xde0b6b3a7640000"
      },
      "nonce": 21,
      "data": "0x",
      "r": "0xac17e75c3f4f048fe97f2a75c410f3cf55e4ccc778e255a8f4a005f0e266bcdc",
      "s": "0x081bdf20cee95231959df3a54ec8eb1d7da6120bba55e9c297a47b525bfda66f",
      "v": 27,
      "creates": null,
      "raw": "0xf86d15850e2bce1bdb83015f909406896c6bb7e0ac7c620ee36a74d298b4786f1872880de0b6b3a7640000801ba0ac17e75c3f4f048fe97f2a75c410f3cf55e4ccc778e255a8f4a005f0e266bcdca0081bdf20cee95231959df3a54ec8eb1d7da6120bba55e9c297a47b525bfda66f",
      "networkId": 0,
      "chainId": 0
    }
  ]
}