{
  "hash": "0xf2b99666394b501d13564a91dd97aee14f2405c415908553eafabe7f9f48332d",
  "parentHash": "0xfcf77d783b905097633f33f00b11d85947dfb4d99f9a54e4285fe6070d174cb0",
  "number": 68488,
  "timestamp": 1439288661,
  "nonce": "0x6093103015992ad0",
  "difficulty": 2008423702955,
  "gasLimit": {
    "_hex": "0x2fefd8"
  },
  "gasUsed": {
    "_hex": "0x5208"
  },
  "miner": "0xE706a05a40761915bC70310f7a94e6B2B596dbf8",
  "extraData": "0x476574682f76312e302e312d38326566323666362f6c696e75782f676f312e34",
  "transactions": [
    {
      "hash": "0x3608ce058f313dcf2ea159988dbb15ba923f2b3d45dfff644ceb5ab26ad9537f",
      "blockHash": "0xf2b99666394b501d13564a91dd97aee14f2405c415908553eafabe7f9f48332d",
      "blockNumber": 68488,
      "transactionIndex": 0,
      "confirmations": null,
      "from": "0x73e98AbEE8F6fa55e8a94851E3C2225195efA436",
      "gasPrice": {
        "_hex": "0xba43b7400"
      },
      "gasLimit": {
        "_hex": "0x5208"
      },
      "to": "0xD9E130E9E97E7a12780ffF8CeBB17A7879aE1671",
      "value": {
        "_hex": "0x653580cf6eb000"
      },
      "nonce": 1,
      "data": "0x",
      "r": "0x26e5ed23eb478429eeb452156ffe480c19ceb6999337ad64d8cd684cd0e04291",
      "s": "0x1eb40fa605b7cccc2099ce0508ae55f6af7c4383460115820c8cdadd317f43a1",
      "v": 28,
      "creates": null,
      "raw": "0xf86b01850ba43b740082520894d9e130e9e97e7a12780fff8cebb17a7879ae167187653580cf6eb000801ca026e5ed23eb478429eeb452156ffe480c19ceb6999337ad64d8cd684cd0e04291a01eb40fa605b7cccc2099ce0508ae55f6af7c4383460115820c8cdadd317f43a1",
      "networkId": 0,
      "chainId": 0
    }
  ]
}