{
  "hash": "0x13aeac9255f66cfc6352930d4ef6de346866b8c3e974cb15432db2ffe0704536",
  "parentHash": "0xa3303b9cbfe8d9e364a5f5d48bcb2e0bf2a35ba3647a434a179a489ac3a02a66",
  "number": 91172,
  "timestamp": 1439651513,
  "nonce": "0x84d6c2f6863834ee",
  "difficulty": 3440654486315,
  "gasLimit": {
    "_hex": "0x2fefd8"
  },
  "gasUsed": {
    "_hex": "0x5208"
  },
  "miner": "0x5146556427FF689250ED1801a783D12138C3Dd5E",
  "extraData": "0x476574682f76312e302e312f6c696e75782f676f312e342e32",
  "transactions": [
    {
      "hash": "0x1e45a74db902037eafef3e15e75c8bb3073b1f64a9474121c17fb8255ecb23ad",
      "blockHash": "0x13aeac9255f66cfc6352930d4ef6de346866b8c3e974cb15432db2ffe0704536",
      "blockNumber": 91172,
      "transactionIndex": 0,
      "confirmations": null,
      "from": "0x00C865a16eD3c930DD70B642507639D199C62180",
      "gasPrice": {
        "_hex": "0xd2c7b737a"
      },
      "gasLimit": {
        "_hex": "0x5208"
      },
      "to": "0x32Be343B94f860124dC4fEe278FDCBD38C102D88",
      "value": {
        "_hex": "0x1a0513d2930026000"
      },
      "nonce": 5,
      "data": "0x",
      "r": "0x33af6231f047d6f9f62f1edf64b58a1ccbf971076e1d34f540b260684b062a92",
      "s": "0x489397043299ef8d85d0b96158668b7141a339b3af1a05c9c8ece4034327e228",
      "v": 28,
      "creates": null,
      "raw": "0xf86d05850d2c7b737a8252089432be343b94f860124dc4fee278fdcbd38c102d888901a0513d2930026000801ca033af6231f047d6f9f62f1edf64b58a1ccbf971076e1d34f540b260684b062a92a0489397043299ef8d85d0b96158668b7141a339b3af1a05c9c8ece4034327e228",
      "networkId": 0,
      "chainId": 0
    }
  ]
}