{
  "hash": "0x4368f09b220824c280b0f6cbca060340020f84d4bcf8fd33efa33742a96a0501",
  "parentHash": "0x4d3b05a633b18b8248ab65cbd51eb39f813a3a5e2e6994832070df252e1ec356",
  "number": 113618,
  "timestamp": 1440026705,
  "nonce": "0xec0cadf66f2aa1f5",
  "difficulty": 4453668537761,
  "gasLimit": {
    "_hex": "0x2fefd8"
  },
  "gasUsed": {
    "_hex": "0x5208"
  },
  "miner": "0xD0ee3F53eE0fCf3F9fbCcdd17BD1b6441DdC2074",
  "extraData": "0x476574682f76312e302e312d38326566323666362f6c696e75782f676f312e34",
  "transactions": [
    {
      "hash": "0x39f602388971ba85d46b02f92b7d1c673b79e52135c9664d9f91d39dba31f490",
      "blockHash": "0x4368f09b220824c280b0f6cbca060340020f84d4bcf8fd33efa33742a96a0501",
      "blockNumber": 113618,
      "transactionIndex": 0,
      "confirmations": null,
      "from": "0x051B69BB7073F7385370C5751F988b31A7567a63",
      "gasPrice": {
        "_hex": "0xba43b7400"
      },
      "gasLimit": {
        "_hex": "0x5208"
      },
      "to": "0xC47Aaa860008be6f65B58c6C6E02a84e666EfE31",
      "value": {
        "_hex": "0x1f7cee00eb1f38f0"
      },
      "nonce": 7,
      "data": "0x",
      "r": "0x4fd68f337a5f5611ceec22b03f5bd58ce12023b56e664ac5e5a75e31e3da1b1e",
      "s": "0x10c11fe22b5444c63a6a8cbd26f947379b9307caea691042ba38e2f225ca222c",
      "v": 28,
      "creates": null,
      "raw": "0xf86c07850ba43b740082520894c47aaa860008be6f65b58c6c6e02a84e666efe31881f7cee00eb1f38f0801ca04fd68f337a5f5611ceec22b03f5bd58ce12023b56e664ac5e5a75e31e3da1b1ea010c11fe22b5444c63a6a8cbd26f947379b9307caea691042ba38e2f225ca222c",
      "networkId": 0,
      "chainId": 0
    }
  ]
}