{
  "hash": "0x0e818d52518eaca9e475e2ba7913997a2c8ee1951f0e0a10477311d35d18f1dd",
  "parentHash": "0xb87db414d576309f6cdec4dbc8bd2fe779ebc36c0fc91f2a5297936d81a7bf9f",
  "number": 69303,
  "timestamp": 1439301625,
  "nonce": "0xe3000b94cfa55b99",
  "difficulty": 2062891217199,
  "gasLimit": {
    "_hex": "0x2fefd8"
  },
  "gasUsed": {
    "_hex": "0x14687"
  },
  "miner": "0x76d4a9bc9612bE738A81d0fE632b00B971E2bB9a",
  "extraData": "0x",
  "transactions": [
    {
      "hash": "0x608e892145b7831dc49a59fcc8a59d3cc505d830ea20d69d2326baf1a1c5ef40",
      "blockHash": "0x0e818d52518eaca9e475e2ba7913997a2c8ee1951f0e0a10477311d35d18f1dd",
      "blockNumber": 69303,
      "transactionIndex": 0,
      "confirmations": null,
      "from": "0x8bae48F227d978d084B009b775222BAaF61ed9fe",
      "gasPrice": {
        "_hex": "0xba43b7400"
      },
      "gasLimit": {
        "_hex": "0xa390"
      },
      "to": "0xdf373f3Dab2561668e239cA6e43a8c6aaeB3f825",
      "value": {
        "_hex": "0x0"
      },
      "nonce": 14,
      "data": "0xf5bade660000000000000000000000000000000000000000000000000000000000000064",
      "r": "0x7495ffe3c197bb938cc77705fbbbb9f294b37f5580680274d0dc0a492311ed00",
      "s": "0x66c1ce3cf46f4da363bdafd7980794e103369cb00386469019b6b297cd946857",
      "v": 28,
      "creates": null,
      "raw": "0xf8880e850ba43b740082a39094df373f3dab2561668e239ca6e43a8c6aaeb3f82580a4f5bade6600000000000000000000000000000000000000000000000000000000000000641ca07495ffe3c197bb938cc77705fbbbb9f294b37f5580680274d0dc0a492311ed00a066c1ce3cf46f4da363bdafd7980794e103369cb00386469019b6b297cd946857",
      "networkId": 0,
      "chainId": 0
    },
    {
      "hash": "0x5ed8486b3d43154a0cdb5fbfe78fa4334f1dd322ca8f519e485229249a6cbe97",
      "blockHash": "0x0e818d52518eaca9e475e2ba7913997a2c8ee1951f0e0a10477311d35d18f1dd",
      "blockNumber": 69303,
      "transactionIndex": 1,
      "confirmations": null,
      "from": "0x8bae48F227d978d084B009b775222BAaF61ed9fe",
      "gasPrice": {
        "_hex": "0xba43b7400"
      },
      "gasLimit": {
        "_hex": "0xa36c"
      },
      "to": "0xdf373f3Dab2561668e239cA6e43a8c6aaeB3f825",
      "value": {
        "_hex": "0x0"
      },
      "nonce": 15,
      "data": "0x91b7f5ed000000000000000000000000000000000000000000000000000000000000000a",
      "r": "0xfdfdadef1a85fe69957400f9e017752dd6a95a92608c6f3b3653693f8689b986",
      "s": "0x5c1471d83a0f457f522a6e25aa19bbb9ba177f62019743f47acb11a7c31e1377",
      "v": 27,
      "creates": null,
      "raw": "0xf8880f850ba43b740082a36c94df373f3dab2561668e239ca6e43a8c6aaeb3f82580a491b7f5ed000000000000000000000000000000000000000000000000000000000000000a1ba0fdfdadef1a85fe69957400f9e017752dd6a95a92608c6f3b3653693f8689b986a05c1471d83a0f457f522a6e25aa19bbb9ba177f62019743f47acb11a7c31e1377",
      "networkId": 0,
      "chainId": 0
    }
  ]
}