{
  "hash": "0xe0dd9fb8931e61c36bcd59882af1db8ed3ee5785ab3153746d9f83093066492a",
  "parentHash": "0x6b2dbf9f33cd6b01abf81911c5c62df8d4c68214ffd46e7fedaa3987b3ff0345",
  "number": 119640,
  "timestamp": 1440146352,
  "nonce": "0xcf64419237be0e30",
  "difficulty": 4385755180224,
  "gasLimit": {
    "_hex": "0x2fefd8"
  },
  "gasUsed": {
    "_hex": "0x5208"
  },
  "miner": "0x0D2C9857E819cf1275eb59B49033343ccC35fe42",
  "extraData": "0x",
  "transactions": [
    {
      "hash": "0x93f8c3ecf922c1b0efcf607c33636c9cd7ab935467c335ce4667c0fcaee5ac48",
      "blockHash": "0xe0dd9fb8931e61c36bcd59882af1db8ed3ee5785ab3153746d9f83093066492a",
      "blockNumber": 119640,
      "transactionIndex": 0,
      "confirmations": null,
      "from": "0x4D67f4F0Db45b3B5a3424B39ed8d972F710381D5",
      "gasPrice": {
        "_hex": "0xba43b7400"
      },
      "gasLimit": {
        "_hex": "0x5208"
      },
      "to": "0x32Be343B94f860124dC4fEe278FDCBD38C102D88",
      "value": {
        "_hex": "0x2de1ed2c11d266000"
      },
      "nonce": 56,
      "data": "0x",
      "r": "0xec10c12c9e3316ce15b9289f6553cf4d7a14ffa092224c7b85a8fb410ab65044",
      "s": "0x07a19939b933890664eab91d03822cd25afa4800385846fa496553667255d99c",
      "v": 28,
      "creates": null,
      "raw": "0xf86d38850ba43b74008252089432be343b94f860124dc4fee278fdcbd38c102d888902de1ed2c11d266000801ca0ec10c12c9e3316ce15b9289f6553cf4d7a14ffa092224c7b85a8fb410ab65044a007a19939b933890664eab91d03822cd25afa4800385846fa496553667255d99c",
      "networkId": 0,
      "chainId": 0
    }
  ]
}