{
  "hash": "0xeff39e11f30a3d09fa69acd5f875bf2bca7606d6d6dad45f843f8b7ae8f66540",
  "parentHash": "0x8d6fa0f5a280e6694512aecd70e15fa7ec5757b304e6b65dd5825e7085619993",
  "number": 95180,
  "timestamp": 1439720144,
  "nonce": "0xf6f16a66b59fedbd",
  "difficulty": 3534343868955,
  "gasLimit": {
    "_hex": "0x2fefd8"
  },
  "gasUsed": {
    "_hex": "0x5208"
  },
  "miner": "0xe6A7a1d47ff21B6321162AEA7C6CB457D5476Bca",
  "extraData": "0x476574682f76312e302e312d38326566323666362f6c696e75782f676f312e34",
  "transactions": [
    {
      "hash": "0x2ed38781422cf6d04e48c66b1d32a71c6fc3f13ec058a72d275d1a7c9d42809e",
      "blockHash": "0xeff39e11f30a3d09fa69acd5f875bf2bca7606d6d6dad45f843f8b7ae8f66540",
      "blockNumber": 95180,
      "transactionIndex": 0,
      "confirmations": null,
      "from": "0xaA35779Ef4dfBEd0B3D6F46F5f11cb86261B17A5",
      "gasPrice": {
        "_hex": "0xd7d40ace3"
      },
      "gasLimit": {
        "_hex": "0x61a8"
      },
      "to": "0x30beD8049947963394D93412326225E4e3123601",
      "value": {
        "_hex": "0x3420e179398fa0000"
      },
      "nonce": 7,
      "data": "0x",
      "r": "0xf7f522443cf70290eaaf2d75dbb9cb9916a5fe4c2e0a1be191c42829729a91c9",
      "s": "0x166c65c9bbfc9cb1ed02172c1da9140191c973e84315cf390998f9250bb90977",
      "v": 28,
      "creates": null,
      "raw": "0xf86d07850d7d40ace38261a89430bed8049947963394d93412326225e4e31236018903420e179398fa0000801ca0f7f522443cf70290eaaf2d75dbb9cb9916a5fe4c2e0a1be191c42829729a91c9a0166c65c9bbfc9cb1ed02172c1da9140191c973e84315cf390998f9250bb90977",
      "networkId": 0,
      "chainId": 0
    }
  ]
}