{
  "hash": "0x233dfde640f02fc08e09c6be20079ea1f7ba2936f3dcb54d98fbfb536637cbc5",
  "parentHash": "0x9c37f558957fa51fa8acdc8d1b34fc968198a83cfec900754eef2b3b2d1030e1",
  "number": 65586,
  "timestamp": 1439239488,
  "nonce": "0x9366074bc2328c7f",
  "difficulty": 1945403805021,
  "gasLimit": {
    "_hex": "0x2fefd8"
  },
  "gasUsed": {
    "_hex": "0x5208"
  },
  "miner": "0x31995C46B15C84523cDEE26f49A681b8237e43F5",
  "extraData": "0x476574682f76312e302e312f77696e646f77732f676f312e342e32",
  "transactions": [
    {
      "hash": "0x9f985a14641de0449fa62a2f22fa82b493647fdba0e25e92750348ee72d60510",
      "blockHash": "0x233dfde640f02fc08e09c6be20079ea1f7ba2936f3dcb54d98fbfb536637cbc5",
      "blockNumber": 65586,
      "transactionIndex": 0,
      "confirmations": null,
      "from": "0x79d5794171E11dd5C2f0e26E1C187319db2FE6f7",
      "gasPrice": {
        "_hex": "0xd8e3488c2"
      },
      "gasLimit": {
        "_hex": "0x5208"
      },
      "to": "0x32Be343B94f860124dC4fEe278FDCBD38C102D88",
      "value": {
        "_hex": "0x455f2d5d43f6dc00"
      },
      "nonce": 3,
      "data": "0x",
      "r": "0x07ace36f570f482b1efb5e560631ced875f63e696cacde803b15d79d506d38aa",
      "s": "0x5e79ecae518c17eaa426583287590969711a02105807df531eb7353a8d21f914",
      "v": 27,
      "creates": null,
      "raw": "0xf86c03850d8e3488c28252089432be343b94f860124dc4fee278fdcbd38c102d8888455f2d5d43f6dc00801ba007ace36f570f482b1efb5e560631ced875f63e696cacde803b15d79d506d38aaa05e79ecae518c17eaa426583287590969711a02105807df531eb7353a8d21f914",
      "networkId": 0,
      "chainId": 0
    }
  ]
}