{
  "hash": "0x89238ee64acf78a716f1706f16536931f3dbf992fe7566d96fa27aa836dff4bb",
  "parentHash": "0xc49839cc38f999d98014decf50f83c8e2989859fed99d2d4335aa2243edb671e",
  "number": 59434,
  "timestamp": 1439138037,
  "nonce": "0x43293559cef1d5f1",
  "difficulty": 1704702199656,
  "gasLimit": {
    "_hex": "0x2fefd8"
  },
  "gasUsed": {
    "_hex": "0xa674"
  },
  "miner": "0x47ff6576639c2e94762eA5443978D7681C0E78DC",
  "extraData": "0x476574682f76312e302e312f6c696e75782f676f312e342e32",
  "transactions": [
    {
      "hash": "0xfd4515b16d49572fd3ddf5c3549f320749dfac984fa61aa888bf877ac5867667",
      "blockHash": "0x89238ee64acf78a716f1706f16536931f3dbf992fe7566d96fa27aa836dff4bb",
      "blockNumber": 59434,
      "transactionIndex": 0,
      "confirmations": null,
      "from": "0xA9e28337E6357193d9E2cB236b01bE44b81427dF",
      "gasPrice": {
        "_hex": "0x110c8f7d8de"
      },
      "gasLimit": {
        "_hex": "0xc350"
      },
      "to": "0x2910543Af39abA0Cd09dBb2D50200b3E800A63D2",
      "value": {
        "_hex": "0xde0b6b3a7640000"
      },
      "nonce": 0,
      "data": "0x454e5a31445a523752",
      "r": "0x492314ead8bd3ab7b415f1ea21dc04548bc2aa0dcc85ce7f89b01a87192787b4",
      "s": "0xd2a4c75317a9908b256181fbcf0fe3bc517fbaaf6c7d091d15bb08f7f54099df",
      "v": 27,
      "creates": null,
      "raw": "0xf87680860110c8f7d8de82c350942910543af39aba0cd09dbb2d50200b3e800a63d2880de0b6b3a764000089454e5a31445a5237521ba0492314ead8bd3ab7b415f1ea21dc04548bc2aa0dcc85ce7f89b01a87192787b4a0d2a4c75317a9908b256181fbcf0fe3bc517fbaaf6c7d091d15bb08f7f54099df",
      "networkId": 0,
      "chainId": 0
    },
    {
      "hash": "0xe4147c2707371d38c94e6de3659baf885443dd1530385170ee5c4b1096b00c16",
      "blockHash": "0x89238ee64acf78a716f1706f16536931f3dbf992fe7566d96fa27aa836dff4bb",
      "blockNumber": 59434,
      "transactionIndex": 1,
      "confirmations": null,
      "from": "0xBFdD9820a04283b289957956353b5F3C1F665EcF",
      "gasPrice": {
        "_hex": "0xce4120e03"
      },
      "gasLimit": {
        "_hex": "0x5208"
      },
      "to": "0x32Be343B94f860124dC4fEe278FDCBD38C102D88",
      "value": {
        "_hex": "0x455f700c6884ec00"
      },
      "nonce": 8,
      "data": "0x",
      "r": "0x02620f15cc5baab5bd8373e121eadb14a020ea7fee5671922e5cfa806420e622",
      "s": "0x2fa34d43dbe7e86d4a284d002f8aa9a474b0db487b89a62fe959a5632f07084e",
      "v": 27,
      "creates": null,
      "raw": "0xf86c08850ce4120e038252089432be343b94f860124dc4fee278fdcbd38c102d8888455f700c6884ec00801ba002620f15cc5baab5bd8373e121eadb14a020ea7fee5671922e5cfa806420e622a02fa34d43dbe7e86d4a284d002f8aa9a474b0db487b89a62fe959a5632f07084e",
      "networkId": 0,
      "chainId": 0
    }
  ]
}