{
  "hash": "0x39e0bdfbd94f6d2be94b6aaa11ac55b3d3ce2947db6e01ff43aba78f95b87a6f",
  "parentHash": "0xfab7ffb8ffbf8d18b57366bea3c73116ea58e0151e575d2e295d4aa483c9fa63",
  "number": 69341,
  "timestamp": 1439302210,
  "nonce": "0x029b77961d98775f",
  "difficulty": 2066914876092,
  "gasLimit": {
    "_hex": "0x2fefd8"
  },
  "gasUsed": {
    "_hex": "0x546c"
  },
  "miner": "0xbb7B8287f3F0a933474a79eAe42CBCa977791171",
  "extraData": "0x476574682f4c5649562f76312e302e312f6c696e75782f676f312e342e32",
  "transactions": [
    {
      "hash": "0x5b322188ec853e317ad0b305e1c97fc6c523bd69d37ba29524014d36c2701598",
      "blockHash": "0x39e0bdfbd94f6d2be94b6aaa11ac55b3d3ce2947db6e01ff43aba78f95b87a6f",
      "blockNumber": 69341,
      "transactionIndex": 0,
      "confirmations": null,
      "from": "0x3098B65db93EcaCaf7353c48808390a223D57684",
      "gasPrice": {
        "_hex": "0x110c8f7d8de"
      },
      "gasLimit": {
        "_hex": "0xc350"
      },
      "to": "0x2910543Af39abA0Cd09dBb2D50200b3E800A63D2",
      "value": {
        "_hex": "0xd8c0f25f91a1e0000"
      },
      "nonce": 1,
      "data": "0x454e4d323354595a30",
      "r": "0x55230c7a7190a2651a640acc401b1f7bc90fe48888678c3b48096f28987d3998",
      "s": "0x3044cc4dc586c469e78d383235180461ff6f6f7c54292b444b85bb3bff8d58e9",
      "v": 28,
      "creates": null,
      "raw": "0xf87701860110c8f7d8de82c350942910543af39aba0cd09dbb2d50200b3e800a63d2890d8c0f25f91a1e000089454e4d323354595a301ca055230c7a7190a2651a640acc401b1f7bc90fe48888678c3b48096f28987d3998a03044cc4dc586c469e78d383235180461ff6f6f7c54292b444b85bb3bff8d58e9",
      "networkId": 0,
      "chainId": 0
    }
  ]
}