{
  "hash": "0x40f8ec14fb08f441979f572a931ec5aef3b5a8ee7019d8aa783dfe1032c79f2f",
  "parentHash": "0x224f760f3e169e7895c0ec390cca4e8928b6d2bcdf320ef907a2aec79575aaa6",
  "number": 74109,
  "timestamp": 1439380496,
  "nonce": "0x00629e47d54eb11e",
  "difficulty": 2233597945392,
  "gasLimit": {
    "_hex": "0x2fefd8"
  },
  "gasUsed": {
    "_hex": "0xa410"
  },
  "miner": "0x9746c7e1ef2bd21FF3997fa467593a89cb852BD0",
  "extraData": "0x476574682f76312e302e312f77696e646f77732f676f312e342e32",
  "transactions": [
    {
      "hash": "0x984992fe4dc081d67eca70edba86258d00f8466c43e02cb5b3e816cd5b6df498",
      "blockHash": "0x40f8ec14fb08f441979f572a931ec5aef3b5a8ee7019d8aa783dfe1032c79f2f",
      "blockNumber": 74109,
      "transactionIndex": 0,
      "confirmations": null,
      "from": "0xa391109Aa419A9241C6d91d824581D672e96E93B",
      "gasPrice": {
        "_hex": "0xe07b0abff"
      },
      "gasLimit": {
        "_hex": "0x5208"
      },
      "to": "0x32Be343B94f860124dC4fEe278FDCBD38C102D88",
      "value": {
        "_hex": "0x34a39b28c78d1a000"
      },
      "nonce": 1,
      "data": "0x",
      "r": "0x27f1b6b2059706fa316546f1b5a4891671a9b9998bac824e92bbe3b549be7fe1",
      "s": "0x3a9e60beace5287dbf0e3bbd981631e533e380c5a5ff75774c7c1c2f0bbc842e",
      "v": 27,
      "creates": null,
      "raw": "0xf86d01850e07b0abff8252089432be343b94f860124dc4fee278fdcbd38c102d8889034a39b28c78d1a000801ba027f1b6b2059706fa316546f1b5a4891671a9b9998bac824e92bbe3b549be7fe1a03a9e60beace5287dbf0e3bbd981631e533e380c5a5ff75774c7c1c2f0bbc842e",
      "networkId": 0,
      "chainId": 0
    },
    {
      "hash": "0x8741bd5e6c3839027fec6ea735aedb716d87508ffd53e2d9147c2aab6d74c543",
      "blockHash": "0x40f8ec14fb08f441979f572a931ec5aef3b5a8ee7019d8aa783dfe1032c79f2f",
      "blockNumber": 74109,
      "transactionIndex": 1,
      "confirmations": null,
      "from": "0xa70a9a7040d542C632D8e0bE7c5513A8a5Bbc752",
      "gasPrice": {
        "_hex": "0xe07b0abff"
      },
      "gasLimit": {
        "_hex": "0x5208"
      },
      "to": "0x32Be343B94f860124dC4fEe278FDCBD38C102D88",
      "value": {
        "_hex": "0x455f129b6350a400"
      },
      "nonce": 27,
      "data": "0x",
      "r": "0xa511a3881f307d4d5fd322a31138c6576b1efea3f503a82e9e6e262185b5a861",
      "s": "0x4e39cb823ae2aa17e2061779caae483d0d5005672cb5d2ceef415a029e12c993",
      "v": 28,
      "creates": null,
      "raw": "0xf86c1b850e07b0abff8252089432be343b94f860124dc4fee278fdcbd38c102d8888455f129b6350a400801ca0a511a3881f307d4d5fd322a31138c6576b1efea3f503a82e9e6e262185b5a861a04e39cb823ae2aa17e2061779caae483d0d5005672cb5d2ceef415a029e12c993",
      "networkId": 0,
      "chainId": 0
    }
  ]
}