{
  "hash": "0x8f5c81035c6295a26822e79af654c0a39f6bdda63b81b1865e1c39a678efa4f6",
  "parentHash": "0x866b5af6190fa47c0d7d6fe2cfc409259a7f0100dfcbd58454b5225b4ae46d0b",
  "number": 108003,
  "timestamp": 1439932418,
  "nonce": "0xa129f76f0a2ebcb6",
  "difficulty": 4359794177760,
  "gasLimit": {
    "_hex": "0x2fefd8"
  },
  "gasUsed": {
    "_hex": "0x5208"
  },
  "miner": "0xe6A7a1d47ff21B6321162AEA7C6CB457D5476Bca",
  "extraData": "0x476574682f76312e302e312d38326566323666362f6c696e75782f676f312e34",
  "transactions": [
    {
      "hash": "0xe1bd6cbb01cf0f04511505748b6626f923b5f6b81a2d0a5bed09609d4b7b9ca1",
      "blockHash": "0x8f5c81035c6295a26822e79af654c0a39f6bdda63b81b1865e1c39a678efa4f6",
      "blockNumber": 108003,
      "transactionIndex": 0,
      "confirmations": null,
      "from": "0x32Be343B94f860124dC4fEe278FDCBD38C102D88",
      "gasPrice": {
        "_hex": "0xd03c6ea25"
      },
      "gasLimit": {
        "_hex": "0x5208"
      },
      "to": "0x9BCDF86092d1cD705862b8343c7CFe1a9F20d6a6",
      "value": {
        "_hex": "0x2b200e37a29f96000"
      },
      "nonce": 1239,
      "data": "0x",
      "r": "0x898e247fe94e7281e916cd12e35f85cdaf57c5a3a86c482cc5a69fe35eff7569",
      "s": "0x4771f11481dd0ee3c915b4f0ce0d608fb62cc3c811af2f33a8ac8deddbc5310c",
      "v": 28,
      "creates": null,
      "raw": "0xf86f8204d7850d03c6ea25825208949bcdf86092d1cd705862b8343c7cfe1a9f20d6a68902b200e37a29f96000801ca0898e247fe94e7281e916cd12e35f85cdaf57c5a3a86c482cc5a69fe35eff7569a04771f11481dd0ee3c915b4f0ce0d608fb62cc3c811af2f33a8ac8deddbc5310c",
      "networkId": 0,
      "chainId": 0
    }
  ]
}