{
  "hash": "0x2f07d75e6f2d9e3bd9ab5242ffe4f45e14f59c619fab49638a00b53615c1420b",
  "parentHash": "0x2e2f59f4f41bb329a67d7af55ead54406db0cbb0304febad50ac05f1ee6df416",
  "number": 95156,
  "timestamp": 1439719688,
  "nonce": "0xf5e93501077af686",
  "difficulty": 3534353980807,
  "gasLimit": {
    "_hex": "0x2fefd8"
  },
  "gasUsed": {
    "_hex": "0x5208"
  },
  "miner": "0xD556D4200Aa5B4929ae154af9e922D84d1A33fc9",
  "extraData": "0x",
  "transactions": [
    {
      "hash": "0xe45226580b6c3bcea25c963ce4100a13cab35eb8973ad00ab60b0f5febb57edc",
      "blockHash": "0x2f07d75e6f2d9e3bd9ab5242ffe4f45e14f59c619fab49638a00b53615c1420b",
      "blockNumber": 95156,
      "transactionIndex": 0,
      "confirmations": null,
      "from": "0x32Be343B94f860124dC4fEe278FDCBD38C102D88",
      "gasPrice": {
        "_hex": "0xcf1ed3e40"
      },
      "gasLimit": {
        "_hex": "0x5208"
      },
      "to": "0x80bA7fe0Fc041a04C13C6Fdc9616aEd480A8782B",
      "value": {
        "_hex": "0x3952ed8d715910000"
      },
      "nonce": 976,
      "data": "0x",
      "r": "0x060e7166db76ed372dd5f1b06a2155497af8532879da081c60a5209494a54d95",
      "s": "0x422a7009742d16ed85085e05947bae1862955403acc981a24832c89caaec6c38",
      "v": 28,
      "creates": null,
      "raw": "0xf86f8203d0850cf1ed3e408252089480ba7fe0fc041a04c13c6fdc9616aed480a8782b8903952ed8d715910000801ca0060e7166db76ed372dd5f1b06a2155497af8532879da081c60a5209494a54d95a0422a7009742d16ed85085e05947bae1862955403acc981a24832c89caaec6c38",
      "networkId": 0,
      "chainId": 0
    }
  ]
}