{
  "hash": "0x43347851cef887cbe57cc1c8a1e2e213085a24105f5c11f59ac595af9713ed46",
  "parentHash": "0xe09187519229d6581f1c16306bb7d595d137139681ea1b231467f6bd5d35e8b9",
  "number": 48030,
  "timestamp": 1438950114,
  "nonce": "0xb68b884f1614a962",
  "difficulty": 1465807277537,
  "gasLimit": {
    "_hex": "0x11d1f"
  },
  "gasUsed": {
    "_hex": "0x5208"
  },
  "miner": "0xFA0D8956305eDfBc2E00beE10be65876005267Ac",
  "extraData": "0x476574682f76312e302e312f6c696e75782f676f312e342e32",
  "transactions": [
    {
      "hash": "0x31f43eae4f1f70c24966bd690fb863ac48e94714238fdbea362aa36ee478f295",
      "blockHash": "0x43347851cef887cbe57cc1c8a1e2e213085a24105f5c11f59ac595af9713ed46",
      "blockNumber": 48030,
      "transactionIndex": 0,
      "confirmations": null,
      "from": "0xBb990e55844f15Ac000cEB515D5a2A315Db9CB0B",
      "gasPrice": {
        "_hex": "0xcba856d36"
      },
      "gasLimit": {
        "_hex": "0x5208"
      },
      "to": "0x32Be343B94f860124dC4fEe278FDCBD38C102D88",
      "value": {
        "_hex": "0xddca28e6ef4cc00"
      },
      "nonce": 0,
      "data": "0x",
      "r": "0xb9b59fdd4b3538b7ba3ea332762d94d90a5f858a49a9d2fa74c7a9bebf2988ee",
      "s": "0x1cfff151c262ce3b63374fddea20b70a95bffb4b66ee9d29d2ec22017bd60f40",
      "v": 27,
      "creates": null,
      "raw": "0xf86c80850cba856d368252089432be343b94f860124dc4fee278fdcbd38c102d88880ddca28e6ef4cc00801ba0b9b59fdd4b3538b7ba3ea332762d94d90a5f858a49a9d2fa74c7a9bebf2988eea01cfff151c262ce3b63374fddea20b70a95bffb4b66ee9d29d2ec22017bd60f40",
      "networkId": 0,
      "chainId": 0
    }
  ]
}