{
  "hash": "0xa81c2307555930744900ef8fea5173408d2fad5d00c6200ecba8b0ebce6a5fc8",
  "parentHash": "0x90230cc10e3d414ee38e3b0558aaa0d2e4ec3b39d43697ba4eee0541210bcb5a",
  "number": 121168,
  "timestamp": 1440172511,
  "nonce": "0x2e4ae17da83b9e5b",
  "difficulty": 4406419659176,
  "gasLimit": {
    "_hex": "0x2fefd8"
  },
  "gasUsed": {
    "_hex": "0x1ec30"
  },
  "miner": "0xe6A7a1d47ff21B6321162AEA7C6CB457D5476Bca",
  "extraData": "0xd783010002844765746887676f312e342e32856c696e7578",
  "transactions": [
    {
      "hash": "0x9c040ca864d52fdaeea9acd7e56a2af5612e54b8564015c531e938c0b93b2522",
      "blockHash": "0xa81c2307555930744900ef8fea5173408d2fad5d00c6200ecba8b0ebce6a5fc8",
      "blockNumber": 121168,
      "transactionIndex": 0,
      "confirmations": null,
      "from": "0x6c526EC857c116541b66ED11eC3bE06b1C2B7E37",
      "gasPrice": {
        "_hex": "0xba43b7400"
      },
      "gasLimit": {
        "_hex": "0x5208"
      },
      "to": "0xC47Aaa860008be6f65B58c6C6E02a84e666EfE31",
      "value": {
        "_hex": "0x2a769b2e089ae300"
      },
      "nonce": 3,
      "data": "0x",
      "r": "0x116261aef4b710f4bf9f70415f77d67600b71343cad59b8dfc83396075130db5",
      "s": "0x7ace5d1b63055d7cc935ff02bc1bda5a969d5f143427d938c17088b667c32700",
      "v": 27,
      "creates": null,
      "raw": "0xf86c03850ba43b740082520894c47aaa860008be6f65b58c6c6e02a84e666efe31882a769b2e089ae300801ba0116261aef4b710f4bf9f70415f77d67600b71343cad59b8dfc83396075130db5a07ace5d1b63055d7cc935ff02bc1bda5a969d5f143427d938c17088b667c32700",
      "networkId": 0,
      "chainId": 0
    },
    {
      "hash": "0x1e73d43750985a1cffe41291e7847f48c650aa436b33a8aa1a3ed7bfaf11e11f",
      "blockHash": "0xa81c2307555930744900ef8fea5173408d2fad5d00c6200ecba8b0ebce6a5fc8",
      "blockNumber": 121168,
      "transactionIndex": 1,
      "confirmations": null,
      "from": "0xf322005790eE3ce722417e5314f056cB59Df0E0b",
      "gasPrice": {
        "_hex": "0xba43b7400"
      },
      "gasLimit": {
        "_hex": "0x5208"
      },
      "to": "0xC47Aaa860008be6f65B58c6C6E02a84e666EfE31",
      "value": {
        "_hex": "0x146f52bd076816000"
      },
      "nonce": 0,
      "data": "0x",
      "r": "0xdb9c7ba61ac6e337d2b4716ffad5a1b74f31872bcf831b4808aa4606f156f957",
      "s": "0x0d2a54f0bc6bb6ec7057fa32e8cec1398df41e13ca1e01baaf42ea518881dc54",
      "v": 27,
      "creates": null,
      "raw": "0xf86d80850ba43b740082520894c47aaa860008be6f65b58c6c6e02a84e666efe31890146f52bd076816000801ba0db9c7ba61ac6e337d2b4716ffad5a1b74f31872bcf831b4808aa4606f156f957a00d2a54f0bc6bb6ec7057fa32e8cec1398df41e13ca1e01baaf42ea518881dc54",
      "networkId": 0,
      "chainId": 0
    },
    {
      "hash": "0x2650c7812bfd2a856c25f2a699e3bd1d8c61532f3deab99ed40c21676c7cdd49",
      "blockHash": "0xa81c2307555930744900ef8fea5173408d2fad5d00c6200ecba8b0ebce6a5fc8",
      "blockNumber": 121168,
      "transactionIndex": 2,
      "confirmations": null,
      "from": "0x41d38070FDD7962bfe615F6831B68617B165b8FB",
      "gasPrice": {
        "_hex": "0xba43b7400"
      },
      "gasLimit": {
        "_hex": "0x5208"
      },
      "to": "0xC47Aaa860008be6f65B58c6C6E02a84e666EfE31",
      "value": {
        "_hex": "0x3bd8d8373f0f038f0"
      },
      "nonce": 1,
      "data": "0x",
      "r": "0x6feec301255d217c5dfecb3243f518b00c270c13b462d57b3853d227790f2c25",
      "s": "0x7d47d47044a77f9fdc49a1f2fbbbd5061488618eef14f66006c7e3bd01004bb5",
      "v": 28,
      "creates": null,
      "raw": "0xf86d01850ba43b740082520894c47aaa860008be6f65b58c6c6e02a84e666efe318903bd8d8373f0f038f0801ca06feec301255d217c5dfecb3243f518b00c270c13b462d57b3853d227790f2c25a07d47d47044a77f9fdc49a1f2fbbbd5061488618eef14f66006c7e3bd01004bb5",
      "networkId": 0,
      "chainId": 0
    },
    {
      "hash": "0xe6f5e3c6603b24bcd3ac83f189c0a718e6ed5d00930aa535f30f59a08eeb98be",
      "blockHash": "0xa81c2307555930744900ef8fea5173408d2fad5d00c6200ecba8b0ebce6a5fc8",
      "blockNumber": 121168,
      "transactionIndex": 3,
      "confirmations": null,
      "from": "0x064907236cc3205e5f60Bb0C5168f1F110835afa",
      "gasPrice": {
        "_hex": "0xba43b7400"
      },
      "gasLimit": {
        "_hex": "0x5208"
      },
      "to": "0xC47Aaa860008be6f65B58c6C6E02a84e666EfE31",
      "value": {
        "_hex": "0xdb49133272b740710"
      },
      "nonce": 1,
      "data": "0x",
      "r": "0x2d5c7461ea4fb813732b0a27f3e74e8e5449da0dddf5571281aad23d1ea3b1c9",
      "s": "0x476e2eb9285788f8ade0accfd3e58cf0aaca341a0653684680970b2ae8059699",
      "v": 28,
      "creates": null,
      "raw": "0xf86d01850ba43b740082520894c47aaa860008be6f65b58c6c6e02a84e666efe31890db49133272b740710801ca02d5c7461ea4fb813732b0a27f3e74e8e5449da0dddf5571281aad23d1ea3b1c9a0476e2eb9285788f8ade0accfd3e58cf0aaca341a0653684680970b2ae8059699",
      "networkId": 0,
      "chainId": 0
    },
    {
      "hash": "0x8f90b922ef9e128af7a803faef8929bb9e388621767647d3d977c800a44a2509",
      "blockHash": "0xa81c2307555930744900ef8fea5173408d2fad5d00c6200ecba8b0ebce6a5fc8",
      "blockNumber": 121168,
      "transactionIndex": 4,
      "confirmations": null,
      "from": "0xAAc7c655830b2fF580BDFEa1a416E5efAfAb3291",
      "gasPrice": {
        "_hex": "0xba43b7400"
      },
      "gasLimit": {
        "_hex": "0x5208"
      },
      "to": "0xC47Aaa860008be6f65B58c6C6E02a84e666EfE31",
      "value": {
        "_hex": "0x11567041e770b38f0"
      },
      "nonce": 4,
      "data": "0x",
      "r": "0x9ab03d43de09e1c45e99fa3692cef3bd38b57176969b90976d0652579dc8c1d8",
      "s": "0x4e3a4aa98fea90f494e0029df095d2cb5e08eaa725d43892c13ef4147d0f1219",
      "v": 28,
      "creates": null,
      "raw": "0xf86d04850ba43b740082520894c47aaa860008be6f65b58c6c6e02a84e666efe3189011567041e770b38f0801ca09ab03d43de09e1c45e99fa3692cef3bd38b57176969b90976d0652579dc8c1d8a04e3a4aa98fea90f494e0029df095d2cb5e08eaa725d43892c13ef4147d0f1219",
      "networkId": 0,
      "chainId": 0
    },
    {
      "hash": "0x598ab49da23740525a764d84a112d43d2836394a3af2ba2a3a1bc9b04a29bb07",
      "blockHash": "0xa81c2307555930744900ef8fea5173408d2fad5d00c6200ecba8b0ebce6a5fc8",
      "blockNumber": 121168,
      "transactionIndex": 5,
      "confirmations": null,
      "from": "0x690E9A82e837aad27186c9DdBA090F43f8939f79",
      "gasPrice": {
        "_hex": "0xba43b7400"
      },
      "gasLimit": {
        "_hex": "0x5208"
      },
      "to": "0xC47Aaa860008be6f65B58c6C6E02a84e666EfE31",
      "value": {
        "_hex": "0x1289391b68aaffc00"
      },
      "nonce": 0,
      "data": "0x",
      "r": "0xe0e138a94785d4fe8b09a476eee29765b505190dc7d70ce374235e893305d019",
      "s": "0x233bbb9ef25abdaaebfede6098a578d4a33028bb63b72c3d299a05132daf5597",
      "v": 27,
      "creates": null,
      "raw": "0xf86d80850ba43b740082520894c47aaa860008be6f65b58c6c6e02a84e666efe318901289391b68aaffc00801ba0e0e138a94785d4fe8b09a476eee29765b505190dc7d70ce374235e893305d019a0233bbb9ef25abdaaebfede6098a578d4a33028bb63b72c3d299a05132daf5597",
      "networkId": 0,
      "chainId": 0
    }
  ]
}