{
  "hash": "0x866595af1d2db58574c6ce73d77a965db53f0ed882714060405f737285837583",
  "parentHash": "0xe087f095f407ae0d697258cc20e631535e348a2ed2b0f6488bd7f4c2f8003e8d",
  "number": 80055,
  "timestamp": 1439479435,
  "nonce": "0x1718f160c4587e92",
  "difficulty": 2350581423408,
  "gasLimit": {
    "_hex": "0x2fefd8"
  },
  "gasUsed": {
    "_hex": "0x14e47"
  },
  "miner": "0x31995C46B15C84523cDEE26f49A681b8237e43F5",
  "extraData": "0x476574682f76312e302e312f77696e646f77732f676f312e342e32",
  "transactions": [
    {
      "hash": "0xb644edc04c95b14ca791e1befbe4c1f85c419373110da2c5ca09a2ce1854973d",
      "blockHash": "0x866595af1d2db58574c6ce73d77a965db53f0ed882714060405f737285837583",
      "blockNumber": 80055,
      "transactionIndex": 0,
      "confirmations": null,
      "from": "0x87C5B5874A18B4306DF8a752a6C8cc3E82daFc19",
      "gasPrice": {
        "_hex": "0x1164c94ed1d"
      },
      "gasLimit": {
        "_hex": "0x493e0"
      },
      "to": "0xC4c51de1AbF5D60DBd329eC0F999Fd8f021ae9fC",
      "value": {
        "_hex": "0x0"
      },
      "nonce": 125,
      "data": "0x03750d9400000000000000000000000087c5b5874a18b4306df8a752a6c8cc3e82dafc196361740000000000000000000000000000000000000000000000000000000000",
      "r": "0x95c34264a0dcb0d0ca4b0ef6e735e709aa3f0bd1d05442928716dbe4e8006d84",
      "s": "0x1de71bf91b39b44c8bef88a9d600d0efa899590b4d96b0ec53e8c59c7cfef41e",
      "v": 28,
      "creates": null,
      "raw": "0xf8ab7d8601164c94ed1d830493e094c4c51de1abf5d60dbd329ec0f999fd8f021ae9fc80b84403750d9400000000000000000000000087c5b5874a18b4306df8a752a6c8cc3e82dafc1963617400000000000000000000000000000000000000000000000000000000001ca095c34264a0dcb0d0ca4b0ef6e735e709aa3f0bd1d05442928716dbe4e8006d84a01de71bf91b39b44c8bef88a9d600d0efa899590b4d96b0ec53e8c59c7cfef41e",
      "networkId": 0,
      "chainId": 0
    },
    {
      "hash": "0xaf566bab73637fa42c1d76a2144d984b24efbb4afc61003617c9ac904bdc7195",
      "blockHash": "0x866595af1d2db58574c6ce73d77a965db53f0ed882714060405f737285837583",
      "blockNumber": 80055,
      "transactionIndex": 1,
      "confirmations": null,
      "from": "0x6e9E0a2aAa3c4d41aa69f4E7328095278284f7e2",
      "gasPrice": {
        "_hex": "0xd688bb90d"
      },
      "gasLimit": {
        "_hex": "0x15f90"
      },
      "to": "0x15674e39f68d518367ECDd22cB73534Cb74bDC28",
      "value": {
        "_hex": "0xad78ebc5ac6200000"
      },
      "nonce": 1,
      "data": "0x",
      "r": "0xeba355f8727012a7e54c906331e94663969d015b721831521e16ed52505962a1",
      "s": "0x2ab01574d9fd73c05edd0b40241e5ec4b5804a82271eb54bc844368c1d01347b",
      "v": 28,
      "creates": null,
      "raw": "0xf86e01850d688bb90d83015f909415674e39f68d518367ecdd22cb73534cb74bdc28890ad78ebc5ac6200000801ca0eba355f8727012a7e54c906331e94663969d015b721831521e16ed52505962a1a02ab01574d9fd73c05edd0b40241e5ec4b5804a82271eb54bc844368c1d01347b",
      "networkId": 0,
      "chainId": 0
    },
    {
      "hash": "0xcff7bab07a096e4c01dd6a76befb2c0b11ebeec5bbb38b592f6daaa755ba60b6",
      "blockHash": "0x866595af1d2db58574c6ce73d77a965db53f0ed882714060405f737285837583",
      "blockNumber": 80055,
      "transactionIndex": 2,
      "confirmations": null,
      "from": "0x9dD134D14D1e65F84B706d6F205cd5B1CD03a46b",
      "gasPrice": {
        "_hex": "0xcd4226bd5"
      },
      "gasLimit": {
        "_hex": "0x15f90"
      },
      "to": "0xa6BDc31c431B8F97848c9D60cbbe9660dc450eB7",
      "value": {
        "_hex": "0x52663ccab1e1c0000"
      },
      "nonce": 0,
      "data": "0x",
      "r": "0xb9ca129ce2116bac863b1b9c811171f14e1096b80db8cfb700ac879a9021b8fa",
      "s": "0x391ce0ddd292a0173c8eed56bcfe952c678b29f10cd3a389787d14fddc46b315",
      "v": 27,
      "creates": null,
      "raw": "0xf86e80850cd4226bd583015f9094a6bdc31c431b8f97848c9d60cbbe9660dc450eb789052663ccab1e1c0000801ba0b9ca129ce2116bac863b1b9c811171f14e1096b80db8cfb700ac879a9021b8faa0391ce0ddd292a0173c8eed56bcfe952c678b29f10cd3a389787d14fddc46b315",
      "networkId": 0,
      "chainId": 0
    }
  ]
}