{
  "hash": "0x576fd45e598c9f86835f50fe2c6e6d11df2d4c4b01f19e4241b7e793d852f9e4",
  "parentHash": "0x7bca63a3e8ef3048adecc13dda97aaa1a850d762354b3aeab63e9850f02013e9",
  "number": 99998,
  "timestamp": 1439799094,
  "nonce": "0x09c8f375e00a3faf",
  "difficulty": 3845540887505,
  "gasLimit": {
    "_hex": "0x2fefd8"
  },
  "gasUsed": {
    "_hex": "0xa410"
  },
  "miner": "0x77EC9ad4A7E9418774C29415CAaF4Ee0da96eF64",
  "extraData": "0x",
  "transactions": [
    {
      "hash": "0x9cb2cef4d8632b58815dc567f15ec4c8434eb23af1bc518a3bb52be74cb055e3",
      "blockHash": "0x576fd45e598c9f86835f50fe2c6e6d11df2d4c4b01f19e4241b7e793d852f9e4",
      "blockNumber": 99998,
      "transactionIndex": 0,
      "confirmations": null,
      "from": "0x6111E933E5e6297DFd0AAd9aAB64017c69062a08",
      "gasPrice": {
        "_hex": "0xcdd9a915c"
      },
      "gasLimit": {
        "_hex": "0x5208"
      },
      "to": "0x32Be343B94f860124dC4fEe278FDCBD38C102D88",
      "value": {
        "_hex": "0xb740da2e5635a000"
      },
      "nonce": 15,
      "data": "0x",
      "r": "0x4e93a427c8d2223503779035d80a9b66a87a260cd33ee2df79530355158433ff",
      "s": "0x7addbd797fe03cc5a0c145710c181e58fc8a3a864019f4e3e615dac4cc286c67",
      "v": 27,
      "creates": null,
      "raw": "0xf86c0f850cdd9a915c8252089432be343b94f860124dc4fee278fdcbd38c102d8888b740da2e5635a000801ba04e93a427c8d2223503779035d80a9b66a87a260cd33ee2df79530355158433ffa07addbd797fe03cc5a0c145710c181e58fc8a3a864019f4e3e615dac4cc286c67",
      "networkId": 0,
      "chainId": 0
    },
    {
      "hash": "0xfda7e7921fd882dce5fce9e904b15b581919a276bd2a35c36f7835607493b4a5",
      "blockHash": "0x576fd45e598c9f86835f50fe2c6e6d11df2d4c4b01f19e4241b7e793d852f9e4",
      "blockNumber": 99998,
      "transactionIndex": 1,
      "confirmations": null,
      "from": "0x3234d29E2390E0Ac637B3ad0ACA3dF88aC82dC5d",
      "gasPrice": {
        "_hex": "0xcdd9a915c"
      },
      "gasLimit": {
        "_hex": "0x5208"
      },
      "to": "0x32Be343B94f860124dC4fEe278FDCBD38C102D88",
      "value": {
        "_hex": "0x974c98061e239000"
      },
      "nonce": 9,
      "data": "0x",
      "r": "0x9cb239be560688fd59beb038cdbbc15c77363e18d93569d4ce9d9e48e401c038",
      "s": "0x674664b4b39b5c67dfabe14a7329f289c3fefd4ba1913e619b38196914a60a78",
      "v": 27,
      "creates": null,
      "raw": "0xf86c09850cdd9a915c8252089432be343b94f860124dc4fee278fdcbd38c102d8888974c98061e239000801ba09cb239be560688fd59beb038cdbbc15c77363e18d93569d4ce9d9e48e401c038a0674664b4b39b5c67dfabe14a7329f289c3fefd4ba1913e619b38196914a60a78",
      "networkId": 0,
      "chainId": 0
    }
  ]
}