{
  "hash": "0x34e846ff393e50a1004c57bd2d8f8a1eb13b36b00bd76fd45c4dc9fe207342c9",
  "parentHash": "0x65a93c12139602027ee1917d297d0300cef2fba235641c4fdfbd5f487ef9b40f",
  "number": 103629,
  "timestamp": 1439856498,
  "nonce": "0xde746fb6e8e11ada",
  "difficulty": 4199058486510,
  "gasLimit": {
    "_hex": "0x2fefd8"
  },
  "gasUsed": {
    "_hex": "0xa410"
  },
  "miner": "0xe6A7a1d47ff21B6321162AEA7C6CB457D5476Bca",
  "extraData": "0x476574682f76312e302e312d38326566323666362f6c696e75782f676f312e34",
  "transactions": [
    {
      "hash": "0xcc8f034e76af5e0c6b40fc81e7b076cb65c637d905a2f9f9233bb17dc19373e3",
      "blockHash": "0x34e846ff393e50a1004c57bd2d8f8a1eb13b36b00bd76fd45c4dc9fe207342c9",
      "blockNumber": 103629,
      "transactionIndex": 0,
      "confirmations": null,
      "from": "0x8F79f76381Aad7B98C19aF55eE75fdfEeb012211",
      "gasPrice": {
        "_hex": "0xddb888b37"
      },
      "gasLimit": {
        "_hex": "0x5208"
      },
      "to": "0x32Be343B94f860124dC4fEe278FDCBD38C102D88",
      "value": {
        "_hex": "0xa4cc3289632da8000"
      },
      "nonce": 42,
      "data": "0x",
      "r": "0x0a534646665464e8bd5c237d784155291242c7b7778c569d3732ff36f0393840",
      "s": "0x6f24c0849d5219c9c1e86c1faf02b1d6265444b64e1632214013112c731b8bfd",
      "v": 27,
      "creates": null,
      "raw": "0xf86d2a850ddb888b378252089432be343b94f860124dc4fee278fdcbd38c102d88890a4cc3289632da8000801ba00a534646665464e8bd5c237d784155291242c7b7778c569d3732ff36f0393840a06f24c0849d5219c9c1e86c1faf02b1d6265444b64e1632214013112c731b8bfd",
      "networkId": 0,
      "chainId": 0
    },
    {
      "hash": "0x3a40c6461371ebcb96f327c8218ec6ce97107d0e2c2653300f29787c50a0d1b1",
      "blockHash": "0x34e846ff393e50a1004c57bd2d8f8a1eb13b36b00bd76fd45c4dc9fe207342c9",
      "blockNumber": 103629,
      "transactionIndex": 1,
      "confirmations": null,
      "from": "0xb1abce2918E21ddb93AA452731a12672A3d9F75a",
      "gasPrice": {
        "_hex": "0xddb888b37"
      },
      "gasLimit": {
        "_hex": "0x5208"
      },
      "to": "0x32Be343B94f860124dC4fEe278FDCBD38C102D88",
      "value": {
        "_hex": "0x455f20c23b967400"
      },
      "nonce": 121,
      "data": "0x",
      "r": "0x0c2342febfc1ff7e5fec733e5f6391b4ec27487f5c68e0bd29e354137bfbd5a4",
      "s": "0x5b6ccbbb15559aa7b6fd6617771b91c9ae21694e43198ba26deda197bccbc96b",
      "v": 27,
      "creates": null,
      "raw": "0xf86c79850ddb888b378252089432be343b94f860124dc4fee278fdcbd38c102d8888455f20c23b967400801ba00c2342febfc1ff7e5fec733e5f6391b4ec27487f5c68e0bd29e354137bfbd5a4a05b6ccbbb15559aa7b6fd6617771b91c9ae21694e43198ba26deda197bccbc96b",
      "networkId": 0,
      "chainId": 0
    }
  ]
}