{
  "hash": "0x9020f3974a3e143ebbc474a978cab95fa351738c037c9827e78481b4ab567bfe",
  "parentHash": "0x429558ee2809e5d63c89ace0d1fc037e26f2c4dff27ee8703fc25368e58db467",
  "number": 96694,
  "timestamp": 1439744356,
  "nonce": "0xf6e7b49da4e14919",
  "difficulty": 3750606298592,
  "gasLimit": {
    "_hex": "0x2fefd8"
  },
  "gasUsed": {
    "_hex": "0x5208"
  },
  "miner": "0xe6A7a1d47ff21B6321162AEA7C6CB457D5476Bca",
  "extraData": "0x476574682f76312e302e312d38326566323666362f6c696e75782f676f312e34",
  "transactions": [
    {
      "hash": "0x9e282c08a6173e12fce06b44561e7cc2b1c1c361c20c5f1f096983c74086d753",
      "blockHash": "0x9020f3974a3e143ebbc474a978cab95fa351738c037c9827e78481b4ab567bfe",
      "blockNumber": 96694,
      "transactionIndex": 0,
      "confirmations": null,
      "from": "0x9827C93917a0c59899BEfBa58d104A788782e1d4",
      "gasPrice": {
        "_hex": "0xd3d37f23a"
      },
      "gasLimit": {
        "_hex": "0x15f90"
      },
      "to": "0x61F642543d22bAf5382908a714E675Cc0b51ea45",
      "value": {
        "_hex": "0x8ac7230489e80000"
      },
      "nonce": 2,
      "data": "0x",
      "r": "0xe1c1b0366d0217c96a95ad63051772a373fbc04acefa407d026634dd598c3a4e",
      "s": "0x5bc367dab17c6848f2d3077d1afca06632e937fada46d0fc91c501cf74485a29",
      "v": 27,
      "creates": null,
      "raw": "0xf86d02850d3d37f23a83015f909461f642543d22baf5382908a714e675cc0b51ea45888ac7230489e80000801ba0e1c1b0366d0217c96a95ad63051772a373fbc04acefa407d026634dd598c3a4ea05bc367dab17c6848f2d3077d1afca06632e937fada46d0fc91c501cf74485a29",
      "networkId": 0,
      "chainId": 0
    }
  ]
}