{
  "hash": "0x6b18940776c6f7439fa002189da0772950c75a651384fb836b39a57e99e2fe6e",
  "parentHash": "0x84c68fd72f12de996a2681cdb499f98d52fb78ee31e9950826722b3cfadff51a",
  "number": 99432,
  "timestamp": 1439790036,
  "nonce": "0xd7d77208030aac7d",
  "difficulty": 3789875995976,
  "gasLimit": {
    "_hex": "0x2fefd8"
  },
  "gasUsed": {
    "_hex": "0x5208"
  },
  "miner": "0xe6A7a1d47ff21B6321162AEA7C6CB457D5476Bca",
  "extraData": "0x476574682f76312e302e312d38326566323666362f6c696e75782f676f312e34",
  "transactions": [
    {
      "hash": "0x4b3f3c4a7a264dec9175358ff7d7d832aeca6143fbfb9a78a0e48b655f2c797d",
      "blockHash": "0x6b18940776c6f7439fa002189da0772950c75a651384fb836b39a57e99e2fe6e",
      "blockNumber": 99432,
      "transactionIndex": 0,
      "confirmations": null,
      "from": "0xA21Ba94e45f0E168dA824fC67aC9cb5Cb577a8aF",
      "gasPrice": {
        "_hex": "0x45d964b800"
      },
      "gasLimit": {
        "_hex": "0x5208"
      },
      "to": "0x56011d6b57A70c27F7cc294905A5DdA65BfBd154",
      "value": {
        "_hex": "0x2b5e3af16b1880000"
      },
      "nonce": 13,
      "data": "0x",
      "r": "0x3051769ded060564d735821d820e67b9cff1b443fc5a8bc49e5c35e6a455b081",
      "s": "0x5b93a7a0c2bef5175a02de0b93123f84d1b6c5395f2a5000c59ea3c0d4ddd027",
      "v": 27,
      "creates": null,
      "raw": "0xf86d0d8545d964b8008252089456011d6b57a70c27f7cc294905a5dda65bfbd1548902b5e3af16b1880000801ba03051769ded060564d735821d820e67b9cff1b443fc5a8bc49e5c35e6a455b081a05b93a7a0c2bef5175a02de0b93123f84d1b6c5395f2a5000c59ea3c0d4ddd027",
      "networkId": 0,
      "chainId": 0
    }
  ]
}