{
  "hash": "0xaafbd04f1085761ed6fce687463f4cd9176e94154ea444944f30288fd3c023ff",
  "parentHash": "0x85d89a930d5d1e91d7fbdcf67afe907b9d43459e8f0918951e7eca291f7caf7b",
  "number": 81090,
  "timestamp": 1439496060,
  "nonce": "0x52b889421019b452",
  "difficulty": 2433200092861,
  "gasLimit": {
    "_hex": "0x2fefd8"
  },
  "gasUsed": {
    "_hex": "0x114041"
  },
  "miner": "0x007f7f58D3eb5b7510A301eCC749FC1fCDDBE14D",
  "extraData": "0x476574682f76312e302e312f77696e646f77732f676f312e342e32",
  "transactions": [
    {
      "hash": "0x4dfb3ad4bf5d6a3c1ec2a3fd968b9789dfef453d583368e2c07f445a0074d07d",
      "blockHash": "0xaafbd04f1085761ed6fce687463f4cd9176e94154ea444944f30288fd3c023ff",
      "blockNumber": 81090,
      "transactionIndex": 0,
      "confirmations": null,
      "from": "0xa914cDb571BFd93D64da66a4e108EA134e50D000",
      "gasPrice": {
        "_hex": "0x9184e72a000"
      },
      "gasLimit": {
        "_hex": "0x55f0"
      },
      "to": "0x2910543Af39abA0Cd09dBb2D50200b3E800A63D2",
      "value": {
        "_hex": "0x16345785d8a0000"
      },
      "nonce": 14,
      "data": "0x454e43523838455252",
      "r": "0x1731403451686cfd070572d560c7e4530f3c1cafb147acdfac8d59fbdb8163a7",
      "s": "0x67d5b3afcaad4881a8db972e442466b6714e58312a85d9005006db6480d8e7c4",
      "v": 27,
      "creates": null,
      "raw": "0xf8760e8609184e72a0008255f0942910543af39aba0cd09dbb2d50200b3e800a63d288016345785d8a000089454e435238384552521ba01731403451686cfd070572d560c7e4530f3c1cafb147acdfac8d59fbdb8163a7a067d5b3afcaad4881a8db972e442466b6714e58312a85d9005006db6480d8e7c4",
      "networkId": 0,
      "chainId": 0
    },
    {
      "hash": "0x227fa2b6a5111295041e0ee378317823ba82ec0835795f986eedf234248e132f",
      "blockHash": "0xaafbd04f1085761ed6fce687463f4cd9176e94154ea444944f30288fd3c023ff",
      "blockNumber": 81090,
      "transactionIndex": 1,
      "confirmations": null,
      "from": "0x16893e10b99A59afd2C60331E0B49241d4d4d7cC",
      "gasPrice": {
        "_hex": "0xd412140b0"
      },
      "gasLimit": {
        "_hex": "0x16e360"
      },
      "to": null,
      "value": {
        "_hex": "0x0"
      },
      "nonce": 5,
      "data": "0x6060604052610f7c806100136000396000f30060606040526000357c01000000000000000000000000000000000000000000000000000000009004806305215b2f1461004f5780635f8dead31461008c578063dc3f65d3146100cf5761004d565b005b610060600480359060200150610124565b604051808273ffffffffffffffffffffffffffffffffffffffff16815260200191505060405180910390f35b6100a36004803590602001803590602001506101ef565b604051808273ffffffffffffffffffffffffffffffffffffffff16815260200191505060405180910390f35b6100da600450610240565b60405180806020018281038252838181518152602001915080519060200190602002808383829060006004602084601f0104600302600f01f1509050019250505060405180910390f35b6000600082604051610c7f806102fd83390180828152602001915050604051809103906000f0905080600060005060003373ffffffffffffffffffffffffffffffffffffffff168152602001908152602001600020600050600060005060003373ffffffffffffffffffffffffffffffffffffffff16815260200190815260200160002060005054815481101561000257906000526020600020900160006101000a81548173ffffffffffffffffffffffffffffffffffffffff021916908302179055505b50919050565b60006000506020528160005260406000206000508181548110156100025790600052602060002090016000915091509054906101000a900473ffffffffffffffffffffffffffffffffffffffff1681565b6020604051908101604052806000815260200150600060005060003373ffffffffffffffffffffffffffffffffffffffff1681526020019081526020016000206000508054806020026020016040519081016040528092919081815260200182805480156102ed57602002820191906000526020600020905b8160009054906101000a900473ffffffffffffffffffffffffffffffffffffffff16815260200190600101908083116102b9575b505050505090506102f9565b9056006060604052604051602080610c7f8339016040526060805190602001505b80600060005060003373ffffffffffffffffffffffffffffffffffffffff168152602001908152602001600020600050819055505b50610c1d806100626000396000f300606060405236156100b6576000357c0100000000000000000000000000000000000000000000000000000000900480631fa03a2b146100b857806321af4feb146100e557806327e235e314610112578063673448dd1461013957806367eae67214610160578063930b7a2314610193578063bbd39ac0146101ac578063c86a90fe146101d3578063d26c8a8a14610200578063daea85c514610221578063f4b1604514610234578063fbf1f78a14610261576100b6565b005b6100cf60048035906020018035906020015061072e565b6040518082815260200191505060405180910390f35b6100fc6004803590602001803590602001506105fd565b6040518082815260200191505060405180910390f35b610123600480359060200150610810565b6040518082815260200191505060405180910390f35b61014a600480359060200150610410565b6040518082815260200191505060405180910390f35b61017d60048035906020018035906020018035906020015061099b565b6040518082815260200191505060405180910390f35b6101aa600480359060200180359060200150610628565b005b6101bd6004803590602001506106f0565b6040518082815260200191505060405180910390f35b6101ea600480359060200180359060200150610867565b6040518082815260200191505060405180910390f35b61020b60045061082b565b6040518082815260200191505060405180910390f35b6102326004803590602001506104f1565b005b61024b6004803590602001803590602001506105c8565b6040518082815260200191505060405180910390f35b610272600480359060200150610274565b005b6000600160005060003373ffffffffffffffffffffffffffffffffffffffff16815260200190815260200160002060005060008373ffffffffffffffffffffffffffffffffffffffff16815260200190815260200160002060006101000a81548160ff021916908302179055506000600260005060003373ffffffffffffffffffffffffffffffffffffffff16815260200190815260200160002060005060008373ffffffffffffffffffffffffffffffffffffffff168152602001908152602001600020600050819055508073ffffffffffffffffffffffffffffffffffffffff163373ffffffffffffffffffffffffffffffffffffffff167f0e40f4b0b06b7d270eb92aed48caf256e6bbe4f83c5492e7433958cf5566192060006040518082815260200191505060405180910390a38073ffffffffffffffffffffffffffffffffffffffff163373ffffffffffffffffffffffffffffffffffffffff167fcc92c05edef6bc5dcdfab43862409620fd81888eec1be99935f19375c4ef704e60006040518082815260200191505060405180910390a35b50565b60006001600160005060003373ffffffffffffffffffffffffffffffffffffffff16815260200190815260200160002060005060008473ffffffffffffffffffffffffffffffffffffffff16815260200190815260200160002060009054906101000a900460ff1614806104dd57506000600260005060003373ffffffffffffffffffffffffffffffffffffffff16815260200190815260200160002060005060008473ffffffffffffffffffffffffffffffffffffffff16815260200190815260200160002060005054115b156104eb57600190506104ec565b5b919050565b6001600160005060003373ffffffffffffffffffffffffffffffffffffffff16815260200190815260200160002060005060008373ffffffffffffffffffffffffffffffffffffffff16815260200190815260200160002060006101000a81548160ff021916908302179055508073ffffffffffffffffffffffffffffffffffffffff163373ffffffffffffffffffffffffffffffffffffffff167f0e40f4b0b06b7d270eb92aed48caf256e6bbe4f83c5492e7433958cf5566192060016040518082815260200191505060405180910390a35b50565b60016000506020528160005260406000206000506020528060005260406000206000915091509054906101000a900460ff1681565b6002600050602052816000526040600020600050602052806000526040600020600091509150505481565b80600260005060003373ffffffffffffffffffffffffffffffffffffffff16815260200190815260200160002060005060008473ffffffffffffffffffffffffffffffffffffffff168152602001908152602001600020600050819055508173ffffffffffffffffffffffffffffffffffffffff163373ffffffffffffffffffffffffffffffffffffffff167fcc92c05edef6bc5dcdfab43862409620fd81888eec1be99935f19375c4ef704e836040518082815260200191505060405180910390a35b5050565b6000600060005060008373ffffffffffffffffffffffffffffffffffffffff168152602001908152602001600020600050549050610729565b919050565b60006001600160005060008573ffffffffffffffffffffffffffffffffffffffff16815260200190815260200160002060005060008473ffffffffffffffffffffffffffffffffffffffff16815260200190815260200160002060009054906101000a900460ff1614806107fb57506000600260005060008573ffffffffffffffffffffffffffffffffffffffff16815260200190815260200160002060005060008473ffffffffffffffffffffffffffffffffffffffff16815260200190815260200160002060005054115b15610809576001905061080a565b5b92915050565b60006000506020528060005260406000206000915090505481565b6000600060005060003373ffffffffffffffffffffffffffffffffffffffff168152602001908152602001600020600050549050610864565b90565b600082600060005060003373ffffffffffffffffffffffffffffffffffffffff1681526020019081526020016000206000505410151561098b5782600060005060003373ffffffffffffffffffffffffffffffffffffffff16815260200190815260200160002060008282825054039250508190555082600060005060008473ffffffffffffffffffffffffffffffffffffffff1681526020019081526020016000206000828282505401925050819055508173ffffffffffffffffffffffffffffffffffffffff163373ffffffffffffffffffffffffffffffffffffffff167f16cdf1707799c6655baac6e210f52b94b7cec08adcaf9ede7dfe8649da926146856040518082815260200191505060405180910390a36001905061099556610994565b60009050610995565b5b92915050565b6000600083600060005060008773ffffffffffffffffffffffffffffffffffffffff16815260200190815260200160002060005054101515610c145760009050600160005060008673ffffffffffffffffffffffffffffffffffffffff16815260200190815260200160002060005060003373ffffffffffffffffffffffffffffffffffffffff16815260200190815260200160002060009054906101000a900460ff1615610a4f57600190508050610b17565b600260005060008673ffffffffffffffffffffffffffffffffffffffff16815260200190815260200160002060005060003373ffffffffffffffffffffffffffffffffffffffff16815260200190815260200160002060005054841015610b16576001905080506000600260005060008773ffffffffffffffffffffffffffffffffffffffff16815260200190815260200160002060005060003373ffffffffffffffffffffffffffffffffffffffff168152602001908152602001600020600050819055505b5b6001811415610c0a5783600060005060008773ffffffffffffffffffffffffffffffffffffffff16815260200190815260200160002060008282825054039250508190555083600060005060008573ffffffffffffffffffffffffffffffffffffffff1681526020019081526020016000206000828282505401925050819055508273ffffffffffffffffffffffffffffffffffffffff168573ffffffffffffffffffffffffffffffffffffffff167f16cdf1707799c6655baac6e210f52b94b7cec08adcaf9ede7dfe8649da926146866040518082815260200191505060405180910390a360019150610c1556610c13565b60009150610c15565b5b5b50939250505056",
      "r": "0xe036a55b08cd29cb9a912598f0f9b301a7f4a401e2799d77bdebc34b92ca3b42",
      "s": "0x19437ea9186766df3785f2670f07edaff8cf274a99fe581c1ee9cea6a3dcbb55",
      "v": 27,
      "creates": "0x2E99062e3EB5CF5B74ca258b79ad151A1A69EEfc",
      "raw": "0xf90fe205850d412140b08316e3608080b90f8f6060604052610f7c806100136000396000f30060606040526000357c01000000000000000000000000000000000000000000000000000000009004806305215b2f1461004f5780635f8dead31461008c578063dc3f65d3146100cf5761004d565b005b610060600480359060200150610124565b604051808273ffffffffffffffffffffffffffffffffffffffff16815260200191505060405180910390f35b6100a36004803590602001803590602001506101ef565b604051808273ffffffffffffffffffffffffffffffffffffffff16815260200191505060405180910390f35b6100da600450610240565b60405180806020018281038252838181518152602001915080519060200190602002808383829060006004602084601f0104600302600f01f1509050019250505060405180910390f35b6000600082604051610c7f806102fd83390180828152602001915050604051809103906000f0905080600060005060003373ffffffffffffffffffffffffffffffffffffffff168152602001908152602001600020600050600060005060003373ffffffffffffffffffffffffffffffffffffffff16815260200190815260200160002060005054815481101561000257906000526020600020900160006101000a81548173ffffffffffffffffffffffffffffffffffffffff021916908302179055505b50919050565b60006000506020528160005260406000206000508181548110156100025790600052602060002090016000915091509054906101000a900473ffffffffffffffffffffffffffffffffffffffff1681565b6020604051908101604052806000815260200150600060005060003373ffffffffffffffffffffffffffffffffffffffff1681526020019081526020016000206000508054806020026020016040519081016040528092919081815260200182805480156102ed57602002820191906000526020600020905b8160009054906101000a900473ffffffffffffffffffffffffffffffffffffffff16815260200190600101908083116102b9575b505050505090506102f9565b9056006060604052604051602080610c7f8339016040526060805190602001505b80600060005060003373ffffffffffffffffffffffffffffffffffffffff168152602001908152602001600020600050819055505b50610c1d806100626000396000f300606060405236156100b6576000357c0100000000000000000000000000000000000000000000000000000000900480631fa03a2b146100b857806321af4feb146100e557806327e235e314610112578063673448dd1461013957806367eae67214610160578063930b7a2314610193578063bbd39ac0146101ac578063c86a90fe146101d3578063d26c8a8a14610200578063daea85c514610221578063f4b1604514610234578063fbf1f78a14610261576100b6565b005b6100cf60048035906020018035906020015061072e565b6040518082815260200191505060405180910390f35b6100fc6004803590602001803590602001506105fd565b6040518082815260200191505060405180910390f35b610123600480359060200150610810565b6040518082815260200191505060405180910390f35b61014a600480359060200150610410565b6040518082815260200191505060405180910390f35b61017d60048035906020018035906020018035906020015061099b565b6040518082815260200191505060405180910390f35b6101aa600480359060200180359060200150610628565b005b6101bd6004803590602001506106f0565b6040518082815260200191505060405180910390f35b6101ea600480359060200180359060200150610867565b6040518082815260200191505060405180910390f35b61020b60045061082b565b6040518082815260200191505060405180910390f35b6102326004803590602001506104f1565b005b61024b6004803590602001803590602001506105c8565b6040518082815260200191505060405180910390f35b610272600480359060200150610274565b005b6000600160005060003373ffffffffffffffffffffffffffffffffffffffff16815260200190815260200160002060005060008373ffffffffffffffffffffffffffffffffffffffff16815260200190815260200160002060006101000a81548160ff021916908302179055506000600260005060003373ffffffffffffffffffffffffffffffffffffffff16815260200190815260200160002060005060008373ffffffffffffffffffffffffffffffffffffffff168152602001908152602001600020600050819055508073ffffffffffffffffffffffffffffffffffffffff163373ffffffffffffffffffffffffffffffffffffffff167f0e40f4b0b06b7d270eb92aed48caf256e6bbe4f83c5492e7433958cf5566192060006040518082815260200191505060405180910390a38073ffffffffffffffffffffffffffffffffffffffff163373ffffffffffffffffffffffffffffffffffffffff167fcc92c05edef6bc5dcdfab43862409620fd81888eec1be99935f19375c4ef704e60006040518082815260200191505060405180910390a35b50565b60006001600160005060003373ffffffffffffffffffffffffffffffffffffffff16815260200190815260200160002060005060008473ffffffffffffffffffffffffffffffffffffffff16815260200190815260200160002060009054906101000a900460ff1614806104dd57506000600260005060003373ffffffffffffffffffffffffffffffffffffffff16815260200190815260200160002060005060008473ffffffffffffffffffffffffffffffffffffffff16815260200190815260200160002060005054115b156104eb57600190506104ec565b5b919050565b6001600160005060003373ffffffffffffffffffffffffffffffffffffffff16815260200190815260200160002060005060008373ffffffffffffffffffffffffffffffffffffffff16815260200190815260200160002060006101000a81548160ff021916908302179055508073ffffffffffffffffffffffffffffffffffffffff163373ffffffffffffffffffffffffffffffffffffffff167f0e40f4b0b06b7d270eb92aed48caf256e6bbe4f83c5492e7433958cf5566192060016040518082815260200191505060405180910390a35b50565b60016000506020528160005260406000206000506020528060005260406000206000915091509054906101000a900460ff1681565b6002600050602052816000526040600020600050602052806000526040600020600091509150505481565b80600260005060003373ffffffffffffffffffffffffffffffffffffffff16815260200190815260200160002060005060008473ffffffffffffffffffffffffffffffffffffffff168152602001908152602001600020600050819055508173ffffffffffffffffffffffffffffffffffffffff163373ffffffffffffffffffffffffffffffffffffffff167fcc92c05edef6bc5dcdfab43862409620fd81888eec1be99935f19375c4ef704e836040518082815260200191505060405180910390a35b5050565b6000600060005060008373ffffffffffffffffffffffffffffffffffffffff168152602001908152602001600020600050549050610729565b919050565b60006001600160005060008573ffffffffffffffffffffffffffffffffffffffff16815260200190815260200160002060005060008473ffffffffffffffffffffffffffffffffffffffff16815260200190815260200160002060009054906101000a900460ff1614806107fb57506000600260005060008573ffffffffffffffffffffffffffffffffffffffff16815260200190815260200160002060005060008473ffffffffffffffffffffffffffffffffffffffff16815260200190815260200160002060005054115b15610809576001905061080a565b5b92915050565b60006000506020528060005260406000206000915090505481565b6000600060005060003373ffffffffffffffffffffffffffffffffffffffff168152602001908152602001600020600050549050610864565b90565b600082600060005060003373ffffffffffffffffffffffffffffffffffffffff1681526020019081526020016000206000505410151561098b5782600060005060003373ffffffffffffffffffffffffffffffffffffffff16815260200190815260200160002060008282825054039250508190555082600060005060008473ffffffffffffffffffffffffffffffffffffffff1681526020019081526020016000206000828282505401925050819055508173ffffffffffffffffffffffffffffffffffffffff163373ffffffffffffffffffffffffffffffffffffffff167f16cdf1707799c6655baac6e210f52b94b7cec08adcaf9ede7dfe8649da926146856040518082815260200191505060405180910390a36001905061099556610994565b60009050610995565b5b92915050565b6000600083600060005060008773ffffffffffffffffffffffffffffffffffffffff16815260200190815260200160002060005054101515610c145760009050600160005060008673ffffffffffffffffffffffffffffffffffffffff16815260200190815260200160002060005060003373ffffffffffffffffffffffffffffffffffffffff16815260200190815260200160002060009054906101000a900460ff1615610a4f57600190508050610b17565b600260005060008673ffffffffffffffffffffffffffffffffffffffff16815260200190815260200160002060005060003373ffffffffffffffffffffffffffffffffffffffff16815260200190815260200160002060005054841015610b16576001905080506000600260005060008773ffffffffffffffffffffffffffffffffffffffff16815260200190815260200160002060005060003373ffffffffffffffffffffffffffffffffffffffff168152602001908152602001600020600050819055505b5b6001811415610c0a5783600060005060008773ffffffffffffffffffffffffffffffffffffffff16815260200190815260200160002060008282825054039250508190555083600060005060008573ffffffffffffffffffffffffffffffffffffffff1681526020019081526020016000206000828282505401925050819055508273ffffffffffffffffffffffffffffffffffffffff168573ffffffffffffffffffffffffffffffffffffffff167f16cdf1707799c6655baac6e210f52b94b7cec08adcaf9ede7dfe8649da926146866040518082815260200191505060405180910390a360019150610c1556610c13565b60009150610c15565b5b5b509392505050561ba0e036a55b08cd29cb9a912598f0f9b301a7f4a401e2799d77bdebc34b92ca3b42a019437ea9186766df3785f2670f07edaff8cf274a99fe581c1ee9cea6a3dcbb55",
      "networkId": 0,
      "chainId": 0
    },
    {
      "hash": "0x3857c2e27c3c12159e1e43135ce78c1b9d7d21650393ab72132c1eac86bef1af",
      "blockHash": "0xaafbd04f1085761ed6fce687463f4cd9176e94154ea444944f30288fd3c023ff",
      "blockNumber": 81090,
      "transactionIndex": 2,
      "confirmations": null,
      "from": "0x51865db148881951f51251710e82b9Be0d7eaDB2",
      "gasPrice": {
        "_hex": "0xd21fcf240"
      },
      "gasLimit": {
        "_hex": "0x15f90"
      },
      "to": "0x7F60c7717308d1bF9d4b4Fe0Ae869fecd7Df9e9B",
      "value": {
        "_hex": "0x1b1ae4d6e2ef500000"
      },
      "nonce": 2,
      "data": "0x",
      "r": "0xfcc930602b9c76061fbf182b1774d29aaa2c4b3d5f966cfd0637b7817734115e",
      "s": "0x7fa20e9c21b0dc82b66224c0342407f309853f8fa7a03c27d8beb2e116cd2008",
      "v": 27,
      "creates": null,
      "raw": "0xf86e02850d21fcf24083015f90947f60c7717308d1bf9d4b4fe0ae869fecd7df9e9b891b1ae4d6e2ef500000801ba0fcc930602b9c76061fbf182b1774d29aaa2c4b3d5f966cfd0637b7817734115ea07fa20e9c21b0dc82b66224c0342407f309853f8fa7a03c27d8beb2e116cd2008",
      "networkId": 0,
      "chainId": 0
    },
    {
      "hash": "0x780aebb4242879ddf33d67fc8717472aa4b8af68cff91f8e884a1af4357c8426",
      "blockHash": "0xaafbd04f1085761ed6fce687463f4cd9176e94154ea444944f30288fd3c023ff",
      "blockNumber": 81090,
      "transactionIndex": 3,
      "confirmations": null,
      "from": "0x38FB37D21aC6EFF0F341C48fe251fe34085079cA",
      "gasPrice": {
        "_hex": "0xba43b7400"
      },
      "gasLimit": {
        "_hex": "0x5208"
      },
      "to": "0xC47Aaa860008be6f65B58c6C6E02a84e666EfE31",
      "value": {
        "_hex": "0x57980d2f66daf6000"
      },
      "nonce": 0,
      "data": "0x",
      "r": "0x00f902132cb96b383caaddae70aba7c77833b79ff61399f15d48b12b4b3edebb",
      "s": "0x698436e6e53e2bb390dc240fd77bd44484dfd08eb57ed43fb5c93fdd2a5f85a7",
      "v": 27,
      "creates": null,
      "raw": "0xf86c80850ba43b740082520894c47aaa860008be6f65b58c6c6e02a84e666efe3189057980d2f66daf6000801b9ff902132cb96b383caaddae70aba7c77833b79ff61399f15d48b12b4b3edebba0698436e6e53e2bb390dc240fd77bd44484dfd08eb57ed43fb5c93fdd2a5f85a7",
      "networkId": 0,
      "chainId": 0
    }
  ]
}