{
  "hash": "0x0dc649a766419e31092fd107a2725d82c0c2dac130b80925b7d336b919626e41",
  "parentHash": "0xad5098c7973f30ca449f3162da96b0897b88046cffd500a7d24085e44a58253c",
  "number": 103463,
  "timestamp": 1439853834,
  "nonce": "0x461177a5726ac549",
  "difficulty": 4170534399612,
  "gasLimit": {
    "_hex": "0x2fefd8"
  },
  "gasUsed": {
    "_hex": "0x5208"
  },
  "miner": "0x64DcD9c2733262031AbFE744614d9Ed5AEDb0EFB",
  "extraData": "0x476574682f76312e302e312f6c696e75782f676f312e342e32",
  "transactions": [
    {
      "hash": "0x608fc7522311571c503554d16707b66df736b7d4eaf3fa0f87a92351eb2d65e8",
      "blockHash": "0x0dc649a766419e31092fd107a2725d82c0c2dac130b80925b7d336b919626e41",
      "blockNumber": 103463,
      "transactionIndex": 0,
      "confirmations": null,
      "from": "0x161caF5a972ACe8379a6D0A04aE6e163fe21df2B",
      "gasPrice": {
        "_hex": "0x106927b085b"
      },
      "gasLimit": {
        "_hex": "0x15f90"
      },
      "to": "0x0a81FadA6b9c1239a635951473875fFb9e3a2B38",
      "value": {
        "_hex": "0x80bfbefcb5f0bc00000"
      },
      "nonce": 3,
      "data": "0x",
      "r": "0xd4e76622d2bb80775a10e0641a807bd6c713d0c59dc4832894c62c4045f5093d",
      "s": "0x60398eca4fad355a7c3c7ef0ad35583b1a56fa222ca46075bce9bbc4c8f6b5c5",
      "v": 28,
      "creates": null,
      "raw": "0xf87003860106927b085b83015f90940a81fada6b9c1239a635951473875ffb9e3a2b388a080bfbefcb5f0bc00000801ca0d4e76622d2bb80775a10e0641a807bd6c713d0c59dc4832894c62c4045f5093da060398eca4fad355a7c3c7ef0ad35583b1a56fa222ca46075bce9bbc4c8f6b5c5",
      "networkId": 0,
      "chainId": 0
    }
  ]
}