{
  "hash": "0x0969e4dfff45e7513cd08f6f4f835fcc3d9c7be4c38d4131526f161be195f49f",
  "parentHash": "0x9eb93556ea5949977a6283b384a54aa31b999f5eec90714e767165d2c33ecf92",
  "number": 104134,
  "timestamp": 1439864962,
  "nonce": "0x179ddadf22371933",
  "difficulty": 4250374776685,
  "gasLimit": {
    "_hex": "0x2fefd8"
  },
  "gasUsed": {
    "_hex": "0x18326"
  },
  "miner": "0xe6A7a1d47ff21B6321162AEA7C6CB457D5476Bca",
  "extraData": "0x476574682f76312e302e312d38326566323666362f6c696e75782f676f312e34",
  "transactions": [
    {
      "hash": "0xbf54e2a1bad47bf3b371e7c3221ee87322558ec07cff487aeb8a1bbac676d5ee",
      "blockHash": "0x0969e4dfff45e7513cd08f6f4f835fcc3d9c7be4c38d4131526f161be195f49f",
      "blockNumber": 104134,
      "transactionIndex": 0,
      "confirmations": null,
      "from": "0x0F87Fb507513e749081E34373c84E95e85b5c057",
      "gasPrice": {
        "_hex": "0xcd6119179"
      },
      "gasLimit": {
        "_hex": "0x249f0"
      },
      "to": "0xE28e72FCf78647ADCe1F1252F240bbfaebD63BcC",
      "value": {
        "_hex": "0x29a2241af62c0000"
      },
      "nonce": 6,
      "data": "0x45466f3a",
      "r": "0xe8bd691adb4e2efba059b3c2fb04645c950ad109356b400906345a0d0309f8f9",
      "s": "0x1d482532f1ea44ccfa7d2a3567934bc4877f6876110a2f0c0dc8f85748ba89ea",
      "v": 27,
      "creates": null,
      "raw": "0xf87106850cd6119179830249f094e28e72fcf78647adce1f1252f240bbfaebd63bcc8829a2241af62c00008445466f3a1ba0e8bd691adb4e2efba059b3c2fb04645c950ad109356b400906345a0d0309f8f9a01d482532f1ea44ccfa7d2a3567934bc4877f6876110a2f0c0dc8f85748ba89ea",
      "networkId": 0,
      "chainId": 0
    }
  ]
}