{
  "hash": "0x6968dc473df72a584b77e7ddfc1bbb25fb81f7ac8b80c63e49d11ffadb07d61e",
  "parentHash": "0x09684c5a337bc729fab02234ee23697e8cfe6b7a55db9d17ced9f12712086389",
  "number": 97140,
  "timestamp": 1439751445,
  "nonce": "0x80fa6ebe24b8bba9",
  "difficulty": 3761410525896,
  "gasLimit": {
    "_hex": "0x2fefd8"
  },
  "gasUsed": {
    "_hex": "0x5208"
  },
  "miner": "0x88D74a59454F6cF3B51ef6b9136AFb6b9D405A88",
  "extraData": "0x476574682f76312e302e312d37666266393930632f6c696e75782f676f312e34",
  "transactions": [
    {
      "hash": "0xc8dbb6f9001f5a88e50c62bd19c21432c81d8a2d2ec68c74f74bc076610236f0",
      "blockHash": "0x6968dc473df72a584b77e7ddfc1bbb25fb81f7ac8b80c63e49d11ffadb07d61e",
      "blockNumber": 97140,
      "transactionIndex": 0,
      "confirmations": null,
      "from": "0x7884D470204862a0d1A21122F41ee77430396Ee5",
      "gasPrice": {
        "_hex": "0xceeb63382"
      },
      "gasLimit": {
        "_hex": "0x15f90"
      },
      "to": "0x6a2beA124A39FaD45D506f4d89330356E19592eb",
      "value": {
        "_hex": "0x6ccd46763f10000"
      },
      "nonce": 28,
      "data": "0x",
      "r": "0x0322ba99b1b611857f493d4ccc1bfc3f1e711da3df4f36f0314a656c7f45a40c",
      "s": "0x7ef03e4dffbe7fbc6d9394372aa63729c4e471fc168d878d70024440508580a7",
      "v": 28,
      "creates": null,
      "raw": "0xf86d1c850ceeb6338283015f90946a2bea124a39fad45d506f4d89330356e19592eb8806ccd46763f10000801ca00322ba99b1b611857f493d4ccc1bfc3f1e711da3df4f36f0314a656c7f45a40ca07ef03e4dffbe7fbc6d9394372aa63729c4e471fc168d878d70024440508580a7",
      "networkId": 0,
      "chainId": 0
    }
  ]
}