{
  "hash": "0x2751969393832cf82ab31bd77778167ad5fb860c752e3ab75c36cd2f6d450f43",
  "parentHash": "0x49ac48600e648c03a2f87cc884fdd846e09f027f4386b31e0770da75700f5729",
  "number": 111124,
  "timestamp": 1439985062,
  "nonce": "0x981b28b8009d525b",
  "difficulty": 4403090603055,
  "gasLimit": {
    "_hex": "0x2fefd8"
  },
  "gasUsed": {
    "_hex": "0x5208"
  },
  "miner": "0xd131F6C3957d70A74cb28737528Cb609C45ee509",
  "extraData": "0x",
  "transactions": [
    {
      "hash": "0x2e78818df515bc8ab8d9206b51fca53f6f8f809e93404e0ec573e1ae46c8f500",
      "blockHash": "0x2751969393832cf82ab31bd77778167ad5fb860c752e3ab75c36cd2f6d450f43",
      "blockNumber": 111124,
      "transactionIndex": 0,
      "confirmations": null,
      "from": "0xa16E760E170A19a36e1b42357a1e6A1A206B9F39",
      "gasPrice": {
        "_hex": "0xcd5968b50"
      },
      "gasLimit": {
        "_hex": "0x15f90"
      },
      "to": "0x1151790FE5F7C3113dfb07Dc3914B1916EcC8a7A",
      "value": {
        "_hex": "0x297e9d28866b0000"
      },
      "nonce": 5,
      "data": "0x",
      "r": "0xc2fae3248c3f82583a0c881aa7c8e1849ada09ec5f17910abc56990b8cac1c2e",
      "s": "0x0449431b7e3163f66ac34ed9fd6b040f5e509cf8e6094749552597d2997ac2e9",
      "v": 28,
      "creates": null,
      "raw": "0xf86d05850cd5968b5083015f90941151790fe5f7c3113dfb07dc3914b1916ecc8a7a88297e9d28866b0000801ca0c2fae3248c3f82583a0c881aa7c8e1849ada09ec5f17910abc56990b8cac1c2ea00449431b7e3163f66ac34ed9fd6b040f5e509cf8e6094749552597d2997ac2e9",
      "networkId": 0,
      "chainId": 0
    }
  ]
}