{
  "hash": "0x21d15faa70086fffb77acc4325ab585be059c3756c5657532e806b24499f87ab",
  "parentHash": "0xd7fa23019ab84a8c1f2287bad8147d0a07c3f0418a011466d9a36e3c1bcd66b5",
  "number": 113373,
  "timestamp": 1440022272,
  "nonce": "0xa9a0d71b2e408080",
  "difficulty": 4495310300124,
  "gasLimit": {
    "_hex": "0x2fefd8"
  },
  "gasUsed": {
    "_hex": "0xc7f38"
  },
  "miner": "0xe6A7a1d47ff21B6321162AEA7C6CB457D5476Bca",
  "extraData": "0x476574682f76312e302e312d38326566323666362f6c696e75782f676f312e34",
  "transactions": [
    {
      "hash": "0xd70e8d0c70f1c705fc166ca2d6f9ec867907d21087cbf02f5b8c6de665242857",
      "blockHash": "0x21d15faa70086fffb77acc4325ab585be059c3756c5657532e806b24499f87ab",
      "blockNumber": 113373,
      "transactionIndex": 0,
      "confirmations": null,
      "from": "0x52bc44d5378309EE2abF1539BF71dE1b7d7bE3b5",
      "gasPrice": {
        "_hex": "0x1066e9dc2f2"
      },
      "gasLimit": {
        "_hex": "0x61a8"
      },
      "to": "0x3a4CC071e426cFFbA54C267391e401e820a5E472",
      "value": {
        "_hex": "0x8e3a77193611aa00"
      },
      "nonce": 121,
      "data": "0x",
      "r": "0xb60d9a877b99a81f90f3d1a5f8564e88fdc50d84c0000bd6c1d6ada84bb7833c",
      "s": "0x32bd1814cb3387f19688c46dd2227941d47222ac2fac2d51ddc3a62d1e0c7d46",
      "v": 28,
      "creates": null,
      "raw": "0xf86d798601066e9dc2f28261a8943a4cc071e426cffba54c267391e401e820a5e472888e3a77193611aa00801ca0b60d9a877b99a81f90f3d1a5f8564e88fdc50d84c0000bd6c1d6ada84bb7833ca032bd1814cb3387f19688c46dd2227941d47222ac2fac2d51ddc3a62d1e0c7d46",
      "networkId": 0,
      "chainId": 0
    },
    {
      "hash": "0x911f896fa42874739c968e7818605dcff12bbafa4265a14d1937f79c9ad19c96",
      "blockHash": "0x21d15faa70086fffb77acc4325ab585be059c3756c5657532e806b24499f87ab",
      "blockNumber": 113373,
      "transactionIndex": 1,
      "confirmations": null,
      "from": "0x52bc44d5378309EE2abF1539BF71dE1b7d7bE3b5",
      "gasPrice": {
        "_hex": "0x1066e9dc2f2"
      },
      "gasLimit": {
        "_hex": "0x61a8"
      },
      "to": "0xafe246d909a81E165b0Cb3D554C7E094e3577F68",
      "value": {
        "_hex": "0x11ba88fba63ad800"
      },
      "nonce": 122,
      "data": "0x",
      "r": "0xcd7647ec694d1b8cbfe13d525164136182a81a881b775a107f8f511670748e11",
      "s": "0x75dba166a18f6abbbfc67bc94564b9b2e199fa5a77a852c95df53a2c2ad26bd2",
      "v": 28,
      "creates": null,
      "raw": "0xf86d7a8601066e9dc2f28261a894afe246d909a81e165b0cb3d554c7e094e3577f688811ba88fba63ad800801ca0cd7647ec694d1b8cbfe13d525164136182a81a881b775a107f8f511670748e11a075dba166a18f6abbbfc67bc94564b9b2e199fa5a77a852c95df53a2c2ad26bd2",
      "networkId": 0,
      "chainId": 0
    },
    {
      "hash": "0xdaa15cd15d13403f663aaed9aaf548504c469c4c9b7aaac66a2253343ac5ca7b",
      "blockHash": "0x21d15faa70086fffb77acc4325ab585be059c3756c5657532e806b24499f87ab",
      "blockNumber": 113373,
      "transactionIndex": 2,
      "confirmations": null,
      "from": "0x52bc44d5378309EE2abF1539BF71dE1b7d7bE3b5",
      "gasPrice": {
        "_hex": "0x1066e9dc2f2"
      },
      "gasLimit": {
        "_hex": "0x61a8"
      },
      "to": "0x004238BFbbe2048F84Ca30a77Bf61523a87e58b2",
      "value": {
        "_hex": "0x390086ecaebe400"
      },
      "nonce": 123,
      "data": "0x",
      "r": "0x7d701f69fc8737e609fa32381f4b0f6e0fe9db9a6eabaeb59c569d840ec423f5",
      "s": "0x04f4c666f4e6f4e1045cca27a8b0cd1be74f5d8fcda8da3fcf48b0c18ac79e68",
      "v": 28,
      "creates": null,
      "raw": "0xf86d7b8601066e9dc2f28261a894004238bfbbe2048f84ca30a77bf61523a87e58b2880390086ecaebe400801ca07d701f69fc8737e609fa32381f4b0f6e0fe9db9a6eabaeb59c569d840ec423f5a004f4c666f4e6f4e1045cca27a8b0cd1be74f5d8fcda8da3fcf48b0c18ac79e68",
      "networkId": 0,
      "chainId": 0
    },
    {
      "hash": "0x715b1b1a4859d850821da25c7617fb21535da79d19e9e15b657d070a8678d0e4",
      "blockHash": "0x21d15faa70086fffb77acc4325ab585be059c3756c5657532e806b24499f87ab",
      "blockNumber": 113373,
      "transactionIndex": 3,
      "confirmations": null,
      "from": "0x52bc44d5378309EE2abF1539BF71dE1b7d7bE3b5",
      "gasPrice": {
        "_hex": "0x1066e9dc2f2"
      },
      "gasLimit": {
        "_hex": "0x61a8"
      },
      "to": "0x3c2d298f2Ecb86371A124a58501d6DAd585868F9",
      "value": {
        "_hex": "0x1b1e8b1062e0a100"
      },
      "nonce": 124,
      "data": "0x",
      "r": "0x20d1ba419e1e9f1ba5a613d2e2a985cb7f0e799dc400d18f6ae98d3267206736",
      "s": "0x2a4ea8dd3a52865e2281b34e3672da6e7f2d7a57a023294568ddfe3a582931d8",
      "v": 28,
      "creates": null,
      "raw": "0xf86d7c8601066e9dc2f28261a8943c2d298f2ecb86371a124a58501d6dad585868f9881b1e8b1062e0a100801ca020d1ba419e1e9f1ba5a613d2e2a985cb7f0e799dc400d18f6ae98d3267206736a02a4ea8dd3a52865e2281b34e3672da6e7f2d7a57a023294568ddfe3a582931d8",
      "networkId": 0,
      "chainId": 0
    },
    {
      "hash": "0x17236288b19ab306fc66826fc1fa48a8af6b3f1273068cfa3d60c8caf9541d03",
      "blockHash": "0x21d15faa70086fffb77acc4325ab585be059c3756c5657532e806b24499f87ab",
      "blockNumber": 113373,
      "transactionIndex": 4,
      "confirmations": null,
      "from": "0x52bc44d5378309EE2abF1539BF71dE1b7d7bE3b5",
      "gasPrice": {
        "_hex": "0x1066e9dc2f2"
      },
      "gasLimit": {
        "_hex": "0x61a8"
      },
      "to": "0x974A55472732FA7D1EdD5737b0A881F41997Ae00",
      "value": {
        "_hex": "0xe9c30a53680c800"
      },
      "nonce": 125,
      "data": "0x",
      "r": "0xe452cfa5f3ee177060bdf5231c721b1725907d0b701f73efe26aff07056459bc",
      "s": "0x03bf134eb7baf4c15b7e5e7f000d5526e534f50491130687f644d014b0ed6434",
      "v": 27,
      "creates": null,
      "raw": "0xf86d7d8601066e9dc2f28261a894974a55472732fa7d1edd5737b0a881f41997ae00880e9c30a53680c800801ba0e452cfa5f3ee177060bdf5231c721b1725907d0b701f73efe26aff07056459bca003bf134eb7baf4c15b7e5e7f000d5526e534f50491130687f644d014b0ed6434",
      "networkId": 0,
      "chainId": 0
    },
    {
      "hash": "0x307c048975ed2cb23e26892cfcddf5f26dcd58df28f71dfc71752633f2e8a81d",
      "blockHash": "0x21d15faa70086fffb77acc4325ab585be059c3756c5657532e806b24499f87ab",
      "blockNumber": 113373,
      "transactionIndex": 5,
      "confirmations": null,
      "from": "0x52bc44d5378309EE2abF1539BF71dE1b7d7bE3b5",
      "gasPrice": {
        "_hex": "0x1066e9dc2f2"
      },
      "gasLimit": {
        "_hex": "0x61a8"
      },
      "to": "0xd9c13364c95E5f8e35d4bD4830e974a0652f83D8",
      "value": {
        "_hex": "0xd4cf949a6890740"
      },
      "nonce": 126,
      "data": "0x",
      "r": "0xc453caf459d53b4a70bf9ea503851284fd9354f4fc3c33f06c795823c24efcf9",
      "s": "0x1c4961ccab1714a99f6a0d46e5d126c0b185943a03d860b35a4a9f2990c64a87",
      "v": 28,
      "creates": null,
      "raw": "0xf86d7e8601066e9dc2f28261a894d9c13364c95e5f8e35d4bd4830e974a0652f83d8880d4cf949a6890740801ca0c453caf459d53b4a70bf9ea503851284fd9354f4fc3c33f06c795823c24efcf9a01c4961ccab1714a99f6a0d46e5d126c0b185943a03d860b35a4a9f2990c64a87",
      "networkId": 0,
      "chainId": 0
    },
    {
      "hash": "0xbce429ae7a11b6ffabaaac18b0f58a03b37b0eea7ad1fda73616f853dd5cd29e",
      "blockHash": "0x21d15faa70086fffb77acc4325ab585be059c3756c5657532e806b24499f87ab",
      "blockNumber": 113373,
      "transactionIndex": 6,
      "confirmations": null,
      "from": "0x52bc44d5378309EE2abF1539BF71dE1b7d7bE3b5",
      "gasPrice": {
        "_hex": "0x1066e9dc2f2"
      },
      "gasLimit": {
        "_hex": "0x61a8"
      },
      "to": "0x37Ec25ca582d94f0D66320C32902378798A3bDf2",
      "value": {
        "_hex": "0x7fcdf3b6fc7a400"
      },
      "nonce": 127,
      "data": "0x",
      "r": "0xb9497f95add24de0f2f6fe35c076b0a8dc6bd44acf32c02c148605f656b5b148",
      "s": "0x64e145d6c78e578377f518f83de80c5b88cb732ba715730e53d1fdc542722d15",
      "v": 28,
      "creates": null,
      "raw": "0xf86d7f8601066e9dc2f28261a89437ec25ca582d94f0d66320c32902378798a3bdf28807fcdf3b6fc7a400801ca0b9497f95add24de0f2f6fe35c076b0a8dc6bd44acf32c02c148605f656b5b148a064e145d6c78e578377f518f83de80c5b88cb732ba715730e53d1fdc542722d15",
      "networkId": 0,
      "chainId": 0
    },
    {
      "hash": "0xf24edafe74d26153be873a75019b0d43fb160c867f805e8c81fe052b72d864b2",
      "blockHash": "0x21d15faa70086fffb77acc4325ab585be059c3756c5657532e806b24499f87ab",
      "blockNumber": 113373,
      "transactionIndex": 7,
      "confirmations": null,
      "from": "0x52bc44d5378309EE2abF1539BF71dE1b7d7bE3b5",
      "gasPrice": {
        "_hex": "0x1066e9dc2f2"
      },
      "gasLimit": {
        "_hex": "0x61a8"
      },
      "to": "0x34C8Ba4675e1fBDEb583f50eA5D9724DC78f9655",
      "value": {
        "_hex": "0x96baaa9d0670900"
      },
      "nonce": 128,
      "data": "0x",
      "r": "0x920a564f0220eb3170534bab9057ec5c0fc3d363c33bfc355aad36b2bf80826b",
      "s": "0x15e00cba99d27120f12df4dd27b4cd67b8679f7d2c65f9f21b18da87fbff235d",
      "v": 28,
      "creates": null,
      "raw": "0xf86e81808601066e9dc2f28261a89434c8ba4675e1fbdeb583f50ea5d9724dc78f965588096baaa9d0670900801ca0920a564f0220eb3170534bab9057ec5c0fc3d363c33bfc355aad36b2bf80826ba015e00cba99d27120f12df4dd27b4cd67b8679f7d2c65f9f21b18da87fbff235d",
      "networkId": 0,
      "chainId": 0
    },
    {
      "hash": "0x42283a381534d7a27281c94fb04078edc61bddb62d37f63c5cc187d4c0d76b18",
      "blockHash": "0x21d15faa70086fffb77acc4325ab585be059c3756c5657532e806b24499f87ab",
      "blockNumber": 113373,
      "transactionIndex": 8,
      "confirmations": null,
      "from": "0x52bc44d5378309EE2abF1539BF71dE1b7d7bE3b5",
      "gasPrice": {
        "_hex": "0x1066e9dc2f2"
      },
      "gasLimit": {
        "_hex": "0x61a8"
      },
      "to": "0x60a175bB691fEE8557a7b6D8eFC9E49889486f41",
      "value": {
        "_hex": "0xafb5a9a473876000"
      },
      "nonce": 129,
      "data": "0x",
      "r": "0x73e86a07db0a1a69fd7487d9b247068210d15ca3e5a3457945b8c42f415d3dbf",
      "s": "0x2ae6c8b41fcf9b7c887650a78df33d2eefb44c1d17042944a2b95be703f0f8f0",
      "v": 27,
      "creates": null,
      "raw": "0xf86e81818601066e9dc2f28261a89460a175bb691fee8557a7b6d8efc9e49889486f4188afb5a9a473876000801ba073e86a07db0a1a69fd7487d9b247068210d15ca3e5a3457945b8c42f415d3dbfa02ae6c8b41fcf9b7c887650a78df33d2eefb44c1d17042944a2b95be703f0f8f0",
      "networkId": 0,
      "chainId": 0
    },
    {
      "hash": "0xbcfa027416aba3ea29fb805b9c46079b0246bf2492d75626874301386f4f162f",
      "blockHash": "0x21d15faa70086fffb77acc4325ab585be059c3756c5657532e806b24499f87ab",
      "blockNumber": 113373,
      "transactionIndex": 9,
      "confirmations": null,
      "from": "0x52bc44d5378309EE2abF1539BF71dE1b7d7bE3b5",
      "gasPrice": {
        "_hex": "0x1066e9dc2f2"
      },
      "gasLimit": {
        "_hex": "0x61a8"
      },
      "to": "0x451Ffc4284f23dFCaCF67850F54e086Fc0d320E8",
      "value": {
        "_hex": "0x25ca1dca2e48ac0"
      },
      "nonce": 130,
      "data": "0x",
      "r": "0xa56708c2960b3d1a4120e922518ae2f9f3b088f6fb3725cc6e7d32ad33ceeaf0",
      "s": "0x3f05f67fe43910a01fb5fd46a9bc00a7ee8a3b7bcf757c9dee54f47694c35f70",
      "v": 28,
      "creates": null,
      "raw": "0xf86e81828601066e9dc2f28261a894451ffc4284f23dfcacf67850f54e086fc0d320e888025ca1dca2e48ac0801ca0a56708c2960b3d1a4120e922518ae2f9f3b088f6fb3725cc6e7d32ad33ceeaf0a03f05f67fe43910a01fb5fd46a9bc00a7ee8a3b7bcf757c9dee54f47694c35f70",
      "networkId": 0,
      "chainId": 0
    },
    {
      "hash": "0xe2c5f796ff447dbe167dffa2fdab2b82608ee1b7aede5ac8c0232da5a20af24a",
      "blockHash": "0x21d15faa70086fffb77acc4325ab585be059c3756c5657532e806b24499f87ab",
      "blockNumber": 113373,
      "transactionIndex": 10,
      "confirmations": null,
      "from": "0x52bc44d5378309EE2abF1539BF71dE1b7d7bE3b5",
      "gasPrice": {
        "_hex": "0x1066e9dc2f2"
      },
      "gasLimit": {
        "_hex": "0x61a8"
      },
      "to": "0x2B5EBAe239Cb2f35A0974065E6C43A680ABb4bbe",
      "value": {
        "_hex": "0x5a7f442d0d5a340"
      },
      "nonce": 131,
      "data": "0x",
      "r": "0xa6d227182e7d13aaeb5bd14c8995496530cd0d3742d64cb3c0b3c9a79787b90b",
      "s": "0x741df878b3e7c2840b76a17f488046b9272adb408725fd0d3f7522506f7de3cc",
      "v": 27,
      "creates": null,
      "raw": "0xf86e81838601066e9dc2f28261a8942b5ebae239cb2f35a0974065e6c43a680abb4bbe8805a7f442d0d5a340801ba0a6d227182e7d13aaeb5bd14c8995496530cd0d3742d64cb3c0b3c9a79787b90ba0741df878b3e7c2840b76a17f488046b9272adb408725fd0d3f7522506f7de3cc",
      "networkId": 0,
      "chainId": 0
    },
    {
      "hash": "0xe2b152bc22c4c94fbb410344009ccfb1ff8510e5ba8a1dbec43ce4687f3fa62d",
      "blockHash": "0x21d15faa70086fffb77acc4325ab585be059c3756c5657532e806b24499f87ab",
      "blockNumber": 113373,
      "transactionIndex": 11,
      "confirmations": null,
      "from": "0x52bc44d5378309EE2abF1539BF71dE1b7d7bE3b5",
      "gasPrice": {
        "_hex": "0x1066e9dc2f2"
      },
      "gasLimit": {
        "_hex": "0x61a8"
      },
      "to": "0xc7B53239E3B972dc91B7E8840Be35cf20BFcE15C",
      "value": {
        "_hex": "0xbb09a1bb05d9400"
      },
      "nonce": 132,
      "data": "0x",
      "r": "0xfd575a51a60a369d1c3d7becc8d6cb8d5a75cb861cf19759d264cf05180e9a1d",
      "s": "0x088ac5555f81ac6e2f15f14ffcabb908dfbfda12994d84cf87fb089900320742",
      "v": 27,
      "creates": null,
      "raw": "0xf86e81848601066e9dc2f28261a894c7b53239e3b972dc91b7e8840be35cf20bfce15c880bb09a1bb05d9400801ba0fd575a51a60a369d1c3d7becc8d6cb8d5a75cb861cf19759d264cf05180e9a1da0088ac5555f81ac6e2f15f14ffcabb908dfbfda12994d84cf87fb089900320742",
      "networkId": 0,
      "chainId": 0
    },
    {
      "hash": "0x98a47d68330cc6f9345fb110ed1721ae39900c4198446e239a7869abdad4a687",
      "blockHash": "0x21d15faa70086fffb77acc4325ab585be059c3756c5657532e806b24499f87ab",
      "blockNumber": 113373,
      "transactionIndex": 12,
      "confirmations": null,
      "from": "0x52bc44d5378309EE2abF1539BF71dE1b7d7bE3b5",
      "gasPrice": {
        "_hex": "0x1066e9dc2f2"
      },
      "gasLimit": {
        "_hex": "0x61a8"
      },
      "to": "0xE12517204a15E890f12755207271102F4800A0c4",
      "value": {
        "_hex": "0xfca905a16d166b00"
      },
      "nonce": 133,
      "data": "0x",
      "r": "0x084e872f66ca6d1a619f7299f2946f49af65004b3d2795f89ea0202ffa369225",
      "s": "0x54eee2fcd38f259325f61e15cabe23267f00b3fb47be39fbd1fc587f8a644547",
      "v": 27,
      "creates": null,
      "raw": "0xf86e81858601066e9dc2f28261a894e12517204a15e890f12755207271102f4800a0c488fca905a16d166b00801ba0084e872f66ca6d1a619f7299f2946f49af65004b3d2795f89ea0202ffa369225a054eee2fcd38f259325f61e15cabe23267f00b3fb47be39fbd1fc587f8a644547",
      "networkId": 0,
      "chainId": 0
    },
    {
      "hash": "0x4ee5411844eecca0ce901db40dde358ae8748d99f91113765173b0ad0d291ffc",
      "blockHash": "0x21d15faa70086fffb77acc4325ab585be059c3756c5657532e806b24499f87ab",
      "blockNumber": 113373,
      "transactionIndex": 13,
      "confirmations": null,
      "from": "0x52bc44d5378309EE2abF1539BF71dE1b7d7bE3b5",
      "gasPrice": {
        "_hex": "0x1066e9dc2f2"
      },
      "gasLimit": {
        "_hex": "0x61a8"
      },
      "to": "0xAa37b1200B856ce897a85b9C2b11a8213095Bf2a",
      "value": {
        "_hex": "0x173b82cbb1a6ecb00"
      },
      "nonce": 134,
      "data": "0x",
      "r": "0xefe9479509cfcf66154b8918fd4726451dc0770be550df9653d4294c7ec7942d",
      "s": "0x3cacba17eee8a20fdf38f629a4c3f740278640387ac37fe85068c96d5984d3c2",
      "v": 27,
      "creates": null,
      "raw": "0xf86f81868601066e9dc2f28261a894aa37b1200b856ce897a85b9c2b11a8213095bf2a890173b82cbb1a6ecb00801ba0efe9479509cfcf66154b8918fd4726451dc0770be550df9653d4294c7ec7942da03cacba17eee8a20fdf38f629a4c3f740278640387ac37fe85068c96d5984d3c2",
      "networkId": 0,
      "chainId": 0
    },
    {
      "hash": "0x038960dd5f0e9a8db91fc3cdb7e1a7bc09bef905adba6d69a9651d2aba3106a8",
      "blockHash": "0x21d15faa70086fffb77acc4325ab585be059c3756c5657532e806b24499f87ab",
      "blockNumber": 113373,
      "transactionIndex": 14,
      "confirmations": null,
      "from": "0x52bc44d5378309EE2abF1539BF71dE1b7d7bE3b5",
      "gasPrice": {
        "_hex": "0x1066e9dc2f2"
      },
      "gasLimit": {
        "_hex": "0x61a8"
      },
      "to": "0xdD9705A4a2a661729aDbfe2F72E272EAFCad6b55",
      "value": {
        "_hex": "0x196bf3b6e783a380"
      },
      "nonce": 135,
      "data": "0x",
      "r": "0xbaf618ffbf241de7429d81e587262bdcf8e3c93be99e6281cdf4349f43fae086",
      "s": "0x0236c4e624aa569a8378e6a69f8ad55b2c88a7be9953607f7d890b32d3f5b81b",
      "v": 27,
      "creates": null,
      "raw": "0xf86e81878601066e9dc2f28261a894dd9705a4a2a661729adbfe2f72e272eafcad6b5588196bf3b6e783a380801ba0baf618ffbf241de7429d81e587262bdcf8e3c93be99e6281cdf4349f43fae086a00236c4e624aa569a8378e6a69f8ad55b2c88a7be9953607f7d890b32d3f5b81b",
      "networkId": 0,
      "chainId": 0
    },
    {
      "hash": "0xff1201d6ef43a1fa6f1245344f7558020cbe227551ecede2572aa1f8b24c2167",
      "blockHash": "0x21d15faa70086fffb77acc4325ab585be059c3756c5657532e806b24499f87ab",
      "blockNumber": 113373,
      "transactionIndex": 15,
      "confirmations": null,
      "from": "0x52bc44d5378309EE2abF1539BF71dE1b7d7bE3b5",
      "gasPrice": {
        "_hex": "0x1066e9dc2f2"
      },
      "gasLimit": {
        "_hex": "0x61a8"
      },
      "to": "0xEd841c71cE65B108BE6E809c55aA58DC167b9a43",
      "value": {
        "_hex": "0x6a5bb6cc13a20600"
      },
      "nonce": 136,
      "data": "0x",
      "r": "0x2646092cdeceac3ae86ad0c82e48365b96858a9cbf2f87ea37b8ec7a356d8b59",
      "s": "0x4ae17a1003aea6400a34529214faa3dcb6da1abd4a1c844dab23f309e5daa502",
      "v": 28,
      "creates": null,
      "raw": "0xf86e81888601066e9dc2f28261a894ed841c71ce65b108be6e809c55aa58dc167b9a43886a5bb6cc13a20600801ca02646092cdeceac3ae86ad0c82e48365b96858a9cbf2f87ea37b8ec7a356d8b59a04ae17a1003aea6400a34529214faa3dcb6da1abd4a1c844dab23f309e5daa502",
      "networkId": 0,
      "chainId": 0
    },
    {
      "hash": "0x83d05e38616d6c3fdec5264ca0f82a8aae62d2eda272d02545a3f662b6cc0840",
      "blockHash": "0x21d15faa70086fffb77acc4325ab585be059c3756c5657532e806b24499f87ab",
      "blockNumber": 113373,
      "transactionIndex": 16,
      "confirmations": null,
      "from": "0x52bc44d5378309EE2abF1539BF71dE1b7d7bE3b5",
      "gasPrice": {
        "_hex": "0x1066e9dc2f2"
      },
      "gasLimit": {
        "_hex": "0x61a8"
      },
      "to": "0x8ec45F94832F5Ff2e92Bf2237B921526B5b15D0F",
      "value": {
        "_hex": "0x1be5870cec9f1380"
      },
      "nonce": 137,
      "data": "0x",
      "r": "0x0a89faefd1759399eb4443c244b0baa86ddc0c25a1ff6d82bdc5f5264b39b6c9",
      "s": "0x582d49432d46aa91b9f5d42d67e715ab590a914242d10f83c87f8896435761f9",
      "v": 28,
      "creates": null,
      "raw": "0xf86e81898601066e9dc2f28261a8948ec45f94832f5ff2e92bf2237b921526b5b15d0f881be5870cec9f1380801ca00a89faefd1759399eb4443c244b0baa86ddc0c25a1ff6d82bdc5f5264b39b6c9a0582d49432d46aa91b9f5d42d67e715ab590a914242d10f83c87f8896435761f9",
      "networkId": 0,
      "chainId": 0
    },
    {
      "hash": "0x2f38c37fe6659a5197b5d0afecbddba699320f1654c8499d86c2de4756b8ad88",
      "blockHash": "0x21d15faa70086fffb77acc4325ab585be059c3756c5657532e806b24499f87ab",
      "blockNumber": 113373,
      "transactionIndex": 17,
      "confirmations": null,
      "from": "0x52bc44d5378309EE2abF1539BF71dE1b7d7bE3b5",
      "gasPrice": {
        "_hex": "0x1066e9dc2f2"
      },
      "gasLimit": {
        "_hex": "0x61a8"
      },
      "to": "0x351Fb77bc847F9b5bb8A8F242AB723C5B7d775b8",
      "value": {
        "_hex": "0x10f7b5e2aa5f7d00"
      },
      "nonce": 138,
      "data": "0x",
      "r": "0x13ddae1455c55b1f68c7195b64b615cba54ed2dec45bfc52740184efb8904e4c",
      "s": "0x005711385e3c39ad3be7ff769bbe1dcff109613ec49c1e6103e7223596ed21d7",
      "v": 28,
      "creates": null,
      "raw": "0xf86d818a8601066e9dc2f28261a894351fb77bc847f9b5bb8a8f242ab723c5b7d775b88810f7b5e2aa5f7d00801ca013ddae1455c55b1f68c7195b64b615cba54ed2dec45bfc52740184efb8904e4c9f5711385e3c39ad3be7ff769bbe1dcff109613ec49c1e6103e7223596ed21d7",
      "networkId": 0,
      "chainId": 0
    },
    {
      "hash": "0x5ac9f8e1e6abe1af09f2e311bd2d2a0c3914c70a47b9474a3e8182ef7645b86a",
      "blockHash": "0x21d15faa70086fffb77acc4325ab585be059c3756c5657532e806b24499f87ab",
      "blockNumber": 113373,
      "transactionIndex": 18,
      "confirmations": null,
      "from": "0x52bc44d5378309EE2abF1539BF71dE1b7d7bE3b5",
      "gasPrice": {
        "_hex": "0x1066e9dc2f2"
      },
      "gasLimit": {
        "_hex": "0x61a8"
      },
      "to": "0xF18446BCC37B179f7ccc3De19387269cE04023F1",
      "value": {
        "_hex": "0x1c111a5a3daa1980"
      },
      "nonce": 139,
      "data": "0x",
      "r": "0xcc19aa526076a87b2cf1e3b9e2cd99bf7b20c24bbdd76f671a3446eea55fd15e",
      "s": "0x391bb95099b3d94f7190188f4154700455fef0c94900151c1cde6042c3cd9968",
      "v": 28,
      "creates": null,
      "raw": "0xf86e818b8601066e9dc2f28261a894f18446bcc37b179f7ccc3de19387269ce04023f1881c111a5a3daa1980801ca0cc19aa526076a87b2cf1e3b9e2cd99bf7b20c24bbdd76f671a3446eea55fd15ea0391bb95099b3d94f7190188f4154700455fef0c94900151c1cde6042c3cd9968",
      "networkId": 0,
      "chainId": 0
    },
    {
      "hash": "0xd521f2bb98ced18bb486dc8a1fc8c9cc8d381e7bdceb14755722c79bf9ace14f",
      "blockHash": "0x21d15faa70086fffb77acc4325ab585be059c3756c5657532e806b24499f87ab",
      "blockNumber": 113373,
      "transactionIndex": 19,
      "confirmations": null,
      "from": "0x52bc44d5378309EE2abF1539BF71dE1b7d7bE3b5",
      "gasPrice": {
        "_hex": "0x1066e9dc2f2"
      },
      "gasLimit": {
        "_hex": "0x61a8"
      },
      "to": "0x66edC3601490c883773b4cb97d3459434Fe94975",
      "value": {
        "_hex": "0x8b1c1360118b200"
      },
      "nonce": 140,
      "data": "0x",
      "r": "0xd555606b80232f9743725bba30fc818e1f76e2e3e134ca10940b034d1b607fb4",
      "s": "0x3e24ebf662ee0db651b98c70161fb7f86ebf9f121019def1e2a068c38dcf27bf",
      "v": 28,
      "creates": null,
      "raw": "0xf86e818c8601066e9dc2f28261a89466edc3601490c883773b4cb97d3459434fe949758808b1c1360118b200801ca0d555606b80232f9743725bba30fc818e1f76e2e3e134ca10940b034d1b607fb4a03e24ebf662ee0db651b98c70161fb7f86ebf9f121019def1e2a068c38dcf27bf",
      "networkId": 0,
      "chainId": 0
    },
    {
      "hash": "0x9151d1fbf75f67b70b5ff25fabdb5eb8089bd67490c442498b8d9d000299174a",
      "blockHash": "0x21d15faa70086fffb77acc4325ab585be059c3756c5657532e806b24499f87ab",
      "blockNumber": 113373,
      "transactionIndex": 20,
      "confirmations": null,
      "from": "0x52bc44d5378309EE2abF1539BF71dE1b7d7bE3b5",
      "gasPrice": {
        "_hex": "0x1066e9dc2f2"
      },
      "gasLimit": {
        "_hex": "0x61a8"
      },
      "to": "0xb4c8A15086d7c2E2aa5506FF51e34e3E23d053a7",
      "value": {
        "_hex": "0xa1689a037f8f8f00"
      },
      "nonce": 141,
      "data": "0x",
      "r": "0x347c6958ca9f33114ba0a0572c7d3fbfee992f36b264dca1f79a99e2aad45bf9",
      "s": "0x195e2e675760a83d5182c76979c5ce427feba1144eb9b5c14b16da99925aa7e1",
      "v": 28,
      "creates": null,
      "raw": "0xf86e818d8601066e9dc2f28261a894b4c8a15086d7c2e2aa5506ff51e34e3e23d053a788a1689a037f8f8f00801ca0347c6958ca9f33114ba0a0572c7d3fbfee992f36b264dca1f79a99e2aad45bf9a0195e2e675760a83d5182c76979c5ce427feba1144eb9b5c14b16da99925aa7e1",
      "networkId": 0,
      "chainId": 0
    },
    {
      "hash": "0x3eacde65712a71633806c41b9e4ece5f8cc43ca3f025a5aac393ea03fc72387c",
      "blockHash": "0x21d15faa70086fffb77acc4325ab585be059c3756c5657532e806b24499f87ab",
      "blockNumber": 113373,
      "transactionIndex": 21,
      "confirmations": null,
      "from": "0x52bc44d5378309EE2abF1539BF71dE1b7d7bE3b5",
      "gasPrice": {
        "_hex": "0x1066e9dc2f2"
      },
      "gasLimit": {
        "_hex": "0x61a8"
      },
      "to": "0xE6D67E3661E28eE2DfC1c68D5DeeA3C3bB880059",
      "value": {
        "_hex": "0x6d467084f0b0bf00"
      },
      "nonce": 142,
      "data": "0x",
      "r": "0x02561517210e924a77ea80fba4740a39e1e18af010aec0efe7da7e407fd7cebe",
      "s": "0x0ad97ab563edbafe482b301678f4ca81ebd9f4fb0aa2b477af564d120eb268c0",
      "v": 28,
      "creates": null,
      "raw": "0xf86e818e8601066e9dc2f28261a894e6d67e3661e28ee2dfc1c68d5deea3c3bb880059886d467084f0b0bf00801ca002561517210e924a77ea80fba4740a39e1e18af010aec0efe7da7e407fd7cebea00ad97ab563edbafe482b301678f4ca81ebd9f4fb0aa2b477af564d120eb268c0",
      "networkId": 0,
      "chainId": 0
    },
    {
      "hash": "0x7ebe4fbc24ffa54d74fce149bde909cd13748650f8182fcdec3f51f9ded31629",
      "blockHash": "0x21d15faa70086fffb77acc4325ab585be059c3756c5657532e806b24499f87ab",
      "blockNumber": 113373,
      "transactionIndex": 22,
      "confirmations": null,
      "from": "0x52bc44d5378309EE2abF1539BF71dE1b7d7bE3b5",
      "gasPrice": {
        "_hex": "0x1066e9dc2f2"
      },
      "gasLimit": {
        "_hex": "0x61a8"
      },
      "to": "0x0b9b56Fbc12d4bf5c15a51E67144e161F6f0e7D2",
      "value": {
        "_hex": "0x579316738ebd080"
      },
      "nonce": 143,
      "data": "0x",
      "r": "0xb64dc950157c01b1686b2a3770b092f3b9351843d5117dd500a2b857c79fafd1",
      "s": "0x2d87b78b886a71925adc2f32c9de7707f7cebc2ff0ef4be3924f6719b3c9d40d",
      "v": 27,
      "creates": null,
      "raw": "0xf86e818f8601066e9dc2f28261a8940b9b56fbc12d4bf5c15a51e67144e161f6f0e7d2880579316738ebd080801ba0b64dc950157c01b1686b2a3770b092f3b9351843d5117dd500a2b857c79fafd1a02d87b78b886a71925adc2f32c9de7707f7cebc2ff0ef4be3924f6719b3c9d40d",
      "networkId": 0,
      "chainId": 0
    },
    {
      "hash": "0xab16bbed163a064e36fcc77c415cd9ca3f26a058ced5fa24cdec1738f25a9757",
      "blockHash": "0x21d15faa70086fffb77acc4325ab585be059c3756c5657532e806b24499f87ab",
      "blockNumber": 113373,
      "transactionIndex": 23,
      "confirmations": null,
      "from": "0x52bc44d5378309EE2abF1539BF71dE1b7d7bE3b5",
      "gasPrice": {
        "_hex": "0x1066e9dc2f2"
      },
      "gasLimit": {
        "_hex": "0x61a8"
      },
      "to": "0xB3A0F076C5C07f41dcb2025B92c34F68165FA57d",
      "value": {
        "_hex": "0x1eb2ff0f0c66f080"
      },
      "nonce": 144,
      "data": "0x",
      "r": "0x99fc6b411935df44cbae851ac6936c36948470bc9a28ae78ab4c1f8b5726a10f",
      "s": "0x1b9f50d5239580cf05fd207630089ec996cc785f6bc2f615a7493702704bf826",
      "v": 28,
      "creates": null,
      "raw": "0xf86e81908601066e9dc2f28261a894b3a0f076c5c07f41dcb2025b92c34f68165fa57d881eb2ff0f0c66f080801ca099fc6b411935df44cbae851ac6936c36948470bc9a28ae78ab4c1f8b5726a10fa01b9f50d5239580cf05fd207630089ec996cc785f6bc2f615a7493702704bf826",
      "networkId": 0,
      "chainId": 0
    },
    {
      "hash": "0x85b9d5a808b221c7f5f6f4480b8f76b41be7848d98852761cfd4db0d429f5068",
      "blockHash": "0x21d15faa70086fffb77acc4325ab585be059c3756c5657532e806b24499f87ab",
      "blockNumber": 113373,
      "transactionIndex": 24,
      "confirmations": null,
      "from": "0x52bc44d5378309EE2abF1539BF71dE1b7d7bE3b5",
      "gasPrice": {
        "_hex": "0x1066e9dc2f2"
      },
      "gasLimit": {
        "_hex": "0x61a8"
      },
      "to": "0xeeb66aFe554366d685C7832C6c93727Ba577378D",
      "value": {
        "_hex": "0x329acde248f29c00"
      },
      "nonce": 145,
      "data": "0x",
      "r": "0x3fc8cb82f07a7875273059031f48f73d85e1e0797c6b110f4793f70140499472",
      "s": "0x04ecc2966c909b357b49cb1a1a3d1a6f5306583c48e7a27bb912f472a4578cd4",
      "v": 28,
      "creates": null,
      "raw": "0xf86e81918601066e9dc2f28261a894eeb66afe554366d685c7832c6c93727ba577378d88329acde248f29c00801ca03fc8cb82f07a7875273059031f48f73d85e1e0797c6b110f4793f70140499472a004ecc2966c909b357b49cb1a1a3d1a6f5306583c48e7a27bb912f472a4578cd4",
      "networkId": 0,
      "chainId": 0
    },
    {
      "hash": "0xb469ecbbceb1d5cd6ba8c20c2ee2458930913c5d123e12382f88a3d66005b6ca",
      "blockHash": "0x21d15faa70086fffb77acc4325ab585be059c3756c5657532e806b24499f87ab",
      "blockNumber": 113373,
      "transactionIndex": 25,
      "confirmations": null,
      "from": "0x52bc44d5378309EE2abF1539BF71dE1b7d7bE3b5",
      "gasPrice": {
        "_hex": "0x1066e9dc2f2"
      },
      "gasLimit": {
        "_hex": "0x61a8"
      },
      "to": "0xb807F4059F86cE14D01b82fc1eb496C7cD2DB6eA",
      "value": {
        "_hex": "0x192b1121f56e5c0"
      },
      "nonce": 146,
      "data": "0x",
      "r": "0x287daa6d19b001e7032be0a70b9c8b8dbb6b5011aae7562a53caa59f9f6b2e5e",
      "s": "0x1285b255556575a6009e729f7cf8c291aa089ad0693337866926d50bb088921f",
      "v": 27,
      "creates": null,
      "raw": "0xf86e81928601066e9dc2f28261a894b807f4059f86ce14d01b82fc1eb496c7cd2db6ea880192b1121f56e5c0801ba0287daa6d19b001e7032be0a70b9c8b8dbb6b5011aae7562a53caa59f9f6b2e5ea01285b255556575a6009e729f7cf8c291aa089ad0693337866926d50bb088921f",
      "networkId": 0,
      "chainId": 0
    },
    {
      "hash": "0x6514d948436bff960314d1990abc4073753889571356d5c49a485ec7d034f475",
      "blockHash": "0x21d15faa70086fffb77acc4325ab585be059c3756c5657532e806b24499f87ab",
      "blockNumber": 113373,
      "transactionIndex": 26,
      "confirmations": null,
      "from": "0x52bc44d5378309EE2abF1539BF71dE1b7d7bE3b5",
      "gasPrice": {
        "_hex": "0x1066e9dc2f2"
      },
      "gasLimit": {
        "_hex": "0x61a8"
      },
      "to": "0x3dFAF9b00A9B8d9412f4a4Cf734349004e699Def",
      "value": {
        "_hex": "0x8e75332be6efd00"
      },
      "nonce": 147,
      "data": "0x",
      "r": "0xda3ae4bff5c8336f5e6e33b88de25cd02ec0ba9c5bb79a4c885e29c618af3e62",
      "s": "0x266c72895ea41181ede422338d6487b63f350487269e8257e1154223ad3e7251",
      "v": 27,
      "creates": null,
      "raw": "0xf86e81938601066e9dc2f28261a8943dfaf9b00a9b8d9412f4a4cf734349004e699def8808e75332be6efd00801ba0da3ae4bff5c8336f5e6e33b88de25cd02ec0ba9c5bb79a4c885e29c618af3e62a0266c72895ea41181ede422338d6487b63f350487269e8257e1154223ad3e7251",
      "networkId": 0,
      "chainId": 0
    },
    {
      "hash": "0x89226bdd5a6c9aae2d22fed7ac0f5828f3b835be55a228eb814f30802fa1e569",
      "blockHash": "0x21d15faa70086fffb77acc4325ab585be059c3756c5657532e806b24499f87ab",
      "blockNumber": 113373,
      "transactionIndex": 27,
      "confirmations": null,
      "from": "0x52bc44d5378309EE2abF1539BF71dE1b7d7bE3b5",
      "gasPrice": {
        "_hex": "0x1066e9dc2f2"
      },
      "gasLimit": {
        "_hex": "0x61a8"
      },
      "to": "0x28a11E1De2Ce153c22158f0Be667e523AA5dC09B",
      "value": {
        "_hex": "0x2addf4101734840"
      },
      "nonce": 148,
      "data": "0x",
      "r": "0xd489b5daac9fd678ae8bbdac7eadfd3baa813374dfb07c2d697850566116d62d",
      "s": "0x7594236100f49433a80adf9a7fab689c7971fd9938847cada080146b359f5c37",
      "v": 28,
      "creates": null,
      "raw": "0xf86e81948601066e9dc2f28261a89428a11e1de2ce153c22158f0be667e523aa5dc09b8802addf4101734840801ca0d489b5daac9fd678ae8bbdac7eadfd3baa813374dfb07c2d697850566116d62da07594236100f49433a80adf9a7fab689c7971fd9938847cada080146b359f5c37",
      "networkId": 0,
      "chainId": 0
    },
    {
      "hash": "0x3b3c58b80ed6d06bce570e2b8d173a31abf61df2b8fb96f70794847b81786f46",
      "blockHash": "0x21d15faa70086fffb77acc4325ab585be059c3756c5657532e806b24499f87ab",
      "blockNumber": 113373,
      "transactionIndex": 28,
      "confirmations": null,
      "from": "0x52bc44d5378309EE2abF1539BF71dE1b7d7bE3b5",
      "gasPrice": {
        "_hex": "0x1066e9dc2f2"
      },
      "gasLimit": {
        "_hex": "0x61a8"
      },
      "to": "0x90fba3C13F19F8cf72A3Bb9EE63C8f728F548654",
      "value": {
        "_hex": "0xa412869bae1a8600"
      },
      "nonce": 149,
      "data": "0x",
      "r": "0x793cdca2a48df34a2f89e75b688faf57807a365bafbbfefb2a4ef93c0a720334",
      "s": "0x34c2e529959e321e896e6c84241860ac63508355d7708d28a12675dc1b30c2d3",
      "v": 28,
      "creates": null,
      "raw": "0xf86e81958601066e9dc2f28261a89490fba3c13f19f8cf72a3bb9ee63c8f728f54865488a412869bae1a8600801ca0793cdca2a48df34a2f89e75b688faf57807a365bafbbfefb2a4ef93c0a720334a034c2e529959e321e896e6c84241860ac63508355d7708d28a12675dc1b30c2d3",
      "networkId": 0,
      "chainId": 0
    },
    {
      "hash": "0xcd6432071d2f213ddec97f6f2e6b501a7083525813a965979634acf4081089bd",
      "blockHash": "0x21d15faa70086fffb77acc4325ab585be059c3756c5657532e806b24499f87ab",
      "blockNumber": 113373,
      "transactionIndex": 29,
      "confirmations": null,
      "from": "0x52bc44d5378309EE2abF1539BF71dE1b7d7bE3b5",
      "gasPrice": {
        "_hex": "0x1066e9dc2f2"
      },
      "gasLimit": {
        "_hex": "0x61a8"
      },
      "to": "0x647fe784fb1A8380972fB6eA08D6eEd74D1a5699",
      "value": {
        "_hex": "0x2305fc3a33e55000"
      },
      "nonce": 150,
      "data": "0x",
      "r": "0xcf7bb50372a26ce00e33541d628bc949965d0a85085b040a4e129931ac41a47a",
      "s": "0x228f9124c6a448931f2412d76c25d9201e42bfef195afbad36a664e2777ad23d",
      "v": 27,
      "creates": null,
      "raw": "0xf86e81968601066e9dc2f28261a894647fe784fb1a8380972fb6ea08d6eed74d1a5699882305fc3a33e55000801ba0cf7bb50372a26ce00e33541d628bc949965d0a85085b040a4e129931ac41a47aa0228f9124c6a448931f2412d76c25d9201e42bfef195afbad36a664e2777ad23d",
      "networkId": 0,
      "chainId": 0
    },
    {
      "hash": "0x4ff32c0ab8abda96ad3f627dfd236f05c895694db7ec04ad88928d939c5388bb",
      "blockHash": "0x21d15faa70086fffb77acc4325ab585be059c3756c5657532e806b24499f87ab",
      "blockNumber": 113373,
      "transactionIndex": 30,
      "confirmations": null,
      "from": "0x52bc44d5378309EE2abF1539BF71dE1b7d7bE3b5",
      "gasPrice": {
        "_hex": "0x1066e9dc2f2"
      },
      "gasLimit": {
        "_hex": "0x61a8"
      },
      "to": "0x787F9C02fc5F4970ae51F2B5f7B4ee7c22B875B6",
      "value": {
        "_hex": "0x45f28ad1d2a78c0"
      },
      "nonce": 151,
      "data": "0x",
      "r": "0x04585970b9bdf06dd36bd8f907c47341f6252625787a37c0001cc5154860bf77",
      "s": "0x0ab169db8ddfac920b49483f9b99c3b43c7f042ba6f49d61c140f6906aa9de9f",
      "v": 28,
      "creates": null,
      "raw": "0xf86e81978601066e9dc2f28261a894787f9c02fc5f4970ae51f2b5f7b4ee7c22b875b688045f28ad1d2a78c0801ca004585970b9bdf06dd36bd8f907c47341f6252625787a37c0001cc5154860bf77a00ab169db8ddfac920b49483f9b99c3b43c7f042ba6f49d61c140f6906aa9de9f",
      "networkId": 0,
      "chainId": 0
    },
    {
      "hash": "0x7371dcd8ddb5245c002b7372be57aa8e1e1708fbb1a45b2903b18ea7add31053",
      "blockHash": "0x21d15faa70086fffb77acc4325ab585be059c3756c5657532e806b24499f87ab",
      "blockNumber": 113373,
      "transactionIndex": 31,
      "confirmations": null,
      "from": "0x52bc44d5378309EE2abF1539BF71dE1b7d7bE3b5",
      "gasPrice": {
        "_hex": "0x1066e9dc2f2"
      },
      "gasLimit": {
        "_hex": "0x61a8"
      },
      "to": "0x863b7d048A0B7bfc239AF19F6A736E0995fB1C73",
      "value": {
        "_hex": "0x364fb6ff1d230380"
      },
      "nonce": 152,
      "data": "0x",
      "r": "0x6bd78553bff6dd782bd9d71ce5cbe468937bcc596162a1a1ee0d2314c7cd3011",
      "s": "0x105d3e5f22d2762fb6145f7c63efb0bb7c9e1ddf64736f11f7100c8937b34300",
      "v": 27,
      "creates": null,
      "raw": "0xf86e81988601066e9dc2f28261a894863b7d048a0b7bfc239af19f6a736e0995fb1c7388364fb6ff1d230380801ba06bd78553bff6dd782bd9d71ce5cbe468937bcc596162a1a1ee0d2314c7cd3011a0105d3e5f22d2762fb6145f7c63efb0bb7c9e1ddf64736f11f7100c8937b34300",
      "networkId": 0,
      "chainId": 0
    },
    {
      "hash": "0x19dd656d50e4b4be7a81ffc902806db38570219640c7540b0d8dbed9671a6bf6",
      "blockHash": "0x21d15faa70086fffb77acc4325ab585be059c3756c5657532e806b24499f87ab",
      "blockNumber": 113373,
      "transactionIndex": 32,
      "confirmations": null,
      "from": "0x52bc44d5378309EE2abF1539BF71dE1b7d7bE3b5",
      "gasPrice": {
        "_hex": "0x1066e9dc2f2"
      },
      "gasLimit": {
        "_hex": "0x61a8"
      },
      "to": "0x2753Eb7f173C1e8B9F5315395ef4608F92b637AB",
      "value": {
        "_hex": "0x49b6baa939151100"
      },
      "nonce": 153,
      "data": "0x",
      "r": "0x1a52e46fefe7cbd35800653e3c4d22a29bc4eea8e4b1726c5e10fe6391e02c31",
      "s": "0x082e68ea5b5bb99069e8c0f70fc5fcf5bdaf838bbfe80942e46823b59e173de4",
      "v": 27,
      "creates": null,
      "raw": "0xf86e81998601066e9dc2f28261a8942753eb7f173c1e8b9f5315395ef4608f92b637ab8849b6baa939151100801ba01a52e46fefe7cbd35800653e3c4d22a29bc4eea8e4b1726c5e10fe6391e02c31a0082e68ea5b5bb99069e8c0f70fc5fcf5bdaf838bbfe80942e46823b59e173de4",
      "networkId": 0,
      "chainId": 0
    },
    {
      "hash": "0x634edd5871c78d884f79036c869dcebc1521af4440a8949d45fcba3dc89dee5e",
      "blockHash": "0x21d15faa70086fffb77acc4325ab585be059c3756c5657532e806b24499f87ab",
      "blockNumber": 113373,
      "transactionIndex": 33,
      "confirmations": null,
      "from": "0x52bc44d5378309EE2abF1539BF71dE1b7d7bE3b5",
      "gasPrice": {
        "_hex": "0x1066e9dc2f2"
      },
      "gasLimit": {
        "_hex": "0x61a8"
      },
      "to": "0x8263B7757b139904C7cD8511B3D0a6D1479848Ba",
      "value": {
        "_hex": "0x1e629be108056300"
      },
      "nonce": 154,
      "data": "0x",
      "r": "0xf9029d8b1187aa67a7f30a9fe87faa76ce38f7a9fcb2993c1816a697768cd4c7",
      "s": "0x38d6dcf050f5d010c463ada4fc2482d1bfa3fab99009f46386133ec7cdc62e3c",
      "v": 27,
      "creates": null,
      "raw": "0xf86e819a8601066e9dc2f28261a8948263b7757b139904c7cd8511b3d0a6d1479848ba881e629be108056300801ba0f9029d8b1187aa67a7f30a9fe87faa76ce38f7a9fcb2993c1816a697768cd4c7a038d6dcf050f5d010c463ada4fc2482d1bfa3fab99009f46386133ec7cdc62e3c",
      "networkId": 0,
      "chainId": 0
    },
    {
      "hash": "0xdfd18ab0d3017538c04236611700429dbb5dc32344752ec7c8a7ba4660cac809",
      "blockHash": "0x21d15faa70086fffb77acc4325ab585be059c3756c5657532e806b24499f87ab",
      "blockNumber": 113373,
      "transactionIndex": 34,
      "confirmations": null,
      "from": "0x52bc44d5378309EE2abF1539BF71dE1b7d7bE3b5",
      "gasPrice": {
        "_hex": "0x1066e9dc2f2"
      },
      "gasLimit": {
        "_hex": "0x61a8"
      },
      "to": "0x8710908977F5FaA8Ff9BC8cf3c0A928bF83AA873",
      "value": {
        "_hex": "0xd8e03a12026ad80"
      },
      "nonce": 155,
      "data": "0x",
      "r": "0xf36fa559d3c22631b2c7c18a83b150314c8e5ffb6973305e4c5af137ef2d5f3d",
      "s": "0x45e7dfdb8f3c5f5be8941c839e0e7e73c707fe6c10fde81b7d7a27fd450b7647",
      "v": 27,
      "creates": null,
      "raw": "0xf86e819b8601066e9dc2f28261a8948710908977f5faa8ff9bc8cf3c0a928bf83aa873880d8e03a12026ad80801ba0f36fa559d3c22631b2c7c18a83b150314c8e5ffb6973305e4c5af137ef2d5f3da045e7dfdb8f3c5f5be8941c839e0e7e73c707fe6c10fde81b7d7a27fd450b7647",
      "networkId": 0,
      "chainId": 0
    },
    {
      "hash": "0x75f90a5ced000e3c1eebd6c79457bd3d2219396e0f977e3b44e0e1a5240afc28",
      "blockHash": "0x21d15faa70086fffb77acc4325ab585be059c3756c5657532e806b24499f87ab",
      "blockNumber": 113373,
      "transactionIndex": 35,
      "confirmations": null,
      "from": "0x52bc44d5378309EE2abF1539BF71dE1b7d7bE3b5",
      "gasPrice": {
        "_hex": "0x1066e9dc2f2"
      },
      "gasLimit": {
        "_hex": "0x61a8"
      },
      "to": "0xaa922F58969a92aFBB0456a811722dE45901C586",
      "value": {
        "_hex": "0x4a8e9adf6c7b880"
      },
      "nonce": 156,
      "data": "0x",
      "r": "0xdc7b24543f15449008e8bd13e4deb7f9cd84d74981637a2edd8690aafda0bc19",
      "s": "0x166c2ddb3cfa96935d30038d2648280157230d37c3f337929a4074abe7deda49",
      "v": 27,
      "creates": null,
      "raw": "0xf86e819c8601066e9dc2f28261a894aa922f58969a92afbb0456a811722de45901c5868804a8e9adf6c7b880801ba0dc7b24543f15449008e8bd13e4deb7f9cd84d74981637a2edd8690aafda0bc19a0166c2ddb3cfa96935d30038d2648280157230d37c3f337929a4074abe7deda49",
      "networkId": 0,
      "chainId": 0
    },
    {
      "hash": "0xc5753a1f75ca9d66cf4fb4bbf8a16d720f82c39aa31e9e09966ea9dcf4fda19e",
      "blockHash": "0x21d15faa70086fffb77acc4325ab585be059c3756c5657532e806b24499f87ab",
      "blockNumber": 113373,
      "transactionIndex": 36,
      "confirmations": null,
      "from": "0x52bc44d5378309EE2abF1539BF71dE1b7d7bE3b5",
      "gasPrice": {
        "_hex": "0x1066e9dc2f2"
      },
      "gasLimit": {
        "_hex": "0x61a8"
      },
      "to": "0xbc0F4F3338f099e578819A8D87976dF731B6ee7E",
      "value": {
        "_hex": "0x2a6d1f58ce782c0"
      },
      "nonce": 157,
      "data": "0x",
      "r": "0xb0a154f6f850536fb71dc7189018c64153776e5653e8069f7bdbc363376dc890",
      "s": "0x4ccf4823feebb7b1ff1c92ebb863e57b7220b9d35b2e6e46f26f44c634b5b9ba",
      "v": 27,
      "creates": null,
      "raw": "0xf86e819d8601066e9dc2f28261a894bc0f4f3338f099e578819a8d87976df731b6ee7e8802a6d1f58ce782c0801ba0b0a154f6f850536fb71dc7189018c64153776e5653e8069f7bdbc363376dc890a04ccf4823feebb7b1ff1c92ebb863e57b7220b9d35b2e6e46f26f44c634b5b9ba",
      "networkId": 0,
      "chainId": 0
    },
    {
      "hash": "0xfc940c2490b8ee3e658e9210f52af45808e4e341b797ed692d3bbf2310a47179",
      "blockHash": "0x21d15faa70086fffb77acc4325ab585be059c3756c5657532e806b24499f87ab",
      "blockNumber": 113373,
      "transactionIndex": 37,
      "confirmations": null,
      "from": "0x52bc44d5378309EE2abF1539BF71dE1b7d7bE3b5",
      "gasPrice": {
        "_hex": "0x1066e9dc2f2"
      },
      "gasLimit": {
        "_hex": "0x61a8"
      },
      "to": "0x208312414ad16feb261b0f093f780958f60Ce1c8",
      "value": {
        "_hex": "0xdd6b11275bd2000"
      },
      "nonce": 158,
      "data": "0x",
      "r": "0x92bbf225ec1ea0fa2212013dcb3d531f5b28fec006bb2adfa11834eb518679a8",
      "s": "0x7ede397eedfbbc4ccfa521b9f126fba9fd8819add27df9c581351fa48ed71fa8",
      "v": 28,
      "creates": null,
      "raw": "0xf86e819e8601066e9dc2f28261a894208312414ad16feb261b0f093f780958f60ce1c8880dd6b11275bd2000801ca092bbf225ec1ea0fa2212013dcb3d531f5b28fec006bb2adfa11834eb518679a8a07ede397eedfbbc4ccfa521b9f126fba9fd8819add27df9c581351fa48ed71fa8",
      "networkId": 0,
      "chainId": 0
    },
    {
      "hash": "0x5132533ac97ecaca6c4e5c2903945e1c66f7484c1749b5f1c71fa8e53cd2b282",
      "blockHash": "0x21d15faa70086fffb77acc4325ab585be059c3756c5657532e806b24499f87ab",
      "blockNumber": 113373,
      "transactionIndex": 38,
      "confirmations": null,
      "from": "0x52bc44d5378309EE2abF1539BF71dE1b7d7bE3b5",
      "gasPrice": {
        "_hex": "0x1066e9dc2f2"
      },
      "gasLimit": {
        "_hex": "0x61a8"
      },
      "to": "0x259ce58778abd156fC9084AB53322FEA6EeC550E",
      "value": {
        "_hex": "0x309e598b03ce4300"
      },
      "nonce": 159,
      "data": "0x",
      "r": "0x8122686e5ac41f7ee2893bd227301651fce40f7f13beb02edf77c90d7a3768ec",
      "s": "0x51897a9593fb6a9d8701093a30a38e43129c0851a8dcabea4d1ce37c93e4453e",
      "v": 28,
      "creates": null,
      "raw": "0xf86e819f8601066e9dc2f28261a894259ce58778abd156fc9084ab53322fea6eec550e88309e598b03ce4300801ca08122686e5ac41f7ee2893bd227301651fce40f7f13beb02edf77c90d7a3768eca051897a9593fb6a9d8701093a30a38e43129c0851a8dcabea4d1ce37c93e4453e",
      "networkId": 0,
      "chainId": 0
    }
  ]
}