{
  "hash": "0x4b43c95cebd563829f687c7f45493d90ba6c0d0fda07f597016ebdcaddcae332",
  "parentHash": "0x9dcdd0068d21a034337dd1b1b8da4b9381281d45a213ffd629ce86a9a457a3c7",
  "number": 108282,
  "timestamp": 1439937650,
  "nonce": "0x25231d8c903ae8f6",
  "difficulty": 4353267645811,
  "gasLimit": {
    "_hex": "0x2fefd8"
  },
  "gasUsed": {
    "_hex": "0x5208"
  },
  "miner": "0xe6A7a1d47ff21B6321162AEA7C6CB457D5476Bca",
  "extraData": "0x476574682f76312e302e312d38326566323666362f6c696e75782f676f312e34",
  "transactions": [
    {
      "hash": "0xfe1e668b99e27966e0252f69cf0980355fff50d0caf663bcb4f4e1a60607542b",
      "blockHash": "0x4b43c95cebd563829f687c7f45493d90ba6c0d0fda07f597016ebdcaddcae332",
      "blockNumber": 108282,
      "transactionIndex": 0,
      "confirmations": null,
      "from": "0xBBDa93a81B882774e1c9b5e3F933Fa35DaC8bc88",
      "gasPrice": {
        "_hex": "0xdeffcb105"
      },
      "gasLimit": {
        "_hex": "0x5208"
      },
      "to": "0x32Be343B94f860124dC4fEe278FDCBD38C102D88",
      "value": {
        "_hex": "0x271dee08e3a21e000"
      },
      "nonce": 15,
      "data": "0x",
      "r": "0x8bf8bac6e46f6e09f271ae7982e50a27da831220c0695b2b7dd95f2270367c6b",
      "s": "0x254a79b35296c82a1ac1948f7fb8c5477be68906de0497d1193cdae67173da21",
      "v": 28,
      "creates": null,
      "raw": "0xf86d0f850deffcb1058252089432be343b94f860124dc4fee278fdcbd38c102d88890271dee08e3a21e000801ca08bf8bac6e46f6e09f271ae7982e50a27da831220c0695b2b7dd95f2270367c6ba0254a79b35296c82a1ac1948f7fb8c5477be68906de0497d1193cdae67173da21",
      "networkId": 0,
      "chainId": 0
    }
  ]
}