{
  "hash": "0xa2aff4ce12f9f12c718a12cdee1071ed161a8ae7428153bd0226bd610ebb02d4",
  "parentHash": "0x2c74eb2ef7d0da15f6e3cd06ef6dcd1a63bf913ef993b8404398d85ec32612e4",
  "number": 111532,
  "timestamp": 1439991800,
  "nonce": "0x935571a401fdb3cf",
  "difficulty": 4446083927797,
  "gasLimit": {
    "_hex": "0x2fefd8"
  },
  "gasUsed": {
    "_hex": "0x5208"
  },
  "miner": "0xe6A7a1d47ff21B6321162AEA7C6CB457D5476Bca",
  "extraData": "0x476574682f76312e302e312d38326566323666362f6c696e75782f676f312e34",
  "transactions": [
    {
      "hash": "0xd45f467fb2e70fbfbf73fc15aecb81cfe1e2215328451529d3c25db4b39d1fe1",
      "blockHash": "0xa2aff4ce12f9f12c718a12cdee1071ed161a8ae7428153bd0226bd610ebb02d4",
      "blockNumber": 111532,
      "transactionIndex": 0,
      "confirmations": null,
      "from": "0x05dbCFEec0a867Ee5ae6468cD4cdF92E1924ad33",
      "gasPrice": {
        "_hex": "0xd1d86b6ae"
      },
      "gasLimit": {
        "_hex": "0x5208"
      },
      "to": "0x32Be343B94f860124dC4fEe278FDCBD38C102D88",
      "value": {
        "_hex": "0x26d7654be0a64c00"
      },
      "nonce": 0,
      "data": "0x",
      "r": "0xa6cf46a47ff5081f7bef490e7c6a34f3ed24c9ee513910efd92d335decb7cd66",
      "s": "0x0d24ec1ddcb231edbaac962465044bec405cf8471525737f704d8c35716db215",
      "v": 28,
      "creates": null,
      "raw": "0xf86c80850d1d86b6ae8252089432be343b94f860124dc4fee278fdcbd38c102d888826d7654be0a64c00801ca0a6cf46a47ff5081f7bef490e7c6a34f3ed24c9ee513910efd92d335decb7cd66a00d24ec1ddcb231edbaac962465044bec405cf8471525737f704d8c35716db215",
      "networkId": 0,
      "chainId": 0
    }
  ]
}