{
  "hash": "0xf43413c05475a0b9e5f14434abca21bdcbb2be5855231b862cc492a18b0aaa67",
  "parentHash": "0x0b22a2529f36be953dbd84ffbe980f47f7ede7d90e8f0507bff4cc6898a87a1d",
  "number": 105060,
  "timestamp": 1439880946,
  "nonce": "0x4d29109a22a867c8",
  "difficulty": 4300002159509,
  "gasLimit": {
    "_hex": "0x2fefd8"
  },
  "gasUsed": {
    "_hex": "0x5208"
  },
  "miner": "0xe6A7a1d47ff21B6321162AEA7C6CB457D5476Bca",
  "extraData": "0x476574682f76312e302e312d38326566323666362f6c696e75782f676f312e34",
  "transactions": [
    {
      "hash": "0xdd615e4134ca3ef9f2d5312f19fcb2ec29d15d95684374e349a43a76f7e22cf5",
      "blockHash": "0xf43413c05475a0b9e5f14434abca21bdcbb2be5855231b862cc492a18b0aaa67",
      "blockNumber": 105060,
      "transactionIndex": 0,
      "confirmations": null,
      "from": "0x33F36DffD23cf019833E1d59cBc7138824b12289",
      "gasPrice": {
        "_hex": "0xba43b7400"
      },
      "gasLimit": {
        "_hex": "0x1820f0"
      },
      "to": "0xe2dc38c86274d7F8d96Ee09dcF2072a329e6eda3",
      "value": {
        "_hex": "0x8aeaa9f6f9a90000"
      },
      "nonce": 11,
      "data": "0x",
      "r": "0x83a58dd6a9bacbcab5256c8ae59436c2a5ad67204106587013bf14e325979556",
      "s": "0x6c1a7eccf6a196305bed0e701adb0722bc6174a6c093d76508516cd7ed763163",
      "v": 27,
      "creates": null,
      "raw": "0xf86d0b850ba43b7400831820f094e2dc38c86274d7f8d96ee09dcf2072a329e6eda3888aeaa9f6f9a90000801ba083a58dd6a9bacbcab5256c8ae59436c2a5ad67204106587013bf14e325979556a06c1a7eccf6a196305bed0e701adb0722bc6174a6c093d76508516cd7ed763163",
      "networkId": 0,
      "chainId": 0
    }
  ]
}