{
  "hash": "0x4db19fb21b9084e1fc706831d8d8133a577331390d09e29ef95c5709c01851c8",
  "parentHash": "0x3ecb22d826ba4992e1f4174893081ac46951bd3e4f07fa39051dbcfe80aaf207",
  "number": 104575,
  "timestamp": 1439871987,
  "nonce": "0x47031f64155d8f7c",
  "difficulty": 4365837601986,
  "gasLimit": {
    "_hex": "0x2fefd8"
  },
  "gasUsed": {
    "_hex": "0x5208"
  },
  "miner": "0x31995C46B15C84523cDEE26f49A681b8237e43F5",
  "extraData": "0x476574682f76312e302e312f77696e646f77732f676f312e342e32",
  "transactions": [
    {
      "hash": "0xba5f74df94b2559e595e0594c641d9a609e2157d4892dbd0e0f6350e9cd8fffb",
      "blockHash": "0x4db19fb21b9084e1fc706831d8d8133a577331390d09e29ef95c5709c01851c8",
      "blockNumber": 104575,
      "transactionIndex": 0,
      "confirmations": null,
      "from": "0xD9666150A9dA92d9108198a4072970805a8B3428",
      "gasPrice": {
        "_hex": "0xdd7d3a684"
      },
      "gasLimit": {
        "_hex": "0x5208"
      },
      "to": "0x32Be343B94f860124dC4fEe278FDCBD38C102D88",
      "value": {
        "_hex": "0x455f158b6e515000"
      },
      "nonce": 70,
      "data": "0x",
      "r": "0x6a7e7b42c76a3ad7634e309320745f44d0c11080d49ed00cde36b1068bb5280a",
      "s": "0x58fe7a9fb17fd8f2c7413f95fa9a52eec0902f60f7d9da3887ee9b810b043443",
      "v": 28,
      "creates": null,
      "raw": "0xf86c46850dd7d3a6848252089432be343b94f860124dc4fee278fdcbd38c102d8888455f158b6e515000801ca06a7e7b42c76a3ad7634e309320745f44d0c11080d49ed00cde36b1068bb5280aa058fe7a9fb17fd8f2c7413f95fa9a52eec0902f60f7d9da3887ee9b810b043443",
      "networkId": 0,
      "chainId": 0
    }
  ]
}