{
  "hash": "0x57b1597ddba43ad31bddc03d2e77ec812b467443f0b3d291abfcbeadb663cdee",
  "parentHash": "0x258e708b75d36f07cb8f0356d0b99e0912bcbe7d507a703caf6fda5f42b5e537",
  "number": 94492,
  "timestamp": 1439709339,
  "nonce": "0xd80448f30d04cf65",
  "difficulty": 3486637525788,
  "gasLimit": {
    "_hex": "0x2fefd8"
  },
  "gasUsed": {
    "_hex": "0x5208"
  },
  "miner": "0x007f7f58D3eb5b7510A301eCC749FC1fCDDBE14D",
  "extraData": "0x476574682f76312e302e312f77696e646f77732f676f312e342e32",
  "transactions": [
    {
      "hash": "0x5a8ad2ca66ad2db287fec8eb97decadc3fd527bde5cd3391eaa437bb61097ccc",
      "blockHash": "0x57b1597ddba43ad31bddc03d2e77ec812b467443f0b3d291abfcbeadb663cdee",
      "blockNumber": 94492,
      "transactionIndex": 0,
      "confirmations": null,
      "from": "0x2071130408d9aAf3D5D65953118c3FE37aCB8D04",
      "gasPrice": {
        "_hex": "0xba43b7400"
      },
      "gasLimit": {
        "_hex": "0x5208"
      },
      "to": "0xC47Aaa860008be6f65B58c6C6E02a84e666EfE31",
      "value": {
        "_hex": "0x1fcbfa42bd6000"
      },
      "nonce": 3,
      "data": "0x",
      "r": "0xdb9621d1d0aa30419e9843ac74e330707b60c057b4676dd8dc6f477c8da0b3b4",
      "s": "0x0a43a21b0b019cb1334dd4d07ed54c38db7d46554a6dfdd98434b9a4dbd2cf14",
      "v": 28,
      "creates": null,
      "raw": "0xf86b03850ba43b740082520894c47aaa860008be6f65b58c6c6e02a84e666efe31871fcbfa42bd6000801ca0db9621d1d0aa30419e9843ac74e330707b60c057b4676dd8dc6f477c8da0b3b4a00a43a21b0b019cb1334dd4d07ed54c38db7d46554a6dfdd98434b9a4dbd2cf14",
      "networkId": 0,
      "chainId": 0
    }
  ]
}