{
  "hash": "0xc4a64d8493e4905026dba8992f26bf6145067eff819acab1df545c3ad7bf14d7",
  "parentHash": "0xe61904cd54a264c0354083a6be8fc33288ac4ee5719950d49486f4c0ef35e9f7",
  "number": 100107,
  "timestamp": 1439800786,
  "nonce": "0x59ef9bd05072c8d9",
  "difficulty": 3843613696670,
  "gasLimit": {
    "_hex": "0x2fefd8"
  },
  "gasUsed": {
    "_hex": "0x54b0"
  },
  "miner": "0x841B562a690B0808405F6E3713E1efdbebA96021",
  "extraData": "0x476574682f76312e302e312f77696e646f77732f676f312e342e32",
  "transactions": [
    {
      "hash": "0x810c71f33513aec23324d9438d27e8053ffe63aac08621770daed7dcaddeca50",
      "blockHash": "0xc4a64d8493e4905026dba8992f26bf6145067eff819acab1df545c3ad7bf14d7",
      "blockNumber": 100107,
      "transactionIndex": 0,
      "confirmations": null,
      "from": "0xDdFafdbC7c90f1320e54b98F374617fbd01d109f",
      "gasPrice": {
        "_hex": "0xd6d9651bf"
      },
      "gasLimit": {
        "_hex": "0x55f0"
      },
      "to": "0x40B9b889A21Ff1534d018D71Dc406122EBcf3F5A",
      "value": {
        "_hex": "0x32d26d12e980b600000"
      },
      "nonce": 11,
      "data": "0x56414647463037393232",
      "r": "0xad054d6bf61bea37ee4cc154652208f36b67e41a50afa4450f98de6a4c833553",
      "s": "0x4d9fd8da14602c8785fc3d8e35d5ab05c30be77354210e986a6dec385aa0ab58",
      "v": 28,
      "creates": null,
      "raw": "0xf8780b850d6d9651bf8255f09440b9b889a21ff1534d018d71dc406122ebcf3f5a8a032d26d12e980b6000008a564146474630373932321ca0ad054d6bf61bea37ee4cc154652208f36b67e41a50afa4450f98de6a4c833553a04d9fd8da14602c8785fc3d8e35d5ab05c30be77354210e986a6dec385aa0ab58",
      "networkId": 0,
      "chainId": 0
    }
  ]
}