{
  "hash": "0xe482ba7b19f6295b9d0e548622daf3545de31c485c8c8d3776c3f30578f4ac12",
  "parentHash": "0x0474b491cdd4c549e5354e28ba77163bcc9359b943d5ffc50483a2f5ce9facf4",
  "number": 46809,
  "timestamp": 1438929502,
  "nonce": "0x49545d50624d06df",
  "difficulty": 1461018388501,
  "gasLimit": {
    "_hex": "0x7abf"
  },
  "gasUsed": {
    "_hex": "0x5208"
  },
  "miner": "0x4705E331214F54eE19677a920BeB64e5206Fd610",
  "extraData": "0x476574682f76312e302e312f6c696e75782f676f312e342e32",
  "transactions": [
    {
      "hash": "0x30297c7d1d731b0db1f68df371a7af42a20b97d47771a454d5bc313c3b18b5af",
      "blockHash": "0xe482ba7b19f6295b9d0e548622daf3545de31c485c8c8d3776c3f30578f4ac12",
      "blockNumber": 46809,
      "transactionIndex": 0,
      "confirmations": null,
      "from": "0x1B7047b4338ACf65bE94C1A3e8c5c9338ad7d67C",
      "gasPrice": {
        "_hex": "0xdf8475800"
      },
      "gasLimit": {
        "_hex": "0x5208"
      },
      "to": "0x2Fe86C0450Bf1bE6001d119aA87f6f33117bD699",
      "value": {
        "_hex": "0x56d4e2a98305b0000"
      },
      "nonce": 0,
      "data": "0x",
      "r": "0x589be244108f97fc560384caa068da4328566454aa45270c42ac88e34767a862",
      "s": "0x3f080c92302526e5d24aebfa50aa8bd507ccbaf27db79a70c9a591090b0842ad",
      "v": 27,
      "creates": null,
      "raw": "0xf86d80850df8475800825208942fe86c0450bf1be6001d119aa87f6f33117bd69989056d4e2a98305b0000801ba0589be244108f97fc560384caa068da4328566454aa45270c42ac88e34767a862a03f080c92302526e5d24aebfa50aa8bd507ccbaf27db79a70c9a591090b0842ad",
      "networkId": 0,
      "chainId": 0
    }
  ]
}