{
  "hash": "0x9e67b981493eefd1fdaf3fd239c8585e8a717dfe4a8c744a823c9ccfddb05e64",
  "parentHash": "0x1c1d034ee38d12305602bf693b9ad109c021fe516ffa711624922f896901c74f",
  "number": 83299,
  "timestamp": 1439533305,
  "nonce": "0x4a0ad5baeaaa1713",
  "difficulty": 2414807922993,
  "gasLimit": {
    "_hex": "0x2fefd8"
  },
  "gasUsed": {
    "_hex": "0x5208"
  },
  "miner": "0xe6A7a1d47ff21B6321162AEA7C6CB457D5476Bca",
  "extraData": "0x476574682f76312e302e312d38326566323666362f6c696e75782f676f312e34",
  "transactions": [
    {
      "hash": "0x4a660c2f0c6ee06f824d5c8cb2644a9b8ad186380e61598d13fa1dfd7642477c",
      "blockHash": "0x9e67b981493eefd1fdaf3fd239c8585e8a717dfe4a8c744a823c9ccfddb05e64",
      "blockNumber": 83299,
      "transactionIndex": 0,
      "confirmations": null,
      "from": "0xC603Ab5ef41fC61AA8b76bEddb09e3Cfcbb174BD",
      "gasPrice": {
        "_hex": "0xceb6b307f"
      },
      "gasLimit": {
        "_hex": "0x15f90"
      },
      "to": "0x8F79f76381Aad7B98C19aF55eE75fdfEeb012211",
      "value": {
        "_hex": "0x56bc75e2d63100000"
      },
      "nonce": 13,
      "data": "0x",
      "r": "0xc01e639763e8672606171781da2463ee832746edd7149e18456dc3dd5ac470ca",
      "s": "0x3c15b75624fdbe422f4f57b3b482b70792416f51d363f1d104f0d64ea8bf7896",
      "v": 27,
      "creates": null,
      "raw": "0xf86e0d850ceb6b307f83015f90948f79f76381aad7b98c19af55ee75fdfeeb01221189056bc75e2d63100000801ba0c01e639763e8672606171781da2463ee832746edd7149e18456dc3dd5ac470caa03c15b75624fdbe422f4f57b3b482b70792416f51d363f1d104f0d64ea8bf7896",
      "networkId": 0,
      "chainId": 0
    }
  ]
}