{
  "hash": "0xcdb0ad31c15a1c8b56703380444f49651b762a90080df4d4e646a25a906b4fb3",
  "parentHash": "0x0afb6860e8cf2d4ed101256ee844d9cbb67648153eebe8bc6c9b114d79498c93",
  "number": 79456,
  "timestamp": 1439469976,
  "nonce": "0xdab59bf1d666e89e",
  "difficulty": 2333594770972,
  "gasLimit": {
    "_hex": "0x2fefd8"
  },
  "gasUsed": {
    "_hex": "0xa410"
  },
  "miner": "0xe6A7a1d47ff21B6321162AEA7C6CB457D5476Bca",
  "extraData": "0x476574682f76312e302e312d38326566323666362f6c696e75782f676f312e34",
  "transactions": [
    {
      "hash": "0x8fb083d6d4cdf24e85944346de124751963751c768b3fbadd5be97479a457586",
      "blockHash": "0xcdb0ad31c15a1c8b56703380444f49651b762a90080df4d4e646a25a906b4fb3",
      "blockNumber": 79456,
      "transactionIndex": 0,
      "confirmations": null,
      "from": "0xeC210EC3715d5918B37CFa4D344a45d177eD849f",
      "gasPrice": {
        "_hex": "0xdca1de542"
      },
      "gasLimit": {
        "_hex": "0x5208"
      },
      "to": "0x32Be343B94f860124dC4fEe278FDCBD38C102D88",
      "value": {
        "_hex": "0x254ba450054e76000"
      },
      "nonce": 4,
      "data": "0x",
      "r": "0x8cd41eed04df35f66e3f60e17b5192b31d1bebfc6183e23430c97595dbc9f9cc",
      "s": "0x705db7aa56cb4ff54a2b2e230c6bf648a46b8f6428120e886e4a55733ee79ff3",
      "v": 28,
      "creates": null,
      "raw": "0xf86d04850dca1de5428252089432be343b94f860124dc4fee278fdcbd38c102d88890254ba450054e76000801ca08cd41eed04df35f66e3f60e17b5192b31d1bebfc6183e23430c97595dbc9f9cca0705db7aa56cb4ff54a2b2e230c6bf648a46b8f6428120e886e4a55733ee79ff3",
      "networkId": 0,
      "chainId": 0
    },
    {
      "hash": "0x6c73ea7153022197e8f893771bc1c3b7f6a9cb8ea7f234ee4058595348c81561",
      "blockHash": "0xcdb0ad31c15a1c8b56703380444f49651b762a90080df4d4e646a25a906b4fb3",
      "blockNumber": 79456,
      "transactionIndex": 1,
      "confirmations": null,
      "from": "0x5170535271F5B9eC438c0447b3daD67b3E2633f2",
      "gasPrice": {
        "_hex": "0xba43b7400"
      },
      "gasLimit": {
        "_hex": "0x5208"
      },
      "to": "0xC47Aaa860008be6f65B58c6C6E02a84e666EfE31",
      "value": {
        "_hex": "0x299e6922c92838f0"
      },
      "nonce": 7,
      "data": "0x",
      "r": "0x944e619c42bff7810b914828c58010d6c35bd31469aff34bb1d9eae748d7d15a",
      "s": "0x11daf8b5fd82047acc454a7cd24f7cb5f6a22e5ccc94b4bd28b0e2b5f88cecda",
      "v": 28,
      "creates": null,
      "raw": "0xf86c07850ba43b740082520894c47aaa860008be6f65b58c6c6e02a84e666efe3188299e6922c92838f0801ca0944e619c42bff7810b914828c58010d6c35bd31469aff34bb1d9eae748d7d15aa011daf8b5fd82047acc454a7cd24f7cb5f6a22e5ccc94b4bd28b0e2b5f88cecda",
      "networkId": 0,
      "chainId": 0
    }
  ]
}