{
  "hash": "0x415f760ea79ba561207a8e28251205666b3f8e1c597bf0ea9987295ea4776132",
  "parentHash": "0xaa4ec3c0d21e3a16eabb3381d3e5a32c6713ec72ae703dcaace3e83b9c84c553",
  "number": 80779,
  "timestamp": 1439490666,
  "nonce": "0x6c21cc0a34590310",
  "difficulty": 2446394896094,
  "gasLimit": {
    "_hex": "0x2fefd8"
  },
  "gasUsed": {
    "_hex": "0x5208"
  },
  "miner": "0x7E6930B63D03e88F5928C5cd6ee3FCee4D714F7F",
  "extraData": "0x",
  "transactions": [
    {
      "hash": "0xcfc682344043f3138b195e8e35c628d754b3fa19e7b19659148222a6c19d92ea",
      "blockHash": "0x415f760ea79ba561207a8e28251205666b3f8e1c597bf0ea9987295ea4776132",
      "blockNumber": 80779,
      "transactionIndex": 0,
      "confirmations": null,
      "from": "0x5182C1C90D2ba500974f56988670D91c13540033",
      "gasPrice": {
        "_hex": "0xd23ee12e2"
      },
      "gasLimit": {
        "_hex": "0x15f90"
      },
      "to": "0xD671e71108Bd20F1A8e2A4f73a7449Bf8DAa840f",
      "value": {
        "_hex": "0x35b5007ef0c30000"
      },
      "nonce": 0,
      "data": "0x",
      "r": "0x16b6101e3f154bc55f622ac4c6dfad6b5527dffb6724347629ef30160b5a3e2b",
      "s": "0x583aff5518a793fddca87e9abff83c22cb34029963251fa490a6b13022e1e723",
      "v": 27,
      "creates": null,
      "raw": "0xf86d80850d23ee12e283015f9094d671e71108bd20f1a8e2a4f73a7449bf8daa840f8835b5007ef0c30000801ba016b6101e3f154bc55f622ac4c6dfad6b5527dffb6724347629ef30160b5a3e2ba0583aff5518a793fddca87e9abff83c22cb34029963251fa490a6b13022e1e723",
      "networkId": 0,
      "chainId": 0
    }
  ]
}