{
  "hash": "0xfddde692dbf1039f08dd9085cdf8a1468681877e0d0b6ed3af5768d105138ad8",
  "parentHash": "0x363e68d667c647582daff8bf38856ee3332a52aa568c89140ac8b1c21dd9474e",
  "number": 93845,
  "timestamp": 1439698915,
  "nonce": "0xa96b1a77b94e758a",
  "difficulty": 3431171191088,
  "gasLimit": {
    "_hex": "0x2fefd8"
  },
  "gasUsed": {
    "_hex": "0xa410"
  },
  "miner": "0xe6A7a1d47ff21B6321162AEA7C6CB457D5476Bca",
  "extraData": "0x476574682f76312e302e312d38326566323666362f6c696e75782f676f312e34",
  "transactions": [
    {
      "hash": "0xb876299ca3ae4fbe616773af907c025ac6520902c5cb6f7d96ca9cc749e0562c",
      "blockHash": "0xfddde692dbf1039f08dd9085cdf8a1468681877e0d0b6ed3af5768d105138ad8",
      "blockNumber": 93845,
      "transactionIndex": 0,
      "confirmations": null,
      "from": "0x886e83d9133F65B9c27A946f699E88e71A888E4C",
      "gasPrice": {
        "_hex": "0xd4f9e96a2"
      },
      "gasLimit": {
        "_hex": "0x15f90"
      },
      "to": "0xCbbdAd70d0ff27254925AD37B5C135EEe1116615",
      "value": {
        "_hex": "0x58d15e176280000"
      },
      "nonce": 0,
      "data": "0x",
      "r": "0x47658637775cdbe870b0a9af6f6ee859e49a54da835c17c529752ccc60a7c785",
      "s": "0x486f7e495f29359788d4beb4120c9a552a182cc39a718b75eff38b9420f6b32c",
      "v": 28,
      "creates": null,
      "raw": "0xf86d80850d4f9e96a283015f9094cbbdad70d0ff27254925ad37b5c135eee111661588058d15e176280000801ca047658637775cdbe870b0a9af6f6ee859e49a54da835c17c529752ccc60a7c785a0486f7e495f29359788d4beb4120c9a552a182cc39a718b75eff38b9420f6b32c",
      "networkId": 0,
      "chainId": 0
    },
    {
      "hash": "0xd6221177a4632afe33580b4b731af50fbd49b63a4f613765cfc9b4f0efaac965",
      "blockHash": "0xfddde692dbf1039f08dd9085cdf8a1468681877e0d0b6ed3af5768d105138ad8",
      "blockNumber": 93845,
      "transactionIndex": 1,
      "confirmations": null,
      "from": "0x8293b65bD915B9FF87F6aDAb479da2e5b6633fDB",
      "gasPrice": {
        "_hex": "0xd1e211e29"
      },
      "gasLimit": {
        "_hex": "0x15f90"
      },
      "to": "0x9f78552704fe7e52cC7C3853534aA2C3cf580D54",
      "value": {
        "_hex": "0x4563918244f40000"
      },
      "nonce": 26,
      "data": "0x",
      "r": "0x43e883de78c5d3d7f55d3223c20282398c04e4ca0871bd891b067f1baec107a8",
      "s": "0x5b9ba9915da3f3567f1f9ded3fd2bc8801dc554d93b06b21e28cc62962909a25",
      "v": 27,
      "creates": null,
      "raw": "0xf86d1a850d1e211e2983015f90949f78552704fe7e52cc7c3853534aa2c3cf580d54884563918244f40000801ba043e883de78c5d3d7f55d3223c20282398c04e4ca0871bd891b067f1baec107a8a05b9ba9915da3f3567f1f9ded3fd2bc8801dc554d93b06b21e28cc62962909a25",
      "networkId": 0,
      "chainId": 0
    }
  ]
}