{
  "hash": "0x7ca80f3c04321046ee78b339e88d31e09656541542051f55cdfe81449322178a",
  "parentHash": "0x56d5732aae8eeabe6e8735090e5c7db2759a5eb9822c55cff10c09264620f28e",
  "number": 84160,
  "timestamp": 1439545731,
  "nonce": "0x7072ee0df3946b9f",
  "difficulty": 2511971477670,
  "gasLimit": {
    "_hex": "0x2fefd8"
  },
  "gasUsed": {
    "_hex": "0x546c"
  },
  "miner": "0x8fF999b381882De74E57Eea693a64a3C678c29A0",
  "extraData": "0xdd809b302e392e34312b2b326233322d524c696e75782f672b2b2f4a4954",
  "transactions": [
    {
      "hash": "0xdd5575a00daa39b8c64722a6662123f6f7bccde95395a92838ae9f5af5348f69",
      "blockHash": "0x7ca80f3c04321046ee78b339e88d31e09656541542051f55cdfe81449322178a",
      "blockNumber": 84160,
      "transactionIndex": 0,
      "confirmations": null,
      "from": "0xdFf4007931786593b229eFe5959F3a4E219E51aF",
      "gasPrice": {
        "_hex": "0x110c8f7d8de"
      },
      "gasLimit": {
        "_hex": "0xc350"
      },
      "to": "0x2910543Af39abA0Cd09dBb2D50200b3E800A63D2",
      "value": {
        "_hex": "0x8ac7230489e80000"
      },
      "nonce": 0,
      "data": "0x454e52383835464b52",
      "r": "0x84c2720e5e1ce5cefc13be4290886b9ed8ac316f3375171ab5d173655801bff3",
      "s": "0x686504d28cf0b375dacc21902905347fc61890c63b972de222a42ba41d278480",
      "v": 28,
      "creates": null,
      "raw": "0xf87680860110c8f7d8de82c350942910543af39aba0cd09dbb2d50200b3e800a63d2888ac7230489e8000089454e52383835464b521ca084c2720e5e1ce5cefc13be4290886b9ed8ac316f3375171ab5d173655801bff3a0686504d28cf0b375dacc21902905347fc61890c63b972de222a42ba41d278480",
      "networkId": 0,
      "chainId": 0
    }
  ]
}