{
  "hash": "0xaebc302db02feb6db912c0f840905019577484fa5fb803398f1e7573e049963f",
  "parentHash": "0xd1bf1ef3843f9f383f8939251566ae40bb0530df6e62f4a76715519332d9ea33",
  "number": 93538,
  "timestamp": 1439692543,
  "nonce": "0xc2b563d043515f7a",
  "difficulty": 3476833097746,
  "gasLimit": {
    "_hex": "0x2fefd8"
  },
  "gasUsed": {
    "_hex": "0x5208"
  },
  "miner": "0x8293b65bD915B9FF87F6aDAb479da2e5b6633fDB",
  "extraData": "0x476574682f76312e302e312f77696e646f77732f676f312e342e32",
  "transactions": [
    {
      "hash": "0x0c98183edeacd377fb92eb4c7fefaca2de0bedf9dfe973ca3ff1bf54d3934edb",
      "blockHash": "0xaebc302db02feb6db912c0f840905019577484fa5fb803398f1e7573e049963f",
      "blockNumber": 93538,
      "transactionIndex": 0,
      "confirmations": null,
      "from": "0xC47Aaa860008be6f65B58c6C6E02a84e666EfE31",
      "gasPrice": {
        "_hex": "0xcfd78a766"
      },
      "gasLimit": {
        "_hex": "0x15f90"
      },
      "to": "0x0F9c57Ebf3A5ba27b543bB64220caA7b4478B04b",
      "value": {
        "_hex": "0x93ce04fe611879836"
      },
      "nonce": 31,
      "data": "0x",
      "r": "0xd9e9192ea65cbc4511222318f6150ea027c5e74fd7be5b6d0c74ae84b6bfefcd",
      "s": "0x2061699e9066183e7992a1d223d27a4af468286fe390ab6ba64801287dbb2fbc",
      "v": 27,
      "creates": null,
      "raw": "0xf86e1f850cfd78a76683015f90940f9c57ebf3a5ba27b543bb64220caa7b4478b04b89093ce04fe611879836801ba0d9e9192ea65cbc4511222318f6150ea027c5e74fd7be5b6d0c74ae84b6bfefcda02061699e9066183e7992a1d223d27a4af468286fe390ab6ba64801287dbb2fbc",
      "networkId": 0,
      "chainId": 0
    }
  ]
}