{
  "hash": "0x3a66beec1b57e9adf0e95c84d75be390c3ecadc7fd8cc06597a03a0c7f7a9603",
  "parentHash": "0x8d32949788c563327546089d5a77aeb3b1ec551cc2e5b83f3b0f7b20eaf8a8b1",
  "number": 59082,
  "timestamp": 1439131738,
  "nonce": "0x33dc9bfa4518c716",
  "difficulty": 1713118180079,
  "gasLimit": {
    "_hex": "0x2fefd8"
  },
  "gasUsed": {
    "_hex": "0x5208"
  },
  "miner": "0xf927a40C8B7F6E07c5af7FA2155B4864a4112B13",
  "extraData": "0x476574682f76312e302e312f6c696e75782f676f312e342e32",
  "transactions": [
    {
      "hash": "0xede23c53d62021f2eedb5ad1e64ed90de82838ca849ca55ac36912014e2539ca",
      "blockHash": "0x3a66beec1b57e9adf0e95c84d75be390c3ecadc7fd8cc06597a03a0c7f7a9603",
      "blockNumber": 59082,
      "transactionIndex": 0,
      "confirmations": null,
      "from": "0xB6AC12CefF0375Da80503AcCa54bf3061Fa917a8",
      "gasPrice": {
        "_hex": "0xd4f07463d"
      },
      "gasLimit": {
        "_hex": "0x15f90"
      },
      "to": "0x5fF827e73C5B866c300b824fe12719a3DD350513",
      "value": {
        "_hex": "0x34bc4fdde27c0000"
      },
      "nonce": 3,
      "data": "0x",
      "r": "0xe56e5679dff3b92cc04c749651eba4cb39bb5120634da910e3a04f5544709dbb",
      "s": "0x627561a8154c10b64f27bc8890d58d8b5008d839d37deff276291cc00ce34c52",
      "v": 27,
      "creates": null,
      "raw": "0xf86d03850d4f07463d83015f90945ff827e73c5b866c300b824fe12719a3dd3505138834bc4fdde27c0000801ba0e56e5679dff3b92cc04c749651eba4cb39bb5120634da910e3a04f5544709dbba0627561a8154c10b64f27bc8890d58d8b5008d839d37deff276291cc00ce34c52",
      "networkId": 0,
      "chainId": 0
    }
  ]
}