{
  "hash": "0x9d4b4913a287a3b9d8a5826a62098d7ecf7f5bc2540cfa8446b04ffc417ca539",
  "parentHash": "0x5cc6d8bf2925c24417495139644a85a73ff382165e9af0239fc6be5ef5f2ce2b",
  "number": 96885,
  "timestamp": 1439747514,
  "nonce": "0xada5ee4302b1cd2b",
  "difficulty": 3726789282540,
  "gasLimit": {
    "_hex": "0x2fefd8"
  },
  "gasUsed": {
    "_hex": "0xa410"
  },
  "miner": "0x0037ce3d4B7f8729C8607D8D0248252Be68202c0",
  "extraData": "0x476574682f76312e302e312f77696e646f77732f676f312e342e32",
  "transactions": [
    {
      "hash": "0xae2776f90858341b52f4f6589ee9e78e72bd2e418db88e48cdec402e72917ae2",
      "blockHash": "0x9d4b4913a287a3b9d8a5826a62098d7ecf7f5bc2540cfa8446b04ffc417ca539",
      "blockNumber": 96885,
      "transactionIndex": 0,
      "confirmations": null,
      "from": "0x70E3e34C0100B1E05700FA699183C82Af7a25Ba0",
      "gasPrice": {
        "_hex": "0xbed8cec0e0"
      },
      "gasLimit": {
        "_hex": "0x1d8a8"
      },
      "to": "0xB1a2B43A7433dd150BB82227eD519Cd6b142d382",
      "value": {
        "_hex": "0x15fb7f9b8c38000"
      },
      "nonce": 1,
      "data": "0x",
      "r": "0xc80e7f71d7e750aae6176ffb18201d29ad84feb6665b8869851e62c9a434878b",
      "s": "0x3e135e37610830beedcb8b8792123235498b157c959d70a0d00ae9cd65d05386",
      "v": 28,
      "creates": null,
      "raw": "0xf86d0185bed8cec0e08301d8a894b1a2b43a7433dd150bb82227ed519cd6b142d38288015fb7f9b8c38000801ca0c80e7f71d7e750aae6176ffb18201d29ad84feb6665b8869851e62c9a434878ba03e135e37610830beedcb8b8792123235498b157c959d70a0d00ae9cd65d05386",
      "networkId": 0,
      "chainId": 0
    },
    {
      "hash": "0x045418e45bb6ab74d26f0c54421a49921d7f7bf1b25bab85e84c604e6da50ca6",
      "blockHash": "0x9d4b4913a287a3b9d8a5826a62098d7ecf7f5bc2540cfa8446b04ffc417ca539",
      "blockNumber": 96885,
      "transactionIndex": 1,
      "confirmations": null,
      "from": "0x7884D470204862a0d1A21122F41ee77430396Ee5",
      "gasPrice": {
        "_hex": "0xd9f86d81c"
      },
      "gasLimit": {
        "_hex": "0x15f90"
      },
      "to": "0x8fC0eD8883D1F471De4001960cEf965241a123de",
      "value": {
        "_hex": "0x10ee4f8941fa0000"
      },
      "nonce": 25,
      "data": "0x",
      "r": "0xc4df21404b7d12500b27887d1889e675ecac7b353d621b5552349c2cd1c91739",
      "s": "0x23d339ddd117bab7a1e2fdfcee8fc60cf3619a58383aaff355396623c02b4d66",
      "v": 27,
      "creates": null,
      "raw": "0xf86d19850d9f86d81c83015f90948fc0ed8883d1f471de4001960cef965241a123de8810ee4f8941fa0000801ba0c4df21404b7d12500b27887d1889e675ecac7b353d621b5552349c2cd1c91739a023d339ddd117bab7a1e2fdfcee8fc60cf3619a58383aaff355396623c02b4d66",
      "networkId": 0,
      "chainId": 0
    }
  ]
}