{
  "hash": "0x207cfe083c2b3995f27e3b6ca57e3001c87c0fa5f25a9eebbd7b3056543b02df",
  "parentHash": "0xebd4f016cf6ea52be3a5acc97f9a2b2a4d3ea0680306e24aabba7cf0962a0de8",
  "number": 86811,
  "timestamp": 1439583143,
  "nonce": "0x08bc6ba176838a6d",
  "difficulty": 2957446129843,
  "gasLimit": {
    "_hex": "0x2fefd8"
  },
  "gasUsed": {
    "_hex": "0x546c"
  },
  "miner": "0xE300c4587D260cE22a677755Db6429B491A4309E",
  "extraData": "0x",
  "transactions": [
    {
      "hash": "0xd75a20d9ec37499484a239985ed6eeae0d61a5b1b288b00799843df34cfc8104",
      "blockHash": "0x207cfe083c2b3995f27e3b6ca57e3001c87c0fa5f25a9eebbd7b3056543b02df",
      "blockNumber": 86811,
      "transactionIndex": 0,
      "confirmations": null,
      "from": "0x39D6caCA22Bccd6A72f87Ee7d6B59e0bde21d719",
      "gasPrice": {
        "_hex": "0x110c8f7d8de"
      },
      "gasLimit": {
        "_hex": "0xc350"
      },
      "to": "0x2910543Af39abA0Cd09dBb2D50200b3E800A63D2",
      "value": {
        "_hex": "0x25758d26ecd2ec0000"
      },
      "nonce": 3,
      "data": "0x454e30594e4e515147",
      "r": "0x74f50e13b5380ecac81f43549f230d48aaa71c3026fb058e6fe65f5a1bae1cbc",
      "s": "0xd41934b463b7c4200d7a45c107862a838c623ce6e019cca90b93854e993c36bf",
      "v": 27,
      "creates": null,
      "raw": "0xf87703860110c8f7d8de82c350942910543af39aba0cd09dbb2d50200b3e800a63d28925758d26ecd2ec000089454e30594e4e5151471ba074f50e13b5380ecac81f43549f230d48aaa71c3026fb058e6fe65f5a1bae1cbca0d41934b463b7c4200d7a45c107862a838c623ce6e019cca90b93854e993c36bf",
      "networkId": 0,
      "chainId": 0
    }
  ]
}