{
  "hash": "0xd9603cce706a8d486d53d225a60eb7906c56bb8b9453c8adf27aa1bd20e784b7",
  "parentHash": "0x55be22fc5eb0ba6926f21efd3b08a1c4816cf973027593ec46affb09979ccd1c",
  "number": 57089,
  "timestamp": 1439097271,
  "nonce": "0x2f87efa6bdae25fd",
  "difficulty": 1721071948923,
  "gasLimit": {
    "_hex": "0x2fefd8"
  },
  "gasUsed": {
    "_hex": "0x5208"
  },
  "miner": "0xa50ec0D39fa913E62f1Bae7074E6F36caA71855b",
  "extraData": "0x",
  "transactions": [
    {
      "hash": "0xca85f2109aa7b4953e4025f1f1b8d03ff80bac56042f710fd114f37dec9ec3d3",
      "blockHash": "0xd9603cce706a8d486d53d225a60eb7906c56bb8b9453c8adf27aa1bd20e784b7",
      "blockNumber": 57089,
      "transactionIndex": 0,
      "confirmations": null,
      "from": "0x120A270bbC009644e35F0bB6ab13f95b8199c4ad",
      "gasPrice": {
        "_hex": "0xdf64af058"
      },
      "gasLimit": {
        "_hex": "0x15f90"
      },
      "to": "0x5f5C11f7Debb3f47866370D26364908AdA9c635e",
      "value": {
        "_hex": "0x2b5e3af16b1880000"
      },
      "nonce": 36,
      "data": "0x",
      "r": "0xfd618f76789782fc851b7f5351545d0acf15d6ba8aebc5d78be16d153b242251",
      "s": "0x370ac32f79d01c38a83a4511b4943ce04425caa725c2b67faabb5a73cd64a71d",
      "v": 28,
      "creates": null,
      "raw": "0xf86e24850df64af05883015f90945f5c11f7debb3f47866370d26364908ada9c635e8902b5e3af16b1880000801ca0fd618f76789782fc851b7f5351545d0acf15d6ba8aebc5d78be16d153b242251a0370ac32f79d01c38a83a4511b4943ce04425caa725c2b67faabb5a73cd64a71d",
      "networkId": 0,
      "chainId": 0
    }
  ]
}