{
  "hash": "0xb929983eeea09a1fd4ad5558640cc493741958e2b2434a185827005227b2ead2",
  "parentHash": "0x721e8899a48e38086cab155835834f76ea1119f4ee6da3866cf13e7894241c31",
  "number": 90426,
  "timestamp": 1439639861,
  "nonce": "0xc83d338940ac0e93",
  "difficulty": 3328585747903,
  "gasLimit": {
    "_hex": "0x2fefd8"
  },
  "gasUsed": {
    "_hex": "0x5208"
  },
  "miner": "0xBF26bdEBFe8e9CCe5f9868Ccb198d03F3de44055",
  "extraData": "0x476574682f76312e302e312f6c696e75782f676f312e342e32",
  "transactions": [
    {
      "hash": "0x54ab247b19dee49773038fce41d2d7b09dbb4c05f6a40dc91d70e8e832e2a936",
      "blockHash": "0xb929983eeea09a1fd4ad5558640cc493741958e2b2434a185827005227b2ead2",
      "blockNumber": 90426,
      "transactionIndex": 0,
      "confirmations": null,
      "from": "0x4556CB03aD3E0c1104e66065A9A0C20bD13163ac",
      "gasPrice": {
        "_hex": "0xcea4060ea"
      },
      "gasLimit": {
        "_hex": "0x15f90"
      },
      "to": "0x01Ad0ACFf478127D9d702B1A13599D706cB759b1",
      "value": {
        "_hex": "0x38d7ea4c68000"
      },
      "nonce": 1,
      "data": "0x",
      "r": "0xdb460ec53ecd366509c66d7326441bbc543569d2b2a944d356938f4d487c2df2",
      "s": "0x149fb2270036c3fd1d82d979735ae1f27ff3170bd297030de8cd56f12b544144",
      "v": 27,
      "creates": null,
      "raw": "0xf86c01850cea4060ea83015f909401ad0acff478127d9d702b1a13599d706cb759b187038d7ea4c68000801ba0db460ec53ecd366509c66d7326441bbc543569d2b2a944d356938f4d487c2df2a0149fb2270036c3fd1d82d979735ae1f27ff3170bd297030de8cd56f12b544144",
      "networkId": 0,
      "chainId": 0
    }
  ]
}