{
  "hash": "0x39d85287b3d3cf1b20f201a5fc08a648a7ff670aaf34ccea168924a77598d803",
  "parentHash": "0xbbad6ff4c6115ae42ba7135803a39bc780179f63bff8416c8817e777c93491fb",
  "number": 67955,
  "timestamp": 1439280188,
  "nonce": "0xdfa0625af352fcfb",
  "difficulty": 1949608468382,
  "gasLimit": {
    "_hex": "0x2fefd8"
  },
  "gasUsed": {
    "_hex": "0xa674"
  },
  "miner": "0x0eDEd3DA479d0beF8eeC92A76644D3f4E3C177f7",
  "extraData": "0x476574682f76312e302e312f6c696e75782f676f312e342e32",
  "transactions": [
    {
      "hash": "0xc116a7e5107c7e1e8f2eee44d22f5bc97a945f48b74e255767cf30b8e33c0a72",
      "blockHash": "0x39d85287b3d3cf1b20f201a5fc08a648a7ff670aaf34ccea168924a77598d803",
      "blockNumber": 67955,
      "transactionIndex": 0,
      "confirmations": null,
      "from": "0x179A825e0F1f6E985309668465CfFED436f6Aea9",
      "gasPrice": {
        "_hex": "0x110c8f7d8de"
      },
      "gasLimit": {
        "_hex": "0xc350"
      },
      "to": "0x2910543Af39abA0Cd09dBb2D50200b3E800A63D2",
      "value": {
        "_hex": "0x7ce66c50e2840000"
      },
      "nonce": 1,
      "data": "0x454e41514456454152",
      "r": "0x55ba1648f110b8f0dff5f6ca7934566626e881dfa31fe2693d83fdd48279be8b",
      "s": "0x0989101c8458b88bd4ffc8d8bacae58655abe429b6eb61e5c52d44f9d927a9d5",
      "v": 27,
      "creates": null,
      "raw": "0xf87601860110c8f7d8de82c350942910543af39aba0cd09dbb2d50200b3e800a63d2887ce66c50e284000089454e415144564541521ba055ba1648f110b8f0dff5f6ca7934566626e881dfa31fe2693d83fdd48279be8ba00989101c8458b88bd4ffc8d8bacae58655abe429b6eb61e5c52d44f9d927a9d5",
      "networkId": 0,
      "chainId": 0
    },
    {
      "hash": "0xbd1ca78f76fef0ffc3cc6031855b2d6265f21b7cc32b96aabd210ec34479e16f",
      "blockHash": "0x39d85287b3d3cf1b20f201a5fc08a648a7ff670aaf34ccea168924a77598d803",
      "blockNumber": 67955,
      "transactionIndex": 1,
      "confirmations": null,
      "from": "0xb6Ad95318E9C1727be55974BBBBAcf7196923E4c",
      "gasPrice": {
        "_hex": "0x10e43e3b6f8"
      },
      "gasLimit": {
        "_hex": "0x15f90"
      },
      "to": "0x40B9b889A21Ff1534d018D71Dc406122EBcf3F5A",
      "value": {
        "_hex": "0xde0b6b3a7640000"
      },
      "nonce": 0,
      "data": "0x",
      "r": "0xde56679921531b169868a147e91ec97e9c571117850422850434e3471e60f3f2",
      "s": "0x4bdfbc96c4075dc0ccb6620ce4479ea8d0cb829400086c33f88afbec31659d1a",
      "v": 27,
      "creates": null,
      "raw": "0xf86e8086010e43e3b6f883015f909440b9b889a21ff1534d018d71dc406122ebcf3f5a880de0b6b3a7640000801ba0de56679921531b169868a147e91ec97e9c571117850422850434e3471e60f3f2a04bdfbc96c4075dc0ccb6620ce4479ea8d0cb829400086c33f88afbec31659d1a",
      "networkId": 0,
      "chainId": 0
    }
  ]
}