{
  "hash": "0xbcf17bbd434f88bb0caed71f3cb3bc4ebe00d4258224e1306cf6e83251b724d0",
  "parentHash": "0xc65c1bed83ab2f1eebd6e2bf0a7ad1b2df05dca8032cf9c7a5d1c405aa426766",
  "number": 118411,
  "timestamp": 1440125639,
  "nonce": "0xa58fab5c7fdbedbe",
  "difficulty": 4282695302922,
  "gasLimit": {
    "_hex": "0x2fefd8"
  },
  "gasUsed": {
    "_hex": "0x54e3"
  },
  "miner": "0x70137010922f2fC2964b3792907F79FBB75fEbe8",
  "extraData": "0xd783010003844765746887676f312e342e32856c696e7578",
  "transactions": [
    {
      "hash": "0xd99113143e59c719aa0e34c33e22a021cbac7d449373060369bb6a1f7342d55f",
      "blockHash": "0xbcf17bbd434f88bb0caed71f3cb3bc4ebe00d4258224e1306cf6e83251b724d0",
      "blockNumber": 118411,
      "transactionIndex": 0,
      "confirmations": null,
      "from": "0x001aA0CB9c5fA098a119070024460feBb868742D",
      "gasPrice": {
        "_hex": "0xba43b7400"
      },
      "gasLimit": {
        "_hex": "0x186a0"
      },
      "to": "0xE28e72FCf78647ADCe1F1252F240bbfaebD63BcC",
      "value": {
        "_hex": "0x93"
      },
      "nonce": 0,
      "data": "0x0000000000000000000000000000000000000000000000000000000045466f3a",
      "r": "0x5b5b26b9c4eecb671f9174b8536e26e5ef21754545177feaa30fcb37da787154",
      "s": "0x213ed796d0479460ed38df0f476145ab48a3e14a383df982e0b8cb85f7c72507",
      "v": 27,
      "creates": null,
      "raw": "0xf88680850ba43b7400830186a094e28e72fcf78647adce1f1252f240bbfaebd63bcc8193a00000000000000000000000000000000000000000000000000000000045466f3a1ba05b5b26b9c4eecb671f9174b8536e26e5ef21754545177feaa30fcb37da787154a0213ed796d0479460ed38df0f476145ab48a3e14a383df982e0b8cb85f7c72507",
      "networkId": 0,
      "chainId": 0
    }
  ]
}