{
  "hash": "0x5ec965ac86ba45d3d7f45a6c2b1ad9f05cbaf073036778645f748c78462ac711",
  "parentHash": "0xf4908a4de20e27cd73e07f0cde640bc46426aad509b86eff7f266eeed9a7889b",
  "number": 61526,
  "timestamp": 1439173725,
  "nonce": "0x6f8eafded8bc478e",
  "difficulty": 1742989924429,
  "gasLimit": {
    "_hex": "0x2fefd8"
  },
  "gasUsed": {
    "_hex": "0x5208"
  },
  "miner": "0xeB1325C8D9d3ea8D74aC11F4B00F1B2367686319",
  "extraData": "0x476574682f76312e302e312f77696e646f77732f676f312e342e32",
  "transactions": [
    {
      "hash": "0x2ecd455518ec79fcdd45a2c5a271ca5e63a6a6d67bd0cc8df3541e0f5806e2e0",
      "blockHash": "0x5ec965ac86ba45d3d7f45a6c2b1ad9f05cbaf073036778645f748c78462ac711",
      "blockNumber": 61526,
      "transactionIndex": 0,
      "confirmations": null,
      "from": "0x1308A2e95c0160B90803ddCA9B9a5bb55E416d79",
      "gasPrice": {
        "_hex": "0xe8d4a51000"
      },
      "gasLimit": {
        "_hex": "0x15f90"
      },
      "to": "0x025c3B43d57E72D2150E14B2B0c6D923FbFC0474",
      "value": {
        "_hex": "0x3635c9adc5dea00000"
      },
      "nonce": 86,
      "data": "0x",
      "r": "0x1ff9a140df2bba4c376254de2560422782ef1a57f742777e41582bf5950fecb4",
      "s": "0x18c17379e3b04f8c79584760b31cd280eb02bad6c4bbbd8cf1ff556d6c22d225",
      "v": 28,
      "creates": null,
      "raw": "0xf86e5685e8d4a5100083015f9094025c3b43d57e72d2150e14b2b0c6d923fbfc0474893635c9adc5dea00000801ca01ff9a140df2bba4c376254de2560422782ef1a57f742777e41582bf5950fecb4a018c17379e3b04f8c79584760b31cd280eb02bad6c4bbbd8cf1ff556d6c22d225",
      "networkId": 0,
      "chainId": 0
    }
  ]
}