{
  "hash": "0x6895249bf059e07d22641e7e5fff347f33bdecbc4bf5b827e8a7828bc17aaae8",
  "parentHash": "0xd24a913a93fd670b4e3fdc03735edb9d6dba902c2b4e96e99b328fd1c686752f",
  "number": 111585,
  "timestamp": 1439992796,
  "nonce": "0x937fbe2a33d241af",
  "difficulty": 4430885296984,
  "gasLimit": {
    "_hex": "0x2fefd8"
  },
  "gasUsed": {
    "_hex": "0xf618"
  },
  "miner": "0xf927a40C8B7F6E07c5af7FA2155B4864a4112B13",
  "extraData": "0x",
  "transactions": [
    {
      "hash": "0x7b37073496a6a69e82c85ff1af3c4b3092b1ed4d13a278e73323def6b8344fa1",
      "blockHash": "0x6895249bf059e07d22641e7e5fff347f33bdecbc4bf5b827e8a7828bc17aaae8",
      "blockNumber": 111585,
      "transactionIndex": 0,
      "confirmations": null,
      "from": "0x32Be343B94f860124dC4fEe278FDCBD38C102D88",
      "gasPrice": {
        "_hex": "0xcdab1b00b"
      },
      "gasLimit": {
        "_hex": "0x5208"
      },
      "to": "0x082742C7B5293378F2DC45cE2B828022e2A475f0",
      "value": {
        "_hex": "0x5150ae84a8cdf00000"
      },
      "nonce": 1309,
      "data": "0x",
      "r": "0xf68cc5a3b1e48f90b6ec87176849a841ae08b8e64f8c469893241a8120a3e857",
      "s": "0x4247b6260e95c2dc6d002b4ee5156eabca575b3a376df23f9f6e9103ab0c4439",
      "v": 27,
      "creates": null,
      "raw": "0xf86f82051d850cdab1b00b82520894082742c7b5293378f2dc45ce2b828022e2a475f0895150ae84a8cdf00000801ba0f68cc5a3b1e48f90b6ec87176849a841ae08b8e64f8c469893241a8120a3e857a04247b6260e95c2dc6d002b4ee5156eabca575b3a376df23f9f6e9103ab0c4439",
      "networkId": 0,
      "chainId": 0
    },
    {
      "hash": "0x8f77a3c9a5ad0c37b828c52d388c0c5ac6bb2f27e799c88ce369d146cc67d854",
      "blockHash": "0x6895249bf059e07d22641e7e5fff347f33bdecbc4bf5b827e8a7828bc17aaae8",
      "blockNumber": 111585,
      "transactionIndex": 1,
      "confirmations": null,
      "from": "0x32Be343B94f860124dC4fEe278FDCBD38C102D88",
      "gasPrice": {
        "_hex": "0xcdab1b00b"
      },
      "gasLimit": {
        "_hex": "0x5208"
      },
      "to": "0x4A2D52D0898f560E53cdf4585A034517c06d0544",
      "value": {
        "_hex": "0x27e06449b554cc00"
      },
      "nonce": 1310,
      "data": "0x",
      "r": "0x56e02a662b86efb53675d8b833880ed2015d1476ec1e208b7711b5f52216ba7e",
      "s": "0x4693c280a9a0d746b8b458535b26d178502c83591a9a960f4a481d3fe58d08d5",
      "v": 28,
      "creates": null,
      "raw": "0xf86e82051e850cdab1b00b825208944a2d52d0898f560e53cdf4585a034517c06d05448827e06449b554cc00801ca056e02a662b86efb53675d8b833880ed2015d1476ec1e208b7711b5f52216ba7ea04693c280a9a0d746b8b458535b26d178502c83591a9a960f4a481d3fe58d08d5",
      "networkId": 0,
      "chainId": 0
    },
    {
      "hash": "0x93d4bfd92fa286f9ff9b3be53e87bdae1a3ee6fbd9d4a7ea3be9d379b902a870",
      "blockHash": "0x6895249bf059e07d22641e7e5fff347f33bdecbc4bf5b827e8a7828bc17aaae8",
      "blockNumber": 111585,
      "transactionIndex": 2,
      "confirmations": null,
      "from": "0x32Be343B94f860124dC4fEe278FDCBD38C102D88",
      "gasPrice": {
        "_hex": "0xcdab1b00b"
      },
      "gasLimit": {
        "_hex": "0x5208"
      },
      "to": "0x5A89048Fb5710E89dc5973652dAF900aC9018d26",
      "value": {
        "_hex": "0x13fbe85edc90000"
      },
      "nonce": 1311,
      "data": "0x",
      "r": "0x47b3cb4583e13225aa417aba77b41a1a6e18ab378df5e1cf441b3dcf7c683f7e",
      "s": "0x75fccc47b9542f3ecc87c244eb02114b18c533d851ebeb7074f058b954cba818",
      "v": 27,
      "creates": null,
      "raw": "0xf86e82051f850cdab1b00b825208945a89048fb5710e89dc5973652daf900ac9018d2688013fbe85edc90000801ba047b3cb4583e13225aa417aba77b41a1a6e18ab378df5e1cf441b3dcf7c683f7ea075fccc47b9542f3ecc87c244eb02114b18c533d851ebeb7074f058b954cba818",
      "networkId": 0,
      "chainId": 0
    }
  ]
}