{
  "hash": "0x99f10af6a25ed754d141f2529b0b005f1759098f69760a2c4f6f07043ff7b29c",
  "parentHash": "0x88e29e64469a3a0b98a0fba05338033648c8ede27d0f1925a0484d6cdc3e346f",
  "number": 88659,
  "timestamp": 1439611437,
  "nonce": "0xcaf73fe259e5cdb3",
  "difficulty": 3228431563048,
  "gasLimit": {
    "_hex": "0x2fefd8"
  },
  "gasUsed": {
    "_hex": "0xf618"
  },
  "miner": "0xC603Ab5ef41fC61AA8b76bEddb09e3Cfcbb174BD",
  "extraData": "0x476574682f76312e302e312f77696e646f77732f676f312e342e32",
  "transactions": [
    {
      "hash": "0x54e8360dae40dd6bdf596f387f63eee6b0ce5381d8206031f9507f2d21264886",
      "blockHash": "0x99f10af6a25ed754d141f2529b0b005f1759098f69760a2c4f6f07043ff7b29c",
      "blockNumber": 88659,
      "transactionIndex": 0,
      "confirmations": null,
      "from": "0xE12517204a15E890f12755207271102F4800A0c4",
      "gasPrice": {
        "_hex": "0xcc4a98201"
      },
      "gasLimit": {
        "_hex": "0x5208"
      },
      "to": "0x32Be343B94f860124dC4fEe278FDCBD38C102D88",
      "value": {
        "_hex": "0x340a6c66206038000"
      },
      "nonce": 10,
      "data": "0x",
      "r": "0x3031df0b6e46c407552b211e4ce188688699077ad12882f92e6f4da88766565e",
      "s": "0x58169065803af09ad8e1e6704e14b59eaec6d26bb5a513c91e36c83eec3b9587",
      "v": 27,
      "creates": null,
      "raw": "0xf86d0a850cc4a982018252089432be343b94f860124dc4fee278fdcbd38c102d88890340a6c66206038000801ba03031df0b6e46c407552b211e4ce188688699077ad12882f92e6f4da88766565ea058169065803af09ad8e1e6704e14b59eaec6d26bb5a513c91e36c83eec3b9587",
      "networkId": 0,
      "chainId": 0
    },
    {
      "hash": "0x1227522a091f710bb4da1f779fba8fcf53fc314524936748f8f7e1f85098a0a2",
      "blockHash": "0x99f10af6a25ed754d141f2529b0b005f1759098f69760a2c4f6f07043ff7b29c",
      "blockNumber": 88659,
      "transactionIndex": 1,
      "confirmations": null,
      "from": "0x6d921977dEFE5f4e0682CA512De1D07b1f4802E1",
      "gasPrice": {
        "_hex": "0xcc4a98201"
      },
      "gasLimit": {
        "_hex": "0x5208"
      },
      "to": "0x32Be343B94f860124dC4fEe278FDCBD38C102D88",
      "value": {
        "_hex": "0x1ae32085cd817e000"
      },
      "nonce": 17,
      "data": "0x",
      "r": "0x64759e9e2beae6582de47b68f779fdbb7ade3d7d9cb2166658814ac1c5896643",
      "s": "0x4936b20396f3e7518c8f2ab2e0955fa01116d8a1d8c61b1d94a1339aef978cf7",
      "v": 27,
      "creates": null,
      "raw": "0xf86d11850cc4a982018252089432be343b94f860124dc4fee278fdcbd38c102d888901ae32085cd817e000801ba064759e9e2beae6582de47b68f779fdbb7ade3d7d9cb2166658814ac1c5896643a04936b20396f3e7518c8f2ab2e0955fa01116d8a1d8c61b1d94a1339aef978cf7",
      "networkId": 0,
      "chainId": 0
    },
    {
      "hash": "0x19a55cc37501cbd54f1ac0b0fe251da324a660293c99e72f20cc75dff61bf6d9",
      "blockHash": "0x99f10af6a25ed754d141f2529b0b005f1759098f69760a2c4f6f07043ff7b29c",
      "blockNumber": 88659,
      "transactionIndex": 2,
      "confirmations": null,
      "from": "0xe7cfdAcb398c319799E001D6A0F5d07B9187Ae16",
      "gasPrice": {
        "_hex": "0xcc4a98201"
      },
      "gasLimit": {
        "_hex": "0x5208"
      },
      "to": "0x32Be343B94f860124dC4fEe278FDCBD38C102D88",
      "value": {
        "_hex": "0x2a7ed27ceb5c7a000"
      },
      "nonce": 1,
      "data": "0x",
      "r": "0x719aaef2a4fc65254b92f418fc65e24361d6b7d1c5c8f1aefaf9f9907c20a00f",
      "s": "0x62e1718d76388eca8795718c41eed9a1679b1f75f005a4960984ed2e54173b36",
      "v": 28,
      "creates": null,
      "raw": "0xf86d01850cc4a982018252089432be343b94f860124dc4fee278fdcbd38c102d888902a7ed27ceb5c7a000801ca0719aaef2a4fc65254b92f418fc65e24361d6b7d1c5c8f1aefaf9f9907c20a00fa062e1718d76388eca8795718c41eed9a1679b1f75f005a4960984ed2e54173b36",
      "networkId": 0,
      "chainId": 0
    }
  ]
}