{
  "hash": "0xde270a0fd6da125079e378621564b435777d15acd88d8e3fedf9da86c950f1f8",
  "parentHash": "0x1badb568815077359898de9abd98376888b7990010064c27d7f0b35fb199a028",
  "number": 70292,
  "timestamp": 1439317673,
  "nonce": "0x5788dfce7e143eda",
  "difficulty": 2129162879319,
  "gasLimit": {
    "_hex": "0x2fefd8"
  },
  "gasUsed": {
    "_hex": "0x5208"
  },
  "miner": "0x79ca0E269c8949Ee9a58aB594a2DbbeFb230edF3",
  "extraData": "0x",
  "transactions": [
    {
      "hash": "0xeee99e0d43dd5d6904783181ff84650ba897bef691a0c993935f3e5313b5b7e4",
      "blockHash": "0xde270a0fd6da125079e378621564b435777d15acd88d8e3fedf9da86c950f1f8",
      "blockNumber": 70292,
      "transactionIndex": 0,
      "confirmations": null,
      "from": "0x919a0748E207c101103e6b771b7c3b7bd9c66015",
      "gasPrice": {
        "_hex": "0xcb7f0f2c8"
      },
      "gasLimit": {
        "_hex": "0x5208"
      },
      "to": "0x32Be343B94f860124dC4fEe278FDCBD38C102D88",
      "value": {
        "_hex": "0xad848586eae000"
      },
      "nonce": 0,
      "data": "0x",
      "r": "0x62ca2405c7c8588f6a9adb5d2fe96f6ba13059433df989eabc449e0a879aed9a",
      "s": "0x5a3524a8d08bfb40ef19cdb7d63247ea12c047925e475e1db629fc563bc4dd66",
      "v": 27,
      "creates": null,
      "raw": "0xf86b80850cb7f0f2c88252089432be343b94f860124dc4fee278fdcbd38c102d8887ad848586eae000801ba062ca2405c7c8588f6a9adb5d2fe96f6ba13059433df989eabc449e0a879aed9aa05a3524a8d08bfb40ef19cdb7d63247ea12c047925e475e1db629fc563bc4dd66",
      "networkId": 0,
      "chainId": 0
    }
  ]
}