{
  "hash": "0xee94afb4707b8ebd91867b56197780c426583d0b244aedcb1bdc9e99a3aa9a1e",
  "parentHash": "0xcf10b1a09855ff1212f9fb61cf1f793e069b10a186b1282cf2b37bc3b43dad85",
  "number": 80004,
  "timestamp": 1439478631,
  "nonce": "0x018ba79d6139fcf3",
  "difficulty": 2349448242485,
  "gasLimit": {
    "_hex": "0x2fefd8"
  },
  "gasUsed": {
    "_hex": "0x5208"
  },
  "miner": "0xbb7B8287f3F0a933474a79eAe42CBCa977791171",
  "extraData": "0x476574682f4c5649562f76312e302e312f6c696e75782f676f312e342e32",
  "transactions": [
    {
      "hash": "0x13e564069108c9426c3ebd1db2603e522291a37a71df895886cb053fb794fe4f",
      "blockHash": "0xee94afb4707b8ebd91867b56197780c426583d0b244aedcb1bdc9e99a3aa9a1e",
      "blockNumber": 80004,
      "transactionIndex": 0,
      "confirmations": null,
      "from": "0xaC49eeb6a55aF554D86d37b4A4eA7940010866E1",
      "gasPrice": {
        "_hex": "0xd34820919"
      },
      "gasLimit": {
        "_hex": "0x15f90"
      },
      "to": "0x1595C4fa4989C67D937ae55EF3BF5c37a6f522f9",
      "value": {
        "_hex": "0x22b1c8c1227a0000"
      },
      "nonce": 6,
      "data": "0x",
      "r": "0x457e485b546f9278fa0fd926407037bb40bfb1068cec1c914637ecd5ef081aa2",
      "s": "0x4428f5383c1af1e59bd4b93f001930ba72d0942a61a22bd07e6d6fa0ce2b21da",
      "v": 27,
      "creates": null,
      "raw": "0xf86d06850d3482091983015f90941595c4fa4989c67d937ae55ef3bf5c37a6f522f98822b1c8c1227a0000801ba0457e485b546f9278fa0fd926407037bb40bfb1068cec1c914637ecd5ef081aa2a04428f5383c1af1e59bd4b93f001930ba72d0942a61a22bd07e6d6fa0ce2b21da",
      "networkId": 0,
      "chainId": 0
    }
  ]
}