{
  "hash": "0xe4b08b751a164ca5f05be1828212387b07a9f68b01be5a0e5c757cae2e91e82a",
  "parentHash": "0x2804f2114496690d2022d273f512b15f3590891481266aca56bb4fa8f1bab5f1",
  "number": 46541,
  "timestamp": 1438924804,
  "nonce": "0xebd19dc4bf825a34",
  "difficulty": 1465351806740,
  "gasLimit": {
    "_hex": "0x672d"
  },
  "gasUsed": {
    "_hex": "0x5208"
  },
  "miner": "0x6dED38803DA575897de5d51b7AEF3b86f35945A1",
  "extraData": "0x476574682f76312e302e312f6c696e75782f676f312e342e32",
  "transactions": [
    {
      "hash": "0x17e032344507c8c41e03b638a982257b2f77d0021572564ce73a711be516566a",
      "blockHash": "0xe4b08b751a164ca5f05be1828212387b07a9f68b01be5a0e5c757cae2e91e82a",
      "blockNumber": 46541,
      "transactionIndex": 0,
      "confirmations": null,
      "from": "0x7Cd05927fE0AA3b6552db959e7539aE28dCBBDcf",
      "gasPrice": {
        "_hex": "0x74630f818d"
      },
      "gasLimit": {
        "_hex": "0x5208"
      },
      "to": "0x32Be343B94f860124dC4fEe278FDCBD38C102D88",
      "value": {
        "_hex": "0xcbd226b8cf28c0000"
      },
      "nonce": 1,
      "data": "0x",
      "r": "0x69114698041b091cb21e93a50ce3811fb426da6b0d1655ce384e749df0dae497",
      "s": "0x17856dfb80c7371f703a8229fa11e917f01be328ffbd241bd286a43bfbcc037a",
      "v": 28,
      "creates": null,
      "raw": "0xf86d018574630f818d8252089432be343b94f860124dc4fee278fdcbd38c102d88890cbd226b8cf28c0000801ca069114698041b091cb21e93a50ce3811fb426da6b0d1655ce384e749df0dae497a017856dfb80c7371f703a8229fa11e917f01be328ffbd241bd286a43bfbcc037a",
      "networkId": 0,
      "chainId": 0
    }
  ]
}