{
  "hash": "0xd21804c70df678a1e184204d0431570629a36b5cdf6eb3d84a208e63b6934b1a",
  "parentHash": "0x2ec81db3656b5e7f58dd4984f7c3213685a4edf02a8a9bf9a293be8422ac1a71",
  "number": 82981,
  "timestamp": 1439527927,
  "nonce": "0xcf1125e82c1f6bed",
  "difficulty": 2412542317309,
  "gasLimit": {
    "_hex": "0x2fefd8"
  },
  "gasUsed": {
    "_hex": "0x546c"
  },
  "miner": "0xe6A7a1d47ff21B6321162AEA7C6CB457D5476Bca",
  "extraData": "0x476574682f76312e302e312d38326566323666362f6c696e75782f676f312e34",
  "transactions": [
    {
      "hash": "0x3abdf26028889a14b5969ed46895b7515428954575852f6df542baace63d9954",
      "blockHash": "0xd21804c70df678a1e184204d0431570629a36b5cdf6eb3d84a208e63b6934b1a",
      "blockNumber": 82981,
      "transactionIndex": 0,
      "confirmations": null,
      "from": "0xD0E35E047646E759F4517093D6408642517F084d",
      "gasPrice": {
        "_hex": "0x110c8f7d8de"
      },
      "gasLimit": {
        "_hex": "0xc350"
      },
      "to": "0x2910543Af39abA0Cd09dBb2D50200b3E800A63D2",
      "value": {
        "_hex": "0x29a2241af62c0000"
      },
      "nonce": 1,
      "data": "0x454e43473852434738",
      "r": "0xad2ca91315ab60c2da699b38b16018f508f67071b715f68a6bc092194ce0b85d",
      "s": "0x66ed10dc82da10483af548bcbe7bac1e38a5b283b7e2269c1e7c2a63b4f4ea62",
      "v": 28,
      "creates": null,
      "raw": "0xf87601860110c8f7d8de82c350942910543af39aba0cd09dbb2d50200b3e800a63d28829a2241af62c000089454e434738524347381ca0ad2ca91315ab60c2da699b38b16018f508f67071b715f68a6bc092194ce0b85da066ed10dc82da10483af548bcbe7bac1e38a5b283b7e2269c1e7c2a63b4f4ea62",
      "networkId": 0,
      "chainId": 0
    }
  ]
}