{
  "hash": "0xb119053054ac4b5d1a521e7a421414fd36b4d2cbca95298804b0e40966571224",
  "parentHash": "0x508a0a0cdb9cfdc7cf257a2f621aca58669320992128b7536b0366030e8ee587",
  "number": 103157,
  "timestamp": 1439848625,
  "nonce": "0x1d70e24db5676959",
  "difficulty": 4191101016785,
  "gasLimit": {
    "_hex": "0x2fefd8"
  },
  "gasUsed": {
    "_hex": "0x5208"
  },
  "miner": "0x47ff6576639c2e94762eA5443978D7681C0E78DC",
  "extraData": "0x476574682f76312e302e312f6c696e75782f676f312e342e32",
  "transactions": [
    {
      "hash": "0xae48c93bec00b4fbfb0e983dfdda7f857b420dd3362c67ccb25ac18f3da9b9e2",
      "blockHash": "0xb119053054ac4b5d1a521e7a421414fd36b4d2cbca95298804b0e40966571224",
      "blockNumber": 103157,
      "transactionIndex": 0,
      "confirmations": null,
      "from": "0x120A270bbC009644e35F0bB6ab13f95b8199c4ad",
      "gasPrice": {
        "_hex": "0xcb473f90f"
      },
      "gasLimit": {
        "_hex": "0x3d090"
      },
      "to": "0x60d85a32126130b225913C23dF4e5EF8b759fA09",
      "value": {
        "_hex": "0x1b1ae4d6e2ef500000"
      },
      "nonce": 712,
      "data": "0x",
      "r": "0x1426286c38e50e1ff4cba9e0ec113ed88d8d0a7a6712552065eeb2771215596c",
      "s": "0x251c3f2379ef899297af3f220c6b61c63b4a20b44d80941cf5c7e79736213fd3",
      "v": 27,
      "creates": null,
      "raw": "0xf8708202c8850cb473f90f8303d0909460d85a32126130b225913c23df4e5ef8b759fa09891b1ae4d6e2ef500000801ba01426286c38e50e1ff4cba9e0ec113ed88d8d0a7a6712552065eeb2771215596ca0251c3f2379ef899297af3f220c6b61c63b4a20b44d80941cf5c7e79736213fd3",
      "networkId": 0,
      "chainId": 0
    }
  ]
}