{
  "hash": "0xa61cf6e21ab819aee569b03e6eb82f43590705e043c4626d57ba7f2b5f1a55af",
  "parentHash": "0xfe63cfb4d75e1aca51562f7b4b17d70da0862270eaea4f511547ce8719e35fd9",
  "number": 113402,
  "timestamp": 1440022929,
  "nonce": "0x4985a1c96d97f192",
  "difficulty": 4466850543978,
  "gasLimit": {
    "_hex": "0x2fefd8"
  },
  "gasUsed": {
    "_hex": "0xf87c"
  },
  "miner": "0x7E6930B63D03e88F5928C5cd6ee3FCee4D714F7F",
  "extraData": "0x",
  "transactions": [
    {
      "hash": "0x664c8c0392e83fac94438d55976eefe39a190950716e0752297489cf5758ecc0",
      "blockHash": "0xa61cf6e21ab819aee569b03e6eb82f43590705e043c4626d57ba7f2b5f1a55af",
      "blockNumber": 113402,
      "transactionIndex": 0,
      "confirmations": null,
      "from": "0xc239aBdfAe3e9Af5457F52Ed2B91FD0aB4d9C700",
      "gasPrice": {
        "_hex": "0x110c8f7d8de"
      },
      "gasLimit": {
        "_hex": "0xc350"
      },
      "to": "0x2910543Af39abA0Cd09dBb2D50200b3E800A63D2",
      "value": {
        "_hex": "0x1aff23697ba0880000"
      },
      "nonce": 2,
      "data": "0x454e33435043594430",
      "r": "0x4a0247a5e893df0335b7cf328b3cb93883913fbb3f530fe6d32fa15a181ef9e8",
      "s": "0xa98246b8c9eaeebba249866d127c676bb0fae1b441b34f0e2eac01bac5eb56e5",
      "v": 27,
      "creates": null,
      "raw": "0xf87702860110c8f7d8de82c350942910543af39aba0cd09dbb2d50200b3e800a63d2891aff23697ba088000089454e334350435944301ba04a0247a5e893df0335b7cf328b3cb93883913fbb3f530fe6d32fa15a181ef9e8a0a98246b8c9eaeebba249866d127c676bb0fae1b441b34f0e2eac01bac5eb56e5",
      "networkId": 0,
      "chainId": 0
    },
    {
      "hash": "0x41fd801ee9ea3e9120ae6cb1c5cda3cdcd491f217e31625e0be03a8ad1da5c57",
      "blockHash": "0xa61cf6e21ab819aee569b03e6eb82f43590705e043c4626d57ba7f2b5f1a55af",
      "blockNumber": 113402,
      "transactionIndex": 1,
      "confirmations": null,
      "from": "0x351Fb77bc847F9b5bb8A8F242AB723C5B7d775b8",
      "gasPrice": {
        "_hex": "0xccf6d4f7e"
      },
      "gasLimit": {
        "_hex": "0x5208"
      },
      "to": "0x32Be343B94f860124dC4fEe278FDCBD38C102D88",
      "value": {
        "_hex": "0x10f39b09b880dc00"
      },
      "nonce": 0,
      "data": "0x",
      "r": "0x1ba3a6abb1dd6c44f3f0d36f772bd25e9498efd8299615efcc1c502d916e88f4",
      "s": "0x3eab0b4a8518afa32be725a9073b9b71e3bed23ad9fca40d29aa545ed0b2b8f4",
      "v": 27,
      "creates": null,
      "raw": "0xf86c80850ccf6d4f7e8252089432be343b94f860124dc4fee278fdcbd38c102d888810f39b09b880dc00801ba01ba3a6abb1dd6c44f3f0d36f772bd25e9498efd8299615efcc1c502d916e88f4a03eab0b4a8518afa32be725a9073b9b71e3bed23ad9fca40d29aa545ed0b2b8f4",
      "networkId": 0,
      "chainId": 0
    },
    {
      "hash": "0xe0b1eaf0b22f9716e223a94ca0073af94f4f9f7da0c97bdfbc5f74c87903989b",
      "blockHash": "0xa61cf6e21ab819aee569b03e6eb82f43590705e043c4626d57ba7f2b5f1a55af",
      "blockNumber": 113402,
      "transactionIndex": 2,
      "confirmations": null,
      "from": "0xc7B53239E3B972dc91B7E8840Be35cf20BFcE15C",
      "gasPrice": {
        "_hex": "0xccf6d4f7e"
      },
      "gasLimit": {
        "_hex": "0x5208"
      },
      "to": "0x32Be343B94f860124dC4fEe278FDCBD38C102D88",
      "value": {
        "_hex": "0xbac7f43e56b7000"
      },
      "nonce": 0,
      "data": "0x",
      "r": "0xcb081a363fc8274da71427ab183b67d8552966424edc6f2a0920cc87f14e78e7",
      "s": "0x56db0c0cd9fafb26cb7476f6cce5f389ba7988ee98de201ec82d0db7c72418a9",
      "v": 27,
      "creates": null,
      "raw": "0xf86c80850ccf6d4f7e8252089432be343b94f860124dc4fee278fdcbd38c102d88880bac7f43e56b7000801ba0cb081a363fc8274da71427ab183b67d8552966424edc6f2a0920cc87f14e78e7a056db0c0cd9fafb26cb7476f6cce5f389ba7988ee98de201ec82d0db7c72418a9",
      "networkId": 0,
      "chainId": 0
    }
  ]
}