{
  "hash": "0x7d5e79773205a20e3bef28427475ca03c71bed210de5d12fe9727735d9978535",
  "parentHash": "0xaa26ee3b5ce62b6e8a9bbbd92effba634ff71612e4cf0e6a75c9a6cc7759059e",
  "number": 94663,
  "timestamp": 1439711889,
  "nonce": "0x76992be5bf1ffcd8",
  "difficulty": 3498503817409,
  "gasLimit": {
    "_hex": "0x2fefd8"
  },
  "gasUsed": {
    "_hex": "0x42a68"
  },
  "miner": "0xe6A7a1d47ff21B6321162AEA7C6CB457D5476Bca",
  "extraData": "0x476574682f76312e302e312d38326566323666362f6c696e75782f676f312e34",
  "transactions": [
    {
      "hash": "0xd2e7886fc75d63839e8c1e1f151b13ad1ab5968cadbb16d9f01882ae2b36d7cf",
      "blockHash": "0x7d5e79773205a20e3bef28427475ca03c71bed210de5d12fe9727735d9978535",
      "blockNumber": 94663,
      "transactionIndex": 0,
      "confirmations": null,
      "from": "0xD042e5C2443591c48f1FBa5F6bAf8E7193f454B9",
      "gasPrice": {
        "_hex": "0xde5cea8d4"
      },
      "gasLimit": {
        "_hex": "0x5208"
      },
      "to": "0x32Be343B94f860124dC4fEe278FDCBD38C102D88",
      "value": {
        "_hex": "0x23c95bfc1ba4f000"
      },
      "nonce": 6,
      "data": "0x",
      "r": "0xc7e6578394fb66744565f80bd9863d76a2a39afda49202bd09f0e7ac34268220",
      "s": "0x69a7c0c285ebfcca2696151c8af71f19b411bd1f34538e92cbbd58c15bd4f9d5",
      "v": 28,
      "creates": null,
      "raw": "0xf86c06850de5cea8d48252089432be343b94f860124dc4fee278fdcbd38c102d888823c95bfc1ba4f000801ca0c7e6578394fb66744565f80bd9863d76a2a39afda49202bd09f0e7ac34268220a069a7c0c285ebfcca2696151c8af71f19b411bd1f34538e92cbbd58c15bd4f9d5",
      "networkId": 0,
      "chainId": 0
    },
    {
      "hash": "0xaf77d526dd464a4c6b65e2c84a51adc85697b27dfd65c2584f59e5cf704c9775",
      "blockHash": "0x7d5e79773205a20e3bef28427475ca03c71bed210de5d12fe9727735d9978535",
      "blockNumber": 94663,
      "transactionIndex": 1,
      "confirmations": null,
      "from": "0xF0224ea727d4924A8dd69a8d2d473Cc4c3590423",
      "gasPrice": {
        "_hex": "0xde5cea8d4"
      },
      "gasLimit": {
        "_hex": "0x5208"
      },
      "to": "0x32Be343B94f860124dC4fEe278FDCBD38C102D88",
      "value": {
        "_hex": "0x72db567bd05adc00"
      },
      "nonce": 9,
      "data": "0x",
      "r": "0x59730c7ff94efa87e274a21dbf03f9ef2173bf1ac15dfe778163ea9922d65bb3",
      "s": "0x0604609d910e986a97e625a3fe1e2b650bfac410434a9b149d6080769ee9820b",
      "v": 28,
      "creates": null,
      "raw": "0xf86c09850de5cea8d48252089432be343b94f860124dc4fee278fdcbd38c102d888872db567bd05adc00801ca059730c7ff94efa87e274a21dbf03f9ef2173bf1ac15dfe778163ea9922d65bb3a00604609d910e986a97e625a3fe1e2b650bfac410434a9b149d6080769ee9820b",
      "networkId": 0,
      "chainId": 0
    },
    {
      "hash": "0x17f032c3e6ea189572c0978bf47b2731a72751a509a14741fa2bcc6f254f8ed0",
      "blockHash": "0x7d5e79773205a20e3bef28427475ca03c71bed210de5d12fe9727735d9978535",
      "blockNumber": 94663,
      "transactionIndex": 2,
      "confirmations": null,
      "from": "0xe6A7a1d47ff21B6321162AEA7C6CB457D5476Bca",
      "gasPrice": {
        "_hex": "0xd46ad9c63"
      },
      "gasLimit": {
        "_hex": "0x55f0"
      },
      "to": "0x790b8a3cE86E707ED0eD32bF89B3269692a23CC1",
      "value": {
        "_hex": "0x90ce3278457300d8"
      },
      "nonce": 2836,
      "data": "0x",
      "r": "0x1f9b209e191ef347926e07924580eecea7e0a0f5573f7ee852cc255dc0fbd31d",
      "s": "0x17d5cf0bb1e1b0ecd2e77e86c04a2785f37237bd89d184366fb448562cd14a4b",
      "v": 28,
      "creates": null,
      "raw": "0xf86e820b14850d46ad9c638255f094790b8a3ce86e707ed0ed32bf89b3269692a23cc18890ce3278457300d8801ca01f9b209e191ef347926e07924580eecea7e0a0f5573f7ee852cc255dc0fbd31da017d5cf0bb1e1b0ecd2e77e86c04a2785f37237bd89d184366fb448562cd14a4b",
      "networkId": 0,
      "chainId": 0
    },
    {
      "hash": "0x1f81b302c95d54cbb9be83f2713beda70a0ae2425d74aacb5e5ef50cc703b56c",
      "blockHash": "0x7d5e79773205a20e3bef28427475ca03c71bed210de5d12fe9727735d9978535",
      "blockNumber": 94663,
      "transactionIndex": 3,
      "confirmations": null,
      "from": "0xe6A7a1d47ff21B6321162AEA7C6CB457D5476Bca",
      "gasPrice": {
        "_hex": "0xd46ad9c63"
      },
      "gasLimit": {
        "_hex": "0x55f0"
      },
      "to": "0x6111E933E5e6297DFd0AAd9aAB64017c69062a08",
      "value": {
        "_hex": "0x91b7947d9a832e80"
      },
      "nonce": 2837,
      "data": "0x",
      "r": "0xf33d60c19a31b4020f8a45b77bfdba847630fc0e208f3cc00b755f5105f3b6e4",
      "s": "0x2985110901c5a737fce2370f6a089065ab426210fb99b9c1979a5865fde58ebd",
      "v": 28,
      "creates": null,
      "raw": "0xf86e820b15850d46ad9c638255f0946111e933e5e6297dfd0aad9aab64017c69062a088891b7947d9a832e80801ca0f33d60c19a31b4020f8a45b77bfdba847630fc0e208f3cc00b755f5105f3b6e4a02985110901c5a737fce2370f6a089065ab426210fb99b9c1979a5865fde58ebd",
      "networkId": 0,
      "chainId": 0
    },
    {
      "hash": "0x5caeb65a35c699cd2509a85a80bb545e5b6f338bb200a66762af64c3d9c009ab",
      "blockHash": "0x7d5e79773205a20e3bef28427475ca03c71bed210de5d12fe9727735d9978535",
      "blockNumber": 94663,
      "transactionIndex": 4,
      "confirmations": null,
      "from": "0xe6A7a1d47ff21B6321162AEA7C6CB457D5476Bca",
      "gasPrice": {
        "_hex": "0xd46ad9c63"
      },
      "gasLimit": {
        "_hex": "0x55f0"
      },
      "to": "0x1463cEF3d9007Db05b7C3B8981D38602EE0D855a",
      "value": {
        "_hex": "0x91eaa52988fde8e0"
      },
      "nonce": 2838,
      "data": "0x",
      "r": "0x1b6e84bc0e4f778d2ffc1ea304d70d8bc25365eef82fbb1a5a176ec784251929",
      "s": "0x5c32f3391a21aa5ed4cb92f825af342e42467109b0f0f5d88fc9b3eea7041f76",
      "v": 28,
      "creates": null,
      "raw": "0xf86e820b16850d46ad9c638255f0941463cef3d9007db05b7c3b8981d38602ee0d855a8891eaa52988fde8e0801ca01b6e84bc0e4f778d2ffc1ea304d70d8bc25365eef82fbb1a5a176ec784251929a05c32f3391a21aa5ed4cb92f825af342e42467109b0f0f5d88fc9b3eea7041f76",
      "networkId": 0,
      "chainId": 0
    },
    {
      "hash": "0xb2b2f704f5d2bb1dffe167612efe14f13b62b4a9cf59ede5948cb0e275f3aa62",
      "blockHash": "0x7d5e79773205a20e3bef28427475ca03c71bed210de5d12fe9727735d9978535",
      "blockNumber": 94663,
      "transactionIndex": 5,
      "confirmations": null,
      "from": "0xe6A7a1d47ff21B6321162AEA7C6CB457D5476Bca",
      "gasPrice": {
        "_hex": "0xd46ad9c63"
      },
      "gasLimit": {
        "_hex": "0x55f0"
      },
      "to": "0xB4f6A8f7Cd91Cd4bcADcc0a20e417c392E5f50A4",
      "value": {
        "_hex": "0x9392480dbc8ef6d8"
      },
      "nonce": 2839,
      "data": "0x",
      "r": "0x0c7d079ff462cbacc58fb9f704ff0a4e36f61d58c7509311674c8144d8fc948d",
      "s": "0x733e750dc3ef4a9b54e7b3754be30fc8a41b788d21402eeeb84ad84ce54ca113",
      "v": 27,
      "creates": null,
      "raw": "0xf86e820b17850d46ad9c638255f094b4f6a8f7cd91cd4bcadcc0a20e417c392e5f50a4889392480dbc8ef6d8801ba00c7d079ff462cbacc58fb9f704ff0a4e36f61d58c7509311674c8144d8fc948da0733e750dc3ef4a9b54e7b3754be30fc8a41b788d21402eeeb84ad84ce54ca113",
      "networkId": 0,
      "chainId": 0
    },
    {
      "hash": "0xe90208ebe1525c0c2957dcd84192f872dde673b5e05c69890342ac6dc3a08bf2",
      "blockHash": "0x7d5e79773205a20e3bef28427475ca03c71bed210de5d12fe9727735d9978535",
      "blockNumber": 94663,
      "transactionIndex": 6,
      "confirmations": null,
      "from": "0xe6A7a1d47ff21B6321162AEA7C6CB457D5476Bca",
      "gasPrice": {
        "_hex": "0xd46ad9c63"
      },
      "gasLimit": {
        "_hex": "0x55f0"
      },
      "to": "0x744Df4ED8BaC8eBCa76964a93358c3A67a89b003",
      "value": {
        "_hex": "0x9408adabcb650d30"
      },
      "nonce": 2840,
      "data": "0x",
      "r": "0x504cf5a70576aa6900a3fb1ca34611bc9c76ffaa24126076d3511ec995fd057f",
      "s": "0x005b0ff1a40a4a73ac4cd5e1ff57d0b499eef22ae678c12c711c1d667a88f31f",
      "v": 28,
      "creates": null,
      "raw": "0xf86d820b18850d46ad9c638255f094744df4ed8bac8ebca76964a93358c3a67a89b003889408adabcb650d30801ca0504cf5a70576aa6900a3fb1ca34611bc9c76ffaa24126076d3511ec995fd057f9f5b0ff1a40a4a73ac4cd5e1ff57d0b499eef22ae678c12c711c1d667a88f31f",
      "networkId": 0,
      "chainId": 0
    },
    {
      "hash": "0xbaa3200ea20e1e136e96899c942fe41097c0e3e81cc089e14e1dcd9ab04f9562",
      "blockHash": "0x7d5e79773205a20e3bef28427475ca03c71bed210de5d12fe9727735d9978535",
      "blockNumber": 94663,
      "transactionIndex": 7,
      "confirmations": null,
      "from": "0xe6A7a1d47ff21B6321162AEA7C6CB457D5476Bca",
      "gasPrice": {
        "_hex": "0xd46ad9c63"
      },
      "gasLimit": {
        "_hex": "0x55f0"
      },
      "to": "0xcF9DD62019778E76a6B393f0ac4590f03A7429F7",
      "value": {
        "_hex": "0x95375e191affb6e0"
      },
      "nonce": 2841,
      "data": "0x",
      "r": "0x996ced3336ea4367e24209e61f6d3005a42d01cdb10fa3bc649031904e471fdc",
      "s": "0x3a9e31303c8c9361d2296f0dc83e9102ce0ef9430e2dce5684aa0d5db43bdf52",
      "v": 27,
      "creates": null,
      "raw": "0xf86e820b19850d46ad9c638255f094cf9dd62019778e76a6b393f0ac4590f03a7429f78895375e191affb6e0801ba0996ced3336ea4367e24209e61f6d3005a42d01cdb10fa3bc649031904e471fdca03a9e31303c8c9361d2296f0dc83e9102ce0ef9430e2dce5684aa0d5db43bdf52",
      "networkId": 0,
      "chainId": 0
    },
    {
      "hash": "0x484798989d733192ee20fde55af08eb7dd9927b4d4e6a522d2ff4e17910cb72d",
      "blockHash": "0x7d5e79773205a20e3bef28427475ca03c71bed210de5d12fe9727735d9978535",
      "blockNumber": 94663,
      "transactionIndex": 8,
      "confirmations": null,
      "from": "0xe6A7a1d47ff21B6321162AEA7C6CB457D5476Bca",
      "gasPrice": {
        "_hex": "0xd46ad9c63"
      },
      "gasLimit": {
        "_hex": "0x55f0"
      },
      "to": "0xFc8bc4ed86dF73001ce6082F3dB914d7c7A9a6cC",
      "value": {
        "_hex": "0x953e513bed6eff70"
      },
      "nonce": 2842,
      "data": "0x",
      "r": "0x4e08131014cf2b5b5db532e2907c97a006b31620f4cac5a242a1736aa5dfb9ef",
      "s": "0x42e3b5d42c9d77eeb68d2a02b90428b533b767390d48ab9b76f3219c3bc295a8",
      "v": 28,
      "creates": null,
      "raw": "0xf86e820b1a850d46ad9c638255f094fc8bc4ed86df73001ce6082f3db914d7c7a9a6cc88953e513bed6eff70801ca04e08131014cf2b5b5db532e2907c97a006b31620f4cac5a242a1736aa5dfb9efa042e3b5d42c9d77eeb68d2a02b90428b533b767390d48ab9b76f3219c3bc295a8",
      "networkId": 0,
      "chainId": 0
    },
    {
      "hash": "0xfe127e42bcf9639af26e4491d43df3289b717319e4ebafd2ac6c532969e5457c",
      "blockHash": "0x7d5e79773205a20e3bef28427475ca03c71bed210de5d12fe9727735d9978535",
      "blockNumber": 94663,
      "transactionIndex": 9,
      "confirmations": null,
      "from": "0xe6A7a1d47ff21B6321162AEA7C6CB457D5476Bca",
      "gasPrice": {
        "_hex": "0xd46ad9c63"
      },
      "gasLimit": {
        "_hex": "0x55f0"
      },
      "to": "0x0D3111E6CfA28bc8745057bD71E0D10FEB4C7AE7",
      "value": {
        "_hex": "0x9645d5aa70078fb0"
      },
      "nonce": 2843,
      "data": "0x",
      "r": "0x27af32cb98c1a10158c321b855d1276b8fcb0b6d8610c2dc4f298e28407cf370",
      "s": "0x1ca2ab81aaca6d3b39df48575ad2d4314b85a1ee4a9b2f2060f46c719c18d200",
      "v": 28,
      "creates": null,
      "raw": "0xf86e820b1b850d46ad9c638255f0940d3111e6cfa28bc8745057bd71e0d10feb4c7ae7889645d5aa70078fb0801ca027af32cb98c1a10158c321b855d1276b8fcb0b6d8610c2dc4f298e28407cf370a01ca2ab81aaca6d3b39df48575ad2d4314b85a1ee4a9b2f2060f46c719c18d200",
      "networkId": 0,
      "chainId": 0
    },
    {
      "hash": "0x1ead7878e8d9ad926250dea9295768eb02b3bcca77623523f31fea138561f1d1",
      "blockHash": "0x7d5e79773205a20e3bef28427475ca03c71bed210de5d12fe9727735d9978535",
      "blockNumber": 94663,
      "transactionIndex": 10,
      "confirmations": null,
      "from": "0xe6A7a1d47ff21B6321162AEA7C6CB457D5476Bca",
      "gasPrice": {
        "_hex": "0xd46ad9c63"
      },
      "gasLimit": {
        "_hex": "0x55f0"
      },
      "to": "0x2561d06bcc264cb07D32663B326f510d61E48f4c",
      "value": {
        "_hex": "0x97447e211b8520c8"
      },
      "nonce": 2844,
      "data": "0x",
      "r": "0x1e6c0daab792dc9596dd603e3fb5cdd27b98253202fba0314095283d9900c621",
      "s": "0x24076b4b060de064ab2f0f16718f824398c69db71ba710424c3731deb4ab67e4",
      "v": 27,
      "creates": null,
      "raw": "0xf86e820b1c850d46ad9c638255f0942561d06bcc264cb07d32663b326f510d61e48f4c8897447e211b8520c8801ba01e6c0daab792dc9596dd603e3fb5cdd27b98253202fba0314095283d9900c621a024076b4b060de064ab2f0f16718f824398c69db71ba710424c3731deb4ab67e4",
      "networkId": 0,
      "chainId": 0
    },
    {
      "hash": "0x14c1cc8937fe0511562665b2885eb12332ad2f4dcc4a5974797e071d20c910f9",
      "blockHash": "0x7d5e79773205a20e3bef28427475ca03c71bed210de5d12fe9727735d9978535",
      "blockNumber": 94663,
      "transactionIndex": 11,
      "confirmations": null,
      "from": "0xe6A7a1d47ff21B6321162AEA7C6CB457D5476Bca",
      "gasPrice": {
        "_hex": "0xd46ad9c63"
      },
      "gasLimit": {
        "_hex": "0x55f0"
      },
      "to": "0x8e33bFA30c0c6eb3652321FF52E2fB3143fa51BF",
      "value": {
        "_hex": "0x982455a5f8522e10"
      },
      "nonce": 2845,
      "data": "0x",
      "r": "0x22c1037cf37511909be33d671222480b35a23ca143cb797140b19cfdb7ffba24",
      "s": "0x128d4cb99edd9cecedb78de95ef35dadd4ecaedec001fb881ced2ab14e1c325e",
      "v": 28,
      "creates": null,
      "raw": "0xf86e820b1d850d46ad9c638255f0948e33bfa30c0c6eb3652321ff52e2fb3143fa51bf88982455a5f8522e10801ca022c1037cf37511909be33d671222480b35a23ca143cb797140b19cfdb7ffba24a0128d4cb99edd9cecedb78de95ef35dadd4ecaedec001fb881ced2ab14e1c325e",
      "networkId": 0,
      "chainId": 0
    },
    {
      "hash": "0xa7bb9f6bd50db0a9dd96034a95f637ef676c68020d9dbe81aeb99a5731a7d5da",
      "blockHash": "0x7d5e79773205a20e3bef28427475ca03c71bed210de5d12fe9727735d9978535",
      "blockNumber": 94663,
      "transactionIndex": 12,
      "confirmations": null,
      "from": "0xe6A7a1d47ff21B6321162AEA7C6CB457D5476Bca",
      "gasPrice": {
        "_hex": "0xd46ad9c63"
      },
      "gasLimit": {
        "_hex": "0x55f0"
      },
      "to": "0x78A5a3e39DB4Cf9824d4DFAbAbcdB36611788C78",
      "value": {
        "_hex": "0x989a35b4735a3f58"
      },
      "nonce": 2846,
      "data": "0x",
      "r": "0xa5ac6d0c1d39cc2294610f3b01dd1175e056fa5b30f99d20f23505635667a2c5",
      "s": "0x4ce3742bb1d4a780e4728e94338f0a9cbb3f3fc0a5154ceff618a9659f508f84",
      "v": 28,
      "creates": null,
      "raw": "0xf86e820b1e850d46ad9c638255f09478a5a3e39db4cf9824d4dfababcdb36611788c7888989a35b4735a3f58801ca0a5ac6d0c1d39cc2294610f3b01dd1175e056fa5b30f99d20f23505635667a2c5a04ce3742bb1d4a780e4728e94338f0a9cbb3f3fc0a5154ceff618a9659f508f84",
      "networkId": 0,
      "chainId": 0
    }
  ]
}