{
  "hash": "0x78e8054ea8e6ad5119f4b9bf3075e969abd16e53805075fa17d9a41ed9b68389",
  "parentHash": "0x4d623cc237760557ed94ed550f8fee1602ce9c520749ec5f129015940e7ccfe2",
  "number": 51139,
  "timestamp": 1438999948,
  "nonce": "0x3c0b5a1b63db625f",
  "difficulty": 1560527332634,
  "gasLimit": {
    "_hex": "0x942cc"
  },
  "gasUsed": {
    "_hex": "0x5208"
  },
  "miner": "0xf927a40C8B7F6E07c5af7FA2155B4864a4112B13",
  "extraData": "0x476574682f76312e302e312f6c696e75782f676f312e342e32",
  "transactions": [
    {
      "hash": "0xc2fd1c64562c85aec9dc1ff69d67d112b39a7c3d078411c57d7accb5ea5f6b4e",
      "blockHash": "0x78e8054ea8e6ad5119f4b9bf3075e969abd16e53805075fa17d9a41ed9b68389",
      "blockNumber": 51139,
      "transactionIndex": 0,
      "confirmations": null,
      "from": "0xfC372FF6927CB396d9cf29803500110Da632bC52",
      "gasPrice": {
        "_hex": "0x115c2d80a30"
      },
      "gasLimit": {
        "_hex": "0xc350"
      },
      "to": "0xa748fac76B1d857E2f77484a0F816463e8b56EDc",
      "value": {
        "_hex": "0xde0b6b3a7640000"
      },
      "nonce": 2,
      "data": "0x",
      "r": "0xf8e7b8b9f5b7cf27776124a8b07aaf0dcc6eb066309b10dcb2e4f01b9a69f95c",
      "s": "0x102257e497be01b7f4e3b7a6a7e26f94baf813fd1827af67d5119214b3f5c8c0",
      "v": 27,
      "creates": null,
      "raw": "0xf86d02860115c2d80a3082c35094a748fac76b1d857e2f77484a0f816463e8b56edc880de0b6b3a7640000801ba0f8e7b8b9f5b7cf27776124a8b07aaf0dcc6eb066309b10dcb2e4f01b9a69f95ca0102257e497be01b7f4e3b7a6a7e26f94baf813fd1827af67d5119214b3f5c8c0",
      "networkId": 0,
      "chainId": 0
    }
  ]
}