{
  "hash": "0x8e3ebfc48e953f77a627d32b8a6efd751dc506d1fafde1a1f95027e56d4d3569",
  "parentHash": "0x6e8cdfa5fc34cd52d8632818d962fb58e32b5dcb95633e81c777bf8f32c68439",
  "number": 80395,
  "timestamp": 1439485011,
  "nonce": "0xa452b6a9018da21c",
  "difficulty": 2385170521483,
  "gasLimit": {
    "_hex": "0x2fefd8"
  },
  "gasUsed": {
    "_hex": "0xaa37"
  },
  "miner": "0xF2A53c2F0a0A7dcD6E11Dd0F798AdF1F6B2085A0",
  "extraData": "0x",
  "transactions": [
    {
      "hash": "0xb2bc035be3650849f4cab7e2f39b432ad46f50436015aeb64b642101d9200d1f",
      "blockHash": "0x8e3ebfc48e953f77a627d32b8a6efd751dc506d1fafde1a1f95027e56d4d3569",
      "blockNumber": 80395,
      "transactionIndex": 0,
      "confirmations": null,
      "from": "0x87C5B5874A18B4306DF8a752a6C8cc3E82daFc19",
      "gasPrice": {
        "_hex": "0xfe1a85e53e"
      },
      "gasLimit": {
        "_hex": "0x493e0"
      },
      "to": "0xC4c51de1AbF5D60DBd329eC0F999Fd8f021ae9fC",
      "value": {
        "_hex": "0x0"
      },
      "nonce": 196,
      "data": "0x03750d9400000000000000000000000087c5b5874a18b4306df8a752a6c8cc3e82dafc196b6b6b0000000000000000000000000000000000000000000000000000000000",
      "r": "0xc707e997be058b54606d4acf67cc8fb66bc5a0905881b8f05b1055014af3fc89",
      "s": "0x1cecd9784dfd28c20c41d896ef46bc0553fab261bc2216365e28613bb0136454",
      "v": 28,
      "creates": null,
      "raw": "0xf8ab81c485fe1a85e53e830493e094c4c51de1abf5d60dbd329ec0f999fd8f021ae9fc80b84403750d9400000000000000000000000087c5b5874a18b4306df8a752a6c8cc3e82dafc196b6b6b00000000000000000000000000000000000000000000000000000000001ca0c707e997be058b54606d4acf67cc8fb66bc5a0905881b8f05b1055014af3fc89a01cecd9784dfd28c20c41d896ef46bc0553fab261bc2216365e28613bb0136454",
      "networkId": 0,
      "chainId": 0
    }
  ]
}