{
  "hash": "0x5a96692ac0c2d80e571647aa17b28d9f12fce4c6a95f8f30c9b3cd99885b4a83",
  "parentHash": "0xa58a2bbc446a992d985e276be6f320de3e55b77cd8a96867ca69abfe9e5432d8",
  "number": 70422,
  "timestamp": 1439319551,
  "nonce": "0x756e1f489a750108",
  "difficulty": 2139551448898,
  "gasLimit": {
    "_hex": "0x2fefd8"
  },
  "gasUsed": {
    "_hex": "0x93b2"
  },
  "miner": "0xf927a40C8B7F6E07c5af7FA2155B4864a4112B13",
  "extraData": "0x",
  "transactions": [
    {
      "hash": "0x2ca8e01458d71560b4cb55045734a120f25d1c5e5531c55fc8e1b273f6492e13",
      "blockHash": "0x5a96692ac0c2d80e571647aa17b28d9f12fce4c6a95f8f30c9b3cd99885b4a83",
      "blockNumber": 70422,
      "transactionIndex": 0,
      "confirmations": null,
      "from": "0xa14Cf6cEC1c6aAe4b608458F6e14692863A937Aa",
      "gasPrice": {
        "_hex": "0xcbeefc036"
      },
      "gasLimit": {
        "_hex": "0x61a80"
      },
      "to": "0x5Fe5B7546D1628f7348B023A0393de1FC825A4fD",
      "value": {
        "_hex": "0x4563918244f40000"
      },
      "nonce": 16,
      "data": "0xb595b8b50000000000000000000000000000000000000000000000000000000000000000",
      "r": "0x1fd5bccdf0e4235785177cf2b1ef7f5355e1d97a9dc1be4d2a43fc22ce289414",
      "s": "0x55035ad53df6a3094c4f45000d5e82c5191997aed11632305332bad80f3676b0",
      "v": 27,
      "creates": null,
      "raw": "0xf89110850cbeefc03683061a80945fe5b7546d1628f7348b023a0393de1fc825a4fd884563918244f40000a4b595b8b500000000000000000000000000000000000000000000000000000000000000001ba01fd5bccdf0e4235785177cf2b1ef7f5355e1d97a9dc1be4d2a43fc22ce289414a055035ad53df6a3094c4f45000d5e82c5191997aed11632305332bad80f3676b0",
      "networkId": 0,
      "chainId": 0
    }
  ]
}