{
  "hash": "0xc05cae8090a962db33a914e22475047a186283d8012754d09c6e88d7c76f563c",
  "parentHash": "0x85f33873f062b6d5129133f49653e163100c8a93bad1c48a450f71f853a5db03",
  "number": 49589,
  "timestamp": 1438975928,
  "nonce": "0x0240c0344265883d",
  "difficulty": 1474867186715,
  "gasLimit": {
    "_hex": "0x36922"
  },
  "gasUsed": {
    "_hex": "0xa674"
  },
  "miner": "0xFf7CAe450435b0BF2776edf6dFe650A0D45e2D7f",
  "extraData": "0x476574682f76312e302e312d38326566323666362f6c696e75782f676f312e34",
  "transactions": [
    {
      "hash": "0x4fa04cfb415f4360fb520c67704a377921f1ab4128196e3f299f64e4fd4445e7",
      "blockHash": "0xc05cae8090a962db33a914e22475047a186283d8012754d09c6e88d7c76f563c",
      "blockNumber": 49589,
      "transactionIndex": 0,
      "confirmations": null,
      "from": "0xCC9519D1F3985f6B255EaDEd12d5624A972721e1",
      "gasPrice": {
        "_hex": "0x1086c7ad023"
      },
      "gasLimit": {
        "_hex": "0x15f90"
      },
      "to": "0x2910543Af39abA0Cd09dBb2D50200b3E800A63D2",
      "value": {
        "_hex": "0x363442e15b11550000"
      },
      "nonce": 0,
      "data": "0x454e42304a42363352",
      "r": "0x20dce8c47b57f2094f2407953f4d16f024a8d83e7f21fcd97a40dc5e7f267d18",
      "s": "0x32a0d7562caa7438a0ceb079b4e0e3104c2de1d56da763ba828ea0a5efe2dbf9",
      "v": 27,
      "creates": null,
      "raw": "0xf878808601086c7ad02383015f90942910543af39aba0cd09dbb2d50200b3e800a63d289363442e15b1155000089454e42304a423633521ba020dce8c47b57f2094f2407953f4d16f024a8d83e7f21fcd97a40dc5e7f267d18a032a0d7562caa7438a0ceb079b4e0e3104c2de1d56da763ba828ea0a5efe2dbf9",
      "networkId": 0,
      "chainId": 0
    },
    {
      "hash": "0x9e2c5eb5dccd3ea74877ccadef40485979b5f51842a3f77685562e50e3a7659d",
      "blockHash": "0xc05cae8090a962db33a914e22475047a186283d8012754d09c6e88d7c76f563c",
      "blockNumber": 49589,
      "transactionIndex": 1,
      "confirmations": null,
      "from": "0xcb2Ff4305625D98A9E13C9cA10ca47cf2345e1F8",
      "gasPrice": {
        "_hex": "0xd784f7ce3"
      },
      "gasLimit": {
        "_hex": "0x5208"
      },
      "to": "0x32Be343B94f860124dC4fEe278FDCBD38C102D88",
      "value": {
        "_hex": "0xd02659035df31000"
      },
      "nonce": 0,
      "data": "0x",
      "r": "0x4abe572150af1bccc76253a3a4ba9e6457a36ade946b9075e847d32a16aed8ff",
      "s": "0x4c26c909d06d36ca87d188a6fac6089840c0c6ab127e7fa58d1397bca81e528c",
      "v": 27,
      "creates": null,
      "raw": "0xf86c80850d784f7ce38252089432be343b94f860124dc4fee278fdcbd38c102d8888d02659035df31000801ba04abe572150af1bccc76253a3a4ba9e6457a36ade946b9075e847d32a16aed8ffa04c26c909d06d36ca87d188a6fac6089840c0c6ab127e7fa58d1397bca81e528c",
      "networkId": 0,
      "chainId": 0
    }
  ]
}