{
  "hash": "0x474988ac517560137fb34c2af09ee1d45f509e8db942f039615bbeb6ec66e7ff",
  "parentHash": "0xa7bc875eafeb2b2b21465ed2c7736160ad75f0266b4c506ce46561355a5bda13",
  "number": 63794,
  "timestamp": 1439210173,
  "nonce": "0xc45c3e031f7513b2",
  "difficulty": 1851282235002,
  "gasLimit": {
    "_hex": "0x2fefd5"
  },
  "gasUsed": {
    "_hex": "0x5208"
  },
  "miner": "0x0eDEd3DA479d0beF8eeC92A76644D3f4E3C177f7",
  "extraData": "0x476574682f76312e302e312f6c696e75782f676f312e342e32",
  "transactions": [
    {
      "hash": "0x317750d66c876645af7cea729f0cba97790ec44df15948ed1720b8b83adcfdb3",
      "blockHash": "0x474988ac517560137fb34c2af09ee1d45f509e8db942f039615bbeb6ec66e7ff",
      "blockNumber": 63794,
      "transactionIndex": 0,
      "confirmations": null,
      "from": "0xB7268c7705A1866b2A78e882fdfDc8E2a4e1428E",
      "gasPrice": {
        "_hex": "0xd69b48315"
      },
      "gasLimit": {
        "_hex": "0x15f90"
      },
      "to": "0x96811Ad897894eC178872117C8BF2f03971A393B",
      "value": {
        "_hex": "0x10383beec53ce0000"
      },
      "nonce": 10,
      "data": "0x",
      "r": "0x70f0dc979585955bfad231caae8244a2f018e7d99c433be79e89e27d4cc4fb0b",
      "s": "0x15803998e4c0b79c96db7772a22e0675751c6d30466fb0a4d080fab01de44871",
      "v": 28,
      "creates": null,
      "raw": "0xf86e0a850d69b4831583015f909496811ad897894ec178872117c8bf2f03971a393b89010383beec53ce0000801ca070f0dc979585955bfad231caae8244a2f018e7d99c433be79e89e27d4cc4fb0ba015803998e4c0b79c96db7772a22e0675751c6d30466fb0a4d080fab01de44871",
      "networkId": 0,
      "chainId": 0
    }
  ]
}