{
  "hash": "0xc0042e9cfc7fd68fce12f9236f5d3188139ef45060276c0d7e413d9f77b991ed",
  "parentHash": "0xdb830f5d4839b074af1ab5c6327000262b9ac7b2e3959a4ee4b434c67f2e68af",
  "number": 108009,
  "timestamp": 1439932529,
  "nonce": "0x66f6f0a4d9a53fe6",
  "difficulty": 4364050747773,
  "gasLimit": {
    "_hex": "0x2fefd8"
  },
  "gasUsed": {
    "_hex": "0xa410"
  },
  "miner": "0x7e8504a5e26df87f6D26fA1ba148BE146F42775A",
  "extraData": "0x476574682f76312e302e312f77696e646f77732f676f312e342e32",
  "transactions": [
    {
      "hash": "0xa11e182898ed214a711704ba68260d97fc595e47e41cb27ff4b36c98f6aa9260",
      "blockHash": "0xc0042e9cfc7fd68fce12f9236f5d3188139ef45060276c0d7e413d9f77b991ed",
      "blockNumber": 108009,
      "transactionIndex": 0,
      "confirmations": null,
      "from": "0xFBb1b73C4f0BDa4f67dcA266ce6Ef42f520fBB98",
      "gasPrice": {
        "_hex": "0xd981a1aea"
      },
      "gasLimit": {
        "_hex": "0x5208"
      },
      "to": "0x2AE00B552EBf0156b47A57f3B5aFBCeF5378c1b2",
      "value": {
        "_hex": "0x493026e2fd00c00"
      },
      "nonce": 120,
      "data": "0x",
      "r": "0x8f8fb3dcd285f9765d06f3b97b196a0c755a58e9bb932cbf63fd541524adf882",
      "s": "0x0de70df0d93171b5a2f0a79ae74d85ba345a3793d10f6990bcada5e715ce50df",
      "v": 27,
      "creates": null,
      "raw": "0xf86c78850d981a1aea825208942ae00b552ebf0156b47a57f3b5afbcef5378c1b2880493026e2fd00c00801ba08f8fb3dcd285f9765d06f3b97b196a0c755a58e9bb932cbf63fd541524adf882a00de70df0d93171b5a2f0a79ae74d85ba345a3793d10f6990bcada5e715ce50df",
      "networkId": 0,
      "chainId": 0
    },
    {
      "hash": "0x84d46039b103876db690d6162a38d2f7a0a0c8c7ce5c2ad6cb275a408fdd45e1",
      "blockHash": "0xc0042e9cfc7fd68fce12f9236f5d3188139ef45060276c0d7e413d9f77b991ed",
      "blockNumber": 108009,
      "transactionIndex": 1,
      "confirmations": null,
      "from": "0x2F853817afd3B8F3B86E9F60ee77B5d97773c0e3",
      "gasPrice": {
        "_hex": "0xcc13abe3e"
      },
      "gasLimit": {
        "_hex": "0x5208"
      },
      "to": "0xbDdEDC68C397704930A4eD8CB3f9996050EC1A58",
      "value": {
        "_hex": "0x5bb6b80e5a7d5e0000"
      },
      "nonce": 2,
      "data": "0x",
      "r": "0x5efc11e96056692cd49fb342a37a4c3d69804ccc0dec3f207b295bc16273ce9c",
      "s": "0x6f186f59454b4d94bb11f9eb33c9799d96f05afc26cadb6440b75ddf3924d267",
      "v": 28,
      "creates": null,
      "raw": "0xf86d02850cc13abe3e82520894bddedc68c397704930a4ed8cb3f9996050ec1a58895bb6b80e5a7d5e0000801ca05efc11e96056692cd49fb342a37a4c3d69804ccc0dec3f207b295bc16273ce9ca06f186f59454b4d94bb11f9eb33c9799d96f05afc26cadb6440b75ddf3924d267",
      "networkId": 0,
      "chainId": 0
    }
  ]
}