{
  "hash": "0x3204e565b1e889993c162587489cabc866fdeaeffcf8e41cefb885e83bd5d549",
  "parentHash": "0xe84152953a93330a7133ebc4c5f89e4a82d6f114c6ec48de798bfb53bec459ba",
  "number": 99960,
  "timestamp": 1439798448,
  "nonce": "0x4dd7aba92f607bfa",
  "difficulty": 3849315570300,
  "gasLimit": {
    "_hex": "0x2fefd8"
  },
  "gasUsed": {
    "_hex": "0x1ec30"
  },
  "miner": "0xe6A7a1d47ff21B6321162AEA7C6CB457D5476Bca",
  "extraData": "0x476574682f76312e302e312d38326566323666362f6c696e75782f676f312e34",
  "transactions": [
    {
      "hash": "0x42bc39126720db04a0c3730cbc1e70882ffb5745da287a11e01287e82ba62028",
      "blockHash": "0x3204e565b1e889993c162587489cabc866fdeaeffcf8e41cefb885e83bd5d549",
      "blockNumber": 99960,
      "transactionIndex": 0,
      "confirmations": null,
      "from": "0xe6A7a1d47ff21B6321162AEA7C6CB457D5476Bca",
      "gasPrice": {
        "_hex": "0xda991a368"
      },
      "gasLimit": {
        "_hex": "0x55f0"
      },
      "to": "0xA88B1eAe9655f8f49d669A10EA450fC4df44A268",
      "value": {
        "_hex": "0x5e29eb832d27e010"
      },
      "nonce": 3277,
      "data": "0x",
      "r": "0x5a10ae0eef35a7500215430e91c51b99e2915f99b23670fb43d8ed20eaccc460",
      "s": "0x1dafc7387b2a19aebfd012ad653f5af3c7de9af3cd4a5729225ddeb69ef5b5ea",
      "v": 28,
      "creates": null,
      "raw": "0xf86e820ccd850da991a3688255f094a88b1eae9655f8f49d669a10ea450fc4df44a268885e29eb832d27e010801ca05a10ae0eef35a7500215430e91c51b99e2915f99b23670fb43d8ed20eaccc460a01dafc7387b2a19aebfd012ad653f5af3c7de9af3cd4a5729225ddeb69ef5b5ea",
      "networkId": 0,
      "chainId": 0
    },
    {
      "hash": "0xdedf6a22ebeb724160d4027caebd624772de1f2dc6c24b2ea0d8b060e5229d04",
      "blockHash": "0x3204e565b1e889993c162587489cabc866fdeaeffcf8e41cefb885e83bd5d549",
      "blockNumber": 99960,
      "transactionIndex": 1,
      "confirmations": null,
      "from": "0xe6A7a1d47ff21B6321162AEA7C6CB457D5476Bca",
      "gasPrice": {
        "_hex": "0xda991a368"
      },
      "gasLimit": {
        "_hex": "0x55f0"
      },
      "to": "0x022A006FcC619ebf387F413eF06932bAbd47AE0E",
      "value": {
        "_hex": "0x5e87710f80e15e10"
      },
      "nonce": 3278,
      "data": "0x",
      "r": "0xc2f1c4166adc867c4bc573e78996da00429aace44fd91746eaf8798d3a68f6d6",
      "s": "0x1fe3759eebbd61d9b821ea6ac038a47500ee164f2fbc9ac2b6b2f91a42c79ba2",
      "v": 27,
      "creates": null,
      "raw": "0xf86e820cce850da991a3688255f094022a006fcc619ebf387f413ef06932babd47ae0e885e87710f80e15e10801ba0c2f1c4166adc867c4bc573e78996da00429aace44fd91746eaf8798d3a68f6d6a01fe3759eebbd61d9b821ea6ac038a47500ee164f2fbc9ac2b6b2f91a42c79ba2",
      "networkId": 0,
      "chainId": 0
    },
    {
      "hash": "0xc4d522d258bcfef286fd8d43b26c448424225f019dfb224fd24c8fcae72d251b",
      "blockHash": "0x3204e565b1e889993c162587489cabc866fdeaeffcf8e41cefb885e83bd5d549",
      "blockNumber": 99960,
      "transactionIndex": 2,
      "confirmations": null,
      "from": "0xe6A7a1d47ff21B6321162AEA7C6CB457D5476Bca",
      "gasPrice": {
        "_hex": "0xda991a368"
      },
      "gasLimit": {
        "_hex": "0x55f0"
      },
      "to": "0xFCb0b0382b155BE6Dd68dcdB7f29d2366D1C7502",
      "value": {
        "_hex": "0x605746cda823dec0"
      },
      "nonce": 3279,
      "data": "0x",
      "r": "0xe9868d55546ca9bc96c62b867be97c1d7dd0ecf4cb4fdfd79a75abef9fb06256",
      "s": "0x6408ae74e0eca77c3b42e0110105eb7fdd3cc36bd419a5cce0d352f7228b0eb5",
      "v": 27,
      "creates": null,
      "raw": "0xf86e820ccf850da991a3688255f094fcb0b0382b155be6dd68dcdb7f29d2366d1c750288605746cda823dec0801ba0e9868d55546ca9bc96c62b867be97c1d7dd0ecf4cb4fdfd79a75abef9fb06256a06408ae74e0eca77c3b42e0110105eb7fdd3cc36bd419a5cce0d352f7228b0eb5",
      "networkId": 0,
      "chainId": 0
    },
    {
      "hash": "0x68f06f58cef7e17eee0e68a75fbe52f188ef62e0a262e4f64bbe1dde3c76b200",
      "blockHash": "0x3204e565b1e889993c162587489cabc866fdeaeffcf8e41cefb885e83bd5d549",
      "blockNumber": 99960,
      "transactionIndex": 3,
      "confirmations": null,
      "from": "0xe6A7a1d47ff21B6321162AEA7C6CB457D5476Bca",
      "gasPrice": {
        "_hex": "0xda991a368"
      },
      "gasLimit": {
        "_hex": "0x55f0"
      },
      "to": "0xBc8405A1c3b4f67A4Ba6C70C91eF1F0152B6d3ab",
      "value": {
        "_hex": "0x609a26b85811b3e0"
      },
      "nonce": 3280,
      "data": "0x",
      "r": "0xdd282e8c1bf945de98f457d8d15e6621e4da1456a4713e29bc31d913d0caa54a",
      "s": "0x1d0960270cb31dd2bf7be6167befa34dbcb07cc5c8789e0faec8f4609c125e4c",
      "v": 28,
      "creates": null,
      "raw": "0xf86e820cd0850da991a3688255f094bc8405a1c3b4f67a4ba6c70c91ef1f0152b6d3ab88609a26b85811b3e0801ca0dd282e8c1bf945de98f457d8d15e6621e4da1456a4713e29bc31d913d0caa54aa01d0960270cb31dd2bf7be6167befa34dbcb07cc5c8789e0faec8f4609c125e4c",
      "networkId": 0,
      "chainId": 0
    },
    {
      "hash": "0x40747271c572d2b19eb7e6d71646e282341edc5bdc995bd675ddd0e0f496f11d",
      "blockHash": "0x3204e565b1e889993c162587489cabc866fdeaeffcf8e41cefb885e83bd5d549",
      "blockNumber": 99960,
      "transactionIndex": 4,
      "confirmations": null,
      "from": "0xe6A7a1d47ff21B6321162AEA7C6CB457D5476Bca",
      "gasPrice": {
        "_hex": "0xda991a368"
      },
      "gasLimit": {
        "_hex": "0x55f0"
      },
      "to": "0xb7B3690EFa6b3f08D4EC289fF655C4b7bb15EE39",
      "value": {
        "_hex": "0x61d643c83b718de0"
      },
      "nonce": 3281,
      "data": "0x",
      "r": "0x20141c27caa04414784435da5f22d6d629cd0dd3d6dfac6918d551c7a018a1db",
      "s": "0x1fad28d4c60f6be2b3a5d7bf2a4354d068825ddfe02be44a44cb029ae3aaef04",
      "v": 27,
      "creates": null,
      "raw": "0xf86e820cd1850da991a3688255f094b7b3690efa6b3f08d4ec289ff655c4b7bb15ee398861d643c83b718de0801ba020141c27caa04414784435da5f22d6d629cd0dd3d6dfac6918d551c7a018a1dba01fad28d4c60f6be2b3a5d7bf2a4354d068825ddfe02be44a44cb029ae3aaef04",
      "networkId": 0,
      "chainId": 0
    },
    {
      "hash": "0x64bd6a42210d014c141147f67cc2794429ce1dfafa6e9151199b52b6a6fd2712",
      "blockHash": "0x3204e565b1e889993c162587489cabc866fdeaeffcf8e41cefb885e83bd5d549",
      "blockNumber": 99960,
      "transactionIndex": 5,
      "confirmations": null,
      "from": "0xe6A7a1d47ff21B6321162AEA7C6CB457D5476Bca",
      "gasPrice": {
        "_hex": "0xda991a368"
      },
      "gasLimit": {
        "_hex": "0x55f0"
      },
      "to": "0x5adA3743144f1235d8cef97daAD6c123F20E7330",
      "value": {
        "_hex": "0x61e6f12571fb76d0"
      },
      "nonce": 3282,
      "data": "0x",
      "r": "0x91590ac945fdf73153ad7b84f5d5e9e3167aa74fd8be253d85b0544b33f06906",
      "s": "0x1c9f7c7489d3c1610cf1cb5d287be62d84818b103576976e3e9e95607e279a37",
      "v": 27,
      "creates": null,
      "raw": "0xf86e820cd2850da991a3688255f0945ada3743144f1235d8cef97daad6c123f20e73308861e6f12571fb76d0801ba091590ac945fdf73153ad7b84f5d5e9e3167aa74fd8be253d85b0544b33f06906a01c9f7c7489d3c1610cf1cb5d287be62d84818b103576976e3e9e95607e279a37",
      "networkId": 0,
      "chainId": 0
    }
  ]
}