{
  "hash": "0x95840af61ad7c0c86d8d718bc72036dd399dc2cd228e0b8db1cf0af1249e27ec",
  "parentHash": "0xf1c3678a64a4004ed8ac35798a2e8e218778d750fc70d08b727e3e7d3075c13b",
  "number": 63623,
  "timestamp": 1439207410,
  "nonce": "0xfbac1e70fae900a5",
  "difficulty": 1846805661755,
  "gasLimit": {
    "_hex": "0x2fefd8"
  },
  "gasUsed": {
    "_hex": "0x5208"
  },
  "miner": "0xf927a40C8B7F6E07c5af7FA2155B4864a4112B13",
  "extraData": "0x476574682f76312e302e312f6c696e75782f676f312e342e32",
  "transactions": [
    {
      "hash": "0xb87bdccf6f7382be9ad7774a431b16056c1c9ddad11a3a271a53cc132bc52de1",
      "blockHash": "0x95840af61ad7c0c86d8d718bc72036dd399dc2cd228e0b8db1cf0af1249e27ec",
      "blockNumber": 63623,
      "transactionIndex": 0,
      "confirmations": null,
      "from": "0x32Be343B94f860124dC4fEe278FDCBD38C102D88",
      "gasPrice": {
        "_hex": "0xdf0f2beab"
      },
      "gasLimit": {
        "_hex": "0x5208"
      },
      "to": "0x8eB3FbB4A0Cc2366e88FB476df63D3Ad6907907b",
      "value": {
        "_hex": "0x4faf9e0b94dcd0000"
      },
      "nonce": 168,
      "data": "0x",
      "r": "0x523fb59d79b00ba6b73919f7cf1cede42b3eab6e398322efe1253060ebb8a5b3",
      "s": "0x30c51c07c9d6fb8d1d9d8c725a30264ddcaaaea4fc2954fcf8271816c3d39f2d",
      "v": 27,
      "creates": null,
      "raw": "0xf86e81a8850df0f2beab825208948eb3fbb4a0cc2366e88fb476df63d3ad6907907b8904faf9e0b94dcd0000801ba0523fb59d79b00ba6b73919f7cf1cede42b3eab6e398322efe1253060ebb8a5b3a030c51c07c9d6fb8d1d9d8c725a30264ddcaaaea4fc2954fcf8271816c3d39f2d",
      "networkId": 0,
      "chainId": 0
    }
  ]
}