{
  "hash": "0xd501be271c63d63284e284b9b8616be393004a4940dd891c7d95f82f7312dc85",
  "parentHash": "0x3875b7f834bf01f489c30c3a5a836afa78384a18dfd866f380488fbfeabf9004",
  "number": 94154,
  "timestamp": 1439703443,
  "nonce": "0x9f98809aa360d0a5",
  "difficulty": 3479974547140,
  "gasLimit": {
    "_hex": "0x2fefd8"
  },
  "gasUsed": {
    "_hex": "0x5208"
  },
  "miner": "0x47ff6576639c2e94762eA5443978D7681C0E78DC",
  "extraData": "0x476574682f76312e302e312f6c696e75782f676f312e342e32",
  "transactions": [
    {
      "hash": "0x0e41d74e89cc968a6a0eb533ba5b5f41551ed33cda40ec8aca75042c524bc96e",
      "blockHash": "0xd501be271c63d63284e284b9b8616be393004a4940dd891c7d95f82f7312dc85",
      "blockNumber": 94154,
      "transactionIndex": 0,
      "confirmations": null,
      "from": "0xa042bf079f11eb7Bda553E87D4f46A0e2aa7a875",
      "gasPrice": {
        "_hex": "0xba43b7400"
      },
      "gasLimit": {
        "_hex": "0x5267"
      },
      "to": "0x4C4C15a7B34323D7C2E9B9559E534759Dfb67062",
      "value": {
        "_hex": "0xe03f4e3a39000"
      },
      "nonce": 0,
      "data": "0x",
      "r": "0x61329711f918b6210f6cddf89766a9f95fc8a95feb19c88a41cbcbbc70c35f13",
      "s": "0xb5ca05d47b3dfa8ad4a87aac83b207273f1ce68d672561d3314f038e96fb0f58",
      "v": 28,
      "creates": null,
      "raw": "0xf86b80850ba43b7400825267944c4c15a7b34323d7c2e9b9559e534759dfb67062870e03f4e3a39000801ca061329711f918b6210f6cddf89766a9f95fc8a95feb19c88a41cbcbbc70c35f13a0b5ca05d47b3dfa8ad4a87aac83b207273f1ce68d672561d3314f038e96fb0f58",
      "networkId": 0,
      "chainId": 0
    }
  ]
}