{
  "hash": "0x29355781462dc2da419c068b5ce305451521b1fdb03e565609c5bec11e4a8a4c",
  "parentHash": "0x3330e230ac9fc6fef008d9942bf377932c7bc1e57956204ae5645942c4ad4274",
  "number": 71694,
  "timestamp": 1439340205,
  "nonce": "0xf59f0262e200c8b8",
  "difficulty": 2179290267607,
  "gasLimit": {
    "_hex": "0x2fefd8"
  },
  "gasUsed": {
    "_hex": "0xaec1"
  },
  "miner": "0xe6A7a1d47ff21B6321162AEA7C6CB457D5476Bca",
  "extraData": "0x476574682f76312e302e312d38326566323666362f6c696e75782f676f312e34",
  "transactions": [
    {
      "hash": "0x6fb9fa4da10bc93aaa0e995054cd43a5e5c5197afd46e3a70fd153c604440e5e",
      "blockHash": "0x29355781462dc2da419c068b5ce305451521b1fdb03e565609c5bec11e4a8a4c",
      "blockNumber": 71694,
      "transactionIndex": 0,
      "confirmations": null,
      "from": "0x17580B766f7453525ca4C6A88b01b50570EA088C",
      "gasPrice": {
        "_hex": "0xd09b8f6db"
      },
      "gasLimit": {
        "_hex": "0x61a80"
      },
      "to": "0x5Fe5B7546D1628f7348B023A0393de1FC825A4fD",
      "value": {
        "_hex": "0x3782dace9d900000"
      },
      "nonce": 259,
      "data": "0xb595b8b50000000000000000000000000000000000000000000000000000000000000001",
      "r": "0x99a9239b6b5b7f4d0af6bc1d78e9d196da831cbc3c958c157b919a4dc5cd2f6f",
      "s": "0x5f6204024bbc4f9c74f3b31bfbf3c9468b97aa95705331c1d3a9f3f77b99a3bc",
      "v": 27,
      "creates": null,
      "raw": "0xf893820103850d09b8f6db83061a80945fe5b7546d1628f7348b023a0393de1fc825a4fd883782dace9d900000a4b595b8b500000000000000000000000000000000000000000000000000000000000000011ba099a9239b6b5b7f4d0af6bc1d78e9d196da831cbc3c958c157b919a4dc5cd2f6fa05f6204024bbc4f9c74f3b31bfbf3c9468b97aa95705331c1d3a9f3f77b99a3bc",
      "networkId": 0,
      "chainId": 0
    }
  ]
}