{
  "hash": "0xccf06ae6091b30f1f852cbb21cf3b490faf000d05bd62515df3a1cbf71286f01",
  "parentHash": "0xaf76de4662a33de5306855c37a1872a1021ca6c05a43b493ac1098b72e4c1e51",
  "number": 115312,
  "timestamp": 1440055033,
  "nonce": "0xb26e23c1dd2aa069",
  "difficulty": 4558363640516,
  "gasLimit": {
    "_hex": "0x2fefd8"
  },
  "gasUsed": {
    "_hex": "0x19a28"
  },
  "miner": "0x49B89158a25D2Bf1E2c4B08f28b35935C1C27A0f",
  "extraData": "0x476574682f76312e302e312f6c696e75782f676f312e342e32",
  "transactions": [
    {
      "hash": "0xb2ed074d4e3254bf0f771b04178512a04534a79adebc6c762d3bd0f1106b0d5d",
      "blockHash": "0xccf06ae6091b30f1f852cbb21cf3b490faf000d05bd62515df3a1cbf71286f01",
      "blockNumber": 115312,
      "transactionIndex": 0,
      "confirmations": null,
      "from": "0x007f7f58D3eb5b7510A301eCC749FC1fCDDBE14D",
      "gasPrice": {
        "_hex": "0xe0f2c9cf5"
      },
      "gasLimit": {
        "_hex": "0x15f90"
      },
      "to": "0xb1abce2918E21ddb93AA452731a12672A3d9F75a",
      "value": {
        "_hex": "0x6659436cf28180000"
      },
      "nonce": 310,
      "data": "0x",
      "r": "0x7a1f81d49e640ece8e4bdcf26f5320c59a5be22a3a0d4f4066a305e0b098c06a",
      "s": "0x5e29f7d7ccf732f48b12238b5acc8696b03c4a6f9771c6d4231ad68014a6d57d",
      "v": 28,
      "creates": null,
      "raw": "0xf870820136850e0f2c9cf583015f9094b1abce2918e21ddb93aa452731a12672a3d9f75a8906659436cf28180000801ca07a1f81d49e640ece8e4bdcf26f5320c59a5be22a3a0d4f4066a305e0b098c06aa05e29f7d7ccf732f48b12238b5acc8696b03c4a6f9771c6d4231ad68014a6d57d",
      "networkId": 0,
      "chainId": 0
    },
    {
      "hash": "0x03c93e4cc7c205d35f87bcc743d8af6e9f6647358a683c0246277df8d6c28de1",
      "blockHash": "0xccf06ae6091b30f1f852cbb21cf3b490faf000d05bd62515df3a1cbf71286f01",
      "blockNumber": 115312,
      "transactionIndex": 1,
      "confirmations": null,
      "from": "0x99181ED48C7c51532622dA23e20E2B38392476A7",
      "gasPrice": {
        "_hex": "0xdf16a15e1"
      },
      "gasLimit": {
        "_hex": "0x5208"
      },
      "to": "0x32Be343B94f860124dC4fEe278FDCBD38C102D88",
      "value": {
        "_hex": "0x279ceaa5691c0800"
      },
      "nonce": 13,
      "data": "0x",
      "r": "0x3422055e4cd47fc9ff9bd6339a952daa7fa44264f5ba696b6fa8258fea7eb65b",
      "s": "0x77b2e0ce870786eafd2f42b58e5f4b34bcb92a10d5a524a37a4896801397dee2",
      "v": 27,
      "creates": null,
      "raw": "0xf86c0d850df16a15e18252089432be343b94f860124dc4fee278fdcbd38c102d8888279ceaa5691c0800801ba03422055e4cd47fc9ff9bd6339a952daa7fa44264f5ba696b6fa8258fea7eb65ba077b2e0ce870786eafd2f42b58e5f4b34bcb92a10d5a524a37a4896801397dee2",
      "networkId": 0,
      "chainId": 0
    },
    {
      "hash": "0x7334c76f046eff8010a27d912f1ce998395d64b4f2866bbc8fbcb6b68d486206",
      "blockHash": "0xccf06ae6091b30f1f852cbb21cf3b490faf000d05bd62515df3a1cbf71286f01",
      "blockNumber": 115312,
      "transactionIndex": 2,
      "confirmations": null,
      "from": "0x6589D22b54648e5D67Dc008eBd0c836D3DF39c87",
      "gasPrice": {
        "_hex": "0xdf16a15e1"
      },
      "gasLimit": {
        "_hex": "0x5208"
      },
      "to": "0x32Be343B94f860124dC4fEe278FDCBD38C102D88",
      "value": {
        "_hex": "0x32baa2622670cc00"
      },
      "nonce": 10,
      "data": "0x",
      "r": "0x131f7792f66621121266752fd57ac7e7698b2756a01d411eb4aad33d272b4460",
      "s": "0x76100501a0af9d226956bdc7eda649679084ca053e6b54ff6532fa70090a0ec2",
      "v": 28,
      "creates": null,
      "raw": "0xf86c0a850df16a15e18252089432be343b94f860124dc4fee278fdcbd38c102d888832baa2622670cc00801ca0131f7792f66621121266752fd57ac7e7698b2756a01d411eb4aad33d272b4460a076100501a0af9d226956bdc7eda649679084ca053e6b54ff6532fa70090a0ec2",
      "networkId": 0,
      "chainId": 0
    },
    {
      "hash": "0xff4570222933a7d31d882cda537796f007eba49dccfa498d67ebc37d6f1fc9ce",
      "blockHash": "0xccf06ae6091b30f1f852cbb21cf3b490faf000d05bd62515df3a1cbf71286f01",
      "blockNumber": 115312,
      "transactionIndex": 3,
      "confirmations": null,
      "from": "0x61E20833179bA2eCCc2065e5F733CC8CdA7394c0",
      "gasPrice": {
        "_hex": "0xdf16a15e1"
      },
      "gasLimit": {
        "_hex": "0x5208"
      },
      "to": "0x32Be343B94f860124dC4fEe278FDCBD38C102D88",
      "value": {
        "_hex": "0x5de1df42090edc00"
      },
      "nonce": 9,
      "data": "0x",
      "r": "0xd1f87b7413a99e7c27387b7221a6e43150fc32a32c7039b221010282429863ac",
      "s": "0x4868a9e6089a7f2c1d4dc390fe37995392d79b9cdf6ba3c029bd1a22cdb78819",
      "v": 27,
      "creates": null,
      "raw": "0xf86c09850df16a15e18252089432be343b94f860124dc4fee278fdcbd38c102d88885de1df42090edc00801ba0d1f87b7413a99e7c27387b7221a6e43150fc32a32c7039b221010282429863aca04868a9e6089a7f2c1d4dc390fe37995392d79b9cdf6ba3c029bd1a22cdb78819",
      "networkId": 0,
      "chainId": 0
    },
    {
      "hash": "0x2315b52b98aa4159928943e6ecf00ae13fd1c21f8859d5e7d36c5063d836bc72",
      "blockHash": "0xccf06ae6091b30f1f852cbb21cf3b490faf000d05bd62515df3a1cbf71286f01",
      "blockNumber": 115312,
      "transactionIndex": 4,
      "confirmations": null,
      "from": "0x2910543Af39abA0Cd09dBb2D50200b3E800A63D2",
      "gasPrice": {
        "_hex": "0xced414ef9"
      },
      "gasLimit": {
        "_hex": "0x5208"
      },
      "to": "0x4319859681be12b36f4420F4A26FD67429306cD1",
      "value": {
        "_hex": "0xdbb40e24a2ad164000"
      },
      "nonce": 1123,
      "data": "0x",
      "r": "0x64c1873535f64493009d5698e6200968cb8ad8a562d54898e6b9443f45817868",
      "s": "0x3533f2dac778794fdfe1ffa55b9e187df873d69a28c4a781230258459490849d",
      "v": 28,
      "creates": null,
      "raw": "0xf86f820463850ced414ef9825208944319859681be12b36f4420f4a26fd67429306cd189dbb40e24a2ad164000801ca064c1873535f64493009d5698e6200968cb8ad8a562d54898e6b9443f45817868a03533f2dac778794fdfe1ffa55b9e187df873d69a28c4a781230258459490849d",
      "networkId": 0,
      "chainId": 0
    }
  ]
}