{
  "hash": "0x9f9b514d03fc78e21bb763758ce478789e35db280cb1d4f4c738d05035b4baeb",
  "parentHash": "0x9bbb13c96cb612aa32189517a0035e8b568aafedf04af0be63f18e1147e03e1f",
  "number": 47216,
  "timestamp": 1438936272,
  "nonce": "0xb372bb2ec0d28dd9",
  "difficulty": 1458809010925,
  "gasLimit": {
    "_hex": "0xa415"
  },
  "gasUsed": {
    "_hex": "0xa410"
  },
  "miner": "0xbb7B8287f3F0a933474a79eAe42CBCa977791171",
  "extraData": "0x476574682f4c5649562f76312e302e312f6c696e75782f676f312e342e32",
  "transactions": [
    {
      "hash": "0xebe88b31317bc42bb60ccfe0bd03bd731aa7b469c52dd1113813bb99c6b063cf",
      "blockHash": "0x9f9b514d03fc78e21bb763758ce478789e35db280cb1d4f4c738d05035b4baeb",
      "blockNumber": 47216,
      "transactionIndex": 0,
      "confirmations": null,
      "from": "0xe6A7a1d47ff21B6321162AEA7C6CB457D5476Bca",
      "gasPrice": {
        "_hex": "0xcc7215236"
      },
      "gasLimit": {
        "_hex": "0x5208"
      },
      "to": "0x2B15C5211bdA6A867c582080536f6c61766aA5Af",
      "value": {
        "_hex": "0x665f1312c75757f8"
      },
      "nonce": 75,
      "data": "0x",
      "r": "0xeed7de3ef0fb2df05c096404bae973b23d6bbf0293fe77f6af8fdf1812154182",
      "s": "0x61911daeaa7a8309d9b1a5117d6db9edcc0fd2e3f231b0a769c3c3c87d18e526",
      "v": 28,
      "creates": null,
      "raw": "0xf86c4b850cc7215236825208942b15c5211bda6a867c582080536f6c61766aa5af88665f1312c75757f8801ca0eed7de3ef0fb2df05c096404bae973b23d6bbf0293fe77f6af8fdf1812154182a061911daeaa7a8309d9b1a5117d6db9edcc0fd2e3f231b0a769c3c3c87d18e526",
      "networkId": 0,
      "chainId": 0
    },
    {
      "hash": "0xbafafa473fa7d718fa1244674a8e99964bb8de4067b1514f2b4ae63c1e0a8804",
      "blockHash": "0x9f9b514d03fc78e21bb763758ce478789e35db280cb1d4f4c738d05035b4baeb",
      "blockNumber": 47216,
      "transactionIndex": 1,
      "confirmations": null,
      "from": "0xe6A7a1d47ff21B6321162AEA7C6CB457D5476Bca",
      "gasPrice": {
        "_hex": "0xcc7215236"
      },
      "gasLimit": {
        "_hex": "0x5208"
      },
      "to": "0x3fe698DDd00ce16bFb0F2B875D29Cf6B91eB677d",
      "value": {
        "_hex": "0x6a2cc02967a6b5e8"
      },
      "nonce": 76,
      "data": "0x",
      "r": "0x0452f4571722ad5c24c26824821f3598f377f019cb60ee1c9ad616893fecfd57",
      "s": "0x0f6d381f52079dddc1dd1a0c6399996def32fc9ee520ce0869cd5ae5c4f0728f",
      "v": 27,
      "creates": null,
      "raw": "0xf86c4c850cc7215236825208943fe698ddd00ce16bfb0f2b875d29cf6b91eb677d886a2cc02967a6b5e8801ba00452f4571722ad5c24c26824821f3598f377f019cb60ee1c9ad616893fecfd57a00f6d381f52079dddc1dd1a0c6399996def32fc9ee520ce0869cd5ae5c4f0728f",
      "networkId": 0,
      "chainId": 0
    }
  ]
}