{
  "hash": "0x0f573c8565ce438c677fff4fe7c2ab91163339f5c72895404986f11883db6108",
  "parentHash": "0x011fd82f8eeba39c8ff50e55c7ac29ffb749e80be703691d74aa5785b9123845",
  "number": 78283,
  "timestamp": 1439451401,
  "nonce": "0x47f8985ae30f513d",
  "difficulty": 2283197957920,
  "gasLimit": {
    "_hex": "0x2fefd8"
  },
  "gasUsed": {
    "_hex": "0x5208"
  },
  "miner": "0x06D138312754bDEB5c1175f47cE00620c480E9C9",
  "extraData": "0x476574682f76312e302e312f6c696e75782f676f312e342e32",
  "transactions": [
    {
      "hash": "0xb1586888f1099467c48f9547be388d9b8e811a3f732abe75aa572a13bd5d9283",
      "blockHash": "0x0f573c8565ce438c677fff4fe7c2ab91163339f5c72895404986f11883db6108",
      "blockNumber": 78283,
      "transactionIndex": 0,
      "confirmations": null,
      "from": "0x723E05fF30e4ba7A87b4D7D459eE5B488A9c36d1",
      "gasPrice": {
        "_hex": "0xd795b97a6"
      },
      "gasLimit": {
        "_hex": "0x15f90"
      },
      "to": "0xabceA603089850F8f6bB612A9031554D90A247CF",
      "value": {
        "_hex": "0x4563918244f40000"
      },
      "nonce": 13,
      "data": "0x",
      "r": "0x73e8b33edc8dacc0215c33c69a268f469db69a9f9a227630da22364e88e54d8f",
      "s": "0x17f751dd97b05899d66cbba5f14cf534354bacb9c0ab6b925bb1ad254cb78301",
      "v": 28,
      "creates": null,
      "raw": "0xf86d0d850d795b97a683015f9094abcea603089850f8f6bb612a9031554d90a247cf884563918244f40000801ca073e8b33edc8dacc0215c33c69a268f469db69a9f9a227630da22364e88e54d8fa017f751dd97b05899d66cbba5f14cf534354bacb9c0ab6b925bb1ad254cb78301",
      "networkId": 0,
      "chainId": 0
    }
  ]
}