{
  "hash": "0x109e2edf9e57ee8b52ce928927f260c8be1536c52e5fa04d879c62e5d06824c7",
  "parentHash": "0xbaf15968d32c1beb8777cb3547c1f90e796be60717d38fef7ee9c13dcffed265",
  "number": 92855,
  "timestamp": 1439678162,
  "nonce": "0x125118df295d8af2",
  "difficulty": 3649328279355,
  "gasLimit": {
    "_hex": "0x2fefd5"
  },
  "gasUsed": {
    "_hex": "0x5208"
  },
  "miner": "0x2f6BCe4fc330B69C9B4c2694d57C63Ec7B18feC7",
  "extraData": "0x476574682f76312e302e312f77696e646f77732f676f312e342e32",
  "transactions": [
    {
      "hash": "0xc710c2734086034b2b4cb3714a75408a0fb775894438d64c5f0fabe6c40260c1",
      "blockHash": "0x109e2edf9e57ee8b52ce928927f260c8be1536c52e5fa04d879c62e5d06824c7",
      "blockNumber": 92855,
      "transactionIndex": 0,
      "confirmations": null,
      "from": "0xAD220cCE3937674e425c9693786E3eC3615C900C",
      "gasPrice": {
        "_hex": "0xba43b7400"
      },
      "gasLimit": {
        "_hex": "0x5266"
      },
      "to": "0xB4137d028aBB8Dc65A224E4751397d50DdE6c73D",
      "value": {
        "_hex": "0x1598e9212fb3a0000"
      },
      "nonce": 1,
      "data": "0x",
      "r": "0xd8bfb36ab4871a260a9b7a1dc2e5ff11ae3a2bdfc40989ec5ea84f9bf23a0169",
      "s": "0xcd8e82aab8ee8937dac7bbda88034a45eb7b728284a09a96573ecfd20283607b",
      "v": 27,
      "creates": null,
      "raw": "0xf86d01850ba43b740082526694b4137d028abb8dc65a224e4751397d50dde6c73d8901598e9212fb3a0000801ba0d8bfb36ab4871a260a9b7a1dc2e5ff11ae3a2bdfc40989ec5ea84f9bf23a0169a0cd8e82aab8ee8937dac7bbda88034a45eb7b728284a09a96573ecfd20283607b",
      "networkId": 0,
      "chainId": 0
    }
  ]
}