{
  "hash": "0x9ae4c840883c791b277104f6797bbfc777c3626ef27c61932c091a671444bec2",
  "parentHash": "0x50b1167a18e7bfd503cabe7a7aadcbcd54fc68fd43e5795b69e843c11c723eb8",
  "number": 92963,
  "timestamp": 1439680026,
  "nonce": "0x4148dd9720c39712",
  "difficulty": 3649281296001,
  "gasLimit": {
    "_hex": "0x2fefd8"
  },
  "gasUsed": {
    "_hex": "0xb20b"
  },
  "miner": "0x47ff6576639c2e94762eA5443978D7681C0E78DC",
  "extraData": "0x476574682f76312e302e312f6c696e75782f676f312e342e32",
  "transactions": [
    {
      "hash": "0xb32f6dd1524da297c617c369f16c05cdd8901d714962263c76db68a3b57b6606",
      "blockHash": "0x9ae4c840883c791b277104f6797bbfc777c3626ef27c61932c091a671444bec2",
      "blockNumber": 92963,
      "transactionIndex": 0,
      "confirmations": null,
      "from": "0x13032446E7d610AA00eC8C56C9B574D36ca1C016",
      "gasPrice": {
        "_hex": "0x110c8f7d8de"
      },
      "gasLimit": {
        "_hex": "0xc350"
      },
      "to": "0x2910543Af39abA0Cd09dBb2D50200b3E800A63D2",
      "value": {
        "_hex": "0x6c6a3016135fb60000"
      },
      "nonce": 0,
      "data": "0x454e39354357505752",
      "r": "0x05f867d524f5b185c5caaa78acbdbd9f0a08d5b453a1231ca59459c6180d0e6e",
      "s": "0x3609589c19a314ed8f390ea630abfd3062f33f6b71f1e68211dacc95938a4ed2",
      "v": 28,
      "creates": null,
      "raw": "0xf87780860110c8f7d8de82c350942910543af39aba0cd09dbb2d50200b3e800a63d2896c6a3016135fb6000089454e393543575057521ca005f867d524f5b185c5caaa78acbdbd9f0a08d5b453a1231ca59459c6180d0e6ea03609589c19a314ed8f390ea630abfd3062f33f6b71f1e68211dacc95938a4ed2",
      "networkId": 0,
      "chainId": 0
    },
    {
      "hash": "0x27309f242977245bd41fb5afc1abcf24c85f9ea134cf6992d365807bce54c79d",
      "blockHash": "0x9ae4c840883c791b277104f6797bbfc777c3626ef27c61932c091a671444bec2",
      "blockNumber": 92963,
      "transactionIndex": 1,
      "confirmations": null,
      "from": "0xa3979a92760A135adF69d72f75E167755F1cb8C3",
      "gasPrice": {
        "_hex": "0xd4c44f75a"
      },
      "gasLimit": {
        "_hex": "0x15f90"
      },
      "to": "0xCAc7000C7dBaa2E33Af15325AF5D435E011C7BdD",
      "value": {
        "_hex": "0x579848dee9ab30000"
      },
      "nonce": 0,
      "data": "0xb214faa55755594a48384749530000000000000000000000000000000000000000000000",
      "r": "0x6cbcf50b0b4f45530f6587658d2e278f61dcbb1a00c34d5728bf38a43831a06f",
      "s": "0x44f220676fb3f8c8114d7f4357fd6f607f806b5a13d0d0668fed7f852277ef49",
      "v": 28,
      "creates": null,
      "raw": "0xf89280850d4c44f75a83015f9094cac7000c7dbaa2e33af15325af5d435e011c7bdd890579848dee9ab30000a4b214faa55755594a483847495300000000000000000000000000000000000000000000001ca06cbcf50b0b4f45530f6587658d2e278f61dcbb1a00c34d5728bf38a43831a06fa044f220676fb3f8c8114d7f4357fd6f607f806b5a13d0d0668fed7f852277ef49",
      "networkId": 0,
      "chainId": 0
    }
  ]
}