{
  "hash": "0xa463687f71aa452884dc153d15e3c7452723083191dacd7a3e326a807148781c",
  "parentHash": "0x2f9fbd260a69ab92b3f00a6d8f1c01d16ef5456ad6329012e8c49d0d85e5aae0",
  "number": 111853,
  "timestamp": 1439997333,
  "nonce": "0x8ebfb8676865bc7c",
  "difficulty": 4422098389330,
  "gasLimit": {
    "_hex": "0x2fefd8"
  },
  "gasUsed": {
    "_hex": "0x5208"
  },
  "miner": "0x88D74a59454F6cF3B51ef6b9136AFb6b9D405A88",
  "extraData": "0x",
  "transactions": [
    {
      "hash": "0xa3bd1ab08c418aa8c1d5caa2e6cb927e9101461b08c1086ef4a57841e879c0b0",
      "blockHash": "0xa463687f71aa452884dc153d15e3c7452723083191dacd7a3e326a807148781c",
      "blockNumber": 111853,
      "transactionIndex": 0,
      "confirmations": null,
      "from": "0xc93a69dFC0fb3E867D9207599f7fe87d51619635",
      "gasPrice": {
        "_hex": "0xba43b7400"
      },
      "gasLimit": {
        "_hex": "0x5208"
      },
      "to": "0xC47Aaa860008be6f65B58c6C6E02a84e666EfE31",
      "value": {
        "_hex": "0x821a7524be7946000"
      },
      "nonce": 16,
      "data": "0x",
      "r": "0xc271dc0b6fddcc3653f2f2a7fb6ab3167b70995784504837374e6dcaeaf2877d",
      "s": "0x779c53b0f19131cb8e7ba9bf916798172b9952b877f4efc5f52bf255941f3972",
      "v": 28,
      "creates": null,
      "raw": "0xf86d10850ba43b740082520894c47aaa860008be6f65b58c6c6e02a84e666efe31890821a7524be7946000801ca0c271dc0b6fddcc3653f2f2a7fb6ab3167b70995784504837374e6dcaeaf2877da0779c53b0f19131cb8e7ba9bf916798172b9952b877f4efc5f52bf255941f3972",
      "networkId": 0,
      "chainId": 0
    }
  ]
}