{
  "hash": "0xef06cd550da91b0cb2f6b13918b3d0f2d8f4401b4359302892a2147f2df5999c",
  "parentHash": "0x5c5b91c02c1e2324c9089d94c367211c58215db63fb678bc0c3fae4050eed567",
  "number": 98067,
  "timestamp": 1439766552,
  "nonce": "0xd08729de9de35f43",
  "difficulty": 3867141305566,
  "gasLimit": {
    "_hex": "0x2fefd8"
  },
  "gasUsed": {
    "_hex": "0x546c"
  },
  "miner": "0x31995C46B15C84523cDEE26f49A681b8237e43F5",
  "extraData": "0x476574682f76312e302e312f77696e646f77732f676f312e342e32",
  "transactions": [
    {
      "hash": "0x33db8bb34adce5b44f161b281d3beda8ab88e079a590accbdcafe48d44a113b1",
      "blockHash": "0xef06cd550da91b0cb2f6b13918b3d0f2d8f4401b4359302892a2147f2df5999c",
      "blockNumber": 98067,
      "transactionIndex": 0,
      "confirmations": null,
      "from": "0x31995C46B15C84523cDEE26f49A681b8237e43F5",
      "gasPrice": {
        "_hex": "0xcd37c58e0"
      },
      "gasLimit": {
        "_hex": "0x7530"
      },
      "to": "0x2910543Af39abA0Cd09dBb2D50200b3E800A63D2",
      "value": {
        "_hex": "0x70c1cc73b00c80000"
      },
      "nonce": 6,
      "data": "0x454e3651304d384252",
      "r": "0x347e33f173ffa1d9c7533c4fe1d8ebf944e9795284fbe3806af1aab63da002b3",
      "s": "0x73e6023950d8a069149004addaf64a51675792acfe0101050d03701bd81ce19c",
      "v": 28,
      "creates": null,
      "raw": "0xf87606850cd37c58e0827530942910543af39aba0cd09dbb2d50200b3e800a63d289070c1cc73b00c8000089454e3651304d3842521ca0347e33f173ffa1d9c7533c4fe1d8ebf944e9795284fbe3806af1aab63da002b3a073e6023950d8a069149004addaf64a51675792acfe0101050d03701bd81ce19c",
      "networkId": 0,
      "chainId": 0
    }
  ]
}