{
  "hash": "0x42b8f795551cf0fb5c73e9461f1b9d8109c2c833d11f80e251e37b336c255107",
  "parentHash": "0xb9cd935f2a97c4b55bc6cc23b4d1ee8dc12fd1a7bb18bfeca4e4239ee746c1e2",
  "number": 54372,
  "timestamp": 1439053151,
  "nonce": "0xee4552c2c54031ca",
  "difficulty": 1610229439675,
  "gasLimit": {
    "_hex": "0x2fefd8"
  },
  "gasUsed": {
    "_hex": "0x6c1b1"
  },
  "miner": "0xbb7B8287f3F0a933474a79eAe42CBCa977791171",
  "extraData": "0x476574682f4c5649562f76312e302e312f6c696e75782f676f312e342e32",
  "transactions": [
    {
      "hash": "0x124099cf8e6bfa408695b615258bc29e1662aab04bafe23c50113422eb207534",
      "blockHash": "0x42b8f795551cf0fb5c73e9461f1b9d8109c2c833d11f80e251e37b336c255107",
      "blockNumber": 54372,
      "transactionIndex": 0,
      "confirmations": null,
      "from": "0x30FbE5885F9fCcE9Ea5EdB82Ed4a1196dd259aEd",
      "gasPrice": {
        "_hex": "0xd3d37f23a"
      },
      "gasLimit": {
        "_hex": "0x15f90"
      },
      "to": "0xf85787F98B727466F7A58c9424AbD404baBE6ede",
      "value": {
        "_hex": "0x2386f26fc10000"
      },
      "nonce": 3,
      "data": "0x",
      "r": "0x917bea67ab11cd6f2ec601149ab32b214978b20635f118075627d643594c113e",
      "s": "0x0e975ce616fc33e8323961243aacfbdddd6ee8ab7e5c17087c696cacedfc99b8",
      "v": 27,
      "creates": null,
      "raw": "0xf86c03850d3d37f23a83015f9094f85787f98b727466f7a58c9424abd404babe6ede872386f26fc10000801ba0917bea67ab11cd6f2ec601149ab32b214978b20635f118075627d643594c113ea00e975ce616fc33e8323961243aacfbdddd6ee8ab7e5c17087c696cacedfc99b8",
      "networkId": 0,
      "chainId": 0
    },
    {
      "hash": "0x80cfe6ad0f66cd755f41d2780c5ee3f879268d80de0171ce1b5597d372162d37",
      "blockHash": "0x42b8f795551cf0fb5c73e9461f1b9d8109c2c833d11f80e251e37b336c255107",
      "blockNumber": 54372,
      "transactionIndex": 1,
      "confirmations": null,
      "from": "0x8674c218F0351a62C3BA78C34FD2182A93Da94E2",
      "gasPrice": {
        "_hex": "0xd345a1354"
      },
      "gasLimit": {
        "_hex": "0xf4240"
      },
      "to": null,
      "value": {
        "_hex": "0x0"
      },
      "nonce": 29,
      "data": "0x60606040526105dd806100136000396000f3006060604052361561006c5760e060020a60003504630a936fe5811461006e57806315853113146100e357806339bfc4a1146101165780636939cd971461014e578063affed0e0146101de578063c36948b5146101e7578063de6f24bb14610219578063fe1e3eca146102e9575b005b6040805160208181018352600080835233600160a060020a0316815260018252839020805484518184028101840190955280855261035494928301828280156100d957602002820191906000526020600020905b8160005054815260200190600101908083116100c2575b5050505050905090565b61039e60043560243560016020526000828152604090208054829081101561000257506000908152602090200154905081565b61039e600435600160a060020a03331660009081526020818152604080832084845290915290205467ffffffffffffffff165b919050565b6103b060043560408051602081810183526000808352600160a060020a0333168152808252838120858252825283902060010180548451601f820184900484028101840190955280855292939290918301828280156101d257820191906000526020600020905b8154815290600101906020018083116101b557829003601f168201915b50505050509050610149565b61039e60025481565b61041e60043560243560006020818152928152604080822090935290815220805467ffffffffffffffff169060010182565b60408051602060248035600481810135601f810185900485028601850190965285855261006c9590359460449490939290920191819084018382808284375094955050505050506002805460018181019092556000805467ffffffffffffffff191642178155835183548185558483529293849390916020601f929092018290047fb10e2d527612073b26eecdfd717e6a320cf44b4afac2b0732d9fcbe2b7fa0cf6908101928801821561051e579182015b8281111561051e5782518260005055916020019190600101906102cb565b61006c600435600160a060020a03331660009081526020818152604080832084845282528220805467ffffffffffffffff191681556001810180548482559084528284209192849261048992601f01919091048101905b808211156105165760008155600101610340565b60405180806020018281038252838181518152602001915080519060200190602002808383829060006004602084601f0104600302600f01f1509050019250505060405180910390f35b60408051918252519081900360200190f35b60405180806020018281038252838181518152602001915080519060200190808383829060006004602084601f0104600302600f01f150905090810190601f1680156104105780820380516001836020036101000a031916815260200191505b509250505060405180910390f35b604051808367ffffffffffffffff16815260200180602001828103825283818154815260200191508054801561047957820191906000526020600020905b81548152906001019060200180831161045c57829003601f168201915b5050935050505060405180910390f35b505050600090505b600160a060020a03331660009081526001602052604090205481101561051a5760406000208054839190839081101561000257600091825260209091200154141561050e576001600050600033600160a060020a031681526020019081526020016000206000508181548110156100025760009182526020822001555b600101610491565b5090565b5050565b5061052a929150610340565b5050600160a060020a038516600090815260208181526040808320858452825282208354815467ffffffffffffffff191667ffffffffffffffff9190911617815560018481018054918301805483825581875295859020879694959194601f01919091048101929182156105c657600052602060002091601f016020900482015b828111156105c65782548255916001019190600101906105ab565b506105d2929150610340565b50505050505050505056",
      "r": "0xa503ebd47f69f71ff4c6c4b7f98e7a5d0d5a5bb7456b2730dca569022f3ad6b4",
      "s": "0x60873194da3dd53ad2397acebbc1ddf2883386f0d22bc3a033b7ae10d11b0b34",
      "v": 27,
      "creates": "0x839333261d34dBf8d3bac21e8237252249d38deA",
      "raw": "0xf906431d850d345a1354830f42408080b905f060606040526105dd806100136000396000f3006060604052361561006c5760e060020a60003504630a936fe5811461006e57806315853113146100e357806339bfc4a1146101165780636939cd971461014e578063affed0e0146101de578063c36948b5146101e7578063de6f24bb14610219578063fe1e3eca146102e9575b005b6040805160208181018352600080835233600160a060020a0316815260018252839020805484518184028101840190955280855261035494928301828280156100d957602002820191906000526020600020905b8160005054815260200190600101908083116100c2575b5050505050905090565b61039e60043560243560016020526000828152604090208054829081101561000257506000908152602090200154905081565b61039e600435600160a060020a03331660009081526020818152604080832084845290915290205467ffffffffffffffff165b919050565b6103b060043560408051602081810183526000808352600160a060020a0333168152808252838120858252825283902060010180548451601f820184900484028101840190955280855292939290918301828280156101d257820191906000526020600020905b8154815290600101906020018083116101b557829003601f168201915b50505050509050610149565b61039e60025481565b61041e60043560243560006020818152928152604080822090935290815220805467ffffffffffffffff169060010182565b60408051602060248035600481810135601f810185900485028601850190965285855261006c9590359460449490939290920191819084018382808284375094955050505050506002805460018181019092556000805467ffffffffffffffff191642178155835183548185558483529293849390916020601f929092018290047fb10e2d527612073b26eecdfd717e6a320cf44b4afac2b0732d9fcbe2b7fa0cf6908101928801821561051e579182015b8281111561051e5782518260005055916020019190600101906102cb565b61006c600435600160a060020a03331660009081526020818152604080832084845282528220805467ffffffffffffffff191681556001810180548482559084528284209192849261048992601f01919091048101905b808211156105165760008155600101610340565b60405180806020018281038252838181518152602001915080519060200190602002808383829060006004602084601f0104600302600f01f1509050019250505060405180910390f35b60408051918252519081900360200190f35b60405180806020018281038252838181518152602001915080519060200190808383829060006004602084601f0104600302600f01f150905090810190601f1680156104105780820380516001836020036101000a031916815260200191505b509250505060405180910390f35b604051808367ffffffffffffffff16815260200180602001828103825283818154815260200191508054801561047957820191906000526020600020905b81548152906001019060200180831161045c57829003601f168201915b5050935050505060405180910390f35b505050600090505b600160a060020a03331660009081526001602052604090205481101561051a5760406000208054839190839081101561000257600091825260209091200154141561050e576001600050600033600160a060020a031681526020019081526020016000206000508181548110156100025760009182526020822001555b600101610491565b5090565b5050565b5061052a929150610340565b5050600160a060020a038516600090815260208181526040808320858452825282208354815467ffffffffffffffff191667ffffffffffffffff9190911617815560018481018054918301805483825581875295859020879694959194601f01919091048101929182156105c657600052602060002091601f016020900482015b828111156105c65782548255916001019190600101906105ab565b506105d2929150610340565b505050505050505050561ba0a503ebd47f69f71ff4c6c4b7f98e7a5d0d5a5bb7456b2730dca569022f3ad6b4a060873194da3dd53ad2397acebbc1ddf2883386f0d22bc3a033b7ae10d11b0b34",
      "networkId": 0,
      "chainId": 0
    }
  ]
}