{
  "hash": "0xc6c5c18ff89a6abc44e98a691d26f44b1243c63996fc87ad2ce1134d995b69a8",
  "parentHash": "0x5cc9f1f5b5a19f14c020424a956b080aface0ce41a1a61e04f04e0126371707f",
  "number": 105397,
  "timestamp": 1439886950,
  "nonce": "0x81eded810557b586",
  "difficulty": 4365409814309,
  "gasLimit": {
    "_hex": "0x2fefd8"
  },
  "gasUsed": {
    "_hex": "0xa410"
  },
  "miner": "0xe6A7a1d47ff21B6321162AEA7C6CB457D5476Bca",
  "extraData": "0x476574682f76312e302e312d38326566323666362f6c696e75782f676f312e34",
  "transactions": [
    {
      "hash": "0x269c509e48c527bcda4ea4c5ae3e6f952758d4842ea158e355fea8534ea24d4e",
      "blockHash": "0xc6c5c18ff89a6abc44e98a691d26f44b1243c63996fc87ad2ce1134d995b69a8",
      "blockNumber": 105397,
      "transactionIndex": 0,
      "confirmations": null,
      "from": "0x03bbfbb9d362b4B1C6a113BE654A0190Fc6aEa80",
      "gasPrice": {
        "_hex": "0xd23a0ae85"
      },
      "gasLimit": {
        "_hex": "0x5208"
      },
      "to": "0x32Be343B94f860124dC4fEe278FDCBD38C102D88",
      "value": {
        "_hex": "0xc50779fd80996000"
      },
      "nonce": 6,
      "data": "0x",
      "r": "0x61264405f93f56bbaef73a9302b43706d712764e5bf380e8eba3c5d5ecca84de",
      "s": "0x52a0531c62be42fc7fd9d84b410c2e85b6d9da96574033fbdd10e536bc85da02",
      "v": 28,
      "creates": null,
      "raw": "0xf86c06850d23a0ae858252089432be343b94f860124dc4fee278fdcbd38c102d8888c50779fd80996000801ca061264405f93f56bbaef73a9302b43706d712764e5bf380e8eba3c5d5ecca84dea052a0531c62be42fc7fd9d84b410c2e85b6d9da96574033fbdd10e536bc85da02",
      "networkId": 0,
      "chainId": 0
    },
    {
      "hash": "0xa91d82e39ccc2376c5e2b9450f34d38df407b6f614e2f51699b880ed3c19c6fa",
      "blockHash": "0xc6c5c18ff89a6abc44e98a691d26f44b1243c63996fc87ad2ce1134d995b69a8",
      "blockNumber": 105397,
      "transactionIndex": 1,
      "confirmations": null,
      "from": "0x3b09EfC81d5e3F72737B4063883CEDdfBc79ae88",
      "gasPrice": {
        "_hex": "0xd23a0ae85"
      },
      "gasLimit": {
        "_hex": "0x5208"
      },
      "to": "0x32Be343B94f860124dC4fEe278FDCBD38C102D88",
      "value": {
        "_hex": "0x6c7ff4794f78b000"
      },
      "nonce": 6,
      "data": "0x",
      "r": "0x9197481d98d168d5634ce3f1a70a21b60fd8004efd5775249641e522cf674d0c",
      "s": "0x3555defe1e4aaa888249f4aad31e78405664123a3e96ca3ee09f705785e0bff2",
      "v": 28,
      "creates": null,
      "raw": "0xf86c06850d23a0ae858252089432be343b94f860124dc4fee278fdcbd38c102d88886c7ff4794f78b000801ca09197481d98d168d5634ce3f1a70a21b60fd8004efd5775249641e522cf674d0ca03555defe1e4aaa888249f4aad31e78405664123a3e96ca3ee09f705785e0bff2",
      "networkId": 0,
      "chainId": 0
    }
  ]
}