{
  "hash": "0xe6b37f760df75eb77be7ed9613a9cf4c5363f0c5304303dbb8d5c8a6d68dc3dc",
  "parentHash": "0x833433f29ee4de76dc1af9c608922dcb1de0a69a7e9d19f1911c1b20fe97f054",
  "number": 86735,
  "timestamp": 1439582133,
  "nonce": "0x5bc1f2c03e609f9e",
  "difficulty": 2948821131721,
  "gasLimit": {
    "_hex": "0x2fefd8"
  },
  "gasUsed": {
    "_hex": "0x14820"
  },
  "miner": "0x790b8a3cE86E707ED0eD32bF89B3269692a23CC1",
  "extraData": "0xd783010001844765746887676f312e342e32856c696e7578",
  "transactions": [
    {
      "hash": "0x2c5e579d3995771a96ccd51fd0b0e74c510f73b0af91468a2aa71a065c81a65a",
      "blockHash": "0xe6b37f760df75eb77be7ed9613a9cf4c5363f0c5304303dbb8d5c8a6d68dc3dc",
      "blockNumber": 86735,
      "transactionIndex": 0,
      "confirmations": null,
      "from": "0xeFFFe92E81e65eA3AD7C8C87D370e1CD31b0cac4",
      "gasPrice": {
        "_hex": "0xd1fffa6ad"
      },
      "gasLimit": {
        "_hex": "0x5208"
      },
      "to": "0x32Be343B94f860124dC4fEe278FDCBD38C102D88",
      "value": {
        "_hex": "0xf7021a0a909fb000"
      },
      "nonce": 1,
      "data": "0x",
      "r": "0x262bd18eeecd0c7c195f6bebe44ba61af60528f0b6db314f98fc56ebb13630e1",
      "s": "0x638beed243bda730e3b0794cc579436d1076076438b43675ff97e1461b069689",
      "v": 27,
      "creates": null,
      "raw": "0xf86c01850d1fffa6ad8252089432be343b94f860124dc4fee278fdcbd38c102d8888f7021a0a909fb000801ba0262bd18eeecd0c7c195f6bebe44ba61af60528f0b6db314f98fc56ebb13630e1a0638beed243bda730e3b0794cc579436d1076076438b43675ff97e1461b069689",
      "networkId": 0,
      "chainId": 0
    },
    {
      "hash": "0x77658b0e0e2d4212a377d65984c4ea1a19c3055101535e437ccafb790028bf50",
      "blockHash": "0xe6b37f760df75eb77be7ed9613a9cf4c5363f0c5304303dbb8d5c8a6d68dc3dc",
      "blockNumber": 86735,
      "transactionIndex": 1,
      "confirmations": null,
      "from": "0x132ACC4ebA2B5039C65849368648bc19f32BEd97",
      "gasPrice": {
        "_hex": "0xd1fffa6ad"
      },
      "gasLimit": {
        "_hex": "0x5208"
      },
      "to": "0x32Be343B94f860124dC4fEe278FDCBD38C102D88",
      "value": {
        "_hex": "0xddc820abce7d000"
      },
      "nonce": 0,
      "data": "0x",
      "r": "0xf3de5d455a1b0eb5fcf13237b546b2f45c004c26ba73c56e1df33d1fba9004fe",
      "s": "0x198466b0aa1fc57c44f74615aeccd3030adb45006dda15268cb147113d8d3360",
      "v": 28,
      "creates": null,
      "raw": "0xf86c80850d1fffa6ad8252089432be343b94f860124dc4fee278fdcbd38c102d88880ddc820abce7d000801ca0f3de5d455a1b0eb5fcf13237b546b2f45c004c26ba73c56e1df33d1fba9004fea0198466b0aa1fc57c44f74615aeccd3030adb45006dda15268cb147113d8d3360",
      "networkId": 0,
      "chainId": 0
    },
    {
      "hash": "0x8c63caa0614f761689b6967a6977312729d7f95089c2228e82059868f2b5c819",
      "blockHash": "0xe6b37f760df75eb77be7ed9613a9cf4c5363f0c5304303dbb8d5c8a6d68dc3dc",
      "blockNumber": 86735,
      "transactionIndex": 2,
      "confirmations": null,
      "from": "0xF5618B657f42AEf0189AD783731715e5667CdDab",
      "gasPrice": {
        "_hex": "0xd1fffa6ad"
      },
      "gasLimit": {
        "_hex": "0x5208"
      },
      "to": "0x32Be343B94f860124dC4fEe278FDCBD38C102D88",
      "value": {
        "_hex": "0xbe57f106682cd000"
      },
      "nonce": 0,
      "data": "0x",
      "r": "0x3113326658b42d7343e48e5dd32fb80674cec88e1b59a54a61b6e3b03dc3177a",
      "s": "0x2c18cd511f29eb713973aea5397624fcb6885aaa956d6ace9d5437f1e3b69766",
      "v": 27,
      "creates": null,
      "raw": "0xf86c80850d1fffa6ad8252089432be343b94f860124dc4fee278fdcbd38c102d8888be57f106682cd000801ba03113326658b42d7343e48e5dd32fb80674cec88e1b59a54a61b6e3b03dc3177aa02c18cd511f29eb713973aea5397624fcb6885aaa956d6ace9d5437f1e3b69766",
      "networkId": 0,
      "chainId": 0
    },
    {
      "hash": "0xfa5dbc742aae2db46126d74f02729c3d2059088d7e75fe18925095c02d19a4a1",
      "blockHash": "0xe6b37f760df75eb77be7ed9613a9cf4c5363f0c5304303dbb8d5c8a6d68dc3dc",
      "blockNumber": 86735,
      "transactionIndex": 3,
      "confirmations": null,
      "from": "0x32Be343B94f860124dC4fEe278FDCBD38C102D88",
      "gasPrice": {
        "_hex": "0xd1fffa6ad"
      },
      "gasLimit": {
        "_hex": "0x5208"
      },
      "to": "0xA55d7191414077D72850992A603Fa1db834bfB74",
      "value": {
        "_hex": "0xde0b6b3a7640000"
      },
      "nonce": 765,
      "data": "0x",
      "r": "0xae402cc1d3d204b871bd35e3bca8789271e4c8f95735468d4ccc8a44263da635",
      "s": "0x168bdfc6d4425e3e6db6816809d30cd2776c7aeee34d4028f8567e33b8e2c958",
      "v": 28,
      "creates": null,
      "raw": "0xf86e8202fd850d1fffa6ad82520894a55d7191414077d72850992a603fa1db834bfb74880de0b6b3a7640000801ca0ae402cc1d3d204b871bd35e3bca8789271e4c8f95735468d4ccc8a44263da635a0168bdfc6d4425e3e6db6816809d30cd2776c7aeee34d4028f8567e33b8e2c958",
      "networkId": 0,
      "chainId": 0
    }
  ]
}