{
  "hash": "0x79ad046d1a66526d3270dbdbdfb69261b151b1d6567e36ef9faa0c047fb0a549",
  "parentHash": "0x13c0177922cea71e6bf2ec4f22cf0cbff0b52d91cdb099260a09465f769893b3",
  "number": 71922,
  "timestamp": 1439344010,
  "nonce": "0xd7aa710856c30866",
  "difficulty": 2172855912596,
  "gasLimit": {
    "_hex": "0x2fefd8"
  },
  "gasUsed": {
    "_hex": "0x9400"
  },
  "miner": "0x39A1BB80a741bF5EC39FB9BE59408Fa0F418fFBf",
  "extraData": "0x476574682f76312e302e312f77696e646f77732f676f312e342e32",
  "transactions": [
    {
      "hash": "0x2b0e23551411ef999003ccfc77e0728cd0d1175d94375b404df64bafeb7fb099",
      "blockHash": "0x79ad046d1a66526d3270dbdbdfb69261b151b1d6567e36ef9faa0c047fb0a549",
      "blockNumber": 71922,
      "transactionIndex": 0,
      "confirmations": null,
      "from": "0x17580B766f7453525ca4C6A88b01b50570EA088C",
      "gasPrice": {
        "_hex": "0xcde12db31"
      },
      "gasLimit": {
        "_hex": "0x61a80"
      },
      "to": "0x5Fe5B7546D1628f7348B023A0393de1FC825A4fD",
      "value": {
        "_hex": "0x29a2241af62c0000"
      },
      "nonce": 296,
      "data": "0xb595b8b50000000000000000000000000000000000000000000000000000000000000001",
      "r": "0x2d6b2d5e2f12479f1ba93123be41c1d7da07b111ddb4a2301617ffb1e91c0a3e",
      "s": "0x771fe81345557833675784cfea741c0d5123f1e3fd49222715ff27d9baed1669",
      "v": 27,
      "creates": null,
      "raw": "0xf893820128850cde12db3183061a80945fe5b7546d1628f7348b023a0393de1fc825a4fd8829a2241af62c0000a4b595b8b500000000000000000000000000000000000000000000000000000000000000011ba02d6b2d5e2f12479f1ba93123be41c1d7da07b111ddb4a2301617ffb1e91c0a3ea0771fe81345557833675784cfea741c0d5123f1e3fd49222715ff27d9baed1669",
      "networkId": 0,
      "chainId": 0
    }
  ]
}