{
  "hash": "0xfa2af6b25333ec7cb968e7bd654c6833e04a7e5197b3d870c99abffd25287dcc",
  "parentHash": "0x57caeb29015dbc56108b78af237f19bc9667579b4dc1689fb35264dc22ae2042",
  "number": 91095,
  "timestamp": 1439650514,
  "nonce": "0xa536efca761d7034",
  "difficulty": 3425599039478,
  "gasLimit": {
    "_hex": "0x2fefd8"
  },
  "gasUsed": {
    "_hex": "0x1ec30"
  },
  "miner": "0xe6A7a1d47ff21B6321162AEA7C6CB457D5476Bca",
  "extraData": "0x476574682f76312e302e312d38326566323666362f6c696e75782f676f312e34",
  "transactions": [
    {
      "hash": "0x83c768e82244a2056a69033330eeca2fb4dc8b38eaf8fb9b313f711112c57725",
      "blockHash": "0xfa2af6b25333ec7cb968e7bd654c6833e04a7e5197b3d870c99abffd25287dcc",
      "blockNumber": 91095,
      "transactionIndex": 0,
      "confirmations": null,
      "from": "0x9c4dB3C798408A4e36e443c1141E182809BD5e50",
      "gasPrice": {
        "_hex": "0xba43b7400"
      },
      "gasLimit": {
        "_hex": "0x5208"
      },
      "to": "0xC47Aaa860008be6f65B58c6C6E02a84e666EfE31",
      "value": {
        "_hex": "0x299e6922c92838f0"
      },
      "nonce": 1,
      "data": "0x",
      "r": "0xdbdf1bafc9685123b3d6935305273de72629d99daa11f8f7faaede913fb37b23",
      "s": "0x09d4d6f75eba467a0d61475b5a6794f583ba1a3b2bcab96ad785e2304a257341",
      "v": 28,
      "creates": null,
      "raw": "0xf86c01850ba43b740082520894c47aaa860008be6f65b58c6c6e02a84e666efe3188299e6922c92838f0801ca0dbdf1bafc9685123b3d6935305273de72629d99daa11f8f7faaede913fb37b23a009d4d6f75eba467a0d61475b5a6794f583ba1a3b2bcab96ad785e2304a257341",
      "networkId": 0,
      "chainId": 0
    },
    {
      "hash": "0x5c2333685d77c4b6c1b0f2404e3f463def7661679a5e616fb9a3549467103e94",
      "blockHash": "0xfa2af6b25333ec7cb968e7bd654c6833e04a7e5197b3d870c99abffd25287dcc",
      "blockNumber": 91095,
      "transactionIndex": 1,
      "confirmations": null,
      "from": "0x0c14C4F9C34AA06e66dDa6AEa1419753d96092DC",
      "gasPrice": {
        "_hex": "0xba43b7400"
      },
      "gasLimit": {
        "_hex": "0x5208"
      },
      "to": "0xC47Aaa860008be6f65B58c6C6E02a84e666EfE31",
      "value": {
        "_hex": "0x36a493b3e04986000"
      },
      "nonce": 1,
      "data": "0x",
      "r": "0xc65f19ded7ac1173117108862d107548d8fafb74af7bc5e2a04010b2c3c79d04",
      "s": "0x7ec6766b8f6fd022b0f5939fe1cc33b251cbdaa824598773bcd4eaa7fbb91d8b",
      "v": 27,
      "creates": null,
      "raw": "0xf86d01850ba43b740082520894c47aaa860008be6f65b58c6c6e02a84e666efe3189036a493b3e04986000801ba0c65f19ded7ac1173117108862d107548d8fafb74af7bc5e2a04010b2c3c79d04a07ec6766b8f6fd022b0f5939fe1cc33b251cbdaa824598773bcd4eaa7fbb91d8b",
      "networkId": 0,
      "chainId": 0
    },
    {
      "hash": "0x7316ba3e71b216ee7abc651a19c9c4c3881d9e4b2fedd4fada3b6596c820e69d",
      "blockHash": "0xfa2af6b25333ec7cb968e7bd654c6833e04a7e5197b3d870c99abffd25287dcc",
      "blockNumber": 91095,
      "transactionIndex": 2,
      "confirmations": null,
      "from": "0x9c4dB3C798408A4e36e443c1141E182809BD5e50",
      "gasPrice": {
        "_hex": "0xba43b7400"
      },
      "gasLimit": {
        "_hex": "0x5208"
      },
      "to": "0xC47Aaa860008be6f65B58c6C6E02a84e666EfE31",
      "value": {
        "_hex": "0x299e6922c92838f0"
      },
      "nonce": 2,
      "data": "0x",
      "r": "0x7f330a3a0df4e87ce85ba66869b11e31ba1c73fcfaf43b32e3539b36aa59441a",
      "s": "0x119f1f47e21a30824b6937883bbe499b7c4581e993344017554d56b6c398e39e",
      "v": 28,
      "creates": null,
      "raw": "0xf86c02850ba43b740082520894c47aaa860008be6f65b58c6c6e02a84e666efe3188299e6922c92838f0801ca07f330a3a0df4e87ce85ba66869b11e31ba1c73fcfaf43b32e3539b36aa59441aa0119f1f47e21a30824b6937883bbe499b7c4581e993344017554d56b6c398e39e",
      "networkId": 0,
      "chainId": 0
    },
    {
      "hash": "0x7a5ba7afce158ad2ac704d174b2001fff8e0a42f72217b53defd9be71900da7c",
      "blockHash": "0xfa2af6b25333ec7cb968e7bd654c6833e04a7e5197b3d870c99abffd25287dcc",
      "blockNumber": 91095,
      "transactionIndex": 3,
      "confirmations": null,
      "from": "0x5e1E5C470DFbE20120224C1358Bb193e5837C840",
      "gasPrice": {
        "_hex": "0xba43b7400"
      },
      "gasLimit": {
        "_hex": "0x5208"
      },
      "to": "0xC47Aaa860008be6f65B58c6C6E02a84e666EfE31",
      "value": {
        "_hex": "0x3e6f7b30443e38f0"
      },
      "nonce": 0,
      "data": "0x",
      "r": "0x89794caaccdbb38f0a3ff31171d8b2253a350b0bc158092068fe2123b7edd56f",
      "s": "0x77bc3f2c962c9648c01bfc1fa0d291d61c124c32610c173ba898c63c4ce7fbb1",
      "v": 27,
      "creates": null,
      "raw": "0xf86c80850ba43b740082520894c47aaa860008be6f65b58c6c6e02a84e666efe31883e6f7b30443e38f0801ba089794caaccdbb38f0a3ff31171d8b2253a350b0bc158092068fe2123b7edd56fa077bc3f2c962c9648c01bfc1fa0d291d61c124c32610c173ba898c63c4ce7fbb1",
      "networkId": 0,
      "chainId": 0
    },
    {
      "hash": "0xec2c8cd7144fdfb42907766930091839468e8626bfcbf05b1dac9405a546537e",
      "blockHash": "0xfa2af6b25333ec7cb968e7bd654c6833e04a7e5197b3d870c99abffd25287dcc",
      "blockNumber": 91095,
      "transactionIndex": 4,
      "confirmations": null,
      "from": "0x5F28bcc5faFC8982536A9e4be559657998CdE1E3",
      "gasPrice": {
        "_hex": "0xba43b7400"
      },
      "gasLimit": {
        "_hex": "0x5208"
      },
      "to": "0xC47Aaa860008be6f65B58c6C6E02a84e666EfE31",
      "value": {
        "_hex": "0xc52bc62d3166a4c00"
      },
      "nonce": 12,
      "data": "0x",
      "r": "0xcf71fbac04cd81110c7dd55bde798aa9473558d5c6abb3e6799be8ecff9e9341",
      "s": "0x67b35f966b4443f18ae24bb6e9d5cbd4b052a341327f7b303d85029402d95aef",
      "v": 27,
      "creates": null,
      "raw": "0xf86d0c850ba43b740082520894c47aaa860008be6f65b58c6c6e02a84e666efe31890c52bc62d3166a4c00801ba0cf71fbac04cd81110c7dd55bde798aa9473558d5c6abb3e6799be8ecff9e9341a067b35f966b4443f18ae24bb6e9d5cbd4b052a341327f7b303d85029402d95aef",
      "networkId": 0,
      "chainId": 0
    },
    {
      "hash": "0xa30175988b4b47386934f0693eace247e11a9bfb0638fc14dc39bd771083790a",
      "blockHash": "0xfa2af6b25333ec7cb968e7bd654c6833e04a7e5197b3d870c99abffd25287dcc",
      "blockNumber": 91095,
      "transactionIndex": 5,
      "confirmations": null,
      "from": "0x19939AD9F09d103B670c9EE56cA41d5764380f8A",
      "gasPrice": {
        "_hex": "0xba43b7400"
      },
      "gasLimit": {
        "_hex": "0x5208"
      },
      "to": "0xC47Aaa860008be6f65B58c6C6E02a84e666EfE31",
      "value": {
        "_hex": "0xe6b178539646000"
      },
      "nonce": 2,
      "data": "0x",
      "r": "0x1e3c2dd77320589f9994162284d2204abe9f463ba904031cea6e29f6c250f71a",
      "s": "0x75844b6ecd13cc362e8cd4a364170c3655ad16d2cb21e5a2f16acf6f048ded2e",
      "v": 27,
      "creates": null,
      "raw": "0xf86c02850ba43b740082520894c47aaa860008be6f65b58c6c6e02a84e666efe31880e6b178539646000801ba01e3c2dd77320589f9994162284d2204abe9f463ba904031cea6e29f6c250f71aa075844b6ecd13cc362e8cd4a364170c3655ad16d2cb21e5a2f16acf6f048ded2e",
      "networkId": 0,
      "chainId": 0
    }
  ]
}