{
  "hash": "0xbd05d299549e48e1d1c99b216be58edb5a3261ec98ed77dbab5f1000e4006def",
  "parentHash": "0xf32986fc6f138f28d48140146b3730b26261ec826efa7831191ef9ebcdb9960a",
  "number": 74474,
  "timestamp": 1439386554,
  "nonce": "0xc464067530cd3fb4",
  "difficulty": 2219368166243,
  "gasLimit": {
    "_hex": "0x2fefd8"
  },
  "gasUsed": {
    "_hex": "0x52c8"
  },
  "miner": "0xfFcD9CAE6d9f54fd8ae05296F839892677ff6EaA",
  "extraData": "0x476574682f76312e302e312f77696e646f77732f676f312e342e32",
  "transactions": [
    {
      "hash": "0xe949362b0e99ddd43e05c1ec17a9955a2d1ca930c767a46bfeeca75d1e9bffc5",
      "blockHash": "0xbd05d299549e48e1d1c99b216be58edb5a3261ec98ed77dbab5f1000e4006def",
      "blockNumber": 74474,
      "transactionIndex": 0,
      "confirmations": null,
      "from": "0x6c341709A69F0D286ff289986ECd928bb3a51B7A",
      "gasPrice": {
        "_hex": "0xba43b7400"
      },
      "gasLimit": {
        "_hex": "0x5327"
      },
      "to": "0x2910543Af39abA0Cd09dBb2D50200b3E800A63D2",
      "value": {
        "_hex": "0xde0b6b3a7640000"
      },
      "nonce": 0,
      "data": "0x0000000000000000000000000000000000000000000000000000000000000096",
      "r": "0x1ca1fd2fc246983d49b6e683309732bd097e6a203bb7ae43c4dd88a87c36a01f",
      "s": "0xad06f7dab53a7f8b1229194868cec9c95926dda00e7be4bf37d3bd2a96a447b1",
      "v": 27,
      "creates": null,
      "raw": "0xf88c80850ba43b7400825327942910543af39aba0cd09dbb2d50200b3e800a63d2880de0b6b3a7640000a000000000000000000000000000000000000000000000000000000000000000961ba01ca1fd2fc246983d49b6e683309732bd097e6a203bb7ae43c4dd88a87c36a01fa0ad06f7dab53a7f8b1229194868cec9c95926dda00e7be4bf37d3bd2a96a447b1",
      "networkId": 0,
      "chainId": 0
    }
  ]
}