{
  "hash": "0xd3aed3cb6b94ec291c35cb6923d1d5f5872b46a8b645b30e9a9fdd1deebdaea2",
  "parentHash": "0x0583cbb269b5b2d9018bbd39038d2982cf0b630d829b58c752f02b382611b4af",
  "number": 82205,
  "timestamp": 1439515263,
  "nonce": "0x864c0af270dc0154",
  "difficulty": 2391652472582,
  "gasLimit": {
    "_hex": "0x2fefd8"
  },
  "gasUsed": {
    "_hex": "0x546c"
  },
  "miner": "0x65Fe776c996eB7c15f86F236B945353b9a18f335",
  "extraData": "0x476574682f76312e302e312f77696e646f77732f676f312e342e32",
  "transactions": [
    {
      "hash": "0x46a8733385f0477deb99afab1bf28d36da274f348eb1242bc7ad3679342c11a6",
      "blockHash": "0xd3aed3cb6b94ec291c35cb6923d1d5f5872b46a8b645b30e9a9fdd1deebdaea2",
      "blockNumber": 82205,
      "transactionIndex": 0,
      "confirmations": null,
      "from": "0xAab00AbF5828D7eBf26b47cEACCdB8Ba03325166",
      "gasPrice": {
        "_hex": "0x110c8f7d8de"
      },
      "gasLimit": {
        "_hex": "0xc350"
      },
      "to": "0x2910543Af39abA0Cd09dBb2D50200b3E800A63D2",
      "value": {
        "_hex": "0x27f7d0bdb920000"
      },
      "nonce": 2,
      "data": "0x454e33393537335638",
      "r": "0x0c12749f9e2dbff106a1298e33853e8509e2ad8ae3d77433eff07f5f02270fa3",
      "s": "0x7b3bf430bf5e4770c1bf63eab179f1e15a9807aefb9584197474a616b0f85846",
      "v": 28,
      "creates": null,
      "raw": "0xf87602860110c8f7d8de82c350942910543af39aba0cd09dbb2d50200b3e800a63d288027f7d0bdb92000089454e333935373356381ca00c12749f9e2dbff106a1298e33853e8509e2ad8ae3d77433eff07f5f02270fa3a07b3bf430bf5e4770c1bf63eab179f1e15a9807aefb9584197474a616b0f85846",
      "networkId": 0,
      "chainId": 0
    }
  ]
}