{
  "hash": "0x22fc3518d533dedcfc15f6f40de9e4191c7c1b006f2a366c965c4b4fc0b943ad",
  "parentHash": "0xa061d4f906707e66ff21052109ad316c6832ca76043aebf1064efc35a9835414",
  "number": 102514,
  "timestamp": 1439839205,
  "nonce": "0xbd796be6ad3d91a6",
  "difficulty": 3970296989965,
  "gasLimit": {
    "_hex": "0x2fefd8"
  },
  "gasUsed": {
    "_hex": "0xde46"
  },
  "miner": "0x33b01a7fe4A1a5F774Bb73f89A4eF15a6Ffe1141",
  "extraData": "0x476574682f76312e302e312f6c696e75782f676f312e342e32",
  "transactions": [
    {
      "hash": "0xe55f6a9932d1e3cf68ba241c0c425d23966493e660b5317d6ec1f629baab8122",
      "blockHash": "0x22fc3518d533dedcfc15f6f40de9e4191c7c1b006f2a366c965c4b4fc0b943ad",
      "blockNumber": 102514,
      "transactionIndex": 0,
      "confirmations": null,
      "from": "0x4B85e9D2e433D7EcA29f8A7A859Cf0346702c89a",
      "gasPrice": {
        "_hex": "0xd4fc1edbf"
      },
      "gasLimit": {
        "_hex": "0x15f90"
      },
      "to": "0x4A94787103A50a04f64a95cDcE2c968643D05ABd",
      "value": {
        "_hex": "0x0"
      },
      "nonce": 9,
      "data": "0x90b98a11000000000000000000000000457a7e74fe5fe8a2fd3036fa19b7e084869ccd6300000000000000000000000000000000000000000000000000000000000001f4",
      "r": "0xa8558d464a1cf551dd2d4b09c217a480577ee5af383c0b36ee115514adffdc02",
      "s": "0x366d062b27dc95318a5ab8de2edb11ec53102c545ab77c0dc563cefe99f34459",
      "v": 27,
      "creates": null,
      "raw": "0xf8aa09850d4fc1edbf83015f90944a94787103a50a04f64a95cdce2c968643d05abd80b84490b98a11000000000000000000000000457a7e74fe5fe8a2fd3036fa19b7e084869ccd6300000000000000000000000000000000000000000000000000000000000001f41ba0a8558d464a1cf551dd2d4b09c217a480577ee5af383c0b36ee115514adffdc02a0366d062b27dc95318a5ab8de2edb11ec53102c545ab77c0dc563cefe99f34459",
      "networkId": 0,
      "chainId": 0
    },
    {
      "hash": "0xb65b20b893ec54611a29326be77510ab8bcea0a6cad1fd2a2df93026668becf0",
      "blockHash": "0x22fc3518d533dedcfc15f6f40de9e4191c7c1b006f2a366c965c4b4fc0b943ad",
      "blockNumber": 102514,
      "transactionIndex": 1,
      "confirmations": null,
      "from": "0x7409AD0F9A56C154e2a23176962D3e111A72A9Eb",
      "gasPrice": {
        "_hex": "0xd3d37f23a"
      },
      "gasLimit": {
        "_hex": "0x15f90"
      },
      "to": "0x2910543Af39abA0Cd09dBb2D50200b3E800A63D2",
      "value": {
        "_hex": "0x2f2f39fc6c540000"
      },
      "nonce": 2,
      "data": "0x454e39505a384d5847",
      "r": "0x9f7cdb66ec028c68287d421ed4a23b5c5dd9b296d5e3b6296136ddc4eb7a7d20",
      "s": "0x74eb26e0fd36f7a707c34ec263f51a67cc86c8d270b9d2221219e9229178f6b8",
      "v": 28,
      "creates": null,
      "raw": "0xf87602850d3d37f23a83015f90942910543af39aba0cd09dbb2d50200b3e800a63d2882f2f39fc6c54000089454e39505a384d58471ca09f7cdb66ec028c68287d421ed4a23b5c5dd9b296d5e3b6296136ddc4eb7a7d20a074eb26e0fd36f7a707c34ec263f51a67cc86c8d270b9d2221219e9229178f6b8",
      "networkId": 0,
      "chainId": 0
    }
  ]
}