{
  "hash": "0xd880a28411315d5a63e7aae6579d5b9dd096cc1af8bdfbeb6a0159ae7ef3771d",
  "parentHash": "0x9affd44d6846335731755bd2b5a4835f5e3a4eecf846f918f7522ed041be56df",
  "number": 89807,
  "timestamp": 1439629484,
  "nonce": "0xd17d0801ec90eb5b",
  "difficulty": 3340228684412,
  "gasLimit": {
    "_hex": "0x2fefd8"
  },
  "gasUsed": {
    "_hex": "0xa410"
  },
  "miner": "0xe6A7a1d47ff21B6321162AEA7C6CB457D5476Bca",
  "extraData": "0x476574682f76312e302e312d38326566323666362f6c696e75782f676f312e34",
  "transactions": [
    {
      "hash": "0x07c66fe93ca8d09dda526c957725409eec82ea67814601301cf3e605ba509930",
      "blockHash": "0xd880a28411315d5a63e7aae6579d5b9dd096cc1af8bdfbeb6a0159ae7ef3771d",
      "blockNumber": 89807,
      "transactionIndex": 0,
      "confirmations": null,
      "from": "0x3175a28CF6105466923f11bFFabD279F162aa2f8",
      "gasPrice": {
        "_hex": "0xd4a326110"
      },
      "gasLimit": {
        "_hex": "0x5208"
      },
      "to": "0x32Be343B94f860124dC4fEe278FDCBD38C102D88",
      "value": {
        "_hex": "0xbea9ff3dfe99f800"
      },
      "nonce": 10,
      "data": "0x",
      "r": "0x7d31e5d26efb54e5e5b902483edfb25ef2cf119b63cfb87f1ef8b8c3e63d2d89",
      "s": "0x0799d3072eab79dd3d6017a2fae729aa5d5a0a34875a06bfdd5a6e447095ca9b",
      "v": 27,
      "creates": null,
      "raw": "0xf86c0a850d4a3261108252089432be343b94f860124dc4fee278fdcbd38c102d8888bea9ff3dfe99f800801ba07d31e5d26efb54e5e5b902483edfb25ef2cf119b63cfb87f1ef8b8c3e63d2d89a00799d3072eab79dd3d6017a2fae729aa5d5a0a34875a06bfdd5a6e447095ca9b",
      "networkId": 0,
      "chainId": 0
    },
    {
      "hash": "0x1abc32aaf22f92d089681a60c4e3f59fc7842e27e46541d64ec9d45e036bd956",
      "blockHash": "0xd880a28411315d5a63e7aae6579d5b9dd096cc1af8bdfbeb6a0159ae7ef3771d",
      "blockNumber": 89807,
      "transactionIndex": 1,
      "confirmations": null,
      "from": "0x86d3856ad0105B9d4199936c1fd203664BA325dC",
      "gasPrice": {
        "_hex": "0xd4a326110"
      },
      "gasLimit": {
        "_hex": "0x5208"
      },
      "to": "0x32Be343B94f860124dC4fEe278FDCBD38C102D88",
      "value": {
        "_hex": "0xb1d34d62712b7000"
      },
      "nonce": 14,
      "data": "0x",
      "r": "0x833c4b208c6db46fc29c6a54ac66952521c3bf53bb7941391471e6912a86f74d",
      "s": "0x5e15d72cc50188eb26358f847432ee53b45bf8b4339eff661c9c9f512f3d9726",
      "v": 27,
      "creates": null,
      "raw": "0xf86c0e850d4a3261108252089432be343b94f860124dc4fee278fdcbd38c102d8888b1d34d62712b7000801ba0833c4b208c6db46fc29c6a54ac66952521c3bf53bb7941391471e6912a86f74da05e15d72cc50188eb26358f847432ee53b45bf8b4339eff661c9c9f512f3d9726",
      "networkId": 0,
      "chainId": 0
    }
  ]
}