{
  "hash": "0x43dc5ab1e7fd75b93e074d54ea593d5dc9150dbfa49610f476a3dc36e89dbe35",
  "parentHash": "0xb7a9ea45a713e4fe66fd809a3d54f135e5420fe422c7d379786973dbb28f8ab8",
  "number": 106778,
  "timestamp": 1439910401,
  "nonce": "0x8ea6165c8d8b5d45",
  "difficulty": 4435590382360,
  "gasLimit": {
    "_hex": "0x2fefd8"
  },
  "gasUsed": {
    "_hex": "0x5208"
  },
  "miner": "0xe6A7a1d47ff21B6321162AEA7C6CB457D5476Bca",
  "extraData": "0x476574682f76312e302e312d38326566323666362f6c696e75782f676f312e34",
  "transactions": [
    {
      "hash": "0xe7cfda8918726f089eb134dde81a323b6603e8958d2d6b5d1d87c08d03c5f4d9",
      "blockHash": "0x43dc5ab1e7fd75b93e074d54ea593d5dc9150dbfa49610f476a3dc36e89dbe35",
      "blockNumber": 106778,
      "transactionIndex": 0,
      "confirmations": null,
      "from": "0xe3d915EdA3B825D6ee4AF9328D32Ac18ada35497",
      "gasPrice": {
        "_hex": "0xd7d40ace3"
      },
      "gasLimit": {
        "_hex": "0x15f90"
      },
      "to": "0x234AFe11eF4a2515b6Eb2B03B43d6Cd209c64E36",
      "value": {
        "_hex": "0xde0b6b3a7640000"
      },
      "nonce": 0,
      "data": "0x",
      "r": "0xfa6bd911fbc7d4d94ca8e2840abfd9f18daff43f1fe13fa9af0b792dd3f10f94",
      "s": "0x208c9c3629daa4880bba4ecc3501910beb7206fae90ae550a7a7eccf5a71726f",
      "v": 28,
      "creates": null,
      "raw": "0xf86d80850d7d40ace383015f9094234afe11ef4a2515b6eb2b03b43d6cd209c64e36880de0b6b3a7640000801ca0fa6bd911fbc7d4d94ca8e2840abfd9f18daff43f1fe13fa9af0b792dd3f10f94a0208c9c3629daa4880bba4ecc3501910beb7206fae90ae550a7a7eccf5a71726f",
      "networkId": 0,
      "chainId": 0
    }
  ]
}