{
  "hash": "0x2aa3d89ce6ab23aa125e1472c640ef8b2d74c9e8eb38db4971d1bf297d65f161",
  "parentHash": "0xc175c6aac8016de0a42310afb97ff40cc732a4af7edbcf014ab842b55b94ada7",
  "number": 51442,
  "timestamp": 1439004966,
  "nonce": "0xb792cc770c2b1ffd",
  "difficulty": 1565813733669,
  "gasLimit": {
    "_hex": "0xb11e9"
  },
  "gasUsed": {
    "_hex": "0x6b6f"
  },
  "miner": "0x35E9fbb93fE57AEDCbeB9cAD2c480Af0584995be",
  "extraData": "0x476574682f76312e302e302d30636463373634372f6c696e75782f676f312e34",
  "transactions": [
    {
      "hash": "0x76a5c88d8dd0ed3df63eb8215f5e6349030ade028bdcb981ac370d2102d2711b",
      "blockHash": "0x2aa3d89ce6ab23aa125e1472c640ef8b2d74c9e8eb38db4971d1bf297d65f161",
      "blockNumber": 51442,
      "transactionIndex": 0,
      "confirmations": null,
      "from": "0x2905726Ed11131A984ce9C0119cB32DBC99dE90B",
      "gasPrice": {
        "_hex": "0x10369d4c5dd"
      },
      "gasLimit": {
        "_hex": "0x186a0"
      },
      "to": "0xd94BAdbEC21695B7a36ABCb979EFad0108319d18",
      "value": {
        "_hex": "0xb5e620f48000"
      },
      "nonce": 15,
      "data": "0xa69beaba4d656c616e63686f6c6961000000000000000000000000000000000000000000",
      "r": "0xbb00f4cc263a428de04e2945ab0bf4236b72d02f5f7fa06c7a8c01332fd3ea8a",
      "s": "0x35a962dddf40fc8813654114e5e8a11a62dcf7396ba445f488481d7f1f79f200",
      "v": 28,
      "creates": null,
      "raw": "0xf8900f86010369d4c5dd830186a094d94badbec21695b7a36abcb979efad0108319d1886b5e620f48000a4a69beaba4d656c616e63686f6c69610000000000000000000000000000000000000000001ca0bb00f4cc263a428de04e2945ab0bf4236b72d02f5f7fa06c7a8c01332fd3ea8aa035a962dddf40fc8813654114e5e8a11a62dcf7396ba445f488481d7f1f79f200",
      "networkId": 0,
      "chainId": 0
    }
  ]
}