{
  "hash": "0x74ec1e5952681e65ddf3834b09e2efd2e2d2c48364327b19cd7ae8afcdec6a88",
  "parentHash": "0x7a665129c00e92bc59abea098b47c631c64d7974e55c1aaaac65af9391e3ba1a",
  "number": 64881,
  "timestamp": 1439227657,
  "nonce": "0x5097fa93eb0dd648",
  "difficulty": 1908868464739,
  "gasLimit": {
    "_hex": "0x2fefd8"
  },
  "gasUsed": {
    "_hex": "0x11074"
  },
  "miner": "0x47ff6576639c2e94762eA5443978D7681C0E78DC",
  "extraData": "0x476574682f76312e302e312f6c696e75782f676f312e342e32",
  "transactions": [
    {
      "hash": "0xb9b2bf2abd7c2cb3412b0aefc5b1b62f7ad2b1e5da512849baacca80d83a867f",
      "blockHash": "0x74ec1e5952681e65ddf3834b09e2efd2e2d2c48364327b19cd7ae8afcdec6a88",
      "blockNumber": 64881,
      "transactionIndex": 0,
      "confirmations": null,
      "from": "0x6747f922385c9a6F9cfDf095F34345257DD597bE",
      "gasPrice": {
        "_hex": "0xba43b7400"
      },
      "gasLimit": {
        "_hex": "0x5208"
      },
      "to": "0x127cbb9E122C8fe434313027f7348864A9BE6fa2",
      "value": {
        "_hex": "0x1fcbfa42bd6000"
      },
      "nonce": 23,
      "data": "0x",
      "r": "0x96ba55fcc754945e4fe17bc12c9ede1d0f18950e455ef90c0816a76bfa35c1aa",
      "s": "0x41817af64752a7a48656ed5173a7fb9352bd941e3b0f683c2347b98eac926581",
      "v": 28,
      "creates": null,
      "raw": "0xf86b17850ba43b740082520894127cbb9e122c8fe434313027f7348864a9be6fa2871fcbfa42bd6000801ca096ba55fcc754945e4fe17bc12c9ede1d0f18950e455ef90c0816a76bfa35c1aaa041817af64752a7a48656ed5173a7fb9352bd941e3b0f683c2347b98eac926581",
      "networkId": 0,
      "chainId": 0
    },
    {
      "hash": "0xa6c9b2383f3cf5d39f8ba2c66365a4e175121b60fb39c82a9e002ca3ae435dc2",
      "blockHash": "0x74ec1e5952681e65ddf3834b09e2efd2e2d2c48364327b19cd7ae8afcdec6a88",
      "blockNumber": 64881,
      "transactionIndex": 1,
      "confirmations": null,
      "from": "0xDFB105F0bcEc3e24CcDA8cf3895C5bd89eCD2E76",
      "gasPrice": {
        "_hex": "0xba43b7400"
      },
      "gasLimit": {
        "_hex": "0x15f90"
      },
      "to": "0x793AE8C1b1a160BFc07BFB0d04F85eab1A71F4f2",
      "value": {
        "_hex": "0x0"
      },
      "nonce": 0,
      "data": "0x3ba15036",
      "r": "0x81c20c4851681969fc9f4b59468199d8cd469c2e95e2c095377795783e72168b",
      "s": "0x22b84554207d3b356357af354ecede0fa1c4314cadd308016ae024006221bcea",
      "v": 28,
      "creates": null,
      "raw": "0xf86980850ba43b740083015f9094793ae8c1b1a160bfc07bfb0d04f85eab1a71f4f280843ba150361ca081c20c4851681969fc9f4b59468199d8cd469c2e95e2c095377795783e72168ba022b84554207d3b356357af354ecede0fa1c4314cadd308016ae024006221bcea",
      "networkId": 0,
      "chainId": 0
    }
  ]
}