{
  "hash": "0x9049c916f6e17d50b016f39fb27d6f6775ae8b5fbc888dbe42753cdc6acc3e3b",
  "parentHash": "0x8e78dfc7ba1a91920c3649f54894c1941908d3b22e22896c4f40fa266723d90d",
  "number": 47924,
  "timestamp": 1438948437,
  "nonce": "0x9094128a7826e519",
  "difficulty": 1461537672513,
  "gasLimit": {
    "_hex": "0x107d8"
  },
  "gasUsed": {
    "_hex": "0x546c"
  },
  "miner": "0x8B454d830feF179e66206840F8F3D1d83bC32b17",
  "extraData": "0x476574682f76312e302e312f77696e646f77732f676f312e342e32",
  "transactions": [
    {
      "hash": "0xc36cd93023b65c449fd9c6beb9531686ca679cf772486ed0df4a5af2481eb15a",
      "blockHash": "0x9049c916f6e17d50b016f39fb27d6f6775ae8b5fbc888dbe42753cdc6acc3e3b",
      "blockNumber": 47924,
      "transactionIndex": 0,
      "confirmations": null,
      "from": "0x378ea1dc8edc19BAe82638029eA8752ce98BcFCD",
      "gasPrice": {
        "_hex": "0xfef231e01b"
      },
      "gasLimit": {
        "_hex": "0x7918"
      },
      "to": "0x2910543Af39abA0Cd09dBb2D50200b3E800A63D2",
      "value": {
        "_hex": "0x1b1ae4d6e2ef500000"
      },
      "nonce": 4,
      "data": "0x454e3543484a4a3738",
      "r": "0xa5075654fa3207eb55a16eb4aa1b78b08555d5e28620c83d68b97a5f07da75f5",
      "s": "0x0eda12aa8c52ccea916932d6d15a0e9fdb2cca685f0b6d481621f243ed734d65",
      "v": 27,
      "creates": null,
      "raw": "0xf8760485fef231e01b827918942910543af39aba0cd09dbb2d50200b3e800a63d2891b1ae4d6e2ef50000089454e3543484a4a37381ba0a5075654fa3207eb55a16eb4aa1b78b08555d5e28620c83d68b97a5f07da75f5a00eda12aa8c52ccea916932d6d15a0e9fdb2cca685f0b6d481621f243ed734d65",
      "networkId": 0,
      "chainId": 0
    }
  ]
}