{
  "hash": "0x8c2737fa2e2313e3d644496be2b6adc6d7589b9c641712fec652d6aaa5b74dcd",
  "parentHash": "0x9820ae7af0feb591efe66ec6d3f63ec91d99b3f443387cb2f134c9047980494f",
  "number": 47169,
  "timestamp": 1438935485,
  "nonce": "0x63b648b337da004a",
  "difficulty": 1458105045162,
  "gasLimit": {
    "_hex": "0x9ecd"
  },
  "gasUsed": {
    "_hex": "0x5208"
  },
  "miner": "0xbb7B8287f3F0a933474a79eAe42CBCa977791171",
  "extraData": "0x476574682f4c5649562f76312e302e312f6c696e75782f676f312e342e32",
  "transactions": [
    {
      "hash": "0x9767e53387e7a2e2f2d6d2c08a3e8473e87efdb1738046dde9ba6e8f84529876",
      "blockHash": "0x8c2737fa2e2313e3d644496be2b6adc6d7589b9c641712fec652d6aaa5b74dcd",
      "blockNumber": 47169,
      "transactionIndex": 0,
      "confirmations": null,
      "from": "0x1406854D149E081aC09Cb4CA560Da463f3123059",
      "gasPrice": {
        "_hex": "0xd411efc2c"
      },
      "gasLimit": {
        "_hex": "0x9c40"
      },
      "to": "0xa0E74ae010D51894734c308D612131056bB721AD",
      "value": {
        "_hex": "0x4563918244f400000"
      },
      "nonce": 4,
      "data": "0x",
      "r": "0xba92904d677f1f60de4133a2b941451d9a4f6f6c6870a55f0afce7dc35ef0f19",
      "s": "0x604718fe7e88e4348c306b16b6350b01fa40a662d9d19299bd05befb80866f28",
      "v": 28,
      "creates": null,
      "raw": "0xf86d04850d411efc2c829c4094a0e74ae010d51894734c308d612131056bb721ad8904563918244f400000801ca0ba92904d677f1f60de4133a2b941451d9a4f6f6c6870a55f0afce7dc35ef0f19a0604718fe7e88e4348c306b16b6350b01fa40a662d9d19299bd05befb80866f28",
      "networkId": 0,
      "chainId": 0
    }
  ]
}