{
  "hash": "0x34b6709deeaf615274344fe038a17d00fe2e9a66e6379174f67a3c45061124bf",
  "parentHash": "0xac911daebd6909ba25733e4f0ce41bd4570c52ad538afc945ef74684397ac134",
  "number": 80497,
  "timestamp": 1439486368,
  "nonce": "0x65d064bcf8415b96",
  "difficulty": 2413256815248,
  "gasLimit": {
    "_hex": "0x2fefd8"
  },
  "gasUsed": {
    "_hex": "0xaa37"
  },
  "miner": "0xe6A7a1d47ff21B6321162AEA7C6CB457D5476Bca",
  "extraData": "0x476574682f76312e302e312d38326566323666362f6c696e75782f676f312e34",
  "transactions": [
    {
      "hash": "0x8b02a398a99e04d0e152a649c78b7ad0bf04bae6e7936b3b2ae4b4ce7f6f5794",
      "blockHash": "0x34b6709deeaf615274344fe038a17d00fe2e9a66e6379174f67a3c45061124bf",
      "blockNumber": 80497,
      "transactionIndex": 0,
      "confirmations": null,
      "from": "0x87C5B5874A18B4306DF8a752a6C8cc3E82daFc19",
      "gasPrice": {
        "_hex": "0x1064de036d3"
      },
      "gasLimit": {
        "_hex": "0x493e0"
      },
      "to": "0xC4c51de1AbF5D60DBd329eC0F999Fd8f021ae9fC",
      "value": {
        "_hex": "0x0"
      },
      "nonce": 225,
      "data": "0x03750d9400000000000000000000000087c5b5874a18b4306df8a752a6c8cc3e82dafc196b6b6b0000000000000000000000000000000000000000000000000000000000",
      "r": "0xa1c68c9ea670515c285fac784011e6965ab2e2ba4261ef35dd8a1fba20009d4a",
      "s": "0x7280dbc46c7117822195f36534bcb7a1c9a19f705bf8d1fef4e23342e9c9526b",
      "v": 28,
      "creates": null,
      "raw": "0xf8ac81e18601064de036d3830493e094c4c51de1abf5d60dbd329ec0f999fd8f021ae9fc80b84403750d9400000000000000000000000087c5b5874a18b4306df8a752a6c8cc3e82dafc196b6b6b00000000000000000000000000000000000000000000000000000000001ca0a1c68c9ea670515c285fac784011e6965ab2e2ba4261ef35dd8a1fba20009d4aa07280dbc46c7117822195f36534bcb7a1c9a19f705bf8d1fef4e23342e9c9526b",
      "networkId": 0,
      "chainId": 0
    }
  ]
}