{
  "hash": "0x6afc5ffea3bb81409dce6158a796bd11fb604a8a42606e4aeba8a3614ef7179d",
  "parentHash": "0xcf5ffa45dfbbdca85a7b0e55bbb79543b056baeb0fd60a68f96af576fcc8d1c6",
  "number": 105892,
  "timestamp": 1439895118,
  "nonce": "0x2e99bc07dfaa77ee",
  "difficulty": 4453421136651,
  "gasLimit": {
    "_hex": "0x2fefd8"
  },
  "gasUsed": {
    "_hex": "0x1b497"
  },
  "miner": "0x7813b43093D32CbeD2132ebd334bd7F9811E8309",
  "extraData": "0xd983010001844765746887676f312e342e328777696e646f7773",
  "transactions": [
    {
      "hash": "0x10f10a96254b93e0b87237279dd7a53804bf07dc1c1e21d4e4cb39d43ce9f47d",
      "blockHash": "0x6afc5ffea3bb81409dce6158a796bd11fb604a8a42606e4aeba8a3614ef7179d",
      "blockNumber": 105892,
      "transactionIndex": 0,
      "confirmations": null,
      "from": "0x87C5B5874A18B4306DF8a752a6C8cc3E82daFc19",
      "gasPrice": {
        "_hex": "0x10001de9719"
      },
      "gasLimit": {
        "_hex": "0x493e0"
      },
      "to": "0xD79B4C6791784184e2755B2fC1659eaaB0f80456",
      "value": {
        "_hex": "0x20400bcfc20bcde8"
      },
      "nonce": 291,
      "data": "0x8d2161860000000000000000000000000000000000000000000000000000000000000007d3d96ceed0cfca4794c2a5a3d3aeefe69da0a2a669e66a5651f30b64831c3db0",
      "r": "0x89e3752a49f88355c88dead561448013e03cec5457a646c5bcb5d9436919f58c",
      "s": "0x00ca8e5a1ecb985c7c2af257a2d74ed02b1ccba3d4cacd5edbcb1c0c1d848f0e",
      "v": 27,
      "creates": null,
      "raw": "0xf8b482012386010001de9719830493e094d79b4c6791784184e2755b2fc1659eaab0f804568820400bcfc20bcde8b8448d2161860000000000000000000000000000000000000000000000000000000000000007d3d96ceed0cfca4794c2a5a3d3aeefe69da0a2a669e66a5651f30b64831c3db01ba089e3752a49f88355c88dead561448013e03cec5457a646c5bcb5d9436919f58c9fca8e5a1ecb985c7c2af257a2d74ed02b1ccba3d4cacd5edbcb1c0c1d848f0e",
      "networkId": 0,
      "chainId": 0
    }
  ]
}