{
  "hash": "0x2aca1165aa417c80c4683d57be8d730034d45067d1bdb57cf3e530346387af9f",
  "parentHash": "0x7d6b552c32bfaf5ecc02b1146939bb1d7a5811e1897f3a22c7d6848d988cef8f",
  "number": 83411,
  "timestamp": 1439534981,
  "nonce": "0x0d99a609c378766c",
  "difficulty": 2426595413136,
  "gasLimit": {
    "_hex": "0x2fefd8"
  },
  "gasUsed": {
    "_hex": "0x5208"
  },
  "miner": "0xe6A7a1d47ff21B6321162AEA7C6CB457D5476Bca",
  "extraData": "0x476574682f76312e302e312d38326566323666362f6c696e75782f676f312e34",
  "transactions": [
    {
      "hash": "0xd0b1b7df00ee98283cc1908b6987170d28caab288a39add14c20e554c0c65f98",
      "blockHash": "0x2aca1165aa417c80c4683d57be8d730034d45067d1bdb57cf3e530346387af9f",
      "blockNumber": 83411,
      "transactionIndex": 0,
      "confirmations": null,
      "from": "0x2910543Af39abA0Cd09dBb2D50200b3E800A63D2",
      "gasPrice": {
        "_hex": "0xd46cda492"
      },
      "gasLimit": {
        "_hex": "0x5208"
      },
      "to": "0xd6Bb39DA0858E6AEddcaa12a509327b2D05f5B51",
      "value": {
        "_hex": "0xa2a14b45d863ff8000"
      },
      "nonce": 525,
      "data": "0x",
      "r": "0x0ed01fcb43effe1fa46eb90ebc1c370860127e94ad1378b1cdb20010764121ae",
      "s": "0x00e80eefcef38b80eb22e94d442e15270ce510b3a00ad633b1b9608a8656272a",
      "v": 28,
      "creates": null,
      "raw": "0xf86e82020d850d46cda49282520894d6bb39da0858e6aeddcaa12a509327b2d05f5b5189a2a14b45d863ff8000801ca00ed01fcb43effe1fa46eb90ebc1c370860127e94ad1378b1cdb20010764121ae9fe80eefcef38b80eb22e94d442e15270ce510b3a00ad633b1b9608a8656272a",
      "networkId": 0,
      "chainId": 0
    }
  ]
}