{
  "hash": "0xf7e7b6ff8eed2e87bc4a9166850414c91ec430ba122122d5e814db636fcb643d",
  "parentHash": "0xea08137b9c43081614805134d5ebfa1faaa404fc50cff0d1bccb23b58f91a28c",
  "number": 56468,
  "timestamp": 1439087672,
  "nonce": "0x6bfb74b873531cfa",
  "difficulty": 1660928557102,
  "gasLimit": {
    "_hex": "0x2fefd5"
  },
  "gasUsed": {
    "_hex": "0xa45e"
  },
  "miner": "0xdd2F1e6e498202e86D8f5442Af596580A4f03c2C",
  "extraData": "0x476574682f76312e302e312d38326566323666362f6c696e75782f676f312e34",
  "transactions": [
    {
      "hash": "0xdd72b16a8ed6894c6340a79d212a064fdb1c30ec6fe610d19856cd253aa9241e",
      "blockHash": "0xf7e7b6ff8eed2e87bc4a9166850414c91ec430ba122122d5e814db636fcb643d",
      "blockNumber": 56468,
      "transactionIndex": 0,
      "confirmations": null,
      "from": "0xA1eEc0a9b7C50B8e79A0D9B8760bC5681fb199EC",
      "gasPrice": {
        "_hex": "0xdf9accb50"
      },
      "gasLimit": {
        "_hex": "0x15f90"
      },
      "to": "0xABFF46330bc70e19673b280d2F77F6BbB485F029",
      "value": {
        "_hex": "0x2a5"
      },
      "nonce": 13,
      "data": "0x",
      "r": "0xa082c7cf77b5011d14e208c775cf00e4ea3597f0b07f5250db6507e96937b590",
      "s": "0x401bf43c1268c60035646487437f1e7c5fe6ebbdb16092d92368e259969c7340",
      "v": 27,
      "creates": null,
      "raw": "0xf8670d850df9accb5083015f9094abff46330bc70e19673b280d2f77f6bbb485f0298202a5801ba0a082c7cf77b5011d14e208c775cf00e4ea3597f0b07f5250db6507e96937b590a0401bf43c1268c60035646487437f1e7c5fe6ebbdb16092d92368e259969c7340",
      "networkId": 0,
      "chainId": 0
    },
    {
      "hash": "0xdeb16ebba3551bd6b15f99239b77ad23c564c4111ecff65f9c707379fa34c64f",
      "blockHash": "0xf7e7b6ff8eed2e87bc4a9166850414c91ec430ba122122d5e814db636fcb643d",
      "blockNumber": 56468,
      "transactionIndex": 1,
      "confirmations": null,
      "from": "0xF5EeDc192aB70b08D8354384aD94efD095849E00",
      "gasPrice": {
        "_hex": "0xce665dcc6"
      },
      "gasLimit": {
        "_hex": "0x5208"
      },
      "to": "0x32Be343B94f860124dC4fEe278FDCBD38C102D88",
      "value": {
        "_hex": "0x3afac6583ae51e000"
      },
      "nonce": 9,
      "data": "0x",
      "r": "0x76b9f7afb1f3fdc9f161c457c17bcb223601e1c4072c60a54eebf89bb99af99c",
      "s": "0x1a9021764308a32b779ab2a8ebe523877d9f04164ff528a5dcd9866f0dedffb7",
      "v": 28,
      "creates": null,
      "raw": "0xf86d09850ce665dcc68252089432be343b94f860124dc4fee278fdcbd38c102d888903afac6583ae51e000801ca076b9f7afb1f3fdc9f161c457c17bcb223601e1c4072c60a54eebf89bb99af99ca01a9021764308a32b779ab2a8ebe523877d9f04164ff528a5dcd9866f0dedffb7",
      "networkId": 0,
      "chainId": 0
    }
  ]
}