{
  "hash": "0xb832c0ff1a38bf3d90c39127dbe718e820283de40170c368e60bb17a04268134",
  "parentHash": "0x07a84a8012491d7bb51334e2a29ed1745098dc7ac13c978ddf05079f92bb4754",
  "number": 120548,
  "timestamp": 1440161718,
  "nonce": "0xd49a5c149d337b44",
  "difficulty": 4428315279758,
  "gasLimit": {
    "_hex": "0x2fefd8"
  },
  "gasUsed": {
    "_hex": "0x5208"
  },
  "miner": "0x580992B51e3925e23280EfB93d3047C82f17E038",
  "extraData": "0x",
  "transactions": [
    {
      "hash": "0x23fa0a90d1f4d60eb2a7609a12d6fab3f50926a35d5bffe9a4a2ec4cda4934ee",
      "blockHash": "0xb832c0ff1a38bf3d90c39127dbe718e820283de40170c368e60bb17a04268134",
      "blockNumber": 120548,
      "transactionIndex": 0,
      "confirmations": null,
      "from": "0x32Be343B94f860124dC4fEe278FDCBD38C102D88",
      "gasPrice": {
        "_hex": "0xba43b7400"
      },
      "gasLimit": {
        "_hex": "0x5208"
      },
      "to": "0x6bADA45e56f1e8705AAB08bd2B2414ae5688e511",
      "value": {
        "_hex": "0x7742fe90f413a00000"
      },
      "nonce": 1520,
      "data": "0x",
      "r": "0xc9a5ecdd414d9820eb31fe96f3d12514198998f870e3da7a2afc95309a381c78",
      "s": "0x31672ca2e1a15e18576151d655594fc4a10b0ba4a239724d201c5c351a622b28",
      "v": 27,
      "creates": null,
      "raw": "0xf86f8205f0850ba43b7400825208946bada45e56f1e8705aab08bd2b2414ae5688e511897742fe90f413a00000801ba0c9a5ecdd414d9820eb31fe96f3d12514198998f870e3da7a2afc95309a381c78a031672ca2e1a15e18576151d655594fc4a10b0ba4a239724d201c5c351a622b28",
      "networkId": 0,
      "chainId": 0
    }
  ]
}