{
  "hash": "0x65df48e3d41e5b9cc3235adb9adec605514adea716f46a2ee66df1bfcdab3aeb",
  "parentHash": "0xb9bed616175a8d1fd488993b8a7a5f4752e7d7976b67543ba95aa2b43537521c",
  "number": 119143,
  "timestamp": 1440137570,
  "nonce": "0x05aa756c581f21d3",
  "difficulty": 4409636109382,
  "gasLimit": {
    "_hex": "0x2fefd8"
  },
  "gasUsed": {
    "_hex": "0x5208"
  },
  "miner": "0x87cD3b7f4DBBFE553DB92Ac1C97c6C24231c5D26",
  "extraData": "0x476574682f76312e302e322f6c696e75782f676f312e342e32",
  "transactions": [
    {
      "hash": "0x470b68abe18868948f00671df5f8209213632b6dc316a0636f0bbfff3d6d4fa1",
      "blockHash": "0x65df48e3d41e5b9cc3235adb9adec605514adea716f46a2ee66df1bfcdab3aeb",
      "blockNumber": 119143,
      "transactionIndex": 0,
      "confirmations": null,
      "from": "0xc15fa6D616245a5c7B7D75A6dFDcA10C0250BD2B",
      "gasPrice": {
        "_hex": "0xba43b7400"
      },
      "gasLimit": {
        "_hex": "0x15f90"
      },
      "to": "0xdeE4977F74E6Aef6D627191c9A45D2627e331150",
      "value": {
        "_hex": "0xd02ab486cedc0000"
      },
      "nonce": 19,
      "data": "0x",
      "r": "0xf44c53c85f8d834a39fee76114048c162c273b03f7aef637ccf087f9f0cd7b7e",
      "s": "0x4389af94b6fa71185363aa68c6a0899624d2f4a21da184c898a3f6635db03d9e",
      "v": 28,
      "creates": null,
      "raw": "0xf86d13850ba43b740083015f9094dee4977f74e6aef6d627191c9a45d2627e33115088d02ab486cedc0000801ca0f44c53c85f8d834a39fee76114048c162c273b03f7aef637ccf087f9f0cd7b7ea04389af94b6fa71185363aa68c6a0899624d2f4a21da184c898a3f6635db03d9e",
      "networkId": 0,
      "chainId": 0
    }
  ]
}