{
  "hash": "0xd6ef167c4cf91d9efc87558eb2fe6a7e77ae84b83d50125ef2bd13c166356530",
  "parentHash": "0x90dda3e8d43390e3c4afbeffa6557a6cc585d7130f688a484fea996f30c28f4b",
  "number": 108573,
  "timestamp": 1439942678,
  "nonce": "0x974dc37b814683a3",
  "difficulty": 4334028697365,
  "gasLimit": {
    "_hex": "0x2fefd8"
  },
  "gasUsed": {
    "_hex": "0xa410"
  },
  "miner": "0xe6A7a1d47ff21B6321162AEA7C6CB457D5476Bca",
  "extraData": "0x476574682f76312e302e312d38326566323666362f6c696e75782f676f312e34",
  "transactions": [
    {
      "hash": "0x3f58ccf95bdca81e0f0019bdc31cf949a7a9b86424f62e4d6584bd7c58901421",
      "blockHash": "0xd6ef167c4cf91d9efc87558eb2fe6a7e77ae84b83d50125ef2bd13c166356530",
      "blockNumber": 108573,
      "transactionIndex": 0,
      "confirmations": null,
      "from": "0x120A270bbC009644e35F0bB6ab13f95b8199c4ad",
      "gasPrice": {
        "_hex": "0xddc89224c"
      },
      "gasLimit": {
        "_hex": "0x3d090"
      },
      "to": "0x0B50eBD079ADCea71D28590C42d07B5398F19AbA",
      "value": {
        "_hex": "0x1b1ae4d6e2ef500000"
      },
      "nonce": 838,
      "data": "0x",
      "r": "0x5a5f902a69ed44c8f94073d348aeceb727f3358163ad37e12c5e3da96435a1e0",
      "s": "0x1de1701f8d9b1101c82e2b0dfe3dc34a250e07808425ec929dfdeca177fc561a",
      "v": 28,
      "creates": null,
      "raw": "0xf870820346850ddc89224c8303d090940b50ebd079adcea71d28590c42d07b5398f19aba891b1ae4d6e2ef500000801ca05a5f902a69ed44c8f94073d348aeceb727f3358163ad37e12c5e3da96435a1e0a01de1701f8d9b1101c82e2b0dfe3dc34a250e07808425ec929dfdeca177fc561a",
      "networkId": 0,
      "chainId": 0
    },
    {
      "hash": "0xa11d6d2c0cab9d42091bc025326de4b56ee9222a863d79fb029062cd5bb66190",
      "blockHash": "0xd6ef167c4cf91d9efc87558eb2fe6a7e77ae84b83d50125ef2bd13c166356530",
      "blockNumber": 108573,
      "transactionIndex": 1,
      "confirmations": null,
      "from": "0x8F79f76381Aad7B98C19aF55eE75fdfEeb012211",
      "gasPrice": {
        "_hex": "0xd963e601e"
      },
      "gasLimit": {
        "_hex": "0x5208"
      },
      "to": "0x32Be343B94f860124dC4fEe278FDCBD38C102D88",
      "value": {
        "_hex": "0x68f31f5ec94f50000"
      },
      "nonce": 47,
      "data": "0x",
      "r": "0xca2e3f044e1c48aff8e76f21055e188c49ae3032015031cf7ef1ae8f0768cb36",
      "s": "0x79a72a550b800795103159f0881ac3fd70c733b6763c08f1186d0644b134e107",
      "v": 27,
      "creates": null,
      "raw": "0xf86d2f850d963e601e8252089432be343b94f860124dc4fee278fdcbd38c102d8889068f31f5ec94f50000801ba0ca2e3f044e1c48aff8e76f21055e188c49ae3032015031cf7ef1ae8f0768cb36a079a72a550b800795103159f0881ac3fd70c733b6763c08f1186d0644b134e107",
      "networkId": 0,
      "chainId": 0
    }
  ]
}