{
  "hash": "0x166573c07d3628f42cf5e74e7e0c6e6617a88a5663d178245491cc2d30c05abe",
  "parentHash": "0x449e8e38dd8a7345dab1db8f58a039d5e4f985488b16c8aebea22356ef50900d",
  "number": 99053,
  "timestamp": 1439783475,
  "nonce": "0x17d087655ebad494",
  "difficulty": 3825372409994,
  "gasLimit": {
    "_hex": "0x2fefd8"
  },
  "gasUsed": {
    "_hex": "0x5208"
  },
  "miner": "0xe6A7a1d47ff21B6321162AEA7C6CB457D5476Bca",
  "extraData": "0x476574682f76312e302e312d38326566323666362f6c696e75782f676f312e34",
  "transactions": [
    {
      "hash": "0x55c2099de3423b0566218de8feff5bc08476eef099ba0653aec076fbcf16f826",
      "blockHash": "0x166573c07d3628f42cf5e74e7e0c6e6617a88a5663d178245491cc2d30c05abe",
      "blockNumber": 99053,
      "transactionIndex": 0,
      "confirmations": null,
      "from": "0xC6A5D22D1DDd24B32a308bA4A49ec3cA38a2D0A6",
      "gasPrice": {
        "_hex": "0xd191583ce"
      },
      "gasLimit": {
        "_hex": "0x15f90"
      },
      "to": "0x047fF53dFE1F7BD2c3Ed2D1f777F35D1f64e9ffE",
      "value": {
        "_hex": "0x28c418afbbb5c0000"
      },
      "nonce": 0,
      "data": "0x",
      "r": "0x5630d0b6f3881ee34f170c40eb9b3e14a8a09650cc5cb833fcfd8e5619296ac2",
      "s": "0x47eb8e895abc73b90a7c337532fffd79c2fa99c3322bd2fc8f88fcb517d9199f",
      "v": 28,
      "creates": null,
      "raw": "0xf86e80850d191583ce83015f9094047ff53dfe1f7bd2c3ed2d1f777f35d1f64e9ffe89028c418afbbb5c0000801ca05630d0b6f3881ee34f170c40eb9b3e14a8a09650cc5cb833fcfd8e5619296ac2a047eb8e895abc73b90a7c337532fffd79c2fa99c3322bd2fc8f88fcb517d9199f",
      "networkId": 0,
      "chainId": 0
    }
  ]
}