{
  "hash": "0x77dc00e36640e3b28552d20af3e31b9b42cdbc6757e06daa810e38e3da30682e",
  "parentHash": "0x47440234bad691c6868b3d9422771e135b396b9449e21baf509a5e2fdde57728",
  "number": 110194,
  "timestamp": 1439969671,
  "nonce": "0xebdb3175c5242290",
  "difficulty": 4369309852610,
  "gasLimit": {
    "_hex": "0x2fefd8"
  },
  "gasUsed": {
    "_hex": "0x5208"
  },
  "miner": "0xa8E7201ff619fAFFc332E6aD37Ed41e301bf014a",
  "extraData": "0x476574682f76312e302e312f77696e646f77732f676f312e342e32",
  "transactions": [
    {
      "hash": "0xb27bb691a876e5e5e266dca54b2e4bce40ff23f667398bff4dd376f3656a04f1",
      "blockHash": "0x77dc00e36640e3b28552d20af3e31b9b42cdbc6757e06daa810e38e3da30682e",
      "blockNumber": 110194,
      "transactionIndex": 0,
      "confirmations": null,
      "from": "0x36c510bf8d6e569BF2F37d47265dbcB502Ff2BcE",
      "gasPrice": {
        "_hex": "0xd69b48315"
      },
      "gasLimit": {
        "_hex": "0x15f90"
      },
      "to": "0xBf520BE04Aa6a36a99897062Ca9c440CF4112780",
      "value": {
        "_hex": "0xd02ab486cedc0000"
      },
      "nonce": 0,
      "data": "0x",
      "r": "0xd1aea6f55089b7054ad9a543a76164016c89a9cac658d94c64cad2c9931d916e",
      "s": "0x04a2b72a41bf6fa6ea9234da54f052f83b99287bf6bef178eba7cafbf8fb229b",
      "v": 28,
      "creates": null,
      "raw": "0xf86d80850d69b4831583015f9094bf520be04aa6a36a99897062ca9c440cf411278088d02ab486cedc0000801ca0d1aea6f55089b7054ad9a543a76164016c89a9cac658d94c64cad2c9931d916ea004a2b72a41bf6fa6ea9234da54f052f83b99287bf6bef178eba7cafbf8fb229b",
      "networkId": 0,
      "chainId": 0
    }
  ]
}