{
  "hash": "0x75ec0a7b63c302b9013b9436422135ed924968e55c3a496b912a4f4158483f38",
  "parentHash": "0x94ae008f8eab098df07f4e82b2a9dc91b74abc82fecfdf4b21084acc887808ef",
  "number": 53835,
  "timestamp": 1439044440,
  "nonce": "0xf040251d2ffc17d1",
  "difficulty": 1597020828554,
  "gasLimit": {
    "_hex": "0x2fefd8"
  },
  "gasUsed": {
    "_hex": "0x5208"
  },
  "miner": "0xbb7B8287f3F0a933474a79eAe42CBCa977791171",
  "extraData": "0x476574682f4c5649562f76312e302e312f6c696e75782f676f312e342e32",
  "transactions": [
    {
      "hash": "0xbc1b086b884184ca20fa080cd7c817121da8276c5ff0b0bbfccf5b376c50cab4",
      "blockHash": "0x75ec0a7b63c302b9013b9436422135ed924968e55c3a496b912a4f4158483f38",
      "blockNumber": 53835,
      "transactionIndex": 0,
      "confirmations": null,
      "from": "0xC6Bf5B6558f2eE21F2E43d9fF9B5408A0Cb89413",
      "gasPrice": {
        "_hex": "0xd22f22ea6"
      },
      "gasLimit": {
        "_hex": "0x15f90"
      },
      "to": "0x33A3f479f6c3e7F91128348490D1f7E8D2A0FAb5",
      "value": {
        "_hex": "0x4563918244f40000"
      },
      "nonce": 7,
      "data": "0x",
      "r": "0x2810aeb00e01fda61342dff16c4937ba8e63c354a1bca1de4d69be3a3e4ad394",
      "s": "0x567b075415a0158c55e6f74c22b787c3e20b469ec9a5203194e18d830671ee4a",
      "v": 27,
      "creates": null,
      "raw": "0xf86d07850d22f22ea683015f909433a3f479f6c3e7f91128348490d1f7e8d2a0fab5884563918244f40000801ba02810aeb00e01fda61342dff16c4937ba8e63c354a1bca1de4d69be3a3e4ad394a0567b075415a0158c55e6f74c22b787c3e20b469ec9a5203194e18d830671ee4a",
      "networkId": 0,
      "chainId": 0
    }
  ]
}