{
  "hash": "0x4510dc791170b38d7a2c4f57627f0dd8c466c0f8a56dafab0e6f6588f182f4d2",
  "parentHash": "0xb51b0bce38d2742b9285aa2a6f632ee6691da41052c67a1d5ee34ae2edc814ea",
  "number": 56162,
  "timestamp": 1439082908,
  "nonce": "0x59df8d1a2a54ef3c",
  "difficulty": 1640035654704,
  "gasLimit": {
    "_hex": "0x2fefd8"
  },
  "gasUsed": {
    "_hex": "0x5208"
  },
  "miner": "0x5F8F73E26CdF436f19Cb24C82F90A15AFe55b592",
  "extraData": "0x476574682f76312e302e312f77696e646f77732f676f312e342e32",
  "transactions": [
    {
      "hash": "0x29a0093859edf905842b7a01a5d641389de192462433220881681cb9ec35fd8c",
      "blockHash": "0x4510dc791170b38d7a2c4f57627f0dd8c466c0f8a56dafab0e6f6588f182f4d2",
      "blockNumber": 56162,
      "transactionIndex": 0,
      "confirmations": null,
      "from": "0x946B4421c64331bdAe148e6F27d66B92612E0BF6",
      "gasPrice": {
        "_hex": "0xd51b48829"
      },
      "gasLimit": {
        "_hex": "0x5208"
      },
      "to": "0x32Be343B94f860124dC4fEe278FDCBD38C102D88",
      "value": {
        "_hex": "0xd2ac3c91995c800"
      },
      "nonce": 3,
      "data": "0x",
      "r": "0x9e0d9c2010c826138ab5be747712d3309090ec89fa03f1ac315db345532b7a95",
      "s": "0x5ad0d479ffa4f2ab07aee3ded395984abc96e1cefeb9e80ba97ba92d825fab5f",
      "v": 28,
      "creates": null,
      "raw": "0xf86c03850d51b488298252089432be343b94f860124dc4fee278fdcbd38c102d88880d2ac3c91995c800801ca09e0d9c2010c826138ab5be747712d3309090ec89fa03f1ac315db345532b7a95a05ad0d479ffa4f2ab07aee3ded395984abc96e1cefeb9e80ba97ba92d825fab5f",
      "networkId": 0,
      "chainId": 0
    }
  ]
}