{
  "hash": "0xccaf0cbec524ba297b91107507c649c4b56612cc6a1834535bbb36247b2b0a1d",
  "parentHash": "0x55e18de877dc7f6891a70f8330c34620d613581fafe991859566cb833d02a094",
  "number": 100677,
  "timestamp": 1439810362,
  "nonce": "0xf5c4403a3840a638",
  "difficulty": 3839601092468,
  "gasLimit": {
    "_hex": "0x2fefd8"
  },
  "gasUsed": {
    "_hex": "0xa410"
  },
  "miner": "0xe6A7a1d47ff21B6321162AEA7C6CB457D5476Bca",
  "extraData": "0x476574682f76312e302e312d38326566323666362f6c696e75782f676f312e34",
  "transactions": [
    {
      "hash": "0xc9054fc4d775dd6a95a6f28f392944783423d8eb5e5bde10f7e72ea64e6b2d33",
      "blockHash": "0xccaf0cbec524ba297b91107507c649c4b56612cc6a1834535bbb36247b2b0a1d",
      "blockNumber": 100677,
      "transactionIndex": 0,
      "confirmations": null,
      "from": "0x9Fa88512e871481291d0416CEFf5B3764f840aED",
      "gasPrice": {
        "_hex": "0xcd1fc71d5"
      },
      "gasLimit": {
        "_hex": "0x5208"
      },
      "to": "0x32Be343B94f860124dC4fEe278FDCBD38C102D88",
      "value": {
        "_hex": "0xe077a2d916e2f000"
      },
      "nonce": 5,
      "data": "0x",
      "r": "0xff0d02f960279790ce3797c3a4970a68b7109c6caef0ff36fde40595cef4f039",
      "s": "0x1c12ef3c2d353c1a58f32a1ada1fcc65b6912d4c2e285492a135f8eadac77199",
      "v": 27,
      "creates": null,
      "raw": "0xf86c05850cd1fc71d58252089432be343b94f860124dc4fee278fdcbd38c102d8888e077a2d916e2f000801ba0ff0d02f960279790ce3797c3a4970a68b7109c6caef0ff36fde40595cef4f039a01c12ef3c2d353c1a58f32a1ada1fcc65b6912d4c2e285492a135f8eadac77199",
      "networkId": 0,
      "chainId": 0
    },
    {
      "hash": "0x5eb8285345d198862b0c7426f1067fa3b2fd445fa101ad429515113bcd84c4bd",
      "blockHash": "0xccaf0cbec524ba297b91107507c649c4b56612cc6a1834535bbb36247b2b0a1d",
      "blockNumber": 100677,
      "transactionIndex": 1,
      "confirmations": null,
      "from": "0xF87481A262E993a75F791E7859E71BaC36A606Eb",
      "gasPrice": {
        "_hex": "0xcd1fc71d5"
      },
      "gasLimit": {
        "_hex": "0x5208"
      },
      "to": "0x32Be343B94f860124dC4fEe278FDCBD38C102D88",
      "value": {
        "_hex": "0x3bd8d18dc30924000"
      },
      "nonce": 34,
      "data": "0x",
      "r": "0x7671f535c470c0126729a184fa9dbb9c36bb8239f044897d572b023f95c556ef",
      "s": "0x7b6ce564b6a4c05851fb3127ca94b1db7ac6400fdd4eb23d6a902b7a12b6ec49",
      "v": 27,
      "creates": null,
      "raw": "0xf86d22850cd1fc71d58252089432be343b94f860124dc4fee278fdcbd38c102d888903bd8d18dc30924000801ba07671f535c470c0126729a184fa9dbb9c36bb8239f044897d572b023f95c556efa07b6ce564b6a4c05851fb3127ca94b1db7ac6400fdd4eb23d6a902b7a12b6ec49",
      "networkId": 0,
      "chainId": 0
    }
  ]
}