{
  "hash": "0x1e29401201e33412ff39f9e40b689eb6e8c431b735a6d089ae3af281bc63bf01",
  "parentHash": "0x42f7a19186d9a71b3af1ef73217f00bf998ada43420189c10f99dbe6627be5c6",
  "number": 65135,
  "timestamp": 1439231933,
  "nonce": "0x027f6dc2ce368151",
  "difficulty": 1929425999030,
  "gasLimit": {
    "_hex": "0x2fefd8"
  },
  "gasUsed": {
    "_hex": "0x17cd8"
  },
  "miner": "0x9E5B4729c3266d77caE7F08C303b191Ac4d6B8CD",
  "extraData": "0xdd809b302e392e34302b2b616339342d5257696e646f2f6d73762f4a4954",
  "transactions": [
    {
      "hash": "0x87648049d37578d707d869869b5904b664043cf0d2112b96905a49c3a3325c20",
      "blockHash": "0x1e29401201e33412ff39f9e40b689eb6e8c431b735a6d089ae3af281bc63bf01",
      "blockNumber": 65135,
      "transactionIndex": 0,
      "confirmations": null,
      "from": "0xE53Ae7B2Da2F2c4a341EC49256273363B1ca8694",
      "gasPrice": {
        "_hex": "0xba43b7400"
      },
      "gasLimit": {
        "_hex": "0x15f90"
      },
      "to": "0x793AE8C1b1a160BFc07BFB0d04F85eab1A71F4f2",
      "value": {
        "_hex": "0x0"
      },
      "nonce": 0,
      "data": "0x3ba15036",
      "r": "0xcd0077911b34487b16bfddd8e09568f4487217df6737715870c7ddf85357a7c2",
      "s": "0x6ec8ab6f19ab6b8845de8392e45d4105faf3b4b09a138aff1c1a72d6cc4284f1",
      "v": 27,
      "creates": null,
      "raw": "0xf86980850ba43b740083015f9094793ae8c1b1a160bfc07bfb0d04f85eab1a71f4f280843ba150361ba0cd0077911b34487b16bfddd8e09568f4487217df6737715870c7ddf85357a7c2a06ec8ab6f19ab6b8845de8392e45d4105faf3b4b09a138aff1c1a72d6cc4284f1",
      "networkId": 0,
      "chainId": 0
    },
    {
      "hash": "0xe77def6ed691ba9d6c507b0cab396b42815e18ad10955b5b4ee33a622e978127",
      "blockHash": "0x1e29401201e33412ff39f9e40b689eb6e8c431b735a6d089ae3af281bc63bf01",
      "blockNumber": 65135,
      "transactionIndex": 1,
      "confirmations": null,
      "from": "0xa07fb9E0d471c1e5c322BA6f68fD5821cf77839a",
      "gasPrice": {
        "_hex": "0xba43b7400"
      },
      "gasLimit": {
        "_hex": "0x15f90"
      },
      "to": "0x793AE8C1b1a160BFc07BFB0d04F85eab1A71F4f2",
      "value": {
        "_hex": "0x0"
      },
      "nonce": 0,
      "data": "0x3ba15036",
      "r": "0x53bab87d1b20231854bd3b625dfb1d5df64cafd9f2c6f8082d529cf10d83f149",
      "s": "0x6e5a0711fa71e7a64b2220ec90c0b983ddfe5021dc19b63c7cc1f4800a79e46c",
      "v": 27,
      "creates": null,
      "raw": "0xf86980850ba43b740083015f9094793ae8c1b1a160bfc07bfb0d04f85eab1a71f4f280843ba150361ba053bab87d1b20231854bd3b625dfb1d5df64cafd9f2c6f8082d529cf10d83f149a06e5a0711fa71e7a64b2220ec90c0b983ddfe5021dc19b63c7cc1f4800a79e46c",
      "networkId": 0,
      "chainId": 0
    }
  ]
}