{
  "hash": "0x0902bdeeff2bab7d0ffbeedaa541d38fe8fec2acedff4bc15d2fd723bd745b6d",
  "parentHash": "0x2da33327a1d1e58d9c43c0ffc8f603e0471552ed818f2802fa4d87d19c8515b9",
  "number": 110468,
  "timestamp": 1439974271,
  "nonce": "0x24e95183be197b86",
  "difficulty": 4381986202763,
  "gasLimit": {
    "_hex": "0x2fefd8"
  },
  "gasUsed": {
    "_hex": "0xf618"
  },
  "miner": "0x790b8a3cE86E707ED0eD32bF89B3269692a23CC1",
  "extraData": "0xd783010001844765746887676f312e342e32856c696e7578",
  "transactions": [
    {
      "hash": "0x44aaae2ce734567af35abb0cd585d45bc57607cd914c55ba208ad5c79289eda0",
      "blockHash": "0x0902bdeeff2bab7d0ffbeedaa541d38fe8fec2acedff4bc15d2fd723bd745b6d",
      "blockNumber": 110468,
      "transactionIndex": 0,
      "confirmations": null,
      "from": "0xB17d2bFef3ED5F2EaA806Fe930878F6eBfD31CCf",
      "gasPrice": {
        "_hex": "0xd4cf24862"
      },
      "gasLimit": {
        "_hex": "0x15f90"
      },
      "to": "0x5BB33B0e16f8a05C5124c33418922C5b1Be8F810",
      "value": {
        "_hex": "0xf9ccd8a1c5080000"
      },
      "nonce": 4,
      "data": "0x",
      "r": "0xb56866dea8362b9968a4956af88aa5c0b0a8c68f6ca1fdecfd3135a6e8ded356",
      "s": "0x238ef3c823bc79fcef98bed77ed8125733589be82372042978041e56fdadee54",
      "v": 27,
      "creates": null,
      "raw": "0xf86d04850d4cf2486283015f90945bb33b0e16f8a05c5124c33418922c5b1be8f81088f9ccd8a1c5080000801ba0b56866dea8362b9968a4956af88aa5c0b0a8c68f6ca1fdecfd3135a6e8ded356a0238ef3c823bc79fcef98bed77ed8125733589be82372042978041e56fdadee54",
      "networkId": 0,
      "chainId": 0
    },
    {
      "hash": "0x030fb44a9ac8d17994826a5006f3d8f2725061753d6fd07a5e4fac858656767f",
      "blockHash": "0x0902bdeeff2bab7d0ffbeedaa541d38fe8fec2acedff4bc15d2fd723bd745b6d",
      "blockNumber": 110468,
      "transactionIndex": 1,
      "confirmations": null,
      "from": "0xacc8dECDFDCbed202B8632947c60487494F5D2c7",
      "gasPrice": {
        "_hex": "0xce78da0c3"
      },
      "gasLimit": {
        "_hex": "0x15f90"
      },
      "to": "0x8B887D1b0311823A819f180063eCa8D40EA8524a",
      "value": {
        "_hex": "0xde0b6b3a7640000"
      },
      "nonce": 0,
      "data": "0x",
      "r": "0xddea5852f7c8bd85cfa69f2a4adad43f50dc56e4f14ea09f65183dfb1dfd7897",
      "s": "0x00763ee95ddf5165ab1625ab0d5e5a265d920f8b6f679affc061c00a9a751395",
      "v": 28,
      "creates": null,
      "raw": "0xf86c80850ce78da0c383015f90948b887d1b0311823a819f180063eca8d40ea8524a880de0b6b3a7640000801ca0ddea5852f7c8bd85cfa69f2a4adad43f50dc56e4f14ea09f65183dfb1dfd78979f763ee95ddf5165ab1625ab0d5e5a265d920f8b6f679affc061c00a9a751395",
      "networkId": 0,
      "chainId": 0
    },
    {
      "hash": "0x815194e7bcdef7eb16b45e566e9ee91d80fbe7be5ea97c30fb0d7dd24667dd5a",
      "blockHash": "0x0902bdeeff2bab7d0ffbeedaa541d38fe8fec2acedff4bc15d2fd723bd745b6d",
      "blockNumber": 110468,
      "transactionIndex": 2,
      "confirmations": null,
      "from": "0xA971748c4C493bC96C7d490E1789481e1E96bB10",
      "gasPrice": {
        "_hex": "0xcb2d90a57"
      },
      "gasLimit": {
        "_hex": "0x5208"
      },
      "to": "0x32Be343B94f860124dC4fEe278FDCBD38C102D88",
      "value": {
        "_hex": "0x18633302fb147b000"
      },
      "nonce": 5,
      "data": "0x",
      "r": "0x753c978f8b62a44cb305cfec3ccbadb250cc1ddd85ab11bd8aa497681a53b8f2",
      "s": "0x69c203b2233d4a4fa94d2837595bd74e18f1101a07f789a7977b064392df300b",
      "v": 27,
      "creates": null,
      "raw": "0xf86d05850cb2d90a578252089432be343b94f860124dc4fee278fdcbd38c102d8889018633302fb147b000801ba0753c978f8b62a44cb305cfec3ccbadb250cc1ddd85ab11bd8aa497681a53b8f2a069c203b2233d4a4fa94d2837595bd74e18f1101a07f789a7977b064392df300b",
      "networkId": 0,
      "chainId": 0
    }
  ]
}