{
  "hash": "0xefb5db92cad6dbee8f3dabf6ddc4ae720259e3e7a79a54e534ead1fac39b1baa",
  "parentHash": "0x6633a11f3631d166e60880308f2c442dfc8fba7e30a54c9ffa1dad8c8a91524c",
  "number": 65128,
  "timestamp": 1439231842,
  "nonce": "0x016075d027f9d879",
  "difficulty": 1928485735639,
  "gasLimit": {
    "_hex": "0x2fefd8"
  },
  "gasUsed": {
    "_hex": "0x5208"
  },
  "miner": "0xeB1325C8D9d3ea8D74aC11F4B00F1B2367686319",
  "extraData": "0x476574682f76312e302e312f77696e646f77732f676f312e342e32",
  "transactions": [
    {
      "hash": "0x1925b6ec4bd01062cfd8b8b47dfc2bfd00ff07fef4913d72a868889cdbd2052c",
      "blockHash": "0xefb5db92cad6dbee8f3dabf6ddc4ae720259e3e7a79a54e534ead1fac39b1baa",
      "blockNumber": 65128,
      "transactionIndex": 0,
      "confirmations": null,
      "from": "0x80932CA692817E26D37687465d63aE8561BD7e77",
      "gasPrice": {
        "_hex": "0xba43b7400"
      },
      "gasLimit": {
        "_hex": "0x5208"
      },
      "to": "0xf3004758570961500296c55223cd8172eB47193B",
      "value": {
        "_hex": "0x546a0f6b3e65000"
      },
      "nonce": 1,
      "data": "0x",
      "r": "0x0cea562264f19be8d741af5b5cbc688955ab13beec3a2cf9a3b3200f558f90e8",
      "s": "0x423d01f860b7105a18dd4a8c552ebe2c4996569ba1e707a2a958733e10854fe8",
      "v": 27,
      "creates": null,
      "raw": "0xf86c01850ba43b740082520894f3004758570961500296c55223cd8172eb47193b880546a0f6b3e65000801ba00cea562264f19be8d741af5b5cbc688955ab13beec3a2cf9a3b3200f558f90e8a0423d01f860b7105a18dd4a8c552ebe2c4996569ba1e707a2a958733e10854fe8",
      "networkId": 0,
      "chainId": 0
    }
  ]
}