{
  "hash": "0xadcf4f3fd7f949ca1fbf16d6650a14043a01ab2251a5292f037ca571215c2d69",
  "parentHash": "0x0ae9e0715ed25225a646b58bfcf48bea20d38bc292d4e2c5644526bf58795cae",
  "number": 47155,
  "timestamp": 1438935145,
  "nonce": "0x78ecf72e6e1e85b3",
  "difficulty": 1459532107344,
  "gasLimit": {
    "_hex": "0x9cb9"
  },
  "gasUsed": {
    "_hex": "0x5208"
  },
  "miner": "0x9746c7e1ef2bd21FF3997fa467593a89cb852BD0",
  "extraData": "0x476574682f76312e302e312f77696e646f77732f676f312e342e32",
  "transactions": [
    {
      "hash": "0x70da4dc4d09c5a63bc5681b5d071138ca0778b1f42ebaeba146456fec739d95d",
      "blockHash": "0xadcf4f3fd7f949ca1fbf16d6650a14043a01ab2251a5292f037ca571215c2d69",
      "blockNumber": 47155,
      "transactionIndex": 0,
      "confirmations": null,
      "from": "0x1406854D149E081aC09Cb4CA560Da463f3123059",
      "gasPrice": {
        "_hex": "0xd641f460d"
      },
      "gasLimit": {
        "_hex": "0x9c40"
      },
      "to": "0xa0E74ae010D51894734c308D612131056bB721AD",
      "value": {
        "_hex": "0x8ac7230489e80000"
      },
      "nonce": 2,
      "data": "0x",
      "r": "0x9f6baf6db5aeee9249de50b8d5aa1016718be6f1c8ef5fa5ba1fb2168d167832",
      "s": "0x0e6912a1fe3ebe7da9c74e12afd22b7073d3cda64aa6d964b14a33dbe43a5c3d",
      "v": 28,
      "creates": null,
      "raw": "0xf86c02850d641f460d829c4094a0e74ae010d51894734c308d612131056bb721ad888ac7230489e80000801ca09f6baf6db5aeee9249de50b8d5aa1016718be6f1c8ef5fa5ba1fb2168d167832a00e6912a1fe3ebe7da9c74e12afd22b7073d3cda64aa6d964b14a33dbe43a5c3d",
      "networkId": 0,
      "chainId": 0
    }
  ]
}