{
  "hash": "0xb0b5c09bea35b4996bac35bbd7a4f687d7efe64f7b243f40e2e9ee939de1287f",
  "parentHash": "0xa3cb6bf7959311bc732ecefd8ff453e6734a91b5fb2ac84f5c739a421cd8adac",
  "number": 78452,
  "timestamp": 1439453960,
  "nonce": "0xef0bf0a9754d4bb4",
  "difficulty": 2290969054580,
  "gasLimit": {
    "_hex": "0x2fefd8"
  },
  "gasUsed": {
    "_hex": "0x5208"
  },
  "miner": "0xe6A7a1d47ff21B6321162AEA7C6CB457D5476Bca",
  "extraData": "0x476574682f76312e302e312d38326566323666362f6c696e75782f676f312e34",
  "transactions": [
    {
      "hash": "0x1b18f3aac21ff3bb257cb1ff5805a38e7d00a3eae5ba3087b6fa5a2ec59729e0",
      "blockHash": "0xb0b5c09bea35b4996bac35bbd7a4f687d7efe64f7b243f40e2e9ee939de1287f",
      "blockNumber": 78452,
      "transactionIndex": 0,
      "confirmations": null,
      "from": "0xf4B1114a02EFe852013277F28ed88734Fa81E54f",
      "gasPrice": {
        "_hex": "0xd4d5b7fd7"
      },
      "gasLimit": {
        "_hex": "0x15f90"
      },
      "to": "0x4B11852B35058CBFB5a50c5a007b0c134927Fd8b",
      "value": {
        "_hex": "0xde0b6b3a7640000"
      },
      "nonce": 12,
      "data": "0x",
      "r": "0x23ae301aad5e165e18b5fa779cba6949d5de1cca538bdf17a4ed4d865716aff7",
      "s": "0x5daad617537193d2c969a5aa9005d7f1c106492ce829e4e03681501015058930",
      "v": 27,
      "creates": null,
      "raw": "0xf86d0c850d4d5b7fd783015f90944b11852b35058cbfb5a50c5a007b0c134927fd8b880de0b6b3a7640000801ba023ae301aad5e165e18b5fa779cba6949d5de1cca538bdf17a4ed4d865716aff7a05daad617537193d2c969a5aa9005d7f1c106492ce829e4e03681501015058930",
      "networkId": 0,
      "chainId": 0
    }
  ]
}