{
  "hash": "0x154eba93b9d31203cceb4e3afeb4b3ba5da6f51daad43134798c62521db6bc99",
  "parentHash": "0xa15500737b1a32f11746930d75445404635d3008a6ad2dcd92c9dd30abed6735",
  "number": 71829,
  "timestamp": 1439342638,
  "nonce": "0xbe81c1b142e02947",
  "difficulty": 2167581589206,
  "gasLimit": {
    "_hex": "0x2fefd8"
  },
  "gasUsed": {
    "_hex": "0x546c"
  },
  "miner": "0xe6A7a1d47ff21B6321162AEA7C6CB457D5476Bca",
  "extraData": "0x476574682f76312e302e312d38326566323666362f6c696e75782f676f312e34",
  "transactions": [
    {
      "hash": "0xde2796962e645b14ab564fd9dd537263263d6ba47463cc40bd3e9ef8fdf742ef",
      "blockHash": "0x154eba93b9d31203cceb4e3afeb4b3ba5da6f51daad43134798c62521db6bc99",
      "blockNumber": 71829,
      "transactionIndex": 0,
      "confirmations": null,
      "from": "0x4873313Ba85B8127aF35C5c73433720FC90ba4Fe",
      "gasPrice": {
        "_hex": "0xd20be35fd"
      },
      "gasLimit": {
        "_hex": "0x61a8"
      },
      "to": "0x2910543Af39abA0Cd09dBb2D50200b3E800A63D2",
      "value": {
        "_hex": "0x347c52f369071380"
      },
      "nonce": 3,
      "data": "0x454e484d3633324a47",
      "r": "0xf13c536ddef821c5b4a1ea8917dad3665000fb2d44e68770fe5b6987fcad0fc9",
      "s": "0x6cc5a15f47e548ecc10ac1134d9dfed2bda3aaf5f5a5c0ba88d1c5dca85fb3aa",
      "v": 27,
      "creates": null,
      "raw": "0xf87503850d20be35fd8261a8942910543af39aba0cd09dbb2d50200b3e800a63d288347c52f36907138089454e484d3633324a471ba0f13c536ddef821c5b4a1ea8917dad3665000fb2d44e68770fe5b6987fcad0fc9a06cc5a15f47e548ecc10ac1134d9dfed2bda3aaf5f5a5c0ba88d1c5dca85fb3aa",
      "networkId": 0,
      "chainId": 0
    }
  ]
}