{
  "hash": "0x7d69d2b284c14d0b71bccc2315b98bbb5eb6e3d2093831354ab2803a21a630bc",
  "parentHash": "0x2c8ec7679bbbf2e819d3ac0fa86572182bfe8fde114a4a7cfe429b8ed7233165",
  "number": 77079,
  "timestamp": 1439431070,
  "nonce": "0x3242eebfe02bb580",
  "difficulty": 2239358295970,
  "gasLimit": {
    "_hex": "0x2fefd5"
  },
  "gasUsed": {
    "_hex": "0x5208"
  },
  "miner": "0xbb7B8287f3F0a933474a79eAe42CBCa977791171",
  "extraData": "0x476574682f4c5649562f76312e302e312f6c696e75782f676f312e342e32",
  "transactions": [
    {
      "hash": "0xdc080ed32126eda5461bf650e00fe7b8758a3b652b0260036bb613accd596dc6",
      "blockHash": "0x7d69d2b284c14d0b71bccc2315b98bbb5eb6e3d2093831354ab2803a21a630bc",
      "blockNumber": 77079,
      "transactionIndex": 0,
      "confirmations": null,
      "from": "0xEF247E639d49461D25F57e9362CadE3120910Ce0",
      "gasPrice": {
        "_hex": "0xe0499db19"
      },
      "gasLimit": {
        "_hex": "0x15f90"
      },
      "to": "0xF87481A262E993a75F791E7859E71BaC36A606Eb",
      "value": {
        "_hex": "0x84b4d315f0ac40000"
      },
      "nonce": 19,
      "data": "0x",
      "r": "0x1a2d745bf8b4e972decd5d15e1c400fa90e8be8861a466d40c2c2ad756221c02",
      "s": "0x4c401b8f8b1e096def2d185a14544f625d13b744120973ccd1f4b1d357c887e6",
      "v": 27,
      "creates": null,
      "raw": "0xf86e13850e0499db1983015f9094f87481a262e993a75f791e7859e71bac36a606eb89084b4d315f0ac40000801ba01a2d745bf8b4e972decd5d15e1c400fa90e8be8861a466d40c2c2ad756221c02a04c401b8f8b1e096def2d185a14544f625d13b744120973ccd1f4b1d357c887e6",
      "networkId": 0,
      "chainId": 0
    }
  ]
}