{
  "hash": "0x3cf8b15998cd13a3145204e5df449df1af34861e33f9247ffea2d9ba590e2d01",
  "parentHash": "0x10678cea1cf979584fd7f9d6396ca03985a078ce5fd4a32fd2346ed3c37c4c64",
  "number": 60741,
  "timestamp": 1439160818,
  "nonce": "0x9838457e8acc2583",
  "difficulty": 1730432445733,
  "gasLimit": {
    "_hex": "0x2fefd8"
  },
  "gasUsed": {
    "_hex": "0x5208"
  },
  "miner": "0x9746c7e1ef2bd21FF3997fa467593a89cb852BD0",
  "extraData": "0x476574682f76312e302e312f77696e646f77732f676f312e342e32",
  "transactions": [
    {
      "hash": "0xe9558281399d35e7f6b6abd87a7698971039a8d0658f06e649b334224dafc114",
      "blockHash": "0x3cf8b15998cd13a3145204e5df449df1af34861e33f9247ffea2d9ba590e2d01",
      "blockNumber": 60741,
      "transactionIndex": 0,
      "confirmations": null,
      "from": "0x120A270bbC009644e35F0bB6ab13f95b8199c4ad",
      "gasPrice": {
        "_hex": "0xcfc9a810f"
      },
      "gasLimit": {
        "_hex": "0x15f90"
      },
      "to": "0xCA092A957744f6385B1aee5dC694143E8A06F805",
      "value": {
        "_hex": "0x16345785d8a0000"
      },
      "nonce": 49,
      "data": "0x",
      "r": "0x369f3243a24246b0e969dbb044c4b8da17819277e86d41d7012fd9c068490fad",
      "s": "0x1317a93c54a7775d28c95f12d14a68488b28d4c9dae2335dd3e4e1d3ecf72bdf",
      "v": 27,
      "creates": null,
      "raw": "0xf86d31850cfc9a810f83015f9094ca092a957744f6385b1aee5dc694143e8a06f80588016345785d8a0000801ba0369f3243a24246b0e969dbb044c4b8da17819277e86d41d7012fd9c068490fada01317a93c54a7775d28c95f12d14a68488b28d4c9dae2335dd3e4e1d3ecf72bdf",
      "networkId": 0,
      "chainId": 0
    }
  ]
}