{
  "hash": "0x8649387ab23232a022cb0082b7ee5e93d6eb2349e350001eb2ec232de485b644",
  "parentHash": "0x2053158667cd8cd8df819bd502a6db586f978c258542db3408238ebafb25a25e",
  "number": 84650,
  "timestamp": 1439552549,
  "nonce": "0x18193ae7a7171c1e",
  "difficulty": 2601701708838,
  "gasLimit": {
    "_hex": "0x2fefd8"
  },
  "gasUsed": {
    "_hex": "0xf618"
  },
  "miner": "0x7E6930B63D03e88F5928C5cd6ee3FCee4D714F7F",
  "extraData": "0x",
  "transactions": [
    {
      "hash": "0x38b51fc4cee31a16a49f02116aff45da5620eb46fd411446195045724f684a5d",
      "blockHash": "0x8649387ab23232a022cb0082b7ee5e93d6eb2349e350001eb2ec232de485b644",
      "blockNumber": 84650,
      "transactionIndex": 0,
      "confirmations": null,
      "from": "0x7339BF89A60F8a29d0Ed436F3198774F8e191f37",
      "gasPrice": {
        "_hex": "0xcfa62463d"
      },
      "gasLimit": {
        "_hex": "0x5208"
      },
      "to": "0x32Be343B94f860124dC4fEe278FDCBD38C102D88",
      "value": {
        "_hex": "0x8d1ee56bd8293800"
      },
      "nonce": 5,
      "data": "0x",
      "r": "0x48a8a932666fe10302f8aae29165a46a36c00a42d8660ac728120c2638404b0a",
      "s": "0x4bd297cd02d14711b1ba1dfeb9bb665e5f7ee7983da721dbe58a76ba6c11bcb7",
      "v": 28,
      "creates": null,
      "raw": "0xf86c05850cfa62463d8252089432be343b94f860124dc4fee278fdcbd38c102d88888d1ee56bd8293800801ca048a8a932666fe10302f8aae29165a46a36c00a42d8660ac728120c2638404b0aa04bd297cd02d14711b1ba1dfeb9bb665e5f7ee7983da721dbe58a76ba6c11bcb7",
      "networkId": 0,
      "chainId": 0
    },
    {
      "hash": "0x4d2d56b6d0a87c2c2864e586c16c4a0039bfe98546080bac7f36e1b68263579d",
      "blockHash": "0x8649387ab23232a022cb0082b7ee5e93d6eb2349e350001eb2ec232de485b644",
      "blockNumber": 84650,
      "transactionIndex": 1,
      "confirmations": null,
      "from": "0x7548566f611b89EBfb57C547FeA0c293A2830aD2",
      "gasPrice": {
        "_hex": "0xcfa62463d"
      },
      "gasLimit": {
        "_hex": "0x5208"
      },
      "to": "0x32Be343B94f860124dC4fEe278FDCBD38C102D88",
      "value": {
        "_hex": "0x6120e11261c96400"
      },
      "nonce": 2,
      "data": "0x",
      "r": "0x207ac58b7ba781d5f07ed9a245d3cd96f8e2ed3acae60a8f25c41ac6a4e060bd",
      "s": "0x434d4d2ac3bd02475eecaa0c5099f18ec9e405b6e45e09485eb7b3fabccab8b2",
      "v": 27,
      "creates": null,
      "raw": "0xf86c02850cfa62463d8252089432be343b94f860124dc4fee278fdcbd38c102d88886120e11261c96400801ba0207ac58b7ba781d5f07ed9a245d3cd96f8e2ed3acae60a8f25c41ac6a4e060bda0434d4d2ac3bd02475eecaa0c5099f18ec9e405b6e45e09485eb7b3fabccab8b2",
      "networkId": 0,
      "chainId": 0
    },
    {
      "hash": "0xcb89f53578f79fa1a93d0f3d23eaeb18a4cb7aa680e89da1cf6cf78b1c3862bb",
      "blockHash": "0x8649387ab23232a022cb0082b7ee5e93d6eb2349e350001eb2ec232de485b644",
      "blockNumber": 84650,
      "transactionIndex": 2,
      "confirmations": null,
      "from": "0x9313842A74445cE581aeD029652d812c90dB892C",
      "gasPrice": {
        "_hex": "0xcfa62463d"
      },
      "gasLimit": {
        "_hex": "0x5208"
      },
      "to": "0x32Be343B94f860124dC4fEe278FDCBD38C102D88",
      "value": {
        "_hex": "0x299dfb7f0d3ae400"
      },
      "nonce": 0,
      "data": "0x",
      "r": "0x01dea0e6c0b510abc6c363ea47933d4b1829ca6e5e0f3a0edbcb42ef57c781fe",
      "s": "0x0f2b32526a3ac24083bbf9979109a512d6b3c7b6a0928870d5607fcef8890f1b",
      "v": 28,
      "creates": null,
      "raw": "0xf86c80850cfa62463d8252089432be343b94f860124dc4fee278fdcbd38c102d8888299dfb7f0d3ae400801ca001dea0e6c0b510abc6c363ea47933d4b1829ca6e5e0f3a0edbcb42ef57c781fea00f2b32526a3ac24083bbf9979109a512d6b3c7b6a0928870d5607fcef8890f1b",
      "networkId": 0,
      "chainId": 0
    }
  ]
}