{
  "hash": "0xa2aa950dd4d34a486d8064956b1b99d36a240029641a69f7b49b3ab8c5bb1997",
  "parentHash": "0x6683f2c39b0d9056a91b3d8ab7f93803c6578905538aa60489f89b7ea7a91ee0",
  "number": 80283,
  "timestamp": 1439483044,
  "nonce": "0x5cdde4e54920eb5e",
  "difficulty": 2385202367159,
  "gasLimit": {
    "_hex": "0x2fefd8"
  },
  "gasUsed": {
    "_hex": "0xf618"
  },
  "miner": "0xC603Ab5ef41fC61AA8b76bEddb09e3Cfcbb174BD",
  "extraData": "0x476574682f76312e302e312f77696e646f77732f676f312e342e32",
  "transactions": [
    {
      "hash": "0xa6d9101e7a356be33d64908aae36cc6308a6f4a89367a507cc4ea9634f6f888a",
      "blockHash": "0xa2aa950dd4d34a486d8064956b1b99d36a240029641a69f7b49b3ab8c5bb1997",
      "blockNumber": 80283,
      "transactionIndex": 0,
      "confirmations": null,
      "from": "0x2910543Af39abA0Cd09dBb2D50200b3E800A63D2",
      "gasPrice": {
        "_hex": "0xdb3488975"
      },
      "gasLimit": {
        "_hex": "0x5208"
      },
      "to": "0x833D094f108973bD9d9A248179aE4ED00a4613a6",
      "value": {
        "_hex": "0x7bdeacfe13dfb38000"
      },
      "nonce": 388,
      "data": "0x",
      "r": "0x4cdd9a731b0a84d19cb49652d72355d530c22ac6582a9aa83c66aa0b566dd0a3",
      "s": "0x4bf597ff4f76cb9524603c75006221bf1fcc74477521804a6fbcc77b748f3d79",
      "v": 27,
      "creates": null,
      "raw": "0xf86f820184850db348897582520894833d094f108973bd9d9a248179ae4ed00a4613a6897bdeacfe13dfb38000801ba04cdd9a731b0a84d19cb49652d72355d530c22ac6582a9aa83c66aa0b566dd0a3a04bf597ff4f76cb9524603c75006221bf1fcc74477521804a6fbcc77b748f3d79",
      "networkId": 0,
      "chainId": 0
    },
    {
      "hash": "0x8e7726ffce6d3f05e4e8d0d4b020f8e9811fc266a20321519259fbbe0c4b20db",
      "blockHash": "0xa2aa950dd4d34a486d8064956b1b99d36a240029641a69f7b49b3ab8c5bb1997",
      "blockNumber": 80283,
      "transactionIndex": 1,
      "confirmations": null,
      "from": "0x2910543Af39abA0Cd09dBb2D50200b3E800A63D2",
      "gasPrice": {
        "_hex": "0xdb3488975"
      },
      "gasLimit": {
        "_hex": "0x5208"
      },
      "to": "0x357BCEA183e0438656287b3AA482606276b95d9A",
      "value": {
        "_hex": "0x11c37937e08000"
      },
      "nonce": 389,
      "data": "0x",
      "r": "0xbdb3565523182e66476155a5fead8dd1b3c11e0e4192fd3042090d0a5cb87d42",
      "s": "0x76e4053297da7c3fa7e4df70f9544b95258771e232522814e624531aca22b530",
      "v": 28,
      "creates": null,
      "raw": "0xf86d820185850db348897582520894357bcea183e0438656287b3aa482606276b95d9a8711c37937e08000801ca0bdb3565523182e66476155a5fead8dd1b3c11e0e4192fd3042090d0a5cb87d42a076e4053297da7c3fa7e4df70f9544b95258771e232522814e624531aca22b530",
      "networkId": 0,
      "chainId": 0
    },
    {
      "hash": "0x9f77d0baeb8f86f9c952e750a979368fb12a709286d28aa80636ed956e77bf93",
      "blockHash": "0xa2aa950dd4d34a486d8064956b1b99d36a240029641a69f7b49b3ab8c5bb1997",
      "blockNumber": 80283,
      "transactionIndex": 2,
      "confirmations": null,
      "from": "0x2910543Af39abA0Cd09dBb2D50200b3E800A63D2",
      "gasPrice": {
        "_hex": "0xdb3488975"
      },
      "gasLimit": {
        "_hex": "0x5208"
      },
      "to": "0x79b3CC55449605B142479d28864956bd9e18f283",
      "value": {
        "_hex": "0x129e793e285b6cc000"
      },
      "nonce": 390,
      "data": "0x",
      "r": "0x96430ecbdb02d0e317c9c864173bd50d76313a34d6468227cdea28ca031f0308",
      "s": "0x3d1837d64e1482deff798b41ec925194bcda19b0aaba590c214c50b7ed6ffe61",
      "v": 27,
      "creates": null,
      "raw": "0xf86f820186850db34889758252089479b3cc55449605b142479d28864956bd9e18f28389129e793e285b6cc000801ba096430ecbdb02d0e317c9c864173bd50d76313a34d6468227cdea28ca031f0308a03d1837d64e1482deff798b41ec925194bcda19b0aaba590c214c50b7ed6ffe61",
      "networkId": 0,
      "chainId": 0
    }
  ]
}