{
  "hash": "0xf0ec4ec7ed41a0f2ccd771a099b5db06453f916ab36a4feb62affe12aadd18a8",
  "parentHash": "0x0090e430b7a7429ee3d8b64d899e58c93b6560f7d8167d57fe1ad9618d82d4bf",
  "number": 48048,
  "timestamp": 1438950407,
  "nonce": "0xd852900f863844cc",
  "difficulty": 1462944027320,
  "gasLimit": {
    "_hex": "0x120a6"
  },
  "gasUsed": {
    "_hex": "0x5208"
  },
  "miner": "0xbb7B8287f3F0a933474a79eAe42CBCa977791171",
  "extraData": "0x476574682f4c5649562f76312e302e312f6c696e75782f676f312e342e32",
  "transactions": [
    {
      "hash": "0x3156e9ab718a0a50129a891308f48611efdc3bbb763f0c3d6e786ebe1db41195",
      "blockHash": "0xf0ec4ec7ed41a0f2ccd771a099b5db06453f916ab36a4feb62affe12aadd18a8",
      "blockNumber": 48048,
      "transactionIndex": 0,
      "confirmations": null,
      "from": "0x1406854D149E081aC09Cb4CA560Da463f3123059",
      "gasPrice": {
        "_hex": "0xe75f486db"
      },
      "gasLimit": {
        "_hex": "0x5208"
      },
      "to": "0xa0E74ae010D51894734c308D612131056bB721AD",
      "value": {
        "_hex": "0x55de6a779bbac0000"
      },
      "nonce": 13,
      "data": "0x",
      "r": "0xd9fa2c050eb9bc5625739f2b163c1505e84d349cf7ccc34dd7d00a0b3e3b6949",
      "s": "0x3ad03875f5aeb80f7ea7f13479b342b9b53a81f48a37cc5f8b74e1aa1944d5f6",
      "v": 27,
      "creates": null,
      "raw": "0xf86d0d850e75f486db82520894a0e74ae010d51894734c308d612131056bb721ad89055de6a779bbac0000801ba0d9fa2c050eb9bc5625739f2b163c1505e84d349cf7ccc34dd7d00a0b3e3b6949a03ad03875f5aeb80f7ea7f13479b342b9b53a81f48a37cc5f8b74e1aa1944d5f6",
      "networkId": 0,
      "chainId": 0
    }
  ]
}