{
  "hash": "0xf08d6766992b3a529684b9651dbbe5cda95a501f816dc26ab0a52ff91bc2fadd",
  "parentHash": "0x6e95e34132d810883fb6e3803bbd9e6b1cc33ba756d35c8b6f785c86946e37c3",
  "number": 64812,
  "timestamp": 1439226652,
  "nonce": "0x1854578ee45c61e1",
  "difficulty": 1894954155284,
  "gasLimit": {
    "_hex": "0x2fefd5"
  },
  "gasUsed": {
    "_hex": "0x1cee0"
  },
  "miner": "0xf927a40C8B7F6E07c5af7FA2155B4864a4112B13",
  "extraData": "0x",
  "transactions": [
    {
      "hash": "0xedbc45b39b0194a957f1220e75ce4882028fbc48eec5d4005d904f45574b9bfa",
      "blockHash": "0xf08d6766992b3a529684b9651dbbe5cda95a501f816dc26ab0a52ff91bc2fadd",
      "blockNumber": 64812,
      "transactionIndex": 0,
      "confirmations": null,
      "from": "0x03B35D960c861Fe987C50380d76db9D6Ae1fa510",
      "gasPrice": {
        "_hex": "0xd8f3048fc"
      },
      "gasLimit": {
        "_hex": "0x5208"
      },
      "to": "0x1B636B7A496f044d7359596e353A104616436F6b",
      "value": {
        "_hex": "0x89aaeb710be0000"
      },
      "nonce": 6,
      "data": "0x",
      "r": "0x0fde1b8d14b6d1e396440f44163e8ebcde43cfc1825ce8c00d6f97db3a4291a8",
      "s": "0x542f78fc54e95cd19c8ac23451a66ba65227786bdbac17f518f411e45c405d39",
      "v": 28,
      "creates": null,
      "raw": "0xf86c06850d8f3048fc825208941b636b7a496f044d7359596e353a104616436f6b88089aaeb710be0000801ca00fde1b8d14b6d1e396440f44163e8ebcde43cfc1825ce8c00d6f97db3a4291a8a0542f78fc54e95cd19c8ac23451a66ba65227786bdbac17f518f411e45c405d39",
      "networkId": 0,
      "chainId": 0
    },
    {
      "hash": "0x2fe5d9ec23d08edac5bd098a92829984fe7af1865373412b93469ed4c2793a26",
      "blockHash": "0xf08d6766992b3a529684b9651dbbe5cda95a501f816dc26ab0a52ff91bc2fadd",
      "blockNumber": 64812,
      "transactionIndex": 1,
      "confirmations": null,
      "from": "0x28c8f8e2a6d6254964acbCC8F42f6b1cF8E73bA0",
      "gasPrice": {
        "_hex": "0xba43b7400"
      },
      "gasLimit": {
        "_hex": "0x15f90"
      },
      "to": "0x793AE8C1b1a160BFc07BFB0d04F85eab1A71F4f2",
      "value": {
        "_hex": "0x0"
      },
      "nonce": 0,
      "data": "0x3ba15036",
      "r": "0xf907cdfa9b130c604046ee145ba286449f8f61f25e163269b2f35c6f8e972e90",
      "s": "0x0c90165159bac33a790f1589b7978f19ca8792977a6c3af3bf6f9622158b898d",
      "v": 27,
      "creates": null,
      "raw": "0xf86980850ba43b740083015f9094793ae8c1b1a160bfc07bfb0d04f85eab1a71f4f280843ba150361ba0f907cdfa9b130c604046ee145ba286449f8f61f25e163269b2f35c6f8e972e90a00c90165159bac33a790f1589b7978f19ca8792977a6c3af3bf6f9622158b898d",
      "networkId": 0,
      "chainId": 0
    },
    {
      "hash": "0x71146d7bbdfce6b081dc0262c3bc7be5cd484d3f199a372618ed2c40cd83038b",
      "blockHash": "0xf08d6766992b3a529684b9651dbbe5cda95a501f816dc26ab0a52ff91bc2fadd",
      "blockNumber": 64812,
      "transactionIndex": 2,
      "confirmations": null,
      "from": "0x4Dcf7ffF63B7cbD7AcCEdb81DE2005A7e7a03bea",
      "gasPrice": {
        "_hex": "0xba43b7400"
      },
      "gasLimit": {
        "_hex": "0x15f90"
      },
      "to": "0x793AE8C1b1a160BFc07BFB0d04F85eab1A71F4f2",
      "value": {
        "_hex": "0x0"
      },
      "nonce": 0,
      "data": "0x3ba15036",
      "r": "0xd97e56402c5f0b063f62644361e8d9732a2f69fa6081e72fcdbd695c643bce78",
      "s": "0x321f76d97b7db7cc9986bfa66e6e88ad395e73bbf08f507ac46508ca2eb09774",
      "v": 28,
      "creates": null,
      "raw": "0xf86980850ba43b740083015f9094793ae8c1b1a160bfc07bfb0d04f85eab1a71f4f280843ba150361ca0d97e56402c5f0b063f62644361e8d9732a2f69fa6081e72fcdbd695c643bce78a0321f76d97b7db7cc9986bfa66e6e88ad395e73bbf08f507ac46508ca2eb09774",
      "networkId": 0,
      "chainId": 0
    }
  ]
}