{
  "hash": "0x2ee682eee8ed7ecfca086c6ae8f489cb0af69af9fecbaf6cbded532414248ca6",
  "parentHash": "0x786a3ad0595598a440186e1fe374e18b2ae8a1bc0961c81cf9790d3d29c87a03",
  "number": 112757,
  "timestamp": 1440012682,
  "nonce": "0x433e7be4250c0d14",
  "difficulty": 4443264614631,
  "gasLimit": {
    "_hex": "0x2fefd8"
  },
  "gasUsed": {
    "_hex": "0x5208"
  },
  "miner": "0xe6A7a1d47ff21B6321162AEA7C6CB457D5476Bca",
  "extraData": "0x476574682f76312e302e312d38326566323666362f6c696e75782f676f312e34",
  "transactions": [
    {
      "hash": "0x01d4ec45b15baa8c853e217a210a8ed2ab3e877469064ac02e3d700bd3131745",
      "blockHash": "0x2ee682eee8ed7ecfca086c6ae8f489cb0af69af9fecbaf6cbded532414248ca6",
      "blockNumber": 112757,
      "transactionIndex": 0,
      "confirmations": null,
      "from": "0x7550E0d09f273C690454B44F794D7D381B2E55EA",
      "gasPrice": {
        "_hex": "0xce00d1e5b"
      },
      "gasLimit": {
        "_hex": "0x5208"
      },
      "to": "0x32Be343B94f860124dC4fEe278FDCBD38C102D88",
      "value": {
        "_hex": "0x51c4987bcd498c00"
      },
      "nonce": 8,
      "data": "0x",
      "r": "0xf128639f0e5754298c83df63f9db1eaa0bd605c1673ab84a169f35b0b237465b",
      "s": "0x7b75deb07259e587b694a07eeae53affdf1aa8233cc0e9112d250b05083e331c",
      "v": 28,
      "creates": null,
      "raw": "0xf86c08850ce00d1e5b8252089432be343b94f860124dc4fee278fdcbd38c102d888851c4987bcd498c00801ca0f128639f0e5754298c83df63f9db1eaa0bd605c1673ab84a169f35b0b237465ba07b75deb07259e587b694a07eeae53affdf1aa8233cc0e9112d250b05083e331c",
      "networkId": 0,
      "chainId": 0
    }
  ]
}