{
  "hash": "0x3784bc1470224b516618032731a443c9e0879078c2487edd4bf1f4445a41f061",
  "parentHash": "0xc580f7f32bfbb647cf8062e57ab48be4d1ccbfdcbbf62ef8aeb9011858073f43",
  "number": 115950,
  "timestamp": 1440066015,
  "nonce": "0xd8ab89c86e20a8c2",
  "difficulty": 4571390111290,
  "gasLimit": {
    "_hex": "0x2fefd8"
  },
  "gasUsed": {
    "_hex": "0xa410"
  },
  "miner": "0xe6A7a1d47ff21B6321162AEA7C6CB457D5476Bca",
  "extraData": "0x476574682f76312e302e312d38326566323666362f6c696e75782f676f312e34",
  "transactions": [
    {
      "hash": "0xdf73b4b5ac37f6371381b17b722d721b070f6a101a905edf51c794350babd627",
      "blockHash": "0x3784bc1470224b516618032731a443c9e0879078c2487edd4bf1f4445a41f061",
      "blockNumber": 115950,
      "transactionIndex": 0,
      "confirmations": null,
      "from": "0x4FCD326ae0739D0DA0fC71020adb6aBf9abf3BdA",
      "gasPrice": {
        "_hex": "0xba43b7400"
      },
      "gasLimit": {
        "_hex": "0x5208"
      },
      "to": "0xC47Aaa860008be6f65B58c6C6E02a84e666EfE31",
      "value": {
        "_hex": "0x16a8e6965f2443ead0"
      },
      "nonce": 14,
      "data": "0x",
      "r": "0x03912abc44a4b41de3ed42c77bc46628bb2d26a586c3574296d4c7416643e715",
      "s": "0x1da1db7e0cebbe129706e25805a03024d9305e98f7fe4722c43744930baee2b3",
      "v": 28,
      "creates": null,
      "raw": "0xf86d0e850ba43b740082520894c47aaa860008be6f65b58c6c6e02a84e666efe318916a8e6965f2443ead0801ca003912abc44a4b41de3ed42c77bc46628bb2d26a586c3574296d4c7416643e715a01da1db7e0cebbe129706e25805a03024d9305e98f7fe4722c43744930baee2b3",
      "networkId": 0,
      "chainId": 0
    },
    {
      "hash": "0x300ceada56b8fcba06f1f497562c247885212de261ecc8fa5076e6866c6c7569",
      "blockHash": "0x3784bc1470224b516618032731a443c9e0879078c2487edd4bf1f4445a41f061",
      "blockNumber": 115950,
      "transactionIndex": 1,
      "confirmations": null,
      "from": "0x663F37156fa35DBA128c9682f13D515b68002002",
      "gasPrice": {
        "_hex": "0xba43b7400"
      },
      "gasLimit": {
        "_hex": "0x5208"
      },
      "to": "0xC47Aaa860008be6f65B58c6C6E02a84e666EfE31",
      "value": {
        "_hex": "0x4e0fc8030ac246000"
      },
      "nonce": 5,
      "data": "0x",
      "r": "0xdd60254e5c71858e34bf2df1755566bb2f0ac7e5e72264da4c094d909ed922b4",
      "s": "0x3f0e888576a577fe660a66c0d571f4ae18d38f2e2dc4bae4cbda8c77ea6cd55e",
      "v": 28,
      "creates": null,
      "raw": "0xf86d05850ba43b740082520894c47aaa860008be6f65b58c6c6e02a84e666efe318904e0fc8030ac246000801ca0dd60254e5c71858e34bf2df1755566bb2f0ac7e5e72264da4c094d909ed922b4a03f0e888576a577fe660a66c0d571f4ae18d38f2e2dc4bae4cbda8c77ea6cd55e",
      "networkId": 0,
      "chainId": 0
    }
  ]
}