{
  "hash": "0xfe6f9e58a5ce71093ee107417680284ba2182fdbd1dd1efc0569dfb96d5663fd",
  "parentHash": "0xf86dfbdf3bdd60d2b1c6d73abf173ea7a7f46e751a4d8986c42b894e214130b3",
  "number": 77982,
  "timestamp": 1439446077,
  "nonce": "0x468cf224ea08d21c",
  "difficulty": 2293335910273,
  "gasLimit": {
    "_hex": "0x2fefd8"
  },
  "gasUsed": {
    "_hex": "0x7a62"
  },
  "miner": "0xbb7B8287f3F0a933474a79eAe42CBCa977791171",
  "extraData": "0x476574682f4c5649562f76312e302e312f6c696e75782f676f312e342e32",
  "transactions": [
    {
      "hash": "0xc93827e386cc5fc5e2419b611cd19561ac55c982a477f29d0dc9f62f5dbd8fdb",
      "blockHash": "0xfe6f9e58a5ce71093ee107417680284ba2182fdbd1dd1efc0569dfb96d5663fd",
      "blockNumber": 77982,
      "transactionIndex": 0,
      "confirmations": null,
      "from": "0xD1826373C4E0938f0b4302B40324f7f9c546492C",
      "gasPrice": {
        "_hex": "0xd88b19538"
      },
      "gasLimit": {
        "_hex": "0x30d40"
      },
      "to": "0x93eEA62C088759fd22ebc15a6f9645672D3a9265",
      "value": {
        "_hex": "0xe8d4a51000"
      },
      "nonce": 13,
      "data": "0x",
      "r": "0xa3728aeeb92701b815278dfb9d7028df786d1b8d125a09324d4858c709877aaa",
      "s": "0x61bad0d2ac1326d0f8514119ddd390c55c0a5edc9d6f9fcad42bdaa8ad4836c7",
      "v": 28,
      "creates": null,
      "raw": "0xf86a0d850d88b1953883030d409493eea62c088759fd22ebc15a6f9645672d3a926585e8d4a51000801ca0a3728aeeb92701b815278dfb9d7028df786d1b8d125a09324d4858c709877aaaa061bad0d2ac1326d0f8514119ddd390c55c0a5edc9d6f9fcad42bdaa8ad4836c7",
      "networkId": 0,
      "chainId": 0
    }
  ]
}