{
  "hash": "0xe6553e60c059b1042946d69cefe12a42c703c4c354d5a4153cf8667efe38aebc",
  "parentHash": "0x6b78ff39edff9b8814e73f08677b1a40dbafc32cc9845f627212f654b74c597f",
  "number": 50483,
  "timestamp": 1438989953,
  "nonce": "0x7c9f4f40d6d2a9b3",
  "difficulty": 1509681756859,
  "gasLimit": {
    "_hex": "0x660b6"
  },
  "gasUsed": {
    "_hex": "0x13005"
  },
  "miner": "0x01434e4Ac3238bEC44a39ad642aBaBBB68D097e6",
  "extraData": "0x476574682f76312e302e302f77696e646f77732f676f312e342e32",
  "transactions": [
    {
      "hash": "0xc94bfe30d490c03fbf3b013cbaf1acd01d4f381e09ac999f00dcdcc8e999494e",
      "blockHash": "0xe6553e60c059b1042946d69cefe12a42c703c4c354d5a4153cf8667efe38aebc",
      "blockNumber": 50483,
      "transactionIndex": 0,
      "confirmations": null,
      "from": "0x1C356cfdB95FEbb714633B28d5C132dD84A9b436",
      "gasPrice": {
        "_hex": "0xfe091ea50c"
      },
      "gasLimit": {
        "_hex": "0x15f90"
      },
      "to": "0x1da881Fae84444ebEf7B72F3267a4e67Aa61faE9",
      "value": {
        "_hex": "0x1158e460913d00000"
      },
      "nonce": 0,
      "data": "0x",
      "r": "0x5739a03c89622f0582e54758b599babf64b02d04454b83f93015ee80c495825b",
      "s": "0x7103a855af31f1316acf14df83bf753d09326f9ec1b81173a6de13ca3e167258",
      "v": 27,
      "creates": null,
      "raw": "0xf86e8085fe091ea50c83015f90941da881fae84444ebef7b72f3267a4e67aa61fae98901158e460913d00000801ba05739a03c89622f0582e54758b599babf64b02d04454b83f93015ee80c495825ba07103a855af31f1316acf14df83bf753d09326f9ec1b81173a6de13ca3e167258",
      "networkId": 0,
      "chainId": 0
    },
    {
      "hash": "0xc1184a236c82968c242c0c054a8f6d657b89e281c86fd8286f86edce70899a4b",
      "blockHash": "0xe6553e60c059b1042946d69cefe12a42c703c4c354d5a4153cf8667efe38aebc",
      "blockNumber": 50483,
      "transactionIndex": 1,
      "confirmations": null,
      "from": "0x475351efe1D9cf36276Ff2b7aE1D38bDB072E22c",
      "gasPrice": {
        "_hex": "0xd400a8893"
      },
      "gasLimit": {
        "_hex": "0x15f90"
      },
      "to": "0x109C4f2CCc82C4d77Bde15F306707320294Aea3F",
      "value": {
        "_hex": "0xde0b6b3a7640000"
      },
      "nonce": 0,
      "data": "0x",
      "r": "0xa9afa99f731089cb1e758ff2f82c1d790cb1daae5dc43dc235bd907e45912fab",
      "s": "0x3fc31136cbea3c10125baea0287d09974ad533d6e74012083f88d4d84d0cfc9d",
      "v": 27,
      "creates": null,
      "raw": "0xf86d80850d400a889383015f9094109c4f2ccc82c4d77bde15f306707320294aea3f880de0b6b3a7640000801ba0a9afa99f731089cb1e758ff2f82c1d790cb1daae5dc43dc235bd907e45912faba03fc31136cbea3c10125baea0287d09974ad533d6e74012083f88d4d84d0cfc9d",
      "networkId": 0,
      "chainId": 0
    }
  ]
}