{
  "hash": "0xb0eefe641ff29a9f467bf446029edd7cf329afec40853ef346d83083c73014bc",
  "parentHash": "0x1c7491ef31087667281d57d002aff390081024b5da05265f0296056a5ed91811",
  "number": 97321,
  "timestamp": 1439754373,
  "nonce": "0x83a5853b8ba47bab",
  "difficulty": 3777895020492,
  "gasLimit": {
    "_hex": "0x2fefd8"
  },
  "gasUsed": {
    "_hex": "0x20225"
  },
  "miner": "0x790b8a3cE86E707ED0eD32bF89B3269692a23CC1",
  "extraData": "0xd783010001844765746887676f312e342e32856c696e7578",
  "transactions": [
    {
      "hash": "0x22dc85ce1375890f97f40be29aa4837412cc5c6a009235fcb6cce64111934ab0",
      "blockHash": "0xb0eefe641ff29a9f467bf446029edd7cf329afec40853ef346d83083c73014bc",
      "blockNumber": 97321,
      "transactionIndex": 0,
      "confirmations": null,
      "from": "0x0D82Cd113DC35DdDA93f38166cD5CDe8b88e36A1",
      "gasPrice": {
        "_hex": "0xdab04d095"
      },
      "gasLimit": {
        "_hex": "0x30d40"
      },
      "to": "0x4d6387f3B967dA39B11DE111158D49754C31985d",
      "value": {
        "_hex": "0x16345785d8a0000"
      },
      "nonce": 22,
      "data": "0x02dc2e1d00000000000000000000000000000000000000000000000000000000000000200000000000000000000000000000000000000000000000000000000000000022314858416b567468516268586d3861365a755a41374c4759685a6a66734243347954000000000000000000000000000000000000000000000000000000000000",
      "r": "0x7e2f0a1ab2cc9f50d3b7a42fa2a3d58a3f6cfac7d68605874c83e60991468ba3",
      "s": "0x5fed4ca296ddc9fd80b65c46195f3247abaddeea0ec3011e70f292e624deee73",
      "v": 27,
      "creates": null,
      "raw": "0xf8f216850dab04d09583030d40944d6387f3b967da39b11de111158d49754c31985d88016345785d8a0000b88402dc2e1d00000000000000000000000000000000000000000000000000000000000000200000000000000000000000000000000000000000000000000000000000000022314858416b567468516268586d3861365a755a41374c4759685a6a667342433479540000000000000000000000000000000000000000000000000000000000001ba07e2f0a1ab2cc9f50d3b7a42fa2a3d58a3f6cfac7d68605874c83e60991468ba3a05fed4ca296ddc9fd80b65c46195f3247abaddeea0ec3011e70f292e624deee73",
      "networkId": 0,
      "chainId": 0
    }
  ]
}