{
  "hash": "0x9bf31e660ae7e89718baea0f48f0d27ef0655d7104a791e2d837c1ab3f8477fc",
  "parentHash": "0x8e0adc637e9e7daeb13518abc365aceff5a21dac467cf4897740be486072af11",
  "number": 78759,
  "timestamp": 1439458894,
  "nonce": "0x8c401fceec88921f",
  "difficulty": 2303222876869,
  "gasLimit": {
    "_hex": "0x2fefd8"
  },
  "gasUsed": {
    "_hex": "0x546c"
  },
  "miner": "0xe6A7a1d47ff21B6321162AEA7C6CB457D5476Bca",
  "extraData": "0x476574682f76312e302e312d38326566323666362f6c696e75782f676f312e34",
  "transactions": [
    {
      "hash": "0x3298b8ca9eaec974e9c93e13ce80a3de337723a2916bf5ac4b3a0f42d02e5804",
      "blockHash": "0x9bf31e660ae7e89718baea0f48f0d27ef0655d7104a791e2d837c1ab3f8477fc",
      "blockNumber": 78759,
      "transactionIndex": 0,
      "confirmations": null,
      "from": "0x0B5e2011eBc25a007f21362960498AFb8Af280fb",
      "gasPrice": {
        "_hex": "0xd8364fc25"
      },
      "gasLimit": {
        "_hex": "0x55f0"
      },
      "to": "0x2910543Af39abA0Cd09dBb2D50200b3E800A63D2",
      "value": {
        "_hex": "0xabbcd4ef377580000"
      },
      "nonce": 4,
      "data": "0x454e58395059555538",
      "r": "0x432a042e952ba905dc6d16b8349f62e20f2790ac637cd3fd441276db066ea07f",
      "s": "0x379ab688a355dd9cc9a8cc277d0f3fe57becdb55ed48f5830eb6158682135262",
      "v": 27,
      "creates": null,
      "raw": "0xf87604850d8364fc258255f0942910543af39aba0cd09dbb2d50200b3e800a63d2890abbcd4ef37758000089454e583950595555381ba0432a042e952ba905dc6d16b8349f62e20f2790ac637cd3fd441276db066ea07fa0379ab688a355dd9cc9a8cc277d0f3fe57becdb55ed48f5830eb6158682135262",
      "networkId": 0,
      "chainId": 0
    }
  ]
}