{
  "hash": "0x046b2f246f734a8d82bf6b37f3ba92993c7e18dae5ba30ce9b428aa9b0c6fc2b",
  "parentHash": "0x3b0745dc605be1d0e5bd6bcc9e335599f5b574752af8178321988517d81a0a48",
  "number": 95700,
  "timestamp": 1439728210,
  "nonce": "0x5c0b3a6a6866b2eb",
  "difficulty": 3621469011503,
  "gasLimit": {
    "_hex": "0x2fefd8"
  },
  "gasUsed": {
    "_hex": "0x5208"
  },
  "miner": "0x47ff6576639c2e94762eA5443978D7681C0E78DC",
  "extraData": "0x476574682f76312e302e312f6c696e75782f676f312e342e32",
  "transactions": [
    {
      "hash": "0xa8ed4da5f8cb285a118be6bd489ae56302c2a54f25b1188d945bee0062d7dc4e",
      "blockHash": "0x046b2f246f734a8d82bf6b37f3ba92993c7e18dae5ba30ce9b428aa9b0c6fc2b",
      "blockNumber": 95700,
      "transactionIndex": 0,
      "confirmations": null,
      "from": "0x1332996a46dcBBE02f9cF164Dfc153aB976a9766",
      "gasPrice": {
        "_hex": "0xba43b7400"
      },
      "gasLimit": {
        "_hex": "0x5208"
      },
      "to": "0xC47Aaa860008be6f65B58c6C6E02a84e666EfE31",
      "value": {
        "_hex": "0xddcfbbb7a606000"
      },
      "nonce": 5,
      "data": "0x",
      "r": "0xba676e370c6d417dd905d195b028ae4018066045a6544f60eb06073e5d043c1d",
      "s": "0x172f180bb2c2b5557d9781782bfdff8892111a65a979f59039706750b2848967",
      "v": 28,
      "creates": null,
      "raw": "0xf86c05850ba43b740082520894c47aaa860008be6f65b58c6c6e02a84e666efe31880ddcfbbb7a606000801ca0ba676e370c6d417dd905d195b028ae4018066045a6544f60eb06073e5d043c1da0172f180bb2c2b5557d9781782bfdff8892111a65a979f59039706750b2848967",
      "networkId": 0,
      "chainId": 0
    }
  ]
}