{
  "hash": "0x02f59e13ac851291a19eb9379fcf3aa39b4852deb63d574a20c0a3c96835c9eb",
  "parentHash": "0xd1dff8abfca2491be16f8bb4d488d4cfc7ed4dd73085a1bf1ad4ba1593e63106",
  "number": 73442,
  "timestamp": 1439369462,
  "nonce": "0xf5d87bd1f1f7388c",
  "difficulty": 2200218132048,
  "gasLimit": {
    "_hex": "0x2fefd8"
  },
  "gasUsed": {
    "_hex": "0x5208"
  },
  "miner": "0xe6A7a1d47ff21B6321162AEA7C6CB457D5476Bca",
  "extraData": "0x476574682f76312e302e312d38326566323666362f6c696e75782f676f312e34",
  "transactions": [
    {
      "hash": "0xd8b80e89246bee5e9cf36dfb8b65082a57e9f54965b7cfcfeda2e68bb1215d30",
      "blockHash": "0x02f59e13ac851291a19eb9379fcf3aa39b4852deb63d574a20c0a3c96835c9eb",
      "blockNumber": 73442,
      "transactionIndex": 0,
      "confirmations": null,
      "from": "0x460A1fBd987e6E83974c9f5749ec2802B6890c9b",
      "gasPrice": {
        "_hex": "0xd64601eb8"
      },
      "gasLimit": {
        "_hex": "0x5208"
      },
      "to": "0x32Be343B94f860124dC4fEe278FDCBD38C102D88",
      "value": {
        "_hex": "0x44f4a6e4ae170c00"
      },
      "nonce": 0,
      "data": "0x",
      "r": "0xd2ca23b4b186c2c6701262fb8be1076b29a8f6b8d24b8d9ff08087041490845a",
      "s": "0x67d4c4c581dbf00e7ecb8ccfe658107240e2ad7a4505c70d24d153dfaf9721cd",
      "v": 27,
      "creates": null,
      "raw": "0xf86c80850d64601eb88252089432be343b94f860124dc4fee278fdcbd38c102d888844f4a6e4ae170c00801ba0d2ca23b4b186c2c6701262fb8be1076b29a8f6b8d24b8d9ff08087041490845aa067d4c4c581dbf00e7ecb8ccfe658107240e2ad7a4505c70d24d153dfaf9721cd",
      "networkId": 0,
      "chainId": 0
    }
  ]
}