{
  "hash": "0xe0a12b4dc21aff45d617f10d04aa1a0e820b443c0ba1d03e05b0a647fa787479",
  "parentHash": "0x449bc0460d885a6d8512e0b05a6ec9e5cebf9521a4a1305fcf1a286206976fc5",
  "number": 68505,
  "timestamp": 1439289071,
  "nonce": "0xf320fa5d63a0cfaf",
  "difficulty": 2005479765343,
  "gasLimit": {
    "_hex": "0x2fefd8"
  },
  "gasUsed": {
    "_hex": "0x12ea94"
  },
  "miner": "0xf927a40C8B7F6E07c5af7FA2155B4864a4112B13",
  "extraData": "0x",
  "transactions": [
    {
      "hash": "0xff9809f55609d7431052033af46a0a4b4165986a67d4604601ba0f60338dd0cb",
      "blockHash": "0xe0a12b4dc21aff45d617f10d04aa1a0e820b443c0ba1d03e05b0a647fa787479",
      "blockNumber": 68505,
      "transactionIndex": 0,
      "confirmations": null,
      "from": "0x4b032472f0401478d5DdBeb896Fe9110ee969019",
      "gasPrice": {
        "_hex": "0xba43b7400"
      },
      "gasLimit": {
        "_hex": "0x15f90"
      },
      "to": "0x793AE8C1b1a160BFc07BFB0d04F85eab1A71F4f2",
      "value": {
        "_hex": "0x0"
      },
      "nonce": 0,
      "data": "0x3ba15036",
      "r": "0xef407c807553c1afca9f1fb079183053e6b8a55b02cb372fca931e66417c7fd3",
      "s": "0x564771c97e35712ff7cf529e2c946ec2d8f9ca041714c0d638ed2f9b386839d4",
      "v": 27,
      "creates": null,
      "raw": "0xf86980850ba43b740083015f9094793ae8c1b1a160bfc07bfb0d04f85eab1a71f4f280843ba150361ba0ef407c807553c1afca9f1fb079183053e6b8a55b02cb372fca931e66417c7fd3a0564771c97e35712ff7cf529e2c946ec2d8f9ca041714c0d638ed2f9b386839d4",
      "networkId": 0,
      "chainId": 0
    },
    {
      "hash": "0xf44b07f9098de76296a8bdaf2aafc056e96195d117bf81ad621e69ede6a1c0a9",
      "blockHash": "0xe0a12b4dc21aff45d617f10d04aa1a0e820b443c0ba1d03e05b0a647fa787479",
      "blockNumber": 68505,
      "transactionIndex": 1,
      "confirmations": null,
      "from": "0xB3cC07cF55154Ed6ebee7a3C0b453FB242758c08",
      "gasPrice": {
        "_hex": "0xba43b7400"
      },
      "gasLimit": {
        "_hex": "0x15f90"
      },
      "to": "0x793AE8C1b1a160BFc07BFB0d04F85eab1A71F4f2",
      "value": {
        "_hex": "0x0"
      },
      "nonce": 0,
      "data": "0x3ba15036",
      "r": "0x532da28bc26033b26bdeebfb55278db8d523fc96fb89e971263a5d1d66322367",
      "s": "0x5d551b25cbb08c3e0b66957222285bdea62eb8d707aa7fe88952e71307928e4a",
      "v": 28,
      "creates": null,
      "raw": "0xf86980850ba43b740083015f9094793ae8c1b1a160bfc07bfb0d04f85eab1a71f4f280843ba150361ca0532da28bc26033b26bdeebfb55278db8d523fc96fb89e971263a5d1d66322367a05d551b25cbb08c3e0b66957222285bdea62eb8d707aa7fe88952e71307928e4a",
      "networkId": 0,
      "chainId": 0
    },
    {
      "hash": "0x3019173d6ed5b90d5f0760c6b079cc4d39113a7ae65ab944fd9fe051fda72ae3",
      "blockHash": "0xe0a12b4dc21aff45d617f10d04aa1a0e820b443c0ba1d03e05b0a647fa787479",
      "blockNumber": 68505,
      "transactionIndex": 2,
      "confirmations": null,
      "from": "0x2CB041676092Af3590C3b992deD6bCFEF9e422A7",
      "gasPrice": {
        "_hex": "0xba43b7400"
      },
      "gasLimit": {
        "_hex": "0x15f90"
      },
      "to": "0x793AE8C1b1a160BFc07BFB0d04F85eab1A71F4f2",
      "value": {
        "_hex": "0x0"
      },
      "nonce": 0,
      "data": "0x3ba15036",
      "r": "0xec1727140ad4bf18e23a7ddc0f115a19febbfa65621ccc58693ae5e086298b47",
      "s": "0x2b02cdb12e3f358a64a1219ef035d866d2d9f3e1c53a72de29a890123368f42a",
      "v": 28,
      "creates": null,
      "raw": "0xf86980850ba43b740083015f9094793ae8c1b1a160bfc07bfb0d04f85eab1a71f4f280843ba150361ca0ec1727140ad4bf18e23a7ddc0f115a19febbfa65621ccc58693ae5e086298b47a02b02cdb12e3f358a64a1219ef035d866d2d9f3e1c53a72de29a890123368f42a",
      "networkId": 0,
      "chainId": 0
    },
    {
      "hash": "0xdf39f0c88cb872455d6914fdcdd98bc011b1f78801004a35978294ce03f24927",
      "blockHash": "0xe0a12b4dc21aff45d617f10d04aa1a0e820b443c0ba1d03e05b0a647fa787479",
      "blockNumber": 68505,
      "transactionIndex": 3,
      "confirmations": null,
      "from": "0xE2AAE26A1263Fd248aBAF160690889157Dbcc689",
      "gasPrice": {
        "_hex": "0xba43b7400"
      },
      "gasLimit": {
        "_hex": "0x15f90"
      },
      "to": "0x793AE8C1b1a160BFc07BFB0d04F85eab1A71F4f2",
      "value": {
        "_hex": "0x0"
      },
      "nonce": 0,
      "data": "0x3ba15036",
      "r": "0x37b23d1886d33fb3882bbadec81b2ff97fd80d55fd52365b243f56777f8ee339",
      "s": "0x0d0da28fff97f1b709f8756081ccafb85c9d3db8f940a95e1ec6cb675700361b",
      "v": 27,
      "creates": null,
      "raw": "0xf86980850ba43b740083015f9094793ae8c1b1a160bfc07bfb0d04f85eab1a71f4f280843ba150361ba037b23d1886d33fb3882bbadec81b2ff97fd80d55fd52365b243f56777f8ee339a00d0da28fff97f1b709f8756081ccafb85c9d3db8f940a95e1ec6cb675700361b",
      "networkId": 0,
      "chainId": 0
    },
    {
      "hash": "0xd434b73c2e6426485008f60c5e61da6a5b38a79b8312595f9945b2bc71feb592",
      "blockHash": "0xe0a12b4dc21aff45d617f10d04aa1a0e820b443c0ba1d03e05b0a647fa787479",
      "blockNumber": 68505,
      "transactionIndex": 4,
      "confirmations": null,
      "from": "0x67A745d2B7E681A661b256E1b88f5A78cB45eC16",
      "gasPrice": {
        "_hex": "0xba43b7400"
      },
      "gasLimit": {
        "_hex": "0x15f90"
      },
      "to": "0x793AE8C1b1a160BFc07BFB0d04F85eab1A71F4f2",
      "value": {
        "_hex": "0x0"
      },
      "nonce": 0,
      "data": "0x3ba15036",
      "r": "0xf7b3ad5d67d3bdbc0e34fc7a6499eef9242adf11ec56a5b47508e19aee69860a",
      "s": "0x0e24b4d7a84041c343487d54dc33729df20c8bc8e7900c3087b434cd52398300",
      "v": 28,
      "creates": null,
      "raw": "0xf86980850ba43b740083015f9094793ae8c1b1a160bfc07bfb0d04f85eab1a71f4f280843ba150361ca0f7b3ad5d67d3bdbc0e34fc7a6499eef9242adf11ec56a5b47508e19aee69860aa00e24b4d7a84041c343487d54dc33729df20c8bc8e7900c3087b434cd52398300",
      "networkId": 0,
      "chainId": 0
    },
    {
      "hash": "0x991eedbeab4fd95324b6b88f07376de38f98fb03072d581f0dfb5d1749fd1d74",
      "blockHash": "0xe0a12b4dc21aff45d617f10d04aa1a0e820b443c0ba1d03e05b0a647fa787479",
      "blockNumber": 68505,
      "transactionIndex": 5,
      "confirmations": null,
      "from": "0x9732cbd1921eb809706dAd3d9D8D7f443af5805e",
      "gasPrice": {
        "_hex": "0xba43b7400"
      },
      "gasLimit": {
        "_hex": "0x15f90"
      },
      "to": "0x793AE8C1b1a160BFc07BFB0d04F85eab1A71F4f2",
      "value": {
        "_hex": "0x0"
      },
      "nonce": 0,
      "data": "0x3ba15036",
      "r": "0x051533c03a59346ba3365b94ab8afd4b53c9a7b5f1ee91f1695dfad88b9ff916",
      "s": "0x2d5ba1d9d39df57e907468591b4f6628e9695d0016e344f28297fd99704eb7a8",
      "v": 28,
      "creates": null,
      "raw": "0xf86980850ba43b740083015f9094793ae8c1b1a160bfc07bfb0d04f85eab1a71f4f280843ba150361ca0051533c03a59346ba3365b94ab8afd4b53c9a7b5f1ee91f1695dfad88b9ff916a02d5ba1d9d39df57e907468591b4f6628e9695d0016e344f28297fd99704eb7a8",
      "networkId": 0,
      "chainId": 0
    },
    {
      "hash": "0xb0408c54a698adf89ae2a3dcab5dfbfcffac48723963ef93d78a89162e647ab6",
      "blockHash": "0xe0a12b4dc21aff45d617f10d04aa1a0e820b443c0ba1d03e05b0a647fa787479",
      "blockNumber": 68505,
      "transactionIndex": 6,
      "confirmations": null,
      "from": "0x7fbe475cCC767007ea983772B6891326c2Db04A3",
      "gasPrice": {
        "_hex": "0xba43b7400"
      },
      "gasLimit": {
        "_hex": "0x15f90"
      },
      "to": "0x793AE8C1b1a160BFc07BFB0d04F85eab1A71F4f2",
      "value": {
        "_hex": "0x0"
      },
      "nonce": 0,
      "data": "0x3ba15036",
      "r": "0xe39e3f428e42b9997ba2d44cf2ca1d2eb85d7aef7ac59b263647930b63e84b18",
      "s": "0x39a72596882f8c797b5aeba72230748f7b91cc30fe451602a64b5951d9aeff10",
      "v": 28,
      "creates": null,
      "raw": "0xf86980850ba43b740083015f9094793ae8c1b1a160bfc07bfb0d04f85eab1a71f4f280843ba150361ca0e39e3f428e42b9997ba2d44cf2ca1d2eb85d7aef7ac59b263647930b63e84b18a039a72596882f8c797b5aeba72230748f7b91cc30fe451602a64b5951d9aeff10",
      "networkId": 0,
      "chainId": 0
    },
    {
      "hash": "0x14335e298a4de1d514cc426fa3a67db1d660f875f6db8f59ba7724edc340c9c0",
      "blockHash": "0xe0a12b4dc21aff45d617f10d04aa1a0e820b443c0ba1d03e05b0a647fa787479",
      "blockNumber": 68505,
      "transactionIndex": 7,
      "confirmations": null,
      "from": "0x95ED185c726Ba52cAD31fe7e166e2Fd941c2a0B2",
      "gasPrice": {
        "_hex": "0xba43b7400"
      },
      "gasLimit": {
        "_hex": "0x15f90"
      },
      "to": "0x793AE8C1b1a160BFc07BFB0d04F85eab1A71F4f2",
      "value": {
        "_hex": "0x0"
      },
      "nonce": 0,
      "data": "0x3ba15036",
      "r": "0x59eb9f77d8a40343b1ebe3ba007322d68dc9be4d87b006dd6de5a5ee4f23a3f9",
      "s": "0x6a6e850e61d690fc045a28703d382e21986a21e3edfc088215eb121ea527eedc",
      "v": 27,
      "creates": null,
      "raw": "0xf86980850ba43b740083015f9094793ae8c1b1a160bfc07bfb0d04f85eab1a71f4f280843ba150361ba059eb9f77d8a40343b1ebe3ba007322d68dc9be4d87b006dd6de5a5ee4f23a3f9a06a6e850e61d690fc045a28703d382e21986a21e3edfc088215eb121ea527eedc",
      "networkId": 0,
      "chainId": 0
    },
    {
      "hash": "0x271fb56dab9d7c35496960ba07a2c9f5fa084447019a84b69766c88852ff78e9",
      "blockHash": "0xe0a12b4dc21aff45d617f10d04aa1a0e820b443c0ba1d03e05b0a647fa787479",
      "blockNumber": 68505,
      "transactionIndex": 8,
      "confirmations": null,
      "from": "0xf5dB5e9A98633A8b23717EB755099E34E4CdCeD4",
      "gasPrice": {
        "_hex": "0xba43b7400"
      },
      "gasLimit": {
        "_hex": "0x15f90"
      },
      "to": "0x793AE8C1b1a160BFc07BFB0d04F85eab1A71F4f2",
      "value": {
        "_hex": "0x0"
      },
      "nonce": 0,
      "data": "0x3ba15036",
      "r": "0xb08d1e439296c8b84a9d296f884456ba6dec794ef20539538d02f1e72021706c",
      "s": "0x4154e4955da5a4a25d4581b95c44f0e970f7a376e89d57d5ed8dae1ab7401b8e",
      "v": 27,
      "creates": null,
      "raw": "0xf86980850ba43b740083015f9094793ae8c1b1a160bfc07bfb0d04f85eab1a71f4f280843ba150361ba0b08d1e439296c8b84a9d296f884456ba6dec794ef20539538d02f1e72021706ca04154e4955da5a4a25d4581b95c44f0e970f7a376e89d57d5ed8dae1ab7401b8e",
      "networkId": 0,
      "chainId": 0
    },
    {
      "hash": "0x18cd4193d701a22612847b899549023c384b4ae1c3c288f04936b6b5b9c6a600",
      "blockHash": "0xe0a12b4dc21aff45d617f10d04aa1a0e820b443c0ba1d03e05b0a647fa787479",
      "blockNumber": 68505,
      "transactionIndex": 9,
      "confirmations": null,
      "from": "0xEEDA42CE41E61B08551A197a5fF330313A8a3a3e",
      "gasPrice": {
        "_hex": "0xba43b7400"
      },
      "gasLimit": {
        "_hex": "0x15f90"
      },
      "to": "0x793AE8C1b1a160BFc07BFB0d04F85eab1A71F4f2",
      "value": {
        "_hex": "0x0"
      },
      "nonce": 0,
      "data": "0x3ba15036",
      "r": "0xa91f4e79e69cec85397186b02ceed5ef365e3494773458a68ffd2ea837e29f51",
      "s": "0x0e067131043222f1729137d3372f188e114e6d560628b254bec4a325abd78dc1",
      "v": 28,
      "creates": null,
      "raw": "0xf86980850ba43b740083015f9094793ae8c1b1a160bfc07bfb0d04f85eab1a71f4f280843ba150361ca0a91f4e79e69cec85397186b02ceed5ef365e3494773458a68ffd2ea837e29f51a00e067131043222f1729137d3372f188e114e6d560628b254bec4a325abd78dc1",
      "networkId": 0,
      "chainId": 0
    },
    {
      "hash": "0xa15066eedd01fbed4db7bf76626faed79b88d5240663e68cf76c38a151ce83cd",
      "blockHash": "0xe0a12b4dc21aff45d617f10d04aa1a0e820b443c0ba1d03e05b0a647fa787479",
      "blockNumber": 68505,
      "transactionIndex": 10,
      "confirmations": null,
      "from": "0xdA8f26874DAfC2085812d5750228BA8310ca2d33",
      "gasPrice": {
        "_hex": "0xba43b7400"
      },
      "gasLimit": {
        "_hex": "0x15f90"
      },
      "to": "0x793AE8C1b1a160BFc07BFB0d04F85eab1A71F4f2",
      "value": {
        "_hex": "0x0"
      },
      "nonce": 0,
      "data": "0x3ba15036",
      "r": "0x809838fac5349016044887d0f693b9bb5cbc9f65cf5567309d225dcb578d4b94",
      "s": "0x290fae74c44a6196ab24f7acfe1e0479dbfae02b1a3830e8e42eaa90a33d7c05",
      "v": 27,
      "creates": null,
      "raw": "0xf86980850ba43b740083015f9094793ae8c1b1a160bfc07bfb0d04f85eab1a71f4f280843ba150361ba0809838fac5349016044887d0f693b9bb5cbc9f65cf5567309d225dcb578d4b94a0290fae74c44a6196ab24f7acfe1e0479dbfae02b1a3830e8e42eaa90a33d7c05",
      "networkId": 0,
      "chainId": 0
    },
    {
      "hash": "0xb27c8e822b5152c2a0e6a8190e2c00477951a423499b9c5fef599ab9bbcdd279",
      "blockHash": "0xe0a12b4dc21aff45d617f10d04aa1a0e820b443c0ba1d03e05b0a647fa787479",
      "blockNumber": 68505,
      "transactionIndex": 11,
      "confirmations": null,
      "from": "0x7864040dAaDE04DCc649eaCb6baB5279AEd4c920",
      "gasPrice": {
        "_hex": "0xba43b7400"
      },
      "gasLimit": {
        "_hex": "0x15f90"
      },
      "to": "0x793AE8C1b1a160BFc07BFB0d04F85eab1A71F4f2",
      "value": {
        "_hex": "0x0"
      },
      "nonce": 0,
      "data": "0x3ba15036",
      "r": "0x813ac9c09fb9758c08c53372fa1bc5b8cdff9835319ce436c6ee72e7aae1e991",
      "s": "0x48bfac6fa42378d496110482dd64b773877b95b81970c3154701bc8b90a55395",
      "v": 27,
      "creates": null,
      "raw": "0xf86980850ba43b740083015f9094793ae8c1b1a160bfc07bfb0d04f85eab1a71f4f280843ba150361ba0813ac9c09fb9758c08c53372fa1bc5b8cdff9835319ce436c6ee72e7aae1e991a048bfac6fa42378d496110482dd64b773877b95b81970c3154701bc8b90a55395",
      "networkId": 0,
      "chainId": 0
    },
    {
      "hash": "0xcd9cdcd7e6399f7b26b3bcb0ea257b1c9d84ae9b1dacdf2782ce8ec13869ce6a",
      "blockHash": "0xe0a12b4dc21aff45d617f10d04aa1a0e820b443c0ba1d03e05b0a647fa787479",
      "blockNumber": 68505,
      "transactionIndex": 12,
      "confirmations": null,
      "from": "0xEcB4D432602E91459ac24e450f20e3849B6AE9C3",
      "gasPrice": {
        "_hex": "0xba43b7400"
      },
      "gasLimit": {
        "_hex": "0x15f90"
      },
      "to": "0x793AE8C1b1a160BFc07BFB0d04F85eab1A71F4f2",
      "value": {
        "_hex": "0x0"
      },
      "nonce": 0,
      "data": "0x3ba15036",
      "r": "0xa592f9508ef22a03d67f924c2c9cd52dc5ab25ec1173b7670ec346c73e129783",
      "s": "0x25485813fac109d982472aeb8f505098daeba472d9b012f6dc96f5cf3396682a",
      "v": 28,
      "creates": null,
      "raw": "0xf86980850ba43b740083015f9094793ae8c1b1a160bfc07bfb0d04f85eab1a71f4f280843ba150361ca0a592f9508ef22a03d67f924c2c9cd52dc5ab25ec1173b7670ec346c73e129783a025485813fac109d982472aeb8f505098daeba472d9b012f6dc96f5cf3396682a",
      "networkId": 0,
      "chainId": 0
    },
    {
      "hash": "0x445afa543d76c0eceae43d528ccb90dfa4febcbdd8baed2966c76113163c2e50",
      "blockHash": "0xe0a12b4dc21aff45d617f10d04aa1a0e820b443c0ba1d03e05b0a647fa787479",
      "blockNumber": 68505,
      "transactionIndex": 13,
      "confirmations": null,
      "from": "0x9cC6a77ee966f161E13B175347618fB7b551B789",
      "gasPrice": {
        "_hex": "0xba43b7400"
      },
      "gasLimit": {
        "_hex": "0x15f90"
      },
      "to": "0x793AE8C1b1a160BFc07BFB0d04F85eab1A71F4f2",
      "value": {
        "_hex": "0x0"
      },
      "nonce": 0,
      "data": "0x3ba15036",
      "r": "0x9c017006512ae2434a7df46def46650eae0c79da8200b9c4d2441fa7ae999bcc",
      "s": "0x530b8ecae3d6179838ee937f2f498dbe8cb54f6f36c1f70c04da4ec2a37480b3",
      "v": 27,
      "creates": null,
      "raw": "0xf86980850ba43b740083015f9094793ae8c1b1a160bfc07bfb0d04f85eab1a71f4f280843ba150361ba09c017006512ae2434a7df46def46650eae0c79da8200b9c4d2441fa7ae999bcca0530b8ecae3d6179838ee937f2f498dbe8cb54f6f36c1f70c04da4ec2a37480b3",
      "networkId": 0,
      "chainId": 0
    },
    {
      "hash": "0xfdfd52bed56b666c2696b58d3558b630e9c130c07b579fa4b3ffb08bca5c326a",
      "blockHash": "0xe0a12b4dc21aff45d617f10d04aa1a0e820b443c0ba1d03e05b0a647fa787479",
      "blockNumber": 68505,
      "transactionIndex": 14,
      "confirmations": null,
      "from": "0x693d930F8e9796aBB6c5c1F3123b8c0f14332C4E",
      "gasPrice": {
        "_hex": "0xba43b7400"
      },
      "gasLimit": {
        "_hex": "0x15f90"
      },
      "to": "0x793AE8C1b1a160BFc07BFB0d04F85eab1A71F4f2",
      "value": {
        "_hex": "0x0"
      },
      "nonce": 0,
      "data": "0x3ba15036",
      "r": "0x45bd03cae3bc84f77b8b92528de57ede1d6bb160d501ccf39b95588d484a4615",
      "s": "0x3c74d85c4d1f818faeddca35c720336d1724584d95f24a0177068573797de382",
      "v": 28,
      "creates": null,
      "raw": "0xf86980850ba43b740083015f9094793ae8c1b1a160bfc07bfb0d04f85eab1a71f4f280843ba150361ca045bd03cae3bc84f77b8b92528de57ede1d6bb160d501ccf39b95588d484a4615a03c74d85c4d1f818faeddca35c720336d1724584d95f24a0177068573797de382",
      "networkId": 0,
      "chainId": 0
    },
    {
      "hash": "0x554c635fae97bad040f65d9ca13167b00a2a8a4e1f4adb910c17925dccb8accd",
      "blockHash": "0xe0a12b4dc21aff45d617f10d04aa1a0e820b443c0ba1d03e05b0a647fa787479",
      "blockNumber": 68505,
      "transactionIndex": 15,
      "confirmations": null,
      "from": "0x6747f922385c9a6F9cfDf095F34345257DD597bE",
      "gasPrice": {
        "_hex": "0xba43b7400"
      },
      "gasLimit": {
        "_hex": "0x5208"
      },
      "to": "0xe0A72878B9228910F108F826e5b0eED0B7a495D5",
      "value": {
        "_hex": "0x1fcbfa42bd6000"
      },
      "nonce": 115,
      "data": "0x",
      "r": "0xb5609659b65476fb74e22d3144efaf3e9565412cea905b819e84000d20e86e91",
      "s": "0x3a9adad1bbde750a49ec4198effed317167402678fc8cbc680b4df8ae386776f",
      "v": 28,
      "creates": null,
      "raw": "0xf86b73850ba43b740082520894e0a72878b9228910f108f826e5b0eed0b7a495d5871fcbfa42bd6000801ca0b5609659b65476fb74e22d3144efaf3e9565412cea905b819e84000d20e86e91a03a9adad1bbde750a49ec4198effed317167402678fc8cbc680b4df8ae386776f",
      "networkId": 0,
      "chainId": 0
    },
    {
      "hash": "0x068c0bb28e72ad044a6c3c06e94596b7c887abd9f84b12741292e82bc6593f18",
      "blockHash": "0xe0a12b4dc21aff45d617f10d04aa1a0e820b443c0ba1d03e05b0a647fa787479",
      "blockNumber": 68505,
      "transactionIndex": 16,
      "confirmations": null,
      "from": "0xc8ef51f333ffC599be0C92d2C63bc5203B6090Da",
      "gasPrice": {
        "_hex": "0xba43b7400"
      },
      "gasLimit": {
        "_hex": "0x15f90"
      },
      "to": "0x793AE8C1b1a160BFc07BFB0d04F85eab1A71F4f2",
      "value": {
        "_hex": "0x0"
      },
      "nonce": 0,
      "data": "0x3ba15036",
      "r": "0x1bb8468d1507558c37ac96b2ba2ae41e5d8b554749850f3301780ae6c392db07",
      "s": "0x126f5207099defcc43b348bc7a56124dc35ce5ac2cb569c59d323512ffd1d394",
      "v": 28,
      "creates": null,
      "raw": "0xf86980850ba43b740083015f9094793ae8c1b1a160bfc07bfb0d04f85eab1a71f4f280843ba150361ca01bb8468d1507558c37ac96b2ba2ae41e5d8b554749850f3301780ae6c392db07a0126f5207099defcc43b348bc7a56124dc35ce5ac2cb569c59d323512ffd1d394",
      "networkId": 0,
      "chainId": 0
    },
    {
      "hash": "0x0ca9d2740e13dcf3e659112012e0c9d4a63a6f6c812b1f972701aef486d1ae17",
      "blockHash": "0xe0a12b4dc21aff45d617f10d04aa1a0e820b443c0ba1d03e05b0a647fa787479",
      "blockNumber": 68505,
      "transactionIndex": 17,
      "confirmations": null,
      "from": "0x47213dE9efcAFb94A4c80EBf832363Fc604B697e",
      "gasPrice": {
        "_hex": "0xba43b7400"
      },
      "gasLimit": {
        "_hex": "0x15f90"
      },
      "to": "0x793AE8C1b1a160BFc07BFB0d04F85eab1A71F4f2",
      "value": {
        "_hex": "0x0"
      },
      "nonce": 0,
      "data": "0x3ba15036",
      "r": "0xe48d56a4ae19077016d0bf95a65c4741c56d510179650ceeb1eca05f7bdf54ef",
      "s": "0x4d0efe764dfb241caffed66b7ea3efe2229e019c06c630ecb581e3181496cc24",
      "v": 27,
      "creates": null,
      "raw": "0xf86980850ba43b740083015f9094793ae8c1b1a160bfc07bfb0d04f85eab1a71f4f280843ba150361ba0e48d56a4ae19077016d0bf95a65c4741c56d510179650ceeb1eca05f7bdf54efa04d0efe764dfb241caffed66b7ea3efe2229e019c06c630ecb581e3181496cc24",
      "networkId": 0,
      "chainId": 0
    },
    {
      "hash": "0x669b5d08199d4191dd61f4620a04ad935e18ceb1b568bbfd7d1521d3d13ee0c2",
      "blockHash": "0xe0a12b4dc21aff45d617f10d04aa1a0e820b443c0ba1d03e05b0a647fa787479",
      "blockNumber": 68505,
      "transactionIndex": 18,
      "confirmations": null,
      "from": "0x408d29220b2dF46090F23ab1EFf61a3e7eD1dD24",
      "gasPrice": {
        "_hex": "0xba43b7400"
      },
      "gasLimit": {
        "_hex": "0x15f90"
      },
      "to": "0x793AE8C1b1a160BFc07BFB0d04F85eab1A71F4f2",
      "value": {
        "_hex": "0x0"
      },
      "nonce": 0,
      "data": "0x3ba15036",
      "r": "0x8d5c3dfeb5535415f21e44ef81aa7290c2e8d01107227606cd7fc4cd27b088a0",
      "s": "0x7da56db3185c36982eeab419bccf6f2c1a1711372422ead827689d72bb4861e0",
      "v": 27,
      "creates": null,
      "raw": "0xf86980850ba43b740083015f9094793ae8c1b1a160bfc07bfb0d04f85eab1a71f4f280843ba150361ba08d5c3dfeb5535415f21e44ef81aa7290c2e8d01107227606cd7fc4cd27b088a0a07da56db3185c36982eeab419bccf6f2c1a1711372422ead827689d72bb4861e0",
      "networkId": 0,
      "chainId": 0
    },
    {
      "hash": "0x873d202f2b76591c8f00b26e8624a2274814b84f526d4bec6753addf218c1822",
      "blockHash": "0xe0a12b4dc21aff45d617f10d04aa1a0e820b443c0ba1d03e05b0a647fa787479",
      "blockNumber": 68505,
      "transactionIndex": 19,
      "confirmations": null,
      "from": "0x10cAF5dF0dA6d9d3b87fC7a479cA360369aBcE5b",
      "gasPrice": {
        "_hex": "0xba43b7400"
      },
      "gasLimit": {
        "_hex": "0x15f90"
      },
      "to": "0x793AE8C1b1a160BFc07BFB0d04F85eab1A71F4f2",
      "value": {
        "_hex": "0x0"
      },
      "nonce": 0,
      "data": "0x3ba15036",
      "r": "0x5a9086ffc6d9a45a7d2db1e51456ddb4389b00ca5158d515456017865fa5f48e",
      "s": "0x0de8ab3895bd166d4a7914658cf08985d45e12bc43d830f3a327a059e711a596",
      "v": 27,
      "creates": null,
      "raw": "0xf86980850ba43b740083015f9094793ae8c1b1a160bfc07bfb0d04f85eab1a71f4f280843ba150361ba05a9086ffc6d9a45a7d2db1e51456ddb4389b00ca5158d515456017865fa5f48ea00de8ab3895bd166d4a7914658cf08985d45e12bc43d830f3a327a059e711a596",
      "networkId": 0,
      "chainId": 0
    },
    {
      "hash": "0x01146944255f7784d22becfb0bd0aafec10d5e00d1b6d666182471ba772ae45e",
      "blockHash": "0xe0a12b4dc21aff45d617f10d04aa1a0e820b443c0ba1d03e05b0a647fa787479",
      "blockNumber": 68505,
      "transactionIndex": 20,
      "confirmations": null,
      "from": "0xcEb5638F6Eaf9412ED05825FFF23da0Fd8f2f3A8",
      "gasPrice": {
        "_hex": "0xba43b7400"
      },
      "gasLimit": {
        "_hex": "0x15f90"
      },
      "to": "0x793AE8C1b1a160BFc07BFB0d04F85eab1A71F4f2",
      "value": {
        "_hex": "0x0"
      },
      "nonce": 0,
      "data": "0x3ba15036",
      "r": "0xbd15ccc9abfdd371025dde5dc6472426366daa44b8ae0f62015be3749ce4c466",
      "s": "0x5f2eb0ccf4b677ef4b5d7717bbaebc59ed17f73d9fec7ec752996315359e9464",
      "v": 28,
      "creates": null,
      "raw": "0xf86980850ba43b740083015f9094793ae8c1b1a160bfc07bfb0d04f85eab1a71f4f280843ba150361ca0bd15ccc9abfdd371025dde5dc6472426366daa44b8ae0f62015be3749ce4c466a05f2eb0ccf4b677ef4b5d7717bbaebc59ed17f73d9fec7ec752996315359e9464",
      "networkId": 0,
      "chainId": 0
    },
    {
      "hash": "0x40d4c8e40ce8bb1a2f9dcf192c70bb16a7f5d2020c466179eaafbb025532b68a",
      "blockHash": "0xe0a12b4dc21aff45d617f10d04aa1a0e820b443c0ba1d03e05b0a647fa787479",
      "blockNumber": 68505,
      "transactionIndex": 21,
      "confirmations": null,
      "from": "0x338a57C2dA211d6F910B5BDcD2a078B81268f2F3",
      "gasPrice": {
        "_hex": "0xba43b7400"
      },
      "gasLimit": {
        "_hex": "0x15f90"
      },
      "to": "0x793AE8C1b1a160BFc07BFB0d04F85eab1A71F4f2",
      "value": {
        "_hex": "0x0"
      },
      "nonce": 0,
      "data": "0x3ba15036",
      "r": "0x6f1c22b37d1583ee687bae0aff9fb52dcd4d855e56331c26e99790b48cbc96dc",
      "s": "0x2c8890341235fb2621816d0f094af1278d61352683f5aab9ed58684e5ac44147",
      "v": 27,
      "creates": null,
      "raw": "0xf86980850ba43b740083015f9094793ae8c1b1a160bfc07bfb0d04f85eab1a71f4f280843ba150361ba06f1c22b37d1583ee687bae0aff9fb52dcd4d855e56331c26e99790b48cbc96dca02c8890341235fb2621816d0f094af1278d61352683f5aab9ed58684e5ac44147",
      "networkId": 0,
      "chainId": 0
    },
    {
      "hash": "0xe0437655fe21a46678c39cd3e41ad6e55dfeb3f5d5048ffed00fda5649ae7121",
      "blockHash": "0xe0a12b4dc21aff45d617f10d04aa1a0e820b443c0ba1d03e05b0a647fa787479",
      "blockNumber": 68505,
      "transactionIndex": 22,
      "confirmations": null,
      "from": "0x16EAF5D034f3c17f6FCC588636E0b313c4F297AD",
      "gasPrice": {
        "_hex": "0xba43b7400"
      },
      "gasLimit": {
        "_hex": "0x15f90"
      },
      "to": "0x793AE8C1b1a160BFc07BFB0d04F85eab1A71F4f2",
      "value": {
        "_hex": "0x0"
      },
      "nonce": 0,
      "data": "0x3ba15036",
      "r": "0xd8b045c398b186e99cba82c23bf4b60ad54e35b71c43032f79ccd63b5781b758",
      "s": "0x0559fb30e9d2c1d6f76baaddba972e7bafb59cfcfb10dbbf4fb50a3afb7785e9",
      "v": 27,
      "creates": null,
      "raw": "0xf86980850ba43b740083015f9094793ae8c1b1a160bfc07bfb0d04f85eab1a71f4f280843ba150361ba0d8b045c398b186e99cba82c23bf4b60ad54e35b71c43032f79ccd63b5781b758a00559fb30e9d2c1d6f76baaddba972e7bafb59cfcfb10dbbf4fb50a3afb7785e9",
      "networkId": 0,
      "chainId": 0
    },
    {
      "hash": "0xaf1b453009dc807096264d0ee158ae1e794eadfafe4fa417d50e1f5840292a70",
      "blockHash": "0xe0a12b4dc21aff45d617f10d04aa1a0e820b443c0ba1d03e05b0a647fa787479",
      "blockNumber": 68505,
      "transactionIndex": 23,
      "confirmations": null,
      "from": "0x214E2E8FA77b87e4485Fcb10C6F1bfD13395CA27",
      "gasPrice": {
        "_hex": "0xba43b7400"
      },
      "gasLimit": {
        "_hex": "0x15f90"
      },
      "to": "0x793AE8C1b1a160BFc07BFB0d04F85eab1A71F4f2",
      "value": {
        "_hex": "0x0"
      },
      "nonce": 0,
      "data": "0x3ba15036",
      "r": "0x7c552137a0c088233e49d6391447ee58b18207763c4cf71dd2b5a5405c1540f7",
      "s": "0x48f3d09fb84678e7aaf13d7116d3da247f6902a71318bfd82528f398b3d0c785",
      "v": 27,
      "creates": null,
      "raw": "0xf86980850ba43b740083015f9094793ae8c1b1a160bfc07bfb0d04f85eab1a71f4f280843ba150361ba07c552137a0c088233e49d6391447ee58b18207763c4cf71dd2b5a5405c1540f7a048f3d09fb84678e7aaf13d7116d3da247f6902a71318bfd82528f398b3d0c785",
      "networkId": 0,
      "chainId": 0
    },
    {
      "hash": "0x299b0fa0804cd9554707842d9e6b662e5636510b9b19b9b2f1fe1eeea898b599",
      "blockHash": "0xe0a12b4dc21aff45d617f10d04aa1a0e820b443c0ba1d03e05b0a647fa787479",
      "blockNumber": 68505,
      "transactionIndex": 24,
      "confirmations": null,
      "from": "0xAb37276D454e22Feb796b00396C376BB9de9B9e0",
      "gasPrice": {
        "_hex": "0xba43b7400"
      },
      "gasLimit": {
        "_hex": "0x15f90"
      },
      "to": "0x793AE8C1b1a160BFc07BFB0d04F85eab1A71F4f2",
      "value": {
        "_hex": "0x0"
      },
      "nonce": 0,
      "data": "0x3ba15036",
      "r": "0xd6a6e599ddc1a0f6101a715457ad632d190ccbc089f9915aa402d9e57f5f73de",
      "s": "0x1922999e8b084b9f8ae1b57b1e8fb594a3361d478ca9bcdd371c88ce30539741",
      "v": 28,
      "creates": null,
      "raw": "0xf86980850ba43b740083015f9094793ae8c1b1a160bfc07bfb0d04f85eab1a71f4f280843ba150361ca0d6a6e599ddc1a0f6101a715457ad632d190ccbc089f9915aa402d9e57f5f73dea01922999e8b084b9f8ae1b57b1e8fb594a3361d478ca9bcdd371c88ce30539741",
      "networkId": 0,
      "chainId": 0
    },
    {
      "hash": "0xad759e4a7654c360f8c66030d771f3868e9695121ae29a2a7480ff01ea95e6a3",
      "blockHash": "0xe0a12b4dc21aff45d617f10d04aa1a0e820b443c0ba1d03e05b0a647fa787479",
      "blockNumber": 68505,
      "transactionIndex": 25,
      "confirmations": null,
      "from": "0xbbCa80d4DaA223b1BCd725DB4814c22F9B7E332e",
      "gasPrice": {
        "_hex": "0xba43b7400"
      },
      "gasLimit": {
        "_hex": "0x15f90"
      },
      "to": "0x793AE8C1b1a160BFc07BFB0d04F85eab1A71F4f2",
      "value": {
        "_hex": "0x0"
      },
      "nonce": 0,
      "data": "0x3ba15036",
      "r": "0xc4423037c6f37b3474c3010f305e7ab8947ffe0edd6588e3c8198ad449100fe0",
      "s": "0x1c15eb7a9d1ba271d04731cf8635f393a7005cf1c61c3e038fe3d3231c3402e4",
      "v": 27,
      "creates": null,
      "raw": "0xf86980850ba43b740083015f9094793ae8c1b1a160bfc07bfb0d04f85eab1a71f4f280843ba150361ba0c4423037c6f37b3474c3010f305e7ab8947ffe0edd6588e3c8198ad449100fe0a01c15eb7a9d1ba271d04731cf8635f393a7005cf1c61c3e038fe3d3231c3402e4",
      "networkId": 0,
      "chainId": 0
    }
  ]
}