{
  "hash": "0x724baa7ffac761746484c5653be61601eb631cdaf78e59a412ae7afe8d143d38",
  "parentHash": "0x9f7618f410f401cbcdc6b7dcca86a42b221ef4b2f22de32aed0651c6f2640809",
  "number": 71450,
  "timestamp": 1439336270,
  "nonce": "0x36a570abd0957db1",
  "difficulty": 2179353657698,
  "gasLimit": {
    "_hex": "0x2fefd8"
  },
  "gasUsed": {
    "_hex": "0x5208"
  },
  "miner": "0xB6be56962eab062fC2A764216eEd2Bf07ea1bd92",
  "extraData": "0x476574682f76312e302e312d37666266393930632f6c696e75782f676f312e34",
  "transactions": [
    {
      "hash": "0xc74463cab30cccfab8b3db564533dfd7c71d3b9b8172e36dd9669f99fac9534a",
      "blockHash": "0x724baa7ffac761746484c5653be61601eb631cdaf78e59a412ae7afe8d143d38",
      "blockNumber": 71450,
      "transactionIndex": 0,
      "confirmations": null,
      "from": "0x2910543Af39abA0Cd09dBb2D50200b3E800A63D2",
      "gasPrice": {
        "_hex": "0xdaaa4fde2"
      },
      "gasLimit": {
        "_hex": "0x5208"
      },
      "to": "0x5c59E28366c83f1d262567c1c529185146e68b16",
      "value": {
        "_hex": "0x1dd0b6c28068f78000"
      },
      "nonce": 271,
      "data": "0x",
      "r": "0x5bd9b274bade3b4c92f1924aff199555730bf9bcc6592bf7f2d64cd2631350ad",
      "s": "0x334c298574353e3db0db24adea76d7601a7db34cafd280e962ae6169f3ecb6e5",
      "v": 28,
      "creates": null,
      "raw": "0xf86f82010f850daaa4fde2825208945c59e28366c83f1d262567c1c529185146e68b16891dd0b6c28068f78000801ca05bd9b274bade3b4c92f1924aff199555730bf9bcc6592bf7f2d64cd2631350ada0334c298574353e3db0db24adea76d7601a7db34cafd280e962ae6169f3ecb6e5",
      "networkId": 0,
      "chainId": 0
    }
  ]
}