{
  "hash": "0xbeeec5009817f22bae6f8945b8ecf896470f81127ece9f973dfa4faa0aa11250",
  "parentHash": "0xb989185bd9c24fa579aef75382e6f532c8923bf741b8e7d21f806386a92289eb",
  "number": 94036,
  "timestamp": 1439701634,
  "nonce": "0x74bdd851b7c47f2e",
  "difficulty": 3486827062613,
  "gasLimit": {
    "_hex": "0x2fefd5"
  },
  "gasUsed": {
    "_hex": "0xf618"
  },
  "miner": "0x35e8e5dC5FBd97c5b421A80B596C030a2Be2A04D",
  "extraData": "0x476574682f76312e302e312f6c696e75782f676f312e342e32",
  "transactions": [
    {
      "hash": "0xe4dd23a37f9d8223d28d3a4e8e88775873c210bf4e9159a693725398392a45cc",
      "blockHash": "0xbeeec5009817f22bae6f8945b8ecf896470f81127ece9f973dfa4faa0aa11250",
      "blockNumber": 94036,
      "transactionIndex": 0,
      "confirmations": null,
      "from": "0x047fF53dFE1F7BD2c3Ed2D1f777F35D1f64e9ffE",
      "gasPrice": {
        "_hex": "0xde764984f"
      },
      "gasLimit": {
        "_hex": "0x5208"
      },
      "to": "0x32Be343B94f860124dC4fEe278FDCBD38C102D88",
      "value": {
        "_hex": "0x1c88fd325459e1000"
      },
      "nonce": 6,
      "data": "0x",
      "r": "0x6ae984b8eb17481754bdcdf59f2ccb10ea85758683cd2f1fe4d7c8da1c0fd3db",
      "s": "0x122e3d0e0d699b9dd3e4e82b9fdc8512840b9baa72eb6a16084c76184385694d",
      "v": 28,
      "creates": null,
      "raw": "0xf86d06850de764984f8252089432be343b94f860124dc4fee278fdcbd38c102d888901c88fd325459e1000801ca06ae984b8eb17481754bdcdf59f2ccb10ea85758683cd2f1fe4d7c8da1c0fd3dba0122e3d0e0d699b9dd3e4e82b9fdc8512840b9baa72eb6a16084c76184385694d",
      "networkId": 0,
      "chainId": 0
    },
    {
      "hash": "0xecae28233e6528edf87d39736e21223d98e6555817fb4011bd808a09d0fd937e",
      "blockHash": "0xbeeec5009817f22bae6f8945b8ecf896470f81127ece9f973dfa4faa0aa11250",
      "blockNumber": 94036,
      "transactionIndex": 1,
      "confirmations": null,
      "from": "0xFD7c9117BbEB649d9b37B3D3C9917f7c12f526B3",
      "gasPrice": {
        "_hex": "0xde764984f"
      },
      "gasLimit": {
        "_hex": "0x5208"
      },
      "to": "0x32Be343B94f860124dC4fEe278FDCBD38C102D88",
      "value": {
        "_hex": "0x17f025ba2374640000"
      },
      "nonce": 26,
      "data": "0x",
      "r": "0xb7db6c46e4fe3b9e72710edacaa5f90347d511d32af1566b0ed51fe73f9818c9",
      "s": "0x7378a44fde398788473dc0dd6306de94f5060a520b68f1ca0e0543b55a75b723",
      "v": 27,
      "creates": null,
      "raw": "0xf86d1a850de764984f8252089432be343b94f860124dc4fee278fdcbd38c102d888917f025ba2374640000801ba0b7db6c46e4fe3b9e72710edacaa5f90347d511d32af1566b0ed51fe73f9818c9a07378a44fde398788473dc0dd6306de94f5060a520b68f1ca0e0543b55a75b723",
      "networkId": 0,
      "chainId": 0
    },
    {
      "hash": "0x6bcd1545226dcf4124ae51fccaa947a0862a75e7d8fa0d3015479e8f896c70e6",
      "blockHash": "0xbeeec5009817f22bae6f8945b8ecf896470f81127ece9f973dfa4faa0aa11250",
      "blockNumber": 94036,
      "transactionIndex": 2,
      "confirmations": null,
      "from": "0xE300c4587D260cE22a677755Db6429B491A4309E",
      "gasPrice": {
        "_hex": "0xd734a72bc"
      },
      "gasLimit": {
        "_hex": "0x15f90"
      },
      "to": "0x06EC48800B2DB3eEfa052e98A9b5Fc2Bf783Ee74",
      "value": {
        "_hex": "0x253145ccfe0c00000"
      },
      "nonce": 11,
      "data": "0x",
      "r": "0x5f28868c189003e24ac1970de539a470ac1f87a6dc1e8cf838bc312d309a0e75",
      "s": "0x6960a69699fa6a558d08a283bd64f1303f0fe756b2b6d1afc985b65d2c34d4d5",
      "v": 27,
      "creates": null,
      "raw": "0xf86e0b850d734a72bc83015f909406ec48800b2db3eefa052e98a9b5fc2bf783ee74890253145ccfe0c00000801ba05f28868c189003e24ac1970de539a470ac1f87a6dc1e8cf838bc312d309a0e75a06960a69699fa6a558d08a283bd64f1303f0fe756b2b6d1afc985b65d2c34d4d5",
      "networkId": 0,
      "chainId": 0
    }
  ]
}