{
  "hash": "0xc06614f6bec0b9a78a5316b21b30c9b6dbb2bcc2dc8f609706b7886108a86d95",
  "parentHash": "0x209978e4719188a00cf619a36b9b4cf3aac707c9159b92ea2670d8ee34cbc2a7",
  "number": 59997,
  "timestamp": 1439147222,
  "nonce": "0xe0cff30734074cc4",
  "difficulty": 1730585927571,
  "gasLimit": {
    "_hex": "0x2fefd8"
  },
  "gasUsed": {
    "_hex": "0xa674"
  },
  "miner": "0x3F98e477a361F777DA14611a7e419A75Fd238b6b",
  "extraData": "0x476574682f76312e302e312f6c696e75782f676f312e342e32",
  "transactions": [
    {
      "hash": "0x53b1e412caa8b74df2b11f67c36caab70cd983f999b8a307bfae75e20883bbe4",
      "blockHash": "0xc06614f6bec0b9a78a5316b21b30c9b6dbb2bcc2dc8f609706b7886108a86d95",
      "blockNumber": 59997,
      "transactionIndex": 0,
      "confirmations": null,
      "from": "0x3D0768da09CE77d25e2d998E6a7b6eD4b9116c2D",
      "gasPrice": {
        "_hex": "0xd60334ad0"
      },
      "gasLimit": {
        "_hex": "0x5208"
      },
      "to": "0x37fdD436C4F06bbD63a93dA53EC3Ea91645F8866",
      "value": {
        "_hex": "0x38d7ea4c68000"
      },
      "nonce": 36,
      "data": "0x",
      "r": "0x75915524c7b4ceae7c2ff6fb743f234ab2341378e901b7f02e4b2cfe847175ab",
      "s": "0x0ad4f5f710cf5138a538df11c768f89889acb67d08961d81b2bcae6029604d40",
      "v": 28,
      "creates": null,
      "raw": "0xf86b24850d60334ad08252089437fdd436c4f06bbd63a93da53ec3ea91645f886687038d7ea4c68000801ca075915524c7b4ceae7c2ff6fb743f234ab2341378e901b7f02e4b2cfe847175aba00ad4f5f710cf5138a538df11c768f89889acb67d08961d81b2bcae6029604d40",
      "networkId": 0,
      "chainId": 0
    },
    {
      "hash": "0x2bbbe8d7cd0a329482b0c99c0a9d5f9a3a64100b6d76b527a34cbaf4f9242bf5",
      "blockHash": "0xc06614f6bec0b9a78a5316b21b30c9b6dbb2bcc2dc8f609706b7886108a86d95",
      "blockNumber": 59997,
      "transactionIndex": 1,
      "confirmations": null,
      "from": "0x0a3DE155d5Ecd8E81C1Ff9BBF0378301f8d4C623",
      "gasPrice": {
        "_hex": "0xd20f35017"
      },
      "gasLimit": {
        "_hex": "0x55f0"
      },
      "to": "0x2910543Af39abA0Cd09dBb2D50200b3E800A63D2",
      "value": {
        "_hex": "0xa2a15d09519be00000"
      },
      "nonce": 2,
      "data": "0x454e5a554159424138",
      "r": "0x5c660e61b636965995f6cc03c12bc51fb66c2526e6b45c8f3869148bb1b6613d",
      "s": "0x5b40faa2b3caa1e0b45aede63f02c832c096309e16c7643cef350510bd3c939e",
      "v": 28,
      "creates": null,
      "raw": "0xf87602850d20f350178255f0942910543af39aba0cd09dbb2d50200b3e800a63d289a2a15d09519be0000089454e5a5541594241381ca05c660e61b636965995f6cc03c12bc51fb66c2526e6b45c8f3869148bb1b6613da05b40faa2b3caa1e0b45aede63f02c832c096309e16c7643cef350510bd3c939e",
      "networkId": 0,
      "chainId": 0
    }
  ]
}