{
  "hash": "0xa4538b64554bf974df13672601b4088a02e9e2ebdbe1d5708596413466292bc9",
  "parentHash": "0x11e16dc74fc38e932d5475a649227941b0333735f957a24983271b36faa6bc66",
  "number": 87778,
  "timestamp": 1439597337,
  "nonce": "0x369310f8074ae290",
  "difficulty": 3177161461434,
  "gasLimit": {
    "_hex": "0x2fefd8"
  },
  "gasUsed": {
    "_hex": "0x546c"
  },
  "miner": "0xe6A7a1d47ff21B6321162AEA7C6CB457D5476Bca",
  "extraData": "0x476574682f76312e302e312d38326566323666362f6c696e75782f676f312e34",
  "transactions": [
    {
      "hash": "0x1018903098fc7be7a29a56970d56ddcfe41319ed8f142651fb3dff78992b7177",
      "blockHash": "0xa4538b64554bf974df13672601b4088a02e9e2ebdbe1d5708596413466292bc9",
      "blockNumber": 87778,
      "transactionIndex": 0,
      "confirmations": null,
      "from": "0x95E7616424cD0961A71727247437f0069272280E",
      "gasPrice": {
        "_hex": "0x110c8f7d8de"
      },
      "gasLimit": {
        "_hex": "0xc350"
      },
      "to": "0x2910543Af39abA0Cd09dBb2D50200b3E800A63D2",
      "value": {
        "_hex": "0x15a82d1d5bb88e0000"
      },
      "nonce": 0,
      "data": "0x454e30565541363952",
      "r": "0x771a3863ca604880a6d1b5f380e9a167e45a210ba5ee2c48fc22ea57f5b9dd54",
      "s": "0x9a7f3b9e92135d6ab6702b4e1458408e4a426ce8bbd3243d2d62ad6287b6339e",
      "v": 27,
      "creates": null,
      "raw": "0xf87780860110c8f7d8de82c350942910543af39aba0cd09dbb2d50200b3e800a63d28915a82d1d5bb88e000089454e305655413639521ba0771a3863ca604880a6d1b5f380e9a167e45a210ba5ee2c48fc22ea57f5b9dd54a09a7f3b9e92135d6ab6702b4e1458408e4a426ce8bbd3243d2d62ad6287b6339e",
      "networkId": 0,
      "chainId": 0
    }
  ]
}