{
  "hash": "0x75571c701f571da7343a9482f2e259b092bc5dfc9167ce954f8415a1df09e7b1",
  "parentHash": "0xb074f4d6c5c8e0f29090cbb3c036082e259f257c95818ca448fae5e08c899f90",
  "number": 95900,
  "timestamp": 1439731673,
  "nonce": "0x8a995309078eaea3",
  "difficulty": 3621382669966,
  "gasLimit": {
    "_hex": "0x2fefd5"
  },
  "gasUsed": {
    "_hex": "0x5208"
  },
  "miner": "0xf927a40C8B7F6E07c5af7FA2155B4864a4112B13",
  "extraData": "0x",
  "transactions": [
    {
      "hash": "0xbd2c932de0a6b5b077ac0410daf95d578ba799a14c8e7c798d04eaa647efa528",
      "blockHash": "0x75571c701f571da7343a9482f2e259b092bc5dfc9167ce954f8415a1df09e7b1",
      "blockNumber": 95900,
      "transactionIndex": 0,
      "confirmations": null,
      "from": "0x007f7f58D3eb5b7510A301eCC749FC1fCDDBE14D",
      "gasPrice": {
        "_hex": "0xcc8ddf695"
      },
      "gasLimit": {
        "_hex": "0x15f90"
      },
      "to": "0xb1abce2918E21ddb93AA452731a12672A3d9F75a",
      "value": {
        "_hex": "0x4563918244f40000"
      },
      "nonce": 64,
      "data": "0x",
      "r": "0x800254db4b29974800f3c30226df1b71d50744e1ecf1e91bbdf83eb7ccf6b4bd",
      "s": "0x5e43ae9a3d6d7f538ffe490963615609d39053c0ad037ba7781fb84344800925",
      "v": 28,
      "creates": null,
      "raw": "0xf86d40850cc8ddf69583015f9094b1abce2918e21ddb93aa452731a12672a3d9f75a884563918244f40000801ca0800254db4b29974800f3c30226df1b71d50744e1ecf1e91bbdf83eb7ccf6b4bda05e43ae9a3d6d7f538ffe490963615609d39053c0ad037ba7781fb84344800925",
      "networkId": 0,
      "chainId": 0
    }
  ]
}