{
  "hash": "0x92d7fe957d96750d573dcf8f0be8a9e3467d42b9af640e32c73aa236ab80e94d",
  "parentHash": "0x9b7dc8bdf803db090f9a2a0f0030f2288b90c095d4e67984cb6271366b73144c",
  "number": 85843,
  "timestamp": 1439569678,
  "nonce": "0x7af6b7a9f13fdaeb",
  "difficulty": 2775871991539,
  "gasLimit": {
    "_hex": "0x2fefd8"
  },
  "gasUsed": {
    "_hex": "0xa044"
  },
  "miner": "0xf927a40C8B7F6E07c5af7FA2155B4864a4112B13",
  "extraData": "0x",
  "transactions": [
    {
      "hash": "0xc232078bae8a7780baa3e7d99f7dbfc6153e41ffe91230f6c52140af0a44670e",
      "blockHash": "0x92d7fe957d96750d573dcf8f0be8a9e3467d42b9af640e32c73aa236ab80e94d",
      "blockNumber": 85843,
      "transactionIndex": 0,
      "confirmations": null,
      "from": "0x94B4EA2caa897785bb092aB92caa27081Ef32c82",
      "gasPrice": {
        "_hex": "0xded039f20"
      },
      "gasLimit": {
        "_hex": "0x15f90"
      },
      "to": "0xD2a69d19BaD610A0CaE27bb4545C4afd40A207B7",
      "value": {
        "_hex": "0x2386f26fc10000"
      },
      "nonce": 7,
      "data": "0x89504e470d0a1a0a0000000d494844520000003c0000000d0803000000c204fd4800000033504c5445ffffff404040808080505050707070202020bfbfbfdfdfdf9f9f9f303030606060cfcfcf1010108f8f8fefefef000000afafaf20188196000000c74944415478dacc92417604210844ab0414b5b5e7fea71dd464f6fd6691b8111f7c0a4b81ffb34af9024ee951b9a8199250c146373b3ba8b4d2c9bb54940b881ab686d4aa0fe1d537db89bcd56e706c65574c035f7b8a91508bdbab4b3489300910adf8a36c1e752e0c386f381929eb107189aa31c43579be4896d55092ea61b3e4be64f1817d670eccc875216a9d4bf9786239ffda1b0d15d29a6d389b4e4ad3032fb589b041625aadca03c76473c37129d4470e874bd0a35d1ac59f3d6713d13ffd8c6f0106001fd504ac484e5be80000000049454e44ae426082",
      "r": "0x16aa0acbbe7f2a91d0bf0b114b2a60aa13faba07c37c1ff805efbf1e79b46429",
      "s": "0x657385056b360bf495636781b4f672b4fd02726ac57542d62109b407435a84c4",
      "v": 28,
      "creates": null,
      "raw": "0xf901ad07850ded039f2083015f9094d2a69d19bad610a0cae27bb4545c4afd40a207b7872386f26fc10000b9013f89504e470d0a1a0a0000000d494844520000003c0000000d0803000000c204fd4800000033504c5445ffffff404040808080505050707070202020bfbfbfdfdfdf9f9f9f303030606060cfcfcf1010108f8f8fefefef000000afafaf20188196000000c74944415478dacc92417604210844ab0414b5b5e7fea71dd464f6fd6691b8111f7c0a4b81ffb34af9024ee951b9a8199250c146373b3ba8b4d2c9bb54940b881ab686d4aa0fe1d537db89bcd56e706c65574c035f7b8a91508bdbab4b3489300910adf8a36c1e752e0c386f381929eb107189aa31c43579be4896d55092ea61b3e4be64f1817d670eccc875216a9d4bf9786239ffda1b0d15d29a6d389b4e4ad3032fb589b041625aadca03c76473c37129d4470e874bd0a35d1ac59f3d6713d13ffd8c6f0106001fd504ac484e5be80000000049454e44ae4260821ca016aa0acbbe7f2a91d0bf0b114b2a60aa13faba07c37c1ff805efbf1e79b46429a0657385056b360bf495636781b4f672b4fd02726ac57542d62109b407435a84c4",
      "networkId": 0,
      "chainId": 0
    }
  ]
}