{
  "hash": "0x1c8e2965dc71dc61d1cf725469330fe3483b369e95b1f791e9bdc8b607107376",
  "parentHash": "0x9b5e5c5b3f7ef243122abd5e40bbfe7dd0440bfcfc4323afba975a16a21b64e8",
  "number": 89329,
  "timestamp": 1439621728,
  "nonce": "0xfb455ef0d24422ca",
  "difficulty": 3304727657483,
  "gasLimit": {
    "_hex": "0x2fefd8"
  },
  "gasUsed": {
    "_hex": "0x5208"
  },
  "miner": "0xbb7B8287f3F0a933474a79eAe42CBCa977791171",
  "extraData": "0x476574682f4c5649562f76312e302e312f6c696e75782f676f312e342e32",
  "transactions": [
    {
      "hash": "0x3653b98d07b90dfd9f002669cb9171ee8ed03c741036bf44caa4698e02863391",
      "blockHash": "0x1c8e2965dc71dc61d1cf725469330fe3483b369e95b1f791e9bdc8b607107376",
      "blockNumber": 89329,
      "transactionIndex": 0,
      "confirmations": null,
      "from": "0xa70a9a7040d542C632D8e0bE7c5513A8a5Bbc752",
      "gasPrice": {
        "_hex": "0xcb232a332"
      },
      "gasLimit": {
        "_hex": "0x5208"
      },
      "to": "0x32Be343B94f860124dC4fEe278FDCBD38C102D88",
      "value": {
        "_hex": "0x4567eaee332e1800"
      },
      "nonce": 108,
      "data": "0x",
      "r": "0x487179158e01051df8caf368d3fd684321ef9f57e58857fecb1a7a59ee3a952a",
      "s": "0x5d82a3bc3c23dc32db72ab5d157799a50a01a44e98628a923af2ff4a4cf09ba8",
      "v": 28,
      "creates": null,
      "raw": "0xf86c6c850cb232a3328252089432be343b94f860124dc4fee278fdcbd38c102d88884567eaee332e1800801ca0487179158e01051df8caf368d3fd684321ef9f57e58857fecb1a7a59ee3a952aa05d82a3bc3c23dc32db72ab5d157799a50a01a44e98628a923af2ff4a4cf09ba8",
      "networkId": 0,
      "chainId": 0
    }
  ]
}