{
  "hash": "0xa95ac288a0bfd1b5c236d5870270c3986a615b9d2cbd6e9c521810fb7f781b04",
  "parentHash": "0xb466c28bd5637bcdcfe3d25135fae2b21410eb6a5b7a62f601c006e9b85b20eb",
  "number": 55665,
  "timestamp": 1439074703,
  "nonce": "0xec389c513e20fd4e",
  "difficulty": 1615493542981,
  "gasLimit": {
    "_hex": "0x2fefd8"
  },
  "gasUsed": {
    "_hex": "0x5208"
  },
  "miner": "0xdd2F1e6e498202e86D8f5442Af596580A4f03c2C",
  "extraData": "0x476574682f76312e302e312d38326566323666362f6c696e75782f676f312e34",
  "transactions": [
    {
      "hash": "0xebf88b3962851d89826d047f9a4f3f24fb037b518e9acd72d6e301de16db256d",
      "blockHash": "0xa95ac288a0bfd1b5c236d5870270c3986a615b9d2cbd6e9c521810fb7f781b04",
      "blockNumber": 55665,
      "transactionIndex": 0,
      "confirmations": null,
      "from": "0x32Be343B94f860124dC4fEe278FDCBD38C102D88",
      "gasPrice": {
        "_hex": "0xd23e19f48"
      },
      "gasLimit": {
        "_hex": "0x5208"
      },
      "to": "0xb794F5eA0ba39494cE839613fffBA74279579268",
      "value": {
        "_hex": "0x30ca024f987b900000"
      },
      "nonce": 70,
      "data": "0x",
      "r": "0xd2c19690caaf95214bfc5a9f644874a0983e561fc7c7df4bb3fd9a739b5ca7ca",
      "s": "0x5813ec2702ed35545c81d2c462f57b6b98448fe5a0377ee5bd4fe7c25f7e9c81",
      "v": 28,
      "creates": null,
      "raw": "0xf86d46850d23e19f4882520894b794f5ea0ba39494ce839613fffba742795792688930ca024f987b900000801ca0d2c19690caaf95214bfc5a9f644874a0983e561fc7c7df4bb3fd9a739b5ca7caa05813ec2702ed35545c81d2c462f57b6b98448fe5a0377ee5bd4fe7c25f7e9c81",
      "networkId": 0,
      "chainId": 0
    }
  ]
}