{
  "hash": "0xfe84792df0fa03688c3b4219cf8f0324834b12234d10c5cb9e6e0022900ccfce",
  "parentHash": "0x5eac9b2685aec9ff4d12f777982a502967f0354e7b44aa80a0c785272bcc3f2e",
  "number": 64112,
  "timestamp": 1439215440,
  "nonce": "0x6104b1fa5f405d44",
  "difficulty": 1863910180149,
  "gasLimit": {
    "_hex": "0x2fefd8"
  },
  "gasUsed": {
    "_hex": "0x4050f"
  },
  "miner": "0x580992B51e3925e23280EfB93d3047C82f17E038",
  "extraData": "0x476574682f76312e302e312f6c696e75782f676f312e342e32",
  "transactions": [
    {
      "hash": "0x836476d4761669320271aa550eb3bc3498737b830d3f43f67c73cfc90636bfb8",
      "blockHash": "0xfe84792df0fa03688c3b4219cf8f0324834b12234d10c5cb9e6e0022900ccfce",
      "blockNumber": 64112,
      "transactionIndex": 0,
      "confirmations": null,
      "from": "0xE12517204a15E890f12755207271102F4800A0c4",
      "gasPrice": {
        "_hex": "0xdeaf5da87"
      },
      "gasLimit": {
        "_hex": "0x5208"
      },
      "to": "0x32Be343B94f860124dC4fEe278FDCBD38C102D88",
      "value": {
        "_hex": "0x1e5b484dd4009f000"
      },
      "nonce": 1,
      "data": "0x",
      "r": "0x50dc7b6d64584ed0697e0f310361e77a8abb679d3e3c076f70319bcea178d24c",
      "s": "0x5aef413b651434cc5ca190ea5c799bde255af35862f352757a79a42b364b6c28",
      "v": 28,
      "creates": null,
      "raw": "0xf86d01850deaf5da878252089432be343b94f860124dc4fee278fdcbd38c102d888901e5b484dd4009f000801ca050dc7b6d64584ed0697e0f310361e77a8abb679d3e3c076f70319bcea178d24ca05aef413b651434cc5ca190ea5c799bde255af35862f352757a79a42b364b6c28",
      "networkId": 0,
      "chainId": 0
    },
    {
      "hash": "0xfcb16c92f65c3b90b778cd0c303e7ecfda39cd19e83d65a2c8a64a1ad717c521",
      "blockHash": "0xfe84792df0fa03688c3b4219cf8f0324834b12234d10c5cb9e6e0022900ccfce",
      "blockNumber": 64112,
      "transactionIndex": 1,
      "confirmations": null,
      "from": "0x0fFecdF99016b9C74f1088c858B0A6b71992A471",
      "gasPrice": {
        "_hex": "0xdeaf5da87"
      },
      "gasLimit": {
        "_hex": "0x5208"
      },
      "to": "0x32Be343B94f860124dC4fEe278FDCBD38C102D88",
      "value": {
        "_hex": "0x3643942b4dab820000"
      },
      "nonce": 5,
      "data": "0x",
      "r": "0x0faa45af743904a7e4085e88801dac2ebd74e730c3116a40ab2ede38c9c858d3",
      "s": "0x16f695229c97b4e9f34f7c83dfff49e6fc1bc8f1846eb379f7fe84f42b706ec8",
      "v": 27,
      "creates": null,
      "raw": "0xf86d05850deaf5da878252089432be343b94f860124dc4fee278fdcbd38c102d88893643942b4dab820000801ba00faa45af743904a7e4085e88801dac2ebd74e730c3116a40ab2ede38c9c858d3a016f695229c97b4e9f34f7c83dfff49e6fc1bc8f1846eb379f7fe84f42b706ec8",
      "networkId": 0,
      "chainId": 0
    },
    {
      "hash": "0x5c2522f46df93c16ac2537341ee95e6d7baa71fd278696cfbf3355d8604d026e",
      "blockHash": "0xfe84792df0fa03688c3b4219cf8f0324834b12234d10c5cb9e6e0022900ccfce",
      "blockNumber": 64112,
      "transactionIndex": 2,
      "confirmations": null,
      "from": "0xc70bA22fe446A85A247bf85BaD1AdDf3ddaF62E9",
      "gasPrice": {
        "_hex": "0xd641f460d"
      },
      "gasLimit": {
        "_hex": "0xf4240"
      },
      "to": null,
      "value": {
        "_hex": "0x0"
      },
      "nonce": 27,
      "data": "0x6060604052600160a060020a0333166000908152602081905260409020805460ff191660019081179091558054818055819081908015829011606057818360005260206000209182019101606091905b8082111560b157600081558301604f565b50508054339250600090811015600257527fb10e2d527612073b26eecdfd717e6a320cf44b4afac2b0732d9fcbe2b7fa0cf68054600160a060020a03191690911790556101e3806100b66000396000f35b50905600606060405260e060020a60003504630a3b0a4f81146100315780634e71d92d146100795780639e7a13ad146100f5575b005b61002f60043533600160a060020a031660009081526020819052604081205460ff16158061006f5750600160a060020a0382168152604081205460ff165b1561018457610180565b61002f60015430600160a060020a0316310460005b600154811015610180576001805482908110156100025760009182527fb10e2d527612073b26eecdfd717e6a320cf44b4afac2b0732d9fcbe2b7fa0cf60154604051600160a060020a03919091169190849082818181858883f1505050505060010161008e565b61013b60043560018054829081101561000257506000527fb10e2d527612073b26eecdfd717e6a320cf44b4afac2b0732d9fcbe2b7fa0cf60154600160a060020a031681565b6060908152602090f35b5050505081600160005082815481101561000257906000526020600020900160006101000a815481600160a060020a03021916908302179055505b5050565b600160a060020a038216815260409020805460ff1916600190811790915580548082018083559091818380158290116101455781836000526020600020918201910161014591905b808211156101df576000815584016101cc565b509056",
      "r": "0x58dfc245398372bab61f70cfab2bbe0d64ed55a7db681294adca5e1debdedf77",
      "s": "0x42c401d88d954208bb2d944827c92b0950efcdbdb1c0d5682a4ae031a2c384f8",
      "v": 28,
      "creates": "0xdF4B519d56F879707b5139c9e7f8957114dc9b87",
      "raw": "0xf902ec1b850d641f460d830f42408080b902996060604052600160a060020a0333166000908152602081905260409020805460ff191660019081179091558054818055819081908015829011606057818360005260206000209182019101606091905b8082111560b157600081558301604f565b50508054339250600090811015600257527fb10e2d527612073b26eecdfd717e6a320cf44b4afac2b0732d9fcbe2b7fa0cf68054600160a060020a03191690911790556101e3806100b66000396000f35b50905600606060405260e060020a60003504630a3b0a4f81146100315780634e71d92d146100795780639e7a13ad146100f5575b005b61002f60043533600160a060020a031660009081526020819052604081205460ff16158061006f5750600160a060020a0382168152604081205460ff165b1561018457610180565b61002f60015430600160a060020a0316310460005b600154811015610180576001805482908110156100025760009182527fb10e2d527612073b26eecdfd717e6a320cf44b4afac2b0732d9fcbe2b7fa0cf60154604051600160a060020a03919091169190849082818181858883f1505050505060010161008e565b61013b60043560018054829081101561000257506000527fb10e2d527612073b26eecdfd717e6a320cf44b4afac2b0732d9fcbe2b7fa0cf60154600160a060020a031681565b6060908152602090f35b5050505081600160005082815481101561000257906000526020600020900160006101000a815481600160a060020a03021916908302179055505b5050565b600160a060020a038216815260409020805460ff1916600190811790915580548082018083559091818380158290116101455781836000526020600020918201910161014591905b808211156101df576000815584016101cc565b5090561ca058dfc245398372bab61f70cfab2bbe0d64ed55a7db681294adca5e1debdedf77a042c401d88d954208bb2d944827c92b0950efcdbdb1c0d5682a4ae031a2c384f8",
      "networkId": 0,
      "chainId": 0
    }
  ]
}