{
  "hash": "0x5736d13e6a2ec9fa66bf61cde0bd47ef30d15b18139eb92d293f408df5ab0f59",
  "parentHash": "0xe96ba72af129b6fb77e9561be410b51c8abba570595ace71d49feefa99df7e74",
  "number": 114389,
  "timestamp": 1440039510,
  "nonce": "0x77a480d28ee76dd8",
  "difficulty": 4503553295132,
  "gasLimit": {
    "_hex": "0x2fefd8"
  },
  "gasUsed": {
    "_hex": "0x5208"
  },
  "miner": "0x580992B51e3925e23280EfB93d3047C82f17E038",
  "extraData": "0x476574682f76312e302e312f6c696e75782f676f312e342e32",
  "transactions": [
    {
      "hash": "0xbdd574088c099bc7600bc50e1d66d3c849876e871f72c72ec19161e0cb2f446e",
      "blockHash": "0x5736d13e6a2ec9fa66bf61cde0bd47ef30d15b18139eb92d293f408df5ab0f59",
      "blockNumber": 114389,
      "transactionIndex": 0,
      "confirmations": null,
      "from": "0xc950Df63F35a3F9F5B4b70DeBB0B081b4E2d1Ff0",
      "gasPrice": {
        "_hex": "0xd6b187d36"
      },
      "gasLimit": {
        "_hex": "0x15f90"
      },
      "to": "0x65001c830f61DBB739d9cea1AD07e4325C75021B",
      "value": {
        "_hex": "0x1bc16d674ec80000"
      },
      "nonce": 0,
      "data": "0x",
      "r": "0xef8408b0e4856f55c70d7bdc5617fba72cd928c6776aea3a3f36671abbda0dff",
      "s": "0x65a056d4e59cb31696fbdb7901ad31b46e492e9d41511b647db5eaf459df5cbc",
      "v": 27,
      "creates": null,
      "raw": "0xf86d80850d6b187d3683015f909465001c830f61dbb739d9cea1ad07e4325c75021b881bc16d674ec80000801ba0ef8408b0e4856f55c70d7bdc5617fba72cd928c6776aea3a3f36671abbda0dffa065a056d4e59cb31696fbdb7901ad31b46e492e9d41511b647db5eaf459df5cbc",
      "networkId": 0,
      "chainId": 0
    }
  ]
}