{
  "hash": "0xe8e6aa84f9d073959eb9e7ccd49944d9a88a85cb19910ca4a3104d3cd7d27525",
  "parentHash": "0x8e5516a2d09288f33a3ba0fefda2102862584f7b70699b8a5c778ae537f5cdfe",
  "number": 51537,
  "timestamp": 1439006609,
  "nonce": "0x90b5119d6aac68b5",
  "difficulty": 1561977919303,
  "gasLimit": {
    "_hex": "0xbc8e7"
  },
  "gasUsed": {
    "_hex": "0x7a120"
  },
  "miner": "0xa50ec0D39fa913E62f1Bae7074E6F36caA71855b",
  "extraData": "0x",
  "transactions": [
    {
      "hash": "0x7c75cd5401501ff34db63f9d89e6e4f0ad381f2257de177694c6d2753a3c0767",
      "blockHash": "0xe8e6aa84f9d073959eb9e7ccd49944d9a88a85cb19910ca4a3104d3cd7d27525",
      "blockNumber": 51537,
      "transactionIndex": 0,
      "confirmations": null,
      "from": "0xf88a65846C19D8fc76fFf545fEAa7bbc7114F667",
      "gasPrice": {
        "_hex": "0xd89287391"
      },
      "gasLimit": {
        "_hex": "0x7a120"
      },
      "to": "0x109C4f2CCc82C4d77Bde15F306707320294Aea3F",
      "value": {
        "_hex": "0xde0b6b3a7640000"
      },
      "nonce": 25,
      "data": "0x",
      "r": "0x3d397033b14bcd5986a89565326cd5523633c199c6e3b79a8b525fcf3811f97f",
      "s": "0x41f40943f19d739423c5d4c0d13d21b9551355c5977a4efd617f8b7d51a19ebc",
      "v": 27,
      "creates": null,
      "raw": "0xf86d19850d892873918307a12094109c4f2ccc82c4d77bde15f306707320294aea3f880de0b6b3a7640000801ba03d397033b14bcd5986a89565326cd5523633c199c6e3b79a8b525fcf3811f97fa041f40943f19d739423c5d4c0d13d21b9551355c5977a4efd617f8b7d51a19ebc",
      "networkId": 0,
      "chainId": 0
    }
  ]
}