{
  "hash": "0x33e8f54c2df6454b8c3ceba6051d786d1ad2f4c2189d42196eb0a1bfe9927bec",
  "parentHash": "0xe79b6d48a541e1e9574dc1dbb2f3488883c7f32b9272dd52daa1da914199d093",
  "number": 54676,
  "timestamp": 1439058246,
  "nonce": "0x76ab6c8c74c056d5",
  "difficulty": 1618052476767,
  "gasLimit": {
    "_hex": "0x2fefd5"
  },
  "gasUsed": {
    "_hex": "0x1820d"
  },
  "miner": "0x19dafe19F11E960E4cCfC6A5AA8890ebD748cA1E",
  "extraData": "0x476574682f76312e302e312f6c696e75782f676f312e342e32",
  "transactions": [
    {
      "hash": "0x84cc833707d31b290b1566cad243d6268563c7c8bb10e609e0b848cb163bf32e",
      "blockHash": "0x33e8f54c2df6454b8c3ceba6051d786d1ad2f4c2189d42196eb0a1bfe9927bec",
      "blockNumber": 54676,
      "transactionIndex": 0,
      "confirmations": null,
      "from": "0xc1132878235c5DdbA5d9F3228b5236E47020dc6F",
      "gasPrice": {
        "_hex": "0xe1e2209df"
      },
      "gasLimit": {
        "_hex": "0x7a120"
      },
      "to": "0x109C4f2CCc82C4d77Bde15F306707320294Aea3F",
      "value": {
        "_hex": "0xde0b6b3a7640000"
      },
      "nonce": 1,
      "data": "0x",
      "r": "0xfa5ab45f754979e3713ae10e3f2827e8fedc08859ba55ab554c98ec0416ce4a3",
      "s": "0x4c28548a8817cc80cac765bbb8b135bb470b454664de22b2ba59df9916e5c950",
      "v": 28,
      "creates": null,
      "raw": "0xf86d01850e1e2209df8307a12094109c4f2ccc82c4d77bde15f306707320294aea3f880de0b6b3a7640000801ca0fa5ab45f754979e3713ae10e3f2827e8fedc08859ba55ab554c98ec0416ce4a3a04c28548a8817cc80cac765bbb8b135bb470b454664de22b2ba59df9916e5c950",
      "networkId": 0,
      "chainId": 0
    },
    {
      "hash": "0x16adc0610061287f8f67730ae74f67c712a7f12f1cc705c3572012d19df7335d",
      "blockHash": "0x33e8f54c2df6454b8c3ceba6051d786d1ad2f4c2189d42196eb0a1bfe9927bec",
      "blockNumber": 54676,
      "transactionIndex": 1,
      "confirmations": null,
      "from": "0x47ff6576639c2e94762eA5443978D7681C0E78DC",
      "gasPrice": {
        "_hex": "0xddfab6419"
      },
      "gasLimit": {
        "_hex": "0x5208"
      },
      "to": "0xeD17Ea8E9fd42159037deE95ea173a56c54f55ce",
      "value": {
        "_hex": "0x365ff9edaa93d0000"
      },
      "nonce": 9,
      "data": "0x",
      "r": "0xc81e87693e6ef98d7a1b3ca32e3dc496eb43d6b9ffeff946b47594714c9f3df0",
      "s": "0x62c07243d82768def306f97353be329a653a8d9bf903d060054df8af00d0d51f",
      "v": 28,
      "creates": null,
      "raw": "0xf86d09850ddfab641982520894ed17ea8e9fd42159037dee95ea173a56c54f55ce890365ff9edaa93d0000801ca0c81e87693e6ef98d7a1b3ca32e3dc496eb43d6b9ffeff946b47594714c9f3df0a062c07243d82768def306f97353be329a653a8d9bf903d060054df8af00d0d51f",
      "networkId": 0,
      "chainId": 0
    },
    {
      "hash": "0x21a0956a52935d4f0d6d718e9b29c312683753992c83946968c31747dbd90bba",
      "blockHash": "0x33e8f54c2df6454b8c3ceba6051d786d1ad2f4c2189d42196eb0a1bfe9927bec",
      "blockNumber": 54676,
      "transactionIndex": 2,
      "confirmations": null,
      "from": "0x2dd8Eeef87194Abc2Ce7585da1E35B7CEa780Cb7",
      "gasPrice": {
        "_hex": "0xdb6085fef"
      },
      "gasLimit": {
        "_hex": "0x15f90"
      },
      "to": "0xd6a456c0d46f7a8404f662bBEc6BA7da6252F503",
      "value": {
        "_hex": "0x8ac7230489e80000"
      },
      "nonce": 0,
      "data": "0x",
      "r": "0xaec5fea7a5416cf6b39592f53481be85294b49f13ba942f52f982eb36deaacd8",
      "s": "0x509c331a8eb694a697a957739d81327081ffb33cf03c0ec867c3ab2fb8cd4388",
      "v": 28,
      "creates": null,
      "raw": "0xf86d80850db6085fef83015f9094d6a456c0d46f7a8404f662bbec6ba7da6252f503888ac7230489e80000801ca0aec5fea7a5416cf6b39592f53481be85294b49f13ba942f52f982eb36deaacd8a0509c331a8eb694a697a957739d81327081ffb33cf03c0ec867c3ab2fb8cd4388",
      "networkId": 0,
      "chainId": 0
    }
  ]
}