{
  "hash": "0xa4391306fca7f8b7a37c0d575bc319c618fa0d7f45f331fc26cdb636b3b6cbc1",
  "parentHash": "0x0de2c055a2d203b366c74031c3691c680988a30018626efe5320fe2363e3a9b7",
  "number": 95642,
  "timestamp": 1439727194,
  "nonce": "0x25076160b3ad62dd",
  "difficulty": 3610899730837,
  "gasLimit": {
    "_hex": "0x2fefd8"
  },
  "gasUsed": {
    "_hex": "0xf618"
  },
  "miner": "0xe6A7a1d47ff21B6321162AEA7C6CB457D5476Bca",
  "extraData": "0x476574682f76312e302e312d38326566323666362f6c696e75782f676f312e34",
  "transactions": [
    {
      "hash": "0x8846cab980e4e2aee999131ae5e4fea3dd4ff836c27a46469f13c31f73085f3b",
      "blockHash": "0xa4391306fca7f8b7a37c0d575bc319c618fa0d7f45f331fc26cdb636b3b6cbc1",
      "blockNumber": 95642,
      "transactionIndex": 0,
      "confirmations": null,
      "from": "0x32Be343B94f860124dC4fEe278FDCBD38C102D88",
      "gasPrice": {
        "_hex": "0xd122ce321"
      },
      "gasLimit": {
        "_hex": "0x5208"
      },
      "to": "0xAB14d221E33D544629198cd096ED63dfa28D9F47",
      "value": {
        "_hex": "0x14d10344175213000"
      },
      "nonce": 986,
      "data": "0x",
      "r": "0x7478aebb36c23b1edd8caef78bb283bc6579a66cc01de4574ca3eaa5ed9cdc80",
      "s": "0x4f8ec5952f66a2e0cd0880dafa5a4a675ace7615d1b385e5c0574e4855236eb9",
      "v": 28,
      "creates": null,
      "raw": "0xf86f8203da850d122ce32182520894ab14d221e33d544629198cd096ed63dfa28d9f4789014d10344175213000801ca07478aebb36c23b1edd8caef78bb283bc6579a66cc01de4574ca3eaa5ed9cdc80a04f8ec5952f66a2e0cd0880dafa5a4a675ace7615d1b385e5c0574e4855236eb9",
      "networkId": 0,
      "chainId": 0
    },
    {
      "hash": "0x7b8a02bb1b1032e0a867983907ec448b9ee8c249bc22e3643c76845e080f977b",
      "blockHash": "0xa4391306fca7f8b7a37c0d575bc319c618fa0d7f45f331fc26cdb636b3b6cbc1",
      "blockNumber": 95642,
      "transactionIndex": 1,
      "confirmations": null,
      "from": "0x32Be343B94f860124dC4fEe278FDCBD38C102D88",
      "gasPrice": {
        "_hex": "0xd122ce321"
      },
      "gasLimit": {
        "_hex": "0x5208"
      },
      "to": "0x60906c5389d07427debDa9E75eCA3073a7D1cE2D",
      "value": {
        "_hex": "0x3782dace9d90000"
      },
      "nonce": 987,
      "data": "0x",
      "r": "0x52aee01c6812e620ec1321d69226e69bb2e8b2b747b1f36d76ad3084651783b2",
      "s": "0x362bec217495c6d50d21a0c6585c8b4aa1eddc75f873ff9d2520b0110e66c635",
      "v": 27,
      "creates": null,
      "raw": "0xf86e8203db850d122ce3218252089460906c5389d07427debda9e75eca3073a7d1ce2d8803782dace9d90000801ba052aee01c6812e620ec1321d69226e69bb2e8b2b747b1f36d76ad3084651783b2a0362bec217495c6d50d21a0c6585c8b4aa1eddc75f873ff9d2520b0110e66c635",
      "networkId": 0,
      "chainId": 0
    },
    {
      "hash": "0x489ca32eeae994335912bd98fbdeeea43559952cfc21a264c4fb2a764820599a",
      "blockHash": "0xa4391306fca7f8b7a37c0d575bc319c618fa0d7f45f331fc26cdb636b3b6cbc1",
      "blockNumber": 95642,
      "transactionIndex": 2,
      "confirmations": null,
      "from": "0x2910543Af39abA0Cd09dBb2D50200b3E800A63D2",
      "gasPrice": {
        "_hex": "0xcdfbf34f4"
      },
      "gasLimit": {
        "_hex": "0x5208"
      },
      "to": "0x60794423f500DD2F95327fA1ffE71E428D2C0636",
      "value": {
        "_hex": "0x9fdf42f6e48000"
      },
      "nonce": 898,
      "data": "0x",
      "r": "0xe2644893bea8ffe8f8350d3f2e839f77f30311d1a42a68f1b139ddd47c598ca7",
      "s": "0x548e6edc9480839c159c647a4561a168a6362b3b2e2f792b3429b03e61c3ab50",
      "v": 28,
      "creates": null,
      "raw": "0xf86d820382850cdfbf34f48252089460794423f500dd2f95327fa1ffe71e428d2c0636879fdf42f6e48000801ca0e2644893bea8ffe8f8350d3f2e839f77f30311d1a42a68f1b139ddd47c598ca7a0548e6edc9480839c159c647a4561a168a6362b3b2e2f792b3429b03e61c3ab50",
      "networkId": 0,
      "chainId": 0
    }
  ]
}