{
  "hash": "0x3e23b316fe219c74cfb5c40053ea8f20c264a78f57a2db3b4a3b68db1d9235a5",
  "parentHash": "0xd575150b350921ea0579a69b37c8dc38bcd890a450f4b8fa5ed3765e0b21678c",
  "number": 75738,
  "timestamp": 1439408352,
  "nonce": "0x0560b0f71e4bf5e8",
  "difficulty": 2227718829118,
  "gasLimit": {
    "_hex": "0x2fefd8"
  },
  "gasUsed": {
    "_hex": "0x5208"
  },
  "miner": "0x8C7bAEA34346a2E47026485BCD8f323012dEA6aA",
  "extraData": "0x476574682f76312e302e312f77696e646f77732f676f312e342e32",
  "transactions": [
    {
      "hash": "0x5c6e42e4edb15b704ea1cb7ace714a2228e52fed7274a44817b4b9c2a2ea24bf",
      "blockHash": "0x3e23b316fe219c74cfb5c40053ea8f20c264a78f57a2db3b4a3b68db1d9235a5",
      "blockNumber": 75738,
      "transactionIndex": 0,
      "confirmations": null,
      "from": "0xECaF3350b7ce144D068b186010852C84DD0CE0F0",
      "gasPrice": {
        "_hex": "0xd7fd3d148"
      },
      "gasLimit": {
        "_hex": "0x55f0"
      },
      "to": "0x90cA42f0308bF15db201F40e41faA6Dd7a96bEA7",
      "value": {
        "_hex": "0x3635c9adc5dea00000"
      },
      "nonce": 0,
      "data": "0x",
      "r": "0xcbc9e9af0a133fda21b5d0f5a703e32d7340469411fa664a1efdab793e3894ed",
      "s": "0x356126d32628214944bd815d644a829846541b4b7c9c50adf311406b246d6af0",
      "v": 27,
      "creates": null,
      "raw": "0xf86d80850d7fd3d1488255f09490ca42f0308bf15db201f40e41faa6dd7a96bea7893635c9adc5dea00000801ba0cbc9e9af0a133fda21b5d0f5a703e32d7340469411fa664a1efdab793e3894eda0356126d32628214944bd815d644a829846541b4b7c9c50adf311406b246d6af0",
      "networkId": 0,
      "chainId": 0
    }
  ]
}