{
  "hash": "0x9e6fd3e69da786b4b44d6a22ee722781f0480d56dbe24ebe3ab7a5eec83f42e0",
  "parentHash": "0x1d7b86f4e16a4eba7710bc3940e6482253e90170dc211164116f304af420e8b3",
  "number": 47422,
  "timestamp": 1438940106,
  "nonce": "0xaf4dbe16e48ef9f0",
  "difficulty": 1450250680071,
  "gasLimit": {
    "_hex": "0xbc75"
  },
  "gasUsed": {
    "_hex": "0x5208"
  },
  "miner": "0x3F98e477a361F777DA14611a7e419A75Fd238b6b",
  "extraData": "0x476574682f76312e302e312f6c696e75782f676f312e342e32",
  "transactions": [
    {
      "hash": "0xadd40dff5feb33410ec440196e9f528c316754f22d991329f2549245d2b94b5e",
      "blockHash": "0x9e6fd3e69da786b4b44d6a22ee722781f0480d56dbe24ebe3ab7a5eec83f42e0",
      "blockNumber": 47422,
      "transactionIndex": 0,
      "confirmations": null,
      "from": "0x3D09688D93AD07F3abe68C722723Cd680990435e",
      "gasPrice": {
        "_hex": "0x746a528800"
      },
      "gasLimit": {
        "_hex": "0x5208"
      },
      "to": "0x4D88034e04504DEe3e8D9770094ac62CC430EB82",
      "value": {
        "_hex": "0x10f0cf064dd59200000"
      },
      "nonce": 4,
      "data": "0x",
      "r": "0x81e41579847a371822cac0313b4e249f8159f0e2fcd521055f8f85d3012bcb70",
      "s": "0x1fe63cf2ca88a1d11c2eee3ca52dc03adc46aaed43d3e0769a48bcb25a455c16",
      "v": 27,
      "creates": null,
      "raw": "0xf86e0485746a528800825208944d88034e04504dee3e8d9770094ac62cc430eb828a010f0cf064dd59200000801ba081e41579847a371822cac0313b4e249f8159f0e2fcd521055f8f85d3012bcb70a01fe63cf2ca88a1d11c2eee3ca52dc03adc46aaed43d3e0769a48bcb25a455c16",
      "networkId": 0,
      "chainId": 0
    }
  ]
}