{
  "hash": "0xefafa6b47e3ce88fd1322b3f4aaea0900ddac013f071ce7cb2d7d251a900ae97",
  "parentHash": "0xcecbc6561f45c0a74be2f941026b3b9549b4c6a4359dc45d0dbf89f0474e1067",
  "number": 91038,
  "timestamp": 1439649447,
  "nonce": "0x7e50025801463e0a",
  "difficulty": 3430643995191,
  "gasLimit": {
    "_hex": "0x2fefd8"
  },
  "gasUsed": {
    "_hex": "0x5208"
  },
  "miner": "0x123843545FB525C8E134c9A5F15ADA6865cc3848",
  "extraData": "0x476574682f76312e302e312f77696e646f77732f676f312e342e32",
  "transactions": [
    {
      "hash": "0x983e153130c962ca959ed80ad725868ac1d63b76ea3e99c02988225870dd2199",
      "blockHash": "0xefafa6b47e3ce88fd1322b3f4aaea0900ddac013f071ce7cb2d7d251a900ae97",
      "blockNumber": 91038,
      "transactionIndex": 0,
      "confirmations": null,
      "from": "0x2910543Af39abA0Cd09dBb2D50200b3E800A63D2",
      "gasPrice": {
        "_hex": "0xd093fe6cb"
      },
      "gasLimit": {
        "_hex": "0x5208"
      },
      "to": "0x8F6864Db2057a8A1C2b2c16D39f64CE4F929F3D9",
      "value": {
        "_hex": "0x2706e5a1b34b38000"
      },
      "nonce": 799,
      "data": "0x",
      "r": "0x0c036126aa85845fed89d0967b82bf7cb60106445d586c93f0d77085e0fa83d6",
      "s": "0x66e689edee380505c8f6fe00fa1d74b48b713bc6df03ae17081d6a638173b899",
      "v": 28,
      "creates": null,
      "raw": "0xf86f82031f850d093fe6cb825208948f6864db2057a8a1c2b2c16d39f64ce4f929f3d98902706e5a1b34b38000801ca00c036126aa85845fed89d0967b82bf7cb60106445d586c93f0d77085e0fa83d6a066e689edee380505c8f6fe00fa1d74b48b713bc6df03ae17081d6a638173b899",
      "networkId": 0,
      "chainId": 0
    }
  ]
}