{
  "hash": "0xf6a49434572663d5390a3df286f1b050b6f7918de124c6e5777b98e5f301b13c",
  "parentHash": "0x21142d827cd7dda7635263c7f9ce68886a4a4894744579d49a6162c6fb9aa0da",
  "number": 82935,
  "timestamp": 1439527264,
  "nonce": "0x3f3215bc7e107ef3",
  "difficulty": 2407848122496,
  "gasLimit": {
    "_hex": "0x2fefd8"
  },
  "gasUsed": {
    "_hex": "0x5208"
  },
  "miner": "0x157c6f2431eB1a95797EE86F7d17b3c0FD47A247",
  "extraData": "0x476574682f76312e302e312f77696e646f77732f676f312e342e32",
  "transactions": [
    {
      "hash": "0xd5f00e8b52cd0a71d009bb6a519e0c0f39b896f8f3b21ea6e74b4eac34d92f21",
      "blockHash": "0xf6a49434572663d5390a3df286f1b050b6f7918de124c6e5777b98e5f301b13c",
      "blockNumber": 82935,
      "transactionIndex": 0,
      "confirmations": null,
      "from": "0xa6BDc31c431B8F97848c9D60cbbe9660dc450eB7",
      "gasPrice": {
        "_hex": "0xd631799c9"
      },
      "gasLimit": {
        "_hex": "0x5208"
      },
      "to": "0x32Be343B94f860124dC4fEe278FDCBD38C102D88",
      "value": {
        "_hex": "0x455f3c455c179800"
      },
      "nonce": 54,
      "data": "0x",
      "r": "0xc74aacc6a83fe8595c6acb3b2098d501d7dc0ec068bb51c27aa636e923e783f7",
      "s": "0x1f0c3651563281a747200dfbdc1aa332266b44ad585330c89b5ca4b3769109fd",
      "v": 28,
      "creates": null,
      "raw": "0xf86c36850d631799c98252089432be343b94f860124dc4fee278fdcbd38c102d8888455f3c455c179800801ca0c74aacc6a83fe8595c6acb3b2098d501d7dc0ec068bb51c27aa636e923e783f7a01f0c3651563281a747200dfbdc1aa332266b44ad585330c89b5ca4b3769109fd",
      "networkId": 0,
      "chainId": 0
    }
  ]
}