{
  "hash": "0x0738d0d759ba3d3ef9e467a8f945519e13fdfe69cc6846ac6a470f50e7a8cccb",
  "parentHash": "0xe4b842b6369ba6188c8f2d148b0b9434e4b4aad9853f4c3c12e88eac7e7ead11",
  "number": 121170,
  "timestamp": 1440172540,
  "nonce": "0x4a879d8c7bbe8911",
  "difficulty": 4406418608603,
  "gasLimit": {
    "_hex": "0x2fefd8"
  },
  "gasUsed": {
    "_hex": "0x19a28"
  },
  "miner": "0xe6A7a1d47ff21B6321162AEA7C6CB457D5476Bca",
  "extraData": "0xd783010002844765746887676f312e342e32856c696e7578",
  "transactions": [
    {
      "hash": "0x519816afe21204a6e52249cdee60728e9d33074e74e00a64ed59f4506d6bad17",
      "blockHash": "0x0738d0d759ba3d3ef9e467a8f945519e13fdfe69cc6846ac6a470f50e7a8cccb",
      "blockNumber": 121170,
      "transactionIndex": 0,
      "confirmations": null,
      "from": "0x01d226ceb0705Cb2fC943c1D978EF6522eB62B4F",
      "gasPrice": {
        "_hex": "0xba43b7400"
      },
      "gasLimit": {
        "_hex": "0x5208"
      },
      "to": "0xC47Aaa860008be6f65B58c6C6E02a84e666EfE31",
      "value": {
        "_hex": "0x90822a75c2b1f1f0"
      },
      "nonce": 1,
      "data": "0x",
      "r": "0x434352d36e92a6fe5783dd20b81d4395991f7fd36cf8e76e25ec6d9205652903",
      "s": "0x0bf178e49936e1e3f88599551a815bb9e5aa1e00281bde5e9c3fb976f3cf60e8",
      "v": 27,
      "creates": null,
      "raw": "0xf86c01850ba43b740082520894c47aaa860008be6f65b58c6c6e02a84e666efe318890822a75c2b1f1f0801ba0434352d36e92a6fe5783dd20b81d4395991f7fd36cf8e76e25ec6d9205652903a00bf178e49936e1e3f88599551a815bb9e5aa1e00281bde5e9c3fb976f3cf60e8",
      "networkId": 0,
      "chainId": 0
    },
    {
      "hash": "0xd7f071fcdf4906abc9db8adaceed556b806a45c11329c212eaedb8a65447b874",
      "blockHash": "0x0738d0d759ba3d3ef9e467a8f945519e13fdfe69cc6846ac6a470f50e7a8cccb",
      "blockNumber": 121170,
      "transactionIndex": 1,
      "confirmations": null,
      "from": "0x8CdC27BF95732811eBD9b0a9e7E957A30C4582Ac",
      "gasPrice": {
        "_hex": "0xba43b7400"
      },
      "gasLimit": {
        "_hex": "0x5208"
      },
      "to": "0xC47Aaa860008be6f65B58c6C6E02a84e666EfE31",
      "value": {
        "_hex": "0x28b83e4386f7b5f0"
      },
      "nonce": 4,
      "data": "0x",
      "r": "0x092c84358b2c97291ab3379fc61967abe8f5cd54d69a5229a388d09945ce8ea0",
      "s": "0x0afc4d90fe25bc972d8f10e559ba93156cca5bbe63d51897f4188003eb551d66",
      "v": 27,
      "creates": null,
      "raw": "0xf86c04850ba43b740082520894c47aaa860008be6f65b58c6c6e02a84e666efe318828b83e4386f7b5f0801ba0092c84358b2c97291ab3379fc61967abe8f5cd54d69a5229a388d09945ce8ea0a00afc4d90fe25bc972d8f10e559ba93156cca5bbe63d51897f4188003eb551d66",
      "networkId": 0,
      "chainId": 0
    },
    {
      "hash": "0xdd42a5a71aa7ff508e261775a753c38b46295d12311379c90a20ed55601223bd",
      "blockHash": "0x0738d0d759ba3d3ef9e467a8f945519e13fdfe69cc6846ac6a470f50e7a8cccb",
      "blockNumber": 121170,
      "transactionIndex": 2,
      "confirmations": null,
      "from": "0x07dC70AF6EA4585E7cC1E88A640eF2bC93CaB3B0",
      "gasPrice": {
        "_hex": "0xba43b7400"
      },
      "gasLimit": {
        "_hex": "0x5208"
      },
      "to": "0xC47Aaa860008be6f65B58c6C6E02a84e666EfE31",
      "value": {
        "_hex": "0x18dca2d2ec6ccd00"
      },
      "nonce": 1,
      "data": "0x",
      "r": "0x711462f049e048673eeb842b4a0323c4dd5de929cfde06dec37c0ee2745280aa",
      "s": "0x48296215c6b316024581dc5ed72a5fc6497e1a52a93affcad783a31fb711a6d0",
      "v": 27,
      "creates": null,
      "raw": "0xf86c01850ba43b740082520894c47aaa860008be6f65b58c6c6e02a84e666efe318818dca2d2ec6ccd00801ba0711462f049e048673eeb842b4a0323c4dd5de929cfde06dec37c0ee2745280aaa048296215c6b316024581dc5ed72a5fc6497e1a52a93affcad783a31fb711a6d0",
      "networkId": 0,
      "chainId": 0
    },
    {
      "hash": "0xed6c007829215850968164bd4e247e008e53526562d1a4e83c4090a75f91ffd0",
      "blockHash": "0x0738d0d759ba3d3ef9e467a8f945519e13fdfe69cc6846ac6a470f50e7a8cccb",
      "blockNumber": 121170,
      "transactionIndex": 3,
      "confirmations": null,
      "from": "0x44563AD09aa25dA0734753238c092e2DC538D885",
      "gasPrice": {
        "_hex": "0xba43b7400"
      },
      "gasLimit": {
        "_hex": "0x5208"
      },
      "to": "0xC47Aaa860008be6f65B58c6C6E02a84e666EfE31",
      "value": {
        "_hex": "0x16a22e96863e68f00"
      },
      "nonce": 0,
      "data": "0x",
      "r": "0x24ecb840f496cdc9f5cabb0aaed23a327dd0d2f6539c750152484618a8d9f902",
      "s": "0x5d9c4b8e65229316a17d22e8bb357579dcefbedf220de5e98a114df9c487c782",
      "v": 28,
      "creates": null,
      "raw": "0xf86d80850ba43b740082520894c47aaa860008be6f65b58c6c6e02a84e666efe3189016a22e96863e68f00801ca024ecb840f496cdc9f5cabb0aaed23a327dd0d2f6539c750152484618a8d9f902a05d9c4b8e65229316a17d22e8bb357579dcefbedf220de5e98a114df9c487c782",
      "networkId": 0,
      "chainId": 0
    },
    {
      "hash": "0xb46ba2d94e98ccef2da18f448c26b6ae0f41582a00e4c36e9de6bdc48ef40fef",
      "blockHash": "0x0738d0d759ba3d3ef9e467a8f945519e13fdfe69cc6846ac6a470f50e7a8cccb",
      "blockNumber": 121170,
      "transactionIndex": 4,
      "confirmations": null,
      "from": "0xBEC18596951F1713394944D3178F2E4FAC3bf1b4",
      "gasPrice": {
        "_hex": "0xba43b7400"
      },
      "gasLimit": {
        "_hex": "0x5208"
      },
      "to": "0xC47Aaa860008be6f65B58c6C6E02a84e666EfE31",
      "value": {
        "_hex": "0x249c2856e5cd3f00"
      },
      "nonce": 2,
      "data": "0x",
      "r": "0xe0096ad7256dfc8e1eab803db30cbce6387c9404cead5a18f8f8841f02259c3e",
      "s": "0x4f30b9970310e42c00ec407b2b66e1f8a5f76eb09666b9853f65e7fa6a65b3a7",
      "v": 28,
      "creates": null,
      "raw": "0xf86c02850ba43b740082520894c47aaa860008be6f65b58c6c6e02a84e666efe3188249c2856e5cd3f00801ca0e0096ad7256dfc8e1eab803db30cbce6387c9404cead5a18f8f8841f02259c3ea04f30b9970310e42c00ec407b2b66e1f8a5f76eb09666b9853f65e7fa6a65b3a7",
      "networkId": 0,
      "chainId": 0
    }
  ]
}