{
  "hash": "0x60780c3f05f7283f9265385f48e190fc7ccf1926d2bf8f300dc18917e08c1493",
  "parentHash": "0xe446d644b3188dcaa2258d3704fa0f6a3c0745f8623f2e688f882b4f7638870f",
  "number": 84314,
  "timestamp": 1439547918,
  "nonce": "0xea32a99d6f52d666",
  "difficulty": 2539054389787,
  "gasLimit": {
    "_hex": "0x2fefd8"
  },
  "gasUsed": {
    "_hex": "0x42ccc"
  },
  "miner": "0xbb7B8287f3F0a933474a79eAe42CBCa977791171",
  "extraData": "0x476574682f4c5649562f76312e302e312f6c696e75782f676f312e342e32",
  "transactions": [
    {
      "hash": "0x6096f3e2daf3996e1432b1706303c49222ae91c3ba6a6f85dbfdca1af52d291c",
      "blockHash": "0x60780c3f05f7283f9265385f48e190fc7ccf1926d2bf8f300dc18917e08c1493",
      "blockNumber": 84314,
      "transactionIndex": 0,
      "confirmations": null,
      "from": "0x523e93ed2d488b01E5a425F3A8d1cFcfEbD8B064",
      "gasPrice": {
        "_hex": "0xd829211eb"
      },
      "gasLimit": {
        "_hex": "0x15f90"
      },
      "to": "0x2910543Af39abA0Cd09dBb2D50200b3E800A63D2",
      "value": {
        "_hex": "0x1bc16d674ec80000"
      },
      "nonce": 5,
      "data": "0x454e32305a39394830",
      "r": "0xae442773ff0fbbcf3cb5bbbcaadd361a6ae827c759fb8040d46e2ed18b59c7ed",
      "s": "0x7252d8d7fca36d985609041bddd61b41c2e7d728dc1c8b7af48a76edfcf438d3",
      "v": 28,
      "creates": null,
      "raw": "0xf87605850d829211eb83015f90942910543af39aba0cd09dbb2d50200b3e800a63d2881bc16d674ec8000089454e32305a393948301ca0ae442773ff0fbbcf3cb5bbbcaadd361a6ae827c759fb8040d46e2ed18b59c7eda07252d8d7fca36d985609041bddd61b41c2e7d728dc1c8b7af48a76edfcf438d3",
      "networkId": 0,
      "chainId": 0
    },
    {
      "hash": "0xbcd5f6959f4390855227f57aaaca35e1aa929d854749458815bb502638974206",
      "blockHash": "0x60780c3f05f7283f9265385f48e190fc7ccf1926d2bf8f300dc18917e08c1493",
      "blockNumber": 84314,
      "transactionIndex": 1,
      "confirmations": null,
      "from": "0x78A5a3e39DB4Cf9824d4DFAbAbcdB36611788C78",
      "gasPrice": {
        "_hex": "0xcefbdff5c"
      },
      "gasLimit": {
        "_hex": "0x5208"
      },
      "to": "0x32Be343B94f860124dC4fEe278FDCBD38C102D88",
      "value": {
        "_hex": "0xcbe1191a406d0800"
      },
      "nonce": 3,
      "data": "0x",
      "r": "0x80513686273edf816384dd456c5f9128c429446e90c0160d1cf5f68edb620060",
      "s": "0x17a2c0116038c986127392397095e8ec8b6ada6c2ca1cdfc587365137ff075a9",
      "v": 27,
      "creates": null,
      "raw": "0xf86c03850cefbdff5c8252089432be343b94f860124dc4fee278fdcbd38c102d8888cbe1191a406d0800801ba080513686273edf816384dd456c5f9128c429446e90c0160d1cf5f68edb620060a017a2c0116038c986127392397095e8ec8b6ada6c2ca1cdfc587365137ff075a9",
      "networkId": 0,
      "chainId": 0
    },
    {
      "hash": "0x50370a101f1280ca45ceff8d7fb13353399871045021978c18b29a139292a0e2",
      "blockHash": "0x60780c3f05f7283f9265385f48e190fc7ccf1926d2bf8f300dc18917e08c1493",
      "blockNumber": 84314,
      "transactionIndex": 2,
      "confirmations": null,
      "from": "0xaa71fa80d26F718E6A3c87e41D817b8D10944a63",
      "gasPrice": {
        "_hex": "0xcefbdff5c"
      },
      "gasLimit": {
        "_hex": "0x5208"
      },
      "to": "0x32Be343B94f860124dC4fEe278FDCBD38C102D88",
      "value": {
        "_hex": "0x9d238de20379d000"
      },
      "nonce": 2,
      "data": "0x",
      "r": "0xd5a10ae2647d2f6d2c9d4cda29043490476caca2bd65a5514c26a5e18ba91967",
      "s": "0x6da4c281a2cf2ce2ca03567aca03c9609ecaf0392d896fe7ea65c7365ea2f749",
      "v": 28,
      "creates": null,
      "raw": "0xf86c02850cefbdff5c8252089432be343b94f860124dc4fee278fdcbd38c102d88889d238de20379d000801ca0d5a10ae2647d2f6d2c9d4cda29043490476caca2bd65a5514c26a5e18ba91967a06da4c281a2cf2ce2ca03567aca03c9609ecaf0392d896fe7ea65c7365ea2f749",
      "networkId": 0,
      "chainId": 0
    },
    {
      "hash": "0x5ef891d3604ca967d090a0e131bb29190b94950e71a5bd77010e9f1c1d75d7b7",
      "blockHash": "0x60780c3f05f7283f9265385f48e190fc7ccf1926d2bf8f300dc18917e08c1493",
      "blockNumber": 84314,
      "transactionIndex": 3,
      "confirmations": null,
      "from": "0x60781265e9850f54AE0Bc9545948d05DeE6FC3e3",
      "gasPrice": {
        "_hex": "0xcefbdff5c"
      },
      "gasLimit": {
        "_hex": "0x5208"
      },
      "to": "0x32Be343B94f860124dC4fEe278FDCBD38C102D88",
      "value": {
        "_hex": "0x422ecc8a58d76c00"
      },
      "nonce": 4,
      "data": "0x",
      "r": "0x7ed47428702d48516e360e81f5d9de8b5a4f296e9db95e2e5e6b589611d25eab",
      "s": "0x5c55a46063a83e48f531bea248df9ef3d3519518e2f13a49f36985d7ee2293fd",
      "v": 28,
      "creates": null,
      "raw": "0xf86c04850cefbdff5c8252089432be343b94f860124dc4fee278fdcbd38c102d8888422ecc8a58d76c00801ca07ed47428702d48516e360e81f5d9de8b5a4f296e9db95e2e5e6b589611d25eaba05c55a46063a83e48f531bea248df9ef3d3519518e2f13a49f36985d7ee2293fd",
      "networkId": 0,
      "chainId": 0
    },
    {
      "hash": "0xd26238f4222e76a085a5da00e79c1f34a90154e155a66e99d457466196d037e3",
      "blockHash": "0x60780c3f05f7283f9265385f48e190fc7ccf1926d2bf8f300dc18917e08c1493",
      "blockNumber": 84314,
      "transactionIndex": 4,
      "confirmations": null,
      "from": "0xce8ff6d2027CA9837abb85FD515752151b6C7d0A",
      "gasPrice": {
        "_hex": "0xcefbdff5c"
      },
      "gasLimit": {
        "_hex": "0x5208"
      },
      "to": "0x32Be343B94f860124dC4fEe278FDCBD38C102D88",
      "value": {
        "_hex": "0x8f9e5ea37c2d4000"
      },
      "nonce": 2,
      "data": "0x",
      "r": "0x74a9b741bf851410c92f2961ce7c354bfa797ded52db9fe04abfa435f51a7f9b",
      "s": "0x2b7c2a3f8ec3df8c311346191d12a2907bad8f52256804701cf96241c37183c6",
      "v": 28,
      "creates": null,
      "raw": "0xf86c02850cefbdff5c8252089432be343b94f860124dc4fee278fdcbd38c102d88888f9e5ea37c2d4000801ca074a9b741bf851410c92f2961ce7c354bfa797ded52db9fe04abfa435f51a7f9ba02b7c2a3f8ec3df8c311346191d12a2907bad8f52256804701cf96241c37183c6",
      "networkId": 0,
      "chainId": 0
    },
    {
      "hash": "0xe600bdc73d36cfee6df4d40ab3aaed52b3708e933c0e697846d205d28fb1b42a",
      "blockHash": "0x60780c3f05f7283f9265385f48e190fc7ccf1926d2bf8f300dc18917e08c1493",
      "blockNumber": 84314,
      "transactionIndex": 5,
      "confirmations": null,
      "from": "0x06EC48800B2DB3eEfa052e98A9b5Fc2Bf783Ee74",
      "gasPrice": {
        "_hex": "0xcefbdff5c"
      },
      "gasLimit": {
        "_hex": "0x5208"
      },
      "to": "0x32Be343B94f860124dC4fEe278FDCBD38C102D88",
      "value": {
        "_hex": "0x86233b3b08905000"
      },
      "nonce": 5,
      "data": "0x",
      "r": "0xf087f7dd319c344dbdb2f5d903ab8b73d01b119732547a4448add63a5fbad96b",
      "s": "0x6ff1663233c0686015ec6dfa3f2e8281900fe053fbb05e40a12f8917f6a776b5",
      "v": 27,
      "creates": null,
      "raw": "0xf86c05850cefbdff5c8252089432be343b94f860124dc4fee278fdcbd38c102d888886233b3b08905000801ba0f087f7dd319c344dbdb2f5d903ab8b73d01b119732547a4448add63a5fbad96ba06ff1663233c0686015ec6dfa3f2e8281900fe053fbb05e40a12f8917f6a776b5",
      "networkId": 0,
      "chainId": 0
    },
    {
      "hash": "0x1441331dc959daddd0fda1c4d9f8c00e073e5c424db4401a615e723c67dbf3fe",
      "blockHash": "0x60780c3f05f7283f9265385f48e190fc7ccf1926d2bf8f300dc18917e08c1493",
      "blockNumber": 84314,
      "transactionIndex": 6,
      "confirmations": null,
      "from": "0xe70361D11B44B2fBA997417D7AAa26eb69EBfef0",
      "gasPrice": {
        "_hex": "0xcefbdff5c"
      },
      "gasLimit": {
        "_hex": "0x5208"
      },
      "to": "0x32Be343B94f860124dC4fEe278FDCBD38C102D88",
      "value": {
        "_hex": "0x10a6bd76d0f010000"
      },
      "nonce": 2,
      "data": "0x",
      "r": "0x1f5d2d2a0ae8be6090b16f2ba654fd25e685ca4316cdeb6493b75d9135a26442",
      "s": "0x76b31b2182e445df40c5cd3832933e920ff53c0cf665e4125023dbaeb3fdd319",
      "v": 27,
      "creates": null,
      "raw": "0xf86d02850cefbdff5c8252089432be343b94f860124dc4fee278fdcbd38c102d8889010a6bd76d0f010000801ba01f5d2d2a0ae8be6090b16f2ba654fd25e685ca4316cdeb6493b75d9135a26442a076b31b2182e445df40c5cd3832933e920ff53c0cf665e4125023dbaeb3fdd319",
      "networkId": 0,
      "chainId": 0
    },
    {
      "hash": "0xaf15da6148c8316c27684c95a27e3fa90a853261d3d898c577b2469359b7ecee",
      "blockHash": "0x60780c3f05f7283f9265385f48e190fc7ccf1926d2bf8f300dc18917e08c1493",
      "blockNumber": 84314,
      "transactionIndex": 7,
      "confirmations": null,
      "from": "0x1CaC89419da71AC175A5B99CEE0163720430990c",
      "gasPrice": {
        "_hex": "0xcefbdff5c"
      },
      "gasLimit": {
        "_hex": "0x5208"
      },
      "to": "0x32Be343B94f860124dC4fEe278FDCBD38C102D88",
      "value": {
        "_hex": "0x187d74195b11cc000"
      },
      "nonce": 3,
      "data": "0x",
      "r": "0xc9a4af246d8a0adcd600a454220c553e816c91c3562f1dc486140b03730d58a8",
      "s": "0x19e8af6430ebcf9d900161c2735e6f6953fcc166255a381ec6a0049cc1e40b43",
      "v": 28,
      "creates": null,
      "raw": "0xf86d03850cefbdff5c8252089432be343b94f860124dc4fee278fdcbd38c102d88890187d74195b11cc000801ca0c9a4af246d8a0adcd600a454220c553e816c91c3562f1dc486140b03730d58a8a019e8af6430ebcf9d900161c2735e6f6953fcc166255a381ec6a0049cc1e40b43",
      "networkId": 0,
      "chainId": 0
    },
    {
      "hash": "0x1ee088d3d5e4b1ba4043254dd84fc506ee89d4887555df4207937247210846f3",
      "blockHash": "0x60780c3f05f7283f9265385f48e190fc7ccf1926d2bf8f300dc18917e08c1493",
      "blockNumber": 84314,
      "transactionIndex": 8,
      "confirmations": null,
      "from": "0x0d62E666D681E8Be96903Ac4aBD3537f28c6125A",
      "gasPrice": {
        "_hex": "0xcefbdff5c"
      },
      "gasLimit": {
        "_hex": "0x5208"
      },
      "to": "0x32Be343B94f860124dC4fEe278FDCBD38C102D88",
      "value": {
        "_hex": "0x5bd6b19cec009c00"
      },
      "nonce": 2,
      "data": "0x",
      "r": "0xfed8262dc44ea32c6ac0f956c320bc72a62486a77a514d08c5d8b4a46904f6a7",
      "s": "0x28f37a1b3bcc003a04f435be0700f7e835ec6a599b70b5b28101598a85d74ee0",
      "v": 28,
      "creates": null,
      "raw": "0xf86c02850cefbdff5c8252089432be343b94f860124dc4fee278fdcbd38c102d88885bd6b19cec009c00801ca0fed8262dc44ea32c6ac0f956c320bc72a62486a77a514d08c5d8b4a46904f6a7a028f37a1b3bcc003a04f435be0700f7e835ec6a599b70b5b28101598a85d74ee0",
      "networkId": 0,
      "chainId": 0
    },
    {
      "hash": "0x69c194c2ae45334af60da1a1c165cad8ce075d8ea939b576300f70881da8be36",
      "blockHash": "0x60780c3f05f7283f9265385f48e190fc7ccf1926d2bf8f300dc18917e08c1493",
      "blockNumber": 84314,
      "transactionIndex": 9,
      "confirmations": null,
      "from": "0xAdCa16b4654a92cb67666C0cF61976cEEE81cEEB",
      "gasPrice": {
        "_hex": "0xcefbdff5c"
      },
      "gasLimit": {
        "_hex": "0x5208"
      },
      "to": "0x32Be343B94f860124dC4fEe278FDCBD38C102D88",
      "value": {
        "_hex": "0xf9e725a15a599000"
      },
      "nonce": 2,
      "data": "0x",
      "r": "0xdf4623b782b63912f0cc807d0cbaa772723d9762b7fc222a883d534d9cfa7a2c",
      "s": "0x75afa1320a602f39f9086c20a10d633d84ef1523f09b60046f85a28ee529674f",
      "v": 27,
      "creates": null,
      "raw": "0xf86c02850cefbdff5c8252089432be343b94f860124dc4fee278fdcbd38c102d8888f9e725a15a599000801ba0df4623b782b63912f0cc807d0cbaa772723d9762b7fc222a883d534d9cfa7a2ca075afa1320a602f39f9086c20a10d633d84ef1523f09b60046f85a28ee529674f",
      "networkId": 0,
      "chainId": 0
    },
    {
      "hash": "0x91fb6dfac75231b2dd953eb093dee5b4652c80f3f3d4c25eacf1361328d16af1",
      "blockHash": "0x60780c3f05f7283f9265385f48e190fc7ccf1926d2bf8f300dc18917e08c1493",
      "blockNumber": 84314,
      "transactionIndex": 10,
      "confirmations": null,
      "from": "0x2b176421eEBBf303fa94aD4fE78362Fa9e4Ca693",
      "gasPrice": {
        "_hex": "0xcefbdff5c"
      },
      "gasLimit": {
        "_hex": "0x5208"
      },
      "to": "0x32Be343B94f860124dC4fEe278FDCBD38C102D88",
      "value": {
        "_hex": "0x246b41ebc4e668000"
      },
      "nonce": 3,
      "data": "0x",
      "r": "0xf2a51e2c16dcc59d2a7510ff9e2cd9a5f8144aa401e37a42ec5c4e6be418b636",
      "s": "0x4f48072e658565d7f4e9329c6dc6b4c5d435fb4644ced11a3aaba7031edb3791",
      "v": 28,
      "creates": null,
      "raw": "0xf86d03850cefbdff5c8252089432be343b94f860124dc4fee278fdcbd38c102d88890246b41ebc4e668000801ca0f2a51e2c16dcc59d2a7510ff9e2cd9a5f8144aa401e37a42ec5c4e6be418b636a04f48072e658565d7f4e9329c6dc6b4c5d435fb4644ced11a3aaba7031edb3791",
      "networkId": 0,
      "chainId": 0
    },
    {
      "hash": "0xdd0bdc468865b9ebe1b9c8f596056dac929738cf552b5d917d0ddb5200dfe2c1",
      "blockHash": "0x60780c3f05f7283f9265385f48e190fc7ccf1926d2bf8f300dc18917e08c1493",
      "blockNumber": 84314,
      "transactionIndex": 11,
      "confirmations": null,
      "from": "0x6599C9c86f1635FAAEFE7A5540914811DAD8d167",
      "gasPrice": {
        "_hex": "0xcefbdff5c"
      },
      "gasLimit": {
        "_hex": "0x5208"
      },
      "to": "0x32Be343B94f860124dC4fEe278FDCBD38C102D88",
      "value": {
        "_hex": "0x9480979025f20000"
      },
      "nonce": 2,
      "data": "0x",
      "r": "0x0e6529c107d107072835129b900badaebcfddc519d061c4a897721bc98864a7d",
      "s": "0x30551cd70bd87661c9e21a34f53b98a9ba8fb738b8ca5e84fe5f84396578692b",
      "v": 28,
      "creates": null,
      "raw": "0xf86c02850cefbdff5c8252089432be343b94f860124dc4fee278fdcbd38c102d88889480979025f20000801ca00e6529c107d107072835129b900badaebcfddc519d061c4a897721bc98864a7da030551cd70bd87661c9e21a34f53b98a9ba8fb738b8ca5e84fe5f84396578692b",
      "networkId": 0,
      "chainId": 0
    },
    {
      "hash": "0xa10ec7fb10f30936b508c6784c66d21520b2013f8e61cf56388d5939d01df0c5",
      "blockHash": "0x60780c3f05f7283f9265385f48e190fc7ccf1926d2bf8f300dc18917e08c1493",
      "blockNumber": 84314,
      "transactionIndex": 12,
      "confirmations": null,
      "from": "0x4Dbfc5Cd4D88480476F951dbCD591396773aE56c",
      "gasPrice": {
        "_hex": "0xcefbdff5c"
      },
      "gasLimit": {
        "_hex": "0x5208"
      },
      "to": "0x32Be343B94f860124dC4fEe278FDCBD38C102D88",
      "value": {
        "_hex": "0x3574de6d56f030000"
      },
      "nonce": 2,
      "data": "0x",
      "r": "0x0b258c013689e8e91a3e228164861b8cbf20fae52cf968c14053219e3a932525",
      "s": "0x445f8a912a153b26129e005728aad473ea569565d9f582b107a07319218cc30b",
      "v": 27,
      "creates": null,
      "raw": "0xf86d02850cefbdff5c8252089432be343b94f860124dc4fee278fdcbd38c102d888903574de6d56f030000801ba00b258c013689e8e91a3e228164861b8cbf20fae52cf968c14053219e3a932525a0445f8a912a153b26129e005728aad473ea569565d9f582b107a07319218cc30b",
      "networkId": 0,
      "chainId": 0
    }
  ]
}