{
  "hash": "0x9f7145c5e79d7611298050e5605ca9286ae077146d86e83661c1f764ea3faea9",
  "parentHash": "0xbab0f6fe8d45d136228a6c7256cff866b30eb1099233a765b6159f3f0f0e7624",
  "number": 79115,
  "timestamp": 1439464725,
  "nonce": "0xde051c600f02e7d4",
  "difficulty": 2314398362805,
  "gasLimit": {
    "_hex": "0x2fefd8"
  },
  "gasUsed": {
    "_hex": "0x5208"
  },
  "miner": "0xf927a40C8B7F6E07c5af7FA2155B4864a4112B13",
  "extraData": "0x",
  "transactions": [
    {
      "hash": "0x0392e955a92bc77b950482da9ce8f24757e32db9be89f7a037b2a8053dfe97c0",
      "blockHash": "0x9f7145c5e79d7611298050e5605ca9286ae077146d86e83661c1f764ea3faea9",
      "blockNumber": 79115,
      "transactionIndex": 0,
      "confirmations": null,
      "from": "0x27e806e70622d2864e1B1f4426D72FFb0457C83a",
      "gasPrice": {
        "_hex": "0xd4e5d629b"
      },
      "gasLimit": {
        "_hex": "0x5208"
      },
      "to": "0x32Be343B94f860124dC4fEe278FDCBD38C102D88",
      "value": {
        "_hex": "0x12865def94167f000"
      },
      "nonce": 11,
      "data": "0x",
      "r": "0xe86cd4a286d4e9b6c6482f718f36ddf3f514e1472ed257dc051e994dc93b3721",
      "s": "0x70d45f527ecd6eb53a9a5c00892bca341e66d23b3433faaa2d9f7ff523d9ee94",
      "v": 27,
      "creates": null,
      "raw": "0xf86d0b850d4e5d629b8252089432be343b94f860124dc4fee278fdcbd38c102d8889012865def94167f000801ba0e86cd4a286d4e9b6c6482f718f36ddf3f514e1472ed257dc051e994dc93b3721a070d45f527ecd6eb53a9a5c00892bca341e66d23b3433faaa2d9f7ff523d9ee94",
      "networkId": 0,
      "chainId": 0
    }
  ]
}