{
  "hash": "0xd68afe21e1ffd8f189546ae04f2e4d4ce2ec42a736ba851aa8a1d7af063544c0",
  "parentHash": "0x0fd5fd52d775c23146e1e09db7a79398f1e4030b3f0dcc99071e24e0aeb0957b",
  "number": 106337,
  "timestamp": 1439902501,
  "nonce": "0x1efac142233220d9",
  "difficulty": 4472797621765,
  "gasLimit": {
    "_hex": "0x2fefd8"
  },
  "gasUsed": {
    "_hex": "0x5208"
  },
  "miner": "0xe6A7a1d47ff21B6321162AEA7C6CB457D5476Bca",
  "extraData": "0x476574682f76312e302e312d38326566323666362f6c696e75782f676f312e34",
  "transactions": [
    {
      "hash": "0xd977a26bc6735135d30b6da7f914c706131fce497ba70e8cd014f653eaa7bcc1",
      "blockHash": "0xd68afe21e1ffd8f189546ae04f2e4d4ce2ec42a736ba851aa8a1d7af063544c0",
      "blockNumber": 106337,
      "transactionIndex": 0,
      "confirmations": null,
      "from": "0x226E8B888E9F360E1Aea28229C40E2adC5D698b5",
      "gasPrice": {
        "_hex": "0xd8364fc25"
      },
      "gasLimit": {
        "_hex": "0x15f90"
      },
      "to": "0xbA8c9CDA6af013Cc68A076E17c84d4cDbc5960c5",
      "value": {
        "_hex": "0x23ba046c41a570000"
      },
      "nonce": 4,
      "data": "0x",
      "r": "0xe566c3f7d7bcdfd55dd96317d4c8be816e3bd9f14ed4f223609d18c1580c72a6",
      "s": "0x3017d874361ca15b9c0ce515253501a0c74bcfb086ccd4d109f5932cad37506a",
      "v": 27,
      "creates": null,
      "raw": "0xf86e04850d8364fc2583015f9094ba8c9cda6af013cc68a076e17c84d4cdbc5960c589023ba046c41a570000801ba0e566c3f7d7bcdfd55dd96317d4c8be816e3bd9f14ed4f223609d18c1580c72a6a03017d874361ca15b9c0ce515253501a0c74bcfb086ccd4d109f5932cad37506a",
      "networkId": 0,
      "chainId": 0
    }
  ]
}