{
  "hash": "0xaa08aaffb388f125378253b223ed86558f2eb86aa6be613dabf7797b0c119ab9",
  "parentHash": "0xb7f75459956b3ecff69c5a1547f2beff0d0d98fa026820a5a89bce2670e63925",
  "number": 57008,
  "timestamp": 1439095935,
  "nonce": "0x49efdc331663e9e2",
  "difficulty": 1710198288574,
  "gasLimit": {
    "_hex": "0x2fefd8"
  },
  "gasUsed": {
    "_hex": "0xa410"
  },
  "miner": "0x3F98e477a361F777DA14611a7e419A75Fd238b6b",
  "extraData": "0x476574682f76312e302e312f6c696e75782f676f312e342e32",
  "transactions": [
    {
      "hash": "0xbee1feebd1d7b319fe1f5b4b5058ff87b563137e213ebc2d07a876f605840ce2",
      "blockHash": "0xaa08aaffb388f125378253b223ed86558f2eb86aa6be613dabf7797b0c119ab9",
      "blockNumber": 57008,
      "transactionIndex": 0,
      "confirmations": null,
      "from": "0x96811Ad897894eC178872117C8BF2f03971A393B",
      "gasPrice": {
        "_hex": "0xd6bea2653"
      },
      "gasLimit": {
        "_hex": "0x5208"
      },
      "to": "0x32Be343B94f860124dC4fEe278FDCBD38C102D88",
      "value": {
        "_hex": "0x107a9425849b06000"
      },
      "nonce": 3,
      "data": "0x",
      "r": "0x5d8597b793be53a80c53ff8d3ce9eb1d3176b561856bdfbdd00e7faf3305eb23",
      "s": "0x70d6c64bb407b698971e9e42325e91f271e895ee6b0c61234135ea7d8174460d",
      "v": 27,
      "creates": null,
      "raw": "0xf86d03850d6bea26538252089432be343b94f860124dc4fee278fdcbd38c102d88890107a9425849b06000801ba05d8597b793be53a80c53ff8d3ce9eb1d3176b561856bdfbdd00e7faf3305eb23a070d6c64bb407b698971e9e42325e91f271e895ee6b0c61234135ea7d8174460d",
      "networkId": 0,
      "chainId": 0
    },
    {
      "hash": "0x24a7210f80273a5baf74c9e866ed84e303329ab0f4b2bdadc1835156cad21e5f",
      "blockHash": "0xaa08aaffb388f125378253b223ed86558f2eb86aa6be613dabf7797b0c119ab9",
      "blockNumber": 57008,
      "transactionIndex": 1,
      "confirmations": null,
      "from": "0x8cEe38D6595788a56E3FB94634b3ffE1fBdB26d6",
      "gasPrice": {
        "_hex": "0xd1781596c"
      },
      "gasLimit": {
        "_hex": "0x15f90"
      },
      "to": "0x7b0813f6450be6d2d27984878f03ee858471fF1c",
      "value": {
        "_hex": "0x64"
      },
      "nonce": 0,
      "data": "0x",
      "r": "0x666ffdf772a0808137e6dde5b38705d322c463f635cee5f76700338cb199c2eb",
      "s": "0x1ad4e5cac48708d2617dceafe07a77c46773da5e02f3741bc41dfbaa8cf7ddbe",
      "v": 28,
      "creates": null,
      "raw": "0xf86580850d1781596c83015f90947b0813f6450be6d2d27984878f03ee858471ff1c64801ca0666ffdf772a0808137e6dde5b38705d322c463f635cee5f76700338cb199c2eba01ad4e5cac48708d2617dceafe07a77c46773da5e02f3741bc41dfbaa8cf7ddbe",
      "networkId": 0,
      "chainId": 0
    }
  ]
}