{
  "hash": "0xb7417f1e886f1b947aad0fbe59e6a1ab84767c68d04152b442aa5a419a2e2bdf",
  "parentHash": "0x94108b9e2991e73df40d958896a5ce4aa0b32a7139b31e51b01a77344abf1f83",
  "number": 89899,
  "timestamp": 1439630856,
  "nonce": "0x0a636b7808d72d8c",
  "difficulty": 3346722239648,
  "gasLimit": {
    "_hex": "0x2fefd8"
  },
  "gasUsed": {
    "_hex": "0x5208"
  },
  "miner": "0x4705E331214F54eE19677a920BeB64e5206Fd610",
  "extraData": "0x",
  "transactions": [
    {
      "hash": "0x23828922daddc997454e4bc2faa098cf3de6f2192c9778cda3532d8b048dad87",
      "blockHash": "0xb7417f1e886f1b947aad0fbe59e6a1ab84767c68d04152b442aa5a419a2e2bdf",
      "blockNumber": 89899,
      "transactionIndex": 0,
      "confirmations": null,
      "from": "0x2cf4364bc4C7C3333aB9963C4B3473664f42D83A",
      "gasPrice": {
        "_hex": "0xd39e681ce"
      },
      "gasLimit": {
        "_hex": "0x5208"
      },
      "to": "0x32Be343B94f860124dC4fEe278FDCBD38C102D88",
      "value": {
        "_hex": "0x1406472940c97b000"
      },
      "nonce": 1,
      "data": "0x",
      "r": "0x84e6bc96b8268d02f7611714089abf027b044a2912ad692604c7337a0c95be72",
      "s": "0x155be8dd720a9b2eb3a3797b794637af082d59919d7e6957569cef9217df745c",
      "v": 28,
      "creates": null,
      "raw": "0xf86d01850d39e681ce8252089432be343b94f860124dc4fee278fdcbd38c102d888901406472940c97b000801ca084e6bc96b8268d02f7611714089abf027b044a2912ad692604c7337a0c95be72a0155be8dd720a9b2eb3a3797b794637af082d59919d7e6957569cef9217df745c",
      "networkId": 0,
      "chainId": 0
    }
  ]
}