{
  "hash": "0xb9f05be014358f5fce6e2bf73108fc16ed0c0080fb4cdb9780ea4ef914ef43eb",
  "parentHash": "0x7e003a97175efde5b0f7c0076e5e8d0f91017eae907c9b071edcb73cef4d8cfc",
  "number": 57185,
  "timestamp": 1439099018,
  "nonce": "0x6031fa6d0b386ad0",
  "difficulty": 1729476379026,
  "gasLimit": {
    "_hex": "0x2fefd8"
  },
  "gasUsed": {
    "_hex": "0xa674"
  },
  "miner": "0xE81c9A6Ebe623E5d483110e0eaF2b10c769b1212",
  "extraData": "0x476574682f76312e302e312f6c696e75782f676f312e342e32",
  "transactions": [
    {
      "hash": "0xf97e6be75b4832c4d49f24f8a5192e7daa43bbf7b9afd7f0c7700676d2f688e5",
      "blockHash": "0xb9f05be014358f5fce6e2bf73108fc16ed0c0080fb4cdb9780ea4ef914ef43eb",
      "blockNumber": 57185,
      "transactionIndex": 0,
      "confirmations": null,
      "from": "0xCD1e66ED539dd92Fc40bBAa1FA16de8c02C14D45",
      "gasPrice": {
        "_hex": "0x110c8f7d8de"
      },
      "gasLimit": {
        "_hex": "0xc350"
      },
      "to": "0x2910543Af39abA0Cd09dBb2D50200b3E800A63D2",
      "value": {
        "_hex": "0x1158e460913d00000"
      },
      "nonce": 1,
      "data": "0x454e575754384d3930",
      "r": "0x7a3b4fd2db181267b03b79426e56b4f9dfd78f237949cbd168615105e704df73",
      "s": "0x4c1ecf7a00482a1c9635176d1b68ac882096ae155b050567bb517db4936e8dc3",
      "v": 27,
      "creates": null,
      "raw": "0xf87701860110c8f7d8de82c350942910543af39aba0cd09dbb2d50200b3e800a63d28901158e460913d0000089454e575754384d39301ba07a3b4fd2db181267b03b79426e56b4f9dfd78f237949cbd168615105e704df73a04c1ecf7a00482a1c9635176d1b68ac882096ae155b050567bb517db4936e8dc3",
      "networkId": 0,
      "chainId": 0
    },
    {
      "hash": "0xf279b0d1e2942ca9314cb37bbbb08519efdf4417937622c7fa0ca92bc7f537bc",
      "blockHash": "0xb9f05be014358f5fce6e2bf73108fc16ed0c0080fb4cdb9780ea4ef914ef43eb",
      "blockNumber": 57185,
      "transactionIndex": 1,
      "confirmations": null,
      "from": "0xEa5b801969342B44467C9dE87fEfE2C1dB740bd4",
      "gasPrice": {
        "_hex": "0x10adb70e97a"
      },
      "gasLimit": {
        "_hex": "0x15f90"
      },
      "to": "0x28EE9f11DB43ea073BccB423AF9bbb6fb77fFC09",
      "value": {
        "_hex": "0x30927f74c9de00000"
      },
      "nonce": 2,
      "data": "0x",
      "r": "0x5066b1755616ed6dfa50ce862e985a266988dd782d6514a7475bb4a9faa95352",
      "s": "0x146a77e4f2ac134de328c1bc4da150b6f3521d580a4980d4ee560b0278a080c6",
      "v": 27,
      "creates": null,
      "raw": "0xf86f0286010adb70e97a83015f909428ee9f11db43ea073bccb423af9bbb6fb77ffc0989030927f74c9de00000801ba05066b1755616ed6dfa50ce862e985a266988dd782d6514a7475bb4a9faa95352a0146a77e4f2ac134de328c1bc4da150b6f3521d580a4980d4ee560b0278a080c6",
      "networkId": 0,
      "chainId": 0
    }
  ]
}