{
  "hash": "0xfdd690d20f1917296d2ad6e1f9110aa654bb5f2110491bc155c63f00c9989932",
  "parentHash": "0x5d11e179bbd042f4c86d0f63a1f28878fa765da0f23e2ef4246f0a60063f530b",
  "number": 59061,
  "timestamp": 1439131379,
  "nonce": "0x73e79f5bc5150f6d",
  "difficulty": 1710614848842,
  "gasLimit": {
    "_hex": "0x2fefd8"
  },
  "gasUsed": {
    "_hex": "0x546c"
  },
  "miner": "0xf927a40C8B7F6E07c5af7FA2155B4864a4112B13",
  "extraData": "0x476574682f76312e302e312f6c696e75782f676f312e342e32",
  "transactions": [
    {
      "hash": "0xce10f1be5857942061f6f0c42e8432dab54dccc2fb021e38b0a1441eefe05550",
      "blockHash": "0xfdd690d20f1917296d2ad6e1f9110aa654bb5f2110491bc155c63f00c9989932",
      "blockNumber": 59061,
      "transactionIndex": 0,
      "confirmations": null,
      "from": "0x8CE4949d8a16542D423c17984E6739Fa72CeB177",
      "gasPrice": {
        "_hex": "0xd6d9651bf"
      },
      "gasLimit": {
        "_hex": "0x55f0"
      },
      "to": "0x2910543Af39abA0Cd09dBb2D50200b3E800A63D2",
      "value": {
        "_hex": "0x1b1ae4d6e2ef500000"
      },
      "nonce": 3,
      "data": "0x454e59563435585530",
      "r": "0x3e0b848e430609b390af293233eb92043b282ba529fec699ed4aa0da7b9be41b",
      "s": "0x34b81a3c3d244567aed3d8ae9fb9c10e371504cde1934250c545244f081a3783",
      "v": 28,
      "creates": null,
      "raw": "0xf87603850d6d9651bf8255f0942910543af39aba0cd09dbb2d50200b3e800a63d2891b1ae4d6e2ef50000089454e595634355855301ca03e0b848e430609b390af293233eb92043b282ba529fec699ed4aa0da7b9be41ba034b81a3c3d244567aed3d8ae9fb9c10e371504cde1934250c545244f081a3783",
      "networkId": 0,
      "chainId": 0
    }
  ]
}