{
  "hash": "0xcf2d5d836ca4283b8e6aa333046b8d49fe158e665c1ed2020926928d8e3ee1d2",
  "parentHash": "0x800005b9894de285d6e8adbe2438b294c9bdc9dcb30f5e299514097ce9eb6611",
  "number": 121378,
  "timestamp": 1440176246,
  "nonce": "0xf88c8f7341fe9786",
  "difficulty": 4389130776932,
  "gasLimit": {
    "_hex": "0x2fefd8"
  },
  "gasUsed": {
    "_hex": "0x5208"
  },
  "miner": "0xC6A5D22D1DDd24B32a308bA4A49ec3cA38a2D0A6",
  "extraData": "0x",
  "transactions": [
    {
      "hash": "0xb711b28e5ef3a3558bc11dcdea309c834ce9e71ad4271fa1491f0978a85d7039",
      "blockHash": "0xcf2d5d836ca4283b8e6aa333046b8d49fe158e665c1ed2020926928d8e3ee1d2",
      "blockNumber": 121378,
      "transactionIndex": 0,
      "confirmations": null,
      "from": "0xF4520444303eaa6e2d2E3AC10A9483cD33185cc0",
      "gasPrice": {
        "_hex": "0xba43b7400"
      },
      "gasLimit": {
        "_hex": "0x5208"
      },
      "to": "0x32Be343B94f860124dC4fEe278FDCBD38C102D88",
      "value": {
        "_hex": "0x18e564052ecfe000"
      },
      "nonce": 0,
      "data": "0x",
      "r": "0xf4bbcb281a41f32a586076199ab9daee44087efe7460937dba27987a8cb5073b",
      "s": "0x77a79c1404e21d24a8ed3a0ff2b10e55d46c08cf00201568bf55ee7ad128bcac",
      "v": 28,
      "creates": null,
      "raw": "0xf86c80850ba43b74008252089432be343b94f860124dc4fee278fdcbd38c102d888818e564052ecfe000801ca0f4bbcb281a41f32a586076199ab9daee44087efe7460937dba27987a8cb5073ba077a79c1404e21d24a8ed3a0ff2b10e55d46c08cf00201568bf55ee7ad128bcac",
      "networkId": 0,
      "chainId": 0
    }
  ]
}