{
  "hash": "0x94464063b88b039c0530549ed8614d46f005d3c82247fae9785986a2a834673c",
  "parentHash": "0x592d637f9aaf6e926adbc6d49ef4489efe335782471cb83e1af2a7d87ea6ef00",
  "number": 119396,
  "timestamp": 1440142109,
  "nonce": "0xf2e2c7ed083aceb5",
  "difficulty": 4415967083747,
  "gasLimit": {
    "_hex": "0x2fefd8"
  },
  "gasUsed": {
    "_hex": "0xa410"
  },
  "miner": "0xD0ee3F53eE0fCf3F9fbCcdd17BD1b6441DdC2074",
  "extraData": "0x",
  "transactions": [
    {
      "hash": "0xa211124855c721aafbd0cdf6fc9159e934d23097b64757c8b85eaf76d1a05ff0",
      "blockHash": "0x94464063b88b039c0530549ed8614d46f005d3c82247fae9785986a2a834673c",
      "blockNumber": 119396,
      "transactionIndex": 0,
      "confirmations": null,
      "from": "0x52191276589069F70F0E46bcCc718d793d1Aa1D0",
      "gasPrice": {
        "_hex": "0xba43b7400"
      },
      "gasLimit": {
        "_hex": "0x5208"
      },
      "to": "0x32Be343B94f860124dC4fEe278FDCBD38C102D88",
      "value": {
        "_hex": "0x10301abd22dcdf000"
      },
      "nonce": 18,
      "data": "0x",
      "r": "0xabde0a35456728cececbf5e30445ccd58e87190aa4660c10d430f1aa3b6f549a",
      "s": "0x081a53eb0ff68c96f99d6af3f4d2b79eb875549b40d2f2ebbf4f4c338915a288",
      "v": 28,
      "creates": null,
      "raw": "0xf86d12850ba43b74008252089432be343b94f860124dc4fee278fdcbd38c102d8889010301abd22dcdf000801ca0abde0a35456728cececbf5e30445ccd58e87190aa4660c10d430f1aa3b6f549aa0081a53eb0ff68c96f99d6af3f4d2b79eb875549b40d2f2ebbf4f4c338915a288",
      "networkId": 0,
      "chainId": 0
    },
    {
      "hash": "0xbba03003d25c68b19d64f632df0ed52f5ade142c5d57e60a9c1d6b707aa0f237",
      "blockHash": "0x94464063b88b039c0530549ed8614d46f005d3c82247fae9785986a2a834673c",
      "blockNumber": 119396,
      "transactionIndex": 1,
      "confirmations": null,
      "from": "0x0912001e29BbaF75C23069A22D9B9602BE86FEB7",
      "gasPrice": {
        "_hex": "0xba43b7400"
      },
      "gasLimit": {
        "_hex": "0x5208"
      },
      "to": "0x32Be343B94f860124dC4fEe278FDCBD38C102D88",
      "value": {
        "_hex": "0x5e0a7eb12c4eb8000"
      },
      "nonce": 11,
      "data": "0x",
      "r": "0x356e83ff9ebc5cba8359d4bc5507a9f17eb12cb76310deee78f6f403f900201c",
      "s": "0x0d039e0b3ab902d5a5f0367f0fd1c1a15e1cfc4a7d67ee21344a96daa641405c",
      "v": 28,
      "creates": null,
      "raw": "0xf86d0b850ba43b74008252089432be343b94f860124dc4fee278fdcbd38c102d888905e0a7eb12c4eb8000801ca0356e83ff9ebc5cba8359d4bc5507a9f17eb12cb76310deee78f6f403f900201ca00d039e0b3ab902d5a5f0367f0fd1c1a15e1cfc4a7d67ee21344a96daa641405c",
      "networkId": 0,
      "chainId": 0
    }
  ]
}