{
  "hash": "0xeefc3386542fd989949dec272adad8b5696c06425f2505ddf98cb9094b78f693",
  "parentHash": "0x8fd3603b3b5064afac50c096d8b406c8715a91714a5dfa427cc65ce05d02db71",
  "number": 105585,
  "timestamp": 1439890032,
  "nonce": "0x4c1b7bb6f7415cce",
  "difficulty": 4416768901055,
  "gasLimit": {
    "_hex": "0x2fefd8"
  },
  "gasUsed": {
    "_hex": "0xa410"
  },
  "miner": "0x9Fa9952255B2b06639A04D63804d4BdFFf6E2d7e",
  "extraData": "0x476574682f76312e302e312f77696e646f77732f676f312e342e32",
  "transactions": [
    {
      "hash": "0x5e4255829f14bba84fc514eace2c168a1015ae9c9209fc35a9a5d31e702c4fb8",
      "blockHash": "0xeefc3386542fd989949dec272adad8b5696c06425f2505ddf98cb9094b78f693",
      "blockNumber": 105585,
      "transactionIndex": 0,
      "confirmations": null,
      "from": "0x6faA8C878ccDd5533A99dEd90684e71eB20a0A1A",
      "gasPrice": {
        "_hex": "0xccc3bac9a"
      },
      "gasLimit": {
        "_hex": "0x5208"
      },
      "to": "0x32Be343B94f860124dC4fEe278FDCBD38C102D88",
      "value": {
        "_hex": "0xddc9ce191f90c00"
      },
      "nonce": 0,
      "data": "0x",
      "r": "0x655af8a289f12f91f010ed3f442de24c37a642d52e753dfc30c8a6c22642c6c3",
      "s": "0x6a31490bc30c5388389012c55c4247e50ba9cd39c079ead96411806d6ee83259",
      "v": 28,
      "creates": null,
      "raw": "0xf86c80850ccc3bac9a8252089432be343b94f860124dc4fee278fdcbd38c102d88880ddc9ce191f90c00801ca0655af8a289f12f91f010ed3f442de24c37a642d52e753dfc30c8a6c22642c6c3a06a31490bc30c5388389012c55c4247e50ba9cd39c079ead96411806d6ee83259",
      "networkId": 0,
      "chainId": 0
    },
    {
      "hash": "0xd30201418f694dc5849e715e8a69a732d5e48d03b735f8696a0c9f74f7e14748",
      "blockHash": "0xeefc3386542fd989949dec272adad8b5696c06425f2505ddf98cb9094b78f693",
      "blockNumber": 105585,
      "transactionIndex": 1,
      "confirmations": null,
      "from": "0x379965B927911bcF18D2d4F062Edf10c45847069",
      "gasPrice": {
        "_hex": "0xba43b7400"
      },
      "gasLimit": {
        "_hex": "0x5266"
      },
      "to": "0xE9820EfC74A9fe5fb68bf1e0FBf9945c1302bC0B",
      "value": {
        "_hex": "0xde0b6b3a7640000"
      },
      "nonce": 6,
      "data": "0x",
      "r": "0x8054ef9f5f7213b2f78c92fd44765faa23d0fe21d18053b69d0c1c808826ba62",
      "s": "0x381b428a900815d14cd89878e645145e5a449df184bf6751b4a0c5ca1933ae78",
      "v": 27,
      "creates": null,
      "raw": "0xf86c06850ba43b740082526694e9820efc74a9fe5fb68bf1e0fbf9945c1302bc0b880de0b6b3a7640000801ba08054ef9f5f7213b2f78c92fd44765faa23d0fe21d18053b69d0c1c808826ba62a0381b428a900815d14cd89878e645145e5a449df184bf6751b4a0c5ca1933ae78",
      "networkId": 0,
      "chainId": 0
    }
  ]
}