{
  "hash": "0xc0091926cc65c04ffbf320faf658b26dbed10e7db83b6c59cd069703b7f2f684",
  "parentHash": "0x2cbc4580ee491d4407f207bf0ed82a493478a01cb7ff17299147c6c5d9701326",
  "number": 96428,
  "timestamp": 1439740266,
  "nonce": "0x8f97490c5338d3f6",
  "difficulty": 3663839767789,
  "gasLimit": {
    "_hex": "0x2fefd8"
  },
  "gasUsed": {
    "_hex": "0x546c"
  },
  "miner": "0x05f74a38293C914C6B14a39f5d8dEa98f22E4FBA",
  "extraData": "0x",
  "transactions": [
    {
      "hash": "0x61d27fe3bb2c20fbba67f55b83829f41d5a4804bd7d9c7d4c3a8593e1816cd67",
      "blockHash": "0xc0091926cc65c04ffbf320faf658b26dbed10e7db83b6c59cd069703b7f2f684",
      "blockNumber": 96428,
      "transactionIndex": 0,
      "confirmations": null,
      "from": "0x51e32F14F4ca5e287cDaC057A7795ea9e0439953",
      "gasPrice": {
        "_hex": "0x110c8f7d8de"
      },
      "gasLimit": {
        "_hex": "0xc350"
      },
      "to": "0x2910543Af39abA0Cd09dBb2D50200b3E800A63D2",
      "value": {
        "_hex": "0x7b5f9fe615390000"
      },
      "nonce": 2,
      "data": "0x454e504b4851595938",
      "r": "0xc56cec2bee23278c548a0ace937cdf29995458d90ed4baa8e52e4a2246ee4e0e",
      "s": "0x28f69469e766feecc1f8f11f3c471ac25b88ce4c1535b3602dc927e4eb288d74",
      "v": 28,
      "creates": null,
      "raw": "0xf87602860110c8f7d8de82c350942910543af39aba0cd09dbb2d50200b3e800a63d2887b5f9fe61539000089454e504b48515959381ca0c56cec2bee23278c548a0ace937cdf29995458d90ed4baa8e52e4a2246ee4e0ea028f69469e766feecc1f8f11f3c471ac25b88ce4c1535b3602dc927e4eb288d74",
      "networkId": 0,
      "chainId": 0
    }
  ]
}