{
  "hash": "0xa86200b2095f3a9f5ec854af668e13af656279fb22e74daf16fc184758f1a54f",
  "parentHash": "0x77d04825a70e2c60438d24b18ad550a2fdd9eb743fa87b959c6c864259672505",
  "number": 82218,
  "timestamp": 1439515516,
  "nonce": "0x52bfd6e004d2a391",
  "difficulty": 2383488139131,
  "gasLimit": {
    "_hex": "0x2fefd8"
  },
  "gasUsed": {
    "_hex": "0xf618"
  },
  "miner": "0x88D74a59454F6cF3B51ef6b9136AFb6b9D405A88",
  "extraData": "0x476574682f76312e302e312d37666266393930632f6c696e75782f676f312e34",
  "transactions": [
    {
      "hash": "0xcb7be63d3dbddb01e9fbb1ec51e24e2ddf6eef055529008f01c488234b28d82b",
      "blockHash": "0xa86200b2095f3a9f5ec854af668e13af656279fb22e74daf16fc184758f1a54f",
      "blockNumber": 82218,
      "transactionIndex": 0,
      "confirmations": null,
      "from": "0x2fd8Ad8C541bc201DD24a3C7b60FCBBB6429A4E2",
      "gasPrice": {
        "_hex": "0xba43b7400"
      },
      "gasLimit": {
        "_hex": "0x5208"
      },
      "to": "0xC47Aaa860008be6f65B58c6C6E02a84e666EfE31",
      "value": {
        "_hex": "0xddcfbbb7a606000"
      },
      "nonce": 1,
      "data": "0x",
      "r": "0x1b6a37897de3a3b24e91c49caf9208002bc644813c14e796ce850412322322c1",
      "s": "0x1682a1b0221926a9c95fd0ee59859a7f9204555df12057cccdd49cdd9aff1c53",
      "v": 28,
      "creates": null,
      "raw": "0xf86c01850ba43b740082520894c47aaa860008be6f65b58c6c6e02a84e666efe31880ddcfbbb7a606000801ca01b6a37897de3a3b24e91c49caf9208002bc644813c14e796ce850412322322c1a01682a1b0221926a9c95fd0ee59859a7f9204555df12057cccdd49cdd9aff1c53",
      "networkId": 0,
      "chainId": 0
    },
    {
      "hash": "0x1920e8f3c50e703f38b810eff0e7cbae87709531c6018f2fbfa73bef4f411fb6",
      "blockHash": "0xa86200b2095f3a9f5ec854af668e13af656279fb22e74daf16fc184758f1a54f",
      "blockNumber": 82218,
      "transactionIndex": 1,
      "confirmations": null,
      "from": "0x2C6dA0AeEF23c6a9eA4a8f19c0810e505FDEb231",
      "gasPrice": {
        "_hex": "0xba43b7400"
      },
      "gasLimit": {
        "_hex": "0x5208"
      },
      "to": "0xC47Aaa860008be6f65B58c6C6E02a84e666EfE31",
      "value": {
        "_hex": "0x821958ed2afb3e000"
      },
      "nonce": 3,
      "data": "0x",
      "r": "0x43ea704c83e0f20275954d03d44f416e49660a92fff04cde7df6ee7dd3d53ba9",
      "s": "0x7ed86904d90c22698fbad412144a7f438bc767b91601f58fc5cf74475df4d44b",
      "v": 28,
      "creates": null,
      "raw": "0xf86d03850ba43b740082520894c47aaa860008be6f65b58c6c6e02a84e666efe31890821958ed2afb3e000801ca043ea704c83e0f20275954d03d44f416e49660a92fff04cde7df6ee7dd3d53ba9a07ed86904d90c22698fbad412144a7f438bc767b91601f58fc5cf74475df4d44b",
      "networkId": 0,
      "chainId": 0
    },
    {
      "hash": "0xb87ce42549ded30e5fd7ee43ce008c60affba7d1ded59cebe4e830f682844791",
      "blockHash": "0xa86200b2095f3a9f5ec854af668e13af656279fb22e74daf16fc184758f1a54f",
      "blockNumber": 82218,
      "transactionIndex": 2,
      "confirmations": null,
      "from": "0x2fd8Ad8C541bc201DD24a3C7b60FCBBB6429A4E2",
      "gasPrice": {
        "_hex": "0xba43b7400"
      },
      "gasLimit": {
        "_hex": "0x5208"
      },
      "to": "0xC47Aaa860008be6f65B58c6C6E02a84e666EfE31",
      "value": {
        "_hex": "0xddcfbbb7a606000"
      },
      "nonce": 2,
      "data": "0x",
      "r": "0x95b92eebc954e4e34f5468b6a8e06e02d30e5ebefbf463728ba16a4e90b2812d",
      "s": "0x694355ee20418c009d827b400508402128b88f399e00841e7a320d522f976a2d",
      "v": 28,
      "creates": null,
      "raw": "0xf86c02850ba43b740082520894c47aaa860008be6f65b58c6c6e02a84e666efe31880ddcfbbb7a606000801ca095b92eebc954e4e34f5468b6a8e06e02d30e5ebefbf463728ba16a4e90b2812da0694355ee20418c009d827b400508402128b88f399e00841e7a320d522f976a2d",
      "networkId": 0,
      "chainId": 0
    }
  ]
}