{
  "hash": "0x491a9cd879056f6a969b33dafee98c375b7a537f849d09da7c190a37d36d24e0",
  "parentHash": "0xc02fd5c958481d02136a4348ad10fd544f71f68e37975158b6a784f0692a93d0",
  "number": 85132,
  "timestamp": 1439558979,
  "nonce": "0x28d261e9b1a7798b",
  "difficulty": 2731733540826,
  "gasLimit": {
    "_hex": "0x2fefd8"
  },
  "gasUsed": {
    "_hex": "0x5208"
  },
  "miner": "0xe6A7a1d47ff21B6321162AEA7C6CB457D5476Bca",
  "extraData": "0x476574682f76312e302e312d38326566323666362f6c696e75782f676f312e34",
  "transactions": [
    {
      "hash": "0xf334583af708b82348eb8d3c4b25df451f558b22e64e0531ed6d7d93550c337b",
      "blockHash": "0x491a9cd879056f6a969b33dafee98c375b7a537f849d09da7c190a37d36d24e0",
      "blockNumber": 85132,
      "transactionIndex": 0,
      "confirmations": null,
      "from": "0x5E9dCd11B7b9Df7923fd13D1749E64f4415Fb547",
      "gasPrice": {
        "_hex": "0x10a4e14b3a1"
      },
      "gasLimit": {
        "_hex": "0x15f90"
      },
      "to": "0x503901873Fa95Da0f39dcD5bBf02E6c388793bDA",
      "value": {
        "_hex": "0x1bc16d674ec80000"
      },
      "nonce": 0,
      "data": "0x",
      "r": "0xebe8f5036c10382632e33048d52abab4ba71a5ddf894502946e099e1eef3c0f5",
      "s": "0x18088b55c7e498158066a5320821686781ee3a62837733293e83b21c0c3a592e",
      "v": 28,
      "creates": null,
      "raw": "0xf86e8086010a4e14b3a183015f9094503901873fa95da0f39dcd5bbf02e6c388793bda881bc16d674ec80000801ca0ebe8f5036c10382632e33048d52abab4ba71a5ddf894502946e099e1eef3c0f5a018088b55c7e498158066a5320821686781ee3a62837733293e83b21c0c3a592e",
      "networkId": 0,
      "chainId": 0
    }
  ]
}