{
  "hash": "0x22f58ec17f0a1102d66fb499513a17b2a3eb6c8399131928f53beb3353255f04",
  "parentHash": "0xa9fe7e02268acd14038319e44db782c9b9fe0f6670f70d666a7a346ae61be112",
  "number": 74609,
  "timestamp": 1439389197,
  "nonce": "0xa523bb0e349c39e7",
  "difficulty": 2200986503220,
  "gasLimit": {
    "_hex": "0x2fefd8"
  },
  "gasUsed": {
    "_hex": "0x5208"
  },
  "miner": "0xEF247E639d49461D25F57e9362CadE3120910Ce0",
  "extraData": "0x476574682f76312e302e312f6c696e75782f676f312e342e32",
  "transactions": [
    {
      "hash": "0xaa88a16ecd466ab6b7d1da1d4a5f13d4600b2091496bc445d5b57a02b0089afa",
      "blockHash": "0x22f58ec17f0a1102d66fb499513a17b2a3eb6c8399131928f53beb3353255f04",
      "blockNumber": 74609,
      "transactionIndex": 0,
      "confirmations": null,
      "from": "0xBFa71Aba804c2b986D969E175aCFdAC7266CDe9C",
      "gasPrice": {
        "_hex": "0xd3e0dd636"
      },
      "gasLimit": {
        "_hex": "0x7530"
      },
      "to": "0xa9f5E7bf6Cbf6fEc55B30850Eb492b47A376d050",
      "value": {
        "_hex": "0x955332fdb7340000"
      },
      "nonce": 0,
      "data": "0x",
      "r": "0x7cbb78023dd4b5b3c95585927c48f7220a8b9d337731ddcdcbd66e04890b4b02",
      "s": "0x79936d770dcfdfe6ca6e35becf93293f1c3bcd39ca8878bd2f159dac7b39655a",
      "v": 27,
      "creates": null,
      "raw": "0xf86c80850d3e0dd63682753094a9f5e7bf6cbf6fec55b30850eb492b47a376d05088955332fdb7340000801ba07cbb78023dd4b5b3c95585927c48f7220a8b9d337731ddcdcbd66e04890b4b02a079936d770dcfdfe6ca6e35becf93293f1c3bcd39ca8878bd2f159dac7b39655a",
      "networkId": 0,
      "chainId": 0
    }
  ]
}