{
  "hash": "0x7c911848ef55f260f7854a669a1abe6b6f09050a8909c2d35e607664edbfded6",
  "parentHash": "0x08c378011842fbca7ef4082f64881524a2e6e864a17bb4b4b1312a36007f8599",
  "number": 71966,
  "timestamp": 1439344766,
  "nonce": "0x73c1b71204511286",
  "difficulty": 2174967470610,
  "gasLimit": {
    "_hex": "0x2fefd8"
  },
  "gasUsed": {
    "_hex": "0xae73"
  },
  "miner": "0xe6A7a1d47ff21B6321162AEA7C6CB457D5476Bca",
  "extraData": "0x476574682f76312e302e312d38326566323666362f6c696e75782f676f312e34",
  "transactions": [
    {
      "hash": "0x625db35664ddb3d2780cf537bf0abbf2faabeb4cb1b3cbf8af638f996ed23bdf",
      "blockHash": "0x7c911848ef55f260f7854a669a1abe6b6f09050a8909c2d35e607664edbfded6",
      "blockNumber": 71966,
      "transactionIndex": 0,
      "confirmations": null,
      "from": "0x17580B766f7453525ca4C6A88b01b50570EA088C",
      "gasPrice": {
        "_hex": "0xdd3e9c0fa"
      },
      "gasLimit": {
        "_hex": "0x61a80"
      },
      "to": "0x5Fe5B7546D1628f7348B023A0393de1FC825A4fD",
      "value": {
        "_hex": "0x6124fee993bc0000"
      },
      "nonce": 313,
      "data": "0xb595b8b50000000000000000000000000000000000000000000000000000000000000000",
      "r": "0x8226a8d8166d7a14e0a503f6b0b55635df952e2adf0b87bee9a99cde471bb2bf",
      "s": "0x418222172e4388797dd3da32a4d0063da30f1ad8c2747014ca82bb8ef0366aa6",
      "v": 28,
      "creates": null,
      "raw": "0xf893820139850dd3e9c0fa83061a80945fe5b7546d1628f7348b023a0393de1fc825a4fd886124fee993bc0000a4b595b8b500000000000000000000000000000000000000000000000000000000000000001ca08226a8d8166d7a14e0a503f6b0b55635df952e2adf0b87bee9a99cde471bb2bfa0418222172e4388797dd3da32a4d0063da30f1ad8c2747014ca82bb8ef0366aa6",
      "networkId": 0,
      "chainId": 0
    }
  ]
}