{
  "hash": "0xdf74ea6bbaa304691fe34da0b164722521a0428e315832a7dc85c24747f793b0",
  "parentHash": "0xc7cdab29513bb620c35968809e4a389b00be051c8e14b1a0159c1b3d8447d52c",
  "number": 101347,
  "timestamp": 1439821565,
  "nonce": "0x44d0b84ff4fc788d",
  "difficulty": 3805698488163,
  "gasLimit": {
    "_hex": "0x2fefd8"
  },
  "gasUsed": {
    "_hex": "0x5208"
  },
  "miner": "0xe6A7a1d47ff21B6321162AEA7C6CB457D5476Bca",
  "extraData": "0x476574682f76312e302e312d38326566323666362f6c696e75782f676f312e34",
  "transactions": [
    {
      "hash": "0x7d1664d8193c9c048df73050a2d64071ca958d6b8a16932433c1a7ba2418a8b3",
      "blockHash": "0xdf74ea6bbaa304691fe34da0b164722521a0428e315832a7dc85c24747f793b0",
      "blockNumber": 101347,
      "transactionIndex": 0,
      "confirmations": null,
      "from": "0x63738Ec4C9adec404749B5747F3bbE2147de632F",
      "gasPrice": {
        "_hex": "0xcfe78a577"
      },
      "gasLimit": {
        "_hex": "0x15f90"
      },
      "to": "0x557C2806B6ceA65a66F415bb2Ed1ce897B340745",
      "value": {
        "_hex": "0x16345785d8a0000"
      },
      "nonce": 35,
      "data": "0x",
      "r": "0x814dc3cd3be33eb61d44da53b7d5f47bd0e3d61ac2c9280862a97b2349443ee0",
      "s": "0x6bfdd4c43c07770fa5034f7bb1f4fab592fd3c7dfd45bc7758f8f02bb5d80167",
      "v": 28,
      "creates": null,
      "raw": "0xf86d23850cfe78a57783015f9094557c2806b6cea65a66f415bb2ed1ce897b34074588016345785d8a0000801ca0814dc3cd3be33eb61d44da53b7d5f47bd0e3d61ac2c9280862a97b2349443ee0a06bfdd4c43c07770fa5034f7bb1f4fab592fd3c7dfd45bc7758f8f02bb5d80167",
      "networkId": 0,
      "chainId": 0
    }
  ]
}