{
  "hash": "0x012e6decf53a5dc5beed66a7e50dd7c5e0479a47157baf15f83c9bbe7b4d1a33",
  "parentHash": "0x1dd8759f742c264fc837b6ad1a1053a3320e5622fcc86472e9ea8d64effcd790",
  "number": 64954,
  "timestamp": 1439228938,
  "nonce": "0xf2415c34a742ad3c",
  "difficulty": 1913517829975,
  "gasLimit": {
    "_hex": "0x2fefd8"
  },
  "gasUsed": {
    "_hex": "0x5208"
  },
  "miner": "0xbb7B8287f3F0a933474a79eAe42CBCa977791171",
  "extraData": "0x476574682f4c5649562f76312e302e312f6c696e75782f676f312e342e32",
  "transactions": [
    {
      "hash": "0x661e55f9bfb708761e6ee98ab500bc07153d87bb6e3d3f10ee25ec83344298ab",
      "blockHash": "0x012e6decf53a5dc5beed66a7e50dd7c5e0479a47157baf15f83c9bbe7b4d1a33",
      "blockNumber": 64954,
      "transactionIndex": 0,
      "confirmations": null,
      "from": "0x120A270bbC009644e35F0bB6ab13f95b8199c4ad",
      "gasPrice": {
        "_hex": "0xceb652bad"
      },
      "gasLimit": {
        "_hex": "0x15f90"
      },
      "to": "0x976349705b839e2F5719387Fb27D2519d519da03",
      "value": {
        "_hex": "0x484ca03a0435c00"
      },
      "nonce": 119,
      "data": "0x",
      "r": "0x13570e17002a22cca68db51723ea9ce162642d7b490487776f8ae3130086448a",
      "s": "0x24213d255490c6be4f512cf583652dc14585b2f98fb6138b15a9689343a7d958",
      "v": 28,
      "creates": null,
      "raw": "0xf86d77850ceb652bad83015f9094976349705b839e2f5719387fb27d2519d519da03880484ca03a0435c00801ca013570e17002a22cca68db51723ea9ce162642d7b490487776f8ae3130086448aa024213d255490c6be4f512cf583652dc14585b2f98fb6138b15a9689343a7d958",
      "networkId": 0,
      "chainId": 0
    }
  ]
}