{
  "hash": "0xaf5585336940bc69f83266283b6cda2ccb1a243166de211574da204288bb4824",
  "parentHash": "0x5f586c0a136ef18ca5953fcaf7b062018aace23d7e32e7539e096b1a5118208a",
  "number": 107874,
  "timestamp": 1439930195,
  "nonce": "0x1f67e037026fbc1d",
  "difficulty": 4383341449221,
  "gasLimit": {
    "_hex": "0x2fefd8"
  },
  "gasUsed": {
    "_hex": "0x5208"
  },
  "miner": "0xe6A7a1d47ff21B6321162AEA7C6CB457D5476Bca",
  "extraData": "0x476574682f76312e302e312d38326566323666362f6c696e75782f676f312e34",
  "transactions": [
    {
      "hash": "0x6429c64167f71c41107749a3aa23997efca0844ce7ac4eff043d3f775f7052ef",
      "blockHash": "0xaf5585336940bc69f83266283b6cda2ccb1a243166de211574da204288bb4824",
      "blockNumber": 107874,
      "transactionIndex": 0,
      "confirmations": null,
      "from": "0xA6C5F63fBb0A85b2ed3F458a9ed02c60e65eC005",
      "gasPrice": {
        "_hex": "0xd6fed1c1a"
      },
      "gasLimit": {
        "_hex": "0x30d40"
      },
      "to": "0x120A270bbC009644e35F0bB6ab13f95b8199c4ad",
      "value": {
        "_hex": "0x60fbfd1739b9a780"
      },
      "nonce": 0,
      "data": "0x",
      "r": "0xd76fc231b8255a5cab5e850e15693fc25f7161ddb27ffff58290d87750a41772",
      "s": "0x39f85f6fa1c3e4163a4215f6c8bee259e17940ed2d39c25c6e7e6f62989f0cfa",
      "v": 27,
      "creates": null,
      "raw": "0xf86d80850d6fed1c1a83030d4094120a270bbc009644e35f0bb6ab13f95b8199c4ad8860fbfd1739b9a780801ba0d76fc231b8255a5cab5e850e15693fc25f7161ddb27ffff58290d87750a41772a039f85f6fa1c3e4163a4215f6c8bee259e17940ed2d39c25c6e7e6f62989f0cfa",
      "networkId": 0,
      "chainId": 0
    }
  ]
}