{
  "hash": "0xd7c344534f54ac0e0a6be857e102367f6ccce934a0323e8d8bf722bfd653a104",
  "parentHash": "0x76b6eee1ca1292a2de75382735dabc6312736cc294e90405b3a0caa7310ec471",
  "number": 80370,
  "timestamp": 1439484717,
  "nonce": "0xb62d6e060c3f0878",
  "difficulty": 2377039083185,
  "gasLimit": {
    "_hex": "0x2fefd8"
  },
  "gasUsed": {
    "_hex": "0xa410"
  },
  "miner": "0xa50ec0D39fa913E62f1Bae7074E6F36caA71855b",
  "extraData": "0xd783010001844765746887676f312e342e32856c696e7578",
  "transactions": [
    {
      "hash": "0x196a018a51f943258a1fc8b34d8a8b06b700d683ea6f51f63c5867d6e9c0f362",
      "blockHash": "0xd7c344534f54ac0e0a6be857e102367f6ccce934a0323e8d8bf722bfd653a104",
      "blockNumber": 80370,
      "transactionIndex": 0,
      "confirmations": null,
      "from": "0x28a9D631e5C22Ee57312DDdc75936822a2243A05",
      "gasPrice": {
        "_hex": "0xba43b7400"
      },
      "gasLimit": {
        "_hex": "0x5208"
      },
      "to": "0xC47Aaa860008be6f65B58c6C6E02a84e666EfE31",
      "value": {
        "_hex": "0x5b2cbc188991ecf0"
      },
      "nonce": 2,
      "data": "0x",
      "r": "0x9d2c6c91929726681231ba6529b49c6920bbdb49bba41ea6ad6cccb0529caa3b",
      "s": "0x6e76be4af55ba6350b9cd18d668d076fe40db78878eb10fcf0383ae1df9428c1",
      "v": 27,
      "creates": null,
      "raw": "0xf86c02850ba43b740082520894c47aaa860008be6f65b58c6c6e02a84e666efe31885b2cbc188991ecf0801ba09d2c6c91929726681231ba6529b49c6920bbdb49bba41ea6ad6cccb0529caa3ba06e76be4af55ba6350b9cd18d668d076fe40db78878eb10fcf0383ae1df9428c1",
      "networkId": 0,
      "chainId": 0
    },
    {
      "hash": "0x8c7a2ad34ad882941f76d390c4bac3231eb581159deaa9d56b7c09d294f2794e",
      "blockHash": "0xd7c344534f54ac0e0a6be857e102367f6ccce934a0323e8d8bf722bfd653a104",
      "blockNumber": 80370,
      "transactionIndex": 1,
      "confirmations": null,
      "from": "0xc7178C8B9a4d03e33d8d695169Ce476014c71Ada",
      "gasPrice": {
        "_hex": "0xba43b7400"
      },
      "gasLimit": {
        "_hex": "0x5208"
      },
      "to": "0xC47Aaa860008be6f65B58c6C6E02a84e666EfE31",
      "value": {
        "_hex": "0x455fd68a17f038f0"
      },
      "nonce": 1,
      "data": "0x",
      "r": "0x4ba25e2699ed9c9e7f3924910db06a84771fba36306023097b8ca38f231395f2",
      "s": "0x5551cd600a924ea0d8ac69c3fbdeeb068e807138e662d8210e98f49b4d8cd65e",
      "v": 27,
      "creates": null,
      "raw": "0xf86c01850ba43b740082520894c47aaa860008be6f65b58c6c6e02a84e666efe3188455fd68a17f038f0801ba04ba25e2699ed9c9e7f3924910db06a84771fba36306023097b8ca38f231395f2a05551cd600a924ea0d8ac69c3fbdeeb068e807138e662d8210e98f49b4d8cd65e",
      "networkId": 0,
      "chainId": 0
    }
  ]
}