{
  "hash": "0xda78ea73191b5302de710995d3e41cc2864f0d59a6e40370267b2b8021e4bc08",
  "parentHash": "0x0b66052dd2f3acdcc674798ecdbe1f2ab82637a1249c8ea8764ffce4b0523d9c",
  "number": 91925,
  "timestamp": 1439663951,
  "nonce": "0xe12f561e3ef71c65",
  "difficulty": 3472411435607,
  "gasLimit": {
    "_hex": "0x2fefd8"
  },
  "gasUsed": {
    "_hex": "0xa410"
  },
  "miner": "0x8C24e2d312b92E1Ff7A2f23490219c1d0BFfeFD8",
  "extraData": "0x476574682f76312e302e312f77696e646f77732f676f312e342e32",
  "transactions": [
    {
      "hash": "0x0bfd57582a4c1dab5211d2ac4025710dd36502f96b14d667114e4b1e6ab1ccf6",
      "blockHash": "0xda78ea73191b5302de710995d3e41cc2864f0d59a6e40370267b2b8021e4bc08",
      "blockNumber": 91925,
      "transactionIndex": 0,
      "confirmations": null,
      "from": "0x2910543Af39abA0Cd09dBb2D50200b3E800A63D2",
      "gasPrice": {
        "_hex": "0xd543c0bef"
      },
      "gasLimit": {
        "_hex": "0x5208"
      },
      "to": "0x973518AA4A7578Cb1eDbebA4cCcCcdD85375Dfb7",
      "value": {
        "_hex": "0x8e1aedf9ac6231c000"
      },
      "nonce": 818,
      "data": "0x",
      "r": "0xd9d677856f0e9ff877bf09b92401f060f0add94c1b83d32c923f8f1aedd3f491",
      "s": "0x35786f070787f4c17b8a44fb3116abe909c2f31cc0ead9f2492d46655c0642ce",
      "v": 28,
      "creates": null,
      "raw": "0xf86f820332850d543c0bef82520894973518aa4a7578cb1edbeba4cccccdd85375dfb7898e1aedf9ac6231c000801ca0d9d677856f0e9ff877bf09b92401f060f0add94c1b83d32c923f8f1aedd3f491a035786f070787f4c17b8a44fb3116abe909c2f31cc0ead9f2492d46655c0642ce",
      "networkId": 0,
      "chainId": 0
    },
    {
      "hash": "0x2a2fc553bbae85f611357223ef64d4e9527690b0f564781877b996a080bfa477",
      "blockHash": "0xda78ea73191b5302de710995d3e41cc2864f0d59a6e40370267b2b8021e4bc08",
      "blockNumber": 91925,
      "transactionIndex": 1,
      "confirmations": null,
      "from": "0x2910543Af39abA0Cd09dBb2D50200b3E800A63D2",
      "gasPrice": {
        "_hex": "0xd543c0bef"
      },
      "gasLimit": {
        "_hex": "0x5208"
      },
      "to": "0x02020D22dCF88f5eDd66B382D7da019F161fB7e3",
      "value": {
        "_hex": "0x1d133563801f934000"
      },
      "nonce": 819,
      "data": "0x",
      "r": "0x0550d548a8e57b89ce8eac3b5fb9705c15123d552eb443358340270eeb3f8351",
      "s": "0x2e930482e916a3c7f333e78f906294237777cbafd39b5362d17d2b8584581f58",
      "v": 28,
      "creates": null,
      "raw": "0xf86f820333850d543c0bef8252089402020d22dcf88f5edd66b382d7da019f161fb7e3891d133563801f934000801ca00550d548a8e57b89ce8eac3b5fb9705c15123d552eb443358340270eeb3f8351a02e930482e916a3c7f333e78f906294237777cbafd39b5362d17d2b8584581f58",
      "networkId": 0,
      "chainId": 0
    }
  ]
}