{
  "hash": "0x48f654abb64e9c4f3f51dec7d871eface59fca82d78716d637795703083ef760",
  "parentHash": "0x89373a92e4fc8994dd30b861eaa3a06c16f2b460602c70d1ea4ece7bf86fdfa4",
  "number": 65152,
  "timestamp": 1439232127,
  "nonce": "0x77b44f79aa36f60d",
  "difficulty": 1936028076965,
  "gasLimit": {
    "_hex": "0x2fefd8"
  },
  "gasUsed": {
    "_hex": "0x17cd8"
  },
  "miner": "0xe6A7a1d47ff21B6321162AEA7C6CB457D5476Bca",
  "extraData": "0x476574682f76312e302e312f6c696e75782f676f312e342e32",
  "transactions": [
    {
      "hash": "0x8f3ee7342d17fa6a8b320fd0ee6fcc14891e56e8dc884b1578efdc5fdec7fff5",
      "blockHash": "0x48f654abb64e9c4f3f51dec7d871eface59fca82d78716d637795703083ef760",
      "blockNumber": 65152,
      "transactionIndex": 0,
      "confirmations": null,
      "from": "0xA3ae368338394a7db22Cdd0d0250005091625A9A",
      "gasPrice": {
        "_hex": "0xba43b7400"
      },
      "gasLimit": {
        "_hex": "0x15f90"
      },
      "to": "0x793AE8C1b1a160BFc07BFB0d04F85eab1A71F4f2",
      "value": {
        "_hex": "0x0"
      },
      "nonce": 0,
      "data": "0x3ba15036",
      "r": "0xfe9549517b83688e466942c9bf101d56bc2716e6386412088681760340eeff07",
      "s": "0x173bd7720c3d4f4c1e0e5d8f825a30ff028d41574134c66f062167fded5d7d4d",
      "v": 28,
      "creates": null,
      "raw": "0xf86980850ba43b740083015f9094793ae8c1b1a160bfc07bfb0d04f85eab1a71f4f280843ba150361ca0fe9549517b83688e466942c9bf101d56bc2716e6386412088681760340eeff07a0173bd7720c3d4f4c1e0e5d8f825a30ff028d41574134c66f062167fded5d7d4d",
      "networkId": 0,
      "chainId": 0
    },
    {
      "hash": "0x226522912444517b9c601c4cb0d65efdc116c696d569ae89a885745efe7fe825",
      "blockHash": "0x48f654abb64e9c4f3f51dec7d871eface59fca82d78716d637795703083ef760",
      "blockNumber": 65152,
      "transactionIndex": 1,
      "confirmations": null,
      "from": "0x98e470619503F8B1dBbA9b9689C21e380d178C17",
      "gasPrice": {
        "_hex": "0xba43b7400"
      },
      "gasLimit": {
        "_hex": "0x15f90"
      },
      "to": "0x793AE8C1b1a160BFc07BFB0d04F85eab1A71F4f2",
      "value": {
        "_hex": "0x0"
      },
      "nonce": 0,
      "data": "0x3ba15036",
      "r": "0xd79ee48a1138007967a75de30e3902fb6aa712182eeb126d2e0489fcb922bd17",
      "s": "0x2cc833876eb7b0209c5e9852b110bf958a943f49e5c35368bdff54fc07f93c0c",
      "v": 27,
      "creates": null,
      "raw": "0xf86980850ba43b740083015f9094793ae8c1b1a160bfc07bfb0d04f85eab1a71f4f280843ba150361ba0d79ee48a1138007967a75de30e3902fb6aa712182eeb126d2e0489fcb922bd17a02cc833876eb7b0209c5e9852b110bf958a943f49e5c35368bdff54fc07f93c0c",
      "networkId": 0,
      "chainId": 0
    }
  ]
}