{
  "hash": "0xa8ea10a74f8dc581c21acd4a3437a045261137ef71c0bdeab74e5c5e1796bd31",
  "parentHash": "0x1442b6abb45f61027c0b618aa2afe2c20e0b1a16f5620c9932d4d799e1564ca3",
  "number": 113947,
  "timestamp": 1440032333,
  "nonce": "0x2d49ea8e89c96f8e",
  "difficulty": 4433965789203,
  "gasLimit": {
    "_hex": "0x2fefd8"
  },
  "gasUsed": {
    "_hex": "0xa410"
  },
  "miner": "0x36a3706566A8f9b27e7d604f4702900Acd31f32E",
  "extraData": "0x476574682f76312e302e312f6c696e75782f676f312e342e32",
  "transactions": [
    {
      "hash": "0xda5ba0ce1cf10e5f3b27741b76107a9a38ffa2385c745b577603f35de21ebb7b",
      "blockHash": "0xa8ea10a74f8dc581c21acd4a3437a045261137ef71c0bdeab74e5c5e1796bd31",
      "blockNumber": 113947,
      "transactionIndex": 0,
      "confirmations": null,
      "from": "0x336d20e2139665Aed8C697772bD5B2F9593369b6",
      "gasPrice": {
        "_hex": "0xd4cdfbc93"
      },
      "gasLimit": {
        "_hex": "0x15f90"
      },
      "to": "0x48f234d099Af5B0c6e5Fcf1F70E1Be9b8b7Cd31f",
      "value": {
        "_hex": "0x4563918244f40000"
      },
      "nonce": 1,
      "data": "0x",
      "r": "0x6de730dd6d50dd33dbe4835b58ea7d6edf325f86dd5c98e9b6ab2ec2f14e9cee",
      "s": "0x2563fbd0f7448ef9be98b535346df5954d6a33234520bf947ee51b76e696568f",
      "v": 27,
      "creates": null,
      "raw": "0xf86d01850d4cdfbc9383015f909448f234d099af5b0c6e5fcf1f70e1be9b8b7cd31f884563918244f40000801ba06de730dd6d50dd33dbe4835b58ea7d6edf325f86dd5c98e9b6ab2ec2f14e9ceea02563fbd0f7448ef9be98b535346df5954d6a33234520bf947ee51b76e696568f",
      "networkId": 0,
      "chainId": 0
    },
    {
      "hash": "0x4145fbce5b17f5ee69a73a783ab8db8783c658467f51cacab0ac6ce36b75d29c",
      "blockHash": "0xa8ea10a74f8dc581c21acd4a3437a045261137ef71c0bdeab74e5c5e1796bd31",
      "blockNumber": 113947,
      "transactionIndex": 1,
      "confirmations": null,
      "from": "0xC3fe64D1af00F0d9c324E4387EF7533f7D788e95",
      "gasPrice": {
        "_hex": "0xce8ccf758"
      },
      "gasLimit": {
        "_hex": "0x5208"
      },
      "to": "0x32Be343B94f860124dC4fEe278FDCBD38C102D88",
      "value": {
        "_hex": "0xddc93bb4b3f1400"
      },
      "nonce": 18,
      "data": "0x",
      "r": "0xf93edb00b540eda6baaab215bcd94ff2f6834f82dfbe76248cfdd9187af09172",
      "s": "0x2ab435659cb02891381853c46135eee71bce02c3a5c4344587a1d885a8c5ba8e",
      "v": 28,
      "creates": null,
      "raw": "0xf86c12850ce8ccf7588252089432be343b94f860124dc4fee278fdcbd38c102d88880ddc93bb4b3f1400801ca0f93edb00b540eda6baaab215bcd94ff2f6834f82dfbe76248cfdd9187af09172a02ab435659cb02891381853c46135eee71bce02c3a5c4344587a1d885a8c5ba8e",
      "networkId": 0,
      "chainId": 0
    }
  ]
}