{
  "hash": "0x444a018419d6be7ab17107227144cb3497b0ea26a0a13c2d45dfd0d35d0b2ab8",
  "parentHash": "0xec0c8bec3e6d049d6540d0925c7da61b6243aa2bff7179318f549eed25a43af5",
  "number": 97203,
  "timestamp": 1439752535,
  "nonce": "0x356bcf8bd955ab9b",
  "difficulty": 3766896152364,
  "gasLimit": {
    "_hex": "0x2fefd8"
  },
  "gasUsed": {
    "_hex": "0x802e"
  },
  "miner": "0x47ff6576639c2e94762eA5443978D7681C0E78DC",
  "extraData": "0x476574682f76312e302e312f6c696e75782f676f312e342e32",
  "transactions": [
    {
      "hash": "0xc2a318667e3b2fc84ca5c40476dd834a63fc25bd2dda26b805a2214d2ff41321",
      "blockHash": "0x444a018419d6be7ab17107227144cb3497b0ea26a0a13c2d45dfd0d35d0b2ab8",
      "blockNumber": 97203,
      "transactionIndex": 0,
      "confirmations": null,
      "from": "0xFBb1b73C4f0BDa4f67dcA266ce6Ef42f520fBB98",
      "gasPrice": {
        "_hex": "0xd17bc229a"
      },
      "gasLimit": {
        "_hex": "0x15f90"
      },
      "to": "0xCAc7000C7dBaa2E33Af15325AF5D435E011C7BdD",
      "value": {
        "_hex": "0x0"
      },
      "nonce": 74,
      "data": "0x3feb1bd842495454524558303000000000000000000000000000000000000000000000000000000000000000000000002aedf47e935c75601e9d779453f1a5f8c616bd6e0000000000000000000000000000000000000000000000000de0b6b3a7640000",
      "r": "0x59933a623e52fa3b30db6f5f2f5616fa976a7ff121d40d489ea422ad466d9194",
      "s": "0x6a450963d76f8bd61fe428cc348e6c9f721c662f16d943939963debcbb526637",
      "v": 28,
      "creates": null,
      "raw": "0xf8ca4a850d17bc229a83015f9094cac7000c7dbaa2e33af15325af5d435e011c7bdd80b8643feb1bd842495454524558303000000000000000000000000000000000000000000000000000000000000000000000002aedf47e935c75601e9d779453f1a5f8c616bd6e0000000000000000000000000000000000000000000000000de0b6b3a76400001ca059933a623e52fa3b30db6f5f2f5616fa976a7ff121d40d489ea422ad466d9194a06a450963d76f8bd61fe428cc348e6c9f721c662f16d943939963debcbb526637",
      "networkId": 0,
      "chainId": 0
    }
  ]
}