{
  "hash": "0xb4305675f0c572e112a53be96a8f61aee129adb3d4bec3367fb98f9edeeb19a5",
  "parentHash": "0x82baa51c3480e34316fbd5f3374fbdf6296cb925de4cff98658901d27725cbb0",
  "number": 65160,
  "timestamp": 1439232215,
  "nonce": "0xf5dd34d2abb8c666",
  "difficulty": 1936026230626,
  "gasLimit": {
    "_hex": "0x2fefd8"
  },
  "gasUsed": {
    "_hex": "0x1cee0"
  },
  "miner": "0x98f7A0eDF3E25675482cA52480B7e07cA828a4b9",
  "extraData": "0x476574682f76312e302e312f6c696e75782f676f312e342e32",
  "transactions": [
    {
      "hash": "0x1fabfc79cf40383b2c215cf210593fadd306d0b04f6d2efaa315dd57195a0be7",
      "blockHash": "0xb4305675f0c572e112a53be96a8f61aee129adb3d4bec3367fb98f9edeeb19a5",
      "blockNumber": 65160,
      "transactionIndex": 0,
      "confirmations": null,
      "from": "0xa701174A7e8338D26063A01C07674cC96F1777A8",
      "gasPrice": {
        "_hex": "0xd0ef96591"
      },
      "gasLimit": {
        "_hex": "0x5208"
      },
      "to": "0x32Be343B94f860124dC4fEe278FDCBD38C102D88",
      "value": {
        "_hex": "0x5150aa5574df540000"
      },
      "nonce": 1,
      "data": "0x",
      "r": "0x3bddf60c19d1e8caee5097723555a5e12efe01a5bf53a6df8a57493263378bad",
      "s": "0x572e90890b5d922e9006022b184376ebcc666f7cb36dd6b7f32cdc9a9eb73c92",
      "v": 27,
      "creates": null,
      "raw": "0xf86d01850d0ef965918252089432be343b94f860124dc4fee278fdcbd38c102d88895150aa5574df540000801ba03bddf60c19d1e8caee5097723555a5e12efe01a5bf53a6df8a57493263378bada0572e90890b5d922e9006022b184376ebcc666f7cb36dd6b7f32cdc9a9eb73c92",
      "networkId": 0,
      "chainId": 0
    },
    {
      "hash": "0xe112e58ce38ca110f5c3914688f9373707e23e066afcf082e5c12cad5cf891f3",
      "blockHash": "0xb4305675f0c572e112a53be96a8f61aee129adb3d4bec3367fb98f9edeeb19a5",
      "blockNumber": 65160,
      "transactionIndex": 1,
      "confirmations": null,
      "from": "0x86724AF49038eb699DA1Aec60C8814626C1866FF",
      "gasPrice": {
        "_hex": "0xba43b7400"
      },
      "gasLimit": {
        "_hex": "0x15f90"
      },
      "to": "0x793AE8C1b1a160BFc07BFB0d04F85eab1A71F4f2",
      "value": {
        "_hex": "0x0"
      },
      "nonce": 0,
      "data": "0x3ba15036",
      "r": "0x0977e0ccf66a3e881660043e17f8007a9a26be66e41cbec4f36e1357bde683ed",
      "s": "0x103d9050b3f2684c002a95b9a2de2c0afc1dc04eb889547e1d9db6bade4d5234",
      "v": 28,
      "creates": null,
      "raw": "0xf86980850ba43b740083015f9094793ae8c1b1a160bfc07bfb0d04f85eab1a71f4f280843ba150361ca00977e0ccf66a3e881660043e17f8007a9a26be66e41cbec4f36e1357bde683eda0103d9050b3f2684c002a95b9a2de2c0afc1dc04eb889547e1d9db6bade4d5234",
      "networkId": 0,
      "chainId": 0
    },
    {
      "hash": "0xbf4398a973c5da303a0abe9b0e87620a9b5525e99f2bea83341543e85fe05eb6",
      "blockHash": "0xb4305675f0c572e112a53be96a8f61aee129adb3d4bec3367fb98f9edeeb19a5",
      "blockNumber": 65160,
      "transactionIndex": 2,
      "confirmations": null,
      "from": "0xF1B1Ad54f2924Fd3620ABb28b864683429DEBcBD",
      "gasPrice": {
        "_hex": "0xba43b7400"
      },
      "gasLimit": {
        "_hex": "0x15f90"
      },
      "to": "0x793AE8C1b1a160BFc07BFB0d04F85eab1A71F4f2",
      "value": {
        "_hex": "0x0"
      },
      "nonce": 0,
      "data": "0x3ba15036",
      "r": "0x291488d814c178d10de77f7b2b9446432765844ddc97ea19314eb133f3d2b4f8",
      "s": "0x1f068b49faefab47cf75d12f84a3960381c8128c2baf3c62ba58b1c987e3c644",
      "v": 27,
      "creates": null,
      "raw": "0xf86980850ba43b740083015f9094793ae8c1b1a160bfc07bfb0d04f85eab1a71f4f280843ba150361ba0291488d814c178d10de77f7b2b9446432765844ddc97ea19314eb133f3d2b4f8a01f068b49faefab47cf75d12f84a3960381c8128c2baf3c62ba58b1c987e3c644",
      "networkId": 0,
      "chainId": 0
    }
  ]
}