{
  "hash": "0x24c63b1e804eeea427fbfb1926eddb9b924cd313e322ec65b2b0acbb9b936a7f",
  "parentHash": "0x3df113425c3ad28914aab41b8c3f60bb3e545b34c9da0ccafd2af35aecc73cc2",
  "number": 116815,
  "timestamp": 1440097962,
  "nonce": "0x88ca7906398b493d",
  "difficulty": 4334002864438,
  "gasLimit": {
    "_hex": "0x2fefd8"
  },
  "gasUsed": {
    "_hex": "0x29040"
  },
  "miner": "0xe6A7a1d47ff21B6321162AEA7C6CB457D5476Bca",
  "extraData": "0xd783010002844765746887676f312e342e32856c696e7578",
  "transactions": [
    {
      "hash": "0xf56578980ceb4b9944357c1a5967d2d9c429cee2a0d4cef0c1bc729a3b1f0e7d",
      "blockHash": "0x24c63b1e804eeea427fbfb1926eddb9b924cd313e322ec65b2b0acbb9b936a7f",
      "blockNumber": 116815,
      "transactionIndex": 0,
      "confirmations": null,
      "from": "0xe6A7a1d47ff21B6321162AEA7C6CB457D5476Bca",
      "gasPrice": {
        "_hex": "0xba43b7400"
      },
      "gasLimit": {
        "_hex": "0x55f0"
      },
      "to": "0xE7dAdedf7cEBAaBa85903823D254601B1D459C9B",
      "value": {
        "_hex": "0x24c4ad3a8cf126a8"
      },
      "nonce": 5665,
      "data": "0x",
      "r": "0xb7597de87d5fab15e6245304fd93a1cb8c188ece0947d9d018cc23297bfc68d5",
      "s": "0x7f8ef13ce36087a52912a534be0039b4a00ffc303d7965efb5b1291d8feef040",
      "v": 27,
      "creates": null,
      "raw": "0xf86e821621850ba43b74008255f094e7dadedf7cebaaba85903823d254601b1d459c9b8824c4ad3a8cf126a8801ba0b7597de87d5fab15e6245304fd93a1cb8c188ece0947d9d018cc23297bfc68d5a07f8ef13ce36087a52912a534be0039b4a00ffc303d7965efb5b1291d8feef040",
      "networkId": 0,
      "chainId": 0
    },
    {
      "hash": "0x9b6f60c9f74ecb9bc24e465dd85a4d0dcdde7ebda907454dad699d482cffeb35",
      "blockHash": "0x24c63b1e804eeea427fbfb1926eddb9b924cd313e322ec65b2b0acbb9b936a7f",
      "blockNumber": 116815,
      "transactionIndex": 1,
      "confirmations": null,
      "from": "0xe6A7a1d47ff21B6321162AEA7C6CB457D5476Bca",
      "gasPrice": {
        "_hex": "0xba43b7400"
      },
      "gasLimit": {
        "_hex": "0x55f0"
      },
      "to": "0x63d25FB5edc318Aae1DEc4F3aBd7c645f921cff8",
      "value": {
        "_hex": "0x24e272071f1d2dfc"
      },
      "nonce": 5666,
      "data": "0x",
      "r": "0x879f0f669a0d94e9bb3d0871c71e1e7f1fbe1058b2d24b38df9327185c94ae72",
      "s": "0x0cfaf645d76c202dd22c1a38ae63ca45d61ce31da7d7b5b90426c03f817ae910",
      "v": 27,
      "creates": null,
      "raw": "0xf86e821622850ba43b74008255f09463d25fb5edc318aae1dec4f3abd7c645f921cff88824e272071f1d2dfc801ba0879f0f669a0d94e9bb3d0871c71e1e7f1fbe1058b2d24b38df9327185c94ae72a00cfaf645d76c202dd22c1a38ae63ca45d61ce31da7d7b5b90426c03f817ae910",
      "networkId": 0,
      "chainId": 0
    },
    {
      "hash": "0xae4a3a0ba839318fa811e99092ca6fb9f08d2667ed6088e059c56a8b88229618",
      "blockHash": "0x24c63b1e804eeea427fbfb1926eddb9b924cd313e322ec65b2b0acbb9b936a7f",
      "blockNumber": 116815,
      "transactionIndex": 2,
      "confirmations": null,
      "from": "0xe6A7a1d47ff21B6321162AEA7C6CB457D5476Bca",
      "gasPrice": {
        "_hex": "0xba43b7400"
      },
      "gasLimit": {
        "_hex": "0x55f0"
      },
      "to": "0xA5a5181868a8Df772f87DC95aB9B366e974Da936",
      "value": {
        "_hex": "0x24e2e2100526d0f0"
      },
      "nonce": 5667,
      "data": "0x",
      "r": "0x2c3c617aa766d2bef17b56bed8902bd1c2637d9206898231d621142d04b7c780",
      "s": "0x08135a45e59a2335800cc96e61a1f3722b7f78b962f7903143735f0041c46d2d",
      "v": 27,
      "creates": null,
      "raw": "0xf86e821623850ba43b74008255f094a5a5181868a8df772f87dc95ab9b366e974da9368824e2e2100526d0f0801ba02c3c617aa766d2bef17b56bed8902bd1c2637d9206898231d621142d04b7c780a008135a45e59a2335800cc96e61a1f3722b7f78b962f7903143735f0041c46d2d",
      "networkId": 0,
      "chainId": 0
    },
    {
      "hash": "0x74c5f4c8160589aea2f613a43e1cf08e77d668ea1261a6b70c66e6a788010fa8",
      "blockHash": "0x24c63b1e804eeea427fbfb1926eddb9b924cd313e322ec65b2b0acbb9b936a7f",
      "blockNumber": 116815,
      "transactionIndex": 3,
      "confirmations": null,
      "from": "0xe6A7a1d47ff21B6321162AEA7C6CB457D5476Bca",
      "gasPrice": {
        "_hex": "0xba43b7400"
      },
      "gasLimit": {
        "_hex": "0x55f0"
      },
      "to": "0x8d629C20608135491B5013f1002586A0383130e5",
      "value": {
        "_hex": "0x24e9fe37929861e8"
      },
      "nonce": 5668,
      "data": "0x",
      "r": "0xe0d9b9b38e713a31732fded748c92d6774284f0989003001b428d887db90bcb6",
      "s": "0x3fd128c26e05e08fb6b3d14c2dd930ad846f86754a22f650c61d8b9491a06018",
      "v": 28,
      "creates": null,
      "raw": "0xf86e821624850ba43b74008255f0948d629c20608135491b5013f1002586a0383130e58824e9fe37929861e8801ca0e0d9b9b38e713a31732fded748c92d6774284f0989003001b428d887db90bcb6a03fd128c26e05e08fb6b3d14c2dd930ad846f86754a22f650c61d8b9491a06018",
      "networkId": 0,
      "chainId": 0
    },
    {
      "hash": "0x1e59309aad8e3460803886169d8424bee87a41a0c1bcab38704578d876da4b9e",
      "blockHash": "0x24c63b1e804eeea427fbfb1926eddb9b924cd313e322ec65b2b0acbb9b936a7f",
      "blockNumber": 116815,
      "transactionIndex": 4,
      "confirmations": null,
      "from": "0xe6A7a1d47ff21B6321162AEA7C6CB457D5476Bca",
      "gasPrice": {
        "_hex": "0xba43b7400"
      },
      "gasLimit": {
        "_hex": "0x55f0"
      },
      "to": "0xbb30e448B72d6Fdd44973A4C7a312F92f22C8F07",
      "value": {
        "_hex": "0x254b4bc18c70e20c"
      },
      "nonce": 5669,
      "data": "0x",
      "r": "0xe1fcf6a5632b414f89fa1a350835537d42f9ef7d5a1f07d4d1ea2e2cae41ceaf",
      "s": "0x16988d04a8975f46f49eaba7f262f9535c4b5d675b6f07d6257521e0e45778e9",
      "v": 27,
      "creates": null,
      "raw": "0xf86e821625850ba43b74008255f094bb30e448b72d6fdd44973a4c7a312f92f22c8f0788254b4bc18c70e20c801ba0e1fcf6a5632b414f89fa1a350835537d42f9ef7d5a1f07d4d1ea2e2cae41ceafa016988d04a8975f46f49eaba7f262f9535c4b5d675b6f07d6257521e0e45778e9",
      "networkId": 0,
      "chainId": 0
    },
    {
      "hash": "0x6b4ef4a6c3cce81c3b925e9b708baa7a9d0990f3b1b24849a16fdf030a459404",
      "blockHash": "0x24c63b1e804eeea427fbfb1926eddb9b924cd313e322ec65b2b0acbb9b936a7f",
      "blockNumber": 116815,
      "transactionIndex": 5,
      "confirmations": null,
      "from": "0xe6A7a1d47ff21B6321162AEA7C6CB457D5476Bca",
      "gasPrice": {
        "_hex": "0xba43b7400"
      },
      "gasLimit": {
        "_hex": "0x55f0"
      },
      "to": "0xeCdf9d571849dE520c84eBEd7Ac4551e483eA5b3",
      "value": {
        "_hex": "0x254da7259cef3e28"
      },
      "nonce": 5670,
      "data": "0x",
      "r": "0x6415886f61e4466677f6f4bb65cbfca10f61856910ea50ba761a7bce271908b4",
      "s": "0x43e64b46ec7178d7b5dda631b1ce69adcb9a23145e4a4601eb1ea23aba4ef5b4",
      "v": 27,
      "creates": null,
      "raw": "0xf86e821626850ba43b74008255f094ecdf9d571849de520c84ebed7ac4551e483ea5b388254da7259cef3e28801ba06415886f61e4466677f6f4bb65cbfca10f61856910ea50ba761a7bce271908b4a043e64b46ec7178d7b5dda631b1ce69adcb9a23145e4a4601eb1ea23aba4ef5b4",
      "networkId": 0,
      "chainId": 0
    },
    {
      "hash": "0x8abe5cca535d99c3fd757f4066bda5bed2d5b6ab8c133baddbe0247d38b6b83d",
      "blockHash": "0x24c63b1e804eeea427fbfb1926eddb9b924cd313e322ec65b2b0acbb9b936a7f",
      "blockNumber": 116815,
      "transactionIndex": 6,
      "confirmations": null,
      "from": "0xe6A7a1d47ff21B6321162AEA7C6CB457D5476Bca",
      "gasPrice": {
        "_hex": "0xba43b7400"
      },
      "gasLimit": {
        "_hex": "0x55f0"
      },
      "to": "0x378fCAEF49580b550cB7164f14811a5E613BD683",
      "value": {
        "_hex": "0x25743022bead05d4"
      },
      "nonce": 5671,
      "data": "0x",
      "r": "0xb8804a551c7ada043ad03a0994bfecb21d9e832383e3d2660175eb188bf1a73b",
      "s": "0x732396b2a1b374931e7935dbea8e365972a3d6b960202d835ee89861a5c76231",
      "v": 27,
      "creates": null,
      "raw": "0xf86e821627850ba43b74008255f094378fcaef49580b550cb7164f14811a5e613bd6838825743022bead05d4801ba0b8804a551c7ada043ad03a0994bfecb21d9e832383e3d2660175eb188bf1a73ba0732396b2a1b374931e7935dbea8e365972a3d6b960202d835ee89861a5c76231",
      "networkId": 0,
      "chainId": 0
    },
    {
      "hash": "0x1d5162fd486486da5efae70a95373dcdb8dedd9311cffaef01b82700ec39133c",
      "blockHash": "0x24c63b1e804eeea427fbfb1926eddb9b924cd313e322ec65b2b0acbb9b936a7f",
      "blockNumber": 116815,
      "transactionIndex": 7,
      "confirmations": null,
      "from": "0xe6A7a1d47ff21B6321162AEA7C6CB457D5476Bca",
      "gasPrice": {
        "_hex": "0xba43b7400"
      },
      "gasLimit": {
        "_hex": "0x55f0"
      },
      "to": "0x902cA27B08D58442b67bb4Fa988de351468AB59f",
      "value": {
        "_hex": "0x257517ea2669c360"
      },
      "nonce": 5672,
      "data": "0x",
      "r": "0x35f503b0548320f99870211525ffc55bbdadd0a76adba6f9a4d42df1e59e1569",
      "s": "0x74ebe20e56eebcc70698f8de608b6fd3092a2947dafe3194f0822e9b63b1b243",
      "v": 27,
      "creates": null,
      "raw": "0xf86e821628850ba43b74008255f094902ca27b08d58442b67bb4fa988de351468ab59f88257517ea2669c360801ba035f503b0548320f99870211525ffc55bbdadd0a76adba6f9a4d42df1e59e1569a074ebe20e56eebcc70698f8de608b6fd3092a2947dafe3194f0822e9b63b1b243",
      "networkId": 0,
      "chainId": 0
    }
  ]
}