{
  "hash": "0x990d0278338cc2cc3904e01314de01af4958dcb3dec96e4bfabf0b4eb35f2f30",
  "parentHash": "0x69951683739071eb38f3df57eb4a19c159871219262f39db0470a7cf7ce7fb2f",
  "number": 52952,
  "timestamp": 1439030047,
  "nonce": "0xc6b2f4e60437f244",
  "difficulty": 1571659222212,
  "gasLimit": {
    "_hex": "0x1c7e63"
  },
  "gasUsed": {
    "_hex": "0x5208"
  },
  "miner": "0xF2d2AfF1320476cb8C6b607199D23175cc595693",
  "extraData": "0x476574682f76312e302e312f77696e646f77732f676f312e342e32",
  "transactions": [
    {
      "hash": "0x6b8d29d4b7cf5e4d0482f5d6c136492586ef203dce5ece7f43f0f07d8718d3cc",
      "blockHash": "0x990d0278338cc2cc3904e01314de01af4958dcb3dec96e4bfabf0b4eb35f2f30",
      "blockNumber": 52952,
      "transactionIndex": 0,
      "confirmations": null,
      "from": "0x32Be343B94f860124dC4fEe278FDCBD38C102D88",
      "gasPrice": {
        "_hex": "0xda7b65572"
      },
      "gasLimit": {
        "_hex": "0x5208"
      },
      "to": "0xBC39235a4351687fB14FAB7F9356e1c2eaA0e3b2",
      "value": {
        "_hex": "0x3635a626d36ee00000"
      },
      "nonce": 29,
      "data": "0x",
      "r": "0x69e7b761ba6c61dd2dc43fb7c441814e8716ec481fa002193a3f29207197f727",
      "s": "0x017e27c81242ac932f563749ecbcc4dfe886c420253ecbc47bd7cccc214433b0",
      "v": 27,
      "creates": null,
      "raw": "0xf86d1d850da7b6557282520894bc39235a4351687fb14fab7f9356e1c2eaa0e3b2893635a626d36ee00000801ba069e7b761ba6c61dd2dc43fb7c441814e8716ec481fa002193a3f29207197f727a0017e27c81242ac932f563749ecbcc4dfe886c420253ecbc47bd7cccc214433b0",
      "networkId": 0,
      "chainId": 0
    }
  ]
}