{
  "hash": "0x97e21e946cb5e77767963d00aa7467a35b3960ab33e0359be2a7e263a1192e04",
  "parentHash": "0xb177bedeb24a6f36fe99a589764b8413114149e38ad691db3ceb6f96ae7fccd2",
  "number": 119492,
  "timestamp": 1440143864,
  "nonce": "0xf2c3595d63b3c6ad",
  "difficulty": 4398700518872,
  "gasLimit": {
    "_hex": "0x2fefd8"
  },
  "gasUsed": {
    "_hex": "0x19a28"
  },
  "miner": "0xe6A7a1d47ff21B6321162AEA7C6CB457D5476Bca",
  "extraData": "0xd783010002844765746887676f312e342e32856c696e7578",
  "transactions": [
    {
      "hash": "0xdfdeea40073f863fe49425ad641052e9ac4839ca66e7efac247a487cc6c5012f",
      "blockHash": "0x97e21e946cb5e77767963d00aa7467a35b3960ab33e0359be2a7e263a1192e04",
      "blockNumber": 119492,
      "transactionIndex": 0,
      "confirmations": null,
      "from": "0xcCA04dde313A912347DBE3b8f78E73Ab14B51CbE",
      "gasPrice": {
        "_hex": "0xba43b7400"
      },
      "gasLimit": {
        "_hex": "0x5208"
      },
      "to": "0x32Be343B94f860124dC4fEe278FDCBD38C102D88",
      "value": {
        "_hex": "0xbd3c4605380a5000"
      },
      "nonce": 5,
      "data": "0x",
      "r": "0xd6255f240273bbe0f10acd0b43eb6d5c136ff49d6ebf9b23c684e96e0000fcc9",
      "s": "0x37cc504bbcbb19508e11a1b4759b6f7ef9352697598a1fe52980dfdad344f98e",
      "v": 28,
      "creates": null,
      "raw": "0xf86c05850ba43b74008252089432be343b94f860124dc4fee278fdcbd38c102d8888bd3c4605380a5000801ca0d6255f240273bbe0f10acd0b43eb6d5c136ff49d6ebf9b23c684e96e0000fcc9a037cc504bbcbb19508e11a1b4759b6f7ef9352697598a1fe52980dfdad344f98e",
      "networkId": 0,
      "chainId": 0
    },
    {
      "hash": "0x4567f9dcf9531f56e4682cd1fa1c04f4330a5138a6e6cff886b49a065f665d51",
      "blockHash": "0x97e21e946cb5e77767963d00aa7467a35b3960ab33e0359be2a7e263a1192e04",
      "blockNumber": 119492,
      "transactionIndex": 1,
      "confirmations": null,
      "from": "0x182c02d431a667bF08d1BB680306aB6feC4971e5",
      "gasPrice": {
        "_hex": "0xba43b7400"
      },
      "gasLimit": {
        "_hex": "0x15f90"
      },
      "to": "0xfe8635C30D5b0a49D09Fc9480d59e05d7450fd41",
      "value": {
        "_hex": "0x324e964b3eca80000"
      },
      "nonce": 10,
      "data": "0x",
      "r": "0xfff95be3782831e3e838dc61fabaaaa4d23dfc69528d2fdf5096a2f21863161f",
      "s": "0x519df4e0b2c9913f765aa4808acc7370b5b1ae7eefd67f8ab772bf92a25fd25d",
      "v": 27,
      "creates": null,
      "raw": "0xf86e0a850ba43b740083015f9094fe8635c30d5b0a49d09fc9480d59e05d7450fd41890324e964b3eca80000801ba0fff95be3782831e3e838dc61fabaaaa4d23dfc69528d2fdf5096a2f21863161fa0519df4e0b2c9913f765aa4808acc7370b5b1ae7eefd67f8ab772bf92a25fd25d",
      "networkId": 0,
      "chainId": 0
    },
    {
      "hash": "0x9e77b324f76971f119fe49efbbc0cc8f0dc67714b56e0ac0c199a164458617ac",
      "blockHash": "0x97e21e946cb5e77767963d00aa7467a35b3960ab33e0359be2a7e263a1192e04",
      "blockNumber": 119492,
      "transactionIndex": 2,
      "confirmations": null,
      "from": "0x8AeAaA4f505396d24B783Ba68694b10b1a3f0BCE",
      "gasPrice": {
        "_hex": "0xba43b7400"
      },
      "gasLimit": {
        "_hex": "0x5208"
      },
      "to": "0x32Be343B94f860124dC4fEe278FDCBD38C102D88",
      "value": {
        "_hex": "0xefe98b3af699d000"
      },
      "nonce": 4,
      "data": "0x",
      "r": "0x789e1b81521e0d93eec0d9fa8db7e09a68540396d4568b087343419354a2dca2",
      "s": "0x310803483590fac1c370c0a25498c8d36993b977bd144b406745f32b7d1e9254",
      "v": 28,
      "creates": null,
      "raw": "0xf86c04850ba43b74008252089432be343b94f860124dc4fee278fdcbd38c102d8888efe98b3af699d000801ca0789e1b81521e0d93eec0d9fa8db7e09a68540396d4568b087343419354a2dca2a0310803483590fac1c370c0a25498c8d36993b977bd144b406745f32b7d1e9254",
      "networkId": 0,
      "chainId": 0
    },
    {
      "hash": "0xb782b97acadf229d67d5c7b1761fe30053ba8cacec489504463ea0fbe82859fe",
      "blockHash": "0x97e21e946cb5e77767963d00aa7467a35b3960ab33e0359be2a7e263a1192e04",
      "blockNumber": 119492,
      "transactionIndex": 3,
      "confirmations": null,
      "from": "0x9ac4E9D48C027208905CF2A81f304664A5dAeF87",
      "gasPrice": {
        "_hex": "0xba43b7400"
      },
      "gasLimit": {
        "_hex": "0x5208"
      },
      "to": "0x32Be343B94f860124dC4fEe278FDCBD38C102D88",
      "value": {
        "_hex": "0x4e5bc52733a69400"
      },
      "nonce": 5,
      "data": "0x",
      "r": "0x407846161ec4b899aba9933dc347d0b0279f168f57f32b199696a24acbc5fb4e",
      "s": "0x69b91397c4488c5320dbd51d21fe084f3d3918eae39aa7dc35b5ee20d46c3a25",
      "v": 27,
      "creates": null,
      "raw": "0xf86c05850ba43b74008252089432be343b94f860124dc4fee278fdcbd38c102d88884e5bc52733a69400801ba0407846161ec4b899aba9933dc347d0b0279f168f57f32b199696a24acbc5fb4ea069b91397c4488c5320dbd51d21fe084f3d3918eae39aa7dc35b5ee20d46c3a25",
      "networkId": 0,
      "chainId": 0
    },
    {
      "hash": "0x2be9402b0103eb37061ba8c3bc67127039312d090c3d2148626f6cef924d8761",
      "blockHash": "0x97e21e946cb5e77767963d00aa7467a35b3960ab33e0359be2a7e263a1192e04",
      "blockNumber": 119492,
      "transactionIndex": 4,
      "confirmations": null,
      "from": "0xf5695Ae85aB4f83A5f859c4c691ce7CEf32b708B",
      "gasPrice": {
        "_hex": "0xba43b7400"
      },
      "gasLimit": {
        "_hex": "0x5208"
      },
      "to": "0x32Be343B94f860124dC4fEe278FDCBD38C102D88",
      "value": {
        "_hex": "0x1ff33cacf8f061000"
      },
      "nonce": 4,
      "data": "0x",
      "r": "0x83e454632ae9fd70f5f44a0b25118b636bfdb7e48f1e0eddda65f8bdbcc3e02a",
      "s": "0x7a19f64647bdd4926426b8851a8783198a1ae574773da09c186e6caba047b390",
      "v": 27,
      "creates": null,
      "raw": "0xf86d04850ba43b74008252089432be343b94f860124dc4fee278fdcbd38c102d888901ff33cacf8f061000801ba083e454632ae9fd70f5f44a0b25118b636bfdb7e48f1e0eddda65f8bdbcc3e02aa07a19f64647bdd4926426b8851a8783198a1ae574773da09c186e6caba047b390",
      "networkId": 0,
      "chainId": 0
    }
  ]
}