{
  "hash": "0x7b6785459c76b145dee5faac8b19c3680f5e32bc10ba7a9e5a45aac43237a024",
  "parentHash": "0xf0ece2c76007a392734d1616d237905175d4fbcbb7bfb2a3c9aaf7f40299e0a0",
  "number": 121741,
  "timestamp": 1440181769,
  "nonce": "0x2d80984889f7822f",
  "difficulty": 4486444834515,
  "gasLimit": {
    "_hex": "0x2fefd8"
  },
  "gasUsed": {
    "_hex": "0x23e38"
  },
  "miner": "0xf927a40C8B7F6E07c5af7FA2155B4864a4112B13",
  "extraData": "0xd783010100844765746887676f312e342e32856c696e7578",
  "transactions": [
    {
      "hash": "0xb07b2d617c639997d65073df1cae20160cd951d7bf6797a791b14b64c7e2f079",
      "blockHash": "0x7b6785459c76b145dee5faac8b19c3680f5e32bc10ba7a9e5a45aac43237a024",
      "blockNumber": 121741,
      "transactionIndex": 0,
      "confirmations": null,
      "from": "0x557C2806B6ceA65a66F415bb2Ed1ce897B340745",
      "gasPrice": {
        "_hex": "0xd6f4c7111"
      },
      "gasLimit": {
        "_hex": "0x5208"
      },
      "to": "0x32Be343B94f860124dC4fEe278FDCBD38C102D88",
      "value": {
        "_hex": "0x45634ca121afd8000"
      },
      "nonce": 16,
      "data": "0x",
      "r": "0x6603a690f8923e110fd1ff0fd5d453d534490a5133e6c026b6630ef96ea922dc",
      "s": "0x493af7a18020bcb235fbc588e0afa22ce4a3cbf239a84e2a41a2d1fe77a2af40",
      "v": 27,
      "creates": null,
      "raw": "0xf86d10850d6f4c71118252089432be343b94f860124dc4fee278fdcbd38c102d8889045634ca121afd8000801ba06603a690f8923e110fd1ff0fd5d453d534490a5133e6c026b6630ef96ea922dca0493af7a18020bcb235fbc588e0afa22ce4a3cbf239a84e2a41a2d1fe77a2af40",
      "networkId": 0,
      "chainId": 0
    },
    {
      "hash": "0x365095b3a154661beecfd84266c1ca37a0b0378fe64629ba97cc0b8ca2ddceb2",
      "blockHash": "0x7b6785459c76b145dee5faac8b19c3680f5e32bc10ba7a9e5a45aac43237a024",
      "blockNumber": 121741,
      "transactionIndex": 1,
      "confirmations": null,
      "from": "0xc517a1ceF7630dc7FeBd59e9f7fb80F56EaCB21E",
      "gasPrice": {
        "_hex": "0xd6f4c7111"
      },
      "gasLimit": {
        "_hex": "0x5208"
      },
      "to": "0x32Be343B94f860124dC4fEe278FDCBD38C102D88",
      "value": {
        "_hex": "0x243c5173d33b1a000"
      },
      "nonce": 5,
      "data": "0x",
      "r": "0xe528841ebe612e9337a388eaf8581a84c3cfec1786d21c0da85caa194ac63963",
      "s": "0x7b3d0fc5ef8766606becef4d22f61d54125680bc58ef251e8c4c5d9ad71340de",
      "v": 27,
      "creates": null,
      "raw": "0xf86d05850d6f4c71118252089432be343b94f860124dc4fee278fdcbd38c102d88890243c5173d33b1a000801ba0e528841ebe612e9337a388eaf8581a84c3cfec1786d21c0da85caa194ac63963a07b3d0fc5ef8766606becef4d22f61d54125680bc58ef251e8c4c5d9ad71340de",
      "networkId": 0,
      "chainId": 0
    },
    {
      "hash": "0x012c0670ab19abc3178c656d3e712072a21bd6e57c459310a62926d74e46d2ec",
      "blockHash": "0x7b6785459c76b145dee5faac8b19c3680f5e32bc10ba7a9e5a45aac43237a024",
      "blockNumber": 121741,
      "transactionIndex": 2,
      "confirmations": null,
      "from": "0x9b348D2bdf75e886B346cC967d890E5Ff93535B6",
      "gasPrice": {
        "_hex": "0xd6f4c7111"
      },
      "gasLimit": {
        "_hex": "0x5208"
      },
      "to": "0x32Be343B94f860124dC4fEe278FDCBD38C102D88",
      "value": {
        "_hex": "0x56756e1ce9f16400"
      },
      "nonce": 3,
      "data": "0x",
      "r": "0x20719d12984d0961dafab90bec556c443872a39898c49f4d812942b3cda5705a",
      "s": "0x03efb4bab2558cb76eecbff57a739d303090ef0b6a4f657f5bff7813d75312ac",
      "v": 27,
      "creates": null,
      "raw": "0xf86c03850d6f4c71118252089432be343b94f860124dc4fee278fdcbd38c102d888856756e1ce9f16400801ba020719d12984d0961dafab90bec556c443872a39898c49f4d812942b3cda5705aa003efb4bab2558cb76eecbff57a739d303090ef0b6a4f657f5bff7813d75312ac",
      "networkId": 0,
      "chainId": 0
    },
    {
      "hash": "0xc19f973c100fad208a984abd98dbbf6f180cbe54ee43b211847a4515c332fa39",
      "blockHash": "0x7b6785459c76b145dee5faac8b19c3680f5e32bc10ba7a9e5a45aac43237a024",
      "blockNumber": 121741,
      "transactionIndex": 3,
      "confirmations": null,
      "from": "0x2DE9681E4016C20A05e9D6fAf769c9e263B7cdb3",
      "gasPrice": {
        "_hex": "0xd6f4c7111"
      },
      "gasLimit": {
        "_hex": "0x5208"
      },
      "to": "0x32Be343B94f860124dC4fEe278FDCBD38C102D88",
      "value": {
        "_hex": "0x360ff8511f4dcc00"
      },
      "nonce": 2,
      "data": "0x",
      "r": "0x76697e5b097b2e37128853032a72299425dedc61e451dfffb48a15eff610a5a3",
      "s": "0x53e8d2b4da42eedcc87080b5d6cc2a17f46272e83e488a37fe2cdf6cb3b74cdf",
      "v": 28,
      "creates": null,
      "raw": "0xf86c02850d6f4c71118252089432be343b94f860124dc4fee278fdcbd38c102d8888360ff8511f4dcc00801ca076697e5b097b2e37128853032a72299425dedc61e451dfffb48a15eff610a5a3a053e8d2b4da42eedcc87080b5d6cc2a17f46272e83e488a37fe2cdf6cb3b74cdf",
      "networkId": 0,
      "chainId": 0
    },
    {
      "hash": "0xebebbff8cc506519902077bbeb9cea40e0028fd17348d4e784268ced21dd258f",
      "blockHash": "0x7b6785459c76b145dee5faac8b19c3680f5e32bc10ba7a9e5a45aac43237a024",
      "blockNumber": 121741,
      "transactionIndex": 4,
      "confirmations": null,
      "from": "0x3a4CC071e426cFFbA54C267391e401e820a5E472",
      "gasPrice": {
        "_hex": "0xd6f4c7111"
      },
      "gasLimit": {
        "_hex": "0x5208"
      },
      "to": "0x32Be343B94f860124dC4fEe278FDCBD38C102D88",
      "value": {
        "_hex": "0x12433b0ebdf752000"
      },
      "nonce": 3,
      "data": "0x",
      "r": "0x2ada51b98080e2f242003574c64970f79ad9e3c5f26d5f144a4ee92c269e28aa",
      "s": "0x215166c4b9a81672fd053c96138551bdca53c34b3b8abae52f069ca8f2d25c4e",
      "v": 27,
      "creates": null,
      "raw": "0xf86d03850d6f4c71118252089432be343b94f860124dc4fee278fdcbd38c102d8889012433b0ebdf752000801ba02ada51b98080e2f242003574c64970f79ad9e3c5f26d5f144a4ee92c269e28aaa0215166c4b9a81672fd053c96138551bdca53c34b3b8abae52f069ca8f2d25c4e",
      "networkId": 0,
      "chainId": 0
    },
    {
      "hash": "0xf006bc0f8a4dfb9119d7f05a7258bd07c4281194e61efc29834a27f6cd38b270",
      "blockHash": "0x7b6785459c76b145dee5faac8b19c3680f5e32bc10ba7a9e5a45aac43237a024",
      "blockNumber": 121741,
      "transactionIndex": 5,
      "confirmations": null,
      "from": "0x770E2DE60A56861F14ff290b17748CE8f576aa8f",
      "gasPrice": {
        "_hex": "0xd6f4c7111"
      },
      "gasLimit": {
        "_hex": "0x5208"
      },
      "to": "0x32Be343B94f860124dC4fEe278FDCBD38C102D88",
      "value": {
        "_hex": "0x12a542f6229c08000"
      },
      "nonce": 5,
      "data": "0x",
      "r": "0x93acf68023c76e9838361cb164a2191803670a376c6cc02eccf8d49491d233ad",
      "s": "0x4fb348a69223cc816f9312c4be5cb282f420411353915b1c6f533122e1fce69a",
      "v": 27,
      "creates": null,
      "raw": "0xf86d05850d6f4c71118252089432be343b94f860124dc4fee278fdcbd38c102d8889012a542f6229c08000801ba093acf68023c76e9838361cb164a2191803670a376c6cc02eccf8d49491d233ada04fb348a69223cc816f9312c4be5cb282f420411353915b1c6f533122e1fce69a",
      "networkId": 0,
      "chainId": 0
    },
    {
      "hash": "0xc41a3f2367539f6c2967c9a0faf5cd0676d05140aa5d767323fe3d8baf894ab9",
      "blockHash": "0x7b6785459c76b145dee5faac8b19c3680f5e32bc10ba7a9e5a45aac43237a024",
      "blockNumber": 121741,
      "transactionIndex": 6,
      "confirmations": null,
      "from": "0x974A55472732FA7D1EdD5737b0A881F41997Ae00",
      "gasPrice": {
        "_hex": "0xd6f4c7111"
      },
      "gasLimit": {
        "_hex": "0x5208"
      },
      "to": "0x32Be343B94f860124dC4fEe278FDCBD38C102D88",
      "value": {
        "_hex": "0x1a7e7b7af0550800"
      },
      "nonce": 4,
      "data": "0x",
      "r": "0xdff33c59b1c24bd138eefceb50ca3650d1f4a55a4ed021789abf8f540b6a5a55",
      "s": "0x717104f109fc8211f1ffa1e3f5d01f2d5cc3a42590f1edbdd4afdbe9780c9259",
      "v": 28,
      "creates": null,
      "raw": "0xf86c04850d6f4c71118252089432be343b94f860124dc4fee278fdcbd38c102d88881a7e7b7af0550800801ca0dff33c59b1c24bd138eefceb50ca3650d1f4a55a4ed021789abf8f540b6a5a55a0717104f109fc8211f1ffa1e3f5d01f2d5cc3a42590f1edbdd4afdbe9780c9259",
      "networkId": 0,
      "chainId": 0
    }
  ]
}