{
  "hash": "0xb196d20ef9c04a2b8fab54f33849facbfe69f84df604309c82c72af277a69998",
  "parentHash": "0xcc009831245ccd9890c2b5c160bfdb0fd8eb39af28f0c7626e21369b1450c1d1",
  "number": 98111,
  "timestamp": 1439767147,
  "nonce": "0x15467ffc1cce3c1b",
  "difficulty": 3886049624819,
  "gasLimit": {
    "_hex": "0x2fefd8"
  },
  "gasUsed": {
    "_hex": "0x5208"
  },
  "miner": "0x9746c7e1ef2bd21FF3997fa467593a89cb852BD0",
  "extraData": "0x476574682f76312e302e312f77696e646f77732f676f312e342e32",
  "transactions": [
    {
      "hash": "0xcefdce38d2dd43593e5af0d0e9e6fd604c950aaffc34b3501ab1db76ccaba565",
      "blockHash": "0xb196d20ef9c04a2b8fab54f33849facbfe69f84df604309c82c72af277a69998",
      "blockNumber": 98111,
      "transactionIndex": 0,
      "confirmations": null,
      "from": "0x120A270bbC009644e35F0bB6ab13f95b8199c4ad",
      "gasPrice": {
        "_hex": "0xdb3dbc1d7"
      },
      "gasLimit": {
        "_hex": "0x3d090"
      },
      "to": "0xef39804Fd2836Ef471E13ecFa2B91C42C368cE76",
      "value": {
        "_hex": "0xde0b6b3a7640000"
      },
      "nonce": 649,
      "data": "0x",
      "r": "0x71009cd068c442bdb165fae11db311faa0fd370955ba4e636480fc003c8ac39e",
      "s": "0x2837c88bf1348b7603c6e2f707b4262c491eba1c954c6a99d39e8cc3bd2f74c7",
      "v": 28,
      "creates": null,
      "raw": "0xf86f820289850db3dbc1d78303d09094ef39804fd2836ef471e13ecfa2b91c42c368ce76880de0b6b3a7640000801ca071009cd068c442bdb165fae11db311faa0fd370955ba4e636480fc003c8ac39ea02837c88bf1348b7603c6e2f707b4262c491eba1c954c6a99d39e8cc3bd2f74c7",
      "networkId": 0,
      "chainId": 0
    }
  ]
}