{
  "hash": "0x027b3a8288817ad01fddd82295f67a445d51997556b099916d7acf1e0b7fa36a",
  "parentHash": "0x4b77d1ef6d2ef48c0d16987d5e39d0ab55fd6df27856ce9c2ec39132b278c78b",
  "number": 89574,
  "timestamp": 1439625442,
  "nonce": "0x7be1f94cb348bba5",
  "difficulty": 3338690844777,
  "gasLimit": {
    "_hex": "0x2fefd8"
  },
  "gasUsed": {
    "_hex": "0x5208"
  },
  "miner": "0x6DE55b563cE6E319cCB403032Da3BE5Ad4ec4FcF",
  "extraData": "0x",
  "transactions": [
    {
      "hash": "0x51041d8767ec9509ee8a023ac4182bf149294c9bc22c6de8b94aebf4a021b3ce",
      "blockHash": "0x027b3a8288817ad01fddd82295f67a445d51997556b099916d7acf1e0b7fa36a",
      "blockNumber": 89574,
      "transactionIndex": 0,
      "confirmations": null,
      "from": "0x563b73aFFFD7381A4e96eC15E09af844df196545",
      "gasPrice": {
        "_hex": "0xd9f04465c"
      },
      "gasLimit": {
        "_hex": "0x5208"
      },
      "to": "0x32Be343B94f860124dC4fEe278FDCBD38C102D88",
      "value": {
        "_hex": "0x23661be76cabdc0000"
      },
      "nonce": 4,
      "data": "0x",
      "r": "0xd04517b2d3a7f2e7ee43f9f6d6c5aef74890638a77fbb125ae7dc9862a16ea21",
      "s": "0x47e6c450d15733393b1559e227af6fc05e406410d102ba3dd256a89ddf730f3e",
      "v": 28,
      "creates": null,
      "raw": "0xf86d04850d9f04465c8252089432be343b94f860124dc4fee278fdcbd38c102d888923661be76cabdc0000801ca0d04517b2d3a7f2e7ee43f9f6d6c5aef74890638a77fbb125ae7dc9862a16ea21a047e6c450d15733393b1559e227af6fc05e406410d102ba3dd256a89ddf730f3e",
      "networkId": 0,
      "chainId": 0
    }
  ]
}