{
  "hash": "0xfc7ee3f461ea2e76826072397d04cf4d5e0d483b0f456a0ba9a9f64dae9f0c48",
  "parentHash": "0x5e6420349f380e52bfafabdfcb8f47fae426c42a308f76baa3b1ea43db74f779",
  "number": 64981,
  "timestamp": 1439229438,
  "nonce": "0x25301b6e02dccd6f",
  "difficulty": 1910710727181,
  "gasLimit": {
    "_hex": "0x2fefd8"
  },
  "gasUsed": {
    "_hex": "0x17cd8"
  },
  "miner": "0x8B454d830feF179e66206840F8F3D1d83bC32b17",
  "extraData": "0x476574682f76312e302e312f77696e646f77732f676f312e342e32",
  "transactions": [
    {
      "hash": "0xe2a3bedae2ea58b8b87cb7de8489c8249edb80b3151859e0573cfdb374a4ef6d",
      "blockHash": "0xfc7ee3f461ea2e76826072397d04cf4d5e0d483b0f456a0ba9a9f64dae9f0c48",
      "blockNumber": 64981,
      "transactionIndex": 0,
      "confirmations": null,
      "from": "0xAeA19377dE256B89aBad1080340d280d7608Cedb",
      "gasPrice": {
        "_hex": "0xba43b7400"
      },
      "gasLimit": {
        "_hex": "0x15f90"
      },
      "to": "0x793AE8C1b1a160BFc07BFB0d04F85eab1A71F4f2",
      "value": {
        "_hex": "0x0"
      },
      "nonce": 0,
      "data": "0x3ba15036",
      "r": "0xa02ba74219cc54fd1c401c9ae928b4c0b75a8496d23103144f037d6f510cd2fb",
      "s": "0x63b11dbfa47ee4b5568e7bdf6683f94f4c68f3a6a3759aaa58597b838eed8b0b",
      "v": 28,
      "creates": null,
      "raw": "0xf86980850ba43b740083015f9094793ae8c1b1a160bfc07bfb0d04f85eab1a71f4f280843ba150361ca0a02ba74219cc54fd1c401c9ae928b4c0b75a8496d23103144f037d6f510cd2fba063b11dbfa47ee4b5568e7bdf6683f94f4c68f3a6a3759aaa58597b838eed8b0b",
      "networkId": 0,
      "chainId": 0
    },
    {
      "hash": "0x0c8ca01b45ff23e08383aabf468303eb8a162deb50a2fed6442e37ce49286846",
      "blockHash": "0xfc7ee3f461ea2e76826072397d04cf4d5e0d483b0f456a0ba9a9f64dae9f0c48",
      "blockNumber": 64981,
      "transactionIndex": 1,
      "confirmations": null,
      "from": "0x99B403fACa38461FC2E69f24e935654958287B06",
      "gasPrice": {
        "_hex": "0xba43b7400"
      },
      "gasLimit": {
        "_hex": "0x15f90"
      },
      "to": "0x793AE8C1b1a160BFc07BFB0d04F85eab1A71F4f2",
      "value": {
        "_hex": "0x0"
      },
      "nonce": 0,
      "data": "0x3ba15036",
      "r": "0xc834d5876b8eb3397c59ccd11331656fce777522741cc55d370890fcb940173b",
      "s": "0x0b1e5784c5c37a0167f99d2ecfb4e4ca0be3cb55959e1561c91973bc84a76ee9",
      "v": 28,
      "creates": null,
      "raw": "0xf86980850ba43b740083015f9094793ae8c1b1a160bfc07bfb0d04f85eab1a71f4f280843ba150361ca0c834d5876b8eb3397c59ccd11331656fce777522741cc55d370890fcb940173ba00b1e5784c5c37a0167f99d2ecfb4e4ca0be3cb55959e1561c91973bc84a76ee9",
      "networkId": 0,
      "chainId": 0
    }
  ]
}