{
  "hash": "0xa8e6412b45e95d21267714215ce52ff601bcca4fed616842135e19799bbccd53",
  "parentHash": "0x938cd389d4b1192d8c816dbd2de85906dd7f8d669803a3a097d8a70e0d7ff321",
  "number": 69707,
  "timestamp": 1439308415,
  "nonce": "0x0a5e0ba09e147384",
  "difficulty": 2093230947963,
  "gasLimit": {
    "_hex": "0x2fefd8"
  },
  "gasUsed": {
    "_hex": "0xa410"
  },
  "miner": "0x858079E02403b10748B71A02195b6608Abaf6b8f",
  "extraData": "0x476574682f76312e302e312f77696e646f77732f676f312e342e32",
  "transactions": [
    {
      "hash": "0x657d901f84ceb9225e9d1b23bd1e5933225a06fbc0b01aa89aa230325c820ee2",
      "blockHash": "0xa8e6412b45e95d21267714215ce52ff601bcca4fed616842135e19799bbccd53",
      "blockNumber": 69707,
      "transactionIndex": 0,
      "confirmations": null,
      "from": "0x2910543Af39abA0Cd09dBb2D50200b3E800A63D2",
      "gasPrice": {
        "_hex": "0xdfe7c61a2"
      },
      "gasLimit": {
        "_hex": "0x5208"
      },
      "to": "0x7A3F5314eFB62CDe77750d52dD2bf12eF74a5D2a",
      "value": {
        "_hex": "0x192e19163e5caf08000"
      },
      "nonce": 227,
      "data": "0x",
      "r": "0x886d71d1f5b417d785444f1b456f223b403479d88bce5dcc92121528766ca400",
      "s": "0x42cc4678ad7226c1e3c7b0a267474fa550fe73125589531588c08a8062b2cd93",
      "v": 27,
      "creates": null,
      "raw": "0xf86f81e3850dfe7c61a2825208947a3f5314efb62cde77750d52dd2bf12ef74a5d2a8a0192e19163e5caf08000801ba0886d71d1f5b417d785444f1b456f223b403479d88bce5dcc92121528766ca400a042cc4678ad7226c1e3c7b0a267474fa550fe73125589531588c08a8062b2cd93",
      "networkId": 0,
      "chainId": 0
    },
    {
      "hash": "0x5b6bb6c60aeadfd5b47b78e5b4f8d1d62ced5f447bf180cb6d7189e126ba9c13",
      "blockHash": "0xa8e6412b45e95d21267714215ce52ff601bcca4fed616842135e19799bbccd53",
      "blockNumber": 69707,
      "transactionIndex": 1,
      "confirmations": null,
      "from": "0x249502491a53b217181420Cc4A6dE23a720636CA",
      "gasPrice": {
        "_hex": "0xcd216ab08"
      },
      "gasLimit": {
        "_hex": "0x5208"
      },
      "to": "0x32Be343B94f860124dC4fEe278FDCBD38C102D88",
      "value": {
        "_hex": "0x3635c59ce22ed20000"
      },
      "nonce": 4,
      "data": "0x",
      "r": "0xc837b6f8de1cf2a144bd9371b9d34a4dd8feed7b339e8ce98168fd3afdcf5f6e",
      "s": "0x30f59beaca540a59c27a00bfcf96f4e2f59d508a80e14596b5d202f4ab13070c",
      "v": 28,
      "creates": null,
      "raw": "0xf86d04850cd216ab088252089432be343b94f860124dc4fee278fdcbd38c102d88893635c59ce22ed20000801ca0c837b6f8de1cf2a144bd9371b9d34a4dd8feed7b339e8ce98168fd3afdcf5f6ea030f59beaca540a59c27a00bfcf96f4e2f59d508a80e14596b5d202f4ab13070c",
      "networkId": 0,
      "chainId": 0
    }
  ]
}