{
  "hash": "0x26299579786cbbc31f0a988327ce1b36462d2e1df50551e4946b7d1badd2def7",
  "parentHash": "0x96db8b7065b8f6ef7a4d6d9165501884021f99392c04c9e06565346aad08043f",
  "number": 64267,
  "timestamp": 1439217919,
  "nonce": "0x3a2cab47caf11811",
  "difficulty": 1879411757529,
  "gasLimit": {
    "_hex": "0x2fefd8"
  },
  "gasUsed": {
    "_hex": "0x2f4d60"
  },
  "miner": "0x39A1BB80a741bF5EC39FB9BE59408Fa0F418fFBf",
  "extraData": "0x476574682f76312e302e312f77696e646f77732f676f312e342e32",
  "transactions": [
    {
      "hash": "0x411b7db5598fa7f9f0ff2c4c3aa6521026acbd48b24d5c0642fb7e915a8f72e5",
      "blockHash": "0x26299579786cbbc31f0a988327ce1b36462d2e1df50551e4946b7d1badd2def7",
      "blockNumber": 64267,
      "transactionIndex": 0,
      "confirmations": null,
      "from": "0x8674c218F0351a62C3BA78C34FD2182A93Da94E2",
      "gasPrice": {
        "_hex": "0xba43b7400"
      },
      "gasLimit": {
        "_hex": "0x2f4d60"
      },
      "to": "0x09d7d329a642EF73402360B9A1039BF6BC342c02",
      "value": {
        "_hex": "0x0"
      },
      "nonce": 66,
      "data": "0xd50495f40000000000000000000000000000000000000000000000000000000000000020000000000000000000000000000000000000000000000000000000000000000668656c6c6f210000000000000000000000000000000000000000000000000000",
      "r": "0x87a8f5ce3879b79230688b716c86e6659a6e047e3644c7d9de40cbe597a1f8fb",
      "s": "0x367d7f646fba066a2d5b1f75a3f2f8c8c22820cfbebd9928573e17b618dc035e",
      "v": 27,
      "creates": null,
      "raw": "0xf8ca42850ba43b7400832f4d609409d7d329a642ef73402360b9a1039bf6bc342c0280b864d50495f40000000000000000000000000000000000000000000000000000000000000020000000000000000000000000000000000000000000000000000000000000000668656c6c6f2100000000000000000000000000000000000000000000000000001ba087a8f5ce3879b79230688b716c86e6659a6e047e3644c7d9de40cbe597a1f8fba0367d7f646fba066a2d5b1f75a3f2f8c8c22820cfbebd9928573e17b618dc035e",
      "networkId": 0,
      "chainId": 0
    }
  ]
}