{
  "hash": "0xa58afff5d0a3f3be5746f70e439bcd90e08587929c4251be1d8f12ac01b795b3",
  "parentHash": "0x561553b1e01b9677d9ba7f4a4ff48a7cdddcbaa14d81e62508d86d75d545f06f",
  "number": 100896,
  "timestamp": 1439814184,
  "nonce": "0x00f97e11f6e8f195",
  "difficulty": 3867725435638,
  "gasLimit": {
    "_hex": "0x2fefd8"
  },
  "gasUsed": {
    "_hex": "0x5208"
  },
  "miner": "0x007f7f58D3eb5b7510A301eCC749FC1fCDDBE14D",
  "extraData": "0x476574682f76312e302e312f77696e646f77732f676f312e342e32",
  "transactions": [
    {
      "hash": "0xf623fb56830c104aded2190cdaf414757d2c0b4fa90bea912cabb417819e4d8f",
      "blockHash": "0xa58afff5d0a3f3be5746f70e439bcd90e08587929c4251be1d8f12ac01b795b3",
      "blockNumber": 100896,
      "transactionIndex": 0,
      "confirmations": null,
      "from": "0x007f7f58D3eb5b7510A301eCC749FC1fCDDBE14D",
      "gasPrice": {
        "_hex": "0xe0cfe7246"
      },
      "gasLimit": {
        "_hex": "0x15f90"
      },
      "to": "0xb1abce2918E21ddb93AA452731a12672A3d9F75a",
      "value": {
        "_hex": "0x4563918244f40000"
      },
      "nonce": 173,
      "data": "0x",
      "r": "0xf3067813cc9e3fc18bb45fea3aa4a9956ab6baaa4feb8963c84fdd73fe11a9a9",
      "s": "0x5b95e603a897ab00635655a9d376348aa36e7a298623019435f0d276977e068f",
      "v": 28,
      "creates": null,
      "raw": "0xf86e81ad850e0cfe724683015f9094b1abce2918e21ddb93aa452731a12672a3d9f75a884563918244f40000801ca0f3067813cc9e3fc18bb45fea3aa4a9956ab6baaa4feb8963c84fdd73fe11a9a9a05b95e603a897ab00635655a9d376348aa36e7a298623019435f0d276977e068f",
      "networkId": 0,
      "chainId": 0
    }
  ]
}