{
  "hash": "0x3e21e13bd2ff0574582dc6f8e5b5791e1d36e24b6c93b7470c610e09e376557f",
  "parentHash": "0xfdebf09caa92a0aa274e6b283283052bbc41f308798678b9f5b584ac74452107",
  "number": 92405,
  "timestamp": 1439671466,
  "nonce": "0x9560d14fe1937881",
  "difficulty": 3516574575521,
  "gasLimit": {
    "_hex": "0x2fefd8"
  },
  "gasUsed": {
    "_hex": "0x520c"
  },
  "miner": "0x4D52F282d1B4Ca07065FA433f90BDbb3b7c2928F",
  "extraData": "0x476574682f76312e302e312f77696e646f77732f676f312e342e32",
  "transactions": [
    {
      "hash": "0xe0c3d41e495f41c64eb5ef912ad83956751aa8bbd0863af272a7d523b1e198f7",
      "blockHash": "0x3e21e13bd2ff0574582dc6f8e5b5791e1d36e24b6c93b7470c610e09e376557f",
      "blockNumber": 92405,
      "transactionIndex": 0,
      "confirmations": null,
      "from": "0x8375eA550366a24550ec93283600485F4Ba8CFE5",
      "gasPrice": {
        "_hex": "0xdf8475800"
      },
      "gasLimit": {
        "_hex": "0x7530"
      },
      "to": "0xb9836ec1f42Bd48331bceaedb74a6Bcdc22832bD",
      "value": {
        "_hex": "0x38d7ea4c68000"
      },
      "nonce": 2,
      "data": "0x00",
      "r": "0xa12c2c8bcdac5a35e8e6d8d8d15694e4ed387ecc4da2453dca08271acdad7ed4",
      "s": "0xde0163c6899937e1cd4e9b792f5255db75278a704337fd659a078c117a4874bf",
      "v": 27,
      "creates": null,
      "raw": "0xf86b02850df847580082753094b9836ec1f42bd48331bceaedb74a6bcdc22832bd87038d7ea4c68000001ba0a12c2c8bcdac5a35e8e6d8d8d15694e4ed387ecc4da2453dca08271acdad7ed4a0de0163c6899937e1cd4e9b792f5255db75278a704337fd659a078c117a4874bf",
      "networkId": 0,
      "chainId": 0
    }
  ]
}