{
  "hash": "0x5b5ec1ae2d4a0a3e3790fd7c8031bb79cf6dfc72f9c763617d4d89769f9f694e",
  "parentHash": "0xac133730f6f14b8342c6971bf75fe9cdb73d520100f7ac59c14cde73d0dc7e43",
  "number": 64635,
  "timestamp": 1439223932,
  "nonce": "0x743211966cc3ae27",
  "difficulty": 1888528164619,
  "gasLimit": {
    "_hex": "0x2fefd8"
  },
  "gasUsed": {
    "_hex": "0x5208"
  },
  "miner": "0xC49418429e58989172a4ACE0bab0cB8D3F00F97f",
  "extraData": "0x476574682f76312e302e312f6c696e75782f676f312e342e32",
  "transactions": [
    {
      "hash": "0x7670cf68f703d0845b6e7ac058c55569223293970cb0ad347074448c00c95589",
      "blockHash": "0x5b5ec1ae2d4a0a3e3790fd7c8031bb79cf6dfc72f9c763617d4d89769f9f694e",
      "blockNumber": 64635,
      "transactionIndex": 0,
      "confirmations": null,
      "from": "0xB6AC12CefF0375Da80503AcCa54bf3061Fa917a8",
      "gasPrice": {
        "_hex": "0xdba51c0db"
      },
      "gasLimit": {
        "_hex": "0x15f90"
      },
      "to": "0x5fF827e73C5B866c300b824fe12719a3DD350513",
      "value": {
        "_hex": "0x8963dd8c2c5e0000"
      },
      "nonce": 11,
      "data": "0x",
      "r": "0x49741ca1bc303f90af2a1c2520d9a63e2b91a1b0799aad9d0ebbcc24acf02f18",
      "s": "0x25df4c1b26edfabb4e35565ac30484e4448583ee71a0c7e363dbe1e55f2d2669",
      "v": 27,
      "creates": null,
      "raw": "0xf86d0b850dba51c0db83015f90945ff827e73c5b866c300b824fe12719a3dd350513888963dd8c2c5e0000801ba049741ca1bc303f90af2a1c2520d9a63e2b91a1b0799aad9d0ebbcc24acf02f18a025df4c1b26edfabb4e35565ac30484e4448583ee71a0c7e363dbe1e55f2d2669",
      "networkId": 0,
      "chainId": 0
    }
  ]
}