{
  "hash": "0x344be3a94494687eff4164f5823cb964c8f0a0005ab953562255dbbe79b78e62",
  "parentHash": "0x3eca9e4d423c41eb865cb2d7a5a68f220da389ff4807ecf1be1b7ade5b8cb733",
  "number": 60291,
  "timestamp": 1439152930,
  "nonce": "0x2e39bc83422f51d5",
  "difficulty": 1745802007613,
  "gasLimit": {
    "_hex": "0x2fefd8"
  },
  "gasUsed": {
    "_hex": "0x5208"
  },
  "miner": "0xeB1325C8D9d3ea8D74aC11F4B00F1B2367686319",
  "extraData": "0x476574682f76312e302e312f77696e646f77732f676f312e342e32",
  "transactions": [
    {
      "hash": "0xb6d0da201b62f9d635809ea3858248c9114aca9b3dbe53be6ecf0361f0c73c59",
      "blockHash": "0x344be3a94494687eff4164f5823cb964c8f0a0005ab953562255dbbe79b78e62",
      "blockNumber": 60291,
      "transactionIndex": 0,
      "confirmations": null,
      "from": "0x2910543Af39abA0Cd09dBb2D50200b3E800A63D2",
      "gasPrice": {
        "_hex": "0xd5474914e"
      },
      "gasLimit": {
        "_hex": "0x5208"
      },
      "to": "0x15eC455c1446538CaA87b185CEa4A0c7A537c56F",
      "value": {
        "_hex": "0x3635b7ea4ca6bf8000"
      },
      "nonce": 15,
      "data": "0x",
      "r": "0x6a2fc8f5bc2135df87ffe6ece0804dee5818ea273c6ed1c105245398413aa69f",
      "s": "0x5ce511cdc9f3be7351453e0b5a5b287c960cc42b49b25f875430f9880d3f536f",
      "v": 28,
      "creates": null,
      "raw": "0xf86d0f850d5474914e8252089415ec455c1446538caa87b185cea4a0c7a537c56f893635b7ea4ca6bf8000801ca06a2fc8f5bc2135df87ffe6ece0804dee5818ea273c6ed1c105245398413aa69fa05ce511cdc9f3be7351453e0b5a5b287c960cc42b49b25f875430f9880d3f536f",
      "networkId": 0,
      "chainId": 0
    }
  ]
}