{
  "hash": "0x61f01e71752ce9a23a819432c00fe5ddf99a90e192466906ab24642dea39423c",
  "parentHash": "0x71e7b9cd64980735b9ef2717cb979f840d32a9f13ac1591dbec724587b173752",
  "number": 77422,
  "timestamp": 1439436949,
  "nonce": "0xeb60d57cd40d6d72",
  "difficulty": 2235988958341,
  "gasLimit": {
    "_hex": "0x2fefd8"
  },
  "gasUsed": {
    "_hex": "0xafa7"
  },
  "miner": "0xbb7B8287f3F0a933474a79eAe42CBCa977791171",
  "extraData": "0x476574682f4c5649562f76312e302e312f6c696e75782f676f312e342e32",
  "transactions": [
    {
      "hash": "0xdae79481ad2e4e9be65b27a835c3701ec65af337434e76d9afaddf77c5c66add",
      "blockHash": "0x61f01e71752ce9a23a819432c00fe5ddf99a90e192466906ab24642dea39423c",
      "blockNumber": 77422,
      "transactionIndex": 0,
      "confirmations": null,
      "from": "0xC3fe64D1af00F0d9c324E4387EF7533f7D788e95",
      "gasPrice": {
        "_hex": "0xde95159a8"
      },
      "gasLimit": {
        "_hex": "0x5208"
      },
      "to": "0x32Be343B94f860124dC4fEe278FDCBD38C102D88",
      "value": {
        "_hex": "0x47dea58b7aaf6000"
      },
      "nonce": 8,
      "data": "0x",
      "r": "0x7c2ab9ad724e02bb50e5f0fea41818d932aa0cb4654b1ba8bf2cfbcc090c3341",
      "s": "0x77b724772d7d5631e231918f1e9d393c9eb8367db9d5b797a1046374b728e1ea",
      "v": 27,
      "creates": null,
      "raw": "0xf86c08850de95159a88252089432be343b94f860124dc4fee278fdcbd38c102d888847dea58b7aaf6000801ba07c2ab9ad724e02bb50e5f0fea41818d932aa0cb4654b1ba8bf2cfbcc090c3341a077b724772d7d5631e231918f1e9d393c9eb8367db9d5b797a1046374b728e1ea",
      "networkId": 0,
      "chainId": 0
    },
    {
      "hash": "0x5712925367b85fad9b421e7396ce67d46d16f0eb9eb95722cd8acca3f80d9248",
      "blockHash": "0x61f01e71752ce9a23a819432c00fe5ddf99a90e192466906ab24642dea39423c",
      "blockNumber": 77422,
      "transactionIndex": 1,
      "confirmations": null,
      "from": "0x770d98d31b4353FceEE8560c4CCf803e88C0c4e0",
      "gasPrice": {
        "_hex": "0xce9e71f8a"
      },
      "gasLimit": {
        "_hex": "0x15f90"
      },
      "to": "0xCAc7000C7dBaa2E33Af15325AF5D435E011C7BdD",
      "value": {
        "_hex": "0x11c37937e08000"
      },
      "nonce": 14,
      "data": "0xb214faa54131313131313131410000000000000000000000000000000000000000000000",
      "r": "0x6dee2a77636b79c03816ff7adb331e11050d621801d5bb26fea9e4cd5ef8e35d",
      "s": "0x2147dba9b7e05c82a5da773564c7117894f086ee28c4527381117a56c19213f4",
      "v": 27,
      "creates": null,
      "raw": "0xf8900e850ce9e71f8a83015f9094cac7000c7dbaa2e33af15325af5d435e011c7bdd8711c37937e08000a4b214faa541313131313131314100000000000000000000000000000000000000000000001ba06dee2a77636b79c03816ff7adb331e11050d621801d5bb26fea9e4cd5ef8e35da02147dba9b7e05c82a5da773564c7117894f086ee28c4527381117a56c19213f4",
      "networkId": 0,
      "chainId": 0
    }
  ]
}