{
  "hash": "0xf49dce52d2b92e949d18fa4f76f82c8f16994e956d60c4725068effa85569265",
  "parentHash": "0x2f32915739b4ba0e80b1dc507682cc81fe3ebed12733d37954cd2298a9ec1d99",
  "number": 70528,
  "timestamp": 1439321122,
  "nonce": "0x9b2317fac447b602",
  "difficulty": 2145801742537,
  "gasLimit": {
    "_hex": "0x2fefd8"
  },
  "gasUsed": {
    "_hex": "0x5208"
  },
  "miner": "0x6DE55b563cE6E319cCB403032Da3BE5Ad4ec4FcF",
  "extraData": "0x",
  "transactions": [
    {
      "hash": "0x9d366b25ba747a105fefcf8769c6dcad6f41362a2902c6ad6a692925503140b8",
      "blockHash": "0xf49dce52d2b92e949d18fa4f76f82c8f16994e956d60c4725068effa85569265",
      "blockNumber": 70528,
      "transactionIndex": 0,
      "confirmations": null,
      "from": "0xad7210d76107F888745616FFF7979623b84F928c",
      "gasPrice": {
        "_hex": "0xd7d40ace3"
      },
      "gasLimit": {
        "_hex": "0x61a8"
      },
      "to": "0xF109ca710C0Df51c1a86dBA1B0BA0Ed038114463",
      "value": {
        "_hex": "0x682c44890376f858"
      },
      "nonce": 6,
      "data": "0x",
      "r": "0x3c2534c1650c86edb3971e37293eab65ec383c056aa99a8a5f2a195ca64c0a1f",
      "s": "0x4f33d8102e65fbbb0d1eb1808294459f03e557855e836310ee890366f722855b",
      "v": 28,
      "creates": null,
      "raw": "0xf86c06850d7d40ace38261a894f109ca710c0df51c1a86dba1b0ba0ed03811446388682c44890376f858801ca03c2534c1650c86edb3971e37293eab65ec383c056aa99a8a5f2a195ca64c0a1fa04f33d8102e65fbbb0d1eb1808294459f03e557855e836310ee890366f722855b",
      "networkId": 0,
      "chainId": 0
    }
  ]
}