{
  "hash": "0x503a9800aa8710aee266676e5da1b0a9344759b3c4436501464f1e5ec84cc986",
  "parentHash": "0xcf6470a3af779f23a648065e16c610a2bd17c2c6950df7aa601ecd67a370cbc1",
  "number": 69804,
  "timestamp": 1439309910,
  "nonce": "0x888c5c0123912b4e",
  "difficulty": 2098323355191,
  "gasLimit": {
    "_hex": "0x2fefd8"
  },
  "gasUsed": {
    "_hex": "0xf618"
  },
  "miner": "0x580992B51e3925e23280EfB93d3047C82f17E038",
  "extraData": "0x476574682f76312e302e312f6c696e75782f676f312e342e32",
  "transactions": [
    {
      "hash": "0x54cc86635d4d0cfce1e73629e6b1e26d56ec4c118b8124ac9df60957487868e7",
      "blockHash": "0x503a9800aa8710aee266676e5da1b0a9344759b3c4436501464f1e5ec84cc986",
      "blockNumber": 69804,
      "transactionIndex": 0,
      "confirmations": null,
      "from": "0x99425213944D7885b88Ec9D20D974B7Ac89D62E2",
      "gasPrice": {
        "_hex": "0xdf857bdb6"
      },
      "gasLimit": {
        "_hex": "0x5208"
      },
      "to": "0x32Be343B94f860124dC4fEe278FDCBD38C102D88",
      "value": {
        "_hex": "0x410d10ca6c5c98000"
      },
      "nonce": 4,
      "data": "0x",
      "r": "0xdbbb4087c3e65438672256e4b2da99efb4b0f58f47f9675fad400c6add4d2e20",
      "s": "0x47696b8b464c97f7556c76185ae5f3176a5ea65c2a4c74ab89926308286c7f75",
      "v": 27,
      "creates": null,
      "raw": "0xf86d04850df857bdb68252089432be343b94f860124dc4fee278fdcbd38c102d88890410d10ca6c5c98000801ba0dbbb4087c3e65438672256e4b2da99efb4b0f58f47f9675fad400c6add4d2e20a047696b8b464c97f7556c76185ae5f3176a5ea65c2a4c74ab89926308286c7f75",
      "networkId": 0,
      "chainId": 0
    },
    {
      "hash": "0xcfaed759e28e0b0fe93748288260787858993e46a7fa87e67adc10c09f6ac563",
      "blockHash": "0x503a9800aa8710aee266676e5da1b0a9344759b3c4436501464f1e5ec84cc986",
      "blockNumber": 69804,
      "transactionIndex": 1,
      "confirmations": null,
      "from": "0xc0b9d23f8d37650D0141B559dbD33d94Ea004e07",
      "gasPrice": {
        "_hex": "0xdf857bdb6"
      },
      "gasLimit": {
        "_hex": "0x5208"
      },
      "to": "0x32Be343B94f860124dC4fEe278FDCBD38C102D88",
      "value": {
        "_hex": "0x133e98eac5344e0000"
      },
      "nonce": 5,
      "data": "0x",
      "r": "0x024a38372f0ecf102731b8c8b635a16489892c5d146637941fc70c25bf6413e2",
      "s": "0x346bb4e54c047858c4be846cb9c602b9b8ad3763c6b31c31dff379882163f84c",
      "v": 28,
      "creates": null,
      "raw": "0xf86d05850df857bdb68252089432be343b94f860124dc4fee278fdcbd38c102d8889133e98eac5344e0000801ca0024a38372f0ecf102731b8c8b635a16489892c5d146637941fc70c25bf6413e2a0346bb4e54c047858c4be846cb9c602b9b8ad3763c6b31c31dff379882163f84c",
      "networkId": 0,
      "chainId": 0
    },
    {
      "hash": "0xe4056e3d7476accfc40bf2fc2d5f7a9cc0655a11b1e11943cd0bf4bfc677c703",
      "blockHash": "0x503a9800aa8710aee266676e5da1b0a9344759b3c4436501464f1e5ec84cc986",
      "blockNumber": 69804,
      "transactionIndex": 2,
      "confirmations": null,
      "from": "0x96D9CcA8F55eea0040ec6EB348a1774b95d93eF4",
      "gasPrice": {
        "_hex": "0xd7d40ace3"
      },
      "gasLimit": {
        "_hex": "0x15f90"
      },
      "to": "0xAb375C1F0F01d6eB03790Fd7200132a2FC7E1a1A",
      "value": {
        "_hex": "0xde0b6b3a7640000"
      },
      "nonce": 0,
      "data": "0x",
      "r": "0x152ee9fdf4e6e50b5146b288089cd4eb4a8235f135276f47c67c02e4a4771d77",
      "s": "0x0cbd9f71eea063eea4d910bc24ca569ebe4b42e72075a1c9b62a5cc41197f957",
      "v": 28,
      "creates": null,
      "raw": "0xf86d80850d7d40ace383015f9094ab375c1f0f01d6eb03790fd7200132a2fc7e1a1a880de0b6b3a7640000801ca0152ee9fdf4e6e50b5146b288089cd4eb4a8235f135276f47c67c02e4a4771d77a00cbd9f71eea063eea4d910bc24ca569ebe4b42e72075a1c9b62a5cc41197f957",
      "networkId": 0,
      "chainId": 0
    }
  ]
}