{
  "hash": "0x780294b4ccb24887453ca8321cbc08af89e3fce2ef8347b9cb2c4df97ddde386",
  "parentHash": "0xaa35dd6a0b395dcdae8958443ab40ae8dbb622326c02f9dbc71144a8c0378239",
  "number": 92464,
  "timestamp": 1439672483,
  "nonce": "0x6a15bc3fcacc39f9",
  "difficulty": 3518267327069,
  "gasLimit": {
    "_hex": "0x2fefd8"
  },
  "gasUsed": {
    "_hex": "0x5208"
  },
  "miner": "0xE4C6175183029A0f039bf2DFffa5C6e8F3cA9B23",
  "extraData": "0x",
  "transactions": [
    {
      "hash": "0x219f46271e444672bc49994360628c61b7fd60d978541ab19ecbd6d2cead5c9c",
      "blockHash": "0x780294b4ccb24887453ca8321cbc08af89e3fce2ef8347b9cb2c4df97ddde386",
      "blockNumber": 92464,
      "transactionIndex": 0,
      "confirmations": null,
      "from": "0x355F44E5dEE45414dd2502D1Abf99AA641f8D4d2",
      "gasPrice": {
        "_hex": "0xdf8475800"
      },
      "gasLimit": {
        "_hex": "0x5208"
      },
      "to": "0x2a869cE3f74335f5BdEFfB9f3A30D3887721060F",
      "value": {
        "_hex": "0x2d872c60f12df8600000"
      },
      "nonce": 0,
      "data": "0x",
      "r": "0x3e821930aad1b4945f9c7d90e31032f0cd0b4eb93a81f672db90f3c6d6089f50",
      "s": "0x6b8fa7f3a2bc56fe55e4ceeafc7841c75525fe02c59e9142ac98595af35c5beb",
      "v": 27,
      "creates": null,
      "raw": "0xf86e80850df8475800825208942a869ce3f74335f5bdeffb9f3a30d3887721060f8a2d872c60f12df8600000801ba03e821930aad1b4945f9c7d90e31032f0cd0b4eb93a81f672db90f3c6d6089f50a06b8fa7f3a2bc56fe55e4ceeafc7841c75525fe02c59e9142ac98595af35c5beb",
      "networkId": 0,
      "chainId": 0
    }
  ]
}