{
  "hash": "0x0523d98680b302a924b422bb2879e794d8398554be600960898d600e1b8884e2",
  "parentHash": "0x41d8649fd5ddfc8c75bb53517a45f8ff913896b7bd2544ca7dfe6c1e62844bb8",
  "number": 95383,
  "timestamp": 1439723425,
  "nonce": "0xa8eec6dfbd7e30bd",
  "difficulty": 3567199439486,
  "gasLimit": {
    "_hex": "0x2fefd8"
  },
  "gasUsed": {
    "_hex": "0xf618"
  },
  "miner": "0x88D74a59454F6cF3B51ef6b9136AFb6b9D405A88",
  "extraData": "0x476574682f76312e302e312d37666266393930632f6c696e75782f676f312e34",
  "transactions": [
    {
      "hash": "0x426b403d447a7df509a14fecc1d87a8d8497f261c8fe2df61cea9195874eaa87",
      "blockHash": "0x0523d98680b302a924b422bb2879e794d8398554be600960898d600e1b8884e2",
      "blockNumber": 95383,
      "transactionIndex": 0,
      "confirmations": null,
      "from": "0xeF76c144553e10420Aa7FA2c205Db698AF95bed3",
      "gasPrice": {
        "_hex": "0xdda2e5897"
      },
      "gasLimit": {
        "_hex": "0x5208"
      },
      "to": "0x32Be343B94f860124dC4fEe278FDCBD38C102D88",
      "value": {
        "_hex": "0x11589d5b678a15000"
      },
      "nonce": 4,
      "data": "0x",
      "r": "0x792e787aa05c52f22ef65f07ef7831b5e1746a7da96ef60fdaa6f1e03c2e8374",
      "s": "0x7a065eacd5067c282c4620ef348945cf473b8422b01863c99a0c1236e4627875",
      "v": 28,
      "creates": null,
      "raw": "0xf86d04850dda2e58978252089432be343b94f860124dc4fee278fdcbd38c102d8889011589d5b678a15000801ca0792e787aa05c52f22ef65f07ef7831b5e1746a7da96ef60fdaa6f1e03c2e8374a07a065eacd5067c282c4620ef348945cf473b8422b01863c99a0c1236e4627875",
      "networkId": 0,
      "chainId": 0
    },
    {
      "hash": "0x073fb25ce65f0da0d734980d73e817e628a850cbcdf01419d9264380a1c53b4e",
      "blockHash": "0x0523d98680b302a924b422bb2879e794d8398554be600960898d600e1b8884e2",
      "blockNumber": 95383,
      "transactionIndex": 1,
      "confirmations": null,
      "from": "0x007f7f58D3eb5b7510A301eCC749FC1fCDDBE14D",
      "gasPrice": {
        "_hex": "0xcc8ddf695"
      },
      "gasLimit": {
        "_hex": "0x15f90"
      },
      "to": "0xb1abce2918E21ddb93AA452731a12672A3d9F75a",
      "value": {
        "_hex": "0x4563918244f40000"
      },
      "nonce": 56,
      "data": "0x",
      "r": "0xe473503ba2ea77a13f5e30eb717676384eafde5f05e07fa7b52f717f529f5aff",
      "s": "0x59fa6ab37dc460bb9cddf171bd87bf47255c23bafe83849f493c3a7e4af87753",
      "v": 27,
      "creates": null,
      "raw": "0xf86d38850cc8ddf69583015f9094b1abce2918e21ddb93aa452731a12672a3d9f75a884563918244f40000801ba0e473503ba2ea77a13f5e30eb717676384eafde5f05e07fa7b52f717f529f5affa059fa6ab37dc460bb9cddf171bd87bf47255c23bafe83849f493c3a7e4af87753",
      "networkId": 0,
      "chainId": 0
    },
    {
      "hash": "0x0c64d0b68f2fc45696eda70db6e69da2dd9ba40046223e677684e5562c37aca0",
      "blockHash": "0x0523d98680b302a924b422bb2879e794d8398554be600960898d600e1b8884e2",
      "blockNumber": 95383,
      "transactionIndex": 2,
      "confirmations": null,
      "from": "0xD58c3AfB06F28bE4dc3e3bc8573eDe1D73773458",
      "gasPrice": {
        "_hex": "0xba43b7400"
      },
      "gasLimit": {
        "_hex": "0x5208"
      },
      "to": "0xC47Aaa860008be6f65B58c6C6E02a84e666EfE31",
      "value": {
        "_hex": "0x1b1acf58718a6b91e0"
      },
      "nonce": 3,
      "data": "0x",
      "r": "0x43694769c2124cd72f7d92759fc901abcf6fecaf5410e9be83360af0d2048459",
      "s": "0x0141c7a2fd51c8293e7511864da0ad128d06d3915f558de2ea17a2279a1e6862",
      "v": 27,
      "creates": null,
      "raw": "0xf86d03850ba43b740082520894c47aaa860008be6f65b58c6c6e02a84e666efe31891b1acf58718a6b91e0801ba043694769c2124cd72f7d92759fc901abcf6fecaf5410e9be83360af0d2048459a00141c7a2fd51c8293e7511864da0ad128d06d3915f558de2ea17a2279a1e6862",
      "networkId": 0,
      "chainId": 0
    }
  ]
}