{
  "hash": "0x1adfc2ae9bdcb41895d629fba3eaef7f0edcaa4dbbe17348c588f7469b711954",
  "parentHash": "0x183d7de029f96f2c5c0bf5be9e8da15eeba0f4fe1059934ef4fe77d3cba24e03",
  "number": 69009,
  "timestamp": 1439297063,
  "nonce": "0x38bae0a23c47f63f",
  "difficulty": 2036939092766,
  "gasLimit": {
    "_hex": "0x2fefd8"
  },
  "gasUsed": {
    "_hex": "0x14820"
  },
  "miner": "0xe6A7a1d47ff21B6321162AEA7C6CB457D5476Bca",
  "extraData": "0x476574682f76312e302e312d38326566323666362f6c696e75782f676f312e34",
  "transactions": [
    {
      "hash": "0x6d3aeb86c635b0e740108ccfeee50fb16b0bdeda426c6b15e74746049be28634",
      "blockHash": "0x1adfc2ae9bdcb41895d629fba3eaef7f0edcaa4dbbe17348c588f7469b711954",
      "blockNumber": 69009,
      "transactionIndex": 0,
      "confirmations": null,
      "from": "0xE6565E586a6F801298b90AbC88BC4D06796c6299",
      "gasPrice": {
        "_hex": "0xba43b7400"
      },
      "gasLimit": {
        "_hex": "0x5208"
      },
      "to": "0x5D60425B43EedcDE1849e5d5C021F8bC96d01f80",
      "value": {
        "_hex": "0x17adb9b0233f000"
      },
      "nonce": 1,
      "data": "0x",
      "r": "0x3336d75d68acd737f1ecf426a27c9d42541b7f57f5e29b2746f58024ba90c7cc",
      "s": "0x4023900552bd798162b3e7a0cf52d96cc260024cb960e0710a50c550d14097eb",
      "v": 27,
      "creates": null,
      "raw": "0xf86c01850ba43b7400825208945d60425b43eedcde1849e5d5c021f8bc96d01f8088017adb9b0233f000801ba03336d75d68acd737f1ecf426a27c9d42541b7f57f5e29b2746f58024ba90c7cca04023900552bd798162b3e7a0cf52d96cc260024cb960e0710a50c550d14097eb",
      "networkId": 0,
      "chainId": 0
    },
    {
      "hash": "0x444615cb0f6e9b6852fb1a1311bba04979e5a358af180f9ace180d31d910559f",
      "blockHash": "0x1adfc2ae9bdcb41895d629fba3eaef7f0edcaa4dbbe17348c588f7469b711954",
      "blockNumber": 69009,
      "transactionIndex": 1,
      "confirmations": null,
      "from": "0xb45Ea0130e2d636C5fF6a8ee50C444C5829aCBBa",
      "gasPrice": {
        "_hex": "0xba43b7400"
      },
      "gasLimit": {
        "_hex": "0x5208"
      },
      "to": "0xFD58499Fb084bF88438c1Fc4628E9C42fE5888d9",
      "value": {
        "_hex": "0x17adb9b0233f000"
      },
      "nonce": 1,
      "data": "0x",
      "r": "0x38573684af248ba17837277e1a29103a9cdc3357315f27419ad9dd3dde5db29f",
      "s": "0x6ef5cb58c025f7907122c97dd3cebe30a27625de4edda425021fc7bea585eb03",
      "v": 27,
      "creates": null,
      "raw": "0xf86c01850ba43b740082520894fd58499fb084bf88438c1fc4628e9c42fe5888d988017adb9b0233f000801ba038573684af248ba17837277e1a29103a9cdc3357315f27419ad9dd3dde5db29fa06ef5cb58c025f7907122c97dd3cebe30a27625de4edda425021fc7bea585eb03",
      "networkId": 0,
      "chainId": 0
    },
    {
      "hash": "0x50fd465959dea94371788dc717cf7efa14339b78427c991847ce8c7c86ee965a",
      "blockHash": "0x1adfc2ae9bdcb41895d629fba3eaef7f0edcaa4dbbe17348c588f7469b711954",
      "blockNumber": 69009,
      "transactionIndex": 2,
      "confirmations": null,
      "from": "0xda13049feA3bEd2F1a9B79B7506CFc9EaFe63A54",
      "gasPrice": {
        "_hex": "0xba43b7400"
      },
      "gasLimit": {
        "_hex": "0x5208"
      },
      "to": "0xcC150b400B0592f132A1dEB3eA3CD44AB00D911F",
      "value": {
        "_hex": "0x17adb9b0233f000"
      },
      "nonce": 1,
      "data": "0x",
      "r": "0xa179832a7236b83fec8b60527994d25a5301bde27c34ac648ffd722ae77d08ed",
      "s": "0x66e43c1dff627bf1676296664561e3ca9392a7161e871f0a39aeefc3136c4bf0",
      "v": 27,
      "creates": null,
      "raw": "0xf86c01850ba43b740082520894cc150b400b0592f132a1deb3ea3cd44ab00d911f88017adb9b0233f000801ba0a179832a7236b83fec8b60527994d25a5301bde27c34ac648ffd722ae77d08eda066e43c1dff627bf1676296664561e3ca9392a7161e871f0a39aeefc3136c4bf0",
      "networkId": 0,
      "chainId": 0
    },
    {
      "hash": "0x083628241da33b8e1cf476676a57d295dfe51cb6cf67216b0c9ef516cfcd989d",
      "blockHash": "0x1adfc2ae9bdcb41895d629fba3eaef7f0edcaa4dbbe17348c588f7469b711954",
      "blockNumber": 69009,
      "transactionIndex": 3,
      "confirmations": null,
      "from": "0xa4b94Fa47493Db25A3FcFd205D00d18daF8dfc66",
      "gasPrice": {
        "_hex": "0xba43b7400"
      },
      "gasLimit": {
        "_hex": "0x5208"
      },
      "to": "0x4dA163c91D9E5739b089367cD3ea2E6a8724C531",
      "value": {
        "_hex": "0x17adb9b0233f000"
      },
      "nonce": 1,
      "data": "0x",
      "r": "0x97e71d1af0740a3f154f5c7d06b7300153114969a87b6729970e4534777f8233",
      "s": "0x2c694fab8e4fb914530b290de80fbc8b1251606fc0c9566e22829313081faa81",
      "v": 27,
      "creates": null,
      "raw": "0xf86c01850ba43b7400825208944da163c91d9e5739b089367cd3ea2e6a8724c53188017adb9b0233f000801ba097e71d1af0740a3f154f5c7d06b7300153114969a87b6729970e4534777f8233a02c694fab8e4fb914530b290de80fbc8b1251606fc0c9566e22829313081faa81",
      "networkId": 0,
      "chainId": 0
    }
  ]
}