{
  "hash": "0x6d91edb0db2593361f95e8ea634bfb6963493db649d149ec426725c68523636b",
  "parentHash": "0x7dcac97ec25ab0e6fd05d076a2d8af1a73f793be5bd17b056eb1db1d31f27717",
  "number": 68265,
  "timestamp": 1439285117,
  "nonce": "0x8f04f0516c047913",
  "difficulty": 1991874168584,
  "gasLimit": {
    "_hex": "0x2fefd8"
  },
  "gasUsed": {
    "_hex": "0x5208"
  },
  "miner": "0xFE506162D1351DEcc23F20aE415a321661B4D6F3",
  "extraData": "0x476574682f4d696368656c736f6e4d6f726c65792f76312e302e312d37666266",
  "transactions": [
    {
      "hash": "0xc47e109dc38cdb274524c2cd8cff6dff406ca73237ed49fcae1f5290008a5520",
      "blockHash": "0x6d91edb0db2593361f95e8ea634bfb6963493db649d149ec426725c68523636b",
      "blockNumber": 68265,
      "transactionIndex": 0,
      "confirmations": null,
      "from": "0x6747f922385c9a6F9cfDf095F34345257DD597bE",
      "gasPrice": {
        "_hex": "0xba43b7400"
      },
      "gasLimit": {
        "_hex": "0x5208"
      },
      "to": "0x1D2cD902cf277c0646efCB5dAc0db660B23884aA",
      "value": {
        "_hex": "0x1fcbfa42bd6000"
      },
      "nonce": 42,
      "data": "0x",
      "r": "0x63493d574b43681617c0b905ff230de809fc176f9ebdb04e62b6593cd3c84000",
      "s": "0x4d0202fa0394e0b673476dec70e429a6d44686216b15fade8a667a70ac97159f",
      "v": 27,
      "creates": null,
      "raw": "0xf86b2a850ba43b7400825208941d2cd902cf277c0646efcb5dac0db660b23884aa871fcbfa42bd6000801ba063493d574b43681617c0b905ff230de809fc176f9ebdb04e62b6593cd3c84000a04d0202fa0394e0b673476dec70e429a6d44686216b15fade8a667a70ac97159f",
      "networkId": 0,
      "chainId": 0
    }
  ]
}