{
  "hash": "0x47a5b031c922de6a5eb6c4de144c2941e2cee779ba16782091fb01071815ef41",
  "parentHash": "0x4e75a55ce414734cb2166f73f33dd92745b446bd3ee640efd3dc83ac6c768af0",
  "number": 64080,
  "timestamp": 1439214979,
  "nonce": "0xa5f0177108b5953f",
  "difficulty": 1856650564992,
  "gasLimit": {
    "_hex": "0x2fefd5"
  },
  "gasUsed": {
    "_hex": "0x5208"
  },
  "miner": "0xbb7B8287f3F0a933474a79eAe42CBCa977791171",
  "extraData": "0x476574682f4c5649562f76312e302e312f6c696e75782f676f312e342e32",
  "transactions": [
    {
      "hash": "0x408c4410fb192d74ff839c3568581baf0fe69ac35f4e4eafe89913ada5be401a",
      "blockHash": "0x47a5b031c922de6a5eb6c4de144c2941e2cee779ba16782091fb01071815ef41",
      "blockNumber": 64080,
      "transactionIndex": 0,
      "confirmations": null,
      "from": "0x9Fa9952255B2b06639A04D63804d4BdFFf6E2d7e",
      "gasPrice": {
        "_hex": "0x10f7c211c7e"
      },
      "gasLimit": {
        "_hex": "0x15f90"
      },
      "to": "0xE12517204a15E890f12755207271102F4800A0c4",
      "value": {
        "_hex": "0x8ac7230489e80000"
      },
      "nonce": 2,
      "data": "0x",
      "r": "0xf83ba0b1c3b5ac83d0f625e01d8d9bff7ab58a10b6b59a401865fd65e14934d1",
      "s": "0x3c0f4d5fef81a265e6bca3f1c2b47e234745a15f65837bb3b577c22c0a67232b",
      "v": 28,
      "creates": null,
      "raw": "0xf86e0286010f7c211c7e83015f9094e12517204a15e890f12755207271102f4800a0c4888ac7230489e80000801ca0f83ba0b1c3b5ac83d0f625e01d8d9bff7ab58a10b6b59a401865fd65e14934d1a03c0f4d5fef81a265e6bca3f1c2b47e234745a15f65837bb3b577c22c0a67232b",
      "networkId": 0,
      "chainId": 0
    }
  ]
}