{
  "hash": "0x75682fc17e86e94182ba2c6ae09b71c9b5331c210f64cc80c27417f709b14896",
  "parentHash": "0xd8a551147581507f8130d1541205c82702ee907fa3257d6770e9eb8ea844c12a",
  "number": 101727,
  "timestamp": 1439827208,
  "nonce": "0x245f3fb58c36b155",
  "difficulty": 3873011510281,
  "gasLimit": {
    "_hex": "0x2fefd8"
  },
  "gasUsed": {
    "_hex": "0x5208"
  },
  "miner": "0xd70c667add50d3d9989Ef58A81a698c09f415Bff",
  "extraData": "0x",
  "transactions": [
    {
      "hash": "0xd28718bda4f8e58c65edd6d49636b7d5dbb4de22e31703ffb9fc1ee557588329",
      "blockHash": "0x75682fc17e86e94182ba2c6ae09b71c9b5331c210f64cc80c27417f709b14896",
      "blockNumber": 101727,
      "transactionIndex": 0,
      "confirmations": null,
      "from": "0xC47Aaa860008be6f65B58c6C6E02a84e666EfE31",
      "gasPrice": {
        "_hex": "0xd2c4c413d"
      },
      "gasLimit": {
        "_hex": "0x15f90"
      },
      "to": "0x49CBa71F6140CADB21A7B99721cd5ce6C8A3DAe2",
      "value": {
        "_hex": "0x15af19eb36e779dc5f"
      },
      "nonce": 42,
      "data": "0x",
      "r": "0x55e4d77dad73b70cdd7b63ac8012a1183da265c195f157d0bb1f3abc76e31947",
      "s": "0x03863e1f8e0e59baff9b88dabab5a71869cb07081193caa03b9586cf5a0602bb",
      "v": 27,
      "creates": null,
      "raw": "0xf86e2a850d2c4c413d83015f909449cba71f6140cadb21a7b99721cd5ce6c8a3dae28915af19eb36e779dc5f801ba055e4d77dad73b70cdd7b63ac8012a1183da265c195f157d0bb1f3abc76e31947a003863e1f8e0e59baff9b88dabab5a71869cb07081193caa03b9586cf5a0602bb",
      "networkId": 0,
      "chainId": 0
    }
  ]
}