{
  "hash": "0x114320432ceb5c3dcca1d0cb3c98fc61f39c9bac7b269ee1dfb775013e930ff9",
  "parentHash": "0x4084a9d535a45545928746e4580ab26d19358fd1e19dd303b2bbe86bdc3a2df9",
  "number": 102847,
  "timestamp": 1439844045,
  "nonce": "0x9b4fe7018fd8c7b7",
  "difficulty": 4074223237905,
  "gasLimit": {
    "_hex": "0x2fefd8"
  },
  "gasUsed": {
    "_hex": "0x5208"
  },
  "miner": "0xe6A7a1d47ff21B6321162AEA7C6CB457D5476Bca",
  "extraData": "0x476574682f76312e302e312d38326566323666362f6c696e75782f676f312e34",
  "transactions": [
    {
      "hash": "0xf14a1e282d7a96784c24fb2f21652b34a162bc7bb30ae83127c92a9a2fb37e3c",
      "blockHash": "0x114320432ceb5c3dcca1d0cb3c98fc61f39c9bac7b269ee1dfb775013e930ff9",
      "blockNumber": 102847,
      "transactionIndex": 0,
      "confirmations": null,
      "from": "0x7892e574CADDBB5E9491DE9F26C1F2747F442eeE",
      "gasPrice": {
        "_hex": "0xcd01555c5"
      },
      "gasLimit": {
        "_hex": "0x15f90"
      },
      "to": "0x97A2b04809Fd7Dfa5C1d7B25e38Aad46964330F5",
      "value": {
        "_hex": "0x38d7ea4c68000"
      },
      "nonce": 4,
      "data": "0x",
      "r": "0xb292c8841c93ee9499ea7eac20c2804922e6eaedf194f4e082fe1a983745ffa6",
      "s": "0x3e4934e7fa53f1f875676b0c3ff608c2dccc59d86961ef866b64cd0a558180e1",
      "v": 27,
      "creates": null,
      "raw": "0xf86c04850cd01555c583015f909497a2b04809fd7dfa5c1d7b25e38aad46964330f587038d7ea4c68000801ba0b292c8841c93ee9499ea7eac20c2804922e6eaedf194f4e082fe1a983745ffa6a03e4934e7fa53f1f875676b0c3ff608c2dccc59d86961ef866b64cd0a558180e1",
      "networkId": 0,
      "chainId": 0
    }
  ]
}