{
  "hash": "0xe4e57d4d813915ad86505c2eefaa242c0c09543ecc795e2f158ebd824c67fea1",
  "parentHash": "0xf23bd3d3ae4370ea2777afdf5d3db888c18d9b98e8fa61e5576085692d9fc229",
  "number": 63004,
  "timestamp": 1439197438,
  "nonce": "0x592b17657700f6bb",
  "difficulty": 1799758266727,
  "gasLimit": {
    "_hex": "0x2fefd8"
  },
  "gasUsed": {
    "_hex": "0xc9c3"
  },
  "miner": "0xbb7B8287f3F0a933474a79eAe42CBCa977791171",
  "extraData": "0x476574682f4c5649562f76312e302e312f6c696e75782f676f312e342e32",
  "transactions": [
    {
      "hash": "0xe4cafba85867fd6173a89c4ea12a56106392e9bd71541071fffcf8a2dc3aa7dc",
      "blockHash": "0xe4e57d4d813915ad86505c2eefaa242c0c09543ecc795e2f158ebd824c67fea1",
      "blockNumber": 63004,
      "transactionIndex": 0,
      "confirmations": null,
      "from": "0x707e0B3205D90E717a6b1171816F3C36d18c2D63",
      "gasPrice": {
        "_hex": "0xd7d40ace3"
      },
      "gasLimit": {
        "_hex": "0x7a120"
      },
      "to": "0xfBc128067A2FE13C11BBC6cc55f29AA1F27630DA",
      "value": {
        "_hex": "0xde0b6b3a7640000"
      },
      "nonce": 1,
      "data": "0x",
      "r": "0xff89112275117c1a40c452468b2203e4aec7ab27dc718582e9d7e30c1bc68393",
      "s": "0x1cbb95c3b3fd6b3d20da30dac2dabd839dd15f298a814a2b33fef56c21206400",
      "v": 27,
      "creates": null,
      "raw": "0xf86d01850d7d40ace38307a12094fbc128067a2fe13c11bbc6cc55f29aa1f27630da880de0b6b3a7640000801ba0ff89112275117c1a40c452468b2203e4aec7ab27dc718582e9d7e30c1bc68393a01cbb95c3b3fd6b3d20da30dac2dabd839dd15f298a814a2b33fef56c21206400",
      "networkId": 0,
      "chainId": 0
    }
  ]
}