{
  "hash": "0x79040ff0392564f4276ca5838a167ef90367e3cb86a6bf10724553f4e3cf416a",
  "parentHash": "0xc7e991a2ca50efe82649e53d85a85476fa1d7e0a3df759ad66389c7da4b7cd47",
  "number": 115000,
  "timestamp": 1440050088,
  "nonce": "0x948835c4537f4be2",
  "difficulty": 4501026978380,
  "gasLimit": {
    "_hex": "0x2fefd8"
  },
  "gasUsed": {
    "_hex": "0xa674"
  },
  "miner": "0x52bc44d5378309EE2abF1539BF71dE1b7d7bE3b5",
  "extraData": "0x476574682f76312e302e312d65626434373230372f6c696e75782f676f312e34",
  "transactions": [
    {
      "hash": "0x024da30c544511a42ec3d2e53d11c93d201ae9f1bd8ed7366e9923d0b629030f",
      "blockHash": "0x79040ff0392564f4276ca5838a167ef90367e3cb86a6bf10724553f4e3cf416a",
      "blockNumber": 115000,
      "transactionIndex": 0,
      "confirmations": null,
      "from": "0x911ff233E1A211c0172C92B46Cf997030582c83a",
      "gasPrice": {
        "_hex": "0x110c8f7d8de"
      },
      "gasLimit": {
        "_hex": "0xc350"
      },
      "to": "0x2910543Af39abA0Cd09dBb2D50200b3E800A63D2",
      "value": {
        "_hex": "0x2085b3846f44190000"
      },
      "nonce": 1,
      "data": "0x454e4e473132374452",
      "r": "0x13b1ef298917890481107c5598fc0a072517cb4bc81420473a25b6e0c6eaf19c",
      "s": "0x4339eb9284aab9d4de1645ca9aad282f3df196001cd75d5e32fb088281e24335",
      "v": 28,
      "creates": null,
      "raw": "0xf87701860110c8f7d8de82c350942910543af39aba0cd09dbb2d50200b3e800a63d2892085b3846f4419000089454e4e4731323744521ca013b1ef298917890481107c5598fc0a072517cb4bc81420473a25b6e0c6eaf19ca04339eb9284aab9d4de1645ca9aad282f3df196001cd75d5e32fb088281e24335",
      "networkId": 0,
      "chainId": 0
    },
    {
      "hash": "0x33831141d49b633e7ba84fab20c85730a0b33b83f9876c50ad3b21d5adcbb283",
      "blockHash": "0x79040ff0392564f4276ca5838a167ef90367e3cb86a6bf10724553f4e3cf416a",
      "blockNumber": 115000,
      "transactionIndex": 1,
      "confirmations": null,
      "from": "0xb6E2d440C46510EC44266A3f58165E3956173df0",
      "gasPrice": {
        "_hex": "0xcc8283b73"
      },
      "gasLimit": {
        "_hex": "0x15f90"
      },
      "to": "0xf139E449202bD167D3B34a53Efe805b9479fEAdC",
      "value": {
        "_hex": "0xd9b5322251f0c0000"
      },
      "nonce": 6,
      "data": "0x",
      "r": "0x5554f58bf6fc24760259da4d14cd07e2ee7f06d0e3cfa064f370d70a0ebe4274",
      "s": "0x3e7df7077fff66c6463ba5b284dcd12684a286705b83101a885c4ac509376092",
      "v": 27,
      "creates": null,
      "raw": "0xf86e06850cc8283b7383015f9094f139e449202bd167d3b34a53efe805b9479feadc890d9b5322251f0c0000801ba05554f58bf6fc24760259da4d14cd07e2ee7f06d0e3cfa064f370d70a0ebe4274a03e7df7077fff66c6463ba5b284dcd12684a286705b83101a885c4ac509376092",
      "networkId": 0,
      "chainId": 0
    }
  ]
}