{
  "hash": "0x1535853a725a2a04ca04f93de51574d20755282ed59f14ac1d4f5be172b03b60",
  "parentHash": "0x240aa3cb73c02cdece63c43f4bde7458eb95f9401482d12c40fa55967503b746",
  "number": 90181,
  "timestamp": 1439636047,
  "nonce": "0xc55323274707d4ef",
  "difficulty": 3297944432832,
  "gasLimit": {
    "_hex": "0x2fefd8"
  },
  "gasUsed": {
    "_hex": "0x5208"
  },
  "miner": "0xe6A7a1d47ff21B6321162AEA7C6CB457D5476Bca",
  "extraData": "0x476574682f76312e302e312d38326566323666362f6c696e75782f676f312e34",
  "transactions": [
    {
      "hash": "0xf31f8feb0aa63790e6b8b57b592e6e6f68523d3e52096d9b215c8bb80db0511d",
      "blockHash": "0x1535853a725a2a04ca04f93de51574d20755282ed59f14ac1d4f5be172b03b60",
      "blockNumber": 90181,
      "transactionIndex": 0,
      "confirmations": null,
      "from": "0xc41fDDa36003210005a385c88A71007e62A81C7D",
      "gasPrice": {
        "_hex": "0xce6c37f62"
      },
      "gasLimit": {
        "_hex": "0x15f90"
      },
      "to": "0xaf9014E2650a9d5A7ae35F4F623a1B1EFBa235ab",
      "value": {
        "_hex": "0x2e74096a3b367850"
      },
      "nonce": 0,
      "data": "0x",
      "r": "0x5e268e91c3a54a05042e00c7557067030e2512979ffcca0716d3ba68139ee0bb",
      "s": "0x20e6a10231560e590b44237318ff7ae9591d20d92d2b94fa9d7fc4f2c44c082f",
      "v": 27,
      "creates": null,
      "raw": "0xf86d80850ce6c37f6283015f9094af9014e2650a9d5a7ae35f4f623a1b1efba235ab882e74096a3b367850801ba05e268e91c3a54a05042e00c7557067030e2512979ffcca0716d3ba68139ee0bba020e6a10231560e590b44237318ff7ae9591d20d92d2b94fa9d7fc4f2c44c082f",
      "networkId": 0,
      "chainId": 0
    }
  ]
}