{
  "hash": "0xdae9ae92ea1f4ef606e2b7f715fd295176d14718b2d8e78f8f887b906e3eb6f1",
  "parentHash": "0x8b98a7cb2ea576e771fd58f006f6280ba535d874c6e2e645838be483d6dce60b",
  "number": 87630,
  "timestamp": 1439595174,
  "nonce": "0xd0a8dcfff7c84c28",
  "difficulty": 3155572321329,
  "gasLimit": {
    "_hex": "0x2fefd8"
  },
  "gasUsed": {
    "_hex": "0x5208"
  },
  "miner": "0xf927a40C8B7F6E07c5af7FA2155B4864a4112B13",
  "extraData": "0x",
  "transactions": [
    {
      "hash": "0x56b9b6eb3cfa19e6ec797647bad559953a6ebe14b006472e032021bad4772374",
      "blockHash": "0xdae9ae92ea1f4ef606e2b7f715fd295176d14718b2d8e78f8f887b906e3eb6f1",
      "blockNumber": 87630,
      "transactionIndex": 0,
      "confirmations": null,
      "from": "0x32Be343B94f860124dC4fEe278FDCBD38C102D88",
      "gasPrice": {
        "_hex": "0xcb528461e"
      },
      "gasLimit": {
        "_hex": "0x5208"
      },
      "to": "0xc93a69dFC0fb3E867D9207599f7fe87d51619635",
      "value": {
        "_hex": "0x456159131df7f0000"
      },
      "nonce": 791,
      "data": "0x",
      "r": "0xfaeb056873853645edaf0266c50a3bc6fb76493aa3c119b9d1a9462459eb7add",
      "s": "0x111fcd486ecf0b79c590fd55c277b6e80e30abddbcdf50c9891c86b427e80a6e",
      "v": 27,
      "creates": null,
      "raw": "0xf86f820317850cb528461e82520894c93a69dfc0fb3e867d9207599f7fe87d51619635890456159131df7f0000801ba0faeb056873853645edaf0266c50a3bc6fb76493aa3c119b9d1a9462459eb7adda0111fcd486ecf0b79c590fd55c277b6e80e30abddbcdf50c9891c86b427e80a6e",
      "networkId": 0,
      "chainId": 0
    }
  ]
}