{
  "hash": "0xa1e46a1329309701b6ba79bcff3ef183359103aa00682486d27cfef6013010ee",
  "parentHash": "0x2ae331d02ac58f56002b31d37424b2a881aee919b594cc2ee837320de4cae8f4",
  "number": 71223,
  "timestamp": 1439332742,
  "nonce": "0x21296b018ae908c4",
  "difficulty": 2142483266001,
  "gasLimit": {
    "_hex": "0x2fefd8"
  },
  "gasUsed": {
    "_hex": "0x93b2"
  },
  "miner": "0x0037ce3d4B7f8729C8607D8D0248252Be68202c0",
  "extraData": "0x476574682f76312e302e312f77696e646f77732f676f312e342e32",
  "transactions": [
    {
      "hash": "0x30336c41d1d14c2d22fa993fefa56e24a40313c3b4c7fc29731bf1acacc0c342",
      "blockHash": "0xa1e46a1329309701b6ba79bcff3ef183359103aa00682486d27cfef6013010ee",
      "blockNumber": 71223,
      "transactionIndex": 0,
      "confirmations": null,
      "from": "0x17580B766f7453525ca4C6A88b01b50570EA088C",
      "gasPrice": {
        "_hex": "0xde87886d5"
      },
      "gasLimit": {
        "_hex": "0x61a80"
      },
      "to": "0x5Fe5B7546D1628f7348B023A0393de1FC825A4fD",
      "value": {
        "_hex": "0x3782dace9d900000"
      },
      "nonce": 123,
      "data": "0xb595b8b50000000000000000000000000000000000000000000000000000000000000000",
      "r": "0x0b9d2dcd332cf1892434fc515e717bad9d265d4dcc9a142adcd2e93834e8bae5",
      "s": "0x464e0ae01b674a20f4856a34c1fa265333f28229ae0db290dd9b9c84986d99eb",
      "v": 27,
      "creates": null,
      "raw": "0xf8917b850de87886d583061a80945fe5b7546d1628f7348b023a0393de1fc825a4fd883782dace9d900000a4b595b8b500000000000000000000000000000000000000000000000000000000000000001ba00b9d2dcd332cf1892434fc515e717bad9d265d4dcc9a142adcd2e93834e8bae5a0464e0ae01b674a20f4856a34c1fa265333f28229ae0db290dd9b9c84986d99eb",
      "networkId": 0,
      "chainId": 0
    }
  ]
}