{
  "hash": "0x5548c5c8a73ffb6d76077f4f47f3791f05db7f4ad648f8488b8fd8e5703d2b3a",
  "parentHash": "0x64ca96b97f776fff46c8688f7a437ad9ddb552c2dd44822fe37798a8aa0f0235",
  "number": 84886,
  "timestamp": 1439555822,
  "nonce": "0xbe8c65401384539f",
  "difficulty": 2665926535683,
  "gasLimit": {
    "_hex": "0x2fefd8"
  },
  "gasUsed": {
    "_hex": "0x546c"
  },
  "miner": "0xe6A7a1d47ff21B6321162AEA7C6CB457D5476Bca",
  "extraData": "0x476574682f76312e302e312d38326566323666362f6c696e75782f676f312e34",
  "transactions": [
    {
      "hash": "0xa3a83ecd53f1e5110ca14c2938579cce24f6973eac095bed48136c1be26dd303",
      "blockHash": "0x5548c5c8a73ffb6d76077f4f47f3791f05db7f4ad648f8488b8fd8e5703d2b3a",
      "blockNumber": 84886,
      "transactionIndex": 0,
      "confirmations": null,
      "from": "0x0596A27DC3EE115fcE2F94b481Bc207a9E261525",
      "gasPrice": {
        "_hex": "0x110c8f7d8de"
      },
      "gasLimit": {
        "_hex": "0xc350"
      },
      "to": "0x2910543Af39abA0Cd09dBb2D50200b3E800A63D2",
      "value": {
        "_hex": "0x30ca024f987b900000"
      },
      "nonce": 0,
      "data": "0x454e4b553735425630",
      "r": "0x9eca67fa2982c4a61b8e7e80c9025feea4ef25609b04a8cebb21170c6d0a9a77",
      "s": "0xd46037e6c27952a74a71ba4ef276106174ffab557a57b998ef5961ee41c0489e",
      "v": 28,
      "creates": null,
      "raw": "0xf87780860110c8f7d8de82c350942910543af39aba0cd09dbb2d50200b3e800a63d28930ca024f987b90000089454e4b5537354256301ca09eca67fa2982c4a61b8e7e80c9025feea4ef25609b04a8cebb21170c6d0a9a77a0d46037e6c27952a74a71ba4ef276106174ffab557a57b998ef5961ee41c0489e",
      "networkId": 0,
      "chainId": 0
    }
  ]
}