{
  "hash": "0xba14c41770f52fc3dfb6ccd82e40f9e1eec6c83e495b801390edcb26b57da208",
  "parentHash": "0xc2dec666a59159d00986b88668a9e104866a818844d7f5693dec3f20c2f8a444",
  "number": 48940,
  "timestamp": 1438965388,
  "nonce": "0x8ead360132445afc",
  "difficulty": 1480031362880,
  "gasLimit": {
    "_hex": "0x218c1"
  },
  "gasUsed": {
    "_hex": "0xf618"
  },
  "miner": "0x3F98e477a361F777DA14611a7e419A75Fd238b6b",
  "extraData": "0x476574682f76312e302e312f6c696e75782f676f312e342e32",
  "transactions": [
    {
      "hash": "0xf51a1f911d9053849367715e88170a73d5f528f58eec87f0789ec473eeee5703",
      "blockHash": "0xba14c41770f52fc3dfb6ccd82e40f9e1eec6c83e495b801390edcb26b57da208",
      "blockNumber": 48940,
      "transactionIndex": 0,
      "confirmations": null,
      "from": "0xd28620AE1F1f6f863C67fF449dF11AD0aE2FEC25",
      "gasPrice": {
        "_hex": "0xd5ce53769"
      },
      "gasLimit": {
        "_hex": "0x5208"
      },
      "to": "0x32Be343B94f860124dC4fEe278FDCBD38C102D88",
      "value": {
        "_hex": "0xa2a158c12425b80000"
      },
      "nonce": 0,
      "data": "0x",
      "r": "0x76a8aa536bcac1ba2c45fbeef8d78a9914911ac30e48a24247efad37eeeddf90",
      "s": "0x5f7dffe9b66e8f96cfb34218e2e80295fa9c381deaa09c3e0244c686d420848c",
      "v": 27,
      "creates": null,
      "raw": "0xf86d80850d5ce537698252089432be343b94f860124dc4fee278fdcbd38c102d8889a2a158c12425b80000801ba076a8aa536bcac1ba2c45fbeef8d78a9914911ac30e48a24247efad37eeeddf90a05f7dffe9b66e8f96cfb34218e2e80295fa9c381deaa09c3e0244c686d420848c",
      "networkId": 0,
      "chainId": 0
    },
    {
      "hash": "0x22d02d782f8c4a31ab44483d9162352d6cfe2477b2c53a4401291c850fc507cb",
      "blockHash": "0xba14c41770f52fc3dfb6ccd82e40f9e1eec6c83e495b801390edcb26b57da208",
      "blockNumber": 48940,
      "transactionIndex": 1,
      "confirmations": null,
      "from": "0xA07A2aE7806378684B775111ba80806479b5A334",
      "gasPrice": {
        "_hex": "0xd5ce53769"
      },
      "gasLimit": {
        "_hex": "0x5208"
      },
      "to": "0x32Be343B94f860124dC4fEe278FDCBD38C102D88",
      "value": {
        "_hex": "0x6c6b8f135e47180000"
      },
      "nonce": 1,
      "data": "0x",
      "r": "0xac286e297dd01a304a6cf91087f6863e250a4b75b8f6c0bf8f9728d740bc7ae6",
      "s": "0x15b2334480f8db51003f69186f43d5f04b1c44b46556336da52e355afe548c44",
      "v": 28,
      "creates": null,
      "raw": "0xf86d01850d5ce537698252089432be343b94f860124dc4fee278fdcbd38c102d88896c6b8f135e47180000801ca0ac286e297dd01a304a6cf91087f6863e250a4b75b8f6c0bf8f9728d740bc7ae6a015b2334480f8db51003f69186f43d5f04b1c44b46556336da52e355afe548c44",
      "networkId": 0,
      "chainId": 0
    },
    {
      "hash": "0xa39d776727eff8373422dbd13189bacbdcfa4fbe060552be4fd55da7ef68f7b7",
      "blockHash": "0xba14c41770f52fc3dfb6ccd82e40f9e1eec6c83e495b801390edcb26b57da208",
      "blockNumber": 48940,
      "transactionIndex": 2,
      "confirmations": null,
      "from": "0x1543667B9bad3e41865C3233E1764d8dda8E1F3D",
      "gasPrice": {
        "_hex": "0xd5ce53769"
      },
      "gasLimit": {
        "_hex": "0x5208"
      },
      "to": "0x32Be343B94f860124dC4fEe278FDCBD38C102D88",
      "value": {
        "_hex": "0xde389837ac78800"
      },
      "nonce": 0,
      "data": "0x",
      "r": "0x0acf92a570a12f916cd01b197857ba1b6143835638fab7231cff1951fe69d691",
      "s": "0x29d5b8aa337d341c1192f2982be3cd1b7b8dceae220d49142fd61573d36c9306",
      "v": 27,
      "creates": null,
      "raw": "0xf86c80850d5ce537698252089432be343b94f860124dc4fee278fdcbd38c102d88880de389837ac78800801ba00acf92a570a12f916cd01b197857ba1b6143835638fab7231cff1951fe69d691a029d5b8aa337d341c1192f2982be3cd1b7b8dceae220d49142fd61573d36c9306",
      "networkId": 0,
      "chainId": 0
    }
  ]
}