{
  "hash": "0xd517b728e6d6393d799394bd5f11609ba84e5ebe05343568eeea84048c0a3299",
  "parentHash": "0x7757f17bad7a2d96d9b30c744aa714cc35c5accaabc5e27d52fe35bef3591071",
  "number": 63457,
  "timestamp": 1439204658,
  "nonce": "0xdbf704beb8372f0c",
  "difficulty": 1841439455174,
  "gasLimit": {
    "_hex": "0x2fefd8"
  },
  "gasUsed": {
    "_hex": "0x5208"
  },
  "miner": "0x5e1a72dde3Ffc20B77eA8382E916EF04C89ff2Bd",
  "extraData": "0x476574682f76312e302e302f77696e646f77732f676f312e342e32",
  "transactions": [
    {
      "hash": "0x99dd4c6cd759c453d04b01635de62d269d169e32a8e7b03ae1417fc13deae8a9",
      "blockHash": "0xd517b728e6d6393d799394bd5f11609ba84e5ebe05343568eeea84048c0a3299",
      "blockNumber": 63457,
      "transactionIndex": 0,
      "confirmations": null,
      "from": "0xBb990e55844f15Ac000cEB515D5a2A315Db9CB0B",
      "gasPrice": {
        "_hex": "0xcb003069c"
      },
      "gasLimit": {
        "_hex": "0x5208"
      },
      "to": "0x32Be343B94f860124dC4fEe278FDCBD38C102D88",
      "value": {
        "_hex": "0x1fc368664875a2000000"
      },
      "nonce": 4,
      "data": "0x",
      "r": "0x01fb8415f2931e944109389f6b28ed575216f474e9086e7a7105ca6850e0964e",
      "s": "0x1db3546ddce1f0bc73bf8029baae20dc72e44b2f0bc470e3f13c506b710238f8",
      "v": 28,
      "creates": null,
      "raw": "0xf86e04850cb003069c8252089432be343b94f860124dc4fee278fdcbd38c102d888a1fc368664875a2000000801ca001fb8415f2931e944109389f6b28ed575216f474e9086e7a7105ca6850e0964ea01db3546ddce1f0bc73bf8029baae20dc72e44b2f0bc470e3f13c506b710238f8",
      "networkId": 0,
      "chainId": 0
    }
  ]
}