{
  "hash": "0x742cf8169a4fea742bdee13e9494401a244702cfc0f680dbba2148d1450bf0d1",
  "parentHash": "0x92a82312d25d34905a0eb32a0f3f90200f8e19a72d988ea266489b0109b0d4e7",
  "number": 61308,
  "timestamp": 1439170422,
  "nonce": "0x7782809700b6ff88",
  "difficulty": 1724411417846,
  "gasLimit": {
    "_hex": "0x2fefd8"
  },
  "gasUsed": {
    "_hex": "0x5428"
  },
  "miner": "0xbb7B8287f3F0a933474a79eAe42CBCa977791171",
  "extraData": "0x476574682f4c5649562f76312e302e312f6c696e75782f676f312e342e32",
  "transactions": [
    {
      "hash": "0x69bc020ff50e476c9fbc9099dc8a67f70cbff7d5f82b2a0dbe1d09e89b6b7739",
      "blockHash": "0x742cf8169a4fea742bdee13e9494401a244702cfc0f680dbba2148d1450bf0d1",
      "blockNumber": 61308,
      "transactionIndex": 0,
      "confirmations": null,
      "from": "0x858079E02403b10748B71A02195b6608Abaf6b8f",
      "gasPrice": {
        "_hex": "0xd1f217cbf"
      },
      "gasLimit": {
        "_hex": "0x59d8"
      },
      "to": "0xcb2Ff4305625D98A9E13C9cA10ca47cf2345e1F8",
      "value": {
        "_hex": "0x2b5e3af16b1880000"
      },
      "nonce": 4,
      "data": "0x4d696e7573313030",
      "r": "0x2d2515e594fe94ea43428514d5891105cb2ec61a697f33e59cd519917e4d4bb1",
      "s": "0x63333c0ab04f2586e3ddcdd49d6233a915bf143ddfe41bbd33b5951ebba85090",
      "v": 27,
      "creates": null,
      "raw": "0xf87504850d1f217cbf8259d894cb2ff4305625d98a9e13c9ca10ca47cf2345e1f88902b5e3af16b1880000884d696e75733130301ba02d2515e594fe94ea43428514d5891105cb2ec61a697f33e59cd519917e4d4bb1a063333c0ab04f2586e3ddcdd49d6233a915bf143ddfe41bbd33b5951ebba85090",
      "networkId": 0,
      "chainId": 0
    }
  ]
}