{
  "hash": "0x82202e8b9b3ed7bec4b750554c57efd5521285cec6bb82df8d8e203ea1c1a6f7",
  "parentHash": "0x6f203ebf6fa59379e1ea7542f417bac0703450d10a3072da9ec19b4606f0795d",
  "number": 94009,
  "timestamp": 1439701135,
  "nonce": "0x5cc89902e6040e78",
  "difficulty": 3481734350982,
  "gasLimit": {
    "_hex": "0x2fefd5"
  },
  "gasUsed": {
    "_hex": "0xf618"
  },
  "miner": "0x88D74a59454F6cF3B51ef6b9136AFb6b9D405A88",
  "extraData": "0x476574682f76312e302e312d37666266393930632f6c696e75782f676f312e34",
  "transactions": [
    {
      "hash": "0x8488746e2e55829e9e236e3464e71c5117b95a06546c821fa550a158ca213665",
      "blockHash": "0x82202e8b9b3ed7bec4b750554c57efd5521285cec6bb82df8d8e203ea1c1a6f7",
      "blockNumber": 94009,
      "transactionIndex": 0,
      "confirmations": null,
      "from": "0xa70a9a7040d542C632D8e0bE7c5513A8a5Bbc752",
      "gasPrice": {
        "_hex": "0xd7e0541df"
      },
      "gasLimit": {
        "_hex": "0x5208"
      },
      "to": "0x32Be343B94f860124dC4fEe278FDCBD38C102D88",
      "value": {
        "_hex": "0x4795fbec2c7cc800"
      },
      "nonce": 142,
      "data": "0x",
      "r": "0x367ac78856c4bcdacca7083a51d2f58ea51175bdcf8ea2c832c7502fae41647d",
      "s": "0x1eb535e30994b28eaa6d238bae30e24d2231215ec4b48ee3dfc1bec251d3d571",
      "v": 27,
      "creates": null,
      "raw": "0xf86d818e850d7e0541df8252089432be343b94f860124dc4fee278fdcbd38c102d88884795fbec2c7cc800801ba0367ac78856c4bcdacca7083a51d2f58ea51175bdcf8ea2c832c7502fae41647da01eb535e30994b28eaa6d238bae30e24d2231215ec4b48ee3dfc1bec251d3d571",
      "networkId": 0,
      "chainId": 0
    },
    {
      "hash": "0x1afc1ee7ea66a2bc41567df5093708ea31023410cabec7dff8692c887f8707d0",
      "blockHash": "0x82202e8b9b3ed7bec4b750554c57efd5521285cec6bb82df8d8e203ea1c1a6f7",
      "blockNumber": 94009,
      "transactionIndex": 1,
      "confirmations": null,
      "from": "0x32Be343B94f860124dC4fEe278FDCBD38C102D88",
      "gasPrice": {
        "_hex": "0xd7e0541df"
      },
      "gasLimit": {
        "_hex": "0x5208"
      },
      "to": "0x559f3A22158349508fe855Df31EF013728AE6630",
      "value": {
        "_hex": "0x56bc75e2d63100000"
      },
      "nonce": 940,
      "data": "0x",
      "r": "0xd5c82fcfa0782476f5ebfe57336f604692126a6513a858caf9302345baa7f8fe",
      "s": "0x7c5e09eef4ae7580da6cb37974f2ee5f132083660fddcc8741fc50e873336842",
      "v": 27,
      "creates": null,
      "raw": "0xf86f8203ac850d7e0541df82520894559f3a22158349508fe855df31ef013728ae663089056bc75e2d63100000801ba0d5c82fcfa0782476f5ebfe57336f604692126a6513a858caf9302345baa7f8fea07c5e09eef4ae7580da6cb37974f2ee5f132083660fddcc8741fc50e873336842",
      "networkId": 0,
      "chainId": 0
    },
    {
      "hash": "0xb67e6d39de4f2a5d9ff645988214b8019fc8f454db20e21fcb4d711258f4fb22",
      "blockHash": "0x82202e8b9b3ed7bec4b750554c57efd5521285cec6bb82df8d8e203ea1c1a6f7",
      "blockNumber": 94009,
      "transactionIndex": 2,
      "confirmations": null,
      "from": "0xF9df7dCaA26C039BD675B008D4991b34717E0703",
      "gasPrice": {
        "_hex": "0xd69b48315"
      },
      "gasLimit": {
        "_hex": "0x15f90"
      },
      "to": "0x047fF53dFE1F7BD2c3Ed2D1f777F35D1f64e9ffE",
      "value": {
        "_hex": "0x1c89447b0365a0000"
      },
      "nonce": 2,
      "data": "0x",
      "r": "0x1522492e0e252371c06e8fa415fd51b6ee1c1c18b9840d6a2fdfb2e0c187eae7",
      "s": "0x74d6e71c19547242a6e4a1c5eff1cf84cb07ef2e8efe01b7672abe8a2971e5c8",
      "v": 27,
      "creates": null,
      "raw": "0xf86e02850d69b4831583015f9094047ff53dfe1f7bd2c3ed2d1f777f35d1f64e9ffe8901c89447b0365a0000801ba01522492e0e252371c06e8fa415fd51b6ee1c1c18b9840d6a2fdfb2e0c187eae7a074d6e71c19547242a6e4a1c5eff1cf84cb07ef2e8efe01b7672abe8a2971e5c8",
      "networkId": 0,
      "chainId": 0
    }
  ]
}