{
  "hash": "0xa3f3248eaf2fd4fa94f6263122ac37d6b991ef36f28838bebf2285067af64c29",
  "parentHash": "0xdf1fa86660d4a99a15436abc05559f7cb7866d19204ede6119268f8e9e7be32a",
  "number": 46260,
  "timestamp": 1438920167,
  "nonce": "0xb8a24963dd20504e",
  "difficulty": 1460400748829,
  "gasLimit": {
    "_hex": "0x5730"
  },
  "gasUsed": {
    "_hex": "0x5208"
  },
  "miner": "0x1217627fe41A00f0b828317F43E6d58F47dBfc43",
  "extraData": "0x476574682f76312e302e302d66313265303136312f6c696e75782f676f312e34",
  "transactions": [
    {
      "hash": "0x0fb28c67b7769598af04e3f804b41eeddeacc2ceace8d0af00dac49d0eb0b09c",
      "blockHash": "0xa3f3248eaf2fd4fa94f6263122ac37d6b991ef36f28838bebf2285067af64c29",
      "blockNumber": 46260,
      "transactionIndex": 0,
      "confirmations": null,
      "from": "0x39d4A931402c0c79c457186F24dF8729cf957031",
      "gasPrice": {
        "_hex": "0x223ede6e3b"
      },
      "gasLimit": {
        "_hex": "0x5208"
      },
      "to": "0xe1F5B8dc9336BC9637eA97c3f3b13Cd363F88854",
      "value": {
        "_hex": "0xa2a15d09519be00000"
      },
      "nonce": 0,
      "data": "0x",
      "r": "0x4ac2c17d638b7863482d947f4cd46c1783d0c8e27334d6a6e8afdb68a7befdd0",
      "s": "0x16c848e6590fdb9a21910bde7103ef88777ee22adca87d68dbadb93b606b1c18",
      "v": 28,
      "creates": null,
      "raw": "0xf86d8085223ede6e3b82520894e1f5b8dc9336bc9637ea97c3f3b13cd363f8885489a2a15d09519be00000801ca04ac2c17d638b7863482d947f4cd46c1783d0c8e27334d6a6e8afdb68a7befdd0a016c848e6590fdb9a21910bde7103ef88777ee22adca87d68dbadb93b606b1c18",
      "networkId": 0,
      "chainId": 0
    }
  ]
}