{
  "hash": "0x0b81c254eae197492bf5dcc75e358a0f0efdd3e8ce0c59e444549955375de2f7",
  "parentHash": "0xefbcd8ef28cf0d7a033add508822ceb304ab7f3f2dd08694c0c7427b824ea5fa",
  "number": 59421,
  "timestamp": 1439137829,
  "nonce": "0x4276575d0c0a7df3",
  "difficulty": 1703872669180,
  "gasLimit": {
    "_hex": "0x2fefd8"
  },
  "gasUsed": {
    "_hex": "0xa410"
  },
  "miner": "0xC49418429e58989172a4ACE0bab0cB8D3F00F97f",
  "extraData": "0x476574682f76312e302e312f6c696e75782f676f312e342e32",
  "transactions": [
    {
      "hash": "0x1407b8dd626cfafc120270c4d1ddba39115bd7270fccc70246c92e780f88b9c1",
      "blockHash": "0x0b81c254eae197492bf5dcc75e358a0f0efdd3e8ce0c59e444549955375de2f7",
      "blockNumber": 59421,
      "transactionIndex": 0,
      "confirmations": null,
      "from": "0x32Be343B94f860124dC4fEe278FDCBD38C102D88",
      "gasPrice": {
        "_hex": "0xd1bbcce51"
      },
      "gasLimit": {
        "_hex": "0x5208"
      },
      "to": "0xE2beA3e7d349ab64EBD9873418e78912e13CD35f",
      "value": {
        "_hex": "0x8aa39c121a270000"
      },
      "nonce": 106,
      "data": "0x",
      "r": "0x92c5671953f1ee1d5a848623af330a2566cf15c98e5b9b0e5011f753dfcdd54a",
      "s": "0x6f66ff11989738c7efa6750ed199aa82d987ceb19d9c1ef5f374a6c1ace53080",
      "v": 27,
      "creates": null,
      "raw": "0xf86c6a850d1bbcce5182520894e2bea3e7d349ab64ebd9873418e78912e13cd35f888aa39c121a270000801ba092c5671953f1ee1d5a848623af330a2566cf15c98e5b9b0e5011f753dfcdd54aa06f66ff11989738c7efa6750ed199aa82d987ceb19d9c1ef5f374a6c1ace53080",
      "networkId": 0,
      "chainId": 0
    },
    {
      "hash": "0x9a46aec1239415c178f303c289ebdea259034c6a0b5d4e36386c0598f280a991",
      "blockHash": "0x0b81c254eae197492bf5dcc75e358a0f0efdd3e8ce0c59e444549955375de2f7",
      "blockNumber": 59421,
      "transactionIndex": 1,
      "confirmations": null,
      "from": "0x32Be343B94f860124dC4fEe278FDCBD38C102D88",
      "gasPrice": {
        "_hex": "0xd1bbcce51"
      },
      "gasLimit": {
        "_hex": "0x5208"
      },
      "to": "0xF8CDdB4300504E2827E28101BF15c9215658296c",
      "value": {
        "_hex": "0x13fbe85edc90000"
      },
      "nonce": 107,
      "data": "0x",
      "r": "0x5c2ea44a6d29bbec7dc7c43768abd8e242cdb753772d8000101c97ae7d8b1e61",
      "s": "0x196b6a2792854040ef9a407cd0e7fbe93c85f6fa443a96a99ee4496446c468a3",
      "v": 28,
      "creates": null,
      "raw": "0xf86c6b850d1bbcce5182520894f8cddb4300504e2827e28101bf15c9215658296c88013fbe85edc90000801ca05c2ea44a6d29bbec7dc7c43768abd8e242cdb753772d8000101c97ae7d8b1e61a0196b6a2792854040ef9a407cd0e7fbe93c85f6fa443a96a99ee4496446c468a3",
      "networkId": 0,
      "chainId": 0
    }
  ]
}