{
  "hash": "0x36b2f5d917783b34495a4eab3bae6339d415f1a1d17b45530c9aa5c911af4eeb",
  "parentHash": "0x4c991e59bf30de1a53b5f6ffb0202178555d4bf7d622b70416f20c7523d52b36",
  "number": 55355,
  "timestamp": 1439069386,
  "nonce": "0xa300b4a6cd757bf5",
  "difficulty": 1628224186603,
  "gasLimit": {
    "_hex": "0x2fefd5"
  },
  "gasUsed": {
    "_hex": "0x28f95"
  },
  "miner": "0x559EbD64C915Ca65b2F829D9DA8773d585d70a55",
  "extraData": "0x",
  "transactions": [
    {
      "hash": "0x9888f1b0d684daa0c5710bf4e8954e549c39708e7520694e4d038a479ed50bf0",
      "blockHash": "0x36b2f5d917783b34495a4eab3bae6339d415f1a1d17b45530c9aa5c911af4eeb",
      "blockNumber": 55355,
      "transactionIndex": 0,
      "confirmations": null,
      "from": "0x5947168a79DB294bdA0dB697a2e4ec7Dfb2A0A5E",
      "gasPrice": {
        "_hex": "0x108c85ef086"
      },
      "gasLimit": {
        "_hex": "0x15f90"
      },
      "to": null,
      "value": {
        "_hex": "0x0"
      },
      "nonce": 2,
      "data": "0x6060604052604060405190810160405280600a81526020017f45746865727061727479000000000000000000000000000000000000000000008152602001506000600050908051906020019082805482825590600052602060002090601f01602090048101928215608b579182015b82811115608a578251826000505591602001919060010190606e565b5b50905060b291906096565b8082111560ae57600081815060009055506001016096565b5090565b5050610130806100c36000396000f30060606040526000357c0100000000000000000000000000000000000000000000000000000000900480636d4ce63c1461003957610037565b005b6100446004506100b2565b60405180806020018281038252838181518152602001915080519060200190808383829060006004602084601f0104600302600f01f150905090810190601f1680156100a45780820380516001836020036101000a031916815260200191505b509250505060405180910390f35b60206040519081016040528060008152602001506000600050805480601f0160208091040260200160405190810160405280929190818152602001828054801561012157820191906000526020600020905b81548152906001019060200180831161010457829003601f168201915b5050505050905061012d565b9056",
      "r": "0xb9dcfaeebf6b81e7213bc01c46f6d9ac709bacbd74bbadf844f06452c86615a0",
      "s": "0x5b7a828df71754678ebdc830550b2339b0749e43e8e96cf8fc6f648dbd5752e1",
      "v": 27,
      "creates": "0xCed179cB113196835DD7F06a036Ed2828361154C",
      "raw": "0xf9024702860108c85ef08683015f908080b901f36060604052604060405190810160405280600a81526020017f45746865727061727479000000000000000000000000000000000000000000008152602001506000600050908051906020019082805482825590600052602060002090601f01602090048101928215608b579182015b82811115608a578251826000505591602001919060010190606e565b5b50905060b291906096565b8082111560ae57600081815060009055506001016096565b5090565b5050610130806100c36000396000f30060606040526000357c0100000000000000000000000000000000000000000000000000000000900480636d4ce63c1461003957610037565b005b6100446004506100b2565b60405180806020018281038252838181518152602001915080519060200190808383829060006004602084601f0104600302600f01f150905090810190601f1680156100a45780820380516001836020036101000a031916815260200191505b509250505060405180910390f35b60206040519081016040528060008152602001506000600050805480601f0160208091040260200160405190810160405280929190818152602001828054801561012157820191906000526020600020905b81548152906001019060200180831161010457829003601f168201915b5050505050905061012d565b90561ba0b9dcfaeebf6b81e7213bc01c46f6d9ac709bacbd74bbadf844f06452c86615a0a05b7a828df71754678ebdc830550b2339b0749e43e8e96cf8fc6f648dbd5752e1",
      "networkId": 0,
      "chainId": 0
    },
    {
      "hash": "0x74d2ea984a905a20f68c69441f5596b42983da5e269bb183e042cf62cbef0872",
      "blockHash": "0x36b2f5d917783b34495a4eab3bae6339d415f1a1d17b45530c9aa5c911af4eeb",
      "blockNumber": 55355,
      "transactionIndex": 1,
      "confirmations": null,
      "from": "0x0ae3F81a67725a8A7758FeB8684c6c17dA20755D",
      "gasPrice": {
        "_hex": "0xd5032d19c"
      },
      "gasLimit": {
        "_hex": "0x1e8480"
      },
      "to": "0x109C4f2CCc82C4d77Bde15F306707320294Aea3F",
      "value": {
        "_hex": "0xde0b6b3a7640000"
      },
      "nonce": 143,
      "data": "0x",
      "r": "0x36b26afc74fcf8493ecaf1a342211c8a5576da766f95de7fdbef292d5f81c5ff",
      "s": "0x1ee1b7dc587a2e7cc59956a29c352b1b70888c7a0b989f2ae28b3110c417c26a",
      "v": 27,
      "creates": null,
      "raw": "0xf86e818f850d5032d19c831e848094109c4f2ccc82c4d77bde15f306707320294aea3f880de0b6b3a7640000801ba036b26afc74fcf8493ecaf1a342211c8a5576da766f95de7fdbef292d5f81c5ffa01ee1b7dc587a2e7cc59956a29c352b1b70888c7a0b989f2ae28b3110c417c26a",
      "networkId": 0,
      "chainId": 0
    },
    {
      "hash": "0x231762de319c2753e91a55ec3df4fe78fbecddcc60c2f4f8c42b9fb0106dee38",
      "blockHash": "0x36b2f5d917783b34495a4eab3bae6339d415f1a1d17b45530c9aa5c911af4eeb",
      "blockNumber": 55355,
      "transactionIndex": 2,
      "confirmations": null,
      "from": "0x88a8FC7A629479C643DDEBfaE0882637AAB71a93",
      "gasPrice": {
        "_hex": "0xcb6a084b4"
      },
      "gasLimit": {
        "_hex": "0x5208"
      },
      "to": "0x32Be343B94f860124dC4fEe278FDCBD38C102D88",
      "value": {
        "_hex": "0x10f0cec51f71b100000"
      },
      "nonce": 1,
      "data": "0x",
      "r": "0xbc5a2e0ac9e4d7e17f66b9cebf4a4dde182657551db469d6e36f05905470297e",
      "s": "0x79474c7fc430f0ad9f8db30a01103d9ce0fc8e28363ebe7ff7455d4aa288845a",
      "v": 28,
      "creates": null,
      "raw": "0xf86e01850cb6a084b48252089432be343b94f860124dc4fee278fdcbd38c102d888a010f0cec51f71b100000801ca0bc5a2e0ac9e4d7e17f66b9cebf4a4dde182657551db469d6e36f05905470297ea079474c7fc430f0ad9f8db30a01103d9ce0fc8e28363ebe7ff7455d4aa288845a",
      "networkId": 0,
      "chainId": 0
    }
  ]
}