{
  "hash": "0xda065ba6bc6c5c0c6164c633b256411fc1c3b26c801ff667069ebd2a32b117a3",
  "parentHash": "0x20d564c072c46b4ba410d6bb265b37cae9dd1418be88666ae78d51049b68a6a0",
  "number": 79865,
  "timestamp": 1439476362,
  "nonce": "0x5df7a83b702581e5",
  "difficulty": 2350634664131,
  "gasLimit": {
    "_hex": "0x2fefd8"
  },
  "gasUsed": {
    "_hex": "0x5208"
  },
  "miner": "0xbb7B8287f3F0a933474a79eAe42CBCa977791171",
  "extraData": "0x476574682f4c5649562f76312e302e312f6c696e75782f676f312e342e32",
  "transactions": [
    {
      "hash": "0x2c853600db32300e4ae05071bb17ad6e43f8b97d93792d69eb35c158c0ea3905",
      "blockHash": "0xda065ba6bc6c5c0c6164c633b256411fc1c3b26c801ff667069ebd2a32b117a3",
      "blockNumber": 79865,
      "transactionIndex": 0,
      "confirmations": null,
      "from": "0x2910543Af39abA0Cd09dBb2D50200b3E800A63D2",
      "gasPrice": {
        "_hex": "0xd654893b8"
      },
      "gasLimit": {
        "_hex": "0x5208"
      },
      "to": "0xC40EBC923f794eED9039b84471e77821CaC1faFe",
      "value": {
        "_hex": "0x9ddb0203fc9378000"
      },
      "nonce": 376,
      "data": "0x",
      "r": "0x900eb84f4748c3df4ecc20513d1298f35fd34060622cab736e99d9e7a8ad0e6f",
      "s": "0x7b9c2e32859aa4c9ef76b2ed1f84da1847547da984d3e419f57f24e5dd7eb0ae",
      "v": 28,
      "creates": null,
      "raw": "0xf86f820178850d654893b882520894c40ebc923f794eed9039b84471e77821cac1fafe8909ddb0203fc9378000801ca0900eb84f4748c3df4ecc20513d1298f35fd34060622cab736e99d9e7a8ad0e6fa07b9c2e32859aa4c9ef76b2ed1f84da1847547da984d3e419f57f24e5dd7eb0ae",
      "networkId": 0,
      "chainId": 0
    }
  ]
}