{
  "hash": "0x35960e4c16ca88bf37d65908560ef4ee325584fa076261daacc1de7e4f7363dc",
  "parentHash": "0x0c7ec4ac5354604959fbec8a576232254d00031a3c951a606c1fdad6e846aa06",
  "number": 87430,
  "timestamp": 1439592112,
  "nonce": "0xd8af151fadae1658",
  "difficulty": 3124980668231,
  "gasLimit": {
    "_hex": "0x2fefd8"
  },
  "gasUsed": {
    "_hex": "0xa7e0"
  },
  "miner": "0xe6A7a1d47ff21B6321162AEA7C6CB457D5476Bca",
  "extraData": "0x476574682f76312e302e312d38326566323666362f6c696e75782f676f312e34",
  "transactions": [
    {
      "hash": "0xce3391364c3ee56ad0329854246f1e34e7a30a557bc5216ad40667d0f5dfdc66",
      "blockHash": "0x35960e4c16ca88bf37d65908560ef4ee325584fa076261daacc1de7e4f7363dc",
      "blockNumber": 87430,
      "transactionIndex": 0,
      "confirmations": null,
      "from": "0x6866e5e1FaBB4AbceF3EEb9Ea0d8CD6b52dfC9FF",
      "gasPrice": {
        "_hex": "0xd661ef29c"
      },
      "gasLimit": {
        "_hex": "0x15f90"
      },
      "to": "0x01Ad0ACFf478127D9d702B1A13599D706cB759b1",
      "value": {
        "_hex": "0x4563918244f40000"
      },
      "nonce": 21,
      "data": "0x",
      "r": "0x7a87392c2a3a18af367a55aafdfb9fb5cd68c30f9a3ce6bb4a009bbef67490c1",
      "s": "0x237995b5a397644abb2c411e7f9d4ba88c5e5db77cccbd01f16634ab9a3a52b4",
      "v": 28,
      "creates": null,
      "raw": "0xf86d15850d661ef29c83015f909401ad0acff478127d9d702b1a13599d706cb759b1884563918244f40000801ca07a87392c2a3a18af367a55aafdfb9fb5cd68c30f9a3ce6bb4a009bbef67490c1a0237995b5a397644abb2c411e7f9d4ba88c5e5db77cccbd01f16634ab9a3a52b4",
      "networkId": 0,
      "chainId": 0
    },
    {
      "hash": "0xdc13628a7abf71b3c8c5e75398c6dbbe8bd728abf43d1302c05142b1bbeef448",
      "blockHash": "0x35960e4c16ca88bf37d65908560ef4ee325584fa076261daacc1de7e4f7363dc",
      "blockNumber": 87430,
      "transactionIndex": 1,
      "confirmations": null,
      "from": "0xa7187b19234705E7916DAfE21e3B5eC7BcF6a912",
      "gasPrice": {
        "_hex": "0xd1217f556"
      },
      "gasLimit": {
        "_hex": "0x15f90"
      },
      "to": "0x0000000000000000000000000000000000000000",
      "value": {
        "_hex": "0x2b5c0282441c70000"
      },
      "nonce": 0,
      "data": "0xb214faa53953555856574545390000000000000000000000000000000000000000000000",
      "r": "0x6073bf6be0d7afbeb8ccf1cb2eced466ab77a10bc4761a641ab1e870454ceb7c",
      "s": "0x674315828d4c169df368e4ceced67afc9adf9df60c02d15264fbefadb5eec79e",
      "v": 27,
      "creates": null,
      "raw": "0xf89280850d1217f55683015f909400000000000000000000000000000000000000008902b5c0282441c70000a4b214faa539535558565745453900000000000000000000000000000000000000000000001ba06073bf6be0d7afbeb8ccf1cb2eced466ab77a10bc4761a641ab1e870454ceb7ca0674315828d4c169df368e4ceced67afc9adf9df60c02d15264fbefadb5eec79e",
      "networkId": 0,
      "chainId": 0
    }
  ]
}