{
  "hash": "0xb7472cca15e5bff1a0ce9b7c2f50cbcb18d0ce9a63971b1ed9b48164cf40a8ac",
  "parentHash": "0xa2e40a2d7445d4e5d8ef6007a06377c953411ac92d082d681a1d474e7148b363",
  "number": 86437,
  "timestamp": 1439578130,
  "nonce": "0x9bc4b5359d3b43d8",
  "difficulty": 2897542233884,
  "gasLimit": {
    "_hex": "0x2fefd8"
  },
  "gasUsed": {
    "_hex": "0x5208"
  },
  "miner": "0x5F8F73E26CdF436f19Cb24C82F90A15AFe55b592",
  "extraData": "0x476574682f76312e302e312f77696e646f77732f676f312e342e32",
  "transactions": [
    {
      "hash": "0x4132e9e2ad0e2d6a9010f12327a6f559f522e59c08f3344f12b80c104c308c68",
      "blockHash": "0xb7472cca15e5bff1a0ce9b7c2f50cbcb18d0ce9a63971b1ed9b48164cf40a8ac",
      "blockNumber": 86437,
      "transactionIndex": 0,
      "confirmations": null,
      "from": "0xB0bF4A71F730782368Ef660FE6D298F432F95450",
      "gasPrice": {
        "_hex": "0xcafb8d1a7"
      },
      "gasLimit": {
        "_hex": "0x5208"
      },
      "to": "0x32Be343B94f860124dC4fEe278FDCBD38C102D88",
      "value": {
        "_hex": "0x821a6fc95f1db0000"
      },
      "nonce": 23,
      "data": "0x",
      "r": "0x7915c2f74666eaff4f9bc02d49996d2e3bf428b0bba27ea6b61f5a6af57f10f1",
      "s": "0x2b5e5eb1d5d9274db926c5dd9f4b9138621c48ac916de018499ae71307527411",
      "v": 28,
      "creates": null,
      "raw": "0xf86d17850cafb8d1a78252089432be343b94f860124dc4fee278fdcbd38c102d88890821a6fc95f1db0000801ca07915c2f74666eaff4f9bc02d49996d2e3bf428b0bba27ea6b61f5a6af57f10f1a02b5e5eb1d5d9274db926c5dd9f4b9138621c48ac916de018499ae71307527411",
      "networkId": 0,
      "chainId": 0
    }
  ]
}