{
  "hash": "0x4ebf79449ac5f1b3eebbc7e2ea29f3952d2b0c466e19e2699d2a17cf6d4d917c",
  "parentHash": "0x43e1cad0e30fe1e8ee1654979cffdfadf79b2653856f09cf62f7954d97eb8c58",
  "number": 46920,
  "timestamp": 1438931611,
  "nonce": "0xb778357c33d30131",
  "difficulty": 1456013930936,
  "gasLimit": {
    "_hex": "0x8551"
  },
  "gasUsed": {
    "_hex": "0x5208"
  },
  "miner": "0x9746c7e1ef2bd21FF3997fa467593a89cb852BD0",
  "extraData": "0x476574682f76312e302e312f77696e646f77732f676f312e342e32",
  "transactions": [
    {
      "hash": "0x0849e7c6f3bd4eb5229e7cc07474d4a9e4661a4e289424cfbaae9493978959a0",
      "blockHash": "0x4ebf79449ac5f1b3eebbc7e2ea29f3952d2b0c466e19e2699d2a17cf6d4d917c",
      "blockNumber": 46920,
      "transactionIndex": 0,
      "confirmations": null,
      "from": "0xd7E30ae310C1D1800F5B641Baa7af95b2e1FD98C",
      "gasPrice": {
        "_hex": "0x746a528800"
      },
      "gasLimit": {
        "_hex": "0x5208"
      },
      "to": "0x4019b21f3dB1F288414aC180f3Ea63315B12a7aC",
      "value": {
        "_hex": "0x33fa0b344d4bb1c000"
      },
      "nonce": 5,
      "data": "0x",
      "r": "0x0c0b22dc9f32070fcf36f0816e71c7accdc52a49fd405d97b6b9983c1070b685",
      "s": "0x42828bc63949dfab791e70cf635d48dd4e1a77d99f544a16550a9aa7a43e3635",
      "v": 28,
      "creates": null,
      "raw": "0xf86d0585746a528800825208944019b21f3db1f288414ac180f3ea63315b12a7ac8933fa0b344d4bb1c000801ca00c0b22dc9f32070fcf36f0816e71c7accdc52a49fd405d97b6b9983c1070b685a042828bc63949dfab791e70cf635d48dd4e1a77d99f544a16550a9aa7a43e3635",
      "networkId": 0,
      "chainId": 0
    }
  ]
}