{
  "hash": "0xa51e050220efeee35bda6f6962996bd6150b7f2449c0177eef92c1b4d5a94e72",
  "parentHash": "0x53c6048c523100e70a3d60024eee0dcfe06c2f9fe17708c240382091e34a540c",
  "number": 82776,
  "timestamp": 1439524868,
  "nonce": "0x2a8c55bef813d823",
  "difficulty": 2383329597668,
  "gasLimit": {
    "_hex": "0x2fefd8"
  },
  "gasUsed": {
    "_hex": "0x15f90"
  },
  "miner": "0x87898CE53471043FcCa0a2aF4E1dC6d8B3fCf607",
  "extraData": "0x476574682f5369626572696131392f76312e302e312d37666266393930632f6c",
  "transactions": [
    {
      "hash": "0x286bdbdacc9db224449c7f26564ebd3ce31f027d4d9a88659fc877c55c0806f1",
      "blockHash": "0xa51e050220efeee35bda6f6962996bd6150b7f2449c0177eef92c1b4d5a94e72",
      "blockNumber": 82776,
      "transactionIndex": 0,
      "confirmations": null,
      "from": "0x1c11Aa45C792e202e9ffDc2F12f99D0d209BEf70",
      "gasPrice": {
        "_hex": "0xd26aecf74"
      },
      "gasLimit": {
        "_hex": "0x15f90"
      },
      "to": "0x35F0729966012509BFc40c495f469D538e531712",
      "value": {
        "_hex": "0xa"
      },
      "nonce": 7,
      "data": "0x45466f3a",
      "r": "0x51a833404522f4c0494599d84e0a1160bde2a3a96256afacd2b18ca63bda6f76",
      "s": "0x2bb7ea9d324bc264d05bcd80ddbe057556dabb4b54175951bba7089aa5bbfdbb",
      "v": 27,
      "creates": null,
      "raw": "0xf86907850d26aecf7483015f909435f0729966012509bfc40c495f469d538e5317120a8445466f3a1ba051a833404522f4c0494599d84e0a1160bde2a3a96256afacd2b18ca63bda6f76a02bb7ea9d324bc264d05bcd80ddbe057556dabb4b54175951bba7089aa5bbfdbb",
      "networkId": 0,
      "chainId": 0
    }
  ]
}