{
  "hash": "0x4de0061f373477b8efe06ad8df2edc5db65bae0704e14a6cc371906aec73d1c0",
  "parentHash": "0xe85055f3f9402bd363c5051d7c93991873295141305eb37df6f19b72baebcf4e",
  "number": 101004,
  "timestamp": 1439815930,
  "nonce": "0x4ee4d130d007bd20",
  "difficulty": 3867675640520,
  "gasLimit": {
    "_hex": "0x2fefd8"
  },
  "gasUsed": {
    "_hex": "0xa410"
  },
  "miner": "0xe6A7a1d47ff21B6321162AEA7C6CB457D5476Bca",
  "extraData": "0x476574682f76312e302e312d38326566323666362f6c696e75782f676f312e34",
  "transactions": [
    {
      "hash": "0xad7d5f0edc6ce226110ad95fd1b44472c7af9f21d687afefee7506eac36eabef",
      "blockHash": "0x4de0061f373477b8efe06ad8df2edc5db65bae0704e14a6cc371906aec73d1c0",
      "blockNumber": 101004,
      "transactionIndex": 0,
      "confirmations": null,
      "from": "0x56011d6b57A70c27F7cc294905A5DdA65BfBd154",
      "gasPrice": {
        "_hex": "0x45d964b800"
      },
      "gasLimit": {
        "_hex": "0x5208"
      },
      "to": "0x16C9b930E32c92004105d7F66801C75c61E3408D",
      "value": {
        "_hex": "0x28a857425466f80000"
      },
      "nonce": 0,
      "data": "0x",
      "r": "0x357173a8d978bad2ae3b6688ff9e177c3534b5c4e0521c8a00ee7e87bfb664ca",
      "s": "0x79323a1ab546781158618d110dda32688b42fa8714e9b111b37e1403946d418a",
      "v": 28,
      "creates": null,
      "raw": "0xf86d808545d964b8008252089416c9b930e32c92004105d7f66801c75c61e3408d8928a857425466f80000801ca0357173a8d978bad2ae3b6688ff9e177c3534b5c4e0521c8a00ee7e87bfb664caa079323a1ab546781158618d110dda32688b42fa8714e9b111b37e1403946d418a",
      "networkId": 0,
      "chainId": 0
    },
    {
      "hash": "0xcd1c5b3caa8d20640d9caa5ae19e9bc18b153647f418010345db8ccdd5b0ba5e",
      "blockHash": "0x4de0061f373477b8efe06ad8df2edc5db65bae0704e14a6cc371906aec73d1c0",
      "blockNumber": 101004,
      "transactionIndex": 1,
      "confirmations": null,
      "from": "0x044CAC3315b030415f15b658Fc3341D273B0e568",
      "gasPrice": {
        "_hex": "0xcc109ab1d"
      },
      "gasLimit": {
        "_hex": "0x15f90"
      },
      "to": "0x16769eb8e143358eA396D0CD1Bfe70DC0abd59a4",
      "value": {
        "_hex": "0xde0b6b3a7640000"
      },
      "nonce": 0,
      "data": "0x",
      "r": "0x14214968c571de3bc5c2bd977b3deb010ff0c4bddad1f869c7b19b4aa2bb1226",
      "s": "0x427fee95811a7f1f1d02cb7f567cab92d9319f7ad3bfbebd4fed544bd06760c1",
      "v": 27,
      "creates": null,
      "raw": "0xf86d80850cc109ab1d83015f909416769eb8e143358ea396d0cd1bfe70dc0abd59a4880de0b6b3a7640000801ba014214968c571de3bc5c2bd977b3deb010ff0c4bddad1f869c7b19b4aa2bb1226a0427fee95811a7f1f1d02cb7f567cab92d9319f7ad3bfbebd4fed544bd06760c1",
      "networkId": 0,
      "chainId": 0
    }
  ]
}