{
  "hash": "0x1b630ed7f091fae6b1bbba18497abb9df00d7187d634a9aaff5e805879640e0a",
  "parentHash": "0x6bce654f0a6e24ba3156eb7e43cb1c18b728f0fe7d57792f50de23ac92ab60ae",
  "number": 75470,
  "timestamp": 1439403972,
  "nonce": "0x7cc1d61d7ddd43ce",
  "difficulty": 2206140122537,
  "gasLimit": {
    "_hex": "0x2fefd8"
  },
  "gasUsed": {
    "_hex": "0xc2db"
  },
  "miner": "0xFf9a46E0358502f3Ae5D7faBF50E71A067259A9A",
  "extraData": "0x476574682f76312e302e312f77696e646f77732f676f312e342e32",
  "transactions": [
    {
      "hash": "0x3fed5a4e4d220f4d7a56b6023419958d20c35817cefafa62f25ef36ad5ddd203",
      "blockHash": "0x1b630ed7f091fae6b1bbba18497abb9df00d7187d634a9aaff5e805879640e0a",
      "blockNumber": 75470,
      "transactionIndex": 0,
      "confirmations": null,
      "from": "0x326Be8F71bFb0379f989aAB1CC1fE37f0a771f60",
      "gasPrice": {
        "_hex": "0x116a768cf9c"
      },
      "gasLimit": {
        "_hex": "0x493e0"
      },
      "to": "0xD79B4C6791784184e2755B2fC1659eaaB0f80456",
      "value": {
        "_hex": "0x0"
      },
      "nonce": 98,
      "data": "0xbd66528a73302e3631353430333730383633363638303600000000000000000000000000",
      "r": "0x9830cd7b236d625a0847cd3db79e5286e4fca24eff1ea626d9c95f3ceac94284",
      "s": "0x481bc34072c675bb1de799aed7bd28039a03ee2fbd45582be0ea3f9edbbca02c",
      "v": 28,
      "creates": null,
      "raw": "0xf88a62860116a768cf9c830493e094d79b4c6791784184e2755b2fc1659eaab0f8045680a4bd66528a73302e36313534303337303836333636383036000000000000000000000000001ca09830cd7b236d625a0847cd3db79e5286e4fca24eff1ea626d9c95f3ceac94284a0481bc34072c675bb1de799aed7bd28039a03ee2fbd45582be0ea3f9edbbca02c",
      "networkId": 0,
      "chainId": 0
    },
    {
      "hash": "0x8e0edd5c30e4e68ce57a79aa56760dc299a3393d6f4691487c3da4b19166c660",
      "blockHash": "0x1b630ed7f091fae6b1bbba18497abb9df00d7187d634a9aaff5e805879640e0a",
      "blockNumber": 75470,
      "transactionIndex": 1,
      "confirmations": null,
      "from": "0x26163E84886A136fC8034eB4e9F1cc00b1D345f1",
      "gasPrice": {
        "_hex": "0xd4be89f70"
      },
      "gasLimit": {
        "_hex": "0x15f90"
      },
      "to": "0x6d921977dEFE5f4e0682CA512De1D07b1f4802E1",
      "value": {
        "_hex": "0x1158e460913d00000"
      },
      "nonce": 2,
      "data": "0x",
      "r": "0x37674520b8f6f921f498ad5db290cb1887fb904bfcde72c40dcd8f1bb97d2fae",
      "s": "0x104b9854bdd462af72bdd4a89e5157519f7e6b71b0d98772e2d9c341e4efd4df",
      "v": 28,
      "creates": null,
      "raw": "0xf86e02850d4be89f7083015f90946d921977defe5f4e0682ca512de1d07b1f4802e18901158e460913d00000801ca037674520b8f6f921f498ad5db290cb1887fb904bfcde72c40dcd8f1bb97d2faea0104b9854bdd462af72bdd4a89e5157519f7e6b71b0d98772e2d9c341e4efd4df",
      "networkId": 0,
      "chainId": 0
    }
  ]
}