{
  "hash": "0x853f834539c2d56ebf1884d802420b1d05fe1ae59318fd78cfeca7c4a2b2fba2",
  "parentHash": "0x74197946eee3929b90aa9933258a80e40eedf6981261486071a1927134ad87fc",
  "number": 103982,
  "timestamp": 1439862236,
  "nonce": "0x1f376fc4be49b075",
  "difficulty": 4271256706084,
  "gasLimit": {
    "_hex": "0x2fefd8"
  },
  "gasUsed": {
    "_hex": "0x5208"
  },
  "miner": "0xe6A7a1d47ff21B6321162AEA7C6CB457D5476Bca",
  "extraData": "0x476574682f76312e302e312d38326566323666362f6c696e75782f676f312e34",
  "transactions": [
    {
      "hash": "0xd4615e727cf294c392c15fb25018925c083f920a36674ee83738123f101e9680",
      "blockHash": "0x853f834539c2d56ebf1884d802420b1d05fe1ae59318fd78cfeca7c4a2b2fba2",
      "blockNumber": 103982,
      "transactionIndex": 0,
      "confirmations": null,
      "from": "0x32Be343B94f860124dC4fEe278FDCBD38C102D88",
      "gasPrice": {
        "_hex": "0xcd7ef91a8"
      },
      "gasLimit": {
        "_hex": "0x5208"
      },
      "to": "0x3f6da2f18Ce077B065ac7bcae884bF439a222B35",
      "value": {
        "_hex": "0x4563918244f400000"
      },
      "nonce": 1143,
      "data": "0x",
      "r": "0x66ca554f850711dd9f0bd0d3497d3dbca25b010e7b1b35f3ec6913115f70d569",
      "s": "0x6e8e95e0b989c3cbe77af1afa8555ab9228c2d7eea51b64be4f49e09374e369e",
      "v": 27,
      "creates": null,
      "raw": "0xf86f820477850cd7ef91a8825208943f6da2f18ce077b065ac7bcae884bf439a222b358904563918244f400000801ba066ca554f850711dd9f0bd0d3497d3dbca25b010e7b1b35f3ec6913115f70d569a06e8e95e0b989c3cbe77af1afa8555ab9228c2d7eea51b64be4f49e09374e369e",
      "networkId": 0,
      "chainId": 0
    }
  ]
}