{
  "hash": "0xdb693544627cdec8dddbbe5d7b2e6220bb825a987d38ec6bc86a23405b830ec5",
  "parentHash": "0xbd7b7d50ab93cb91aed2653fa12863cf51685b8d4ea54a65673438e21cc64f59",
  "number": 85378,
  "timestamp": 1439562765,
  "nonce": "0x634ee9b543aab7ed",
  "difficulty": 2728987104198,
  "gasLimit": {
    "_hex": "0x2fefd8"
  },
  "gasUsed": {
    "_hex": "0x5208"
  },
  "miner": "0xe6A7a1d47ff21B6321162AEA7C6CB457D5476Bca",
  "extraData": "0x476574682f76312e302e312d38326566323666362f6c696e75782f676f312e34",
  "transactions": [
    {
      "hash": "0xbe5de1217f921e6cd7f6b5140d5336409db440cb940447618a07e0956dbaf93f",
      "blockHash": "0xdb693544627cdec8dddbbe5d7b2e6220bb825a987d38ec6bc86a23405b830ec5",
      "blockNumber": 85378,
      "transactionIndex": 0,
      "confirmations": null,
      "from": "0x630A913a9031C9492abd4C41Dbb15054CfeC4416",
      "gasPrice": {
        "_hex": "0x10dcc420e99"
      },
      "gasLimit": {
        "_hex": "0x15f90"
      },
      "to": "0xd97FDBc4B51136F7381A02c672E73247F5D6927c",
      "value": {
        "_hex": "0x13451eb0c55622e0000"
      },
      "nonce": 0,
      "data": "0x",
      "r": "0x0e80bbf9c451a85778de0cbaea5cd9567d8a25b61191a63f9515e7b0bc35cdcb",
      "s": "0x0e4f73f13918db4f394da6a8fdb5fc7b407cca7f05f1b52552c672a8c9768d05",
      "v": 27,
      "creates": null,
      "raw": "0xf8708086010dcc420e9983015f9094d97fdbc4b51136f7381a02c672e73247f5d6927c8a013451eb0c55622e0000801ba00e80bbf9c451a85778de0cbaea5cd9567d8a25b61191a63f9515e7b0bc35cdcba00e4f73f13918db4f394da6a8fdb5fc7b407cca7f05f1b52552c672a8c9768d05",
      "networkId": 0,
      "chainId": 0
    }
  ]
}