{
  "hash": "0x9b3226149cf367c40dbbef4f54d568b06cfdebdeb7a0e5129604eb4542383a93",
  "parentHash": "0xc2f2fc117bb0d677c7f4c32bbab5f2a01aea1bd646c8fe7fa8ce2cbbeffc8af8",
  "number": 101361,
  "timestamp": 1439821887,
  "nonce": "0x73e5030558131a3f",
  "difficulty": 3809410448531,
  "gasLimit": {
    "_hex": "0x2fefd8"
  },
  "gasUsed": {
    "_hex": "0x1a5bf"
  },
  "miner": "0x9D49F602b0fdb924Bd63DDE2Bd0907E4A07c63a7",
  "extraData": "0x476574682f76312e302e312f6c696e75782f676f312e342e32",
  "transactions": [
    {
      "hash": "0x43056b1858091fe7cc1db319346ee0b1047e0c80f63e14b2a4deaf6d4acccc92",
      "blockHash": "0x9b3226149cf367c40dbbef4f54d568b06cfdebdeb7a0e5129604eb4542383a93",
      "blockNumber": 101361,
      "transactionIndex": 0,
      "confirmations": null,
      "from": "0x60794423f500DD2F95327fA1ffE71E428D2C0636",
      "gasPrice": {
        "_hex": "0x108e4adfffd"
      },
      "gasLimit": {
        "_hex": "0x4cb2f"
      },
      "to": "0xE6CB12950Da889e4fd2fb2297237271B354C67c7",
      "value": {
        "_hex": "0x5af3107a4000"
      },
      "nonce": 0,
      "data": "0x",
      "r": "0x4824519612596ffb4863a1e0c52a6922eb294f5fdea58a417f0e2b24337cbd4c",
      "s": "0x3e897ecac08408b547f97bb172e458c8a635930c00f12166eac0aef745f550c4",
      "v": 28,
      "creates": null,
      "raw": "0xf86c80860108e4adfffd8304cb2f94e6cb12950da889e4fd2fb2297237271b354c67c7865af3107a4000801ca04824519612596ffb4863a1e0c52a6922eb294f5fdea58a417f0e2b24337cbd4ca03e897ecac08408b547f97bb172e458c8a635930c00f12166eac0aef745f550c4",
      "networkId": 0,
      "chainId": 0
    },
    {
      "hash": "0xe3dc3764d48ce561d373d2cc3a7ac6adad7a5171d7e0e47fa239239e6f8215a7",
      "blockHash": "0x9b3226149cf367c40dbbef4f54d568b06cfdebdeb7a0e5129604eb4542383a93",
      "blockNumber": 101361,
      "transactionIndex": 1,
      "confirmations": null,
      "from": "0x888285790B0b6Cc7FDE84EDdd77A1b2B29089a99",
      "gasPrice": {
        "_hex": "0xdc903bed3"
      },
      "gasLimit": {
        "_hex": "0x15f90"
      },
      "to": "0xAd8d3a5d2d92EB14bB56CA9f380be35b8EFE0c04",
      "value": {
        "_hex": "0x448586170a7dc0000"
      },
      "nonce": 2,
      "data": "0xb214faa54141414141484a48430000000000000000000000000000000000000000000000",
      "r": "0xd7584c9ed7f1b3078a68fd8a197c766de9b1e0544d6d12453bcca01d9afb9c32",
      "s": "0x6be4143655e7554cf3958961f8fd853d4f6c2901a6b673108508cdbb42e1b9cd",
      "v": 28,
      "creates": null,
      "raw": "0xf89202850dc903bed383015f9094ad8d3a5d2d92eb14bb56ca9f380be35b8efe0c04890448586170a7dc0000a4b214faa54141414141484a484300000000000000000000000000000000000000000000001ca0d7584c9ed7f1b3078a68fd8a197c766de9b1e0544d6d12453bcca01d9afb9c32a06be4143655e7554cf3958961f8fd853d4f6c2901a6b673108508cdbb42e1b9cd",
      "networkId": 0,
      "chainId": 0
    },
    {
      "hash": "0xe5916346b37e6dd5d4abdbe7183fd99893f797332a861d73148bb83b7b8c2856",
      "blockHash": "0x9b3226149cf367c40dbbef4f54d568b06cfdebdeb7a0e5129604eb4542383a93",
      "blockNumber": 101361,
      "transactionIndex": 2,
      "confirmations": null,
      "from": "0x5c59E28366c83f1d262567c1c529185146e68b16",
      "gasPrice": {
        "_hex": "0xce3e779cf"
      },
      "gasLimit": {
        "_hex": "0x5208"
      },
      "to": "0x32Be343B94f860124dC4fEe278FDCBD38C102D88",
      "value": {
        "_hex": "0x25f25dae5c99680000"
      },
      "nonce": 7,
      "data": "0x",
      "r": "0xfaee105f9d8d864470b0640579ceb8ee11f7b096b7e1b7ccc6916074df92e6f6",
      "s": "0x21fce18ecd32d0d04783e901314de4e0cb87c235870a1828319e72d950c41768",
      "v": 27,
      "creates": null,
      "raw": "0xf86d07850ce3e779cf8252089432be343b94f860124dc4fee278fdcbd38c102d888925f25dae5c99680000801ba0faee105f9d8d864470b0640579ceb8ee11f7b096b7e1b7ccc6916074df92e6f6a021fce18ecd32d0d04783e901314de4e0cb87c235870a1828319e72d950c41768",
      "networkId": 0,
      "chainId": 0
    },
    {
      "hash": "0x55c3d73e96d175c252bd0c3f5f48bc39accad41b1d4a67003cf8bb87a16d0a64",
      "blockHash": "0x9b3226149cf367c40dbbef4f54d568b06cfdebdeb7a0e5129604eb4542383a93",
      "blockNumber": 101361,
      "transactionIndex": 3,
      "confirmations": null,
      "from": "0x61F642543d22bAf5382908a714E675Cc0b51ea45",
      "gasPrice": {
        "_hex": "0xce3e779cf"
      },
      "gasLimit": {
        "_hex": "0x5208"
      },
      "to": "0x32Be343B94f860124dC4fEe278FDCBD38C102D88",
      "value": {
        "_hex": "0xb301e03f3e624000"
      },
      "nonce": 12,
      "data": "0x",
      "r": "0x7eea1c8d874e52983cce3dd1ebb7e0daf89744b5999e95361878b565bc57a57e",
      "s": "0x0f072a31f9efd37dad45a9067518a130c238ed05e7f7576cc960f5cd1235f221",
      "v": 27,
      "creates": null,
      "raw": "0xf86c0c850ce3e779cf8252089432be343b94f860124dc4fee278fdcbd38c102d8888b301e03f3e624000801ba07eea1c8d874e52983cce3dd1ebb7e0daf89744b5999e95361878b565bc57a57ea00f072a31f9efd37dad45a9067518a130c238ed05e7f7576cc960f5cd1235f221",
      "networkId": 0,
      "chainId": 0
    },
    {
      "hash": "0xdd176cf8bbc349b4eca3ab5018d42f740102e9db6f369b73da6b56d92dce1c76",
      "blockHash": "0x9b3226149cf367c40dbbef4f54d568b06cfdebdeb7a0e5129604eb4542383a93",
      "blockNumber": 101361,
      "transactionIndex": 4,
      "confirmations": null,
      "from": "0xb1abce2918E21ddb93AA452731a12672A3d9F75a",
      "gasPrice": {
        "_hex": "0xce3e779cf"
      },
      "gasLimit": {
        "_hex": "0x5208"
      },
      "to": "0x32Be343B94f860124dC4fEe278FDCBD38C102D88",
      "value": {
        "_hex": "0x8ac3019ca5c04000"
      },
      "nonce": 89,
      "data": "0x",
      "r": "0x580c21098ea50c21efa09baddcd4f9457417c9479fdd9f3bd16a7abc216f951e",
      "s": "0x324a0e20ea88f812cb2a33501ddbadbcacc765e22e30e2deaae8df317455b4fd",
      "v": 28,
      "creates": null,
      "raw": "0xf86c59850ce3e779cf8252089432be343b94f860124dc4fee278fdcbd38c102d88888ac3019ca5c04000801ca0580c21098ea50c21efa09baddcd4f9457417c9479fdd9f3bd16a7abc216f951ea0324a0e20ea88f812cb2a33501ddbadbcacc765e22e30e2deaae8df317455b4fd",
      "networkId": 0,
      "chainId": 0
    }
  ]
}