{
  "hash": "0x2a58f7474715cc92c3c6d3168b8e779e78190fe0ba070a47a1eef71018c4dedb",
  "parentHash": "0x5b08ac2ef5db1321c3c2fd946d3bbc68f808ebc7240591a1b4e0b3c9fafa1dbd",
  "number": 63851,
  "timestamp": 1439211287,
  "nonce": "0xf19b0269fe44dab5",
  "difficulty": 1852173816766,
  "gasLimit": {
    "_hex": "0x2fefd5"
  },
  "gasUsed": {
    "_hex": "0x112d8"
  },
  "miner": "0xbb7B8287f3F0a933474a79eAe42CBCa977791171",
  "extraData": "0x476574682f4c5649562f76312e302e312f6c696e75782f676f312e342e32",
  "transactions": [
    {
      "hash": "0x249c05d493ea77377d87fd486b6befa9c5bfad5ff4bfa91f50ad9937ac257ef9",
      "blockHash": "0x2a58f7474715cc92c3c6d3168b8e779e78190fe0ba070a47a1eef71018c4dedb",
      "blockNumber": 63851,
      "transactionIndex": 0,
      "confirmations": null,
      "from": "0x0B5e2011eBc25a007f21362960498AFb8Af280fb",
      "gasPrice": {
        "_hex": "0xd7d40ace3"
      },
      "gasLimit": {
        "_hex": "0x55f0"
      },
      "to": "0x2910543Af39abA0Cd09dBb2D50200b3E800A63D2",
      "value": {
        "_hex": "0x2086ac351052600000"
      },
      "nonce": 1,
      "data": "0x454e58395059555538",
      "r": "0xbd11e08cc5a4efdb72852a1f975a6e7c5e98d9628d25708b7a5c01ca754e9d39",
      "s": "0x6c62e990df818aed9fe45e865c783c4bf92337c620d802d8922ba8303149a1d7",
      "v": 27,
      "creates": null,
      "raw": "0xf87601850d7d40ace38255f0942910543af39aba0cd09dbb2d50200b3e800a63d2892086ac35105260000089454e583950595555381ba0bd11e08cc5a4efdb72852a1f975a6e7c5e98d9628d25708b7a5c01ca754e9d39a06c62e990df818aed9fe45e865c783c4bf92337c620d802d8922ba8303149a1d7",
      "networkId": 0,
      "chainId": 0
    },
    {
      "hash": "0x9713ba843d67f534876c8ab994d20ea44c7109ab938ecc7bb310136f26303dde",
      "blockHash": "0x2a58f7474715cc92c3c6d3168b8e779e78190fe0ba070a47a1eef71018c4dedb",
      "blockNumber": 63851,
      "transactionIndex": 1,
      "confirmations": null,
      "from": "0x54dAeb3E8a6BBC797E4aD2b0339f134b186e4637",
      "gasPrice": {
        "_hex": "0xd1e5dabdd"
      },
      "gasLimit": {
        "_hex": "0x15f90"
      },
      "to": "0x793AE8C1b1a160BFc07BFB0d04F85eab1A71F4f2",
      "value": {
        "_hex": "0x0"
      },
      "nonce": 972,
      "data": "0x3ba15036",
      "r": "0xc2e411ed68530131f31c039de2d02dcd8bddc97d81bd1c713cf82e9ebf8d3df3",
      "s": "0x3eeafd5cc90df137767513ad70ac06c12532fe9e4f37ae6d7a939eb519356d05",
      "v": 27,
      "creates": null,
      "raw": "0xf86b8203cc850d1e5dabdd83015f9094793ae8c1b1a160bfc07bfb0d04f85eab1a71f4f280843ba150361ba0c2e411ed68530131f31c039de2d02dcd8bddc97d81bd1c713cf82e9ebf8d3df3a03eeafd5cc90df137767513ad70ac06c12532fe9e4f37ae6d7a939eb519356d05",
      "networkId": 0,
      "chainId": 0
    }
  ]
}