{
  "hash": "0x9e0a9043dd3584406018634a639a92ac9a8d18cb59f43aaddd97d181994993c1",
  "parentHash": "0xe4b3cf19462102b0395a3a5aef3428e4c5466569b94c5a1f8590c390cf0c1aa1",
  "number": 78676,
  "timestamp": 1439457511,
  "nonce": "0x6bf6079582e37672",
  "difficulty": 2295386682126,
  "gasLimit": {
    "_hex": "0x2fefd8"
  },
  "gasUsed": {
    "_hex": "0xcc69"
  },
  "miner": "0xf927a40C8B7F6E07c5af7FA2155B4864a4112B13",
  "extraData": "0x",
  "transactions": [
    {
      "hash": "0x6919c5333e58ed02293c0776da979e3e7dc3787f6df523068324cb6722c3efa1",
      "blockHash": "0x9e0a9043dd3584406018634a639a92ac9a8d18cb59f43aaddd97d181994993c1",
      "blockNumber": 78676,
      "transactionIndex": 0,
      "confirmations": null,
      "from": "0x32Be343B94f860124dC4fEe278FDCBD38C102D88",
      "gasPrice": {
        "_hex": "0xd9f1b9ff5"
      },
      "gasLimit": {
        "_hex": "0x5208"
      },
      "to": "0x5170535271F5B9eC438c0447b3daD67b3E2633f2",
      "value": {
        "_hex": "0x29a2241af62c0000"
      },
      "nonce": 398,
      "data": "0x",
      "r": "0x74c1302545cb032a4e11cfd468fc01d05fcc88e7bd6d7b632b76c9545a70cc31",
      "s": "0x7f36630ceee10845907016b80c2767d1fc059127286afd5189c61d27e357e629",
      "v": 28,
      "creates": null,
      "raw": "0xf86e82018e850d9f1b9ff5825208945170535271f5b9ec438c0447b3dad67b3e2633f28829a2241af62c0000801ca074c1302545cb032a4e11cfd468fc01d05fcc88e7bd6d7b632b76c9545a70cc31a07f36630ceee10845907016b80c2767d1fc059127286afd5189c61d27e357e629",
      "networkId": 0,
      "chainId": 0
    },
    {
      "hash": "0xd3e5006b1dd54d4aed2eb351487798ca116d5c554a29577d661b64b7fde1847e",
      "blockHash": "0x9e0a9043dd3584406018634a639a92ac9a8d18cb59f43aaddd97d181994993c1",
      "blockNumber": 78676,
      "transactionIndex": 1,
      "confirmations": null,
      "from": "0xD1826373C4E0938f0b4302B40324f7f9c546492C",
      "gasPrice": {
        "_hex": "0xce31a3857"
      },
      "gasLimit": {
        "_hex": "0x30d40"
      },
      "to": "0x94501FF386c3E84cB8FE37924Daa869151417e55",
      "value": {
        "_hex": "0x38d7ea4c68000"
      },
      "nonce": 18,
      "data": "0x",
      "r": "0x73d4e2ea6a96d664a2314125d5e57a3ac3d390d0d038444b4cd4eb0f1479dc69",
      "s": "0x666d070b22dd6109751d02ba9f7e41bf2f93a13ce4905be0a0cf6aa688ab788e",
      "v": 28,
      "creates": null,
      "raw": "0xf86c12850ce31a385783030d409494501ff386c3e84cb8fe37924daa869151417e5587038d7ea4c68000801ca073d4e2ea6a96d664a2314125d5e57a3ac3d390d0d038444b4cd4eb0f1479dc69a0666d070b22dd6109751d02ba9f7e41bf2f93a13ce4905be0a0cf6aa688ab788e",
      "networkId": 0,
      "chainId": 0
    }
  ]
}