{
  "hash": "0xb7a7e47266a42f9efb6155233fb4c4549b2deb7effecf7f60d4749935057316a",
  "parentHash": "0xe54faf3c5a66f8cf013a14c7e0d6523f623c02d74463f9130aeda141f0f2c5d9",
  "number": 66885,
  "timestamp": 1439261978,
  "nonce": "0xcb36175f363ed17a",
  "difficulty": 1953669201068,
  "gasLimit": {
    "_hex": "0x2fefd8"
  },
  "gasUsed": {
    "_hex": "0x5208"
  },
  "miner": "0x47ff6576639c2e94762eA5443978D7681C0E78DC",
  "extraData": "0x476574682f76312e302e312f6c696e75782f676f312e342e32",
  "transactions": [
    {
      "hash": "0x178ad29239f03fb5e7522ef198ae2f5ff73a4be7d8201589f64750fee2c0432e",
      "blockHash": "0xb7a7e47266a42f9efb6155233fb4c4549b2deb7effecf7f60d4749935057316a",
      "blockNumber": 66885,
      "transactionIndex": 0,
      "confirmations": null,
      "from": "0x2910543Af39abA0Cd09dBb2D50200b3E800A63D2",
      "gasPrice": {
        "_hex": "0xd1986a217"
      },
      "gasLimit": {
        "_hex": "0x5208"
      },
      "to": "0x03aEF6616c649a6659E4Ba706b4fe181cDAA68F7",
      "value": {
        "_hex": "0x68d7927dc15d978000"
      },
      "nonce": 206,
      "data": "0x",
      "r": "0x1cf3b0f3a214886e62682c504403a01886f23bfbc389c46660a97d06b7eeba5f",
      "s": "0x415677f286aafc2c0f3f4289d2786b64c2a65ed7d6da646c736498ed0851ed16",
      "v": 27,
      "creates": null,
      "raw": "0xf86e81ce850d1986a2178252089403aef6616c649a6659e4ba706b4fe181cdaa68f78968d7927dc15d978000801ba01cf3b0f3a214886e62682c504403a01886f23bfbc389c46660a97d06b7eeba5fa0415677f286aafc2c0f3f4289d2786b64c2a65ed7d6da646c736498ed0851ed16",
      "networkId": 0,
      "chainId": 0
    }
  ]
}