{
  "hash": "0xdb952111b9b46fe93f9d00543cc87d976044f645e5ccf243d265f553972a0948",
  "parentHash": "0xd27e583674b06563f8fccb18d93274ba634b7d5db7e3a7ad32bd159820c57294",
  "number": 86558,
  "timestamp": 1439579855,
  "nonce": "0x937d67e856b2fd32",
  "difficulty": 2901747935037,
  "gasLimit": {
    "_hex": "0x2fefd8"
  },
  "gasUsed": {
    "_hex": "0xf618"
  },
  "miner": "0xbb7B8287f3F0a933474a79eAe42CBCa977791171",
  "extraData": "0x476574682f4c5649562f76312e302e312f6c696e75782f676f312e342e32",
  "transactions": [
    {
      "hash": "0x7236aa4a0048b9d2916788cb00636ca50def51455ca5421d18e155dcebb6889c",
      "blockHash": "0xdb952111b9b46fe93f9d00543cc87d976044f645e5ccf243d265f553972a0948",
      "blockNumber": 86558,
      "transactionIndex": 0,
      "confirmations": null,
      "from": "0x1308A2e95c0160B90803ddCA9B9a5bb55E416d79",
      "gasPrice": {
        "_hex": "0xd74f5c82a"
      },
      "gasLimit": {
        "_hex": "0x15f90"
      },
      "to": "0xd50EC384FEdb1033ad98072b30a5315f71cE5Bbb",
      "value": {
        "_hex": "0x56900d33ca7fc0000"
      },
      "nonce": 132,
      "data": "0x",
      "r": "0x33f4bb7e9159ec72173cdcd1317ab44ca84d22fbd13b410b5f8f5f18380abc60",
      "s": "0x435a8d3750962657df031b5f28789dc54d254cc603f9afb8c1e8d1229951a219",
      "v": 28,
      "creates": null,
      "raw": "0xf86f8184850d74f5c82a83015f9094d50ec384fedb1033ad98072b30a5315f71ce5bbb89056900d33ca7fc0000801ca033f4bb7e9159ec72173cdcd1317ab44ca84d22fbd13b410b5f8f5f18380abc60a0435a8d3750962657df031b5f28789dc54d254cc603f9afb8c1e8d1229951a219",
      "networkId": 0,
      "chainId": 0
    },
    {
      "hash": "0x59e22fa082a11a7d99d797b3163b4399f268cbf5ec2b95be9f767b74f3b6f2d6",
      "blockHash": "0xdb952111b9b46fe93f9d00543cc87d976044f645e5ccf243d265f553972a0948",
      "blockNumber": 86558,
      "transactionIndex": 1,
      "confirmations": null,
      "from": "0x3668a45E28EDD089fcBe31209de076cef5F06501",
      "gasPrice": {
        "_hex": "0xd26eef783"
      },
      "gasLimit": {
        "_hex": "0x5208"
      },
      "to": "0x32Be343B94f860124dC4fEe278FDCBD38C102D88",
      "value": {
        "_hex": "0x5a219e25a1bbac0000"
      },
      "nonce": 1,
      "data": "0x",
      "r": "0xb8d6f3eaa7c8e1da863918584d2c05554c7954664f847d5f772e851105218f47",
      "s": "0x5e56cce75676648418157c24442ac50d6dbd788e1a2a85efd1863b45a6915ddd",
      "v": 27,
      "creates": null,
      "raw": "0xf86d01850d26eef7838252089432be343b94f860124dc4fee278fdcbd38c102d88895a219e25a1bbac0000801ba0b8d6f3eaa7c8e1da863918584d2c05554c7954664f847d5f772e851105218f47a05e56cce75676648418157c24442ac50d6dbd788e1a2a85efd1863b45a6915ddd",
      "networkId": 0,
      "chainId": 0
    },
    {
      "hash": "0x65b63f504bb443f044ae4c0ee145bf95c00ea561cce1d2d9992b93c7be05547b",
      "blockHash": "0xdb952111b9b46fe93f9d00543cc87d976044f645e5ccf243d265f553972a0948",
      "blockNumber": 86558,
      "transactionIndex": 2,
      "confirmations": null,
      "from": "0xc1A75C10a8df8afd0F5f33890CEc81a2FE8dbc69",
      "gasPrice": {
        "_hex": "0xd26eef783"
      },
      "gasLimit": {
        "_hex": "0x5208"
      },
      "to": "0x32Be343B94f860124dC4fEe278FDCBD38C102D88",
      "value": {
        "_hex": "0x83e6141aef76b80000"
      },
      "nonce": 0,
      "data": "0x",
      "r": "0x57524b859cba98709785e1aa7460e567010d524bd70247d19b1e17433724906e",
      "s": "0x71689be7b170b66095fa2ad3ddb6075811ede4b34152871ef5dc5982b1c44497",
      "v": 28,
      "creates": null,
      "raw": "0xf86d80850d26eef7838252089432be343b94f860124dc4fee278fdcbd38c102d888983e6141aef76b80000801ca057524b859cba98709785e1aa7460e567010d524bd70247d19b1e17433724906ea071689be7b170b66095fa2ad3ddb6075811ede4b34152871ef5dc5982b1c44497",
      "networkId": 0,
      "chainId": 0
    }
  ]
}