{
  "hash": "0xffa8958fc9085623ce7989f987bc6da93e1638a7c562d6df15dab6e5297564c5",
  "parentHash": "0xc69ccd9c627152652b12ad9ce647fa1a75cd84efcb822965d081b6f30937dfd3",
  "number": 74925,
  "timestamp": 1439394726,
  "nonce": "0x3716e97997c6325c",
  "difficulty": 2192323082698,
  "gasLimit": {
    "_hex": "0x2fefd8"
  },
  "gasUsed": {
    "_hex": "0x5208"
  },
  "miner": "0xfFcD9CAE6d9f54fd8ae05296F839892677ff6EaA",
  "extraData": "0x476574682f76312e302e312f77696e646f77732f676f312e342e32",
  "transactions": [
    {
      "hash": "0xbc1b2df74b03ef300187c7b26993a89d9b29923a95ae40ae6f4b407c8dc8f34e",
      "blockHash": "0xffa8958fc9085623ce7989f987bc6da93e1638a7c562d6df15dab6e5297564c5",
      "blockNumber": 74925,
      "transactionIndex": 0,
      "confirmations": null,
      "from": "0x7339BF89A60F8a29d0Ed436F3198774F8e191f37",
      "gasPrice": {
        "_hex": "0xd5097ba42"
      },
      "gasLimit": {
        "_hex": "0x5208"
      },
      "to": "0x32Be343B94f860124dC4fEe278FDCBD38C102D88",
      "value": {
        "_hex": "0x6782fa410274f400"
      },
      "nonce": 2,
      "data": "0x",
      "r": "0x2409912d598e6c8d0532ed6dbce561f284cee8dc3ca10fc7f9a129f153f76c14",
      "s": "0x4093e02434e52111783d16f6e1b8cb13c735fbee2a1d696cb240bd941ed98cd3",
      "v": 27,
      "creates": null,
      "raw": "0xf86c02850d5097ba428252089432be343b94f860124dc4fee278fdcbd38c102d88886782fa410274f400801ba02409912d598e6c8d0532ed6dbce561f284cee8dc3ca10fc7f9a129f153f76c14a04093e02434e52111783d16f6e1b8cb13c735fbee2a1d696cb240bd941ed98cd3",
      "networkId": 0,
      "chainId": 0
    }
  ]
}