{
  "hash": "0x6d2a5f6aa76a11f800f6e9bdcb6c1712e8e0f83ac151aa5a10ab1669693e9fe1",
  "parentHash": "0x2c699bd7ca07ec4af4308cf54f3154c9c29540fc71c28dce3b82cffb1ea1e9f4",
  "number": 122302,
  "timestamp": 1440191864,
  "nonce": "0xe56d37d0b780f0e9",
  "difficulty": 4462113894864,
  "gasLimit": {
    "_hex": "0x2fefd8"
  },
  "gasUsed": {
    "_hex": "0x5208"
  },
  "miner": "0x9D49F602b0fdb924Bd63DDE2Bd0907E4A07c63a7",
  "extraData": "0x",
  "transactions": [
    {
      "hash": "0x684c39cc7ffd7f468f28ff0660ac85bcd60e044e02675c0b79835d99793b3b8a",
      "blockHash": "0x6d2a5f6aa76a11f800f6e9bdcb6c1712e8e0f83ac151aa5a10ab1669693e9fe1",
      "blockNumber": 122302,
      "transactionIndex": 0,
      "confirmations": null,
      "from": "0xB1A4B41b8e75a153841c99c62d18588d45e7b406",
      "gasPrice": {
        "_hex": "0xba43b7400"
      },
      "gasLimit": {
        "_hex": "0x15f90"
      },
      "to": "0x4dB50F830a2f6833D9D643BE8C22B02c52072FdE",
      "value": {
        "_hex": "0x4563918244f40000"
      },
      "nonce": 13,
      "data": "0x",
      "r": "0xb1ca658579a9309af3b8b9f149ccccd04ef5cad044d7cc09d78c7bcd5d3db5ad",
      "s": "0x1d459734b2533affac59f4e49c88494db550966b0f59f7344b94c7b5a45acfa7",
      "v": 28,
      "creates": null,
      "raw": "0xf86d0d850ba43b740083015f90944db50f830a2f6833d9d643be8c22b02c52072fde884563918244f40000801ca0b1ca658579a9309af3b8b9f149ccccd04ef5cad044d7cc09d78c7bcd5d3db5ada01d459734b2533affac59f4e49c88494db550966b0f59f7344b94c7b5a45acfa7",
      "networkId": 0,
      "chainId": 0
    }
  ]
}