{
  "hash": "0xf549f0926fa461127960baa8a8c4228cac4eab8c017de961d0ec1e3f4bf759a1",
  "parentHash": "0x560d1b4f5f1b9142495d3dfd8ccf537f300cbc05dc64231138016512b77db88b",
  "number": 96258,
  "timestamp": 1439737499,
  "nonce": "0x1d1b1a5cd66f0deb",
  "difficulty": 3671077093936,
  "gasLimit": {
    "_hex": "0x2fefd8"
  },
  "gasUsed": {
    "_hex": "0x5208"
  },
  "miner": "0xbb7B8287f3F0a933474a79eAe42CBCa977791171",
  "extraData": "0x476574682f4c5649562f76312e302e312f6c696e75782f676f312e342e32",
  "transactions": [
    {
      "hash": "0x8ff808692d58598174003de12d2a7f0665f18197eb6e4e32e07740efba00acfd",
      "blockHash": "0xf549f0926fa461127960baa8a8c4228cac4eab8c017de961d0ec1e3f4bf759a1",
      "blockNumber": 96258,
      "transactionIndex": 0,
      "confirmations": null,
      "from": "0x8BeF58cf6D5f4fdE02e940a20D56b052F89Cf42f",
      "gasPrice": {
        "_hex": "0x9184e72a000"
      },
      "gasLimit": {
        "_hex": "0x96526"
      },
      "to": "0x0000000000000000000000000000000000000000",
      "value": {
        "_hex": "0xde0b6b3a7640000"
      },
      "nonce": 1,
      "data": "0x",
      "r": "0xf213d9bc1b8c1bdb33d591931b1b582e6a7a29d75017f2c6a9e7a5507f5859e7",
      "s": "0x25d1d67bb0e66c77da6c46f3f2fbec597dc2bbdcab34e4bcdc14c2e8086830b0",
      "v": 28,
      "creates": null,
      "raw": "0xf86e018609184e72a00083096526940000000000000000000000000000000000000000880de0b6b3a7640000801ca0f213d9bc1b8c1bdb33d591931b1b582e6a7a29d75017f2c6a9e7a5507f5859e7a025d1d67bb0e66c77da6c46f3f2fbec597dc2bbdcab34e4bcdc14c2e8086830b0",
      "networkId": 0,
      "chainId": 0
    }
  ]
}