{
  "hash": "0x37d731eeaadef29bbd5f8870f2335d22f9a39131a025fea6c17080877a4afce0",
  "parentHash": "0x2e0591e97be6460609c5fbc99d15f57fc59c87acaee6a2e1e361b80e608c3d93",
  "number": 91575,
  "timestamp": 1439657899,
  "nonce": "0xd90e668c61afa2c7",
  "difficulty": 3496375820346,
  "gasLimit": {
    "_hex": "0x2fefd8"
  },
  "gasUsed": {
    "_hex": "0x5208"
  },
  "miner": "0x790b8a3cE86E707ED0eD32bF89B3269692a23CC1",
  "extraData": "0xd783010001844765746887676f312e342e32856c696e7578",
  "transactions": [
    {
      "hash": "0x9b79190365833b78a56065502a696cb07946f25b8ff3f13d1cca6da93575a9de",
      "blockHash": "0x37d731eeaadef29bbd5f8870f2335d22f9a39131a025fea6c17080877a4afce0",
      "blockNumber": 91575,
      "transactionIndex": 0,
      "confirmations": null,
      "from": "0x8293b65bD915B9FF87F6aDAb479da2e5b6633fDB",
      "gasPrice": {
        "_hex": "0xcce585b13"
      },
      "gasLimit": {
        "_hex": "0x15f90"
      },
      "to": "0x9f78552704fe7e52cC7C3853534aA2C3cf580D54",
      "value": {
        "_hex": "0x4563918244f40000"
      },
      "nonce": 20,
      "data": "0x",
      "r": "0xc3a31f27bc3c8b625d5143c02493bedfba7b5591d1bffa316ae9177c7dc737ff",
      "s": "0x35f2721e4caefc6d45a8eeb258a7828da11c3c9c499f1469dd3356b31d550ee7",
      "v": 28,
      "creates": null,
      "raw": "0xf86d14850cce585b1383015f90949f78552704fe7e52cc7c3853534aa2c3cf580d54884563918244f40000801ca0c3a31f27bc3c8b625d5143c02493bedfba7b5591d1bffa316ae9177c7dc737ffa035f2721e4caefc6d45a8eeb258a7828da11c3c9c499f1469dd3356b31d550ee7",
      "networkId": 0,
      "chainId": 0
    }
  ]
}