{
  "hash": "0xc2920dc33fe795d67fcb621ca206d3a2c6548079befc67c1be4828ffd2765bec",
  "parentHash": "0x2c7cc5603fd359f293e72d4423470314ee9c5e2666959ea20b680c56b5d375db",
  "number": 75294,
  "timestamp": 1439400773,
  "nonce": "0x1bff3ba9963181b4",
  "difficulty": 2204032982258,
  "gasLimit": {
    "_hex": "0x2fefd8"
  },
  "gasUsed": {
    "_hex": "0x8f9f"
  },
  "miner": "0xC603Ab5ef41fC61AA8b76bEddb09e3Cfcbb174BD",
  "extraData": "0x476574682f76312e302e312f77696e646f77732f676f312e342e32",
  "transactions": [
    {
      "hash": "0x24675e5871d8cb047e7ead19b1bc61915a03129aa145c3c6cae4c999cc80da87",
      "blockHash": "0xc2920dc33fe795d67fcb621ca206d3a2c6548079befc67c1be4828ffd2765bec",
      "blockNumber": 75294,
      "transactionIndex": 0,
      "confirmations": null,
      "from": "0x9724Ac4dc56e03379eBA5d157D1513EcC32cBD8f",
      "gasPrice": {
        "_hex": "0xcd82198e8"
      },
      "gasLimit": {
        "_hex": "0x493e0"
      },
      "to": "0xD79B4C6791784184e2755B2fC1659eaaB0f80456",
      "value": {
        "_hex": "0xde0b6b3a7640000"
      },
      "nonce": 3,
      "data": "0x8d21618600000000000000000000000000000000000000000000000000000000000000802d6cb5f559b649a2b754f66c6717183659e8644fcab83b4ffc1db88e2ec0dace",
      "r": "0x507f5b4235b0a75ce038d658d4a80b97df98e5d36ed11ef618129575016c3ad7",
      "s": "0x388b62bab783fffbad2919da7bb339d8fa537cfc894bb48adc0b0b1d4440d3ff",
      "v": 28,
      "creates": null,
      "raw": "0xf8b203850cd82198e8830493e094d79b4c6791784184e2755b2fc1659eaab0f80456880de0b6b3a7640000b8448d21618600000000000000000000000000000000000000000000000000000000000000802d6cb5f559b649a2b754f66c6717183659e8644fcab83b4ffc1db88e2ec0dace1ca0507f5b4235b0a75ce038d658d4a80b97df98e5d36ed11ef618129575016c3ad7a0388b62bab783fffbad2919da7bb339d8fa537cfc894bb48adc0b0b1d4440d3ff",
      "networkId": 0,
      "chainId": 0
    }
  ]
}