{
  "hash": "0x1269290c017dff732fb19f97de8ef20f91a0bbbc18d14bd209b50cf3e187d2b7",
  "parentHash": "0xad20e97984e7d582fdd7de0cbb575f3d61946b73c5e23b1df06034549d98f551",
  "number": 93520,
  "timestamp": 1439692063,
  "nonce": "0x7fa5b60f56e0e821",
  "difficulty": 3490448528500,
  "gasLimit": {
    "_hex": "0x2fefd8"
  },
  "gasUsed": {
    "_hex": "0xbb3e"
  },
  "miner": "0xA21Ba94e45f0E168dA824fC67aC9cb5Cb577a8aF",
  "extraData": "0x",
  "transactions": [
    {
      "hash": "0xa4e2939b67b29c3a7d5c8818ce98636c683a6d60592dd89d13541d53eb9841fd",
      "blockHash": "0x1269290c017dff732fb19f97de8ef20f91a0bbbc18d14bd209b50cf3e187d2b7",
      "blockNumber": 93520,
      "transactionIndex": 0,
      "confirmations": null,
      "from": "0x0F9c57Ebf3A5ba27b543bB64220caA7b4478B04b",
      "gasPrice": {
        "_hex": "0xd815c38f0"
      },
      "gasLimit": {
        "_hex": "0x15f90"
      },
      "to": "0xCAc7000C7dBaa2E33Af15325AF5D435E011C7BdD",
      "value": {
        "_hex": "0x6c6b935b8bbd40000"
      },
      "nonce": 1,
      "data": "0xb214faa54c39584d534d4d30340000000000000000000000000000000000000000000000",
      "r": "0xf45ee9d9f556057ef431a8a171f599401bcfd5b3dd8fdb8c097d5b51e2621aeb",
      "s": "0x25cf396ee8c4b1460478b0f92c74a13c3304cd91e1502bc55851539185180b78",
      "v": 28,
      "creates": null,
      "raw": "0xf89201850d815c38f083015f9094cac7000c7dbaa2e33af15325af5d435e011c7bdd8906c6b935b8bbd40000a4b214faa54c39584d534d4d303400000000000000000000000000000000000000000000001ca0f45ee9d9f556057ef431a8a171f599401bcfd5b3dd8fdb8c097d5b51e2621aeba025cf396ee8c4b1460478b0f92c74a13c3304cd91e1502bc55851539185180b78",
      "networkId": 0,
      "chainId": 0
    },
    {
      "hash": "0xf22d8199c893220fc2f7cdea6d0c73129b78686159096c29a524be5a637c5145",
      "blockHash": "0x1269290c017dff732fb19f97de8ef20f91a0bbbc18d14bd209b50cf3e187d2b7",
      "blockNumber": 93520,
      "transactionIndex": 1,
      "confirmations": null,
      "from": "0x02020D22dCF88f5eDd66B382D7da019F161fB7e3",
      "gasPrice": {
        "_hex": "0xd1b51735e"
      },
      "gasLimit": {
        "_hex": "0x15f90"
      },
      "to": "0xCAc7000C7dBaa2E33Af15325AF5D435E011C7BdD",
      "value": {
        "_hex": "0x1f0ff8f01daad40000"
      },
      "nonce": 27,
      "data": "0xb214faa5384e53354b355737410000000000000000000000000000000000000000000000",
      "r": "0x78f45d105fe1450dac5d76a09595551c781326d53426139bb33ffcc9f175a893",
      "s": "0x1e4dac953b7e3f85a95e98df4506bab2b5731c02e0cb97b8c7921c27212ae8bd",
      "v": 27,
      "creates": null,
      "raw": "0xf8921b850d1b51735e83015f9094cac7000c7dbaa2e33af15325af5d435e011c7bdd891f0ff8f01daad40000a4b214faa5384e53354b3557374100000000000000000000000000000000000000000000001ba078f45d105fe1450dac5d76a09595551c781326d53426139bb33ffcc9f175a893a01e4dac953b7e3f85a95e98df4506bab2b5731c02e0cb97b8c7921c27212ae8bd",
      "networkId": 0,
      "chainId": 0
    }
  ]
}