{
  "hash": "0xbaf379a173e456dd386f4848806c2b2a34dc77eb94c7b7a22359aae3d0023a29",
  "parentHash": "0xe2830d270f51a74d7cd57f7f1757b6c040368fdd7559c3646eab2d3c8f2ad90b",
  "number": 67324,
  "timestamp": 1439270082,
  "nonce": "0x3079ae6355cef16d",
  "difficulty": 1922340839494,
  "gasLimit": {
    "_hex": "0x2fefd8"
  },
  "gasUsed": {
    "_hex": "0x5208"
  },
  "miner": "0x3222BA3F3e79eA0e31467EEE7639B57923558cCD",
  "extraData": "0x",
  "transactions": [
    {
      "hash": "0x5684bf4965bb72ea13d68b4ada5dc532922ffbb17ca2e1ca631796bdba1356bb",
      "blockHash": "0xbaf379a173e456dd386f4848806c2b2a34dc77eb94c7b7a22359aae3d0023a29",
      "blockNumber": 67324,
      "transactionIndex": 0,
      "confirmations": null,
      "from": "0x34d34F0a638F6991e4E2536F41295DF6E934A646",
      "gasPrice": {
        "_hex": "0xe04f8265c"
      },
      "gasLimit": {
        "_hex": "0x5208"
      },
      "to": "0x32Be343B94f860124dC4fEe278FDCBD38C102D88",
      "value": {
        "_hex": "0xddbcb3bc74e4000"
      },
      "nonce": 0,
      "data": "0x",
      "r": "0x6a1eb6c7ce93f9cef95bacc2cd8f274dea94566e9d77cbc1bf23eb05372b448a",
      "s": "0x75d973a8830bb30b16dbd865855525626065d1950a63b55e427c48d193bd2ee9",
      "v": 27,
      "creates": null,
      "raw": "0xf86c80850e04f8265c8252089432be343b94f860124dc4fee278fdcbd38c102d88880ddbcb3bc74e4000801ba06a1eb6c7ce93f9cef95bacc2cd8f274dea94566e9d77cbc1bf23eb05372b448aa075d973a8830bb30b16dbd865855525626065d1950a63b55e427c48d193bd2ee9",
      "networkId": 0,
      "chainId": 0
    }
  ]
}