{
  "hash": "0x4754f3c05c8f8912a3267bde7ec3d1d851c264e5b1b01bd43c10d679605364e5",
  "parentHash": "0x830b757e508dcc0ac20daf52c1e7204748f2e239ea5b457f3af698c6f15f92b3",
  "number": 75096,
  "timestamp": 1439397508,
  "nonce": "0x6ed3df1b9e05edc4",
  "difficulty": 2193349103008,
  "gasLimit": {
    "_hex": "0x2fefd8"
  },
  "gasUsed": {
    "_hex": "0x5208"
  },
  "miner": "0xFf9a46E0358502f3Ae5D7faBF50E71A067259A9A",
  "extraData": "0x476574682f76312e302e312f77696e646f77732f676f312e342e32",
  "transactions": [
    {
      "hash": "0x8251402bbf84d0954cdcf6a41666bd9724074b4ba7659237b743891734ba324e",
      "blockHash": "0x4754f3c05c8f8912a3267bde7ec3d1d851c264e5b1b01bd43c10d679605364e5",
      "blockNumber": 75096,
      "transactionIndex": 0,
      "confirmations": null,
      "from": "0x9724Ac4dc56e03379eBA5d157D1513EcC32cBD8f",
      "gasPrice": {
        "_hex": "0xdea92b599"
      },
      "gasLimit": {
        "_hex": "0x15f90"
      },
      "to": "0x4e9a1252Fe231b0bE60e07C1DAe03EEf0C9C9D47",
      "value": {
        "_hex": "0x2"
      },
      "nonce": 0,
      "data": "0x",
      "r": "0x006bf2d1ea2019fe533ba05e4ba3eeb91a4c95ccefdadf9009996813de7fadc9",
      "s": "0x158388dd5d21e55f13134359dd0bacecabb4191456ffc36e6b1f3e0c52d51659",
      "v": 27,
      "creates": null,
      "raw": "0xf86480850dea92b59983015f90944e9a1252fe231b0be60e07c1dae03eef0c9c9d4702801b9f6bf2d1ea2019fe533ba05e4ba3eeb91a4c95ccefdadf9009996813de7fadc9a0158388dd5d21e55f13134359dd0bacecabb4191456ffc36e6b1f3e0c52d51659",
      "networkId": 0,
      "chainId": 0
    }
  ]
}