{
  "hash": "0xca54eb9e52bb0f810f559ce3487c743e7cfa8a99a458a30cc1b2e750b6cbb047",
  "parentHash": "0x72a9252094b53a90fa54453e12430856e610a3499dfd95bcf0ca2aabc97632b9",
  "number": 74908,
  "timestamp": 1439394471,
  "nonce": "0xa5f514a55725a7a4",
  "difficulty": 2193398259471,
  "gasLimit": {
    "_hex": "0x2fefd8"
  },
  "gasUsed": {
    "_hex": "0x5208"
  },
  "miner": "0x88D74a59454F6cF3B51ef6b9136AFb6b9D405A88",
  "extraData": "0x476574682f76312e302e312d37666266393930632f6c696e75782f676f312e34",
  "transactions": [
    {
      "hash": "0xf50da00b8d900d9905a09eafd2b1deeb2151b438d1df78584af2eafe9e2c81c8",
      "blockHash": "0xca54eb9e52bb0f810f559ce3487c743e7cfa8a99a458a30cc1b2e750b6cbb047",
      "blockNumber": 74908,
      "transactionIndex": 0,
      "confirmations": null,
      "from": "0x32Be343B94f860124dC4fEe278FDCBD38C102D88",
      "gasPrice": {
        "_hex": "0xccfc13618"
      },
      "gasLimit": {
        "_hex": "0x5208"
      },
      "to": "0x120A270bbC009644e35F0bB6ab13f95b8199c4ad",
      "value": {
        "_hex": "0xd8d726b7177a800000"
      },
      "nonce": 332,
      "data": "0x",
      "r": "0xf4d78eba0be927aef359fd3f059cfa07ec444f5bcfea4036bd6bccb895204ea1",
      "s": "0x3a109a2221079e73ec08463b1ca7b130000716fc02820f36210b0931e1634107",
      "v": 27,
      "creates": null,
      "raw": "0xf86f82014c850ccfc1361882520894120a270bbc009644e35f0bb6ab13f95b8199c4ad89d8d726b7177a800000801ba0f4d78eba0be927aef359fd3f059cfa07ec444f5bcfea4036bd6bccb895204ea1a03a109a2221079e73ec08463b1ca7b130000716fc02820f36210b0931e1634107",
      "networkId": 0,
      "chainId": 0
    }
  ]
}