{
  "hash": "0xbd80928f13c01784e156cdefdfde344f9a9af6e1c94dcd97281401ccc3e37318",
  "parentHash": "0x20d583786fab7cdfea286fc99eabec02ea51edc5bd0f92efa7b9411265368ae1",
  "number": 86092,
  "timestamp": 1439573240,
  "nonce": "0xfaa8b4c226a3574f",
  "difficulty": 2815374818802,
  "gasLimit": {
    "_hex": "0x2fefd8"
  },
  "gasUsed": {
    "_hex": "0x5d9f"
  },
  "miner": "0xe6A7a1d47ff21B6321162AEA7C6CB457D5476Bca",
  "extraData": "0x476574682f76312e302e312d38326566323666362f6c696e75782f676f312e34",
  "transactions": [
    {
      "hash": "0xaf6c7edd9377579140ca71e539b076842e16534fe6a3ed51f29e38de0a210825",
      "blockHash": "0xbd80928f13c01784e156cdefdfde344f9a9af6e1c94dcd97281401ccc3e37318",
      "blockNumber": 86092,
      "transactionIndex": 0,
      "confirmations": null,
      "from": "0x5B7970CD176308e0Ffd0358e8B14aaF4A19BA544",
      "gasPrice": {
        "_hex": "0xe183fe2a4"
      },
      "gasLimit": {
        "_hex": "0x15f90"
      },
      "to": "0xCAc7000C7dBaa2E33Af15325AF5D435E011C7BdD",
      "value": {
        "_hex": "0x2a802f8630a240000"
      },
      "nonce": 5,
      "data": "0xb214faa54948594857493352550000000000000000000000000000000000000000000000",
      "r": "0xb85492a9ca9a90125ff8c7c4752cb488d1ceaf672ea9dd8929f3d18d3b9b856a",
      "s": "0x05f6e66ea216d95e3c8bcc8bd9ab109b275f5255ceef3d1b9a0d7346ec97205c",
      "v": 28,
      "creates": null,
      "raw": "0xf89205850e183fe2a483015f9094cac7000c7dbaa2e33af15325af5d435e011c7bdd8902a802f8630a240000a4b214faa549485948574933525500000000000000000000000000000000000000000000001ca0b85492a9ca9a90125ff8c7c4752cb488d1ceaf672ea9dd8929f3d18d3b9b856aa005f6e66ea216d95e3c8bcc8bd9ab109b275f5255ceef3d1b9a0d7346ec97205c",
      "networkId": 0,
      "chainId": 0
    }
  ]
}