{
  "hash": "0xa44624a7fb631cd282e62da41cf33b9cfefe376293e067085c61ff531888fff5",
  "parentHash": "0xd08261b5421c4f7cdac09198ec9fe9056184b326f37c9b5dcf2c45648af8cd87",
  "number": 108080,
  "timestamp": 1439933730,
  "nonce": "0x2cd331a1c66946f6",
  "difficulty": 4387516401187,
  "gasLimit": {
    "_hex": "0x2fefd8"
  },
  "gasUsed": {
    "_hex": "0x19a28"
  },
  "miner": "0x19dafe19F11E960E4cCfC6A5AA8890ebD748cA1E",
  "extraData": "0x476574682f76312e302e312d38326566323666362f6c696e75782f676f312e34",
  "transactions": [
    {
      "hash": "0xe3031abfaf4b0012067e327f77f8e796e2971b300df50746dc3b76138ac1fa45",
      "blockHash": "0xa44624a7fb631cd282e62da41cf33b9cfefe376293e067085c61ff531888fff5",
      "blockNumber": 108080,
      "transactionIndex": 0,
      "confirmations": null,
      "from": "0xFBb1b73C4f0BDa4f67dcA266ce6Ef42f520fBB98",
      "gasPrice": {
        "_hex": "0xd7fad45e4"
      },
      "gasLimit": {
        "_hex": "0x5208"
      },
      "to": "0xbFA783925b8676F57362523149c33fFF0d1CC65F",
      "value": {
        "_hex": "0x11738b556df8c00"
      },
      "nonce": 130,
      "data": "0x",
      "r": "0xa3ee0c3203021d6e2f170a2e6df3c9e37c847fe14fec8f9bfb66ee031a97e815",
      "s": "0x6a09bf683dff59fdbeef5acb91d89e1538ac152cfc36fbb229ddd5df6ca1dbf4",
      "v": 27,
      "creates": null,
      "raw": "0xf86d8182850d7fad45e482520894bfa783925b8676f57362523149c33fff0d1cc65f88011738b556df8c00801ba0a3ee0c3203021d6e2f170a2e6df3c9e37c847fe14fec8f9bfb66ee031a97e815a06a09bf683dff59fdbeef5acb91d89e1538ac152cfc36fbb229ddd5df6ca1dbf4",
      "networkId": 0,
      "chainId": 0
    },
    {
      "hash": "0x194ea49f78316a7acaffa5f30afe4f5b6c6f3618332d32407268a8a8c71b670d",
      "blockHash": "0xa44624a7fb631cd282e62da41cf33b9cfefe376293e067085c61ff531888fff5",
      "blockNumber": 108080,
      "transactionIndex": 1,
      "confirmations": null,
      "from": "0xFBb1b73C4f0BDa4f67dcA266ce6Ef42f520fBB98",
      "gasPrice": {
        "_hex": "0xd7fad45e4"
      },
      "gasLimit": {
        "_hex": "0x5208"
      },
      "to": "0x952f389eCE021cECc7e7E00B5316925e14396B92",
      "value": {
        "_hex": "0x1e90dd22f567800"
      },
      "nonce": 131,
      "data": "0x",
      "r": "0x8fcbe2fe4045ff7b7079a4531768c42df8f0ed10b665d32918440bc098c1150b",
      "s": "0x709bfe613dfa2699b156aa78a0d224ea4735e47e73aa57f1ae89545929c74bf4",
      "v": 27,
      "creates": null,
      "raw": "0xf86d8183850d7fad45e482520894952f389ece021cecc7e7e00b5316925e14396b928801e90dd22f567800801ba08fcbe2fe4045ff7b7079a4531768c42df8f0ed10b665d32918440bc098c1150ba0709bfe613dfa2699b156aa78a0d224ea4735e47e73aa57f1ae89545929c74bf4",
      "networkId": 0,
      "chainId": 0
    },
    {
      "hash": "0x1b037096091d201ddae1deda1e88ce20d71a9ef2543434bd27a75c255f53434a",
      "blockHash": "0xa44624a7fb631cd282e62da41cf33b9cfefe376293e067085c61ff531888fff5",
      "blockNumber": 108080,
      "transactionIndex": 2,
      "confirmations": null,
      "from": "0xFBb1b73C4f0BDa4f67dcA266ce6Ef42f520fBB98",
      "gasPrice": {
        "_hex": "0xd7fad45e4"
      },
      "gasLimit": {
        "_hex": "0x5208"
      },
      "to": "0x2D5A5c35815E984ceE59EcAAa5412d305Fd2004d",
      "value": {
        "_hex": "0x400905bc6983800"
      },
      "nonce": 132,
      "data": "0x",
      "r": "0xab16d33284028ace11f054281c53e05712022a5f6c6bbd2e8ccc5d3ac978141e",
      "s": "0x5b0d83d611a2bce9d02710cb5500f717dfc1be310b974c8780c2d515b29c5ba2",
      "v": 27,
      "creates": null,
      "raw": "0xf86d8184850d7fad45e4825208942d5a5c35815e984cee59ecaaa5412d305fd2004d880400905bc6983800801ba0ab16d33284028ace11f054281c53e05712022a5f6c6bbd2e8ccc5d3ac978141ea05b0d83d611a2bce9d02710cb5500f717dfc1be310b974c8780c2d515b29c5ba2",
      "networkId": 0,
      "chainId": 0
    },
    {
      "hash": "0xb05ef1c10cc783dc3c10bbb06d2d19bdafd45dcca6d71752032e8cdc3e5a79b3",
      "blockHash": "0xa44624a7fb631cd282e62da41cf33b9cfefe376293e067085c61ff531888fff5",
      "blockNumber": 108080,
      "transactionIndex": 3,
      "confirmations": null,
      "from": "0xFBb1b73C4f0BDa4f67dcA266ce6Ef42f520fBB98",
      "gasPrice": {
        "_hex": "0xd7fad45e4"
      },
      "gasLimit": {
        "_hex": "0x5208"
      },
      "to": "0x2753Eb7f173C1e8B9F5315395ef4608F92b637AB",
      "value": {
        "_hex": "0x19382a20cc5d9400"
      },
      "nonce": 133,
      "data": "0x",
      "r": "0x893bc37bc66db6646e5499cd9c57265f330c28b4403dd3b705e78d6d1377c89a",
      "s": "0x680e20b7287848161c0b875b53ae54eef631d836008b120e228a7bce9d92d0de",
      "v": 28,
      "creates": null,
      "raw": "0xf86d8185850d7fad45e4825208942753eb7f173c1e8b9f5315395ef4608f92b637ab8819382a20cc5d9400801ca0893bc37bc66db6646e5499cd9c57265f330c28b4403dd3b705e78d6d1377c89aa0680e20b7287848161c0b875b53ae54eef631d836008b120e228a7bce9d92d0de",
      "networkId": 0,
      "chainId": 0
    },
    {
      "hash": "0x7685eac552e8daa69e0c835f9b86411db210cefacd9de5d446b9a25626112e9a",
      "blockHash": "0xa44624a7fb631cd282e62da41cf33b9cfefe376293e067085c61ff531888fff5",
      "blockNumber": 108080,
      "transactionIndex": 4,
      "confirmations": null,
      "from": "0x120A270bbC009644e35F0bB6ab13f95b8199c4ad",
      "gasPrice": {
        "_hex": "0xd10ee31ff"
      },
      "gasLimit": {
        "_hex": "0x3d090"
      },
      "to": "0x5dA68C70b2b675Cf00019749FCaCc89B31B3A667",
      "value": {
        "_hex": "0x2c271bb844a2d800"
      },
      "nonce": 825,
      "data": "0x",
      "r": "0x2ac713d193b906a7f92fdda6591ed45c2ae23957ed31a7dc513dd89f40e01c39",
      "s": "0x32652eef8eed9b8e29a155b5f1b7ea5d19477b1d1c98fdcc653fefa56de3f95a",
      "v": 27,
      "creates": null,
      "raw": "0xf86f820339850d10ee31ff8303d090945da68c70b2b675cf00019749fcacc89b31b3a667882c271bb844a2d800801ba02ac713d193b906a7f92fdda6591ed45c2ae23957ed31a7dc513dd89f40e01c39a032652eef8eed9b8e29a155b5f1b7ea5d19477b1d1c98fdcc653fefa56de3f95a",
      "networkId": 0,
      "chainId": 0
    }
  ]
}