{
  "hash": "0x0253c3fbe70ccd5e65c7fd9613386f23faa7597ddd6c15642b200a273b347944",
  "parentHash": "0x8baf438aab922b19d43b5e9f5a0234be9e1ebe69b648e750434234da9d5ecae4",
  "number": 97917,
  "timestamp": 1439764029,
  "nonce": "0x51fa3298d99e4d7e",
  "difficulty": 3844617273619,
  "gasLimit": {
    "_hex": "0x2fefd8"
  },
  "gasUsed": {
    "_hex": "0x5208"
  },
  "miner": "0x68E1B6FbAB2C4f9572Ffda08139D815A9192FA92",
  "extraData": "0x",
  "transactions": [
    {
      "hash": "0x0760d788b71f7c2de2023a9a70f700dc434dec4769471598bd84b3623c22e224",
      "blockHash": "0x0253c3fbe70ccd5e65c7fd9613386f23faa7597ddd6c15642b200a273b347944",
      "blockNumber": 97917,
      "transactionIndex": 0,
      "confirmations": null,
      "from": "0x029b539130345336FA435C807F08B86a344A1BFe",
      "gasPrice": {
        "_hex": "0xd14a57eb6"
      },
      "gasLimit": {
        "_hex": "0x5208"
      },
      "to": "0x32Be343B94f860124dC4fEe278FDCBD38C102D88",
      "value": {
        "_hex": "0x905008cde4e4e800"
      },
      "nonce": 4,
      "data": "0x",
      "r": "0x57ecc573aa2f238ee5c6d6d9e5bbd422552e7f5eb88965752c89ab6be51bad20",
      "s": "0x0c7e2e5f5c224f4e3ff38895c954c5cb683c056de09a12a7dc2ce26f5388d3fc",
      "v": 27,
      "creates": null,
      "raw": "0xf86c04850d14a57eb68252089432be343b94f860124dc4fee278fdcbd38c102d8888905008cde4e4e800801ba057ecc573aa2f238ee5c6d6d9e5bbd422552e7f5eb88965752c89ab6be51bad20a00c7e2e5f5c224f4e3ff38895c954c5cb683c056de09a12a7dc2ce26f5388d3fc",
      "networkId": 0,
      "chainId": 0
    }
  ]
}