{
  "hash": "0xa37ded3e554f278cad8ab5f9209c6fad4e68386f6b0be159602332941ff851c1",
  "parentHash": "0x242e569f66fdad8120eff7efee115474332de7f2ece33bc2c2e21bede1926b41",
  "number": 117828,
  "timestamp": 1440116025,
  "nonce": "0xa584cab4925c2225",
  "difficulty": 4344072236217,
  "gasLimit": {
    "_hex": "0x2fefd8"
  },
  "gasUsed": {
    "_hex": "0xa410"
  },
  "miner": "0xe6A7a1d47ff21B6321162AEA7C6CB457D5476Bca",
  "extraData": "0xd783010002844765746887676f312e342e32856c696e7578",
  "transactions": [
    {
      "hash": "0xcc86f01171cffc7d0d8c475e533c5d4bfbf4784e6249849295528bb73d100f7e",
      "blockHash": "0xa37ded3e554f278cad8ab5f9209c6fad4e68386f6b0be159602332941ff851c1",
      "blockNumber": 117828,
      "transactionIndex": 0,
      "confirmations": null,
      "from": "0xA5fb3E4399E8F18643f969D0Ce65CC352fc252C6",
      "gasPrice": {
        "_hex": "0xba43b7400"
      },
      "gasLimit": {
        "_hex": "0x5208"
      },
      "to": "0x32Be343B94f860124dC4fEe278FDCBD38C102D88",
      "value": {
        "_hex": "0x22af72ac491578000"
      },
      "nonce": 14,
      "data": "0x",
      "r": "0x6d2269aee1c57092fa988ff59c237ff026e1ab545baf673e85a5dd31134d9a68",
      "s": "0x51f00e0bf7fcbc49115e8eca1bfb06d39999a6920966dcb95ed086afc8b1c585",
      "v": 28,
      "creates": null,
      "raw": "0xf86d0e850ba43b74008252089432be343b94f860124dc4fee278fdcbd38c102d8889022af72ac491578000801ca06d2269aee1c57092fa988ff59c237ff026e1ab545baf673e85a5dd31134d9a68a051f00e0bf7fcbc49115e8eca1bfb06d39999a6920966dcb95ed086afc8b1c585",
      "networkId": 0,
      "chainId": 0
    },
    {
      "hash": "0x852f4388c9ab8f03e3beb49f6b90687e2f6eda491359d2d1eaac3b3bcdfd14f6",
      "blockHash": "0xa37ded3e554f278cad8ab5f9209c6fad4e68386f6b0be159602332941ff851c1",
      "blockNumber": 117828,
      "transactionIndex": 1,
      "confirmations": null,
      "from": "0xD924AAC0bCB65C13bE4044f6BeA8aAe34D7a7126",
      "gasPrice": {
        "_hex": "0xba43b7400"
      },
      "gasLimit": {
        "_hex": "0x5208"
      },
      "to": "0x32Be343B94f860124dC4fEe278FDCBD38C102D88",
      "value": {
        "_hex": "0x3c263c94867f5800"
      },
      "nonce": 12,
      "data": "0x",
      "r": "0x821a1650c6f502013c23ca9633d5f1694a67bf4aab73af22932731253e4ccab0",
      "s": "0x74e9cae533ceda35410a21f2f13e2676c5376680e2132299c8ee2fb1712c2602",
      "v": 28,
      "creates": null,
      "raw": "0xf86c0c850ba43b74008252089432be343b94f860124dc4fee278fdcbd38c102d88883c263c94867f5800801ca0821a1650c6f502013c23ca9633d5f1694a67bf4aab73af22932731253e4ccab0a074e9cae533ceda35410a21f2f13e2676c5376680e2132299c8ee2fb1712c2602",
      "networkId": 0,
      "chainId": 0
    }
  ]
}