{
  "hash": "0x61f9bdeb5683cada86f2aaba3c0c05760abe55a086afd62f0145fd78a9211b75",
  "parentHash": "0xdd976573d2674a297b2ac4ba17853120d2afc454a395606578a8dca970017a20",
  "number": 103991,
  "timestamp": 1439862333,
  "nonce": "0x52388ffb986e9820",
  "difficulty": 4273338205272,
  "gasLimit": {
    "_hex": "0x2fefd8"
  },
  "gasUsed": {
    "_hex": "0x5208"
  },
  "miner": "0x580992B51e3925e23280EfB93d3047C82f17E038",
  "extraData": "0x476574682f76312e302e312f6c696e75782f676f312e342e32",
  "transactions": [
    {
      "hash": "0x4cb94d7f8540edbf8b134bfc2d75944b3b224af236d5176a7c20bbc71188c6b0",
      "blockHash": "0x61f9bdeb5683cada86f2aaba3c0c05760abe55a086afd62f0145fd78a9211b75",
      "blockNumber": 103991,
      "transactionIndex": 0,
      "confirmations": null,
      "from": "0x007f7f58D3eb5b7510A301eCC749FC1fCDDBE14D",
      "gasPrice": {
        "_hex": "0xe0cfe7246"
      },
      "gasLimit": {
        "_hex": "0x15f90"
      },
      "to": "0xb1abce2918E21ddb93AA452731a12672A3d9F75a",
      "value": {
        "_hex": "0x4563918244f40000"
      },
      "nonce": 238,
      "data": "0x",
      "r": "0x3dfb60d9e727c0543be527b76ea7cab8084be29a2e0d7d86745c4bff55a9a849",
      "s": "0x30fe42747ce94f6cebfe68f4fe50a79b5787bd74d0e7262e106be0e702ad4b6f",
      "v": 27,
      "creates": null,
      "raw": "0xf86e81ee850e0cfe724683015f9094b1abce2918e21ddb93aa452731a12672a3d9f75a884563918244f40000801ba03dfb60d9e727c0543be527b76ea7cab8084be29a2e0d7d86745c4bff55a9a849a030fe42747ce94f6cebfe68f4fe50a79b5787bd74d0e7262e106be0e702ad4b6f",
      "networkId": 0,
      "chainId": 0
    }
  ]
}