{
  "hash": "0x8a49f78e806b8c49119d426ccf8e310c2319cb4efd491ebc557a915cba8bfc22",
  "parentHash": "0x2df7db70581f16c3b7b5617776e0e37ecee0b6d29797c61a027e1e9c5569fcaa",
  "number": 79427,
  "timestamp": 1439469399,
  "nonce": "0xdcf87f69d71dddb4",
  "difficulty": 2348462861468,
  "gasLimit": {
    "_hex": "0x2fefd8"
  },
  "gasUsed": {
    "_hex": "0x5208"
  },
  "miner": "0x4947190fcC30D3fb3a16233b259bFe6b3492339a",
  "extraData": "0x476574682f76312e302e312d38326566323666362f6c696e75782f676f312e34",
  "transactions": [
    {
      "hash": "0xfcecaac6b272d1e5188a9a89de9f5d07cb9ded78b598cc4759d3cd9732407633",
      "blockHash": "0x8a49f78e806b8c49119d426ccf8e310c2319cb4efd491ebc557a915cba8bfc22",
      "blockNumber": 79427,
      "transactionIndex": 0,
      "confirmations": null,
      "from": "0x7Eb9F59f9547E376188eD83EFCD1F6dbF3712eA6",
      "gasPrice": {
        "_hex": "0xdec32e5ac"
      },
      "gasLimit": {
        "_hex": "0x15f90"
      },
      "to": "0xAd941B747c499E3ad5728C285446813783A33564",
      "value": {
        "_hex": "0x4563918244f40000"
      },
      "nonce": 4,
      "data": "0x",
      "r": "0x0f6073a799a6ec9123858632712a204ead8d7c5daccce6f1f015050095e46e5d",
      "s": "0x5c79e7b839edbf4bd1c87c0baff0e401bb0f5251e79e555be0f0c8fb10b3f870",
      "v": 28,
      "creates": null,
      "raw": "0xf86d04850dec32e5ac83015f9094ad941b747c499e3ad5728c285446813783a33564884563918244f40000801ca00f6073a799a6ec9123858632712a204ead8d7c5daccce6f1f015050095e46e5da05c79e7b839edbf4bd1c87c0baff0e401bb0f5251e79e555be0f0c8fb10b3f870",
      "networkId": 0,
      "chainId": 0
    }
  ]
}