{
  "hash": "0xe9e14d2b06a9e25584a51c727ec4cce045f1b5a1d0b095beb332b0c226ffc180",
  "parentHash": "0xf0ea8cc67e66d3365b36689511296c834456114c3b670e47069a55ef50819072",
  "number": 50327,
  "timestamp": 1438987397,
  "nonce": "0x75110312e536ebbb",
  "difficulty": 1509709832142,
  "gasLimit": {
    "_hex": "0x5c489"
  },
  "gasUsed": {
    "_hex": "0x546c"
  },
  "miner": "0xbcB2E3693d246E1fc00348754334BadEb88b2a11",
  "extraData": "0x476574682f76312e302e302f6c696e75782f676f312e342e32",
  "transactions": [
    {
      "hash": "0x1b5b7488ac8fd80cf0bdd9a57f2e77ae405abe5f35161a8078379d974b32ed48",
      "blockHash": "0xe9e14d2b06a9e25584a51c727ec4cce045f1b5a1d0b095beb332b0c226ffc180",
      "blockNumber": 50327,
      "transactionIndex": 0,
      "confirmations": null,
      "from": "0x24434A3e32E54Ecf272fE3470B5f6f512F675520",
      "gasPrice": {
        "_hex": "0x110c8f7d8de"
      },
      "gasLimit": {
        "_hex": "0xc350"
      },
      "to": "0x2910543Af39abA0Cd09dBb2D50200b3E800A63D2",
      "value": {
        "_hex": "0x14060569202010e0000"
      },
      "nonce": 0,
      "data": "0x454e354d5154544630",
      "r": "0x245be0bd8c83a8611844241dd7ece44502428ce93d690a9b55a9c5b455e8955e",
      "s": "0x13414209eeaa7560a247ad1b9dee410c34b6072bcdead84b0114d2ea2cd062db",
      "v": 27,
      "creates": null,
      "raw": "0xf87880860110c8f7d8de82c350942910543af39aba0cd09dbb2d50200b3e800a63d28a014060569202010e000089454e354d51545446301ba0245be0bd8c83a8611844241dd7ece44502428ce93d690a9b55a9c5b455e8955ea013414209eeaa7560a247ad1b9dee410c34b6072bcdead84b0114d2ea2cd062db",
      "networkId": 0,
      "chainId": 0
    }
  ]
}