{
  "hash": "0x77da006904b48be35207f98113564e094f963ec1881b7ba8de281a07467631f2",
  "parentHash": "0x3f467ec47198663908f41e35ea9370dea451a993e12c5182a41d84564ba67546",
  "number": 101519,
  "timestamp": 1439824152,
  "nonce": "0x824f3b775a4d8c7b",
  "difficulty": 3865550263647,
  "gasLimit": {
    "_hex": "0x2fefd8"
  },
  "gasUsed": {
    "_hex": "0x5208"
  },
  "miner": "0x580992B51e3925e23280EfB93d3047C82f17E038",
  "extraData": "0x476574682f76312e302e312f6c696e75782f676f312e342e32",
  "transactions": [
    {
      "hash": "0x850314b9a1ff191fced1747179b4794471ab9bde546dea0d902e8cfab4944ebe",
      "blockHash": "0x77da006904b48be35207f98113564e094f963ec1881b7ba8de281a07467631f2",
      "blockNumber": 101519,
      "transactionIndex": 0,
      "confirmations": null,
      "from": "0x2910543Af39abA0Cd09dBb2D50200b3E800A63D2",
      "gasPrice": {
        "_hex": "0xce0c576cd"
      },
      "gasLimit": {
        "_hex": "0x5208"
      },
      "to": "0x5A3E83a3Ae7362C204550Aba56dC980A413090f2",
      "value": {
        "_hex": "0x2fb46246162fdf8000"
      },
      "nonce": 972,
      "data": "0x",
      "r": "0x5f3a2d0fcf0c82903e06058e3977eff7e10baf344e96a4e241f5ce1d9088c2ae",
      "s": "0x7225c24d2cf88a221ab7e7d592104ded6361ff6f51a720fd5739c4114c41c5ba",
      "v": 28,
      "creates": null,
      "raw": "0xf86f8203cc850ce0c576cd825208945a3e83a3ae7362c204550aba56dc980a413090f2892fb46246162fdf8000801ca05f3a2d0fcf0c82903e06058e3977eff7e10baf344e96a4e241f5ce1d9088c2aea07225c24d2cf88a221ab7e7d592104ded6361ff6f51a720fd5739c4114c41c5ba",
      "networkId": 0,
      "chainId": 0
    }
  ]
}