{
  "hash": "0xf4e01377ce9259ec970c3d85f15ce75d700d676923872a0afbd2a504a566feb9",
  "parentHash": "0x98b1e9e43420d7ffcf440c89b28ccb5f606fc053f068e441d526a30559b6957f",
  "number": 118720,
  "timestamp": 1440130375,
  "nonce": "0xa5c86173a224fd8e",
  "difficulty": 4364871235947,
  "gasLimit": {
    "_hex": "0x2fefd8"
  },
  "gasUsed": {
    "_hex": "0xa410"
  },
  "miner": "0x580992B51e3925e23280EfB93d3047C82f17E038",
  "extraData": "0x",
  "transactions": [
    {
      "hash": "0x4e09b1beaf7c35771f153d948e9b37c7f44f1d53ada8309c75684e8e2392f18d",
      "blockHash": "0xf4e01377ce9259ec970c3d85f15ce75d700d676923872a0afbd2a504a566feb9",
      "blockNumber": 118720,
      "transactionIndex": 0,
      "confirmations": null,
      "from": "0xF758C90adCc57e539E0fdB5C470598dC84e06c92",
      "gasPrice": {
        "_hex": "0xba43b7400"
      },
      "gasLimit": {
        "_hex": "0x5208"
      },
      "to": "0x3E7857c1f12650177e7169044766D76D98393C87",
      "value": {
        "_hex": "0x2707c629c3f906000"
      },
      "nonce": 8,
      "data": "0x",
      "r": "0x82e2d1f9d56c883192917284a6cbcb77aabba758bf70c54c742df68c01b23801",
      "s": "0x31a82a28e8ce5f76b73299f3543d558bdf6e74777ebc317ce927686b733526dc",
      "v": 27,
      "creates": null,
      "raw": "0xf86d08850ba43b7400825208943e7857c1f12650177e7169044766d76d98393c878902707c629c3f906000801ba082e2d1f9d56c883192917284a6cbcb77aabba758bf70c54c742df68c01b23801a031a82a28e8ce5f76b73299f3543d558bdf6e74777ebc317ce927686b733526dc",
      "networkId": 0,
      "chainId": 0
    },
    {
      "hash": "0x852d095a97c79111832e652d5b86e6984b930f4e21477f46b340883edd683b7f",
      "blockHash": "0xf4e01377ce9259ec970c3d85f15ce75d700d676923872a0afbd2a504a566feb9",
      "blockNumber": 118720,
      "transactionIndex": 1,
      "confirmations": null,
      "from": "0xF758C90adCc57e539E0fdB5C470598dC84e06c92",
      "gasPrice": {
        "_hex": "0xba43b7400"
      },
      "gasLimit": {
        "_hex": "0x5208"
      },
      "to": "0x45fc440AEe24B57bb55Df6DC76AbF3E39Aaf24A5",
      "value": {
        "_hex": "0x2707c629c3f906000"
      },
      "nonce": 9,
      "data": "0x",
      "r": "0xf987c1c2055846a785dfd20930d143bd4ba9cd630fdfdcc0ad56fa9ad8fe26e7",
      "s": "0x6e4fedc29dc596c2b3ed6fa558d10443bf0491a870cc92d7a16cc343ff85cbff",
      "v": 28,
      "creates": null,
      "raw": "0xf86d09850ba43b74008252089445fc440aee24b57bb55df6dc76abf3e39aaf24a58902707c629c3f906000801ca0f987c1c2055846a785dfd20930d143bd4ba9cd630fdfdcc0ad56fa9ad8fe26e7a06e4fedc29dc596c2b3ed6fa558d10443bf0491a870cc92d7a16cc343ff85cbff",
      "networkId": 0,
      "chainId": 0
    }
  ]
}