{
  "hash": "0x98d659c1f7200bfcd5e1c999551c8574bd7d5597bbcb084610dcc3cb527eb340",
  "parentHash": "0xb7570044b4c8ecea394e89c5b00929f7b65a52a4fff3c196c17e91a3598f8ef1",
  "number": 105983,
  "timestamp": 1439896745,
  "nonce": "0x550c4ed4e2ef7f0e",
  "difficulty": 4464258602007,
  "gasLimit": {
    "_hex": "0x2fefd8"
  },
  "gasUsed": {
    "_hex": "0xaa37"
  },
  "miner": "0xe6A7a1d47ff21B6321162AEA7C6CB457D5476Bca",
  "extraData": "0x476574682f76312e302e312d38326566323666362f6c696e75782f676f312e34",
  "transactions": [
    {
      "hash": "0xaeb4a36a8f49037ea23dd02061424088108913b2a4f3f53613d9b951428dd4d7",
      "blockHash": "0x98d659c1f7200bfcd5e1c999551c8574bd7d5597bbcb084610dcc3cb527eb340",
      "blockNumber": 105983,
      "transactionIndex": 0,
      "confirmations": null,
      "from": "0x87C5B5874A18B4306DF8a752a6C8cc3E82daFc19",
      "gasPrice": {
        "_hex": "0x10b6df54a2b"
      },
      "gasLimit": {
        "_hex": "0x493e0"
      },
      "to": "0xD79B4C6791784184e2755B2fC1659eaaB0f80456",
      "value": {
        "_hex": "0x0"
      },
      "nonce": 320,
      "data": "0x03750d9400000000000000000000000087c5b5874a18b4306df8a752a6c8cc3e82dafc196b6b6b0000000000000000000000000000000000000000000000000000000000",
      "r": "0x5e5495d23bcef7b86091a16711cb82aade39800af5ddccbf8927af56918925f2",
      "s": "0x5f531d42364216780ab728eeaa2491a8b3430d18820cd62a91e106d975b09d18",
      "v": 27,
      "creates": null,
      "raw": "0xf8ad82014086010b6df54a2b830493e094d79b4c6791784184e2755b2fc1659eaab0f8045680b84403750d9400000000000000000000000087c5b5874a18b4306df8a752a6c8cc3e82dafc196b6b6b00000000000000000000000000000000000000000000000000000000001ba05e5495d23bcef7b86091a16711cb82aade39800af5ddccbf8927af56918925f2a05f531d42364216780ab728eeaa2491a8b3430d18820cd62a91e106d975b09d18",
      "networkId": 0,
      "chainId": 0
    }
  ]
}