{
  "hash": "0x0ee440976d61ca3d1b17f7673ed0669d79358a1daa6db44ec5309f4b2f343018",
  "parentHash": "0xe0668f6c6326abeb3d52960d463e5d2766ed7e7e2c5d2026d7c37d2ffca10fae",
  "number": 52132,
  "timestamp": 1439016679,
  "nonce": "0x304a47b9be8758ad",
  "difficulty": 1555018517653,
  "gasLimit": {
    "_hex": "0x1074b2"
  },
  "gasUsed": {
    "_hex": "0xddfd"
  },
  "miner": "0xbb7B8287f3F0a933474a79eAe42CBCa977791171",
  "extraData": "0x476574682f4c5649562f76312e302e312f6c696e75782f676f312e342e32",
  "transactions": [
    {
      "hash": "0x5538eb721846de760227533bc1c986c5605b850c0acc8dffb088560da9f02145",
      "blockHash": "0x0ee440976d61ca3d1b17f7673ed0669d79358a1daa6db44ec5309f4b2f343018",
      "blockNumber": 52132,
      "transactionIndex": 0,
      "confirmations": null,
      "from": "0x008FC7CBAdFFbD0D7fe44F8DFD60a79d721a1c9C",
      "gasPrice": {
        "_hex": "0xd30cb92df"
      },
      "gasLimit": {
        "_hex": "0x7a120"
      },
      "to": "0xA327075af2a223A1C83a36aDa1126afE7430f955",
      "value": {
        "_hex": "0x8ac7230489e80000"
      },
      "nonce": 1,
      "data": "0x",
      "r": "0x5ab592bde31bf7ad8d6459b3259d5aa16f9f0113098b77def5682b2e877ceaa2",
      "s": "0x6ca1caf3dc733f327a00d2bad0933984f19cc39e985c5a6ab23977be1c8af11f",
      "v": 27,
      "creates": null,
      "raw": "0xf86d01850d30cb92df8307a12094a327075af2a223a1c83a36ada1126afe7430f955888ac7230489e80000801ba05ab592bde31bf7ad8d6459b3259d5aa16f9f0113098b77def5682b2e877ceaa2a06ca1caf3dc733f327a00d2bad0933984f19cc39e985c5a6ab23977be1c8af11f",
      "networkId": 0,
      "chainId": 0
    }
  ]
}