{
  "hash": "0x73c7fd6ccd91daa91a248b4734fad51760802381cb7f9127e40670c2b45edb5a",
  "parentHash": "0x86a16bfa489b09d254f772f6655867db12a6df5f95f135e7606bb67090959773",
  "number": 83815,
  "timestamp": 1439541303,
  "nonce": "0xbccc02ebb136e49c",
  "difficulty": 2445509658409,
  "gasLimit": {
    "_hex": "0x2fefd8"
  },
  "gasUsed": {
    "_hex": "0x5208"
  },
  "miner": "0x88D74a59454F6cF3B51ef6b9136AFb6b9D405A88",
  "extraData": "0x476574682f76312e302e312d37666266393930632f6c696e75782f676f312e34",
  "transactions": [
    {
      "hash": "0x07197fbb302ed170603b3c39133f945d5d015884f36cf29f517a141ec61b7085",
      "blockHash": "0x73c7fd6ccd91daa91a248b4734fad51760802381cb7f9127e40670c2b45edb5a",
      "blockNumber": 83815,
      "transactionIndex": 0,
      "confirmations": null,
      "from": "0x285B048CC4cB946abCF3eF11aDe982C36946AF18",
      "gasPrice": {
        "_hex": "0xcc95a1d89"
      },
      "gasLimit": {
        "_hex": "0x5208"
      },
      "to": "0x32Be343B94f860124dC4fEe278FDCBD38C102D88",
      "value": {
        "_hex": "0xd0269ba2362de000"
      },
      "nonce": 11,
      "data": "0x",
      "r": "0x3f667115d0d9150f16fb57bcc2418dda3af520ea497961d7ad45aa49778ad003",
      "s": "0x65a82b104d00d7c18826918a21d2f104f4416fffa761930f75cb6d1c226f8584",
      "v": 27,
      "creates": null,
      "raw": "0xf86c0b850cc95a1d898252089432be343b94f860124dc4fee278fdcbd38c102d8888d0269ba2362de000801ba03f667115d0d9150f16fb57bcc2418dda3af520ea497961d7ad45aa49778ad003a065a82b104d00d7c18826918a21d2f104f4416fffa761930f75cb6d1c226f8584",
      "networkId": 0,
      "chainId": 0
    }
  ]
}