{
  "hash": "0xb35efb07557d1c4de7825f2c959fc92590525a1c5a96104ffd6e99571ee02bc5",
  "parentHash": "0x0383a601fcd3907b1238622b71b36d94d99789596bc80d89db5ac8df7cf404e0",
  "number": 75402,
  "timestamp": 1439402725,
  "nonce": "0x145a9692125c84a4",
  "difficulty": 2199704110616,
  "gasLimit": {
    "_hex": "0x2fefd8"
  },
  "gasUsed": {
    "_hex": "0x13d16"
  },
  "miner": "0x31995C46B15C84523cDEE26f49A681b8237e43F5",
  "extraData": "0x476574682f76312e302e312f77696e646f77732f676f312e342e32",
  "transactions": [
    {
      "hash": "0xe49d9638d366db8ac9c788a8cc0846d1e1b75d63082f2377fbe70ccb4ccb1f2e",
      "blockHash": "0xb35efb07557d1c4de7825f2c959fc92590525a1c5a96104ffd6e99571ee02bc5",
      "blockNumber": 75402,
      "transactionIndex": 0,
      "confirmations": null,
      "from": "0x87C5B5874A18B4306DF8a752a6C8cc3E82daFc19",
      "gasPrice": {
        "_hex": "0x1021f906157"
      },
      "gasLimit": {
        "_hex": "0x493e0"
      },
      "to": "0xD79B4C6791784184e2755B2fC1659eaaB0f80456",
      "value": {
        "_hex": "0x0"
      },
      "nonce": 46,
      "data": "0x03750d940000000000000000000000000c7a4e5c8aca4ff0c9655edd175f82fef48f17173532666330393833396266656136313700000000000000000000000000000000",
      "r": "0x67508190cbb655f87d3d2ef78f30a40aea886fa87449668011b2f1c35dfeb2e2",
      "s": "0x222133859ec7e5a9dbf6fe843957f618dd7c1bc7a0d1a4171e70fa267faf533d",
      "v": 28,
      "creates": null,
      "raw": "0xf8ab2e8601021f906157830493e094d79b4c6791784184e2755b2fc1659eaab0f8045680b84403750d940000000000000000000000000c7a4e5c8aca4ff0c9655edd175f82fef48f171735326663303938333962666561363137000000000000000000000000000000001ca067508190cbb655f87d3d2ef78f30a40aea886fa87449668011b2f1c35dfeb2e2a0222133859ec7e5a9dbf6fe843957f618dd7c1bc7a0d1a4171e70fa267faf533d",
      "networkId": 0,
      "chainId": 0
    },
    {
      "hash": "0xe2ca6baf1f27405168de3e6b8ccac4611efacb819629846c4c052a348058a4fd",
      "blockHash": "0xb35efb07557d1c4de7825f2c959fc92590525a1c5a96104ffd6e99571ee02bc5",
      "blockNumber": 75402,
      "transactionIndex": 1,
      "confirmations": null,
      "from": "0x9724Ac4dc56e03379eBA5d157D1513EcC32cBD8f",
      "gasPrice": {
        "_hex": "0xd8a4a9b95"
      },
      "gasLimit": {
        "_hex": "0x493e0"
      },
      "to": "0xD79B4C6791784184e2755B2fC1659eaaB0f80456",
      "value": {
        "_hex": "0xde0b6b3a7640000"
      },
      "nonce": 5,
      "data": "0x8d216186000000000000000000000000000000000000000000000000000000000000008094596716ee06de5a66dae0464f145ec5c25e7ae696c6faa29f3e011d49be0b20",
      "r": "0x59583153147dd828ddc07d649dd5d7d7559c736e242061675c1e1e2077b7acd1",
      "s": "0x57c6be9620a1933aaaf2c2b05d93f99cee89e8b551304558c46d2fb27191141e",
      "v": 27,
      "creates": null,
      "raw": "0xf8b205850d8a4a9b95830493e094d79b4c6791784184e2755b2fc1659eaab0f80456880de0b6b3a7640000b8448d216186000000000000000000000000000000000000000000000000000000000000008094596716ee06de5a66dae0464f145ec5c25e7ae696c6faa29f3e011d49be0b201ba059583153147dd828ddc07d649dd5d7d7559c736e242061675c1e1e2077b7acd1a057c6be9620a1933aaaf2c2b05d93f99cee89e8b551304558c46d2fb27191141e",
      "networkId": 0,
      "chainId": 0
    }
  ]
}