{
  "hash": "0x1d87eb15c5ccc84a60a8948efcff09947fb9076905828bbc4de9880a30f9ee3f",
  "parentHash": "0x8003569052f4513dfb62a583242be5c0817610e7eb0e69ce6ffce34f21f6b4bb",
  "number": 75704,
  "timestamp": 1439407703,
  "nonce": "0xb5059a88bc9b05f4",
  "difficulty": 2234263975030,
  "gasLimit": {
    "_hex": "0x2fefd8"
  },
  "gasUsed": {
    "_hex": "0x5208"
  },
  "miner": "0xf927a40C8B7F6E07c5af7FA2155B4864a4112B13",
  "extraData": "0x",
  "transactions": [
    {
      "hash": "0x8d835450ded9ed4edab8d2995c69aa26cdcdb600515f39998c9b20e5ff803b1d",
      "blockHash": "0x1d87eb15c5ccc84a60a8948efcff09947fb9076905828bbc4de9880a30f9ee3f",
      "blockNumber": 75704,
      "transactionIndex": 0,
      "confirmations": null,
      "from": "0x2536bd4b759aae0fC4Ca6bb97141922a0D56C37C",
      "gasPrice": {
        "_hex": "0xd57199c9e"
      },
      "gasLimit": {
        "_hex": "0x5208"
      },
      "to": "0x32Be343B94f860124dC4fEe278FDCBD38C102D88",
      "value": {
        "_hex": "0xddc6597cb9df000"
      },
      "nonce": 0,
      "data": "0x",
      "r": "0x76881f7f06741f1427a4053ce3cc97b423f2e0931a1f81c64af2f84311a8939a",
      "s": "0x20409e83edaaaddc1bf00d5716e67b27e4a453cbba021573dad7f876105e7991",
      "v": 28,
      "creates": null,
      "raw": "0xf86c80850d57199c9e8252089432be343b94f860124dc4fee278fdcbd38c102d88880ddc6597cb9df000801ca076881f7f06741f1427a4053ce3cc97b423f2e0931a1f81c64af2f84311a8939aa020409e83edaaaddc1bf00d5716e67b27e4a453cbba021573dad7f876105e7991",
      "networkId": 0,
      "chainId": 0
    }
  ]
}