{
  "hash": "0x8136a237e635fbe0178ec917cede422dba6828503be6b7337c47d3642caa1f8a",
  "parentHash": "0xeccd3a3d8d10dbec2842b77966d3656acf28706d29ddf4c6e4571f84fe8d13d8",
  "number": 75847,
  "timestamp": 1439410396,
  "nonce": "0x5f304989b82e9836",
  "difficulty": 2228777887627,
  "gasLimit": {
    "_hex": "0x2fefd8"
  },
  "gasUsed": {
    "_hex": "0x70b3"
  },
  "miner": "0xf927a40C8B7F6E07c5af7FA2155B4864a4112B13",
  "extraData": "0x",
  "transactions": [
    {
      "hash": "0xf84fc032ac17d2823a16a0a59f73396440e891697f992d80f837be3b513495f9",
      "blockHash": "0x8136a237e635fbe0178ec917cede422dba6828503be6b7337c47d3642caa1f8a",
      "blockNumber": 75847,
      "transactionIndex": 0,
      "confirmations": null,
      "from": "0x9724Ac4dc56e03379eBA5d157D1513EcC32cBD8f",
      "gasPrice": {
        "_hex": "0xd3b82f58e"
      },
      "gasLimit": {
        "_hex": "0x493e0"
      },
      "to": "0xD79B4C6791784184e2755B2fC1659eaaB0f80456",
      "value": {
        "_hex": "0x0"
      },
      "nonce": 13,
      "data": "0xbd66528a73302e3430393334313238303035393531380000000000000000000000000000",
      "r": "0x7e62a6501e81ee927334767df464e0ae3be03e98bec526330d8da016941e3da2",
      "s": "0x7244d060736cce76d9f8afe5c8c47d2b44d594f67d16023ac379283e183fbc02",
      "v": 28,
      "creates": null,
      "raw": "0xf8890d850d3b82f58e830493e094d79b4c6791784184e2755b2fc1659eaab0f8045680a4bd66528a73302e34303933343132383030353935313800000000000000000000000000001ca07e62a6501e81ee927334767df464e0ae3be03e98bec526330d8da016941e3da2a07244d060736cce76d9f8afe5c8c47d2b44d594f67d16023ac379283e183fbc02",
      "networkId": 0,
      "chainId": 0
    }
  ]
}