{
  "hash": "0x88be4a2e538ac227022b1e9f4766358a88c12e750c4387e84b895a8b91f81b61",
  "parentHash": "0xd847364f50c4b5462e57762a2c97684d5c7bdd8ca1ea5f80b923278841cdca62",
  "number": 118154,
  "timestamp": 1440121357,
  "nonce": "0xd3e7402120b5b4fb",
  "difficulty": 4335427512059,
  "gasLimit": {
    "_hex": "0x2fefd8"
  },
  "gasUsed": {
    "_hex": "0x5208"
  },
  "miner": "0xe6A7a1d47ff21B6321162AEA7C6CB457D5476Bca",
  "extraData": "0xd783010002844765746887676f312e342e32856c696e7578",
  "transactions": [
    {
      "hash": "0x165250d43311f37d352f928dd4a9189535ac453780eed2bcb6e47b62610583d5",
      "blockHash": "0x88be4a2e538ac227022b1e9f4766358a88c12e750c4387e84b895a8b91f81b61",
      "blockNumber": 118154,
      "transactionIndex": 0,
      "confirmations": null,
      "from": "0x007f7f58D3eb5b7510A301eCC749FC1fCDDBE14D",
      "gasPrice": {
        "_hex": "0xba43b7400"
      },
      "gasLimit": {
        "_hex": "0x15f90"
      },
      "to": "0xb1abce2918E21ddb93AA452731a12672A3d9F75a",
      "value": {
        "_hex": "0x4563918244f40000"
      },
      "nonce": 334,
      "data": "0x",
      "r": "0xc3b1cbe1a239d101b1ab45af1f4e94246eaffcd73f6d957a87a13c35d8fc179e",
      "s": "0x2e10c6e349c4f3caacfc53f1d1bd522040162924c231e015c0a2aeadc1fd5c89",
      "v": 27,
      "creates": null,
      "raw": "0xf86f82014e850ba43b740083015f9094b1abce2918e21ddb93aa452731a12672a3d9f75a884563918244f40000801ba0c3b1cbe1a239d101b1ab45af1f4e94246eaffcd73f6d957a87a13c35d8fc179ea02e10c6e349c4f3caacfc53f1d1bd522040162924c231e015c0a2aeadc1fd5c89",
      "networkId": 0,
      "chainId": 0
    }
  ]
}