{
  "hash": "0x723e3b4a352c5ebd30333be117ef283186c677878d4c6d879a36fa9bdd925d9f",
  "parentHash": "0x973f5011d7d2087dc7e45cfcec09cb36220d2172187a59c43ab9588d8a7236f4",
  "number": 98840,
  "timestamp": 1439779785,
  "nonce": "0x1a8db4ea684e2515",
  "difficulty": 3861124879935,
  "gasLimit": {
    "_hex": "0x2fefd8"
  },
  "gasUsed": {
    "_hex": "0x5208"
  },
  "miner": "0xf8E0CA3Ed80bd541b94BEdCf259e8CF2141A9523",
  "extraData": "0x476574682f76312e302e312f77696e646f77732f676f312e342e32",
  "transactions": [
    {
      "hash": "0x4355974be3ad392d2ec389e692fdbfb62fa634c5b31345a6a2499d24505c100b",
      "blockHash": "0x723e3b4a352c5ebd30333be117ef283186c677878d4c6d879a36fa9bdd925d9f",
      "blockNumber": 98840,
      "transactionIndex": 0,
      "confirmations": null,
      "from": "0x32Be343B94f860124dC4fEe278FDCBD38C102D88",
      "gasPrice": {
        "_hex": "0xd7bed766d"
      },
      "gasLimit": {
        "_hex": "0x5208"
      },
      "to": "0xAaA4BEfA989B980188a418Cc5C4C02E7d9103818",
      "value": {
        "_hex": "0x1ac3a066665fec0000"
      },
      "nonce": 1049,
      "data": "0x",
      "r": "0x2e5da549ea4e6f85d2953dea92d6763673a12b09eef1f2b3a627334ad73cf219",
      "s": "0x069abe12ed89d784ad319e98094b530f4e3ee80ae71a2903b8f0e8e3b61ad9ae",
      "v": 27,
      "creates": null,
      "raw": "0xf86f820419850d7bed766d82520894aaa4befa989b980188a418cc5c4c02e7d9103818891ac3a066665fec0000801ba02e5da549ea4e6f85d2953dea92d6763673a12b09eef1f2b3a627334ad73cf219a0069abe12ed89d784ad319e98094b530f4e3ee80ae71a2903b8f0e8e3b61ad9ae",
      "networkId": 0,
      "chainId": 0
    }
  ]
}