{
  "hash": "0x5661cdddc58a781362ba1a6453180ac588087012b804f9e325a1ee581f040b86",
  "parentHash": "0x041077cbd5f4ffeb2eb59b9af9e103a858dca2763486ec3cde9ffd0b8bc5dc22",
  "number": 97301,
  "timestamp": 1439754027,
  "nonce": "0xdeffa02bace1c850",
  "difficulty": 3777904027707,
  "gasLimit": {
    "_hex": "0x2fefd8"
  },
  "gasUsed": {
    "_hex": "0x5208"
  },
  "miner": "0x88D74a59454F6cF3B51ef6b9136AFb6b9D405A88",
  "extraData": "0x476574682f76312e302e312d38326566323666362f6c696e75782f676f312e34",
  "transactions": [
    {
      "hash": "0x6527eef0004774e2beffec0260ba82fbccd9fbdfef886eaa3fc6f8093db4d33a",
      "blockHash": "0x5661cdddc58a781362ba1a6453180ac588087012b804f9e325a1ee581f040b86",
      "blockNumber": 97301,
      "transactionIndex": 0,
      "confirmations": null,
      "from": "0xD58c3AfB06F28bE4dc3e3bc8573eDe1D73773458",
      "gasPrice": {
        "_hex": "0xba43b7400"
      },
      "gasLimit": {
        "_hex": "0x5208"
      },
      "to": "0xC47Aaa860008be6f65B58c6C6E02a84e666EfE31",
      "value": {
        "_hex": "0x2a1f06cc4ee17f2780"
      },
      "nonce": 4,
      "data": "0x",
      "r": "0x701fdc6282777d1b45daa4c68b1257305d9dfd08127df0d8d085df11127fe146",
      "s": "0x7c1c2fea9883c40019b66f2feff571b67c83d60b8b03900ec4d7ce65f6b1720a",
      "v": 28,
      "creates": null,
      "raw": "0xf86d04850ba43b740082520894c47aaa860008be6f65b58c6c6e02a84e666efe31892a1f06cc4ee17f2780801ca0701fdc6282777d1b45daa4c68b1257305d9dfd08127df0d8d085df11127fe146a07c1c2fea9883c40019b66f2feff571b67c83d60b8b03900ec4d7ce65f6b1720a",
      "networkId": 0,
      "chainId": 0
    }
  ]
}