{
  "hash": "0x0a2848e198960cca12999758c1a2853715ca4301cb3e3bee90d222862ad922aa",
  "parentHash": "0xbb2e176e57a73d01f2e3de243b1d88217b4c77b559f43a330ffba24b35b518ee",
  "number": 95988,
  "timestamp": 1439733199,
  "nonce": "0x0c9ebc86c65a6f93",
  "difficulty": 3617809936879,
  "gasLimit": {
    "_hex": "0x2fefd8"
  },
  "gasUsed": {
    "_hex": "0x5208"
  },
  "miner": "0xe6A7a1d47ff21B6321162AEA7C6CB457D5476Bca",
  "extraData": "0x476574682f76312e302e312d38326566323666362f6c696e75782f676f312e34",
  "transactions": [
    {
      "hash": "0xdfdcfea75de7c38335e5248644f5429aca0be696fd7f3491d531b615a61c7f0e",
      "blockHash": "0x0a2848e198960cca12999758c1a2853715ca4301cb3e3bee90d222862ad922aa",
      "blockNumber": 95988,
      "transactionIndex": 0,
      "confirmations": null,
      "from": "0x0D4EcC7d750180EBf4A9Df728B6669B5Bceb5E40",
      "gasPrice": {
        "_hex": "0xd6c649364"
      },
      "gasLimit": {
        "_hex": "0x5208"
      },
      "to": "0x32Be343B94f860124dC4fEe278FDCBD38C102D88",
      "value": {
        "_hex": "0x45638da0151eb400"
      },
      "nonce": 38,
      "data": "0x",
      "r": "0x7fe4b691d1d0e6e5aea7df93f20aa6f26a422a1c1db85a2c48fd0fd02fe16a68",
      "s": "0x3b6cee6849f5258cac2173de4433fd6d665c9425ff5eeb49a818b94bf9ed41d8",
      "v": 28,
      "creates": null,
      "raw": "0xf86c26850d6c6493648252089432be343b94f860124dc4fee278fdcbd38c102d888845638da0151eb400801ca07fe4b691d1d0e6e5aea7df93f20aa6f26a422a1c1db85a2c48fd0fd02fe16a68a03b6cee6849f5258cac2173de4433fd6d665c9425ff5eeb49a818b94bf9ed41d8",
      "networkId": 0,
      "chainId": 0
    }
  ]
}