{
  "hash": "0x792e43491c291e3cf837b94579d3405d853d6e9a75dfd25fda03d20fce9f7a8e",
  "parentHash": "0xf66ecc55de446e7f809edd6a58d5add045f67b1fe509e7eef688691476bec122",
  "number": 104834,
  "timestamp": 1439876615,
  "nonce": "0x191b908e5527b886",
  "difficulty": 4350806443119,
  "gasLimit": {
    "_hex": "0x2fefd8"
  },
  "gasUsed": {
    "_hex": "0xa410"
  },
  "miner": "0x9746c7e1ef2bd21FF3997fa467593a89cb852BD0",
  "extraData": "0x476574682f76312e302e312f77696e646f77732f676f312e342e32",
  "transactions": [
    {
      "hash": "0xc75f54273652c55bbc75b988e82fe7d4d70fdb8dbeeb10a6a2cd4bd4fe006eb1",
      "blockHash": "0x792e43491c291e3cf837b94579d3405d853d6e9a75dfd25fda03d20fce9f7a8e",
      "blockNumber": 104834,
      "transactionIndex": 0,
      "confirmations": null,
      "from": "0x120A270bbC009644e35F0bB6ab13f95b8199c4ad",
      "gasPrice": {
        "_hex": "0xdca48d51f"
      },
      "gasLimit": {
        "_hex": "0x3d090"
      },
      "to": "0xCA092A957744f6385B1aee5dC694143E8A06F805",
      "value": {
        "_hex": "0x4563918244f40000"
      },
      "nonce": 761,
      "data": "0x",
      "r": "0x939a51272b05a74fd47162674e06465676fed706e4c4d3ff8e2ceb113308543b",
      "s": "0x490bca5cd1032506cad630cdd5fe49510c14c1bb39f79e5b28ead0ed37518187",
      "v": 28,
      "creates": null,
      "raw": "0xf86f8202f9850dca48d51f8303d09094ca092a957744f6385b1aee5dc694143e8a06f805884563918244f40000801ca0939a51272b05a74fd47162674e06465676fed706e4c4d3ff8e2ceb113308543ba0490bca5cd1032506cad630cdd5fe49510c14c1bb39f79e5b28ead0ed37518187",
      "networkId": 0,
      "chainId": 0
    },
    {
      "hash": "0x057421b97cb655bdc619d3c600ac42141742814b14272e0dcfaa8792a8dfdae2",
      "blockHash": "0x792e43491c291e3cf837b94579d3405d853d6e9a75dfd25fda03d20fce9f7a8e",
      "blockNumber": 104834,
      "transactionIndex": 1,
      "confirmations": null,
      "from": "0x120A270bbC009644e35F0bB6ab13f95b8199c4ad",
      "gasPrice": {
        "_hex": "0xdca48d51f"
      },
      "gasLimit": {
        "_hex": "0x3d090"
      },
      "to": "0x4c1464369F13B04a2a7eaF3ECba19cc35E7A824a",
      "value": {
        "_hex": "0x998ec6e007b28000"
      },
      "nonce": 762,
      "data": "0x",
      "r": "0x2e62e26c6b9c982f59dfbf1abf134cd2ee99f388521a481eaad64ad97e4aa3b5",
      "s": "0x5e9a1eea7495ee572cc235b772e710fe7d0c0012a1c10ce25ece7bdcefde3f8d",
      "v": 27,
      "creates": null,
      "raw": "0xf86f8202fa850dca48d51f8303d090944c1464369f13b04a2a7eaf3ecba19cc35e7a824a88998ec6e007b28000801ba02e62e26c6b9c982f59dfbf1abf134cd2ee99f388521a481eaad64ad97e4aa3b5a05e9a1eea7495ee572cc235b772e710fe7d0c0012a1c10ce25ece7bdcefde3f8d",
      "networkId": 0,
      "chainId": 0
    }
  ]
}