{
  "hash": "0xb9f49c5adfad5d1e412a79dce15cc9aed62094b60d6920202af4e086df5948f1",
  "parentHash": "0x59264c7b41fb22c5ab02a8aef7736b9e8820be81e4fedcdeed4902e55408d04b",
  "number": 106887,
  "timestamp": 1439912338,
  "nonce": "0xf813c01c5f9b5aca",
  "difficulty": 4446374915411,
  "gasLimit": {
    "_hex": "0x2fefd8"
  },
  "gasUsed": {
    "_hex": "0x5208"
  },
  "miner": "0x5F8F73E26CdF436f19Cb24C82F90A15AFe55b592",
  "extraData": "0x476574682f76312e302e312f77696e646f77732f676f312e342e32",
  "transactions": [
    {
      "hash": "0x5fa028eba5408107346baaa8617834ae66bafe106ff38ab044737dd7c20302ec",
      "blockHash": "0xb9f49c5adfad5d1e412a79dce15cc9aed62094b60d6920202af4e086df5948f1",
      "blockNumber": 106887,
      "transactionIndex": 0,
      "confirmations": null,
      "from": "0xA61A4A69dcB2D8C74BdeCd17AD5821Adc21E95ec",
      "gasPrice": {
        "_hex": "0xcd55c1ffc"
      },
      "gasLimit": {
        "_hex": "0x5208"
      },
      "to": "0x32Be343B94f860124dC4fEe278FDCBD38C102D88",
      "value": {
        "_hex": "0xc2225a233f632800"
      },
      "nonce": 3,
      "data": "0x",
      "r": "0xdb023b5c99c7e51503a71a86ee0fea7dda4777b3b4bd7eb78430c21711d441bc",
      "s": "0x29e200a068cac24dd24acc6a68f71d2ee1b0fb39a7fdbc82c96b44766e096ca7",
      "v": 27,
      "creates": null,
      "raw": "0xf86c03850cd55c1ffc8252089432be343b94f860124dc4fee278fdcbd38c102d8888c2225a233f632800801ba0db023b5c99c7e51503a71a86ee0fea7dda4777b3b4bd7eb78430c21711d441bca029e200a068cac24dd24acc6a68f71d2ee1b0fb39a7fdbc82c96b44766e096ca7",
      "networkId": 0,
      "chainId": 0
    }
  ]
}