{
  "hash": "0x1987bd0f0024292b17c631b07c1e4976d1d3508f84405bcc9aae10b028a10fc8",
  "parentHash": "0x81cf9c0914b24489f5097f33768f918f91edea6a4e13bb86c9153e0ac5328bbd",
  "number": 56674,
  "timestamp": 1439090687,
  "nonce": "0x66c257943ed5fe0d",
  "difficulty": 1687042948668,
  "gasLimit": {
    "_hex": "0x2fefd8"
  },
  "gasUsed": {
    "_hex": "0xa410"
  },
  "miner": "0x5080644b773AC325761CffBca794B92110BfeD18",
  "extraData": "0x",
  "transactions": [
    {
      "hash": "0x0d8585f4950f58dca9889fae095de24ed27bcc0c1b9a6d9fbb093bb087e98eb0",
      "blockHash": "0x1987bd0f0024292b17c631b07c1e4976d1d3508f84405bcc9aae10b028a10fc8",
      "blockNumber": 56674,
      "transactionIndex": 0,
      "confirmations": null,
      "from": "0x40d8646B152DBb1eBFf414Ab9f26b94d1858458c",
      "gasPrice": {
        "_hex": "0xdb6d34390"
      },
      "gasLimit": {
        "_hex": "0x5208"
      },
      "to": "0x32Be343B94f860124dC4fEe278FDCBD38C102D88",
      "value": {
        "_hex": "0xc1d0617516f3000"
      },
      "nonce": 2,
      "data": "0x",
      "r": "0x75b6366236c7945dcb4fa77e9af8c874f7bd78bff7f4ebc3978bf5695778924f",
      "s": "0x1bd2326bfca54c14507e5bcdd347281f1a916d504cdbba7958df3567e98f0ddc",
      "v": 28,
      "creates": null,
      "raw": "0xf86c02850db6d343908252089432be343b94f860124dc4fee278fdcbd38c102d88880c1d0617516f3000801ca075b6366236c7945dcb4fa77e9af8c874f7bd78bff7f4ebc3978bf5695778924fa01bd2326bfca54c14507e5bcdd347281f1a916d504cdbba7958df3567e98f0ddc",
      "networkId": 0,
      "chainId": 0
    },
    {
      "hash": "0x70e4a8833483f3f6f6780ff5135d4a325dc2f70693e250d6c0b3422884c5b6f2",
      "blockHash": "0x1987bd0f0024292b17c631b07c1e4976d1d3508f84405bcc9aae10b028a10fc8",
      "blockNumber": 56674,
      "transactionIndex": 1,
      "confirmations": null,
      "from": "0xa4670731175893bbcfF4fa85cE97d94fC51C4Ba8",
      "gasPrice": {
        "_hex": "0xcd01555c5"
      },
      "gasLimit": {
        "_hex": "0x15f90"
      },
      "to": null,
      "value": {
        "_hex": "0x2386f26fc10000"
      },
      "nonce": 0,
      "data": "0x",
      "r": "0x845b9e0f82fc1041a009d723d04f3615aaa65c14d54081566a8198c59800a5f4",
      "s": "0x0ec4ea760b2beeb75c9cce7ac137f20256960354017bbfce1bea3054097fd348",
      "v": 28,
      "creates": "0x1a785851F96816e37BFc954CB9fc3c1872C885e9",
      "raw": "0xf85880850cd01555c583015f9080872386f26fc10000801ca0845b9e0f82fc1041a009d723d04f3615aaa65c14d54081566a8198c59800a5f4a00ec4ea760b2beeb75c9cce7ac137f20256960354017bbfce1bea3054097fd348",
      "networkId": 0,
      "chainId": 0
    }
  ]
}