{
  "hash": "0xe124884c2f219746bcb4426008967d3e9a2a6bee061dcf45a5d414e9f0b47c8b",
  "parentHash": "0x654c96253345ce1535ba9e211709326ca8a64b813384b234d88b9ffb10d03ca2",
  "number": 99300,
  "timestamp": 1439787684,
  "nonce": "0x7cef58e4ef05a2a3",
  "difficulty": 3797345084578,
  "gasLimit": {
    "_hex": "0x2fefd8"
  },
  "gasUsed": {
    "_hex": "0x5208"
  },
  "miner": "0x9D49F602b0fdb924Bd63DDE2Bd0907E4A07c63a7",
  "extraData": "0x476574682f76312e302e312f6c696e75782f676f312e342e32",
  "transactions": [
    {
      "hash": "0x70ccc91ea396651671bd648ede5b323cd56a37651b2518aa480ec9d674b0c3c1",
      "blockHash": "0xe124884c2f219746bcb4426008967d3e9a2a6bee061dcf45a5d414e9f0b47c8b",
      "blockNumber": 99300,
      "transactionIndex": 0,
      "confirmations": null,
      "from": "0x2910543Af39abA0Cd09dBb2D50200b3E800A63D2",
      "gasPrice": {
        "_hex": "0xd26eb80e1"
      },
      "gasLimit": {
        "_hex": "0x5208"
      },
      "to": "0x2E13e511567AA30aB8F8e7543C5dbE44F341DE2f",
      "value": {
        "_hex": "0x7381742e32ae794000"
      },
      "nonce": 942,
      "data": "0x",
      "r": "0xf77b1c60f4c926a7160f3c08979fb274c5664ba482e2b23a12ac04f233f8a7b8",
      "s": "0x65c113c9742d1f7047c3903ec4e0ea7b7910214ba8e98f4c13e051fe31f0263c",
      "v": 27,
      "creates": null,
      "raw": "0xf86f8203ae850d26eb80e1825208942e13e511567aa30ab8f8e7543c5dbe44f341de2f897381742e32ae794000801ba0f77b1c60f4c926a7160f3c08979fb274c5664ba482e2b23a12ac04f233f8a7b8a065c113c9742d1f7047c3903ec4e0ea7b7910214ba8e98f4c13e051fe31f0263c",
      "networkId": 0,
      "chainId": 0
    }
  ]
}