{
  "hash": "0x9a699804bd6faefc2c15516af87150653a1f67083056ba0492720945f3bb07e4",
  "parentHash": "0x53628e1a3166209825189746e25fad0a4b0c9ad8d6a1ab5b32da0ddf572f7a6f",
  "number": 105845,
  "timestamp": 1439894354,
  "nonce": "0xf38ab417aa80fec1",
  "difficulty": 4451272084923,
  "gasLimit": {
    "_hex": "0x2fefd8"
  },
  "gasUsed": {
    "_hex": "0xa410"
  },
  "miner": "0xa61ff394e3846F8bfbBF8801afb051730B04Ee75",
  "extraData": "0x",
  "transactions": [
    {
      "hash": "0xb9f45e5b7e9c6bea4cdb904bea75474925c11661493af06943b2409bdd76bffa",
      "blockHash": "0x9a699804bd6faefc2c15516af87150653a1f67083056ba0492720945f3bb07e4",
      "blockNumber": 105845,
      "transactionIndex": 0,
      "confirmations": null,
      "from": "0x60f7C29656Fc491e766750556fE4F0E407f81eB5",
      "gasPrice": {
        "_hex": "0xdb839319a"
      },
      "gasLimit": {
        "_hex": "0x15f90"
      },
      "to": "0x5773DFFDd4AD3114CAB6eFE3b9Ca703Fa450Fe40",
      "value": {
        "_hex": "0x3e8"
      },
      "nonce": 3,
      "data": "0x",
      "r": "0xd65549a86dc049acd497be920a82635d110230e4266663183add6c2dfbd75705",
      "s": "0x6f9388186ab5acd53b5d4ce9f4422e5a8123e36ac760fc2150698bef1ec67d70",
      "v": 27,
      "creates": null,
      "raw": "0xf86703850db839319a83015f90945773dffdd4ad3114cab6efe3b9ca703fa450fe408203e8801ba0d65549a86dc049acd497be920a82635d110230e4266663183add6c2dfbd75705a06f9388186ab5acd53b5d4ce9f4422e5a8123e36ac760fc2150698bef1ec67d70",
      "networkId": 0,
      "chainId": 0
    },
    {
      "hash": "0x22d70944ed0cb90a5cf094f6e6065159be17195634e539151413066332be3e80",
      "blockHash": "0x9a699804bd6faefc2c15516af87150653a1f67083056ba0492720945f3bb07e4",
      "blockNumber": 105845,
      "transactionIndex": 1,
      "confirmations": null,
      "from": "0x00A0c500BcE07AC7b154F1843F37bf2c6b3B508C",
      "gasPrice": {
        "_hex": "0xcce416600"
      },
      "gasLimit": {
        "_hex": "0x17f7ec"
      },
      "to": "0x6c101205B323D77544d6DC52AF37aCa3CeC6F7F1",
      "value": {
        "_hex": "0xd8d726b7177a80000"
      },
      "nonce": 1,
      "data": "0x",
      "r": "0xc6184653b5f2a6368478bbd5823dac54b8695037504571f5992b55d1b98d8312",
      "s": "0x2c953b02d5c13c4ed2d81660ad781e08c04547d3de280bce171fdcaffee10acd",
      "v": 27,
      "creates": null,
      "raw": "0xf86e01850cce4166008317f7ec946c101205b323d77544d6dc52af37aca3cec6f7f1890d8d726b7177a80000801ba0c6184653b5f2a6368478bbd5823dac54b8695037504571f5992b55d1b98d8312a02c953b02d5c13c4ed2d81660ad781e08c04547d3de280bce171fdcaffee10acd",
      "networkId": 0,
      "chainId": 0
    }
  ]
}