{
  "hash": "0x729200861774a628d9f53f5c538ef15f8c1539dba2be9e5992fb7d8aa029513d",
  "parentHash": "0x478ba59a413e09163f264bfb124d0cabac59c11bda2a0084f854f692b20e8ef8",
  "number": 47020,
  "timestamp": 1438933263,
  "nonce": "0x0be99a1cc92c6268",
  "difficulty": 1448904543785,
  "gasLimit": {
    "_hex": "0x9049"
  },
  "gasUsed": {
    "_hex": "0x5208"
  },
  "miner": "0x3222BA3F3e79eA0e31467EEE7639B57923558cCD",
  "extraData": "0x476574682f76312e302e302f77696e646f77732f676f312e342e32",
  "transactions": [
    {
      "hash": "0xad3ef6714724435f916e95a37e8806711a0ea6e819f6c0fb1381aeecbf9de2a4",
      "blockHash": "0x729200861774a628d9f53f5c538ef15f8c1539dba2be9e5992fb7d8aa029513d",
      "blockNumber": 47020,
      "transactionIndex": 0,
      "confirmations": null,
      "from": "0x8bae48F227d978d084B009b775222BAaF61ed9fe",
      "gasPrice": {
        "_hex": "0x746a528800"
      },
      "gasLimit": {
        "_hex": "0x5b04"
      },
      "to": "0xE5e500D5c726Fe768CA583C996e244D0D809A1C9",
      "value": {
        "_hex": "0x1"
      },
      "nonce": 0,
      "data": "0x",
      "r": "0x45e43c3c3065ba22ff2472d07827ea78b675a553c3929770013cfff830d70d3d",
      "s": "0x252cac7afbe57452c8b5d5ead4f70eeb3298508dce1f96b8c51ec35c5579099d",
      "v": 28,
      "creates": null,
      "raw": "0xf8648085746a528800825b0494e5e500d5c726fe768ca583c996e244d0d809a1c901801ca045e43c3c3065ba22ff2472d07827ea78b675a553c3929770013cfff830d70d3da0252cac7afbe57452c8b5d5ead4f70eeb3298508dce1f96b8c51ec35c5579099d",
      "networkId": 0,
      "chainId": 0
    }
  ]
}