{
  "hash": "0x27d61fc0492697d7969a3bcfb7f143cb6649953857e867eb852743c09502e664",
  "parentHash": "0xb0a15fce883e824243da734b556168d1db992c104961ad0cf2516974f6065e6a",
  "number": 108589,
  "timestamp": 1439943020,
  "nonce": "0xb887954985d03264",
  "difficulty": 4329790054657,
  "gasLimit": {
    "_hex": "0x2fefd8"
  },
  "gasUsed": {
    "_hex": "0x5208"
  },
  "miner": "0x52bc44d5378309EE2abF1539BF71dE1b7d7bE3b5",
  "extraData": "0x476574682f76312e302e312d63303261396266632f6c696e75782f676f312e34",
  "transactions": [
    {
      "hash": "0x4e7190144daa4ecd181cc140d2eafaf86dfb4dab141ea55f08248dc7938e08b6",
      "blockHash": "0x27d61fc0492697d7969a3bcfb7f143cb6649953857e867eb852743c09502e664",
      "blockNumber": 108589,
      "transactionIndex": 0,
      "confirmations": null,
      "from": "0xc93a69dFC0fb3E867D9207599f7fe87d51619635",
      "gasPrice": {
        "_hex": "0xba43b7400"
      },
      "gasLimit": {
        "_hex": "0x5208"
      },
      "to": "0xC47Aaa860008be6f65B58c6C6E02a84e666EfE31",
      "value": {
        "_hex": "0x456355d2c223c6000"
      },
      "nonce": 14,
      "data": "0x",
      "r": "0xd9d5ade6b830609b4b922aa7632fcf46b896e7ebf180d4712e7d6923b731a873",
      "s": "0x6d514dca1fbef4df24e7452140030f778bd615f34ea6ff39cf9c77f70d659c9d",
      "v": 28,
      "creates": null,
      "raw": "0xf86d0e850ba43b740082520894c47aaa860008be6f65b58c6c6e02a84e666efe31890456355d2c223c6000801ca0d9d5ade6b830609b4b922aa7632fcf46b896e7ebf180d4712e7d6923b731a873a06d514dca1fbef4df24e7452140030f778bd615f34ea6ff39cf9c77f70d659c9d",
      "networkId": 0,
      "chainId": 0
    }
  ]
}