{
  "hash": "0x1cb51d298166f7cb379fd78af7890cf15c0f83729cf4ba533f703bb10faf9719",
  "parentHash": "0x28af22626c1dff1fddf240de922e99d890f9cf39abdf36762c1342e1901bc3ce",
  "number": 99609,
  "timestamp": 1439793090,
  "nonce": "0x4313c7269e23007a",
  "difficulty": 3780554883104,
  "gasLimit": {
    "_hex": "0x2fefd8"
  },
  "gasUsed": {
    "_hex": "0xf618"
  },
  "miner": "0x608f4b86321a68453f9adf6F06F7Fc3E621739ad",
  "extraData": "0x476574682f76312e302e312d38326566323666362f6c696e75782f676f312e34",
  "transactions": [
    {
      "hash": "0x92e4ee74418a5bce0381896425a3cce85de8d90ef2b728939d5438a1cedc0eda",
      "blockHash": "0x1cb51d298166f7cb379fd78af7890cf15c0f83729cf4ba533f703bb10faf9719",
      "blockNumber": 99609,
      "transactionIndex": 0,
      "confirmations": null,
      "from": "0xb794F5eA0ba39494cE839613fffBA74279579268",
      "gasPrice": {
        "_hex": "0xd7d40ace3"
      },
      "gasLimit": {
        "_hex": "0x15f90"
      },
      "to": "0x32Be343B94f860124dC4fEe278FDCBD38C102D88",
      "value": {
        "_hex": "0x56bc75e2d63100000"
      },
      "nonce": 1,
      "data": "0x",
      "r": "0x8a6dca1d8540cb5217b11190fe67856e480d504bee5379c3912c051d92ebb01f",
      "s": "0x62cdf2473b7b0a4f82e07aca3da8cd18e1943940497b61f5d2831513b4bfc3ac",
      "v": 27,
      "creates": null,
      "raw": "0xf86e01850d7d40ace383015f909432be343b94f860124dc4fee278fdcbd38c102d8889056bc75e2d63100000801ba08a6dca1d8540cb5217b11190fe67856e480d504bee5379c3912c051d92ebb01fa062cdf2473b7b0a4f82e07aca3da8cd18e1943940497b61f5d2831513b4bfc3ac",
      "networkId": 0,
      "chainId": 0
    },
    {
      "hash": "0x13b9ad2bd9ed2d0cbbeec8a9d2bae7af32fc84530096c64c67e83c356a067c59",
      "blockHash": "0x1cb51d298166f7cb379fd78af7890cf15c0f83729cf4ba533f703bb10faf9719",
      "blockNumber": 99609,
      "transactionIndex": 1,
      "confirmations": null,
      "from": "0xa70a9a7040d542C632D8e0bE7c5513A8a5Bbc752",
      "gasPrice": {
        "_hex": "0xd5c6879e8"
      },
      "gasLimit": {
        "_hex": "0x5208"
      },
      "to": "0x32Be343B94f860124dC4fEe278FDCBD38C102D88",
      "value": {
        "_hex": "0x455f497eb7a09000"
      },
      "nonce": 197,
      "data": "0x",
      "r": "0xece10acc26e13a9aaa3ea9566e54027c722d4f359e597a4b7a93f9789ff13c00",
      "s": "0x0e2422398d1ee19a4188dca2ede4efe2e08852b2bc599601121c7f8ddcefad82",
      "v": 27,
      "creates": null,
      "raw": "0xf86d81c5850d5c6879e88252089432be343b94f860124dc4fee278fdcbd38c102d8888455f497eb7a09000801ba0ece10acc26e13a9aaa3ea9566e54027c722d4f359e597a4b7a93f9789ff13c00a00e2422398d1ee19a4188dca2ede4efe2e08852b2bc599601121c7f8ddcefad82",
      "networkId": 0,
      "chainId": 0
    },
    {
      "hash": "0xfe9b84df674d0d105e7ddbc3bb742e597756da1e355729b3fab514f97beea44e",
      "blockHash": "0x1cb51d298166f7cb379fd78af7890cf15c0f83729cf4ba533f703bb10faf9719",
      "blockNumber": 99609,
      "transactionIndex": 2,
      "confirmations": null,
      "from": "0x32Be343B94f860124dC4fEe278FDCBD38C102D88",
      "gasPrice": {
        "_hex": "0xd5c6879e8"
      },
      "gasLimit": {
        "_hex": "0x5208"
      },
      "to": "0x00f222E7C680F9932feCAC767cC279C84C0A3285",
      "value": {
        "_hex": "0xa7c1e61ac5ba98000"
      },
      "nonce": 1064,
      "data": "0x",
      "r": "0x49bb7aef628eae5ca84ab2c32cbca2d3c6cd450f7f397408d19448686e3ae0ae",
      "s": "0x4020980a65ee67f7380df48b91457457359ef17ce7badd905f1b788c15bd416a",
      "v": 28,
      "creates": null,
      "raw": "0xf86f820428850d5c6879e88252089400f222e7c680f9932fecac767cc279c84c0a3285890a7c1e61ac5ba98000801ca049bb7aef628eae5ca84ab2c32cbca2d3c6cd450f7f397408d19448686e3ae0aea04020980a65ee67f7380df48b91457457359ef17ce7badd905f1b788c15bd416a",
      "networkId": 0,
      "chainId": 0
    }
  ]
}