{
  "hash": "0xffae35531e7c173ca38a5981e2565e75173d6a5b5beefc6fe60fb0b555969a48",
  "parentHash": "0x48bf5353c63766507dc8ee77ad64ed2a56ccb5f4321d5ea6886dc5211fc9a8f5",
  "number": 50214,
  "timestamp": 1438985553,
  "nonce": "0xc1d7e6a2225fe1f1",
  "difficulty": 1513420537029,
  "gasLimit": {
    "_hex": "0x56ff2"
  },
  "gasUsed": {
    "_hex": "0xa8d8"
  },
  "miner": "0xe343732D1eA6921c73683B947937AC902b77aD4f",
  "extraData": "0x476574682f76312e302e312d38326566323666362f6c696e75782f676f312e34",
  "transactions": [
    {
      "hash": "0x827449cc0b807e0aa76392fa03f3814821eede57b6ddc543149a8d8f20e5f929",
      "blockHash": "0xffae35531e7c173ca38a5981e2565e75173d6a5b5beefc6fe60fb0b555969a48",
      "blockNumber": 50214,
      "transactionIndex": 0,
      "confirmations": null,
      "from": "0x57bDDF078834009C89D88E6282759dC45335b470",
      "gasPrice": {
        "_hex": "0x110c8f7d8de"
      },
      "gasLimit": {
        "_hex": "0xc350"
      },
      "to": "0x2910543Af39abA0Cd09dBb2D50200b3E800A63D2",
      "value": {
        "_hex": "0x7455bb8e0134480000"
      },
      "nonce": 0,
      "data": "0x454e42553732513452",
      "r": "0x8da217663d3888baa20fccb5061ca7b837ee2a4d175dece6063a7bab4bcd884a",
      "s": "0x36eb3a882d1cf7ee4ef122c333b296217389d197888b606580716f2869594a04",
      "v": 27,
      "creates": null,
      "raw": "0xf87780860110c8f7d8de82c350942910543af39aba0cd09dbb2d50200b3e800a63d2897455bb8e013448000089454e425537325134521ba08da217663d3888baa20fccb5061ca7b837ee2a4d175dece6063a7bab4bcd884aa036eb3a882d1cf7ee4ef122c333b296217389d197888b606580716f2869594a04",
      "networkId": 0,
      "chainId": 0
    },
    {
      "hash": "0x9818c7e8650330c9df3d66d76c7a8325ffdcd9cb775a2a5da70d127be32a01c9",
      "blockHash": "0xffae35531e7c173ca38a5981e2565e75173d6a5b5beefc6fe60fb0b555969a48",
      "blockNumber": 50214,
      "transactionIndex": 1,
      "confirmations": null,
      "from": "0x50E13023bD9CA96ad4C53fdfd410CB6b1f420Bdf",
      "gasPrice": {
        "_hex": "0xd1f217cbf"
      },
      "gasLimit": {
        "_hex": "0x15f90"
      },
      "to": "0x2910543Af39abA0Cd09dBb2D50200b3E800A63D2",
      "value": {
        "_hex": "0x4563918244f40000"
      },
      "nonce": 0,
      "data": "0x454e434a4243344e52",
      "r": "0xdf996d3514d432767a095e05932ab4e078e02d4171e15d6e1136448a0d9667fc",
      "s": "0x62ab3cf3dccfeda0106127baeb05b94e72af36c79ddc2630f7f73e1de8e41878",
      "v": 28,
      "creates": null,
      "raw": "0xf87680850d1f217cbf83015f90942910543af39aba0cd09dbb2d50200b3e800a63d2884563918244f4000089454e434a4243344e521ca0df996d3514d432767a095e05932ab4e078e02d4171e15d6e1136448a0d9667fca062ab3cf3dccfeda0106127baeb05b94e72af36c79ddc2630f7f73e1de8e41878",
      "networkId": 0,
      "chainId": 0
    }
  ]
}