{
  "hash": "0xd91a4e6df8c11b13f35dd4455fd1ef6bf680a26bf910578fce21f0fde1954884",
  "parentHash": "0xf763fc7811edfc751e31125ffc0a21f6c3001d8796acc775ac495ac37dd29cd6",
  "number": 80254,
  "timestamp": 1439482568,
  "nonce": "0x8fe7665d92ea8c6a",
  "difficulty": 2386375551083,
  "gasLimit": {
    "_hex": "0x2fefd8"
  },
  "gasUsed": {
    "_hex": "0x6ed7"
  },
  "miner": "0x01d9DA08cc6Fb97c0DE1B6F4C28910A0859Ed1A1",
  "extraData": "0x476574682f76312e302e312f6c696e75782f676f312e342e32",
  "transactions": [
    {
      "hash": "0xdaa93d56d73b9703b112c56bcc53863f0f07d26fbe65635a1dc1b876f2628644",
      "blockHash": "0xd91a4e6df8c11b13f35dd4455fd1ef6bf680a26bf910578fce21f0fde1954884",
      "blockNumber": 80254,
      "transactionIndex": 0,
      "confirmations": null,
      "from": "0x87C5B5874A18B4306DF8a752a6C8cc3E82daFc19",
      "gasPrice": {
        "_hex": "0x114381bd3be"
      },
      "gasLimit": {
        "_hex": "0x493e0"
      },
      "to": "0xC4c51de1AbF5D60DBd329eC0F999Fd8f021ae9fC",
      "value": {
        "_hex": "0x0"
      },
      "nonce": 153,
      "data": "0xbd66528a6b6b6b0000000000000000000000000000000000000000000000000000000000",
      "r": "0x06eb3db66bc1dcfb53427558ebfb2018b52df630a5d9f5436343891ae1ac3b32",
      "s": "0x29b00ca4f207d9deb5f797d0192fa31c3fa8dc6b12c21a67377c3e583f19dd38",
      "v": 27,
      "creates": null,
      "raw": "0xf88b8199860114381bd3be830493e094c4c51de1abf5d60dbd329ec0f999fd8f021ae9fc80a4bd66528a6b6b6b00000000000000000000000000000000000000000000000000000000001ba006eb3db66bc1dcfb53427558ebfb2018b52df630a5d9f5436343891ae1ac3b32a029b00ca4f207d9deb5f797d0192fa31c3fa8dc6b12c21a67377c3e583f19dd38",
      "networkId": 0,
      "chainId": 0
    }
  ]
}