{
  "hash": "0xf9388a6cb6e44cacf172cc572f0363ed0f00673519a1fb0289ef11e8dbb28f12",
  "parentHash": "0x4b888056c57db21ae5a37aeb35e189f518bae90ceb41ee4e6bac3f95f545e9b1",
  "number": 118946,
  "timestamp": 1440134054,
  "nonce": "0xc37f32ec4f9f7967",
  "difficulty": 4398986832039,
  "gasLimit": {
    "_hex": "0x2fefd8"
  },
  "gasUsed": {
    "_hex": "0x5208"
  },
  "miner": "0x17B719A685fC6C0002798e7f8151D0E2E83B7497",
  "extraData": "0x",
  "transactions": [
    {
      "hash": "0x05f3bc05db2e5c9278edd8cd9a88672735e237dec1ecb27a2204f6d8ded02553",
      "blockHash": "0xf9388a6cb6e44cacf172cc572f0363ed0f00673519a1fb0289ef11e8dbb28f12",
      "blockNumber": 118946,
      "transactionIndex": 0,
      "confirmations": null,
      "from": "0xFBb1b73C4f0BDa4f67dcA266ce6Ef42f520fBB98",
      "gasPrice": {
        "_hex": "0xba43b7400"
      },
      "gasLimit": {
        "_hex": "0x5208"
      },
      "to": "0x1Fabd401B08dF84f615091C14C6db1a5E0BeaD0c",
      "value": {
        "_hex": "0x2da8cb646e30b000"
      },
      "nonce": 244,
      "data": "0x",
      "r": "0xc166e7468f78e3eccf8a2bb929e2afa8fd47555ca111fbe2db7746b01644ac9f",
      "s": "0x598c2826ffbc339b94fcf077d2ca62f5939a1fb7183c73e7972152a724d7be50",
      "v": 27,
      "creates": null,
      "raw": "0xf86d81f4850ba43b7400825208941fabd401b08df84f615091c14c6db1a5e0bead0c882da8cb646e30b000801ba0c166e7468f78e3eccf8a2bb929e2afa8fd47555ca111fbe2db7746b01644ac9fa0598c2826ffbc339b94fcf077d2ca62f5939a1fb7183c73e7972152a724d7be50",
      "networkId": 0,
      "chainId": 0
    }
  ]
}