{
  "hash": "0x61b566339c39e280e035aea1ceb793aa9519c7498162ac2e54ff08cb56d1c4ba",
  "parentHash": "0xb2a93f7d3b3812a97039cc9faf86148b8d5b16219f3f9e93037c9ecca1d75135",
  "number": 65855,
  "timestamp": 1439244007,
  "nonce": "0xa876b27b63db5e80",
  "difficulty": 1948193131765,
  "gasLimit": {
    "_hex": "0x2fefd8"
  },
  "gasUsed": {
    "_hex": "0x5208"
  },
  "miner": "0xEF247E639d49461D25F57e9362CadE3120910Ce0",
  "extraData": "0x476574682f76312e302e312f6c696e75782f676f312e342e32",
  "transactions": [
    {
      "hash": "0x9da701b451a7654e803425faea5a1dfac3059463a0c5602775c9cd59d1032f2d",
      "blockHash": "0x61b566339c39e280e035aea1ceb793aa9519c7498162ac2e54ff08cb56d1c4ba",
      "blockNumber": 65855,
      "transactionIndex": 0,
      "confirmations": null,
      "from": "0x4b486e0f865854F3d34bd001a6Fd3077C7F2f67E",
      "gasPrice": {
        "_hex": "0xde47b2eef"
      },
      "gasLimit": {
        "_hex": "0x5208"
      },
      "to": "0x32Be343B94f860124dC4fEe278FDCBD38C102D88",
      "value": {
        "_hex": "0x1847dc48d4f048000"
      },
      "nonce": 0,
      "data": "0x",
      "r": "0x35801fd523a699b706ff5e2a464643e4564c7591fbf7cdd400dfdcb3b891d9b5",
      "s": "0x10036f148ad4c59c620183ecc739913aebc2e4809372343528c659f9fea6a712",
      "v": 28,
      "creates": null,
      "raw": "0xf86d80850de47b2eef8252089432be343b94f860124dc4fee278fdcbd38c102d888901847dc48d4f048000801ca035801fd523a699b706ff5e2a464643e4564c7591fbf7cdd400dfdcb3b891d9b5a010036f148ad4c59c620183ecc739913aebc2e4809372343528c659f9fea6a712",
      "networkId": 0,
      "chainId": 0
    }
  ]
}