{
  "hash": "0xe1abdf2e6e3f95a4ec34522beaf3e76ad0db873fce1a352232c1f650eed6677a",
  "parentHash": "0x2745bd91fdeb9c350fd989b65eed5e970a272001269ea66c2032f8188c96555c",
  "number": 114980,
  "timestamp": 1440049729,
  "nonce": "0xd30e3d86951299c2",
  "difficulty": 4496644310255,
  "gasLimit": {
    "_hex": "0x2fefd8"
  },
  "gasUsed": {
    "_hex": "0x5208"
  },
  "miner": "0xe6A7a1d47ff21B6321162AEA7C6CB457D5476Bca",
  "extraData": "0x476574682f76312e302e312d38326566323666362f6c696e75782f676f312e34",
  "transactions": [
    {
      "hash": "0x3c2529cf05a1eab0b65b75af57eaa74042c1dc0f4d3d7c2e36844a96e51e92c8",
      "blockHash": "0xe1abdf2e6e3f95a4ec34522beaf3e76ad0db873fce1a352232c1f650eed6677a",
      "blockNumber": 114980,
      "transactionIndex": 0,
      "confirmations": null,
      "from": "0x0D92582fdba05EAbC3E51538C56Db8813785b328",
      "gasPrice": {
        "_hex": "0xd01147ed8"
      },
      "gasLimit": {
        "_hex": "0x15f90"
      },
      "to": "0x3F3990F78c33F1F7A2868AE9579EA3732e84C71D",
      "value": {
        "_hex": "0x2b5e3af16b1880000"
      },
      "nonce": 3,
      "data": "0x",
      "r": "0xe3384317064c8fec0d0a81a21468de4787d245b19a61bf8e0cfaf4d6222f4557",
      "s": "0x2ad41f0c745ef63aa13daacb6380270e26edc609221554a88b3e33d6663f0819",
      "v": 28,
      "creates": null,
      "raw": "0xf86e03850d01147ed883015f90943f3990f78c33f1f7a2868ae9579ea3732e84c71d8902b5e3af16b1880000801ca0e3384317064c8fec0d0a81a21468de4787d245b19a61bf8e0cfaf4d6222f4557a02ad41f0c745ef63aa13daacb6380270e26edc609221554a88b3e33d6663f0819",
      "networkId": 0,
      "chainId": 0
    }
  ]
}