{
  "hash": "0x35f5bbbbd48fb4c01b7c766c9920258132a6e0438487c2c27c8fb67529967ac4",
  "parentHash": "0x67544f3e7e4d57c1898372741f917c2bfac6053943e77beb7e260f82a4f4ddf5",
  "number": 119411,
  "timestamp": 1440142410,
  "nonce": "0xb742a4447b82edae",
  "difficulty": 4400891341076,
  "gasLimit": {
    "_hex": "0x2fefd8"
  },
  "gasUsed": {
    "_hex": "0x1ec30"
  },
  "miner": "0xbb7B8287f3F0a933474a79eAe42CBCa977791171",
  "extraData": "0xd783010003844765746887676f312e342e32856c696e7578",
  "transactions": [
    {
      "hash": "0xdb042925fd833a2169e7cede305dcd506a3440327098b7a69f96bafa196cbee5",
      "blockHash": "0x35f5bbbbd48fb4c01b7c766c9920258132a6e0438487c2c27c8fb67529967ac4",
      "blockNumber": 119411,
      "transactionIndex": 0,
      "confirmations": null,
      "from": "0xD99b25c518320820D3C5ae9f47378DA32dED5f00",
      "gasPrice": {
        "_hex": "0xba43b7400"
      },
      "gasLimit": {
        "_hex": "0x5208"
      },
      "to": "0x32Be343B94f860124dC4fEe278FDCBD38C102D88",
      "value": {
        "_hex": "0x74f7d98453157c00"
      },
      "nonce": 12,
      "data": "0x",
      "r": "0x08d5fad2a30ba6e0608c80f7cde0fc1ad94ae38eff0397a96bf4bd32d7c881f3",
      "s": "0x45b7e713ffd0a1d02f23d2dbd2c80baaae09f5a33b08f93f2e457476f4043b9b",
      "v": 27,
      "creates": null,
      "raw": "0xf86c0c850ba43b74008252089432be343b94f860124dc4fee278fdcbd38c102d888874f7d98453157c00801ba008d5fad2a30ba6e0608c80f7cde0fc1ad94ae38eff0397a96bf4bd32d7c881f3a045b7e713ffd0a1d02f23d2dbd2c80baaae09f5a33b08f93f2e457476f4043b9b",
      "networkId": 0,
      "chainId": 0
    },
    {
      "hash": "0xb7bc9a0fa287fa5c5fe89904439fa715634dac387a1c521c4304acee3d627343",
      "blockHash": "0x35f5bbbbd48fb4c01b7c766c9920258132a6e0438487c2c27c8fb67529967ac4",
      "blockNumber": 119411,
      "transactionIndex": 1,
      "confirmations": null,
      "from": "0x629e35e0A481d821293F354E0dD27E43a354D061",
      "gasPrice": {
        "_hex": "0xba43b7400"
      },
      "gasLimit": {
        "_hex": "0x5208"
      },
      "to": "0x32Be343B94f860124dC4fEe278FDCBD38C102D88",
      "value": {
        "_hex": "0x365d5948c764f800"
      },
      "nonce": 11,
      "data": "0x",
      "r": "0xdef3c78e1f47afb9b9c7f037c483c37b21480fb6af94a64390e266deaa1fc01a",
      "s": "0x6224940434280b47601d07878a1e66e7fcfab38b606f23007874f0ab9eacf5de",
      "v": 27,
      "creates": null,
      "raw": "0xf86c0b850ba43b74008252089432be343b94f860124dc4fee278fdcbd38c102d8888365d5948c764f800801ba0def3c78e1f47afb9b9c7f037c483c37b21480fb6af94a64390e266deaa1fc01aa06224940434280b47601d07878a1e66e7fcfab38b606f23007874f0ab9eacf5de",
      "networkId": 0,
      "chainId": 0
    },
    {
      "hash": "0x77a800b196f32e63691acbe91c1dd5d1f7b1edcbfcdf35eb2219f7cb534c6a68",
      "blockHash": "0x35f5bbbbd48fb4c01b7c766c9920258132a6e0438487c2c27c8fb67529967ac4",
      "blockNumber": 119411,
      "transactionIndex": 2,
      "confirmations": null,
      "from": "0x022A006FcC619ebf387F413eF06932bAbd47AE0E",
      "gasPrice": {
        "_hex": "0xba43b7400"
      },
      "gasLimit": {
        "_hex": "0x5208"
      },
      "to": "0x32Be343B94f860124dC4fEe278FDCBD38C102D88",
      "value": {
        "_hex": "0x9595dd2fabff8000"
      },
      "nonce": 13,
      "data": "0x",
      "r": "0x5bfc19c88390c708e09e7af713c3a0592b9e06b8d3549da8014c932362affd47",
      "s": "0x7d95adb2de060e1e307dc08c3d9ae7dd27d808d836ece2bf8950ef8306c604a3",
      "v": 28,
      "creates": null,
      "raw": "0xf86c0d850ba43b74008252089432be343b94f860124dc4fee278fdcbd38c102d88889595dd2fabff8000801ca05bfc19c88390c708e09e7af713c3a0592b9e06b8d3549da8014c932362affd47a07d95adb2de060e1e307dc08c3d9ae7dd27d808d836ece2bf8950ef8306c604a3",
      "networkId": 0,
      "chainId": 0
    },
    {
      "hash": "0x260414f256796d7468de53f525f0f6e232a7318ddf755f5bbef485d1a5ba71b5",
      "blockHash": "0x35f5bbbbd48fb4c01b7c766c9920258132a6e0438487c2c27c8fb67529967ac4",
      "blockNumber": 119411,
      "transactionIndex": 3,
      "confirmations": null,
      "from": "0xcD690730A45cdebeF24F2a3db2de181bFBA5CBea",
      "gasPrice": {
        "_hex": "0xba43b7400"
      },
      "gasLimit": {
        "_hex": "0x5208"
      },
      "to": "0x32Be343B94f860124dC4fEe278FDCBD38C102D88",
      "value": {
        "_hex": "0x8ef7a35ec1625800"
      },
      "nonce": 13,
      "data": "0x",
      "r": "0xd828831f6356c7f489baf42f104e3048d8477c737e672c852bd0f9bcbf029011",
      "s": "0x1eab92f553688daed8168c3aeb4123c60f41f31fcfcf47b11bbe25d3d589b931",
      "v": 27,
      "creates": null,
      "raw": "0xf86c0d850ba43b74008252089432be343b94f860124dc4fee278fdcbd38c102d88888ef7a35ec1625800801ba0d828831f6356c7f489baf42f104e3048d8477c737e672c852bd0f9bcbf029011a01eab92f553688daed8168c3aeb4123c60f41f31fcfcf47b11bbe25d3d589b931",
      "networkId": 0,
      "chainId": 0
    },
    {
      "hash": "0xe5db1f1ee1d4e827fb1532c36ee6fda2f0b0bcb30c28f377f47808ef499fda84",
      "blockHash": "0x35f5bbbbd48fb4c01b7c766c9920258132a6e0438487c2c27c8fb67529967ac4",
      "blockNumber": 119411,
      "transactionIndex": 4,
      "confirmations": null,
      "from": "0x211D45933Ef88c3D7aD0120942CF50ab506e618F",
      "gasPrice": {
        "_hex": "0xba43b7400"
      },
      "gasLimit": {
        "_hex": "0x5208"
      },
      "to": "0x32Be343B94f860124dC4fEe278FDCBD38C102D88",
      "value": {
        "_hex": "0x2e05e1d15fce2c00"
      },
      "nonce": 14,
      "data": "0x",
      "r": "0x18c42b5d18a3e9cb73a7226ba187c1473ff13abeee35fcb38bfe0b4ba50e5461",
      "s": "0x1ccb78dd02fafc3d827d41c42e9d0a9054a1ee5be3e791e061c4cedf5af5fa37",
      "v": 27,
      "creates": null,
      "raw": "0xf86c0e850ba43b74008252089432be343b94f860124dc4fee278fdcbd38c102d88882e05e1d15fce2c00801ba018c42b5d18a3e9cb73a7226ba187c1473ff13abeee35fcb38bfe0b4ba50e5461a01ccb78dd02fafc3d827d41c42e9d0a9054a1ee5be3e791e061c4cedf5af5fa37",
      "networkId": 0,
      "chainId": 0
    },
    {
      "hash": "0xc386569f24378bfeda3de06bcea4b49872271b73f2219220b0a1e364e4212c62",
      "blockHash": "0x35f5bbbbd48fb4c01b7c766c9920258132a6e0438487c2c27c8fb67529967ac4",
      "blockNumber": 119411,
      "transactionIndex": 5,
      "confirmations": null,
      "from": "0xE921770D00ff942284b8f101b71C029ecE92DA53",
      "gasPrice": {
        "_hex": "0xba43b7400"
      },
      "gasLimit": {
        "_hex": "0x5208"
      },
      "to": "0x32Be343B94f860124dC4fEe278FDCBD38C102D88",
      "value": {
        "_hex": "0x13e559377d70f8000"
      },
      "nonce": 7,
      "data": "0x",
      "r": "0xd75481d726e32f5c6dfb8e411d5383a9f7b8ece394a92b2d36d07009a9277d66",
      "s": "0x75fa4f9e1e78826994e9160e11dd3c39529ef857028355c16a163454430e16e2",
      "v": 28,
      "creates": null,
      "raw": "0xf86d07850ba43b74008252089432be343b94f860124dc4fee278fdcbd38c102d8889013e559377d70f8000801ca0d75481d726e32f5c6dfb8e411d5383a9f7b8ece394a92b2d36d07009a9277d66a075fa4f9e1e78826994e9160e11dd3c39529ef857028355c16a163454430e16e2",
      "networkId": 0,
      "chainId": 0
    }
  ]
}