{
  "hash": "0x11e752a6b6446becf26f9d855a4864af41967240c3712805657097e1c749dafe",
  "parentHash": "0x0efec3e832e5dba3fb06c7399216d3ebe6c855b5c0dca2643245762756cf28e6",
  "number": 64913,
  "timestamp": 1439228345,
  "nonce": "0x017b1d49608e4c88",
  "difficulty": 1906997970521,
  "gasLimit": {
    "_hex": "0x2fefd8"
  },
  "gasUsed": {
    "_hex": "0x5208"
  },
  "miner": "0xB4f6A8f7Cd91Cd4bcADcc0a20e417c392E5f50A4",
  "extraData": "0x57686f2061726520796f753f",
  "transactions": [
    {
      "hash": "0x40a3f120629070383f79a479100ffe1909508e8efe3e7b8f3368c515ce70d2b9",
      "blockHash": "0x11e752a6b6446becf26f9d855a4864af41967240c3712805657097e1c749dafe",
      "blockNumber": 64913,
      "transactionIndex": 0,
      "confirmations": null,
      "from": "0x70cc0dB519BcA4E67aEE568550c9f427546fBDF6",
      "gasPrice": {
        "_hex": "0xba43b7400"
      },
      "gasLimit": {
        "_hex": "0x5208"
      },
      "to": "0xc609CD63D7A40deFB771442b834102206fe99669",
      "value": {
        "_hex": "0xd8e5610f40e000"
      },
      "nonce": 1,
      "data": "0x",
      "r": "0xa3f920d13319a63565fb70e34c84ddf0bcf6032bb92e259f36808218f0e5c3c0",
      "s": "0x56cc782261a750dda68e6b535d9ddaa0a4130a6401f46d7933d880075f991362",
      "v": 27,
      "creates": null,
      "raw": "0xf86b01850ba43b740082520894c609cd63d7a40defb771442b834102206fe9966987d8e5610f40e000801ba0a3f920d13319a63565fb70e34c84ddf0bcf6032bb92e259f36808218f0e5c3c0a056cc782261a750dda68e6b535d9ddaa0a4130a6401f46d7933d880075f991362",
      "networkId": 0,
      "chainId": 0
    }
  ]
}