{
  "hash": "0xf101d92b002f39c1eb79c4a4f0dfaf305206236fc5d035323476e74312eda073",
  "parentHash": "0x7ce7a8f0bb4216ff76d9fc4b50906c06d22e7e63fd99660c7c0ef780be909acc",
  "number": 102107,
  "timestamp": 1439833058,
  "nonce": "0x10a178385aadfa1b",
  "difficulty": 3891792645540,
  "gasLimit": {
    "_hex": "0x2fefd8"
  },
  "gasUsed": {
    "_hex": "0xa410"
  },
  "miner": "0xbb7B8287f3F0a933474a79eAe42CBCa977791171",
  "extraData": "0x476574682f4c5649562f76312e302e312f6c696e75782f676f312e342e32",
  "transactions": [
    {
      "hash": "0xc509df400f852abcada52c92df97dd5065f86d0672374ce04e27db5cb32f7c81",
      "blockHash": "0xf101d92b002f39c1eb79c4a4f0dfaf305206236fc5d035323476e74312eda073",
      "blockNumber": 102107,
      "transactionIndex": 0,
      "confirmations": null,
      "from": "0x2910543Af39abA0Cd09dBb2D50200b3E800A63D2",
      "gasPrice": {
        "_hex": "0xdd8eda41f"
      },
      "gasLimit": {
        "_hex": "0x5208"
      },
      "to": "0x3c3Ca5A5a214208bFCA6b54F57A41b10f5fbe873",
      "value": {
        "_hex": "0xa8438b0aba1e78000"
      },
      "nonce": 983,
      "data": "0x",
      "r": "0xa927c9871c643fcea59de49d471d0f3161e212790d3628f92d413ae0ffd53304",
      "s": "0x0987d60866598712966f5d4f2c84f0b8783a77c24d954d607bd827c384d7fd02",
      "v": 28,
      "creates": null,
      "raw": "0xf86f8203d7850dd8eda41f825208943c3ca5a5a214208bfca6b54f57a41b10f5fbe873890a8438b0aba1e78000801ca0a927c9871c643fcea59de49d471d0f3161e212790d3628f92d413ae0ffd53304a00987d60866598712966f5d4f2c84f0b8783a77c24d954d607bd827c384d7fd02",
      "networkId": 0,
      "chainId": 0
    },
    {
      "hash": "0xd1f0661e8601f4de2a6c143f78ad819229bc5260e132b95d376e20a4008abf9b",
      "blockHash": "0xf101d92b002f39c1eb79c4a4f0dfaf305206236fc5d035323476e74312eda073",
      "blockNumber": 102107,
      "transactionIndex": 1,
      "confirmations": null,
      "from": "0xFBb1b73C4f0BDa4f67dcA266ce6Ef42f520fBB98",
      "gasPrice": {
        "_hex": "0xd6f0d7cb5"
      },
      "gasLimit": {
        "_hex": "0x5208"
      },
      "to": "0x6724EFf089f9dD79c381137DF68678bD574B37e0",
      "value": {
        "_hex": "0x1fb63a72a4a4020000"
      },
      "nonce": 97,
      "data": "0x",
      "r": "0xab5dabffad33d5b14be005530f3fddd71376760e23b3ac55daf13e8c37646de6",
      "s": "0x7a05499bf4e0841c1a00023e244e2c2e0b42361c65c9db9886862d03ac122436",
      "v": 27,
      "creates": null,
      "raw": "0xf86d61850d6f0d7cb5825208946724eff089f9dd79c381137df68678bd574b37e0891fb63a72a4a4020000801ba0ab5dabffad33d5b14be005530f3fddd71376760e23b3ac55daf13e8c37646de6a07a05499bf4e0841c1a00023e244e2c2e0b42361c65c9db9886862d03ac122436",
      "networkId": 0,
      "chainId": 0
    }
  ]
}