{
  "hash": "0x00c488863404a1478948bfef5a1a315516ff399792f6bc51d784653394a929d9",
  "parentHash": "0x621be5513781b271902de59f4727bafc30bf3f7018d0c95bbbde45d97bdbef3e",
  "number": 72216,
  "timestamp": 1439349216,
  "nonce": "0x32582032e077bd94",
  "difficulty": 2172779760685,
  "gasLimit": {
    "_hex": "0x2fefd8"
  },
  "gasUsed": {
    "_hex": "0x34d7e"
  },
  "miner": "0x88D74a59454F6cF3B51ef6b9136AFb6b9D405A88",
  "extraData": "0x476574682f76312e302e312d37666266393930632f6c696e75782f676f312e34",
  "transactions": [
    {
      "hash": "0xd576a67beddbbff055362576f9fa8034270ab62c23611abf71078c9027b0b074",
      "blockHash": "0x00c488863404a1478948bfef5a1a315516ff399792f6bc51d784653394a929d9",
      "blockNumber": 72216,
      "transactionIndex": 0,
      "confirmations": null,
      "from": "0x17580B766f7453525ca4C6A88b01b50570EA088C",
      "gasPrice": {
        "_hex": "0xd0bd34973"
      },
      "gasLimit": {
        "_hex": "0x61a80"
      },
      "to": "0x5Fe5B7546D1628f7348B023A0393de1FC825A4fD",
      "value": {
        "_hex": "0x8ac7230489e80000"
      },
      "nonce": 384,
      "data": "0xb595b8b50000000000000000000000000000000000000000000000000000000000000000",
      "r": "0x41eb38088176ff7056f2375f9bf7ec97fda958582993ac64c66f5617ba56284c",
      "s": "0x03b3f2301d0f8edea5c2f4b6fd604a9738d96566fda1cb51af183248f65a6096",
      "v": 27,
      "creates": null,
      "raw": "0xf893820180850d0bd3497383061a80945fe5b7546d1628f7348b023a0393de1fc825a4fd888ac7230489e80000a4b595b8b500000000000000000000000000000000000000000000000000000000000000001ba041eb38088176ff7056f2375f9bf7ec97fda958582993ac64c66f5617ba56284ca003b3f2301d0f8edea5c2f4b6fd604a9738d96566fda1cb51af183248f65a6096",
      "networkId": 0,
      "chainId": 0
    },
    {
      "hash": "0x3b90e76278d6ec835870c22631fbfaea5cd6e3f57ed7d319898d7861bbe91388",
      "blockHash": "0x00c488863404a1478948bfef5a1a315516ff399792f6bc51d784653394a929d9",
      "blockNumber": 72216,
      "transactionIndex": 1,
      "confirmations": null,
      "from": "0x17580B766f7453525ca4C6A88b01b50570EA088C",
      "gasPrice": {
        "_hex": "0xd0bd34973"
      },
      "gasLimit": {
        "_hex": "0x61a80"
      },
      "to": "0x5Fe5B7546D1628f7348B023A0393de1FC825A4fD",
      "value": {
        "_hex": "0x8ac7230489e80000"
      },
      "nonce": 385,
      "data": "0xb595b8b50000000000000000000000000000000000000000000000000000000000000000",
      "r": "0x6a2f8a8c8970a22b938f16dedf0a01a10a6c3fe14f9b873fa04ef84b2be1e70a",
      "s": "0x1c0464b41b9a138c1648f0c4b17fe57ffbd2d314d5ad3204ee3ec60bb538967b",
      "v": 28,
      "creates": null,
      "raw": "0xf893820181850d0bd3497383061a80945fe5b7546d1628f7348b023a0393de1fc825a4fd888ac7230489e80000a4b595b8b500000000000000000000000000000000000000000000000000000000000000001ca06a2f8a8c8970a22b938f16dedf0a01a10a6c3fe14f9b873fa04ef84b2be1e70aa01c0464b41b9a138c1648f0c4b17fe57ffbd2d314d5ad3204ee3ec60bb538967b",
      "networkId": 0,
      "chainId": 0
    },
    {
      "hash": "0x57671c83cc253b6cc6ca2e829b863b7fd31d9ab8d577425ffec1c0e6d99179b5",
      "blockHash": "0x00c488863404a1478948bfef5a1a315516ff399792f6bc51d784653394a929d9",
      "blockNumber": 72216,
      "transactionIndex": 2,
      "confirmations": null,
      "from": "0x17580B766f7453525ca4C6A88b01b50570EA088C",
      "gasPrice": {
        "_hex": "0xd0bd34973"
      },
      "gasLimit": {
        "_hex": "0x61a80"
      },
      "to": "0x5Fe5B7546D1628f7348B023A0393de1FC825A4fD",
      "value": {
        "_hex": "0x8ac7230489e80000"
      },
      "nonce": 386,
      "data": "0xb595b8b50000000000000000000000000000000000000000000000000000000000000000",
      "r": "0xb5f31ffaf63eee78dee349b135e46bb66746ca71b01a4603f7d27f2d959715ab",
      "s": "0x5fcaaf9a499ed877a1bda833a77c1ca9615dcd3d5a75a83fb9fa1b5104efd4d2",
      "v": 28,
      "creates": null,
      "raw": "0xf893820182850d0bd3497383061a80945fe5b7546d1628f7348b023a0393de1fc825a4fd888ac7230489e80000a4b595b8b500000000000000000000000000000000000000000000000000000000000000001ca0b5f31ffaf63eee78dee349b135e46bb66746ca71b01a4603f7d27f2d959715aba05fcaaf9a499ed877a1bda833a77c1ca9615dcd3d5a75a83fb9fa1b5104efd4d2",
      "networkId": 0,
      "chainId": 0
    },
    {
      "hash": "0x68882d99b74c7109521264029a6280acb3d585d5e28b3bb942bc5f95c5eedb45",
      "blockHash": "0x00c488863404a1478948bfef5a1a315516ff399792f6bc51d784653394a929d9",
      "blockNumber": 72216,
      "transactionIndex": 3,
      "confirmations": null,
      "from": "0x17580B766f7453525ca4C6A88b01b50570EA088C",
      "gasPrice": {
        "_hex": "0xd0bd34973"
      },
      "gasLimit": {
        "_hex": "0x61a80"
      },
      "to": "0x5Fe5B7546D1628f7348B023A0393de1FC825A4fD",
      "value": {
        "_hex": "0x8ac7230489e80000"
      },
      "nonce": 387,
      "data": "0xb595b8b50000000000000000000000000000000000000000000000000000000000000000",
      "r": "0x780ec054f3f2cb60c560ef8e91ad270b92e90cd671cd5736cee936853b8267e4",
      "s": "0x671d866233633cf411e32e17fdc9f055df5c9dee0e98b2518ce5d0299f4b0927",
      "v": 28,
      "creates": null,
      "raw": "0xf893820183850d0bd3497383061a80945fe5b7546d1628f7348b023a0393de1fc825a4fd888ac7230489e80000a4b595b8b500000000000000000000000000000000000000000000000000000000000000001ca0780ec054f3f2cb60c560ef8e91ad270b92e90cd671cd5736cee936853b8267e4a0671d866233633cf411e32e17fdc9f055df5c9dee0e98b2518ce5d0299f4b0927",
      "networkId": 0,
      "chainId": 0
    },
    {
      "hash": "0x48e1add3a108504a929583e631fcc03a071b54286dc0653448dd8016fd17299c",
      "blockHash": "0x00c488863404a1478948bfef5a1a315516ff399792f6bc51d784653394a929d9",
      "blockNumber": 72216,
      "transactionIndex": 4,
      "confirmations": null,
      "from": "0x17580B766f7453525ca4C6A88b01b50570EA088C",
      "gasPrice": {
        "_hex": "0xd0bd34973"
      },
      "gasLimit": {
        "_hex": "0x61a80"
      },
      "to": "0x5Fe5B7546D1628f7348B023A0393de1FC825A4fD",
      "value": {
        "_hex": "0x8ac7230489e80000"
      },
      "nonce": 388,
      "data": "0xb595b8b50000000000000000000000000000000000000000000000000000000000000000",
      "r": "0x6557185431a7635ee08df9431c472ec932652f5dc2d7e5a926a30d863c390246",
      "s": "0x3318f8ccb604a359ee143b43390aeabfe006f2606688586e4bd02c5e3821d900",
      "v": 27,
      "creates": null,
      "raw": "0xf893820184850d0bd3497383061a80945fe5b7546d1628f7348b023a0393de1fc825a4fd888ac7230489e80000a4b595b8b500000000000000000000000000000000000000000000000000000000000000001ba06557185431a7635ee08df9431c472ec932652f5dc2d7e5a926a30d863c390246a03318f8ccb604a359ee143b43390aeabfe006f2606688586e4bd02c5e3821d900",
      "networkId": 0,
      "chainId": 0
    }
  ]
}