{
  "hash": "0x889d18b8791f43688d07e0b588e94de746a020d4337c61e5285cd97556a6416e",
  "parentHash": "0x1f5812727aefc1c63555872f320a4f7c86719873f5e8d2450eab85b6bb25c0c5",
  "number": 65342,
  "timestamp": 1439235315,
  "nonce": "0xedd77090a067183a",
  "difficulty": 1941664372576,
  "gasLimit": {
    "_hex": "0x2fefd8"
  },
  "gasUsed": {
    "_hex": "0x1dd5f"
  },
  "miner": "0xe6A7a1d47ff21B6321162AEA7C6CB457D5476Bca",
  "extraData": "0x476574682f76312e302e312f6c696e75782f676f312e342e32",
  "transactions": [
    {
      "hash": "0x621de9a006b56c425d21ee0e04ab25866fff4cf606dd5d03cf677c5eb2172161",
      "blockHash": "0x889d18b8791f43688d07e0b588e94de746a020d4337c61e5285cd97556a6416e",
      "blockNumber": 65342,
      "transactionIndex": 0,
      "confirmations": null,
      "from": "0x3fB1cD2cd96c6D5c0B5eb3322D807B34482481d4",
      "gasPrice": {
        "_hex": "0xba43b7400"
      },
      "gasLimit": {
        "_hex": "0x1dd9d"
      },
      "to": "0xde0B295669a9FD93d5F28D9Ec85E40f4cb697BAe",
      "value": {
        "_hex": "0x0"
      },
      "nonce": 1,
      "data": "0xf00d4b5d00000000000000000000000005096a47749d8bfab0a90c1bb7a95115dbe4cea60000000000000000000000005ed8cee6b63b1c6afce3ad7c92f4fd7e1b8fad9f",
      "r": "0x27df47c63294ea1af53031d61a3d97fc8432b5ebd1b72781e6b11aca27660f41",
      "s": "0x7ba3ed860dbab6eb66513e0e1618f152d8ca28e0ec061ca9765bc9c184a564c0",
      "v": 28,
      "creates": null,
      "raw": "0xf8aa01850ba43b74008301dd9d94de0b295669a9fd93d5f28d9ec85e40f4cb697bae80b844f00d4b5d00000000000000000000000005096a47749d8bfab0a90c1bb7a95115dbe4cea60000000000000000000000005ed8cee6b63b1c6afce3ad7c92f4fd7e1b8fad9f1ca027df47c63294ea1af53031d61a3d97fc8432b5ebd1b72781e6b11aca27660f41a07ba3ed860dbab6eb66513e0e1618f152d8ca28e0ec061ca9765bc9c184a564c0",
      "networkId": 0,
      "chainId": 0
    }
  ]
}