{
  "hash": "0xb9afe831df24928c4efdc34713ec7e147e1b099158d42e28d1fb5cd36c8de5f9",
  "parentHash": "0xe013417a96674fd0c30c77488a9c21312c6d439a993ff091f46cfbb020dc3fbd",
  "number": 59810,
  "timestamp": 1439144077,
  "nonce": "0x5acde4c5a63b6945",
  "difficulty": 1719673888281,
  "gasLimit": {
    "_hex": "0x2fefd8"
  },
  "gasUsed": {
    "_hex": "0x5208"
  },
  "miner": "0x0193d941b50d91BE6567c7eE1C0Fe7AF498b4137",
  "extraData": "0x4a5ace9e4e",
  "transactions": [
    {
      "hash": "0x07fad2cf2f7f0d60b47a95628be10ee67e1d0d8ccf8b4555d8d2ff12fa19e242",
      "blockHash": "0xb9afe831df24928c4efdc34713ec7e147e1b099158d42e28d1fb5cd36c8de5f9",
      "blockNumber": 59810,
      "transactionIndex": 0,
      "confirmations": null,
      "from": "0x1D889aFF5D57138c9819412d63b5d877567B5936",
      "gasPrice": {
        "_hex": "0xcca8760c4"
      },
      "gasLimit": {
        "_hex": "0x7530"
      },
      "to": "0xa9f5E7bf6Cbf6fEc55B30850Eb492b47A376d050",
      "value": {
        "_hex": "0xff011d2523cd80000"
      },
      "nonce": 8,
      "data": "0x",
      "r": "0xe0c9968487cdf47cfcad411a6af3a9670a04419d9680f7a305e1182d4e2a2480",
      "s": "0x1f9b20c6ca787626cc91afb691b1d725a7ce96ef15dc54fc327e5991689a890f",
      "v": 28,
      "creates": null,
      "raw": "0xf86d08850cca8760c482753094a9f5e7bf6cbf6fec55b30850eb492b47a376d050890ff011d2523cd80000801ca0e0c9968487cdf47cfcad411a6af3a9670a04419d9680f7a305e1182d4e2a2480a01f9b20c6ca787626cc91afb691b1d725a7ce96ef15dc54fc327e5991689a890f",
      "networkId": 0,
      "chainId": 0
    }
  ]
}