{
  "hash": "0xc346c03d068298047431cab756f43ad8f1cd07401fce42da26723bfc0268dc63",
  "parentHash": "0x0e6ec7371bfb402b5a8d595b1b4a8b5e259157914d35bbb8dd3fdb0a7e04c375",
  "number": 46389,
  "timestamp": 1438922333,
  "nonce": "0x10e75c6d2f3188f6",
  "difficulty": 1465378358886,
  "gasLimit": {
    "_hex": "0x5e8c"
  },
  "gasUsed": {
    "_hex": "0x5208"
  },
  "miner": "0x306e6267d94f23a9b37Cb110f20852208Fbbf1aA",
  "extraData": "0x476574682f76312e302e312f77696e646f77732f676f312e342e32",
  "transactions": [
    {
      "hash": "0x3993768b76c8c081878f536caa9a8c1e9e63f8943221219cf87c9633af7ac67d",
      "blockHash": "0xc346c03d068298047431cab756f43ad8f1cd07401fce42da26723bfc0268dc63",
      "blockNumber": 46389,
      "transactionIndex": 0,
      "confirmations": null,
      "from": "0x0cDA12BF72d461BBc479eB92e6491d057e6B5Ad1",
      "gasPrice": {
        "_hex": "0x746a528800"
      },
      "gasLimit": {
        "_hex": "0x55f0"
      },
      "to": "0x2A3A69c490DD4c3b15959D4dF6531d37E4F3e0d6",
      "value": {
        "_hex": "0x1b1ae4d6e2ef500000"
      },
      "nonce": 0,
      "data": "0x",
      "r": "0xf653666687cb12f0e15b5cb9f68b693822c2540e40720302fd467a45d8d91592",
      "s": "0x75bd5ce4c3ec16ae7f46bbac384638ebec1a2676b30ad966fa755053dfff2cdc",
      "v": 28,
      "creates": null,
      "raw": "0xf86d8085746a5288008255f0942a3a69c490dd4c3b15959d4df6531d37e4f3e0d6891b1ae4d6e2ef500000801ca0f653666687cb12f0e15b5cb9f68b693822c2540e40720302fd467a45d8d91592a075bd5ce4c3ec16ae7f46bbac384638ebec1a2676b30ad966fa755053dfff2cdc",
      "networkId": 0,
      "chainId": 0
    }
  ]
}