{
  "hash": "0x38e80ccd47854d1300405a135f40fee242f139bb97a5dacb2bde923ab436ec01",
  "parentHash": "0x935f22c3c05e21f590f695b0ca31120f599c64761f20a1f2b0800c01f21645e6",
  "number": 111217,
  "timestamp": 1439986712,
  "nonce": "0xfe35856dbaf5778d",
  "difficulty": 4392305285435,
  "gasLimit": {
    "_hex": "0x2fefd8"
  },
  "gasUsed": {
    "_hex": "0x5208"
  },
  "miner": "0x55bAf64fc9eAccFFd7Cc643BB61142E1C6ac093e",
  "extraData": "0x",
  "transactions": [
    {
      "hash": "0xd768c26618f74b7c34b8ccf219f1ebbf4b096f9e7b5936a882b91fa0bd0bc032",
      "blockHash": "0x38e80ccd47854d1300405a135f40fee242f139bb97a5dacb2bde923ab436ec01",
      "blockNumber": 111217,
      "transactionIndex": 0,
      "confirmations": null,
      "from": "0x76d4a9bc9612bE738A81d0fE632b00B971E2bB9a",
      "gasPrice": {
        "_hex": "0xba43b7400"
      },
      "gasLimit": {
        "_hex": "0x55f0"
      },
      "to": "0xb50405193Dc0c7077dD65252C15C39242F0aCB76",
      "value": {
        "_hex": "0xd02ab486cedc0000"
      },
      "nonce": 11,
      "data": "0x",
      "r": "0x3de07752f8bc12bd721288b8dec8474704363188af295cbd24ffbcdaf9f9ea76",
      "s": "0x379c63f732ae3fef7b0e015b6d07394886058f20b4acea6e7bcc06c6b96b54bb",
      "v": 27,
      "creates": null,
      "raw": "0xf86c0b850ba43b74008255f094b50405193dc0c7077dd65252c15c39242f0acb7688d02ab486cedc0000801ba03de07752f8bc12bd721288b8dec8474704363188af295cbd24ffbcdaf9f9ea76a0379c63f732ae3fef7b0e015b6d07394886058f20b4acea6e7bcc06c6b96b54bb",
      "networkId": 0,
      "chainId": 0
    }
  ]
}