{
  "hash": "0x69d3cad786ff5d4d4d139259f68128e764fe26f3fce517f0969d944eb1f182c4",
  "parentHash": "0xfe3cc55afa99cda90efd5d1b69c09489bd370e2e448e130c39ce45b11559d3bb",
  "number": 120620,
  "timestamp": 1440163152,
  "nonce": "0x2fb631dbdaebf0a3",
  "difficulty": 4419636732428,
  "gasLimit": {
    "_hex": "0x2fefd8"
  },
  "gasUsed": {
    "_hex": "0xa410"
  },
  "miner": "0x5F8F73E26CdF436f19Cb24C82F90A15AFe55b592",
  "extraData": "0x",
  "transactions": [
    {
      "hash": "0x4dd9bff3950d9fa8fe8a33b5f7bba9b8fd647993ff8f3314f93b1552d5077320",
      "blockHash": "0x69d3cad786ff5d4d4d139259f68128e764fe26f3fce517f0969d944eb1f182c4",
      "blockNumber": 120620,
      "transactionIndex": 0,
      "confirmations": null,
      "from": "0x9D551f41feD6FC27B719777c224DfeCcE170004d",
      "gasPrice": {
        "_hex": "0xd55cc1cc4"
      },
      "gasLimit": {
        "_hex": "0x15f90"
      },
      "to": "0x21330512a6958cAabd9B69e2227F3c2c85A98DA7",
      "value": {
        "_hex": "0x64"
      },
      "nonce": 95,
      "data": "0x",
      "r": "0xf296a7f1bc7bcf55f5a8215887a221ccdd51c2554ba666e71f69eb2059548ef7",
      "s": "0x5d7039171843aaa494f92c70fab76aa2ad1d1beeb1a1867581a02dc3cba35880",
      "v": 27,
      "creates": null,
      "raw": "0xf8655f850d55cc1cc483015f909421330512a6958caabd9b69e2227f3c2c85a98da764801ba0f296a7f1bc7bcf55f5a8215887a221ccdd51c2554ba666e71f69eb2059548ef7a05d7039171843aaa494f92c70fab76aa2ad1d1beeb1a1867581a02dc3cba35880",
      "networkId": 0,
      "chainId": 0
    },
    {
      "hash": "0x9844c1b2073d9d3087a30a855321c86dcfdfcfa3f1974f2c8a838a8085e78cdd",
      "blockHash": "0x69d3cad786ff5d4d4d139259f68128e764fe26f3fce517f0969d944eb1f182c4",
      "blockNumber": 120620,
      "transactionIndex": 1,
      "confirmations": null,
      "from": "0x60f7C29656Fc491e766750556fE4F0E407f81eB5",
      "gasPrice": {
        "_hex": "0xd3d37f23a"
      },
      "gasLimit": {
        "_hex": "0x15f90"
      },
      "to": "0x5773DFFDd4AD3114CAB6eFE3b9Ca703Fa450Fe40",
      "value": {
        "_hex": "0x16345785d8a0000"
      },
      "nonce": 21,
      "data": "0x",
      "r": "0x746d9a01ab6f7c237a3683fcf70027a66a533a7b228e37bc731626958b69c820",
      "s": "0x71068e511f661d88eb5451220f4fba4491b2d17d27139bed6a8e988fb19b6666",
      "v": 28,
      "creates": null,
      "raw": "0xf86d15850d3d37f23a83015f90945773dffdd4ad3114cab6efe3b9ca703fa450fe4088016345785d8a0000801ca0746d9a01ab6f7c237a3683fcf70027a66a533a7b228e37bc731626958b69c820a071068e511f661d88eb5451220f4fba4491b2d17d27139bed6a8e988fb19b6666",
      "networkId": 0,
      "chainId": 0
    }
  ]
}