{
  "hash": "0x92813d3757e9064e0deda05401c07427bc473ed8ce5bb4c950f48548666f8a89",
  "parentHash": "0xb153bca15f87d338113003bea8849b306e71712c91d142053e86b7541a5912f4",
  "number": 103932,
  "timestamp": 1439861168,
  "nonce": "0xebbb454a418d0421",
  "difficulty": 4271282164839,
  "gasLimit": {
    "_hex": "0x2fefd8"
  },
  "gasUsed": {
    "_hex": "0x5208"
  },
  "miner": "0xe6A7a1d47ff21B6321162AEA7C6CB457D5476Bca",
  "extraData": "0x476574682f76312e302e312d38326566323666362f6c696e75782f676f312e34",
  "transactions": [
    {
      "hash": "0x6290ca24a97d267b9087231e6318cd31717d50750e5a9fcc3f68942683b6ffee",
      "blockHash": "0x92813d3757e9064e0deda05401c07427bc473ed8ce5bb4c950f48548666f8a89",
      "blockNumber": 103932,
      "transactionIndex": 0,
      "confirmations": null,
      "from": "0x007f7f58D3eb5b7510A301eCC749FC1fCDDBE14D",
      "gasPrice": {
        "_hex": "0xe0cfe7246"
      },
      "gasLimit": {
        "_hex": "0x15f90"
      },
      "to": "0xb1abce2918E21ddb93AA452731a12672A3d9F75a",
      "value": {
        "_hex": "0x4563918244f40000"
      },
      "nonce": 237,
      "data": "0x",
      "r": "0xc58e32465e194625c1bbdf3a49b9b7661b317a2a1c121c532844b7f570835b29",
      "s": "0x4390b5022a3ec8d3a7250fd34bf6ce9581d0bb9c763a9f45f7bcec564deba68f",
      "v": 27,
      "creates": null,
      "raw": "0xf86e81ed850e0cfe724683015f9094b1abce2918e21ddb93aa452731a12672a3d9f75a884563918244f40000801ba0c58e32465e194625c1bbdf3a49b9b7661b317a2a1c121c532844b7f570835b29a04390b5022a3ec8d3a7250fd34bf6ce9581d0bb9c763a9f45f7bcec564deba68f",
      "networkId": 0,
      "chainId": 0
    }
  ]
}