{
  "hash": "0x05577c266d941dc9e31bb58b648e3a2d158dbb513c227079eb0d765aae345109",
  "parentHash": "0xe1f8ae4a563652798fecae8217bfaaeb4b2366c90d22c624e5274db2ef0a14c5",
  "number": 70458,
  "timestamp": 1439319996,
  "nonce": "0x3c46d9de5911d44a",
  "difficulty": 2150014798405,
  "gasLimit": {
    "_hex": "0x2fefd8"
  },
  "gasUsed": {
    "_hex": "0x5208"
  },
  "miner": "0x2c640E5e3DE20DECa76ee10c5Fd6ECd074EFb3e8",
  "extraData": "0x476574682f76312e302e312f77696e646f77732f676f312e342e32",
  "transactions": [
    {
      "hash": "0xe42a7eb995edc57c3416ee6cb1ab78af77f62d2cd292124b294303a3fe1dc612",
      "blockHash": "0x05577c266d941dc9e31bb58b648e3a2d158dbb513c227079eb0d765aae345109",
      "blockNumber": 70458,
      "transactionIndex": 0,
      "confirmations": null,
      "from": "0x120A270bbC009644e35F0bB6ab13f95b8199c4ad",
      "gasPrice": {
        "_hex": "0xd6b68066f"
      },
      "gasLimit": {
        "_hex": "0x15f90"
      },
      "to": "0x3D0768da09CE77d25e2d998E6a7b6eD4b9116c2D",
      "value": {
        "_hex": "0xf2dc7d47f15600000"
      },
      "nonce": 205,
      "data": "0x",
      "r": "0x72c44fb58e35958a20799547d4a5eb95ccceaf4079cce0fd63b9759f8a311ccd",
      "s": "0x79e2f6dd28197905271f2b2b544b17d5dd740368c4ebdc862b52383014c0390d",
      "v": 28,
      "creates": null,
      "raw": "0xf86f81cd850d6b68066f83015f90943d0768da09ce77d25e2d998e6a7b6ed4b9116c2d890f2dc7d47f15600000801ca072c44fb58e35958a20799547d4a5eb95ccceaf4079cce0fd63b9759f8a311ccda079e2f6dd28197905271f2b2b544b17d5dd740368c4ebdc862b52383014c0390d",
      "networkId": 0,
      "chainId": 0
    }
  ]
}