{
  "hash": "0x67fed011ee0b62ecc752fc5540969220f534618b5d4b15b8c220cca4ed655f79",
  "parentHash": "0x6b4fc718c326784c6a089e9d45273f38c23207d95e72ee79779e8b7af0a2924a",
  "number": 68875,
  "timestamp": 1439295027,
  "nonce": "0xab9574ed2a4e44ef",
  "difficulty": 2021119790941,
  "gasLimit": {
    "_hex": "0x2fefd8"
  },
  "gasUsed": {
    "_hex": "0x5208"
  },
  "miner": "0x9F06E0F7aAF743BB49B4845478056d900eDA0839",
  "extraData": "0x",
  "transactions": [
    {
      "hash": "0x9ed5b281a31ce1e10ba9f4138147780673beea21c4041f9b9f5f9481ff23f050",
      "blockHash": "0x67fed011ee0b62ecc752fc5540969220f534618b5d4b15b8c220cca4ed655f79",
      "blockNumber": 68875,
      "transactionIndex": 0,
      "confirmations": null,
      "from": "0x6747f922385c9a6F9cfDf095F34345257DD597bE",
      "gasPrice": {
        "_hex": "0xba43b7400"
      },
      "gasLimit": {
        "_hex": "0x5208"
      },
      "to": "0x7ad4B0C30a6b2d6f0fb2CBa9460CE2F0130C28F1",
      "value": {
        "_hex": "0x1fcbfa42bd6000"
      },
      "nonce": 140,
      "data": "0x",
      "r": "0x7f49ee0eeec495a6489addb4995a308ebc8ed7ae2e9ec58ac15aea55bd799242",
      "s": "0x338b7a228d08852ddce17be413805118f2df9b4e539e735f8ac9811f63fa79c6",
      "v": 28,
      "creates": null,
      "raw": "0xf86c818c850ba43b7400825208947ad4b0c30a6b2d6f0fb2cba9460ce2f0130c28f1871fcbfa42bd6000801ca07f49ee0eeec495a6489addb4995a308ebc8ed7ae2e9ec58ac15aea55bd799242a0338b7a228d08852ddce17be413805118f2df9b4e539e735f8ac9811f63fa79c6",
      "networkId": 0,
      "chainId": 0
    }
  ]
}