{
  "hash": "0x05743235e8db4830a074244564652ca9947396400ebef774c27ec740ac64b8d2",
  "parentHash": "0xda11a8fc9b914946be07d6e5eb7898f2ff824186673aa11bbfea3a21112225f9",
  "number": 72002,
  "timestamp": 1439345551,
  "nonce": "0x70cfb32e92b7e674",
  "difficulty": 2166478777818,
  "gasLimit": {
    "_hex": "0x2fefd8"
  },
  "gasUsed": {
    "_hex": "0xaec1"
  },
  "miner": "0x123843545FB525C8E134c9A5F15ADA6865cc3848",
  "extraData": "0x476574682f76312e302e312f77696e646f77732f676f312e342e32",
  "transactions": [
    {
      "hash": "0xefeb830b1057599565a66e760fd9547ff68ccf3731c5771562ace91ec2a7c51e",
      "blockHash": "0x05743235e8db4830a074244564652ca9947396400ebef774c27ec740ac64b8d2",
      "blockNumber": 72002,
      "transactionIndex": 0,
      "confirmations": null,
      "from": "0x17580B766f7453525ca4C6A88b01b50570EA088C",
      "gasPrice": {
        "_hex": "0xd02d8ce1f"
      },
      "gasLimit": {
        "_hex": "0x61a80"
      },
      "to": "0x5Fe5B7546D1628f7348B023A0393de1FC825A4fD",
      "value": {
        "_hex": "0x3782dace9d900000"
      },
      "nonce": 320,
      "data": "0xb595b8b50000000000000000000000000000000000000000000000000000000000000001",
      "r": "0xcddb7bda6d1eef6eed7b60437293014af79424674917b374c2697b827fc2adb3",
      "s": "0x5cd0287cebb15fbf74e7316ee10d4f3ac99f713c35fdc8e1cbad3678758a6299",
      "v": 27,
      "creates": null,
      "raw": "0xf893820140850d02d8ce1f83061a80945fe5b7546d1628f7348b023a0393de1fc825a4fd883782dace9d900000a4b595b8b500000000000000000000000000000000000000000000000000000000000000011ba0cddb7bda6d1eef6eed7b60437293014af79424674917b374c2697b827fc2adb3a05cd0287cebb15fbf74e7316ee10d4f3ac99f713c35fdc8e1cbad3678758a6299",
      "networkId": 0,
      "chainId": 0
    }
  ]
}