{
  "hash": "0xb8e48becfd4b606f50e5ada23c04bc9238fb61a8511d28ac8d41600a2882fb74",
  "parentHash": "0x5f007dfeab85d6b03c2f973261d3de2ed1ecfb3d2b16d895d53f714f69daafd3",
  "number": 116859,
  "timestamp": 1440098790,
  "nonce": "0x1f1adbd66349b9c9",
  "difficulty": 4333980131743,
  "gasLimit": {
    "_hex": "0x2fefd8"
  },
  "gasUsed": {
    "_hex": "0x5208"
  },
  "miner": "0xbb7B8287f3F0a933474a79eAe42CBCa977791171",
  "extraData": "0xd783010003844765746887676f312e342e32856c696e7578",
  "transactions": [
    {
      "hash": "0x8652c616d4e823682ad44e7207bdcd90ea482503e3ccd10dd4c4eba8759baa65",
      "blockHash": "0xb8e48becfd4b606f50e5ada23c04bc9238fb61a8511d28ac8d41600a2882fb74",
      "blockNumber": 116859,
      "transactionIndex": 0,
      "confirmations": null,
      "from": "0xad7210d76107F888745616FFF7979623b84F928c",
      "gasPrice": {
        "_hex": "0xba43b7400"
      },
      "gasLimit": {
        "_hex": "0x61a8"
      },
      "to": "0xF109ca710C0Df51c1a86dBA1B0BA0Ed038114463",
      "value": {
        "_hex": "0x2386f26fc10000"
      },
      "nonce": 19,
      "data": "0x",
      "r": "0x33fcd8279adf6e3197b7d022d8b7e37ac62e06100c973b52476c8c307ff35be7",
      "s": "0x357f0fcf58229ef98594d38c85f2ede4272d9387f625d11f7facc603eebaacbd",
      "v": 28,
      "creates": null,
      "raw": "0xf86b13850ba43b74008261a894f109ca710c0df51c1a86dba1b0ba0ed038114463872386f26fc10000801ca033fcd8279adf6e3197b7d022d8b7e37ac62e06100c973b52476c8c307ff35be7a0357f0fcf58229ef98594d38c85f2ede4272d9387f625d11f7facc603eebaacbd",
      "networkId": 0,
      "chainId": 0
    }
  ]
}