{
  "hash": "0x0930d19544934893a8cfe24b7965d576ab3509f052b492f9ea383c05ea666546",
  "parentHash": "0x7df70c3ca6c6a84198d6aec5b92d5ca51fb5dafa7fa05dd0e1f81a027ba9be34",
  "number": 92796,
  "timestamp": 1439677191,
  "nonce": "0xa6bf5243b68914a6",
  "difficulty": 3636901860253,
  "gasLimit": {
    "_hex": "0x2fefd8"
  },
  "gasUsed": {
    "_hex": "0x1341e"
  },
  "miner": "0xe6A7a1d47ff21B6321162AEA7C6CB457D5476Bca",
  "extraData": "0x476574682f76312e302e312d38326566323666362f6c696e75782f676f312e34",
  "transactions": [
    {
      "hash": "0xd34fbd0aa11b753f205ef1b3a261bf9ca52c552584334bcb1f1e3aee6d9223ee",
      "blockHash": "0x0930d19544934893a8cfe24b7965d576ab3509f052b492f9ea383c05ea666546",
      "blockNumber": 92796,
      "transactionIndex": 0,
      "confirmations": null,
      "from": "0xFBb1b73C4f0BDa4f67dcA266ce6Ef42f520fBB98",
      "gasPrice": {
        "_hex": "0xdadbad191"
      },
      "gasLimit": {
        "_hex": "0x15f90"
      },
      "to": "0xCAc7000C7dBaa2E33Af15325AF5D435E011C7BdD",
      "value": {
        "_hex": "0x0"
      },
      "nonce": 51,
      "data": "0x3feb1bd842495454524558303000000000000000000000000000000000000000000000000000000000000000000000006ec15ae89d53deb97556675b59f0464f9adfec5600000000000000000000000000000000000000000000000ae52865298e020000",
      "r": "0xbd528d32f85db694749f67e801596d17c07880ab50aa0de62aa04b3a23cb20a6",
      "s": "0x4377866765eb2bd51a4730002bff182bea3dc1326c7afc1aedb0f09d8cc0b5ed",
      "v": 27,
      "creates": null,
      "raw": "0xf8ca33850dadbad19183015f9094cac7000c7dbaa2e33af15325af5d435e011c7bdd80b8643feb1bd842495454524558303000000000000000000000000000000000000000000000000000000000000000000000006ec15ae89d53deb97556675b59f0464f9adfec5600000000000000000000000000000000000000000000000ae52865298e0200001ba0bd528d32f85db694749f67e801596d17c07880ab50aa0de62aa04b3a23cb20a6a04377866765eb2bd51a4730002bff182bea3dc1326c7afc1aedb0f09d8cc0b5ed",
      "networkId": 0,
      "chainId": 0
    },
    {
      "hash": "0x043586dd05a2a467d7d5691a34324753f480ce361ff1431eff485f29a260cca2",
      "blockHash": "0x0930d19544934893a8cfe24b7965d576ab3509f052b492f9ea383c05ea666546",
      "blockNumber": 92796,
      "transactionIndex": 1,
      "confirmations": null,
      "from": "0xc8ebccC5F5689Fa8659d83713341e5aD19349448",
      "gasPrice": {
        "_hex": "0xd81c79874"
      },
      "gasLimit": {
        "_hex": "0x15f90"
      },
      "to": "0x0F87Fb507513e749081E34373c84E95e85b5c057",
      "value": {
        "_hex": "0x21bcedea8c4f2"
      },
      "nonce": 70,
      "data": "0x",
      "r": "0xeb7aa709557754f035498ecd4a1e17da8a2140d60937e69dc0359252fbaddfe3",
      "s": "0x279fd7933737a17ac7257c1c72ae228750fc9ff5c05280335ca9992d930ba069",
      "v": 27,
      "creates": null,
      "raw": "0xf86c46850d81c7987483015f90940f87fb507513e749081e34373c84e95e85b5c05787021bcedea8c4f2801ba0eb7aa709557754f035498ecd4a1e17da8a2140d60937e69dc0359252fbaddfe3a0279fd7933737a17ac7257c1c72ae228750fc9ff5c05280335ca9992d930ba069",
      "networkId": 0,
      "chainId": 0
    }
  ]
}