{
  "hash": "0x4dfef3dff11ded9d1a60ff7153dbfa4c4b8a63bf61f7908856082018f00cc631",
  "parentHash": "0xbb1783b52a8c18f11134dc58b118c3936fb1b6152614f6a3d611d581db337547",
  "number": 55581,
  "timestamp": 1439073091,
  "nonce": "0xa89937c8586eb46c",
  "difficulty": 1621832646707,
  "gasLimit": {
    "_hex": "0x2fefd8"
  },
  "gasUsed": {
    "_hex": "0x5208"
  },
  "miner": "0x3FF679B0823a026F2378E5f5F22A6F127cC85828",
  "extraData": "0x476574682f76312e302e302f6c696e75782f676f312e342e32",
  "transactions": [
    {
      "hash": "0x4b21099ee14cd716f35ce080507c8e988c506e84937f4a9de0f3ca59b9cf3fe9",
      "blockHash": "0x4dfef3dff11ded9d1a60ff7153dbfa4c4b8a63bf61f7908856082018f00cc631",
      "blockNumber": 55581,
      "transactionIndex": 0,
      "confirmations": null,
      "from": "0xCD8C2959c5781245a5DcD72CFfAb01004d804Aa7",
      "gasPrice": {
        "_hex": "0xd1943ab43"
      },
      "gasLimit": {
        "_hex": "0x7530"
      },
      "to": "0x645f99d488e5Aa4d8376e2ce9f17309195278924",
      "value": {
        "_hex": "0x470de4df8200000"
      },
      "nonce": 0,
      "data": "0x",
      "r": "0x6da6aacc22ad7b97c6d0cea09ace0f1598fe5daf6f5f8161ede8cda02497fd55",
      "s": "0x4f3abc1eaa8fbc057f32c647e4af722b849dbb1833672aebb85535badd8efeee",
      "v": 27,
      "creates": null,
      "raw": "0xf86c80850d1943ab4382753094645f99d488e5aa4d8376e2ce9f17309195278924880470de4df8200000801ba06da6aacc22ad7b97c6d0cea09ace0f1598fe5daf6f5f8161ede8cda02497fd55a04f3abc1eaa8fbc057f32c647e4af722b849dbb1833672aebb85535badd8efeee",
      "networkId": 0,
      "chainId": 0
    }
  ]
}