{
  "hash": "0xb173cecbe0b632884361481c6d208249129e1992cdf973cd9782a9cc1e6a3404",
  "parentHash": "0xf929f18a1f884b9597b5d6ce22607ef185db1129e74513ba83539dca6ed624f3",
  "number": 103315,
  "timestamp": 1439851232,
  "nonce": "0x4895bef193901145",
  "difficulty": 4174682829931,
  "gasLimit": {
    "_hex": "0x2fefd8"
  },
  "gasUsed": {
    "_hex": "0x5208"
  },
  "miner": "0x909755D480A27911cB7EeeB5edB918fae50883c0",
  "extraData": "0x476574682f76312e302e312d39383130306634372f6c696e75782f676f312e34",
  "transactions": [
    {
      "hash": "0x46a04802964b5f7215a7955b88cef77d56c88fb81addfeae98db091d78ba4628",
      "blockHash": "0xb173cecbe0b632884361481c6d208249129e1992cdf973cd9782a9cc1e6a3404",
      "blockNumber": 103315,
      "transactionIndex": 0,
      "confirmations": null,
      "from": "0xC47Aaa860008be6f65B58c6C6E02a84e666EfE31",
      "gasPrice": {
        "_hex": "0xdc5a32407"
      },
      "gasLimit": {
        "_hex": "0x15f90"
      },
      "to": "0x7358E40a50F278a4eA811029c2a4E946AfE5e0bd",
      "value": {
        "_hex": "0x6a06854c2710169a"
      },
      "nonce": 77,
      "data": "0x",
      "r": "0x07d8d3ae21e65d6e1f9c122061eef31fe7a633c9c32907ba69e416556eb09c41",
      "s": "0x1423c7cc2b56ca3d76a8d655ab0fd19ac1cbf8e323f5e4740ab98bc82efd689c",
      "v": 28,
      "creates": null,
      "raw": "0xf86d4d850dc5a3240783015f90947358e40a50f278a4ea811029c2a4e946afe5e0bd886a06854c2710169a801ca007d8d3ae21e65d6e1f9c122061eef31fe7a633c9c32907ba69e416556eb09c41a01423c7cc2b56ca3d76a8d655ab0fd19ac1cbf8e323f5e4740ab98bc82efd689c",
      "networkId": 0,
      "chainId": 0
    }
  ]
}