{
  "hash": "0xfbfb3313b93590977e2329b076e720ca9b0255344160593cce9c797f21026e12",
  "parentHash": "0x19d0773fe5634fc5c61dd36cc2f4dd74ec62fbc73607880bd80bc8edbae0706f",
  "number": 64758,
  "timestamp": 1439225863,
  "nonce": "0xa41aa6e42942e75e",
  "difficulty": 1887578579455,
  "gasLimit": {
    "_hex": "0x2fefd8"
  },
  "gasUsed": {
    "_hex": "0x11074"
  },
  "miner": "0xB4f6A8f7Cd91Cd4bcADcc0a20e417c392E5f50A4",
  "extraData": "0x57686f2061726520796f753f",
  "transactions": [
    {
      "hash": "0x8a7c5299a622b52daa26acd2120e0ce779c69f55c55f620aa686f330ab9174e7",
      "blockHash": "0xfbfb3313b93590977e2329b076e720ca9b0255344160593cce9c797f21026e12",
      "blockNumber": 64758,
      "transactionIndex": 0,
      "confirmations": null,
      "from": "0x7A4B723cB1711674FE852808411ff18a14943181",
      "gasPrice": {
        "_hex": "0xba43b7400"
      },
      "gasLimit": {
        "_hex": "0x15f90"
      },
      "to": "0x793AE8C1b1a160BFc07BFB0d04F85eab1A71F4f2",
      "value": {
        "_hex": "0x0"
      },
      "nonce": 0,
      "data": "0x3ba15036",
      "r": "0x0fcd61ddd25b93793436dd026121ea3f9bd285a6b31bc77b256c80d1f2a79022",
      "s": "0x053b5e29e00e83de92c4e50d6907cff2ae0b4878dd8cfe3a9fc59071b77923f4",
      "v": 27,
      "creates": null,
      "raw": "0xf86980850ba43b740083015f9094793ae8c1b1a160bfc07bfb0d04f85eab1a71f4f280843ba150361ba00fcd61ddd25b93793436dd026121ea3f9bd285a6b31bc77b256c80d1f2a79022a0053b5e29e00e83de92c4e50d6907cff2ae0b4878dd8cfe3a9fc59071b77923f4",
      "networkId": 0,
      "chainId": 0
    },
    {
      "hash": "0x284b2cd0fb4a2956569f29e7ae922031562ed9fe0e6c198bc4c432b36f0ec733",
      "blockHash": "0xfbfb3313b93590977e2329b076e720ca9b0255344160593cce9c797f21026e12",
      "blockNumber": 64758,
      "transactionIndex": 1,
      "confirmations": null,
      "from": "0xBce28A5adfB8D5fE41873FA641A0b8D9F1eecCc1",
      "gasPrice": {
        "_hex": "0xba43b7400"
      },
      "gasLimit": {
        "_hex": "0x5208"
      },
      "to": "0xC862dc932A9Afa1aFa5624f8dC3c8Aa5b3f8Fb27",
      "value": {
        "_hex": "0xaa9f075c200000"
      },
      "nonce": 1,
      "data": "0x",
      "r": "0xc1df3cfdd2cf8378f19a9c5066982d3162d5ae3bc78326d5919f63c6a470b911",
      "s": "0x11b74959f4e1d52572a3130e55f4ad6b2a67db89ac978dceeebe47905200b18b",
      "v": 28,
      "creates": null,
      "raw": "0xf86b01850ba43b740082520894c862dc932a9afa1afa5624f8dc3c8aa5b3f8fb2787aa9f075c200000801ca0c1df3cfdd2cf8378f19a9c5066982d3162d5ae3bc78326d5919f63c6a470b911a011b74959f4e1d52572a3130e55f4ad6b2a67db89ac978dceeebe47905200b18b",
      "networkId": 0,
      "chainId": 0
    }
  ]
}