{
  "hash": "0x092a7d2f4dbdd43d8efa5a5eeab1987359d3e50e6917382d2270511cfe138e89",
  "parentHash": "0x32a0163488b7266f9d48340268806e817e4fb4350aee9bd65aeee096128cf8a7",
  "number": 88112,
  "timestamp": 1439602785,
  "nonce": "0xc64bd8e57a0a8ab8",
  "difficulty": 3208212684100,
  "gasLimit": {
    "_hex": "0x2fefd8"
  },
  "gasUsed": {
    "_hex": "0x5208"
  },
  "miner": "0xd1ce10d2AdBa8b18135eF72Aa5296c9503a3501c",
  "extraData": "0x",
  "transactions": [
    {
      "hash": "0x454c12a24bfc17375cba82dcc0c503b6d177d0c1297e7cf9d5ace6cf8cd08732",
      "blockHash": "0x092a7d2f4dbdd43d8efa5a5eeab1987359d3e50e6917382d2270511cfe138e89",
      "blockNumber": 88112,
      "transactionIndex": 0,
      "confirmations": null,
      "from": "0x661eedD93dA06499d3220aA2aDF05d6d2417e60c",
      "gasPrice": {
        "_hex": "0x1111128e6af"
      },
      "gasLimit": {
        "_hex": "0x55f0"
      },
      "to": "0x71762C63678C18D1C6378ce068E666381315147e",
      "value": {
        "_hex": "0xde0b6b3a7640000"
      },
      "nonce": 5,
      "data": "0x",
      "r": "0x0d61fee4b882d91a24975a5b5b15efb84213b8613eb5f6ed1bdc1bc8e24b6721",
      "s": "0x6ebbe46c3e19c83c6d453b82d7d5442101da42f728ab9ecaea792591eeeb1fda",
      "v": 28,
      "creates": null,
      "raw": "0xf86d058601111128e6af8255f09471762c63678c18d1c6378ce068e666381315147e880de0b6b3a7640000801ca00d61fee4b882d91a24975a5b5b15efb84213b8613eb5f6ed1bdc1bc8e24b6721a06ebbe46c3e19c83c6d453b82d7d5442101da42f728ab9ecaea792591eeeb1fda",
      "networkId": 0,
      "chainId": 0
    }
  ]
}