{
  "hash": "0xb9c9fce99dae457e59298306597e64f2330ed1f5000b8b144c33e175a57e12c7",
  "parentHash": "0x55b446e9734798744d0b936514feb99604fc0c32f84dc242f82709e95ea6fc83",
  "number": 68568,
  "timestamp": 1439290161,
  "nonce": "0x4fc51de97e50f632",
  "difficulty": 2010366839940,
  "gasLimit": {
    "_hex": "0x2fefd8"
  },
  "gasUsed": {
    "_hex": "0x12988c"
  },
  "miner": "0x0Cb6EEF179Ba9E7036f95bEEB01e250ab85A8c88",
  "extraData": "0x476574682f76312e302e312f77696e646f77732f676f312e342e32",
  "transactions": [
    {
      "hash": "0xffd79143bfbe1de833cd24413c33d3f94b8505260b608b01d02f32df322a17f2",
      "blockHash": "0xb9c9fce99dae457e59298306597e64f2330ed1f5000b8b144c33e175a57e12c7",
      "blockNumber": 68568,
      "transactionIndex": 0,
      "confirmations": null,
      "from": "0x9A863D99DB6a3A252E3e16D01273f874C23f8548",
      "gasPrice": {
        "_hex": "0xba43b7400"
      },
      "gasLimit": {
        "_hex": "0x15f90"
      },
      "to": "0x793AE8C1b1a160BFc07BFB0d04F85eab1A71F4f2",
      "value": {
        "_hex": "0x0"
      },
      "nonce": 0,
      "data": "0x3ba15036",
      "r": "0x6c881d0f276b897e2c18023cf4639b0c8e925238f03ba9363d32f644635417fd",
      "s": "0x01f495b2b58042ae058152300bf9c3fcbfa08a0fca8987ff92581206041cb229",
      "v": 28,
      "creates": null,
      "raw": "0xf86980850ba43b740083015f9094793ae8c1b1a160bfc07bfb0d04f85eab1a71f4f280843ba150361ca06c881d0f276b897e2c18023cf4639b0c8e925238f03ba9363d32f644635417fda001f495b2b58042ae058152300bf9c3fcbfa08a0fca8987ff92581206041cb229",
      "networkId": 0,
      "chainId": 0
    },
    {
      "hash": "0x2e640a07706788576f6f7b9cadec38efa82718ed9869b3b490e7b775689e66bd",
      "blockHash": "0xb9c9fce99dae457e59298306597e64f2330ed1f5000b8b144c33e175a57e12c7",
      "blockNumber": 68568,
      "transactionIndex": 1,
      "confirmations": null,
      "from": "0x4fA363bFA647527426D6408728635B116cEADCC8",
      "gasPrice": {
        "_hex": "0xba43b7400"
      },
      "gasLimit": {
        "_hex": "0x15f90"
      },
      "to": "0x793AE8C1b1a160BFc07BFB0d04F85eab1A71F4f2",
      "value": {
        "_hex": "0x0"
      },
      "nonce": 0,
      "data": "0x3ba15036",
      "r": "0xde7790632412b4836dd381515381bf3e27ea7d8d33d3927d24788d720cf66b2b",
      "s": "0x251723a57b1fd2b1a7abe515cf8a3c972b58062df36dce68088c090e6924b47d",
      "v": 27,
      "creates": null,
      "raw": "0xf86980850ba43b740083015f9094793ae8c1b1a160bfc07bfb0d04f85eab1a71f4f280843ba150361ba0de7790632412b4836dd381515381bf3e27ea7d8d33d3927d24788d720cf66b2ba0251723a57b1fd2b1a7abe515cf8a3c972b58062df36dce68088c090e6924b47d",
      "networkId": 0,
      "chainId": 0
    },
    {
      "hash": "0xecb3a7a950067b2d0cdecc0836e7b5b3eca7f9e50c2f662564c09727098b5184",
      "blockHash": "0xb9c9fce99dae457e59298306597e64f2330ed1f5000b8b144c33e175a57e12c7",
      "blockNumber": 68568,
      "transactionIndex": 2,
      "confirmations": null,
      "from": "0x046A624ac65bfd90b084564EAf74a48e4A643115",
      "gasPrice": {
        "_hex": "0xba43b7400"
      },
      "gasLimit": {
        "_hex": "0x15f90"
      },
      "to": "0x793AE8C1b1a160BFc07BFB0d04F85eab1A71F4f2",
      "value": {
        "_hex": "0x0"
      },
      "nonce": 0,
      "data": "0x3ba15036",
      "r": "0x182f252dc2a4ed59233b86fe27511814735d8f2f2dd912ffd5c52c8e7df83d24",
      "s": "0x43a333f72a26a74acd839ae3486d2bb5478b1806ca8f34166642b3c9a4fcf664",
      "v": 27,
      "creates": null,
      "raw": "0xf86980850ba43b740083015f9094793ae8c1b1a160bfc07bfb0d04f85eab1a71f4f280843ba150361ba0182f252dc2a4ed59233b86fe27511814735d8f2f2dd912ffd5c52c8e7df83d24a043a333f72a26a74acd839ae3486d2bb5478b1806ca8f34166642b3c9a4fcf664",
      "networkId": 0,
      "chainId": 0
    },
    {
      "hash": "0xd0982d076188d750db562adb7768b4906aa5e2882792159502d30874777474c2",
      "blockHash": "0xb9c9fce99dae457e59298306597e64f2330ed1f5000b8b144c33e175a57e12c7",
      "blockNumber": 68568,
      "transactionIndex": 3,
      "confirmations": null,
      "from": "0x5dDf24d6F14c588514FE00B07Ff7550dCE01eB4B",
      "gasPrice": {
        "_hex": "0xba43b7400"
      },
      "gasLimit": {
        "_hex": "0x15f90"
      },
      "to": "0x793AE8C1b1a160BFc07BFB0d04F85eab1A71F4f2",
      "value": {
        "_hex": "0x0"
      },
      "nonce": 0,
      "data": "0x3ba15036",
      "r": "0xafd474fb0f7c76489db718709eeac9a48003ab0b20b668397151320285c8d55d",
      "s": "0x6c35916bbd1f2a00e3285d87d41d13ef331644fbfed6c3a02ac2b505e3869a27",
      "v": 28,
      "creates": null,
      "raw": "0xf86980850ba43b740083015f9094793ae8c1b1a160bfc07bfb0d04f85eab1a71f4f280843ba150361ca0afd474fb0f7c76489db718709eeac9a48003ab0b20b668397151320285c8d55da06c35916bbd1f2a00e3285d87d41d13ef331644fbfed6c3a02ac2b505e3869a27",
      "networkId": 0,
      "chainId": 0
    },
    {
      "hash": "0x1853a16ec93b04c5bc70438da4938314fed6a8000e368d6aea3e0f726d54516f",
      "blockHash": "0xb9c9fce99dae457e59298306597e64f2330ed1f5000b8b144c33e175a57e12c7",
      "blockNumber": 68568,
      "transactionIndex": 4,
      "confirmations": null,
      "from": "0xCB49b38368F1bE9eEA795163D84E73eFcDfB254b",
      "gasPrice": {
        "_hex": "0xba43b7400"
      },
      "gasLimit": {
        "_hex": "0x15f90"
      },
      "to": "0x793AE8C1b1a160BFc07BFB0d04F85eab1A71F4f2",
      "value": {
        "_hex": "0x0"
      },
      "nonce": 0,
      "data": "0x3ba15036",
      "r": "0x60fad07f41cb6f46ca83f6d2b9f971cce1884a63c70a154118c30eb05e485575",
      "s": "0x678e71ab8b335e5faf8650f0810aaf955019d32c8cb5ed1a3e77ddea5ce9993c",
      "v": 27,
      "creates": null,
      "raw": "0xf86980850ba43b740083015f9094793ae8c1b1a160bfc07bfb0d04f85eab1a71f4f280843ba150361ba060fad07f41cb6f46ca83f6d2b9f971cce1884a63c70a154118c30eb05e485575a0678e71ab8b335e5faf8650f0810aaf955019d32c8cb5ed1a3e77ddea5ce9993c",
      "networkId": 0,
      "chainId": 0
    },
    {
      "hash": "0x43a795f5d92c577464e637f0818a1a96e9d6889292ac5f7303681474e333dbf2",
      "blockHash": "0xb9c9fce99dae457e59298306597e64f2330ed1f5000b8b144c33e175a57e12c7",
      "blockNumber": 68568,
      "transactionIndex": 5,
      "confirmations": null,
      "from": "0x445C812DFAceAc12b55a9B4D21959478424C0Abd",
      "gasPrice": {
        "_hex": "0xba43b7400"
      },
      "gasLimit": {
        "_hex": "0x15f90"
      },
      "to": "0x793AE8C1b1a160BFc07BFB0d04F85eab1A71F4f2",
      "value": {
        "_hex": "0x0"
      },
      "nonce": 0,
      "data": "0x3ba15036",
      "r": "0x37fea0891532382bbea9a3dc483619f1c3ba678550beb285166dc7cc3b935fb5",
      "s": "0x3f7695a16bb720e35ca063a11b9d9d527d2c201361de9e7ab9910ae29e9df3d8",
      "v": 28,
      "creates": null,
      "raw": "0xf86980850ba43b740083015f9094793ae8c1b1a160bfc07bfb0d04f85eab1a71f4f280843ba150361ca037fea0891532382bbea9a3dc483619f1c3ba678550beb285166dc7cc3b935fb5a03f7695a16bb720e35ca063a11b9d9d527d2c201361de9e7ab9910ae29e9df3d8",
      "networkId": 0,
      "chainId": 0
    },
    {
      "hash": "0xb6d4eed3314d674dc029b567461facc8c513f3bc30e3361ca945bccdeb80218b",
      "blockHash": "0xb9c9fce99dae457e59298306597e64f2330ed1f5000b8b144c33e175a57e12c7",
      "blockNumber": 68568,
      "transactionIndex": 6,
      "confirmations": null,
      "from": "0x94C8E0B66BFFCE60AefB5F139786212d42951bC1",
      "gasPrice": {
        "_hex": "0xba43b7400"
      },
      "gasLimit": {
        "_hex": "0x15f90"
      },
      "to": "0x793AE8C1b1a160BFc07BFB0d04F85eab1A71F4f2",
      "value": {
        "_hex": "0x0"
      },
      "nonce": 0,
      "data": "0x3ba15036",
      "r": "0x74a779d3cfc5f33184c04e59f56056f9c39afba027f6948a2d5f3bc142c30013",
      "s": "0x0e77dbae103ff0d86c5c241012b2141196be6049ba9f47d9b69bc73e7444c2c1",
      "v": 28,
      "creates": null,
      "raw": "0xf86980850ba43b740083015f9094793ae8c1b1a160bfc07bfb0d04f85eab1a71f4f280843ba150361ca074a779d3cfc5f33184c04e59f56056f9c39afba027f6948a2d5f3bc142c30013a00e77dbae103ff0d86c5c241012b2141196be6049ba9f47d9b69bc73e7444c2c1",
      "networkId": 0,
      "chainId": 0
    },
    {
      "hash": "0x5b9556174410412f49f16f396953e7b013d2339fb983fdd5367aafbcc1073cf0",
      "blockHash": "0xb9c9fce99dae457e59298306597e64f2330ed1f5000b8b144c33e175a57e12c7",
      "blockNumber": 68568,
      "transactionIndex": 7,
      "confirmations": null,
      "from": "0xb7CFd02Fd59D228C1ACA50689EAffa50AAF1384c",
      "gasPrice": {
        "_hex": "0xba43b7400"
      },
      "gasLimit": {
        "_hex": "0x15f90"
      },
      "to": "0x793AE8C1b1a160BFc07BFB0d04F85eab1A71F4f2",
      "value": {
        "_hex": "0x0"
      },
      "nonce": 0,
      "data": "0x3ba15036",
      "r": "0x73b08e79ef27133296b371b6b652d74ab978bb81f9a1e601b07cac856baeb744",
      "s": "0x1cbe7148f0940eb63a1f96ea3cb2394319f852b1bfc82a27b09d9a047233c67b",
      "v": 28,
      "creates": null,
      "raw": "0xf86980850ba43b740083015f9094793ae8c1b1a160bfc07bfb0d04f85eab1a71f4f280843ba150361ca073b08e79ef27133296b371b6b652d74ab978bb81f9a1e601b07cac856baeb744a01cbe7148f0940eb63a1f96ea3cb2394319f852b1bfc82a27b09d9a047233c67b",
      "networkId": 0,
      "chainId": 0
    },
    {
      "hash": "0xbd86833cd4d877670f4df4a67696bf4fe921e8ed34a872622cbaaee18885cd39",
      "blockHash": "0xb9c9fce99dae457e59298306597e64f2330ed1f5000b8b144c33e175a57e12c7",
      "blockNumber": 68568,
      "transactionIndex": 8,
      "confirmations": null,
      "from": "0x75AEF2aaa36c9c2B8e97A48c49A89cd673d156ad",
      "gasPrice": {
        "_hex": "0xba43b7400"
      },
      "gasLimit": {
        "_hex": "0x15f90"
      },
      "to": "0x793AE8C1b1a160BFc07BFB0d04F85eab1A71F4f2",
      "value": {
        "_hex": "0x0"
      },
      "nonce": 0,
      "data": "0x3ba15036",
      "r": "0xd0ee2f70b5df372267d80733f62761b3f468529c2e9c0d30fcb7d4f609170765",
      "s": "0x6d1a4d2b81b5b8dc8579933d746d39ea36ca1366820c52ddf5b1e99c2ed5ab93",
      "v": 28,
      "creates": null,
      "raw": "0xf86980850ba43b740083015f9094793ae8c1b1a160bfc07bfb0d04f85eab1a71f4f280843ba150361ca0d0ee2f70b5df372267d80733f62761b3f468529c2e9c0d30fcb7d4f609170765a06d1a4d2b81b5b8dc8579933d746d39ea36ca1366820c52ddf5b1e99c2ed5ab93",
      "networkId": 0,
      "chainId": 0
    },
    {
      "hash": "0x807ec64f93481a07572e3ff54e5b30e131746b7d111e553d7216f8921b1fdaf0",
      "blockHash": "0xb9c9fce99dae457e59298306597e64f2330ed1f5000b8b144c33e175a57e12c7",
      "blockNumber": 68568,
      "transactionIndex": 9,
      "confirmations": null,
      "from": "0xeD1A17aBf6704Bc0FA17771f95b00831f24d808a",
      "gasPrice": {
        "_hex": "0xba43b7400"
      },
      "gasLimit": {
        "_hex": "0x15f90"
      },
      "to": "0x793AE8C1b1a160BFc07BFB0d04F85eab1A71F4f2",
      "value": {
        "_hex": "0x0"
      },
      "nonce": 0,
      "data": "0x3ba15036",
      "r": "0xf125fa0d093c66e0205f1db9a677f44e2858538d0bf8c2803c5c4339b4f17d84",
      "s": "0x7ff1f6b1c083bdbdd7ff1c1c6615389d1ad387c82735e6872539e936fb00aea7",
      "v": 28,
      "creates": null,
      "raw": "0xf86980850ba43b740083015f9094793ae8c1b1a160bfc07bfb0d04f85eab1a71f4f280843ba150361ca0f125fa0d093c66e0205f1db9a677f44e2858538d0bf8c2803c5c4339b4f17d84a07ff1f6b1c083bdbdd7ff1c1c6615389d1ad387c82735e6872539e936fb00aea7",
      "networkId": 0,
      "chainId": 0
    },
    {
      "hash": "0x90b292a33c669db63401a65b84879e04cca48c4a21cb1bbcb84cab56e1ccb4f0",
      "blockHash": "0xb9c9fce99dae457e59298306597e64f2330ed1f5000b8b144c33e175a57e12c7",
      "blockNumber": 68568,
      "transactionIndex": 10,
      "confirmations": null,
      "from": "0x101543e0791be1b31Ce58683a59ea1Fb91054AF7",
      "gasPrice": {
        "_hex": "0xba43b7400"
      },
      "gasLimit": {
        "_hex": "0x15f90"
      },
      "to": "0x793AE8C1b1a160BFc07BFB0d04F85eab1A71F4f2",
      "value": {
        "_hex": "0x0"
      },
      "nonce": 0,
      "data": "0x3ba15036",
      "r": "0xab7a3271f2339d06d562f87a85b5af242af5058e64c11b1c4371d23525dc6195",
      "s": "0x54e0c84111e59510e1d49552a91f38e773e9f026af62c25a3cd7edfc4ce70ffb",
      "v": 27,
      "creates": null,
      "raw": "0xf86980850ba43b740083015f9094793ae8c1b1a160bfc07bfb0d04f85eab1a71f4f280843ba150361ba0ab7a3271f2339d06d562f87a85b5af242af5058e64c11b1c4371d23525dc6195a054e0c84111e59510e1d49552a91f38e773e9f026af62c25a3cd7edfc4ce70ffb",
      "networkId": 0,
      "chainId": 0
    },
    {
      "hash": "0x3ca5337088cce05b45ea3aef913adf9a7bb4cf83eb7945af02b2c5207e9a585a",
      "blockHash": "0xb9c9fce99dae457e59298306597e64f2330ed1f5000b8b144c33e175a57e12c7",
      "blockNumber": 68568,
      "transactionIndex": 11,
      "confirmations": null,
      "from": "0x901532083719Fa328b3CF1bEbc5fef2dAd660a56",
      "gasPrice": {
        "_hex": "0xba43b7400"
      },
      "gasLimit": {
        "_hex": "0x15f90"
      },
      "to": "0x793AE8C1b1a160BFc07BFB0d04F85eab1A71F4f2",
      "value": {
        "_hex": "0x0"
      },
      "nonce": 0,
      "data": "0x3ba15036",
      "r": "0xe6ed38730c7d3d0e8ac8e56e257f0c46867b86715a66e3064b93062613cd7383",
      "s": "0x2c57b5cec9de5f5be16490c1c9009de270b72eef383825f5bc8bac6a48d7fa55",
      "v": 28,
      "creates": null,
      "raw": "0xf86980850ba43b740083015f9094793ae8c1b1a160bfc07bfb0d04f85eab1a71f4f280843ba150361ca0e6ed38730c7d3d0e8ac8e56e257f0c46867b86715a66e3064b93062613cd7383a02c57b5cec9de5f5be16490c1c9009de270b72eef383825f5bc8bac6a48d7fa55",
      "networkId": 0,
      "chainId": 0
    },
    {
      "hash": "0xb38562ba597040906d2dfe25744257487cf213aa5c16cd33e772b899d7d773c2",
      "blockHash": "0xb9c9fce99dae457e59298306597e64f2330ed1f5000b8b144c33e175a57e12c7",
      "blockNumber": 68568,
      "transactionIndex": 12,
      "confirmations": null,
      "from": "0x58D5d273a376bFEdc5203d4DE6f53fB7676bb134",
      "gasPrice": {
        "_hex": "0xba43b7400"
      },
      "gasLimit": {
        "_hex": "0x15f90"
      },
      "to": "0x793AE8C1b1a160BFc07BFB0d04F85eab1A71F4f2",
      "value": {
        "_hex": "0x0"
      },
      "nonce": 0,
      "data": "0x3ba15036",
      "r": "0x8317317b5ba34150fb90329fd3b3c6b51acc3c19e44f8729e7d6cd36a6506dcf",
      "s": "0x58dc6164e51677574bc1e50592bdb706b405e2311520838d77712dbee47b6f8b",
      "v": 28,
      "creates": null,
      "raw": "0xf86980850ba43b740083015f9094793ae8c1b1a160bfc07bfb0d04f85eab1a71f4f280843ba150361ca08317317b5ba34150fb90329fd3b3c6b51acc3c19e44f8729e7d6cd36a6506dcfa058dc6164e51677574bc1e50592bdb706b405e2311520838d77712dbee47b6f8b",
      "networkId": 0,
      "chainId": 0
    },
    {
      "hash": "0xcb6a019b88d637ce652da666afc5a52aa0e73449f1d082bf8f65f5e24973537f",
      "blockHash": "0xb9c9fce99dae457e59298306597e64f2330ed1f5000b8b144c33e175a57e12c7",
      "blockNumber": 68568,
      "transactionIndex": 13,
      "confirmations": null,
      "from": "0x043B49D2D396c76fdF30C7CAaa41b3F1fff0E706",
      "gasPrice": {
        "_hex": "0xba43b7400"
      },
      "gasLimit": {
        "_hex": "0x15f90"
      },
      "to": "0x793AE8C1b1a160BFc07BFB0d04F85eab1A71F4f2",
      "value": {
        "_hex": "0x0"
      },
      "nonce": 0,
      "data": "0x3ba15036",
      "r": "0xa50dd86930c728b540df5a6747b0edff1af5631aaedbc6184d2525a8ace8a001",
      "s": "0x5265631ba00da4ac6a44bc15c1d8344e03e4bbd3f392270353ce86890043acb2",
      "v": 28,
      "creates": null,
      "raw": "0xf86980850ba43b740083015f9094793ae8c1b1a160bfc07bfb0d04f85eab1a71f4f280843ba150361ca0a50dd86930c728b540df5a6747b0edff1af5631aaedbc6184d2525a8ace8a001a05265631ba00da4ac6a44bc15c1d8344e03e4bbd3f392270353ce86890043acb2",
      "networkId": 0,
      "chainId": 0
    },
    {
      "hash": "0x998435473de242b94c9c3ddd3ab2e3787a28f9196d6dfc4d23ab5612853415d0",
      "blockHash": "0xb9c9fce99dae457e59298306597e64f2330ed1f5000b8b144c33e175a57e12c7",
      "blockNumber": 68568,
      "transactionIndex": 14,
      "confirmations": null,
      "from": "0x50032fC3e6253a2aF31bF68da09483bfa4Ce985f",
      "gasPrice": {
        "_hex": "0xba43b7400"
      },
      "gasLimit": {
        "_hex": "0x15f90"
      },
      "to": "0x793AE8C1b1a160BFc07BFB0d04F85eab1A71F4f2",
      "value": {
        "_hex": "0x0"
      },
      "nonce": 0,
      "data": "0x3ba15036",
      "r": "0xef30743d9e4fe6042f77c7c40d7ae3c3eb864af8299d67a80a090adad59ed9d8",
      "s": "0x21ecdd1f3af9bc425f90fafcf8c0cae1d518903629d57fb824c4f2bda637929c",
      "v": 27,
      "creates": null,
      "raw": "0xf86980850ba43b740083015f9094793ae8c1b1a160bfc07bfb0d04f85eab1a71f4f280843ba150361ba0ef30743d9e4fe6042f77c7c40d7ae3c3eb864af8299d67a80a090adad59ed9d8a021ecdd1f3af9bc425f90fafcf8c0cae1d518903629d57fb824c4f2bda637929c",
      "networkId": 0,
      "chainId": 0
    },
    {
      "hash": "0x1e8a80f0a486a370106b9bea350bb9056d7f79fbc2bf00f840832a247fefbcf0",
      "blockHash": "0xb9c9fce99dae457e59298306597e64f2330ed1f5000b8b144c33e175a57e12c7",
      "blockNumber": 68568,
      "transactionIndex": 15,
      "confirmations": null,
      "from": "0x029b9c31F72b36722E16Fc1251371d5525fDe25C",
      "gasPrice": {
        "_hex": "0xba43b7400"
      },
      "gasLimit": {
        "_hex": "0x15f90"
      },
      "to": "0x793AE8C1b1a160BFc07BFB0d04F85eab1A71F4f2",
      "value": {
        "_hex": "0x0"
      },
      "nonce": 0,
      "data": "0x3ba15036",
      "r": "0x847499b77df35a049c02b3deec55fa9343d039727c7a8051bc471c28e1fb93d5",
      "s": "0x32defe16997cc8945562809ab9560243cb8bb3943a467af6774ad2023142057c",
      "v": 28,
      "creates": null,
      "raw": "0xf86980850ba43b740083015f9094793ae8c1b1a160bfc07bfb0d04f85eab1a71f4f280843ba150361ca0847499b77df35a049c02b3deec55fa9343d039727c7a8051bc471c28e1fb93d5a032defe16997cc8945562809ab9560243cb8bb3943a467af6774ad2023142057c",
      "networkId": 0,
      "chainId": 0
    },
    {
      "hash": "0xb67fa5f7cec01ada6245df5f45670762c51d303863c661494d8e0fdf65eeaf4a",
      "blockHash": "0xb9c9fce99dae457e59298306597e64f2330ed1f5000b8b144c33e175a57e12c7",
      "blockNumber": 68568,
      "transactionIndex": 16,
      "confirmations": null,
      "from": "0x3cC0FbfB7DBC88C9362f6cAfc49bDa77a583996a",
      "gasPrice": {
        "_hex": "0xba43b7400"
      },
      "gasLimit": {
        "_hex": "0x15f90"
      },
      "to": "0x793AE8C1b1a160BFc07BFB0d04F85eab1A71F4f2",
      "value": {
        "_hex": "0x0"
      },
      "nonce": 0,
      "data": "0x3ba15036",
      "r": "0x5dc24b5ec0a6c5332da9e37e92864ec8ce016833a54ad2cf06b944949e6c1f40",
      "s": "0x4d9b89bff89b596f930c0716bf2d1dd7256ab47141c2ff1aaf28f2287a8f12a0",
      "v": 28,
      "creates": null,
      "raw": "0xf86980850ba43b740083015f9094793ae8c1b1a160bfc07bfb0d04f85eab1a71f4f280843ba150361ca05dc24b5ec0a6c5332da9e37e92864ec8ce016833a54ad2cf06b944949e6c1f40a04d9b89bff89b596f930c0716bf2d1dd7256ab47141c2ff1aaf28f2287a8f12a0",
      "networkId": 0,
      "chainId": 0
    },
    {
      "hash": "0x5aef6d04c7569124234eabc9d8c55a18b70af47ad55db2e44c3a7fcbd30feea4",
      "blockHash": "0xb9c9fce99dae457e59298306597e64f2330ed1f5000b8b144c33e175a57e12c7",
      "blockNumber": 68568,
      "transactionIndex": 17,
      "confirmations": null,
      "from": "0x63C2158D62429ee93D343be37B44efFDd896DbeB",
      "gasPrice": {
        "_hex": "0xba43b7400"
      },
      "gasLimit": {
        "_hex": "0x15f90"
      },
      "to": "0x793AE8C1b1a160BFc07BFB0d04F85eab1A71F4f2",
      "value": {
        "_hex": "0x0"
      },
      "nonce": 0,
      "data": "0x3ba15036",
      "r": "0x1f90ff53ebf817b2b40e395b4c9de323b41220745356a682de9bc5b601d59920",
      "s": "0x0b5dd7819a82f83185b0e70a004ce7307a22655b5d155fd20e6098c7df5182f9",
      "v": 27,
      "creates": null,
      "raw": "0xf86980850ba43b740083015f9094793ae8c1b1a160bfc07bfb0d04f85eab1a71f4f280843ba150361ba01f90ff53ebf817b2b40e395b4c9de323b41220745356a682de9bc5b601d59920a00b5dd7819a82f83185b0e70a004ce7307a22655b5d155fd20e6098c7df5182f9",
      "networkId": 0,
      "chainId": 0
    },
    {
      "hash": "0x039782cc73a5f864468c133e24f5e264ff5696cf87761d43cd2f2d9b84f0edae",
      "blockHash": "0xb9c9fce99dae457e59298306597e64f2330ed1f5000b8b144c33e175a57e12c7",
      "blockNumber": 68568,
      "transactionIndex": 18,
      "confirmations": null,
      "from": "0x167D2f4De25F54528F60a58A71cF558c67fBD07F",
      "gasPrice": {
        "_hex": "0xba43b7400"
      },
      "gasLimit": {
        "_hex": "0x15f90"
      },
      "to": "0x793AE8C1b1a160BFc07BFB0d04F85eab1A71F4f2",
      "value": {
        "_hex": "0x0"
      },
      "nonce": 0,
      "data": "0x3ba15036",
      "r": "0xcea2399566787bf9aec8128e0b58c09d11235159d29d46b6b7009d8d94a792c5",
      "s": "0x2f7166fbe4ff1c0bacdf962173e391576643d21898c41e9d0832040b6fbcc59a",
      "v": 27,
      "creates": null,
      "raw": "0xf86980850ba43b740083015f9094793ae8c1b1a160bfc07bfb0d04f85eab1a71f4f280843ba150361ba0cea2399566787bf9aec8128e0b58c09d11235159d29d46b6b7009d8d94a792c5a02f7166fbe4ff1c0bacdf962173e391576643d21898c41e9d0832040b6fbcc59a",
      "networkId": 0,
      "chainId": 0
    },
    {
      "hash": "0xe142d4cd29a25efc63cf06c9a8cbe7dcdaa1cea7a79e42086364416500cb5b50",
      "blockHash": "0xb9c9fce99dae457e59298306597e64f2330ed1f5000b8b144c33e175a57e12c7",
      "blockNumber": 68568,
      "transactionIndex": 19,
      "confirmations": null,
      "from": "0x340247D6E80bD3b14Bf8A8Bc63C864cbA4df26cd",
      "gasPrice": {
        "_hex": "0xba43b7400"
      },
      "gasLimit": {
        "_hex": "0x15f90"
      },
      "to": "0x793AE8C1b1a160BFc07BFB0d04F85eab1A71F4f2",
      "value": {
        "_hex": "0x0"
      },
      "nonce": 0,
      "data": "0x3ba15036",
      "r": "0x4145cc78395ac71b652d01f20fc1ec559297c0ce7f26aada7c1fb9a24e5ad2ec",
      "s": "0x3e17423f22cbbe7415c72b9ea2ce12ccd594ed1a853a3b825f60018f08a1be0a",
      "v": 27,
      "creates": null,
      "raw": "0xf86980850ba43b740083015f9094793ae8c1b1a160bfc07bfb0d04f85eab1a71f4f280843ba150361ba04145cc78395ac71b652d01f20fc1ec559297c0ce7f26aada7c1fb9a24e5ad2eca03e17423f22cbbe7415c72b9ea2ce12ccd594ed1a853a3b825f60018f08a1be0a",
      "networkId": 0,
      "chainId": 0
    },
    {
      "hash": "0x75889501db2e7f0e6bb3ea58f16afb9c8662580aef17d18eb2e5c24183161fb0",
      "blockHash": "0xb9c9fce99dae457e59298306597e64f2330ed1f5000b8b144c33e175a57e12c7",
      "blockNumber": 68568,
      "transactionIndex": 20,
      "confirmations": null,
      "from": "0x050DCB8C66E9d164FE7d53357fdC4B9E806ddB24",
      "gasPrice": {
        "_hex": "0xba43b7400"
      },
      "gasLimit": {
        "_hex": "0x15f90"
      },
      "to": "0x793AE8C1b1a160BFc07BFB0d04F85eab1A71F4f2",
      "value": {
        "_hex": "0x0"
      },
      "nonce": 0,
      "data": "0x3ba15036",
      "r": "0x295869e9e234e8a0ccae0ebf9d023447f7e58bab284eb7d1900a6fe6fc28c7bf",
      "s": "0x6266d476aee9ea82523a9fb290e720696105f487dca4b98578239892d32533f6",
      "v": 27,
      "creates": null,
      "raw": "0xf86980850ba43b740083015f9094793ae8c1b1a160bfc07bfb0d04f85eab1a71f4f280843ba150361ba0295869e9e234e8a0ccae0ebf9d023447f7e58bab284eb7d1900a6fe6fc28c7bfa06266d476aee9ea82523a9fb290e720696105f487dca4b98578239892d32533f6",
      "networkId": 0,
      "chainId": 0
    },
    {
      "hash": "0x31194c2c4437b17b18e818a0ee3a73d58be8ea2086fd661b95a28954f69c8629",
      "blockHash": "0xb9c9fce99dae457e59298306597e64f2330ed1f5000b8b144c33e175a57e12c7",
      "blockNumber": 68568,
      "transactionIndex": 21,
      "confirmations": null,
      "from": "0x83f38C1c24748c571c8D1dE965504D01412a4a82",
      "gasPrice": {
        "_hex": "0xba43b7400"
      },
      "gasLimit": {
        "_hex": "0x15f90"
      },
      "to": "0x793AE8C1b1a160BFc07BFB0d04F85eab1A71F4f2",
      "value": {
        "_hex": "0x0"
      },
      "nonce": 0,
      "data": "0x3ba15036",
      "r": "0x1d3f46b5714894c8a25cf2adb1e941561ea4c629201a4226c4ae9de93786fbf6",
      "s": "0x157bfb232c4f7a81518fa0b7964c4858129fd4b6a7562bf49d51089e90d4a516",
      "v": 28,
      "creates": null,
      "raw": "0xf86980850ba43b740083015f9094793ae8c1b1a160bfc07bfb0d04f85eab1a71f4f280843ba150361ca01d3f46b5714894c8a25cf2adb1e941561ea4c629201a4226c4ae9de93786fbf6a0157bfb232c4f7a81518fa0b7964c4858129fd4b6a7562bf49d51089e90d4a516",
      "networkId": 0,
      "chainId": 0
    },
    {
      "hash": "0xc1ec8444c21f0267e3b4dd2d2a52fa11144640659ca3984e3da04e666131738a",
      "blockHash": "0xb9c9fce99dae457e59298306597e64f2330ed1f5000b8b144c33e175a57e12c7",
      "blockNumber": 68568,
      "transactionIndex": 22,
      "confirmations": null,
      "from": "0xcF2bE5A91fD40bc00A497f3B7649D47aB28C4E64",
      "gasPrice": {
        "_hex": "0xba43b7400"
      },
      "gasLimit": {
        "_hex": "0x15f90"
      },
      "to": "0x793AE8C1b1a160BFc07BFB0d04F85eab1A71F4f2",
      "value": {
        "_hex": "0x0"
      },
      "nonce": 0,
      "data": "0x3ba15036",
      "r": "0x16b22bde19165cfbcc1a7dcbb2972757dc5465e8997d49ebb46018bfbc76b1e2",
      "s": "0x5bf29762ccc92769fc179cbacbef7fe41e0ee6c027fc690fd1f32f519a6f08ab",
      "v": 27,
      "creates": null,
      "raw": "0xf86980850ba43b740083015f9094793ae8c1b1a160bfc07bfb0d04f85eab1a71f4f280843ba150361ba016b22bde19165cfbcc1a7dcbb2972757dc5465e8997d49ebb46018bfbc76b1e2a05bf29762ccc92769fc179cbacbef7fe41e0ee6c027fc690fd1f32f519a6f08ab",
      "networkId": 0,
      "chainId": 0
    },
    {
      "hash": "0xddb126b412ce8181404075cecc615a1136b1262a74804f69452f19be484bf2c3",
      "blockHash": "0xb9c9fce99dae457e59298306597e64f2330ed1f5000b8b144c33e175a57e12c7",
      "blockNumber": 68568,
      "transactionIndex": 23,
      "confirmations": null,
      "from": "0xefd0F53b95c807257cA06071afF590E4251F5bbB",
      "gasPrice": {
        "_hex": "0xba43b7400"
      },
      "gasLimit": {
        "_hex": "0x15f90"
      },
      "to": "0x793AE8C1b1a160BFc07BFB0d04F85eab1A71F4f2",
      "value": {
        "_hex": "0x0"
      },
      "nonce": 0,
      "data": "0x3ba15036",
      "r": "0xb66fdc49a29662b4f0b959f8968c88884f030932304a640a55cf536fc8bd5975",
      "s": "0x7f5332421cd1a7a909b7e161a265f24c8aab12d7e83c028f65bfa896db6c2408",
      "v": 28,
      "creates": null,
      "raw": "0xf86980850ba43b740083015f9094793ae8c1b1a160bfc07bfb0d04f85eab1a71f4f280843ba150361ca0b66fdc49a29662b4f0b959f8968c88884f030932304a640a55cf536fc8bd5975a07f5332421cd1a7a909b7e161a265f24c8aab12d7e83c028f65bfa896db6c2408",
      "networkId": 0,
      "chainId": 0
    },
    {
      "hash": "0xc1765dac410ea04a71c38c2c53cf481382c971f71afe1cc47f9ebac860e7a2b9",
      "blockHash": "0xb9c9fce99dae457e59298306597e64f2330ed1f5000b8b144c33e175a57e12c7",
      "blockNumber": 68568,
      "transactionIndex": 24,
      "confirmations": null,
      "from": "0xB487bdc0685dfD76969e3524c68a16C9c257CbAF",
      "gasPrice": {
        "_hex": "0xba43b7400"
      },
      "gasLimit": {
        "_hex": "0x15f90"
      },
      "to": "0x793AE8C1b1a160BFc07BFB0d04F85eab1A71F4f2",
      "value": {
        "_hex": "0x0"
      },
      "nonce": 0,
      "data": "0x3ba15036",
      "r": "0x762edb1a65f53352aa00b6967923f97c5b5e9bcf0f0b80391253eef76e1b5641",
      "s": "0x4a7c9ce2ece27873a2e60bc566c1ca8afc53aecd39104f61fdf3e5c94a808f1e",
      "v": 27,
      "creates": null,
      "raw": "0xf86980850ba43b740083015f9094793ae8c1b1a160bfc07bfb0d04f85eab1a71f4f280843ba150361ba0762edb1a65f53352aa00b6967923f97c5b5e9bcf0f0b80391253eef76e1b5641a04a7c9ce2ece27873a2e60bc566c1ca8afc53aecd39104f61fdf3e5c94a808f1e",
      "networkId": 0,
      "chainId": 0
    }
  ]
}