{
  "hash": "0xd3b3d2d430cb3c3947691ccfdfad1712612860401d2423384da6221dfb5203ce",
  "parentHash": "0x00f54716c90256877b4f6bd86575c1703f370fe98ea7a80e6b9af770e56c4edb",
  "number": 49246,
  "timestamp": 1438970403,
  "nonce": "0xdbc3263ccead2c44",
  "difficulty": 1478532790170,
  "gasLimit": {
    "_hex": "0x2a300"
  },
  "gasUsed": {
    "_hex": "0x5208"
  },
  "miner": "0xbb7B8287f3F0a933474a79eAe42CBCa977791171",
  "extraData": "0x476574682f4c5649562f76312e302e312f6c696e75782f676f312e342e32",
  "transactions": [
    {
      "hash": "0xffa5ce088fbe1bb1255b1fba6d00593431c6e69ff839283b188743d464685236",
      "blockHash": "0xd3b3d2d430cb3c3947691ccfdfad1712612860401d2423384da6221dfb5203ce",
      "blockNumber": 49246,
      "transactionIndex": 0,
      "confirmations": null,
      "from": "0x38876939fFE3E2F973C27BB77c403BB85CD78645",
      "gasPrice": {
        "_hex": "0xcec0a3e81"
      },
      "gasLimit": {
        "_hex": "0x5208"
      },
      "to": "0x32Be343B94f860124dC4fEe278FDCBD38C102D88",
      "value": {
        "_hex": "0x3d21ca43df06c20000"
      },
      "nonce": 2,
      "data": "0x",
      "r": "0xbd6faaf2c09d8243285fad9f4f89b3e1a3809e5e4b332d366c66b88bad0e0e54",
      "s": "0x3c41d3ecb5266e2671e7781ea67eaedcf8a80e0e9bc59d23140920bfc46fcff1",
      "v": 27,
      "creates": null,
      "raw": "0xf86d02850cec0a3e818252089432be343b94f860124dc4fee278fdcbd38c102d88893d21ca43df06c20000801ba0bd6faaf2c09d8243285fad9f4f89b3e1a3809e5e4b332d366c66b88bad0e0e54a03c41d3ecb5266e2671e7781ea67eaedcf8a80e0e9bc59d23140920bfc46fcff1",
      "networkId": 0,
      "chainId": 0
    }
  ]
}