{
  "hash": "0x3abc0e5e36244cb09d5c8fcebf3b5a4bb367c4903d3a6161ceecf795e0ee1c94",
  "parentHash": "0xffa1e3aba5afd977f78ec7790d1466519149e59b98ded705454e4eda99fac879",
  "number": 80646,
  "timestamp": 1439488554,
  "nonce": "0xa0cda7ce6d77cd54",
  "difficulty": 2430953744948,
  "gasLimit": {
    "_hex": "0x2fefd8"
  },
  "gasUsed": {
    "_hex": "0x1cc1d"
  },
  "miner": "0xe6A7a1d47ff21B6321162AEA7C6CB457D5476Bca",
  "extraData": "0x476574682f76312e302e312d38326566323666362f6c696e75782f676f312e34",
  "transactions": [
    {
      "hash": "0x6690327fe4520e16c4e44d8056d4b73a65fff5386135861d23b7ed2090e93bf2",
      "blockHash": "0x3abc0e5e36244cb09d5c8fcebf3b5a4bb367c4903d3a6161ceecf795e0ee1c94",
      "blockNumber": 80646,
      "transactionIndex": 0,
      "confirmations": null,
      "from": "0x87C5B5874A18B4306DF8a752a6C8cc3E82daFc19",
      "gasPrice": {
        "_hex": "0x102f565335f"
      },
      "gasLimit": {
        "_hex": "0x493e0"
      },
      "to": "0xC4c51de1AbF5D60DBd329eC0F999Fd8f021ae9fC",
      "value": {
        "_hex": "0x23a4a62c1303c3b"
      },
      "nonce": 272,
      "data": "0x8d2161860000000000000000000000000000000000000000000000000000000000000006d3d96ceed0cfca4794c2a5a3d3aeefe69da0a2a669e66a5651f30b64831c3db0",
      "r": "0x95aab1fb0c267ec8174018daa5fd57f510cab736209b087a58856ec3c0a64917",
      "s": "0x1141fa7e6372f025f00846b8519f87992b48c70054d1eef89707fee4b3051a5e",
      "v": 27,
      "creates": null,
      "raw": "0xf8b5820110860102f565335f830493e094c4c51de1abf5d60dbd329ec0f999fd8f021ae9fc88023a4a62c1303c3bb8448d2161860000000000000000000000000000000000000000000000000000000000000006d3d96ceed0cfca4794c2a5a3d3aeefe69da0a2a669e66a5651f30b64831c3db01ba095aab1fb0c267ec8174018daa5fd57f510cab736209b087a58856ec3c0a64917a01141fa7e6372f025f00846b8519f87992b48c70054d1eef89707fee4b3051a5e",
      "networkId": 0,
      "chainId": 0
    },
    {
      "hash": "0x862011985f6411df8cde4625bbf26bf8c6720a08eb6cb7391ac0160b42416133",
      "blockHash": "0x3abc0e5e36244cb09d5c8fcebf3b5a4bb367c4903d3a6161ceecf795e0ee1c94",
      "blockNumber": 80646,
      "transactionIndex": 1,
      "confirmations": null,
      "from": "0xcf41dDE715EF1162386575F0d21d9172Dcd1b291",
      "gasPrice": {
        "_hex": "0xba43b7400"
      },
      "gasLimit": {
        "_hex": "0x5208"
      },
      "to": "0xC47Aaa860008be6f65B58c6C6E02a84e666EfE31",
      "value": {
        "_hex": "0xebe866f5f0a06000"
      },
      "nonce": 0,
      "data": "0x",
      "r": "0xb71947a474a00b559265b18623699c1832158f8b6aad3302c4f48f00ba1c8f11",
      "s": "0x77039e8dd5f51d989b23d8c3038f04ee4186d14cadcd3a8c0c5a48f7d5b49302",
      "v": 28,
      "creates": null,
      "raw": "0xf86c80850ba43b740082520894c47aaa860008be6f65b58c6c6e02a84e666efe3188ebe866f5f0a06000801ca0b71947a474a00b559265b18623699c1832158f8b6aad3302c4f48f00ba1c8f11a077039e8dd5f51d989b23d8c3038f04ee4186d14cadcd3a8c0c5a48f7d5b49302",
      "networkId": 0,
      "chainId": 0
    }
  ]
}