{
  "hash": "0xe77bc8fd7fdc1f09ebb0af60f750e88befcde594f3243a6eea62b3ae4ed26eb3",
  "parentHash": "0xad3f22bdb0ad838c64cf4a45398a4f5b6d9700ad03a7f0c6d36625c8baeccafc",
  "number": 88652,
  "timestamp": 1439611302,
  "nonce": "0x00f24f6227b97876",
  "difficulty": 3239487824954,
  "gasLimit": {
    "_hex": "0x2fefd8"
  },
  "gasUsed": {
    "_hex": "0x5208"
  },
  "miner": "0xe6A7a1d47ff21B6321162AEA7C6CB457D5476Bca",
  "extraData": "0x476574682f76312e302e312d38326566323666362f6c696e75782f676f312e34",
  "transactions": [
    {
      "hash": "0x66f31095d6e1c09950a24bd88daf772c1761d6356cddb7acf45642e3dd8e4069",
      "blockHash": "0xe77bc8fd7fdc1f09ebb0af60f750e88befcde594f3243a6eea62b3ae4ed26eb3",
      "blockNumber": 88652,
      "transactionIndex": 0,
      "confirmations": null,
      "from": "0x9Fa9952255B2b06639A04D63804d4BdFFf6E2d7e",
      "gasPrice": {
        "_hex": "0xe123c09c1"
      },
      "gasLimit": {
        "_hex": "0x15f90"
      },
      "to": "0xE12517204a15E890f12755207271102F4800A0c4",
      "value": {
        "_hex": "0x340aad21b3b700000"
      },
      "nonce": 8,
      "data": "0x",
      "r": "0xb06dd84021054dd9865b25d8a7c1194762421220d59490c72ff17f514c7d1fad",
      "s": "0x6a8942bea5006e26869412a550248ebb8ea27b7173be5315a72f09e76f8fb019",
      "v": 27,
      "creates": null,
      "raw": "0xf86e08850e123c09c183015f9094e12517204a15e890f12755207271102f4800a0c4890340aad21b3b700000801ba0b06dd84021054dd9865b25d8a7c1194762421220d59490c72ff17f514c7d1fada06a8942bea5006e26869412a550248ebb8ea27b7173be5315a72f09e76f8fb019",
      "networkId": 0,
      "chainId": 0
    }
  ]
}