{
  "hash": "0xe6ea9d1354b1112081dae3c36f6fd72cc0e7f651261787e4732d0d725ec0455d",
  "parentHash": "0xb58d66b379b31bb8f76174296544ea25b5bdfe5739f794bfcbcbdeee06c16774",
  "number": 85504,
  "timestamp": 1439564707,
  "nonce": "0x00ed80803ef0911e",
  "difficulty": 2758418985407,
  "gasLimit": {
    "_hex": "0x2fefd8"
  },
  "gasUsed": {
    "_hex": "0x5208"
  },
  "miner": "0xcf00A85f3826941e7A25BFcF9Aac575d40410852",
  "extraData": "0x476574682f76312e302e312f77696e646f77732f676f312e342e32",
  "transactions": [
    {
      "hash": "0xc207fd4de0fdf3fdaf1a4d35b8086afe65a3b710d5d73844b3387c3398233078",
      "blockHash": "0xe6ea9d1354b1112081dae3c36f6fd72cc0e7f651261787e4732d0d725ec0455d",
      "blockNumber": 85504,
      "transactionIndex": 0,
      "confirmations": null,
      "from": "0x214Bff3588C0607Ac539d1407fb382C787B487eD",
      "gasPrice": {
        "_hex": "0xba43b7400"
      },
      "gasLimit": {
        "_hex": "0x5208"
      },
      "to": "0xC47Aaa860008be6f65B58c6C6E02a84e666EfE31",
      "value": {
        "_hex": "0x455fd68a17f038f0"
      },
      "nonce": 2,
      "data": "0x",
      "r": "0xf672da38d73ddc62eece9ef382f16075b7b22fd9a9b156b72a151dd0756fc037",
      "s": "0x7ff9b6d4e4b13d849a86ea2c0370048ef0f7cba63ddadee621c16000bb22b994",
      "v": 27,
      "creates": null,
      "raw": "0xf86c02850ba43b740082520894c47aaa860008be6f65b58c6c6e02a84e666efe3188455fd68a17f038f0801ba0f672da38d73ddc62eece9ef382f16075b7b22fd9a9b156b72a151dd0756fc037a07ff9b6d4e4b13d849a86ea2c0370048ef0f7cba63ddadee621c16000bb22b994",
      "networkId": 0,
      "chainId": 0
    }
  ]
}