{
  "hash": "0x42ecdb815154fe3107ad0c574376c85039a2b3ef6d31e41498e2f3df64acbb4c",
  "parentHash": "0xe7806c8e0f446e65763531a45528dc3014bceb3b7524eae22ff1a9b802d78d22",
  "number": 82804,
  "timestamp": 1439525532,
  "nonce": "0x694ff68e9d33f280",
  "difficulty": 2374029951207,
  "gasLimit": {
    "_hex": "0x2fefd8"
  },
  "gasUsed": {
    "_hex": "0x5208"
  },
  "miner": "0xe6A7a1d47ff21B6321162AEA7C6CB457D5476Bca",
  "extraData": "0x476574682f76312e302e312d38326566323666362f6c696e75782f676f312e34",
  "transactions": [
    {
      "hash": "0xb318d2c36768342b2971cdf9aadf5b762601be871c6a57ef3546e1e51ca15ee7",
      "blockHash": "0x42ecdb815154fe3107ad0c574376c85039a2b3ef6d31e41498e2f3df64acbb4c",
      "blockNumber": 82804,
      "transactionIndex": 0,
      "confirmations": null,
      "from": "0x00A0c500BcE07AC7b154F1843F37bf2c6b3B508C",
      "gasPrice": {
        "_hex": "0xcce416600"
      },
      "gasLimit": {
        "_hex": "0x5213"
      },
      "to": "0x1C57c98eE938781E1f73E0989586F0DF50189527",
      "value": {
        "_hex": "0x1b1ae4d6e2ef500000"
      },
      "nonce": 0,
      "data": "0x",
      "r": "0x90f6e3220d9132dc4cf694d2237a19937e2777bf078685377cd76685f5fa48d8",
      "s": "0x3c9669710625fca056f0cbb2eff47e9f5289f75c4737c6f6b623463066ddfe15",
      "v": 28,
      "creates": null,
      "raw": "0xf86d80850cce416600825213941c57c98ee938781e1f73e0989586f0df50189527891b1ae4d6e2ef500000801ca090f6e3220d9132dc4cf694d2237a19937e2777bf078685377cd76685f5fa48d8a03c9669710625fca056f0cbb2eff47e9f5289f75c4737c6f6b623463066ddfe15",
      "networkId": 0,
      "chainId": 0
    }
  ]
}