{
  "hash": "0x6f97c95661d9d2b152b0ff8e18bae3338cc6373a8d7c8933d46b02b985f76df5",
  "parentHash": "0x012987d6db48cc2cff69fe9722972911245b0824e3677848a07f67a9a25f24da",
  "number": 76332,
  "timestamp": 1439418626,
  "nonce": "0xc1f0807126e0e227",
  "difficulty": 2221044581120,
  "gasLimit": {
    "_hex": "0x2fefd8"
  },
  "gasUsed": {
    "_hex": "0x5208"
  },
  "miner": "0x123843545FB525C8E134c9A5F15ADA6865cc3848",
  "extraData": "0x476574682f76312e302e312f77696e646f77732f676f312e342e32",
  "transactions": [
    {
      "hash": "0x94b2e6f511cf483009f8199b2093e006188c627336687134ade3d394d1dd7914",
      "blockHash": "0x6f97c95661d9d2b152b0ff8e18bae3338cc6373a8d7c8933d46b02b985f76df5",
      "blockNumber": 76332,
      "transactionIndex": 0,
      "confirmations": null,
      "from": "0x42E6723A0c884E922240e56D7B618BeC96F35800",
      "gasPrice": {
        "_hex": "0x9184e72a000"
      },
      "gasLimit": {
        "_hex": "0x5208"
      },
      "to": "0xde0B295669a9FD93d5F28D9Ec85E40f4cb697BAe",
      "value": {
        "_hex": "0x1"
      },
      "nonce": 6,
      "data": "0x",
      "r": "0xb85e9605c47e0f4bf06c5a6b4c069f3c9d0c5be89ce56d4de61bd85f703a7ce8",
      "s": "0x1127f67879a7b467d712bac0b261694b4edc8a3cdbf410695722cf2bb239f00c",
      "v": 27,
      "creates": null,
      "raw": "0xf865068609184e72a00082520894de0b295669a9fd93d5f28d9ec85e40f4cb697bae01801ba0b85e9605c47e0f4bf06c5a6b4c069f3c9d0c5be89ce56d4de61bd85f703a7ce8a01127f67879a7b467d712bac0b261694b4edc8a3cdbf410695722cf2bb239f00c",
      "networkId": 0,
      "chainId": 0
    }
  ]
}