{
  "hash": "0xd009062d346b451b47ae43512ea7d27602c89b8e685e8ab030cbf3fe6f227da9",
  "parentHash": "0xc4120f39971458bc38b54cc67d0583aa057f86920dc8943f0db34ca475b47476",
  "number": 61203,
  "timestamp": 1439168699,
  "nonce": "0x46125302865fb807",
  "difficulty": 1725275216372,
  "gasLimit": {
    "_hex": "0x2fefd8"
  },
  "gasUsed": {
    "_hex": "0x5208"
  },
  "miner": "0xEF247E639d49461D25F57e9362CadE3120910Ce0",
  "extraData": "0x476574682f76312e302e312f6c696e75782f676f312e342e32",
  "transactions": [
    {
      "hash": "0xfd342d05d1a842d682d1394b2b6158f912c6abbd9b855f9a773d51de93761a6c",
      "blockHash": "0xd009062d346b451b47ae43512ea7d27602c89b8e685e8ab030cbf3fe6f227da9",
      "blockNumber": 61203,
      "transactionIndex": 0,
      "confirmations": null,
      "from": "0x120A270bbC009644e35F0bB6ab13f95b8199c4ad",
      "gasPrice": {
        "_hex": "0xcafdb42b6"
      },
      "gasLimit": {
        "_hex": "0x15f90"
      },
      "to": "0xE6d0921e5Fa957a2f6f805946F18AC91E3253a52",
      "value": {
        "_hex": "0x56bc75e2d63100000"
      },
      "nonce": 70,
      "data": "0x",
      "r": "0x157d7d3ba5e94365b7bd8efa043a2ad1d2361dc85ceb3ced4ba376e18a5eced7",
      "s": "0x034cda40b831cd516f2fb00373b5960807be2af89363aaeea355ee06a6669957",
      "v": 27,
      "creates": null,
      "raw": "0xf86e46850cafdb42b683015f9094e6d0921e5fa957a2f6f805946f18ac91e3253a5289056bc75e2d63100000801ba0157d7d3ba5e94365b7bd8efa043a2ad1d2361dc85ceb3ced4ba376e18a5eced7a0034cda40b831cd516f2fb00373b5960807be2af89363aaeea355ee06a6669957",
      "networkId": 0,
      "chainId": 0
    }
  ]
}