{
  "hash": "0x02d54c198da50c3bf3a316090fdda84111906e10b56edbb041aa901150ff8fb6",
  "parentHash": "0x36b3cb2ab40504d5a071133dd914f9d63e0c01e8665519cbedb709f11a80323e",
  "number": 93736,
  "timestamp": 1439696884,
  "nonce": "0x684aecf9528f7d51",
  "difficulty": 3416170272418,
  "gasLimit": {
    "_hex": "0x2fefd5"
  },
  "gasUsed": {
    "_hex": "0x5208"
  },
  "miner": "0x5B3e850E39e6f2C7dD38707b649e2B3536F14C0b",
  "extraData": "0x476574682f76312e302e312f64617277696e2f676f312e342e32",
  "transactions": [
    {
      "hash": "0xf70ef030255ce6bb7f230ce98c452732b0be9b73ad754ffac0c4b3a3a5be16ab",
      "blockHash": "0x02d54c198da50c3bf3a316090fdda84111906e10b56edbb041aa901150ff8fb6",
      "blockNumber": 93736,
      "transactionIndex": 0,
      "confirmations": null,
      "from": "0xa70a9a7040d542C632D8e0bE7c5513A8a5Bbc752",
      "gasPrice": {
        "_hex": "0xd39596bd5"
      },
      "gasLimit": {
        "_hex": "0x5208"
      },
      "to": "0x32Be343B94f860124dC4fEe278FDCBD38C102D88",
      "value": {
        "_hex": "0x455f54ba2cfd7c00"
      },
      "nonce": 139,
      "data": "0x",
      "r": "0x1c2b51b9856df62ccd6b64e8e1bab1ef2021ca7d13aba87cdf108a8ff623b72d",
      "s": "0x241fc4c03ff4ff8e0114691308ddcd15676567ff72d8a96650fcaba3f3e0231d",
      "v": 27,
      "creates": null,
      "raw": "0xf86d818b850d39596bd58252089432be343b94f860124dc4fee278fdcbd38c102d8888455f54ba2cfd7c00801ba01c2b51b9856df62ccd6b64e8e1bab1ef2021ca7d13aba87cdf108a8ff623b72da0241fc4c03ff4ff8e0114691308ddcd15676567ff72d8a96650fcaba3f3e0231d",
      "networkId": 0,
      "chainId": 0
    }
  ]
}