{
  "hash": "0xde334181d2673423a61714bcfb62f1a46fb9aa290de241b67dd16301a9fb1db7",
  "parentHash": "0xa1d935ce650be3a60409eb8c8d9cd3fda351e73aff66a4f51356c7698b775459",
  "number": 100121,
  "timestamp": 1439801077,
  "nonce": "0x33dcc0dee62e05ab",
  "difficulty": 3843607281951,
  "gasLimit": {
    "_hex": "0x2fefd8"
  },
  "gasUsed": {
    "_hex": "0x5208"
  },
  "miner": "0xaA35779Ef4dfBEd0B3D6F46F5f11cb86261B17A5",
  "extraData": "0x476574682f76312e302e312f77696e646f77732f676f312e342e32",
  "transactions": [
    {
      "hash": "0xfef57bdfa831e48b134223ec7af97552c2d6cea1a7249ae66269d98797ab9ac8",
      "blockHash": "0xde334181d2673423a61714bcfb62f1a46fb9aa290de241b67dd16301a9fb1db7",
      "blockNumber": 100121,
      "transactionIndex": 0,
      "confirmations": null,
      "from": "0x1E550f4ecF22cBCb73da4fc090FBf5a5c748b0F1",
      "gasPrice": {
        "_hex": "0xd4578915f"
      },
      "gasLimit": {
        "_hex": "0x5208"
      },
      "to": "0x32Be343B94f860124dC4fEe278FDCBD38C102D88",
      "value": {
        "_hex": "0x13ace0831145fa000"
      },
      "nonce": 4,
      "data": "0x",
      "r": "0xc104e08977b761d101be03bf3424af4cb2a40e0eb761d3b37e642901b0bd547d",
      "s": "0x6a22d55d1910e252a61b4946cfe5f2e1ea3e9740a37561d74ee47a85aa6b8807",
      "v": 27,
      "creates": null,
      "raw": "0xf86d04850d4578915f8252089432be343b94f860124dc4fee278fdcbd38c102d8889013ace0831145fa000801ba0c104e08977b761d101be03bf3424af4cb2a40e0eb761d3b37e642901b0bd547da06a22d55d1910e252a61b4946cfe5f2e1ea3e9740a37561d74ee47a85aa6b8807",
      "networkId": 0,
      "chainId": 0
    }
  ]
}