{
  "hash": "0x4603a456a997be7f43be95660b95d7ad54b055cc465cce8fcdc48d6a646b1182",
  "parentHash": "0xf86183658471628e3f57d2a976db662a36903a2a709fa337f5dde5b42d3b27d5",
  "number": 52545,
  "timestamp": 1439023355,
  "nonce": "0x2dfa7be5d0ddd45b",
  "difficulty": 1563316169533,
  "gasLimit": {
    "_hex": "0x1532a5"
  },
  "gasUsed": {
    "_hex": "0xf4240"
  },
  "miner": "0x47ff6576639c2e94762eA5443978D7681C0E78DC",
  "extraData": "0x476574682f76312e302e312f6c696e75782f676f312e342e32",
  "transactions": [
    {
      "hash": "0x33e1330ef86f87595e951e621f6f4d561aa110b23a3e0efefaa4d5404682d5f1",
      "blockHash": "0x4603a456a997be7f43be95660b95d7ad54b055cc465cce8fcdc48d6a646b1182",
      "blockNumber": 52545,
      "transactionIndex": 0,
      "confirmations": null,
      "from": "0x54dAeb3E8a6BBC797E4aD2b0339f134b186e4637",
      "gasPrice": {
        "_hex": "0xe7d27df17"
      },
      "gasLimit": {
        "_hex": "0x7a120"
      },
      "to": "0xBAA54d6E90c3F4d7Ebec11bD180134C7eD8eBb52",
      "value": {
        "_hex": "0x16345785d8a0000"
      },
      "nonce": 695,
      "data": "0x",
      "r": "0xbf0162e710bbc69b8c6744b871f7391e147ff682ee9a232b24fef2a30c1937e4",
      "s": "0x6017c23871af2ecc2d4add415cd56c366fa0cf474e240f81b0d55b40999c84ad",
      "v": 28,
      "creates": null,
      "raw": "0xf86f8202b7850e7d27df178307a12094baa54d6e90c3f4d7ebec11bd180134c7ed8ebb5288016345785d8a0000801ca0bf0162e710bbc69b8c6744b871f7391e147ff682ee9a232b24fef2a30c1937e4a06017c23871af2ecc2d4add415cd56c366fa0cf474e240f81b0d55b40999c84ad",
      "networkId": 0,
      "chainId": 0
    },
    {
      "hash": "0x0836afd4a06a70fed2f0cffe1c71f5c0fa90ac6ce085d4867effd7a34a46e26b",
      "blockHash": "0x4603a456a997be7f43be95660b95d7ad54b055cc465cce8fcdc48d6a646b1182",
      "blockNumber": 52545,
      "transactionIndex": 1,
      "confirmations": null,
      "from": "0x54dAeb3E8a6BBC797E4aD2b0339f134b186e4637",
      "gasPrice": {
        "_hex": "0xe7d27df17"
      },
      "gasLimit": {
        "_hex": "0x7a120"
      },
      "to": "0xBAA54d6E90c3F4d7Ebec11bD180134C7eD8eBb52",
      "value": {
        "_hex": "0x16345785d8a0000"
      },
      "nonce": 696,
      "data": "0x",
      "r": "0x215b8649015720d5b96c794d877e8f3645e75b935b7d5ace6153d1b2b9ae1d9d",
      "s": "0x5de1a9572d6b6245e93e3575412279aec8e61c9793df36a750b9779bceb4565f",
      "v": 27,
      "creates": null,
      "raw": "0xf86f8202b8850e7d27df178307a12094baa54d6e90c3f4d7ebec11bd180134c7ed8ebb5288016345785d8a0000801ba0215b8649015720d5b96c794d877e8f3645e75b935b7d5ace6153d1b2b9ae1d9da05de1a9572d6b6245e93e3575412279aec8e61c9793df36a750b9779bceb4565f",
      "networkId": 0,
      "chainId": 0
    }
  ]
}