{
  "hash": "0xbe62fdc901dc85ecd67af954c54e0f598af4588cb659e282e7f9426ed85c9a4b",
  "parentHash": "0x2798c710b003b1f1ec6b55dd4deaface1fc39003b8804d2fad828e4c0acf6ed4",
  "number": 79108,
  "timestamp": 1439464578,
  "nonce": "0x1ee8bd4506ce972c",
  "difficulty": 2313270491585,
  "gasLimit": {
    "_hex": "0x2fefd8"
  },
  "gasUsed": {
    "_hex": "0x47c70"
  },
  "miner": "0x70137010922f2fC2964b3792907F79FBB75fEbe8",
  "extraData": "0x476574682f76312e302e302f6c696e75782f676f312e342e32",
  "transactions": [
    {
      "hash": "0xa6dfb9bd094ad6682834cc8aa6d3a500d45cb827cac4359cf75bcc9b28ac7afe",
      "blockHash": "0xbe62fdc901dc85ecd67af954c54e0f598af4588cb659e282e7f9426ed85c9a4b",
      "blockNumber": 79108,
      "transactionIndex": 0,
      "confirmations": null,
      "from": "0xcA422f88253D0492F13F304eBCF34892B3c07AEc",
      "gasPrice": {
        "_hex": "0xce50bd0da"
      },
      "gasLimit": {
        "_hex": "0x5208"
      },
      "to": "0x32Be343B94f860124dC4fEe278FDCBD38C102D88",
      "value": {
        "_hex": "0x6336b7e908ca9c00"
      },
      "nonce": 0,
      "data": "0x",
      "r": "0x9122a7571b5a7b6ce5dd03fc6298f125c1bbcd8168f29b94c223f034b610c13d",
      "s": "0x5b6397296cbc94a7f2f38e8ca3ac23658042dcc4a99bcc86434f9cbd41bb4402",
      "v": 27,
      "creates": null,
      "raw": "0xf86c80850ce50bd0da8252089432be343b94f860124dc4fee278fdcbd38c102d88886336b7e908ca9c00801ba09122a7571b5a7b6ce5dd03fc6298f125c1bbcd8168f29b94c223f034b610c13da05b6397296cbc94a7f2f38e8ca3ac23658042dcc4a99bcc86434f9cbd41bb4402",
      "networkId": 0,
      "chainId": 0
    },
    {
      "hash": "0xfb8204aa465675d1b47af437182b2ffa88b72481e2d38cf5606d0291b6e7291b",
      "blockHash": "0xbe62fdc901dc85ecd67af954c54e0f598af4588cb659e282e7f9426ed85c9a4b",
      "blockNumber": 79108,
      "transactionIndex": 1,
      "confirmations": null,
      "from": "0xeD3Fe86896534C24D9F91232faE34b78DFf3c1f4",
      "gasPrice": {
        "_hex": "0xce50bd0da"
      },
      "gasLimit": {
        "_hex": "0x5208"
      },
      "to": "0x32Be343B94f860124dC4fEe278FDCBD38C102D88",
      "value": {
        "_hex": "0x8d51a6d8355f8000"
      },
      "nonce": 1,
      "data": "0x",
      "r": "0x9acf692b02590e204d4fe957cf22c29fd45ddf1e0683f919270b87c4c092f9a3",
      "s": "0x26ec56d59e4e1563e749d2a74045a3dff9d4cd686053f49fe5776675005cc035",
      "v": 27,
      "creates": null,
      "raw": "0xf86c01850ce50bd0da8252089432be343b94f860124dc4fee278fdcbd38c102d88888d51a6d8355f8000801ba09acf692b02590e204d4fe957cf22c29fd45ddf1e0683f919270b87c4c092f9a3a026ec56d59e4e1563e749d2a74045a3dff9d4cd686053f49fe5776675005cc035",
      "networkId": 0,
      "chainId": 0
    },
    {
      "hash": "0x95596a99c09dcc8aa268abf107e209afda064c869ad5381ee1fa9e5ab4f0de0b",
      "blockHash": "0xbe62fdc901dc85ecd67af954c54e0f598af4588cb659e282e7f9426ed85c9a4b",
      "blockNumber": 79108,
      "transactionIndex": 2,
      "confirmations": null,
      "from": "0x519DC97eF09491aE962A8F13fe144c71feca4662",
      "gasPrice": {
        "_hex": "0xce50bd0da"
      },
      "gasLimit": {
        "_hex": "0x5208"
      },
      "to": "0x32Be343B94f860124dC4fEe278FDCBD38C102D88",
      "value": {
        "_hex": "0x51546f5a97c70400"
      },
      "nonce": 1,
      "data": "0x",
      "r": "0xc6897c77053fb40efc3924e76992d403d7c71aa5a90f468c1f605602b4221948",
      "s": "0x4ca5c3fda83025992af76c67df04f0cd3c0c4ffc2b72cd938904c05c200e7088",
      "v": 28,
      "creates": null,
      "raw": "0xf86c01850ce50bd0da8252089432be343b94f860124dc4fee278fdcbd38c102d888851546f5a97c70400801ca0c6897c77053fb40efc3924e76992d403d7c71aa5a90f468c1f605602b4221948a04ca5c3fda83025992af76c67df04f0cd3c0c4ffc2b72cd938904c05c200e7088",
      "networkId": 0,
      "chainId": 0
    },
    {
      "hash": "0xe963e1ee00479caeb86ac332e03d71afda3084dea65c75b5d29b89856cafd06e",
      "blockHash": "0xbe62fdc901dc85ecd67af954c54e0f598af4588cb659e282e7f9426ed85c9a4b",
      "blockNumber": 79108,
      "transactionIndex": 3,
      "confirmations": null,
      "from": "0x702bD0d370bBf0B97B66FE95578c62697c583393",
      "gasPrice": {
        "_hex": "0xce50bd0da"
      },
      "gasLimit": {
        "_hex": "0x5208"
      },
      "to": "0x32Be343B94f860124dC4fEe278FDCBD38C102D88",
      "value": {
        "_hex": "0x4d67ffcf74878400"
      },
      "nonce": 2,
      "data": "0x",
      "r": "0x03478abde36aece0450338fd798ed6e28698eeb08d3be4a57276f4f5acfcc582",
      "s": "0x7ca37387590b87a608ad2d0e601d0fd1ed664aeaa9c09d00f3964f5097967f3c",
      "v": 27,
      "creates": null,
      "raw": "0xf86c02850ce50bd0da8252089432be343b94f860124dc4fee278fdcbd38c102d88884d67ffcf74878400801ba003478abde36aece0450338fd798ed6e28698eeb08d3be4a57276f4f5acfcc582a07ca37387590b87a608ad2d0e601d0fd1ed664aeaa9c09d00f3964f5097967f3c",
      "networkId": 0,
      "chainId": 0
    },
    {
      "hash": "0xfb61db1d6befb25a99d60b6eb1a0511ef61cebdc1081be3be4317466de7daee7",
      "blockHash": "0xbe62fdc901dc85ecd67af954c54e0f598af4588cb659e282e7f9426ed85c9a4b",
      "blockNumber": 79108,
      "transactionIndex": 4,
      "confirmations": null,
      "from": "0x18883522e2679aA9b41E0fA688F20c3802897525",
      "gasPrice": {
        "_hex": "0xce50bd0da"
      },
      "gasLimit": {
        "_hex": "0x5208"
      },
      "to": "0x32Be343B94f860124dC4fEe278FDCBD38C102D88",
      "value": {
        "_hex": "0xc055d9a01c93a000"
      },
      "nonce": 2,
      "data": "0x",
      "r": "0x8be81290ac235921fabc1bf95985c66b945ad53bac91fcd014beffe04cf82df6",
      "s": "0x0d3fb4d4b152312a963fc07bb4ad4bd5e21be19d9ab33ea166bd1128647f6587",
      "v": 27,
      "creates": null,
      "raw": "0xf86c02850ce50bd0da8252089432be343b94f860124dc4fee278fdcbd38c102d8888c055d9a01c93a000801ba08be81290ac235921fabc1bf95985c66b945ad53bac91fcd014beffe04cf82df6a00d3fb4d4b152312a963fc07bb4ad4bd5e21be19d9ab33ea166bd1128647f6587",
      "networkId": 0,
      "chainId": 0
    },
    {
      "hash": "0x30a4cf8ca9a116ab22f1dd492ec0f3def99297f539688f0113d840195dc33ff6",
      "blockHash": "0xbe62fdc901dc85ecd67af954c54e0f598af4588cb659e282e7f9426ed85c9a4b",
      "blockNumber": 79108,
      "transactionIndex": 5,
      "confirmations": null,
      "from": "0x46e97208BC7F618816Cb502A2b516fb4BC41f1D3",
      "gasPrice": {
        "_hex": "0xce50bd0da"
      },
      "gasLimit": {
        "_hex": "0x5208"
      },
      "to": "0x32Be343B94f860124dC4fEe278FDCBD38C102D88",
      "value": {
        "_hex": "0x3eaa594c270ea000"
      },
      "nonce": 2,
      "data": "0x",
      "r": "0xcb9d246a3dfefe6c4143e2ad128bced01e2b5ba29ce8b99b5728d53e4c0d262c",
      "s": "0x1fcbcc27aa78ec3a4e48f07b37da8f81621b3bd9e9c7b9c7880c8bf8830e82b9",
      "v": 28,
      "creates": null,
      "raw": "0xf86c02850ce50bd0da8252089432be343b94f860124dc4fee278fdcbd38c102d88883eaa594c270ea000801ca0cb9d246a3dfefe6c4143e2ad128bced01e2b5ba29ce8b99b5728d53e4c0d262ca01fcbcc27aa78ec3a4e48f07b37da8f81621b3bd9e9c7b9c7880c8bf8830e82b9",
      "networkId": 0,
      "chainId": 0
    },
    {
      "hash": "0xb1d9f3f247a2d7e4fb0a24887ae878653b572a79a2bfdda926022dcc4610023b",
      "blockHash": "0xbe62fdc901dc85ecd67af954c54e0f598af4588cb659e282e7f9426ed85c9a4b",
      "blockNumber": 79108,
      "transactionIndex": 6,
      "confirmations": null,
      "from": "0x7Eb9F59f9547E376188eD83EFCD1F6dbF3712eA6",
      "gasPrice": {
        "_hex": "0xd8b74c8fc"
      },
      "gasLimit": {
        "_hex": "0x15f90"
      },
      "to": "0x187b1f47Cd55b27878699DfCDCee2234cD49E97e",
      "value": {
        "_hex": "0x8ac7230489e80000"
      },
      "nonce": 2,
      "data": "0x",
      "r": "0x72c22ddcb3fc157f7138a66a43457f8792cac8fe1feea3800e2c4a1d636cadb0",
      "s": "0x131d98a71d382b1cfa4aa80123979d0751aa7c92c3eab787a6f348ebebf74c27",
      "v": 28,
      "creates": null,
      "raw": "0xf86d02850d8b74c8fc83015f9094187b1f47cd55b27878699dfcdcee2234cd49e97e888ac7230489e80000801ca072c22ddcb3fc157f7138a66a43457f8792cac8fe1feea3800e2c4a1d636cadb0a0131d98a71d382b1cfa4aa80123979d0751aa7c92c3eab787a6f348ebebf74c27",
      "networkId": 0,
      "chainId": 0
    },
    {
      "hash": "0xaa1b00793ed1e634e2c06a690d070b83218af4c091277aa6f70385e3491f22d4",
      "blockHash": "0xbe62fdc901dc85ecd67af954c54e0f598af4588cb659e282e7f9426ed85c9a4b",
      "blockNumber": 79108,
      "transactionIndex": 7,
      "confirmations": null,
      "from": "0xC15233674F0Cb7729e4Ab8aB733430C40580914d",
      "gasPrice": {
        "_hex": "0xce50bd0da"
      },
      "gasLimit": {
        "_hex": "0x5208"
      },
      "to": "0x32Be343B94f860124dC4fEe278FDCBD38C102D88",
      "value": {
        "_hex": "0x665c79fff7614c00"
      },
      "nonce": 2,
      "data": "0x",
      "r": "0xe333cd51966bbeed1bec814ce56b7a17bbb985f2e5f0d20d5fa03ad523a85471",
      "s": "0x7d562fa2fc110c5dbb6fcaab9842637650dc387e9174bfb85fd53a3f063d1804",
      "v": 28,
      "creates": null,
      "raw": "0xf86c02850ce50bd0da8252089432be343b94f860124dc4fee278fdcbd38c102d8888665c79fff7614c00801ca0e333cd51966bbeed1bec814ce56b7a17bbb985f2e5f0d20d5fa03ad523a85471a07d562fa2fc110c5dbb6fcaab9842637650dc387e9174bfb85fd53a3f063d1804",
      "networkId": 0,
      "chainId": 0
    },
    {
      "hash": "0xeef5ab52f0fb5cb8451c2d8edb9f536e882be418eda5dca21f1dd3ea37160375",
      "blockHash": "0xbe62fdc901dc85ecd67af954c54e0f598af4588cb659e282e7f9426ed85c9a4b",
      "blockNumber": 79108,
      "transactionIndex": 8,
      "confirmations": null,
      "from": "0x9FA0960220d2d51D54f755501E391Da140c2EF63",
      "gasPrice": {
        "_hex": "0xce50bd0da"
      },
      "gasLimit": {
        "_hex": "0x5208"
      },
      "to": "0x32Be343B94f860124dC4fEe278FDCBD38C102D88",
      "value": {
        "_hex": "0x24250f922d19b000"
      },
      "nonce": 2,
      "data": "0x",
      "r": "0x4c242a9c4c95698105175c65af0368ac584ea12e864fd47b25c0ff1a6c3e39d0",
      "s": "0x6af828ecece924bc07a032156cf7056d5d6bbaf6b011e80cb5dbb8cc5aa753aa",
      "v": 27,
      "creates": null,
      "raw": "0xf86c02850ce50bd0da8252089432be343b94f860124dc4fee278fdcbd38c102d888824250f922d19b000801ba04c242a9c4c95698105175c65af0368ac584ea12e864fd47b25c0ff1a6c3e39d0a06af828ecece924bc07a032156cf7056d5d6bbaf6b011e80cb5dbb8cc5aa753aa",
      "networkId": 0,
      "chainId": 0
    },
    {
      "hash": "0x6a002171a02e8d82f4630c5e059b0c09c535833b84352becde73f7d1fd5276cd",
      "blockHash": "0xbe62fdc901dc85ecd67af954c54e0f598af4588cb659e282e7f9426ed85c9a4b",
      "blockNumber": 79108,
      "transactionIndex": 9,
      "confirmations": null,
      "from": "0xb4eb03c9bDD4944DE22085E8e1dB5Ebd36889Bd8",
      "gasPrice": {
        "_hex": "0xce50bd0da"
      },
      "gasLimit": {
        "_hex": "0x5208"
      },
      "to": "0x32Be343B94f860124dC4fEe278FDCBD38C102D88",
      "value": {
        "_hex": "0x5851d6d54974f000"
      },
      "nonce": 2,
      "data": "0x",
      "r": "0x5412452d5dded6fc2423aa7f5bd950f7ec0dfe4e7df8d853aca79d44c6b3288a",
      "s": "0x5884a8100d89588627d0bcf92523e8633898f0168724252093db69fa1c0e6f63",
      "v": 28,
      "creates": null,
      "raw": "0xf86c02850ce50bd0da8252089432be343b94f860124dc4fee278fdcbd38c102d88885851d6d54974f000801ca05412452d5dded6fc2423aa7f5bd950f7ec0dfe4e7df8d853aca79d44c6b3288aa05884a8100d89588627d0bcf92523e8633898f0168724252093db69fa1c0e6f63",
      "networkId": 0,
      "chainId": 0
    },
    {
      "hash": "0xccf1ea743525334af26b1447267de0d606b06e81455cd6e44091ad30cf89e2e4",
      "blockHash": "0xbe62fdc901dc85ecd67af954c54e0f598af4588cb659e282e7f9426ed85c9a4b",
      "blockNumber": 79108,
      "transactionIndex": 10,
      "confirmations": null,
      "from": "0xbA86D58204A1f1fbe53Ff71aa038BC08cb4057e8",
      "gasPrice": {
        "_hex": "0xce50bd0da"
      },
      "gasLimit": {
        "_hex": "0x5208"
      },
      "to": "0x32Be343B94f860124dC4fEe278FDCBD38C102D88",
      "value": {
        "_hex": "0x8867bea338b92000"
      },
      "nonce": 6,
      "data": "0x",
      "r": "0xefd09d845b7876195905eaf5d12cc6a730bc0f701a6b3f498b1a8416a897db8e",
      "s": "0x1702b51a663b2395a7c35612cef56d6d229338713dc44c53298d50ebd3a465ea",
      "v": 27,
      "creates": null,
      "raw": "0xf86c06850ce50bd0da8252089432be343b94f860124dc4fee278fdcbd38c102d88888867bea338b92000801ba0efd09d845b7876195905eaf5d12cc6a730bc0f701a6b3f498b1a8416a897db8ea01702b51a663b2395a7c35612cef56d6d229338713dc44c53298d50ebd3a465ea",
      "networkId": 0,
      "chainId": 0
    },
    {
      "hash": "0xd1900f35989886ca5deb4dfbe347cb3c59e20af96aa6cfa998f5e8009f43e60e",
      "blockHash": "0xbe62fdc901dc85ecd67af954c54e0f598af4588cb659e282e7f9426ed85c9a4b",
      "blockNumber": 79108,
      "transactionIndex": 11,
      "confirmations": null,
      "from": "0x0A319A7e0C887F104359e1eEe6717BD8f232d3Da",
      "gasPrice": {
        "_hex": "0xce50bd0da"
      },
      "gasLimit": {
        "_hex": "0x5208"
      },
      "to": "0x32Be343B94f860124dC4fEe278FDCBD38C102D88",
      "value": {
        "_hex": "0x5ec705441b06ec00"
      },
      "nonce": 8,
      "data": "0x",
      "r": "0x6e3b2d9b711c8ce338579faff65937c6a1b3cc89375d49ed1bf5e88caad2eb23",
      "s": "0x0a4333a5a87f9aacff862821ca109ef27133a5b8532ed9a2eddee0102344fb5c",
      "v": 27,
      "creates": null,
      "raw": "0xf86c08850ce50bd0da8252089432be343b94f860124dc4fee278fdcbd38c102d88885ec705441b06ec00801ba06e3b2d9b711c8ce338579faff65937c6a1b3cc89375d49ed1bf5e88caad2eb23a00a4333a5a87f9aacff862821ca109ef27133a5b8532ed9a2eddee0102344fb5c",
      "networkId": 0,
      "chainId": 0
    },
    {
      "hash": "0x440c5c9734dbdbbfe5b1d4fd5fbbbaf785ecc5332ffa60a791b7a4e1143f3eba",
      "blockHash": "0xbe62fdc901dc85ecd67af954c54e0f598af4588cb659e282e7f9426ed85c9a4b",
      "blockNumber": 79108,
      "transactionIndex": 12,
      "confirmations": null,
      "from": "0xa114c802ef29776f05f9c6925cE915232e8ae102",
      "gasPrice": {
        "_hex": "0xce50bd0da"
      },
      "gasLimit": {
        "_hex": "0x5208"
      },
      "to": "0x32Be343B94f860124dC4fEe278FDCBD38C102D88",
      "value": {
        "_hex": "0x39909ae87557b800"
      },
      "nonce": 13,
      "data": "0x",
      "r": "0xbfdd9dc2f1d450a335d314b0fa398d86ed5a910a94e5ee95ea238d7c56a95a73",
      "s": "0x71f1acac2c29c8ef42f8f846e52b6576bfeb740e7d7adbff745a07e9c774af5c",
      "v": 28,
      "creates": null,
      "raw": "0xf86c0d850ce50bd0da8252089432be343b94f860124dc4fee278fdcbd38c102d888839909ae87557b800801ca0bfdd9dc2f1d450a335d314b0fa398d86ed5a910a94e5ee95ea238d7c56a95a73a071f1acac2c29c8ef42f8f846e52b6576bfeb740e7d7adbff745a07e9c774af5c",
      "networkId": 0,
      "chainId": 0
    },
    {
      "hash": "0xe50bbabc147592a6a7c4c6beed09ae272ab52a9ff1304146931f1d874c7edbce",
      "blockHash": "0xbe62fdc901dc85ecd67af954c54e0f598af4588cb659e282e7f9426ed85c9a4b",
      "blockNumber": 79108,
      "transactionIndex": 13,
      "confirmations": null,
      "from": "0xa70a9a7040d542C632D8e0bE7c5513A8a5Bbc752",
      "gasPrice": {
        "_hex": "0xce50bd0da"
      },
      "gasLimit": {
        "_hex": "0x5208"
      },
      "to": "0x32Be343B94f860124dC4fEe278FDCBD38C102D88",
      "value": {
        "_hex": "0xb7931aaf21721000"
      },
      "nonce": 56,
      "data": "0x",
      "r": "0x9ad05d5aa610c904831fe6c7fcc2577504e6083b6be7f2c665d42944921c8da3",
      "s": "0x59c8768a39324c43e47e29f68a70cd989844223356a799b182f3c41dca1f11cd",
      "v": 27,
      "creates": null,
      "raw": "0xf86c38850ce50bd0da8252089432be343b94f860124dc4fee278fdcbd38c102d8888b7931aaf21721000801ba09ad05d5aa610c904831fe6c7fcc2577504e6083b6be7f2c665d42944921c8da3a059c8768a39324c43e47e29f68a70cd989844223356a799b182f3c41dca1f11cd",
      "networkId": 0,
      "chainId": 0
    }
  ]
}