{
  "hash": "0x5f4bfa1fcb84b1a57fe3a1a61ebec020735b1112958fdac60dff8b1cac242558",
  "parentHash": "0xed7f6b75a4cb360dcbab0d7ce40f289a3c94593e11b5fe312ffe340a5fa7bbeb",
  "number": 83747,
  "timestamp": 1439540247,
  "nonce": "0xc2eca862b0a49a04",
  "difficulty": 2438375329471,
  "gasLimit": {
    "_hex": "0x2fefd8"
  },
  "gasUsed": {
    "_hex": "0xa410"
  },
  "miner": "0x007f7f58D3eb5b7510A301eCC749FC1fCDDBE14D",
  "extraData": "0x476574682f76312e302e312f77696e646f77732f676f312e342e32",
  "transactions": [
    {
      "hash": "0x4c66cd3d4b9e128ca7d268a0d9634c21c884c8e462a14dc27cfa9689da3d90c4",
      "blockHash": "0x5f4bfa1fcb84b1a57fe3a1a61ebec020735b1112958fdac60dff8b1cac242558",
      "blockNumber": 83747,
      "transactionIndex": 0,
      "confirmations": null,
      "from": "0x7D45E10A0d63eCCA0694a7cbfF030f4dD87DA0dC",
      "gasPrice": {
        "_hex": "0xd7d40ace3"
      },
      "gasLimit": {
        "_hex": "0x15f90"
      },
      "to": "0x6d921977dEFE5f4e0682CA512De1D07b1f4802E1",
      "value": {
        "_hex": "0x8ac7230489e80000"
      },
      "nonce": 11,
      "data": "0x",
      "r": "0xf2d6b54aabc80489a8191b583236b8821fee37759a5b6d29900a9c1d5dc82c3c",
      "s": "0x701ec5893fce209bcb38cb5dee3dccd0f000a0f70022fe9aa1f039440c4d859b",
      "v": 28,
      "creates": null,
      "raw": "0xf86d0b850d7d40ace383015f90946d921977defe5f4e0682ca512de1d07b1f4802e1888ac7230489e80000801ca0f2d6b54aabc80489a8191b583236b8821fee37759a5b6d29900a9c1d5dc82c3ca0701ec5893fce209bcb38cb5dee3dccd0f000a0f70022fe9aa1f039440c4d859b",
      "networkId": 0,
      "chainId": 0
    },
    {
      "hash": "0x7bfe7d5c276f0451f9ec3ac3f2036ed29f3c58bcf637eafd0582ed71ba32dc2b",
      "blockHash": "0x5f4bfa1fcb84b1a57fe3a1a61ebec020735b1112958fdac60dff8b1cac242558",
      "blockNumber": 83747,
      "transactionIndex": 1,
      "confirmations": null,
      "from": "0x0037ce3d4B7f8729C8607D8D0248252Be68202c0",
      "gasPrice": {
        "_hex": "0xcebea49e3"
      },
      "gasLimit": {
        "_hex": "0x15f90"
      },
      "to": "0x1490dF8723A2496AD757c0D395840Ef9331e7e3c",
      "value": {
        "_hex": "0x183b5f03b1479c0000"
      },
      "nonce": 15,
      "data": "0x",
      "r": "0xdc85b01e7d50c4b389c27f62fd01853c6ff30993a1fc05edf0208f82fd0454e6",
      "s": "0x37b538725ad065efa1c75e4e734db6aabc09a4d923d30558018f8100c30029c0",
      "v": 28,
      "creates": null,
      "raw": "0xf86e0f850cebea49e383015f90941490df8723a2496ad757c0d395840ef9331e7e3c89183b5f03b1479c0000801ca0dc85b01e7d50c4b389c27f62fd01853c6ff30993a1fc05edf0208f82fd0454e6a037b538725ad065efa1c75e4e734db6aabc09a4d923d30558018f8100c30029c0",
      "networkId": 0,
      "chainId": 0
    }
  ]
}