{
  "hash": "0x22916773a557436fa6d95ba5ef4958372ea4cba6751f0a84ab4fdaa5ca5c86c9",
  "parentHash": "0x48e6a5d7cef020883e45261fac653f14eff511802cee7fcc272b4a34c919eebf",
  "number": 117959,
  "timestamp": 1440118227,
  "nonce": "0x65f062f80c43dc73",
  "difficulty": 4346126011890,
  "gasLimit": {
    "_hex": "0x2fefd8"
  },
  "gasUsed": {
    "_hex": "0x5208"
  },
  "miner": "0x608f4b86321a68453f9adf6F06F7Fc3E621739ad",
  "extraData": "0xd783010002844765746887676f312e342e32856c696e7578",
  "transactions": [
    {
      "hash": "0x9d8f6f27a5e21313eec959aa60985c48c441a5f7f3c7cd0065298fb478061a1b",
      "blockHash": "0x22916773a557436fa6d95ba5ef4958372ea4cba6751f0a84ab4fdaa5ca5c86c9",
      "blockNumber": 117959,
      "transactionIndex": 0,
      "confirmations": null,
      "from": "0x4c74B6F32c9680aCB5Fe0e72B7Aa95C612540A04",
      "gasPrice": {
        "_hex": "0xba43b7400"
      },
      "gasLimit": {
        "_hex": "0x5208"
      },
      "to": "0x32Be343B94f860124dC4fEe278FDCBD38C102D88",
      "value": {
        "_hex": "0x8ac3680c5ce46000"
      },
      "nonce": 44,
      "data": "0x",
      "r": "0x3ea5ca0c55e614d888eeee8002b37de2261e2387022ae28c13426a8391ea8bb1",
      "s": "0x004b181f8813afd13daef4dc6034a6b3bf1b8b5b856b1266bf2e3aa4cdf9ce48",
      "v": 27,
      "creates": null,
      "raw": "0xf86b2c850ba43b74008252089432be343b94f860124dc4fee278fdcbd38c102d88888ac3680c5ce46000801ba03ea5ca0c55e614d888eeee8002b37de2261e2387022ae28c13426a8391ea8bb19f4b181f8813afd13daef4dc6034a6b3bf1b8b5b856b1266bf2e3aa4cdf9ce48",
      "networkId": 0,
      "chainId": 0
    }
  ]
}