{
  "hash": "0x21cc996088a1ef59ebc3a03a2ce117a74a57405588c3ec3c0eb8884ec8058af7",
  "parentHash": "0xdffe5141ff76a1040c39d0a6a3eb5952669dd9519ea0ab8ccb1b968079dbae89",
  "number": 112766,
  "timestamp": 1440012857,
  "nonce": "0xbb5214f3ee472541",
  "difficulty": 4445429937936,
  "gasLimit": {
    "_hex": "0x2fefd8"
  },
  "gasUsed": {
    "_hex": "0x5208"
  },
  "miner": "0xe6A7a1d47ff21B6321162AEA7C6CB457D5476Bca",
  "extraData": "0x476574682f76312e302e312d38326566323666362f6c696e75782f676f312e34",
  "transactions": [
    {
      "hash": "0x7c2e6a552d304bb7887a8afd80b94cde4b9a07045801067f307b2def99012559",
      "blockHash": "0x21cc996088a1ef59ebc3a03a2ce117a74a57405588c3ec3c0eb8884ec8058af7",
      "blockNumber": 112766,
      "transactionIndex": 0,
      "confirmations": null,
      "from": "0xE921770D00ff942284b8f101b71C029ecE92DA53",
      "gasPrice": {
        "_hex": "0xcfd39b94f"
      },
      "gasLimit": {
        "_hex": "0x5208"
      },
      "to": "0x32Be343B94f860124dC4fEe278FDCBD38C102D88",
      "value": {
        "_hex": "0xf3baff01c7fd8000"
      },
      "nonce": 6,
      "data": "0x",
      "r": "0x056d43556d6f98c45d563511dad3a47f4749a3a5c8f4246cd38dade181d76d8b",
      "s": "0x19df22dc974ea9325e862467323ac94fa092aa35b14be3e33eac15e4cef2eaa1",
      "v": 27,
      "creates": null,
      "raw": "0xf86c06850cfd39b94f8252089432be343b94f860124dc4fee278fdcbd38c102d8888f3baff01c7fd8000801ba0056d43556d6f98c45d563511dad3a47f4749a3a5c8f4246cd38dade181d76d8ba019df22dc974ea9325e862467323ac94fa092aa35b14be3e33eac15e4cef2eaa1",
      "networkId": 0,
      "chainId": 0
    }
  ]
}