{
  "hash": "0xf03388e64c286f2a582febf25a340b85c918b02b0ddea14f1bb776675c63b26c",
  "parentHash": "0x35bf11e24f4d1a780fa796c0ddf6273604809d7b8919605a6960bd1c9c7758bd",
  "number": 110030,
  "timestamp": 1439966913,
  "nonce": "0x745ed6ce16f9941a",
  "difficulty": 4395072354704,
  "gasLimit": {
    "_hex": "0x2fefd8"
  },
  "gasUsed": {
    "_hex": "0xfe63"
  },
  "miner": "0xeB1325C8D9d3ea8D74aC11F4B00F1B2367686319",
  "extraData": "0x",
  "transactions": [
    {
      "hash": "0x948ed0a0feee8f44da43a75073260f22e3d5210d17736df202f8c44ca0343008",
      "blockHash": "0xf03388e64c286f2a582febf25a340b85c918b02b0ddea14f1bb776675c63b26c",
      "blockNumber": 110030,
      "transactionIndex": 0,
      "confirmations": null,
      "from": "0x120A270bbC009644e35F0bB6ab13f95b8199c4ad",
      "gasPrice": {
        "_hex": "0xdc0675095"
      },
      "gasLimit": {
        "_hex": "0x3d090"
      },
      "to": "0x739f8ab33a41B67952f16778e3CC6D2dEcC3a2d5",
      "value": {
        "_hex": "0xd8d726b7177a80000"
      },
      "nonce": 867,
      "data": "0x",
      "r": "0xae43c227311a3ca3b5d7951a8061dcc13b5bc72d00f8241cc086e1364ae2b487",
      "s": "0x2705953ce1ec23d23c9258054e0aae88ee6841dc8ca5c06f22ddc9ff8788e4c4",
      "v": 28,
      "creates": null,
      "raw": "0xf870820363850dc06750958303d09094739f8ab33a41b67952f16778e3cc6d2decc3a2d5890d8d726b7177a80000801ca0ae43c227311a3ca3b5d7951a8061dcc13b5bc72d00f8241cc086e1364ae2b487a02705953ce1ec23d23c9258054e0aae88ee6841dc8ca5c06f22ddc9ff8788e4c4",
      "networkId": 0,
      "chainId": 0
    },
    {
      "hash": "0x0e93f68b1c793dce0711f39b7bb45cae555c70255262268de0bc6e07d63725b2",
      "blockHash": "0xf03388e64c286f2a582febf25a340b85c918b02b0ddea14f1bb776675c63b26c",
      "blockNumber": 110030,
      "transactionIndex": 1,
      "confirmations": null,
      "from": "0x5d4Ee23e18ec9ded020B58e37C2184Ce48Ac5959",
      "gasPrice": {
        "_hex": "0xd9892701e"
      },
      "gasLimit": {
        "_hex": "0x15f90"
      },
      "to": null,
      "value": {
        "_hex": "0x0"
      },
      "nonce": 4,
      "data": "0x6060604052610169806100136000396000f30060606040526000357c0100000000000000000000000000000000000000000000000000000000900480632e6604481461003957610037565b005b61009b6004803590602001906004018035906020019191908080601f01602080910402602001604051908101604052809392919081815260200183838082843782019150505050505090803590602001803590602001803590602001506100c7565b604051808273ffffffffffffffffffffffffffffffffffffffff16815260200191505060405180910390f35b60006001600286604051808280519060200190808383829060006004602084601f0104600302600f01f1509050019150506020604051808303816000866161da5a03f11561000257505060405151858585604051808581526020018460ff1681526020018381526020018281526020019450505050506020604051808303816000866161da5a03f115610002575050604051519050610161565b94935050505056",
      "r": "0x27493eaf3a2713116dbe3fa10fcf3212c94e80968e0eb8289336f01059dd37c5",
      "s": "0x67ad7b187015d6f5ed6ab69341fabb71a7b1812fe9849ac87063171b35c084f7",
      "v": 28,
      "creates": "0x6B321fD0a57E6ce17C5663546Fe56535c9f39cb0",
      "raw": "0xf901cf04850d9892701e83015f908080b9017c6060604052610169806100136000396000f30060606040526000357c0100000000000000000000000000000000000000000000000000000000900480632e6604481461003957610037565b005b61009b6004803590602001906004018035906020019191908080601f01602080910402602001604051908101604052809392919081815260200183838082843782019150505050505090803590602001803590602001803590602001506100c7565b604051808273ffffffffffffffffffffffffffffffffffffffff16815260200191505060405180910390f35b60006001600286604051808280519060200190808383829060006004602084601f0104600302600f01f1509050019150506020604051808303816000866161da5a03f11561000257505060405151858585604051808581526020018460ff1681526020018381526020018281526020019450505050506020604051808303816000866161da5a03f115610002575050604051519050610161565b949350505050561ca027493eaf3a2713116dbe3fa10fcf3212c94e80968e0eb8289336f01059dd37c5a067ad7b187015d6f5ed6ab69341fabb71a7b1812fe9849ac87063171b35c084f7",
      "networkId": 0,
      "chainId": 0
    }
  ]
}