{
  "hash": "0xc400a082e671a176ffddc2296b1dca00da33e8c93da3b8768795e22fa5c2671b",
  "parentHash": "0x6cd0cd2e65e68164ce3c1ed6ac4fca977fce847c6a5fa2182ace62b253ea1b1e",
  "number": 107325,
  "timestamp": 1439920438,
  "nonce": "0x81cf296f6458572a",
  "difficulty": 4407236555208,
  "gasLimit": {
    "_hex": "0x2fefd8"
  },
  "gasUsed": {
    "_hex": "0x5208"
  },
  "miner": "0x937a4C6CFA806b2FA9796F482CDA67dB579dE173",
  "extraData": "0x476574682f76312e302e312d37666266393930632f6c696e75782f676f312e34",
  "transactions": [
    {
      "hash": "0xf4875f01488f658c82aaa8757c6abb278e8baccd0264398d7850e858fc7a7208",
      "blockHash": "0xc400a082e671a176ffddc2296b1dca00da33e8c93da3b8768795e22fa5c2671b",
      "blockNumber": 107325,
      "transactionIndex": 0,
      "confirmations": null,
      "from": "0xC8224326e29eD30AEEC1B70ec238A818169ecaBA",
      "gasPrice": {
        "_hex": "0xd7d40ace3"
      },
      "gasLimit": {
        "_hex": "0x15f90"
      },
      "to": "0x61F642543d22bAf5382908a714E675Cc0b51ea45",
      "value": {
        "_hex": "0x4563918244f40000"
      },
      "nonce": 12,
      "data": "0x",
      "r": "0x3cfccdea251d69b246a981fe9c7a130210ebfdf1b32ff0b72a0916a4f51f4752",
      "s": "0x6435d26afd34c7322b180ede4ac4cb18e405a55aa4fc726c15843e81850c6322",
      "v": 27,
      "creates": null,
      "raw": "0xf86d0c850d7d40ace383015f909461f642543d22baf5382908a714e675cc0b51ea45884563918244f40000801ba03cfccdea251d69b246a981fe9c7a130210ebfdf1b32ff0b72a0916a4f51f4752a06435d26afd34c7322b180ede4ac4cb18e405a55aa4fc726c15843e81850c6322",
      "networkId": 0,
      "chainId": 0
    }
  ]
}