{
  "hash": "0x51609fe80806a40fa4dd14ec930024f16e6ad032ff405748396ff14d946570bb",
  "parentHash": "0xdda96d381ba6cb2c45248134f4497a876673b69685fcf8d6a8a2e2352428fc61",
  "number": 94972,
  "timestamp": 1439716897,
  "nonce": "0x9b990d4d877565da",
  "difficulty": 3520652062328,
  "gasLimit": {
    "_hex": "0x2fefd8"
  },
  "gasUsed": {
    "_hex": "0xa410"
  },
  "miner": "0xe6A7a1d47ff21B6321162AEA7C6CB457D5476Bca",
  "extraData": "0x476574682f76312e302e312d38326566323666362f6c696e75782f676f312e34",
  "transactions": [
    {
      "hash": "0xb8e2fcac58b1e7163fa83083481025c972fc4a4d0d8840266b9c811f8c19d368",
      "blockHash": "0x51609fe80806a40fa4dd14ec930024f16e6ad032ff405748396ff14d946570bb",
      "blockNumber": 94972,
      "transactionIndex": 0,
      "confirmations": null,
      "from": "0xb1abce2918E21ddb93AA452731a12672A3d9F75a",
      "gasPrice": {
        "_hex": "0xcf91b7b1a"
      },
      "gasLimit": {
        "_hex": "0x5208"
      },
      "to": "0x32Be343B94f860124dC4fEe278FDCBD38C102D88",
      "value": {
        "_hex": "0x455f74f109821400"
      },
      "nonce": 29,
      "data": "0x",
      "r": "0x4e4d0f944b91bc06208cf6048459fb6a78956e5324008797c4a61618c06b8017",
      "s": "0x163e03af17767b881a3074ec7fff66499212ef867bd0acc9dc949b848a6b0f9e",
      "v": 28,
      "creates": null,
      "raw": "0xf86c1d850cf91b7b1a8252089432be343b94f860124dc4fee278fdcbd38c102d8888455f74f109821400801ca04e4d0f944b91bc06208cf6048459fb6a78956e5324008797c4a61618c06b8017a0163e03af17767b881a3074ec7fff66499212ef867bd0acc9dc949b848a6b0f9e",
      "networkId": 0,
      "chainId": 0
    },
    {
      "hash": "0x83f9389edc0fa88ed6c15b087da0e37e29c44d8f13210a5d497bbccd43b62ced",
      "blockHash": "0x51609fe80806a40fa4dd14ec930024f16e6ad032ff405748396ff14d946570bb",
      "blockNumber": 94972,
      "transactionIndex": 1,
      "confirmations": null,
      "from": "0x007f7f58D3eb5b7510A301eCC749FC1fCDDBE14D",
      "gasPrice": {
        "_hex": "0xcc8ddf695"
      },
      "gasLimit": {
        "_hex": "0x15f90"
      },
      "to": "0xb1abce2918E21ddb93AA452731a12672A3d9F75a",
      "value": {
        "_hex": "0x4563918244f40000"
      },
      "nonce": 49,
      "data": "0x",
      "r": "0x3c2402c9e556f1da3f9dbf0f754cd1661c45e7959fe57f40707a364c74321ae1",
      "s": "0x52207ffecd4ef276d7207ac59c93a0dd2e4feaa631715794472b445619f6a4f0",
      "v": 27,
      "creates": null,
      "raw": "0xf86d31850cc8ddf69583015f9094b1abce2918e21ddb93aa452731a12672a3d9f75a884563918244f40000801ba03c2402c9e556f1da3f9dbf0f754cd1661c45e7959fe57f40707a364c74321ae1a052207ffecd4ef276d7207ac59c93a0dd2e4feaa631715794472b445619f6a4f0",
      "networkId": 0,
      "chainId": 0
    }
  ]
}