{
  "hash": "0x35512f978e379e63691a5952f27bab82e446315c00515d4ae88566786e2e6ccc",
  "parentHash": "0x66ce7aba26ef3a3fb004ad822b2d0ea636a526759e153ea2936875e2d1328c8a",
  "number": 64097,
  "timestamp": 1439215146,
  "nonce": "0x841d49000d9cc880",
  "difficulty": 1864823849408,
  "gasLimit": {
    "_hex": "0x2fefd8"
  },
  "gasUsed": {
    "_hex": "0x5208"
  },
  "miner": "0xf927a40C8B7F6E07c5af7FA2155B4864a4112B13",
  "extraData": "0x476574682f76312e302e312f6c696e75782f676f312e342e32",
  "transactions": [
    {
      "hash": "0xc05b0aff1733a68591c8b3e018ea30d8530163e589d308cd306fa8081dfa275a",
      "blockHash": "0x35512f978e379e63691a5952f27bab82e446315c00515d4ae88566786e2e6ccc",
      "blockNumber": 64097,
      "transactionIndex": 0,
      "confirmations": null,
      "from": "0x2910543Af39abA0Cd09dBb2D50200b3E800A63D2",
      "gasPrice": {
        "_hex": "0xdd0b702ec"
      },
      "gasLimit": {
        "_hex": "0x5208"
      },
      "to": "0x55D1554b08a5311C5c0A0B6464162192f9D2f884",
      "value": {
        "_hex": "0xdcef33a6f838000"
      },
      "nonce": 137,
      "data": "0x",
      "r": "0x475fc671d57d54223a8dcf83b6502d00c8f7c0b356cf7b6c1e7ae519f5891d8c",
      "s": "0x765563929f9b3e8f6047a1d150171c4100ba63195d5dafef4f86cd7837bd7c90",
      "v": 27,
      "creates": null,
      "raw": "0xf86d8189850dd0b702ec8252089455d1554b08a5311c5c0a0b6464162192f9d2f884880dcef33a6f838000801ba0475fc671d57d54223a8dcf83b6502d00c8f7c0b356cf7b6c1e7ae519f5891d8ca0765563929f9b3e8f6047a1d150171c4100ba63195d5dafef4f86cd7837bd7c90",
      "networkId": 0,
      "chainId": 0
    }
  ]
}