{
  "hash": "0x57bfe2c7d867a23832b3ffcc4e1c448407536914c9dcf6b870feaab26141f65f",
  "parentHash": "0xf597ae7bf455980b4dc9479036b9ddd1142e19b0d7c6bfa3d51e0461b06e0dac",
  "number": 78045,
  "timestamp": 1439447231,
  "nonce": "0xaf73a2d211c3c4f7",
  "difficulty": 2287726593004,
  "gasLimit": {
    "_hex": "0x2fefd8"
  },
  "gasUsed": {
    "_hex": "0xa410"
  },
  "miner": "0xF2d2AfF1320476cb8C6b607199D23175cc595693",
  "extraData": "0x476574682f76312e302e312f77696e646f77732f676f312e342e32",
  "transactions": [
    {
      "hash": "0xaf568bf218bdd42ce474308b7e6b3683cab4276aa556376df7c20d18a99c6a6b",
      "blockHash": "0x57bfe2c7d867a23832b3ffcc4e1c448407536914c9dcf6b870feaab26141f65f",
      "blockNumber": 78045,
      "transactionIndex": 0,
      "confirmations": null,
      "from": "0x32Be343B94f860124dC4fEe278FDCBD38C102D88",
      "gasPrice": {
        "_hex": "0xe28c505c2"
      },
      "gasLimit": {
        "_hex": "0x5208"
      },
      "to": "0xC557b4a4380B69196d6CF08Bf42B8fC2d0AEf083",
      "value": {
        "_hex": "0x7db84cb7289f30000"
      },
      "nonce": 384,
      "data": "0x",
      "r": "0x1627de55d4d35a006f38601378df790d39c7ec952c5c9b2f27d2427d2602d764",
      "s": "0x1511e4305dfa807339881e2296b144841d9b2b3fcee4774dc3bcfa8ed9f0e2dc",
      "v": 28,
      "creates": null,
      "raw": "0xf86f820180850e28c505c282520894c557b4a4380b69196d6cf08bf42b8fc2d0aef0838907db84cb7289f30000801ca01627de55d4d35a006f38601378df790d39c7ec952c5c9b2f27d2427d2602d764a01511e4305dfa807339881e2296b144841d9b2b3fcee4774dc3bcfa8ed9f0e2dc",
      "networkId": 0,
      "chainId": 0
    },
    {
      "hash": "0x87c55af9a2804118102e9de2a0f7b748ed53acccc436fbe75841ccfdbd537585",
      "blockHash": "0x57bfe2c7d867a23832b3ffcc4e1c448407536914c9dcf6b870feaab26141f65f",
      "blockNumber": 78045,
      "transactionIndex": 1,
      "confirmations": null,
      "from": "0x32Be343B94f860124dC4fEe278FDCBD38C102D88",
      "gasPrice": {
        "_hex": "0xe28c505c2"
      },
      "gasLimit": {
        "_hex": "0x5208"
      },
      "to": "0x5170535271F5B9eC438c0447b3daD67b3E2633f2",
      "value": {
        "_hex": "0x53444835ec580000"
      },
      "nonce": 385,
      "data": "0x",
      "r": "0xff4880ef001bea41588502ac4fde0e9af2a06561542b4c3c525e33ef6f72fc10",
      "s": "0x30b3dabb34d2be6cd5ce94c19fdd7a5b025099d22ae05043ea6b57753aeb67c8",
      "v": 27,
      "creates": null,
      "raw": "0xf86e820181850e28c505c2825208945170535271f5b9ec438c0447b3dad67b3e2633f28853444835ec580000801ba0ff4880ef001bea41588502ac4fde0e9af2a06561542b4c3c525e33ef6f72fc10a030b3dabb34d2be6cd5ce94c19fdd7a5b025099d22ae05043ea6b57753aeb67c8",
      "networkId": 0,
      "chainId": 0
    }
  ]
}