{
  "hash": "0xa796ce6581153687311fcf7a96510aaec4cd8f99af95206c9a1ac756720858b8",
  "parentHash": "0xcdf78fb7b22d389adde42bbc078e6fed39590deba2568ed4c1eee37ab56adb33",
  "number": 101198,
  "timestamp": 1439818927,
  "nonce": "0x0c7d31518bad9d4b",
  "difficulty": 3852507904538,
  "gasLimit": {
    "_hex": "0x2fefd8"
  },
  "gasUsed": {
    "_hex": "0xa410"
  },
  "miner": "0xe6A7a1d47ff21B6321162AEA7C6CB457D5476Bca",
  "extraData": "0x476574682f76312e302e312d38326566323666362f6c696e75782f676f312e34",
  "transactions": [
    {
      "hash": "0xa2b8af3bc11c32ba7cf68154a9c528b3766c733755984dc53ea6ae4cd5d3f54a",
      "blockHash": "0xa796ce6581153687311fcf7a96510aaec4cd8f99af95206c9a1ac756720858b8",
      "blockNumber": 101198,
      "transactionIndex": 0,
      "confirmations": null,
      "from": "0x7884D470204862a0d1A21122F41ee77430396Ee5",
      "gasPrice": {
        "_hex": "0xd19ba863c"
      },
      "gasLimit": {
        "_hex": "0x15f90"
      },
      "to": "0x95227f88247580D7c3927bdAFE78E73a675Cdc76",
      "value": {
        "_hex": "0xae153d89fe8000"
      },
      "nonce": 83,
      "data": "0x",
      "r": "0x1d7a850df104afdef62a2abdebc0a6ba2d7e423c2414e7093674b41e5be79cdb",
      "s": "0x0b39f02c5dad52d5356a132cfeb9efefdf53544380e275b97b4ef5f06caf0f9d",
      "v": 28,
      "creates": null,
      "raw": "0xf86c53850d19ba863c83015f909495227f88247580d7c3927bdafe78e73a675cdc7687ae153d89fe8000801ca01d7a850df104afdef62a2abdebc0a6ba2d7e423c2414e7093674b41e5be79cdba00b39f02c5dad52d5356a132cfeb9efefdf53544380e275b97b4ef5f06caf0f9d",
      "networkId": 0,
      "chainId": 0
    },
    {
      "hash": "0x64e5b6f1b06add8c309c3402b0e397472f71e761aaea92c340f391b0950cd508",
      "blockHash": "0xa796ce6581153687311fcf7a96510aaec4cd8f99af95206c9a1ac756720858b8",
      "blockNumber": 101198,
      "transactionIndex": 1,
      "confirmations": null,
      "from": "0x647fe784fb1A8380972fB6eA08D6eEd74D1a5699",
      "gasPrice": {
        "_hex": "0xce78da0c3"
      },
      "gasLimit": {
        "_hex": "0x15f90"
      },
      "to": "0x8Ad679342135277c2db3e0e469CE16c34367Ad88",
      "value": {
        "_hex": "0x20f5b1eaad8d80000"
      },
      "nonce": 0,
      "data": "0x",
      "r": "0x7569ac40fcf5f44765a9764e19f83455e0cbb5df6eef4742d5c151cde69b396a",
      "s": "0x7eca49e52b1107a71c33e3a4219274077e8193f2560911c641a2ea8e8ee87b6f",
      "v": 28,
      "creates": null,
      "raw": "0xf86e80850ce78da0c383015f90948ad679342135277c2db3e0e469ce16c34367ad8889020f5b1eaad8d80000801ca07569ac40fcf5f44765a9764e19f83455e0cbb5df6eef4742d5c151cde69b396aa07eca49e52b1107a71c33e3a4219274077e8193f2560911c641a2ea8e8ee87b6f",
      "networkId": 0,
      "chainId": 0
    }
  ]
}