{
  "hash": "0xbf7deab434b7028ff889c42b4bbe66abd93f80f280465c1a415add9e85b8b911",
  "parentHash": "0x401114129e20089b4b3be3a3dd1a87def346c2b3df6db789945807921fc2e244",
  "number": 104795,
  "timestamp": 1439875825,
  "nonce": "0xe6c211b4be2b7b34",
  "difficulty": 4357204622748,
  "gasLimit": {
    "_hex": "0x2fefd8"
  },
  "gasUsed": {
    "_hex": "0x5208"
  },
  "miner": "0xe6A7a1d47ff21B6321162AEA7C6CB457D5476Bca",
  "extraData": "0x476574682f76312e302e312d38326566323666362f6c696e75782f676f312e34",
  "transactions": [
    {
      "hash": "0x25e463a26c49db8c62b4959e82b8e5bedada1a28c2b595bc86b2b43c3ed9415b",
      "blockHash": "0xbf7deab434b7028ff889c42b4bbe66abd93f80f280465c1a415add9e85b8b911",
      "blockNumber": 104795,
      "transactionIndex": 0,
      "confirmations": null,
      "from": "0x31191beEB5a3d7f5eBC5B193e98bd15ce10Eb249",
      "gasPrice": {
        "_hex": "0xd7c090c1e"
      },
      "gasLimit": {
        "_hex": "0x5208"
      },
      "to": "0x32Be343B94f860124dC4fEe278FDCBD38C102D88",
      "value": {
        "_hex": "0x43fbf9e24a4c8400"
      },
      "nonce": 0,
      "data": "0x",
      "r": "0x66a3fece85612893b3d45cf4b897a75133407789d67fdb6a32267a67c8d7a243",
      "s": "0x1ea5692f01f98a11c79e65138203d5e61075e085b2e5254201ffa532a918ab47",
      "v": 28,
      "creates": null,
      "raw": "0xf86c80850d7c090c1e8252089432be343b94f860124dc4fee278fdcbd38c102d888843fbf9e24a4c8400801ca066a3fece85612893b3d45cf4b897a75133407789d67fdb6a32267a67c8d7a243a01ea5692f01f98a11c79e65138203d5e61075e085b2e5254201ffa532a918ab47",
      "networkId": 0,
      "chainId": 0
    }
  ]
}