{
  "hash": "0x0b79ac8130eab03162a15c7634d050b885fdc879ace83367376dbd53e491b095",
  "parentHash": "0x01cfeabc7093b2f6957a732e8764021c540252551e14e2093017826fbbf00afd",
  "number": 109841,
  "timestamp": 1439963401,
  "nonce": "0x9a1f92895d6ea145",
  "difficulty": 4418841769697,
  "gasLimit": {
    "_hex": "0x2fefd8"
  },
  "gasUsed": {
    "_hex": "0x5208"
  },
  "miner": "0xf8E0CA3Ed80bd541b94BEdCf259e8CF2141A9523",
  "extraData": "0x476574682f76312e302e312f77696e646f77732f676f312e342e32",
  "transactions": [
    {
      "hash": "0x02a132f4f1bbfda5dd8e4bc5def5cb6d49c3c4fd9d198e9a8fb8c9663460d1d5",
      "blockHash": "0x0b79ac8130eab03162a15c7634d050b885fdc879ace83367376dbd53e491b095",
      "blockNumber": 109841,
      "transactionIndex": 0,
      "confirmations": null,
      "from": "0x65553f5e8FA2eDfCe37Aec51A90ed28777dDe402",
      "gasPrice": {
        "_hex": "0xccbfdd031"
      },
      "gasLimit": {
        "_hex": "0x5208"
      },
      "to": "0xFBb1b73C4f0BDa4f67dcA266ce6Ef42f520fBB98",
      "value": {
        "_hex": "0x14c44db71102d5c78"
      },
      "nonce": 3,
      "data": "0x",
      "r": "0x43bd602c35d20ed8c5334eb61f962f4252275f58ff73752e49afa08fd5cb8ba6",
      "s": "0x5b862f4b8b9866bd720e7b48f2c96b998a21b2ed2a5b863cfa41b5c6d15d050b",
      "v": 28,
      "creates": null,
      "raw": "0xf86d03850ccbfdd03182520894fbb1b73c4f0bda4f67dca266ce6ef42f520fbb9889014c44db71102d5c78801ca043bd602c35d20ed8c5334eb61f962f4252275f58ff73752e49afa08fd5cb8ba6a05b862f4b8b9866bd720e7b48f2c96b998a21b2ed2a5b863cfa41b5c6d15d050b",
      "networkId": 0,
      "chainId": 0
    }
  ]
}