{
  "hash": "0x6f36133507930ad289f763241be29aefd63f6a04f4f19c3595787e1074aba1fa",
  "parentHash": "0xd238bbc99aa1931d2ecc8dcb9f4d6181522bf879afa886fddd1624821b00b318",
  "number": 81150,
  "timestamp": 1439496991,
  "nonce": "0x88b3126493e0ac68",
  "difficulty": 2445092518177,
  "gasLimit": {
    "_hex": "0x2fefd8"
  },
  "gasUsed": {
    "_hex": "0x5208"
  },
  "miner": "0x46b92ea5c3E696bf123354DfCc564cbac1C90671",
  "extraData": "0x",
  "transactions": [
    {
      "hash": "0x0422931891059e3499ef6ac4726be9dca94abe68f5f54955b837259f1caa06f5",
      "blockHash": "0x6f36133507930ad289f763241be29aefd63f6a04f4f19c3595787e1074aba1fa",
      "blockNumber": 81150,
      "transactionIndex": 0,
      "confirmations": null,
      "from": "0x88Ce4e2cC64e58f322a784407c1E1eDe70ae7f60",
      "gasPrice": {
        "_hex": "0xd5f187ace"
      },
      "gasLimit": {
        "_hex": "0x5208"
      },
      "to": "0x32Be343B94f860124dC4fEe278FDCBD38C102D88",
      "value": {
        "_hex": "0x6c5dae5bf758200000"
      },
      "nonce": 1,
      "data": "0x",
      "r": "0xaf7d91802f917bd30de1a4ba6a5b4b242611791554e426c6e6d8c7c4a695e2d0",
      "s": "0x07c2c00d054fb481f4b6e09f7a85cdf1597284d1a0440e9b16a63c5f68667764",
      "v": 28,
      "creates": null,
      "raw": "0xf86d01850d5f187ace8252089432be343b94f860124dc4fee278fdcbd38c102d88896c5dae5bf758200000801ca0af7d91802f917bd30de1a4ba6a5b4b242611791554e426c6e6d8c7c4a695e2d0a007c2c00d054fb481f4b6e09f7a85cdf1597284d1a0440e9b16a63c5f68667764",
      "networkId": 0,
      "chainId": 0
    }
  ]
}