{
  "hash": "0xd8e9f63ae641177fbca1aea8519901418972f524c9c337848c8714a9d5471a8a",
  "parentHash": "0xe02a436828479c2c0d6c333046dc445611b101d61d80508c47d206b967a10b59",
  "number": 78762,
  "timestamp": 1439458938,
  "nonce": "0x617b10c665bafc62",
  "difficulty": 2302097707461,
  "gasLimit": {
    "_hex": "0x2fefd8"
  },
  "gasUsed": {
    "_hex": "0x5208"
  },
  "miner": "0xe090Ffdced499691fA9379752a59F8A058c1eE4A",
  "extraData": "0x476574682f76312e302e312f6c696e75782f676f312e342e32",
  "transactions": [
    {
      "hash": "0xa2e878a861ca377bfa59209835f17b275a4f954ceeddc31d98ba46ca5109b4de",
      "blockHash": "0xd8e9f63ae641177fbca1aea8519901418972f524c9c337848c8714a9d5471a8a",
      "blockNumber": 78762,
      "transactionIndex": 0,
      "confirmations": null,
      "from": "0xe22B20c77894463Baf774CC256D5bDDbbF7DDd09",
      "gasPrice": {
        "_hex": "0xd3d147c0f"
      },
      "gasLimit": {
        "_hex": "0x55f0"
      },
      "to": "0x11564bd7b93E5e2Fb8a57c3E67A6272Ba43b8385",
      "value": {
        "_hex": "0xde0b6b3a7640000"
      },
      "nonce": 4,
      "data": "0x",
      "r": "0x0642f1ffc77bb23affce2039a9841191fd339ebdfaa4f56a42877c34340fed5b",
      "s": "0x50d8a13836a0919114a290cd6087bcdd73d427cfeeec9a4e097f1ec3b30a668f",
      "v": 27,
      "creates": null,
      "raw": "0xf86c04850d3d147c0f8255f09411564bd7b93e5e2fb8a57c3e67a6272ba43b8385880de0b6b3a7640000801ba00642f1ffc77bb23affce2039a9841191fd339ebdfaa4f56a42877c34340fed5ba050d8a13836a0919114a290cd6087bcdd73d427cfeeec9a4e097f1ec3b30a668f",
      "networkId": 0,
      "chainId": 0
    }
  ]
}