{
  "hash": "0xf32ea56e027f8bdb571bedec9f07ed5e85517a3953c8546232f0a63473c9eac9",
  "parentHash": "0x6251c90f0babd73bb72e2ee2f794cbbe1dbcaa3d737328aff67d88d646fd0b0b",
  "number": 115160,
  "timestamp": 1440052629,
  "nonce": "0x8320a0489641efee",
  "difficulty": 4527391247843,
  "gasLimit": {
    "_hex": "0x2fefd8"
  },
  "gasUsed": {
    "_hex": "0x5208"
  },
  "miner": "0x52bc44d5378309EE2abF1539BF71dE1b7d7bE3b5",
  "extraData": "0x476574682f76312e302e312d61383839306436312f6c696e75782f676f312e34",
  "transactions": [
    {
      "hash": "0xaa995b936375641f88e859069c46abb42c1f796f0ed045cc7164df54157e3f97",
      "blockHash": "0xf32ea56e027f8bdb571bedec9f07ed5e85517a3953c8546232f0a63473c9eac9",
      "blockNumber": 115160,
      "transactionIndex": 0,
      "confirmations": null,
      "from": "0x08FE5A3C0709cF74d76cFd0e0Cd9d2A447eA263C",
      "gasPrice": {
        "_hex": "0xd1fa74e8e"
      },
      "gasLimit": {
        "_hex": "0x5208"
      },
      "to": "0x32Be343B94f860124dC4fEe278FDCBD38C102D88",
      "value": {
        "_hex": "0xddc77effd4d5400"
      },
      "nonce": 8,
      "data": "0x",
      "r": "0x4dbfdc250a7966989badd3bd3330c81b49b08b1b822c43a0744f7da4153a3354",
      "s": "0x3b22d7f68aaf74046e011d4623b6e34e7a3516d192b528035d1f9b8a459ef267",
      "v": 28,
      "creates": null,
      "raw": "0xf86c08850d1fa74e8e8252089432be343b94f860124dc4fee278fdcbd38c102d88880ddc77effd4d5400801ca04dbfdc250a7966989badd3bd3330c81b49b08b1b822c43a0744f7da4153a3354a03b22d7f68aaf74046e011d4623b6e34e7a3516d192b528035d1f9b8a459ef267",
      "networkId": 0,
      "chainId": 0
    }
  ]
}