{
  "hash": "0x07074230d086d53a3e1e0dafb0bade3634698e18c5e82b367ec6ec2510a2a484",
  "parentHash": "0x3b5934f2779045d97c70b3e29875be02f430e87b7d91bfc74298a575f3439511",
  "number": 106903,
  "timestamp": 1439912582,
  "nonce": "0x88607d280e64d5df",
  "difficulty": 4455059231058,
  "gasLimit": {
    "_hex": "0x2fefd8"
  },
  "gasUsed": {
    "_hex": "0x5208"
  },
  "miner": "0xe6A7a1d47ff21B6321162AEA7C6CB457D5476Bca",
  "extraData": "0x476574682f76312e302e312d38326566323666362f6c696e75782f676f312e34",
  "transactions": [
    {
      "hash": "0x64d041e2d482086e97c206e4453ea1109e11f145b257740ccc22d34a18094aa5",
      "blockHash": "0x07074230d086d53a3e1e0dafb0bade3634698e18c5e82b367ec6ec2510a2a484",
      "blockNumber": 106903,
      "transactionIndex": 0,
      "confirmations": null,
      "from": "0xD3A57C79fde37eD4Ed9991638f3C0a59413a3C0F",
      "gasPrice": {
        "_hex": "0xd99ac0e3e"
      },
      "gasLimit": {
        "_hex": "0x5208"
      },
      "to": "0x32Be343B94f860124dC4fEe278FDCBD38C102D88",
      "value": {
        "_hex": "0x455f40c833215800"
      },
      "nonce": 3,
      "data": "0x",
      "r": "0x961ed02f0d9fb1c4150e1175941c6eb0ecd5a8c1e16b80c00220d3d7096466dd",
      "s": "0x740c7b21184a5b2484917507a3962f3cb39dd095ae1292ad99e0b127dbefdbda",
      "v": 28,
      "creates": null,
      "raw": "0xf86c03850d99ac0e3e8252089432be343b94f860124dc4fee278fdcbd38c102d8888455f40c833215800801ca0961ed02f0d9fb1c4150e1175941c6eb0ecd5a8c1e16b80c00220d3d7096466dda0740c7b21184a5b2484917507a3962f3cb39dd095ae1292ad99e0b127dbefdbda",
      "networkId": 0,
      "chainId": 0
    }
  ]
}