{
  "hash": "0xcbb647390fedb84ccf5e03176ed916cfa0c5a6c3503a0ffb1fa73e968dd07782",
  "parentHash": "0x3aa1b2962997d3641e2c6f51a6521c1c31fe17a2a7442448fa2f54aecb3ae032",
  "number": 101758,
  "timestamp": 1439827648,
  "nonce": "0x5fe72ab8619a1263",
  "difficulty": 3882464309783,
  "gasLimit": {
    "_hex": "0x2fefd8"
  },
  "gasUsed": {
    "_hex": "0x2b3d6"
  },
  "miner": "0x007f7f58D3eb5b7510A301eCC749FC1fCDDBE14D",
  "extraData": "0x476574682f76312e302e312f77696e646f77732f676f312e342e32",
  "transactions": [
    {
      "hash": "0xbd48fdceac7a0e675c18a5062f1a02b6c367ad955159dcd33aa2460c29e9e378",
      "blockHash": "0xcbb647390fedb84ccf5e03176ed916cfa0c5a6c3503a0ffb1fa73e968dd07782",
      "blockNumber": 101758,
      "transactionIndex": 0,
      "confirmations": null,
      "from": "0x387D649ec193BBbADad77eAF0A42e0eA8c87448c",
      "gasPrice": {
        "_hex": "0x9184e72a000"
      },
      "gasLimit": {
        "_hex": "0x5b04"
      },
      "to": "0x49CBa71F6140CADB21A7B99721cd5ce6C8A3DAe2",
      "value": {
        "_hex": "0x15af1d78b58c40000"
      },
      "nonce": 3,
      "data": "0x",
      "r": "0x1362521031eaba12fc8714b054257c16a5c438954ffd77e60bf7860c1ea9053c",
      "s": "0x155b01e9f0ea251d1d085f4eb5f2674b6b2770253953bd3dddaa766a9ac8aa11",
      "v": 27,
      "creates": null,
      "raw": "0xf86e038609184e72a000825b049449cba71f6140cadb21a7b99721cd5ce6c8a3dae289015af1d78b58c40000801ba01362521031eaba12fc8714b054257c16a5c438954ffd77e60bf7860c1ea9053ca0155b01e9f0ea251d1d085f4eb5f2674b6b2770253953bd3dddaa766a9ac8aa11",
      "networkId": 0,
      "chainId": 0
    },
    {
      "hash": "0x04e984f7aee1c26c736457f07d88b164e89603029f873540c2eff17bffcffa2d",
      "blockHash": "0xcbb647390fedb84ccf5e03176ed916cfa0c5a6c3503a0ffb1fa73e968dd07782",
      "blockNumber": 101758,
      "transactionIndex": 1,
      "confirmations": null,
      "from": "0x073f70b5bfAde6409E4951EF72BC8F4157677729",
      "gasPrice": {
        "_hex": "0xd8941f046"
      },
      "gasLimit": {
        "_hex": "0x249f0"
      },
      "to": "0xE28e72FCf78647ADCe1F1252F240bbfaebD63BcC",
      "value": {
        "_hex": "0x4563918244f40000"
      },
      "nonce": 27,
      "data": "0x45466f3a",
      "r": "0xff8b1bc7602fa4fd2619ae8d5b90d39b808ba411873c4a25f48e0b504eb816bd",
      "s": "0x08c54ae02dc53bd2ee081f3900b8a778fe15abe0510278b1d32a01f8449787ae",
      "v": 28,
      "creates": null,
      "raw": "0xf8711b850d8941f046830249f094e28e72fcf78647adce1f1252f240bbfaebd63bcc884563918244f400008445466f3a1ca0ff8b1bc7602fa4fd2619ae8d5b90d39b808ba411873c4a25f48e0b504eb816bda008c54ae02dc53bd2ee081f3900b8a778fe15abe0510278b1d32a01f8449787ae",
      "networkId": 0,
      "chainId": 0
    },
    {
      "hash": "0x403efcff52304827a6ea03d749bc2a69350381d71a77b1033fb1d486216902eb",
      "blockHash": "0xcbb647390fedb84ccf5e03176ed916cfa0c5a6c3503a0ffb1fa73e968dd07782",
      "blockNumber": 101758,
      "transactionIndex": 2,
      "confirmations": null,
      "from": "0x2095d52287e5272d654D7dD782CCb862AFF4d37c",
      "gasPrice": {
        "_hex": "0xd7eac73c7"
      },
      "gasLimit": {
        "_hex": "0x5208"
      },
      "to": "0xD5eC7fec1F39ba7E58cDe6Abed1Dd4E530DAEF6e",
      "value": {
        "_hex": "0xc249fdd327780000"
      },
      "nonce": 1,
      "data": "0x",
      "r": "0x17d30a32d62dac6064269e072f6e80c71dc8a8e97bd9e11ffa08e3c38a791471",
      "s": "0x1fa0110f6ffa43e2d21b3a35422e6f4e80024399f7383584f35d9414b85e7e28",
      "v": 28,
      "creates": null,
      "raw": "0xf86c01850d7eac73c782520894d5ec7fec1f39ba7e58cde6abed1dd4e530daef6e88c249fdd327780000801ca017d30a32d62dac6064269e072f6e80c71dc8a8e97bd9e11ffa08e3c38a791471a01fa0110f6ffa43e2d21b3a35422e6f4e80024399f7383584f35d9414b85e7e28",
      "networkId": 0,
      "chainId": 0
    },
    {
      "hash": "0x6d4dbdfde59a5734cb2056b43ef347e0a2c6c9e1edd0c71d927b124a3f1dce21",
      "blockHash": "0xcbb647390fedb84ccf5e03176ed916cfa0c5a6c3503a0ffb1fa73e968dd07782",
      "blockNumber": 101758,
      "transactionIndex": 3,
      "confirmations": null,
      "from": "0xD9666150A9dA92d9108198a4072970805a8B3428",
      "gasPrice": {
        "_hex": "0xd19c24b41"
      },
      "gasLimit": {
        "_hex": "0x5208"
      },
      "to": "0x32Be343B94f860124dC4fEe278FDCBD38C102D88",
      "value": {
        "_hex": "0x455f5ed994afc000"
      },
      "nonce": 51,
      "data": "0x",
      "r": "0x55d3d0546442472281bb057844e25e1fe0ef14836d1f5a3a97c6b40504ad6a7f",
      "s": "0x11192d19ef3b9379493284ec7838b58d2ea38f456ffd36103fb577ad9235caef",
      "v": 27,
      "creates": null,
      "raw": "0xf86c33850d19c24b418252089432be343b94f860124dc4fee278fdcbd38c102d8888455f5ed994afc000801ba055d3d0546442472281bb057844e25e1fe0ef14836d1f5a3a97c6b40504ad6a7fa011192d19ef3b9379493284ec7838b58d2ea38f456ffd36103fb577ad9235caef",
      "networkId": 0,
      "chainId": 0
    }
  ]
}