{
  "hash": "0x2804f2114496690d2022d273f512b15f3590891481266aca56bb4fa8f1bab5f1",
  "parentHash": "0xa02b37a53cc230341730c314b253fa415ecdf11b52d9a47a53d6bfa413c8e8cd",
  "number": 46540,
  "timestamp": 1438924791,
  "nonce": "0x5219053e98b3d384",
  "difficulty": 1466067660089,
  "gasLimit": {
    "_hex": "0x6715"
  },
  "gasUsed": {
    "_hex": "0x5208"
  },
  "miner": "0xab84940B570d6358ed6A9Dbf7e0bc8Ec8F5A6E89",
  "extraData": "0x322831652933",
  "transactions": [
    {
      "hash": "0x674d28932a8540fc43b9364625085420ace66fde6f0ba26a2a64c82c0ad7e8b8",
      "blockHash": "0x2804f2114496690d2022d273f512b15f3590891481266aca56bb4fa8f1bab5f1",
      "blockNumber": 46540,
      "transactionIndex": 0,
      "confirmations": null,
      "from": "0x4EA56E1112641c038d0565A9c296c463AFeFc17E",
      "gasPrice": {
        "_hex": "0x746a528800"
      },
      "gasLimit": {
        "_hex": "0x5208"
      },
      "to": "0xb583f9403De6C5B2c83D7e2DE9928331176071b8",
      "value": {
        "_hex": "0xde0b6b3a7640000"
      },
      "nonce": 0,
      "data": "0x",
      "r": "0xd9dc28fd252401a725c31c7aa228a779ec5ae71e0f2b7cbbd0f17e342b5bdd6f",
      "s": "0x414b9aa65b1d18b7ed03d8af7c7a14564ab7869e881e1b75074b345a044e0b74",
      "v": 27,
      "creates": null,
      "raw": "0xf86c8085746a52880082520894b583f9403de6c5b2c83d7e2de9928331176071b8880de0b6b3a7640000801ba0d9dc28fd252401a725c31c7aa228a779ec5ae71e0f2b7cbbd0f17e342b5bdd6fa0414b9aa65b1d18b7ed03d8af7c7a14564ab7869e881e1b75074b345a044e0b74",
      "networkId": 0,
      "chainId": 0
    }
  ]
}