{
  "hash": "0x6db900f1f662447c56d3ab7a2a31abd1255fb3083a24d3c5c829de84dadc0bb9",
  "parentHash": "0x9dfce1f3afc8de5ddece9c28ef48b4c950988b4e48b8c37462bc289db8921fb6",
  "number": 51570,
  "timestamp": 1439007213,
  "nonce": "0x05a7f60c694cff5e",
  "difficulty": 1558163017941,
  "gasLimit": {
    "_hex": "0xc0725"
  },
  "gasUsed": {
    "_hex": "0x5208"
  },
  "miner": "0xa50ec0D39fa913E62f1Bae7074E6F36caA71855b",
  "extraData": "0x",
  "transactions": [
    {
      "hash": "0xb8781802b967690ed8ec1d0d6d7859297993f47d503b7e4c4988982c40ea52cd",
      "blockHash": "0x6db900f1f662447c56d3ab7a2a31abd1255fb3083a24d3c5c829de84dadc0bb9",
      "blockNumber": 51570,
      "transactionIndex": 0,
      "confirmations": null,
      "from": "0xCA092A957744f6385B1aee5dC694143E8A06F805",
      "gasPrice": {
        "_hex": "0xdc42141f8"
      },
      "gasLimit": {
        "_hex": "0x15f90"
      },
      "to": "0xF17758f9fae54F68A1e04Cb1F03563Ad7b5658eB",
      "value": {
        "_hex": "0x49e57d6354000"
      },
      "nonce": 2,
      "data": "0x",
      "r": "0x88ea5bb7474d5a66d6a34d5b5db362276c2c5b200f2527e28f6234d2d7c549b4",
      "s": "0x541bec1476a40915334e7758b13efa5afa6833d4701cc5c043df987b3a20b6c9",
      "v": 27,
      "creates": null,
      "raw": "0xf86c02850dc42141f883015f9094f17758f9fae54f68a1e04cb1f03563ad7b5658eb87049e57d6354000801ba088ea5bb7474d5a66d6a34d5b5db362276c2c5b200f2527e28f6234d2d7c549b4a0541bec1476a40915334e7758b13efa5afa6833d4701cc5c043df987b3a20b6c9",
      "networkId": 0,
      "chainId": 0
    }
  ]
}