{
  "hash": "0x3f4a4935a22197c25b948f8cec879eb2f58ce1d855562280c9c9e42702c4c9bf",
  "parentHash": "0xe64e0c6772ffb9ae831da1f8674eafa89b0531253282872a289e7c5334978e22",
  "number": 108211,
  "timestamp": 1439936429,
  "nonce": "0x75f5e6e084314b84",
  "difficulty": 4359686075670,
  "gasLimit": {
    "_hex": "0x2fefd8"
  },
  "gasUsed": {
    "_hex": "0x5208"
  },
  "miner": "0x5F8F73E26CdF436f19Cb24C82F90A15AFe55b592",
  "extraData": "0x476574682f76312e302e312f77696e646f77732f676f312e342e32",
  "transactions": [
    {
      "hash": "0xcf6eadab78ba1928a45cc971c362f548207ab9b0381f58ad2fd695602026e798",
      "blockHash": "0x3f4a4935a22197c25b948f8cec879eb2f58ce1d855562280c9c9e42702c4c9bf",
      "blockNumber": 108211,
      "transactionIndex": 0,
      "confirmations": null,
      "from": "0x32Be343B94f860124dC4fEe278FDCBD38C102D88",
      "gasPrice": {
        "_hex": "0xd91cccec6"
      },
      "gasLimit": {
        "_hex": "0x5208"
      },
      "to": "0xD6c366314e886bb2606cE9E7F29775a67dB0e2a4",
      "value": {
        "_hex": "0xdbd2fc137a30000"
      },
      "nonce": 1248,
      "data": "0x",
      "r": "0x10ffc78a48d191c913e521eeb36b6291cf98605bd2fa9a28830021369a9d8f9c",
      "s": "0x48e378672891a1b1510913b0d8bb7189406d58c798b4e6aa30fee608726e81d2",
      "v": 28,
      "creates": null,
      "raw": "0xf86e8204e0850d91cccec682520894d6c366314e886bb2606ce9e7f29775a67db0e2a4880dbd2fc137a30000801ca010ffc78a48d191c913e521eeb36b6291cf98605bd2fa9a28830021369a9d8f9ca048e378672891a1b1510913b0d8bb7189406d58c798b4e6aa30fee608726e81d2",
      "networkId": 0,
      "chainId": 0
    }
  ]
}