{
  "hash": "0x178b5ee889751b711bf9287ee82c2ee0988f4ee0c052f0fa7bf64f939a0022d8",
  "parentHash": "0x6fb1e71ac045d530e2f45ceb706b2762bc383d28e883920d1c9a2bd1b60c4dda",
  "number": 92874,
  "timestamp": 1439678507,
  "nonce": "0xaf5e8f90ee9f53b2",
  "difficulty": 3651102343505,
  "gasLimit": {
    "_hex": "0x2fefd8"
  },
  "gasUsed": {
    "_hex": "0x5208"
  },
  "miner": "0x7A89f3D28A18aB767D538bAf88738C195795C4ce",
  "extraData": "0x",
  "transactions": [
    {
      "hash": "0x1ca41f4e2cad858304b961ef5911ad1ae17a642b2389934e45daf623637ace7f",
      "blockHash": "0x178b5ee889751b711bf9287ee82c2ee0988f4ee0c052f0fa7bf64f939a0022d8",
      "blockNumber": 92874,
      "transactionIndex": 0,
      "confirmations": null,
      "from": "0x2910543Af39abA0Cd09dBb2D50200b3E800A63D2",
      "gasPrice": {
        "_hex": "0xd94cb2c44"
      },
      "gasLimit": {
        "_hex": "0x5208"
      },
      "to": "0x083086B57Dda7C54C143B1953Ab30017C547B42B",
      "value": {
        "_hex": "0xbed0b3eeaa20f8000"
      },
      "nonce": 836,
      "data": "0x",
      "r": "0xbd9dd2e942211535c0a505bcc3d13ef03261cc6084687aac76c906dd8b1f5989",
      "s": "0x375fd591ea35029476fa9cb7445d5837a1e389f3f8e8b8cf9e1dc80b8cae8e2e",
      "v": 27,
      "creates": null,
      "raw": "0xf86f820344850d94cb2c4482520894083086b57dda7c54c143b1953ab30017c547b42b890bed0b3eeaa20f8000801ba0bd9dd2e942211535c0a505bcc3d13ef03261cc6084687aac76c906dd8b1f5989a0375fd591ea35029476fa9cb7445d5837a1e389f3f8e8b8cf9e1dc80b8cae8e2e",
      "networkId": 0,
      "chainId": 0
    }
  ]
}