{
  "hash": "0x6c9bbf14e84a57d4b650ca443c48d65f8a2ea1d12e6abda63e101982d7ee7abc",
  "parentHash": "0x619cfa4cd6ee3dff29e3ad14bf377c834a07b960f6f0a5348cbf0883096449ee",
  "number": 66986,
  "timestamp": 1439263751,
  "nonce": "0xb915729739777b3a",
  "difficulty": 1948881853192,
  "gasLimit": {
    "_hex": "0x2fefd8"
  },
  "gasUsed": {
    "_hex": "0x5208"
  },
  "miner": "0x39A1BB80a741bF5EC39FB9BE59408Fa0F418fFBf",
  "extraData": "0x476574682f76312e302e312f77696e646f77732f676f312e342e32",
  "transactions": [
    {
      "hash": "0xace10d8a960f6fde6c3c7644fc14bc4165a531d5ad324ef6a5cdb00fd3cdfbe3",
      "blockHash": "0x6c9bbf14e84a57d4b650ca443c48d65f8a2ea1d12e6abda63e101982d7ee7abc",
      "blockNumber": 66986,
      "transactionIndex": 0,
      "confirmations": null,
      "from": "0x120A270bbC009644e35F0bB6ab13f95b8199c4ad",
      "gasPrice": {
        "_hex": "0xdb45d69af"
      },
      "gasLimit": {
        "_hex": "0x15f90"
      },
      "to": "0x2eeB837eCD88894cb1bF3Ef48F078D0575AAfc5a",
      "value": {
        "_hex": "0x58d15e176280000"
      },
      "nonce": 151,
      "data": "0x",
      "r": "0x6b9f0fcaaadb43cd02b20af566e3e531e5e94e260191b61d074df6d53f31adbf",
      "s": "0x150952cb8c3eeeebe0e32ce2fe1310aef82ecb62b4a747f3244a75792a06bff1",
      "v": 28,
      "creates": null,
      "raw": "0xf86e8197850db45d69af83015f90942eeb837ecd88894cb1bf3ef48f078d0575aafc5a88058d15e176280000801ca06b9f0fcaaadb43cd02b20af566e3e531e5e94e260191b61d074df6d53f31adbfa0150952cb8c3eeeebe0e32ce2fe1310aef82ecb62b4a747f3244a75792a06bff1",
      "networkId": 0,
      "chainId": 0
    }
  ]
}