{
  "hash": "0xf44d75a4c82bd1830c07e378b6f68e95680b916d1a822cd04ec74a8236f0e087",
  "parentHash": "0x5e3e3fe1e0ada663782cd27d9c60f8b2f5768bd5ccba4859bbbf5127664428aa",
  "number": 85169,
  "timestamp": 1439559480,
  "nonce": "0xc26b40df7cbfa530",
  "difficulty": 2743752544346,
  "gasLimit": {
    "_hex": "0x2fefd8"
  },
  "gasUsed": {
    "_hex": "0x5208"
  },
  "miner": "0xe6A7a1d47ff21B6321162AEA7C6CB457D5476Bca",
  "extraData": "0x476574682f76312e302e312d38326566323666362f6c696e75782f676f312e34",
  "transactions": [
    {
      "hash": "0x7b35fec20ccd4bc86fec2db6f2e53bb71969c1745829b00a248cca694a7357e4",
      "blockHash": "0xf44d75a4c82bd1830c07e378b6f68e95680b916d1a822cd04ec74a8236f0e087",
      "blockNumber": 85169,
      "transactionIndex": 0,
      "confirmations": null,
      "from": "0xad7210d76107F888745616FFF7979623b84F928c",
      "gasPrice": {
        "_hex": "0xd8364fc25"
      },
      "gasLimit": {
        "_hex": "0x61a8"
      },
      "to": "0xF109ca710C0Df51c1a86dBA1B0BA0Ed038114463",
      "value": {
        "_hex": "0x81103cb9fb220000"
      },
      "nonce": 8,
      "data": "0x",
      "r": "0x6a61006436ba3d71fedaaa3433c3a93d55697bc6524b8f4979f09339f7a01f89",
      "s": "0x6f2c4a47436f75ae12f9efd746035683b794eee9641365acded3ab1dababac3a",
      "v": 28,
      "creates": null,
      "raw": "0xf86c08850d8364fc258261a894f109ca710c0df51c1a86dba1b0ba0ed0381144638881103cb9fb220000801ca06a61006436ba3d71fedaaa3433c3a93d55697bc6524b8f4979f09339f7a01f89a06f2c4a47436f75ae12f9efd746035683b794eee9641365acded3ab1dababac3a",
      "networkId": 0,
      "chainId": 0
    }
  ]
}