{
  "hash": "0x1497817aa85bb89112fcf792811d37a18313be9a9966652019b24c56805ea957",
  "parentHash": "0xabbb9a1ac657f9ccecc49ec9d669454a20a84211f0d34ea46cd43f326c735e15",
  "number": 48190,
  "timestamp": 1438953113,
  "nonce": "0x6d66b7cae044143e",
  "difficulty": 1458639638645,
  "gasLimit": {
    "_hex": "0x13766"
  },
  "gasUsed": {
    "_hex": "0x546c"
  },
  "miner": "0x322df8Fd261820C36234f806b15F51A2203a8F88",
  "extraData": "0x47686574746f20496e632e",
  "transactions": [
    {
      "hash": "0xc8b4ce7f7fa988c4e1d0bd294ae5bdc98613b6849795eb3ddbed012346c1f5fe",
      "blockHash": "0x1497817aa85bb89112fcf792811d37a18313be9a9966652019b24c56805ea957",
      "blockNumber": 48190,
      "transactionIndex": 0,
      "confirmations": null,
      "from": "0x91DBB6AaAD149585BE47375c5d6de5Ff09191518",
      "gasPrice": {
        "_hex": "0xdf8475800"
      },
      "gasLimit": {
        "_hex": "0xc738"
      },
      "to": "0x2910543Af39abA0Cd09dBb2D50200b3E800A63D2",
      "value": {
        "_hex": "0xde0b6b3a7640000"
      },
      "nonce": 4,
      "data": "0x454e44475843353152",
      "r": "0x8fccb74c3e9ae665a2e254bc2d8d61170b2b3faf9c20e454f4fad751643c5b35",
      "s": "0x16b7c57fb530f9d30aed3853c4d960fe708964c672fa13548be5746fab0ce409",
      "v": 27,
      "creates": null,
      "raw": "0xf87504850df847580082c738942910543af39aba0cd09dbb2d50200b3e800a63d2880de0b6b3a764000089454e444758433531521ba08fccb74c3e9ae665a2e254bc2d8d61170b2b3faf9c20e454f4fad751643c5b35a016b7c57fb530f9d30aed3853c4d960fe708964c672fa13548be5746fab0ce409",
      "networkId": 0,
      "chainId": 0
    }
  ]
}