{
  "hash": "0xb874cb21f470c28a740f0c8bde84e2b5f2e6785ece8860fc7cfdb20c92bf5882",
  "parentHash": "0xeb847fee1491d6161ed8405e13099895419b9b022100ecafbc8211418cb79216",
  "number": 62098,
  "timestamp": 1439183331,
  "nonce": "0x0327acf7d9638c2d",
  "difficulty": 1756540586328,
  "gasLimit": {
    "_hex": "0x2fefd8"
  },
  "gasUsed": {
    "_hex": "0x546c"
  },
  "miner": "0x55bAf64fc9eAccFFd7Cc643BB61142E1C6ac093e",
  "extraData": "0x",
  "transactions": [
    {
      "hash": "0xf9d23ba3288a0da3c186d8a6166705b2fba1778a502d17e12a767bede712a0d8",
      "blockHash": "0xb874cb21f470c28a740f0c8bde84e2b5f2e6785ece8860fc7cfdb20c92bf5882",
      "blockNumber": 62098,
      "transactionIndex": 0,
      "confirmations": null,
      "from": "0xF9B617f752edECAE3e909fBB911d2f8192f84209",
      "gasPrice": {
        "_hex": "0x10a4027333d"
      },
      "gasLimit": {
        "_hex": "0x55f0"
      },
      "to": "0x2910543Af39abA0Cd09dBb2D50200b3E800A63D2",
      "value": {
        "_hex": "0x1b1ae4d6e2ef500000"
      },
      "nonce": 5,
      "data": "0x454e37304641354e38",
      "r": "0xa22a29400fa32d94d01089c4e2f291cca14ade3a53fa096b433bc4079a1388cc",
      "s": "0x2d97b6d845f830867c3c2cff26c5f4ac80298b01ca4d037993305900249bf76c",
      "v": 28,
      "creates": null,
      "raw": "0xf8770586010a4027333d8255f0942910543af39aba0cd09dbb2d50200b3e800a63d2891b1ae4d6e2ef50000089454e37304641354e381ca0a22a29400fa32d94d01089c4e2f291cca14ade3a53fa096b433bc4079a1388cca02d97b6d845f830867c3c2cff26c5f4ac80298b01ca4d037993305900249bf76c",
      "networkId": 0,
      "chainId": 0
    }
  ]
}