{
  "hash": "0x6258d216e2269d20bd6c2a63639e659c1fe9a0682dd9e419811669f424999b17",
  "parentHash": "0xc0d699025d5e69a7b032a51fcefad7441ac579a9966d4c48529decf8b0e5edf3",
  "number": 121060,
  "timestamp": 1440170664,
  "nonce": "0xe93144a2439c203c",
  "difficulty": 4423722852790,
  "gasLimit": {
    "_hex": "0x2fefd8"
  },
  "gasUsed": {
    "_hex": "0x5208"
  },
  "miner": "0xe6A7a1d47ff21B6321162AEA7C6CB457D5476Bca",
  "extraData": "0xd783010002844765746887676f312e342e32856c696e7578",
  "transactions": [
    {
      "hash": "0x406d1e9ee71bc81ca4ef1af2c6c4b7da56448cb972eb69d06a97201af18cfac9",
      "blockHash": "0x6258d216e2269d20bd6c2a63639e659c1fe9a0682dd9e419811669f424999b17",
      "blockNumber": 121060,
      "transactionIndex": 0,
      "confirmations": null,
      "from": "0x50087E7383C8865C1C136b8777C4350B8ed472CE",
      "gasPrice": {
        "_hex": "0xba43b7400"
      },
      "gasLimit": {
        "_hex": "0x15f90"
      },
      "to": "0x647fe784fb1A8380972fB6eA08D6eEd74D1a5699",
      "value": {
        "_hex": "0x19274b259f6540000"
      },
      "nonce": 9,
      "data": "0x",
      "r": "0x9944b4069b212b31fdac56c6ee8e571543522e25d166c817b77fcf797d78304a",
      "s": "0x6792ba0ce87a5f0dd277ea8a44d267a20c43ad076228b36b092914b9548cf28a",
      "v": 27,
      "creates": null,
      "raw": "0xf86e09850ba43b740083015f9094647fe784fb1a8380972fb6ea08d6eed74d1a569989019274b259f6540000801ba09944b4069b212b31fdac56c6ee8e571543522e25d166c817b77fcf797d78304aa06792ba0ce87a5f0dd277ea8a44d267a20c43ad076228b36b092914b9548cf28a",
      "networkId": 0,
      "chainId": 0
    }
  ]
}