{
  "hash": "0x10b953c2aaefbb0a5a1570dd202f8a85d454b2c711951ea62406790107e94397",
  "parentHash": "0xf624c359b216bdc3004dbc77c0421f3d9db5678431e24f2a888f14bc5040e005",
  "number": 83693,
  "timestamp": 1439539203,
  "nonce": "0xf25aa09f5b7ad65a",
  "difficulty": 2445545225022,
  "gasLimit": {
    "_hex": "0x2fefd8"
  },
  "gasUsed": {
    "_hex": "0x5208"
  },
  "miner": "0xeEa71DC26083232a9e7a61b6A7836Dc2428376Cf",
  "extraData": "0x",
  "transactions": [
    {
      "hash": "0xc369619f82921993d5b3f9d38f47a46c017e2d260e9e66e495fd2c60badd4405",
      "blockHash": "0x10b953c2aaefbb0a5a1570dd202f8a85d454b2c711951ea62406790107e94397",
      "blockNumber": 83693,
      "transactionIndex": 0,
      "confirmations": null,
      "from": "0x78F1Ee32Bb4682ac1260B42d4Cbff35761124593",
      "gasPrice": {
        "_hex": "0xd34f9a7d9"
      },
      "gasLimit": {
        "_hex": "0x15f90"
      },
      "to": "0x19D182e96Fd7EeAE2cd0c0280cF63a7E01B6184a",
      "value": {
        "_hex": "0x3782dace9d900000"
      },
      "nonce": 0,
      "data": "0x",
      "r": "0xad4dc0df33b6032123b330082eb80f1019b1d187946cdd424b25b6f60134d38b",
      "s": "0x588d5f43250dc8032eb68f8cfe902c342017c88394c7dec5b6f23f001dc05da3",
      "v": 27,
      "creates": null,
      "raw": "0xf86d80850d34f9a7d983015f909419d182e96fd7eeae2cd0c0280cf63a7e01b6184a883782dace9d900000801ba0ad4dc0df33b6032123b330082eb80f1019b1d187946cdd424b25b6f60134d38ba0588d5f43250dc8032eb68f8cfe902c342017c88394c7dec5b6f23f001dc05da3",
      "networkId": 0,
      "chainId": 0
    }
  ]
}