{
  "hash": "0xad0928fab3db7e4c5181b432c9c8dcd2222ce18da7f1e10b776f13008d35b7d7",
  "parentHash": "0x19e54df4abe9b10b18af8686e633e9f01d449f32d24f9c1bd4bee136bbf49b84",
  "number": 86304,
  "timestamp": 1439576459,
  "nonce": "0x1ba03cc13b0963aa",
  "difficulty": 2851272666944,
  "gasLimit": {
    "_hex": "0x2fefd8"
  },
  "gasUsed": {
    "_hex": "0x5208"
  },
  "miner": "0xe6A7a1d47ff21B6321162AEA7C6CB457D5476Bca",
  "extraData": "0x476574682f76312e302e312d38326566323666362f6c696e75782f676f312e34",
  "transactions": [
    {
      "hash": "0xaccfbc3ca844b7232ec65be06fa5231d11933e6b5cf47b5d37516affed1667d1",
      "blockHash": "0xad0928fab3db7e4c5181b432c9c8dcd2222ce18da7f1e10b776f13008d35b7d7",
      "blockNumber": 86304,
      "transactionIndex": 0,
      "confirmations": null,
      "from": "0xaFF2628417768132E1d04f605Fe1e797f2ECA3F8",
      "gasPrice": {
        "_hex": "0x746a528800"
      },
      "gasLimit": {
        "_hex": "0x5b04"
      },
      "to": "0x1467bcfA961fE8067c779935a78B4a73E7393BD8",
      "value": {
        "_hex": "0x22b1c8c1227a0000"
      },
      "nonce": 3,
      "data": "0x",
      "r": "0x2a066fe7d7db4f5117845605c89c873a1c58da3243f32ee14965fc3e9c6280c6",
      "s": "0x6c49d7154f23fbd6cc3465c48f39688db6826996a113f0d64f260fbb41cc3c1a",
      "v": 27,
      "creates": null,
      "raw": "0xf86c0385746a528800825b04941467bcfa961fe8067c779935a78b4a73e7393bd88822b1c8c1227a0000801ba02a066fe7d7db4f5117845605c89c873a1c58da3243f32ee14965fc3e9c6280c6a06c49d7154f23fbd6cc3465c48f39688db6826996a113f0d64f260fbb41cc3c1a",
      "networkId": 0,
      "chainId": 0
    }
  ]
}