{
  "hash": "0x5b6921297d364dce966470a1d41b9de95b887f7ef5b1d408b1843bcf7b150269",
  "parentHash": "0x674a1723490fec37467244a2a2c2491a84bfb49e6afe3ee64007b45b1513010c",
  "number": 46798,
  "timestamp": 1438929315,
  "nonce": "0xad26dbecfaa4bd3e",
  "difficulty": 1461733867413,
  "gasLimit": {
    "_hex": "0x79d6"
  },
  "gasUsed": {
    "_hex": "0x5208"
  },
  "miner": "0xbb7B8287f3F0a933474a79eAe42CBCa977791171",
  "extraData": "0x476574682f4c5649562f76312e302e312f6c696e75782f676f312e342e32",
  "transactions": [
    {
      "hash": "0xe637a8af28fbad2437cbc24fc85cdceae503e6f4d92963a50f807d5926ac23ca",
      "blockHash": "0x5b6921297d364dce966470a1d41b9de95b887f7ef5b1d408b1843bcf7b150269",
      "blockNumber": 46798,
      "transactionIndex": 0,
      "confirmations": null,
      "from": "0xb583f9403De6C5B2c83D7e2DE9928331176071b8",
      "gasPrice": {
        "_hex": "0xdbaacef91"
      },
      "gasLimit": {
        "_hex": "0x5208"
      },
      "to": "0x32Be343B94f860124dC4fEe278FDCBD38C102D88",
      "value": {
        "_hex": "0x9bb0ba9435c600000"
      },
      "nonce": 2,
      "data": "0x",
      "r": "0x7712a69fa1a84a35eb16fe6521bc561253ecffd4efd8518012bc5346a94ea439",
      "s": "0x27f4aa6df7b3b2b2cc53dfb917659bfb086bde613498c6e8fbfbc8bc1e3608a4",
      "v": 27,
      "creates": null,
      "raw": "0xf86d02850dbaacef918252089432be343b94f860124dc4fee278fdcbd38c102d888909bb0ba9435c600000801ba07712a69fa1a84a35eb16fe6521bc561253ecffd4efd8518012bc5346a94ea439a027f4aa6df7b3b2b2cc53dfb917659bfb086bde613498c6e8fbfbc8bc1e3608a4",
      "networkId": 0,
      "chainId": 0
    }
  ]
}