{
  "hash": "0xddc9005f8c770ac49bf56ff3f854b0fddacfc41ceee1b5a693df0e00437757fd",
  "parentHash": "0x080dfb244a9eedc8ce09f988303eff4092b2fec2424f77f44e4e3cdcaedc7e05",
  "number": 59326,
  "timestamp": 1439136377,
  "nonce": "0x0eff03f158a19e23",
  "difficulty": 1699737146492,
  "gasLimit": {
    "_hex": "0x2fefd8"
  },
  "gasUsed": {
    "_hex": "0x5208"
  },
  "miner": "0x8B454d830feF179e66206840F8F3D1d83bC32b17",
  "extraData": "0x476574682f76312e302e312f77696e646f77732f676f312e342e32",
  "transactions": [
    {
      "hash": "0x9dc6a7189a89a1a02143839fd302baf1ebc26c9ab8377f5ccf312039be8694e5",
      "blockHash": "0xddc9005f8c770ac49bf56ff3f854b0fddacfc41ceee1b5a693df0e00437757fd",
      "blockNumber": 59326,
      "transactionIndex": 0,
      "confirmations": null,
      "from": "0x008B1D771AF0dCFd83C30D9D93f3B83CdF18BebA",
      "gasPrice": {
        "_hex": "0x1000000000"
      },
      "gasLimit": {
        "_hex": "0x5208"
      },
      "to": "0x00ec3B9E2e7Ba7FFBd1D77d100a29f8055C258Bb",
      "value": {
        "_hex": "0x1"
      },
      "nonce": 1,
      "data": "0x",
      "r": "0x23ad63c86ba69656ab5372c9b063e68b5142900df17cc6b8eceb8c516c38dfb8",
      "s": "0x7e2997f994ddcd7c6c1d41a9b4490cc31772e404cf3977162e4d039231597a02",
      "v": 28,
      "creates": null,
      "raw": "0xf864018510000000008252089400ec3b9e2e7ba7ffbd1d77d100a29f8055c258bb01801ca023ad63c86ba69656ab5372c9b063e68b5142900df17cc6b8eceb8c516c38dfb8a07e2997f994ddcd7c6c1d41a9b4490cc31772e404cf3977162e4d039231597a02",
      "networkId": 0,
      "chainId": 0
    }
  ]
}