{
  "hash": "0xd9d66da3f7e0c08e9d6b4309cfeb9d59ac4d2596df9605ef68f6941a90461c69",
  "parentHash": "0x8b0c125c5bbf93021078e08c444673dd82ca9a6c0e6cb3b9cef97b5509331566",
  "number": 47661,
  "timestamp": 1438944361,
  "nonce": "0xfc5094d0fc755641",
  "difficulty": 1448086586393,
  "gasLimit": {
    "_hex": "0xdf45"
  },
  "gasUsed": {
    "_hex": "0x5208"
  },
  "miner": "0x47ff6576639c2e94762eA5443978D7681C0E78DC",
  "extraData": "0x476574682f76312e302e312f6c696e75782f676f312e342e32",
  "transactions": [
    {
      "hash": "0x06dfc52ea54fc7e7f76c86020e3d136307bc2b73ce4506b20c9067ab8f029ad3",
      "blockHash": "0xd9d66da3f7e0c08e9d6b4309cfeb9d59ac4d2596df9605ef68f6941a90461c69",
      "blockNumber": 47661,
      "transactionIndex": 0,
      "confirmations": null,
      "from": "0xe6A7a1d47ff21B6321162AEA7C6CB457D5476Bca",
      "gasPrice": {
        "_hex": "0xd77b63966"
      },
      "gasLimit": {
        "_hex": "0x55f0"
      },
      "to": "0xeb20929Db234C5A87942A400Ef775694be852ceC",
      "value": {
        "_hex": "0x1bf6bac27faa6d88"
      },
      "nonce": 185,
      "data": "0x",
      "r": "0x061ad9177357a0471b6cc5df4de0428d328fa2e5e21227a4e1bef591b1908afb",
      "s": "0x01edf056f27a5fcd1c7fb0f078878121c6472ae2b29ca94159ee70bfa87e32d4",
      "v": 28,
      "creates": null,
      "raw": "0xf86d81b9850d77b639668255f094eb20929db234c5a87942a400ef775694be852cec881bf6bac27faa6d88801ca0061ad9177357a0471b6cc5df4de0428d328fa2e5e21227a4e1bef591b1908afba001edf056f27a5fcd1c7fb0f078878121c6472ae2b29ca94159ee70bfa87e32d4",
      "networkId": 0,
      "chainId": 0
    }
  ]
}