{
  "hash": "0x13fcbb301f2bbb58064f429bbdd5ae752fddc5bbbdb415f4e692559a0c69d6ab",
  "parentHash": "0x49a100760ad8709e48f4536f4b308843b55d010a0f9d5c4abeeffb5a58bc3290",
  "number": 49730,
  "timestamp": 1438978056,
  "nonce": "0x4ea30d2fcce0aeb1",
  "difficulty": 1494414855333,
  "gasLimit": {
    "_hex": "0x3cb58"
  },
  "gasUsed": {
    "_hex": "0xa8d8"
  },
  "miner": "0xc56e71225f1372c990E6829D53A1Ab76d27301cf",
  "extraData": "0x476574682f76312e302e302f77696e646f77732f676f312e342e32",
  "transactions": [
    {
      "hash": "0x1a00dc3f2f2c8931b5db86da145ba20f4e5bc190f4b2fab0cf6f97ec5dd9b64e",
      "blockHash": "0x13fcbb301f2bbb58064f429bbdd5ae752fddc5bbbdb415f4e692559a0c69d6ab",
      "blockNumber": 49730,
      "transactionIndex": 0,
      "confirmations": null,
      "from": "0x30b66150f1a63457023FDd45D0cc6CB54E0c0f06",
      "gasPrice": {
        "_hex": "0x111efe56af8"
      },
      "gasLimit": {
        "_hex": "0x15f90"
      },
      "to": "0x2910543Af39abA0Cd09dBb2D50200b3E800A63D2",
      "value": {
        "_hex": "0x363442e15b11550000"
      },
      "nonce": 0,
      "data": "0x454e42304a42363352",
      "r": "0x8e3c6c89433128d15bcd66131c4b6492f1b4bb86c94b0749101922592b255400",
      "s": "0x5fb66c9803eebad5afc1c3b5ccff152719946e68325aa338805b19c854a9f5b3",
      "v": 27,
      "creates": null,
      "raw": "0xf87880860111efe56af883015f90942910543af39aba0cd09dbb2d50200b3e800a63d289363442e15b1155000089454e42304a423633521ba08e3c6c89433128d15bcd66131c4b6492f1b4bb86c94b0749101922592b255400a05fb66c9803eebad5afc1c3b5ccff152719946e68325aa338805b19c854a9f5b3",
      "networkId": 0,
      "chainId": 0
    },
    {
      "hash": "0xa319fa4cda6a3a1d907ced778d259c1fe223bb08767f1fe77f4cc16b5272167f",
      "blockHash": "0x13fcbb301f2bbb58064f429bbdd5ae752fddc5bbbdb415f4e692559a0c69d6ab",
      "blockNumber": 49730,
      "transactionIndex": 1,
      "confirmations": null,
      "from": "0xA009bF076F1ba3FA57d2a7217218BEd5565a7a7A",
      "gasPrice": {
        "_hex": "0x110c8f7d8de"
      },
      "gasLimit": {
        "_hex": "0xc350"
      },
      "to": "0x2910543Af39abA0Cd09dBb2D50200b3E800A63D2",
      "value": {
        "_hex": "0x35f0661c4399ac0000"
      },
      "nonce": 0,
      "data": "0x454e46585154434752",
      "r": "0x5a5be7f0c25f2c26e44b930b18d4c8795c1a9d3e1e62986e93744bcb56863371",
      "s": "0xf3d628a4cd08ebce28633d4ad9fc179f3b34576f327c7b3cad317b9e3fde4114",
      "v": 27,
      "creates": null,
      "raw": "0xf87780860110c8f7d8de82c350942910543af39aba0cd09dbb2d50200b3e800a63d28935f0661c4399ac000089454e465851544347521ba05a5be7f0c25f2c26e44b930b18d4c8795c1a9d3e1e62986e93744bcb56863371a0f3d628a4cd08ebce28633d4ad9fc179f3b34576f327c7b3cad317b9e3fde4114",
      "networkId": 0,
      "chainId": 0
    }
  ]
}