{
  "hash": "0x08d0bff179d3346b2fb7d1081e425913c5b8294216e6e3909513f9c55cb2224b",
  "parentHash": "0x8dccfab1254ceb455c81bdddd0739add41fab3e9e08a97c73d2919fe9c7c6aa6",
  "number": 110286,
  "timestamp": 1439971124,
  "nonce": "0x14b80f7aa3443d0f",
  "difficulty": 4360736546422,
  "gasLimit": {
    "_hex": "0x2fefd8"
  },
  "gasUsed": {
    "_hex": "0x5208"
  },
  "miner": "0x9746c7e1ef2bd21FF3997fa467593a89cb852BD0",
  "extraData": "0x476574682f76312e302e312f77696e646f77732f676f312e342e32",
  "transactions": [
    {
      "hash": "0x977921fa5f812f1f67eeac83ce0738a85405e1e552b65221106a7d4ec7ce1c18",
      "blockHash": "0x08d0bff179d3346b2fb7d1081e425913c5b8294216e6e3909513f9c55cb2224b",
      "blockNumber": 110286,
      "transactionIndex": 0,
      "confirmations": null,
      "from": "0x36c510bf8d6e569BF2F37d47265dbcB502Ff2BcE",
      "gasPrice": {
        "_hex": "0xd95b2ef0d"
      },
      "gasLimit": {
        "_hex": "0x15f90"
      },
      "to": "0xBf520BE04Aa6a36a99897062Ca9c440CF4112780",
      "value": {
        "_hex": "0x821ab0d4414980000"
      },
      "nonce": 1,
      "data": "0x",
      "r": "0x8ba30a1ae7371d67fda3b256cb53ad92dbe425108457194cd8c986ae125e3ebc",
      "s": "0x649fdb7a21d21c2540014de5e1361caa2c2794c239f1adb58cc95bbdec607a51",
      "v": 27,
      "creates": null,
      "raw": "0xf86e01850d95b2ef0d83015f9094bf520be04aa6a36a99897062ca9c440cf4112780890821ab0d4414980000801ba08ba30a1ae7371d67fda3b256cb53ad92dbe425108457194cd8c986ae125e3ebca0649fdb7a21d21c2540014de5e1361caa2c2794c239f1adb58cc95bbdec607a51",
      "networkId": 0,
      "chainId": 0
    }
  ]
}