{
  "hash": "0x34312983ea358c69a99b49b0dc332b5b47a9e2b9cd8e9a7d019c4d5eebd31667",
  "parentHash": "0xc6b3d20439cac73d20c213f573c42675ca01260907f7c6a97379f7aeb53c763e",
  "number": 56589,
  "timestamp": 1439089525,
  "nonce": "0x6da164ed90f1aeb9",
  "difficulty": 1673114086975,
  "gasLimit": {
    "_hex": "0x2fefd8"
  },
  "gasUsed": {
    "_hex": "0xa410"
  },
  "miner": "0x55bAf64fc9eAccFFd7Cc643BB61142E1C6ac093e",
  "extraData": "0x",
  "transactions": [
    {
      "hash": "0x10ba8c652e4cc160fdc4efcb2fbfd78e148e8508f5faacc41156ce25b372174d",
      "blockHash": "0x34312983ea358c69a99b49b0dc332b5b47a9e2b9cd8e9a7d019c4d5eebd31667",
      "blockNumber": 56589,
      "transactionIndex": 0,
      "confirmations": null,
      "from": "0x120A270bbC009644e35F0bB6ab13f95b8199c4ad",
      "gasPrice": {
        "_hex": "0xdd10f292c"
      },
      "gasLimit": {
        "_hex": "0x15f90"
      },
      "to": "0xDD45B37884fc824a2b31C98BFAAeBAA24B59ED58",
      "value": {
        "_hex": "0x51b6203887acac00"
      },
      "nonce": 31,
      "data": "0x",
      "r": "0x6b20daa2fd9130d46700afd5533fb974e71b28b9341e50aa9c28dd364c38e2ac",
      "s": "0x342f600f4d20d79da6c76dd69b8bd989f676676b8df5fadfc0d18ffa4cff6c40",
      "v": 27,
      "creates": null,
      "raw": "0xf86d1f850dd10f292c83015f9094dd45b37884fc824a2b31c98bfaaebaa24b59ed588851b6203887acac00801ba06b20daa2fd9130d46700afd5533fb974e71b28b9341e50aa9c28dd364c38e2aca0342f600f4d20d79da6c76dd69b8bd989f676676b8df5fadfc0d18ffa4cff6c40",
      "networkId": 0,
      "chainId": 0
    },
    {
      "hash": "0x86907181b5eb9e12daa01cb520412430ca3af4321ac0ff4a60978faf9b6d2d90",
      "blockHash": "0x34312983ea358c69a99b49b0dc332b5b47a9e2b9cd8e9a7d019c4d5eebd31667",
      "blockNumber": 56589,
      "transactionIndex": 1,
      "confirmations": null,
      "from": "0x120A270bbC009644e35F0bB6ab13f95b8199c4ad",
      "gasPrice": {
        "_hex": "0xdd10f292c"
      },
      "gasLimit": {
        "_hex": "0x15f90"
      },
      "to": "0x96008c0b0ED3cD56Dc42cD8aCF7886C13eb3C341",
      "value": {
        "_hex": "0x2f4f9c362921c1c00"
      },
      "nonce": 32,
      "data": "0x",
      "r": "0xb4f0bd7c5ecf58a4a3274af557d46f93d1d91b1088c18a301dd652b971208c8a",
      "s": "0x0de01b70e0974464d0a3700f843ba8807e794da4446426763ca02f4dc6077ec0",
      "v": 28,
      "creates": null,
      "raw": "0xf86e20850dd10f292c83015f909496008c0b0ed3cd56dc42cd8acf7886c13eb3c3418902f4f9c362921c1c00801ca0b4f0bd7c5ecf58a4a3274af557d46f93d1d91b1088c18a301dd652b971208c8aa00de01b70e0974464d0a3700f843ba8807e794da4446426763ca02f4dc6077ec0",
      "networkId": 0,
      "chainId": 0
    }
  ]
}