{
  "hash": "0xfdf570e3b5e7db825ae74e18bacfa2af2b7e844a6c8d86cea4e2b71df6e75a7e",
  "parentHash": "0x6e9e75c9a4beb8539ad4e9156e0e08506f2133702c86825efd081a70c005e83c",
  "number": 77514,
  "timestamp": 1439438613,
  "nonce": "0x162a05070d46d5aa",
  "difficulty": 2238149061540,
  "gasLimit": {
    "_hex": "0x2fefd5"
  },
  "gasUsed": {
    "_hex": "0x5208"
  },
  "miner": "0x19e83223b783b5c6673c06b06E093de7E85F3F87",
  "extraData": "0x",
  "transactions": [
    {
      "hash": "0x5cb3018dbdd18801e2377ea9ce8a617f9d02c6cfca355914227ffa74cd34190f",
      "blockHash": "0xfdf570e3b5e7db825ae74e18bacfa2af2b7e844a6c8d86cea4e2b71df6e75a7e",
      "blockNumber": 77514,
      "transactionIndex": 0,
      "confirmations": null,
      "from": "0x723E05fF30e4ba7A87b4D7D459eE5B488A9c36d1",
      "gasPrice": {
        "_hex": "0xd125120bc"
      },
      "gasLimit": {
        "_hex": "0x15f90"
      },
      "to": "0xabceA603089850F8f6bB612A9031554D90A247CF",
      "value": {
        "_hex": "0x4af0a763bb1c0000"
      },
      "nonce": 10,
      "data": "0x",
      "r": "0x2c5928b503f4a21ac771a0fe77c28cdb65b1f238455df15ae19908a38a26398a",
      "s": "0x6c7649edb219328c1239daed27cd0a917cb4869c4bef399d1efdf6e83a961bd2",
      "v": 28,
      "creates": null,
      "raw": "0xf86d0a850d125120bc83015f9094abcea603089850f8f6bb612a9031554d90a247cf884af0a763bb1c0000801ca02c5928b503f4a21ac771a0fe77c28cdb65b1f238455df15ae19908a38a26398aa06c7649edb219328c1239daed27cd0a917cb4869c4bef399d1efdf6e83a961bd2",
      "networkId": 0,
      "chainId": 0
    }
  ]
}