{
  "hash": "0x84d4ba52d917c7252f84b882339d6ea13addfd07a9b2d90d20c0f4215ce2f9fb",
  "parentHash": "0x9c5eca7ee3f9a899857ceeb8588ee2750a2d002bc572d2b7bd78c10ed10212e0",
  "number": 110817,
  "timestamp": 1439979972,
  "nonce": "0x9b883e6ab9e56e4f",
  "difficulty": 4401102246424,
  "gasLimit": {
    "_hex": "0x2fefd8"
  },
  "gasUsed": {
    "_hex": "0x5208"
  },
  "miner": "0xe6A7a1d47ff21B6321162AEA7C6CB457D5476Bca",
  "extraData": "0x476574682f76312e302e312d38326566323666362f6c696e75782f676f312e34",
  "transactions": [
    {
      "hash": "0x31999ed2d6be8f5ceab202b9786793f959c90d7054d0fc2e72368f6f800f0222",
      "blockHash": "0x84d4ba52d917c7252f84b882339d6ea13addfd07a9b2d90d20c0f4215ce2f9fb",
      "blockNumber": 110817,
      "transactionIndex": 0,
      "confirmations": null,
      "from": "0xb1abce2918E21ddb93AA452731a12672A3d9F75a",
      "gasPrice": {
        "_hex": "0xcd8cdafe5"
      },
      "gasLimit": {
        "_hex": "0x5208"
      },
      "to": "0x32Be343B94f860124dC4fEe278FDCBD38C102D88",
      "value": {
        "_hex": "0x455f69666a90e000"
      },
      "nonce": 169,
      "data": "0x",
      "r": "0x6c472e73f71cd5f9aac7e3b2c60105ba5c5ceac6ff0dbe3ae0f1d387db84d922",
      "s": "0x62b37115e4163fa65649ffe54cb9fd1ecf809905c6342acac50a0ff98d202034",
      "v": 28,
      "creates": null,
      "raw": "0xf86d81a9850cd8cdafe58252089432be343b94f860124dc4fee278fdcbd38c102d8888455f69666a90e000801ca06c472e73f71cd5f9aac7e3b2c60105ba5c5ceac6ff0dbe3ae0f1d387db84d922a062b37115e4163fa65649ffe54cb9fd1ecf809905c6342acac50a0ff98d202034",
      "networkId": 0,
      "chainId": 0
    }
  ]
}