{
  "hash": "0xb4aa000c466481c354552b2d697a7b311663f2ed355d605faf0652c86526e487",
  "parentHash": "0x127a9621945cb938003fd988273046c21f3eae02e6c3e196ec0d02afa1c5c715",
  "number": 115276,
  "timestamp": 1440054342,
  "nonce": "0xf5976440245e0a84",
  "difficulty": 4558383202934,
  "gasLimit": {
    "_hex": "0x2fefd8"
  },
  "gasUsed": {
    "_hex": "0x5208"
  },
  "miner": "0xe6A7a1d47ff21B6321162AEA7C6CB457D5476Bca",
  "extraData": "0x476574682f76312e302e312d38326566323666362f6c696e75782f676f312e34",
  "transactions": [
    {
      "hash": "0x4bf7c9748e8c6a4996ecb0bcc3eb1b1dd9aeb701b74daf6182294944ba1dcbb5",
      "blockHash": "0xb4aa000c466481c354552b2d697a7b311663f2ed355d605faf0652c86526e487",
      "blockNumber": 115276,
      "transactionIndex": 0,
      "confirmations": null,
      "from": "0xE300c4587D260cE22a677755Db6429B491A4309E",
      "gasPrice": {
        "_hex": "0xd1b241bb4"
      },
      "gasLimit": {
        "_hex": "0x15f90"
      },
      "to": "0x28e44357aa686897cd4A46125e239497723aC38b",
      "value": {
        "_hex": "0x22b1c8c1227a00000"
      },
      "nonce": 27,
      "data": "0x",
      "r": "0x317edc2efba62100239bd5dc7d3838a77a693d8ef07684a0dce2a51193fff465",
      "s": "0x1a7cda815ed3c5774508f74eeeb91a94f6bd7350347c8e71110376221630f222",
      "v": 28,
      "creates": null,
      "raw": "0xf86e1b850d1b241bb483015f909428e44357aa686897cd4a46125e239497723ac38b89022b1c8c1227a00000801ca0317edc2efba62100239bd5dc7d3838a77a693d8ef07684a0dce2a51193fff465a01a7cda815ed3c5774508f74eeeb91a94f6bd7350347c8e71110376221630f222",
      "networkId": 0,
      "chainId": 0
    }
  ]
}