{
  "hash": "0xc3c3b62ab27d008da0bcbec0aa8df2428cc3c9c3151513361cfeae6cd35c02ac",
  "parentHash": "0xec2a03b7ba7e4f5d5e75b8463ccc9bf65710ab6574003bc2bb0bdffe4ac3f57c",
  "number": 49343,
  "timestamp": 1438972151,
  "nonce": "0x085c4a3162500491",
  "difficulty": 1476351484408,
  "gasLimit": {
    "_hex": "0x2dbb6"
  },
  "gasUsed": {
    "_hex": "0x5208"
  },
  "miner": "0xc56e71225f1372c990E6829D53A1Ab76d27301cf",
  "extraData": "0x476574682f76312e302e302f77696e646f77732f676f312e342e32",
  "transactions": [
    {
      "hash": "0x94eac5176774302230aefbb8b4f391850b49ddab43e36a8703bc0ff8fd057a2e",
      "blockHash": "0xc3c3b62ab27d008da0bcbec0aa8df2428cc3c9c3151513361cfeae6cd35c02ac",
      "blockNumber": 49343,
      "transactionIndex": 0,
      "confirmations": null,
      "from": "0xb2B4188b76453042a4d799751c095229E50d40c2",
      "gasPrice": {
        "_hex": "0xe1ae7875e"
      },
      "gasLimit": {
        "_hex": "0x5208"
      },
      "to": "0x32Be343B94f860124dC4fEe278FDCBD38C102D88",
      "value": {
        "_hex": "0x1bbce85829b2b000"
      },
      "nonce": 0,
      "data": "0x",
      "r": "0xc847cad04e8cac88049ddbf782dabe65eae25179d4fdc5bc16b099e9c6be3d5d",
      "s": "0x54eb402840092794508c3c9622ac5fe1326652ba1afdc48158c915e8d45958d5",
      "v": 28,
      "creates": null,
      "raw": "0xf86c80850e1ae7875e8252089432be343b94f860124dc4fee278fdcbd38c102d88881bbce85829b2b000801ca0c847cad04e8cac88049ddbf782dabe65eae25179d4fdc5bc16b099e9c6be3d5da054eb402840092794508c3c9622ac5fe1326652ba1afdc48158c915e8d45958d5",
      "networkId": 0,
      "chainId": 0
    }
  ]
}