{
  "hash": "0xe1babce5f7f516396d9b2fa3f5ac6f6bfe121e9925f638854ea52ea8c5bc6f89",
  "parentHash": "0x31edcc8d2b6bccbef5bd58f5f5d3c0962f143eeb6004442f72d0fbe583bbafe8",
  "number": 87056,
  "timestamp": 1439586549,
  "nonce": "0x45ce98cbe8ca42cc",
  "difficulty": 3031929578388,
  "gasLimit": {
    "_hex": "0x2fefd8"
  },
  "gasUsed": {
    "_hex": "0x5d9f"
  },
  "miner": "0xEF247E639d49461D25F57e9362CadE3120910Ce0",
  "extraData": "0x476574682f76312e302e312f6c696e75782f676f312e342e32",
  "transactions": [
    {
      "hash": "0x6799905a92ff8fce1830e7995be251b050d7e5be11352fd2728de554d6a9b16c",
      "blockHash": "0xe1babce5f7f516396d9b2fa3f5ac6f6bfe121e9925f638854ea52ea8c5bc6f89",
      "blockNumber": 87056,
      "transactionIndex": 0,
      "confirmations": null,
      "from": "0x8A243A0A9fEA49b839547745ff2D11Af3F4b0522",
      "gasPrice": {
        "_hex": "0xdebca55ae"
      },
      "gasLimit": {
        "_hex": "0x15f90"
      },
      "to": "0xCAc7000C7dBaa2E33Af15325AF5D435E011C7BdD",
      "value": {
        "_hex": "0xdf6816de3cd54ac00"
      },
      "nonce": 3,
      "data": "0xb214faa53754414c4f394246510000000000000000000000000000000000000000000000",
      "r": "0x250ca9169ce21ff66784113a5f1e67378290dc6ed7814c94470f287c5a3ddc2a",
      "s": "0x0922e59b0f977499b909e259ae7d5951300c9fa157ef92c39b5bd33e13b0ce45",
      "v": 28,
      "creates": null,
      "raw": "0xf89203850debca55ae83015f9094cac7000c7dbaa2e33af15325af5d435e011c7bdd890df6816de3cd54ac00a4b214faa53754414c4f3942465100000000000000000000000000000000000000000000001ca0250ca9169ce21ff66784113a5f1e67378290dc6ed7814c94470f287c5a3ddc2aa00922e59b0f977499b909e259ae7d5951300c9fa157ef92c39b5bd33e13b0ce45",
      "networkId": 0,
      "chainId": 0
    }
  ]
}