{
  "hash": "0xd3fd47b035fb36357787f13eab5323a8ed1bfedf42241f2ce8ffc65c5650e3d7",
  "parentHash": "0x635d45863b6e4723250341df77b37f032715f79f79d2d1f0948d3babf4f7a76b",
  "number": 51312,
  "timestamp": 1439002839,
  "nonce": "0x00541f37b62d8cbf",
  "difficulty": 1565837999604,
  "gasLimit": {
    "_hex": "0xa31b0"
  },
  "gasUsed": {
    "_hex": "0x1bbfa"
  },
  "miner": "0x0037ce3d4B7f8729C8607D8D0248252Be68202c0",
  "extraData": "0x476574682f76312e302e312f77696e646f77732f676f312e342e32",
  "transactions": [
    {
      "hash": "0x3cfff98b16d3d8d92ef4ba5f50f43877de832c522f4b11d70a0bbfb24ca15c20",
      "blockHash": "0xd3fd47b035fb36357787f13eab5323a8ed1bfedf42241f2ce8ffc65c5650e3d7",
      "blockNumber": 51312,
      "transactionIndex": 0,
      "confirmations": null,
      "from": "0x288E4356F12D0D3D0F8DF3506E457E7cFd5f4Ab0",
      "gasPrice": {
        "_hex": "0xcbdee9808"
      },
      "gasLimit": {
        "_hex": "0x5a550"
      },
      "to": "0xBAA54d6E90c3F4d7Ebec11bD180134C7eD8eBb52",
      "value": {
        "_hex": "0x16345785d8a0000"
      },
      "nonce": 8,
      "data": "0x",
      "r": "0xecca343195849d8f93839eb7aab4e00fdc4fc41db53a246063d4902a2f48d609",
      "s": "0x5a6ea63d2cd1c0aac8d89cc1eeea6f7b33e826deaf3ec587e3a5731d2789a92d",
      "v": 27,
      "creates": null,
      "raw": "0xf86d08850cbdee98088305a55094baa54d6e90c3f4d7ebec11bd180134c7ed8ebb5288016345785d8a0000801ba0ecca343195849d8f93839eb7aab4e00fdc4fc41db53a246063d4902a2f48d609a05a6ea63d2cd1c0aac8d89cc1eeea6f7b33e826deaf3ec587e3a5731d2789a92d",
      "networkId": 0,
      "chainId": 0
    },
    {
      "hash": "0x6f3812da541955e346c9f61e32bb2691656c0351ff6bc804ad5ac875f30c65ec",
      "blockHash": "0xd3fd47b035fb36357787f13eab5323a8ed1bfedf42241f2ce8ffc65c5650e3d7",
      "blockNumber": 51312,
      "transactionIndex": 1,
      "confirmations": null,
      "from": "0x288E4356F12D0D3D0F8DF3506E457E7cFd5f4Ab0",
      "gasPrice": {
        "_hex": "0xcbdee9808"
      },
      "gasLimit": {
        "_hex": "0x5a550"
      },
      "to": "0xBAA54d6E90c3F4d7Ebec11bD180134C7eD8eBb52",
      "value": {
        "_hex": "0x16345785d8a0000"
      },
      "nonce": 9,
      "data": "0x",
      "r": "0xb422713b158ca5403766ed793eaf46175f62edf2d2aaf66d5775f2af102aaa6e",
      "s": "0x321771cc1f95f885bee58a228ba170f41759f00002be09a096558c5ba3285105",
      "v": 27,
      "creates": null,
      "raw": "0xf86d09850cbdee98088305a55094baa54d6e90c3f4d7ebec11bd180134c7ed8ebb5288016345785d8a0000801ba0b422713b158ca5403766ed793eaf46175f62edf2d2aaf66d5775f2af102aaa6ea0321771cc1f95f885bee58a228ba170f41759f00002be09a096558c5ba3285105",
      "networkId": 0,
      "chainId": 0
    }
  ]
}