{
  "hash": "0xdf5a64150f3e0788c1be5fa0958dc38190d1a0c936f7b65fd2258994c67da685",
  "parentHash": "0xc560bc8f6bd2860e5534e3de7fbacf3d2a6ae3467a47905b4a8215174e169bbb",
  "number": 55755,
  "timestamp": 1439076436,
  "nonce": "0xc14b13debb4b4ab9",
  "difficulty": 1598215336742,
  "gasLimit": {
    "_hex": "0x2fefd8"
  },
  "gasUsed": {
    "_hex": "0x152ca"
  },
  "miner": "0xf927a40C8B7F6E07c5af7FA2155B4864a4112B13",
  "extraData": "0x476574682f76312e302e312f6c696e75782f676f312e342e32",
  "transactions": [
    {
      "hash": "0x3f2f78f3e374b12fddd54b934589c1a17516381c8390e8eb689d396da80c6712",
      "blockHash": "0xdf5a64150f3e0788c1be5fa0958dc38190d1a0c936f7b65fd2258994c67da685",
      "blockNumber": 55755,
      "transactionIndex": 0,
      "confirmations": null,
      "from": "0x664B099B945b899AaC84DA69dd6D4eEb3D03c8a3",
      "gasPrice": {
        "_hex": "0x9184e72a000"
      },
      "gasLimit": {
        "_hex": "0xea60"
      },
      "to": "0x27e806e70622d2864e1B1f4426D72FFb0457C83a",
      "value": {
        "_hex": "0x1f5d2206a8620000"
      },
      "nonce": 4,
      "data": "0x",
      "r": "0x85555aef562d51341b9c35120b425bf481a7b3daf0825daac950a42e7a3b1417",
      "s": "0x0d4750a4923f0036259765fa64872fe51694958f96d7c7da5c6359b227f1888a",
      "v": 27,
      "creates": null,
      "raw": "0xf86d048609184e72a00082ea609427e806e70622d2864e1b1f4426d72ffb0457c83a881f5d2206a8620000801ba085555aef562d51341b9c35120b425bf481a7b3daf0825daac950a42e7a3b1417a00d4750a4923f0036259765fa64872fe51694958f96d7c7da5c6359b227f1888a",
      "networkId": 0,
      "chainId": 0
    },
    {
      "hash": "0xd460c492a4c85159cd3cfc92fb105381319d54516bb27e1602e875e51c4a12bd",
      "blockHash": "0xdf5a64150f3e0788c1be5fa0958dc38190d1a0c936f7b65fd2258994c67da685",
      "blockNumber": 55755,
      "transactionIndex": 1,
      "confirmations": null,
      "from": "0xCC043c4388D345f884c6855e71142a9F41FD6935",
      "gasPrice": {
        "_hex": "0x1172f3b7ba0"
      },
      "gasLimit": {
        "_hex": "0x15f90"
      },
      "to": "0xB67b6BB30Bb68ED96f23f1fB8C6Da01B3C37F6D4",
      "value": {
        "_hex": "0x4563918244f40000"
      },
      "nonce": 2,
      "data": "0x",
      "r": "0xef7060f9056aa8cac76bfae6e57dce87d35597dbb2659c189712ce3362e1f474",
      "s": "0x6c62ef9e20a4af2faddd2841c3a1810f8154be3dbdf9c3576e5af9f5df13679a",
      "v": 28,
      "creates": null,
      "raw": "0xf86e028601172f3b7ba083015f9094b67b6bb30bb68ed96f23f1fb8c6da01b3c37f6d4884563918244f40000801ca0ef7060f9056aa8cac76bfae6e57dce87d35597dbb2659c189712ce3362e1f474a06c62ef9e20a4af2faddd2841c3a1810f8154be3dbdf9c3576e5af9f5df13679a",
      "networkId": 0,
      "chainId": 0
    },
    {
      "hash": "0x161773438c99ad01cba9c46f147198e0e9f98ea6baaa16a66105f99733bd146c",
      "blockHash": "0xdf5a64150f3e0788c1be5fa0958dc38190d1a0c936f7b65fd2258994c67da685",
      "blockNumber": 55755,
      "transactionIndex": 2,
      "confirmations": null,
      "from": "0xFD2605a2bF58fDbB90db1Da55dF61628B47F9e8c",
      "gasPrice": {
        "_hex": "0xcfb4c9be1"
      },
      "gasLimit": {
        "_hex": "0x15f90"
      },
      "to": "0xF6bF0eE51FE0ee92500bB22295382E9241eC3b5C",
      "value": {
        "_hex": "0x0"
      },
      "nonce": 14,
      "data": "0x5e0572a70000000000000000000000000000000000000000000000001839a3894cad1b30",
      "r": "0x1d25e4f7bca8a778c0316efde57a88dacfbf8e0651a92bea0741b3f1b31e7546",
      "s": "0x1a58f28feb8970afb5ca251a23a012740906fc11c8b75f3370c675cac4e65502",
      "v": 28,
      "creates": null,
      "raw": "0xf8890e850cfb4c9be183015f9094f6bf0ee51fe0ee92500bb22295382e9241ec3b5c80a45e0572a70000000000000000000000000000000000000000000000001839a3894cad1b301ca01d25e4f7bca8a778c0316efde57a88dacfbf8e0651a92bea0741b3f1b31e7546a01a58f28feb8970afb5ca251a23a012740906fc11c8b75f3370c675cac4e65502",
      "networkId": 0,
      "chainId": 0
    },
    {
      "hash": "0x910d08643dae8c2ae72a7ef0315c84de83808242ff9943338026ebb5907ac213",
      "blockHash": "0xdf5a64150f3e0788c1be5fa0958dc38190d1a0c936f7b65fd2258994c67da685",
      "blockNumber": 55755,
      "transactionIndex": 3,
      "confirmations": null,
      "from": "0x288E4356F12D0D3D0F8DF3506E457E7cFd5f4Ab0",
      "gasPrice": {
        "_hex": "0xce87ba692"
      },
      "gasLimit": {
        "_hex": "0x15f90"
      },
      "to": "0xF6bF0eE51FE0ee92500bB22295382E9241eC3b5C",
      "value": {
        "_hex": "0x0"
      },
      "nonce": 21,
      "data": "0x5e0572a70000000000000000000000000000000000000000000000001805c380fcfbe4d4",
      "r": "0x484247e48a2d7272597615f4c50d5f87a833c32e6a61383e5dd970fd58fb909d",
      "s": "0x18a6c4acd01bc54dedf44672a549c408dcd6802995bbb15228b59a499ce56819",
      "v": 28,
      "creates": null,
      "raw": "0xf88915850ce87ba69283015f9094f6bf0ee51fe0ee92500bb22295382e9241ec3b5c80a45e0572a70000000000000000000000000000000000000000000000001805c380fcfbe4d41ca0484247e48a2d7272597615f4c50d5f87a833c32e6a61383e5dd970fd58fb909da018a6c4acd01bc54dedf44672a549c408dcd6802995bbb15228b59a499ce56819",
      "networkId": 0,
      "chainId": 0
    }
  ]
}