{
  "hash": "0xe22981b13cab0b38c37629c0e2d331cb16c548f1bd49e4ed709eba41150aa108",
  "parentHash": "0xa4223bb9158677ebf520faf970a31b86228901859db907f32a352850056f88da",
  "number": 107085,
  "timestamp": 1439915580,
  "nonce": "0x9a87ca825a6c3821",
  "difficulty": 4476768517248,
  "gasLimit": {
    "_hex": "0x2fefd8"
  },
  "gasUsed": {
    "_hex": "0x5208"
  },
  "miner": "0x157c6f2431eB1a95797EE86F7d17b3c0FD47A247",
  "extraData": "0x476574682f76312e302e312f77696e646f77732f676f312e342e32",
  "transactions": [
    {
      "hash": "0x745185ba22062a49ea329d835875b99dc166d8b522b80da33f52939f1e8a724a",
      "blockHash": "0xe22981b13cab0b38c37629c0e2d331cb16c548f1bd49e4ed709eba41150aa108",
      "blockNumber": 107085,
      "transactionIndex": 0,
      "confirmations": null,
      "from": "0x4D67f4F0Db45b3B5a3424B39ed8d972F710381D5",
      "gasPrice": {
        "_hex": "0xd08af0611"
      },
      "gasLimit": {
        "_hex": "0x5208"
      },
      "to": "0x32Be343B94f860124dC4fEe278FDCBD38C102D88",
      "value": {
        "_hex": "0x315a15105361b4000"
      },
      "nonce": 29,
      "data": "0x",
      "r": "0xf2031f5f718f0596f5dc5799d8845c9acd20e6975912bfaf5a7d301f63119a2f",
      "s": "0x0960e995fea9dc84fc8e932f7e3469a5391f2f5c853e2b75ed82aa33e72a1cac",
      "v": 27,
      "creates": null,
      "raw": "0xf86d1d850d08af06118252089432be343b94f860124dc4fee278fdcbd38c102d88890315a15105361b4000801ba0f2031f5f718f0596f5dc5799d8845c9acd20e6975912bfaf5a7d301f63119a2fa00960e995fea9dc84fc8e932f7e3469a5391f2f5c853e2b75ed82aa33e72a1cac",
      "networkId": 0,
      "chainId": 0
    }
  ]
}