{
  "hash": "0x578df9f5f3ffe1c2b71170775f52b2ffc8abdb0a1190d85e0ed7e8196ec5b850",
  "parentHash": "0x9bcccc4cbf52b3d7c272255fb9e853a0750742d037a192a789bb0aa10b8e3870",
  "number": 81099,
  "timestamp": 1439496231,
  "nonce": "0x184ae166ac1c9706",
  "difficulty": 2436764348541,
  "gasLimit": {
    "_hex": "0x2fefd8"
  },
  "gasUsed": {
    "_hex": "0xa960"
  },
  "miner": "0x31995C46B15C84523cDEE26f49A681b8237e43F5",
  "extraData": "0x476574682f76312e302e312f77696e646f77732f676f312e342e32",
  "transactions": [
    {
      "hash": "0x3073cb86af0d1311437157fd585fcef735fbb31bfddf4cb0f4f9993a420665dd",
      "blockHash": "0x578df9f5f3ffe1c2b71170775f52b2ffc8abdb0a1190d85e0ed7e8196ec5b850",
      "blockNumber": 81099,
      "transactionIndex": 0,
      "confirmations": null,
      "from": "0x6FDdbd9BCA66E28765c2162c8433548c1052eD11",
      "gasPrice": {
        "_hex": "0x1034714131d"
      },
      "gasLimit": {
        "_hex": "0x61a8"
      },
      "to": "0x2910543Af39abA0Cd09dBb2D50200b3E800A63D2",
      "value": {
        "_hex": "0x4563918244f40000"
      },
      "nonce": 2,
      "data": "0x584537314554484b52414b454e59373457465730",
      "r": "0x399727ecdd3f5589ff86ac71cd9aba47d92a675b8531888d075d29f68c8709e7",
      "s": "0x4567159c932b75da17ff5661dead1098985cc65bf3c903dc3e7f1548352ab6f7",
      "v": 28,
      "creates": null,
      "raw": "0xf881028601034714131d8261a8942910543af39aba0cd09dbb2d50200b3e800a63d2884563918244f4000094584537314554484b52414b454e593734574657301ca0399727ecdd3f5589ff86ac71cd9aba47d92a675b8531888d075d29f68c8709e7a04567159c932b75da17ff5661dead1098985cc65bf3c903dc3e7f1548352ab6f7",
      "networkId": 0,
      "chainId": 0
    },
    {
      "hash": "0x4b13c2486f7d3b380dbc5a6abc3f92dfccc20f56079311709b683197c07cd137",
      "blockHash": "0x578df9f5f3ffe1c2b71170775f52b2ffc8abdb0a1190d85e0ed7e8196ec5b850",
      "blockNumber": 81099,
      "transactionIndex": 1,
      "confirmations": null,
      "from": "0x120A270bbC009644e35F0bB6ab13f95b8199c4ad",
      "gasPrice": {
        "_hex": "0xd25f5acfb"
      },
      "gasLimit": {
        "_hex": "0x3d090"
      },
      "to": "0x8d304933a1F93F268bFDcFF9FFE6846a75167279",
      "value": {
        "_hex": "0x6f19dd2428c0000"
      },
      "nonce": 367,
      "data": "0x",
      "r": "0x9569139757af0ff29198cf1dd1a0f773a5e7ee1e4367777f2e4d8fa10ce65010",
      "s": "0x376169f2bf2dfaf504da192fa14f3730a8987cb0f9eaae8365f29e2a22cf8935",
      "v": 27,
      "creates": null,
      "raw": "0xf86f82016f850d25f5acfb8303d090948d304933a1f93f268bfdcff9ffe6846a751672798806f19dd2428c0000801ba09569139757af0ff29198cf1dd1a0f773a5e7ee1e4367777f2e4d8fa10ce65010a0376169f2bf2dfaf504da192fa14f3730a8987cb0f9eaae8365f29e2a22cf8935",
      "networkId": 0,
      "chainId": 0
    }
  ]
}