{
  "hash": "0x2451279f43be9e226ca546a1a65593ea15017c188c6d713bfadceaba32048c84",
  "parentHash": "0x981c64ce415e951c75abc415a907209f0aca30742eab0d71634619e373fe8704",
  "number": 46727,
  "timestamp": 1438928226,
  "nonce": "0xe77550ba7183f200",
  "difficulty": 1452496962667,
  "gasLimit": {
    "_hex": "0x74b9"
  },
  "gasUsed": {
    "_hex": "0x5208"
  },
  "miner": "0xbb7B8287f3F0a933474a79eAe42CBCa977791171",
  "extraData": "0x476574682f4c5649562f76312e302e312f6c696e75782f676f312e342e32",
  "transactions": [
    {
      "hash": "0x4ea0cd48e754008d4d783b73fd2d4a945e678e32a05fcb073beda5c4ec94f9b5",
      "blockHash": "0x2451279f43be9e226ca546a1a65593ea15017c188c6d713bfadceaba32048c84",
      "blockNumber": 46727,
      "transactionIndex": 0,
      "confirmations": null,
      "from": "0xf06D9Ad3b665226845A219eDaD87696fcE2Fb88E",
      "gasPrice": {
        "_hex": "0x45d964b800"
      },
      "gasLimit": {
        "_hex": "0x5208"
      },
      "to": "0x3b2367F8494B5Fe18d683c055d89999C9f3D1B34",
      "value": {
        "_hex": "0xde0b6b3a7640000"
      },
      "nonce": 2,
      "data": "0x",
      "r": "0x145c3528469202cf81c0d45e89ba3d8b11c1d1d32187e3c598d878ac58dfdbfc",
      "s": "0x494197a7367d3ec5a3b0da640052958a51ca8ea68c077d4676789eb399a49a59",
      "v": 28,
      "creates": null,
      "raw": "0xf86c028545d964b800825208943b2367f8494b5fe18d683c055d89999c9f3d1b34880de0b6b3a7640000801ca0145c3528469202cf81c0d45e89ba3d8b11c1d1d32187e3c598d878ac58dfdbfca0494197a7367d3ec5a3b0da640052958a51ca8ea68c077d4676789eb399a49a59",
      "networkId": 0,
      "chainId": 0
    }
  ]
}