{
  "hash": "0xbb55aae50a9a386b747a1b3d4d06f202b58bc3abaa8d7eb5e252cfe1ded47e5d",
  "parentHash": "0xe8074159a894ba222d09aa1b3bcc61762e24a8bdd6a9a359871e461f5e710c63",
  "number": 55050,
  "timestamp": 1439064635,
  "nonce": "0x9837aed972ab0317",
  "difficulty": 1624312935175,
  "gasLimit": {
    "_hex": "0x2fefd8"
  },
  "gasUsed": {
    "_hex": "0xf618"
  },
  "miner": "0xF2d2AfF1320476cb8C6b607199D23175cc595693",
  "extraData": "0x476574682f76312e302e312f77696e646f77732f676f312e342e32",
  "transactions": [
    {
      "hash": "0x3ac8a7cfb9f60476f15b6b45b6cfc2e855ffc2b59d6a3047280ad2c610177697",
      "blockHash": "0xbb55aae50a9a386b747a1b3d4d06f202b58bc3abaa8d7eb5e252cfe1ded47e5d",
      "blockNumber": 55050,
      "transactionIndex": 0,
      "confirmations": null,
      "from": "0x71Fe0c3ce24D9eD33E2219f515E485B142ED66fC",
      "gasPrice": {
        "_hex": "0xcdd03b872"
      },
      "gasLimit": {
        "_hex": "0x5208"
      },
      "to": "0x32Be343B94f860124dC4fEe278FDCBD38C102D88",
      "value": {
        "_hex": "0xddc97818a85b000"
      },
      "nonce": 0,
      "data": "0x",
      "r": "0x968de21f52b37cc4ed04d7208ed831387d01c356c6592394b2444b7e1f179bd5",
      "s": "0x5f805791e676d0707553017b98d2971e5700444ffbf919a0b39be62fd0fc0e36",
      "v": 28,
      "creates": null,
      "raw": "0xf86c80850cdd03b8728252089432be343b94f860124dc4fee278fdcbd38c102d88880ddc97818a85b000801ca0968de21f52b37cc4ed04d7208ed831387d01c356c6592394b2444b7e1f179bd5a05f805791e676d0707553017b98d2971e5700444ffbf919a0b39be62fd0fc0e36",
      "networkId": 0,
      "chainId": 0
    },
    {
      "hash": "0xa1448a96b10f97dc29f0b2a4369fdfdc714cc2c4381e0d52e33334d0544e950a",
      "blockHash": "0xbb55aae50a9a386b747a1b3d4d06f202b58bc3abaa8d7eb5e252cfe1ded47e5d",
      "blockNumber": 55050,
      "transactionIndex": 1,
      "confirmations": null,
      "from": "0x5edeF194D1fB66CDeB5ca06baC41be4f3E2D0BE2",
      "gasPrice": {
        "_hex": "0xcdd03b872"
      },
      "gasLimit": {
        "_hex": "0x5208"
      },
      "to": "0x32Be343B94f860124dC4fEe278FDCBD38C102D88",
      "value": {
        "_hex": "0x3cb6dd5eda879c000"
      },
      "nonce": 3,
      "data": "0x",
      "r": "0xff4123137ea672ad2f9500e7a8debb86d9108fd54e9188481451f80087482eff",
      "s": "0x414d43c1cef8d176bcc3f4d4b5888040d444344908952bd92875a45b7f9ee55c",
      "v": 28,
      "creates": null,
      "raw": "0xf86d03850cdd03b8728252089432be343b94f860124dc4fee278fdcbd38c102d888903cb6dd5eda879c000801ca0ff4123137ea672ad2f9500e7a8debb86d9108fd54e9188481451f80087482effa0414d43c1cef8d176bcc3f4d4b5888040d444344908952bd92875a45b7f9ee55c",
      "networkId": 0,
      "chainId": 0
    },
    {
      "hash": "0x258a34838a91cc50a3b69b7db631442042c8104ea6f244f8e11f5a5c6bcb7cba",
      "blockHash": "0xbb55aae50a9a386b747a1b3d4d06f202b58bc3abaa8d7eb5e252cfe1ded47e5d",
      "blockNumber": 55050,
      "transactionIndex": 2,
      "confirmations": null,
      "from": "0x60780933D9a5A8e8E3ab20CB6382cd314f04065F",
      "gasPrice": {
        "_hex": "0xcdd03b872"
      },
      "gasLimit": {
        "_hex": "0x5208"
      },
      "to": "0x32Be343B94f860124dC4fEe278FDCBD38C102D88",
      "value": {
        "_hex": "0x79c2916803f28800"
      },
      "nonce": 6,
      "data": "0x",
      "r": "0x657abfc20b99b1d5853cf562677ac2854b863cb180c974781d5104fac1406cbe",
      "s": "0x009d110075136ab43d911505ff6b9b73b28a271d998ba452e479dc31913fd81e",
      "v": 28,
      "creates": null,
      "raw": "0xf86b06850cdd03b8728252089432be343b94f860124dc4fee278fdcbd38c102d888879c2916803f28800801ca0657abfc20b99b1d5853cf562677ac2854b863cb180c974781d5104fac1406cbe9f9d110075136ab43d911505ff6b9b73b28a271d998ba452e479dc31913fd81e",
      "networkId": 0,
      "chainId": 0
    }
  ]
}