{
  "hash": "0x19fceecc5019eafdb515a237f5bcb81a006ae1677b567185135188eabb6ea657",
  "parentHash": "0x50aa78829eb495e1c5c2b8513ff0cf42333f4c547bee26948fe91c048ccbe754",
  "number": 90096,
  "timestamp": 1439634468,
  "nonce": "0x48c7a15569be34bd",
  "difficulty": 3318978864852,
  "gasLimit": {
    "_hex": "0x2fefd8"
  },
  "gasUsed": {
    "_hex": "0x5208"
  },
  "miner": "0xf927a40C8B7F6E07c5af7FA2155B4864a4112B13",
  "extraData": "0x",
  "transactions": [
    {
      "hash": "0x237861c563a472e71d3ba43a06ffb1fb6363a897f64ea90cf4ab1aba5637e0fb",
      "blockHash": "0x19fceecc5019eafdb515a237f5bcb81a006ae1677b567185135188eabb6ea657",
      "blockNumber": 90096,
      "transactionIndex": 0,
      "confirmations": null,
      "from": "0x393bDab930c8C8Ca9411C1f00026391edB284Ac9",
      "gasPrice": {
        "_hex": "0xcc4ff25a5"
      },
      "gasLimit": {
        "_hex": "0x5208"
      },
      "to": "0x32Be343B94f860124dC4fEe278FDCBD38C102D88",
      "value": {
        "_hex": "0x5817665cb1cb2c00000"
      },
      "nonce": 0,
      "data": "0x",
      "r": "0x155a7fa704ca5aa27d3ecd3509c7b5b68f11153304a73dcdbaa02830615db740",
      "s": "0x03d5ef4f5dbfac141a0e1f4cc344731889a61b704d7b4a60638ef30d0f651acf",
      "v": 27,
      "creates": null,
      "raw": "0xf86e80850cc4ff25a58252089432be343b94f860124dc4fee278fdcbd38c102d888a05817665cb1cb2c00000801ba0155a7fa704ca5aa27d3ecd3509c7b5b68f11153304a73dcdbaa02830615db740a003d5ef4f5dbfac141a0e1f4cc344731889a61b704d7b4a60638ef30d0f651acf",
      "networkId": 0,
      "chainId": 0
    }
  ]
}