{
  "hash": "0xa6b1b7448aa7e2aeb2f816899089abaa3f18dd8a96333707e6a4ef12fbb16878",
  "parentHash": "0xa3ba3685e0ddad053671371c9322a37e64329eaef62e9366fc3aa84b6e3f4f46",
  "number": 91350,
  "timestamp": 1439654279,
  "nonce": "0xabd9a76413f9cc20",
  "difficulty": 3474345505217,
  "gasLimit": {
    "_hex": "0x2fefd8"
  },
  "gasUsed": {
    "_hex": "0x5208"
  },
  "miner": "0xe6A7a1d47ff21B6321162AEA7C6CB457D5476Bca",
  "extraData": "0x476574682f76312e302e312d38326566323666362f6c696e75782f676f312e34",
  "transactions": [
    {
      "hash": "0x1bbb025c9ffec55ac59134dcdd48b455aa49cc787e00d1ed63c6daffb69571e0",
      "blockHash": "0xa6b1b7448aa7e2aeb2f816899089abaa3f18dd8a96333707e6a4ef12fbb16878",
      "blockNumber": 91350,
      "transactionIndex": 0,
      "confirmations": null,
      "from": "0x2910543Af39abA0Cd09dBb2D50200b3E800A63D2",
      "gasPrice": {
        "_hex": "0xd529f0f58"
      },
      "gasLimit": {
        "_hex": "0x5208"
      },
      "to": "0x43eDA77C4B1A04c9903688C1Aa10FEa84f046571",
      "value": {
        "_hex": "0x114193d177e658000"
      },
      "nonce": 802,
      "data": "0x",
      "r": "0xd34a0aeb6200f75aea9c2b52a1f683a78e75a8b2bae26a8a017d7d405d36a8ba",
      "s": "0x484bb894a5d7bd72fc26d252550f789dffbed4e27a46eb6d3cc704bf3572a584",
      "v": 28,
      "creates": null,
      "raw": "0xf86f820322850d529f0f588252089443eda77c4b1a04c9903688c1aa10fea84f046571890114193d177e658000801ca0d34a0aeb6200f75aea9c2b52a1f683a78e75a8b2bae26a8a017d7d405d36a8baa0484bb894a5d7bd72fc26d252550f789dffbed4e27a46eb6d3cc704bf3572a584",
      "networkId": 0,
      "chainId": 0
    }
  ]
}