{
  "hash": "0xd9939f312f0877e9c40369b1a33d195c189380c136b52e7f2b7f2ae9d7bc0566",
  "parentHash": "0xa569cfa59ae63eb7e6f3612a52f314b6a64b9b147f8c731d846595fde9dd0f7d",
  "number": 46575,
  "timestamp": 1438925587,
  "nonce": "0x7700b5ebbb05513a",
  "difficulty": 1458208297719,
  "gasLimit": {
    "_hex": "0x6988"
  },
  "gasUsed": {
    "_hex": "0x5208"
  },
  "miner": "0x6e9E0a2aAa3c4d41aa69f4E7328095278284f7e2",
  "extraData": "0x476574682f76312e302e312f6c696e75782f676f312e342e32",
  "transactions": [
    {
      "hash": "0xdc1c2cc2bdc83fc131798e94f63e6160afc59f6ea43352feb7d43a97a657f634",
      "blockHash": "0xd9939f312f0877e9c40369b1a33d195c189380c136b52e7f2b7f2ae9d7bc0566",
      "blockNumber": 46575,
      "transactionIndex": 0,
      "confirmations": null,
      "from": "0x4BD5f0Ee173C81d42765154865EE69361b6aD189",
      "gasPrice": {
        "_hex": "0x746a528800"
      },
      "gasLimit": {
        "_hex": "0x5b04"
      },
      "to": "0xFD7c9117BbEB649d9b37B3D3C9917f7c12f526B3",
      "value": {
        "_hex": "0x4563918244f40000"
      },
      "nonce": 2,
      "data": "0x",
      "r": "0x5eec83967cabf3e87f522739fff70ea03d8e1e9de6908aee25ea36574d39e10c",
      "s": "0x00c2ddc72415c3385a4f584f1a4ebd03b6f3dc58a9e25f49a93d62cb9870211f",
      "v": 28,
      "creates": null,
      "raw": "0xf86b0285746a528800825b0494fd7c9117bbeb649d9b37b3d3c9917f7c12f526b3884563918244f40000801ca05eec83967cabf3e87f522739fff70ea03d8e1e9de6908aee25ea36574d39e10c9fc2ddc72415c3385a4f584f1a4ebd03b6f3dc58a9e25f49a93d62cb9870211f",
      "networkId": 0,
      "chainId": 0
    }
  ]
}