{
  "hash": "0x940cfd46ea2660a1a4c1218acecb8d9f12f2b3a36f0f72a1c4a6de0321490790",
  "parentHash": "0xd5fc9a51c5449a973e5dbd3e8fa90dd56f72a8b0da3e2ead7fb645c86eb6038a",
  "number": 107498,
  "timestamp": 1439923336,
  "nonce": "0x68509429f55db456",
  "difficulty": 4430880543269,
  "gasLimit": {
    "_hex": "0x2fefd8"
  },
  "gasUsed": {
    "_hex": "0x5208"
  },
  "miner": "0xC5e0Fa35fA08dFBD5f9268fEa7a40e25244d8306",
  "extraData": "0x476574682f76312e302e312f6c696e75782f676f312e342e32",
  "transactions": [
    {
      "hash": "0xfef26f40e14023589714a946e61e07382738cfe9b37d452bf2870bb6a637d9c9",
      "blockHash": "0x940cfd46ea2660a1a4c1218acecb8d9f12f2b3a36f0f72a1c4a6de0321490790",
      "blockNumber": 107498,
      "transactionIndex": 0,
      "confirmations": null,
      "from": "0xe3002160DEbB2936e6ca494ed36F28056ed7aEfd",
      "gasPrice": {
        "_hex": "0xd013634da"
      },
      "gasLimit": {
        "_hex": "0x55f0"
      },
      "to": "0xF161498A7f225A91C338015ca11833B3399393A8",
      "value": {
        "_hex": "0x5dacd13ca9e300000"
      },
      "nonce": 1,
      "data": "0x",
      "r": "0xf40b153e19bda8cc299d89f17941bbd0c41a42fa5865d5b17292d403a8fc8298",
      "s": "0x1b81a8db905258047d6dfdd919932fbc7ede478a382cdee2d129b4754e80b8e2",
      "v": 28,
      "creates": null,
      "raw": "0xf86d01850d013634da8255f094f161498a7f225a91c338015ca11833b3399393a88905dacd13ca9e300000801ca0f40b153e19bda8cc299d89f17941bbd0c41a42fa5865d5b17292d403a8fc8298a01b81a8db905258047d6dfdd919932fbc7ede478a382cdee2d129b4754e80b8e2",
      "networkId": 0,
      "chainId": 0
    }
  ]
}