{
  "hash": "0x4c99ccd0eb5f45aed981faff02a2a208f8a99f5366cf2ddfe79d64cd95059686",
  "parentHash": "0x294f81de704b9daa0cd6abf0fdd482d782bcaa8e641b2b3dcd091feb2a6c372c",
  "number": 103644,
  "timestamp": 1439856718,
  "nonce": "0x27c21d01f904b1bc",
  "difficulty": 4197001160476,
  "gasLimit": {
    "_hex": "0x2fefd8"
  },
  "gasUsed": {
    "_hex": "0x5208"
  },
  "miner": "0xe6A7a1d47ff21B6321162AEA7C6CB457D5476Bca",
  "extraData": "0x476574682f76312e302e312d38326566323666362f6c696e75782f676f312e34",
  "transactions": [
    {
      "hash": "0xa8162f37ac0a2871de34a491159cea03da9acbcd5a964631800657930c28f167",
      "blockHash": "0x4c99ccd0eb5f45aed981faff02a2a208f8a99f5366cf2ddfe79d64cd95059686",
      "blockNumber": 103644,
      "transactionIndex": 0,
      "confirmations": null,
      "from": "0xD9666150A9dA92d9108198a4072970805a8B3428",
      "gasPrice": {
        "_hex": "0xd463d6923"
      },
      "gasLimit": {
        "_hex": "0x5208"
      },
      "to": "0x32Be343B94f860124dC4fEe278FDCBD38C102D88",
      "value": {
        "_hex": "0x455f44807a209c00"
      },
      "nonce": 63,
      "data": "0x",
      "r": "0x148a97c179a5954e055832361a29aa9265c4d309c0c342e9a80d88882814024e",
      "s": "0x2dac6e167d13844fba0cb4b381a5f4f0d7eb411a95ce7ebad1d0b6d18e7ec65c",
      "v": 28,
      "creates": null,
      "raw": "0xf86c3f850d463d69238252089432be343b94f860124dc4fee278fdcbd38c102d8888455f44807a209c00801ca0148a97c179a5954e055832361a29aa9265c4d309c0c342e9a80d88882814024ea02dac6e167d13844fba0cb4b381a5f4f0d7eb411a95ce7ebad1d0b6d18e7ec65c",
      "networkId": 0,
      "chainId": 0
    }
  ]
}