{
  "hash": "0x947d34ca412facf05a39335f3a1eb0a318e412578b9cc49ca35a1bb363cfa58d",
  "parentHash": "0x38a73cc4562841ee7c4eb10a3418207782b9fb989c1072aa3342c4e84912f8cd",
  "number": 89632,
  "timestamp": 1439626598,
  "nonce": "0x4310634e9b433ae7",
  "difficulty": 3315922665334,
  "gasLimit": {
    "_hex": "0x2fefd8"
  },
  "gasUsed": {
    "_hex": "0xa410"
  },
  "miner": "0xe6A7a1d47ff21B6321162AEA7C6CB457D5476Bca",
  "extraData": "0x476574682f76312e302e312d38326566323666362f6c696e75782f676f312e34",
  "transactions": [
    {
      "hash": "0x9b3e599e587b31bb5a438e72d8594a5b58ed19bc2ad7a302f0f86d09903ee149",
      "blockHash": "0x947d34ca412facf05a39335f3a1eb0a318e412578b9cc49ca35a1bb363cfa58d",
      "blockNumber": 89632,
      "transactionIndex": 0,
      "confirmations": null,
      "from": "0x2e29Ce99617fa737a66E4e9aF7595496b9448822",
      "gasPrice": {
        "_hex": "0xd0e00de54"
      },
      "gasLimit": {
        "_hex": "0x15f90"
      },
      "to": "0xF4f2C15602B084Cae84Ea603f75527DE19705aA1",
      "value": {
        "_hex": "0x1bc16d674ec80000"
      },
      "nonce": 2,
      "data": "0x",
      "r": "0x3ff4966eaea03b89b54d00c73ddd5c81221c550588094bf93efa17646d40b21b",
      "s": "0x419fb61b4b17506541193f6297eee8129c7d3bd5ed15a9aa30565f8156443289",
      "v": 27,
      "creates": null,
      "raw": "0xf86d02850d0e00de5483015f9094f4f2c15602b084cae84ea603f75527de19705aa1881bc16d674ec80000801ba03ff4966eaea03b89b54d00c73ddd5c81221c550588094bf93efa17646d40b21ba0419fb61b4b17506541193f6297eee8129c7d3bd5ed15a9aa30565f8156443289",
      "networkId": 0,
      "chainId": 0
    },
    {
      "hash": "0xecf61e24439a6425775f72bd12f907d43d527d6ee3108b270f5d6d3b01881150",
      "blockHash": "0x947d34ca412facf05a39335f3a1eb0a318e412578b9cc49ca35a1bb363cfa58d",
      "blockNumber": 89632,
      "transactionIndex": 1,
      "confirmations": null,
      "from": "0x2e29Ce99617fa737a66E4e9aF7595496b9448822",
      "gasPrice": {
        "_hex": "0xd0e00de54"
      },
      "gasLimit": {
        "_hex": "0x15f90"
      },
      "to": "0xF4f2C15602B084Cae84Ea603f75527DE19705aA1",
      "value": {
        "_hex": "0x1bc16d674ec80000"
      },
      "nonce": 3,
      "data": "0x",
      "r": "0x6d52f6a7b0875260ab0ee9526101b83420f7952b885402615c1e505bf313698d",
      "s": "0x7ccb528e9c386025b69627e927bd252e6be4dca8b65cc9c373f236ab12a4b539",
      "v": 28,
      "creates": null,
      "raw": "0xf86d03850d0e00de5483015f9094f4f2c15602b084cae84ea603f75527de19705aa1881bc16d674ec80000801ca06d52f6a7b0875260ab0ee9526101b83420f7952b885402615c1e505bf313698da07ccb528e9c386025b69627e927bd252e6be4dca8b65cc9c373f236ab12a4b539",
      "networkId": 0,
      "chainId": 0
    }
  ]
}