{
  "hash": "0x03575cb1bf4fcb8171384bf18cf06b33adc524ce5cb091ff478a41910a87dbd1",
  "parentHash": "0x3ee2a81cea0dcb739796285520c8630917a1cb8d8a282a0456b65f6863877501",
  "number": 73487,
  "timestamp": 1439370040,
  "nonce": "0x3bf0cfddce21ea3a",
  "difficulty": 2214216903866,
  "gasLimit": {
    "_hex": "0x2fefd8"
  },
  "gasUsed": {
    "_hex": "0x5208"
  },
  "miner": "0xec97362a3F81323111b2AaAde44c15794Cec9437",
  "extraData": "0xda8098302e392e34302b2b302d524c696e75782f672b2b2f696e74",
  "transactions": [
    {
      "hash": "0x98ee35d173ae88a7f1852fd141c79576a9c4e906499dcd5e11f625055b3bc634",
      "blockHash": "0x03575cb1bf4fcb8171384bf18cf06b33adc524ce5cb091ff478a41910a87dbd1",
      "blockNumber": 73487,
      "transactionIndex": 0,
      "confirmations": null,
      "from": "0x32Be343B94f860124dC4fEe278FDCBD38C102D88",
      "gasPrice": {
        "_hex": "0xcf8b1e31d"
      },
      "gasLimit": {
        "_hex": "0x5208"
      },
      "to": "0xae48a7cD6c910C912aA01a321e76E7358b573373",
      "value": {
        "_hex": "0x1b8fb07a4bed0000"
      },
      "nonce": 292,
      "data": "0x",
      "r": "0xb0542cb70462a54c3838e32c5ec4302d0e22a27fbce01becfa79a62783947854",
      "s": "0x4192f41ad8303cb46b9927c6fd32b472831662dba776b45abfa01a85d15dbac5",
      "v": 28,
      "creates": null,
      "raw": "0xf86e820124850cf8b1e31d82520894ae48a7cd6c910c912aa01a321e76e7358b573373881b8fb07a4bed0000801ca0b0542cb70462a54c3838e32c5ec4302d0e22a27fbce01becfa79a62783947854a04192f41ad8303cb46b9927c6fd32b472831662dba776b45abfa01a85d15dbac5",
      "networkId": 0,
      "chainId": 0
    }
  ]
}