{
  "hash": "0x0efe007ba9cc67ddadb0a4be06c33334519c14b1b6596cfde0f7a270f91a1b83",
  "parentHash": "0x0b83e9c9fd6656988939dad47c34442d2965264618b658327656e322aa3d669e",
  "number": 120911,
  "timestamp": 1440168129,
  "nonce": "0x9cb93e663c8ea1bc",
  "difficulty": 4434614920480,
  "gasLimit": {
    "_hex": "0x2fefd8"
  },
  "gasUsed": {
    "_hex": "0x5208"
  },
  "miner": "0xbb7B8287f3F0a933474a79eAe42CBCa977791171",
  "extraData": "0xd783010003844765746887676f312e342e32856c696e7578",
  "transactions": [
    {
      "hash": "0x6c30945243b03ae3d6cc0d1a225a8908d3fe0f1f582f45e96242dfc7628bdc02",
      "blockHash": "0x0efe007ba9cc67ddadb0a4be06c33334519c14b1b6596cfde0f7a270f91a1b83",
      "blockNumber": 120911,
      "transactionIndex": 0,
      "confirmations": null,
      "from": "0x608f4b86321a68453f9adf6F06F7Fc3E621739ad",
      "gasPrice": {
        "_hex": "0xba43b7400"
      },
      "gasLimit": {
        "_hex": "0x5208"
      },
      "to": "0x32Be343B94f860124dC4fEe278FDCBD38C102D88",
      "value": {
        "_hex": "0x455fd68a17f06000"
      },
      "nonce": 85,
      "data": "0x",
      "r": "0xddddb5f0d29a6dd131a180846d0a95adcc5da6004cccef443d05eec9d257c5a0",
      "s": "0x72ed627b4a9505427bdd79bcf4121c6a1e56e8aaa46c350f075b0a97fa19aaa7",
      "v": 27,
      "creates": null,
      "raw": "0xf86c55850ba43b74008252089432be343b94f860124dc4fee278fdcbd38c102d8888455fd68a17f06000801ba0ddddb5f0d29a6dd131a180846d0a95adcc5da6004cccef443d05eec9d257c5a0a072ed627b4a9505427bdd79bcf4121c6a1e56e8aaa46c350f075b0a97fa19aaa7",
      "networkId": 0,
      "chainId": 0
    }
  ]
}