{
  "hash": "0xe5ba6a8e42a2eb94e8e94d011104c5efcfe758e1cfbe7760107990e04b63ef3c",
  "parentHash": "0x262193b209930b403a7d44b577e31dbf9198b419a48f71ded35d54957cccf8df",
  "number": 71324,
  "timestamp": 1439334194,
  "nonce": "0x2d0e805966d5d6da",
  "difficulty": 2168770794763,
  "gasLimit": {
    "_hex": "0x2fefd8"
  },
  "gasUsed": {
    "_hex": "0x5208"
  },
  "miner": "0x3222BA3F3e79eA0e31467EEE7639B57923558cCD",
  "extraData": "0x",
  "transactions": [
    {
      "hash": "0xef90a1ad0d4f98562485c42b8d9844a3ac4be0f2bee475fcd6fe22ff40fb8947",
      "blockHash": "0xe5ba6a8e42a2eb94e8e94d011104c5efcfe758e1cfbe7760107990e04b63ef3c",
      "blockNumber": 71324,
      "transactionIndex": 0,
      "confirmations": null,
      "from": "0xcd3078E3E503acB396F88661da737735cc02222A",
      "gasPrice": {
        "_hex": "0x746a528800"
      },
      "gasLimit": {
        "_hex": "0x5b04"
      },
      "to": "0x2910543Af39abA0Cd09dBb2D50200b3E800A63D2",
      "value": {
        "_hex": "0x0"
      },
      "nonce": 0,
      "data": "0x",
      "r": "0x94653b603465d70c4704b242912d9b54645adb3f30d36c8fc704b6ff48650ed6",
      "s": "0x44a797178032eb5754076aee7bb5a8e1ff7bc5554c3eeaf21eb959a2d2f2019f",
      "v": 28,
      "creates": null,
      "raw": "0xf8648085746a528800825b04942910543af39aba0cd09dbb2d50200b3e800a63d280801ca094653b603465d70c4704b242912d9b54645adb3f30d36c8fc704b6ff48650ed6a044a797178032eb5754076aee7bb5a8e1ff7bc5554c3eeaf21eb959a2d2f2019f",
      "networkId": 0,
      "chainId": 0
    }
  ]
}