{
  "hash": "0x3d3ef5e78ec80d9cce16a0ab6f685ac1ec5fb2900bbb41806705e7c38bf941fd",
  "parentHash": "0x706787fcf230a6803a2fd9dc5af636d7da6725c71fe014fea3408dc7b7526c59",
  "number": 103206,
  "timestamp": 1439849500,
  "nonce": "0xecb62c3b41fd36b7",
  "difficulty": 4189030610844,
  "gasLimit": {
    "_hex": "0x2fefd8"
  },
  "gasUsed": {
    "_hex": "0x5208"
  },
  "miner": "0xe6A7a1d47ff21B6321162AEA7C6CB457D5476Bca",
  "extraData": "0x476574682f76312e302e312d38326566323666362f6c696e75782f676f312e34",
  "transactions": [
    {
      "hash": "0x171b7e3259ec172ceaf2be40e40ea69d40d6f0f3daf0c2fa5e8561346d80b6d1",
      "blockHash": "0x3d3ef5e78ec80d9cce16a0ab6f685ac1ec5fb2900bbb41806705e7c38bf941fd",
      "blockNumber": 103206,
      "transactionIndex": 0,
      "confirmations": null,
      "from": "0x5aB1A5615348001C7c775dc75748669B8be4dE14",
      "gasPrice": {
        "_hex": "0xd2deff6fb"
      },
      "gasLimit": {
        "_hex": "0x5208"
      },
      "to": "0x1527aa63acA3571334eb52676906b15d0C732154",
      "value": {
        "_hex": "0x256a6ec20999ffe228"
      },
      "nonce": 0,
      "data": "0x",
      "r": "0x19c163353ab887aba94e465e46bf65001f78292c9f33c276390b803725f4f8ed",
      "s": "0x3fb881be03a392043c56ef6fda27862a5b1816536bfea53372c0cad6d837d9cd",
      "v": 28,
      "creates": null,
      "raw": "0xf86d80850d2deff6fb825208941527aa63aca3571334eb52676906b15d0c73215489256a6ec20999ffe228801ca019c163353ab887aba94e465e46bf65001f78292c9f33c276390b803725f4f8eda03fb881be03a392043c56ef6fda27862a5b1816536bfea53372c0cad6d837d9cd",
      "networkId": 0,
      "chainId": 0
    }
  ]
}