{
  "hash": "0xe97bdca22d05c9cb413ad8ae3b45556076a41efb8c4a6973b78b43481dc5513c",
  "parentHash": "0x6ff2407d7001ef594235f0866623f23e6f4b1ca7ceee8aff2d5815abe62ff01f",
  "number": 66352,
  "timestamp": 1439253020,
  "nonce": "0xb675164e28de1e36",
  "difficulty": 1939535604512,
  "gasLimit": {
    "_hex": "0x2fefd8"
  },
  "gasUsed": {
    "_hex": "0x5208"
  },
  "miner": "0x580992B51e3925e23280EfB93d3047C82f17E038",
  "extraData": "0x476574682f76312e302e312f6c696e75782f676f312e342e32",
  "transactions": [
    {
      "hash": "0xcd4fb89f99a1cd4e10d64e115b39a84e86bc4af419f99675c7a121aa41455a04",
      "blockHash": "0xe97bdca22d05c9cb413ad8ae3b45556076a41efb8c4a6973b78b43481dc5513c",
      "blockNumber": 66352,
      "transactionIndex": 0,
      "confirmations": null,
      "from": "0x4c74B6F32c9680aCB5Fe0e72B7Aa95C612540A04",
      "gasPrice": {
        "_hex": "0xd4f0130ba"
      },
      "gasLimit": {
        "_hex": "0x5208"
      },
      "to": "0x32Be343B94f860124dC4fEe278FDCBD38C102D88",
      "value": {
        "_hex": "0x56bc31a74cba90000"
      },
      "nonce": 12,
      "data": "0x",
      "r": "0x79f0d7ee4db6423262f47fa3b9d6054a7b8375f7cae12485c5a94c7c0df183ba",
      "s": "0x66e711abeddf751cf229026058e73771a4eae32d1b5d81760401f9d4d5fa7f17",
      "v": 28,
      "creates": null,
      "raw": "0xf86d0c850d4f0130ba8252089432be343b94f860124dc4fee278fdcbd38c102d8889056bc31a74cba90000801ca079f0d7ee4db6423262f47fa3b9d6054a7b8375f7cae12485c5a94c7c0df183baa066e711abeddf751cf229026058e73771a4eae32d1b5d81760401f9d4d5fa7f17",
      "networkId": 0,
      "chainId": 0
    }
  ]
}