{
  "hash": "0xa19415f9326fa543cab4fa043bec83cf854a9a7944c4128c7671174a3403727f",
  "parentHash": "0xb2f0697380205bd1e069142bb876ff7d9da25c3904857d4e0001ae83305d7881",
  "number": 52560,
  "timestamp": 1439023512,
  "nonce": "0x5bbd0a2b799b2037",
  "difficulty": 1567134720283,
  "gasLimit": {
    "_hex": "0x1578a1"
  },
  "gasUsed": {
    "_hex": "0xf4240"
  },
  "miner": "0xB4f6A8f7Cd91Cd4bcADcc0a20e417c392E5f50A4",
  "extraData": "0x57686f2061726520796f753f",
  "transactions": [
    {
      "hash": "0xa7f728481509e244070d1d03c3b7906dc0e19ad428e0e5f1e56bede4f895cccf",
      "blockHash": "0xa19415f9326fa543cab4fa043bec83cf854a9a7944c4128c7671174a3403727f",
      "blockNumber": 52560,
      "transactionIndex": 0,
      "confirmations": null,
      "from": "0x54dAeb3E8a6BBC797E4aD2b0339f134b186e4637",
      "gasPrice": {
        "_hex": "0xe7d27df17"
      },
      "gasLimit": {
        "_hex": "0x7a120"
      },
      "to": "0xBAA54d6E90c3F4d7Ebec11bD180134C7eD8eBb52",
      "value": {
        "_hex": "0x16345785d8a0000"
      },
      "nonce": 722,
      "data": "0x",
      "r": "0x806919c271c049471bb844887ff35cc04b6294ad68162d84660dcb082bed9f9a",
      "s": "0x40fbcdf6ade88d2c21e65649487f92c101b65eaf4e88c895b02aca4eb9011ff3",
      "v": 27,
      "creates": null,
      "raw": "0xf86f8202d2850e7d27df178307a12094baa54d6e90c3f4d7ebec11bd180134c7ed8ebb5288016345785d8a0000801ba0806919c271c049471bb844887ff35cc04b6294ad68162d84660dcb082bed9f9aa040fbcdf6ade88d2c21e65649487f92c101b65eaf4e88c895b02aca4eb9011ff3",
      "networkId": 0,
      "chainId": 0
    },
    {
      "hash": "0xe64de79d1cbb676b969b865957175b7a01e9daeb9f2d01844d9f859b452c2fe7",
      "blockHash": "0xa19415f9326fa543cab4fa043bec83cf854a9a7944c4128c7671174a3403727f",
      "blockNumber": 52560,
      "transactionIndex": 1,
      "confirmations": null,
      "from": "0x54dAeb3E8a6BBC797E4aD2b0339f134b186e4637",
      "gasPrice": {
        "_hex": "0xe7d27df17"
      },
      "gasLimit": {
        "_hex": "0x7a120"
      },
      "to": "0xBAA54d6E90c3F4d7Ebec11bD180134C7eD8eBb52",
      "value": {
        "_hex": "0x16345785d8a0000"
      },
      "nonce": 723,
      "data": "0x",
      "r": "0x38e9c65c0caed1da682972d65f70831fb247e6ec9ae7e6df39ece7201488c3fc",
      "s": "0x1f69ffe36545ae5e3ab637339858c816e262a121eb84ea1ddd8dc1d4ec88e2fb",
      "v": 27,
      "creates": null,
      "raw": "0xf86f8202d3850e7d27df178307a12094baa54d6e90c3f4d7ebec11bd180134c7ed8ebb5288016345785d8a0000801ba038e9c65c0caed1da682972d65f70831fb247e6ec9ae7e6df39ece7201488c3fca01f69ffe36545ae5e3ab637339858c816e262a121eb84ea1ddd8dc1d4ec88e2fb",
      "networkId": 0,
      "chainId": 0
    }
  ]
}