{
  "hash": "0xad3db391edf26bf98ecb171cd5c14c747cc359f03bf08d114cedc791f3c614a1",
  "parentHash": "0xb75dc1406a96ae1d4e69477c6adb8462bef5daa31ea72a48edc36f93c0f0e10b",
  "number": 114761,
  "timestamp": 1440045942,
  "nonce": "0x65a4325f72afe292",
  "difficulty": 4455236616649,
  "gasLimit": {
    "_hex": "0x2fefd8"
  },
  "gasUsed": {
    "_hex": "0x5208"
  },
  "miner": "0xe6A7a1d47ff21B6321162AEA7C6CB457D5476Bca",
  "extraData": "0x476574682f76312e302e312d38326566323666362f6c696e75782f676f312e34",
  "transactions": [
    {
      "hash": "0x81dd37ec1de76c7168ae16bda4d791c0c191407cbcfa8297dfab6459ce65c480",
      "blockHash": "0xad3db391edf26bf98ecb171cd5c14c747cc359f03bf08d114cedc791f3c614a1",
      "blockNumber": 114761,
      "transactionIndex": 0,
      "confirmations": null,
      "from": "0x4A2D52D0898f560E53cdf4585A034517c06d0544",
      "gasPrice": {
        "_hex": "0xba43b7400"
      },
      "gasLimit": {
        "_hex": "0x5208"
      },
      "to": "0xC47Aaa860008be6f65B58c6C6E02a84e666EfE31",
      "value": {
        "_hex": "0x268c0864fc18f800"
      },
      "nonce": 4,
      "data": "0x",
      "r": "0x1b0ece4ef301f55eb26c24558ee2fd723ac61d4aa43c7d311d7cbc1888241e32",
      "s": "0x0ac2c6f3cb570f53225db8fdb5b824463ff817d4ee9713dc5b1a4162508bedc0",
      "v": 28,
      "creates": null,
      "raw": "0xf86c04850ba43b740082520894c47aaa860008be6f65b58c6c6e02a84e666efe3188268c0864fc18f800801ca01b0ece4ef301f55eb26c24558ee2fd723ac61d4aa43c7d311d7cbc1888241e32a00ac2c6f3cb570f53225db8fdb5b824463ff817d4ee9713dc5b1a4162508bedc0",
      "networkId": 0,
      "chainId": 0
    }
  ]
}