{
  "hash": "0xfcf0851b8dd1e07e56bd2c6fb29130ac573fc1be518adbfb415e4ddc6a136f6a",
  "parentHash": "0x2a0a3bba5f16f566e2c3b5c57fead519ed98074952b6f91b650c8c67b3286455",
  "number": 80007,
  "timestamp": 1439478671,
  "nonce": "0x0cfe3a32b134b0e1",
  "difficulty": 2350594873583,
  "gasLimit": {
    "_hex": "0x2fefd8"
  },
  "gasUsed": {
    "_hex": "0x546c"
  },
  "miner": "0xEc98b7A32A91F21203E7DB60feABDA1eDD7ef5bb",
  "extraData": "0x476574682f76312e302e312f6c696e75782f676f312e342e32",
  "transactions": [
    {
      "hash": "0x118e95b7630ff1d2d13e3979fc7bd626411ce44cf3d0b0414dd6ea3a2ff13501",
      "blockHash": "0xfcf0851b8dd1e07e56bd2c6fb29130ac573fc1be518adbfb415e4ddc6a136f6a",
      "blockNumber": 80007,
      "transactionIndex": 0,
      "confirmations": null,
      "from": "0x303a30Ac4286aE17Cf483dAD7B870c6BD64D7b4A",
      "gasPrice": {
        "_hex": "0x110c8f7d8de"
      },
      "gasLimit": {
        "_hex": "0xc350"
      },
      "to": "0x2910543Af39abA0Cd09dBb2D50200b3E800A63D2",
      "value": {
        "_hex": "0x56bc75e2d63100000"
      },
      "nonce": 0,
      "data": "0x454e33434354545838",
      "r": "0x1abed25fa1e0593af58de363115b10db60a211c75cbf260b9faff0acbe7d747b",
      "s": "0x562490eef9901d2c4607ff1573dc21f95ba5f00b1689f2f616e3c045eab9d667",
      "v": 27,
      "creates": null,
      "raw": "0xf87780860110c8f7d8de82c350942910543af39aba0cd09dbb2d50200b3e800a63d289056bc75e2d6310000089454e334343545458381ba01abed25fa1e0593af58de363115b10db60a211c75cbf260b9faff0acbe7d747ba0562490eef9901d2c4607ff1573dc21f95ba5f00b1689f2f616e3c045eab9d667",
      "networkId": 0,
      "chainId": 0
    }
  ]
}