{
  "hash": "0xd9038bcd8a27891e34d8bc0341ead388f3534220809c106bd88ef2c78da72985",
  "parentHash": "0x7cc6d84d20e6b5649fd8908ca11c938cd0b21604531762da5f61d14ff56f4b45",
  "number": 51522,
  "timestamp": 1439006280,
  "nonce": "0x589c5f5cc479041e",
  "difficulty": 1565798800972,
  "gasLimit": {
    "_hex": "0xbab7f"
  },
  "gasUsed": {
    "_hex": "0x7f58c"
  },
  "miner": "0xe6A7a1d47ff21B6321162AEA7C6CB457D5476Bca",
  "extraData": "0x657468706f6f6c2e6f7267",
  "transactions": [
    {
      "hash": "0x070be7ac3892d59aa068daf56bd31398a73585158df3a8be80f30c1d962dab93",
      "blockHash": "0xd9038bcd8a27891e34d8bc0341ead388f3534220809c106bd88ef2c78da72985",
      "blockNumber": 51522,
      "transactionIndex": 0,
      "confirmations": null,
      "from": "0x123843545FB525C8E134c9A5F15ADA6865cc3848",
      "gasPrice": {
        "_hex": "0xe0f41cce0"
      },
      "gasLimit": {
        "_hex": "0x7530"
      },
      "to": "0x2910543Af39abA0Cd09dBb2D50200b3E800A63D2",
      "value": {
        "_hex": "0x77b227cd83be80000"
      },
      "nonce": 3,
      "data": "0x454e3651304d384252",
      "r": "0xb6ab3001eaa44106ff539f2c73f526772bac2d1df409448c770d92bab16fe4a7",
      "s": "0x6162a8bd44d753fedb9ab940e02813ec0aeb27084c8fdd1dcbc28a2940e54fde",
      "v": 28,
      "creates": null,
      "raw": "0xf87603850e0f41cce0827530942910543af39aba0cd09dbb2d50200b3e800a63d289077b227cd83be8000089454e3651304d3842521ca0b6ab3001eaa44106ff539f2c73f526772bac2d1df409448c770d92bab16fe4a7a06162a8bd44d753fedb9ab940e02813ec0aeb27084c8fdd1dcbc28a2940e54fde",
      "networkId": 0,
      "chainId": 0
    },
    {
      "hash": "0x687dd032fe3cc15da45225f8bd9e4b10fc99ef5396773f85ef354791d914f205",
      "blockHash": "0xd9038bcd8a27891e34d8bc0341ead388f3534220809c106bd88ef2c78da72985",
      "blockNumber": 51522,
      "transactionIndex": 1,
      "confirmations": null,
      "from": "0x7C4401aE98F12eF6de39aE24cf9fc51f80EBa16B",
      "gasPrice": {
        "_hex": "0xe02c4d2bc"
      },
      "gasLimit": {
        "_hex": "0x7a120"
      },
      "to": "0x109C4f2CCc82C4d77Bde15F306707320294Aea3F",
      "value": {
        "_hex": "0xde0b6b3a7640000"
      },
      "nonce": 5,
      "data": "0x",
      "r": "0x261808d34c2abe6cbcd07950e33920f46ff621fc655905fa336e6454c95d1476",
      "s": "0x5e4cd4e4536adabef2a636b2872bc2127f56e6db5566888afb787b5ddba2c7b5",
      "v": 28,
      "creates": null,
      "raw": "0xf86d05850e02c4d2bc8307a12094109c4f2ccc82c4d77bde15f306707320294aea3f880de0b6b3a7640000801ca0261808d34c2abe6cbcd07950e33920f46ff621fc655905fa336e6454c95d1476a05e4cd4e4536adabef2a636b2872bc2127f56e6db5566888afb787b5ddba2c7b5",
      "networkId": 0,
      "chainId": 0
    }
  ]
}