{
  "hash": "0xd182911d0dce2c100af1226980cf23d775958724266888a3238bb91fbbb635a3",
  "parentHash": "0x0bf333c4d88c77aef380ceb6e71c64f661eb4e0b7de13a47c2aee52a6feb7d48",
  "number": 80569,
  "timestamp": 1439487427,
  "nonce": "0xfb55b228475c7c0b",
  "difficulty": 2420316496997,
  "gasLimit": {
    "_hex": "0x2fefd8"
  },
  "gasUsed": {
    "_hex": "0xaa37"
  },
  "miner": "0x63BBedc46A1113Ba7938CF7C18CCb5Aed20eC733",
  "extraData": "0x",
  "transactions": [
    {
      "hash": "0x537cd452f06d31949e8999d43b8a601e5ffbdaeeffbc67448f424e1a1eec8f3c",
      "blockHash": "0xd182911d0dce2c100af1226980cf23d775958724266888a3238bb91fbbb635a3",
      "blockNumber": 80569,
      "transactionIndex": 0,
      "confirmations": null,
      "from": "0x87C5B5874A18B4306DF8a752a6C8cc3E82daFc19",
      "gasPrice": {
        "_hex": "0x10b3c1c7ef1"
      },
      "gasLimit": {
        "_hex": "0x493e0"
      },
      "to": "0xC4c51de1AbF5D60DBd329eC0F999Fd8f021ae9fC",
      "value": {
        "_hex": "0x0"
      },
      "nonce": 248,
      "data": "0x03750d9400000000000000000000000087c5b5874a18b4306df8a752a6c8cc3e82dafc196b6b6b0000000000000000000000000000000000000000000000000000000000",
      "r": "0x02a1de79d5e99ce27dcbf1eea85bd42360f74c84548e5b32c2554c8589846513",
      "s": "0x0d21776e8ddaf59061ae9ff5626e88e9cbcac47eaba0029ba7206a4b249f0d34",
      "v": 27,
      "creates": null,
      "raw": "0xf8ac81f886010b3c1c7ef1830493e094c4c51de1abf5d60dbd329ec0f999fd8f021ae9fc80b84403750d9400000000000000000000000087c5b5874a18b4306df8a752a6c8cc3e82dafc196b6b6b00000000000000000000000000000000000000000000000000000000001ba002a1de79d5e99ce27dcbf1eea85bd42360f74c84548e5b32c2554c8589846513a00d21776e8ddaf59061ae9ff5626e88e9cbcac47eaba0029ba7206a4b249f0d34",
      "networkId": 0,
      "chainId": 0
    }
  ]
}