{
  "hash": "0xeab6613ed7905f04488e10f5b43f6ab3e572879584a1a7b5b4af7e6c0612f55d",
  "parentHash": "0x571b445a7f5f38b2412ebf284a82d154d9a1bfcba077d6ac76bb1afddc6c6d3e",
  "number": 50652,
  "timestamp": 1438992581,
  "nonce": "0x4da6a7d5c401b617",
  "difficulty": 1526700994720,
  "gasLimit": {
    "_hex": "0x6f10d"
  },
  "gasUsed": {
    "_hex": "0x5208"
  },
  "miner": "0xA2Cb067D1B3038eEe446d994440C0ae9cf1abfdF",
  "extraData": "0x476574682f76312e302e312f77696e646f77732f676f312e342e32",
  "transactions": [
    {
      "hash": "0x04905f79f97d17d58b7467154a7a3576bb5ca28c554c8a997e64f3a0b9e3bba8",
      "blockHash": "0xeab6613ed7905f04488e10f5b43f6ab3e572879584a1a7b5b4af7e6c0612f55d",
      "blockNumber": 50652,
      "transactionIndex": 0,
      "confirmations": null,
      "from": "0xAb5199486803893a6dc1AD1D31612895300BCcA9",
      "gasPrice": {
        "_hex": "0xd7d40ace3"
      },
      "gasLimit": {
        "_hex": "0x7530"
      },
      "to": "0x5edeF194D1fB66CDeB5ca06baC41be4f3E2D0BE2",
      "value": {
        "_hex": "0xde0b6b3a7640000"
      },
      "nonce": 1,
      "data": "0x",
      "r": "0x4e15fcd8ad222eff5f9cb3b482e67b032ce2e3df5691517b92a6fe278885a42d",
      "s": "0x3eb6ea18f3b4894c64655d0d0451254e90bca7cfa46491a782f14ab43671202d",
      "v": 28,
      "creates": null,
      "raw": "0xf86c01850d7d40ace3827530945edef194d1fb66cdeb5ca06bac41be4f3e2d0be2880de0b6b3a7640000801ca04e15fcd8ad222eff5f9cb3b482e67b032ce2e3df5691517b92a6fe278885a42da03eb6ea18f3b4894c64655d0d0451254e90bca7cfa46491a782f14ab43671202d",
      "networkId": 0,
      "chainId": 0
    }
  ]
}