{
  "hash": "0x470b090567d9b044c8d88f88f65bad71a1e1cf433c0d838bfa0f9f84549df972",
  "parentHash": "0xb1fa095907a340b9e8e99972eccc651ac9574dba639f41cc4790477d3327fb4b",
  "number": 105158,
  "timestamp": 1439882845,
  "nonce": "0x369478ff956cc1e1",
  "difficulty": 4299951924974,
  "gasLimit": {
    "_hex": "0x2fefd8"
  },
  "gasUsed": {
    "_hex": "0x5208"
  },
  "miner": "0xA1623430350C5df1b52B0b57483A5bb45d1796Da",
  "extraData": "0x476574682f76312e302e312d38326566323666362f6c696e75782f676f312e34",
  "transactions": [
    {
      "hash": "0x462cb7e44689908705715156b66b18e60db2594aabd41ed0731b154ce260e54f",
      "blockHash": "0x470b090567d9b044c8d88f88f65bad71a1e1cf433c0d838bfa0f9f84549df972",
      "blockNumber": 105158,
      "transactionIndex": 0,
      "confirmations": null,
      "from": "0x7884D470204862a0d1A21122F41ee77430396Ee5",
      "gasPrice": {
        "_hex": "0xccc04c139"
      },
      "gasLimit": {
        "_hex": "0x15f90"
      },
      "to": "0xE46181d0089f5D0e0e4668eE7AB335893BDB58bf",
      "value": {
        "_hex": "0x6f05b59d3b20000"
      },
      "nonce": 104,
      "data": "0x",
      "r": "0xfd0d6cb9451819143197c159c8b38827a16c424beb4f0107c4a2b1b792c10dc2",
      "s": "0x472b49a8ceda4e8ee66268b4a2f7686e225907d8fb38d79cc61608099d424456",
      "v": 28,
      "creates": null,
      "raw": "0xf86d68850ccc04c13983015f9094e46181d0089f5d0e0e4668ee7ab335893bdb58bf8806f05b59d3b20000801ca0fd0d6cb9451819143197c159c8b38827a16c424beb4f0107c4a2b1b792c10dc2a0472b49a8ceda4e8ee66268b4a2f7686e225907d8fb38d79cc61608099d424456",
      "networkId": 0,
      "chainId": 0
    }
  ]
}