{
  "hash": "0x56cc24835bf67023b33d739e106a7ba83a0c94a652f1e939619cf95f45f22ab5",
  "parentHash": "0xcd2dc2b073a141ae6f1cd5419068c661b57b077a32f6c6a8a48aa446e5d8524a",
  "number": 61319,
  "timestamp": 1439170634,
  "nonce": "0x8e378de5c6d97dcd",
  "difficulty": 1723567365431,
  "gasLimit": {
    "_hex": "0x2fefd8"
  },
  "gasUsed": {
    "_hex": "0x5208"
  },
  "miner": "0x88D74a59454F6cF3B51ef6b9136AFb6b9D405A88",
  "extraData": "0x476574682f76312e302e312d37666266393930632f6c696e75782f676f312e34",
  "transactions": [
    {
      "hash": "0x52cf5116be38e3a6370d2a15d680d1d97fc6c6507f4b80e300a9c298ac62be14",
      "blockHash": "0x56cc24835bf67023b33d739e106a7ba83a0c94a652f1e939619cf95f45f22ab5",
      "blockNumber": 61319,
      "transactionIndex": 0,
      "confirmations": null,
      "from": "0x8cC0d7C016FA7aA950114Aa1db094882eDa274ea",
      "gasPrice": {
        "_hex": "0xd1fc0495d"
      },
      "gasLimit": {
        "_hex": "0x15f90"
      },
      "to": "0x512cc0326A2C60FB9C795141C12f4D40E44bC102",
      "value": {
        "_hex": "0x8a2bb49fe0fba0000"
      },
      "nonce": 2,
      "data": "0x",
      "r": "0xefab5e86b8e0ed19534bf545d6d3efeedde33dd1203eafd28fc8d3a21531019b",
      "s": "0x264ed241754c0eb7446559bf0128348fd90541b253aa479dd931db21070af378",
      "v": 28,
      "creates": null,
      "raw": "0xf86e02850d1fc0495d83015f9094512cc0326a2c60fb9c795141c12f4d40e44bc1028908a2bb49fe0fba0000801ca0efab5e86b8e0ed19534bf545d6d3efeedde33dd1203eafd28fc8d3a21531019ba0264ed241754c0eb7446559bf0128348fd90541b253aa479dd931db21070af378",
      "networkId": 0,
      "chainId": 0
    }
  ]
}