{
  "hash": "0x13c1b885cb4a34c32961e29583d2a5533a624ba8f4901beb9e4062d113b48e3d",
  "parentHash": "0x8c217d47f6a177ebeeb5acb35515309ad244544a25f211ba184aa0bd278aab94",
  "number": 50904,
  "timestamp": 1438996386,
  "nonce": "0xc2a6723e00b91edc",
  "difficulty": 1550696454221,
  "gasLimit": {
    "_hex": "0x81916"
  },
  "gasUsed": {
    "_hex": "0xa410"
  },
  "miner": "0xf927a40C8B7F6E07c5af7FA2155B4864a4112B13",
  "extraData": "0x476574682f76312e302e312f6c696e75782f676f312e342e32",
  "transactions": [
    {
      "hash": "0xd171a83356fb9cdb3d8da7a6991dd871c6c0fcee22a0a6ad23426756a411d683",
      "blockHash": "0x13c1b885cb4a34c32961e29583d2a5533a624ba8f4901beb9e4062d113b48e3d",
      "blockNumber": 50904,
      "transactionIndex": 0,
      "confirmations": null,
      "from": "0xdB04fAd9C49F9E880beb8FCF1D3A3890e4b3846F",
      "gasPrice": {
        "_hex": "0x10a2b4c1bea"
      },
      "gasLimit": {
        "_hex": "0x15f90"
      },
      "to": "0x7dD3612209FF4095D7520D7De77E329330171663",
      "value": {
        "_hex": "0xde0b6b3a7640000"
      },
      "nonce": 0,
      "data": "0x",
      "r": "0x70b724768d988dfa9b43aa15e3238d56e8a46279a26a1a1106eea708fe84658f",
      "s": "0x391863914464962d9df206486aecb0ecbe1b45afe2132faea74898f3b87ffd18",
      "v": 27,
      "creates": null,
      "raw": "0xf86e8086010a2b4c1bea83015f90947dd3612209ff4095d7520d7de77e329330171663880de0b6b3a7640000801ba070b724768d988dfa9b43aa15e3238d56e8a46279a26a1a1106eea708fe84658fa0391863914464962d9df206486aecb0ecbe1b45afe2132faea74898f3b87ffd18",
      "networkId": 0,
      "chainId": 0
    },
    {
      "hash": "0xea77e319a23db5b3a9beaad268fb3bcaa642075573d99dab8c6978113647848b",
      "blockHash": "0x13c1b885cb4a34c32961e29583d2a5533a624ba8f4901beb9e4062d113b48e3d",
      "blockNumber": 50904,
      "transactionIndex": 1,
      "confirmations": null,
      "from": "0x33b01a7fe4A1a5F774Bb73f89A4eF15a6Ffe1141",
      "gasPrice": {
        "_hex": "0xd86d4d3ba"
      },
      "gasLimit": {
        "_hex": "0x15f90"
      },
      "to": "0x0786DeC5Fd4bE408868A070A2a9f2A8CAC234733",
      "value": {
        "_hex": "0x6f05b59d3b20000"
      },
      "nonce": 0,
      "data": "0x",
      "r": "0x028a2f2aada8316e9a3cbfcbc3c6115be8c85163a8d8b361e153a097c6c235ea",
      "s": "0x5515ad6c44c1fc3dbeb0702dd3670b48516713c1b77f5a4069af886d1537d9e9",
      "v": 28,
      "creates": null,
      "raw": "0xf86d80850d86d4d3ba83015f90940786dec5fd4be408868a070a2a9f2a8cac2347338806f05b59d3b20000801ca0028a2f2aada8316e9a3cbfcbc3c6115be8c85163a8d8b361e153a097c6c235eaa05515ad6c44c1fc3dbeb0702dd3670b48516713c1b77f5a4069af886d1537d9e9",
      "networkId": 0,
      "chainId": 0
    }
  ]
}