{
  "hash": "0x5bfcafe1cd5c37d989ed7cff232413fb3091fc641c3f2b61830746ce60f8c4f5",
  "parentHash": "0xd46666a78abd52b28abced7556707ff963b365b1f7e6d1ec2c4bb29f5076eaa0",
  "number": 113396,
  "timestamp": 1440022751,
  "nonce": "0xb163a03c7f833c6d",
  "difficulty": 4475586588719,
  "gasLimit": {
    "_hex": "0x2fefd8"
  },
  "gasUsed": {
    "_hex": "0xa410"
  },
  "miner": "0xe6A7a1d47ff21B6321162AEA7C6CB457D5476Bca",
  "extraData": "0x476574682f76312e302e312d38326566323666362f6c696e75782f676f312e34",
  "transactions": [
    {
      "hash": "0x313844afa162d810e0322613d51bd5022776d20e9bcbee9a81c106b89fbfeae9",
      "blockHash": "0x5bfcafe1cd5c37d989ed7cff232413fb3091fc641c3f2b61830746ce60f8c4f5",
      "blockNumber": 113396,
      "transactionIndex": 0,
      "confirmations": null,
      "from": "0x6CB5e8313a5B29aDb14AE1884D3EcE4489d02D77",
      "gasPrice": {
        "_hex": "0xdb2c8995c"
      },
      "gasLimit": {
        "_hex": "0x5208"
      },
      "to": "0x32Be343B94f860124dC4fEe278FDCBD38C102D88",
      "value": {
        "_hex": "0x7e9c3cc48ba6c00"
      },
      "nonce": 9,
      "data": "0x",
      "r": "0x27a0289d3647bd68192953a68432bfcf7dd2f87c673bdcd59ea4ebdd3433261b",
      "s": "0x78ea42129eb54e3d30530f3fd03ff36aa30ec37d198222679de8e31b5d898a06",
      "v": 28,
      "creates": null,
      "raw": "0xf86c09850db2c8995c8252089432be343b94f860124dc4fee278fdcbd38c102d888807e9c3cc48ba6c00801ca027a0289d3647bd68192953a68432bfcf7dd2f87c673bdcd59ea4ebdd3433261ba078ea42129eb54e3d30530f3fd03ff36aa30ec37d198222679de8e31b5d898a06",
      "networkId": 0,
      "chainId": 0
    },
    {
      "hash": "0x7f34e2fd52325cebf2e74e4665d7c016f411d713777bdfd9a3ab97135f359d33",
      "blockHash": "0x5bfcafe1cd5c37d989ed7cff232413fb3091fc641c3f2b61830746ce60f8c4f5",
      "blockNumber": 113396,
      "transactionIndex": 1,
      "confirmations": null,
      "from": "0x9DDd75762f6d7abA204Ce1A413E6a2230f238f76",
      "gasPrice": {
        "_hex": "0xd910c5f7b"
      },
      "gasLimit": {
        "_hex": "0x5208"
      },
      "to": "0x32Be343B94f860124dC4fEe278FDCBD38C102D88",
      "value": {
        "_hex": "0x13b38655a7f48400"
      },
      "nonce": 2,
      "data": "0x",
      "r": "0x269090bce9cd121303e217edd6f063d6f236090866f10b2e5d055e4759c08938",
      "s": "0x76dc53dca9c9f06d14fc25d2aa69515a440f07daf1367dc6f0068ec416926880",
      "v": 28,
      "creates": null,
      "raw": "0xf86c02850d910c5f7b8252089432be343b94f860124dc4fee278fdcbd38c102d888813b38655a7f48400801ca0269090bce9cd121303e217edd6f063d6f236090866f10b2e5d055e4759c08938a076dc53dca9c9f06d14fc25d2aa69515a440f07daf1367dc6f0068ec416926880",
      "networkId": 0,
      "chainId": 0
    }
  ]
}