{
  "hash": "0xbc3111f1d6e30b1b5deddfa7ebf855a5d25808fdf565f575e922149d2f7240f3",
  "parentHash": "0xaa114288834e4284c6c43a11bb0902657f2d5790f6d815db4d01808da598953d",
  "number": 52540,
  "timestamp": 1439023284,
  "nonce": "0x3515903f10d29a84",
  "difficulty": 1565608794886,
  "gasLimit": {
    "_hex": "0x151840"
  },
  "gasUsed": {
    "_hex": "0xfe8b4"
  },
  "miner": "0xbb7B8287f3F0a933474a79eAe42CBCa977791171",
  "extraData": "0x476574682f4c5649562f76312e302e312f6c696e75782f676f312e342e32",
  "transactions": [
    {
      "hash": "0xade829d32086f18f9f24347d3ceac030d2bf8c6964de95d88b0e7ceec65d8fca",
      "blockHash": "0xbc3111f1d6e30b1b5deddfa7ebf855a5d25808fdf565f575e922149d2f7240f3",
      "blockNumber": 52540,
      "transactionIndex": 0,
      "confirmations": null,
      "from": "0x54dAeb3E8a6BBC797E4aD2b0339f134b186e4637",
      "gasPrice": {
        "_hex": "0xe7d27df17"
      },
      "gasLimit": {
        "_hex": "0x7a120"
      },
      "to": "0xBAA54d6E90c3F4d7Ebec11bD180134C7eD8eBb52",
      "value": {
        "_hex": "0x16345785d8a0000"
      },
      "nonce": 685,
      "data": "0x",
      "r": "0x610984704f94d948a61df5b5bfc4beab3b531acc3d0ce283a3b065afdb5dfd2a",
      "s": "0x66abd71cefe2dd60fbb07790bc6eb2c16d9cdeefb839052bcdb2e79389f12b6f",
      "v": 28,
      "creates": null,
      "raw": "0xf86f8202ad850e7d27df178307a12094baa54d6e90c3f4d7ebec11bd180134c7ed8ebb5288016345785d8a0000801ca0610984704f94d948a61df5b5bfc4beab3b531acc3d0ce283a3b065afdb5dfd2aa066abd71cefe2dd60fbb07790bc6eb2c16d9cdeefb839052bcdb2e79389f12b6f",
      "networkId": 0,
      "chainId": 0
    },
    {
      "hash": "0x552c77a3c44fbd09842d5eab8f1eb18b87775a0e706ebd015cd9c3ec6fca5695",
      "blockHash": "0xbc3111f1d6e30b1b5deddfa7ebf855a5d25808fdf565f575e922149d2f7240f3",
      "blockNumber": 52540,
      "transactionIndex": 1,
      "confirmations": null,
      "from": "0x54dAeb3E8a6BBC797E4aD2b0339f134b186e4637",
      "gasPrice": {
        "_hex": "0xe7d27df17"
      },
      "gasLimit": {
        "_hex": "0x7a120"
      },
      "to": "0xBAA54d6E90c3F4d7Ebec11bD180134C7eD8eBb52",
      "value": {
        "_hex": "0x16345785d8a0000"
      },
      "nonce": 686,
      "data": "0x",
      "r": "0x3faf9048a6ba28edd00f5c3f03b799544dba1e86928b7f7c7365ee5beaa944c7",
      "s": "0x7b68179ef33bb52e0f6d8033abbb94939dc77582a1b500dffc05e48126cb7dc9",
      "v": 28,
      "creates": null,
      "raw": "0xf86f8202ae850e7d27df178307a12094baa54d6e90c3f4d7ebec11bd180134c7ed8ebb5288016345785d8a0000801ca03faf9048a6ba28edd00f5c3f03b799544dba1e86928b7f7c7365ee5beaa944c7a07b68179ef33bb52e0f6d8033abbb94939dc77582a1b500dffc05e48126cb7dc9",
      "networkId": 0,
      "chainId": 0
    },
    {
      "hash": "0xa416a41ac4baca2e633bc0494327934f6605efe2922db84d6ea20156d422c6f8",
      "blockHash": "0xbc3111f1d6e30b1b5deddfa7ebf855a5d25808fdf565f575e922149d2f7240f3",
      "blockNumber": 52540,
      "transactionIndex": 2,
      "confirmations": null,
      "from": "0x32Be343B94f860124dC4fEe278FDCBD38C102D88",
      "gasPrice": {
        "_hex": "0xd1c1602d5"
      },
      "gasLimit": {
        "_hex": "0x5208"
      },
      "to": "0x1B8aa0160cD79f005F88510A714913D70Ad3bE33",
      "value": {
        "_hex": "0x133a3c470e4b28000"
      },
      "nonce": 14,
      "data": "0x",
      "r": "0x75f13fc7f08cce457457f6f89f32986ae028784998c67d19ff02bf36354962c6",
      "s": "0x193aa1a41b6aa7be9b50549ee182e17f61e98e92bb0c5ab2842a2ad79f28fa5b",
      "v": 27,
      "creates": null,
      "raw": "0xf86d0e850d1c1602d5825208941b8aa0160cd79f005f88510a714913d70ad3be33890133a3c470e4b28000801ba075f13fc7f08cce457457f6f89f32986ae028784998c67d19ff02bf36354962c6a0193aa1a41b6aa7be9b50549ee182e17f61e98e92bb0c5ab2842a2ad79f28fa5b",
      "networkId": 0,
      "chainId": 0
    },
    {
      "hash": "0x79a2905092c983846606a9c7c8e597210f88315c977b58afdad5531417a430c3",
      "blockHash": "0xbc3111f1d6e30b1b5deddfa7ebf855a5d25808fdf565f575e922149d2f7240f3",
      "blockNumber": 52540,
      "transactionIndex": 3,
      "confirmations": null,
      "from": "0x20b2a17fFa355d7Bcb269812A39e8F57D750A5b3",
      "gasPrice": {
        "_hex": "0xa7a358200"
      },
      "gasLimit": {
        "_hex": "0x55f0"
      },
      "to": "0x2910543Af39abA0Cd09dBb2D50200b3E800A63D2",
      "value": {
        "_hex": "0xde0b6b3a7640000"
      },
      "nonce": 1,
      "data": "0x454e56554d55584738",
      "r": "0x58284ab3ca94bb063b9b6d81befea6e0bb472ecea1bd32ccb0b4521460ab50c6",
      "s": "0x61ad5ad03f363d5e1180e45a02401b6b2bf2556aefc2b857e864a196559c49e2",
      "v": 28,
      "creates": null,
      "raw": "0xf87501850a7a3582008255f0942910543af39aba0cd09dbb2d50200b3e800a63d2880de0b6b3a764000089454e56554d555847381ca058284ab3ca94bb063b9b6d81befea6e0bb472ecea1bd32ccb0b4521460ab50c6a061ad5ad03f363d5e1180e45a02401b6b2bf2556aefc2b857e864a196559c49e2",
      "networkId": 0,
      "chainId": 0
    }
  ]
}