{
  "hash": "0xa9f97a3aef6dce26091db0b9301e74f01472ef207f3ac0f12d8e12297f7139ee",
  "parentHash": "0x829aac35404995bd933c64b032bd219b3177da49aea246f7a1c3fa82e3cc0dfc",
  "number": 68531,
  "timestamp": 1439289647,
  "nonce": "0xa26f975848cb3568",
  "difficulty": 1999606736393,
  "gasLimit": {
    "_hex": "0x2fefd8"
  },
  "gasUsed": {
    "_hex": "0x12988c"
  },
  "miner": "0x157c6f2431eB1a95797EE86F7d17b3c0FD47A247",
  "extraData": "0x476574682f76312e302e312f77696e646f77732f676f312e342e32",
  "transactions": [
    {
      "hash": "0xa50b0ce877b517efd5aa36a4596822dac1cb60e4b5b9ea48c231feee1d122b6f",
      "blockHash": "0xa9f97a3aef6dce26091db0b9301e74f01472ef207f3ac0f12d8e12297f7139ee",
      "blockNumber": 68531,
      "transactionIndex": 0,
      "confirmations": null,
      "from": "0xb1B7F3Ff099d47d70f108BfE67191ca407bC63E0",
      "gasPrice": {
        "_hex": "0xba43b7400"
      },
      "gasLimit": {
        "_hex": "0x15f90"
      },
      "to": "0x793AE8C1b1a160BFc07BFB0d04F85eab1A71F4f2",
      "value": {
        "_hex": "0x0"
      },
      "nonce": 0,
      "data": "0x3ba15036",
      "r": "0x2139f4f8a42615152c8bf117025d1f1ff4dbabe6c1eac6f3671add8859ef7524",
      "s": "0x2d848da25e98172bc31404b4a2ec17ce8df047ad055620d425fc3b3120f54b7b",
      "v": 28,
      "creates": null,
      "raw": "0xf86980850ba43b740083015f9094793ae8c1b1a160bfc07bfb0d04f85eab1a71f4f280843ba150361ca02139f4f8a42615152c8bf117025d1f1ff4dbabe6c1eac6f3671add8859ef7524a02d848da25e98172bc31404b4a2ec17ce8df047ad055620d425fc3b3120f54b7b",
      "networkId": 0,
      "chainId": 0
    },
    {
      "hash": "0x8762d28939d311c61738bae560205ade2aecc7d47318e0947f04e45401f6b107",
      "blockHash": "0xa9f97a3aef6dce26091db0b9301e74f01472ef207f3ac0f12d8e12297f7139ee",
      "blockNumber": 68531,
      "transactionIndex": 1,
      "confirmations": null,
      "from": "0x33023eBC45178A36FE209A0d4f914eb37E4D17bD",
      "gasPrice": {
        "_hex": "0xba43b7400"
      },
      "gasLimit": {
        "_hex": "0x15f90"
      },
      "to": "0x793AE8C1b1a160BFc07BFB0d04F85eab1A71F4f2",
      "value": {
        "_hex": "0x0"
      },
      "nonce": 0,
      "data": "0x3ba15036",
      "r": "0x88c31669a4bf26983a61b9cdfcae2190a66ab6688d48d304336bb71b22ac53ff",
      "s": "0x7bd2a02eab8afff502273605a373848e5d2132a51ed956f67e9adbdce1d124ad",
      "v": 27,
      "creates": null,
      "raw": "0xf86980850ba43b740083015f9094793ae8c1b1a160bfc07bfb0d04f85eab1a71f4f280843ba150361ba088c31669a4bf26983a61b9cdfcae2190a66ab6688d48d304336bb71b22ac53ffa07bd2a02eab8afff502273605a373848e5d2132a51ed956f67e9adbdce1d124ad",
      "networkId": 0,
      "chainId": 0
    },
    {
      "hash": "0x0eb4869df81199161fb15b4f21a4de497d8d5b867876bbe46c427f8205efdf5c",
      "blockHash": "0xa9f97a3aef6dce26091db0b9301e74f01472ef207f3ac0f12d8e12297f7139ee",
      "blockNumber": 68531,
      "transactionIndex": 2,
      "confirmations": null,
      "from": "0x16EEb1F8c81eE78D0965056784e4f3a2D559b9D0",
      "gasPrice": {
        "_hex": "0xba43b7400"
      },
      "gasLimit": {
        "_hex": "0x15f90"
      },
      "to": "0x793AE8C1b1a160BFc07BFB0d04F85eab1A71F4f2",
      "value": {
        "_hex": "0x0"
      },
      "nonce": 0,
      "data": "0x3ba15036",
      "r": "0xaf150e687bc1e005bff690e8dbdfc0a8403105454cd6c2698bd3a42fa3618e55",
      "s": "0x5921d9d9ccbb8a4d291d17de2e0e94462c2a370ff9c86a1ae178bd63a24be346",
      "v": 28,
      "creates": null,
      "raw": "0xf86980850ba43b740083015f9094793ae8c1b1a160bfc07bfb0d04f85eab1a71f4f280843ba150361ca0af150e687bc1e005bff690e8dbdfc0a8403105454cd6c2698bd3a42fa3618e55a05921d9d9ccbb8a4d291d17de2e0e94462c2a370ff9c86a1ae178bd63a24be346",
      "networkId": 0,
      "chainId": 0
    },
    {
      "hash": "0xfca6c1b39b5d8cb5c6fee796c87e250a14d4bbcda8fe91e0b94c46ba1624cbb3",
      "blockHash": "0xa9f97a3aef6dce26091db0b9301e74f01472ef207f3ac0f12d8e12297f7139ee",
      "blockNumber": 68531,
      "transactionIndex": 3,
      "confirmations": null,
      "from": "0x5185186D7bBCFC9462610BCf7C80ED3B0436a36E",
      "gasPrice": {
        "_hex": "0xba43b7400"
      },
      "gasLimit": {
        "_hex": "0x15f90"
      },
      "to": "0x793AE8C1b1a160BFc07BFB0d04F85eab1A71F4f2",
      "value": {
        "_hex": "0x0"
      },
      "nonce": 0,
      "data": "0x3ba15036",
      "r": "0xbad6a671aacbebc2c469dd0989af5cefdf921992040d6b386cab80810004f3cb",
      "s": "0x550f4f2fcf7ee8422c6d18e47541808c910423c342e0439e4f11390c7b53b1e6",
      "v": 28,
      "creates": null,
      "raw": "0xf86980850ba43b740083015f9094793ae8c1b1a160bfc07bfb0d04f85eab1a71f4f280843ba150361ca0bad6a671aacbebc2c469dd0989af5cefdf921992040d6b386cab80810004f3cba0550f4f2fcf7ee8422c6d18e47541808c910423c342e0439e4f11390c7b53b1e6",
      "networkId": 0,
      "chainId": 0
    },
    {
      "hash": "0xda67c0399fe62630a78ece3665be9907aaa86f0be06c07e524bc3b530724bde0",
      "blockHash": "0xa9f97a3aef6dce26091db0b9301e74f01472ef207f3ac0f12d8e12297f7139ee",
      "blockNumber": 68531,
      "transactionIndex": 4,
      "confirmations": null,
      "from": "0xd60Da1B2c1D9517D4779A73ecb2a5760Fd4C53e8",
      "gasPrice": {
        "_hex": "0xba43b7400"
      },
      "gasLimit": {
        "_hex": "0x15f90"
      },
      "to": "0x793AE8C1b1a160BFc07BFB0d04F85eab1A71F4f2",
      "value": {
        "_hex": "0x0"
      },
      "nonce": 0,
      "data": "0x3ba15036",
      "r": "0x44e7a5a634101a86a065fa836267d2b43ef0b8306aee7118738d3ff9a05303fc",
      "s": "0x33401fd06dff25259e4811ad4389f721ef5f4318ec33246f21ab10a49ed726ac",
      "v": 28,
      "creates": null,
      "raw": "0xf86980850ba43b740083015f9094793ae8c1b1a160bfc07bfb0d04f85eab1a71f4f280843ba150361ca044e7a5a634101a86a065fa836267d2b43ef0b8306aee7118738d3ff9a05303fca033401fd06dff25259e4811ad4389f721ef5f4318ec33246f21ab10a49ed726ac",
      "networkId": 0,
      "chainId": 0
    },
    {
      "hash": "0x304de255a1b4c5f525fe34c60da6a413239c2ac34d2bc8eb9a01bede3e854138",
      "blockHash": "0xa9f97a3aef6dce26091db0b9301e74f01472ef207f3ac0f12d8e12297f7139ee",
      "blockNumber": 68531,
      "transactionIndex": 5,
      "confirmations": null,
      "from": "0x849559Bb9a259481c26f8791942630022638d1A8",
      "gasPrice": {
        "_hex": "0xba43b7400"
      },
      "gasLimit": {
        "_hex": "0x15f90"
      },
      "to": "0x793AE8C1b1a160BFc07BFB0d04F85eab1A71F4f2",
      "value": {
        "_hex": "0x0"
      },
      "nonce": 0,
      "data": "0x3ba15036",
      "r": "0x4c501c81886aa0ba744557e678d5d53d16f9a19732666e2a5b73301df6653368",
      "s": "0x46ba7547db4b45478de40999a60ed5712e85c7953d122c934342d32669abd756",
      "v": 27,
      "creates": null,
      "raw": "0xf86980850ba43b740083015f9094793ae8c1b1a160bfc07bfb0d04f85eab1a71f4f280843ba150361ba04c501c81886aa0ba744557e678d5d53d16f9a19732666e2a5b73301df6653368a046ba7547db4b45478de40999a60ed5712e85c7953d122c934342d32669abd756",
      "networkId": 0,
      "chainId": 0
    },
    {
      "hash": "0x612ae137126c7fdcf6c33a440f63ddb22e536257f517792c801b912a4ec66103",
      "blockHash": "0xa9f97a3aef6dce26091db0b9301e74f01472ef207f3ac0f12d8e12297f7139ee",
      "blockNumber": 68531,
      "transactionIndex": 6,
      "confirmations": null,
      "from": "0x3305fED4d4720588A1a5FF0458Af630D68Fb199A",
      "gasPrice": {
        "_hex": "0xba43b7400"
      },
      "gasLimit": {
        "_hex": "0x15f90"
      },
      "to": "0x793AE8C1b1a160BFc07BFB0d04F85eab1A71F4f2",
      "value": {
        "_hex": "0x0"
      },
      "nonce": 0,
      "data": "0x3ba15036",
      "r": "0x070945a899d31208a4650ab307cc197766459bb55d86f37e1b648fe364758cab",
      "s": "0x0a046acf8f7baeeeea315517abdbe11d4793b60fe84e7b2d0c857abb9899e709",
      "v": 27,
      "creates": null,
      "raw": "0xf86980850ba43b740083015f9094793ae8c1b1a160bfc07bfb0d04f85eab1a71f4f280843ba150361ba0070945a899d31208a4650ab307cc197766459bb55d86f37e1b648fe364758caba00a046acf8f7baeeeea315517abdbe11d4793b60fe84e7b2d0c857abb9899e709",
      "networkId": 0,
      "chainId": 0
    },
    {
      "hash": "0x5cf6788b1d2f060d72d275a71f6e84b8d2bd903e70e1a7271de44af5f2f402ae",
      "blockHash": "0xa9f97a3aef6dce26091db0b9301e74f01472ef207f3ac0f12d8e12297f7139ee",
      "blockNumber": 68531,
      "transactionIndex": 7,
      "confirmations": null,
      "from": "0x5d2895a7512cD85D03eCF4D2c270e26f7CF7aba7",
      "gasPrice": {
        "_hex": "0xba43b7400"
      },
      "gasLimit": {
        "_hex": "0x15f90"
      },
      "to": "0x793AE8C1b1a160BFc07BFB0d04F85eab1A71F4f2",
      "value": {
        "_hex": "0x0"
      },
      "nonce": 0,
      "data": "0x3ba15036",
      "r": "0x51326adcbfac7b1008d35c73f8f9a9dce44bd6bc5e5129b9edc655037e84b402",
      "s": "0x485332d06bc87939108c0067ef9251ea3fe26e76a075180baf9800214b4c0455",
      "v": 28,
      "creates": null,
      "raw": "0xf86980850ba43b740083015f9094793ae8c1b1a160bfc07bfb0d04f85eab1a71f4f280843ba150361ca051326adcbfac7b1008d35c73f8f9a9dce44bd6bc5e5129b9edc655037e84b402a0485332d06bc87939108c0067ef9251ea3fe26e76a075180baf9800214b4c0455",
      "networkId": 0,
      "chainId": 0
    },
    {
      "hash": "0xc146f491c4629ab170ae1c92293b0b3454b71312053b301c0d09c5ebcbe88e8d",
      "blockHash": "0xa9f97a3aef6dce26091db0b9301e74f01472ef207f3ac0f12d8e12297f7139ee",
      "blockNumber": 68531,
      "transactionIndex": 8,
      "confirmations": null,
      "from": "0xb498a7d9C11C324C5107D9B6B9500bE990EF51dD",
      "gasPrice": {
        "_hex": "0xba43b7400"
      },
      "gasLimit": {
        "_hex": "0x15f90"
      },
      "to": "0x793AE8C1b1a160BFc07BFB0d04F85eab1A71F4f2",
      "value": {
        "_hex": "0x0"
      },
      "nonce": 0,
      "data": "0x3ba15036",
      "r": "0x6db8dbb59ef0355a67c625ffe0d9720b00e7044e79f17dddae91656fcdcf2bd1",
      "s": "0x39a39e1c61ca3cf7b35af83eb1bae9c1548a30aef78aa922fe93ff62406e42f8",
      "v": 27,
      "creates": null,
      "raw": "0xf86980850ba43b740083015f9094793ae8c1b1a160bfc07bfb0d04f85eab1a71f4f280843ba150361ba06db8dbb59ef0355a67c625ffe0d9720b00e7044e79f17dddae91656fcdcf2bd1a039a39e1c61ca3cf7b35af83eb1bae9c1548a30aef78aa922fe93ff62406e42f8",
      "networkId": 0,
      "chainId": 0
    },
    {
      "hash": "0x45d2af70d486b17ae37d2a59606f3e9c315047065f57f73c571479ad0e967ed9",
      "blockHash": "0xa9f97a3aef6dce26091db0b9301e74f01472ef207f3ac0f12d8e12297f7139ee",
      "blockNumber": 68531,
      "transactionIndex": 9,
      "confirmations": null,
      "from": "0x28d30f79779302A43BbAC583e9040178239F164c",
      "gasPrice": {
        "_hex": "0xba43b7400"
      },
      "gasLimit": {
        "_hex": "0x15f90"
      },
      "to": "0x793AE8C1b1a160BFc07BFB0d04F85eab1A71F4f2",
      "value": {
        "_hex": "0x0"
      },
      "nonce": 0,
      "data": "0x3ba15036",
      "r": "0xb7d8b34857965404cfbe92fca796c6f86ef972f6d712c4513f5be2564152f038",
      "s": "0x6d26edd29f6f2321f765a9ae41e0b9b9abfc39a0742a7e76051906095523dbf1",
      "v": 28,
      "creates": null,
      "raw": "0xf86980850ba43b740083015f9094793ae8c1b1a160bfc07bfb0d04f85eab1a71f4f280843ba150361ca0b7d8b34857965404cfbe92fca796c6f86ef972f6d712c4513f5be2564152f038a06d26edd29f6f2321f765a9ae41e0b9b9abfc39a0742a7e76051906095523dbf1",
      "networkId": 0,
      "chainId": 0
    },
    {
      "hash": "0x89ae34e39001661346903dd9f7b8c9cf261e407992fb6224d7afc37b32b5542b",
      "blockHash": "0xa9f97a3aef6dce26091db0b9301e74f01472ef207f3ac0f12d8e12297f7139ee",
      "blockNumber": 68531,
      "transactionIndex": 10,
      "confirmations": null,
      "from": "0xbb54532ed23Cf570249459DfE035af5E56cA3624",
      "gasPrice": {
        "_hex": "0xba43b7400"
      },
      "gasLimit": {
        "_hex": "0x15f90"
      },
      "to": "0x793AE8C1b1a160BFc07BFB0d04F85eab1A71F4f2",
      "value": {
        "_hex": "0x0"
      },
      "nonce": 0,
      "data": "0x3ba15036",
      "r": "0x3a76fe1fa401f68c300c2448520141f4768adfbd0e3cad37e6efc2d9e2c319df",
      "s": "0x4a43b73d7ff57bc8cc0fb543837716c20529f2275f5c0eb3f7c4332c26e873b7",
      "v": 28,
      "creates": null,
      "raw": "0xf86980850ba43b740083015f9094793ae8c1b1a160bfc07bfb0d04f85eab1a71f4f280843ba150361ca03a76fe1fa401f68c300c2448520141f4768adfbd0e3cad37e6efc2d9e2c319dfa04a43b73d7ff57bc8cc0fb543837716c20529f2275f5c0eb3f7c4332c26e873b7",
      "networkId": 0,
      "chainId": 0
    },
    {
      "hash": "0xaee2e8196940c7a577318850eb69ca28d4bbd782cb3e545412ebef65af4fe653",
      "blockHash": "0xa9f97a3aef6dce26091db0b9301e74f01472ef207f3ac0f12d8e12297f7139ee",
      "blockNumber": 68531,
      "transactionIndex": 11,
      "confirmations": null,
      "from": "0xbD3CD3c89E32b18227B30EBf38921782af5206f1",
      "gasPrice": {
        "_hex": "0xba43b7400"
      },
      "gasLimit": {
        "_hex": "0x15f90"
      },
      "to": "0x793AE8C1b1a160BFc07BFB0d04F85eab1A71F4f2",
      "value": {
        "_hex": "0x0"
      },
      "nonce": 0,
      "data": "0x3ba15036",
      "r": "0x95bbcec7af86db404bc873374c22c51af21b64f4e6f4387f93352db6205b02d0",
      "s": "0x0ea3e09dca54d540ad47518a0aaad88519c387fb77c25842ee2ec8699a7e91a4",
      "v": 27,
      "creates": null,
      "raw": "0xf86980850ba43b740083015f9094793ae8c1b1a160bfc07bfb0d04f85eab1a71f4f280843ba150361ba095bbcec7af86db404bc873374c22c51af21b64f4e6f4387f93352db6205b02d0a00ea3e09dca54d540ad47518a0aaad88519c387fb77c25842ee2ec8699a7e91a4",
      "networkId": 0,
      "chainId": 0
    },
    {
      "hash": "0x63c9adb7a0ead9f0070ca05644c3e052357fae97be8348c3f1b3c62401ec2d0b",
      "blockHash": "0xa9f97a3aef6dce26091db0b9301e74f01472ef207f3ac0f12d8e12297f7139ee",
      "blockNumber": 68531,
      "transactionIndex": 12,
      "confirmations": null,
      "from": "0xB4d3602d555EddCCf770152C8ed43374d162Db1F",
      "gasPrice": {
        "_hex": "0xba43b7400"
      },
      "gasLimit": {
        "_hex": "0x15f90"
      },
      "to": "0x793AE8C1b1a160BFc07BFB0d04F85eab1A71F4f2",
      "value": {
        "_hex": "0x0"
      },
      "nonce": 0,
      "data": "0x3ba15036",
      "r": "0x165c968d23b034c5c59ad1b0f2a156dd33b96bc44547ed10c5fc86f237f03356",
      "s": "0x2a8e1f821032bec0077d0723c2ee987f6aa54753efa67a87ab5c7cb65feb451b",
      "v": 27,
      "creates": null,
      "raw": "0xf86980850ba43b740083015f9094793ae8c1b1a160bfc07bfb0d04f85eab1a71f4f280843ba150361ba0165c968d23b034c5c59ad1b0f2a156dd33b96bc44547ed10c5fc86f237f03356a02a8e1f821032bec0077d0723c2ee987f6aa54753efa67a87ab5c7cb65feb451b",
      "networkId": 0,
      "chainId": 0
    },
    {
      "hash": "0x07e9f1338942865ac707548ca42f580af026d6ccb9bd542459ad7e43687cc7d4",
      "blockHash": "0xa9f97a3aef6dce26091db0b9301e74f01472ef207f3ac0f12d8e12297f7139ee",
      "blockNumber": 68531,
      "transactionIndex": 13,
      "confirmations": null,
      "from": "0x7cb2aAB9b48192B03A9F06A32bAc7a7F34134Faf",
      "gasPrice": {
        "_hex": "0xba43b7400"
      },
      "gasLimit": {
        "_hex": "0x15f90"
      },
      "to": "0x793AE8C1b1a160BFc07BFB0d04F85eab1A71F4f2",
      "value": {
        "_hex": "0x0"
      },
      "nonce": 0,
      "data": "0x3ba15036",
      "r": "0xb4b91d186264ddda82330f03b622e9d8f1ab456cc3e5912e56d63053b63753cf",
      "s": "0x663a76c18830e2be368792d831d1df7ab6ea9c592a2c115c79da67a9cc53b573",
      "v": 28,
      "creates": null,
      "raw": "0xf86980850ba43b740083015f9094793ae8c1b1a160bfc07bfb0d04f85eab1a71f4f280843ba150361ca0b4b91d186264ddda82330f03b622e9d8f1ab456cc3e5912e56d63053b63753cfa0663a76c18830e2be368792d831d1df7ab6ea9c592a2c115c79da67a9cc53b573",
      "networkId": 0,
      "chainId": 0
    },
    {
      "hash": "0x32a6c60f3f71e560bfa829f6c703b3029e4abf9afa042fb894ec357d244deaa7",
      "blockHash": "0xa9f97a3aef6dce26091db0b9301e74f01472ef207f3ac0f12d8e12297f7139ee",
      "blockNumber": 68531,
      "transactionIndex": 14,
      "confirmations": null,
      "from": "0xBd4175d36Fe5452267a70f89b159a82aE2372615",
      "gasPrice": {
        "_hex": "0xba43b7400"
      },
      "gasLimit": {
        "_hex": "0x15f90"
      },
      "to": "0x793AE8C1b1a160BFc07BFB0d04F85eab1A71F4f2",
      "value": {
        "_hex": "0x0"
      },
      "nonce": 0,
      "data": "0x3ba15036",
      "r": "0x35247a4867566fdedebdc7c630e80fe073af59f9ada9a290ffef0b4c4799f07e",
      "s": "0x1806d396b1ac14ed62e5fb99086aee59cb3a06cbd5a1e6aff0ce3c3ff69f88de",
      "v": 27,
      "creates": null,
      "raw": "0xf86980850ba43b740083015f9094793ae8c1b1a160bfc07bfb0d04f85eab1a71f4f280843ba150361ba035247a4867566fdedebdc7c630e80fe073af59f9ada9a290ffef0b4c4799f07ea01806d396b1ac14ed62e5fb99086aee59cb3a06cbd5a1e6aff0ce3c3ff69f88de",
      "networkId": 0,
      "chainId": 0
    },
    {
      "hash": "0x4693d543f256503e72031b942a56abf46d73e033da95073b960143f69713a74e",
      "blockHash": "0xa9f97a3aef6dce26091db0b9301e74f01472ef207f3ac0f12d8e12297f7139ee",
      "blockNumber": 68531,
      "transactionIndex": 15,
      "confirmations": null,
      "from": "0xDEf7FAd2c27e6768e786336a8d8FD395b7F01A57",
      "gasPrice": {
        "_hex": "0xba43b7400"
      },
      "gasLimit": {
        "_hex": "0x15f90"
      },
      "to": "0x793AE8C1b1a160BFc07BFB0d04F85eab1A71F4f2",
      "value": {
        "_hex": "0x0"
      },
      "nonce": 0,
      "data": "0x3ba15036",
      "r": "0x48e43290e10e0cee09c1a10d3dcf6d6f9903a04d6bdd473b8f662a15d84c42ca",
      "s": "0x64dfab3318a1adea2c4f617b0e8df2633254edcf687c8d3f4feda37660c0f515",
      "v": 27,
      "creates": null,
      "raw": "0xf86980850ba43b740083015f9094793ae8c1b1a160bfc07bfb0d04f85eab1a71f4f280843ba150361ba048e43290e10e0cee09c1a10d3dcf6d6f9903a04d6bdd473b8f662a15d84c42caa064dfab3318a1adea2c4f617b0e8df2633254edcf687c8d3f4feda37660c0f515",
      "networkId": 0,
      "chainId": 0
    },
    {
      "hash": "0x14d2dfa59a2ac025a48b7be626c6cd8cb9d24694398840a02f475f76ee0a40d8",
      "blockHash": "0xa9f97a3aef6dce26091db0b9301e74f01472ef207f3ac0f12d8e12297f7139ee",
      "blockNumber": 68531,
      "transactionIndex": 16,
      "confirmations": null,
      "from": "0x9784b849e07c990F4214506B8b7543cee1792BA5",
      "gasPrice": {
        "_hex": "0xba43b7400"
      },
      "gasLimit": {
        "_hex": "0x15f90"
      },
      "to": "0x793AE8C1b1a160BFc07BFB0d04F85eab1A71F4f2",
      "value": {
        "_hex": "0x0"
      },
      "nonce": 0,
      "data": "0x3ba15036",
      "r": "0x0c766c733185ca6fcc6a7b6fb196849f72e70b1686f0e6d12733f9006114fa69",
      "s": "0x04798a22ea762ff0ff92987dc37ae6bf226e69fccded858353d6a3f217af31ec",
      "v": 27,
      "creates": null,
      "raw": "0xf86980850ba43b740083015f9094793ae8c1b1a160bfc07bfb0d04f85eab1a71f4f280843ba150361ba00c766c733185ca6fcc6a7b6fb196849f72e70b1686f0e6d12733f9006114fa69a004798a22ea762ff0ff92987dc37ae6bf226e69fccded858353d6a3f217af31ec",
      "networkId": 0,
      "chainId": 0
    },
    {
      "hash": "0x868d20d3b7a4f5ddaa0439b75594255cf5ca8e8c266711611a66c86945dd7f6c",
      "blockHash": "0xa9f97a3aef6dce26091db0b9301e74f01472ef207f3ac0f12d8e12297f7139ee",
      "blockNumber": 68531,
      "transactionIndex": 17,
      "confirmations": null,
      "from": "0x17C79Af41D49BF487B037E8F37Bb4e09CcBcE751",
      "gasPrice": {
        "_hex": "0xba43b7400"
      },
      "gasLimit": {
        "_hex": "0x15f90"
      },
      "to": "0x793AE8C1b1a160BFc07BFB0d04F85eab1A71F4f2",
      "value": {
        "_hex": "0x0"
      },
      "nonce": 0,
      "data": "0x3ba15036",
      "r": "0x04a23195baf4d10547c2d9b6d656c2858f98a2263b8a9c4ecdd04accd731d0a9",
      "s": "0x575a077cb220ae0c25129613af9ca25cbd15b859d93b03866913f14e17e5c083",
      "v": 27,
      "creates": null,
      "raw": "0xf86980850ba43b740083015f9094793ae8c1b1a160bfc07bfb0d04f85eab1a71f4f280843ba150361ba004a23195baf4d10547c2d9b6d656c2858f98a2263b8a9c4ecdd04accd731d0a9a0575a077cb220ae0c25129613af9ca25cbd15b859d93b03866913f14e17e5c083",
      "networkId": 0,
      "chainId": 0
    },
    {
      "hash": "0x9547c96670d360e5118602b1720cbb74d03c859da74f513758b5c56ffd9321e8",
      "blockHash": "0xa9f97a3aef6dce26091db0b9301e74f01472ef207f3ac0f12d8e12297f7139ee",
      "blockNumber": 68531,
      "transactionIndex": 18,
      "confirmations": null,
      "from": "0x5BF4c225E13a88F6973914A993cc4291c1874DcC",
      "gasPrice": {
        "_hex": "0xba43b7400"
      },
      "gasLimit": {
        "_hex": "0x15f90"
      },
      "to": "0x793AE8C1b1a160BFc07BFB0d04F85eab1A71F4f2",
      "value": {
        "_hex": "0x0"
      },
      "nonce": 0,
      "data": "0x3ba15036",
      "r": "0x91fa3db20ec52d628525a37d81cd5afe7edb53000c6e9f85d2a58de586e5758b",
      "s": "0x6b94c6b232e714fdef8c4df8c8a622eafb01bd23dbc8d72ba1844396ae400069",
      "v": 28,
      "creates": null,
      "raw": "0xf86980850ba43b740083015f9094793ae8c1b1a160bfc07bfb0d04f85eab1a71f4f280843ba150361ca091fa3db20ec52d628525a37d81cd5afe7edb53000c6e9f85d2a58de586e5758ba06b94c6b232e714fdef8c4df8c8a622eafb01bd23dbc8d72ba1844396ae400069",
      "networkId": 0,
      "chainId": 0
    },
    {
      "hash": "0x9428e38227cb3433bbf7b0b977dd4e966c11b04aabfe1a00e0a90bac310dc3f1",
      "blockHash": "0xa9f97a3aef6dce26091db0b9301e74f01472ef207f3ac0f12d8e12297f7139ee",
      "blockNumber": 68531,
      "transactionIndex": 19,
      "confirmations": null,
      "from": "0x6EAAab3069C7f9920AFc0CD3fA2946DaF55d5911",
      "gasPrice": {
        "_hex": "0xba43b7400"
      },
      "gasLimit": {
        "_hex": "0x15f90"
      },
      "to": "0x793AE8C1b1a160BFc07BFB0d04F85eab1A71F4f2",
      "value": {
        "_hex": "0x0"
      },
      "nonce": 0,
      "data": "0x3ba15036",
      "r": "0x2522232b0c8c826a3b9f2827afbf659594e33fa625cf7ca2f6397b938d01e8cb",
      "s": "0x3ba328e32174f26b162b0ac9a9b02bc55c70e2a8fcf1a6ab0adb53c46129887c",
      "v": 28,
      "creates": null,
      "raw": "0xf86980850ba43b740083015f9094793ae8c1b1a160bfc07bfb0d04f85eab1a71f4f280843ba150361ca02522232b0c8c826a3b9f2827afbf659594e33fa625cf7ca2f6397b938d01e8cba03ba328e32174f26b162b0ac9a9b02bc55c70e2a8fcf1a6ab0adb53c46129887c",
      "networkId": 0,
      "chainId": 0
    },
    {
      "hash": "0x8e6fd3022120913d997c2d22a054afdc950ea42b6621237a8b4726c1ba18e9b0",
      "blockHash": "0xa9f97a3aef6dce26091db0b9301e74f01472ef207f3ac0f12d8e12297f7139ee",
      "blockNumber": 68531,
      "transactionIndex": 20,
      "confirmations": null,
      "from": "0xe7a08FFD9a28AbF7Bf406d13Bd60C4D1073f6985",
      "gasPrice": {
        "_hex": "0xba43b7400"
      },
      "gasLimit": {
        "_hex": "0x15f90"
      },
      "to": "0x793AE8C1b1a160BFc07BFB0d04F85eab1A71F4f2",
      "value": {
        "_hex": "0x0"
      },
      "nonce": 0,
      "data": "0x3ba15036",
      "r": "0x52180fcc63713206e51a2357130d522e65a71d18b796fac5218ede7c11e721b5",
      "s": "0x4d94442d0345768c726bc0f6175248539c1d11719b253005924805e3b80c3a64",
      "v": 28,
      "creates": null,
      "raw": "0xf86980850ba43b740083015f9094793ae8c1b1a160bfc07bfb0d04f85eab1a71f4f280843ba150361ca052180fcc63713206e51a2357130d522e65a71d18b796fac5218ede7c11e721b5a04d94442d0345768c726bc0f6175248539c1d11719b253005924805e3b80c3a64",
      "networkId": 0,
      "chainId": 0
    },
    {
      "hash": "0x93323c834d62ae4ed13dc12c026f87e1f23510147c61c3508e2360a700c7e228",
      "blockHash": "0xa9f97a3aef6dce26091db0b9301e74f01472ef207f3ac0f12d8e12297f7139ee",
      "blockNumber": 68531,
      "transactionIndex": 21,
      "confirmations": null,
      "from": "0x5BBdE7068486E0DBF5aC0B5eE5e4A9bB7A054bd4",
      "gasPrice": {
        "_hex": "0xba43b7400"
      },
      "gasLimit": {
        "_hex": "0x15f90"
      },
      "to": "0x793AE8C1b1a160BFc07BFB0d04F85eab1A71F4f2",
      "value": {
        "_hex": "0x0"
      },
      "nonce": 0,
      "data": "0x3ba15036",
      "r": "0x0528d98d786790449512fed2ea92520309ffe5b0aa327bd64762ef0bdff18b25",
      "s": "0x4ed614c575d23c97f8c693b7291f0523f927f05aad971d9c817734336bd5d01d",
      "v": 27,
      "creates": null,
      "raw": "0xf86980850ba43b740083015f9094793ae8c1b1a160bfc07bfb0d04f85eab1a71f4f280843ba150361ba00528d98d786790449512fed2ea92520309ffe5b0aa327bd64762ef0bdff18b25a04ed614c575d23c97f8c693b7291f0523f927f05aad971d9c817734336bd5d01d",
      "networkId": 0,
      "chainId": 0
    },
    {
      "hash": "0x03ee811d286677d0c4783247bb2a7314bcf5b2dba8581a0d2affb92d3d0d894d",
      "blockHash": "0xa9f97a3aef6dce26091db0b9301e74f01472ef207f3ac0f12d8e12297f7139ee",
      "blockNumber": 68531,
      "transactionIndex": 22,
      "confirmations": null,
      "from": "0x048538a02F3190C95B2Ce38B8A2273Ee8265f704",
      "gasPrice": {
        "_hex": "0xba43b7400"
      },
      "gasLimit": {
        "_hex": "0x15f90"
      },
      "to": "0x793AE8C1b1a160BFc07BFB0d04F85eab1A71F4f2",
      "value": {
        "_hex": "0x0"
      },
      "nonce": 0,
      "data": "0x3ba15036",
      "r": "0x769ae9b9a333905bff0d5331ae636f646f9a6860478512b191738821475b1111",
      "s": "0x23e354ecea9d22b3b4d2cfd933b5a27a3739ef1a74a204a8d5383b495a2786e5",
      "v": 27,
      "creates": null,
      "raw": "0xf86980850ba43b740083015f9094793ae8c1b1a160bfc07bfb0d04f85eab1a71f4f280843ba150361ba0769ae9b9a333905bff0d5331ae636f646f9a6860478512b191738821475b1111a023e354ecea9d22b3b4d2cfd933b5a27a3739ef1a74a204a8d5383b495a2786e5",
      "networkId": 0,
      "chainId": 0
    },
    {
      "hash": "0x185afd8bc556db4bc78e8b613d6e855bbfcab9178957547bc3bdfd0af6125d5a",
      "blockHash": "0xa9f97a3aef6dce26091db0b9301e74f01472ef207f3ac0f12d8e12297f7139ee",
      "blockNumber": 68531,
      "transactionIndex": 23,
      "confirmations": null,
      "from": "0x1960F9cb77e7b6Ae1A6942423cb41efd10dc947c",
      "gasPrice": {
        "_hex": "0xba43b7400"
      },
      "gasLimit": {
        "_hex": "0x15f90"
      },
      "to": "0x793AE8C1b1a160BFc07BFB0d04F85eab1A71F4f2",
      "value": {
        "_hex": "0x0"
      },
      "nonce": 0,
      "data": "0x3ba15036",
      "r": "0x6bb40e489a8181b225b4e206058737db3945e4b7a57c8a3c0a0d5be395a626b8",
      "s": "0x1211622ea8aa61ab06dac9c80b47fc6d86475771c3da2089764c90fdeb384a14",
      "v": 28,
      "creates": null,
      "raw": "0xf86980850ba43b740083015f9094793ae8c1b1a160bfc07bfb0d04f85eab1a71f4f280843ba150361ca06bb40e489a8181b225b4e206058737db3945e4b7a57c8a3c0a0d5be395a626b8a01211622ea8aa61ab06dac9c80b47fc6d86475771c3da2089764c90fdeb384a14",
      "networkId": 0,
      "chainId": 0
    },
    {
      "hash": "0x15d3b6393a2283054544030bca1dc22410de36bcaee3627773c373ad34c52d1f",
      "blockHash": "0xa9f97a3aef6dce26091db0b9301e74f01472ef207f3ac0f12d8e12297f7139ee",
      "blockNumber": 68531,
      "transactionIndex": 24,
      "confirmations": null,
      "from": "0x44479E70c73f0eae840B02e7665E6949e53b5F19",
      "gasPrice": {
        "_hex": "0xba43b7400"
      },
      "gasLimit": {
        "_hex": "0x15f90"
      },
      "to": "0x793AE8C1b1a160BFc07BFB0d04F85eab1A71F4f2",
      "value": {
        "_hex": "0x0"
      },
      "nonce": 0,
      "data": "0x3ba15036",
      "r": "0xb2bb5a73f6483cb2de025311bb1a02c18f16f273605350bfed9902a9e40195fa",
      "s": "0x0f6f48aa7bd28f811a713640f85c0c2cc18a2e2ce7f308e6b117688c62b5dcde",
      "v": 28,
      "creates": null,
      "raw": "0xf86980850ba43b740083015f9094793ae8c1b1a160bfc07bfb0d04f85eab1a71f4f280843ba150361ca0b2bb5a73f6483cb2de025311bb1a02c18f16f273605350bfed9902a9e40195faa00f6f48aa7bd28f811a713640f85c0c2cc18a2e2ce7f308e6b117688c62b5dcde",
      "networkId": 0,
      "chainId": 0
    }
  ]
}