{
  "hash": "0x3b3e911d6bc9659f8cc03301175bd876ce4a3a980467b23c52d1bfe026d46b05",
  "parentHash": "0x81d807b6768875607da8a61d45efed83c93152f9f536f57b776202a0271f54c5",
  "number": 120719,
  "timestamp": 1440164696,
  "nonce": "0x3eb2020ae4ec7d46",
  "difficulty": 4434716421934,
  "gasLimit": {
    "_hex": "0x2fefd8"
  },
  "gasUsed": {
    "_hex": "0x5279"
  },
  "miner": "0x580992B51e3925e23280EfB93d3047C82f17E038",
  "extraData": "0x",
  "transactions": [
    {
      "hash": "0x5e2f0d148211e5e865f1f571ecdc8acab4ba8c0168039ea50e5aee3b38b49d9c",
      "blockHash": "0x3b3e911d6bc9659f8cc03301175bd876ce4a3a980467b23c52d1bfe026d46b05",
      "blockNumber": 120719,
      "transactionIndex": 0,
      "confirmations": null,
      "from": "0xD007C3Ce0bFCFE50559e15a3737C236f8Fa15BbE",
      "gasPrice": {
        "_hex": "0xba43b7400"
      },
      "gasLimit": {
        "_hex": "0x7a120"
      },
      "to": "0x325e36e383630422B27dF8dBbd7C72BD40fB4F8B",
      "value": {
        "_hex": "0xe8d4a51000"
      },
      "nonce": 9,
      "data": "0x",
      "r": "0xee29a51c61d2619e2df5bc33f07c0711af0585dd7bb57a197fea22ddd7d89662",
      "s": "0x1fe3c58e5ff48d22ea8100599566bccb8a57e951bb60b48146b50d23b2434974",
      "v": 28,
      "creates": null,
      "raw": "0xf86a09850ba43b74008307a12094325e36e383630422b27df8dbbd7c72bd40fb4f8b85e8d4a51000801ca0ee29a51c61d2619e2df5bc33f07c0711af0585dd7bb57a197fea22ddd7d89662a01fe3c58e5ff48d22ea8100599566bccb8a57e951bb60b48146b50d23b2434974",
      "networkId": 0,
      "chainId": 0
    }
  ]
}