{
  "hash": "0xbf49f813020db1efc533e2a55b5189ce22a86cd60ea29c8117dc7918e937f56c",
  "parentHash": "0x95de1901657ced2f9d46e3247a5650659a0e31625f332125acf26d99d8b9b7f8",
  "number": 48501,
  "timestamp": 1438958202,
  "nonce": "0xa23385c0155d9976",
  "difficulty": 1462150912561,
  "gasLimit": {
    "_hex": "0x18489"
  },
  "gasUsed": {
    "_hex": "0x5208"
  },
  "miner": "0x3FC90B9Ec3dEb1712aed78FA29ef304566aD42EC",
  "extraData": "0x476574682f76312e302e302d30636463373634372f6c696e75782f676f312e34",
  "transactions": [
    {
      "hash": "0x515ce0b2111aa36c3e03779ecf3dbebc82401bc2e83c02ff927e66ce6610e967",
      "blockHash": "0xbf49f813020db1efc533e2a55b5189ce22a86cd60ea29c8117dc7918e937f56c",
      "blockNumber": 48501,
      "transactionIndex": 0,
      "confirmations": null,
      "from": "0x9c344098BA615A398F11D009905b177C44a7b602",
      "gasPrice": {
        "_hex": "0x108c85ef086"
      },
      "gasLimit": {
        "_hex": "0x15f90"
      },
      "to": "0xFe0412b699317daB06160e62f01A9dB95A261143",
      "value": {
        "_hex": "0x4563918244f40000"
      },
      "nonce": 0,
      "data": "0x",
      "r": "0x6620523e20a03bdc953adee2b34bfa0c0b2b07b4e69e783e62f63f9ea7a78020",
      "s": "0x2345cac8cc4cfd9ba63fc145421b48eb6489e7e99ca747356c018c0f906bcccf",
      "v": 28,
      "creates": null,
      "raw": "0xf86e80860108c85ef08683015f9094fe0412b699317dab06160e62f01a9db95a261143884563918244f40000801ca06620523e20a03bdc953adee2b34bfa0c0b2b07b4e69e783e62f63f9ea7a78020a02345cac8cc4cfd9ba63fc145421b48eb6489e7e99ca747356c018c0f906bcccf",
      "networkId": 0,
      "chainId": 0
    }
  ]
}