{
  "hash": "0xd84300feb6a2e2cbbd491683b010c6cff380fd2a1b68b2a16075ffec8d7325ae",
  "parentHash": "0xf34e715f4e7a8cdda30fff879b8fc84c4b3ba6a7a646c0ea8532c90eaada90f4",
  "number": 103034,
  "timestamp": 1439846689,
  "nonce": "0xbdbfac2a2fc7c9ec",
  "difficulty": 4160577618900,
  "gasLimit": {
    "_hex": "0x2fefd2"
  },
  "gasUsed": {
    "_hex": "0xf618"
  },
  "miner": "0xe6A7a1d47ff21B6321162AEA7C6CB457D5476Bca",
  "extraData": "0x476574682f76312e302e312d38326566323666362f6c696e75782f676f312e34",
  "transactions": [
    {
      "hash": "0x824164cd421e38966da8b1e2d29ed258816a8103d307822e7987efc7e24e38a4",
      "blockHash": "0xd84300feb6a2e2cbbd491683b010c6cff380fd2a1b68b2a16075ffec8d7325ae",
      "blockNumber": 103034,
      "transactionIndex": 0,
      "confirmations": null,
      "from": "0xb1abce2918E21ddb93AA452731a12672A3d9F75a",
      "gasPrice": {
        "_hex": "0xdae5506de"
      },
      "gasLimit": {
        "_hex": "0x5208"
      },
      "to": "0x32Be343B94f860124dC4fEe278FDCBD38C102D88",
      "value": {
        "_hex": "0x455f2f3f39943800"
      },
      "nonce": 113,
      "data": "0x",
      "r": "0xa4c0ce6bc5fd078024c4ede69c91904ba453df17aafaf8fbed2c4afe84662d7b",
      "s": "0x69ffb47680e41bc827a311fe496c4df659181d332200f35e2a989e676449fe3e",
      "v": 28,
      "creates": null,
      "raw": "0xf86c71850dae5506de8252089432be343b94f860124dc4fee278fdcbd38c102d8888455f2f3f39943800801ca0a4c0ce6bc5fd078024c4ede69c91904ba453df17aafaf8fbed2c4afe84662d7ba069ffb47680e41bc827a311fe496c4df659181d332200f35e2a989e676449fe3e",
      "networkId": 0,
      "chainId": 0
    },
    {
      "hash": "0x377d8e844b92495a154b8ac9552b357a1dbc2bcadadb045b7cf7b53a2d980fe1",
      "blockHash": "0xd84300feb6a2e2cbbd491683b010c6cff380fd2a1b68b2a16075ffec8d7325ae",
      "blockNumber": 103034,
      "transactionIndex": 1,
      "confirmations": null,
      "from": "0x50EEfd3CA3DdB144266bfAB2194Ba9CcE30cC8F0",
      "gasPrice": {
        "_hex": "0xdae5506de"
      },
      "gasLimit": {
        "_hex": "0x5208"
      },
      "to": "0x32Be343B94f860124dC4fEe278FDCBD38C102D88",
      "value": {
        "_hex": "0xf2edfa9cd33fc8000"
      },
      "nonce": 1,
      "data": "0x",
      "r": "0xeab0fd10ad6ebc138058d908ef3c6b2cb23091f98a8046faa2b79da9fb39fc53",
      "s": "0x188054efd6f9227fbceca0a8b4a875e78bde7a1d1092579790ecbfc8557b64a1",
      "v": 28,
      "creates": null,
      "raw": "0xf86d01850dae5506de8252089432be343b94f860124dc4fee278fdcbd38c102d88890f2edfa9cd33fc8000801ca0eab0fd10ad6ebc138058d908ef3c6b2cb23091f98a8046faa2b79da9fb39fc53a0188054efd6f9227fbceca0a8b4a875e78bde7a1d1092579790ecbfc8557b64a1",
      "networkId": 0,
      "chainId": 0
    },
    {
      "hash": "0xb0390ff706d060d40656f778e59e3d96167c9e54057793421c1a6ef4b9ce4ca3",
      "blockHash": "0xd84300feb6a2e2cbbd491683b010c6cff380fd2a1b68b2a16075ffec8d7325ae",
      "blockNumber": 103034,
      "transactionIndex": 2,
      "confirmations": null,
      "from": "0x8d304933a1F93F268bFDcFF9FFE6846a75167279",
      "gasPrice": {
        "_hex": "0xdae5506de"
      },
      "gasLimit": {
        "_hex": "0x5208"
      },
      "to": "0x32Be343B94f860124dC4fEe278FDCBD38C102D88",
      "value": {
        "_hex": "0x448f4ab0ed05c00"
      },
      "nonce": 7,
      "data": "0x",
      "r": "0xbdfc72c272aec40219b74eabe329aa8eea0a150709b08df34fd9bfb03c47810e",
      "s": "0x3539f325074c625ed4ef772ec2181e86ff315742ecc84fb8af6ab3d421f7bd36",
      "v": 27,
      "creates": null,
      "raw": "0xf86c07850dae5506de8252089432be343b94f860124dc4fee278fdcbd38c102d88880448f4ab0ed05c00801ba0bdfc72c272aec40219b74eabe329aa8eea0a150709b08df34fd9bfb03c47810ea03539f325074c625ed4ef772ec2181e86ff315742ecc84fb8af6ab3d421f7bd36",
      "networkId": 0,
      "chainId": 0
    }
  ]
}