{
  "hash": "0x8afabd43c6addfcd99fb8208c14b938be6d180c08104a3c3603831c03b56e5b1",
  "parentHash": "0x3f22c699eedc9fe9938a664d9c6b6ba7960af2924758c198b41274f2bc92afd8",
  "number": 111925,
  "timestamp": 1439998777,
  "nonce": "0xe93c170acbd53cbc",
  "difficulty": 4404820453138,
  "gasLimit": {
    "_hex": "0x2fefd8"
  },
  "gasUsed": {
    "_hex": "0xa410"
  },
  "miner": "0x47ff6576639c2e94762eA5443978D7681C0E78DC",
  "extraData": "0x",
  "transactions": [
    {
      "hash": "0x46a581e9011e21ddaffca6f77b98b03614a159fa829702cb8fb534d93c7b9a98",
      "blockHash": "0x8afabd43c6addfcd99fb8208c14b938be6d180c08104a3c3603831c03b56e5b1",
      "blockNumber": 111925,
      "transactionIndex": 0,
      "confirmations": null,
      "from": "0xc07082b0caEF1afaAA062CDae1c592c110B82aa5",
      "gasPrice": {
        "_hex": "0xd49609394"
      },
      "gasLimit": {
        "_hex": "0x5208"
      },
      "to": "0x32Be343B94f860124dC4fEe278FDCBD38C102D88",
      "value": {
        "_hex": "0x141b220e5030ac00"
      },
      "nonce": 6,
      "data": "0x",
      "r": "0xab83ec96ad65f661a3641cadc5d31c7a67b867c3fc07f3b8b84c144ac7952d51",
      "s": "0x4140802ad115dd2914a50141a48de628080e51053dbf4efc8978a2db665eb8ab",
      "v": 28,
      "creates": null,
      "raw": "0xf86c06850d496093948252089432be343b94f860124dc4fee278fdcbd38c102d8888141b220e5030ac00801ca0ab83ec96ad65f661a3641cadc5d31c7a67b867c3fc07f3b8b84c144ac7952d51a04140802ad115dd2914a50141a48de628080e51053dbf4efc8978a2db665eb8ab",
      "networkId": 0,
      "chainId": 0
    },
    {
      "hash": "0x364bbf3ef63092c894e70b22d82dce077a730da5cbb98d83e103cece803c42ce",
      "blockHash": "0x8afabd43c6addfcd99fb8208c14b938be6d180c08104a3c3603831c03b56e5b1",
      "blockNumber": 111925,
      "transactionIndex": 1,
      "confirmations": null,
      "from": "0x512f996df7C0e8256e822bA00C580871DfE20E16",
      "gasPrice": {
        "_hex": "0xd49609394"
      },
      "gasLimit": {
        "_hex": "0x5208"
      },
      "to": "0x32Be343B94f860124dC4fEe278FDCBD38C102D88",
      "value": {
        "_hex": "0x455f4f96aebf4800"
      },
      "nonce": 0,
      "data": "0x",
      "r": "0xc8a27add0ff7f72c80df750a51dfde597087a84f0db9163eaea85b0f89b38d84",
      "s": "0x4fafb5a46eb87ea411b52a798233b915ee8581c4ee2ad2c34814d052f4a1b255",
      "v": 27,
      "creates": null,
      "raw": "0xf86c80850d496093948252089432be343b94f860124dc4fee278fdcbd38c102d8888455f4f96aebf4800801ba0c8a27add0ff7f72c80df750a51dfde597087a84f0db9163eaea85b0f89b38d84a04fafb5a46eb87ea411b52a798233b915ee8581c4ee2ad2c34814d052f4a1b255",
      "networkId": 0,
      "chainId": 0
    }
  ]
}