{
  "hash": "0x204fce9e21dd5a19ccd298ba1440799e87b211a1ecfccd5abfdb0e909eea3cd2",
  "parentHash": "0x67207119a911d7496cdac82394f1470aa65f27e7096bbc7091d4898568bc5901",
  "number": 105462,
  "timestamp": 1439887976,
  "nonce": "0x4fcfdec85c0aa621",
  "difficulty": 4401762833335,
  "gasLimit": {
    "_hex": "0x2fefd8"
  },
  "gasUsed": {
    "_hex": "0x5208"
  },
  "miner": "0xe6A7a1d47ff21B6321162AEA7C6CB457D5476Bca",
  "extraData": "0x476574682f76312e302e312d38326566323666362f6c696e75782f676f312e34",
  "transactions": [
    {
      "hash": "0x42f6bfc97f46518c41477d6df3f44219fdaac9c2ea1bbafdf1d7b2aee43a0846",
      "blockHash": "0x204fce9e21dd5a19ccd298ba1440799e87b211a1ecfccd5abfdb0e909eea3cd2",
      "blockNumber": 105462,
      "transactionIndex": 0,
      "confirmations": null,
      "from": "0xdeE4977F74E6Aef6D627191c9A45D2627e331150",
      "gasPrice": {
        "_hex": "0xdf0fc8999"
      },
      "gasLimit": {
        "_hex": "0x5208"
      },
      "to": "0x32Be343B94f860124dC4fEe278FDCBD38C102D88",
      "value": {
        "_hex": "0xb464cf7f43992000"
      },
      "nonce": 18,
      "data": "0x",
      "r": "0x271deb1bf2408bd07ef56677f695762ded9fbbef68828dc160b92ad947eb052e",
      "s": "0x0ed55f1407f902763a5ab08f58e2de4cf4a7183f59f3ea79ffc939d4cf97d931",
      "v": 27,
      "creates": null,
      "raw": "0xf86c12850df0fc89998252089432be343b94f860124dc4fee278fdcbd38c102d8888b464cf7f43992000801ba0271deb1bf2408bd07ef56677f695762ded9fbbef68828dc160b92ad947eb052ea00ed55f1407f902763a5ab08f58e2de4cf4a7183f59f3ea79ffc939d4cf97d931",
      "networkId": 0,
      "chainId": 0
    }
  ]
}