{
  "hash": "0xa6de0e2793efe5b286eb0e076042fde82b1536292fc041edabc2a5afeef54cbd",
  "parentHash": "0x27c4aa37dc9fb5c773e8d27827d11c80bf5f91954ca0a730f3a890c008dd8dc5",
  "number": 52220,
  "timestamp": 1439018407,
  "nonce": "0x18463609c6cb33be",
  "difficulty": 1548939825396,
  "gasLimit": {
    "_hex": "0x11727d"
  },
  "gasUsed": {
    "_hex": "0xddfd"
  },
  "miner": "0x123843545FB525C8E134c9A5F15ADA6865cc3848",
  "extraData": "0x476574682f76312e302e312f77696e646f77732f676f312e342e32",
  "transactions": [
    {
      "hash": "0xfaaeb576d3a7578e01974c3f98bc6d3c57cff8d7728de1a5b3761ec699eda882",
      "blockHash": "0xa6de0e2793efe5b286eb0e076042fde82b1536292fc041edabc2a5afeef54cbd",
      "blockNumber": 52220,
      "transactionIndex": 0,
      "confirmations": null,
      "from": "0xAd7F5C601260b460ADAC6A54411Ca6Cf07dC83c3",
      "gasPrice": {
        "_hex": "0xcb479f9c8"
      },
      "gasLimit": {
        "_hex": "0x7a120"
      },
      "to": "0xA327075af2a223A1C83a36aDa1126afE7430f955",
      "value": {
        "_hex": "0x8ac7230489e80000"
      },
      "nonce": 1,
      "data": "0x",
      "r": "0x362f65879eafb46a54932742d4b0566a1d5bc7d8f3dc731099fca85ed85a5383",
      "s": "0x441289dac7bb661a03b492f25f1eb85970e60bea8f15f8b235b094f835e0f7c8",
      "v": 28,
      "creates": null,
      "raw": "0xf86d01850cb479f9c88307a12094a327075af2a223a1c83a36ada1126afe7430f955888ac7230489e80000801ca0362f65879eafb46a54932742d4b0566a1d5bc7d8f3dc731099fca85ed85a5383a0441289dac7bb661a03b492f25f1eb85970e60bea8f15f8b235b094f835e0f7c8",
      "networkId": 0,
      "chainId": 0
    }
  ]
}