{
  "hash": "0x7649adbb8a0f68071e7a39cd63f7bb5267bc17fe7fe589e84c155618ee16da39",
  "parentHash": "0xef8d6ea13d17bc1e194c8d6c41c1fbc594cb40f8521502672f22e81f5249fb2f",
  "number": 47752,
  "timestamp": 1438945781,
  "nonce": "0xfc7bdf0aedf5b467",
  "difficulty": 1448778116134,
  "gasLimit": {
    "_hex": "0xee28"
  },
  "gasUsed": {
    "_hex": "0x5208"
  },
  "miner": "0x580992B51e3925e23280EfB93d3047C82f17E038",
  "extraData": "0x476574682f76312e302e312f6c696e75782f676f312e342e32",
  "transactions": [
    {
      "hash": "0x6edf01516d6f5601e104f6a32912d94b533fa8089551366814549bd0ceef2783",
      "blockHash": "0x7649adbb8a0f68071e7a39cd63f7bb5267bc17fe7fe589e84c155618ee16da39",
      "blockNumber": 47752,
      "transactionIndex": 0,
      "confirmations": null,
      "from": "0xE4Dd37247830493DE1Df7c758DD746DCdE19419e",
      "gasPrice": {
        "_hex": "0xd69b48315"
      },
      "gasLimit": {
        "_hex": "0x7530"
      },
      "to": "0x123843545FB525C8E134c9A5F15ADA6865cc3848",
      "value": {
        "_hex": "0xde0b6b3a7640000"
      },
      "nonce": 0,
      "data": "0x",
      "r": "0x527804b753d370884050379ee123158b2db19be4551ae2c94e496910c3db8190",
      "s": "0x31adafc33e944ea9580a12d4f5e755ccd74d975ea9ed9efb88b578bafcfa5ec2",
      "v": 28,
      "creates": null,
      "raw": "0xf86c80850d69b4831582753094123843545fb525c8e134c9a5f15ada6865cc3848880de0b6b3a7640000801ca0527804b753d370884050379ee123158b2db19be4551ae2c94e496910c3db8190a031adafc33e944ea9580a12d4f5e755ccd74d975ea9ed9efb88b578bafcfa5ec2",
      "networkId": 0,
      "chainId": 0
    }
  ]
}