{
  "hash": "0x097f92f8028547d42c7d63751f8d500680f3198d1b4b134fea4b3d891c87310f",
  "parentHash": "0x95a11403634a86f62dd472b6d3d769be70d45a94fc78aa82431246fce32a18b3",
  "number": 111330,
  "timestamp": 1439988317,
  "nonce": "0xd0dd8909a36bc18c",
  "difficulty": 4437515499478,
  "gasLimit": {
    "_hex": "0x2fefd8"
  },
  "gasUsed": {
    "_hex": "0x5208"
  },
  "miner": "0xf927a40C8B7F6E07c5af7FA2155B4864a4112B13",
  "extraData": "0x",
  "transactions": [
    {
      "hash": "0x124d3f9e46f3e7bfa8e1c9281ef41cfbe19b23ca62c55abf05c788808dcbf73a",
      "blockHash": "0x097f92f8028547d42c7d63751f8d500680f3198d1b4b134fea4b3d891c87310f",
      "blockNumber": 111330,
      "transactionIndex": 0,
      "confirmations": null,
      "from": "0x513cc87Fc09c7Dedae9A780a66dc47ebeE4B5C5A",
      "gasPrice": {
        "_hex": "0xd7d40ace3"
      },
      "gasLimit": {
        "_hex": "0x5208"
      },
      "to": "0xE3535c3A7F74fDd1447140e98FA5fE310028f40f",
      "value": {
        "_hex": "0x6124fee993bc0000"
      },
      "nonce": 6,
      "data": "0x",
      "r": "0x4d03992d6f07f725dc287cdba37233bc2bdf2b30770ade8c3fdaf70e53c6be81",
      "s": "0x5565f0b747a8098281879ba93441f52fe715ae4744bafa93c8c8c58ec60ade8b",
      "v": 27,
      "creates": null,
      "raw": "0xf86c06850d7d40ace382520894e3535c3a7f74fdd1447140e98fa5fe310028f40f886124fee993bc0000801ba04d03992d6f07f725dc287cdba37233bc2bdf2b30770ade8c3fdaf70e53c6be81a05565f0b747a8098281879ba93441f52fe715ae4744bafa93c8c8c58ec60ade8b",
      "networkId": 0,
      "chainId": 0
    }
  ]
}