{
  "hash": "0x39acad352b2b61e06a4980e97704fb73b6288314d50454cce656821d585074ac",
  "parentHash": "0x2285f783726c84623bab0386395b539968fcbce08aebb40f9188188782cf0a53",
  "number": 92415,
  "timestamp": 1439671589,
  "nonce": "0x35964f674ecbacfc",
  "difficulty": 3523445397208,
  "gasLimit": {
    "_hex": "0x2fefd8"
  },
  "gasUsed": {
    "_hex": "0x5208"
  },
  "miner": "0xe6A7a1d47ff21B6321162AEA7C6CB457D5476Bca",
  "extraData": "0x476574682f76312e302e312d38326566323666362f6c696e75782f676f312e34",
  "transactions": [
    {
      "hash": "0x9113ee7ff8e8787ec56aba2f528c03a09d160938d21a269ceb8bc7a65f6d109b",
      "blockHash": "0x39acad352b2b61e06a4980e97704fb73b6288314d50454cce656821d585074ac",
      "blockNumber": 92415,
      "transactionIndex": 0,
      "confirmations": null,
      "from": "0xf01CD4c66F3633880Cbd076A2105f9c1400dD7c7",
      "gasPrice": {
        "_hex": "0xd24f420ac"
      },
      "gasLimit": {
        "_hex": "0x15f90"
      },
      "to": "0xf2cC0eEAAAeD313542CB262B0B8c3972425143f0",
      "value": {
        "_hex": "0x340aad21b3b70000"
      },
      "nonce": 1,
      "data": "0x",
      "r": "0x98bff506f512b96084e70798e01cb6713684836ec59620f678d0eb21b9aff750",
      "s": "0x652706f0d8da6212de71081318e89ecb09a813875901d1dae043e27cc22caf7c",
      "v": 28,
      "creates": null,
      "raw": "0xf86d01850d24f420ac83015f9094f2cc0eeaaaed313542cb262b0b8c3972425143f088340aad21b3b70000801ca098bff506f512b96084e70798e01cb6713684836ec59620f678d0eb21b9aff750a0652706f0d8da6212de71081318e89ecb09a813875901d1dae043e27cc22caf7c",
      "networkId": 0,
      "chainId": 0
    }
  ]
}