{
  "hash": "0x15113fee097c92d349df5e5d53a4b65135d05679fd387d8f32343a5b90efcc52",
  "parentHash": "0xf66a5f402509a3e299933fdd47cbf204ede012919c69b335479618bff93731db",
  "number": 70596,
  "timestamp": 1439322468,
  "nonce": "0x6fd3b12afc36d99e",
  "difficulty": 2145784348238,
  "gasLimit": {
    "_hex": "0x2fefd8"
  },
  "gasUsed": {
    "_hex": "0x5208"
  },
  "miner": "0xf927a40C8B7F6E07c5af7FA2155B4864a4112B13",
  "extraData": "0x",
  "transactions": [
    {
      "hash": "0xde9f5cf14b622c88ebba158fe379a47e31565bb1cb9c2ce5c6d09c33f5cd42f0",
      "blockHash": "0x15113fee097c92d349df5e5d53a4b65135d05679fd387d8f32343a5b90efcc52",
      "blockNumber": 70596,
      "transactionIndex": 0,
      "confirmations": null,
      "from": "0x2dd8Eeef87194Abc2Ce7585da1E35B7CEa780Cb7",
      "gasPrice": {
        "_hex": "0xd14535772"
      },
      "gasLimit": {
        "_hex": "0x15f90"
      },
      "to": "0xd6a456c0d46f7a8404f662bBEc6BA7da6252F503",
      "value": {
        "_hex": "0x56bc75e2d63100000"
      },
      "nonce": 3,
      "data": "0x",
      "r": "0x6b2be91603170d4847199cfea59a11863d23b6a9f9f57bee67f78c3623724d1b",
      "s": "0x6c5c04fcc4f5b6a2e833cf0036cc2ef1723ad6c55bfbbb8066b7b4593d55051d",
      "v": 28,
      "creates": null,
      "raw": "0xf86e03850d1453577283015f9094d6a456c0d46f7a8404f662bbec6ba7da6252f50389056bc75e2d63100000801ca06b2be91603170d4847199cfea59a11863d23b6a9f9f57bee67f78c3623724d1ba06c5c04fcc4f5b6a2e833cf0036cc2ef1723ad6c55bfbbb8066b7b4593d55051d",
      "networkId": 0,
      "chainId": 0
    }
  ]
}