{
  "hash": "0xdcfd8fdeda6c21a47f707c44e97dd3e25aab0d03e3e27fc181cf5e7e1a8c7213",
  "parentHash": "0x0732dcc009cdaf3b7ca10d002c17891fe6a2dbdc6410343de750d217588e11a9",
  "number": 89427,
  "timestamp": 1439623289,
  "nonce": "0x6acec15c38338a53",
  "difficulty": 3304689050185,
  "gasLimit": {
    "_hex": "0x2fefd8"
  },
  "gasUsed": {
    "_hex": "0x5208"
  },
  "miner": "0x2f6BCe4fc330B69C9B4c2694d57C63Ec7B18feC7",
  "extraData": "0x476574682f76312e302e312f77696e646f77732f676f312e342e32",
  "transactions": [
    {
      "hash": "0x7613558d557c2db219998afd40b7e0841f73e84bb8ac7c40af9bae9536a80969",
      "blockHash": "0xdcfd8fdeda6c21a47f707c44e97dd3e25aab0d03e3e27fc181cf5e7e1a8c7213",
      "blockNumber": 89427,
      "transactionIndex": 0,
      "confirmations": null,
      "from": "0x2910543Af39abA0Cd09dBb2D50200b3E800A63D2",
      "gasPrice": {
        "_hex": "0xde793980d"
      },
      "gasLimit": {
        "_hex": "0x5208"
      },
      "to": "0xe07d5Fc0000E4a512BA196cF86233bb16376978D",
      "value": {
        "_hex": "0x526520931e63b8000"
      },
      "nonce": 753,
      "data": "0x",
      "r": "0x5757def8b875b19c70f624296bcb9642b3d896d10a6799352c8945367cc83ec7",
      "s": "0x782591fb21f1b8e9b05a4f8671a6a6081c30b13de68cf0592c84aea0c26151e2",
      "v": 28,
      "creates": null,
      "raw": "0xf86f8202f1850de793980d82520894e07d5fc0000e4a512ba196cf86233bb16376978d890526520931e63b8000801ca05757def8b875b19c70f624296bcb9642b3d896d10a6799352c8945367cc83ec7a0782591fb21f1b8e9b05a4f8671a6a6081c30b13de68cf0592c84aea0c26151e2",
      "networkId": 0,
      "chainId": 0
    }
  ]
}