{
  "hash": "0xf2401c545fdcc031586853e81767641ade4f0154a0bfdee29e8f7ad4cdf7365c",
  "parentHash": "0xd3bf350abaac3fa2efb74849495c6f0f86be4e1b3ec97a54028b49098991b6ae",
  "number": 93672,
  "timestamp": 1439695584,
  "nonce": "0x2f46697f97ea2e52",
  "difficulty": 3436271870437,
  "gasLimit": {
    "_hex": "0x2fefd8"
  },
  "gasUsed": {
    "_hex": "0xa410"
  },
  "miner": "0xeB1325C8D9d3ea8D74aC11F4B00F1B2367686319",
  "extraData": "0x476574682f76312e302e312f77696e646f77732f676f312e342e32",
  "transactions": [
    {
      "hash": "0xbc6696f2dbc9d156db426e880cc48b6f80e46add53e95a4ae68e1fff93a8faa8",
      "blockHash": "0xf2401c545fdcc031586853e81767641ade4f0154a0bfdee29e8f7ad4cdf7365c",
      "blockNumber": 93672,
      "transactionIndex": 0,
      "confirmations": null,
      "from": "0x120A270bbC009644e35F0bB6ab13f95b8199c4ad",
      "gasPrice": {
        "_hex": "0xdb35ad34c"
      },
      "gasLimit": {
        "_hex": "0x3d090"
      },
      "to": "0x61D101a033EE0E2EbB3100eDe766dF1AD0244954",
      "value": {
        "_hex": "0x91d256bceaaf84000"
      },
      "nonce": 566,
      "data": "0x",
      "r": "0x0d8be96e560687a221417764431eb6d91d8c51bade73f05983d9857228446ec6",
      "s": "0x59b0925ba3ec6faf5823fbd2756392a610100ebe975b1fc9b8ee684953eae844",
      "v": 28,
      "creates": null,
      "raw": "0xf870820236850db35ad34c8303d0909461d101a033ee0e2ebb3100ede766df1ad024495489091d256bceaaf84000801ca00d8be96e560687a221417764431eb6d91d8c51bade73f05983d9857228446ec6a059b0925ba3ec6faf5823fbd2756392a610100ebe975b1fc9b8ee684953eae844",
      "networkId": 0,
      "chainId": 0
    },
    {
      "hash": "0x9bd0d56716fb8cb91a77be8f9d733723f5d26bc75aa1d6925c49de34be74be7b",
      "blockHash": "0xf2401c545fdcc031586853e81767641ade4f0154a0bfdee29e8f7ad4cdf7365c",
      "blockNumber": 93672,
      "transactionIndex": 1,
      "confirmations": null,
      "from": "0x9CF253B20806e369059D8D8023f376b1aE248aDD",
      "gasPrice": {
        "_hex": "0xd8364fc25"
      },
      "gasLimit": {
        "_hex": "0x15f90"
      },
      "to": "0x214Bff3588C0607Ac539d1407fb382C787B487eD",
      "value": {
        "_hex": "0x8ac7230489e80000"
      },
      "nonce": 6,
      "data": "0x",
      "r": "0x353053a04a8f814062f7a6d03029c22fa7463ae0faef1a84d6aebc0049b16b61",
      "s": "0x3fa3736f14c8b9961746a0b0f993682509bdf3cda235e34f753da52ad24185d9",
      "v": 28,
      "creates": null,
      "raw": "0xf86d06850d8364fc2583015f9094214bff3588c0607ac539d1407fb382c787b487ed888ac7230489e80000801ca0353053a04a8f814062f7a6d03029c22fa7463ae0faef1a84d6aebc0049b16b61a03fa3736f14c8b9961746a0b0f993682509bdf3cda235e34f753da52ad24185d9",
      "networkId": 0,
      "chainId": 0
    }
  ]
}