{
  "hash": "0x8547a3b619e54a89577c824065f1700155f3bf07f1efc4248508dd83c2501c8c",
  "parentHash": "0x43e3eb3d975800743b353fc9d9ff4872eca67f16e1ed2175024623b704f668ec",
  "number": 92124,
  "timestamp": 1439667150,
  "nonce": "0x11380037a13a33fc",
  "difficulty": 3477419208929,
  "gasLimit": {
    "_hex": "0x2fefd8"
  },
  "gasUsed": {
    "_hex": "0x5208"
  },
  "miner": "0xe6A7a1d47ff21B6321162AEA7C6CB457D5476Bca",
  "extraData": "0x476574682f76312e302e312d38326566323666362f6c696e75782f676f312e34",
  "transactions": [
    {
      "hash": "0x23ed2af9fc7458a80185d275dda9e62145e30bad9bc962a885d4f14c1c9ca4b0",
      "blockHash": "0x8547a3b619e54a89577c824065f1700155f3bf07f1efc4248508dd83c2501c8c",
      "blockNumber": 92124,
      "transactionIndex": 0,
      "confirmations": null,
      "from": "0x8293b65bD915B9FF87F6aDAb479da2e5b6633fDB",
      "gasPrice": {
        "_hex": "0xdb429d0bd"
      },
      "gasLimit": {
        "_hex": "0x15f90"
      },
      "to": "0x9f78552704fe7e52cC7C3853534aA2C3cf580D54",
      "value": {
        "_hex": "0xc249fdd327780000"
      },
      "nonce": 23,
      "data": "0x",
      "r": "0xb68c4be14d4eebb603c530c7ac66b2a3950bb9cf5a0966dde0f8db0c4c9238a4",
      "s": "0x5e67fdad5a4e440cb311e608bf00ae6b08a6730f148b8af74475f4f6d5b7100c",
      "v": 27,
      "creates": null,
      "raw": "0xf86d17850db429d0bd83015f90949f78552704fe7e52cc7c3853534aa2c3cf580d5488c249fdd327780000801ba0b68c4be14d4eebb603c530c7ac66b2a3950bb9cf5a0966dde0f8db0c4c9238a4a05e67fdad5a4e440cb311e608bf00ae6b08a6730f148b8af74475f4f6d5b7100c",
      "networkId": 0,
      "chainId": 0
    }
  ]
}