{
  "hash": "0xd3418e4db7c0193c168031be1850da925f16f86d119a97e077b0588813478169",
  "parentHash": "0xe58bf1f0708fee0f516c32c464aeefc6ec1fdceaf00010b102548b4aa17b8c27",
  "number": 69949,
  "timestamp": 1439312425,
  "nonce": "0xc03da575f27f9a5d",
  "difficulty": 2101363000538,
  "gasLimit": {
    "_hex": "0x2fefd8"
  },
  "gasUsed": {
    "_hex": "0x5208"
  },
  "miner": "0xe6A7a1d47ff21B6321162AEA7C6CB457D5476Bca",
  "extraData": "0x476574682f76312e302e312d38326566323666362f6c696e75782f676f312e34",
  "transactions": [
    {
      "hash": "0x184b5900a84d24b78b4c51bc190dd7d0853593ccd6122ac1a6ee30743f73b457",
      "blockHash": "0xd3418e4db7c0193c168031be1850da925f16f86d119a97e077b0588813478169",
      "blockNumber": 69949,
      "transactionIndex": 0,
      "confirmations": null,
      "from": "0x6d921977dEFE5f4e0682CA512De1D07b1f4802E1",
      "gasPrice": {
        "_hex": "0xdb9b4c0b3"
      },
      "gasLimit": {
        "_hex": "0x5208"
      },
      "to": "0x32Be343B94f860124dC4fEe278FDCBD38C102D88",
      "value": {
        "_hex": "0xddc459d784e8000"
      },
      "nonce": 1,
      "data": "0x",
      "r": "0x248b43e5b43692a4c96d3b62693680c39eefa3983ac2cf0d27f614304c45e4d6",
      "s": "0x12d4e92df488782f61048c15e8bcc506c7e588b1bd12b8cc1603891ae4ce9e49",
      "v": 28,
      "creates": null,
      "raw": "0xf86c01850db9b4c0b38252089432be343b94f860124dc4fee278fdcbd38c102d88880ddc459d784e8000801ca0248b43e5b43692a4c96d3b62693680c39eefa3983ac2cf0d27f614304c45e4d6a012d4e92df488782f61048c15e8bcc506c7e588b1bd12b8cc1603891ae4ce9e49",
      "networkId": 0,
      "chainId": 0
    }
  ]
}