{
  "hash": "0x866dfa064f49d5c4ba57c086a7d0e57a98d84e8198625c245055d2cc8e105193",
  "parentHash": "0x536afc9618c9fbdd720b3356986cf3029f374636f2edae0ad6d2824184b8dccc",
  "number": 91631,
  "timestamp": 1439658763,
  "nonce": "0x161f5388d8b5a19a",
  "difficulty": 3503187966679,
  "gasLimit": {
    "_hex": "0x2fefd8"
  },
  "gasUsed": {
    "_hex": "0x5208"
  },
  "miner": "0x790b8a3cE86E707ED0eD32bF89B3269692a23CC1",
  "extraData": "0xd783010001844765746887676f312e342e32856c696e7578",
  "transactions": [
    {
      "hash": "0xe66986e719d01c29bbae4cba756989f0fefeca88eda312596a282326351afcb3",
      "blockHash": "0x866dfa064f49d5c4ba57c086a7d0e57a98d84e8198625c245055d2cc8e105193",
      "blockNumber": 91631,
      "transactionIndex": 0,
      "confirmations": null,
      "from": "0xa70a9a7040d542C632D8e0bE7c5513A8a5Bbc752",
      "gasPrice": {
        "_hex": "0xd67e44af6"
      },
      "gasLimit": {
        "_hex": "0x5208"
      },
      "to": "0x32Be343B94f860124dC4fEe278FDCBD38C102D88",
      "value": {
        "_hex": "0x455f45cfc0d0dc00"
      },
      "nonce": 120,
      "data": "0x",
      "r": "0x085e697b4b24d7128f59090d893230e41a47a47bb2c21125754c21ab0af8a624",
      "s": "0x0ad3abab771a347fd35a5679d70aac7923ae73239feadc42a3d7cc74dd611bf1",
      "v": 28,
      "creates": null,
      "raw": "0xf86c78850d67e44af68252089432be343b94f860124dc4fee278fdcbd38c102d8888455f45cfc0d0dc00801ca0085e697b4b24d7128f59090d893230e41a47a47bb2c21125754c21ab0af8a624a00ad3abab771a347fd35a5679d70aac7923ae73239feadc42a3d7cc74dd611bf1",
      "networkId": 0,
      "chainId": 0
    }
  ]
}