{
  "hash": "0x2c53876d05bdc2ed343872d4e60a6b3775854ab263d8451a0878277123535096",
  "parentHash": "0x39727d72640d998b65347e81a2d51ae6cebe650dbac6aa0713d368fff5b83d0b",
  "number": 115895,
  "timestamp": 1440065158,
  "nonce": "0x1dd8d727de681032",
  "difficulty": 4564728569302,
  "gasLimit": {
    "_hex": "0x2fefd8"
  },
  "gasUsed": {
    "_hex": "0x5208"
  },
  "miner": "0xe6A7a1d47ff21B6321162AEA7C6CB457D5476Bca",
  "extraData": "0x476574682f76312e302e312d38326566323666362f6c696e75782f676f312e34",
  "transactions": [
    {
      "hash": "0x51bf335b72751114c5b481e75acaefd913f253bb2a56ce5b4d9c6dfc56a1e691",
      "blockHash": "0x2c53876d05bdc2ed343872d4e60a6b3775854ab263d8451a0878277123535096",
      "blockNumber": 115895,
      "transactionIndex": 0,
      "confirmations": null,
      "from": "0x512f996df7C0e8256e822bA00C580871DfE20E16",
      "gasPrice": {
        "_hex": "0xcf630829c"
      },
      "gasLimit": {
        "_hex": "0x5208"
      },
      "to": "0x32Be343B94f860124dC4fEe278FDCBD38C102D88",
      "value": {
        "_hex": "0x56bc336ea10fec000"
      },
      "nonce": 2,
      "data": "0x",
      "r": "0x5198d049be5b9dfe49ab259497b7425555ec3e5a98e40b785c3c6aa1ad9f177f",
      "s": "0x0fd81f7301b82cb4124b1b0ce9f0123f81f2a675de1e0af10fb17b7f1cef9b3a",
      "v": 28,
      "creates": null,
      "raw": "0xf86d02850cf630829c8252089432be343b94f860124dc4fee278fdcbd38c102d8889056bc336ea10fec000801ca05198d049be5b9dfe49ab259497b7425555ec3e5a98e40b785c3c6aa1ad9f177fa00fd81f7301b82cb4124b1b0ce9f0123f81f2a675de1e0af10fb17b7f1cef9b3a",
      "networkId": 0,
      "chainId": 0
    }
  ]
}