{
  "hash": "0xcfcde646e0098c966879e6d7b70aad7f63cf0fc7bf8fc14d17d4c26923267023",
  "parentHash": "0xcd18901ca21c1467bf1ca3758ccf6436f3d635651f4af2c99661f9f82aec0ebe",
  "number": 67868,
  "timestamp": 1439278636,
  "nonce": "0x786742b2665a5bc0",
  "difficulty": 1952486682654,
  "gasLimit": {
    "_hex": "0x2fefd5"
  },
  "gasUsed": {
    "_hex": "0x5208"
  },
  "miner": "0x47ff6576639c2e94762eA5443978D7681C0E78DC",
  "extraData": "0x476574682f76312e302e312f6c696e75782f676f312e342e32",
  "transactions": [
    {
      "hash": "0x3f5bad7fdbc94749c175aac198da4cd5b06d587d0a7208fe8322ada23b022b87",
      "blockHash": "0xcfcde646e0098c966879e6d7b70aad7f63cf0fc7bf8fc14d17d4c26923267023",
      "blockNumber": 67868,
      "transactionIndex": 0,
      "confirmations": null,
      "from": "0x9Eb13f2Df9A75B34f1e48D8eC2aF7DfbDabA1764",
      "gasPrice": {
        "_hex": "0xdd8e1614e"
      },
      "gasLimit": {
        "_hex": "0x15f90"
      },
      "to": "0x608F680cB915b87F83f3d369bBbb796D778c6162",
      "value": {
        "_hex": "0x13fbe85edc90000"
      },
      "nonce": 4,
      "data": "0x",
      "r": "0xdb96d5eadc62ce355c3637b1875988ab6217353b852de52be2f6e43b1b40c5de",
      "s": "0x0db0f131a095fcedfd5c5df90b29326bc8f298c914b36b4ff46ef0add17640c7",
      "v": 28,
      "creates": null,
      "raw": "0xf86d04850dd8e1614e83015f9094608f680cb915b87f83f3d369bbbb796d778c616288013fbe85edc90000801ca0db96d5eadc62ce355c3637b1875988ab6217353b852de52be2f6e43b1b40c5dea00db0f131a095fcedfd5c5df90b29326bc8f298c914b36b4ff46ef0add17640c7",
      "networkId": 0,
      "chainId": 0
    }
  ]
}