{
  "hash": "0x88b769c305c8b802089b784f7e4d012af83240f1054556346f5c182e8d4c66ad",
  "parentHash": "0xfd2b53625bcb9a7b2a3e4b7532a410216d6f20603dc141f09683c42608b281bd",
  "number": 112807,
  "timestamp": 1440013609,
  "nonce": "0x0a6d06535363262d",
  "difficulty": 4421595511808,
  "gasLimit": {
    "_hex": "0x2fefd8"
  },
  "gasUsed": {
    "_hex": "0x5208"
  },
  "miner": "0x2C674A948592B20a4B775E1a3991Db043E6CF0FE",
  "extraData": "0x476574682f76312e302e312d38326566323666362f6c696e75782f676f312e34",
  "transactions": [
    {
      "hash": "0x8e34b3d8522d7f9a2ed53e887c41ded0883cbc08962e4d9c1bb1d616510509ae",
      "blockHash": "0x88b769c305c8b802089b784f7e4d012af83240f1054556346f5c182e8d4c66ad",
      "blockNumber": 112807,
      "transactionIndex": 0,
      "confirmations": null,
      "from": "0x3F6DDbC103F2999640fe4AFc6884708fa691C2b8",
      "gasPrice": {
        "_hex": "0xd2d61a888"
      },
      "gasLimit": {
        "_hex": "0x5208"
      },
      "to": "0x32Be343B94f860124dC4fEe278FDCBD38C102D88",
      "value": {
        "_hex": "0x337aaf4b0ee01800"
      },
      "nonce": 6,
      "data": "0x",
      "r": "0x946237f5402aa118720053bd41820f198e6ebba7d6d1fa8856d1d503422f3b4d",
      "s": "0x5f1b0e9aff7f857c3ed3318ae900bb049670c2de66640bb5e3a0ef4c9f8a4985",
      "v": 27,
      "creates": null,
      "raw": "0xf86c06850d2d61a8888252089432be343b94f860124dc4fee278fdcbd38c102d8888337aaf4b0ee01800801ba0946237f5402aa118720053bd41820f198e6ebba7d6d1fa8856d1d503422f3b4da05f1b0e9aff7f857c3ed3318ae900bb049670c2de66640bb5e3a0ef4c9f8a4985",
      "networkId": 0,
      "chainId": 0
    }
  ]
}