{
  "hash": "0x45a63d4060f4542dfb779578e6f12d89e6c982b77dbbe9a4d85c5a2296757d0f",
  "parentHash": "0x1d08f1b99388480c6981cd2e84a19035ba7321418068179a4bb6f928be817ca4",
  "number": 102625,
  "timestamp": 1439840768,
  "nonce": "0x3c23684d24ab833d",
  "difficulty": 4011164408233,
  "gasLimit": {
    "_hex": "0x2fefd8"
  },
  "gasUsed": {
    "_hex": "0x5208"
  },
  "miner": "0xbb7B8287f3F0a933474a79eAe42CBCa977791171",
  "extraData": "0x476574682f4c5649562f76312e302e312f6c696e75782f676f312e342e32",
  "transactions": [
    {
      "hash": "0xa1ec8ecb0360634d71342585b7ae77168336bff5b51efc10399e8961f66a4242",
      "blockHash": "0x45a63d4060f4542dfb779578e6f12d89e6c982b77dbbe9a4d85c5a2296757d0f",
      "blockNumber": 102625,
      "transactionIndex": 0,
      "confirmations": null,
      "from": "0x120A270bbC009644e35F0bB6ab13f95b8199c4ad",
      "gasPrice": {
        "_hex": "0xcce753b46"
      },
      "gasLimit": {
        "_hex": "0x3d090"
      },
      "to": "0xD43ee438D83dE9a37562Bb4E286Cb1bD19F4964D",
      "value": {
        "_hex": "0x56bc75e2d63100000"
      },
      "nonce": 701,
      "data": "0x",
      "r": "0xe8a9b9c986989ca865dd112d7b05b2f9a23948e9e185060262237c548294c5eb",
      "s": "0x133af323ea55d7817a20473f1475fb4a7dd61701d5a0eac475ccfd0aa5ffb65c",
      "v": 28,
      "creates": null,
      "raw": "0xf8708202bd850cce753b468303d09094d43ee438d83de9a37562bb4e286cb1bd19f4964d89056bc75e2d63100000801ca0e8a9b9c986989ca865dd112d7b05b2f9a23948e9e185060262237c548294c5eba0133af323ea55d7817a20473f1475fb4a7dd61701d5a0eac475ccfd0aa5ffb65c",
      "networkId": 0,
      "chainId": 0
    }
  ]
}