{
  "hash": "0xab28ad0d2b148526c189290d5f3b6dfe353d56b4f5b9b4457d5994adcfa7fa79",
  "parentHash": "0x1249881f1cd0602c768c1b9d2e574c509bfc895b73e076bfbfc3219b4f47b1e0",
  "number": 50217,
  "timestamp": 1438985657,
  "nonce": "0x132617cb8921f167",
  "difficulty": 1511204694722,
  "gasLimit": {
    "_hex": "0x5718c"
  },
  "gasUsed": {
    "_hex": "0x5208"
  },
  "miner": "0xbb7B8287f3F0a933474a79eAe42CBCa977791171",
  "extraData": "0x476574682f4c5649562f76312e302e312f6c696e75782f676f312e342e32",
  "transactions": [
    {
      "hash": "0x6678780b6106e6a10e620e1a4d767fefaef7c0ba510755b5bbb50803bf4a4094",
      "blockHash": "0xab28ad0d2b148526c189290d5f3b6dfe353d56b4f5b9b4457d5994adcfa7fa79",
      "blockNumber": 50217,
      "transactionIndex": 0,
      "confirmations": null,
      "from": "0x136D4b662BbD1080Cfe4445B0fA213864435B7f1",
      "gasPrice": {
        "_hex": "0xda5b7238d"
      },
      "gasLimit": {
        "_hex": "0x5208"
      },
      "to": "0xc8ebccC5F5689Fa8659d83713341e5aD19349448",
      "value": {
        "_hex": "0x4c4e683e7db18"
      },
      "nonce": 4,
      "data": "0x",
      "r": "0xc743e17df9a96fc048013e962435a5debec4ca1d9c8803882babc3c5734954b9",
      "s": "0x01911e7c821912100a39012806a728de2a22e3c39d1221294a3d05b5da7c7f31",
      "v": 28,
      "creates": null,
      "raw": "0xf86b04850da5b7238d82520894c8ebccc5f5689fa8659d83713341e5ad193494488704c4e683e7db18801ca0c743e17df9a96fc048013e962435a5debec4ca1d9c8803882babc3c5734954b9a001911e7c821912100a39012806a728de2a22e3c39d1221294a3d05b5da7c7f31",
      "networkId": 0,
      "chainId": 0
    }
  ]
}