{
  "hash": "0x196db6dd7a8c044dc2a5310e019852b4b0d419d4b30b20c5878795dae1b45747",
  "parentHash": "0xf8145b68d5270851cfb530f0f3ee7a80020192ef06a9ba365059458e09cf881a",
  "number": 51225,
  "timestamp": 1439001456,
  "nonce": "0x77ebc39a90a20bfc",
  "difficulty": 1565089848631,
  "gasLimit": {
    "_hex": "0x9ba3d"
  },
  "gasUsed": {
    "_hex": "0xddfd"
  },
  "miner": "0xf8E0CA3Ed80bd541b94BEdCf259e8CF2141A9523",
  "extraData": "0x476574682f76312e302e312f77696e646f77732f676f312e342e32",
  "transactions": [
    {
      "hash": "0x352beb816ebb2dc0d7f6c7db842940e4e5b01e30edc27d63b2e3f427a882db40",
      "blockHash": "0x196db6dd7a8c044dc2a5310e019852b4b0d419d4b30b20c5878795dae1b45747",
      "blockNumber": 51225,
      "transactionIndex": 0,
      "confirmations": null,
      "from": "0x8dd1564B9F5de977842650A81926AF713963C070",
      "gasPrice": {
        "_hex": "0xce3b2b06d"
      },
      "gasLimit": {
        "_hex": "0x15f90"
      },
      "to": "0x109C4f2CCc82C4d77Bde15F306707320294Aea3F",
      "value": {
        "_hex": "0xde0b6b3a7640000"
      },
      "nonce": 1,
      "data": "0x",
      "r": "0xc95a8b1ae01127f6b5cba2dbd3de509229d557a845a872c1497babb14dfd905d",
      "s": "0x0914508f242657bf4d973b9215fde369f1373f8363366cecbe03002df8aba91c",
      "v": 27,
      "creates": null,
      "raw": "0xf86d01850ce3b2b06d83015f9094109c4f2ccc82c4d77bde15f306707320294aea3f880de0b6b3a7640000801ba0c95a8b1ae01127f6b5cba2dbd3de509229d557a845a872c1497babb14dfd905da00914508f242657bf4d973b9215fde369f1373f8363366cecbe03002df8aba91c",
      "networkId": 0,
      "chainId": 0
    }
  ]
}