{
  "hash": "0x6f356eaba5382a7fe50458f7585e717b8665aaff7b5e42ae8852cb3c4e424c09",
  "parentHash": "0x0b32f34a4274e8d62d4a80fbbae4bfc9f50640c8a63d910ab4ffb0dec9895edd",
  "number": 83202,
  "timestamp": 1439531784,
  "nonce": "0xfad35dc852f1cbf7",
  "difficulty": 2418375795884,
  "gasLimit": {
    "_hex": "0x2fefd8"
  },
  "gasUsed": {
    "_hex": "0x5208"
  },
  "miner": "0xbb7B8287f3F0a933474a79eAe42CBCa977791171",
  "extraData": "0x476574682f4c5649562f76312e302e312f6c696e75782f676f312e342e32",
  "transactions": [
    {
      "hash": "0x08bb36a761255814e8d80c236ce066b50f15b40047126fc940ac4098b7543fd0",
      "blockHash": "0x6f356eaba5382a7fe50458f7585e717b8665aaff7b5e42ae8852cb3c4e424c09",
      "blockNumber": 83202,
      "transactionIndex": 0,
      "confirmations": null,
      "from": "0xFDE80370e058cfC8292D8eE4D7ed14c37Aa66D89",
      "gasPrice": {
        "_hex": "0xcf6c44c1e"
      },
      "gasLimit": {
        "_hex": "0x5208"
      },
      "to": "0x32Be343B94f860124dC4fEe278FDCBD38C102D88",
      "value": {
        "_hex": "0x8ac2f1e0ad658000"
      },
      "nonce": 0,
      "data": "0x",
      "r": "0x5de9a99de49740a678a3b644ad365637c6e1b3b4a23698f13856f4b15888e6c4",
      "s": "0x4b9cd0bb3e883d20fbb4dd2fb136417b3a66033738bd1229c05cbbd28ea76924",
      "v": 28,
      "creates": null,
      "raw": "0xf86c80850cf6c44c1e8252089432be343b94f860124dc4fee278fdcbd38c102d88888ac2f1e0ad658000801ca05de9a99de49740a678a3b644ad365637c6e1b3b4a23698f13856f4b15888e6c4a04b9cd0bb3e883d20fbb4dd2fb136417b3a66033738bd1229c05cbbd28ea76924",
      "networkId": 0,
      "chainId": 0
    }
  ]
}