{
  "hash": "0x70b099c9ca497b3d510937e77369ee7c0b8a45bfb7d5f93f36c304d33b71050e",
  "parentHash": "0x62ed28e624238cdfc43f7667dd6313d26ea66e13f7ca77b17e97dfe208d8945c",
  "number": 100788,
  "timestamp": 1439812362,
  "nonce": "0x1f86080a249726d6",
  "difficulty": 3845178749395,
  "gasLimit": {
    "_hex": "0x2fefd8"
  },
  "gasUsed": {
    "_hex": "0xa410"
  },
  "miner": "0xe6A7a1d47ff21B6321162AEA7C6CB457D5476Bca",
  "extraData": "0x476574682f76312e302e312d38326566323666362f6c696e75782f676f312e34",
  "transactions": [
    {
      "hash": "0x07ccafd14f4cc0406dbc896e761f6f4df72630a8a22d91ae90db4d191e9348c4",
      "blockHash": "0x70b099c9ca497b3d510937e77369ee7c0b8a45bfb7d5f93f36c304d33b71050e",
      "blockNumber": 100788,
      "transactionIndex": 0,
      "confirmations": null,
      "from": "0xB0b3385a645Eb80B431224920043447Ab1303eA8",
      "gasPrice": {
        "_hex": "0xd7e142544"
      },
      "gasLimit": {
        "_hex": "0x5208"
      },
      "to": "0x32Be343B94f860124dC4fEe278FDCBD38C102D88",
      "value": {
        "_hex": "0x89853a8ec72c9800"
      },
      "nonce": 3,
      "data": "0x",
      "r": "0x418e1f6a230b333b54b9fa16d6057dedbe68ecec7c413c1152157022b046c114",
      "s": "0x533b67bf8a5b74e693d40515b45b8d7a5a72f680d1157fecaa6724efab999fe5",
      "v": 27,
      "creates": null,
      "raw": "0xf86c03850d7e1425448252089432be343b94f860124dc4fee278fdcbd38c102d888889853a8ec72c9800801ba0418e1f6a230b333b54b9fa16d6057dedbe68ecec7c413c1152157022b046c114a0533b67bf8a5b74e693d40515b45b8d7a5a72f680d1157fecaa6724efab999fe5",
      "networkId": 0,
      "chainId": 0
    },
    {
      "hash": "0xb5e73c87f11280e5b3cce2658bb36809430210cd9e2b609b4cca222d5626c12b",
      "blockHash": "0x70b099c9ca497b3d510937e77369ee7c0b8a45bfb7d5f93f36c304d33b71050e",
      "blockNumber": 100788,
      "transactionIndex": 1,
      "confirmations": null,
      "from": "0xb1abce2918E21ddb93AA452731a12672A3d9F75a",
      "gasPrice": {
        "_hex": "0xd7e142544"
      },
      "gasLimit": {
        "_hex": "0x5208"
      },
      "to": "0x32Be343B94f860124dC4fEe278FDCBD38C102D88",
      "value": {
        "_hex": "0x49b9856d753be8000"
      },
      "nonce": 76,
      "data": "0x",
      "r": "0x37dee8402a0985a70422f522a0c84673431543456b363aaf3678dbfab8a843a5",
      "s": "0x3bef45d6a437fd6d6f17acdcb9dcc8a9a457384e3c097bcf21c13b90eda5500c",
      "v": 28,
      "creates": null,
      "raw": "0xf86d4c850d7e1425448252089432be343b94f860124dc4fee278fdcbd38c102d8889049b9856d753be8000801ca037dee8402a0985a70422f522a0c84673431543456b363aaf3678dbfab8a843a5a03bef45d6a437fd6d6f17acdcb9dcc8a9a457384e3c097bcf21c13b90eda5500c",
      "networkId": 0,
      "chainId": 0
    }
  ]
}