{
  "hash": "0x0794c8463f5846e351f6c300b3f817d16b6206cdaffdb9aa098458f602fac0fb",
  "parentHash": "0xc460ec3204a1ec9c97983d072db9cd3c93be37ed4887c3ef15f78fe15b13c174",
  "number": 114167,
  "timestamp": 1440035967,
  "nonce": "0x599b5d252bb533c7",
  "difficulty": 4459905355297,
  "gasLimit": {
    "_hex": "0x2fefd8"
  },
  "gasUsed": {
    "_hex": "0x1bdbe"
  },
  "miner": "0x580992B51e3925e23280EfB93d3047C82f17E038",
  "extraData": "0x476574682f76312e302e312f6c696e75782f676f312e342e32",
  "transactions": [
    {
      "hash": "0xe520c17478c8714d451fa320e652de7d24cd242aaa51f981331267732cd45756",
      "blockHash": "0x0794c8463f5846e351f6c300b3f817d16b6206cdaffdb9aa098458f602fac0fb",
      "blockNumber": 114167,
      "transactionIndex": 0,
      "confirmations": null,
      "from": "0x4C332121711c53560B6e6F11dd707E9226DCF142",
      "gasPrice": {
        "_hex": "0xcd01555c5"
      },
      "gasLimit": {
        "_hex": "0x249f0"
      },
      "to": "0xE28e72FCf78647ADCe1F1252F240bbfaebD63BcC",
      "value": {
        "_hex": "0x56bc75e2d63100000"
      },
      "nonce": 0,
      "data": "0x45466f3a",
      "r": "0x80a2afa09ddeb4dc017251076e753c9c1426dcee8f360920edffece6ac821d4f",
      "s": "0x5b9d73137096106096da3f7d624e24dd5b763b32892ed8fcec8c42b6f4fe100f",
      "v": 28,
      "creates": null,
      "raw": "0xf87280850cd01555c5830249f094e28e72fcf78647adce1f1252f240bbfaebd63bcc89056bc75e2d631000008445466f3a1ca080a2afa09ddeb4dc017251076e753c9c1426dcee8f360920edffece6ac821d4fa05b9d73137096106096da3f7d624e24dd5b763b32892ed8fcec8c42b6f4fe100f",
      "networkId": 0,
      "chainId": 0
    }
  ]
}