{
  "hash": "0x46f40ad51c5794f46488e2dde298c718064352b4e73af99665caabe83be2a611",
  "parentHash": "0x35698dbf9dc71b0bb7dda463db148c0ec497082ce12c6999b950ed8f77d6dd23",
  "number": 109693,
  "timestamp": 1439960919,
  "nonce": "0x2734721933bbea20",
  "difficulty": 4444887845930,
  "gasLimit": {
    "_hex": "0x2fefd8"
  },
  "gasUsed": {
    "_hex": "0xa410"
  },
  "miner": "0x9746c7e1ef2bd21FF3997fa467593a89cb852BD0",
  "extraData": "0x476574682f76312e302e312f77696e646f77732f676f312e342e32",
  "transactions": [
    {
      "hash": "0x30411a22ea53a69515a10c3289648179efd0411868ddcf96e12218f92ed556d5",
      "blockHash": "0x46f40ad51c5794f46488e2dde298c718064352b4e73af99665caabe83be2a611",
      "blockNumber": 109693,
      "transactionIndex": 0,
      "confirmations": null,
      "from": "0x0A319A7e0C887F104359e1eEe6717BD8f232d3Da",
      "gasPrice": {
        "_hex": "0xe134255c2"
      },
      "gasLimit": {
        "_hex": "0x5208"
      },
      "to": "0x32Be343B94f860124dC4fEe278FDCBD38C102D88",
      "value": {
        "_hex": "0x4018d07d930c74000"
      },
      "nonce": 16,
      "data": "0x",
      "r": "0xb92317c40b5ac9f076f646de4ec3d4ce93ee3b8a636ccf4870e06a714135b3de",
      "s": "0x2ab5d0f51b36c0fd2beae3e10ab0a8107f0e5b9ddecf428d268213149b909a80",
      "v": 28,
      "creates": null,
      "raw": "0xf86d10850e134255c28252089432be343b94f860124dc4fee278fdcbd38c102d888904018d07d930c74000801ca0b92317c40b5ac9f076f646de4ec3d4ce93ee3b8a636ccf4870e06a714135b3dea02ab5d0f51b36c0fd2beae3e10ab0a8107f0e5b9ddecf428d268213149b909a80",
      "networkId": 0,
      "chainId": 0
    },
    {
      "hash": "0x64fe8706f9716a1da265b646b8262b9f5d8266c4d29fa14a3180d10e90d246d4",
      "blockHash": "0x46f40ad51c5794f46488e2dde298c718064352b4e73af99665caabe83be2a611",
      "blockNumber": 109693,
      "transactionIndex": 1,
      "confirmations": null,
      "from": "0x007f7f58D3eb5b7510A301eCC749FC1fCDDBE14D",
      "gasPrice": {
        "_hex": "0xd382b0b9c"
      },
      "gasLimit": {
        "_hex": "0x15f90"
      },
      "to": "0xb1abce2918E21ddb93AA452731a12672A3d9F75a",
      "value": {
        "_hex": "0x4563918244f40000"
      },
      "nonce": 275,
      "data": "0x",
      "r": "0xadfce28dbe9bb0b1f9713ba1e9f4f08122a078178ad30cf93a2137ae5e528a30",
      "s": "0x0b6d48b3f47d846fc4466fb16ab73c6511d5c6b44c7df00ba6491aa0ff62ae13",
      "v": 27,
      "creates": null,
      "raw": "0xf86f820113850d382b0b9c83015f9094b1abce2918e21ddb93aa452731a12672a3d9f75a884563918244f40000801ba0adfce28dbe9bb0b1f9713ba1e9f4f08122a078178ad30cf93a2137ae5e528a30a00b6d48b3f47d846fc4466fb16ab73c6511d5c6b44c7df00ba6491aa0ff62ae13",
      "networkId": 0,
      "chainId": 0
    }
  ]
}