{
  "hash": "0x2af960dd6dc12580decaaf5acbdfd7cd8be0f5716463adffc4707dfda6f9ffba",
  "parentHash": "0xc460d405534a45cc5741b50fe8bc14320a00c62df13888496b9e87aa8a702a33",
  "number": 100261,
  "timestamp": 1439803596,
  "nonce": "0x4de836174519a565",
  "difficulty": 3828558579569,
  "gasLimit": {
    "_hex": "0x2fefd8"
  },
  "gasUsed": {
    "_hex": "0x14820"
  },
  "miner": "0xe6A7a1d47ff21B6321162AEA7C6CB457D5476Bca",
  "extraData": "0x476574682f76312e302e312d38326566323666362f6c696e75782f676f312e34",
  "transactions": [
    {
      "hash": "0xc422ee7e5c0282ad3d586d07639e1922ef3a47be7f0eede1794d88e2759fa8a0",
      "blockHash": "0x2af960dd6dc12580decaaf5acbdfd7cd8be0f5716463adffc4707dfda6f9ffba",
      "blockNumber": 100261,
      "transactionIndex": 0,
      "confirmations": null,
      "from": "0x952f389eCE021cECc7e7E00B5316925e14396B92",
      "gasPrice": {
        "_hex": "0xdf8475800"
      },
      "gasLimit": {
        "_hex": "0x5267"
      },
      "to": "0x65C40Ee4e07E09671fF3cE2dff2AcCbE366bb5C8",
      "value": {
        "_hex": "0x19781e26c40920000"
      },
      "nonce": 5,
      "data": "0x",
      "r": "0x71a994bec7332a31dd8aa1af63725431e67de2db487467181b15160e94431b66",
      "s": "0xf115ab1ba33f32254b367ebe6f2ce98b47a2a2e2cbab766de7ffd2fc7af5acfd",
      "v": 27,
      "creates": null,
      "raw": "0xf86d05850df84758008252679465c40ee4e07e09671ff3ce2dff2accbe366bb5c889019781e26c40920000801ba071a994bec7332a31dd8aa1af63725431e67de2db487467181b15160e94431b66a0f115ab1ba33f32254b367ebe6f2ce98b47a2a2e2cbab766de7ffd2fc7af5acfd",
      "networkId": 0,
      "chainId": 0
    },
    {
      "hash": "0xb90cfb9c436d32cc8fbcafa11eeede8b5b80968a043bc2f980ee59c2a3294d72",
      "blockHash": "0x2af960dd6dc12580decaaf5acbdfd7cd8be0f5716463adffc4707dfda6f9ffba",
      "blockNumber": 100261,
      "transactionIndex": 1,
      "confirmations": null,
      "from": "0xc41fDDa36003210005a385c88A71007e62A81C7D",
      "gasPrice": {
        "_hex": "0xda23c1355"
      },
      "gasLimit": {
        "_hex": "0x15f90"
      },
      "to": "0xaf9014E2650a9d5A7ae35F4F623a1B1EFBa235ab",
      "value": {
        "_hex": "0x12875d3305f12370"
      },
      "nonce": 2,
      "data": "0x",
      "r": "0x493e9c473e6f560233f118969a5a5c54b2433f0a67e924928552c4ae372fc907",
      "s": "0x697f0cc5f4f040d7db4e7c4620762534da2d04587ccb89559706adbc93208858",
      "v": 28,
      "creates": null,
      "raw": "0xf86d02850da23c135583015f9094af9014e2650a9d5a7ae35f4f623a1b1efba235ab8812875d3305f12370801ca0493e9c473e6f560233f118969a5a5c54b2433f0a67e924928552c4ae372fc907a0697f0cc5f4f040d7db4e7c4620762534da2d04587ccb89559706adbc93208858",
      "networkId": 0,
      "chainId": 0
    },
    {
      "hash": "0xead14740bf5fb6ec789fb4550014c808e2e8b0d42a488141cfd1fb9a07cc64bd",
      "blockHash": "0x2af960dd6dc12580decaaf5acbdfd7cd8be0f5716463adffc4707dfda6f9ffba",
      "blockNumber": 100261,
      "transactionIndex": 2,
      "confirmations": null,
      "from": "0xD9666150A9dA92d9108198a4072970805a8B3428",
      "gasPrice": {
        "_hex": "0xce678d288"
      },
      "gasLimit": {
        "_hex": "0x5208"
      },
      "to": "0x32Be343B94f860124dC4fEe278FDCBD38C102D88",
      "value": {
        "_hex": "0x455f6457e0bdb000"
      },
      "nonce": 42,
      "data": "0x",
      "r": "0xc1b0eebdc5bcd0b9d9c0de99e545acb6bbc59768a827bc79e435be88e0fa4f4e",
      "s": "0x1c7d5f16843fb35cf50793d06469873aa4fa02a3ee1ce340454ee0673a4dca88",
      "v": 28,
      "creates": null,
      "raw": "0xf86c2a850ce678d2888252089432be343b94f860124dc4fee278fdcbd38c102d8888455f6457e0bdb000801ca0c1b0eebdc5bcd0b9d9c0de99e545acb6bbc59768a827bc79e435be88e0fa4f4ea01c7d5f16843fb35cf50793d06469873aa4fa02a3ee1ce340454ee0673a4dca88",
      "networkId": 0,
      "chainId": 0
    },
    {
      "hash": "0xd8e5ad1feaa9e688f4b172119f0f693759d569964ebe2f2cf2f190d576dee6ec",
      "blockHash": "0x2af960dd6dc12580decaaf5acbdfd7cd8be0f5716463adffc4707dfda6f9ffba",
      "blockNumber": 100261,
      "transactionIndex": 3,
      "confirmations": null,
      "from": "0xb7B3690EFa6b3f08D4EC289fF655C4b7bb15EE39",
      "gasPrice": {
        "_hex": "0xce678d288"
      },
      "gasLimit": {
        "_hex": "0x5208"
      },
      "to": "0x32Be343B94f860124dC4fEe278FDCBD38C102D88",
      "value": {
        "_hex": "0x61d2219032d3dc00"
      },
      "nonce": 5,
      "data": "0x",
      "r": "0x7b85ee2a9185026629902c4838d5c49c8b829a41e26201e333a00f49635630da",
      "s": "0x4831e0ed6734a0520bd78dbff26697d1ac3d18edad16c40a5a61da8242ed9f92",
      "v": 27,
      "creates": null,
      "raw": "0xf86c05850ce678d2888252089432be343b94f860124dc4fee278fdcbd38c102d888861d2219032d3dc00801ba07b85ee2a9185026629902c4838d5c49c8b829a41e26201e333a00f49635630daa04831e0ed6734a0520bd78dbff26697d1ac3d18edad16c40a5a61da8242ed9f92",
      "networkId": 0,
      "chainId": 0
    }
  ]
}