{
  "hash": "0x73bc26fcac53610de77209346df6d0ec105dc99c566e7525310089ca530de8aa",
  "parentHash": "0x67d3226bc7d0372835b236cf97b84254f41cc57cad4e0894323d7c0fd8a00771",
  "number": 57612,
  "timestamp": 1439106422,
  "nonce": "0xf69371f80b4990e8",
  "difficulty": 1737004921935,
  "gasLimit": {
    "_hex": "0x2fefd5"
  },
  "gasUsed": {
    "_hex": "0x5208"
  },
  "miner": "0xbb7B8287f3F0a933474a79eAe42CBCa977791171",
  "extraData": "0x476574682f4c5649562f76312e302e312f6c696e75782f676f312e342e32",
  "transactions": [
    {
      "hash": "0x5bbc1b83838cb16fa048de050319de0928b765ac276fe712d28eee54eaef3c46",
      "blockHash": "0x73bc26fcac53610de77209346df6d0ec105dc99c566e7525310089ca530de8aa",
      "blockNumber": 57612,
      "transactionIndex": 0,
      "confirmations": null,
      "from": "0x293C2306Df3604Ae4FdA0D207aBa736f67dE0792",
      "gasPrice": {
        "_hex": "0xd2dce6903"
      },
      "gasLimit": {
        "_hex": "0x15f90"
      },
      "to": "0x4DF05bc6D92d5cc80c82abCAc7261607d6F28E97",
      "value": {
        "_hex": "0x5188315f776b80000"
      },
      "nonce": 5,
      "data": "0x",
      "r": "0x71c1a4669d8443e29176b08d52e17754463a999ad74fe3f484a9e9e0496eeea9",
      "s": "0x57144dfa9d8402c327919c83bd70778d2dc183554c0af6bc69f95f9ac287b3f9",
      "v": 27,
      "creates": null,
      "raw": "0xf86e05850d2dce690383015f90944df05bc6d92d5cc80c82abcac7261607d6f28e978905188315f776b80000801ba071c1a4669d8443e29176b08d52e17754463a999ad74fe3f484a9e9e0496eeea9a057144dfa9d8402c327919c83bd70778d2dc183554c0af6bc69f95f9ac287b3f9",
      "networkId": 0,
      "chainId": 0
    }
  ]
}