{
  "hash": "0x0133dc791e930242e09bf03523f4ad6fac99b63b039a837d7db04b77ee6cd13a",
  "parentHash": "0x2d8340e2cd08acd5c20607723372f4b8d8734b227c8a62dedb868397b9942de4",
  "number": 95107,
  "timestamp": 1439719029,
  "nonce": "0xf5cc56a1578bab82",
  "difficulty": 3508582659290,
  "gasLimit": {
    "_hex": "0x2fefd8"
  },
  "gasUsed": {
    "_hex": "0x55d8"
  },
  "miner": "0xe6A7a1d47ff21B6321162AEA7C6CB457D5476Bca",
  "extraData": "0x476574682f76312e302e312d38326566323666362f6c696e75782f676f312e34",
  "transactions": [
    {
      "hash": "0x285b70145d9a4a4cccc39278e9831af148e5b65b3094d59dd36f9ffe8d13a4e8",
      "blockHash": "0x0133dc791e930242e09bf03523f4ad6fac99b63b039a837d7db04b77ee6cd13a",
      "blockNumber": 95107,
      "transactionIndex": 0,
      "confirmations": null,
      "from": "0xD8dD71C53246d7e5C97fa2c5539dB9eF6662E6D6",
      "gasPrice": {
        "_hex": "0xd1cfe2817"
      },
      "gasLimit": {
        "_hex": "0x15f90"
      },
      "to": "0x0000000000000000000000000000000000000000",
      "value": {
        "_hex": "0x0"
      },
      "nonce": 1,
      "data": "0xb214faa54141414141444846420000000000000000000000000000000000000000000000",
      "r": "0x5a9616cb32c30cb4a5ea2cb71f12c075b2f4d4a3875a2ea25e74afa1cf2b1291",
      "s": "0x678fd8114d5d3c41599d230b42187ba64b0f8e8a9bd535ec59ea0937d16245f0",
      "v": 27,
      "creates": null,
      "raw": "0xf88901850d1cfe281783015f9094000000000000000000000000000000000000000080a4b214faa541414141414448464200000000000000000000000000000000000000000000001ba05a9616cb32c30cb4a5ea2cb71f12c075b2f4d4a3875a2ea25e74afa1cf2b1291a0678fd8114d5d3c41599d230b42187ba64b0f8e8a9bd535ec59ea0937d16245f0",
      "networkId": 0,
      "chainId": 0
    }
  ]
}