{
  "hash": "0xda10bce7754247fc73a547de2d3a25e6dd209a239cf6a7ff3d188445e9456456",
  "parentHash": "0xc180daf196b7b332290c46b5f151912e1b4c6ad0c6a9532528a8fbad6df42298",
  "number": 101445,
  "timestamp": 1439823183,
  "nonce": "0xc5124930d8a7809b",
  "difficulty": 3846755445012,
  "gasLimit": {
    "_hex": "0x2fefd8"
  },
  "gasUsed": {
    "_hex": "0x5208"
  },
  "miner": "0xe6A7a1d47ff21B6321162AEA7C6CB457D5476Bca",
  "extraData": "0x476574682f76312e302e312d38326566323666362f6c696e75782f676f312e34",
  "transactions": [
    {
      "hash": "0xe853ef676192c21a2ad353337e8d2d473d6ddcd85686c2908ad8de4d60cc620b",
      "blockHash": "0xda10bce7754247fc73a547de2d3a25e6dd209a239cf6a7ff3d188445e9456456",
      "blockNumber": 101445,
      "transactionIndex": 0,
      "confirmations": null,
      "from": "0x0D4EcC7d750180EBf4A9Df728B6669B5Bceb5E40",
      "gasPrice": {
        "_hex": "0xcdac55f4e"
      },
      "gasLimit": {
        "_hex": "0x5208"
      },
      "to": "0x32Be343B94f860124dC4fEe278FDCBD38C102D88",
      "value": {
        "_hex": "0x1e5b4dc15b5791000"
      },
      "nonce": 61,
      "data": "0x",
      "r": "0x2501e780822e4277b0ea48306aefa32c1479becfc16e464d182a95bd02cd10a7",
      "s": "0x5d682b9e1d6c5322a1d2b7a2c1f9323da5c363fdc89a5d2c292523a9ee35005d",
      "v": 28,
      "creates": null,
      "raw": "0xf86d3d850cdac55f4e8252089432be343b94f860124dc4fee278fdcbd38c102d888901e5b4dc15b5791000801ca02501e780822e4277b0ea48306aefa32c1479becfc16e464d182a95bd02cd10a7a05d682b9e1d6c5322a1d2b7a2c1f9323da5c363fdc89a5d2c292523a9ee35005d",
      "networkId": 0,
      "chainId": 0
    }
  ]
}