{
  "hash": "0xca84095217626e49002d338da56cf31c94c8a3a720977c5a9ade858c29dc8b12",
  "parentHash": "0xd6e3a96efd4ceeb9e45db56099320ce72306e9a5f48742284eb198a4d27d8518",
  "number": 85965,
  "timestamp": 1439571545,
  "nonce": "0x666bb767ee4433bf",
  "difficulty": 2783975864906,
  "gasLimit": {
    "_hex": "0x2fefd8"
  },
  "gasUsed": {
    "_hex": "0x546c"
  },
  "miner": "0xe6A7a1d47ff21B6321162AEA7C6CB457D5476Bca",
  "extraData": "0x476574682f76312e302e312d38326566323666362f6c696e75782f676f312e34",
  "transactions": [
    {
      "hash": "0x45bfd4ec0a464b5baae60eb08e3a87c51eedd46ae3ecc272a4505f2cb632af4d",
      "blockHash": "0xca84095217626e49002d338da56cf31c94c8a3a720977c5a9ade858c29dc8b12",
      "blockNumber": 85965,
      "transactionIndex": 0,
      "confirmations": null,
      "from": "0x710b0274d712C77E08a5707D6f3E70c0Ce3d92CF",
      "gasPrice": {
        "_hex": "0x10dc90d85e7"
      },
      "gasLimit": {
        "_hex": "0x55f0"
      },
      "to": "0x2910543Af39abA0Cd09dBb2D50200b3E800A63D2",
      "value": {
        "_hex": "0x8ac7230489e80000"
      },
      "nonce": 2,
      "data": "0x454e48515141384447",
      "r": "0x8fdcc2bf91ff711c7448403f4b68430ee6ebc4f2045802502faaf89c80bd2a49",
      "s": "0x2af626097831c1a4d973f103eb433abef1a6055c6a5d697892eac036dbdac5a3",
      "v": 28,
      "creates": null,
      "raw": "0xf8760286010dc90d85e78255f0942910543af39aba0cd09dbb2d50200b3e800a63d2888ac7230489e8000089454e485151413844471ca08fdcc2bf91ff711c7448403f4b68430ee6ebc4f2045802502faaf89c80bd2a49a02af626097831c1a4d973f103eb433abef1a6055c6a5d697892eac036dbdac5a3",
      "networkId": 0,
      "chainId": 0
    }
  ]
}