{
  "hash": "0x9e1e59cdf4d45a3cd78a2f1a3cf634083b279d17b046083dd3b88ecf1f00bea1",
  "parentHash": "0x11343ef30f8fa6cb8d7791e7a20af78f9bcda4f80f849f1c15b0f1e44f537814",
  "number": 52048,
  "timestamp": 1439015182,
  "nonce": "0xf82d91e7dd561c53",
  "difficulty": 1567230373520,
  "gasLimit": {
    "_hex": "0xfe7b2"
  },
  "gasUsed": {
    "_hex": "0xa410"
  },
  "miner": "0x01d9DA08cc6Fb97c0DE1B6F4C28910A0859Ed1A1",
  "extraData": "0x476574682f76312e302e312f6c696e75782f676f312e342e32",
  "transactions": [
    {
      "hash": "0x0c4f34ab16dd4cb08caccfc809dc5e325198e77a492d08c316433b75cc9fa23d",
      "blockHash": "0x9e1e59cdf4d45a3cd78a2f1a3cf634083b279d17b046083dd3b88ecf1f00bea1",
      "blockNumber": 52048,
      "transactionIndex": 0,
      "confirmations": null,
      "from": "0x320e69e693Df6C1476c13836CDBE2F6E5dEf83A1",
      "gasPrice": {
        "_hex": "0xd8a3ea82c"
      },
      "gasLimit": {
        "_hex": "0x15f90"
      },
      "to": "0x13BF27Ad7781e484a0C68752f3bC949cf4262158",
      "value": {
        "_hex": "0x16345785d8a0000"
      },
      "nonce": 3,
      "data": "0x",
      "r": "0xc26a13066cf91002941a4b24caf0272899b1b603cf9d65a3e9d895200eea33cd",
      "s": "0x2ae313f59d046a99a3b7aecce5116c5319189d66dd03f4095e42fc9adb92904b",
      "v": 28,
      "creates": null,
      "raw": "0xf86d03850d8a3ea82c83015f909413bf27ad7781e484a0c68752f3bc949cf426215888016345785d8a0000801ca0c26a13066cf91002941a4b24caf0272899b1b603cf9d65a3e9d895200eea33cda02ae313f59d046a99a3b7aecce5116c5319189d66dd03f4095e42fc9adb92904b",
      "networkId": 0,
      "chainId": 0
    },
    {
      "hash": "0x5a935adefc965fcc8e1e5408cfc82f7a171c44d31921eb71c059c499845ca1d4",
      "blockHash": "0x9e1e59cdf4d45a3cd78a2f1a3cf634083b279d17b046083dd3b88ecf1f00bea1",
      "blockNumber": 52048,
      "transactionIndex": 1,
      "confirmations": null,
      "from": "0xF2d2AfF1320476cb8C6b607199D23175cc595693",
      "gasPrice": {
        "_hex": "0xd5bb11184"
      },
      "gasLimit": {
        "_hex": "0x15f90"
      },
      "to": "0xF5EeDc192aB70b08D8354384aD94efD095849E00",
      "value": {
        "_hex": "0x1e5b8fa8fe2ac0000"
      },
      "nonce": 2,
      "data": "0x",
      "r": "0x84888e4cbf04ce1289ec0570dca8984ade57667f9900dbef376af00577fe1eda",
      "s": "0x398b82d2c02c6d8e70befcd102f63a5efa11479162c4021b2c285ecf90ecf2ee",
      "v": 28,
      "creates": null,
      "raw": "0xf86e02850d5bb1118483015f9094f5eedc192ab70b08d8354384ad94efd095849e008901e5b8fa8fe2ac0000801ca084888e4cbf04ce1289ec0570dca8984ade57667f9900dbef376af00577fe1edaa0398b82d2c02c6d8e70befcd102f63a5efa11479162c4021b2c285ecf90ecf2ee",
      "networkId": 0,
      "chainId": 0
    }
  ]
}