{
  "hash": "0xc020bd8a4e34d6f0e8f5ded9ccecfc337222ceeac49bf26c782baacd86a1baf6",
  "parentHash": "0x98445ff767d9856834c8f19412aeff22761aa39cfb9de3a0a6e7e4f3b1ba79d3",
  "number": 95062,
  "timestamp": 1439718383,
  "nonce": "0xd50d36521c068186",
  "difficulty": 3493216650096,
  "gasLimit": {
    "_hex": "0x2fefd8"
  },
  "gasUsed": {
    "_hex": "0xa410"
  },
  "miner": "0x790b8a3cE86E707ED0eD32bF89B3269692a23CC1",
  "extraData": "0xd783010001844765746887676f312e342e32856c696e7578",
  "transactions": [
    {
      "hash": "0xdd2fe1a6d8125c485bc2eeef6867078ccbe982185757a977771e3f3e30bffe25",
      "blockHash": "0xc020bd8a4e34d6f0e8f5ded9ccecfc337222ceeac49bf26c782baacd86a1baf6",
      "blockNumber": 95062,
      "transactionIndex": 0,
      "confirmations": null,
      "from": "0xC603Ab5ef41fC61AA8b76bEddb09e3Cfcbb174BD",
      "gasPrice": {
        "_hex": "0xd13cc4fee"
      },
      "gasLimit": {
        "_hex": "0x15f90"
      },
      "to": "0x8F79f76381Aad7B98C19aF55eE75fdfEeb012211",
      "value": {
        "_hex": "0x393ef1a5127c80000"
      },
      "nonce": 27,
      "data": "0x",
      "r": "0x9e4a06fcac8356c0c15ec01c82fbca00ccc6813cc9aee71f59cafb2e4ee0cfe9",
      "s": "0x30ff880f16337cf7d7cd9015f2293b369204575c9dab67ad24d539cbd778498d",
      "v": 27,
      "creates": null,
      "raw": "0xf86e1b850d13cc4fee83015f90948f79f76381aad7b98c19af55ee75fdfeeb012211890393ef1a5127c80000801ba09e4a06fcac8356c0c15ec01c82fbca00ccc6813cc9aee71f59cafb2e4ee0cfe9a030ff880f16337cf7d7cd9015f2293b369204575c9dab67ad24d539cbd778498d",
      "networkId": 0,
      "chainId": 0
    },
    {
      "hash": "0x2c722f477b1b1379432c7ee723d910dbbdbee7793a06d5fb1cdb19208bd6c074",
      "blockHash": "0xc020bd8a4e34d6f0e8f5ded9ccecfc337222ceeac49bf26c782baacd86a1baf6",
      "blockNumber": 95062,
      "transactionIndex": 1,
      "confirmations": null,
      "from": "0x527a8CA1268633a6c939C5DE1b929aee92aeac8d",
      "gasPrice": {
        "_hex": "0xba43b7400"
      },
      "gasLimit": {
        "_hex": "0x5208"
      },
      "to": "0x863F003192ee81aC9ED112bD609Cbf06984B60Ad",
      "value": {
        "_hex": "0x30c9fe94a04e8c6000"
      },
      "nonce": 0,
      "data": "0x",
      "r": "0xb0032688ddb4f4d59b7d0be36d5a4e7e610f577cb5aa3a61866d5e2ced88f654",
      "s": "0xdb466cd7b8185ba2761a8e5bb3d6ed59cf91a6e62c95c0f2b988294f21925e84",
      "v": 28,
      "creates": null,
      "raw": "0xf86d80850ba43b740082520894863f003192ee81ac9ed112bd609cbf06984b60ad8930c9fe94a04e8c6000801ca0b0032688ddb4f4d59b7d0be36d5a4e7e610f577cb5aa3a61866d5e2ced88f654a0db466cd7b8185ba2761a8e5bb3d6ed59cf91a6e62c95c0f2b988294f21925e84",
      "networkId": 0,
      "chainId": 0
    }
  ]
}