{
  "hash": "0x88e9b495b4fe63eec522ee651dbe3fae8bba8f5ec9444eb2dcb0bf72cd4f71bb",
  "parentHash": "0xabde20fac5d46d715479d2292beaee86c119011e2f9d196e27eec600b932b060",
  "number": 112441,
  "timestamp": 1440007541,
  "nonce": "0xde25e24b4ecdb692",
  "difficulty": 4413160555096,
  "gasLimit": {
    "_hex": "0x2fefd8"
  },
  "gasUsed": {
    "_hex": "0xa410"
  },
  "miner": "0xe6A7a1d47ff21B6321162AEA7C6CB457D5476Bca",
  "extraData": "0x476574682f76312e302e312d38326566323666362f6c696e75782f676f312e34",
  "transactions": [
    {
      "hash": "0xe3f9c493bc9f4c41e21f45d376c04743df7321c22b8517aa86106c132f6ea977",
      "blockHash": "0x88e9b495b4fe63eec522ee651dbe3fae8bba8f5ec9444eb2dcb0bf72cd4f71bb",
      "blockNumber": 112441,
      "transactionIndex": 0,
      "confirmations": null,
      "from": "0x7313946aA53dCDd777C90905D75A9B41e17Ca2c9",
      "gasPrice": {
        "_hex": "0xd4a8a0199"
      },
      "gasLimit": {
        "_hex": "0x5208"
      },
      "to": "0x32Be343B94f860124dC4fEe278FDCBD38C102D88",
      "value": {
        "_hex": "0x1bbd2b1e96b7a800"
      },
      "nonce": 8,
      "data": "0x",
      "r": "0xa57308b0e944791884f6377d756073af795e5dde1fd5600ec47196516a47e155",
      "s": "0x621c66299b2584c446c65666a8db7e3f25169a3b809a2970a57b116dd5cefde3",
      "v": 28,
      "creates": null,
      "raw": "0xf86c08850d4a8a01998252089432be343b94f860124dc4fee278fdcbd38c102d88881bbd2b1e96b7a800801ca0a57308b0e944791884f6377d756073af795e5dde1fd5600ec47196516a47e155a0621c66299b2584c446c65666a8db7e3f25169a3b809a2970a57b116dd5cefde3",
      "networkId": 0,
      "chainId": 0
    },
    {
      "hash": "0x604e9ad9c94f657192210b91e6b0da3d729426211b41bb0aa6d9273b0b976cda",
      "blockHash": "0x88e9b495b4fe63eec522ee651dbe3fae8bba8f5ec9444eb2dcb0bf72cd4f71bb",
      "blockNumber": 112441,
      "transactionIndex": 1,
      "confirmations": null,
      "from": "0x1261A4Ab33Df25bdf1Dc8922c51266a9b4bE9179",
      "gasPrice": {
        "_hex": "0xd2b7951d6"
      },
      "gasLimit": {
        "_hex": "0x5208"
      },
      "to": "0x32Be343B94f860124dC4fEe278FDCBD38C102D88",
      "value": {
        "_hex": "0x6120c694067c0000"
      },
      "nonce": 3,
      "data": "0x",
      "r": "0x81b480391295d686e604d8bbbf406200bae7a2ea115febd711d6b5e27c13ccad",
      "s": "0x51dab31200ae9993d6000e513f4deb912c9272aa57243e6603298e2fac718812",
      "v": 27,
      "creates": null,
      "raw": "0xf86c03850d2b7951d68252089432be343b94f860124dc4fee278fdcbd38c102d88886120c694067c0000801ba081b480391295d686e604d8bbbf406200bae7a2ea115febd711d6b5e27c13ccada051dab31200ae9993d6000e513f4deb912c9272aa57243e6603298e2fac718812",
      "networkId": 0,
      "chainId": 0
    }
  ]
}