{
  "hash": "0xc1eaff7019230c9dafd8abec5d5141635de3d4120bc972972646b89d63fcda1c",
  "parentHash": "0x727b5193d61daf0fc53d642dbdc060f8b73800799626cb1b7b251e7db99322b5",
  "number": 103434,
  "timestamp": 1439853331,
  "nonce": "0xdfb6de7ddf4a66f1",
  "difficulty": 4176662497018,
  "gasLimit": {
    "_hex": "0x2fefd8"
  },
  "gasUsed": {
    "_hex": "0x5208"
  },
  "miner": "0xe6A7a1d47ff21B6321162AEA7C6CB457D5476Bca",
  "extraData": "0x476574682f76312e302e312d38326566323666362f6c696e75782f676f312e34",
  "transactions": [
    {
      "hash": "0x275dfde7fca9099492354e359fe051abf5b00ad5fe0ee6e35f048fc4170eddbe",
      "blockHash": "0xc1eaff7019230c9dafd8abec5d5141635de3d4120bc972972646b89d63fcda1c",
      "blockNumber": 103434,
      "transactionIndex": 0,
      "confirmations": null,
      "from": "0x5fA168A1713FBCC49B149749aE8262Bd715Ae8fa",
      "gasPrice": {
        "_hex": "0xd23ee12e2"
      },
      "gasLimit": {
        "_hex": "0x15f90"
      },
      "to": "0x5E8E0f5D30223Cf97aeDff1f84CC3C4f59f8a64f",
      "value": {
        "_hex": "0x45400a8fd5330000"
      },
      "nonce": 1,
      "data": "0x",
      "r": "0xe6625c6221b3c5cc171c74f1829fd343ce64877ecd988c9903e3bfaad61bbb28",
      "s": "0x25b0ee94832a8c4a718b6685d7f61f3171dd4978877f9b813b90abe180f02cc3",
      "v": 27,
      "creates": null,
      "raw": "0xf86d01850d23ee12e283015f90945e8e0f5d30223cf97aedff1f84cc3c4f59f8a64f8845400a8fd5330000801ba0e6625c6221b3c5cc171c74f1829fd343ce64877ecd988c9903e3bfaad61bbb28a025b0ee94832a8c4a718b6685d7f61f3171dd4978877f9b813b90abe180f02cc3",
      "networkId": 0,
      "chainId": 0
    }
  ]
}