{
  "hash": "0x1af8c7154c102361a00fe3b6568f64ece94468019e9956a3c18d0a11d973c476",
  "parentHash": "0xb0198a0612a19a3ebb9bc4f1fff6c64ccf44c9250caf243a774d42ea71f99401",
  "number": 59143,
  "timestamp": 1439132740,
  "nonce": "0x4afa766b15f45d8e",
  "difficulty": 1713942404452,
  "gasLimit": {
    "_hex": "0x2fefd8"
  },
  "gasUsed": {
    "_hex": "0x5208"
  },
  "miner": "0xF2d2AfF1320476cb8C6b607199D23175cc595693",
  "extraData": "0x476574682f76312e302e312f77696e646f77732f676f312e342e32",
  "transactions": [
    {
      "hash": "0xca111909b84cd4e58a8e466f661baf2e986d9aad3e5a599a0a6e66bed4c0ac9b",
      "blockHash": "0x1af8c7154c102361a00fe3b6568f64ece94468019e9956a3c18d0a11d973c476",
      "blockNumber": 59143,
      "transactionIndex": 0,
      "confirmations": null,
      "from": "0xF61Fe74EEEccbF9A81A32b65586d6c054bd29Fd3",
      "gasPrice": {
        "_hex": "0xba43b7400"
      },
      "gasLimit": {
        "_hex": "0x5267"
      },
      "to": "0xd41CDe3742bE29F53EDb8A99B255F4c0C210935d",
      "value": {
        "_hex": "0x8ac7230489e80000"
      },
      "nonce": 1,
      "data": "0x",
      "r": "0x206ca09a69d37529d51e349b65faaa87b57d350754be74d057f44b5d4c0673aa",
      "s": "0xdca6e50f8b521d41ffcfdfcb40b4899068cee56a7ae9470c5f32de92cfcdfca5",
      "v": 28,
      "creates": null,
      "raw": "0xf86c01850ba43b740082526794d41cde3742be29f53edb8a99b255f4c0c210935d888ac7230489e80000801ca0206ca09a69d37529d51e349b65faaa87b57d350754be74d057f44b5d4c0673aaa0dca6e50f8b521d41ffcfdfcb40b4899068cee56a7ae9470c5f32de92cfcdfca5",
      "networkId": 0,
      "chainId": 0
    }
  ]
}