{
  "hash": "0xf6a3d393e16c4d760ab1f7d84584055bf78e512438e4487eb0f03baf6e7d6b49",
  "parentHash": "0xc29b653f231c94f572ca5df23d290c21ac87ca872a8b1081d0acf6061f0f7c93",
  "number": 101428,
  "timestamp": 1439822889,
  "nonce": "0xa90cfc054c5cc8e4",
  "difficulty": 3841132458274,
  "gasLimit": {
    "_hex": "0x2fefd8"
  },
  "gasUsed": {
    "_hex": "0xf618"
  },
  "miner": "0xbb7B8287f3F0a933474a79eAe42CBCa977791171",
  "extraData": "0x476574682f4c5649562f76312e302e312f6c696e75782f676f312e342e32",
  "transactions": [
    {
      "hash": "0xb5fe24e1bc0da20adfe28f6f2beb3966bfb4bd9a018c106a9b4a0659896819ff",
      "blockHash": "0xf6a3d393e16c4d760ab1f7d84584055bf78e512438e4487eb0f03baf6e7d6b49",
      "blockNumber": 101428,
      "transactionIndex": 0,
      "confirmations": null,
      "from": "0xA4b566f129e5810957eF8cC2F750383E488D35Dd",
      "gasPrice": {
        "_hex": "0xdd055d2ad"
      },
      "gasLimit": {
        "_hex": "0x5208"
      },
      "to": "0x32Be343B94f860124dC4fEe278FDCBD38C102D88",
      "value": {
        "_hex": "0x2c8805719b836000"
      },
      "nonce": 3,
      "data": "0x",
      "r": "0x0a622a22fc6d0954b04e189884ec37fb2238c30e3a932097d2761fce21f7b0d6",
      "s": "0x5796e5d1b58e4a4046c86ed2328846c6a5ce3951ad42e33b9056a3f80b9759d2",
      "v": 28,
      "creates": null,
      "raw": "0xf86c03850dd055d2ad8252089432be343b94f860124dc4fee278fdcbd38c102d88882c8805719b836000801ca00a622a22fc6d0954b04e189884ec37fb2238c30e3a932097d2761fce21f7b0d6a05796e5d1b58e4a4046c86ed2328846c6a5ce3951ad42e33b9056a3f80b9759d2",
      "networkId": 0,
      "chainId": 0
    },
    {
      "hash": "0x3087f173b3db0da133553ecc76099b86b0c99564ff97ed72d017ecc42e178a9c",
      "blockHash": "0xf6a3d393e16c4d760ab1f7d84584055bf78e512438e4487eb0f03baf6e7d6b49",
      "blockNumber": 101428,
      "transactionIndex": 1,
      "confirmations": null,
      "from": "0xA971748c4C493bC96C7d490E1789481e1E96bB10",
      "gasPrice": {
        "_hex": "0xdd055d2ad"
      },
      "gasLimit": {
        "_hex": "0x5208"
      },
      "to": "0x32Be343B94f860124dC4fEe278FDCBD38C102D88",
      "value": {
        "_hex": "0x1bba7dc88cb772000"
      },
      "nonce": 3,
      "data": "0x",
      "r": "0xc191a1da3b0735c369b39b209ed89e9a883e667090c5f3e088395808d78439ac",
      "s": "0x5c1f89a04492a55df06b680bc37ae82e8639f6fd051e5e72a92662a15b98d32f",
      "v": 27,
      "creates": null,
      "raw": "0xf86d03850dd055d2ad8252089432be343b94f860124dc4fee278fdcbd38c102d888901bba7dc88cb772000801ba0c191a1da3b0735c369b39b209ed89e9a883e667090c5f3e088395808d78439aca05c1f89a04492a55df06b680bc37ae82e8639f6fd051e5e72a92662a15b98d32f",
      "networkId": 0,
      "chainId": 0
    },
    {
      "hash": "0x8a8504255721700f5bc6d3fc0eeca405a1301b427c84de6a14a4e386993ab733",
      "blockHash": "0xf6a3d393e16c4d760ab1f7d84584055bf78e512438e4487eb0f03baf6e7d6b49",
      "blockNumber": 101428,
      "transactionIndex": 2,
      "confirmations": null,
      "from": "0xFBb1b73C4f0BDa4f67dcA266ce6Ef42f520fBB98",
      "gasPrice": {
        "_hex": "0xd01dac258"
      },
      "gasLimit": {
        "_hex": "0x5208"
      },
      "to": "0xA89c99169bc9Aa59D997bdE1B36fA621ace77C44",
      "value": {
        "_hex": "0xdbd2fc137a30000"
      },
      "nonce": 94,
      "data": "0x",
      "r": "0xa9ecfd8b19e4c2dc005172989de5f0e489d31320e4dc6c0274870a8fb401e9ad",
      "s": "0x50e4edb859b62c253d1a7223ef5dba7b21ce2080fc9f2a2d285bba2537f28194",
      "v": 27,
      "creates": null,
      "raw": "0xf86c5e850d01dac25882520894a89c99169bc9aa59d997bde1b36fa621ace77c44880dbd2fc137a30000801ba0a9ecfd8b19e4c2dc005172989de5f0e489d31320e4dc6c0274870a8fb401e9ada050e4edb859b62c253d1a7223ef5dba7b21ce2080fc9f2a2d285bba2537f28194",
      "networkId": 0,
      "chainId": 0
    }
  ]
}