{
  "hash": "0xfabfec33c2dd70da6c9d653cf6050bfe390f1185c32141bd7dd53b1257178603",
  "parentHash": "0xdc7c4ab62bd8d7783115420c404a43327e3843b73c2b5fc4d8accef529644e18",
  "number": 91755,
  "timestamp": 1439661037,
  "nonce": "0xd191866d7fcd3f3d",
  "difficulty": 3472481806760,
  "gasLimit": {
    "_hex": "0x2fefd5"
  },
  "gasUsed": {
    "_hex": "0x5208"
  },
  "miner": "0xbb7B8287f3F0a933474a79eAe42CBCa977791171",
  "extraData": "0x476574682f4c5649562f76312e302e312f6c696e75782f676f312e342e32",
  "transactions": [
    {
      "hash": "0xa6bc2f214dfb3c05a18292fcc24178ada5444ec103661afc43e805bfa21a0c8d",
      "blockHash": "0xfabfec33c2dd70da6c9d653cf6050bfe390f1185c32141bd7dd53b1257178603",
      "blockNumber": 91755,
      "transactionIndex": 0,
      "confirmations": null,
      "from": "0x6C4163642Fce79F094c50853FEaF94397bDDcd09",
      "gasPrice": {
        "_hex": "0xd6d3f357e"
      },
      "gasLimit": {
        "_hex": "0x15f90"
      },
      "to": "0xf2cC0eEAAAeD313542CB262B0B8c3972425143f0",
      "value": {
        "_hex": "0x45400a8fd5330000"
      },
      "nonce": 0,
      "data": "0x",
      "r": "0xeff1fa6088d5648982de721c3f847a4e5393bd54b09dc5f07f82af2c09a06eda",
      "s": "0x3ced87e2a8940f37820611771ebbdb6da11b51e823f5015049dced96ad3f63a0",
      "v": 28,
      "creates": null,
      "raw": "0xf86d80850d6d3f357e83015f9094f2cc0eeaaaed313542cb262b0b8c3972425143f08845400a8fd5330000801ca0eff1fa6088d5648982de721c3f847a4e5393bd54b09dc5f07f82af2c09a06edaa03ced87e2a8940f37820611771ebbdb6da11b51e823f5015049dced96ad3f63a0",
      "networkId": 0,
      "chainId": 0
    }
  ]
}