{
  "hash": "0x6e134ab2d550f8b7261ce3d7db1a6cb947b781638832f38e6d10da25f51d84db",
  "parentHash": "0xae6b27ec5cc68ab3ffb93008cc65508d5a0100ed90d4d5aa68628099ea7c0070",
  "number": 103712,
  "timestamp": 1439857860,
  "nonce": "0x6cc42aa0c2d693fd",
  "difficulty": 4205172351129,
  "gasLimit": {
    "_hex": "0x2fefd8"
  },
  "gasUsed": {
    "_hex": "0xa410"
  },
  "miner": "0x9Fa9952255B2b06639A04D63804d4BdFFf6E2d7e",
  "extraData": "0x476574682f76312e302e312f77696e646f77732f676f312e342e32",
  "transactions": [
    {
      "hash": "0x6272a93dc8d751366de2887f57056a160670cbd5b80579e54d3b9b462219f219",
      "blockHash": "0x6e134ab2d550f8b7261ce3d7db1a6cb947b781638832f38e6d10da25f51d84db",
      "blockNumber": 103712,
      "transactionIndex": 0,
      "confirmations": null,
      "from": "0x007f7f58D3eb5b7510A301eCC749FC1fCDDBE14D",
      "gasPrice": {
        "_hex": "0xe0cfe7246"
      },
      "gasLimit": {
        "_hex": "0x15f90"
      },
      "to": "0xb1abce2918E21ddb93AA452731a12672A3d9F75a",
      "value": {
        "_hex": "0x4563918244f40000"
      },
      "nonce": 232,
      "data": "0x",
      "r": "0xcccfce5c74cfc6a6e1ad187f832a5de90d6a05f20f899904058bd6c650128c03",
      "s": "0x308da7486e6d2d38d18e52d25f4b3449ac190988297e0a8c3866d621739ea196",
      "v": 28,
      "creates": null,
      "raw": "0xf86e81e8850e0cfe724683015f9094b1abce2918e21ddb93aa452731a12672a3d9f75a884563918244f40000801ca0cccfce5c74cfc6a6e1ad187f832a5de90d6a05f20f899904058bd6c650128c03a0308da7486e6d2d38d18e52d25f4b3449ac190988297e0a8c3866d621739ea196",
      "networkId": 0,
      "chainId": 0
    },
    {
      "hash": "0x14907751daa06f6a2e374446aeb556623d59eaac7cbca47857ae95925a69ddad",
      "blockHash": "0x6e134ab2d550f8b7261ce3d7db1a6cb947b781638832f38e6d10da25f51d84db",
      "blockNumber": 103712,
      "transactionIndex": 1,
      "confirmations": null,
      "from": "0xFBb1b73C4f0BDa4f67dcA266ce6Ef42f520fBB98",
      "gasPrice": {
        "_hex": "0xd2cb194f4"
      },
      "gasLimit": {
        "_hex": "0x5208"
      },
      "to": "0x1D799c0A9224eB09ce2A2e61C0471BcA10eA6a32",
      "value": {
        "_hex": "0x20e00094c5b0f7b0000"
      },
      "nonce": 103,
      "data": "0x",
      "r": "0xf6e0f1f46cc8677f3d31d2dabb3d3406cf82bab33a656da38ef4f490b07c83ef",
      "s": "0x0a7738bdd78b5e3403ad396edd5a488f29b4c8c34ca546cea2f7c370da82ea72",
      "v": 27,
      "creates": null,
      "raw": "0xf86e67850d2cb194f4825208941d799c0a9224eb09ce2a2e61c0471bca10ea6a328a020e00094c5b0f7b0000801ba0f6e0f1f46cc8677f3d31d2dabb3d3406cf82bab33a656da38ef4f490b07c83efa00a7738bdd78b5e3403ad396edd5a488f29b4c8c34ca546cea2f7c370da82ea72",
      "networkId": 0,
      "chainId": 0
    }
  ]
}