{
  "hash": "0x03675493c00adc88d42f3f8f1a8c711e1ff164d918bbf70705cfbcaa17c3c7fe",
  "parentHash": "0xe50f9b041198ddb2091e0eec645431078eb22beda0c3984326a10e1fdd5ff4f6",
  "number": 114549,
  "timestamp": 1440042308,
  "nonce": "0x50c1f6c66d4b7110",
  "difficulty": 4512271828216,
  "gasLimit": {
    "_hex": "0x2fefd8"
  },
  "gasUsed": {
    "_hex": "0x5208"
  },
  "miner": "0x35e8e5dC5FBd97c5b421A80B596C030a2Be2A04D",
  "extraData": "0x476574682f76312e302e312f6c696e75782f676f312e342e32",
  "transactions": [
    {
      "hash": "0xbb83765109459555e16f9e02c122ffebfde1118e520a1c127f049396762d5992",
      "blockHash": "0x03675493c00adc88d42f3f8f1a8c711e1ff164d918bbf70705cfbcaa17c3c7fe",
      "blockNumber": 114549,
      "transactionIndex": 0,
      "confirmations": null,
      "from": "0x8c0A6b62918D317e3B431EfB67E3fB5eff333b1c",
      "gasPrice": {
        "_hex": "0xba43b7400"
      },
      "gasLimit": {
        "_hex": "0x5208"
      },
      "to": "0xC47Aaa860008be6f65B58c6C6E02a84e666EfE31",
      "value": {
        "_hex": "0x56ba01c42c64b6000"
      },
      "nonce": 11,
      "data": "0x",
      "r": "0x89613985b4d41c3a29cfd1a1f4b8b7db4f64790ceb73e33c4059894a12c57e99",
      "s": "0x619004a15ed763f78ecfd276b1dba864aa97b0af2857d0f844e4d8d1363603b3",
      "v": 27,
      "creates": null,
      "raw": "0xf86d0b850ba43b740082520894c47aaa860008be6f65b58c6c6e02a84e666efe3189056ba01c42c64b6000801ba089613985b4d41c3a29cfd1a1f4b8b7db4f64790ceb73e33c4059894a12c57e99a0619004a15ed763f78ecfd276b1dba864aa97b0af2857d0f844e4d8d1363603b3",
      "networkId": 0,
      "chainId": 0
    }
  ]
}