{
  "hash": "0xbef0da5dd2e7de1405a794a0fde3927df12c718a6c9e353f24f8189283f165bb",
  "parentHash": "0xcd5a54d5e9651bb23c192ef44f55c9c5f34e06a92d29292cc252a3c35b39d37e",
  "number": 46870,
  "timestamp": 1438930749,
  "nonce": "0xe2f367712f649873",
  "difficulty": 1454601406352,
  "gasLimit": {
    "_hex": "0x80d2"
  },
  "gasUsed": {
    "_hex": "0x5208"
  },
  "miner": "0xf32866D5cE9a9b5673e076be48AbCd6ED48ADe78",
  "extraData": "0x476574682f76312e302e312d38326566323666362f6c696e75782f676f312e34",
  "transactions": [
    {
      "hash": "0x61993c4e2baf6fa686d33227f03b119c882ea6e4fc29029b9634eb85bf5cbd56",
      "blockHash": "0xbef0da5dd2e7de1405a794a0fde3927df12c718a6c9e353f24f8189283f165bb",
      "blockNumber": 46870,
      "transactionIndex": 0,
      "confirmations": null,
      "from": "0xe6A7a1d47ff21B6321162AEA7C6CB457D5476Bca",
      "gasPrice": {
        "_hex": "0xd20f0838d"
      },
      "gasLimit": {
        "_hex": "0x5208"
      },
      "to": "0x5323A068accf78eACa5cE1a689e8a5591827787C",
      "value": {
        "_hex": "0x14d0b54e3721ea74"
      },
      "nonce": 11,
      "data": "0x",
      "r": "0x7ac392e3d3416fad6915c19fb87768e2b65e8b405eae27f387def269a6025152",
      "s": "0x21a65e6133a4ee724dff737a196de2809c10a733bd93da316edc1ccbdf8cfda8",
      "v": 28,
      "creates": null,
      "raw": "0xf86c0b850d20f0838d825208945323a068accf78eaca5ce1a689e8a5591827787c8814d0b54e3721ea74801ca07ac392e3d3416fad6915c19fb87768e2b65e8b405eae27f387def269a6025152a021a65e6133a4ee724dff737a196de2809c10a733bd93da316edc1ccbdf8cfda8",
      "networkId": 0,
      "chainId": 0
    }
  ]
}