{
  "hash": "0xb902b38d2550b570f53b557e9bf59a1f9abdc4464ac7f050ca483c96f470ba28",
  "parentHash": "0x468a0cc97b589ebfd5b4223dfded92a2b10b99fdc1665cb66b7c6f49263cc3f0",
  "number": 114622,
  "timestamp": 1440043482,
  "nonce": "0xc4494cfc32a5550a",
  "difficulty": 4496836217328,
  "gasLimit": {
    "_hex": "0x2fefd8"
  },
  "gasUsed": {
    "_hex": "0x5208"
  },
  "miner": "0x52bc44d5378309EE2abF1539BF71dE1b7d7bE3b5",
  "extraData": "0x476574682f76312e302e312d61383839306436312f6c696e75782f676f312e34",
  "transactions": [
    {
      "hash": "0x5eb091516486abfa3267dd604d08920eaed66a57ac230bde7150645f48bd41f1",
      "blockHash": "0xb902b38d2550b570f53b557e9bf59a1f9abdc4464ac7f050ca483c96f470ba28",
      "blockNumber": 114622,
      "transactionIndex": 0,
      "confirmations": null,
      "from": "0xA144f6b60f72d64a21E330DaDB62D8990AdE2B09",
      "gasPrice": {
        "_hex": "0xba43b7400"
      },
      "gasLimit": {
        "_hex": "0x15f90"
      },
      "to": "0x99C1262466e1623551D496779CEFF1Fc07d14841",
      "value": {
        "_hex": "0x361a08405e8fd80000"
      },
      "nonce": 1,
      "data": "0x",
      "r": "0xfb71a72c0255109ed0f63745bb90ddb5591ba53de1e115daa4e1ccf44d8b3a4c",
      "s": "0x68c922e08ba4dccd695897dd3bc8880465476ac648e8dd4241de6a9635c0abf1",
      "v": 28,
      "creates": null,
      "raw": "0xf86e01850ba43b740083015f909499c1262466e1623551d496779ceff1fc07d1484189361a08405e8fd80000801ca0fb71a72c0255109ed0f63745bb90ddb5591ba53de1e115daa4e1ccf44d8b3a4ca068c922e08ba4dccd695897dd3bc8880465476ac648e8dd4241de6a9635c0abf1",
      "networkId": 0,
      "chainId": 0
    }
  ]
}