{
  "hash": "0xf338788f1151cab66cdf9d1f2d9bce68ddfb1a342f323cecbd258ed6ebcd7cec",
  "parentHash": "0x4a1d01a02188f89ee82cebd80d8833b48456da88b3716c6dfb26197e661d8089",
  "number": 80573,
  "timestamp": 1439487500,
  "nonce": "0xe46f4645c8d80fa1",
  "difficulty": 2417952907233,
  "gasLimit": {
    "_hex": "0x2fefd8"
  },
  "gasUsed": {
    "_hex": "0x2aac5"
  },
  "miner": "0xe6A7a1d47ff21B6321162AEA7C6CB457D5476Bca",
  "extraData": "0x476574682f76312e302e312d38326566323666362f6c696e75782f676f312e34",
  "transactions": [
    {
      "hash": "0xdd633faa6eff52737835b6ff44e74d9f1d79aeb4686b9e714be716a6a1b97ba2",
      "blockHash": "0xf338788f1151cab66cdf9d1f2d9bce68ddfb1a342f323cecbd258ed6ebcd7cec",
      "blockNumber": 80573,
      "transactionIndex": 0,
      "confirmations": null,
      "from": "0x87C5B5874A18B4306DF8a752a6C8cc3E82daFc19",
      "gasPrice": {
        "_hex": "0x1006e08a128"
      },
      "gasLimit": {
        "_hex": "0x493e0"
      },
      "to": "0xC4c51de1AbF5D60DBd329eC0F999Fd8f021ae9fC",
      "value": {
        "_hex": "0x300ec2433219541"
      },
      "nonce": 250,
      "data": "0x8d2161860000000000000000000000000000000000000000000000000000000000000006d3d96ceed0cfca4794c2a5a3d3aeefe69da0a2a669e66a5651f30b64831c3db0",
      "r": "0x2a0c2ffe5b202f0ef89401e1cbd65f079364f86e7151a8e50e1445107ae7ded3",
      "s": "0x621c6ed6dd9ae1b8c75aca2626332877206db4a4ec73400215b9e69145582ee8",
      "v": 28,
      "creates": null,
      "raw": "0xf8b481fa8601006e08a128830493e094c4c51de1abf5d60dbd329ec0f999fd8f021ae9fc880300ec2433219541b8448d2161860000000000000000000000000000000000000000000000000000000000000006d3d96ceed0cfca4794c2a5a3d3aeefe69da0a2a669e66a5651f30b64831c3db01ca02a0c2ffe5b202f0ef89401e1cbd65f079364f86e7151a8e50e1445107ae7ded3a0621c6ed6dd9ae1b8c75aca2626332877206db4a4ec73400215b9e69145582ee8",
      "networkId": 0,
      "chainId": 0
    },
    {
      "hash": "0x0c4fda9b5f4e0ccf5b41fd931b097138d48b2bf2f25129c7ccacf4c3ee57dbee",
      "blockHash": "0xf338788f1151cab66cdf9d1f2d9bce68ddfb1a342f323cecbd258ed6ebcd7cec",
      "blockNumber": 80573,
      "transactionIndex": 1,
      "confirmations": null,
      "from": "0xfE439e496730A23d448f85fA219972ea04793aB7",
      "gasPrice": {
        "_hex": "0xcddeb9aa7"
      },
      "gasLimit": {
        "_hex": "0x5208"
      },
      "to": "0x32Be343B94f860124dC4fEe278FDCBD38C102D88",
      "value": {
        "_hex": "0x15cadac6a03cad0000"
      },
      "nonce": 5,
      "data": "0x",
      "r": "0xbcddbbefec89ea6aab86ca8f636b437ba08fb3c083734c11bfeb97971b0cbe00",
      "s": "0x627637932eb6f3dd73277a4083932cb201fc6a04d442d80d20f25b8b4b322545",
      "v": 27,
      "creates": null,
      "raw": "0xf86d05850cddeb9aa78252089432be343b94f860124dc4fee278fdcbd38c102d888915cadac6a03cad0000801ba0bcddbbefec89ea6aab86ca8f636b437ba08fb3c083734c11bfeb97971b0cbe00a0627637932eb6f3dd73277a4083932cb201fc6a04d442d80d20f25b8b4b322545",
      "networkId": 0,
      "chainId": 0
    },
    {
      "hash": "0xf79f8e00db2cd89c135f856998c5c6e076ed178df121dc15eb7dcc158b4bc502",
      "blockHash": "0xf338788f1151cab66cdf9d1f2d9bce68ddfb1a342f323cecbd258ed6ebcd7cec",
      "blockNumber": 80573,
      "transactionIndex": 2,
      "confirmations": null,
      "from": "0x93Db80284c8E4d2B0eE8586dE2D072208c075145",
      "gasPrice": {
        "_hex": "0xcddeb9aa7"
      },
      "gasLimit": {
        "_hex": "0x5208"
      },
      "to": "0x32Be343B94f860124dC4fEe278FDCBD38C102D88",
      "value": {
        "_hex": "0x2b5cdcc20db4cc000"
      },
      "nonce": 3,
      "data": "0x",
      "r": "0x3c164cc9bc80db16796b0f8c3983fbd890846db98bab49594e1a14c7fdf47e69",
      "s": "0x2cc29cdafcef9b2e61315246c98afe738cba6ce7cd0f4f9cfaf94165fec28504",
      "v": 27,
      "creates": null,
      "raw": "0xf86d03850cddeb9aa78252089432be343b94f860124dc4fee278fdcbd38c102d888902b5cdcc20db4cc000801ba03c164cc9bc80db16796b0f8c3983fbd890846db98bab49594e1a14c7fdf47e69a02cc29cdafcef9b2e61315246c98afe738cba6ce7cd0f4f9cfaf94165fec28504",
      "networkId": 0,
      "chainId": 0
    },
    {
      "hash": "0x9248a72fc08ea3ba43e973abb40871c94dd8a463c276bd52ff514643467bceac",
      "blockHash": "0xf338788f1151cab66cdf9d1f2d9bce68ddfb1a342f323cecbd258ed6ebcd7cec",
      "blockNumber": 80573,
      "transactionIndex": 3,
      "confirmations": null,
      "from": "0xc0b9d23f8d37650D0141B559dbD33d94Ea004e07",
      "gasPrice": {
        "_hex": "0xcddeb9aa7"
      },
      "gasLimit": {
        "_hex": "0x5208"
      },
      "to": "0x32Be343B94f860124dC4fEe278FDCBD38C102D88",
      "value": {
        "_hex": "0x2a7fee3e7abfce000"
      },
      "nonce": 9,
      "data": "0x",
      "r": "0xbd8dbaa3e565f1d3178f8815f4e447d67f197f172d90012a02152fc426309499",
      "s": "0x1f3916e717658ca214fa0f422b6641d5b747ccb67808637f4e464f70258d4807",
      "v": 28,
      "creates": null,
      "raw": "0xf86d09850cddeb9aa78252089432be343b94f860124dc4fee278fdcbd38c102d888902a7fee3e7abfce000801ca0bd8dbaa3e565f1d3178f8815f4e447d67f197f172d90012a02152fc426309499a01f3916e717658ca214fa0f422b6641d5b747ccb67808637f4e464f70258d4807",
      "networkId": 0,
      "chainId": 0
    }
  ]
}