{
  "hash": "0xa0615bad6ea45fd253103fe5ab2d6f371d8d07dda49532d740b21a17dab9f765",
  "parentHash": "0xa0a6be59d0ad1810ee77dcc91e0b3747ac844b44cef36d062a9fdbcbccfec27a",
  "number": 100686,
  "timestamp": 1439810568,
  "nonce": "0xa3c9878f6a41caad",
  "difficulty": 3833976680382,
  "gasLimit": {
    "_hex": "0x2fefd8"
  },
  "gasUsed": {
    "_hex": "0x546c"
  },
  "miner": "0x05Bbf17Ab8d987DE9c4062260f2506d446481428",
  "extraData": "0xd783010001844765746887676f312e342e32856c696e7578",
  "transactions": [
    {
      "hash": "0xc61f7ec9662f7714d612407ad6b18213389c488653eaef3ddf48bcc3fe2343ee",
      "blockHash": "0xa0615bad6ea45fd253103fe5ab2d6f371d8d07dda49532d740b21a17dab9f765",
      "blockNumber": 100686,
      "transactionIndex": 0,
      "confirmations": null,
      "from": "0xF03462EC92AD7d5F732197D6F2408C5B2CD44361",
      "gasPrice": {
        "_hex": "0xd641f460d"
      },
      "gasLimit": {
        "_hex": "0x55f0"
      },
      "to": "0x2910543Af39abA0Cd09dBb2D50200b3E800A63D2",
      "value": {
        "_hex": "0x8ac7230489e80000"
      },
      "nonce": 3,
      "data": "0x454e4d553133373852",
      "r": "0x2b65e30162ac77261b7b760a1b864fc9470f259ba90b25f73e770a848f05e4ec",
      "s": "0x38f21d79ad0c959d09c38728b89ec945b7c3d26cc2c6d1b9697bb96b0438196c",
      "v": 27,
      "creates": null,
      "raw": "0xf87503850d641f460d8255f0942910543af39aba0cd09dbb2d50200b3e800a63d2888ac7230489e8000089454e4d5531333738521ba02b65e30162ac77261b7b760a1b864fc9470f259ba90b25f73e770a848f05e4eca038f21d79ad0c959d09c38728b89ec945b7c3d26cc2c6d1b9697bb96b0438196c",
      "networkId": 0,
      "chainId": 0
    }
  ]
}