{
  "hash": "0x3e5f3d96665ebba2a501ef2f94eeff9c69e548eb82f8f4b9e482f4b0aa7d88d9",
  "parentHash": "0x5e2a3087f7eafb6655b806f14f59f86e4c3a0683b06580f933aa4210bed0172e",
  "number": 94708,
  "timestamp": 1439712796,
  "nonce": "0x438f982d63d12bab",
  "difficulty": 3486547748785,
  "gasLimit": {
    "_hex": "0x2fefd8"
  },
  "gasUsed": {
    "_hex": "0x5208"
  },
  "miner": "0xe6A7a1d47ff21B6321162AEA7C6CB457D5476Bca",
  "extraData": "0x476574682f76312e302e312d38326566323666362f6c696e75782f676f312e34",
  "transactions": [
    {
      "hash": "0xcbeabfe3c5e54037f9ce593b675cf540a105d898bd5614323c407bbfcf524200",
      "blockHash": "0x3e5f3d96665ebba2a501ef2f94eeff9c69e548eb82f8f4b9e482f4b0aa7d88d9",
      "blockNumber": 94708,
      "transactionIndex": 0,
      "confirmations": null,
      "from": "0x93b3437645A67059E280a3317a93c57e2f4788EA",
      "gasPrice": {
        "_hex": "0xd789fd425"
      },
      "gasLimit": {
        "_hex": "0x5208"
      },
      "to": "0x32Be343B94f860124dC4fEe278FDCBD38C102D88",
      "value": {
        "_hex": "0x180023f4ce46a8000"
      },
      "nonce": 4,
      "data": "0x",
      "r": "0xddb7275635fc3d93b545c6cb34ae0fffa521fa3fdc34527ec43e7111fb830c3f",
      "s": "0x60ae3836323b74170953829d0d4d0fae28e5be0f69880f6a8e5baf3920073212",
      "v": 27,
      "creates": null,
      "raw": "0xf86d04850d789fd4258252089432be343b94f860124dc4fee278fdcbd38c102d88890180023f4ce46a8000801ba0ddb7275635fc3d93b545c6cb34ae0fffa521fa3fdc34527ec43e7111fb830c3fa060ae3836323b74170953829d0d4d0fae28e5be0f69880f6a8e5baf3920073212",
      "networkId": 0,
      "chainId": 0
    }
  ]
}