{
  "hash": "0x0787af5f6d982514784697989e45137cfbf55e4b03e66ffaf37d80a19737ec4f",
  "parentHash": "0x877f239fb901705556ea87900203a40aede62ba28117d83c35991493d1bbe5c4",
  "number": 94776,
  "timestamp": 1439714001,
  "nonce": "0x8ee52fa223d56c1c",
  "difficulty": 3486519486133,
  "gasLimit": {
    "_hex": "0x2fefd8"
  },
  "gasUsed": {
    "_hex": "0xf618"
  },
  "miner": "0xe6A7a1d47ff21B6321162AEA7C6CB457D5476Bca",
  "extraData": "0x476574682f76312e302e312d38326566323666362f6c696e75782f676f312e34",
  "transactions": [
    {
      "hash": "0xb7ba5579db54e7d23d31e5231399fbd0535f76614aa265698a95a06b4d3f6257",
      "blockHash": "0x0787af5f6d982514784697989e45137cfbf55e4b03e66ffaf37d80a19737ec4f",
      "blockNumber": 94776,
      "transactionIndex": 0,
      "confirmations": null,
      "from": "0xC02766F362b0Cd21e0D78012DAe8Cd1Df1B0E8eD",
      "gasPrice": {
        "_hex": "0xda524caa6"
      },
      "gasLimit": {
        "_hex": "0x15f90"
      },
      "to": "0x11A42D31455126b99dc8e6c0bdAC156eFBe6dDEe",
      "value": {
        "_hex": "0x7a109d63fb6b120000"
      },
      "nonce": 1,
      "data": "0x",
      "r": "0xeeb732d30a005bed414c125f21df9ef17accd2687f4cfd86f0515ce5832ae8cc",
      "s": "0x2eac5ae64ac3864cdbb06fd21a879133f13a2b0dda38a5bd56e7cd6873589ca1",
      "v": 27,
      "creates": null,
      "raw": "0xf86e01850da524caa683015f909411a42d31455126b99dc8e6c0bdac156efbe6ddee897a109d63fb6b120000801ba0eeb732d30a005bed414c125f21df9ef17accd2687f4cfd86f0515ce5832ae8cca02eac5ae64ac3864cdbb06fd21a879133f13a2b0dda38a5bd56e7cd6873589ca1",
      "networkId": 0,
      "chainId": 0
    },
    {
      "hash": "0x2214f5df7f5d7a77ddbe0a16e812175047a5e0f892d3df05bde9395cb1175db2",
      "blockHash": "0x0787af5f6d982514784697989e45137cfbf55e4b03e66ffaf37d80a19737ec4f",
      "blockNumber": 94776,
      "transactionIndex": 1,
      "confirmations": null,
      "from": "0x3F6DDbC103F2999640fe4AFc6884708fa691C2b8",
      "gasPrice": {
        "_hex": "0xcda2d6c79"
      },
      "gasLimit": {
        "_hex": "0x5208"
      },
      "to": "0x32Be343B94f860124dC4fEe278FDCBD38C102D88",
      "value": {
        "_hex": "0x48938e50cd4a3c00"
      },
      "nonce": 2,
      "data": "0x",
      "r": "0x55e92cebfedfaf4a49866408c8168ba5794924ac719bef7a3955cce84361c767",
      "s": "0x4d186e35dde373c7e4346df1129700c0daed8ab4015e9c9046ba6697ee382d91",
      "v": 28,
      "creates": null,
      "raw": "0xf86c02850cda2d6c798252089432be343b94f860124dc4fee278fdcbd38c102d888848938e50cd4a3c00801ca055e92cebfedfaf4a49866408c8168ba5794924ac719bef7a3955cce84361c767a04d186e35dde373c7e4346df1129700c0daed8ab4015e9c9046ba6697ee382d91",
      "networkId": 0,
      "chainId": 0
    },
    {
      "hash": "0xfa5e144e04f454383124e88d14c040593c967cc6b27394104e3f782f97bdb5d7",
      "blockHash": "0x0787af5f6d982514784697989e45137cfbf55e4b03e66ffaf37d80a19737ec4f",
      "blockNumber": 94776,
      "transactionIndex": 2,
      "confirmations": null,
      "from": "0xB28fE7b9815982FF203F751ce550111D752d8795",
      "gasPrice": {
        "_hex": "0xcbc6f29da"
      },
      "gasLimit": {
        "_hex": "0x5208"
      },
      "to": "0x32Be343B94f860124dC4fEe278FDCBD38C102D88",
      "value": {
        "_hex": "0x44afd9efecfed8000"
      },
      "nonce": 2,
      "data": "0x",
      "r": "0x3182096b4b743ae3ac5c1acc9c9aad64de1f9e0ff9776ad50a4ffb8f1c526632",
      "s": "0x208e99f4b39115f7704782dfbb77e8ab622d8a47ac9ae03cc7cb9af9a9810122",
      "v": 28,
      "creates": null,
      "raw": "0xf86d02850cbc6f29da8252089432be343b94f860124dc4fee278fdcbd38c102d8889044afd9efecfed8000801ca03182096b4b743ae3ac5c1acc9c9aad64de1f9e0ff9776ad50a4ffb8f1c526632a0208e99f4b39115f7704782dfbb77e8ab622d8a47ac9ae03cc7cb9af9a9810122",
      "networkId": 0,
      "chainId": 0
    }
  ]
}