{
  "hash": "0x2a90fc7668671fa43d2234e1d256363a3c9c29e7cccc2c9780209585ea376ff6",
  "parentHash": "0xa6d4622f64febccd61587348dfc276c2e700f16cb38249e2f4a1e52480e63e46",
  "number": 112794,
  "timestamp": 1440013363,
  "nonce": "0x9ae9a9db5c2d1fb1",
  "difficulty": 4432410480689,
  "gasLimit": {
    "_hex": "0x2fefd8"
  },
  "gasUsed": {
    "_hex": "0xa410"
  },
  "miner": "0x7E6930B63D03e88F5928C5cd6ee3FCee4D714F7F",
  "extraData": "0x",
  "transactions": [
    {
      "hash": "0x8375c350c561ca92afe64a18cd137766f2048bdea1b40342e20cb6f3278e524d",
      "blockHash": "0x2a90fc7668671fa43d2234e1d256363a3c9c29e7cccc2c9780209585ea376ff6",
      "blockNumber": 112794,
      "transactionIndex": 0,
      "confirmations": null,
      "from": "0x806C4e20CC913d7b70f5b7e24C6Ba15B16c56a5C",
      "gasPrice": {
        "_hex": "0xd7fe9f778"
      },
      "gasLimit": {
        "_hex": "0x5208"
      },
      "to": "0x32Be343B94f860124dC4fEe278FDCBD38C102D88",
      "value": {
        "_hex": "0x51add04900570800"
      },
      "nonce": 6,
      "data": "0x",
      "r": "0x2ec67e4f41213efd57a862a7a4aecd17c7d73ef548051bfaafcc9fd18e413f8c",
      "s": "0x6c8d8e1656c6b3f82e5138599b5b4a1a9a9df730fdc56ac047652658209943a5",
      "v": 28,
      "creates": null,
      "raw": "0xf86c06850d7fe9f7788252089432be343b94f860124dc4fee278fdcbd38c102d888851add04900570800801ca02ec67e4f41213efd57a862a7a4aecd17c7d73ef548051bfaafcc9fd18e413f8ca06c8d8e1656c6b3f82e5138599b5b4a1a9a9df730fdc56ac047652658209943a5",
      "networkId": 0,
      "chainId": 0
    },
    {
      "hash": "0xbdc1e0e2781e52e89739ecbaa68e50a7da473622ac0fc9bd7d6985e2f2a7826f",
      "blockHash": "0x2a90fc7668671fa43d2234e1d256363a3c9c29e7cccc2c9780209585ea376ff6",
      "blockNumber": 112794,
      "transactionIndex": 1,
      "confirmations": null,
      "from": "0x233b4fC39b20bb5eCf29882D7F068544BCc5eB78",
      "gasPrice": {
        "_hex": "0xd7fe9f778"
      },
      "gasLimit": {
        "_hex": "0x5208"
      },
      "to": "0x32Be343B94f860124dC4fEe278FDCBD38C102D88",
      "value": {
        "_hex": "0x8953abce94225000"
      },
      "nonce": 6,
      "data": "0x",
      "r": "0xf5c13e4d028f31ec5d2c57911566aeec9826e86d24bad5200527e1780db446a6",
      "s": "0x375f0aed056ade25af537a81844e45ea6f4251461fc81dd56add67576ee7f559",
      "v": 28,
      "creates": null,
      "raw": "0xf86c06850d7fe9f7788252089432be343b94f860124dc4fee278fdcbd38c102d88888953abce94225000801ca0f5c13e4d028f31ec5d2c57911566aeec9826e86d24bad5200527e1780db446a6a0375f0aed056ade25af537a81844e45ea6f4251461fc81dd56add67576ee7f559",
      "networkId": 0,
      "chainId": 0
    }
  ]
}