{
  "hash": "0x5c610c90729039e36a5065d8e33976188eaec6c8ceaa2be04d7669c56b9e35ce",
  "parentHash": "0x02dc43d126fbf966b29468a3a9ceb95ce29075e0b61cd0014a8ada31cb3873d3",
  "number": 76761,
  "timestamp": 1439425721,
  "nonce": "0x7a9f5994b0fee8bf",
  "difficulty": 2241631213032,
  "gasLimit": {
    "_hex": "0x2fefd8"
  },
  "gasUsed": {
    "_hex": "0xa410"
  },
  "miner": "0xa50ec0D39fa913E62f1Bae7074E6F36caA71855b",
  "extraData": "0xd783010001844765746887676f312e342e32856c696e7578",
  "transactions": [
    {
      "hash": "0x0e7f080ba83c57167930ade3ceda796e89a8b39be19a573ed0f21f9e4ac55fb4",
      "blockHash": "0x5c610c90729039e36a5065d8e33976188eaec6c8ceaa2be04d7669c56b9e35ce",
      "blockNumber": 76761,
      "transactionIndex": 0,
      "confirmations": null,
      "from": "0x32Be343B94f860124dC4fEe278FDCBD38C102D88",
      "gasPrice": {
        "_hex": "0xcb55e62c1"
      },
      "gasLimit": {
        "_hex": "0x5208"
      },
      "to": "0x9E5B4729c3266d77caE7F08C303b191Ac4d6B8CD",
      "value": {
        "_hex": "0xe5b8fc60cf4938000"
      },
      "nonce": 357,
      "data": "0x",
      "r": "0xfe20413cc4a8273cb94b1c8c9a05e2173839c0973a68e2149f6d00237185d7e0",
      "s": "0x3258e2b19da39aab129dbc07e0fa8cfbb7464e867578d519b7b13fd94e8760ad",
      "v": 28,
      "creates": null,
      "raw": "0xf86f820165850cb55e62c1825208949e5b4729c3266d77cae7f08c303b191ac4d6b8cd890e5b8fc60cf4938000801ca0fe20413cc4a8273cb94b1c8c9a05e2173839c0973a68e2149f6d00237185d7e0a03258e2b19da39aab129dbc07e0fa8cfbb7464e867578d519b7b13fd94e8760ad",
      "networkId": 0,
      "chainId": 0
    },
    {
      "hash": "0x7cf9d241a74331917bf3c89b0e3b839e26fc937240f9b1576d8b4cdd717671cd",
      "blockHash": "0x5c610c90729039e36a5065d8e33976188eaec6c8ceaa2be04d7669c56b9e35ce",
      "blockNumber": 76761,
      "transactionIndex": 1,
      "confirmations": null,
      "from": "0xc0b9d23f8d37650D0141B559dbD33d94Ea004e07",
      "gasPrice": {
        "_hex": "0xcb55e62c1"
      },
      "gasLimit": {
        "_hex": "0x5208"
      },
      "to": "0x32Be343B94f860124dC4fEe278FDCBD38C102D88",
      "value": {
        "_hex": "0x4e0fc28ab612d0000"
      },
      "nonce": 7,
      "data": "0x",
      "r": "0x7e347d64be780dde83578cc25259d1353ac71ed614d4bab69ee6e08656ae33e1",
      "s": "0x6a77e40770f2fb0d10dc3e2e6ce5f7c351fb5ec61c255450de1ff50df3455a8e",
      "v": 27,
      "creates": null,
      "raw": "0xf86d07850cb55e62c18252089432be343b94f860124dc4fee278fdcbd38c102d888904e0fc28ab612d0000801ba07e347d64be780dde83578cc25259d1353ac71ed614d4bab69ee6e08656ae33e1a06a77e40770f2fb0d10dc3e2e6ce5f7c351fb5ec61c255450de1ff50df3455a8e",
      "networkId": 0,
      "chainId": 0
    }
  ]
}