{
  "hash": "0x659b312d0bc856c26a147a00d8b237e57dd33694a4afff6bc98f633c825f542f",
  "parentHash": "0x1df0006a7b612e459066cd64ae901eb456d6d3ac83b9686ed3fefd0bb12f4218",
  "number": 80222,
  "timestamp": 1439482074,
  "nonce": "0x155e647fcc6c6193",
  "difficulty": 2377081021599,
  "gasLimit": {
    "_hex": "0x2fefd8"
  },
  "gasUsed": {
    "_hex": "0xaa37"
  },
  "miner": "0xbb7B8287f3F0a933474a79eAe42CBCa977791171",
  "extraData": "0x476574682f4c5649562f76312e302e312f6c696e75782f676f312e342e32",
  "transactions": [
    {
      "hash": "0xb7d4dc9b1103cd71ebf0c8989ea4cd2c820a9b825acc2a221e9324fde6efa1d3",
      "blockHash": "0x659b312d0bc856c26a147a00d8b237e57dd33694a4afff6bc98f633c825f542f",
      "blockNumber": 80222,
      "transactionIndex": 0,
      "confirmations": null,
      "from": "0x87C5B5874A18B4306DF8a752a6C8cc3E82daFc19",
      "gasPrice": {
        "_hex": "0xfee4bf8b3d"
      },
      "gasLimit": {
        "_hex": "0x493e0"
      },
      "to": "0xC4c51de1AbF5D60DBd329eC0F999Fd8f021ae9fC",
      "value": {
        "_hex": "0x0"
      },
      "nonce": 143,
      "data": "0x03750d9400000000000000000000000087c5b5874a18b4306df8a752a6c8cc3e82dafc196b6b6b0000000000000000000000000000000000000000000000000000000000",
      "r": "0x651a84187305f888bf6e2c1bc9852d54a455f90523597344136d0aaf77ae4d5c",
      "s": "0x4e4ed0c84c46713ea81eb0d7573cf8d4da04dadcd7d64c315848fdfb69faa26f",
      "v": 27,
      "creates": null,
      "raw": "0xf8ab818f85fee4bf8b3d830493e094c4c51de1abf5d60dbd329ec0f999fd8f021ae9fc80b84403750d9400000000000000000000000087c5b5874a18b4306df8a752a6c8cc3e82dafc196b6b6b00000000000000000000000000000000000000000000000000000000001ba0651a84187305f888bf6e2c1bc9852d54a455f90523597344136d0aaf77ae4d5ca04e4ed0c84c46713ea81eb0d7573cf8d4da04dadcd7d64c315848fdfb69faa26f",
      "networkId": 0,
      "chainId": 0
    }
  ]
}