{
  "hash": "0xc7b86b2a1a85e7856cc8ab4c1725b76aea25bb4c3ccfcb826011306f4a76cdd6",
  "parentHash": "0x49f73c513dac8ee4a51679a7938374b941cf88ee87514fe9d7a55669c3af13da",
  "number": 75265,
  "timestamp": 1439400336,
  "nonce": "0xfe43f5c46f296785",
  "difficulty": 2198666206054,
  "gasLimit": {
    "_hex": "0x2fefd8"
  },
  "gasUsed": {
    "_hex": "0xc2db"
  },
  "miner": "0x2f6BCe4fc330B69C9B4c2694d57C63Ec7B18feC7",
  "extraData": "0x476574682f76312e302e312f77696e646f77732f676f312e342e32",
  "transactions": [
    {
      "hash": "0x05f4f8197345935eb7c66d37b07f9a3da351ec4449149735caed8e6f1fc504f2",
      "blockHash": "0xc7b86b2a1a85e7856cc8ab4c1725b76aea25bb4c3ccfcb826011306f4a76cdd6",
      "blockNumber": 75265,
      "transactionIndex": 0,
      "confirmations": null,
      "from": "0x326Be8F71bFb0379f989aAB1CC1fE37f0a771f60",
      "gasPrice": {
        "_hex": "0x1002799c0d2"
      },
      "gasLimit": {
        "_hex": "0x493e0"
      },
      "to": "0xD79B4C6791784184e2755B2fC1659eaaB0f80456",
      "value": {
        "_hex": "0x0"
      },
      "nonce": 89,
      "data": "0xbd66528a73302e3639383632393938393832303834383700000000000000000000000000",
      "r": "0x2ac59cb15fab347231500d08fca19e9306ceae08c04570d013d6fcc9c42a0c0c",
      "s": "0x29e74e6d036a44460b3cb3d427c26ddee162b6f2cf102a8e90664198ac8f72bf",
      "v": 27,
      "creates": null,
      "raw": "0xf88a598601002799c0d2830493e094d79b4c6791784184e2755b2fc1659eaab0f8045680a4bd66528a73302e36393836323939383938323038343837000000000000000000000000001ba02ac59cb15fab347231500d08fca19e9306ceae08c04570d013d6fcc9c42a0c0ca029e74e6d036a44460b3cb3d427c26ddee162b6f2cf102a8e90664198ac8f72bf",
      "networkId": 0,
      "chainId": 0
    },
    {
      "hash": "0xf0b96c84dd90504d65e10f49e09c52131bcc46c8fa44314b43f5a6a8d1def960",
      "blockHash": "0xc7b86b2a1a85e7856cc8ab4c1725b76aea25bb4c3ccfcb826011306f4a76cdd6",
      "blockNumber": 75265,
      "transactionIndex": 1,
      "confirmations": null,
      "from": "0x7998276dDecB82491dEe4Cd6cC504C55e87b5570",
      "gasPrice": {
        "_hex": "0xcc28b636d"
      },
      "gasLimit": {
        "_hex": "0x15f90"
      },
      "to": "0x3a3e78131Aa0d6192896c7d0D13924B144e79E4d",
      "value": {
        "_hex": "0x7ce66c50e2840000"
      },
      "nonce": 0,
      "data": "0x",
      "r": "0xa16b6699a1e9e952a2baa3365648cbb1a506d2bc70aa0f5a23ea202289a8f29b",
      "s": "0x3dd54e45ebaa4cca41ea2e7bd084cd33888dbd9e7ce520d3e2d232d6f9cf8478",
      "v": 28,
      "creates": null,
      "raw": "0xf86d80850cc28b636d83015f90943a3e78131aa0d6192896c7d0d13924b144e79e4d887ce66c50e2840000801ca0a16b6699a1e9e952a2baa3365648cbb1a506d2bc70aa0f5a23ea202289a8f29ba03dd54e45ebaa4cca41ea2e7bd084cd33888dbd9e7ce520d3e2d232d6f9cf8478",
      "networkId": 0,
      "chainId": 0
    }
  ]
}