{
  "hash": "0x2a36a6b6e290b61e7503072bf93a85eefa3814dd3f2dfe64f361f6d04772b019",
  "parentHash": "0xcaf2225933dc0f49cd83f68973c5ed5419bc34811c11f5741fd778f5699999a4",
  "number": 65282,
  "timestamp": 1439234322,
  "nonce": "0xfdf022d41df17af7",
  "difficulty": 1941678260490,
  "gasLimit": {
    "_hex": "0x2fefd8"
  },
  "gasUsed": {
    "_hex": "0xf618"
  },
  "miner": "0xeB1325C8D9d3ea8D74aC11F4B00F1B2367686319",
  "extraData": "0x476574682f76312e302e312f77696e646f77732f676f312e342e32",
  "transactions": [
    {
      "hash": "0x0ead82084fbf2947bcb226356a75938fd1f4d00c19671a3d9ef7b2ee6230231f",
      "blockHash": "0x2a36a6b6e290b61e7503072bf93a85eefa3814dd3f2dfe64f361f6d04772b019",
      "blockNumber": 65282,
      "transactionIndex": 0,
      "confirmations": null,
      "from": "0x608F680cB915b87F83f3d369bBbb796D778c6162",
      "gasPrice": {
        "_hex": "0xd35502858"
      },
      "gasLimit": {
        "_hex": "0x15f90"
      },
      "to": "0xBaf4E201A3015b60bD8dd1190E20411EaF12C5eE",
      "value": {
        "_hex": "0xa7640000"
      },
      "nonce": 1,
      "data": "0x",
      "r": "0xa06e26ba1b17085d0622ae87a7c36f8a7cdb0f6be98ab8b2783cc93d8f40a184",
      "s": "0x2d03b8675306427eae2c1ddd7476f2172b181c88732c6faa2f469f5c1c9a306b",
      "v": 28,
      "creates": null,
      "raw": "0xf86901850d3550285883015f9094baf4e201a3015b60bd8dd1190e20411eaf12c5ee84a7640000801ca0a06e26ba1b17085d0622ae87a7c36f8a7cdb0f6be98ab8b2783cc93d8f40a184a02d03b8675306427eae2c1ddd7476f2172b181c88732c6faa2f469f5c1c9a306b",
      "networkId": 0,
      "chainId": 0
    },
    {
      "hash": "0xd87618264fcd5506969b6583fa9f6bcefd99473678b1873b27522683cfd7c8e6",
      "blockHash": "0x2a36a6b6e290b61e7503072bf93a85eefa3814dd3f2dfe64f361f6d04772b019",
      "blockNumber": 65282,
      "transactionIndex": 1,
      "confirmations": null,
      "from": "0x92e2B0950E63C72dAb3596363Ecf19e62D480c51",
      "gasPrice": {
        "_hex": "0xba43b7400"
      },
      "gasLimit": {
        "_hex": "0x5208"
      },
      "to": "0x3C278C6f9bf2785AFAe39E94AfCc49fc03A1E7ae",
      "value": {
        "_hex": "0x82b0691e5f45000"
      },
      "nonce": 1,
      "data": "0x",
      "r": "0x614abf02a473c5064a40b1eef3d1004e2e55f9cb76e4b8c0b175e1b0ef1b3c5b",
      "s": "0x2a65e90d3d90cf24ac950ba7ff1c09bf1f342d5f3cafb34e1912a041242dbea4",
      "v": 27,
      "creates": null,
      "raw": "0xf86c01850ba43b7400825208943c278c6f9bf2785afae39e94afcc49fc03a1e7ae88082b0691e5f45000801ba0614abf02a473c5064a40b1eef3d1004e2e55f9cb76e4b8c0b175e1b0ef1b3c5ba02a65e90d3d90cf24ac950ba7ff1c09bf1f342d5f3cafb34e1912a041242dbea4",
      "networkId": 0,
      "chainId": 0
    },
    {
      "hash": "0x7da111b10eddcae6e99751c8cf76ec2f7bfc96130e72c49226f48b26a3d4aea4",
      "blockHash": "0x2a36a6b6e290b61e7503072bf93a85eefa3814dd3f2dfe64f361f6d04772b019",
      "blockNumber": 65282,
      "transactionIndex": 2,
      "confirmations": null,
      "from": "0xA1425E10b49c733E4cf4101f5b248E7BE6Bc660E",
      "gasPrice": {
        "_hex": "0xba43b7400"
      },
      "gasLimit": {
        "_hex": "0x5208"
      },
      "to": "0x373a3Bc8f009Ada79bb6fE2E10d57127083112CA",
      "value": {
        "_hex": "0x7b756b1a6222000"
      },
      "nonce": 1,
      "data": "0x",
      "r": "0xfbcc606d4a1230232e7d9a2c68e263fc14838b109659665f4f7c94fbf077063e",
      "s": "0x1b20e8f217ab8ff5c44b6f43f8018b8882e1d37e2f91ab8ab2fe08b3b61d16d3",
      "v": 27,
      "creates": null,
      "raw": "0xf86c01850ba43b740082520894373a3bc8f009ada79bb6fe2e10d57127083112ca8807b756b1a6222000801ba0fbcc606d4a1230232e7d9a2c68e263fc14838b109659665f4f7c94fbf077063ea01b20e8f217ab8ff5c44b6f43f8018b8882e1d37e2f91ab8ab2fe08b3b61d16d3",
      "networkId": 0,
      "chainId": 0
    }
  ]
}