{
  "hash": "0x334dd9921f8e4e7e492493c4a3f0421e2892472b66bc2c0b44beb9da19333484",
  "parentHash": "0x58fb0ddeff253c91182cfada63a36f619d4178cf3ff63eaeaf1c48f877616fe9",
  "number": 68499,
  "timestamp": 1439288947,
  "nonce": "0x706b90c73e292f8a",
  "difficulty": 2009401983196,
  "gasLimit": {
    "_hex": "0x2fefd8"
  },
  "gasUsed": {
    "_hex": "0x93b2"
  },
  "miner": "0x0eDEd3DA479d0beF8eeC92A76644D3f4E3C177f7",
  "extraData": "0x476574682f76312e302e312f6c696e75782f676f312e342e32",
  "transactions": [
    {
      "hash": "0xdbf151d1776873d612e6181bff2adc907c5c9754d47d81b842a9869bd1d8d99b",
      "blockHash": "0x334dd9921f8e4e7e492493c4a3f0421e2892472b66bc2c0b44beb9da19333484",
      "blockNumber": 68499,
      "transactionIndex": 0,
      "confirmations": null,
      "from": "0x17580B766f7453525ca4C6A88b01b50570EA088C",
      "gasPrice": {
        "_hex": "0xd3b835928"
      },
      "gasLimit": {
        "_hex": "0x61a80"
      },
      "to": "0x5Fe5B7546D1628f7348B023A0393de1FC825A4fD",
      "value": {
        "_hex": "0x4563918244f40000"
      },
      "nonce": 31,
      "data": "0xb595b8b50000000000000000000000000000000000000000000000000000000000000000",
      "r": "0xe91e163bc4f1fc51d2cdbec328cfed082b0dc3ed64bad697633c9e63966fa40a",
      "s": "0x1130e6f87b9a91210d9ad131e171cb0c5e3e1148c2c73230f92515b6de5d60dd",
      "v": 27,
      "creates": null,
      "raw": "0xf8911f850d3b83592883061a80945fe5b7546d1628f7348b023a0393de1fc825a4fd884563918244f40000a4b595b8b500000000000000000000000000000000000000000000000000000000000000001ba0e91e163bc4f1fc51d2cdbec328cfed082b0dc3ed64bad697633c9e63966fa40aa01130e6f87b9a91210d9ad131e171cb0c5e3e1148c2c73230f92515b6de5d60dd",
      "networkId": 0,
      "chainId": 0
    }
  ]
}