{
  "hash": "0xd51ef68dfe0fd90e43e4a275c15e87df75a849669af1d5990ce43677ae6a17bd",
  "parentHash": "0x2496c1cc04677ed75cadda9b79e1ffbaab9c27dea37cd63f0dedf3444cfd47b3",
  "number": 61476,
  "timestamp": 1439172992,
  "nonce": "0x53d4328a8b4ccb1b",
  "difficulty": 1734510313511,
  "gasLimit": {
    "_hex": "0x2fefd8"
  },
  "gasUsed": {
    "_hex": "0x5208"
  },
  "miner": "0x9746c7e1ef2bd21FF3997fa467593a89cb852BD0",
  "extraData": "0x476574682f76312e302e312f77696e646f77732f676f312e342e32",
  "transactions": [
    {
      "hash": "0x68d7f506db88297b94ca0efd7524ab466d328e7e93f6fb6343ff96bbfda859df",
      "blockHash": "0xd51ef68dfe0fd90e43e4a275c15e87df75a849669af1d5990ce43677ae6a17bd",
      "blockNumber": 61476,
      "transactionIndex": 0,
      "confirmations": null,
      "from": "0xda076E9eE5a5156B3e7F206401899C854fc1d5Fd",
      "gasPrice": {
        "_hex": "0xd8364fc25"
      },
      "gasLimit": {
        "_hex": "0x15f90"
      },
      "to": "0xB4EcAAfC5fB10d5D30A931de851f3FF1DaD41141",
      "value": {
        "_hex": "0x16345785d8a0000"
      },
      "nonce": 0,
      "data": "0x",
      "r": "0x6d281ff2bb646a7e30531fe87b14693902a645abb0367649aebcfd23e2d9cbb0",
      "s": "0x725eef6b19ecd2a543f4af8bd1cc11ad04735a75c8a509dfaaa52f85bbfa6bd4",
      "v": 27,
      "creates": null,
      "raw": "0xf86d80850d8364fc2583015f9094b4ecaafc5fb10d5d30a931de851f3ff1dad4114188016345785d8a0000801ba06d281ff2bb646a7e30531fe87b14693902a645abb0367649aebcfd23e2d9cbb0a0725eef6b19ecd2a543f4af8bd1cc11ad04735a75c8a509dfaaa52f85bbfa6bd4",
      "networkId": 0,
      "chainId": 0
    }
  ]
}