{
  "hash": "0x37bd8cb4ab3e721538d492a30c0942552dc77a0809eae885a31c97ca3c35cd1f",
  "parentHash": "0xb3ea80d88952fd1286f22325e9f01dc19a5ac6d127083e687fb67d18c0acdb1d",
  "number": 100537,
  "timestamp": 1439808024,
  "nonce": "0x8009ed9cee53a7a4",
  "difficulty": 3832173145447,
  "gasLimit": {
    "_hex": "0x2fefd8"
  },
  "gasUsed": {
    "_hex": "0x5208"
  },
  "miner": "0xe6A7a1d47ff21B6321162AEA7C6CB457D5476Bca",
  "extraData": "0x476574682f76312e302e312d38326566323666362f6c696e75782f676f312e34",
  "transactions": [
    {
      "hash": "0xd7512dcde363f793b1b2e445f7ea72ce89d21e0226810aec9e1c74e0756d0fc9",
      "blockHash": "0x37bd8cb4ab3e721538d492a30c0942552dc77a0809eae885a31c97ca3c35cd1f",
      "blockNumber": 100537,
      "transactionIndex": 0,
      "confirmations": null,
      "from": "0x051B69BB7073F7385370C5751F988b31A7567a63",
      "gasPrice": {
        "_hex": "0xba43b7400"
      },
      "gasLimit": {
        "_hex": "0x5208"
      },
      "to": "0xC47Aaa860008be6f65B58c6C6E02a84e666EfE31",
      "value": {
        "_hex": "0x4f16bcd4a6b638f0"
      },
      "nonce": 4,
      "data": "0x",
      "r": "0xb76cfcd2397eaafc82b07ac390725a8dc61bd21cc32eea37528d95856aae763e",
      "s": "0x682eff3a3df14e8331a23b2ed09f8ff487d02b3ad5227ac6f7513285b4bc3096",
      "v": 28,
      "creates": null,
      "raw": "0xf86c04850ba43b740082520894c47aaa860008be6f65b58c6c6e02a84e666efe31884f16bcd4a6b638f0801ca0b76cfcd2397eaafc82b07ac390725a8dc61bd21cc32eea37528d95856aae763ea0682eff3a3df14e8331a23b2ed09f8ff487d02b3ad5227ac6f7513285b4bc3096",
      "networkId": 0,
      "chainId": 0
    }
  ]
}