{
  "hash": "0x47d47771fd13982fbf61b410582ea06e71387ffacff65f70680d692019ebcb12",
  "parentHash": "0x56bd6f95732ae07163fa3223a5be2cab47522518526475a955a0839e647f9b49",
  "number": 115190,
  "timestamp": 1440053152,
  "nonce": "0x3fea1e8e1b9d4c70",
  "difficulty": 4522955949722,
  "gasLimit": {
    "_hex": "0x2fefd8"
  },
  "gasUsed": {
    "_hex": "0x5208"
  },
  "miner": "0xa8E7201ff619fAFFc332E6aD37Ed41e301bf014a",
  "extraData": "0x476574682f76312e302e312f77696e646f77732f676f312e342e32",
  "transactions": [
    {
      "hash": "0x6f0cf9e6c13a2f4c11a47dc90fe0f8ef65c8ecd1f3501bd968c3650da3ebf40f",
      "blockHash": "0x47d47771fd13982fbf61b410582ea06e71387ffacff65f70680d692019ebcb12",
      "blockNumber": 115190,
      "transactionIndex": 0,
      "confirmations": null,
      "from": "0x32Be343B94f860124dC4fEe278FDCBD38C102D88",
      "gasPrice": {
        "_hex": "0xd465065a7"
      },
      "gasLimit": {
        "_hex": "0x5208"
      },
      "to": "0xed433C980AaED4E749B3229F3993BfB2840f2433",
      "value": {
        "_hex": "0x2c3a0ded7e92b0000"
      },
      "nonce": 1412,
      "data": "0x",
      "r": "0x3ec7bdaea93b2cb96b50e99462ca60c507fe92c592a02b326dcc2b740001c5e2",
      "s": "0x756d3dd85fe81361101827d219b0b5af79a592dcbc7851e532df6fa26d42fbff",
      "v": 28,
      "creates": null,
      "raw": "0xf86f820584850d465065a782520894ed433c980aaed4e749b3229f3993bfb2840f24338902c3a0ded7e92b0000801ca03ec7bdaea93b2cb96b50e99462ca60c507fe92c592a02b326dcc2b740001c5e2a0756d3dd85fe81361101827d219b0b5af79a592dcbc7851e532df6fa26d42fbff",
      "networkId": 0,
      "chainId": 0
    }
  ]
}