{
  "hash": "0xad5598bb01a5df5a4502319ad9e916b0908841e91f824ec379cecc6ff13743be",
  "parentHash": "0xdf901761ad8e1ed2b88e9fd49a395ccd80910770c1a1442be679f265d1e295fd",
  "number": 101680,
  "timestamp": 1439826501,
  "nonce": "0x545b9d589b05ea60",
  "difficulty": 3882500410369,
  "gasLimit": {
    "_hex": "0x2fefd8"
  },
  "gasUsed": {
    "_hex": "0x5208"
  },
  "miner": "0x77EC9ad4A7E9418774C29415CAaF4Ee0da96eF64",
  "extraData": "0x",
  "transactions": [
    {
      "hash": "0x4489ed10a85a449e42abe106ec9001bfcc7a78397b9c705a2eee53bee029452c",
      "blockHash": "0xad5598bb01a5df5a4502319ad9e916b0908841e91f824ec379cecc6ff13743be",
      "blockNumber": 101680,
      "transactionIndex": 0,
      "confirmations": null,
      "from": "0x7884D470204862a0d1A21122F41ee77430396Ee5",
      "gasPrice": {
        "_hex": "0xe06cce5a6"
      },
      "gasLimit": {
        "_hex": "0x15f90"
      },
      "to": "0x414159CAfdb23F0d1f0a28AaE70Ca44D6E58268a",
      "value": {
        "_hex": "0x27147114878000"
      },
      "nonce": 89,
      "data": "0x",
      "r": "0x3d93234e7fade04de08444f1e1d2db3c561a8b73301227e77e4066ad09b6aab8",
      "s": "0x3259140dff3ca9e1dd526454fc27cb0b9cb6e9849ce9cbcf0852014b630a84fa",
      "v": 27,
      "creates": null,
      "raw": "0xf86c59850e06cce5a683015f9094414159cafdb23f0d1f0a28aae70ca44d6e58268a8727147114878000801ba03d93234e7fade04de08444f1e1d2db3c561a8b73301227e77e4066ad09b6aab8a03259140dff3ca9e1dd526454fc27cb0b9cb6e9849ce9cbcf0852014b630a84fa",
      "networkId": 0,
      "chainId": 0
    }
  ]
}