{
  "hash": "0x9cf573e55cea787e45102053493210e9d028f2a2c0e6604a8776dace7e446933",
  "parentHash": "0x8bfdd9151d31909faf51f6485816999479d95d73bde63d2988c9337b98efd974",
  "number": 95029,
  "timestamp": 1439717934,
  "nonce": "0xd1af5c4c58b4a43e",
  "difficulty": 3501769206418,
  "gasLimit": {
    "_hex": "0x2fefd8"
  },
  "gasUsed": {
    "_hex": "0x5208"
  },
  "miner": "0x790b8a3cE86E707ED0eD32bF89B3269692a23CC1",
  "extraData": "0xd783010001844765746887676f312e342e32856c696e7578",
  "transactions": [
    {
      "hash": "0xd2c0664d5b6a33592498d12bd5180a6716c47ef41db057e6d1ccf6f59430e11d",
      "blockHash": "0x9cf573e55cea787e45102053493210e9d028f2a2c0e6604a8776dace7e446933",
      "blockNumber": 95029,
      "transactionIndex": 0,
      "confirmations": null,
      "from": "0x007f7f58D3eb5b7510A301eCC749FC1fCDDBE14D",
      "gasPrice": {
        "_hex": "0xcc8ddf695"
      },
      "gasLimit": {
        "_hex": "0x15f90"
      },
      "to": "0xb1abce2918E21ddb93AA452731a12672A3d9F75a",
      "value": {
        "_hex": "0x4563918244f40000"
      },
      "nonce": 50,
      "data": "0x",
      "r": "0xff1b01d24c1b1fb398b6eee387b5ce2a2efb1fc2d5ee9b61154f6664362700c8",
      "s": "0x66be9918351a22095a070f009cc1e65ed1f48d6fb36757bc243545c9f375e0da",
      "v": 27,
      "creates": null,
      "raw": "0xf86d32850cc8ddf69583015f9094b1abce2918e21ddb93aa452731a12672a3d9f75a884563918244f40000801ba0ff1b01d24c1b1fb398b6eee387b5ce2a2efb1fc2d5ee9b61154f6664362700c8a066be9918351a22095a070f009cc1e65ed1f48d6fb36757bc243545c9f375e0da",
      "networkId": 0,
      "chainId": 0
    }
  ]
}