{
  "hash": "0x8a950c98bdb4256faf3c2907423f53f160ed33664daafd5b75c821f94ed937ac",
  "parentHash": "0x984007ae6431cc2727bf4dcfbe208db2973eb47eb50801b434ea46ea6aed45a0",
  "number": 48486,
  "timestamp": 1438957956,
  "nonce": "0xa1bedb8b2ac1c2e3",
  "difficulty": 1462867643631,
  "gasLimit": {
    "_hex": "0x17f79"
  },
  "gasUsed": {
    "_hex": "0x546c"
  },
  "miner": "0xc56e71225f1372c990E6829D53A1Ab76d27301cf",
  "extraData": "0x476574682f76312e302e302f77696e646f77732f676f312e342e32",
  "transactions": [
    {
      "hash": "0xe3d3a49bbf10f28d494f436dd3b460ecde4e8c5c1a9e61723bbe1b72e96e5000",
      "blockHash": "0x8a950c98bdb4256faf3c2907423f53f160ed33664daafd5b75c821f94ed937ac",
      "blockNumber": 48486,
      "transactionIndex": 0,
      "confirmations": null,
      "from": "0x0927220492194B2edA9fc4BBe38f25d681dfD36C",
      "gasPrice": {
        "_hex": "0xd1f217cbf"
      },
      "gasLimit": {
        "_hex": "0x15f90"
      },
      "to": "0x2910543Af39abA0Cd09dBb2D50200b3E800A63D2",
      "value": {
        "_hex": "0x1b1ae4d6e2ef500000"
      },
      "nonce": 0,
      "data": "0x454e42334b45444730",
      "r": "0x7ab2aea929e52cf53443945669a6216136b1cf8865e18b536beb131c5dc0999a",
      "s": "0x1aa9410e87b442bfcfb06bbbfd5725dce4d213f322d0b74e6de5f0a73118f77c",
      "v": 27,
      "creates": null,
      "raw": "0xf87780850d1f217cbf83015f90942910543af39aba0cd09dbb2d50200b3e800a63d2891b1ae4d6e2ef50000089454e42334b454447301ba07ab2aea929e52cf53443945669a6216136b1cf8865e18b536beb131c5dc0999aa01aa9410e87b442bfcfb06bbbfd5725dce4d213f322d0b74e6de5f0a73118f77c",
      "networkId": 0,
      "chainId": 0
    }
  ]
}