{
  "hash": "0xbcc9ebd1c6968ef054e227145f9eeab9138c594667567b1d190f4b8ee93e5196",
  "parentHash": "0x03452e823a41d6c5945d7bc46c6c82ad4180911e2b57ff67a293f0699bc349c7",
  "number": 93216,
  "timestamp": 1439685347,
  "nonce": "0x1897e5c31a4be9bb",
  "difficulty": 3587337335174,
  "gasLimit": {
    "_hex": "0x2fefd8"
  },
  "gasUsed": {
    "_hex": "0x5208"
  },
  "miner": "0x55bAf64fc9eAccFFd7Cc643BB61142E1C6ac093e",
  "extraData": "0x",
  "transactions": [
    {
      "hash": "0x8d9da71879460c682df0b30843cdfc1a127b473643446bee40070512c37b033b",
      "blockHash": "0xbcc9ebd1c6968ef054e227145f9eeab9138c594667567b1d190f4b8ee93e5196",
      "blockNumber": 93216,
      "transactionIndex": 0,
      "confirmations": null,
      "from": "0xE3535c3A7F74fDd1447140e98FA5fE310028f40f",
      "gasPrice": {
        "_hex": "0xe19ebf2a1"
      },
      "gasLimit": {
        "_hex": "0x5208"
      },
      "to": "0x32Be343B94f860124dC4fEe278FDCBD38C102D88",
      "value": {
        "_hex": "0x6120847e8cfeb800"
      },
      "nonce": 3,
      "data": "0x",
      "r": "0x3c9afb76937681019e24bc88bfda2373699b20087adbca2bae4d59ba99722bdd",
      "s": "0x77a8bef12527c1ee24d1336046b8bfe43dd89c7da313f47a76836037428eec45",
      "v": 28,
      "creates": null,
      "raw": "0xf86c03850e19ebf2a18252089432be343b94f860124dc4fee278fdcbd38c102d88886120847e8cfeb800801ca03c9afb76937681019e24bc88bfda2373699b20087adbca2bae4d59ba99722bdda077a8bef12527c1ee24d1336046b8bfe43dd89c7da313f47a76836037428eec45",
      "networkId": 0,
      "chainId": 0
    }
  ]
}