{
  "hash": "0x2741fc3f9ae073fa98cf01860af3022369e9a2a918e3eed87dade6b9aea76d6f",
  "parentHash": "0x09653ba4cd0fe25decd95db3cc6f3732f5917e6de6fb5cf2ee157fe2d73559a9",
  "number": 110599,
  "timestamp": 1439976466,
  "nonce": "0x562aa20e6990348d",
  "difficulty": 4371232778593,
  "gasLimit": {
    "_hex": "0x2fefd8"
  },
  "gasUsed": {
    "_hex": "0x15146"
  },
  "miner": "0xe6A7a1d47ff21B6321162AEA7C6CB457D5476Bca",
  "extraData": "0x476574682f76312e302e312d38326566323666362f6c696e75782f676f312e34",
  "transactions": [
    {
      "hash": "0x5cbe300c1b5278e991fad736e653669d316b93f35f446741e13192d02f480c68",
      "blockHash": "0x2741fc3f9ae073fa98cf01860af3022369e9a2a918e3eed87dade6b9aea76d6f",
      "blockNumber": 110599,
      "transactionIndex": 0,
      "confirmations": null,
      "from": "0xa6BDc31c431B8F97848c9D60cbbe9660dc450eB7",
      "gasPrice": {
        "_hex": "0xdb1dd0c67"
      },
      "gasLimit": {
        "_hex": "0x5208"
      },
      "to": "0x32Be343B94f860124dC4fEe278FDCBD38C102D88",
      "value": {
        "_hex": "0x455f3aa243bb4800"
      },
      "nonce": 194,
      "data": "0x",
      "r": "0x7ff186bc2d0df5fe337a51a5c8ff1b46be7eee30a40d6f1514563b87cf687580",
      "s": "0x12efccfea587b05bdbe93f9edb99c71e9aae26597a5d62cef19524ad06a10ad0",
      "v": 27,
      "creates": null,
      "raw": "0xf86d81c2850db1dd0c678252089432be343b94f860124dc4fee278fdcbd38c102d8888455f3aa243bb4800801ba07ff186bc2d0df5fe337a51a5c8ff1b46be7eee30a40d6f1514563b87cf687580a012efccfea587b05bdbe93f9edb99c71e9aae26597a5d62cef19524ad06a10ad0",
      "networkId": 0,
      "chainId": 0
    },
    {
      "hash": "0xf1e3951fea436d97bcc0e90d2e8dc173efbdffe25862f738bc61830790971651",
      "blockHash": "0x2741fc3f9ae073fa98cf01860af3022369e9a2a918e3eed87dade6b9aea76d6f",
      "blockNumber": 110599,
      "transactionIndex": 1,
      "confirmations": null,
      "from": "0xBD744E3F13D79B33F6c8E1d5E32F8E9BA2866c46",
      "gasPrice": {
        "_hex": "0xd7ccc19c1"
      },
      "gasLimit": {
        "_hex": "0x15f90"
      },
      "to": null,
      "value": {
        "_hex": "0x0"
      },
      "nonce": 17,
      "data": "0x60606040525b612710600060005060003373ffffffffffffffffffffffffffffffffffffffff168152602001908152602001600020600050819055505b6101588061004b6000396000f30060606040526000357c01000000000000000000000000000000000000000000000000000000009004806327e235e314610044578063a9059cbb1461006b57610042565b005b610055600480359060200150610084565b6040518082815260200191505060405180910390f35b61008260048035906020018035906020015061009f565b005b60006000506020528060005260406000206000915090505481565b80600060005060003373ffffffffffffffffffffffffffffffffffffffff1681526020019081526020016000206000505410156100db57610154565b80600060005060003373ffffffffffffffffffffffffffffffffffffffff16815260200190815260200160002060008282825054039250508190555080600060005060008473ffffffffffffffffffffffffffffffffffffffff1681526020019081526020016000206000828282505401925050819055505b505056",
      "r": "0xeba3f15c47d0d2502de46baba0ff557f6e95c099b3e5a9ea94d12f841b7c5100",
      "s": "0x2386df2a5500e123f0e46286f89c0aa6ec8342bde61a09779edd947d9cbfef82",
      "v": 27,
      "creates": "0xa580086125d040FDdD3aF9D563285bd0ec4d13e3",
      "raw": "0xf901f611850d7ccc19c183015f908080b901a360606040525b612710600060005060003373ffffffffffffffffffffffffffffffffffffffff168152602001908152602001600020600050819055505b6101588061004b6000396000f30060606040526000357c01000000000000000000000000000000000000000000000000000000009004806327e235e314610044578063a9059cbb1461006b57610042565b005b610055600480359060200150610084565b6040518082815260200191505060405180910390f35b61008260048035906020018035906020015061009f565b005b60006000506020528060005260406000206000915090505481565b80600060005060003373ffffffffffffffffffffffffffffffffffffffff1681526020019081526020016000206000505410156100db57610154565b80600060005060003373ffffffffffffffffffffffffffffffffffffffff16815260200190815260200160002060008282825054039250508190555080600060005060008473ffffffffffffffffffffffffffffffffffffffff1681526020019081526020016000206000828282505401925050819055505b5050561ba0eba3f15c47d0d2502de46baba0ff557f6e95c099b3e5a9ea94d12f841b7c5100a02386df2a5500e123f0e46286f89c0aa6ec8342bde61a09779edd947d9cbfef82",
      "networkId": 0,
      "chainId": 0
    }
  ]
}