{
  "hash": "0x1120d307f632ba82b27aab476a6e0f16107d57a6c5808fd2ecbf200a0c1b46e7",
  "parentHash": "0x3c2f6a2b541f2a25ca1d89f6722595ee2b6787ffb5563cec5cad4f2c78f8b822",
  "number": 56225,
  "timestamp": 1439083921,
  "nonce": "0xb4064096d384c99d",
  "difficulty": 1647246331370,
  "gasLimit": {
    "_hex": "0x2fefd8"
  },
  "gasUsed": {
    "_hex": "0x5208"
  },
  "miner": "0xC49418429e58989172a4ACE0bab0cB8D3F00F97f",
  "extraData": "0x476574682f76312e302e312f6c696e75782f676f312e342e32",
  "transactions": [
    {
      "hash": "0x956e6b39bfa40ef43618b179dbdfda0bd48cc98fe59970918d042165b0784e58",
      "blockHash": "0x1120d307f632ba82b27aab476a6e0f16107d57a6c5808fd2ecbf200a0c1b46e7",
      "blockNumber": 56225,
      "transactionIndex": 0,
      "confirmations": null,
      "from": "0x120A270bbC009644e35F0bB6ab13f95b8199c4ad",
      "gasPrice": {
        "_hex": "0xcaa536680"
      },
      "gasLimit": {
        "_hex": "0x15f90"
      },
      "to": "0xcCF7110d1Bd9A74bfd1d7d7d2d9D55607E7B837d",
      "value": {
        "_hex": "0x34634ad2caf132c00"
      },
      "nonce": 27,
      "data": "0x",
      "r": "0xce0b78f73aa9a45d56add054887d788782d1ba72f68ef557f3f25f3edf4596a3",
      "s": "0x55a7b2005c584649d91070cd1a40433c4cd8491a1309ea36851dc10d0a7ac588",
      "v": 27,
      "creates": null,
      "raw": "0xf86e1b850caa53668083015f9094ccf7110d1bd9a74bfd1d7d7d2d9d55607e7b837d89034634ad2caf132c00801ba0ce0b78f73aa9a45d56add054887d788782d1ba72f68ef557f3f25f3edf4596a3a055a7b2005c584649d91070cd1a40433c4cd8491a1309ea36851dc10d0a7ac588",
      "networkId": 0,
      "chainId": 0
    }
  ]
}