{
  "hash": "0xa526dace8d63b2df863a8b655b5e056cd62e644192a96786e75d0db03f17232f",
  "parentHash": "0x1f1ca4972bea3bd05cff5fd98f2ea8040905c4586169662233ab3c25e9862304",
  "number": 75552,
  "timestamp": 1439405305,
  "nonce": "0x56a5f5283a97f501",
  "difficulty": 2216916963226,
  "gasLimit": {
    "_hex": "0x2fefd8"
  },
  "gasUsed": {
    "_hex": "0x546c"
  },
  "miner": "0xBD744E3F13D79B33F6c8E1d5E32F8E9BA2866c46",
  "extraData": "0x476574682f76312e302e312d39613032663533372f6c696e75782f676f312e34",
  "transactions": [
    {
      "hash": "0x65af608105021d9c85a0dc37b891da7f1935d094f02cbabd968af10e85c83cab",
      "blockHash": "0xa526dace8d63b2df863a8b655b5e056cd62e644192a96786e75d0db03f17232f",
      "blockNumber": 75552,
      "transactionIndex": 0,
      "confirmations": null,
      "from": "0x7c29d47D57A733f56b9b217063B513dc3B315923",
      "gasPrice": {
        "_hex": "0x110c8f7d8de"
      },
      "gasLimit": {
        "_hex": "0xc350"
      },
      "to": "0x2910543Af39abA0Cd09dBb2D50200b3E800A63D2",
      "value": {
        "_hex": "0x3635c9adc5dea00000"
      },
      "nonce": 0,
      "data": "0x454e50394536423452",
      "r": "0xd7db942932621f6c09220c8c9a3fefd6067dfb089dc048496b793e2c1a82e671",
      "s": "0xb47d4d022b7b56c86eedec64b517da9b7c29edd0a8c58911625f71ab7a12a0e5",
      "v": 27,
      "creates": null,
      "raw": "0xf87780860110c8f7d8de82c350942910543af39aba0cd09dbb2d50200b3e800a63d2893635c9adc5dea0000089454e503945364234521ba0d7db942932621f6c09220c8c9a3fefd6067dfb089dc048496b793e2c1a82e671a0b47d4d022b7b56c86eedec64b517da9b7c29edd0a8c58911625f71ab7a12a0e5",
      "networkId": 0,
      "chainId": 0
    }
  ]
}