{
  "hash": "0xcabb5cc391a4b515932647e39919b729d992fce5307ae9de0f2d389048d7b24b",
  "parentHash": "0x7cec340396095726160c472928449b0a267fb442fbd101710244c05cd67589d3",
  "number": 52620,
  "timestamp": 1439024575,
  "nonce": "0x25027bf217bca36c",
  "difficulty": 1568654652981,
  "gasLimit": {
    "_hex": "0x166e49"
  },
  "gasUsed": {
    "_hex": "0xf9448"
  },
  "miner": "0xbb7B8287f3F0a933474a79eAe42CBCa977791171",
  "extraData": "0x476574682f4c5649562f76312e302e312f6c696e75782f676f312e342e32",
  "transactions": [
    {
      "hash": "0x92116dfc55d245758b857a1fdb811262aaa935576c37c8c17f000005fa1e92eb",
      "blockHash": "0xcabb5cc391a4b515932647e39919b729d992fce5307ae9de0f2d389048d7b24b",
      "blockNumber": 52620,
      "transactionIndex": 0,
      "confirmations": null,
      "from": "0x54dAeb3E8a6BBC797E4aD2b0339f134b186e4637",
      "gasPrice": {
        "_hex": "0xe1780dfbb"
      },
      "gasLimit": {
        "_hex": "0x7a120"
      },
      "to": "0xBAA54d6E90c3F4d7Ebec11bD180134C7eD8eBb52",
      "value": {
        "_hex": "0x16345785d8a0000"
      },
      "nonce": 803,
      "data": "0x",
      "r": "0x9c86ce8c3952ef7ebc97d2fcf32681164d8ded1b28abaca3ca1f8887db1c8059",
      "s": "0x0550bf9a5b7c134c0d20699e4c9035b98abea25c1c9bdc7dd6277cdc3dd77240",
      "v": 28,
      "creates": null,
      "raw": "0xf86f820323850e1780dfbb8307a12094baa54d6e90c3f4d7ebec11bd180134c7ed8ebb5288016345785d8a0000801ca09c86ce8c3952ef7ebc97d2fcf32681164d8ded1b28abaca3ca1f8887db1c8059a00550bf9a5b7c134c0d20699e4c9035b98abea25c1c9bdc7dd6277cdc3dd77240",
      "networkId": 0,
      "chainId": 0
    },
    {
      "hash": "0x8ce0519488a1a5c862704751ac910e1dedb6842c6b71f1b96b19eaa71dcc38ef",
      "blockHash": "0xcabb5cc391a4b515932647e39919b729d992fce5307ae9de0f2d389048d7b24b",
      "blockNumber": 52620,
      "transactionIndex": 1,
      "confirmations": null,
      "from": "0x54dAeb3E8a6BBC797E4aD2b0339f134b186e4637",
      "gasPrice": {
        "_hex": "0xd8bd64e50"
      },
      "gasLimit": {
        "_hex": "0x7a120"
      },
      "to": "0xBAA54d6E90c3F4d7Ebec11bD180134C7eD8eBb52",
      "value": {
        "_hex": "0x16345785d8a0000"
      },
      "nonce": 804,
      "data": "0x",
      "r": "0x5d6343c83d1a3e4e2201679ca6a8eb5858584161f0da5e61c530759b18e15a2b",
      "s": "0x37209cac916423960b9baceccbeb810d8d8a1c22a50d0f6989270a3133760367",
      "v": 27,
      "creates": null,
      "raw": "0xf86f820324850d8bd64e508307a12094baa54d6e90c3f4d7ebec11bd180134c7ed8ebb5288016345785d8a0000801ba05d6343c83d1a3e4e2201679ca6a8eb5858584161f0da5e61c530759b18e15a2ba037209cac916423960b9baceccbeb810d8d8a1c22a50d0f6989270a3133760367",
      "networkId": 0,
      "chainId": 0
    },
    {
      "hash": "0x47a78c93e902cac9e8b78cf79750d7d3808417aa9649fdc04bf98fd8812edfa9",
      "blockHash": "0xcabb5cc391a4b515932647e39919b729d992fce5307ae9de0f2d389048d7b24b",
      "blockNumber": 52620,
      "transactionIndex": 2,
      "confirmations": null,
      "from": "0x32Be343B94f860124dC4fEe278FDCBD38C102D88",
      "gasPrice": {
        "_hex": "0xdd0cefaeb"
      },
      "gasLimit": {
        "_hex": "0x5208"
      },
      "to": "0x57Dd9471CBFa262709F5f486bCb774c5f527B8f8",
      "value": {
        "_hex": "0x836c32d366f30000"
      },
      "nonce": 17,
      "data": "0x",
      "r": "0x573e32ac947b6cbb3be47accfff90933d4a7835f0b368786d55c9f294f09fd7b",
      "s": "0x4f969dd282620963d5ae4f943de421a954f6a66a7af349ea2aff20ddbd3e3f2d",
      "v": 28,
      "creates": null,
      "raw": "0xf86c11850dd0cefaeb8252089457dd9471cbfa262709f5f486bcb774c5f527b8f888836c32d366f30000801ca0573e32ac947b6cbb3be47accfff90933d4a7835f0b368786d55c9f294f09fd7ba04f969dd282620963d5ae4f943de421a954f6a66a7af349ea2aff20ddbd3e3f2d",
      "networkId": 0,
      "chainId": 0
    }
  ]
}