{
  "hash": "0x1cf13247f0195f6ffc9afa7957278412814ad3fdedc574e6c90aae9b6f2bd6d1",
  "parentHash": "0x5e6a1c568c6fd97ea514e4969a88769f72f54c7bf47324c0ce300e329796ffa6",
  "number": 74668,
  "timestamp": 1439390243,
  "nonce": "0x700e830bff780662",
  "difficulty": 2197749304301,
  "gasLimit": {
    "_hex": "0x2fe3db"
  },
  "gasUsed": {
    "_hex": "0x5208"
  },
  "miner": "0x9746c7e1ef2bd21FF3997fa467593a89cb852BD0",
  "extraData": "0x476574682f76312e302e312f77696e646f77732f676f312e342e32",
  "transactions": [
    {
      "hash": "0x1fca5538035dd95224959bbb085c5679daa783a7f2102c72f5595dd1caca822e",
      "blockHash": "0x1cf13247f0195f6ffc9afa7957278412814ad3fdedc574e6c90aae9b6f2bd6d1",
      "blockNumber": 74668,
      "transactionIndex": 0,
      "confirmations": null,
      "from": "0x6E8A26689f7A2FdEfd009CBaaA5310253450DABa",
      "gasPrice": {
        "_hex": "0xcbe2b5222"
      },
      "gasLimit": {
        "_hex": "0x15f90"
      },
      "to": "0xd6986162E8B905e6a771C3BCD1b2baa2B0bb386F",
      "value": {
        "_hex": "0x6eb271550533a80000"
      },
      "nonce": 8,
      "data": "0x",
      "r": "0xcca71c07d45d14fcb197a039e10719169678d5248814b934aa14281025236bcb",
      "s": "0x4f3b8cdc05f3f038556bed426f8a07314346b3addbdb3f3c81ae5262d5c41527",
      "v": 28,
      "creates": null,
      "raw": "0xf86e08850cbe2b522283015f9094d6986162e8b905e6a771c3bcd1b2baa2b0bb386f896eb271550533a80000801ca0cca71c07d45d14fcb197a039e10719169678d5248814b934aa14281025236bcba04f3b8cdc05f3f038556bed426f8a07314346b3addbdb3f3c81ae5262d5c41527",
      "networkId": 0,
      "chainId": 0
    }
  ]
}