{
  "hash": "0x76f7d55c35966946be61fca0e58f5a82e6f07fb510fb2db9c20f9d4e13aa3e15",
  "parentHash": "0x2ba04dcb09096e1db08ba9bc29b5ea005bf3b1dcee389613a81f8981f3189a88",
  "number": 68216,
  "timestamp": 1439284361,
  "nonce": "0x6f4c6c712f383e31",
  "difficulty": 1981215877668,
  "gasLimit": {
    "_hex": "0x2fefd8"
  },
  "gasUsed": {
    "_hex": "0x5208"
  },
  "miner": "0xf927a40C8B7F6E07c5af7FA2155B4864a4112B13",
  "extraData": "0x",
  "transactions": [
    {
      "hash": "0xd12b0c088233e79beefa93e6efe3eede2086c367362f8f1d6c0b1e8348da5b38",
      "blockHash": "0x76f7d55c35966946be61fca0e58f5a82e6f07fb510fb2db9c20f9d4e13aa3e15",
      "blockNumber": 68216,
      "transactionIndex": 0,
      "confirmations": null,
      "from": "0xC8F251AeD1F385B3529B883B541FCD8E09Da5a44",
      "gasPrice": {
        "_hex": "0xba43b7400"
      },
      "gasLimit": {
        "_hex": "0x5208"
      },
      "to": "0x6747f922385c9a6F9cfDf095F34345257DD597bE",
      "value": {
        "_hex": "0x36ef271c4dd000"
      },
      "nonce": 1,
      "data": "0x",
      "r": "0x7f0faf2f225e8e30e8e61ef00c25f2d8675e8ea8ae4ac6814e3642be1c43d405",
      "s": "0x5d701d1d7ea82d0407eb87ea9074d374c8b1c8004c15fe4d8c721105f9379cba",
      "v": 27,
      "creates": null,
      "raw": "0xf86b01850ba43b7400825208946747f922385c9a6f9cfdf095f34345257dd597be8736ef271c4dd000801ba07f0faf2f225e8e30e8e61ef00c25f2d8675e8ea8ae4ac6814e3642be1c43d405a05d701d1d7ea82d0407eb87ea9074d374c8b1c8004c15fe4d8c721105f9379cba",
      "networkId": 0,
      "chainId": 0
    }
  ]
}