{
  "hash": "0xb8e56aabfea3bdcd2706a67c71fb4f25ce2a152d99d9961c6a9e2575bced96ce",
  "parentHash": "0xaff657b47a3ef3160e4971adad2eccf78f7dbf5a3a7485cc7902c904628d5a0b",
  "number": 80998,
  "timestamp": 1439494334,
  "nonce": "0x28ac4ddb4dd99b9b",
  "difficulty": 2449917148205,
  "gasLimit": {
    "_hex": "0x2fefd8"
  },
  "gasUsed": {
    "_hex": "0xa410"
  },
  "miner": "0xa50ec0D39fa913E62f1Bae7074E6F36caA71855b",
  "extraData": "0xd783010001844765746887676f312e342e32856c696e7578",
  "transactions": [
    {
      "hash": "0x9425adee1afde887177fc8d3edb2f8e157f1375617a31654deaa16d72733a845",
      "blockHash": "0xb8e56aabfea3bdcd2706a67c71fb4f25ce2a152d99d9961c6a9e2575bced96ce",
      "blockNumber": 80998,
      "transactionIndex": 0,
      "confirmations": null,
      "from": "0x2910543Af39abA0Cd09dBb2D50200b3E800A63D2",
      "gasPrice": {
        "_hex": "0xdb691a352"
      },
      "gasLimit": {
        "_hex": "0x5208"
      },
      "to": "0x42f5841AFCCfA58245df34AF90eC8f8c7F765515",
      "value": {
        "_hex": "0x1ab9ae148023b38000"
      },
      "nonce": 426,
      "data": "0x",
      "r": "0xb4b825a738c3a4d19cdb8abb0772e329765c6f50c50de0e3af55e7724c0626ef",
      "s": "0x0831ac1d40959a34d0e09f9059ef111f3278fe48ea3de918dbdc54f954070a90",
      "v": 28,
      "creates": null,
      "raw": "0xf86f8201aa850db691a3528252089442f5841afccfa58245df34af90ec8f8c7f765515891ab9ae148023b38000801ca0b4b825a738c3a4d19cdb8abb0772e329765c6f50c50de0e3af55e7724c0626efa00831ac1d40959a34d0e09f9059ef111f3278fe48ea3de918dbdc54f954070a90",
      "networkId": 0,
      "chainId": 0
    },
    {
      "hash": "0xf53d386d5d6792bf0786b3800177aaa0bb9f1b3189fce3aac46fe46c319e6355",
      "blockHash": "0xb8e56aabfea3bdcd2706a67c71fb4f25ce2a152d99d9961c6a9e2575bced96ce",
      "blockNumber": 80998,
      "transactionIndex": 1,
      "confirmations": null,
      "from": "0x2910543Af39abA0Cd09dBb2D50200b3E800A63D2",
      "gasPrice": {
        "_hex": "0xdb691a352"
      },
      "gasLimit": {
        "_hex": "0x5208"
      },
      "to": "0x9b18C7Fe0E96C2b7B8868a67b3e2Ef83CE8928cB",
      "value": {
        "_hex": "0x8eb5c8ee4d9864000"
      },
      "nonce": 427,
      "data": "0x",
      "r": "0xe2e7e3507c129e4552a3950b08550748317d87f450b7ff54e132be3a04aab9a8",
      "s": "0x4e5307c3d081ad2b9baba45233e01f5c95dd4a6e92b780ad5b8e64b5f686730c",
      "v": 27,
      "creates": null,
      "raw": "0xf86f8201ab850db691a352825208949b18c7fe0e96c2b7b8868a67b3e2ef83ce8928cb8908eb5c8ee4d9864000801ba0e2e7e3507c129e4552a3950b08550748317d87f450b7ff54e132be3a04aab9a8a04e5307c3d081ad2b9baba45233e01f5c95dd4a6e92b780ad5b8e64b5f686730c",
      "networkId": 0,
      "chainId": 0
    }
  ]
}