{
  "hash": "0x9ac6976543ff90fcf28f05bb618b7096d214ec9bbf321cbb36994529b56d7c67",
  "parentHash": "0xdfe5d55df6d1d27951774beff248e2a11a56d3e371c13928459efa6e5b63ca0a",
  "number": 109192,
  "timestamp": 1439952413,
  "nonce": "0xe60ff16f17220317",
  "difficulty": 4460372710948,
  "gasLimit": {
    "_hex": "0x2fefd8"
  },
  "gasUsed": {
    "_hex": "0x5208"
  },
  "miner": "0xe6A7a1d47ff21B6321162AEA7C6CB457D5476Bca",
  "extraData": "0x476574682f76312e302e312d38326566323666362f6c696e75782f676f312e34",
  "transactions": [
    {
      "hash": "0xb48f898784aaca2b43037e7abed82f6c3e0b936d0b467efe5c279d76e8b9f04d",
      "blockHash": "0x9ac6976543ff90fcf28f05bb618b7096d214ec9bbf321cbb36994529b56d7c67",
      "blockNumber": 109192,
      "transactionIndex": 0,
      "confirmations": null,
      "from": "0xb1abce2918E21ddb93AA452731a12672A3d9F75a",
      "gasPrice": {
        "_hex": "0xd2756ec4e"
      },
      "gasLimit": {
        "_hex": "0x5208"
      },
      "to": "0x32Be343B94f860124dC4fEe278FDCBD38C102D88",
      "value": {
        "_hex": "0x8ac2ec0097642000"
      },
      "nonce": 142,
      "data": "0x",
      "r": "0x41cb76ccee0080ad02ccb01b7f30fe706fbfa1d46ec2be9317ee39bd44ae002f",
      "s": "0x170e145ae4c433ef69d7a199d7b8935d49574f335a610696f5520c6f4fdde7a0",
      "v": 28,
      "creates": null,
      "raw": "0xf86d818e850d2756ec4e8252089432be343b94f860124dc4fee278fdcbd38c102d88888ac2ec0097642000801ca041cb76ccee0080ad02ccb01b7f30fe706fbfa1d46ec2be9317ee39bd44ae002fa0170e145ae4c433ef69d7a199d7b8935d49574f335a610696f5520c6f4fdde7a0",
      "networkId": 0,
      "chainId": 0
    }
  ]
}