{
  "hash": "0x46e45b60de3f697966891933cb09e1010e50d00f7b85f6817387c3a45a26080d",
  "parentHash": "0x4f8b8b2620bd11f3afe8e5a0f5c9c42d98cc8b08b940ac99bc79d4dab36ef120",
  "number": 51365,
  "timestamp": 1439003646,
  "nonce": "0x82e2e623550382e9",
  "difficulty": 1571189215311,
  "gasLimit": {
    "_hex": "0xa86e5"
  },
  "gasUsed": {
    "_hex": "0x546c"
  },
  "miner": "0xE4Dd37247830493DE1Df7c758DD746DCdE19419e",
  "extraData": "0x476574682f76312e302e312f77696e646f77732f676f312e342e32",
  "transactions": [
    {
      "hash": "0x18a73171ed894f7be80a326cf72383a9e64e6ecdb48c79ca0c4544f148641071",
      "blockHash": "0x46e45b60de3f697966891933cb09e1010e50d00f7b85f6817387c3a45a26080d",
      "blockNumber": 51365,
      "transactionIndex": 0,
      "confirmations": null,
      "from": "0x4Ddda7586b2237b053A7F3289Cf460DC57D37A09",
      "gasPrice": {
        "_hex": "0x110c8f7d8de"
      },
      "gasLimit": {
        "_hex": "0xc350"
      },
      "to": "0x2910543Af39abA0Cd09dBb2D50200b3E800A63D2",
      "value": {
        "_hex": "0x10f0b8d1f64fb960000"
      },
      "nonce": 1,
      "data": "0x454e55564159363430",
      "r": "0xf2846e759f811137458c135ed7c3dc155f0d21bf18c0c24e7b116185b59de6e0",
      "s": "0xf3082a8388456f35ed30b3d4735ecffa5bebb9f01eb97742d4e6bc2fad1e225a",
      "v": 28,
      "creates": null,
      "raw": "0xf87801860110c8f7d8de82c350942910543af39aba0cd09dbb2d50200b3e800a63d28a010f0b8d1f64fb96000089454e555641593634301ca0f2846e759f811137458c135ed7c3dc155f0d21bf18c0c24e7b116185b59de6e0a0f3082a8388456f35ed30b3d4735ecffa5bebb9f01eb97742d4e6bc2fad1e225a",
      "networkId": 0,
      "chainId": 0
    }
  ]
}