{
  "hash": "0xf98ae414cd89976b7a679816961640571446d56f647beffafb99970222325daf",
  "parentHash": "0x4b4cf2943a4f53cbf494192ead062d792b1a62a45288551d69c3b6a49b839a6e",
  "number": 94454,
  "timestamp": 1439708660,
  "nonce": "0x6551d85e30c19be1",
  "difficulty": 3483250047004,
  "gasLimit": {
    "_hex": "0x2fefd8"
  },
  "gasUsed": {
    "_hex": "0x5208"
  },
  "miner": "0xe6A7a1d47ff21B6321162AEA7C6CB457D5476Bca",
  "extraData": "0x476574682f76312e302e312d38326566323666362f6c696e75782f676f312e34",
  "transactions": [
    {
      "hash": "0xbdcf2f86d9e0f6af11054b94977bbc54024c24e0c18057a55c0b0ebb3297c318",
      "blockHash": "0xf98ae414cd89976b7a679816961640571446d56f647beffafb99970222325daf",
      "blockNumber": 94454,
      "transactionIndex": 0,
      "confirmations": null,
      "from": "0x5a0f0935E8E5591B2f9f2d55f29C626B50292088",
      "gasPrice": {
        "_hex": "0xdfbc51388"
      },
      "gasLimit": {
        "_hex": "0x5208"
      },
      "to": "0x32Be343B94f860124dC4fEe278FDCBD38C102D88",
      "value": {
        "_hex": "0x15af073a27563e0000"
      },
      "nonce": 21,
      "data": "0x",
      "r": "0x9d577e9f0a6b2e71d7a642789e933a4fa93f353135142c0c944d810d4849d10f",
      "s": "0x48240f8b0dac4bbe229b8613a099ba770765b405a6c3b5da6cbd54bc00c02fd4",
      "v": 28,
      "creates": null,
      "raw": "0xf86d15850dfbc513888252089432be343b94f860124dc4fee278fdcbd38c102d888915af073a27563e0000801ca09d577e9f0a6b2e71d7a642789e933a4fa93f353135142c0c944d810d4849d10fa048240f8b0dac4bbe229b8613a099ba770765b405a6c3b5da6cbd54bc00c02fd4",
      "networkId": 0,
      "chainId": 0
    }
  ]
}