{
  "hash": "0xdff0e0c58fbdd6949a98ec24b4f7f2ee428f9eb24cdbe108189147688c355d5c",
  "parentHash": "0x76c25013a63cfa46846641c556c71fe6c0908221b3045b8afd04d5ae8d31780d",
  "number": 109443,
  "timestamp": 1439956698,
  "nonce": "0x063791e619b4f068",
  "difficulty": 4449363276639,
  "gasLimit": {
    "_hex": "0x2fefd8"
  },
  "gasUsed": {
    "_hex": "0x5208"
  },
  "miner": "0xdd2F1e6e498202e86D8f5442Af596580A4f03c2C",
  "extraData": "0x476574682f76312e302e312d38326566323666362f6c696e75782f676f312e34",
  "transactions": [
    {
      "hash": "0x3210ba59f976073006d9fdf633de144a20808d519505137e2c59400d0a2fff72",
      "blockHash": "0xdff0e0c58fbdd6949a98ec24b4f7f2ee428f9eb24cdbe108189147688c355d5c",
      "blockNumber": 109443,
      "transactionIndex": 0,
      "confirmations": null,
      "from": "0x462d20cE24cAaB2465A6fA8775bcF998DA9eca61",
      "gasPrice": {
        "_hex": "0xcc28e6971"
      },
      "gasLimit": {
        "_hex": "0x30d40"
      },
      "to": "0x120A270bbC009644e35F0bB6ab13f95b8199c4ad",
      "value": {
        "_hex": "0x1c304c2c2ee7d66020"
      },
      "nonce": 0,
      "data": "0x",
      "r": "0x6e2938fd954e25d3f22df3e8979638f1a1b487c58bb6e46ec686f26b12dcb894",
      "s": "0x372fb177a1bc4ec9bfe4fee5668a3380bbbdea5d042df3e4c430afbf47972ab6",
      "v": 27,
      "creates": null,
      "raw": "0xf86e80850cc28e697183030d4094120a270bbc009644e35f0bb6ab13f95b8199c4ad891c304c2c2ee7d66020801ba06e2938fd954e25d3f22df3e8979638f1a1b487c58bb6e46ec686f26b12dcb894a0372fb177a1bc4ec9bfe4fee5668a3380bbbdea5d042df3e4c430afbf47972ab6",
      "networkId": 0,
      "chainId": 0
    }
  ]
}