{
  "hash": "0x02ca6b88fbf7f0915e621cdb062bf40f68d7c52b3c6e188e606dd6e732884caa",
  "parentHash": "0xe44dbf8ade4a66d63449413e97ed2793b7e6e836a8973530ad2dbe96906d67d6",
  "number": 60338,
  "timestamp": 1439153843,
  "nonce": "0x581c0fe6d86e0447",
  "difficulty": 1741535236440,
  "gasLimit": {
    "_hex": "0x2fefd8"
  },
  "gasUsed": {
    "_hex": "0x23e38"
  },
  "miner": "0xbb7B8287f3F0a933474a79eAe42CBCa977791171",
  "extraData": "0x476574682f4c5649562f76312e302e312f6c696e75782f676f312e342e32",
  "transactions": [
    {
      "hash": "0xbb8383a392da5033f01a0dfd9b9bd97a6c3cde1b6151f3f0275760d59ca58b4a",
      "blockHash": "0x02ca6b88fbf7f0915e621cdb062bf40f68d7c52b3c6e188e606dd6e732884caa",
      "blockNumber": 60338,
      "transactionIndex": 0,
      "confirmations": null,
      "from": "0x8F586E3212291c58DCc78980a9c3432a3aFd3b6E",
      "gasPrice": {
        "_hex": "0xcc38de527"
      },
      "gasLimit": {
        "_hex": "0x5208"
      },
      "to": "0x32Be343B94f860124dC4fEe278FDCBD38C102D88",
      "value": {
        "_hex": "0xad778e1d7ef0b0000"
      },
      "nonce": 1,
      "data": "0x",
      "r": "0xe3a09d7e7d7ef5ffb0959bac441de04f48a92203a55181728f9df1cb9856909e",
      "s": "0x75cf749e8ec4ea6c4b1cdf681fc47014afe850a0df22ed87402f693d43778598",
      "v": 28,
      "creates": null,
      "raw": "0xf86d01850cc38de5278252089432be343b94f860124dc4fee278fdcbd38c102d88890ad778e1d7ef0b0000801ca0e3a09d7e7d7ef5ffb0959bac441de04f48a92203a55181728f9df1cb9856909ea075cf749e8ec4ea6c4b1cdf681fc47014afe850a0df22ed87402f693d43778598",
      "networkId": 0,
      "chainId": 0
    },
    {
      "hash": "0xa10a0527f7c5397b33d9c0a506b1a6d225d0c989987a9abeeef70483f248ccd8",
      "blockHash": "0x02ca6b88fbf7f0915e621cdb062bf40f68d7c52b3c6e188e606dd6e732884caa",
      "blockNumber": 60338,
      "transactionIndex": 1,
      "confirmations": null,
      "from": "0xf209Ca113565d1890FB6F6Cd70051B931dd81bb1",
      "gasPrice": {
        "_hex": "0xcc38de527"
      },
      "gasLimit": {
        "_hex": "0x5208"
      },
      "to": "0x32Be343B94f860124dC4fEe278FDCBD38C102D88",
      "value": {
        "_hex": "0x2b5cdd493da732000"
      },
      "nonce": 1,
      "data": "0x",
      "r": "0xb39d4c89d1796ab52271c1fa7096650bac8472fef7497c71a390f3777d3202cc",
      "s": "0x45c6a5ed09042b2ea2ab3c185de811f715fab4e19a94c0bc234a569656d425d9",
      "v": 28,
      "creates": null,
      "raw": "0xf86d01850cc38de5278252089432be343b94f860124dc4fee278fdcbd38c102d888902b5cdd493da732000801ca0b39d4c89d1796ab52271c1fa7096650bac8472fef7497c71a390f3777d3202cca045c6a5ed09042b2ea2ab3c185de811f715fab4e19a94c0bc234a569656d425d9",
      "networkId": 0,
      "chainId": 0
    },
    {
      "hash": "0x2a2a68caf1d4685006087082fbc3d1b098b3d10499595f04d1041eedb83f8df7",
      "blockHash": "0x02ca6b88fbf7f0915e621cdb062bf40f68d7c52b3c6e188e606dd6e732884caa",
      "blockNumber": 60338,
      "transactionIndex": 2,
      "confirmations": null,
      "from": "0xc955d372Fe1c428D17CD86E05d26F0206F3677b1",
      "gasPrice": {
        "_hex": "0xcc38de527"
      },
      "gasLimit": {
        "_hex": "0x5208"
      },
      "to": "0x32Be343B94f860124dC4fEe278FDCBD38C102D88",
      "value": {
        "_hex": "0x30c9fe388edc5c0000"
      },
      "nonce": 3,
      "data": "0x",
      "r": "0x05e55d8a3a8b790af3504405f891dbbb58007ed79c439281657476f0a61a9709",
      "s": "0x722dd0a09a432e33fd0c60c9567c3b46f8bb9ade7c617a305fc8aeeb4533b676",
      "v": 28,
      "creates": null,
      "raw": "0xf86d03850cc38de5278252089432be343b94f860124dc4fee278fdcbd38c102d888930c9fe388edc5c0000801ca005e55d8a3a8b790af3504405f891dbbb58007ed79c439281657476f0a61a9709a0722dd0a09a432e33fd0c60c9567c3b46f8bb9ade7c617a305fc8aeeb4533b676",
      "networkId": 0,
      "chainId": 0
    },
    {
      "hash": "0x88bd94e10a97939f176b13633bb4278ab7ab6cd203dbdeadf2fb70972b29010a",
      "blockHash": "0x02ca6b88fbf7f0915e621cdb062bf40f68d7c52b3c6e188e606dd6e732884caa",
      "blockNumber": 60338,
      "transactionIndex": 3,
      "confirmations": null,
      "from": "0x71616E05EFEA08184F8Bca85F6df1E783EAdEb95",
      "gasPrice": {
        "_hex": "0xcc38de527"
      },
      "gasLimit": {
        "_hex": "0x5208"
      },
      "to": "0x32Be343B94f860124dC4fEe278FDCBD38C102D88",
      "value": {
        "_hex": "0x6aae1edce95f70000"
      },
      "nonce": 1,
      "data": "0x",
      "r": "0x9f55b4cef99de337209cdefa630a01dfc4363d7def42841d75dc20aceabe556b",
      "s": "0x433112b9f0f6ae7a56deebb44374b178ccd5e16a3ff76722247e1b40f2fb9431",
      "v": 27,
      "creates": null,
      "raw": "0xf86d01850cc38de5278252089432be343b94f860124dc4fee278fdcbd38c102d888906aae1edce95f70000801ba09f55b4cef99de337209cdefa630a01dfc4363d7def42841d75dc20aceabe556ba0433112b9f0f6ae7a56deebb44374b178ccd5e16a3ff76722247e1b40f2fb9431",
      "networkId": 0,
      "chainId": 0
    },
    {
      "hash": "0xe6843a02a538701d2d25528259ac881a34e60fe16fc00f74f97ca6d6f10cc672",
      "blockHash": "0x02ca6b88fbf7f0915e621cdb062bf40f68d7c52b3c6e188e606dd6e732884caa",
      "blockNumber": 60338,
      "transactionIndex": 4,
      "confirmations": null,
      "from": "0xA6746D3f18AE6b6F140283BDD39cE2227a55A293",
      "gasPrice": {
        "_hex": "0xcc38de527"
      },
      "gasLimit": {
        "_hex": "0x5208"
      },
      "to": "0x32Be343B94f860124dC4fEe278FDCBD38C102D88",
      "value": {
        "_hex": "0x3635b3d343078c0000"
      },
      "nonce": 0,
      "data": "0x",
      "r": "0x2ef6300b47918c58f29fc310b209f0f8fa86b95b64d798ca52718e59540fe3d9",
      "s": "0x685534050a1be1aeb6b31d28a6f674618757d89ce69caeccd908f934ffc4ee4a",
      "v": 27,
      "creates": null,
      "raw": "0xf86d80850cc38de5278252089432be343b94f860124dc4fee278fdcbd38c102d88893635b3d343078c0000801ba02ef6300b47918c58f29fc310b209f0f8fa86b95b64d798ca52718e59540fe3d9a0685534050a1be1aeb6b31d28a6f674618757d89ce69caeccd908f934ffc4ee4a",
      "networkId": 0,
      "chainId": 0
    },
    {
      "hash": "0xc00aedcfaf6975a2b3b23afd9da5349488ab60052b53ca2518152c5920e458e3",
      "blockHash": "0x02ca6b88fbf7f0915e621cdb062bf40f68d7c52b3c6e188e606dd6e732884caa",
      "blockNumber": 60338,
      "transactionIndex": 5,
      "confirmations": null,
      "from": "0xE61f07672D088d1df25512d8a9A7A9B9a47A9654",
      "gasPrice": {
        "_hex": "0xcc38de527"
      },
      "gasLimit": {
        "_hex": "0x5208"
      },
      "to": "0x32Be343B94f860124dC4fEe278FDCBD38C102D88",
      "value": {
        "_hex": "0x8ae692ed5a749000"
      },
      "nonce": 0,
      "data": "0x",
      "r": "0xc091569d1318dd822adefa41cdfe7ad80d2f06806ac9d23c1d3d358ce140bb20",
      "s": "0x43e3db279198195973260c181d42ae2a419145134fc0d170a70abb7c44fc932f",
      "v": 28,
      "creates": null,
      "raw": "0xf86c80850cc38de5278252089432be343b94f860124dc4fee278fdcbd38c102d88888ae692ed5a749000801ca0c091569d1318dd822adefa41cdfe7ad80d2f06806ac9d23c1d3d358ce140bb20a043e3db279198195973260c181d42ae2a419145134fc0d170a70abb7c44fc932f",
      "networkId": 0,
      "chainId": 0
    },
    {
      "hash": "0x243388c6e73a0984a09f277afd1365d6ecf43aa27d6d00d6871f88b64e910e09",
      "blockHash": "0x02ca6b88fbf7f0915e621cdb062bf40f68d7c52b3c6e188e606dd6e732884caa",
      "blockNumber": 60338,
      "transactionIndex": 6,
      "confirmations": null,
      "from": "0x03aEF6616c649a6659E4Ba706b4fe181cDAA68F7",
      "gasPrice": {
        "_hex": "0xcc38de527"
      },
      "gasLimit": {
        "_hex": "0x5208"
      },
      "to": "0x32Be343B94f860124dC4fEe278FDCBD38C102D88",
      "value": {
        "_hex": "0x8ab14881b2d31000"
      },
      "nonce": 0,
      "data": "0x",
      "r": "0x548d25b316a69438c1b2114db3e3df6aa7d4fb58f1cb07655fb82affa2a133b9",
      "s": "0x7f6bbfc5ca560d2991cccb443853acff33732233deb690cc30e501d0b2295e4e",
      "v": 28,
      "creates": null,
      "raw": "0xf86c80850cc38de5278252089432be343b94f860124dc4fee278fdcbd38c102d88888ab14881b2d31000801ca0548d25b316a69438c1b2114db3e3df6aa7d4fb58f1cb07655fb82affa2a133b9a07f6bbfc5ca560d2991cccb443853acff33732233deb690cc30e501d0b2295e4e",
      "networkId": 0,
      "chainId": 0
    }
  ]
}