{
  "hash": "0xc72033ebcf4adc8e04639a966efe39f697f20db1a05277de72619f3ee7fbf8af",
  "parentHash": "0xeb12746a17ec3f4fc2232f470d9080b05d1463146b2250d13005b9549a91ec18",
  "number": 119036,
  "timestamp": 1440135626,
  "nonce": "0xaca48f5052cf1b0a",
  "difficulty": 4420471360331,
  "gasLimit": {
    "_hex": "0x2fefd8"
  },
  "gasUsed": {
    "_hex": "0x520c"
  },
  "miner": "0x580992B51e3925e23280EfB93d3047C82f17E038",
  "extraData": "0x",
  "transactions": [
    {
      "hash": "0x5fbd004e5af409a242ae36ac01372695e64332ca5e69b7c205427fa2cefa43fe",
      "blockHash": "0xc72033ebcf4adc8e04639a966efe39f697f20db1a05277de72619f3ee7fbf8af",
      "blockNumber": 119036,
      "transactionIndex": 0,
      "confirmations": null,
      "from": "0xb9836ec1f42Bd48331bceaedb74a6Bcdc22832bD",
      "gasPrice": {
        "_hex": "0xcf18e842e"
      },
      "gasLimit": {
        "_hex": "0x7530"
      },
      "to": "0x7cB57B5A97eAbe94205C07890BE4c1aD31E486A8",
      "value": {
        "_hex": "0x71afd498d0000"
      },
      "nonce": 25,
      "data": "0x00",
      "r": "0xf474fdf00abfbff3cbbfad83d0f29ff9af8f5defbc8770610485936e11d10a1c",
      "s": "0xb93c0120142832fdded57a76664e3e144a2ab44bf87f1ecc75bc3c5ac63e7ecb",
      "v": 28,
      "creates": null,
      "raw": "0xf86b19850cf18e842e827530947cb57b5a97eabe94205c07890be4c1ad31e486a887071afd498d0000001ca0f474fdf00abfbff3cbbfad83d0f29ff9af8f5defbc8770610485936e11d10a1ca0b93c0120142832fdded57a76664e3e144a2ab44bf87f1ecc75bc3c5ac63e7ecb",
      "networkId": 0,
      "chainId": 0
    }
  ]
}