{
  "hash": "0x66aaea224f7b6ed6991815b693e7cc1b0c708ec24e2d01a9b23f0b9caef2df6f",
  "parentHash": "0x6387e3aea86df091230ac05f0fea992e65ae349c32fa29f15478635a83db70d4",
  "number": 70556,
  "timestamp": 1439321671,
  "nonce": "0xf4fc406dfa4e746d",
  "difficulty": 2137428919241,
  "gasLimit": {
    "_hex": "0x2fefd8"
  },
  "gasUsed": {
    "_hex": "0xa410"
  },
  "miner": "0xEF247E639d49461D25F57e9362CadE3120910Ce0",
  "extraData": "0x476574682f76312e302e312f6c696e75782f676f312e342e32",
  "transactions": [
    {
      "hash": "0x2efae1d5279ddd74ac7eb1be413c39a0af594eaae40669403e53aadd4f1c50ac",
      "blockHash": "0x66aaea224f7b6ed6991815b693e7cc1b0c708ec24e2d01a9b23f0b9caef2df6f",
      "blockNumber": 70556,
      "transactionIndex": 0,
      "confirmations": null,
      "from": "0x314c7Daa4825ffC0293819119c5FDCC0CcF19827",
      "gasPrice": {
        "_hex": "0xe030ddaf3"
      },
      "gasLimit": {
        "_hex": "0x5208"
      },
      "to": "0x32Be343B94f860124dC4fEe278FDCBD38C102D88",
      "value": {
        "_hex": "0x105e4711afa340000000"
      },
      "nonce": 7,
      "data": "0x",
      "r": "0xad291cfda1fda3d2e638d0b09714313c51e2617cb86c172f7dcb9917f2ff0e8f",
      "s": "0x507744308d2b50e8d5a8d700f2c17052f9b0de022071c1e42e9ebdd380d79b02",
      "v": 28,
      "creates": null,
      "raw": "0xf86e07850e030ddaf38252089432be343b94f860124dc4fee278fdcbd38c102d888a105e4711afa340000000801ca0ad291cfda1fda3d2e638d0b09714313c51e2617cb86c172f7dcb9917f2ff0e8fa0507744308d2b50e8d5a8d700f2c17052f9b0de022071c1e42e9ebdd380d79b02",
      "networkId": 0,
      "chainId": 0
    },
    {
      "hash": "0xe517a8ed5b1d9c38f72ac15b57efb931de70d84976b40679f1febad8e409f928",
      "blockHash": "0x66aaea224f7b6ed6991815b693e7cc1b0c708ec24e2d01a9b23f0b9caef2df6f",
      "blockNumber": 70556,
      "transactionIndex": 1,
      "confirmations": null,
      "from": "0x50056353D06a71b1f427499419D04F81f5dE4F20",
      "gasPrice": {
        "_hex": "0xe030ddaf3"
      },
      "gasLimit": {
        "_hex": "0x5208"
      },
      "to": "0x32Be343B94f860124dC4fEe278FDCBD38C102D88",
      "value": {
        "_hex": "0xddc39484952d000"
      },
      "nonce": 0,
      "data": "0x",
      "r": "0x2dcb142a57cb4020e59f7818e3656c3724a299bd6b9fa2c0753d8862ed1ae754",
      "s": "0x537353bab40407d9d9e63e1cc7672a80fd6ca18a366bb0bc1c3a067f2a2a4084",
      "v": 27,
      "creates": null,
      "raw": "0xf86c80850e030ddaf38252089432be343b94f860124dc4fee278fdcbd38c102d88880ddc39484952d000801ba02dcb142a57cb4020e59f7818e3656c3724a299bd6b9fa2c0753d8862ed1ae754a0537353bab40407d9d9e63e1cc7672a80fd6ca18a366bb0bc1c3a067f2a2a4084",
      "networkId": 0,
      "chainId": 0
    }
  ]
}