{
  "hash": "0xc359581bec73af3c129f2c40644d21910ad91d444b2719586254dc81f8c6c960",
  "parentHash": "0x1b66848ed194ba938be2b630c4e463b5dc1df31c5b97ef760c67b823e3bf1853",
  "number": 71624,
  "timestamp": 1439339133,
  "nonce": "0x0f019fe39a4d83c1",
  "difficulty": 2183569074668,
  "gasLimit": {
    "_hex": "0x2fefd8"
  },
  "gasUsed": {
    "_hex": "0x93b2"
  },
  "miner": "0xa50ec0D39fa913E62f1Bae7074E6F36caA71855b",
  "extraData": "0x",
  "transactions": [
    {
      "hash": "0x5be92bd12466452262042c5b2c10eb85c778b22f2ea1fdc76d95535dbd9851a4",
      "blockHash": "0xc359581bec73af3c129f2c40644d21910ad91d444b2719586254dc81f8c6c960",
      "blockNumber": 71624,
      "transactionIndex": 0,
      "confirmations": null,
      "from": "0x17580B766f7453525ca4C6A88b01b50570EA088C",
      "gasPrice": {
        "_hex": "0xcec6d8d97"
      },
      "gasLimit": {
        "_hex": "0x61a80"
      },
      "to": "0x5Fe5B7546D1628f7348B023A0393de1FC825A4fD",
      "value": {
        "_hex": "0x53444835ec580000"
      },
      "nonce": 237,
      "data": "0xb595b8b50000000000000000000000000000000000000000000000000000000000000000",
      "r": "0x3151d90b36e7e77059aebcc5e31f4197c3341daa6c391f72672c77eec2a284d4",
      "s": "0x0b499c70a2aecdf75011cebacaa7723ca270eba7ad5e792cfde2b3ea2c08853b",
      "v": 27,
      "creates": null,
      "raw": "0xf89281ed850cec6d8d9783061a80945fe5b7546d1628f7348b023a0393de1fc825a4fd8853444835ec580000a4b595b8b500000000000000000000000000000000000000000000000000000000000000001ba03151d90b36e7e77059aebcc5e31f4197c3341daa6c391f72672c77eec2a284d4a00b499c70a2aecdf75011cebacaa7723ca270eba7ad5e792cfde2b3ea2c08853b",
      "networkId": 0,
      "chainId": 0
    }
  ]
}