{
  "hash": "0x141b9bd3532be5e5590f10bbf8638bd54d6303c5ef294df3cbf832e7c2d0cfaf",
  "parentHash": "0x2e5998ee9b34c1d85abe0621c902d55f4ca23da282e2a3a49d88c412c7995637",
  "number": 58913,
  "timestamp": 1439128857,
  "nonce": "0x0d9d7403f1e45390",
  "difficulty": 1708975292964,
  "gasLimit": {
    "_hex": "0x2fefd5"
  },
  "gasUsed": {
    "_hex": "0x5208"
  },
  "miner": "0xa50ec0D39fa913E62f1Bae7074E6F36caA71855b",
  "extraData": "0x",
  "transactions": [
    {
      "hash": "0x6742b342cf7d7275fb6b0bc77d85146e0e5ab15d008cb5d371815a6c6fb21103",
      "blockHash": "0x141b9bd3532be5e5590f10bbf8638bd54d6303c5ef294df3cbf832e7c2d0cfaf",
      "blockNumber": 58913,
      "transactionIndex": 0,
      "confirmations": null,
      "from": "0x32Be343B94f860124dC4fEe278FDCBD38C102D88",
      "gasPrice": {
        "_hex": "0xd72409b8f"
      },
      "gasLimit": {
        "_hex": "0x5208"
      },
      "to": "0x51e07ebFfb63C575d3aA5C7F25c5B6Fcae1Da362",
      "value": {
        "_hex": "0x19f39317a1fb0000"
      },
      "nonce": 100,
      "data": "0x",
      "r": "0x7d51e5dbd7336eafdb9b3514b5c4329c7565885ffbcdba73cc28dd5370b3cebf",
      "s": "0x4c378b76fa76eed50124fba9bf539e32a601ad448d517a7fa5e4d0f49220082b",
      "v": 28,
      "creates": null,
      "raw": "0xf86c64850d72409b8f8252089451e07ebffb63c575d3aa5c7f25c5b6fcae1da3628819f39317a1fb0000801ca07d51e5dbd7336eafdb9b3514b5c4329c7565885ffbcdba73cc28dd5370b3cebfa04c378b76fa76eed50124fba9bf539e32a601ad448d517a7fa5e4d0f49220082b",
      "networkId": 0,
      "chainId": 0
    }
  ]
}