{
  "hash": "0xa893c2f7d8cc7a26fecf1d04581db807723337ed5d7e404526cd62d5b32010ca",
  "parentHash": "0x29f550c5f825cc0b5fd16ee9df5ec795f3b09925f1c9d1fe8c4c9139645b3f89",
  "number": 86300,
  "timestamp": 1439576406,
  "nonce": "0x39aa0176e3fcb26c",
  "difficulty": 2851274026537,
  "gasLimit": {
    "_hex": "0x2fefd8"
  },
  "gasUsed": {
    "_hex": "0xa410"
  },
  "miner": "0x70137010922f2fC2964b3792907F79FBB75fEbe8",
  "extraData": "0x476574682f76312e302e302f6c696e75782f676f312e342e32",
  "transactions": [
    {
      "hash": "0x13eff46e7b2cd17b4dc36cd6dcfb732d0316295cdef46f7b8e8f8f0f561634db",
      "blockHash": "0xa893c2f7d8cc7a26fecf1d04581db807723337ed5d7e404526cd62d5b32010ca",
      "blockNumber": 86300,
      "transactionIndex": 0,
      "confirmations": null,
      "from": "0x32Be343B94f860124dC4fEe278FDCBD38C102D88",
      "gasPrice": {
        "_hex": "0xd9106704c"
      },
      "gasLimit": {
        "_hex": "0x5208"
      },
      "to": "0xCD1e66ED539dd92Fc40bBAa1FA16de8c02C14D45",
      "value": {
        "_hex": "0x55de6a779bbac0000"
      },
      "nonce": 753,
      "data": "0x",
      "r": "0x58a09cdb9926d22451cd0445729d4953ad7820ebc4d0bf47fb81ed6d2950d871",
      "s": "0x3a05be039a83f126a184da5cabfc394ae0e7ab40cc4b1e49e382c02f9bbd0aad",
      "v": 27,
      "creates": null,
      "raw": "0xf86f8202f1850d9106704c82520894cd1e66ed539dd92fc40bbaa1fa16de8c02c14d4589055de6a779bbac0000801ba058a09cdb9926d22451cd0445729d4953ad7820ebc4d0bf47fb81ed6d2950d871a03a05be039a83f126a184da5cabfc394ae0e7ab40cc4b1e49e382c02f9bbd0aad",
      "networkId": 0,
      "chainId": 0
    },
    {
      "hash": "0x490357f27f83fbc08559eb1978e1808db060f121d680af02f26eab1f1666de57",
      "blockHash": "0xa893c2f7d8cc7a26fecf1d04581db807723337ed5d7e404526cd62d5b32010ca",
      "blockNumber": 86300,
      "transactionIndex": 1,
      "confirmations": null,
      "from": "0x32Be343B94f860124dC4fEe278FDCBD38C102D88",
      "gasPrice": {
        "_hex": "0xd9106704c"
      },
      "gasLimit": {
        "_hex": "0x5208"
      },
      "to": "0x120A270bbC009644e35F0bB6ab13f95b8199c4ad",
      "value": {
        "_hex": "0x6c6b935b8bbd400000"
      },
      "nonce": 754,
      "data": "0x",
      "r": "0xe3573513464ef20de39952cc4c53de640567b0d95564e20668c4936e7d314bcc",
      "s": "0x1f4623452e4d7789dd242a660b7a7b7ce0b160a419d37eed8a6ff74b2710f5cb",
      "v": 28,
      "creates": null,
      "raw": "0xf86f8202f2850d9106704c82520894120a270bbc009644e35f0bb6ab13f95b8199c4ad896c6b935b8bbd400000801ca0e3573513464ef20de39952cc4c53de640567b0d95564e20668c4936e7d314bcca01f4623452e4d7789dd242a660b7a7b7ce0b160a419d37eed8a6ff74b2710f5cb",
      "networkId": 0,
      "chainId": 0
    }
  ]
}