{
  "hash": "0x9b297f59687761d19c2ce813b1ffa8c1c4c26658d9296a31491a8ad283670887",
  "parentHash": "0xce5cbcfc221d70db9e4a3278415c7c58c08f9b0206e571b8549431cdd91b207f",
  "number": 47986,
  "timestamp": 1438949497,
  "nonce": "0xfb9812a9798a7dda",
  "difficulty": 1458675111295,
  "gasLimit": {
    "_hex": "0x1137e"
  },
  "gasUsed": {
    "_hex": "0xfd44"
  },
  "miner": "0x94b7fDF01f4E5d76b2C31eEb846f91F427606C98",
  "extraData": "0x476574682f76312e302e312d38326566323666362f6c696e75782f676f312e34",
  "transactions": [
    {
      "hash": "0x12e1b4e9ea8a22a86957dfb7b1666f03e055131b6d75039a4519ffa4aafa090d",
      "blockHash": "0x9b297f59687761d19c2ce813b1ffa8c1c4c26658d9296a31491a8ad283670887",
      "blockNumber": 47986,
      "transactionIndex": 0,
      "confirmations": null,
      "from": "0xa08d215B5B6aAC4861A281aC7E400b78FEF04cbf",
      "gasPrice": {
        "_hex": "0xe12ba829b"
      },
      "gasLimit": {
        "_hex": "0x6978"
      },
      "to": "0x2910543Af39abA0Cd09dBb2D50200b3E800A63D2",
      "value": {
        "_hex": "0x1af56c833111c20000"
      },
      "nonce": 4,
      "data": "0x454e46503741333838",
      "r": "0xb05e3a5461ae603c8217bbd711be7855f4b0801406e1e0a1275d97ade2e4c969",
      "s": "0x5c87d59010c3806e5d153d6534b1af5cee34d44f617d4d4799a9b63e46fd5f30",
      "v": 27,
      "creates": null,
      "raw": "0xf87604850e12ba829b826978942910543af39aba0cd09dbb2d50200b3e800a63d2891af56c833111c2000089454e465037413338381ba0b05e3a5461ae603c8217bbd711be7855f4b0801406e1e0a1275d97ade2e4c969a05c87d59010c3806e5d153d6534b1af5cee34d44f617d4d4799a9b63e46fd5f30",
      "networkId": 0,
      "chainId": 0
    },
    {
      "hash": "0x8949d4c1e3045a584e96e6f1fcdca78b98327d36a4a7b768a505276199099297",
      "blockHash": "0x9b297f59687761d19c2ce813b1ffa8c1c4c26658d9296a31491a8ad283670887",
      "blockNumber": 47986,
      "transactionIndex": 1,
      "confirmations": null,
      "from": "0x3DfCf2bF579C831a03379a140b74f884e49CaFf3",
      "gasPrice": {
        "_hex": "0xd42571bbe"
      },
      "gasLimit": {
        "_hex": "0x61a8"
      },
      "to": "0x2910543Af39abA0Cd09dBb2D50200b3E800A63D2",
      "value": {
        "_hex": "0x4563918244f40000"
      },
      "nonce": 2,
      "data": "0x454e37415942575838",
      "r": "0xdc049e90b56a6735ecb14c49da093427675250f3df19bb19343c372b73fbc1c9",
      "s": "0x1f58d0ee57104caa16112f96bb33bc515ea60828af00b48e5e285e0c05771f34",
      "v": 28,
      "creates": null,
      "raw": "0xf87502850d42571bbe8261a8942910543af39aba0cd09dbb2d50200b3e800a63d2884563918244f4000089454e374159425758381ca0dc049e90b56a6735ecb14c49da093427675250f3df19bb19343c372b73fbc1c9a01f58d0ee57104caa16112f96bb33bc515ea60828af00b48e5e285e0c05771f34",
      "networkId": 0,
      "chainId": 0
    },
    {
      "hash": "0x55d7dfb54704702ed7a062841950260857228e2df04a1feacf5baaa7580ccf5a",
      "blockHash": "0x9b297f59687761d19c2ce813b1ffa8c1c4c26658d9296a31491a8ad283670887",
      "blockNumber": 47986,
      "transactionIndex": 2,
      "confirmations": null,
      "from": "0x3DfCf2bF579C831a03379a140b74f884e49CaFf3",
      "gasPrice": {
        "_hex": "0xd1eb31f2a"
      },
      "gasLimit": {
        "_hex": "0x61a8"
      },
      "to": "0x2910543Af39abA0Cd09dBb2D50200b3E800A63D2",
      "value": {
        "_hex": "0x4563918244f40000"
      },
      "nonce": 3,
      "data": "0x454e37415942575838",
      "r": "0xd0acefffe9d01e311aa4ff388b3f17179e107e1cde5aade7713fabd7aaa7b570",
      "s": "0x2e0e071fe705591748dcbcfa70417ff4682ad0fcb4915d43740ed51dc6f6c1d5",
      "v": 28,
      "creates": null,
      "raw": "0xf87503850d1eb31f2a8261a8942910543af39aba0cd09dbb2d50200b3e800a63d2884563918244f4000089454e374159425758381ca0d0acefffe9d01e311aa4ff388b3f17179e107e1cde5aade7713fabd7aaa7b570a02e0e071fe705591748dcbcfa70417ff4682ad0fcb4915d43740ed51dc6f6c1d5",
      "networkId": 0,
      "chainId": 0
    }
  ]
}