{
  "hash": "0x7b643f8d1afdf3293474177432aad1a7ed9e6f9f757442ffe55268aaa5c8cf24",
  "parentHash": "0x5ba16634cbd158c0cc891e8b069f038457fd68925fbc29944e658404d0d3ac45",
  "number": 49871,
  "timestamp": 1438980431,
  "nonce": "0x40d53d54084ff0d3",
  "difficulty": 1493660232220,
  "gasLimit": {
    "_hex": "0x434ef"
  },
  "gasUsed": {
    "_hex": "0xa410"
  },
  "miner": "0xab84940B570d6358ed6A9Dbf7e0bc8Ec8F5A6E89",
  "extraData": "0x322831652933",
  "transactions": [
    {
      "hash": "0x2880c70198301b988b80cfd98bcaa8b7e3d9c11ecd0c2ccaec201a20ed181820",
      "blockHash": "0x7b643f8d1afdf3293474177432aad1a7ed9e6f9f757442ffe55268aaa5c8cf24",
      "blockNumber": 49871,
      "transactionIndex": 0,
      "confirmations": null,
      "from": "0xAE842210f44D14C4a4db91fc9D3B3b50014f7Bf7",
      "gasPrice": {
        "_hex": "0x10dc90d85e7"
      },
      "gasLimit": {
        "_hex": "0x15f90"
      },
      "to": "0xc8b25f8890816e7F491d8EE02BA8b4548c73D3A4",
      "value": {
        "_hex": "0x1b1ae4d6e2ef500000"
      },
      "nonce": 2,
      "data": "0x",
      "r": "0xe2d96cae49d99b74da41210e9533247582e51ea1207cc022588e5356c4c76d7e",
      "s": "0x3501ef87a158191940d347ffaf45eb37082e8e2b3820940928205c7b132d60a9",
      "v": 28,
      "creates": null,
      "raw": "0xf86f0286010dc90d85e783015f9094c8b25f8890816e7f491d8ee02ba8b4548c73d3a4891b1ae4d6e2ef500000801ca0e2d96cae49d99b74da41210e9533247582e51ea1207cc022588e5356c4c76d7ea03501ef87a158191940d347ffaf45eb37082e8e2b3820940928205c7b132d60a9",
      "networkId": 0,
      "chainId": 0
    },
    {
      "hash": "0x5799ae88fad13c29c2bbb2925f7df9251123cc1a17080769b4812deec1dbf90b",
      "blockHash": "0x7b643f8d1afdf3293474177432aad1a7ed9e6f9f757442ffe55268aaa5c8cf24",
      "blockNumber": 49871,
      "transactionIndex": 1,
      "confirmations": null,
      "from": "0x42e16B3732ae6f3e38AeE7546f36149C9eCB8F26",
      "gasPrice": {
        "_hex": "0xdcc105605"
      },
      "gasLimit": {
        "_hex": "0x5208"
      },
      "to": "0x32Be343B94f860124dC4fEe278FDCBD38C102D88",
      "value": {
        "_hex": "0x1bbd019c32bad800"
      },
      "nonce": 1,
      "data": "0x",
      "r": "0x55f53fc39dff07383faf130a3d8e43a6f86f934a1cf479c9d037e94e6d2fc7fe",
      "s": "0x3c0f73019f0c6d81bded2f0de77a3a909a3f89f44a1644c3492a5c4f9fb3fbae",
      "v": 27,
      "creates": null,
      "raw": "0xf86c01850dcc1056058252089432be343b94f860124dc4fee278fdcbd38c102d88881bbd019c32bad800801ba055f53fc39dff07383faf130a3d8e43a6f86f934a1cf479c9d037e94e6d2fc7fea03c0f73019f0c6d81bded2f0de77a3a909a3f89f44a1644c3492a5c4f9fb3fbae",
      "networkId": 0,
      "chainId": 0
    }
  ]
}