{
  "hash": "0xbd497c17fc4da8a13f84bd32d8d5964d81498a995d042fa73bb01b2f4af09741",
  "parentHash": "0xf8e05b41a117350d44f4921a4ea1f42655954fd419abe27078cc73348f806e25",
  "number": 119969,
  "timestamp": 1440151598,
  "nonce": "0x5894820368a15a82",
  "difficulty": 4426459057417,
  "gasLimit": {
    "_hex": "0x2fefd8"
  },
  "gasUsed": {
    "_hex": "0x5208"
  },
  "miner": "0xe6A7a1d47ff21B6321162AEA7C6CB457D5476Bca",
  "extraData": "0xd783010002844765746887676f312e342e32856c696e7578",
  "transactions": [
    {
      "hash": "0xf0a73adecfebfa548f87c17e125b80d2629bbbb9bbbec356530109dda5a456b1",
      "blockHash": "0xbd497c17fc4da8a13f84bd32d8d5964d81498a995d042fa73bb01b2f4af09741",
      "blockNumber": 119969,
      "transactionIndex": 0,
      "confirmations": null,
      "from": "0xa70a9a7040d542C632D8e0bE7c5513A8a5Bbc752",
      "gasPrice": {
        "_hex": "0xba43b7400"
      },
      "gasLimit": {
        "_hex": "0x5208"
      },
      "to": "0x32Be343B94f860124dC4fEe278FDCBD38C102D88",
      "value": {
        "_hex": "0x8ac7230489e80000"
      },
      "nonce": 325,
      "data": "0x",
      "r": "0xd6628bb53f5cd7dce2b75705106a1b4a1847ad1f3e05f2a572b5b19add15385c",
      "s": "0x65ca9c6a0e29faa19d892e7da955c9eeee4bc48fa94b212c6e6ac7626277dd90",
      "v": 28,
      "creates": null,
      "raw": "0xf86e820145850ba43b74008252089432be343b94f860124dc4fee278fdcbd38c102d88888ac7230489e80000801ca0d6628bb53f5cd7dce2b75705106a1b4a1847ad1f3e05f2a572b5b19add15385ca065ca9c6a0e29faa19d892e7da955c9eeee4bc48fa94b212c6e6ac7626277dd90",
      "networkId": 0,
      "chainId": 0
    }
  ]
}