{
  "hash": "0x99a93061fe44a6744a97d79814d577c51e87b08f1f18832699f1ead804f2ae17",
  "parentHash": "0x5c5723eda65a731a440442777c91edda279f317f2b0a1b090f0a7fff5ba75105",
  "number": 106410,
  "timestamp": 1439903695,
  "nonce": "0xbd6da283d80dd289",
  "difficulty": 4496846938790,
  "gasLimit": {
    "_hex": "0x2fefd8"
  },
  "gasUsed": {
    "_hex": "0xaa37"
  },
  "miner": "0xe6A7a1d47ff21B6321162AEA7C6CB457D5476Bca",
  "extraData": "0x476574682f76312e302e312d38326566323666362f6c696e75782f676f312e34",
  "transactions": [
    {
      "hash": "0x0bd15c2564ad05557715c614f8984ead2c5f14bc57f48f8ff6ed816c38d0c8a0",
      "blockHash": "0x99a93061fe44a6744a97d79814d577c51e87b08f1f18832699f1ead804f2ae17",
      "blockNumber": 106410,
      "transactionIndex": 0,
      "confirmations": null,
      "from": "0x87C5B5874A18B4306DF8a752a6C8cc3E82daFc19",
      "gasPrice": {
        "_hex": "0x10e8dc00194"
      },
      "gasLimit": {
        "_hex": "0x493e0"
      },
      "to": "0xD79B4C6791784184e2755B2fC1659eaaB0f80456",
      "value": {
        "_hex": "0x0"
      },
      "nonce": 351,
      "data": "0x03750d9400000000000000000000000087c5b5874a18b4306df8a752a6c8cc3e82dafc196b6b6b0000000000000000000000000000000000000000000000000000000000",
      "r": "0x62870a0fac50cca148b2778da1f59e8ab27b746dd7fc27325bce5f2a70f28502",
      "s": "0x7d18c198eab2640efe552578affd1e0866549bf92ab701b3a6f0f0ab82f475aa",
      "v": 28,
      "creates": null,
      "raw": "0xf8ad82015f86010e8dc00194830493e094d79b4c6791784184e2755b2fc1659eaab0f8045680b84403750d9400000000000000000000000087c5b5874a18b4306df8a752a6c8cc3e82dafc196b6b6b00000000000000000000000000000000000000000000000000000000001ca062870a0fac50cca148b2778da1f59e8ab27b746dd7fc27325bce5f2a70f28502a07d18c198eab2640efe552578affd1e0866549bf92ab701b3a6f0f0ab82f475aa",
      "networkId": 0,
      "chainId": 0
    }
  ]
}