{
  "hash": "0x8270aad25c97abc2ba0eac40f16d05766e6304f24f9c5edc1de4de91fca8f0aa",
  "parentHash": "0xfcfcbcd60b1ec4d587f575b9246fd1d5bfb440a12749ce385aae88b1debc757e",
  "number": 86647,
  "timestamp": 1439580858,
  "nonce": "0x1a78b604445bc4fe",
  "difficulty": 2940225493283,
  "gasLimit": {
    "_hex": "0x2fefd8"
  },
  "gasUsed": {
    "_hex": "0xf87c"
  },
  "miner": "0x1222Cb143541958fb16f82f170046fd8345eBa9b",
  "extraData": "0x476574682f76312e302e312f6c696e75782f676f312e342e32",
  "transactions": [
    {
      "hash": "0xf5f8ebbbdd74894c62e033881592117b363a03d718fb996fddb00a2ef904c85b",
      "blockHash": "0x8270aad25c97abc2ba0eac40f16d05766e6304f24f9c5edc1de4de91fca8f0aa",
      "blockNumber": 86647,
      "transactionIndex": 0,
      "confirmations": null,
      "from": "0x18b8BCf98321dA61FB4e3eACC1EC5417272Dc27E",
      "gasPrice": {
        "_hex": "0x110c8f7d8de"
      },
      "gasLimit": {
        "_hex": "0xc350"
      },
      "to": "0x2910543Af39abA0Cd09dBb2D50200b3E800A63D2",
      "value": {
        "_hex": "0x2b5e3af16b18800000"
      },
      "nonce": 0,
      "data": "0x454e33474b425a4752",
      "r": "0xb5c4e5c5970b2ae6830537411a3e10dca58b608accce6c047cca446fc9d68c66",
      "s": "0x35dd8d5287823840cb4320baac9e0de717dc1374e36bdbecba6434cbdb000807",
      "v": 28,
      "creates": null,
      "raw": "0xf87780860110c8f7d8de82c350942910543af39aba0cd09dbb2d50200b3e800a63d2892b5e3af16b1880000089454e33474b425a47521ca0b5c4e5c5970b2ae6830537411a3e10dca58b608accce6c047cca446fc9d68c66a035dd8d5287823840cb4320baac9e0de717dc1374e36bdbecba6434cbdb000807",
      "networkId": 0,
      "chainId": 0
    },
    {
      "hash": "0x4ed7d4b935dafadea886e81b4a9f960fa397c53b5804a0efc19860ddde4792a8",
      "blockHash": "0x8270aad25c97abc2ba0eac40f16d05766e6304f24f9c5edc1de4de91fca8f0aa",
      "blockNumber": 86647,
      "transactionIndex": 1,
      "confirmations": null,
      "from": "0x8F586E3212291c58DCc78980a9c3432a3aFd3b6E",
      "gasPrice": {
        "_hex": "0xdf95bfcbe"
      },
      "gasLimit": {
        "_hex": "0x5208"
      },
      "to": "0x32Be343B94f860124dC4fEe278FDCBD38C102D88",
      "value": {
        "_hex": "0x10433fd1229bd10000"
      },
      "nonce": 8,
      "data": "0x",
      "r": "0xa2c1bd2765512725abb921e6257121db8e5b8a3b83269e890b11e5112bc2fc78",
      "s": "0x53442a664d098fd377f2f415af28e5197c6a4b99cfbeab1fec35c8c95bb5f30f",
      "v": 27,
      "creates": null,
      "raw": "0xf86d08850df95bfcbe8252089432be343b94f860124dc4fee278fdcbd38c102d888910433fd1229bd10000801ba0a2c1bd2765512725abb921e6257121db8e5b8a3b83269e890b11e5112bc2fc78a053442a664d098fd377f2f415af28e5197c6a4b99cfbeab1fec35c8c95bb5f30f",
      "networkId": 0,
      "chainId": 0
    },
    {
      "hash": "0xa2e43620dd3e2b144ce74f21d91abc097fffcdacc743249c994944b203f68e43",
      "blockHash": "0x8270aad25c97abc2ba0eac40f16d05766e6304f24f9c5edc1de4de91fca8f0aa",
      "blockNumber": 86647,
      "transactionIndex": 2,
      "confirmations": null,
      "from": "0x2aBD9e50d51e97aFc9a984f64657eD9539c59c91",
      "gasPrice": {
        "_hex": "0xdf95bfcbe"
      },
      "gasLimit": {
        "_hex": "0x5208"
      },
      "to": "0x32Be343B94f860124dC4fEe278FDCBD38C102D88",
      "value": {
        "_hex": "0x11589cbb9fda16000"
      },
      "nonce": 7,
      "data": "0x",
      "r": "0x5c539211a4d89099cd2012395836c36975030a42b161bb1d81defa70bf3bae2b",
      "s": "0x3cbee1fdb068598bc9c72fd563406411d2e9b97b3912dae89a07744ec3cfabbb",
      "v": 28,
      "creates": null,
      "raw": "0xf86d07850df95bfcbe8252089432be343b94f860124dc4fee278fdcbd38c102d8889011589cbb9fda16000801ca05c539211a4d89099cd2012395836c36975030a42b161bb1d81defa70bf3bae2ba03cbee1fdb068598bc9c72fd563406411d2e9b97b3912dae89a07744ec3cfabbb",
      "networkId": 0,
      "chainId": 0
    }
  ]
}