{
  "hash": "0xffd2e1c1d105731cb9af69456dd40447460a0a8da107c3ff7152bd091f97797f",
  "parentHash": "0x6db900f1f662447c56d3ab7a2a31abd1255fb3083a24d3c5c829de84dadc0bb9",
  "number": 51571,
  "timestamp": 1439007225,
  "nonce": "0x3b0fa3a54cd0ab3a",
  "difficulty": 1558923839727,
  "gasLimit": {
    "_hex": "0xc0a25"
  },
  "gasUsed": {
    "_hex": "0x5208"
  },
  "miner": "0x753562eEA69CD2D342A9c07EDD49b9753dc0F01e",
  "extraData": "0x476574682f76312e302e312f6c696e75782f676f312e342e32",
  "transactions": [
    {
      "hash": "0x5ef111e3af557078b2fd0cd943c529b4c480c9cb82bea4437cd6e0c3d210c85e",
      "blockHash": "0xffd2e1c1d105731cb9af69456dd40447460a0a8da107c3ff7152bd091f97797f",
      "blockNumber": 51571,
      "transactionIndex": 0,
      "confirmations": null,
      "from": "0xd0C34376F4b5Ae34E062c043f736f1304B153544",
      "gasPrice": {
        "_hex": "0x10913bf026d"
      },
      "gasLimit": {
        "_hex": "0x5208"
      },
      "to": "0x835cFb953639ABaB9F2612b8d92C997771Ae6312",
      "value": {
        "_hex": "0xde0b6b3a7640000"
      },
      "nonce": 2,
      "data": "0x",
      "r": "0x48e9df570dfd3e16d39b88b5e797b9846fb22d088531346372b1b6b10b1176ee",
      "s": "0x74c254f0274b83a1ce6650aea08a567b598890d7a332dfa81a0729c91358fb61",
      "v": 28,
      "creates": null,
      "raw": "0xf86d0286010913bf026d82520894835cfb953639abab9f2612b8d92c997771ae6312880de0b6b3a7640000801ca048e9df570dfd3e16d39b88b5e797b9846fb22d088531346372b1b6b10b1176eea074c254f0274b83a1ce6650aea08a567b598890d7a332dfa81a0729c91358fb61",
      "networkId": 0,
      "chainId": 0
    }
  ]
}