{
  "hash": "0x4713dd48b0fb4f674fb9ddacfb26531e7f6986d4ea2137092feccaa278bf878c",
  "parentHash": "0x71c11dc228eb3420637016efb83f11e4db48061b2d79e2c0f46cd156995b0070",
  "number": 70024,
  "timestamp": 1439313503,
  "nonce": "0x1cfbab1f87ad1677",
  "difficulty": 2112661095448,
  "gasLimit": {
    "_hex": "0x2fefd8"
  },
  "gasUsed": {
    "_hex": "0x5208"
  },
  "miner": "0x785ffdDd5cE55c6DF963f345e68d3F2024E5Acb1",
  "extraData": "0x476574682f4d69676e6f7474652f76312e302e312f6c696e75782f676f312e34",
  "transactions": [
    {
      "hash": "0x10a575193dd07b101ba4de7f25ba45b78dd5c7a00986cb89c4db57586e422b36",
      "blockHash": "0x4713dd48b0fb4f674fb9ddacfb26531e7f6986d4ea2137092feccaa278bf878c",
      "blockNumber": 70024,
      "transactionIndex": 0,
      "confirmations": null,
      "from": "0x640bAfc5732d621d5611eed670718409acb81366",
      "gasPrice": {
        "_hex": "0xd96aea047"
      },
      "gasLimit": {
        "_hex": "0x15f90"
      },
      "to": "0xDA4E0Ba268486216E0B3Ad5ccEAa1E7EdB1C2751",
      "value": {
        "_hex": "0x8ef0f36da2860000"
      },
      "nonce": 2,
      "data": "0x",
      "r": "0x605172678e9697773bb6d2bfac77a71b84df3485cde8d1546f4e3a697ff75a34",
      "s": "0x3283ab3a582ad1fd05889ed543250cc79d5c6f80e3201befbbaf09c32a7cda4d",
      "v": 27,
      "creates": null,
      "raw": "0xf86d02850d96aea04783015f9094da4e0ba268486216e0b3ad5cceaa1e7edb1c2751888ef0f36da2860000801ba0605172678e9697773bb6d2bfac77a71b84df3485cde8d1546f4e3a697ff75a34a03283ab3a582ad1fd05889ed543250cc79d5c6f80e3201befbbaf09c32a7cda4d",
      "networkId": 0,
      "chainId": 0
    }
  ]
}