{
  "hash": "0x24e36f213c22dff776434e4598ba30158886a85a0439aed93500cad2984f3640",
  "parentHash": "0xa67d5a2ec51991c4b65ea57b53f5eb4b97d655b553fb77bd6e178afefcb73929",
  "number": 120258,
  "timestamp": 1440156937,
  "nonce": "0xe1b91bd029f1e7b5",
  "difficulty": 4402596184880,
  "gasLimit": {
    "_hex": "0x2fefd8"
  },
  "gasUsed": {
    "_hex": "0x5208"
  },
  "miner": "0xe6A7a1d47ff21B6321162AEA7C6CB457D5476Bca",
  "extraData": "0xd783010002844765746887676f312e342e32856c696e7578",
  "transactions": [
    {
      "hash": "0x5524753cb5536c59c5858faab81a5e8451f8e389c6188c9ebdf2e7d196c15016",
      "blockHash": "0x24e36f213c22dff776434e4598ba30158886a85a0439aed93500cad2984f3640",
      "blockNumber": 120258,
      "transactionIndex": 0,
      "confirmations": null,
      "from": "0x3B09D1F4B08ecc06d9C14ca7ab5CCcb86848E8F2",
      "gasPrice": {
        "_hex": "0xd1be6117c"
      },
      "gasLimit": {
        "_hex": "0x15f90"
      },
      "to": "0xAae61E43CB0d0C96b30699F77E00D711d0a3979b",
      "value": {
        "_hex": "0x13fbe85edc90000"
      },
      "nonce": 0,
      "data": "0x",
      "r": "0x335b31a3d04f183db84a92fe058e4f442912157376dc452e292f2110b5ac1ee3",
      "s": "0x1d0c2df36ce097dded9142dfcc85261edf9221f512283be788cb029fb555fc2e",
      "v": 27,
      "creates": null,
      "raw": "0xf86d80850d1be6117c83015f9094aae61e43cb0d0c96b30699f77e00d711d0a3979b88013fbe85edc90000801ba0335b31a3d04f183db84a92fe058e4f442912157376dc452e292f2110b5ac1ee3a01d0c2df36ce097dded9142dfcc85261edf9221f512283be788cb029fb555fc2e",
      "networkId": 0,
      "chainId": 0
    }
  ]
}