{
  "hash": "0x3224bd07ee6ceec7d39a86280cf3c306ee500ed4528703da73cdc6062d64c1d7",
  "parentHash": "0x1b3ec4f6bf65cc42c94c4a6cf1f77a25196c0a0574b9f272292be55f85d12ecd",
  "number": 84965,
  "timestamp": 1439556811,
  "nonce": "0x382f4ec0b8a02c8e",
  "difficulty": 2706561385542,
  "gasLimit": {
    "_hex": "0x2fefd8"
  },
  "gasUsed": {
    "_hex": "0x5208"
  },
  "miner": "0xe6A7a1d47ff21B6321162AEA7C6CB457D5476Bca",
  "extraData": "0x476574682f76312e302e312d38326566323666362f6c696e75782f676f312e34",
  "transactions": [
    {
      "hash": "0x0470c405f4103a04da6b37cb2bb80381d882189845b00c563cb580c606527fca",
      "blockHash": "0x3224bd07ee6ceec7d39a86280cf3c306ee500ed4528703da73cdc6062d64c1d7",
      "blockNumber": 84965,
      "transactionIndex": 0,
      "confirmations": null,
      "from": "0xDf98caf82877358FEE08535C7E8404e4794B2816",
      "gasPrice": {
        "_hex": "0xd7f51476e"
      },
      "gasLimit": {
        "_hex": "0x5208"
      },
      "to": "0x32Be343B94f860124dC4fEe278FDCBD38C102D88",
      "value": {
        "_hex": "0x98a37a5e34c93800"
      },
      "nonce": 0,
      "data": "0x",
      "r": "0x9a9a797855d68d738014593e47936364b6da8bc206834495012d70e68d7ae9ae",
      "s": "0x3c67ccda88136e80facc595ccaa6b388d889210e97c7046cd12aa26d63753c5f",
      "v": 27,
      "creates": null,
      "raw": "0xf86c80850d7f51476e8252089432be343b94f860124dc4fee278fdcbd38c102d888898a37a5e34c93800801ba09a9a797855d68d738014593e47936364b6da8bc206834495012d70e68d7ae9aea03c67ccda88136e80facc595ccaa6b388d889210e97c7046cd12aa26d63753c5f",
      "networkId": 0,
      "chainId": 0
    }
  ]
}