{
  "hash": "0x5dedfa363881a33d67822dc5a0870a12cea4f2cecda6d72320e1f8edaf052f6f",
  "parentHash": "0xcf0eb778519c5ffe981ecddbcba6176c81819c3c7bbe852f435b670ac12f3518",
  "number": 90558,
  "timestamp": 1439641991,
  "nonce": "0x7cc5a07fedff2873",
  "difficulty": 3325284436451,
  "gasLimit": {
    "_hex": "0x2fefd8"
  },
  "gasUsed": {
    "_hex": "0xa410"
  },
  "miner": "0xe6A7a1d47ff21B6321162AEA7C6CB457D5476Bca",
  "extraData": "0x476574682f76312e302e312d38326566323666362f6c696e75782f676f312e34",
  "transactions": [
    {
      "hash": "0xda47cb83236152def2d8a50700a35b0794bb9611827ca303e1043bd0d354136e",
      "blockHash": "0x5dedfa363881a33d67822dc5a0870a12cea4f2cecda6d72320e1f8edaf052f6f",
      "blockNumber": 90558,
      "transactionIndex": 0,
      "confirmations": null,
      "from": "0xa522de7EB6ae1250522A513133a93bd42849475C",
      "gasPrice": {
        "_hex": "0xddb157b39"
      },
      "gasLimit": {
        "_hex": "0x15f90"
      },
      "to": "0x859217617481BD9b6E3e38f6aE9BB677F0D26154",
      "value": {
        "_hex": "0x7caee97613e6700000"
      },
      "nonce": 8,
      "data": "0x",
      "r": "0x270becedb7c18b5acbb9b935bccc878fd4478299b3e6e4da8da7e2a6ff00a573",
      "s": "0x5b814f7adc7835333b2ffe5307ea4a83565e465a2dae689297a48c8ab2d8d405",
      "v": 27,
      "creates": null,
      "raw": "0xf86e08850ddb157b3983015f9094859217617481bd9b6e3e38f6ae9bb677f0d26154897caee97613e6700000801ba0270becedb7c18b5acbb9b935bccc878fd4478299b3e6e4da8da7e2a6ff00a573a05b814f7adc7835333b2ffe5307ea4a83565e465a2dae689297a48c8ab2d8d405",
      "networkId": 0,
      "chainId": 0
    },
    {
      "hash": "0x2f575f37a0f3a21f5a2ac2edca10fda1f1fe84840fc4a9e72aa206ee34b69ad2",
      "blockHash": "0x5dedfa363881a33d67822dc5a0870a12cea4f2cecda6d72320e1f8edaf052f6f",
      "blockNumber": 90558,
      "transactionIndex": 1,
      "confirmations": null,
      "from": "0x1d87a52adE811D169DCdd8535e2CbdcC540237fC",
      "gasPrice": {
        "_hex": "0xd6be9c6c7"
      },
      "gasLimit": {
        "_hex": "0x5208"
      },
      "to": "0x32Be343B94f860124dC4fEe278FDCBD38C102D88",
      "value": {
        "_hex": "0x23c9b3577dc66400"
      },
      "nonce": 1,
      "data": "0x",
      "r": "0x8304d103f2996d994a4b7ee65cb2cf4c56281954c48adea8e6a6977207dc3955",
      "s": "0x4cd07fb2176d4e8eda8c2473c4edc00f44fa8e92791117152aa08a4042980ef4",
      "v": 27,
      "creates": null,
      "raw": "0xf86c01850d6be9c6c78252089432be343b94f860124dc4fee278fdcbd38c102d888823c9b3577dc66400801ba08304d103f2996d994a4b7ee65cb2cf4c56281954c48adea8e6a6977207dc3955a04cd07fb2176d4e8eda8c2473c4edc00f44fa8e92791117152aa08a4042980ef4",
      "networkId": 0,
      "chainId": 0
    }
  ]
}