{
  "hash": "0x5fe6602dd6e4abd10919a3d6b7865b5a977841bf3c941391c2c3b1db46f5ebd2",
  "parentHash": "0x2f966d495e29bd85d2554ac656cfabd4da569e85f9f39e3df6c08c3b9c62fbb2",
  "number": 94713,
  "timestamp": 1439712905,
  "nonce": "0x78540f3725252f1f",
  "difficulty": 3488248501351,
  "gasLimit": {
    "_hex": "0x2fefd8"
  },
  "gasUsed": {
    "_hex": "0x2409c"
  },
  "miner": "0x47ff6576639c2e94762eA5443978D7681C0E78DC",
  "extraData": "0x476574682f76312e302e312f6c696e75782f676f312e342e32",
  "transactions": [
    {
      "hash": "0x667968165a0a6d39711d4221b9fe4c997da54224bfa1fb4cb601d6464b29e130",
      "blockHash": "0x5fe6602dd6e4abd10919a3d6b7865b5a977841bf3c941391c2c3b1db46f5ebd2",
      "blockNumber": 94713,
      "transactionIndex": 0,
      "confirmations": null,
      "from": "0x34E2849Bea583AB0CC37975190f322b395055582",
      "gasPrice": {
        "_hex": "0x110c8f7d8de"
      },
      "gasLimit": {
        "_hex": "0xc350"
      },
      "to": "0x2910543Af39abA0Cd09dBb2D50200b3E800A63D2",
      "value": {
        "_hex": "0x5150ae84a8cdf00000"
      },
      "nonce": 4,
      "data": "0x454e434a5033463438",
      "r": "0x946cf2b49e1adfce26302521625325cc99d4bd45c25ba0215bcb2f2a78222126",
      "s": "0xd9e4bde87509353c3c22e3dacb0d4182ed9a3e06f58fd1ead5f3867022af928c",
      "v": 27,
      "creates": null,
      "raw": "0xf87704860110c8f7d8de82c350942910543af39aba0cd09dbb2d50200b3e800a63d2895150ae84a8cdf0000089454e434a50334634381ba0946cf2b49e1adfce26302521625325cc99d4bd45c25ba0215bcb2f2a78222126a0d9e4bde87509353c3c22e3dacb0d4182ed9a3e06f58fd1ead5f3867022af928c",
      "networkId": 0,
      "chainId": 0
    },
    {
      "hash": "0x47082e2cf212cb19dd56e7e42d155b23830aa71ea7b0c64a9d24f392e4138470",
      "blockHash": "0x5fe6602dd6e4abd10919a3d6b7865b5a977841bf3c941391c2c3b1db46f5ebd2",
      "blockNumber": 94713,
      "transactionIndex": 1,
      "confirmations": null,
      "from": "0xe6A7a1d47ff21B6321162AEA7C6CB457D5476Bca",
      "gasPrice": {
        "_hex": "0xda9979232"
      },
      "gasLimit": {
        "_hex": "0x55f0"
      },
      "to": "0x625C91D2eC2873Db4773931f7DFeF46CC594b2c9",
      "value": {
        "_hex": "0x1902947e1d0983dc"
      },
      "nonce": 3023,
      "data": "0x",
      "r": "0x3de23d09e63bc387e533e9f7a8772f26ec9d6248d149cfcce94c850a76353400",
      "s": "0x68d4878f5a1900d7a0d743302d9438102e9e0d249141f2a4d1ed2186afc09a36",
      "v": 27,
      "creates": null,
      "raw": "0xf86e820bcf850da99792328255f094625c91d2ec2873db4773931f7dfef46cc594b2c9881902947e1d0983dc801ba03de23d09e63bc387e533e9f7a8772f26ec9d6248d149cfcce94c850a76353400a068d4878f5a1900d7a0d743302d9438102e9e0d249141f2a4d1ed2186afc09a36",
      "networkId": 0,
      "chainId": 0
    },
    {
      "hash": "0x8a5622d1e52ccda6fa506b0872034222b2d47a74044b04ed0ed2efca0f21ff2f",
      "blockHash": "0x5fe6602dd6e4abd10919a3d6b7865b5a977841bf3c941391c2c3b1db46f5ebd2",
      "blockNumber": 94713,
      "transactionIndex": 2,
      "confirmations": null,
      "from": "0xe6A7a1d47ff21B6321162AEA7C6CB457D5476Bca",
      "gasPrice": {
        "_hex": "0xda9979232"
      },
      "gasLimit": {
        "_hex": "0x55f0"
      },
      "to": "0xb26EE724AA819BddDf6d87754C61669f000AbF6A",
      "value": {
        "_hex": "0x24ce728098f88e04"
      },
      "nonce": 3024,
      "data": "0x",
      "r": "0x5a51a2f98065b2e33f07afbeaff5718e21911284843229eb82a23afd70e8ed50",
      "s": "0x188a0971686861f6e35ad7cbf085f32644dcd1fbceaaf1bc146d280785cef7dc",
      "v": 28,
      "creates": null,
      "raw": "0xf86e820bd0850da99792328255f094b26ee724aa819bdddf6d87754c61669f000abf6a8824ce728098f88e04801ca05a51a2f98065b2e33f07afbeaff5718e21911284843229eb82a23afd70e8ed50a0188a0971686861f6e35ad7cbf085f32644dcd1fbceaaf1bc146d280785cef7dc",
      "networkId": 0,
      "chainId": 0
    },
    {
      "hash": "0x63076b07b63655a131bbd5ba09fed08eb1fa50072fbcf98aa6a2f469a80a5239",
      "blockHash": "0x5fe6602dd6e4abd10919a3d6b7865b5a977841bf3c941391c2c3b1db46f5ebd2",
      "blockNumber": 94713,
      "transactionIndex": 3,
      "confirmations": null,
      "from": "0x1308A2e95c0160B90803ddCA9B9a5bb55E416d79",
      "gasPrice": {
        "_hex": "0xd38c53735"
      },
      "gasLimit": {
        "_hex": "0x15f90"
      },
      "to": "0x1dB6f74C0aDD5cC100b1eD2f5Ba7083d06D6587A",
      "value": {
        "_hex": "0x2af8ec22186c26000"
      },
      "nonce": 148,
      "data": "0x",
      "r": "0xf8a6e0f1a213c9b09c2c53beabcaff7381654a7cd503a7393e291f15d1f277f5",
      "s": "0x4aea930815124bca94f8215d5674519310149a7127e13bc75ee10dce9cc9081b",
      "v": 27,
      "creates": null,
      "raw": "0xf86f8194850d38c5373583015f90941db6f74c0add5cc100b1ed2f5ba7083d06d6587a8902af8ec22186c26000801ba0f8a6e0f1a213c9b09c2c53beabcaff7381654a7cd503a7393e291f15d1f277f5a04aea930815124bca94f8215d5674519310149a7127e13bc75ee10dce9cc9081b",
      "networkId": 0,
      "chainId": 0
    },
    {
      "hash": "0xe21933eaf6fb99481da6dd43f2ea07c785c740645f88b987216f6cd9cfd178c2",
      "blockHash": "0x5fe6602dd6e4abd10919a3d6b7865b5a977841bf3c941391c2c3b1db46f5ebd2",
      "blockNumber": 94713,
      "transactionIndex": 4,
      "confirmations": null,
      "from": "0x120A270bbC009644e35F0bB6ab13f95b8199c4ad",
      "gasPrice": {
        "_hex": "0xd04b0d99f"
      },
      "gasLimit": {
        "_hex": "0x3d090"
      },
      "to": "0x0ac920166f321cA0Ee550179df2ad46A47E10A07",
      "value": {
        "_hex": "0x111ced11b63c68b400"
      },
      "nonce": 585,
      "data": "0x",
      "r": "0xfd44a988533d1b41a2b3f10a4fa27d67227b364b93a8aab44d02fc166d75437f",
      "s": "0x5019d5a517c46347f7243e40e985a0442167d939c5efdf7b647ccfb5f8960733",
      "v": 27,
      "creates": null,
      "raw": "0xf870820249850d04b0d99f8303d090940ac920166f321ca0ee550179df2ad46a47e10a0789111ced11b63c68b400801ba0fd44a988533d1b41a2b3f10a4fa27d67227b364b93a8aab44d02fc166d75437fa05019d5a517c46347f7243e40e985a0442167d939c5efdf7b647ccfb5f8960733",
      "networkId": 0,
      "chainId": 0
    },
    {
      "hash": "0x7fa5e9a6b087aedaa932d7f9186cbaf4781fed216f28c12845f7b6416bef1edc",
      "blockHash": "0x5fe6602dd6e4abd10919a3d6b7865b5a977841bf3c941391c2c3b1db46f5ebd2",
      "blockNumber": 94713,
      "transactionIndex": 5,
      "confirmations": null,
      "from": "0xc7704Fc5c51C7a5f1a6574b0014b58C8915BA55C",
      "gasPrice": {
        "_hex": "0xcc7fe51eb"
      },
      "gasLimit": {
        "_hex": "0x5208"
      },
      "to": "0x32Be343B94f860124dC4fEe278FDCBD38C102D88",
      "value": {
        "_hex": "0x1988fb5fb4861a000"
      },
      "nonce": 4,
      "data": "0x",
      "r": "0x3d5127d10989278263595a2e81747edc7fd0981ae80b437d178d689512a95d46",
      "s": "0x40d61215b79494940a5405bfa0617b46be4978dd76a93f095f7ee1f08c275b12",
      "v": 27,
      "creates": null,
      "raw": "0xf86d04850cc7fe51eb8252089432be343b94f860124dc4fee278fdcbd38c102d888901988fb5fb4861a000801ba03d5127d10989278263595a2e81747edc7fd0981ae80b437d178d689512a95d46a040d61215b79494940a5405bfa0617b46be4978dd76a93f095f7ee1f08c275b12",
      "networkId": 0,
      "chainId": 0
    },
    {
      "hash": "0xfe49d5f14f996ddedf99ed4e72fcf05867e9f2eeeff5f331ad2bd98896afd2fc",
      "blockHash": "0x5fe6602dd6e4abd10919a3d6b7865b5a977841bf3c941391c2c3b1db46f5ebd2",
      "blockNumber": 94713,
      "transactionIndex": 6,
      "confirmations": null,
      "from": "0xCCe96724c29e042F35bCe1c2405feB0e8E30082b",
      "gasPrice": {
        "_hex": "0xcc7fe51eb"
      },
      "gasLimit": {
        "_hex": "0x5208"
      },
      "to": "0x32Be343B94f860124dC4fEe278FDCBD38C102D88",
      "value": {
        "_hex": "0x1230d585b8f143000"
      },
      "nonce": 4,
      "data": "0x",
      "r": "0x154f91995fbc59763360bd5b2448a3e50cad96636b7a6c9575ba981161af75b7",
      "s": "0x185f39406f06cdfd58221604543634014827c73d22a2d0e40347f6fe23f246ec",
      "v": 27,
      "creates": null,
      "raw": "0xf86d04850cc7fe51eb8252089432be343b94f860124dc4fee278fdcbd38c102d888901230d585b8f143000801ba0154f91995fbc59763360bd5b2448a3e50cad96636b7a6c9575ba981161af75b7a0185f39406f06cdfd58221604543634014827c73d22a2d0e40347f6fe23f246ec",
      "networkId": 0,
      "chainId": 0
    }
  ]
}