{
  "hash": "0x0ab4af304cea41212d403d95ab1e88f6f9b78a9b282e971891907bf72201d1bd",
  "parentHash": "0x30e5e8b38212636a5dfad03557f629a0991fe6267dc488e056d41225c56d566b",
  "number": 56102,
  "timestamp": 1439081988,
  "nonce": "0x4e91a417b889386f",
  "difficulty": 1635249589946,
  "gasLimit": {
    "_hex": "0x2fefd5"
  },
  "gasUsed": {
    "_hex": "0x5208"
  },
  "miner": "0x9746c7e1ef2bd21FF3997fa467593a89cb852BD0",
  "extraData": "0x476574682f76312e302e312f77696e646f77732f676f312e342e32",
  "transactions": [
    {
      "hash": "0xfbbdc9238cc1d748ff6ed2a6d7155026fa2b04c8cee210287d6a90d7607c08b9",
      "blockHash": "0x0ab4af304cea41212d403d95ab1e88f6f9b78a9b282e971891907bf72201d1bd",
      "blockNumber": 56102,
      "transactionIndex": 0,
      "confirmations": null,
      "from": "0x016c85e1613b900fA357b8283B120e65AeFCdD08",
      "gasPrice": {
        "_hex": "0xba43b7400"
      },
      "gasLimit": {
        "_hex": "0x5208"
      },
      "to": "0x632bb14025BA69A50f8C99F962998F06b70F76b4",
      "value": {
        "_hex": "0x2b5d93c9b14fd16000"
      },
      "nonce": 0,
      "data": "0x",
      "r": "0xc572caf77992957738eb5b452b4fd4b9898a04a202da7d363a58edc02f8b49cc",
      "s": "0x1b2c79597b7eeeba0c7956804b7f641a9c165bddcaab808718147936906f4047",
      "v": 28,
      "creates": null,
      "raw": "0xf86d80850ba43b740082520894632bb14025ba69a50f8c99f962998f06b70f76b4892b5d93c9b14fd16000801ca0c572caf77992957738eb5b452b4fd4b9898a04a202da7d363a58edc02f8b49cca01b2c79597b7eeeba0c7956804b7f641a9c165bddcaab808718147936906f4047",
      "networkId": 0,
      "chainId": 0
    }
  ]
}