{
  "hash": "0xcf9ebd5c32f764ad97a11b8dd49fcbdc1e7a6cf3be0633ae98b2c11481a4681b",
  "parentHash": "0x40bf1637a4fa006985780391753c8fdea591824ee43e489c76e654e4eae88941",
  "number": 104552,
  "timestamp": 1439871618,
  "nonce": "0x5d309249d33691a2",
  "difficulty": 4372249546620,
  "gasLimit": {
    "_hex": "0x2fefd8"
  },
  "gasUsed": {
    "_hex": "0x5208"
  },
  "miner": "0x0D2C9857E819cf1275eb59B49033343ccC35fe42",
  "extraData": "0x",
  "transactions": [
    {
      "hash": "0x6d7d5f51b7e57192a5f09e65cd9aa110bdad0579c97c0b7b4a05a302035fead7",
      "blockHash": "0xcf9ebd5c32f764ad97a11b8dd49fcbdc1e7a6cf3be0633ae98b2c11481a4681b",
      "blockNumber": 104552,
      "transactionIndex": 0,
      "confirmations": null,
      "from": "0x120A270bbC009644e35F0bB6ab13f95b8199c4ad",
      "gasPrice": {
        "_hex": "0xd1dd8ad3f"
      },
      "gasLimit": {
        "_hex": "0x3d090"
      },
      "to": "0x562236C0D4FD95E26c53aC56b7d118E420ca1716",
      "value": {
        "_hex": "0x56bc75e2d63100000"
      },
      "nonce": 748,
      "data": "0x",
      "r": "0x59e5a3f2d980d4ce9e632273c3143e7b003c09f3cf299ab91022ab00cc8108ea",
      "s": "0x50f6416f7f6c29d3a604e0874d218e07d14000de61a17c9a3b52e6645ab700e6",
      "v": 28,
      "creates": null,
      "raw": "0xf8708202ec850d1dd8ad3f8303d09094562236c0d4fd95e26c53ac56b7d118e420ca171689056bc75e2d63100000801ca059e5a3f2d980d4ce9e632273c3143e7b003c09f3cf299ab91022ab00cc8108eaa050f6416f7f6c29d3a604e0874d218e07d14000de61a17c9a3b52e6645ab700e6",
      "networkId": 0,
      "chainId": 0
    }
  ]
}