{
  "hash": "0xfc1dd3249585b593ad18822a95873c75779ccbe8a420b457be380b977fc38e87",
  "parentHash": "0x9f9b514d03fc78e21bb763758ce478789e35db280cb1d4f4c738d05035b4baeb",
  "number": 47217,
  "timestamp": 1438936274,
  "nonce": "0x8bff6b2522931e51",
  "difficulty": 1459521320012,
  "gasLimit": {
    "_hex": "0xa43d"
  },
  "gasUsed": {
    "_hex": "0x5208"
  },
  "miner": "0x157c6f2431eB1a95797EE86F7d17b3c0FD47A247",
  "extraData": "0x476574682f76312e302e312f77696e646f77732f676f312e342e32",
  "transactions": [
    {
      "hash": "0x2a303a2309cb1b2255e457555094e724261ca73ce6b96b532b95e4bfa9779180",
      "blockHash": "0xfc1dd3249585b593ad18822a95873c75779ccbe8a420b457be380b977fc38e87",
      "blockNumber": 47217,
      "transactionIndex": 0,
      "confirmations": null,
      "from": "0xe6A7a1d47ff21B6321162AEA7C6CB457D5476Bca",
      "gasPrice": {
        "_hex": "0xcc7215236"
      },
      "gasLimit": {
        "_hex": "0x5208"
      },
      "to": "0x7aAaa306d4a7Fd1696A82A66cc538D29f5af4e39",
      "value": {
        "_hex": "0x6a3e5db371f73750"
      },
      "nonce": 77,
      "data": "0x",
      "r": "0x0977161a4ce7c23a3b87675601787410c1796cdb21a9c3467ad3c615da49f45f",
      "s": "0x798194bc2f053891d6e54212b579438c48f2b73b9c3ae8564c933b1c899bba6f",
      "v": 27,
      "creates": null,
      "raw": "0xf86c4d850cc7215236825208947aaaa306d4a7fd1696a82a66cc538d29f5af4e39886a3e5db371f73750801ba00977161a4ce7c23a3b87675601787410c1796cdb21a9c3467ad3c615da49f45fa0798194bc2f053891d6e54212b579438c48f2b73b9c3ae8564c933b1c899bba6f",
      "networkId": 0,
      "chainId": 0
    }
  ]
}