{
  "hash": "0x565f92731d272a144907acfdf4ce8800b78fd1dedfd9f3a63f1a68f5a634dedc",
  "parentHash": "0xe6bd2347379c85b8c850dcf382fe2d59a2a3040b328d66faa61ff5c703f8863d",
  "number": 86665,
  "timestamp": 1439581169,
  "nonce": "0x220609a132db1e71",
  "difficulty": 2940219184251,
  "gasLimit": {
    "_hex": "0x2fefd8"
  },
  "gasUsed": {
    "_hex": "0xa410"
  },
  "miner": "0xe6A7a1d47ff21B6321162AEA7C6CB457D5476Bca",
  "extraData": "0x476574682f76312e302e312d38326566323666362f6c696e75782f676f312e34",
  "transactions": [
    {
      "hash": "0xd4fa13942385571298281d3ab30752aef1d3c4bf437c809de75ec0c419cedb2f",
      "blockHash": "0x565f92731d272a144907acfdf4ce8800b78fd1dedfd9f3a63f1a68f5a634dedc",
      "blockNumber": 86665,
      "transactionIndex": 0,
      "confirmations": null,
      "from": "0x8C93d2F70d641AC1F4cCc3287E2A1376Ce3c7DCC",
      "gasPrice": {
        "_hex": "0xd79eb94f6"
      },
      "gasLimit": {
        "_hex": "0x15f90"
      },
      "to": "0xF5B20ca0d57DFaB96f1695100df93BFF1B7EEe96",
      "value": {
        "_hex": "0xde0b6b3a7640000"
      },
      "nonce": 0,
      "data": "0x",
      "r": "0xbe88f36ec13681e5910167850451a7c753691bf1e44a3cd288eb76b9fbce5aec",
      "s": "0x739cc0179079d07fa53afbf365f04eb1436190a41e00206b9cb097bf20f68753",
      "v": 27,
      "creates": null,
      "raw": "0xf86d80850d79eb94f683015f9094f5b20ca0d57dfab96f1695100df93bff1b7eee96880de0b6b3a7640000801ba0be88f36ec13681e5910167850451a7c753691bf1e44a3cd288eb76b9fbce5aeca0739cc0179079d07fa53afbf365f04eb1436190a41e00206b9cb097bf20f68753",
      "networkId": 0,
      "chainId": 0
    },
    {
      "hash": "0x9c2d86a87012d2ea0227b00fc5ba670481b528d66251c1bb367c127190860cf6",
      "blockHash": "0x565f92731d272a144907acfdf4ce8800b78fd1dedfd9f3a63f1a68f5a634dedc",
      "blockNumber": 86665,
      "transactionIndex": 1,
      "confirmations": null,
      "from": "0x8C93d2F70d641AC1F4cCc3287E2A1376Ce3c7DCC",
      "gasPrice": {
        "_hex": "0xd35be058b"
      },
      "gasLimit": {
        "_hex": "0x15f90"
      },
      "to": "0xF5B20ca0d57DFaB96f1695100df93BFF1B7EEe96",
      "value": {
        "_hex": "0xde0b6b3a7640000"
      },
      "nonce": 1,
      "data": "0x",
      "r": "0x27809437105c4d5f2d57d51643d7264c60a5c4ebcf12a1274b501d6c8e27cbfe",
      "s": "0x32e9874ad1da5d95dede46d709d840a510d9ece6af1117d765038397a5a9e992",
      "v": 28,
      "creates": null,
      "raw": "0xf86d01850d35be058b83015f9094f5b20ca0d57dfab96f1695100df93bff1b7eee96880de0b6b3a7640000801ca027809437105c4d5f2d57d51643d7264c60a5c4ebcf12a1274b501d6c8e27cbfea032e9874ad1da5d95dede46d709d840a510d9ece6af1117d765038397a5a9e992",
      "networkId": 0,
      "chainId": 0
    }
  ]
}