{
  "hash": "0x7549887277630a31450d802a944e8f28397b1e1f15867b6c75633675323633e4",
  "parentHash": "0x63f2aae7cca40fe43b1791f8d2843cc86b90aebac7016a89ddafb0ede942589a",
  "number": 49109,
  "timestamp": 1438968167,
  "nonce": "0xf57799bc1cac7720",
  "difficulty": 1480724379432,
  "gasLimit": {
    "_hex": "0x260d9"
  },
  "gasUsed": {
    "_hex": "0x1a154"
  },
  "miner": "0xf927a40C8B7F6E07c5af7FA2155B4864a4112B13",
  "extraData": "0x476574682f76312e302e312f6c696e75782f676f312e342e32",
  "transactions": [
    {
      "hash": "0x36836bc91504bb27ec2630a6b0544cf9e18d1822d19d66b55158538906b15f94",
      "blockHash": "0x7549887277630a31450d802a944e8f28397b1e1f15867b6c75633675323633e4",
      "blockNumber": 49109,
      "transactionIndex": 0,
      "confirmations": null,
      "from": "0x74Ed33Acf43F35b98c9230B9E6642ECb5330839e",
      "gasPrice": {
        "_hex": "0x110c8f7d8de"
      },
      "gasLimit": {
        "_hex": "0xc350"
      },
      "to": "0x2910543Af39abA0Cd09dBb2D50200b3E800A63D2",
      "value": {
        "_hex": "0x24521e2a3017b80000"
      },
      "nonce": 1,
      "data": "0x454e35544456395452",
      "r": "0xae0e1a916408f80e27da6f5be8d21f2d78e2769a790b1d07288747c1dd755c52",
      "s": "0x4c13a916c35fc982beb658a525628af7e9328bdecf9fb106aa37ee4b3f24455c",
      "v": 27,
      "creates": null,
      "raw": "0xf87701860110c8f7d8de82c350942910543af39aba0cd09dbb2d50200b3e800a63d28924521e2a3017b8000089454e355444563954521ba0ae0e1a916408f80e27da6f5be8d21f2d78e2769a790b1d07288747c1dd755c52a04c13a916c35fc982beb658a525628af7e9328bdecf9fb106aa37ee4b3f24455c",
      "networkId": 0,
      "chainId": 0
    },
    {
      "hash": "0x56da511a93c97918d36c9f14d65779e438d4aa4bd977ffd313f7e865eaccbcbd",
      "blockHash": "0x7549887277630a31450d802a944e8f28397b1e1f15867b6c75633675323633e4",
      "blockNumber": 49109,
      "transactionIndex": 1,
      "confirmations": null,
      "from": "0x0968ee5A378F8cAdb3BAFdbED1D19AAaCf936711",
      "gasPrice": {
        "_hex": "0xfecbb08be7"
      },
      "gasLimit": {
        "_hex": "0x15f90"
      },
      "to": "0x2910543Af39abA0Cd09dBb2D50200b3E800A63D2",
      "value": {
        "_hex": "0xd8d726b7177a80000"
      },
      "nonce": 0,
      "data": "0x454e42304a42363352",
      "r": "0xaac2a01358d832d9ca37387a511c80f2a06610e55fb19cda2b3a40de09be32a4",
      "s": "0x46346df635f5fb9e97cbab001e49b00d5e6d8190eff049cb0d4c72016d7a9b0f",
      "v": 27,
      "creates": null,
      "raw": "0xf8778085fecbb08be783015f90942910543af39aba0cd09dbb2d50200b3e800a63d2890d8d726b7177a8000089454e42304a423633521ba0aac2a01358d832d9ca37387a511c80f2a06610e55fb19cda2b3a40de09be32a4a046346df635f5fb9e97cbab001e49b00d5e6d8190eff049cb0d4c72016d7a9b0f",
      "networkId": 0,
      "chainId": 0
    },
    {
      "hash": "0xb4b836183334510812525c79ee13722783452716f77b3fd5e4b1ec5a21f7a81e",
      "blockHash": "0x7549887277630a31450d802a944e8f28397b1e1f15867b6c75633675323633e4",
      "blockNumber": 49109,
      "transactionIndex": 2,
      "confirmations": null,
      "from": "0xddBd2B932c763bA5b1b7AE3B362eac3e8d40121A",
      "gasPrice": {
        "_hex": "0x746a528800"
      },
      "gasLimit": {
        "_hex": "0x59d8"
      },
      "to": "0x2910543Af39abA0Cd09dBb2D50200b3E800A63D2",
      "value": {
        "_hex": "0x359c7031517e8f0000"
      },
      "nonce": 3,
      "data": "0x454e34354139455138",
      "r": "0x21eea8cf53bf5b91dcd83e1d54d4145809fd4537097a610e94fe00363e568479",
      "s": "0x1d250b4c7cca3b6eac677c57e0f4584b1734ce83146d11f39d16372b619098e1",
      "v": 28,
      "creates": null,
      "raw": "0xf8760385746a5288008259d8942910543af39aba0cd09dbb2d50200b3e800a63d289359c7031517e8f000089454e343541394551381ca021eea8cf53bf5b91dcd83e1d54d4145809fd4537097a610e94fe00363e568479a01d250b4c7cca3b6eac677c57e0f4584b1734ce83146d11f39d16372b619098e1",
      "networkId": 0,
      "chainId": 0
    },
    {
      "hash": "0xf09540c3931f8d0df025abf57b9ef45576c1016d2877c351fbcc9d396b93d520",
      "blockHash": "0x7549887277630a31450d802a944e8f28397b1e1f15867b6c75633675323633e4",
      "blockNumber": 49109,
      "transactionIndex": 3,
      "confirmations": null,
      "from": "0x671110d96aAFf11523CC546Bf9940EedFfB2faF7",
      "gasPrice": {
        "_hex": "0x3a64b7b4c0"
      },
      "gasLimit": {
        "_hex": "0x15f90"
      },
      "to": "0x970510Bc87A686a93E9fF410631eb6CE42A761eE",
      "value": {
        "_hex": "0xc249fdd327780000"
      },
      "nonce": 9,
      "data": "0x",
      "r": "0x9dc7d0d083d828ca83f5748b23aea33b7249c56192bebf75dc74b045e5e2d9c7",
      "s": "0x6922f9ca604861f7823e6fa848dbf54df12bd262b671c3c30bd5e4b80dceab4a",
      "v": 28,
      "creates": null,
      "raw": "0xf86d09853a64b7b4c083015f9094970510bc87a686a93e9ff410631eb6ce42a761ee88c249fdd327780000801ca09dc7d0d083d828ca83f5748b23aea33b7249c56192bebf75dc74b045e5e2d9c7a06922f9ca604861f7823e6fa848dbf54df12bd262b671c3c30bd5e4b80dceab4a",
      "networkId": 0,
      "chainId": 0
    },
    {
      "hash": "0x56249072b2ee1af8ee52f1fe260b0c4185f9c11d48f8f7713dcd6ba722307275",
      "blockHash": "0x7549887277630a31450d802a944e8f28397b1e1f15867b6c75633675323633e4",
      "blockNumber": 49109,
      "transactionIndex": 4,
      "confirmations": null,
      "from": "0x970510Bc87A686a93E9fF410631eb6CE42A761eE",
      "gasPrice": {
        "_hex": "0xce81a13d3"
      },
      "gasLimit": {
        "_hex": "0x5208"
      },
      "to": "0x32Be343B94f860124dC4fEe278FDCBD38C102D88",
      "value": {
        "_hex": "0x35659ad67e94bc0000"
      },
      "nonce": 1,
      "data": "0x",
      "r": "0xc0417b81913f99184d1eb5964f96961964ac1344397cba61ea8e6e4f65f0bebc",
      "s": "0x32601ccc547b32bde6762fb3846ea26beb0bb786943a64e269aa0408321c8c4b",
      "v": 27,
      "creates": null,
      "raw": "0xf86d01850ce81a13d38252089432be343b94f860124dc4fee278fdcbd38c102d888935659ad67e94bc0000801ba0c0417b81913f99184d1eb5964f96961964ac1344397cba61ea8e6e4f65f0bebca032601ccc547b32bde6762fb3846ea26beb0bb786943a64e269aa0408321c8c4b",
      "networkId": 0,
      "chainId": 0
    }
  ]
}