{
  "hash": "0xe5d737ef1510e3ce0e1fe3b9ef0bc968b98c471ae66c509a40e13f8b14db5581",
  "parentHash": "0xd3f55a4d3e9da53cf336c60ec9caaee5e354e581d349c935c2545ad44c40e402",
  "number": 84540,
  "timestamp": 1439551044,
  "nonce": "0xff7b44b10b03e2d5",
  "difficulty": 2576451904402,
  "gasLimit": {
    "_hex": "0x2fefd8"
  },
  "gasUsed": {
    "_hex": "0x5208"
  },
  "miner": "0xe6A7a1d47ff21B6321162AEA7C6CB457D5476Bca",
  "extraData": "0x476574682f76312e302e312d38326566323666362f6c696e75782f676f312e34",
  "transactions": [
    {
      "hash": "0xe3769f934c2dc73e7bfaad8d950a785b78e44f19891831eea6064074e0d5e3fb",
      "blockHash": "0xe5d737ef1510e3ce0e1fe3b9ef0bc968b98c471ae66c509a40e13f8b14db5581",
      "blockNumber": 84540,
      "transactionIndex": 0,
      "confirmations": null,
      "from": "0x89Ea4C778D3f3D6BE70883BB9995D41Bd4c453Ab",
      "gasPrice": {
        "_hex": "0xda7af229d"
      },
      "gasLimit": {
        "_hex": "0x5208"
      },
      "to": "0x32Be343B94f860124dC4fEe278FDCBD38C102D88",
      "value": {
        "_hex": "0xddc4a7675103400"
      },
      "nonce": 0,
      "data": "0x",
      "r": "0x3cb76f92b038eda6948e0c0a5e7df963db9c0b29d2441eb3100b463df634af0c",
      "s": "0x41a1793cb08c67bb7b40c93675a847bec399eb30a610a1052f93a9f909b5a1c3",
      "v": 27,
      "creates": null,
      "raw": "0xf86c80850da7af229d8252089432be343b94f860124dc4fee278fdcbd38c102d88880ddc4a7675103400801ba03cb76f92b038eda6948e0c0a5e7df963db9c0b29d2441eb3100b463df634af0ca041a1793cb08c67bb7b40c93675a847bec399eb30a610a1052f93a9f909b5a1c3",
      "networkId": 0,
      "chainId": 0
    }
  ]
}