{
  "hash": "0x2799636738e0f941abf7232ff8db02cdf0c60a9ce970481472494a0ffa9dc16a",
  "parentHash": "0x809b21b0efd3d8473ce6f7c3ba6257908423232da65b1152ef5ac5d27331183d",
  "number": 75951,
  "timestamp": 1439412431,
  "nonce": "0xd5138ccd8ec5f928",
  "difficulty": 2222230269074,
  "gasLimit": {
    "_hex": "0x2fefd8"
  },
  "gasUsed": {
    "_hex": "0xf618"
  },
  "miner": "0x9746c7e1ef2bd21FF3997fa467593a89cb852BD0",
  "extraData": "0x476574682f76312e302e312f77696e646f77732f676f312e342e32",
  "transactions": [
    {
      "hash": "0x8534d385e3bc3593298079d6373bb0a3c08f375c3c2436c4e3f5d5eeb9add419",
      "blockHash": "0x2799636738e0f941abf7232ff8db02cdf0c60a9ce970481472494a0ffa9dc16a",
      "blockNumber": 75951,
      "transactionIndex": 0,
      "confirmations": null,
      "from": "0x40B9b889A21Ff1534d018D71Dc406122EBcf3F5A",
      "gasPrice": {
        "_hex": "0x1077408d882"
      },
      "gasLimit": {
        "_hex": "0x15f90"
      },
      "to": "0xE4bc843d8789F55f500d487ffcc451f4cbd25aec",
      "value": {
        "_hex": "0x7ce66c50e2840000"
      },
      "nonce": 10,
      "data": "0x",
      "r": "0xe9fdb26e38118ffc47e7fc68452b46760818fbff3e1e0ac26040c15add91beef",
      "s": "0x3b1efe8c09651ad19356790b690e7949743940e0687dd40c1ed00ab82de6a0f2",
      "v": 27,
      "creates": null,
      "raw": "0xf86e0a8601077408d88283015f9094e4bc843d8789f55f500d487ffcc451f4cbd25aec887ce66c50e2840000801ba0e9fdb26e38118ffc47e7fc68452b46760818fbff3e1e0ac26040c15add91beefa03b1efe8c09651ad19356790b690e7949743940e0687dd40c1ed00ab82de6a0f2",
      "networkId": 0,
      "chainId": 0
    },
    {
      "hash": "0x3f510c3fd1e4f80de575880980e972eddae85e26aa154fb7a8aeed2da97a0b58",
      "blockHash": "0x2799636738e0f941abf7232ff8db02cdf0c60a9ce970481472494a0ffa9dc16a",
      "blockNumber": 75951,
      "transactionIndex": 1,
      "confirmations": null,
      "from": "0x8F79f76381Aad7B98C19aF55eE75fdfEeb012211",
      "gasPrice": {
        "_hex": "0xd9f7ec909"
      },
      "gasLimit": {
        "_hex": "0x5208"
      },
      "to": "0x32Be343B94f860124dC4fEe278FDCBD38C102D88",
      "value": {
        "_hex": "0x63bedb532dad70000"
      },
      "nonce": 10,
      "data": "0x",
      "r": "0x6e8701f08e57707534d41324ac12842866838aa7585ca4d5f5d7587a801bcb9f",
      "s": "0x5816b51c899ba173207a0c732e1c5748e994e2b1216a208818c82182cc29ced6",
      "v": 28,
      "creates": null,
      "raw": "0xf86d0a850d9f7ec9098252089432be343b94f860124dc4fee278fdcbd38c102d8889063bedb532dad70000801ca06e8701f08e57707534d41324ac12842866838aa7585ca4d5f5d7587a801bcb9fa05816b51c899ba173207a0c732e1c5748e994e2b1216a208818c82182cc29ced6",
      "networkId": 0,
      "chainId": 0
    },
    {
      "hash": "0x074c6b5824010c3297dd287e78bb196eb4325c6f589e6042dfc201647d2c58d0",
      "blockHash": "0x2799636738e0f941abf7232ff8db02cdf0c60a9ce970481472494a0ffa9dc16a",
      "blockNumber": 75951,
      "transactionIndex": 2,
      "confirmations": null,
      "from": "0x029b539130345336FA435C807F08B86a344A1BFe",
      "gasPrice": {
        "_hex": "0xd7cb0a746"
      },
      "gasLimit": {
        "_hex": "0x5208"
      },
      "to": "0x32Be343B94f860124dC4fEe278FDCBD38C102D88",
      "value": {
        "_hex": "0xe6e8d56fec217800"
      },
      "nonce": 3,
      "data": "0x",
      "r": "0x0fa3b0d31fa4da6fe8e0b5485d27b4d310feaca77bdce837801fb366af118efd",
      "s": "0x57738af36391b6160174a501215fe5e7d796aa4d36a00195857ca4b5c7e72e88",
      "v": 28,
      "creates": null,
      "raw": "0xf86c03850d7cb0a7468252089432be343b94f860124dc4fee278fdcbd38c102d8888e6e8d56fec217800801ca00fa3b0d31fa4da6fe8e0b5485d27b4d310feaca77bdce837801fb366af118efda057738af36391b6160174a501215fe5e7d796aa4d36a00195857ca4b5c7e72e88",
      "networkId": 0,
      "chainId": 0
    }
  ]
}