{
  "hash": "0x051d28a4982a2abf6e5ba7fea063956fdfd7a50020f01a070e218e925f44c206",
  "parentHash": "0x11613c7bb9d35f521ae748a1e71a56cb0a9a488de192dbdbfd137450aba9d411",
  "number": 86314,
  "timestamp": 1439576616,
  "nonce": "0x6f765d7ea37da07f",
  "difficulty": 2848486184247,
  "gasLimit": {
    "_hex": "0x2fefd8"
  },
  "gasUsed": {
    "_hex": "0x546c"
  },
  "miner": "0x790b8a3cE86E707ED0eD32bF89B3269692a23CC1",
  "extraData": "0xd783010001844765746887676f312e342e32856c696e7578",
  "transactions": [
    {
      "hash": "0xa02f00c8fc63ce3cf7a0932d29cd34d6a06ec69760d1e1b02c2a3a2b978dd122",
      "blockHash": "0x051d28a4982a2abf6e5ba7fea063956fdfd7a50020f01a070e218e925f44c206",
      "blockNumber": 86314,
      "transactionIndex": 0,
      "confirmations": null,
      "from": "0x604E9477EbF4727C745BCABBEDcB6ccf29994022",
      "gasPrice": {
        "_hex": "0x110c8f7d8de"
      },
      "gasLimit": {
        "_hex": "0xc350"
      },
      "to": "0x2910543Af39abA0Cd09dBb2D50200b3E800A63D2",
      "value": {
        "_hex": "0x1b1a333426c08b0000"
      },
      "nonce": 1,
      "data": "0x454e52315730413830",
      "r": "0xdf928fbab9bf2cf86881bb1c8043a783809210a4e1baeb497c610349021a8bf0",
      "s": "0x369bc192a254bac50ed65f6145910c06c49fe35a372ba1b735be590a4bc2056d",
      "v": 27,
      "creates": null,
      "raw": "0xf87701860110c8f7d8de82c350942910543af39aba0cd09dbb2d50200b3e800a63d2891b1a333426c08b000089454e523157304138301ba0df928fbab9bf2cf86881bb1c8043a783809210a4e1baeb497c610349021a8bf0a0369bc192a254bac50ed65f6145910c06c49fe35a372ba1b735be590a4bc2056d",
      "networkId": 0,
      "chainId": 0
    }
  ]
}