{
  "hash": "0x39ec9e859c7f69dbea008f48a41d150cc95527ae588982f76759dc3aaf6cc84b",
  "parentHash": "0x09e0e06eb50e789c058956becdec8f638cb0c3a01720a0731e18edce01599b3e",
  "number": 110878,
  "timestamp": 1439981110,
  "nonce": "0xbce8714069966a76",
  "difficulty": 4398921807063,
  "gasLimit": {
    "_hex": "0x2fefd8"
  },
  "gasUsed": {
    "_hex": "0x546c"
  },
  "miner": "0x55bAf64fc9eAccFFd7Cc643BB61142E1C6ac093e",
  "extraData": "0x",
  "transactions": [
    {
      "hash": "0xee385a5abf168bb5a2f87b70ced9558ec59630239590998846fbbdfcf5c5a286",
      "blockHash": "0x39ec9e859c7f69dbea008f48a41d150cc95527ae588982f76759dc3aaf6cc84b",
      "blockNumber": 110878,
      "transactionIndex": 0,
      "confirmations": null,
      "from": "0xE7bD36a7CF4F1F8896378D41177BEf637075a1eD",
      "gasPrice": {
        "_hex": "0xd7013dc65"
      },
      "gasLimit": {
        "_hex": "0x55f0"
      },
      "to": "0x2910543Af39abA0Cd09dBb2D50200b3E800A63D2",
      "value": {
        "_hex": "0xde0b6b3a76400000"
      },
      "nonce": 3,
      "data": "0x454e4d573432434547",
      "r": "0xa7fe21ecaeb7bef270f9bb4a715a64d8dbeeec338944a32652ec00d88662fd8d",
      "s": "0x1e9acf4808cea033b5bee0602987aa55a267685517ff2dfa2f94e1297101ef30",
      "v": 27,
      "creates": null,
      "raw": "0xf87503850d7013dc658255f0942910543af39aba0cd09dbb2d50200b3e800a63d288de0b6b3a7640000089454e4d5734324345471ba0a7fe21ecaeb7bef270f9bb4a715a64d8dbeeec338944a32652ec00d88662fd8da01e9acf4808cea033b5bee0602987aa55a267685517ff2dfa2f94e1297101ef30",
      "networkId": 0,
      "chainId": 0
    }
  ]
}