{
  "hash": "0x0ae5041f419230e37b67459837e60aab9dc0298fea0ff857e884f2e33ec8e0ab",
  "parentHash": "0x9c54f57e5fa7eb5c7c96006e5931e62ac36be1f95705ae674d516ec21e1aa75d",
  "number": 107904,
  "timestamp": 1439930639,
  "nonce": "0x19f4df4a2d8c140c",
  "difficulty": 4391895323001,
  "gasLimit": {
    "_hex": "0x2fefd8"
  },
  "gasUsed": {
    "_hex": "0x5208"
  },
  "miner": "0xEF247E639d49461D25F57e9362CadE3120910Ce0",
  "extraData": "0x476574682f76312e302e312f6c696e75782f676f312e342e32",
  "transactions": [
    {
      "hash": "0x80408a8e8189406e3a8211d6c99f68f7ce998dfb71ed59b2251ed940ee5914f8",
      "blockHash": "0x0ae5041f419230e37b67459837e60aab9dc0298fea0ff857e884f2e33ec8e0ab",
      "blockNumber": 107904,
      "transactionIndex": 0,
      "confirmations": null,
      "from": "0x924b9ac94Fb8352e2Bb405Da728c58d4D4985895",
      "gasPrice": {
        "_hex": "0xd641f460d"
      },
      "gasLimit": {
        "_hex": "0x15f90"
      },
      "to": "0xf2cC0eEAAAeD313542CB262B0B8c3972425143f0",
      "value": {
        "_hex": "0x8aa39c121a270000"
      },
      "nonce": 1,
      "data": "0x",
      "r": "0x80d07be59aa52602773763f0de1bb0cd0c8752870fe33687f8eb83729cc2b676",
      "s": "0x6ab9753a880323224a3e273f7a02b494fad861daf9cd37876b79382f5074c116",
      "v": 28,
      "creates": null,
      "raw": "0xf86d01850d641f460d83015f9094f2cc0eeaaaed313542cb262b0b8c3972425143f0888aa39c121a270000801ca080d07be59aa52602773763f0de1bb0cd0c8752870fe33687f8eb83729cc2b676a06ab9753a880323224a3e273f7a02b494fad861daf9cd37876b79382f5074c116",
      "networkId": 0,
      "chainId": 0
    }
  ]
}