{
  "hash": "0x02b332f65aec5d13eb5028f79d7a94bd889437a1ed0c77c5bd5033a2a63669b3",
  "parentHash": "0x57e2e412709609a2300c2083af912bb1e22745a26faf92493069e11245a4cad4",
  "number": 82515,
  "timestamp": 1439520659,
  "nonce": "0x13ca94fe2c4255ab",
  "difficulty": 2375271258878,
  "gasLimit": {
    "_hex": "0x2fefd8"
  },
  "gasUsed": {
    "_hex": "0x5208"
  },
  "miner": "0xFf7CAe450435b0BF2776edf6dFe650A0D45e2D7f",
  "extraData": "0x476574682f76312e302e312d38326566323666362f6c696e75782f676f312e34",
  "transactions": [
    {
      "hash": "0xcddb44320a3bd383dab3f6ce1ed3eef8fe411b7e18207bbb6964c896ede6c34c",
      "blockHash": "0x02b332f65aec5d13eb5028f79d7a94bd889437a1ed0c77c5bd5033a2a63669b3",
      "blockNumber": 82515,
      "transactionIndex": 0,
      "confirmations": null,
      "from": "0x785c79a2f4C948DD7feBF1360D8A228c51A4211E",
      "gasPrice": {
        "_hex": "0xe0542eef0"
      },
      "gasLimit": {
        "_hex": "0x15f90"
      },
      "to": "0x27A2f708f13CFE24f8e5d6E8b7D8E971D2449Ba0",
      "value": {
        "_hex": "0xb469471f80140000"
      },
      "nonce": 0,
      "data": "0x",
      "r": "0xe441b3e6bef4aacd4774c7c4ff8a275a657e333c7ff3637ab7c09bdf0dbaa1ad",
      "s": "0x4e14a803055b3dd7d1c4679ec6bbe6eabb3849bbdaaa863b41162286859d8aa8",
      "v": 28,
      "creates": null,
      "raw": "0xf86d80850e0542eef083015f909427a2f708f13cfe24f8e5d6e8b7d8e971d2449ba088b469471f80140000801ca0e441b3e6bef4aacd4774c7c4ff8a275a657e333c7ff3637ab7c09bdf0dbaa1ada04e14a803055b3dd7d1c4679ec6bbe6eabb3849bbdaaa863b41162286859d8aa8",
      "networkId": 0,
      "chainId": 0
    }
  ]
}