{
  "hash": "0xbe5d840eb50fe21c091b9cd1764c3f940019efb022e67e50b3a6994027e4feb7",
  "parentHash": "0x9e24f1f88bc61cacc026fbfee784e50421d5b4261b54016d47249d9596b8abbd",
  "number": 89979,
  "timestamp": 1439631960,
  "nonce": "0x77fa29dc24496ca6",
  "difficulty": 3366357400259,
  "gasLimit": {
    "_hex": "0x2fefd8"
  },
  "gasUsed": {
    "_hex": "0x5208"
  },
  "miner": "0xf8E0CA3Ed80bd541b94BEdCf259e8CF2141A9523",
  "extraData": "0x476574682f76312e302e312f77696e646f77732f676f312e342e32",
  "transactions": [
    {
      "hash": "0xa4a412654b12a65b84fcc3dd4251f63fc6f7591e4bd08ba0f9c286220b55a231",
      "blockHash": "0xbe5d840eb50fe21c091b9cd1764c3f940019efb022e67e50b3a6994027e4feb7",
      "blockNumber": 89979,
      "transactionIndex": 0,
      "confirmations": null,
      "from": "0xBB33a4b72d92FA335a3b591Ce7eE217f7a7338C1",
      "gasPrice": {
        "_hex": "0xd986b66c0"
      },
      "gasLimit": {
        "_hex": "0x5208"
      },
      "to": "0x32Be343B94f860124dC4fEe278FDCBD38C102D88",
      "value": {
        "_hex": "0x181c91575a84be000"
      },
      "nonce": 6,
      "data": "0x",
      "r": "0x9899ea1e7643b46ebce5a9197d3635bc82dd99a5853e272e02e548f758d9bf2d",
      "s": "0x4193cf96eedb70c0c7c3ae12224988397a99eba5d5116fea30d07ecb8823a6bf",
      "v": 27,
      "creates": null,
      "raw": "0xf86d06850d986b66c08252089432be343b94f860124dc4fee278fdcbd38c102d88890181c91575a84be000801ba09899ea1e7643b46ebce5a9197d3635bc82dd99a5853e272e02e548f758d9bf2da04193cf96eedb70c0c7c3ae12224988397a99eba5d5116fea30d07ecb8823a6bf",
      "networkId": 0,
      "chainId": 0
    }
  ]
}