{
  "hash": "0xc1a6c76b6653c300f4a20fd08ecc2a8eceaac28ce69e696dd75b703752a6596b",
  "parentHash": "0xda885aa6f1c56334e362bd1c5662316632c2f69d590a45d4a2d816ca7ed3eab1",
  "number": 101525,
  "timestamp": 1439824256,
  "nonce": "0xed2390d22e7b3640",
  "difficulty": 3865547498792,
  "gasLimit": {
    "_hex": "0x2fefd8"
  },
  "gasUsed": {
    "_hex": "0x5208"
  },
  "miner": "0x88D74a59454F6cF3B51ef6b9136AFb6b9D405A88",
  "extraData": "0x476574682f76312e302e312d38326566323666362f6c696e75782f676f312e34",
  "transactions": [
    {
      "hash": "0xc735f7228e187bc8c4674940bcec59b466aa92d8f66823b9b07008c7c2852232",
      "blockHash": "0xc1a6c76b6653c300f4a20fd08ecc2a8eceaac28ce69e696dd75b703752a6596b",
      "blockNumber": 101525,
      "transactionIndex": 0,
      "confirmations": null,
      "from": "0x2e1A591a3Bd5FCE3c1E095c205Bd202C29541e70",
      "gasPrice": {
        "_hex": "0xdc51adde3"
      },
      "gasLimit": {
        "_hex": "0x15f90"
      },
      "to": "0xE37619a47076d668A13AB535aA1c01E8a32541EF",
      "value": {
        "_hex": "0x560ad326a76c0000"
      },
      "nonce": 5,
      "data": "0x",
      "r": "0xe9ac2cbe25b3384d6ce09f21fa194d346bb4930eddd1855d3abd5264fad103a2",
      "s": "0x357915855d5fd3fdd72c16decbc347d7c714c11e7b903109ee39a9f0d8bc56ba",
      "v": 28,
      "creates": null,
      "raw": "0xf86d05850dc51adde383015f9094e37619a47076d668a13ab535aa1c01e8a32541ef88560ad326a76c0000801ca0e9ac2cbe25b3384d6ce09f21fa194d346bb4930eddd1855d3abd5264fad103a2a0357915855d5fd3fdd72c16decbc347d7c714c11e7b903109ee39a9f0d8bc56ba",
      "networkId": 0,
      "chainId": 0
    }
  ]
}