{
  "hash": "0xb8f1832b1c7b70295f0e17a75e49d7e28fce97248c82679a47379bd1124a38de",
  "parentHash": "0x10dc83334c327083352425c76131e029c23ca9f3fabd5bf60e95cbe59adde4af",
  "number": 89854,
  "timestamp": 1439630176,
  "nonce": "0xe40cf7cecaea4b9e",
  "difficulty": 3341841329984,
  "gasLimit": {
    "_hex": "0x2fefd8"
  },
  "gasUsed": {
    "_hex": "0x5208"
  },
  "miner": "0x47ff6576639c2e94762eA5443978D7681C0E78DC",
  "extraData": "0x476574682f76312e302e312f6c696e75782f676f312e342e32",
  "transactions": [
    {
      "hash": "0xaea0e6a292501f973bab87cd163ec43c48c38aa248a9a4c9f81a1e5afbde11fb",
      "blockHash": "0xb8f1832b1c7b70295f0e17a75e49d7e28fce97248c82679a47379bd1124a38de",
      "blockNumber": 89854,
      "transactionIndex": 0,
      "confirmations": null,
      "from": "0x03bbfbb9d362b4B1C6a113BE654A0190Fc6aEa80",
      "gasPrice": {
        "_hex": "0xdcda1653a"
      },
      "gasLimit": {
        "_hex": "0x5208"
      },
      "to": "0x32Be343B94f860124dC4fEe278FDCBD38C102D88",
      "value": {
        "_hex": "0x102b1823cba64a000"
      },
      "nonce": 3,
      "data": "0x",
      "r": "0x8e488ec5743c8365ca43c60f79799e4091f97b4ab6b799a94f9f9688ad368764",
      "s": "0x5640c0306f858d35590579b9ece01bb1e5d32798a3ca0d49d80c42feafb9c15f",
      "v": 28,
      "creates": null,
      "raw": "0xf86d03850dcda1653a8252089432be343b94f860124dc4fee278fdcbd38c102d88890102b1823cba64a000801ca08e488ec5743c8365ca43c60f79799e4091f97b4ab6b799a94f9f9688ad368764a05640c0306f858d35590579b9ece01bb1e5d32798a3ca0d49d80c42feafb9c15f",
      "networkId": 0,
      "chainId": 0
    }
  ]
}