{
  "hash": "0x7821d6fdf21945d117cafcbf44161493a7be1867a948761895969c79481bff03",
  "parentHash": "0x8834785d9da3efec86e2217d28997f7bc88732f4706cb362613ca981b0e586b8",
  "number": 86329,
  "timestamp": 1439576762,
  "nonce": "0xe16a27eee285220a",
  "difficulty": 2858233768563,
  "gasLimit": {
    "_hex": "0x2fefd8"
  },
  "gasUsed": {
    "_hex": "0xa410"
  },
  "miner": "0x790b8a3cE86E707ED0eD32bF89B3269692a23CC1",
  "extraData": "0xd783010001844765746887676f312e342e32856c696e7578",
  "transactions": [
    {
      "hash": "0x6d4da659e422472fbe979cde27bdf820ed5a8d9a41c9ea6fdf4600de9ca8c855",
      "blockHash": "0x7821d6fdf21945d117cafcbf44161493a7be1867a948761895969c79481bff03",
      "blockNumber": 86329,
      "transactionIndex": 0,
      "confirmations": null,
      "from": "0x2910543Af39abA0Cd09dBb2D50200b3E800A63D2",
      "gasPrice": {
        "_hex": "0xcddf8f368"
      },
      "gasLimit": {
        "_hex": "0x5208"
      },
      "to": "0x70302c2fD0795F82d49fFfcbe0B4aC8B8af9a4bA",
      "value": {
        "_hex": "0x2b5d1eb9d79a78000"
      },
      "nonce": 660,
      "data": "0x",
      "r": "0x28ac39f61c719f4fff9ec9b86f0a0e0ff97bf26adfd0b509f93aab53edd9e34d",
      "s": "0x69f21ded5410eee5bdf069177d12ea3e438e57621b2674e1bfacfa782800ccf9",
      "v": 28,
      "creates": null,
      "raw": "0xf86f820294850cddf8f3688252089470302c2fd0795f82d49fffcbe0b4ac8b8af9a4ba8902b5d1eb9d79a78000801ca028ac39f61c719f4fff9ec9b86f0a0e0ff97bf26adfd0b509f93aab53edd9e34da069f21ded5410eee5bdf069177d12ea3e438e57621b2674e1bfacfa782800ccf9",
      "networkId": 0,
      "chainId": 0
    },
    {
      "hash": "0x2b43f891f50e51f6a19db71e5e18030cd71af1286c98268449345042c9a92646",
      "blockHash": "0x7821d6fdf21945d117cafcbf44161493a7be1867a948761895969c79481bff03",
      "blockNumber": 86329,
      "transactionIndex": 1,
      "confirmations": null,
      "from": "0x2910543Af39abA0Cd09dBb2D50200b3E800A63D2",
      "gasPrice": {
        "_hex": "0xcddf8f368"
      },
      "gasLimit": {
        "_hex": "0x5208"
      },
      "to": "0x09D6b0F8DE057aC9116C0f321eA4017444de0801",
      "value": {
        "_hex": "0x3635b7ea4ca6bf8000"
      },
      "nonce": 661,
      "data": "0x",
      "r": "0x6c5235ea11ad8b02467b949d30b2a88068ac42e839fe620e1642acf547704bdd",
      "s": "0x74c03f50c0d266a9061f4b58f21c24b4fcb7daafefa6f4dbe561b919be2ada18",
      "v": 27,
      "creates": null,
      "raw": "0xf86f820295850cddf8f3688252089409d6b0f8de057ac9116c0f321ea4017444de0801893635b7ea4ca6bf8000801ba06c5235ea11ad8b02467b949d30b2a88068ac42e839fe620e1642acf547704bdda074c03f50c0d266a9061f4b58f21c24b4fcb7daafefa6f4dbe561b919be2ada18",
      "networkId": 0,
      "chainId": 0
    }
  ]
}