{
  "hash": "0x33261dfd7788b0036c9077331343723c83c53a454ae6c7f7d8330f834241a73e",
  "parentHash": "0x8eb76ce2224f792580682ebc4e9526c2650a90f8fa22b4fbd8c874389aa4798c",
  "number": 82705,
  "timestamp": 1439523891,
  "nonce": "0x669a2bb20a27b8ba",
  "difficulty": 2370582890601,
  "gasLimit": {
    "_hex": "0x2fefd8"
  },
  "gasUsed": {
    "_hex": "0x14d70"
  },
  "miner": "0x9D49F602b0fdb924Bd63DDE2Bd0907E4A07c63a7",
  "extraData": "0x476574682f76312e302e312f6c696e75782f676f312e342e32",
  "transactions": [
    {
      "hash": "0x834bfdf026fdb6210cb174cc26a7aaa06485f1d484fdf63a3e58ff81881d4a92",
      "blockHash": "0x33261dfd7788b0036c9077331343723c83c53a454ae6c7f7d8330f834241a73e",
      "blockNumber": 82705,
      "transactionIndex": 0,
      "confirmations": null,
      "from": "0x82A15CeF1d6c8260EAf159eA3f0180D8677DcE1c",
      "gasPrice": {
        "_hex": "0xd7d40ace3"
      },
      "gasLimit": {
        "_hex": "0x55f0"
      },
      "to": "0x40B9b889A21Ff1534d018D71Dc406122EBcf3F5A",
      "value": {
        "_hex": "0x56bc75e2d63100000"
      },
      "nonce": 3,
      "data": "0x5246454c553137333631",
      "r": "0xe2c1fa87c11b454646e3c89937a9de997f938a9e878664ba8af248e92a435d37",
      "s": "0x660e0051ee630ed8a396065df148ecc2107054c20210ea79e16203227b4288b4",
      "v": 28,
      "creates": null,
      "raw": "0xf87703850d7d40ace38255f09440b9b889a21ff1534d018d71dc406122ebcf3f5a89056bc75e2d631000008a5246454c5531373336311ca0e2c1fa87c11b454646e3c89937a9de997f938a9e878664ba8af248e92a435d37a0660e0051ee630ed8a396065df148ecc2107054c20210ea79e16203227b4288b4",
      "networkId": 0,
      "chainId": 0
    },
    {
      "hash": "0xd3b96980ea2b5d4f8a006a77369623b3ec8af5b01f87536b41df550acfa8e7c6",
      "blockHash": "0x33261dfd7788b0036c9077331343723c83c53a454ae6c7f7d8330f834241a73e",
      "blockNumber": 82705,
      "transactionIndex": 1,
      "confirmations": null,
      "from": "0x82A15CeF1d6c8260EAf159eA3f0180D8677DcE1c",
      "gasPrice": {
        "_hex": "0xd7d40ace3"
      },
      "gasLimit": {
        "_hex": "0x55f0"
      },
      "to": "0x40B9b889A21Ff1534d018D71Dc406122EBcf3F5A",
      "value": {
        "_hex": "0x6aaf7c8516d0c0000"
      },
      "nonce": 4,
      "data": "0x5246454c553137333631",
      "r": "0x30f4c173b6635abd9812590228c9284cda60a52866c855cbf4c99bdc996335e6",
      "s": "0x6cd2cccf9e20b05a79afc7cbe1f783d81e2bde324b5ba1d7d83da5a0fe61977a",
      "v": 27,
      "creates": null,
      "raw": "0xf87704850d7d40ace38255f09440b9b889a21ff1534d018d71dc406122ebcf3f5a8906aaf7c8516d0c00008a5246454c5531373336311ba030f4c173b6635abd9812590228c9284cda60a52866c855cbf4c99bdc996335e6a06cd2cccf9e20b05a79afc7cbe1f783d81e2bde324b5ba1d7d83da5a0fe61977a",
      "networkId": 0,
      "chainId": 0
    },
    {
      "hash": "0x29265d3e3deab7df6cd7953abfd0100b5c3566e9b12aeb7b8e48fe3a2fcf76ce",
      "blockHash": "0x33261dfd7788b0036c9077331343723c83c53a454ae6c7f7d8330f834241a73e",
      "blockNumber": 82705,
      "transactionIndex": 2,
      "confirmations": null,
      "from": "0x120A270bbC009644e35F0bB6ab13f95b8199c4ad",
      "gasPrice": {
        "_hex": "0xd4205b6c2"
      },
      "gasLimit": {
        "_hex": "0x3d090"
      },
      "to": "0xFbc92cE518a6CA6341B08b4468880Cc9Dd61a027",
      "value": {
        "_hex": "0x1925f878fbfa6df000"
      },
      "nonce": 403,
      "data": "0x",
      "r": "0x6127b97fc9ac0aed7b897ebfd65e83455aa0f27f217eae61a930b2a35c97d919",
      "s": "0x180f14b4db7ae00c202e48b60a2523fd156dc7f85ebfd130dbcfc10080458fd1",
      "v": 28,
      "creates": null,
      "raw": "0xf870820193850d4205b6c28303d09094fbc92ce518a6ca6341b08b4468880cc9dd61a027891925f878fbfa6df000801ca06127b97fc9ac0aed7b897ebfd65e83455aa0f27f217eae61a930b2a35c97d919a0180f14b4db7ae00c202e48b60a2523fd156dc7f85ebfd130dbcfc10080458fd1",
      "networkId": 0,
      "chainId": 0
    },
    {
      "hash": "0x6d4e8a606821014521483974c461cd6cc59f88b36da185a8347d556d2040e9c6",
      "blockHash": "0x33261dfd7788b0036c9077331343723c83c53a454ae6c7f7d8330f834241a73e",
      "blockNumber": 82705,
      "transactionIndex": 3,
      "confirmations": null,
      "from": "0x120A270bbC009644e35F0bB6ab13f95b8199c4ad",
      "gasPrice": {
        "_hex": "0xd4205b6c2"
      },
      "gasLimit": {
        "_hex": "0x3d090"
      },
      "to": "0xc5623FA5c297c05c2d965A336b2068CfA0e567FA",
      "value": {
        "_hex": "0x1a03f97026de140000"
      },
      "nonce": 404,
      "data": "0x",
      "r": "0x5125c417d48d57ac09b87fd7a9ca3d3756fb19307f11f1ad80f2502db72a03c9",
      "s": "0x193d54f8738b52ab6192b576d5af378e63b14fa54e29989ba192e7fa82333dde",
      "v": 28,
      "creates": null,
      "raw": "0xf870820194850d4205b6c28303d09094c5623fa5c297c05c2d965a336b2068cfa0e567fa891a03f97026de140000801ca05125c417d48d57ac09b87fd7a9ca3d3756fb19307f11f1ad80f2502db72a03c9a0193d54f8738b52ab6192b576d5af378e63b14fa54e29989ba192e7fa82333dde",
      "networkId": 0,
      "chainId": 0
    }
  ]
}