{
  "hash": "0x579c36838c63cf7bbd94a30aa4b3012fedb8f9b21eb3ca90c2cdae7ef34c6628",
  "parentHash": "0x96ae825d5c96b1c78aabcafcd4ac6b869eb7e6aa3d65461b06bb03249878d65c",
  "number": 108266,
  "timestamp": 1439937373,
  "nonce": "0x3e921125ee25ab36",
  "difficulty": 4353275949018,
  "gasLimit": {
    "_hex": "0x2fefd8"
  },
  "gasUsed": {
    "_hex": "0x5208"
  },
  "miner": "0xeB1325C8D9d3ea8D74aC11F4B00F1B2367686319",
  "extraData": "0x",
  "transactions": [
    {
      "hash": "0xc6694d08cf05a00d5f93882e07ab496cb943f5cce75af2795e5578418446e880",
      "blockHash": "0x579c36838c63cf7bbd94a30aa4b3012fedb8f9b21eb3ca90c2cdae7ef34c6628",
      "blockNumber": 108266,
      "transactionIndex": 0,
      "confirmations": null,
      "from": "0xFD6B6e67d15931706d607e2358A1b0aA05f8e256",
      "gasPrice": {
        "_hex": "0xd41ff1ae1"
      },
      "gasLimit": {
        "_hex": "0x5208"
      },
      "to": "0x32Be343B94f860124dC4fEe278FDCBD38C102D88",
      "value": {
        "_hex": "0x9a46aeafbb91000"
      },
      "nonce": 3,
      "data": "0x",
      "r": "0x2b0b7742fa9a4d10e9b122682b8be21694116fdd7051bc2a42dd1b161733240a",
      "s": "0x44a651e0917f7456036a6e45611bc1984238b6235b6c5ef41444f7379cdcc2e1",
      "v": 28,
      "creates": null,
      "raw": "0xf86c03850d41ff1ae18252089432be343b94f860124dc4fee278fdcbd38c102d888809a46aeafbb91000801ca02b0b7742fa9a4d10e9b122682b8be21694116fdd7051bc2a42dd1b161733240aa044a651e0917f7456036a6e45611bc1984238b6235b6c5ef41444f7379cdcc2e1",
      "networkId": 0,
      "chainId": 0
    }
  ]
}