{
  "hash": "0x1e6f0d21ce2260371c95266b5cf4f698841c8c57b4a1dfb4feee2fd0cb3f2021",
  "parentHash": "0xf5674f4a8c62bb27480155adfbaf272b8bc969509f5a9ce00600be802d00e1f2",
  "number": 46220,
  "timestamp": 1438919491,
  "nonce": "0x3cdfbb8b5ae3378b",
  "difficulty": 1456135435294,
  "gasLimit": {
    "_hex": "0x5542"
  },
  "gasUsed": {
    "_hex": "0x5208"
  },
  "miner": "0xbb7B8287f3F0a933474a79eAe42CBCa977791171",
  "extraData": "0x476574682f4c5649562f76312e302e312f6c696e75782f676f312e342e32",
  "transactions": [
    {
      "hash": "0x35d4f3dae18d72a0d4caf02359ca1844687ff879a2655bdec5c33c9b0f65f795",
      "blockHash": "0x1e6f0d21ce2260371c95266b5cf4f698841c8c57b4a1dfb4feee2fd0cb3f2021",
      "blockNumber": 46220,
      "transactionIndex": 0,
      "confirmations": null,
      "from": "0xF0cf0af5BD7d8A3a1CaD12A30b097265d49F255d",
      "gasPrice": {
        "_hex": "0xef1518499"
      },
      "gasLimit": {
        "_hex": "0x5208"
      },
      "to": "0xB608771949021D2f2F1c9C5Afb980AD8BCDA3985",
      "value": {
        "_hex": "0x56bc75e2d63100000"
      },
      "nonce": 0,
      "data": "0x",
      "r": "0xbca0cf19f38b2f0c673a1e1a29e0b2d975b1393cccee793d1dfe64a704dad917",
      "s": "0x0301d171c5f40d4a30db25999a07eb0da05f8e2f6cbb9768f87383eece2fbf32",
      "v": 27,
      "creates": null,
      "raw": "0xf86d80850ef151849982520894b608771949021d2f2f1c9c5afb980ad8bcda398589056bc75e2d63100000801ba0bca0cf19f38b2f0c673a1e1a29e0b2d975b1393cccee793d1dfe64a704dad917a00301d171c5f40d4a30db25999a07eb0da05f8e2f6cbb9768f87383eece2fbf32",
      "networkId": 0,
      "chainId": 0
    }
  ]
}