{
  "hash": "0x8fbe941e40ccc07b2e3ef849bb0dcb15d6b32651d9536a2a707d4fa20884e44f",
  "parentHash": "0x109430c07cfe3b75a84755a2cda3ddfd8855c43eeb4b756e4947c23156d59d10",
  "number": 115415,
  "timestamp": 1440056836,
  "nonce": "0xad6ae723e43adf72",
  "difficulty": 4564989772678,
  "gasLimit": {
    "_hex": "0x2fefd8"
  },
  "gasUsed": {
    "_hex": "0xf618"
  },
  "miner": "0x580992B51e3925e23280EfB93d3047C82f17E038",
  "extraData": "0x476574682f76312e302e312f6c696e75782f676f312e342e32",
  "transactions": [
    {
      "hash": "0xb100453b45f23cf97bf309dc695b12ecd975d829188d05e91b64aa18c0cf6982",
      "blockHash": "0x8fbe941e40ccc07b2e3ef849bb0dcb15d6b32651d9536a2a707d4fa20884e44f",
      "blockNumber": 115415,
      "transactionIndex": 0,
      "confirmations": null,
      "from": "0x2533B90f7afF15196EaA7e4719E057c85dEF3A47",
      "gasPrice": {
        "_hex": "0xe00bcf4bf"
      },
      "gasLimit": {
        "_hex": "0x5208"
      },
      "to": "0x32Be343B94f860124dC4fEe278FDCBD38C102D88",
      "value": {
        "_hex": "0x14471f5742e5fe000"
      },
      "nonce": 6,
      "data": "0x",
      "r": "0xb267fd5efb4771435be28cd3fd48e0b9d9c37b0b5d6bf29de52ebac6dc3b5c3f",
      "s": "0x461375bd27ab428ba4dd6402ebaa623e25c7d15ee2623d17a3624a4d4de77cd4",
      "v": 28,
      "creates": null,
      "raw": "0xf86d06850e00bcf4bf8252089432be343b94f860124dc4fee278fdcbd38c102d8889014471f5742e5fe000801ca0b267fd5efb4771435be28cd3fd48e0b9d9c37b0b5d6bf29de52ebac6dc3b5c3fa0461375bd27ab428ba4dd6402ebaa623e25c7d15ee2623d17a3624a4d4de77cd4",
      "networkId": 0,
      "chainId": 0
    },
    {
      "hash": "0xc34ac21d97112bb9013ab51da62dd3efdbf47ffb9b28036c527bd047636ffec1",
      "blockHash": "0x8fbe941e40ccc07b2e3ef849bb0dcb15d6b32651d9536a2a707d4fa20884e44f",
      "blockNumber": 115415,
      "transactionIndex": 1,
      "confirmations": null,
      "from": "0x10d50b62A87413dFD8b111398613F2eB8d819f6C",
      "gasPrice": {
        "_hex": "0xe00bcf4bf"
      },
      "gasLimit": {
        "_hex": "0x5208"
      },
      "to": "0x32Be343B94f860124dC4fEe278FDCBD38C102D88",
      "value": {
        "_hex": "0x827603584f01a000"
      },
      "nonce": 4,
      "data": "0x",
      "r": "0xa8cdd9575e343c2e6e64977cb39217562d8a63a865eb4bf32d2ed1c95f06d981",
      "s": "0x5144334bb87c86dc3679afc84916b033e565ba1c2420f82655e46a1e5b0e509d",
      "v": 28,
      "creates": null,
      "raw": "0xf86c04850e00bcf4bf8252089432be343b94f860124dc4fee278fdcbd38c102d8888827603584f01a000801ca0a8cdd9575e343c2e6e64977cb39217562d8a63a865eb4bf32d2ed1c95f06d981a05144334bb87c86dc3679afc84916b033e565ba1c2420f82655e46a1e5b0e509d",
      "networkId": 0,
      "chainId": 0
    },
    {
      "hash": "0x20d62820c0ed662b56a8f30aded655e6784e874d66341ae3c2e6eca0b214c608",
      "blockHash": "0x8fbe941e40ccc07b2e3ef849bb0dcb15d6b32651d9536a2a707d4fa20884e44f",
      "blockNumber": 115415,
      "transactionIndex": 2,
      "confirmations": null,
      "from": "0x795dAa7Cd2C81b20de241CE0751981faC4930070",
      "gasPrice": {
        "_hex": "0xe00bcf4bf"
      },
      "gasLimit": {
        "_hex": "0x5208"
      },
      "to": "0x32Be343B94f860124dC4fEe278FDCBD38C102D88",
      "value": {
        "_hex": "0x716ccd22f26698000"
      },
      "nonce": 4,
      "data": "0x",
      "r": "0x80f44fd58eb265e7f1e6c5586f0fbb36646930714e473126bb04a66ec053219b",
      "s": "0x4e3897ae25f45790ff45eee19c2a3024df1a9327f2c36c480361c857cd646143",
      "v": 27,
      "creates": null,
      "raw": "0xf86d04850e00bcf4bf8252089432be343b94f860124dc4fee278fdcbd38c102d88890716ccd22f26698000801ba080f44fd58eb265e7f1e6c5586f0fbb36646930714e473126bb04a66ec053219ba04e3897ae25f45790ff45eee19c2a3024df1a9327f2c36c480361c857cd646143",
      "networkId": 0,
      "chainId": 0
    }
  ]
}