{
  "hash": "0xc03a87f4ff03ccfbf2b5a874d2659fc0cf6ecb169e67749b63a4993b2bd4aea0",
  "parentHash": "0xb3b7afc368ea2b162d0ed76439c559966ee560013229d21149d97b83d0d87964",
  "number": 108244,
  "timestamp": 1439937080,
  "nonce": "0xa21b1ff492057d26",
  "difficulty": 4340552257419,
  "gasLimit": {
    "_hex": "0x2fefd8"
  },
  "gasUsed": {
    "_hex": "0x301fe"
  },
  "miner": "0xe6A7a1d47ff21B6321162AEA7C6CB457D5476Bca",
  "extraData": "0x476574682f76312e302e312d38326566323666362f6c696e75782f676f312e34",
  "transactions": [
    {
      "hash": "0xd704e9dc25846f268e5421be91eeea81236d3d402175450ec1f1ff34242e66fa",
      "blockHash": "0xc03a87f4ff03ccfbf2b5a874d2659fc0cf6ecb169e67749b63a4993b2bd4aea0",
      "blockNumber": 108244,
      "transactionIndex": 0,
      "confirmations": null,
      "from": "0xFBb1b73C4f0BDa4f67dcA266ce6Ef42f520fBB98",
      "gasPrice": {
        "_hex": "0xdec82934d"
      },
      "gasLimit": {
        "_hex": "0x5208"
      },
      "to": "0x0d187496799a43E7c43e4324026E32d1Dc80D8E4",
      "value": {
        "_hex": "0xf89ef77c136800"
      },
      "nonce": 163,
      "data": "0x",
      "r": "0x8febdebd95a2c8daf7407f7a03672dc2b8fd65be9e79d16208ac44c2e0f08826",
      "s": "0x0d4f9d9d0074b4f5c676e358923f11be89f94c566e6d756c833d1b546fa1dcbc",
      "v": 27,
      "creates": null,
      "raw": "0xf86c81a3850dec82934d825208940d187496799a43e7c43e4324026e32d1dc80d8e487f89ef77c136800801ba08febdebd95a2c8daf7407f7a03672dc2b8fd65be9e79d16208ac44c2e0f08826a00d4f9d9d0074b4f5c676e358923f11be89f94c566e6d756c833d1b546fa1dcbc",
      "networkId": 0,
      "chainId": 0
    },
    {
      "hash": "0x5d9b7ca1b3925507a02901697bd80f4b76b5d705630ee09e9933ccbaddb82f7b",
      "blockHash": "0xc03a87f4ff03ccfbf2b5a874d2659fc0cf6ecb169e67749b63a4993b2bd4aea0",
      "blockNumber": 108244,
      "transactionIndex": 1,
      "confirmations": null,
      "from": "0xFBb1b73C4f0BDa4f67dcA266ce6Ef42f520fBB98",
      "gasPrice": {
        "_hex": "0xdec82934d"
      },
      "gasLimit": {
        "_hex": "0x5208"
      },
      "to": "0x2660299c07076aEB9cEF872a41EAF75E4C16020D",
      "value": {
        "_hex": "0x201a4cc33afa800"
      },
      "nonce": 164,
      "data": "0x",
      "r": "0xefa660ba481699baa78af4fd8c8eaf0ccf79bc53f53f702593d8d83dd324794b",
      "s": "0x77174ec7aa854fc43fe5c070f8b117a62914e7a4564a5b20c4479f6623df5c12",
      "v": 28,
      "creates": null,
      "raw": "0xf86d81a4850dec82934d825208942660299c07076aeb9cef872a41eaf75e4c16020d880201a4cc33afa800801ca0efa660ba481699baa78af4fd8c8eaf0ccf79bc53f53f702593d8d83dd324794ba077174ec7aa854fc43fe5c070f8b117a62914e7a4564a5b20c4479f6623df5c12",
      "networkId": 0,
      "chainId": 0
    },
    {
      "hash": "0xb399d3367da915384c2323146156bd80c3a9a2d71535c098ad3b3a14f13070dc",
      "blockHash": "0xc03a87f4ff03ccfbf2b5a874d2659fc0cf6ecb169e67749b63a4993b2bd4aea0",
      "blockNumber": 108244,
      "transactionIndex": 2,
      "confirmations": null,
      "from": "0xF50466E3F27955334fFF159e9D6e325C11eb85D6",
      "gasPrice": {
        "_hex": "0xdda02a0ac"
      },
      "gasLimit": {
        "_hex": "0x30d40"
      },
      "to": null,
      "value": {
        "_hex": "0x0"
      },
      "nonce": 0,
      "data": "0x60606040526106ca806100136000396000f30060606040526000357c01000000000000000000000000000000000000000000000000000000009004806306fdde03146100655780631fea2519146100de57806366605ba41461013057806391b0c2101461018257806395b737b31461021957610063565b005b6100706004506102d7565b60405180806020018281038252838181518152602001915080519060200190808383829060006004602084601f0104600302600f01f150905090810190601f1680156100d05780820380516001836020036101000a031916815260200191505b509250505060405180910390f35b61012e6004803590602001906004018035906020019191908080601f0160208091040260200160405190810160405280939291908181526020018383808284378201915050505050509050610612565b005b6101806004803590602001906004018035906020019191908080601f0160208091040260200160405190810160405280939291908181526020018383808284378201915050505050509050610385565b005b6102176004803590602001906004018035906020019191908080601f01602080910402602001604051908101604052809392919081815260200183838082843782019150505050505090803590602001906004018035906020019191908080601f0160208091040260200160405190810160405280939291908181526020018383808284378201915050505050509050610523565b005b6102696004803590602001906004018035906020019191908080601f0160208091040260200160405190810160405280939291908181526020018383808284378201915050505050509050610437565b60405180806020018281038252838181518152602001915080519060200190808383829060006004602084601f0104600302600f01f150905090810190601f1680156102c95780820380516001836020036101000a031916815260200191505b509250505060405180910390f35b6020604051908101604052806000815260200150600060005060003373ffffffffffffffffffffffffffffffffffffffff168152602001908152602001600020600050600001600050805480601f0160208091040260200160405190810160405280929190818152602001828054801561037657820191906000526020600020905b81548152906001019060200180831161035957829003601f168201915b50505050509050610382565b90565b80600060005060003373ffffffffffffffffffffffffffffffffffffffff168152602001908152602001600020600050600001600050908051906020019082805482825590600052602060002090601f01602090048101928215610406579182015b828111156104055782518260005055916020019190600101906103e7565b5b5090506104319190610413565b8082111561042d5760008181506000905550600101610413565b5090565b50505b50565b6020604051908101604052806000815260200150600060005060003373ffffffffffffffffffffffffffffffffffffffff16815260200190815260200160002060005060010160005082604051808280519060200190808383829060006004602084601f0104600302600f01f1509050019150509081526020016040518091039020600050805480601f0160208091040260200160405190810160405280929190818152602001828054801561051257820191906000526020600020905b8154815290600101906020018083116104f557829003601f168201915b5050505050905061051e565b919050565b80600060005060003373ffffffffffffffffffffffffffffffffffffffff16815260200190815260200160002060005060010160005083604051808280519060200190808383829060006004602084601f0104600302600f01f1509050019150509081526020016040518091039020600050908051906020019082805482825590600052602060002090601f016020900481019282156105e0579182015b828111156105df5782518260005055916020019190600101906105c1565b5b50905061060b91906105ed565b8082111561060757600081815060009055506001016105ed565b5090565b50505b5050565b600060005060003373ffffffffffffffffffffffffffffffffffffffff16815260200190815260200160002060005060010160005081604051808280519060200190808383829060006004602084601f0104600302600f01f1509050019150509081526020016040518091039020600050805460008255601f0160209004906000526020600020908101906106c591906106a7565b808211156106c157600081815060009055506001016106a7565b5090565b505b5056",
      "r": "0xd5f5ea4ccd4f94a64abc91d804425585a00b94e14466210846f41f841373c2af",
      "s": "0x4a1115ea39f8e4232998e04f85870810cd44dbfb58c624959f89604e0e3762f4",
      "v": 28,
      "creates": "0x8B6F500430DaC53AF11b20bF2878E1f5D4902165",
      "raw": "0xf9073080850dda02a0ac83030d408080b906dd60606040526106ca806100136000396000f30060606040526000357c01000000000000000000000000000000000000000000000000000000009004806306fdde03146100655780631fea2519146100de57806366605ba41461013057806391b0c2101461018257806395b737b31461021957610063565b005b6100706004506102d7565b60405180806020018281038252838181518152602001915080519060200190808383829060006004602084601f0104600302600f01f150905090810190601f1680156100d05780820380516001836020036101000a031916815260200191505b509250505060405180910390f35b61012e6004803590602001906004018035906020019191908080601f0160208091040260200160405190810160405280939291908181526020018383808284378201915050505050509050610612565b005b6101806004803590602001906004018035906020019191908080601f0160208091040260200160405190810160405280939291908181526020018383808284378201915050505050509050610385565b005b6102176004803590602001906004018035906020019191908080601f01602080910402602001604051908101604052809392919081815260200183838082843782019150505050505090803590602001906004018035906020019191908080601f0160208091040260200160405190810160405280939291908181526020018383808284378201915050505050509050610523565b005b6102696004803590602001906004018035906020019191908080601f0160208091040260200160405190810160405280939291908181526020018383808284378201915050505050509050610437565b60405180806020018281038252838181518152602001915080519060200190808383829060006004602084601f0104600302600f01f150905090810190601f1680156102c95780820380516001836020036101000a031916815260200191505b509250505060405180910390f35b6020604051908101604052806000815260200150600060005060003373ffffffffffffffffffffffffffffffffffffffff168152602001908152602001600020600050600001600050805480601f0160208091040260200160405190810160405280929190818152602001828054801561037657820191906000526020600020905b81548152906001019060200180831161035957829003601f168201915b50505050509050610382565b90565b80600060005060003373ffffffffffffffffffffffffffffffffffffffff168152602001908152602001600020600050600001600050908051906020019082805482825590600052602060002090601f01602090048101928215610406579182015b828111156104055782518260005055916020019190600101906103e7565b5b5090506104319190610413565b8082111561042d5760008181506000905550600101610413565b5090565b50505b50565b6020604051908101604052806000815260200150600060005060003373ffffffffffffffffffffffffffffffffffffffff16815260200190815260200160002060005060010160005082604051808280519060200190808383829060006004602084601f0104600302600f01f1509050019150509081526020016040518091039020600050805480601f0160208091040260200160405190810160405280929190818152602001828054801561051257820191906000526020600020905b8154815290600101906020018083116104f557829003601f168201915b5050505050905061051e565b919050565b80600060005060003373ffffffffffffffffffffffffffffffffffffffff16815260200190815260200160002060005060010160005083604051808280519060200190808383829060006004602084601f0104600302600f01f1509050019150509081526020016040518091039020600050908051906020019082805482825590600052602060002090601f016020900481019282156105e0579182015b828111156105df5782518260005055916020019190600101906105c1565b5b50905061060b91906105ed565b8082111561060757600081815060009055506001016105ed565b5090565b50505b5050565b600060005060003373ffffffffffffffffffffffffffffffffffffffff16815260200190815260200160002060005060010160005081604051808280519060200190808383829060006004602084601f0104600302600f01f1509050019150509081526020016040518091039020600050805460008255601f0160209004906000526020600020908101906106c591906106a7565b808211156106c157600081815060009055506001016106a7565b5090565b505b50561ca0d5f5ea4ccd4f94a64abc91d804425585a00b94e14466210846f41f841373c2afa04a1115ea39f8e4232998e04f85870810cd44dbfb58c624959f89604e0e3762f4",
      "networkId": 0,
      "chainId": 0
    },
    {
      "hash": "0x2fbd1c1882038e44c3a3cd3ab0231402c4d5104ab0c8bf80c7566433265aa646",
      "blockHash": "0xc03a87f4ff03ccfbf2b5a874d2659fc0cf6ecb169e67749b63a4993b2bd4aea0",
      "blockNumber": 108244,
      "transactionIndex": 3,
      "confirmations": null,
      "from": "0x6BED894B45159c6001dfbC5bd6257A10B9eF2202",
      "gasPrice": {
        "_hex": "0xd8364fc25"
      },
      "gasLimit": {
        "_hex": "0x15f90"
      },
      "to": "0xbCa6DD2fDDAf2d917006b0Aa1F8d1962BFf7FB87",
      "value": {
        "_hex": "0x2386f26fc10000"
      },
      "nonce": 14,
      "data": "0x",
      "r": "0x7add9a5692e64fe848ee8ef36a404134d6086ef955036c1dbca59b9f9bef0789",
      "s": "0x601524ccb61d273c202481dd7d32d41e0ee3f28743a0d9844552f28295b698be",
      "v": 27,
      "creates": null,
      "raw": "0xf86c0e850d8364fc2583015f9094bca6dd2fddaf2d917006b0aa1f8d1962bff7fb87872386f26fc10000801ba07add9a5692e64fe848ee8ef36a404134d6086ef955036c1dbca59b9f9bef0789a0601524ccb61d273c202481dd7d32d41e0ee3f28743a0d9844552f28295b698be",
      "networkId": 0,
      "chainId": 0
    }
  ]
}