{
  "hash": "0x843772a474c0783bd994a67345a26e41bff60fca43b2a2dbdf0ca25564e7b285",
  "parentHash": "0x7a4beff1ffacbfddd7c07c84583e24456af8a7f1acb86cae9e3cc2987cf18a5f",
  "number": 90841,
  "timestamp": 1439646243,
  "nonce": "0x48743fa1d6b39fa3",
  "difficulty": 3402364733017,
  "gasLimit": {
    "_hex": "0x2fefd8"
  },
  "gasUsed": {
    "_hex": "0x5208"
  },
  "miner": "0x157c6f2431eB1a95797EE86F7d17b3c0FD47A247",
  "extraData": "0x476574682f76312e302e312f77696e646f77732f676f312e342e32",
  "transactions": [
    {
      "hash": "0xd2f943e2b34b65e3e3f9067ef2572b2300bd41d7675aeb8dbcd4572a34466316",
      "blockHash": "0x843772a474c0783bd994a67345a26e41bff60fca43b2a2dbdf0ca25564e7b285",
      "blockNumber": 90841,
      "transactionIndex": 0,
      "confirmations": null,
      "from": "0x79d5794171E11dd5C2f0e26E1C187319db2FE6f7",
      "gasPrice": {
        "_hex": "0xde070bbe5"
      },
      "gasLimit": {
        "_hex": "0x5208"
      },
      "to": "0x32Be343B94f860124dC4fEe278FDCBD38C102D88",
      "value": {
        "_hex": "0x34063acede506000"
      },
      "nonce": 30,
      "data": "0x",
      "r": "0x939f94e246382175bd3f286ea5945317c0c16f07622dbf311dcbf1ff67d74679",
      "s": "0x43d936198cf17a5ad9c5c3347b6971c3a3277a414178738a2472d4600c8df668",
      "v": 28,
      "creates": null,
      "raw": "0xf86c1e850de070bbe58252089432be343b94f860124dc4fee278fdcbd38c102d888834063acede506000801ca0939f94e246382175bd3f286ea5945317c0c16f07622dbf311dcbf1ff67d74679a043d936198cf17a5ad9c5c3347b6971c3a3277a414178738a2472d4600c8df668",
      "networkId": 0,
      "chainId": 0
    }
  ]
}