{
  "hash": "0xa30e1669b503db2436ae698d7c3cb74e13e9ff684c7f3b0b4fc936e64d5e47fa",
  "parentHash": "0x696f57cbebce1b5609169f53dfc8a6db2ef9f0af6e5ab582a85dfb732cc27c0e",
  "number": 100439,
  "timestamp": 1439806699,
  "nonce": "0x25c60e4419c89475",
  "difficulty": 3798683891874,
  "gasLimit": {
    "_hex": "0x2fefd8"
  },
  "gasUsed": {
    "_hex": "0x5208"
  },
  "miner": "0xe6A7a1d47ff21B6321162AEA7C6CB457D5476Bca",
  "extraData": "0x476574682f76312e302e312d38326566323666362f6c696e75782f676f312e34",
  "transactions": [
    {
      "hash": "0x2af6e621b1ce8c0ac8b7a3eed65e029ded86825186285f4b5792ccead82de95a",
      "blockHash": "0xa30e1669b503db2436ae698d7c3cb74e13e9ff684c7f3b0b4fc936e64d5e47fa",
      "blockNumber": 100439,
      "transactionIndex": 0,
      "confirmations": null,
      "from": "0x7884D470204862a0d1A21122F41ee77430396Ee5",
      "gasPrice": {
        "_hex": "0xde9a0e259"
      },
      "gasLimit": {
        "_hex": "0x15f90"
      },
      "to": "0x9A416182Eb93a0510beb9F0ACA272A36b1F95E4f",
      "value": {
        "_hex": "0xf8b0a10e470000"
      },
      "nonce": 54,
      "data": "0x",
      "r": "0x7558fc3a4967212dfea8858badaf0e1acd058d37fcef934aaf22379c51d90d51",
      "s": "0x00134364866ad318a0a054a8383005412e91affa39da075a864bbc0d01b500a4",
      "v": 28,
      "creates": null,
      "raw": "0xf86b36850de9a0e25983015f90949a416182eb93a0510beb9f0aca272a36b1f95e4f87f8b0a10e470000801ca07558fc3a4967212dfea8858badaf0e1acd058d37fcef934aaf22379c51d90d519f134364866ad318a0a054a8383005412e91affa39da075a864bbc0d01b500a4",
      "networkId": 0,
      "chainId": 0
    }
  ]
}