{
  "hash": "0x41e0388802f1eb5926b18bd7e4e7255e7b8600521f4ec7f8ccfe937c49081469",
  "parentHash": "0x09abaaf01ae75b75aac094ec169fb3df214da38c4b0e34656da2748137675f43",
  "number": 95729,
  "timestamp": 1439728672,
  "nonce": "0x781b9de5d1cc6ad6",
  "difficulty": 3626765247480,
  "gasLimit": {
    "_hex": "0x2fefd8"
  },
  "gasUsed": {
    "_hex": "0x5208"
  },
  "miner": "0xa50ec0D39fa913E62f1Bae7074E6F36caA71855b",
  "extraData": "0xd783010001844765746887676f312e342e32856c696e7578",
  "transactions": [
    {
      "hash": "0x183f85621dd75c340443fbae17236e7ef5788022cf8bd5aa80f427fde07de778",
      "blockHash": "0x41e0388802f1eb5926b18bd7e4e7255e7b8600521f4ec7f8ccfe937c49081469",
      "blockNumber": 95729,
      "transactionIndex": 0,
      "confirmations": null,
      "from": "0x52191276589069F70F0E46bcCc718d793d1Aa1D0",
      "gasPrice": {
        "_hex": "0xcccd52a78"
      },
      "gasLimit": {
        "_hex": "0x5208"
      },
      "to": "0x32Be343B94f860124dC4fEe278FDCBD38C102D88",
      "value": {
        "_hex": "0x299e0a17fbc75800"
      },
      "nonce": 10,
      "data": "0x",
      "r": "0xffe50fb17ff1fa65aa12d9da8e75475250f3a7175d57808bfaaa5bee0009d739",
      "s": "0x39a1727f0524eb471bafd4f19e2b16c0b7da00ba2af798674004632bfea11046",
      "v": 28,
      "creates": null,
      "raw": "0xf86c0a850cccd52a788252089432be343b94f860124dc4fee278fdcbd38c102d8888299e0a17fbc75800801ca0ffe50fb17ff1fa65aa12d9da8e75475250f3a7175d57808bfaaa5bee0009d739a039a1727f0524eb471bafd4f19e2b16c0b7da00ba2af798674004632bfea11046",
      "networkId": 0,
      "chainId": 0
    }
  ]
}