{
  "hash": "0x4f779846788378b2b1960c515727e1ff0393342d6a086b64bd0996696761aa83",
  "parentHash": "0x695c82649be362cd582257a26a9b58bcb8c53e64c45b88775b6a157679ee539a",
  "number": 65049,
  "timestamp": 1439230422,
  "nonce": "0x6cf4a78c9875ada9",
  "difficulty": 1925681008255,
  "gasLimit": {
    "_hex": "0x2fefd8"
  },
  "gasUsed": {
    "_hex": "0x17cd8"
  },
  "miner": "0xb9b373b3776bAcfE434e7c2dc66D4Ee715d91C0E",
  "extraData": "0x",
  "transactions": [
    {
      "hash": "0x99a074d4d77ee94c71f358273d4657aa68e0f42a2f4c4b8c326c21c19ed95e06",
      "blockHash": "0x4f779846788378b2b1960c515727e1ff0393342d6a086b64bd0996696761aa83",
      "blockNumber": 65049,
      "transactionIndex": 0,
      "confirmations": null,
      "from": "0x16C1a82Dc4C3C29d1c64527e2Bb4da731Fa8d792",
      "gasPrice": {
        "_hex": "0xba43b7400"
      },
      "gasLimit": {
        "_hex": "0x15f90"
      },
      "to": "0x793AE8C1b1a160BFc07BFB0d04F85eab1A71F4f2",
      "value": {
        "_hex": "0x0"
      },
      "nonce": 0,
      "data": "0x3ba15036",
      "r": "0xd4e007b44ef65fc1c6ec46c468ee3238d62ff03d544b841de284aa99a06c3e74",
      "s": "0x2a59932b39833f6e436374ae943fc2053117c31985d95f29d90afdf457bd8d1e",
      "v": 27,
      "creates": null,
      "raw": "0xf86980850ba43b740083015f9094793ae8c1b1a160bfc07bfb0d04f85eab1a71f4f280843ba150361ba0d4e007b44ef65fc1c6ec46c468ee3238d62ff03d544b841de284aa99a06c3e74a02a59932b39833f6e436374ae943fc2053117c31985d95f29d90afdf457bd8d1e",
      "networkId": 0,
      "chainId": 0
    },
    {
      "hash": "0x10fb3a13113223700ebb672700d895452e5e7c4b4e0ae1590fa447d96929f36f",
      "blockHash": "0x4f779846788378b2b1960c515727e1ff0393342d6a086b64bd0996696761aa83",
      "blockNumber": 65049,
      "transactionIndex": 1,
      "confirmations": null,
      "from": "0xd771932b6072542c4568A196e0f4D5e038D3f264",
      "gasPrice": {
        "_hex": "0xba43b7400"
      },
      "gasLimit": {
        "_hex": "0x15f90"
      },
      "to": "0x793AE8C1b1a160BFc07BFB0d04F85eab1A71F4f2",
      "value": {
        "_hex": "0x0"
      },
      "nonce": 0,
      "data": "0x3ba15036",
      "r": "0xe11a3d9ba3e877efe151e638cfd4cb43537125b9781f0927b1b09c40fd604970",
      "s": "0x1a52766bf98c0b2815ac62ece28b66341a6a89f57621edab94410d3ab0363a27",
      "v": 28,
      "creates": null,
      "raw": "0xf86980850ba43b740083015f9094793ae8c1b1a160bfc07bfb0d04f85eab1a71f4f280843ba150361ca0e11a3d9ba3e877efe151e638cfd4cb43537125b9781f0927b1b09c40fd604970a01a52766bf98c0b2815ac62ece28b66341a6a89f57621edab94410d3ab0363a27",
      "networkId": 0,
      "chainId": 0
    }
  ]
}