{
  "hash": "0xbd5b8051c10243325d8ce2cd50184b76f10b87b01a6d8d587b7ddafe6c183ad0",
  "parentHash": "0x7537da6a6592c008a7e31b93e4472438f3937c54892177797a7e6c8aee5383a0",
  "number": 60373,
  "timestamp": 1439154373,
  "nonce": "0x73b0c45527e5b9e4",
  "difficulty": 1745784942193,
  "gasLimit": {
    "_hex": "0x2fefd8"
  },
  "gasUsed": {
    "_hex": "0xa674"
  },
  "miner": "0xF2d2AfF1320476cb8C6b607199D23175cc595693",
  "extraData": "0x476574682f76312e302e312f77696e646f77732f676f312e342e32",
  "transactions": [
    {
      "hash": "0x3607bfaba7ea2ed43b5476aab615db957988947c08740bbbf0ef8223e19a551c",
      "blockHash": "0xbd5b8051c10243325d8ce2cd50184b76f10b87b01a6d8d587b7ddafe6c183ad0",
      "blockNumber": 60373,
      "transactionIndex": 0,
      "confirmations": null,
      "from": "0xA34f9D568bF7aFd94c2A5B8a5Ff55C66C4087999",
      "gasPrice": {
        "_hex": "0x110f69f381e"
      },
      "gasLimit": {
        "_hex": "0x15f90"
      },
      "to": "0x26C4184d1125875eEB3F51391352C953F44A3b46",
      "value": {
        "_hex": "0xde0b6b3a7640000"
      },
      "nonce": 0,
      "data": "0x",
      "r": "0x082b23919b30861212e5fa9f0c9c8589cb19f987ce2559136ed563097350bb80",
      "s": "0x74d7449808eee76242d82b2bb3f6576f9800fc646b6fcb6cd8a63302cb46e9b5",
      "v": 27,
      "creates": null,
      "raw": "0xf86e80860110f69f381e83015f909426c4184d1125875eeb3f51391352c953f44a3b46880de0b6b3a7640000801ba0082b23919b30861212e5fa9f0c9c8589cb19f987ce2559136ed563097350bb80a074d7449808eee76242d82b2bb3f6576f9800fc646b6fcb6cd8a63302cb46e9b5",
      "networkId": 0,
      "chainId": 0
    },
    {
      "hash": "0x7ba49f802bc6d9d7d53a03adb2068a04d660d75ebb08ef2ea92e54c704c6543f",
      "blockHash": "0xbd5b8051c10243325d8ce2cd50184b76f10b87b01a6d8d587b7ddafe6c183ad0",
      "blockNumber": 60373,
      "transactionIndex": 1,
      "confirmations": null,
      "from": "0x2496580535aEEF037C3232D8AfeB01545735c3Dc",
      "gasPrice": {
        "_hex": "0xd1238b35f"
      },
      "gasLimit": {
        "_hex": "0x55f0"
      },
      "to": "0x2910543Af39abA0Cd09dBb2D50200b3E800A63D2",
      "value": {
        "_hex": "0x6f05b59d3b200000"
      },
      "nonce": 4,
      "data": "0x454e584136594a4230",
      "r": "0xa9228c9363d219ef45fc559e65995df1fbb83a50f62e5f8c14841c14e5be66f1",
      "s": "0x6dcd410622499a213f4d8b877a895bdf7aaea69febe58e1441d3e9ca8c14306c",
      "v": 27,
      "creates": null,
      "raw": "0xf87504850d1238b35f8255f0942910543af39aba0cd09dbb2d50200b3e800a63d2886f05b59d3b20000089454e584136594a42301ba0a9228c9363d219ef45fc559e65995df1fbb83a50f62e5f8c14841c14e5be66f1a06dcd410622499a213f4d8b877a895bdf7aaea69febe58e1441d3e9ca8c14306c",
      "networkId": 0,
      "chainId": 0
    }
  ]
}