{
  "hash": "0xf9f2087c1a08e197bf4c869e7e4fa4dca1a39865f7a3ba1119facc680e0e339b",
  "parentHash": "0x61a6fab06415fcb8519f67539db0883fcfa449b86a75d9bb1aac56b4571ed8b9",
  "number": 108239,
  "timestamp": 1439936943,
  "nonce": "0xa6ddb8c800e2a6f8",
  "difficulty": 4342674773822,
  "gasLimit": {
    "_hex": "0x2fefd8"
  },
  "gasUsed": {
    "_hex": "0x14820"
  },
  "miner": "0xbb7B8287f3F0a933474a79eAe42CBCa977791171",
  "extraData": "0x476574682f4c5649562f76312e302e312f6c696e75782f676f312e342e32",
  "transactions": [
    {
      "hash": "0xaf9cc47fcc77c8a837ee527b85e2959f671e613dde9dde42a83847d5bd2c691e",
      "blockHash": "0xf9f2087c1a08e197bf4c869e7e4fa4dca1a39865f7a3ba1119facc680e0e339b",
      "blockNumber": 108239,
      "transactionIndex": 0,
      "confirmations": null,
      "from": "0xFBb1b73C4f0BDa4f67dcA266ce6Ef42f520fBB98",
      "gasPrice": {
        "_hex": "0xd4ea6bfc5"
      },
      "gasLimit": {
        "_hex": "0x5208"
      },
      "to": "0xdD9705A4a2a661729aDbfe2F72E272EAFCad6b55",
      "value": {
        "_hex": "0x1e167634da66800"
      },
      "nonce": 160,
      "data": "0x",
      "r": "0x08915f344bef75762b6e75b5426d4358bfc3c9b886d3b8dad3c712e03c98d2c3",
      "s": "0x2970d2c6e2f42f700e147946515d8b507e9ff7bbef48f562e4bca6768ae95255",
      "v": 28,
      "creates": null,
      "raw": "0xf86d81a0850d4ea6bfc582520894dd9705a4a2a661729adbfe2f72e272eafcad6b558801e167634da66800801ca008915f344bef75762b6e75b5426d4358bfc3c9b886d3b8dad3c712e03c98d2c3a02970d2c6e2f42f700e147946515d8b507e9ff7bbef48f562e4bca6768ae95255",
      "networkId": 0,
      "chainId": 0
    },
    {
      "hash": "0xd938f7a5a89e5b8c7fb7032e6cf3d8528b6891cf0470d27cf33375abf26fa347",
      "blockHash": "0xf9f2087c1a08e197bf4c869e7e4fa4dca1a39865f7a3ba1119facc680e0e339b",
      "blockNumber": 108239,
      "transactionIndex": 1,
      "confirmations": null,
      "from": "0xFBb1b73C4f0BDa4f67dcA266ce6Ef42f520fBB98",
      "gasPrice": {
        "_hex": "0xd4ea6bfc5"
      },
      "gasLimit": {
        "_hex": "0x5208"
      },
      "to": "0x1dE2366bf5914821C2D7B12ea46697a86d0Ae4C9",
      "value": {
        "_hex": "0x10effb7fb7935c00"
      },
      "nonce": 161,
      "data": "0x",
      "r": "0xcffe4555a18f025625de3024f5b22c9021fb50f64343ec11c32dde4831aab33c",
      "s": "0x4455e84e9dbed28efecb0014b9d74301b13267537754848c903ed8b30dd97cf7",
      "v": 27,
      "creates": null,
      "raw": "0xf86d81a1850d4ea6bfc5825208941de2366bf5914821c2d7b12ea46697a86d0ae4c98810effb7fb7935c00801ba0cffe4555a18f025625de3024f5b22c9021fb50f64343ec11c32dde4831aab33ca04455e84e9dbed28efecb0014b9d74301b13267537754848c903ed8b30dd97cf7",
      "networkId": 0,
      "chainId": 0
    },
    {
      "hash": "0xb8e6c6a4ad167e48f3f39e3f88bd99eefff8cbc39dceb93ffa69a2ea06bd3e86",
      "blockHash": "0xf9f2087c1a08e197bf4c869e7e4fa4dca1a39865f7a3ba1119facc680e0e339b",
      "blockNumber": 108239,
      "transactionIndex": 2,
      "confirmations": null,
      "from": "0xFBb1b73C4f0BDa4f67dcA266ce6Ef42f520fBB98",
      "gasPrice": {
        "_hex": "0xd4ea6bfc5"
      },
      "gasLimit": {
        "_hex": "0x5208"
      },
      "to": "0x900a0A6428078594b201108ebF8f8A8446E86fbA",
      "value": {
        "_hex": "0x1a0ec918193e800"
      },
      "nonce": 162,
      "data": "0x",
      "r": "0xe0e94e764d22686c245b08072e1dc0147d7b989919fa13deffb5cbb57b8f2bce",
      "s": "0x2d9ccbd0d285cbb15ceae5cbe45a9b7fbc97eb00648c172dfe4a5622a7e1e32c",
      "v": 28,
      "creates": null,
      "raw": "0xf86d81a2850d4ea6bfc582520894900a0a6428078594b201108ebf8f8a8446e86fba8801a0ec918193e800801ca0e0e94e764d22686c245b08072e1dc0147d7b989919fa13deffb5cbb57b8f2bcea02d9ccbd0d285cbb15ceae5cbe45a9b7fbc97eb00648c172dfe4a5622a7e1e32c",
      "networkId": 0,
      "chainId": 0
    },
    {
      "hash": "0xf89443ab3aea288f0c9986a0b98a6f37552b42c64811fe93bfafa3a7002b1c86",
      "blockHash": "0xf9f2087c1a08e197bf4c869e7e4fa4dca1a39865f7a3ba1119facc680e0e339b",
      "blockNumber": 108239,
      "transactionIndex": 3,
      "confirmations": null,
      "from": "0x13db2d4DF4EE21C407B0B3F867d2892037f05DB3",
      "gasPrice": {
        "_hex": "0xd2a233df3"
      },
      "gasLimit": {
        "_hex": "0x7a120"
      },
      "to": "0xBBDa93a81B882774e1c9b5e3F933Fa35DaC8bc88",
      "value": {
        "_hex": "0x15a8742b409810000"
      },
      "nonce": 1,
      "data": "0x",
      "r": "0x3d83100c9cec24ae696c7d5dcd68d29892da87a9182794f0ef0283788590fbd5",
      "s": "0x286525410326ce65eb782373d85abaf2b3851fd80055f12e2230e4e1f3233ef4",
      "v": 27,
      "creates": null,
      "raw": "0xf86e01850d2a233df38307a12094bbda93a81b882774e1c9b5e3f933fa35dac8bc8889015a8742b409810000801ba03d83100c9cec24ae696c7d5dcd68d29892da87a9182794f0ef0283788590fbd5a0286525410326ce65eb782373d85abaf2b3851fd80055f12e2230e4e1f3233ef4",
      "networkId": 0,
      "chainId": 0
    }
  ]
}