{
  "hash": "0x685b2226cbf6e1f890211010aa192bf16f0a0cba9534264a033b023d7367b845",
  "parentHash": "0x071218ca3c6549337289e5e0e78227f59a82d62a972d6d73e6b8e55dcbaa65eb",
  "number": 56160,
  "timestamp": 1439082890,
  "nonce": "0x98063eb62f99d334",
  "difficulty": 1640036045719,
  "gasLimit": {
    "_hex": "0x2fefd8"
  },
  "gasUsed": {
    "_hex": "0xc472"
  },
  "miner": "0x3F98e477a361F777DA14611a7e419A75Fd238b6b",
  "extraData": "0x476574682f76312e302e312f6c696e75782f676f312e342e32",
  "transactions": [
    {
      "hash": "0x8696c8669e07ae7e4ceef43945fe9c78252ab76f1a3c16658a04a644b8329736",
      "blockHash": "0x685b2226cbf6e1f890211010aa192bf16f0a0cba9534264a033b023d7367b845",
      "blockNumber": 56160,
      "transactionIndex": 0,
      "confirmations": null,
      "from": "0x9B2c46642CAF6B936dc0633da521f1E946B7e18F",
      "gasPrice": {
        "_hex": "0xd4bba80ac"
      },
      "gasLimit": {
        "_hex": "0x15f90"
      },
      "to": "0xDBB576b5B0e7BF0570A981AAb3AD39A0c5F19EB1",
      "value": {
        "_hex": "0x0"
      },
      "nonce": 6,
      "data": "0x90b98a110000000000000000000000006463f715d594a1a4ace4bb9c3b288a74decf294d00000000000000000000000000000000000000000000000000000000000003e8",
      "r": "0xab3d4018bc577cb138a560442332d7f24ed91133bc1accb9bef8ad97bd0bc44c",
      "s": "0x6b27d7dff95f0510f391ff4247545a8a33765a17fa2510245c99d0aa153a75be",
      "v": 27,
      "creates": null,
      "raw": "0xf8aa06850d4bba80ac83015f9094dbb576b5b0e7bf0570a981aab3ad39a0c5f19eb180b84490b98a110000000000000000000000006463f715d594a1a4ace4bb9c3b288a74decf294d00000000000000000000000000000000000000000000000000000000000003e81ba0ab3d4018bc577cb138a560442332d7f24ed91133bc1accb9bef8ad97bd0bc44ca06b27d7dff95f0510f391ff4247545a8a33765a17fa2510245c99d0aa153a75be",
      "networkId": 0,
      "chainId": 0
    }
  ]
}