{
  "hash": "0x95d345b01b93b8da25e4f3fec52df00737e6c3afc83036b22f16826b841a49d5",
  "parentHash": "0x45659afc9a1acaacbc45e7a307846f17ccff62c9259b63b103c71391cdd2f6f5",
  "number": 78346,
  "timestamp": 1439452373,
  "nonce": "0xaab6945052b3184e",
  "difficulty": 2277613437275,
  "gasLimit": {
    "_hex": "0x2fefd8"
  },
  "gasUsed": {
    "_hex": "0x5208"
  },
  "miner": "0xe6A7a1d47ff21B6321162AEA7C6CB457D5476Bca",
  "extraData": "0x476574682f76312e302e312d38326566323666362f6c696e75782f676f312e34",
  "transactions": [
    {
      "hash": "0x296bb926d6570a82269828f0b5973a2a0b17c6158af614634b6b57f4ba163ef2",
      "blockHash": "0x95d345b01b93b8da25e4f3fec52df00737e6c3afc83036b22f16826b841a49d5",
      "blockNumber": 78346,
      "transactionIndex": 0,
      "confirmations": null,
      "from": "0x120A270bbC009644e35F0bB6ab13f95b8199c4ad",
      "gasPrice": {
        "_hex": "0xd99440ba9"
      },
      "gasLimit": {
        "_hex": "0x3d090"
      },
      "to": "0x83816f103117f26a382c0ED30c21D0CF23f1D687",
      "value": {
        "_hex": "0x4d653f7ae4c67a400"
      },
      "nonce": 325,
      "data": "0x",
      "r": "0xd636eed5465eaee587d5fc68ac638c59f25fac6ea0665de7c5951f5f8acce646",
      "s": "0x2e192b9f70c7b268c00ab308de0f3b2a048dd94653feac77c7d6af2d817d5c02",
      "v": 28,
      "creates": null,
      "raw": "0xf870820145850d99440ba98303d0909483816f103117f26a382c0ed30c21d0cf23f1d6878904d653f7ae4c67a400801ca0d636eed5465eaee587d5fc68ac638c59f25fac6ea0665de7c5951f5f8acce646a02e192b9f70c7b268c00ab308de0f3b2a048dd94653feac77c7d6af2d817d5c02",
      "networkId": 0,
      "chainId": 0
    }
  ]
}