{
  "hash": "0x66d3f6cdb748adba28a9e1dfd49da8ea6d77fd99562439f60681614abc467017",
  "parentHash": "0x91e8b3578acd6f892a15a6368ade30e2782452876252d67f863ed9e853d14667",
  "number": 79576,
  "timestamp": 1439471891,
  "nonce": "0x5c89e164677ac7a6",
  "difficulty": 2342694690628,
  "gasLimit": {
    "_hex": "0x2fefd8"
  },
  "gasUsed": {
    "_hex": "0x5208"
  },
  "miner": "0xe6A7a1d47ff21B6321162AEA7C6CB457D5476Bca",
  "extraData": "0x476574682f76312e302e312d38326566323666362f6c696e75782f676f312e34",
  "transactions": [
    {
      "hash": "0x5f0fc5707ce0ced079fd6eae5a95b43ccc26efe90709199518d734d292f965d1",
      "blockHash": "0x66d3f6cdb748adba28a9e1dfd49da8ea6d77fd99562439f60681614abc467017",
      "blockNumber": 79576,
      "transactionIndex": 0,
      "confirmations": null,
      "from": "0x2910543Af39abA0Cd09dBb2D50200b3E800A63D2",
      "gasPrice": {
        "_hex": "0xe16a5c1b1"
      },
      "gasLimit": {
        "_hex": "0x5208"
      },
      "to": "0x5aABF5d8c476f9FdB39e91DB8d477e1e8eF31719",
      "value": {
        "_hex": "0xdcef33a6f838000"
      },
      "nonce": 361,
      "data": "0x",
      "r": "0xacf82fe3cd9846b476bfff373e20a98d88c88ec13621d837a905076ae9ace2b0",
      "s": "0x2a141b0cf917c8bb8b6e39b5a3c33a9d616a42bd7d7d5720bf3c8b7ebef1fafe",
      "v": 28,
      "creates": null,
      "raw": "0xf86e820169850e16a5c1b1825208945aabf5d8c476f9fdb39e91db8d477e1e8ef31719880dcef33a6f838000801ca0acf82fe3cd9846b476bfff373e20a98d88c88ec13621d837a905076ae9ace2b0a02a141b0cf917c8bb8b6e39b5a3c33a9d616a42bd7d7d5720bf3c8b7ebef1fafe",
      "networkId": 0,
      "chainId": 0
    }
  ]
}