{
  "hash": "0x1c2896f45f29ebea13f927a98d0adcbceb6436c34b031ec98c02a720d6404d32",
  "parentHash": "0xe34adf969258c0065ecf0836b616e2a93da9f00a9a5dbc1102dafd185c9042f4",
  "number": 81050,
  "timestamp": 1439495282,
  "nonce": "0x5b2892ceaf146780",
  "difficulty": 2435589039400,
  "gasLimit": {
    "_hex": "0x2fefd8"
  },
  "gasUsed": {
    "_hex": "0xf9998"
  },
  "miner": "0x3172ceC048754c2c0D3808fB028B7b060bb76780",
  "extraData": "0x",
  "transactions": [
    {
      "hash": "0xc31721d8324223ebe7767e211d3e0304f09709d2145af89054f0c0f0e8c3b237",
      "blockHash": "0x1c2896f45f29ebea13f927a98d0adcbceb6436c34b031ec98c02a720d6404d32",
      "blockNumber": 81050,
      "transactionIndex": 0,
      "confirmations": null,
      "from": "0xA12E42660746c6a0484965f36D7b4d6a727BDa72",
      "gasPrice": {
        "_hex": "0x1012728bde5"
      },
      "gasLimit": {
        "_hex": "0x5b04"
      },
      "to": "0x2910543Af39abA0Cd09dBb2D50200b3E800A63D2",
      "value": {
        "_hex": "0x29a2241af62c0000"
      },
      "nonce": 4,
      "data": "0x584534324554484b52414b454e54314834395730",
      "r": "0x7c6eac5f95ff4ded8a4cfe1fefec82bcf8770e48d9025b58ca5b7a5f3d24c99b",
      "s": "0x7eafefe3a6187dd8e0251152a9307c4ba3e9a85558d9b6dad9b73dce68acdab3",
      "v": 28,
      "creates": null,
      "raw": "0xf881048601012728bde5825b04942910543af39aba0cd09dbb2d50200b3e800a63d28829a2241af62c000094584534324554484b52414b454e543148343957301ca07c6eac5f95ff4ded8a4cfe1fefec82bcf8770e48d9025b58ca5b7a5f3d24c99ba07eafefe3a6187dd8e0251152a9307c4ba3e9a85558d9b6dad9b73dce68acdab3",
      "networkId": 0,
      "chainId": 0
    },
    {
      "hash": "0x1397ff3408bef8184bf9f038f72c3ba1028556ce800c46656546d803019ea0e6",
      "blockHash": "0x1c2896f45f29ebea13f927a98d0adcbceb6436c34b031ec98c02a720d6404d32",
      "blockNumber": 81050,
      "transactionIndex": 1,
      "confirmations": null,
      "from": "0x4230fd701B0a2AbF8E7b0A6bd430cEF4736d29c2",
      "gasPrice": {
        "_hex": "0xda08274e7"
      },
      "gasLimit": {
        "_hex": "0xf4240"
      },
      "to": "0x109C4f2CCc82C4d77Bde15F306707320294Aea3F",
      "value": {
        "_hex": "0xde0b6b3a7640000"
      },
      "nonce": 0,
      "data": "0x",
      "r": "0x003179718c0765c79ec9eba1033e7d9f72df0d2564547f40545d857d740009c0",
      "s": "0x421b601f5b8c124294c346ceeaa18cc40fc2cb9792a4dadb26215df870dafd44",
      "v": 27,
      "creates": null,
      "raw": "0xf86c80850da08274e7830f424094109c4f2ccc82c4d77bde15f306707320294aea3f880de0b6b3a7640000801b9f3179718c0765c79ec9eba1033e7d9f72df0d2564547f40545d857d740009c0a0421b601f5b8c124294c346ceeaa18cc40fc2cb9792a4dadb26215df870dafd44",
      "networkId": 0,
      "chainId": 0
    }
  ]
}