{
  "hash": "0x66b948e173404273b343fdcde1f07b21615061bef65e494197c77daef5b7c4e9",
  "parentHash": "0x5fdc12c9b2cf18b1fc2e3e5b34dcb83f4f88a82a8595f957a16fd0a9065b2d42",
  "number": 46398,
  "timestamp": 1438922428,
  "nonce": "0x6c076612eb87c45d",
  "difficulty": 1467524907849,
  "gasLimit": {
    "_hex": "0x5f26"
  },
  "gasUsed": {
    "_hex": "0x5208"
  },
  "miner": "0xbb7B8287f3F0a933474a79eAe42CBCa977791171",
  "extraData": "0x476574682f4c5649562f76312e302e312f6c696e75782f676f312e342e32",
  "transactions": [
    {
      "hash": "0x98ddf49c5b95f4b6ce94c7c570cf99cc918a004daba17f1f4ae0373a8fb9795f",
      "blockHash": "0x66b948e173404273b343fdcde1f07b21615061bef65e494197c77daef5b7c4e9",
      "blockNumber": 46398,
      "transactionIndex": 0,
      "confirmations": null,
      "from": "0x805D846fB0bc02a7337226d685be9ee773b9198a",
      "gasPrice": {
        "_hex": "0x68c6171400"
      },
      "gasLimit": {
        "_hex": "0x5208"
      },
      "to": "0x3Ce9c2078713Ec3530f7EdFe8C0d9Dbf6f0FA5c1",
      "value": {
        "_hex": "0xa29e967e60e0cc0000"
      },
      "nonce": 1,
      "data": "0x",
      "r": "0xa36eb4ff5461d7d0e73fc2d2058b4d3f8e8c68db389fb64cd7403806d98f889f",
      "s": "0x0b2783411eb646de2c33bb4597d30f5016d13bceb38caf3b5ea5085a3e5d2017",
      "v": 28,
      "creates": null,
      "raw": "0xf86d018568c6171400825208943ce9c2078713ec3530f7edfe8c0d9dbf6f0fa5c189a29e967e60e0cc0000801ca0a36eb4ff5461d7d0e73fc2d2058b4d3f8e8c68db389fb64cd7403806d98f889fa00b2783411eb646de2c33bb4597d30f5016d13bceb38caf3b5ea5085a3e5d2017",
      "networkId": 0,
      "chainId": 0
    }
  ]
}