{
  "hash": "0x35c3fa20112478e5dd6eb23a3e6acf1391b8c4b7cdc2efac1fde2ed7c2b0b490",
  "parentHash": "0x81e555ed76f5249db6e363cef8a5e82b4867ced8839aa29954938a60a607fcdd",
  "number": 86019,
  "timestamp": 1439572319,
  "nonce": "0x9c5d20f972ebfff3",
  "difficulty": 2789400675397,
  "gasLimit": {
    "_hex": "0x2fefd8"
  },
  "gasUsed": {
    "_hex": "0xa6a0"
  },
  "miner": "0x157c6f2431eB1a95797EE86F7d17b3c0FD47A247",
  "extraData": "0x476574682f76312e302e312f77696e646f77732f676f312e342e32",
  "transactions": [
    {
      "hash": "0x6a39db8148797da745c6b40b60fcb2c4be248d9aceb4976b0db0a9295c2189d9",
      "blockHash": "0x35c3fa20112478e5dd6eb23a3e6acf1391b8c4b7cdc2efac1fde2ed7c2b0b490",
      "blockNumber": 86019,
      "transactionIndex": 0,
      "confirmations": null,
      "from": "0xCbF478675787C70C5696b1335EBCdaBF401298F9",
      "gasPrice": {
        "_hex": "0xd567a4ba6"
      },
      "gasLimit": {
        "_hex": "0x15f90"
      },
      "to": "0x0000000000000000000000000000000000000000",
      "value": {
        "_hex": "0x0"
      },
      "nonce": 1,
      "data": "0x432ced047465737400000000000000000000000000000000000000000000000000000000",
      "r": "0x87f9a37c3f00ec29c64ae42bc895bcb31ba0ed6c4f2b4d1edd1756f6801384d4",
      "s": "0x425f58d096f09277784bb1bf8cb6eaa6c07c7919df3868a24c39c127e4a3267d",
      "v": 27,
      "creates": null,
      "raw": "0xf88901850d567a4ba683015f9094000000000000000000000000000000000000000080a4432ced0474657374000000000000000000000000000000000000000000000000000000001ba087f9a37c3f00ec29c64ae42bc895bcb31ba0ed6c4f2b4d1edd1756f6801384d4a0425f58d096f09277784bb1bf8cb6eaa6c07c7919df3868a24c39c127e4a3267d",
      "networkId": 0,
      "chainId": 0
    },
    {
      "hash": "0x94ea4dec625c2659138558ed9e4b24120858a634bd74211cc9a215d849678adc",
      "blockHash": "0x35c3fa20112478e5dd6eb23a3e6acf1391b8c4b7cdc2efac1fde2ed7c2b0b490",
      "blockNumber": 86019,
      "transactionIndex": 1,
      "confirmations": null,
      "from": "0x120A270bbC009644e35F0bB6ab13f95b8199c4ad",
      "gasPrice": {
        "_hex": "0xd0feaf631"
      },
      "gasLimit": {
        "_hex": "0x15f90"
      },
      "to": "0x95C5717Afc281AFf43f3D7535Ab579925534aeA8",
      "value": {
        "_hex": "0x2b5e3af16b1880000"
      },
      "nonce": 468,
      "data": "0x",
      "r": "0x4916682a2120031988c3321dfb11e660707c7246877be89acfcb4b46aab75747",
      "s": "0x1e73fe43de1038727396454c882659804480b5efc15c07f5d4858637a578319c",
      "v": 27,
      "creates": null,
      "raw": "0xf8708201d4850d0feaf63183015f909495c5717afc281aff43f3d7535ab579925534aea88902b5e3af16b1880000801ba04916682a2120031988c3321dfb11e660707c7246877be89acfcb4b46aab75747a01e73fe43de1038727396454c882659804480b5efc15c07f5d4858637a578319c",
      "networkId": 0,
      "chainId": 0
    }
  ]
}