{
  "hash": "0x91efb2b45d6051b3d0e948feeb839a271b3350f1466fc22edb7702c39fa071d4",
  "parentHash": "0xd5af2c5e83a04c96c1b69681b31c08e0105d7b5e8df19a354b89b49ee996117e",
  "number": 102290,
  "timestamp": 1439835677,
  "nonce": "0xa8118a95cac9b4b2",
  "difficulty": 3931818248613,
  "gasLimit": {
    "_hex": "0x2fefd8"
  },
  "gasUsed": {
    "_hex": "0x5208"
  },
  "miner": "0xe64D681b0eBCa2997D5f35e72EbC7777973299D7",
  "extraData": "0x",
  "transactions": [
    {
      "hash": "0xbc3e14690b79d2193e19a50153dbcd4067167f50a051961045b0b4e00e3c39eb",
      "blockHash": "0x91efb2b45d6051b3d0e948feeb839a271b3350f1466fc22edb7702c39fa071d4",
      "blockNumber": 102290,
      "transactionIndex": 0,
      "confirmations": null,
      "from": "0x2910543Af39abA0Cd09dBb2D50200b3E800A63D2",
      "gasPrice": {
        "_hex": "0xd9e2a1d35"
      },
      "gasLimit": {
        "_hex": "0x5208"
      },
      "to": "0x2A0e7De30349795e0a25F107C5a8c018373c82fA",
      "value": {
        "_hex": "0x11c37937e08000"
      },
      "nonce": 991,
      "data": "0x",
      "r": "0x8f526c118eeb095f152eee822d20f2bdfcfa285bf19cbbe6d1e352a0027ea234",
      "s": "0x20def1e968913a1a29cc130902b6917525fb57419a0cde1829b9abefcc4b3da0",
      "v": 27,
      "creates": null,
      "raw": "0xf86d8203df850d9e2a1d35825208942a0e7de30349795e0a25f107c5a8c018373c82fa8711c37937e08000801ba08f526c118eeb095f152eee822d20f2bdfcfa285bf19cbbe6d1e352a0027ea234a020def1e968913a1a29cc130902b6917525fb57419a0cde1829b9abefcc4b3da0",
      "networkId": 0,
      "chainId": 0
    }
  ]
}