{
  "hash": "0x45ae923937e2a6b3ada5f12c2c1d79a3b2f1138cc41ddc32ba58b1abb64a65ec",
  "parentHash": "0xd0bbe8d3f977bad1c5bc7e7d095def2ad22b9c6d96b9f3316e7fe79ef0e09ac7",
  "number": 115747,
  "timestamp": 1440062727,
  "nonce": "0xc062a28d1fab7423",
  "difficulty": 4560353459634,
  "gasLimit": {
    "_hex": "0x2fefd8"
  },
  "gasUsed": {
    "_hex": "0x5208"
  },
  "miner": "0x9D49F602b0fdb924Bd63DDE2Bd0907E4A07c63a7",
  "extraData": "0x476574682f76312e302e312f6c696e75782f676f312e342e32",
  "transactions": [
    {
      "hash": "0x6e8c1d573d289fec459544d0a19aaf0292c5ae0df67d06f7fa5a831376d4dc1f",
      "blockHash": "0x45ae923937e2a6b3ada5f12c2c1d79a3b2f1138cc41ddc32ba58b1abb64a65ec",
      "blockNumber": 115747,
      "transactionIndex": 0,
      "confirmations": null,
      "from": "0x379965B927911bcF18D2d4F062Edf10c45847069",
      "gasPrice": {
        "_hex": "0xba43b7400"
      },
      "gasLimit": {
        "_hex": "0x5265"
      },
      "to": "0xE9820EfC74A9fe5fb68bf1e0FBf9945c1302bC0B",
      "value": {
        "_hex": "0x4eee0f1dc808c0000"
      },
      "nonce": 11,
      "data": "0x",
      "r": "0x6edca71b0524104e70ab4ac02de7c31c00038f9b3db5fbb92e10f09517b22d3d",
      "s": "0xfe87a090cd0d1eb3bc19f85b031f3d71377da5cd980389e17eee7ee469e94cae",
      "v": 27,
      "creates": null,
      "raw": "0xf86d0b850ba43b740082526594e9820efc74a9fe5fb68bf1e0fbf9945c1302bc0b8904eee0f1dc808c0000801ba06edca71b0524104e70ab4ac02de7c31c00038f9b3db5fbb92e10f09517b22d3da0fe87a090cd0d1eb3bc19f85b031f3d71377da5cd980389e17eee7ee469e94cae",
      "networkId": 0,
      "chainId": 0
    }
  ]
}