{
  "hash": "0xa9f6cb0579b621aa81fff91c2ed358475f5df2049d50a6e57b934b76882ed9f7",
  "parentHash": "0xafcf299944f8e9d1e0930e8d4489c38a6a3ef902fc719a9055c7cc00f7d04abc",
  "number": 76369,
  "timestamp": 1439419261,
  "nonce": "0x7c9d255fa0ac03de",
  "difficulty": 2230816669882,
  "gasLimit": {
    "_hex": "0x2fefd8"
  },
  "gasUsed": {
    "_hex": "0x2a86d"
  },
  "miner": "0xf8E0CA3Ed80bd541b94BEdCf259e8CF2141A9523",
  "extraData": "0x476574682f76312e302e312f77696e646f77732f676f312e342e32",
  "transactions": [
    {
      "hash": "0x59952f1d83d84370ab255a3dc0ee8115cce666f6cf3e47236c8f7679e38285dd",
      "blockHash": "0xa9f6cb0579b621aa81fff91c2ed358475f5df2049d50a6e57b934b76882ed9f7",
      "blockNumber": 76369,
      "transactionIndex": 0,
      "confirmations": null,
      "from": "0x120A270bbC009644e35F0bB6ab13f95b8199c4ad",
      "gasPrice": {
        "_hex": "0xd2e8bef1f"
      },
      "gasLimit": {
        "_hex": "0x15f90"
      },
      "to": "0x76Df61770A702069FE1381EAE55AD11A03dEcA93",
      "value": {
        "_hex": "0x56bc75e2d63100000"
      },
      "nonce": 311,
      "data": "0x",
      "r": "0xfc39cb3c9cb9f9ae969d24fda28092ebd7057e4275189397a0536400770adfd3",
      "s": "0x749685a7cc68353c7a7835a3abb2f4d41570a47a22697082852d39dfdf867c1b",
      "v": 28,
      "creates": null,
      "raw": "0xf870820137850d2e8bef1f83015f909476df61770a702069fe1381eae55ad11a03deca9389056bc75e2d63100000801ca0fc39cb3c9cb9f9ae969d24fda28092ebd7057e4275189397a0536400770adfd3a0749685a7cc68353c7a7835a3abb2f4d41570a47a22697082852d39dfdf867c1b",
      "networkId": 0,
      "chainId": 0
    },
    {
      "hash": "0xb13a709b2a34fdd3c7140f097117876eeef1579c3961b250d053bdb1d84c297e",
      "blockHash": "0xa9f6cb0579b621aa81fff91c2ed358475f5df2049d50a6e57b934b76882ed9f7",
      "blockNumber": 76369,
      "transactionIndex": 1,
      "confirmations": null,
      "from": "0x0e320219838E859b2F9f18B72e3d4073cA50B37D",
      "gasPrice": {
        "_hex": "0xd18c3fa1d"
      },
      "gasLimit": {
        "_hex": "0x2dc6c0"
      },
      "to": "0x35E57F2b08596f1946ECD9D31975eC3c2D7e1C1D",
      "value": {
        "_hex": "0x16345785d8a0000"
      },
      "nonce": 12,
      "data": "0xe2543d1c000000000000000000000000000000000000000000000000000000000000001e",
      "r": "0x63f9ffe09868e4c8f08b75748b2c35ef28ae94bec02edceaa2ba7adcd1357046",
      "s": "0x47a7f86e536d1a8fd06ee6d0383c87ea259e4c934b5c72817cafff8645214270",
      "v": 27,
      "creates": null,
      "raw": "0xf8910c850d18c3fa1d832dc6c09435e57f2b08596f1946ecd9d31975ec3c2d7e1c1d88016345785d8a0000a4e2543d1c000000000000000000000000000000000000000000000000000000000000001e1ba063f9ffe09868e4c8f08b75748b2c35ef28ae94bec02edceaa2ba7adcd1357046a047a7f86e536d1a8fd06ee6d0383c87ea259e4c934b5c72817cafff8645214270",
      "networkId": 0,
      "chainId": 0
    }
  ]
}