{
  "hash": "0xcfcaf01a21fdfcab478115bf10de69239fbac6decda5ed821a885b7e73da5640",
  "parentHash": "0x24257ef093d50ff4c7ba3a82725097c064d4e6fcffed1636bf0b4515ef0ffc77",
  "number": 116821,
  "timestamp": 1440098064,
  "nonce": "0x550087cf801a80af",
  "difficulty": 4338234253784,
  "gasLimit": {
    "_hex": "0x2fefd8"
  },
  "gasUsed": {
    "_hex": "0xa410"
  },
  "miner": "0xe6A7a1d47ff21B6321162AEA7C6CB457D5476Bca",
  "extraData": "0xd783010002844765746887676f312e342e32856c696e7578",
  "transactions": [
    {
      "hash": "0xf1d7fc1b96d87ff5f299dddffc8f131d10b793b784a6a6607c08abcd5be844a6",
      "blockHash": "0xcfcaf01a21fdfcab478115bf10de69239fbac6decda5ed821a885b7e73da5640",
      "blockNumber": 116821,
      "transactionIndex": 0,
      "confirmations": null,
      "from": "0xe6A7a1d47ff21B6321162AEA7C6CB457D5476Bca",
      "gasPrice": {
        "_hex": "0xba43b7400"
      },
      "gasLimit": {
        "_hex": "0x55f0"
      },
      "to": "0xD99b25c518320820D3C5ae9f47378DA32dED5f00",
      "value": {
        "_hex": "0x479f804e98b5a010"
      },
      "nonce": 5751,
      "data": "0x",
      "r": "0x68d55534dafee4fdb11df3d377a58de8d6fb27f569a45b4a78b4fb51a62a330b",
      "s": "0x42d5dba193327fe4c761f93db84e8b4994431aa2aeec54ec509a649336b271ff",
      "v": 28,
      "creates": null,
      "raw": "0xf86e821677850ba43b74008255f094d99b25c518320820d3c5ae9f47378da32ded5f0088479f804e98b5a010801ca068d55534dafee4fdb11df3d377a58de8d6fb27f569a45b4a78b4fb51a62a330ba042d5dba193327fe4c761f93db84e8b4994431aa2aeec54ec509a649336b271ff",
      "networkId": 0,
      "chainId": 0
    },
    {
      "hash": "0x9d9262b3e1381a15c118c648e807c04aa0071c3e30fbb18620cf06b8e19b8e38",
      "blockHash": "0xcfcaf01a21fdfcab478115bf10de69239fbac6decda5ed821a885b7e73da5640",
      "blockNumber": 116821,
      "transactionIndex": 1,
      "confirmations": null,
      "from": "0xe6A7a1d47ff21B6321162AEA7C6CB457D5476Bca",
      "gasPrice": {
        "_hex": "0xba43b7400"
      },
      "gasLimit": {
        "_hex": "0x55f0"
      },
      "to": "0x3131059fec5c802096c71004E5C3E87f67ED96d0",
      "value": {
        "_hex": "0x48db1293974424b8"
      },
      "nonce": 5752,
      "data": "0x",
      "r": "0x7874045d8ee93f923ebb2717cd607a4ed16cf59c721a8a9c71693f6efa870d3a",
      "s": "0x782c901d6927b4c773d8e6a16c863a52b5f9b10b775996bdfac6381172f41714",
      "v": 28,
      "creates": null,
      "raw": "0xf86e821678850ba43b74008255f0943131059fec5c802096c71004e5c3e87f67ed96d08848db1293974424b8801ca07874045d8ee93f923ebb2717cd607a4ed16cf59c721a8a9c71693f6efa870d3aa0782c901d6927b4c773d8e6a16c863a52b5f9b10b775996bdfac6381172f41714",
      "networkId": 0,
      "chainId": 0
    }
  ]
}