{
  "hash": "0x8fac58a931d91972714e2e9a6c281518b3c7cd1509fc159b610a8b689528c322",
  "parentHash": "0x5e99c2f26155cd1fb734feaa2434ee0285d48b1249bff451e8c8a14237dddefb",
  "number": 51388,
  "timestamp": 1439004095,
  "nonce": "0x6edb7aad797889e0",
  "difficulty": 1565823813317,
  "gasLimit": {
    "_hex": "0xaafb2"
  },
  "gasUsed": {
    "_hex": "0x5208"
  },
  "miner": "0x06Db13340f562261d079E4FA344802DdE8340307",
  "extraData": "0x476574682f76312e302e312f6c696e75782f676f312e342e32",
  "transactions": [
    {
      "hash": "0xcab82ab9df3dbc5d34c24db509fd8cc6c0dbc69ec07efc731f4e7d9e7a07c88c",
      "blockHash": "0x8fac58a931d91972714e2e9a6c281518b3c7cd1509fc159b610a8b689528c322",
      "blockNumber": 51388,
      "transactionIndex": 0,
      "confirmations": null,
      "from": "0xD2f56EeB7111655F1709413CE0f7D2c60F7b1846",
      "gasPrice": {
        "_hex": "0xe1cd0515b"
      },
      "gasLimit": {
        "_hex": "0x15f90"
      },
      "to": "0xf82c9103023A8f8EE3Ce0cBf5775Bbb57A2F32F8",
      "value": {
        "_hex": "0x2386f26fc10000"
      },
      "nonce": 0,
      "data": "0x",
      "r": "0x2bcb53b3ac2ac0e1f4b094be359a5a897cf9fc37803ec47943441fdc1f7bb0bc",
      "s": "0x3e8ae82ebf204f695bff0e03ce648c8dd75981c2da5506c98a147e01a4d64c19",
      "v": 28,
      "creates": null,
      "raw": "0xf86c80850e1cd0515b83015f9094f82c9103023a8f8ee3ce0cbf5775bbb57a2f32f8872386f26fc10000801ca02bcb53b3ac2ac0e1f4b094be359a5a897cf9fc37803ec47943441fdc1f7bb0bca03e8ae82ebf204f695bff0e03ce648c8dd75981c2da5506c98a147e01a4d64c19",
      "networkId": 0,
      "chainId": 0
    }
  ]
}