{
  "hash": "0xb51045e3df864e789eb9b63a3d21ab4032e30968bc0c197e803d800b2b15d73c",
  "parentHash": "0xa6205d53031338530f4f89b7675b54bacb03f2084302e5ea375f5660f98aaf8f",
  "number": 87468,
  "timestamp": 1439592647,
  "nonce": "0x44ca18e238a0ce5e",
  "difficulty": 3134135112310,
  "gasLimit": {
    "_hex": "0x2fefd8"
  },
  "gasUsed": {
    "_hex": "0x5208"
  },
  "miner": "0xE4Dd37247830493DE1Df7c758DD746DCdE19419e",
  "extraData": "0x476574682f76312e302e312f77696e646f77732f676f312e342e32",
  "transactions": [
    {
      "hash": "0x520ebfc0884e7c31aecac3a5e7519dfa2919dfd1de053937eb7bf7de2e078ccb",
      "blockHash": "0xb51045e3df864e789eb9b63a3d21ab4032e30968bc0c197e803d800b2b15d73c",
      "blockNumber": 87468,
      "transactionIndex": 0,
      "confirmations": null,
      "from": "0x2910543Af39abA0Cd09dBb2D50200b3E800A63D2",
      "gasPrice": {
        "_hex": "0xd3b39fc95"
      },
      "gasLimit": {
        "_hex": "0x5208"
      },
      "to": "0xb2169f1326FE9745321aD99563654089bAdf09eb",
      "value": {
        "_hex": "0x1e5a73716aacb8000"
      },
      "nonce": 704,
      "data": "0x",
      "r": "0x261e400baa40f50686943af08c982cbbbfc412e44f82ac7f3d02e4d52bd6efbb",
      "s": "0x78ed8212d3885a25564b0f6489b9a95f13641828bf10f5d426456ab10698dee6",
      "v": 28,
      "creates": null,
      "raw": "0xf86f8202c0850d3b39fc9582520894b2169f1326fe9745321ad99563654089badf09eb8901e5a73716aacb8000801ca0261e400baa40f50686943af08c982cbbbfc412e44f82ac7f3d02e4d52bd6efbba078ed8212d3885a25564b0f6489b9a95f13641828bf10f5d426456ab10698dee6",
      "networkId": 0,
      "chainId": 0
    }
  ]
}