{
  "hash": "0x1a0e9f0ed42be20d313c59b884430731f738d03c5d617c537233dda94188dbde",
  "parentHash": "0x5c6c9751cba15f0e9ec738a393fa84b97fbf691178e56fe84ac5f9aaf5ff4f50",
  "number": 105832,
  "timestamp": 1439894195,
  "nonce": "0x9ca7b5a9b1b19abd",
  "difficulty": 4440424857025,
  "gasLimit": {
    "_hex": "0x2fefd8"
  },
  "gasUsed": {
    "_hex": "0xcc05"
  },
  "miner": "0x88D74a59454F6cF3B51ef6b9136AFb6b9D405A88",
  "extraData": "0x476574682f76312e302e312d39393231366634612f6c696e75782f676f312e34",
  "transactions": [
    {
      "hash": "0x99467328a28054500dad38e36de5315916cbb7f1dd96701e52a5d300332b9565",
      "blockHash": "0x1a0e9f0ed42be20d313c59b884430731f738d03c5d617c537233dda94188dbde",
      "blockNumber": 105832,
      "transactionIndex": 0,
      "confirmations": null,
      "from": "0x87C5B5874A18B4306DF8a752a6C8cc3E82daFc19",
      "gasPrice": {
        "_hex": "0x11663a002a3"
      },
      "gasLimit": {
        "_hex": "0x493e0"
      },
      "to": "0xD79B4C6791784184e2755B2fC1659eaaB0f80456",
      "value": {
        "_hex": "0x219e84fb1b103f9e"
      },
      "nonce": 284,
      "data": "0x8d2161860000000000000000000000000000000000000000000000000000000000000006d3d96ceed0cfca4794c2a5a3d3aeefe69da0a2a669e66a5651f30b64831c3db0",
      "r": "0xe158a01c00e4da0ca362bdefbc16a13c92b46dc3cdc1544fc08b7022d51b9cfd",
      "s": "0x22e9e6468a05a1dde5d54446826b409fbc0690f150d7968a5c3638c5ecb751f2",
      "v": 28,
      "creates": null,
      "raw": "0xf8b582011c86011663a002a3830493e094d79b4c6791784184e2755b2fc1659eaab0f8045688219e84fb1b103f9eb8448d2161860000000000000000000000000000000000000000000000000000000000000006d3d96ceed0cfca4794c2a5a3d3aeefe69da0a2a669e66a5651f30b64831c3db01ca0e158a01c00e4da0ca362bdefbc16a13c92b46dc3cdc1544fc08b7022d51b9cfda022e9e6468a05a1dde5d54446826b409fbc0690f150d7968a5c3638c5ecb751f2",
      "networkId": 0,
      "chainId": 0
    },
    {
      "hash": "0x1130dfe83c8f31794a9dbc8c8b698a6af74a922d76188129ae5302b60c107d19",
      "blockHash": "0x1a0e9f0ed42be20d313c59b884430731f738d03c5d617c537233dda94188dbde",
      "blockNumber": 105832,
      "transactionIndex": 1,
      "confirmations": null,
      "from": "0x60f7C29656Fc491e766750556fE4F0E407f81eB5",
      "gasPrice": {
        "_hex": "0xd53c3067b"
      },
      "gasLimit": {
        "_hex": "0x15f90"
      },
      "to": "0x5773DFFDd4AD3114CAB6eFE3b9Ca703Fa450Fe40",
      "value": {
        "_hex": "0x3e8"
      },
      "nonce": 1,
      "data": "0x",
      "r": "0xba8c236b04c353e81f50777d7c2a3ed60ef742f3162441c11b039fe5fcab79d1",
      "s": "0x684e5832c29877b7895fddb83152fac3fe69c7bf1861d04327c4eb82a1a090cc",
      "v": 28,
      "creates": null,
      "raw": "0xf86701850d53c3067b83015f90945773dffdd4ad3114cab6efe3b9ca703fa450fe408203e8801ca0ba8c236b04c353e81f50777d7c2a3ed60ef742f3162441c11b039fe5fcab79d1a0684e5832c29877b7895fddb83152fac3fe69c7bf1861d04327c4eb82a1a090cc",
      "networkId": 0,
      "chainId": 0
    }
  ]
}