{
  "hash": "0x1841780d3cbd3cf7ee1d9f19425e870a19fd1256460c5c09d52fb7ce6f632657",
  "parentHash": "0x6905c3a19a12762f6e2136f05c8036384fb906ab9ad8659b3c30868e3c88b216",
  "number": 70278,
  "timestamp": 1439317481,
  "nonce": "0x9188757a0c358dd0",
  "difficulty": 2129166432747,
  "gasLimit": {
    "_hex": "0x2fefd8"
  },
  "gasUsed": {
    "_hex": "0x5208"
  },
  "miner": "0x6dED38803DA575897de5d51b7AEF3b86f35945A1",
  "extraData": "0x476574682f76312e302e312f6c696e75782f676f312e342e32",
  "transactions": [
    {
      "hash": "0x07440d592e21b225b250499a6b9f6d74d5a24b13c6b37b6d05ed9989d93e5eed",
      "blockHash": "0x1841780d3cbd3cf7ee1d9f19425e870a19fd1256460c5c09d52fb7ce6f632657",
      "blockNumber": 70278,
      "transactionIndex": 0,
      "confirmations": null,
      "from": "0x7Bd46b71ceE5Bb9e27d837625365cdafDA812D87",
      "gasPrice": {
        "_hex": "0x746a528800"
      },
      "gasLimit": {
        "_hex": "0x5b04"
      },
      "to": "0xB7A755cBC2Bb4D94e844A9b1D1ff53420d836478",
      "value": {
        "_hex": "0x1f399b1438a10000"
      },
      "nonce": 1,
      "data": "0x",
      "r": "0x36d5678a13c2b5c80ee65ddc4ede40de2d828a692c14c24f8a965cbbb704266c",
      "s": "0x0f1a8a3ef78fb77cd25b3fa32044efdb17ad3421a0cf833b1166a633aac81ac4",
      "v": 27,
      "creates": null,
      "raw": "0xf86c0185746a528800825b0494b7a755cbc2bb4d94e844a9b1d1ff53420d836478881f399b1438a10000801ba036d5678a13c2b5c80ee65ddc4ede40de2d828a692c14c24f8a965cbbb704266ca00f1a8a3ef78fb77cd25b3fa32044efdb17ad3421a0cf833b1166a633aac81ac4",
      "networkId": 0,
      "chainId": 0
    }
  ]
}