{
  "hash": "0x59d90f78665420980a0105b8aa484f4570c3dcc54549ba603ec5dfa4b6c9e321",
  "parentHash": "0xe0c96d14de9067b0507510e5a075b8d55a4380f292568f907a74c4169452b097",
  "number": 68596,
  "timestamp": 1439290462,
  "nonce": "0x9529556ee797e7e4",
  "difficulty": 2022174162066,
  "gasLimit": {
    "_hex": "0x2fefd8"
  },
  "gasUsed": {
    "_hex": "0xf618"
  },
  "miner": "0x39A1BB80a741bF5EC39FB9BE59408Fa0F418fFBf",
  "extraData": "0x476574682f76312e302e312f77696e646f77732f676f312e342e32",
  "transactions": [
    {
      "hash": "0x89a008088aadf3d8f3c72a45e9661bdb2be76dfc1f76679a152f99aa7c193fa6",
      "blockHash": "0x59d90f78665420980a0105b8aa484f4570c3dcc54549ba603ec5dfa4b6c9e321",
      "blockNumber": 68596,
      "transactionIndex": 0,
      "confirmations": null,
      "from": "0x5097e53Cb43e993De1753e757d3bE739Ca8FAF2B",
      "gasPrice": {
        "_hex": "0xba43b7400"
      },
      "gasLimit": {
        "_hex": "0x5208"
      },
      "to": "0x45d27E2B8F32a9f9509DDe8F4C105beC0861421c",
      "value": {
        "_hex": "0xf0088de8d15000"
      },
      "nonce": 1,
      "data": "0x",
      "r": "0x92adc5ee5deed5442e5f9b669a73b651106685ee74242233dbe730af91e0e51c",
      "s": "0x4efa503b05c9a28139ccfd82318a1a1d276199b5d28edc9e23ea1584894988e8",
      "v": 27,
      "creates": null,
      "raw": "0xf86b01850ba43b74008252089445d27e2b8f32a9f9509dde8f4c105bec0861421c87f0088de8d15000801ba092adc5ee5deed5442e5f9b669a73b651106685ee74242233dbe730af91e0e51ca04efa503b05c9a28139ccfd82318a1a1d276199b5d28edc9e23ea1584894988e8",
      "networkId": 0,
      "chainId": 0
    },
    {
      "hash": "0xbbc20016afabcbeed9f7a0398d6133f6322c47c4e5a3feb066f66900ea9469af",
      "blockHash": "0x59d90f78665420980a0105b8aa484f4570c3dcc54549ba603ec5dfa4b6c9e321",
      "blockNumber": 68596,
      "transactionIndex": 1,
      "confirmations": null,
      "from": "0xAb0285cee02DF2A960764518c189E85De031f289",
      "gasPrice": {
        "_hex": "0xba43b7400"
      },
      "gasLimit": {
        "_hex": "0x5208"
      },
      "to": "0x7f2F036F8b8276834f461461Ad56E242386c0BF2",
      "value": {
        "_hex": "0xf0088de8d15000"
      },
      "nonce": 1,
      "data": "0x",
      "r": "0xdc8e15d9aa3577639a68ad190a3d2ae09bd3e864b60212ebac8de19ea4212264",
      "s": "0x4f17686e7be7a5270e1fa89c331e83109a6f135f1234fb8f45f918db79cf4177",
      "v": 27,
      "creates": null,
      "raw": "0xf86b01850ba43b7400825208947f2f036f8b8276834f461461ad56e242386c0bf287f0088de8d15000801ba0dc8e15d9aa3577639a68ad190a3d2ae09bd3e864b60212ebac8de19ea4212264a04f17686e7be7a5270e1fa89c331e83109a6f135f1234fb8f45f918db79cf4177",
      "networkId": 0,
      "chainId": 0
    },
    {
      "hash": "0x77cdc0659c7160b5ca7a0e7bd74633ee10ce2858d881fce8ae75f6164a950475",
      "blockHash": "0x59d90f78665420980a0105b8aa484f4570c3dcc54549ba603ec5dfa4b6c9e321",
      "blockNumber": 68596,
      "transactionIndex": 2,
      "confirmations": null,
      "from": "0xDF90DEb4282e18875070927F231d8e483e915771",
      "gasPrice": {
        "_hex": "0xba43b7400"
      },
      "gasLimit": {
        "_hex": "0x5208"
      },
      "to": "0x1b2718De9BfE9111a6Ed2390f0E9A3f55992a334",
      "value": {
        "_hex": "0xf0088de8d15000"
      },
      "nonce": 1,
      "data": "0x",
      "r": "0x1de38e255734b0fc66a4d789fb0188ae7a5fef61c2cfb3fcbc47bdbdcdd34e15",
      "s": "0x336446337da0adedade2201425d32b5c411c11ef62270f141750272cac99c759",
      "v": 28,
      "creates": null,
      "raw": "0xf86b01850ba43b7400825208941b2718de9bfe9111a6ed2390f0e9a3f55992a33487f0088de8d15000801ca01de38e255734b0fc66a4d789fb0188ae7a5fef61c2cfb3fcbc47bdbdcdd34e15a0336446337da0adedade2201425d32b5c411c11ef62270f141750272cac99c759",
      "networkId": 0,
      "chainId": 0
    }
  ]
}