{
  "hash": "0x22ca0322974b383738d26b016d3c72ae49644ebbd624016504b3c8f323fdd618",
  "parentHash": "0xce263d50a0a8b2f4e58c99f1e19851abbf81a57a6e764d13f3edc6508480452a",
  "number": 95011,
  "timestamp": 1439717642,
  "nonce": "0xb56cb2ed83a0b53f",
  "difficulty": 3501776720409,
  "gasLimit": {
    "_hex": "0x2fefd8"
  },
  "gasUsed": {
    "_hex": "0xa410"
  },
  "miner": "0xe6A7a1d47ff21B6321162AEA7C6CB457D5476Bca",
  "extraData": "0x476574682f76312e302e312d38326566323666362f6c696e75782f676f312e34",
  "transactions": [
    {
      "hash": "0x662cc9ea8ff5047ce681e99da7a2263ef70d92a68ea33da0cebb049b87c98ff8",
      "blockHash": "0x22ca0322974b383738d26b016d3c72ae49644ebbd624016504b3c8f323fdd618",
      "blockNumber": 95011,
      "transactionIndex": 0,
      "confirmations": null,
      "from": "0x23f2D0fd3B4C98Fb1698564deB4898275E2e831f",
      "gasPrice": {
        "_hex": "0xcff3788a4"
      },
      "gasLimit": {
        "_hex": "0x5208"
      },
      "to": "0x32Be343B94f860124dC4fEe278FDCBD38C102D88",
      "value": {
        "_hex": "0x299df9f33d557c00"
      },
      "nonce": 17,
      "data": "0x",
      "r": "0xfb047ea22c90d35c7b8ae68e423905308cb125c3ac56ba47c78843b59e7d6b30",
      "s": "0x3e845cace76770768fc0e291c82558a26704dff940a936ac7bd3a80db1eb0d90",
      "v": 28,
      "creates": null,
      "raw": "0xf86c11850cff3788a48252089432be343b94f860124dc4fee278fdcbd38c102d8888299df9f33d557c00801ca0fb047ea22c90d35c7b8ae68e423905308cb125c3ac56ba47c78843b59e7d6b30a03e845cace76770768fc0e291c82558a26704dff940a936ac7bd3a80db1eb0d90",
      "networkId": 0,
      "chainId": 0
    },
    {
      "hash": "0x01989a980d2328565d778e7eb8fef9dadef165318a4ed9fe575ab3d0a528d8b2",
      "blockHash": "0x22ca0322974b383738d26b016d3c72ae49644ebbd624016504b3c8f323fdd618",
      "blockNumber": 95011,
      "transactionIndex": 1,
      "confirmations": null,
      "from": "0x379965B927911bcF18D2d4F062Edf10c45847069",
      "gasPrice": {
        "_hex": "0xba43b7400"
      },
      "gasLimit": {
        "_hex": "0x5266"
      },
      "to": "0xE9820EfC74A9fe5fb68bf1e0FBf9945c1302bC0B",
      "value": {
        "_hex": "0x43a77aabd00780000"
      },
      "nonce": 4,
      "data": "0x",
      "r": "0xca131d8f2bee736fdd42f020578a0a9172c5fab986d1603847078737dec05673",
      "s": "0xe8c58fbc1987a5d38a48f80bd3b9f7cb933a2a985a818a51e2bd49c552a3b6f0",
      "v": 28,
      "creates": null,
      "raw": "0xf86d04850ba43b740082526694e9820efc74a9fe5fb68bf1e0fbf9945c1302bc0b89043a77aabd00780000801ca0ca131d8f2bee736fdd42f020578a0a9172c5fab986d1603847078737dec05673a0e8c58fbc1987a5d38a48f80bd3b9f7cb933a2a985a818a51e2bd49c552a3b6f0",
      "networkId": 0,
      "chainId": 0
    }
  ]
}