{
  "hash": "0xb68752f1c3ff021e4f4a068fe5842f226751a26d41ec2d99e1aa0a0214bb00ed",
  "parentHash": "0x45955f79fc2595262fdda8ccbdd62c27767c5ea0cf06e5bdfc1264d281052109",
  "number": 90465,
  "timestamp": 1439640481,
  "nonce": "0xb4a5911526f03b76",
  "difficulty": 3333449681459,
  "gasLimit": {
    "_hex": "0x2fefd8"
  },
  "gasUsed": {
    "_hex": "0x5208"
  },
  "miner": "0xe6A7a1d47ff21B6321162AEA7C6CB457D5476Bca",
  "extraData": "0x476574682f76312e302e312d38326566323666362f6c696e75782f676f312e34",
  "transactions": [
    {
      "hash": "0x15820a31be69bb2ff9eb22a2997bbcc58c44f78e5122230ee40ab9baae47e782",
      "blockHash": "0xb68752f1c3ff021e4f4a068fe5842f226751a26d41ec2d99e1aa0a0214bb00ed",
      "blockNumber": 90465,
      "transactionIndex": 0,
      "confirmations": null,
      "from": "0x32Be343B94f860124dC4fEe278FDCBD38C102D88",
      "gasPrice": {
        "_hex": "0xd193c356d"
      },
      "gasLimit": {
        "_hex": "0x5208"
      },
      "to": "0xD6CBc00b3ECFF6E48a1106fEaf62f77C4F52E465",
      "value": {
        "_hex": "0x1dfcaaabbd23000000"
      },
      "nonce": 853,
      "data": "0x",
      "r": "0x4ffc3eb7d068a21cd26d348eb851dc84e88aafc40ea7705f2599535e5ffcd9b4",
      "s": "0x45681e11e64e3c7f8bb6a2c4e1d902eb5400ddb0b491e1cab6cb5d44c676c208",
      "v": 28,
      "creates": null,
      "raw": "0xf86f820355850d193c356d82520894d6cbc00b3ecff6e48a1106feaf62f77c4f52e465891dfcaaabbd23000000801ca04ffc3eb7d068a21cd26d348eb851dc84e88aafc40ea7705f2599535e5ffcd9b4a045681e11e64e3c7f8bb6a2c4e1d902eb5400ddb0b491e1cab6cb5d44c676c208",
      "networkId": 0,
      "chainId": 0
    }
  ]
}