{
  "hash": "0x910ba1d8153cc0f5c7aeef3ce3b1d2266e9bcabb4c606f2a7544870ce31f1ee4",
  "parentHash": "0x0832a54c9e8cc192f99b7a20ab68c6616444df46445542abccc39c5c153637b7",
  "number": 82539,
  "timestamp": 1439521107,
  "nonce": "0x9e473fa54a0539d3",
  "difficulty": 2368315863606,
  "gasLimit": {
    "_hex": "0x2fefd8"
  },
  "gasUsed": {
    "_hex": "0x5208"
  },
  "miner": "0xf8E0CA3Ed80bd541b94BEdCf259e8CF2141A9523",
  "extraData": "0x476574682f76312e302e312f77696e646f77732f676f312e342e32",
  "transactions": [
    {
      "hash": "0x8403142fc16c8cbf226378fec6534ec9d4d5b011f9e0250d387b06dd219da911",
      "blockHash": "0x910ba1d8153cc0f5c7aeef3ce3b1d2266e9bcabb4c606f2a7544870ce31f1ee4",
      "blockNumber": 82539,
      "transactionIndex": 0,
      "confirmations": null,
      "from": "0x27A2f708f13CFE24f8e5d6E8b7D8E971D2449Ba0",
      "gasPrice": {
        "_hex": "0xcd01555c5"
      },
      "gasLimit": {
        "_hex": "0x15f90"
      },
      "to": "0x61F642543d22bAf5382908a714E675Cc0b51ea45",
      "value": {
        "_hex": "0xd02ab486cedc0000"
      },
      "nonce": 1,
      "data": "0x",
      "r": "0xbcb09ba75960bf7941e9e7f18dd61e12a115d25bc1d457fbf35e5f8a4ca7d478",
      "s": "0x5f6c6894754479e5c7eb71244b10bf32da90c13237c45769f0b0894931dde677",
      "v": 28,
      "creates": null,
      "raw": "0xf86d01850cd01555c583015f909461f642543d22baf5382908a714e675cc0b51ea4588d02ab486cedc0000801ca0bcb09ba75960bf7941e9e7f18dd61e12a115d25bc1d457fbf35e5f8a4ca7d478a05f6c6894754479e5c7eb71244b10bf32da90c13237c45769f0b0894931dde677",
      "networkId": 0,
      "chainId": 0
    }
  ]
}