{
  "hash": "0xa2a98fd48388f2921c06267f95c06bb9a2a708b089c0262a7cb8d8083e2e103f",
  "parentHash": "0xf452c3eaf2df0f8852546b7b84b113a9978d18cfc71ab05000409ab52da0403b",
  "number": 73937,
  "timestamp": 1439377702,
  "nonce": "0x7fda455b1058377c",
  "difficulty": 2227109441287,
  "gasLimit": {
    "_hex": "0x2fefd8"
  },
  "gasUsed": {
    "_hex": "0x5208"
  },
  "miner": "0x9252A9C83D5703eDC585CfDcE80d5F903D357514",
  "extraData": "0x476574682f76312e302e312f6c696e75782f676f312e342e32",
  "transactions": [
    {
      "hash": "0x31afaf01f30a86add5029aefa81797e698f0ff40b945e7f2be62c1a25b261244",
      "blockHash": "0xa2a98fd48388f2921c06267f95c06bb9a2a708b089c0262a7cb8d8083e2e103f",
      "blockNumber": 73937,
      "transactionIndex": 0,
      "confirmations": null,
      "from": "0x2910543Af39abA0Cd09dBb2D50200b3E800A63D2",
      "gasPrice": {
        "_hex": "0xddf9a8640"
      },
      "gasLimit": {
        "_hex": "0x5208"
      },
      "to": "0x19ae27E1b61445EB9f27821A5eB4b3e957319e7e",
      "value": {
        "_hex": "0x9896163ef96b8000"
      },
      "nonce": 295,
      "data": "0x",
      "r": "0xbf8b9e5848b0a662076d09b5928cac245fa4e4b44cf1af0c45c4f510f90118ce",
      "s": "0x0efec6ed1c0edc2fbde0b2cc6ef2815ca74ee6b255c5469e788990421af6be05",
      "v": 28,
      "creates": null,
      "raw": "0xf86e820127850ddf9a86408252089419ae27e1b61445eb9f27821a5eb4b3e957319e7e889896163ef96b8000801ca0bf8b9e5848b0a662076d09b5928cac245fa4e4b44cf1af0c45c4f510f90118cea00efec6ed1c0edc2fbde0b2cc6ef2815ca74ee6b255c5469e788990421af6be05",
      "networkId": 0,
      "chainId": 0
    }
  ]
}