{
  "hash": "0x2b8e11f42bcedde69cd1d6be69cf0d774bf85b18d057a5c6cb26c5eefee5f05a",
  "parentHash": "0x1cc5cf657e8d904f9593d51148568e64874d1f644ed8575244c8138ca4e8b115",
  "number": 89910,
  "timestamp": 1439631054,
  "nonce": "0x5113570f378b7263",
  "difficulty": 3338557118448,
  "gasLimit": {
    "_hex": "0x2fefd8"
  },
  "gasUsed": {
    "_hex": "0x5208"
  },
  "miner": "0xf927a40C8B7F6E07c5af7FA2155B4864a4112B13",
  "extraData": "0x",
  "transactions": [
    {
      "hash": "0x344598e4ed1867f1aca7fe4e0721319212f189dd343fb6872916c5823038a43a",
      "blockHash": "0x2b8e11f42bcedde69cd1d6be69cf0d774bf85b18d057a5c6cb26c5eefee5f05a",
      "blockNumber": 89910,
      "transactionIndex": 0,
      "confirmations": null,
      "from": "0xeC06c233d618b41076FbfF739Efb85a4999F89Da",
      "gasPrice": {
        "_hex": "0xd3a8b4f0b"
      },
      "gasLimit": {
        "_hex": "0x5208"
      },
      "to": "0x32Be343B94f860124dC4fEe278FDCBD38C102D88",
      "value": {
        "_hex": "0x1984cb700da99c00"
      },
      "nonce": 1,
      "data": "0x",
      "r": "0x8797021cfa2836fd04bbe711c014aee9062cc61d0ee0270ede9e978ebf80fb89",
      "s": "0x48977a3b2d7756f00293ef5a0cd0e186732940106b3ab1cb17be4cc76abec4ad",
      "v": 28,
      "creates": null,
      "raw": "0xf86c01850d3a8b4f0b8252089432be343b94f860124dc4fee278fdcbd38c102d88881984cb700da99c00801ca08797021cfa2836fd04bbe711c014aee9062cc61d0ee0270ede9e978ebf80fb89a048977a3b2d7756f00293ef5a0cd0e186732940106b3ab1cb17be4cc76abec4ad",
      "networkId": 0,
      "chainId": 0
    }
  ]
}