{
  "hash": "0xf475026b818f2362190f403ebd1c526aa14c60914981a395db3b8926d0d2d543",
  "parentHash": "0xf98132a2e713044c9046a12e3eb43d3e485818d4abf6de19a00e05cda6b1a93c",
  "number": 80424,
  "timestamp": 1439485323,
  "nonce": "0x6d7565abd113d76a",
  "difficulty": 2400350621424,
  "gasLimit": {
    "_hex": "0x2fefd8"
  },
  "gasUsed": {
    "_hex": "0x25d85"
  },
  "miner": "0x47ff6576639c2e94762eA5443978D7681C0E78DC",
  "extraData": "0x476574682f76312e302e312f6c696e75782f676f312e342e32",
  "transactions": [
    {
      "hash": "0xd395962d4112cdcbee7744c94451837690771615041506c9fc9c2bb33bf91a63",
      "blockHash": "0xf475026b818f2362190f403ebd1c526aa14c60914981a395db3b8926d0d2d543",
      "blockNumber": 80424,
      "transactionIndex": 0,
      "confirmations": null,
      "from": "0x671c5D0ffeB3993FD3Ce1D4a70A04eD949B3a250",
      "gasPrice": {
        "_hex": "0x10d5b5b3257"
      },
      "gasLimit": {
        "_hex": "0x55f0"
      },
      "to": "0x2910543Af39abA0Cd09dBb2D50200b3E800A63D2",
      "value": {
        "_hex": "0x470de4df820000"
      },
      "nonce": 8,
      "data": "0x454e42363131514538",
      "r": "0x8486875f5782f35430c4e390ced20321b041f3b49a113deaaaa0cda479ff9088",
      "s": "0x3c13df584d6c06dae2f98435d1901e0bed70ab61d2041907bf53018a0db9eba5",
      "v": 27,
      "creates": null,
      "raw": "0xf8750886010d5b5b32578255f0942910543af39aba0cd09dbb2d50200b3e800a63d287470de4df82000089454e423631315145381ba08486875f5782f35430c4e390ced20321b041f3b49a113deaaaa0cda479ff9088a03c13df584d6c06dae2f98435d1901e0bed70ab61d2041907bf53018a0db9eba5",
      "networkId": 0,
      "chainId": 0
    },
    {
      "hash": "0x0c4112f5a03c619e746b886fe58e8acf95479d5640f08d1852dbfa3788f54016",
      "blockHash": "0xf475026b818f2362190f403ebd1c526aa14c60914981a395db3b8926d0d2d543",
      "blockNumber": 80424,
      "transactionIndex": 1,
      "confirmations": null,
      "from": "0x671c5D0ffeB3993FD3Ce1D4a70A04eD949B3a250",
      "gasPrice": {
        "_hex": "0x10d5b5b3257"
      },
      "gasLimit": {
        "_hex": "0x55f0"
      },
      "to": "0x2910543Af39abA0Cd09dBb2D50200b3E800A63D2",
      "value": {
        "_hex": "0x470de4df820000"
      },
      "nonce": 9,
      "data": "0x454e42363131514538",
      "r": "0xfd089c2ac58f482cf9a89583676bfba28b05ab8d1556e628290b806eb72f837f",
      "s": "0x3e28ac56b21d44ee3ee4392dd6db55fbb8c32e925d05f91f7671db3c3f43c208",
      "v": 27,
      "creates": null,
      "raw": "0xf8750986010d5b5b32578255f0942910543af39aba0cd09dbb2d50200b3e800a63d287470de4df82000089454e423631315145381ba0fd089c2ac58f482cf9a89583676bfba28b05ab8d1556e628290b806eb72f837fa03e28ac56b21d44ee3ee4392dd6db55fbb8c32e925d05f91f7671db3c3f43c208",
      "networkId": 0,
      "chainId": 0
    },
    {
      "hash": "0x76bdf0ae23de0c6515923e795388b4d8ff4d8ffc4d50c37d5b8f1e3c9a3ec4ce",
      "blockHash": "0xf475026b818f2362190f403ebd1c526aa14c60914981a395db3b8926d0d2d543",
      "blockNumber": 80424,
      "transactionIndex": 2,
      "confirmations": null,
      "from": "0x87C5B5874A18B4306DF8a752a6C8cc3E82daFc19",
      "gasPrice": {
        "_hex": "0x10085f6c2e8"
      },
      "gasLimit": {
        "_hex": "0x493e0"
      },
      "to": "0xC4c51de1AbF5D60DBd329eC0F999Fd8f021ae9fC",
      "value": {
        "_hex": "0x6083fbbe4e4dcf9"
      },
      "nonce": 204,
      "data": "0x8d2161860000000000000000000000000000000000000000000000000000000000000006d3d96ceed0cfca4794c2a5a3d3aeefe69da0a2a669e66a5651f30b64831c3db0",
      "r": "0x606a049fbd70dc45527971370ca762886ce49e4a4b8d0e4e062eb7d16d867c77",
      "s": "0x7a835711a6a9ff6108c308990a79afa394f8a88e0c820af2cda88b0fdd6c057a",
      "v": 27,
      "creates": null,
      "raw": "0xf8b481cc86010085f6c2e8830493e094c4c51de1abf5d60dbd329ec0f999fd8f021ae9fc8806083fbbe4e4dcf9b8448d2161860000000000000000000000000000000000000000000000000000000000000006d3d96ceed0cfca4794c2a5a3d3aeefe69da0a2a669e66a5651f30b64831c3db01ba0606a049fbd70dc45527971370ca762886ce49e4a4b8d0e4e062eb7d16d867c77a07a835711a6a9ff6108c308990a79afa394f8a88e0c820af2cda88b0fdd6c057a",
      "networkId": 0,
      "chainId": 0
    }
  ]
}