{
  "hash": "0x8bbc1a6b1d949fe42e2aec667680b1f0626da2e2ab9703c58b149eac0c819b2e",
  "parentHash": "0x63f5fd5a89ee26ab17257a2c8ca9b6adbfae064cf52e4702121b9c4baa691b5d",
  "number": 122094,
  "timestamp": 1440188123,
  "nonce": "0x850a974a3d7c4800",
  "difficulty": 4462224536730,
  "gasLimit": {
    "_hex": "0x2fefd8"
  },
  "gasUsed": {
    "_hex": "0x5208"
  },
  "miner": "0xD0ee3F53eE0fCf3F9fbCcdd17BD1b6441DdC2074",
  "extraData": "0x",
  "transactions": [
    {
      "hash": "0x211a57e88e3c880d83b34d34f0eec291a437af776a254973e1df9175b5c3c9cd",
      "blockHash": "0x8bbc1a6b1d949fe42e2aec667680b1f0626da2e2ab9703c58b149eac0c819b2e",
      "blockNumber": 122094,
      "transactionIndex": 0,
      "confirmations": null,
      "from": "0xf89583486CA3C0c21C34400638aBE4b53F993457",
      "gasPrice": {
        "_hex": "0xba43b7400"
      },
      "gasLimit": {
        "_hex": "0x7a120"
      },
      "to": "0xBBDa93a81B882774e1c9b5e3F933Fa35DaC8bc88",
      "value": {
        "_hex": "0x295f871464a220000"
      },
      "nonce": 6,
      "data": "0x",
      "r": "0x3582ca4c9157818593191c993d2e27b433da2e289d8cdf3554af16d03a4d50b1",
      "s": "0x78581e972a135b9e38abb98a1e25799928b0f0204cbc5b832324727b112cd3ee",
      "v": 27,
      "creates": null,
      "raw": "0xf86e06850ba43b74008307a12094bbda93a81b882774e1c9b5e3f933fa35dac8bc88890295f871464a220000801ba03582ca4c9157818593191c993d2e27b433da2e289d8cdf3554af16d03a4d50b1a078581e972a135b9e38abb98a1e25799928b0f0204cbc5b832324727b112cd3ee",
      "networkId": 0,
      "chainId": 0
    }
  ]
}