{
  "hash": "0x7079b42d4b87e879858ac5896d48d5f2f1c7b3d946b2db5669fa580608df4b71",
  "parentHash": "0x84eb3ceef66c06c9cb439ea7700ebb1314931a7aa6169ba4429166de47f428fb",
  "number": 65244,
  "timestamp": 1439233720,
  "nonce": "0x74e88f52b3c48d83",
  "difficulty": 1937898399459,
  "gasLimit": {
    "_hex": "0x2fefd8"
  },
  "gasUsed": {
    "_hex": "0x1cee0"
  },
  "miner": "0x39A1BB80a741bF5EC39FB9BE59408Fa0F418fFBf",
  "extraData": "0x476574682f76312e302e312f77696e646f77732f676f312e342e32",
  "transactions": [
    {
      "hash": "0xdf00a3e4d92bf8c628e2495a93664458999c596d629b354e8363c224a205da73",
      "blockHash": "0x7079b42d4b87e879858ac5896d48d5f2f1c7b3d946b2db5669fa580608df4b71",
      "blockNumber": 65244,
      "transactionIndex": 0,
      "confirmations": null,
      "from": "0x285B048CC4cB946abCF3eF11aDe982C36946AF18",
      "gasPrice": {
        "_hex": "0xcf17224fa"
      },
      "gasLimit": {
        "_hex": "0x5208"
      },
      "to": "0x32Be343B94f860124dC4fEe278FDCBD38C102D88",
      "value": {
        "_hex": "0xddc90f529147000"
      },
      "nonce": 0,
      "data": "0x",
      "r": "0xfaaf564a28689bbff1d73fe8f52a8e56e96c5a235efc52b947c39c45a38ff9f9",
      "s": "0x2bdb28bd1d2ece36bef46c98f8b0ab7eadd4a07d9b38502ad10d46e0cbbb74cb",
      "v": 27,
      "creates": null,
      "raw": "0xf86c80850cf17224fa8252089432be343b94f860124dc4fee278fdcbd38c102d88880ddc90f529147000801ba0faaf564a28689bbff1d73fe8f52a8e56e96c5a235efc52b947c39c45a38ff9f9a02bdb28bd1d2ece36bef46c98f8b0ab7eadd4a07d9b38502ad10d46e0cbbb74cb",
      "networkId": 0,
      "chainId": 0
    },
    {
      "hash": "0x337a0865b8500f659da82d5ac6e447d11ecaed55374941ab3862fdcb26e0208a",
      "blockHash": "0x7079b42d4b87e879858ac5896d48d5f2f1c7b3d946b2db5669fa580608df4b71",
      "blockNumber": 65244,
      "transactionIndex": 1,
      "confirmations": null,
      "from": "0xbBFaA2313d733f726f45c1b23210bA36a5feB58B",
      "gasPrice": {
        "_hex": "0xba43b7400"
      },
      "gasLimit": {
        "_hex": "0x15f90"
      },
      "to": "0x793AE8C1b1a160BFc07BFB0d04F85eab1A71F4f2",
      "value": {
        "_hex": "0x0"
      },
      "nonce": 0,
      "data": "0x3ba15036",
      "r": "0xe9c03f848220cf55032d927b300287d65252a24f94be1e60b30658048061e065",
      "s": "0x28c9a8cd948297d9d90442ceb098729a01c81738c228445f9dc0c170ba06bd0e",
      "v": 27,
      "creates": null,
      "raw": "0xf86980850ba43b740083015f9094793ae8c1b1a160bfc07bfb0d04f85eab1a71f4f280843ba150361ba0e9c03f848220cf55032d927b300287d65252a24f94be1e60b30658048061e065a028c9a8cd948297d9d90442ceb098729a01c81738c228445f9dc0c170ba06bd0e",
      "networkId": 0,
      "chainId": 0
    },
    {
      "hash": "0x7308cc4f257fa322ff01e155b23fffe2c7a58daedc56429dee47c90bdc8e2452",
      "blockHash": "0x7079b42d4b87e879858ac5896d48d5f2f1c7b3d946b2db5669fa580608df4b71",
      "blockNumber": 65244,
      "transactionIndex": 2,
      "confirmations": null,
      "from": "0x698593552FE74Bab60DC875248051874dbe36221",
      "gasPrice": {
        "_hex": "0xba43b7400"
      },
      "gasLimit": {
        "_hex": "0x15f90"
      },
      "to": "0x793AE8C1b1a160BFc07BFB0d04F85eab1A71F4f2",
      "value": {
        "_hex": "0x0"
      },
      "nonce": 0,
      "data": "0x3ba15036",
      "r": "0x1973e2a63ed79ab6098cae104494f76ffc4ba311b5e1704df44d20ba6340839f",
      "s": "0x197f57e62f6fd6a73fd436a2ec91c778204ad3375450a9ef0c5f3b6daa774ee3",
      "v": 28,
      "creates": null,
      "raw": "0xf86980850ba43b740083015f9094793ae8c1b1a160bfc07bfb0d04f85eab1a71f4f280843ba150361ca01973e2a63ed79ab6098cae104494f76ffc4ba311b5e1704df44d20ba6340839fa0197f57e62f6fd6a73fd436a2ec91c778204ad3375450a9ef0c5f3b6daa774ee3",
      "networkId": 0,
      "chainId": 0
    }
  ]
}