{
  "hash": "0x2c1b2ad844207f82019a3fda6f8b95d08ceb9c60c44883a74844a00946945548",
  "parentHash": "0x336256264b32608d504cff32f81d236803493e7838524d6e0640a7af070f3b0d",
  "number": 55387,
  "timestamp": 1439069887,
  "nonce": "0xdb32d1e5ecdfd54e",
  "difficulty": 1625040965507,
  "gasLimit": {
    "_hex": "0x2fefd8"
  },
  "gasUsed": {
    "_hex": "0x5208"
  },
  "miner": "0x35e8e5dC5FBd97c5b421A80B596C030a2Be2A04D",
  "extraData": "0x476574682f76312e302e312f6c696e75782f676f312e342e32",
  "transactions": [
    {
      "hash": "0xbcb20273556ddb7fc564e4d5b43175d8000339599d3c7d7a7e07384f0525602a",
      "blockHash": "0x2c1b2ad844207f82019a3fda6f8b95d08ceb9c60c44883a74844a00946945548",
      "blockNumber": 55387,
      "transactionIndex": 0,
      "confirmations": null,
      "from": "0xe22b075c9b0b2B0C042a72DfE027aeC8AF8cBC96",
      "gasPrice": {
        "_hex": "0xdfa72cdbc"
      },
      "gasLimit": {
        "_hex": "0x5208"
      },
      "to": "0x32Be343B94f860124dC4fEe278FDCBD38C102D88",
      "value": {
        "_hex": "0xa29a6826bc2c000000"
      },
      "nonce": 1,
      "data": "0x",
      "r": "0x7d8807d38a643928fe54c44410a291400e6de752e3e3e3c735ac01b209e30a65",
      "s": "0x584e55a82c07dae51fb1dfb3cedd65e9aeec8a0a86fabf3038cc7d6d1253fd3b",
      "v": 28,
      "creates": null,
      "raw": "0xf86d01850dfa72cdbc8252089432be343b94f860124dc4fee278fdcbd38c102d8889a29a6826bc2c000000801ca07d8807d38a643928fe54c44410a291400e6de752e3e3e3c735ac01b209e30a65a0584e55a82c07dae51fb1dfb3cedd65e9aeec8a0a86fabf3038cc7d6d1253fd3b",
      "networkId": 0,
      "chainId": 0
    }
  ]
}