{
  "hash": "0x33ad9c5b5e20de7d728cda8e6d6fa1e883f7776c5d76b22a78c42cf31569f533",
  "parentHash": "0x6237540f2c42af37e1c53ab2d5d26a89d15b918903ba4ab78757e306c32aefd9",
  "number": 117579,
  "timestamp": 1440111971,
  "nonce": "0x6ea0707c58746a15",
  "difficulty": 4308290168093,
  "gasLimit": {
    "_hex": "0x2fefd8"
  },
  "gasUsed": {
    "_hex": "0x18326"
  },
  "miner": "0x790b8a3cE86E707ED0eD32bF89B3269692a23CC1",
  "extraData": "0xd783010002844765746887676f312e342e32856c696e7578",
  "transactions": [
    {
      "hash": "0x026b8ca6b4fa83eac563ba8cff6f97569d5b311dd438d2f8ab3745b20fa2c7bb",
      "blockHash": "0x33ad9c5b5e20de7d728cda8e6d6fa1e883f7776c5d76b22a78c42cf31569f533",
      "blockNumber": 117579,
      "transactionIndex": 0,
      "confirmations": null,
      "from": "0x7b43C7eea8D62355B0a8A81da081C6446B33e9e0",
      "gasPrice": {
        "_hex": "0xba43b7400"
      },
      "gasLimit": {
        "_hex": "0x249f0"
      },
      "to": "0xE28e72FCf78647ADCe1F1252F240bbfaebD63BcC",
      "value": {
        "_hex": "0xac9ae05a71ebc0000"
      },
      "nonce": 1,
      "data": "0x45466f3a",
      "r": "0x4dd3da39ba0240e1941920510418d39775e71d7b98d943deb95767ca9d989970",
      "s": "0x347224d8976b698db41b23e8f6eb312f9fce13da62884a1de6338b101b4e5750",
      "v": 27,
      "creates": null,
      "raw": "0xf87201850ba43b7400830249f094e28e72fcf78647adce1f1252f240bbfaebd63bcc890ac9ae05a71ebc00008445466f3a1ba04dd3da39ba0240e1941920510418d39775e71d7b98d943deb95767ca9d989970a0347224d8976b698db41b23e8f6eb312f9fce13da62884a1de6338b101b4e5750",
      "networkId": 0,
      "chainId": 0
    }
  ]
}