{
  "hash": "0x99662881f86016f6c58744be65be3520bbc1b5bf1e7c1bb77ec19089d17c4b22",
  "parentHash": "0xcd430bffaffecfa888851db89174973048d7508e68f420ef91c66e537c869743",
  "number": 53731,
  "timestamp": 1439042698,
  "nonce": "0xbdbb9a0beb2fa310",
  "difficulty": 1592368644903,
  "gasLimit": {
    "_hex": "0x2fefd8"
  },
  "gasUsed": {
    "_hex": "0x546c"
  },
  "miner": "0x957523c697993cB24FCf75EfBce4f228325e7383",
  "extraData": "0x476574682f76312e302e312f6c696e75782f676f312e342e32",
  "transactions": [
    {
      "hash": "0xe001f6096e0c38effa220fa3add568f782dbddaa8437805d188d7ac946b8f63b",
      "blockHash": "0x99662881f86016f6c58744be65be3520bbc1b5bf1e7c1bb77ec19089d17c4b22",
      "blockNumber": 53731,
      "transactionIndex": 0,
      "confirmations": null,
      "from": "0xCAfdE855864C2598da3cafC05Ad98dF2898E8048",
      "gasPrice": {
        "_hex": "0x110c8f7d8de"
      },
      "gasLimit": {
        "_hex": "0xc350"
      },
      "to": "0x2910543Af39abA0Cd09dBb2D50200b3E800A63D2",
      "value": {
        "_hex": "0x3635c9adc5dea00000"
      },
      "nonce": 0,
      "data": "0x454e51373339395547",
      "r": "0xfb7f0641cc99a9080a4d08b9e9c7044d0a45e0646ad45dfa7178ef51a9a0fb12",
      "s": "0xadf55e321cf5568589f7a3b6a50b4c6f97821ed5d46733bb4feab44bae2ac870",
      "v": 27,
      "creates": null,
      "raw": "0xf87780860110c8f7d8de82c350942910543af39aba0cd09dbb2d50200b3e800a63d2893635c9adc5dea0000089454e513733393955471ba0fb7f0641cc99a9080a4d08b9e9c7044d0a45e0646ad45dfa7178ef51a9a0fb12a0adf55e321cf5568589f7a3b6a50b4c6f97821ed5d46733bb4feab44bae2ac870",
      "networkId": 0,
      "chainId": 0
    }
  ]
}