{
  "hash": "0xb736629984ab8a2053dadc2389a23570bb897a6c5d373d75fbed0ee7223c2b61",
  "parentHash": "0xed7f2b08025ddae0a0f7ff2c3df127221ad6796d84af1bf259d978aefc6c6219",
  "number": 111052,
  "timestamp": 1439983913,
  "nonce": "0x44c2999e4c21a4ad",
  "difficulty": 4407430425926,
  "gasLimit": {
    "_hex": "0x2fefd8"
  },
  "gasUsed": {
    "_hex": "0x546c"
  },
  "miner": "0xC603Ab5ef41fC61AA8b76bEddb09e3Cfcbb174BD",
  "extraData": "0x476574682f76312e302e312f77696e646f77732f676f312e342e32",
  "transactions": [
    {
      "hash": "0x629b24c5487b97d669931c5545313211adc2faae7bcb0d2b6fbc83d1237a7fe4",
      "blockHash": "0xb736629984ab8a2053dadc2389a23570bb897a6c5d373d75fbed0ee7223c2b61",
      "blockNumber": 111052,
      "transactionIndex": 0,
      "confirmations": null,
      "from": "0x5160ed612E1B48e73f3FC15bC4321B8f23B8A24b",
      "gasPrice": {
        "_hex": "0x110c8f7d8de"
      },
      "gasLimit": {
        "_hex": "0xc350"
      },
      "to": "0x2910543Af39abA0Cd09dBb2D50200b3E800A63D2",
      "value": {
        "_hex": "0x1e5b8fa8fe2ac00000"
      },
      "nonce": 1,
      "data": "0x454e5259585a475738",
      "r": "0xd0c945df0785fa1067f9dec3d483d341a14e8b42f2887d9bfc7e839b52450d2e",
      "s": "0xc1cd317fdbb938d23fbdfd1f917d69f40aad1d96cf168cc48b08c1ee18669606",
      "v": 27,
      "creates": null,
      "raw": "0xf87701860110c8f7d8de82c350942910543af39aba0cd09dbb2d50200b3e800a63d2891e5b8fa8fe2ac0000089454e5259585a4757381ba0d0c945df0785fa1067f9dec3d483d341a14e8b42f2887d9bfc7e839b52450d2ea0c1cd317fdbb938d23fbdfd1f917d69f40aad1d96cf168cc48b08c1ee18669606",
      "networkId": 0,
      "chainId": 0
    }
  ]
}