{
  "hash": "0x72eb8e61b215b42ac299d579517dbd2a25471ba51e49f8aa6da5e8fbc422b7fd",
  "parentHash": "0xa937f56b1fed6248b54b84ef146d5a82e5856ab3987c2aa9c76be24188f4ab3e",
  "number": 104882,
  "timestamp": 1439877633,
  "nonce": "0xc6f44debd4f06479",
  "difficulty": 4342292219850,
  "gasLimit": {
    "_hex": "0x2fefd8"
  },
  "gasUsed": {
    "_hex": "0x5208"
  },
  "miner": "0x9746c7e1ef2bd21FF3997fa467593a89cb852BD0",
  "extraData": "0x476574682f76312e302e312f77696e646f77732f676f312e342e32",
  "transactions": [
    {
      "hash": "0x00856d9f9bc01c66a5fce0421b480047039435a1a14b8b4dac1d378ff6aa1799",
      "blockHash": "0x72eb8e61b215b42ac299d579517dbd2a25471ba51e49f8aa6da5e8fbc422b7fd",
      "blockNumber": 104882,
      "transactionIndex": 0,
      "confirmations": null,
      "from": "0x32Be343B94f860124dC4fEe278FDCBD38C102D88",
      "gasPrice": {
        "_hex": "0xce842bbee"
      },
      "gasLimit": {
        "_hex": "0x5208"
      },
      "to": "0xAaA4BEfA989B980188a418Cc5C4C02E7d9103818",
      "value": {
        "_hex": "0x2343020e49b15e0000"
      },
      "nonce": 1158,
      "data": "0x",
      "r": "0xb0ee63b35b935d8da5436f4b225b71cccfd95b0eef3c5d04281592c23c0458ee",
      "s": "0x0d08834bc0549fae550946513181737201c5e6ea6e24025f235b06a3a7e92a6d",
      "v": 28,
      "creates": null,
      "raw": "0xf86f820486850ce842bbee82520894aaa4befa989b980188a418cc5c4c02e7d9103818892343020e49b15e0000801ca0b0ee63b35b935d8da5436f4b225b71cccfd95b0eef3c5d04281592c23c0458eea00d08834bc0549fae550946513181737201c5e6ea6e24025f235b06a3a7e92a6d",
      "networkId": 0,
      "chainId": 0
    }
  ]
}