{
  "hash": "0x45dc233112d0d7a5274feab7d70058a77a5164c5a54c09c6a11f295132741ed6",
  "parentHash": "0x2be47f74d2ce442d90855597faade84f68182b575395106eb33d780ab1dddac7",
  "number": 87862,
  "timestamp": 1439598611,
  "nonce": "0x38c0f00218bc0744",
  "difficulty": 3186451292663,
  "gasLimit": {
    "_hex": "0x2fefd8"
  },
  "gasUsed": {
    "_hex": "0x5208"
  },
  "miner": "0xBD744E3F13D79B33F6c8E1d5E32F8E9BA2866c46",
  "extraData": "0x476574682f76312e302e312d39613032663533372f6c696e75782f676f312e34",
  "transactions": [
    {
      "hash": "0x506d9f279365e766ddb5f0fa3c5154ee20a7b00e6b9f16bb7843aff951a37691",
      "blockHash": "0x45dc233112d0d7a5274feab7d70058a77a5164c5a54c09c6a11f295132741ed6",
      "blockNumber": 87862,
      "transactionIndex": 0,
      "confirmations": null,
      "from": "0x2910543Af39abA0Cd09dBb2D50200b3E800A63D2",
      "gasPrice": {
        "_hex": "0xd6f78f0b5"
      },
      "gasLimit": {
        "_hex": "0x5208"
      },
      "to": "0xd8E6E362e8Ee6F52e81DC9C5Bf66B470C7686f55",
      "value": {
        "_hex": "0x2b5d1eb9d79a78000"
      },
      "nonce": 715,
      "data": "0x",
      "r": "0xa705c247ea93ca14353d93aa0b74caa72233cefb262863c8b103954429ec7470",
      "s": "0x3706cdb9cf637806a3655ad38a790f7c9415ea9c4aca78da5b1613fcd0ff82a9",
      "v": 27,
      "creates": null,
      "raw": "0xf86f8202cb850d6f78f0b582520894d8e6e362e8ee6f52e81dc9c5bf66b470c7686f558902b5d1eb9d79a78000801ba0a705c247ea93ca14353d93aa0b74caa72233cefb262863c8b103954429ec7470a03706cdb9cf637806a3655ad38a790f7c9415ea9c4aca78da5b1613fcd0ff82a9",
      "networkId": 0,
      "chainId": 0
    }
  ]
}