{
  "hash": "0x2b73a717803dcdae32d485787cacdc7f121d28775dbd919c7d473af4fe8ac114",
  "parentHash": "0xe887ed27e084b43146acfe8e7a85dc5ad3b6fcb6d7e506d7f0724c062c0f9ed5",
  "number": 112072,
  "timestamp": 1440001280,
  "nonce": "0xd333c31b22fe3a40",
  "difficulty": 4394002612667,
  "gasLimit": {
    "_hex": "0x2fefd8"
  },
  "gasUsed": {
    "_hex": "0x5208"
  },
  "miner": "0xD0ee3F53eE0fCf3F9fbCcdd17BD1b6441DdC2074",
  "extraData": "0x476574682f76312e302e312d38326566323666362f6c696e75782f676f312e34",
  "transactions": [
    {
      "hash": "0xbd42de452648fdcc7a04428e8a5847a8b6e7784e924dcf589be845170c60fca7",
      "blockHash": "0x2b73a717803dcdae32d485787cacdc7f121d28775dbd919c7d473af4fe8ac114",
      "blockNumber": 112072,
      "transactionIndex": 0,
      "confirmations": null,
      "from": "0x32Be343B94f860124dC4fEe278FDCBD38C102D88",
      "gasPrice": {
        "_hex": "0xd32d124bc"
      },
      "gasLimit": {
        "_hex": "0x5208"
      },
      "to": "0x9e8eF88C157272C8710E019DbB2Ef14610815506",
      "value": {
        "_hex": "0x3635a626d36ee00000"
      },
      "nonce": 1329,
      "data": "0x",
      "r": "0x00114d5c82ca9d23662b83aa573a0306bf7d95e511f53a2d6981a251bf21d8ce",
      "s": "0x4bdb156e375d189bbcaaf611c2a356f81253665b5e917ad4406aa0d00bb52e54",
      "v": 27,
      "creates": null,
      "raw": "0xf86e820531850d32d124bc825208949e8ef88c157272c8710e019dbb2ef14610815506893635a626d36ee00000801b9f114d5c82ca9d23662b83aa573a0306bf7d95e511f53a2d6981a251bf21d8cea04bdb156e375d189bbcaaf611c2a356f81253665b5e917ad4406aa0d00bb52e54",
      "networkId": 0,
      "chainId": 0
    }
  ]
}