{
  "hash": "0xfdd30686b6393d1df96210bd65ba386a47194d8ee488a754b69514f9260a3d85",
  "parentHash": "0x9f024ba8f4c4a15e8f202d369f3fa634731e202a1c0544f05527e2eeab8b3e3d",
  "number": 110717,
  "timestamp": 1439978272,
  "nonce": "0x2cfd309824266861",
  "difficulty": 4392567095065,
  "gasLimit": {
    "_hex": "0x2fefd8"
  },
  "gasUsed": {
    "_hex": "0x5208"
  },
  "miner": "0x007f7f58D3eb5b7510A301eCC749FC1fCDDBE14D",
  "extraData": "0x476574682f76312e302e312f77696e646f77732f676f312e342e32",
  "transactions": [
    {
      "hash": "0xf405af70c1572715a26f82914f93093fe61c4def19d436c889d3cb0dd731f536",
      "blockHash": "0xfdd30686b6393d1df96210bd65ba386a47194d8ee488a754b69514f9260a3d85",
      "blockNumber": 110717,
      "transactionIndex": 0,
      "confirmations": null,
      "from": "0x007f7f58D3eb5b7510A301eCC749FC1fCDDBE14D",
      "gasPrice": {
        "_hex": "0xd382b0b9c"
      },
      "gasLimit": {
        "_hex": "0x15f90"
      },
      "to": "0xb1abce2918E21ddb93AA452731a12672A3d9F75a",
      "value": {
        "_hex": "0x4563918244f40000"
      },
      "nonce": 291,
      "data": "0x",
      "r": "0xf45af3a4839e1b1314c9467a1b432d1251364ae2bd72127a05ebcd50123f214b",
      "s": "0x7f538b581fad62df6c9f183589daaa978ac3e2fadaf54448a1d78963d6de7d10",
      "v": 27,
      "creates": null,
      "raw": "0xf86f820123850d382b0b9c83015f9094b1abce2918e21ddb93aa452731a12672a3d9f75a884563918244f40000801ba0f45af3a4839e1b1314c9467a1b432d1251364ae2bd72127a05ebcd50123f214ba07f538b581fad62df6c9f183589daaa978ac3e2fadaf54448a1d78963d6de7d10",
      "networkId": 0,
      "chainId": 0
    }
  ]
}