{
  "hash": "0xe7af2bca2fd39734b50c2c230bb8b1df7daadf46997d3bad1e635503a985db3e",
  "parentHash": "0xdd69dbe29de027c74e972e8a9b26cc216f23c3dee031e41d79f319fd1e90739b",
  "number": 71666,
  "timestamp": 1439339838,
  "nonce": "0x2beb97e695739b61",
  "difficulty": 2179297541788,
  "gasLimit": {
    "_hex": "0x2fefd8"
  },
  "gasUsed": {
    "_hex": "0xaec1"
  },
  "miner": "0x458F183347F45a4001807728A89F31E9Da9D4A58",
  "extraData": "0x476574682f76312e302e312d38326566323666362f6c696e75782f676f312e34",
  "transactions": [
    {
      "hash": "0x0adef05e3fbb426be5781e1c38413849331ee3072ed9db7dfbf9d724080057e3",
      "blockHash": "0xe7af2bca2fd39734b50c2c230bb8b1df7daadf46997d3bad1e635503a985db3e",
      "blockNumber": 71666,
      "transactionIndex": 0,
      "confirmations": null,
      "from": "0x17580B766f7453525ca4C6A88b01b50570EA088C",
      "gasPrice": {
        "_hex": "0xe16d28308"
      },
      "gasLimit": {
        "_hex": "0x61a80"
      },
      "to": "0x5Fe5B7546D1628f7348B023A0393de1FC825A4fD",
      "value": {
        "_hex": "0x29a2241af62c0000"
      },
      "nonce": 250,
      "data": "0xb595b8b50000000000000000000000000000000000000000000000000000000000000001",
      "r": "0x33a6348d656fa56d67f723a6462957fb9d4f18d0bdcecb8f20d3e781cf1aff6e",
      "s": "0x52c2d809211796608c9c333f5b7b77c4e90200d29854d5e1f7706575a422efef",
      "v": 27,
      "creates": null,
      "raw": "0xf89281fa850e16d2830883061a80945fe5b7546d1628f7348b023a0393de1fc825a4fd8829a2241af62c0000a4b595b8b500000000000000000000000000000000000000000000000000000000000000011ba033a6348d656fa56d67f723a6462957fb9d4f18d0bdcecb8f20d3e781cf1aff6ea052c2d809211796608c9c333f5b7b77c4e90200d29854d5e1f7706575a422efef",
      "networkId": 0,
      "chainId": 0
    }
  ]
}