{
  "hash": "0x0dc3b35f033d58411da81e0dc8e038de648192b641b35d841d38b9b2e30b32f6",
  "parentHash": "0x881509a510b8eea2c18b9dae30da3fb9531d17c1402cbd7172b2d9ab0dc37be4",
  "number": 111705,
  "timestamp": 1439994534,
  "nonce": "0x4fa55fc5cd431b30",
  "difficulty": 4461214499746,
  "gasLimit": {
    "_hex": "0x2fefd8"
  },
  "gasUsed": {
    "_hex": "0x5208"
  },
  "miner": "0xeB1325C8D9d3ea8D74aC11F4B00F1B2367686319",
  "extraData": "0x",
  "transactions": [
    {
      "hash": "0x332558dcc690db05796117c7db9fe569f718f467762748a3e29e2894b1b350fe",
      "blockHash": "0x0dc3b35f033d58411da81e0dc8e038de648192b641b35d841d38b9b2e30b32f6",
      "blockNumber": 111705,
      "transactionIndex": 0,
      "confirmations": null,
      "from": "0xB1A4B41b8e75a153841c99c62d18588d45e7b406",
      "gasPrice": {
        "_hex": "0xcb9fa53d9"
      },
      "gasLimit": {
        "_hex": "0x15f90"
      },
      "to": "0x9d0D51Aa42b97151aaCa5876a743172C8c04f09E",
      "value": {
        "_hex": "0x2b5e3af16b1880000"
      },
      "nonce": 10,
      "data": "0x",
      "r": "0x10392c606d4bea0cee00821d0e4783b1a0b07c3dcd31c7ebb8c2d10627bfaf31",
      "s": "0x46ef17b1d87fa5dac82a2826d908c0fd6eecd31f2612f8632451eb56e681bb6c",
      "v": 28,
      "creates": null,
      "raw": "0xf86e0a850cb9fa53d983015f90949d0d51aa42b97151aaca5876a743172c8c04f09e8902b5e3af16b1880000801ca010392c606d4bea0cee00821d0e4783b1a0b07c3dcd31c7ebb8c2d10627bfaf31a046ef17b1d87fa5dac82a2826d908c0fd6eecd31f2612f8632451eb56e681bb6c",
      "networkId": 0,
      "chainId": 0
    }
  ]
}