{
  "hash": "0x9049126fe2ef628cf5162d703665b1ad4e0194d03fe64fc1a98ad78d229f2e12",
  "parentHash": "0x8c828c16b974d6aa366ae7ac8d1e9c06f6edbb84248817958a3198bc985ea372",
  "number": 73633,
  "timestamp": 1439372202,
  "nonce": "0x6ad625d66370bbe0",
  "difficulty": 2231544384270,
  "gasLimit": {
    "_hex": "0x2fefd8"
  },
  "gasUsed": {
    "_hex": "0x5208"
  },
  "miner": "0x52Dc504a422f0E2A9e7632A34a50f1a82F8224c7",
  "extraData": "0x476574682f76312e302e312f6c696e75782f676f312e342e32",
  "transactions": [
    {
      "hash": "0x5217f332d55f80b6838a4809beb9458540fb625b81f419c1d618957c06c849a8",
      "blockHash": "0x9049126fe2ef628cf5162d703665b1ad4e0194d03fe64fc1a98ad78d229f2e12",
      "blockNumber": 73633,
      "transactionIndex": 0,
      "confirmations": null,
      "from": "0x9746c7e1ef2bd21FF3997fa467593a89cb852BD0",
      "gasPrice": {
        "_hex": "0xcfc37d839"
      },
      "gasLimit": {
        "_hex": "0x5208"
      },
      "to": "0xB0bF4A71F730782368Ef660FE6D298F432F95450",
      "value": {
        "_hex": "0x1a901db3de65680000"
      },
      "nonce": 18,
      "data": "0x",
      "r": "0x69594c35eeb09b8f5132a40fdebdcfa8e230dda88444cb2f0731fcc657572477",
      "s": "0x43dbc17483827094191cdb3f5ad2f6543566a7fcc8549fea4342dca04494ce59",
      "v": 28,
      "creates": null,
      "raw": "0xf86d12850cfc37d83982520894b0bf4a71f730782368ef660fe6d298f432f95450891a901db3de65680000801ca069594c35eeb09b8f5132a40fdebdcfa8e230dda88444cb2f0731fcc657572477a043dbc17483827094191cdb3f5ad2f6543566a7fcc8549fea4342dca04494ce59",
      "networkId": 0,
      "chainId": 0
    }
  ]
}