{
  "hash": "0xcf661726e09d877bc9359c6a2fecd66fd0f0bb1ee51904cd248c4f844bb3ea6f",
  "parentHash": "0x1178414f708c7f6f39a8c5b5b21590bbb275eff66bad7dc4bedd5ae016432640",
  "number": 48936,
  "timestamp": 1438965337,
  "nonce": "0x073436116ff3bdbb",
  "difficulty": 1480032068614,
  "gasLimit": {
    "_hex": "0x218a2"
  },
  "gasUsed": {
    "_hex": "0x5208"
  },
  "miner": "0xf927a40C8B7F6E07c5af7FA2155B4864a4112B13",
  "extraData": "0x476574682f76312e302e312f6c696e75782f676f312e342e32",
  "transactions": [
    {
      "hash": "0x05d994888e91dd8bebca7c85b8dd3aa3ad047a28bd73f6447f15663466e1af80",
      "blockHash": "0xcf661726e09d877bc9359c6a2fecd66fd0f0bb1ee51904cd248c4f844bb3ea6f",
      "blockNumber": 48936,
      "transactionIndex": 0,
      "confirmations": null,
      "from": "0x120A270bbC009644e35F0bB6ab13f95b8199c4ad",
      "gasPrice": {
        "_hex": "0xd3310dc05"
      },
      "gasLimit": {
        "_hex": "0x15f90"
      },
      "to": "0xA07A2aE7806378684B775111ba80806479b5A334",
      "value": {
        "_hex": "0x6c6b935b8bbd400000"
      },
      "nonce": 1,
      "data": "0x",
      "r": "0x2bbf79d5762c0013068aa3fac889f2811911c419fb3f1156ac3794cc933df175",
      "s": "0x1e501b49370937e73ae4f61b1b7f9d52b532dbc76f2813dd43bfd8d9a6d0b618",
      "v": 28,
      "creates": null,
      "raw": "0xf86e01850d3310dc0583015f9094a07a2ae7806378684b775111ba80806479b5a334896c6b935b8bbd400000801ca02bbf79d5762c0013068aa3fac889f2811911c419fb3f1156ac3794cc933df175a01e501b49370937e73ae4f61b1b7f9d52b532dbc76f2813dd43bfd8d9a6d0b618",
      "networkId": 0,
      "chainId": 0
    }
  ]
}