{
  "hash": "0xc833e7adb78d3a31030c6181edc41d343dc4583a50500a5d65ffa1aebe3737b9",
  "parentHash": "0x12a0be9e72031e622ef1cf823ec060ab76d6544fc518f0d2f8f0e031e7c470ba",
  "number": 96816,
  "timestamp": 1439746280,
  "nonce": "0x0d630d4e7ecf98cc",
  "difficulty": 3750551751916,
  "gasLimit": {
    "_hex": "0x2fefd5"
  },
  "gasUsed": {
    "_hex": "0xa410"
  },
  "miner": "0xe6A7a1d47ff21B6321162AEA7C6CB457D5476Bca",
  "extraData": "0x476574682f76312e302e312d38326566323666362f6c696e75782f676f312e34",
  "transactions": [
    {
      "hash": "0x05210e3e85e92cba149878c8ff72be613ec4772f95c2a434e3900a8cf83d828c",
      "blockHash": "0xc833e7adb78d3a31030c6181edc41d343dc4583a50500a5d65ffa1aebe3737b9",
      "blockNumber": 96816,
      "transactionIndex": 0,
      "confirmations": null,
      "from": "0x2910543Af39abA0Cd09dBb2D50200b3E800A63D2",
      "gasPrice": {
        "_hex": "0xe18e9000a"
      },
      "gasLimit": {
        "_hex": "0x5208"
      },
      "to": "0x0385555bc285B26A33DA813E8612F4bDC1e619dB",
      "value": {
        "_hex": "0x11c37937e08000"
      },
      "nonce": 914,
      "data": "0x",
      "r": "0x33fcb4460ed72d4fb1a6790ed3e857ceff3f899372c10216d575814c44ae7bfa",
      "s": "0x5182cb7870618f382128d5d37ee0a2d2fb496e620d39de49d9054cb6118adf16",
      "v": 27,
      "creates": null,
      "raw": "0xf86d820392850e18e9000a825208940385555bc285b26a33da813e8612f4bdc1e619db8711c37937e08000801ba033fcb4460ed72d4fb1a6790ed3e857ceff3f899372c10216d575814c44ae7bfaa05182cb7870618f382128d5d37ee0a2d2fb496e620d39de49d9054cb6118adf16",
      "networkId": 0,
      "chainId": 0
    },
    {
      "hash": "0x54f73a25617a114d28bc1a4f7564baa728a6f5b8b51ddccc13d3f734b2e1fc8e",
      "blockHash": "0xc833e7adb78d3a31030c6181edc41d343dc4583a50500a5d65ffa1aebe3737b9",
      "blockNumber": 96816,
      "transactionIndex": 1,
      "confirmations": null,
      "from": "0x7884D470204862a0d1A21122F41ee77430396Ee5",
      "gasPrice": {
        "_hex": "0xd34cfe0ef"
      },
      "gasLimit": {
        "_hex": "0x15f90"
      },
      "to": "0xc963C32F15E59ABfcB814Dd1d96A900CF588B783",
      "value": {
        "_hex": "0xc83bfe9800"
      },
      "nonce": 24,
      "data": "0x",
      "r": "0x63a1f21e19b3ed172ce7a16f2e26af974d8d343f0631c084e5c954b7fe94f568",
      "s": "0x531331edb83f03e3d6f6a04674dcb471b7f3f34b2bce87b7e5c2b1034743d3fe",
      "v": 28,
      "creates": null,
      "raw": "0xf86a18850d34cfe0ef83015f9094c963c32f15e59abfcb814dd1d96a900cf588b78385c83bfe9800801ca063a1f21e19b3ed172ce7a16f2e26af974d8d343f0631c084e5c954b7fe94f568a0531331edb83f03e3d6f6a04674dcb471b7f3f34b2bce87b7e5c2b1034743d3fe",
      "networkId": 0,
      "chainId": 0
    }
  ]
}