{
  "hash": "0xedf62220e2f5b9a83a29dab07c9a5a7655c9bd0e7c8a7b57a7319a20055dba00",
  "parentHash": "0x4a525201f2a7f12d7f732ea32d332fd335330d0544ebbd8b1df253f4c7e7ef84",
  "number": 51232,
  "timestamp": 1439001590,
  "nonce": "0xcaa52b802b86a9a0",
  "difficulty": 1565852932673,
  "gasLimit": {
    "_hex": "0x9c185"
  },
  "gasUsed": {
    "_hex": "0x1bbfa"
  },
  "miner": "0x400fb5A6482E54E44b2250E75251707514c605C1",
  "extraData": "0x476574682f76312e302e312f77696e646f77732f676f312e342e32",
  "transactions": [
    {
      "hash": "0x963dd6caf6745f122be29be41e5aac4e1b563e43783d91af75ffad639e2a6757",
      "blockHash": "0xedf62220e2f5b9a83a29dab07c9a5a7655c9bd0e7c8a7b57a7319a20055dba00",
      "blockNumber": 51232,
      "transactionIndex": 0,
      "confirmations": null,
      "from": "0xf88a65846C19D8fc76fFf545fEAa7bbc7114F667",
      "gasPrice": {
        "_hex": "0xcfaddd5f0"
      },
      "gasLimit": {
        "_hex": "0x7a120"
      },
      "to": "0x109C4f2CCc82C4d77Bde15F306707320294Aea3F",
      "value": {
        "_hex": "0xde0b6b3a7640000"
      },
      "nonce": 6,
      "data": "0x",
      "r": "0x5707cda9bb9117c99a4e29af8339a9882e9ef5904e103042391c87deb655028d",
      "s": "0x4ef521c37cb808b8b596405aec2b78f809d57f0f788b5d0c584c156f43da8f3c",
      "v": 28,
      "creates": null,
      "raw": "0xf86d06850cfaddd5f08307a12094109c4f2ccc82c4d77bde15f306707320294aea3f880de0b6b3a7640000801ca05707cda9bb9117c99a4e29af8339a9882e9ef5904e103042391c87deb655028da04ef521c37cb808b8b596405aec2b78f809d57f0f788b5d0c584c156f43da8f3c",
      "networkId": 0,
      "chainId": 0
    },
    {
      "hash": "0x9e95b0f6d2868764fc19d196cfe47e46687b4c2e45ae7f5d97e3de4517628a41",
      "blockHash": "0xedf62220e2f5b9a83a29dab07c9a5a7655c9bd0e7c8a7b57a7319a20055dba00",
      "blockNumber": 51232,
      "transactionIndex": 1,
      "confirmations": null,
      "from": "0xf88a65846C19D8fc76fFf545fEAa7bbc7114F667",
      "gasPrice": {
        "_hex": "0xcfaddd5f0"
      },
      "gasLimit": {
        "_hex": "0x7a120"
      },
      "to": "0x109C4f2CCc82C4d77Bde15F306707320294Aea3F",
      "value": {
        "_hex": "0xde0b6b3a7640000"
      },
      "nonce": 7,
      "data": "0x",
      "r": "0x0ba24c719eb866cdff1ddf1d1f642f6623a4d07bbc3c7480141e9bd5183e7553",
      "s": "0x74f20db66ee8977ef98ada844fcf6e5bffdaa3cb69f19d53b7a4a385b5056f03",
      "v": 27,
      "creates": null,
      "raw": "0xf86d07850cfaddd5f08307a12094109c4f2ccc82c4d77bde15f306707320294aea3f880de0b6b3a7640000801ba00ba24c719eb866cdff1ddf1d1f642f6623a4d07bbc3c7480141e9bd5183e7553a074f20db66ee8977ef98ada844fcf6e5bffdaa3cb69f19d53b7a4a385b5056f03",
      "networkId": 0,
      "chainId": 0
    }
  ]
}