{
  "hash": "0x89f5c83692dc972663ac596af1363fc079d1be7276b35eaf482ed1caec7e64d1",
  "parentHash": "0x8611fa1dbb61a476eaf47fdadf2604a259b6ec4bda11894875fd22d7558be803",
  "number": 46999,
  "timestamp": 1438932918,
  "nonce": "0x43a1e1b446b8d093",
  "difficulty": 1452449866314,
  "gasLimit": {
    "_hex": "0x8dc1"
  },
  "gasUsed": {
    "_hex": "0x5208"
  },
  "miner": "0x9746c7e1ef2bd21FF3997fa467593a89cb852BD0",
  "extraData": "0x476574682f76312e302e312f77696e646f77732f676f312e342e32",
  "transactions": [
    {
      "hash": "0x094cc36111084f94fd4fe5728d90fe4d904cc02e55f81a293ac690962fd7fc4b",
      "blockHash": "0x89f5c83692dc972663ac596af1363fc079d1be7276b35eaf482ed1caec7e64d1",
      "blockNumber": 46999,
      "transactionIndex": 0,
      "confirmations": null,
      "from": "0xD79aFf13Ba2Da75d46240cAC0a2467C656949823",
      "gasPrice": {
        "_hex": "0x10dc90d85e7"
      },
      "gasLimit": {
        "_hex": "0x5208"
      },
      "to": "0x217CC0cD81DADa7C89Ad3EFdADf04e399A3167E2",
      "value": {
        "_hex": "0x1b1ae4d6e2ef500000"
      },
      "nonce": 0,
      "data": "0x",
      "r": "0x24eafbe9bcee8e5d2f028b9e96aaeb4287180c6d61b6f4ce96313222e27ee398",
      "s": "0x0d7f942a7ed2a94764373f0017e6f5659cc0263208986184ac00ae2b62ba26f2",
      "v": 27,
      "creates": null,
      "raw": "0xf86e8086010dc90d85e782520894217cc0cd81dada7c89ad3efdadf04e399a3167e2891b1ae4d6e2ef500000801ba024eafbe9bcee8e5d2f028b9e96aaeb4287180c6d61b6f4ce96313222e27ee398a00d7f942a7ed2a94764373f0017e6f5659cc0263208986184ac00ae2b62ba26f2",
      "networkId": 0,
      "chainId": 0
    }
  ]
}