{
  "hash": "0x6e6ec30ba20b263d1bdf6d87a0b1b037ea595929ac10ad74f6b7e1890fdad744",
  "parentHash": "0x9efd5f5fc23348561555b1db03bb3a6271239f93b7fb3db08e9fde5f23f67c8f",
  "number": 68923,
  "timestamp": 1439295743,
  "nonce": "0xf3c8ca49c83c23c2",
  "difficulty": 2025059560819,
  "gasLimit": {
    "_hex": "0x2fefd8"
  },
  "gasUsed": {
    "_hex": "0x12ea94"
  },
  "miner": "0xEF247E639d49461D25F57e9362CadE3120910Ce0",
  "extraData": "0x476574682f76312e302e312f6c696e75782f676f312e342e32",
  "transactions": [
    {
      "hash": "0xcf75c81f6d85612be00ccd91821de2517e5400de5d491dd21e899b2277e4b17b",
      "blockHash": "0x6e6ec30ba20b263d1bdf6d87a0b1b037ea595929ac10ad74f6b7e1890fdad744",
      "blockNumber": 68923,
      "transactionIndex": 0,
      "confirmations": null,
      "from": "0x120A270bbC009644e35F0bB6ab13f95b8199c4ad",
      "gasPrice": {
        "_hex": "0xde435ee1d"
      },
      "gasLimit": {
        "_hex": "0x15f90"
      },
      "to": "0x63116ca569ba01384f4B68C196f4745cf45C7d11",
      "value": {
        "_hex": "0x1078ab5c12a0e1800"
      },
      "nonce": 172,
      "data": "0x",
      "r": "0xeb5193a84fc58756e43e4052a9036a933ac7af8ce6a7bb30262ab08cdbe9cd18",
      "s": "0x08c00504bcf2f597a5298708a1bc9da0877422004d01f171228d324c7e2c79a4",
      "v": 27,
      "creates": null,
      "raw": "0xf86f81ac850de435ee1d83015f909463116ca569ba01384f4b68c196f4745cf45c7d118901078ab5c12a0e1800801ba0eb5193a84fc58756e43e4052a9036a933ac7af8ce6a7bb30262ab08cdbe9cd18a008c00504bcf2f597a5298708a1bc9da0877422004d01f171228d324c7e2c79a4",
      "networkId": 0,
      "chainId": 0
    },
    {
      "hash": "0x77fc96dfc4c40e29aa69c7c9efd72f5c0377aedda503e7d7da2fccd29466e287",
      "blockHash": "0x6e6ec30ba20b263d1bdf6d87a0b1b037ea595929ac10ad74f6b7e1890fdad744",
      "blockNumber": 68923,
      "transactionIndex": 1,
      "confirmations": null,
      "from": "0x8E9de6697Ed209a67491fEEb82C2C79B20E9Ef99",
      "gasPrice": {
        "_hex": "0xba43b7400"
      },
      "gasLimit": {
        "_hex": "0x15f90"
      },
      "to": "0x793AE8C1b1a160BFc07BFB0d04F85eab1A71F4f2",
      "value": {
        "_hex": "0x0"
      },
      "nonce": 0,
      "data": "0x3ba15036",
      "r": "0x23447e550bd3fc8f955ef627f6717f273aef96b85eea11adad95001797e56ad1",
      "s": "0x374ba8c57a8c6a4f33d9fe77dc29e02d096c9a9266d9c8d93305df4d52878b41",
      "v": 28,
      "creates": null,
      "raw": "0xf86980850ba43b740083015f9094793ae8c1b1a160bfc07bfb0d04f85eab1a71f4f280843ba150361ca023447e550bd3fc8f955ef627f6717f273aef96b85eea11adad95001797e56ad1a0374ba8c57a8c6a4f33d9fe77dc29e02d096c9a9266d9c8d93305df4d52878b41",
      "networkId": 0,
      "chainId": 0
    },
    {
      "hash": "0x7121406a8da39942bbf4efe608f7b247db60e5df0cebdb0c8a80c5c408a5fdfb",
      "blockHash": "0x6e6ec30ba20b263d1bdf6d87a0b1b037ea595929ac10ad74f6b7e1890fdad744",
      "blockNumber": 68923,
      "transactionIndex": 2,
      "confirmations": null,
      "from": "0xce0705860127E73fb642F1Bd4115f96346752D7c",
      "gasPrice": {
        "_hex": "0xba43b7400"
      },
      "gasLimit": {
        "_hex": "0x15f90"
      },
      "to": "0x793AE8C1b1a160BFc07BFB0d04F85eab1A71F4f2",
      "value": {
        "_hex": "0x0"
      },
      "nonce": 0,
      "data": "0x3ba15036",
      "r": "0x6a499eeffb793696549b7a92be8826662e5fb13003df054a9a9e4bf42aad1ac3",
      "s": "0x24941398905bd036d2e6279c3039c2c4b06254448c5a728557e89d95d48fcc39",
      "v": 27,
      "creates": null,
      "raw": "0xf86980850ba43b740083015f9094793ae8c1b1a160bfc07bfb0d04f85eab1a71f4f280843ba150361ba06a499eeffb793696549b7a92be8826662e5fb13003df054a9a9e4bf42aad1ac3a024941398905bd036d2e6279c3039c2c4b06254448c5a728557e89d95d48fcc39",
      "networkId": 0,
      "chainId": 0
    },
    {
      "hash": "0xc0f338fff42ef147918c99639a332c560b41321b9260303c994d6d886f6d1580",
      "blockHash": "0x6e6ec30ba20b263d1bdf6d87a0b1b037ea595929ac10ad74f6b7e1890fdad744",
      "blockNumber": 68923,
      "transactionIndex": 3,
      "confirmations": null,
      "from": "0xdDe5944572E8ff84dD2E448b114Eb9055796cB45",
      "gasPrice": {
        "_hex": "0xba43b7400"
      },
      "gasLimit": {
        "_hex": "0x15f90"
      },
      "to": "0x793AE8C1b1a160BFc07BFB0d04F85eab1A71F4f2",
      "value": {
        "_hex": "0x0"
      },
      "nonce": 0,
      "data": "0x3ba15036",
      "r": "0x34064ecf325c0c4c381cad93e3c3cd2c1fc6a8ea4e08d1e4a27af62689426258",
      "s": "0x0a6ba8058f7d76831055e8bddb07ed8a58df34fc9c63f874a461b4c447743d5c",
      "v": 27,
      "creates": null,
      "raw": "0xf86980850ba43b740083015f9094793ae8c1b1a160bfc07bfb0d04f85eab1a71f4f280843ba150361ba034064ecf325c0c4c381cad93e3c3cd2c1fc6a8ea4e08d1e4a27af62689426258a00a6ba8058f7d76831055e8bddb07ed8a58df34fc9c63f874a461b4c447743d5c",
      "networkId": 0,
      "chainId": 0
    },
    {
      "hash": "0xca923cb1a596db4cc5bfe435d573ff301821aa2df930eca0fd12e73f675008b5",
      "blockHash": "0x6e6ec30ba20b263d1bdf6d87a0b1b037ea595929ac10ad74f6b7e1890fdad744",
      "blockNumber": 68923,
      "transactionIndex": 4,
      "confirmations": null,
      "from": "0x126D4cE48Ca26452a713A383bBbD5B53dE1e8308",
      "gasPrice": {
        "_hex": "0xba43b7400"
      },
      "gasLimit": {
        "_hex": "0x15f90"
      },
      "to": "0x793AE8C1b1a160BFc07BFB0d04F85eab1A71F4f2",
      "value": {
        "_hex": "0x0"
      },
      "nonce": 0,
      "data": "0x3ba15036",
      "r": "0xd3f401ca548fea3eeff259ccc7ac5089ef1898015bc7abe87b89f5d74f797948",
      "s": "0x13119322a0c475e48132f2aceb59e3fc1501ec883459fa049d5249bbd0858d99",
      "v": 27,
      "creates": null,
      "raw": "0xf86980850ba43b740083015f9094793ae8c1b1a160bfc07bfb0d04f85eab1a71f4f280843ba150361ba0d3f401ca548fea3eeff259ccc7ac5089ef1898015bc7abe87b89f5d74f797948a013119322a0c475e48132f2aceb59e3fc1501ec883459fa049d5249bbd0858d99",
      "networkId": 0,
      "chainId": 0
    },
    {
      "hash": "0x4753466fa5baa41a5a95ffd7de52a3e17e4b607c3121f7c44fad41d4db3ea655",
      "blockHash": "0x6e6ec30ba20b263d1bdf6d87a0b1b037ea595929ac10ad74f6b7e1890fdad744",
      "blockNumber": 68923,
      "transactionIndex": 5,
      "confirmations": null,
      "from": "0x348961B4206A8aaE63a94139f570917A1aE65968",
      "gasPrice": {
        "_hex": "0xba43b7400"
      },
      "gasLimit": {
        "_hex": "0x15f90"
      },
      "to": "0x793AE8C1b1a160BFc07BFB0d04F85eab1A71F4f2",
      "value": {
        "_hex": "0x0"
      },
      "nonce": 0,
      "data": "0x3ba15036",
      "r": "0x377f234988077045a0464867f96fff407b6b8dede79881ddc47b599768f64758",
      "s": "0x0c6fad24774083c6b98ad6752137c234a02a1f12deb439cb7d168f5dacb74ac5",
      "v": 27,
      "creates": null,
      "raw": "0xf86980850ba43b740083015f9094793ae8c1b1a160bfc07bfb0d04f85eab1a71f4f280843ba150361ba0377f234988077045a0464867f96fff407b6b8dede79881ddc47b599768f64758a00c6fad24774083c6b98ad6752137c234a02a1f12deb439cb7d168f5dacb74ac5",
      "networkId": 0,
      "chainId": 0
    },
    {
      "hash": "0x9d11187ffe29472a0ad33e6a828539c95f29db55cce456fdbe3b3a9b174b4761",
      "blockHash": "0x6e6ec30ba20b263d1bdf6d87a0b1b037ea595929ac10ad74f6b7e1890fdad744",
      "blockNumber": 68923,
      "transactionIndex": 6,
      "confirmations": null,
      "from": "0x7ccc540A0BeE62CDc3F7e2287d9abBa25Fe91384",
      "gasPrice": {
        "_hex": "0xba43b7400"
      },
      "gasLimit": {
        "_hex": "0x15f90"
      },
      "to": "0x793AE8C1b1a160BFc07BFB0d04F85eab1A71F4f2",
      "value": {
        "_hex": "0x0"
      },
      "nonce": 0,
      "data": "0x3ba15036",
      "r": "0x9c751f666ab906293f72d26df0fddcf969e3e4bb8c0d819f514f6126ec05ff84",
      "s": "0x0fd185bd22ea6a5c16283034547765defd9a49a8a729be48c25249d3eee5482b",
      "v": 28,
      "creates": null,
      "raw": "0xf86980850ba43b740083015f9094793ae8c1b1a160bfc07bfb0d04f85eab1a71f4f280843ba150361ca09c751f666ab906293f72d26df0fddcf969e3e4bb8c0d819f514f6126ec05ff84a00fd185bd22ea6a5c16283034547765defd9a49a8a729be48c25249d3eee5482b",
      "networkId": 0,
      "chainId": 0
    },
    {
      "hash": "0x7c5eefdb49bb6f1eb113cc12072b380496f8240569a063d49c7c0200f6b0a398",
      "blockHash": "0x6e6ec30ba20b263d1bdf6d87a0b1b037ea595929ac10ad74f6b7e1890fdad744",
      "blockNumber": 68923,
      "transactionIndex": 7,
      "confirmations": null,
      "from": "0xad8fDC9eaC427163B759239428B98b964A57b493",
      "gasPrice": {
        "_hex": "0xba43b7400"
      },
      "gasLimit": {
        "_hex": "0x15f90"
      },
      "to": "0x793AE8C1b1a160BFc07BFB0d04F85eab1A71F4f2",
      "value": {
        "_hex": "0x0"
      },
      "nonce": 0,
      "data": "0x3ba15036",
      "r": "0x078278a6aaa1c398c8917363dbdbaf116e039494cd7b49dcc55632cc912cd4ea",
      "s": "0x535167cf75d358d9d34dc4e80c73d6c11264bc027917bd962c03624d36659b46",
      "v": 28,
      "creates": null,
      "raw": "0xf86980850ba43b740083015f9094793ae8c1b1a160bfc07bfb0d04f85eab1a71f4f280843ba150361ca0078278a6aaa1c398c8917363dbdbaf116e039494cd7b49dcc55632cc912cd4eaa0535167cf75d358d9d34dc4e80c73d6c11264bc027917bd962c03624d36659b46",
      "networkId": 0,
      "chainId": 0
    },
    {
      "hash": "0xdf19ad0e83eea14d9179b8f937943ba5853994c5c4b081790e439b7cedaa72b4",
      "blockHash": "0x6e6ec30ba20b263d1bdf6d87a0b1b037ea595929ac10ad74f6b7e1890fdad744",
      "blockNumber": 68923,
      "transactionIndex": 8,
      "confirmations": null,
      "from": "0xf4bECE5B8D18E276DFF7BfE32E9AE42761ea6ce3",
      "gasPrice": {
        "_hex": "0xba43b7400"
      },
      "gasLimit": {
        "_hex": "0x15f90"
      },
      "to": "0x793AE8C1b1a160BFc07BFB0d04F85eab1A71F4f2",
      "value": {
        "_hex": "0x0"
      },
      "nonce": 0,
      "data": "0x3ba15036",
      "r": "0xc4c28de260bc2cff8a5f2952e1d362b6a5d2aeff033f1e0f1f2f6c8f0cfb3eb6",
      "s": "0x4ac04d57882ac109f31768bcac1aed8bd5cdac9c574c56b0cf83b475427a887d",
      "v": 28,
      "creates": null,
      "raw": "0xf86980850ba43b740083015f9094793ae8c1b1a160bfc07bfb0d04f85eab1a71f4f280843ba150361ca0c4c28de260bc2cff8a5f2952e1d362b6a5d2aeff033f1e0f1f2f6c8f0cfb3eb6a04ac04d57882ac109f31768bcac1aed8bd5cdac9c574c56b0cf83b475427a887d",
      "networkId": 0,
      "chainId": 0
    },
    {
      "hash": "0x18f0bf85d4c1b921b4c77706e8df7a74e965cafbc7b0cf9bac126f1c13ecad4b",
      "blockHash": "0x6e6ec30ba20b263d1bdf6d87a0b1b037ea595929ac10ad74f6b7e1890fdad744",
      "blockNumber": 68923,
      "transactionIndex": 9,
      "confirmations": null,
      "from": "0x82068120e889b9fEF3C88E2eCb0A65e231E4dFb7",
      "gasPrice": {
        "_hex": "0xba43b7400"
      },
      "gasLimit": {
        "_hex": "0x15f90"
      },
      "to": "0x793AE8C1b1a160BFc07BFB0d04F85eab1A71F4f2",
      "value": {
        "_hex": "0x0"
      },
      "nonce": 0,
      "data": "0x3ba15036",
      "r": "0x1b9050220d694d23749ae027b47290afd74b935bd6bfe307f2c8b7f8257ded82",
      "s": "0x0f056168b7faa8775324b31863a3dc879b5afe7bd779785ec4cf000e29375510",
      "v": 28,
      "creates": null,
      "raw": "0xf86980850ba43b740083015f9094793ae8c1b1a160bfc07bfb0d04f85eab1a71f4f280843ba150361ca01b9050220d694d23749ae027b47290afd74b935bd6bfe307f2c8b7f8257ded82a00f056168b7faa8775324b31863a3dc879b5afe7bd779785ec4cf000e29375510",
      "networkId": 0,
      "chainId": 0
    },
    {
      "hash": "0x7f009f14ad1a30ca5b57e5632060433fd28a25a145b556f1e81d305833620a7a",
      "blockHash": "0x6e6ec30ba20b263d1bdf6d87a0b1b037ea595929ac10ad74f6b7e1890fdad744",
      "blockNumber": 68923,
      "transactionIndex": 10,
      "confirmations": null,
      "from": "0x4059abb767EfDbd4dF7B483a64FDB9a8d5199a7C",
      "gasPrice": {
        "_hex": "0xba43b7400"
      },
      "gasLimit": {
        "_hex": "0x15f90"
      },
      "to": "0x793AE8C1b1a160BFc07BFB0d04F85eab1A71F4f2",
      "value": {
        "_hex": "0x0"
      },
      "nonce": 0,
      "data": "0x3ba15036",
      "r": "0x978cb9fb78a8f9c8d58e8ec30bae3b95b0dddfe67bb6c7781701935a68283c33",
      "s": "0x2853fc01731185516c7afd28a6c752088226d2c822a1e61f153b361faea53e19",
      "v": 28,
      "creates": null,
      "raw": "0xf86980850ba43b740083015f9094793ae8c1b1a160bfc07bfb0d04f85eab1a71f4f280843ba150361ca0978cb9fb78a8f9c8d58e8ec30bae3b95b0dddfe67bb6c7781701935a68283c33a02853fc01731185516c7afd28a6c752088226d2c822a1e61f153b361faea53e19",
      "networkId": 0,
      "chainId": 0
    },
    {
      "hash": "0xe6549e2ddaef3b0eae9cd7caae9f591bb8b5b32bf63aea65518ebd875c5eaf0a",
      "blockHash": "0x6e6ec30ba20b263d1bdf6d87a0b1b037ea595929ac10ad74f6b7e1890fdad744",
      "blockNumber": 68923,
      "transactionIndex": 11,
      "confirmations": null,
      "from": "0xE332A72669B6997EAFe1a07378492d31E20Ef304",
      "gasPrice": {
        "_hex": "0xba43b7400"
      },
      "gasLimit": {
        "_hex": "0x15f90"
      },
      "to": "0x793AE8C1b1a160BFc07BFB0d04F85eab1A71F4f2",
      "value": {
        "_hex": "0x0"
      },
      "nonce": 0,
      "data": "0x3ba15036",
      "r": "0x41d6672019aeb2c6a665fda53dafb5e307602e00bca1dcfcb0bb27459528903d",
      "s": "0x2f131f0ee47fb03a75132ee9dbf0c68bf528f421585e0c1269a7933abb2bfa5d",
      "v": 27,
      "creates": null,
      "raw": "0xf86980850ba43b740083015f9094793ae8c1b1a160bfc07bfb0d04f85eab1a71f4f280843ba150361ba041d6672019aeb2c6a665fda53dafb5e307602e00bca1dcfcb0bb27459528903da02f131f0ee47fb03a75132ee9dbf0c68bf528f421585e0c1269a7933abb2bfa5d",
      "networkId": 0,
      "chainId": 0
    },
    {
      "hash": "0x1ba217dad445fc4445cd05033dc0a7afd664882562e3c5692588a18c3ff71d64",
      "blockHash": "0x6e6ec30ba20b263d1bdf6d87a0b1b037ea595929ac10ad74f6b7e1890fdad744",
      "blockNumber": 68923,
      "transactionIndex": 12,
      "confirmations": null,
      "from": "0x93202ba568504ec7363D17958cB914b129b9bC89",
      "gasPrice": {
        "_hex": "0xba43b7400"
      },
      "gasLimit": {
        "_hex": "0x15f90"
      },
      "to": "0x793AE8C1b1a160BFc07BFB0d04F85eab1A71F4f2",
      "value": {
        "_hex": "0x0"
      },
      "nonce": 0,
      "data": "0x3ba15036",
      "r": "0x55f6828d47539ceaca714940418048d8d838ff0813a981471227e75d0185a7c3",
      "s": "0x6133e332519719a59b2936905acbb4a0948d284f3fb3a1d0875ad3bb15f0c808",
      "v": 28,
      "creates": null,
      "raw": "0xf86980850ba43b740083015f9094793ae8c1b1a160bfc07bfb0d04f85eab1a71f4f280843ba150361ca055f6828d47539ceaca714940418048d8d838ff0813a981471227e75d0185a7c3a06133e332519719a59b2936905acbb4a0948d284f3fb3a1d0875ad3bb15f0c808",
      "networkId": 0,
      "chainId": 0
    },
    {
      "hash": "0xcff1bedfdc5ca905e17674862e1add94b61990636cf7cf48856093554a9f09a6",
      "blockHash": "0x6e6ec30ba20b263d1bdf6d87a0b1b037ea595929ac10ad74f6b7e1890fdad744",
      "blockNumber": 68923,
      "transactionIndex": 13,
      "confirmations": null,
      "from": "0x0bFDa887DB1494237eB819085C0f8eF22eA9e29a",
      "gasPrice": {
        "_hex": "0xba43b7400"
      },
      "gasLimit": {
        "_hex": "0x15f90"
      },
      "to": "0x793AE8C1b1a160BFc07BFB0d04F85eab1A71F4f2",
      "value": {
        "_hex": "0x0"
      },
      "nonce": 0,
      "data": "0x3ba15036",
      "r": "0x874133ed6660da8ff6b8b23b7b1e2f8f18850a2b3998c5fcd75d5ec4f232e77a",
      "s": "0x37d2861d7891cba958bb276062bdff9f905e9f94e2e6d757b3fb71b263b5bf32",
      "v": 28,
      "creates": null,
      "raw": "0xf86980850ba43b740083015f9094793ae8c1b1a160bfc07bfb0d04f85eab1a71f4f280843ba150361ca0874133ed6660da8ff6b8b23b7b1e2f8f18850a2b3998c5fcd75d5ec4f232e77aa037d2861d7891cba958bb276062bdff9f905e9f94e2e6d757b3fb71b263b5bf32",
      "networkId": 0,
      "chainId": 0
    },
    {
      "hash": "0x5f47cb2e25af994bab0eb8b97bf3c9b580ee2de9b0f2ffdabe9f199116474a66",
      "blockHash": "0x6e6ec30ba20b263d1bdf6d87a0b1b037ea595929ac10ad74f6b7e1890fdad744",
      "blockNumber": 68923,
      "transactionIndex": 14,
      "confirmations": null,
      "from": "0x54D075d10A62ADFaF2Cff56bF9832eF210a4c439",
      "gasPrice": {
        "_hex": "0xba43b7400"
      },
      "gasLimit": {
        "_hex": "0x15f90"
      },
      "to": "0x793AE8C1b1a160BFc07BFB0d04F85eab1A71F4f2",
      "value": {
        "_hex": "0x0"
      },
      "nonce": 0,
      "data": "0x3ba15036",
      "r": "0x4eb717d9998b66af395fbb3acbdbab75e02b510ae2eb8e69cd46fa0bfe3778d0",
      "s": "0x1b6da9b52a25c94fb09c8fe0ce65788b2fae1737be334fb39b457b8fb94e2feb",
      "v": 27,
      "creates": null,
      "raw": "0xf86980850ba43b740083015f9094793ae8c1b1a160bfc07bfb0d04f85eab1a71f4f280843ba150361ba04eb717d9998b66af395fbb3acbdbab75e02b510ae2eb8e69cd46fa0bfe3778d0a01b6da9b52a25c94fb09c8fe0ce65788b2fae1737be334fb39b457b8fb94e2feb",
      "networkId": 0,
      "chainId": 0
    },
    {
      "hash": "0x05a447959bcec3313c84f58b5ef643c6133ff6dadb74af6daa2abab827e067ff",
      "blockHash": "0x6e6ec30ba20b263d1bdf6d87a0b1b037ea595929ac10ad74f6b7e1890fdad744",
      "blockNumber": 68923,
      "transactionIndex": 15,
      "confirmations": null,
      "from": "0x28F490700E8854F2c500A556Db788517E0741Ac2",
      "gasPrice": {
        "_hex": "0xba43b7400"
      },
      "gasLimit": {
        "_hex": "0x15f90"
      },
      "to": "0x793AE8C1b1a160BFc07BFB0d04F85eab1A71F4f2",
      "value": {
        "_hex": "0x0"
      },
      "nonce": 0,
      "data": "0x3ba15036",
      "r": "0x3cbce18dde3c74157baa61e6df63205a1126c7d8b111523d1fbf9d1c8786edaf",
      "s": "0x615f558bbcd79ae5695b2d10bba35833f1c5efc51c671eed00a4abb1bcb4b7e4",
      "v": 28,
      "creates": null,
      "raw": "0xf86980850ba43b740083015f9094793ae8c1b1a160bfc07bfb0d04f85eab1a71f4f280843ba150361ca03cbce18dde3c74157baa61e6df63205a1126c7d8b111523d1fbf9d1c8786edafa0615f558bbcd79ae5695b2d10bba35833f1c5efc51c671eed00a4abb1bcb4b7e4",
      "networkId": 0,
      "chainId": 0
    },
    {
      "hash": "0x76fc10f8c930a409853b4b95feba4718a8f4df7775b4367e94cc52ad1dff1169",
      "blockHash": "0x6e6ec30ba20b263d1bdf6d87a0b1b037ea595929ac10ad74f6b7e1890fdad744",
      "blockNumber": 68923,
      "transactionIndex": 16,
      "confirmations": null,
      "from": "0x2659A3BAc0b38D8cb700F8b01414EE14842791B4",
      "gasPrice": {
        "_hex": "0xba43b7400"
      },
      "gasLimit": {
        "_hex": "0x15f90"
      },
      "to": "0x793AE8C1b1a160BFc07BFB0d04F85eab1A71F4f2",
      "value": {
        "_hex": "0x0"
      },
      "nonce": 0,
      "data": "0x3ba15036",
      "r": "0x93e17a5d427731dc5232d4cbf1e5e9b3a50e5b539a7053c39941d84fa6d050d7",
      "s": "0x735122d35e34015317d6c36c9825918644d30cd9ee6491651276a58e986c2bd5",
      "v": 28,
      "creates": null,
      "raw": "0xf86980850ba43b740083015f9094793ae8c1b1a160bfc07bfb0d04f85eab1a71f4f280843ba150361ca093e17a5d427731dc5232d4cbf1e5e9b3a50e5b539a7053c39941d84fa6d050d7a0735122d35e34015317d6c36c9825918644d30cd9ee6491651276a58e986c2bd5",
      "networkId": 0,
      "chainId": 0
    },
    {
      "hash": "0xc9f421e74a409877384b552896415bb8f4cf93fe6bffa9f1bd05c2a3f55c096f",
      "blockHash": "0x6e6ec30ba20b263d1bdf6d87a0b1b037ea595929ac10ad74f6b7e1890fdad744",
      "blockNumber": 68923,
      "transactionIndex": 17,
      "confirmations": null,
      "from": "0x3a20475110dFB82fa5b765d151Bbe7712D9cA3D8",
      "gasPrice": {
        "_hex": "0xba43b7400"
      },
      "gasLimit": {
        "_hex": "0x15f90"
      },
      "to": "0x793AE8C1b1a160BFc07BFB0d04F85eab1A71F4f2",
      "value": {
        "_hex": "0x0"
      },
      "nonce": 0,
      "data": "0x3ba15036",
      "r": "0xc605a6a66d0d31dfccd10e8a5692d2a44989a6fc61acac388343cd3e3287a56f",
      "s": "0x39df5a333be49b49e3f0ea2b515f1b1a09417345fa97ec32b537db259e7c2f51",
      "v": 27,
      "creates": null,
      "raw": "0xf86980850ba43b740083015f9094793ae8c1b1a160bfc07bfb0d04f85eab1a71f4f280843ba150361ba0c605a6a66d0d31dfccd10e8a5692d2a44989a6fc61acac388343cd3e3287a56fa039df5a333be49b49e3f0ea2b515f1b1a09417345fa97ec32b537db259e7c2f51",
      "networkId": 0,
      "chainId": 0
    },
    {
      "hash": "0x82a6a14ed3ec902c0a384aaae8db40ae3dd4531eda7d9ddb3081b90099614bbe",
      "blockHash": "0x6e6ec30ba20b263d1bdf6d87a0b1b037ea595929ac10ad74f6b7e1890fdad744",
      "blockNumber": 68923,
      "transactionIndex": 18,
      "confirmations": null,
      "from": "0xa2070f1ab9470445cfB47955FfA2149D6783a4FE",
      "gasPrice": {
        "_hex": "0xba43b7400"
      },
      "gasLimit": {
        "_hex": "0x15f90"
      },
      "to": "0x793AE8C1b1a160BFc07BFB0d04F85eab1A71F4f2",
      "value": {
        "_hex": "0x0"
      },
      "nonce": 0,
      "data": "0x3ba15036",
      "r": "0xe767404617cf45ca0ba337b1fbbcdda21893aa04f0900e9a696233013f8ed886",
      "s": "0x21c33534c0b8a6527e7b4b22b61dbe68b3fda80076de6b0b5f2fbff774146fd5",
      "v": 27,
      "creates": null,
      "raw": "0xf86980850ba43b740083015f9094793ae8c1b1a160bfc07bfb0d04f85eab1a71f4f280843ba150361ba0e767404617cf45ca0ba337b1fbbcdda21893aa04f0900e9a696233013f8ed886a021c33534c0b8a6527e7b4b22b61dbe68b3fda80076de6b0b5f2fbff774146fd5",
      "networkId": 0,
      "chainId": 0
    },
    {
      "hash": "0x46d7599c996bac00a8be0d2bd7c802eeac8a4501a9e61bead27410a4044bdc34",
      "blockHash": "0x6e6ec30ba20b263d1bdf6d87a0b1b037ea595929ac10ad74f6b7e1890fdad744",
      "blockNumber": 68923,
      "transactionIndex": 19,
      "confirmations": null,
      "from": "0xA9e8DD73638147f786008C382a8b9367289f0FBC",
      "gasPrice": {
        "_hex": "0xba43b7400"
      },
      "gasLimit": {
        "_hex": "0x15f90"
      },
      "to": "0x793AE8C1b1a160BFc07BFB0d04F85eab1A71F4f2",
      "value": {
        "_hex": "0x0"
      },
      "nonce": 0,
      "data": "0x3ba15036",
      "r": "0x81f1a538be239b4034a389d61ee2e207b1f995193469573b72224bbd93ac5c3f",
      "s": "0x12474671bed0df914da00ac2a026267e325ed4f88ba64b7a66858fa687a2f4b9",
      "v": 28,
      "creates": null,
      "raw": "0xf86980850ba43b740083015f9094793ae8c1b1a160bfc07bfb0d04f85eab1a71f4f280843ba150361ca081f1a538be239b4034a389d61ee2e207b1f995193469573b72224bbd93ac5c3fa012474671bed0df914da00ac2a026267e325ed4f88ba64b7a66858fa687a2f4b9",
      "networkId": 0,
      "chainId": 0
    },
    {
      "hash": "0xdfea7cf41ed7934372d704a9983f46376d933f17aab8aa7c3e2a99b0bfa0b3dd",
      "blockHash": "0x6e6ec30ba20b263d1bdf6d87a0b1b037ea595929ac10ad74f6b7e1890fdad744",
      "blockNumber": 68923,
      "transactionIndex": 20,
      "confirmations": null,
      "from": "0xed5fD31F0a37eb87110653485e9a083968a1d440",
      "gasPrice": {
        "_hex": "0xba43b7400"
      },
      "gasLimit": {
        "_hex": "0x15f90"
      },
      "to": "0x793AE8C1b1a160BFc07BFB0d04F85eab1A71F4f2",
      "value": {
        "_hex": "0x0"
      },
      "nonce": 0,
      "data": "0x3ba15036",
      "r": "0x2e4c7005da1088416681f92a5f09cfd46ed854f235ba3d3194332f06aa3f164d",
      "s": "0x7842a0c0d9ee1a50ea9c181d7a96628e9df73cbb1aa0c45e347a4391b03de1a3",
      "v": 27,
      "creates": null,
      "raw": "0xf86980850ba43b740083015f9094793ae8c1b1a160bfc07bfb0d04f85eab1a71f4f280843ba150361ba02e4c7005da1088416681f92a5f09cfd46ed854f235ba3d3194332f06aa3f164da07842a0c0d9ee1a50ea9c181d7a96628e9df73cbb1aa0c45e347a4391b03de1a3",
      "networkId": 0,
      "chainId": 0
    },
    {
      "hash": "0xfe7781b32807098f8b4cbf43e1b6abda27e6cd2c893805b84b9df9c6604490d8",
      "blockHash": "0x6e6ec30ba20b263d1bdf6d87a0b1b037ea595929ac10ad74f6b7e1890fdad744",
      "blockNumber": 68923,
      "transactionIndex": 21,
      "confirmations": null,
      "from": "0x1aBC599B761AEfbB390AD0AE7162b8AA3Cb25e75",
      "gasPrice": {
        "_hex": "0xba43b7400"
      },
      "gasLimit": {
        "_hex": "0x15f90"
      },
      "to": "0x793AE8C1b1a160BFc07BFB0d04F85eab1A71F4f2",
      "value": {
        "_hex": "0x0"
      },
      "nonce": 0,
      "data": "0x3ba15036",
      "r": "0xe702f68e1874f9400d2530392cc2558812b5565fa3b0a5ef68066f67e2e60bb6",
      "s": "0x08d4a003b44f9124b7a869a56fc9eb5f4b9de61b1eac94b35295623976655c6d",
      "v": 28,
      "creates": null,
      "raw": "0xf86980850ba43b740083015f9094793ae8c1b1a160bfc07bfb0d04f85eab1a71f4f280843ba150361ca0e702f68e1874f9400d2530392cc2558812b5565fa3b0a5ef68066f67e2e60bb6a008d4a003b44f9124b7a869a56fc9eb5f4b9de61b1eac94b35295623976655c6d",
      "networkId": 0,
      "chainId": 0
    },
    {
      "hash": "0xb9dcf90bea9b483bd54c7e7cc7a30889674af0d904d8137f37b6927c273c2c33",
      "blockHash": "0x6e6ec30ba20b263d1bdf6d87a0b1b037ea595929ac10ad74f6b7e1890fdad744",
      "blockNumber": 68923,
      "transactionIndex": 22,
      "confirmations": null,
      "from": "0x5019659169f51A0ddAdFF64b8cF67b7c58b5FF61",
      "gasPrice": {
        "_hex": "0xba43b7400"
      },
      "gasLimit": {
        "_hex": "0x15f90"
      },
      "to": "0x793AE8C1b1a160BFc07BFB0d04F85eab1A71F4f2",
      "value": {
        "_hex": "0x0"
      },
      "nonce": 0,
      "data": "0x3ba15036",
      "r": "0x35f86b64c29146953199d6a9f112343678b6f18b3d44a0bb09c05954cf78448e",
      "s": "0x01f9181e7945e1a55be7c8cf5ec1af6e892573cc0388600c70c747510d26bd17",
      "v": 28,
      "creates": null,
      "raw": "0xf86980850ba43b740083015f9094793ae8c1b1a160bfc07bfb0d04f85eab1a71f4f280843ba150361ca035f86b64c29146953199d6a9f112343678b6f18b3d44a0bb09c05954cf78448ea001f9181e7945e1a55be7c8cf5ec1af6e892573cc0388600c70c747510d26bd17",
      "networkId": 0,
      "chainId": 0
    },
    {
      "hash": "0xe914d6dca7ed8287876504a6f6dffc7edc2162cc1320291e3a3695f0d5098b2b",
      "blockHash": "0x6e6ec30ba20b263d1bdf6d87a0b1b037ea595929ac10ad74f6b7e1890fdad744",
      "blockNumber": 68923,
      "transactionIndex": 23,
      "confirmations": null,
      "from": "0xC3a19C59dEd77533Cf41DA3c587E7d5cD338e477",
      "gasPrice": {
        "_hex": "0xba43b7400"
      },
      "gasLimit": {
        "_hex": "0x15f90"
      },
      "to": "0x793AE8C1b1a160BFc07BFB0d04F85eab1A71F4f2",
      "value": {
        "_hex": "0x0"
      },
      "nonce": 0,
      "data": "0x3ba15036",
      "r": "0x5717ba19629abad1b37a8c036fa3276124976eef15775bd64ad79b66adf97451",
      "s": "0x457b4b40c22d1ae40819f77a661226459b02e4950be543d1ae4d12ed15c9edc9",
      "v": 28,
      "creates": null,
      "raw": "0xf86980850ba43b740083015f9094793ae8c1b1a160bfc07bfb0d04f85eab1a71f4f280843ba150361ca05717ba19629abad1b37a8c036fa3276124976eef15775bd64ad79b66adf97451a0457b4b40c22d1ae40819f77a661226459b02e4950be543d1ae4d12ed15c9edc9",
      "networkId": 0,
      "chainId": 0
    },
    {
      "hash": "0x33a6453279db22c5abe4fab70c8e639a0d962392b13abdf5f5433b0534cb47c0",
      "blockHash": "0x6e6ec30ba20b263d1bdf6d87a0b1b037ea595929ac10ad74f6b7e1890fdad744",
      "blockNumber": 68923,
      "transactionIndex": 24,
      "confirmations": null,
      "from": "0x6164b2150d752fAdd74b3e37F840f799989Ef14F",
      "gasPrice": {
        "_hex": "0xba43b7400"
      },
      "gasLimit": {
        "_hex": "0x15f90"
      },
      "to": "0x793AE8C1b1a160BFc07BFB0d04F85eab1A71F4f2",
      "value": {
        "_hex": "0x0"
      },
      "nonce": 0,
      "data": "0x3ba15036",
      "r": "0x02443d14080d9860d50377f7afcb57d79756767d005dd4601e45b14ce30241f6",
      "s": "0x5d08ae6c240b6c7f419f3e435c7eccc2ababa1ef5a25afc366830fa752433169",
      "v": 28,
      "creates": null,
      "raw": "0xf86980850ba43b740083015f9094793ae8c1b1a160bfc07bfb0d04f85eab1a71f4f280843ba150361ca002443d14080d9860d50377f7afcb57d79756767d005dd4601e45b14ce30241f6a05d08ae6c240b6c7f419f3e435c7eccc2ababa1ef5a25afc366830fa752433169",
      "networkId": 0,
      "chainId": 0
    },
    {
      "hash": "0x268bc26d1f8e70f1566c58a1505c130f27697ab689e3e8646315fb8e49dd2446",
      "blockHash": "0x6e6ec30ba20b263d1bdf6d87a0b1b037ea595929ac10ad74f6b7e1890fdad744",
      "blockNumber": 68923,
      "transactionIndex": 25,
      "confirmations": null,
      "from": "0xb15e1bF9402a2eA3Ad798337554d2b2833B63269",
      "gasPrice": {
        "_hex": "0xba43b7400"
      },
      "gasLimit": {
        "_hex": "0x15f90"
      },
      "to": "0x793AE8C1b1a160BFc07BFB0d04F85eab1A71F4f2",
      "value": {
        "_hex": "0x0"
      },
      "nonce": 0,
      "data": "0x3ba15036",
      "r": "0x0d51b2036b53fa9b8c449300a587d75f45a4630a004b1477b93746b6e97673aa",
      "s": "0x52edd8997e235bd5f21d13982837cdf0452a49093e2da609bb39226807bdab72",
      "v": 28,
      "creates": null,
      "raw": "0xf86980850ba43b740083015f9094793ae8c1b1a160bfc07bfb0d04f85eab1a71f4f280843ba150361ca00d51b2036b53fa9b8c449300a587d75f45a4630a004b1477b93746b6e97673aaa052edd8997e235bd5f21d13982837cdf0452a49093e2da609bb39226807bdab72",
      "networkId": 0,
      "chainId": 0
    }
  ]
}