{
  "hash": "0x309a60262fd3d222c58b8e274e713c14825ac3e817fc155f53dbe94794ab85bb",
  "parentHash": "0x213fa123bf4db2f3d52fa31f5730450473af8d15be8d256c65f1d47e323c39fc",
  "number": 109030,
  "timestamp": 1439950011,
  "nonce": "0x19576c370eeb45f4",
  "difficulty": 4399890990984,
  "gasLimit": {
    "_hex": "0x2fefd8"
  },
  "gasUsed": {
    "_hex": "0x5208"
  },
  "miner": "0xe6A7a1d47ff21B6321162AEA7C6CB457D5476Bca",
  "extraData": "0x476574682f76312e302e312d38326566323666362f6c696e75782f676f312e34",
  "transactions": [
    {
      "hash": "0xb2b7487272826072d930e5bf1a6bc8cbacd02aed45ac274af099cef366c07da4",
      "blockHash": "0x309a60262fd3d222c58b8e274e713c14825ac3e817fc155f53dbe94794ab85bb",
      "blockNumber": 109030,
      "transactionIndex": 0,
      "confirmations": null,
      "from": "0x2910543Af39abA0Cd09dBb2D50200b3E800A63D2",
      "gasPrice": {
        "_hex": "0xcce641051"
      },
      "gasLimit": {
        "_hex": "0x5208"
      },
      "to": "0xDA62BDeD812A21EA6D74A7F72cAB0694f680837F",
      "value": {
        "_hex": "0x1043561a8829300000"
      },
      "nonce": 1071,
      "data": "0x",
      "r": "0x7dccf559dcd2f6d3e85e534245092adc18bd02e572eea50e2a87115df3f4798e",
      "s": "0x533f41b0d1f59bdb8d8d01e88b3d91e5ee44e1b5c998470f5903ff05792a6262",
      "v": 27,
      "creates": null,
      "raw": "0xf86f82042f850cce64105182520894da62bded812a21ea6d74a7f72cab0694f680837f891043561a8829300000801ba07dccf559dcd2f6d3e85e534245092adc18bd02e572eea50e2a87115df3f4798ea0533f41b0d1f59bdb8d8d01e88b3d91e5ee44e1b5c998470f5903ff05792a6262",
      "networkId": 0,
      "chainId": 0
    }
  ]
}