{
  "hash": "0x4dba44fa054d20e45bf3fe44f4cae0ea10ae16293d74bf11c56851ff4f92438f",
  "parentHash": "0x6aabf1ad13f953106447e5c456e2dbbf68506ca8433ae63d5d73586c6af77a31",
  "number": 119811,
  "timestamp": 1440149090,
  "nonce": "0x1e45ecde2fbf1f1d",
  "difficulty": 4400681495211,
  "gasLimit": {
    "_hex": "0x2fefd8"
  },
  "gasUsed": {
    "_hex": "0x5208"
  },
  "miner": "0x88D74a59454F6cF3B51ef6b9136AFb6b9D405A88",
  "extraData": "0x",
  "transactions": [
    {
      "hash": "0x2292dceb2ebbeed8266b37d92b87e31e5a9c37231844dc23c165728a42604cad",
      "blockHash": "0x4dba44fa054d20e45bf3fe44f4cae0ea10ae16293d74bf11c56851ff4f92438f",
      "blockNumber": 119811,
      "transactionIndex": 0,
      "confirmations": null,
      "from": "0xeDbc07d54406D3B56bdaeADEEa788b9721f779ba",
      "gasPrice": {
        "_hex": "0xba43b7400"
      },
      "gasLimit": {
        "_hex": "0x55f0"
      },
      "to": "0x0DBaD90C967BFfeA4d6B589c0d2AF50A0eA16304",
      "value": {
        "_hex": "0x46bbbccedf91b0000"
      },
      "nonce": 6,
      "data": "0x",
      "r": "0x1b13b724f80f4dcd7f5f1b0bf5973db78c5f2e28e4a023a527f0b7c3a7ee1077",
      "s": "0x6439976396ca6eaef01bbfd4a1caf176bfe81cc078f65d5db7b2b125c97748e9",
      "v": 28,
      "creates": null,
      "raw": "0xf86d06850ba43b74008255f0940dbad90c967bffea4d6b589c0d2af50a0ea1630489046bbbccedf91b0000801ca01b13b724f80f4dcd7f5f1b0bf5973db78c5f2e28e4a023a527f0b7c3a7ee1077a06439976396ca6eaef01bbfd4a1caf176bfe81cc078f65d5db7b2b125c97748e9",
      "networkId": 0,
      "chainId": 0
    }
  ]
}