{
  "hash": "0xcddbf29004914bc9ca6a503914ffa1e0384a4383417bd69fcbdf029aabc72a50",
  "parentHash": "0x7077cd76eec0e38ecb0cb3b57ff4d90f058814f4e6e7ccb4bf7c601db9769909",
  "number": 94540,
  "timestamp": 1439710028,
  "nonce": "0xd209693ef81ef2c0",
  "difficulty": 3496847253447,
  "gasLimit": {
    "_hex": "0x2fefd8"
  },
  "gasUsed": {
    "_hex": "0xf618"
  },
  "miner": "0xe6A7a1d47ff21B6321162AEA7C6CB457D5476Bca",
  "extraData": "0x476574682f76312e302e312d38326566323666362f6c696e75782f676f312e34",
  "transactions": [
    {
      "hash": "0xdc97c2290cc7c0d099f1273b1d99c0452f85f6f79fd8a70ac4f8d4e8aaf4ffd1",
      "blockHash": "0xcddbf29004914bc9ca6a503914ffa1e0384a4383417bd69fcbdf029aabc72a50",
      "blockNumber": 94540,
      "transactionIndex": 0,
      "confirmations": null,
      "from": "0x007f7f58D3eb5b7510A301eCC749FC1fCDDBE14D",
      "gasPrice": {
        "_hex": "0xce86c9ea7"
      },
      "gasLimit": {
        "_hex": "0x15f90"
      },
      "to": "0xb1abce2918E21ddb93AA452731a12672A3d9F75a",
      "value": {
        "_hex": "0x4563918244f40000"
      },
      "nonce": 31,
      "data": "0x",
      "r": "0xeb963ad2316a64b1f08df3d7ef7a097bde9325879aebdc4aa54aa3b90341db60",
      "s": "0x4d6b7704ebd64bdc58737ffa2430895175e00fb6c6fb831864510f1fb4c681c0",
      "v": 28,
      "creates": null,
      "raw": "0xf86d1f850ce86c9ea783015f9094b1abce2918e21ddb93aa452731a12672a3d9f75a884563918244f40000801ca0eb963ad2316a64b1f08df3d7ef7a097bde9325879aebdc4aa54aa3b90341db60a04d6b7704ebd64bdc58737ffa2430895175e00fb6c6fb831864510f1fb4c681c0",
      "networkId": 0,
      "chainId": 0
    },
    {
      "hash": "0x75d45af3a447bfce624c0ed56f7c208179ecbd186f53fd1b5782282b9650f0c0",
      "blockHash": "0xcddbf29004914bc9ca6a503914ffa1e0384a4383417bd69fcbdf029aabc72a50",
      "blockNumber": 94540,
      "transactionIndex": 1,
      "confirmations": null,
      "from": "0x007f7f58D3eb5b7510A301eCC749FC1fCDDBE14D",
      "gasPrice": {
        "_hex": "0xcc8ddf695"
      },
      "gasLimit": {
        "_hex": "0x15f90"
      },
      "to": "0xb1abce2918E21ddb93AA452731a12672A3d9F75a",
      "value": {
        "_hex": "0x4563918244f40000"
      },
      "nonce": 32,
      "data": "0x",
      "r": "0xc044a2a334826a865a2a67a86101c16c7aa330d09a0141cce559cf078d8ee67d",
      "s": "0x7893f0f36f789eec01744669e6d409ae42b3e38ea3685648301c256f45b247a5",
      "v": 27,
      "creates": null,
      "raw": "0xf86d20850cc8ddf69583015f9094b1abce2918e21ddb93aa452731a12672a3d9f75a884563918244f40000801ba0c044a2a334826a865a2a67a86101c16c7aa330d09a0141cce559cf078d8ee67da07893f0f36f789eec01744669e6d409ae42b3e38ea3685648301c256f45b247a5",
      "networkId": 0,
      "chainId": 0
    },
    {
      "hash": "0x83d98225e3fb81f19708b533cffda6fe65075618d0f30a33fc1faa5f7c8e3f1c",
      "blockHash": "0xcddbf29004914bc9ca6a503914ffa1e0384a4383417bd69fcbdf029aabc72a50",
      "blockNumber": 94540,
      "transactionIndex": 2,
      "confirmations": null,
      "from": "0x007f7f58D3eb5b7510A301eCC749FC1fCDDBE14D",
      "gasPrice": {
        "_hex": "0xcc8ddf695"
      },
      "gasLimit": {
        "_hex": "0x15f90"
      },
      "to": "0xb1abce2918E21ddb93AA452731a12672A3d9F75a",
      "value": {
        "_hex": "0x4563918244f40000"
      },
      "nonce": 33,
      "data": "0x",
      "r": "0x56fd20496012239e33bca5e1ef329ea8a168b3166a001a01e08e34933a337f68",
      "s": "0x4dc3004357b6d8066ff08ab2ae2ef77325d24178a9d50260a0e33290a746b0c9",
      "v": 27,
      "creates": null,
      "raw": "0xf86d21850cc8ddf69583015f9094b1abce2918e21ddb93aa452731a12672a3d9f75a884563918244f40000801ba056fd20496012239e33bca5e1ef329ea8a168b3166a001a01e08e34933a337f68a04dc3004357b6d8066ff08ab2ae2ef77325d24178a9d50260a0e33290a746b0c9",
      "networkId": 0,
      "chainId": 0
    }
  ]
}