{
  "hash": "0xb2ab2348490aaa002beb7579a2d67d807bf2c75a8de334a59c23827c85641b98",
  "parentHash": "0xd130f75fdc8588338c962ce16f9c3c7123d3e3e26dff4822dab220ebbc060c80",
  "number": 90979,
  "timestamp": 1439648323,
  "nonce": "0x6163f6ba4990d293",
  "difficulty": 3428993402038,
  "gasLimit": {
    "_hex": "0x2fefd8"
  },
  "gasUsed": {
    "_hex": "0x5208"
  },
  "miner": "0x445Aa5d2cB3Bc1A77460aB63C13328368d12fb9F",
  "extraData": "0x",
  "transactions": [
    {
      "hash": "0x2118f9c69dacf6806ff18a758c18159ac7882472fa78fc8f841362fae1b3c47a",
      "blockHash": "0xb2ab2348490aaa002beb7579a2d67d807bf2c75a8de334a59c23827c85641b98",
      "blockNumber": 90979,
      "transactionIndex": 0,
      "confirmations": null,
      "from": "0x2910543Af39abA0Cd09dBb2D50200b3E800A63D2",
      "gasPrice": {
        "_hex": "0xdcaa1604b"
      },
      "gasLimit": {
        "_hex": "0x5208"
      },
      "to": "0x5a0f0935E8E5591B2f9f2d55f29C626B50292088",
      "value": {
        "_hex": "0x56bb59ab42b2f8000"
      },
      "nonce": 794,
      "data": "0x",
      "r": "0xf6c9d3e39ae93051b91b1bc9f8bbfd9885d2bf53ca91a5c75fe00c0ec60c943e",
      "s": "0x51320523f4e4bd120765ffbcd75f899c2f0a82351d106f54bfbab1c1ce5f703d",
      "v": 28,
      "creates": null,
      "raw": "0xf86f82031a850dcaa1604b825208945a0f0935e8e5591b2f9f2d55f29c626b5029208889056bb59ab42b2f8000801ca0f6c9d3e39ae93051b91b1bc9f8bbfd9885d2bf53ca91a5c75fe00c0ec60c943ea051320523f4e4bd120765ffbcd75f899c2f0a82351d106f54bfbab1c1ce5f703d",
      "networkId": 0,
      "chainId": 0
    }
  ]
}