{
  "hash": "0xb5451024a8b43b53b4c479b7b10f282206f3b85d299271f478b07ae80ef57ce9",
  "parentHash": "0x5779c3b18a3781d23915474599b06599e9a2e9a44b58831cec592596018ba68d",
  "number": 76363,
  "timestamp": 1439419177,
  "nonce": "0x382116163faa1fc0",
  "difficulty": 2226465450397,
  "gasLimit": {
    "_hex": "0x2fefd8"
  },
  "gasUsed": {
    "_hex": "0xa410"
  },
  "miner": "0xeB1325C8D9d3ea8D74aC11F4B00F1B2367686319",
  "extraData": "0x476574682f76312e302e312f77696e646f77732f676f312e342e32",
  "transactions": [
    {
      "hash": "0x2d2cd42411ce4bf05654fb3052b209c85af5196a5aeb72abb7653172a1a16f47",
      "blockHash": "0xb5451024a8b43b53b4c479b7b10f282206f3b85d299271f478b07ae80ef57ce9",
      "blockNumber": 76363,
      "transactionIndex": 0,
      "confirmations": null,
      "from": "0xf661E21B71A9CA331E251e51a412857D2B61d8F8",
      "gasPrice": {
        "_hex": "0xd7d40ace3"
      },
      "gasLimit": {
        "_hex": "0x15f90"
      },
      "to": "0x740Fc79C926C4Bd3BD78DEFBE690814FF803C40c",
      "value": {
        "_hex": "0xb"
      },
      "nonce": 8,
      "data": "0x",
      "r": "0x33d3512139544a4c58568b50260e2de56aaba4ffd46ea8294dbbb36cdba53fe2",
      "s": "0x5a9a2156df0d99c2a266b8be2783c606b987784f5841ab0dc86d09ad3d0e8274",
      "v": 28,
      "creates": null,
      "raw": "0xf86508850d7d40ace383015f9094740fc79c926c4bd3bd78defbe690814ff803c40c0b801ca033d3512139544a4c58568b50260e2de56aaba4ffd46ea8294dbbb36cdba53fe2a05a9a2156df0d99c2a266b8be2783c606b987784f5841ab0dc86d09ad3d0e8274",
      "networkId": 0,
      "chainId": 0
    },
    {
      "hash": "0x31ea6056d8acc53fd5faf6432b05dca6d5b41ec12df4e2798896ec32bdf3b391",
      "blockHash": "0xb5451024a8b43b53b4c479b7b10f282206f3b85d299271f478b07ae80ef57ce9",
      "blockNumber": 76363,
      "transactionIndex": 1,
      "confirmations": null,
      "from": "0xf661E21B71A9CA331E251e51a412857D2B61d8F8",
      "gasPrice": {
        "_hex": "0xd7d40ace3"
      },
      "gasLimit": {
        "_hex": "0x15f90"
      },
      "to": "0x740Fc79C926C4Bd3BD78DEFBE690814FF803C40c",
      "value": {
        "_hex": "0x91b77e5e5d9a0000"
      },
      "nonce": 9,
      "data": "0x",
      "r": "0x2f7c3e7b63e9defb62eb92750ebff267f3f0fbd9c9db346dea6ccffa9cc4889d",
      "s": "0x62e3cff02df4e6650face799266be67b708a4d26591ca7d665201b049e5fb0f7",
      "v": 27,
      "creates": null,
      "raw": "0xf86d09850d7d40ace383015f9094740fc79c926c4bd3bd78defbe690814ff803c40c8891b77e5e5d9a0000801ba02f7c3e7b63e9defb62eb92750ebff267f3f0fbd9c9db346dea6ccffa9cc4889da062e3cff02df4e6650face799266be67b708a4d26591ca7d665201b049e5fb0f7",
      "networkId": 0,
      "chainId": 0
    }
  ]
}