{
  "hash": "0x44960b7585b6cf3ed6a5487013a07d11692ef507329adf20eb5bf9968d84c318",
  "parentHash": "0x94c84e38cb26071f9e54aaefe3b1beb71ac3f088431d880a72f2423db51d31ee",
  "number": 97558,
  "timestamp": 1439757982,
  "nonce": "0x789658dd07649d59",
  "difficulty": 3827922867471,
  "gasLimit": {
    "_hex": "0x2fefd8"
  },
  "gasUsed": {
    "_hex": "0x5208"
  },
  "miner": "0xeB1325C8D9d3ea8D74aC11F4B00F1B2367686319",
  "extraData": "0x",
  "transactions": [
    {
      "hash": "0xb2b4b2c8e3f9b3a1cb227db149d1afb472fe9823f5d32e67caf7e32549955095",
      "blockHash": "0x44960b7585b6cf3ed6a5487013a07d11692ef507329adf20eb5bf9968d84c318",
      "blockNumber": 97558,
      "transactionIndex": 0,
      "confirmations": null,
      "from": "0x645B979F8ce622236DB26feB803455d40C328615",
      "gasPrice": {
        "_hex": "0xd9ebbe9bc"
      },
      "gasLimit": {
        "_hex": "0x5208"
      },
      "to": "0x32Be343B94f860124dC4fEe278FDCBD38C102D88",
      "value": {
        "_hex": "0x6c6b8efe46ef600000"
      },
      "nonce": 5,
      "data": "0x",
      "r": "0x7c7844e88a25d35efce7e7913f458343243defff254009a08cefadef88b810ce",
      "s": "0x5d5775f82ee646f0f8b39385ab148d0d87c06398097701a1c89afac8aadc14a5",
      "v": 28,
      "creates": null,
      "raw": "0xf86d05850d9ebbe9bc8252089432be343b94f860124dc4fee278fdcbd38c102d88896c6b8efe46ef600000801ca07c7844e88a25d35efce7e7913f458343243defff254009a08cefadef88b810cea05d5775f82ee646f0f8b39385ab148d0d87c06398097701a1c89afac8aadc14a5",
      "networkId": 0,
      "chainId": 0
    }
  ]
}