{
  "hash": "0xe6ed30cd147c5f4c585f15fef78fb133631d3b8d6ddf91cdc0e9ce0fbeba41fa",
  "parentHash": "0x122fafe5db067deac0a0bdf28c0c76588a70462ddd9ebad5d4cc4791f0b32536",
  "number": 51427,
  "timestamp": 1439004726,
  "nonce": "0x89b311319611d64d",
  "difficulty": 1565052161277,
  "gasLimit": {
    "_hex": "0xaf8cd"
  },
  "gasUsed": {
    "_hex": "0x5208"
  },
  "miner": "0x9746c7e1ef2bd21FF3997fa467593a89cb852BD0",
  "extraData": "0x476574682f76312e302e312f77696e646f77732f676f312e342e32",
  "transactions": [
    {
      "hash": "0xbccd2762c9eaeab5bab2fccc6e62bcf16a8881b37cb655b8056c12635a2aa99e",
      "blockHash": "0xe6ed30cd147c5f4c585f15fef78fb133631d3b8d6ddf91cdc0e9ce0fbeba41fa",
      "blockNumber": 51427,
      "transactionIndex": 0,
      "confirmations": null,
      "from": "0x4c74B6F32c9680aCB5Fe0e72B7Aa95C612540A04",
      "gasPrice": {
        "_hex": "0xcede665d7"
      },
      "gasLimit": {
        "_hex": "0x5208"
      },
      "to": "0x32Be343B94f860124dC4fEe278FDCBD38C102D88",
      "value": {
        "_hex": "0x299dff7f81aac400"
      },
      "nonce": 0,
      "data": "0x",
      "r": "0xcf36aea66e741f9a13a888f80be390467da04bc4623d9373473e8041e559dcdc",
      "s": "0x02c19bc07713adf6bc66e684d74ad71ecb27d70f9fa09369fb7fb642e0bfd6d5",
      "v": 27,
      "creates": null,
      "raw": "0xf86c80850cede665d78252089432be343b94f860124dc4fee278fdcbd38c102d8888299dff7f81aac400801ba0cf36aea66e741f9a13a888f80be390467da04bc4623d9373473e8041e559dcdca002c19bc07713adf6bc66e684d74ad71ecb27d70f9fa09369fb7fb642e0bfd6d5",
      "networkId": 0,
      "chainId": 0
    }
  ]
}