{
  "hash": "0xcf6a8c71a4dd4c90f0dd83a298cf5f9d430f4760236c57fe810897709448decf",
  "parentHash": "0xf6072a8438d47feeea89f4670e8d6dd30928d2af48cf3c166690b2aeb6329df6",
  "number": 58235,
  "timestamp": 1439117251,
  "nonce": "0x3461545288ff2234",
  "difficulty": 1722518168396,
  "gasLimit": {
    "_hex": "0x2fefd8"
  },
  "gasUsed": {
    "_hex": "0x5208"
  },
  "miner": "0x3222BA3F3e79eA0e31467EEE7639B57923558cCD",
  "extraData": "0x",
  "transactions": [
    {
      "hash": "0xf758655bbf46f6687cdce4878780654c25c6ddfc659cbc9281bead662e274349",
      "blockHash": "0xcf6a8c71a4dd4c90f0dd83a298cf5f9d430f4760236c57fe810897709448decf",
      "blockNumber": 58235,
      "transactionIndex": 0,
      "confirmations": null,
      "from": "0xe64D681b0eBCa2997D5f35e72EbC7777973299D7",
      "gasPrice": {
        "_hex": "0xff7ce4d257"
      },
      "gasLimit": {
        "_hex": "0x5208"
      },
      "to": "0x931Ac2444b057f80A06A4FB627f26FFA5CE41184",
      "value": {
        "_hex": "0x393ef1a5127c80000"
      },
      "nonce": 2,
      "data": "0x",
      "r": "0xf6db1970dfc600291bf034c5f9582bb3e77f31cde07f18747a48e79644b5a21c",
      "s": "0x75bea231f683839114ad8e33c8ca8bc3d014f7050f4c2ee098d59a28c9b8a73f",
      "v": 27,
      "creates": null,
      "raw": "0xf86d0285ff7ce4d25782520894931ac2444b057f80a06a4fb627f26ffa5ce41184890393ef1a5127c80000801ba0f6db1970dfc600291bf034c5f9582bb3e77f31cde07f18747a48e79644b5a21ca075bea231f683839114ad8e33c8ca8bc3d014f7050f4c2ee098d59a28c9b8a73f",
      "networkId": 0,
      "chainId": 0
    }
  ]
}