{
  "hash": "0xcf606447eee3742c9f40dc8e5f611f471d6c17ff82ab6388df18f0245ebbca62",
  "parentHash": "0x436a7d2f9e6ca0c6ef90f3cc89717ee7c253b9ff0f781b9df4316dca175af8fa",
  "number": 61082,
  "timestamp": 1439166452,
  "nonce": "0xf43dd2dfac4d702c",
  "difficulty": 1727829249703,
  "gasLimit": {
    "_hex": "0x2fefd8"
  },
  "gasUsed": {
    "_hex": "0x7a120"
  },
  "miner": "0xeB1325C8D9d3ea8D74aC11F4B00F1B2367686319",
  "extraData": "0x476574682f76312e302e312f77696e646f77732f676f312e342e32",
  "transactions": [
    {
      "hash": "0xc7895ba776c3be30e9fd390df68a3a34f890e00f7be194d55914d6074abaf776",
      "blockHash": "0xcf606447eee3742c9f40dc8e5f611f471d6c17ff82ab6388df18f0245ebbca62",
      "blockNumber": 61082,
      "transactionIndex": 0,
      "confirmations": null,
      "from": "0xDa4a85f1DA045634C08e33d4857D9e5f0D44327A",
      "gasPrice": {
        "_hex": "0xcf78b778d"
      },
      "gasLimit": {
        "_hex": "0x7a120"
      },
      "to": "0x109C4f2CCc82C4d77Bde15F306707320294Aea3F",
      "value": {
        "_hex": "0xde0b6b3a7640000"
      },
      "nonce": 0,
      "data": "0x",
      "r": "0xb6be1bf418aa2a3bf510eace05e9f883b36714ffd125944341b8ec81d2372573",
      "s": "0x24bd51c6d44409911a957f9150d726618a591fa5eb1eb724315adb659d4bb441",
      "v": 28,
      "creates": null,
      "raw": "0xf86d80850cf78b778d8307a12094109c4f2ccc82c4d77bde15f306707320294aea3f880de0b6b3a7640000801ca0b6be1bf418aa2a3bf510eace05e9f883b36714ffd125944341b8ec81d2372573a024bd51c6d44409911a957f9150d726618a591fa5eb1eb724315adb659d4bb441",
      "networkId": 0,
      "chainId": 0
    }
  ]
}