{
  "hash": "0xc1200e4ced59b40bf56015559f02b9bd1985c8a0e61f2c768fe38b31e752f244",
  "parentHash": "0xb7b81d7bdad3d662d3639264a909c5fc7add66dcae3092372953e2fcd5ad51ce",
  "number": 121203,
  "timestamp": 1440173194,
  "nonce": "0x12c96daad740cade",
  "difficulty": 4404250236100,
  "gasLimit": {
    "_hex": "0x2fefd8"
  },
  "gasUsed": {
    "_hex": "0x5208"
  },
  "miner": "0xe6A7a1d47ff21B6321162AEA7C6CB457D5476Bca",
  "extraData": "0xd783010002844765746887676f312e342e32856c696e7578",
  "transactions": [
    {
      "hash": "0x33bd7ea8a6d1b274ebf6708dc1bc02538f1a993339912bb32884913159e4f34c",
      "blockHash": "0xc1200e4ced59b40bf56015559f02b9bd1985c8a0e61f2c768fe38b31e752f244",
      "blockNumber": 121203,
      "transactionIndex": 0,
      "confirmations": null,
      "from": "0xc597A5d92F5dC1137D847db733cfe02c6d209f13",
      "gasPrice": {
        "_hex": "0xba43b7400"
      },
      "gasLimit": {
        "_hex": "0x15f90"
      },
      "to": "0x5F965F10e1BD020753Ca496fee6b3E4D809aff67",
      "value": {
        "_hex": "0x2a7f87bf0c4b6e000"
      },
      "nonce": 54,
      "data": "0x",
      "r": "0xca8518275127be0fef518d2cc6216f5e60d48f96c7ec18c0fb5e1cec34b6aeea",
      "s": "0x23061fd0f3d9e94cddf61acea6f0bb75197258bd1a47b8e36745624c92b3028e",
      "v": 28,
      "creates": null,
      "raw": "0xf86e36850ba43b740083015f90945f965f10e1bd020753ca496fee6b3e4d809aff678902a7f87bf0c4b6e000801ca0ca8518275127be0fef518d2cc6216f5e60d48f96c7ec18c0fb5e1cec34b6aeeaa023061fd0f3d9e94cddf61acea6f0bb75197258bd1a47b8e36745624c92b3028e",
      "networkId": 0,
      "chainId": 0
    }
  ]
}