{
  "hash": "0xcde1b3aa2b5277db71da0888ee0319db2af5ee5e6722f1c3488aa9bce68afaca",
  "parentHash": "0xce0e66051fbe41a0c43ae2190f31978d6a8fa6eba7c74471ccb7e6d631395b2d",
  "number": 85324,
  "timestamp": 1439561833,
  "nonce": "0x2488680f6ff8a2f2",
  "difficulty": 2745041872692,
  "gasLimit": {
    "_hex": "0x2fefd8"
  },
  "gasUsed": {
    "_hex": "0xa410"
  },
  "miner": "0xF2d2AfF1320476cb8C6b607199D23175cc595693",
  "extraData": "0x476574682f76312e302e312f77696e646f77732f676f312e342e32",
  "transactions": [
    {
      "hash": "0x0825755af7712880b4399a25f40147e01612defbf381a276e435a1fb234a6b7d",
      "blockHash": "0xcde1b3aa2b5277db71da0888ee0319db2af5ee5e6722f1c3488aa9bce68afaca",
      "blockNumber": 85324,
      "transactionIndex": 0,
      "confirmations": null,
      "from": "0xe3A29c590ae7Bf0D32A7121373bf5C94ADbeCa4a",
      "gasPrice": {
        "_hex": "0xd449e8621"
      },
      "gasLimit": {
        "_hex": "0x5208"
      },
      "to": "0x32Be343B94f860124dC4fEe278FDCBD38C102D88",
      "value": {
        "_hex": "0x1b1ad73f880fcd00000"
      },
      "nonce": 6,
      "data": "0x",
      "r": "0x65e1160b0472abe326d3eb1ee266e38a68816549fb1f18842a5918a10b431c94",
      "s": "0x23b4e0635a9601717b435db5938d92bcc248e15a83aa65db7554e5d21251a7fc",
      "v": 28,
      "creates": null,
      "raw": "0xf86e06850d449e86218252089432be343b94f860124dc4fee278fdcbd38c102d888a01b1ad73f880fcd00000801ca065e1160b0472abe326d3eb1ee266e38a68816549fb1f18842a5918a10b431c94a023b4e0635a9601717b435db5938d92bcc248e15a83aa65db7554e5d21251a7fc",
      "networkId": 0,
      "chainId": 0
    },
    {
      "hash": "0xe02aa163b1a39ea245bcc0fdbb011ceaa7ea9a77924b31eecdd062185b669c9a",
      "blockHash": "0xcde1b3aa2b5277db71da0888ee0319db2af5ee5e6722f1c3488aa9bce68afaca",
      "blockNumber": 85324,
      "transactionIndex": 1,
      "confirmations": null,
      "from": "0x13aE5B35f82651Ff327d41502F0Aa90DA76D777E",
      "gasPrice": {
        "_hex": "0xd449e8621"
      },
      "gasLimit": {
        "_hex": "0x5208"
      },
      "to": "0x32Be343B94f860124dC4fEe278FDCBD38C102D88",
      "value": {
        "_hex": "0x15f17679002fae000"
      },
      "nonce": 1,
      "data": "0x",
      "r": "0xbff44c32d92a59f01031d7800e861b9ca94490b63fb0be18015a872b0b4dca5c",
      "s": "0x403509837c25265365fc949fbe17d749d656983da03793e3b959235d95fd5e5f",
      "v": 27,
      "creates": null,
      "raw": "0xf86d01850d449e86218252089432be343b94f860124dc4fee278fdcbd38c102d8889015f17679002fae000801ba0bff44c32d92a59f01031d7800e861b9ca94490b63fb0be18015a872b0b4dca5ca0403509837c25265365fc949fbe17d749d656983da03793e3b959235d95fd5e5f",
      "networkId": 0,
      "chainId": 0
    }
  ]
}