{
  "hash": "0x37d21b250659a1d6945b5eb941b716bb2479c3afb9ed028908a5dbd0995b3aaa",
  "parentHash": "0x59f64f98952357a655489c6afbb16c17c6f2e03b59de3b25f8298cdd1313933d",
  "number": 58414,
  "timestamp": 1439120116,
  "nonce": "0x255290a75cb73eb2",
  "difficulty": 1721640562751,
  "gasLimit": {
    "_hex": "0x2fefd8"
  },
  "gasUsed": {
    "_hex": "0x546c"
  },
  "miner": "0xC759dc67E0c3816fdC56A2f5bb29920fc07e767D",
  "extraData": "0x476574682f76312e302e312f77696e646f77732f676f312e342e32",
  "transactions": [
    {
      "hash": "0xf11a5f3550f33cf369456bbf89bb5fb9824a62579a8ae06b07dc427110366128",
      "blockHash": "0x37d21b250659a1d6945b5eb941b716bb2479c3afb9ed028908a5dbd0995b3aaa",
      "blockNumber": 58414,
      "transactionIndex": 0,
      "confirmations": null,
      "from": "0x869F1Aa30E4455BEb1822091DE5CAdec79A8f946",
      "gasPrice": {
        "_hex": "0x110c8f7d8de"
      },
      "gasLimit": {
        "_hex": "0xc350"
      },
      "to": "0x2910543Af39abA0Cd09dBb2D50200b3E800A63D2",
      "value": {
        "_hex": "0x1b123864b2a6b180000"
      },
      "nonce": 0,
      "data": "0x454e59445233304e52",
      "r": "0x714286ffc368c9906c57c5c07f696e9fe848492aeaffccb8e86cadac5a77af33",
      "s": "0x75283660768cc051865b877190ade46bcefa7450c6fbd102ce778c2e486a47c3",
      "v": 28,
      "creates": null,
      "raw": "0xf87880860110c8f7d8de82c350942910543af39aba0cd09dbb2d50200b3e800a63d28a01b123864b2a6b18000089454e59445233304e521ca0714286ffc368c9906c57c5c07f696e9fe848492aeaffccb8e86cadac5a77af33a075283660768cc051865b877190ade46bcefa7450c6fbd102ce778c2e486a47c3",
      "networkId": 0,
      "chainId": 0
    }
  ]
}