{
  "hash": "0x4e5d664759d968e50f90c7cd89692ae702bbada4d8b26b1c7016d288bb345534",
  "parentHash": "0x2e530ba13d4d03e46a5e4caa6b35fc5692878f44ee892d7d3ba82ea8146f0b41",
  "number": 78678,
  "timestamp": 1439457541,
  "nonce": "0x008443be4a09c148",
  "difficulty": 2293145640833,
  "gasLimit": {
    "_hex": "0x2fefd8"
  },
  "gasUsed": {
    "_hex": "0x15a38"
  },
  "miner": "0xe6A7a1d47ff21B6321162AEA7C6CB457D5476Bca",
  "extraData": "0x476574682f76312e302e312d38326566323666362f6c696e75782f676f312e34",
  "transactions": [
    {
      "hash": "0x0f2fce4c349b040ebf486d73d3825a71e08c46b014ab39afc8fdf85e6e975509",
      "blockHash": "0x4e5d664759d968e50f90c7cd89692ae702bbada4d8b26b1c7016d288bb345534",
      "blockNumber": 78678,
      "transactionIndex": 0,
      "confirmations": null,
      "from": "0x18E113D8177c691A61Be785852Fa5Bb47aEeBdAf",
      "gasPrice": {
        "_hex": "0xdf1002812"
      },
      "gasLimit": {
        "_hex": "0x249f0"
      },
      "to": "0xc2ac6849Aec3938FB8c9B36F1c07be76f766637E",
      "value": {
        "_hex": "0x53444835ec580000"
      },
      "nonce": 8,
      "data": "0x",
      "r": "0x2b0e679899701f35ca7f28e36e891c8404ad599e6b18f51a52b83c53807140d6",
      "s": "0x1e01fe7926d07ca656a2eec94fa0796b2c2e789516b2dc934ef54a33ce71e1e9",
      "v": 28,
      "creates": null,
      "raw": "0xf86d08850df1002812830249f094c2ac6849aec3938fb8c9b36f1c07be76f766637e8853444835ec580000801ca02b0e679899701f35ca7f28e36e891c8404ad599e6b18f51a52b83c53807140d6a01e01fe7926d07ca656a2eec94fa0796b2c2e789516b2dc934ef54a33ce71e1e9",
      "networkId": 0,
      "chainId": 0
    }
  ]
}