{
  "hash": "0x5c0dbb436464930171937f57965285fd01134ebe860ad74952dc069c6cad92ca",
  "parentHash": "0xcca4bdfe24110ef9ac12cecb00da225210edf9fd8f7217686f94c65b3cd61730",
  "number": 81710,
  "timestamp": 1439506461,
  "nonce": "0x4fc939ab14c9bf67",
  "difficulty": 2425902703845,
  "gasLimit": {
    "_hex": "0x2fefd8"
  },
  "gasUsed": {
    "_hex": "0x5208"
  },
  "miner": "0xe6A7a1d47ff21B6321162AEA7C6CB457D5476Bca",
  "extraData": "0x476574682f76312e302e312d38326566323666362f6c696e75782f676f312e34",
  "transactions": [
    {
      "hash": "0x1e22cb17691f6db395a1458c484b6a729fd62322b06bf3943b31c96e2777814f",
      "blockHash": "0x5c0dbb436464930171937f57965285fd01134ebe860ad74952dc069c6cad92ca",
      "blockNumber": 81710,
      "transactionIndex": 0,
      "confirmations": null,
      "from": "0x4Eb1454B573805C8AcA37EdEc7149a41F61202F4",
      "gasPrice": {
        "_hex": "0xd6b187d36"
      },
      "gasLimit": {
        "_hex": "0x15f90"
      },
      "to": "0x0691f11e1B4005E0b7B2562d1F30cBF287f6f37B",
      "value": {
        "_hex": "0x1041f2d50fcba60000"
      },
      "nonce": 0,
      "data": "0x",
      "r": "0x714094a3378c1a96ce4885ac125c7333ab50219e689033c50804c5b9810bdac1",
      "s": "0x158b721c1058d436cc4b7ed90d1dc81ed81a836fa618481cff7a92578c63d24e",
      "v": 28,
      "creates": null,
      "raw": "0xf86e80850d6b187d3683015f90940691f11e1b4005e0b7b2562d1f30cbf287f6f37b891041f2d50fcba60000801ca0714094a3378c1a96ce4885ac125c7333ab50219e689033c50804c5b9810bdac1a0158b721c1058d436cc4b7ed90d1dc81ed81a836fa618481cff7a92578c63d24e",
      "networkId": 0,
      "chainId": 0
    }
  ]
}