{
  "hash": "0xf7d004e6283cd5d3e5bb0ef061c95f2733a1786a9688d093dc7b71ef84ff7100",
  "parentHash": "0x619753c4df0b02f32fe2f1e51f0e7952c0c55d2a5555361f87f17acaef8eff67",
  "number": 64581,
  "timestamp": 1439222955,
  "nonce": "0x247b4d01beece6b0",
  "difficulty": 1894081267756,
  "gasLimit": {
    "_hex": "0x2fd7fa"
  },
  "gasUsed": {
    "_hex": "0x5208"
  },
  "miner": "0x01d9DA08cc6Fb97c0DE1B6F4C28910A0859Ed1A1",
  "extraData": "0x476574682f76312e302e312f6c696e75782f676f312e342e32",
  "transactions": [
    {
      "hash": "0x9e4a6e2a7cedbd9ee5ed1814b3e73d0769e517dd1eaa4cdd80e312162f6de50a",
      "blockHash": "0xf7d004e6283cd5d3e5bb0ef061c95f2733a1786a9688d093dc7b71ef84ff7100",
      "blockNumber": 64581,
      "transactionIndex": 0,
      "confirmations": null,
      "from": "0x32Be343B94f860124dC4fEe278FDCBD38C102D88",
      "gasPrice": {
        "_hex": "0xcc37dfcc8"
      },
      "gasLimit": {
        "_hex": "0x5208"
      },
      "to": "0xb996Aa4730618799F3FcC30a682d21E1BF70Ef90",
      "value": {
        "_hex": "0x8ac7230489e80000"
      },
      "nonce": 177,
      "data": "0x",
      "r": "0xd9c8d2c0f1aa0d3c2b6ed141eae8f277c21fd498d4da32eea1a9c987ac46e3c0",
      "s": "0x59380b793bed4b1d94f707ac95a6a82c79ee5f70d51091a783ed914729a05e9d",
      "v": 28,
      "creates": null,
      "raw": "0xf86d81b1850cc37dfcc882520894b996aa4730618799f3fcc30a682d21e1bf70ef90888ac7230489e80000801ca0d9c8d2c0f1aa0d3c2b6ed141eae8f277c21fd498d4da32eea1a9c987ac46e3c0a059380b793bed4b1d94f707ac95a6a82c79ee5f70d51091a783ed914729a05e9d",
      "networkId": 0,
      "chainId": 0
    }
  ]
}