{
  "hash": "0x9cfc52efeb6ed46d010d77967263c85c47d9b7095ed8cc9ac30c86721128acc8",
  "parentHash": "0xd8440cfab35c4c37aad47a19684e657e42736bc3dbe1a09184cd9a4de7e219a9",
  "number": 109424,
  "timestamp": 1439956316,
  "nonce": "0x2a81bede0071f0bd",
  "difficulty": 4464607194206,
  "gasLimit": {
    "_hex": "0x2fefd8"
  },
  "gasUsed": {
    "_hex": "0x5208"
  },
  "miner": "0xe6A7a1d47ff21B6321162AEA7C6CB457D5476Bca",
  "extraData": "0x476574682f76312e302e312d38326566323666362f6c696e75782f676f312e34",
  "transactions": [
    {
      "hash": "0x054f792a5ed5bfc4879ec516a3384edfdbecaf4c8b05cc1028a568ee1d362503",
      "blockHash": "0x9cfc52efeb6ed46d010d77967263c85c47d9b7095ed8cc9ac30c86721128acc8",
      "blockNumber": 109424,
      "transactionIndex": 0,
      "confirmations": null,
      "from": "0xA3A56867DCF18D04e2Cf07351d2f692DEE6e6925",
      "gasPrice": {
        "_hex": "0xd287cb91f"
      },
      "gasLimit": {
        "_hex": "0x15f90"
      },
      "to": "0x462d20cE24cAaB2465A6fA8775bcF998DA9eca61",
      "value": {
        "_hex": "0x1c30731cec03200000"
      },
      "nonce": 0,
      "data": "0x",
      "r": "0x6ebda6e37a3b77a019384bc86a464957236db6685389cb935db03fcad59ce0b0",
      "s": "0x4415beedd7ad9e0aa8826b5f743cec2122f293d9b94280e1eb769f6dd96fad1a",
      "v": 28,
      "creates": null,
      "raw": "0xf86e80850d287cb91f83015f9094462d20ce24caab2465a6fa8775bcf998da9eca61891c30731cec03200000801ca06ebda6e37a3b77a019384bc86a464957236db6685389cb935db03fcad59ce0b0a04415beedd7ad9e0aa8826b5f743cec2122f293d9b94280e1eb769f6dd96fad1a",
      "networkId": 0,
      "chainId": 0
    }
  ]
}