{
  "hash": "0xcda3afc44f766306f43c53b47ec1db1b5ff209b802d141b5b4d7bf24f42786f5",
  "parentHash": "0x356191b62ac8c3f980ecbe9f57ec510266f5c9ba1563293aa1114e3ded4518b0",
  "number": 111116,
  "timestamp": 1439984935,
  "nonce": "0x2c1840df9da5978e",
  "difficulty": 4398797003439,
  "gasLimit": {
    "_hex": "0x2fefd8"
  },
  "gasUsed": {
    "_hex": "0x5208"
  },
  "miner": "0xe6A7a1d47ff21B6321162AEA7C6CB457D5476Bca",
  "extraData": "0x476574682f76312e302e312d38326566323666362f6c696e75782f676f312e34",
  "transactions": [
    {
      "hash": "0x093a97b8d43759a6186db6e2d48558a3e8a75cb0d06313993cc3f2202a1c1998",
      "blockHash": "0xcda3afc44f766306f43c53b47ec1db1b5ff209b802d141b5b4d7bf24f42786f5",
      "blockNumber": 111116,
      "transactionIndex": 0,
      "confirmations": null,
      "from": "0xdbaFd1a7331E9441636678450e58c8c461b7314a",
      "gasPrice": {
        "_hex": "0xd3f90dc43"
      },
      "gasLimit": {
        "_hex": "0x15f90"
      },
      "to": "0x1177848589133f5C4E69EdFcb18bBCd9cACE72D1",
      "value": {
        "_hex": "0x470de4df820000"
      },
      "nonce": 1,
      "data": "0x",
      "r": "0xf906eb42bbf38908ed1c6b723fbed79e8ba381428f9eeef26a6b8c0bff4144ff",
      "s": "0x3cf15e35a8bb855f8ad4b0186207a55cbe1f8215382f1904cf254bb52a05b933",
      "v": 27,
      "creates": null,
      "raw": "0xf86c01850d3f90dc4383015f90941177848589133f5c4e69edfcb18bbcd9cace72d187470de4df820000801ba0f906eb42bbf38908ed1c6b723fbed79e8ba381428f9eeef26a6b8c0bff4144ffa03cf15e35a8bb855f8ad4b0186207a55cbe1f8215382f1904cf254bb52a05b933",
      "networkId": 0,
      "chainId": 0
    }
  ]
}