{
  "hash": "0xb8227b5e73da1da9f0896fe7157ac2905a46d38bf3937c268bbe6c178473ff43",
  "parentHash": "0x8f64241e6684c63a562bf2874bbfc3cda9c07aacb1815e1ea88279430892c50a",
  "number": 57038,
  "timestamp": 1439096430,
  "nonce": "0xb2102cb1c2b1f292",
  "difficulty": 1713535655850,
  "gasLimit": {
    "_hex": "0x2fefd5"
  },
  "gasUsed": {
    "_hex": "0x5208"
  },
  "miner": "0x6Cf387a1C50cF6b09634E0d24fDAa2c06Be0ea95",
  "extraData": "0x476574682f76312e302e312d38326566323666362f6c696e75782f676f312e34",
  "transactions": [
    {
      "hash": "0x89cabd3f5acf293be53a937f1f30323e5b6d6f6b01865c0ddff7ef06072ab812",
      "blockHash": "0xb8227b5e73da1da9f0896fe7157ac2905a46d38bf3937c268bbe6c178473ff43",
      "blockNumber": 57038,
      "transactionIndex": 0,
      "confirmations": null,
      "from": "0x32Be343B94f860124dC4fEe278FDCBD38C102D88",
      "gasPrice": {
        "_hex": "0xd9ddd1747"
      },
      "gasLimit": {
        "_hex": "0x5208"
      },
      "to": "0x120A270bbC009644e35F0bB6ab13f95b8199c4ad",
      "value": {
        "_hex": "0x5150ae84a8cdf00000"
      },
      "nonce": 86,
      "data": "0x",
      "r": "0x82768d36dc80d94eb0403a55d9b570e93169f3588a53991cbbb1b02bf9bcaf35",
      "s": "0x57c066488b2ad2ec3703addeb04bc1080d02ab52198a790ff50f47dcc5ac7b32",
      "v": 27,
      "creates": null,
      "raw": "0xf86d56850d9ddd174782520894120a270bbc009644e35f0bb6ab13f95b8199c4ad895150ae84a8cdf00000801ba082768d36dc80d94eb0403a55d9b570e93169f3588a53991cbbb1b02bf9bcaf35a057c066488b2ad2ec3703addeb04bc1080d02ab52198a790ff50f47dcc5ac7b32",
      "networkId": 0,
      "chainId": 0
    }
  ]
}