{
  "hash": "0x61becbc6499df07e6ad90389bfaa31eab31864dd050754886e692fa5359ac666",
  "parentHash": "0x2ffbba88a280371f9778e19cdbb33b5142fba3025dd77a69cb618706d83749c7",
  "number": 95592,
  "timestamp": 1439726243,
  "nonce": "0x13ad217416b79def",
  "difficulty": 3632141103762,
  "gasLimit": {
    "_hex": "0x2fefd8"
  },
  "gasUsed": {
    "_hex": "0x5208"
  },
  "miner": "0xe6A7a1d47ff21B6321162AEA7C6CB457D5476Bca",
  "extraData": "0x476574682f76312e302e312d38326566323666362f6c696e75782f676f312e34",
  "transactions": [
    {
      "hash": "0x3b5620ad7b10f14ef4bd074c241f46a9f7035c9370cca8b3f3ffdd73fe88dfd4",
      "blockHash": "0x61becbc6499df07e6ad90389bfaa31eab31864dd050754886e692fa5359ac666",
      "blockNumber": 95592,
      "transactionIndex": 0,
      "confirmations": null,
      "from": "0x33F36DffD23cf019833E1d59cBc7138824b12289",
      "gasPrice": {
        "_hex": "0x746a528800"
      },
      "gasLimit": {
        "_hex": "0x5267"
      },
      "to": "0x117D2945355d346cE6637d6D5CC9A9E46CB43B73",
      "value": {
        "_hex": "0x46c6d6faa27e0000"
      },
      "nonce": 7,
      "data": "0x",
      "r": "0x048841e1374963e7a54a2a9a96f5882ae94d88e52c27f1dcd1720cceda25c924",
      "s": "0x2296c23c5efcf0dec2ecfb791142ff52b7ba703fdfc7d51b5d4a736ad77efc56",
      "v": 28,
      "creates": null,
      "raw": "0xf86c0785746a52880082526794117d2945355d346ce6637d6d5cc9a9e46cb43b738846c6d6faa27e0000801ca0048841e1374963e7a54a2a9a96f5882ae94d88e52c27f1dcd1720cceda25c924a02296c23c5efcf0dec2ecfb791142ff52b7ba703fdfc7d51b5d4a736ad77efc56",
      "networkId": 0,
      "chainId": 0
    }
  ]
}