{
  "hash": "0x45011d783e9940c8c2a2c6d1dc3884c7d2fc1cb4f7739aff89005c139db2adab",
  "parentHash": "0xf450ff6ce065be6fbc4292ac47a56d177b37cf5183f02536fc7180c58ca1db15",
  "number": 64094,
  "timestamp": 1439215115,
  "nonce": "0x7e8a2885e54560d6",
  "difficulty": 1863914179672,
  "gasLimit": {
    "_hex": "0x2fefd8"
  },
  "gasUsed": {
    "_hex": "0x54b55"
  },
  "miner": "0xf927a40C8B7F6E07c5af7FA2155B4864a4112B13",
  "extraData": "0x",
  "transactions": [
    {
      "hash": "0xe0b6ff120ad278b854c709b610d4d757382b2d3486c309a6aaeba908f7a65e84",
      "blockHash": "0x45011d783e9940c8c2a2c6d1dc3884c7d2fc1cb4f7739aff89005c139db2adab",
      "blockNumber": 64094,
      "transactionIndex": 0,
      "confirmations": null,
      "from": "0xe043F7B6fc487e0Ad927C9bEcd1D586F30eE1639",
      "gasPrice": {
        "_hex": "0xdcc43b08d"
      },
      "gasLimit": {
        "_hex": "0x7a120"
      },
      "to": "0xfBc128067A2FE13C11BBC6cc55f29AA1F27630DA",
      "value": {
        "_hex": "0xde0b6b3a7640000"
      },
      "nonce": 1,
      "data": "0x",
      "r": "0x946c734c08fa51ebd5e60dd565fcc980413d1b76bfcb8b5977d3a32f1959939a",
      "s": "0x14d5f27ce7dd12210bf4895db69c5f262562435c5d06d03f4eb3448e7888302e",
      "v": 28,
      "creates": null,
      "raw": "0xf86d01850dcc43b08d8307a12094fbc128067a2fe13c11bbc6cc55f29aa1f27630da880de0b6b3a7640000801ca0946c734c08fa51ebd5e60dd565fcc980413d1b76bfcb8b5977d3a32f1959939aa014d5f27ce7dd12210bf4895db69c5f262562435c5d06d03f4eb3448e7888302e",
      "networkId": 0,
      "chainId": 0
    },
    {
      "hash": "0x098f7073a46da3934eba59e8921a7407a8c76638e5c109f0be486c0573162aa8",
      "blockHash": "0x45011d783e9940c8c2a2c6d1dc3884c7d2fc1cb4f7739aff89005c139db2adab",
      "blockNumber": 64094,
      "transactionIndex": 1,
      "confirmations": null,
      "from": "0x828B10061A800ddd5F632023F3A56C58065F5f90",
      "gasPrice": {
        "_hex": "0xdca025c9c"
      },
      "gasLimit": {
        "_hex": "0x15f90"
      },
      "to": "0x793AE8C1b1a160BFc07BFB0d04F85eab1A71F4f2",
      "value": {
        "_hex": "0x0"
      },
      "nonce": 2,
      "data": "0x3ba15036",
      "r": "0x08ac35e895c26fa31aad667d294205a8c235a5aff7dac54286ff3d9cc6f54f26",
      "s": "0x13fde88cb311d3d1972bc9045d69cbaf946100055d8859e7dba7ea072d7b5139",
      "v": 28,
      "creates": null,
      "raw": "0xf86902850dca025c9c83015f9094793ae8c1b1a160bfc07bfb0d04f85eab1a71f4f280843ba150361ca008ac35e895c26fa31aad667d294205a8c235a5aff7dac54286ff3d9cc6f54f26a013fde88cb311d3d1972bc9045d69cbaf946100055d8859e7dba7ea072d7b5139",
      "networkId": 0,
      "chainId": 0
    }
  ]
}