{
  "hash": "0x1b65cddd1b4dcc1854fe552f06f1ad597573eaabf4810156f215891965c0550e",
  "parentHash": "0x2a94dfe33f927e8406d8c28057c9c05a0aa73f8689eba8d8652e186c52f79ad1",
  "number": 50532,
  "timestamp": 1438990768,
  "nonce": "0x36cbe2834d5ddf1d",
  "difficulty": 1516321842585,
  "gasLimit": {
    "_hex": "0x6852f"
  },
  "gasUsed": {
    "_hex": "0x546c"
  },
  "miner": "0x06D138312754bDEB5c1175f47cE00620c480E9C9",
  "extraData": "0x476574682f76312e302e312f6c696e75782f676f312e342e32",
  "transactions": [
    {
      "hash": "0x9bd6565ef2c8b69aeeea5c4054b1f8775f8cd14029418f72cc58a2634dc004ff",
      "blockHash": "0x1b65cddd1b4dcc1854fe552f06f1ad597573eaabf4810156f215891965c0550e",
      "blockNumber": 50532,
      "transactionIndex": 0,
      "confirmations": null,
      "from": "0x9cB28Ac1A20A106f7F373692C5Ce4C73f13732A1",
      "gasPrice": {
        "_hex": "0x110c8f7d8de"
      },
      "gasLimit": {
        "_hex": "0xc350"
      },
      "to": "0x2910543Af39abA0Cd09dBb2D50200b3E800A63D2",
      "value": {
        "_hex": "0x30c89f0a201e060000"
      },
      "nonce": 1,
      "data": "0x454e55564159363430",
      "r": "0x62d97f55ea77123bb60e3b108e5899f4fbf1ee42e8c4340ab254377d1b7915a0",
      "s": "0x729dc7c22d07c5ba530bf5932cab58781894e0c96a5f22a7e931a8f2647f8c7e",
      "v": 28,
      "creates": null,
      "raw": "0xf87701860110c8f7d8de82c350942910543af39aba0cd09dbb2d50200b3e800a63d28930c89f0a201e06000089454e555641593634301ca062d97f55ea77123bb60e3b108e5899f4fbf1ee42e8c4340ab254377d1b7915a0a0729dc7c22d07c5ba530bf5932cab58781894e0c96a5f22a7e931a8f2647f8c7e",
      "networkId": 0,
      "chainId": 0
    }
  ]
}