{
  "hash": "0xed2187ec7ef4415a7de73d7525655f72849cbd3225c37978cbc02eb4427e6696",
  "parentHash": "0xa8c94a47c71384f32daa6a657f1076e3751f1e64fab1d4ab591678c13fad2189",
  "number": 68185,
  "timestamp": 1439283924,
  "nonce": "0xbce09a1907c1d696",
  "difficulty": 1972535753898,
  "gasLimit": {
    "_hex": "0x2fefd8"
  },
  "gasUsed": {
    "_hex": "0x5208"
  },
  "miner": "0x52Dc504a422f0E2A9e7632A34a50f1a82F8224c7",
  "extraData": "0x476574682f76312e302e312f6c696e75782f676f312e342e32",
  "transactions": [
    {
      "hash": "0xa40703f656277fc8e30c17f009cffee8b3bef9074350ff98ec42b25764e44999",
      "blockHash": "0xed2187ec7ef4415a7de73d7525655f72849cbd3225c37978cbc02eb4427e6696",
      "blockNumber": 68185,
      "transactionIndex": 0,
      "confirmations": null,
      "from": "0x32Be343B94f860124dC4fEe278FDCBD38C102D88",
      "gasPrice": {
        "_hex": "0xce688313f"
      },
      "gasLimit": {
        "_hex": "0x5208"
      },
      "to": "0x9c344098BA615A398F11D009905b177C44a7b602",
      "value": {
        "_hex": "0xd8d726b7177a80000"
      },
      "nonce": 220,
      "data": "0x",
      "r": "0x0344747043cfd807b36658a355318666bc2dc7f6bb3236fdabef45631571726c",
      "s": "0x7d248c6e55c10482527256acea61237bbf1ba278dde2e87a03c734f9d336faa3",
      "v": 28,
      "creates": null,
      "raw": "0xf86e81dc850ce688313f825208949c344098ba615a398f11d009905b177c44a7b602890d8d726b7177a80000801ca00344747043cfd807b36658a355318666bc2dc7f6bb3236fdabef45631571726ca07d248c6e55c10482527256acea61237bbf1ba278dde2e87a03c734f9d336faa3",
      "networkId": 0,
      "chainId": 0
    }
  ]
}