{
  "hash": "0x3f90d7f423219b04bdb3a0e234d2fbbe4f37f10bbdcb06dced1a7c176e17a4e9",
  "parentHash": "0x5bfa80f03dbcc8f58d7eea1f6db2a2921aafeb2245936c47fd35e9e96c54a5ed",
  "number": 88164,
  "timestamp": 1439603705,
  "nonce": "0x5d4bbbfd88c3c1aa",
  "difficulty": 3205061325085,
  "gasLimit": {
    "_hex": "0x2fefd8"
  },
  "gasUsed": {
    "_hex": "0x5208"
  },
  "miner": "0x47ff6576639c2e94762eA5443978D7681C0E78DC",
  "extraData": "0x476574682f76312e302e312f6c696e75782f676f312e342e32",
  "transactions": [
    {
      "hash": "0x616ad5a534575d66155f09357d2532fefb0ca58b1498e939e644c0d0f0d508b1",
      "blockHash": "0x3f90d7f423219b04bdb3a0e234d2fbbe4f37f10bbdcb06dced1a7c176e17a4e9",
      "blockNumber": 88164,
      "transactionIndex": 0,
      "confirmations": null,
      "from": "0x566B3E44014f2a2587e054AdFA915861AE82Fe39",
      "gasPrice": {
        "_hex": "0xba43b7400"
      },
      "gasLimit": {
        "_hex": "0x5208"
      },
      "to": "0xC47Aaa860008be6f65B58c6C6E02a84e666EfE31",
      "value": {
        "_hex": "0x397c01c6a789ee710"
      },
      "nonce": 4,
      "data": "0x",
      "r": "0xa46db013583555ff5e3572040a8992053cb26353d30afbd612391b44fbff7de8",
      "s": "0x4be9688b9d22b5f874172bb7c7302cd53762fca6425166eefb9ac30c969f3cbb",
      "v": 28,
      "creates": null,
      "raw": "0xf86d04850ba43b740082520894c47aaa860008be6f65b58c6c6e02a84e666efe31890397c01c6a789ee710801ca0a46db013583555ff5e3572040a8992053cb26353d30afbd612391b44fbff7de8a04be9688b9d22b5f874172bb7c7302cd53762fca6425166eefb9ac30c969f3cbb",
      "networkId": 0,
      "chainId": 0
    }
  ]
}