{
  "hash": "0x4f40f5a9ae380e743bb4768d95e11e626178d639a0c6b1486b489cd0d17c414e",
  "parentHash": "0x4873546079b9df727c66d51eb7fb2ed2baf08101644d2e1d6fb29c4e1f9e6287",
  "number": 102335,
  "timestamp": 1439836380,
  "nonce": "0x512068b53dac6b62",
  "difficulty": 3945258910451,
  "gasLimit": {
    "_hex": "0x2fefd8"
  },
  "gasUsed": {
    "_hex": "0x5208"
  },
  "miner": "0x007f7f58D3eb5b7510A301eCC749FC1fCDDBE14D",
  "extraData": "0x476574682f76312e302e312f77696e646f77732f676f312e342e32",
  "transactions": [
    {
      "hash": "0x23516978aeb6fa6f499245428905ea1e3c6ac4c006ee94b33698f21f4a578266",
      "blockHash": "0x4f40f5a9ae380e743bb4768d95e11e626178d639a0c6b1486b489cd0d17c414e",
      "blockNumber": 102335,
      "transactionIndex": 0,
      "confirmations": null,
      "from": "0xd70c667add50d3d9989Ef58A81a698c09f415Bff",
      "gasPrice": {
        "_hex": "0xd8e590db8"
      },
      "gasLimit": {
        "_hex": "0x15f90"
      },
      "to": "0x853Bff007d269E0526E871360d79d69D602770dc",
      "value": {
        "_hex": "0x257853b1dd8e00000"
      },
      "nonce": 16,
      "data": "0x",
      "r": "0xea705f02e872a332ba9a3aa2148eab451ec728321fd68ce30161abc475dc9c69",
      "s": "0x7b09ac75d2a56c8807da88c62b560c584ea60dc2736df0a9b199b28abe82d502",
      "v": 28,
      "creates": null,
      "raw": "0xf86e10850d8e590db883015f9094853bff007d269e0526e871360d79d69d602770dc890257853b1dd8e00000801ca0ea705f02e872a332ba9a3aa2148eab451ec728321fd68ce30161abc475dc9c69a07b09ac75d2a56c8807da88c62b560c584ea60dc2736df0a9b199b28abe82d502",
      "networkId": 0,
      "chainId": 0
    }
  ]
}