{
  "hash": "0x4c98c9b3bd32f5004e82c1101c72a2b4dc1de9f78f687bdc607139b8b715ac14",
  "parentHash": "0x58480a62467ce3a691d9d0962f61e33282e234075b573f528d7095f3e5ef2501",
  "number": 81702,
  "timestamp": 1439506241,
  "nonce": "0xb970bad707229b5d",
  "difficulty": 2433022582565,
  "gasLimit": {
    "_hex": "0x2fefd8"
  },
  "gasUsed": {
    "_hex": "0x5208"
  },
  "miner": "0xe6A7a1d47ff21B6321162AEA7C6CB457D5476Bca",
  "extraData": "0x476574682f76312e302e312d38326566323666362f6c696e75782f676f312e34",
  "transactions": [
    {
      "hash": "0xdcd66fc192adc6ec1b0f96e19bff92ff55c7a099970c3e1426d34448c3f26534",
      "blockHash": "0x4c98c9b3bd32f5004e82c1101c72a2b4dc1de9f78f687bdc607139b8b715ac14",
      "blockNumber": 81702,
      "transactionIndex": 0,
      "confirmations": null,
      "from": "0x6625997D5DDC109B93B0e6dD488f416D8592Cd25",
      "gasPrice": {
        "_hex": "0xd471793d2"
      },
      "gasLimit": {
        "_hex": "0x5208"
      },
      "to": "0x32Be343B94f860124dC4fEe278FDCBD38C102D88",
      "value": {
        "_hex": "0x8ac2d7132883d000"
      },
      "nonce": 0,
      "data": "0x",
      "r": "0xd116a5e1e48f7e89da28b465428bac7862b505304d8fe681c7949657de6310ed",
      "s": "0x0fa6b6afb735026245197db408fa74bea375ac77e1c6f06621442ee91808a7c1",
      "v": 28,
      "creates": null,
      "raw": "0xf86c80850d471793d28252089432be343b94f860124dc4fee278fdcbd38c102d88888ac2d7132883d000801ca0d116a5e1e48f7e89da28b465428bac7862b505304d8fe681c7949657de6310eda00fa6b6afb735026245197db408fa74bea375ac77e1c6f06621442ee91808a7c1",
      "networkId": 0,
      "chainId": 0
    }
  ]
}