{
  "hash": "0x5b3f05987b69a4d5cfb8abed0b48a0849b21b6313ec09ad189b415dbbb92c4db",
  "parentHash": "0x2f571cb815c2d94c8e48bf697799e545c368029e8b096a730ef5e650874fbbad",
  "number": 119417,
  "timestamp": 1440142508,
  "nonce": "0x97f2d6e116df77f6",
  "difficulty": 4396592548421,
  "gasLimit": {
    "_hex": "0x2ff5c5"
  },
  "gasUsed": {
    "_hex": "0xf618"
  },
  "miner": "0xe6A7a1d47ff21B6321162AEA7C6CB457D5476Bca",
  "extraData": "0xd783010002844765746887676f312e342e32856c696e7578",
  "transactions": [
    {
      "hash": "0x6d0f4ec8f4fd96a03382645b541fd3a6e8e202c5d522cbbc94528f61b847fad1",
      "blockHash": "0x5b3f05987b69a4d5cfb8abed0b48a0849b21b6313ec09ad189b415dbbb92c4db",
      "blockNumber": 119417,
      "transactionIndex": 0,
      "confirmations": null,
      "from": "0xC711d87af18Db9a7EbE2CFB279b73c8785E55d41",
      "gasPrice": {
        "_hex": "0xba43b7400"
      },
      "gasLimit": {
        "_hex": "0x5208"
      },
      "to": "0x32Be343B94f860124dC4fEe278FDCBD38C102D88",
      "value": {
        "_hex": "0x206f917439c4a800"
      },
      "nonce": 10,
      "data": "0x",
      "r": "0xe31f3ee08f4db8c4868ad6c2233f848a9b6ed17bea7a3e1be29f6e473274852c",
      "s": "0x28c6f2a53371ebd0ef9d3a839bd878b6c2ea3c6d133824dee88f54fb53d94b58",
      "v": 27,
      "creates": null,
      "raw": "0xf86c0a850ba43b74008252089432be343b94f860124dc4fee278fdcbd38c102d8888206f917439c4a800801ba0e31f3ee08f4db8c4868ad6c2233f848a9b6ed17bea7a3e1be29f6e473274852ca028c6f2a53371ebd0ef9d3a839bd878b6c2ea3c6d133824dee88f54fb53d94b58",
      "networkId": 0,
      "chainId": 0
    },
    {
      "hash": "0x16e9c503e6255d9ee2187cdfccccfc7fe17645fe8ffa00c8dcb98de49247ee17",
      "blockHash": "0x5b3f05987b69a4d5cfb8abed0b48a0849b21b6313ec09ad189b415dbbb92c4db",
      "blockNumber": 119417,
      "transactionIndex": 1,
      "confirmations": null,
      "from": "0x52bc44d5378309EE2abF1539BF71dE1b7d7bE3b5",
      "gasPrice": {
        "_hex": "0xba43b7400"
      },
      "gasLimit": {
        "_hex": "0x61a8"
      },
      "to": "0xe048E0bc2e2ED7dE8756842f80C887beD6daed40",
      "value": {
        "_hex": "0x455cdefaa2448e00"
      },
      "nonce": 608,
      "data": "0x",
      "r": "0x6ea93c8973369b392b1f61f73ac6ad6de45c5642f2697d94e75024e7e7d27f37",
      "s": "0x09e5043f132b0cb6fac27cf47bfbe43a8da372b288cf485536290190272ca2fd",
      "v": 27,
      "creates": null,
      "raw": "0xf86e820260850ba43b74008261a894e048e0bc2e2ed7de8756842f80c887bed6daed4088455cdefaa2448e00801ba06ea93c8973369b392b1f61f73ac6ad6de45c5642f2697d94e75024e7e7d27f37a009e5043f132b0cb6fac27cf47bfbe43a8da372b288cf485536290190272ca2fd",
      "networkId": 0,
      "chainId": 0
    },
    {
      "hash": "0x4114f03d9153fdb6250a53502d8af097eb35e70d8d9bf3c82f85b761600754c9",
      "blockHash": "0x5b3f05987b69a4d5cfb8abed0b48a0849b21b6313ec09ad189b415dbbb92c4db",
      "blockNumber": 119417,
      "transactionIndex": 2,
      "confirmations": null,
      "from": "0x463eADDDA71F29F36365F889EA7E6fcDBe1cF0c8",
      "gasPrice": {
        "_hex": "0xba43b7400"
      },
      "gasLimit": {
        "_hex": "0x5208"
      },
      "to": "0x32Be343B94f860124dC4fEe278FDCBD38C102D88",
      "value": {
        "_hex": "0x1b6994de39ad92000"
      },
      "nonce": 10,
      "data": "0x",
      "r": "0xa142f0de412317b98b9f93272efd65a21292717115a27831e495d5b8ee0992bf",
      "s": "0x02e11598c452f6824a3abdcb031e154eab7aca7c4874b2ac14c537c037f0d440",
      "v": 28,
      "creates": null,
      "raw": "0xf86d0a850ba43b74008252089432be343b94f860124dc4fee278fdcbd38c102d888901b6994de39ad92000801ca0a142f0de412317b98b9f93272efd65a21292717115a27831e495d5b8ee0992bfa002e11598c452f6824a3abdcb031e154eab7aca7c4874b2ac14c537c037f0d440",
      "networkId": 0,
      "chainId": 0
    }
  ]
}