{
  "hash": "0x6138f53d0523e74a47380138ceab98a1533de7e479c65da8ec5035d3c7abca9a",
  "parentHash": "0xb0c4c04273f606833f80c70d1108cbf01b579101a18cb36d43ad2b14902cf7bf",
  "number": 54036,
  "timestamp": 1439047608,
  "nonce": "0x6248c4cd83f3fc60",
  "difficulty": 1610293937619,
  "gasLimit": {
    "_hex": "0x2fefd8"
  },
  "gasUsed": {
    "_hex": "0x5208"
  },
  "miner": "0x108b54b7E3c09F8127CB8B28ffA3AD4001b32998",
  "extraData": "0x476574682f76312e302e312f6c696e75782f676f312e342e32",
  "transactions": [
    {
      "hash": "0xf024fae463e68d1211123b94810ba6aa73dce8a1064e507f766eab3328fe6447",
      "blockHash": "0x6138f53d0523e74a47380138ceab98a1533de7e479c65da8ec5035d3c7abca9a",
      "blockNumber": 54036,
      "transactionIndex": 0,
      "confirmations": null,
      "from": "0xa14Cf6cEC1c6aAe4b608458F6e14692863A937Aa",
      "gasPrice": {
        "_hex": "0xd2f9685eb"
      },
      "gasLimit": {
        "_hex": "0x15f90"
      },
      "to": "0xF10661FF94140F203E7A482572437938BEc9C3F7",
      "value": {
        "_hex": "0xae56f730e6d840000"
      },
      "nonce": 3,
      "data": "0x",
      "r": "0xe8ae692ee1a2126c73f43b5b7a8e482911d9f6d50a8887825ec9a0a5db47bb0b",
      "s": "0x69071dedec6d8e058e4e24a58ab359275dcd41bb05c301ead3df5720a6d1ec58",
      "v": 28,
      "creates": null,
      "raw": "0xf86e03850d2f9685eb83015f9094f10661ff94140f203e7a482572437938bec9c3f7890ae56f730e6d840000801ca0e8ae692ee1a2126c73f43b5b7a8e482911d9f6d50a8887825ec9a0a5db47bb0ba069071dedec6d8e058e4e24a58ab359275dcd41bb05c301ead3df5720a6d1ec58",
      "networkId": 0,
      "chainId": 0
    }
  ]
}