{
  "hash": "0xdc31b2e4af62373b9228fad9deacb5cc7f531207bd07ba01cc008cd87b0bbd84",
  "parentHash": "0xa7f1e81d7de7512ec6cb81ff3207436b9d17e0830d6bfefdfdbecef71e5aafa4",
  "number": 113428,
  "timestamp": 1440023393,
  "nonce": "0xb75e1d6e02be5edd",
  "difficulty": 4462476682956,
  "gasLimit": {
    "_hex": "0x2fefd8"
  },
  "gasUsed": {
    "_hex": "0x5208"
  },
  "miner": "0xb6E2d440C46510EC44266A3f58165E3956173df0",
  "extraData": "0x476574682f76312e302e312f77696e646f77732f676f312e342e32",
  "transactions": [
    {
      "hash": "0xbe98140142a1cfc51e2e297de97a68e892c7f3c7ee51a331fe1685971f84e411",
      "blockHash": "0xdc31b2e4af62373b9228fad9deacb5cc7f531207bd07ba01cc008cd87b0bbd84",
      "blockNumber": 113428,
      "transactionIndex": 0,
      "confirmations": null,
      "from": "0x3dFAF9b00A9B8d9412f4a4Cf734349004e699Def",
      "gasPrice": {
        "_hex": "0xdb1a6ff8f"
      },
      "gasLimit": {
        "_hex": "0x5208"
      },
      "to": "0x32Be343B94f860124dC4fEe278FDCBD38C102D88",
      "value": {
        "_hex": "0x8e2efdac9591800"
      },
      "nonce": 0,
      "data": "0x",
      "r": "0xb8ae06b3df94402c96e97b7db363054da41c2a03bcdeb2f9e9013115633e969b",
      "s": "0x34d6ca337c59e7be8d91e589513f4f8487da85f8512708d9828345c9e84bee10",
      "v": 28,
      "creates": null,
      "raw": "0xf86c80850db1a6ff8f8252089432be343b94f860124dc4fee278fdcbd38c102d888808e2efdac9591800801ca0b8ae06b3df94402c96e97b7db363054da41c2a03bcdeb2f9e9013115633e969ba034d6ca337c59e7be8d91e589513f4f8487da85f8512708d9828345c9e84bee10",
      "networkId": 0,
      "chainId": 0
    }
  ]
}