{
  "hash": "0xf66ecc55de446e7f809edd6a58d5add045f67b1fe509e7eef688691476bec122",
  "parentHash": "0xca6c9cc0c09ff0767a8355cfcc9848134c7e8accdcd6f59e7a333b5f50fd7bf9",
  "number": 104833,
  "timestamp": 1439876611,
  "nonce": "0x860e86b1e74468be",
  "difficulty": 4348683062718,
  "gasLimit": {
    "_hex": "0x2fefd8"
  },
  "gasUsed": {
    "_hex": "0x5208"
  },
  "miner": "0xbb7B8287f3F0a933474a79eAe42CBCa977791171",
  "extraData": "0x476574682f4c5649562f76312e302e312f6c696e75782f676f312e342e32",
  "transactions": [
    {
      "hash": "0x9a8e1d172bd27e3b07652a79283ec8836ef36aae71d6b2b619fa67b3ef1d54be",
      "blockHash": "0xf66ecc55de446e7f809edd6a58d5add045f67b1fe509e7eef688691476bec122",
      "blockNumber": 104833,
      "transactionIndex": 0,
      "confirmations": null,
      "from": "0x120A270bbC009644e35F0bB6ab13f95b8199c4ad",
      "gasPrice": {
        "_hex": "0xdca48d51f"
      },
      "gasLimit": {
        "_hex": "0x3d090"
      },
      "to": "0xCA092A957744f6385B1aee5dC694143E8A06F805",
      "value": {
        "_hex": "0x9154048457e4000"
      },
      "nonce": 760,
      "data": "0x",
      "r": "0x78b251222247432e440f41e2f9448cc6710a8af31122b8398561938bedd05b32",
      "s": "0x469f665dce5247fbac4df3557a7f96d5d6a29e3f045d0dfd88815fd7bc88bdba",
      "v": 27,
      "creates": null,
      "raw": "0xf86f8202f8850dca48d51f8303d09094ca092a957744f6385b1aee5dc694143e8a06f8058809154048457e4000801ba078b251222247432e440f41e2f9448cc6710a8af31122b8398561938bedd05b32a0469f665dce5247fbac4df3557a7f96d5d6a29e3f045d0dfd88815fd7bc88bdba",
      "networkId": 0,
      "chainId": 0
    }
  ]
}