{
  "hash": "0x3c91e0c2bd26ae7926c9f69d7230390978ea0d34209d2d91706acf70b4ed6b28",
  "parentHash": "0x8aeb4eb00a8ef51b2c37b83b9acc52a598f9255b7a5e4c13d6c83ce21d1230ee",
  "number": 113466,
  "timestamp": 1440023948,
  "nonce": "0xe796c7144b6e1f13",
  "difficulty": 4466816464740,
  "gasLimit": {
    "_hex": "0x2fefd8"
  },
  "gasUsed": {
    "_hex": "0x5208"
  },
  "miner": "0x580992B51e3925e23280EfB93d3047C82f17E038",
  "extraData": "0x476574682f76312e302e312f6c696e75782f676f312e342e32",
  "transactions": [
    {
      "hash": "0xe075d11b83c0a4089b4155ab84a0bd9ad309c107cb5b8786c4a24fa14657dad7",
      "blockHash": "0x3c91e0c2bd26ae7926c9f69d7230390978ea0d34209d2d91706acf70b4ed6b28",
      "blockNumber": 113466,
      "transactionIndex": 0,
      "confirmations": null,
      "from": "0x1f1f1f6FAA77a31e6c9aeF1eF25A6F6819177EEB",
      "gasPrice": {
        "_hex": "0xba43b7400"
      },
      "gasLimit": {
        "_hex": "0x5265"
      },
      "to": "0x444444D6470A1BAEcc6b52321e1Ebb9f401646DD",
      "value": {
        "_hex": "0xdd2d5fcf3bc9c0000"
      },
      "nonce": 3,
      "data": "0x",
      "r": "0xb8c2f2873fcf7c1adf67d060ca7a6427b6230d2338692d927b367f908315e09c",
      "s": "0x20be2c025375a42b817e0621344928d289dbfde94303ecb030a7493ce32ef3c2",
      "v": 28,
      "creates": null,
      "raw": "0xf86d03850ba43b740082526594444444d6470a1baecc6b52321e1ebb9f401646dd890dd2d5fcf3bc9c0000801ca0b8c2f2873fcf7c1adf67d060ca7a6427b6230d2338692d927b367f908315e09ca020be2c025375a42b817e0621344928d289dbfde94303ecb030a7493ce32ef3c2",
      "networkId": 0,
      "chainId": 0
    }
  ]
}