{
  "hash": "0xc8c800cd4058629af762f611089899df003b2d8bc3453d2a2caf396ce297c361",
  "parentHash": "0x31a715a81c44349137a31f1a9bb4dfa8dab483218297bd1fef085b4b25b889ac",
  "number": 102769,
  "timestamp": 1439842898,
  "nonce": "0x35476eba0ee829ab",
  "difficulty": 4046504703610,
  "gasLimit": {
    "_hex": "0x2fefd8"
  },
  "gasUsed": {
    "_hex": "0x5208"
  },
  "miner": "0x21344BC13b25b709ec441c39C070d1eca5824cA3",
  "extraData": "0x",
  "transactions": [
    {
      "hash": "0xb4448afe7703289d030b30528d6ba733035fb6ac55c366ee1f1de7490e5d804e",
      "blockHash": "0xc8c800cd4058629af762f611089899df003b2d8bc3453d2a2caf396ce297c361",
      "blockNumber": 102769,
      "transactionIndex": 0,
      "confirmations": null,
      "from": "0x96dadE6c87E483acb081E9f669B4fc029a440E8B",
      "gasPrice": {
        "_hex": "0xd286d09c6"
      },
      "gasLimit": {
        "_hex": "0x5208"
      },
      "to": "0x55D1554b08a5311C5c0A0B6464162192f9D2f884",
      "value": {
        "_hex": "0x8700cc75770000"
      },
      "nonce": 4,
      "data": "0x",
      "r": "0xf3a8b503bad5b1d44de4f41206ea930ef77d808ccf0b458de95e04d5469ac9af",
      "s": "0x4980b99e9c9c7f14077a65ae239d7c05798b7adb85b17bc77b86e0057c14792d",
      "v": 27,
      "creates": null,
      "raw": "0xf86b04850d286d09c68252089455d1554b08a5311c5c0a0b6464162192f9d2f884878700cc75770000801ba0f3a8b503bad5b1d44de4f41206ea930ef77d808ccf0b458de95e04d5469ac9afa04980b99e9c9c7f14077a65ae239d7c05798b7adb85b17bc77b86e0057c14792d",
      "networkId": 0,
      "chainId": 0
    }
  ]
}