{
  "hash": "0x90d0df80f86a14d17a15f184bc5977938c7d2c2db7a13b1dcc2eec7651d35816",
  "parentHash": "0xb57b6f68220351928299dd03c16d439fb0077a28bb14cac91d7c2bc8971546b0",
  "number": 118391,
  "timestamp": 1440125252,
  "nonce": "0xbd6befb543f71036",
  "difficulty": 4299467550455,
  "gasLimit": {
    "_hex": "0x2fefd8"
  },
  "gasUsed": {
    "_hex": "0x5208"
  },
  "miner": "0xa70a9a7040d542C632D8e0bE7c5513A8a5Bbc752",
  "extraData": "0x",
  "transactions": [
    {
      "hash": "0xf77285ad363ff25ab5364bf18fc7b56c4954e43b360c4f4c7b2efa1f56ad1c74",
      "blockHash": "0x90d0df80f86a14d17a15f184bc5977938c7d2c2db7a13b1dcc2eec7651d35816",
      "blockNumber": 118391,
      "transactionIndex": 0,
      "confirmations": null,
      "from": "0x1c11Aa45C792e202e9ffDc2F12f99D0d209BEf70",
      "gasPrice": {
        "_hex": "0xba43b7400"
      },
      "gasLimit": {
        "_hex": "0x15f90"
      },
      "to": "0x001aA0CB9c5fA098a119070024460feBb868742D",
      "value": {
        "_hex": "0x2540be400"
      },
      "nonce": 29,
      "data": "0x",
      "r": "0x3bdb0c060a4f7f5aa927cfe892f03835a185458be19c7244f3336487cb7133ac",
      "s": "0x44e5d708a9ba3bd733781d64dc15886966a3285c3af4ea532d304243f70d954a",
      "v": 27,
      "creates": null,
      "raw": "0xf86a1d850ba43b740083015f9094001aa0cb9c5fa098a119070024460febb868742d8502540be400801ba03bdb0c060a4f7f5aa927cfe892f03835a185458be19c7244f3336487cb7133aca044e5d708a9ba3bd733781d64dc15886966a3285c3af4ea532d304243f70d954a",
      "networkId": 0,
      "chainId": 0
    }
  ]
}