{
  "hash": "0x27060b274e068f6a74689123aa61b3591e4fe664c6df4216038da967ab81ea04",
  "parentHash": "0xd00d04380d60f688bb492f60d8c95311989f9d864a2e5ec32ca29e3a5d917a81",
  "number": 89820,
  "timestamp": 1439629652,
  "nonce": "0xea4f9525b9d829f5",
  "difficulty": 3338592937477,
  "gasLimit": {
    "_hex": "0x2fefd8"
  },
  "gasUsed": {
    "_hex": "0x19a28"
  },
  "miner": "0xe6A7a1d47ff21B6321162AEA7C6CB457D5476Bca",
  "extraData": "0x476574682f76312e302e312d38326566323666362f6c696e75782f676f312e34",
  "transactions": [
    {
      "hash": "0xa326501c92375446ce543472a4af9b93e5624c31f7d84dfe8d867abffa574f1b",
      "blockHash": "0x27060b274e068f6a74689123aa61b3591e4fe664c6df4216038da967ab81ea04",
      "blockNumber": 89820,
      "transactionIndex": 0,
      "confirmations": null,
      "from": "0xc7704Fc5c51C7a5f1a6574b0014b58C8915BA55C",
      "gasPrice": {
        "_hex": "0xcfd876401"
      },
      "gasLimit": {
        "_hex": "0x5208"
      },
      "to": "0x32Be343B94f860124dC4fEe278FDCBD38C102D88",
      "value": {
        "_hex": "0x28310a22aa1afa000"
      },
      "nonce": 3,
      "data": "0x",
      "r": "0x66a08446f90657fe25e9701f6fb86b2d23e3f773718b203a5e7a1d32af968930",
      "s": "0x0ed873f640c5d21c5a603563c3597c98ce36837a07f6d168541c23c76348f671",
      "v": 28,
      "creates": null,
      "raw": "0xf86d03850cfd8764018252089432be343b94f860124dc4fee278fdcbd38c102d8889028310a22aa1afa000801ca066a08446f90657fe25e9701f6fb86b2d23e3f773718b203a5e7a1d32af968930a00ed873f640c5d21c5a603563c3597c98ce36837a07f6d168541c23c76348f671",
      "networkId": 0,
      "chainId": 0
    },
    {
      "hash": "0xd2edabcc1594bd9081add6285f3dd602dbb1046c854ee5852ebe95ad038b5d38",
      "blockHash": "0x27060b274e068f6a74689123aa61b3591e4fe664c6df4216038da967ab81ea04",
      "blockNumber": 89820,
      "transactionIndex": 1,
      "confirmations": null,
      "from": "0x19aF4b2766b8115B49E1fd31Ae71CaA12E706A96",
      "gasPrice": {
        "_hex": "0xcfd876401"
      },
      "gasLimit": {
        "_hex": "0x5208"
      },
      "to": "0x32Be343B94f860124dC4fEe278FDCBD38C102D88",
      "value": {
        "_hex": "0xc0678ab7d2952800"
      },
      "nonce": 4,
      "data": "0x",
      "r": "0xd694744bb1ec75d5c405ee6d272c489e7026766e50b9d3b7becb39670702ab99",
      "s": "0x4bbadcfe5fc5b7a9596a2efa4a6b785b3b6746c72c80537588875c7e0f05f9d7",
      "v": 28,
      "creates": null,
      "raw": "0xf86c04850cfd8764018252089432be343b94f860124dc4fee278fdcbd38c102d8888c0678ab7d2952800801ca0d694744bb1ec75d5c405ee6d272c489e7026766e50b9d3b7becb39670702ab99a04bbadcfe5fc5b7a9596a2efa4a6b785b3b6746c72c80537588875c7e0f05f9d7",
      "networkId": 0,
      "chainId": 0
    },
    {
      "hash": "0x5befa92a47085b70cf03f5dbbff672a7ce10c3e776e40d736bccd177e8aabb1e",
      "blockHash": "0x27060b274e068f6a74689123aa61b3591e4fe664c6df4216038da967ab81ea04",
      "blockNumber": 89820,
      "transactionIndex": 2,
      "confirmations": null,
      "from": "0x1Fab7BE036A5C6A69b2B05D6e172FF4e5b2a5e6B",
      "gasPrice": {
        "_hex": "0xcfd876401"
      },
      "gasLimit": {
        "_hex": "0x5208"
      },
      "to": "0x32Be343B94f860124dC4fEe278FDCBD38C102D88",
      "value": {
        "_hex": "0x1a0d54523d3faf000"
      },
      "nonce": 3,
      "data": "0x",
      "r": "0x58a14520cab673afe11c6f56246b40ba96b58fc8f41e03175bb090a608ca44c9",
      "s": "0x43529fcdfb4a186cf2a1685fea1eba9c0d7f7f738d65a4ea75dae4dd70b48b0e",
      "v": 27,
      "creates": null,
      "raw": "0xf86d03850cfd8764018252089432be343b94f860124dc4fee278fdcbd38c102d888901a0d54523d3faf000801ba058a14520cab673afe11c6f56246b40ba96b58fc8f41e03175bb090a608ca44c9a043529fcdfb4a186cf2a1685fea1eba9c0d7f7f738d65a4ea75dae4dd70b48b0e",
      "networkId": 0,
      "chainId": 0
    },
    {
      "hash": "0xb9b123435de67b1b60bfe3992cc8d999d68a82ccb5a66c8a0306f5179d17dbad",
      "blockHash": "0x27060b274e068f6a74689123aa61b3591e4fe664c6df4216038da967ab81ea04",
      "blockNumber": 89820,
      "transactionIndex": 3,
      "confirmations": null,
      "from": "0xE6D67E3661E28eE2DfC1c68D5DeeA3C3bB880059",
      "gasPrice": {
        "_hex": "0xcd925c80e"
      },
      "gasLimit": {
        "_hex": "0x5208"
      },
      "to": "0x32Be343B94f860124dC4fEe278FDCBD38C102D88",
      "value": {
        "_hex": "0x133167d932111f000"
      },
      "nonce": 4,
      "data": "0x",
      "r": "0x2cdfb521c47c2f8caac2eb7e0193bf220a9f39ec93c4f0ef7b73d986481b0d5e",
      "s": "0x3350be92e2c372ffc9f2643aafebdf26bd4712c489423711061e4794e38beb05",
      "v": 27,
      "creates": null,
      "raw": "0xf86d04850cd925c80e8252089432be343b94f860124dc4fee278fdcbd38c102d88890133167d932111f000801ba02cdfb521c47c2f8caac2eb7e0193bf220a9f39ec93c4f0ef7b73d986481b0d5ea03350be92e2c372ffc9f2643aafebdf26bd4712c489423711061e4794e38beb05",
      "networkId": 0,
      "chainId": 0
    },
    {
      "hash": "0x7c183d08092356b6be711635ccd98b01adf41b45516455cc2967c5f92c43c653",
      "blockHash": "0x27060b274e068f6a74689123aa61b3591e4fe664c6df4216038da967ab81ea04",
      "blockNumber": 89820,
      "transactionIndex": 4,
      "confirmations": null,
      "from": "0x0912001e29BbaF75C23069A22D9B9602BE86FEB7",
      "gasPrice": {
        "_hex": "0xcd925c80e"
      },
      "gasLimit": {
        "_hex": "0x5208"
      },
      "to": "0x32Be343B94f860124dC4fEe278FDCBD38C102D88",
      "value": {
        "_hex": "0xec74a8c44985f0000"
      },
      "nonce": 3,
      "data": "0x",
      "r": "0x016aaf8c6192307e75e58bfba32bb35b421671a2352dc0e0442552162a9a67aa",
      "s": "0x5f236e537fc2ba165180b34cd38cd92cdfb9a868fde932018effec0ac16bd78f",
      "v": 27,
      "creates": null,
      "raw": "0xf86d03850cd925c80e8252089432be343b94f860124dc4fee278fdcbd38c102d88890ec74a8c44985f0000801ba0016aaf8c6192307e75e58bfba32bb35b421671a2352dc0e0442552162a9a67aaa05f236e537fc2ba165180b34cd38cd92cdfb9a868fde932018effec0ac16bd78f",
      "networkId": 0,
      "chainId": 0
    }
  ]
}