{
  "hash": "0x4f581e9da3b27f886661b35fc73ad927a1b155a7d814b7d1630bc1df343c3b6e",
  "parentHash": "0xaa55ea1e914be7f5ce4a0744e316488faeba1d127e371076efd746767ad9e07c",
  "number": 83597,
  "timestamp": 1439537823,
  "nonce": "0x703db1befee434da",
  "difficulty": 2440801363196,
  "gasLimit": {
    "_hex": "0x2fefd8"
  },
  "gasUsed": {
    "_hex": "0x5208"
  },
  "miner": "0xbb7B8287f3F0a933474a79eAe42CBCa977791171",
  "extraData": "0x476574682f4c5649562f76312e302e312f6c696e75782f676f312e342e32",
  "transactions": [
    {
      "hash": "0xcbedb72f56fd04ea119be3401968069a8a8b1d261f7b24a60bb2279643c870f2",
      "blockHash": "0x4f581e9da3b27f886661b35fc73ad927a1b155a7d814b7d1630bc1df343c3b6e",
      "blockNumber": 83597,
      "transactionIndex": 0,
      "confirmations": null,
      "from": "0x32Be343B94f860124dC4fEe278FDCBD38C102D88",
      "gasPrice": {
        "_hex": "0xdac6ee9c2"
      },
      "gasLimit": {
        "_hex": "0x5208"
      },
      "to": "0x8eB3FbB4A0Cc2366e88FB476df63D3Ad6907907b",
      "value": {
        "_hex": "0x228040f55cb450000"
      },
      "nonce": 656,
      "data": "0x",
      "r": "0xfa5970afd003ef1ff350382b0dc63539c8ceda6c4caf2acb90a183eb4c54e3ed",
      "s": "0x0eac4553b17c650bdc49b3d2653510ff7d6c9d31010ee41a037e7101d20b098f",
      "v": 27,
      "creates": null,
      "raw": "0xf86f820290850dac6ee9c2825208948eb3fbb4a0cc2366e88fb476df63d3ad6907907b890228040f55cb450000801ba0fa5970afd003ef1ff350382b0dc63539c8ceda6c4caf2acb90a183eb4c54e3eda00eac4553b17c650bdc49b3d2653510ff7d6c9d31010ee41a037e7101d20b098f",
      "networkId": 0,
      "chainId": 0
    }
  ]
}