{
  "hash": "0xd63d0911a4744c66fd1deb7b6d975371c575f499930fd0310d81fbf1201c1d35",
  "parentHash": "0x4c98c9b3bd32f5004e82c1101c72a2b4dc1de9f78f687bdc607139b8b715ac14",
  "number": 81703,
  "timestamp": 1439506257,
  "nonce": "0x3e740dae3ab820e0",
  "difficulty": 2431834583258,
  "gasLimit": {
    "_hex": "0x2fefd8"
  },
  "gasUsed": {
    "_hex": "0x5208"
  },
  "miner": "0x756C55cbfa47fd23c0260F958e65866E64c096CB",
  "extraData": "0x6d696e65644279436f727361726f31",
  "transactions": [
    {
      "hash": "0xe2d0c104e14f78633459137d867f4c52ffbe451854e032854f29c4091afcf982",
      "blockHash": "0xd63d0911a4744c66fd1deb7b6d975371c575f499930fd0310d81fbf1201c1d35",
      "blockNumber": 81703,
      "transactionIndex": 0,
      "confirmations": null,
      "from": "0x3D01cd9bD80e2165FFf6F863E0ddd402EbC4ae9c",
      "gasPrice": {
        "_hex": "0xd222d8eb9"
      },
      "gasLimit": {
        "_hex": "0x5208"
      },
      "to": "0x32Be343B94f860124dC4fEe278FDCBD38C102D88",
      "value": {
        "_hex": "0x2c249c1bca26c00"
      },
      "nonce": 0,
      "data": "0x",
      "r": "0xfd41cbe0c38ff11b286364bdf404357542172de0f3eb9cd626732916aeee651b",
      "s": "0x2b26a3d533ed35f5c4b97611228e0554fa708637dbf72e6cd90c62d98ee2e791",
      "v": 27,
      "creates": null,
      "raw": "0xf86c80850d222d8eb98252089432be343b94f860124dc4fee278fdcbd38c102d888802c249c1bca26c00801ba0fd41cbe0c38ff11b286364bdf404357542172de0f3eb9cd626732916aeee651ba02b26a3d533ed35f5c4b97611228e0554fa708637dbf72e6cd90c62d98ee2e791",
      "networkId": 0,
      "chainId": 0
    }
  ]
}