{
  "hash": "0x6ae5b1d96adae7028e654ea5fec9a4aa49568c2175d008d19930226a41483be9",
  "parentHash": "0x8b6a83e3c9d61ff44d504477a0d625bc242a7a30281646082ddc501fdf65cef6",
  "number": 109433,
  "timestamp": 1439956451,
  "nonce": "0xc08f56dd64396087",
  "difficulty": 4462422954526,
  "gasLimit": {
    "_hex": "0x2fefd8"
  },
  "gasUsed": {
    "_hex": "0x5208"
  },
  "miner": "0xe6A7a1d47ff21B6321162AEA7C6CB457D5476Bca",
  "extraData": "0x476574682f76312e302e312d38326566323666362f6c696e75782f676f312e34",
  "transactions": [
    {
      "hash": "0x00c15451e456e34bbf9449b5fb92379df0950e67964620105bf1b49fe14dfcd2",
      "blockHash": "0x6ae5b1d96adae7028e654ea5fec9a4aa49568c2175d008d19930226a41483be9",
      "blockNumber": 109433,
      "transactionIndex": 0,
      "confirmations": null,
      "from": "0x2910543Af39abA0Cd09dBb2D50200b3E800A63D2",
      "gasPrice": {
        "_hex": "0xd1e25b41e"
      },
      "gasLimit": {
        "_hex": "0x5208"
      },
      "to": "0x40c6BeCe82F6ef13eB49bDed467E6d8aa48c5eF6",
      "value": {
        "_hex": "0xf9b4243bae6ca4000"
      },
      "nonce": 1075,
      "data": "0x",
      "r": "0x0b9e54a44708883d82c22ebfa6b4755f4c135eab7b61c7e9a23e59027a3e7348",
      "s": "0x481bade0e110f2ff4a1513c2f4e3a19c358bdd2304776bd02a7343817ed98dff",
      "v": 28,
      "creates": null,
      "raw": "0xf86f820433850d1e25b41e8252089440c6bece82f6ef13eb49bded467e6d8aa48c5ef6890f9b4243bae6ca4000801ca00b9e54a44708883d82c22ebfa6b4755f4c135eab7b61c7e9a23e59027a3e7348a0481bade0e110f2ff4a1513c2f4e3a19c358bdd2304776bd02a7343817ed98dff",
      "networkId": 0,
      "chainId": 0
    }
  ]
}