{
  "hash": "0x29d8a0002342cdfa68589d682a6f54ab8669eb06fb1adc5be7b53b6c3834bc6f",
  "parentHash": "0x6e35382857f46f677b89ec9dead03db50e89b01c84721501c1eba2ad62b783be",
  "number": 75742,
  "timestamp": 1439408458,
  "nonce": "0x9cb2a5dc61abdcff",
  "difficulty": 2225543322968,
  "gasLimit": {
    "_hex": "0x2fefd8"
  },
  "gasUsed": {
    "_hex": "0xf618"
  },
  "miner": "0x31995C46B15C84523cDEE26f49A681b8237e43F5",
  "extraData": "0x476574682f76312e302e312f77696e646f77732f676f312e342e32",
  "transactions": [
    {
      "hash": "0xa11b4161c4c22e61968325ea954abb9acf100788a4d0cba6a6ab1030976dfb9f",
      "blockHash": "0x29d8a0002342cdfa68589d682a6f54ab8669eb06fb1adc5be7b53b6c3834bc6f",
      "blockNumber": 75742,
      "transactionIndex": 0,
      "confirmations": null,
      "from": "0x90cA42f0308bF15db201F40e41faA6Dd7a96bEA7",
      "gasPrice": {
        "_hex": "0xdf86feca4"
      },
      "gasLimit": {
        "_hex": "0x5208"
      },
      "to": "0x32Be343B94f860124dC4fEe278FDCBD38C102D88",
      "value": {
        "_hex": "0x3635c533c149ee0000"
      },
      "nonce": 1,
      "data": "0x",
      "r": "0x880b674ebc209b2b14459be8894ea7af6aa23c3c460b4c46beffb17e7e2514a0",
      "s": "0x66475f1cb595a89c1f5351361088492002cd0267ed1914ef87498dc435802dda",
      "v": 27,
      "creates": null,
      "raw": "0xf86d01850df86feca48252089432be343b94f860124dc4fee278fdcbd38c102d88893635c533c149ee0000801ba0880b674ebc209b2b14459be8894ea7af6aa23c3c460b4c46beffb17e7e2514a0a066475f1cb595a89c1f5351361088492002cd0267ed1914ef87498dc435802dda",
      "networkId": 0,
      "chainId": 0
    },
    {
      "hash": "0x4309df84e38f78fc72f921bacde400474d5b19f20be834bd0707ebedd12a0aa8",
      "blockHash": "0x29d8a0002342cdfa68589d682a6f54ab8669eb06fb1adc5be7b53b6c3834bc6f",
      "blockNumber": 75742,
      "transactionIndex": 1,
      "confirmations": null,
      "from": "0x32Be343B94f860124dC4fEe278FDCBD38C102D88",
      "gasPrice": {
        "_hex": "0xdf86feca4"
      },
      "gasLimit": {
        "_hex": "0x5208"
      },
      "to": "0x120A270bbC009644e35F0bB6ab13f95b8199c4ad",
      "value": {
        "_hex": "0x878678326eac900000"
      },
      "nonce": 344,
      "data": "0x",
      "r": "0x0e3bea3b84a75991bdacacb2b4082ac75b6434ec72450fdbc84d061c100b6730",
      "s": "0x3a447d4702ad46b28226e1fb1337670df4743d9fc2699c814abfc5a7998f574e",
      "v": 27,
      "creates": null,
      "raw": "0xf86f820158850df86feca482520894120a270bbc009644e35f0bb6ab13f95b8199c4ad89878678326eac900000801ba00e3bea3b84a75991bdacacb2b4082ac75b6434ec72450fdbc84d061c100b6730a03a447d4702ad46b28226e1fb1337670df4743d9fc2699c814abfc5a7998f574e",
      "networkId": 0,
      "chainId": 0
    },
    {
      "hash": "0xe92acd8691016d1ba180019503e31bb730309b8b05b2041678e787c332bfa855",
      "blockHash": "0x29d8a0002342cdfa68589d682a6f54ab8669eb06fb1adc5be7b53b6c3834bc6f",
      "blockNumber": 75742,
      "transactionIndex": 2,
      "confirmations": null,
      "from": "0xCc519A6f707571a4C58F0c4b574643283a0742B8",
      "gasPrice": {
        "_hex": "0xdf86feca4"
      },
      "gasLimit": {
        "_hex": "0x5208"
      },
      "to": "0x32Be343B94f860124dC4fEe278FDCBD38C102D88",
      "value": {
        "_hex": "0xdffc3a18272e800"
      },
      "nonce": 0,
      "data": "0x",
      "r": "0x926b5ede7ef6577bcaee5221c611f382785cb64e2c241c22b340e1ee8c25ed8d",
      "s": "0x7216cc73ca412b4afc99db1a85ee9f4a1770f91a45110e29679340bdcc874082",
      "v": 27,
      "creates": null,
      "raw": "0xf86c80850df86feca48252089432be343b94f860124dc4fee278fdcbd38c102d88880dffc3a18272e800801ba0926b5ede7ef6577bcaee5221c611f382785cb64e2c241c22b340e1ee8c25ed8da07216cc73ca412b4afc99db1a85ee9f4a1770f91a45110e29679340bdcc874082",
      "networkId": 0,
      "chainId": 0
    }
  ]
}