{
  "hash": "0x1784048fcf3e9f024642ee951b73824b150dc276bbe9af724ea6c931b06a798d",
  "parentHash": "0x1267cd238da21c8c207169a54e78c8821589a7dec5c7173fb96d4b3e720252fb",
  "number": 68548,
  "timestamp": 1439289879,
  "nonce": "0xe9b7fd001dfe66bb",
  "difficulty": 2006448957613,
  "gasLimit": {
    "_hex": "0x2fefd8"
  },
  "gasUsed": {
    "_hex": "0x206b0"
  },
  "miner": "0xe6A7a1d47ff21B6321162AEA7C6CB457D5476Bca",
  "extraData": "0x476574682f76312e302e312d38326566323666362f6c696e75782f676f312e34",
  "transactions": [
    {
      "hash": "0x0afc946b601bba90908b7d061fbc874a7fb57167ea0b8a1134bd55a42a097d13",
      "blockHash": "0x1784048fcf3e9f024642ee951b73824b150dc276bbe9af724ea6c931b06a798d",
      "blockNumber": 68548,
      "transactionIndex": 0,
      "confirmations": null,
      "from": "0xd268fB48FA174088a25a120aFF0fd8eb0C2d4c87",
      "gasPrice": {
        "_hex": "0x14fb04ebb8"
      },
      "gasLimit": {
        "_hex": "0x1f328"
      },
      "to": "0x45f4054E7384d9c4B5be63D3927d9b7D18781FdC",
      "value": {
        "_hex": "0xe27c49886e60000"
      },
      "nonce": 6,
      "data": "0x",
      "r": "0xb10f738020e62a625bfa2de4609eba07b12aaf908a4ca1aa211c7a20d8becd18",
      "s": "0x79152cf6795bbaa1aa5cf76716f1e49de73a13f2785304cdde47216c5ffeb15d",
      "v": 27,
      "creates": null,
      "raw": "0xf86d068514fb04ebb88301f3289445f4054e7384d9c4b5be63d3927d9b7d18781fdc880e27c49886e60000801ba0b10f738020e62a625bfa2de4609eba07b12aaf908a4ca1aa211c7a20d8becd18a079152cf6795bbaa1aa5cf76716f1e49de73a13f2785304cdde47216c5ffeb15d",
      "networkId": 0,
      "chainId": 0
    },
    {
      "hash": "0x3b5574a3601c66f76906bc04d35d58deba69df874fb1750b1ee02b22df82229f",
      "blockHash": "0x1784048fcf3e9f024642ee951b73824b150dc276bbe9af724ea6c931b06a798d",
      "blockNumber": 68548,
      "transactionIndex": 1,
      "confirmations": null,
      "from": "0xd20e3C43a1fC90f3740D20A8dD36BFE40F3004E1",
      "gasPrice": {
        "_hex": "0xba43b7400"
      },
      "gasLimit": {
        "_hex": "0x5208"
      },
      "to": "0xb70a3F9E5a7d21CB08BDb3d479a945780D2Ad291",
      "value": {
        "_hex": "0x653580cf6eb000"
      },
      "nonce": 1,
      "data": "0x",
      "r": "0x9c1ca8dc950d89c349a9a67ffcd501ce76713252652339d533e6cce352de45de",
      "s": "0x0f5e7bfa1e51147e4de8784f50481d27e5f965768ad753eb88dee72ed252c5c3",
      "v": 28,
      "creates": null,
      "raw": "0xf86b01850ba43b740082520894b70a3f9e5a7d21cb08bdb3d479a945780d2ad29187653580cf6eb000801ca09c1ca8dc950d89c349a9a67ffcd501ce76713252652339d533e6cce352de45dea00f5e7bfa1e51147e4de8784f50481d27e5f965768ad753eb88dee72ed252c5c3",
      "networkId": 0,
      "chainId": 0
    },
    {
      "hash": "0x35ad8ccdfd7832482128ceb63a48b1d937061179298f9d57f0638c34d3ffb06c",
      "blockHash": "0x1784048fcf3e9f024642ee951b73824b150dc276bbe9af724ea6c931b06a798d",
      "blockNumber": 68548,
      "transactionIndex": 2,
      "confirmations": null,
      "from": "0x726D6d4F21959d7Ab77bD5BD26eeE17E4F411C6d",
      "gasPrice": {
        "_hex": "0xba43b7400"
      },
      "gasLimit": {
        "_hex": "0x5208"
      },
      "to": "0xA9c80A4842699BC9F7Fd8778574fd7A0FEb4bd7F",
      "value": {
        "_hex": "0x653580cf6eb000"
      },
      "nonce": 1,
      "data": "0x",
      "r": "0x48dad748992c96330254f89349be25876414ead44bd2a65654fa2561d7c3d047",
      "s": "0x18b54ca2e1f733408b3564f9195c7b9566b16f2a044b37b5998df14861832470",
      "v": 27,
      "creates": null,
      "raw": "0xf86b01850ba43b740082520894a9c80a4842699bc9f7fd8778574fd7a0feb4bd7f87653580cf6eb000801ba048dad748992c96330254f89349be25876414ead44bd2a65654fa2561d7c3d047a018b54ca2e1f733408b3564f9195c7b9566b16f2a044b37b5998df14861832470",
      "networkId": 0,
      "chainId": 0
    },
    {
      "hash": "0xccbd4d2ac63c75bd0e559451b4507509ea88be0e927da9d37d39f203a2107da4",
      "blockHash": "0x1784048fcf3e9f024642ee951b73824b150dc276bbe9af724ea6c931b06a798d",
      "blockNumber": 68548,
      "transactionIndex": 3,
      "confirmations": null,
      "from": "0x0208dFA68Dd6E913a1035861778544b3169Db5A0",
      "gasPrice": {
        "_hex": "0xba43b7400"
      },
      "gasLimit": {
        "_hex": "0x5208"
      },
      "to": "0x11F68f9Fb1b4429228fAdb619a486Bd0E784508d",
      "value": {
        "_hex": "0x653580cf6eb000"
      },
      "nonce": 1,
      "data": "0x",
      "r": "0x5f12a403f00aaf9159bd8ab93e1c3fb4e6537db2bc7b6a9d0742569160855031",
      "s": "0x0ad80647f544a17a64b583a1f7799e9a8a64a05cb9ff43fcad3af0d9fc49c294",
      "v": 28,
      "creates": null,
      "raw": "0xf86b01850ba43b74008252089411f68f9fb1b4429228fadb619a486bd0e784508d87653580cf6eb000801ca05f12a403f00aaf9159bd8ab93e1c3fb4e6537db2bc7b6a9d0742569160855031a00ad80647f544a17a64b583a1f7799e9a8a64a05cb9ff43fcad3af0d9fc49c294",
      "networkId": 0,
      "chainId": 0
    },
    {
      "hash": "0xcf7532a529c313c3cae3c75f6e8d4182cea453d7746ccd3da7bde2c8369d3dc2",
      "blockHash": "0x1784048fcf3e9f024642ee951b73824b150dc276bbe9af724ea6c931b06a798d",
      "blockNumber": 68548,
      "transactionIndex": 4,
      "confirmations": null,
      "from": "0xB5332c555468F5D74758048689455002A4276E4d",
      "gasPrice": {
        "_hex": "0xba43b7400"
      },
      "gasLimit": {
        "_hex": "0x5208"
      },
      "to": "0x73e1a2bd15b77921eeABB24c9F417145134A0eeB",
      "value": {
        "_hex": "0x653580cf6eb000"
      },
      "nonce": 1,
      "data": "0x",
      "r": "0x42365839f2a06dc29cb6f6220dcf2ecb6eef7068b8c18e76959795704c0b58e7",
      "s": "0x6cdb84231a08dd8e2db031e1abb5f5e110edd41567f78a50117041cc90629936",
      "v": 27,
      "creates": null,
      "raw": "0xf86b01850ba43b74008252089473e1a2bd15b77921eeabb24c9f417145134a0eeb87653580cf6eb000801ba042365839f2a06dc29cb6f6220dcf2ecb6eef7068b8c18e76959795704c0b58e7a06cdb84231a08dd8e2db031e1abb5f5e110edd41567f78a50117041cc90629936",
      "networkId": 0,
      "chainId": 0
    },
    {
      "hash": "0xe84098c667e3417c55d861b792db6d19a3bcc3a5bbd76fef0572b459c1f42d1e",
      "blockHash": "0x1784048fcf3e9f024642ee951b73824b150dc276bbe9af724ea6c931b06a798d",
      "blockNumber": 68548,
      "transactionIndex": 5,
      "confirmations": null,
      "from": "0x96074A870CF850a9b866d622cD3AE8Dc3b4Fd313",
      "gasPrice": {
        "_hex": "0xba43b7400"
      },
      "gasLimit": {
        "_hex": "0x5208"
      },
      "to": "0x74870F56E7b59aD88C52a743b8D8d95152a49dD2",
      "value": {
        "_hex": "0x653580cf6eb000"
      },
      "nonce": 1,
      "data": "0x",
      "r": "0x1fa04092707b8c4ed2e2a92683d755e24da7813ddddf88a2b9360e35694be816",
      "s": "0x2f5c572731264874c709804ccec84da08dee08946e663d53203d0054b472ef05",
      "v": 28,
      "creates": null,
      "raw": "0xf86b01850ba43b74008252089474870f56e7b59ad88c52a743b8d8d95152a49dd287653580cf6eb000801ca01fa04092707b8c4ed2e2a92683d755e24da7813ddddf88a2b9360e35694be816a02f5c572731264874c709804ccec84da08dee08946e663d53203d0054b472ef05",
      "networkId": 0,
      "chainId": 0
    }
  ]
}