{
  "hash": "0x2b60c5376eceaef224b5094db2fa82984dab0d05ba07b54f959fccb44de56e57",
  "parentHash": "0x96c4b289f48e650499104e308954f0d7236ae285d6af4e726b292dee3b4b1be5",
  "number": 102444,
  "timestamp": 1439838157,
  "nonce": "0x33c19a890222e0ab",
  "difficulty": 3958715315584,
  "gasLimit": {
    "_hex": "0x2fefd8"
  },
  "gasUsed": {
    "_hex": "0xa410"
  },
  "miner": "0xe6A7a1d47ff21B6321162AEA7C6CB457D5476Bca",
  "extraData": "0x476574682f76312e302e312d38326566323666362f6c696e75782f676f312e34",
  "transactions": [
    {
      "hash": "0x9e844fe3e30a409e7249c260b7427465f5d336079699dbfe1aecd5dc77973813",
      "blockHash": "0x2b60c5376eceaef224b5094db2fa82984dab0d05ba07b54f959fccb44de56e57",
      "blockNumber": 102444,
      "transactionIndex": 0,
      "confirmations": null,
      "from": "0x3251cce70191B7c0625Addd94Af1e95C87A3D848",
      "gasPrice": {
        "_hex": "0xce5869a33"
      },
      "gasLimit": {
        "_hex": "0x7a120"
      },
      "to": "0xBBDa93a81B882774e1c9b5e3F933Fa35DaC8bc88",
      "value": {
        "_hex": "0xcfc01faf7f990000"
      },
      "nonce": 0,
      "data": "0x",
      "r": "0x5024e9c40c959e878342c03fb059df8112af9e31433f8bd8305b415f60fd5641",
      "s": "0x66bd263d0832d3a87c04220499f10c0fbe301e6dc20456ad1dd8595ce1439c45",
      "v": 27,
      "creates": null,
      "raw": "0xf86d80850ce5869a338307a12094bbda93a81b882774e1c9b5e3f933fa35dac8bc8888cfc01faf7f990000801ba05024e9c40c959e878342c03fb059df8112af9e31433f8bd8305b415f60fd5641a066bd263d0832d3a87c04220499f10c0fbe301e6dc20456ad1dd8595ce1439c45",
      "networkId": 0,
      "chainId": 0
    },
    {
      "hash": "0x62069a4b3747e3b647366b965f522719fe437fadd32a7388337e99053868183c",
      "blockHash": "0x2b60c5376eceaef224b5094db2fa82984dab0d05ba07b54f959fccb44de56e57",
      "blockNumber": 102444,
      "transactionIndex": 1,
      "confirmations": null,
      "from": "0xd1c2155f5471EeC28Ba16E97F0A4FaC067B1Cb9e",
      "gasPrice": {
        "_hex": "0xcca7952c8"
      },
      "gasLimit": {
        "_hex": "0x5208"
      },
      "to": "0x32Be343B94f860124dC4fEe278FDCBD38C102D88",
      "value": {
        "_hex": "0xa684772a1e264000"
      },
      "nonce": 0,
      "data": "0x",
      "r": "0x495fa5aeae3de22c18bec53f9e90bda7f674549c853902464f903171c1885301",
      "s": "0x15edae4088a373392a6c6ed53916f553b86a048b5d97bd3269ddfaf60d476dff",
      "v": 28,
      "creates": null,
      "raw": "0xf86c80850cca7952c88252089432be343b94f860124dc4fee278fdcbd38c102d8888a684772a1e264000801ca0495fa5aeae3de22c18bec53f9e90bda7f674549c853902464f903171c1885301a015edae4088a373392a6c6ed53916f553b86a048b5d97bd3269ddfaf60d476dff",
      "networkId": 0,
      "chainId": 0
    }
  ]
}