{
  "hash": "0x8f54cf92f111370cf30cb50a440d4375994a7ee6e26cee86de61b02b48946827",
  "parentHash": "0xc8ccae4010cb1ca833102d579a5be0202a9c9ceaaffd8c96a62f01332aeccf70",
  "number": 64967,
  "timestamp": 1439229176,
  "nonce": "0x7705b3696a9ba996",
  "difficulty": 1912580759128,
  "gasLimit": {
    "_hex": "0x2fefd8"
  },
  "gasUsed": {
    "_hex": "0x1cee0"
  },
  "miner": "0xC13Dad778D7BcE116BD97f744625D57f7124c38A",
  "extraData": "0x476574682f76312e302e312f6c696e75782f676f312e342e32",
  "transactions": [
    {
      "hash": "0x25b46c5baf169c4f3dbabba38479284404cc1b39d11f9882c0395f46cd6cee0a",
      "blockHash": "0x8f54cf92f111370cf30cb50a440d4375994a7ee6e26cee86de61b02b48946827",
      "blockNumber": 64967,
      "transactionIndex": 0,
      "confirmations": null,
      "from": "0x2910543Af39abA0Cd09dBb2D50200b3E800A63D2",
      "gasPrice": {
        "_hex": "0xddbb250f5"
      },
      "gasLimit": {
        "_hex": "0x5208"
      },
      "to": "0x4d67f2AB8599fef5Fc413999Aa01FD7fcE70B43D",
      "value": {
        "_hex": "0x2a7f134e9d2438000"
      },
      "nonce": 163,
      "data": "0x",
      "r": "0x0287ed131f2509f9b6b0f9557f14703e4c02594ae48cb183b32d271d12a29ea8",
      "s": "0x333831f440186fad3e5ea3140d8d695756adf26176359c925abfef9d18cb9d75",
      "v": 28,
      "creates": null,
      "raw": "0xf86e81a3850ddbb250f5825208944d67f2ab8599fef5fc413999aa01fd7fce70b43d8902a7f134e9d2438000801ca00287ed131f2509f9b6b0f9557f14703e4c02594ae48cb183b32d271d12a29ea8a0333831f440186fad3e5ea3140d8d695756adf26176359c925abfef9d18cb9d75",
      "networkId": 0,
      "chainId": 0
    },
    {
      "hash": "0x68c007d9e33752daa78b0e5267aca67d740b2196cd533e605fdd4dd71729a5cf",
      "blockHash": "0x8f54cf92f111370cf30cb50a440d4375994a7ee6e26cee86de61b02b48946827",
      "blockNumber": 64967,
      "transactionIndex": 1,
      "confirmations": null,
      "from": "0x75535412f664052AA2be77Fc8E59c8e1DC2e7070",
      "gasPrice": {
        "_hex": "0xba43b7400"
      },
      "gasLimit": {
        "_hex": "0x15f90"
      },
      "to": "0x793AE8C1b1a160BFc07BFB0d04F85eab1A71F4f2",
      "value": {
        "_hex": "0x0"
      },
      "nonce": 0,
      "data": "0x3ba15036",
      "r": "0x283af134825dcd3a31adc8b6703478850baef4b507cc0ad2ee8471a436c94bd3",
      "s": "0x52a64a07b853548475cb86988173c921def4600f31fcd5d2c21cc0f771435676",
      "v": 28,
      "creates": null,
      "raw": "0xf86980850ba43b740083015f9094793ae8c1b1a160bfc07bfb0d04f85eab1a71f4f280843ba150361ca0283af134825dcd3a31adc8b6703478850baef4b507cc0ad2ee8471a436c94bd3a052a64a07b853548475cb86988173c921def4600f31fcd5d2c21cc0f771435676",
      "networkId": 0,
      "chainId": 0
    },
    {
      "hash": "0x496778f57573ca9673496d98e9fdef6dcf100e92db4c4d220cae579f7236d21d",
      "blockHash": "0x8f54cf92f111370cf30cb50a440d4375994a7ee6e26cee86de61b02b48946827",
      "blockNumber": 64967,
      "transactionIndex": 2,
      "confirmations": null,
      "from": "0x24FBE9f1630afc82e8C3e3052903C37f60604a98",
      "gasPrice": {
        "_hex": "0xba43b7400"
      },
      "gasLimit": {
        "_hex": "0x15f90"
      },
      "to": "0x793AE8C1b1a160BFc07BFB0d04F85eab1A71F4f2",
      "value": {
        "_hex": "0x0"
      },
      "nonce": 0,
      "data": "0x3ba15036",
      "r": "0x73bc95923de779c8cce0255fce2ab21d3b57f83106466fafec4f250ed8bb3fab",
      "s": "0x32ffc0591e0dfcd1c0561c1ca5e5ae5b89f1f1e68d3c59f361f9c95d13f6b504",
      "v": 28,
      "creates": null,
      "raw": "0xf86980850ba43b740083015f9094793ae8c1b1a160bfc07bfb0d04f85eab1a71f4f280843ba150361ca073bc95923de779c8cce0255fce2ab21d3b57f83106466fafec4f250ed8bb3faba032ffc0591e0dfcd1c0561c1ca5e5ae5b89f1f1e68d3c59f361f9c95d13f6b504",
      "networkId": 0,
      "chainId": 0
    }
  ]
}