{
  "hash": "0x8c1aa6d9aa791fbe8cc9b1549330d3ab4f053e41f4322e31566a32bc45f46c48",
  "parentHash": "0x9112957f77276524b965c3560b2bce0991f68671213bbdc209c2cf59f4762c6e",
  "number": 101303,
  "timestamp": 1439820844,
  "nonce": "0xf0ba6674cd869a04",
  "difficulty": 3809436787418,
  "gasLimit": {
    "_hex": "0x2fefd8"
  },
  "gasUsed": {
    "_hex": "0xa410"
  },
  "miner": "0x007f7f58D3eb5b7510A301eCC749FC1fCDDBE14D",
  "extraData": "0x476574682f76312e302e312f77696e646f77732f676f312e342e32",
  "transactions": [
    {
      "hash": "0xa69dbaa27a5d39b2e0be0387b9e8c638ea527f7886cde1d5765717fe136ee1db",
      "blockHash": "0x8c1aa6d9aa791fbe8cc9b1549330d3ab4f053e41f4322e31566a32bc45f46c48",
      "blockNumber": 101303,
      "transactionIndex": 0,
      "confirmations": null,
      "from": "0x120A270bbC009644e35F0bB6ab13f95b8199c4ad",
      "gasPrice": {
        "_hex": "0xde2bcf873"
      },
      "gasLimit": {
        "_hex": "0x3d090"
      },
      "to": "0x60d85a32126130b225913C23dF4e5EF8b759fA09",
      "value": {
        "_hex": "0x1bc16d674ec80000"
      },
      "nonce": 673,
      "data": "0x",
      "r": "0x61cd47f2d8ae8ee0f8436c60e8ad8eb202888f7b67e5f968db0dfb1404f38635",
      "s": "0x24869ce83c6571fa7c56b1c85ab825eed93b25323b7cc7be2978531640cc0b1c",
      "v": 27,
      "creates": null,
      "raw": "0xf86f8202a1850de2bcf8738303d0909460d85a32126130b225913c23df4e5ef8b759fa09881bc16d674ec80000801ba061cd47f2d8ae8ee0f8436c60e8ad8eb202888f7b67e5f968db0dfb1404f38635a024869ce83c6571fa7c56b1c85ab825eed93b25323b7cc7be2978531640cc0b1c",
      "networkId": 0,
      "chainId": 0
    },
    {
      "hash": "0x5e86d734d25a6216da769ec43eee7a4305316456f18226d38a906e99bda6e0f3",
      "blockHash": "0x8c1aa6d9aa791fbe8cc9b1549330d3ab4f053e41f4322e31566a32bc45f46c48",
      "blockNumber": 101303,
      "transactionIndex": 1,
      "confirmations": null,
      "from": "0x95B8Be50517B180F2F101f1cFe0E4C66Ad6fa7dd",
      "gasPrice": {
        "_hex": "0xcb51031de"
      },
      "gasLimit": {
        "_hex": "0x15f90"
      },
      "to": "0xbCab99c9250A69cCD7395f2543ed52FF1e220398",
      "value": {
        "_hex": "0x1"
      },
      "nonce": 12,
      "data": "0x",
      "r": "0x797051114f5a47f87fae289b6996d98ceb816077e1c09a74f7941ac0c8fc3636",
      "s": "0x707ca914de2d85452a012445d26154d2b8f51f222118b7b983e27d34ebfcf6bc",
      "v": 28,
      "creates": null,
      "raw": "0xf8650c850cb51031de83015f9094bcab99c9250a69ccd7395f2543ed52ff1e22039801801ca0797051114f5a47f87fae289b6996d98ceb816077e1c09a74f7941ac0c8fc3636a0707ca914de2d85452a012445d26154d2b8f51f222118b7b983e27d34ebfcf6bc",
      "networkId": 0,
      "chainId": 0
    }
  ]
}