{
  "hash": "0x05e7ec568ad8b2ccf727c2eea5478d8ad9ff3faaf4f5085285fe761604d069c8",
  "parentHash": "0x2737f0b8dc6e16bd890034c1c0f38ed42e10ed9deb49972e3a2a3bf929ba58a0",
  "number": 113568,
  "timestamp": 1440025839,
  "nonce": "0xa089a12b9a07f0ea",
  "difficulty": 4458046520104,
  "gasLimit": {
    "_hex": "0x2fefd8"
  },
  "gasUsed": {
    "_hex": "0x546c"
  },
  "miner": "0xbb7B8287f3F0a933474a79eAe42CBCa977791171",
  "extraData": "0x476574682f4c5649562f76312e302e312f6c696e75782f676f312e342e32",
  "transactions": [
    {
      "hash": "0x9fc2b7699935aa7582ce58e2f1a5fde5387704d3321f7f3cc12b990154cc1457",
      "blockHash": "0x05e7ec568ad8b2ccf727c2eea5478d8ad9ff3faaf4f5085285fe761604d069c8",
      "blockNumber": 113568,
      "transactionIndex": 0,
      "confirmations": null,
      "from": "0xc239aBdfAe3e9Af5457F52Ed2B91FD0aB4d9C700",
      "gasPrice": {
        "_hex": "0x110c8f7d8de"
      },
      "gasLimit": {
        "_hex": "0xc350"
      },
      "to": "0x2910543Af39abA0Cd09dBb2D50200b3E800A63D2",
      "value": {
        "_hex": "0x1b1ae4d6e2ef500000"
      },
      "nonce": 3,
      "data": "0x454e33435043594430",
      "r": "0xf6289ae11120028db8e70b03a37d7d231f2bb085f9dced3c257b8bb1d57bd53b",
      "s": "0x0477924caab6db4a35adece75c4c6ece4c14cbd9f8cf4442292d4749535393ed",
      "v": 27,
      "creates": null,
      "raw": "0xf87703860110c8f7d8de82c350942910543af39aba0cd09dbb2d50200b3e800a63d2891b1ae4d6e2ef50000089454e334350435944301ba0f6289ae11120028db8e70b03a37d7d231f2bb085f9dced3c257b8bb1d57bd53ba00477924caab6db4a35adece75c4c6ece4c14cbd9f8cf4442292d4749535393ed",
      "networkId": 0,
      "chainId": 0
    }
  ]
}