{
  "hash": "0x736e81a49c50a0752077f47755ba7ce73632456bb75107730b8dfdc18610827e",
  "parentHash": "0x02acf73423baeee28b4e320d3ada9c241d0c66a2beed3c379fc342d3bf2f2e31",
  "number": 117633,
  "timestamp": 1440112904,
  "nonce": "0xcb37f188169c12af",
  "difficulty": 4320902805144,
  "gasLimit": {
    "_hex": "0x2fefd8"
  },
  "gasUsed": {
    "_hex": "0x546c"
  },
  "miner": "0x7E6930B63D03e88F5928C5cd6ee3FCee4D714F7F",
  "extraData": "0xd783010003844765746887676f312e342e32856c696e7578",
  "transactions": [
    {
      "hash": "0xa0c20a00d83f58cf77cee3cc0394707c1dd9bea10b7af8e385dd547f3fdb2552",
      "blockHash": "0x736e81a49c50a0752077f47755ba7ce73632456bb75107730b8dfdc18610827e",
      "blockNumber": 117633,
      "transactionIndex": 0,
      "confirmations": null,
      "from": "0xE3263cE8af6db3e467584502eD7109125EaE22A5",
      "gasPrice": {
        "_hex": "0x110c8f7d8de"
      },
      "gasLimit": {
        "_hex": "0xc350"
      },
      "to": "0x2910543Af39abA0Cd09dBb2D50200b3E800A63D2",
      "value": {
        "_hex": "0x6f05b59d3b20000"
      },
      "nonce": 4,
      "data": "0x454e31525936334d52",
      "r": "0xb663ecb630599238367e81c096a5487505d4b20466112a57df164d6dc6c738c4",
      "s": "0x48f0fec16258541eb5df234d8db691471aa14c036cde2586cd3a4488270fab23",
      "v": 27,
      "creates": null,
      "raw": "0xf87604860110c8f7d8de82c350942910543af39aba0cd09dbb2d50200b3e800a63d28806f05b59d3b2000089454e31525936334d521ba0b663ecb630599238367e81c096a5487505d4b20466112a57df164d6dc6c738c4a048f0fec16258541eb5df234d8db691471aa14c036cde2586cd3a4488270fab23",
      "networkId": 0,
      "chainId": 0
    }
  ]
}