{
  "hash": "0x7e66532935e8d6ece5b868411f3231b75f1806414e56b0bcc0a6e6a628f4ecf4",
  "parentHash": "0x9d1a4341a762177a2917bb437d5153b77269e521a9a2471fffd15cb4853b42b2",
  "number": 100356,
  "timestamp": 1439805015,
  "nonce": "0x92f60f3628cfb83e",
  "difficulty": 3819179660686,
  "gasLimit": {
    "_hex": "0x2fefd8"
  },
  "gasUsed": {
    "_hex": "0xa410"
  },
  "miner": "0x9D49F602b0fdb924Bd63DDE2Bd0907E4A07c63a7",
  "extraData": "0x476574682f76312e302e312f6c696e75782f676f312e342e32",
  "transactions": [
    {
      "hash": "0x730ca6e2419a58439f27188c9594825a32932cf23da5cf6890f3077d1ed62e4c",
      "blockHash": "0x7e66532935e8d6ece5b868411f3231b75f1806414e56b0bcc0a6e6a628f4ecf4",
      "blockNumber": 100356,
      "transactionIndex": 0,
      "confirmations": null,
      "from": "0x6Ca7109e3020A822bc419d4F8d35F6b929398407",
      "gasPrice": {
        "_hex": "0xba43b7400"
      },
      "gasLimit": {
        "_hex": "0x5208"
      },
      "to": "0xC47Aaa860008be6f65B58c6C6E02a84e666EfE31",
      "value": {
        "_hex": "0x334b24e869eb12d0"
      },
      "nonce": 3,
      "data": "0x",
      "r": "0x9ce691e9157eaf0a64c7a767a24af3c76099234ae868d33e3b1b875f41744dfe",
      "s": "0x6a7fcfe9a34476ca7cff31542ab7b3add52937af08afc22166037fbbd44cb609",
      "v": 28,
      "creates": null,
      "raw": "0xf86c03850ba43b740082520894c47aaa860008be6f65b58c6c6e02a84e666efe3188334b24e869eb12d0801ca09ce691e9157eaf0a64c7a767a24af3c76099234ae868d33e3b1b875f41744dfea06a7fcfe9a34476ca7cff31542ab7b3add52937af08afc22166037fbbd44cb609",
      "networkId": 0,
      "chainId": 0
    },
    {
      "hash": "0xa9638e0128fcbd2ca0bb9bbc44b38a3e3b09846594526e294ce292e0713c3fea",
      "blockHash": "0x7e66532935e8d6ece5b868411f3231b75f1806414e56b0bcc0a6e6a628f4ecf4",
      "blockNumber": 100356,
      "transactionIndex": 1,
      "confirmations": null,
      "from": "0x4C9560759adF54ABEdd7318d1413C4fA49240074",
      "gasPrice": {
        "_hex": "0xba43b7400"
      },
      "gasLimit": {
        "_hex": "0x5208"
      },
      "to": "0xC47Aaa860008be6f65B58c6C6E02a84e666EfE31",
      "value": {
        "_hex": "0x2df9e7eaafc02840"
      },
      "nonce": 4,
      "data": "0x",
      "r": "0xbce28956308675deb5570eed65f6a8c68ae58c130973acbc231ccc88599189cc",
      "s": "0x2d992994a99203bd031e4ad492899a715e0b1ae6b59da3a29ddd251a0fee4fb3",
      "v": 27,
      "creates": null,
      "raw": "0xf86c04850ba43b740082520894c47aaa860008be6f65b58c6c6e02a84e666efe31882df9e7eaafc02840801ba0bce28956308675deb5570eed65f6a8c68ae58c130973acbc231ccc88599189cca02d992994a99203bd031e4ad492899a715e0b1ae6b59da3a29ddd251a0fee4fb3",
      "networkId": 0,
      "chainId": 0
    }
  ]
}