{
  "hash": "0x8ad538a37167c7a6bedffb886e1bcbf52f4aba8583b17749b046fc5f014d4517",
  "parentHash": "0x025493ae21fb3c2c3e56e0b45eb03b8cbe8ed8b64bc12d77655aed6b4b5324dc",
  "number": 117879,
  "timestamp": 1440116849,
  "nonce": "0xff1d71251b116312",
  "difficulty": 4333453180020,
  "gasLimit": {
    "_hex": "0x2fefd8"
  },
  "gasUsed": {
    "_hex": "0x5208"
  },
  "miner": "0xA21Ba94e45f0E168dA824fC67aC9cb5Cb577a8aF",
  "extraData": "0x",
  "transactions": [
    {
      "hash": "0xd373989b386b687b15bcf3b388f1679ebb415a3ca4ac8e935dd80401731069bb",
      "blockHash": "0x8ad538a37167c7a6bedffb886e1bcbf52f4aba8583b17749b046fc5f014d4517",
      "blockNumber": 117879,
      "transactionIndex": 0,
      "confirmations": null,
      "from": "0x03bbfbb9d362b4B1C6a113BE654A0190Fc6aEa80",
      "gasPrice": {
        "_hex": "0xba43b7400"
      },
      "gasLimit": {
        "_hex": "0x5208"
      },
      "to": "0x32Be343B94f860124dC4fEe278FDCBD38C102D88",
      "value": {
        "_hex": "0x3e4eca09571d0800"
      },
      "nonce": 10,
      "data": "0x",
      "r": "0x224842221792f467b81dd1a621cf508d334d66a5d906b37606d44011e99dce33",
      "s": "0x12adade0db9d9baf349ab9a7b5ff7ec31e2ea0c1e12f9bcc9106ef7f204625c5",
      "v": 28,
      "creates": null,
      "raw": "0xf86c0a850ba43b74008252089432be343b94f860124dc4fee278fdcbd38c102d88883e4eca09571d0800801ca0224842221792f467b81dd1a621cf508d334d66a5d906b37606d44011e99dce33a012adade0db9d9baf349ab9a7b5ff7ec31e2ea0c1e12f9bcc9106ef7f204625c5",
      "networkId": 0,
      "chainId": 0
    }
  ]
}