{
  "hash": "0x2fca0f4f04974f20a5a49fb376f406f249e3efd518521116c52e3c77e26c25ef",
  "parentHash": "0x5bc51977511f801548e111fd014e2f79ecf83728b837fe1fb3f4911eb17d3442",
  "number": 57213,
  "timestamp": 1439099451,
  "nonce": "0x654fb755ac86c599",
  "difficulty": 1731160367500,
  "gasLimit": {
    "_hex": "0x2fefd8"
  },
  "gasUsed": {
    "_hex": "0x5208"
  },
  "miner": "0xeB1325C8D9d3ea8D74aC11F4B00F1B2367686319",
  "extraData": "0x476574682f76312e302e312f77696e646f77732f676f312e342e32",
  "transactions": [
    {
      "hash": "0x57adc5821400939ae79ad39d61fad0bf7825535c457d2af03137a1da585bbdb1",
      "blockHash": "0x2fca0f4f04974f20a5a49fb376f406f249e3efd518521116c52e3c77e26c25ef",
      "blockNumber": 57213,
      "transactionIndex": 0,
      "confirmations": null,
      "from": "0x5a9bC4FDfE098D03128afDCCa4Ff1Ae24fEc72bC",
      "gasPrice": {
        "_hex": "0xdfb7c5565"
      },
      "gasLimit": {
        "_hex": "0x5208"
      },
      "to": "0x32Be343B94f860124dC4fEe278FDCBD38C102D88",
      "value": {
        "_hex": "0x34da3ae27fb89a000"
      },
      "nonce": 1,
      "data": "0x",
      "r": "0x4cf9e2f1c9a259fd6098354c1a879c158cc050310a88fbd4a4c6e5ce372b71cb",
      "s": "0x0d67a08cf4e363a96bdff8e83d4a6055b486cfde77eb1140c1c693c24d3dda89",
      "v": 28,
      "creates": null,
      "raw": "0xf86d01850dfb7c55658252089432be343b94f860124dc4fee278fdcbd38c102d8889034da3ae27fb89a000801ca04cf9e2f1c9a259fd6098354c1a879c158cc050310a88fbd4a4c6e5ce372b71cba00d67a08cf4e363a96bdff8e83d4a6055b486cfde77eb1140c1c693c24d3dda89",
      "networkId": 0,
      "chainId": 0
    }
  ]
}