{
  "hash": "0x73f4528292ecd101b49dccab323c4ff24beb481d16f34569cff44ba50e065a22",
  "parentHash": "0x9ba95933a41baa94a39ad3ccfe8335a4542a3243ee594eeb746175b44e68e324",
  "number": 77804,
  "timestamp": 1439443167,
  "nonce": "0x85978cd2e72d4d8b",
  "difficulty": 2273316192055,
  "gasLimit": {
    "_hex": "0x2fefd5"
  },
  "gasUsed": {
    "_hex": "0x5208"
  },
  "miner": "0x6DE55b563cE6E319cCB403032Da3BE5Ad4ec4FcF",
  "extraData": "0x",
  "transactions": [
    {
      "hash": "0x8e9695d25cf38fded641825cf9f60fec13d5e19e9e15136ed9fc124891a6944a",
      "blockHash": "0x73f4528292ecd101b49dccab323c4ff24beb481d16f34569cff44ba50e065a22",
      "blockNumber": 77804,
      "transactionIndex": 0,
      "confirmations": null,
      "from": "0xE44722E814a70BF7009543535e6bCf0DF77545c2",
      "gasPrice": {
        "_hex": "0xba43b7400"
      },
      "gasLimit": {
        "_hex": "0x5208"
      },
      "to": "0xC47Aaa860008be6f65B58c6C6E02a84e666EfE31",
      "value": {
        "_hex": "0x455fd68a17f05f27"
      },
      "nonce": 0,
      "data": "0x",
      "r": "0x3fb18222327782fccf0b83854f82adeb03810bd2fc807213bbed01aca5c3a964",
      "s": "0x3c78655b78f28a5c5dea6bd46e2f76754849c2a67c4425ed9fc7a0a8f41c78e2",
      "v": 27,
      "creates": null,
      "raw": "0xf86c80850ba43b740082520894c47aaa860008be6f65b58c6c6e02a84e666efe3188455fd68a17f05f27801ba03fb18222327782fccf0b83854f82adeb03810bd2fc807213bbed01aca5c3a964a03c78655b78f28a5c5dea6bd46e2f76754849c2a67c4425ed9fc7a0a8f41c78e2",
      "networkId": 0,
      "chainId": 0
    }
  ]
}