{
  "hash": "0xf6eb72cb59cfcbde5ab8e1aad64a07eb03c2bab3878e04001121150493b66654",
  "parentHash": "0x47f9b5e1d9466b0cab07aeb291434a0f2bd1147dd79dd658d32fad5d9f850187",
  "number": 73948,
  "timestamp": 1439377987,
  "nonce": "0x1ce35137ebc72d7e",
  "difficulty": 2221675880565,
  "gasLimit": {
    "_hex": "0x2fefd8"
  },
  "gasUsed": {
    "_hex": "0xa410"
  },
  "miner": "0xf927a40C8B7F6E07c5af7FA2155B4864a4112B13",
  "extraData": "0x",
  "transactions": [
    {
      "hash": "0x787a4ac84621dc9eba5052acf04d9a37f1a0350712c077b4559598629427eafe",
      "blockHash": "0xf6eb72cb59cfcbde5ab8e1aad64a07eb03c2bab3878e04001121150493b66654",
      "blockNumber": 73948,
      "transactionIndex": 0,
      "confirmations": null,
      "from": "0x83816f103117f26a382c0ED30c21D0CF23f1D687",
      "gasPrice": {
        "_hex": "0x10ada8fb29c"
      },
      "gasLimit": {
        "_hex": "0x7a120"
      },
      "to": "0x33A095c66C480D7ceEFafD38b12919632854784F",
      "value": {
        "_hex": "0xde0b6b3a7640000"
      },
      "nonce": 1,
      "data": "0x",
      "r": "0xc2a2401d25405bbf762abcaf9626eb5d0575377728c70cebe14060a2cc460655",
      "s": "0x0fa220d6798dc95ba9e6bf9469ad0502e1b90caf6546c1fd3c401512cf9c36df",
      "v": 27,
      "creates": null,
      "raw": "0xf86e0186010ada8fb29c8307a1209433a095c66c480d7ceefafd38b12919632854784f880de0b6b3a7640000801ba0c2a2401d25405bbf762abcaf9626eb5d0575377728c70cebe14060a2cc460655a00fa220d6798dc95ba9e6bf9469ad0502e1b90caf6546c1fd3c401512cf9c36df",
      "networkId": 0,
      "chainId": 0
    },
    {
      "hash": "0xef75ad38c8aa2c498cf48df8165a0bef8bc17f417df72b7ee7257a62910584b1",
      "blockHash": "0xf6eb72cb59cfcbde5ab8e1aad64a07eb03c2bab3878e04001121150493b66654",
      "blockNumber": 73948,
      "transactionIndex": 1,
      "confirmations": null,
      "from": "0x19ae27E1b61445EB9f27821A5eB4b3e957319e7e",
      "gasPrice": {
        "_hex": "0xd4147fa33"
      },
      "gasLimit": {
        "_hex": "0x5208"
      },
      "to": "0x32Be343B94f860124dC4fEe278FDCBD38C102D88",
      "value": {
        "_hex": "0x9891d6ed487f8000"
      },
      "nonce": 2,
      "data": "0x",
      "r": "0xed51323e57374363a6c65c42271eff5aa75d018d45a7798e5dece42521a6d420",
      "s": "0x267f94721e336d83230d94a33b05100abcdd038565a48580a7ce1f48a00fab8b",
      "v": 27,
      "creates": null,
      "raw": "0xf86c02850d4147fa338252089432be343b94f860124dc4fee278fdcbd38c102d88889891d6ed487f8000801ba0ed51323e57374363a6c65c42271eff5aa75d018d45a7798e5dece42521a6d420a0267f94721e336d83230d94a33b05100abcdd038565a48580a7ce1f48a00fab8b",
      "networkId": 0,
      "chainId": 0
    }
  ]
}