{
  "hash": "0x026520830a84a4233f138b1c9cdc9f9f5235872d2b35cdb6540343acc51d194f",
  "parentHash": "0x56fed83e92a1b6b53605bf54db05d02420dfff8b18b04fdfd577753fe3355b4d",
  "number": 106611,
  "timestamp": 1439907383,
  "nonce": "0x895c729471b244d0",
  "difficulty": 4481395712279,
  "gasLimit": {
    "_hex": "0x2fefd8"
  },
  "gasUsed": {
    "_hex": "0x20fc6"
  },
  "miner": "0xe6A7a1d47ff21B6321162AEA7C6CB457D5476Bca",
  "extraData": "0x476574682f76312e302e312d38326566323666362f6c696e75782f676f312e34",
  "transactions": [
    {
      "hash": "0xc99f5368b5cbefb7028015b57a2994929ba4772b2d27e8465b90a150dc18e7a5",
      "blockHash": "0x026520830a84a4233f138b1c9cdc9f9f5235872d2b35cdb6540343acc51d194f",
      "blockNumber": 106611,
      "transactionIndex": 0,
      "confirmations": null,
      "from": "0x120A270bbC009644e35F0bB6ab13f95b8199c4ad",
      "gasPrice": {
        "_hex": "0xcc7bc29b8"
      },
      "gasLimit": {
        "_hex": "0x3d090"
      },
      "to": "0x6F82e9631D02d910203Bf51fA534283eC2859f2A",
      "value": {
        "_hex": "0x1a055690d9db80000"
      },
      "nonce": 783,
      "data": "0x",
      "r": "0x5464c38b71e6a63e36b916fcea5bc093708c5ddbae09d99dee9bd9e7cfba4819",
      "s": "0x2edb0cb93b9966cc187f24d2dd49b2b29fb07e929b67e6e1973192ed04eec18a",
      "v": 28,
      "creates": null,
      "raw": "0xf87082030f850cc7bc29b88303d090946f82e9631d02d910203bf51fa534283ec2859f2a8901a055690d9db80000801ca05464c38b71e6a63e36b916fcea5bc093708c5ddbae09d99dee9bd9e7cfba4819a02edb0cb93b9966cc187f24d2dd49b2b29fb07e929b67e6e1973192ed04eec18a",
      "networkId": 0,
      "chainId": 0
    },
    {
      "hash": "0xd4e1057fadf4c397c253e19c90df8cabf33994e54ebd42c8967556c4d3ab8d70",
      "blockHash": "0x026520830a84a4233f138b1c9cdc9f9f5235872d2b35cdb6540343acc51d194f",
      "blockNumber": 106611,
      "transactionIndex": 1,
      "confirmations": null,
      "from": "0x168B5019b818691644835fe69Bf229e17112d52c",
      "gasPrice": {
        "_hex": "0xba43b7400"
      },
      "gasLimit": {
        "_hex": "0x249f0"
      },
      "to": "0xE28e72FCf78647ADCe1F1252F240bbfaebD63BcC",
      "value": {
        "_hex": "0x3cfc82e37e9a7400000"
      },
      "nonce": 0,
      "data": "0x45466f3a",
      "r": "0x77913697303dd85595255deac621cd4a564bfc127e0922c52e04a3ff0b26b723",
      "s": "0x6a53bed38dbb9aedf3cbdfedc2ffb827fc32eef800a30218095cdf4a68e16b4f",
      "v": 27,
      "creates": null,
      "raw": "0xf87380850ba43b7400830249f094e28e72fcf78647adce1f1252f240bbfaebd63bcc8a03cfc82e37e9a74000008445466f3a1ba077913697303dd85595255deac621cd4a564bfc127e0922c52e04a3ff0b26b723a06a53bed38dbb9aedf3cbdfedc2ffb827fc32eef800a30218095cdf4a68e16b4f",
      "networkId": 0,
      "chainId": 0
    }
  ]
}