{
  "hash": "0x6ef245bddaa729e7204ebd7b5d8d344ef7bbdf8081198c0d7faf312cbf1ebd3d",
  "parentHash": "0xfa9ab242f4d231e578de88684ddc6d29ee90e2b3abf9e854caa50735b4371069",
  "number": 108541,
  "timestamp": 1439942162,
  "nonce": "0x730a6ba94199c722",
  "difficulty": 4329814829989,
  "gasLimit": {
    "_hex": "0x2fefd8"
  },
  "gasUsed": {
    "_hex": "0x5208"
  },
  "miner": "0xfFcD9CAE6d9f54fd8ae05296F839892677ff6EaA",
  "extraData": "0x476574682f76312e302e312f77696e646f77732f676f312e342e32",
  "transactions": [
    {
      "hash": "0xa747c7737e4236361ea36227e5a4a1a8cbcd031c6556500dd3662b866e11b648",
      "blockHash": "0x6ef245bddaa729e7204ebd7b5d8d344ef7bbdf8081198c0d7faf312cbf1ebd3d",
      "blockNumber": 108541,
      "transactionIndex": 0,
      "confirmations": null,
      "from": "0x32Be343B94f860124dC4fEe278FDCBD38C102D88",
      "gasPrice": {
        "_hex": "0xd9882fec9"
      },
      "gasLimit": {
        "_hex": "0x5208"
      },
      "to": "0x10c4712a317A10F60fE9347b199400d6BaA89558",
      "value": {
        "_hex": "0xc59ea48da190000"
      },
      "nonce": 1251,
      "data": "0x",
      "r": "0x29457c281839b4be5e11dc74ca50bd9f5866a5497a7920daf9c06ea2c17ef6ab",
      "s": "0x5f5c10553b1d3a79897a03d0f61554f2738a2671ad27ce700605dfcce6e3763e",
      "v": 28,
      "creates": null,
      "raw": "0xf86e8204e3850d9882fec98252089410c4712a317a10f60fe9347b199400d6baa89558880c59ea48da190000801ca029457c281839b4be5e11dc74ca50bd9f5866a5497a7920daf9c06ea2c17ef6aba05f5c10553b1d3a79897a03d0f61554f2738a2671ad27ce700605dfcce6e3763e",
      "networkId": 0,
      "chainId": 0
    }
  ]
}