{
  "hash": "0xce25b3474dc3def66ddf9f898bf787ffed532183064a54277a2b5d5a093e04f3",
  "parentHash": "0xf15eded7be289dc7e99993992590904b926acee2d7ebbec9432c9e992bdbbf99",
  "number": 115469,
  "timestamp": 1440057816,
  "nonce": "0x4c29ff8e49c8ca2d",
  "difficulty": 4560504593106,
  "gasLimit": {
    "_hex": "0x2fefd8"
  },
  "gasUsed": {
    "_hex": "0x5208"
  },
  "miner": "0xa50ec0D39fa913E62f1Bae7074E6F36caA71855b",
  "extraData": "0xd783010001844765746887676f312e342e32856c696e7578",
  "transactions": [
    {
      "hash": "0x215216efacd436b863aaeb5e3c435f0a858551a4cd59276b28d1b8284c0c5dcf",
      "blockHash": "0xce25b3474dc3def66ddf9f898bf787ffed532183064a54277a2b5d5a093e04f3",
      "blockNumber": 115469,
      "transactionIndex": 0,
      "confirmations": null,
      "from": "0x55e64970e28367941E1A28e3Adaea732534A3C10",
      "gasPrice": {
        "_hex": "0xd8c1aeaee"
      },
      "gasLimit": {
        "_hex": "0x15f90"
      },
      "to": "0x31191beEB5a3d7f5eBC5B193e98bd15ce10Eb249",
      "value": {
        "_hex": "0xde0b6b3a7640000"
      },
      "nonce": 2,
      "data": "0x",
      "r": "0x4995ab4fc067f0ad9659ef55f5e18bbc139f122364424a4f392c25e47bd1d2e1",
      "s": "0x28b6cc01a5ff2b87b2cb21afc5a26c235483f6e747f8bff6fa17e9af2136e642",
      "v": 27,
      "creates": null,
      "raw": "0xf86d02850d8c1aeaee83015f909431191beeb5a3d7f5ebc5b193e98bd15ce10eb249880de0b6b3a7640000801ba04995ab4fc067f0ad9659ef55f5e18bbc139f122364424a4f392c25e47bd1d2e1a028b6cc01a5ff2b87b2cb21afc5a26c235483f6e747f8bff6fa17e9af2136e642",
      "networkId": 0,
      "chainId": 0
    }
  ]
}