{
  "hash": "0xb4f8ce8af1366309e57990781efde2d1288294045c1d2ed76aeef36e3badc7b2",
  "parentHash": "0x0109e31f4f24bfb87499cccbe94bd6bd934ef4be60426663c9e99548dd893e33",
  "number": 68629,
  "timestamp": 1439291077,
  "nonce": "0x676bb27caa60e92b",
  "difficulty": 2019206217761,
  "gasLimit": {
    "_hex": "0x2fefd8"
  },
  "gasUsed": {
    "_hex": "0x14820"
  },
  "miner": "0x47ff6576639c2e94762eA5443978D7681C0E78DC",
  "extraData": "0x476574682f76312e302e312f6c696e75782f676f312e342e32",
  "transactions": [
    {
      "hash": "0xb2df4ea0e8f0e9a364917b5ff0bc415f8950a32a163286474e180b87073e8376",
      "blockHash": "0xb4f8ce8af1366309e57990781efde2d1288294045c1d2ed76aeef36e3badc7b2",
      "blockNumber": 68629,
      "transactionIndex": 0,
      "confirmations": null,
      "from": "0x631028ff47e59BE70FD40C268Cd70a689387c0d4",
      "gasPrice": {
        "_hex": "0xba43b7400"
      },
      "gasLimit": {
        "_hex": "0x5208"
      },
      "to": "0xc5FF7128adfd7baBdBf1F6Edf8395a1acFF9c1c4",
      "value": {
        "_hex": "0x163b86e28a38000"
      },
      "nonce": 1,
      "data": "0x",
      "r": "0xeae569243dd8e5e6aa64e547cfcfb35d7f0da1b4aeae8461e4bd001bcf5184ab",
      "s": "0x6e932bb029823b38eefe6d75ab2bd762f2d57f36a56b8c2b0a2bf3d41e636b94",
      "v": 27,
      "creates": null,
      "raw": "0xf86c01850ba43b740082520894c5ff7128adfd7babdbf1f6edf8395a1acff9c1c4880163b86e28a38000801ba0eae569243dd8e5e6aa64e547cfcfb35d7f0da1b4aeae8461e4bd001bcf5184aba06e932bb029823b38eefe6d75ab2bd762f2d57f36a56b8c2b0a2bf3d41e636b94",
      "networkId": 0,
      "chainId": 0
    },
    {
      "hash": "0x885ec3139d208dcbf8d059a38f37a5e0714b24f9c71d916de7da834b109089df",
      "blockHash": "0xb4f8ce8af1366309e57990781efde2d1288294045c1d2ed76aeef36e3badc7b2",
      "blockNumber": 68629,
      "transactionIndex": 1,
      "confirmations": null,
      "from": "0x8a483A01606f4C6F74b66934941Ea4c9efA87a21",
      "gasPrice": {
        "_hex": "0xba43b7400"
      },
      "gasLimit": {
        "_hex": "0x5208"
      },
      "to": "0x92E3B0A3FF7e7537d9c4aC548D7ecE1DC1217037",
      "value": {
        "_hex": "0x163b86e28a38000"
      },
      "nonce": 1,
      "data": "0x",
      "r": "0xb6b137d5988aed1c51a865c5570c75c17f942476f1524c2967fab8ffb16a0ab6",
      "s": "0x74717748ca2c7f2bfbef1565355807d97427acb60267996def4bde9ade779720",
      "v": 27,
      "creates": null,
      "raw": "0xf86c01850ba43b74008252089492e3b0a3ff7e7537d9c4ac548d7ece1dc1217037880163b86e28a38000801ba0b6b137d5988aed1c51a865c5570c75c17f942476f1524c2967fab8ffb16a0ab6a074717748ca2c7f2bfbef1565355807d97427acb60267996def4bde9ade779720",
      "networkId": 0,
      "chainId": 0
    },
    {
      "hash": "0x1480dcdcd2d90e8040278827d5fda2924beee8e1a064af21ec746f6c0828d865",
      "blockHash": "0xb4f8ce8af1366309e57990781efde2d1288294045c1d2ed76aeef36e3badc7b2",
      "blockNumber": 68629,
      "transactionIndex": 2,
      "confirmations": null,
      "from": "0x835D8b88f120af229B01C47B708D0afa7225A18a",
      "gasPrice": {
        "_hex": "0xba43b7400"
      },
      "gasLimit": {
        "_hex": "0x5208"
      },
      "to": "0x4A40a08196C3d9d2BEbbb24C5f627F6055D40D42",
      "value": {
        "_hex": "0x163b86e28a38000"
      },
      "nonce": 1,
      "data": "0x",
      "r": "0x82eaf95d2b789d174813620e93c266aafe7691bb311f4a9f288a44de13e246dd",
      "s": "0x1a3e2b2671e943c61144d2e2eb55698fe17ba8ce886fb9576a1224fece58e10a",
      "v": 28,
      "creates": null,
      "raw": "0xf86c01850ba43b7400825208944a40a08196c3d9d2bebbb24c5f627f6055d40d42880163b86e28a38000801ca082eaf95d2b789d174813620e93c266aafe7691bb311f4a9f288a44de13e246dda01a3e2b2671e943c61144d2e2eb55698fe17ba8ce886fb9576a1224fece58e10a",
      "networkId": 0,
      "chainId": 0
    },
    {
      "hash": "0x757610479e2c608655d16d157fcdbeab4443190dafb074adc2b49b4232b7a695",
      "blockHash": "0xb4f8ce8af1366309e57990781efde2d1288294045c1d2ed76aeef36e3badc7b2",
      "blockNumber": 68629,
      "transactionIndex": 3,
      "confirmations": null,
      "from": "0xA001dF463464b81EF303B244E25fcbCE459Ba042",
      "gasPrice": {
        "_hex": "0xba43b7400"
      },
      "gasLimit": {
        "_hex": "0x5208"
      },
      "to": "0xC7cEE62Be98B0934388d47F7Dbc114e9f071DeF3",
      "value": {
        "_hex": "0x163b86e28a38000"
      },
      "nonce": 1,
      "data": "0x",
      "r": "0x13e29d824633d02e28acd61edfccb0c2ec39876b17d181dfaf6f342bcb59970e",
      "s": "0x33bd016053143ed37a1db831a86a09829624f1f93d8169356acbd226c9fa3c80",
      "v": 27,
      "creates": null,
      "raw": "0xf86c01850ba43b740082520894c7cee62be98b0934388d47f7dbc114e9f071def3880163b86e28a38000801ba013e29d824633d02e28acd61edfccb0c2ec39876b17d181dfaf6f342bcb59970ea033bd016053143ed37a1db831a86a09829624f1f93d8169356acbd226c9fa3c80",
      "networkId": 0,
      "chainId": 0
    }
  ]
}