{
  "hash": "0x4a287c9814e070a05dc993d19d9988b5800ae4b216e5babf530d3c405d707f1e",
  "parentHash": "0x85b606459271f70f7bc705e14482561d6d97a0c65dde7115a1d8b9d50cfe3af3",
  "number": 85354,
  "timestamp": 1439562325,
  "nonce": "0x4b93ff3a4ead3464",
  "difficulty": 2734330189047,
  "gasLimit": {
    "_hex": "0x2fefd8"
  },
  "gasUsed": {
    "_hex": "0x5208"
  },
  "miner": "0x9746c7e1ef2bd21FF3997fa467593a89cb852BD0",
  "extraData": "0x476574682f76312e302e312f77696e646f77732f676f312e342e32",
  "transactions": [
    {
      "hash": "0x7f6821f337df9894e11c7536e393fc0af3f697df1e820855d0da2b4718c864f6",
      "blockHash": "0x4a287c9814e070a05dc993d19d9988b5800ae4b216e5babf530d3c405d707f1e",
      "blockNumber": 85354,
      "transactionIndex": 0,
      "confirmations": null,
      "from": "0x7937e37508542e51f7087c524108ce7235e7C72e",
      "gasPrice": {
        "_hex": "0xd7b64588d"
      },
      "gasLimit": {
        "_hex": "0x5208"
      },
      "to": "0x32Be343B94f860124dC4fEe278FDCBD38C102D88",
      "value": {
        "_hex": "0x299dd228e6200000"
      },
      "nonce": 0,
      "data": "0x",
      "r": "0x49e2b7848712ca5dbde7e9515334daacd47c59ab78ca2ff2bae28634ae1be417",
      "s": "0x3c78b6c9e4409fe3729b020cb16836498464a0346a26131c60e7b5eaabd83f5d",
      "v": 28,
      "creates": null,
      "raw": "0xf86c80850d7b64588d8252089432be343b94f860124dc4fee278fdcbd38c102d8888299dd228e6200000801ca049e2b7848712ca5dbde7e9515334daacd47c59ab78ca2ff2bae28634ae1be417a03c78b6c9e4409fe3729b020cb16836498464a0346a26131c60e7b5eaabd83f5d",
      "networkId": 0,
      "chainId": 0
    }
  ]
}