{
  "hash": "0x9259eeafb789cde41888ca25d66cd3b5cd0eeb920b9fdc36d9101b2f8c733350",
  "parentHash": "0x64b1ffef464fcd4b967bce861f648d7807af4c396f0d6d4415cfb0a04875ea2e",
  "number": 91331,
  "timestamp": 1439654006,
  "nonce": "0x74d0ea623f033ad5",
  "difficulty": 3469267715068,
  "gasLimit": {
    "_hex": "0x2fefd8"
  },
  "gasUsed": {
    "_hex": "0x5208"
  },
  "miner": "0x77EC9ad4A7E9418774C29415CAaF4Ee0da96eF64",
  "extraData": "0x",
  "transactions": [
    {
      "hash": "0x3b0a54319d3f5f624b30b0f1a5729b055bc0c9fc1610dc1a14bea43c03bc6bf0",
      "blockHash": "0x9259eeafb789cde41888ca25d66cd3b5cd0eeb920b9fdc36d9101b2f8c733350",
      "blockNumber": 91331,
      "transactionIndex": 0,
      "confirmations": null,
      "from": "0x664254957B416b15EE4A881B59Deab3c4159E549",
      "gasPrice": {
        "_hex": "0xde5123b33"
      },
      "gasLimit": {
        "_hex": "0x5208"
      },
      "to": "0x32Be343B94f860124dC4fEe278FDCBD38C102D88",
      "value": {
        "_hex": "0xd02640b875e33000"
      },
      "nonce": 1,
      "data": "0x",
      "r": "0x693de26870f2dec6cbd1f76e6b5e97f251d0c57ee92cfa5d7652a50959cbb974",
      "s": "0x06b0c9b502540c7876f88fd79cabb405283dedf17628054117e988b3aa1bbb6d",
      "v": 27,
      "creates": null,
      "raw": "0xf86c01850de5123b338252089432be343b94f860124dc4fee278fdcbd38c102d8888d02640b875e33000801ba0693de26870f2dec6cbd1f76e6b5e97f251d0c57ee92cfa5d7652a50959cbb974a006b0c9b502540c7876f88fd79cabb405283dedf17628054117e988b3aa1bbb6d",
      "networkId": 0,
      "chainId": 0
    }
  ]
}