{
  "hash": "0xa75ef3a3aa810c05e3bc08b64ee279a99d0dc46801d21d5750be2b856513645e",
  "parentHash": "0x1b3cdefded18123b0afdecc6a4aeed2da069f35ca5d4efb2c35285ec7b26d2dc",
  "number": 119446,
  "timestamp": 1440143187,
  "nonce": "0x5ff71c49a86966cb",
  "difficulty": 4381575636244,
  "gasLimit": {
    "_hex": "0x2fefd8"
  },
  "gasUsed": {
    "_hex": "0x5208"
  },
  "miner": "0x16a4739e52878d2924e0F51cb5D3068aFafb397B",
  "extraData": "0xd783010002844765746887676f312e342e32856c696e7578",
  "transactions": [
    {
      "hash": "0xed08a3dda597854825ae0ac9d70cfaf3eab55eb08841f642e244be585e4aff6d",
      "blockHash": "0xa75ef3a3aa810c05e3bc08b64ee279a99d0dc46801d21d5750be2b856513645e",
      "blockNumber": 119446,
      "transactionIndex": 0,
      "confirmations": null,
      "from": "0x7001C4730b81A539eF8b760A3eEb14C64515137B",
      "gasPrice": {
        "_hex": "0xba43b7400"
      },
      "gasLimit": {
        "_hex": "0x5208"
      },
      "to": "0x32Be343B94f860124dC4fEe278FDCBD38C102D88",
      "value": {
        "_hex": "0x14b0ca097c62cc000"
      },
      "nonce": 10,
      "data": "0x",
      "r": "0xa11fa5a2ab724576a3ee08fef05295a8ff7611ba9e977ac4fe5702fbdc12cb52",
      "s": "0x645e4a75a452888a8e4cf4c96a6a288263e6734887b567483baf9d017f2e8132",
      "v": 27,
      "creates": null,
      "raw": "0xf86d0a850ba43b74008252089432be343b94f860124dc4fee278fdcbd38c102d8889014b0ca097c62cc000801ba0a11fa5a2ab724576a3ee08fef05295a8ff7611ba9e977ac4fe5702fbdc12cb52a0645e4a75a452888a8e4cf4c96a6a288263e6734887b567483baf9d017f2e8132",
      "networkId": 0,
      "chainId": 0
    }
  ]
}