{
  "hash": "0x9b30d9a2bd787bc0fca548b86f1547e34d8a007d2f227942816b1815c8047db3",
  "parentHash": "0xbb98ad7d8681a3724c8ff12ae4f8f72814af5f164a41e98977f9605e6139b2f3",
  "number": 80161,
  "timestamp": 1439481119,
  "nonce": "0xf31685abf1a5fa6f",
  "difficulty": 2364364915111,
  "gasLimit": {
    "_hex": "0x2fefd8"
  },
  "gasUsed": {
    "_hex": "0x5208"
  },
  "miner": "0x5B3e850E39e6f2C7dD38707b649e2B3536F14C0b",
  "extraData": "0x476574682f76312e302e312f64617277696e2f676f312e342e32",
  "transactions": [
    {
      "hash": "0xb1b5deba5e9811c676c31df86d3f407c0ad117d5886d55e10471e05346b86ac7",
      "blockHash": "0x9b30d9a2bd787bc0fca548b86f1547e34d8a007d2f227942816b1815c8047db3",
      "blockNumber": 80161,
      "transactionIndex": 0,
      "confirmations": null,
      "from": "0xCfaC2E1bf33205B05533691a02267ee19CD81836",
      "gasPrice": {
        "_hex": "0xd641f460d"
      },
      "gasLimit": {
        "_hex": "0x15f90"
      },
      "to": "0xEb7e13586E7BE15Cbe4ADEb0a766C5AfEAD2c0D0",
      "value": {
        "_hex": "0xde0b6b3a7640000"
      },
      "nonce": 0,
      "data": "0x",
      "r": "0xfbefa031de2749b832dfc21a4061333a4d116fec6d9b37064c3ac78b5296405c",
      "s": "0x4fa9c9ee208d8c18985837869d424a57056dceab29a9c16638664949873efa73",
      "v": 28,
      "creates": null,
      "raw": "0xf86d80850d641f460d83015f9094eb7e13586e7be15cbe4adeb0a766c5afead2c0d0880de0b6b3a7640000801ca0fbefa031de2749b832dfc21a4061333a4d116fec6d9b37064c3ac78b5296405ca04fa9c9ee208d8c18985837869d424a57056dceab29a9c16638664949873efa73",
      "networkId": 0,
      "chainId": 0
    }
  ]
}