{
  "hash": "0xe1053570a4936e7325f91718cd524a9e48fd7ea57520e8b395065fb65b2fb6f0",
  "parentHash": "0xeab582e7c621bca2ea4d608b7b7a6cbbe4d3c1ee1d126f05f10153ccd3a911c3",
  "number": 47715,
  "timestamp": 1438945296,
  "nonce": "0xc9c35c16839c4a9c",
  "difficulty": 1442431745975,
  "gasLimit": {
    "_hex": "0xe832"
  },
  "gasUsed": {
    "_hex": "0xa674"
  },
  "miner": "0xf8E0CA3Ed80bd541b94BEdCf259e8CF2141A9523",
  "extraData": "0x476574682f76312e302e312f77696e646f77732f676f312e342e32",
  "transactions": [
    {
      "hash": "0x25fc3cf281de9998238497cf6eb71d534e35d34d8fc4bc8550a20cb158191825",
      "blockHash": "0xe1053570a4936e7325f91718cd524a9e48fd7ea57520e8b395065fb65b2fb6f0",
      "blockNumber": 47715,
      "transactionIndex": 0,
      "confirmations": null,
      "from": "0x35a549e8fD6c368D6DCCa6D2E7d18e4db95F5284",
      "gasPrice": {
        "_hex": "0xd7d40ace3"
      },
      "gasLimit": {
        "_hex": "0x9c40"
      },
      "to": "0x2910543Af39abA0Cd09dBb2D50200b3E800A63D2",
      "value": {
        "_hex": "0x29a2241af62c0000"
      },
      "nonce": 1,
      "data": "0x454e34433248304a30",
      "r": "0xd13fe0e02370cfcbb7816f9bba604f010a93a75fb9887d63bf905cc68687a8f7",
      "s": "0x53e88985ff73dc1f3180c17f2daaaca9a78166129ff92bf1b656b023e3dd9416",
      "v": 28,
      "creates": null,
      "raw": "0xf87501850d7d40ace3829c40942910543af39aba0cd09dbb2d50200b3e800a63d28829a2241af62c000089454e34433248304a301ca0d13fe0e02370cfcbb7816f9bba604f010a93a75fb9887d63bf905cc68687a8f7a053e88985ff73dc1f3180c17f2daaaca9a78166129ff92bf1b656b023e3dd9416",
      "networkId": 0,
      "chainId": 0
    },
    {
      "hash": "0xf92df514d13da772e47ebbad29b8789c1861e6918513604e82d55cde29b4e174",
      "blockHash": "0xe1053570a4936e7325f91718cd524a9e48fd7ea57520e8b395065fb65b2fb6f0",
      "blockNumber": 47715,
      "transactionIndex": 1,
      "confirmations": null,
      "from": "0xe6A7a1d47ff21B6321162AEA7C6CB457D5476Bca",
      "gasPrice": {
        "_hex": "0xd62040341"
      },
      "gasLimit": {
        "_hex": "0x55f0"
      },
      "to": "0xa8a97ab562BC801a2C5f47b58ED0f7b0C3076a1c",
      "value": {
        "_hex": "0x422df53a0bb490470"
      },
      "nonce": 221,
      "data": "0x",
      "r": "0xaca6fe7fa8a6d50025dbc359cb946247778d2e0f2ab3c2fa452e3abc28c60347",
      "s": "0x3e188e9fc15dd84b50ee56844a962b32d211db9e0c4aae888d6be7de46f180a6",
      "v": 27,
      "creates": null,
      "raw": "0xf86e81dd850d620403418255f094a8a97ab562bc801a2c5f47b58ed0f7b0c3076a1c890422df53a0bb490470801ba0aca6fe7fa8a6d50025dbc359cb946247778d2e0f2ab3c2fa452e3abc28c60347a03e188e9fc15dd84b50ee56844a962b32d211db9e0c4aae888d6be7de46f180a6",
      "networkId": 0,
      "chainId": 0
    }
  ]
}