{
  "hash": "0x771d95b8398a58b0dfb916d4c00cd9500819740af4e9423c744afaf159645971",
  "parentHash": "0x2bc42c4e4affa75b61536bbf27a5a391eba3b8f5c12b461319fb9f0efad7b52e",
  "number": 92862,
  "timestamp": 1439678257,
  "nonce": "0xebebfe44da6c3712",
  "difficulty": 3654674843019,
  "gasLimit": {
    "_hex": "0x2fefd8"
  },
  "gasUsed": {
    "_hex": "0x5208"
  },
  "miner": "0x2134e2a2b718DCa96580ECAC31E653Ea1fdd58DA",
  "extraData": "0x476574682f76312e302e312f77696e646f77732f676f312e342e32",
  "transactions": [
    {
      "hash": "0xd846347b2d60862dbb991fd86bb41848816ab2a32dbb633436007651115d8f37",
      "blockHash": "0x771d95b8398a58b0dfb916d4c00cd9500819740af4e9423c744afaf159645971",
      "blockNumber": 92862,
      "transactionIndex": 0,
      "confirmations": null,
      "from": "0xC603Ab5ef41fC61AA8b76bEddb09e3Cfcbb174BD",
      "gasPrice": {
        "_hex": "0xd83232006"
      },
      "gasLimit": {
        "_hex": "0x15f90"
      },
      "to": "0x8F79f76381Aad7B98C19aF55eE75fdfEeb012211",
      "value": {
        "_hex": "0xa4cc799563c380000"
      },
      "nonce": 24,
      "data": "0x",
      "r": "0x75f3dc5ed9efe57cae01e103de1b84f29c257a8fa03c7cf0e8eab690b0ce212b",
      "s": "0x09e9739538bfbc2506c139e75b0cbe8cff065b89a76151fdaeec1e765467345e",
      "v": 28,
      "creates": null,
      "raw": "0xf86e18850d8323200683015f90948f79f76381aad7b98c19af55ee75fdfeeb012211890a4cc799563c380000801ca075f3dc5ed9efe57cae01e103de1b84f29c257a8fa03c7cf0e8eab690b0ce212ba009e9739538bfbc2506c139e75b0cbe8cff065b89a76151fdaeec1e765467345e",
      "networkId": 0,
      "chainId": 0
    }
  ]
}