{
  "hash": "0x4a5342a8bc518eaf10c4d537159aa7c11cba63fbb364e1d2c43f9d635532fea1",
  "parentHash": "0xd00c2dc036e1abe1eb217caaa3e50cb15c2080f8e9b18f9ecba7bc214fc1ef45",
  "number": 109384,
  "timestamp": 1439955609,
  "nonce": "0x673b3d6ee508efce",
  "difficulty": 4477727629296,
  "gasLimit": {
    "_hex": "0x2fefd8"
  },
  "gasUsed": {
    "_hex": "0x5208"
  },
  "miner": "0xbb7B8287f3F0a933474a79eAe42CBCa977791171",
  "extraData": "0x476574682f4c5649562f76312e302e312f6c696e75782f676f312e342e32",
  "transactions": [
    {
      "hash": "0x5c4a0dbd3006c76eb3d8c721992ad4e6c3d4068e557977f4e6e0b645f2500312",
      "blockHash": "0x4a5342a8bc518eaf10c4d537159aa7c11cba63fbb364e1d2c43f9d635532fea1",
      "blockNumber": 109384,
      "transactionIndex": 0,
      "confirmations": null,
      "from": "0xe275C9b8990069b909572AD61eE5172586Ca535c",
      "gasPrice": {
        "_hex": "0xba43b7400"
      },
      "gasLimit": {
        "_hex": "0x5208"
      },
      "to": "0xC47Aaa860008be6f65B58c6C6E02a84e666EfE31",
      "value": {
        "_hex": "0x1b1abd94f8528b11e0"
      },
      "nonce": 2,
      "data": "0x",
      "r": "0xad05d181d826a5fde5bbf85a541aab56a073f7ea6882e12969b9b0d59133e0ec",
      "s": "0x4b8221482f96b994def5cbff62a0f43baef6bf7111a85ea3ca694ff9e133aa24",
      "v": 28,
      "creates": null,
      "raw": "0xf86d02850ba43b740082520894c47aaa860008be6f65b58c6c6e02a84e666efe31891b1abd94f8528b11e0801ca0ad05d181d826a5fde5bbf85a541aab56a073f7ea6882e12969b9b0d59133e0eca04b8221482f96b994def5cbff62a0f43baef6bf7111a85ea3ca694ff9e133aa24",
      "networkId": 0,
      "chainId": 0
    }
  ]
}