{
  "hash": "0x0f51582d6a8b07f32544ae311be3622d3084e4967c57116136ac501b18a03fbf",
  "parentHash": "0x1864d8528f03252ccfea399938634b090b0316791d2a163559b62f9264d883b5",
  "number": 108600,
  "timestamp": 1439943136,
  "nonce": "0x4bd13b47696d6c78",
  "difficulty": 4344608766083,
  "gasLimit": {
    "_hex": "0x2fefd8"
  },
  "gasUsed": {
    "_hex": "0x5208"
  },
  "miner": "0x0D4EcC7d750180EBf4A9Df728B6669B5Bceb5E40",
  "extraData": "0x",
  "transactions": [
    {
      "hash": "0xa90e244692b1d8342bd5754a51fbd1ec895a7d5b0b291df26768c6556ab6faad",
      "blockHash": "0x0f51582d6a8b07f32544ae311be3622d3084e4967c57116136ac501b18a03fbf",
      "blockNumber": 108600,
      "transactionIndex": 0,
      "confirmations": null,
      "from": "0xF5EeDc192aB70b08D8354384aD94efD095849E00",
      "gasPrice": {
        "_hex": "0xcc4103cab"
      },
      "gasLimit": {
        "_hex": "0x5208"
      },
      "to": "0x32Be343B94f860124dC4fEe278FDCBD38C102D88",
      "value": {
        "_hex": "0xdfc7409db2abd8000"
      },
      "nonce": 48,
      "data": "0x",
      "r": "0x05a77111d391971554f8b15dc9a4940bd86ff05d4406af6f960d209b5a3e0471",
      "s": "0x4b61ea40e134780e05f5c76b2675fbf2c2228f8e987d88c4dd8d647945e9bccc",
      "v": 27,
      "creates": null,
      "raw": "0xf86d30850cc4103cab8252089432be343b94f860124dc4fee278fdcbd38c102d88890dfc7409db2abd8000801ba005a77111d391971554f8b15dc9a4940bd86ff05d4406af6f960d209b5a3e0471a04b61ea40e134780e05f5c76b2675fbf2c2228f8e987d88c4dd8d647945e9bccc",
      "networkId": 0,
      "chainId": 0
    }
  ]
}