{
  "hash": "0xbdcadfe7c7a8c47fa0248df5e8f192fadc5aad08bb314090ead374a5846de6bb",
  "parentHash": "0x2843471bd466cfbd9ade4118a79cc7fda8c8eff06e77d89d3629b7722f786b4f",
  "number": 73249,
  "timestamp": 1439365892,
  "nonce": "0x2d8fcb75d0806bc2",
  "difficulty": 2205647066887,
  "gasLimit": {
    "_hex": "0x2fefd8"
  },
  "gasUsed": {
    "_hex": "0xa674"
  },
  "miner": "0xeB1325C8D9d3ea8D74aC11F4B00F1B2367686319",
  "extraData": "0x476574682f76312e302e312f77696e646f77732f676f312e342e32",
  "transactions": [
    {
      "hash": "0x2ca36465cca42bc8ba1bd7f8ffbb31c5b8c9f580a91d00789405bdd717aba5c9",
      "blockHash": "0xbdcadfe7c7a8c47fa0248df5e8f192fadc5aad08bb314090ead374a5846de6bb",
      "blockNumber": 73249,
      "transactionIndex": 0,
      "confirmations": null,
      "from": "0x40B9b889A21Ff1534d018D71Dc406122EBcf3F5A",
      "gasPrice": {
        "_hex": "0x1184557b59f"
      },
      "gasLimit": {
        "_hex": "0x15f90"
      },
      "to": "0x50Da60D4Da4c04E154eA22AF84437e69Dd6dA401",
      "value": {
        "_hex": "0x16345785d8a0000"
      },
      "nonce": 7,
      "data": "0x",
      "r": "0x5812f501fb564c80b26adb35fac1527b3da040db3b074fe8458bcc6d758e99d1",
      "s": "0x5b469e9180ef721c30a81931f3c72fd41fcde2383c1f554eed4be02190369847",
      "v": 28,
      "creates": null,
      "raw": "0xf86e078601184557b59f83015f909450da60d4da4c04e154ea22af84437e69dd6da40188016345785d8a0000801ca05812f501fb564c80b26adb35fac1527b3da040db3b074fe8458bcc6d758e99d1a05b469e9180ef721c30a81931f3c72fd41fcde2383c1f554eed4be02190369847",
      "networkId": 0,
      "chainId": 0
    },
    {
      "hash": "0x282722d0e4b47ad74d87e8b43095633b2d2dc0eaa850fbba8ad21fea6ca78fc3",
      "blockHash": "0xbdcadfe7c7a8c47fa0248df5e8f192fadc5aad08bb314090ead374a5846de6bb",
      "blockNumber": 73249,
      "transactionIndex": 1,
      "confirmations": null,
      "from": "0x7294c918b1aefB4d25927eF9d799e71F93a28E85",
      "gasPrice": {
        "_hex": "0x110c8f7d8de"
      },
      "gasLimit": {
        "_hex": "0xc350"
      },
      "to": "0x2910543Af39abA0Cd09dBb2D50200b3E800A63D2",
      "value": {
        "_hex": "0xa494f6ba9525f0000"
      },
      "nonce": 1,
      "data": "0x454e36444a45333347",
      "r": "0x55bcbc2b68a0c32049a07c2af4cc05c7337650dbe843d048023092d66a353824",
      "s": "0x8663328b9f1752011df7bb92f97000c9c588ebcd274c6fd36d5fca11c7e8b5ca",
      "v": 27,
      "creates": null,
      "raw": "0xf87701860110c8f7d8de82c350942910543af39aba0cd09dbb2d50200b3e800a63d2890a494f6ba9525f000089454e36444a453333471ba055bcbc2b68a0c32049a07c2af4cc05c7337650dbe843d048023092d66a353824a08663328b9f1752011df7bb92f97000c9c588ebcd274c6fd36d5fca11c7e8b5ca",
      "networkId": 0,
      "chainId": 0
    }
  ]
}