{
  "hash": "0x2af35bbcb5a95811d857f725c7c53b4378d5360b3731ba2098e1846423272ff6",
  "parentHash": "0x220161736ef1164f2679edd0648f2061b4b22b82ad1b273cfb8384ec3d170662",
  "number": 121438,
  "timestamp": 1440177101,
  "nonce": "0x7643d7c3b7cca975",
  "difficulty": 4432171657139,
  "gasLimit": {
    "_hex": "0x2fefd8"
  },
  "gasUsed": {
    "_hex": "0xa410"
  },
  "miner": "0xe6A7a1d47ff21B6321162AEA7C6CB457D5476Bca",
  "extraData": "0xd783010002844765746887676f312e342e32856c696e7578",
  "transactions": [
    {
      "hash": "0x9f5cd46832a3a8008dd8c3802b31347b04b428c9931e2cd7b01f16c92143a895",
      "blockHash": "0x2af35bbcb5a95811d857f725c7c53b4378d5360b3731ba2098e1846423272ff6",
      "blockNumber": 121438,
      "transactionIndex": 0,
      "confirmations": null,
      "from": "0x120A270bbC009644e35F0bB6ab13f95b8199c4ad",
      "gasPrice": {
        "_hex": "0xba43b7400"
      },
      "gasLimit": {
        "_hex": "0x3d090"
      },
      "to": "0xdDbddD1BBd38fFADE0305d30f02028D92e9f3Aa8",
      "value": {
        "_hex": "0x2086ac351052600000"
      },
      "nonce": 977,
      "data": "0x",
      "r": "0xd9b9a20ab24f12b0bb7713c27eb7aaaa49acd61d4206a19316f2b58da9677e54",
      "s": "0x1907ddd44b1c1061aa2cb7c67b2489fb75792c98e2909b6ef53954eb494b2266",
      "v": 27,
      "creates": null,
      "raw": "0xf8708203d1850ba43b74008303d09094ddbddd1bbd38ffade0305d30f02028d92e9f3aa8892086ac351052600000801ba0d9b9a20ab24f12b0bb7713c27eb7aaaa49acd61d4206a19316f2b58da9677e54a01907ddd44b1c1061aa2cb7c67b2489fb75792c98e2909b6ef53954eb494b2266",
      "networkId": 0,
      "chainId": 0
    },
    {
      "hash": "0x524b14174f37a8fda4ce6a1927676bd65131102f64ab25c07114f3b297a30f6a",
      "blockHash": "0x2af35bbcb5a95811d857f725c7c53b4378d5360b3731ba2098e1846423272ff6",
      "blockNumber": 121438,
      "transactionIndex": 1,
      "confirmations": null,
      "from": "0x120A270bbC009644e35F0bB6ab13f95b8199c4ad",
      "gasPrice": {
        "_hex": "0xba43b7400"
      },
      "gasLimit": {
        "_hex": "0x3d090"
      },
      "to": "0xe053AcD313B1EC82d1AD41b58311ead80B7a50c2",
      "value": {
        "_hex": "0x4121f64e5d010f400"
      },
      "nonce": 978,
      "data": "0x",
      "r": "0x6293c60be3956740076de60b4312f93e1b33e669605c24f3f7207def204941ce",
      "s": "0x6851e886cb9d7a4a4f8f09d73a275e4c0b143d0189f83940cc0024520b69337c",
      "v": 27,
      "creates": null,
      "raw": "0xf8708203d2850ba43b74008303d09094e053acd313b1ec82d1ad41b58311ead80b7a50c28904121f64e5d010f400801ba06293c60be3956740076de60b4312f93e1b33e669605c24f3f7207def204941cea06851e886cb9d7a4a4f8f09d73a275e4c0b143d0189f83940cc0024520b69337c",
      "networkId": 0,
      "chainId": 0
    }
  ]
}