{
  "hash": "0x585381c3678044a85a54597c0a9de7df493b9b7d9326f0e4dc929f2c821b4595",
  "parentHash": "0x83bb490f8fc6f98db34e1e764ec65a430c22ab1864127e10e246d8104dbbb136",
  "number": 63382,
  "timestamp": 1439203436,
  "nonce": "0x92c412f4086a2565",
  "difficulty": 1835172623892,
  "gasLimit": {
    "_hex": "0x2fefd8"
  },
  "gasUsed": {
    "_hex": "0x5208"
  },
  "miner": "0xbb7B8287f3F0a933474a79eAe42CBCa977791171",
  "extraData": "0x476574682f4c5649562f76312e302e312f6c696e75782f676f312e342e32",
  "transactions": [
    {
      "hash": "0x9ef1305061cd7c8739b5901425bf397a46ce5eed8fd2a45e81330bd4a5da73c6",
      "blockHash": "0x585381c3678044a85a54597c0a9de7df493b9b7d9326f0e4dc929f2c821b4595",
      "blockNumber": 63382,
      "transactionIndex": 0,
      "confirmations": null,
      "from": "0x32Be343B94f860124dC4fEe278FDCBD38C102D88",
      "gasPrice": {
        "_hex": "0xcd36f052b"
      },
      "gasLimit": {
        "_hex": "0x5208"
      },
      "to": "0x333Ad1596401e05Aea2d36Ca47318eF4Cd2cB3DF",
      "value": {
        "_hex": "0x1d6d322d44c9010000"
      },
      "nonce": 163,
      "data": "0x",
      "r": "0x839c29ef4729b7537e46877b7a48f4d971b5e59c472fb7a90952e4f895183b76",
      "s": "0x6b4e14238bfc931c73570fc1baf3e148fa42a095930ce664e620f103712c9543",
      "v": 28,
      "creates": null,
      "raw": "0xf86e81a3850cd36f052b82520894333ad1596401e05aea2d36ca47318ef4cd2cb3df891d6d322d44c9010000801ca0839c29ef4729b7537e46877b7a48f4d971b5e59c472fb7a90952e4f895183b76a06b4e14238bfc931c73570fc1baf3e148fa42a095930ce664e620f103712c9543",
      "networkId": 0,
      "chainId": 0
    }
  ]
}