{
  "hash": "0x884f32c37000108c9c35ff3b343c75429af3036c078cc18d4d1ccbedb9d8aa42",
  "parentHash": "0xfa6a87ab51cb7a7cb6868f2fea7eab0ecfd3a2bbe2c9d44399b8a94833483f37",
  "number": 112683,
  "timestamp": 1440011334,
  "nonce": "0xb0a40e52d916ae3e",
  "difficulty": 4430305368329,
  "gasLimit": {
    "_hex": "0x2fefd8"
  },
  "gasUsed": {
    "_hex": "0x2e248"
  },
  "miner": "0xeB1325C8D9d3ea8D74aC11F4B00F1B2367686319",
  "extraData": "0x",
  "transactions": [
    {
      "hash": "0xc7574c97655ad7128a6fc4eb5652442c98fcbdef5a962ab368c2efe91e41a881",
      "blockHash": "0x884f32c37000108c9c35ff3b343c75429af3036c078cc18d4d1ccbedb9d8aa42",
      "blockNumber": 112683,
      "transactionIndex": 0,
      "confirmations": null,
      "from": "0xe6A7a1d47ff21B6321162AEA7C6CB457D5476Bca",
      "gasPrice": {
        "_hex": "0xd2da3915a"
      },
      "gasLimit": {
        "_hex": "0x55f0"
      },
      "to": "0xd4dc4b9843C73687bfc779afB40669da5F766Ef6",
      "value": {
        "_hex": "0x1d3e712f5c8daad8"
      },
      "nonce": 4728,
      "data": "0x",
      "r": "0x33a76aa659e777de11bcdb2896ceb23edf6b418788036192a1adb8af53ee27f8",
      "s": "0x0efc82b8f54ff4895be3a7baf821ffccd9bf4235af25a8ecf4896aaf9fa9b5ee",
      "v": 28,
      "creates": null,
      "raw": "0xf86e821278850d2da3915a8255f094d4dc4b9843c73687bfc779afb40669da5f766ef6881d3e712f5c8daad8801ca033a76aa659e777de11bcdb2896ceb23edf6b418788036192a1adb8af53ee27f8a00efc82b8f54ff4895be3a7baf821ffccd9bf4235af25a8ecf4896aaf9fa9b5ee",
      "networkId": 0,
      "chainId": 0
    },
    {
      "hash": "0x56653113adbbe3db752c769167a82b34d958284c6658829932f7443fec284b63",
      "blockHash": "0x884f32c37000108c9c35ff3b343c75429af3036c078cc18d4d1ccbedb9d8aa42",
      "blockNumber": 112683,
      "transactionIndex": 1,
      "confirmations": null,
      "from": "0xe6A7a1d47ff21B6321162AEA7C6CB457D5476Bca",
      "gasPrice": {
        "_hex": "0xd0e439bb2"
      },
      "gasLimit": {
        "_hex": "0x55f0"
      },
      "to": "0x7af25C80793a1CBaBE39Ac9d604729017d9E4001",
      "value": {
        "_hex": "0x1d55522322901820"
      },
      "nonce": 4729,
      "data": "0x",
      "r": "0x6e672fee2b4111a014e7d5e9a544e5548c27625e2e73c667bcdfd4eee76f9089",
      "s": "0x50df2a63227eebf1612909038427d364d321610e2c3b4d8317bcde004db70578",
      "v": 28,
      "creates": null,
      "raw": "0xf86e821279850d0e439bb28255f0947af25c80793a1cbabe39ac9d604729017d9e4001881d55522322901820801ca06e672fee2b4111a014e7d5e9a544e5548c27625e2e73c667bcdfd4eee76f9089a050df2a63227eebf1612909038427d364d321610e2c3b4d8317bcde004db70578",
      "networkId": 0,
      "chainId": 0
    },
    {
      "hash": "0x800e17522084a503da4cafb3e87c381658e762fd67efccab2f5f15bc9e5d11fb",
      "blockHash": "0x884f32c37000108c9c35ff3b343c75429af3036c078cc18d4d1ccbedb9d8aa42",
      "blockNumber": 112683,
      "transactionIndex": 2,
      "confirmations": null,
      "from": "0xe6A7a1d47ff21B6321162AEA7C6CB457D5476Bca",
      "gasPrice": {
        "_hex": "0xd0e439bb2"
      },
      "gasLimit": {
        "_hex": "0x55f0"
      },
      "to": "0x3730a07b6d2d7413d0d76B91935F60bB0b1d8E2F",
      "value": {
        "_hex": "0x1d6ebc2556a73f28"
      },
      "nonce": 4730,
      "data": "0x",
      "r": "0xbee86587c503fe6ab65c6a9afb9dd5f9d5840918c1a0f04c50ed22b32512eb13",
      "s": "0x0ede84e630e61d76e63bbc2b587b36dc5d590a78d5beecd2f27059743705c43e",
      "v": 28,
      "creates": null,
      "raw": "0xf86e82127a850d0e439bb28255f0943730a07b6d2d7413d0d76b91935f60bb0b1d8e2f881d6ebc2556a73f28801ca0bee86587c503fe6ab65c6a9afb9dd5f9d5840918c1a0f04c50ed22b32512eb13a00ede84e630e61d76e63bbc2b587b36dc5d590a78d5beecd2f27059743705c43e",
      "networkId": 0,
      "chainId": 0
    },
    {
      "hash": "0xbc94c0c035b0338677d9258a35feb41d28c22520b5ba6336ecc214165921efc5",
      "blockHash": "0x884f32c37000108c9c35ff3b343c75429af3036c078cc18d4d1ccbedb9d8aa42",
      "blockNumber": 112683,
      "transactionIndex": 3,
      "confirmations": null,
      "from": "0xe6A7a1d47ff21B6321162AEA7C6CB457D5476Bca",
      "gasPrice": {
        "_hex": "0xd0e439bb2"
      },
      "gasLimit": {
        "_hex": "0x55f0"
      },
      "to": "0xacc8dECDFDCbed202B8632947c60487494F5D2c7",
      "value": {
        "_hex": "0x1d82242874e698fc"
      },
      "nonce": 4731,
      "data": "0x",
      "r": "0x63d7ca249268c613ae084f75bd9573328c9ad87f5ac27306b39daed91e7cf159",
      "s": "0x7232f9181bf116d4b7b1b4746252b2827dab513a1802483b68b4d7ff4368b58c",
      "v": 28,
      "creates": null,
      "raw": "0xf86e82127b850d0e439bb28255f094acc8decdfdcbed202b8632947c60487494f5d2c7881d82242874e698fc801ca063d7ca249268c613ae084f75bd9573328c9ad87f5ac27306b39daed91e7cf159a07232f9181bf116d4b7b1b4746252b2827dab513a1802483b68b4d7ff4368b58c",
      "networkId": 0,
      "chainId": 0
    },
    {
      "hash": "0x97d5ac236f05e1be4c3d957b8fcc5a9a1c1db0c07b2e710d497deb0ee2056d47",
      "blockHash": "0x884f32c37000108c9c35ff3b343c75429af3036c078cc18d4d1ccbedb9d8aa42",
      "blockNumber": 112683,
      "transactionIndex": 4,
      "confirmations": null,
      "from": "0xe6A7a1d47ff21B6321162AEA7C6CB457D5476Bca",
      "gasPrice": {
        "_hex": "0xd0e439bb2"
      },
      "gasLimit": {
        "_hex": "0x55f0"
      },
      "to": "0x34BDAF0a5ed72734a4c4c6CE6Cc8132EC81fb2a8",
      "value": {
        "_hex": "0x1dcd31f9ddda4f28"
      },
      "nonce": 4732,
      "data": "0x",
      "r": "0x038991ef57a132ed0ec497e1b663b40ff6dddca7435158b1f77ea0bf0dcb7d3d",
      "s": "0x70c32bf35009ca5dd165012615bcf3c44a4dd7cb69864234e1c93a53f6bc763b",
      "v": 28,
      "creates": null,
      "raw": "0xf86e82127c850d0e439bb28255f09434bdaf0a5ed72734a4c4c6ce6cc8132ec81fb2a8881dcd31f9ddda4f28801ca0038991ef57a132ed0ec497e1b663b40ff6dddca7435158b1f77ea0bf0dcb7d3da070c32bf35009ca5dd165012615bcf3c44a4dd7cb69864234e1c93a53f6bc763b",
      "networkId": 0,
      "chainId": 0
    },
    {
      "hash": "0x96b8e2f81d0646032f9b827b810de1ce14be70e0d1cd2b6e1a99e37cdda6ade4",
      "blockHash": "0x884f32c37000108c9c35ff3b343c75429af3036c078cc18d4d1ccbedb9d8aa42",
      "blockNumber": 112683,
      "transactionIndex": 5,
      "confirmations": null,
      "from": "0xe6A7a1d47ff21B6321162AEA7C6CB457D5476Bca",
      "gasPrice": {
        "_hex": "0xd0e439bb2"
      },
      "gasLimit": {
        "_hex": "0x55f0"
      },
      "to": "0x357A01795bfA480a007fB4B1B6eDf2e8C23f1840",
      "value": {
        "_hex": "0x1e07913a7a49b900"
      },
      "nonce": 4733,
      "data": "0x",
      "r": "0x2cf6fd00782882b51e2697a574754869c1e5a282eb77adc54414dabda22fd259",
      "s": "0x538c7d3514a2e716e040fcb6da3f581d6461f42a6f6da2a894c6838d69e69b0f",
      "v": 27,
      "creates": null,
      "raw": "0xf86e82127d850d0e439bb28255f094357a01795bfa480a007fb4b1b6edf2e8c23f1840881e07913a7a49b900801ba02cf6fd00782882b51e2697a574754869c1e5a282eb77adc54414dabda22fd259a0538c7d3514a2e716e040fcb6da3f581d6461f42a6f6da2a894c6838d69e69b0f",
      "networkId": 0,
      "chainId": 0
    },
    {
      "hash": "0x3fc3d5c70100404437f40f2a33d93208e170606631a0aea6ffcd881b1232914c",
      "blockHash": "0x884f32c37000108c9c35ff3b343c75429af3036c078cc18d4d1ccbedb9d8aa42",
      "blockNumber": 112683,
      "transactionIndex": 6,
      "confirmations": null,
      "from": "0xe6A7a1d47ff21B6321162AEA7C6CB457D5476Bca",
      "gasPrice": {
        "_hex": "0xd0e439bb2"
      },
      "gasLimit": {
        "_hex": "0x55f0"
      },
      "to": "0x0f7E5465DB8bC57940471E530a83Fb7Ac5b82d7f",
      "value": {
        "_hex": "0x1e25a4ce544ed1fc"
      },
      "nonce": 4734,
      "data": "0x",
      "r": "0xa042656537e445e3f59a94e0ac677f52815230b279886115ca91d27553e7ce51",
      "s": "0x6b8d87a70f75ac6c64503406e3d603b2ea9600d7f14df42d81f4d1ecfe3cabb8",
      "v": 27,
      "creates": null,
      "raw": "0xf86e82127e850d0e439bb28255f0940f7e5465db8bc57940471e530a83fb7ac5b82d7f881e25a4ce544ed1fc801ba0a042656537e445e3f59a94e0ac677f52815230b279886115ca91d27553e7ce51a06b8d87a70f75ac6c64503406e3d603b2ea9600d7f14df42d81f4d1ecfe3cabb8",
      "networkId": 0,
      "chainId": 0
    },
    {
      "hash": "0x2d8eeb4beb0c04cd965803881b777417cd5ede27f457b828a2d17408946bb45b",
      "blockHash": "0x884f32c37000108c9c35ff3b343c75429af3036c078cc18d4d1ccbedb9d8aa42",
      "blockNumber": 112683,
      "transactionIndex": 7,
      "confirmations": null,
      "from": "0x60781265e9850f54AE0Bc9545948d05DeE6FC3e3",
      "gasPrice": {
        "_hex": "0xceafc80e3"
      },
      "gasLimit": {
        "_hex": "0x5208"
      },
      "to": "0x32Be343B94f860124dC4fEe278FDCBD38C102D88",
      "value": {
        "_hex": "0x115eec92676aa800"
      },
      "nonce": 11,
      "data": "0x",
      "r": "0xd3f936d8479196e37d16cc6508ddbb3cbaf80dddd9d16337278db210e9496ca3",
      "s": "0x4c484b80c3b4f7488026030615a944af4c6d7c3246d91276d19eb201c0d645e3",
      "v": 27,
      "creates": null,
      "raw": "0xf86c0b850ceafc80e38252089432be343b94f860124dc4fee278fdcbd38c102d8888115eec92676aa800801ba0d3f936d8479196e37d16cc6508ddbb3cbaf80dddd9d16337278db210e9496ca3a04c484b80c3b4f7488026030615a944af4c6d7c3246d91276d19eb201c0d645e3",
      "networkId": 0,
      "chainId": 0
    },
    {
      "hash": "0xa4e8fe47c1be43f4940fa1e401fa832b8c510a8d0f707d493f268e9a7b1c9466",
      "blockHash": "0x884f32c37000108c9c35ff3b343c75429af3036c078cc18d4d1ccbedb9d8aa42",
      "blockNumber": 112683,
      "transactionIndex": 8,
      "confirmations": null,
      "from": "0xA4fbA5C740C8141d6c4469eD292bfCC8cCAc774F",
      "gasPrice": {
        "_hex": "0xceafc80e3"
      },
      "gasLimit": {
        "_hex": "0x5208"
      },
      "to": "0x32Be343B94f860124dC4fEe278FDCBD38C102D88",
      "value": {
        "_hex": "0xdc7dc3fee724400"
      },
      "nonce": 6,
      "data": "0x",
      "r": "0x8c6a2701e64ba56dc4912bd3f249e973a36e313f48629efc2d80ff0981d7abb2",
      "s": "0x229b99628557f0149b811c506713c1c703e0a48a6d839ce65f352d4aa26e0fc3",
      "v": 27,
      "creates": null,
      "raw": "0xf86c06850ceafc80e38252089432be343b94f860124dc4fee278fdcbd38c102d88880dc7dc3fee724400801ba08c6a2701e64ba56dc4912bd3f249e973a36e313f48629efc2d80ff0981d7abb2a0229b99628557f0149b811c506713c1c703e0a48a6d839ce65f352d4aa26e0fc3",
      "networkId": 0,
      "chainId": 0
    }
  ]
}