{
  "hash": "0x21ddf37cfc9eaff2c16f8a221d2e862493428443f0aa866a8951e8e7ac429345",
  "parentHash": "0xc5565c681a70da9e5385a2d802d5e1a0f8d80256be91a977bafe5efee7eb630f",
  "number": 118353,
  "timestamp": 1440124660,
  "nonce": "0x8d7ac9748988c3b8",
  "difficulty": 4303687795840,
  "gasLimit": {
    "_hex": "0x2fefd8"
  },
  "gasUsed": {
    "_hex": "0x5208"
  },
  "miner": "0xe6A7a1d47ff21B6321162AEA7C6CB457D5476Bca",
  "extraData": "0xd783010002844765746887676f312e342e32856c696e7578",
  "transactions": [
    {
      "hash": "0xb387dc35cb46e4b3d82c9522a828720c1227f9052a13bbb368085c6f3a2517b5",
      "blockHash": "0x21ddf37cfc9eaff2c16f8a221d2e862493428443f0aa866a8951e8e7ac429345",
      "blockNumber": 118353,
      "transactionIndex": 0,
      "confirmations": null,
      "from": "0xFBb1b73C4f0BDa4f67dcA266ce6Ef42f520fBB98",
      "gasPrice": {
        "_hex": "0xba43b7400"
      },
      "gasLimit": {
        "_hex": "0x5208"
      },
      "to": "0x1Fabd401B08dF84f615091C14C6db1a5E0BeaD0c",
      "value": {
        "_hex": "0x121f612e146fe3000"
      },
      "nonce": 236,
      "data": "0x",
      "r": "0x4089f7371e3d8369330cc02d9e4b79d375b4dbcbcc4e2e0fc56456c12e89f11a",
      "s": "0x321cbf253fa432c0b5672fcbb913d8b4199d952658761480bb4a5d76628bdd03",
      "v": 27,
      "creates": null,
      "raw": "0xf86e81ec850ba43b7400825208941fabd401b08df84f615091c14c6db1a5e0bead0c890121f612e146fe3000801ba04089f7371e3d8369330cc02d9e4b79d375b4dbcbcc4e2e0fc56456c12e89f11aa0321cbf253fa432c0b5672fcbb913d8b4199d952658761480bb4a5d76628bdd03",
      "networkId": 0,
      "chainId": 0
    }
  ]
}