{
  "hash": "0x35a2261595dd097a696d1a433abccbdf9e853d46440cad18c50eadac70064803",
  "parentHash": "0x18968696ee6ae87627a536418cf9dd840f15f51fbf886ed0c77233200a27a6de",
  "number": 87204,
  "timestamp": 1439588883,
  "nonce": "0xbd3573b45eb70369",
  "difficulty": 3061629296747,
  "gasLimit": {
    "_hex": "0x2fefd8"
  },
  "gasUsed": {
    "_hex": "0xa410"
  },
  "miner": "0x790b8a3cE86E707ED0eD32bF89B3269692a23CC1",
  "extraData": "0xd783010001844765746887676f312e342e32856c696e7578",
  "transactions": [
    {
      "hash": "0xe300913212dbb20597eca435001b858713f90cbf834c8d598d1feaec7f424c66",
      "blockHash": "0x35a2261595dd097a696d1a433abccbdf9e853d46440cad18c50eadac70064803",
      "blockNumber": 87204,
      "transactionIndex": 0,
      "confirmations": null,
      "from": "0x0A319A7e0C887F104359e1eEe6717BD8f232d3Da",
      "gasPrice": {
        "_hex": "0xd57628b68"
      },
      "gasLimit": {
        "_hex": "0x5208"
      },
      "to": "0x32Be343B94f860124dC4fEe278FDCBD38C102D88",
      "value": {
        "_hex": "0x455f40fdc032d400"
      },
      "nonce": 12,
      "data": "0x",
      "r": "0xba9426e3d7ea24baaae3f9f53f82f73ee914befc558a8844676b10ca2d416adc",
      "s": "0x09a08552e97cb486b862f07e59b579986ea8cbffb3a23bdb92ff9d001482eed4",
      "v": 28,
      "creates": null,
      "raw": "0xf86c0c850d57628b688252089432be343b94f860124dc4fee278fdcbd38c102d8888455f40fdc032d400801ca0ba9426e3d7ea24baaae3f9f53f82f73ee914befc558a8844676b10ca2d416adca009a08552e97cb486b862f07e59b579986ea8cbffb3a23bdb92ff9d001482eed4",
      "networkId": 0,
      "chainId": 0
    },
    {
      "hash": "0x1ddf4e56ef336f8d824108e618030b89a381033247e4cc03c2850c98454ec9fe",
      "blockHash": "0x35a2261595dd097a696d1a433abccbdf9e853d46440cad18c50eadac70064803",
      "blockNumber": 87204,
      "transactionIndex": 1,
      "confirmations": null,
      "from": "0xB7268c7705A1866b2A78e882fdfDc8E2a4e1428E",
      "gasPrice": {
        "_hex": "0xd3d37f23a"
      },
      "gasLimit": {
        "_hex": "0x15f90"
      },
      "to": "0x96811Ad897894eC178872117C8BF2f03971A393B",
      "value": {
        "_hex": "0x5a34a38fc00a0000"
      },
      "nonce": 31,
      "data": "0x",
      "r": "0x637b014cbc3a7fd437a897ceca04d082a02c03d9a7446584777b32f83f081dee",
      "s": "0x220a0455563c6176acdb6f48b507b131ca5d4579f8a9039653c1f2b818e05912",
      "v": 28,
      "creates": null,
      "raw": "0xf86d1f850d3d37f23a83015f909496811ad897894ec178872117c8bf2f03971a393b885a34a38fc00a0000801ca0637b014cbc3a7fd437a897ceca04d082a02c03d9a7446584777b32f83f081deea0220a0455563c6176acdb6f48b507b131ca5d4579f8a9039653c1f2b818e05912",
      "networkId": 0,
      "chainId": 0
    }
  ]
}