{
  "hash": "0xe72441212914d3aa56f9f023040911efb4224478156f7946ccb4047305851fad",
  "parentHash": "0xc70e1620b1f8bef80e3eda729bb904932e427da5c873ae295ee9432f1997be48",
  "number": 112772,
  "timestamp": 1440012906,
  "nonce": "0xe7b8e38bbc38b936",
  "difficulty": 4449770116164,
  "gasLimit": {
    "_hex": "0x2fefd8"
  },
  "gasUsed": {
    "_hex": "0x5208"
  },
  "miner": "0x580992B51e3925e23280EfB93d3047C82f17E038",
  "extraData": "0x476574682f76312e302e312f6c696e75782f676f312e342e32",
  "transactions": [
    {
      "hash": "0x604c9db260df1786377f4757d42fc6de4fa91c7463d1e6fb5fa45ffe2d5a1a3a",
      "blockHash": "0xe72441212914d3aa56f9f023040911efb4224478156f7946ccb4047305851fad",
      "blockNumber": 112772,
      "transactionIndex": 0,
      "confirmations": null,
      "from": "0x04a6c6a293340Fc3f2244D097b0CFD84d5317bA5",
      "gasPrice": {
        "_hex": "0xd957443ee"
      },
      "gasLimit": {
        "_hex": "0x5208"
      },
      "to": "0x32Be343B94f860124dC4fEe278FDCBD38C102D88",
      "value": {
        "_hex": "0xf4ab6e190475b800"
      },
      "nonce": 6,
      "data": "0x",
      "r": "0xe15c23506a6e097e0354746442d14953da6a07a0f52dd7bf8e3011588778f38c",
      "s": "0x6ba7bc5535d0f9653e5a24d1e718e69cb38447c004c14c3767714e0e696d9a82",
      "v": 27,
      "creates": null,
      "raw": "0xf86c06850d957443ee8252089432be343b94f860124dc4fee278fdcbd38c102d8888f4ab6e190475b800801ba0e15c23506a6e097e0354746442d14953da6a07a0f52dd7bf8e3011588778f38ca06ba7bc5535d0f9653e5a24d1e718e69cb38447c004c14c3767714e0e696d9a82",
      "networkId": 0,
      "chainId": 0
    }
  ]
}