{
  "hash": "0xf6f55e715e490434afeb38e3708d3f74bc439324e6ea35f4c6f67323951a3760",
  "parentHash": "0x43bed37ee88e4c03ac18a31f34a099fd0bb3f339b790415ebad5518c818cdb2c",
  "number": 68883,
  "timestamp": 1439295113,
  "nonce": "0x06da2ad1f504f9f3",
  "difficulty": 2027047789834,
  "gasLimit": {
    "_hex": "0x2fefd8"
  },
  "gasUsed": {
    "_hex": "0x5208"
  },
  "miner": "0x88D74a59454F6cF3B51ef6b9136AFb6b9D405A88",
  "extraData": "0x476574682f76312e302e312d37666266393930632f6c696e75782f676f312e34",
  "transactions": [
    {
      "hash": "0x320929e92252168c143ed7017d87b03b4284aec531972a81cbc2286de5a23e78",
      "blockHash": "0xf6f55e715e490434afeb38e3708d3f74bc439324e6ea35f4c6f67323951a3760",
      "blockNumber": 68883,
      "transactionIndex": 0,
      "confirmations": null,
      "from": "0x6747f922385c9a6F9cfDf095F34345257DD597bE",
      "gasPrice": {
        "_hex": "0xba43b7400"
      },
      "gasLimit": {
        "_hex": "0x5208"
      },
      "to": "0x2b706Eb3B96a5E41d38B98e2eb1489875245E6B5",
      "value": {
        "_hex": "0x1fcbfa42bd6000"
      },
      "nonce": 144,
      "data": "0x",
      "r": "0xf71c26ef15faa3bd9531ea425fc2d74ddc67ef090639a7159c9fa974980ef575",
      "s": "0x0f346ca1f5aa19395bca0e68ce7f5ad06177583c5f17805cee80d75b815ff4f0",
      "v": 28,
      "creates": null,
      "raw": "0xf86c8190850ba43b7400825208942b706eb3b96a5e41d38b98e2eb1489875245e6b5871fcbfa42bd6000801ca0f71c26ef15faa3bd9531ea425fc2d74ddc67ef090639a7159c9fa974980ef575a00f346ca1f5aa19395bca0e68ce7f5ad06177583c5f17805cee80d75b815ff4f0",
      "networkId": 0,
      "chainId": 0
    }
  ]
}