{
  "hash": "0xfcab2fa3fd3b23982eba40cf483616808a7cbfcbda5ca0d7bdec2bc525dcbddf",
  "parentHash": "0x99afcc0ec9ee32e1bd0269087bc83fe7b6317fc6bc4460108d3705154e63681d",
  "number": 103623,
  "timestamp": 1439856351,
  "nonce": "0x67e60cbf9f215cd9",
  "difficulty": 4199061489912,
  "gasLimit": {
    "_hex": "0x2fefd8"
  },
  "gasUsed": {
    "_hex": "0x5208"
  },
  "miner": "0xe6A7a1d47ff21B6321162AEA7C6CB457D5476Bca",
  "extraData": "0x476574682f76312e302e312d38326566323666362f6c696e75782f676f312e34",
  "transactions": [
    {
      "hash": "0xc265e5213df6114a88eaa0f47f83eb22364322f5bef50f30d80e74334e654f3b",
      "blockHash": "0xfcab2fa3fd3b23982eba40cf483616808a7cbfcbda5ca0d7bdec2bc525dcbddf",
      "blockNumber": 103623,
      "transactionIndex": 0,
      "confirmations": null,
      "from": "0x007f7f58D3eb5b7510A301eCC749FC1fCDDBE14D",
      "gasPrice": {
        "_hex": "0xe0cfe7246"
      },
      "gasLimit": {
        "_hex": "0x15f90"
      },
      "to": "0xb1abce2918E21ddb93AA452731a12672A3d9F75a",
      "value": {
        "_hex": "0x4563918244f40000"
      },
      "nonce": 228,
      "data": "0x",
      "r": "0xdc09dfa6246b6d03b180f734f8e571c9d421df6e9ade2d0bf13d2fa7f08f699b",
      "s": "0x2cf26c13b02b8ef86499c5771372a4a4d647c214771d153749dc8468b9c5037d",
      "v": 27,
      "creates": null,
      "raw": "0xf86e81e4850e0cfe724683015f9094b1abce2918e21ddb93aa452731a12672a3d9f75a884563918244f40000801ba0dc09dfa6246b6d03b180f734f8e571c9d421df6e9ade2d0bf13d2fa7f08f699ba02cf26c13b02b8ef86499c5771372a4a4d647c214771d153749dc8468b9c5037d",
      "networkId": 0,
      "chainId": 0
    }
  ]
}