{
  "hash": "0x20c384f5423b7228cc32254690dbf4d5e1712f9099714a782368dd95b29bbdfb",
  "parentHash": "0xeb27616eb9f030fc6d399d4dd2ef25456f83aa8f2466944bed49517c3ec61c0d",
  "number": 61051,
  "timestamp": 1439165799,
  "nonce": "0x867cfd35059759f5",
  "difficulty": 1735445371547,
  "gasLimit": {
    "_hex": "0x2fefd8"
  },
  "gasUsed": {
    "_hex": "0x5208"
  },
  "miner": "0xEF247E639d49461D25F57e9362CadE3120910Ce0",
  "extraData": "0x476574682f76312e302e312f6c696e75782f676f312e342e32",
  "transactions": [
    {
      "hash": "0x33b0cbc0f7f3f3baa1bb9ef1f6e072d53787c2f2e246bc5f763ea8c3048c10cc",
      "blockHash": "0x20c384f5423b7228cc32254690dbf4d5e1712f9099714a782368dd95b29bbdfb",
      "blockNumber": 61051,
      "transactionIndex": 0,
      "confirmations": null,
      "from": "0x2910543Af39abA0Cd09dBb2D50200b3E800A63D2",
      "gasPrice": {
        "_hex": "0xdc69d807b"
      },
      "gasLimit": {
        "_hex": "0x5208"
      },
      "to": "0xD3AAe361172c802BC03Ab6779a56AfE15D3608C5",
      "value": {
        "_hex": "0x11c37937e08000"
      },
      "nonce": 96,
      "data": "0x",
      "r": "0x6256c9a8e7a30089c1c9e9efec8e9c82ccdb69bf9c9d292056ac794f80887ece",
      "s": "0x7484bda311e88116bae207bde6e8f0bc5ba79e9bedad9bcf4243da9a63da4498",
      "v": 27,
      "creates": null,
      "raw": "0xf86b60850dc69d807b82520894d3aae361172c802bc03ab6779a56afe15d3608c58711c37937e08000801ba06256c9a8e7a30089c1c9e9efec8e9c82ccdb69bf9c9d292056ac794f80887ecea07484bda311e88116bae207bde6e8f0bc5ba79e9bedad9bcf4243da9a63da4498",
      "networkId": 0,
      "chainId": 0
    }
  ]
}