{
  "hash": "0xfab544fe34e3c07ae245f55b868677adf0d690ca4f7ee3cd2ff5e2b1461cbdef",
  "parentHash": "0x491febb660afc688d0641288d7b8eb14ffdf0d3275fe668fb58f10cae21f4a79",
  "number": 94657,
  "timestamp": 1439711820,
  "nonce": "0xa7d7ed796dabb12a",
  "difficulty": 3501924498845,
  "gasLimit": {
    "_hex": "0x2fefd8"
  },
  "gasUsed": {
    "_hex": "0x52080"
  },
  "miner": "0xe6A7a1d47ff21B6321162AEA7C6CB457D5476Bca",
  "extraData": "0x476574682f76312e302e312d38326566323666362f6c696e75782f676f312e34",
  "transactions": [
    {
      "hash": "0xa83431e771a491d83b1d3cc0220dca0ef0ffc5ecf8b6e7198c6cefd7d3ba4c3d",
      "blockHash": "0xfab544fe34e3c07ae245f55b868677adf0d690ca4f7ee3cd2ff5e2b1461cbdef",
      "blockNumber": 94657,
      "transactionIndex": 0,
      "confirmations": null,
      "from": "0xe6A7a1d47ff21B6321162AEA7C6CB457D5476Bca",
      "gasPrice": {
        "_hex": "0xe1e3d2a53"
      },
      "gasLimit": {
        "_hex": "0x55f0"
      },
      "to": "0x10BD1134A760f6b35247e3cb33673a18bC95a7E7",
      "value": {
        "_hex": "0x5f48a7f55195b910"
      },
      "nonce": 2784,
      "data": "0x",
      "r": "0xa12827eff12808bbe4ad95f989c7728ee546e3a0f5abee8ba5832de4fd45978b",
      "s": "0x415b1fb2057fb645cec42db4b03722560f6bb5b129ca3587173088c3d1bab591",
      "v": 28,
      "creates": null,
      "raw": "0xf86e820ae0850e1e3d2a538255f09410bd1134a760f6b35247e3cb33673a18bc95a7e7885f48a7f55195b910801ca0a12827eff12808bbe4ad95f989c7728ee546e3a0f5abee8ba5832de4fd45978ba0415b1fb2057fb645cec42db4b03722560f6bb5b129ca3587173088c3d1bab591",
      "networkId": 0,
      "chainId": 0
    },
    {
      "hash": "0xa203bc320c9b3ebc33409487f29d0a6686e578a100de5dd7702359e225bb1f64",
      "blockHash": "0xfab544fe34e3c07ae245f55b868677adf0d690ca4f7ee3cd2ff5e2b1461cbdef",
      "blockNumber": 94657,
      "transactionIndex": 1,
      "confirmations": null,
      "from": "0xe6A7a1d47ff21B6321162AEA7C6CB457D5476Bca",
      "gasPrice": {
        "_hex": "0xe1e3d2a53"
      },
      "gasLimit": {
        "_hex": "0x55f0"
      },
      "to": "0x86d3856ad0105B9d4199936c1fd203664BA325dC",
      "value": {
        "_hex": "0x5ffb2e5a100d1238"
      },
      "nonce": 2785,
      "data": "0x",
      "r": "0x06e723403bb2f4023946b4646e9436110efdcf33cb34459f482ada315a7ab2e5",
      "s": "0x5d9eafdcfc1e67c1a35a888437178b1f3c9edf9e0fab451117f5c5c81e9ccf55",
      "v": 27,
      "creates": null,
      "raw": "0xf86e820ae1850e1e3d2a538255f09486d3856ad0105b9d4199936c1fd203664ba325dc885ffb2e5a100d1238801ba006e723403bb2f4023946b4646e9436110efdcf33cb34459f482ada315a7ab2e5a05d9eafdcfc1e67c1a35a888437178b1f3c9edf9e0fab451117f5c5c81e9ccf55",
      "networkId": 0,
      "chainId": 0
    },
    {
      "hash": "0xdd40b07fd7d7d8fb81289e02a5ad91cc8b1782615a55f0d33c1b56e3155d3c59",
      "blockHash": "0xfab544fe34e3c07ae245f55b868677adf0d690ca4f7ee3cd2ff5e2b1461cbdef",
      "blockNumber": 94657,
      "transactionIndex": 2,
      "confirmations": null,
      "from": "0xe6A7a1d47ff21B6321162AEA7C6CB457D5476Bca",
      "gasPrice": {
        "_hex": "0xe1e3d2a53"
      },
      "gasLimit": {
        "_hex": "0x55f0"
      },
      "to": "0x1A99941B3E60c242bb3941e5BB5e1049145CDf9B",
      "value": {
        "_hex": "0x6017762197c06e20"
      },
      "nonce": 2786,
      "data": "0x",
      "r": "0x747c1465dd88bb054c3c47011f18916e491d689cebb8298550802930adc218ee",
      "s": "0x4d3b3eb720a7d009f2fdfa2ad31a1f477a072bf52c859e5e3a3b851d4a5369ff",
      "v": 28,
      "creates": null,
      "raw": "0xf86e820ae2850e1e3d2a538255f0941a99941b3e60c242bb3941e5bb5e1049145cdf9b886017762197c06e20801ca0747c1465dd88bb054c3c47011f18916e491d689cebb8298550802930adc218eea04d3b3eb720a7d009f2fdfa2ad31a1f477a072bf52c859e5e3a3b851d4a5369ff",
      "networkId": 0,
      "chainId": 0
    },
    {
      "hash": "0xfe41535f261604e85119ad7e3383151e051915c2537b1865c17986bbb3da5229",
      "blockHash": "0xfab544fe34e3c07ae245f55b868677adf0d690ca4f7ee3cd2ff5e2b1461cbdef",
      "blockNumber": 94657,
      "transactionIndex": 3,
      "confirmations": null,
      "from": "0xe6A7a1d47ff21B6321162AEA7C6CB457D5476Bca",
      "gasPrice": {
        "_hex": "0xe1e3d2a53"
      },
      "gasLimit": {
        "_hex": "0x55f0"
      },
      "to": "0x2B15C5211bdA6A867c582080536f6c61766aA5Af",
      "value": {
        "_hex": "0x60769bc2e5280850"
      },
      "nonce": 2787,
      "data": "0x",
      "r": "0x14c7014035ccf24fedbed232fbd9a8da7e3a0c479fa8177f0e6c687353d84f54",
      "s": "0x6fdec632fbdff809349d279c5374747860a57ee9ba58632818db72680293a016",
      "v": 27,
      "creates": null,
      "raw": "0xf86e820ae3850e1e3d2a538255f0942b15c5211bda6a867c582080536f6c61766aa5af8860769bc2e5280850801ba014c7014035ccf24fedbed232fbd9a8da7e3a0c479fa8177f0e6c687353d84f54a06fdec632fbdff809349d279c5374747860a57ee9ba58632818db72680293a016",
      "networkId": 0,
      "chainId": 0
    },
    {
      "hash": "0xec3829ee1f388a06698d565891fc707dc2ca7b0b5ae1d8ffa4786a33ce931b79",
      "blockHash": "0xfab544fe34e3c07ae245f55b868677adf0d690ca4f7ee3cd2ff5e2b1461cbdef",
      "blockNumber": 94657,
      "transactionIndex": 4,
      "confirmations": null,
      "from": "0xe6A7a1d47ff21B6321162AEA7C6CB457D5476Bca",
      "gasPrice": {
        "_hex": "0xe1e3d2a53"
      },
      "gasLimit": {
        "_hex": "0x55f0"
      },
      "to": "0xc9450a30B259ebB8631b9bC49c64dBAeC472D6Af",
      "value": {
        "_hex": "0x611c9e7f60c48820"
      },
      "nonce": 2788,
      "data": "0x",
      "r": "0x7797e1bed06b9e581166f2f351bd2ac13af8c4e2eeee66a4cdde4a669fd2eaa8",
      "s": "0x3cd8d8ee67f4c153ac53e4d4c8c53e694a7d33578afeff01e2b84cefa3b914a7",
      "v": 27,
      "creates": null,
      "raw": "0xf86e820ae4850e1e3d2a538255f094c9450a30b259ebb8631b9bc49c64dbaec472d6af88611c9e7f60c48820801ba07797e1bed06b9e581166f2f351bd2ac13af8c4e2eeee66a4cdde4a669fd2eaa8a03cd8d8ee67f4c153ac53e4d4c8c53e694a7d33578afeff01e2b84cefa3b914a7",
      "networkId": 0,
      "chainId": 0
    },
    {
      "hash": "0xa4df4975318fe549f834753b1562eb52590ef3957cfbdf0f24cab8c1720197e9",
      "blockHash": "0xfab544fe34e3c07ae245f55b868677adf0d690ca4f7ee3cd2ff5e2b1461cbdef",
      "blockNumber": 94657,
      "transactionIndex": 5,
      "confirmations": null,
      "from": "0xe6A7a1d47ff21B6321162AEA7C6CB457D5476Bca",
      "gasPrice": {
        "_hex": "0xe1e3d2a53"
      },
      "gasLimit": {
        "_hex": "0x55f0"
      },
      "to": "0xc1A0C41BD9ab5DC2508d9a9bcd51A3Bb6513F48B",
      "value": {
        "_hex": "0x61663e536b713e40"
      },
      "nonce": 2789,
      "data": "0x",
      "r": "0x7ef7e42ce86bc6ef8b84ea913dab2a2d0ff14ca1a8427a3311ec3eb28f248204",
      "s": "0x03e0f10528dc5ce24539add209c5aa468ac9371bacc584f6089fbb342e3c0631",
      "v": 28,
      "creates": null,
      "raw": "0xf86e820ae5850e1e3d2a538255f094c1a0c41bd9ab5dc2508d9a9bcd51a3bb6513f48b8861663e536b713e40801ca07ef7e42ce86bc6ef8b84ea913dab2a2d0ff14ca1a8427a3311ec3eb28f248204a003e0f10528dc5ce24539add209c5aa468ac9371bacc584f6089fbb342e3c0631",
      "networkId": 0,
      "chainId": 0
    },
    {
      "hash": "0xaa232c95b684df05f0d2e92b4c60840e8b04638a1a40b74cefdbd90711bd4b58",
      "blockHash": "0xfab544fe34e3c07ae245f55b868677adf0d690ca4f7ee3cd2ff5e2b1461cbdef",
      "blockNumber": 94657,
      "transactionIndex": 6,
      "confirmations": null,
      "from": "0xe6A7a1d47ff21B6321162AEA7C6CB457D5476Bca",
      "gasPrice": {
        "_hex": "0xe1e3d2a53"
      },
      "gasLimit": {
        "_hex": "0x55f0"
      },
      "to": "0xb3395f0a13448d9A660aC4aB2aBBC61F555f3656",
      "value": {
        "_hex": "0x6223de82f25f6ed0"
      },
      "nonce": 2790,
      "data": "0x",
      "r": "0x6b1d7f1742147a541078a2cb9024a6c7b4cf409fb60bd71815073bc17742cc81",
      "s": "0x0d6e48aad114a2cd4be3fc28eda209a51e46e57e69e054ee7461b12d78bb73e3",
      "v": 27,
      "creates": null,
      "raw": "0xf86e820ae6850e1e3d2a538255f094b3395f0a13448d9a660ac4ab2abbc61f555f3656886223de82f25f6ed0801ba06b1d7f1742147a541078a2cb9024a6c7b4cf409fb60bd71815073bc17742cc81a00d6e48aad114a2cd4be3fc28eda209a51e46e57e69e054ee7461b12d78bb73e3",
      "networkId": 0,
      "chainId": 0
    },
    {
      "hash": "0x2ea7f2354fc6f8db25ae3d0bb45ec55db3386dd290b95b3afd7d28763e4c0185",
      "blockHash": "0xfab544fe34e3c07ae245f55b868677adf0d690ca4f7ee3cd2ff5e2b1461cbdef",
      "blockNumber": 94657,
      "transactionIndex": 7,
      "confirmations": null,
      "from": "0xe6A7a1d47ff21B6321162AEA7C6CB457D5476Bca",
      "gasPrice": {
        "_hex": "0xe1e3d2a53"
      },
      "gasLimit": {
        "_hex": "0x55f0"
      },
      "to": "0xe72717ae0d6792286968449ABA7d469BCAE1d957",
      "value": {
        "_hex": "0x6237aa4f67192fd0"
      },
      "nonce": 2791,
      "data": "0x",
      "r": "0x3c5b8c49d1b7c309af39acb86b7ffc8f7b473e5245a1f82072f27a661837180d",
      "s": "0x1db014306d2e66f40d8bba6da2d8f9c87974f3cde1f71724eae001d2f6363dd1",
      "v": 27,
      "creates": null,
      "raw": "0xf86e820ae7850e1e3d2a538255f094e72717ae0d6792286968449aba7d469bcae1d957886237aa4f67192fd0801ba03c5b8c49d1b7c309af39acb86b7ffc8f7b473e5245a1f82072f27a661837180da01db014306d2e66f40d8bba6da2d8f9c87974f3cde1f71724eae001d2f6363dd1",
      "networkId": 0,
      "chainId": 0
    },
    {
      "hash": "0xbb10ca498eab6c57164404f1bc6eb52dbfd19b26e80dd2f8f8c05bba5c170f53",
      "blockHash": "0xfab544fe34e3c07ae245f55b868677adf0d690ca4f7ee3cd2ff5e2b1461cbdef",
      "blockNumber": 94657,
      "transactionIndex": 8,
      "confirmations": null,
      "from": "0xe6A7a1d47ff21B6321162AEA7C6CB457D5476Bca",
      "gasPrice": {
        "_hex": "0xe1e3d2a53"
      },
      "gasLimit": {
        "_hex": "0x55f0"
      },
      "to": "0xB4EcAAfC5fB10d5D30A931de851f3FF1DaD41141",
      "value": {
        "_hex": "0x6243a68ad81fc4d0"
      },
      "nonce": 2792,
      "data": "0x",
      "r": "0x4cd2bc63837406cbcc622d2f577ec86d631c6e29228a15ee733ee3f9f20ec006",
      "s": "0x692503dda744243939324ab56ee164e24df1399c5368e4eba7fbf97ed89334af",
      "v": 28,
      "creates": null,
      "raw": "0xf86e820ae8850e1e3d2a538255f094b4ecaafc5fb10d5d30a931de851f3ff1dad41141886243a68ad81fc4d0801ca04cd2bc63837406cbcc622d2f577ec86d631c6e29228a15ee733ee3f9f20ec006a0692503dda744243939324ab56ee164e24df1399c5368e4eba7fbf97ed89334af",
      "networkId": 0,
      "chainId": 0
    },
    {
      "hash": "0x6e13f27546e4e1af17fa418943e0bcebc6a39111f6a72b48709339528e3d3ae5",
      "blockHash": "0xfab544fe34e3c07ae245f55b868677adf0d690ca4f7ee3cd2ff5e2b1461cbdef",
      "blockNumber": 94657,
      "transactionIndex": 9,
      "confirmations": null,
      "from": "0xe6A7a1d47ff21B6321162AEA7C6CB457D5476Bca",
      "gasPrice": {
        "_hex": "0xe1e3d2a53"
      },
      "gasLimit": {
        "_hex": "0x55f0"
      },
      "to": "0x03809628C90e1092EA99EcFDACA6251435dbc94B",
      "value": {
        "_hex": "0x625247245b63abe8"
      },
      "nonce": 2793,
      "data": "0x",
      "r": "0x4d29ef7afdb07a069e7a6b352f49c1f82f5cbf102fdbd0982a5459fa0b11ae19",
      "s": "0x7c4c98e327736d3545ce6b41b7bea8ab60feb9ced85cc979a5d5cb198d4dbf5e",
      "v": 27,
      "creates": null,
      "raw": "0xf86e820ae9850e1e3d2a538255f09403809628c90e1092ea99ecfdaca6251435dbc94b88625247245b63abe8801ba04d29ef7afdb07a069e7a6b352f49c1f82f5cbf102fdbd0982a5459fa0b11ae19a07c4c98e327736d3545ce6b41b7bea8ab60feb9ced85cc979a5d5cb198d4dbf5e",
      "networkId": 0,
      "chainId": 0
    },
    {
      "hash": "0x2c1d0ff58e0f09a671f22da6f2bd35c5c566f78325d4e2227a17fdba77be454f",
      "blockHash": "0xfab544fe34e3c07ae245f55b868677adf0d690ca4f7ee3cd2ff5e2b1461cbdef",
      "blockNumber": 94657,
      "transactionIndex": 10,
      "confirmations": null,
      "from": "0xe6A7a1d47ff21B6321162AEA7C6CB457D5476Bca",
      "gasPrice": {
        "_hex": "0xe1e3d2a53"
      },
      "gasLimit": {
        "_hex": "0x55f0"
      },
      "to": "0xe535C1c29F0091324F184de7a5be5520D1b0b008",
      "value": {
        "_hex": "0x62840422c404cb40"
      },
      "nonce": 2794,
      "data": "0x",
      "r": "0x4b064af47679230100e1c60552af38599b1a34784f00e92a6102c7ad9466f937",
      "s": "0x3454660b290c6fbe153a603122992b48a6f1ac68f64100ec308024ac3bd1020c",
      "v": 27,
      "creates": null,
      "raw": "0xf86e820aea850e1e3d2a538255f094e535c1c29f0091324f184de7a5be5520d1b0b0088862840422c404cb40801ba04b064af47679230100e1c60552af38599b1a34784f00e92a6102c7ad9466f937a03454660b290c6fbe153a603122992b48a6f1ac68f64100ec308024ac3bd1020c",
      "networkId": 0,
      "chainId": 0
    },
    {
      "hash": "0xdee892d2971b14a542d21f2c5eed9131ebf72add8599a3c2489d0ca8014be1fc",
      "blockHash": "0xfab544fe34e3c07ae245f55b868677adf0d690ca4f7ee3cd2ff5e2b1461cbdef",
      "blockNumber": 94657,
      "transactionIndex": 11,
      "confirmations": null,
      "from": "0xe6A7a1d47ff21B6321162AEA7C6CB457D5476Bca",
      "gasPrice": {
        "_hex": "0xe1e3d2a53"
      },
      "gasLimit": {
        "_hex": "0x55f0"
      },
      "to": "0xD15B7A3ADE211fcCf62eb4d41557Bb7e62C7e3a0",
      "value": {
        "_hex": "0x63de7f444bcffd68"
      },
      "nonce": 2795,
      "data": "0x",
      "r": "0x1cbe83aac0242099de0bcfa03a39c723a3d17b1ffec38f2f21dc1a1d8be64f5c",
      "s": "0x7335336873f7039a3fd657a3424601a4be46fa38639759de530f0e04ffb50fe5",
      "v": 27,
      "creates": null,
      "raw": "0xf86e820aeb850e1e3d2a538255f094d15b7a3ade211fccf62eb4d41557bb7e62c7e3a08863de7f444bcffd68801ba01cbe83aac0242099de0bcfa03a39c723a3d17b1ffec38f2f21dc1a1d8be64f5ca07335336873f7039a3fd657a3424601a4be46fa38639759de530f0e04ffb50fe5",
      "networkId": 0,
      "chainId": 0
    },
    {
      "hash": "0xb8f77ba844292f47d1a29dba48b186b047e03bce379f29842d0f15c8646b144e",
      "blockHash": "0xfab544fe34e3c07ae245f55b868677adf0d690ca4f7ee3cd2ff5e2b1461cbdef",
      "blockNumber": 94657,
      "transactionIndex": 12,
      "confirmations": null,
      "from": "0xe6A7a1d47ff21B6321162AEA7C6CB457D5476Bca",
      "gasPrice": {
        "_hex": "0xe1e3d2a53"
      },
      "gasLimit": {
        "_hex": "0x55f0"
      },
      "to": "0xB7A755cBC2Bb4D94e844A9b1D1ff53420d836478",
      "value": {
        "_hex": "0x642dbc450c5e3518"
      },
      "nonce": 2796,
      "data": "0x",
      "r": "0xa404a7f5dd65eaa8c0ce66db114c78902522fa9eeff63601049ec42a28e5d99d",
      "s": "0x294f331e36316184e11090ff2926f5b3daa22503176ac74b1d68c1e139988cad",
      "v": 28,
      "creates": null,
      "raw": "0xf86e820aec850e1e3d2a538255f094b7a755cbc2bb4d94e844a9b1d1ff53420d83647888642dbc450c5e3518801ca0a404a7f5dd65eaa8c0ce66db114c78902522fa9eeff63601049ec42a28e5d99da0294f331e36316184e11090ff2926f5b3daa22503176ac74b1d68c1e139988cad",
      "networkId": 0,
      "chainId": 0
    },
    {
      "hash": "0xda53225ca13ef8f44bf410849383a1f9a49dcaae082b5df08b4dc45b9a2084e2",
      "blockHash": "0xfab544fe34e3c07ae245f55b868677adf0d690ca4f7ee3cd2ff5e2b1461cbdef",
      "blockNumber": 94657,
      "transactionIndex": 13,
      "confirmations": null,
      "from": "0xe6A7a1d47ff21B6321162AEA7C6CB457D5476Bca",
      "gasPrice": {
        "_hex": "0xe1e3d2a53"
      },
      "gasLimit": {
        "_hex": "0x55f0"
      },
      "to": "0xB0b3385a645Eb80B431224920043447Ab1303eA8",
      "value": {
        "_hex": "0x655e3a392de90520"
      },
      "nonce": 2797,
      "data": "0x",
      "r": "0x77e1daa14c5b56c2ce9469b7d7e384f03ab4f3e82e366c584c51e4b0eab3a603",
      "s": "0x63bd8639b21a63fa3215e83b9660df739a3a3372beee0d2e1c33cb574a28c481",
      "v": 27,
      "creates": null,
      "raw": "0xf86e820aed850e1e3d2a538255f094b0b3385a645eb80b431224920043447ab1303ea888655e3a392de90520801ba077e1daa14c5b56c2ce9469b7d7e384f03ab4f3e82e366c584c51e4b0eab3a603a063bd8639b21a63fa3215e83b9660df739a3a3372beee0d2e1c33cb574a28c481",
      "networkId": 0,
      "chainId": 0
    },
    {
      "hash": "0xfbc408650e5db91820e66a886f2a86c33edc12574b44276dcc06bdcb5c105310",
      "blockHash": "0xfab544fe34e3c07ae245f55b868677adf0d690ca4f7ee3cd2ff5e2b1461cbdef",
      "blockNumber": 94657,
      "transactionIndex": 14,
      "confirmations": null,
      "from": "0xb2e4017063376d7eb1a72d91EC8Ff38712ffebdF",
      "gasPrice": {
        "_hex": "0xd6164fe0c"
      },
      "gasLimit": {
        "_hex": "0x5208"
      },
      "to": "0x32Be343B94f860124dC4fEe278FDCBD38C102D88",
      "value": {
        "_hex": "0x1791861084bd8800"
      },
      "nonce": 1,
      "data": "0x",
      "r": "0xe4a039a9c55e2522a51b84aeb1fbf0a716f6e35f1c0c4172af1aa90087b32a25",
      "s": "0x7567f7db8befab0b04049e710f8ee75a5a8646e5b4e5777a63dacd532873d25e",
      "v": 27,
      "creates": null,
      "raw": "0xf86c01850d6164fe0c8252089432be343b94f860124dc4fee278fdcbd38c102d88881791861084bd8800801ba0e4a039a9c55e2522a51b84aeb1fbf0a716f6e35f1c0c4172af1aa90087b32a25a07567f7db8befab0b04049e710f8ee75a5a8646e5b4e5777a63dacd532873d25e",
      "networkId": 0,
      "chainId": 0
    },
    {
      "hash": "0x743f2b0acec60b47af3f8a820297dc2ee3f52016091e2341471b5062d8c0b8ea",
      "blockHash": "0xfab544fe34e3c07ae245f55b868677adf0d690ca4f7ee3cd2ff5e2b1461cbdef",
      "blockNumber": 94657,
      "transactionIndex": 15,
      "confirmations": null,
      "from": "0xb2d1cCd26cdfC4474Ac02423AeFc62dA2A3Bc839",
      "gasPrice": {
        "_hex": "0xd6164fe0c"
      },
      "gasLimit": {
        "_hex": "0x5208"
      },
      "to": "0x32Be343B94f860124dC4fEe278FDCBD38C102D88",
      "value": {
        "_hex": "0x1481f45a8cc221000"
      },
      "nonce": 2,
      "data": "0x",
      "r": "0xa4079d05ef381a292d46efddd0f786e0cba8d30c4b665a4734c2e93cf3dcb263",
      "s": "0x456ac13858edfd4626ed7c739029a6a0afd7d699d543a15ce0f01e2bf60d91bc",
      "v": 27,
      "creates": null,
      "raw": "0xf86d02850d6164fe0c8252089432be343b94f860124dc4fee278fdcbd38c102d888901481f45a8cc221000801ba0a4079d05ef381a292d46efddd0f786e0cba8d30c4b665a4734c2e93cf3dcb263a0456ac13858edfd4626ed7c739029a6a0afd7d699d543a15ce0f01e2bf60d91bc",
      "networkId": 0,
      "chainId": 0
    }
  ]
}