{
  "hash": "0x066b1bc50cd19f984b7281a72ff044aaa4ac2012cd3d0232baa5cc996b467616",
  "parentHash": "0xab62bac2faa5c1752e7e07dff350b04ea422b3d3bfc99fec75e8ac7584ea085a",
  "number": 114448,
  "timestamp": 1440040442,
  "nonce": "0x2b0c8ea1a7f1825f",
  "difficulty": 4518940853787,
  "gasLimit": {
    "_hex": "0x2fefd8"
  },
  "gasUsed": {
    "_hex": "0x5208"
  },
  "miner": "0xe6A7a1d47ff21B6321162AEA7C6CB457D5476Bca",
  "extraData": "0x476574682f76312e302e312d38326566323666362f6c696e75782f676f312e34",
  "transactions": [
    {
      "hash": "0xf90b2f742de344d57fc33bd01d68b7337116428d8a361dc6c201df288bce33fa",
      "blockHash": "0x066b1bc50cd19f984b7281a72ff044aaa4ac2012cd3d0232baa5cc996b467616",
      "blockNumber": 114448,
      "transactionIndex": 0,
      "confirmations": null,
      "from": "0x9900467341E2d122D382794f203a0Fa60f42e508",
      "gasPrice": {
        "_hex": "0xd449d23a2"
      },
      "gasLimit": {
        "_hex": "0x15f90"
      },
      "to": "0x3A441D091C9ab611250C154646E2C9cf65abEBC4",
      "value": {
        "_hex": "0x7ce66c50e2840000"
      },
      "nonce": 3,
      "data": "0x",
      "r": "0x86802c37cf5cdb9affff38dd987e912c506532e502fda5e2ecc095aa52828501",
      "s": "0x10b8c7c2f663833f462a7341b0cabf2f56b5ea508e02b1f0c0a58d3154d2df95",
      "v": 27,
      "creates": null,
      "raw": "0xf86d03850d449d23a283015f90943a441d091c9ab611250c154646e2c9cf65abebc4887ce66c50e2840000801ba086802c37cf5cdb9affff38dd987e912c506532e502fda5e2ecc095aa52828501a010b8c7c2f663833f462a7341b0cabf2f56b5ea508e02b1f0c0a58d3154d2df95",
      "networkId": 0,
      "chainId": 0
    }
  ]
}