{
  "hash": "0x8a1652c5a605c09483b4f89fbadf3e3e7af288a40b3c30decdb7e5b52bf612b0",
  "parentHash": "0x6f5d72f68dde5c61ea976fd098d6f83dbb75220402e90a3ef480b703456a01e1",
  "number": 104868,
  "timestamp": 1439877212,
  "nonce": "0x9b21407e7575082e",
  "difficulty": 4346542065241,
  "gasLimit": {
    "_hex": "0x2fefd8"
  },
  "gasUsed": {
    "_hex": "0xf618"
  },
  "miner": "0x5c53D4655ABD45d7206858D6CDF7D7c2F036a323",
  "extraData": "0x476574682f76312e302e312d38326566323666362f6c696e75782f676f312e34",
  "transactions": [
    {
      "hash": "0x1525a42a5657985a663672caf80916fadca0ffef8819e32cc8df32537bc9a280",
      "blockHash": "0x8a1652c5a605c09483b4f89fbadf3e3e7af288a40b3c30decdb7e5b52bf612b0",
      "blockNumber": 104868,
      "transactionIndex": 0,
      "confirmations": null,
      "from": "0x2A5e3a40D2Cd0325766DE73a3D671896b362C73B",
      "gasPrice": {
        "_hex": "0xe8d4a51000"
      },
      "gasLimit": {
        "_hex": "0x15f90"
      },
      "to": "0x1308A2e95c0160B90803ddCA9B9a5bb55E416d79",
      "value": {
        "_hex": "0x7695a92c20d6fe00000"
      },
      "nonce": 1,
      "data": "0x",
      "r": "0x9f363ccd61d508c89135b5b7a8ad327dd9ec9408227bdf393bd6dd8b2183ff23",
      "s": "0x55b25461eaed07a55cfd14f268f2eb9198ab39f138dd63288f3c93f62f5f7480",
      "v": 28,
      "creates": null,
      "raw": "0xf86f0185e8d4a5100083015f90941308a2e95c0160b90803ddca9b9a5bb55e416d798a07695a92c20d6fe00000801ca09f363ccd61d508c89135b5b7a8ad327dd9ec9408227bdf393bd6dd8b2183ff23a055b25461eaed07a55cfd14f268f2eb9198ab39f138dd63288f3c93f62f5f7480",
      "networkId": 0,
      "chainId": 0
    },
    {
      "hash": "0x5ed0fb68b69c7e6d5bfacdccd8414e06de6b52fd30d1896f99bbf88e5f6aab90",
      "blockHash": "0x8a1652c5a605c09483b4f89fbadf3e3e7af288a40b3c30decdb7e5b52bf612b0",
      "blockNumber": 104868,
      "transactionIndex": 1,
      "confirmations": null,
      "from": "0x120A270bbC009644e35F0bB6ab13f95b8199c4ad",
      "gasPrice": {
        "_hex": "0xdc040a193"
      },
      "gasLimit": {
        "_hex": "0x3d090"
      },
      "to": "0xee4904bdE280aAbE72abEe5615d5cd308C1e2E37",
      "value": {
        "_hex": "0x134c3b0baafc96800"
      },
      "nonce": 764,
      "data": "0x",
      "r": "0x704b90d304d63a92e560985d91f6043b6124a0c6b382b63ac2cfba9dc4d75f71",
      "s": "0x40906d45f3b9ef3b1c6edf385c59d3f3264e8fed49c5c1e19334e8c5a638f4bd",
      "v": 27,
      "creates": null,
      "raw": "0xf8708202fc850dc040a1938303d09094ee4904bde280aabe72abee5615d5cd308c1e2e37890134c3b0baafc96800801ba0704b90d304d63a92e560985d91f6043b6124a0c6b382b63ac2cfba9dc4d75f71a040906d45f3b9ef3b1c6edf385c59d3f3264e8fed49c5c1e19334e8c5a638f4bd",
      "networkId": 0,
      "chainId": 0
    },
    {
      "hash": "0x80b2503dbfdd645719891fd59b47b27ad82fa5395996c883c6e219e1c4ab910f",
      "blockHash": "0x8a1652c5a605c09483b4f89fbadf3e3e7af288a40b3c30decdb7e5b52bf612b0",
      "blockNumber": 104868,
      "transactionIndex": 2,
      "confirmations": null,
      "from": "0x2910543Af39abA0Cd09dBb2D50200b3E800A63D2",
      "gasPrice": {
        "_hex": "0xce83fdcac"
      },
      "gasLimit": {
        "_hex": "0x5208"
      },
      "to": "0x338043c8592eDAdd5969B5529090D7eE1C466e14",
      "value": {
        "_hex": "0xd018f10d96fb8000"
      },
      "nonce": 1019,
      "data": "0x",
      "r": "0xc62dc58787cb5272cd98684563b57cbb9e7115a19cc9ed5514d91529e29b58b3",
      "s": "0x5addbfd707d17fd507fd24e815ae32825ee1f27de7aa1514358347f6b6d1c9a9",
      "v": 27,
      "creates": null,
      "raw": "0xf86e8203fb850ce83fdcac82520894338043c8592edadd5969b5529090d7ee1c466e1488d018f10d96fb8000801ba0c62dc58787cb5272cd98684563b57cbb9e7115a19cc9ed5514d91529e29b58b3a05addbfd707d17fd507fd24e815ae32825ee1f27de7aa1514358347f6b6d1c9a9",
      "networkId": 0,
      "chainId": 0
    }
  ]
}