{
  "hash": "0x259207b196d2d247d77305646a9e98ea62336b9e8b454230a82a1ef2304df79a",
  "parentHash": "0xf84148e7b87ebc7b9998038f73f2d37ad2b2facb5ad5ef68c0f29a3f605d161e",
  "number": 94734,
  "timestamp": 1439713339,
  "nonce": "0xfd309e416bf9fb02",
  "difficulty": 3479733945163,
  "gasLimit": {
    "_hex": "0x2fefd8"
  },
  "gasUsed": {
    "_hex": "0x5208"
  },
  "miner": "0xaEAf103356C2Ee943F748E8655659D29881323E1",
  "extraData": "0x476574682f76312e302e312f77696e646f77732f676f312e342e32",
  "transactions": [
    {
      "hash": "0xab89315847debd025393babb67eaf897a4e3e8489283e7bb1eb2d7820116d0dc",
      "blockHash": "0x259207b196d2d247d77305646a9e98ea62336b9e8b454230a82a1ef2304df79a",
      "blockNumber": 94734,
      "transactionIndex": 0,
      "confirmations": null,
      "from": "0x78FF59159FAfb4a337fd158FcF8D9603a7c6f03a",
      "gasPrice": {
        "_hex": "0xcc5e43541"
      },
      "gasLimit": {
        "_hex": "0x5208"
      },
      "to": "0x32Be343B94f860124dC4fEe278FDCBD38C102D88",
      "value": {
        "_hex": "0x320023ea0a635c00"
      },
      "nonce": 2,
      "data": "0x",
      "r": "0xefd9e6e696e6ed3cee21d9089760f1e2a759f2b5470d420fefbf04c3f097856f",
      "s": "0x2e9a587ea7889f970de60d35d2ab2c3722ebd79210c5d867ac3ba8679ce0cdd7",
      "v": 27,
      "creates": null,
      "raw": "0xf86c02850cc5e435418252089432be343b94f860124dc4fee278fdcbd38c102d8888320023ea0a635c00801ba0efd9e6e696e6ed3cee21d9089760f1e2a759f2b5470d420fefbf04c3f097856fa02e9a587ea7889f970de60d35d2ab2c3722ebd79210c5d867ac3ba8679ce0cdd7",
      "networkId": 0,
      "chainId": 0
    }
  ]
}