{
  "hash": "0x8255e2d4ee1eb31803804972f4258fd3610ce0d1c254b805b8a7119c5198c9b0",
  "parentHash": "0x40dd7ba0e64b2331d76de29d4cde3809cbd7650ce67101d19c3c062ce4447281",
  "number": 48427,
  "timestamp": 1438956911,
  "nonce": "0xef07507db32716eb",
  "difficulty": 1462163810964,
  "gasLimit": {
    "_hex": "0x17255"
  },
  "gasUsed": {
    "_hex": "0x5208"
  },
  "miner": "0x3cdA97032227293AaeAEF72f44C1AdCfC3daF366",
  "extraData": "0x476574682f76312e302e312d38326566323666362f6c696e75782f676f312e34",
  "transactions": [
    {
      "hash": "0x3e633113d82afc7155f8f32d5eea334e9df16f5c5609573890d9bc8e662bd83f",
      "blockHash": "0x8255e2d4ee1eb31803804972f4258fd3610ce0d1c254b805b8a7119c5198c9b0",
      "blockNumber": 48427,
      "transactionIndex": 0,
      "confirmations": null,
      "from": "0xd54F0a1c743C432d7af0Db15C2D87F483b52439B",
      "gasPrice": {
        "_hex": "0xce9ac5374"
      },
      "gasLimit": {
        "_hex": "0x15f90"
      },
      "to": "0x2C076d91b9ca5475Cd168B018707EeA87204BAaC",
      "value": {
        "_hex": "0x5af3107a4000"
      },
      "nonce": 1,
      "data": "0x",
      "r": "0x045ed31f841d6ad2e40def5cf71fdb448f0818270f95ca3d193ea3d64ebafbab",
      "s": "0x7f918193fafaeae7c04a999a09c0a4f1689bb7296aa3485cbd91ee1b980d7af8",
      "v": 27,
      "creates": null,
      "raw": "0xf86b01850ce9ac537483015f90942c076d91b9ca5475cd168b018707eea87204baac865af3107a4000801ba0045ed31f841d6ad2e40def5cf71fdb448f0818270f95ca3d193ea3d64ebafbaba07f918193fafaeae7c04a999a09c0a4f1689bb7296aa3485cbd91ee1b980d7af8",
      "networkId": 0,
      "chainId": 0
    }
  ]
}