{
  "hash": "0x23d13e0e5d2d44ed26c1e7feae874cb21418b8ad777c0c78d036504c6a9b6fee",
  "parentHash": "0xdce24e6dd98154c9e2987cd29281f6a2dc3a9c41d283744678ccd47246b081cf",
  "number": 62313,
  "timestamp": 1439186624,
  "nonce": "0xb55b6f81247ea353",
  "difficulty": 1769407753674,
  "gasLimit": {
    "_hex": "0x2fefd8"
  },
  "gasUsed": {
    "_hex": "0x5208"
  },
  "miner": "0x70137010922f2fC2964b3792907F79FBB75fEbe8",
  "extraData": "0x476574682f76312e302e302f6c696e75782f676f312e342e32",
  "transactions": [
    {
      "hash": "0xe0f2689fa855e31d3b259dd6025f55e03bed9dff5788b18d5e499c1888b1d5de",
      "blockHash": "0x23d13e0e5d2d44ed26c1e7feae874cb21418b8ad777c0c78d036504c6a9b6fee",
      "blockNumber": 62313,
      "transactionIndex": 0,
      "confirmations": null,
      "from": "0x32Be343B94f860124dC4fEe278FDCBD38C102D88",
      "gasPrice": {
        "_hex": "0xcba559cc4"
      },
      "gasLimit": {
        "_hex": "0x5208"
      },
      "to": "0x120A270bbC009644e35F0bB6ab13f95b8199c4ad",
      "value": {
        "_hex": "0x5150ae84a8cdf00000"
      },
      "nonce": 149,
      "data": "0x",
      "r": "0x419b6970221ff736041a3de664085554b9b369ca7256b94c31eb0556cbea9ad6",
      "s": "0x1f7b0e08cc6600a8cf278a82b7a8a852aaa76d216f4612550e76937ae81ea5ed",
      "v": 27,
      "creates": null,
      "raw": "0xf86e8195850cba559cc482520894120a270bbc009644e35f0bb6ab13f95b8199c4ad895150ae84a8cdf00000801ba0419b6970221ff736041a3de664085554b9b369ca7256b94c31eb0556cbea9ad6a01f7b0e08cc6600a8cf278a82b7a8a852aaa76d216f4612550e76937ae81ea5ed",
      "networkId": 0,
      "chainId": 0
    }
  ]
}