{
  "hash": "0xe96bb63cc1cda746890235aa676db9e665f253e0beb29b4ef2b18d2f8d01a2b6",
  "parentHash": "0x83977c9757ae5e6da6c973ae1671e9bdf878bcf60388e0c51b9ac105cd2264fc",
  "number": 112157,
  "timestamp": 1440002981,
  "nonce": "0xb04b224dbc47d483",
  "difficulty": 4370420993247,
  "gasLimit": {
    "_hex": "0x2fefd8"
  },
  "gasUsed": {
    "_hex": "0x5208"
  },
  "miner": "0x457C428117c1b8507111392d50876A9D548a6D36",
  "extraData": "0x476574682f76312e302e312f6c696e75782f676f312e342e32",
  "transactions": [
    {
      "hash": "0x0c5518ca782609c2190b56f3fadff2f8b26a030209efe4ecd5e3ec69705a06f5",
      "blockHash": "0xe96bb63cc1cda746890235aa676db9e665f253e0beb29b4ef2b18d2f8d01a2b6",
      "blockNumber": 112157,
      "transactionIndex": 0,
      "confirmations": null,
      "from": "0x38DD392D8b9B5E5aB6eDd96D6e677d575502DfC2",
      "gasPrice": {
        "_hex": "0xd8adb5608"
      },
      "gasLimit": {
        "_hex": "0x5208"
      },
      "to": "0xFBb1b73C4f0BDa4f67dcA266ce6Ef42f520fBB98",
      "value": {
        "_hex": "0x3cb6d9e392ceebfc0"
      },
      "nonce": 0,
      "data": "0x",
      "r": "0xec9e6f7f601f015ba3c9d6209da9520806b89988d423b7d229a7431d5ad9c3ff",
      "s": "0x12db28e1c8406c3c0aadc2b146fbc3da8e3c752f2724be6edde2f7a0c5254c2a",
      "v": 27,
      "creates": null,
      "raw": "0xf86d80850d8adb560882520894fbb1b73c4f0bda4f67dca266ce6ef42f520fbb988903cb6d9e392ceebfc0801ba0ec9e6f7f601f015ba3c9d6209da9520806b89988d423b7d229a7431d5ad9c3ffa012db28e1c8406c3c0aadc2b146fbc3da8e3c752f2724be6edde2f7a0c5254c2a",
      "networkId": 0,
      "chainId": 0
    }
  ]
}