{
  "hash": "0x632f95a374e7aa94fc8cf39c4fab8932b5343da3d8fd0c2ac0f0f8abf99047ea",
  "parentHash": "0x0e7190c6e9a322f90413be29b1964bf9bbcf38d0166f7f28f64b43ae1cf4e4f5",
  "number": 97044,
  "timestamp": 1439749980,
  "nonce": "0x90928da198acb942",
  "difficulty": 3746789053182,
  "gasLimit": {
    "_hex": "0x2fefd8"
  },
  "gasUsed": {
    "_hex": "0x546c"
  },
  "miner": "0x64DcD9c2733262031AbFE744614d9Ed5AEDb0EFB",
  "extraData": "0x476574682f76312e302e312f6c696e75782f676f312e342e32",
  "transactions": [
    {
      "hash": "0x2fd8f80622679b5ba4100597b45b9ce51ae9ef8fc13faa1d7dfebfc067489c3a",
      "blockHash": "0x632f95a374e7aa94fc8cf39c4fab8932b5343da3d8fd0c2ac0f0f8abf99047ea",
      "blockNumber": 97044,
      "transactionIndex": 0,
      "confirmations": null,
      "from": "0x67518E5D02b205180f0463A32004471F753C523E",
      "gasPrice": {
        "_hex": "0x110c8f7d8de"
      },
      "gasLimit": {
        "_hex": "0xc350"
      },
      "to": "0x2910543Af39abA0Cd09dBb2D50200b3E800A63D2",
      "value": {
        "_hex": "0x12dd785c378bf00000"
      },
      "nonce": 1,
      "data": "0x454e515a5741323630",
      "r": "0xe64e2c3d1f9b011662238510197dfd69991dc9cdad1c8ac864de43f07ec91592",
      "s": "0x87ffcfcafe8c4a71e605372b9db5b32ada9946706e1b789e5dba260ef24c15be",
      "v": 28,
      "creates": null,
      "raw": "0xf87701860110c8f7d8de82c350942910543af39aba0cd09dbb2d50200b3e800a63d28912dd785c378bf0000089454e515a57413236301ca0e64e2c3d1f9b011662238510197dfd69991dc9cdad1c8ac864de43f07ec91592a087ffcfcafe8c4a71e605372b9db5b32ada9946706e1b789e5dba260ef24c15be",
      "networkId": 0,
      "chainId": 0
    }
  ]
}