{
  "hash": "0xb8382f194f6821694cae8c7d6e0eaac349f5eb82fee6a47c87454b3341d59f99",
  "parentHash": "0xc0795bc17b188de971ed4c54c85463c47fd6eeb279e42e8e231ac0de13eca8a2",
  "number": 100969,
  "timestamp": 1439815327,
  "nonce": "0xab52b00520fd7bb9",
  "difficulty": 3862030360739,
  "gasLimit": {
    "_hex": "0x2fefd8"
  },
  "gasUsed": {
    "_hex": "0x5208"
  },
  "miner": "0xe6A7a1d47ff21B6321162AEA7C6CB457D5476Bca",
  "extraData": "0x476574682f76312e302e312d38326566323666362f6c696e75782f676f312e34",
  "transactions": [
    {
      "hash": "0x0f8a8325b3b8d2448f850b6912ee0125bf810e5590a77ce97edfbbeffebe89d6",
      "blockHash": "0xb8382f194f6821694cae8c7d6e0eaac349f5eb82fee6a47c87454b3341d59f99",
      "blockNumber": 100969,
      "transactionIndex": 0,
      "confirmations": null,
      "from": "0x7884D470204862a0d1A21122F41ee77430396Ee5",
      "gasPrice": {
        "_hex": "0xd5ffcc0bf"
      },
      "gasLimit": {
        "_hex": "0x15f90"
      },
      "to": "0x8e47320b08b9eCc4026D03a027a3B59A48e2980D",
      "value": {
        "_hex": "0x214e8348c4f0000"
      },
      "nonce": 78,
      "data": "0x",
      "r": "0x2a3153651123e02f518b6562bd8379485e00861026c37673c7f7048c6abd3325",
      "s": "0x6a3240ac7c717add35a6a56a53b24e9fcc232ce88ca3a3ba37545be3189cdad0",
      "v": 27,
      "creates": null,
      "raw": "0xf86d4e850d5ffcc0bf83015f90948e47320b08b9ecc4026d03a027a3b59a48e2980d880214e8348c4f0000801ba02a3153651123e02f518b6562bd8379485e00861026c37673c7f7048c6abd3325a06a3240ac7c717add35a6a56a53b24e9fcc232ce88ca3a3ba37545be3189cdad0",
      "networkId": 0,
      "chainId": 0
    }
  ]
}