{
  "hash": "0x5960044362c8bd50198228411d50e2f97e48762ae7f5dca00155a292b619904b",
  "parentHash": "0x5dc461a590b69f9b95c37b63d2d6c80d38beb17591683063f0a62af64b9943c1",
  "number": 53699,
  "timestamp": 1439042091,
  "nonce": "0xc37ad46021b0e675",
  "difficulty": 1593930532429,
  "gasLimit": {
    "_hex": "0x2faf04"
  },
  "gasUsed": {
    "_hex": "0xa410"
  },
  "miner": "0xf927a40C8B7F6E07c5af7FA2155B4864a4112B13",
  "extraData": "0x",
  "transactions": [
    {
      "hash": "0xe8844dd29675749232b98221faa9176019bbc1525ace74addc44e1dfe7acfb19",
      "blockHash": "0x5960044362c8bd50198228411d50e2f97e48762ae7f5dca00155a292b619904b",
      "blockNumber": 53699,
      "transactionIndex": 0,
      "confirmations": null,
      "from": "0x0eDEd3DA479d0beF8eeC92A76644D3f4E3C177f7",
      "gasPrice": {
        "_hex": "0xd5c1f6a6c"
      },
      "gasLimit": {
        "_hex": "0x15f90"
      },
      "to": "0x3f0073d6bBE51612013aA09BC970e08E84D7BA23",
      "value": {
        "_hex": "0x317e6b96b7fba40000"
      },
      "nonce": 2,
      "data": "0x",
      "r": "0x77596ac3f0e983b4a18ed844ede1616967cacd594997aef43148b1196ab1dca5",
      "s": "0x7ac44763b596861f8cd8555d2dc5f6c02bb4320d10b9dda8a34b083a18dd9fb3",
      "v": 27,
      "creates": null,
      "raw": "0xf86e02850d5c1f6a6c83015f90943f0073d6bbe51612013aa09bc970e08e84d7ba2389317e6b96b7fba40000801ba077596ac3f0e983b4a18ed844ede1616967cacd594997aef43148b1196ab1dca5a07ac44763b596861f8cd8555d2dc5f6c02bb4320d10b9dda8a34b083a18dd9fb3",
      "networkId": 0,
      "chainId": 0
    },
    {
      "hash": "0xd20177fc94ab34e59ca88cff4e323fa0e3e123b0f8c8bd327f5a00d2d3a2346a",
      "blockHash": "0x5960044362c8bd50198228411d50e2f97e48762ae7f5dca00155a292b619904b",
      "blockNumber": 53699,
      "transactionIndex": 1,
      "confirmations": null,
      "from": "0x07BC2CC8eeDC01970700efC9c4Fb36735e98CD71",
      "gasPrice": {
        "_hex": "0xcf343713f"
      },
      "gasLimit": {
        "_hex": "0x15f90"
      },
      "to": "0x0fFecdF99016b9C74f1088c858B0A6b71992A471",
      "value": {
        "_hex": "0x36389038b699b40000"
      },
      "nonce": 5,
      "data": "0x",
      "r": "0x5cbe2db585e82b56b773601f97f271930584ac8a96a02f03ba728ccc26070f90",
      "s": "0x58f4fe7d34f9d8fcf6a24633c34ce935b1dd8acdad8f360d71131eb0be9e9568",
      "v": 27,
      "creates": null,
      "raw": "0xf86e05850cf343713f83015f90940ffecdf99016b9c74f1088c858b0a6b71992a4718936389038b699b40000801ba05cbe2db585e82b56b773601f97f271930584ac8a96a02f03ba728ccc26070f90a058f4fe7d34f9d8fcf6a24633c34ce935b1dd8acdad8f360d71131eb0be9e9568",
      "networkId": 0,
      "chainId": 0
    }
  ]
}