{
  "hash": "0xb7e9583f534186c0e9f298355fb4e7f50de251e63948a4574acbf1eafe71a7a9",
  "parentHash": "0xefecf933955e60b55a4508797e57611e76f6998f22de881a7b5ea100eeebb125",
  "number": 102718,
  "timestamp": 1439842068,
  "nonce": "0xffa604c35a764171",
  "difficulty": 4052461182328,
  "gasLimit": {
    "_hex": "0x2fefd8"
  },
  "gasUsed": {
    "_hex": "0x1bdbe"
  },
  "miner": "0xC978e305Aaa59952FAb39Ba288d6E9CB09B952E1",
  "extraData": "0x476574682f76312e302e312f77696e646f77732f676f312e342e32",
  "transactions": [
    {
      "hash": "0xa820885f72608bef8eccd03901b0ae62ad17dd086272166eae575cf16bc464bd",
      "blockHash": "0xb7e9583f534186c0e9f298355fb4e7f50de251e63948a4574acbf1eafe71a7a9",
      "blockNumber": 102718,
      "transactionIndex": 0,
      "confirmations": null,
      "from": "0x36d85Dc3683156e63Bf880A9fAb7788CF8143a27",
      "gasPrice": {
        "_hex": "0xd62dc4c31"
      },
      "gasLimit": {
        "_hex": "0x249f0"
      },
      "to": "0xE28e72FCf78647ADCe1F1252F240bbfaebD63BcC",
      "value": {
        "_hex": "0x3635c9adc5dea00000"
      },
      "nonce": 22,
      "data": "0x45466f3a",
      "r": "0x9c22a430587cc1e7c3e8ba31a02d1fc3bdd357716a4a059d71f13859c4793bff",
      "s": "0x54e59af887d39ca0174dfc975959f54677c2543087f9b4c02adc0ed220f86357",
      "v": 27,
      "creates": null,
      "raw": "0xf87216850d62dc4c31830249f094e28e72fcf78647adce1f1252f240bbfaebd63bcc893635c9adc5dea000008445466f3a1ba09c22a430587cc1e7c3e8ba31a02d1fc3bdd357716a4a059d71f13859c4793bffa054e59af887d39ca0174dfc975959f54677c2543087f9b4c02adc0ed220f86357",
      "networkId": 0,
      "chainId": 0
    }
  ]
}