{
  "hash": "0x2c9800aa19b8f07eb9fcf68a5ea4561b45c5745d3905317175f3f82634bbcbc2",
  "parentHash": "0x35078f4c1c011b269852c57263cffd6319107d5040b2d8c251f6149b608629e4",
  "number": 46341,
  "timestamp": 1438921567,
  "nonce": "0x28a5de638f823043",
  "difficulty": 1461099900927,
  "gasLimit": {
    "_hex": "0x5ba3"
  },
  "gasUsed": {
    "_hex": "0x5208"
  },
  "miner": "0x3222BA3F3e79eA0e31467EEE7639B57923558cCD",
  "extraData": "0x476574682f76312e302e302f77696e646f77732f676f312e342e32",
  "transactions": [
    {
      "hash": "0x54ebfd455338fc47e55b49ae216411bceb7b0c2e1aa7149803f6187eb9607178",
      "blockHash": "0x2c9800aa19b8f07eb9fcf68a5ea4561b45c5745d3905317175f3f82634bbcbc2",
      "blockNumber": 46341,
      "transactionIndex": 0,
      "confirmations": null,
      "from": "0xAF880FC7567D5595cACCe15c3FC14C8742C26C9e",
      "gasPrice": {
        "_hex": "0x724968559d"
      },
      "gasLimit": {
        "_hex": "0x5208"
      },
      "to": "0x543807d0aF2c58b49d7F25659D0472d4d8B8e8DA",
      "value": {
        "_hex": "0xde0b6b3a7640000"
      },
      "nonce": 0,
      "data": "0x",
      "r": "0xda5afedcbb9b44fa9c4fcb85310ee16587355ae54fd08d174beae220f01d6fa0",
      "s": "0x364b5bc64125fe5a77a8d881d95a45aa5b4e38f6d83902ba2e548a632ad064bb",
      "v": 27,
      "creates": null,
      "raw": "0xf86c8085724968559d82520894543807d0af2c58b49d7f25659d0472d4d8b8e8da880de0b6b3a7640000801ba0da5afedcbb9b44fa9c4fcb85310ee16587355ae54fd08d174beae220f01d6fa0a0364b5bc64125fe5a77a8d881d95a45aa5b4e38f6d83902ba2e548a632ad064bb",
      "networkId": 0,
      "chainId": 0
    }
  ]
}