{
  "hash": "0xa6af04b1e4e7bc905c8213e94e28199dfa64a8449e0532488477e769cba86158",
  "parentHash": "0x7c8315ecb96d6b69784b976710a6e7d6d266f77e36f7e5e4807fdd5470f86c7e",
  "number": 113585,
  "timestamp": 1440026130,
  "nonce": "0x3ac9f79ec559e2bc",
  "difficulty": 4455861240688,
  "gasLimit": {
    "_hex": "0x2fefd8"
  },
  "gasUsed": {
    "_hex": "0xa410"
  },
  "miner": "0xb6E2d440C46510EC44266A3f58165E3956173df0",
  "extraData": "0x476574682f76312e302e312f77696e646f77732f676f312e342e32",
  "transactions": [
    {
      "hash": "0x2c7d8d556640bdb57216adee18b7ab65cb41aa20b9c4aa98d9f0cf65d2a832fa",
      "blockHash": "0xa6af04b1e4e7bc905c8213e94e28199dfa64a8449e0532488477e769cba86158",
      "blockNumber": 113585,
      "transactionIndex": 0,
      "confirmations": null,
      "from": "0x32Be343B94f860124dC4fEe278FDCBD38C102D88",
      "gasPrice": {
        "_hex": "0xe09aae395"
      },
      "gasLimit": {
        "_hex": "0x5208"
      },
      "to": "0x49f0609Ed78ee50FAa268a9Bdeb2949fa50d83eD",
      "value": {
        "_hex": "0x1158e460913d00000"
      },
      "nonce": 1370,
      "data": "0x",
      "r": "0xff96667adf2d4dfe58687c5e8c205bc5bfcdb1fced4d0eb798c9a2e9c7049c41",
      "s": "0x788b47c4c06826d02d1a4c89b3b61ea376a69c18e8efe59b794f18616d34dcea",
      "v": 28,
      "creates": null,
      "raw": "0xf86f82055a850e09aae3958252089449f0609ed78ee50faa268a9bdeb2949fa50d83ed8901158e460913d00000801ca0ff96667adf2d4dfe58687c5e8c205bc5bfcdb1fced4d0eb798c9a2e9c7049c41a0788b47c4c06826d02d1a4c89b3b61ea376a69c18e8efe59b794f18616d34dcea",
      "networkId": 0,
      "chainId": 0
    },
    {
      "hash": "0xd3d59e5454f487aeb690178ac1d35b3156c5f108be3476e562b11c0a05239364",
      "blockHash": "0xa6af04b1e4e7bc905c8213e94e28199dfa64a8449e0532488477e769cba86158",
      "blockNumber": 113585,
      "transactionIndex": 1,
      "confirmations": null,
      "from": "0x2910543Af39abA0Cd09dBb2D50200b3E800A63D2",
      "gasPrice": {
        "_hex": "0xcf7116364"
      },
      "gasLimit": {
        "_hex": "0x5208"
      },
      "to": "0x3120869dfC5b2e9D636fd0BFA6717C51146d5F7a",
      "value": {
        "_hex": "0x15181ff25a98000"
      },
      "nonce": 1115,
      "data": "0x",
      "r": "0xd40db8f463a0064e43bdc99184957b8c1b965a5a0e2d08ed65d785ff87b8b456",
      "s": "0x184a5c393e884f3ddcb55b3cf4c366304ce4c1cca080cf9a83b40894975efcd1",
      "v": 27,
      "creates": null,
      "raw": "0xf86e82045b850cf7116364825208943120869dfc5b2e9d636fd0bfa6717c51146d5f7a88015181ff25a98000801ba0d40db8f463a0064e43bdc99184957b8c1b965a5a0e2d08ed65d785ff87b8b456a0184a5c393e884f3ddcb55b3cf4c366304ce4c1cca080cf9a83b40894975efcd1",
      "networkId": 0,
      "chainId": 0
    }
  ]
}