{
  "hash": "0x71d7b7c65ca91de73413130f170c12d02f6fde876bf437551cadbc7487d0b779",
  "parentHash": "0xea2a65d45b5d991fba25f64d4dfb6828ed098c52e20397c03e6aaa6f10865dbf",
  "number": 74793,
  "timestamp": 1439392478,
  "nonce": "0xfc7d12c33c829631",
  "difficulty": 2196643713599,
  "gasLimit": {
    "_hex": "0x2fefd8"
  },
  "gasUsed": {
    "_hex": "0x14820"
  },
  "miner": "0x6DE55b563cE6E319cCB403032Da3BE5Ad4ec4FcF",
  "extraData": "0x",
  "transactions": [
    {
      "hash": "0xf032bd3b1a9e8873fd2cb8aa08a156810256ad6e0d9e777602f6c13d67ad72c0",
      "blockHash": "0x71d7b7c65ca91de73413130f170c12d02f6fde876bf437551cadbc7487d0b779",
      "blockNumber": 74793,
      "transactionIndex": 0,
      "confirmations": null,
      "from": "0x01Ad0ACFf478127D9d702B1A13599D706cB759b1",
      "gasPrice": {
        "_hex": "0xd0994fbd5"
      },
      "gasLimit": {
        "_hex": "0x5208"
      },
      "to": "0x32Be343B94f860124dC4fEe278FDCBD38C102D88",
      "value": {
        "_hex": "0x8cd7ddbf886c6800"
      },
      "nonce": 15,
      "data": "0x",
      "r": "0xae77e5aa4d17a03d849ee9ada335557b58b86a8b4958332d051a38bc253e5369",
      "s": "0x1ab2c8bf756a2ad0cfa411076c7fb57383b27a6cddecaedf4cefb0cf95a5ba04",
      "v": 27,
      "creates": null,
      "raw": "0xf86c0f850d0994fbd58252089432be343b94f860124dc4fee278fdcbd38c102d88888cd7ddbf886c6800801ba0ae77e5aa4d17a03d849ee9ada335557b58b86a8b4958332d051a38bc253e5369a01ab2c8bf756a2ad0cfa411076c7fb57383b27a6cddecaedf4cefb0cf95a5ba04",
      "networkId": 0,
      "chainId": 0
    },
    {
      "hash": "0x912b062151d4c6d5b712d35c77516dea5dc07516bf1eb64e66a640a632be8a97",
      "blockHash": "0x71d7b7c65ca91de73413130f170c12d02f6fde876bf437551cadbc7487d0b779",
      "blockNumber": 74793,
      "transactionIndex": 1,
      "confirmations": null,
      "from": "0x9252f10822221Afe05035227D96a9b5B2b50349B",
      "gasPrice": {
        "_hex": "0xd0994fbd5"
      },
      "gasLimit": {
        "_hex": "0x5208"
      },
      "to": "0x32Be343B94f860124dC4fEe278FDCBD38C102D88",
      "value": {
        "_hex": "0x227a41b8da4ea60000"
      },
      "nonce": 3,
      "data": "0x",
      "r": "0xfeae29c6a3b0b8d5d64c725ace9532f42c2cf6b76ac533070735d7c939d1a768",
      "s": "0x23aaaf86aae39b1e0e45f724b91f319ec02f7dfb38fc49f75c1ff27718c30429",
      "v": 28,
      "creates": null,
      "raw": "0xf86d03850d0994fbd58252089432be343b94f860124dc4fee278fdcbd38c102d8889227a41b8da4ea60000801ca0feae29c6a3b0b8d5d64c725ace9532f42c2cf6b76ac533070735d7c939d1a768a023aaaf86aae39b1e0e45f724b91f319ec02f7dfb38fc49f75c1ff27718c30429",
      "networkId": 0,
      "chainId": 0
    },
    {
      "hash": "0x6c166a218ec435f6fb29ce6566aec69ac0921d03aefffababbb45299374a6f25",
      "blockHash": "0x71d7b7c65ca91de73413130f170c12d02f6fde876bf437551cadbc7487d0b779",
      "blockNumber": 74793,
      "transactionIndex": 2,
      "confirmations": null,
      "from": "0xa114c802ef29776f05f9c6925cE915232e8ae102",
      "gasPrice": {
        "_hex": "0xd0994fbd5"
      },
      "gasLimit": {
        "_hex": "0x5208"
      },
      "to": "0x32Be343B94f860124dC4fEe278FDCBD38C102D88",
      "value": {
        "_hex": "0x455f6408b7296800"
      },
      "nonce": 10,
      "data": "0x",
      "r": "0x89aebed681db5eb7020578be931414d3fc40e4271a244931f6692ac71070437d",
      "s": "0x2d58b0724ddbdf09bb027d182418c0f44909da2ff2b85ef3045cd37f103c06e1",
      "v": 27,
      "creates": null,
      "raw": "0xf86c0a850d0994fbd58252089432be343b94f860124dc4fee278fdcbd38c102d8888455f6408b7296800801ba089aebed681db5eb7020578be931414d3fc40e4271a244931f6692ac71070437da02d58b0724ddbdf09bb027d182418c0f44909da2ff2b85ef3045cd37f103c06e1",
      "networkId": 0,
      "chainId": 0
    },
    {
      "hash": "0x6212be8803a73297c2e61387b6de026956012937f4f3aafe475b1e5bb2bef125",
      "blockHash": "0x71d7b7c65ca91de73413130f170c12d02f6fde876bf437551cadbc7487d0b779",
      "blockNumber": 74793,
      "transactionIndex": 3,
      "confirmations": null,
      "from": "0xa70a9a7040d542C632D8e0bE7c5513A8a5Bbc752",
      "gasPrice": {
        "_hex": "0xd0994fbd5"
      },
      "gasLimit": {
        "_hex": "0x5208"
      },
      "to": "0x32Be343B94f860124dC4fEe278FDCBD38C102D88",
      "value": {
        "_hex": "0x455f6408b7296800"
      },
      "nonce": 36,
      "data": "0x",
      "r": "0x558fb41f1be5095cc73645a6bca555f5d9596d198ae484dcc28d4ad8cfe866ac",
      "s": "0x3f1fdca9d096098f25a3752af9fda0d32e37c4972249e3a1b2e1138b2d6cc3ba",
      "v": 27,
      "creates": null,
      "raw": "0xf86c24850d0994fbd58252089432be343b94f860124dc4fee278fdcbd38c102d8888455f6408b7296800801ba0558fb41f1be5095cc73645a6bca555f5d9596d198ae484dcc28d4ad8cfe866aca03f1fdca9d096098f25a3752af9fda0d32e37c4972249e3a1b2e1138b2d6cc3ba",
      "networkId": 0,
      "chainId": 0
    }
  ]
}