{
  "hash": "0x9236ace96c5a6125140e3b349b979f6ef21fdb89b79d8738804ef4a868280a21",
  "parentHash": "0x155109faf911559a8890e3ea45cc68ff073dc1f081d3fb7af6121caef0b06cf6",
  "number": 98308,
  "timestamp": 1439770533,
  "nonce": "0xa510a35c94fcfb70",
  "difficulty": 3880270209870,
  "gasLimit": {
    "_hex": "0x2fefd8"
  },
  "gasUsed": {
    "_hex": "0x5208"
  },
  "miner": "0xe6A7a1d47ff21B6321162AEA7C6CB457D5476Bca",
  "extraData": "0x476574682f76312e302e312d38326566323666362f6c696e75782f676f312e34",
  "transactions": [
    {
      "hash": "0x2d431282f15980a8a2ce2d3ab5cb2de3b81b560f0b3168a684e4573ad623aef0",
      "blockHash": "0x9236ace96c5a6125140e3b349b979f6ef21fdb89b79d8738804ef4a868280a21",
      "blockNumber": 98308,
      "transactionIndex": 0,
      "confirmations": null,
      "from": "0x0D4EcC7d750180EBf4A9Df728B6669B5Bceb5E40",
      "gasPrice": {
        "_hex": "0xd0abb819d"
      },
      "gasLimit": {
        "_hex": "0x5208"
      },
      "to": "0x32Be343B94f860124dC4fEe278FDCBD38C102D88",
      "value": {
        "_hex": "0x45639451b74e3400"
      },
      "nonce": 49,
      "data": "0x",
      "r": "0xaa4a8c71cd744cb721f22aa3d41db1611041276e868e83e75ef7bb72b8ddf31a",
      "s": "0x646147c559286c0e4d781e781911a2c0b9139d5e5a6a7f62cdb5948f81fd293a",
      "v": 27,
      "creates": null,
      "raw": "0xf86c31850d0abb819d8252089432be343b94f860124dc4fee278fdcbd38c102d888845639451b74e3400801ba0aa4a8c71cd744cb721f22aa3d41db1611041276e868e83e75ef7bb72b8ddf31aa0646147c559286c0e4d781e781911a2c0b9139d5e5a6a7f62cdb5948f81fd293a",
      "networkId": 0,
      "chainId": 0
    }
  ]
}