{
  "hash": "0xd8ba0a9953083c6001ae6dcb750b0254b7651e1422683f69567ea510e2e1176a",
  "parentHash": "0xae5cb568a4dd35c59132ff3b75ffc1c03761b57d452963ed14dfa5a574b5657f",
  "number": 104956,
  "timestamp": 1439879046,
  "nonce": "0xadee5b7515497af5",
  "difficulty": 4333781225992,
  "gasLimit": {
    "_hex": "0x2fefd8"
  },
  "gasUsed": {
    "_hex": "0x5208"
  },
  "miner": "0xeB1325C8D9d3ea8D74aC11F4B00F1B2367686319",
  "extraData": "0x",
  "transactions": [
    {
      "hash": "0x99aab6beef6fea583ee943807ae608a524e69090bbe1465a7f83a017ad288dd4",
      "blockHash": "0xd8ba0a9953083c6001ae6dcb750b0254b7651e1422683f69567ea510e2e1176a",
      "blockNumber": 104956,
      "transactionIndex": 0,
      "confirmations": null,
      "from": "0x32Be343B94f860124dC4fEe278FDCBD38C102D88",
      "gasPrice": {
        "_hex": "0xde4dff04e"
      },
      "gasLimit": {
        "_hex": "0x5208"
      },
      "to": "0xE3291e02d1d7b6A7F4aAA164c56Cf21FD30D0eb5",
      "value": {
        "_hex": "0x7d08d77b5e15040000"
      },
      "nonce": 1159,
      "data": "0x",
      "r": "0x5f270ee4d547c61a013796be527b489572a2d570a9a6a754733d6bfd755d54c0",
      "s": "0x33ce89597a3b53eeb66767baf5759e17404a3e3f922d6c82a5c771344588980f",
      "v": 28,
      "creates": null,
      "raw": "0xf86f820487850de4dff04e82520894e3291e02d1d7b6a7f4aaa164c56cf21fd30d0eb5897d08d77b5e15040000801ca05f270ee4d547c61a013796be527b489572a2d570a9a6a754733d6bfd755d54c0a033ce89597a3b53eeb66767baf5759e17404a3e3f922d6c82a5c771344588980f",
      "networkId": 0,
      "chainId": 0
    }
  ]
}