{
  "hash": "0x3c93a7ff6fb6f39e63456e9ea6fb069c7783f3c00b1012e36f0a8a02bdae604a",
  "parentHash": "0x5b51f8742e52211682fa0567e11117538bdd78e3cbffe4569da6190a62a44480",
  "number": 46250,
  "timestamp": 1438919983,
  "nonce": "0xe0a8f9f3fb8409e3",
  "difficulty": 1460402489762,
  "gasLimit": {
    "_hex": "0x5672"
  },
  "gasUsed": {
    "_hex": "0x5208"
  },
  "miner": "0xf927a40C8B7F6E07c5af7FA2155B4864a4112B13",
  "extraData": "0x476574682f76312e302e312f6c696e75782f676f312e342e32",
  "transactions": [
    {
      "hash": "0x3811e0631ee580a60359958bf47fc9c61a8558c7ce7b8e0fff8f2ee01abc7a30",
      "blockHash": "0x3c93a7ff6fb6f39e63456e9ea6fb069c7783f3c00b1012e36f0a8a02bdae604a",
      "blockNumber": 46250,
      "transactionIndex": 0,
      "confirmations": null,
      "from": "0x4d9279962029a8bd45639737E98b511eFF074C21",
      "gasPrice": {
        "_hex": "0x19d4068c9b"
      },
      "gasLimit": {
        "_hex": "0x5208"
      },
      "to": "0xd65F9b9AA7BeCfd1481Bdd7E22527ca0900B7bc8",
      "value": {
        "_hex": "0x56bc75e2d63100000"
      },
      "nonce": 1,
      "data": "0x",
      "r": "0xa602ee119c48dce9c8f7af52546abb57353503ad005b7bed1a6bad9e1cce223b",
      "s": "0x50f2616b5d72d3c999f4afc5225f44a65ace2e12c7f597e93d85b18e0535159a",
      "v": 28,
      "creates": null,
      "raw": "0xf86d018519d4068c9b82520894d65f9b9aa7becfd1481bdd7e22527ca0900b7bc889056bc75e2d63100000801ca0a602ee119c48dce9c8f7af52546abb57353503ad005b7bed1a6bad9e1cce223ba050f2616b5d72d3c999f4afc5225f44a65ace2e12c7f597e93d85b18e0535159a",
      "networkId": 0,
      "chainId": 0
    }
  ]
}