{
  "hash": "0x7d79d0ee672d6905aef35b91e3135c43484338257b539536d7c84c421ddd4eb0",
  "parentHash": "0xbd59c7092b14ccbc3848467d8d6ad339f576aa13459ead01642a065f855875a9",
  "number": 74424,
  "timestamp": 1439385823,
  "nonce": "0xa8fd21510a4b5476",
  "difficulty": 2212888815565,
  "gasLimit": {
    "_hex": "0x2fefd8"
  },
  "gasUsed": {
    "_hex": "0xa410"
  },
  "miner": "0xf8E0CA3Ed80bd541b94BEdCf259e8CF2141A9523",
  "extraData": "0x476574682f76312e302e312f77696e646f77732f676f312e342e32",
  "transactions": [
    {
      "hash": "0xace06e2c976b138214d372bf2aa8de3eec2423af9511149e6f7e49ad123b516f",
      "blockHash": "0x7d79d0ee672d6905aef35b91e3135c43484338257b539536d7c84c421ddd4eb0",
      "blockNumber": 74424,
      "transactionIndex": 0,
      "confirmations": null,
      "from": "0x0037ce3d4B7f8729C8607D8D0248252Be68202c0",
      "gasPrice": {
        "_hex": "0xdc0988bb3"
      },
      "gasLimit": {
        "_hex": "0x15f90"
      },
      "to": "0xDC6A542F97876923583019b526335fD1fB0DfC6A",
      "value": {
        "_hex": "0xde0b6b3a7640000"
      },
      "nonce": 7,
      "data": "0x",
      "r": "0xb2ff0857d77d5717b9a34eebd7fcd8100bfcbce71b21effa39431065b5e650c4",
      "s": "0x32301120851914e7e59540311a93e3cc73f09fed18f0a293e7bb6706e24c587f",
      "v": 27,
      "creates": null,
      "raw": "0xf86d07850dc0988bb383015f9094dc6a542f97876923583019b526335fd1fb0dfc6a880de0b6b3a7640000801ba0b2ff0857d77d5717b9a34eebd7fcd8100bfcbce71b21effa39431065b5e650c4a032301120851914e7e59540311a93e3cc73f09fed18f0a293e7bb6706e24c587f",
      "networkId": 0,
      "chainId": 0
    },
    {
      "hash": "0x7ccf2950c57a58f4c622181c657d8e2b5ab17b31a3efad262f5ebba2e68c8180",
      "blockHash": "0x7d79d0ee672d6905aef35b91e3135c43484338257b539536d7c84c421ddd4eb0",
      "blockNumber": 74424,
      "transactionIndex": 1,
      "confirmations": null,
      "from": "0x120A270bbC009644e35F0bB6ab13f95b8199c4ad",
      "gasPrice": {
        "_hex": "0xd4d11a6ff"
      },
      "gasLimit": {
        "_hex": "0x15f90"
      },
      "to": "0xca938CdE9566679384Cb69Dfa4Ae56Aa5336a745",
      "value": {
        "_hex": "0x4654ceba3e1d5800"
      },
      "nonce": 278,
      "data": "0x",
      "r": "0x356358e968e60ef8e339d132d365accb369ebe50d13ac34aaa889dc3495549cd",
      "s": "0x1cec030e91fbd52fb6ce1e13873a104f8015e2678ca8f48a846485ea83caa4b0",
      "v": 27,
      "creates": null,
      "raw": "0xf86f820116850d4d11a6ff83015f9094ca938cde9566679384cb69dfa4ae56aa5336a745884654ceba3e1d5800801ba0356358e968e60ef8e339d132d365accb369ebe50d13ac34aaa889dc3495549cda01cec030e91fbd52fb6ce1e13873a104f8015e2678ca8f48a846485ea83caa4b0",
      "networkId": 0,
      "chainId": 0
    }
  ]
}