{
  "hash": "0xe9ddf75bbf438ee1373912ae54e0fc22aed8f71050bc68ae358543962cbee8d2",
  "parentHash": "0x8ea09b65813cf72cdb7774e9458ba2f7be9f9bf18714fab0fcfc296f08aa628f",
  "number": 99963,
  "timestamp": 1439798507,
  "nonce": "0x39a2040d880ddec6",
  "difficulty": 3843679677244,
  "gasLimit": {
    "_hex": "0x2fefd8"
  },
  "gasUsed": {
    "_hex": "0x47c70"
  },
  "miner": "0x1217627fe41A00f0b828317F43E6d58F47dBfc43",
  "extraData": "0x476574682f76312e302e302d66313265303136312f6c696e75782f676f312e34",
  "transactions": [
    {
      "hash": "0xaacfa65957660918064286a715d2ff9de29ce03f56b029d5aecc0e44f23e1f62",
      "blockHash": "0xe9ddf75bbf438ee1373912ae54e0fc22aed8f71050bc68ae358543962cbee8d2",
      "blockNumber": 99963,
      "transactionIndex": 0,
      "confirmations": null,
      "from": "0xaEaD75D7f72d1A4d36a40DF2CD95942f26A28F5e",
      "gasPrice": {
        "_hex": "0xd85df92e8"
      },
      "gasLimit": {
        "_hex": "0x5208"
      },
      "to": "0xFBb1b73C4f0BDa4f67dcA266ce6Ef42f520fBB98",
      "value": {
        "_hex": "0x109eb703b48ce4c0"
      },
      "nonce": 0,
      "data": "0x",
      "r": "0x558bd69079bea63ce4a2f747eb1b722a2d314edbcc4bb22dc3a49592ccc94d7d",
      "s": "0x20be9e87694ae5ab4c69e95e8dc138442596c79a306e099a9f87c81d168f7fcc",
      "v": 28,
      "creates": null,
      "raw": "0xf86c80850d85df92e882520894fbb1b73c4f0bda4f67dca266ce6ef42f520fbb9888109eb703b48ce4c0801ca0558bd69079bea63ce4a2f747eb1b722a2d314edbcc4bb22dc3a49592ccc94d7da020be9e87694ae5ab4c69e95e8dc138442596c79a306e099a9f87c81d168f7fcc",
      "networkId": 0,
      "chainId": 0
    },
    {
      "hash": "0xec0fc33fc00e0b4690bd1bfe9e600888d343c101e6bd0bc59a94ed5a4710c038",
      "blockHash": "0xe9ddf75bbf438ee1373912ae54e0fc22aed8f71050bc68ae358543962cbee8d2",
      "blockNumber": 99963,
      "transactionIndex": 1,
      "confirmations": null,
      "from": "0xe6A7a1d47ff21B6321162AEA7C6CB457D5476Bca",
      "gasPrice": {
        "_hex": "0xd41af6006"
      },
      "gasLimit": {
        "_hex": "0x55f0"
      },
      "to": "0x10BD1134A760f6b35247e3cb33673a18bC95a7E7",
      "value": {
        "_hex": "0x7bdb56f39c385160"
      },
      "nonce": 3315,
      "data": "0x",
      "r": "0xd06709993a9611a6a2128e57362a2c8f3f44b22000eaea6a57febca094e21c55",
      "s": "0x42f582f8ec354d445851f88b69d12cb4a872b93a20d56b67f6462ae7fde53411",
      "v": 28,
      "creates": null,
      "raw": "0xf86e820cf3850d41af60068255f09410bd1134a760f6b35247e3cb33673a18bc95a7e7887bdb56f39c385160801ca0d06709993a9611a6a2128e57362a2c8f3f44b22000eaea6a57febca094e21c55a042f582f8ec354d445851f88b69d12cb4a872b93a20d56b67f6462ae7fde53411",
      "networkId": 0,
      "chainId": 0
    },
    {
      "hash": "0xa290fb2886ed11d12fd2c580c9d56b5dec331bf6e1bf39f8158079ca87e5633b",
      "blockHash": "0xe9ddf75bbf438ee1373912ae54e0fc22aed8f71050bc68ae358543962cbee8d2",
      "blockNumber": 99963,
      "transactionIndex": 2,
      "confirmations": null,
      "from": "0xe6A7a1d47ff21B6321162AEA7C6CB457D5476Bca",
      "gasPrice": {
        "_hex": "0xd41af6006"
      },
      "gasLimit": {
        "_hex": "0x55f0"
      },
      "to": "0xB1A4B41b8e75a153841c99c62d18588d45e7b406",
      "value": {
        "_hex": "0x7c18c24887754c08"
      },
      "nonce": 3316,
      "data": "0x",
      "r": "0x5fe0d73559b5e51940a8259c542a23a1c9143847362a27fa7a09e9754cc52d4c",
      "s": "0x075305e37dee55a1d87c5ee1cea013b248b72c1f49edac89f1e29fe0d7bde88a",
      "v": 27,
      "creates": null,
      "raw": "0xf86e820cf4850d41af60068255f094b1a4b41b8e75a153841c99c62d18588d45e7b406887c18c24887754c08801ba05fe0d73559b5e51940a8259c542a23a1c9143847362a27fa7a09e9754cc52d4ca0075305e37dee55a1d87c5ee1cea013b248b72c1f49edac89f1e29fe0d7bde88a",
      "networkId": 0,
      "chainId": 0
    },
    {
      "hash": "0x1237cb89c9157133a45688a46b09dc286c926fade16f4ce12735e464f7a789ed",
      "blockHash": "0xe9ddf75bbf438ee1373912ae54e0fc22aed8f71050bc68ae358543962cbee8d2",
      "blockNumber": 99963,
      "transactionIndex": 3,
      "confirmations": null,
      "from": "0xe6A7a1d47ff21B6321162AEA7C6CB457D5476Bca",
      "gasPrice": {
        "_hex": "0xd41af6006"
      },
      "gasLimit": {
        "_hex": "0x55f0"
      },
      "to": "0x46532c79E7F23Aa3520221582D7AC182fb98C56B",
      "value": {
        "_hex": "0x7c8716f2061769a8"
      },
      "nonce": 3317,
      "data": "0x",
      "r": "0xe43badd7c4c8a50662f76c9ca4ec09c777dffb84b4a4af44034382a39148c57f",
      "s": "0x5b201ff286085878722a12c5e261717b0e9eeedaa58e150f8879fbd2c1908994",
      "v": 28,
      "creates": null,
      "raw": "0xf86e820cf5850d41af60068255f09446532c79e7f23aa3520221582d7ac182fb98c56b887c8716f2061769a8801ca0e43badd7c4c8a50662f76c9ca4ec09c777dffb84b4a4af44034382a39148c57fa05b201ff286085878722a12c5e261717b0e9eeedaa58e150f8879fbd2c1908994",
      "networkId": 0,
      "chainId": 0
    },
    {
      "hash": "0x6618775de2de0c8ff17002eafbaac7455dcbb8186f532060f01a0e1a2aac2d16",
      "blockHash": "0xe9ddf75bbf438ee1373912ae54e0fc22aed8f71050bc68ae358543962cbee8d2",
      "blockNumber": 99963,
      "transactionIndex": 4,
      "confirmations": null,
      "from": "0xe6A7a1d47ff21B6321162AEA7C6CB457D5476Bca",
      "gasPrice": {
        "_hex": "0xd41af6006"
      },
      "gasLimit": {
        "_hex": "0x55f0"
      },
      "to": "0xB7A755cBC2Bb4D94e844A9b1D1ff53420d836478",
      "value": {
        "_hex": "0x7cd890f5bf144e20"
      },
      "nonce": 3318,
      "data": "0x",
      "r": "0x3d3c8cc6b731b5e6b3963cc81f9efe3911c2bf783468180895e11d44f5808b0e",
      "s": "0x71b3089ad4ce85993513aa7911242106b3f383343063477f50e386a3ef203901",
      "v": 28,
      "creates": null,
      "raw": "0xf86e820cf6850d41af60068255f094b7a755cbc2bb4d94e844a9b1d1ff53420d836478887cd890f5bf144e20801ca03d3c8cc6b731b5e6b3963cc81f9efe3911c2bf783468180895e11d44f5808b0ea071b3089ad4ce85993513aa7911242106b3f383343063477f50e386a3ef203901",
      "networkId": 0,
      "chainId": 0
    },
    {
      "hash": "0x8175adb80ffaa74680eac672efd6755d2071d1337e231cecf1c6f629194e62ae",
      "blockHash": "0xe9ddf75bbf438ee1373912ae54e0fc22aed8f71050bc68ae358543962cbee8d2",
      "blockNumber": 99963,
      "transactionIndex": 5,
      "confirmations": null,
      "from": "0xe6A7a1d47ff21B6321162AEA7C6CB457D5476Bca",
      "gasPrice": {
        "_hex": "0xd41af6006"
      },
      "gasLimit": {
        "_hex": "0x55f0"
      },
      "to": "0xe33977E292cceF99Ea8828733e97562F3690a8ad",
      "value": {
        "_hex": "0x801a587cdf979880"
      },
      "nonce": 3319,
      "data": "0x",
      "r": "0x4da927a1b0b689dcf8d78044254eeaf9d0f08484a37782064bccc7ab7a60f6d3",
      "s": "0x5fe4c4fd07fa1072a096de8fc9cb1aaa289640e31c53c8ed33c9f862cd1d0134",
      "v": 27,
      "creates": null,
      "raw": "0xf86e820cf7850d41af60068255f094e33977e292ccef99ea8828733e97562f3690a8ad88801a587cdf979880801ba04da927a1b0b689dcf8d78044254eeaf9d0f08484a37782064bccc7ab7a60f6d3a05fe4c4fd07fa1072a096de8fc9cb1aaa289640e31c53c8ed33c9f862cd1d0134",
      "networkId": 0,
      "chainId": 0
    },
    {
      "hash": "0xc9c080a453350f8563e8d06fc7fef70b3485ed4ec6d8e41428d93e10db7a2ca4",
      "blockHash": "0xe9ddf75bbf438ee1373912ae54e0fc22aed8f71050bc68ae358543962cbee8d2",
      "blockNumber": 99963,
      "transactionIndex": 6,
      "confirmations": null,
      "from": "0xe6A7a1d47ff21B6321162AEA7C6CB457D5476Bca",
      "gasPrice": {
        "_hex": "0xd41af6006"
      },
      "gasLimit": {
        "_hex": "0x55f0"
      },
      "to": "0x8263B7757b139904C7cD8511B3D0a6D1479848Ba",
      "value": {
        "_hex": "0x81229e98bfab28c8"
      },
      "nonce": 3320,
      "data": "0x",
      "r": "0x6fce0711946b9cf7fe6df17b4c06666bf16807c554eead4b58be6dcb1580526b",
      "s": "0x668e03b80220d93012e0b37874d0976b39311c5e8f1e2d0756dc771d95b9b2ea",
      "v": 28,
      "creates": null,
      "raw": "0xf86e820cf8850d41af60068255f0948263b7757b139904c7cd8511b3d0a6d1479848ba8881229e98bfab28c8801ca06fce0711946b9cf7fe6df17b4c06666bf16807c554eead4b58be6dcb1580526ba0668e03b80220d93012e0b37874d0976b39311c5e8f1e2d0756dc771d95b9b2ea",
      "networkId": 0,
      "chainId": 0
    },
    {
      "hash": "0x004eb253a67442ffe3b406d7b071b4a62216ef79191a8098ac466c2082ab919b",
      "blockHash": "0xe9ddf75bbf438ee1373912ae54e0fc22aed8f71050bc68ae358543962cbee8d2",
      "blockNumber": 99963,
      "transactionIndex": 7,
      "confirmations": null,
      "from": "0xe6A7a1d47ff21B6321162AEA7C6CB457D5476Bca",
      "gasPrice": {
        "_hex": "0xd41af6006"
      },
      "gasLimit": {
        "_hex": "0x55f0"
      },
      "to": "0x027698B61229ECCa19311e977ADE3C2923D4e414",
      "value": {
        "_hex": "0x81d9d80ebc719838"
      },
      "nonce": 3321,
      "data": "0x",
      "r": "0x826ed6792380ce0dbaaf40c8174a90efd474c286ff53c05d999d706d240b9bab",
      "s": "0x30013e5b8c24db7dedf9bc5ff774640d6982d26ee97d6c989f2e2f1b1456ef71",
      "v": 28,
      "creates": null,
      "raw": "0xf86e820cf9850d41af60068255f094027698b61229ecca19311e977ade3c2923d4e4148881d9d80ebc719838801ca0826ed6792380ce0dbaaf40c8174a90efd474c286ff53c05d999d706d240b9baba030013e5b8c24db7dedf9bc5ff774640d6982d26ee97d6c989f2e2f1b1456ef71",
      "networkId": 0,
      "chainId": 0
    },
    {
      "hash": "0xd464e94090209c650c9741582dc38fedc97ea98b18d4014c04ec7d4c8f67f2cf",
      "blockHash": "0xe9ddf75bbf438ee1373912ae54e0fc22aed8f71050bc68ae358543962cbee8d2",
      "blockNumber": 99963,
      "transactionIndex": 8,
      "confirmations": null,
      "from": "0xe6A7a1d47ff21B6321162AEA7C6CB457D5476Bca",
      "gasPrice": {
        "_hex": "0xd41af6006"
      },
      "gasLimit": {
        "_hex": "0x55f0"
      },
      "to": "0xb3395f0a13448d9A660aC4aB2aBBC61F555f3656",
      "value": {
        "_hex": "0x82740e24c25cc920"
      },
      "nonce": 3322,
      "data": "0x",
      "r": "0xa84ed7651f96d7d755769192c87e92cab2017b3cdcaa99e829a9f36b745e0850",
      "s": "0x0f04879b66fe508655640860f8b745d2fee7ce498f864fc7bc94735c030a2394",
      "v": 27,
      "creates": null,
      "raw": "0xf86e820cfa850d41af60068255f094b3395f0a13448d9a660ac4ab2abbc61f555f36568882740e24c25cc920801ba0a84ed7651f96d7d755769192c87e92cab2017b3cdcaa99e829a9f36b745e0850a00f04879b66fe508655640860f8b745d2fee7ce498f864fc7bc94735c030a2394",
      "networkId": 0,
      "chainId": 0
    },
    {
      "hash": "0x4771d00c888215abf6894d8fa30ce9715d250f1ce421c243d452436e74686362",
      "blockHash": "0xe9ddf75bbf438ee1373912ae54e0fc22aed8f71050bc68ae358543962cbee8d2",
      "blockNumber": 99963,
      "transactionIndex": 9,
      "confirmations": null,
      "from": "0xe6A7a1d47ff21B6321162AEA7C6CB457D5476Bca",
      "gasPrice": {
        "_hex": "0xd41af6006"
      },
      "gasLimit": {
        "_hex": "0x55f0"
      },
      "to": "0xce8ff6d2027CA9837abb85FD515752151b6C7d0A",
      "value": {
        "_hex": "0x82d59d63ba217f50"
      },
      "nonce": 3323,
      "data": "0x",
      "r": "0xf8c3b5b40bace9c435a088fe0a8af99863f4cf9af72eadd9fbe0133c6bebe150",
      "s": "0x689daa161084749620c8302fa2678fd607550d9ff5fc54f66e5b74594b7058c9",
      "v": 27,
      "creates": null,
      "raw": "0xf86e820cfb850d41af60068255f094ce8ff6d2027ca9837abb85fd515752151b6c7d0a8882d59d63ba217f50801ba0f8c3b5b40bace9c435a088fe0a8af99863f4cf9af72eadd9fbe0133c6bebe150a0689daa161084749620c8302fa2678fd607550d9ff5fc54f66e5b74594b7058c9",
      "networkId": 0,
      "chainId": 0
    },
    {
      "hash": "0xdefec90169ba261a876631970fd603dec3e72e5ceb2156f6a7522625cf63d08d",
      "blockHash": "0xe9ddf75bbf438ee1373912ae54e0fc22aed8f71050bc68ae358543962cbee8d2",
      "blockNumber": 99963,
      "transactionIndex": 10,
      "confirmations": null,
      "from": "0xe6A7a1d47ff21B6321162AEA7C6CB457D5476Bca",
      "gasPrice": {
        "_hex": "0xd41af6006"
      },
      "gasLimit": {
        "_hex": "0x55f0"
      },
      "to": "0x5BeBc02e4CDF3e92B5a2947CfD1430c4EBBa4039",
      "value": {
        "_hex": "0x847ca014d3f19968"
      },
      "nonce": 3324,
      "data": "0x",
      "r": "0x0442f6d5cb97733609c272190db6bc2f2e1fc9cc881d312c893b402ed7f5bb3f",
      "s": "0x1e43eae2acf978409a3f3ad20ab007eef4136f677010a9e2b4fb870bd64bde05",
      "v": 28,
      "creates": null,
      "raw": "0xf86e820cfc850d41af60068255f0945bebc02e4cdf3e92b5a2947cfd1430c4ebba403988847ca014d3f19968801ca00442f6d5cb97733609c272190db6bc2f2e1fc9cc881d312c893b402ed7f5bb3fa01e43eae2acf978409a3f3ad20ab007eef4136f677010a9e2b4fb870bd64bde05",
      "networkId": 0,
      "chainId": 0
    },
    {
      "hash": "0x3e71144c336923bcc7eab097289465be58085dfc434e675108d5f398d26ad803",
      "blockHash": "0xe9ddf75bbf438ee1373912ae54e0fc22aed8f71050bc68ae358543962cbee8d2",
      "blockNumber": 99963,
      "transactionIndex": 11,
      "confirmations": null,
      "from": "0xe6A7a1d47ff21B6321162AEA7C6CB457D5476Bca",
      "gasPrice": {
        "_hex": "0xd41af6006"
      },
      "gasLimit": {
        "_hex": "0x55f0"
      },
      "to": "0x03809628C90e1092EA99EcFDACA6251435dbc94B",
      "value": {
        "_hex": "0x84a92919ccbfc6f0"
      },
      "nonce": 3325,
      "data": "0x",
      "r": "0x19ec76b2eb95060d033ea65415a5408fcc22c4be1d4286a9f9864112a5e1433c",
      "s": "0x45c5c912a05478a0ecc0a248b3b44e018efa4285134109cdd141596edc8edc2b",
      "v": 28,
      "creates": null,
      "raw": "0xf86e820cfd850d41af60068255f09403809628c90e1092ea99ecfdaca6251435dbc94b8884a92919ccbfc6f0801ca019ec76b2eb95060d033ea65415a5408fcc22c4be1d4286a9f9864112a5e1433ca045c5c912a05478a0ecc0a248b3b44e018efa4285134109cdd141596edc8edc2b",
      "networkId": 0,
      "chainId": 0
    },
    {
      "hash": "0x168b7bd4b0120279cadc5ce58d8b5ea0a8c79d48c1722cd84500061b1842e4bd",
      "blockHash": "0xe9ddf75bbf438ee1373912ae54e0fc22aed8f71050bc68ae358543962cbee8d2",
      "blockNumber": 99963,
      "transactionIndex": 12,
      "confirmations": null,
      "from": "0xe6A7a1d47ff21B6321162AEA7C6CB457D5476Bca",
      "gasPrice": {
        "_hex": "0xd41af6006"
      },
      "gasLimit": {
        "_hex": "0x55f0"
      },
      "to": "0x8d629C20608135491B5013f1002586A0383130e5",
      "value": {
        "_hex": "0x86564ede0a0aa988"
      },
      "nonce": 3326,
      "data": "0x",
      "r": "0x08df0a28b81b87dece3ea90a7879bd74185da2a24eb205f8849a018282f72c7b",
      "s": "0x51c71d8828f5be59fa89d539e79500ff3c5b93551e8be2a3e96fa349ed9d5317",
      "v": 28,
      "creates": null,
      "raw": "0xf86e820cfe850d41af60068255f0948d629c20608135491b5013f1002586a0383130e58886564ede0a0aa988801ca008df0a28b81b87dece3ea90a7879bd74185da2a24eb205f8849a018282f72c7ba051c71d8828f5be59fa89d539e79500ff3c5b93551e8be2a3e96fa349ed9d5317",
      "networkId": 0,
      "chainId": 0
    },
    {
      "hash": "0x863aa04f2b3033df61632638db636643460c73efe48a49fb72c078b2f33e3252",
      "blockHash": "0xe9ddf75bbf438ee1373912ae54e0fc22aed8f71050bc68ae358543962cbee8d2",
      "blockNumber": 99963,
      "transactionIndex": 13,
      "confirmations": null,
      "from": "0xe6A7a1d47ff21B6321162AEA7C6CB457D5476Bca",
      "gasPrice": {
        "_hex": "0xd41af6006"
      },
      "gasLimit": {
        "_hex": "0x55f0"
      },
      "to": "0x3175a28CF6105466923f11bFFabD279F162aa2f8",
      "value": {
        "_hex": "0x87d067cebdfdf970"
      },
      "nonce": 3327,
      "data": "0x",
      "r": "0x48e9ac573d04c8532c0179141bd82b4378837bbc5e5aef6dfe29dfc243220281",
      "s": "0x2eaf1251e7a64ac3fe5a5963cb39f854859ec26ef22d24cf711297e4e26879a1",
      "v": 27,
      "creates": null,
      "raw": "0xf86e820cff850d41af60068255f0943175a28cf6105466923f11bffabd279f162aa2f88887d067cebdfdf970801ba048e9ac573d04c8532c0179141bd82b4378837bbc5e5aef6dfe29dfc243220281a02eaf1251e7a64ac3fe5a5963cb39f854859ec26ef22d24cf711297e4e26879a1",
      "networkId": 0,
      "chainId": 0
    }
  ]
}