{
  "hash": "0x7c5f34d10bf0732144da29ee315c973a65012ace942c08003ff982a1b800fe9e",
  "parentHash": "0x46d7f99cabdccfe4fea60e8c44a9a811fc0088bc6bee2d408c93eaf04f5c0106",
  "number": 71865,
  "timestamp": 1439343101,
  "nonce": "0xeb9d174bf1b7cff0",
  "difficulty": 2169690090868,
  "gasLimit": {
    "_hex": "0x2fefd8"
  },
  "gasUsed": {
    "_hex": "0x127b2"
  },
  "miner": "0xbb7B8287f3F0a933474a79eAe42CBCa977791171",
  "extraData": "0x476574682f4c5649562f76312e302e312f6c696e75782f676f312e342e32",
  "transactions": [
    {
      "hash": "0xe82113d81f9303ee7a921f07b470f3c1ff661a82fb62d0c791fd717a77302168",
      "blockHash": "0x7c5f34d10bf0732144da29ee315c973a65012ace942c08003ff982a1b800fe9e",
      "blockNumber": 71865,
      "transactionIndex": 0,
      "confirmations": null,
      "from": "0x17580B766f7453525ca4C6A88b01b50570EA088C",
      "gasPrice": {
        "_hex": "0xdae506345"
      },
      "gasLimit": {
        "_hex": "0x61a80"
      },
      "to": "0x5Fe5B7546D1628f7348B023A0393de1FC825A4fD",
      "value": {
        "_hex": "0x29a2241af62c0000"
      },
      "nonce": 273,
      "data": "0xb595b8b50000000000000000000000000000000000000000000000000000000000000000",
      "r": "0xdca552572fdfecfa675327fff1963180db8a52d70ccff3e4904d30d2d430eee4",
      "s": "0x6c21264a92857e57efecff041dfd86bfa680c14d42a760792950db4bf89c0239",
      "v": 28,
      "creates": null,
      "raw": "0xf893820111850dae50634583061a80945fe5b7546d1628f7348b023a0393de1fc825a4fd8829a2241af62c0000a4b595b8b500000000000000000000000000000000000000000000000000000000000000001ca0dca552572fdfecfa675327fff1963180db8a52d70ccff3e4904d30d2d430eee4a06c21264a92857e57efecff041dfd86bfa680c14d42a760792950db4bf89c0239",
      "networkId": 0,
      "chainId": 0
    },
    {
      "hash": "0x69557df35a78482933f2901c2f4fa5f7ad4b59106b88c0ba22ffe6df5597c346",
      "blockHash": "0x7c5f34d10bf0732144da29ee315c973a65012ace942c08003ff982a1b800fe9e",
      "blockNumber": 71865,
      "transactionIndex": 1,
      "confirmations": null,
      "from": "0x17580B766f7453525ca4C6A88b01b50570EA088C",
      "gasPrice": {
        "_hex": "0xdae506345"
      },
      "gasLimit": {
        "_hex": "0x61a80"
      },
      "to": "0x5Fe5B7546D1628f7348B023A0393de1FC825A4fD",
      "value": {
        "_hex": "0x53444835ec580000"
      },
      "nonce": 274,
      "data": "0xb595b8b50000000000000000000000000000000000000000000000000000000000000001",
      "r": "0x033fbd119d6427144b20d18b4a201455f3f84a5cf32aaf18d0ed2242f0a69bb1",
      "s": "0x473f19e41fdbcb01790f0dc781635606d6a731ba5967ff3fd8546f7b546931b4",
      "v": 28,
      "creates": null,
      "raw": "0xf893820112850dae50634583061a80945fe5b7546d1628f7348b023a0393de1fc825a4fd8853444835ec580000a4b595b8b500000000000000000000000000000000000000000000000000000000000000011ca0033fbd119d6427144b20d18b4a201455f3f84a5cf32aaf18d0ed2242f0a69bb1a0473f19e41fdbcb01790f0dc781635606d6a731ba5967ff3fd8546f7b546931b4",
      "networkId": 0,
      "chainId": 0
    }
  ]
}