{
  "hash": "0xf3c13ab23050f09f3540883222d3e2bef555aed74a96ccfe0314a6ca5a1cdef4",
  "parentHash": "0xd71691fd5baa30cb952feea1dc2ec0b1d8212883fa65a13fedf25a0582b9a150",
  "number": 71254,
  "timestamp": 1439333240,
  "nonce": "0xb656120c066fb7b3",
  "difficulty": 2147712391882,
  "gasLimit": {
    "_hex": "0x2fefd8"
  },
  "gasUsed": {
    "_hex": "0x9400"
  },
  "miner": "0xe6A7a1d47ff21B6321162AEA7C6CB457D5476Bca",
  "extraData": "0x476574682f76312e302e312d38326566323666362f6c696e75782f676f312e34",
  "transactions": [
    {
      "hash": "0xedc7fa8fb35c5a8ae5604b866c9870762f806ec2b11f8cb7d4c5048d7869cba1",
      "blockHash": "0xf3c13ab23050f09f3540883222d3e2bef555aed74a96ccfe0314a6ca5a1cdef4",
      "blockNumber": 71254,
      "transactionIndex": 0,
      "confirmations": null,
      "from": "0x17580B766f7453525ca4C6A88b01b50570EA088C",
      "gasPrice": {
        "_hex": "0xd9b869978"
      },
      "gasLimit": {
        "_hex": "0x61a80"
      },
      "to": "0x5Fe5B7546D1628f7348B023A0393de1FC825A4fD",
      "value": {
        "_hex": "0x1bc16d674ec80000"
      },
      "nonce": 133,
      "data": "0xb595b8b50000000000000000000000000000000000000000000000000000000000000001",
      "r": "0x8d4be30d0c337fff10257671bd5398572c6a452b4ce17de4ed070bf02bb4f864",
      "s": "0x2d7b9001dbe9a17716ea9d6e88b6d7091c669631ce399777d9f031aae52cb447",
      "v": 27,
      "creates": null,
      "raw": "0xf8928185850d9b86997883061a80945fe5b7546d1628f7348b023a0393de1fc825a4fd881bc16d674ec80000a4b595b8b500000000000000000000000000000000000000000000000000000000000000011ba08d4be30d0c337fff10257671bd5398572c6a452b4ce17de4ed070bf02bb4f864a02d7b9001dbe9a17716ea9d6e88b6d7091c669631ce399777d9f031aae52cb447",
      "networkId": 0,
      "chainId": 0
    }
  ]
}