{
  "hash": "0x63235d2819fb4b70b16e41010d26a63190454b546b475d2e623e4704e0aa9ae4",
  "parentHash": "0x9c7f94723fc1c43288df32e1d12e542bd94dd4c786d10117d02a9c3f77c269a8",
  "number": 72558,
  "timestamp": 1439354692,
  "nonce": "0xf5bc172a852f25f7",
  "difficulty": 2189731808638,
  "gasLimit": {
    "_hex": "0x2fefd8"
  },
  "gasUsed": {
    "_hex": "0x5208"
  },
  "miner": "0x3222BA3F3e79eA0e31467EEE7639B57923558cCD",
  "extraData": "0x",
  "transactions": [
    {
      "hash": "0xd080e177e9d739183c0d41ab5b8487915c8e9ae80b69e4b2a4fc588ffae35ec2",
      "blockHash": "0x63235d2819fb4b70b16e41010d26a63190454b546b475d2e623e4704e0aa9ae4",
      "blockNumber": 72558,
      "transactionIndex": 0,
      "confirmations": null,
      "from": "0xF78645Ea06d743C6B52a11EB3f3d486bbb4Cf01F",
      "gasPrice": {
        "_hex": "0xd40fe5341"
      },
      "gasLimit": {
        "_hex": "0x15f90"
      },
      "to": "0x6A8CC233E14F874983bB2F37D1DE706f6910Ef0b",
      "value": {
        "_hex": "0x4563918244f400000"
      },
      "nonce": 1,
      "data": "0x",
      "r": "0x4309c813876358cd8c12ca2d2c9d5b88f95b06431ae06086fd0210dcfcebfbf7",
      "s": "0x6f6b4f56ea637b5bc0c648f4a0caee27366aa33d719a5060ae3ae25919c09b1f",
      "v": 28,
      "creates": null,
      "raw": "0xf86e01850d40fe534183015f90946a8cc233e14f874983bb2f37d1de706f6910ef0b8904563918244f400000801ca04309c813876358cd8c12ca2d2c9d5b88f95b06431ae06086fd0210dcfcebfbf7a06f6b4f56ea637b5bc0c648f4a0caee27366aa33d719a5060ae3ae25919c09b1f",
      "networkId": 0,
      "chainId": 0
    }
  ]
}