{
  "hash": "0x52ff939eace304a3f23f9d54a984ca191ca8c852973adb9d0f410c2084c11ad0",
  "parentHash": "0xa819c31a5d7b5d460c7b4c0f46de2c066f258dfb42b708876f8dff7bb9948c64",
  "number": 109036,
  "timestamp": 1439950065,
  "nonce": "0xcb1a6f61d50b6c5b",
  "difficulty": 4404186708464,
  "gasLimit": {
    "_hex": "0x2fefd8"
  },
  "gasUsed": {
    "_hex": "0x5208"
  },
  "miner": "0xe6A7a1d47ff21B6321162AEA7C6CB457D5476Bca",
  "extraData": "0x476574682f76312e302e312d38326566323666362f6c696e75782f676f312e34",
  "transactions": [
    {
      "hash": "0x28e25fdf4270a93f0d57eb6c689837f0ad84b31f851c1c893d0188449d407185",
      "blockHash": "0x52ff939eace304a3f23f9d54a984ca191ca8c852973adb9d0f410c2084c11ad0",
      "blockNumber": 109036,
      "transactionIndex": 0,
      "confirmations": null,
      "from": "0xefe8745972E5cF49d99F05a72ad83A23db5D0A07",
      "gasPrice": {
        "_hex": "0xd641f460d"
      },
      "gasLimit": {
        "_hex": "0x15f90"
      },
      "to": "0x9047CED017a0355797e9f5f079cD8380705bC543",
      "value": {
        "_hex": "0x110d9316ec000"
      },
      "nonce": 2,
      "data": "0x",
      "r": "0xec0af261b6c38b9671313a304896bd42ba950732fa396aa70e2fb186fb07bbb8",
      "s": "0x05627c20b348ff0ca710475e6ceb6882aef88aae2f8bd29bf17cc8f3d3866889",
      "v": 28,
      "creates": null,
      "raw": "0xf86c02850d641f460d83015f90949047ced017a0355797e9f5f079cd8380705bc543870110d9316ec000801ca0ec0af261b6c38b9671313a304896bd42ba950732fa396aa70e2fb186fb07bbb8a005627c20b348ff0ca710475e6ceb6882aef88aae2f8bd29bf17cc8f3d3866889",
      "networkId": 0,
      "chainId": 0
    }
  ]
}