{
  "hash": "0x0239d9c53e520b48036be20953379efd9d93deb83f3f811f6095e153b75a5caa",
  "parentHash": "0xf8e7eeb18420183bf8849dca745288429c5a90c0c3cb66e0432da4e78a2d488c",
  "number": 80725,
  "timestamp": 1439489855,
  "nonce": "0x5f06c4c4770bd5bc",
  "difficulty": 2436872992349,
  "gasLimit": {
    "_hex": "0x2fefd8"
  },
  "gasUsed": {
    "_hex": "0xa410"
  },
  "miner": "0xe6A7a1d47ff21B6321162AEA7C6CB457D5476Bca",
  "extraData": "0x476574682f76312e302e312d38326566323666362f6c696e75782f676f312e34",
  "transactions": [
    {
      "hash": "0x5795d58796ec70dcd40e208197e1f51631cb329c1b10a3a8b0853b0d07cd35bb",
      "blockHash": "0x0239d9c53e520b48036be20953379efd9d93deb83f3f811f6095e153b75a5caa",
      "blockNumber": 80725,
      "transactionIndex": 0,
      "confirmations": null,
      "from": "0xD378eb142Ad654E0bd8296DafCc5c4874EC40445",
      "gasPrice": {
        "_hex": "0xba43b7400"
      },
      "gasLimit": {
        "_hex": "0x5208"
      },
      "to": "0xC47Aaa860008be6f65B58c6C6E02a84e666EfE31",
      "value": {
        "_hex": "0x12bdea849bfd88c9c0"
      },
      "nonce": 2,
      "data": "0x",
      "r": "0xb59bab8367410d6f342f9ef45206f052879a604b8aac6c918db8fe582bfad3b6",
      "s": "0x55de1ebb5ded3fb86613721b3807a512c2efbda23d487234a13176e837154dd6",
      "v": 27,
      "creates": null,
      "raw": "0xf86d02850ba43b740082520894c47aaa860008be6f65b58c6c6e02a84e666efe318912bdea849bfd88c9c0801ba0b59bab8367410d6f342f9ef45206f052879a604b8aac6c918db8fe582bfad3b6a055de1ebb5ded3fb86613721b3807a512c2efbda23d487234a13176e837154dd6",
      "networkId": 0,
      "chainId": 0
    },
    {
      "hash": "0x3825fc0c62872bdc6dbe905399a6a7e7646350e90b79fd8942dd3b39b49d231e",
      "blockHash": "0x0239d9c53e520b48036be20953379efd9d93deb83f3f811f6095e153b75a5caa",
      "blockNumber": 80725,
      "transactionIndex": 1,
      "confirmations": null,
      "from": "0xEd0057BB348b56Cb9D47dea88f50F0CadEB3Eae3",
      "gasPrice": {
        "_hex": "0xba43b7400"
      },
      "gasLimit": {
        "_hex": "0x5208"
      },
      "to": "0xC47Aaa860008be6f65B58c6C6E02a84e666EfE31",
      "value": {
        "_hex": "0x34e5a5aed7a80c00"
      },
      "nonce": 0,
      "data": "0x",
      "r": "0x273d459b70d9b6dcb00a5aca83e143d08f7204f228b30a08bbef16b1a318230e",
      "s": "0x2a8fcb831794b8a75f6a3a3dfbc20a3f0cdd3fc7088be7ebe79b393086c17997",
      "v": 28,
      "creates": null,
      "raw": "0xf86c80850ba43b740082520894c47aaa860008be6f65b58c6c6e02a84e666efe318834e5a5aed7a80c00801ca0273d459b70d9b6dcb00a5aca83e143d08f7204f228b30a08bbef16b1a318230ea02a8fcb831794b8a75f6a3a3dfbc20a3f0cdd3fc7088be7ebe79b393086c17997",
      "networkId": 0,
      "chainId": 0
    }
  ]
}