{
  "hash": "0xf2c8e1467aa985302421e7571207b3a3b1a2c71ceada66db138e71ca5afa077f",
  "parentHash": "0xcb71114e3364a6080331c6472f1ced5b46b5ef9c2b871ad5cf439a75c0fba5aa",
  "number": 116356,
  "timestamp": 1440072877,
  "nonce": "0xe66c035362ccfcf9",
  "difficulty": 4589059916551,
  "gasLimit": {
    "_hex": "0x2fefd8"
  },
  "gasUsed": {
    "_hex": "0xa410"
  },
  "miner": "0xe6A7a1d47ff21B6321162AEA7C6CB457D5476Bca",
  "extraData": "0x476574682f76312e302e312d38326566323666362f6c696e75782f676f312e34",
  "transactions": [
    {
      "hash": "0x92252b0987b2bb5414c0e610aed71c4b10d8b99c8f928e5b965c882d1ed16a6c",
      "blockHash": "0xf2c8e1467aa985302421e7571207b3a3b1a2c71ceada66db138e71ca5afa077f",
      "blockNumber": 116356,
      "transactionIndex": 0,
      "confirmations": null,
      "from": "0xFBb1b73C4f0BDa4f67dcA266ce6Ef42f520fBB98",
      "gasPrice": {
        "_hex": "0xdf7a423b6"
      },
      "gasLimit": {
        "_hex": "0x5208"
      },
      "to": "0xc1BED23F5A2bA19A363215fC2c288FD8ee533E15",
      "value": {
        "_hex": "0x6f05b59d3b200000"
      },
      "nonce": 231,
      "data": "0x",
      "r": "0xa4f03d65fa2c0b53859d781eb6f4d7243ebd414181fa44f3b534d4759dc787cc",
      "s": "0x071d6ce44543fb82bd18c712271d485a0b884c3e667b3726b763d279627ba352",
      "v": 27,
      "creates": null,
      "raw": "0xf86d81e7850df7a423b682520894c1bed23f5a2ba19a363215fc2c288fd8ee533e15886f05b59d3b200000801ba0a4f03d65fa2c0b53859d781eb6f4d7243ebd414181fa44f3b534d4759dc787cca0071d6ce44543fb82bd18c712271d485a0b884c3e667b3726b763d279627ba352",
      "networkId": 0,
      "chainId": 0
    },
    {
      "hash": "0x92a999a62656159674af530e09a432b0cb10d31f4bff919e7def3909d38a49d8",
      "blockHash": "0xf2c8e1467aa985302421e7571207b3a3b1a2c71ceada66db138e71ca5afa077f",
      "blockNumber": 116356,
      "transactionIndex": 1,
      "confirmations": null,
      "from": "0x2910543Af39abA0Cd09dBb2D50200b3E800A63D2",
      "gasPrice": {
        "_hex": "0xd0750f333"
      },
      "gasLimit": {
        "_hex": "0x5208"
      },
      "to": "0x17dF49518D73b129F0DA36b1c9B40CB66420FDc7",
      "value": {
        "_hex": "0x3635b7ea4ca6bf8000"
      },
      "nonce": 1131,
      "data": "0x",
      "r": "0x1f6a4aa196fe55bd54e948645d3168e049f3b03c8d20719b1bd68cb01ec4ca51",
      "s": "0x7eda17ef41432d4094dfe6830e7f835bb8f9df3e9fd1df4d237230d167f40e6d",
      "v": 27,
      "creates": null,
      "raw": "0xf86f82046b850d0750f3338252089417df49518d73b129f0da36b1c9b40cb66420fdc7893635b7ea4ca6bf8000801ba01f6a4aa196fe55bd54e948645d3168e049f3b03c8d20719b1bd68cb01ec4ca51a07eda17ef41432d4094dfe6830e7f835bb8f9df3e9fd1df4d237230d167f40e6d",
      "networkId": 0,
      "chainId": 0
    }
  ]
}