{
  "hash": "0x1b2a87812f02e67d8a58ec10f50e964d62ecf53fff58ce023c8a109fea5c9e0a",
  "parentHash": "0x96a025f92ecdb87a7244c332ea59e6ced8499daa7d483d7c602bb9cbfa1a7bfb",
  "number": 88798,
  "timestamp": 1439613603,
  "nonce": "0x43c2b05b08756cae",
  "difficulty": 3252110220785,
  "gasLimit": {
    "_hex": "0x2fefd8"
  },
  "gasUsed": {
    "_hex": "0x546c"
  },
  "miner": "0x33F36DffD23cf019833E1d59cBc7138824b12289",
  "extraData": "0xda8098302e392e34312b2b302d524c696e75782f672b2b2f696e74",
  "transactions": [
    {
      "hash": "0x5b2db55dac872fc5e6e21e9569e252392ff9da5a7933ada7579bfad33b0a546f",
      "blockHash": "0x1b2a87812f02e67d8a58ec10f50e964d62ecf53fff58ce023c8a109fea5c9e0a",
      "blockNumber": 88798,
      "transactionIndex": 0,
      "confirmations": null,
      "from": "0x5529830A61c1f13C197e550bEDdfD6bd195C9D02",
      "gasPrice": {
        "_hex": "0x110c8f7d8de"
      },
      "gasLimit": {
        "_hex": "0xc350"
      },
      "to": "0x2910543Af39abA0Cd09dBb2D50200b3E800A63D2",
      "value": {
        "_hex": "0x6c6b935b8bbd400000"
      },
      "nonce": 3,
      "data": "0x454e35345550375252",
      "r": "0x2aaf4b2c8f15e742a31160feddf3a0b6d3eff6a043e82e53f1ae2970b791069e",
      "s": "0x78951467528a541d4c1f85549a4edf7e6c67ac4d37307263711f889492fdb6a3",
      "v": 27,
      "creates": null,
      "raw": "0xf87703860110c8f7d8de82c350942910543af39aba0cd09dbb2d50200b3e800a63d2896c6b935b8bbd40000089454e353455503752521ba02aaf4b2c8f15e742a31160feddf3a0b6d3eff6a043e82e53f1ae2970b791069ea078951467528a541d4c1f85549a4edf7e6c67ac4d37307263711f889492fdb6a3",
      "networkId": 0,
      "chainId": 0
    }
  ]
}