{
  "hash": "0xdc596b9dc8d626565a7bde501fb68552d757a693a45666a1dbeb3b0e9f1a39c7",
  "parentHash": "0xc8c800cd4058629af762f611089899df003b2d8bc3453d2a2caf396ce297c361",
  "number": 102770,
  "timestamp": 1439842913,
  "nonce": "0xc2c70c36a0f81835",
  "difficulty": 4044528871236,
  "gasLimit": {
    "_hex": "0x2fefd8"
  },
  "gasUsed": {
    "_hex": "0x5208"
  },
  "miner": "0xe6A7a1d47ff21B6321162AEA7C6CB457D5476Bca",
  "extraData": "0x476574682f76312e302e312d38326566323666362f6c696e75782f676f312e34",
  "transactions": [
    {
      "hash": "0xa7ecf725774dd7ae1ea38d8ab83c87403a064bc4f072653d269117bea746e662",
      "blockHash": "0xdc596b9dc8d626565a7bde501fb68552d757a693a45666a1dbeb3b0e9f1a39c7",
      "blockNumber": 102770,
      "transactionIndex": 0,
      "confirmations": null,
      "from": "0x0Ce7b863693f133b14151f242f26d3f7a5424887",
      "gasPrice": {
        "_hex": "0xbdfd63e00"
      },
      "gasLimit": {
        "_hex": "0x5208"
      },
      "to": "0xCF4742CdCc2858B41F812aC84E2f87e5384bc8eD",
      "value": {
        "_hex": "0x13fd6f2b475d4b00000"
      },
      "nonce": 5,
      "data": "0x",
      "r": "0x95acd4e0a39f8fe791df589993a33721334587a41b54d228d76cfd8cc0b4f91a",
      "s": "0x76ad419b6239e0e5f877732b7f5111ed3d813243329a9717114fe8c49c3fbc92",
      "v": 27,
      "creates": null,
      "raw": "0xf86e05850bdfd63e0082520894cf4742cdcc2858b41f812ac84e2f87e5384bc8ed8a013fd6f2b475d4b00000801ba095acd4e0a39f8fe791df589993a33721334587a41b54d228d76cfd8cc0b4f91aa076ad419b6239e0e5f877732b7f5111ed3d813243329a9717114fe8c49c3fbc92",
      "networkId": 0,
      "chainId": 0
    }
  ]
}