{
  "hash": "0xd41849691573a460058e94e2ea927ca395a2b8b9e4fc4cb37b7d912897ecf27f",
  "parentHash": "0xfa41b9a0f9bbb596fdc28058da0cff84d9dc190440b99ccbe0ddc10de38ff534",
  "number": 74462,
  "timestamp": 1439386321,
  "nonce": "0x44e66a6e5d6d8570",
  "difficulty": 2219371341078,
  "gasLimit": {
    "_hex": "0x2fefd8"
  },
  "gasUsed": {
    "_hex": "0x546c"
  },
  "miner": "0x88D74a59454F6cF3B51ef6b9136AFb6b9D405A88",
  "extraData": "0x476574682f76312e302e312d37666266393930632f6c696e75782f676f312e34",
  "transactions": [
    {
      "hash": "0x48b909202e9fb24554495dabc9f10a50d9f29529d714989ea46caab51eb5fd27",
      "blockHash": "0xd41849691573a460058e94e2ea927ca395a2b8b9e4fc4cb37b7d912897ecf27f",
      "blockNumber": 74462,
      "transactionIndex": 0,
      "confirmations": null,
      "from": "0xDb4Bc83B0E6bAADB1156c5cf06E0F721808c52c7",
      "gasPrice": {
        "_hex": "0x110c8f7d8de"
      },
      "gasLimit": {
        "_hex": "0xc350"
      },
      "to": "0x2910543Af39abA0Cd09dBb2D50200b3E800A63D2",
      "value": {
        "_hex": "0x2fb310c4170a360000"
      },
      "nonce": 0,
      "data": "0x454e33594751345847",
      "r": "0x1931dbb8e6ac16d8a1661ea7d1b2b8e9c31f703d12db17a13482ef807faa1bae",
      "s": "0x8ab8ec9f8c738404790aa064649778b27250dd91784edff3beced9c881176d08",
      "v": 28,
      "creates": null,
      "raw": "0xf87780860110c8f7d8de82c350942910543af39aba0cd09dbb2d50200b3e800a63d2892fb310c4170a36000089454e335947513458471ca01931dbb8e6ac16d8a1661ea7d1b2b8e9c31f703d12db17a13482ef807faa1baea08ab8ec9f8c738404790aa064649778b27250dd91784edff3beced9c881176d08",
      "networkId": 0,
      "chainId": 0
    }
  ]
}