{
  "hash": "0x47d01972ec160f01b267e22ccf0b7f33bf36641f9154162a50f81347734a7cfa",
  "parentHash": "0xcd61f8be1ccc875b69c1e31746f88c33f6cf10ae7dc96bdb8e3626ba88749cdb",
  "number": 52896,
  "timestamp": 1439029116,
  "nonce": "0xe47109f31b3fb435",
  "difficulty": 1571669714205,
  "gasLimit": {
    "_hex": "0x1b7b21"
  },
  "gasUsed": {
    "_hex": "0x7f328"
  },
  "miner": "0xbb7B8287f3F0a933474a79eAe42CBCa977791171",
  "extraData": "0x476574682f4c5649562f76312e302e312f6c696e75782f676f312e342e32",
  "transactions": [
    {
      "hash": "0x6e729a25f79fd097fe7881dc545da68e51f8f2b3e0605c4dbfb0ce2c3098bd81",
      "blockHash": "0x47d01972ec160f01b267e22ccf0b7f33bf36641f9154162a50f81347734a7cfa",
      "blockNumber": 52896,
      "transactionIndex": 0,
      "confirmations": null,
      "from": "0x1a79c7f4039C67A39d7513884cDC0E2C34222490",
      "gasPrice": {
        "_hex": "0xd9bb9743c"
      },
      "gasLimit": {
        "_hex": "0x15f90"
      },
      "to": "0x99425213944D7885b88Ec9D20D974B7Ac89D62E2",
      "value": {
        "_hex": "0x2a23ddd552673a6"
      },
      "nonce": 4,
      "data": "0x",
      "r": "0x8b6d1df640f8e5c054d34d2b48adbc7fe42d5571089b59183f64d146ccd5cc73",
      "s": "0x6544560c4361da504084be8a450215ac3b663cc5a699a2e40cde82db9483a5a4",
      "v": 28,
      "creates": null,
      "raw": "0xf86d04850d9bb9743c83015f909499425213944d7885b88ec9d20d974b7ac89d62e28802a23ddd552673a6801ca08b6d1df640f8e5c054d34d2b48adbc7fe42d5571089b59183f64d146ccd5cc73a06544560c4361da504084be8a450215ac3b663cc5a699a2e40cde82db9483a5a4",
      "networkId": 0,
      "chainId": 0
    },
    {
      "hash": "0x7d082c3ed637fcf4c1774923a52fe47b81c0be4ab957c80afa5984aa9553aefe",
      "blockHash": "0x47d01972ec160f01b267e22ccf0b7f33bf36641f9154162a50f81347734a7cfa",
      "blockNumber": 52896,
      "transactionIndex": 1,
      "confirmations": null,
      "from": "0x40406c243663125ad18ac5729c3356cf673F1d7f",
      "gasPrice": {
        "_hex": "0xd243698cf"
      },
      "gasLimit": {
        "_hex": "0x7a120"
      },
      "to": "0x109C4f2CCc82C4d77Bde15F306707320294Aea3F",
      "value": {
        "_hex": "0xde0b6b3a7640000"
      },
      "nonce": 0,
      "data": "0x",
      "r": "0x742f24f284b2570166c5f50e7321f40914be1aabfde89b133a1e28659f87ee2f",
      "s": "0x40b6a862e93541519d4c963e13017c7e087fbf98176c2a46a63ce8be17a1228c",
      "v": 28,
      "creates": null,
      "raw": "0xf86d80850d243698cf8307a12094109c4f2ccc82c4d77bde15f306707320294aea3f880de0b6b3a7640000801ca0742f24f284b2570166c5f50e7321f40914be1aabfde89b133a1e28659f87ee2fa040b6a862e93541519d4c963e13017c7e087fbf98176c2a46a63ce8be17a1228c",
      "networkId": 0,
      "chainId": 0
    }
  ]
}