{
  "hash": "0x5f7649a4554fc725b90f84560476e282fad95af5f905d5b5ca1cf27dd3453a86",
  "parentHash": "0xe7779aa602d29c4c2c3fe8d6c8626f158a9d7715e15c390eccd74f2d5e3579bd",
  "number": 65061,
  "timestamp": 1439230595,
  "nonce": "0xe3e7f828a90cf17e",
  "difficulty": 1927559717400,
  "gasLimit": {
    "_hex": "0x2fefd8"
  },
  "gasUsed": {
    "_hex": "0x17cd8"
  },
  "miner": "0x01d9DA08cc6Fb97c0DE1B6F4C28910A0859Ed1A1",
  "extraData": "0x476574682f76312e302e312f6c696e75782f676f312e342e32",
  "transactions": [
    {
      "hash": "0x5c6bc5b8f115946f5630d99f55d83ccb8a49947ea3d959cdff071de5a3e97c75",
      "blockHash": "0x5f7649a4554fc725b90f84560476e282fad95af5f905d5b5ca1cf27dd3453a86",
      "blockNumber": 65061,
      "transactionIndex": 0,
      "confirmations": null,
      "from": "0x4cECAbA591fa209ae22E8bDb9fbb444Bf0949B86",
      "gasPrice": {
        "_hex": "0xba43b7400"
      },
      "gasLimit": {
        "_hex": "0x15f90"
      },
      "to": "0x793AE8C1b1a160BFc07BFB0d04F85eab1A71F4f2",
      "value": {
        "_hex": "0x0"
      },
      "nonce": 0,
      "data": "0x3ba15036",
      "r": "0x30af89136ae4eba70e5302add375fe44a7a0d41b8d2db3869dfbcd0554af1fda",
      "s": "0x4e036e8aebe18cc2b952602665ac2902740c1ed95222c130d2be1f33e4da9e99",
      "v": 27,
      "creates": null,
      "raw": "0xf86980850ba43b740083015f9094793ae8c1b1a160bfc07bfb0d04f85eab1a71f4f280843ba150361ba030af89136ae4eba70e5302add375fe44a7a0d41b8d2db3869dfbcd0554af1fdaa04e036e8aebe18cc2b952602665ac2902740c1ed95222c130d2be1f33e4da9e99",
      "networkId": 0,
      "chainId": 0
    },
    {
      "hash": "0x7a8b8df3bbdf782bf30fe632891b6f278c2a4bdabf111ba0611ab98954cccb0e",
      "blockHash": "0x5f7649a4554fc725b90f84560476e282fad95af5f905d5b5ca1cf27dd3453a86",
      "blockNumber": 65061,
      "transactionIndex": 1,
      "confirmations": null,
      "from": "0x2077F896f0274b3Cb2c8fd8c956aF1689d90D532",
      "gasPrice": {
        "_hex": "0xba43b7400"
      },
      "gasLimit": {
        "_hex": "0x15f90"
      },
      "to": "0x793AE8C1b1a160BFc07BFB0d04F85eab1A71F4f2",
      "value": {
        "_hex": "0x0"
      },
      "nonce": 0,
      "data": "0x3ba15036",
      "r": "0xca562c054fbcedf7726ed1aeeb36b1e8bfedb8f91566f5ba7d2930a42b8a095c",
      "s": "0x1679dd3cb0e7a00aa924bcd92a3fcb0d857522ff5c5a654907a6b2042cc587d5",
      "v": 27,
      "creates": null,
      "raw": "0xf86980850ba43b740083015f9094793ae8c1b1a160bfc07bfb0d04f85eab1a71f4f280843ba150361ba0ca562c054fbcedf7726ed1aeeb36b1e8bfedb8f91566f5ba7d2930a42b8a095ca01679dd3cb0e7a00aa924bcd92a3fcb0d857522ff5c5a654907a6b2042cc587d5",
      "networkId": 0,
      "chainId": 0
    }
  ]
}