{
  "hash": "0x0086eb74c956000b4de07cbbf9952ed1898f1db469fcabbfec09b09f99b686cd",
  "parentHash": "0x5c410a3076db8a0d6c405eda074f433872a2848558fb57b0da85d6218794eca0",
  "number": 91510,
  "timestamp": 1439656862,
  "nonce": "0xae4eab9922c54044",
  "difficulty": 3481071571111,
  "gasLimit": {
    "_hex": "0x2fefd8"
  },
  "gasUsed": {
    "_hex": "0x40410"
  },
  "miner": "0xe6A7a1d47ff21B6321162AEA7C6CB457D5476Bca",
  "extraData": "0x476574682f76312e302e312d38326566323666362f6c696e75782f676f312e34",
  "transactions": [
    {
      "hash": "0x1f568e8629540e003b398d8bd3813351698c0a2030d8e7c92291670894f6ed7a",
      "blockHash": "0x0086eb74c956000b4de07cbbf9952ed1898f1db469fcabbfec09b09f99b686cd",
      "blockNumber": 91510,
      "transactionIndex": 0,
      "confirmations": null,
      "from": "0xeBE0CB07a7Cf347E83e7BC0d660c730731f64bd2",
      "gasPrice": {
        "_hex": "0xd7270ece4"
      },
      "gasLimit": {
        "_hex": "0x30d40"
      },
      "to": "0x120A270bbC009644e35F0bB6ab13f95b8199c4ad",
      "value": {
        "_hex": "0x227477ee1f2a154f00"
      },
      "nonce": 0,
      "data": "0x",
      "r": "0x944c87136ad6b8e10eaacd7cb63d8cba90648e5287a4b52fa0b714cbac7aa449",
      "s": "0x1fe914fc200fe88f31138ee4dc8e1475994e809531e3ece131aaa20563ac2589",
      "v": 27,
      "creates": null,
      "raw": "0xf86e80850d7270ece483030d4094120a270bbc009644e35f0bb6ab13f95b8199c4ad89227477ee1f2a154f00801ba0944c87136ad6b8e10eaacd7cb63d8cba90648e5287a4b52fa0b714cbac7aa449a01fe914fc200fe88f31138ee4dc8e1475994e809531e3ece131aaa20563ac2589",
      "networkId": 0,
      "chainId": 0
    },
    {
      "hash": "0x385308b54d4152761ce0f8e45574127990aee4469754ae93f36d53082b4c52c8",
      "blockHash": "0x0086eb74c956000b4de07cbbf9952ed1898f1db469fcabbfec09b09f99b686cd",
      "blockNumber": 91510,
      "transactionIndex": 1,
      "confirmations": null,
      "from": "0xB5141AD349113406F14Eff4167863c4Fc6f4c2a3",
      "gasPrice": {
        "_hex": "0xd7270ece4"
      },
      "gasLimit": {
        "_hex": "0x30d40"
      },
      "to": "0x120A270bbC009644e35F0bB6ab13f95b8199c4ad",
      "value": {
        "_hex": "0x2e8397aad0afc9cb00"
      },
      "nonce": 0,
      "data": "0x",
      "r": "0xdfbfe874201df1f68661dce5373a86dd8ffa7b0ba3ce2765bff721e0a958d7e5",
      "s": "0x6579523d7bef774edb216b0c8895f0c2672dd0b8cc0b2bfa4c641535ef9ade5e",
      "v": 28,
      "creates": null,
      "raw": "0xf86e80850d7270ece483030d4094120a270bbc009644e35f0bb6ab13f95b8199c4ad892e8397aad0afc9cb00801ca0dfbfe874201df1f68661dce5373a86dd8ffa7b0ba3ce2765bff721e0a958d7e5a06579523d7bef774edb216b0c8895f0c2672dd0b8cc0b2bfa4c641535ef9ade5e",
      "networkId": 0,
      "chainId": 0
    },
    {
      "hash": "0xc6ccf8a51489b8a1febd307c8a25a1faa44d1da7e3b6d3073a30ff1babed6e1a",
      "blockHash": "0x0086eb74c956000b4de07cbbf9952ed1898f1db469fcabbfec09b09f99b686cd",
      "blockNumber": 91510,
      "transactionIndex": 2,
      "confirmations": null,
      "from": "0x9b65f5224DAB0793bC1cadD6640686A1A1D574ea",
      "gasPrice": {
        "_hex": "0xd63eb2d0e"
      },
      "gasLimit": {
        "_hex": "0xf4240"
      },
      "to": null,
      "value": {
        "_hex": "0x0"
      },
      "nonce": 0,
      "data": "0x60606040526040516102b43803806102b48339016040526060805160600190602001505b5b33600060006101000a81548173ffffffffffffffffffffffffffffffffffffffff021916908302179055505b806001600050908051906020019082805482825590600052602060002090601f01602090048101928215609e579182015b82811115609d5782518260005055916020019190600101906081565b5b50905060c5919060a9565b8082111560c1576000818150600090555060010160a9565b5090565b50505b506101dc806100d86000396000f30060606040526000357c01000000000000000000000000000000000000000000000000000000009004806341c0e1b514610044578063cfae32171461005157610042565b005b61004f6004506100ca565b005b61005c60045061015e565b60405180806020018281038252838181518152602001915080519060200190808383829060006004602084601f0104600302600f01f150905090810190601f1680156100bc5780820380516001836020036101000a031916815260200191505b509250505060405180910390f35b600060009054906101000a900473ffffffffffffffffffffffffffffffffffffffff1673ffffffffffffffffffffffffffffffffffffffff163373ffffffffffffffffffffffffffffffffffffffff16141561015b57600060009054906101000a900473ffffffffffffffffffffffffffffffffffffffff1673ffffffffffffffffffffffffffffffffffffffff16ff5b5b565b60206040519081016040528060008152602001506001600050805480601f016020809104026020016040519081016040528092919081815260200182805480156101cd57820191906000526020600020905b8154815290600101906020018083116101b057829003601f168201915b505050505090506101d9565b90560000000000000000000000000000000000000000000000000000000000000020000000000000000000000000000000000000000000000000000000000000000c48656c6c6f20576f726c64210000000000000000000000000000000000000000",
      "r": "0x170f2e7f79faf9e882852b88378e2f95c7342ba054115b8545bb734092e35762",
      "s": "0x72f4c21debf97c90d6dbe22b60c7db234c44538900ccfb46522217017f46e6a8",
      "v": 28,
      "creates": "0x12878A32aDcAB891F5149aed65528373d79F81c3",
      "raw": "0xf9036780850d63eb2d0e830f42408080b9031460606040526040516102b43803806102b48339016040526060805160600190602001505b5b33600060006101000a81548173ffffffffffffffffffffffffffffffffffffffff021916908302179055505b806001600050908051906020019082805482825590600052602060002090601f01602090048101928215609e579182015b82811115609d5782518260005055916020019190600101906081565b5b50905060c5919060a9565b8082111560c1576000818150600090555060010160a9565b5090565b50505b506101dc806100d86000396000f30060606040526000357c01000000000000000000000000000000000000000000000000000000009004806341c0e1b514610044578063cfae32171461005157610042565b005b61004f6004506100ca565b005b61005c60045061015e565b60405180806020018281038252838181518152602001915080519060200190808383829060006004602084601f0104600302600f01f150905090810190601f1680156100bc5780820380516001836020036101000a031916815260200191505b509250505060405180910390f35b600060009054906101000a900473ffffffffffffffffffffffffffffffffffffffff1673ffffffffffffffffffffffffffffffffffffffff163373ffffffffffffffffffffffffffffffffffffffff16141561015b57600060009054906101000a900473ffffffffffffffffffffffffffffffffffffffff1673ffffffffffffffffffffffffffffffffffffffff16ff5b5b565b60206040519081016040528060008152602001506001600050805480601f016020809104026020016040519081016040528092919081815260200182805480156101cd57820191906000526020600020905b8154815290600101906020018083116101b057829003601f168201915b505050505090506101d9565b90560000000000000000000000000000000000000000000000000000000000000020000000000000000000000000000000000000000000000000000000000000000c48656c6c6f20576f726c642100000000000000000000000000000000000000001ca0170f2e7f79faf9e882852b88378e2f95c7342ba054115b8545bb734092e35762a072f4c21debf97c90d6dbe22b60c7db234c44538900ccfb46522217017f46e6a8",
      "networkId": 0,
      "chainId": 0
    }
  ]
}