{
  "hash": "0xd0c343c1b5de369cae2c7aa50767b4665aa5613ce04c0d911f3ff799401aa231",
  "parentHash": "0xf3cb0c0734369fdb822acbf46568614dfaf976fe165e01f33eca5ef68ca3c9b7",
  "number": 119479,
  "timestamp": 1440143709,
  "nonce": "0xdf42330d82c5e423",
  "difficulty": 4392268633174,
  "gasLimit": {
    "_hex": "0x2fefd8"
  },
  "gasUsed": {
    "_hex": "0x5208"
  },
  "miner": "0xe6A7a1d47ff21B6321162AEA7C6CB457D5476Bca",
  "extraData": "0xd783010002844765746887676f312e342e32856c696e7578",
  "transactions": [
    {
      "hash": "0xe2bc4cc953a5d40bc04b40e7dce7e37f18299c125be9fc66fd3ce1f3437e4c22",
      "blockHash": "0xd0c343c1b5de369cae2c7aa50767b4665aa5613ce04c0d911f3ff799401aa231",
      "blockNumber": 119479,
      "transactionIndex": 0,
      "confirmations": null,
      "from": "0x3B6C409e2ADC909C20B59DF21a7c48F44c259F24",
      "gasPrice": {
        "_hex": "0xba43b7400"
      },
      "gasLimit": {
        "_hex": "0x5208"
      },
      "to": "0x32Be343B94f860124dC4fEe278FDCBD38C102D88",
      "value": {
        "_hex": "0x3cbdefe9b9f13000"
      },
      "nonce": 8,
      "data": "0x",
      "r": "0x0f6eae42654ec36442041b449a87b5a7f981fb467ac911d2d004efcb21e39a15",
      "s": "0x16e725241d05ca9e5b66cb6410fae151f29e05ad2462111fd5293cddf10a468a",
      "v": 27,
      "creates": null,
      "raw": "0xf86c08850ba43b74008252089432be343b94f860124dc4fee278fdcbd38c102d88883cbdefe9b9f13000801ba00f6eae42654ec36442041b449a87b5a7f981fb467ac911d2d004efcb21e39a15a016e725241d05ca9e5b66cb6410fae151f29e05ad2462111fd5293cddf10a468a",
      "networkId": 0,
      "chainId": 0
    }
  ]
}