{
  "hash": "0xc07f955625418c87b89ca5c26d6315df5bfd95fe21738bc8b1bc0eb19c689773",
  "parentHash": "0xa8bd7b3619583ba7351598f95e649720e4f9630a5fb3b4f4776ec91b16477c8b",
  "number": 102698,
  "timestamp": 1439841752,
  "nonce": "0xb726c1d1776a09df",
  "difficulty": 4056430268529,
  "gasLimit": {
    "_hex": "0x2fefd8"
  },
  "gasUsed": {
    "_hex": "0x546c"
  },
  "miner": "0xe6A7a1d47ff21B6321162AEA7C6CB457D5476Bca",
  "extraData": "0x476574682f76312e302e312d38326566323666362f6c696e75782f676f312e34",
  "transactions": [
    {
      "hash": "0x0c4b7b908e4012f727b928e352515506e82b2f101b0e828a257c9ea21e3281cf",
      "blockHash": "0xc07f955625418c87b89ca5c26d6315df5bfd95fe21738bc8b1bc0eb19c689773",
      "blockNumber": 102698,
      "transactionIndex": 0,
      "confirmations": null,
      "from": "0x0b5D66B13c87B392e94D91d5f76C0D450A552843",
      "gasPrice": {
        "_hex": "0x110c8f7d8de"
      },
      "gasLimit": {
        "_hex": "0xc350"
      },
      "to": "0x2910543Af39abA0Cd09dBb2D50200b3E800A63D2",
      "value": {
        "_hex": "0xde0b6b3a7640000"
      },
      "nonce": 0,
      "data": "0x454e4a52464a595652",
      "r": "0x08471eac3f90315d32b9c397a790ca003c7f64c2d02dd61b95d358ad3573103b",
      "s": "0x51c2c4f741c21f41b88f4cfb33d9c9ee14bc039b2a6d5f23f89538d603aa3e91",
      "v": 27,
      "creates": null,
      "raw": "0xf87680860110c8f7d8de82c350942910543af39aba0cd09dbb2d50200b3e800a63d2880de0b6b3a764000089454e4a52464a5956521ba008471eac3f90315d32b9c397a790ca003c7f64c2d02dd61b95d358ad3573103ba051c2c4f741c21f41b88f4cfb33d9c9ee14bc039b2a6d5f23f89538d603aa3e91",
      "networkId": 0,
      "chainId": 0
    }
  ]
}