{
  "hash": "0xa21637aa9652c6b0cd14329162fef369ea6ad4ba27f5419c0a0216ae72f2150a",
  "parentHash": "0xde40d26bfcc22fa24b2a86f14dbee691b7bc2baacebdc26b82429537976678a0",
  "number": 65219,
  "timestamp": 1439233220,
  "nonce": "0x4c5cff53376f7f9b",
  "difficulty": 1946439095738,
  "gasLimit": {
    "_hex": "0x2fefd8"
  },
  "gasUsed": {
    "_hex": "0xa410"
  },
  "miner": "0x6dED38803DA575897de5d51b7AEF3b86f35945A1",
  "extraData": "0x476574682f76312e302e312f6c696e75782f676f312e342e32",
  "transactions": [
    {
      "hash": "0x3166801c4730b4d39973684b2aa0e7434cc762080a7ec2bf87dadf4ccd02a248",
      "blockHash": "0xa21637aa9652c6b0cd14329162fef369ea6ad4ba27f5419c0a0216ae72f2150a",
      "blockNumber": 65219,
      "transactionIndex": 0,
      "confirmations": null,
      "from": "0x1A9Ac400722144dc66914C62BB3981370fc72183",
      "gasPrice": {
        "_hex": "0xba43b7400"
      },
      "gasLimit": {
        "_hex": "0x5208"
      },
      "to": "0xe989d5904632E1B0FB9Cd0E0042f1dACdD31eCBa",
      "value": {
        "_hex": "0x6e71a1e000e3000"
      },
      "nonce": 1,
      "data": "0x",
      "r": "0xe494a7c97ca543f3b2e825fb2879eb05ff1f6f2f3aa038514cce16a3ba928609",
      "s": "0x33ab858eed1609b522cbe3d5623ad055b7d607926479a06584c5b02d3452b961",
      "v": 27,
      "creates": null,
      "raw": "0xf86c01850ba43b740082520894e989d5904632e1b0fb9cd0e0042f1dacdd31ecba8806e71a1e000e3000801ba0e494a7c97ca543f3b2e825fb2879eb05ff1f6f2f3aa038514cce16a3ba928609a033ab858eed1609b522cbe3d5623ad055b7d607926479a06584c5b02d3452b961",
      "networkId": 0,
      "chainId": 0
    },
    {
      "hash": "0x8d2d8ddcd986dd6dd4a5d40db0fb6ace2858c55b221811c6ba2360b054139586",
      "blockHash": "0xa21637aa9652c6b0cd14329162fef369ea6ad4ba27f5419c0a0216ae72f2150a",
      "blockNumber": 65219,
      "transactionIndex": 1,
      "confirmations": null,
      "from": "0x8b7ed49ed1A9F810dE7565298721136e1Fb2074C",
      "gasPrice": {
        "_hex": "0xba43b7400"
      },
      "gasLimit": {
        "_hex": "0x5208"
      },
      "to": "0xE103d970E7ce1C01a211923eF2321EBdD03D42aE",
      "value": {
        "_hex": "0x6736a3dc03c0000"
      },
      "nonce": 1,
      "data": "0x",
      "r": "0x5df9035ea712ae3bd61cad65ece931043734320ad01c3bcee37442e68298b62e",
      "s": "0x0721a555ce1e3a64e5f63164a79c591d4b5f390be39d1ffdb0bba62699771e2d",
      "v": 28,
      "creates": null,
      "raw": "0xf86c01850ba43b740082520894e103d970e7ce1c01a211923ef2321ebdd03d42ae8806736a3dc03c0000801ca05df9035ea712ae3bd61cad65ece931043734320ad01c3bcee37442e68298b62ea00721a555ce1e3a64e5f63164a79c591d4b5f390be39d1ffdb0bba62699771e2d",
      "networkId": 0,
      "chainId": 0
    }
  ]
}