{
  "hash": "0x9d3277a4a863e6a035ff443004c5b54f76c539bc40d5e23bb6da40a2fcd7145d",
  "parentHash": "0xe92e35131df371eed150bec12123d41d9ca194d1c6d7e4b202caa42fb4c436cf",
  "number": 93024,
  "timestamp": 1439681053,
  "nonce": "0x3c160438c2a7ed74",
  "difficulty": 3651037057285,
  "gasLimit": {
    "_hex": "0x2fefd8"
  },
  "gasUsed": {
    "_hex": "0x5208"
  },
  "miner": "0x88D74a59454F6cF3B51ef6b9136AFb6b9D405A88",
  "extraData": "0x476574682f76312e302e312d37666266393930632f6c696e75782f676f312e34",
  "transactions": [
    {
      "hash": "0x30fe0408b34062596a6eec76fa9dc67bb361ea24653f2113ff315d58a8bb1b3f",
      "blockHash": "0x9d3277a4a863e6a035ff443004c5b54f76c539bc40d5e23bb6da40a2fcd7145d",
      "blockNumber": 93024,
      "transactionIndex": 0,
      "confirmations": null,
      "from": "0xB278779C2283b3286a5Dc459762C110542494364",
      "gasPrice": {
        "_hex": "0xd641f460d"
      },
      "gasLimit": {
        "_hex": "0x15f90"
      },
      "to": "0xF630f7D90cf03682522980B725BaF441559B7d80",
      "value": {
        "_hex": "0xde0b6b3a7640000"
      },
      "nonce": 0,
      "data": "0x",
      "r": "0x065e0074d9625cd321fdd65878fc55169bb4e7b3d23bbfb28fadb066e8c1a924",
      "s": "0x47dbb79001a4a9b46636f7c3ab9d5b2569a947c9dfd5ec5528fe687b06b0b3c2",
      "v": 27,
      "creates": null,
      "raw": "0xf86d80850d641f460d83015f9094f630f7d90cf03682522980b725baf441559b7d80880de0b6b3a7640000801ba0065e0074d9625cd321fdd65878fc55169bb4e7b3d23bbfb28fadb066e8c1a924a047dbb79001a4a9b46636f7c3ab9d5b2569a947c9dfd5ec5528fe687b06b0b3c2",
      "networkId": 0,
      "chainId": 0
    }
  ]
}