{
  "hash": "0x0a84f6165bee8f0b423ae889b74f05c2b8ae6b7b3bb140d835eaf5ac853d0745",
  "parentHash": "0xddf8cb6d54e4cf9392d98af70a34a7b79adf9d71a34c30529583aebef0b59176",
  "number": 120596,
  "timestamp": 1440162678,
  "nonce": "0x65f07d42239f8640",
  "difficulty": 4419649377129,
  "gasLimit": {
    "_hex": "0x2fefd8"
  },
  "gasUsed": {
    "_hex": "0x5208"
  },
  "miner": "0xf953405630EB592EA47C1ff0f22d3b38891f6cd6",
  "extraData": "0xd983010002844765746887676f312e342e328777696e646f7773",
  "transactions": [
    {
      "hash": "0xd531adb991a274df374da334925a159294b215d892b1df56e78355e9083c295d",
      "blockHash": "0x0a84f6165bee8f0b423ae889b74f05c2b8ae6b7b3bb140d835eaf5ac853d0745",
      "blockNumber": 120596,
      "transactionIndex": 0,
      "confirmations": null,
      "from": "0xF3BB3a71bA12A87dE8523E92779a1dd882460c20",
      "gasPrice": {
        "_hex": "0xba43b7400"
      },
      "gasLimit": {
        "_hex": "0x5208"
      },
      "to": "0x32Be343B94f860124dC4fEe278FDCBD38C102D88",
      "value": {
        "_hex": "0x9ccdef291ce66000"
      },
      "nonce": 1,
      "data": "0x",
      "r": "0x5d97655ba28f05756da06acbfd8ad0daa0846ae4feb390d6c732cf27a88ae465",
      "s": "0x12046599ac4b770ab67fe79635a6df6988d4fbc211509de8cb13572e1d233b7a",
      "v": 27,
      "creates": null,
      "raw": "0xf86c01850ba43b74008252089432be343b94f860124dc4fee278fdcbd38c102d88889ccdef291ce66000801ba05d97655ba28f05756da06acbfd8ad0daa0846ae4feb390d6c732cf27a88ae465a012046599ac4b770ab67fe79635a6df6988d4fbc211509de8cb13572e1d233b7a",
      "networkId": 0,
      "chainId": 0
    }
  ]
}