{
  "hash": "0x932145ba756f52a378449a807ed976ad98a9c19f20a6a90262f9ccf5b89ab428",
  "parentHash": "0xf350d1465a0b9a2c85ca3efbfd1d8ae483c9ea1bccea8fc24e9a0794c3674a02",
  "number": 112985,
  "timestamp": 1440016165,
  "nonce": "0x63f07fb5fe2f2cb7",
  "difficulty": 4473620956770,
  "gasLimit": {
    "_hex": "0x2fefd8"
  },
  "gasUsed": {
    "_hex": "0x5208"
  },
  "miner": "0xD0ee3F53eE0fCf3F9fbCcdd17BD1b6441DdC2074",
  "extraData": "0x476574682f76312e302e312d38326566323666362f6c696e75782f676f312e34",
  "transactions": [
    {
      "hash": "0xee34017c36db425c47526e03978b0a762d2e114b9ec27f9b4d792e855467b705",
      "blockHash": "0x932145ba756f52a378449a807ed976ad98a9c19f20a6a90262f9ccf5b89ab428",
      "blockNumber": 112985,
      "transactionIndex": 0,
      "confirmations": null,
      "from": "0x7e8504a5e26df87f6D26fA1ba148BE146F42775A",
      "gasPrice": {
        "_hex": "0xce3335bce"
      },
      "gasLimit": {
        "_hex": "0x15f90"
      },
      "to": "0x9f78552704fe7e52cC7C3853534aA2C3cf580D54",
      "value": {
        "_hex": "0x2fb474098f67c0000"
      },
      "nonce": 10,
      "data": "0x",
      "r": "0x43659354082482b77503d8827c79c37207bf8fde4171b9be2ee1d587bd5c1193",
      "s": "0x1cd928c8d3f35dc7fe6b71913d0cfcedb08f9877fbc61c7b128829ae042a2806",
      "v": 27,
      "creates": null,
      "raw": "0xf86e0a850ce3335bce83015f90949f78552704fe7e52cc7c3853534aa2c3cf580d548902fb474098f67c0000801ba043659354082482b77503d8827c79c37207bf8fde4171b9be2ee1d587bd5c1193a01cd928c8d3f35dc7fe6b71913d0cfcedb08f9877fbc61c7b128829ae042a2806",
      "networkId": 0,
      "chainId": 0
    }
  ]
}