{
  "hash": "0x2c67a9dee8f7541d612c4f9e5699976f95ba0f85acb42e717ccedafc6f7a4227",
  "parentHash": "0xb2dbbd9870bb8e96f73d272aaf96110d16d6a4b661718dc9ce9f44a14614d4f3",
  "number": 54867,
  "timestamp": 1439061382,
  "nonce": "0xa84c01af180050b7",
  "difficulty": 1609348418488,
  "gasLimit": {
    "_hex": "0x2fefd8"
  },
  "gasUsed": {
    "_hex": "0x546c"
  },
  "miner": "0x1D889aFF5D57138c9819412d63b5d877567B5936",
  "extraData": "0x476574682f76312e302e312f77696e646f77732f676f312e342e32",
  "transactions": [
    {
      "hash": "0xe4fccda98a4af4b687b501cd8374887cf2c96de5233aa8762692887c17660ded",
      "blockHash": "0x2c67a9dee8f7541d612c4f9e5699976f95ba0f85acb42e717ccedafc6f7a4227",
      "blockNumber": 54867,
      "transactionIndex": 0,
      "confirmations": null,
      "from": "0x9F017706B830Fb9C30eFB0a09f506B9157457534",
      "gasPrice": {
        "_hex": "0xd69b48315"
      },
      "gasLimit": {
        "_hex": "0x15f90"
      },
      "to": "0x2910543Af39abA0Cd09dBb2D50200b3E800A63D2",
      "value": {
        "_hex": "0xde0b6b3a7640000"
      },
      "nonce": 0,
      "data": "0x454e4d375645314847",
      "r": "0xc3a00bf7aa7389ee64ba6fe7f2445c78060b631c9405f9af7c2f9e9a8a9f0f92",
      "s": "0x4e07bbe1e6bd606ed152eac81a1ac20e008f547afbf92948c7c2adeb1fba1ab5",
      "v": 27,
      "creates": null,
      "raw": "0xf87680850d69b4831583015f90942910543af39aba0cd09dbb2d50200b3e800a63d2880de0b6b3a764000089454e4d3756453148471ba0c3a00bf7aa7389ee64ba6fe7f2445c78060b631c9405f9af7c2f9e9a8a9f0f92a04e07bbe1e6bd606ed152eac81a1ac20e008f547afbf92948c7c2adeb1fba1ab5",
      "networkId": 0,
      "chainId": 0
    }
  ]
}