{
  "hash": "0x0a1cda0264796b8afe98ad72e078edbef6ace53135d972ff6d9069366034b352",
  "parentHash": "0x020790dd69ca07a923eb1345cc4922720093b6598fb3125890f50f34e38d0a61",
  "number": 63437,
  "timestamp": 1439204410,
  "nonce": "0x611abf97d8411b95",
  "difficulty": 1837850785211,
  "gasLimit": {
    "_hex": "0x2fefd8"
  },
  "gasUsed": {
    "_hex": "0xa410"
  },
  "miner": "0x47ff6576639c2e94762eA5443978D7681C0E78DC",
  "extraData": "0x476574682f76312e302e312f6c696e75782f676f312e342e32",
  "transactions": [
    {
      "hash": "0xea6622ad2865e5d8755764a951024808f90838295cf1d0622e4766b45db04a0f",
      "blockHash": "0x0a1cda0264796b8afe98ad72e078edbef6ace53135d972ff6d9069366034b352",
      "blockNumber": 63437,
      "transactionIndex": 0,
      "confirmations": null,
      "from": "0xCb88dAC50e0b4f450f3a5d02c2D65Bc56361313E",
      "gasPrice": {
        "_hex": "0xdf83b627f"
      },
      "gasLimit": {
        "_hex": "0x5208"
      },
      "to": "0x32Be343B94f860124dC4fEe278FDCBD38C102D88",
      "value": {
        "_hex": "0xddc477871c83000"
      },
      "nonce": 2,
      "data": "0x",
      "r": "0x4e4bfb1c7edbfd26520ea1b281b80e0a41e15b7685c365b00d524bedddb755ad",
      "s": "0x5834dc0535f146ee816d137404bf19fccb1374c9929418c09e4506dead6ba348",
      "v": 27,
      "creates": null,
      "raw": "0xf86c02850df83b627f8252089432be343b94f860124dc4fee278fdcbd38c102d88880ddc477871c83000801ba04e4bfb1c7edbfd26520ea1b281b80e0a41e15b7685c365b00d524bedddb755ada05834dc0535f146ee816d137404bf19fccb1374c9929418c09e4506dead6ba348",
      "networkId": 0,
      "chainId": 0
    },
    {
      "hash": "0xd5de635582d00d0aa6708bc54339076fbe94edd10efb7a0844f4adace6e66445",
      "blockHash": "0x0a1cda0264796b8afe98ad72e078edbef6ace53135d972ff6d9069366034b352",
      "blockNumber": 63437,
      "transactionIndex": 1,
      "confirmations": null,
      "from": "0xaf720cF7813ad4cd45B1A77aF5044c18DEC84167",
      "gasPrice": {
        "_hex": "0xdf83b627f"
      },
      "gasLimit": {
        "_hex": "0x5208"
      },
      "to": "0x32Be343B94f860124dC4fEe278FDCBD38C102D88",
      "value": {
        "_hex": "0x897e83e75e08f800"
      },
      "nonce": 1,
      "data": "0x",
      "r": "0x29b0cf78214e235a2afb35531f97f1524571c036020e3cdd37592773f309ac9a",
      "s": "0x15e03cb37c0a55d7a2e7c31bdb4d72d9940e5250597aabac6d75a766fc1582fc",
      "v": 28,
      "creates": null,
      "raw": "0xf86c01850df83b627f8252089432be343b94f860124dc4fee278fdcbd38c102d8888897e83e75e08f800801ca029b0cf78214e235a2afb35531f97f1524571c036020e3cdd37592773f309ac9aa015e03cb37c0a55d7a2e7c31bdb4d72d9940e5250597aabac6d75a766fc1582fc",
      "networkId": 0,
      "chainId": 0
    }
  ]
}