{
  "hash": "0x96873b810bd75b77b5b09b37bb746c20936a7da00a10c86a09f92b5c95317311",
  "parentHash": "0xb597b14768132a55e9dab9a6b7c2d90d3261c6bea25b0fcd749706ea0b3de25c",
  "number": 46816,
  "timestamp": 1438929604,
  "nonce": "0x844fbd36567ed7ee",
  "difficulty": 1460303956125,
  "gasLimit": {
    "_hex": "0x7b52"
  },
  "gasUsed": {
    "_hex": "0x5208"
  },
  "miner": "0x0193d941b50d91BE6567c7eE1C0Fe7AF498b4137",
  "extraData": "0x4a5ace9e4e",
  "transactions": [
    {
      "hash": "0xef16ea5567c614eebdcbc9fe11f598becfb28ea249c9f7e0f3db8cf85e4432ad",
      "blockHash": "0x96873b810bd75b77b5b09b37bb746c20936a7da00a10c86a09f92b5c95317311",
      "blockNumber": 46816,
      "transactionIndex": 0,
      "confirmations": null,
      "from": "0x17f8255F73211f9129a7E93250e8B7DF5D7F752d",
      "gasPrice": {
        "_hex": "0xd373e6708"
      },
      "gasLimit": {
        "_hex": "0x5208"
      },
      "to": "0x32Be343B94f860124dC4fEe278FDCBD38C102D88",
      "value": {
        "_hex": "0x6c6b248a98a1780000"
      },
      "nonce": 3,
      "data": "0x",
      "r": "0x86d74cb49e4e0837153e49f9c36c5d172e5d4657cf3f3d25be42e2865b15f4c0",
      "s": "0x420eb10c078393e5183162082db8b9d7377f740642cb5495c062710552f78441",
      "v": 28,
      "creates": null,
      "raw": "0xf86d03850d373e67088252089432be343b94f860124dc4fee278fdcbd38c102d88896c6b248a98a1780000801ca086d74cb49e4e0837153e49f9c36c5d172e5d4657cf3f3d25be42e2865b15f4c0a0420eb10c078393e5183162082db8b9d7377f740642cb5495c062710552f78441",
      "networkId": 0,
      "chainId": 0
    }
  ]
}