{
  "hash": "0x4d519a907a501e12ab720a6ef7061a5796e021a5a75e67dca2e22277b6d65478",
  "parentHash": "0x39c446f3ee1645ab09907730c5167f78572e1db81f6087d3f62c0d4450be907f",
  "number": 49495,
  "timestamp": 1438974319,
  "nonce": "0x720a9b9207162162",
  "difficulty": 1480656245790,
  "gasLimit": {
    "_hex": "0x33176"
  },
  "gasUsed": {
    "_hex": "0x5208"
  },
  "miner": "0x0bB970421F183BFbecC628CD6d7C5dF6db70FaCf",
  "extraData": "0x476574682f76312e302e302f6c696e75782f676f312e342e32",
  "transactions": [
    {
      "hash": "0xbd5bbd82d550830f8fd7f4e456bdace0afb830c094de22b938db68bcb7cbfc82",
      "blockHash": "0x4d519a907a501e12ab720a6ef7061a5796e021a5a75e67dca2e22277b6d65478",
      "blockNumber": 49495,
      "transactionIndex": 0,
      "confirmations": null,
      "from": "0x96EA6Ac89A2bac95347B51DBa63D8bd5ebDedce1",
      "gasPrice": {
        "_hex": "0xd58a71980"
      },
      "gasLimit": {
        "_hex": "0x15f90"
      },
      "to": "0x15eC455c1446538CaA87b185CEa4A0c7A537c56F",
      "value": {
        "_hex": "0x3635c9adc5dea00000"
      },
      "nonce": 3,
      "data": "0x",
      "r": "0x7c21a38071c4ffe347a5b9a27c22f49768f2d4a94253160db4b7c82f519503a9",
      "s": "0x26bc05e786008f9b4c3937bc0f00714676d18305d29bd1df38fbc9ca15979ca6",
      "v": 28,
      "creates": null,
      "raw": "0xf86e03850d58a7198083015f909415ec455c1446538caa87b185cea4a0c7a537c56f893635c9adc5dea00000801ca07c21a38071c4ffe347a5b9a27c22f49768f2d4a94253160db4b7c82f519503a9a026bc05e786008f9b4c3937bc0f00714676d18305d29bd1df38fbc9ca15979ca6",
      "networkId": 0,
      "chainId": 0
    }
  ]
}