{
  "hash": "0x36cf0785bfff7b231ad73d38a03e0e7b777da4eeabf535a7d984b1343bcb1f70",
  "parentHash": "0x066196779dee74204d0e3954c94b2e08b4b60c1e80ca327ada6ce19e03b2b539",
  "number": 69581,
  "timestamp": 1439306157,
  "nonce": "0xbbf31ba0dc80ea7a",
  "difficulty": 2085101532003,
  "gasLimit": {
    "_hex": "0x2fefd5"
  },
  "gasUsed": {
    "_hex": "0x5208"
  },
  "miner": "0xf927a40C8B7F6E07c5af7FA2155B4864a4112B13",
  "extraData": "0x",
  "transactions": [
    {
      "hash": "0xe2d7cce781df3edd09436a4c8e22452451edcd234ed87fb59b30ac147b2465f2",
      "blockHash": "0x36cf0785bfff7b231ad73d38a03e0e7b777da4eeabf535a7d984b1343bcb1f70",
      "blockNumber": 69581,
      "transactionIndex": 0,
      "confirmations": null,
      "from": "0x79d5794171E11dd5C2f0e26E1C187319db2FE6f7",
      "gasPrice": {
        "_hex": "0xd203a644e"
      },
      "gasLimit": {
        "_hex": "0x5208"
      },
      "to": "0x32Be343B94f860124dC4fEe278FDCBD38C102D88",
      "value": {
        "_hex": "0x3406786628dbb000"
      },
      "nonce": 14,
      "data": "0x",
      "r": "0xbb568c465affd475dce6717fb99ea7557c11053e5043dbf988550513b00cb339",
      "s": "0x4a2111a58202da6cc9242ada6159e64b4a9f7290f4f5a6e6ff27119bb2e22532",
      "v": 27,
      "creates": null,
      "raw": "0xf86c0e850d203a644e8252089432be343b94f860124dc4fee278fdcbd38c102d88883406786628dbb000801ba0bb568c465affd475dce6717fb99ea7557c11053e5043dbf988550513b00cb339a04a2111a58202da6cc9242ada6159e64b4a9f7290f4f5a6e6ff27119bb2e22532",
      "networkId": 0,
      "chainId": 0
    }
  ]
}