{
  "hash": "0xfcebf90d018231a36cec66043b40e7dd9a3147d42490d78a07d6179d8a47f5f8",
  "parentHash": "0x9f4f4e6608e3685a602cee7241711ec9fda17aef36d33de22de46d3ede1cd175",
  "number": 48565,
  "timestamp": 1438959061,
  "nonce": "0xc929ffaed2d14311",
  "difficulty": 1472169094972,
  "gasLimit": {
    "_hex": "0x197d9"
  },
  "gasUsed": {
    "_hex": "0x5208"
  },
  "miner": "0xbb7B8287f3F0a933474a79eAe42CBCa977791171",
  "extraData": "0x476574682f4c5649562f76312e302e312f6c696e75782f676f312e342e32",
  "transactions": [
    {
      "hash": "0xa5107f661204d3c761d2cc560e0496a827ba86c72fb23bcc04d748629d8b27a6",
      "blockHash": "0xfcebf90d018231a36cec66043b40e7dd9a3147d42490d78a07d6179d8a47f5f8",
      "blockNumber": 48565,
      "transactionIndex": 0,
      "confirmations": null,
      "from": "0x8C6AE7a05a1dE57582ae2768204276c0ff47ed03",
      "gasPrice": {
        "_hex": "0xdf8475800"
      },
      "gasLimit": {
        "_hex": "0x5208"
      },
      "to": "0x7a19C3C33f2a800b2FA361fD24277cAb0A1C1dB1",
      "value": {
        "_hex": "0x8ac7230489e80000"
      },
      "nonce": 6,
      "data": "0x",
      "r": "0xcb5d109a532aa08a1307c678317209d7389c3a012eac6ca6c5598f727a70d216",
      "s": "0x163db848100febb5b0e58cb624724d2a256a862d9bd6f14578cd3f192bbf97a6",
      "v": 28,
      "creates": null,
      "raw": "0xf86c06850df8475800825208947a19c3c33f2a800b2fa361fd24277cab0a1c1db1888ac7230489e80000801ca0cb5d109a532aa08a1307c678317209d7389c3a012eac6ca6c5598f727a70d216a0163db848100febb5b0e58cb624724d2a256a862d9bd6f14578cd3f192bbf97a6",
      "networkId": 0,
      "chainId": 0
    }
  ]
}