{
  "hash": "0x00e8a9edf93e025c1e32360c15b06f08d5a24524fa9eca6b264ca5b27ecc7f39",
  "parentHash": "0x238a20597ce1e792001b5f73a4f98592fa186fef61dbad3e9a9a8a8b88382c16",
  "number": 119183,
  "timestamp": 1440138160,
  "nonce": "0x395ef506183bea2e",
  "difficulty": 4431199060376,
  "gasLimit": {
    "_hex": "0x2fefd8"
  },
  "gasUsed": {
    "_hex": "0xa410"
  },
  "miner": "0x007f7f58D3eb5b7510A301eCC749FC1fCDDBE14D",
  "extraData": "0x",
  "transactions": [
    {
      "hash": "0x1d91b701beb52614c0894c8207a6c0234790e62aeb0ef604752480f5ffaae98a",
      "blockHash": "0x00e8a9edf93e025c1e32360c15b06f08d5a24524fa9eca6b264ca5b27ecc7f39",
      "blockNumber": 119183,
      "transactionIndex": 0,
      "confirmations": null,
      "from": "0x632b9149D70178a7333634275E82d5953F27967B",
      "gasPrice": {
        "_hex": "0xba43b7400"
      },
      "gasLimit": {
        "_hex": "0x15f90"
      },
      "to": "0x8B87d514623d1127f9b56DB60FA1498C1C4bF72e",
      "value": {
        "_hex": "0x8ac7230489e80000"
      },
      "nonce": 5,
      "data": "0x",
      "r": "0x5cb860e88f05d1b09cb6499af0e93af2a4c73f9a80d1b3e3424ab8626858c7c1",
      "s": "0x4738bccc27a0a4b3c4a974d530e32ba37085d9c971d184b76576d950dc2e4489",
      "v": 27,
      "creates": null,
      "raw": "0xf86d05850ba43b740083015f90948b87d514623d1127f9b56db60fa1498c1c4bf72e888ac7230489e80000801ba05cb860e88f05d1b09cb6499af0e93af2a4c73f9a80d1b3e3424ab8626858c7c1a04738bccc27a0a4b3c4a974d530e32ba37085d9c971d184b76576d950dc2e4489",
      "networkId": 0,
      "chainId": 0
    },
    {
      "hash": "0x745f97a996753ea8db78a3e098a70e9b5785663b6d96ecc3053612e2e52b72f1",
      "blockHash": "0x00e8a9edf93e025c1e32360c15b06f08d5a24524fa9eca6b264ca5b27ecc7f39",
      "blockNumber": 119183,
      "transactionIndex": 1,
      "confirmations": null,
      "from": "0x8b4FAE80aC2491bb2FabF0364F6C705565dA5118",
      "gasPrice": {
        "_hex": "0xba43b7400"
      },
      "gasLimit": {
        "_hex": "0x5267"
      },
      "to": "0x512f996df7C0e8256e822bA00C580871DfE20E16",
      "value": {
        "_hex": "0x56bc75e2d63100000"
      },
      "nonce": 3,
      "data": "0x",
      "r": "0x277cdb1dae21955df9a58c31e5f64ea9dd3481cfb77fb887a61aa6f2e2fac044",
      "s": "0xaaa03732042a18a0cd8746413c714b2d4fe74ec1de42d2b19b05940a6d85346b",
      "v": 28,
      "creates": null,
      "raw": "0xf86d03850ba43b740082526794512f996df7c0e8256e822ba00c580871dfe20e1689056bc75e2d63100000801ca0277cdb1dae21955df9a58c31e5f64ea9dd3481cfb77fb887a61aa6f2e2fac044a0aaa03732042a18a0cd8746413c714b2d4fe74ec1de42d2b19b05940a6d85346b",
      "networkId": 0,
      "chainId": 0
    }
  ]
}