{
  "hash": "0xd8e8e0422b93f34121c2be9ab43a2236e0f22befa511aacfa3e735e5fa97c02e",
  "parentHash": "0x69143cc76fc8c1173d8eea043fa54b25ebac8dcc2d4319c435d250dc8523c3a4",
  "number": 114725,
  "timestamp": 1440045173,
  "nonce": "0x1287ba88d81efbe7",
  "difficulty": 4477063113965,
  "gasLimit": {
    "_hex": "0x2fefd8"
  },
  "gasUsed": {
    "_hex": "0xafa7"
  },
  "miner": "0xf8E0CA3Ed80bd541b94BEdCf259e8CF2141A9523",
  "extraData": "0x476574682f76312e302e312f77696e646f77732f676f312e342e32",
  "transactions": [
    {
      "hash": "0x9f0f16e8120dc89a80677c213be0de73d3bc4c7c4eb51328a9dfb525bbb6547d",
      "blockHash": "0xd8e8e0422b93f34121c2be9ab43a2236e0f22befa511aacfa3e735e5fa97c02e",
      "blockNumber": 114725,
      "transactionIndex": 0,
      "confirmations": null,
      "from": "0x02020D22dCF88f5eDd66B382D7da019F161fB7e3",
      "gasPrice": {
        "_hex": "0xd4cc2b992"
      },
      "gasLimit": {
        "_hex": "0x15f90"
      },
      "to": "0x4FCD326ae0739D0DA0fC71020adb6aBf9abf3BdA",
      "value": {
        "_hex": "0x1b1ae4d6e2ef500000"
      },
      "nonce": 35,
      "data": "0x",
      "r": "0xe68cdaade5dcb3de907df24c6104c8f8bb2e731fcdb285b09f4f6dfbc2a3567d",
      "s": "0x5355d906794584cc8271edd8c01ced33d3e62dafe8c7d93a76a6667e14324e29",
      "v": 28,
      "creates": null,
      "raw": "0xf86e23850d4cc2b99283015f90944fcd326ae0739d0da0fc71020adb6abf9abf3bda891b1ae4d6e2ef500000801ca0e68cdaade5dcb3de907df24c6104c8f8bb2e731fcdb285b09f4f6dfbc2a3567da05355d906794584cc8271edd8c01ced33d3e62dafe8c7d93a76a6667e14324e29",
      "networkId": 0,
      "chainId": 0
    },
    {
      "hash": "0x4aada9f7a44d4224f275df8e1ab20eaccc694081d259d446e1def468eaf77994",
      "blockHash": "0xd8e8e0422b93f34121c2be9ab43a2236e0f22befa511aacfa3e735e5fa97c02e",
      "blockNumber": 114725,
      "transactionIndex": 1,
      "confirmations": null,
      "from": "0x02020D22dCF88f5eDd66B382D7da019F161fB7e3",
      "gasPrice": {
        "_hex": "0xd4cc2b992"
      },
      "gasLimit": {
        "_hex": "0x15f90"
      },
      "to": "0xCAc7000C7dBaa2E33Af15325AF5D435E011C7BdD",
      "value": {
        "_hex": "0x1b1ae4d6e2ef500000"
      },
      "nonce": 36,
      "data": "0xb214faa5384e53354b355737410000000000000000000000000000000000000000000000",
      "r": "0x15e36798ab7b087c077599b5104ba8c582c5a7e217fc881b49be4a0a34094ab9",
      "s": "0x6cc4f2eac44429446c30a4234c58162ef67ed179d591ff405d3bdaefb7626d1a",
      "v": 27,
      "creates": null,
      "raw": "0xf89224850d4cc2b99283015f9094cac7000c7dbaa2e33af15325af5d435e011c7bdd891b1ae4d6e2ef500000a4b214faa5384e53354b3557374100000000000000000000000000000000000000000000001ba015e36798ab7b087c077599b5104ba8c582c5a7e217fc881b49be4a0a34094ab9a06cc4f2eac44429446c30a4234c58162ef67ed179d591ff405d3bdaefb7626d1a",
      "networkId": 0,
      "chainId": 0
    }
  ]
}