{
  "hash": "0x025f5f465b74c64cd8a8008c2a02fd5a4d777bc4eda49ab76ec6590efe38668d",
  "parentHash": "0xa2bbd3ea8d33150b4a15c8e46f6aaa1d30cd3eb104539ef006ceb31cb45c1e1b",
  "number": 69385,
  "timestamp": 1439303359,
  "nonce": "0x00486ac18ea8e89f",
  "difficulty": 2050819258645,
  "gasLimit": {
    "_hex": "0x2fefd8"
  },
  "gasUsed": {
    "_hex": "0x53e4"
  },
  "miner": "0xf927a40C8B7F6E07c5af7FA2155B4864a4112B13",
  "extraData": "0x",
  "transactions": [
    {
      "hash": "0x14fdc0020d952cdbfc927103088231f5a2957dec4842dbcd122c2b84086c70ae",
      "blockHash": "0x025f5f465b74c64cd8a8008c2a02fd5a4d777bc4eda49ab76ec6590efe38668d",
      "blockNumber": 69385,
      "transactionIndex": 0,
      "confirmations": null,
      "from": "0xF32124626031dC61D64D3bC92A7Dece6A4B46a37",
      "gasPrice": {
        "_hex": "0xd7d40ace3"
      },
      "gasLimit": {
        "_hex": "0x55f0"
      },
      "to": "0x4E567864EC2EFAd2a2186806b9aFeeF0cAF9a427",
      "value": {
        "_hex": "0x8ac7230489e80000"
      },
      "nonce": 0,
      "data": "0x4655434b594f55",
      "r": "0x5fa23bf50c7c093d573c9d89a5eee534d21be66aae7d18679ceffd5fffa068d6",
      "s": "0x3854775c5fb5e39db9c9024f9846fcdaa17e0b46c650c93080b3f66628788ba9",
      "v": 27,
      "creates": null,
      "raw": "0xf87380850d7d40ace38255f0944e567864ec2efad2a2186806b9afeef0caf9a427888ac7230489e80000874655434b594f551ba05fa23bf50c7c093d573c9d89a5eee534d21be66aae7d18679ceffd5fffa068d6a03854775c5fb5e39db9c9024f9846fcdaa17e0b46c650c93080b3f66628788ba9",
      "networkId": 0,
      "chainId": 0
    }
  ]
}