{
  "hash": "0xaa8343548d3d438a5f7a3650f0ea22e2778107f53a458113a2a417622f6b0435",
  "parentHash": "0x5bb224300018c200d9c415aaee5b31f3d783f70d680de6bccd04aad36c031a49",
  "number": 79136,
  "timestamp": 1439465108,
  "nonce": "0x66b566c049f2375f",
  "difficulty": 2313262770226,
  "gasLimit": {
    "_hex": "0x2fefd8"
  },
  "gasUsed": {
    "_hex": "0x5208"
  },
  "miner": "0x82efFBAaaf28614E55b2BA440FB198E0e5789B0f",
  "extraData": "0x476574682f44616e6b486173682f76312e302e312f77696e646f77732f676f31",
  "transactions": [
    {
      "hash": "0x9772140e1f14283d86374dc9ffff7d2791be66e62aa272d5e9b852e3df965de7",
      "blockHash": "0xaa8343548d3d438a5f7a3650f0ea22e2778107f53a458113a2a417622f6b0435",
      "blockNumber": 79136,
      "transactionIndex": 0,
      "confirmations": null,
      "from": "0x8cEe38D6595788a56E3FB94634b3ffE1fBdB26d6",
      "gasPrice": {
        "_hex": "0xd36ac1c2b"
      },
      "gasLimit": {
        "_hex": "0x15f90"
      },
      "to": "0x7b0813f6450be6d2d27984878f03ee858471fF1c",
      "value": {
        "_hex": "0x1e7e4171bf4d3a00000"
      },
      "nonce": 3,
      "data": "0x",
      "r": "0x6be19cbc4eae2340f403f19e0c154dd10dab985fa304e6ae3dffe43a7a1232d9",
      "s": "0x6d97adb987895d66ae2225d76711ad6da2934364bb4975481a77642265f32563",
      "v": 28,
      "creates": null,
      "raw": "0xf86f03850d36ac1c2b83015f90947b0813f6450be6d2d27984878f03ee858471ff1c8a01e7e4171bf4d3a00000801ca06be19cbc4eae2340f403f19e0c154dd10dab985fa304e6ae3dffe43a7a1232d9a06d97adb987895d66ae2225d76711ad6da2934364bb4975481a77642265f32563",
      "networkId": 0,
      "chainId": 0
    }
  ]
}