{
  "hash": "0xcd042ece776a91d3801a0bb8fff008498b36de70e94bae517ba2200d9ba2b109",
  "parentHash": "0x41f34ef7bc95780fd5841f84503e3930194c9cde7d8ef20a9d7e726abd49fb16",
  "number": 81734,
  "timestamp": 1439506846,
  "nonce": "0x8ef543c6583f02fd",
  "difficulty": 2423527880652,
  "gasLimit": {
    "_hex": "0x2fefd8"
  },
  "gasUsed": {
    "_hex": "0x5208"
  },
  "miner": "0xf8E0CA3Ed80bd541b94BEdCf259e8CF2141A9523",
  "extraData": "0x476574682f76312e302e312f77696e646f77732f676f312e342e32",
  "transactions": [
    {
      "hash": "0x8d854caa04c0688c1574e51ec2b24614f8e34c2b74ccf88110b4f441ef6ccd42",
      "blockHash": "0xcd042ece776a91d3801a0bb8fff008498b36de70e94bae517ba2200d9ba2b109",
      "blockNumber": 81734,
      "transactionIndex": 0,
      "confirmations": null,
      "from": "0x120A270bbC009644e35F0bB6ab13f95b8199c4ad",
      "gasPrice": {
        "_hex": "0xde23c5ede"
      },
      "gasLimit": {
        "_hex": "0x15f90"
      },
      "to": "0xEdD03B3afA58aaE8C5732fF58e26099bc5C10659",
      "value": {
        "_hex": "0x1dd0b6c28068f78000"
      },
      "nonce": 389,
      "data": "0x",
      "r": "0x86ffd969ba6d7fd2dbc4d794ca7d154a0395601a6a34d376de0a16458befc81d",
      "s": "0x6fa7457fd1ffb6d773982b501f53681387e5cfa380e6f88d32f67178d2f10a83",
      "v": 28,
      "creates": null,
      "raw": "0xf870820185850de23c5ede83015f9094edd03b3afa58aae8c5732ff58e26099bc5c10659891dd0b6c28068f78000801ca086ffd969ba6d7fd2dbc4d794ca7d154a0395601a6a34d376de0a16458befc81da06fa7457fd1ffb6d773982b501f53681387e5cfa380e6f88d32f67178d2f10a83",
      "networkId": 0,
      "chainId": 0
    }
  ]
}