{
  "hash": "0xf1bb84e2b757dd8cf5c861f3fa78169b3130c2c999724504df2832dd1c481b76",
  "parentHash": "0x1891af67084bdd8789594341268fdd9112a7a0e14a8d319d6328af88a186c217",
  "number": 121488,
  "timestamp": 1440177824,
  "nonce": "0x0f56b041a87bbc13",
  "difficulty": 4445149080241,
  "gasLimit": {
    "_hex": "0x2fefd8"
  },
  "gasUsed": {
    "_hex": "0x5208"
  },
  "miner": "0xe6A7a1d47ff21B6321162AEA7C6CB457D5476Bca",
  "extraData": "0xd783010002844765746887676f312e342e32856c696e7578",
  "transactions": [
    {
      "hash": "0xa257a9656901e806705071c2782c7047df97b4af0bd0f42109311b381443f789",
      "blockHash": "0xf1bb84e2b757dd8cf5c861f3fa78169b3130c2c999724504df2832dd1c481b76",
      "blockNumber": 121488,
      "transactionIndex": 0,
      "confirmations": null,
      "from": "0x007f7f58D3eb5b7510A301eCC749FC1fCDDBE14D",
      "gasPrice": {
        "_hex": "0xba43b7400"
      },
      "gasLimit": {
        "_hex": "0x15f90"
      },
      "to": "0xb1abce2918E21ddb93AA452731a12672A3d9F75a",
      "value": {
        "_hex": "0x4563918244f40000"
      },
      "nonce": 375,
      "data": "0x",
      "r": "0x1ec02a317f69cc4953a9f088544d78798a2c0256feceb0502f0719773d0e3390",
      "s": "0x150d177d549d13bd39f1b39b285afe32d2cfef22428e592b871d5f72f53d8006",
      "v": 27,
      "creates": null,
      "raw": "0xf86f820177850ba43b740083015f9094b1abce2918e21ddb93aa452731a12672a3d9f75a884563918244f40000801ba01ec02a317f69cc4953a9f088544d78798a2c0256feceb0502f0719773d0e3390a0150d177d549d13bd39f1b39b285afe32d2cfef22428e592b871d5f72f53d8006",
      "networkId": 0,
      "chainId": 0
    }
  ]
}