{
  "hash": "0xd542a08ba591149593f72f95bc4685a279f575f0af4c06fcf8812575f8ed3a08",
  "parentHash": "0x558d8e02315b4db4a7c141b7aedabf4a376863ce2b6fcf7f94f9f93fb7736951",
  "number": 118395,
  "timestamp": 1440125387,
  "nonce": "0x8aabd29e3e9d2d96",
  "difficulty": 4291076301334,
  "gasLimit": {
    "_hex": "0x2fefd8"
  },
  "gasUsed": {
    "_hex": "0x546c"
  },
  "miner": "0x77EC9ad4A7E9418774C29415CAaF4Ee0da96eF64",
  "extraData": "0x",
  "transactions": [
    {
      "hash": "0x587f292ccb8eb4f12d0a6832a5d1d964df70002515a849bba2cd9a5a7fc558f8",
      "blockHash": "0xd542a08ba591149593f72f95bc4685a279f575f0af4c06fcf8812575f8ed3a08",
      "blockNumber": 118395,
      "transactionIndex": 0,
      "confirmations": null,
      "from": "0xF814799F6DDf4DCB29c7ee870E75F9CC2d35326D",
      "gasPrice": {
        "_hex": "0x110c8f7d8de"
      },
      "gasLimit": {
        "_hex": "0xc350"
      },
      "to": "0x2910543Af39abA0Cd09dBb2D50200b3E800A63D2",
      "value": {
        "_hex": "0x8ac7230489e80000"
      },
      "nonce": 0,
      "data": "0x454e464b5746594b30",
      "r": "0x02eee1ceddda0238a872751b57b15f01674e9b6562385cd924cfd50897e241f5",
      "s": "0x8149328a2bf1a5170aec587a8c1c8fd4ab6fcfb20bef28fcca771681e99c8ffc",
      "v": 28,
      "creates": null,
      "raw": "0xf87680860110c8f7d8de82c350942910543af39aba0cd09dbb2d50200b3e800a63d2888ac7230489e8000089454e464b5746594b301ca002eee1ceddda0238a872751b57b15f01674e9b6562385cd924cfd50897e241f5a08149328a2bf1a5170aec587a8c1c8fd4ab6fcfb20bef28fcca771681e99c8ffc",
      "networkId": 0,
      "chainId": 0
    }
  ]
}