{
  "hash": "0xf58cdb844df87ddcc03e8dc3cfb8adbf520eaa86fbb81982d21ebd28cba16521",
  "parentHash": "0x6bbe2ffcdd36b1b42cec6e27a725b5577b44116e8f05cfd0c95e18ebd6a9d534",
  "number": 53373,
  "timestamp": 1439036553,
  "nonce": "0xd5ec1ffe7efad314",
  "difficulty": 1592436603761,
  "gasLimit": {
    "_hex": "0x261597"
  },
  "gasUsed": {
    "_hex": "0x5208"
  },
  "miner": "0x123843545FB525C8E134c9A5F15ADA6865cc3848",
  "extraData": "0x476574682f76312e302e312f77696e646f77732f676f312e342e32",
  "transactions": [
    {
      "hash": "0x216bd0ad5f0fae3b355c13860f237a1332d2c39e33b58f998a10101aab58694a",
      "blockHash": "0xf58cdb844df87ddcc03e8dc3cfb8adbf520eaa86fbb81982d21ebd28cba16521",
      "blockNumber": 53373,
      "transactionIndex": 0,
      "confirmations": null,
      "from": "0x32Be343B94f860124dC4fEe278FDCBD38C102D88",
      "gasPrice": {
        "_hex": "0xd922a3192"
      },
      "gasLimit": {
        "_hex": "0x5208"
      },
      "to": "0xad7210d76107F888745616FFF7979623b84F928c",
      "value": {
        "_hex": "0x2386f26fc10000"
      },
      "nonce": 31,
      "data": "0x",
      "r": "0x7234cf8faf4f3902ebb5172786c19d71f5680075dedfa0bbdcb8a636c13286b5",
      "s": "0x5db7c81fb24f61bf6822c58e3196e10a364274b3ef9afa1e868d7da87453a4c1",
      "v": 28,
      "creates": null,
      "raw": "0xf86b1f850d922a319282520894ad7210d76107f888745616fff7979623b84f928c872386f26fc10000801ca07234cf8faf4f3902ebb5172786c19d71f5680075dedfa0bbdcb8a636c13286b5a05db7c81fb24f61bf6822c58e3196e10a364274b3ef9afa1e868d7da87453a4c1",
      "networkId": 0,
      "chainId": 0
    }
  ]
}