{
  "hash": "0xa19ef42856956c8cc7279c7fa875089ef35b1653975c848f334ee93d0b034883",
  "parentHash": "0x95cf4e82d0bd4b4cfdd56b3b8687e9867afb42ed7ab482798913fade2b79a73b",
  "number": 64517,
  "timestamp": 1439222142,
  "nonce": "0xcafc4d8f7ed0adcf",
  "difficulty": 1877521334888,
  "gasLimit": {
    "_hex": "0x2fefd8"
  },
  "gasUsed": {
    "_hex": "0xbe6c"
  },
  "miner": "0xBb12b5a9B85D4AB8CDE6056E9c1b2a4a337D2261",
  "extraData": "0x476574682f76312e302e312d36393865393864392f6c696e75782f676f312e34",
  "transactions": [
    {
      "hash": "0x778cfa24c22611d6083e93300806e83b7c867917b62d736b29e3beb90d8c7604",
      "blockHash": "0xa19ef42856956c8cc7279c7fa875089ef35b1653975c848f334ee93d0b034883",
      "blockNumber": 64517,
      "transactionIndex": 0,
      "confirmations": null,
      "from": "0x9cc2CcC433088FB0194b59136F7717db8F8dB065",
      "gasPrice": {
        "_hex": "0xba43b7400"
      },
      "gasLimit": {
        "_hex": "0x15f90"
      },
      "to": "0x793AE8C1b1a160BFc07BFB0d04F85eab1A71F4f2",
      "value": {
        "_hex": "0x0"
      },
      "nonce": 0,
      "data": "0x3ba15036",
      "r": "0x560f094b82b4fd5179c397332399f7de1626f8c744bb6d5132fbd16acff5c3b1",
      "s": "0x2612b8c438707884ab3aba867c01e1eab61e47503236bdd426cbc8ed0dfb161f",
      "v": 27,
      "creates": null,
      "raw": "0xf86980850ba43b740083015f9094793ae8c1b1a160bfc07bfb0d04f85eab1a71f4f280843ba150361ba0560f094b82b4fd5179c397332399f7de1626f8c744bb6d5132fbd16acff5c3b1a02612b8c438707884ab3aba867c01e1eab61e47503236bdd426cbc8ed0dfb161f",
      "networkId": 0,
      "chainId": 0
    }
  ]
}