{
  "hash": "0xbaf2800db79dfedcb16da5b55ca20fcbf3424abefd45f1cb1f205aa4ebc50128",
  "parentHash": "0xc11b74b961afcf9a3755f75c69508bc85a5e770b27c885fac38bd4543f0b4e02",
  "number": 121240,
  "timestamp": 1440173731,
  "nonce": "0xccfcbd0366741947",
  "difficulty": 4423627930996,
  "gasLimit": {
    "_hex": "0x2fefd8"
  },
  "gasUsed": {
    "_hex": "0x5208"
  },
  "miner": "0x580992B51e3925e23280EfB93d3047C82f17E038",
  "extraData": "0x",
  "transactions": [
    {
      "hash": "0xd7b62596938d51a8ba422c6db50049f36f09a0326713ef8aa7438c79aeb84cc3",
      "blockHash": "0xbaf2800db79dfedcb16da5b55ca20fcbf3424abefd45f1cb1f205aa4ebc50128",
      "blockNumber": 121240,
      "transactionIndex": 0,
      "confirmations": null,
      "from": "0xf3D7d4E1f943a6b10222B21E31da93203b8868cB",
      "gasPrice": {
        "_hex": "0xba43b7400"
      },
      "gasLimit": {
        "_hex": "0x5208"
      },
      "to": "0x32Be343B94f860124dC4fEe278FDCBD38C102D88",
      "value": {
        "_hex": "0xddcfbbb7a606000"
      },
      "nonce": 0,
      "data": "0x",
      "r": "0xa28651a90e05816c949ac86ae92f97092db4658340d46802480075512f52e380",
      "s": "0x3c38fb08d04901e7f75ffd6cceca5aadd2682a66355f9d7a7cf00a8d3e46439d",
      "v": 27,
      "creates": null,
      "raw": "0xf86c80850ba43b74008252089432be343b94f860124dc4fee278fdcbd38c102d88880ddcfbbb7a606000801ba0a28651a90e05816c949ac86ae92f97092db4658340d46802480075512f52e380a03c38fb08d04901e7f75ffd6cceca5aadd2682a66355f9d7a7cf00a8d3e46439d",
      "networkId": 0,
      "chainId": 0
    }
  ]
}