{
  "hash": "0xebc586deea307dbfd7604f46817050b57848ef3ec0715e0ffd364bd1a89dd04f",
  "parentHash": "0x11db20972e3984107057e1d26c3f9fc42142e1c03b9545e113d978779e10a1ab",
  "number": 48670,
  "timestamp": 1438960734,
  "nonce": "0xbf3da08c369ff0f9",
  "difficulty": 1474308719070,
  "gasLimit": {
    "_hex": "0x1baa2"
  },
  "gasUsed": {
    "_hex": "0xa8d8"
  },
  "miner": "0xf65EaC42da2c53D2a0e9bb399DDeDA9b68c7885c",
  "extraData": "0x476574682f76312e302e312f6c696e75782f676f312e342e32",
  "transactions": [
    {
      "hash": "0x895e746b469d6b30b14be5cd0c9f48bde899e401472a32e4f9502d5032de464d",
      "blockHash": "0xebc586deea307dbfd7604f46817050b57848ef3ec0715e0ffd364bd1a89dd04f",
      "blockNumber": 48670,
      "transactionIndex": 0,
      "confirmations": null,
      "from": "0x62fB8bD1F0E66B90533e071e6cBE6111FEF0BC63",
      "gasPrice": {
        "_hex": "0x110c8f7d8de"
      },
      "gasLimit": {
        "_hex": "0xc350"
      },
      "to": "0x2910543Af39abA0Cd09dBb2D50200b3E800A63D2",
      "value": {
        "_hex": "0x19bff2ff57968c00000"
      },
      "nonce": 0,
      "data": "0x454e314d4b5a423952",
      "r": "0xe9ba651ebf9deaf6f5fcb98cf31c7ca38736de3ac5f762d9d6bd5ed53727a6bc",
      "s": "0x73a47f61113e71681f7f1217dd311494c0ec9c9d30f8ae4d76465be5b1e136f4",
      "v": 27,
      "creates": null,
      "raw": "0xf87880860110c8f7d8de82c350942910543af39aba0cd09dbb2d50200b3e800a63d28a019bff2ff57968c0000089454e314d4b5a4239521ba0e9ba651ebf9deaf6f5fcb98cf31c7ca38736de3ac5f762d9d6bd5ed53727a6bca073a47f61113e71681f7f1217dd311494c0ec9c9d30f8ae4d76465be5b1e136f4",
      "networkId": 0,
      "chainId": 0
    },
    {
      "hash": "0xe16cf3702c42e0d172a29f9cc4011df0df09cda6ae03fa67f4d940df73b8f5b9",
      "blockHash": "0xebc586deea307dbfd7604f46817050b57848ef3ec0715e0ffd364bd1a89dd04f",
      "blockNumber": 48670,
      "transactionIndex": 1,
      "confirmations": null,
      "from": "0x493A67fe23deCc63B10dDA75f3287695a81bD5AB",
      "gasPrice": {
        "_hex": "0x110c8f7d8de"
      },
      "gasLimit": {
        "_hex": "0xc350"
      },
      "to": "0x2910543Af39abA0Cd09dBb2D50200b3E800A63D2",
      "value": {
        "_hex": "0x15af1d78b58c400000"
      },
      "nonce": 0,
      "data": "0x454e443646584e3238",
      "r": "0x91df5688020b9e15fdb80643171eb77a236866c62ff9b253627f99741aeeded5",
      "s": "0xaf8f5244abebff8b45f92206e3c3ce0453a574edf4f1617bcdc89a22d2700586",
      "v": 28,
      "creates": null,
      "raw": "0xf87780860110c8f7d8de82c350942910543af39aba0cd09dbb2d50200b3e800a63d28915af1d78b58c40000089454e443646584e32381ca091df5688020b9e15fdb80643171eb77a236866c62ff9b253627f99741aeeded5a0af8f5244abebff8b45f92206e3c3ce0453a574edf4f1617bcdc89a22d2700586",
      "networkId": 0,
      "chainId": 0
    }
  ]
}