{
  "hash": "0xf12d6e5cd79b93feddb9d4772afedebff70f3b716af22cf07b89887be6da10fc",
  "parentHash": "0xac66208a7b0eceeb8ed418167221984e67a18e47dca2c2733087a76f40d82bd3",
  "number": 110477,
  "timestamp": 1439974433,
  "nonce": "0x0d5325dc2fe700eb",
  "difficulty": 4375567281742,
  "gasLimit": {
    "_hex": "0x2fefd8"
  },
  "gasUsed": {
    "_hex": "0xf618"
  },
  "miner": "0xa50ec0D39fa913E62f1Bae7074E6F36caA71855b",
  "extraData": "0xd783010001844765746887676f312e342e32856c696e7578",
  "transactions": [
    {
      "hash": "0x4fb68b63b151b270b3d340e27e0d8b7a0f58e630bc2a9a8d622f566999be5d39",
      "blockHash": "0xf12d6e5cd79b93feddb9d4772afedebff70f3b716af22cf07b89887be6da10fc",
      "blockNumber": 110477,
      "transactionIndex": 0,
      "confirmations": null,
      "from": "0x2910543Af39abA0Cd09dBb2D50200b3E800A63D2",
      "gasPrice": {
        "_hex": "0xd11ddf2f5"
      },
      "gasLimit": {
        "_hex": "0x5208"
      },
      "to": "0x2f86ba8019945f39edE131D38d4d8780884DA553",
      "value": {
        "_hex": "0xafe95a1fc796b38000"
      },
      "nonce": 1086,
      "data": "0x",
      "r": "0xf7ec6470861228f9fd3549945aecfa0eae98fea088601cc1c6ba4d625ee2e237",
      "s": "0x3b0919c60842375a6cc365c1d039fe31881dfc60718332b3fb5a1ac7e5d9ef15",
      "v": 28,
      "creates": null,
      "raw": "0xf86f82043e850d11ddf2f5825208942f86ba8019945f39ede131d38d4d8780884da55389afe95a1fc796b38000801ca0f7ec6470861228f9fd3549945aecfa0eae98fea088601cc1c6ba4d625ee2e237a03b0919c60842375a6cc365c1d039fe31881dfc60718332b3fb5a1ac7e5d9ef15",
      "networkId": 0,
      "chainId": 0
    },
    {
      "hash": "0xafdbea1720af8577369c22ffd70c04d1c847c0b7cf9758a12eb4a0b3d15f6830",
      "blockHash": "0xf12d6e5cd79b93feddb9d4772afedebff70f3b716af22cf07b89887be6da10fc",
      "blockNumber": 110477,
      "transactionIndex": 1,
      "confirmations": null,
      "from": "0xc517a1ceF7630dc7FeBd59e9f7fb80F56EaCB21E",
      "gasPrice": {
        "_hex": "0xcfbd5c01d"
      },
      "gasLimit": {
        "_hex": "0x5208"
      },
      "to": "0x32Be343B94f860124dC4fEe278FDCBD38C102D88",
      "value": {
        "_hex": "0xc6fe93ed113d5000"
      },
      "nonce": 0,
      "data": "0x",
      "r": "0xc40b3a5b417c20ba5319f8d5fdeff6955b93dbd7f4523ab15b4a848062c5ea48",
      "s": "0x7174a43be12a995acd401523c71fa23e25cc701f0ca297180424b352c606f66a",
      "v": 27,
      "creates": null,
      "raw": "0xf86c80850cfbd5c01d8252089432be343b94f860124dc4fee278fdcbd38c102d8888c6fe93ed113d5000801ba0c40b3a5b417c20ba5319f8d5fdeff6955b93dbd7f4523ab15b4a848062c5ea48a07174a43be12a995acd401523c71fa23e25cc701f0ca297180424b352c606f66a",
      "networkId": 0,
      "chainId": 0
    },
    {
      "hash": "0x0bdd7bd2d9c311b3c2529f83946daee93c6124fea18a828c5c79b5a24a48f774",
      "blockHash": "0xf12d6e5cd79b93feddb9d4772afedebff70f3b716af22cf07b89887be6da10fc",
      "blockNumber": 110477,
      "transactionIndex": 2,
      "confirmations": null,
      "from": "0xc08E05f51581aDA37f9DD2edbF7a68fE7E199D55",
      "gasPrice": {
        "_hex": "0xcfbd5c01d"
      },
      "gasLimit": {
        "_hex": "0x5208"
      },
      "to": "0x32Be343B94f860124dC4fEe278FDCBD38C102D88",
      "value": {
        "_hex": "0x7de0785842f53400"
      },
      "nonce": 4,
      "data": "0x",
      "r": "0xe5408b65ce9f441c898f24f3e686b55f53f92b542901db7683fbf3e77ed6c6bd",
      "s": "0x58d4a91f60e30438480ab0d8c5eaa0bdd01cd1fd86d73723c32baad87a7d4f79",
      "v": 28,
      "creates": null,
      "raw": "0xf86c04850cfbd5c01d8252089432be343b94f860124dc4fee278fdcbd38c102d88887de0785842f53400801ca0e5408b65ce9f441c898f24f3e686b55f53f92b542901db7683fbf3e77ed6c6bda058d4a91f60e30438480ab0d8c5eaa0bdd01cd1fd86d73723c32baad87a7d4f79",
      "networkId": 0,
      "chainId": 0
    }
  ]
}