{
  "hash": "0xea4e18b252cc0865653be8e8234b5edd28fb2a66aaa7f22b0735c04c70b15d3e",
  "parentHash": "0xb3e10609ee0d922d2694c87792a54eba2dfd2fe7de0675fb21698937d28131b3",
  "number": 93964,
  "timestamp": 1439700428,
  "nonce": "0x6d80c2ecb378f409",
  "difficulty": 3480053368646,
  "gasLimit": {
    "_hex": "0x2fefd8"
  },
  "gasUsed": {
    "_hex": "0x5208"
  },
  "miner": "0xe6A7a1d47ff21B6321162AEA7C6CB457D5476Bca",
  "extraData": "0x476574682f76312e302e312d38326566323666362f6c696e75782f676f312e34",
  "transactions": [
    {
      "hash": "0x6d613d85c9cc4921f2f85af61315d2bd19ff6213ffd2df3298d92c3dc2a1e4d4",
      "blockHash": "0xea4e18b252cc0865653be8e8234b5edd28fb2a66aaa7f22b0735c04c70b15d3e",
      "blockNumber": 93964,
      "transactionIndex": 0,
      "confirmations": null,
      "from": "0xC1CdC601f89c0428b31302D187e0dc08ad7D1C57",
      "gasPrice": {
        "_hex": "0xd9b3518ea"
      },
      "gasLimit": {
        "_hex": "0x5208"
      },
      "to": "0xCD64a32F1a24bf93928ac151145E0FC0D41b9C5e",
      "value": {
        "_hex": "0x25f273933db5700000"
      },
      "nonce": 7,
      "data": "0x",
      "r": "0x369048ea019018a3ec48d9a25e26f77998fc5c361bf90f0e7a08591dad257bfe",
      "s": "0x512063770e3cee6046e905a98b5723a6d723918fd8ffefd5d4d705ecfe304594",
      "v": 27,
      "creates": null,
      "raw": "0xf86d07850d9b3518ea82520894cd64a32f1a24bf93928ac151145e0fc0d41b9c5e8925f273933db5700000801ba0369048ea019018a3ec48d9a25e26f77998fc5c361bf90f0e7a08591dad257bfea0512063770e3cee6046e905a98b5723a6d723918fd8ffefd5d4d705ecfe304594",
      "networkId": 0,
      "chainId": 0
    }
  ]
}