{
  "hash": "0x303d8a4c2425663f0acf526342231fbb8da7c86a3d237b8e6fe4c3baf4294f93",
  "parentHash": "0xa0cc172a9a4d473740f193892462b10f14f45283db2f2fca80e9a1b81aef9af7",
  "number": 68900,
  "timestamp": 1439295365,
  "nonce": "0xefce6e04ae22e203",
  "difficulty": 2026054156012,
  "gasLimit": {
    "_hex": "0x2fefd5"
  },
  "gasUsed": {
    "_hex": "0x12988c"
  },
  "miner": "0xbb7B8287f3F0a933474a79eAe42CBCa977791171",
  "extraData": "0x476574682f4c5649562f76312e302e312f6c696e75782f676f312e342e32",
  "transactions": [
    {
      "hash": "0x81763416d653a05702006630d31b79f8416f3cf871adec8687eac30bbac7a27b",
      "blockHash": "0x303d8a4c2425663f0acf526342231fbb8da7c86a3d237b8e6fe4c3baf4294f93",
      "blockNumber": 68900,
      "transactionIndex": 0,
      "confirmations": null,
      "from": "0x1CF02cCA26c81016Aa955EC9eF1Bc892A0f10D3B",
      "gasPrice": {
        "_hex": "0xba43b7400"
      },
      "gasLimit": {
        "_hex": "0x15f90"
      },
      "to": "0x793AE8C1b1a160BFc07BFB0d04F85eab1A71F4f2",
      "value": {
        "_hex": "0x0"
      },
      "nonce": 0,
      "data": "0x3ba15036",
      "r": "0xa4760ad80dcb0ca7983ae1f269240497660609a26c417c2476ce6119aaba196e",
      "s": "0x7832ffbf4f900332be3cfd4e2de19a02e0dae079e863acdcae1ea6703672eca2",
      "v": 28,
      "creates": null,
      "raw": "0xf86980850ba43b740083015f9094793ae8c1b1a160bfc07bfb0d04f85eab1a71f4f280843ba150361ca0a4760ad80dcb0ca7983ae1f269240497660609a26c417c2476ce6119aaba196ea07832ffbf4f900332be3cfd4e2de19a02e0dae079e863acdcae1ea6703672eca2",
      "networkId": 0,
      "chainId": 0
    },
    {
      "hash": "0x34f14392d04d337473e797344fc67bdafc60d56828ec0de9a7506ad0c0f885c2",
      "blockHash": "0x303d8a4c2425663f0acf526342231fbb8da7c86a3d237b8e6fe4c3baf4294f93",
      "blockNumber": 68900,
      "transactionIndex": 1,
      "confirmations": null,
      "from": "0x73646e5BDa28F15C2a078cbfc4daA2127D7231B6",
      "gasPrice": {
        "_hex": "0xba43b7400"
      },
      "gasLimit": {
        "_hex": "0x15f90"
      },
      "to": "0x793AE8C1b1a160BFc07BFB0d04F85eab1A71F4f2",
      "value": {
        "_hex": "0x0"
      },
      "nonce": 0,
      "data": "0x3ba15036",
      "r": "0x05a2e073b7098afe80f332601809210b435dd6569d68af1fbe56aefa8df4005f",
      "s": "0x0e07563568364c3262c98282d68ee15449d1d8d13a87324b0f75a5b2aaf51d54",
      "v": 27,
      "creates": null,
      "raw": "0xf86980850ba43b740083015f9094793ae8c1b1a160bfc07bfb0d04f85eab1a71f4f280843ba150361ba005a2e073b7098afe80f332601809210b435dd6569d68af1fbe56aefa8df4005fa00e07563568364c3262c98282d68ee15449d1d8d13a87324b0f75a5b2aaf51d54",
      "networkId": 0,
      "chainId": 0
    },
    {
      "hash": "0x1e13abac3c638e8e348581eec44069cc8503a6293c5c3ca1058422b64d946873",
      "blockHash": "0x303d8a4c2425663f0acf526342231fbb8da7c86a3d237b8e6fe4c3baf4294f93",
      "blockNumber": 68900,
      "transactionIndex": 2,
      "confirmations": null,
      "from": "0x3f16fC8ED56737990219afc0878616A3E7840914",
      "gasPrice": {
        "_hex": "0xba43b7400"
      },
      "gasLimit": {
        "_hex": "0x15f90"
      },
      "to": "0x793AE8C1b1a160BFc07BFB0d04F85eab1A71F4f2",
      "value": {
        "_hex": "0x0"
      },
      "nonce": 0,
      "data": "0x3ba15036",
      "r": "0xbc508acd998858f2845fc8e5c3e5dcd307ea693db0ef55b14579baca1729d91f",
      "s": "0x098aa333480c84e8483dce13338ebb77613e2a7a1e16b6fc39d044bef3d356f3",
      "v": 28,
      "creates": null,
      "raw": "0xf86980850ba43b740083015f9094793ae8c1b1a160bfc07bfb0d04f85eab1a71f4f280843ba150361ca0bc508acd998858f2845fc8e5c3e5dcd307ea693db0ef55b14579baca1729d91fa0098aa333480c84e8483dce13338ebb77613e2a7a1e16b6fc39d044bef3d356f3",
      "networkId": 0,
      "chainId": 0
    },
    {
      "hash": "0x5433c535ea9252df98763c023ba8b5dd0a8a6436932d9bf567024512b33a2116",
      "blockHash": "0x303d8a4c2425663f0acf526342231fbb8da7c86a3d237b8e6fe4c3baf4294f93",
      "blockNumber": 68900,
      "transactionIndex": 3,
      "confirmations": null,
      "from": "0x7C5191bc059f505e703562A0570B2b9dae481C75",
      "gasPrice": {
        "_hex": "0xba43b7400"
      },
      "gasLimit": {
        "_hex": "0x15f90"
      },
      "to": "0x793AE8C1b1a160BFc07BFB0d04F85eab1A71F4f2",
      "value": {
        "_hex": "0x0"
      },
      "nonce": 0,
      "data": "0x3ba15036",
      "r": "0x311a765eef48e96a4237df2a59e3d65d365da9538d5107fd0416454a1b63aad4",
      "s": "0x18a02e0d6e7acf3541117ca81abde2357b73742084f85f56fd68157147ccfafd",
      "v": 28,
      "creates": null,
      "raw": "0xf86980850ba43b740083015f9094793ae8c1b1a160bfc07bfb0d04f85eab1a71f4f280843ba150361ca0311a765eef48e96a4237df2a59e3d65d365da9538d5107fd0416454a1b63aad4a018a02e0d6e7acf3541117ca81abde2357b73742084f85f56fd68157147ccfafd",
      "networkId": 0,
      "chainId": 0
    },
    {
      "hash": "0x3a16ea060d2f107125046eeec90ebfcb48ed7cc1ee14ec0638f9fd41ba45a15e",
      "blockHash": "0x303d8a4c2425663f0acf526342231fbb8da7c86a3d237b8e6fe4c3baf4294f93",
      "blockNumber": 68900,
      "transactionIndex": 4,
      "confirmations": null,
      "from": "0x78a89F9180293922642E6D2dC8E9535A1ec6177c",
      "gasPrice": {
        "_hex": "0xba43b7400"
      },
      "gasLimit": {
        "_hex": "0x15f90"
      },
      "to": "0x793AE8C1b1a160BFc07BFB0d04F85eab1A71F4f2",
      "value": {
        "_hex": "0x0"
      },
      "nonce": 0,
      "data": "0x3ba15036",
      "r": "0xb0372ef91f9580a3d7cddbdcaf3a78c498ea6abf99d4481b291ad5d186961284",
      "s": "0x4a4e64ab6ca87e070263d992b0f7b2ac0b1649f7ba54773d0409f21beb8fc250",
      "v": 28,
      "creates": null,
      "raw": "0xf86980850ba43b740083015f9094793ae8c1b1a160bfc07bfb0d04f85eab1a71f4f280843ba150361ca0b0372ef91f9580a3d7cddbdcaf3a78c498ea6abf99d4481b291ad5d186961284a04a4e64ab6ca87e070263d992b0f7b2ac0b1649f7ba54773d0409f21beb8fc250",
      "networkId": 0,
      "chainId": 0
    },
    {
      "hash": "0xead5253a26140c45fa4d42f703689f653180026d304af48b607adc33a91b91cc",
      "blockHash": "0x303d8a4c2425663f0acf526342231fbb8da7c86a3d237b8e6fe4c3baf4294f93",
      "blockNumber": 68900,
      "transactionIndex": 5,
      "confirmations": null,
      "from": "0x51527CECDC752C9110795fAA1f9A2312B65c0327",
      "gasPrice": {
        "_hex": "0xba43b7400"
      },
      "gasLimit": {
        "_hex": "0x15f90"
      },
      "to": "0x793AE8C1b1a160BFc07BFB0d04F85eab1A71F4f2",
      "value": {
        "_hex": "0x0"
      },
      "nonce": 0,
      "data": "0x3ba15036",
      "r": "0x6872c9e5306947f871675927f8b526830b50d3c5940281eeffad952f28118861",
      "s": "0x59e1c53badc6c78fa0b198e83fbd3a21747bd77243180fb0f256263ac9f0d21e",
      "v": 27,
      "creates": null,
      "raw": "0xf86980850ba43b740083015f9094793ae8c1b1a160bfc07bfb0d04f85eab1a71f4f280843ba150361ba06872c9e5306947f871675927f8b526830b50d3c5940281eeffad952f28118861a059e1c53badc6c78fa0b198e83fbd3a21747bd77243180fb0f256263ac9f0d21e",
      "networkId": 0,
      "chainId": 0
    },
    {
      "hash": "0x8be5be13560c343b0fe39912df97e4225e65b9301e14896142f73675f7e1cbb5",
      "blockHash": "0x303d8a4c2425663f0acf526342231fbb8da7c86a3d237b8e6fe4c3baf4294f93",
      "blockNumber": 68900,
      "transactionIndex": 6,
      "confirmations": null,
      "from": "0xd1f9eF1352D78a9CCeAC1341c407072D38e92ff2",
      "gasPrice": {
        "_hex": "0xba43b7400"
      },
      "gasLimit": {
        "_hex": "0x15f90"
      },
      "to": "0x793AE8C1b1a160BFc07BFB0d04F85eab1A71F4f2",
      "value": {
        "_hex": "0x0"
      },
      "nonce": 0,
      "data": "0x3ba15036",
      "r": "0xd5b4f38aa8829d8d9afc4cdae86b3091af2a5f3cd02b430f27951bade7260d91",
      "s": "0x33b6b773e54436d80c75bfa9becf0935a26130a0cfb65fc2cdecbc32cab62eac",
      "v": 27,
      "creates": null,
      "raw": "0xf86980850ba43b740083015f9094793ae8c1b1a160bfc07bfb0d04f85eab1a71f4f280843ba150361ba0d5b4f38aa8829d8d9afc4cdae86b3091af2a5f3cd02b430f27951bade7260d91a033b6b773e54436d80c75bfa9becf0935a26130a0cfb65fc2cdecbc32cab62eac",
      "networkId": 0,
      "chainId": 0
    },
    {
      "hash": "0xce5dd59ced9b650cee0ea95b460e965087907b916f19e179beb927f452b61d3b",
      "blockHash": "0x303d8a4c2425663f0acf526342231fbb8da7c86a3d237b8e6fe4c3baf4294f93",
      "blockNumber": 68900,
      "transactionIndex": 7,
      "confirmations": null,
      "from": "0x4cb669CB939b72117F3a5DD31051087b1AAC26fe",
      "gasPrice": {
        "_hex": "0xba43b7400"
      },
      "gasLimit": {
        "_hex": "0x15f90"
      },
      "to": "0x793AE8C1b1a160BFc07BFB0d04F85eab1A71F4f2",
      "value": {
        "_hex": "0x0"
      },
      "nonce": 0,
      "data": "0x3ba15036",
      "r": "0x672c4dda35967363f7d806d2661629b55580c3796d512a1f01d01c984565aa4f",
      "s": "0x2a8eaafac7c5f9c56a1f5698867c7acbe257f3471164bafa6a2b365d1e6af970",
      "v": 28,
      "creates": null,
      "raw": "0xf86980850ba43b740083015f9094793ae8c1b1a160bfc07bfb0d04f85eab1a71f4f280843ba150361ca0672c4dda35967363f7d806d2661629b55580c3796d512a1f01d01c984565aa4fa02a8eaafac7c5f9c56a1f5698867c7acbe257f3471164bafa6a2b365d1e6af970",
      "networkId": 0,
      "chainId": 0
    },
    {
      "hash": "0xb3f0e50a555bbaa80379eed33824c23c282a6522a99bf6da335d90d53258429b",
      "blockHash": "0x303d8a4c2425663f0acf526342231fbb8da7c86a3d237b8e6fe4c3baf4294f93",
      "blockNumber": 68900,
      "transactionIndex": 8,
      "confirmations": null,
      "from": "0x2b706Eb3B96a5E41d38B98e2eb1489875245E6B5",
      "gasPrice": {
        "_hex": "0xba43b7400"
      },
      "gasLimit": {
        "_hex": "0x15f90"
      },
      "to": "0x793AE8C1b1a160BFc07BFB0d04F85eab1A71F4f2",
      "value": {
        "_hex": "0x0"
      },
      "nonce": 0,
      "data": "0x3ba15036",
      "r": "0x1183c966fd1f2da29e5d2d514ef8eef42d03f1bf7012e95bd4086473f0cefe6b",
      "s": "0x30cdc015ed95b13032c8950c7ddc08acc133b516747d91426c764632b480992e",
      "v": 28,
      "creates": null,
      "raw": "0xf86980850ba43b740083015f9094793ae8c1b1a160bfc07bfb0d04f85eab1a71f4f280843ba150361ca01183c966fd1f2da29e5d2d514ef8eef42d03f1bf7012e95bd4086473f0cefe6ba030cdc015ed95b13032c8950c7ddc08acc133b516747d91426c764632b480992e",
      "networkId": 0,
      "chainId": 0
    },
    {
      "hash": "0x384a07b00f436b25cfe90e8a01f14a74489361cedb3f7c2760ab8dfe3b6fc2ae",
      "blockHash": "0x303d8a4c2425663f0acf526342231fbb8da7c86a3d237b8e6fe4c3baf4294f93",
      "blockNumber": 68900,
      "transactionIndex": 9,
      "confirmations": null,
      "from": "0x0F062D0a923C527212C123ec4dc7C989B5a891C8",
      "gasPrice": {
        "_hex": "0xba43b7400"
      },
      "gasLimit": {
        "_hex": "0x15f90"
      },
      "to": "0x793AE8C1b1a160BFc07BFB0d04F85eab1A71F4f2",
      "value": {
        "_hex": "0x0"
      },
      "nonce": 0,
      "data": "0x3ba15036",
      "r": "0x961cfc5383e92ca2da314f8baecf167e378c802e0f01487c7be96465c6cc5352",
      "s": "0x4750eea4890498ce274920f6d40960e9d936311660c152aa391b93e69f40ef81",
      "v": 27,
      "creates": null,
      "raw": "0xf86980850ba43b740083015f9094793ae8c1b1a160bfc07bfb0d04f85eab1a71f4f280843ba150361ba0961cfc5383e92ca2da314f8baecf167e378c802e0f01487c7be96465c6cc5352a04750eea4890498ce274920f6d40960e9d936311660c152aa391b93e69f40ef81",
      "networkId": 0,
      "chainId": 0
    },
    {
      "hash": "0x9f8b42970ff1ce3090a3541cf0577acf25eaa35828cedd71822463214ec6b84e",
      "blockHash": "0x303d8a4c2425663f0acf526342231fbb8da7c86a3d237b8e6fe4c3baf4294f93",
      "blockNumber": 68900,
      "transactionIndex": 10,
      "confirmations": null,
      "from": "0xE2EF95C416Df818D43B232FE2cff18cB6D9f6961",
      "gasPrice": {
        "_hex": "0xba43b7400"
      },
      "gasLimit": {
        "_hex": "0x15f90"
      },
      "to": "0x793AE8C1b1a160BFc07BFB0d04F85eab1A71F4f2",
      "value": {
        "_hex": "0x0"
      },
      "nonce": 0,
      "data": "0x3ba15036",
      "r": "0x40f2893878467ca514d9e732302229056b9ea62dd0aeed15100aaf14233547a7",
      "s": "0x0203c73c12107081e631db24db11a9f7b174af48547d7a64c681f77cb83b64e1",
      "v": 28,
      "creates": null,
      "raw": "0xf86980850ba43b740083015f9094793ae8c1b1a160bfc07bfb0d04f85eab1a71f4f280843ba150361ca040f2893878467ca514d9e732302229056b9ea62dd0aeed15100aaf14233547a7a00203c73c12107081e631db24db11a9f7b174af48547d7a64c681f77cb83b64e1",
      "networkId": 0,
      "chainId": 0
    },
    {
      "hash": "0x6bdf23d5c654bebf66e1737348d18befbe5e8d55377bddfb6759790331b5238f",
      "blockHash": "0x303d8a4c2425663f0acf526342231fbb8da7c86a3d237b8e6fe4c3baf4294f93",
      "blockNumber": 68900,
      "transactionIndex": 11,
      "confirmations": null,
      "from": "0xb5afB917ce5f5F1E02d210db20c8b13Bd6f34D5e",
      "gasPrice": {
        "_hex": "0xba43b7400"
      },
      "gasLimit": {
        "_hex": "0x15f90"
      },
      "to": "0x793AE8C1b1a160BFc07BFB0d04F85eab1A71F4f2",
      "value": {
        "_hex": "0x0"
      },
      "nonce": 0,
      "data": "0x3ba15036",
      "r": "0x56020afdc0129312eb6b38ee917aaffbe001ae6dc169e5a3b7f104cd231d69b5",
      "s": "0x492203aac39cee49f63c4506e8336fcc0e6ad5cd9547f17bef7a6dabfd0a8b5a",
      "v": 27,
      "creates": null,
      "raw": "0xf86980850ba43b740083015f9094793ae8c1b1a160bfc07bfb0d04f85eab1a71f4f280843ba150361ba056020afdc0129312eb6b38ee917aaffbe001ae6dc169e5a3b7f104cd231d69b5a0492203aac39cee49f63c4506e8336fcc0e6ad5cd9547f17bef7a6dabfd0a8b5a",
      "networkId": 0,
      "chainId": 0
    },
    {
      "hash": "0xdae5666b4fc56b81b3b5b83bb6a6ee92bae0e068db666d8faf2740c1230ffdef",
      "blockHash": "0x303d8a4c2425663f0acf526342231fbb8da7c86a3d237b8e6fe4c3baf4294f93",
      "blockNumber": 68900,
      "transactionIndex": 12,
      "confirmations": null,
      "from": "0x7ad4B0C30a6b2d6f0fb2CBa9460CE2F0130C28F1",
      "gasPrice": {
        "_hex": "0xba43b7400"
      },
      "gasLimit": {
        "_hex": "0x15f90"
      },
      "to": "0x793AE8C1b1a160BFc07BFB0d04F85eab1A71F4f2",
      "value": {
        "_hex": "0x0"
      },
      "nonce": 0,
      "data": "0x3ba15036",
      "r": "0x7ffee9ff4213f310cf1e3613dd5b662f5c4ea69a2d83a7c20199b1d1d8559316",
      "s": "0x2c74ee03904ffaabbf7bf8505eba36bd968e022b5f11b777da678457cf96a66b",
      "v": 28,
      "creates": null,
      "raw": "0xf86980850ba43b740083015f9094793ae8c1b1a160bfc07bfb0d04f85eab1a71f4f280843ba150361ca07ffee9ff4213f310cf1e3613dd5b662f5c4ea69a2d83a7c20199b1d1d8559316a02c74ee03904ffaabbf7bf8505eba36bd968e022b5f11b777da678457cf96a66b",
      "networkId": 0,
      "chainId": 0
    },
    {
      "hash": "0x6d92c20937d46f0ec6e2cc45199ef02b5c7f0a5ce5759e086ff98b219b232155",
      "blockHash": "0x303d8a4c2425663f0acf526342231fbb8da7c86a3d237b8e6fe4c3baf4294f93",
      "blockNumber": 68900,
      "transactionIndex": 13,
      "confirmations": null,
      "from": "0x151dD5788653fa4BE994c84a5987A87d8cFA0FaA",
      "gasPrice": {
        "_hex": "0xba43b7400"
      },
      "gasLimit": {
        "_hex": "0x15f90"
      },
      "to": "0x793AE8C1b1a160BFc07BFB0d04F85eab1A71F4f2",
      "value": {
        "_hex": "0x0"
      },
      "nonce": 0,
      "data": "0x3ba15036",
      "r": "0xcdb55d9c9feb96bf6bba77b123e5fa2d9c7cf6a27739f803900128bf0d1ec683",
      "s": "0x3a0c3e316885dafd9e83b6fa655e544e63eef2da66dea4278bf0ade4971d1b6a",
      "v": 27,
      "creates": null,
      "raw": "0xf86980850ba43b740083015f9094793ae8c1b1a160bfc07bfb0d04f85eab1a71f4f280843ba150361ba0cdb55d9c9feb96bf6bba77b123e5fa2d9c7cf6a27739f803900128bf0d1ec683a03a0c3e316885dafd9e83b6fa655e544e63eef2da66dea4278bf0ade4971d1b6a",
      "networkId": 0,
      "chainId": 0
    },
    {
      "hash": "0xa6a3f74ab42feb589fe40c720247b22ae4bc08faffbab9c3ec0287f8bd5a088b",
      "blockHash": "0x303d8a4c2425663f0acf526342231fbb8da7c86a3d237b8e6fe4c3baf4294f93",
      "blockNumber": 68900,
      "transactionIndex": 14,
      "confirmations": null,
      "from": "0x8f8FD7F53A123d94F4b585616B705bBD85d21626",
      "gasPrice": {
        "_hex": "0xba43b7400"
      },
      "gasLimit": {
        "_hex": "0x15f90"
      },
      "to": "0x793AE8C1b1a160BFc07BFB0d04F85eab1A71F4f2",
      "value": {
        "_hex": "0x0"
      },
      "nonce": 0,
      "data": "0x3ba15036",
      "r": "0xddc97c35ea0f60859ada3036b95f351e4e19ced00ca8ed7902ee18de6a6a5b80",
      "s": "0x7570f96659f58d8cfeb405a32671d22dc0b1c9469186bf7e56fcd5789ae4855b",
      "v": 27,
      "creates": null,
      "raw": "0xf86980850ba43b740083015f9094793ae8c1b1a160bfc07bfb0d04f85eab1a71f4f280843ba150361ba0ddc97c35ea0f60859ada3036b95f351e4e19ced00ca8ed7902ee18de6a6a5b80a07570f96659f58d8cfeb405a32671d22dc0b1c9469186bf7e56fcd5789ae4855b",
      "networkId": 0,
      "chainId": 0
    },
    {
      "hash": "0xc6d18eb814083b3ad2e015a7272db5744f6e6329e68ccfa823a5d382a161a40c",
      "blockHash": "0x303d8a4c2425663f0acf526342231fbb8da7c86a3d237b8e6fe4c3baf4294f93",
      "blockNumber": 68900,
      "transactionIndex": 15,
      "confirmations": null,
      "from": "0x3BAb1ddedC0e48214279984A1D8A0ef2146a3Bbf",
      "gasPrice": {
        "_hex": "0xba43b7400"
      },
      "gasLimit": {
        "_hex": "0x15f90"
      },
      "to": "0x793AE8C1b1a160BFc07BFB0d04F85eab1A71F4f2",
      "value": {
        "_hex": "0x0"
      },
      "nonce": 0,
      "data": "0x3ba15036",
      "r": "0x961bbbb53c6f2e25cd50bc7946c7bc458abdc681dfa4fc986a9762e988ae88bd",
      "s": "0x235493109120270d888c70adad2a41aae32cf14dbbf190aea2d5b26b5c28965d",
      "v": 27,
      "creates": null,
      "raw": "0xf86980850ba43b740083015f9094793ae8c1b1a160bfc07bfb0d04f85eab1a71f4f280843ba150361ba0961bbbb53c6f2e25cd50bc7946c7bc458abdc681dfa4fc986a9762e988ae88bda0235493109120270d888c70adad2a41aae32cf14dbbf190aea2d5b26b5c28965d",
      "networkId": 0,
      "chainId": 0
    },
    {
      "hash": "0xea1384b1748331b3118dfcf077cd72b42dc0e39f81152cab0859c583631b6e5b",
      "blockHash": "0x303d8a4c2425663f0acf526342231fbb8da7c86a3d237b8e6fe4c3baf4294f93",
      "blockNumber": 68900,
      "transactionIndex": 16,
      "confirmations": null,
      "from": "0x653755683D55D2f576108f9d7501d5b60F4b049B",
      "gasPrice": {
        "_hex": "0xba43b7400"
      },
      "gasLimit": {
        "_hex": "0x15f90"
      },
      "to": "0x793AE8C1b1a160BFc07BFB0d04F85eab1A71F4f2",
      "value": {
        "_hex": "0x0"
      },
      "nonce": 0,
      "data": "0x3ba15036",
      "r": "0x8c91722e0f18acd1ec99a38ef3718ebe407fff8c7f81310ca03608dde90de6eb",
      "s": "0x68aea273160dde0fc0836c0c646de6bdaf9de0803907e98e5d4629064387ed17",
      "v": 28,
      "creates": null,
      "raw": "0xf86980850ba43b740083015f9094793ae8c1b1a160bfc07bfb0d04f85eab1a71f4f280843ba150361ca08c91722e0f18acd1ec99a38ef3718ebe407fff8c7f81310ca03608dde90de6eba068aea273160dde0fc0836c0c646de6bdaf9de0803907e98e5d4629064387ed17",
      "networkId": 0,
      "chainId": 0
    },
    {
      "hash": "0xf1ebc069c99438808d536e1f54ea3e76c0786e840da9f695808a6a9d96374070",
      "blockHash": "0x303d8a4c2425663f0acf526342231fbb8da7c86a3d237b8e6fe4c3baf4294f93",
      "blockNumber": 68900,
      "transactionIndex": 17,
      "confirmations": null,
      "from": "0xed7Acd96BD5299c49DBBe1a3803f989fA3c64494",
      "gasPrice": {
        "_hex": "0xba43b7400"
      },
      "gasLimit": {
        "_hex": "0x15f90"
      },
      "to": "0x793AE8C1b1a160BFc07BFB0d04F85eab1A71F4f2",
      "value": {
        "_hex": "0x0"
      },
      "nonce": 0,
      "data": "0x3ba15036",
      "r": "0x86911fe7311d890b2a988af12ac8e9bbf7f8da32812e800d72779fdd61262b1c",
      "s": "0x2cbaa6e6f1ce7ab70d195cc14dc8087841209da0bc58a7c21aee6479ed355647",
      "v": 28,
      "creates": null,
      "raw": "0xf86980850ba43b740083015f9094793ae8c1b1a160bfc07bfb0d04f85eab1a71f4f280843ba150361ca086911fe7311d890b2a988af12ac8e9bbf7f8da32812e800d72779fdd61262b1ca02cbaa6e6f1ce7ab70d195cc14dc8087841209da0bc58a7c21aee6479ed355647",
      "networkId": 0,
      "chainId": 0
    },
    {
      "hash": "0x5535f29d74216928c96e151ca06dce516ef93baad0722396d34dfb9310627996",
      "blockHash": "0x303d8a4c2425663f0acf526342231fbb8da7c86a3d237b8e6fe4c3baf4294f93",
      "blockNumber": 68900,
      "transactionIndex": 18,
      "confirmations": null,
      "from": "0x178a6dC3E7496Bed843BBa310B1c4EC4a2DC8B7d",
      "gasPrice": {
        "_hex": "0xba43b7400"
      },
      "gasLimit": {
        "_hex": "0x15f90"
      },
      "to": "0x793AE8C1b1a160BFc07BFB0d04F85eab1A71F4f2",
      "value": {
        "_hex": "0x0"
      },
      "nonce": 0,
      "data": "0x3ba15036",
      "r": "0xf030100c85e9df480f1538c6413bf79a68d701d4ce6bcf787894986e3ff364e2",
      "s": "0x742c5cd58fc3d9689da15b43ddd36d40f79672f4f901cf4be893bf85af019b94",
      "v": 27,
      "creates": null,
      "raw": "0xf86980850ba43b740083015f9094793ae8c1b1a160bfc07bfb0d04f85eab1a71f4f280843ba150361ba0f030100c85e9df480f1538c6413bf79a68d701d4ce6bcf787894986e3ff364e2a0742c5cd58fc3d9689da15b43ddd36d40f79672f4f901cf4be893bf85af019b94",
      "networkId": 0,
      "chainId": 0
    },
    {
      "hash": "0xaab2979ae0a333aea97e971878ab82d48af267be6bdedd06e1843e93e833c53a",
      "blockHash": "0x303d8a4c2425663f0acf526342231fbb8da7c86a3d237b8e6fe4c3baf4294f93",
      "blockNumber": 68900,
      "transactionIndex": 19,
      "confirmations": null,
      "from": "0x18c80917Ef68F96dc9C4ee85FA694f34A6CDa175",
      "gasPrice": {
        "_hex": "0xba43b7400"
      },
      "gasLimit": {
        "_hex": "0x15f90"
      },
      "to": "0x793AE8C1b1a160BFc07BFB0d04F85eab1A71F4f2",
      "value": {
        "_hex": "0x0"
      },
      "nonce": 0,
      "data": "0x3ba15036",
      "r": "0xfeba7f2f661467ee73c1a843481e07004ef33d2fb42b04cfd3883a34502a8523",
      "s": "0x0c33ff3241858dfd806a1f3a60a33d01df55cfb5dd6f9b1b58a3a6764d1bf339",
      "v": 28,
      "creates": null,
      "raw": "0xf86980850ba43b740083015f9094793ae8c1b1a160bfc07bfb0d04f85eab1a71f4f280843ba150361ca0feba7f2f661467ee73c1a843481e07004ef33d2fb42b04cfd3883a34502a8523a00c33ff3241858dfd806a1f3a60a33d01df55cfb5dd6f9b1b58a3a6764d1bf339",
      "networkId": 0,
      "chainId": 0
    },
    {
      "hash": "0x8f056deb8ed37b982d8a6168d3bf86c54ae392d5013b02dbcb658442e38fcf42",
      "blockHash": "0x303d8a4c2425663f0acf526342231fbb8da7c86a3d237b8e6fe4c3baf4294f93",
      "blockNumber": 68900,
      "transactionIndex": 20,
      "confirmations": null,
      "from": "0xb6b1E7d8cAbb575f242B397ab5eaf13A936050B6",
      "gasPrice": {
        "_hex": "0xba43b7400"
      },
      "gasLimit": {
        "_hex": "0x15f90"
      },
      "to": "0x793AE8C1b1a160BFc07BFB0d04F85eab1A71F4f2",
      "value": {
        "_hex": "0x0"
      },
      "nonce": 0,
      "data": "0x3ba15036",
      "r": "0xdc40557d756541513b346e4b7ece9cb25efd7888dc0c7f7d7805f2c8bbf4111a",
      "s": "0x020d5809b94f2465f718b84703b59671388a68d4907573f19396917b022ea18b",
      "v": 27,
      "creates": null,
      "raw": "0xf86980850ba43b740083015f9094793ae8c1b1a160bfc07bfb0d04f85eab1a71f4f280843ba150361ba0dc40557d756541513b346e4b7ece9cb25efd7888dc0c7f7d7805f2c8bbf4111aa0020d5809b94f2465f718b84703b59671388a68d4907573f19396917b022ea18b",
      "networkId": 0,
      "chainId": 0
    },
    {
      "hash": "0xc8c395ab4ff382d2fbc8cb4d05901d89bff3ad00b9e9c6bf80504861fa5c6831",
      "blockHash": "0x303d8a4c2425663f0acf526342231fbb8da7c86a3d237b8e6fe4c3baf4294f93",
      "blockNumber": 68900,
      "transactionIndex": 21,
      "confirmations": null,
      "from": "0x3EfC2eC48F895Da47Ab0e672af515Fd78d6710B0",
      "gasPrice": {
        "_hex": "0xba43b7400"
      },
      "gasLimit": {
        "_hex": "0x15f90"
      },
      "to": "0x793AE8C1b1a160BFc07BFB0d04F85eab1A71F4f2",
      "value": {
        "_hex": "0x0"
      },
      "nonce": 0,
      "data": "0x3ba15036",
      "r": "0x9eebb47bd70a2193703a7d436f9833af9e5304027c074daf41e4a380b1a56d9b",
      "s": "0x5ec9e801b0464ba7ebdc534e126449016d8c444f955450b926835730faaba1fe",
      "v": 28,
      "creates": null,
      "raw": "0xf86980850ba43b740083015f9094793ae8c1b1a160bfc07bfb0d04f85eab1a71f4f280843ba150361ca09eebb47bd70a2193703a7d436f9833af9e5304027c074daf41e4a380b1a56d9ba05ec9e801b0464ba7ebdc534e126449016d8c444f955450b926835730faaba1fe",
      "networkId": 0,
      "chainId": 0
    },
    {
      "hash": "0xb122d81c73e6060f8ad4bf95362a148a1b3032c8f768ccecaf5cf6a939f72ac9",
      "blockHash": "0x303d8a4c2425663f0acf526342231fbb8da7c86a3d237b8e6fe4c3baf4294f93",
      "blockNumber": 68900,
      "transactionIndex": 22,
      "confirmations": null,
      "from": "0xCc027873dA96B9B1B4fDA234C06bDD5E6DF93687",
      "gasPrice": {
        "_hex": "0xba43b7400"
      },
      "gasLimit": {
        "_hex": "0x15f90"
      },
      "to": "0x793AE8C1b1a160BFc07BFB0d04F85eab1A71F4f2",
      "value": {
        "_hex": "0x0"
      },
      "nonce": 0,
      "data": "0x3ba15036",
      "r": "0xff225abbe4a2ed17a4fd90041f6d4ec8f2069185ec09cd34417b7331fd2b3fa1",
      "s": "0x56b0c779f2ff3e4bc553fdeefdac24c29192c92724b408c4308ac2c7943034df",
      "v": 27,
      "creates": null,
      "raw": "0xf86980850ba43b740083015f9094793ae8c1b1a160bfc07bfb0d04f85eab1a71f4f280843ba150361ba0ff225abbe4a2ed17a4fd90041f6d4ec8f2069185ec09cd34417b7331fd2b3fa1a056b0c779f2ff3e4bc553fdeefdac24c29192c92724b408c4308ac2c7943034df",
      "networkId": 0,
      "chainId": 0
    },
    {
      "hash": "0x1e6b85f4b76cffacab96b3865efe125d5d1b52799827bcbc8dbd09e41dc6d18f",
      "blockHash": "0x303d8a4c2425663f0acf526342231fbb8da7c86a3d237b8e6fe4c3baf4294f93",
      "blockNumber": 68900,
      "transactionIndex": 23,
      "confirmations": null,
      "from": "0x2BDD93a627483a82Fcd7Ca39b86E7bB55771E18A",
      "gasPrice": {
        "_hex": "0xba43b7400"
      },
      "gasLimit": {
        "_hex": "0x15f90"
      },
      "to": "0x793AE8C1b1a160BFc07BFB0d04F85eab1A71F4f2",
      "value": {
        "_hex": "0x0"
      },
      "nonce": 0,
      "data": "0x3ba15036",
      "r": "0x5387b8a993c3f4b6770fa6c424164919f049c2cdb2eb4ef4e573c2946bab5c1f",
      "s": "0x089c6c4c23c59937d4a6f6959dec7ab3c286ebef677e0c27c5a5acc53f71ffb2",
      "v": 27,
      "creates": null,
      "raw": "0xf86980850ba43b740083015f9094793ae8c1b1a160bfc07bfb0d04f85eab1a71f4f280843ba150361ba05387b8a993c3f4b6770fa6c424164919f049c2cdb2eb4ef4e573c2946bab5c1fa0089c6c4c23c59937d4a6f6959dec7ab3c286ebef677e0c27c5a5acc53f71ffb2",
      "networkId": 0,
      "chainId": 0
    },
    {
      "hash": "0x0d85db2455df0fd8ac2051d4863db00914ba70193c4ce7147aafee6825203bc2",
      "blockHash": "0x303d8a4c2425663f0acf526342231fbb8da7c86a3d237b8e6fe4c3baf4294f93",
      "blockNumber": 68900,
      "transactionIndex": 24,
      "confirmations": null,
      "from": "0xcc8609e3A8CcE32745B3e3b0f46Cc261737e04b4",
      "gasPrice": {
        "_hex": "0xba43b7400"
      },
      "gasLimit": {
        "_hex": "0x15f90"
      },
      "to": "0x793AE8C1b1a160BFc07BFB0d04F85eab1A71F4f2",
      "value": {
        "_hex": "0x0"
      },
      "nonce": 0,
      "data": "0x3ba15036",
      "r": "0x0db792804d5c51a9a79eb47b453de4c50519d8b5ff0a517d1a3f9ab51a1bf22b",
      "s": "0x68db4cc393965154ba2c1c03d990b9a9fb5196ffdcba60afbb483fa6413a58ae",
      "v": 28,
      "creates": null,
      "raw": "0xf86980850ba43b740083015f9094793ae8c1b1a160bfc07bfb0d04f85eab1a71f4f280843ba150361ca00db792804d5c51a9a79eb47b453de4c50519d8b5ff0a517d1a3f9ab51a1bf22ba068db4cc393965154ba2c1c03d990b9a9fb5196ffdcba60afbb483fa6413a58ae",
      "networkId": 0,
      "chainId": 0
    }
  ]
}