{
  "hash": "0x6c0f23aab7c3d7b9b8aab5fdb59dd1af5ff0666e65d622f015f4e6ea301f2f03",
  "parentHash": "0x4aa67860ef4d23de9f044e5713c81689a1e9a29a655823ba7b91c46bcfb4c740",
  "number": 119360,
  "timestamp": 1440141411,
  "nonce": "0xc34ab469ff3abe45",
  "difficulty": 4415986035066,
  "gasLimit": {
    "_hex": "0x2fefd8"
  },
  "gasUsed": {
    "_hex": "0x19a28"
  },
  "miner": "0x17B719A685fC6C0002798e7f8151D0E2E83B7497",
  "extraData": "0x",
  "transactions": [
    {
      "hash": "0x17d5b75a94c1ea00e7eba9611d1febf43d4467da78afb8e3a4236dbe5f362ebe",
      "blockHash": "0x6c0f23aab7c3d7b9b8aab5fdb59dd1af5ff0666e65d622f015f4e6ea301f2f03",
      "blockNumber": 119360,
      "transactionIndex": 0,
      "confirmations": null,
      "from": "0x4bA6C728e6251DC89C317f7dbCA89D4136C0baB0",
      "gasPrice": {
        "_hex": "0xba43b7400"
      },
      "gasLimit": {
        "_hex": "0x5208"
      },
      "to": "0x32Be343B94f860124dC4fEe278FDCBD38C102D88",
      "value": {
        "_hex": "0x40e1bfe308003c00"
      },
      "nonce": 12,
      "data": "0x",
      "r": "0x2f2b66a91e59d0781c7a370c8ab755b678f85c855d555085c9872f43f9358bc8",
      "s": "0x094a56d6b83c7d0b4e3293ce382e0ea62bf64ab8063188caf20504bfb3448a58",
      "v": 28,
      "creates": null,
      "raw": "0xf86c0c850ba43b74008252089432be343b94f860124dc4fee278fdcbd38c102d888840e1bfe308003c00801ca02f2b66a91e59d0781c7a370c8ab755b678f85c855d555085c9872f43f9358bc8a0094a56d6b83c7d0b4e3293ce382e0ea62bf64ab8063188caf20504bfb3448a58",
      "networkId": 0,
      "chainId": 0
    },
    {
      "hash": "0x21c301ab9386a7481ed35368aed76a06912812a77d8400d19125957a8e252bb1",
      "blockHash": "0x6c0f23aab7c3d7b9b8aab5fdb59dd1af5ff0666e65d622f015f4e6ea301f2f03",
      "blockNumber": 119360,
      "transactionIndex": 1,
      "confirmations": null,
      "from": "0xbc681E36E2BC0d9Cb397811ce7a5821da2D66059",
      "gasPrice": {
        "_hex": "0xba43b7400"
      },
      "gasLimit": {
        "_hex": "0x5208"
      },
      "to": "0x32Be343B94f860124dC4fEe278FDCBD38C102D88",
      "value": {
        "_hex": "0x3c11abb726ea2000"
      },
      "nonce": 12,
      "data": "0x",
      "r": "0xe2417633db62af7e9300d655f1a743d542d3b75a9142f29608eeaf3268512a74",
      "s": "0x0373fe5cdca79667c38339977a2b324397a3cf78da59283585c139ffab53ffb2",
      "v": 27,
      "creates": null,
      "raw": "0xf86c0c850ba43b74008252089432be343b94f860124dc4fee278fdcbd38c102d88883c11abb726ea2000801ba0e2417633db62af7e9300d655f1a743d542d3b75a9142f29608eeaf3268512a74a00373fe5cdca79667c38339977a2b324397a3cf78da59283585c139ffab53ffb2",
      "networkId": 0,
      "chainId": 0
    },
    {
      "hash": "0x2f57c24f6774de749b220a64118ecf4c4f177be629d0afb3de2a865c27ef86e8",
      "blockHash": "0x6c0f23aab7c3d7b9b8aab5fdb59dd1af5ff0666e65d622f015f4e6ea301f2f03",
      "blockNumber": 119360,
      "transactionIndex": 2,
      "confirmations": null,
      "from": "0x790b8a3cE86E707ED0eD32bF89B3269692a23CC1",
      "gasPrice": {
        "_hex": "0xba43b7400"
      },
      "gasLimit": {
        "_hex": "0x15f90"
      },
      "to": "0x4D67f4F0Db45b3B5a3424B39ed8d972F710381D5",
      "value": {
        "_hex": "0x2c2612051fb620000"
      },
      "nonce": 67,
      "data": "0x",
      "r": "0xbd0e846befc011c07654b099a2e9f1847027aa1ed450ff3577907e71133d212c",
      "s": "0x18eae05172969982aab63c12ca0b9baa55bc3c7bbc9f1c8584bd67d63ba217c1",
      "v": 27,
      "creates": null,
      "raw": "0xf86e43850ba43b740083015f90944d67f4f0db45b3b5a3424b39ed8d972f710381d58902c2612051fb620000801ba0bd0e846befc011c07654b099a2e9f1847027aa1ed450ff3577907e71133d212ca018eae05172969982aab63c12ca0b9baa55bc3c7bbc9f1c8584bd67d63ba217c1",
      "networkId": 0,
      "chainId": 0
    },
    {
      "hash": "0x52906bad167a518fe0ef87f9d091082a2166cb2d6443cf1a683064ba5a9b1699",
      "blockHash": "0x6c0f23aab7c3d7b9b8aab5fdb59dd1af5ff0666e65d622f015f4e6ea301f2f03",
      "blockNumber": 119360,
      "transactionIndex": 3,
      "confirmations": null,
      "from": "0xe34490Fc3A3A1939465ae913D44BfCAf74b59b5D",
      "gasPrice": {
        "_hex": "0xba43b7400"
      },
      "gasLimit": {
        "_hex": "0x5208"
      },
      "to": "0xFBb1b73C4f0BDa4f67dcA266ce6Ef42f520fBB98",
      "value": {
        "_hex": "0xa4b904b562830c00"
      },
      "nonce": 3,
      "data": "0x",
      "r": "0x1a41f5f52e0333e2d5d1abd842d2420253f80330e48b93adc12a81efaa65c7e2",
      "s": "0x1ba3a15738595e28505c7acbb0d8cde67a070040c6af757a2a3b05b8b0e88167",
      "v": 27,
      "creates": null,
      "raw": "0xf86c03850ba43b740082520894fbb1b73c4f0bda4f67dca266ce6ef42f520fbb9888a4b904b562830c00801ba01a41f5f52e0333e2d5d1abd842d2420253f80330e48b93adc12a81efaa65c7e2a01ba3a15738595e28505c7acbb0d8cde67a070040c6af757a2a3b05b8b0e88167",
      "networkId": 0,
      "chainId": 0
    },
    {
      "hash": "0x4e3e3b5ea352738f12b27b2e278d5bc8cccab9fba07f3e8d4b661f837d1c61a7",
      "blockHash": "0x6c0f23aab7c3d7b9b8aab5fdb59dd1af5ff0666e65d622f015f4e6ea301f2f03",
      "blockNumber": 119360,
      "transactionIndex": 4,
      "confirmations": null,
      "from": "0x7CabE4dE323c392C7135680c61a04d5Eb7519897",
      "gasPrice": {
        "_hex": "0xba43b7400"
      },
      "gasLimit": {
        "_hex": "0x5208"
      },
      "to": "0x32Be343B94f860124dC4fEe278FDCBD38C102D88",
      "value": {
        "_hex": "0x572c55d67dfb9000"
      },
      "nonce": 11,
      "data": "0x",
      "r": "0xd7d5b75258c28ee0af421c57c25ab575ec7654fbf60231a310ae44945a268f05",
      "s": "0x409aca2f9042bef582a75542f181aeb34c7708b7b7b090dc14e00d45dadb0618",
      "v": 28,
      "creates": null,
      "raw": "0xf86c0b850ba43b74008252089432be343b94f860124dc4fee278fdcbd38c102d8888572c55d67dfb9000801ca0d7d5b75258c28ee0af421c57c25ab575ec7654fbf60231a310ae44945a268f05a0409aca2f9042bef582a75542f181aeb34c7708b7b7b090dc14e00d45dadb0618",
      "networkId": 0,
      "chainId": 0
    }
  ]
}