{
  "hash": "0xccc69196059060b431e6c28b302edf8fd039099aa5a62594c17a56c391975bae",
  "parentHash": "0x10a4b4f20e0c3c8a574f8868a29636eefd39098552880612e59ebb9f8617a55f",
  "number": 81042,
  "timestamp": 1439495106,
  "nonce": "0xad232a0dd3055176",
  "difficulty": 2433214015786,
  "gasLimit": {
    "_hex": "0x2fefd8"
  },
  "gasUsed": {
    "_hex": "0xa410"
  },
  "miner": "0x157c6f2431eB1a95797EE86F7d17b3c0FD47A247",
  "extraData": "0x476574682f76312e302e312f77696e646f77732f676f312e342e32",
  "transactions": [
    {
      "hash": "0x4e2ea5db8009d7b6c2c040bdd524c6af8148a53597a9f8bf51f42190304d52dd",
      "blockHash": "0xccc69196059060b431e6c28b302edf8fd039099aa5a62594c17a56c391975bae",
      "blockNumber": 81042,
      "transactionIndex": 0,
      "confirmations": null,
      "from": "0xCfaC2E1bf33205B05533691a02267ee19CD81836",
      "gasPrice": {
        "_hex": "0xdb2816147"
      },
      "gasLimit": {
        "_hex": "0x15f90"
      },
      "to": "0x833Db9bC424dbdA6657780d1392eF714f503106C",
      "value": {
        "_hex": "0xde0b6b3a7640000"
      },
      "nonce": 3,
      "data": "0x",
      "r": "0x465012c31c193d891ce109a3c0c2d309084f60ac39353539e8f10dfe4c1fbf86",
      "s": "0x6f8682e44d39296b846bcdc0e0b8488441a97c8fa50a10761574d1c28b08495a",
      "v": 27,
      "creates": null,
      "raw": "0xf86d03850db281614783015f9094833db9bc424dbda6657780d1392ef714f503106c880de0b6b3a7640000801ba0465012c31c193d891ce109a3c0c2d309084f60ac39353539e8f10dfe4c1fbf86a06f8682e44d39296b846bcdc0e0b8488441a97c8fa50a10761574d1c28b08495a",
      "networkId": 0,
      "chainId": 0
    },
    {
      "hash": "0x92f1fa8a2be36a41a27b5e7c056f3f7eb113651d82e1ebb81561d7ea11d08eb6",
      "blockHash": "0xccc69196059060b431e6c28b302edf8fd039099aa5a62594c17a56c391975bae",
      "blockNumber": 81042,
      "transactionIndex": 1,
      "confirmations": null,
      "from": "0x120A270bbC009644e35F0bB6ab13f95b8199c4ad",
      "gasPrice": {
        "_hex": "0xd7a5e9535"
      },
      "gasLimit": {
        "_hex": "0x3d090"
      },
      "to": "0x9035dAcB7755E6f93F63D2b7575576458fdb1f07",
      "value": {
        "_hex": "0x4a948d7092e24400"
      },
      "nonce": 364,
      "data": "0x",
      "r": "0x28b7d53327fa7774713c5d5f4d272a82d439924d5d25163bf5e1dc3b3cb348ef",
      "s": "0x584a6ad0995366c24565809f9e3c59463130e420871a73891960cc388fdf5472",
      "v": 27,
      "creates": null,
      "raw": "0xf86f82016c850d7a5e95358303d090949035dacb7755e6f93f63d2b7575576458fdb1f07884a948d7092e24400801ba028b7d53327fa7774713c5d5f4d272a82d439924d5d25163bf5e1dc3b3cb348efa0584a6ad0995366c24565809f9e3c59463130e420871a73891960cc388fdf5472",
      "networkId": 0,
      "chainId": 0
    }
  ]
}