{
  "hash": "0x9662bf5a1c39546118bd200b5511a45225b3c9a0b91424a8e3dd4ad812562268",
  "parentHash": "0xf02f611b35358b521e2b76c0ee8a7e52e98d65bf545d56b1b76f0584404f80f8",
  "number": 82504,
  "timestamp": 1439520504,
  "nonce": "0xb5fc4e35d833e7bb",
  "difficulty": 2374114854656,
  "gasLimit": {
    "_hex": "0x2fefd8"
  },
  "gasUsed": {
    "_hex": "0x19c8c"
  },
  "miner": "0x9746c7e1ef2bd21FF3997fa467593a89cb852BD0",
  "extraData": "0x476574682f76312e302e312f77696e646f77732f676f312e342e32",
  "transactions": [
    {
      "hash": "0xfe51b59fc7d045b169ab46aef8a585e0acec8cf8abfd05f469922b0a6e69c39f",
      "blockHash": "0x9662bf5a1c39546118bd200b5511a45225b3c9a0b91424a8e3dd4ad812562268",
      "blockNumber": 82504,
      "transactionIndex": 0,
      "confirmations": null,
      "from": "0xC401c427CccFf10deCB864202F36F5808322a0a8",
      "gasPrice": {
        "_hex": "0x110c8f7d8de"
      },
      "gasLimit": {
        "_hex": "0xc350"
      },
      "to": "0x2910543Af39abA0Cd09dBb2D50200b3E800A63D2",
      "value": {
        "_hex": "0xb3fa4169e2d8e00000"
      },
      "nonce": 0,
      "data": "0x454e424b564b4b5152",
      "r": "0xcfd4b00a22d444a81df07a1c82d896ffb044ec49e67ef53737b47c3686ae5c55",
      "s": "0xf6d944bfaeeabb59a4a4069dca8ed952f972f8ecab37f98c7f0c13f1eb421c9d",
      "v": 28,
      "creates": null,
      "raw": "0xf87780860110c8f7d8de82c350942910543af39aba0cd09dbb2d50200b3e800a63d289b3fa4169e2d8e0000089454e424b564b4b51521ca0cfd4b00a22d444a81df07a1c82d896ffb044ec49e67ef53737b47c3686ae5c55a0f6d944bfaeeabb59a4a4069dca8ed952f972f8ecab37f98c7f0c13f1eb421c9d",
      "networkId": 0,
      "chainId": 0
    },
    {
      "hash": "0x76b11fad923a26d33e758c6033e4a530bd15553d7da709f379528b63e8a03142",
      "blockHash": "0x9662bf5a1c39546118bd200b5511a45225b3c9a0b91424a8e3dd4ad812562268",
      "blockNumber": 82504,
      "transactionIndex": 1,
      "confirmations": null,
      "from": "0x120A270bbC009644e35F0bB6ab13f95b8199c4ad",
      "gasPrice": {
        "_hex": "0xd77745275"
      },
      "gasLimit": {
        "_hex": "0x3d090"
      },
      "to": "0xA1777e0CcF71fFB61372cD5a9c7583a8f7370f6F",
      "value": {
        "_hex": "0x70c1cc73b00c80000"
      },
      "nonce": 401,
      "data": "0x",
      "r": "0x59e7a26c0fbadd1ce3547f6b6e0cd7da9f746c5984132a8780420c5aec9088af",
      "s": "0x2bea9ff6127010cbfcafde860fc0d85a281e58eed80a03d2c400a08abf32e1a6",
      "v": 27,
      "creates": null,
      "raw": "0xf870820191850d777452758303d09094a1777e0ccf71ffb61372cd5a9c7583a8f7370f6f89070c1cc73b00c80000801ba059e7a26c0fbadd1ce3547f6b6e0cd7da9f746c5984132a8780420c5aec9088afa02bea9ff6127010cbfcafde860fc0d85a281e58eed80a03d2c400a08abf32e1a6",
      "networkId": 0,
      "chainId": 0
    },
    {
      "hash": "0xd19fb19db6b39241d42d7d9698eb24fdc6d783c9c1a16e70d0961668ca1a1405",
      "blockHash": "0x9662bf5a1c39546118bd200b5511a45225b3c9a0b91424a8e3dd4ad812562268",
      "blockNumber": 82504,
      "transactionIndex": 2,
      "confirmations": null,
      "from": "0xa6BDc31c431B8F97848c9D60cbbe9660dc450eB7",
      "gasPrice": {
        "_hex": "0xcc8845ec4"
      },
      "gasLimit": {
        "_hex": "0x5208"
      },
      "to": "0x32Be343B94f860124dC4fEe278FDCBD38C102D88",
      "value": {
        "_hex": "0x4574e1a193bbb400"
      },
      "nonce": 51,
      "data": "0x",
      "r": "0x41266a528abd028304b3e4c8cb0f344bdedf29d7025c8db39f98a956d8cd9dea",
      "s": "0x130c3a4bea324bc3a0abc04e0082b082410851cf63a7fa7f09d041d1786d1a84",
      "v": 28,
      "creates": null,
      "raw": "0xf86c33850cc8845ec48252089432be343b94f860124dc4fee278fdcbd38c102d88884574e1a193bbb400801ca041266a528abd028304b3e4c8cb0f344bdedf29d7025c8db39f98a956d8cd9deaa0130c3a4bea324bc3a0abc04e0082b082410851cf63a7fa7f09d041d1786d1a84",
      "networkId": 0,
      "chainId": 0
    },
    {
      "hash": "0x6d6d57be981ceebfe74fc61bab77629e95b3da0b9003391179e583f4adfee7fe",
      "blockHash": "0x9662bf5a1c39546118bd200b5511a45225b3c9a0b91424a8e3dd4ad812562268",
      "blockNumber": 82504,
      "transactionIndex": 3,
      "confirmations": null,
      "from": "0x164d6C84C4D54AA3E22A5b2B72cFb968eDe862C5",
      "gasPrice": {
        "_hex": "0xcc8845ec4"
      },
      "gasLimit": {
        "_hex": "0x5208"
      },
      "to": "0x32Be343B94f860124dC4fEe278FDCBD38C102D88",
      "value": {
        "_hex": "0xdd91093ef483800"
      },
      "nonce": 0,
      "data": "0x",
      "r": "0x3040bcabb0468abeaf7fa3739f7f9c935446cd1233798181040b0617679361e5",
      "s": "0x1e70f849519128e5a58cb6519b7634a60c181ae88482761842b141aa521e240e",
      "v": 28,
      "creates": null,
      "raw": "0xf86c80850cc8845ec48252089432be343b94f860124dc4fee278fdcbd38c102d88880dd91093ef483800801ca03040bcabb0468abeaf7fa3739f7f9c935446cd1233798181040b0617679361e5a01e70f849519128e5a58cb6519b7634a60c181ae88482761842b141aa521e240e",
      "networkId": 0,
      "chainId": 0
    },
    {
      "hash": "0xf43962080618d553b04a5d44e59e46d3681aac213e147481506bfd6385690ccc",
      "blockHash": "0x9662bf5a1c39546118bd200b5511a45225b3c9a0b91424a8e3dd4ad812562268",
      "blockNumber": 82504,
      "transactionIndex": 4,
      "confirmations": null,
      "from": "0xE12517204a15E890f12755207271102F4800A0c4",
      "gasPrice": {
        "_hex": "0xcc8845ec4"
      },
      "gasLimit": {
        "_hex": "0x5208"
      },
      "to": "0x32Be343B94f860124dC4fEe278FDCBD38C102D88",
      "value": {
        "_hex": "0x246d9e0dab71ea000"
      },
      "nonce": 7,
      "data": "0x",
      "r": "0x7482646ffb010f51677eca5ddfb9cc6dc0e15f009383bf616df61b255cc32888",
      "s": "0x2bfc19076af187d6344cfbafe7a0d3eb71aadf480979175a5d1be97b2145a907",
      "v": 27,
      "creates": null,
      "raw": "0xf86d07850cc8845ec48252089432be343b94f860124dc4fee278fdcbd38c102d88890246d9e0dab71ea000801ba07482646ffb010f51677eca5ddfb9cc6dc0e15f009383bf616df61b255cc32888a02bfc19076af187d6344cfbafe7a0d3eb71aadf480979175a5d1be97b2145a907",
      "networkId": 0,
      "chainId": 0
    }
  ]
}