{
  "hash": "0xee9ef98e84258695fe534f01bdb64d9f65f0bfc39037a5d8608da1549d6faf57",
  "parentHash": "0xe5eb2fcdc05017fa2e5d25aad508c502fe86a988b326d9d7878f7d9e5b9df6c9",
  "number": 94290,
  "timestamp": 1439705823,
  "nonce": "0x7e17318e59188768",
  "difficulty": 3476521429628,
  "gasLimit": {
    "_hex": "0x2fefd8"
  },
  "gasUsed": {
    "_hex": "0xa410"
  },
  "miner": "0xA21Ba94e45f0E168dA824fC67aC9cb5Cb577a8aF",
  "extraData": "0x",
  "transactions": [
    {
      "hash": "0xfbc55f09a17f9bba4571dacc9d12c4416f79e94bf8135392fba882bd3055fe97",
      "blockHash": "0xee9ef98e84258695fe534f01bdb64d9f65f0bfc39037a5d8608da1549d6faf57",
      "blockNumber": 94290,
      "transactionIndex": 0,
      "confirmations": null,
      "from": "0x02020D22dCF88f5eDd66B382D7da019F161fB7e3",
      "gasPrice": {
        "_hex": "0xd67586067"
      },
      "gasLimit": {
        "_hex": "0x15f90"
      },
      "to": "0x4FCD326ae0739D0DA0fC71020adb6aBf9abf3BdA",
      "value": {
        "_hex": "0xde0b6b3a7640000"
      },
      "nonce": 29,
      "data": "0x",
      "r": "0x846dea2f333971dec8c37c83763a602a9d0c406d83301a8b56fa3e4817d9115c",
      "s": "0x4941482925211e4703c413e7ff7194afd9708df281088d520255d1145cc0e806",
      "v": 28,
      "creates": null,
      "raw": "0xf86d1d850d6758606783015f90944fcd326ae0739d0da0fc71020adb6abf9abf3bda880de0b6b3a7640000801ca0846dea2f333971dec8c37c83763a602a9d0c406d83301a8b56fa3e4817d9115ca04941482925211e4703c413e7ff7194afd9708df281088d520255d1145cc0e806",
      "networkId": 0,
      "chainId": 0
    },
    {
      "hash": "0x8de1fed321bc32a567d3fbc1593b67e775cfb0afcb492c1c72ae2701ddfd1c1a",
      "blockHash": "0xee9ef98e84258695fe534f01bdb64d9f65f0bfc39037a5d8608da1549d6faf57",
      "blockNumber": 94290,
      "transactionIndex": 1,
      "confirmations": null,
      "from": "0x10BD1134A760f6b35247e3cb33673a18bC95a7E7",
      "gasPrice": {
        "_hex": "0xd21fcf240"
      },
      "gasLimit": {
        "_hex": "0x15f90"
      },
      "to": "0x55192e9eEF50b024e6800e4657590f33D1070545",
      "value": {
        "_hex": "0x1158e460913d00000"
      },
      "nonce": 2,
      "data": "0x",
      "r": "0xd8d5a8d1850455b907582661345f01b6c0d11142b139eb0b8bbbb154134f5c0d",
      "s": "0x24488be91ab49175d54eed679b2ee4c86fe7020847286698d7d582032ac438ae",
      "v": 27,
      "creates": null,
      "raw": "0xf86e02850d21fcf24083015f909455192e9eef50b024e6800e4657590f33d10705458901158e460913d00000801ba0d8d5a8d1850455b907582661345f01b6c0d11142b139eb0b8bbbb154134f5c0da024488be91ab49175d54eed679b2ee4c86fe7020847286698d7d582032ac438ae",
      "networkId": 0,
      "chainId": 0
    }
  ]
}