{
  "hash": "0xfd9b0de6965a58fea325dedf672826194fa8ac4be7aefe1c76b03383939507b5",
  "parentHash": "0x91f22ef10946f9e5999b28facb90572e5a7a480f2a5ef106300e982c71ef71e9",
  "number": 105083,
  "timestamp": 1439881399,
  "nonce": "0x7f5ed478c9d882d1",
  "difficulty": 4302090487240,
  "gasLimit": {
    "_hex": "0x2fefd8"
  },
  "gasUsed": {
    "_hex": "0xa678"
  },
  "miner": "0xe6A7a1d47ff21B6321162AEA7C6CB457D5476Bca",
  "extraData": "0x476574682f76312e302e312d38326566323666362f6c696e75782f676f312e34",
  "transactions": [
    {
      "hash": "0x08f0d261c74c365aa2d4f94e47dbeb4663489b46e996b7662e6dcfcd884d32c4",
      "blockHash": "0xfd9b0de6965a58fea325dedf672826194fa8ac4be7aefe1c76b03383939507b5",
      "blockNumber": 105083,
      "transactionIndex": 0,
      "confirmations": null,
      "from": "0x5103bc09933E9921fd53Dc536F11f05D0D47107d",
      "gasPrice": {
        "_hex": "0x110c8f7d8de"
      },
      "gasLimit": {
        "_hex": "0xc350"
      },
      "to": "0x2910543Af39abA0Cd09dBb2D50200b3E800A63D2",
      "value": {
        "_hex": "0xd8d53555d55df20000"
      },
      "nonce": 1,
      "data": "0x454e3437314b333852",
      "r": "0xd47d4935e2ff4bc30437f6b8e4833eae2e0f5857c5b79b2bf2408f452c5b1a8a",
      "s": "0x9a1496b9d7a16938ade384c486a142cfbe6513f7edc9cef90b57cfb32456f068",
      "v": 28,
      "creates": null,
      "raw": "0xf87701860110c8f7d8de82c350942910543af39aba0cd09dbb2d50200b3e800a63d289d8d53555d55df2000089454e3437314b3338521ca0d47d4935e2ff4bc30437f6b8e4833eae2e0f5857c5b79b2bf2408f452c5b1a8aa09a1496b9d7a16938ade384c486a142cfbe6513f7edc9cef90b57cfb32456f068",
      "networkId": 0,
      "chainId": 0
    },
    {
      "hash": "0x1fe1468b54c97ecffda3059ed82e85e568c6531f32baa75af097905abf272a89",
      "blockHash": "0xfd9b0de6965a58fea325dedf672826194fa8ac4be7aefe1c76b03383939507b5",
      "blockNumber": 105083,
      "transactionIndex": 1,
      "confirmations": null,
      "from": "0xb9836ec1f42Bd48331bceaedb74a6Bcdc22832bD",
      "gasPrice": {
        "_hex": "0xce904a976"
      },
      "gasLimit": {
        "_hex": "0x7530"
      },
      "to": "0x7cB57B5A97eAbe94205C07890BE4c1aD31E486A8",
      "value": {
        "_hex": "0xe8d4a51000"
      },
      "nonce": 3,
      "data": "0x00",
      "r": "0x352fbfdf0317e930d9c998492d0b880c22c4770a03d5d60d4c311e611a387db3",
      "s": "0x2f7e250514b34c7b7ca4a1186d68171cc5edc215a2e2fc266c23743e5b9c0234",
      "v": 28,
      "creates": null,
      "raw": "0xf86903850ce904a976827530947cb57b5a97eabe94205c07890be4c1ad31e486a885e8d4a51000001ca0352fbfdf0317e930d9c998492d0b880c22c4770a03d5d60d4c311e611a387db3a02f7e250514b34c7b7ca4a1186d68171cc5edc215a2e2fc266c23743e5b9c0234",
      "networkId": 0,
      "chainId": 0
    }
  ]
}