{
  "hash": "0xd2907ed39494811a004133d92a5ef9b16dd0107ac699bfebaf4c26b923971e5a",
  "parentHash": "0xf27082bc2b49af054031a9cb8313836d2f133277e8b1eb4c787149953708ddcd",
  "number": 94745,
  "timestamp": 1439713537,
  "nonce": "0x8795b85873a435b2",
  "difficulty": 3481428883814,
  "gasLimit": {
    "_hex": "0x2fefd8"
  },
  "gasUsed": {
    "_hex": "0x5208"
  },
  "miner": "0xf927a40C8B7F6E07c5af7FA2155B4864a4112B13",
  "extraData": "0x",
  "transactions": [
    {
      "hash": "0xabaa5e112730689fcc03d81ee7e06189faa666a99257a334def6181ee05509c4",
      "blockHash": "0xd2907ed39494811a004133d92a5ef9b16dd0107ac699bfebaf4c26b923971e5a",
      "blockNumber": 94745,
      "transactionIndex": 0,
      "confirmations": null,
      "from": "0xD51361E8863b74B1d3BF75246d30f33f9f103e1d",
      "gasPrice": {
        "_hex": "0xe1135c46b"
      },
      "gasLimit": {
        "_hex": "0x5208"
      },
      "to": "0x32Be343B94f860124dC4fEe278FDCBD38C102D88",
      "value": {
        "_hex": "0x98b57f399e937000"
      },
      "nonce": 3,
      "data": "0x",
      "r": "0xc5ce7124ddf8cb21c6f61ac2e0d0cc990138523589cbbcd2995a457cc5725a8a",
      "s": "0x0b5a790df6e42c310b2291ee70820197d92b555ea252582c2a9498bef55c85e0",
      "v": 28,
      "creates": null,
      "raw": "0xf86c03850e1135c46b8252089432be343b94f860124dc4fee278fdcbd38c102d888898b57f399e937000801ca0c5ce7124ddf8cb21c6f61ac2e0d0cc990138523589cbbcd2995a457cc5725a8aa00b5a790df6e42c310b2291ee70820197d92b555ea252582c2a9498bef55c85e0",
      "networkId": 0,
      "chainId": 0
    }
  ]
}