{
  "hash": "0xc11e5b1b3b4c8430dce8f03e378331e3e8fc4093e70b102d9aec87e0f3555670",
  "parentHash": "0xfbf112d33af66430bee00d45d867023ed0a4d6def8783f204917c95188b4bf72",
  "number": 116888,
  "timestamp": 1440099408,
  "nonce": "0x87ce62ae89a5206b",
  "difficulty": 4314961189437,
  "gasLimit": {
    "_hex": "0x2fefd8"
  },
  "gasUsed": {
    "_hex": "0x5208"
  },
  "miner": "0x580992B51e3925e23280EfB93d3047C82f17E038",
  "extraData": "0x",
  "transactions": [
    {
      "hash": "0xe2895d4dd402157355e3c1b8fe1e3ec2a623022df2b60eb2af1ca7e7d3acb96d",
      "blockHash": "0xc11e5b1b3b4c8430dce8f03e378331e3e8fc4093e70b102d9aec87e0f3555670",
      "blockNumber": 116888,
      "transactionIndex": 0,
      "confirmations": null,
      "from": "0xc8ebccC5F5689Fa8659d83713341e5aD19349448",
      "gasPrice": {
        "_hex": "0xba43b7400"
      },
      "gasLimit": {
        "_hex": "0x5208"
      },
      "to": "0xE6F13C5Af166f8C732873Ae069f53Fa4cbF1230f",
      "value": {
        "_hex": "0xdc502c7c90ecc00"
      },
      "nonce": 79,
      "data": "0x",
      "r": "0xd609ebd9dd36b8f3ecf5d08227a3a89a55136dd4b14d4eae6692be637ce7f8db",
      "s": "0x117c20a532276e1d3cfadd1f514ba14d2b54bd27538cde2632b15b023168eba9",
      "v": 28,
      "creates": null,
      "raw": "0xf86c4f850ba43b740082520894e6f13c5af166f8c732873ae069f53fa4cbf1230f880dc502c7c90ecc00801ca0d609ebd9dd36b8f3ecf5d08227a3a89a55136dd4b14d4eae6692be637ce7f8dba0117c20a532276e1d3cfadd1f514ba14d2b54bd27538cde2632b15b023168eba9",
      "networkId": 0,
      "chainId": 0
    }
  ]
}