{
  "hash": "0xf24129be9a3efa2c2564001fbaaa1d93578df0c64b254760fde703f898e512df",
  "parentHash": "0x8017607788eb24c2afe55ec81048f81be110654ff37c9a1945f63f2d702ea3a1",
  "number": 114544,
  "timestamp": 1440042208,
  "nonce": "0x37acbd86fedb599f",
  "difficulty": 4510071796341,
  "gasLimit": {
    "_hex": "0x2fefd8"
  },
  "gasUsed": {
    "_hex": "0x5208"
  },
  "miner": "0xc15fa6D616245a5c7B7D75A6dFDcA10C0250BD2B",
  "extraData": "0x476574682f76312e302e312f77696e646f77732f676f312e342e32",
  "transactions": [
    {
      "hash": "0x9a08a1fd6bda0c262b924ccfd9152c101ea9a28a0e2d7d1f4dc9026729571774",
      "blockHash": "0xf24129be9a3efa2c2564001fbaaa1d93578df0c64b254760fde703f898e512df",
      "blockNumber": 114544,
      "transactionIndex": 0,
      "confirmations": null,
      "from": "0x120A270bbC009644e35F0bB6ab13f95b8199c4ad",
      "gasPrice": {
        "_hex": "0xcf21b5a2d"
      },
      "gasLimit": {
        "_hex": "0x3d090"
      },
      "to": "0xb32c8e76f6a05e4D3A71636F3B97D14dD85BA6d5",
      "value": {
        "_hex": "0x29a2241af62c00000"
      },
      "nonce": 932,
      "data": "0x",
      "r": "0xd87428b106fdb33f4ca569fba345c77419423b1131941d7d8b889167146dbb92",
      "s": "0x7846e9808f467caf72d993cb5da0626cab9093cbe47238166f91fee7e4a8e54d",
      "v": 28,
      "creates": null,
      "raw": "0xf8708203a4850cf21b5a2d8303d09094b32c8e76f6a05e4d3a71636f3b97d14dd85ba6d589029a2241af62c00000801ca0d87428b106fdb33f4ca569fba345c77419423b1131941d7d8b889167146dbb92a07846e9808f467caf72d993cb5da0626cab9093cbe47238166f91fee7e4a8e54d",
      "networkId": 0,
      "chainId": 0
    }
  ]
}