{
  "hash": "0xfb390ac4807b5b84f44ab47da970a0bd39bf300beccc25eb1a79485b4be261ee",
  "parentHash": "0xca84095217626e49002d338da56cf31c94c8a3a720977c5a9ade858c29dc8b12",
  "number": 85966,
  "timestamp": 1439571552,
  "nonce": "0x9b1c0717e285a8f9",
  "difficulty": 2785335228121,
  "gasLimit": {
    "_hex": "0x2fefd8"
  },
  "gasUsed": {
    "_hex": "0x5208"
  },
  "miner": "0xf8E0CA3Ed80bd541b94BEdCf259e8CF2141A9523",
  "extraData": "0x476574682f76312e302e312f77696e646f77732f676f312e342e32",
  "transactions": [
    {
      "hash": "0x61db4a9ab9fc630805a47faf803e935469700ce49b83f8aa6299b2492cd4c3ab",
      "blockHash": "0xfb390ac4807b5b84f44ab47da970a0bd39bf300beccc25eb1a79485b4be261ee",
      "blockNumber": 85966,
      "transactionIndex": 0,
      "confirmations": null,
      "from": "0x2910543Af39abA0Cd09dBb2D50200b3E800A63D2",
      "gasPrice": {
        "_hex": "0xd454602e5"
      },
      "gasLimit": {
        "_hex": "0x5208"
      },
      "to": "0x6d33A045c6E37BD756aCFE28Ab25Ba546dF40c4e",
      "value": {
        "_hex": "0x4b9cab468f32f78000"
      },
      "nonce": 632,
      "data": "0x",
      "r": "0xfd8e3dfd0520586f439412c091558861795e94399567baadc5f86ff9b0af8f65",
      "s": "0x6398482d242b1b20b7c4eebafc73b2a0106b890011f96753c1fec95590ff08fc",
      "v": 28,
      "creates": null,
      "raw": "0xf86f820278850d454602e5825208946d33a045c6e37bd756acfe28ab25ba546df40c4e894b9cab468f32f78000801ca0fd8e3dfd0520586f439412c091558861795e94399567baadc5f86ff9b0af8f65a06398482d242b1b20b7c4eebafc73b2a0106b890011f96753c1fec95590ff08fc",
      "networkId": 0,
      "chainId": 0
    }
  ]
}