{
  "hash": "0x1236c1d165fe8d1eff2e4e1e346920530efa4cac865382e9179d8127ff3e1acc",
  "parentHash": "0x47ca56e7e9f2f32930c781d299867dbfb566b8ab2817c93d32322880346bc056",
  "number": 107655,
  "timestamp": 1439926274,
  "nonce": "0xc8275b35f20cb99f",
  "difficulty": 4398464036410,
  "gasLimit": {
    "_hex": "0x2fefd8"
  },
  "gasUsed": {
    "_hex": "0x520c"
  },
  "miner": "0x88D74a59454F6cF3B51ef6b9136AFb6b9D405A88",
  "extraData": "0x",
  "transactions": [
    {
      "hash": "0x7397041aae909690b06fd6d6a59777672651fb94bcc1df92b7a8cd670a738efa",
      "blockHash": "0x1236c1d165fe8d1eff2e4e1e346920530efa4cac865382e9179d8127ff3e1acc",
      "blockNumber": 107655,
      "transactionIndex": 0,
      "confirmations": null,
      "from": "0x60d85a32126130b225913C23dF4e5EF8b759fA09",
      "gasPrice": {
        "_hex": "0xd04ec6feb"
      },
      "gasLimit": {
        "_hex": "0x7530"
      },
      "to": "0xdDbddD1BBd38fFADE0305d30f02028D92e9f3Aa8",
      "value": {
        "_hex": "0xefab43d78816700000"
      },
      "nonce": 2,
      "data": "0x00",
      "r": "0x2ca05d2d5deb3c7d3ad7c4c742d7bad8be0a9c41927d8acf34e22a9b9d9668a2",
      "s": "0x1cba09217251a90023590f7d56b19ab4072b705bd0bfcca785755754d790bca9",
      "v": 28,
      "creates": null,
      "raw": "0xf86d02850d04ec6feb82753094ddbddd1bbd38ffade0305d30f02028d92e9f3aa889efab43d78816700000001ca02ca05d2d5deb3c7d3ad7c4c742d7bad8be0a9c41927d8acf34e22a9b9d9668a2a01cba09217251a90023590f7d56b19ab4072b705bd0bfcca785755754d790bca9",
      "networkId": 0,
      "chainId": 0
    }
  ]
}