{
  "hash": "0x185322052959358d0f6177435d4f47aa9949c76839c7dd1159813033856ad623",
  "parentHash": "0xdabf01df4800b35b3c3fece1cc4ab4d7dd4729713bf03340f92de99b2b32a0da",
  "number": 63263,
  "timestamp": 1439201775,
  "nonce": "0x106406458fe57bf3",
  "difficulty": 1811162928989,
  "gasLimit": {
    "_hex": "0x2fefd8"
  },
  "gasUsed": {
    "_hex": "0x5208"
  },
  "miner": "0xf8E0CA3Ed80bd541b94BEdCf259e8CF2141A9523",
  "extraData": "0x476574682f76312e302e312f77696e646f77732f676f312e342e32",
  "transactions": [
    {
      "hash": "0x3770e506557b5d6938c7eebb02c88318d5e0fd8277fd773ef0b14aac3183c8b9",
      "blockHash": "0x185322052959358d0f6177435d4f47aa9949c76839c7dd1159813033856ad623",
      "blockNumber": 63263,
      "transactionIndex": 0,
      "confirmations": null,
      "from": "0x2A595F16EEE4Cb0C17D9a2D939B3C10F6C677243",
      "gasPrice": {
        "_hex": "0x1177ffadf80"
      },
      "gasLimit": {
        "_hex": "0x15f90"
      },
      "to": "0xbCAc266E82Ec326595cabCb3F344cF505219985c",
      "value": {
        "_hex": "0x38d7ea4c68000"
      },
      "nonce": 1,
      "data": "0x",
      "r": "0x0fb888dd0ae3623759ae5b256d742849eb4f904e618aefbb7c326d00cb5fe327",
      "s": "0x192549cc873cb2a742f252ee7ade246d15e76e36daa09ecd8fcc79afd54f1662",
      "v": 27,
      "creates": null,
      "raw": "0xf86d018601177ffadf8083015f9094bcac266e82ec326595cabcb3f344cf505219985c87038d7ea4c68000801ba00fb888dd0ae3623759ae5b256d742849eb4f904e618aefbb7c326d00cb5fe327a0192549cc873cb2a742f252ee7ade246d15e76e36daa09ecd8fcc79afd54f1662",
      "networkId": 0,
      "chainId": 0
    }
  ]
}