{
  "hash": "0x0f6b6e450bedc2bb06634aeea7e25c823d327703987b836240f50d4738a4c4d5",
  "parentHash": "0xd018443313bf2cd79ec4ab5f7db2413f684bf4ed19b795eeb46d148d994ec763",
  "number": 108194,
  "timestamp": 1439935973,
  "nonce": "0xa0b08ecbd0cd3579",
  "difficulty": 4366085862915,
  "gasLimit": {
    "_hex": "0x2fefd8"
  },
  "gasUsed": {
    "_hex": "0x5208"
  },
  "miner": "0xe6A7a1d47ff21B6321162AEA7C6CB457D5476Bca",
  "extraData": "0x476574682f76312e302e312d38326566323666362f6c696e75782f676f312e34",
  "transactions": [
    {
      "hash": "0x678a9cbdccb910fc0433fe340bf30ba3c3824028709581816c5d05f011018fe2",
      "blockHash": "0x0f6b6e450bedc2bb06634aeea7e25c823d327703987b836240f50d4738a4c4d5",
      "blockNumber": 108194,
      "transactionIndex": 0,
      "confirmations": null,
      "from": "0x32Be343B94f860124dC4fEe278FDCBD38C102D88",
      "gasPrice": {
        "_hex": "0xd1fda5e3c"
      },
      "gasLimit": {
        "_hex": "0x5208"
      },
      "to": "0xc93a69dFC0fb3E867D9207599f7fe87d51619635",
      "value": {
        "_hex": "0x4563918244f400000"
      },
      "nonce": 1246,
      "data": "0x",
      "r": "0x04f7f56e6494a7e1db01a6a58153c1216f627aa073026663c250e09d433b1b1a",
      "s": "0x5366cdbd4b71f80f514e55bfc160d352030fd4fb9a8f41660bbfeda3d14018ca",
      "v": 27,
      "creates": null,
      "raw": "0xf86f8204de850d1fda5e3c82520894c93a69dfc0fb3e867d9207599f7fe87d516196358904563918244f400000801ba004f7f56e6494a7e1db01a6a58153c1216f627aa073026663c250e09d433b1b1aa05366cdbd4b71f80f514e55bfc160d352030fd4fb9a8f41660bbfeda3d14018ca",
      "networkId": 0,
      "chainId": 0
    }
  ]
}