{
  "hash": "0x75a80a7e619755627c03081425a7078e680261025709a9486a3259f24620a34c",
  "parentHash": "0x1dc6a5164ff147e9e03c6660217c2c7f43d0aaf78446d17c1f58fc8122e0ff37",
  "number": 97316,
  "timestamp": 1439754283,
  "nonce": "0x28edf20bba960d2b",
  "difficulty": 3772367293915,
  "gasLimit": {
    "_hex": "0x2fefd8"
  },
  "gasUsed": {
    "_hex": "0xc432"
  },
  "miner": "0xcCb43858c5dD5A1683935E760414B4f4c77EBaE8",
  "extraData": "0xdd809b302e392e34302b2b616339342d5257696e646f2f6d73762f4a4954",
  "transactions": [
    {
      "hash": "0x1415eefd237c9219b140bc9d71b8b0b3a671f454d5ba673e4cdcb16eb047c9c7",
      "blockHash": "0x75a80a7e619755627c03081425a7078e680261025709a9486a3259f24620a34c",
      "blockNumber": 97316,
      "transactionIndex": 0,
      "confirmations": null,
      "from": "0xe324bc8cB83B45cF7Ad7D440B92Ed2181161302D",
      "gasPrice": {
        "_hex": "0xdee420116"
      },
      "gasLimit": {
        "_hex": "0x15f90"
      },
      "to": "0x7aeb94b5db9EE3474F03b974ADC40b409Ac78f98",
      "value": {
        "_hex": "0x0"
      },
      "nonce": 2,
      "data": "0x90b98a11000000000000000000000000428b3ad11a787fb8f1a02b31549bc7cd602f5af50000000000000000000000000000000000000000000000000000000000000001",
      "r": "0x9c18ab4da8947e188dc2f1a8bf31e06e36f96b816a366c2d54127846bbe0a36a",
      "s": "0x15267dcb6212a1a996f29b79ac839ba59b85a8ec8abf55278b93e29d74f2cbe4",
      "v": 28,
      "creates": null,
      "raw": "0xf8aa02850dee42011683015f90947aeb94b5db9ee3474f03b974adc40b409ac78f9880b84490b98a11000000000000000000000000428b3ad11a787fb8f1a02b31549bc7cd602f5af500000000000000000000000000000000000000000000000000000000000000011ca09c18ab4da8947e188dc2f1a8bf31e06e36f96b816a366c2d54127846bbe0a36aa015267dcb6212a1a996f29b79ac839ba59b85a8ec8abf55278b93e29d74f2cbe4",
      "networkId": 0,
      "chainId": 0
    }
  ]
}