{
  "hash": "0xc37b67a734e4e29074cfc9ad1252e88b174393baba5071a23a1450ab7662ddc9",
  "parentHash": "0x6148af35afcb4ba25a083497977018c94bf96506d8d113314481d972073e85be",
  "number": 70128,
  "timestamp": 1439315099,
  "nonce": "0x68cbe437f8d4e86b",
  "difficulty": 2110572790201,
  "gasLimit": {
    "_hex": "0x2fefd8"
  },
  "gasUsed": {
    "_hex": "0xe185"
  },
  "miner": "0xbb7B8287f3F0a933474a79eAe42CBCa977791171",
  "extraData": "0x476574682f4c5649562f76312e302e312f6c696e75782f676f312e342e32",
  "transactions": [
    {
      "hash": "0x6d013bd6ac31a97cf149b928c6b7b6a649e325b178768c6b4e60632b8ec3b479",
      "blockHash": "0xc37b67a734e4e29074cfc9ad1252e88b174393baba5071a23a1450ab7662ddc9",
      "blockNumber": 70128,
      "transactionIndex": 0,
      "confirmations": null,
      "from": "0xC5a96Db085dDA36FfBE390f455315D30D6D3DC52",
      "gasPrice": {
        "_hex": "0x746a528800"
      },
      "gasLimit": {
        "_hex": "0x8f84"
      },
      "to": "0xde0B295669a9FD93d5F28D9Ec85E40f4cb697BAe",
      "value": {
        "_hex": "0x0"
      },
      "nonce": 0,
      "data": "0xf00d4b5d00000000000000000000000005096a47749d8bfab0a90c1bb7a95115dbe4cea60000000000000000000000005ed8cee6b63b1c6afce3ad7c92f4fd7e1b8fad9f",
      "r": "0x7cfde2ae6db839a725c7c6f88867312a7fe8ab3c4964734023107804eb62a264",
      "s": "0x42d4f4c68e21da72f053a138cd9fbcf1dc2aee50d47e8d628c8a64af7d4590b0",
      "v": 28,
      "creates": null,
      "raw": "0xf8a98085746a528800828f8494de0b295669a9fd93d5f28d9ec85e40f4cb697bae80b844f00d4b5d00000000000000000000000005096a47749d8bfab0a90c1bb7a95115dbe4cea60000000000000000000000005ed8cee6b63b1c6afce3ad7c92f4fd7e1b8fad9f1ca07cfde2ae6db839a725c7c6f88867312a7fe8ab3c4964734023107804eb62a264a042d4f4c68e21da72f053a138cd9fbcf1dc2aee50d47e8d628c8a64af7d4590b0",
      "networkId": 0,
      "chainId": 0
    },
    {
      "hash": "0x6222eb7f7d74c1c66434ff0ec0b959d27e43fbf6a1464684dea4a08269708bae",
      "blockHash": "0xc37b67a734e4e29074cfc9ad1252e88b174393baba5071a23a1450ab7662ddc9",
      "blockNumber": 70128,
      "transactionIndex": 1,
      "confirmations": null,
      "from": "0x2910543Af39abA0Cd09dBb2D50200b3E800A63D2",
      "gasPrice": {
        "_hex": "0xd5c735afc"
      },
      "gasLimit": {
        "_hex": "0x5208"
      },
      "to": "0xA6746D3f18AE6b6F140283BDD39cE2227a55A293",
      "value": {
        "_hex": "0x3635b7ea4ca6bf8000"
      },
      "nonce": 236,
      "data": "0x",
      "r": "0xd845f17cafaa19f92cf665f83b0f3baa2e7e9b001111a99204c712f3a37feae7",
      "s": "0x3612fb65c4f9c2e507bafd504fb54e1c0cde5231f0c52375357e4291cc542218",
      "v": 27,
      "creates": null,
      "raw": "0xf86e81ec850d5c735afc82520894a6746d3f18ae6b6f140283bdd39ce2227a55a293893635b7ea4ca6bf8000801ba0d845f17cafaa19f92cf665f83b0f3baa2e7e9b001111a99204c712f3a37feae7a03612fb65c4f9c2e507bafd504fb54e1c0cde5231f0c52375357e4291cc542218",
      "networkId": 0,
      "chainId": 0
    }
  ]
}