{
  "hash": "0x66888cd87ce3a405a0fdaff2e0331971d931f489cc158f95868bad01681ad3b2",
  "parentHash": "0x884c8d9011c5e0631bc7be4ddf71c90ec1affc030b11f0af720f999f8336356e",
  "number": 110395,
  "timestamp": 1439972989,
  "nonce": "0x5e571e36d63e3eea",
  "difficulty": 4375610053836,
  "gasLimit": {
    "_hex": "0x2fefd8"
  },
  "gasUsed": {
    "_hex": "0x5208"
  },
  "miner": "0xC6A5D22D1DDd24B32a308bA4A49ec3cA38a2D0A6",
  "extraData": "0x",
  "transactions": [
    {
      "hash": "0xb9dca7d8e217c0dd37c198e3fe2b6dd609bb130401dfc8438acbd7ef2e175050",
      "blockHash": "0x66888cd87ce3a405a0fdaff2e0331971d931f489cc158f95868bad01681ad3b2",
      "blockNumber": 110395,
      "transactionIndex": 0,
      "confirmations": null,
      "from": "0x2435CaC661de90FF84BF79A55629C5bc30B40a0d",
      "gasPrice": {
        "_hex": "0xdd1029075"
      },
      "gasLimit": {
        "_hex": "0x5208"
      },
      "to": "0xFBb1b73C4f0BDa4f67dcA266ce6Ef42f520fBB98",
      "value": {
        "_hex": "0x60e7b29acd2a5658"
      },
      "nonce": 2,
      "data": "0x",
      "r": "0xcfa05052d85de75fdd454a7a8ffc41317803958dfa8f2b17d9ca78b8784d7da2",
      "s": "0x550c8b18928a823bfbee8ff8e516e0cc093a2941c51dc9961cface181cb885dc",
      "v": 27,
      "creates": null,
      "raw": "0xf86c02850dd102907582520894fbb1b73c4f0bda4f67dca266ce6ef42f520fbb988860e7b29acd2a5658801ba0cfa05052d85de75fdd454a7a8ffc41317803958dfa8f2b17d9ca78b8784d7da2a0550c8b18928a823bfbee8ff8e516e0cc093a2941c51dc9961cface181cb885dc",
      "networkId": 0,
      "chainId": 0
    }
  ]
}