{
  "hash": "0x13d3c842beb2304aacd719cd2c41a4869014c0ecfac584bb75ef486de38a47c8",
  "parentHash": "0xdf71ab6678b5e38038f0f6f9f60ac13b996cdc03a0defd82b90aa3195474905d",
  "number": 73063,
  "timestamp": 1439362504,
  "nonce": "0xfa2bc4840104a4c5",
  "difficulty": 2225167416910,
  "gasLimit": {
    "_hex": "0x2fefd8"
  },
  "gasUsed": {
    "_hex": "0x5208"
  },
  "miner": "0xe6A7a1d47ff21B6321162AEA7C6CB457D5476Bca",
  "extraData": "0x476574682f76312e302e312d38326566323666362f6c696e75782f676f312e34",
  "transactions": [
    {
      "hash": "0x1b61f97531c5bb9463609d03d883ed024e0d55eceb8693de2ac2147c3abcab96",
      "blockHash": "0x13d3c842beb2304aacd719cd2c41a4869014c0ecfac584bb75ef486de38a47c8",
      "blockNumber": 73063,
      "transactionIndex": 0,
      "confirmations": null,
      "from": "0x727A42a8D67fcaa0Ab81D46f1EE66bfc9b8789AC",
      "gasPrice": {
        "_hex": "0xe0375a2b5"
      },
      "gasLimit": {
        "_hex": "0x15f90"
      },
      "to": "0x285B048CC4cB946abCF3eF11aDe982C36946AF18",
      "value": {
        "_hex": "0xea88dc75c01a0000"
      },
      "nonce": 6,
      "data": "0x",
      "r": "0x7c4d4c8106d700e521948d0937f95b59c81090d7b2b55dc2a1f6a30417dd78bd",
      "s": "0x2398f1366607c401eb4f02aad0573b32b99f507131c446ffaf46c97729372bd8",
      "v": 27,
      "creates": null,
      "raw": "0xf86d06850e0375a2b583015f9094285b048cc4cb946abcf3ef11ade982c36946af1888ea88dc75c01a0000801ba07c4d4c8106d700e521948d0937f95b59c81090d7b2b55dc2a1f6a30417dd78bda02398f1366607c401eb4f02aad0573b32b99f507131c446ffaf46c97729372bd8",
      "networkId": 0,
      "chainId": 0
    }
  ]
}