{
  "hash": "0xb3aa9b20dc89b47693ada5a2f652c2a9b7dcce59ccf33786a47c43ce35c1bbb1",
  "parentHash": "0x20f7ea5fb999b113fe38ba41df8f962dfd585c529930b929dcb1d23061546aef",
  "number": 74397,
  "timestamp": 1439385380,
  "nonce": "0x10f36498ac5f229c",
  "difficulty": 2218305116810,
  "gasLimit": {
    "_hex": "0x2fefd8"
  },
  "gasUsed": {
    "_hex": "0xff65"
  },
  "miner": "0x580992B51e3925e23280EfB93d3047C82f17E038",
  "extraData": "0x476574682f76312e302e312f6c696e75782f676f312e342e32",
  "transactions": [
    {
      "hash": "0x02c05db7e1ce66a77cbbc83931efb270e25d4f55948b5e010b588563ddf696c1",
      "blockHash": "0xb3aa9b20dc89b47693ada5a2f652c2a9b7dcce59ccf33786a47c43ce35c1bbb1",
      "blockNumber": 74397,
      "transactionIndex": 0,
      "confirmations": null,
      "from": "0x87C5B5874A18B4306DF8a752a6C8cc3E82daFc19",
      "gasPrice": {
        "_hex": "0x10c51dd2246"
      },
      "gasLimit": {
        "_hex": "0x493e0"
      },
      "to": "0x88A91FD7Fb8AAEa8cDAD2C990f1DBDcd28022a02",
      "value": {
        "_hex": "0x0"
      },
      "nonce": 18,
      "data": "0x03750d94000000000000000000000000326be8f71bfb0379f989aab1cc1fe37f0a771f604a4f585533363543714854336d575a3300000000000000000000000000000000",
      "r": "0x5fbd92b63ac43ee13ae71bd675cfb827479cd82d599343758ecd70b9cd55ea45",
      "s": "0x7c6c90f0b689874568a043b00f6ad1b8ac0d7e635eeae477f3fa5afef49e4c56",
      "v": 27,
      "creates": null,
      "raw": "0xf8ab1286010c51dd2246830493e09488a91fd7fb8aaea8cdad2c990f1dbdcd28022a0280b84403750d94000000000000000000000000326be8f71bfb0379f989aab1cc1fe37f0a771f604a4f585533363543714854336d575a33000000000000000000000000000000001ba05fbd92b63ac43ee13ae71bd675cfb827479cd82d599343758ecd70b9cd55ea45a07c6c90f0b689874568a043b00f6ad1b8ac0d7e635eeae477f3fa5afef49e4c56",
      "networkId": 0,
      "chainId": 0
    },
    {
      "hash": "0x24a5c051f7305d80f26639bb8ce95e49d7d58ce4a115264d7d286078cbe2a11e",
      "blockHash": "0xb3aa9b20dc89b47693ada5a2f652c2a9b7dcce59ccf33786a47c43ce35c1bbb1",
      "blockNumber": 74397,
      "transactionIndex": 1,
      "confirmations": null,
      "from": "0x6E8A26689f7A2FdEfd009CBaaA5310253450DABa",
      "gasPrice": {
        "_hex": "0xd1f217cbf"
      },
      "gasLimit": {
        "_hex": "0x15f90"
      },
      "to": "0xd6986162E8B905e6a771C3BCD1b2baa2B0bb386F",
      "value": {
        "_hex": "0xde0b6b3a7640000"
      },
      "nonce": 4,
      "data": "0x",
      "r": "0xc6532f239f7a9e36dd7b23f8adf3956da9702e546e540459afb9074a3ce56be8",
      "s": "0x00eb9f9ba9758517aba721871b08af3a416af29954c4353a7a4286a415ae9c14",
      "v": 27,
      "creates": null,
      "raw": "0xf86c04850d1f217cbf83015f9094d6986162e8b905e6a771c3bcd1b2baa2b0bb386f880de0b6b3a7640000801ba0c6532f239f7a9e36dd7b23f8adf3956da9702e546e540459afb9074a3ce56be89feb9f9ba9758517aba721871b08af3a416af29954c4353a7a4286a415ae9c14",
      "networkId": 0,
      "chainId": 0
    }
  ]
}