{
  "hash": "0x0583cbb269b5b2d9018bbd39038d2982cf0b630d829b58c752f02b382611b4af",
  "parentHash": "0xae3975e557ecc8a0db36592a1d24ea73414454cda83a96ea3a700620f3b1d05d",
  "number": 82204,
  "timestamp": 1439515252,
  "nonce": "0x3ce2bfae62954715",
  "difficulty": 2390485243460,
  "gasLimit": {
    "_hex": "0x2fefd5"
  },
  "gasUsed": {
    "_hex": "0xf618"
  },
  "miner": "0x47ff6576639c2e94762eA5443978D7681C0E78DC",
  "extraData": "0x476574682f76312e302e312f6c696e75782f676f312e342e32",
  "transactions": [
    {
      "hash": "0xaf085985e5f0967f52ed71b23fd1c1be27bc59ca98191dbf44216fe2f93ddce7",
      "blockHash": "0x0583cbb269b5b2d9018bbd39038d2982cf0b630d829b58c752f02b382611b4af",
      "blockNumber": 82204,
      "transactionIndex": 0,
      "confirmations": null,
      "from": "0x9D02944DC5BcA42f6e768F605C55194c8eBeE4D4",
      "gasPrice": {
        "_hex": "0xd7d40ace3"
      },
      "gasLimit": {
        "_hex": "0x15f90"
      },
      "to": "0xb1A2a1e9b8AC33fdcB2118b73A875b096AEd24aD",
      "value": {
        "_hex": "0x8f147a6012470000"
      },
      "nonce": 0,
      "data": "0x",
      "r": "0xa40a77330b1bedc3660870468a4e621c590c77e7b873f96b12afaded31f7b5b2",
      "s": "0x4f255eed5a0984b8f61c1e88ea9160a470ac248f42080a68cb7c77b5f1eb858a",
      "v": 28,
      "creates": null,
      "raw": "0xf86d80850d7d40ace383015f9094b1a2a1e9b8ac33fdcb2118b73a875b096aed24ad888f147a6012470000801ca0a40a77330b1bedc3660870468a4e621c590c77e7b873f96b12afaded31f7b5b2a04f255eed5a0984b8f61c1e88ea9160a470ac248f42080a68cb7c77b5f1eb858a",
      "networkId": 0,
      "chainId": 0
    },
    {
      "hash": "0x5c42d267fa0a522f2a5b9b0e428ebc9b1101803dffd1eabcc395edf33edf73f6",
      "blockHash": "0x0583cbb269b5b2d9018bbd39038d2982cf0b630d829b58c752f02b382611b4af",
      "blockNumber": 82204,
      "transactionIndex": 1,
      "confirmations": null,
      "from": "0x566B3E44014f2a2587e054AdFA915861AE82Fe39",
      "gasPrice": {
        "_hex": "0xba43b7400"
      },
      "gasLimit": {
        "_hex": "0x5208"
      },
      "to": "0xC47Aaa860008be6f65B58c6C6E02a84e666EfE31",
      "value": {
        "_hex": "0x23e896ab61e017800"
      },
      "nonce": 1,
      "data": "0x",
      "r": "0x63d73d0b868a710027ad4dbba6b0f6eb8ffaa6e8609a68c2e2127753817c47f0",
      "s": "0x441310720f9489864b8aafb88c01f44483eec5b8fa00eec396f7ff2b48fd3dec",
      "v": 28,
      "creates": null,
      "raw": "0xf86d01850ba43b740082520894c47aaa860008be6f65b58c6c6e02a84e666efe3189023e896ab61e017800801ca063d73d0b868a710027ad4dbba6b0f6eb8ffaa6e8609a68c2e2127753817c47f0a0441310720f9489864b8aafb88c01f44483eec5b8fa00eec396f7ff2b48fd3dec",
      "networkId": 0,
      "chainId": 0
    },
    {
      "hash": "0x696bafd3452d6b9bc8d1277e04a32a241fb7d509ef69fbd36740610a85c62e06",
      "blockHash": "0x0583cbb269b5b2d9018bbd39038d2982cf0b630d829b58c752f02b382611b4af",
      "blockNumber": 82204,
      "transactionIndex": 2,
      "confirmations": null,
      "from": "0x3faFe90631678f97C1D101ea02D4cd743cBD24ed",
      "gasPrice": {
        "_hex": "0xba43b7400"
      },
      "gasLimit": {
        "_hex": "0x5208"
      },
      "to": "0xC47Aaa860008be6f65B58c6C6E02a84e666EfE31",
      "value": {
        "_hex": "0x8ab1a49324f49dc0"
      },
      "nonce": 1,
      "data": "0x",
      "r": "0xae9e41429dd8399877c64a65a012ad29f414f6cb30b0a1e1984b1dc2aba95e99",
      "s": "0x37906836f1af362a72961242ad7f4b8fb0a5d49898a0ebc532e515919f3d5c03",
      "v": 27,
      "creates": null,
      "raw": "0xf86c01850ba43b740082520894c47aaa860008be6f65b58c6c6e02a84e666efe31888ab1a49324f49dc0801ba0ae9e41429dd8399877c64a65a012ad29f414f6cb30b0a1e1984b1dc2aba95e99a037906836f1af362a72961242ad7f4b8fb0a5d49898a0ebc532e515919f3d5c03",
      "networkId": 0,
      "chainId": 0
    }
  ]
}