{
  "hash": "0x80b170f3e7860b358ef6501365ae65af41a426a52cac700f88d3a5e571545f2d",
  "parentHash": "0x32f5c8b5560c21b66f235af6827c78e13c641657d4b18b044842bc4a6d7f1cdd",
  "number": 64065,
  "timestamp": 1439214679,
  "nonce": "0xdcec96d2fc64ba6d",
  "difficulty": 1857560675662,
  "gasLimit": {
    "_hex": "0x2fefd8"
  },
  "gasUsed": {
    "_hex": "0x5208"
  },
  "miner": "0xEF247E639d49461D25F57e9362CadE3120910Ce0",
  "extraData": "0x476574682f76312e302e312f6c696e75782f676f312e342e32",
  "transactions": [
    {
      "hash": "0xb71a3f56b2977d1951b584b41b70273f02dd73d0170d155e10dd105adc0c972d",
      "blockHash": "0x80b170f3e7860b358ef6501365ae65af41a426a52cac700f88d3a5e571545f2d",
      "blockNumber": 64065,
      "transactionIndex": 0,
      "confirmations": null,
      "from": "0x097738363B1662599ad0777E19461601F5EC8dF9",
      "gasPrice": {
        "_hex": "0xd438a21a6"
      },
      "gasLimit": {
        "_hex": "0x5208"
      },
      "to": "0x32Be343B94f860124dC4fEe278FDCBD38C102D88",
      "value": {
        "_hex": "0xddc830189d43800"
      },
      "nonce": 2,
      "data": "0x",
      "r": "0xbff0f9c3ab3b64db92aa92ec4b07ad0c2b2ea65f2192fe0626ad5c7b9fae4a3b",
      "s": "0x63370ad71d9040b832fe80ed294e5614b8cf5fbd0188e0a2e315de00ff94af08",
      "v": 27,
      "creates": null,
      "raw": "0xf86c02850d438a21a68252089432be343b94f860124dc4fee278fdcbd38c102d88880ddc830189d43800801ba0bff0f9c3ab3b64db92aa92ec4b07ad0c2b2ea65f2192fe0626ad5c7b9fae4a3ba063370ad71d9040b832fe80ed294e5614b8cf5fbd0188e0a2e315de00ff94af08",
      "networkId": 0,
      "chainId": 0
    }
  ]
}