{
  "hash": "0x482bc6b0a9a3eba6e93165ad5fbc001b40fe2f262b546530dad01c0242a7715f",
  "parentHash": "0x97a99932327fb87652124ea0ce446e9ec47b6515b7b1ff07e39516232c83a507",
  "number": 68739,
  "timestamp": 1439292928,
  "nonce": "0x2fed405e91f06f4b",
  "difficulty": 2021152558544,
  "gasLimit": {
    "_hex": "0x2fefd8"
  },
  "gasUsed": {
    "_hex": "0x9400"
  },
  "miner": "0x154230ed91D1e711e56b9C0f88b5ba5fD2B0503f",
  "extraData": "0x59656c6c6f77206973206e6f74206d656c6c6f77",
  "transactions": [
    {
      "hash": "0x461edf0be70180de856baeb084d28047bc7bdb3a6c0e0a1e82ebd8fcbde390f2",
      "blockHash": "0x482bc6b0a9a3eba6e93165ad5fbc001b40fe2f262b546530dad01c0242a7715f",
      "blockNumber": 68739,
      "transactionIndex": 0,
      "confirmations": null,
      "from": "0xc8ebccC5F5689Fa8659d83713341e5aD19349448",
      "gasPrice": {
        "_hex": "0xd3601a2ae"
      },
      "gasLimit": {
        "_hex": "0x61a80"
      },
      "to": "0x5Fe5B7546D1628f7348B023A0393de1FC825A4fD",
      "value": {
        "_hex": "0xde0b6b3a7640000"
      },
      "nonce": 37,
      "data": "0xb595b8b50000000000000000000000000000000000000000000000000000000000000001",
      "r": "0x315a30285bb77f7a0e843e37410ac8bb66250af934c29ba2881c78316ef94983",
      "s": "0x2bf2e63a70003059b30dac33fd69b38b32e7ace24aa289835238ee359b808f44",
      "v": 28,
      "creates": null,
      "raw": "0xf89125850d3601a2ae83061a80945fe5b7546d1628f7348b023a0393de1fc825a4fd880de0b6b3a7640000a4b595b8b500000000000000000000000000000000000000000000000000000000000000011ca0315a30285bb77f7a0e843e37410ac8bb66250af934c29ba2881c78316ef94983a02bf2e63a70003059b30dac33fd69b38b32e7ace24aa289835238ee359b808f44",
      "networkId": 0,
      "chainId": 0
    }
  ]
}