{
  "hash": "0x35fad66cc8b3d33dc830241a84cb9b3df49e63aa6b5a655830a53eeccfe1cbde",
  "parentHash": "0x263dd3935b02af5f84b75e3285d13f92c451fb2ef6ddc188ff85004262236115",
  "number": 121636,
  "timestamp": 1440180102,
  "nonce": "0xea7f53f7b83bddc2",
  "difficulty": 4471192447162,
  "gasLimit": {
    "_hex": "0x2fefd8"
  },
  "gasUsed": {
    "_hex": "0x5208"
  },
  "miner": "0x9746c7e1ef2bd21FF3997fa467593a89cb852BD0",
  "extraData": "0x476574682f76312e302e312f77696e646f77732f676f312e342e32",
  "transactions": [
    {
      "hash": "0x032bcf46cd5632a3c0d9b11ec7a76a0a968a997a649309de9165f5905227278b",
      "blockHash": "0x35fad66cc8b3d33dc830241a84cb9b3df49e63aa6b5a655830a53eeccfe1cbde",
      "blockNumber": 121636,
      "transactionIndex": 0,
      "confirmations": null,
      "from": "0x7884D470204862a0d1A21122F41ee77430396Ee5",
      "gasPrice": {
        "_hex": "0xd10819ac5"
      },
      "gasLimit": {
        "_hex": "0x15f90"
      },
      "to": "0x1cE5d819B4F8ccAe022dE09D93aaeD19388727EA",
      "value": {
        "_hex": "0x16345785d8a0000"
      },
      "nonce": 116,
      "data": "0x",
      "r": "0x4fd3f0cd709042fc4fd36f6c86e87aa8b2c8e431494acbfd185d7724a71e8293",
      "s": "0x7d23f20dc631c75d9c6a1aa99019cb329d080cff84c07a555a7f684875644a58",
      "v": 28,
      "creates": null,
      "raw": "0xf86d74850d10819ac583015f90941ce5d819b4f8ccae022de09d93aaed19388727ea88016345785d8a0000801ca04fd3f0cd709042fc4fd36f6c86e87aa8b2c8e431494acbfd185d7724a71e8293a07d23f20dc631c75d9c6a1aa99019cb329d080cff84c07a555a7f684875644a58",
      "networkId": 0,
      "chainId": 0
    }
  ]
}