{
  "hash": "0x10849b9814377685671248f51b0f9d0165f74e84be27c865de8916a6c959ead5",
  "parentHash": "0xd8b9e71ea853a47e59f02795b87c6085e1ac6dfe0464bda4421ab91d136022df",
  "number": 71118,
  "timestamp": 1439331077,
  "nonce": "0xe040dde4e614a05d",
  "difficulty": 2145650826121,
  "gasLimit": {
    "_hex": "0x2fefd8"
  },
  "gasUsed": {
    "_hex": "0x5208"
  },
  "miner": "0x9D49F602b0fdb924Bd63DDE2Bd0907E4A07c63a7",
  "extraData": "0x476574682f76312e302e312f6c696e75782f676f312e342e32",
  "transactions": [
    {
      "hash": "0x6379a3654d4add76ca3c7b905e8c81bd0c85bb954904b7a3ee978bfd91fea164",
      "blockHash": "0x10849b9814377685671248f51b0f9d0165f74e84be27c865de8916a6c959ead5",
      "blockNumber": 71118,
      "transactionIndex": 0,
      "confirmations": null,
      "from": "0x2910543Af39abA0Cd09dBb2D50200b3E800A63D2",
      "gasPrice": {
        "_hex": "0xceb9c9e7f"
      },
      "gasLimit": {
        "_hex": "0x5208"
      },
      "to": "0x6a6D69d85A96de30FAFbc28Fe5560C221F0314E6",
      "value": {
        "_hex": "0x25f261cfc47d8f8000"
      },
      "nonce": 264,
      "data": "0x",
      "r": "0x479cf067e923ec0cf90c5b05cdfd48e574831ff5e347ce64100e6d9a16ec1421",
      "s": "0x7e9183263da438931153f466dc8d5aa123c516f0dc41304b3e79cd669d10a90b",
      "v": 27,
      "creates": null,
      "raw": "0xf86f820108850ceb9c9e7f825208946a6d69d85a96de30fafbc28fe5560c221f0314e68925f261cfc47d8f8000801ba0479cf067e923ec0cf90c5b05cdfd48e574831ff5e347ce64100e6d9a16ec1421a07e9183263da438931153f466dc8d5aa123c516f0dc41304b3e79cd669d10a90b",
      "networkId": 0,
      "chainId": 0
    }
  ]
}