{
  "hash": "0xd291ac2e4da2306a7091de045b40ed2668ccd763f55a3342afaa31b58c93a4a9",
  "parentHash": "0x94a5dfd95d64c12ea2189960fae3a7af6a69bfa7b1104456a1c7fd27a0b48e09",
  "number": 110780,
  "timestamp": 1439979361,
  "nonce": "0xcc237d81ed0d32cc",
  "difficulty": 4390389837527,
  "gasLimit": {
    "_hex": "0x2fefd8"
  },
  "gasUsed": {
    "_hex": "0x5208"
  },
  "miner": "0xe6A7a1d47ff21B6321162AEA7C6CB457D5476Bca",
  "extraData": "0x476574682f76312e302e312d38326566323666362f6c696e75782f676f312e34",
  "transactions": [
    {
      "hash": "0x99f92155d5f204468112567832a0082a0a6b4d43ee462fd0babfe3f535885b5f",
      "blockHash": "0xd291ac2e4da2306a7091de045b40ed2668ccd763f55a3342afaa31b58c93a4a9",
      "blockNumber": 110780,
      "transactionIndex": 0,
      "confirmations": null,
      "from": "0x007f7f58D3eb5b7510A301eCC749FC1fCDDBE14D",
      "gasPrice": {
        "_hex": "0xd382b0b9c"
      },
      "gasLimit": {
        "_hex": "0x15f90"
      },
      "to": "0xb1abce2918E21ddb93AA452731a12672A3d9F75a",
      "value": {
        "_hex": "0x4563918244f40000"
      },
      "nonce": 294,
      "data": "0x",
      "r": "0x646d4dbe82ba64c25637eb3405dad30204c7af8c1c47a03076a2cfa85ab2cc73",
      "s": "0x2c244caf3861444b972f956b7575ebe43e7a9bb7858e718282d99ae1e1212de2",
      "v": 27,
      "creates": null,
      "raw": "0xf86f820126850d382b0b9c83015f9094b1abce2918e21ddb93aa452731a12672a3d9f75a884563918244f40000801ba0646d4dbe82ba64c25637eb3405dad30204c7af8c1c47a03076a2cfa85ab2cc73a02c244caf3861444b972f956b7575ebe43e7a9bb7858e718282d99ae1e1212de2",
      "networkId": 0,
      "chainId": 0
    }
  ]
}