{
  "hash": "0xc4b40c4166cb51095b7325324b74929d568e839b93547e236ad541a8efe6e6a1",
  "parentHash": "0x75de199de6625f9ace2bb171494e3354d2298c611c036de5c84ce28afc652d02",
  "number": 60439,
  "timestamp": 1439155726,
  "nonce": "0xffcb55abb02014b2",
  "difficulty": 1735571987472,
  "gasLimit": {
    "_hex": "0x2fefd8"
  },
  "gasUsed": {
    "_hex": "0x5208"
  },
  "miner": "0xf8E0CA3Ed80bd541b94BEdCf259e8CF2141A9523",
  "extraData": "0x476574682f76312e302e312f77696e646f77732f676f312e342e32",
  "transactions": [
    {
      "hash": "0x2fecbfd7fe42f15abdd63774511d0341f46870e0820cdd006bae2c54dd896476",
      "blockHash": "0xc4b40c4166cb51095b7325324b74929d568e839b93547e236ad541a8efe6e6a1",
      "blockNumber": 60439,
      "transactionIndex": 0,
      "confirmations": null,
      "from": "0xBeb3B1d443791e4B2207a9866800E02DAcF19c02",
      "gasPrice": {
        "_hex": "0xd82182a4f"
      },
      "gasLimit": {
        "_hex": "0x15f90"
      },
      "to": "0x5804baCD8DEC367de4137ffaD580997311841369",
      "value": {
        "_hex": "0xb1a2bc2ec50000"
      },
      "nonce": 8,
      "data": "0x",
      "r": "0x68c5bcc44071072170848ba3a3b2329cc4005b54f27f2187413ee172c8fe1efd",
      "s": "0x31931c2fba15a70f5a9df896ec88d13007f27e6a3af9677bcd6ca3bd291583c9",
      "v": 28,
      "creates": null,
      "raw": "0xf86c08850d82182a4f83015f90945804bacd8dec367de4137ffad58099731184136987b1a2bc2ec50000801ca068c5bcc44071072170848ba3a3b2329cc4005b54f27f2187413ee172c8fe1efda031931c2fba15a70f5a9df896ec88d13007f27e6a3af9677bcd6ca3bd291583c9",
      "networkId": 0,
      "chainId": 0
    }
  ]
}