{
  "hash": "0xb759be9328c78d88ab0a2cf980e3df7e849934bb9d900c25871154e610377987",
  "parentHash": "0x89accb04bce5eb059f83fa26d052d213bd5ad2fe0ab7331227fa0b38ce572056",
  "number": 101344,
  "timestamp": 1439821531,
  "nonce": "0x3f12fc06d4b2fa75",
  "difficulty": 3803842050762,
  "gasLimit": {
    "_hex": "0x2fefd8"
  },
  "gasUsed": {
    "_hex": "0x5208"
  },
  "miner": "0xe6A7a1d47ff21B6321162AEA7C6CB457D5476Bca",
  "extraData": "0x476574682f76312e302e312d38326566323666362f6c696e75782f676f312e34",
  "transactions": [
    {
      "hash": "0x159b51eb9a986811f66c5ae0c44a27fdd87b6f645649c93a80dae0f68daad072",
      "blockHash": "0xb759be9328c78d88ab0a2cf980e3df7e849934bb9d900c25871154e610377987",
      "blockNumber": 101344,
      "transactionIndex": 0,
      "confirmations": null,
      "from": "0x63738Ec4C9adec404749B5747F3bbE2147de632F",
      "gasPrice": {
        "_hex": "0xd63537187"
      },
      "gasLimit": {
        "_hex": "0x15f90"
      },
      "to": "0x557C2806B6ceA65a66F415bb2Ed1ce897B340745",
      "value": {
        "_hex": "0x16345785d8a0000"
      },
      "nonce": 34,
      "data": "0x",
      "r": "0x58a4471f94cfd3e28f4b90379c08838f1a406a1b27cd61c8dd68009e0e9c24c5",
      "s": "0x1e617364b43670f04945b4da1f42bca6b629b32eec848638e85cc2557bf31a27",
      "v": 28,
      "creates": null,
      "raw": "0xf86d22850d6353718783015f9094557c2806b6cea65a66f415bb2ed1ce897b34074588016345785d8a0000801ca058a4471f94cfd3e28f4b90379c08838f1a406a1b27cd61c8dd68009e0e9c24c5a01e617364b43670f04945b4da1f42bca6b629b32eec848638e85cc2557bf31a27",
      "networkId": 0,
      "chainId": 0
    }
  ]
}