{
  "hash": "0x2d1aa074892ad91e5d5295b3c660ed32156e338afd580ccc7e55aa4c4799255e",
  "parentHash": "0x3e9f15e6e1c37f6e267a96c2e154501d58bc74ab4e0941a4206be2648535c4e1",
  "number": 79105,
  "timestamp": 1439464495,
  "nonce": "0xe855c0a8b088ed3d",
  "difficulty": 2316662383260,
  "gasLimit": {
    "_hex": "0x2fefd8"
  },
  "gasUsed": {
    "_hex": "0x802c8"
  },
  "miner": "0xDdf735543837695220A5fF5920f5756696840A5D",
  "extraData": "0x476574682f76312e302e312f6c696e75782f676f312e342e32",
  "transactions": [
    {
      "hash": "0xacd2b06baba5ae889a59b8e4ab1df10bb63a06ced9b11626c5cd14df7b150692",
      "blockHash": "0x2d1aa074892ad91e5d5295b3c660ed32156e338afd580ccc7e55aa4c4799255e",
      "blockNumber": 79105,
      "transactionIndex": 0,
      "confirmations": null,
      "from": "0xe72717ae0d6792286968449ABA7d469BCAE1d957",
      "gasPrice": {
        "_hex": "0xd4b3a0922"
      },
      "gasLimit": {
        "_hex": "0x5208"
      },
      "to": "0x32Be343B94f860124dC4fEe278FDCBD38C102D88",
      "value": {
        "_hex": "0x464fa117f01f4c00"
      },
      "nonce": 4,
      "data": "0x",
      "r": "0xd986b4bc266de8b9e5afb714b8e48785604628febade91accfaf5d092f59c3f3",
      "s": "0x42d68dc8312c907f85c2e1c9fbe7a470e4ecb97af1c7629aa3b2d4bf11f4e81d",
      "v": 27,
      "creates": null,
      "raw": "0xf86c04850d4b3a09228252089432be343b94f860124dc4fee278fdcbd38c102d8888464fa117f01f4c00801ba0d986b4bc266de8b9e5afb714b8e48785604628febade91accfaf5d092f59c3f3a042d68dc8312c907f85c2e1c9fbe7a470e4ecb97af1c7629aa3b2d4bf11f4e81d",
      "networkId": 0,
      "chainId": 0
    },
    {
      "hash": "0xec6f6900c702ee3e30b425fc220f66daba23ee566abfc78bdd786a641b99e942",
      "blockHash": "0x2d1aa074892ad91e5d5295b3c660ed32156e338afd580ccc7e55aa4c4799255e",
      "blockNumber": 79105,
      "transactionIndex": 1,
      "confirmations": null,
      "from": "0x96811Ad897894eC178872117C8BF2f03971A393B",
      "gasPrice": {
        "_hex": "0xd4b3a0922"
      },
      "gasLimit": {
        "_hex": "0x5208"
      },
      "to": "0x32Be343B94f860124dC4fEe278FDCBD38C102D88",
      "value": {
        "_hex": "0x7842afc425fc5400"
      },
      "nonce": 23,
      "data": "0x",
      "r": "0xc3e31637ff396418a62c257575f83d1ebed6148129b8538c5a6fd0871e0fb086",
      "s": "0x33904de7d3ae2ffbc0679b419c86b0062d2da64b19152f7c0caa1ffaa41b5ac2",
      "v": 27,
      "creates": null,
      "raw": "0xf86c17850d4b3a09228252089432be343b94f860124dc4fee278fdcbd38c102d88887842afc425fc5400801ba0c3e31637ff396418a62c257575f83d1ebed6148129b8538c5a6fd0871e0fb086a033904de7d3ae2ffbc0679b419c86b0062d2da64b19152f7c0caa1ffaa41b5ac2",
      "networkId": 0,
      "chainId": 0
    },
    {
      "hash": "0xf6cecb1f6622bc807d1708acefa5727b9b8bdf397bf543cc5b08b780632aeb47",
      "blockHash": "0x2d1aa074892ad91e5d5295b3c660ed32156e338afd580ccc7e55aa4c4799255e",
      "blockNumber": 79105,
      "transactionIndex": 2,
      "confirmations": null,
      "from": "0xD042e5C2443591c48f1FBa5F6bAf8E7193f454B9",
      "gasPrice": {
        "_hex": "0xd4b3a0922"
      },
      "gasLimit": {
        "_hex": "0x5208"
      },
      "to": "0x32Be343B94f860124dC4fEe278FDCBD38C102D88",
      "value": {
        "_hex": "0x35b2a3198d037000"
      },
      "nonce": 3,
      "data": "0x",
      "r": "0x41224041e8916525e174e2865eff82976671f491fa3252cbdb69234d7c1908b4",
      "s": "0x500807187e881c72804f831c28d738d7ba3fd9aff81e98c214fb83653666219a",
      "v": 27,
      "creates": null,
      "raw": "0xf86c03850d4b3a09228252089432be343b94f860124dc4fee278fdcbd38c102d888835b2a3198d037000801ba041224041e8916525e174e2865eff82976671f491fa3252cbdb69234d7c1908b4a0500807187e881c72804f831c28d738d7ba3fd9aff81e98c214fb83653666219a",
      "networkId": 0,
      "chainId": 0
    },
    {
      "hash": "0x2a2b9dabcda86eabc71adf59f789f0ed3432a1cbed1bfcbdf08d20751d462a08",
      "blockHash": "0x2d1aa074892ad91e5d5295b3c660ed32156e338afd580ccc7e55aa4c4799255e",
      "blockNumber": 79105,
      "transactionIndex": 3,
      "confirmations": null,
      "from": "0xF0224ea727d4924A8dd69a8d2d473Cc4c3590423",
      "gasPrice": {
        "_hex": "0xd4b3a0922"
      },
      "gasLimit": {
        "_hex": "0x5208"
      },
      "to": "0x32Be343B94f860124dC4fEe278FDCBD38C102D88",
      "value": {
        "_hex": "0x60abc58fc8e43c00"
      },
      "nonce": 6,
      "data": "0x",
      "r": "0x876927f57851ce0820ae81b71cb4e550771b27ec733d96175d9259cbbb4996e0",
      "s": "0x5b8ec1b8de90a9406635c15ab1a766daaf4bdb0f3d634638cf017f614f0a561b",
      "v": 28,
      "creates": null,
      "raw": "0xf86c06850d4b3a09228252089432be343b94f860124dc4fee278fdcbd38c102d888860abc58fc8e43c00801ca0876927f57851ce0820ae81b71cb4e550771b27ec733d96175d9259cbbb4996e0a05b8ec1b8de90a9406635c15ab1a766daaf4bdb0f3d634638cf017f614f0a561b",
      "networkId": 0,
      "chainId": 0
    },
    {
      "hash": "0xba68f4dde3b302cbe94e134674285927fd522858f15e3950fd93b41578e25131",
      "blockHash": "0x2d1aa074892ad91e5d5295b3c660ed32156e338afd580ccc7e55aa4c4799255e",
      "blockNumber": 79105,
      "transactionIndex": 4,
      "confirmations": null,
      "from": "0xBFdD9820a04283b289957956353b5F3C1F665EcF",
      "gasPrice": {
        "_hex": "0xd4b3a0922"
      },
      "gasLimit": {
        "_hex": "0x5208"
      },
      "to": "0x32Be343B94f860124dC4fEe278FDCBD38C102D88",
      "value": {
        "_hex": "0xb9825a2792aba000"
      },
      "nonce": 30,
      "data": "0x",
      "r": "0x2e757231bbff54eaa0ce7d178a0f92ff590dd0c7e3b039c1c3665363f73ff4da",
      "s": "0x6b7a2977ecc0a274eb832d633c5243adfa22bf8c4a7609e586e1ac161379d085",
      "v": 28,
      "creates": null,
      "raw": "0xf86c1e850d4b3a09228252089432be343b94f860124dc4fee278fdcbd38c102d8888b9825a2792aba000801ca02e757231bbff54eaa0ce7d178a0f92ff590dd0c7e3b039c1c3665363f73ff4daa06b7a2977ecc0a274eb832d633c5243adfa22bf8c4a7609e586e1ac161379d085",
      "networkId": 0,
      "chainId": 0
    },
    {
      "hash": "0x2ca482adf4daaa8acc8f86ffdb89dde5a5f45ef2a65f0a1ab9e10d13982ece7f",
      "blockHash": "0x2d1aa074892ad91e5d5295b3c660ed32156e338afd580ccc7e55aa4c4799255e",
      "blockNumber": 79105,
      "transactionIndex": 5,
      "confirmations": null,
      "from": "0x3234d29E2390E0Ac637B3ad0ACA3dF88aC82dC5d",
      "gasPrice": {
        "_hex": "0xd4b3a0922"
      },
      "gasLimit": {
        "_hex": "0x5208"
      },
      "to": "0x32Be343B94f860124dC4fEe278FDCBD38C102D88",
      "value": {
        "_hex": "0x792a6633bc524000"
      },
      "nonce": 5,
      "data": "0x",
      "r": "0x78573b95aeb279e8562bda8f99de192f77c8a8f4311b87ccb680037c9f4debe9",
      "s": "0x315dea62dadfd1c69506e13ccda1787bc63602e83f880037a8b67bb92f7ff72b",
      "v": 28,
      "creates": null,
      "raw": "0xf86c05850d4b3a09228252089432be343b94f860124dc4fee278fdcbd38c102d8888792a6633bc524000801ca078573b95aeb279e8562bda8f99de192f77c8a8f4311b87ccb680037c9f4debe9a0315dea62dadfd1c69506e13ccda1787bc63602e83f880037a8b67bb92f7ff72b",
      "networkId": 0,
      "chainId": 0
    },
    {
      "hash": "0x6dbf36d9706d2475b111648a673abd64bc658da54c746d8d7bf0753b371c337e",
      "blockHash": "0x2d1aa074892ad91e5d5295b3c660ed32156e338afd580ccc7e55aa4c4799255e",
      "blockNumber": 79105,
      "transactionIndex": 6,
      "confirmations": null,
      "from": "0xe6A7a1d47ff21B6321162AEA7C6CB457D5476Bca",
      "gasPrice": {
        "_hex": "0xd00bef1ee"
      },
      "gasLimit": {
        "_hex": "0x55f0"
      },
      "to": "0xF11940EA05aA9CC3F13aCF5C5cA6EDCF312E3Aec",
      "value": {
        "_hex": "0x14fd362a1b39c61d0"
      },
      "nonce": 1321,
      "data": "0x",
      "r": "0x032280ca401d085cb336066cafd3037267427b2bdb76c2923ca9fe128c592d05",
      "s": "0x0bca7967843c4be408fcc2de1cd3d0cf9ad61c6ed0614bcaecf25f7e5e775d79",
      "v": 27,
      "creates": null,
      "raw": "0xf86f820529850d00bef1ee8255f094f11940ea05aa9cc3f13acf5c5ca6edcf312e3aec89014fd362a1b39c61d0801ba0032280ca401d085cb336066cafd3037267427b2bdb76c2923ca9fe128c592d05a00bca7967843c4be408fcc2de1cd3d0cf9ad61c6ed0614bcaecf25f7e5e775d79",
      "networkId": 0,
      "chainId": 0
    },
    {
      "hash": "0xc5fc66bdbbbcec92fdda9fe34bd8554313f05cfea7e04a2b3581118cfb3bdf62",
      "blockHash": "0x2d1aa074892ad91e5d5295b3c660ed32156e338afd580ccc7e55aa4c4799255e",
      "blockNumber": 79105,
      "transactionIndex": 7,
      "confirmations": null,
      "from": "0xe6A7a1d47ff21B6321162AEA7C6CB457D5476Bca",
      "gasPrice": {
        "_hex": "0xd00bef1ee"
      },
      "gasLimit": {
        "_hex": "0x55f0"
      },
      "to": "0xd121f6B6DE47879cc29a8262cA01F7B4ACE9707e",
      "value": {
        "_hex": "0x1591e904b2dd38f20"
      },
      "nonce": 1322,
      "data": "0x",
      "r": "0x2cddc294d5458161576503e54e4a435636afba2a1ba87347a2a3003e271f6140",
      "s": "0x7839f1a8ca1d627c78f130d2b2db613a3e34a7d153969a33b32e948a9d09728c",
      "v": 28,
      "creates": null,
      "raw": "0xf86f82052a850d00bef1ee8255f094d121f6b6de47879cc29a8262ca01f7b4ace9707e8901591e904b2dd38f20801ca02cddc294d5458161576503e54e4a435636afba2a1ba87347a2a3003e271f6140a07839f1a8ca1d627c78f130d2b2db613a3e34a7d153969a33b32e948a9d09728c",
      "networkId": 0,
      "chainId": 0
    },
    {
      "hash": "0x745cfe371784cf834974b42bc4441a4b1d3c09a81bed4b596a6b50557d4fcaff",
      "blockHash": "0x2d1aa074892ad91e5d5295b3c660ed32156e338afd580ccc7e55aa4c4799255e",
      "blockNumber": 79105,
      "transactionIndex": 8,
      "confirmations": null,
      "from": "0xe6A7a1d47ff21B6321162AEA7C6CB457D5476Bca",
      "gasPrice": {
        "_hex": "0xd00bef1ee"
      },
      "gasLimit": {
        "_hex": "0x55f0"
      },
      "to": "0x06EC48800B2DB3eEfa052e98A9b5Fc2Bf783Ee74",
      "value": {
        "_hex": "0x15bd65c11680f0b50"
      },
      "nonce": 1323,
      "data": "0x",
      "r": "0x778d8728c2deb80a57208c404f2f2dc182217cd9adc335ef9f6da54498f42d18",
      "s": "0x2b0b55b2eefab00fc764b537ce0235e3fe30568ec1eec8597256934003ca2e4e",
      "v": 27,
      "creates": null,
      "raw": "0xf86f82052b850d00bef1ee8255f09406ec48800b2db3eefa052e98a9b5fc2bf783ee7489015bd65c11680f0b50801ba0778d8728c2deb80a57208c404f2f2dc182217cd9adc335ef9f6da54498f42d18a02b0b55b2eefab00fc764b537ce0235e3fe30568ec1eec8597256934003ca2e4e",
      "networkId": 0,
      "chainId": 0
    },
    {
      "hash": "0xe6fc82bf99a1a68979d4c464a32f17d8a6039cf0fdc4c8a18c47c5a2d0793a6b",
      "blockHash": "0x2d1aa074892ad91e5d5295b3c660ed32156e338afd580ccc7e55aa4c4799255e",
      "blockNumber": 79105,
      "transactionIndex": 9,
      "confirmations": null,
      "from": "0xe6A7a1d47ff21B6321162AEA7C6CB457D5476Bca",
      "gasPrice": {
        "_hex": "0xd00bef1ee"
      },
      "gasLimit": {
        "_hex": "0x55f0"
      },
      "to": "0xe7523F78ae9eDb81dC7B2A9ca718Ba3776C14f2e",
      "value": {
        "_hex": "0x1612e2ceda3740e98"
      },
      "nonce": 1324,
      "data": "0x",
      "r": "0xee14ae78566c8bc19d4bbd355e408196cce1fe438af69896e0695e38f7c65b41",
      "s": "0x1c706f58e696e9a500f4715b65a387e4495d359d65bd34d3757ee6cc72013973",
      "v": 27,
      "creates": null,
      "raw": "0xf86f82052c850d00bef1ee8255f094e7523f78ae9edb81dc7b2a9ca718ba3776c14f2e8901612e2ceda3740e98801ba0ee14ae78566c8bc19d4bbd355e408196cce1fe438af69896e0695e38f7c65b41a01c706f58e696e9a500f4715b65a387e4495d359d65bd34d3757ee6cc72013973",
      "networkId": 0,
      "chainId": 0
    },
    {
      "hash": "0x9f4623bd28996550029369471448b9218b462af643e9801c341e0b042ba8be5b",
      "blockHash": "0x2d1aa074892ad91e5d5295b3c660ed32156e338afd580ccc7e55aa4c4799255e",
      "blockNumber": 79105,
      "transactionIndex": 10,
      "confirmations": null,
      "from": "0xe6A7a1d47ff21B6321162AEA7C6CB457D5476Bca",
      "gasPrice": {
        "_hex": "0xd00bef1ee"
      },
      "gasLimit": {
        "_hex": "0x55f0"
      },
      "to": "0xf79785E5a846aCea08F94379fCCe79B1054bDB99",
      "value": {
        "_hex": "0x16273fd14dbb4b080"
      },
      "nonce": 1325,
      "data": "0x",
      "r": "0xe3cf938a8d9930de11545e54a0e0771fb4e3ce43cfd6ed4644a9e230a9a2a44c",
      "s": "0x011188aff9f09e45994cf0c0af651148c92c5e51c3f3b9f32eae8f2925909461",
      "v": 28,
      "creates": null,
      "raw": "0xf86f82052d850d00bef1ee8255f094f79785e5a846acea08f94379fcce79b1054bdb9989016273fd14dbb4b080801ca0e3cf938a8d9930de11545e54a0e0771fb4e3ce43cfd6ed4644a9e230a9a2a44ca0011188aff9f09e45994cf0c0af651148c92c5e51c3f3b9f32eae8f2925909461",
      "networkId": 0,
      "chainId": 0
    },
    {
      "hash": "0x5ed312c12c75e331bdd3eaa08242ce0fa799714fa940e57b324ea9619387f3c7",
      "blockHash": "0x2d1aa074892ad91e5d5295b3c660ed32156e338afd580ccc7e55aa4c4799255e",
      "blockNumber": 79105,
      "transactionIndex": 11,
      "confirmations": null,
      "from": "0xe6A7a1d47ff21B6321162AEA7C6CB457D5476Bca",
      "gasPrice": {
        "_hex": "0xd00bef1ee"
      },
      "gasLimit": {
        "_hex": "0x55f0"
      },
      "to": "0x48659D8f8C9A2FD44F68daA55d23A608FBE500DC",
      "value": {
        "_hex": "0x170af0a0e7db74178"
      },
      "nonce": 1326,
      "data": "0x",
      "r": "0x8a8fdf26d675921278568a114de38a72ad3a60db8d409ce9ff44e6ab8d8bf21e",
      "s": "0x4f8fc68a9f865d8794374844300232e4ed5812c1ea5c0884a0205728fc442f7d",
      "v": 28,
      "creates": null,
      "raw": "0xf86f82052e850d00bef1ee8255f09448659d8f8c9a2fd44f68daa55d23a608fbe500dc890170af0a0e7db74178801ca08a8fdf26d675921278568a114de38a72ad3a60db8d409ce9ff44e6ab8d8bf21ea04f8fc68a9f865d8794374844300232e4ed5812c1ea5c0884a0205728fc442f7d",
      "networkId": 0,
      "chainId": 0
    },
    {
      "hash": "0x8d00658993804d530ebce21ca25b2b366056a46ed6eac5eb3470e5dfb293f4c7",
      "blockHash": "0x2d1aa074892ad91e5d5295b3c660ed32156e338afd580ccc7e55aa4c4799255e",
      "blockNumber": 79105,
      "transactionIndex": 12,
      "confirmations": null,
      "from": "0xe6A7a1d47ff21B6321162AEA7C6CB457D5476Bca",
      "gasPrice": {
        "_hex": "0xd00bef1ee"
      },
      "gasLimit": {
        "_hex": "0x55f0"
      },
      "to": "0x271e8fC01E1C9E1621fD3d108e348450b2498541",
      "value": {
        "_hex": "0x179947e1e779201a8"
      },
      "nonce": 1327,
      "data": "0x",
      "r": "0xf3730d0f77087de0c21f4360c8074a1a539f969b40de4916508f2d2d0fca9de1",
      "s": "0x4784f897644dff851a075ba71e80297f9a1d2c7983586748e1684cf7d1f48762",
      "v": 27,
      "creates": null,
      "raw": "0xf86f82052f850d00bef1ee8255f094271e8fc01e1c9e1621fd3d108e348450b2498541890179947e1e779201a8801ba0f3730d0f77087de0c21f4360c8074a1a539f969b40de4916508f2d2d0fca9de1a04784f897644dff851a075ba71e80297f9a1d2c7983586748e1684cf7d1f48762",
      "networkId": 0,
      "chainId": 0
    },
    {
      "hash": "0xd6a51cda7e864034134f44c21d41bc085a7b67c85eb1539be3bfc91e2f3a3a33",
      "blockHash": "0x2d1aa074892ad91e5d5295b3c660ed32156e338afd580ccc7e55aa4c4799255e",
      "blockNumber": 79105,
      "transactionIndex": 13,
      "confirmations": null,
      "from": "0xe6A7a1d47ff21B6321162AEA7C6CB457D5476Bca",
      "gasPrice": {
        "_hex": "0xd00bef1ee"
      },
      "gasLimit": {
        "_hex": "0x55f0"
      },
      "to": "0x6541237dAaFf6688A79f9F2F370Ca0E7Ee20BD33",
      "value": {
        "_hex": "0x18501a68a8fdd2fc8"
      },
      "nonce": 1328,
      "data": "0x",
      "r": "0x6b58855e94d4d5385e0026dcb5369fa4535f4542871e7680ac4906e9534d3cf3",
      "s": "0x6f3eaa96a0058160d11a898e5a9d8946d7d4eb468ce83337b6bcec2ae09bc17c",
      "v": 28,
      "creates": null,
      "raw": "0xf86f820530850d00bef1ee8255f0946541237daaff6688a79f9f2f370ca0e7ee20bd3389018501a68a8fdd2fc8801ca06b58855e94d4d5385e0026dcb5369fa4535f4542871e7680ac4906e9534d3cf3a06f3eaa96a0058160d11a898e5a9d8946d7d4eb468ce83337b6bcec2ae09bc17c",
      "networkId": 0,
      "chainId": 0
    },
    {
      "hash": "0x82acaebb23287ef0ba62aeb31b64b6b3b476ad41d7affd5428e760926659ffe1",
      "blockHash": "0x2d1aa074892ad91e5d5295b3c660ed32156e338afd580ccc7e55aa4c4799255e",
      "blockNumber": 79105,
      "transactionIndex": 14,
      "confirmations": null,
      "from": "0xe6A7a1d47ff21B6321162AEA7C6CB457D5476Bca",
      "gasPrice": {
        "_hex": "0xd00bef1ee"
      },
      "gasLimit": {
        "_hex": "0x55f0"
      },
      "to": "0x701aE497d3522329870Ada714AA902424EA8Da01",
      "value": {
        "_hex": "0x188dc9448e499b510"
      },
      "nonce": 1329,
      "data": "0x",
      "r": "0x98b3e2e9663a0bc6f605dfb92f102442b829b804378b10bcc2341f0266f863c7",
      "s": "0x5b585914598f8241a9d95e69ae7326601aedcaedbb075c6ecd1aebd8dc4c3eb2",
      "v": 27,
      "creates": null,
      "raw": "0xf86f820531850d00bef1ee8255f094701ae497d3522329870ada714aa902424ea8da01890188dc9448e499b510801ba098b3e2e9663a0bc6f605dfb92f102442b829b804378b10bcc2341f0266f863c7a05b585914598f8241a9d95e69ae7326601aedcaedbb075c6ecd1aebd8dc4c3eb2",
      "networkId": 0,
      "chainId": 0
    },
    {
      "hash": "0x76c17c3ff404e058a6dfa95685736a06911fe6bca96f44c5fa964b825da43b66",
      "blockHash": "0x2d1aa074892ad91e5d5295b3c660ed32156e338afd580ccc7e55aa4c4799255e",
      "blockNumber": 79105,
      "transactionIndex": 15,
      "confirmations": null,
      "from": "0xe6A7a1d47ff21B6321162AEA7C6CB457D5476Bca",
      "gasPrice": {
        "_hex": "0xd00bef1ee"
      },
      "gasLimit": {
        "_hex": "0x55f0"
      },
      "to": "0x3B399fF2b96F27056Ab8a7f6e028b0dBaF386279",
      "value": {
        "_hex": "0x18a7e3da460c5a188"
      },
      "nonce": 1330,
      "data": "0x",
      "r": "0xbcb7eceb98b26d1affb761417870f52988fa05da61833baee6e8e1f2ca327862",
      "s": "0x2782fa3f8922a699e7bfaed6a29a5e4db35fea8f469e069dd50c4a5abf96c7cf",
      "v": 27,
      "creates": null,
      "raw": "0xf86f820532850d00bef1ee8255f0943b399ff2b96f27056ab8a7f6e028b0dbaf38627989018a7e3da460c5a188801ba0bcb7eceb98b26d1affb761417870f52988fa05da61833baee6e8e1f2ca327862a02782fa3f8922a699e7bfaed6a29a5e4db35fea8f469e069dd50c4a5abf96c7cf",
      "networkId": 0,
      "chainId": 0
    },
    {
      "hash": "0x04a49f4806dcce846543f847bcdd32ae7c7db3d8cca652fb9a127ab58da215aa",
      "blockHash": "0x2d1aa074892ad91e5d5295b3c660ed32156e338afd580ccc7e55aa4c4799255e",
      "blockNumber": 79105,
      "transactionIndex": 16,
      "confirmations": null,
      "from": "0xe6A7a1d47ff21B6321162AEA7C6CB457D5476Bca",
      "gasPrice": {
        "_hex": "0xd00bef1ee"
      },
      "gasLimit": {
        "_hex": "0x55f0"
      },
      "to": "0x52191276589069F70F0E46bcCc718d793d1Aa1D0",
      "value": {
        "_hex": "0x19352c4300353ae10"
      },
      "nonce": 1331,
      "data": "0x",
      "r": "0xacc9d0b9c4bef70833285a21506c30e5479e5495ff2fa64b6280c6bb2d615816",
      "s": "0x5a5d069f108e942ccabb471480e38919ee91ba3dc5e0f1aab2c95bb5b4caa8f9",
      "v": 27,
      "creates": null,
      "raw": "0xf86f820533850d00bef1ee8255f09452191276589069f70f0e46bccc718d793d1aa1d089019352c4300353ae10801ba0acc9d0b9c4bef70833285a21506c30e5479e5495ff2fa64b6280c6bb2d615816a05a5d069f108e942ccabb471480e38919ee91ba3dc5e0f1aab2c95bb5b4caa8f9",
      "networkId": 0,
      "chainId": 0
    },
    {
      "hash": "0xd53d7be869add4be2a7e04ab540c7ba67f409c4ef95acc281a3c1405598f89da",
      "blockHash": "0x2d1aa074892ad91e5d5295b3c660ed32156e338afd580ccc7e55aa4c4799255e",
      "blockNumber": 79105,
      "transactionIndex": 17,
      "confirmations": null,
      "from": "0xe6A7a1d47ff21B6321162AEA7C6CB457D5476Bca",
      "gasPrice": {
        "_hex": "0xd00bef1ee"
      },
      "gasLimit": {
        "_hex": "0x55f0"
      },
      "to": "0x1CaC89419da71AC175A5B99CEE0163720430990c",
      "value": {
        "_hex": "0x19395a32452733108"
      },
      "nonce": 1332,
      "data": "0x",
      "r": "0x0235cc75d81bcfdc6adbbaa3d6a0a55c4f1ad9a5ee3ac5d27d375f31792e3636",
      "s": "0x0ac55f94374640bcefe66ccf5aacffba49fc59bf6ab9d26fe43c9cc001b9384b",
      "v": 27,
      "creates": null,
      "raw": "0xf86f820534850d00bef1ee8255f0941cac89419da71ac175a5b99cee0163720430990c89019395a32452733108801ba00235cc75d81bcfdc6adbbaa3d6a0a55c4f1ad9a5ee3ac5d27d375f31792e3636a00ac55f94374640bcefe66ccf5aacffba49fc59bf6ab9d26fe43c9cc001b9384b",
      "networkId": 0,
      "chainId": 0
    },
    {
      "hash": "0x84d21110c9032c29601623ff27f5365902e6b00a89ffc89b2665dcd1559c4fb2",
      "blockHash": "0x2d1aa074892ad91e5d5295b3c660ed32156e338afd580ccc7e55aa4c4799255e",
      "blockNumber": 79105,
      "transactionIndex": 18,
      "confirmations": null,
      "from": "0xe6A7a1d47ff21B6321162AEA7C6CB457D5476Bca",
      "gasPrice": {
        "_hex": "0xd00bef1ee"
      },
      "gasLimit": {
        "_hex": "0x55f0"
      },
      "to": "0x93b3437645A67059E280a3317a93c57e2f4788EA",
      "value": {
        "_hex": "0x1996acf9caa6ccc00"
      },
      "nonce": 1333,
      "data": "0x",
      "r": "0xa8fa62acdcf4d8c11f194f4ce8be442b747421b602e15743a2c3f2e8c98a500f",
      "s": "0x7a3e5e8239ca1fd1310f614c7b6d3cd494bee93f2c37cc60ff1dc4a3ee44fef6",
      "v": 28,
      "creates": null,
      "raw": "0xf86f820535850d00bef1ee8255f09493b3437645a67059e280a3317a93c57e2f4788ea8901996acf9caa6ccc00801ca0a8fa62acdcf4d8c11f194f4ce8be442b747421b602e15743a2c3f2e8c98a500fa07a3e5e8239ca1fd1310f614c7b6d3cd494bee93f2c37cc60ff1dc4a3ee44fef6",
      "networkId": 0,
      "chainId": 0
    },
    {
      "hash": "0x294b860f12285ce659d221de5c2fe10aa578fe4cfe9069872b8f3aae48d6a239",
      "blockHash": "0x2d1aa074892ad91e5d5295b3c660ed32156e338afd580ccc7e55aa4c4799255e",
      "blockNumber": 79105,
      "transactionIndex": 19,
      "confirmations": null,
      "from": "0xe6A7a1d47ff21B6321162AEA7C6CB457D5476Bca",
      "gasPrice": {
        "_hex": "0xd00bef1ee"
      },
      "gasLimit": {
        "_hex": "0x55f0"
      },
      "to": "0x6CB5e8313a5B29aDb14AE1884D3EcE4489d02D77",
      "value": {
        "_hex": "0x1a44e34d86e4db150"
      },
      "nonce": 1334,
      "data": "0x",
      "r": "0x1499cbdb02b6b216efb6f92fb8b68df3694f8d1ff4cb1685bee7cc612b9d21b7",
      "s": "0x57522d2152b8dd935e233a8739c1c62f65694c23e81b590f14a32db5af07ac4f",
      "v": 27,
      "creates": null,
      "raw": "0xf86f820536850d00bef1ee8255f0946cb5e8313a5b29adb14ae1884d3ece4489d02d778901a44e34d86e4db150801ba01499cbdb02b6b216efb6f92fb8b68df3694f8d1ff4cb1685bee7cc612b9d21b7a057522d2152b8dd935e233a8739c1c62f65694c23e81b590f14a32db5af07ac4f",
      "networkId": 0,
      "chainId": 0
    },
    {
      "hash": "0x70323ad6a5994cbc7aa15e8c4fe82c66bca93a65c4c684840cdea8324fe10862",
      "blockHash": "0x2d1aa074892ad91e5d5295b3c660ed32156e338afd580ccc7e55aa4c4799255e",
      "blockNumber": 79105,
      "transactionIndex": 20,
      "confirmations": null,
      "from": "0xe6A7a1d47ff21B6321162AEA7C6CB457D5476Bca",
      "gasPrice": {
        "_hex": "0xd00bef1ee"
      },
      "gasLimit": {
        "_hex": "0x55f0"
      },
      "to": "0x771b12Bc207A1c4823e77075B17F8D329ACD77A3",
      "value": {
        "_hex": "0x1a6aefdee1bf6efd8"
      },
      "nonce": 1335,
      "data": "0x",
      "r": "0xd1cfb3429ccd12064c782c0a81efe25994d91e6cc04a187ffd22fb0a4948c051",
      "s": "0x54a166585678f770bfcd6718d28cf07441e03ac2c7d40be9b655bd2e4ee0358d",
      "v": 27,
      "creates": null,
      "raw": "0xf86f820537850d00bef1ee8255f094771b12bc207a1c4823e77075b17f8d329acd77a38901a6aefdee1bf6efd8801ba0d1cfb3429ccd12064c782c0a81efe25994d91e6cc04a187ffd22fb0a4948c051a054a166585678f770bfcd6718d28cf07441e03ac2c7d40be9b655bd2e4ee0358d",
      "networkId": 0,
      "chainId": 0
    },
    {
      "hash": "0xa0190a941913a0db1df8a47e82604c9af0f9a3a1d4d768d86eb8d0a19bc2a284",
      "blockHash": "0x2d1aa074892ad91e5d5295b3c660ed32156e338afd580ccc7e55aa4c4799255e",
      "blockNumber": 79105,
      "transactionIndex": 21,
      "confirmations": null,
      "from": "0xe6A7a1d47ff21B6321162AEA7C6CB457D5476Bca",
      "gasPrice": {
        "_hex": "0xd00bef1ee"
      },
      "gasLimit": {
        "_hex": "0x55f0"
      },
      "to": "0xBA7933704d52A3e7fdBb5B5deD29e45213EA1111",
      "value": {
        "_hex": "0x1ac0b98d18b2490b0"
      },
      "nonce": 1336,
      "data": "0x",
      "r": "0xbfe2b4bf78c90c8a5b09d4bcd04624ff826844cb4d456d558bbd787668ffc261",
      "s": "0x3220fbf970ebbe0243499e0b59e6e0da9c4180790729699fe9ebc31a2bb701e1",
      "v": 27,
      "creates": null,
      "raw": "0xf86f820538850d00bef1ee8255f094ba7933704d52a3e7fdbb5b5ded29e45213ea11118901ac0b98d18b2490b0801ba0bfe2b4bf78c90c8a5b09d4bcd04624ff826844cb4d456d558bbd787668ffc261a03220fbf970ebbe0243499e0b59e6e0da9c4180790729699fe9ebc31a2bb701e1",
      "networkId": 0,
      "chainId": 0
    },
    {
      "hash": "0x19909e353455cf9f8287a7e57df3f8e27a71878a617f6c58ea0ca75825d30fbd",
      "blockHash": "0x2d1aa074892ad91e5d5295b3c660ed32156e338afd580ccc7e55aa4c4799255e",
      "blockNumber": 79105,
      "transactionIndex": 22,
      "confirmations": null,
      "from": "0xe6A7a1d47ff21B6321162AEA7C6CB457D5476Bca",
      "gasPrice": {
        "_hex": "0xd00bef1ee"
      },
      "gasLimit": {
        "_hex": "0x55f0"
      },
      "to": "0xB5EDD17d2582A94610ebf0C6832c1652EBBBe210",
      "value": {
        "_hex": "0x1b5e37c8b171be770"
      },
      "nonce": 1337,
      "data": "0x",
      "r": "0xeca98f30e052c59657c15a6e3415a9337b616dce523d5e935016b824c70b0475",
      "s": "0x6754a78d653d4ea36e64ba2eb38542117d9627f8144fc15fd9dcb8adb43c0f53",
      "v": 27,
      "creates": null,
      "raw": "0xf86f820539850d00bef1ee8255f094b5edd17d2582a94610ebf0c6832c1652ebbbe2108901b5e37c8b171be770801ba0eca98f30e052c59657c15a6e3415a9337b616dce523d5e935016b824c70b0475a06754a78d653d4ea36e64ba2eb38542117d9627f8144fc15fd9dcb8adb43c0f53",
      "networkId": 0,
      "chainId": 0
    },
    {
      "hash": "0x4b0aef0cab17003c402f7e7227d862fc8629291ae5e1ff000c439e3549a0886e",
      "blockHash": "0x2d1aa074892ad91e5d5295b3c660ed32156e338afd580ccc7e55aa4c4799255e",
      "blockNumber": 79105,
      "transactionIndex": 23,
      "confirmations": null,
      "from": "0xe6A7a1d47ff21B6321162AEA7C6CB457D5476Bca",
      "gasPrice": {
        "_hex": "0xd00bef1ee"
      },
      "gasLimit": {
        "_hex": "0x55f0"
      },
      "to": "0xc7704Fc5c51C7a5f1a6574b0014b58C8915BA55C",
      "value": {
        "_hex": "0x1cd3e77cc168b49a0"
      },
      "nonce": 1338,
      "data": "0x",
      "r": "0xa758ac2cce9698d7254fb58c72e8524cb9a771cc7bab1c13b47af4fadc928694",
      "s": "0x0f1292a8297896fa71f50aab13b2e73473af37583bb07886358d1e345d2e07d3",
      "v": 28,
      "creates": null,
      "raw": "0xf86f82053a850d00bef1ee8255f094c7704fc5c51c7a5f1a6574b0014b58c8915ba55c8901cd3e77cc168b49a0801ca0a758ac2cce9698d7254fb58c72e8524cb9a771cc7bab1c13b47af4fadc928694a00f1292a8297896fa71f50aab13b2e73473af37583bb07886358d1e345d2e07d3",
      "networkId": 0,
      "chainId": 0
    },
    {
      "hash": "0x80ca08ab03b72611a4eeca78f34ee9104d32285615372cd381b5f774bad5350d",
      "blockHash": "0x2d1aa074892ad91e5d5295b3c660ed32156e338afd580ccc7e55aa4c4799255e",
      "blockNumber": 79105,
      "transactionIndex": 24,
      "confirmations": null,
      "from": "0xe6A7a1d47ff21B6321162AEA7C6CB457D5476Bca",
      "gasPrice": {
        "_hex": "0xd00bef1ee"
      },
      "gasLimit": {
        "_hex": "0x55f0"
      },
      "to": "0x123843545FB525C8E134c9A5F15ADA6865cc3848",
      "value": {
        "_hex": "0x1daafb02cd2367f78"
      },
      "nonce": 1339,
      "data": "0x",
      "r": "0x9f6e5211c03d0d53d40496216bceaad02fd572ea6309ce677c32029c630ef506",
      "s": "0x4755b7f93e6ffa2c29c23c4f44859eaa9c185c87411cf754b68ee1ceca79176e",
      "v": 27,
      "creates": null,
      "raw": "0xf86f82053b850d00bef1ee8255f094123843545fb525c8e134c9a5f15ada6865cc38488901daafb02cd2367f78801ba09f6e5211c03d0d53d40496216bceaad02fd572ea6309ce677c32029c630ef506a04755b7f93e6ffa2c29c23c4f44859eaa9c185c87411cf754b68ee1ceca79176e",
      "networkId": 0,
      "chainId": 0
    }
  ]
}