{
  "hash": "0x60b73fe16a9b146550b1a39f8837ff9f6935136dfc25ef6162e643b856149f6f",
  "parentHash": "0xc742995d5471ed1f3930919961e43f33207aa4b2727e00b94e15e65ae2f8d3d8",
  "number": 106730,
  "timestamp": 1439909458,
  "nonce": "0xf9c58066f9112c12",
  "difficulty": 4452976273708,
  "gasLimit": {
    "_hex": "0x2fefd8"
  },
  "gasUsed": {
    "_hex": "0x5208"
  },
  "miner": "0xe6A7a1d47ff21B6321162AEA7C6CB457D5476Bca",
  "extraData": "0x476574682f76312e302e312d38326566323666362f6c696e75782f676f312e34",
  "transactions": [
    {
      "hash": "0x0c2504a52a36a0c22e45526991eb953456dc72134e318691ae2d6b2d0e227f15",
      "blockHash": "0x60b73fe16a9b146550b1a39f8837ff9f6935136dfc25ef6162e643b856149f6f",
      "blockNumber": 106730,
      "transactionIndex": 0,
      "confirmations": null,
      "from": "0x229f76DdF9053EEb247D1aB455af64e6D26029b8",
      "gasPrice": {
        "_hex": "0xe253e59cb"
      },
      "gasLimit": {
        "_hex": "0x15f90"
      },
      "to": "0xDA4E0Ba268486216E0B3Ad5ccEAa1E7EdB1C2751",
      "value": {
        "_hex": "0x1a055690d9db80000"
      },
      "nonce": 2,
      "data": "0x",
      "r": "0xde38918dd974528302c0334a5a231bfd7ad8f8ae24ac63e6ce5812e190437f57",
      "s": "0x4fb3e2163959044a0f61ab3cf390e4146820905a33286299a0e7dd86c8dce8c9",
      "v": 28,
      "creates": null,
      "raw": "0xf86e02850e253e59cb83015f9094da4e0ba268486216e0b3ad5cceaa1e7edb1c27518901a055690d9db80000801ca0de38918dd974528302c0334a5a231bfd7ad8f8ae24ac63e6ce5812e190437f57a04fb3e2163959044a0f61ab3cf390e4146820905a33286299a0e7dd86c8dce8c9",
      "networkId": 0,
      "chainId": 0
    }
  ]
}