{
  "hash": "0xd5092dfa52e70d9780075db96ac52b2221e70379f20805e1ab82d79daf258b08",
  "parentHash": "0x3602987c508b410c2ecd097a0c307c476a033dfe78f1d606ed0e4cc1f5a90aaa",
  "number": 86123,
  "timestamp": 1439573755,
  "nonce": "0xcd81005643ec2ac9",
  "difficulty": 2813990060435,
  "gasLimit": {
    "_hex": "0x2fefd8"
  },
  "gasUsed": {
    "_hex": "0x5208"
  },
  "miner": "0x47ff6576639c2e94762eA5443978D7681C0E78DC",
  "extraData": "0x476574682f76312e302e312f6c696e75782f676f312e342e32",
  "transactions": [
    {
      "hash": "0xbf6263380d138e595d88596dc2cbcd2fbe1fb4d64510b0e69774bc9022bd7506",
      "blockHash": "0xd5092dfa52e70d9780075db96ac52b2221e70379f20805e1ab82d79daf258b08",
      "blockNumber": 86123,
      "transactionIndex": 0,
      "confirmations": null,
      "from": "0xE89dA96e06beAF6bD880B378f0680c43FD2e9D30",
      "gasPrice": {
        "_hex": "0xba43b7400"
      },
      "gasLimit": {
        "_hex": "0x9965e"
      },
      "to": "0x31aCE57663745018691075bcf128248DBf5afB9E",
      "value": {
        "_hex": "0x2386f26fc10000"
      },
      "nonce": 0,
      "data": "0x",
      "r": "0xed719c609115ae40083600034cb529b530040c06e0567f722fc21bd8a2b489ea",
      "s": "0x69affec9bd63a36e51dda340f7267da84c65c7b6bf8a734e8092624ba7fe2ddf",
      "v": 27,
      "creates": null,
      "raw": "0xf86c80850ba43b74008309965e9431ace57663745018691075bcf128248dbf5afb9e872386f26fc10000801ba0ed719c609115ae40083600034cb529b530040c06e0567f722fc21bd8a2b489eaa069affec9bd63a36e51dda340f7267da84c65c7b6bf8a734e8092624ba7fe2ddf",
      "networkId": 0,
      "chainId": 0
    }
  ]
}