{
  "hash": "0xa09a4a876aa0eb22a37df2eee6627534a9aec892418f8b2a24fd5a092decf9e3",
  "parentHash": "0x64d3f4ea099a84c0930b21981c90ac012d30e447a7882e7e0b28201ea959a83a",
  "number": 119470,
  "timestamp": 1440143618,
  "nonce": "0xd6f81ef5911b3ec4",
  "difficulty": 4390129204194,
  "gasLimit": {
    "_hex": "0x2fefd8"
  },
  "gasUsed": {
    "_hex": "0x5208"
  },
  "miner": "0xbb7B8287f3F0a933474a79eAe42CBCa977791171",
  "extraData": "0xd783010003844765746887676f312e342e32856c696e7578",
  "transactions": [
    {
      "hash": "0x86d8a033a74585dcb646e9667a52b9c58de07e7a603c908168919a843a7bf145",
      "blockHash": "0xa09a4a876aa0eb22a37df2eee6627534a9aec892418f8b2a24fd5a092decf9e3",
      "blockNumber": 119470,
      "transactionIndex": 0,
      "confirmations": null,
      "from": "0xb2e4017063376d7eb1a72d91EC8Ff38712ffebdF",
      "gasPrice": {
        "_hex": "0xba43b7400"
      },
      "gasLimit": {
        "_hex": "0x5208"
      },
      "to": "0x32Be343B94f860124dC4fEe278FDCBD38C102D88",
      "value": {
        "_hex": "0x5383b879b7201000"
      },
      "nonce": 5,
      "data": "0x",
      "r": "0x65720c99c252ced34fd2f84b06881491e438a79a556d73b9c26e04804ad4005f",
      "s": "0x69cdb736539ed5a0b2a4a6246f7e5d3167cabc19b012e2d3c2816e7661f7fbe3",
      "v": 28,
      "creates": null,
      "raw": "0xf86c05850ba43b74008252089432be343b94f860124dc4fee278fdcbd38c102d88885383b879b7201000801ca065720c99c252ced34fd2f84b06881491e438a79a556d73b9c26e04804ad4005fa069cdb736539ed5a0b2a4a6246f7e5d3167cabc19b012e2d3c2816e7661f7fbe3",
      "networkId": 0,
      "chainId": 0
    }
  ]
}