{
  "hash": "0x2b14140602605eef241d45c43e8d841fde032d951bb6ff7e0914b6535f985ead",
  "parentHash": "0xfefa86b32be9a9083f548482ce39f0cc1fd421d4dd90ed91b6cfa0d3acd2b2fe",
  "number": 57614,
  "timestamp": 1439106454,
  "nonce": "0xa3abc016019f83ab",
  "difficulty": 1735309042201,
  "gasLimit": {
    "_hex": "0x2fefd8"
  },
  "gasUsed": {
    "_hex": "0x5208"
  },
  "miner": "0x68BCeBFB3DCad8a30a3a72d5b81f47De7e8bE48D",
  "extraData": "0x476574682f76312e302e312f6c696e75782f676f312e342e32",
  "transactions": [
    {
      "hash": "0x85bc1bce634ec5b66d7c13ed6189fb3a67eb7f71f607791e41d0a6ffe4ac2c19",
      "blockHash": "0x2b14140602605eef241d45c43e8d841fde032d951bb6ff7e0914b6535f985ead",
      "blockNumber": 57614,
      "transactionIndex": 0,
      "confirmations": null,
      "from": "0xCadcea36EC3feB740167E4370777fab1549F8759",
      "gasPrice": {
        "_hex": "0xcff0486f3"
      },
      "gasLimit": {
        "_hex": "0x5208"
      },
      "to": "0x32Be343B94f860124dC4fEe278FDCBD38C102D88",
      "value": {
        "_hex": "0x11c7a774dcf0aa000"
      },
      "nonce": 1,
      "data": "0x",
      "r": "0x82d50f638fbaa5eb402722cb42c9a3ee2d42d9acc0f8f29110d384afe7a7a8a2",
      "s": "0x26702f81e5a456cd423e1c08cad513ff3481457cafc5d2bc58070cb6a5113efc",
      "v": 28,
      "creates": null,
      "raw": "0xf86d01850cff0486f38252089432be343b94f860124dc4fee278fdcbd38c102d8889011c7a774dcf0aa000801ca082d50f638fbaa5eb402722cb42c9a3ee2d42d9acc0f8f29110d384afe7a7a8a2a026702f81e5a456cd423e1c08cad513ff3481457cafc5d2bc58070cb6a5113efc",
      "networkId": 0,
      "chainId": 0
    }
  ]
}