{
  "hash": "0xca4b20f2c4f03912f8ca8b34a607d82b77e7b152d4be4b163ef823f1bde3d407",
  "parentHash": "0x646b7829f69fa4381c183f892997629673d276c70bcb568a1eb2d658e0b802c0",
  "number": 80293,
  "timestamp": 1439483207,
  "nonce": "0x828ee61eea3e15e7",
  "difficulty": 2380545477038,
  "gasLimit": {
    "_hex": "0x2fefd8"
  },
  "gasUsed": {
    "_hex": "0xaa37"
  },
  "miner": "0x458F183347F45a4001807728A89F31E9Da9D4A58",
  "extraData": "0x476574682f76312e302e312d38326566323666362f6c696e75782f676f312e34",
  "transactions": [
    {
      "hash": "0x37a32a110ad8f19916e8e4ead174acaae6d6c26ac6a2f58ef72e7a08cadf03c7",
      "blockHash": "0xca4b20f2c4f03912f8ca8b34a607d82b77e7b152d4be4b163ef823f1bde3d407",
      "blockNumber": 80293,
      "transactionIndex": 0,
      "confirmations": null,
      "from": "0x87C5B5874A18B4306DF8a752a6C8cc3E82daFc19",
      "gasPrice": {
        "_hex": "0xfe9e5d95d8"
      },
      "gasLimit": {
        "_hex": "0x493e0"
      },
      "to": "0xC4c51de1AbF5D60DBd329eC0F999Fd8f021ae9fC",
      "value": {
        "_hex": "0x0"
      },
      "nonce": 165,
      "data": "0x03750d9400000000000000000000000087c5b5874a18b4306df8a752a6c8cc3e82dafc196b6b6b0000000000000000000000000000000000000000000000000000000000",
      "r": "0x56f9cd260659e1d35d1438ef4114699c03fe135b9716d48f8ed8bcbd212c55bc",
      "s": "0x6b40aac4eea8278fd6bc7454b054d1c6187b3e75edd6b9b9b376e254837ffaab",
      "v": 27,
      "creates": null,
      "raw": "0xf8ab81a585fe9e5d95d8830493e094c4c51de1abf5d60dbd329ec0f999fd8f021ae9fc80b84403750d9400000000000000000000000087c5b5874a18b4306df8a752a6c8cc3e82dafc196b6b6b00000000000000000000000000000000000000000000000000000000001ba056f9cd260659e1d35d1438ef4114699c03fe135b9716d48f8ed8bcbd212c55bca06b40aac4eea8278fd6bc7454b054d1c6187b3e75edd6b9b9b376e254837ffaab",
      "networkId": 0,
      "chainId": 0
    }
  ]
}