{
  "hash": "0x81c56f79c88e56b1d23f6fb67c76ab10b09a888a2d91f45d6d6cadecf042caaf",
  "parentHash": "0x160a6df2b959fd0b051fb5d10f7db42336c5de00d64c568d5c542804e27758cb",
  "number": 85876,
  "timestamp": 1439570147,
  "nonce": "0x82ca7898dd456c0a",
  "difficulty": 2782646356093,
  "gasLimit": {
    "_hex": "0x2fefd8"
  },
  "gasUsed": {
    "_hex": "0x5208"
  },
  "miner": "0x785ffdDd5cE55c6DF963f345e68d3F2024E5Acb1",
  "extraData": "0x",
  "transactions": [
    {
      "hash": "0x73e7b27c63a3bd4cb45b3b17d92ef79555d550b6884eeaf5da338d7a72129e7f",
      "blockHash": "0x81c56f79c88e56b1d23f6fb67c76ab10b09a888a2d91f45d6d6cadecf042caaf",
      "blockNumber": 85876,
      "transactionIndex": 0,
      "confirmations": null,
      "from": "0x7E81f6449a03374191f3b7CB05d938b72e090DFf",
      "gasPrice": {
        "_hex": "0xdc1a819c3"
      },
      "gasLimit": {
        "_hex": "0x15f90"
      },
      "to": "0xAD6Ca8714649EF78661Bd275407FF50064C657a4",
      "value": {
        "_hex": "0x410b16f41fdf21e20"
      },
      "nonce": 1,
      "data": "0x",
      "r": "0x7c6d7ccd0b03ff5102a00b6c4176e5a18cb756772b4c0cc20619a66ad08aef35",
      "s": "0x2e740290c3e3641759de9202a6bb1afac93f7ccb1e4a92263f9316d192d455a9",
      "v": 28,
      "creates": null,
      "raw": "0xf86e01850dc1a819c383015f9094ad6ca8714649ef78661bd275407ff50064c657a4890410b16f41fdf21e20801ca07c6d7ccd0b03ff5102a00b6c4176e5a18cb756772b4c0cc20619a66ad08aef35a02e740290c3e3641759de9202a6bb1afac93f7ccb1e4a92263f9316d192d455a9",
      "networkId": 0,
      "chainId": 0
    }
  ]
}