{
  "hash": "0x87139e6c3663dbf7968bf64e7b93815a9003475aa43bcbf8e24e3a0294be8c8b",
  "parentHash": "0x9114f48dfd31c6ade41225664e818f72abe5440e86cf1c4d167a71370f9816b1",
  "number": 56199,
  "timestamp": 1439083425,
  "nonce": "0x694d4bc88b706bdf",
  "difficulty": 1645643578027,
  "gasLimit": {
    "_hex": "0x2fefd5"
  },
  "gasUsed": {
    "_hex": "0x5208"
  },
  "miner": "0x9D49F602b0fdb924Bd63DDE2Bd0907E4A07c63a7",
  "extraData": "0x476574682f76312e302e312f6c696e75782f676f312e342e32",
  "transactions": [
    {
      "hash": "0x95c98fc49345c23871b2078f25de2215cca1e325e553294e79a218f42fd5d396",
      "blockHash": "0x87139e6c3663dbf7968bf64e7b93815a9003475aa43bcbf8e24e3a0294be8c8b",
      "blockNumber": 56199,
      "transactionIndex": 0,
      "confirmations": null,
      "from": "0x910a4aADabb3A7B3F7879118332E13Da66b68D77",
      "gasPrice": {
        "_hex": "0xcc1290e50"
      },
      "gasLimit": {
        "_hex": "0x5208"
      },
      "to": "0x32Be343B94f860124dC4fEe278FDCBD38C102D88",
      "value": {
        "_hex": "0xd026aa914a725000"
      },
      "nonce": 4,
      "data": "0x",
      "r": "0x0855103488bd08d8b42475d72098e2a4e0c65c1581fb31fec8993ecf2d00ba87",
      "s": "0x164ff4ffe5940317b70b4b3218168da524e19f6bee043cf8429ba83c2ad470a9",
      "v": 28,
      "creates": null,
      "raw": "0xf86c04850cc1290e508252089432be343b94f860124dc4fee278fdcbd38c102d8888d026aa914a725000801ca00855103488bd08d8b42475d72098e2a4e0c65c1581fb31fec8993ecf2d00ba87a0164ff4ffe5940317b70b4b3218168da524e19f6bee043cf8429ba83c2ad470a9",
      "networkId": 0,
      "chainId": 0
    }
  ]
}