{
  "hash": "0xd800fa2bfccd8d98e0d4bf4aab5f3e8180b407c49d4359f408ba57336e0a9be6",
  "parentHash": "0x171531bf09513f08178600ee9c1be69d2d99c800975ecb81615399350390bb38",
  "number": 59896,
  "timestamp": 1439145476,
  "nonce": "0x029f91fecbd10854",
  "difficulty": 1729761947561,
  "gasLimit": {
    "_hex": "0x2fefd8"
  },
  "gasUsed": {
    "_hex": "0xa0c4"
  },
  "miner": "0x580992B51e3925e23280EfB93d3047C82f17E038",
  "extraData": "0x476574682f76312e302e312f6c696e75782f676f312e342e32",
  "transactions": [
    {
      "hash": "0xc7d584db825356aa4ea22b199eeacd11e09d0eeda7ad6e236f90cb22d824a295",
      "blockHash": "0xd800fa2bfccd8d98e0d4bf4aab5f3e8180b407c49d4359f408ba57336e0a9be6",
      "blockNumber": 59896,
      "transactionIndex": 0,
      "confirmations": null,
      "from": "0xa14Cf6cEC1c6aAe4b608458F6e14692863A937Aa",
      "gasPrice": {
        "_hex": "0xd7d40ace3"
      },
      "gasLimit": {
        "_hex": "0x30d40"
      },
      "to": "0x4364Eff50D20cA13EC7Ec6E9b0F7529A1F39df3C",
      "value": {
        "_hex": "0xde0b6b3a7640000"
      },
      "nonce": 6,
      "data": "0x",
      "r": "0x52d23a1b89ab1d6e428c438571913cce23d39a3aa9991f7f38bd8d06a56a27e4",
      "s": "0x31e5773a9e4040aa265612587b7f87d199189b65c9163acdfc9b0cf887442bee",
      "v": 27,
      "creates": null,
      "raw": "0xf86d06850d7d40ace383030d40944364eff50d20ca13ec7ec6e9b0f7529a1f39df3c880de0b6b3a7640000801ba052d23a1b89ab1d6e428c438571913cce23d39a3aa9991f7f38bd8d06a56a27e4a031e5773a9e4040aa265612587b7f87d199189b65c9163acdfc9b0cf887442bee",
      "networkId": 0,
      "chainId": 0
    }
  ]
}