{
  "hash": "0x83b6157de8a46516918a450ed0f9bec74a14eb37f55cd1b83faedd96127649b0",
  "parentHash": "0x2ad5114ab6588cc2a34dbd9e4102e6c1d57ac702b48260fdd4158aaa61d08b1f",
  "number": 80483,
  "timestamp": 1439486159,
  "nonce": "0x099e5c8ee8726284",
  "difficulty": 2415618694144,
  "gasLimit": {
    "_hex": "0x2fefd8"
  },
  "gasUsed": {
    "_hex": "0x1ce81"
  },
  "miner": "0xA21Ba94e45f0E168dA824fC67aC9cb5Cb577a8aF",
  "extraData": "0x",
  "transactions": [
    {
      "hash": "0x9ffbc87c9d22e9e972a3eeef7563b58eb58992e9e4e7dd1ef37c4c8c21e9f0bf",
      "blockHash": "0x83b6157de8a46516918a450ed0f9bec74a14eb37f55cd1b83faedd96127649b0",
      "blockNumber": 80483,
      "transactionIndex": 0,
      "confirmations": null,
      "from": "0x87C5B5874A18B4306DF8a752a6C8cc3E82daFc19",
      "gasPrice": {
        "_hex": "0x10f870e9769"
      },
      "gasLimit": {
        "_hex": "0x493e0"
      },
      "to": "0xC4c51de1AbF5D60DBd329eC0F999Fd8f021ae9fC",
      "value": {
        "_hex": "0x4b3d242fbcada26"
      },
      "nonce": 221,
      "data": "0x8d2161860000000000000000000000000000000000000000000000000000000000000006d3d96ceed0cfca4794c2a5a3d3aeefe69da0a2a669e66a5651f30b64831c3db0",
      "r": "0x94a46348e70e6c8cb43391dfb7a76efafea82aa3306ab3ab76876620e0aadaf0",
      "s": "0x43e0e2f1ca68f67942c59a44cd889b066e0a9b4e219a8ae1879d894a8ed828aa",
      "v": 27,
      "creates": null,
      "raw": "0xf8b481dd86010f870e9769830493e094c4c51de1abf5d60dbd329ec0f999fd8f021ae9fc8804b3d242fbcada26b8448d2161860000000000000000000000000000000000000000000000000000000000000006d3d96ceed0cfca4794c2a5a3d3aeefe69da0a2a669e66a5651f30b64831c3db01ba094a46348e70e6c8cb43391dfb7a76efafea82aa3306ab3ab76876620e0aadaf0a043e0e2f1ca68f67942c59a44cd889b066e0a9b4e219a8ae1879d894a8ed828aa",
      "networkId": 0,
      "chainId": 0
    },
    {
      "hash": "0xca9a5b62ded6400df0177cc74108053f61c696cf9029d361b7225c752d1b1daa",
      "blockHash": "0x83b6157de8a46516918a450ed0f9bec74a14eb37f55cd1b83faedd96127649b0",
      "blockNumber": 80483,
      "transactionIndex": 1,
      "confirmations": null,
      "from": "0x91139B30e3d090a8c542CFB2AA1Cc6e3bfFB491C",
      "gasPrice": {
        "_hex": "0xd6d9651bf"
      },
      "gasLimit": {
        "_hex": "0x55f0"
      },
      "to": "0x2910543Af39abA0Cd09dBb2D50200b3E800A63D2",
      "value": {
        "_hex": "0x22b1c8c1227a00000"
      },
      "nonce": 0,
      "data": "0x454e42363131514538",
      "r": "0xc6a71ffbf9be3dfe78789c8744ef25aa4375d6831bc2ddafaaab8b6095b226a2",
      "s": "0x615d966890db3bf53c61b7e89eeea7a0473463843e9390677ad7c3b07ce7a6da",
      "v": 28,
      "creates": null,
      "raw": "0xf87680850d6d9651bf8255f0942910543af39aba0cd09dbb2d50200b3e800a63d289022b1c8c1227a0000089454e423631315145381ca0c6a71ffbf9be3dfe78789c8744ef25aa4375d6831bc2ddafaaab8b6095b226a2a0615d966890db3bf53c61b7e89eeea7a0473463843e9390677ad7c3b07ce7a6da",
      "networkId": 0,
      "chainId": 0
    }
  ]
}