{
  "hash": "0x506060afb023bda17dfc8bec0253ba279d84f7312cea7539bbe5ba9f71d340b1",
  "parentHash": "0x53b119d85e094c8a95f14e0866361bb2584e8dada0e435bdba93c9b940e22ff2",
  "number": 98782,
  "timestamp": 1439779031,
  "nonce": "0x2792c64bec33756c",
  "difficulty": 3846098371775,
  "gasLimit": {
    "_hex": "0x2fefd8"
  },
  "gasUsed": {
    "_hex": "0xa410"
  },
  "miner": "0x88D74a59454F6cF3B51ef6b9136AFb6b9D405A88",
  "extraData": "0x476574682f76312e302e312d38326566323666362f6c696e75782f676f312e34",
  "transactions": [
    {
      "hash": "0x531b6ee84735ead5fb69232d460b81f9aac7a55f6cb6c8025d31e836107610db",
      "blockHash": "0x506060afb023bda17dfc8bec0253ba279d84f7312cea7539bbe5ba9f71d340b1",
      "blockNumber": 98782,
      "transactionIndex": 0,
      "confirmations": null,
      "from": "0x52191276589069F70F0E46bcCc718d793d1Aa1D0",
      "gasPrice": {
        "_hex": "0xdfa50dc86"
      },
      "gasLimit": {
        "_hex": "0x5208"
      },
      "to": "0x32Be343B94f860124dC4fEe278FDCBD38C102D88",
      "value": {
        "_hex": "0xf174bd3154092000"
      },
      "nonce": 11,
      "data": "0x",
      "r": "0x71501087156fe317658d810403607feeaaa03523556b7ca75922c31edd3e4cdb",
      "s": "0x5942b1238e5dd48436561a315bf0b70c3f93cfb51c9e9e14eeca8c4bd679051c",
      "v": 28,
      "creates": null,
      "raw": "0xf86c0b850dfa50dc868252089432be343b94f860124dc4fee278fdcbd38c102d8888f174bd3154092000801ca071501087156fe317658d810403607feeaaa03523556b7ca75922c31edd3e4cdba05942b1238e5dd48436561a315bf0b70c3f93cfb51c9e9e14eeca8c4bd679051c",
      "networkId": 0,
      "chainId": 0
    },
    {
      "hash": "0x21c111d4ac5e4f5d211433b181d76c5073078cb1aa5034d0c22644ea718b9268",
      "blockHash": "0x506060afb023bda17dfc8bec0253ba279d84f7312cea7539bbe5ba9f71d340b1",
      "blockNumber": 98782,
      "transactionIndex": 1,
      "confirmations": null,
      "from": "0x2910543Af39abA0Cd09dBb2D50200b3E800A63D2",
      "gasPrice": {
        "_hex": "0xdea9bd88c"
      },
      "gasLimit": {
        "_hex": "0x5208"
      },
      "to": "0x765EeAAd1F3F92C0d5aC5361913D96e37ceaeE1A",
      "value": {
        "_hex": "0xd8dba97d3fe44b0000"
      },
      "nonce": 934,
      "data": "0x",
      "r": "0xfe9254370e32f8df2e38325ba006b840af50c3030abe4832561823c111216a05",
      "s": "0x4487de3244207c451dfbd1ed60d15d645e9fbe76c12f7d58eebda91d927fd069",
      "v": 28,
      "creates": null,
      "raw": "0xf86f8203a6850dea9bd88c82520894765eeaad1f3f92c0d5ac5361913d96e37ceaee1a89d8dba97d3fe44b0000801ca0fe9254370e32f8df2e38325ba006b840af50c3030abe4832561823c111216a05a04487de3244207c451dfbd1ed60d15d645e9fbe76c12f7d58eebda91d927fd069",
      "networkId": 0,
      "chainId": 0
    }
  ]
}