{
  "hash": "0xc478c55c6457dcd661c4423fb45e75539c5490cfbce134fdc0555af4c5c12fd1",
  "parentHash": "0xc6ae8c8c07899270a7335fedb2553525eb751fff649af64b3b6dcde4840ac4e2",
  "number": 71300,
  "timestamp": 1439333974,
  "nonce": "0x7ac4602e6b996b60",
  "difficulty": 2154001932741,
  "gasLimit": {
    "_hex": "0x2fefd8"
  },
  "gasUsed": {
    "_hex": "0x1007b"
  },
  "miner": "0x55bAf64fc9eAccFFd7Cc643BB61142E1C6ac093e",
  "extraData": "0x",
  "transactions": [
    {
      "hash": "0x87e4ede85fa8fb46ce98b3cb2d944e78f805ddb39656cdca2777cd7ddb4dc86d",
      "blockHash": "0xc478c55c6457dcd661c4423fb45e75539c5490cfbce134fdc0555af4c5c12fd1",
      "blockNumber": 71300,
      "transactionIndex": 0,
      "confirmations": null,
      "from": "0x120A270bbC009644e35F0bB6ab13f95b8199c4ad",
      "gasPrice": {
        "_hex": "0xd7d0d38b2"
      },
      "gasLimit": {
        "_hex": "0x15f90"
      },
      "to": "0x739f8ab33a41B67952f16778e3CC6D2dEcC3a2d5",
      "value": {
        "_hex": "0x3635c9adc5dea00000"
      },
      "nonce": 225,
      "data": "0x",
      "r": "0xe89def29629f661c4a3cc59cfe7e09293a9efeaf44be2fc00aec90b6ad4e2bde",
      "s": "0x70fff5d524b1553e3854f4a77f3bb436de7bb9743451d0f40d13c680f9536f21",
      "v": 27,
      "creates": null,
      "raw": "0xf86f81e1850d7d0d38b283015f9094739f8ab33a41b67952f16778e3cc6d2decc3a2d5893635c9adc5dea00000801ba0e89def29629f661c4a3cc59cfe7e09293a9efeaf44be2fc00aec90b6ad4e2bdea070fff5d524b1553e3854f4a77f3bb436de7bb9743451d0f40d13c680f9536f21",
      "networkId": 0,
      "chainId": 0
    },
    {
      "hash": "0x1a23f25d332824da5a2b3679a1f309fc49c97b95fa1ea00a3ea43db1f646a49d",
      "blockHash": "0xc478c55c6457dcd661c4423fb45e75539c5490cfbce134fdc0555af4c5c12fd1",
      "blockNumber": 71300,
      "transactionIndex": 1,
      "confirmations": null,
      "from": "0x17580B766f7453525ca4C6A88b01b50570EA088C",
      "gasPrice": {
        "_hex": "0xd084506a0"
      },
      "gasLimit": {
        "_hex": "0x61a80"
      },
      "to": "0x5Fe5B7546D1628f7348B023A0393de1FC825A4fD",
      "value": {
        "_hex": "0x1bc16d674ec80000"
      },
      "nonce": 148,
      "data": "0xb595b8b50000000000000000000000000000000000000000000000000000000000000000",
      "r": "0xfb4f7f146f642699c572ad447da991f169fec7417ebc740226dd39e49c8c260f",
      "s": "0x62fc916062afeb539e8ee5e7f6b493065b001bfd882284ec3661af37a08e16d0",
      "v": 27,
      "creates": null,
      "raw": "0xf8928194850d084506a083061a80945fe5b7546d1628f7348b023a0393de1fc825a4fd881bc16d674ec80000a4b595b8b500000000000000000000000000000000000000000000000000000000000000001ba0fb4f7f146f642699c572ad447da991f169fec7417ebc740226dd39e49c8c260fa062fc916062afeb539e8ee5e7f6b493065b001bfd882284ec3661af37a08e16d0",
      "networkId": 0,
      "chainId": 0
    }
  ]
}