{
  "hash": "0x7d205c39fb43c39ff9b9d66d79677bf1d9e67e89d2366eccf03dd83fd9be315e",
  "parentHash": "0x555574a6e3f2970a889c80c6967b0c2ab5d34e1e7e771868d2b2470d4443c7ab",
  "number": 99930,
  "timestamp": 1439797828,
  "nonce": "0x554b4f4469923206",
  "difficulty": 3860623205162,
  "gasLimit": {
    "_hex": "0x2fefd8"
  },
  "gasUsed": {
    "_hex": "0x5208"
  },
  "miner": "0x019D3FA6E3cdA649b26F74395A846575c7bEA14C",
  "extraData": "0x",
  "transactions": [
    {
      "hash": "0x2a8e6cb9338a1d0d71d0a851fa6cc76df20ff8487d840f2fac41a825b2d326a1",
      "blockHash": "0x7d205c39fb43c39ff9b9d66d79677bf1d9e67e89d2366eccf03dd83fd9be315e",
      "blockNumber": 99930,
      "transactionIndex": 0,
      "confirmations": null,
      "from": "0xb1abce2918E21ddb93AA452731a12672A3d9F75a",
      "gasPrice": {
        "_hex": "0xdae7bf4d9"
      },
      "gasLimit": {
        "_hex": "0x5208"
      },
      "to": "0x32Be343B94f860124dC4fEe278FDCBD38C102D88",
      "value": {
        "_hex": "0x455f2f31414ce000"
      },
      "nonce": 75,
      "data": "0x",
      "r": "0x8c6cfa1fa4e40413a062ac2d99ef27c39a5058b14cd6be36345b5ba00922cb8f",
      "s": "0x7e38955933e55a704cbc933c9badd511b71b05cdb51579b081f49f704fee86b4",
      "v": 28,
      "creates": null,
      "raw": "0xf86c4b850dae7bf4d98252089432be343b94f860124dc4fee278fdcbd38c102d8888455f2f31414ce000801ca08c6cfa1fa4e40413a062ac2d99ef27c39a5058b14cd6be36345b5ba00922cb8fa07e38955933e55a704cbc933c9badd511b71b05cdb51579b081f49f704fee86b4",
      "networkId": 0,
      "chainId": 0
    }
  ]
}