{
  "hash": "0xa35bc58f2e44e08c71ed05bcedc7346348757f1501fde0d04aea5ffadcc91001",
  "parentHash": "0x27af51d890b457a4039a76f43fffbb1f2c5a70b11534edd7419e85412ee1eb41",
  "number": 74274,
  "timestamp": 1439383419,
  "nonce": "0x8c68ce3f424fa74a",
  "difficulty": 2210768377272,
  "gasLimit": {
    "_hex": "0x2fefd8"
  },
  "gasUsed": {
    "_hex": "0x115bb"
  },
  "miner": "0xf927a40C8B7F6E07c5af7FA2155B4864a4112B13",
  "extraData": "0x",
  "transactions": [
    {
      "hash": "0x8004d28ea59d00f64adfd2f190eaacf6dcd9e9a0937fc1f23e74538fbbac9799",
      "blockHash": "0xa35bc58f2e44e08c71ed05bcedc7346348757f1501fde0d04aea5ffadcc91001",
      "blockNumber": 74274,
      "transactionIndex": 0,
      "confirmations": null,
      "from": "0x87C5B5874A18B4306DF8a752a6C8cc3E82daFc19",
      "gasPrice": {
        "_hex": "0x10c5697a66c"
      },
      "gasLimit": {
        "_hex": "0x493e0"
      },
      "to": "0xDf595d10E76EffaBB38FB3ddFAF89a4Bd50Acf0f",
      "value": {
        "_hex": "0x0"
      },
      "nonce": 8,
      "data": "0x2e1a7d4d00000000000000000000000000000000000000000000003860e639d806400000",
      "r": "0x7e00dbf645558afb79f932adc38a81a1e8b29c80fe357dd5dcf2f2a832408c45",
      "s": "0x7431dca5fdbfb735edfeffeed4305f5b9271a950e3113e69770824d6c89f8260",
      "v": 28,
      "creates": null,
      "raw": "0xf88a0886010c5697a66c830493e094df595d10e76effabb38fb3ddfaf89a4bd50acf0f80a42e1a7d4d00000000000000000000000000000000000000000000003860e639d8064000001ca07e00dbf645558afb79f932adc38a81a1e8b29c80fe357dd5dcf2f2a832408c45a07431dca5fdbfb735edfeffeed4305f5b9271a950e3113e69770824d6c89f8260",
      "networkId": 0,
      "chainId": 0
    },
    {
      "hash": "0xab28167b2bdbc7b39655f6953335d1f5a291f4506bd5cc00b6beebe3cd739ecb",
      "blockHash": "0xa35bc58f2e44e08c71ed05bcedc7346348757f1501fde0d04aea5ffadcc91001",
      "blockNumber": 74274,
      "transactionIndex": 1,
      "confirmations": null,
      "from": "0xe6A7a1d47ff21B6321162AEA7C6CB457D5476Bca",
      "gasPrice": {
        "_hex": "0xd91795e88"
      },
      "gasLimit": {
        "_hex": "0x55f0"
      },
      "to": "0xf79785E5a846aCea08F94379fCCe79B1054bDB99",
      "value": {
        "_hex": "0x1dc9264a92af3f130"
      },
      "nonce": 937,
      "data": "0x",
      "r": "0x96a2d347251f60aa5782651ec8cb415d472f35eab5bf56ca59e6362e91ccabf6",
      "s": "0x19ddf48221cf94dbb7415a284d9b4e0992700469566943e9f6e19e940eeeb755",
      "v": 27,
      "creates": null,
      "raw": "0xf86f8203a9850d91795e888255f094f79785e5a846acea08f94379fcce79b1054bdb998901dc9264a92af3f130801ba096a2d347251f60aa5782651ec8cb415d472f35eab5bf56ca59e6362e91ccabf6a019ddf48221cf94dbb7415a284d9b4e0992700469566943e9f6e19e940eeeb755",
      "networkId": 0,
      "chainId": 0
    },
    {
      "hash": "0xa2289d6e5fc0f02c1dd3dd189a794f4356e098384c1a7a84687dec77a5a1b197",
      "blockHash": "0xa35bc58f2e44e08c71ed05bcedc7346348757f1501fde0d04aea5ffadcc91001",
      "blockNumber": 74274,
      "transactionIndex": 2,
      "confirmations": null,
      "from": "0xe6A7a1d47ff21B6321162AEA7C6CB457D5476Bca",
      "gasPrice": {
        "_hex": "0xd91795e88"
      },
      "gasLimit": {
        "_hex": "0x55f0"
      },
      "to": "0x93b3437645A67059E280a3317a93c57e2f4788EA",
      "value": {
        "_hex": "0x1eeadac8e0e422fc0"
      },
      "nonce": 938,
      "data": "0x",
      "r": "0xc1742d3129a42a09f72a95ef9cd3ebf4bea8538cda3ca0c4b3cb46c166108955",
      "s": "0x3b35557ee4a9149cd6584334d3c93a74e02f9cae0e87c44c352cccc907676856",
      "v": 27,
      "creates": null,
      "raw": "0xf86f8203aa850d91795e888255f09493b3437645a67059e280a3317a93c57e2f4788ea8901eeadac8e0e422fc0801ba0c1742d3129a42a09f72a95ef9cd3ebf4bea8538cda3ca0c4b3cb46c166108955a03b35557ee4a9149cd6584334d3c93a74e02f9cae0e87c44c352cccc907676856",
      "networkId": 0,
      "chainId": 0
    }
  ]
}