{
  "hash": "0xde9ce4cc58c34bada93252a79c78c7245e47319fd1318a9c2abf10ad17f230d1",
  "parentHash": "0xf19808c4c8ff3a4b48857b8afb2bfabb6059b7b59d1714b6c01e934e454a1609",
  "number": 80001,
  "timestamp": 1439478586,
  "nonce": "0xa759ddf9682ea69d",
  "difficulty": 2348302170719,
  "gasLimit": {
    "_hex": "0x2fefd8"
  },
  "gasUsed": {
    "_hex": "0x8f3d"
  },
  "miner": "0xF11940EA05aA9CC3F13aCF5C5cA6EDCF312E3Aec",
  "extraData": "0x476574682f76312e302e312f77696e646f77732f676f312e342e32",
  "transactions": [
    {
      "hash": "0x5958b93e28657cb34777c5b706b36bf6c72c9d0d704473163ba18cb14ba5a77a",
      "blockHash": "0xde9ce4cc58c34bada93252a79c78c7245e47319fd1318a9c2abf10ad17f230d1",
      "blockNumber": 80001,
      "transactionIndex": 0,
      "confirmations": null,
      "from": "0x063dD253C8da4EA9b12105781C9611b8297F5d14",
      "gasPrice": {
        "_hex": "0xd8364fc25"
      },
      "gasLimit": {
        "_hex": "0x249f0"
      },
      "to": "0xde0B295669a9FD93d5F28D9Ec85E40f4cb697BAe",
      "value": {
        "_hex": "0x0"
      },
      "nonce": 2,
      "data": "0xf00d4b5d0000000000000000000000007c56d94ebeccb769524379c450873519a9d805ff0000000000000000000000000037a6b811ffeb6e072da21179d11b1406371c63",
      "r": "0xd27315d95f4bf3d91d0a89423624bfb2a6b053949530c3205b4f288249e9b3ab",
      "s": "0x057dc57c938895489444491469f4c5b5ed23d4194bc01884e1cf214c6662b69b",
      "v": 28,
      "creates": null,
      "raw": "0xf8aa02850d8364fc25830249f094de0b295669a9fd93d5f28d9ec85e40f4cb697bae80b844f00d4b5d0000000000000000000000007c56d94ebeccb769524379c450873519a9d805ff0000000000000000000000000037a6b811ffeb6e072da21179d11b1406371c631ca0d27315d95f4bf3d91d0a89423624bfb2a6b053949530c3205b4f288249e9b3aba0057dc57c938895489444491469f4c5b5ed23d4194bc01884e1cf214c6662b69b",
      "networkId": 0,
      "chainId": 0
    }
  ]
}