{
  "hash": "0x27b1e6dcdc977732a6462cbeec8ba2912f6dd248858c85586bcbd8bbe35af5a9",
  "parentHash": "0x9308121b83016a3796c011e4619deef6d3f3069231bede7028c391d617f71522",
  "number": 105406,
  "timestamp": 1439887073,
  "nonce": "0xb0b408a19a08e0a7",
  "difficulty": 4367537196859,
  "gasLimit": {
    "_hex": "0x2fefd8"
  },
  "gasUsed": {
    "_hex": "0x5208"
  },
  "miner": "0x580992B51e3925e23280EfB93d3047C82f17E038",
  "extraData": "0x476574682f76312e302e312f6c696e75782f676f312e342e32",
  "transactions": [
    {
      "hash": "0xd412f11abcf45ed10b75f3698aca734c380ebb8c1a3e93b3d7a202419c04429d",
      "blockHash": "0x27b1e6dcdc977732a6462cbeec8ba2912f6dd248858c85586bcbd8bbe35af5a9",
      "blockNumber": 105406,
      "transactionIndex": 0,
      "confirmations": null,
      "from": "0xF928B4834e4E886e04630Af5b4Ea8eBf46Fb205b",
      "gasPrice": {
        "_hex": "0xd39e338bc"
      },
      "gasLimit": {
        "_hex": "0x5208"
      },
      "to": "0x32Be343B94f860124dC4fEe278FDCBD38C102D88",
      "value": {
        "_hex": "0x2c3acb3326eec4000"
      },
      "nonce": 6,
      "data": "0x",
      "r": "0xc14714f8b27ae580b311144d038e62e46f6767e399bb5d95b9b307484dcde802",
      "s": "0x000f6c98d2aa5d6bf1ec0cd056b2de3a0ef463a715fa08612955b206d95767b9",
      "v": 28,
      "creates": null,
      "raw": "0xf86c06850d39e338bc8252089432be343b94f860124dc4fee278fdcbd38c102d888902c3acb3326eec4000801ca0c14714f8b27ae580b311144d038e62e46f6767e399bb5d95b9b307484dcde8029f0f6c98d2aa5d6bf1ec0cd056b2de3a0ef463a715fa08612955b206d95767b9",
      "networkId": 0,
      "chainId": 0
    }
  ]
}