{
  "hash": "0x6a655c66ece4a22d0e94e22cd41bfffb70792d0b94643f474673630287fb3bd8",
  "parentHash": "0x957eb7a4202147f8d003e987a9917d2ea744dda5674356a82d7dee5695426e18",
  "number": 96350,
  "timestamp": 1439738946,
  "nonce": "0xaa24dd2aa6a9387f",
  "difficulty": 3671036832513,
  "gasLimit": {
    "_hex": "0x2fefd8"
  },
  "gasUsed": {
    "_hex": "0x5208"
  },
  "miner": "0xe6A7a1d47ff21B6321162AEA7C6CB457D5476Bca",
  "extraData": "0x476574682f76312e302e312d38326566323666362f6c696e75782f676f312e34",
  "transactions": [
    {
      "hash": "0xcb5641c0238c252c8b58340cc8f9d36eeafa5601df87ea26a1b57d9a99277b5a",
      "blockHash": "0x6a655c66ece4a22d0e94e22cd41bfffb70792d0b94643f474673630287fb3bd8",
      "blockNumber": 96350,
      "transactionIndex": 0,
      "confirmations": null,
      "from": "0x32Be343B94f860124dC4fEe278FDCBD38C102D88",
      "gasPrice": {
        "_hex": "0xcfb408153"
      },
      "gasLimit": {
        "_hex": "0x5208"
      },
      "to": "0x0AB366E6e7D5AbbcE6B44A438d69a1caBb90d133",
      "value": {
        "_hex": "0xdbd2fc137a30000"
      },
      "nonce": 1001,
      "data": "0x",
      "r": "0x217c2cee45ab2ac50d12acc1f9cb2ed743cd50c91e5ce082cea3d38210cb1123",
      "s": "0x10c87b7a8f40e647014cccf5fc3e39cac1d1fe2f3fbc8fe8c49c57029fb1160b",
      "v": 27,
      "creates": null,
      "raw": "0xf86e8203e9850cfb408153825208940ab366e6e7d5abbce6b44a438d69a1cabb90d133880dbd2fc137a30000801ba0217c2cee45ab2ac50d12acc1f9cb2ed743cd50c91e5ce082cea3d38210cb1123a010c87b7a8f40e647014cccf5fc3e39cac1d1fe2f3fbc8fe8c49c57029fb1160b",
      "networkId": 0,
      "chainId": 0
    }
  ]
}