{
  "hash": "0x99107b6e5df03c186c9890c346a62b0830d35fb22dc96b4a3520f265a6f27c46",
  "parentHash": "0xc8d8405d17e6db95582e0508284ed36a6e5316ef610f7bdae1e57606194bf147",
  "number": 103004,
  "timestamp": 1439846328,
  "nonce": "0x857aa99ba54cea9d",
  "difficulty": 4148421099419,
  "gasLimit": {
    "_hex": "0x2fefd8"
  },
  "gasUsed": {
    "_hex": "0x1bdbe"
  },
  "miner": "0x623d2411c3bb3340784155F9a688b0085251aB5c",
  "extraData": "0x",
  "transactions": [
    {
      "hash": "0x394dae9d0ef59f444350577e693e374681ba477c4e416187f7193971a2be8502",
      "blockHash": "0x99107b6e5df03c186c9890c346a62b0830d35fb22dc96b4a3520f265a6f27c46",
      "blockNumber": 103004,
      "transactionIndex": 0,
      "confirmations": null,
      "from": "0x1c11Aa45C792e202e9ffDc2F12f99D0d209BEf70",
      "gasPrice": {
        "_hex": "0xd7d40ace3"
      },
      "gasLimit": {
        "_hex": "0x249f0"
      },
      "to": "0xE28e72FCf78647ADCe1F1252F240bbfaebD63BcC",
      "value": {
        "_hex": "0x2386f26fc10000"
      },
      "nonce": 21,
      "data": "0x45466f3a",
      "r": "0x4292a5cfdcd38907816f1db3736684d466c25dd035d7cc2b528a4a67ada5f64d",
      "s": "0x25dba9dac4a39f1c463fedbea6904c4d18c42f75d3c98f2ea423d5e9a1b31d2e",
      "v": 28,
      "creates": null,
      "raw": "0xf87015850d7d40ace3830249f094e28e72fcf78647adce1f1252f240bbfaebd63bcc872386f26fc100008445466f3a1ca04292a5cfdcd38907816f1db3736684d466c25dd035d7cc2b528a4a67ada5f64da025dba9dac4a39f1c463fedbea6904c4d18c42f75d3c98f2ea423d5e9a1b31d2e",
      "networkId": 0,
      "chainId": 0
    }
  ]
}