{
  "hash": "0x3934491c557440cefb6a42472398191ed078596d28a63920d656df7806d72b21",
  "parentHash": "0x4b6c49229fdb4d976ae11236f9b9d88fb5e33fed05b05bfd6714f1f4d86ad3e5",
  "number": 102070,
  "timestamp": 1439832421,
  "nonce": "0xbf12d830992f39ac",
  "difficulty": 3901322908772,
  "gasLimit": {
    "_hex": "0x2fefd8"
  },
  "gasUsed": {
    "_hex": "0x5208"
  },
  "miner": "0x457C428117c1b8507111392d50876A9D548a6D36",
  "extraData": "0x476574682f76312e302e312f6c696e75782f676f312e342e32",
  "transactions": [
    {
      "hash": "0xa0b559870f6d990dd1a738d3bc9a9a07e8f438847f126e38f627cbbd5ac13dcb",
      "blockHash": "0x3934491c557440cefb6a42472398191ed078596d28a63920d656df7806d72b21",
      "blockNumber": 102070,
      "transactionIndex": 0,
      "confirmations": null,
      "from": "0x579ee090BddA9aEb223766f953F033bdF1A7c749",
      "gasPrice": {
        "_hex": "0xd829ead41"
      },
      "gasLimit": {
        "_hex": "0x5208"
      },
      "to": "0x32Be343B94f860124dC4fEe278FDCBD38C102D88",
      "value": {
        "_hex": "0xbed06eaa6da2b8000"
      },
      "nonce": 0,
      "data": "0x",
      "r": "0x95b1385e68bff2f390897a8d1dd665c5d362cb09fda1c6be30d27e1088dc3ba2",
      "s": "0x7b9ccb41fff6db0a8f1e1307c5bb11ed9954d6bfc8ccf4124900522cf5001226",
      "v": 27,
      "creates": null,
      "raw": "0xf86d80850d829ead418252089432be343b94f860124dc4fee278fdcbd38c102d88890bed06eaa6da2b8000801ba095b1385e68bff2f390897a8d1dd665c5d362cb09fda1c6be30d27e1088dc3ba2a07b9ccb41fff6db0a8f1e1307c5bb11ed9954d6bfc8ccf4124900522cf5001226",
      "networkId": 0,
      "chainId": 0
    }
  ]
}