{
  "hash": "0x9fc1a67be02222096589ead574e3c7078544493a7e975b2ad526da370c0836bc",
  "parentHash": "0x599bfe54783d24adf2a8ec209eddeaab572ea77c9dc12c44b7b76b39a2a3fee3",
  "number": 116363,
  "timestamp": 1440072978,
  "nonce": "0x9ddf4e951766ab54",
  "difficulty": 4591297384509,
  "gasLimit": {
    "_hex": "0x2fefd8"
  },
  "gasUsed": {
    "_hex": "0x5208"
  },
  "miner": "0x0eDEd3DA479d0beF8eeC92A76644D3f4E3C177f7",
  "extraData": "0x476574682f76312e302e312f6c696e75782f676f312e342e32",
  "transactions": [
    {
      "hash": "0x214f2101c750f2cfcf461a002bb66815cddeaa6729297c10fc4680aedbdcfe5d",
      "blockHash": "0x9fc1a67be02222096589ead574e3c7078544493a7e975b2ad526da370c0836bc",
      "blockNumber": 116363,
      "transactionIndex": 0,
      "confirmations": null,
      "from": "0x32Be343B94f860124dC4fEe278FDCBD38C102D88",
      "gasPrice": {
        "_hex": "0xd7bf9b203"
      },
      "gasLimit": {
        "_hex": "0x5208"
      },
      "to": "0x1C89060f987C518fa079EC2c0a5EbFa30f5d20F7",
      "value": {
        "_hex": "0x51508afdb65e300000"
      },
      "nonce": 1464,
      "data": "0x",
      "r": "0x21fd932e2044f126c92bb626848746f83776f4a80adc513244201df97b892b82",
      "s": "0x7d9e1cd3c124aa32285353e1fe6695a750c9988e54eeba52a6fda3ec4c00a44f",
      "v": 27,
      "creates": null,
      "raw": "0xf86f8205b8850d7bf9b203825208941c89060f987c518fa079ec2c0a5ebfa30f5d20f78951508afdb65e300000801ba021fd932e2044f126c92bb626848746f83776f4a80adc513244201df97b892b82a07d9e1cd3c124aa32285353e1fe6695a750c9988e54eeba52a6fda3ec4c00a44f",
      "networkId": 0,
      "chainId": 0
    }
  ]
}