{
  "hash": "0x78bc482bf2a97a07d511de787d46e2ed4e5512c93655b24700abc3135fea9beb",
  "parentHash": "0x050ca1730febd355f6e36b0c789cbfd881892512e1551f43c94cadaa1466f1cb",
  "number": 80555,
  "timestamp": 1439487219,
  "nonce": "0x4379e3a345115873",
  "difficulty": 2420320536340,
  "gasLimit": {
    "_hex": "0x2fefd8"
  },
  "gasUsed": {
    "_hex": "0x208ff"
  },
  "miner": "0x0eDEd3DA479d0beF8eeC92A76644D3f4E3C177f7",
  "extraData": "0x476574682f76312e302e312f6c696e75782f676f312e342e32",
  "transactions": [
    {
      "hash": "0xa327067907420ee699e825fedbd1aae33b4e86a3681b6a824eaa4be902fc2bd4",
      "blockHash": "0x78bc482bf2a97a07d511de787d46e2ed4e5512c93655b24700abc3135fea9beb",
      "blockNumber": 80555,
      "transactionIndex": 0,
      "confirmations": null,
      "from": "0x87C5B5874A18B4306DF8a752a6C8cc3E82daFc19",
      "gasPrice": {
        "_hex": "0x112b7881ab9"
      },
      "gasLimit": {
        "_hex": "0x493e0"
      },
      "to": "0xC4c51de1AbF5D60DBd329eC0F999Fd8f021ae9fC",
      "value": {
        "_hex": "0x0"
      },
      "nonce": 243,
      "data": "0xbd66528a6b6b6b0000000000000000000000000000000000000000000000000000000000",
      "r": "0x907edb9111d047f7048e76e601b5d1aa146658cfff2a051f04fe98281d485812",
      "s": "0x7689f938eeabcd14dc679dfd368841326a9ce13e5b1b94652c691759e148aac0",
      "v": 27,
      "creates": null,
      "raw": "0xf88b81f3860112b7881ab9830493e094c4c51de1abf5d60dbd329ec0f999fd8f021ae9fc80a4bd66528a6b6b6b00000000000000000000000000000000000000000000000000000000001ba0907edb9111d047f7048e76e601b5d1aa146658cfff2a051f04fe98281d485812a07689f938eeabcd14dc679dfd368841326a9ce13e5b1b94652c691759e148aac0",
      "networkId": 0,
      "chainId": 0
    },
    {
      "hash": "0xfd8eb6d733b402d4358c0d2eaabae48fffa9523d6bd5db13009d146aed0d25bf",
      "blockHash": "0x78bc482bf2a97a07d511de787d46e2ed4e5512c93655b24700abc3135fea9beb",
      "blockNumber": 80555,
      "transactionIndex": 1,
      "confirmations": null,
      "from": "0x845756B00082FC31A538B70Cb8eC08746baB5Be4",
      "gasPrice": {
        "_hex": "0xba43b7400"
      },
      "gasLimit": {
        "_hex": "0x5208"
      },
      "to": "0xC47Aaa860008be6f65B58c6C6E02a84e666EfE31",
      "value": {
        "_hex": "0x4e0eabcb77443e000"
      },
      "nonce": 0,
      "data": "0x",
      "r": "0x206ea8b896d51ff0b9a65421877cdfb8c174eaa33d3cdd5bbec0486696f8ea40",
      "s": "0x247ec33436585566a21b765369b0c71ab99e6dbe5b10a511380e800fd1b67e53",
      "v": 27,
      "creates": null,
      "raw": "0xf86d80850ba43b740082520894c47aaa860008be6f65b58c6c6e02a84e666efe318904e0eabcb77443e000801ba0206ea8b896d51ff0b9a65421877cdfb8c174eaa33d3cdd5bbec0486696f8ea40a0247ec33436585566a21b765369b0c71ab99e6dbe5b10a511380e800fd1b67e53",
      "networkId": 0,
      "chainId": 0
    },
    {
      "hash": "0x9fd3b4b7bea5bdd47a5da28c46e0c4c66a586d6c7f807107981bedeb5d401055",
      "blockHash": "0x78bc482bf2a97a07d511de787d46e2ed4e5512c93655b24700abc3135fea9beb",
      "blockNumber": 80555,
      "transactionIndex": 2,
      "confirmations": null,
      "from": "0xCaf1C12c783fCcC4066e87a376F94518141dEF80",
      "gasPrice": {
        "_hex": "0xba43b7400"
      },
      "gasLimit": {
        "_hex": "0x5208"
      },
      "to": "0xC47Aaa860008be6f65B58c6C6E02a84e666EfE31",
      "value": {
        "_hex": "0x1ca5aecabd316c000"
      },
      "nonce": 1,
      "data": "0x",
      "r": "0x4d2a1cc3232e06aee1f2690d2da1e3572e3662d5cbe638d1835f5b4995559df9",
      "s": "0x451bbbaa63ddbe7d44ca997b328811b769b36015ee0c750fa8a7ba985f6fe73e",
      "v": 27,
      "creates": null,
      "raw": "0xf86d01850ba43b740082520894c47aaa860008be6f65b58c6c6e02a84e666efe318901ca5aecabd316c000801ba04d2a1cc3232e06aee1f2690d2da1e3572e3662d5cbe638d1835f5b4995559df9a0451bbbaa63ddbe7d44ca997b328811b769b36015ee0c750fa8a7ba985f6fe73e",
      "networkId": 0,
      "chainId": 0
    },
    {
      "hash": "0x7e0e83813ef070b547fa6a39911a964b7e07d608516a297a85c8b85450130656",
      "blockHash": "0x78bc482bf2a97a07d511de787d46e2ed4e5512c93655b24700abc3135fea9beb",
      "blockNumber": 80555,
      "transactionIndex": 3,
      "confirmations": null,
      "from": "0x212679E921695cdCEC3694aa33FbB158Aa1A3c84",
      "gasPrice": {
        "_hex": "0xba43b7400"
      },
      "gasLimit": {
        "_hex": "0x5208"
      },
      "to": "0xC47Aaa860008be6f65B58c6C6E02a84e666EfE31",
      "value": {
        "_hex": "0x56ba01c42c64b6000"
      },
      "nonce": 0,
      "data": "0x",
      "r": "0x1b55299c3aa3334c826cb6c71a56405bfa6e8689452eb34cfb744edffc0315b0",
      "s": "0x679e5edbb47366625f512c89f95a646a752f4c7115ba811cb504fbcbbf0a6e21",
      "v": 28,
      "creates": null,
      "raw": "0xf86d80850ba43b740082520894c47aaa860008be6f65b58c6c6e02a84e666efe3189056ba01c42c64b6000801ca01b55299c3aa3334c826cb6c71a56405bfa6e8689452eb34cfb744edffc0315b0a0679e5edbb47366625f512c89f95a646a752f4c7115ba811cb504fbcbbf0a6e21",
      "networkId": 0,
      "chainId": 0
    },
    {
      "hash": "0x6006d7e6e2c76907740662283aa5a66d3f2ab611d68695fea76c3e39089dee31",
      "blockHash": "0x78bc482bf2a97a07d511de787d46e2ed4e5512c93655b24700abc3135fea9beb",
      "blockNumber": 80555,
      "transactionIndex": 4,
      "confirmations": null,
      "from": "0x094F2989dC37af32A61ecaA3393005ae2b535A05",
      "gasPrice": {
        "_hex": "0xba43b7400"
      },
      "gasLimit": {
        "_hex": "0x5208"
      },
      "to": "0xC47Aaa860008be6f65B58c6C6E02a84e666EfE31",
      "value": {
        "_hex": "0xa1484b857548be000"
      },
      "nonce": 0,
      "data": "0x",
      "r": "0xf739830c11e095eb6ab1f578a4a6d39cff0d0f6cb8c565fb84758461f983c569",
      "s": "0x346561dd2aed2b41b53feb5b73763bcbfd253014f4be454e7d5c7ad6395d0093",
      "v": 27,
      "creates": null,
      "raw": "0xf86d80850ba43b740082520894c47aaa860008be6f65b58c6c6e02a84e666efe31890a1484b857548be000801ba0f739830c11e095eb6ab1f578a4a6d39cff0d0f6cb8c565fb84758461f983c569a0346561dd2aed2b41b53feb5b73763bcbfd253014f4be454e7d5c7ad6395d0093",
      "networkId": 0,
      "chainId": 0
    },
    {
      "hash": "0x0177b069f053b5115a2205e2a7fed6c42c9ee3d9b0538be1a92e74d256fe1931",
      "blockHash": "0x78bc482bf2a97a07d511de787d46e2ed4e5512c93655b24700abc3135fea9beb",
      "blockNumber": 80555,
      "transactionIndex": 5,
      "confirmations": null,
      "from": "0x14F7e6c94Cbf511F4c32CC2127421b98291E936d",
      "gasPrice": {
        "_hex": "0xba43b7400"
      },
      "gasLimit": {
        "_hex": "0x5208"
      },
      "to": "0xC47Aaa860008be6f65B58c6C6E02a84e666EfE31",
      "value": {
        "_hex": "0x549043749063ad800"
      },
      "nonce": 0,
      "data": "0x",
      "r": "0x3c9013dbd017ddbe170ebd4ab86ac2d82418910e0251b971ad80fe4e8da8f078",
      "s": "0x6fd278e6296b91d8fb835dc375be11fe6a2fabf2d4eddfae5de0540facb44d02",
      "v": 27,
      "creates": null,
      "raw": "0xf86d80850ba43b740082520894c47aaa860008be6f65b58c6c6e02a84e666efe31890549043749063ad800801ba03c9013dbd017ddbe170ebd4ab86ac2d82418910e0251b971ad80fe4e8da8f078a06fd278e6296b91d8fb835dc375be11fe6a2fabf2d4eddfae5de0540facb44d02",
      "networkId": 0,
      "chainId": 0
    }
  ]
}