{
  "hash": "0xbcc4bf736987ca56fc6d384290de3cf99601a466841f04ab8a46a5adf4643454",
  "parentHash": "0xfa7a14cb27c3a1d9607b67f4531860c3471fb544104f1975846508a002e0b42e",
  "number": 90047,
  "timestamp": 1439633277,
  "nonce": "0x5b64eea1de741124",
  "difficulty": 3343396563288,
  "gasLimit": {
    "_hex": "0x2fefd8"
  },
  "gasUsed": {
    "_hex": "0x5208"
  },
  "miner": "0xf927a40C8B7F6E07c5af7FA2155B4864a4112B13",
  "extraData": "0x",
  "transactions": [
    {
      "hash": "0xecf1cc99506776c7eb74edaad731cd954daf2e74df7624a1a51d94b24a73166f",
      "blockHash": "0xbcc4bf736987ca56fc6d384290de3cf99601a466841f04ab8a46a5adf4643454",
      "blockNumber": 90047,
      "transactionIndex": 0,
      "confirmations": null,
      "from": "0x9c138F36D624fbF52f1c898A30980d78859A446A",
      "gasPrice": {
        "_hex": "0xd1c343161"
      },
      "gasLimit": {
        "_hex": "0x55f0"
      },
      "to": "0xfa61FFF5ba13ff0DD59B579457F557e0ddeD02dA",
      "value": {
        "_hex": "0x270801d946c940000"
      },
      "nonce": 2,
      "data": "0x",
      "r": "0x699b8ed8412c0401c2e2ec7609bcb0663c5c07fe7a02c4cdb321aaaa03df8a80",
      "s": "0x16ad7c4afcc88bd655a21ff83a1af87da604e901faa893338609245dc0a503eb",
      "v": 27,
      "creates": null,
      "raw": "0xf86d02850d1c3431618255f094fa61fff5ba13ff0dd59b579457f557e0dded02da890270801d946c940000801ba0699b8ed8412c0401c2e2ec7609bcb0663c5c07fe7a02c4cdb321aaaa03df8a80a016ad7c4afcc88bd655a21ff83a1af87da604e901faa893338609245dc0a503eb",
      "networkId": 0,
      "chainId": 0
    }
  ]
}