{
  "hash": "0xd4202ffd00409cfb9a2b6637a623bdbecec1d21147d548daf5c559a0afc6e703",
  "parentHash": "0xec0601c371e65fb044ec0cf98a3c0f85afa128d3b1fd120654955ee29b7a8b92",
  "number": 46664,
  "timestamp": 1438927166,
  "nonce": "0x25a9f215e95c1a7a",
  "difficulty": 1456058365645,
  "gasLimit": {
    "_hex": "0x6f7d"
  },
  "gasUsed": {
    "_hex": "0x5208"
  },
  "miner": "0xeB1325C8D9d3ea8D74aC11F4B00F1B2367686319",
  "extraData": "0x476574682f76312e302e312f77696e646f77732f676f312e342e32",
  "transactions": [
    {
      "hash": "0xcc0e26052aed89450d3500ac6d3bc2c4ffa91db26e81eaf85a1345b0c98bb0a7",
      "blockHash": "0xd4202ffd00409cfb9a2b6637a623bdbecec1d21147d548daf5c559a0afc6e703",
      "blockNumber": 46664,
      "transactionIndex": 0,
      "confirmations": null,
      "from": "0xa89AC93b23370472DaAc337E9afdF642543F3E57",
      "gasPrice": {
        "_hex": "0x24e979272d"
      },
      "gasLimit": {
        "_hex": "0x5208"
      },
      "to": "0x92c27672FE65e002159Ec2597fcf8897ADBf5B29",
      "value": {
        "_hex": "0x8ac7230489e80000"
      },
      "nonce": 12,
      "data": "0x",
      "r": "0x206c2854d9735c3b2bf5415767a5b2231122a346dec88d68c816a4f7b9847322",
      "s": "0x253699b3554b22c04e792bee0f9001dd91e0a3376bec28716e5531b36ed8cc2b",
      "v": 28,
      "creates": null,
      "raw": "0xf86c0c8524e979272d8252089492c27672fe65e002159ec2597fcf8897adbf5b29888ac7230489e80000801ca0206c2854d9735c3b2bf5415767a5b2231122a346dec88d68c816a4f7b9847322a0253699b3554b22c04e792bee0f9001dd91e0a3376bec28716e5531b36ed8cc2b",
      "networkId": 0,
      "chainId": 0
    }
  ]
}