{
  "hash": "0xef8d6f0d0fb55f4d4e63b1e659c8874ce774f8528c2b58bab7a378a0b6843755",
  "parentHash": "0xb0a5b2bcd4231bdccd51a1608c8a774aa8d98de282bb9e35d5479d796cd27a7a",
  "number": 89714,
  "timestamp": 1439627951,
  "nonce": "0x57decd495d5ae1c3",
  "difficulty": 3328868280342,
  "gasLimit": {
    "_hex": "0x2fefd8"
  },
  "gasUsed": {
    "_hex": "0x5208"
  },
  "miner": "0xe6A7a1d47ff21B6321162AEA7C6CB457D5476Bca",
  "extraData": "0x476574682f76312e302e312d38326566323666362f6c696e75782f676f312e34",
  "transactions": [
    {
      "hash": "0x57ba908b92247f6fe08bdb45c23a74bff6b2ee08de28b6d577c121f4adb67317",
      "blockHash": "0xef8d6f0d0fb55f4d4e63b1e659c8874ce774f8528c2b58bab7a378a0b6843755",
      "blockNumber": 89714,
      "transactionIndex": 0,
      "confirmations": null,
      "from": "0x32Be343B94f860124dC4fEe278FDCBD38C102D88",
      "gasPrice": {
        "_hex": "0xcf09cc7ca"
      },
      "gasLimit": {
        "_hex": "0x5208"
      },
      "to": "0xa21E0cF3793cf75D63930696158E4474aF8383bA",
      "value": {
        "_hex": "0x1b1ac14ff07f8f0000"
      },
      "nonce": 846,
      "data": "0x",
      "r": "0x2c20b82aba54393db67e0984c046748d859da28d18d5260354ec64a2ed651de1",
      "s": "0x6d0479ebb04cb69ab3db9d9bd317184dbfe28f9a818c93fcaa4151ee447486a3",
      "v": 27,
      "creates": null,
      "raw": "0xf86f82034e850cf09cc7ca82520894a21e0cf3793cf75d63930696158e4474af8383ba891b1ac14ff07f8f0000801ba02c20b82aba54393db67e0984c046748d859da28d18d5260354ec64a2ed651de1a06d0479ebb04cb69ab3db9d9bd317184dbfe28f9a818c93fcaa4151ee447486a3",
      "networkId": 0,
      "chainId": 0
    }
  ]
}