{
  "hash": "0x86c437c012c4abd8a56e889e3e0e1d85aa26763fefd8164d443adc89e388b3fd",
  "parentHash": "0xba0eea57c6290936ffae82ce46e0f4ab7aa2de6644f201b1d41b2c4ce028c53d",
  "number": 75061,
  "timestamp": 1439397073,
  "nonce": "0x010da630fbc99df1",
  "difficulty": 2181609101798,
  "gasLimit": {
    "_hex": "0x2fefd8"
  },
  "gasUsed": {
    "_hex": "0x122d5"
  },
  "miner": "0x27FFE9fAaA5516EFCC9E6a17B25e4b6F05D7A04D",
  "extraData": "0xd983010001844765746887676f312e342e328777696e646f7773",
  "transactions": [
    {
      "hash": "0x81fefd80de27796b94b8a99e6c6ae95f309912f8942499d3c96c77b9bb9885eb",
      "blockHash": "0x86c437c012c4abd8a56e889e3e0e1d85aa26763fefd8164d443adc89e388b3fd",
      "blockNumber": 75061,
      "transactionIndex": 0,
      "confirmations": null,
      "from": "0x326Be8F71bFb0379f989aAB1CC1fE37f0a771f60",
      "gasPrice": {
        "_hex": "0x113a527a850"
      },
      "gasLimit": {
        "_hex": "0x493e0"
      },
      "to": "0xD79B4C6791784184e2755B2fC1659eaaB0f80456",
      "value": {
        "_hex": "0xde0b6b3a7640000"
      },
      "nonce": 68,
      "data": "0x8d21618600000000000000000000000000000000000000000000000000000000000000054e78e51569ef4ff78e4194fcdf0964b36f64266255fb351049c060b05e47af99",
      "r": "0x597040391cc08c15a5d365d0fe8de47a50289a200b7200a0f755bae1bfc881f0",
      "s": "0x281f56dd97db0806316911f3839b4b464aaf9a574ef9f903502b6421f92bec0b",
      "v": 28,
      "creates": null,
      "raw": "0xf8b344860113a527a850830493e094d79b4c6791784184e2755b2fc1659eaab0f80456880de0b6b3a7640000b8448d21618600000000000000000000000000000000000000000000000000000000000000054e78e51569ef4ff78e4194fcdf0964b36f64266255fb351049c060b05e47af991ca0597040391cc08c15a5d365d0fe8de47a50289a200b7200a0f755bae1bfc881f0a0281f56dd97db0806316911f3839b4b464aaf9a574ef9f903502b6421f92bec0b",
      "networkId": 0,
      "chainId": 0
    },
    {
      "hash": "0xfa3cf9b73ab5f624c30c4307c53dfc56271610e7bc70f352cc1d4fb2e6dcfa73",
      "blockHash": "0x86c437c012c4abd8a56e889e3e0e1d85aa26763fefd8164d443adc89e388b3fd",
      "blockNumber": 75061,
      "transactionIndex": 1,
      "confirmations": null,
      "from": "0xAb7091932e4bC39dbB552380cA934FD7166D1e6E",
      "gasPrice": {
        "_hex": "0x110c8f7d8de"
      },
      "gasLimit": {
        "_hex": "0xc350"
      },
      "to": "0x2910543Af39abA0Cd09dBb2D50200b3E800A63D2",
      "value": {
        "_hex": "0xb501eef938454c0000"
      },
      "nonce": 0,
      "data": "0x454e39555758423447",
      "r": "0x1a5e83373e4f7afb83e831e7d7a617c49481302192aa257fa01d9014c4461478",
      "s": "0xa6f470425f5e5769698ee82ced969489c4a9a46a0254fa702db0a820ad0a1c9b",
      "v": 27,
      "creates": null,
      "raw": "0xf87780860110c8f7d8de82c350942910543af39aba0cd09dbb2d50200b3e800a63d289b501eef938454c000089454e395557584234471ba01a5e83373e4f7afb83e831e7d7a617c49481302192aa257fa01d9014c4461478a0a6f470425f5e5769698ee82ced969489c4a9a46a0254fa702db0a820ad0a1c9b",
      "networkId": 0,
      "chainId": 0
    },
    {
      "hash": "0x8e5bb66ba0755214e4c88ff7d06eafa1fbd05f50364ccb2c4437298f5fa87961",
      "blockHash": "0x86c437c012c4abd8a56e889e3e0e1d85aa26763fefd8164d443adc89e388b3fd",
      "blockNumber": 75061,
      "transactionIndex": 2,
      "confirmations": null,
      "from": "0x5Bf5E9cf9B456d6591073513De7Fd69A9BEF04Bc",
      "gasPrice": {
        "_hex": "0xd55b30852"
      },
      "gasLimit": {
        "_hex": "0x55f0"
      },
      "to": "0xBc91527B31Fbbe397F91C2b9273Ea32b0d9a19a0",
      "value": {
        "_hex": "0x1480dc41053209a8"
      },
      "nonce": 3,
      "data": "0x454e51575855545752",
      "r": "0x14527f710c0e009a8f875136da7c2d9c36781c80cfb3b18dc03bc482f30b9ea2",
      "s": "0x48582478d238e0e5782368e8143c4e81534167db76d1271254d1ef065dc01cb6",
      "v": 27,
      "creates": null,
      "raw": "0xf87503850d55b308528255f094bc91527b31fbbe397f91c2b9273ea32b0d9a19a0881480dc41053209a889454e515758555457521ba014527f710c0e009a8f875136da7c2d9c36781c80cfb3b18dc03bc482f30b9ea2a048582478d238e0e5782368e8143c4e81534167db76d1271254d1ef065dc01cb6",
      "networkId": 0,
      "chainId": 0
    }
  ]
}