{
  "hash": "0x49fdbc52da19bbd7be04c62125756c8e5c77191917b0efc0538293092e7abc01",
  "parentHash": "0x2c1d69145441f35df54246b422452569b47c2298ec8c33af938fda76f1ef835d",
  "number": 84022,
  "timestamp": 1439543906,
  "nonce": "0x699a8806528b5693",
  "difficulty": 2490031302800,
  "gasLimit": {
    "_hex": "0x2fefd8"
  },
  "gasUsed": {
    "_hex": "0x546c"
  },
  "miner": "0x7D45E10A0d63eCCA0694a7cbfF030f4dD87DA0dC",
  "extraData": "0x476574682f76312e302e302f77696e646f77732f676f312e342e32",
  "transactions": [
    {
      "hash": "0x65fc465e4d6b024e09e8a61f4edc1f574176a9619d3a2b7fa2975360666bc171",
      "blockHash": "0x49fdbc52da19bbd7be04c62125756c8e5c77191917b0efc0538293092e7abc01",
      "blockNumber": 84022,
      "transactionIndex": 0,
      "confirmations": null,
      "from": "0x5F1c8A04c90d735B8A152909AeAe636FB0cE1665",
      "gasPrice": {
        "_hex": "0x110c8f7d8de"
      },
      "gasLimit": {
        "_hex": "0xc350"
      },
      "to": "0x2910543Af39abA0Cd09dBb2D50200b3E800A63D2",
      "value": {
        "_hex": "0x3627e8f712373c0000"
      },
      "nonce": 0,
      "data": "0x454e4e5a3137384b38",
      "r": "0xbf8293fcfc1ff378402f92e58f22a975432648cd1317518c72e4c46b53a6d89f",
      "s": "0xf10cf0b7156260e2a16d1bbe68f9b3e88ca0343c33106114f0aa162ed89c7879",
      "v": 28,
      "creates": null,
      "raw": "0xf87780860110c8f7d8de82c350942910543af39aba0cd09dbb2d50200b3e800a63d2893627e8f712373c000089454e4e5a3137384b381ca0bf8293fcfc1ff378402f92e58f22a975432648cd1317518c72e4c46b53a6d89fa0f10cf0b7156260e2a16d1bbe68f9b3e88ca0343c33106114f0aa162ed89c7879",
      "networkId": 0,
      "chainId": 0
    }
  ]
}