{
  "hash": "0x76140273b743bd5cb30841106b549af4c350529ee4d58767be5486263bc56d7c",
  "parentHash": "0x9061ee2cf5c955ba41f37770a4e2a32c67b53a216fdd660cdbc18952fac403da",
  "number": 70907,
  "timestamp": 1439327214,
  "nonce": "0x82488fbfecb2f067",
  "difficulty": 2157260585076,
  "gasLimit": {
    "_hex": "0x2fe3de"
  },
  "gasUsed": {
    "_hex": "0x546c"
  },
  "miner": "0x40F9427946743c60273C468bbaa05ad04D5C34F5",
  "extraData": "0x476574682f76312e302e302d30333937633636632f6c696e75782f676f312e34",
  "transactions": [
    {
      "hash": "0x181c9c378f14a81eee1f9558881894f4bfc7d56c534beac3397ae30bf185d8b0",
      "blockHash": "0x76140273b743bd5cb30841106b549af4c350529ee4d58767be5486263bc56d7c",
      "blockNumber": 70907,
      "transactionIndex": 0,
      "confirmations": null,
      "from": "0x4A192035E2619b24b0709D56590E9183CcF2C1D9",
      "gasPrice": {
        "_hex": "0x110c8f7d8de"
      },
      "gasLimit": {
        "_hex": "0xc350"
      },
      "to": "0x2910543Af39abA0Cd09dBb2D50200b3E800A63D2",
      "value": {
        "_hex": "0x202fefbf2d7c2f00000"
      },
      "nonce": 0,
      "data": "0x454e4d324d55374d47",
      "r": "0x544c69691cafc6eb77e440778be47a9e8dd27318e0710f82331b654028dc64ef",
      "s": "0xb633b09f404a0f02efde7320edd6ab32c0a13242e2191031dbce634fee8f210a",
      "v": 27,
      "creates": null,
      "raw": "0xf87880860110c8f7d8de82c350942910543af39aba0cd09dbb2d50200b3e800a63d28a0202fefbf2d7c2f0000089454e4d324d55374d471ba0544c69691cafc6eb77e440778be47a9e8dd27318e0710f82331b654028dc64efa0b633b09f404a0f02efde7320edd6ab32c0a13242e2191031dbce634fee8f210a",
      "networkId": 0,
      "chainId": 0
    }
  ]
}