{
  "hash": "0x95ed6b904eeb2409f0d55ffaf9124074c8c33e6126d7322c3ee3ea2f38f346e0",
  "parentHash": "0x98707c13b3aef22e42fdc568b71ccc6bd41a0efdf7999e5a391c19682f57e23a",
  "number": 54665,
  "timestamp": 1439057982,
  "nonce": "0x8f1c313d00e01588",
  "difficulty": 1622009753553,
  "gasLimit": {
    "_hex": "0x2fe3db"
  },
  "gasUsed": {
    "_hex": "0x5208"
  },
  "miner": "0x01d9DA08cc6Fb97c0DE1B6F4C28910A0859Ed1A1",
  "extraData": "0x476574682f76312e302e312f6c696e75782f676f312e342e32",
  "transactions": [
    {
      "hash": "0x722e92eaf983e85b6d849740df483e0b6427b87b7ec30abf95898232bc813a54",
      "blockHash": "0x95ed6b904eeb2409f0d55ffaf9124074c8c33e6126d7322c3ee3ea2f38f346e0",
      "blockNumber": 54665,
      "transactionIndex": 0,
      "confirmations": null,
      "from": "0xCA092A957744f6385B1aee5dC694143E8A06F805",
      "gasPrice": {
        "_hex": "0xe1711ff1c"
      },
      "gasLimit": {
        "_hex": "0x15f90"
      },
      "to": "0x63F31A3e1e0cAA8aCe0dD732D556e210BfF11d2a",
      "value": {
        "_hex": "0x214e8348c4f0000"
      },
      "nonce": 19,
      "data": "0x",
      "r": "0xdad7edc6799abaff0dfa76aa1514869af5e84fe2f01a85059b28ae04451d7810",
      "s": "0x084aa2ba68931d8281b2d357643ea35399a2582bd26e5c1c2faf4f6446ac03f5",
      "v": 28,
      "creates": null,
      "raw": "0xf86d13850e1711ff1c83015f909463f31a3e1e0caa8ace0dd732d556e210bff11d2a880214e8348c4f0000801ca0dad7edc6799abaff0dfa76aa1514869af5e84fe2f01a85059b28ae04451d7810a0084aa2ba68931d8281b2d357643ea35399a2582bd26e5c1c2faf4f6446ac03f5",
      "networkId": 0,
      "chainId": 0
    }
  ]
}