{
  "hash": "0x01a5c748590dd66c7ba2c7e97e32f3989ba737ae5de350fc9e2c9abef0ca312f",
  "parentHash": "0xc4b3cdbfda4e34a858b11e326853ed48a52f75e2f7475aeac51662562cf554e1",
  "number": 51515,
  "timestamp": 1439006075,
  "nonce": "0x1ad9b88a8f1683bf",
  "difficulty": 1569627532296,
  "gasLimit": {
    "_hex": "0xb9ca8"
  },
  "gasUsed": {
    "_hex": "0x5208"
  },
  "miner": "0x2134e2a2b718DCa96580ECAC31E653Ea1fdd58DA",
  "extraData": "0x476574682f76312e302e312f77696e646f77732f676f312e342e32",
  "transactions": [
    {
      "hash": "0x04c0d5aae973c4b876994f42f545d2b4d169c443b1d188e2c3cc03f4a73c6152",
      "blockHash": "0x01a5c748590dd66c7ba2c7e97e32f3989ba737ae5de350fc9e2c9abef0ca312f",
      "blockNumber": 51515,
      "transactionIndex": 0,
      "confirmations": null,
      "from": "0x9E0Afd592B1e40BEe26816E360f02eebF04aD74B",
      "gasPrice": {
        "_hex": "0xcce416600"
      },
      "gasLimit": {
        "_hex": "0x5208"
      },
      "to": "0x81c039692a575005F2f5F26C6F69DbA26a8F6408",
      "value": {
        "_hex": "0xd02ab486cedc0000"
      },
      "nonce": 1,
      "data": "0x",
      "r": "0x8975e6ce400e6ab1ef0c9308bfb87f3619b75228f9240561ce825147d17ba1da",
      "s": "0x4881d038e52c2abbad7d30889696568decda83b9a2d1f776eb5c79664fdbf6dd",
      "v": 28,
      "creates": null,
      "raw": "0xf86c01850cce4166008252089481c039692a575005f2f5f26c6f69dba26a8f640888d02ab486cedc0000801ca08975e6ce400e6ab1ef0c9308bfb87f3619b75228f9240561ce825147d17ba1daa04881d038e52c2abbad7d30889696568decda83b9a2d1f776eb5c79664fdbf6dd",
      "networkId": 0,
      "chainId": 0
    }
  ]
}