{
  "hash": "0xecf582fa7adc0fd4c67de267b1ab369c47aa07e525fdf77f16aa54a5b2bac405",
  "parentHash": "0x3437555ef90d420b2b1a1f156ee7cd6500d22053e8a8d8cd9e34d8abdc677a7d",
  "number": 58835,
  "timestamp": 1439127460,
  "nonce": "0x161aaf3d16ea34d2",
  "difficulty": 1710660935656,
  "gasLimit": {
    "_hex": "0x2fefd8"
  },
  "gasUsed": {
    "_hex": "0x546c"
  },
  "miner": "0x9746c7e1ef2bd21FF3997fa467593a89cb852BD0",
  "extraData": "0x476574682f76312e302e312f77696e646f77732f676f312e342e32",
  "transactions": [
    {
      "hash": "0x87f83029c8265b64c1699eca7555d5ba04d4be125b84f8ad58274928c3e12dc6",
      "blockHash": "0xecf582fa7adc0fd4c67de267b1ab369c47aa07e525fdf77f16aa54a5b2bac405",
      "blockNumber": 58835,
      "transactionIndex": 0,
      "confirmations": null,
      "from": "0x0BAf6ecDB91acB3606a8357C0bc4f45cFd2d7e6F",
      "gasPrice": {
        "_hex": "0x110c8f7d8de"
      },
      "gasLimit": {
        "_hex": "0xc350"
      },
      "to": "0x2910543Af39abA0Cd09dBb2D50200b3E800A63D2",
      "value": {
        "_hex": "0x35ab028ac154b80000"
      },
      "nonce": 0,
      "data": "0x454e594b5534583738",
      "r": "0xab64108c40f344ab150264a02b5efaabb6a0597738f99801b613a6449bc6aa30",
      "s": "0x6995acc5e3bcc9a0fd15474bf499550e11a604f193d3037f7a71b6752ffea17b",
      "v": 28,
      "creates": null,
      "raw": "0xf87780860110c8f7d8de82c350942910543af39aba0cd09dbb2d50200b3e800a63d28935ab028ac154b8000089454e594b55345837381ca0ab64108c40f344ab150264a02b5efaabb6a0597738f99801b613a6449bc6aa30a06995acc5e3bcc9a0fd15474bf499550e11a604f193d3037f7a71b6752ffea17b",
      "networkId": 0,
      "chainId": 0
    }
  ]
}