{
  "hash": "0xf122e7bf448eb262067fd95cd7327d66fc80867493d85926c984341f97448625",
  "parentHash": "0x12244dc2b9edb9edf607a8ff77cddfbb49a9806a21f2b9742f50f684c1492bd3",
  "number": 54423,
  "timestamp": 1439054070,
  "nonce": "0xc2625143b40e0e77",
  "difficulty": 1609433601830,
  "gasLimit": {
    "_hex": "0x2fe3de"
  },
  "gasUsed": {
    "_hex": "0x546c"
  },
  "miner": "0x2089035369B33403DdcaBa6258c34e0B3FfbbBd9",
  "extraData": "0x476574682f76312e302e302d30333937633636632f6c696e75782f676f312e34",
  "transactions": [
    {
      "hash": "0x4bc5bba3ed93464fa3346850cab7233aba801a5fcc982eba6d714e7e328ad523",
      "blockHash": "0xf122e7bf448eb262067fd95cd7327d66fc80867493d85926c984341f97448625",
      "blockNumber": 54423,
      "transactionIndex": 0,
      "confirmations": null,
      "from": "0x710b0274d712C77E08a5707D6f3E70c0Ce3d92CF",
      "gasPrice": {
        "_hex": "0xfe20abd7d4"
      },
      "gasLimit": {
        "_hex": "0x15f90"
      },
      "to": "0x2910543Af39abA0Cd09dBb2D50200b3E800A63D2",
      "value": {
        "_hex": "0xa2a15d09519be00000"
      },
      "nonce": 0,
      "data": "0x454e42304e4b394752",
      "r": "0xd788b8e83166ccbe346b7145cc08bbaa70e1ac3eff536adeef163760c9c91b58",
      "s": "0x450fd6f5dbab4e7fe9a9402c582f22316a76b0666194e37f3d4c20f55aa083df",
      "v": 28,
      "creates": null,
      "raw": "0xf8778085fe20abd7d483015f90942910543af39aba0cd09dbb2d50200b3e800a63d289a2a15d09519be0000089454e42304e4b3947521ca0d788b8e83166ccbe346b7145cc08bbaa70e1ac3eff536adeef163760c9c91b58a0450fd6f5dbab4e7fe9a9402c582f22316a76b0666194e37f3d4c20f55aa083df",
      "networkId": 0,
      "chainId": 0
    }
  ]
}