{
  "hash": "0x96f75103658106ce452820dc70dbaf57d970c2209f4b9f3cad10e3e7284140c0",
  "parentHash": "0x94a8fbd83c95cdd0707c410f744188721186d7f7d64838781d56073a44cd90c9",
  "number": 52772,
  "timestamp": 1439027035,
  "nonce": "0x6f88b1e7ce06f322",
  "difficulty": 1571692946723,
  "gasLimit": {
    "_hex": "0x1976fa"
  },
  "gasUsed": {
    "_hex": "0x5208"
  },
  "miner": "0xf927a40C8B7F6E07c5af7FA2155B4864a4112B13",
  "extraData": "0x476574682f76312e302e312f6c696e75782f676f312e342e32",
  "transactions": [
    {
      "hash": "0x324144341332e1d25229d4a68c20259cba2aae5cc9ff70f7145d0621adaa083d",
      "blockHash": "0x96f75103658106ce452820dc70dbaf57d970c2209f4b9f3cad10e3e7284140c0",
      "blockNumber": 52772,
      "transactionIndex": 0,
      "confirmations": null,
      "from": "0x31eD858788bda4D5270992221Cc04206ec62610d",
      "gasPrice": {
        "_hex": "0xd5abfb5f1"
      },
      "gasLimit": {
        "_hex": "0x15f90"
      },
      "to": "0x262A8bFD7D9dC5dD3Ad78161B6Bb560824373655",
      "value": {
        "_hex": "0xd816d24f5deb000"
      },
      "nonce": 1,
      "data": "0x",
      "r": "0xa12e27d6630fc26344d9b4c5b934e470f762e1eb6b985c59acbb598785fa09d5",
      "s": "0x4c92d3bd5d11a3246a1ea054fd7fd40efd251cedf6dba5fb828a38afedbfcfe6",
      "v": 28,
      "creates": null,
      "raw": "0xf86d01850d5abfb5f183015f9094262a8bfd7d9dc5dd3ad78161b6bb560824373655880d816d24f5deb000801ca0a12e27d6630fc26344d9b4c5b934e470f762e1eb6b985c59acbb598785fa09d5a04c92d3bd5d11a3246a1ea054fd7fd40efd251cedf6dba5fb828a38afedbfcfe6",
      "networkId": 0,
      "chainId": 0
    }
  ]
}