{
  "hash": "0x4e804aaf920baaac49465ca07144d3ce46f83f8671291ae35453241980630f2f",
  "parentHash": "0xc9287449847837ad309d6f20614d3091790c76e71d35a572baf5ce689c707851",
  "number": 110033,
  "timestamp": 1439966969,
  "nonce": "0x4d30301bce65d0f6",
  "difficulty": 4392925275926,
  "gasLimit": {
    "_hex": "0x2fefd8"
  },
  "gasUsed": {
    "_hex": "0x5208"
  },
  "miner": "0x2134e2a2b718DCa96580ECAC31E653Ea1fdd58DA",
  "extraData": "0x476574682f76312e302e312f77696e646f77732f676f312e342e32",
  "transactions": [
    {
      "hash": "0xb81f3b9ad61ddea7d362a00ff88f0eb7b01b519d95b53388b7c1f758c2d90aab",
      "blockHash": "0x4e804aaf920baaac49465ca07144d3ce46f83f8671291ae35453241980630f2f",
      "blockNumber": 110033,
      "transactionIndex": 0,
      "confirmations": null,
      "from": "0x30ed11b77bc17E5e6694c8Bc5B6e4798F68D9Ca7",
      "gasPrice": {
        "_hex": "0xba43b7400"
      },
      "gasLimit": {
        "_hex": "0x15f90"
      },
      "to": "0xfBbf1e41C1B39888464D0F30f598d54262Fcc2E9",
      "value": {
        "_hex": "0xa968163f0a57b400000"
      },
      "nonce": 4,
      "data": "0x",
      "r": "0xc13776e010f3bc066e0b9266f865b455c285f197157c957153b831d692d9a50e",
      "s": "0x294bac9a471e26cfa5348da53bdb54248d491d14129c632c6a62e1a1f552ac34",
      "v": 28,
      "creates": null,
      "raw": "0xf86f04850ba43b740083015f9094fbbf1e41c1b39888464d0f30f598d54262fcc2e98a0a968163f0a57b400000801ca0c13776e010f3bc066e0b9266f865b455c285f197157c957153b831d692d9a50ea0294bac9a471e26cfa5348da53bdb54248d491d14129c632c6a62e1a1f552ac34",
      "networkId": 0,
      "chainId": 0
    }
  ]
}