{
  "hash": "0x44a27a09a7c97b5f568050b5c53b802d068d937d244a72b35c3353ed1f6d3161",
  "parentHash": "0xdb5fc4325ad3dd2ceb5a94cda4b0966d2510b965100c1f74999e58dbc94480f2",
  "number": 76394,
  "timestamp": 1439419758,
  "nonce": "0xca7d95cd45549f3b",
  "difficulty": 2227544625394,
  "gasLimit": {
    "_hex": "0x2fefd8"
  },
  "gasUsed": {
    "_hex": "0xad77"
  },
  "miner": "0xB1F9FAAfe5f917d92EBf5b21C25dC77c2CF86000",
  "extraData": "0x476574682f76312e302e312f77696e646f77732f676f312e342e32",
  "transactions": [
    {
      "hash": "0x0d640ae915ecb1f80265f635266a22c757de648d7f57d6cfe8d582fa65dcd6c1",
      "blockHash": "0x44a27a09a7c97b5f568050b5c53b802d068d937d244a72b35c3353ed1f6d3161",
      "blockNumber": 76394,
      "transactionIndex": 0,
      "confirmations": null,
      "from": "0x87C5B5874A18B4306DF8a752a6C8cc3E82daFc19",
      "gasPrice": {
        "_hex": "0xff90def8b1"
      },
      "gasLimit": {
        "_hex": "0x493e0"
      },
      "to": "0xD79B4C6791784184e2755B2fC1659eaaB0f80456",
      "value": {
        "_hex": "0x0"
      },
      "nonce": 74,
      "data": "0x03750d940000000000000000000000008be84a3adfbc51c59023b2413766e229108c35de3433346162356665343234623462386400000000000000000000000000000000",
      "r": "0xa5cfd1fd4e2b6f4c26840cf71065c21469a8ecb7616c48777b29539e83c4a08c",
      "s": "0x19da31c7b0017a3c25e5055b8780bc3480f512bdd27efb2b90875165cfaf14a1",
      "v": 28,
      "creates": null,
      "raw": "0xf8aa4a85ff90def8b1830493e094d79b4c6791784184e2755b2fc1659eaab0f8045680b84403750d940000000000000000000000008be84a3adfbc51c59023b2413766e229108c35de34333461623566653432346234623864000000000000000000000000000000001ca0a5cfd1fd4e2b6f4c26840cf71065c21469a8ecb7616c48777b29539e83c4a08ca019da31c7b0017a3c25e5055b8780bc3480f512bdd27efb2b90875165cfaf14a1",
      "networkId": 0,
      "chainId": 0
    }
  ]
}