{
  "hash": "0x9cea33d8c323aefae5d0dae79586d34cb33dfe7744a9fc500549eb66e2ac03e6",
  "parentHash": "0x17079e5834c022554c8c80311065cee2d826c4592e21426b4f498aa2cf4b5cc5",
  "number": 72998,
  "timestamp": 1439361581,
  "nonce": "0x3691fe312759a5f9",
  "difficulty": 2211104685194,
  "gasLimit": {
    "_hex": "0x2fefd8"
  },
  "gasUsed": {
    "_hex": "0x522d"
  },
  "miner": "0xcAF987dC6DAcB89E1e6Eba13265426e7132E15db",
  "extraData": "0x476574682f76312e302e312f6c696e75782f676f312e342e32",
  "transactions": [
    {
      "hash": "0x72499e4e43cb9c5812cb58bc628c81164316d0ce21b0a4a9abf6ca78039bb9c7",
      "blockHash": "0x9cea33d8c323aefae5d0dae79586d34cb33dfe7744a9fc500549eb66e2ac03e6",
      "blockNumber": 72998,
      "transactionIndex": 0,
      "confirmations": null,
      "from": "0x326Be8F71bFb0379f989aAB1CC1fE37f0a771f60",
      "gasPrice": {
        "_hex": "0x10288ace22f"
      },
      "gasLimit": {
        "_hex": "0x15f90"
      },
      "to": "0x7153FdeEf24E488Af4dc001F620407764ee47747",
      "value": {
        "_hex": "0xde0b6b3a7640000"
      },
      "nonce": 24,
      "data": "0x",
      "r": "0xcad4164522c1c769ced674c2b662fc980673e856de0463f0d134726621e2caaa",
      "s": "0x3a83ad6b104832641bc5eb893f87e9ad20046b2cacc36a267cc4730dd9b65f27",
      "v": 28,
      "creates": null,
      "raw": "0xf86e1886010288ace22f83015f90947153fdeef24e488af4dc001f620407764ee47747880de0b6b3a7640000801ca0cad4164522c1c769ced674c2b662fc980673e856de0463f0d134726621e2caaaa03a83ad6b104832641bc5eb893f87e9ad20046b2cacc36a267cc4730dd9b65f27",
      "networkId": 0,
      "chainId": 0
    }
  ]
}