{
  "hash": "0x347ea904e66263cd913479c90aa775d3a3bee4009016fcf5fd07e6194c2d4750",
  "parentHash": "0x5b742b636f5a3c2368df16d34c60ae72587f66be224864f64e879c9675c08697",
  "number": 67293,
  "timestamp": 1439269604,
  "nonce": "0x06fca4c738c579ed",
  "difficulty": 1919534065351,
  "gasLimit": {
    "_hex": "0x2fefd5"
  },
  "gasUsed": {
    "_hex": "0x5208"
  },
  "miner": "0x65Fe776c996eB7c15f86F236B945353b9a18f335",
  "extraData": "0x476574682f76312e302e312f77696e646f77732f676f312e342e32",
  "transactions": [
    {
      "hash": "0x4eda040b96bab6b79dc1802c21f1bcb58b7b88c2d0374bff489801294d61d207",
      "blockHash": "0x347ea904e66263cd913479c90aa775d3a3bee4009016fcf5fd07e6194c2d4750",
      "blockNumber": 67293,
      "transactionIndex": 0,
      "confirmations": null,
      "from": "0x120A270bbC009644e35F0bB6ab13f95b8199c4ad",
      "gasPrice": {
        "_hex": "0xd28669749"
      },
      "gasLimit": {
        "_hex": "0x15f90"
      },
      "to": "0x7244C460dEA1e5835772469AbBF5426D4ad14d59",
      "value": {
        "_hex": "0x4633bc36cbc2dc0000"
      },
      "nonce": 160,
      "data": "0x",
      "r": "0x09b44bf881095a7ece2ec4b5a9d614d9ee8ee7a28e068f5666c96c811b49e243",
      "s": "0x5cd93f1176020d1b29b6946e54d519f1c91f48043474aaa81ae3b97ec8bb4c16",
      "v": 27,
      "creates": null,
      "raw": "0xf86f81a0850d2866974983015f90947244c460dea1e5835772469abbf5426d4ad14d59894633bc36cbc2dc0000801ba009b44bf881095a7ece2ec4b5a9d614d9ee8ee7a28e068f5666c96c811b49e243a05cd93f1176020d1b29b6946e54d519f1c91f48043474aaa81ae3b97ec8bb4c16",
      "networkId": 0,
      "chainId": 0
    }
  ]
}