{
  "hash": "0xdf50cf2cd42e7d3b5e7046b7babf62675ae93af7be4ec3728440d56ae2b809e8",
  "parentHash": "0x5d4dc39382fc579b3892a481084cf5e00e5d8921489224cdf7d71348513bbb79",
  "number": 61768,
  "timestamp": 1439177833,
  "nonce": "0xcb658a44dc8dae12",
  "difficulty": 1731065646028,
  "gasLimit": {
    "_hex": "0x2fefd8"
  },
  "gasUsed": {
    "_hex": "0x5208"
  },
  "miner": "0xf8E0CA3Ed80bd541b94BEdCf259e8CF2141A9523",
  "extraData": "0x476574682f76312e302e312f77696e646f77732f676f312e342e32",
  "transactions": [
    {
      "hash": "0xdc03c3c27ebce09e5330790cf04490c9c0f535dafc265fb6fdd1a6eb2d1af418",
      "blockHash": "0xdf50cf2cd42e7d3b5e7046b7babf62675ae93af7be4ec3728440d56ae2b809e8",
      "blockNumber": 61768,
      "transactionIndex": 0,
      "confirmations": null,
      "from": "0x1308A2e95c0160B90803ddCA9B9a5bb55E416d79",
      "gasPrice": {
        "_hex": "0xe8d4a51000"
      },
      "gasLimit": {
        "_hex": "0x15f90"
      },
      "to": "0xE8009c3376fDA2ecA359d5bf683ee5C4D877cde5",
      "value": {
        "_hex": "0xb1a2bc2ec500000"
      },
      "nonce": 103,
      "data": "0x",
      "r": "0x4bb1026bf501e31ef778de0650fcf463d218524fd9cd73e9afb0a4e8fd42d3b5",
      "s": "0x483cab7b359e3230e7914e49a3778ec69d5e88d0e550f53f4b235622ef964387",
      "v": 27,
      "creates": null,
      "raw": "0xf86d6785e8d4a5100083015f9094e8009c3376fda2eca359d5bf683ee5c4d877cde5880b1a2bc2ec500000801ba04bb1026bf501e31ef778de0650fcf463d218524fd9cd73e9afb0a4e8fd42d3b5a0483cab7b359e3230e7914e49a3778ec69d5e88d0e550f53f4b235622ef964387",
      "networkId": 0,
      "chainId": 0
    }
  ]
}