{
  "hash": "0xa241e54ae7804ad12329c5bd9226a2688099baa97e49378a9b819c68e4021f2d",
  "parentHash": "0xb3346c18c83d43cc3f8d05e51162409e48d482c71d694857e3dca2e2f408e731",
  "number": 51215,
  "timestamp": 1439001284,
  "nonce": "0x1a76b0728d54cab7",
  "difficulty": 1563564050418,
  "gasLimit": {
    "_hex": "0x9b03e"
  },
  "gasUsed": {
    "_hex": "0xddfd"
  },
  "miner": "0xdd2F1e6e498202e86D8f5442Af596580A4f03c2C",
  "extraData": "0x476574682f76312e302e312d38326566323666362f6c696e75782f676f312e34",
  "transactions": [
    {
      "hash": "0xdd2ee3aa77dc6a9f5deeec122149e83c0eb13314c37af52419ca3e0409518601",
      "blockHash": "0xa241e54ae7804ad12329c5bd9226a2688099baa97e49378a9b819c68e4021f2d",
      "blockNumber": 51215,
      "transactionIndex": 0,
      "confirmations": null,
      "from": "0x2a9345Be3f611A15B4ac383C0f601c4B16b24577",
      "gasPrice": {
        "_hex": "0xd65e97fed"
      },
      "gasLimit": {
        "_hex": "0x7a120"
      },
      "to": "0x109C4f2CCc82C4d77Bde15F306707320294Aea3F",
      "value": {
        "_hex": "0xde0b6b3a7640000"
      },
      "nonce": 0,
      "data": "0x",
      "r": "0xdb8fea7cc0a42f4f212789d5dc3b05995cca74297a6f31e9280db6430496a20c",
      "s": "0x3f92ad30a06993ec53758c8c5478b4c4cf6d3eac830a6c01475e9ef550d5426f",
      "v": 28,
      "creates": null,
      "raw": "0xf86d80850d65e97fed8307a12094109c4f2ccc82c4d77bde15f306707320294aea3f880de0b6b3a7640000801ca0db8fea7cc0a42f4f212789d5dc3b05995cca74297a6f31e9280db6430496a20ca03f92ad30a06993ec53758c8c5478b4c4cf6d3eac830a6c01475e9ef550d5426f",
      "networkId": 0,
      "chainId": 0
    }
  ]
}