{
  "hash": "0x1df1984e79bbbf34ee9af22b33058a5fc03da12cbe282ec9566aeff4e746216d",
  "parentHash": "0x11f932c8112e2a5112b336e655bba5ce67b4839bedef379f1f1270a4f7403a55",
  "number": 58925,
  "timestamp": 1439129025,
  "nonce": "0xff03226cbb1ffcee",
  "difficulty": 1712313947844,
  "gasLimit": {
    "_hex": "0x2fefd8"
  },
  "gasUsed": {
    "_hex": "0x546c"
  },
  "miner": "0xf927a40C8B7F6E07c5af7FA2155B4864a4112B13",
  "extraData": "0x476574682f76312e302e312f6c696e75782f676f312e342e32",
  "transactions": [
    {
      "hash": "0x6f8e83316bf622c442fd56ef9c4a2ed6e50f453d094129ca915c4911bcc2b198",
      "blockHash": "0x1df1984e79bbbf34ee9af22b33058a5fc03da12cbe282ec9566aeff4e746216d",
      "blockNumber": 58925,
      "transactionIndex": 0,
      "confirmations": null,
      "from": "0x92c0F573ECCf62c54810ee6ba8D1F113542b301b",
      "gasPrice": {
        "_hex": "0x110c8f7d8de"
      },
      "gasLimit": {
        "_hex": "0xc350"
      },
      "to": "0x2910543Af39abA0Cd09dBb2D50200b3E800A63D2",
      "value": {
        "_hex": "0x3782dace9d900000"
      },
      "nonce": 0,
      "data": "0x454e594e5850575747",
      "r": "0x8cb4132b1726751a49e0ec5b97a0f4ccb9f2839d1c39141ddad44c018bf45e94",
      "s": "0x231a694a2a65903450f0f804c15b93d3e30222d5cdfcef0708a2e9f770360690",
      "v": 28,
      "creates": null,
      "raw": "0xf87680860110c8f7d8de82c350942910543af39aba0cd09dbb2d50200b3e800a63d2883782dace9d90000089454e594e58505757471ca08cb4132b1726751a49e0ec5b97a0f4ccb9f2839d1c39141ddad44c018bf45e94a0231a694a2a65903450f0f804c15b93d3e30222d5cdfcef0708a2e9f770360690",
      "networkId": 0,
      "chainId": 0
    }
  ]
}