{
  "hash": "0x2f3f78b958d9dc7c9e3d68961e96b906f4b91f9e3f1e114d1ac40e303acf566c",
  "parentHash": "0x1de63460fb78960dd3be7098c53d86e47efb0a849c608c0ca4bacd64a333d410",
  "number": 65796,
  "timestamp": 1439242986,
  "nonce": "0xfa17727ee2da26d2",
  "difficulty": 1951062744184,
  "gasLimit": {
    "_hex": "0x2fefd8"
  },
  "gasUsed": {
    "_hex": "0x5208"
  },
  "miner": "0xf927a40C8B7F6E07c5af7FA2155B4864a4112B13",
  "extraData": "0x",
  "transactions": [
    {
      "hash": "0x00c5e525fa246a4626a374c41d9117ef61d42470baaad68e4223572dfaf19e63",
      "blockHash": "0x2f3f78b958d9dc7c9e3d68961e96b906f4b91f9e3f1e114d1ac40e303acf566c",
      "blockNumber": 65796,
      "transactionIndex": 0,
      "confirmations": null,
      "from": "0x2dd8Eeef87194Abc2Ce7585da1E35B7CEa780Cb7",
      "gasPrice": {
        "_hex": "0xd1f8347d4"
      },
      "gasLimit": {
        "_hex": "0x15f90"
      },
      "to": "0xd6a456c0d46f7a8404f662bBEc6BA7da6252F503",
      "value": {
        "_hex": "0x15af1d78b58c400000"
      },
      "nonce": 2,
      "data": "0x",
      "r": "0x1ffa886c735d75bc68b40292bd7cbe122ac4f30bdf96b6d5416e68c00183fd85",
      "s": "0x76feb167478ac932e295cf1a090ce5f1a09d0ab10d45628f4d0873e60a1198ec",
      "v": 28,
      "creates": null,
      "raw": "0xf86e02850d1f8347d483015f9094d6a456c0d46f7a8404f662bbec6ba7da6252f5038915af1d78b58c400000801ca01ffa886c735d75bc68b40292bd7cbe122ac4f30bdf96b6d5416e68c00183fd85a076feb167478ac932e295cf1a090ce5f1a09d0ab10d45628f4d0873e60a1198ec",
      "networkId": 0,
      "chainId": 0
    }
  ]
}