{
  "hash": "0xcd8ff3bf5cb236da7cb0fcc0a040a8f89236c98e51a9dce0f3c5987a18d4dc42",
  "parentHash": "0x58d5113375d5494042587e3d2d93a724c66da158f31aa2581e47cc1a479fc128",
  "number": 68515,
  "timestamp": 1439289242,
  "nonce": "0x306be56194cbe876",
  "difficulty": 2005477374627,
  "gasLimit": {
    "_hex": "0x2fefd8"
  },
  "gasUsed": {
    "_hex": "0x1ec30"
  },
  "miner": "0xeB1325C8D9d3ea8D74aC11F4B00F1B2367686319",
  "extraData": "0x476574682f76312e302e312f77696e646f77732f676f312e342e32",
  "transactions": [
    {
      "hash": "0x9f177afccf1cec313458df8627d30e4901ad676eeb8b96a7cdf9d2e7519a6caa",
      "blockHash": "0xcd8ff3bf5cb236da7cb0fcc0a040a8f89236c98e51a9dce0f3c5987a18d4dc42",
      "blockNumber": 68515,
      "transactionIndex": 0,
      "confirmations": null,
      "from": "0x75F094909B1A18dD04AD35b9252f13b296721A0D",
      "gasPrice": {
        "_hex": "0xba43b7400"
      },
      "gasLimit": {
        "_hex": "0x5208"
      },
      "to": "0x6138926768c083222f4DAC1886aab983B8079D4A",
      "value": {
        "_hex": "0xc1c23435b07000"
      },
      "nonce": 1,
      "data": "0x",
      "r": "0x0a481176126add9496be9a71516af99736cdf65e7ea67e1eea63146350d5a6fe",
      "s": "0x06ba508f06010321dd8ff952ea4b1eb1baa0b67dd06125719dcd8699170ae486",
      "v": 28,
      "creates": null,
      "raw": "0xf86b01850ba43b7400825208946138926768c083222f4dac1886aab983b8079d4a87c1c23435b07000801ca00a481176126add9496be9a71516af99736cdf65e7ea67e1eea63146350d5a6fea006ba508f06010321dd8ff952ea4b1eb1baa0b67dd06125719dcd8699170ae486",
      "networkId": 0,
      "chainId": 0
    },
    {
      "hash": "0xacaefca747ec7e264775a85bcb8ab6f7bb0d43caaaea377117cf1d8807331b3f",
      "blockHash": "0xcd8ff3bf5cb236da7cb0fcc0a040a8f89236c98e51a9dce0f3c5987a18d4dc42",
      "blockNumber": 68515,
      "transactionIndex": 1,
      "confirmations": null,
      "from": "0x6747f922385c9a6F9cfDf095F34345257DD597bE",
      "gasPrice": {
        "_hex": "0xba43b7400"
      },
      "gasLimit": {
        "_hex": "0x5208"
      },
      "to": "0x9c074E2dd802087e4f29ab10F92fD4Bf6684F885",
      "value": {
        "_hex": "0x1fcbfa42bd6000"
      },
      "nonce": 120,
      "data": "0x",
      "r": "0x53cfa7ab7e86d64b904d2cf762325c2f72db8d480e44291b373459dcb2d17f29",
      "s": "0x62d4f4593821fef2c8cd186164a6ca2d06a7514656caa806e099478354081e65",
      "v": 28,
      "creates": null,
      "raw": "0xf86b78850ba43b7400825208949c074e2dd802087e4f29ab10f92fd4bf6684f885871fcbfa42bd6000801ca053cfa7ab7e86d64b904d2cf762325c2f72db8d480e44291b373459dcb2d17f29a062d4f4593821fef2c8cd186164a6ca2d06a7514656caa806e099478354081e65",
      "networkId": 0,
      "chainId": 0
    },
    {
      "hash": "0xbec1072c501a8d990b56b1378dded833a5325a7101ddc205a2417875734d61c8",
      "blockHash": "0xcd8ff3bf5cb236da7cb0fcc0a040a8f89236c98e51a9dce0f3c5987a18d4dc42",
      "blockNumber": 68515,
      "transactionIndex": 2,
      "confirmations": null,
      "from": "0x6B675e1101Fc0B1483A6B4645a6f9c75dDc82d5e",
      "gasPrice": {
        "_hex": "0xba43b7400"
      },
      "gasLimit": {
        "_hex": "0x5208"
      },
      "to": "0xBa5c789c8E176bF1B4DFAE5F66C0fD388505211D",
      "value": {
        "_hex": "0xc1c23435b07000"
      },
      "nonce": 1,
      "data": "0x",
      "r": "0x278032a2a14adb288723d6a18d064a3d010caac7bd97834fffe3d49f1c8d851c",
      "s": "0x3865f29810d90cd5deade802ea3b961c2119b70f7b340526a79bc9e9d6c5b498",
      "v": 28,
      "creates": null,
      "raw": "0xf86b01850ba43b740082520894ba5c789c8e176bf1b4dfae5f66c0fd388505211d87c1c23435b07000801ca0278032a2a14adb288723d6a18d064a3d010caac7bd97834fffe3d49f1c8d851ca03865f29810d90cd5deade802ea3b961c2119b70f7b340526a79bc9e9d6c5b498",
      "networkId": 0,
      "chainId": 0
    },
    {
      "hash": "0x3a5bfdb4d3df7e845746c86fcdbb3070464e656bede88ab21682693f6d2d7c04",
      "blockHash": "0xcd8ff3bf5cb236da7cb0fcc0a040a8f89236c98e51a9dce0f3c5987a18d4dc42",
      "blockNumber": 68515,
      "transactionIndex": 3,
      "confirmations": null,
      "from": "0xC087DE3D27F4F84A877695C08f93cAa7e23EDb81",
      "gasPrice": {
        "_hex": "0xba43b7400"
      },
      "gasLimit": {
        "_hex": "0x5208"
      },
      "to": "0xC98Caeaff3ec47259aBEF02ccF4d184e938ed8dA",
      "value": {
        "_hex": "0xc1c23435b07000"
      },
      "nonce": 1,
      "data": "0x",
      "r": "0xf22412cdc4c8bb7e2791eeaa91bebdedd108216d5158eda54e323269cc31063c",
      "s": "0x01c115e8e4496bcb8263dc16c0b8a0a5cdcded9aa10f06ea278b4c469006e006",
      "v": 28,
      "creates": null,
      "raw": "0xf86b01850ba43b740082520894c98caeaff3ec47259abef02ccf4d184e938ed8da87c1c23435b07000801ca0f22412cdc4c8bb7e2791eeaa91bebdedd108216d5158eda54e323269cc31063ca001c115e8e4496bcb8263dc16c0b8a0a5cdcded9aa10f06ea278b4c469006e006",
      "networkId": 0,
      "chainId": 0
    },
    {
      "hash": "0x2f53cac912ca3b68bee55de3a2b850cbbe78ff2f0bd6bda7d54dea6a44ed0823",
      "blockHash": "0xcd8ff3bf5cb236da7cb0fcc0a040a8f89236c98e51a9dce0f3c5987a18d4dc42",
      "blockNumber": 68515,
      "transactionIndex": 4,
      "confirmations": null,
      "from": "0xBEDCE6B61c7D6dD8D782F23385a67D6F1f15A847",
      "gasPrice": {
        "_hex": "0xba43b7400"
      },
      "gasLimit": {
        "_hex": "0x5208"
      },
      "to": "0x111aBd839a93481D79BD3349AE86C87CeB0211Ac",
      "value": {
        "_hex": "0xc1c23435b07000"
      },
      "nonce": 1,
      "data": "0x",
      "r": "0x84b7c2272d1a7e751d50aa79b8549f03667defdc167b278dce63a762a00e3b47",
      "s": "0x017011f44fe16101360010e01db2e57b4ad588f69619712797dcaabb89b2d6ff",
      "v": 27,
      "creates": null,
      "raw": "0xf86b01850ba43b740082520894111abd839a93481d79bd3349ae86c87ceb0211ac87c1c23435b07000801ba084b7c2272d1a7e751d50aa79b8549f03667defdc167b278dce63a762a00e3b47a0017011f44fe16101360010e01db2e57b4ad588f69619712797dcaabb89b2d6ff",
      "networkId": 0,
      "chainId": 0
    },
    {
      "hash": "0x5c8084f298488b63156982ae814d4cd998310f032e40a7a6ee03d09c237da9a1",
      "blockHash": "0xcd8ff3bf5cb236da7cb0fcc0a040a8f89236c98e51a9dce0f3c5987a18d4dc42",
      "blockNumber": 68515,
      "transactionIndex": 5,
      "confirmations": null,
      "from": "0x8F1C0Dd1d8D230F7557B63967586EAC9f139dCEe",
      "gasPrice": {
        "_hex": "0xba43b7400"
      },
      "gasLimit": {
        "_hex": "0x5208"
      },
      "to": "0xdf2852Fe991DCf5C090a32E39C3104A3637e73e8",
      "value": {
        "_hex": "0xc1c23435b07000"
      },
      "nonce": 1,
      "data": "0x",
      "r": "0x3b674253e0d4d194f41a2408cb40ef3ca2998af94db759977523cb84e48b2cbd",
      "s": "0x0e75ad489efc277214e85d568853e70296f4862288d46a452512b3d381862a75",
      "v": 27,
      "creates": null,
      "raw": "0xf86b01850ba43b740082520894df2852fe991dcf5c090a32e39c3104a3637e73e887c1c23435b07000801ba03b674253e0d4d194f41a2408cb40ef3ca2998af94db759977523cb84e48b2cbda00e75ad489efc277214e85d568853e70296f4862288d46a452512b3d381862a75",
      "networkId": 0,
      "chainId": 0
    }
  ]
}