{
  "hash": "0x503437ca447081a9c83ba1684db793dea765070299ac4795cbdb1716090002bd",
  "parentHash": "0xa36e6dcb70469931044bd55c99ae691bbae7d9dedbae89fd9b6db4f64fbc7f53",
  "number": 74296,
  "timestamp": 1439383909,
  "nonce": "0xd437d65d74f61a06",
  "difficulty": 2204295213611,
  "gasLimit": {
    "_hex": "0x2fefd8"
  },
  "gasUsed": {
    "_hex": "0x2e248"
  },
  "miner": "0xC603Ab5ef41fC61AA8b76bEddb09e3Cfcbb174BD",
  "extraData": "0x476574682f76312e302e312f77696e646f77732f676f312e342e32",
  "transactions": [
    {
      "hash": "0x23faa385ae3bd87eab2ae1717dc4cf4ec99ea8734e795b17f21ab02955d2de75",
      "blockHash": "0x503437ca447081a9c83ba1684db793dea765070299ac4795cbdb1716090002bd",
      "blockNumber": 74296,
      "transactionIndex": 0,
      "confirmations": null,
      "from": "0xe6A7a1d47ff21B6321162AEA7C6CB457D5476Bca",
      "gasPrice": {
        "_hex": "0xd8021826b"
      },
      "gasLimit": {
        "_hex": "0x55f0"
      },
      "to": "0xEAb290b146d9fC82589a817012Aa157D5963aa61",
      "value": {
        "_hex": "0x1264e04f8ee47700"
      },
      "nonce": 977,
      "data": "0x",
      "r": "0x82c8ba541f42cb9dec7728b212e2dc09b88617fc18605f2ba46997ceb9faa705",
      "s": "0x7e22f31240a96e9b070fe08e05328251d88cdf8ac520f9501eb4205244dce677",
      "v": 28,
      "creates": null,
      "raw": "0xf86e8203d1850d8021826b8255f094eab290b146d9fc82589a817012aa157d5963aa61881264e04f8ee47700801ca082c8ba541f42cb9dec7728b212e2dc09b88617fc18605f2ba46997ceb9faa705a07e22f31240a96e9b070fe08e05328251d88cdf8ac520f9501eb4205244dce677",
      "networkId": 0,
      "chainId": 0
    },
    {
      "hash": "0x61b6e7ce9c2302534246794db417817b6141e47dc4ff5c44b4f5856a021c075d",
      "blockHash": "0x503437ca447081a9c83ba1684db793dea765070299ac4795cbdb1716090002bd",
      "blockNumber": 74296,
      "transactionIndex": 1,
      "confirmations": null,
      "from": "0xe6A7a1d47ff21B6321162AEA7C6CB457D5476Bca",
      "gasPrice": {
        "_hex": "0xd8021826b"
      },
      "gasLimit": {
        "_hex": "0x55f0"
      },
      "to": "0x80618557521942001812b6689965bb92b59f95ae",
      "value": {
        "_hex": "0x13d7e9e9244139c0"
      },
      "nonce": 978,
      "data": "0x",
      "r": "0x3bc9f5b78dff8603e1e17a029cf30f64cb28fc1c429ab896df4602e5758ad71d",
      "s": "0x0a9b419929edf422bd3e692779400ed476709e1a7d02c9b53e68afa4ebb7b3a4",
      "v": 28,
      "creates": null,
      "raw": "0xf86e8203d2850d8021826b8255f09480618557521942001812b6689965bb92b59f95ae8813d7e9e9244139c0801ca03bc9f5b78dff8603e1e17a029cf30f64cb28fc1c429ab896df4602e5758ad71da00a9b419929edf422bd3e692779400ed476709e1a7d02c9b53e68afa4ebb7b3a4",
      "networkId": 0,
      "chainId": 0
    },
    {
      "hash": "0x7e82a0c184342d3a6ca679b5f3c92bd003fc0bbd90124989220dc36d994c5580",
      "blockHash": "0x503437ca447081a9c83ba1684db793dea765070299ac4795cbdb1716090002bd",
      "blockNumber": 74296,
      "transactionIndex": 2,
      "confirmations": null,
      "from": "0xe6A7a1d47ff21B6321162AEA7C6CB457D5476Bca",
      "gasPrice": {
        "_hex": "0xd8021826b"
      },
      "gasLimit": {
        "_hex": "0x55f0"
      },
      "to": "0x1543667B9bad3e41865C3233E1764d8dda8E1F3D",
      "value": {
        "_hex": "0x1aa3ae8a438acdf4"
      },
      "nonce": 979,
      "data": "0x",
      "r": "0xcc4c4dccf02fee811a1bd542159dc62aed65bc8a9f02c9ba59dfcfd90141a168",
      "s": "0x5178c16448120e0c46e9e9d0f1714a91815a6b61228164a4230bc24144ef0c15",
      "v": 27,
      "creates": null,
      "raw": "0xf86e8203d3850d8021826b8255f0941543667b9bad3e41865c3233e1764d8dda8e1f3d881aa3ae8a438acdf4801ba0cc4c4dccf02fee811a1bd542159dc62aed65bc8a9f02c9ba59dfcfd90141a168a05178c16448120e0c46e9e9d0f1714a91815a6b61228164a4230bc24144ef0c15",
      "networkId": 0,
      "chainId": 0
    },
    {
      "hash": "0xae2e8c53407246a313948c26d2ec577d6195465aed3f8c1825161d6c28e2c43b",
      "blockHash": "0x503437ca447081a9c83ba1684db793dea765070299ac4795cbdb1716090002bd",
      "blockNumber": 74296,
      "transactionIndex": 3,
      "confirmations": null,
      "from": "0xe6A7a1d47ff21B6321162AEA7C6CB457D5476Bca",
      "gasPrice": {
        "_hex": "0xd8021826b"
      },
      "gasLimit": {
        "_hex": "0x55f0"
      },
      "to": "0x740Ab9f08593f931fC5d0589a528663565e707ee",
      "value": {
        "_hex": "0x1b2fc737c7cba730"
      },
      "nonce": 980,
      "data": "0x",
      "r": "0x41dedadae73d281a10e5b28f98dacf55ee83b92f24b698bc40df93effc17cb67",
      "s": "0x7a0f5b323fda06351651c26e86084e8c6cf1b4c020b2861326d5fb1bbc9b8107",
      "v": 27,
      "creates": null,
      "raw": "0xf86e8203d4850d8021826b8255f094740ab9f08593f931fc5d0589a528663565e707ee881b2fc737c7cba730801ba041dedadae73d281a10e5b28f98dacf55ee83b92f24b698bc40df93effc17cb67a07a0f5b323fda06351651c26e86084e8c6cf1b4c020b2861326d5fb1bbc9b8107",
      "networkId": 0,
      "chainId": 0
    },
    {
      "hash": "0x97d35b09c4941ea645783bc65357b2f9c4fde623d53d38bddd75791e7a1e0dee",
      "blockHash": "0x503437ca447081a9c83ba1684db793dea765070299ac4795cbdb1716090002bd",
      "blockNumber": 74296,
      "transactionIndex": 4,
      "confirmations": null,
      "from": "0xe6A7a1d47ff21B6321162AEA7C6CB457D5476Bca",
      "gasPrice": {
        "_hex": "0xd8021826b"
      },
      "gasLimit": {
        "_hex": "0x55f0"
      },
      "to": "0x537fbDe14cF29Bb12e0b2561e3f75Bc8ab73bC04",
      "value": {
        "_hex": "0x1bfe237d5eabd9e8"
      },
      "nonce": 981,
      "data": "0x",
      "r": "0x57432f83b4f8adb1c7db58ae0928db544b18251b1c730bec74dc029ac77cf34c",
      "s": "0x157fa09fdbd3dd79c01099f035e42e7a7d1c747709cef92b55fb7c9d8733e533",
      "v": 27,
      "creates": null,
      "raw": "0xf86e8203d5850d8021826b8255f094537fbde14cf29bb12e0b2561e3f75bc8ab73bc04881bfe237d5eabd9e8801ba057432f83b4f8adb1c7db58ae0928db544b18251b1c730bec74dc029ac77cf34ca0157fa09fdbd3dd79c01099f035e42e7a7d1c747709cef92b55fb7c9d8733e533",
      "networkId": 0,
      "chainId": 0
    },
    {
      "hash": "0xdbeb656b2869fc1dbbe07f11d8aa158de2b8bd0e5c3f817815b674bca6e7607e",
      "blockHash": "0x503437ca447081a9c83ba1684db793dea765070299ac4795cbdb1716090002bd",
      "blockNumber": 74296,
      "transactionIndex": 5,
      "confirmations": null,
      "from": "0xe6A7a1d47ff21B6321162AEA7C6CB457D5476Bca",
      "gasPrice": {
        "_hex": "0xd8021826b"
      },
      "gasLimit": {
        "_hex": "0x55f0"
      },
      "to": "0x1ee96bFCC664C0D4430267bDAd17A38946655eE3",
      "value": {
        "_hex": "0x230713d6dd29a760"
      },
      "nonce": 982,
      "data": "0x",
      "r": "0x7639a80a546797ffbe004af428e478c60b3ea5036a6fc2678a07ae588352e38c",
      "s": "0x2c9baa874b3d47271e591faa80caa530170abce558bbbe23ebd534c6399eda51",
      "v": 27,
      "creates": null,
      "raw": "0xf86e8203d6850d8021826b8255f0941ee96bfcc664c0d4430267bdad17a38946655ee388230713d6dd29a760801ba07639a80a546797ffbe004af428e478c60b3ea5036a6fc2678a07ae588352e38ca02c9baa874b3d47271e591faa80caa530170abce558bbbe23ebd534c6399eda51",
      "networkId": 0,
      "chainId": 0
    },
    {
      "hash": "0x6039dc8e41e7675bbdc932b01716ebfbf8ccfbf25c1e9d31ab31b20ee3f36d3b",
      "blockHash": "0x503437ca447081a9c83ba1684db793dea765070299ac4795cbdb1716090002bd",
      "blockNumber": 74296,
      "transactionIndex": 6,
      "confirmations": null,
      "from": "0xe6A7a1d47ff21B6321162AEA7C6CB457D5476Bca",
      "gasPrice": {
        "_hex": "0xd8021826b"
      },
      "gasLimit": {
        "_hex": "0x55f0"
      },
      "to": "0x3Fef71cB8Ac8711ECa473049D813b003A76D1eaA",
      "value": {
        "_hex": "0x29a7f916b13afa10"
      },
      "nonce": 983,
      "data": "0x",
      "r": "0x6ae4bc0258a6e00b265e21f83e6fbec3847ef69846ffd441ecde057ecfd4ac3d",
      "s": "0x0ac1e760cbfbbc49c30ffd7739e53b918a4db60140c5481e13edc6e0207b6450",
      "v": 28,
      "creates": null,
      "raw": "0xf86e8203d7850d8021826b8255f0943fef71cb8ac8711eca473049d813b003a76d1eaa8829a7f916b13afa10801ca06ae4bc0258a6e00b265e21f83e6fbec3847ef69846ffd441ecde057ecfd4ac3da00ac1e760cbfbbc49c30ffd7739e53b918a4db60140c5481e13edc6e0207b6450",
      "networkId": 0,
      "chainId": 0
    },
    {
      "hash": "0x6cc93b6c504622b2b4c3a71963c5d0120a6fb650d0ec78195380c5587dee7930",
      "blockHash": "0x503437ca447081a9c83ba1684db793dea765070299ac4795cbdb1716090002bd",
      "blockNumber": 74296,
      "transactionIndex": 7,
      "confirmations": null,
      "from": "0xe6A7a1d47ff21B6321162AEA7C6CB457D5476Bca",
      "gasPrice": {
        "_hex": "0xd8021826b"
      },
      "gasLimit": {
        "_hex": "0x55f0"
      },
      "to": "0xb9b373b3776bAcfE434e7c2dc66D4Ee715d91C0E",
      "value": {
        "_hex": "0x2bec113d51712bd8"
      },
      "nonce": 984,
      "data": "0x",
      "r": "0x284c253cdc1009e2615b19f7e1a8a8d3306720db47e6611c82af4ca29b1d8bdc",
      "s": "0x32e444117b0c81dee73295f0dfd6e0e04501d30a6b34d218dc1bdb308e745d02",
      "v": 28,
      "creates": null,
      "raw": "0xf86e8203d8850d8021826b8255f094b9b373b3776bacfe434e7c2dc66d4ee715d91c0e882bec113d51712bd8801ca0284c253cdc1009e2615b19f7e1a8a8d3306720db47e6611c82af4ca29b1d8bdca032e444117b0c81dee73295f0dfd6e0e04501d30a6b34d218dc1bdb308e745d02",
      "networkId": 0,
      "chainId": 0
    },
    {
      "hash": "0x32283fda5524e87a6e3d4dd5966522c25aab6e4ef60b52e439aef3232f6caed1",
      "blockHash": "0x503437ca447081a9c83ba1684db793dea765070299ac4795cbdb1716090002bd",
      "blockNumber": 74296,
      "transactionIndex": 8,
      "confirmations": null,
      "from": "0xe6A7a1d47ff21B6321162AEA7C6CB457D5476Bca",
      "gasPrice": {
        "_hex": "0xd8021826b"
      },
      "gasLimit": {
        "_hex": "0x55f0"
      },
      "to": "0xE7bD36a7CF4F1F8896378D41177BEf637075a1eD",
      "value": {
        "_hex": "0x313c68b3653bf1fc"
      },
      "nonce": 985,
      "data": "0x",
      "r": "0x28d678246b310b2a1dfd5d05d572f8b9181a5f1023e99569e3e74b7d9f31ec0e",
      "s": "0x0e3de95bf2d9bfd4aa59a6527409f6c173bec98c42e4323b4035f3d2c62c0a0c",
      "v": 27,
      "creates": null,
      "raw": "0xf86e8203d9850d8021826b8255f094e7bd36a7cf4f1f8896378d41177bef637075a1ed88313c68b3653bf1fc801ba028d678246b310b2a1dfd5d05d572f8b9181a5f1023e99569e3e74b7d9f31ec0ea00e3de95bf2d9bfd4aa59a6527409f6c173bec98c42e4323b4035f3d2c62c0a0c",
      "networkId": 0,
      "chainId": 0
    }
  ]
}