{
  "hash": "0x466f0fba32640fbebbfa1196484af85dba168167dc37aff007f0e374c106244d",
  "parentHash": "0x80e6cb0abbc5bf56e7a6f08f6de88f58d45cd3803effe565ea3d774f6ca9b45e",
  "number": 67605,
  "timestamp": 1439274575,
  "nonce": "0xc870985293d416a4",
  "difficulty": 1930742539576,
  "gasLimit": {
    "_hex": "0x2fefd8"
  },
  "gasUsed": {
    "_hex": "0x5208"
  },
  "miner": "0xe6A7a1d47ff21B6321162AEA7C6CB457D5476Bca",
  "extraData": "0x476574682f76312e302e312f6c696e75782f676f312e342e32",
  "transactions": [
    {
      "hash": "0x76b08e47c4103587d454843c14af3231a58b8e4b7cecab191aa435cb0adddd4c",
      "blockHash": "0x466f0fba32640fbebbfa1196484af85dba168167dc37aff007f0e374c106244d",
      "blockNumber": 67605,
      "transactionIndex": 0,
      "confirmations": null,
      "from": "0x6f757390a63E8F66Bfb06EE21BF56e67F98c0F6A",
      "gasPrice": {
        "_hex": "0xcbc97abe8"
      },
      "gasLimit": {
        "_hex": "0x5208"
      },
      "to": "0x32Be343B94f860124dC4fEe278FDCBD38C102D88",
      "value": {
        "_hex": "0x5747272d9253340000"
      },
      "nonce": 0,
      "data": "0x",
      "r": "0x898dd55eb31f84f88a6009a1e33c34de21a43f62f5c6deec9ec96643ad940273",
      "s": "0x15961200175b346a39385d88e2d530476db9a35c5153c515ae0745b081b99a5d",
      "v": 28,
      "creates": null,
      "raw": "0xf86d80850cbc97abe88252089432be343b94f860124dc4fee278fdcbd38c102d88895747272d9253340000801ca0898dd55eb31f84f88a6009a1e33c34de21a43f62f5c6deec9ec96643ad940273a015961200175b346a39385d88e2d530476db9a35c5153c515ae0745b081b99a5d",
      "networkId": 0,
      "chainId": 0
    }
  ]
}