{
  "hash": "0x6009bc88f1b796bf26a857a2033744bf40e831f673bc4b2d0b117c69f45c362a",
  "parentHash": "0xa8111094487b00a3a1b77f7cc01fde72115b3d6c53cfda134dfadafab72afb38",
  "number": 118905,
  "timestamp": 1440133336,
  "nonce": "0xdaeee65106697976",
  "difficulty": 4405456914800,
  "gasLimit": {
    "_hex": "0x2fefd8"
  },
  "gasUsed": {
    "_hex": "0x5208"
  },
  "miner": "0x52bc44d5378309EE2abF1539BF71dE1b7d7bE3b5",
  "extraData": "0xd783010002844765746887676f312e342e32856c696e7578",
  "transactions": [
    {
      "hash": "0xe9b07e811b6723b0b8a901b151611a49150d6ce6ce1921fb687a97eac9b0b6c2",
      "blockHash": "0x6009bc88f1b796bf26a857a2033744bf40e831f673bc4b2d0b117c69f45c362a",
      "blockNumber": 118905,
      "transactionIndex": 0,
      "confirmations": null,
      "from": "0xD3A57C79fde37eD4Ed9991638f3C0a59413a3C0F",
      "gasPrice": {
        "_hex": "0xba43b7400"
      },
      "gasLimit": {
        "_hex": "0x5208"
      },
      "to": "0x32Be343B94f860124dC4fEe278FDCBD38C102D88",
      "value": {
        "_hex": "0x34b894e5b5786000"
      },
      "nonce": 5,
      "data": "0x",
      "r": "0x5396e3e50da5c6680fb36ebad203d0ba4ef12c6b4543144084aeb725cc488868",
      "s": "0x7399e08f5d8177877321a82d8fb60d27140fd042c70562db46db59c8ff77faa8",
      "v": 28,
      "creates": null,
      "raw": "0xf86c05850ba43b74008252089432be343b94f860124dc4fee278fdcbd38c102d888834b894e5b5786000801ca05396e3e50da5c6680fb36ebad203d0ba4ef12c6b4543144084aeb725cc488868a07399e08f5d8177877321a82d8fb60d27140fd042c70562db46db59c8ff77faa8",
      "networkId": 0,
      "chainId": 0
    }
  ]
}