{
  "hash": "0xf0b35e67401cb1f083ee058df24f75caf66d5aecb8381d61006e82b8f914af15",
  "parentHash": "0x07c33447dd3967e2bc2eadf69fcf49ef95698313240f68ea9bec4091b5e04d0d",
  "number": 49363,
  "timestamp": 1438972407,
  "nonce": "0xd49f5c1acd7d6569",
  "difficulty": 1477790414895,
  "gasLimit": {
    "_hex": "0x2e892"
  },
  "gasUsed": {
    "_hex": "0xa674"
  },
  "miner": "0x01d9DA08cc6Fb97c0DE1B6F4C28910A0859Ed1A1",
  "extraData": "0x476574682f76312e302e312f6c696e75782f676f312e342e32",
  "transactions": [
    {
      "hash": "0x78cc706f7688230b31681df9e58555b9567bb1872698c4b8e0e850f242541e33",
      "blockHash": "0xf0b35e67401cb1f083ee058df24f75caf66d5aecb8381d61006e82b8f914af15",
      "blockNumber": 49363,
      "transactionIndex": 0,
      "confirmations": null,
      "from": "0x5a891155f50E42074374C739BAADF7df2651153A",
      "gasPrice": {
        "_hex": "0xd7d40ace3"
      },
      "gasLimit": {
        "_hex": "0x15f90"
      },
      "to": "0x2910543Af39abA0Cd09dBb2D50200b3E800A63D2",
      "value": {
        "_hex": "0x410d586a20a4c0000"
      },
      "nonce": 0,
      "data": "0x454e41525454343952",
      "r": "0x741d5ec137599bf4b9c763bf4c34d73ffaf00d9049f2a828bfec2ba6eab20848",
      "s": "0x20eedf5750c679e429f94be20e168f3c735cca2a69ae3d115126b33c2c42cb31",
      "v": 28,
      "creates": null,
      "raw": "0xf87780850d7d40ace383015f90942910543af39aba0cd09dbb2d50200b3e800a63d2890410d586a20a4c000089454e415254543439521ca0741d5ec137599bf4b9c763bf4c34d73ffaf00d9049f2a828bfec2ba6eab20848a020eedf5750c679e429f94be20e168f3c735cca2a69ae3d115126b33c2c42cb31",
      "networkId": 0,
      "chainId": 0
    },
    {
      "hash": "0xcfda80eb441093c1dc94dfc79d6936d369ff831cdb490ba68f4c4974f563c566",
      "blockHash": "0xf0b35e67401cb1f083ee058df24f75caf66d5aecb8381d61006e82b8f914af15",
      "blockNumber": 49363,
      "transactionIndex": 1,
      "confirmations": null,
      "from": "0xEE04c7b429f39243C8d1ae8578acD96de91ca4C8",
      "gasPrice": {
        "_hex": "0xcec7ff3df"
      },
      "gasLimit": {
        "_hex": "0x5208"
      },
      "to": "0x32Be343B94f860124dC4fEe278FDCBD38C102D88",
      "value": {
        "_hex": "0x455f629fd3f65c00"
      },
      "nonce": 0,
      "data": "0x",
      "r": "0xef2370682784fc1b308ab9a6d8efd9e0c22f802c663a1143c7819b1579c013a4",
      "s": "0x1dca1e2adc90a8abe8ff03f0a4a0933e6bdb296ff6eab9eae519aa02ed378fe6",
      "v": 27,
      "creates": null,
      "raw": "0xf86c80850cec7ff3df8252089432be343b94f860124dc4fee278fdcbd38c102d8888455f629fd3f65c00801ba0ef2370682784fc1b308ab9a6d8efd9e0c22f802c663a1143c7819b1579c013a4a01dca1e2adc90a8abe8ff03f0a4a0933e6bdb296ff6eab9eae519aa02ed378fe6",
      "networkId": 0,
      "chainId": 0
    }
  ]
}