{
  "hash": "0x5854a33e06de2be5d8d49c3511071fe22bd38e32b6b2086d75cd10651b19e838",
  "parentHash": "0x5f331c51a2532643f69ca3cb7ddb9001ba9e65a187d5ab893f4c0e62388db3fd",
  "number": 49104,
  "timestamp": 1438968063,
  "nonce": "0x599cab3e88d537ff",
  "difficulty": 1481448448996,
  "gasLimit": {
    "_hex": "0x25ef7"
  },
  "gasUsed": {
    "_hex": "0x546c"
  },
  "miner": "0xf8E0CA3Ed80bd541b94BEdCf259e8CF2141A9523",
  "extraData": "0x476574682f76312e302e312f77696e646f77732f676f312e342e32",
  "transactions": [
    {
      "hash": "0xd8b3dbde3956804f7076d73a375f4920d72a8cded7ada24f5242f517fe3feafd",
      "blockHash": "0x5854a33e06de2be5d8d49c3511071fe22bd38e32b6b2086d75cd10651b19e838",
      "blockNumber": 49104,
      "transactionIndex": 0,
      "confirmations": null,
      "from": "0x57883010B4AC857feDAC03eAB2551723a8447ffB",
      "gasPrice": {
        "_hex": "0x110c8f7d8de"
      },
      "gasLimit": {
        "_hex": "0xc350"
      },
      "to": "0x2910543Af39abA0Cd09dBb2D50200b3E800A63D2",
      "value": {
        "_hex": "0x1b1ae4d6e2ef500000"
      },
      "nonce": 0,
      "data": "0x454e4b484545593252",
      "r": "0x55f38281bffb385dccf7fbddbdde2b6fa34a5ace9fc8dfefecab38cd103a2856",
      "s": "0xe1eac9ad14ba4cceaf6129d036ca826b3444d8faf48a602ba50110130705890e",
      "v": 27,
      "creates": null,
      "raw": "0xf87780860110c8f7d8de82c350942910543af39aba0cd09dbb2d50200b3e800a63d2891b1ae4d6e2ef50000089454e4b4845455932521ba055f38281bffb385dccf7fbddbdde2b6fa34a5ace9fc8dfefecab38cd103a2856a0e1eac9ad14ba4cceaf6129d036ca826b3444d8faf48a602ba50110130705890e",
      "networkId": 0,
      "chainId": 0
    }
  ]
}