{
  "hash": "0x8d3061515426072a02cfc1aed459f3369466ddcbb2ce01bbff99ee5e0c47d83a",
  "parentHash": "0xe0bd867bba4a965a58decf28174e2346ec0a5c1ac9d654ba9d9c17ef2c403e51",
  "number": 54940,
  "timestamp": 1439062836,
  "nonce": "0x516ebb2a0c9d5771",
  "difficulty": 1616422246931,
  "gasLimit": {
    "_hex": "0x2fefd8"
  },
  "gasUsed": {
    "_hex": "0x19b96"
  },
  "miner": "0xF2d2AfF1320476cb8C6b607199D23175cc595693",
  "extraData": "0x476574682f76312e302e312f77696e646f77732f676f312e342e32",
  "transactions": [
    {
      "hash": "0x693bdb55e13dd0030e6822eea0e0c3abbeb89066465918513be34ac1195f8e90",
      "blockHash": "0x8d3061515426072a02cfc1aed459f3369466ddcbb2ce01bbff99ee5e0c47d83a",
      "blockNumber": 54940,
      "transactionIndex": 0,
      "confirmations": null,
      "from": "0x8674c218F0351a62C3BA78C34FD2182A93Da94E2",
      "gasPrice": {
        "_hex": "0xba43b7400"
      },
      "gasLimit": {
        "_hex": "0x2dc6c0"
      },
      "to": "0x1e918DdDfAF23688EfD884e60F0D13Cf04B422c1",
      "value": {
        "_hex": "0x0"
      },
      "nonce": 42,
      "data": "0xde6f24bb0000000000000000000000008674c218f0351a62c3ba78c34fd2182a93da94e20000000000000000000000000000000000000000000000000000000000000040000000000000000000000000000000000000000000000000000000000000000668656c6c6f210000000000000000000000000000000000000000000000000000",
      "r": "0x14ff60d6a97a7693a44f7306288671dfb7250f9df11ec9bb6c356a8b7c856e1c",
      "s": "0x7ff3d32f67ae74403c5d5eb93cd826b9eea7c99996d6a93aae9068d2e5a718bf",
      "v": 28,
      "creates": null,
      "raw": "0xf8ea2a850ba43b7400832dc6c0941e918dddfaf23688efd884e60f0d13cf04b422c180b884de6f24bb0000000000000000000000008674c218f0351a62c3ba78c34fd2182a93da94e20000000000000000000000000000000000000000000000000000000000000040000000000000000000000000000000000000000000000000000000000000000668656c6c6f2100000000000000000000000000000000000000000000000000001ca014ff60d6a97a7693a44f7306288671dfb7250f9df11ec9bb6c356a8b7c856e1ca07ff3d32f67ae74403c5d5eb93cd826b9eea7c99996d6a93aae9068d2e5a718bf",
      "networkId": 0,
      "chainId": 0
    }
  ]
}