{
  "hash": "0xfc7c65c173ce0eb196af986f268e650f18d2fde0a542ea18feb97e3e600e31ae",
  "parentHash": "0x80b4c579b594fc27987254b1a15f69a428e31eb30481252950c072f16508e9aa",
  "number": 60400,
  "timestamp": 1439154948,
  "nonce": "0xb175f84e365d085d",
  "difficulty": 1739822489423,
  "gasLimit": {
    "_hex": "0x2fefd5"
  },
  "gasUsed": {
    "_hex": "0xddfd"
  },
  "miner": "0xC4E15a24b5f80FCeBC7104b922B1baF37FdD708B",
  "extraData": "0x",
  "transactions": [
    {
      "hash": "0x9038b436fc324b7949fcd4f3188ab739e4911a77a6434bc94741649c530fc289",
      "blockHash": "0xfc7c65c173ce0eb196af986f268e650f18d2fde0a542ea18feb97e3e600e31ae",
      "blockNumber": 60400,
      "transactionIndex": 0,
      "confirmations": null,
      "from": "0xBeb3B1d443791e4B2207a9866800E02DAcF19c02",
      "gasPrice": {
        "_hex": "0xd52efc96d"
      },
      "gasLimit": {
        "_hex": "0x7a120"
      },
      "to": "0xA327075af2a223A1C83a36aDa1126afE7430f955",
      "value": {
        "_hex": "0x8ac7230489e80000"
      },
      "nonce": 4,
      "data": "0x",
      "r": "0x00f421ee0c7d4da472cd906572597bddf108eda0a5b3c83fc23bf4d66dc527a1",
      "s": "0x378d1736375280c4541b624ec60e35a443a5ad06314f042fd4c1f9115b1749d2",
      "v": 28,
      "creates": null,
      "raw": "0xf86c04850d52efc96d8307a12094a327075af2a223a1c83a36ada1126afe7430f955888ac7230489e80000801c9ff421ee0c7d4da472cd906572597bddf108eda0a5b3c83fc23bf4d66dc527a1a0378d1736375280c4541b624ec60e35a443a5ad06314f042fd4c1f9115b1749d2",
      "networkId": 0,
      "chainId": 0
    }
  ]
}