{
  "hash": "0x24a44af4495ce5ff9e5a32bb10a036e6ebb8627355cadbfa95c5118a9f8c843f",
  "parentHash": "0xca9bd716a765f50705f32de3cf9230b327116a88f31bdad8961ddca5a281e932",
  "number": 101166,
  "timestamp": 1439818380,
  "nonce": "0x83b0731df9569d6d",
  "difficulty": 3867600949050,
  "gasLimit": {
    "_hex": "0x2fefd8"
  },
  "gasUsed": {
    "_hex": "0xf618"
  },
  "miner": "0xe6A7a1d47ff21B6321162AEA7C6CB457D5476Bca",
  "extraData": "0x476574682f76312e302e312d38326566323666362f6c696e75782f676f312e34",
  "transactions": [
    {
      "hash": "0x684a3a60e975b968f5e8351a8d4f1219d3806d22081ff1a072839cf252eee361",
      "blockHash": "0x24a44af4495ce5ff9e5a32bb10a036e6ebb8627355cadbfa95c5118a9f8c843f",
      "blockNumber": 101166,
      "transactionIndex": 0,
      "confirmations": null,
      "from": "0x6896e22C387dc77Eef9566aaecbf584a65130067",
      "gasPrice": {
        "_hex": "0xd1f7520b4"
      },
      "gasLimit": {
        "_hex": "0x5208"
      },
      "to": "0x32Be343B94f860124dC4fEe278FDCBD38C102D88",
      "value": {
        "_hex": "0xd8d6e2b9667fe8000"
      },
      "nonce": 3,
      "data": "0x",
      "r": "0xfd2a29b05a0b0e44c5286200eb20ee0276ea95f8713a4882aec7547e68076791",
      "s": "0x246455309142039d97cd859c0f48218e681c6ad40457bfa281c7006d4e91a016",
      "v": 28,
      "creates": null,
      "raw": "0xf86d03850d1f7520b48252089432be343b94f860124dc4fee278fdcbd38c102d88890d8d6e2b9667fe8000801ca0fd2a29b05a0b0e44c5286200eb20ee0276ea95f8713a4882aec7547e68076791a0246455309142039d97cd859c0f48218e681c6ad40457bfa281c7006d4e91a016",
      "networkId": 0,
      "chainId": 0
    },
    {
      "hash": "0x41e4567a0b744b3af1f944556ba7c1ac0d965f6eb8a119c34632bee86a849a61",
      "blockHash": "0x24a44af4495ce5ff9e5a32bb10a036e6ebb8627355cadbfa95c5118a9f8c843f",
      "blockNumber": 101166,
      "transactionIndex": 1,
      "confirmations": null,
      "from": "0xD72ab61a64fEAeE7b5EB3D42B5445858B95d38fd",
      "gasPrice": {
        "_hex": "0xd1f7520b4"
      },
      "gasLimit": {
        "_hex": "0x5208"
      },
      "to": "0x32Be343B94f860124dC4fEe278FDCBD38C102D88",
      "value": {
        "_hex": "0xd8dd6514524cb800"
      },
      "nonce": 4,
      "data": "0x",
      "r": "0x8ac221d4a6239e2c56aa54d7778f8427c0da4ba38a6057c7402071f26131847a",
      "s": "0x19bb20e3c0c782266786b338d07c042831c0f1f3f1106f334324faf3c21511f6",
      "v": 27,
      "creates": null,
      "raw": "0xf86c04850d1f7520b48252089432be343b94f860124dc4fee278fdcbd38c102d8888d8dd6514524cb800801ba08ac221d4a6239e2c56aa54d7778f8427c0da4ba38a6057c7402071f26131847aa019bb20e3c0c782266786b338d07c042831c0f1f3f1106f334324faf3c21511f6",
      "networkId": 0,
      "chainId": 0
    },
    {
      "hash": "0x89b2fa801bbf49dfa2206b4c00d1fc190d5de78313945d8ce0d575304a740eb6",
      "blockHash": "0x24a44af4495ce5ff9e5a32bb10a036e6ebb8627355cadbfa95c5118a9f8c843f",
      "blockNumber": 101166,
      "transactionIndex": 2,
      "confirmations": null,
      "from": "0xf97e4688e66CD658F9666d93FD97f779b80218a0",
      "gasPrice": {
        "_hex": "0xd1f7520b4"
      },
      "gasLimit": {
        "_hex": "0x5208"
      },
      "to": "0x32Be343B94f860124dC4fEe278FDCBD38C102D88",
      "value": {
        "_hex": "0x48605a7cabcfc800"
      },
      "nonce": 4,
      "data": "0x",
      "r": "0x658a40ce162b0913c5d33a53ea62e9e06b612689ce2702bfef12f0f78a69132b",
      "s": "0x051bae91bc6a14b1a887b006e02b1b1aa4f13ec546494c2ccf3059d561cf9fe7",
      "v": 28,
      "creates": null,
      "raw": "0xf86c04850d1f7520b48252089432be343b94f860124dc4fee278fdcbd38c102d888848605a7cabcfc800801ca0658a40ce162b0913c5d33a53ea62e9e06b612689ce2702bfef12f0f78a69132ba0051bae91bc6a14b1a887b006e02b1b1aa4f13ec546494c2ccf3059d561cf9fe7",
      "networkId": 0,
      "chainId": 0
    }
  ]
}