{
  "hash": "0xd10bbdd3d61e8f3ef2f09e51e7b5cd9d57a3d575ae71887a7b216eabeda67fa0",
  "parentHash": "0x8a14d77ea58b04f2b49336d39b77b1f6555c8a395a0147882649509e84ba4245",
  "number": 68931,
  "timestamp": 1439295876,
  "nonce": "0x671f801ef8861efc",
  "difficulty": 2025057629572,
  "gasLimit": {
    "_hex": "0x2fefd8"
  },
  "gasUsed": {
    "_hex": "0xfd688"
  },
  "miner": "0x2134e2a2b718DCa96580ECAC31E653Ea1fdd58DA",
  "extraData": "0x476574682f76312e302e312f77696e646f77732f676f312e342e32",
  "transactions": [
    {
      "hash": "0xf46ea79c5d81b06f58a5c2c2b542c8b80a8bad934d4346016c4a99bc49804e95",
      "blockHash": "0xd10bbdd3d61e8f3ef2f09e51e7b5cd9d57a3d575ae71887a7b216eabeda67fa0",
      "blockNumber": 68931,
      "transactionIndex": 0,
      "confirmations": null,
      "from": "0x79d5794171E11dd5C2f0e26E1C187319db2FE6f7",
      "gasPrice": {
        "_hex": "0xe242c67ae"
      },
      "gasLimit": {
        "_hex": "0x5208"
      },
      "to": "0x32Be343B94f860124dC4fEe278FDCBD38C102D88",
      "value": {
        "_hex": "0x455f0979c4ae7400"
      },
      "nonce": 12,
      "data": "0x",
      "r": "0x1032809e2dabc12930e87ad38a4a0f7a71968223f506308be9e50fcc7c7748b8",
      "s": "0x40cc79556b1a5a4684620ffffce2d8b4ffffc7bfa1a7b77fc9cd1030f2c2792c",
      "v": 27,
      "creates": null,
      "raw": "0xf86c0c850e242c67ae8252089432be343b94f860124dc4fee278fdcbd38c102d8888455f0979c4ae7400801ba01032809e2dabc12930e87ad38a4a0f7a71968223f506308be9e50fcc7c7748b8a040cc79556b1a5a4684620ffffce2d8b4ffffc7bfa1a7b77fc9cd1030f2c2792c",
      "networkId": 0,
      "chainId": 0
    },
    {
      "hash": "0x6df9a705d35a45bd8948bcb0e0f1fad237812ebbc0cd85abaf03687a764004a0",
      "blockHash": "0xd10bbdd3d61e8f3ef2f09e51e7b5cd9d57a3d575ae71887a7b216eabeda67fa0",
      "blockNumber": 68931,
      "transactionIndex": 1,
      "confirmations": null,
      "from": "0x9789Efa70E6Fb22C4f6f7409571dbD1Aee9713EB",
      "gasPrice": {
        "_hex": "0xe242c67ae"
      },
      "gasLimit": {
        "_hex": "0x5208"
      },
      "to": "0x32Be343B94f860124dC4fEe278FDCBD38C102D88",
      "value": {
        "_hex": "0x8ab0d782d1c1f000"
      },
      "nonce": 0,
      "data": "0x",
      "r": "0x458fddcbbc73d045309c7e03ee4bb1495ff2c82d337374ce5567fd74458f4a54",
      "s": "0x26b4f0b893ae147a870ee721bbfff1cc3f9e1ae50f7c34622a53ce48aa5ec8f4",
      "v": 28,
      "creates": null,
      "raw": "0xf86c80850e242c67ae8252089432be343b94f860124dc4fee278fdcbd38c102d88888ab0d782d1c1f000801ca0458fddcbbc73d045309c7e03ee4bb1495ff2c82d337374ce5567fd74458f4a54a026b4f0b893ae147a870ee721bbfff1cc3f9e1ae50f7c34622a53ce48aa5ec8f4",
      "networkId": 0,
      "chainId": 0
    },
    {
      "hash": "0x6b6b091b2ee214051dd7bd8e53ca13ed4e19f08bbd534f4a5781d411eaf03c01",
      "blockHash": "0xd10bbdd3d61e8f3ef2f09e51e7b5cd9d57a3d575ae71887a7b216eabeda67fa0",
      "blockNumber": 68931,
      "transactionIndex": 2,
      "confirmations": null,
      "from": "0x43279854AaF8825a6d1fcCf056caF190Ab8a7b76",
      "gasPrice": {
        "_hex": "0xe242c67ae"
      },
      "gasLimit": {
        "_hex": "0x5208"
      },
      "to": "0x32Be343B94f860124dC4fEe278FDCBD38C102D88",
      "value": {
        "_hex": "0x6c6b8ed3833cfc0000"
      },
      "nonce": 2,
      "data": "0x",
      "r": "0x4dde7f7f7e238896558d3aa2c20a539fe755ea0c135670aafa5d08907cbe083b",
      "s": "0x2a315b83b05dadfab7b139de1ade39f7fb4ac1fd61afa0600c9b5476542a89f2",
      "v": 27,
      "creates": null,
      "raw": "0xf86d02850e242c67ae8252089432be343b94f860124dc4fee278fdcbd38c102d88896c6b8ed3833cfc0000801ba04dde7f7f7e238896558d3aa2c20a539fe755ea0c135670aafa5d08907cbe083ba02a315b83b05dadfab7b139de1ade39f7fb4ac1fd61afa0600c9b5476542a89f2",
      "networkId": 0,
      "chainId": 0
    },
    {
      "hash": "0x34f507d37c92c709f2ed6e89add75ea035ab377efe70785058eea297e5961b5d",
      "blockHash": "0xd10bbdd3d61e8f3ef2f09e51e7b5cd9d57a3d575ae71887a7b216eabeda67fa0",
      "blockNumber": 68931,
      "transactionIndex": 3,
      "confirmations": null,
      "from": "0xF9Ae35582A2193c5408FEEba882A02d32048B74d",
      "gasPrice": {
        "_hex": "0xba43b7400"
      },
      "gasLimit": {
        "_hex": "0x15f90"
      },
      "to": "0x793AE8C1b1a160BFc07BFB0d04F85eab1A71F4f2",
      "value": {
        "_hex": "0x0"
      },
      "nonce": 0,
      "data": "0x3ba15036",
      "r": "0xd1980ebac0a95555388c7c6d52977a801a1c01db1e454d4672eceeeaa3e06698",
      "s": "0x32130a9cc68edc30f0ba26cb72a1791b936727bce557643c7735557b0618081b",
      "v": 28,
      "creates": null,
      "raw": "0xf86980850ba43b740083015f9094793ae8c1b1a160bfc07bfb0d04f85eab1a71f4f280843ba150361ca0d1980ebac0a95555388c7c6d52977a801a1c01db1e454d4672eceeeaa3e06698a032130a9cc68edc30f0ba26cb72a1791b936727bce557643c7735557b0618081b",
      "networkId": 0,
      "chainId": 0
    },
    {
      "hash": "0x408a25523532012f08a25b19ff3c9c3b3dda103b3c6b437e849dc8cbde981b7e",
      "blockHash": "0xd10bbdd3d61e8f3ef2f09e51e7b5cd9d57a3d575ae71887a7b216eabeda67fa0",
      "blockNumber": 68931,
      "transactionIndex": 4,
      "confirmations": null,
      "from": "0x0D05800b2Dc8609645F431Fa43c2c1c185f0C2c7",
      "gasPrice": {
        "_hex": "0xba43b7400"
      },
      "gasLimit": {
        "_hex": "0x15f90"
      },
      "to": "0x793AE8C1b1a160BFc07BFB0d04F85eab1A71F4f2",
      "value": {
        "_hex": "0x0"
      },
      "nonce": 0,
      "data": "0x3ba15036",
      "r": "0xbd0c0eb8ab277aa2899ffbe6c6ca43d9d4a7e8144ed8b80adbfba266c3527fa0",
      "s": "0x4e3d81d6cbf800e00fa2ef3613e97840d94b8c379208036136f59b68f3d04abd",
      "v": 27,
      "creates": null,
      "raw": "0xf86980850ba43b740083015f9094793ae8c1b1a160bfc07bfb0d04f85eab1a71f4f280843ba150361ba0bd0c0eb8ab277aa2899ffbe6c6ca43d9d4a7e8144ed8b80adbfba266c3527fa0a04e3d81d6cbf800e00fa2ef3613e97840d94b8c379208036136f59b68f3d04abd",
      "networkId": 0,
      "chainId": 0
    },
    {
      "hash": "0xdbc42a79bd21b39e01e2459d3025027d62868010252f4ecfcd0103e1892d6a3d",
      "blockHash": "0xd10bbdd3d61e8f3ef2f09e51e7b5cd9d57a3d575ae71887a7b216eabeda67fa0",
      "blockNumber": 68931,
      "transactionIndex": 5,
      "confirmations": null,
      "from": "0x030951d215545ccFf7821BdF432795Ab09606e39",
      "gasPrice": {
        "_hex": "0xba43b7400"
      },
      "gasLimit": {
        "_hex": "0x15f90"
      },
      "to": "0x793AE8C1b1a160BFc07BFB0d04F85eab1A71F4f2",
      "value": {
        "_hex": "0x0"
      },
      "nonce": 0,
      "data": "0x3ba15036",
      "r": "0x463cb4306685fb03bd7176a549fcb3093ac405bfbbe02867431484406b0a294e",
      "s": "0x16c2ae6f256dc07aa1352fe48fc3813e998931459f21bb0414a3416c774614b3",
      "v": 27,
      "creates": null,
      "raw": "0xf86980850ba43b740083015f9094793ae8c1b1a160bfc07bfb0d04f85eab1a71f4f280843ba150361ba0463cb4306685fb03bd7176a549fcb3093ac405bfbbe02867431484406b0a294ea016c2ae6f256dc07aa1352fe48fc3813e998931459f21bb0414a3416c774614b3",
      "networkId": 0,
      "chainId": 0
    },
    {
      "hash": "0x9e2294494fc63bc42826b2e16ff883b7b94cacaa5e77f569ac25e617eccf9dc8",
      "blockHash": "0xd10bbdd3d61e8f3ef2f09e51e7b5cd9d57a3d575ae71887a7b216eabeda67fa0",
      "blockNumber": 68931,
      "transactionIndex": 6,
      "confirmations": null,
      "from": "0xe96B8814884f0A83F7E48A98AE96698729d7492E",
      "gasPrice": {
        "_hex": "0xba43b7400"
      },
      "gasLimit": {
        "_hex": "0x15f90"
      },
      "to": "0x793AE8C1b1a160BFc07BFB0d04F85eab1A71F4f2",
      "value": {
        "_hex": "0x0"
      },
      "nonce": 0,
      "data": "0x3ba15036",
      "r": "0x7e92feec7b9d117313b6f39cf83c2ddf6fe30e980906cf0575bec1aa9abef24a",
      "s": "0x5b56548ed02f3ee4b30d829329045ff4da906de503db91f9f95eebdeba52b139",
      "v": 27,
      "creates": null,
      "raw": "0xf86980850ba43b740083015f9094793ae8c1b1a160bfc07bfb0d04f85eab1a71f4f280843ba150361ba07e92feec7b9d117313b6f39cf83c2ddf6fe30e980906cf0575bec1aa9abef24aa05b56548ed02f3ee4b30d829329045ff4da906de503db91f9f95eebdeba52b139",
      "networkId": 0,
      "chainId": 0
    },
    {
      "hash": "0x38d50914db201a26c45012d7c87af685a2cb82d3659c70c69e5273e3db775370",
      "blockHash": "0xd10bbdd3d61e8f3ef2f09e51e7b5cd9d57a3d575ae71887a7b216eabeda67fa0",
      "blockNumber": 68931,
      "transactionIndex": 7,
      "confirmations": null,
      "from": "0x48422003F3826aaE1135580537e941633BE3fBDD",
      "gasPrice": {
        "_hex": "0xba43b7400"
      },
      "gasLimit": {
        "_hex": "0x15f90"
      },
      "to": "0x793AE8C1b1a160BFc07BFB0d04F85eab1A71F4f2",
      "value": {
        "_hex": "0x0"
      },
      "nonce": 0,
      "data": "0x3ba15036",
      "r": "0xca318920063ec90970b895d0de96c47d57383b7e3a54143037cb9252aa948172",
      "s": "0x10124d7b7623c5f33d08961152334d8bb644232e978501cb2f2f920992c5993e",
      "v": 27,
      "creates": null,
      "raw": "0xf86980850ba43b740083015f9094793ae8c1b1a160bfc07bfb0d04f85eab1a71f4f280843ba150361ba0ca318920063ec90970b895d0de96c47d57383b7e3a54143037cb9252aa948172a010124d7b7623c5f33d08961152334d8bb644232e978501cb2f2f920992c5993e",
      "networkId": 0,
      "chainId": 0
    },
    {
      "hash": "0xa6e3f623ae92018f8c15224a9f7e45ba57e8299f407c8cfef847ac653cfb2504",
      "blockHash": "0xd10bbdd3d61e8f3ef2f09e51e7b5cd9d57a3d575ae71887a7b216eabeda67fa0",
      "blockNumber": 68931,
      "transactionIndex": 8,
      "confirmations": null,
      "from": "0x9A593400aF3a27ca1ab6cA85F2b74DF41FA30495",
      "gasPrice": {
        "_hex": "0xba43b7400"
      },
      "gasLimit": {
        "_hex": "0x15f90"
      },
      "to": "0x793AE8C1b1a160BFc07BFB0d04F85eab1A71F4f2",
      "value": {
        "_hex": "0x0"
      },
      "nonce": 0,
      "data": "0x3ba15036",
      "r": "0x31f0a192aa05ae8b82b0ff64cc342d742369886e7da90794a077fc818c93b6d9",
      "s": "0x1f7e87d336e2dcf3eefe279be2ef5b6eded27d3218ba02bd89f01ed1d86ea96f",
      "v": 27,
      "creates": null,
      "raw": "0xf86980850ba43b740083015f9094793ae8c1b1a160bfc07bfb0d04f85eab1a71f4f280843ba150361ba031f0a192aa05ae8b82b0ff64cc342d742369886e7da90794a077fc818c93b6d9a01f7e87d336e2dcf3eefe279be2ef5b6eded27d3218ba02bd89f01ed1d86ea96f",
      "networkId": 0,
      "chainId": 0
    },
    {
      "hash": "0xbb4f28cac30af4185ad7a2f89b782cc0c59606f41e6f43163e59960136ef8e97",
      "blockHash": "0xd10bbdd3d61e8f3ef2f09e51e7b5cd9d57a3d575ae71887a7b216eabeda67fa0",
      "blockNumber": 68931,
      "transactionIndex": 9,
      "confirmations": null,
      "from": "0xa7EFA1aF5818b50607d86E71140ABf1c9E376363",
      "gasPrice": {
        "_hex": "0xba43b7400"
      },
      "gasLimit": {
        "_hex": "0x15f90"
      },
      "to": "0x793AE8C1b1a160BFc07BFB0d04F85eab1A71F4f2",
      "value": {
        "_hex": "0x0"
      },
      "nonce": 0,
      "data": "0x3ba15036",
      "r": "0xc5e46a9917f2863ae5920b74673208e5035e84561dc850d8d899acc4491491e9",
      "s": "0x24fc455b72d4de0b8ecb7af27b2e410e8e3eca9af60b5cb91492647a84d78a2a",
      "v": 27,
      "creates": null,
      "raw": "0xf86980850ba43b740083015f9094793ae8c1b1a160bfc07bfb0d04f85eab1a71f4f280843ba150361ba0c5e46a9917f2863ae5920b74673208e5035e84561dc850d8d899acc4491491e9a024fc455b72d4de0b8ecb7af27b2e410e8e3eca9af60b5cb91492647a84d78a2a",
      "networkId": 0,
      "chainId": 0
    },
    {
      "hash": "0x48c10c52facc11f71acce2ac699f0f1b6cd9f41448eab11978ef1e0e1618e16e",
      "blockHash": "0xd10bbdd3d61e8f3ef2f09e51e7b5cd9d57a3d575ae71887a7b216eabeda67fa0",
      "blockNumber": 68931,
      "transactionIndex": 10,
      "confirmations": null,
      "from": "0x7033cd5Bc5448aFA347019f3C75076fB40ED1E68",
      "gasPrice": {
        "_hex": "0xba43b7400"
      },
      "gasLimit": {
        "_hex": "0x15f90"
      },
      "to": "0x793AE8C1b1a160BFc07BFB0d04F85eab1A71F4f2",
      "value": {
        "_hex": "0x0"
      },
      "nonce": 0,
      "data": "0x3ba15036",
      "r": "0x1b45f5d889009a1b090de46acb5052b33168da66d04906fbf7bf58ba4ecbf423",
      "s": "0x36d4689d446c217e860f261deee31bce7c7fd33b6cfcdc839d5831d2232e8668",
      "v": 28,
      "creates": null,
      "raw": "0xf86980850ba43b740083015f9094793ae8c1b1a160bfc07bfb0d04f85eab1a71f4f280843ba150361ca01b45f5d889009a1b090de46acb5052b33168da66d04906fbf7bf58ba4ecbf423a036d4689d446c217e860f261deee31bce7c7fd33b6cfcdc839d5831d2232e8668",
      "networkId": 0,
      "chainId": 0
    },
    {
      "hash": "0x22324848b9534cf7fb49e1b66a795a195cecc8566b615f39f17709ff841cb0c5",
      "blockHash": "0xd10bbdd3d61e8f3ef2f09e51e7b5cd9d57a3d575ae71887a7b216eabeda67fa0",
      "blockNumber": 68931,
      "transactionIndex": 11,
      "confirmations": null,
      "from": "0x2E07b02b8EA15059a91Bc19283Ab22eD90292a13",
      "gasPrice": {
        "_hex": "0xba43b7400"
      },
      "gasLimit": {
        "_hex": "0x15f90"
      },
      "to": "0x793AE8C1b1a160BFc07BFB0d04F85eab1A71F4f2",
      "value": {
        "_hex": "0x0"
      },
      "nonce": 0,
      "data": "0x3ba15036",
      "r": "0x736937e1d5721eb7866339d56e82ea95b38b36ee8c2fc5d18cafc6d98b91eb19",
      "s": "0x6b6b7be43b694d4f2b5565030c4965010dfdc741cd5107855622910ca725343a",
      "v": 28,
      "creates": null,
      "raw": "0xf86980850ba43b740083015f9094793ae8c1b1a160bfc07bfb0d04f85eab1a71f4f280843ba150361ca0736937e1d5721eb7866339d56e82ea95b38b36ee8c2fc5d18cafc6d98b91eb19a06b6b7be43b694d4f2b5565030c4965010dfdc741cd5107855622910ca725343a",
      "networkId": 0,
      "chainId": 0
    },
    {
      "hash": "0x6e7768b272ff0151be81eb95c6270e31a07ba555c88958ce4091386d589addb0",
      "blockHash": "0xd10bbdd3d61e8f3ef2f09e51e7b5cd9d57a3d575ae71887a7b216eabeda67fa0",
      "blockNumber": 68931,
      "transactionIndex": 12,
      "confirmations": null,
      "from": "0xc72BB7f77AA77B86a03aDd6Ce3C82f3D57221943",
      "gasPrice": {
        "_hex": "0xba43b7400"
      },
      "gasLimit": {
        "_hex": "0x15f90"
      },
      "to": "0x793AE8C1b1a160BFc07BFB0d04F85eab1A71F4f2",
      "value": {
        "_hex": "0x0"
      },
      "nonce": 0,
      "data": "0x3ba15036",
      "r": "0xfdcd7d8308f209cc6e7c1f231b6c0b8bf67ff6c7ae84ce8f781623da7083708e",
      "s": "0x1e63a88a81e85d1ebbf0c5ff226323a25604e0dcdba012d807703dfda8c3b831",
      "v": 28,
      "creates": null,
      "raw": "0xf86980850ba43b740083015f9094793ae8c1b1a160bfc07bfb0d04f85eab1a71f4f280843ba150361ca0fdcd7d8308f209cc6e7c1f231b6c0b8bf67ff6c7ae84ce8f781623da7083708ea01e63a88a81e85d1ebbf0c5ff226323a25604e0dcdba012d807703dfda8c3b831",
      "networkId": 0,
      "chainId": 0
    },
    {
      "hash": "0x8a0d7dc74a106212be3ba4749bf41b313bc5cfad544ba68cf35edc80bc76e82a",
      "blockHash": "0xd10bbdd3d61e8f3ef2f09e51e7b5cd9d57a3d575ae71887a7b216eabeda67fa0",
      "blockNumber": 68931,
      "transactionIndex": 13,
      "confirmations": null,
      "from": "0x721899990adf4f0C13A343f57ae78870b4c2B8f3",
      "gasPrice": {
        "_hex": "0xba43b7400"
      },
      "gasLimit": {
        "_hex": "0x15f90"
      },
      "to": "0x793AE8C1b1a160BFc07BFB0d04F85eab1A71F4f2",
      "value": {
        "_hex": "0x0"
      },
      "nonce": 0,
      "data": "0x3ba15036",
      "r": "0xdd95bff2bc7b47a9c809862549614dcece8c9349d60fab9bc782a23fa6015c20",
      "s": "0x34f09ff7cb19bc513bdd6ba307b470c4c2909aab38bbc36522494655ab57fb42",
      "v": 27,
      "creates": null,
      "raw": "0xf86980850ba43b740083015f9094793ae8c1b1a160bfc07bfb0d04f85eab1a71f4f280843ba150361ba0dd95bff2bc7b47a9c809862549614dcece8c9349d60fab9bc782a23fa6015c20a034f09ff7cb19bc513bdd6ba307b470c4c2909aab38bbc36522494655ab57fb42",
      "networkId": 0,
      "chainId": 0
    },
    {
      "hash": "0x1bbf3759b1bc5a1836bbc10c3f45b00dc07030875e4e7949a4609bf5f40f48fa",
      "blockHash": "0xd10bbdd3d61e8f3ef2f09e51e7b5cd9d57a3d575ae71887a7b216eabeda67fa0",
      "blockNumber": 68931,
      "transactionIndex": 14,
      "confirmations": null,
      "from": "0xa015064D5669b62FAd66d492d3228DAc6f0dAf82",
      "gasPrice": {
        "_hex": "0xba43b7400"
      },
      "gasLimit": {
        "_hex": "0x15f90"
      },
      "to": "0x793AE8C1b1a160BFc07BFB0d04F85eab1A71F4f2",
      "value": {
        "_hex": "0x0"
      },
      "nonce": 0,
      "data": "0x3ba15036",
      "r": "0xb024725294d18bdf46679e65ad90f0bc5fdffc7ce4ef2690fcb30092b55e6aed",
      "s": "0x63e50259158c73596d3c7648e9cfe3bee54884304f88f12f1651483c2b27cd2e",
      "v": 28,
      "creates": null,
      "raw": "0xf86980850ba43b740083015f9094793ae8c1b1a160bfc07bfb0d04f85eab1a71f4f280843ba150361ca0b024725294d18bdf46679e65ad90f0bc5fdffc7ce4ef2690fcb30092b55e6aeda063e50259158c73596d3c7648e9cfe3bee54884304f88f12f1651483c2b27cd2e",
      "networkId": 0,
      "chainId": 0
    },
    {
      "hash": "0x53dd11f7081100bb77ca0ae7b54c64ec0b878b4415ee40481edb85ff1dd3a1e9",
      "blockHash": "0xd10bbdd3d61e8f3ef2f09e51e7b5cd9d57a3d575ae71887a7b216eabeda67fa0",
      "blockNumber": 68931,
      "transactionIndex": 15,
      "confirmations": null,
      "from": "0xd98762D9101B563597F46c329951C270a8aD2689",
      "gasPrice": {
        "_hex": "0xba43b7400"
      },
      "gasLimit": {
        "_hex": "0x15f90"
      },
      "to": "0x793AE8C1b1a160BFc07BFB0d04F85eab1A71F4f2",
      "value": {
        "_hex": "0x0"
      },
      "nonce": 0,
      "data": "0x3ba15036",
      "r": "0xba49f29e2d6fe49ca198c45ee84279e14c7f0fc609adc8d7ace3ed59ed0926db",
      "s": "0x1d0855cac5beff5c44bdd801ad7212b29c82d80865f3b4b57720e50e58ab64cd",
      "v": 28,
      "creates": null,
      "raw": "0xf86980850ba43b740083015f9094793ae8c1b1a160bfc07bfb0d04f85eab1a71f4f280843ba150361ca0ba49f29e2d6fe49ca198c45ee84279e14c7f0fc609adc8d7ace3ed59ed0926dba01d0855cac5beff5c44bdd801ad7212b29c82d80865f3b4b57720e50e58ab64cd",
      "networkId": 0,
      "chainId": 0
    },
    {
      "hash": "0xb3214bd685612ab9bc0de164dccbaa7029352392d3abb970b8ef45e9afdb6d4b",
      "blockHash": "0xd10bbdd3d61e8f3ef2f09e51e7b5cd9d57a3d575ae71887a7b216eabeda67fa0",
      "blockNumber": 68931,
      "transactionIndex": 16,
      "confirmations": null,
      "from": "0x6B9a8e3492bd172CA9c44bD1B97BbA267D321508",
      "gasPrice": {
        "_hex": "0xba43b7400"
      },
      "gasLimit": {
        "_hex": "0x15f90"
      },
      "to": "0x793AE8C1b1a160BFc07BFB0d04F85eab1A71F4f2",
      "value": {
        "_hex": "0x0"
      },
      "nonce": 0,
      "data": "0x3ba15036",
      "r": "0xa41cf648007b34c329d729c16242563df6d59a8e6b2b215d312dd337cbef831d",
      "s": "0x026150e35601048ed4047cd10173b9eb05d850c1462b321d7a0e8d99e50d46a9",
      "v": 28,
      "creates": null,
      "raw": "0xf86980850ba43b740083015f9094793ae8c1b1a160bfc07bfb0d04f85eab1a71f4f280843ba150361ca0a41cf648007b34c329d729c16242563df6d59a8e6b2b215d312dd337cbef831da0026150e35601048ed4047cd10173b9eb05d850c1462b321d7a0e8d99e50d46a9",
      "networkId": 0,
      "chainId": 0
    },
    {
      "hash": "0xb3106b409029b3f123497e7636ba3dfc9a1fe88c3df115de534c583f91c518d5",
      "blockHash": "0xd10bbdd3d61e8f3ef2f09e51e7b5cd9d57a3d575ae71887a7b216eabeda67fa0",
      "blockNumber": 68931,
      "transactionIndex": 17,
      "confirmations": null,
      "from": "0x26a2043F32888a64cddc35ab2BB73A7D86EF44Bb",
      "gasPrice": {
        "_hex": "0xba43b7400"
      },
      "gasLimit": {
        "_hex": "0x15f90"
      },
      "to": "0x793AE8C1b1a160BFc07BFB0d04F85eab1A71F4f2",
      "value": {
        "_hex": "0x0"
      },
      "nonce": 0,
      "data": "0x3ba15036",
      "r": "0xcbd4a765a7a79cdb288d1ab0ae7f8ce1df75ec7dbdfc0716bcf2375d1535607d",
      "s": "0x1c5c32e92dcf8be0ef2e36118ccdaacaf7e851d60ce1ac4c931b79f33a356f55",
      "v": 28,
      "creates": null,
      "raw": "0xf86980850ba43b740083015f9094793ae8c1b1a160bfc07bfb0d04f85eab1a71f4f280843ba150361ca0cbd4a765a7a79cdb288d1ab0ae7f8ce1df75ec7dbdfc0716bcf2375d1535607da01c5c32e92dcf8be0ef2e36118ccdaacaf7e851d60ce1ac4c931b79f33a356f55",
      "networkId": 0,
      "chainId": 0
    },
    {
      "hash": "0x8579d313a391d87667451b380130f34c42873caa4237c3e35659dcaca5ae8357",
      "blockHash": "0xd10bbdd3d61e8f3ef2f09e51e7b5cd9d57a3d575ae71887a7b216eabeda67fa0",
      "blockNumber": 68931,
      "transactionIndex": 18,
      "confirmations": null,
      "from": "0x9EcA285A95cB57109898D890C1ad3aE43842f23A",
      "gasPrice": {
        "_hex": "0xba43b7400"
      },
      "gasLimit": {
        "_hex": "0x15f90"
      },
      "to": "0x793AE8C1b1a160BFc07BFB0d04F85eab1A71F4f2",
      "value": {
        "_hex": "0x0"
      },
      "nonce": 0,
      "data": "0x3ba15036",
      "r": "0x8733ffa7f05fc7ed291ecfd944611a84151bf10854e212dc31a2b616b3a2350f",
      "s": "0x715abeb04bbf974fa303b69874b3ef886e1d3b1b113448c233fc90904289ed6e",
      "v": 27,
      "creates": null,
      "raw": "0xf86980850ba43b740083015f9094793ae8c1b1a160bfc07bfb0d04f85eab1a71f4f280843ba150361ba08733ffa7f05fc7ed291ecfd944611a84151bf10854e212dc31a2b616b3a2350fa0715abeb04bbf974fa303b69874b3ef886e1d3b1b113448c233fc90904289ed6e",
      "networkId": 0,
      "chainId": 0
    },
    {
      "hash": "0x0bccc1ed74eabb129ccd9b9cc5dc8a9eeee08afac76059039f511a8ff755bb97",
      "blockHash": "0xd10bbdd3d61e8f3ef2f09e51e7b5cd9d57a3d575ae71887a7b216eabeda67fa0",
      "blockNumber": 68931,
      "transactionIndex": 19,
      "confirmations": null,
      "from": "0x11D156563e89610ED7784750EC4B9A085Cd8e969",
      "gasPrice": {
        "_hex": "0xba43b7400"
      },
      "gasLimit": {
        "_hex": "0x15f90"
      },
      "to": "0x793AE8C1b1a160BFc07BFB0d04F85eab1A71F4f2",
      "value": {
        "_hex": "0x0"
      },
      "nonce": 0,
      "data": "0x3ba15036",
      "r": "0x0191ef2c795f36f636a1010734c39be84615b00cbd65d6fe40df5c9da69b6b0c",
      "s": "0x04ef4499a201895dde7bc7ac84e20228df1845a87ac70a778fd85f3b5177f66e",
      "v": 28,
      "creates": null,
      "raw": "0xf86980850ba43b740083015f9094793ae8c1b1a160bfc07bfb0d04f85eab1a71f4f280843ba150361ca00191ef2c795f36f636a1010734c39be84615b00cbd65d6fe40df5c9da69b6b0ca004ef4499a201895dde7bc7ac84e20228df1845a87ac70a778fd85f3b5177f66e",
      "networkId": 0,
      "chainId": 0
    },
    {
      "hash": "0x208773c97e804a6c62fa18fde546fee4cccf1ce494adfc5a03c08ae6fe43ed3d",
      "blockHash": "0xd10bbdd3d61e8f3ef2f09e51e7b5cd9d57a3d575ae71887a7b216eabeda67fa0",
      "blockNumber": 68931,
      "transactionIndex": 20,
      "confirmations": null,
      "from": "0x2ec21EE2deDea3b4CDDC4805B6e57B6712B49014",
      "gasPrice": {
        "_hex": "0xba43b7400"
      },
      "gasLimit": {
        "_hex": "0x15f90"
      },
      "to": "0x793AE8C1b1a160BFc07BFB0d04F85eab1A71F4f2",
      "value": {
        "_hex": "0x0"
      },
      "nonce": 0,
      "data": "0x3ba15036",
      "r": "0x75f660fae006a9f769411bb6d4ef6ca04f5f3c267fd79b45bba5c6b4b92c41c8",
      "s": "0x4e21e2be3b0c534419e97e997452efbc569115c835d9a870644941ae24560354",
      "v": 27,
      "creates": null,
      "raw": "0xf86980850ba43b740083015f9094793ae8c1b1a160bfc07bfb0d04f85eab1a71f4f280843ba150361ba075f660fae006a9f769411bb6d4ef6ca04f5f3c267fd79b45bba5c6b4b92c41c8a04e21e2be3b0c534419e97e997452efbc569115c835d9a870644941ae24560354",
      "networkId": 0,
      "chainId": 0
    },
    {
      "hash": "0xc9f37b29d89053af86d484c28373c8c878c5f581ae3edb8362c2e8b26384e964",
      "blockHash": "0xd10bbdd3d61e8f3ef2f09e51e7b5cd9d57a3d575ae71887a7b216eabeda67fa0",
      "blockNumber": 68931,
      "transactionIndex": 21,
      "confirmations": null,
      "from": "0x0dC101c040B2ba74cbDB8c6073670699d89aC815",
      "gasPrice": {
        "_hex": "0xba43b7400"
      },
      "gasLimit": {
        "_hex": "0x15f90"
      },
      "to": "0x793AE8C1b1a160BFc07BFB0d04F85eab1A71F4f2",
      "value": {
        "_hex": "0x0"
      },
      "nonce": 0,
      "data": "0x3ba15036",
      "r": "0x6734cb82aea4dcb3dd48e2da903eb70bb3b41d9f72e6d05fc4d02df5bf25c8d4",
      "s": "0x0f0316aef6a50fde276513676787e3c63ab166376d59fd096683b97de6d31b2b",
      "v": 28,
      "creates": null,
      "raw": "0xf86980850ba43b740083015f9094793ae8c1b1a160bfc07bfb0d04f85eab1a71f4f280843ba150361ca06734cb82aea4dcb3dd48e2da903eb70bb3b41d9f72e6d05fc4d02df5bf25c8d4a00f0316aef6a50fde276513676787e3c63ab166376d59fd096683b97de6d31b2b",
      "networkId": 0,
      "chainId": 0
    },
    {
      "hash": "0xde24399169461cb310c57b732ac2a1f2d3ec9b2ec29e9129f59c2457863c0ea8",
      "blockHash": "0xd10bbdd3d61e8f3ef2f09e51e7b5cd9d57a3d575ae71887a7b216eabeda67fa0",
      "blockNumber": 68931,
      "transactionIndex": 22,
      "confirmations": null,
      "from": "0xa97884AA7D9a72191aA8B9eeD2cB04578039e2b8",
      "gasPrice": {
        "_hex": "0xba43b7400"
      },
      "gasLimit": {
        "_hex": "0x15f90"
      },
      "to": "0x793AE8C1b1a160BFc07BFB0d04F85eab1A71F4f2",
      "value": {
        "_hex": "0x0"
      },
      "nonce": 0,
      "data": "0x3ba15036",
      "r": "0x3427ec80dc5d5517ca7437b8b670af2cc66a96e2ba129054f9107b13a14fdb81",
      "s": "0x50d2efb458bd184f7842bb633ea75377340f25c78fe14a2058fa700be8925840",
      "v": 27,
      "creates": null,
      "raw": "0xf86980850ba43b740083015f9094793ae8c1b1a160bfc07bfb0d04f85eab1a71f4f280843ba150361ba03427ec80dc5d5517ca7437b8b670af2cc66a96e2ba129054f9107b13a14fdb81a050d2efb458bd184f7842bb633ea75377340f25c78fe14a2058fa700be8925840",
      "networkId": 0,
      "chainId": 0
    }
  ]
}