{
  "hash": "0x6a4a2d87d983da17141ea38a3773172532359cb110acdcc94455f8bd0be7242f",
  "parentHash": "0x22219a619f781f503db79d884dd4c8ef6dc1589cac36f07113815528980fbcd8",
  "number": 90165,
  "timestamp": 1439635723,
  "nonce": "0x2f70bcac416c79d5",
  "difficulty": 3297950723167,
  "gasLimit": {
    "_hex": "0x2fefd8"
  },
  "gasUsed": {
    "_hex": "0xa410"
  },
  "miner": "0xe6A7a1d47ff21B6321162AEA7C6CB457D5476Bca",
  "extraData": "0x476574682f76312e302e312d38326566323666362f6c696e75782f676f312e34",
  "transactions": [
    {
      "hash": "0x54ef21e77e40c0c43a71f71c296cddf3e8be0f97f5797d58c468a78fcf2a5aa2",
      "blockHash": "0x6a4a2d87d983da17141ea38a3773172532359cb110acdcc94455f8bd0be7242f",
      "blockNumber": 90165,
      "transactionIndex": 0,
      "confirmations": null,
      "from": "0x5fF827e73C5B866c300b824fe12719a3DD350513",
      "gasPrice": {
        "_hex": "0xdaba74ee8"
      },
      "gasLimit": {
        "_hex": "0x5208"
      },
      "to": "0x32Be343B94f860124dC4fEe278FDCBD38C102D88",
      "value": {
        "_hex": "0x161ddd17cfd73f000"
      },
      "nonce": 17,
      "data": "0x",
      "r": "0xe88e86acdfd97b0a2eaf7601e4a16b56b91194095761a414804f68c403faf30a",
      "s": "0x443a0990d6336a9a85515a006f429e46894e8b6086a2239fafa5533e30caa799",
      "v": 27,
      "creates": null,
      "raw": "0xf86d11850daba74ee88252089432be343b94f860124dc4fee278fdcbd38c102d88890161ddd17cfd73f000801ba0e88e86acdfd97b0a2eaf7601e4a16b56b91194095761a414804f68c403faf30aa0443a0990d6336a9a85515a006f429e46894e8b6086a2239fafa5533e30caa799",
      "networkId": 0,
      "chainId": 0
    },
    {
      "hash": "0x78af5342f6bc501fafc50970282971215063816d2765f780e3ed3b0aa713d032",
      "blockHash": "0x6a4a2d87d983da17141ea38a3773172532359cb110acdcc94455f8bd0be7242f",
      "blockNumber": 90165,
      "transactionIndex": 1,
      "confirmations": null,
      "from": "0x5a0f0935E8E5591B2f9f2d55f29C626B50292088",
      "gasPrice": {
        "_hex": "0xd8673c561"
      },
      "gasLimit": {
        "_hex": "0x5208"
      },
      "to": "0x32Be343B94f860124dC4fEe278FDCBD38C102D88",
      "value": {
        "_hex": "0x8a9f4693fffda800"
      },
      "nonce": 15,
      "data": "0x",
      "r": "0xb22bf3373028b5e79fd054309f380b8b91025783fe25a48927b8d9fddb9951b3",
      "s": "0x5b25015931d0152a0c1d8d36add4db1d0545e90623132d9a624524dc9ca42168",
      "v": 28,
      "creates": null,
      "raw": "0xf86c0f850d8673c5618252089432be343b94f860124dc4fee278fdcbd38c102d88888a9f4693fffda800801ca0b22bf3373028b5e79fd054309f380b8b91025783fe25a48927b8d9fddb9951b3a05b25015931d0152a0c1d8d36add4db1d0545e90623132d9a624524dc9ca42168",
      "networkId": 0,
      "chainId": 0
    }
  ]
}