{
  "hash": "0xa4ba25f90cf06ea55b87f78ed43279a51abddde0d9317af43bb0332bd795f1ee",
  "parentHash": "0x3af8931eccf045ce5108e14e8cc459c96392a156e332718f781660c47cc4930a",
  "number": 48688,
  "timestamp": 1438961099,
  "nonce": "0x471d37c8e6c1051d",
  "difficulty": 1474305555549,
  "gasLimit": {
    "_hex": "0x1c0c2"
  },
  "gasUsed": {
    "_hex": "0x546c"
  },
  "miner": "0xbb7B8287f3F0a933474a79eAe42CBCa977791171",
  "extraData": "0x476574682f4c5649562f76312e302e312f6c696e75782f676f312e342e32",
  "transactions": [
    {
      "hash": "0x24bb14914105b2e2ee6d127d996d643d03938dddd84002b3a2603214bc3921ec",
      "blockHash": "0xa4ba25f90cf06ea55b87f78ed43279a51abddde0d9317af43bb0332bd795f1ee",
      "blockNumber": 48688,
      "transactionIndex": 0,
      "confirmations": null,
      "from": "0x147f4210AB5804940a0b7db8C14c28396B62A6bF",
      "gasPrice": {
        "_hex": "0x110c8f7d8de"
      },
      "gasLimit": {
        "_hex": "0xc350"
      },
      "to": "0x2910543Af39abA0Cd09dBb2D50200b3E800A63D2",
      "value": {
        "_hex": "0x6c6a3016135fb60000"
      },
      "nonce": 0,
      "data": "0x454e47423347524552",
      "r": "0x57e3097ac53355e287197db1e0908d70ae54bc75d50549da1c3724922128309a",
      "s": "0xf791cd01d7155791c8c6b376ca912760b48a4f7a4485356f43876f00bba41f33",
      "v": 27,
      "creates": null,
      "raw": "0xf87780860110c8f7d8de82c350942910543af39aba0cd09dbb2d50200b3e800a63d2896c6a3016135fb6000089454e474233475245521ba057e3097ac53355e287197db1e0908d70ae54bc75d50549da1c3724922128309aa0f791cd01d7155791c8c6b376ca912760b48a4f7a4485356f43876f00bba41f33",
      "networkId": 0,
      "chainId": 0
    }
  ]
}