{
  "hash": "0x726fc71399522042e1c09642cab1506162273908b2425343ceac260edb2f0cf0",
  "parentHash": "0x89c39df83326268f61b9cecc57c78424aeb4ddeec68b498bf68aeb3881b20c86",
  "number": 112797,
  "timestamp": 1440013421,
  "nonce": "0xcb8b03d3d14d0a0a",
  "difficulty": 4430245161506,
  "gasLimit": {
    "_hex": "0x2fefd8"
  },
  "gasUsed": {
    "_hex": "0xa410"
  },
  "miner": "0x7e8504a5e26df87f6D26fA1ba148BE146F42775A",
  "extraData": "0x476574682f76312e302e312f77696e646f77732f676f312e342e32",
  "transactions": [
    {
      "hash": "0x5099db9d463e53086dd74e6f2afd670e51ac52eea1453bee717037b8f5304b48",
      "blockHash": "0x726fc71399522042e1c09642cab1506162273908b2425343ceac260edb2f0cf0",
      "blockNumber": 112797,
      "transactionIndex": 0,
      "confirmations": null,
      "from": "0x5175f107219871c88e0C4202F14A5f34088b54c8",
      "gasPrice": {
        "_hex": "0x746a528800"
      },
      "gasLimit": {
        "_hex": "0x5b04"
      },
      "to": "0x90fba3C13F19F8cf72A3Bb9EE63C8f728F548654",
      "value": {
        "_hex": "0x15c9c2ae895d0000"
      },
      "nonce": 10,
      "data": "0x",
      "r": "0x850e616e5b868469e7464d826ca06564c605712982e361bd0ad1e9ff246e6b4f",
      "s": "0x8eca56a28631c2cdd1ce16d9ad0cbf3370b5df3646bf4bcacea1a4e6f3c0e55c",
      "v": 28,
      "creates": null,
      "raw": "0xf86c0a85746a528800825b049490fba3c13f19f8cf72a3bb9ee63c8f728f5486548815c9c2ae895d0000801ca0850e616e5b868469e7464d826ca06564c605712982e361bd0ad1e9ff246e6b4fa08eca56a28631c2cdd1ce16d9ad0cbf3370b5df3646bf4bcacea1a4e6f3c0e55c",
      "networkId": 0,
      "chainId": 0
    },
    {
      "hash": "0xe9a04d45230c57631c998c90db40679f2f0c249d27cc27827bb23108cbe12b01",
      "blockHash": "0x726fc71399522042e1c09642cab1506162273908b2425343ceac260edb2f0cf0",
      "blockNumber": 112797,
      "transactionIndex": 1,
      "confirmations": null,
      "from": "0x4a900C6a7785648E677cd96E39603466c0C7744A",
      "gasPrice": {
        "_hex": "0xd12a29eaa"
      },
      "gasLimit": {
        "_hex": "0x5208"
      },
      "to": "0x32Be343B94f860124dC4fEe278FDCBD38C102D88",
      "value": {
        "_hex": "0x1cb8942169680800"
      },
      "nonce": 6,
      "data": "0x",
      "r": "0x14f5973f53ba832322b83a76797f7ada883d3c0124c99b5bdc8b3d0e920a65ef",
      "s": "0x1190b9d7cf6e3114182548ba7ce555e9c597a24f080af38edeb738d4617fef3c",
      "v": 27,
      "creates": null,
      "raw": "0xf86c06850d12a29eaa8252089432be343b94f860124dc4fee278fdcbd38c102d88881cb8942169680800801ba014f5973f53ba832322b83a76797f7ada883d3c0124c99b5bdc8b3d0e920a65efa01190b9d7cf6e3114182548ba7ce555e9c597a24f080af38edeb738d4617fef3c",
      "networkId": 0,
      "chainId": 0
    }
  ]
}