{
  "hash": "0x6ea500b229288530c9977462189c0fd9f1f20a28a5f482489c8fb421a1892610",
  "parentHash": "0x9ce1eee020f818c440e66b7c20365a34eef2526547ed84afe982140c158f9cf4",
  "number": 80584,
  "timestamp": 1439487736,
  "nonce": "0xbabd653003c1867b",
  "difficulty": 2412053738694,
  "gasLimit": {
    "_hex": "0x2fefd5"
  },
  "gasUsed": {
    "_hex": "0xaa37"
  },
  "miner": "0x458F183347F45a4001807728A89F31E9Da9D4A58",
  "extraData": "0x476574682f76312e302e312d38326566323666362f6c696e75782f676f312e34",
  "transactions": [
    {
      "hash": "0x8e7288ec7c80f6a4df1623a0567bae6db06b837decdc025c318eee5231c51f29",
      "blockHash": "0x6ea500b229288530c9977462189c0fd9f1f20a28a5f482489c8fb421a1892610",
      "blockNumber": 80584,
      "transactionIndex": 0,
      "confirmations": null,
      "from": "0x87C5B5874A18B4306DF8a752a6C8cc3E82daFc19",
      "gasPrice": {
        "_hex": "0xff123491a2"
      },
      "gasLimit": {
        "_hex": "0x493e0"
      },
      "to": "0xC4c51de1AbF5D60DBd329eC0F999Fd8f021ae9fC",
      "value": {
        "_hex": "0x0"
      },
      "nonce": 253,
      "data": "0x03750d9400000000000000000000000087c5b5874a18b4306df8a752a6c8cc3e82dafc196b6b6b0000000000000000000000000000000000000000000000000000000000",
      "r": "0x0ea42630106534d0a2a74848078d1f0e70514aa388de1ca19f17c13e35e101f4",
      "s": "0x7fb05e0581fd2cd83e5cdf22453ad16005326a0d91195adf63b5e64766616418",
      "v": 28,
      "creates": null,
      "raw": "0xf8ab81fd85ff123491a2830493e094c4c51de1abf5d60dbd329ec0f999fd8f021ae9fc80b84403750d9400000000000000000000000087c5b5874a18b4306df8a752a6c8cc3e82dafc196b6b6b00000000000000000000000000000000000000000000000000000000001ca00ea42630106534d0a2a74848078d1f0e70514aa388de1ca19f17c13e35e101f4a07fb05e0581fd2cd83e5cdf22453ad16005326a0d91195adf63b5e64766616418",
      "networkId": 0,
      "chainId": 0
    }
  ]
}