{
  "hash": "0xa031b6838ec168871d64aaa277060ef61eea0f4d594de513392be522900755f3",
  "parentHash": "0x40214d1d781255a1e3cb91cc483ae2fb186a5d973eebb210400f0b9e499e920f",
  "number": 64611,
  "timestamp": 1439223568,
  "nonce": "0x14420782c950e65b",
  "difficulty": 1890378739775,
  "gasLimit": {
    "_hex": "0x2fefd8"
  },
  "gasUsed": {
    "_hex": "0xbe6c"
  },
  "miner": "0x39A1BB80a741bF5EC39FB9BE59408Fa0F418fFBf",
  "extraData": "0x476574682f76312e302e312f77696e646f77732f676f312e342e32",
  "transactions": [
    {
      "hash": "0x20af45183192678e5368548ba79cbb32d6f31cb92f2740cdff80ae26e9539441",
      "blockHash": "0xa031b6838ec168871d64aaa277060ef61eea0f4d594de513392be522900755f3",
      "blockNumber": 64611,
      "transactionIndex": 0,
      "confirmations": null,
      "from": "0x1943d2139121f9D669a1A7A1D0fb621D693FdC59",
      "gasPrice": {
        "_hex": "0xba43b7400"
      },
      "gasLimit": {
        "_hex": "0x15f90"
      },
      "to": "0x793AE8C1b1a160BFc07BFB0d04F85eab1A71F4f2",
      "value": {
        "_hex": "0x0"
      },
      "nonce": 0,
      "data": "0x3ba15036",
      "r": "0xf40ca9832355dbe37a56bc24411b2c35860cc23a381e2200c27cde69299285f0",
      "s": "0x54f0d1e8c3eb27dc8762f7b31c0d3d6efc01e139b898eddc1d0a5cdfe088ffc7",
      "v": 27,
      "creates": null,
      "raw": "0xf86980850ba43b740083015f9094793ae8c1b1a160bfc07bfb0d04f85eab1a71f4f280843ba150361ba0f40ca9832355dbe37a56bc24411b2c35860cc23a381e2200c27cde69299285f0a054f0d1e8c3eb27dc8762f7b31c0d3d6efc01e139b898eddc1d0a5cdfe088ffc7",
      "networkId": 0,
      "chainId": 0
    }
  ]
}