{
  "hash": "0xeb1813b644be85386fdf034913ef155f0d29b0381e26ae79c60aa3fc018c9626",
  "parentHash": "0x7331ded5a2a89a4680a0997bba0994c4d3892e2dea7c5288c9525ce31d333a10",
  "number": 84107,
  "timestamp": 1439545145,
  "nonce": "0x547b997c10cb06d5",
  "difficulty": 2498531396921,
  "gasLimit": {
    "_hex": "0x2fefd8"
  },
  "gasUsed": {
    "_hex": "0x5208"
  },
  "miner": "0xC603Ab5ef41fC61AA8b76bEddb09e3Cfcbb174BD",
  "extraData": "0x476574682f76312e302e312f77696e646f77732f676f312e342e32",
  "transactions": [
    {
      "hash": "0x10f1e179c4818707c47d888ba72a37c22fd3537b561e0e09f4299974b30a9e49",
      "blockHash": "0xeb1813b644be85386fdf034913ef155f0d29b0381e26ae79c60aa3fc018c9626",
      "blockNumber": 84107,
      "transactionIndex": 0,
      "confirmations": null,
      "from": "0x4Fd8D6FA1CF91D458FC6F798c9c18735bA0B9D61",
      "gasPrice": {
        "_hex": "0x10cb4ee3368"
      },
      "gasLimit": {
        "_hex": "0x15f90"
      },
      "to": "0xC5e0Fa35fA08dFBD5f9268fEa7a40e25244d8306",
      "value": {
        "_hex": "0xde0b6b3a7640000"
      },
      "nonce": 1,
      "data": "0x",
      "r": "0x539a45ea7cfc57b510826a83d80bd19371b40943fd72be243af0a26fdabc54c5",
      "s": "0x12eff8e891c2ba2e6b874a99417d67adb9735d2093e4caa12f6dd04b1b633a9a",
      "v": 27,
      "creates": null,
      "raw": "0xf86e0186010cb4ee336883015f9094c5e0fa35fa08dfbd5f9268fea7a40e25244d8306880de0b6b3a7640000801ba0539a45ea7cfc57b510826a83d80bd19371b40943fd72be243af0a26fdabc54c5a012eff8e891c2ba2e6b874a99417d67adb9735d2093e4caa12f6dd04b1b633a9a",
      "networkId": 0,
      "chainId": 0
    }
  ]
}