{
  "hash": "0x6a20fbbc468c9e612e12a7bfd7a4a53e30e74dea9baebb39d76eb03bbf754d5c",
  "parentHash": "0x298e4153ca665a76499c358d8333bb891bb42ae7551597686db7efae161da237",
  "number": 87201,
  "timestamp": 1439588853,
  "nonce": "0xe116a5ff467f6737",
  "difficulty": 3060135819753,
  "gasLimit": {
    "_hex": "0x2fefd8"
  },
  "gasUsed": {
    "_hex": "0x5208"
  },
  "miner": "0xe6A7a1d47ff21B6321162AEA7C6CB457D5476Bca",
  "extraData": "0x476574682f76312e302e312d38326566323666362f6c696e75782f676f312e34",
  "transactions": [
    {
      "hash": "0x2cc06ca16bcdeea70d9ee0535242b0f404f003fa97cb0536fc0a1aca97a86cdc",
      "blockHash": "0x6a20fbbc468c9e612e12a7bfd7a4a53e30e74dea9baebb39d76eb03bbf754d5c",
      "blockNumber": 87201,
      "transactionIndex": 0,
      "confirmations": null,
      "from": "0x120A270bbC009644e35F0bB6ab13f95b8199c4ad",
      "gasPrice": {
        "_hex": "0xe0f101456"
      },
      "gasLimit": {
        "_hex": "0x3d090"
      },
      "to": "0xFbc92cE518a6CA6341B08b4468880Cc9Dd61a027",
      "value": {
        "_hex": "0xc328d20e5eba0c400"
      },
      "nonce": 492,
      "data": "0x",
      "r": "0xa90c9b75e7d5934d257ebbb3f1d793f1c03ce4391883b4c6d9e6a0800aacdce1",
      "s": "0x499bf4a75e9aa290b49d425ed10364ee63e2dbaf88031ade648598e792d197ea",
      "v": 28,
      "creates": null,
      "raw": "0xf8708201ec850e0f1014568303d09094fbc92ce518a6ca6341b08b4468880cc9dd61a027890c328d20e5eba0c400801ca0a90c9b75e7d5934d257ebbb3f1d793f1c03ce4391883b4c6d9e6a0800aacdce1a0499bf4a75e9aa290b49d425ed10364ee63e2dbaf88031ade648598e792d197ea",
      "networkId": 0,
      "chainId": 0
    }
  ]
}