{
  "hash": "0xe2699536ce6134bd7b3e514d155aac2651e5a52c9fa9b6aaf6b59af5aef1d8e3",
  "parentHash": "0xbe0741dff95cff23b57009186eed5766c4c5e41b5632a9e6b91be1961a7a3d34",
  "number": 47694,
  "timestamp": 1438944843,
  "nonce": "0x3e3d15a59677e85f",
  "difficulty": 1444549847861,
  "gasLimit": {
    "_hex": "0xe5a1"
  },
  "gasUsed": {
    "_hex": "0xa410"
  },
  "miner": "0x580992B51e3925e23280EfB93d3047C82f17E038",
  "extraData": "0x476574682f76312e302e312f6c696e75782f676f312e342e32",
  "transactions": [
    {
      "hash": "0x37fcd6236f2d4e0bc16df2eb588cd113312a04542659ce0cbd6094a227f8e0df",
      "blockHash": "0xe2699536ce6134bd7b3e514d155aac2651e5a52c9fa9b6aaf6b59af5aef1d8e3",
      "blockNumber": 47694,
      "transactionIndex": 0,
      "confirmations": null,
      "from": "0xe6A7a1d47ff21B6321162AEA7C6CB457D5476Bca",
      "gasPrice": {
        "_hex": "0xd49d9c799"
      },
      "gasLimit": {
        "_hex": "0x55f0"
      },
      "to": "0x86889b1CeA13d370E827e099e3778b17d488B3Dd",
      "value": {
        "_hex": "0xa4543e0597e07990"
      },
      "nonce": 204,
      "data": "0x",
      "r": "0xfa315f9af69440fb2bd736745a0ad411ff36b6239e787768aa34f86f8a2b94d1",
      "s": "0x40af26e13f12f279c92f2bfe2824c6af76a8756d39dc6bc5b1816cc3042d5335",
      "v": 28,
      "creates": null,
      "raw": "0xf86d81cc850d49d9c7998255f09486889b1cea13d370e827e099e3778b17d488b3dd88a4543e0597e07990801ca0fa315f9af69440fb2bd736745a0ad411ff36b6239e787768aa34f86f8a2b94d1a040af26e13f12f279c92f2bfe2824c6af76a8756d39dc6bc5b1816cc3042d5335",
      "networkId": 0,
      "chainId": 0
    },
    {
      "hash": "0xbc4e29fc430137304e48bab24597db78508f566a49165c3a7f63c4ad92358f32",
      "blockHash": "0xe2699536ce6134bd7b3e514d155aac2651e5a52c9fa9b6aaf6b59af5aef1d8e3",
      "blockNumber": 47694,
      "transactionIndex": 1,
      "confirmations": null,
      "from": "0xe6A7a1d47ff21B6321162AEA7C6CB457D5476Bca",
      "gasPrice": {
        "_hex": "0xd49d9c799"
      },
      "gasLimit": {
        "_hex": "0x55f0"
      },
      "to": "0x7C09fc7bF606786C2fFD57FFe7c84A0FFe275A36",
      "value": {
        "_hex": "0xae95fbd1e919ee60"
      },
      "nonce": 205,
      "data": "0x",
      "r": "0x7b8894e6696af8869d7a85a09f660add76e5b616f35fe71d4680618b8a882d07",
      "s": "0x321caf3bf843fb328e587ea5429b2419aa26e7e8bdbcf91c2de420850409390b",
      "v": 28,
      "creates": null,
      "raw": "0xf86d81cd850d49d9c7998255f0947c09fc7bf606786c2ffd57ffe7c84a0ffe275a3688ae95fbd1e919ee60801ca07b8894e6696af8869d7a85a09f660add76e5b616f35fe71d4680618b8a882d07a0321caf3bf843fb328e587ea5429b2419aa26e7e8bdbcf91c2de420850409390b",
      "networkId": 0,
      "chainId": 0
    }
  ]
}