{
  "hash": "0xbd93d81922f31d6100b1675efb536effb3929b7d8d12936f23e793cb4fb7fb40",
  "parentHash": "0xdb693544627cdec8dddbbe5d7b2e6220bb825a987d38ec6bc86a23405b830ec5",
  "number": 85379,
  "timestamp": 1439562798,
  "nonce": "0x48a24c4032209167",
  "difficulty": 2727654590964,
  "gasLimit": {
    "_hex": "0x2fefd8"
  },
  "gasUsed": {
    "_hex": "0x5208"
  },
  "miner": "0xe6A7a1d47ff21B6321162AEA7C6CB457D5476Bca",
  "extraData": "0x476574682f76312e302e312d38326566323666362f6c696e75782f676f312e34",
  "transactions": [
    {
      "hash": "0x8e99785208dbc38f7abad7d529ab1a6864b8554d726755758dd73ffd4dc16c4a",
      "blockHash": "0xbd93d81922f31d6100b1675efb536effb3929b7d8d12936f23e793cb4fb7fb40",
      "blockNumber": 85379,
      "transactionIndex": 0,
      "confirmations": null,
      "from": "0x26E3f7C9e444f2Ca9E0BE2aF841bd060cF1CbDDb",
      "gasPrice": {
        "_hex": "0xd232e9a05"
      },
      "gasLimit": {
        "_hex": "0x55f0"
      },
      "to": "0x8751DfA908C45A8aEf041FbeE9C17f9fE57Cc449",
      "value": {
        "_hex": "0xad78ebc5ac6200000"
      },
      "nonce": 2,
      "data": "0x",
      "r": "0xa0aaf8fa0c6927ae93f3ed158c648268931082de15aefd1ab32c8fa3eeb102a3",
      "s": "0x2b97c430216435ef3136ea9ac8ab1f34022579105ce71adc30fd71175630edeb",
      "v": 28,
      "creates": null,
      "raw": "0xf86d02850d232e9a058255f0948751dfa908c45a8aef041fbee9c17f9fe57cc449890ad78ebc5ac6200000801ca0a0aaf8fa0c6927ae93f3ed158c648268931082de15aefd1ab32c8fa3eeb102a3a02b97c430216435ef3136ea9ac8ab1f34022579105ce71adc30fd71175630edeb",
      "networkId": 0,
      "chainId": 0
    }
  ]
}