{
  "hash": "0x76671baacbab8acc59088012b9bb4009109cb321adef0ee8a6694b35160dc664",
  "parentHash": "0xcdf07160571a498e7de0343dd3c4a488091d90bb9385dc5f279f84c3783a20a4",
  "number": 49644,
  "timestamp": 1438976803,
  "nonce": "0xca78e82ebf1b214a",
  "difficulty": 1484249182033,
  "gasLimit": {
    "_hex": "0x38e4b"
  },
  "gasUsed": {
    "_hex": "0xa674"
  },
  "miner": "0x0A63E1A8C33e351679e3581AC84ce341C32f813a",
  "extraData": "0x476574682f76312e302e312d38326566323666362f6c696e75782f676f312e34",
  "transactions": [
    {
      "hash": "0x6d3b62431fe411b8726bb72e6c649ba68a98f44e31ab491e2cf94f18473d9acf",
      "blockHash": "0x76671baacbab8acc59088012b9bb4009109cb321adef0ee8a6694b35160dc664",
      "blockNumber": 49644,
      "transactionIndex": 0,
      "confirmations": null,
      "from": "0x0625D06056968b002206FF91980140242BFAA499",
      "gasPrice": {
        "_hex": "0x11613bf4b7c"
      },
      "gasLimit": {
        "_hex": "0x15f90"
      },
      "to": "0x2910543Af39abA0Cd09dBb2D50200b3E800A63D2",
      "value": {
        "_hex": "0x363442e15b11550000"
      },
      "nonce": 0,
      "data": "0x454e42304a42363352",
      "r": "0x16dfea6b9a9e87f0774219c0864ec290cf1e4839cb3ee5565edae6c0b0c76e62",
      "s": "0x66ebd9f4cc8a5306fa7a5578849ce1195796c8d811c6ee295c1c1ce4dcc77099",
      "v": 27,
      "creates": null,
      "raw": "0xf8788086011613bf4b7c83015f90942910543af39aba0cd09dbb2d50200b3e800a63d289363442e15b1155000089454e42304a423633521ba016dfea6b9a9e87f0774219c0864ec290cf1e4839cb3ee5565edae6c0b0c76e62a066ebd9f4cc8a5306fa7a5578849ce1195796c8d811c6ee295c1c1ce4dcc77099",
      "networkId": 0,
      "chainId": 0
    },
    {
      "hash": "0xd29d128bb792d6016e40ea2fa4f82448f98467314eb026c14548f0e7b39cef2d",
      "blockHash": "0x76671baacbab8acc59088012b9bb4009109cb321adef0ee8a6694b35160dc664",
      "blockNumber": 49644,
      "transactionIndex": 1,
      "confirmations": null,
      "from": "0xbb7B8287f3F0a933474a79eAe42CBCa977791171",
      "gasPrice": {
        "_hex": "0x746a528800"
      },
      "gasLimit": {
        "_hex": "0x61a8"
      },
      "to": "0xBb990e55844f15Ac000cEB515D5a2A315Db9CB0B",
      "value": {
        "_hex": "0x6c6b935b8bbd400000"
      },
      "nonce": 4,
      "data": "0x",
      "r": "0xfda8b80c134da29df886f87f4445037f6a7762ddc12d4ea2a93e9724ad500d70",
      "s": "0x332229a662c5bd960e0e4ed37686689ee115cbcdf1d8069abf5e5dc561c6915c",
      "v": 28,
      "creates": null,
      "raw": "0xf86d0485746a5288008261a894bb990e55844f15ac000ceb515d5a2a315db9cb0b896c6b935b8bbd400000801ca0fda8b80c134da29df886f87f4445037f6a7762ddc12d4ea2a93e9724ad500d70a0332229a662c5bd960e0e4ed37686689ee115cbcdf1d8069abf5e5dc561c6915c",
      "networkId": 0,
      "chainId": 0
    }
  ]
}