{
  "hash": "0xdc1706427b7579394c4ddb0a7c2dc745fea244e751d418b0e311cc7572ae8093",
  "parentHash": "0x8739484f939ee64325c4b77b22542bbc83e37de240f12ea271224d9847a8e6a9",
  "number": 92307,
  "timestamp": 1439670012,
  "nonce": "0x6107cbb671c135b2",
  "difficulty": 3496070735674,
  "gasLimit": {
    "_hex": "0x2fefd8"
  },
  "gasUsed": {
    "_hex": "0x5208"
  },
  "miner": "0xe6A7a1d47ff21B6321162AEA7C6CB457D5476Bca",
  "extraData": "0x476574682f76312e302e312d38326566323666362f6c696e75782f676f312e34",
  "transactions": [
    {
      "hash": "0xc2c1789cf71f8b6bd68f28e7185d3d2ceed1d6b185d8a9a302662f8971f755b1",
      "blockHash": "0xdc1706427b7579394c4ddb0a7c2dc745fea244e751d418b0e311cc7572ae8093",
      "blockNumber": 92307,
      "transactionIndex": 0,
      "confirmations": null,
      "from": "0x00E681Bc2D10DB62De85848324492250348E90Bf",
      "gasPrice": {
        "_hex": "0xd7d40ace3"
      },
      "gasLimit": {
        "_hex": "0x15f90"
      },
      "to": "0xaF8DC9b93f150799F5eCb55b5131fEc2a0A5F192",
      "value": {
        "_hex": "0x889bb3aa66de2e000"
      },
      "nonce": 1,
      "data": "0x",
      "r": "0xcf79f5260decb8b482eb59625d6e482fa29c685efceedd320e8cb10f574726b6",
      "s": "0x69f613e81ff72d9904073ebb0b4df5f9fd98ea3e2e805fe83aedcaa16fe40976",
      "v": 27,
      "creates": null,
      "raw": "0xf86e01850d7d40ace383015f9094af8dc9b93f150799f5ecb55b5131fec2a0a5f192890889bb3aa66de2e000801ba0cf79f5260decb8b482eb59625d6e482fa29c685efceedd320e8cb10f574726b6a069f613e81ff72d9904073ebb0b4df5f9fd98ea3e2e805fe83aedcaa16fe40976",
      "networkId": 0,
      "chainId": 0
    }
  ]
}