{
  "hash": "0x7f80ae2993d24065ee9c916d55a2558131629f40b865b59727c07214d728d3f3",
  "parentHash": "0xd9939f312f0877e9c40369b1a33d195c189380c136b52e7f2b7f2ae9d7bc0566",
  "number": 46576,
  "timestamp": 1438925600,
  "nonce": "0x782e57aafb63c8ee",
  "difficulty": 1457496281949,
  "gasLimit": {
    "_hex": "0x69a1"
  },
  "gasUsed": {
    "_hex": "0x5208"
  },
  "miner": "0x70137010922f2fC2964b3792907F79FBB75fEbe8",
  "extraData": "0x476574682f76312e302e302f6c696e75782f676f312e342e32",
  "transactions": [
    {
      "hash": "0xda567a2493c571271b3428040e72b37df0988d516b8d0d8f229b341225562931",
      "blockHash": "0x7f80ae2993d24065ee9c916d55a2558131629f40b865b59727c07214d728d3f3",
      "blockNumber": 46576,
      "transactionIndex": 0,
      "confirmations": null,
      "from": "0x63b0495e672B1382b1ac7968b02e3B4234fE59dd",
      "gasPrice": {
        "_hex": "0x5d21dba000"
      },
      "gasLimit": {
        "_hex": "0x5208"
      },
      "to": "0x32Be343B94f860124dC4fEe278FDCBD38C102D88",
      "value": {
        "_hex": "0x208643c1eb65fa0000"
      },
      "nonce": 0,
      "data": "0x",
      "r": "0xc8584d8de44f9e6d97f8a04dfc6ac2b999397a2eb505240ade695e8851b0db3e",
      "s": "0x49238679f278a6d9b2732f2bfd0ea239212b891f6eb09f58577c0aa819ba7563",
      "v": 27,
      "creates": null,
      "raw": "0xf86d80855d21dba0008252089432be343b94f860124dc4fee278fdcbd38c102d8889208643c1eb65fa0000801ba0c8584d8de44f9e6d97f8a04dfc6ac2b999397a2eb505240ade695e8851b0db3ea049238679f278a6d9b2732f2bfd0ea239212b891f6eb09f58577c0aa819ba7563",
      "networkId": 0,
      "chainId": 0
    }
  ]
}