{
  "hash": "0xdcedf6abe46285d2ee25da5c3d121c318aae76536ab19153ccdb16ea6e81701c",
  "parentHash": "0xa6aaa633ba5edfc3389f2984cf561ed9225c862b3c47e6e8df6aaab6134f3bd8",
  "number": 55204,
  "timestamp": 1439066943,
  "nonce": "0xeef07e4abfa13441",
  "difficulty": 1641825524330,
  "gasLimit": {
    "_hex": "0x2fefd8"
  },
  "gasUsed": {
    "_hex": "0x546c"
  },
  "miner": "0xF2d2AfF1320476cb8C6b607199D23175cc595693",
  "extraData": "0x476574682f76312e302e312f77696e646f77732f676f312e342e32",
  "transactions": [
    {
      "hash": "0xc0858018ca95d497d5a568455b64d80b3b5c054dccde687d4608a172f2f28873",
      "blockHash": "0xdcedf6abe46285d2ee25da5c3d121c318aae76536ab19153ccdb16ea6e81701c",
      "blockNumber": 55204,
      "transactionIndex": 0,
      "confirmations": null,
      "from": "0x66493587E4BFbAf65E6295308371a78761a2794D",
      "gasPrice": {
        "_hex": "0x10695e64c6"
      },
      "gasLimit": {
        "_hex": "0x15f90"
      },
      "to": "0x2910543Af39abA0Cd09dBb2D50200b3E800A63D2",
      "value": {
        "_hex": "0xde0b6b3a7640000"
      },
      "nonce": 1,
      "data": "0x454e574e3859354847",
      "r": "0x52d0ecc4a70d2d43f896642f28bbaf8f28c22dc6ac7628ce4a0e59aec93d6515",
      "s": "0x43c41a2a87e1abdff6dd2ce99d8b889dc0fa9a997e9a806763013151ce9b810e",
      "v": 27,
      "creates": null,
      "raw": "0xf876018510695e64c683015f90942910543af39aba0cd09dbb2d50200b3e800a63d2880de0b6b3a764000089454e574e38593548471ba052d0ecc4a70d2d43f896642f28bbaf8f28c22dc6ac7628ce4a0e59aec93d6515a043c41a2a87e1abdff6dd2ce99d8b889dc0fa9a997e9a806763013151ce9b810e",
      "networkId": 0,
      "chainId": 0
    }
  ]
}