{
  "hash": "0xca60a5d844c5bf7d2a44d57c73bc8e6c3ee276563f4cad8515d4551a902b00a4",
  "parentHash": "0xb0b65a213663b77480e3161241838d95bee194db162f1e4a327b56ffab58050a",
  "number": 118217,
  "timestamp": 1440122479,
  "nonce": "0x7039a26370d78f96",
  "difficulty": 4303757569794,
  "gasLimit": {
    "_hex": "0x2fefd8"
  },
  "gasUsed": {
    "_hex": "0x5208"
  },
  "miner": "0xD0ee3F53eE0fCf3F9fbCcdd17BD1b6441DdC2074",
  "extraData": "0x",
  "transactions": [
    {
      "hash": "0x842a9008f09833a8a59774a2caaeee7aa88b32d3dcf3d4df221a2b8b76ada103",
      "blockHash": "0xca60a5d844c5bf7d2a44d57c73bc8e6c3ee276563f4cad8515d4551a902b00a4",
      "blockNumber": 118217,
      "transactionIndex": 0,
      "confirmations": null,
      "from": "0x9827C93917a0c59899BEfBa58d104A788782e1d4",
      "gasPrice": {
        "_hex": "0xcfbc90e1d"
      },
      "gasLimit": {
        "_hex": "0x15f90"
      },
      "to": "0x61F642543d22bAf5382908a714E675Cc0b51ea45",
      "value": {
        "_hex": "0x8ac7230489e80000"
      },
      "nonce": 7,
      "data": "0x",
      "r": "0xdea2add5a41bf5b71ed8f1f4d9360bd712c6cca943ef1d34918d83d58928ab8a",
      "s": "0x401862a019764aa1e374cdc75c0858fe485e4f47e7f7052b970aaf61bc1db6b6",
      "v": 27,
      "creates": null,
      "raw": "0xf86d07850cfbc90e1d83015f909461f642543d22baf5382908a714e675cc0b51ea45888ac7230489e80000801ba0dea2add5a41bf5b71ed8f1f4d9360bd712c6cca943ef1d34918d83d58928ab8aa0401862a019764aa1e374cdc75c0858fe485e4f47e7f7052b970aaf61bc1db6b6",
      "networkId": 0,
      "chainId": 0
    }
  ]
}