{
  "hash": "0x06f53621bece724756a180b597580eeba955e2eb5f9d5c3222031f72bfe93d6b",
  "parentHash": "0x60ce7b693a4e66323ebb333a3c06c45b5592ba63a862f6c4e20cdbd95d3b7469",
  "number": 81376,
  "timestamp": 1439500583,
  "nonce": "0xd5386e03530594b1",
  "difficulty": 2456994447187,
  "gasLimit": {
    "_hex": "0x2fefd8"
  },
  "gasUsed": {
    "_hex": "0x5208"
  },
  "miner": "0xce17C7c928AEa6b16e8F342F53731e12c583e338",
  "extraData": "0x",
  "transactions": [
    {
      "hash": "0x3b77cc281c2e2cc103aaab8f70437fbfa4bec9bbadfbbbfe30076e1c577a139c",
      "blockHash": "0x06f53621bece724756a180b597580eeba955e2eb5f9d5c3222031f72bfe93d6b",
      "blockNumber": 81376,
      "transactionIndex": 0,
      "confirmations": null,
      "from": "0x019D3FA6E3cdA649b26F74395A846575c7bEA14C",
      "gasPrice": {
        "_hex": "0xd023627da"
      },
      "gasLimit": {
        "_hex": "0x15f90"
      },
      "to": "0x04a2a3ee9C9ea82e1F918ecE209f8A7E6d7521E7",
      "value": {
        "_hex": "0xf9ccd8a1c5080000"
      },
      "nonce": 4,
      "data": "0x",
      "r": "0x7d29c2a25bd8f9e342b719b2f8e2e08f28c5abe6390ec6bd6980a262f9d74c72",
      "s": "0x5332b79a3eee3684c78a64d363422d14fbc98c93007ca7ea7136e0c1c30f0fa0",
      "v": 28,
      "creates": null,
      "raw": "0xf86d04850d023627da83015f909404a2a3ee9c9ea82e1f918ece209f8a7e6d7521e788f9ccd8a1c5080000801ca07d29c2a25bd8f9e342b719b2f8e2e08f28c5abe6390ec6bd6980a262f9d74c72a05332b79a3eee3684c78a64d363422d14fbc98c93007ca7ea7136e0c1c30f0fa0",
      "networkId": 0,
      "chainId": 0
    }
  ]
}