{
  "hash": "0x4ccb68610f4da1e157edb951aa428d85a2f814748f49c6fb35c207521ed0458f",
  "parentHash": "0xa82597005aa5b9f3f1b96505c95b185a3351fe842c60cc9e288b434a41e8cb10",
  "number": 84287,
  "timestamp": 1439547582,
  "nonce": "0x72b4f8449bec872f",
  "difficulty": 2530398939383,
  "gasLimit": {
    "_hex": "0x2fefd8"
  },
  "gasUsed": {
    "_hex": "0x19a28"
  },
  "miner": "0x05f74a38293C914C6B14a39f5d8dEa98f22E4FBA",
  "extraData": "0x",
  "transactions": [
    {
      "hash": "0x7d7bf081dec170037ffc1e60e39a33bf1a83e6956a36a5daaa84dcf66932a272",
      "blockHash": "0x4ccb68610f4da1e157edb951aa428d85a2f814748f49c6fb35c207521ed0458f",
      "blockNumber": 84287,
      "transactionIndex": 0,
      "confirmations": null,
      "from": "0xe6A7a1d47ff21B6321162AEA7C6CB457D5476Bca",
      "gasPrice": {
        "_hex": "0xdb7d680df"
      },
      "gasLimit": {
        "_hex": "0x55f0"
      },
      "to": "0x27e806e70622d2864e1B1f4426D72FFb0457C83a",
      "value": {
        "_hex": "0xe35d550056e241d0"
      },
      "nonce": 1816,
      "data": "0x",
      "r": "0x881ce88aad20dff0ac768018c553784021ab4aa4bee02b06bfcfad2952a103db",
      "s": "0x42787811d9f14853760f5cc13536798b2f818dfa7d3c444472f8c461f7fe037d",
      "v": 27,
      "creates": null,
      "raw": "0xf86e820718850db7d680df8255f09427e806e70622d2864e1b1f4426d72ffb0457c83a88e35d550056e241d0801ba0881ce88aad20dff0ac768018c553784021ab4aa4bee02b06bfcfad2952a103dba042787811d9f14853760f5cc13536798b2f818dfa7d3c444472f8c461f7fe037d",
      "networkId": 0,
      "chainId": 0
    },
    {
      "hash": "0x2d3a027e5e00695ad1ea91b3f506e896dfbe8739fa17563756df2f0c7ce9653e",
      "blockHash": "0x4ccb68610f4da1e157edb951aa428d85a2f814748f49c6fb35c207521ed0458f",
      "blockNumber": 84287,
      "transactionIndex": 1,
      "confirmations": null,
      "from": "0xe6A7a1d47ff21B6321162AEA7C6CB457D5476Bca",
      "gasPrice": {
        "_hex": "0xdb7d680df"
      },
      "gasLimit": {
        "_hex": "0x55f0"
      },
      "to": "0x98468422cC6f9c345bb48c434c8048409D5F2724",
      "value": {
        "_hex": "0xe4af5307e219c3b0"
      },
      "nonce": 1817,
      "data": "0x",
      "r": "0x3782a9c0ca19287632ada5b3184220d5fff34f428f80f0a8e72a686b54daa92f",
      "s": "0x5e729a8282e2ca1ae939f7b152de1f3bc707c458556fd9dbfda71d342dbf5b67",
      "v": 27,
      "creates": null,
      "raw": "0xf86e820719850db7d680df8255f09498468422cc6f9c345bb48c434c8048409d5f272488e4af5307e219c3b0801ba03782a9c0ca19287632ada5b3184220d5fff34f428f80f0a8e72a686b54daa92fa05e729a8282e2ca1ae939f7b152de1f3bc707c458556fd9dbfda71d342dbf5b67",
      "networkId": 0,
      "chainId": 0
    },
    {
      "hash": "0x361c2c5a7d7874a5df25965c84dc550fdc8e878abacc1fcaf5ee3bbdcad5b4bf",
      "blockHash": "0x4ccb68610f4da1e157edb951aa428d85a2f814748f49c6fb35c207521ed0458f",
      "blockNumber": 84287,
      "transactionIndex": 2,
      "confirmations": null,
      "from": "0xe6A7a1d47ff21B6321162AEA7C6CB457D5476Bca",
      "gasPrice": {
        "_hex": "0xdb7d680df"
      },
      "gasLimit": {
        "_hex": "0x55f0"
      },
      "to": "0x04a6c6a293340Fc3f2244D097b0CFD84d5317bA5",
      "value": {
        "_hex": "0xe542dc42e7fed330"
      },
      "nonce": 1818,
      "data": "0x",
      "r": "0x9e4e6685c01bba2db1ae16e54b410b5fd56e6615df561e2b36a7a90c34686e54",
      "s": "0x3cf62913220b596b3cfd35aa4e60ba9b958a9dcce8d0fe009eba2ab5cec06383",
      "v": 27,
      "creates": null,
      "raw": "0xf86e82071a850db7d680df8255f09404a6c6a293340fc3f2244d097b0cfd84d5317ba588e542dc42e7fed330801ba09e4e6685c01bba2db1ae16e54b410b5fd56e6615df561e2b36a7a90c34686e54a03cf62913220b596b3cfd35aa4e60ba9b958a9dcce8d0fe009eba2ab5cec06383",
      "networkId": 0,
      "chainId": 0
    },
    {
      "hash": "0x3f6657cd7ea83987aa1511e1c2946cb7685cbe948e88e697133f1ab8da2fecae",
      "blockHash": "0x4ccb68610f4da1e157edb951aa428d85a2f814748f49c6fb35c207521ed0458f",
      "blockNumber": 84287,
      "transactionIndex": 3,
      "confirmations": null,
      "from": "0xe6A7a1d47ff21B6321162AEA7C6CB457D5476Bca",
      "gasPrice": {
        "_hex": "0xdb7d680df"
      },
      "gasLimit": {
        "_hex": "0x55f0"
      },
      "to": "0x702bD0d370bBf0B97B66FE95578c62697c583393",
      "value": {
        "_hex": "0xe568c6c12b3559b0"
      },
      "nonce": 1819,
      "data": "0x",
      "r": "0x8c8f8f574ac5f6f5b2c813cc4a7e750f4d61ee205f49f5fc529d1e83c49f2c46",
      "s": "0x36fbee54a987ce8cb6281e26a346d47f976124bdd5700c9405a9b4b9d449451c",
      "v": 27,
      "creates": null,
      "raw": "0xf86e82071b850db7d680df8255f094702bd0d370bbf0b97b66fe95578c62697c58339388e568c6c12b3559b0801ba08c8f8f574ac5f6f5b2c813cc4a7e750f4d61ee205f49f5fc529d1e83c49f2c46a036fbee54a987ce8cb6281e26a346d47f976124bdd5700c9405a9b4b9d449451c",
      "networkId": 0,
      "chainId": 0
    },
    {
      "hash": "0x0019c0be2bce442515405a482ce7048ae9c47cee6a47ece99751a66e5a81121b",
      "blockHash": "0x4ccb68610f4da1e157edb951aa428d85a2f814748f49c6fb35c207521ed0458f",
      "blockNumber": 84287,
      "transactionIndex": 4,
      "confirmations": null,
      "from": "0xec4B2cCFC84A4C62d73D56c44917986aAAaEe10f",
      "gasPrice": {
        "_hex": "0xd7c985e47"
      },
      "gasLimit": {
        "_hex": "0x5208"
      },
      "to": "0x32Be343B94f860124dC4fEe278FDCBD38C102D88",
      "value": {
        "_hex": "0x42062d5078279000"
      },
      "nonce": 1,
      "data": "0x",
      "r": "0xc10eb0c040eedb7ce57803262fc13581c55bf404378d6aa0d7ca77464b274541",
      "s": "0x4d9e1e42103b9eb8776939e59aadc2d6c0d306344ad253c83814cbd7a4c8d917",
      "v": 28,
      "creates": null,
      "raw": "0xf86c01850d7c985e478252089432be343b94f860124dc4fee278fdcbd38c102d888842062d5078279000801ca0c10eb0c040eedb7ce57803262fc13581c55bf404378d6aa0d7ca77464b274541a04d9e1e42103b9eb8776939e59aadc2d6c0d306344ad253c83814cbd7a4c8d917",
      "networkId": 0,
      "chainId": 0
    }
  ]
}