{
  "hash": "0x1164f184474a50773e82170977d7adf0cf9cbc224cd8f09061a9e21fa6d02006",
  "parentHash": "0x9230862edd5f4d3db9cad2b6267461fc5aeccc62e6d576dd38c2f8add4146d2c",
  "number": 95446,
  "timestamp": 1439724268,
  "nonce": "0xaf66cc5bf0d92fcc",
  "difficulty": 3589887854699,
  "gasLimit": {
    "_hex": "0x2fefd8"
  },
  "gasUsed": {
    "_hex": "0x5208"
  },
  "miner": "0xf8E0CA3Ed80bd541b94BEdCf259e8CF2141A9523",
  "extraData": "0x476574682f76312e302e312f77696e646f77732f676f312e342e32",
  "transactions": [
    {
      "hash": "0x3f5fcc90f89466b2742ed85aa1ca98f9dc9b8491b4e64ee2c15f66635fe30783",
      "blockHash": "0x1164f184474a50773e82170977d7adf0cf9cbc224cd8f09061a9e21fa6d02006",
      "blockNumber": 95446,
      "transactionIndex": 0,
      "confirmations": null,
      "from": "0x63738Ec4C9adec404749B5747F3bbE2147de632F",
      "gasPrice": {
        "_hex": "0xd8364fc25"
      },
      "gasLimit": {
        "_hex": "0x15f90"
      },
      "to": "0x557C2806B6ceA65a66F415bb2Ed1ce897B340745",
      "value": {
        "_hex": "0xde0b6b3a7640000"
      },
      "nonce": 1,
      "data": "0x",
      "r": "0xa8b28c7971d1052124c58f49b17cc0c9c701e648126c1b5a6ce8c2b939ff5895",
      "s": "0x49d45cc56c7056b2e71cfd889453babff66675bd8f0ed635034ba5ab5b5bbd59",
      "v": 27,
      "creates": null,
      "raw": "0xf86d01850d8364fc2583015f9094557c2806b6cea65a66f415bb2ed1ce897b340745880de0b6b3a7640000801ba0a8b28c7971d1052124c58f49b17cc0c9c701e648126c1b5a6ce8c2b939ff5895a049d45cc56c7056b2e71cfd889453babff66675bd8f0ed635034ba5ab5b5bbd59",
      "networkId": 0,
      "chainId": 0
    }
  ]
}