{
  "hash": "0xa895cd51d185016d4d1ceca96995323a9842f5db5e41147882b57d292b39f258",
  "parentHash": "0xffbdd9cda43440ba0bea6c6107acb3e63468785551c931ec7a5f3f8ab0a7ea5b",
  "number": 48114,
  "timestamp": 1438951581,
  "nonce": "0x05cbc8ac146a2558",
  "difficulty": 1467224737002,
  "gasLimit": {
    "_hex": "0x12aca"
  },
  "gasUsed": {
    "_hex": "0xfae0"
  },
  "miner": "0x3F98e477a361F777DA14611a7e419A75Fd238b6b",
  "extraData": "0x476574682f76312e302e312f6c696e75782f676f312e342e32",
  "transactions": [
    {
      "hash": "0x5ed2acb08bcff6e56b9dbf3dec1293d21cfaf75a3a0840e1c4aae6db08d57b0a",
      "blockHash": "0xa895cd51d185016d4d1ceca96995323a9842f5db5e41147882b57d292b39f258",
      "blockNumber": 48114,
      "transactionIndex": 0,
      "confirmations": null,
      "from": "0x5aC99Ad7816AE9020fF8Adf79fA9869B7Cea6601",
      "gasPrice": {
        "_hex": "0x110c8f7d8de"
      },
      "gasLimit": {
        "_hex": "0xc350"
      },
      "to": "0x2910543Af39abA0Cd09dBb2D50200b3E800A63D2",
      "value": {
        "_hex": "0x3635c9adc5dea00000"
      },
      "nonce": 2,
      "data": "0x454e4b594346424447",
      "r": "0x6011d62551cb1aba28ac84030accf095091f883767c719479a2de58b0e5cd7e1",
      "s": "0x6cd11abc11e8802eefa6fe4a98ac50b7496b3001035afe403827d206c49ccd8e",
      "v": 28,
      "creates": null,
      "raw": "0xf87702860110c8f7d8de82c350942910543af39aba0cd09dbb2d50200b3e800a63d2893635c9adc5dea0000089454e4b5943464244471ca06011d62551cb1aba28ac84030accf095091f883767c719479a2de58b0e5cd7e1a06cd11abc11e8802eefa6fe4a98ac50b7496b3001035afe403827d206c49ccd8e",
      "networkId": 0,
      "chainId": 0
    },
    {
      "hash": "0x5168f237d77373138a3e69eca9b2a9753133f07d0bc1eeae3b39194b37115ef8",
      "blockHash": "0xa895cd51d185016d4d1ceca96995323a9842f5db5e41147882b57d292b39f258",
      "blockNumber": 48114,
      "transactionIndex": 1,
      "confirmations": null,
      "from": "0x339314EDFad76e605EF2502a570aF26fC1ccd8A8",
      "gasPrice": {
        "_hex": "0x746a528800"
      },
      "gasLimit": {
        "_hex": "0x5d68"
      },
      "to": "0x2910543Af39abA0Cd09dBb2D50200b3E800A63D2",
      "value": {
        "_hex": "0x2386f26fc10000"
      },
      "nonce": 2,
      "data": "0x454e30513259314e30",
      "r": "0xb579107a4714f7061eb27b5bbdba3ec0ab497f3523b885321ac48bb96c8e3512",
      "s": "0x7ca7b6be04ce4e296b631e50ffdd0c41265242ecd7bc52ab9aff166bc6a2d664",
      "v": 28,
      "creates": null,
      "raw": "0xf8740285746a528800825d68942910543af39aba0cd09dbb2d50200b3e800a63d2872386f26fc1000089454e30513259314e301ca0b579107a4714f7061eb27b5bbdba3ec0ab497f3523b885321ac48bb96c8e3512a07ca7b6be04ce4e296b631e50ffdd0c41265242ecd7bc52ab9aff166bc6a2d664",
      "networkId": 0,
      "chainId": 0
    },
    {
      "hash": "0xbdf7990ffb62c8ac53d3cca0671fdaa9e045382d20ff1453355bf35f08890be2",
      "blockHash": "0xa895cd51d185016d4d1ceca96995323a9842f5db5e41147882b57d292b39f258",
      "blockNumber": 48114,
      "transactionIndex": 2,
      "confirmations": null,
      "from": "0x949131F28943925Cfc97d41E0CeA0B262973a730",
      "gasPrice": {
        "_hex": "0xddf9ec04a"
      },
      "gasLimit": {
        "_hex": "0x61a8"
      },
      "to": "0x4Ca2bE31e663B55D31AE89189C50864ae7B5aC7d",
      "value": {
        "_hex": "0x97b6608061b8340000"
      },
      "nonce": 1,
      "data": "0x",
      "r": "0xb89d9b1cc0bba40aefa21072b51e2c901ea45d07604ddb32da4021d7562c34b5",
      "s": "0x04221e43dbbdffb07cc1079f30997183124224ecf6a8dd879d56beefb8d1a36c",
      "v": 28,
      "creates": null,
      "raw": "0xf86d01850ddf9ec04a8261a8944ca2be31e663b55d31ae89189c50864ae7b5ac7d8997b6608061b8340000801ca0b89d9b1cc0bba40aefa21072b51e2c901ea45d07604ddb32da4021d7562c34b5a004221e43dbbdffb07cc1079f30997183124224ecf6a8dd879d56beefb8d1a36c",
      "networkId": 0,
      "chainId": 0
    }
  ]
}