{
  "hash": "0x55867d40c329a5d7ba70ec2366d86e47a9a8919f741cc88d4d72f102f2b293a5",
  "parentHash": "0x48f4f3ad42c054c35325d6ccba0217626c01e7e491671adcc957dc1e7034fd23",
  "number": 74264,
  "timestamp": 1439383256,
  "nonce": "0x1a856cad7cbe0924",
  "difficulty": 2210771012715,
  "gasLimit": {
    "_hex": "0x2fefd8"
  },
  "gasUsed": {
    "_hex": "0x292a4"
  },
  "miner": "0xa8E7201ff619fAFFc332E6aD37Ed41e301bf014a",
  "extraData": "0x476574682f76312e302e312f77696e646f77732f676f312e342e32",
  "transactions": [
    {
      "hash": "0xd18baa648a62c18f67a458739d1d301202c11d6825ff663a6bc361c22200d4d4",
      "blockHash": "0x55867d40c329a5d7ba70ec2366d86e47a9a8919f741cc88d4d72f102f2b293a5",
      "blockNumber": 74264,
      "transactionIndex": 0,
      "confirmations": null,
      "from": "0x8Da1178F55d97772bB1D24111a404A4F8715B95D",
      "gasPrice": {
        "_hex": "0x110c8f7d8de"
      },
      "gasLimit": {
        "_hex": "0xc350"
      },
      "to": "0x2910543Af39abA0Cd09dBb2D50200b3E800A63D2",
      "value": {
        "_hex": "0x1b1ae4d6e2ef500000"
      },
      "nonce": 0,
      "data": "0x454e30444235425747",
      "r": "0x0ea2163ff7e5acd9062948e79531e79c1e3911d5475cc96fe3e2e13b39345551",
      "s": "0xedbba017a4e4ac7443c752c4f7d7a0d06287943c6c8d61457bbe8aa9adf4ecfe",
      "v": 27,
      "creates": null,
      "raw": "0xf87780860110c8f7d8de82c350942910543af39aba0cd09dbb2d50200b3e800a63d2891b1ae4d6e2ef50000089454e304442354257471ba00ea2163ff7e5acd9062948e79531e79c1e3911d5475cc96fe3e2e13b39345551a0edbba017a4e4ac7443c752c4f7d7a0d06287943c6c8d61457bbe8aa9adf4ecfe",
      "networkId": 0,
      "chainId": 0
    },
    {
      "hash": "0xebeb93960179f89096d751a06760ff1f6f94efd250cb90b2c58a2b6b65808abc",
      "blockHash": "0x55867d40c329a5d7ba70ec2366d86e47a9a8919f741cc88d4d72f102f2b293a5",
      "blockNumber": 74264,
      "transactionIndex": 1,
      "confirmations": null,
      "from": "0xe6A7a1d47ff21B6321162AEA7C6CB457D5476Bca",
      "gasPrice": {
        "_hex": "0xd5c69a265"
      },
      "gasLimit": {
        "_hex": "0x55f0"
      },
      "to": "0x4F68024B7CEB5ca92e7308BD08e523c632C0c739",
      "value": {
        "_hex": "0xb4fe07a48c2ad780"
      },
      "nonce": 894,
      "data": "0x",
      "r": "0x152e72c6e1ead769a12796c1b75d1f8e238fb717c0f7a00b2dac8753138fdfe8",
      "s": "0x3aa5d16684c949aaa9d1832814804ce9bc8829651359187cc6935a99fb29e968",
      "v": 28,
      "creates": null,
      "raw": "0xf86e82037e850d5c69a2658255f0944f68024b7ceb5ca92e7308bd08e523c632c0c73988b4fe07a48c2ad780801ca0152e72c6e1ead769a12796c1b75d1f8e238fb717c0f7a00b2dac8753138fdfe8a03aa5d16684c949aaa9d1832814804ce9bc8829651359187cc6935a99fb29e968",
      "networkId": 0,
      "chainId": 0
    },
    {
      "hash": "0x099519dffbd9663bc08fa49397733b638d2aff2708785baabe3d84e48605e338",
      "blockHash": "0x55867d40c329a5d7ba70ec2366d86e47a9a8919f741cc88d4d72f102f2b293a5",
      "blockNumber": 74264,
      "transactionIndex": 2,
      "confirmations": null,
      "from": "0xe6A7a1d47ff21B6321162AEA7C6CB457D5476Bca",
      "gasPrice": {
        "_hex": "0xd5c69a265"
      },
      "gasLimit": {
        "_hex": "0x55f0"
      },
      "to": "0x003a6CefcD4377033674d8A80ddBFb3596BD13DD",
      "value": {
        "_hex": "0xb50a79ca3c6b88d0"
      },
      "nonce": 895,
      "data": "0x",
      "r": "0xb8d564c26d95a2beab33b43b06d0dfc1f2c33a3e1c8af2ffd7cf24a97dc56f8a",
      "s": "0x673d12b6dcc2da8452ebc9d5c351ebd45ee957a05beeaeac2b3452ae44a2f369",
      "v": 28,
      "creates": null,
      "raw": "0xf86e82037f850d5c69a2658255f094003a6cefcd4377033674d8a80ddbfb3596bd13dd88b50a79ca3c6b88d0801ca0b8d564c26d95a2beab33b43b06d0dfc1f2c33a3e1c8af2ffd7cf24a97dc56f8aa0673d12b6dcc2da8452ebc9d5c351ebd45ee957a05beeaeac2b3452ae44a2f369",
      "networkId": 0,
      "chainId": 0
    },
    {
      "hash": "0xbfeffc006c00fed8e81d113b5dd6b897d86679d7c4629a4fd3fcd8e52058a822",
      "blockHash": "0x55867d40c329a5d7ba70ec2366d86e47a9a8919f741cc88d4d72f102f2b293a5",
      "blockNumber": 74264,
      "transactionIndex": 3,
      "confirmations": null,
      "from": "0xa114c802ef29776f05f9c6925cE915232e8ae102",
      "gasPrice": {
        "_hex": "0xd0d4564f6"
      },
      "gasLimit": {
        "_hex": "0x5208"
      },
      "to": "0x32Be343B94f860124dC4fEe278FDCBD38C102D88",
      "value": {
        "_hex": "0x490e22e005528000"
      },
      "nonce": 8,
      "data": "0x",
      "r": "0x12dccb0ccac49f2cf9ee6ac76791fa6f809771424b37f6a0c47ac50c6da250f4",
      "s": "0x58bd949349ec527bd29222cb0f15cfeaa32760e38bf6c2883d981df5baf2ca19",
      "v": 28,
      "creates": null,
      "raw": "0xf86c08850d0d4564f68252089432be343b94f860124dc4fee278fdcbd38c102d8888490e22e005528000801ca012dccb0ccac49f2cf9ee6ac76791fa6f809771424b37f6a0c47ac50c6da250f4a058bd949349ec527bd29222cb0f15cfeaa32760e38bf6c2883d981df5baf2ca19",
      "networkId": 0,
      "chainId": 0
    },
    {
      "hash": "0x106e8dd7deabe82b1596913d435a48525674194b5c3f3faeb45df215e63aef10",
      "blockHash": "0x55867d40c329a5d7ba70ec2366d86e47a9a8919f741cc88d4d72f102f2b293a5",
      "blockNumber": 74264,
      "transactionIndex": 4,
      "confirmations": null,
      "from": "0x0f7E5465DB8bC57940471E530a83Fb7Ac5b82d7f",
      "gasPrice": {
        "_hex": "0xd0d4564f6"
      },
      "gasLimit": {
        "_hex": "0x5208"
      },
      "to": "0x32Be343B94f860124dC4fEe278FDCBD38C102D88",
      "value": {
        "_hex": "0xf6f369a75061c00"
      },
      "nonce": 2,
      "data": "0x",
      "r": "0xeae661d804f2d203b90e2d1c1f5c3126d01638d3df06f5782af460506f34c4d4",
      "s": "0x7d446206435fde3ceb974d14bd37482d6e9bd5839c328478cb2ed635b0895e3c",
      "v": 27,
      "creates": null,
      "raw": "0xf86c02850d0d4564f68252089432be343b94f860124dc4fee278fdcbd38c102d88880f6f369a75061c00801ba0eae661d804f2d203b90e2d1c1f5c3126d01638d3df06f5782af460506f34c4d4a07d446206435fde3ceb974d14bd37482d6e9bd5839c328478cb2ed635b0895e3c",
      "networkId": 0,
      "chainId": 0
    },
    {
      "hash": "0x55aecdc4aa96839b22830a9d5441e495de38f662a75908054375be81694d99a4",
      "blockHash": "0x55867d40c329a5d7ba70ec2366d86e47a9a8919f741cc88d4d72f102f2b293a5",
      "blockNumber": 74264,
      "transactionIndex": 5,
      "confirmations": null,
      "from": "0xad74C8133300eB63De8d69A384B1E8CcFe28DED7",
      "gasPrice": {
        "_hex": "0xd0d4564f6"
      },
      "gasLimit": {
        "_hex": "0x5208"
      },
      "to": "0x32Be343B94f860124dC4fEe278FDCBD38C102D88",
      "value": {
        "_hex": "0x44e301633b422800"
      },
      "nonce": 1,
      "data": "0x",
      "r": "0xd65fe2931658ab2617c78a91c2544be8134ca4009d79a0723e8bef6f4a36c007",
      "s": "0x1c961136ab372239d38a8bd3acc4b410aba132ebd400936e852527a189d5f803",
      "v": 28,
      "creates": null,
      "raw": "0xf86c01850d0d4564f68252089432be343b94f860124dc4fee278fdcbd38c102d888844e301633b422800801ca0d65fe2931658ab2617c78a91c2544be8134ca4009d79a0723e8bef6f4a36c007a01c961136ab372239d38a8bd3acc4b410aba132ebd400936e852527a189d5f803",
      "networkId": 0,
      "chainId": 0
    },
    {
      "hash": "0x505a6bd01d21cef04829570b9c13e93ee325cbdd65cfb97bfc85ccc07e4b4083",
      "blockHash": "0x55867d40c329a5d7ba70ec2366d86e47a9a8919f741cc88d4d72f102f2b293a5",
      "blockNumber": 74264,
      "transactionIndex": 6,
      "confirmations": null,
      "from": "0x9FA0960220d2d51D54f755501E391Da140c2EF63",
      "gasPrice": {
        "_hex": "0xd0d4564f6"
      },
      "gasLimit": {
        "_hex": "0x5208"
      },
      "to": "0x32Be343B94f860124dC4fEe278FDCBD38C102D88",
      "value": {
        "_hex": "0x2c6e4699742c4400"
      },
      "nonce": 1,
      "data": "0x",
      "r": "0x24d30c0ceaa3b09061c2b62e87f3c6c9311aa4ae6fb6080d8246ffc1cd9693fc",
      "s": "0x42d826b52f11d9e89a3ffd9d43df849f8dca95b60c81e7ff05e0803ba778f4b1",
      "v": 28,
      "creates": null,
      "raw": "0xf86c01850d0d4564f68252089432be343b94f860124dc4fee278fdcbd38c102d88882c6e4699742c4400801ca024d30c0ceaa3b09061c2b62e87f3c6c9311aa4ae6fb6080d8246ffc1cd9693fca042d826b52f11d9e89a3ffd9d43df849f8dca95b60c81e7ff05e0803ba778f4b1",
      "networkId": 0,
      "chainId": 0
    },
    {
      "hash": "0x305a2378238ceb9feb533892bb7c5bb362a3d1bb1649f93407c13f8ab09c76fc",
      "blockHash": "0x55867d40c329a5d7ba70ec2366d86e47a9a8919f741cc88d4d72f102f2b293a5",
      "blockNumber": 74264,
      "transactionIndex": 7,
      "confirmations": null,
      "from": "0x60781265e9850f54AE0Bc9545948d05DeE6FC3e3",
      "gasPrice": {
        "_hex": "0xd0d4564f6"
      },
      "gasLimit": {
        "_hex": "0x5208"
      },
      "to": "0x32Be343B94f860124dC4fEe278FDCBD38C102D88",
      "value": {
        "_hex": "0x4ec79267d6648c00"
      },
      "nonce": 0,
      "data": "0x",
      "r": "0xbadeaab970e0f011f282fd2d3f9fa328792c3de48312d38e177b2bc94e46935b",
      "s": "0x2366a33cd2b11359d26811eaedaafd5db0999456531ac6d22e9db2d20d44e141",
      "v": 28,
      "creates": null,
      "raw": "0xf86c80850d0d4564f68252089432be343b94f860124dc4fee278fdcbd38c102d88884ec79267d6648c00801ca0badeaab970e0f011f282fd2d3f9fa328792c3de48312d38e177b2bc94e46935ba02366a33cd2b11359d26811eaedaafd5db0999456531ac6d22e9db2d20d44e141",
      "networkId": 0,
      "chainId": 0
    }
  ]
}