{
  "hash": "0x36c7f021b7307d158a8497ad2a756978eb07dd7f5b6a7da2e1e91ddcdcebeac5",
  "parentHash": "0x4088c6f31e843c67b25bff5b17a6bb6c79cfa757192b561557766096edbd1321",
  "number": 90261,
  "timestamp": 1439637219,
  "nonce": "0x70b8dd08fd3bb09b",
  "difficulty": 3301135172811,
  "gasLimit": {
    "_hex": "0x2fefd8"
  },
  "gasUsed": {
    "_hex": "0xa410"
  },
  "miner": "0x47ff6576639c2e94762eA5443978D7681C0E78DC",
  "extraData": "0x476574682f76312e302e312f6c696e75782f676f312e342e32",
  "transactions": [
    {
      "hash": "0xb6f0852785adc0fa07629e4c53fc41ccb520641c997a456bb7f1c53144a2e29d",
      "blockHash": "0x36c7f021b7307d158a8497ad2a756978eb07dd7f5b6a7da2e1e91ddcdcebeac5",
      "blockNumber": 90261,
      "transactionIndex": 0,
      "confirmations": null,
      "from": "0x7CdE613438e85F25D299265Ab4bB2b4015fe2BD1",
      "gasPrice": {
        "_hex": "0x746a528800"
      },
      "gasLimit": {
        "_hex": "0x5208"
      },
      "to": "0x0966686ed6164a792d67B3C62b43F46959073A58",
      "value": {
        "_hex": "0xb469471f80140000"
      },
      "nonce": 1,
      "data": "0x",
      "r": "0xcdaa7b93513a79cb29b6e956d276c60b64741322a8806bb6068df8c6f5055df1",
      "s": "0x2af7a31304683df70bcfa3c9162fe22a7657c71f0f399f5b2689579951d4b6f3",
      "v": 27,
      "creates": null,
      "raw": "0xf86c0185746a528800825208940966686ed6164a792d67b3c62b43f46959073a5888b469471f80140000801ba0cdaa7b93513a79cb29b6e956d276c60b64741322a8806bb6068df8c6f5055df1a02af7a31304683df70bcfa3c9162fe22a7657c71f0f399f5b2689579951d4b6f3",
      "networkId": 0,
      "chainId": 0
    },
    {
      "hash": "0xb717d79d6c8afe8c416456f1a9521b0b510b60d6e5bba916c9439013e7fdf6f7",
      "blockHash": "0x36c7f021b7307d158a8497ad2a756978eb07dd7f5b6a7da2e1e91ddcdcebeac5",
      "blockNumber": 90261,
      "transactionIndex": 1,
      "confirmations": null,
      "from": "0x01Ad0ACFf478127D9d702B1A13599D706cB759b1",
      "gasPrice": {
        "_hex": "0xd4bbcfbbc"
      },
      "gasLimit": {
        "_hex": "0x5208"
      },
      "to": "0x32Be343B94f860124dC4fEe278FDCBD38C102D88",
      "value": {
        "_hex": "0xd026679ea08b6800"
      },
      "nonce": 29,
      "data": "0x",
      "r": "0xf81c74fc0422334f5504377062e51000db093da5f56997a77340212c1ca794a3",
      "s": "0x35b86e045a1c1c2d49f50526678be5a25320d06851353a17beaa76f32c8ddfcc",
      "v": 28,
      "creates": null,
      "raw": "0xf86c1d850d4bbcfbbc8252089432be343b94f860124dc4fee278fdcbd38c102d8888d026679ea08b6800801ca0f81c74fc0422334f5504377062e51000db093da5f56997a77340212c1ca794a3a035b86e045a1c1c2d49f50526678be5a25320d06851353a17beaa76f32c8ddfcc",
      "networkId": 0,
      "chainId": 0
    }
  ]
}