{
  "hash": "0xe692fed23a3a1f046ea7c8879d4efb2e401ff684f3b74c1a96ebe4123ea34f60",
  "parentHash": "0x9d3ec082c19125fb41be903b7b9273dfa9a6dc811b536d2109cabe966c690c20",
  "number": 91665,
  "timestamp": 1439659524,
  "nonce": "0x3ba6ed5cee09099a",
  "difficulty": 3486110119067,
  "gasLimit": {
    "_hex": "0x2fefd8"
  },
  "gasUsed": {
    "_hex": "0x5208"
  },
  "miner": "0x58c444CC2658bB485F7985d5889b1d5857614F31",
  "extraData": "0x",
  "transactions": [
    {
      "hash": "0x2dd7b7fdabb987cdda278178099596b30fd76353fd2857bce9e4662c71176429",
      "blockHash": "0xe692fed23a3a1f046ea7c8879d4efb2e401ff684f3b74c1a96ebe4123ea34f60",
      "blockNumber": 91665,
      "transactionIndex": 0,
      "confirmations": null,
      "from": "0x2910543Af39abA0Cd09dBb2D50200b3E800A63D2",
      "gasPrice": {
        "_hex": "0xcf88e7223"
      },
      "gasLimit": {
        "_hex": "0x5208"
      },
      "to": "0x7c759BF56e96824347148A4775417f1d3Ab47A14",
      "value": {
        "_hex": "0x11c37937e08000"
      },
      "nonce": 812,
      "data": "0x",
      "r": "0xc30d495054f7779def7d7615b9b720fa7cb8923907a69164f805c7e0192fdd59",
      "s": "0x463a983e5ce15426d91c153d0db2a238433903e8b6326dfb140ee87f8a759f87",
      "v": 27,
      "creates": null,
      "raw": "0xf86d82032c850cf88e7223825208947c759bf56e96824347148a4775417f1d3ab47a148711c37937e08000801ba0c30d495054f7779def7d7615b9b720fa7cb8923907a69164f805c7e0192fdd59a0463a983e5ce15426d91c153d0db2a238433903e8b6326dfb140ee87f8a759f87",
      "networkId": 0,
      "chainId": 0
    }
  ]
}