{
  "hash": "0xf9f12f29bc0347683d7409fe02bf8072896ec06021038eb3b376bf91d7c77e95",
  "parentHash": "0x2c20c00de275a895c4732fcba694adcb7478e7e4a391a9a0c890a04fbe56253c",
  "number": 79156,
  "timestamp": 1439465511,
  "nonce": "0xf22a12fc4970b3c6",
  "difficulty": 2310999317204,
  "gasLimit": {
    "_hex": "0x2fefd8"
  },
  "gasUsed": {
    "_hex": "0x33450"
  },
  "miner": "0xe6A7a1d47ff21B6321162AEA7C6CB457D5476Bca",
  "extraData": "0x476574682f76312e302e312d38326566323666362f6c696e75782f676f312e34",
  "transactions": [
    {
      "hash": "0x697a9959496494824a79fc18d7d73d46bafed94c6e1a3ba8bcc935b3b477579c",
      "blockHash": "0xf9f12f29bc0347683d7409fe02bf8072896ec06021038eb3b376bf91d7c77e95",
      "blockNumber": 79156,
      "transactionIndex": 0,
      "confirmations": null,
      "from": "0xA4fbA5C740C8141d6c4469eD292bfCC8cCAc774F",
      "gasPrice": {
        "_hex": "0xd46426092"
      },
      "gasLimit": {
        "_hex": "0x5208"
      },
      "to": "0x32Be343B94f860124dC4fEe278FDCBD38C102D88",
      "value": {
        "_hex": "0x2019c09e5b43dc00"
      },
      "nonce": 0,
      "data": "0x",
      "r": "0x1bed4b37f52875596a249d81f606391dfa598c2c4f03a3dd84474d0b2f6e1c0e",
      "s": "0x2b3d7fc52616bdae8834d4be347c98f8003013ef4af73d0f7ae1a425ef000ce1",
      "v": 27,
      "creates": null,
      "raw": "0xf86c80850d464260928252089432be343b94f860124dc4fee278fdcbd38c102d88882019c09e5b43dc00801ba01bed4b37f52875596a249d81f606391dfa598c2c4f03a3dd84474d0b2f6e1c0ea02b3d7fc52616bdae8834d4be347c98f8003013ef4af73d0f7ae1a425ef000ce1",
      "networkId": 0,
      "chainId": 0
    },
    {
      "hash": "0x7e350fd3dc9be8d326fda3e1575e03d4b97e8dd6913ff1cc60aa0a676d0aa1d5",
      "blockHash": "0xf9f12f29bc0347683d7409fe02bf8072896ec06021038eb3b376bf91d7c77e95",
      "blockNumber": 79156,
      "transactionIndex": 1,
      "confirmations": null,
      "from": "0x9B7280891dc19fd3A2e754cB9007203820650403",
      "gasPrice": {
        "_hex": "0xd46426092"
      },
      "gasLimit": {
        "_hex": "0x5208"
      },
      "to": "0x32Be343B94f860124dC4fEe278FDCBD38C102D88",
      "value": {
        "_hex": "0x149a019e5e90ad000"
      },
      "nonce": 2,
      "data": "0x",
      "r": "0x9cdfaabf8a0c18367615105c8b183c64159abc802f59cfb59878b84ce423a22e",
      "s": "0x1843c3500cd403519b30d597a69ba9a2f4a1793645541ba8bcf9f870bb4508b4",
      "v": 28,
      "creates": null,
      "raw": "0xf86d02850d464260928252089432be343b94f860124dc4fee278fdcbd38c102d88890149a019e5e90ad000801ca09cdfaabf8a0c18367615105c8b183c64159abc802f59cfb59878b84ce423a22ea01843c3500cd403519b30d597a69ba9a2f4a1793645541ba8bcf9f870bb4508b4",
      "networkId": 0,
      "chainId": 0
    },
    {
      "hash": "0xf582554f49b3c85216097c9b8393860c6caedb6018dba8d2664529896e7fe125",
      "blockHash": "0xf9f12f29bc0347683d7409fe02bf8072896ec06021038eb3b376bf91d7c77e95",
      "blockNumber": 79156,
      "transactionIndex": 2,
      "confirmations": null,
      "from": "0xa6BDc31c431B8F97848c9D60cbbe9660dc450eB7",
      "gasPrice": {
        "_hex": "0xd46426092"
      },
      "gasLimit": {
        "_hex": "0x5208"
      },
      "to": "0x32Be343B94f860124dC4fEe278FDCBD38C102D88",
      "value": {
        "_hex": "0xc077d30f423d1000"
      },
      "nonce": 31,
      "data": "0x",
      "r": "0xe1d7f6bfaab6be33a50526206afcb469c971b17dd85638c6a226e75383723825",
      "s": "0x7e3455f7923610409dae4c7da274fab3b6abcbba1ec9dd89ee3cf2ef8d485d2e",
      "v": 27,
      "creates": null,
      "raw": "0xf86c1f850d464260928252089432be343b94f860124dc4fee278fdcbd38c102d8888c077d30f423d1000801ba0e1d7f6bfaab6be33a50526206afcb469c971b17dd85638c6a226e75383723825a07e3455f7923610409dae4c7da274fab3b6abcbba1ec9dd89ee3cf2ef8d485d2e",
      "networkId": 0,
      "chainId": 0
    },
    {
      "hash": "0x066e41ddaaa9dfd3a9eed1a7d6a9ac58a144fa2721511a0522d8553cba97bf11",
      "blockHash": "0xf9f12f29bc0347683d7409fe02bf8072896ec06021038eb3b376bf91d7c77e95",
      "blockNumber": 79156,
      "transactionIndex": 3,
      "confirmations": null,
      "from": "0x3D1d22d2A05a3E9b3792561f2FF5f8D879352d6c",
      "gasPrice": {
        "_hex": "0xd46426092"
      },
      "gasLimit": {
        "_hex": "0x5208"
      },
      "to": "0x32Be343B94f860124dC4fEe278FDCBD38C102D88",
      "value": {
        "_hex": "0x1f8cc90ac491c000"
      },
      "nonce": 0,
      "data": "0x",
      "r": "0x0f96b0db8b3be78a1321252c1e88014dc778180c4c4b9d5d143ca59823a7199b",
      "s": "0x63953f8d057e5d2724fba1d84d9f1d8edcefd9e3921869f16514c8e4c816b13d",
      "v": 27,
      "creates": null,
      "raw": "0xf86c80850d464260928252089432be343b94f860124dc4fee278fdcbd38c102d88881f8cc90ac491c000801ba00f96b0db8b3be78a1321252c1e88014dc778180c4c4b9d5d143ca59823a7199ba063953f8d057e5d2724fba1d84d9f1d8edcefd9e3921869f16514c8e4c816b13d",
      "networkId": 0,
      "chainId": 0
    },
    {
      "hash": "0x32c0d5dcb354a7fe4096bd74487b0c19c424ec40c416b85ea9c7af9c7bf1b1d2",
      "blockHash": "0xf9f12f29bc0347683d7409fe02bf8072896ec06021038eb3b376bf91d7c77e95",
      "blockNumber": 79156,
      "transactionIndex": 4,
      "confirmations": null,
      "from": "0x4369BF4867c99a39513Bb176d468A7e326F3a542",
      "gasPrice": {
        "_hex": "0xd46426092"
      },
      "gasLimit": {
        "_hex": "0x5208"
      },
      "to": "0x32Be343B94f860124dC4fEe278FDCBD38C102D88",
      "value": {
        "_hex": "0xc368814a0bd62000"
      },
      "nonce": 1,
      "data": "0x",
      "r": "0x22368248d4fc1ca6d105b337def509602031303b236d5c7ecdfbf52a58bf5808",
      "s": "0x0e4821e92f1d9972f1da568cd2a1dce04a2ff6923944a20f5e571145ca377de2",
      "v": 28,
      "creates": null,
      "raw": "0xf86c01850d464260928252089432be343b94f860124dc4fee278fdcbd38c102d8888c368814a0bd62000801ca022368248d4fc1ca6d105b337def509602031303b236d5c7ecdfbf52a58bf5808a00e4821e92f1d9972f1da568cd2a1dce04a2ff6923944a20f5e571145ca377de2",
      "networkId": 0,
      "chainId": 0
    },
    {
      "hash": "0x51d6e6f4e84e4b87333b7d07a0fd3f06c9772709345eb0c98f2e34c2de4d0135",
      "blockHash": "0xf9f12f29bc0347683d7409fe02bf8072896ec06021038eb3b376bf91d7c77e95",
      "blockNumber": 79156,
      "transactionIndex": 5,
      "confirmations": null,
      "from": "0x68d3578bFBeEFB9C1e31cE355A29ad3a107F88C5",
      "gasPrice": {
        "_hex": "0xd46426092"
      },
      "gasLimit": {
        "_hex": "0x5208"
      },
      "to": "0x32Be343B94f860124dC4fEe278FDCBD38C102D88",
      "value": {
        "_hex": "0x2ab4b0872ba1f800"
      },
      "nonce": 1,
      "data": "0x",
      "r": "0xc07db7d4bb4738c397125ec9bf95dbcb6af8aa4f870c65b30d5f2e995492ead6",
      "s": "0x4a0bb71aa3d1155cc9b0f621e561b91e6fc67f837d27cbe37550ea6c4a58dbe8",
      "v": 28,
      "creates": null,
      "raw": "0xf86c01850d464260928252089432be343b94f860124dc4fee278fdcbd38c102d88882ab4b0872ba1f800801ca0c07db7d4bb4738c397125ec9bf95dbcb6af8aa4f870c65b30d5f2e995492ead6a04a0bb71aa3d1155cc9b0f621e561b91e6fc67f837d27cbe37550ea6c4a58dbe8",
      "networkId": 0,
      "chainId": 0
    },
    {
      "hash": "0xaa74cadb2c88021604d7f9642095d359b364ce831c56e9fdfda91d58764113a9",
      "blockHash": "0xf9f12f29bc0347683d7409fe02bf8072896ec06021038eb3b376bf91d7c77e95",
      "blockNumber": 79156,
      "transactionIndex": 6,
      "confirmations": null,
      "from": "0x0912001e29BbaF75C23069A22D9B9602BE86FEB7",
      "gasPrice": {
        "_hex": "0xd46426092"
      },
      "gasLimit": {
        "_hex": "0x5208"
      },
      "to": "0x32Be343B94f860124dC4fEe278FDCBD38C102D88",
      "value": {
        "_hex": "0xbb0cb300760d30000"
      },
      "nonce": 1,
      "data": "0x",
      "r": "0x14b036af4d9c21eb7691551d276ede6167e1599d59c7bd5518fbad0dc4aabb4c",
      "s": "0x4baf4b4878d4f560e921c2afc5b49525a387bb51c63078bb95ce5a6db08560cb",
      "v": 28,
      "creates": null,
      "raw": "0xf86d01850d464260928252089432be343b94f860124dc4fee278fdcbd38c102d88890bb0cb300760d30000801ca014b036af4d9c21eb7691551d276ede6167e1599d59c7bd5518fbad0dc4aabb4ca04baf4b4878d4f560e921c2afc5b49525a387bb51c63078bb95ce5a6db08560cb",
      "networkId": 0,
      "chainId": 0
    },
    {
      "hash": "0xf1cb433c2ecb4e3b6ba41ad24a12137d3fff267b34ce84ce33a412b414ccff77",
      "blockHash": "0xf9f12f29bc0347683d7409fe02bf8072896ec06021038eb3b376bf91d7c77e95",
      "blockNumber": 79156,
      "transactionIndex": 7,
      "confirmations": null,
      "from": "0x842aC76913Df36aFcbdfE5fA4872759ed84210Bf",
      "gasPrice": {
        "_hex": "0xd46426092"
      },
      "gasLimit": {
        "_hex": "0x5208"
      },
      "to": "0x32Be343B94f860124dC4fEe278FDCBD38C102D88",
      "value": {
        "_hex": "0xc7491c9fea129000"
      },
      "nonce": 2,
      "data": "0x",
      "r": "0x03b64e64db937216070fad903575d5bc8e15391bf996f9eed7fecb5b5f4d6506",
      "s": "0x74ab31fe4ca3219a6511b34064720c635a2d82ff82df8587f2b777a7b8ffbf91",
      "v": 27,
      "creates": null,
      "raw": "0xf86c02850d464260928252089432be343b94f860124dc4fee278fdcbd38c102d8888c7491c9fea129000801ba003b64e64db937216070fad903575d5bc8e15391bf996f9eed7fecb5b5f4d6506a074ab31fe4ca3219a6511b34064720c635a2d82ff82df8587f2b777a7b8ffbf91",
      "networkId": 0,
      "chainId": 0
    },
    {
      "hash": "0x6cc3c1373051b5d7890a57d639b3103143286e7952f20261a232383a71c52f60",
      "blockHash": "0xf9f12f29bc0347683d7409fe02bf8072896ec06021038eb3b376bf91d7c77e95",
      "blockNumber": 79156,
      "transactionIndex": 8,
      "confirmations": null,
      "from": "0xb71F25995CC5De7A465fB37688126E07654Fa662",
      "gasPrice": {
        "_hex": "0xd46426092"
      },
      "gasLimit": {
        "_hex": "0x5208"
      },
      "to": "0x32Be343B94f860124dC4fEe278FDCBD38C102D88",
      "value": {
        "_hex": "0x2333547a711a1800"
      },
      "nonce": 2,
      "data": "0x",
      "r": "0xd50bdad899c1010dedca181fe06c06e45fa005f60fc0ab2300af5734bb8e4497",
      "s": "0x57091fb4972c3e31172b4e13530c0e0f073c24789c6724a88b337dfc27f34dab",
      "v": 28,
      "creates": null,
      "raw": "0xf86c02850d464260928252089432be343b94f860124dc4fee278fdcbd38c102d88882333547a711a1800801ca0d50bdad899c1010dedca181fe06c06e45fa005f60fc0ab2300af5734bb8e4497a057091fb4972c3e31172b4e13530c0e0f073c24789c6724a88b337dfc27f34dab",
      "networkId": 0,
      "chainId": 0
    },
    {
      "hash": "0x00ea009ce8be1fcc5e2e5b976dface0c906b22ffb532bdebb9cc571bd158d920",
      "blockHash": "0xf9f12f29bc0347683d7409fe02bf8072896ec06021038eb3b376bf91d7c77e95",
      "blockNumber": 79156,
      "transactionIndex": 9,
      "confirmations": null,
      "from": "0x0d62E666D681E8Be96903Ac4aBD3537f28c6125A",
      "gasPrice": {
        "_hex": "0xd46426092"
      },
      "gasLimit": {
        "_hex": "0x5208"
      },
      "to": "0x32Be343B94f860124dC4fEe278FDCBD38C102D88",
      "value": {
        "_hex": "0x8ebd07ca6e560000"
      },
      "nonce": 1,
      "data": "0x",
      "r": "0x502b10dada8f8a3b723585dafa5d0f95ad7eb9782042f66e6be968cb2e715e8f",
      "s": "0x5b780e7ec5a31589bb7f55b9888c32f0f9b175b90b73bafae23b5b7947b4990b",
      "v": 28,
      "creates": null,
      "raw": "0xf86c01850d464260928252089432be343b94f860124dc4fee278fdcbd38c102d88888ebd07ca6e560000801ca0502b10dada8f8a3b723585dafa5d0f95ad7eb9782042f66e6be968cb2e715e8fa05b780e7ec5a31589bb7f55b9888c32f0f9b175b90b73bafae23b5b7947b4990b",
      "networkId": 0,
      "chainId": 0
    }
  ]
}