{
  "hash": "0x359bfeea9896e9b614a89a1692087db63d8a046cc668472fbc7a1337f5616308",
  "parentHash": "0x8f0573cd9d3ecbbfef904553150562220574c7276a618e291bbb51b147aba12e",
  "number": 69998,
  "timestamp": 1439313222,
  "nonce": "0x6b80d7b09c70f7f9",
  "difficulty": 2108545366182,
  "gasLimit": {
    "_hex": "0x2fefd8"
  },
  "gasUsed": {
    "_hex": "0x5208"
  },
  "miner": "0xC5624D986419AeBa6B6A7Ce5BAFd9883f75d8bc8",
  "extraData": "0x",
  "transactions": [
    {
      "hash": "0x3c041550b4d7aacf698f49b861e902ccb08ffe820285f12dd3a81dbc3a334383",
      "blockHash": "0x359bfeea9896e9b614a89a1692087db63d8a046cc668472fbc7a1337f5616308",
      "blockNumber": 69998,
      "transactionIndex": 0,
      "confirmations": null,
      "from": "0x32Be343B94f860124dC4fEe278FDCBD38C102D88",
      "gasPrice": {
        "_hex": "0xcde17de7f"
      },
      "gasLimit": {
        "_hex": "0x5208"
      },
      "to": "0x120A270bbC009644e35F0bB6ab13f95b8199c4ad",
      "value": {
        "_hex": "0x14542ba12a337c00000"
      },
      "nonce": 240,
      "data": "0x",
      "r": "0x09213f9fe5779a188aed549580c2d3d4289c5a9d2a5d9cd795beae55c725a7da",
      "s": "0x633db7107059d4032fdf56cfb291d84db495302949da5e49573de83a31d0fc75",
      "v": 28,
      "creates": null,
      "raw": "0xf86f81f0850cde17de7f82520894120a270bbc009644e35f0bb6ab13f95b8199c4ad8a014542ba12a337c00000801ca009213f9fe5779a188aed549580c2d3d4289c5a9d2a5d9cd795beae55c725a7daa0633db7107059d4032fdf56cfb291d84db495302949da5e49573de83a31d0fc75",
      "networkId": 0,
      "chainId": 0
    }
  ]
}