{
  "hash": "0x626b60a7e3682d8758b906bcc3d29393daf519dd48a3d004ba24694dc51a52ad",
  "parentHash": "0xf4138d84bf244aef211d56d370a78d23ba204337d93aa79f75c6b8e30d5f581d",
  "number": 49055,
  "timestamp": 1438967071,
  "nonce": "0xc3cade7f99c38de1",
  "difficulty": 1486529340458,
  "gasLimit": {
    "_hex": "0x24bb2"
  },
  "gasUsed": {
    "_hex": "0x5208"
  },
  "miner": "0xeB1325C8D9d3ea8D74aC11F4B00F1B2367686319",
  "extraData": "0x476574682f76312e302e312f77696e646f77732f676f312e342e32",
  "transactions": [
    {
      "hash": "0x67f3cc534063b84ed22e46d3212b971998980fc12a7b7e797cae9f0ceda52ed7",
      "blockHash": "0x626b60a7e3682d8758b906bcc3d29393daf519dd48a3d004ba24694dc51a52ad",
      "blockNumber": 49055,
      "transactionIndex": 0,
      "confirmations": null,
      "from": "0xAae61E43CB0d0C96b30699F77E00D711d0a3979b",
      "gasPrice": {
        "_hex": "0xe07140f26"
      },
      "gasLimit": {
        "_hex": "0x15f90"
      },
      "to": "0x3B09D1F4B08ecc06d9C14ca7ab5CCcb86848E8F2",
      "value": {
        "_hex": "0xb1a2bc2ec50000"
      },
      "nonce": 2,
      "data": "0x",
      "r": "0x9cc277b778703cc719e5861a299e150a87be91d00154d3d88ddafa773a96fb3c",
      "s": "0x6c89e7dbe51e2c2cfdda58fa8b0b9af2aaedae8a0eb61fd8d55c0f308589cc37",
      "v": 28,
      "creates": null,
      "raw": "0xf86c02850e07140f2683015f90943b09d1f4b08ecc06d9c14ca7ab5cccb86848e8f287b1a2bc2ec50000801ca09cc277b778703cc719e5861a299e150a87be91d00154d3d88ddafa773a96fb3ca06c89e7dbe51e2c2cfdda58fa8b0b9af2aaedae8a0eb61fd8d55c0f308589cc37",
      "networkId": 0,
      "chainId": 0
    }
  ]
}