{
  "hash": "0x9d2d054e2efdf1407e5b06a1a91310cb71c8ddf53c5bf8e7543b732e2873e79e",
  "parentHash": "0x101beae0d40b3b025c6244d8fa0d6a106ea45cedc8b08191dfe5f6e62ba0fc3a",
  "number": 85249,
  "timestamp": 1439560614,
  "nonce": "0x5f1c0d25de3b1af3",
  "difficulty": 2754465020275,
  "gasLimit": {
    "_hex": "0x2fefd8"
  },
  "gasUsed": {
    "_hex": "0xa410"
  },
  "miner": "0x88D74a59454F6cF3B51ef6b9136AFb6b9D405A88",
  "extraData": "0x476574682f76312e302e312d37666266393930632f6c696e75782f676f312e34",
  "transactions": [
    {
      "hash": "0xdf91e3fe9fd8929022fee0cb81bfc686e85f04266da2603ec4c778ac6dd53340",
      "blockHash": "0x9d2d054e2efdf1407e5b06a1a91310cb71c8ddf53c5bf8e7543b732e2873e79e",
      "blockNumber": 85249,
      "transactionIndex": 0,
      "confirmations": null,
      "from": "0xACAB9A83F47D28Fdc1d12772A0B571f80444b5DD",
      "gasPrice": {
        "_hex": "0xdafdcc225"
      },
      "gasLimit": {
        "_hex": "0x7a120"
      },
      "to": "0x19939AD9F09d103B670c9EE56cA41d5764380f8A",
      "value": {
        "_hex": "0x141f6f514c510000"
      },
      "nonce": 1,
      "data": "0x",
      "r": "0x339be71c70842d35e0d8c3455a9cc561f0a54174d7f5746a28665003491419cd",
      "s": "0x05ba9f2d489359c871a6a2e308290dce510931a2b648fc4cc2b83605008a9452",
      "v": 27,
      "creates": null,
      "raw": "0xf86d01850dafdcc2258307a1209419939ad9f09d103b670c9ee56ca41d5764380f8a88141f6f514c510000801ba0339be71c70842d35e0d8c3455a9cc561f0a54174d7f5746a28665003491419cda005ba9f2d489359c871a6a2e308290dce510931a2b648fc4cc2b83605008a9452",
      "networkId": 0,
      "chainId": 0
    },
    {
      "hash": "0x786e16c1e9ebbba964d5bf33df72d4e127797eb6493183ff63417e4cb5685245",
      "blockHash": "0x9d2d054e2efdf1407e5b06a1a91310cb71c8ddf53c5bf8e7543b732e2873e79e",
      "blockNumber": 85249,
      "transactionIndex": 1,
      "confirmations": null,
      "from": "0x3986E353371e6d6Ecb5F5F81CD35b9e56f207aa3",
      "gasPrice": {
        "_hex": "0xd83eedb59"
      },
      "gasLimit": {
        "_hex": "0x15f90"
      },
      "to": "0xCDA330c8160f0c90B8B528C6Db267acc17381818",
      "value": {
        "_hex": "0x1b0f91d335b698000"
      },
      "nonce": 0,
      "data": "0x",
      "r": "0x7bc1f0e04b164018234b64cff4c2d89840d8edf60ef2fdc495370619780721f9",
      "s": "0x684c0a42c56b1f93df56a818fa691d832edbf8f4cb4c5a7268cb50ea10b120ed",
      "v": 28,
      "creates": null,
      "raw": "0xf86e80850d83eedb5983015f9094cda330c8160f0c90b8b528c6db267acc173818188901b0f91d335b698000801ca07bc1f0e04b164018234b64cff4c2d89840d8edf60ef2fdc495370619780721f9a0684c0a42c56b1f93df56a818fa691d832edbf8f4cb4c5a7268cb50ea10b120ed",
      "networkId": 0,
      "chainId": 0
    }
  ]
}