{
  "hash": "0xd0ea4749ffcc3dc1221cce7a90f6be839f50cba04b2a844932fe820dd4362df3",
  "parentHash": "0x8f54cf92f111370cf30cb50a440d4375994a7ee6e26cee86de61b02b48946827",
  "number": 64968,
  "timestamp": 1439229216,
  "nonce": "0x9ad959003597b4b3",
  "difficulty": 1911646881805,
  "gasLimit": {
    "_hex": "0x2fefd8"
  },
  "gasUsed": {
    "_hex": "0x5208"
  },
  "miner": "0x9746c7e1ef2bd21FF3997fa467593a89cb852BD0",
  "extraData": "0x476574682f76312e302e312f77696e646f77732f676f312e342e32",
  "transactions": [
    {
      "hash": "0xc31cd4fb8f5645de84c0248bdb2b6287febd20410d82abe2d593e6678fe4fb32",
      "blockHash": "0xd0ea4749ffcc3dc1221cce7a90f6be839f50cba04b2a844932fe820dd4362df3",
      "blockNumber": 64968,
      "transactionIndex": 0,
      "confirmations": null,
      "from": "0x105D15475A1a83ee69CC0Df3671112145f4EbDe0",
      "gasPrice": {
        "_hex": "0xe0d21bf6b"
      },
      "gasLimit": {
        "_hex": "0x5208"
      },
      "to": "0x32Be343B94f860124dC4fEe278FDCBD38C102D88",
      "value": {
        "_hex": "0xbabccfd2b8b2b0000"
      },
      "nonce": 0,
      "data": "0x",
      "r": "0x2188156483f6cc660ee23c777c4f05f5a2279fb04e522a0d1d0a05b9914099a9",
      "s": "0x1dfd7a5fca8858124c134a8a33ea057a977b61c77c2f9a2883df3b3de7863442",
      "v": 28,
      "creates": null,
      "raw": "0xf86d80850e0d21bf6b8252089432be343b94f860124dc4fee278fdcbd38c102d88890babccfd2b8b2b0000801ca02188156483f6cc660ee23c777c4f05f5a2279fb04e522a0d1d0a05b9914099a9a01dfd7a5fca8858124c134a8a33ea057a977b61c77c2f9a2883df3b3de7863442",
      "networkId": 0,
      "chainId": 0
    }
  ]
}