{
  "hash": "0x0ae2902f97fe6afa32568cbad8c6813a86cb23d826d6d052af9ba3edc2216661",
  "parentHash": "0xcd5fa8b1995ee05a92c02c0c1e88e8c8ac1e9a17ce4c0125c42bfac398d96960",
  "number": 66627,
  "timestamp": 1439257723,
  "nonce": "0xe3923e2043e1806c",
  "difficulty": 1942315128161,
  "gasLimit": {
    "_hex": "0x2fefd8"
  },
  "gasUsed": {
    "_hex": "0x5208"
  },
  "miner": "0x0eDEd3DA479d0beF8eeC92A76644D3f4E3C177f7",
  "extraData": "0x476574682f76312e302e312f6c696e75782f676f312e342e32",
  "transactions": [
    {
      "hash": "0x7a43694eabf6eb9e02bc57bfd3f6f37b2fcee65d95f0404f045c9fdeafd5a47d",
      "blockHash": "0x0ae2902f97fe6afa32568cbad8c6813a86cb23d826d6d052af9ba3edc2216661",
      "blockNumber": 66627,
      "transactionIndex": 0,
      "confirmations": null,
      "from": "0x120A270bbC009644e35F0bB6ab13f95b8199c4ad",
      "gasPrice": {
        "_hex": "0xde976b03d"
      },
      "gasLimit": {
        "_hex": "0x15f90"
      },
      "to": "0x460A406302387043b881288Db9327E3ADC67347b",
      "value": {
        "_hex": "0x2b5e3af16b1880000"
      },
      "nonce": 147,
      "data": "0x",
      "r": "0x3283e7a03b5b1e841340c75e4233ed321f678625af5b9118c1ab8c78a59ae2d1",
      "s": "0x3079325ec9fd4e2976a549107efa578daab0c402f843dc31b20db9944ee0ef60",
      "v": 27,
      "creates": null,
      "raw": "0xf86f8193850de976b03d83015f9094460a406302387043b881288db9327e3adc67347b8902b5e3af16b1880000801ba03283e7a03b5b1e841340c75e4233ed321f678625af5b9118c1ab8c78a59ae2d1a03079325ec9fd4e2976a549107efa578daab0c402f843dc31b20db9944ee0ef60",
      "networkId": 0,
      "chainId": 0
    }
  ]
}