{
  "hash": "0xbee467729b370ad99854333937b51f3b6270855ea10ffbae25e1ae2c433ccab7",
  "parentHash": "0xf49c007d175b7c622d9e91c77d1ee8d3f7545cde455522d093b6aee47b6737ee",
  "number": 106945,
  "timestamp": 1439913262,
  "nonce": "0xd1f59c7880c61561",
  "difficulty": 4455036925565,
  "gasLimit": {
    "_hex": "0x2fefd8"
  },
  "gasUsed": {
    "_hex": "0x5208"
  },
  "miner": "0x79d5794171E11dd5C2f0e26E1C187319db2FE6f7",
  "extraData": "0x",
  "transactions": [
    {
      "hash": "0x0b3de0ff9c4e573bfb43da287bb3a1763dfa8f7a8467a82b54e74fb15326aaa2",
      "blockHash": "0xbee467729b370ad99854333937b51f3b6270855ea10ffbae25e1ae2c433ccab7",
      "blockNumber": 106945,
      "transactionIndex": 0,
      "confirmations": null,
      "from": "0xFBb1b73C4f0BDa4f67dcA266ce6Ef42f520fBB98",
      "gasPrice": {
        "_hex": "0xd813dd24b"
      },
      "gasLimit": {
        "_hex": "0x5208"
      },
      "to": "0xc66D2B41e79F4C3B69E437C7163326E52D980CCC",
      "value": {
        "_hex": "0xdbd2fc137a30000"
      },
      "nonce": 116,
      "data": "0x",
      "r": "0x2fc924493de030eeeeb7d353c8f356cf479daf253b2956789633816ed21cc6f5",
      "s": "0x5203a4748ca954d8c38c5e02b5e7e1a032fe6e6e97fa6360dc384f7a4a56fb8d",
      "v": 28,
      "creates": null,
      "raw": "0xf86c74850d813dd24b82520894c66d2b41e79f4c3b69e437c7163326e52d980ccc880dbd2fc137a30000801ca02fc924493de030eeeeb7d353c8f356cf479daf253b2956789633816ed21cc6f5a05203a4748ca954d8c38c5e02b5e7e1a032fe6e6e97fa6360dc384f7a4a56fb8d",
      "networkId": 0,
      "chainId": 0
    }
  ]
}