{
  "hash": "0x7597d2788110531eb5b8d56e296d1110126e9757449b1f90576ce5b54198e8d5",
  "parentHash": "0x0041798d8a45f46ce8f7f4f6dda8be639c7b5d787b865a0aeeeab7173d491631",
  "number": 109046,
  "timestamp": 1439950192,
  "nonce": "0xc52229f5f9cb9f2f",
  "difficulty": 4417103253825,
  "gasLimit": {
    "_hex": "0x2fefd8"
  },
  "gasUsed": {
    "_hex": "0x5208"
  },
  "miner": "0xe6A7a1d47ff21B6321162AEA7C6CB457D5476Bca",
  "extraData": "0x476574682f76312e302e312d38326566323666362f6c696e75782f676f312e34",
  "transactions": [
    {
      "hash": "0xf6f8c972afaff121aeef4738441c0dd1016c476e2a6257072e946ab01cfa050f",
      "blockHash": "0x7597d2788110531eb5b8d56e296d1110126e9757449b1f90576ce5b54198e8d5",
      "blockNumber": 109046,
      "transactionIndex": 0,
      "confirmations": null,
      "from": "0x32Be343B94f860124dC4fEe278FDCBD38C102D88",
      "gasPrice": {
        "_hex": "0xd58752f82"
      },
      "gasLimit": {
        "_hex": "0x5208"
      },
      "to": "0x910560734C1155e546d762CB1C5e1669E798AEb4",
      "value": {
        "_hex": "0x1f44a5652994fb000"
      },
      "nonce": 1266,
      "data": "0x",
      "r": "0xa38a39c32d217dc0f5a6dafdf507dc90649c0ac7b0422ca1d16a7e5653a4cdcc",
      "s": "0x566434a57dcc748e82872b9dc66d71af18339ee91b99b79a3bcf21de76515e14",
      "v": 27,
      "creates": null,
      "raw": "0xf86f8204f2850d58752f8282520894910560734c1155e546d762cb1c5e1669e798aeb48901f44a5652994fb000801ba0a38a39c32d217dc0f5a6dafdf507dc90649c0ac7b0422ca1d16a7e5653a4cdcca0566434a57dcc748e82872b9dc66d71af18339ee91b99b79a3bcf21de76515e14",
      "networkId": 0,
      "chainId": 0
    }
  ]
}