{
  "hash": "0xcd2ae3be86da0ba344658a817799d078f21348194ae708415bd4354cfb1e8abe",
  "parentHash": "0xa45a06a3715ae32653dc2b0ddaeadbd28dec29892676dacb11c45f8bb357d587",
  "number": 94329,
  "timestamp": 1439706414,
  "nonce": "0x1f78284563fbe900",
  "difficulty": 3481601535873,
  "gasLimit": {
    "_hex": "0x2fefd8"
  },
  "gasUsed": {
    "_hex": "0x5208"
  },
  "miner": "0xf8E0CA3Ed80bd541b94BEdCf259e8CF2141A9523",
  "extraData": "0x476574682f76312e302e312f77696e646f77732f676f312e342e32",
  "transactions": [
    {
      "hash": "0x578ae8c9fa7dba62cc738fc320f195337b81e64c1633d7c58713a3bc7fd8812c",
      "blockHash": "0xcd2ae3be86da0ba344658a817799d078f21348194ae708415bd4354cfb1e8abe",
      "blockNumber": 94329,
      "transactionIndex": 0,
      "confirmations": null,
      "from": "0x120A270bbC009644e35F0bB6ab13f95b8199c4ad",
      "gasPrice": {
        "_hex": "0xdd85e29d6"
      },
      "gasLimit": {
        "_hex": "0x3d090"
      },
      "to": "0xd729FB3C410640105645fea812F5d50F1b808f4C",
      "value": {
        "_hex": "0x3635c9adc5dea00000"
      },
      "nonce": 579,
      "data": "0x",
      "r": "0xf8842ed020507297e6111845fe006772f22f94081f4e2fc53503c5a04a97bded",
      "s": "0x0c1b884ad980e1160fe7ac8dec6775435abe4b23da567b125bc4135546fb4ed6",
      "v": 27,
      "creates": null,
      "raw": "0xf870820243850dd85e29d68303d09094d729fb3c410640105645fea812f5d50f1b808f4c893635c9adc5dea00000801ba0f8842ed020507297e6111845fe006772f22f94081f4e2fc53503c5a04a97bdeda00c1b884ad980e1160fe7ac8dec6775435abe4b23da567b125bc4135546fb4ed6",
      "networkId": 0,
      "chainId": 0
    }
  ]
}