{
  "hash": "0x7d75b0d83328d4050a289de82622624a2f6780b7b0a4a392c15403244f8b6ce8",
  "parentHash": "0x2056e2146b82df383593952db6c723325497bf0309971bad92c7a6322d9fc8ce",
  "number": 73396,
  "timestamp": 1439368758,
  "nonce": "0x94ae379e6b3a1530",
  "difficulty": 2193793642997,
  "gasLimit": {
    "_hex": "0x2fefd8"
  },
  "gasUsed": {
    "_hex": "0x5208"
  },
  "miner": "0x6dED38803DA575897de5d51b7AEF3b86f35945A1",
  "extraData": "0x476574682f76312e302e312f6c696e75782f676f312e342e32",
  "transactions": [
    {
      "hash": "0xcd90f6d77573bd9520fca3d9a46b3f4ec174d28ce02d1317c3b28d66717fd246",
      "blockHash": "0x7d75b0d83328d4050a289de82622624a2f6780b7b0a4a392c15403244f8b6ce8",
      "blockNumber": 73396,
      "transactionIndex": 0,
      "confirmations": null,
      "from": "0x120A270bbC009644e35F0bB6ab13f95b8199c4ad",
      "gasPrice": {
        "_hex": "0xd696d02a3"
      },
      "gasLimit": {
        "_hex": "0x15f90"
      },
      "to": "0xCbcF20C040052cF5038dA44BB5F0Da8FA62bdAa2",
      "value": {
        "_hex": "0x4670ef4c0f4ff400"
      },
      "nonce": 257,
      "data": "0x",
      "r": "0x45143bdef2859f51e4703f1d2e26f6d40f8349da874202bfdd878aac5c43697d",
      "s": "0x41120e1de3c04dfc749966282238969e62abe0d4dd6e6bd950d5a2b483367d5b",
      "v": 27,
      "creates": null,
      "raw": "0xf86f820101850d696d02a383015f9094cbcf20c040052cf5038da44bb5f0da8fa62bdaa2884670ef4c0f4ff400801ba045143bdef2859f51e4703f1d2e26f6d40f8349da874202bfdd878aac5c43697da041120e1de3c04dfc749966282238969e62abe0d4dd6e6bd950d5a2b483367d5b",
      "networkId": 0,
      "chainId": 0
    }
  ]
}