{
  "hash": "0x9147c61878c991a741f9c975aa681f436cb879fe429139a61210e421d1dbc616",
  "parentHash": "0x3e40a31a080c19f1726c82b67a28899591b6340a83c394f198fe46c567f17d43",
  "number": 73866,
  "timestamp": 1439376349,
  "nonce": "0x99c9e3bbc5433bab",
  "difficulty": 2226041091692,
  "gasLimit": {
    "_hex": "0x2fefd8"
  },
  "gasUsed": {
    "_hex": "0x5208"
  },
  "miner": "0xdB312D1d6A2Ccc64DD94a3892928baC82B4E8C15",
  "extraData": "0x476574682f76312e302e312d65383935333663612f6c696e75782f676f312e34",
  "transactions": [
    {
      "hash": "0x95697fa12810b36743807481bd7f39a864d78f8b4aafdc33435133517e8db92c",
      "blockHash": "0x9147c61878c991a741f9c975aa681f436cb879fe429139a61210e421d1dbc616",
      "blockNumber": 73866,
      "transactionIndex": 0,
      "confirmations": null,
      "from": "0xF2d2AfF1320476cb8C6b607199D23175cc595693",
      "gasPrice": {
        "_hex": "0xd45c2c381"
      },
      "gasLimit": {
        "_hex": "0x15f90"
      },
      "to": "0xF5EeDc192aB70b08D8354384aD94efD095849E00",
      "value": {
        "_hex": "0xbdf3c4bb0328c0000"
      },
      "nonce": 21,
      "data": "0x",
      "r": "0x100a0445da81cfb91d65fa193d38515440e82b468f8ed470ee1d2c1d9236dd09",
      "s": "0x6e63f86e9a5228a2b23cc95783ede2ee0a0eb80cefe519960ea18b26f78d316d",
      "v": 28,
      "creates": null,
      "raw": "0xf86e15850d45c2c38183015f9094f5eedc192ab70b08d8354384ad94efd095849e00890bdf3c4bb0328c0000801ca0100a0445da81cfb91d65fa193d38515440e82b468f8ed470ee1d2c1d9236dd09a06e63f86e9a5228a2b23cc95783ede2ee0a0eb80cefe519960ea18b26f78d316d",
      "networkId": 0,
      "chainId": 0
    }
  ]
}