{
  "hash": "0xab36715b97663111dc7e7e5a5c07ff22d71184a853feac7599a95cf0b62797a7",
  "parentHash": "0x5e51d5a89ec7da8a0069f1974f2d50d4b17d19c73e1fb500829e962cc71931ca",
  "number": 80034,
  "timestamp": 1439479083,
  "nonce": "0x34ae3820a33bbcf0",
  "difficulty": 2354033074388,
  "gasLimit": {
    "_hex": "0x2fefd8"
  },
  "gasUsed": {
    "_hex": "0x206b5"
  },
  "miner": "0xFB343C76F676E893E8eA379b6Ce9eF32c26834bB",
  "extraData": "0x",
  "transactions": [
    {
      "hash": "0xe0105aa50388866e8e8a3e6808a58b91a44c8c4ac576ecd01b0cd8f67e421e2b",
      "blockHash": "0xab36715b97663111dc7e7e5a5c07ff22d71184a853feac7599a95cf0b62797a7",
      "blockNumber": 80034,
      "transactionIndex": 0,
      "confirmations": null,
      "from": "0x87C5B5874A18B4306DF8a752a6C8cc3E82daFc19",
      "gasPrice": {
        "_hex": "0x111023d4eaa"
      },
      "gasLimit": {
        "_hex": "0x493e0"
      },
      "to": "0xC4c51de1AbF5D60DBd329eC0F999Fd8f021ae9fC",
      "value": {
        "_hex": "0xa09d6572b5093723"
      },
      "nonce": 121,
      "data": "0x8d21618600000000000000000000000000000000000000000000000000000000000000408d5adaad541502933bfca57b79fdcf7b21a9ea7dbcf2e9321d253f5db02ac8f3",
      "r": "0xe979e603c786aa8c58dcc1a87af7ae868dc9e3f99e72fd4808b0fb1b5c184d46",
      "s": "0x38b80968235cd2856674f0c4779597bac31ffd40ff283810d9f7563d3a061f3e",
      "v": 27,
      "creates": null,
      "raw": "0xf8b379860111023d4eaa830493e094c4c51de1abf5d60dbd329ec0f999fd8f021ae9fc88a09d6572b5093723b8448d21618600000000000000000000000000000000000000000000000000000000000000408d5adaad541502933bfca57b79fdcf7b21a9ea7dbcf2e9321d253f5db02ac8f31ba0e979e603c786aa8c58dcc1a87af7ae868dc9e3f99e72fd4808b0fb1b5c184d46a038b80968235cd2856674f0c4779597bac31ffd40ff283810d9f7563d3a061f3e",
      "networkId": 0,
      "chainId": 0
    },
    {
      "hash": "0x243f9a22d3ba7e4a3985c832ddc4889d83493b95fed9a7972ac59c5bfc285a93",
      "blockHash": "0xab36715b97663111dc7e7e5a5c07ff22d71184a853feac7599a95cf0b62797a7",
      "blockNumber": 80034,
      "transactionIndex": 1,
      "confirmations": null,
      "from": "0x2910543Af39abA0Cd09dBb2D50200b3E800A63D2",
      "gasPrice": {
        "_hex": "0xd61488ab4"
      },
      "gasLimit": {
        "_hex": "0x5208"
      },
      "to": "0x98781996FF0F2C5dE96Bb45755683BB5a09A5727",
      "value": {
        "_hex": "0x60196e97ba1678000"
      },
      "nonce": 382,
      "data": "0x",
      "r": "0x4173fe19c5f7578a6bb6aa92135e5ff7e6f4b41314d4ce2d0941a274c4a5082d",
      "s": "0x280b16d0f3ba9c8a3e25935fc02b2a60611befe644f330fa776d53b49db1f4f7",
      "v": 27,
      "creates": null,
      "raw": "0xf86f82017e850d61488ab48252089498781996ff0f2c5de96bb45755683bb5a09a572789060196e97ba1678000801ba04173fe19c5f7578a6bb6aa92135e5ff7e6f4b41314d4ce2d0941a274c4a5082da0280b16d0f3ba9c8a3e25935fc02b2a60611befe644f330fa776d53b49db1f4f7",
      "networkId": 0,
      "chainId": 0
    }
  ]
}