{
  "hash": "0x2b818fd17235e13872070f3c6bf4654ebb4893fbe2025b2b83d09d72de32c21b",
  "parentHash": "0x44e05debae1c8a18e6319413f36e6b0f841678b2f0cb2d008ad3d40ef87e4958",
  "number": 62164,
  "timestamp": 1439184227,
  "nonce": "0xf7bba19147cfd105",
  "difficulty": 1770303377512,
  "gasLimit": {
    "_hex": "0x2fefd8"
  },
  "gasUsed": {
    "_hex": "0x5208"
  },
  "miner": "0xBf034FB91a14C1FdC209f70e194C5704a6D844eB",
  "extraData": "0x",
  "transactions": [
    {
      "hash": "0xa6980d141e743cd6b249c83b6749ad31a139fb811506a4bf3307de6c73446c8c",
      "blockHash": "0x2b818fd17235e13872070f3c6bf4654ebb4893fbe2025b2b83d09d72de32c21b",
      "blockNumber": 62164,
      "transactionIndex": 0,
      "confirmations": null,
      "from": "0x3a35269a1cF41344F2288e9D11bA854991112015",
      "gasPrice": {
        "_hex": "0xd1f217cbf"
      },
      "gasLimit": {
        "_hex": "0x15f90"
      },
      "to": "0x86d3856ad0105B9d4199936c1fd203664BA325dC",
      "value": {
        "_hex": "0x4563918244f40000"
      },
      "nonce": 6,
      "data": "0x",
      "r": "0x53aed832758c7af58e4d2ac9b3db7595248fc3f53df1198f5bf85db4691251e7",
      "s": "0x01f8cd73bd54c9a54667e07b8621e9cb987239977f64af20cf98d174cadaba31",
      "v": 27,
      "creates": null,
      "raw": "0xf86d06850d1f217cbf83015f909486d3856ad0105b9d4199936c1fd203664ba325dc884563918244f40000801ba053aed832758c7af58e4d2ac9b3db7595248fc3f53df1198f5bf85db4691251e7a001f8cd73bd54c9a54667e07b8621e9cb987239977f64af20cf98d174cadaba31",
      "networkId": 0,
      "chainId": 0
    }
  ]
}