{
  "hash": "0x5263b1cef3b091b1d96259aa794fbf104f555df274a68eaa5b51110d673214fe",
  "parentHash": "0xa8045f6acc11c1a30e7e02465f2b72602087ffcfa55ba5cab4ca00915d5847e0",
  "number": 107919,
  "timestamp": 1439930869,
  "nonce": "0x4ee38e51a3731da0",
  "difficulty": 4389743516682,
  "gasLimit": {
    "_hex": "0x2fefd8"
  },
  "gasUsed": {
    "_hex": "0x5208"
  },
  "miner": "0x9Fa9952255B2b06639A04D63804d4BdFFf6E2d7e",
  "extraData": "0x476574682f76312e302e312f77696e646f77732f676f312e342e32",
  "transactions": [
    {
      "hash": "0xdc413a8bde105f8c8ac11523b7161206d73756d4b81d42dc80bd98fe6c74eb32",
      "blockHash": "0x5263b1cef3b091b1d96259aa794fbf104f555df274a68eaa5b51110d673214fe",
      "blockNumber": 107919,
      "transactionIndex": 0,
      "confirmations": null,
      "from": "0xf2cC0eEAAAeD313542CB262B0B8c3972425143f0",
      "gasPrice": {
        "_hex": "0xd09c5b41a"
      },
      "gasLimit": {
        "_hex": "0x5208"
      },
      "to": "0x32Be343B94f860124dC4fEe278FDCBD38C102D88",
      "value": {
        "_hex": "0x8a9f6e8840093000"
      },
      "nonce": 19,
      "data": "0x",
      "r": "0xef171ee0caa96bd92881ec09d360296f103252fc9f6be6217c7be11e89a7e8f5",
      "s": "0x03d2a5a84fdae5b99fa7c1ad89266e5daa70ddc65a8c31154e5703c4a6bcbfa8",
      "v": 27,
      "creates": null,
      "raw": "0xf86c13850d09c5b41a8252089432be343b94f860124dc4fee278fdcbd38c102d88888a9f6e8840093000801ba0ef171ee0caa96bd92881ec09d360296f103252fc9f6be6217c7be11e89a7e8f5a003d2a5a84fdae5b99fa7c1ad89266e5daa70ddc65a8c31154e5703c4a6bcbfa8",
      "networkId": 0,
      "chainId": 0
    }
  ]
}