{
  "hash": "0x67515cc677740c233b636526e85d593ac9bd5a80c4c1ebba21edea5a497a1c7d",
  "parentHash": "0x0e6a2490ed08f9607dad735021a07a23d4ad2aa303007afd33c6c245c446e40c",
  "number": 112328,
  "timestamp": 1440005811,
  "nonce": "0x15aa13ab8e97c18b",
  "difficulty": 4389579727296,
  "gasLimit": {
    "_hex": "0x2fefd8"
  },
  "gasUsed": {
    "_hex": "0xf618"
  },
  "miner": "0x4CF67c265Bb0E51CF92A0b3E37becCFd721a1506",
  "extraData": "0x476574682f76312e302e312d38326566323666362f6c696e75782f676f312e34",
  "transactions": [
    {
      "hash": "0xa0fefea8ccb8a2f4d933af5b0b87c721b211d5a1b8bc0bc89714040a3f10a469",
      "blockHash": "0x67515cc677740c233b636526e85d593ac9bd5a80c4c1ebba21edea5a497a1c7d",
      "blockNumber": 112328,
      "transactionIndex": 0,
      "confirmations": null,
      "from": "0xAF654b2845616930f74573a909B477E23752DcA4",
      "gasPrice": {
        "_hex": "0x746a528800"
      },
      "gasLimit": {
        "_hex": "0x5208"
      },
      "to": "0xE3a44b84A68C84F674E1e8c17445742DE48D9501",
      "value": {
        "_hex": "0x7ce66c50e2840000"
      },
      "nonce": 19,
      "data": "0x",
      "r": "0xb370b2e98fa786129437767b14d7d2f8ff162dfa6ea01f9441efa7e94384930e",
      "s": "0x68a61b7bcf97dac16689cb332909da9199efc39c7b1dd5a1f20179432b090f69",
      "v": 28,
      "creates": null,
      "raw": "0xf86c1385746a52880082520894e3a44b84a68c84f674e1e8c17445742de48d9501887ce66c50e2840000801ca0b370b2e98fa786129437767b14d7d2f8ff162dfa6ea01f9441efa7e94384930ea068a61b7bcf97dac16689cb332909da9199efc39c7b1dd5a1f20179432b090f69",
      "networkId": 0,
      "chainId": 0
    },
    {
      "hash": "0x58490021ccfd5b3d0a533f8415af0b753ae8c959606b532820694869e9a902f0",
      "blockHash": "0x67515cc677740c233b636526e85d593ac9bd5a80c4c1ebba21edea5a497a1c7d",
      "blockNumber": 112328,
      "transactionIndex": 1,
      "confirmations": null,
      "from": "0xa70a9a7040d542C632D8e0bE7c5513A8a5Bbc752",
      "gasPrice": {
        "_hex": "0xcc2a19411"
      },
      "gasLimit": {
        "_hex": "0x5208"
      },
      "to": "0x32Be343B94f860124dC4fEe278FDCBD38C102D88",
      "value": {
        "_hex": "0x471eeb4c8c69f800"
      },
      "nonce": 294,
      "data": "0x",
      "r": "0x322018088ff3280cb047ba76b8c002d5af4ae2f14187c828a7282eeb5f8f7361",
      "s": "0x41bcaaf6cc660fd882f08a9ff0d57109b5619f1c71ebf41570f6b675dbfb2325",
      "v": 27,
      "creates": null,
      "raw": "0xf86e820126850cc2a194118252089432be343b94f860124dc4fee278fdcbd38c102d8888471eeb4c8c69f800801ba0322018088ff3280cb047ba76b8c002d5af4ae2f14187c828a7282eeb5f8f7361a041bcaaf6cc660fd882f08a9ff0d57109b5619f1c71ebf41570f6b675dbfb2325",
      "networkId": 0,
      "chainId": 0
    },
    {
      "hash": "0x3c2ec980db70ab53a7dbf085457a75dcd233228b2b60e6a27a4be2023ffd9f56",
      "blockHash": "0x67515cc677740c233b636526e85d593ac9bd5a80c4c1ebba21edea5a497a1c7d",
      "blockNumber": 112328,
      "transactionIndex": 2,
      "confirmations": null,
      "from": "0xE3a44b84A68C84F674E1e8c17445742DE48D9501",
      "gasPrice": {
        "_hex": "0xcc2a19411"
      },
      "gasLimit": {
        "_hex": "0x5208"
      },
      "to": "0x32Be343B94f860124dC4fEe278FDCBD38C102D88",
      "value": {
        "_hex": "0x455f7ac57b47f800"
      },
      "nonce": 3,
      "data": "0x",
      "r": "0xa954473d81835c350c621e7877a4f496a1083f348a004ddbd4bce5bf8e7a70d9",
      "s": "0x3ad10b5ea2e195483fe2fd47d5c6458f7d09ed8d8bd407d4ac31a45ed8c428b9",
      "v": 27,
      "creates": null,
      "raw": "0xf86c03850cc2a194118252089432be343b94f860124dc4fee278fdcbd38c102d8888455f7ac57b47f800801ba0a954473d81835c350c621e7877a4f496a1083f348a004ddbd4bce5bf8e7a70d9a03ad10b5ea2e195483fe2fd47d5c6458f7d09ed8d8bd407d4ac31a45ed8c428b9",
      "networkId": 0,
      "chainId": 0
    }
  ]
}