{
  "hash": "0x7f9b15593f5297dee4bbac65b6aeb4195dd58da5a5591871405212b504c87b53",
  "parentHash": "0x1faa006d11b9d4b2868eb5321d8e9b9620452f448c12348c474acf91fbc4b619",
  "number": 74388,
  "timestamp": 1439385237,
  "nonce": "0xfafe033c276d78b1",
  "difficulty": 2217224603152,
  "gasLimit": {
    "_hex": "0x2fefd8"
  },
  "gasUsed": {
    "_hex": "0xa410"
  },
  "miner": "0x4947190fcC30D3fb3a16233b259bFe6b3492339a",
  "extraData": "0x476574682f76312e302e312d38326566323666362f6c696e75782f676f312e34",
  "transactions": [
    {
      "hash": "0xec7c2840722fcfe7ddabaf93bf1bfd9797877d1618fca85a76d0b59b15c2cd45",
      "blockHash": "0x7f9b15593f5297dee4bbac65b6aeb4195dd58da5a5591871405212b504c87b53",
      "blockNumber": 74388,
      "transactionIndex": 0,
      "confirmations": null,
      "from": "0xb5AEf1DE312925438C00d12FCa19C8d8A99e3D1e",
      "gasPrice": {
        "_hex": "0xd5dc146d2"
      },
      "gasLimit": {
        "_hex": "0x5208"
      },
      "to": "0x32Be343B94f860124dC4fEe278FDCBD38C102D88",
      "value": {
        "_hex": "0xa075fbf60a7b60000"
      },
      "nonce": 2,
      "data": "0x",
      "r": "0x3a3351ee7a0aff512b29a945e6c0eddf3351cde9d709dffc3f458a797d388ee1",
      "s": "0x76f784540a62b810b0d6cf00e0ce5d102a430855cb3ad2baa732bc08026cded7",
      "v": 27,
      "creates": null,
      "raw": "0xf86d02850d5dc146d28252089432be343b94f860124dc4fee278fdcbd38c102d88890a075fbf60a7b60000801ba03a3351ee7a0aff512b29a945e6c0eddf3351cde9d709dffc3f458a797d388ee1a076f784540a62b810b0d6cf00e0ce5d102a430855cb3ad2baa732bc08026cded7",
      "networkId": 0,
      "chainId": 0
    },
    {
      "hash": "0x3479f23888244af290180bbd1c69b11ec6dc283d2b671a95366ab2e5ec045fe8",
      "blockHash": "0x7f9b15593f5297dee4bbac65b6aeb4195dd58da5a5591871405212b504c87b53",
      "blockNumber": 74388,
      "transactionIndex": 1,
      "confirmations": null,
      "from": "0xa6BDc31c431B8F97848c9D60cbbe9660dc450eB7",
      "gasPrice": {
        "_hex": "0xd5dc146d2"
      },
      "gasLimit": {
        "_hex": "0x5208"
      },
      "to": "0x32Be343B94f860124dC4fEe278FDCBD38C102D88",
      "value": {
        "_hex": "0x4563040722697000"
      },
      "nonce": 2,
      "data": "0x",
      "r": "0xf501de40001cfda9bb700540ddf6762f9cc2cbee19fb4630c143533f021c1784",
      "s": "0x31c18efda62d93d0cb6eab48c8f14a035b44cdebe601664be95a488c5148094b",
      "v": 28,
      "creates": null,
      "raw": "0xf86c02850d5dc146d28252089432be343b94f860124dc4fee278fdcbd38c102d88884563040722697000801ca0f501de40001cfda9bb700540ddf6762f9cc2cbee19fb4630c143533f021c1784a031c18efda62d93d0cb6eab48c8f14a035b44cdebe601664be95a488c5148094b",
      "networkId": 0,
      "chainId": 0
    }
  ]
}