{
  "hash": "0xeed351592c06706956894fa1849836098c4770d966a950c6bcef72270b49cb12",
  "parentHash": "0x9acf2bfe1577a600da37ac7c0735e30457e9e6b011fb8d3ed7500e55646f75ab",
  "number": 62565,
  "timestamp": 1439190855,
  "nonce": "0xfe1465eb892a11ec",
  "difficulty": 1771083329606,
  "gasLimit": {
    "_hex": "0x2fefd8"
  },
  "gasUsed": {
    "_hex": "0x5208"
  },
  "miner": "0x01d9DA08cc6Fb97c0DE1B6F4C28910A0859Ed1A1",
  "extraData": "0x476574682f76312e302e312f6c696e75782f676f312e342e32",
  "transactions": [
    {
      "hash": "0x64aa58edacaa990bb313abf7e2d3859e8121264788eb1ec96a3787b6af3d6e09",
      "blockHash": "0xeed351592c06706956894fa1849836098c4770d966a950c6bcef72270b49cb12",
      "blockNumber": 62565,
      "transactionIndex": 0,
      "confirmations": null,
      "from": "0x573fA39ba232a67268788CE9D5a7Bd8426856A6d",
      "gasPrice": {
        "_hex": "0xce846890a"
      },
      "gasLimit": {
        "_hex": "0x15f90"
      },
      "to": "0x19aF4b2766b8115B49E1fd31Ae71CaA12E706A96",
      "value": {
        "_hex": "0x15af1d78b58c40000"
      },
      "nonce": 0,
      "data": "0x",
      "r": "0xdbdefba106a85f76bb8d1ea06580ba8c8e49f1c617babb813be6b49c21c074ec",
      "s": "0x055ccf93724fa9e8903ef9157d16036e0eefbb981bfe18fffbb683310aceec75",
      "v": 28,
      "creates": null,
      "raw": "0xf86e80850ce846890a83015f909419af4b2766b8115b49e1fd31ae71caa12e706a9689015af1d78b58c40000801ca0dbdefba106a85f76bb8d1ea06580ba8c8e49f1c617babb813be6b49c21c074eca0055ccf93724fa9e8903ef9157d16036e0eefbb981bfe18fffbb683310aceec75",
      "networkId": 0,
      "chainId": 0
    }
  ]
}