{
  "hash": "0xb576d8732dce95178d273ad86809b4a2a8abf6566fb01b9676439e870445a16d",
  "parentHash": "0x02f1b4f52f14a6293684e3d00a378f8634093ba09c70ef78cb3315c24e51e41f",
  "number": 102640,
  "timestamp": 1439840904,
  "nonce": "0xded6397281f9ba0a",
  "difficulty": 4032759500952,
  "gasLimit": {
    "_hex": "0x2fefd8"
  },
  "gasUsed": {
    "_hex": "0x5208"
  },
  "miner": "0xe64D681b0eBCa2997D5f35e72EbC7777973299D7",
  "extraData": "0x",
  "transactions": [
    {
      "hash": "0x5d45296ff52cab8e6c664c4e8a78365fd3c7b42ff3deb7250506bd18a492f604",
      "blockHash": "0xb576d8732dce95178d273ad86809b4a2a8abf6566fb01b9676439e870445a16d",
      "blockNumber": 102640,
      "transactionIndex": 0,
      "confirmations": null,
      "from": "0xE300c4587D260cE22a677755Db6429B491A4309E",
      "gasPrice": {
        "_hex": "0xd0e99bd70"
      },
      "gasLimit": {
        "_hex": "0x15f90"
      },
      "to": "0x06EC48800B2DB3eEfa052e98A9b5Fc2Bf783Ee74",
      "value": {
        "_hex": "0x1d03645c638d10000"
      },
      "nonce": 14,
      "data": "0x",
      "r": "0xb0e8e6175f1955174f243b29c0a0b4132cedffb9bcd59fe4e3ffbbf5561a7768",
      "s": "0x129b539a81e4cb5bc7d34d22abf2a2ec2d8a9b48768fc73ce538a14b9f4e1aa4",
      "v": 27,
      "creates": null,
      "raw": "0xf86e0e850d0e99bd7083015f909406ec48800b2db3eefa052e98a9b5fc2bf783ee748901d03645c638d10000801ba0b0e8e6175f1955174f243b29c0a0b4132cedffb9bcd59fe4e3ffbbf5561a7768a0129b539a81e4cb5bc7d34d22abf2a2ec2d8a9b48768fc73ce538a14b9f4e1aa4",
      "networkId": 0,
      "chainId": 0
    }
  ]
}