{
  "hash": "0xfec55feb38e7163c7350013c4511465325292a38e8710cbf13230116c26b3be9",
  "parentHash": "0xa62a3debcc5f3426886f1d8640847687d7332d55ec5939da4d15d4f596727156",
  "number": 84724,
  "timestamp": 1439553713,
  "nonce": "0x41e8b0a3ea343f15",
  "difficulty": 2614413333599,
  "gasLimit": {
    "_hex": "0x2fefd8"
  },
  "gasUsed": {
    "_hex": "0xad77"
  },
  "miner": "0x65Fe776c996eB7c15f86F236B945353b9a18f335",
  "extraData": "0x476574682f76312e302e312f77696e646f77732f676f312e342e32",
  "transactions": [
    {
      "hash": "0x0ddbfdca77b9512c58e43e52d99c4ae3bb763e2cb726e5f37cbcba1f98a1432c",
      "blockHash": "0xfec55feb38e7163c7350013c4511465325292a38e8710cbf13230116c26b3be9",
      "blockNumber": 84724,
      "transactionIndex": 0,
      "confirmations": null,
      "from": "0x87C5B5874A18B4306DF8a752a6C8cc3E82daFc19",
      "gasPrice": {
        "_hex": "0x106345f310c"
      },
      "gasLimit": {
        "_hex": "0x493e0"
      },
      "to": "0xD79B4C6791784184e2755B2fC1659eaaB0f80456",
      "value": {
        "_hex": "0x0"
      },
      "nonce": 279,
      "data": "0x03750d94000000000000000000000000e0368cb092b5d09a6ce3adb583cc82d17e644e393439623565383666616265323136366200000000000000000000000000000000",
      "r": "0x327ba7a54e429ccb26722c924888111e722bfbb412f7ff103f2e792d1cd508e4",
      "s": "0x721566e78d8c1e1472eb9fb8cc433374d4d5d762bfc52b62f8b56e05d81207ab",
      "v": 27,
      "creates": null,
      "raw": "0xf8ad820117860106345f310c830493e094d79b4c6791784184e2755b2fc1659eaab0f8045680b84403750d94000000000000000000000000e0368cb092b5d09a6ce3adb583cc82d17e644e3934396235653836666162653231363662000000000000000000000000000000001ba0327ba7a54e429ccb26722c924888111e722bfbb412f7ff103f2e792d1cd508e4a0721566e78d8c1e1472eb9fb8cc433374d4d5d762bfc52b62f8b56e05d81207ab",
      "networkId": 0,
      "chainId": 0
    }
  ]
}