{
  "hash": "0xe1bd6bb819ad0b0720b3c84d552e8d56823d1bb77c0a8afb0f8f794485b64b6d",
  "parentHash": "0x64a07d4fc3a5b45a04af1b530b1901ff41d08b830613701d06cbcf6d33aa0556",
  "number": 92290,
  "timestamp": 1439669790,
  "nonce": "0xb0f123d2b4a3f33c",
  "difficulty": 3487552884406,
  "gasLimit": {
    "_hex": "0x2fefd8"
  },
  "gasUsed": {
    "_hex": "0x5208"
  },
  "miner": "0x56A1018A2F565672E98f4cB657cEB8059ff3E5a2",
  "extraData": "0x476574682f76312e302e312f77696e646f77732f676f312e342e32",
  "transactions": [
    {
      "hash": "0x96f1cee57988409c38d967ebd9930a65ab25846ee5314a8617d48bc43bc7c6fc",
      "blockHash": "0xe1bd6bb819ad0b0720b3c84d552e8d56823d1bb77c0a8afb0f8f794485b64b6d",
      "blockNumber": 92290,
      "transactionIndex": 0,
      "confirmations": null,
      "from": "0xa6BDc31c431B8F97848c9D60cbbe9660dc450eB7",
      "gasPrice": {
        "_hex": "0xd97256401"
      },
      "gasLimit": {
        "_hex": "0x5208"
      },
      "to": "0x32Be343B94f860124dC4fEe278FDCBD38C102D88",
      "value": {
        "_hex": "0x455f36ab1f7af800"
      },
      "nonce": 98,
      "data": "0x",
      "r": "0x05387d6eae803e69a62f016d1c3e39f4c4cacf87f3adc846c8c737336e9000ee",
      "s": "0x3ce20985b1a004e218d9ac65f6cdf1aa5977249b4737f6c4b3eb345161c05a35",
      "v": 28,
      "creates": null,
      "raw": "0xf86c62850d972564018252089432be343b94f860124dc4fee278fdcbd38c102d8888455f36ab1f7af800801ca005387d6eae803e69a62f016d1c3e39f4c4cacf87f3adc846c8c737336e9000eea03ce20985b1a004e218d9ac65f6cdf1aa5977249b4737f6c4b3eb345161c05a35",
      "networkId": 0,
      "chainId": 0
    }
  ]
}