{
  "hash": "0x9d9c5abb9f2e71b4a56ed5c3774b6399840493d9b40cfad7d97f81ca5c210829",
  "parentHash": "0xf5ec54953a1ae74749ba13e195fdf1e1bb722f47f68c087cf31a47d363144f28",
  "number": 49089,
  "timestamp": 1438967783,
  "nonce": "0x9464e6812329e38d",
  "difficulty": 1482174639516,
  "gasLimit": {
    "_hex": "0x2586d"
  },
  "gasUsed": {
    "_hex": "0x546c"
  },
  "miner": "0x84ad64deFF6B187f690634051D2a096C359D1099",
  "extraData": "0x476574682f76312e302e312f6c696e75782f676f312e342e32",
  "transactions": [
    {
      "hash": "0xf4b1340d67dc129ae75681315fab180347e7584c5466ab0b2ada8e6a60543d1d",
      "blockHash": "0x9d9c5abb9f2e71b4a56ed5c3774b6399840493d9b40cfad7d97f81ca5c210829",
      "blockNumber": 49089,
      "transactionIndex": 0,
      "confirmations": null,
      "from": "0x74Ed33Acf43F35b98c9230B9E6642ECb5330839e",
      "gasPrice": {
        "_hex": "0x110c8f7d8de"
      },
      "gasLimit": {
        "_hex": "0xc350"
      },
      "to": "0x2910543Af39abA0Cd09dBb2D50200b3E800A63D2",
      "value": {
        "_hex": "0x4563918244f40000"
      },
      "nonce": 0,
      "data": "0x454e35544456395452",
      "r": "0xc51ae438c10ef5ec7f02eff491e5a0ed32fd94502cf1ea0472f887d2bba421b4",
      "s": "0xe79db51f8874369748e734f8df31db24d828b0b1c79ae780a608cb96eadba164",
      "v": 28,
      "creates": null,
      "raw": "0xf87680860110c8f7d8de82c350942910543af39aba0cd09dbb2d50200b3e800a63d2884563918244f4000089454e355444563954521ca0c51ae438c10ef5ec7f02eff491e5a0ed32fd94502cf1ea0472f887d2bba421b4a0e79db51f8874369748e734f8df31db24d828b0b1c79ae780a608cb96eadba164",
      "networkId": 0,
      "chainId": 0
    }
  ]
}