{
  "hash": "0x2c68ef0c1777c983c5535460d47c2bf46904a9c901d69822e92cbca25131238e",
  "parentHash": "0x823fb638e7cbabc3581a9512201c6702fdec466d985a9c9705896c3bbc3988b0",
  "number": 91476,
  "timestamp": 1439656211,
  "nonce": "0xe97856122b39f31a",
  "difficulty": 3484486838784,
  "gasLimit": {
    "_hex": "0x2fefd5"
  },
  "gasUsed": {
    "_hex": "0x5208"
  },
  "miner": "0xe6A7a1d47ff21B6321162AEA7C6CB457D5476Bca",
  "extraData": "0x476574682f76312e302e312d38326566323666362f6c696e75782f676f312e34",
  "transactions": [
    {
      "hash": "0x0f14e3d1419b8797a49b77289961124f094c5deeac79d973e97b88a8bbdabed3",
      "blockHash": "0x2c68ef0c1777c983c5535460d47c2bf46904a9c901d69822e92cbca25131238e",
      "blockNumber": 91476,
      "transactionIndex": 0,
      "confirmations": null,
      "from": "0xF4026b7274ddFb01DC134CbB0da9367De410178b",
      "gasPrice": {
        "_hex": "0xdd8bb8cad"
      },
      "gasLimit": {
        "_hex": "0x30d40"
      },
      "to": "0x120A270bbC009644e35F0bB6ab13f95b8199c4ad",
      "value": {
        "_hex": "0x19e61443b8950e13c0"
      },
      "nonce": 0,
      "data": "0x",
      "r": "0xc5427e79b5b9dbda7f5aa94033437f46661297b0863fcbdb60d7a4e5cec0dd87",
      "s": "0x7d6dcf707444162d470731004e08f1da087a7bd938337ca69123de760e83a7a7",
      "v": 27,
      "creates": null,
      "raw": "0xf86e80850dd8bb8cad83030d4094120a270bbc009644e35f0bb6ab13f95b8199c4ad8919e61443b8950e13c0801ba0c5427e79b5b9dbda7f5aa94033437f46661297b0863fcbdb60d7a4e5cec0dd87a07d6dcf707444162d470731004e08f1da087a7bd938337ca69123de760e83a7a7",
      "networkId": 0,
      "chainId": 0
    }
  ]
}