{
  "hash": "0x1d64b85f780f416010e3294a85288e0a1bffff3adffb97a5793a2033b9ea92c6",
  "parentHash": "0x64307f14f638c288f6eb1d724aa63f885640c6e42b9a79fb1eb8a8febd5a14d4",
  "number": 119387,
  "timestamp": 1440141899,
  "nonce": "0x10373658943346a0",
  "difficulty": 4422445270943,
  "gasLimit": {
    "_hex": "0x2fefd8"
  },
  "gasUsed": {
    "_hex": "0xa410"
  },
  "miner": "0x7E6930B63D03e88F5928C5cd6ee3FCee4D714F7F",
  "extraData": "0xd783010003844765746887676f312e342e32856c696e7578",
  "transactions": [
    {
      "hash": "0x76d72a8f1cd4fc29661c145ffde2bf675dba9b9a4ab3605fbb154adfa3742c3a",
      "blockHash": "0x1d64b85f780f416010e3294a85288e0a1bffff3adffb97a5793a2033b9ea92c6",
      "blockNumber": 119387,
      "transactionIndex": 0,
      "confirmations": null,
      "from": "0xe6A7a1d47ff21B6321162AEA7C6CB457D5476Bca",
      "gasPrice": {
        "_hex": "0xba43b7400"
      },
      "gasLimit": {
        "_hex": "0x55f0"
      },
      "to": "0xF928B4834e4E886e04630Af5b4Ea8eBf46Fb205b",
      "value": {
        "_hex": "0xb79e07e0ab57c260"
      },
      "nonce": 6355,
      "data": "0x",
      "r": "0xb10c51ab5b372dd242bc871a0665788b46ab3af9d0ffb0032b54baf0041c95dd",
      "s": "0x1cf0c18cf34ceb8d0dd0431e0cf7f421d06ad32b5f5203ad63346e0294e29dc0",
      "v": 28,
      "creates": null,
      "raw": "0xf86e8218d3850ba43b74008255f094f928b4834e4e886e04630af5b4ea8ebf46fb205b88b79e07e0ab57c260801ca0b10c51ab5b372dd242bc871a0665788b46ab3af9d0ffb0032b54baf0041c95dda01cf0c18cf34ceb8d0dd0431e0cf7f421d06ad32b5f5203ad63346e0294e29dc0",
      "networkId": 0,
      "chainId": 0
    },
    {
      "hash": "0xfab26e5fc308691c805087461bf69f2a01e925455d77aedc52db06e4ad4022b2",
      "blockHash": "0x1d64b85f780f416010e3294a85288e0a1bffff3adffb97a5793a2033b9ea92c6",
      "blockNumber": 119387,
      "transactionIndex": 1,
      "confirmations": null,
      "from": "0xe6A7a1d47ff21B6321162AEA7C6CB457D5476Bca",
      "gasPrice": {
        "_hex": "0xba43b7400"
      },
      "gasLimit": {
        "_hex": "0x55f0"
      },
      "to": "0xf0c896DB24137eDA6Ec88cF1a95217F8604aE55e",
      "value": {
        "_hex": "0xe5a63137064d8848"
      },
      "nonce": 6356,
      "data": "0x",
      "r": "0xf85a2a33a184105ffb818502924b1265aaefda494128c914aa0d706cc5d19bff",
      "s": "0x7a2327afcba5ff0ef6cfaf05ced7f2f9723fea157d92b9954ad4d420f9ef00ff",
      "v": 27,
      "creates": null,
      "raw": "0xf86e8218d4850ba43b74008255f094f0c896db24137eda6ec88cf1a95217f8604ae55e88e5a63137064d8848801ba0f85a2a33a184105ffb818502924b1265aaefda494128c914aa0d706cc5d19bffa07a2327afcba5ff0ef6cfaf05ced7f2f9723fea157d92b9954ad4d420f9ef00ff",
      "networkId": 0,
      "chainId": 0
    }
  ]
}