{
  "hash": "0x11d58a8e58fe4b2a5a33bccff655f9031a27d3a13c8a50367e78373a9ffb7fd7",
  "parentHash": "0x677a0cb4514fcfd97073fd1f7bff4b3198590d7537bd6551fba85a780df8309b",
  "number": 93184,
  "timestamp": 1439684620,
  "nonce": "0x053d87526c6aecbf",
  "difficulty": 3597876248367,
  "gasLimit": {
    "_hex": "0x2fefd8"
  },
  "gasUsed": {
    "_hex": "0xbb3e"
  },
  "miner": "0x8C7bAEA34346a2E47026485BCD8f323012dEA6aA",
  "extraData": "0x476574682f76312e302e312f77696e646f77732f676f312e342e32",
  "transactions": [
    {
      "hash": "0xe4678bbc6eb75f7679ce5080ad0f81b853ecb74b7e16d85375f240e1fbc43577",
      "blockHash": "0x11d58a8e58fe4b2a5a33bccff655f9031a27d3a13c8a50367e78373a9ffb7fd7",
      "blockNumber": 93184,
      "transactionIndex": 0,
      "confirmations": null,
      "from": "0x02020D22dCF88f5eDd66B382D7da019F161fB7e3",
      "gasPrice": {
        "_hex": "0xd01deb46b"
      },
      "gasLimit": {
        "_hex": "0x15f90"
      },
      "to": "0xCAc7000C7dBaa2E33Af15325AF5D435E011C7BdD",
      "value": {
        "_hex": "0xde0b6b3a7640000"
      },
      "nonce": 22,
      "data": "0xb214faa5384e53354b355737410000000000000000000000000000000000000000000000",
      "r": "0xd95057561b6a81b07e2f7c25df0af7ab5ab286fc826bb2b4680c4071c4400285",
      "s": "0x000a0fa032a9043798b64aa9740b90e1f247493444ffc890b437cd2136091c94",
      "v": 27,
      "creates": null,
      "raw": "0xf89016850d01deb46b83015f9094cac7000c7dbaa2e33af15325af5d435e011c7bdd880de0b6b3a7640000a4b214faa5384e53354b3557374100000000000000000000000000000000000000000000001ba0d95057561b6a81b07e2f7c25df0af7ab5ab286fc826bb2b4680c4071c44002859f0a0fa032a9043798b64aa9740b90e1f247493444ffc890b437cd2136091c94",
      "networkId": 0,
      "chainId": 0
    },
    {
      "hash": "0xd093033ee0480ab50ef61d1a89dec24166f68def7af1a15e9294c5cfadadc17a",
      "blockHash": "0x11d58a8e58fe4b2a5a33bccff655f9031a27d3a13c8a50367e78373a9ffb7fd7",
      "blockNumber": 93184,
      "transactionIndex": 1,
      "confirmations": null,
      "from": "0x02020D22dCF88f5eDd66B382D7da019F161fB7e3",
      "gasPrice": {
        "_hex": "0xd01deb46b"
      },
      "gasLimit": {
        "_hex": "0x15f90"
      },
      "to": "0xCAc7000C7dBaa2E33Af15325AF5D435E011C7BdD",
      "value": {
        "_hex": "0xde0b6b3a7640000"
      },
      "nonce": 23,
      "data": "0xb214faa5384e53354b355737410000000000000000000000000000000000000000000000",
      "r": "0xbadeb442e91686bf84017603b60f0be168beee4e59e1c4f4557aefe8896b9b63",
      "s": "0x45b5998e737ed1917090615c5149e02b5d2fdc4b6390b4c5d999254f3cfec8d6",
      "v": 27,
      "creates": null,
      "raw": "0xf89117850d01deb46b83015f9094cac7000c7dbaa2e33af15325af5d435e011c7bdd880de0b6b3a7640000a4b214faa5384e53354b3557374100000000000000000000000000000000000000000000001ba0badeb442e91686bf84017603b60f0be168beee4e59e1c4f4557aefe8896b9b63a045b5998e737ed1917090615c5149e02b5d2fdc4b6390b4c5d999254f3cfec8d6",
      "networkId": 0,
      "chainId": 0
    }
  ]
}