{
  "hash": "0x5c6011ffbec572a5153bcf773a0d2a85b221a208ad2dfb04e844d2f3b6f2f86a",
  "parentHash": "0x870357859ed44ac9ba79048872f645ea790124452bbb5b82a8e46dce3d408313",
  "number": 87184,
  "timestamp": 1439588369,
  "nonce": "0xd1de3a570f59696e",
  "difficulty": 3070619387386,
  "gasLimit": {
    "_hex": "0x2fefd8"
  },
  "gasUsed": {
    "_hex": "0x5208"
  },
  "miner": "0x785ffdDd5cE55c6DF963f345e68d3F2024E5Acb1",
  "extraData": "0x",
  "transactions": [
    {
      "hash": "0x8de538c666075bd53d36851b2b61a9cd9fecf7f06d31be71a9d6a215dcccd49d",
      "blockHash": "0x5c6011ffbec572a5153bcf773a0d2a85b221a208ad2dfb04e844d2f3b6f2f86a",
      "blockNumber": 87184,
      "transactionIndex": 0,
      "confirmations": null,
      "from": "0xCd012c195F358C570Ece0b63673D6A36F76eE4D5",
      "gasPrice": {
        "_hex": "0xd364a7b02"
      },
      "gasLimit": {
        "_hex": "0x5208"
      },
      "to": "0x32Be343B94f860124dC4fEe278FDCBD38C102D88",
      "value": {
        "_hex": "0x168bc84321a4ac000"
      },
      "nonce": 0,
      "data": "0x",
      "r": "0x8d6865b3470612e956f5f231ed5f50468e705035e11a4b8c45b21b59c7651930",
      "s": "0x56d4e930b681c90846f1843242c39496132b5009d46d6c84f16e459b37b6c0a5",
      "v": 28,
      "creates": null,
      "raw": "0xf86d80850d364a7b028252089432be343b94f860124dc4fee278fdcbd38c102d88890168bc84321a4ac000801ca08d6865b3470612e956f5f231ed5f50468e705035e11a4b8c45b21b59c7651930a056d4e930b681c90846f1843242c39496132b5009d46d6c84f16e459b37b6c0a5",
      "networkId": 0,
      "chainId": 0
    }
  ]
}