{
  "hash": "0x0bc0effc7851bf2c9732ee06cd26f19b66804db48a32f0ed2609eadcf2ed6f92",
  "parentHash": "0x0d6e265d5688fbbfa023648914527d54e34d0e8da909834c194ba2e1cb6ca7b0",
  "number": 68963,
  "timestamp": 1439296373,
  "nonce": "0xff587a36277f7ac7",
  "difficulty": 2032975726461,
  "gasLimit": {
    "_hex": "0x2fefd8"
  },
  "gasUsed": {
    "_hex": "0x75eb8"
  },
  "miner": "0x01d9DA08cc6Fb97c0DE1B6F4C28910A0859Ed1A1",
  "extraData": "0x476574682f76312e302e312f6c696e75782f676f312e342e32",
  "transactions": [
    {
      "hash": "0x575902afb26c111e256d79a877a4ddc3a37702331ede0003f5516cab7fd44a50",
      "blockHash": "0x0bc0effc7851bf2c9732ee06cd26f19b66804db48a32f0ed2609eadcf2ed6f92",
      "blockNumber": 68963,
      "transactionIndex": 0,
      "confirmations": null,
      "from": "0xbEFF8F5c33FEb5Ef9161dfe718d72FD86632f268",
      "gasPrice": {
        "_hex": "0xba43b7400"
      },
      "gasLimit": {
        "_hex": "0x5208"
      },
      "to": "0x0D48c7885C9Cc97dF1C88c6FA5c5739d88e9D6D8",
      "value": {
        "_hex": "0xf0088de8d15000"
      },
      "nonce": 1,
      "data": "0x",
      "r": "0x9e14f004ba88ebbbdb7225b2d88c4594773c53e2c6005e2f8d8e7a1b8516a405",
      "s": "0x17691e8a575097faa84ac73b90a1dfde9a28e8b294455159f1e027830a05438a",
      "v": 27,
      "creates": null,
      "raw": "0xf86b01850ba43b7400825208940d48c7885c9cc97df1c88c6fa5c5739d88e9d6d887f0088de8d15000801ba09e14f004ba88ebbbdb7225b2d88c4594773c53e2c6005e2f8d8e7a1b8516a405a017691e8a575097faa84ac73b90a1dfde9a28e8b294455159f1e027830a05438a",
      "networkId": 0,
      "chainId": 0
    },
    {
      "hash": "0xe729250880be65b82341c3e67c719b108c65d0a8ba7f8045b67b674b20d9ee36",
      "blockHash": "0x0bc0effc7851bf2c9732ee06cd26f19b66804db48a32f0ed2609eadcf2ed6f92",
      "blockNumber": 68963,
      "transactionIndex": 1,
      "confirmations": null,
      "from": "0x08fb4be3CD7Fe0CE408d145A4a8eD86E76E49caD",
      "gasPrice": {
        "_hex": "0xba43b7400"
      },
      "gasLimit": {
        "_hex": "0x5208"
      },
      "to": "0xff894e9AE9af25e529E87f7e0CAAE8279698cb41",
      "value": {
        "_hex": "0xf0088de8d15000"
      },
      "nonce": 1,
      "data": "0x",
      "r": "0x86d65937f79e9d93e6985d8adfc5b1baf87341ddf584d158ea6e63c4ea5e59da",
      "s": "0x5ba137dd2c12707c1791a82fb21157d657ab14f7766fa5fcc692be527ed98c20",
      "v": 27,
      "creates": null,
      "raw": "0xf86b01850ba43b740082520894ff894e9ae9af25e529e87f7e0caae8279698cb4187f0088de8d15000801ba086d65937f79e9d93e6985d8adfc5b1baf87341ddf584d158ea6e63c4ea5e59daa05ba137dd2c12707c1791a82fb21157d657ab14f7766fa5fcc692be527ed98c20",
      "networkId": 0,
      "chainId": 0
    },
    {
      "hash": "0x4c7002c4a7fa91b7dc2587695192b85da14d496801ddb0dbafb15a5669584c74",
      "blockHash": "0x0bc0effc7851bf2c9732ee06cd26f19b66804db48a32f0ed2609eadcf2ed6f92",
      "blockNumber": 68963,
      "transactionIndex": 2,
      "confirmations": null,
      "from": "0x48c95c8127759D7279F0475EC2712DB6b46eAE07",
      "gasPrice": {
        "_hex": "0xba43b7400"
      },
      "gasLimit": {
        "_hex": "0x5208"
      },
      "to": "0x5b7CB11B15b945Fd910192Ca510A1DF51C70586f",
      "value": {
        "_hex": "0xf0088de8d15000"
      },
      "nonce": 1,
      "data": "0x",
      "r": "0x3a1ad48b21a5f5d3deda34c796123f8049a7eca2bb6b76bd9d1851de795b65aa",
      "s": "0x3361146aec90b9e37e894e49c1e00542b6ec6743a87f95a033c746a97a6f9f5f",
      "v": 28,
      "creates": null,
      "raw": "0xf86b01850ba43b7400825208945b7cb11b15b945fd910192ca510a1df51c70586f87f0088de8d15000801ca03a1ad48b21a5f5d3deda34c796123f8049a7eca2bb6b76bd9d1851de795b65aaa03361146aec90b9e37e894e49c1e00542b6ec6743a87f95a033c746a97a6f9f5f",
      "networkId": 0,
      "chainId": 0
    },
    {
      "hash": "0x26599a03bd7464dabee83bb677244dea1c9b459f44391aa620e07a0b5f125787",
      "blockHash": "0x0bc0effc7851bf2c9732ee06cd26f19b66804db48a32f0ed2609eadcf2ed6f92",
      "blockNumber": 68963,
      "transactionIndex": 3,
      "confirmations": null,
      "from": "0xD5f4369824D941e791AA65777D52F2249359A40f",
      "gasPrice": {
        "_hex": "0xba43b7400"
      },
      "gasLimit": {
        "_hex": "0x5208"
      },
      "to": "0x42af5364bB72A127fb1bA31bBBC121b37F4eEbA4",
      "value": {
        "_hex": "0xf0088de8d15000"
      },
      "nonce": 1,
      "data": "0x",
      "r": "0xdf0fff226c9c9d37ec52c2a3bdc31f3a321408b289445c81daa6bffebdcaed0d",
      "s": "0x4401cb73108ebaf5322ef3f65ad9da554d6a31faf4377779081a396df98abf1d",
      "v": 28,
      "creates": null,
      "raw": "0xf86b01850ba43b74008252089442af5364bb72a127fb1ba31bbbc121b37f4eeba487f0088de8d15000801ca0df0fff226c9c9d37ec52c2a3bdc31f3a321408b289445c81daa6bffebdcaed0da04401cb73108ebaf5322ef3f65ad9da554d6a31faf4377779081a396df98abf1d",
      "networkId": 0,
      "chainId": 0
    },
    {
      "hash": "0x230ab3d1320fc2528a4dead693805106b672a431362c9732eae8fa77af39061b",
      "blockHash": "0x0bc0effc7851bf2c9732ee06cd26f19b66804db48a32f0ed2609eadcf2ed6f92",
      "blockNumber": 68963,
      "transactionIndex": 4,
      "confirmations": null,
      "from": "0x63e3c7caF7594282bc19e8A00071824B693Bd819",
      "gasPrice": {
        "_hex": "0xba43b7400"
      },
      "gasLimit": {
        "_hex": "0x5208"
      },
      "to": "0x1E8f4D2Abc96eB5a5106ab15e2ae3d260Cd80f49",
      "value": {
        "_hex": "0xf0088de8d15000"
      },
      "nonce": 1,
      "data": "0x",
      "r": "0x0eb3eed17e05e1636abc375dad2f859902981055e684da81526bec3489552b52",
      "s": "0x02fe2f5677662f56a77ea9669a7a898245b1d6693472ba5155ca4443f6072241",
      "v": 28,
      "creates": null,
      "raw": "0xf86b01850ba43b7400825208941e8f4d2abc96eb5a5106ab15e2ae3d260cd80f4987f0088de8d15000801ca00eb3eed17e05e1636abc375dad2f859902981055e684da81526bec3489552b52a002fe2f5677662f56a77ea9669a7a898245b1d6693472ba5155ca4443f6072241",
      "networkId": 0,
      "chainId": 0
    },
    {
      "hash": "0x6ae260af7a40a6911ebffd3eeb28ccf1121044468894a3c84ac70bb978e497e3",
      "blockHash": "0x0bc0effc7851bf2c9732ee06cd26f19b66804db48a32f0ed2609eadcf2ed6f92",
      "blockNumber": 68963,
      "transactionIndex": 5,
      "confirmations": null,
      "from": "0xE251bf1F103B0Ff02685aF188FB157bF1Fa03679",
      "gasPrice": {
        "_hex": "0xba43b7400"
      },
      "gasLimit": {
        "_hex": "0x5208"
      },
      "to": "0x2fF71338260F4a086088237A336f0D432C0d72e4",
      "value": {
        "_hex": "0xf0088de8d15000"
      },
      "nonce": 1,
      "data": "0x",
      "r": "0xf82ffcfa3a62c5d5054ef9b14c4281dcc7d97dd39893e26bc2cf95dfeab79412",
      "s": "0x148d0e0812a8c519b13e0663086f73085e041be75a077ebc3dbdbf6052841375",
      "v": 28,
      "creates": null,
      "raw": "0xf86b01850ba43b7400825208942ff71338260f4a086088237a336f0d432c0d72e487f0088de8d15000801ca0f82ffcfa3a62c5d5054ef9b14c4281dcc7d97dd39893e26bc2cf95dfeab79412a0148d0e0812a8c519b13e0663086f73085e041be75a077ebc3dbdbf6052841375",
      "networkId": 0,
      "chainId": 0
    },
    {
      "hash": "0xd191605c929384cc92292d499b96af6617493afbf5cf593d9d2802ab721ff1a1",
      "blockHash": "0x0bc0effc7851bf2c9732ee06cd26f19b66804db48a32f0ed2609eadcf2ed6f92",
      "blockNumber": 68963,
      "transactionIndex": 6,
      "confirmations": null,
      "from": "0x2C53CC998B4DD5fcaf6Ff5a109faAaa577362C85",
      "gasPrice": {
        "_hex": "0xba43b7400"
      },
      "gasLimit": {
        "_hex": "0x5208"
      },
      "to": "0x45460A020F18C33991E57be4401E80Ed2fA8F6bD",
      "value": {
        "_hex": "0xf0088de8d15000"
      },
      "nonce": 1,
      "data": "0x",
      "r": "0xecf89b6e70b117a60942fb4370af53b6e57ad6c9816663b08f11d22c62fbbefc",
      "s": "0x641a4ab5191f8d174da6dc09936ad3315ab597b9d48c7fc15b9ad8c9b6ddac7d",
      "v": 28,
      "creates": null,
      "raw": "0xf86b01850ba43b74008252089445460a020f18c33991e57be4401e80ed2fa8f6bd87f0088de8d15000801ca0ecf89b6e70b117a60942fb4370af53b6e57ad6c9816663b08f11d22c62fbbefca0641a4ab5191f8d174da6dc09936ad3315ab597b9d48c7fc15b9ad8c9b6ddac7d",
      "networkId": 0,
      "chainId": 0
    },
    {
      "hash": "0x7990de299a698f14bc98f88ed0b2b07e022549c84ab086dcc2de6ceb809abf85",
      "blockHash": "0x0bc0effc7851bf2c9732ee06cd26f19b66804db48a32f0ed2609eadcf2ed6f92",
      "blockNumber": 68963,
      "transactionIndex": 7,
      "confirmations": null,
      "from": "0xE6c2A6d542d5C61e4949b2A07652e30AB93EDA80",
      "gasPrice": {
        "_hex": "0xba43b7400"
      },
      "gasLimit": {
        "_hex": "0x5208"
      },
      "to": "0xf7dB5ADD58Ea9245bb217373D5aCb59c73cB89cd",
      "value": {
        "_hex": "0xf0088de8d15000"
      },
      "nonce": 1,
      "data": "0x",
      "r": "0xad382a3b30732c238e7ed5ac0841705b3792a13745abb50137dc8806f08646ef",
      "s": "0x7c618399a9e4bd8f4c6fa05193325da8b96b4ef265c315ba9fc210aa4564cd3c",
      "v": 27,
      "creates": null,
      "raw": "0xf86b01850ba43b740082520894f7db5add58ea9245bb217373d5acb59c73cb89cd87f0088de8d15000801ba0ad382a3b30732c238e7ed5ac0841705b3792a13745abb50137dc8806f08646efa07c618399a9e4bd8f4c6fa05193325da8b96b4ef265c315ba9fc210aa4564cd3c",
      "networkId": 0,
      "chainId": 0
    },
    {
      "hash": "0x38f279d7cf603036b72f827d758477f3e3160229a86e45137947947baac192f6",
      "blockHash": "0x0bc0effc7851bf2c9732ee06cd26f19b66804db48a32f0ed2609eadcf2ed6f92",
      "blockNumber": 68963,
      "transactionIndex": 8,
      "confirmations": null,
      "from": "0xcb3a79AE1747439635f6cAa515569bEF31D06fD2",
      "gasPrice": {
        "_hex": "0xba43b7400"
      },
      "gasLimit": {
        "_hex": "0x5208"
      },
      "to": "0xce87E5D29240de507dCE1D5bf594d214b13c4b4e",
      "value": {
        "_hex": "0xf0088de8d15000"
      },
      "nonce": 1,
      "data": "0x",
      "r": "0x89c0f83192ed531ba0b8c8aed998c8bd120ada227e7f1fc9fe5649b0bcf6b9a4",
      "s": "0x2b420df5b2129df0d1f6d3ba43800e563368a600534f90a593605f8096b19d12",
      "v": 28,
      "creates": null,
      "raw": "0xf86b01850ba43b740082520894ce87e5d29240de507dce1d5bf594d214b13c4b4e87f0088de8d15000801ca089c0f83192ed531ba0b8c8aed998c8bd120ada227e7f1fc9fe5649b0bcf6b9a4a02b420df5b2129df0d1f6d3ba43800e563368a600534f90a593605f8096b19d12",
      "networkId": 0,
      "chainId": 0
    },
    {
      "hash": "0xaf168cb957a2c4c921cb1fa5fbb4817dd1bf318386a11aeaee9ce51c970315d5",
      "blockHash": "0x0bc0effc7851bf2c9732ee06cd26f19b66804db48a32f0ed2609eadcf2ed6f92",
      "blockNumber": 68963,
      "transactionIndex": 9,
      "confirmations": null,
      "from": "0xAd2317Ed356fdf7361E96DE050D6810Dd8054705",
      "gasPrice": {
        "_hex": "0xba43b7400"
      },
      "gasLimit": {
        "_hex": "0x5208"
      },
      "to": "0xe104540EE2b60C819124Ce4747FB9B46c8B68360",
      "value": {
        "_hex": "0xf0088de8d15000"
      },
      "nonce": 1,
      "data": "0x",
      "r": "0x392724c82908226978ce2d69cc94f47191c90ecc8712beca972022a53e9f9502",
      "s": "0x368178810dfee9bdabc3ac013263d36c06fc2c99fee7fb8c44ecd6a1d54557de",
      "v": 28,
      "creates": null,
      "raw": "0xf86b01850ba43b740082520894e104540ee2b60c819124ce4747fb9b46c8b6836087f0088de8d15000801ca0392724c82908226978ce2d69cc94f47191c90ecc8712beca972022a53e9f9502a0368178810dfee9bdabc3ac013263d36c06fc2c99fee7fb8c44ecd6a1d54557de",
      "networkId": 0,
      "chainId": 0
    },
    {
      "hash": "0xc089c17e564f593761f0cd8dfa124d1444556fac10cd23681d41b708c32c600d",
      "blockHash": "0x0bc0effc7851bf2c9732ee06cd26f19b66804db48a32f0ed2609eadcf2ed6f92",
      "blockNumber": 68963,
      "transactionIndex": 10,
      "confirmations": null,
      "from": "0x33acE8b5902ff0C13E8f79216f1AD63B2D489598",
      "gasPrice": {
        "_hex": "0xba43b7400"
      },
      "gasLimit": {
        "_hex": "0x5208"
      },
      "to": "0x2a6537b4260d8B4435f3bC5F749B943167e3CC01",
      "value": {
        "_hex": "0xf0088de8d15000"
      },
      "nonce": 1,
      "data": "0x",
      "r": "0x26a564c1841c821d41308e85662986dd688e2eb54107945a7bd3337fce8226b0",
      "s": "0x21cf21282c8575809bf00c82c59095ff31b289600a9d44c7013c9bce2d39d8ec",
      "v": 28,
      "creates": null,
      "raw": "0xf86b01850ba43b7400825208942a6537b4260d8b4435f3bc5f749b943167e3cc0187f0088de8d15000801ca026a564c1841c821d41308e85662986dd688e2eb54107945a7bd3337fce8226b0a021cf21282c8575809bf00c82c59095ff31b289600a9d44c7013c9bce2d39d8ec",
      "networkId": 0,
      "chainId": 0
    },
    {
      "hash": "0xe639d9a5338cb34cb49915343d5915900a135aa392361523c1972b866650965b",
      "blockHash": "0x0bc0effc7851bf2c9732ee06cd26f19b66804db48a32f0ed2609eadcf2ed6f92",
      "blockNumber": 68963,
      "transactionIndex": 11,
      "confirmations": null,
      "from": "0x04237C92aE5b4768222c0D32f1652d726528C270",
      "gasPrice": {
        "_hex": "0xba43b7400"
      },
      "gasLimit": {
        "_hex": "0x5208"
      },
      "to": "0x97805c8de8cA0Cdf941e4AdD76Cd2D4c8C842dFd",
      "value": {
        "_hex": "0xf0088de8d15000"
      },
      "nonce": 1,
      "data": "0x",
      "r": "0x954fa38de65f2340bb1948fb43f432b8b10bb6f1d7e57975f1c8fbfd7b2ea0e8",
      "s": "0x1d48aa1f1f7b9f47b0e51d1a55955467219bcb363ce63321fc0cbb14881c845f",
      "v": 28,
      "creates": null,
      "raw": "0xf86b01850ba43b74008252089497805c8de8ca0cdf941e4add76cd2d4c8c842dfd87f0088de8d15000801ca0954fa38de65f2340bb1948fb43f432b8b10bb6f1d7e57975f1c8fbfd7b2ea0e8a01d48aa1f1f7b9f47b0e51d1a55955467219bcb363ce63321fc0cbb14881c845f",
      "networkId": 0,
      "chainId": 0
    },
    {
      "hash": "0x416e4650a908c973de69ebeedd33ed378ae8f02f20911533dfd926a8801c2164",
      "blockHash": "0x0bc0effc7851bf2c9732ee06cd26f19b66804db48a32f0ed2609eadcf2ed6f92",
      "blockNumber": 68963,
      "transactionIndex": 12,
      "confirmations": null,
      "from": "0x645830439c06bdba150d48583051d5945105D811",
      "gasPrice": {
        "_hex": "0xba43b7400"
      },
      "gasLimit": {
        "_hex": "0x5208"
      },
      "to": "0x13dbf95ED3fA868a7EF9630f8DA4b9d19a8e10E3",
      "value": {
        "_hex": "0xf0088de8d15000"
      },
      "nonce": 1,
      "data": "0x",
      "r": "0xdc8a5c2c39239c419e7b3c225c5a0418296d2e5f5bbdc555e76484f3dc294e69",
      "s": "0x1a08daa74de535b2339bfe3243ed5b80464e6db1c47f419330c65c2b098b0ee8",
      "v": 27,
      "creates": null,
      "raw": "0xf86b01850ba43b74008252089413dbf95ed3fa868a7ef9630f8da4b9d19a8e10e387f0088de8d15000801ba0dc8a5c2c39239c419e7b3c225c5a0418296d2e5f5bbdc555e76484f3dc294e69a01a08daa74de535b2339bfe3243ed5b80464e6db1c47f419330c65c2b098b0ee8",
      "networkId": 0,
      "chainId": 0
    },
    {
      "hash": "0xb638629ef04b9c254f818f5ae027f24fc2b2a862bd3efb1a79df186b62cc8080",
      "blockHash": "0x0bc0effc7851bf2c9732ee06cd26f19b66804db48a32f0ed2609eadcf2ed6f92",
      "blockNumber": 68963,
      "transactionIndex": 13,
      "confirmations": null,
      "from": "0xC2BEABaBF44Ac276F279846841CE78Cc68B4aEBB",
      "gasPrice": {
        "_hex": "0xba43b7400"
      },
      "gasLimit": {
        "_hex": "0x5208"
      },
      "to": "0x23F8B82dD03251F5d5C752E9A28073C95FaA7F36",
      "value": {
        "_hex": "0xf0088de8d15000"
      },
      "nonce": 1,
      "data": "0x",
      "r": "0x4d3b08dc5c04237777878a30d3578f76746ec7ff7c1076b49a43f6fc52220188",
      "s": "0x0ceba19d2f3defbd88603385cb424626a8d0061104533f8dd117055557bfe9a6",
      "v": 27,
      "creates": null,
      "raw": "0xf86b01850ba43b74008252089423f8b82dd03251f5d5c752e9a28073c95faa7f3687f0088de8d15000801ba04d3b08dc5c04237777878a30d3578f76746ec7ff7c1076b49a43f6fc52220188a00ceba19d2f3defbd88603385cb424626a8d0061104533f8dd117055557bfe9a6",
      "networkId": 0,
      "chainId": 0
    },
    {
      "hash": "0x80c56f454665f8a1cf9e2bdd1e58f242a7161a22f7ca1334b25ec2ebf381cf12",
      "blockHash": "0x0bc0effc7851bf2c9732ee06cd26f19b66804db48a32f0ed2609eadcf2ed6f92",
      "blockNumber": 68963,
      "transactionIndex": 14,
      "confirmations": null,
      "from": "0xED724933C1156Ed5eFfdcB62C8332B342bf26237",
      "gasPrice": {
        "_hex": "0xba43b7400"
      },
      "gasLimit": {
        "_hex": "0x5208"
      },
      "to": "0x5023D89FEB0160652DB31A3be0F282CDa2d1f402",
      "value": {
        "_hex": "0xf0088de8d15000"
      },
      "nonce": 1,
      "data": "0x",
      "r": "0x4de173415f52ea4c5a49a47964a47b557156066e9e67f4e41c108c75a53030da",
      "s": "0x1480d1adf2d0abb4fc947dbfe0e62cb3c5acf44262f8985757a239f795fd9fc5",
      "v": 27,
      "creates": null,
      "raw": "0xf86b01850ba43b7400825208945023d89feb0160652db31a3be0f282cda2d1f40287f0088de8d15000801ba04de173415f52ea4c5a49a47964a47b557156066e9e67f4e41c108c75a53030daa01480d1adf2d0abb4fc947dbfe0e62cb3c5acf44262f8985757a239f795fd9fc5",
      "networkId": 0,
      "chainId": 0
    },
    {
      "hash": "0x94016bfb879b7f9f932b08ebf2d4c32276f001f9af078b7ac70a2fcf395e4f1d",
      "blockHash": "0x0bc0effc7851bf2c9732ee06cd26f19b66804db48a32f0ed2609eadcf2ed6f92",
      "blockNumber": 68963,
      "transactionIndex": 15,
      "confirmations": null,
      "from": "0x72c816BE54d0AD79b3f028BDB08A754Ac5646861",
      "gasPrice": {
        "_hex": "0xba43b7400"
      },
      "gasLimit": {
        "_hex": "0x5208"
      },
      "to": "0x406c441a6e217734F53AeF71D0A35fA9B3DE83Ce",
      "value": {
        "_hex": "0xf0088de8d15000"
      },
      "nonce": 1,
      "data": "0x",
      "r": "0xe117a3eba076bee902eaf215e67df467fa124ad3aac1dbd678b4475e08725444",
      "s": "0x0b6f8c9dc73c0d993e09dc2fa1ee06771b27acf3122445ea80f7e07dfc6d5b41",
      "v": 28,
      "creates": null,
      "raw": "0xf86b01850ba43b740082520894406c441a6e217734f53aef71d0a35fa9b3de83ce87f0088de8d15000801ca0e117a3eba076bee902eaf215e67df467fa124ad3aac1dbd678b4475e08725444a00b6f8c9dc73c0d993e09dc2fa1ee06771b27acf3122445ea80f7e07dfc6d5b41",
      "networkId": 0,
      "chainId": 0
    },
    {
      "hash": "0xde2b141a1488a520d688850547fbacf7be80a4eef4c1ee273167d7f335e917b3",
      "blockHash": "0x0bc0effc7851bf2c9732ee06cd26f19b66804db48a32f0ed2609eadcf2ed6f92",
      "blockNumber": 68963,
      "transactionIndex": 16,
      "confirmations": null,
      "from": "0x9D7e09f117a234d536e0eE0288A401a17fbAB4f9",
      "gasPrice": {
        "_hex": "0xba43b7400"
      },
      "gasLimit": {
        "_hex": "0x5208"
      },
      "to": "0x3b44000CF20E79f454C2f07f9f876473350dCb1F",
      "value": {
        "_hex": "0xf0088de8d15000"
      },
      "nonce": 1,
      "data": "0x",
      "r": "0xd611243d2532954fada3ed5e2b117f7da586466423693deb7ceeb8e9fd4389bf",
      "s": "0x12bf6ab9843d6878bb1ebd214bcf34578cb2abd401fede738c52207b8e84c974",
      "v": 27,
      "creates": null,
      "raw": "0xf86b01850ba43b7400825208943b44000cf20e79f454c2f07f9f876473350dcb1f87f0088de8d15000801ba0d611243d2532954fada3ed5e2b117f7da586466423693deb7ceeb8e9fd4389bfa012bf6ab9843d6878bb1ebd214bcf34578cb2abd401fede738c52207b8e84c974",
      "networkId": 0,
      "chainId": 0
    },
    {
      "hash": "0x658034d45e3f3158b842bbb2f7434143114964697e89d97e7a462809413b0c4e",
      "blockHash": "0x0bc0effc7851bf2c9732ee06cd26f19b66804db48a32f0ed2609eadcf2ed6f92",
      "blockNumber": 68963,
      "transactionIndex": 17,
      "confirmations": null,
      "from": "0xD22a39Ab46d525aB5c94DB3EAE62f6de4BAD3430",
      "gasPrice": {
        "_hex": "0xba43b7400"
      },
      "gasLimit": {
        "_hex": "0x5208"
      },
      "to": "0x7335908C33B8359346322091be6cb6baa7546cbc",
      "value": {
        "_hex": "0xf0088de8d15000"
      },
      "nonce": 1,
      "data": "0x",
      "r": "0x6d2d53cf35165625c35e38487e40f419779908eae388eeb5797169bf4a32838b",
      "s": "0x556a90c13c96ea181cedb320cc493c00859e5bbafd3b9af2ce0a23887b9fa356",
      "v": 28,
      "creates": null,
      "raw": "0xf86b01850ba43b7400825208947335908c33b8359346322091be6cb6baa7546cbc87f0088de8d15000801ca06d2d53cf35165625c35e38487e40f419779908eae388eeb5797169bf4a32838ba0556a90c13c96ea181cedb320cc493c00859e5bbafd3b9af2ce0a23887b9fa356",
      "networkId": 0,
      "chainId": 0
    },
    {
      "hash": "0x864084a4dbcebb71a45c821949d470f181289ec182a8ded2cd1e60cd47dc1c2f",
      "blockHash": "0x0bc0effc7851bf2c9732ee06cd26f19b66804db48a32f0ed2609eadcf2ed6f92",
      "blockNumber": 68963,
      "transactionIndex": 18,
      "confirmations": null,
      "from": "0x9Cdf93346a4706f34d139B57a88aED4C097d9c69",
      "gasPrice": {
        "_hex": "0xba43b7400"
      },
      "gasLimit": {
        "_hex": "0x5208"
      },
      "to": "0x30536a7cE04af7d0A22dbd14D0B93E8659CdE621",
      "value": {
        "_hex": "0xf0088de8d15000"
      },
      "nonce": 1,
      "data": "0x",
      "r": "0x4d5eeb837830accce22d4ec69ceebf70ac5098c7d0b6e388b22f83d4ecf52c87",
      "s": "0x63e0d2f8b647371c2f795047b08a7dab92ce6d6506355844b3eca958a4f6a864",
      "v": 28,
      "creates": null,
      "raw": "0xf86b01850ba43b74008252089430536a7ce04af7d0a22dbd14d0b93e8659cde62187f0088de8d15000801ca04d5eeb837830accce22d4ec69ceebf70ac5098c7d0b6e388b22f83d4ecf52c87a063e0d2f8b647371c2f795047b08a7dab92ce6d6506355844b3eca958a4f6a864",
      "networkId": 0,
      "chainId": 0
    },
    {
      "hash": "0x947f69ecf0b1817b0175a70810780a9b139dd73d96024c6d44853c7011d3e580",
      "blockHash": "0x0bc0effc7851bf2c9732ee06cd26f19b66804db48a32f0ed2609eadcf2ed6f92",
      "blockNumber": 68963,
      "transactionIndex": 19,
      "confirmations": null,
      "from": "0xE799c164441687D3A17ac84bF1A48247134DCAf9",
      "gasPrice": {
        "_hex": "0xba43b7400"
      },
      "gasLimit": {
        "_hex": "0x5208"
      },
      "to": "0x2cf77CC6f65639f4D58Ea1Cf57E0200eD415c812",
      "value": {
        "_hex": "0xf0088de8d15000"
      },
      "nonce": 1,
      "data": "0x",
      "r": "0xe8c45358e25f6aad2d0225355ced14f6be45566054f5c0bde7662a472408e3e7",
      "s": "0x27402e5f025c063c39d8f99548a2db52eca23f014f6723d11773f79c06ec16ee",
      "v": 28,
      "creates": null,
      "raw": "0xf86b01850ba43b7400825208942cf77cc6f65639f4d58ea1cf57e0200ed415c81287f0088de8d15000801ca0e8c45358e25f6aad2d0225355ced14f6be45566054f5c0bde7662a472408e3e7a027402e5f025c063c39d8f99548a2db52eca23f014f6723d11773f79c06ec16ee",
      "networkId": 0,
      "chainId": 0
    },
    {
      "hash": "0xbd766e2132bf278bf03df92d069e244e6315284d79fa0b8696c2a347cba9ed93",
      "blockHash": "0x0bc0effc7851bf2c9732ee06cd26f19b66804db48a32f0ed2609eadcf2ed6f92",
      "blockNumber": 68963,
      "transactionIndex": 20,
      "confirmations": null,
      "from": "0x4Bc72e28809cD9D22A78AA2F3F3dd72caefcf198",
      "gasPrice": {
        "_hex": "0xba43b7400"
      },
      "gasLimit": {
        "_hex": "0x5208"
      },
      "to": "0x538b50f60Aa52Bf84f837d131C759b6cb87C69cc",
      "value": {
        "_hex": "0xf0088de8d15000"
      },
      "nonce": 1,
      "data": "0x",
      "r": "0x56b89a779c45b61cf2c3acabedd285d3ed9fdf4e72a4b1ac5f46d2b2d972bc6b",
      "s": "0x08ca66cfc9ef7f98f0b689f9a1e35afe2acbd729be7ad43be3d42ea93e4aef3a",
      "v": 28,
      "creates": null,
      "raw": "0xf86b01850ba43b740082520894538b50f60aa52bf84f837d131c759b6cb87c69cc87f0088de8d15000801ca056b89a779c45b61cf2c3acabedd285d3ed9fdf4e72a4b1ac5f46d2b2d972bc6ba008ca66cfc9ef7f98f0b689f9a1e35afe2acbd729be7ad43be3d42ea93e4aef3a",
      "networkId": 0,
      "chainId": 0
    },
    {
      "hash": "0xaf55495d293e37cf062e12ba072f305bf20d02d2e0ba902890de801963840c90",
      "blockHash": "0x0bc0effc7851bf2c9732ee06cd26f19b66804db48a32f0ed2609eadcf2ed6f92",
      "blockNumber": 68963,
      "transactionIndex": 21,
      "confirmations": null,
      "from": "0x72e807d5eC94297a67C3cE32281F61b10739a31d",
      "gasPrice": {
        "_hex": "0xba43b7400"
      },
      "gasLimit": {
        "_hex": "0x5208"
      },
      "to": "0xDb1D8e414E3eb29bbf45309Bd92CC511B3C36712",
      "value": {
        "_hex": "0xf0088de8d15000"
      },
      "nonce": 1,
      "data": "0x",
      "r": "0x6918b14724cd9789785294a2f6da16101fb802bd79811674af583006796ea331",
      "s": "0x3981b9516eb3027488abf508b4f9f6a03cf13d3c96f114bb5ce2ab6411379cea",
      "v": 28,
      "creates": null,
      "raw": "0xf86b01850ba43b740082520894db1d8e414e3eb29bbf45309bd92cc511b3c3671287f0088de8d15000801ca06918b14724cd9789785294a2f6da16101fb802bd79811674af583006796ea331a03981b9516eb3027488abf508b4f9f6a03cf13d3c96f114bb5ce2ab6411379cea",
      "networkId": 0,
      "chainId": 0
    },
    {
      "hash": "0xb078528b00f46bcfa7a47e54b346e1ac117ac0e3d4cbf5901da496a298818f3f",
      "blockHash": "0x0bc0effc7851bf2c9732ee06cd26f19b66804db48a32f0ed2609eadcf2ed6f92",
      "blockNumber": 68963,
      "transactionIndex": 22,
      "confirmations": null,
      "from": "0xA6e0e6F8080a23D5b6de5433f2be0197196A8dbC",
      "gasPrice": {
        "_hex": "0xba43b7400"
      },
      "gasLimit": {
        "_hex": "0x5208"
      },
      "to": "0x08894526ac3A78d39D9F247936A35239d5f58Ef5",
      "value": {
        "_hex": "0xf0088de8d15000"
      },
      "nonce": 1,
      "data": "0x",
      "r": "0x1d4581d43fada93c01102b90c65917b6e9e5f598a04ce738bf578c93a6e36bbf",
      "s": "0x101400a339b8f76b2d3de44f7d684428ab73c108697f5835dd3ef4ec11efc089",
      "v": 28,
      "creates": null,
      "raw": "0xf86b01850ba43b74008252089408894526ac3a78d39d9f247936a35239d5f58ef587f0088de8d15000801ca01d4581d43fada93c01102b90c65917b6e9e5f598a04ce738bf578c93a6e36bbfa0101400a339b8f76b2d3de44f7d684428ab73c108697f5835dd3ef4ec11efc089",
      "networkId": 0,
      "chainId": 0
    }
  ]
}