{
  "hash": "0xdfdfcc209a660a7ce73af61cb258940f31457aec021b2dacfcc2f91bc88ea405",
  "parentHash": "0x10857c7a10e5564602f653e664e6ece4830083323fa117228b7c74debb6b7566",
  "number": 77745,
  "timestamp": 1439442236,
  "nonce": "0x9c191abcc696aa40",
  "difficulty": 2270004542268,
  "gasLimit": {
    "_hex": "0x2fefd8"
  },
  "gasUsed": {
    "_hex": "0xa410"
  },
  "miner": "0x123843545FB525C8E134c9A5F15ADA6865cc3848",
  "extraData": "0x476574682f76312e302e312f77696e646f77732f676f312e342e32",
  "transactions": [
    {
      "hash": "0xe051be8b62954d11ef75a82c1f9ba9d323a2fd60c6b2db6a786ec802e066596f",
      "blockHash": "0xdfdfcc209a660a7ce73af61cb258940f31457aec021b2dacfcc2f91bc88ea405",
      "blockNumber": 77745,
      "transactionIndex": 0,
      "confirmations": null,
      "from": "0x8178414Ff0aba7fD5bC60A72cB17e213b371F35C",
      "gasPrice": {
        "_hex": "0xdbcac8e00"
      },
      "gasLimit": {
        "_hex": "0x5208"
      },
      "to": "0x9653c9859b18f8777Fe4eEc9a67c9F64F3D6F62a",
      "value": {
        "_hex": "0xde0b6b3a7640000"
      },
      "nonce": 1,
      "data": "0x",
      "r": "0xfda8dfaa4bc910fcc818f16777cfc6fdd103736e67cb0b338431eb3a5b8772c8",
      "s": "0x020e447e9312d6ce6f856d48671014a1d77d7d62c155514415e19d598df9211e",
      "v": 28,
      "creates": null,
      "raw": "0xf86c01850dbcac8e00825208949653c9859b18f8777fe4eec9a67c9f64f3d6f62a880de0b6b3a7640000801ca0fda8dfaa4bc910fcc818f16777cfc6fdd103736e67cb0b338431eb3a5b8772c8a0020e447e9312d6ce6f856d48671014a1d77d7d62c155514415e19d598df9211e",
      "networkId": 0,
      "chainId": 0
    },
    {
      "hash": "0x3143b3ed8ad79a00eb11388e14e47d314b7d8cb2ac2895d4be34fc9265de30ea",
      "blockHash": "0xdfdfcc209a660a7ce73af61cb258940f31457aec021b2dacfcc2f91bc88ea405",
      "blockNumber": 77745,
      "transactionIndex": 1,
      "confirmations": null,
      "from": "0xB7268c7705A1866b2A78e882fdfDc8E2a4e1428E",
      "gasPrice": {
        "_hex": "0xd411efc2c"
      },
      "gasLimit": {
        "_hex": "0x15f90"
      },
      "to": "0x96811Ad897894eC178872117C8BF2f03971A393B",
      "value": {
        "_hex": "0x4563918244f40000"
      },
      "nonce": 18,
      "data": "0x",
      "r": "0x98feebb6a111bfe19c1f8763118d1bea8a94058f7c7b87274beeb0babec04fb3",
      "s": "0x770b3854d9b3bfada7b71bc5a00e9ff2cdd00de3c1651a011ceb47d0267d4a49",
      "v": 28,
      "creates": null,
      "raw": "0xf86d12850d411efc2c83015f909496811ad897894ec178872117c8bf2f03971a393b884563918244f40000801ca098feebb6a111bfe19c1f8763118d1bea8a94058f7c7b87274beeb0babec04fb3a0770b3854d9b3bfada7b71bc5a00e9ff2cdd00de3c1651a011ceb47d0267d4a49",
      "networkId": 0,
      "chainId": 0
    }
  ]
}