{
  "hash": "0x04ce4f3a8d2e0b35cc9360c26d84f5af1de256f0a0739e838908eee55b3e0ff5",
  "parentHash": "0x4d308909fe3172e10f2e283f307a9f038faef6745d6935fb0846e166653a2176",
  "number": 110209,
  "timestamp": 1439969950,
  "nonce": "0xe4c20e41c779dd9b",
  "difficulty": 4362906379855,
  "gasLimit": {
    "_hex": "0x2fefd8"
  },
  "gasUsed": {
    "_hex": "0xa414"
  },
  "miner": "0x007f7f58D3eb5b7510A301eCC749FC1fCDDBE14D",
  "extraData": "0x476574682f76312e302e312f77696e646f77732f676f312e342e32",
  "transactions": [
    {
      "hash": "0xbf8b1109d179683f83bd1bdfe26467676c9a498ef33f798c25600224df5297ef",
      "blockHash": "0x04ce4f3a8d2e0b35cc9360c26d84f5af1de256f0a0739e838908eee55b3e0ff5",
      "blockNumber": 110209,
      "transactionIndex": 0,
      "confirmations": null,
      "from": "0xb9836ec1f42Bd48331bceaedb74a6Bcdc22832bD",
      "gasPrice": {
        "_hex": "0xe3b0b0883"
      },
      "gasLimit": {
        "_hex": "0x7530"
      },
      "to": "0x7cB57B5A97eAbe94205C07890BE4c1aD31E486A8",
      "value": {
        "_hex": "0x38d7ea4c68000"
      },
      "nonce": 12,
      "data": "0x00",
      "r": "0x0e5bee3b1ef49d4b0a9abd8ea46eba933cafc0c8a6a5d9e4af47a2990faecacc",
      "s": "0xc04111b49069c613a433424c6a673b96ae040ec42df4096596e16b162ecfee32",
      "v": 27,
      "creates": null,
      "raw": "0xf86b0c850e3b0b0883827530947cb57b5a97eabe94205c07890be4c1ad31e486a887038d7ea4c68000001ba00e5bee3b1ef49d4b0a9abd8ea46eba933cafc0c8a6a5d9e4af47a2990faecacca0c04111b49069c613a433424c6a673b96ae040ec42df4096596e16b162ecfee32",
      "networkId": 0,
      "chainId": 0
    },
    {
      "hash": "0x0b577677849da60526029e1b25bf6b1d38550e00560f4b8cd7dd10623bcb977c",
      "blockHash": "0x04ce4f3a8d2e0b35cc9360c26d84f5af1de256f0a0739e838908eee55b3e0ff5",
      "blockNumber": 110209,
      "transactionIndex": 1,
      "confirmations": null,
      "from": "0xBf520BE04Aa6a36a99897062Ca9c440CF4112780",
      "gasPrice": {
        "_hex": "0xd4fc8b2f1"
      },
      "gasLimit": {
        "_hex": "0x5208"
      },
      "to": "0x32Be343B94f860124dC4fEe278FDCBD38C102D88",
      "value": {
        "_hex": "0xd026708d06280000"
      },
      "nonce": 1,
      "data": "0x",
      "r": "0xc5be6743c70562e63c5e01884e51e7efb1d3f4391dd1a3954dd11a2af513ee1e",
      "s": "0x321126f72f3ff6205cb95852634908947067e5823d42d69b052a9c7eac6eb4e5",
      "v": 27,
      "creates": null,
      "raw": "0xf86c01850d4fc8b2f18252089432be343b94f860124dc4fee278fdcbd38c102d8888d026708d06280000801ba0c5be6743c70562e63c5e01884e51e7efb1d3f4391dd1a3954dd11a2af513ee1ea0321126f72f3ff6205cb95852634908947067e5823d42d69b052a9c7eac6eb4e5",
      "networkId": 0,
      "chainId": 0
    }
  ]
}