{
  "hash": "0x0ff39c6fe3664d0a29c224afc94adce7a2c37b5010d7bd4a6c95c72b00bb8dc8",
  "parentHash": "0x3d88a99d0b4669e4d699992c86aeab7aa8f53415d521132ae309dd4b6b49f4ba",
  "number": 87069,
  "timestamp": 1439586697,
  "nonce": "0x34b9e353a58a048e",
  "difficulty": 3036369430800,
  "gasLimit": {
    "_hex": "0x2fefd8"
  },
  "gasUsed": {
    "_hex": "0x5d9f"
  },
  "miner": "0x756C55cbfa47fd23c0260F958e65866E64c096CB",
  "extraData": "0x6d696e65644279436f727361726f31",
  "transactions": [
    {
      "hash": "0xa938f88750509b14bb3f34dd3af2c091580ab2c76c85bd4dade8a272e5f13a5c",
      "blockHash": "0x0ff39c6fe3664d0a29c224afc94adce7a2c37b5010d7bd4a6c95c72b00bb8dc8",
      "blockNumber": 87069,
      "transactionIndex": 0,
      "confirmations": null,
      "from": "0x02020D22dCF88f5eDd66B382D7da019F161fB7e3",
      "gasPrice": {
        "_hex": "0xdc903bed3"
      },
      "gasLimit": {
        "_hex": "0x15f90"
      },
      "to": "0xCAc7000C7dBaa2E33Af15325AF5D435E011C7BdD",
      "value": {
        "_hex": "0x16345785d8a0000"
      },
      "nonce": 10,
      "data": "0xb214faa5384e53354b355737410000000000000000000000000000000000000000000000",
      "r": "0x332dd67a0af1fd0c5e2583aa869ec5b4b3bcf62cc2bdcb0f22314a3f84f7cca9",
      "s": "0x20afde0d0ca3296b4a16a2d4d50a9f423bb92788ec5912ca8048d655f04c0be1",
      "v": 27,
      "creates": null,
      "raw": "0xf8910a850dc903bed383015f9094cac7000c7dbaa2e33af15325af5d435e011c7bdd88016345785d8a0000a4b214faa5384e53354b3557374100000000000000000000000000000000000000000000001ba0332dd67a0af1fd0c5e2583aa869ec5b4b3bcf62cc2bdcb0f22314a3f84f7cca9a020afde0d0ca3296b4a16a2d4d50a9f423bb92788ec5912ca8048d655f04c0be1",
      "networkId": 0,
      "chainId": 0
    }
  ]
}