{
  "hash": "0x6347a2305c6438b6444f1ba795f118909cad007871aaa18da801cf418192eb65",
  "parentHash": "0x00dd4fa14978d63de190424655518df5488504560a6190ca3b9732c9a8b0fac4",
  "number": 93192,
  "timestamp": 1439684822,
  "nonce": "0xe0c33caf5f10057c",
  "difficulty": 3590852579197,
  "gasLimit": {
    "_hex": "0x2fefd8"
  },
  "gasUsed": {
    "_hex": "0x5208"
  },
  "miner": "0x55bAf64fc9eAccFFd7Cc643BB61142E1C6ac093e",
  "extraData": "0x",
  "transactions": [
    {
      "hash": "0x65e08adb799a364ed8a5f01b8e6a9d5d58833e7af81fb3f84e2d693edef8e4a3",
      "blockHash": "0x6347a2305c6438b6444f1ba795f118909cad007871aaa18da801cf418192eb65",
      "blockNumber": 93192,
      "transactionIndex": 0,
      "confirmations": null,
      "from": "0x61F642543d22bAf5382908a714E675Cc0b51ea45",
      "gasPrice": {
        "_hex": "0xd1c906317"
      },
      "gasLimit": {
        "_hex": "0x5208"
      },
      "to": "0x32Be343B94f860124dC4fEe278FDCBD38C102D88",
      "value": {
        "_hex": "0x1accea6b9b6b49000"
      },
      "nonce": 9,
      "data": "0x",
      "r": "0xa007bc482bfb50b2d75c9aee43f8058d01ab7ca205cf373d559ccaf3699304c9",
      "s": "0x064f611089305f06921f2da69b54b943bb9d5b0e9e22381d63476432abbb5cc1",
      "v": 27,
      "creates": null,
      "raw": "0xf86d09850d1c9063178252089432be343b94f860124dc4fee278fdcbd38c102d888901accea6b9b6b49000801ba0a007bc482bfb50b2d75c9aee43f8058d01ab7ca205cf373d559ccaf3699304c9a0064f611089305f06921f2da69b54b943bb9d5b0e9e22381d63476432abbb5cc1",
      "networkId": 0,
      "chainId": 0
    }
  ]
}