{
  "hash": "0xaf1f669d996288559a6622951c698995fcad404863bb8eb8033306ab72ce5725",
  "parentHash": "0x26f889f4f9750d6a870b10ead025df1ced6313bb707a9abdf2616c4d4bdc7246",
  "number": 102086,
  "timestamp": 1439832685,
  "nonce": "0x3dae3dcc874730aa",
  "difficulty": 3905127207183,
  "gasLimit": {
    "_hex": "0x2fefd8"
  },
  "gasUsed": {
    "_hex": "0xa410"
  },
  "miner": "0xe6A7a1d47ff21B6321162AEA7C6CB457D5476Bca",
  "extraData": "0x476574682f76312e302e312d38326566323666362f6c696e75782f676f312e34",
  "transactions": [
    {
      "hash": "0xedf664db1876110c038a9de7128604f3cb8eea0e14b39782122a4e3d782b8f5a",
      "blockHash": "0xaf1f669d996288559a6622951c698995fcad404863bb8eb8033306ab72ce5725",
      "blockNumber": 102086,
      "transactionIndex": 0,
      "confirmations": null,
      "from": "0x007f7f58D3eb5b7510A301eCC749FC1fCDDBE14D",
      "gasPrice": {
        "_hex": "0xe0cfe7246"
      },
      "gasLimit": {
        "_hex": "0x15f90"
      },
      "to": "0xb1abce2918E21ddb93AA452731a12672A3d9F75a",
      "value": {
        "_hex": "0x4563918244f40000"
      },
      "nonce": 202,
      "data": "0x",
      "r": "0xf22b2a9e2d33d1a4019b8a472e4bdcaa129efc4286ce9b506e7b76d4ea55c305",
      "s": "0x74580b428759746b4b5b4b9318225669420d34122e5a3e6e0a8238c7745c1bfb",
      "v": 27,
      "creates": null,
      "raw": "0xf86e81ca850e0cfe724683015f9094b1abce2918e21ddb93aa452731a12672a3d9f75a884563918244f40000801ba0f22b2a9e2d33d1a4019b8a472e4bdcaa129efc4286ce9b506e7b76d4ea55c305a074580b428759746b4b5b4b9318225669420d34122e5a3e6e0a8238c7745c1bfb",
      "networkId": 0,
      "chainId": 0
    },
    {
      "hash": "0x9fbb9d5fdb380530ebdf10a19442e58716ec9ff0a2ca2d4f6595e98f40e50e48",
      "blockHash": "0xaf1f669d996288559a6622951c698995fcad404863bb8eb8033306ab72ce5725",
      "blockNumber": 102086,
      "transactionIndex": 1,
      "confirmations": null,
      "from": "0x32Be343B94f860124dC4fEe278FDCBD38C102D88",
      "gasPrice": {
        "_hex": "0xcad96a66b"
      },
      "gasLimit": {
        "_hex": "0x5208"
      },
      "to": "0x869e88783E4c2E97d967A89E1aca4523eeAB3D7C",
      "value": {
        "_hex": "0x10733fd49fc9ee000"
      },
      "nonce": 1096,
      "data": "0x",
      "r": "0x446d2b6ba2f0ec72ae51106f9cdc9cb98ebcbe7d678dbfa36282b9c624b22271",
      "s": "0x6c9814abfc1164e9ebd5095f97ae404f6e16e223b130278d190ed012e01510ca",
      "v": 28,
      "creates": null,
      "raw": "0xf86f820448850cad96a66b82520894869e88783e4c2e97d967a89e1aca4523eeab3d7c89010733fd49fc9ee000801ca0446d2b6ba2f0ec72ae51106f9cdc9cb98ebcbe7d678dbfa36282b9c624b22271a06c9814abfc1164e9ebd5095f97ae404f6e16e223b130278d190ed012e01510ca",
      "networkId": 0,
      "chainId": 0
    }
  ]
}