{
  "hash": "0x407b5df104a5f0070333a6f286f3396e8ee27913a4dec4aa24550b7db5d66d08",
  "parentHash": "0x109ff64f7a67e944b4078f3dab0a521c814d67a8d7eb58018b51ee188d9027eb",
  "number": 115691,
  "timestamp": 1440061519,
  "nonce": "0xa1cb477e04d83ffc",
  "difficulty": 4600642062309,
  "gasLimit": {
    "_hex": "0x2fefd8"
  },
  "gasUsed": {
    "_hex": "0x14820"
  },
  "miner": "0xe6A7a1d47ff21B6321162AEA7C6CB457D5476Bca",
  "extraData": "0x476574682f76312e302e312d38326566323666362f6c696e75782f676f312e34",
  "transactions": [
    {
      "hash": "0x8697258be91cad27c528384923c60a109ea9c753e04562c0eb318c636be2f838",
      "blockHash": "0x407b5df104a5f0070333a6f286f3396e8ee27913a4dec4aa24550b7db5d66d08",
      "blockNumber": 115691,
      "transactionIndex": 0,
      "confirmations": null,
      "from": "0xe6C9430205BD87DA80B9D5F286442Bf45CB49423",
      "gasPrice": {
        "_hex": "0xba43b7400"
      },
      "gasLimit": {
        "_hex": "0x5208"
      },
      "to": "0xC47Aaa860008be6f65B58c6C6E02a84e666EfE31",
      "value": {
        "_hex": "0x11ef55a6af8b3650"
      },
      "nonce": 5,
      "data": "0x",
      "r": "0xebb4376c74920df1a82247ffb71f6dda751b76f19a78595b75f23fddff6d4a49",
      "s": "0x6804fe8d41beeeedddb63d27f8c1f6a1bbc7d00fb2977f4322a2d9ca79b55596",
      "v": 27,
      "creates": null,
      "raw": "0xf86c05850ba43b740082520894c47aaa860008be6f65b58c6c6e02a84e666efe318811ef55a6af8b3650801ba0ebb4376c74920df1a82247ffb71f6dda751b76f19a78595b75f23fddff6d4a49a06804fe8d41beeeedddb63d27f8c1f6a1bbc7d00fb2977f4322a2d9ca79b55596",
      "networkId": 0,
      "chainId": 0
    },
    {
      "hash": "0x887e78d3b735772281c2c734921651635b5cf652da03a02860e205b28eee6d38",
      "blockHash": "0x407b5df104a5f0070333a6f286f3396e8ee27913a4dec4aa24550b7db5d66d08",
      "blockNumber": 115691,
      "transactionIndex": 1,
      "confirmations": null,
      "from": "0x4C9560759adF54ABEdd7318d1413C4fA49240074",
      "gasPrice": {
        "_hex": "0xba43b7400"
      },
      "gasLimit": {
        "_hex": "0x5208"
      },
      "to": "0xC47Aaa860008be6f65B58c6C6E02a84e666EfE31",
      "value": {
        "_hex": "0x1f161f9cfe2c0f20"
      },
      "nonce": 8,
      "data": "0x",
      "r": "0x5e6a7f39d8337233d71c3f9f8c3b2fdfff2b7755a4f6d1600c908df700fc3ff6",
      "s": "0x3e083cdd2822cae32b973252d393e464bcfbdfd5a2626279f3fb009e0c584f21",
      "v": 27,
      "creates": null,
      "raw": "0xf86c08850ba43b740082520894c47aaa860008be6f65b58c6c6e02a84e666efe31881f161f9cfe2c0f20801ba05e6a7f39d8337233d71c3f9f8c3b2fdfff2b7755a4f6d1600c908df700fc3ff6a03e083cdd2822cae32b973252d393e464bcfbdfd5a2626279f3fb009e0c584f21",
      "networkId": 0,
      "chainId": 0
    },
    {
      "hash": "0x763bdefaeeb3d5599e4b22df6ebf8afd0a44144083fd70b11eb2e5ddd053300f",
      "blockHash": "0x407b5df104a5f0070333a6f286f3396e8ee27913a4dec4aa24550b7db5d66d08",
      "blockNumber": 115691,
      "transactionIndex": 2,
      "confirmations": null,
      "from": "0x514Cb503F290d5F2BE2d38163440f926781D47a1",
      "gasPrice": {
        "_hex": "0xba43b7400"
      },
      "gasLimit": {
        "_hex": "0x5208"
      },
      "to": "0xC47Aaa860008be6f65B58c6C6E02a84e666EfE31",
      "value": {
        "_hex": "0xf64bc8b25876190"
      },
      "nonce": 5,
      "data": "0x",
      "r": "0x76cdc9614c866fc316e512a7bb091fd56e02ffda8b25fd3d964d32a4b9d07e60",
      "s": "0x017c8c28048ee2a13041318f58602f48910656c4635e2852ac521fcd3ea3960c",
      "v": 27,
      "creates": null,
      "raw": "0xf86c05850ba43b740082520894c47aaa860008be6f65b58c6c6e02a84e666efe31880f64bc8b25876190801ba076cdc9614c866fc316e512a7bb091fd56e02ffda8b25fd3d964d32a4b9d07e60a0017c8c28048ee2a13041318f58602f48910656c4635e2852ac521fcd3ea3960c",
      "networkId": 0,
      "chainId": 0
    },
    {
      "hash": "0x0b9fe7326177412cca6094b17b429cb0746db42a284d0e5806bdb4e8b355b0bd",
      "blockHash": "0x407b5df104a5f0070333a6f286f3396e8ee27913a4dec4aa24550b7db5d66d08",
      "blockNumber": 115691,
      "transactionIndex": 3,
      "confirmations": null,
      "from": "0x676f38C13B01f0489cc4aC94F883fdCDE708C0de",
      "gasPrice": {
        "_hex": "0xba43b7400"
      },
      "gasLimit": {
        "_hex": "0x5208"
      },
      "to": "0xC47Aaa860008be6f65B58c6C6E02a84e666EfE31",
      "value": {
        "_hex": "0x1077b83e59666160"
      },
      "nonce": 1,
      "data": "0x",
      "r": "0x98107051a89980a88616452e4e79cabb814ca9def5d2c8b38345348fbee49043",
      "s": "0x6ccc9883916c39c040a0b2c4b9f92e2d52ec662765af8b5e7605a0ab7154bf17",
      "v": 27,
      "creates": null,
      "raw": "0xf86c01850ba43b740082520894c47aaa860008be6f65b58c6c6e02a84e666efe31881077b83e59666160801ba098107051a89980a88616452e4e79cabb814ca9def5d2c8b38345348fbee49043a06ccc9883916c39c040a0b2c4b9f92e2d52ec662765af8b5e7605a0ab7154bf17",
      "networkId": 0,
      "chainId": 0
    }
  ]
}