{
  "hash": "0x609c6d3a8d2d90da80871da09605ee2c94a338a034e4304446d51d4b4fe7f6c1",
  "parentHash": "0xee72d9cf0edbb63f8b07e13de7e8952481b5d2c30026841c121011f4b56a9e16",
  "number": 60147,
  "timestamp": 1439150122,
  "nonce": "0x11b0ae7947fbf929",
  "difficulty": 1739025622171,
  "gasLimit": {
    "_hex": "0x2fefd8"
  },
  "gasUsed": {
    "_hex": "0x546c"
  },
  "miner": "0xf927a40C8B7F6E07c5af7FA2155B4864a4112B13",
  "extraData": "0x476574682f76312e302e312f6c696e75782f676f312e342e32",
  "transactions": [
    {
      "hash": "0x278204054a1b5765a7e6d7ae541ed268c9b0e392e3a6c8774a1b65b79faf9cea",
      "blockHash": "0x609c6d3a8d2d90da80871da09605ee2c94a338a034e4304446d51d4b4fe7f6c1",
      "blockNumber": 60147,
      "transactionIndex": 0,
      "confirmations": null,
      "from": "0x3a7dB224aCaE17de7798797D82cdF8253017DFa8",
      "gasPrice": {
        "_hex": "0xd70623888"
      },
      "gasLimit": {
        "_hex": "0x55f0"
      },
      "to": "0x2910543Af39abA0Cd09dBb2D50200b3E800A63D2",
      "value": {
        "_hex": "0x56bc75e2d63100000"
      },
      "nonce": 1,
      "data": "0x454e5a574a554a3338",
      "r": "0xc711a63a7df8a5e7d8eedbea0155b69fe3ea74a588cb0048891d09d3c7c198d6",
      "s": "0x64698cc0cc54bee1659c393dac5edae7f6a3138a0cd81321ed6a2c1bc34f8266",
      "v": 27,
      "creates": null,
      "raw": "0xf87601850d706238888255f0942910543af39aba0cd09dbb2d50200b3e800a63d289056bc75e2d6310000089454e5a574a554a33381ba0c711a63a7df8a5e7d8eedbea0155b69fe3ea74a588cb0048891d09d3c7c198d6a064698cc0cc54bee1659c393dac5edae7f6a3138a0cd81321ed6a2c1bc34f8266",
      "networkId": 0,
      "chainId": 0
    }
  ]
}