{
  "hash": "0x58c37ee7bc88e4cf6f60c1cf66ce483308b0be49cadd4da9a800039032a4e5d2",
  "parentHash": "0xa7002824dcfe9012b11e19adadcac3b998b0807df9921d91860bd0ff58b6d310",
  "number": 62965,
  "timestamp": 1439196868,
  "nonce": "0x65889700df9b0004",
  "difficulty": 1793625588449,
  "gasLimit": {
    "_hex": "0x2fefd8"
  },
  "gasUsed": {
    "_hex": "0x5208"
  },
  "miner": "0x580992B51e3925e23280EfB93d3047C82f17E038",
  "extraData": "0x476574682f76312e302e312f6c696e75782f676f312e342e32",
  "transactions": [
    {
      "hash": "0xda91be03ef2a123f5c233cbbd80019364c24c46f259f51e30e3cf6d37bea3db9",
      "blockHash": "0x58c37ee7bc88e4cf6f60c1cf66ce483308b0be49cadd4da9a800039032a4e5d2",
      "blockNumber": 62965,
      "transactionIndex": 0,
      "confirmations": null,
      "from": "0x2910543Af39abA0Cd09dBb2D50200b3E800A63D2",
      "gasPrice": {
        "_hex": "0xd494a3b45"
      },
      "gasLimit": {
        "_hex": "0x5208"
      },
      "to": "0x49499dfa1398D64383743e1764036F63aF0f58fa",
      "value": {
        "_hex": "0x5a3387582c8bf8000"
      },
      "nonce": 119,
      "data": "0x",
      "r": "0xa2a27764f6df5ea417d4b7d0c82bee4561eb4f7bb93ff70ba7f50d82dbb52016",
      "s": "0x1f6da9f8880977d9fc2f0fce570e40f392f0e61ec1f9c9264996e4be326e121c",
      "v": 27,
      "creates": null,
      "raw": "0xf86d77850d494a3b458252089449499dfa1398d64383743e1764036f63af0f58fa8905a3387582c8bf8000801ba0a2a27764f6df5ea417d4b7d0c82bee4561eb4f7bb93ff70ba7f50d82dbb52016a01f6da9f8880977d9fc2f0fce570e40f392f0e61ec1f9c9264996e4be326e121c",
      "networkId": 0,
      "chainId": 0
    }
  ]
}