{
  "hash": "0xa613ef7646ad5c10bbe42474c9846481972031b3c56e576835f0e2ce8ffd3046",
  "parentHash": "0x304c7dd82c978bda7c62ff4142d5d6c442be8d22a491b290751ada2337404dbb",
  "number": 96335,
  "timestamp": 1439738691,
  "nonce": "0x8b5012cad6421dbf",
  "difficulty": 3676424842773,
  "gasLimit": {
    "_hex": "0x2fefd8"
  },
  "gasUsed": {
    "_hex": "0x5208"
  },
  "miner": "0xe6A7a1d47ff21B6321162AEA7C6CB457D5476Bca",
  "extraData": "0x476574682f76312e302e312d38326566323666362f6c696e75782f676f312e34",
  "transactions": [
    {
      "hash": "0x8f4a57ec0811cb75cbdc778026530f7ec86aceb3cfe5f9b62832267356623580",
      "blockHash": "0xa613ef7646ad5c10bbe42474c9846481972031b3c56e576835f0e2ce8ffd3046",
      "blockNumber": 96335,
      "transactionIndex": 0,
      "confirmations": null,
      "from": "0xD9666150A9dA92d9108198a4072970805a8B3428",
      "gasPrice": {
        "_hex": "0xd9b226c75"
      },
      "gasLimit": {
        "_hex": "0x5208"
      },
      "to": "0x32Be343B94f860124dC4fEe278FDCBD38C102D88",
      "value": {
        "_hex": "0x455f291df245f000"
      },
      "nonce": 17,
      "data": "0x",
      "r": "0x84ae452b424fa300ed5df8ab5755eb78e41b507130d41418964e9f53c7ce1189",
      "s": "0x5fe54e5957e9ab3d9a4fbfc1be01f3484c880b7b116fe5bec1d29b393500dadb",
      "v": 27,
      "creates": null,
      "raw": "0xf86c11850d9b226c758252089432be343b94f860124dc4fee278fdcbd38c102d8888455f291df245f000801ba084ae452b424fa300ed5df8ab5755eb78e41b507130d41418964e9f53c7ce1189a05fe54e5957e9ab3d9a4fbfc1be01f3484c880b7b116fe5bec1d29b393500dadb",
      "networkId": 0,
      "chainId": 0
    }
  ]
}