{
  "hash": "0x45d7bbb7857085542421a6774de31e95365e0fd952cfd0fab50d16da04c3f551",
  "parentHash": "0xe23da95f049062eeb9f6dabd59fbc6e68f5a1ce01bfd2620b6751a9334243fe9",
  "number": 59728,
  "timestamp": 1439142687,
  "nonce": "0x252fde202bf774f5",
  "difficulty": 1712986259267,
  "gasLimit": {
    "_hex": "0x2fefd8"
  },
  "gasUsed": {
    "_hex": "0x5208"
  },
  "miner": "0xd5A85B42F59351D806582F791600EA3e99811121",
  "extraData": "0x476574682f76312e302e312f6c696e75782f676f312e342e32",
  "transactions": [
    {
      "hash": "0x6c16525d51ccdce01641f4d166c3a681fddae2986804825a33e0059cadfa0601",
      "blockHash": "0x45d7bbb7857085542421a6774de31e95365e0fd952cfd0fab50d16da04c3f551",
      "blockNumber": 59728,
      "transactionIndex": 0,
      "confirmations": null,
      "from": "0xBD744E3F13D79B33F6c8E1d5E32F8E9BA2866c46",
      "gasPrice": {
        "_hex": "0xd5e59dcb9"
      },
      "gasLimit": {
        "_hex": "0x5208"
      },
      "to": "0xD2e57181beE0BF25a2E7D377EaCCec854Bd65334",
      "value": {
        "_hex": "0x1b1ae4d6e2ef500000"
      },
      "nonce": 12,
      "data": "0x",
      "r": "0x11d9a08ff63cdc35b143c91078890e85ae2f60ec8e0f11ea66a9b7a36955db77",
      "s": "0x3ffa37c8f26fbbe241cea0793e9f250bcd03efdee16d25f819671e5cc04a36cb",
      "v": 27,
      "creates": null,
      "raw": "0xf86d0c850d5e59dcb982520894d2e57181bee0bf25a2e7d377eaccec854bd65334891b1ae4d6e2ef500000801ba011d9a08ff63cdc35b143c91078890e85ae2f60ec8e0f11ea66a9b7a36955db77a03ffa37c8f26fbbe241cea0793e9f250bcd03efdee16d25f819671e5cc04a36cb",
      "networkId": 0,
      "chainId": 0
    }
  ]
}