{
  "hash": "0x11447b8ea9334033cb7ada08a31b5df7a14790bff185438af446131498950c6e",
  "parentHash": "0x30438138730958d9a89d7cfbe35b62f0c5d59f4a993b57501c14aafa115e44cf",
  "number": 49041,
  "timestamp": 1438966847,
  "nonce": "0x97688e04d683ea99",
  "difficulty": 1486531821375,
  "gasLimit": {
    "_hex": "0x244ec"
  },
  "gasUsed": {
    "_hex": "0xf87c"
  },
  "miner": "0xbb7B8287f3F0a933474a79eAe42CBCa977791171",
  "extraData": "0x476574682f4c5649562f76312e302e312f6c696e75782f676f312e342e32",
  "transactions": [
    {
      "hash": "0x2e3bcf0242f5eef5e83b44d74b8abd37a610a1726aa9bf0efc13a950eb9c0742",
      "blockHash": "0x11447b8ea9334033cb7ada08a31b5df7a14790bff185438af446131498950c6e",
      "blockNumber": 49041,
      "transactionIndex": 0,
      "confirmations": null,
      "from": "0xf057b019703A4cce4850A018131D8ED6369F6EFC",
      "gasPrice": {
        "_hex": "0xd8d1660c8"
      },
      "gasLimit": {
        "_hex": "0x15f90"
      },
      "to": "0x89138EC84Ff16104964e3B2f9b895dc194Bd0F96",
      "value": {
        "_hex": "0x45400a8fd5330000"
      },
      "nonce": 0,
      "data": "0x",
      "r": "0x566f44216c37fa7118a24cc3c21d5dee2ded890bb53b11ba225bb684488b8539",
      "s": "0x7c24829361909997c63ee4ce2cf5089033d8a7409bca4300425f71ac48d21430",
      "v": 27,
      "creates": null,
      "raw": "0xf86d80850d8d1660c883015f909489138ec84ff16104964e3b2f9b895dc194bd0f968845400a8fd5330000801ba0566f44216c37fa7118a24cc3c21d5dee2ded890bb53b11ba225bb684488b8539a07c24829361909997c63ee4ce2cf5089033d8a7409bca4300425f71ac48d21430",
      "networkId": 0,
      "chainId": 0
    },
    {
      "hash": "0x530083186094da8891df654ab6bfc44aa6d540047a550fe95b67b6e674ba7575",
      "blockHash": "0x11447b8ea9334033cb7ada08a31b5df7a14790bff185438af446131498950c6e",
      "blockNumber": 49041,
      "transactionIndex": 1,
      "confirmations": null,
      "from": "0xAae61E43CB0d0C96b30699F77E00D711d0a3979b",
      "gasPrice": {
        "_hex": "0xd1b3f806d"
      },
      "gasLimit": {
        "_hex": "0x15f90"
      },
      "to": "0xaed5c6263d084cFFc0a3fAD197702CecE3e9c3E3",
      "value": {
        "_hex": "0x29a2241af62c0000"
      },
      "nonce": 1,
      "data": "0x",
      "r": "0x21d0a3d3b4e855cfa5ebc5dffef9c0d511f8a63a5419b8ac21570b70572647d0",
      "s": "0x113646b84a2a7dada0934fd76fccb88cc0a82ecc3f06676ae7c290ee0e0437b3",
      "v": 27,
      "creates": null,
      "raw": "0xf86d01850d1b3f806d83015f9094aed5c6263d084cffc0a3fad197702cece3e9c3e38829a2241af62c0000801ba021d0a3d3b4e855cfa5ebc5dffef9c0d511f8a63a5419b8ac21570b70572647d0a0113646b84a2a7dada0934fd76fccb88cc0a82ecc3f06676ae7c290ee0e0437b3",
      "networkId": 0,
      "chainId": 0
    },
    {
      "hash": "0x75959e213e93736a3f1bcc56d514f8508fbc6c5aaeeeb81c2538080abf2a049f",
      "blockHash": "0x11447b8ea9334033cb7ada08a31b5df7a14790bff185438af446131498950c6e",
      "blockNumber": 49041,
      "transactionIndex": 2,
      "confirmations": null,
      "from": "0xE4324912D64ea3AEF76B3C2ff9dF82c7E13ae991",
      "gasPrice": {
        "_hex": "0xcda6329c4"
      },
      "gasLimit": {
        "_hex": "0x15f90"
      },
      "to": "0x2910543Af39abA0Cd09dBb2D50200b3E800A63D2",
      "value": {
        "_hex": "0x5150ae84a8cdf00000"
      },
      "nonce": 3,
      "data": "0x454e48565844513247",
      "r": "0xb0a1c208889fad7b4e720f88c0a35e28d958a50f79ce1e25658077cce1c49378",
      "s": "0x476701abf4520fd7a169a25b68d0968ac1f41e9c482375416a14a4e04501bd26",
      "v": 28,
      "creates": null,
      "raw": "0xf87703850cda6329c483015f90942910543af39aba0cd09dbb2d50200b3e800a63d2895150ae84a8cdf0000089454e485658445132471ca0b0a1c208889fad7b4e720f88c0a35e28d958a50f79ce1e25658077cce1c49378a0476701abf4520fd7a169a25b68d0968ac1f41e9c482375416a14a4e04501bd26",
      "networkId": 0,
      "chainId": 0
    }
  ]
}