{
  "hash": "0xbeb8ef31a374f3327df36e6c24836afa6a78f83c36dc0036c58f906d207ac919",
  "parentHash": "0xb9966fc4e364e0f72520418ab3f541d7937b5582a94433ad01e9f86b43726a2e",
  "number": 86609,
  "timestamp": 1439580468,
  "nonce": "0x7e35e467e8fd3253",
  "difficulty": 2920208064528,
  "gasLimit": {
    "_hex": "0x2fefd8"
  },
  "gasUsed": {
    "_hex": "0xa410"
  },
  "miner": "0xe6A7a1d47ff21B6321162AEA7C6CB457D5476Bca",
  "extraData": "0x476574682f76312e302e312d38326566323666362f6c696e75782f676f312e34",
  "transactions": [
    {
      "hash": "0x6f2f7211b57116db8e42edb05d7d0da19147dd7d3d0d883e0c25be6b42ace345",
      "blockHash": "0xbeb8ef31a374f3327df36e6c24836afa6a78f83c36dc0036c58f906d207ac919",
      "blockNumber": 86609,
      "transactionIndex": 0,
      "confirmations": null,
      "from": "0x120A270bbC009644e35F0bB6ab13f95b8199c4ad",
      "gasPrice": {
        "_hex": "0xd88c39e80"
      },
      "gasLimit": {
        "_hex": "0x3d090"
      },
      "to": "0xc5623FA5c297c05c2d965A336b2068CfA0e567FA",
      "value": {
        "_hex": "0x1a5fe2a9121a120c00"
      },
      "nonce": 478,
      "data": "0x",
      "r": "0x532285b285b262ec09b767a3c84e5ea25d13eb9da55b9828518a0aecd7dd0d24",
      "s": "0x24c22eb0dfee34b81f6e7c224b1fe20632cc9ddefe0c8e70ace4d7af2fde0407",
      "v": 28,
      "creates": null,
      "raw": "0xf8708201de850d88c39e808303d09094c5623fa5c297c05c2d965a336b2068cfa0e567fa891a5fe2a9121a120c00801ca0532285b285b262ec09b767a3c84e5ea25d13eb9da55b9828518a0aecd7dd0d24a024c22eb0dfee34b81f6e7c224b1fe20632cc9ddefe0c8e70ace4d7af2fde0407",
      "networkId": 0,
      "chainId": 0
    },
    {
      "hash": "0xd93bda5478a59f978cbb6518b39d5a0a1975dc4711786a180c64a962be237fbd",
      "blockHash": "0xbeb8ef31a374f3327df36e6c24836afa6a78f83c36dc0036c58f906d207ac919",
      "blockNumber": 86609,
      "transactionIndex": 1,
      "confirmations": null,
      "from": "0x120A270bbC009644e35F0bB6ab13f95b8199c4ad",
      "gasPrice": {
        "_hex": "0xd88c39e80"
      },
      "gasLimit": {
        "_hex": "0x3d090"
      },
      "to": "0xFbc92cE518a6CA6341B08b4468880Cc9Dd61a027",
      "value": {
        "_hex": "0x1a39bd055e59c9a400"
      },
      "nonce": 479,
      "data": "0x",
      "r": "0x4e9aabb6bad3282b1975d0616d9f7eab3d3d1ecd0ce813c227b61098271e414f",
      "s": "0x3bc3b2195a7a035033775fddb900d8d9d167f99ddde4b2c5720bbf98ddc76fed",
      "v": 27,
      "creates": null,
      "raw": "0xf8708201df850d88c39e808303d09094fbc92ce518a6ca6341b08b4468880cc9dd61a027891a39bd055e59c9a400801ba04e9aabb6bad3282b1975d0616d9f7eab3d3d1ecd0ce813c227b61098271e414fa03bc3b2195a7a035033775fddb900d8d9d167f99ddde4b2c5720bbf98ddc76fed",
      "networkId": 0,
      "chainId": 0
    }
  ]
}