{
  "hash": "0x8ad43a3d1149c8df74041e1aaf4a650c682806e87354d7d4b500c091363dcbe6",
  "parentHash": "0xb598810d51eb7058a31c6c0540d917865b53ef82af5d1741a62bdf3ef24084d7",
  "number": 80981,
  "timestamp": 1439494092,
  "nonce": "0x237a5d83aaa8a07a",
  "difficulty": 2451118656337,
  "gasLimit": {
    "_hex": "0x2fefd8"
  },
  "gasUsed": {
    "_hex": "0x5208"
  },
  "miner": "0xe6A7a1d47ff21B6321162AEA7C6CB457D5476Bca",
  "extraData": "0x476574682f76312e302e312d38326566323666362f6c696e75782f676f312e34",
  "transactions": [
    {
      "hash": "0x274993dc7909a944acbe52c77cfe9f8afc0ce4d2177f2395e5946a56932453e5",
      "blockHash": "0x8ad43a3d1149c8df74041e1aaf4a650c682806e87354d7d4b500c091363dcbe6",
      "blockNumber": 80981,
      "transactionIndex": 0,
      "confirmations": null,
      "from": "0x16919885ae5b483cFFd18E00783c6352297bAFbA",
      "gasPrice": {
        "_hex": "0x746a528800"
      },
      "gasLimit": {
        "_hex": "0x5b04"
      },
      "to": "0x2910543Af39abA0Cd09dBb2D50200b3E800A63D2",
      "value": {
        "_hex": "0x6f05b59d3b20000"
      },
      "nonce": 2,
      "data": "0x",
      "r": "0x00ad3f212eef04b44b11401c722c52b47428cb3de8918388fe5346cf56608f11",
      "s": "0xef015cc99e3abf555d10a2e61a6b0e35ce22e4bd9562405bd27eca4a9eef7654",
      "v": 27,
      "creates": null,
      "raw": "0xf86b0285746a528800825b04942910543af39aba0cd09dbb2d50200b3e800a63d28806f05b59d3b20000801b9fad3f212eef04b44b11401c722c52b47428cb3de8918388fe5346cf56608f11a0ef015cc99e3abf555d10a2e61a6b0e35ce22e4bd9562405bd27eca4a9eef7654",
      "networkId": 0,
      "chainId": 0
    }
  ]
}