{
  "hash": "0x30593d5b4d8071c9835bd55447a4f7ff2dc7342e87043ba81d5a08217744f447",
  "parentHash": "0xb860dc19a969afb02b453915a865c6343446b156873762b6d29459bb28e187a9",
  "number": 97081,
  "timestamp": 1439750459,
  "nonce": "0xec25a814b909cb89",
  "difficulty": 3759600790331,
  "gasLimit": {
    "_hex": "0x2fefd8"
  },
  "gasUsed": {
    "_hex": "0x5208"
  },
  "miner": "0xe6A7a1d47ff21B6321162AEA7C6CB457D5476Bca",
  "extraData": "0x476574682f76312e302e312d38326566323666362f6c696e75782f676f312e34",
  "transactions": [
    {
      "hash": "0xcf1ad0758e1b50b95c82d021fdc4fa93fe4806036c5d3337e6d299d489ddeaa6",
      "blockHash": "0x30593d5b4d8071c9835bd55447a4f7ff2dc7342e87043ba81d5a08217744f447",
      "blockNumber": 97081,
      "transactionIndex": 0,
      "confirmations": null,
      "from": "0xa70a9a7040d542C632D8e0bE7c5513A8a5Bbc752",
      "gasPrice": {
        "_hex": "0xe058d3ed2"
      },
      "gasLimit": {
        "_hex": "0x5208"
      },
      "to": "0x32Be343B94f860124dC4fEe278FDCBD38C102D88",
      "value": {
        "_hex": "0x455f134a02cc7000"
      },
      "nonce": 174,
      "data": "0x",
      "r": "0x255c5b13aa3ddf385cd9a46953b3a27734494767ee1a3ab11784c757636d9193",
      "s": "0x68f63b7c26d4e6f14477cfb842629ecfc988c154e10ab13d50ab4df20afb7943",
      "v": 28,
      "creates": null,
      "raw": "0xf86d81ae850e058d3ed28252089432be343b94f860124dc4fee278fdcbd38c102d8888455f134a02cc7000801ca0255c5b13aa3ddf385cd9a46953b3a27734494767ee1a3ab11784c757636d9193a068f63b7c26d4e6f14477cfb842629ecfc988c154e10ab13d50ab4df20afb7943",
      "networkId": 0,
      "chainId": 0
    }
  ]
}