{
  "hash": "0x88751d0bccd847878b8736aa06e8a43926913dea68aa86d5919dc9bfb6ead5e0",
  "parentHash": "0x84f69164114a36b0a94ec74047b365d3568fbe7dcf54306c1adf637e5f626f1c",
  "number": 47470,
  "timestamp": 1438940989,
  "nonce": "0xc552be67fa8bd9a0",
  "difficulty": 1450242381692,
  "gasLimit": {
    "_hex": "0xc25c"
  },
  "gasUsed": {
    "_hex": "0x5208"
  },
  "miner": "0x47ff6576639c2e94762eA5443978D7681C0E78DC",
  "extraData": "0x476574682f76312e302e312f6c696e75782f676f312e342e32",
  "transactions": [
    {
      "hash": "0xf5e42dcc8971362f054b609d64893e47325403b67555f5e187dd667e3096eb6e",
      "blockHash": "0x88751d0bccd847878b8736aa06e8a43926913dea68aa86d5919dc9bfb6ead5e0",
      "blockNumber": 47470,
      "transactionIndex": 0,
      "confirmations": null,
      "from": "0xe6A7a1d47ff21B6321162AEA7C6CB457D5476Bca",
      "gasPrice": {
        "_hex": "0x1ac1dd6a20"
      },
      "gasLimit": {
        "_hex": "0x5208"
      },
      "to": "0xF9bFab280Cbea21E34356b54A145aca9786A7a19",
      "value": {
        "_hex": "0x1ebd6ce1b9184e6f0"
      },
      "nonce": 157,
      "data": "0x",
      "r": "0x2b0114105b046747189e4ca06f509b40faf39ccb5f68c8929d15f4669b51d956",
      "s": "0x0c859c5af9f2f31c665e41705b0cadccd9eb7cf66702aefda87bb5c3f6679088",
      "v": 28,
      "creates": null,
      "raw": "0xf86e819d851ac1dd6a2082520894f9bfab280cbea21e34356b54a145aca9786a7a198901ebd6ce1b9184e6f0801ca02b0114105b046747189e4ca06f509b40faf39ccb5f68c8929d15f4669b51d956a00c859c5af9f2f31c665e41705b0cadccd9eb7cf66702aefda87bb5c3f6679088",
      "networkId": 0,
      "chainId": 0
    }
  ]
}