{
  "hash": "0x2a7bd14ce6ad3c2b2c2fb87ac252474c89a23edcca09eb47d6d3c1aa15b352fe",
  "parentHash": "0xd47a007fafaab4044a9a0fd34742944120fb4b6a53e909e8480ad218f6d4528d",
  "number": 86022,
  "timestamp": 1439572355,
  "nonce": "0x5f47c8b2eee0211f",
  "difficulty": 2788037998629,
  "gasLimit": {
    "_hex": "0x2fefd8"
  },
  "gasUsed": {
    "_hex": "0x5208"
  },
  "miner": "0x21D46e5e1C37D3fa2157A393Fa444EafE63646Fa",
  "extraData": "0x",
  "transactions": [
    {
      "hash": "0x8e45a8e3bcfde08409a3817aa5f4629ee698343d65b142f2fb22092fe7302457",
      "blockHash": "0x2a7bd14ce6ad3c2b2c2fb87ac252474c89a23edcca09eb47d6d3c1aa15b352fe",
      "blockNumber": 86022,
      "transactionIndex": 0,
      "confirmations": null,
      "from": "0xddE59cc89c492e09fA53898E268719B4fea02FAB",
      "gasPrice": {
        "_hex": "0xd6ef216d8"
      },
      "gasLimit": {
        "_hex": "0x5208"
      },
      "to": "0x32Be343B94f860124dC4fEe278FDCBD38C102D88",
      "value": {
        "_hex": "0x1a3509a329c27000000"
      },
      "nonce": 0,
      "data": "0x",
      "r": "0x18504acc9bc43cdb8caad808a6b1e84a984c371420fc99b8603cfae9513c18f1",
      "s": "0x38c4f16c8103969f28e3e22cc51f20baa725bb4c681a982815f0097ff2c959e6",
      "v": 27,
      "creates": null,
      "raw": "0xf86e80850d6ef216d88252089432be343b94f860124dc4fee278fdcbd38c102d888a01a3509a329c27000000801ba018504acc9bc43cdb8caad808a6b1e84a984c371420fc99b8603cfae9513c18f1a038c4f16c8103969f28e3e22cc51f20baa725bb4c681a982815f0097ff2c959e6",
      "networkId": 0,
      "chainId": 0
    }
  ]
}