{
  "hash": "0xfa962450f36496e05b0727cb4a306d7eabdbc748d8a86de1164f0d9da65d7a44",
  "parentHash": "0xe4c908b4bec13ae967f35cf9a54cbfda6e3a2c800e3cd22bc78b22c371e2cf7d",
  "number": 110638,
  "timestamp": 1439977010,
  "nonce": "0x99db881a4e480aa6",
  "difficulty": 4381897400159,
  "gasLimit": {
    "_hex": "0x2fefd8"
  },
  "gasUsed": {
    "_hex": "0x5208"
  },
  "miner": "0xe6A7a1d47ff21B6321162AEA7C6CB457D5476Bca",
  "extraData": "0x476574682f76312e302e312d38326566323666362f6c696e75782f676f312e34",
  "transactions": [
    {
      "hash": "0xebc248388919ffea0d577a0b6f5b6bd2dd6db885def5d2e0255d8e287b5e0db4",
      "blockHash": "0xfa962450f36496e05b0727cb4a306d7eabdbc748d8a86de1164f0d9da65d7a44",
      "blockNumber": 110638,
      "transactionIndex": 0,
      "confirmations": null,
      "from": "0x32Be343B94f860124dC4fEe278FDCBD38C102D88",
      "gasPrice": {
        "_hex": "0xdd927fa38"
      },
      "gasLimit": {
        "_hex": "0x5208"
      },
      "to": "0x585375840C778D2D3532B85971bD990621c72153",
      "value": {
        "_hex": "0x2bbb5a02c338ae0000"
      },
      "nonce": 1291,
      "data": "0x",
      "r": "0x439aa550b74eeba0699265f75db9d0e096c75bd7f937a4b33b0cafe98ffb488d",
      "s": "0x16f5481a5b719fb976cb8caf216b1fcdc7ff182498e45e31cbbdc0b6d738f3ea",
      "v": 27,
      "creates": null,
      "raw": "0xf86f82050b850dd927fa3882520894585375840c778d2d3532b85971bd990621c72153892bbb5a02c338ae0000801ba0439aa550b74eeba0699265f75db9d0e096c75bd7f937a4b33b0cafe98ffb488da016f5481a5b719fb976cb8caf216b1fcdc7ff182498e45e31cbbdc0b6d738f3ea",
      "networkId": 0,
      "chainId": 0
    }
  ]
}