{
  "hash": "0x160c8eb4b18de49ca136d5f64816af49c73ce16cbe4a1246b83baa3cfba24a83",
  "parentHash": "0x2ebc8b2891b067866dbc5a5b7206a1f5f9eaef5b8ff0513d8b57e8e832f54c98",
  "number": 107857,
  "timestamp": 1439929885,
  "nonce": "0x2c7225762a77371c",
  "difficulty": 4389775961296,
  "gasLimit": {
    "_hex": "0x2fefd8"
  },
  "gasUsed": {
    "_hex": "0xa410"
  },
  "miner": "0xe6A7a1d47ff21B6321162AEA7C6CB457D5476Bca",
  "extraData": "0x476574682f76312e302e312d38326566323666362f6c696e75782f676f312e34",
  "transactions": [
    {
      "hash": "0xd79f93c33d71a8a753655803f43d36a8462b30826ba3dbf55b3fbdc270708e3d",
      "blockHash": "0x160c8eb4b18de49ca136d5f64816af49c73ce16cbe4a1246b83baa3cfba24a83",
      "blockNumber": 107857,
      "transactionIndex": 0,
      "confirmations": null,
      "from": "0x97B9A4CDBD07f595BE3B5bFC82fA8bFbE4a9d0D9",
      "gasPrice": {
        "_hex": "0x10f62132299"
      },
      "gasLimit": {
        "_hex": "0x55f0"
      },
      "to": "0x2b176421eEBBf303fa94aD4fE78362Fa9e4Ca693",
      "value": {
        "_hex": "0x6f05b59d3b20000"
      },
      "nonce": 1,
      "data": "0x",
      "r": "0x4003cb2a34881ae368c2e8fb753162247ec4c94370e690ed5162c8dcd185b71b",
      "s": "0x19681523b9657f7ecd362adb27b813c2f2cfffc3d6ff32ea088c1d70293e4720",
      "v": 27,
      "creates": null,
      "raw": "0xf86d0186010f621322998255f0942b176421eebbf303fa94ad4fe78362fa9e4ca6938806f05b59d3b20000801ba04003cb2a34881ae368c2e8fb753162247ec4c94370e690ed5162c8dcd185b71ba019681523b9657f7ecd362adb27b813c2f2cfffc3d6ff32ea088c1d70293e4720",
      "networkId": 0,
      "chainId": 0
    },
    {
      "hash": "0x6ce6b90f409cb74351c9e633eedff5d3b5bc1f815169eea12e0f3ea0b2758ba7",
      "blockHash": "0x160c8eb4b18de49ca136d5f64816af49c73ce16cbe4a1246b83baa3cfba24a83",
      "blockNumber": 107857,
      "transactionIndex": 1,
      "confirmations": null,
      "from": "0x0D4EcC7d750180EBf4A9Df728B6669B5Bceb5E40",
      "gasPrice": {
        "_hex": "0xcebc3e27d"
      },
      "gasLimit": {
        "_hex": "0x5208"
      },
      "to": "0x32Be343B94f860124dC4fEe278FDCBD38C102D88",
      "value": {
        "_hex": "0x455f6d956fee9000"
      },
      "nonce": 85,
      "data": "0x",
      "r": "0x86791172a166276cedc6684259794213ed8d0f467fc28cf56d66e3829b7d99e2",
      "s": "0x7eec9c06719d15d8e95dd24b7457e52600351bbbdc485c33640f74aa6517b017",
      "v": 27,
      "creates": null,
      "raw": "0xf86c55850cebc3e27d8252089432be343b94f860124dc4fee278fdcbd38c102d8888455f6d956fee9000801ba086791172a166276cedc6684259794213ed8d0f467fc28cf56d66e3829b7d99e2a07eec9c06719d15d8e95dd24b7457e52600351bbbdc485c33640f74aa6517b017",
      "networkId": 0,
      "chainId": 0
    }
  ]
}