{
  "hash": "0x1c83f71188af85e3ca879d2984160744570eb21c7f8659565f640c476f92534c",
  "parentHash": "0x6d0b43949202599cad178c87c05c4769ecae92ab4cd6e641c90dbc0986507c8a",
  "number": 81197,
  "timestamp": 1439497648,
  "nonce": "0x4ad399671a1f44e2",
  "difficulty": 2455847439078,
  "gasLimit": {
    "_hex": "0x2fefd8"
  },
  "gasUsed": {
    "_hex": "0x5208"
  },
  "miner": "0xf927a40C8B7F6E07c5af7FA2155B4864a4112B13",
  "extraData": "0x",
  "transactions": [
    {
      "hash": "0xd6f8d7e3c9b566e0454f9fe6f524c2a036b7d8efba84af424687589c93e50ca2",
      "blockHash": "0x1c83f71188af85e3ca879d2984160744570eb21c7f8659565f640c476f92534c",
      "blockNumber": 81197,
      "transactionIndex": 0,
      "confirmations": null,
      "from": "0x2910543Af39abA0Cd09dBb2D50200b3E800A63D2",
      "gasPrice": {
        "_hex": "0xd86e74f98"
      },
      "gasLimit": {
        "_hex": "0x5208"
      },
      "to": "0xDE72E29D65eAabbD236b21c1d59a486c19AbDad5",
      "value": {
        "_hex": "0xdcef33a6f838000"
      },
      "nonce": 448,
      "data": "0x",
      "r": "0x702cb4c7fc921d96940014befc357f54ccc78406537e56736b98c372154008d4",
      "s": "0x475b825e1d738341f97ce367ab0f5a0af4323335252ebf45c9138f936808e186",
      "v": 28,
      "creates": null,
      "raw": "0xf86e8201c0850d86e74f9882520894de72e29d65eaabbd236b21c1d59a486c19abdad5880dcef33a6f838000801ca0702cb4c7fc921d96940014befc357f54ccc78406537e56736b98c372154008d4a0475b825e1d738341f97ce367ab0f5a0af4323335252ebf45c9138f936808e186",
      "networkId": 0,
      "chainId": 0
    }
  ]
}