{
  "hash": "0xab82c095205ab57844e4b07f4ad4cb58c7ca2751994e3e34ad3b6178d6f9a9e6",
  "parentHash": "0xcf6b620c7559aff73c25fc71193f6794e70f26063bcdb8e4504235db4fe1b2fd",
  "number": 91122,
  "timestamp": 1439650828,
  "nonce": "0x568d86d66bfdda79",
  "difficulty": 3433961483697,
  "gasLimit": {
    "_hex": "0x2fefd8"
  },
  "gasUsed": {
    "_hex": "0x5208"
  },
  "miner": "0xeB1325C8D9d3ea8D74aC11F4B00F1B2367686319",
  "extraData": "0x476574682f76312e302e312f77696e646f77732f676f312e342e32",
  "transactions": [
    {
      "hash": "0xbb0c2992c7d6b1118530cb842aa389b956ea7671701301e21cb104831e889ea3",
      "blockHash": "0xab82c095205ab57844e4b07f4ad4cb58c7ca2751994e3e34ad3b6178d6f9a9e6",
      "blockNumber": 91122,
      "transactionIndex": 0,
      "confirmations": null,
      "from": "0x8293b65bD915B9FF87F6aDAb479da2e5b6633fDB",
      "gasPrice": {
        "_hex": "0xcec389583"
      },
      "gasLimit": {
        "_hex": "0x15f90"
      },
      "to": "0x9f78552704fe7e52cC7C3853534aA2C3cf580D54",
      "value": {
        "_hex": "0x4563918244f40000"
      },
      "nonce": 14,
      "data": "0x",
      "r": "0xb676db4298be7a0478ef68558e0b660c6857f29e76261043efa113ccb4b68bb4",
      "s": "0x3f8488d40564175ae1a28d5f38c554730221e1de43170bd766fb9da8f4c9c3c8",
      "v": 27,
      "creates": null,
      "raw": "0xf86d0e850cec38958383015f90949f78552704fe7e52cc7c3853534aa2c3cf580d54884563918244f40000801ba0b676db4298be7a0478ef68558e0b660c6857f29e76261043efa113ccb4b68bb4a03f8488d40564175ae1a28d5f38c554730221e1de43170bd766fb9da8f4c9c3c8",
      "networkId": 0,
      "chainId": 0
    }
  ]
}