{
  "hash": "0xdd62a1b286db46a63cea9447069005f7bf0fc9810889b011ac46707905f179f7",
  "parentHash": "0x8d38d0b5ca5c0826be858f44f2b706c4d73f758814c3166f1751cd48754c0478",
  "number": 81285,
  "timestamp": 1439499244,
  "nonce": "0x69a8c2e2d08df2f5",
  "difficulty": 2448637414670,
  "gasLimit": {
    "_hex": "0x2fefd8"
  },
  "gasUsed": {
    "_hex": "0x5208"
  },
  "miner": "0x0eDEd3DA479d0beF8eeC92A76644D3f4E3C177f7",
  "extraData": "0x476574682f76312e302e312f6c696e75782f676f312e342e32",
  "transactions": [
    {
      "hash": "0x829da21fdb2f593de034caafb5d14acd6c26d1427957712ed89385dc03362afa",
      "blockHash": "0xdd62a1b286db46a63cea9447069005f7bf0fc9810889b011ac46707905f179f7",
      "blockNumber": 81285,
      "transactionIndex": 0,
      "confirmations": null,
      "from": "0xb583f9403De6C5B2c83D7e2DE9928331176071b8",
      "gasPrice": {
        "_hex": "0xdefeecb13"
      },
      "gasLimit": {
        "_hex": "0x5208"
      },
      "to": "0x32Be343B94f860124dC4fEe278FDCBD38C102D88",
      "value": {
        "_hex": "0x5684ab93662740000"
      },
      "nonce": 10,
      "data": "0x",
      "r": "0x50fd2800b111e04cc2c8d60fcf2471b407db94faaf2e3d570b31fa37d4fce880",
      "s": "0x08d5a9456cbad52ee1f8e0a5e0f166d4c691c7d917506139375c939a3d408b32",
      "v": 28,
      "creates": null,
      "raw": "0xf86d0a850defeecb138252089432be343b94f860124dc4fee278fdcbd38c102d888905684ab93662740000801ca050fd2800b111e04cc2c8d60fcf2471b407db94faaf2e3d570b31fa37d4fce880a008d5a9456cbad52ee1f8e0a5e0f166d4c691c7d917506139375c939a3d408b32",
      "networkId": 0,
      "chainId": 0
    }
  ]
}