{
  "hash": "0xb6d1af5739ba41e836302ba0e5c3363e803d46abef982642442e0c3a7566317b",
  "parentHash": "0x300402f7a51be5d1d616bf75934a5a6c429f3a5d6552e840d5cacb99acfe54e5",
  "number": 85258,
  "timestamp": 1439560789,
  "nonce": "0x2977a201c073714d",
  "difficulty": 2750430161970,
  "gasLimit": {
    "_hex": "0x2fefd8"
  },
  "gasUsed": {
    "_hex": "0xa410"
  },
  "miner": "0x55bAf64fc9eAccFFd7Cc643BB61142E1C6ac093e",
  "extraData": "0x",
  "transactions": [
    {
      "hash": "0xbf36a3937f52652b2e6c3c77ce8d6573aa54359dce19b7d3c4b588154dfb8e55",
      "blockHash": "0xb6d1af5739ba41e836302ba0e5c3363e803d46abef982642442e0c3a7566317b",
      "blockNumber": 85258,
      "transactionIndex": 0,
      "confirmations": null,
      "from": "0x2f86ba8019945f39edE131D38d4d8780884DA553",
      "gasPrice": {
        "_hex": "0xda32a730c"
      },
      "gasLimit": {
        "_hex": "0x5208"
      },
      "to": "0x32Be343B94f860124dC4fEe278FDCBD38C102D88",
      "value": {
        "_hex": "0x3635a1c82369c00000"
      },
      "nonce": 9,
      "data": "0x",
      "r": "0x85a5b17bd6a7446101d2bbacaf0c23310a746332a9f87a097409e7895abaebae",
      "s": "0x4bb1c1f1b789e92669533ee3c072d7dcdc4d70bb52732622c4c0de9248d2f22e",
      "v": 27,
      "creates": null,
      "raw": "0xf86d09850da32a730c8252089432be343b94f860124dc4fee278fdcbd38c102d88893635a1c82369c00000801ba085a5b17bd6a7446101d2bbacaf0c23310a746332a9f87a097409e7895abaebaea04bb1c1f1b789e92669533ee3c072d7dcdc4d70bb52732622c4c0de9248d2f22e",
      "networkId": 0,
      "chainId": 0
    },
    {
      "hash": "0x17a5a172599c18ac0bf622e8cf4a353912a9921599e9efc538c5701ef9c7ecb6",
      "blockHash": "0xb6d1af5739ba41e836302ba0e5c3363e803d46abef982642442e0c3a7566317b",
      "blockNumber": 85258,
      "transactionIndex": 1,
      "confirmations": null,
      "from": "0xB67b6BB30Bb68ED96f23f1fB8C6Da01B3C37F6D4",
      "gasPrice": {
        "_hex": "0xda32a730c"
      },
      "gasLimit": {
        "_hex": "0x5208"
      },
      "to": "0x32Be343B94f860124dC4fEe278FDCBD38C102D88",
      "value": {
        "_hex": "0xdca948a6a64bc00"
      },
      "nonce": 4,
      "data": "0x",
      "r": "0x2a237668ba38553bd0fb422546e1e369966001a789a0e6f16bb7eab3466ef140",
      "s": "0x7150788dbede7e0ecce690b83cf5723005a3359b237a00f68fbf143a6c71d742",
      "v": 27,
      "creates": null,
      "raw": "0xf86c04850da32a730c8252089432be343b94f860124dc4fee278fdcbd38c102d88880dca948a6a64bc00801ba02a237668ba38553bd0fb422546e1e369966001a789a0e6f16bb7eab3466ef140a07150788dbede7e0ecce690b83cf5723005a3359b237a00f68fbf143a6c71d742",
      "networkId": 0,
      "chainId": 0
    }
  ]
}