{
  "hash": "0x60234b883ed1771909eb6b253adcce32e472fa5c70e6787796ca4558ac07cf7a",
  "parentHash": "0x9456acb348cdf869545d1632149511f105c9115e1564e412054e2628a0080876",
  "number": 61084,
  "timestamp": 1439166477,
  "nonce": "0x2925ce722332a59e",
  "difficulty": 1727828837756,
  "gasLimit": {
    "_hex": "0x2fefd8"
  },
  "gasUsed": {
    "_hex": "0x5208"
  },
  "miner": "0x02020D22dCF88f5eDd66B382D7da019F161fB7e3",
  "extraData": "0x",
  "transactions": [
    {
      "hash": "0x0786ef2e6b01ee773b7569051581068fb3f3cd4a7bb8fa1fa8e6d88815bcbfc9",
      "blockHash": "0x60234b883ed1771909eb6b253adcce32e472fa5c70e6787796ca4558ac07cf7a",
      "blockNumber": 61084,
      "transactionIndex": 0,
      "confirmations": null,
      "from": "0x2910543Af39abA0Cd09dBb2D50200b3E800A63D2",
      "gasPrice": {
        "_hex": "0xdd07bf3b3"
      },
      "gasLimit": {
        "_hex": "0x5208"
      },
      "to": "0xD3AAe361172c802BC03Ab6779a56AfE15D3608C5",
      "value": {
        "_hex": "0xcff56a1b273a8000"
      },
      "nonce": 97,
      "data": "0x",
      "r": "0xbb8c2cb2bed5a40f277f9211621499568be70d2b573cc5eca5291fd3768370a7",
      "s": "0x750bbd45ccd4644bf7aaec11af7bf2a23932cbc58af551098de3426db102c055",
      "v": 28,
      "creates": null,
      "raw": "0xf86c61850dd07bf3b382520894d3aae361172c802bc03ab6779a56afe15d3608c588cff56a1b273a8000801ca0bb8c2cb2bed5a40f277f9211621499568be70d2b573cc5eca5291fd3768370a7a0750bbd45ccd4644bf7aaec11af7bf2a23932cbc58af551098de3426db102c055",
      "networkId": 0,
      "chainId": 0
    }
  ]
}