{
  "hash": "0x7199fb98f209ec2580a3197012d7f773321e6fb96d8430bca726e6e41cbc1cad",
  "parentHash": "0x2cc1e91ebf7c7976e45d726dcca6e1e50f53457e899b72da39a6651124f7c204",
  "number": 62672,
  "timestamp": 1439192443,
  "nonce": "0x4e09fd99f8359d81",
  "difficulty": 1768468310635,
  "gasLimit": {
    "_hex": "0x2fe3de"
  },
  "gasUsed": {
    "_hex": "0xddfd"
  },
  "miner": "0xAFBF38e5b677DCC0D839e88c5dd2521ff45d0511",
  "extraData": "0x476574682f76312e302e302d34323331646533392f6c696e75782f676f312e34",
  "transactions": [
    {
      "hash": "0x0abfe32579dc694ccd0fd189d9dff58c15cd2972309cc220bca54373f82bc03f",
      "blockHash": "0x7199fb98f209ec2580a3197012d7f773321e6fb96d8430bca726e6e41cbc1cad",
      "blockNumber": 62672,
      "transactionIndex": 0,
      "confirmations": null,
      "from": "0xFc39Be41094b1997D2169E8264c2C3BAA6c99bc4",
      "gasPrice": {
        "_hex": "0x10b89a306a6"
      },
      "gasLimit": {
        "_hex": "0x61a80"
      },
      "to": "0x020522bF9B8eD6FF41E2fa6765a17E20E2767D64",
      "value": {
        "_hex": "0x56bc75e2d63100000"
      },
      "nonce": 6,
      "data": "0x",
      "r": "0xa8c0aba7529be7ffde1f681e5c7b689e34a425863407a40d0b29d0356f54169c",
      "s": "0x1889db534ce3e9ef8280714820b0a88aa7388556e5d760ccd58bfb229d3d0ebd",
      "v": 28,
      "creates": null,
      "raw": "0xf86f0686010b89a306a683061a8094020522bf9b8ed6ff41e2fa6765a17e20e2767d6489056bc75e2d63100000801ca0a8c0aba7529be7ffde1f681e5c7b689e34a425863407a40d0b29d0356f54169ca01889db534ce3e9ef8280714820b0a88aa7388556e5d760ccd58bfb229d3d0ebd",
      "networkId": 0,
      "chainId": 0
    }
  ]
}