{
  "hash": "0xb636c1d740db3c30c68af72f87507609a2a20f06ce4d45662e1201bcd9f124f8",
  "parentHash": "0x78de4a49a9623ad119feeb4c1b47647add169b3aea5bb54e1f1892ac4bf7a6f3",
  "number": 86733,
  "timestamp": 1439582104,
  "nonce": "0x8e2fe8d63b4288f7",
  "difficulty": 2948821834775,
  "gasLimit": {
    "_hex": "0x2fefd8"
  },
  "gasUsed": {
    "_hex": "0xa410"
  },
  "miner": "0xe6A7a1d47ff21B6321162AEA7C6CB457D5476Bca",
  "extraData": "0x476574682f76312e302e312d38326566323666362f6c696e75782f676f312e34",
  "transactions": [
    {
      "hash": "0x9b217166767219a35248c2aa1b0b4c4d5ae21eb18940baf53c0040157865de9c",
      "blockHash": "0xb636c1d740db3c30c68af72f87507609a2a20f06ce4d45662e1201bcd9f124f8",
      "blockNumber": 86733,
      "transactionIndex": 0,
      "confirmations": null,
      "from": "0x8d304933a1F93F268bFDcFF9FFE6846a75167279",
      "gasPrice": {
        "_hex": "0xd61858e33"
      },
      "gasLimit": {
        "_hex": "0x5208"
      },
      "to": "0x32Be343B94f860124dC4fEe278FDCBD38C102D88",
      "value": {
        "_hex": "0x2fad219aeab5800"
      },
      "nonce": 5,
      "data": "0x",
      "r": "0xf5d93054ace82ec9d68f7b096280c0fca1c424f3955f7094d6516663b0878c28",
      "s": "0x24e3ca8cc444aba257ffc09341a56566e1cb1b02d73ba3db143db00f39c23130",
      "v": 28,
      "creates": null,
      "raw": "0xf86c05850d61858e338252089432be343b94f860124dc4fee278fdcbd38c102d888802fad219aeab5800801ca0f5d93054ace82ec9d68f7b096280c0fca1c424f3955f7094d6516663b0878c28a024e3ca8cc444aba257ffc09341a56566e1cb1b02d73ba3db143db00f39c23130",
      "networkId": 0,
      "chainId": 0
    },
    {
      "hash": "0x983810ae69a2e41a4b09375c95560c04edacbb64cba7fbeace52e1e035c693c5",
      "blockHash": "0xb636c1d740db3c30c68af72f87507609a2a20f06ce4d45662e1201bcd9f124f8",
      "blockNumber": 86733,
      "transactionIndex": 1,
      "confirmations": null,
      "from": "0xcD690730A45cdebeF24F2a3db2de181bFBA5CBea",
      "gasPrice": {
        "_hex": "0xd61858e33"
      },
      "gasLimit": {
        "_hex": "0x5208"
      },
      "to": "0x32Be343B94f860124dC4fEe278FDCBD38C102D88",
      "value": {
        "_hex": "0x43fc0cdfcb482400"
      },
      "nonce": 2,
      "data": "0x",
      "r": "0x0a01281ad823d932692da5c81a6e85b128b08a90c43583e429b4134b9ceaa277",
      "s": "0x5311be6bf5a0004a62f20447528914907ebb959d46c8e90476e2d771d7fa5b8b",
      "v": 27,
      "creates": null,
      "raw": "0xf86c02850d61858e338252089432be343b94f860124dc4fee278fdcbd38c102d888843fc0cdfcb482400801ba00a01281ad823d932692da5c81a6e85b128b08a90c43583e429b4134b9ceaa277a05311be6bf5a0004a62f20447528914907ebb959d46c8e90476e2d771d7fa5b8b",
      "networkId": 0,
      "chainId": 0
    }
  ]
}