{
  "hash": "0x773d8859f797d61d2d596bfecec49ca61385c7f2271b9d3f08ba642962e962ca",
  "parentHash": "0x704104801184a9389fb81840b8b0d021054bd8d01f9b2b56d21152e868360d38",
  "number": 105900,
  "timestamp": 1439895300,
  "nonce": "0xcfcabeffbfe22dc5",
  "difficulty": 4453416889540,
  "gasLimit": {
    "_hex": "0x2fefd8"
  },
  "gasUsed": {
    "_hex": "0x258a7"
  },
  "miner": "0xe6A7a1d47ff21B6321162AEA7C6CB457D5476Bca",
  "extraData": "0x476574682f76312e302e312d38326566323666362f6c696e75782f676f312e34",
  "transactions": [
    {
      "hash": "0xced0c566ddc936c805cafb4ec818536b85e7ec236b3ec63c86d52aedbc229f01",
      "blockHash": "0x773d8859f797d61d2d596bfecec49ca61385c7f2271b9d3f08ba642962e962ca",
      "blockNumber": 105900,
      "transactionIndex": 0,
      "confirmations": null,
      "from": "0x87C5B5874A18B4306DF8a752a6C8cc3E82daFc19",
      "gasPrice": {
        "_hex": "0x106f57ddf64"
      },
      "gasLimit": {
        "_hex": "0x493e0"
      },
      "to": "0xD79B4C6791784184e2755B2fC1659eaaB0f80456",
      "value": {
        "_hex": "0x1ee671fd31b3bb67"
      },
      "nonce": 294,
      "data": "0x8d2161860000000000000000000000000000000000000000000000000000000000000007d3d96ceed0cfca4794c2a5a3d3aeefe69da0a2a669e66a5651f30b64831c3db0",
      "r": "0xd39850509081dd8f5eeadf11ccdd9baef689f69492ae0b5e0bf0e3a687697ce7",
      "s": "0x59908246e9b00f39f6a2b01176493a7f76cb1d37633808443b6b1a5beb745a3d",
      "v": 28,
      "creates": null,
      "raw": "0xf8b5820126860106f57ddf64830493e094d79b4c6791784184e2755b2fc1659eaab0f80456881ee671fd31b3bb67b8448d2161860000000000000000000000000000000000000000000000000000000000000007d3d96ceed0cfca4794c2a5a3d3aeefe69da0a2a669e66a5651f30b64831c3db01ca0d39850509081dd8f5eeadf11ccdd9baef689f69492ae0b5e0bf0e3a687697ce7a059908246e9b00f39f6a2b01176493a7f76cb1d37633808443b6b1a5beb745a3d",
      "networkId": 0,
      "chainId": 0
    },
    {
      "hash": "0x8fb27724c63fa225ea163e9035f0768b647adb468fa981b98973d4d22c84158b",
      "blockHash": "0x773d8859f797d61d2d596bfecec49ca61385c7f2271b9d3f08ba642962e962ca",
      "blockNumber": 105900,
      "transactionIndex": 1,
      "confirmations": null,
      "from": "0xa70a9a7040d542C632D8e0bE7c5513A8a5Bbc752",
      "gasPrice": {
        "_hex": "0xd1ce9424a"
      },
      "gasLimit": {
        "_hex": "0x5208"
      },
      "to": "0x32Be343B94f860124dC4fEe278FDCBD38C102D88",
      "value": {
        "_hex": "0x45638e47b876d400"
      },
      "nonce": 245,
      "data": "0x",
      "r": "0x727bb89bc8d05f396ad0043ceb7e8787beced6da4c0eaa4406ecbd54013ffcb5",
      "s": "0x20116f8048851f4f25f41335b1cb72615e021f5ba3a3fd28de2541fe6b583f40",
      "v": 27,
      "creates": null,
      "raw": "0xf86d81f5850d1ce9424a8252089432be343b94f860124dc4fee278fdcbd38c102d888845638e47b876d400801ba0727bb89bc8d05f396ad0043ceb7e8787beced6da4c0eaa4406ecbd54013ffcb5a020116f8048851f4f25f41335b1cb72615e021f5ba3a3fd28de2541fe6b583f40",
      "networkId": 0,
      "chainId": 0
    },
    {
      "hash": "0x65dc55b6b785bc4cc66da6c9d641dc80db59c0ece822590bb34cb5f0eecc3f81",
      "blockHash": "0x773d8859f797d61d2d596bfecec49ca61385c7f2271b9d3f08ba642962e962ca",
      "blockNumber": 105900,
      "transactionIndex": 2,
      "confirmations": null,
      "from": "0x132ACC4ebA2B5039C65849368648bc19f32BEd97",
      "gasPrice": {
        "_hex": "0xd1ce9424a"
      },
      "gasLimit": {
        "_hex": "0x5208"
      },
      "to": "0x32Be343B94f860124dC4fEe278FDCBD38C102D88",
      "value": {
        "_hex": "0xddc830885f7e400"
      },
      "nonce": 4,
      "data": "0x",
      "r": "0x0dd46e0a9090a3e387a1a6264e19fb903e24603c2682f26e1925b377c0956465",
      "s": "0x3a2e13bd1d52346cb4f502f3ec2641e4c91be5a75460e08306f0b79bf16b8863",
      "v": 28,
      "creates": null,
      "raw": "0xf86c04850d1ce9424a8252089432be343b94f860124dc4fee278fdcbd38c102d88880ddc830885f7e400801ca00dd46e0a9090a3e387a1a6264e19fb903e24603c2682f26e1925b377c0956465a03a2e13bd1d52346cb4f502f3ec2641e4c91be5a75460e08306f0b79bf16b8863",
      "networkId": 0,
      "chainId": 0
    }
  ]
}