{
  "hash": "0x29cf321f1069a1b83a69406d31f9437d0b3993b76dc0e061398cb6ee81cab94d",
  "parentHash": "0xae9e160e244f9452fb1a2c9c718c78b520f95e33d38d4e4576d0e01b3fd86d09",
  "number": 83401,
  "timestamp": 1439534788,
  "nonce": "0x3c27704f8baa67f0",
  "difficulty": 2426598305866,
  "gasLimit": {
    "_hex": "0x2fefd8"
  },
  "gasUsed": {
    "_hex": "0x5208"
  },
  "miner": "0x3cdA97032227293AaeAEF72f44C1AdCfC3daF366",
  "extraData": "0x476574682f76312e302e312d38326566323666362f6c696e75782f676f312e34",
  "transactions": [
    {
      "hash": "0xd923267b4c40e383b0d2d5ebb10d576f0684d3cc3ee10a06c60d30904a87398b",
      "blockHash": "0x29cf321f1069a1b83a69406d31f9437d0b3993b76dc0e061398cb6ee81cab94d",
      "blockNumber": 83401,
      "transactionIndex": 0,
      "confirmations": null,
      "from": "0x9ecD1Bc07d16eb926077282970FA5240cc983F25",
      "gasPrice": {
        "_hex": "0xd4598653f"
      },
      "gasLimit": {
        "_hex": "0x5208"
      },
      "to": "0x32Be343B94f860124dC4fEe278FDCBD38C102D88",
      "value": {
        "_hex": "0xddc6bb912ec3800"
      },
      "nonce": 0,
      "data": "0x",
      "r": "0x69663f9c8f3425d4caba4425d4360ffd7214ee4c17e333a26b4601f75448961d",
      "s": "0x3c25cbb743d4c08c00eadde187870e173e335919a3ce25dc71771e3ebdb0b9c3",
      "v": 28,
      "creates": null,
      "raw": "0xf86c80850d4598653f8252089432be343b94f860124dc4fee278fdcbd38c102d88880ddc6bb912ec3800801ca069663f9c8f3425d4caba4425d4360ffd7214ee4c17e333a26b4601f75448961da03c25cbb743d4c08c00eadde187870e173e335919a3ce25dc71771e3ebdb0b9c3",
      "networkId": 0,
      "chainId": 0
    }
  ]
}