{
  "hash": "0x0ca2bb5e97a6751da990a7a44cb247fc122df16e8aa2c77e87b84fb1f35e23ff",
  "parentHash": "0xf3756da83836c43a96467bbce6be0cbdec986deed8f67adf22059d3b448ebb33",
  "number": 53609,
  "timestamp": 1439040454,
  "nonce": "0x2dcd3a81094e2a12",
  "difficulty": 1593947633544,
  "gasLimit": {
    "_hex": "0x2cf87a"
  },
  "gasUsed": {
    "_hex": "0x5208"
  },
  "miner": "0x785ffdDd5cE55c6DF963f345e68d3F2024E5Acb1",
  "extraData": "0x476574682f4d69676e6f7474652f76312e302e312f6c696e75782f676f312e34",
  "transactions": [
    {
      "hash": "0x3dd52a7094e991edda7c40f3cf5a4b3ac95a284fac2e5ff6a3bd3b74ff82e474",
      "blockHash": "0x0ca2bb5e97a6751da990a7a44cb247fc122df16e8aa2c77e87b84fb1f35e23ff",
      "blockNumber": 53609,
      "transactionIndex": 0,
      "confirmations": null,
      "from": "0xA1623430350C5df1b52B0b57483A5bb45d1796Da",
      "gasPrice": {
        "_hex": "0x104e38e307c"
      },
      "gasLimit": {
        "_hex": "0x7530"
      },
      "to": "0xf2881e3e520bF84469Fa00a56449D357FB1af54A",
      "value": {
        "_hex": "0x56beae51fd2d10000"
      },
      "nonce": 0,
      "data": "0x",
      "r": "0xb42ac0609deb19eee82620f533fb4e52a5b1252b9fb1c2eb656a2dd128e75857",
      "s": "0x3d70e6581cb05a813a19270a531a06634e43f5d2647654bb4476348ff0d12d1f",
      "v": 28,
      "creates": null,
      "raw": "0xf86e80860104e38e307c82753094f2881e3e520bf84469fa00a56449d357fb1af54a89056beae51fd2d10000801ca0b42ac0609deb19eee82620f533fb4e52a5b1252b9fb1c2eb656a2dd128e75857a03d70e6581cb05a813a19270a531a06634e43f5d2647654bb4476348ff0d12d1f",
      "networkId": 0,
      "chainId": 0
    }
  ]
}