{
  "hash": "0x47df3103166a4c114ce4315d9d294173e0d9a56db6e6a984f4b8c3b7f642d351",
  "parentHash": "0x49de5278fab3f1c46c35042137f2e47ed3e8338f35e722df1f457db7d1be52ab",
  "number": 93139,
  "timestamp": 1439683466,
  "nonce": "0x5dc315bb691e8bf3",
  "difficulty": 3620806393067,
  "gasLimit": {
    "_hex": "0x2fefd8"
  },
  "gasUsed": {
    "_hex": "0x520c"
  },
  "miner": "0xe6A7a1d47ff21B6321162AEA7C6CB457D5476Bca",
  "extraData": "0x476574682f76312e302e312d38326566323666362f6c696e75782f676f312e34",
  "transactions": [
    {
      "hash": "0x630d49ebb69426362032e9ff4b7a125d89e0f99f68878f6203e4400b49e87bf5",
      "blockHash": "0x47df3103166a4c114ce4315d9d294173e0d9a56db6e6a984f4b8c3b7f642d351",
      "blockNumber": 93139,
      "transactionIndex": 0,
      "confirmations": null,
      "from": "0x68d0e1fA35d65C760F5A120aD35fB5f86BC16c19",
      "gasPrice": {
        "_hex": "0xdc32bc03a"
      },
      "gasLimit": {
        "_hex": "0x15f90"
      },
      "to": "0xe74712c5D454e49f68091DF157cF5A6F77d257AC",
      "value": {
        "_hex": "0x3d3377a283790000"
      },
      "nonce": 1,
      "data": "0x00",
      "r": "0x0841140fcc8443949ee870c1e3f7c1f089837534448f5f49aeb00340bf5656b9",
      "s": "0x2dec65e4a5e590cb1fa0f5e0d8e546d45b5d7795d8c5c5c92b48084c7131b033",
      "v": 27,
      "creates": null,
      "raw": "0xf86d01850dc32bc03a83015f9094e74712c5d454e49f68091df157cf5a6f77d257ac883d3377a283790000001ba00841140fcc8443949ee870c1e3f7c1f089837534448f5f49aeb00340bf5656b9a02dec65e4a5e590cb1fa0f5e0d8e546d45b5d7795d8c5c5c92b48084c7131b033",
      "networkId": 0,
      "chainId": 0
    }
  ]
}