{
  "hash": "0x2a82bc15a40d09eab79da2110212f51e2568d15592fbbecbbf7ba0494ce8513f",
  "parentHash": "0xb58db88bc87dfb62961765669803635e6d4835841a59604b7c11266015c4b64a",
  "number": 54519,
  "timestamp": 1439055373,
  "nonce": "0xebdc9b7c7fa3f88f",
  "difficulty": 1620454735758,
  "gasLimit": {
    "_hex": "0x2fefd8"
  },
  "gasUsed": {
    "_hex": "0xf618"
  },
  "miner": "0xf8E0CA3Ed80bd541b94BEdCf259e8CF2141A9523",
  "extraData": "0x476574682f76312e302e312f77696e646f77732f676f312e342e32",
  "transactions": [
    {
      "hash": "0x6ecfcc82811ae656fd40047cf929c385fe1276bbc6af4d4b35e4526cc5ddf819",
      "blockHash": "0x2a82bc15a40d09eab79da2110212f51e2568d15592fbbecbbf7ba0494ce8513f",
      "blockNumber": 54519,
      "transactionIndex": 0,
      "confirmations": null,
      "from": "0xcb2Ff4305625D98A9E13C9cA10ca47cf2345e1F8",
      "gasPrice": {
        "_hex": "0xd80547d98"
      },
      "gasLimit": {
        "_hex": "0x5208"
      },
      "to": "0x32Be343B94f860124dC4fEe278FDCBD38C102D88",
      "value": {
        "_hex": "0x104351c700f90f0000"
      },
      "nonce": 3,
      "data": "0x",
      "r": "0x69c21f75014faf90c593aacd93be59848d30f4c57583c83a45a7874507688ff8",
      "s": "0x15a06a4861977a7bd9f5aa287bfe93f31173bffc043a302bea456957caa61a64",
      "v": 27,
      "creates": null,
      "raw": "0xf86d03850d80547d988252089432be343b94f860124dc4fee278fdcbd38c102d8889104351c700f90f0000801ba069c21f75014faf90c593aacd93be59848d30f4c57583c83a45a7874507688ff8a015a06a4861977a7bd9f5aa287bfe93f31173bffc043a302bea456957caa61a64",
      "networkId": 0,
      "chainId": 0
    },
    {
      "hash": "0x9519b5bb3f56f2ec9ab1a8ea9ddeed92d2aac7ad7d053211904715e6b4adb21f",
      "blockHash": "0x2a82bc15a40d09eab79da2110212f51e2568d15592fbbecbbf7ba0494ce8513f",
      "blockNumber": 54519,
      "transactionIndex": 1,
      "confirmations": null,
      "from": "0x60780933D9a5A8e8E3ab20CB6382cd314f04065F",
      "gasPrice": {
        "_hex": "0xd80547d98"
      },
      "gasLimit": {
        "_hex": "0x5208"
      },
      "to": "0x32Be343B94f860124dC4fEe278FDCBD38C102D88",
      "value": {
        "_hex": "0xdaffae3dd9cf800"
      },
      "nonce": 2,
      "data": "0x",
      "r": "0xa445401331dcdbfc1f9e6dbfe908a17304c78f0a2061b458adfa39fef3f27919",
      "s": "0x1d2adef4d44096fc617b7a66cc1968c805f7ad16efdef0acc91385f94a62b8c7",
      "v": 28,
      "creates": null,
      "raw": "0xf86c02850d80547d988252089432be343b94f860124dc4fee278fdcbd38c102d88880daffae3dd9cf800801ca0a445401331dcdbfc1f9e6dbfe908a17304c78f0a2061b458adfa39fef3f27919a01d2adef4d44096fc617b7a66cc1968c805f7ad16efdef0acc91385f94a62b8c7",
      "networkId": 0,
      "chainId": 0
    },
    {
      "hash": "0x5b9f54f0c000bd8506efbbdfc01897fe05dafa71d9de232555eb13e595d9c53b",
      "blockHash": "0x2a82bc15a40d09eab79da2110212f51e2568d15592fbbecbbf7ba0494ce8513f",
      "blockNumber": 54519,
      "transactionIndex": 2,
      "confirmations": null,
      "from": "0x439632734cdF5a84774156c1938CbeDe2eF398F0",
      "gasPrice": {
        "_hex": "0xd80547d98"
      },
      "gasLimit": {
        "_hex": "0x5208"
      },
      "to": "0x32Be343B94f860124dC4fEe278FDCBD38C102D88",
      "value": {
        "_hex": "0xad78a68d395ff0000"
      },
      "nonce": 8,
      "data": "0x",
      "r": "0x55af102cd91d207f0f14e36886a0b8d45dff339e53c3435034a10c65518b7427",
      "s": "0x4560911cbd7f01e6d691b823eda29b3dd12964a00ee56807494b3e2634c31492",
      "v": 28,
      "creates": null,
      "raw": "0xf86d08850d80547d988252089432be343b94f860124dc4fee278fdcbd38c102d88890ad78a68d395ff0000801ca055af102cd91d207f0f14e36886a0b8d45dff339e53c3435034a10c65518b7427a04560911cbd7f01e6d691b823eda29b3dd12964a00ee56807494b3e2634c31492",
      "networkId": 0,
      "chainId": 0
    }
  ]
}