{
  "hash": "0xc0c5d072ff6758103b9ef86b7aaea76f0097e0117b2e87e205bbbb4078f0e415",
  "parentHash": "0x9928c444cbe7fd326324a2c99f64e1a8d9e2ceb31f936a310b07e91ef04ff0c2",
  "number": 101688,
  "timestamp": 1439826663,
  "nonce": "0xe1d42a7550b7f369",
  "difficulty": 3878707057455,
  "gasLimit": {
    "_hex": "0x2fefd8"
  },
  "gasUsed": {
    "_hex": "0xa410"
  },
  "miner": "0x0037ce3d4B7f8729C8607D8D0248252Be68202c0",
  "extraData": "0x476574682f76312e302e312f77696e646f77732f676f312e342e32",
  "transactions": [
    {
      "hash": "0x71809ccdebd1623a79ea098d6253e5bf0ea24c2e69e007ac8043f64784d05f33",
      "blockHash": "0xc0c5d072ff6758103b9ef86b7aaea76f0097e0117b2e87e205bbbb4078f0e415",
      "blockNumber": 101688,
      "transactionIndex": 0,
      "confirmations": null,
      "from": "0x296ddc7dB724c4b7252dEe85F3969df1b618ef1F",
      "gasPrice": {
        "_hex": "0xe1cb06917"
      },
      "gasLimit": {
        "_hex": "0x5208"
      },
      "to": "0x32Be343B94f860124dC4fEe278FDCBD38C102D88",
      "value": {
        "_hex": "0x455f178dfc952400"
      },
      "nonce": 2,
      "data": "0x",
      "r": "0x1b6409e9e84b96cee1fe59ca59120540a48ce0a980fa4d7f6f0fa0f671fb200e",
      "s": "0x1af73348d13ebd926d8b6791313bb7515062ca22b6ddf9faa961a05c07943261",
      "v": 28,
      "creates": null,
      "raw": "0xf86c02850e1cb069178252089432be343b94f860124dc4fee278fdcbd38c102d8888455f178dfc952400801ca01b6409e9e84b96cee1fe59ca59120540a48ce0a980fa4d7f6f0fa0f671fb200ea01af73348d13ebd926d8b6791313bb7515062ca22b6ddf9faa961a05c07943261",
      "networkId": 0,
      "chainId": 0
    },
    {
      "hash": "0x2490361ddcc08a1c3bc2142b162bd9e0305a3d3dc8008fff11a641dbd1635f90",
      "blockHash": "0xc0c5d072ff6758103b9ef86b7aaea76f0097e0117b2e87e205bbbb4078f0e415",
      "blockNumber": 101688,
      "transactionIndex": 1,
      "confirmations": null,
      "from": "0x892E75d6aA470004954fCAcc47Dce91652467906",
      "gasPrice": {
        "_hex": "0xd1e79156d"
      },
      "gasLimit": {
        "_hex": "0x7530"
      },
      "to": "0x6De181Fc4C140FA31F196e5393516c49EEeBdAd3",
      "value": {
        "_hex": "0x4563918244f40000"
      },
      "nonce": 6,
      "data": "0x",
      "r": "0x48ad0e34c6d8bce7325527220496b6a1e4e4d9c26bd83c7b51ec88f517356d41",
      "s": "0x6bd30f8c8c7c245ef13cb6f1eeeab0a57599eebd67c8433c6fa4d8f22048a880",
      "v": 28,
      "creates": null,
      "raw": "0xf86c06850d1e79156d827530946de181fc4c140fa31f196e5393516c49eeebdad3884563918244f40000801ca048ad0e34c6d8bce7325527220496b6a1e4e4d9c26bd83c7b51ec88f517356d41a06bd30f8c8c7c245ef13cb6f1eeeab0a57599eebd67c8433c6fa4d8f22048a880",
      "networkId": 0,
      "chainId": 0
    }
  ]
}