{
  "hash": "0xda43a0c5ea7777096bb889a66a77d05913a7d32b0b3080fd367b8f67c8c5ca95",
  "parentHash": "0xebcadae32623e5d4f0a550c1d80c5232daf2dad25617c7c836b1725aee6b12e7",
  "number": 110330,
  "timestamp": 1439971842,
  "nonce": "0xd41c3739cac61272",
  "difficulty": 4364974263318,
  "gasLimit": {
    "_hex": "0x2fefd8"
  },
  "gasUsed": {
    "_hex": "0xa410"
  },
  "miner": "0x7E6930B63D03e88F5928C5cd6ee3FCee4D714F7F",
  "extraData": "0x",
  "transactions": [
    {
      "hash": "0x2910e25150e5f4634abf0435e1115c574b400b0a03284eefe9f904fe2f58b754",
      "blockHash": "0xda43a0c5ea7777096bb889a66a77d05913a7d32b0b3080fd367b8f67c8c5ca95",
      "blockNumber": 110330,
      "transactionIndex": 0,
      "confirmations": null,
      "from": "0xe6A7a1d47ff21B6321162AEA7C6CB457D5476Bca",
      "gasPrice": {
        "_hex": "0xcdab9f09f"
      },
      "gasLimit": {
        "_hex": "0x55f0"
      },
      "to": "0x8C93d2F70d641AC1F4cCc3287E2A1376Ce3c7DCC",
      "value": {
        "_hex": "0x1bcab94de8c64be0"
      },
      "nonce": 4174,
      "data": "0x",
      "r": "0xecf6948998945155a24fac15fcf901f360473310d47350ce4330b2aa159f4150",
      "s": "0x797139c8ef120edf17a00948a3a52ff945682588556f21b0404ac5286c126970",
      "v": 27,
      "creates": null,
      "raw": "0xf86e82104e850cdab9f09f8255f0948c93d2f70d641ac1f4ccc3287e2a1376ce3c7dcc881bcab94de8c64be0801ba0ecf6948998945155a24fac15fcf901f360473310d47350ce4330b2aa159f4150a0797139c8ef120edf17a00948a3a52ff945682588556f21b0404ac5286c126970",
      "networkId": 0,
      "chainId": 0
    },
    {
      "hash": "0xc225eacdca502e01a24451c4034f76f6d505ce314f6179f9379f7d6dbf57c624",
      "blockHash": "0xda43a0c5ea7777096bb889a66a77d05913a7d32b0b3080fd367b8f67c8c5ca95",
      "blockNumber": 110330,
      "transactionIndex": 1,
      "confirmations": null,
      "from": "0xe6A7a1d47ff21B6321162AEA7C6CB457D5476Bca",
      "gasPrice": {
        "_hex": "0xcdab9f09f"
      },
      "gasLimit": {
        "_hex": "0x55f0"
      },
      "to": "0xc47d9E6C75d388Aeb92574429dAD43A148f2f3ea",
      "value": {
        "_hex": "0x1bcbde9ac3d114f0"
      },
      "nonce": 4175,
      "data": "0x",
      "r": "0x18037f9f936334ba213c443d0c088cea8b85caefa8a69fc478eb41c0d1b95ae8",
      "s": "0x5f9e526b1bde323f4031ffc19cb2e1ee4f06c75890a28b1cc52ea768e1ed7d72",
      "v": 28,
      "creates": null,
      "raw": "0xf86e82104f850cdab9f09f8255f094c47d9e6c75d388aeb92574429dad43a148f2f3ea881bcbde9ac3d114f0801ca018037f9f936334ba213c443d0c088cea8b85caefa8a69fc478eb41c0d1b95ae8a05f9e526b1bde323f4031ffc19cb2e1ee4f06c75890a28b1cc52ea768e1ed7d72",
      "networkId": 0,
      "chainId": 0
    }
  ]
}