{
  "hash": "0xa842ec1b866e94d7d04718564e25dfe1555a40da44d1672404ea78ed023c11eb",
  "parentHash": "0x1c5cfc6ebe060c2f571983a34ed17e422547405949dcdf1403385229b52a2668",
  "number": 75150,
  "timestamp": 1439398444,
  "nonce": "0x27404bebb33e72e1",
  "difficulty": 2199770192366,
  "gasLimit": {
    "_hex": "0x2fefd8"
  },
  "gasUsed": {
    "_hex": "0x522d"
  },
  "miner": "0x7E6930B63D03e88F5928C5cd6ee3FCee4D714F7F",
  "extraData": "0x",
  "transactions": [
    {
      "hash": "0xb3151b121ee19f96050ad49091ad2a9863d2eaff255313da160379a50f7aecb0",
      "blockHash": "0xa842ec1b866e94d7d04718564e25dfe1555a40da44d1672404ea78ed023c11eb",
      "blockNumber": 75150,
      "transactionIndex": 0,
      "confirmations": null,
      "from": "0x326Be8F71bFb0379f989aAB1CC1fE37f0a771f60",
      "gasPrice": {
        "_hex": "0x1074ca06f5d"
      },
      "gasLimit": {
        "_hex": "0x493e0"
      },
      "to": "0xD79B4C6791784184e2755B2fC1659eaaB0f80456",
      "value": {
        "_hex": "0x0"
      },
      "nonce": 74,
      "data": "0x",
      "r": "0x937c332753c1d9fb4538b11d8daa43fc0f489a0350d845aa112dede081c93802",
      "s": "0x68e553aa13a6d3bf12da4ab8e4a9c891153c15f0ec64f2ef0fe2650e9558a833",
      "v": 28,
      "creates": null,
      "raw": "0xf8664a8601074ca06f5d830493e094d79b4c6791784184e2755b2fc1659eaab0f8045680801ca0937c332753c1d9fb4538b11d8daa43fc0f489a0350d845aa112dede081c93802a068e553aa13a6d3bf12da4ab8e4a9c891153c15f0ec64f2ef0fe2650e9558a833",
      "networkId": 0,
      "chainId": 0
    }
  ]
}