{
  "hash": "0x5b2cfbb8347c04d33e791ea2178adb89c117fd7b36577b4d25b114132b53c8e0",
  "parentHash": "0xb2b928b2acc9f51554fd5049ecf24bb6a7d0995ba922054aef7ffaadf1cb9aa2",
  "number": 114022,
  "timestamp": 1440033524,
  "nonce": "0x34112af9261296c6",
  "difficulty": 4436091678458,
  "gasLimit": {
    "_hex": "0x2fefd8"
  },
  "gasUsed": {
    "_hex": "0x5208"
  },
  "miner": "0xe6A7a1d47ff21B6321162AEA7C6CB457D5476Bca",
  "extraData": "0x476574682f76312e302e312d38326566323666362f6c696e75782f676f312e34",
  "transactions": [
    {
      "hash": "0x3358b7bf018e834184c459e1630d168a6c6b62a1618de9b7f6fd2cef902012b0",
      "blockHash": "0x5b2cfbb8347c04d33e791ea2178adb89c117fd7b36577b4d25b114132b53c8e0",
      "blockNumber": 114022,
      "transactionIndex": 0,
      "confirmations": null,
      "from": "0x952f389eCE021cECc7e7E00B5316925e14396B92",
      "gasPrice": {
        "_hex": "0xdf8475800"
      },
      "gasLimit": {
        "_hex": "0x5267"
      },
      "to": "0x65C40Ee4e07E09671fF3cE2dff2AcCbE366bb5C8",
      "value": {
        "_hex": "0x76f5dc9566a60000"
      },
      "nonce": 8,
      "data": "0x",
      "r": "0xaba4ba7f97457ad59125c57563225b2edabb9c296474df55b3b7b50bb060db45",
      "s": "0xa457fd40b21513dfe2c0179f660016448cb792b9acf5a1d9842b56e577943077",
      "v": 27,
      "creates": null,
      "raw": "0xf86c08850df84758008252679465c40ee4e07e09671ff3ce2dff2accbe366bb5c88876f5dc9566a60000801ba0aba4ba7f97457ad59125c57563225b2edabb9c296474df55b3b7b50bb060db45a0a457fd40b21513dfe2c0179f660016448cb792b9acf5a1d9842b56e577943077",
      "networkId": 0,
      "chainId": 0
    }
  ]
}