{
  "hash": "0x5a47b63140d8d16602ef61a83d709b781296237aa2d970fe79e87903ca1ac511",
  "parentHash": "0x21ac53e2767dc152bbfa19be19f2e8c715067ba53d9690a1cf8eb5841123d543",
  "number": 80421,
  "timestamp": 1439485270,
  "nonce": "0x7b40e3ce646e592a",
  "difficulty": 2401523812761,
  "gasLimit": {
    "_hex": "0x2fefd8"
  },
  "gasUsed": {
    "_hex": "0x546c"
  },
  "miner": "0xe6A7a1d47ff21B6321162AEA7C6CB457D5476Bca",
  "extraData": "0x476574682f76312e302e312d38326566323666362f6c696e75782f676f312e34",
  "transactions": [
    {
      "hash": "0x3e600ce5b106d0442763abcdef51d7e0c5cf6cfbc914f5dd006d75e40dc9fc59",
      "blockHash": "0x5a47b63140d8d16602ef61a83d709b781296237aa2d970fe79e87903ca1ac511",
      "blockNumber": 80421,
      "transactionIndex": 0,
      "confirmations": null,
      "from": "0xb2f9c972C1e9737755B3FF1B3088738396395B26",
      "gasPrice": {
        "_hex": "0x110c8f7d8de"
      },
      "gasLimit": {
        "_hex": "0xc350"
      },
      "to": "0x2910543Af39abA0Cd09dBb2D50200b3E800A63D2",
      "value": {
        "_hex": "0x1aef24e8d6d0e4c0000"
      },
      "nonce": 3,
      "data": "0x454e50424556585747",
      "r": "0xcf4e37cb28513b7b5260d864ca03e4d6c67969394b38cc0e5e9fcbd27b0c2bb4",
      "s": "0xd7edd1ed95995feaf003b346978c424e437f96a348fd6a23713e60f65672655b",
      "v": 27,
      "creates": null,
      "raw": "0xf87803860110c8f7d8de82c350942910543af39aba0cd09dbb2d50200b3e800a63d28a01aef24e8d6d0e4c000089454e504245565857471ba0cf4e37cb28513b7b5260d864ca03e4d6c67969394b38cc0e5e9fcbd27b0c2bb4a0d7edd1ed95995feaf003b346978c424e437f96a348fd6a23713e60f65672655b",
      "networkId": 0,
      "chainId": 0
    }
  ]
}