{
  "hash": "0xcec67d9cd9bdadfcda652cdbcfb69b086eef485570a0951a0a7e9b3b808634b6",
  "parentHash": "0x9dde4a0ce186947d8bfd99d45b072f04b6b9b9c26f9def1b5e7aa82a84d9ddcb",
  "number": 73830,
  "timestamp": 1439375684,
  "nonce": "0x04ef04471f969052",
  "difficulty": 2223877828211,
  "gasLimit": {
    "_hex": "0x2fefd8"
  },
  "gasUsed": {
    "_hex": "0x5208"
  },
  "miner": "0x88D74a59454F6cF3B51ef6b9136AFb6b9D405A88",
  "extraData": "0x476574682f76312e302e312d37666266393930632f6c696e75782f676f312e34",
  "transactions": [
    {
      "hash": "0xefed47079464b399b6ea4eb147e4345f35d2422b9565f84c7095509a29602d71",
      "blockHash": "0xcec67d9cd9bdadfcda652cdbcfb69b086eef485570a0951a0a7e9b3b808634b6",
      "blockNumber": 73830,
      "transactionIndex": 0,
      "confirmations": null,
      "from": "0xad7210d76107F888745616FFF7979623b84F928c",
      "gasPrice": {
        "_hex": "0x10dc90d85e7"
      },
      "gasLimit": {
        "_hex": "0x61a8"
      },
      "to": "0xF109ca710C0Df51c1a86dBA1B0BA0Ed038114463",
      "value": {
        "_hex": "0xd02ab486cedc0000"
      },
      "nonce": 7,
      "data": "0x",
      "r": "0xe43d97a099b45f6f88c49a9d2b5e81d23a26c28f6f64c806c20721671cc31fc6",
      "s": "0x42c1a0d294eef86656d63e6f8ed710c18d734cb10a3da5c879ceda9172df254a",
      "v": 28,
      "creates": null,
      "raw": "0xf86d0786010dc90d85e78261a894f109ca710c0df51c1a86dba1b0ba0ed03811446388d02ab486cedc0000801ca0e43d97a099b45f6f88c49a9d2b5e81d23a26c28f6f64c806c20721671cc31fc6a042c1a0d294eef86656d63e6f8ed710c18d734cb10a3da5c879ceda9172df254a",
      "networkId": 0,
      "chainId": 0
    }
  ]
}