{
  "hash": "0xaeb4d2175f99fbb4741793a0db6671b28641e62ac6f6eae38d3ff9835bc2415f",
  "parentHash": "0xe0ea6b4ffc08dbbae1f27e309338ecdc58b1128f003d0c686c7011f5ab2b3896",
  "number": 64825,
  "timestamp": 1439226826,
  "nonce": "0x42c70e1096b663b6",
  "difficulty": 1901439184711,
  "gasLimit": {
    "_hex": "0x2fefd8"
  },
  "gasUsed": {
    "_hex": "0x17cd8"
  },
  "miner": "0xf927a40C8B7F6E07c5af7FA2155B4864a4112B13",
  "extraData": "0x",
  "transactions": [
    {
      "hash": "0xc04ac06e073e63c76aebd5584c5f09213914feccf9184480ab1e4a5129266987",
      "blockHash": "0xaeb4d2175f99fbb4741793a0db6671b28641e62ac6f6eae38d3ff9835bc2415f",
      "blockNumber": 64825,
      "transactionIndex": 0,
      "confirmations": null,
      "from": "0x2f37F33a54FE63133C6a312f9dA494C1F95b47C7",
      "gasPrice": {
        "_hex": "0xba43b7400"
      },
      "gasLimit": {
        "_hex": "0x15f90"
      },
      "to": "0x793AE8C1b1a160BFc07BFB0d04F85eab1A71F4f2",
      "value": {
        "_hex": "0x0"
      },
      "nonce": 0,
      "data": "0x3ba15036",
      "r": "0x24695f446e94c2255e52d5239485e6e2ee14be6c936be29708be537ccee27360",
      "s": "0x7e1a77c8e5eef42bacef991e23869eb9818f467422e0b40cd7320187007646e8",
      "v": 28,
      "creates": null,
      "raw": "0xf86980850ba43b740083015f9094793ae8c1b1a160bfc07bfb0d04f85eab1a71f4f280843ba150361ca024695f446e94c2255e52d5239485e6e2ee14be6c936be29708be537ccee27360a07e1a77c8e5eef42bacef991e23869eb9818f467422e0b40cd7320187007646e8",
      "networkId": 0,
      "chainId": 0
    },
    {
      "hash": "0xdb89e4d38a062b456b584bc2d4fadb623258985ae28ac683673a598cd9108825",
      "blockHash": "0xaeb4d2175f99fbb4741793a0db6671b28641e62ac6f6eae38d3ff9835bc2415f",
      "blockNumber": 64825,
      "transactionIndex": 1,
      "confirmations": null,
      "from": "0xCEcEFf918C497921DA6c0fe788854d42c17986e3",
      "gasPrice": {
        "_hex": "0xba43b7400"
      },
      "gasLimit": {
        "_hex": "0x15f90"
      },
      "to": "0x793AE8C1b1a160BFc07BFB0d04F85eab1A71F4f2",
      "value": {
        "_hex": "0x0"
      },
      "nonce": 0,
      "data": "0x3ba15036",
      "r": "0x72cab6429c54363405e71f882375a34d5bce17a0d348885df98bdceed78260af",
      "s": "0x60774caaef2a8c76a062e0ae0db2a42f0b508fa8a2fb1236b5268c7b90468699",
      "v": 27,
      "creates": null,
      "raw": "0xf86980850ba43b740083015f9094793ae8c1b1a160bfc07bfb0d04f85eab1a71f4f280843ba150361ba072cab6429c54363405e71f882375a34d5bce17a0d348885df98bdceed78260afa060774caaef2a8c76a062e0ae0db2a42f0b508fa8a2fb1236b5268c7b90468699",
      "networkId": 0,
      "chainId": 0
    }
  ]
}