{
  "hash": "0x64c5806ffb945c2124568dda602a813e392959e4579200e0df03549f37a2b46e",
  "parentHash": "0xaf92a28562b3fb63d98f003d4ba315bd310ebb1cc8c7d24fa399c12cb3afc220",
  "number": 117926,
  "timestamp": 1440117638,
  "nonce": "0xfcea3c1b81b32e94",
  "difficulty": 4344021486838,
  "gasLimit": {
    "_hex": "0x2fefd8"
  },
  "gasUsed": {
    "_hex": "0x5208"
  },
  "miner": "0xe6A7a1d47ff21B6321162AEA7C6CB457D5476Bca",
  "extraData": "0xd783010002844765746887676f312e342e32856c696e7578",
  "transactions": [
    {
      "hash": "0xfeefdb370724051431f14811565c8c10e1897c2fc1517fd7aa4206dd28e059b1",
      "blockHash": "0x64c5806ffb945c2124568dda602a813e392959e4579200e0df03549f37a2b46e",
      "blockNumber": 117926,
      "transactionIndex": 0,
      "confirmations": null,
      "from": "0xb4c8A15086d7c2E2aa5506FF51e34e3E23d053a7",
      "gasPrice": {
        "_hex": "0xba43b7400"
      },
      "gasLimit": {
        "_hex": "0x5208"
      },
      "to": "0x32Be343B94f860124dC4fEe278FDCBD38C102D88",
      "value": {
        "_hex": "0x126f0452f10436000"
      },
      "nonce": 2,
      "data": "0x",
      "r": "0xf43774bb6b10f2a4aee268cdb0372fdacbf7ff902d56be59994761ca4bc2423b",
      "s": "0x112ece01adf5a4de6695e76dd01fa75b91367886bc27ea1c32c65518c1623358",
      "v": 27,
      "creates": null,
      "raw": "0xf86d02850ba43b74008252089432be343b94f860124dc4fee278fdcbd38c102d88890126f0452f10436000801ba0f43774bb6b10f2a4aee268cdb0372fdacbf7ff902d56be59994761ca4bc2423ba0112ece01adf5a4de6695e76dd01fa75b91367886bc27ea1c32c65518c1623358",
      "networkId": 0,
      "chainId": 0
    }
  ]
}