{
  "hash": "0xe9c3ea5cbdd1f4c400a21c0d77b5a8145067d0c05ea95b822d4dc540dd81ed54",
  "parentHash": "0x7e9989e7c72634682922abce9c6d6a80dc2cce7f1e4737e7e8c7362b0dec7466",
  "number": 96574,
  "timestamp": 1439742524,
  "nonce": "0x467fb0e5b2deca89",
  "difficulty": 3703345121672,
  "gasLimit": {
    "_hex": "0x2fefd8"
  },
  "gasUsed": {
    "_hex": "0x5208"
  },
  "miner": "0xe6A7a1d47ff21B6321162AEA7C6CB457D5476Bca",
  "extraData": "0x476574682f76312e302e312d38326566323666362f6c696e75782f676f312e34",
  "transactions": [
    {
      "hash": "0xabf80e655241c0e4e4cf61e74fd7986dbc9372c26811e7aa983ba35cf45fc0d2",
      "blockHash": "0xe9c3ea5cbdd1f4c400a21c0d77b5a8145067d0c05ea95b822d4dc540dd81ed54",
      "blockNumber": 96574,
      "transactionIndex": 0,
      "confirmations": null,
      "from": "0x120A270bbC009644e35F0bB6ab13f95b8199c4ad",
      "gasPrice": {
        "_hex": "0xd9301df95"
      },
      "gasLimit": {
        "_hex": "0x15f90"
      },
      "to": "0x613AC53bE565d46536B820715b9b8d3Ae68A4b95",
      "value": {
        "_hex": "0xad78ebc5ac6200000"
      },
      "nonce": 621,
      "data": "0x",
      "r": "0x925d9e133f02853a7d98b39b8230805fec7837b43b421710ac0754faf625ca33",
      "s": "0x1034808496359690ed6eeee5ac7febf3d612cbe6ddbca157b2082ef207c05bff",
      "v": 28,
      "creates": null,
      "raw": "0xf87082026d850d9301df9583015f9094613ac53be565d46536b820715b9b8d3ae68a4b95890ad78ebc5ac6200000801ca0925d9e133f02853a7d98b39b8230805fec7837b43b421710ac0754faf625ca33a01034808496359690ed6eeee5ac7febf3d612cbe6ddbca157b2082ef207c05bff",
      "networkId": 0,
      "chainId": 0
    }
  ]
}