{
  "hash": "0x6f6ec8fb9170e8e2cac81eb1cebd81ff8bab46c53cb801265bea1c70e41e5607",
  "parentHash": "0xdb5eab3a1c69d2cc2ef25a39aecf7b61c48bb2f92f1817a2e52116c771e77353",
  "number": 82608,
  "timestamp": 1439522173,
  "nonce": "0xb6c9901266e0dc44",
  "difficulty": 2367140270716,
  "gasLimit": {
    "_hex": "0x2fefd8"
  },
  "gasUsed": {
    "_hex": "0x546c"
  },
  "miner": "0xF2d2AfF1320476cb8C6b607199D23175cc595693",
  "extraData": "0x476574682f76312e302e312f77696e646f77732f676f312e342e32",
  "transactions": [
    {
      "hash": "0xe9c58c44939513b1795b21d5f435c9ced6a0d121c9daf695e8379e14101b2c4a",
      "blockHash": "0x6f6ec8fb9170e8e2cac81eb1cebd81ff8bab46c53cb801265bea1c70e41e5607",
      "blockNumber": 82608,
      "transactionIndex": 0,
      "confirmations": null,
      "from": "0xD5A7BeC332aDDE18b3104b5792546aA59b879b52",
      "gasPrice": {
        "_hex": "0x110c8f7d8de"
      },
      "gasLimit": {
        "_hex": "0xc350"
      },
      "to": "0x2910543Af39abA0Cd09dBb2D50200b3E800A63D2",
      "value": {
        "_hex": "0x6c341080bd1fb00000"
      },
      "nonce": 2,
      "data": "0x454e4e4a3243415930",
      "r": "0xda63a1b4f4e2bfc22bd2bc6154130b54c4558c2fb859d39021a4d48cde9bf7cc",
      "s": "0xe9cd256b782d54112436b89da5de8bb9d02904120fd77f6cb5fbea40b4f3eb6b",
      "v": 27,
      "creates": null,
      "raw": "0xf87702860110c8f7d8de82c350942910543af39aba0cd09dbb2d50200b3e800a63d2896c341080bd1fb0000089454e4e4a32434159301ba0da63a1b4f4e2bfc22bd2bc6154130b54c4558c2fb859d39021a4d48cde9bf7cca0e9cd256b782d54112436b89da5de8bb9d02904120fd77f6cb5fbea40b4f3eb6b",
      "networkId": 0,
      "chainId": 0
    }
  ]
}