{
  "hash": "0xdb05e33ae664a79ec1181e2028c9f9158a91fc0b16bdb670241c1cd5467ac5e5",
  "parentHash": "0xe5545e71c1323364b24df3ce554ce2f37382dc23166f4f8b011216086be89f05",
  "number": 70141,
  "timestamp": 1439315381,
  "nonce": "0x2a179b9f2aec1a31",
  "difficulty": 2105423046254,
  "gasLimit": {
    "_hex": "0x2fefd8"
  },
  "gasUsed": {
    "_hex": "0xa410"
  },
  "miner": "0xe6A7a1d47ff21B6321162AEA7C6CB457D5476Bca",
  "extraData": "0x476574682f76312e302e312d38326566323666362f6c696e75782f676f312e34",
  "transactions": [
    {
      "hash": "0x09b577fdde78154b62ffd120ad0a9d284d9def1574061af9e502ee5850c84264",
      "blockHash": "0xdb05e33ae664a79ec1181e2028c9f9158a91fc0b16bdb670241c1cd5467ac5e5",
      "blockNumber": 70141,
      "transactionIndex": 0,
      "confirmations": null,
      "from": "0x39A1BB80a741bF5EC39FB9BE59408Fa0F418fFBf",
      "gasPrice": {
        "_hex": "0xd6040b239"
      },
      "gasLimit": {
        "_hex": "0x15f90"
      },
      "to": "0x8F79f76381Aad7B98C19aF55eE75fdfEeb012211",
      "value": {
        "_hex": "0x138400eca364a00000"
      },
      "nonce": 6,
      "data": "0x",
      "r": "0xfb9a384a332d4dbe923f40edffbe4db345767144e430663f809d59c78eed7c53",
      "s": "0x5cb56ab805a52bef275070f55bff00e2dd0c0da32ee00846739032be7f942e90",
      "v": 28,
      "creates": null,
      "raw": "0xf86e06850d6040b23983015f90948f79f76381aad7b98c19af55ee75fdfeeb01221189138400eca364a00000801ca0fb9a384a332d4dbe923f40edffbe4db345767144e430663f809d59c78eed7c53a05cb56ab805a52bef275070f55bff00e2dd0c0da32ee00846739032be7f942e90",
      "networkId": 0,
      "chainId": 0
    },
    {
      "hash": "0x657318acb5b1a2d4873250caee32c53640058f28175c8b13a092694f24ec0653",
      "blockHash": "0xdb05e33ae664a79ec1181e2028c9f9158a91fc0b16bdb670241c1cd5467ac5e5",
      "blockNumber": 70141,
      "transactionIndex": 1,
      "confirmations": null,
      "from": "0x9677f39Dc9F3A6ED82C3057a3C3c3bf35b21E32a",
      "gasPrice": {
        "_hex": "0xcfa005611"
      },
      "gasLimit": {
        "_hex": "0x55f0"
      },
      "to": "0x6c0E7ecD7bB748115A529c0d5ee2d26b4791578a",
      "value": {
        "_hex": "0xde0b6b3a7640000"
      },
      "nonce": 0,
      "data": "0x",
      "r": "0xd8cb821874267dfe5f6d42eba37e7e2c80817c382775f8b53d4f264b92eb08f7",
      "s": "0x15bb3bf6c805738ef9c41ecb7856e15f277f7fc0a13996dee621cc4e17a3992d",
      "v": 28,
      "creates": null,
      "raw": "0xf86c80850cfa0056118255f0946c0e7ecd7bb748115a529c0d5ee2d26b4791578a880de0b6b3a7640000801ca0d8cb821874267dfe5f6d42eba37e7e2c80817c382775f8b53d4f264b92eb08f7a015bb3bf6c805738ef9c41ecb7856e15f277f7fc0a13996dee621cc4e17a3992d",
      "networkId": 0,
      "chainId": 0
    }
  ]
}