{
  "hash": "0x78c8200a9e1e79c0584ef5db216bae653a039efb0d117c27c81593cdcc1581c7",
  "parentHash": "0x8e9f155332ecc4925cc48841a5af2c7fcc65af3630c7565e2f39fe92b80c6455",
  "number": 120476,
  "timestamp": 1440160481,
  "nonce": "0x0e4800acb210534e",
  "difficulty": 4419712601179,
  "gasLimit": {
    "_hex": "0x2fefd8"
  },
  "gasUsed": {
    "_hex": "0x5208"
  },
  "miner": "0x580992B51e3925e23280EfB93d3047C82f17E038",
  "extraData": "0x",
  "transactions": [
    {
      "hash": "0x08afdb1aeda1b64a36ca7bf8ba4ef1f3d7c7454dfefa345f4e100071e8483c63",
      "blockHash": "0x78c8200a9e1e79c0584ef5db216bae653a039efb0d117c27c81593cdcc1581c7",
      "blockNumber": 120476,
      "transactionIndex": 0,
      "confirmations": null,
      "from": "0x632b9149D70178a7333634275E82d5953F27967B",
      "gasPrice": {
        "_hex": "0xba43b7400"
      },
      "gasLimit": {
        "_hex": "0x15f90"
      },
      "to": "0x8B87d514623d1127f9b56DB60FA1498C1C4bF72e",
      "value": {
        "_hex": "0x56bc75e2d63100000"
      },
      "nonce": 7,
      "data": "0x",
      "r": "0xf39a9f609bafa064afab492f604889492b120d0ebc941371c5e5e5abeff8ceae",
      "s": "0x4c2d674475da3b2b97785b26bea57935db7d19e6343eac1d4c1e9a35a545d538",
      "v": 27,
      "creates": null,
      "raw": "0xf86e07850ba43b740083015f90948b87d514623d1127f9b56db60fa1498c1c4bf72e89056bc75e2d63100000801ba0f39a9f609bafa064afab492f604889492b120d0ebc941371c5e5e5abeff8ceaea04c2d674475da3b2b97785b26bea57935db7d19e6343eac1d4c1e9a35a545d538",
      "networkId": 0,
      "chainId": 0
    }
  ]
}