{
  "hash": "0xf9188e3e5a3e30330d0de20cd65192cafeee0bf9eb13c33266f9f35a6613685d",
  "parentHash": "0xe242a12506b35aea8d768bf7d849a7b1fa869f1a811655847e8b8f6d2274faee",
  "number": 122306,
  "timestamp": 1440191919,
  "nonce": "0x03ee5a528a34ccfb",
  "difficulty": 4462111767162,
  "gasLimit": {
    "_hex": "0x2fefd8"
  },
  "gasUsed": {
    "_hex": "0x5208"
  },
  "miner": "0x52bc44d5378309EE2abF1539BF71dE1b7d7bE3b5",
  "extraData": "0xd783010002844765746887676f312e342e32856c696e7578",
  "transactions": [
    {
      "hash": "0x6e21cb27c29a58571a9bb17fdf30084b0d018367d36e5a8e78faa90e13886d24",
      "blockHash": "0xf9188e3e5a3e30330d0de20cd65192cafeee0bf9eb13c33266f9f35a6613685d",
      "blockNumber": 122306,
      "transactionIndex": 0,
      "confirmations": null,
      "from": "0x608f4b86321a68453f9adf6F06F7Fc3E621739ad",
      "gasPrice": {
        "_hex": "0xe1e213dac"
      },
      "gasLimit": {
        "_hex": "0x5208"
      },
      "to": "0x32Be343B94f860124dC4fEe278FDCBD38C102D88",
      "value": {
        "_hex": "0x455f0b69b2932800"
      },
      "nonce": 128,
      "data": "0x",
      "r": "0x7ce0ab8f17fadf23e3752a5e46fc4e5d3c97eafc4549eda51b5fa973e85b22d3",
      "s": "0x16379793f089f234efd4a1449587620952618e5d6461119f0759402ce903c331",
      "v": 28,
      "creates": null,
      "raw": "0xf86d8180850e1e213dac8252089432be343b94f860124dc4fee278fdcbd38c102d8888455f0b69b2932800801ca07ce0ab8f17fadf23e3752a5e46fc4e5d3c97eafc4549eda51b5fa973e85b22d3a016379793f089f234efd4a1449587620952618e5d6461119f0759402ce903c331",
      "networkId": 0,
      "chainId": 0
    }
  ]
}