{
  "hash": "0x068243afcf3254940d256e37452434878cbc5c9b2fa3d102cdf6b6dde267b988",
  "parentHash": "0x1783dfe36de12e645a7ec2cdec018e8f9d33232831ffb115cf95323addadcb9b",
  "number": 75205,
  "timestamp": 1439399475,
  "nonce": "0x374d6c80851f0371",
  "difficulty": 2194391822139,
  "gasLimit": {
    "_hex": "0x2fefd8"
  },
  "gasUsed": {
    "_hex": "0xa410"
  },
  "miner": "0xbb7B8287f3F0a933474a79eAe42CBCa977791171",
  "extraData": "0x476574682f4c5649562f76312e302e312f6c696e75782f676f312e342e32",
  "transactions": [
    {
      "hash": "0xd90f8b3876d20249f1527b807ab4b749c3c4026ef4d6798f76f693ef523e4789",
      "blockHash": "0x068243afcf3254940d256e37452434878cbc5c9b2fa3d102cdf6b6dde267b988",
      "blockNumber": 75205,
      "transactionIndex": 0,
      "confirmations": null,
      "from": "0x96811Ad897894eC178872117C8BF2f03971A393B",
      "gasPrice": {
        "_hex": "0xdf9ba12bc"
      },
      "gasLimit": {
        "_hex": "0x5208"
      },
      "to": "0x32Be343B94f860124dC4fEe278FDCBD38C102D88",
      "value": {
        "_hex": "0x455f1714ea2ad400"
      },
      "nonce": 16,
      "data": "0x",
      "r": "0x84431e4cdb8e949c9a1b5edf1e4f31ce352ef2a1ac235e112ff37cafa1675d68",
      "s": "0x41da5e548aa2bc7c1be1411e10f7c1969b3b4a1ba20cbfa4a376093105981786",
      "v": 27,
      "creates": null,
      "raw": "0xf86c10850df9ba12bc8252089432be343b94f860124dc4fee278fdcbd38c102d8888455f1714ea2ad400801ba084431e4cdb8e949c9a1b5edf1e4f31ce352ef2a1ac235e112ff37cafa1675d68a041da5e548aa2bc7c1be1411e10f7c1969b3b4a1ba20cbfa4a376093105981786",
      "networkId": 0,
      "chainId": 0
    },
    {
      "hash": "0x792148faaa8cbf16bab5569ae20f3fd2302c4333ce80de1def2cbfcc9735ae50",
      "blockHash": "0x068243afcf3254940d256e37452434878cbc5c9b2fa3d102cdf6b6dde267b988",
      "blockNumber": 75205,
      "transactionIndex": 1,
      "confirmations": null,
      "from": "0x59C62d3D43f9EA1c4118d98c188AA5d028b8bB8E",
      "gasPrice": {
        "_hex": "0xdf9ba12bc"
      },
      "gasLimit": {
        "_hex": "0x5208"
      },
      "to": "0x32Be343B94f860124dC4fEe278FDCBD38C102D88",
      "value": {
        "_hex": "0xde06f0cd1b76d000"
      },
      "nonce": 1,
      "data": "0x",
      "r": "0xd30facb51eb6370bf97dc47e2bccc06585b660396251b4bccd28749452d99fa3",
      "s": "0x2dacae06c901b04188e4a0b7e2a3e4aea66cfbe6cead6f00a9e45f41bdc9912d",
      "v": 27,
      "creates": null,
      "raw": "0xf86c01850df9ba12bc8252089432be343b94f860124dc4fee278fdcbd38c102d8888de06f0cd1b76d000801ba0d30facb51eb6370bf97dc47e2bccc06585b660396251b4bccd28749452d99fa3a02dacae06c901b04188e4a0b7e2a3e4aea66cfbe6cead6f00a9e45f41bdc9912d",
      "networkId": 0,
      "chainId": 0
    }
  ]
}