{
  "hash": "0x8a7626d3feb894a3a5e5fec92483feb1e27ae1643d5d384e000c6688bb3e72d8",
  "parentHash": "0xd585eb3a4b61c42a527164219a799e39247566171244e8dd1bd09737bc92a771",
  "number": 75131,
  "timestamp": 1439398155,
  "nonce": "0x77a65888a2100d2a",
  "difficulty": 2194411180025,
  "gasLimit": {
    "_hex": "0x2fefd5"
  },
  "gasUsed": {
    "_hex": "0x5208"
  },
  "miner": "0x63BBedc46A1113Ba7938CF7C18CCb5Aed20eC733",
  "extraData": "0x",
  "transactions": [
    {
      "hash": "0xbeb67d44a450f31a77b1fe617003fce381f21ade5e52d526625ed74f53dc8829",
      "blockHash": "0x8a7626d3feb894a3a5e5fec92483feb1e27ae1643d5d384e000c6688bb3e72d8",
      "blockNumber": 75131,
      "transactionIndex": 0,
      "confirmations": null,
      "from": "0x2910543Af39abA0Cd09dBb2D50200b3E800A63D2",
      "gasPrice": {
        "_hex": "0xcaf92f2e6"
      },
      "gasLimit": {
        "_hex": "0x5208"
      },
      "to": "0x3D4B30B579a3425190B81Ce22225A35DE37CdDe5",
      "value": {
        "_hex": "0xdcef33a6f838000"
      },
      "nonce": 308,
      "data": "0x",
      "r": "0xe296fb973b2c277a09c3358cf95bf0da5ffd1b37cb2694cc144ec370af0b8cd6",
      "s": "0x3587311e1b9755facee56b144b1dc1afab5d9e28cb16a1c811c84af00ab51267",
      "v": 27,
      "creates": null,
      "raw": "0xf86e820134850caf92f2e6825208943d4b30b579a3425190b81ce22225a35de37cdde5880dcef33a6f838000801ba0e296fb973b2c277a09c3358cf95bf0da5ffd1b37cb2694cc144ec370af0b8cd6a03587311e1b9755facee56b144b1dc1afab5d9e28cb16a1c811c84af00ab51267",
      "networkId": 0,
      "chainId": 0
    }
  ]
}