{
  "hash": "0xceaec7392f0b611bbbbde144dbec29b9d637324e52e157179098c1d11dcecf6c",
  "parentHash": "0x584131afff118e671a4cabf82b977ec93a25d92f0414c58172b0ea0b0d2f6754",
  "number": 116155,
  "timestamp": 1440069309,
  "nonce": "0xb7d821ac01b5939b",
  "difficulty": 4595897220047,
  "gasLimit": {
    "_hex": "0x2fefd8"
  },
  "gasUsed": {
    "_hex": "0x40974"
  },
  "miner": "0xe6A7a1d47ff21B6321162AEA7C6CB457D5476Bca",
  "extraData": "0x476574682f76312e302e312d38326566323666362f6c696e75782f676f312e34",
  "transactions": [
    {
      "hash": "0xcd4188cbfb9e8cabfdf56c83a771d10316ac99344e307f2a1bb37e1586ed1e84",
      "blockHash": "0xceaec7392f0b611bbbbde144dbec29b9d637324e52e157179098c1d11dcecf6c",
      "blockNumber": 116155,
      "transactionIndex": 0,
      "confirmations": null,
      "from": "0x6e1Ea4B183E252c9bB7767a006d4B43696cb8aE9",
      "gasPrice": {
        "_hex": "0x110c8f7d8de"
      },
      "gasLimit": {
        "_hex": "0xc350"
      },
      "to": "0x2910543Af39abA0Cd09dBb2D50200b3E800A63D2",
      "value": {
        "_hex": "0xff011d2523cd80000"
      },
      "nonce": 0,
      "data": "0x454e46453039413652",
      "r": "0x369bc999bf900b9461a42a7362716b206394a266acf8d57a97be49650e081240",
      "s": "0xa1f97b5974dfa6b75f5e74e652ad0e6350d91214d0307b510673b9b58956c6e0",
      "v": 27,
      "creates": null,
      "raw": "0xf87780860110c8f7d8de82c350942910543af39aba0cd09dbb2d50200b3e800a63d2890ff011d2523cd8000089454e464530394136521ba0369bc999bf900b9461a42a7362716b206394a266acf8d57a97be49650e081240a0a1f97b5974dfa6b75f5e74e652ad0e6350d91214d0307b510673b9b58956c6e0",
      "networkId": 0,
      "chainId": 0
    },
    {
      "hash": "0x98ce8cc161f146c10e004ce2ad4dce571531517ffa7a2f123effe9431ac0cd32",
      "blockHash": "0xceaec7392f0b611bbbbde144dbec29b9d637324e52e157179098c1d11dcecf6c",
      "blockNumber": 116155,
      "transactionIndex": 1,
      "confirmations": null,
      "from": "0xf15B7384b900a75f5909f72BE3f0100221d88C1F",
      "gasPrice": {
        "_hex": "0xdcaea6c42"
      },
      "gasLimit": {
        "_hex": "0xf4240"
      },
      "to": null,
      "value": {
        "_hex": "0x0"
      },
      "nonce": 2,
      "data": "0x60606040526040516102b43803806102b48339016040526060805160600190602001505b5b33600060006101000a81548173ffffffffffffffffffffffffffffffffffffffff021916908302179055505b806001600050908051906020019082805482825590600052602060002090601f01602090048101928215609e579182015b82811115609d5782518260005055916020019190600101906081565b5b50905060c5919060a9565b8082111560c1576000818150600090555060010160a9565b5090565b50505b506101dc806100d86000396000f30060606040526000357c01000000000000000000000000000000000000000000000000000000009004806341c0e1b514610044578063cfae32171461005157610042565b005b61004f6004506100ca565b005b61005c60045061015e565b60405180806020018281038252838181518152602001915080519060200190808383829060006004602084601f0104600302600f01f150905090810190601f1680156100bc5780820380516001836020036101000a031916815260200191505b509250505060405180910390f35b600060009054906101000a900473ffffffffffffffffffffffffffffffffffffffff1673ffffffffffffffffffffffffffffffffffffffff163373ffffffffffffffffffffffffffffffffffffffff16141561015b57600060009054906101000a900473ffffffffffffffffffffffffffffffffffffffff1673ffffffffffffffffffffffffffffffffffffffff16ff5b5b565b60206040519081016040528060008152602001506001600050805480601f016020809104026020016040519081016040528092919081815260200182805480156101cd57820191906000526020600020905b8154815290600101906020018083116101b057829003601f168201915b505050505090506101d9565b9056000000000000000000000000000000000000000000000000000000000000002000000000000000000000000000000000000000000000000000000000000000184920616d206f6e20746865206574686572636861696e21210000000000000000",
      "r": "0x78992f80178108a90b7ac8a4ac642d86d5c24d2295755234d688fa0c74d7cfec",
      "s": "0x0f670b5840f8a52549a07babe97439f79438749b006ef402556732e20de349dd",
      "v": 27,
      "creates": "0x49e77Af7f52EEC4B042a52b957c96df1d7c1D31B",
      "raw": "0xf9036702850dcaea6c42830f42408080b9031460606040526040516102b43803806102b48339016040526060805160600190602001505b5b33600060006101000a81548173ffffffffffffffffffffffffffffffffffffffff021916908302179055505b806001600050908051906020019082805482825590600052602060002090601f01602090048101928215609e579182015b82811115609d5782518260005055916020019190600101906081565b5b50905060c5919060a9565b8082111560c1576000818150600090555060010160a9565b5090565b50505b506101dc806100d86000396000f30060606040526000357c01000000000000000000000000000000000000000000000000000000009004806341c0e1b514610044578063cfae32171461005157610042565b005b61004f6004506100ca565b005b61005c60045061015e565b60405180806020018281038252838181518152602001915080519060200190808383829060006004602084601f0104600302600f01f150905090810190601f1680156100bc5780820380516001836020036101000a031916815260200191505b509250505060405180910390f35b600060009054906101000a900473ffffffffffffffffffffffffffffffffffffffff1673ffffffffffffffffffffffffffffffffffffffff163373ffffffffffffffffffffffffffffffffffffffff16141561015b57600060009054906101000a900473ffffffffffffffffffffffffffffffffffffffff1673ffffffffffffffffffffffffffffffffffffffff16ff5b5b565b60206040519081016040528060008152602001506001600050805480601f016020809104026020016040519081016040528092919081815260200182805480156101cd57820191906000526020600020905b8154815290600101906020018083116101b057829003601f168201915b505050505090506101d9565b9056000000000000000000000000000000000000000000000000000000000000002000000000000000000000000000000000000000000000000000000000000000184920616d206f6e20746865206574686572636861696e212100000000000000001ba078992f80178108a90b7ac8a4ac642d86d5c24d2295755234d688fa0c74d7cfeca00f670b5840f8a52549a07babe97439f79438749b006ef402556732e20de349dd",
      "networkId": 0,
      "chainId": 0
    },
    {
      "hash": "0x7296c06645f7fd0680986346666be2fbe74f6a6f1b1ae8a396fe0e97414283b0",
      "blockHash": "0xceaec7392f0b611bbbbde144dbec29b9d637324e52e157179098c1d11dcecf6c",
      "blockNumber": 116155,
      "transactionIndex": 2,
      "confirmations": null,
      "from": "0x60a175bB691fEE8557a7b6D8eFC9E49889486f41",
      "gasPrice": {
        "_hex": "0xd9c6925a4"
      },
      "gasLimit": {
        "_hex": "0x15f90"
      },
      "to": "0x67a8Acb3621e0683EC4eeb0be82BE8cf344d97c6",
      "value": {
        "_hex": "0x8ac7230489e80000"
      },
      "nonce": 16,
      "data": "0x",
      "r": "0x7cb12b6f497f5611f618e21fefc615b9c120ddf0f3946b354b12f83448873097",
      "s": "0x56be0e9f4c047353bdfc20e77567f6fb6a8ce2e2efac56132fdc95018cb4b53b",
      "v": 27,
      "creates": null,
      "raw": "0xf86d10850d9c6925a483015f909467a8acb3621e0683ec4eeb0be82be8cf344d97c6888ac7230489e80000801ba07cb12b6f497f5611f618e21fefc615b9c120ddf0f3946b354b12f83448873097a056be0e9f4c047353bdfc20e77567f6fb6a8ce2e2efac56132fdc95018cb4b53b",
      "networkId": 0,
      "chainId": 0
    }
  ]
}