{
  "hash": "0x31ee8775ce53a581d9c35f761fb7d93a579de275187bc39526559ffa12467828",
  "parentHash": "0xc36b4a99d037144648b84a716f6c12d1d9dc53d4f026f3c63c75fecfbeb093bb",
  "number": 74518,
  "timestamp": 1439387304,
  "nonce": "0xfb46cbd0d0eddc84",
  "difficulty": 2217190242621,
  "gasLimit": {
    "_hex": "0x2fefd8"
  },
  "gasUsed": {
    "_hex": "0x5208"
  },
  "miner": "0xf8E0CA3Ed80bd541b94BEdCf259e8CF2141A9523",
  "extraData": "0x476574682f76312e302e312f77696e646f77732f676f312e342e32",
  "transactions": [
    {
      "hash": "0x09730fa63f88718ff7a69b852fd1c4d8b29c3ee3f7f5f1d99cd1fecfc8e2c532",
      "blockHash": "0x31ee8775ce53a581d9c35f761fb7d93a579de275187bc39526559ffa12467828",
      "blockNumber": 74518,
      "transactionIndex": 0,
      "confirmations": null,
      "from": "0x727A42a8D67fcaa0Ab81D46f1EE66bfc9b8789AC",
      "gasPrice": {
        "_hex": "0xd9469a222"
      },
      "gasLimit": {
        "_hex": "0x15f90"
      },
      "to": "0x285B048CC4cB946abCF3eF11aDe982C36946AF18",
      "value": {
        "_hex": "0xd02ab486cedc0000"
      },
      "nonce": 7,
      "data": "0x",
      "r": "0x252ee16b0a4fc466a68457a03d9834c3ada6d9d42dfb1db883b2bcde43994769",
      "s": "0x0869cf970172d8d564934c2c823a835fa99cd72ee917ee3e94c9ad8c4ec21255",
      "v": 28,
      "creates": null,
      "raw": "0xf86d07850d9469a22283015f9094285b048cc4cb946abcf3ef11ade982c36946af1888d02ab486cedc0000801ca0252ee16b0a4fc466a68457a03d9834c3ada6d9d42dfb1db883b2bcde43994769a00869cf970172d8d564934c2c823a835fa99cd72ee917ee3e94c9ad8c4ec21255",
      "networkId": 0,
      "chainId": 0
    }
  ]
}