{
  "hash": "0xdb295458ae80eec9c23dbce4c5035677665912cb5751fbbdea11372701dd7581",
  "parentHash": "0xf148476230c9f05fced15db9b2522e66940abe524bde4b1c6fdbadd0943562b3",
  "number": 81067,
  "timestamp": 1439495688,
  "nonce": "0x0cff2a9b5242fadc",
  "difficulty": 2429645105522,
  "gasLimit": {
    "_hex": "0x2fefd8"
  },
  "gasUsed": {
    "_hex": "0xf618"
  },
  "miner": "0x8eB3747b8397C48BC29fd5Df6765AbCEfbDffFCA",
  "extraData": "0x476574682f76312e302e312d38326566323666362f6c696e75782f676f312e34",
  "transactions": [
    {
      "hash": "0x0fcb3448529ab3fe9d3ac4994e86df87dc2f6daf96316d630ed6d9f197010e69",
      "blockHash": "0xdb295458ae80eec9c23dbce4c5035677665912cb5751fbbdea11372701dd7581",
      "blockNumber": 81067,
      "transactionIndex": 0,
      "confirmations": null,
      "from": "0x2910543Af39abA0Cd09dBb2D50200b3E800A63D2",
      "gasPrice": {
        "_hex": "0xcb00b273f"
      },
      "gasLimit": {
        "_hex": "0x5208"
      },
      "to": "0xdEC7d1B05f89c0Ce0870Ea4AeA18138264675478",
      "value": {
        "_hex": "0x410d46a6a76cdf8000"
      },
      "nonce": 436,
      "data": "0x",
      "r": "0xe74e9a555db3658daad6347f87295cf5e5df5a58c21b35226e5b65ad0760dc56",
      "s": "0x01540d9d791feb5259e6d0de8f50034a44c983de3c1f2396a0d6400afcb5e306",
      "v": 27,
      "creates": null,
      "raw": "0xf86f8201b4850cb00b273f82520894dec7d1b05f89c0ce0870ea4aea1813826467547889410d46a6a76cdf8000801ba0e74e9a555db3658daad6347f87295cf5e5df5a58c21b35226e5b65ad0760dc56a001540d9d791feb5259e6d0de8f50034a44c983de3c1f2396a0d6400afcb5e306",
      "networkId": 0,
      "chainId": 0
    },
    {
      "hash": "0x567d9a2ed98b96b8caece9533c094498d6e42edf2e18dd6fba45d4313e61210a",
      "blockHash": "0xdb295458ae80eec9c23dbce4c5035677665912cb5751fbbdea11372701dd7581",
      "blockNumber": 81067,
      "transactionIndex": 1,
      "confirmations": null,
      "from": "0x2910543Af39abA0Cd09dBb2D50200b3E800A63D2",
      "gasPrice": {
        "_hex": "0xcb00b273f"
      },
      "gasLimit": {
        "_hex": "0x5208"
      },
      "to": "0x3c0552a53b84E1F265708FA1AfA9b5E71ccAffFa",
      "value": {
        "_hex": "0x10d9ee0e6f034f2000"
      },
      "nonce": 437,
      "data": "0x",
      "r": "0xfd1b8ba28ade99997e2aa9ad2e87bcc92719f8a1b006f81b22f3c3b0edfefc72",
      "s": "0x6fe3ef42da65f08488204a200f65dacacf80a3b522a18195cea588a9f5d2607b",
      "v": 28,
      "creates": null,
      "raw": "0xf86f8201b5850cb00b273f825208943c0552a53b84e1f265708fa1afa9b5e71ccafffa8910d9ee0e6f034f2000801ca0fd1b8ba28ade99997e2aa9ad2e87bcc92719f8a1b006f81b22f3c3b0edfefc72a06fe3ef42da65f08488204a200f65dacacf80a3b522a18195cea588a9f5d2607b",
      "networkId": 0,
      "chainId": 0
    },
    {
      "hash": "0xeb5037798d58c6280e2f8f8f022a02fe2168bfdf05e68ec208ad5d764ac4d230",
      "blockHash": "0xdb295458ae80eec9c23dbce4c5035677665912cb5751fbbdea11372701dd7581",
      "blockNumber": 81067,
      "transactionIndex": 2,
      "confirmations": null,
      "from": "0x2910543Af39abA0Cd09dBb2D50200b3E800A63D2",
      "gasPrice": {
        "_hex": "0xcb00b273f"
      },
      "gasLimit": {
        "_hex": "0x5208"
      },
      "to": "0x5cBB39862E5efC915765355583BE5aF46CB29180",
      "value": {
        "_hex": "0xa9219675f494b8000"
      },
      "nonce": 438,
      "data": "0x",
      "r": "0xbda3563a30abe017a59240d5321a02658f557f374b75d289fd189a3224131cfd",
      "s": "0x48465b6eda9a566fb0fbef6de9143296a9ae92d8ee94b110e57923c1bd997597",
      "v": 27,
      "creates": null,
      "raw": "0xf86f8201b6850cb00b273f825208945cbb39862e5efc915765355583be5af46cb29180890a9219675f494b8000801ba0bda3563a30abe017a59240d5321a02658f557f374b75d289fd189a3224131cfda048465b6eda9a566fb0fbef6de9143296a9ae92d8ee94b110e57923c1bd997597",
      "networkId": 0,
      "chainId": 0
    }
  ]
}