{
  "hash": "0x12d071326d5d5f2e4487ac8b523da534ed3bb8db0b37cbc04d635fc39d2d8e35",
  "parentHash": "0x05ff2a4a50f9b2fd82b6a7bcb73ea0d020e7de2c5ab0522c9255c25230669ed4",
  "number": 80858,
  "timestamp": 1439492203,
  "nonce": "0xc88ac817b2d12b1e",
  "difficulty": 2445177631173,
  "gasLimit": {
    "_hex": "0x2fefd8"
  },
  "gasUsed": {
    "_hex": "0xa410"
  },
  "miner": "0x7E6930B63D03e88F5928C5cd6ee3FCee4D714F7F",
  "extraData": "0x",
  "transactions": [
    {
      "hash": "0x68571d7a37f52a6dd289b5e2d4e59c6c8edcd20623d01f168f7dc79273ac5bb8",
      "blockHash": "0x12d071326d5d5f2e4487ac8b523da534ed3bb8db0b37cbc04d635fc39d2d8e35",
      "blockNumber": 80858,
      "transactionIndex": 0,
      "confirmations": null,
      "from": "0x2910543Af39abA0Cd09dBb2D50200b3E800A63D2",
      "gasPrice": {
        "_hex": "0xd4c82ce33"
      },
      "gasLimit": {
        "_hex": "0x5208"
      },
      "to": "0x37A8F34f58a1a6894b514E33142e1a3eb63b2a52",
      "value": {
        "_hex": "0x324e964b3eca80000"
      },
      "nonce": 406,
      "data": "0x",
      "r": "0x6863977d4f86102de65cc817713d938d1f86f0dd4f87965d7e6ce271f7c1efd4",
      "s": "0x54f3bb80fd11a8b1fd3b72e5a64b6c3b44a13b69143646e7d2d3f038050f7b26",
      "v": 28,
      "creates": null,
      "raw": "0xf86f820196850d4c82ce338252089437a8f34f58a1a6894b514e33142e1a3eb63b2a52890324e964b3eca80000801ca06863977d4f86102de65cc817713d938d1f86f0dd4f87965d7e6ce271f7c1efd4a054f3bb80fd11a8b1fd3b72e5a64b6c3b44a13b69143646e7d2d3f038050f7b26",
      "networkId": 0,
      "chainId": 0
    },
    {
      "hash": "0x8bf574d05d24bfdbfd91c477aa9c6655a894c9cb95ac39eabd159221cad7bfb0",
      "blockHash": "0x12d071326d5d5f2e4487ac8b523da534ed3bb8db0b37cbc04d635fc39d2d8e35",
      "blockNumber": 80858,
      "transactionIndex": 1,
      "confirmations": null,
      "from": "0xA5a5181868a8Df772f87DC95aB9B366e974Da936",
      "gasPrice": {
        "_hex": "0xba43b7400"
      },
      "gasLimit": {
        "_hex": "0x5265"
      },
      "to": "0x1527fcd698B3A8707bb745F80ab114FfF3Db35E2",
      "value": {
        "_hex": "0xde0b6b3a7640000"
      },
      "nonce": 4,
      "data": "0x",
      "r": "0x38e6f96966cfb1f9385ab8cdae13d857a210767c9c24ad7515ffa78612009b3d",
      "s": "0xeb5f36d643f9cf7e8b30deecfc687b3c399c8df14d2689ab01fac8dcf21f4431",
      "v": 28,
      "creates": null,
      "raw": "0xf86c04850ba43b7400825265941527fcd698b3a8707bb745f80ab114fff3db35e2880de0b6b3a7640000801ca038e6f96966cfb1f9385ab8cdae13d857a210767c9c24ad7515ffa78612009b3da0eb5f36d643f9cf7e8b30deecfc687b3c399c8df14d2689ab01fac8dcf21f4431",
      "networkId": 0,
      "chainId": 0
    }
  ]
}