{
  "hash": "0x2a8cfde1bfe3e27b6dd2ff1836adad90852dc812e855724e25265edf39e4f248",
  "parentHash": "0xa5cc5e4a812f922f98ff51bc9016598834d72a1ee9709c452028270fd9f6d67b",
  "number": 58799,
  "timestamp": 1439126778,
  "nonce": "0xc640cdb7de318857",
  "difficulty": 1715687349463,
  "gasLimit": {
    "_hex": "0x2fefd8"
  },
  "gasUsed": {
    "_hex": "0x5208"
  },
  "miner": "0xE81c9A6Ebe623E5d483110e0eaF2b10c769b1212",
  "extraData": "0x476574682f76312e302e312f6c696e75782f676f312e342e32",
  "transactions": [
    {
      "hash": "0x77f3fbef49f8659c6d3437739940341e3b3e1b2492d1ade8e565c1b54010c1dc",
      "blockHash": "0x2a8cfde1bfe3e27b6dd2ff1836adad90852dc812e855724e25265edf39e4f248",
      "blockNumber": 58799,
      "transactionIndex": 0,
      "confirmations": null,
      "from": "0x985D744C50fdcB355d105EE00565A8b32BF0B08f",
      "gasPrice": {
        "_hex": "0xd8e8c74ff"
      },
      "gasLimit": {
        "_hex": "0x15f90"
      },
      "to": "0x07BC2CC8eeDC01970700efC9c4Fb36735e98CD71",
      "value": {
        "_hex": "0x0"
      },
      "nonce": 1,
      "data": "0x",
      "r": "0x1c910d15cfd046e90496725790acc01819723b759050fb28d1e30fc69aefded1",
      "s": "0x33a7bf3f5ead91f2563866561cf286e5268b1cc0e16b1bb2ccec020eba29b8cc",
      "v": 27,
      "creates": null,
      "raw": "0xf86501850d8e8c74ff83015f909407bc2cc8eedc01970700efc9c4fb36735e98cd7180801ba01c910d15cfd046e90496725790acc01819723b759050fb28d1e30fc69aefded1a033a7bf3f5ead91f2563866561cf286e5268b1cc0e16b1bb2ccec020eba29b8cc",
      "networkId": 0,
      "chainId": 0
    }
  ]
}