{
  "hash": "0x4b4335ae77d08d117122259321d161f79a4c0527461088a502c929ad94c50abe",
  "parentHash": "0xe90998b59f30b34acc1a523222dd4bc359ca1433eb8eef3115a871c57f97e989",
  "number": 101395,
  "timestamp": 1439822366,
  "nonce": "0x6f4fa694f92558b0",
  "difficulty": 3828041057156,
  "gasLimit": {
    "_hex": "0x2fefd8"
  },
  "gasUsed": {
    "_hex": "0x5208"
  },
  "miner": "0xe6A7a1d47ff21B6321162AEA7C6CB457D5476Bca",
  "extraData": "0x476574682f76312e302e312d38326566323666362f6c696e75782f676f312e34",
  "transactions": [
    {
      "hash": "0x35f8b230e236b73018a2aa3fa7b1e2bd91aaa0eac2784d89d80b7f15885ce506",
      "blockHash": "0x4b4335ae77d08d117122259321d161f79a4c0527461088a502c929ad94c50abe",
      "blockNumber": 101395,
      "transactionIndex": 0,
      "confirmations": null,
      "from": "0x9827C93917a0c59899BEfBa58d104A788782e1d4",
      "gasPrice": {
        "_hex": "0xd3d37f23a"
      },
      "gasLimit": {
        "_hex": "0x15f90"
      },
      "to": "0x61F642543d22bAf5382908a714E675Cc0b51ea45",
      "value": {
        "_hex": "0x8ac7230489e80000"
      },
      "nonce": 3,
      "data": "0x",
      "r": "0x1056b8bf69e445af289e4c4eb3dc4ae23a23c8c44236573f8534f606d2f4fd44",
      "s": "0x03707fc90061e6f25d78d0641bc0402ff18bf36a7dfe5c3b6633f7aa2578306f",
      "v": 28,
      "creates": null,
      "raw": "0xf86d03850d3d37f23a83015f909461f642543d22baf5382908a714e675cc0b51ea45888ac7230489e80000801ca01056b8bf69e445af289e4c4eb3dc4ae23a23c8c44236573f8534f606d2f4fd44a003707fc90061e6f25d78d0641bc0402ff18bf36a7dfe5c3b6633f7aa2578306f",
      "networkId": 0,
      "chainId": 0
    }
  ]
}