{
  "hash": "0x32473d5fcc00fc2fd5231233a674e402b029807e63e5e1199ea4c2640357011b",
  "parentHash": "0x80e635ab96c62066808ec83e6d063489de2b7f011a0899dab0193cf3b47f384d",
  "number": 54465,
  "timestamp": 1439054647,
  "nonce": "0xc7328aed9dea3375",
  "difficulty": 1612572025004,
  "gasLimit": {
    "_hex": "0x2fefd8"
  },
  "gasUsed": {
    "_hex": "0x546c"
  },
  "miner": "0x47ff6576639c2e94762eA5443978D7681C0E78DC",
  "extraData": "0x476574682f76312e302e312f6c696e75782f676f312e342e32",
  "transactions": [
    {
      "hash": "0x8b907816f6d7dd9498c1093682e2ab4193c42ae562917eab044bbbe4ce5a9e0a",
      "blockHash": "0x32473d5fcc00fc2fd5231233a674e402b029807e63e5e1199ea4c2640357011b",
      "blockNumber": 54465,
      "transactionIndex": 0,
      "confirmations": null,
      "from": "0xBe5Cba8D37427986E8ca2600e858bB03c359520f",
      "gasPrice": {
        "_hex": "0x110c8f7d8de"
      },
      "gasLimit": {
        "_hex": "0xc350"
      },
      "to": "0x2910543Af39abA0Cd09dBb2D50200b3E800A63D2",
      "value": {
        "_hex": "0x333a826d2ce8240000"
      },
      "nonce": 3,
      "data": "0x454e35323934393347",
      "r": "0xcda65eee1d3b4a9da9cc059bf566775415472f33184ae835149a72c826155d4a",
      "s": "0x7b87aae78b8018bf26113b7847e4148bfb35a0b89db19d003a83beb2e39b54d9",
      "v": 27,
      "creates": null,
      "raw": "0xf87703860110c8f7d8de82c350942910543af39aba0cd09dbb2d50200b3e800a63d289333a826d2ce824000089454e353239343933471ba0cda65eee1d3b4a9da9cc059bf566775415472f33184ae835149a72c826155d4aa07b87aae78b8018bf26113b7847e4148bfb35a0b89db19d003a83beb2e39b54d9",
      "networkId": 0,
      "chainId": 0
    }
  ]
}