{
  "hash": "0x839dd40b1239aa73e9401349ee5cecef3e7067c280c7ea8a38b67d49e0d4bbd4",
  "parentHash": "0x4893904924eede24b59a7c280661ccec682fe6f2b9c3e017cca1c27fefa66d57",
  "number": 93174,
  "timestamp": 1439684221,
  "nonce": "0x64a033d07c20424c",
  "difficulty": 3611962244765,
  "gasLimit": {
    "_hex": "0x2fefd8"
  },
  "gasUsed": {
    "_hex": "0xafa7"
  },
  "miner": "0xC603Ab5ef41fC61AA8b76bEddb09e3Cfcbb174BD",
  "extraData": "0x476574682f76312e302e312f77696e646f77732f676f312e342e32",
  "transactions": [
    {
      "hash": "0x3a3fbdb4a148ad1d9f23ad3431fa6236fdc9bdfba8bbd347b54be4722ad137b6",
      "blockHash": "0x839dd40b1239aa73e9401349ee5cecef3e7067c280c7ea8a38b67d49e0d4bbd4",
      "blockNumber": 93174,
      "transactionIndex": 0,
      "confirmations": null,
      "from": "0x120A270bbC009644e35F0bB6ab13f95b8199c4ad",
      "gasPrice": {
        "_hex": "0xe1120afc1"
      },
      "gasLimit": {
        "_hex": "0x3d090"
      },
      "to": "0x36B33F21Ba59c53E3502E52b8e0a7fD311215FFd",
      "value": {
        "_hex": "0x1d9c00550ee7c36400"
      },
      "nonce": 562,
      "data": "0x",
      "r": "0xeae0628e16806e31dea30a4fb737fed4efd84d4a0de50965a1d9793a84d873a7",
      "s": "0x26e16c4aff6d81b3d830ac60ea8ca7cf4653e5f621bd4d68f057306471f0cc82",
      "v": 28,
      "creates": null,
      "raw": "0xf870820232850e1120afc18303d0909436b33f21ba59c53e3502e52b8e0a7fd311215ffd891d9c00550ee7c36400801ca0eae0628e16806e31dea30a4fb737fed4efd84d4a0de50965a1d9793a84d873a7a026e16c4aff6d81b3d830ac60ea8ca7cf4653e5f621bd4d68f057306471f0cc82",
      "networkId": 0,
      "chainId": 0
    },
    {
      "hash": "0x77ec6c82de13d95969f7c6a653b4465d599de6b65d0dea1961e390d8b36b7a10",
      "blockHash": "0x839dd40b1239aa73e9401349ee5cecef3e7067c280c7ea8a38b67d49e0d4bbd4",
      "blockNumber": 93174,
      "transactionIndex": 1,
      "confirmations": null,
      "from": "0x02020D22dCF88f5eDd66B382D7da019F161fB7e3",
      "gasPrice": {
        "_hex": "0xce45093b9"
      },
      "gasLimit": {
        "_hex": "0x15f90"
      },
      "to": "0xCAc7000C7dBaa2E33Af15325AF5D435E011C7BdD",
      "value": {
        "_hex": "0x8ac7230489e80000"
      },
      "nonce": 19,
      "data": "0xb214faa5384e53354b355737410000000000000000000000000000000000000000000000",
      "r": "0xcee39383a5bd90e9ee297574d94019bcce616b0657b68c90955d964d29753e2a",
      "s": "0x66608ecb72d62ec83211eddf83212573009f9aefcd93d88d8cdb066f1a658587",
      "v": 27,
      "creates": null,
      "raw": "0xf89113850ce45093b983015f9094cac7000c7dbaa2e33af15325af5d435e011c7bdd888ac7230489e80000a4b214faa5384e53354b3557374100000000000000000000000000000000000000000000001ba0cee39383a5bd90e9ee297574d94019bcce616b0657b68c90955d964d29753e2aa066608ecb72d62ec83211eddf83212573009f9aefcd93d88d8cdb066f1a658587",
      "networkId": 0,
      "chainId": 0
    }
  ]
}