{
  "hash": "0x3d95b357bf39563ada7775b81c7c1c7285b75873bc7a5bfa4df193e7b54c69a0",
  "parentHash": "0xb55d4957c305bf61e106ab9926e8bc2d7203b965010d16848a1bcf5c3d28555f",
  "number": 86130,
  "timestamp": 1439573845,
  "nonce": "0x96c98d76f398a822",
  "difficulty": 2812614030112,
  "gasLimit": {
    "_hex": "0x2fefd8"
  },
  "gasUsed": {
    "_hex": "0x5208"
  },
  "miner": "0xe6A7a1d47ff21B6321162AEA7C6CB457D5476Bca",
  "extraData": "0x476574682f76312e302e312d38326566323666362f6c696e75782f676f312e34",
  "transactions": [
    {
      "hash": "0xe2b979883b660eb1fa044ce2837314dd972341d784637cf3cf5cadd722db60af",
      "blockHash": "0x3d95b357bf39563ada7775b81c7c1c7285b75873bc7a5bfa4df193e7b54c69a0",
      "blockNumber": 86130,
      "transactionIndex": 0,
      "confirmations": null,
      "from": "0x2be0891637A46bd64D778d489c9B277c0Cb624eB",
      "gasPrice": {
        "_hex": "0xcdf187314"
      },
      "gasLimit": {
        "_hex": "0x5208"
      },
      "to": "0x32Be343B94f860124dC4fEe278FDCBD38C102D88",
      "value": {
        "_hex": "0x6da6de077c52000"
      },
      "nonce": 0,
      "data": "0x",
      "r": "0xf35cdb6aff052fddb63bc05f5c64d4c936d3cd030161811cbb5879c3979f5836",
      "s": "0x04a6c7a92b31b8cff4e8cc320f0ab7292e5aaf18ccb42ff95375b5c176f34f9d",
      "v": 28,
      "creates": null,
      "raw": "0xf86c80850cdf1873148252089432be343b94f860124dc4fee278fdcbd38c102d888806da6de077c52000801ca0f35cdb6aff052fddb63bc05f5c64d4c936d3cd030161811cbb5879c3979f5836a004a6c7a92b31b8cff4e8cc320f0ab7292e5aaf18ccb42ff95375b5c176f34f9d",
      "networkId": 0,
      "chainId": 0
    }
  ]
}