{
  "hash": "0x96d209348089b7bc4adbb33da10d937ff6008594b93c7cf36f9d4a47dc85acec",
  "parentHash": "0x935ed4aedb55bbfc959ddb18efb33184011730e1ec396747f8628b003edc6331",
  "number": 65892,
  "timestamp": 1439244842,
  "nonce": "0x73bb0bae7b3681d1",
  "difficulty": 1943434029838,
  "gasLimit": {
    "_hex": "0x2fefd8"
  },
  "gasUsed": {
    "_hex": "0xfc92"
  },
  "miner": "0x34f0F706648F334eDf39e555766d4EACD54D61dC",
  "extraData": "0x476574682f76312e302e312d38326566323666362f6c696e75782f676f312e34",
  "transactions": [
    {
      "hash": "0x0197b018f0d7a020365f8bdf2b5630bbc5ec20562fa996d24600413ba2abfc0f",
      "blockHash": "0x96d209348089b7bc4adbb33da10d937ff6008594b93c7cf36f9d4a47dc85acec",
      "blockNumber": 65892,
      "transactionIndex": 0,
      "confirmations": null,
      "from": "0x3FF679B0823a026F2378E5f5F22A6F127cC85828",
      "gasPrice": {
        "_hex": "0x10bd2717cdb"
      },
      "gasLimit": {
        "_hex": "0x61a8"
      },
      "to": "0x71800954e6FA0Cbc43c6440d3CC80660F18a8B6F",
      "value": {
        "_hex": "0x8ba52e6fc45e40000"
      },
      "nonce": 3,
      "data": "0x74657374",
      "r": "0xea5a88d9b54d0dbe750536757c7d2268163a2c481e11918a17e8db15c1221256",
      "s": "0x3ed456306ac21245c5dbab3fc7e88b284985d8feea408a3e6bea5ac38014cfb3",
      "v": 28,
      "creates": null,
      "raw": "0xf8720386010bd2717cdb8261a89471800954e6fa0cbc43c6440d3cc80660f18a8b6f8908ba52e6fc45e4000084746573741ca0ea5a88d9b54d0dbe750536757c7d2268163a2c481e11918a17e8db15c1221256a03ed456306ac21245c5dbab3fc7e88b284985d8feea408a3e6bea5ac38014cfb3",
      "networkId": 0,
      "chainId": 0
    },
    {
      "hash": "0xacc18da5a57e7cbb7bf781cd14fceff7b2b73162f9eefe9db99f1757da686d4f",
      "blockHash": "0x96d209348089b7bc4adbb33da10d937ff6008594b93c7cf36f9d4a47dc85acec",
      "blockNumber": 65892,
      "transactionIndex": 1,
      "confirmations": null,
      "from": "0xFBb1b73C4f0BDa4f67dcA266ce6Ef42f520fBB98",
      "gasPrice": {
        "_hex": "0xda618b922"
      },
      "gasLimit": {
        "_hex": "0x15f90"
      },
      "to": "0xa1A111bc074c9cfa781F0C38e63bD51c91b8af00",
      "value": {
        "_hex": "0x3bd913e6c1df40000"
      },
      "nonce": 16,
      "data": "0x432ced044254525800000000000000000000000000000000000000000000000000000000",
      "r": "0x007a42bcc1f81c644d79033f8523c521c6c5ab917a899ff10bc2980ab4e1b29c",
      "s": "0x3d46caf616e86b692054e97de98d3328962e0c39254f4c9e0137e8449204516e",
      "v": 28,
      "creates": null,
      "raw": "0xf89110850da618b92283015f9094a1a111bc074c9cfa781f0c38e63bd51c91b8af008903bd913e6c1df40000a4432ced0442545258000000000000000000000000000000000000000000000000000000001c9f7a42bcc1f81c644d79033f8523c521c6c5ab917a899ff10bc2980ab4e1b29ca03d46caf616e86b692054e97de98d3328962e0c39254f4c9e0137e8449204516e",
      "networkId": 0,
      "chainId": 0
    }
  ]
}