{
  "hash": "0x53f85998aa98f913756a54f9fe11dfce7b202df05535270ff1b1cdc4b54932ab",
  "parentHash": "0x74cb8022e6c86478f4db1090ce54625615cd0588155ff84810721b42fb2655f9",
  "number": 94841,
  "timestamp": 1439714888,
  "nonce": "0x9e2dbae08a482f28",
  "difficulty": 3515553532088,
  "gasLimit": {
    "_hex": "0x2fefd8"
  },
  "gasUsed": {
    "_hex": "0x5208"
  },
  "miner": "0xaEAf103356C2Ee943F748E8655659D29881323E1",
  "extraData": "0x476574682f76312e302e312f77696e646f77732f676f312e342e32",
  "transactions": [
    {
      "hash": "0x63f9bc6703f2849b9eabd8f2307fefeccdc52083992b3202ac5a8ac07841863f",
      "blockHash": "0x53f85998aa98f913756a54f9fe11dfce7b202df05535270ff1b1cdc4b54932ab",
      "blockNumber": 94841,
      "transactionIndex": 0,
      "confirmations": null,
      "from": "0x120A270bbC009644e35F0bB6ab13f95b8199c4ad",
      "gasPrice": {
        "_hex": "0xd26e0d2f5"
      },
      "gasLimit": {
        "_hex": "0x3d090"
      },
      "to": "0x8b06F59751d5260f1d1d7ec4B399c04609B9d974",
      "value": {
        "_hex": "0x110b7043d3601000"
      },
      "nonce": 587,
      "data": "0x",
      "r": "0x66646a499a8809638f11c35a5efb7324415e70c28c3015561af5e1556c29ab2e",
      "s": "0x78b3c419bb334210d48f5069067b663d270b1899b32689f36ba8dcb41dea9870",
      "v": 28,
      "creates": null,
      "raw": "0xf86f82024b850d26e0d2f58303d090948b06f59751d5260f1d1d7ec4b399c04609b9d97488110b7043d3601000801ca066646a499a8809638f11c35a5efb7324415e70c28c3015561af5e1556c29ab2ea078b3c419bb334210d48f5069067b663d270b1899b32689f36ba8dcb41dea9870",
      "networkId": 0,
      "chainId": 0
    }
  ]
}