{
  "hash": "0x040a0f0e8e6c16d0de7b6188a90ab64a074c1e08c088dcb3db212ff2f9d4ce21",
  "parentHash": "0xab7c5dc5a6cc1b4ecb4f5d8b3f8012dad7f388c3d2f78d3c579dbbdefd139f44",
  "number": 111979,
  "timestamp": 1439999904,
  "nonce": "0x68a8caaec269cb99",
  "difficulty": 4383336746313,
  "gasLimit": {
    "_hex": "0x2fefd8"
  },
  "gasUsed": {
    "_hex": "0x5208"
  },
  "miner": "0x55bAf64fc9eAccFFd7Cc643BB61142E1C6ac093e",
  "extraData": "0x",
  "transactions": [
    {
      "hash": "0xe7c08b26aa18f8086c2c2af3f043851faf05c95b182bce763b9fe56fc28cb817",
      "blockHash": "0x040a0f0e8e6c16d0de7b6188a90ab64a074c1e08c088dcb3db212ff2f9d4ce21",
      "blockNumber": 111979,
      "transactionIndex": 0,
      "confirmations": null,
      "from": "0x60f7C29656Fc491e766750556fE4F0E407f81eB5",
      "gasPrice": {
        "_hex": "0xd83043431"
      },
      "gasLimit": {
        "_hex": "0x15f90"
      },
      "to": "0x5773DFFDd4AD3114CAB6eFE3b9Ca703Fa450Fe40",
      "value": {
        "_hex": "0x16345785d8a0000"
      },
      "nonce": 9,
      "data": "0x",
      "r": "0xdc0d06de38ad2d6bdbe8a4c2426302d714ec80218127602fe997d32d016073b2",
      "s": "0x7560a591389dbefb12757a0beba133ee93d4f4f0ab30200a5738c056d9e2e8a7",
      "v": 28,
      "creates": null,
      "raw": "0xf86d09850d8304343183015f90945773dffdd4ad3114cab6efe3b9ca703fa450fe4088016345785d8a0000801ca0dc0d06de38ad2d6bdbe8a4c2426302d714ec80218127602fe997d32d016073b2a07560a591389dbefb12757a0beba133ee93d4f4f0ab30200a5738c056d9e2e8a7",
      "networkId": 0,
      "chainId": 0
    }
  ]
}