{
  "hash": "0x08e9664b1839a4a882cfa5e32b7ce0b83e91a9f80d48f4bad62257b593b342a4",
  "parentHash": "0xce7d6c95c2bb32275db2052e5c6429556b201aa7ad3ad1d6aab79a7bcc6469ba",
  "number": 46812,
  "timestamp": 1438929561,
  "nonce": "0xf0e62161c8c3d244",
  "difficulty": 1460304652453,
  "gasLimit": {
    "_hex": "0x7afa"
  },
  "gasUsed": {
    "_hex": "0x5208"
  },
  "miner": "0x9746c7e1ef2bd21FF3997fa467593a89cb852BD0",
  "extraData": "0x476574682f76312e302e312f77696e646f77732f676f312e342e32",
  "transactions": [
    {
      "hash": "0x9da79d75e82f3c2fecc2209f9b240b8b476b9d81f9c2977bc8799110ddd63898",
      "blockHash": "0x08e9664b1839a4a882cfa5e32b7ce0b83e91a9f80d48f4bad62257b593b342a4",
      "blockNumber": 46812,
      "transactionIndex": 0,
      "confirmations": null,
      "from": "0xe6A7a1d47ff21B6321162AEA7C6CB457D5476Bca",
      "gasPrice": {
        "_hex": "0xdcf78f1ec"
      },
      "gasLimit": {
        "_hex": "0x5208"
      },
      "to": "0xAa3D5083092Da09B17024192c83361c85B19739d",
      "value": {
        "_hex": "0xed49d98cd534ea4"
      },
      "nonce": 2,
      "data": "0x",
      "r": "0xf2e955b967e0d77fca9e96bf19663734f3c35f78969f9bbb26c6d6644c34419c",
      "s": "0x1b75faccf925c860ab956911e27f9af66d21e4c15dfad02a57938edfb73f2a28",
      "v": 28,
      "creates": null,
      "raw": "0xf86c02850dcf78f1ec82520894aa3d5083092da09b17024192c83361c85b19739d880ed49d98cd534ea4801ca0f2e955b967e0d77fca9e96bf19663734f3c35f78969f9bbb26c6d6644c34419ca01b75faccf925c860ab956911e27f9af66d21e4c15dfad02a57938edfb73f2a28",
      "networkId": 0,
      "chainId": 0
    }
  ]
}