{
  "hash": "0x391bc04ffe44d1cf259ea68048e5345665f1b29762e34177c8b7d24d6b94c93a",
  "parentHash": "0x5efef767811c1c9c0f8fa8e03dcdff0aa1ea810adce3c913a745172e52bb3a80",
  "number": 72708,
  "timestamp": 1439356948,
  "nonce": "0x545a7555dd667028",
  "difficulty": 2189692653531,
  "gasLimit": {
    "_hex": "0x2fefd8"
  },
  "gasUsed": {
    "_hex": "0xa410"
  },
  "miner": "0xe6A7a1d47ff21B6321162AEA7C6CB457D5476Bca",
  "extraData": "0x476574682f76312e302e312d38326566323666362f6c696e75782f676f312e34",
  "transactions": [
    {
      "hash": "0x1fe70ba870ec4d99b8aeea3aa126774636fa6b23107de6396919ae1e277109c5",
      "blockHash": "0x391bc04ffe44d1cf259ea68048e5345665f1b29762e34177c8b7d24d6b94c93a",
      "blockNumber": 72708,
      "transactionIndex": 0,
      "confirmations": null,
      "from": "0x6d37bd781411ccDd33792481E2C9CE5b62D3a5B8",
      "gasPrice": {
        "_hex": "0xcff1250ce"
      },
      "gasLimit": {
        "_hex": "0x5208"
      },
      "to": "0x32Be343B94f860124dC4fEe278FDCBD38C102D88",
      "value": {
        "_hex": "0x18e46ae197f680000"
      },
      "nonce": 3,
      "data": "0x",
      "r": "0x266503fe54d1fb52c6a0b00f4158ed27eb5e4b9c4439e5bfb721afc1452cd5a8",
      "s": "0x19c65f09bdfb16e6aa7743fb594b0727d4ae20e3c28cd7c1b70d847cdc7d072b",
      "v": 27,
      "creates": null,
      "raw": "0xf86d03850cff1250ce8252089432be343b94f860124dc4fee278fdcbd38c102d8889018e46ae197f680000801ba0266503fe54d1fb52c6a0b00f4158ed27eb5e4b9c4439e5bfb721afc1452cd5a8a019c65f09bdfb16e6aa7743fb594b0727d4ae20e3c28cd7c1b70d847cdc7d072b",
      "networkId": 0,
      "chainId": 0
    },
    {
      "hash": "0xe58f6d25b23ba1a8f61933a466b6ad82251664c138787f5c053831916cf13112",
      "blockHash": "0x391bc04ffe44d1cf259ea68048e5345665f1b29762e34177c8b7d24d6b94c93a",
      "blockNumber": 72708,
      "transactionIndex": 1,
      "confirmations": null,
      "from": "0xA2cFBfacdFf21eA558bBd647d87B19fF91239643",
      "gasPrice": {
        "_hex": "0xcff1250ce"
      },
      "gasLimit": {
        "_hex": "0x5208"
      },
      "to": "0x32Be343B94f860124dC4fEe278FDCBD38C102D88",
      "value": {
        "_hex": "0x6c5dae7abc01400000"
      },
      "nonce": 0,
      "data": "0x",
      "r": "0xb72c29c1050574fd7b7af5b3caa6fbfeb5f0dd89fc5a4736599f1169863d20a3",
      "s": "0x5b754a8ebcff4552fc86f556da58df08a96849ae104c41fed552719ef171898e",
      "v": 27,
      "creates": null,
      "raw": "0xf86d80850cff1250ce8252089432be343b94f860124dc4fee278fdcbd38c102d88896c5dae7abc01400000801ba0b72c29c1050574fd7b7af5b3caa6fbfeb5f0dd89fc5a4736599f1169863d20a3a05b754a8ebcff4552fc86f556da58df08a96849ae104c41fed552719ef171898e",
      "networkId": 0,
      "chainId": 0
    }
  ]
}