{
  "hash": "0x0f87ef190709a7be103cb8dcaa8d0caa0fc177970659f1d878478805181e6054",
  "parentHash": "0x6cf6af4586c81c8c4a60678936bd9407ae620cb1848800a079abd0be81e76106",
  "number": 95133,
  "timestamp": 1439719429,
  "nonce": "0xbf5fcd821fe4af09",
  "difficulty": 3518865876246,
  "gasLimit": {
    "_hex": "0x2fefd8"
  },
  "gasUsed": {
    "_hex": "0x5208"
  },
  "miner": "0xE13f83e0288E460362D9E7421f0601fB88C4fd91",
  "extraData": "0x476574682f76312e302e312f6c696e75782f676f312e342e32",
  "transactions": [
    {
      "hash": "0x989e8599a9176f6dc2e44f0e0ab334da516dc3fd3aafe2006a3d1b8055791aa5",
      "blockHash": "0x0f87ef190709a7be103cb8dcaa8d0caa0fc177970659f1d878478805181e6054",
      "blockNumber": 95133,
      "transactionIndex": 0,
      "confirmations": null,
      "from": "0x87fd1C6dFA355a18911997a9BffA561272829453",
      "gasPrice": {
        "_hex": "0xd2fea122b"
      },
      "gasLimit": {
        "_hex": "0x5208"
      },
      "to": "0x32Be343B94f860124dC4fEe278FDCBD38C102D88",
      "value": {
        "_hex": "0xd8d6e31ae5f1d0000"
      },
      "nonce": 2,
      "data": "0x",
      "r": "0x01d2939f568a0f625a03e57b660bb50a31f20c70b2fe72252ee5165f6ffd4d73",
      "s": "0x63f88c8d3c00562956644f2331563418f194ad9198db3cb0155ee5d0e914ee03",
      "v": 28,
      "creates": null,
      "raw": "0xf86d02850d2fea122b8252089432be343b94f860124dc4fee278fdcbd38c102d88890d8d6e31ae5f1d0000801ca001d2939f568a0f625a03e57b660bb50a31f20c70b2fe72252ee5165f6ffd4d73a063f88c8d3c00562956644f2331563418f194ad9198db3cb0155ee5d0e914ee03",
      "networkId": 0,
      "chainId": 0
    }
  ]
}