{
  "hash": "0x2c1a8d20f9de24718bc8b6327062e57864f3566ce30c706fec4de69816d74cbc",
  "parentHash": "0xd1c43461cec73b1afa32ff2b89d4d0fa684c39abde6a59b26e143cfc468fd61a",
  "number": 92377,
  "timestamp": 1439671145,
  "nonce": "0x72d5eaa5add25e24",
  "difficulty": 3502876441530,
  "gasLimit": {
    "_hex": "0x2fefd8"
  },
  "gasUsed": {
    "_hex": "0xa320"
  },
  "miner": "0x007f7f58D3eb5b7510A301eCC749FC1fCDDBE14D",
  "extraData": "0x476574682f76312e302e312f77696e646f77732f676f312e342e32",
  "transactions": [
    {
      "hash": "0x67b034fecdbbf9ac6cb46f0b477d86ffc6422b9ad322bc369223c5368c470bab",
      "blockHash": "0x2c1a8d20f9de24718bc8b6327062e57864f3566ce30c706fec4de69816d74cbc",
      "blockNumber": 92377,
      "transactionIndex": 0,
      "confirmations": null,
      "from": "0xc469E0161968f12A38E4c1A1c153a18207e040c8",
      "gasPrice": {
        "_hex": "0xcf77fea2f"
      },
      "gasLimit": {
        "_hex": "0x15f90"
      },
      "to": "0x4d6387f3B967dA39B11DE111158D49754C31985d",
      "value": {
        "_hex": "0x0"
      },
      "nonce": 1,
      "data": "0x26a183750000000000000000000000000000000000000000000000000000000000000001",
      "r": "0x2657d70e39ab7eb7c71e6881d24f7ff0661851cedc5316223ed5a309abb29515",
      "s": "0x2c97f435a79d3e4152703e12928abec89651dc5e4eecfdd5ea9c19958b0176f2",
      "v": 27,
      "creates": null,
      "raw": "0xf88901850cf77fea2f83015f90944d6387f3b967da39b11de111158d49754c31985d80a426a1837500000000000000000000000000000000000000000000000000000000000000011ba02657d70e39ab7eb7c71e6881d24f7ff0661851cedc5316223ed5a309abb29515a02c97f435a79d3e4152703e12928abec89651dc5e4eecfdd5ea9c19958b0176f2",
      "networkId": 0,
      "chainId": 0
    }
  ]
}