{
  "hash": "0x12e8c673ac6904d2278717c070e8890587d13604b4ed988c463046124ac53365",
  "parentHash": "0xb54aba8e528b1aab21eb11380d9636e77153361d0eb13cd754c328fdf5976e9e",
  "number": 68440,
  "timestamp": 1439287953,
  "nonce": "0x153ac92c7fdfe7c7",
  "difficulty": 2008435195283,
  "gasLimit": {
    "_hex": "0x2fefd8"
  },
  "gasUsed": {
    "_hex": "0x12ea94"
  },
  "miner": "0x39A1BB80a741bF5EC39FB9BE59408Fa0F418fFBf",
  "extraData": "0x476574682f76312e302e312f77696e646f77732f676f312e342e32",
  "transactions": [
    {
      "hash": "0xf23cbb0f2864cd731220eea6e96c83e5fd0af838464aa409170897a2d0f2da03",
      "blockHash": "0x12e8c673ac6904d2278717c070e8890587d13604b4ed988c463046124ac53365",
      "blockNumber": 68440,
      "transactionIndex": 0,
      "confirmations": null,
      "from": "0x9b07f3597C7A7d9712E1d9bbcAB7D037BD01f0B9",
      "gasPrice": {
        "_hex": "0xba43b7400"
      },
      "gasLimit": {
        "_hex": "0x15f90"
      },
      "to": "0x793AE8C1b1a160BFc07BFB0d04F85eab1A71F4f2",
      "value": {
        "_hex": "0x0"
      },
      "nonce": 0,
      "data": "0x3ba15036",
      "r": "0xed7c4109891d2041bd6c1e657d222724a66232399d6b8719ef6d8e16d12ddc2b",
      "s": "0x7d4d2802a20e6ffd48ebb2c5f74d7b77ff0e4c63d971653734213540769b66ef",
      "v": 27,
      "creates": null,
      "raw": "0xf86980850ba43b740083015f9094793ae8c1b1a160bfc07bfb0d04f85eab1a71f4f280843ba150361ba0ed7c4109891d2041bd6c1e657d222724a66232399d6b8719ef6d8e16d12ddc2ba07d4d2802a20e6ffd48ebb2c5f74d7b77ff0e4c63d971653734213540769b66ef",
      "networkId": 0,
      "chainId": 0
    },
    {
      "hash": "0xb9aaea7bdbe97547069853de61cd61149e2528f55d972184cbdb56fc5e92d700",
      "blockHash": "0x12e8c673ac6904d2278717c070e8890587d13604b4ed988c463046124ac53365",
      "blockNumber": 68440,
      "transactionIndex": 1,
      "confirmations": null,
      "from": "0x52E3Deb5A89E619f226d4881E93819d0Fa386BEd",
      "gasPrice": {
        "_hex": "0xba43b7400"
      },
      "gasLimit": {
        "_hex": "0x15f90"
      },
      "to": "0x793AE8C1b1a160BFc07BFB0d04F85eab1A71F4f2",
      "value": {
        "_hex": "0x0"
      },
      "nonce": 0,
      "data": "0x3ba15036",
      "r": "0x2b70c988a4fc73b609a5fb85c8af3db69f6ea6dc54a94038e69d82e3ea910252",
      "s": "0x2cf4aaa898baf3d8588dbe71d35f6d36479a58929ff90fa0dbaa7bfdba274786",
      "v": 27,
      "creates": null,
      "raw": "0xf86980850ba43b740083015f9094793ae8c1b1a160bfc07bfb0d04f85eab1a71f4f280843ba150361ba02b70c988a4fc73b609a5fb85c8af3db69f6ea6dc54a94038e69d82e3ea910252a02cf4aaa898baf3d8588dbe71d35f6d36479a58929ff90fa0dbaa7bfdba274786",
      "networkId": 0,
      "chainId": 0
    },
    {
      "hash": "0xaa547f4418d5200e3893b56535363675dde5c4466ae57d4719d96936b96d4fac",
      "blockHash": "0x12e8c673ac6904d2278717c070e8890587d13604b4ed988c463046124ac53365",
      "blockNumber": 68440,
      "transactionIndex": 2,
      "confirmations": null,
      "from": "0x91Bb1e4deCBA5c69152c6F73B83Ad792e587171d",
      "gasPrice": {
        "_hex": "0xba43b7400"
      },
      "gasLimit": {
        "_hex": "0x15f90"
      },
      "to": "0x793AE8C1b1a160BFc07BFB0d04F85eab1A71F4f2",
      "value": {
        "_hex": "0x0"
      },
      "nonce": 0,
      "data": "0x3ba15036",
      "r": "0x3c0a9bb68ec29f688b4e19e8fd899bf6c6c6c175a91c94ae3f9c5c4512ce9d40",
      "s": "0x5263936c714c7c865d8b31540975042292e48a33f7bcc543f6b3f68141b76213",
      "v": 28,
      "creates": null,
      "raw": "0xf86980850ba43b740083015f9094793ae8c1b1a160bfc07bfb0d04f85eab1a71f4f280843ba150361ca03c0a9bb68ec29f688b4e19e8fd899bf6c6c6c175a91c94ae3f9c5c4512ce9d40a05263936c714c7c865d8b31540975042292e48a33f7bcc543f6b3f68141b76213",
      "networkId": 0,
      "chainId": 0
    },
    {
      "hash": "0x3623ec3f1140db002056bf4c10f279d6b226d3426f974e0eba08a135fe17262b",
      "blockHash": "0x12e8c673ac6904d2278717c070e8890587d13604b4ed988c463046124ac53365",
      "blockNumber": 68440,
      "transactionIndex": 3,
      "confirmations": null,
      "from": "0xfA16a750a87A3409e99D82794A41288752f1F23c",
      "gasPrice": {
        "_hex": "0xba43b7400"
      },
      "gasLimit": {
        "_hex": "0x15f90"
      },
      "to": "0x793AE8C1b1a160BFc07BFB0d04F85eab1A71F4f2",
      "value": {
        "_hex": "0x0"
      },
      "nonce": 0,
      "data": "0x3ba15036",
      "r": "0x4364a0a5a4dd35912716dc35a58d5b9ce9f1154c893d8ef734aa290ea0f0fd5c",
      "s": "0x3f372fbfac3823b4cc548fb04ad67ef9ee4c2f0c54be35d12c3c5f3d60413603",
      "v": 27,
      "creates": null,
      "raw": "0xf86980850ba43b740083015f9094793ae8c1b1a160bfc07bfb0d04f85eab1a71f4f280843ba150361ba04364a0a5a4dd35912716dc35a58d5b9ce9f1154c893d8ef734aa290ea0f0fd5ca03f372fbfac3823b4cc548fb04ad67ef9ee4c2f0c54be35d12c3c5f3d60413603",
      "networkId": 0,
      "chainId": 0
    },
    {
      "hash": "0xa500aca6cb68d0a52b23ef5b70504bd15064a58ad2b022ca0752a72f6f3dfb55",
      "blockHash": "0x12e8c673ac6904d2278717c070e8890587d13604b4ed988c463046124ac53365",
      "blockNumber": 68440,
      "transactionIndex": 4,
      "confirmations": null,
      "from": "0xFD667982F79a2521BC26d8F49F0BC64d99d638CA",
      "gasPrice": {
        "_hex": "0xba43b7400"
      },
      "gasLimit": {
        "_hex": "0x15f90"
      },
      "to": "0x793AE8C1b1a160BFc07BFB0d04F85eab1A71F4f2",
      "value": {
        "_hex": "0x0"
      },
      "nonce": 0,
      "data": "0x3ba15036",
      "r": "0xb66c82c99b63bfbfc5ff5fb2da91bf9f0ea5e341f97b9ab729abae7d90bea020",
      "s": "0x149ff88d23e4f29d2fe973b7055b69b09f51705da009947b721c6602cc05c171",
      "v": 28,
      "creates": null,
      "raw": "0xf86980850ba43b740083015f9094793ae8c1b1a160bfc07bfb0d04f85eab1a71f4f280843ba150361ca0b66c82c99b63bfbfc5ff5fb2da91bf9f0ea5e341f97b9ab729abae7d90bea020a0149ff88d23e4f29d2fe973b7055b69b09f51705da009947b721c6602cc05c171",
      "networkId": 0,
      "chainId": 0
    },
    {
      "hash": "0xeabd6985f4893d2a8d8e692989a10e08a6882477357100028b4a713ebef6d23f",
      "blockHash": "0x12e8c673ac6904d2278717c070e8890587d13604b4ed988c463046124ac53365",
      "blockNumber": 68440,
      "transactionIndex": 5,
      "confirmations": null,
      "from": "0x6747f922385c9a6F9cfDf095F34345257DD597bE",
      "gasPrice": {
        "_hex": "0xba43b7400"
      },
      "gasLimit": {
        "_hex": "0x5208"
      },
      "to": "0xC90A7389B3909a04F9EDDF85A5B51F5f5470b8d9",
      "value": {
        "_hex": "0x1fcbfa42bd6000"
      },
      "nonce": 90,
      "data": "0x",
      "r": "0x379b5827cb61854d0217ddb7cbc860f991ac588e486dbc4d024d53584c263a01",
      "s": "0x54a22b09d4aa4cb2285700b83a78fe3070f04267f870e16aaac5413b905522ad",
      "v": 27,
      "creates": null,
      "raw": "0xf86b5a850ba43b740082520894c90a7389b3909a04f9eddf85a5b51f5f5470b8d9871fcbfa42bd6000801ba0379b5827cb61854d0217ddb7cbc860f991ac588e486dbc4d024d53584c263a01a054a22b09d4aa4cb2285700b83a78fe3070f04267f870e16aaac5413b905522ad",
      "networkId": 0,
      "chainId": 0
    },
    {
      "hash": "0x37b5bf644fbe17551b00ef6e5a5817d8336379de241e6e2c26e3e084c96ab7d7",
      "blockHash": "0x12e8c673ac6904d2278717c070e8890587d13604b4ed988c463046124ac53365",
      "blockNumber": 68440,
      "transactionIndex": 6,
      "confirmations": null,
      "from": "0x994E45646d2F10ADec526E4DC0988D90b8CDE9CC",
      "gasPrice": {
        "_hex": "0xba43b7400"
      },
      "gasLimit": {
        "_hex": "0x15f90"
      },
      "to": "0x793AE8C1b1a160BFc07BFB0d04F85eab1A71F4f2",
      "value": {
        "_hex": "0x0"
      },
      "nonce": 0,
      "data": "0x3ba15036",
      "r": "0x3241310de889a4ffbf1e5eb9302b708dff24dfd70d6438c9479f8f06405bbbab",
      "s": "0x4c49bf334710980567d4fee2412f77bedf6129010a36bdd3bcc3fcbb9a1e686e",
      "v": 27,
      "creates": null,
      "raw": "0xf86980850ba43b740083015f9094793ae8c1b1a160bfc07bfb0d04f85eab1a71f4f280843ba150361ba03241310de889a4ffbf1e5eb9302b708dff24dfd70d6438c9479f8f06405bbbaba04c49bf334710980567d4fee2412f77bedf6129010a36bdd3bcc3fcbb9a1e686e",
      "networkId": 0,
      "chainId": 0
    },
    {
      "hash": "0x8bc7ec458bbd4bef962419e0e9ea90372dac25e1bda4e485c448c1fa20f61b78",
      "blockHash": "0x12e8c673ac6904d2278717c070e8890587d13604b4ed988c463046124ac53365",
      "blockNumber": 68440,
      "transactionIndex": 7,
      "confirmations": null,
      "from": "0x27270e8d3247299FA3B9C8A9825a37fDc3329328",
      "gasPrice": {
        "_hex": "0xba43b7400"
      },
      "gasLimit": {
        "_hex": "0x15f90"
      },
      "to": "0x793AE8C1b1a160BFc07BFB0d04F85eab1A71F4f2",
      "value": {
        "_hex": "0x0"
      },
      "nonce": 0,
      "data": "0x3ba15036",
      "r": "0x3ad7b7a7b6633366d220d984ad99b1058bf0cc9e81c2019839f3cbdbd814b646",
      "s": "0x66ee93ed1734b0500ac7ff95733bb5c25a0386c1b4077011d9230b4735e335d6",
      "v": 27,
      "creates": null,
      "raw": "0xf86980850ba43b740083015f9094793ae8c1b1a160bfc07bfb0d04f85eab1a71f4f280843ba150361ba03ad7b7a7b6633366d220d984ad99b1058bf0cc9e81c2019839f3cbdbd814b646a066ee93ed1734b0500ac7ff95733bb5c25a0386c1b4077011d9230b4735e335d6",
      "networkId": 0,
      "chainId": 0
    },
    {
      "hash": "0x4a0d4d6c231be6b2e5cbdd5d7de7758ba3e0a2684006c2f2b507fcce5a32cadd",
      "blockHash": "0x12e8c673ac6904d2278717c070e8890587d13604b4ed988c463046124ac53365",
      "blockNumber": 68440,
      "transactionIndex": 8,
      "confirmations": null,
      "from": "0x12614c4D024a865466B4CBa60FE4006131745b2f",
      "gasPrice": {
        "_hex": "0xba43b7400"
      },
      "gasLimit": {
        "_hex": "0x15f90"
      },
      "to": "0x793AE8C1b1a160BFc07BFB0d04F85eab1A71F4f2",
      "value": {
        "_hex": "0x0"
      },
      "nonce": 0,
      "data": "0x3ba15036",
      "r": "0x6cc5f32a2b9edaa5a67d7c1860650bfc9fb3e5b3586e2f4b4c27588c25c7ad5c",
      "s": "0x4984a5c1e35afb95f9aafb379ce264be0d2ddac10ad2294a3d96276c7f305c7c",
      "v": 28,
      "creates": null,
      "raw": "0xf86980850ba43b740083015f9094793ae8c1b1a160bfc07bfb0d04f85eab1a71f4f280843ba150361ca06cc5f32a2b9edaa5a67d7c1860650bfc9fb3e5b3586e2f4b4c27588c25c7ad5ca04984a5c1e35afb95f9aafb379ce264be0d2ddac10ad2294a3d96276c7f305c7c",
      "networkId": 0,
      "chainId": 0
    },
    {
      "hash": "0xa5a5f94ccc39657899a12fdd2a73c8541e2cc8f35b4f434160f306611a0e0a2a",
      "blockHash": "0x12e8c673ac6904d2278717c070e8890587d13604b4ed988c463046124ac53365",
      "blockNumber": 68440,
      "transactionIndex": 9,
      "confirmations": null,
      "from": "0x5eDbe11c727D6793BF8bEf3DCa60ae9E666c5dF2",
      "gasPrice": {
        "_hex": "0xba43b7400"
      },
      "gasLimit": {
        "_hex": "0x15f90"
      },
      "to": "0x793AE8C1b1a160BFc07BFB0d04F85eab1A71F4f2",
      "value": {
        "_hex": "0x0"
      },
      "nonce": 0,
      "data": "0x3ba15036",
      "r": "0x440976a89263b38d1ffeef0e4394cb4a167adcc1b36e292d99d7934d12aef74e",
      "s": "0x4542e582f9504a2560b950d3bed5a99750139420e4c56f7f82d9656612b2884c",
      "v": 28,
      "creates": null,
      "raw": "0xf86980850ba43b740083015f9094793ae8c1b1a160bfc07bfb0d04f85eab1a71f4f280843ba150361ca0440976a89263b38d1ffeef0e4394cb4a167adcc1b36e292d99d7934d12aef74ea04542e582f9504a2560b950d3bed5a99750139420e4c56f7f82d9656612b2884c",
      "networkId": 0,
      "chainId": 0
    },
    {
      "hash": "0x699b0ccfed37ecc0a7b43892e00003899fa7966a0471a034e5fce928cd873d70",
      "blockHash": "0x12e8c673ac6904d2278717c070e8890587d13604b4ed988c463046124ac53365",
      "blockNumber": 68440,
      "transactionIndex": 10,
      "confirmations": null,
      "from": "0xDD30f0c0457918d4539c5fF06577cDc58EC9E38e",
      "gasPrice": {
        "_hex": "0xba43b7400"
      },
      "gasLimit": {
        "_hex": "0x15f90"
      },
      "to": "0x793AE8C1b1a160BFc07BFB0d04F85eab1A71F4f2",
      "value": {
        "_hex": "0x0"
      },
      "nonce": 0,
      "data": "0x3ba15036",
      "r": "0x583bf05030e512079c3231bf4a4e33a5ecf910dea32efcca9ce021e614fa8d55",
      "s": "0x50f4e90e169bba62756e6f90dd68384fbe8aa638530d33b34a7bec1f2f876c55",
      "v": 27,
      "creates": null,
      "raw": "0xf86980850ba43b740083015f9094793ae8c1b1a160bfc07bfb0d04f85eab1a71f4f280843ba150361ba0583bf05030e512079c3231bf4a4e33a5ecf910dea32efcca9ce021e614fa8d55a050f4e90e169bba62756e6f90dd68384fbe8aa638530d33b34a7bec1f2f876c55",
      "networkId": 0,
      "chainId": 0
    },
    {
      "hash": "0x3255a9ad7b265488675ffacaf492c6044e7ab9408116b981bfd80d5eebf12541",
      "blockHash": "0x12e8c673ac6904d2278717c070e8890587d13604b4ed988c463046124ac53365",
      "blockNumber": 68440,
      "transactionIndex": 11,
      "confirmations": null,
      "from": "0x5aC39bdCdd5ff549636dA4Bcf7D5b6d348f19D52",
      "gasPrice": {
        "_hex": "0xba43b7400"
      },
      "gasLimit": {
        "_hex": "0x15f90"
      },
      "to": "0x793AE8C1b1a160BFc07BFB0d04F85eab1A71F4f2",
      "value": {
        "_hex": "0x0"
      },
      "nonce": 0,
      "data": "0x3ba15036",
      "r": "0xc087706192627aea47d143b35b8ef53ed11ba170a79f5764778a12d0beab425e",
      "s": "0x3f9cd6afe05b1730eeb4127a550b916ccc6e5c0317bdbdab886713d122cf6621",
      "v": 27,
      "creates": null,
      "raw": "0xf86980850ba43b740083015f9094793ae8c1b1a160bfc07bfb0d04f85eab1a71f4f280843ba150361ba0c087706192627aea47d143b35b8ef53ed11ba170a79f5764778a12d0beab425ea03f9cd6afe05b1730eeb4127a550b916ccc6e5c0317bdbdab886713d122cf6621",
      "networkId": 0,
      "chainId": 0
    },
    {
      "hash": "0xc5264acffc3bce8a6b869150686aedb38425ea9c7d882db031778717e132bbe5",
      "blockHash": "0x12e8c673ac6904d2278717c070e8890587d13604b4ed988c463046124ac53365",
      "blockNumber": 68440,
      "transactionIndex": 12,
      "confirmations": null,
      "from": "0xAf3d715925d56662b225A85B47fCF21b6991ebBA",
      "gasPrice": {
        "_hex": "0xba43b7400"
      },
      "gasLimit": {
        "_hex": "0x15f90"
      },
      "to": "0x793AE8C1b1a160BFc07BFB0d04F85eab1A71F4f2",
      "value": {
        "_hex": "0x0"
      },
      "nonce": 0,
      "data": "0x3ba15036",
      "r": "0x2d0d4b3a750d0b103bf90cdac92acfc4fa6eac3c7df9423465948e1132357588",
      "s": "0x30bb641fa4f931af54b5dccd1b3c3232b9de63535d36d3cb9c94857e5ba05568",
      "v": 27,
      "creates": null,
      "raw": "0xf86980850ba43b740083015f9094793ae8c1b1a160bfc07bfb0d04f85eab1a71f4f280843ba150361ba02d0d4b3a750d0b103bf90cdac92acfc4fa6eac3c7df9423465948e1132357588a030bb641fa4f931af54b5dccd1b3c3232b9de63535d36d3cb9c94857e5ba05568",
      "networkId": 0,
      "chainId": 0
    },
    {
      "hash": "0x734cb8c4a439d44bcca41650a3e3e3bfc357b5b727bbb51f6b015c8f4fbca01f",
      "blockHash": "0x12e8c673ac6904d2278717c070e8890587d13604b4ed988c463046124ac53365",
      "blockNumber": 68440,
      "transactionIndex": 13,
      "confirmations": null,
      "from": "0x9dc77f7370089B2725B0Be73A627A3152AaD5407",
      "gasPrice": {
        "_hex": "0xba43b7400"
      },
      "gasLimit": {
        "_hex": "0x15f90"
      },
      "to": "0x793AE8C1b1a160BFc07BFB0d04F85eab1A71F4f2",
      "value": {
        "_hex": "0x0"
      },
      "nonce": 0,
      "data": "0x3ba15036",
      "r": "0xd8ba7ce528c7059e84dbb98663af7915901b1e442da542404ba6568a5f45f9b4",
      "s": "0x32acbadc6b774089fddae83b5bcb3c632ee27f486fd766601004a05a0a1e8117",
      "v": 27,
      "creates": null,
      "raw": "0xf86980850ba43b740083015f9094793ae8c1b1a160bfc07bfb0d04f85eab1a71f4f280843ba150361ba0d8ba7ce528c7059e84dbb98663af7915901b1e442da542404ba6568a5f45f9b4a032acbadc6b774089fddae83b5bcb3c632ee27f486fd766601004a05a0a1e8117",
      "networkId": 0,
      "chainId": 0
    },
    {
      "hash": "0xa6154905b82aeaa76060116c9fd3b36b57bd0d7a186e8434d62f7d6c3bb8e6d3",
      "blockHash": "0x12e8c673ac6904d2278717c070e8890587d13604b4ed988c463046124ac53365",
      "blockNumber": 68440,
      "transactionIndex": 14,
      "confirmations": null,
      "from": "0xB1841580DCCAB8CA8b5Fd5625Ec73E4F71b1529C",
      "gasPrice": {
        "_hex": "0xba43b7400"
      },
      "gasLimit": {
        "_hex": "0x15f90"
      },
      "to": "0x793AE8C1b1a160BFc07BFB0d04F85eab1A71F4f2",
      "value": {
        "_hex": "0x0"
      },
      "nonce": 0,
      "data": "0x3ba15036",
      "r": "0xf7677b8f1a1bd08098367c9faa82c8d298d52447d647223acd883722c8f46940",
      "s": "0x794fd014983b6c5879741a06398b37975dc1cdb12ddd2b054f53a470b2e700ab",
      "v": 27,
      "creates": null,
      "raw": "0xf86980850ba43b740083015f9094793ae8c1b1a160bfc07bfb0d04f85eab1a71f4f280843ba150361ba0f7677b8f1a1bd08098367c9faa82c8d298d52447d647223acd883722c8f46940a0794fd014983b6c5879741a06398b37975dc1cdb12ddd2b054f53a470b2e700ab",
      "networkId": 0,
      "chainId": 0
    },
    {
      "hash": "0xe593c95f49c01ebded98ea97182069ef8ef724b9bc309840f7e1c60cb156674c",
      "blockHash": "0x12e8c673ac6904d2278717c070e8890587d13604b4ed988c463046124ac53365",
      "blockNumber": 68440,
      "transactionIndex": 15,
      "confirmations": null,
      "from": "0x4936Ccb17c0e21159A3908BC0554E951064221b9",
      "gasPrice": {
        "_hex": "0xba43b7400"
      },
      "gasLimit": {
        "_hex": "0x15f90"
      },
      "to": "0x793AE8C1b1a160BFc07BFB0d04F85eab1A71F4f2",
      "value": {
        "_hex": "0x0"
      },
      "nonce": 0,
      "data": "0x3ba15036",
      "r": "0x4e6fa3b40e6db3af1abd1299b4387f94b9e8b0d6198876a7fb58704bd4e5e678",
      "s": "0x713936e9a81f5ff8123d5473b0d2defeca7e6145ab9861ff58a148f692b6d00a",
      "v": 28,
      "creates": null,
      "raw": "0xf86980850ba43b740083015f9094793ae8c1b1a160bfc07bfb0d04f85eab1a71f4f280843ba150361ca04e6fa3b40e6db3af1abd1299b4387f94b9e8b0d6198876a7fb58704bd4e5e678a0713936e9a81f5ff8123d5473b0d2defeca7e6145ab9861ff58a148f692b6d00a",
      "networkId": 0,
      "chainId": 0
    },
    {
      "hash": "0x73c4d3d290cb5c79ac0d16b306c69c3b976e9d20c0f11ad87df4bbc8f3328a8b",
      "blockHash": "0x12e8c673ac6904d2278717c070e8890587d13604b4ed988c463046124ac53365",
      "blockNumber": 68440,
      "transactionIndex": 16,
      "confirmations": null,
      "from": "0x6F8Da0d26c7d0502dA46cbB1BBFd2721F7674C43",
      "gasPrice": {
        "_hex": "0xba43b7400"
      },
      "gasLimit": {
        "_hex": "0x15f90"
      },
      "to": "0x793AE8C1b1a160BFc07BFB0d04F85eab1A71F4f2",
      "value": {
        "_hex": "0x0"
      },
      "nonce": 0,
      "data": "0x3ba15036",
      "r": "0xe7810bdce436da01d367a336872a2d0de44b7dd8b7375696d674861aff5e46e1",
      "s": "0x3070c16657ea1b6ce63440f345aa1b974c77a5b1cf9e59ea4615fcc6684e1016",
      "v": 28,
      "creates": null,
      "raw": "0xf86980850ba43b740083015f9094793ae8c1b1a160bfc07bfb0d04f85eab1a71f4f280843ba150361ca0e7810bdce436da01d367a336872a2d0de44b7dd8b7375696d674861aff5e46e1a03070c16657ea1b6ce63440f345aa1b974c77a5b1cf9e59ea4615fcc6684e1016",
      "networkId": 0,
      "chainId": 0
    },
    {
      "hash": "0xb4fc26f0e97babc9e89591d7a744e6f8c740d12cf3dcf74d176424071e15d086",
      "blockHash": "0x12e8c673ac6904d2278717c070e8890587d13604b4ed988c463046124ac53365",
      "blockNumber": 68440,
      "transactionIndex": 17,
      "confirmations": null,
      "from": "0x540f9458CB6e9aC722CA07d2E43d4c7C6BA4C4D4",
      "gasPrice": {
        "_hex": "0xba43b7400"
      },
      "gasLimit": {
        "_hex": "0x15f90"
      },
      "to": "0x793AE8C1b1a160BFc07BFB0d04F85eab1A71F4f2",
      "value": {
        "_hex": "0x0"
      },
      "nonce": 0,
      "data": "0x3ba15036",
      "r": "0x2a9c237e02291b57a801ef813d4c66eda25d5a2e7b6bd33257fdacc43d4112a5",
      "s": "0x0afb65119b5be1ae934843954ea665e98dcdbaabd04ff79b2f3dbb69ad7d4ba5",
      "v": 27,
      "creates": null,
      "raw": "0xf86980850ba43b740083015f9094793ae8c1b1a160bfc07bfb0d04f85eab1a71f4f280843ba150361ba02a9c237e02291b57a801ef813d4c66eda25d5a2e7b6bd33257fdacc43d4112a5a00afb65119b5be1ae934843954ea665e98dcdbaabd04ff79b2f3dbb69ad7d4ba5",
      "networkId": 0,
      "chainId": 0
    },
    {
      "hash": "0xa51457b373cfd5c704532b788778133d1f71317df8cc6a3749f921c1913b8ab9",
      "blockHash": "0x12e8c673ac6904d2278717c070e8890587d13604b4ed988c463046124ac53365",
      "blockNumber": 68440,
      "transactionIndex": 18,
      "confirmations": null,
      "from": "0xAa21d7F3D0b344045E33EDD2884Ef51Db6c491C7",
      "gasPrice": {
        "_hex": "0xba43b7400"
      },
      "gasLimit": {
        "_hex": "0x15f90"
      },
      "to": "0x793AE8C1b1a160BFc07BFB0d04F85eab1A71F4f2",
      "value": {
        "_hex": "0x0"
      },
      "nonce": 0,
      "data": "0x3ba15036",
      "r": "0xb5025ef31b871eb54ff1d0a352a8c61842081d379f7727bfd0556e0d6008a93c",
      "s": "0x29df7c2ddc7ceb1faf14078beb9eaf7a6eee9e0ddec1ab9f9af0976df35fc1c2",
      "v": 28,
      "creates": null,
      "raw": "0xf86980850ba43b740083015f9094793ae8c1b1a160bfc07bfb0d04f85eab1a71f4f280843ba150361ca0b5025ef31b871eb54ff1d0a352a8c61842081d379f7727bfd0556e0d6008a93ca029df7c2ddc7ceb1faf14078beb9eaf7a6eee9e0ddec1ab9f9af0976df35fc1c2",
      "networkId": 0,
      "chainId": 0
    },
    {
      "hash": "0x435e260130263a0838f58f515a85f4d5bf1821998c035c7e2be0e6d78c6d90af",
      "blockHash": "0x12e8c673ac6904d2278717c070e8890587d13604b4ed988c463046124ac53365",
      "blockNumber": 68440,
      "transactionIndex": 19,
      "confirmations": null,
      "from": "0x3caFea62D3765692813Ea7DCfB18108571531C2D",
      "gasPrice": {
        "_hex": "0xba43b7400"
      },
      "gasLimit": {
        "_hex": "0x15f90"
      },
      "to": "0x793AE8C1b1a160BFc07BFB0d04F85eab1A71F4f2",
      "value": {
        "_hex": "0x0"
      },
      "nonce": 0,
      "data": "0x3ba15036",
      "r": "0xf52a3cc9d3bb0e335107b4e23d4bf9baea8497055b2fa085c7f50a77b197756c",
      "s": "0x4b710e46ca4ef5be244cb814b9478f993f7ab01ec00bedc3a76d9bd7e88c8f9e",
      "v": 27,
      "creates": null,
      "raw": "0xf86980850ba43b740083015f9094793ae8c1b1a160bfc07bfb0d04f85eab1a71f4f280843ba150361ba0f52a3cc9d3bb0e335107b4e23d4bf9baea8497055b2fa085c7f50a77b197756ca04b710e46ca4ef5be244cb814b9478f993f7ab01ec00bedc3a76d9bd7e88c8f9e",
      "networkId": 0,
      "chainId": 0
    },
    {
      "hash": "0xe33babbf69a99536d280421c46c2c9b08dfea56ddcd71e0ef201a04c8fd53a0d",
      "blockHash": "0x12e8c673ac6904d2278717c070e8890587d13604b4ed988c463046124ac53365",
      "blockNumber": 68440,
      "transactionIndex": 20,
      "confirmations": null,
      "from": "0x96dF386cDC2aC081c2964090f9e32eF0d32eFfeF",
      "gasPrice": {
        "_hex": "0xba43b7400"
      },
      "gasLimit": {
        "_hex": "0x15f90"
      },
      "to": "0x793AE8C1b1a160BFc07BFB0d04F85eab1A71F4f2",
      "value": {
        "_hex": "0x0"
      },
      "nonce": 0,
      "data": "0x3ba15036",
      "r": "0xfd9c464739c4ec123a73f3db2505cdc08dd7657a45a339aea44eb093d15547cc",
      "s": "0x66dfd99a315ad641515c7c0a78c18c203883346f4c47fa2f82abff1655c99042",
      "v": 28,
      "creates": null,
      "raw": "0xf86980850ba43b740083015f9094793ae8c1b1a160bfc07bfb0d04f85eab1a71f4f280843ba150361ca0fd9c464739c4ec123a73f3db2505cdc08dd7657a45a339aea44eb093d15547cca066dfd99a315ad641515c7c0a78c18c203883346f4c47fa2f82abff1655c99042",
      "networkId": 0,
      "chainId": 0
    },
    {
      "hash": "0x8caa1d6b610fb6e2a663bb9e9856ed36f1a8737bafe63b4749b78f88868da52c",
      "blockHash": "0x12e8c673ac6904d2278717c070e8890587d13604b4ed988c463046124ac53365",
      "blockNumber": 68440,
      "transactionIndex": 21,
      "confirmations": null,
      "from": "0xb6363dE37085c567c38eD8afc7c82ec956f308e5",
      "gasPrice": {
        "_hex": "0xba43b7400"
      },
      "gasLimit": {
        "_hex": "0x15f90"
      },
      "to": "0x793AE8C1b1a160BFc07BFB0d04F85eab1A71F4f2",
      "value": {
        "_hex": "0x0"
      },
      "nonce": 0,
      "data": "0x3ba15036",
      "r": "0x25c9ef9436648ce9fe259a06e52215e6e6bd143f623582f2268b763080f42246",
      "s": "0x33de989d6ee0b75f034fd5c37520907ebeb5024055193ef3521571fd44353e5b",
      "v": 27,
      "creates": null,
      "raw": "0xf86980850ba43b740083015f9094793ae8c1b1a160bfc07bfb0d04f85eab1a71f4f280843ba150361ba025c9ef9436648ce9fe259a06e52215e6e6bd143f623582f2268b763080f42246a033de989d6ee0b75f034fd5c37520907ebeb5024055193ef3521571fd44353e5b",
      "networkId": 0,
      "chainId": 0
    },
    {
      "hash": "0xc562d290d560965c15f21e72d65b2a56745ef068754e261a542a4c01e3384a0c",
      "blockHash": "0x12e8c673ac6904d2278717c070e8890587d13604b4ed988c463046124ac53365",
      "blockNumber": 68440,
      "transactionIndex": 22,
      "confirmations": null,
      "from": "0xBc7BBfD6BaA7FF366C8bA5Fc3E119dF208AaaEda",
      "gasPrice": {
        "_hex": "0xba43b7400"
      },
      "gasLimit": {
        "_hex": "0x15f90"
      },
      "to": "0x793AE8C1b1a160BFc07BFB0d04F85eab1A71F4f2",
      "value": {
        "_hex": "0x0"
      },
      "nonce": 0,
      "data": "0x3ba15036",
      "r": "0x1fd362e932d47f45960f002e9092ce4fc078b24e34ebba79a091d087c8e6c1dc",
      "s": "0x2241515097cb3aabbd8f5622b39b79bb37dcc404b729a4987742b05047841bff",
      "v": 28,
      "creates": null,
      "raw": "0xf86980850ba43b740083015f9094793ae8c1b1a160bfc07bfb0d04f85eab1a71f4f280843ba150361ca01fd362e932d47f45960f002e9092ce4fc078b24e34ebba79a091d087c8e6c1dca02241515097cb3aabbd8f5622b39b79bb37dcc404b729a4987742b05047841bff",
      "networkId": 0,
      "chainId": 0
    },
    {
      "hash": "0x916106f32da434bfca520671d7178b5bc3b7c806dc70fc2aa1a58dfaf6124a21",
      "blockHash": "0x12e8c673ac6904d2278717c070e8890587d13604b4ed988c463046124ac53365",
      "blockNumber": 68440,
      "transactionIndex": 23,
      "confirmations": null,
      "from": "0x1653900033B1077634E86b1Cc90C4B8Bf941886b",
      "gasPrice": {
        "_hex": "0xba43b7400"
      },
      "gasLimit": {
        "_hex": "0x15f90"
      },
      "to": "0x793AE8C1b1a160BFc07BFB0d04F85eab1A71F4f2",
      "value": {
        "_hex": "0x0"
      },
      "nonce": 0,
      "data": "0x3ba15036",
      "r": "0x5bb3173cd3028d541ea843762f1792dd9062f639ae508b8f6bb0fb2f43dd4bbd",
      "s": "0x1b98fe4d03f29b743060aa178fc37801da753db58c66a21ac2c5b9d9731a1979",
      "v": 28,
      "creates": null,
      "raw": "0xf86980850ba43b740083015f9094793ae8c1b1a160bfc07bfb0d04f85eab1a71f4f280843ba150361ca05bb3173cd3028d541ea843762f1792dd9062f639ae508b8f6bb0fb2f43dd4bbda01b98fe4d03f29b743060aa178fc37801da753db58c66a21ac2c5b9d9731a1979",
      "networkId": 0,
      "chainId": 0
    },
    {
      "hash": "0xeaa30e7993cf1b9cc4cf814916c53d97c3b32652383ddbbb4fd07e9bb142a14a",
      "blockHash": "0x12e8c673ac6904d2278717c070e8890587d13604b4ed988c463046124ac53365",
      "blockNumber": 68440,
      "transactionIndex": 24,
      "confirmations": null,
      "from": "0x680267cA5790c7e18062966A58784F8401f6DF72",
      "gasPrice": {
        "_hex": "0xba43b7400"
      },
      "gasLimit": {
        "_hex": "0x15f90"
      },
      "to": "0x793AE8C1b1a160BFc07BFB0d04F85eab1A71F4f2",
      "value": {
        "_hex": "0x0"
      },
      "nonce": 0,
      "data": "0x3ba15036",
      "r": "0xebcff12399c1a10904580acf887f4bb02738f778e1bf0252917018ffcc05fcef",
      "s": "0x3a640052d34e59dc8b548140840ee91718e5c63610ba6d0a9320dbc7cdc7f1d2",
      "v": 27,
      "creates": null,
      "raw": "0xf86980850ba43b740083015f9094793ae8c1b1a160bfc07bfb0d04f85eab1a71f4f280843ba150361ba0ebcff12399c1a10904580acf887f4bb02738f778e1bf0252917018ffcc05fcefa03a640052d34e59dc8b548140840ee91718e5c63610ba6d0a9320dbc7cdc7f1d2",
      "networkId": 0,
      "chainId": 0
    },
    {
      "hash": "0x6840dca05d2928529de9ae5391065dec50b674c265de7818142baf33447c275e",
      "blockHash": "0x12e8c673ac6904d2278717c070e8890587d13604b4ed988c463046124ac53365",
      "blockNumber": 68440,
      "transactionIndex": 25,
      "confirmations": null,
      "from": "0x8eECafE6f70028A34D7584f4A92EF6b2f27287Ec",
      "gasPrice": {
        "_hex": "0xba43b7400"
      },
      "gasLimit": {
        "_hex": "0x15f90"
      },
      "to": "0x793AE8C1b1a160BFc07BFB0d04F85eab1A71F4f2",
      "value": {
        "_hex": "0x0"
      },
      "nonce": 0,
      "data": "0x3ba15036",
      "r": "0x3240d89750f70773356c84377e9963eb5a7c8fc183ecc903c8121ee3fb838ffa",
      "s": "0x114557cccd217cbdb9aa8347cc81c3e8d86306bd6b26654ee7a4a3072648cef5",
      "v": 28,
      "creates": null,
      "raw": "0xf86980850ba43b740083015f9094793ae8c1b1a160bfc07bfb0d04f85eab1a71f4f280843ba150361ca03240d89750f70773356c84377e9963eb5a7c8fc183ecc903c8121ee3fb838ffaa0114557cccd217cbdb9aa8347cc81c3e8d86306bd6b26654ee7a4a3072648cef5",
      "networkId": 0,
      "chainId": 0
    }
  ]
}