{
  "hash": "0x8d383443ae4e32f124bf3de8562e78a5b85ee15366b25455ded473a7a443794d",
  "parentHash": "0x2ad910d8824173ac2bf22ec0e1f98a3b4665dce9d15c7623868ae87e8f4bbf80",
  "number": 92259,
  "timestamp": 1439669363,
  "nonce": "0xfc57669192c233fa",
  "difficulty": 3479061592396,
  "gasLimit": {
    "_hex": "0x2fefd8"
  },
  "gasUsed": {
    "_hex": "0x546c"
  },
  "miner": "0xC603Ab5ef41fC61AA8b76bEddb09e3Cfcbb174BD",
  "extraData": "0x476574682f76312e302e312f77696e646f77732f676f312e342e32",
  "transactions": [
    {
      "hash": "0xd19373ba66b05cc30180009eadec79ce79aedd29f97ba052d7ae5aab122791ed",
      "blockHash": "0x8d383443ae4e32f124bf3de8562e78a5b85ee15366b25455ded473a7a443794d",
      "blockNumber": 92259,
      "transactionIndex": 0,
      "confirmations": null,
      "from": "0x15D99468507AA0413Fb60dCA2aDC7f569cB36B54",
      "gasPrice": {
        "_hex": "0x110c8f7d8de"
      },
      "gasLimit": {
        "_hex": "0xc350"
      },
      "to": "0x2910543Af39abA0Cd09dBb2D50200b3E800A63D2",
      "value": {
        "_hex": "0x6c5db2a4d815dc0000"
      },
      "nonce": 0,
      "data": "0x454e48334448394347",
      "r": "0xd4dfb547c7f4cf240023d11caa8a39ab4ea19199988b9801782d317549ef2541",
      "s": "0x4d667f9c5258e6388f4edf314c15063f92810f9598b76239d566aaff598bbf0f",
      "v": 27,
      "creates": null,
      "raw": "0xf87780860110c8f7d8de82c350942910543af39aba0cd09dbb2d50200b3e800a63d2896c5db2a4d815dc000089454e483344483943471ba0d4dfb547c7f4cf240023d11caa8a39ab4ea19199988b9801782d317549ef2541a04d667f9c5258e6388f4edf314c15063f92810f9598b76239d566aaff598bbf0f",
      "networkId": 0,
      "chainId": 0
    }
  ]
}