{
  "hash": "0x7614527359039c1c1fbd4eb15b57d523ac87f4524998d138d2afd2cdef36e746",
  "parentHash": "0x0d626af5966e7642d5d875d8ee5eadb24915bff0abbfe02fc3283772b1e58fd3",
  "number": 46819,
  "timestamp": 1438929655,
  "nonce": "0xc0084331a1d726bf",
  "difficulty": 1459590569090,
  "gasLimit": {
    "_hex": "0x7ba9"
  },
  "gasUsed": {
    "_hex": "0x5208"
  },
  "miner": "0xF2d2AfF1320476cb8C6b607199D23175cc595693",
  "extraData": "0x476574682f76312e302e312f77696e646f77732f676f312e342e32",
  "transactions": [
    {
      "hash": "0xccfa2826a4fcab4011b88cf46c330f22220b211bdbbafc26b3e1e2cf6a5aff40",
      "blockHash": "0x7614527359039c1c1fbd4eb15b57d523ac87f4524998d138d2afd2cdef36e746",
      "blockNumber": 46819,
      "transactionIndex": 0,
      "confirmations": null,
      "from": "0xe6A7a1d47ff21B6321162AEA7C6CB457D5476Bca",
      "gasPrice": {
        "_hex": "0xcc0e7d49a"
      },
      "gasLimit": {
        "_hex": "0x5208"
      },
      "to": "0x408e45b501976ea5715d90b1BA57B2b969645f05",
      "value": {
        "_hex": "0xf15cde7561c3808"
      },
      "nonce": 4,
      "data": "0x",
      "r": "0x731d7132e1ce4b31af5d122b639048276969070546ff808024c99a8527face1e",
      "s": "0x31c02699d04b9f9020c12140167670f3107e2529750082268e882d11600350cd",
      "v": 27,
      "creates": null,
      "raw": "0xf86c04850cc0e7d49a82520894408e45b501976ea5715d90b1ba57b2b969645f05880f15cde7561c3808801ba0731d7132e1ce4b31af5d122b639048276969070546ff808024c99a8527face1ea031c02699d04b9f9020c12140167670f3107e2529750082268e882d11600350cd",
      "networkId": 0,
      "chainId": 0
    }
  ]
}