{
  "hash": "0x06b981c8b1ab21e4e9228aa9fd4cfe0bffb643a9ed25819b28649d1a11ffbad4",
  "parentHash": "0x0898f4202b4ca3d0cb8295db714263f491ae8a7c977f946e9fd7fd12a4df62b1",
  "number": 85953,
  "timestamp": 1439571306,
  "nonce": "0x267c050fdf747510",
  "difficulty": 2786699905892,
  "gasLimit": {
    "_hex": "0x2fefd8"
  },
  "gasUsed": {
    "_hex": "0x5208"
  },
  "miner": "0xe6A7a1d47ff21B6321162AEA7C6CB457D5476Bca",
  "extraData": "0x476574682f76312e302e312d38326566323666362f6c696e75782f676f312e34",
  "transactions": [
    {
      "hash": "0xebed69ad30523261c2d06d7bb98ca1e93afca769f3329060f268d90d9af060c4",
      "blockHash": "0x06b981c8b1ab21e4e9228aa9fd4cfe0bffb643a9ed25819b28649d1a11ffbad4",
      "blockNumber": 85953,
      "transactionIndex": 0,
      "confirmations": null,
      "from": "0x095E0174829f34C3781Be1a5e38d1541EA439b7f",
      "gasPrice": {
        "_hex": "0xd18764a4b"
      },
      "gasLimit": {
        "_hex": "0x15f90"
      },
      "to": "0xea2F139F026F72AB7CDec19069F185C0714b4D6E",
      "value": {
        "_hex": "0x1b1ae4d6e2ef500000"
      },
      "nonce": 1,
      "data": "0x",
      "r": "0x88f1784284eba201907ca94c3a25ddd45fb540a9aa5c1c67b1faefcd222194e8",
      "s": "0x083ef56a3d05f08bc2473999917cc803e0ab44e58337418695aba6e64ce88bab",
      "v": 28,
      "creates": null,
      "raw": "0xf86e01850d18764a4b83015f9094ea2f139f026f72ab7cdec19069f185c0714b4d6e891b1ae4d6e2ef500000801ca088f1784284eba201907ca94c3a25ddd45fb540a9aa5c1c67b1faefcd222194e8a0083ef56a3d05f08bc2473999917cc803e0ab44e58337418695aba6e64ce88bab",
      "networkId": 0,
      "chainId": 0
    }
  ]
}