{
  "hash": "0x29e74265291b94873b0b2b73437244ba1ca507d44cddf836bef84aa8b4f85633",
  "parentHash": "0xfa35d0f85950e4c2a2747fca0004e2cd8da71bfbb45aaeea570426071343a763",
  "number": 83383,
  "timestamp": 1439534507,
  "nonce": "0x07efad876f17ec3a",
  "difficulty": 2426603512790,
  "gasLimit": {
    "_hex": "0x2fefd8"
  },
  "gasUsed": {
    "_hex": "0x5208"
  },
  "miner": "0xf927a40C8B7F6E07c5af7FA2155B4864a4112B13",
  "extraData": "0x",
  "transactions": [
    {
      "hash": "0xb16afa61dcfd84b92a789d035569fd2fb6d4549aa790bf7fce7c29efd4b2603f",
      "blockHash": "0x29e74265291b94873b0b2b73437244ba1ca507d44cddf836bef84aa8b4f85633",
      "blockNumber": 83383,
      "transactionIndex": 0,
      "confirmations": null,
      "from": "0x120A270bbC009644e35F0bB6ab13f95b8199c4ad",
      "gasPrice": {
        "_hex": "0xdfea69dd7"
      },
      "gasLimit": {
        "_hex": "0x3d090"
      },
      "to": "0x07DD04f7355E91a3556482a927Dfa3122a2AD580",
      "value": {
        "_hex": "0x18334fc4d35103000"
      },
      "nonce": 412,
      "data": "0x",
      "r": "0x7d08ffdc4527cf3d6d27b07d7235727da23ccb8b817014504d5828d83ac5b818",
      "s": "0x0e26986b9a410a4529b38a22d60bbbe667073bdcc54404e43739b58e18ad57ac",
      "v": 28,
      "creates": null,
      "raw": "0xf87082019c850dfea69dd78303d0909407dd04f7355e91a3556482a927dfa3122a2ad58089018334fc4d35103000801ca07d08ffdc4527cf3d6d27b07d7235727da23ccb8b817014504d5828d83ac5b818a00e26986b9a410a4529b38a22d60bbbe667073bdcc54404e43739b58e18ad57ac",
      "networkId": 0,
      "chainId": 0
    }
  ]
}