{
  "hash": "0xf54bd1d27f51815b37b00849d28b839a9c5df9c483aabbd783aef94afc82f7cf",
  "parentHash": "0x4a93361e03581191d48504d7f51d31601466126788b4f8f731664e4f5c6ecad6",
  "number": 107147,
  "timestamp": 1439916999,
  "nonce": "0x946f51dae56477fb",
  "difficulty": 4459282290880,
  "gasLimit": {
    "_hex": "0x2fefd8"
  },
  "gasUsed": {
    "_hex": "0xa674"
  },
  "miner": "0x924b9ac94Fb8352e2Bb405Da728c58d4D4985895",
  "extraData": "0x",
  "transactions": [
    {
      "hash": "0xc5ff1ba5c298ff806e925787056c61ac6d87ba9dda861878be714f8cb1d22a71",
      "blockHash": "0xf54bd1d27f51815b37b00849d28b839a9c5df9c483aabbd783aef94afc82f7cf",
      "blockNumber": 107147,
      "transactionIndex": 0,
      "confirmations": null,
      "from": "0x5F965F10e1BD020753Ca496fee6b3E4D809aff67",
      "gasPrice": {
        "_hex": "0xd10e3f7ef"
      },
      "gasLimit": {
        "_hex": "0x5208"
      },
      "to": "0xFBb1b73C4f0BDa4f67dcA266ce6Ef42f520fBB98",
      "value": {
        "_hex": "0x15ac13f086c7c8e88"
      },
      "nonce": 1,
      "data": "0x",
      "r": "0xffed8513dd8fd248b484a1f8540798b14a57a49687c839617de86a26f041246e",
      "s": "0x5bea74853cf4f384147ea1b802ba357636e9f90da49ba68d3faa61035d34132a",
      "v": 28,
      "creates": null,
      "raw": "0xf86d01850d10e3f7ef82520894fbb1b73c4f0bda4f67dca266ce6ef42f520fbb9889015ac13f086c7c8e88801ca0ffed8513dd8fd248b484a1f8540798b14a57a49687c839617de86a26f041246ea05bea74853cf4f384147ea1b802ba357636e9f90da49ba68d3faa61035d34132a",
      "networkId": 0,
      "chainId": 0
    },
    {
      "hash": "0xf1e55e0263a3876853229239cd4364879d05021ba206db527668ce2ee430f2f8",
      "blockHash": "0xf54bd1d27f51815b37b00849d28b839a9c5df9c483aabbd783aef94afc82f7cf",
      "blockNumber": 107147,
      "transactionIndex": 1,
      "confirmations": null,
      "from": "0x98BF4Af3810B842387DB70c14d46099626003d10",
      "gasPrice": {
        "_hex": "0xcd6925c92"
      },
      "gasLimit": {
        "_hex": "0x55f0"
      },
      "to": "0x2910543Af39abA0Cd09dBb2D50200b3E800A63D2",
      "value": {
        "_hex": "0xde0b6b3a7640000"
      },
      "nonce": 0,
      "data": "0x454e4b374535575538",
      "r": "0xeab02991bc27b64fb4862457103f93cbac56bc6fdb0221399dfd5ed26b757754",
      "s": "0x356e86ad1595ee4dd95987fd94014ffb5c94892c94aec7bf25cf5441f530d3ac",
      "v": 27,
      "creates": null,
      "raw": "0xf87580850cd6925c928255f0942910543af39aba0cd09dbb2d50200b3e800a63d2880de0b6b3a764000089454e4b3745355755381ba0eab02991bc27b64fb4862457103f93cbac56bc6fdb0221399dfd5ed26b757754a0356e86ad1595ee4dd95987fd94014ffb5c94892c94aec7bf25cf5441f530d3ac",
      "networkId": 0,
      "chainId": 0
    }
  ]
}