{
  "hash": "0x6d143fd653ca02bb08f14463411706ad06ecb1ae691535cb59a4732cc3020a57",
  "parentHash": "0xa25c8064ba6144d7bd83ddfaacfef51402a521091888f95af3626e4207626e02",
  "number": 52673,
  "timestamp": 1439025408,
  "nonce": "0xba7c4034bed6d00f",
  "difficulty": 1570944245528,
  "gasLimit": {
    "_hex": "0x177077"
  },
  "gasUsed": {
    "_hex": "0xf4240"
  },
  "miner": "0x9746c7e1ef2bd21FF3997fa467593a89cb852BD0",
  "extraData": "0x476574682f76312e302e312f77696e646f77732f676f312e342e32",
  "transactions": [
    {
      "hash": "0x4b547d39d1b977f9b03ce9b4aaf9242bc30dabad7bb0eb0e4ab5d39cf5557d42",
      "blockHash": "0x6d143fd653ca02bb08f14463411706ad06ecb1ae691535cb59a4732cc3020a57",
      "blockNumber": 52673,
      "transactionIndex": 0,
      "confirmations": null,
      "from": "0x54dAeb3E8a6BBC797E4aD2b0339f134b186e4637",
      "gasPrice": {
        "_hex": "0xdf4ba21f9"
      },
      "gasLimit": {
        "_hex": "0x7a120"
      },
      "to": "0xBAA54d6E90c3F4d7Ebec11bD180134C7eD8eBb52",
      "value": {
        "_hex": "0x16345785d8a0000"
      },
      "nonce": 901,
      "data": "0x",
      "r": "0x12301bcdf97ac1dd01d932349180b542bc6b45976d40a2c39b37a6f93f23f600",
      "s": "0x1076d0954dc49cedd2f18f79782ae9bf89e49d18e1af2d0952e467ba6c1fd4c8",
      "v": 28,
      "creates": null,
      "raw": "0xf86f820385850df4ba21f98307a12094baa54d6e90c3f4d7ebec11bd180134c7ed8ebb5288016345785d8a0000801ca012301bcdf97ac1dd01d932349180b542bc6b45976d40a2c39b37a6f93f23f600a01076d0954dc49cedd2f18f79782ae9bf89e49d18e1af2d0952e467ba6c1fd4c8",
      "networkId": 0,
      "chainId": 0
    },
    {
      "hash": "0x9a5041d0a5ea403957c83fbca526de6251f82ef56b68d3351dd34ffccf7c2840",
      "blockHash": "0x6d143fd653ca02bb08f14463411706ad06ecb1ae691535cb59a4732cc3020a57",
      "blockNumber": 52673,
      "transactionIndex": 1,
      "confirmations": null,
      "from": "0x54dAeb3E8a6BBC797E4aD2b0339f134b186e4637",
      "gasPrice": {
        "_hex": "0xd8bd64e50"
      },
      "gasLimit": {
        "_hex": "0x7a120"
      },
      "to": "0xBAA54d6E90c3F4d7Ebec11bD180134C7eD8eBb52",
      "value": {
        "_hex": "0x16345785d8a0000"
      },
      "nonce": 902,
      "data": "0x",
      "r": "0x371bd5a321bf6cf10b02096bb2e700fb0afb287c800d5ad39f25c622e7c173e2",
      "s": "0x37ea8d795a33917f174c3a21e161dbd6b5b0cbfd2f2b7df56c4c4f0899f5f199",
      "v": 28,
      "creates": null,
      "raw": "0xf86f820386850d8bd64e508307a12094baa54d6e90c3f4d7ebec11bd180134c7ed8ebb5288016345785d8a0000801ca0371bd5a321bf6cf10b02096bb2e700fb0afb287c800d5ad39f25c622e7c173e2a037ea8d795a33917f174c3a21e161dbd6b5b0cbfd2f2b7df56c4c4f0899f5f199",
      "networkId": 0,
      "chainId": 0
    }
  ]
}