{
  "hash": "0x221888a753ddacfb1ac87be49ea17bef413940ec63f9feeb24ba246476c7781d",
  "parentHash": "0x71aa1b60dde6fa625845640c0374daca00ac2c0b713ca26829c0b4c535b3cfed",
  "number": 79506,
  "timestamp": 1439470853,
  "nonce": "0x59a30e92ced23cfc",
  "difficulty": 2335860862544,
  "gasLimit": {
    "_hex": "0x2fe3de"
  },
  "gasUsed": {
    "_hex": "0x54b0"
  },
  "miner": "0x62A18DEB3d6d5D5141e828D563bFB9284eE17B71",
  "extraData": "0x476574682f76312e302e302f77696e646f77732f676f312e342e32",
  "transactions": [
    {
      "hash": "0x220ffc1cac59db1f5004eb9e59b5b04a3ecea65ae8f9acc386df9e25b364dbbf",
      "blockHash": "0x221888a753ddacfb1ac87be49ea17bef413940ec63f9feeb24ba246476c7781d",
      "blockNumber": 79506,
      "transactionIndex": 0,
      "confirmations": null,
      "from": "0x5Ef8C0F62039a8E2526bA6Ac21784B70dc758Eca",
      "gasPrice": {
        "_hex": "0x10dc90d85e7"
      },
      "gasLimit": {
        "_hex": "0x55f0"
      },
      "to": "0x40B9b889A21Ff1534d018D71Dc406122EBcf3F5A",
      "value": {
        "_hex": "0x1ee656cc02b4a80000"
      },
      "nonce": 2,
      "data": "0x415a5057503833383232",
      "r": "0xc38b76bd2f1602a1ee5c26e36ecf2e3a4770be1677b815cff018a109fc297073",
      "s": "0x79e995a945be17fdfa8d4f63628148636246a0d0292a0ab8ca2b91d8f94911c1",
      "v": 28,
      "creates": null,
      "raw": "0xf8780286010dc90d85e78255f09440b9b889a21ff1534d018d71dc406122ebcf3f5a891ee656cc02b4a800008a415a50575038333832321ca0c38b76bd2f1602a1ee5c26e36ecf2e3a4770be1677b815cff018a109fc297073a079e995a945be17fdfa8d4f63628148636246a0d0292a0ab8ca2b91d8f94911c1",
      "networkId": 0,
      "chainId": 0
    }
  ]
}