{
  "hash": "0x2da332e984d21a357c95a98449882d3ec11a4d92662761484c5d0ab2cf2042bb",
  "parentHash": "0x14689aef863771a7331be59cf472ad9e17630e11761b2aac70b3e0ff45001bc1",
  "number": 107549,
  "timestamp": 1439924407,
  "nonce": "0xeba65f58a3f2dd58",
  "difficulty": 4407118870856,
  "gasLimit": {
    "_hex": "0x2fefd8"
  },
  "gasUsed": {
    "_hex": "0x5208"
  },
  "miner": "0xe6A7a1d47ff21B6321162AEA7C6CB457D5476Bca",
  "extraData": "0x476574682f76312e302e312d38326566323666362f6c696e75782f676f312e34",
  "transactions": [
    {
      "hash": "0x2262b15d25671f225018498001985762c4378e05f3de3b0fcec5c6d06d81546e",
      "blockHash": "0x2da332e984d21a357c95a98449882d3ec11a4d92662761484c5d0ab2cf2042bb",
      "blockNumber": 107549,
      "transactionIndex": 0,
      "confirmations": null,
      "from": "0x32Be343B94f860124dC4fEe278FDCBD38C102D88",
      "gasPrice": {
        "_hex": "0xd291905bb"
      },
      "gasLimit": {
        "_hex": "0x5208"
      },
      "to": "0x95aC27Ac0ab7B97CA9A05f935A3478b70002D213",
      "value": {
        "_hex": "0x2386f26fc10000"
      },
      "nonce": 1224,
      "data": "0x",
      "r": "0x296e2ffc6d919efb53fdeb320c5797ed3ffda183090df698f6527befe9460362",
      "s": "0x7939bda5fdf27dadb689879dabd019c8016fbbde0243521bdacf3f9cb998cabe",
      "v": 28,
      "creates": null,
      "raw": "0xf86d8204c8850d291905bb8252089495ac27ac0ab7b97ca9a05f935a3478b70002d213872386f26fc10000801ca0296e2ffc6d919efb53fdeb320c5797ed3ffda183090df698f6527befe9460362a07939bda5fdf27dadb689879dabd019c8016fbbde0243521bdacf3f9cb998cabe",
      "networkId": 0,
      "chainId": 0
    }
  ]
}