{
  "hash": "0x73adf72295d777c098d2298fb0a736a4d99e17961a39a808d72c2a035b2eed17",
  "parentHash": "0x9a434a28afa401756ef3e929fa42fa433da070af558755abdcc795ddb4a7bdef",
  "number": 60366,
  "timestamp": 1439154203,
  "nonce": "0x01508796104c7187",
  "difficulty": 1748345577428,
  "gasLimit": {
    "_hex": "0x2fefd8"
  },
  "gasUsed": {
    "_hex": "0x546c"
  },
  "miner": "0xf927a40C8B7F6E07c5af7FA2155B4864a4112B13",
  "extraData": "0x476574682f76312e302e312f6c696e75782f676f312e342e32",
  "transactions": [
    {
      "hash": "0x63b05c226391a5e890aba96788a580fa68534442012b423b9cc9b2e5f6afb68d",
      "blockHash": "0x73adf72295d777c098d2298fb0a736a4d99e17961a39a808d72c2a035b2eed17",
      "blockNumber": 60366,
      "transactionIndex": 0,
      "confirmations": null,
      "from": "0x2496580535aEEF037C3232D8AfeB01545735c3Dc",
      "gasPrice": {
        "_hex": "0xd7d40ace3"
      },
      "gasLimit": {
        "_hex": "0x15f90"
      },
      "to": "0x2910543Af39abA0Cd09dBb2D50200b3E800A63D2",
      "value": {
        "_hex": "0xde0b6b3a7640000"
      },
      "nonce": 2,
      "data": "0x454e584136594a4230",
      "r": "0xf11a4baa159d16861f104a5d3b95323543e61859da549593222c6c1f56a3e7c4",
      "s": "0x447baa74330589c4dffe247b65fa5b80776166d1f758bf7e9875ff1173e78a1f",
      "v": 28,
      "creates": null,
      "raw": "0xf87602850d7d40ace383015f90942910543af39aba0cd09dbb2d50200b3e800a63d2880de0b6b3a764000089454e584136594a42301ca0f11a4baa159d16861f104a5d3b95323543e61859da549593222c6c1f56a3e7c4a0447baa74330589c4dffe247b65fa5b80776166d1f758bf7e9875ff1173e78a1f",
      "networkId": 0,
      "chainId": 0
    }
  ]
}