{
  "hash": "0xf18589de28ed75962577b94cbddd3b3105c3ad4bc795db9342bff53ff6300e36",
  "parentHash": "0x8258abbacaffe154e78123ab7a49b6cf1ee22ddd173675c6d55c441efa6e3c95",
  "number": 113312,
  "timestamp": 1440021286,
  "nonce": "0x7f3ab347829bbc37",
  "difficulty": 4493148533025,
  "gasLimit": {
    "_hex": "0x2fefd8"
  },
  "gasUsed": {
    "_hex": "0xa410"
  },
  "miner": "0xC603Ab5ef41fC61AA8b76bEddb09e3Cfcbb174BD",
  "extraData": "0x476574682f76312e302e312f77696e646f77732f676f312e342e32",
  "transactions": [
    {
      "hash": "0x862a6bd25f0f08ce11235bbc1a8a036bf5cf7fcb5b2e4a718803c344cd60f10c",
      "blockHash": "0xf18589de28ed75962577b94cbddd3b3105c3ad4bc795db9342bff53ff6300e36",
      "blockNumber": 113312,
      "transactionIndex": 0,
      "confirmations": null,
      "from": "0x1c11Aa45C792e202e9ffDc2F12f99D0d209BEf70",
      "gasPrice": {
        "_hex": "0xd829211eb"
      },
      "gasLimit": {
        "_hex": "0x15f90"
      },
      "to": "0x54e7148c85bC40139FD338553f258E5CBe1e9a9f",
      "value": {
        "_hex": "0x5"
      },
      "nonce": 22,
      "data": "0x",
      "r": "0xe5a5bcb18c429bb9ef72f0629e079f1d2582162386b59009cfa0b2b046fd6f90",
      "s": "0x208119bc1bc56c3c72c5d11184af0c80f78ed7085c1d123fb688d16aeddfb2ec",
      "v": 28,
      "creates": null,
      "raw": "0xf86516850d829211eb83015f909454e7148c85bc40139fd338553f258e5cbe1e9a9f05801ca0e5a5bcb18c429bb9ef72f0629e079f1d2582162386b59009cfa0b2b046fd6f90a0208119bc1bc56c3c72c5d11184af0c80f78ed7085c1d123fb688d16aeddfb2ec",
      "networkId": 0,
      "chainId": 0
    },
    {
      "hash": "0xf6286fbe671c4bbbdd537d515baa21c29c02c0323b870a08e60a60318cd8740a",
      "blockHash": "0xf18589de28ed75962577b94cbddd3b3105c3ad4bc795db9342bff53ff6300e36",
      "blockNumber": 113312,
      "transactionIndex": 1,
      "confirmations": null,
      "from": "0x1c11Aa45C792e202e9ffDc2F12f99D0d209BEf70",
      "gasPrice": {
        "_hex": "0xd829211eb"
      },
      "gasLimit": {
        "_hex": "0x15f90"
      },
      "to": "0x54e7148c85bC40139FD338553f258E5CBe1e9a9f",
      "value": {
        "_hex": "0x5"
      },
      "nonce": 23,
      "data": "0x",
      "r": "0x1d4cc3184e65db55415e59d06bc510427dc6ea360c07a692d430d6b7e05fb343",
      "s": "0x16859eac72432da81d08af1ab5e0ae6a512d7da895c4dda02b3a159cc5974c1f",
      "v": 28,
      "creates": null,
      "raw": "0xf86517850d829211eb83015f909454e7148c85bc40139fd338553f258e5cbe1e9a9f05801ca01d4cc3184e65db55415e59d06bc510427dc6ea360c07a692d430d6b7e05fb343a016859eac72432da81d08af1ab5e0ae6a512d7da895c4dda02b3a159cc5974c1f",
      "networkId": 0,
      "chainId": 0
    }
  ]
}