{
  "hash": "0xa120b5c88fd1cc457ea913845217cfe7a6ecdcfc6a963a41a3abdac91c1871c5",
  "parentHash": "0x23c881a785f62da640893384927545ace7109ff476c2060828aea1a277ae7e45",
  "number": 118496,
  "timestamp": 1440127032,
  "nonce": "0xc72109ee2eb041d4",
  "difficulty": 4288929920893,
  "gasLimit": {
    "_hex": "0x2fefd8"
  },
  "gasUsed": {
    "_hex": "0x5208"
  },
  "miner": "0x52bc44d5378309EE2abF1539BF71dE1b7d7bE3b5",
  "extraData": "0xd783010002844765746887676f312e342e32856c696e7578",
  "transactions": [
    {
      "hash": "0xbfa591a47b541861e03db0003ff7e971bce9cd28729726ad91eab871e0429935",
      "blockHash": "0xa120b5c88fd1cc457ea913845217cfe7a6ecdcfc6a963a41a3abdac91c1871c5",
      "blockNumber": 118496,
      "transactionIndex": 0,
      "confirmations": null,
      "from": "0x1c11Aa45C792e202e9ffDc2F12f99D0d209BEf70",
      "gasPrice": {
        "_hex": "0xba43b7400"
      },
      "gasLimit": {
        "_hex": "0x15f90"
      },
      "to": "0x001aA0CB9c5fA098a119070024460feBb868742D",
      "value": {
        "_hex": "0xacf62e5dfca6000"
      },
      "nonce": 32,
      "data": "0x",
      "r": "0xd82650588d456a275e39f052e751eda87509df30660a529f8df717f87ac0cb18",
      "s": "0x6686826e33fbab696d606132240904481cd2255b1054eac499c759b0a8a6dc64",
      "v": 28,
      "creates": null,
      "raw": "0xf86d20850ba43b740083015f9094001aa0cb9c5fa098a119070024460febb868742d880acf62e5dfca6000801ca0d82650588d456a275e39f052e751eda87509df30660a529f8df717f87ac0cb18a06686826e33fbab696d606132240904481cd2255b1054eac499c759b0a8a6dc64",
      "networkId": 0,
      "chainId": 0
    }
  ]
}