{
  "hash": "0xd0bd3c3203b47243e7b08d52c2b774155619a89670750afd40a7c523eb505c7d",
  "parentHash": "0x2b77341c5da1cce180ab0bdf9ba85bbce2856cb2a580b68790955598ada1d48b",
  "number": 58648,
  "timestamp": 1439124248,
  "nonce": "0xdce208f8a5b66eb3",
  "difficulty": 1711534576685,
  "gasLimit": {
    "_hex": "0x2fefd5"
  },
  "gasUsed": {
    "_hex": "0x5208"
  },
  "miner": "0xf927a40C8B7F6E07c5af7FA2155B4864a4112B13",
  "extraData": "0x476574682f76312e302e312f6c696e75782f676f312e342e32",
  "transactions": [
    {
      "hash": "0x18a6712d105569d30b833989b845d33417fea964e0071b9544adb7fee19792d2",
      "blockHash": "0xd0bd3c3203b47243e7b08d52c2b774155619a89670750afd40a7c523eb505c7d",
      "blockNumber": 58648,
      "transactionIndex": 0,
      "confirmations": null,
      "from": "0xF87481A262E993a75F791E7859E71BaC36A606Eb",
      "gasPrice": {
        "_hex": "0xcef419bf9"
      },
      "gasLimit": {
        "_hex": "0x5208"
      },
      "to": "0x32Be343B94f860124dC4fEe278FDCBD38C102D88",
      "value": {
        "_hex": "0x821a6e838dddc0000"
      },
      "nonce": 4,
      "data": "0x",
      "r": "0x9c7ba07898dd6cbfad906ee0017886bd8a03d7fd74f4b2447a1648be1c9c0c27",
      "s": "0x5c8cf03879636c201dd7d8ad3dc71541df0196cc6084b0e9c4c56adefde7e7d3",
      "v": 27,
      "creates": null,
      "raw": "0xf86d04850cef419bf98252089432be343b94f860124dc4fee278fdcbd38c102d88890821a6e838dddc0000801ba09c7ba07898dd6cbfad906ee0017886bd8a03d7fd74f4b2447a1648be1c9c0c27a05c8cf03879636c201dd7d8ad3dc71541df0196cc6084b0e9c4c56adefde7e7d3",
      "networkId": 0,
      "chainId": 0
    }
  ]
}