{
  "hash": "0xb2e978db67a6cf54d4a45763907fbd4b36c2bae24d04064ef8a00ecc7b63ca0d",
  "parentHash": "0x9992118d74199f768dab76d054fef21569ab9526843db887d4be6b2c1578dca7",
  "number": 54385,
  "timestamp": 1439053325,
  "nonce": "0x5ed36b400abda76d",
  "difficulty": 1614162965467,
  "gasLimit": {
    "_hex": "0x2fefd8"
  },
  "gasUsed": {
    "_hex": "0x546c"
  },
  "miner": "0x1D889aFF5D57138c9819412d63b5d877567B5936",
  "extraData": "0x476574682f76312e302e312f77696e646f77732f676f312e342e32",
  "transactions": [
    {
      "hash": "0x1d71190cff14ae76bd79cd6a192c31ecef84824c77778519b52e0fad5de91ea0",
      "blockHash": "0xb2e978db67a6cf54d4a45763907fbd4b36c2bae24d04064ef8a00ecc7b63ca0d",
      "blockNumber": 54385,
      "transactionIndex": 0,
      "confirmations": null,
      "from": "0x8C999591fd72eF7111EfCa7A9E97a2356B3b000A",
      "gasPrice": {
        "_hex": "0x110c8f7d8de"
      },
      "gasLimit": {
        "_hex": "0xc350"
      },
      "to": "0x2910543Af39abA0Cd09dBb2D50200b3E800A63D2",
      "value": {
        "_hex": "0xdd5df24eb0939e0000"
      },
      "nonce": 0,
      "data": "0x454e4b594144413638",
      "r": "0x060bf2056e7338a6829561d6c3022386457895b48c7095f350e9f34f80ae63de",
      "s": "0x487427af64df0959da2d2f7a7830edba33b77ed809dd22526a38fbb77930a7eb",
      "v": 28,
      "creates": null,
      "raw": "0xf87780860110c8f7d8de82c350942910543af39aba0cd09dbb2d50200b3e800a63d289dd5df24eb0939e000089454e4b5941444136381ca0060bf2056e7338a6829561d6c3022386457895b48c7095f350e9f34f80ae63dea0487427af64df0959da2d2f7a7830edba33b77ed809dd22526a38fbb77930a7eb",
      "networkId": 0,
      "chainId": 0
    }
  ]
}