{
  "hash": "0x8f21242e15b52b499a0a74b4611c849089b4a8eb15c5803c57e221be70ac6750",
  "parentHash": "0x3f2212a89f18f77cb2e7ddb7714ff110da52237410e5f76d6cd226a2af64c00b",
  "number": 46247,
  "timestamp": 1438919949,
  "nonce": "0xc62706a5ee4d533d",
  "difficulty": 1459690098644,
  "gasLimit": {
    "_hex": "0x5668"
  },
  "gasUsed": {
    "_hex": "0x5208"
  },
  "miner": "0xa50ec0D39fa913E62f1Bae7074E6F36caA71855b",
  "extraData": "0x476574682f76312e302e302f6c696e75782f676f312e342e32",
  "transactions": [
    {
      "hash": "0x53b783a7552bae97fe01be2ec11d3d9f4344309b596954972f731384b38b5343",
      "blockHash": "0x8f21242e15b52b499a0a74b4611c849089b4a8eb15c5803c57e221be70ac6750",
      "blockNumber": 46247,
      "transactionIndex": 0,
      "confirmations": null,
      "from": "0x03B35D960c861Fe987C50380d76db9D6Ae1fa510",
      "gasPrice": {
        "_hex": "0x15358f7779"
      },
      "gasLimit": {
        "_hex": "0x5208"
      },
      "to": "0xB83b76f35cF6b2149B34Ee092B3Fc93b7Bb54A8D",
      "value": {
        "_hex": "0x6f05b59d3b20000"
      },
      "nonce": 0,
      "data": "0x",
      "r": "0xd44fb714d9d20372558f742833e3e0a77e09e27b26bc2a6c6a0dc7737af07413",
      "s": "0x49e965e5f594c1a12fa73d77bd6255ef1637ddba7b79afb0a62377b5cb923de1",
      "v": 28,
      "creates": null,
      "raw": "0xf86c808515358f777982520894b83b76f35cf6b2149b34ee092b3fc93b7bb54a8d8806f05b59d3b20000801ca0d44fb714d9d20372558f742833e3e0a77e09e27b26bc2a6c6a0dc7737af07413a049e965e5f594c1a12fa73d77bd6255ef1637ddba7b79afb0a62377b5cb923de1",
      "networkId": 0,
      "chainId": 0
    }
  ]
}