{
  "hash": "0x6959c4b0be80181b3ce155766dbb143c689511686fdeecf81fcd734845d519a7",
  "parentHash": "0x397bd7755acaf78fc1a7e205553ea6a04dce1500fd4a5bad512b4fc24e4e3eb2",
  "number": 72004,
  "timestamp": 1439345622,
  "nonce": "0x6facfc5a379b1f30",
  "difficulty": 2164363592417,
  "gasLimit": {
    "_hex": "0x2fefd8"
  },
  "gasUsed": {
    "_hex": "0x15d34"
  },
  "miner": "0x458F183347F45a4001807728A89F31E9Da9D4A58",
  "extraData": "0x476574682f76312e302e312d38326566323666362f6c696e75782f676f312e34",
  "transactions": [
    {
      "hash": "0xe7f21e35ef2bbad269659b04f017cc1d9e8f8025d789c7d4141a990a4e4c540a",
      "blockHash": "0x6959c4b0be80181b3ce155766dbb143c689511686fdeecf81fcd734845d519a7",
      "blockNumber": 72004,
      "transactionIndex": 0,
      "confirmations": null,
      "from": "0x17580B766f7453525ca4C6A88b01b50570EA088C",
      "gasPrice": {
        "_hex": "0xcc05d0279"
      },
      "gasLimit": {
        "_hex": "0x61a80"
      },
      "to": "0x5Fe5B7546D1628f7348B023A0393de1FC825A4fD",
      "value": {
        "_hex": "0x3782dace9d900000"
      },
      "nonce": 321,
      "data": "0xb595b8b50000000000000000000000000000000000000000000000000000000000000001",
      "r": "0x3898b9f48f52f34c09172fddf99025ebd389af9f3527fe02e60a047fc39edc0b",
      "s": "0x2aa5693fb47d57b5c52d0147202541280079e9fd7f1f97394c25c22ed7932161",
      "v": 27,
      "creates": null,
      "raw": "0xf893820141850cc05d027983061a80945fe5b7546d1628f7348b023a0393de1fc825a4fd883782dace9d900000a4b595b8b500000000000000000000000000000000000000000000000000000000000000011ba03898b9f48f52f34c09172fddf99025ebd389af9f3527fe02e60a047fc39edc0ba02aa5693fb47d57b5c52d0147202541280079e9fd7f1f97394c25c22ed7932161",
      "networkId": 0,
      "chainId": 0
    },
    {
      "hash": "0x75770ea0e6c06f9005527557502978af359c4c6a516fda86653b9486f90bd7c3",
      "blockHash": "0x6959c4b0be80181b3ce155766dbb143c689511686fdeecf81fcd734845d519a7",
      "blockNumber": 72004,
      "transactionIndex": 1,
      "confirmations": null,
      "from": "0x17580B766f7453525ca4C6A88b01b50570EA088C",
      "gasPrice": {
        "_hex": "0xcc05d0279"
      },
      "gasLimit": {
        "_hex": "0x61a80"
      },
      "to": "0x5Fe5B7546D1628f7348B023A0393de1FC825A4fD",
      "value": {
        "_hex": "0x1bc16d674ec80000"
      },
      "nonce": 322,
      "data": "0xb595b8b50000000000000000000000000000000000000000000000000000000000000000",
      "r": "0xe24d10576fd63eda09f615f820d9df6079e9e08bebbe8ec26482a491ebc41f08",
      "s": "0x720a9a1d929d16afdea335f28fc3b360660cf68d9a8a465dfd0c2d72b121cdf8",
      "v": 27,
      "creates": null,
      "raw": "0xf893820142850cc05d027983061a80945fe5b7546d1628f7348b023a0393de1fc825a4fd881bc16d674ec80000a4b595b8b500000000000000000000000000000000000000000000000000000000000000001ba0e24d10576fd63eda09f615f820d9df6079e9e08bebbe8ec26482a491ebc41f08a0720a9a1d929d16afdea335f28fc3b360660cf68d9a8a465dfd0c2d72b121cdf8",
      "networkId": 0,
      "chainId": 0
    }
  ]
}