{
  "hash": "0x9536ed3381c60d4d12bdbaeb7270b237763290801a28cb019989d1a8d80528ab",
  "parentHash": "0x458d44d6462348f8f971db344f32bb5261a5ebe34212807f69d15f680a191a6f",
  "number": 107111,
  "timestamp": 1439916127,
  "nonce": "0x74a27b7ac58eb92c",
  "difficulty": 4472384944725,
  "gasLimit": {
    "_hex": "0x2fefd8"
  },
  "gasUsed": {
    "_hex": "0x14820"
  },
  "miner": "0xe6A7a1d47ff21B6321162AEA7C6CB457D5476Bca",
  "extraData": "0x476574682f76312e302e312d38326566323666362f6c696e75782f676f312e34",
  "transactions": [
    {
      "hash": "0x1d5b0d8499530d0b7f3c0d123bf525b3ad2ebe40e89dfd744b6e5a2e074380b5",
      "blockHash": "0x9536ed3381c60d4d12bdbaeb7270b237763290801a28cb019989d1a8d80528ab",
      "blockNumber": 107111,
      "transactionIndex": 0,
      "confirmations": null,
      "from": "0xe29AFa2051650D8C9549dF817E80ad5C7c398124",
      "gasPrice": {
        "_hex": "0xdd2151900"
      },
      "gasLimit": {
        "_hex": "0x5208"
      },
      "to": "0x32Be343B94f860124dC4fEe278FDCBD38C102D88",
      "value": {
        "_hex": "0xc245901a71920800"
      },
      "nonce": 1,
      "data": "0x",
      "r": "0x10e0458ea350e222abb44b41b8141429275b7442b39f03ed90ab9ced8d0d51ca",
      "s": "0x6bda523aa0a699061dea0120c32d1e0bad099e50c48ed7ad09fcd89cbd19789c",
      "v": 28,
      "creates": null,
      "raw": "0xf86c01850dd21519008252089432be343b94f860124dc4fee278fdcbd38c102d8888c245901a71920800801ca010e0458ea350e222abb44b41b8141429275b7442b39f03ed90ab9ced8d0d51caa06bda523aa0a699061dea0120c32d1e0bad099e50c48ed7ad09fcd89cbd19789c",
      "networkId": 0,
      "chainId": 0
    },
    {
      "hash": "0x55b337ca38aafdd79d060ecd1ec949c89fdffa460920c680b3c6162df376ec06",
      "blockHash": "0x9536ed3381c60d4d12bdbaeb7270b237763290801a28cb019989d1a8d80528ab",
      "blockNumber": 107111,
      "transactionIndex": 1,
      "confirmations": null,
      "from": "0x1Dd20cba1Ac0a6ADaFc39b52A8e3E9429A444Ada",
      "gasPrice": {
        "_hex": "0xdc645fcf1"
      },
      "gasLimit": {
        "_hex": "0x5208"
      },
      "to": "0xFBb1b73C4f0BDa4f67dcA266ce6Ef42f520fBB98",
      "value": {
        "_hex": "0x6c86a76c6bbe678"
      },
      "nonce": 1,
      "data": "0x",
      "r": "0x910b83f8495f05bfeb88e5923725692a9169034a686be5e1883a6fa335c7b292",
      "s": "0x23f90d672c814e01c843c2455e00f6c4b81f7a138347f11ecc527b74adaf8e88",
      "v": 27,
      "creates": null,
      "raw": "0xf86c01850dc645fcf182520894fbb1b73c4f0bda4f67dca266ce6ef42f520fbb988806c86a76c6bbe678801ba0910b83f8495f05bfeb88e5923725692a9169034a686be5e1883a6fa335c7b292a023f90d672c814e01c843c2455e00f6c4b81f7a138347f11ecc527b74adaf8e88",
      "networkId": 0,
      "chainId": 0
    },
    {
      "hash": "0xd7d13055db74d425f7b23fa5d4f7adeb54b3144509acf0d8a090f6a72772d2c9",
      "blockHash": "0x9536ed3381c60d4d12bdbaeb7270b237763290801a28cb019989d1a8d80528ab",
      "blockNumber": 107111,
      "transactionIndex": 2,
      "confirmations": null,
      "from": "0x3a35269a1cF41344F2288e9D11bA854991112015",
      "gasPrice": {
        "_hex": "0xd70611a5c"
      },
      "gasLimit": {
        "_hex": "0x15f90"
      },
      "to": "0x86d3856ad0105B9d4199936c1fd203664BA325dC",
      "value": {
        "_hex": "0x4d93ab62066f0000"
      },
      "nonce": 11,
      "data": "0x",
      "r": "0xa1c7475c5ac04230ed295def28e2c64c1396662d23b6da2ebc66f697c46798fe",
      "s": "0x724e28118279b5735bc972df9bfd7d97cbf787f62d96779054681f3c6e38d8b9",
      "v": 27,
      "creates": null,
      "raw": "0xf86d0b850d70611a5c83015f909486d3856ad0105b9d4199936c1fd203664ba325dc884d93ab62066f0000801ba0a1c7475c5ac04230ed295def28e2c64c1396662d23b6da2ebc66f697c46798fea0724e28118279b5735bc972df9bfd7d97cbf787f62d96779054681f3c6e38d8b9",
      "networkId": 0,
      "chainId": 0
    },
    {
      "hash": "0x7a35c9bd1f8f829eea0ff120be0886dfda18cc3a7c71ec2f4b5c02662be2c951",
      "blockHash": "0x9536ed3381c60d4d12bdbaeb7270b237763290801a28cb019989d1a8d80528ab",
      "blockNumber": 107111,
      "transactionIndex": 3,
      "confirmations": null,
      "from": "0xb6E2d440C46510EC44266A3f58165E3956173df0",
      "gasPrice": {
        "_hex": "0xcd027f536"
      },
      "gasLimit": {
        "_hex": "0x15f90"
      },
      "to": "0x1Dd20cba1Ac0a6ADaFc39b52A8e3E9429A444Ada",
      "value": {
        "_hex": "0x10"
      },
      "nonce": 3,
      "data": "0x",
      "r": "0x8370db3d3c786c64ae009a3c61e98180b8689b1f547250b5db4cfe81dbf1c3c4",
      "s": "0x54d0beb4a0dc6121815137c5d8bbfad2c67fbff270e4cb4600d1c48fe1ff0d5c",
      "v": 28,
      "creates": null,
      "raw": "0xf86503850cd027f53683015f90941dd20cba1ac0a6adafc39b52a8e3e9429a444ada10801ca08370db3d3c786c64ae009a3c61e98180b8689b1f547250b5db4cfe81dbf1c3c4a054d0beb4a0dc6121815137c5d8bbfad2c67fbff270e4cb4600d1c48fe1ff0d5c",
      "networkId": 0,
      "chainId": 0
    }
  ]
}