{
  "hash": "0x605807f85629f3abae75fe2c6e7f4c9fd32a6651c27ea6f00fbdeea9167e7f2d",
  "parentHash": "0x869d3c735a77290b46c24ca3ab1fd2f4f0e33b8a4d4daa489df8dc4ca4def174",
  "number": 73596,
  "timestamp": 1439371599,
  "nonce": "0xbfdda22621737b2d",
  "difficulty": 2230464866869,
  "gasLimit": {
    "_hex": "0x2fefd8"
  },
  "gasUsed": {
    "_hex": "0x5208"
  },
  "miner": "0xe6A7a1d47ff21B6321162AEA7C6CB457D5476Bca",
  "extraData": "0x476574682f76312e302e312d38326566323666362f6c696e75782f676f312e34",
  "transactions": [
    {
      "hash": "0xdc90fbc4933c76c345bf53ee3f721f18e9677fda8a9cebb17c4211057bd6138b",
      "blockHash": "0x605807f85629f3abae75fe2c6e7f4c9fd32a6651c27ea6f00fbdeea9167e7f2d",
      "blockNumber": 73596,
      "transactionIndex": 0,
      "confirmations": null,
      "from": "0x2910543Af39abA0Cd09dBb2D50200b3E800A63D2",
      "gasPrice": {
        "_hex": "0xd84c6fa02"
      },
      "gasLimit": {
        "_hex": "0x5208"
      },
      "to": "0x0cA19A53a3256482A89770FC1daFC7630717F201",
      "value": {
        "_hex": "0x12dfb0cb5e88000"
      },
      "nonce": 287,
      "data": "0x",
      "r": "0xc36ac63ca91bb672f28ae8ed10bdf5af82d16407344955c793764af464f03761",
      "s": "0x4a3113e18d50bc1d923e4bcd719413b384931cb544379f9a2f24c37080405b17",
      "v": 28,
      "creates": null,
      "raw": "0xf86e82011f850d84c6fa02825208940ca19a53a3256482a89770fc1dafc7630717f20188012dfb0cb5e88000801ca0c36ac63ca91bb672f28ae8ed10bdf5af82d16407344955c793764af464f03761a04a3113e18d50bc1d923e4bcd719413b384931cb544379f9a2f24c37080405b17",
      "networkId": 0,
      "chainId": 0
    }
  ]
}