{
  "hash": "0x986820a0b99495ffc38abd5902a92fa15bb52e10f48341477f8d682397c12ff2",
  "parentHash": "0x040703c9520412e4f2d25790eb763b74ddcaf4371ffd21f077424cfa2bd190de",
  "number": 79459,
  "timestamp": 1439470020,
  "nonce": "0xc49a695d49de2cd8",
  "difficulty": 2334733664899,
  "gasLimit": {
    "_hex": "0x2fefd8"
  },
  "gasUsed": {
    "_hex": "0x5208"
  },
  "miner": "0xe090Ffdced499691fA9379752a59F8A058c1eE4A",
  "extraData": "0x476574682f76312e302e312f6c696e75782f676f312e342e32",
  "transactions": [
    {
      "hash": "0x3fcb1fcb0bb1c0e6133d284369a99b45e35d76e96dfd6d97e05efc1b3af14b1d",
      "blockHash": "0x986820a0b99495ffc38abd5902a92fa15bb52e10f48341477f8d682397c12ff2",
      "blockNumber": 79459,
      "transactionIndex": 0,
      "confirmations": null,
      "from": "0x87898CE53471043FcCa0a2aF4E1dC6d8B3fCf607",
      "gasPrice": {
        "_hex": "0xd46a2cef3"
      },
      "gasLimit": {
        "_hex": "0x5208"
      },
      "to": "0xBFdD9820a04283b289957956353b5F3C1F665EcF",
      "value": {
        "_hex": "0x8ac7230489e80000"
      },
      "nonce": 28,
      "data": "0x",
      "r": "0xf92cea86d591724c7c4003c36a42479a225cdddf5d6bd3dd5560865d82c62779",
      "s": "0x7c33853664b094e38e890da88e12e0f0091037dfbf403deb6eef4f60d43b014d",
      "v": 28,
      "creates": null,
      "raw": "0xf86c1c850d46a2cef382520894bfdd9820a04283b289957956353b5f3c1f665ecf888ac7230489e80000801ca0f92cea86d591724c7c4003c36a42479a225cdddf5d6bd3dd5560865d82c62779a07c33853664b094e38e890da88e12e0f0091037dfbf403deb6eef4f60d43b014d",
      "networkId": 0,
      "chainId": 0
    }
  ]
}