{
  "hash": "0x3bf5e4831d6b2f3fcf5d758a008a2897d1f3140a4d90d1b561923b203e25b0ef",
  "parentHash": "0xbcd15aebc18bef7f371538434e3ec64c3e0f712017bf7c3837109460396048f2",
  "number": 74862,
  "timestamp": 1439393709,
  "nonce": "0x63bba62044d25eca",
  "difficulty": 2189130463354,
  "gasLimit": {
    "_hex": "0x2fefd8"
  },
  "gasUsed": {
    "_hex": "0xa674"
  },
  "miner": "0xe6A7a1d47ff21B6321162AEA7C6CB457D5476Bca",
  "extraData": "0x476574682f76312e302e312d38326566323666362f6c696e75782f676f312e34",
  "transactions": [
    {
      "hash": "0x833fb29e9d062ac9e7843b3321c29837ccec47e0a5ae761c9f1ecde5a8c39b94",
      "blockHash": "0x3bf5e4831d6b2f3fcf5d758a008a2897d1f3140a4d90d1b561923b203e25b0ef",
      "blockNumber": 74862,
      "transactionIndex": 0,
      "confirmations": null,
      "from": "0xA17c9E4323069518189D5207A0728DCb92306A3F",
      "gasPrice": {
        "_hex": "0x110c8f7d8de"
      },
      "gasLimit": {
        "_hex": "0xc350"
      },
      "to": "0x2910543Af39abA0Cd09dBb2D50200b3E800A63D2",
      "value": {
        "_hex": "0x363466684d81160000"
      },
      "nonce": 0,
      "data": "0x454e4654414e564647",
      "r": "0xa3f10e9fc7e4f95f8bfbbc22eb004a08f9a2ef97a7e74c4d67e82f819ee3422e",
      "s": "0xfcfe03c16514b409aa7e7fffa22bef8dc29fe01cabd2893e3c7d06c1e2291c09",
      "v": 27,
      "creates": null,
      "raw": "0xf87780860110c8f7d8de82c350942910543af39aba0cd09dbb2d50200b3e800a63d289363466684d8116000089454e4654414e5646471ba0a3f10e9fc7e4f95f8bfbbc22eb004a08f9a2ef97a7e74c4d67e82f819ee3422ea0fcfe03c16514b409aa7e7fffa22bef8dc29fe01cabd2893e3c7d06c1e2291c09",
      "networkId": 0,
      "chainId": 0
    },
    {
      "hash": "0x80b66bed38f882e755d2dffa25da1a1ae6d8121c4caf4b1f0d4abc0c92fe94f2",
      "blockHash": "0x3bf5e4831d6b2f3fcf5d758a008a2897d1f3140a4d90d1b561923b203e25b0ef",
      "blockNumber": 74862,
      "transactionIndex": 1,
      "confirmations": null,
      "from": "0x120A270bbC009644e35F0bB6ab13f95b8199c4ad",
      "gasPrice": {
        "_hex": "0xd74efe544"
      },
      "gasLimit": {
        "_hex": "0x15f90"
      },
      "to": "0xc5b8F250e32F63eb28ED6d6ED90A39f18d5eBe51",
      "value": {
        "_hex": "0x11270758a26c1800"
      },
      "nonce": 284,
      "data": "0x",
      "r": "0xa9e3a33ac219ba53bc3fff25b07e3974f5a81e61c2cc371167b5ac09f7deced5",
      "s": "0x7703850e8652f08f8d8582387124ad822bea5f28c85970d5196df271b5d6ad40",
      "v": 28,
      "creates": null,
      "raw": "0xf86f82011c850d74efe54483015f9094c5b8f250e32f63eb28ed6d6ed90a39f18d5ebe518811270758a26c1800801ca0a9e3a33ac219ba53bc3fff25b07e3974f5a81e61c2cc371167b5ac09f7deced5a07703850e8652f08f8d8582387124ad822bea5f28c85970d5196df271b5d6ad40",
      "networkId": 0,
      "chainId": 0
    }
  ]
}