{
  "hash": "0xd08e18df603ba261a16172da7e84e60b507cc83977770ee582df31e5e10464da",
  "parentHash": "0x46da7a71209704d40ebd7fc253036099af397508dadfe0c1b2da98cba7649ff5",
  "number": 94998,
  "timestamp": 1439717387,
  "nonce": "0x61c589dfc094d678",
  "difficulty": 3517204702119,
  "gasLimit": {
    "_hex": "0x2fefd8"
  },
  "gasUsed": {
    "_hex": "0x5208"
  },
  "miner": "0xe6A7a1d47ff21B6321162AEA7C6CB457D5476Bca",
  "extraData": "0x476574682f76312e302e312d38326566323666362f6c696e75782f676f312e34",
  "transactions": [
    {
      "hash": "0x4d23cce1ba6654a33d2f48fc2bd96853c493523419f7bdf5fb5fc25e24488da9",
      "blockHash": "0xd08e18df603ba261a16172da7e84e60b507cc83977770ee582df31e5e10464da",
      "blockNumber": 94998,
      "transactionIndex": 0,
      "confirmations": null,
      "from": "0x2910543Af39abA0Cd09dBb2D50200b3E800A63D2",
      "gasPrice": {
        "_hex": "0xd13808c52"
      },
      "gasLimit": {
        "_hex": "0x5208"
      },
      "to": "0x7D8fE8238e11154E30c98ae93B52B4eE4ad7852d",
      "value": {
        "_hex": "0x2b46ea6251c1d8000"
      },
      "nonce": 888,
      "data": "0x",
      "r": "0x4f3f1574fff62b38b59a2cec349e24db1979c58967100eca3d4e925dd5d4e848",
      "s": "0x68745fafa711c4a55cd7641c7153e289df63fec35e6808767748aae3819cbbaf",
      "v": 27,
      "creates": null,
      "raw": "0xf86f820378850d13808c52825208947d8fe8238e11154e30c98ae93b52b4ee4ad7852d8902b46ea6251c1d8000801ba04f3f1574fff62b38b59a2cec349e24db1979c58967100eca3d4e925dd5d4e848a068745fafa711c4a55cd7641c7153e289df63fec35e6808767748aae3819cbbaf",
      "networkId": 0,
      "chainId": 0
    }
  ]
}