{
  "hash": "0x4ec692a1566b685a5d7ff02ee64685e827478b034c0231c52b06a6cc78ed5c0a",
  "parentHash": "0x798061d522de3efcebf1d5ce9bdd213690f8c7e4f3c469548cb8d0920520d15c",
  "number": 51165,
  "timestamp": 1439000400,
  "nonce": "0xb734155b15e3a3b7",
  "difficulty": 1562047188106,
  "gasLimit": {
    "_hex": "0x96820"
  },
  "gasUsed": {
    "_hex": "0x53d5"
  },
  "miner": "0xf927a40C8B7F6E07c5af7FA2155B4864a4112B13",
  "extraData": "0x476574682f76312e302e312f6c696e75782f676f312e342e32",
  "transactions": [
    {
      "hash": "0xf1fc8b9d98f5de190ec1ad3c545e5f93ff8c09308a614a2748887f86e909c546",
      "blockHash": "0x4ec692a1566b685a5d7ff02ee64685e827478b034c0231c52b06a6cc78ed5c0a",
      "blockNumber": 51165,
      "transactionIndex": 0,
      "confirmations": null,
      "from": "0x2905726Ed11131A984ce9C0119cB32DBC99dE90B",
      "gasPrice": {
        "_hex": "0x10f79ed93a4"
      },
      "gasLimit": {
        "_hex": "0x15f90"
      },
      "to": "0x8bbF81e9A8E936242354047C9905d621E269c7f7",
      "value": {
        "_hex": "0x2386f26fc10000"
      },
      "nonce": 3,
      "data": "0x77ef5ed3",
      "r": "0x4bbc19fae0681eaa81a66bec19943789c38b583048eb54b14c1a4c069681db3d",
      "s": "0x39596fb613febf7630d4b43517d18a74704a1b4b0ea01e1819536b04534296dc",
      "v": 27,
      "creates": null,
      "raw": "0xf8710386010f79ed93a483015f90948bbf81e9a8e936242354047c9905d621e269c7f7872386f26fc100008477ef5ed31ba04bbc19fae0681eaa81a66bec19943789c38b583048eb54b14c1a4c069681db3da039596fb613febf7630d4b43517d18a74704a1b4b0ea01e1819536b04534296dc",
      "networkId": 0,
      "chainId": 0
    }
  ]
}