{
  "hash": "0x8bed86bd26f898c0726c277e29368985fd9927fbfc4a89b26c54a6111d9a4a41",
  "parentHash": "0xdf426134d2b20fddeff76dfc755e71ed3705dba679bfb750b4acbe19a5fb70a0",
  "number": 69286,
  "timestamp": 1439301265,
  "nonce": "0x5f3db1d1ecc938f2",
  "difficulty": 2065919431771,
  "gasLimit": {
    "_hex": "0x2fefd8"
  },
  "gasUsed": {
    "_hex": "0xa329"
  },
  "miner": "0xe6A7a1d47ff21B6321162AEA7C6CB457D5476Bca",
  "extraData": "0x476574682f76312e302e312d38326566323666362f6c696e75782f676f312e34",
  "transactions": [
    {
      "hash": "0x12a4fdacfb1c8604b067a1ad3c92a2710d367c3b2e741fa2daabc14bae344bed",
      "blockHash": "0x8bed86bd26f898c0726c277e29368985fd9927fbfc4a89b26c54a6111d9a4a41",
      "blockNumber": 69286,
      "transactionIndex": 0,
      "confirmations": null,
      "from": "0x8bae48F227d978d084B009b775222BAaF61ed9fe",
      "gasPrice": {
        "_hex": "0xba43b7400"
      },
      "gasLimit": {
        "_hex": "0xa370"
      },
      "to": "0xad5e5A5Bc4654dbeF0d5CABD7ABeB426769C073a",
      "value": {
        "_hex": "0x0"
      },
      "nonce": 11,
      "data": "0x91b7f5ed0000000000000000000000000000000000000000000000000000000000000001",
      "r": "0xf5f8454414cd0113c19c9526d8f38d33314fe88764d029a4ca40c6f035326f31",
      "s": "0x7bec3613032ad240b11182cf4ff1fc66234c81fd26a353a6af157fa8c5270b7f",
      "v": 28,
      "creates": null,
      "raw": "0xf8880b850ba43b740082a37094ad5e5a5bc4654dbef0d5cabd7abeb426769c073a80a491b7f5ed00000000000000000000000000000000000000000000000000000000000000011ca0f5f8454414cd0113c19c9526d8f38d33314fe88764d029a4ca40c6f035326f31a07bec3613032ad240b11182cf4ff1fc66234c81fd26a353a6af157fa8c5270b7f",
      "networkId": 0,
      "chainId": 0
    }
  ]
}