{
  "hash": "0x9ae34ccddd5823d4fea991680818c9cb9e564e15cc2efc996d6e2d9aa5538743",
  "parentHash": "0x1e743d6ba6547b78c7f6701f134dd670453ea48cf4485e4d5ec6efc67f5ca135",
  "number": 48041,
  "timestamp": 1438950297,
  "nonce": "0x76d4156666cf19ba",
  "difficulty": 1463659751311,
  "gasLimit": {
    "_hex": "0x11eba"
  },
  "gasUsed": {
    "_hex": "0x5648"
  },
  "miner": "0x88D74a59454F6cF3B51ef6b9136AFb6b9D405A88",
  "extraData": "0x476574682f76312e302e302d66633739643332642f6c696e75782f676f312e34",
  "transactions": [
    {
      "hash": "0xc80c710d3c7f70c4c0e6521c706d86407350a7efb6f10ddc9c82b0bbb7c2bac8",
      "blockHash": "0x9ae34ccddd5823d4fea991680818c9cb9e564e15cc2efc996d6e2d9aa5538743",
      "blockNumber": 48041,
      "transactionIndex": 0,
      "confirmations": null,
      "from": "0x339314EDFad76e605EF2502a570aF26fC1ccd8A8",
      "gasPrice": {
        "_hex": "0x746a528800"
      },
      "gasLimit": {
        "_hex": "0x5f44"
      },
      "to": "0x2910543Af39abA0Cd09dBb2D50200b3E800A63D2",
      "value": {
        "_hex": "0xde0b6b3a7640000"
      },
      "nonce": 0,
      "data": "0x414131344e38344737454f4945434459",
      "r": "0x84ca3b0a15a8275f586173f35700287222c92dfe5f62f3d18e84411a4b2d9421",
      "s": "0x1420593875c6802872d74cd8a0c4d2d211d049521a98c1e11da0b2d1cc6ce5b4",
      "v": 27,
      "creates": null,
      "raw": "0xf87c8085746a528800825f44942910543af39aba0cd09dbb2d50200b3e800a63d2880de0b6b3a764000090414131344e38344737454f49454344591ba084ca3b0a15a8275f586173f35700287222c92dfe5f62f3d18e84411a4b2d9421a01420593875c6802872d74cd8a0c4d2d211d049521a98c1e11da0b2d1cc6ce5b4",
      "networkId": 0,
      "chainId": 0
    }
  ]
}