{
  "hash": "0x539fc78d5e3ffe228312bccb226eac39130be684e3d68aab5bf74a8f001456ed",
  "parentHash": "0xfacf0ec29ce28aea01b0f636bac1769d1af7c47424426f76e4a6cdd2616fcdd4",
  "number": 65447,
  "timestamp": 1439237061,
  "nonce": "0xf8ecd875a2ff8f20",
  "difficulty": 1954004133552,
  "gasLimit": {
    "_hex": "0x2fefd8"
  },
  "gasUsed": {
    "_hex": "0x546c"
  },
  "miner": "0x5F8F73E26CdF436f19Cb24C82F90A15AFe55b592",
  "extraData": "0x476574682f76312e302e312f77696e646f77732f676f312e342e32",
  "transactions": [
    {
      "hash": "0x0f39dc74afd9b2946cc55e11d0184f0906853c1f4f3fc803b7d2d370bf836c54",
      "blockHash": "0x539fc78d5e3ffe228312bccb226eac39130be684e3d68aab5bf74a8f001456ed",
      "blockNumber": 65447,
      "transactionIndex": 0,
      "confirmations": null,
      "from": "0x6FDdbd9BCA66E28765c2162c8433548c1052eD11",
      "gasPrice": {
        "_hex": "0x118e4aef8c4"
      },
      "gasLimit": {
        "_hex": "0x55f0"
      },
      "to": "0x2910543Af39abA0Cd09dBb2D50200b3E800A63D2",
      "value": {
        "_hex": "0x1a264c42c4890d80000"
      },
      "nonce": 1,
      "data": "0x454e384a4e31573638",
      "r": "0x619f672b248be688ff34552090dd4bc15661d77db61e5379f6177a75a5a34ec0",
      "s": "0x71252e521e1fa1e89cbb1cea7fbc2817209b83f4e1a260398e6481285c769d25",
      "v": 28,
      "creates": null,
      "raw": "0xf87801860118e4aef8c48255f0942910543af39aba0cd09dbb2d50200b3e800a63d28a01a264c42c4890d8000089454e384a4e315736381ca0619f672b248be688ff34552090dd4bc15661d77db61e5379f6177a75a5a34ec0a071252e521e1fa1e89cbb1cea7fbc2817209b83f4e1a260398e6481285c769d25",
      "networkId": 0,
      "chainId": 0
    }
  ]
}