{
  "hash": "0x6afc12ce5871070ada4aee37985d98b07bc25592e58bc5dd735c92164c326e31",
  "parentHash": "0x66c083a74de0521aa0be197c2c29e64d354cda75b4de4b27d08cebf860706032",
  "number": 51629,
  "timestamp": 1439008160,
  "nonce": "0x55b93bc48b095825",
  "difficulty": 1557391428096,
  "gasLimit": {
    "_hex": "0xc77f2"
  },
  "gasUsed": {
    "_hex": "0x7a120"
  },
  "miner": "0xe6A7a1d47ff21B6321162AEA7C6CB457D5476Bca",
  "extraData": "0x657468706f6f6c2e6f7267",
  "transactions": [
    {
      "hash": "0x4acbc2920a53000402aa32e0fcbe62165c091b3acd620f9662ae9665a1baf3c7",
      "blockHash": "0x6afc12ce5871070ada4aee37985d98b07bc25592e58bc5dd735c92164c326e31",
      "blockNumber": 51629,
      "transactionIndex": 0,
      "confirmations": null,
      "from": "0xFCf9f6A78f06227522c6f948ec0119dA31680Ef7",
      "gasPrice": {
        "_hex": "0xdc4b653f2"
      },
      "gasLimit": {
        "_hex": "0x7a120"
      },
      "to": "0x109C4f2CCc82C4d77Bde15F306707320294Aea3F",
      "value": {
        "_hex": "0xde0b6b3a7640000"
      },
      "nonce": 37,
      "data": "0x",
      "r": "0xbed92fcee6e856c0873c4a6c911ee6c78f11f7a48887a78d9fbad6a7a963bcb6",
      "s": "0x0fe804b29ff71ff755931eddd35be14cd028fafc9b2f0468a63327e9383af9a0",
      "v": 28,
      "creates": null,
      "raw": "0xf86d25850dc4b653f28307a12094109c4f2ccc82c4d77bde15f306707320294aea3f880de0b6b3a7640000801ca0bed92fcee6e856c0873c4a6c911ee6c78f11f7a48887a78d9fbad6a7a963bcb6a00fe804b29ff71ff755931eddd35be14cd028fafc9b2f0468a63327e9383af9a0",
      "networkId": 0,
      "chainId": 0
    }
  ]
}