{
  "hash": "0xdf1d4e4164b08b021fe1929696f620616b3cf9e5374034c6e7cbd1fe0fb16471",
  "parentHash": "0xb9519047f7d6ac537f980bf3b27701643293f183ed8d652a5eb8b31b19a38593",
  "number": 109440,
  "timestamp": 1439956602,
  "nonce": "0xbae9df9b8d11f823",
  "difficulty": 4455887268674,
  "gasLimit": {
    "_hex": "0x2fefd8"
  },
  "gasUsed": {
    "_hex": "0x5208"
  },
  "miner": "0xeB1325C8D9d3ea8D74aC11F4B00F1B2367686319",
  "extraData": "0x",
  "transactions": [
    {
      "hash": "0x78b9c2412d01050de4f790f1c8e00439dad1627b34815a9be7d3e22ed2fbd7b5",
      "blockHash": "0xdf1d4e4164b08b021fe1929696f620616b3cf9e5374034c6e7cbd1fe0fb16471",
      "blockNumber": 109440,
      "transactionIndex": 0,
      "confirmations": null,
      "from": "0x40c6BeCe82F6ef13eB49bDed467E6d8aa48c5eF6",
      "gasPrice": {
        "_hex": "0xda9291ee9"
      },
      "gasLimit": {
        "_hex": "0x5208"
      },
      "to": "0xFBb1b73C4f0BDa4f67dcA266ce6Ef42f520fBB98",
      "value": {
        "_hex": "0xf9b3de31e719aa6b8"
      },
      "nonce": 0,
      "data": "0x",
      "r": "0xbe6821cb208525415ea66dcbd42b6a9c4eea87ac99dfedf627abd45fef7dfcdf",
      "s": "0x6a749f303c49001b6bb1f2f530d8aefc14c9953f3e913b928c84556a230ca158",
      "v": 28,
      "creates": null,
      "raw": "0xf86d80850da9291ee982520894fbb1b73c4f0bda4f67dca266ce6ef42f520fbb98890f9b3de31e719aa6b8801ca0be6821cb208525415ea66dcbd42b6a9c4eea87ac99dfedf627abd45fef7dfcdfa06a749f303c49001b6bb1f2f530d8aefc14c9953f3e913b928c84556a230ca158",
      "networkId": 0,
      "chainId": 0
    }
  ]
}