{
  "hash": "0x4ec3051635e64ea62e2f424bfdb02a88d699d5b56240c9094d94a7383e211ca2",
  "parentHash": "0x4ac20dc88513b470800aa605708627783e52176d0eb52f356ab0684bcb609de0",
  "number": 81438,
  "timestamp": 1439501673,
  "nonce": "0x021b368905b0b517",
  "difficulty": 2449788648288,
  "gasLimit": {
    "_hex": "0x2fefd8"
  },
  "gasUsed": {
    "_hex": "0x2d8d4"
  },
  "miner": "0xeB1325C8D9d3ea8D74aC11F4B00F1B2367686319",
  "extraData": "0x476574682f76312e302e312f77696e646f77732f676f312e342e32",
  "transactions": [
    {
      "hash": "0x2631302a71deb3dc4f8049719d52fb0e6f2e0956c0ff7c435f70ade503c73a24",
      "blockHash": "0x4ec3051635e64ea62e2f424bfdb02a88d699d5b56240c9094d94a7383e211ca2",
      "blockNumber": 81438,
      "transactionIndex": 0,
      "confirmations": null,
      "from": "0xb036916Bdacf94B69e5a8A65602975Eb026104dd",
      "gasPrice": {
        "_hex": "0x110c8f7d8de"
      },
      "gasLimit": {
        "_hex": "0xc350"
      },
      "to": "0x2910543Af39abA0Cd09dBb2D50200b3E800A63D2",
      "value": {
        "_hex": "0xde0b6b3a7640000"
      },
      "nonce": 0,
      "data": "0x454e474e36474e4247",
      "r": "0x724b97eb4b4fc5322e1119266642e80aa25adaf87e1e76ad2ef488bc4032a2bc",
      "s": "0x663cd967f57f9d244587c192c8a81c597a5ca430faf6dd462918cc1bd739c599",
      "v": 27,
      "creates": null,
      "raw": "0xf87680860110c8f7d8de82c350942910543af39aba0cd09dbb2d50200b3e800a63d2880de0b6b3a764000089454e474e36474e42471ba0724b97eb4b4fc5322e1119266642e80aa25adaf87e1e76ad2ef488bc4032a2bca0663cd967f57f9d244587c192c8a81c597a5ca430faf6dd462918cc1bd739c599",
      "networkId": 0,
      "chainId": 0
    },
    {
      "hash": "0x99b227a58b6ca784560235b4a68484cd610801eacc47084829bd0a6e8fb9ea8c",
      "blockHash": "0x4ec3051635e64ea62e2f424bfdb02a88d699d5b56240c9094d94a7383e211ca2",
      "blockNumber": 81438,
      "transactionIndex": 1,
      "confirmations": null,
      "from": "0x120A270bbC009644e35F0bB6ab13f95b8199c4ad",
      "gasPrice": {
        "_hex": "0xdfd8a4ed8"
      },
      "gasLimit": {
        "_hex": "0x3d090"
      },
      "to": "0xF6F1A44309051c6B25e47dff909B179Bb9aB591C",
      "value": {
        "_hex": "0x19bff2ff57968c0000"
      },
      "nonce": 375,
      "data": "0x",
      "r": "0xe2afa01f37215c8da0fbb8eec4a3dfe2bbdec55dbc47b3a7ade2b011077918ac",
      "s": "0x2fd36207e45fc3e7ed88ed8354bf26c5a91c98ffda1ce6847c3809d4419367b3",
      "v": 28,
      "creates": null,
      "raw": "0xf870820177850dfd8a4ed88303d09094f6f1a44309051c6b25e47dff909b179bb9ab591c8919bff2ff57968c0000801ca0e2afa01f37215c8da0fbb8eec4a3dfe2bbdec55dbc47b3a7ade2b011077918aca02fd36207e45fc3e7ed88ed8354bf26c5a91c98ffda1ce6847c3809d4419367b3",
      "networkId": 0,
      "chainId": 0
    },
    {
      "hash": "0xe4aeb98a03a540de6b2d7229bfdeec82aae9934c311106f1079a94c00a7365f2",
      "blockHash": "0x4ec3051635e64ea62e2f424bfdb02a88d699d5b56240c9094d94a7383e211ca2",
      "blockNumber": 81438,
      "transactionIndex": 2,
      "confirmations": null,
      "from": "0x120A270bbC009644e35F0bB6ab13f95b8199c4ad",
      "gasPrice": {
        "_hex": "0xdfd8a4ed8"
      },
      "gasLimit": {
        "_hex": "0x3d090"
      },
      "to": "0x5e5a441974A83D74c687Ebdc633Fb1A49e7B1Ad7",
      "value": {
        "_hex": "0x7680c5fc16d5c8000"
      },
      "nonce": 376,
      "data": "0x",
      "r": "0x745d0f8d7b5da6c111553faa24f31a4972c9e47d4f8fc81d0979feeadb948af6",
      "s": "0x3abc860c0d649c557922236852470374fd8ec34241a3b89b699ce44e54b8570e",
      "v": 27,
      "creates": null,
      "raw": "0xf870820178850dfd8a4ed88303d090945e5a441974a83d74c687ebdc633fb1a49e7b1ad78907680c5fc16d5c8000801ba0745d0f8d7b5da6c111553faa24f31a4972c9e47d4f8fc81d0979feeadb948af6a03abc860c0d649c557922236852470374fd8ec34241a3b89b699ce44e54b8570e",
      "networkId": 0,
      "chainId": 0
    },
    {
      "hash": "0xf7d6b0ced488073489a0e76c1b7c1a40e9375f7d34b2e85ae2a8ab4261bad3f2",
      "blockHash": "0x4ec3051635e64ea62e2f424bfdb02a88d699d5b56240c9094d94a7383e211ca2",
      "blockNumber": 81438,
      "transactionIndex": 3,
      "confirmations": null,
      "from": "0x18E113D8177c691A61Be785852Fa5Bb47aEeBdAf",
      "gasPrice": {
        "_hex": "0xd84ca6dd9"
      },
      "gasLimit": {
        "_hex": "0x7a120"
      },
      "to": "0xDf4F03a9752a13a38DE19dca7702f834D16Ae22B",
      "value": {
        "_hex": "0x98a7d9b8314c0000"
      },
      "nonce": 11,
      "data": "0xa55526db",
      "r": "0x52ab1966e2349b2d6da61499babefcbd8829e9f9fbd4fcb350b0f968bc89216e",
      "s": "0x4ef21cabc6034b68bb0bb4169fc8642c8a4085338cda4e9ee30744e885bdb5f6",
      "v": 27,
      "creates": null,
      "raw": "0xf8710b850d84ca6dd98307a12094df4f03a9752a13a38de19dca7702f834d16ae22b8898a7d9b8314c000084a55526db1ba052ab1966e2349b2d6da61499babefcbd8829e9f9fbd4fcb350b0f968bc89216ea04ef21cabc6034b68bb0bb4169fc8642c8a4085338cda4e9ee30744e885bdb5f6",
      "networkId": 0,
      "chainId": 0
    }
  ]
}