{
  "hash": "0xf2d374e818faf1fc37cf9c899a8eaceb982f03ebdb8b4df4a3af86f3d88d8291",
  "parentHash": "0x05d20ddf73542f9680276cc2333017788bd0ce80fd4ddcd3a1190336bae50052",
  "number": 51377,
  "timestamp": 1439003833,
  "nonce": "0x3089dc91e16d8971",
  "difficulty": 1568121237771,
  "gasLimit": {
    "_hex": "0xa9bf9"
  },
  "gasUsed": {
    "_hex": "0x5208"
  },
  "miner": "0xf927a40C8B7F6E07c5af7FA2155B4864a4112B13",
  "extraData": "0x476574682f76312e302e312f6c696e75782f676f312e342e32",
  "transactions": [
    {
      "hash": "0x5a59308dede5bd2505c7df688bf4b1b7a48268badf81b09cced492f7955a9576",
      "blockHash": "0xf2d374e818faf1fc37cf9c899a8eaceb982f03ebdb8b4df4a3af86f3d88d8291",
      "blockNumber": 51377,
      "transactionIndex": 0,
      "confirmations": null,
      "from": "0x3e8c40498098dd81D00F8bCA8744a0053c82079A",
      "gasPrice": {
        "_hex": "0xba43b7400"
      },
      "gasLimit": {
        "_hex": "0x5b04"
      },
      "to": "0x0000000000000000000000000000000000000000",
      "value": {
        "_hex": "0xde0b6b3a7640000"
      },
      "nonce": 1,
      "data": "0x",
      "r": "0xbb6893f29e475fc934110dae0fa537302a6f8831bbafd18465d70989605f9abe",
      "s": "0x45d4af4775f722356ddd2a4e4ab3e8bbd1ab78e1eb1cd9ce796faa06b2260f39",
      "v": 28,
      "creates": null,
      "raw": "0xf86c01850ba43b7400825b04940000000000000000000000000000000000000000880de0b6b3a7640000801ca0bb6893f29e475fc934110dae0fa537302a6f8831bbafd18465d70989605f9abea045d4af4775f722356ddd2a4e4ab3e8bbd1ab78e1eb1cd9ce796faa06b2260f39",
      "networkId": 0,
      "chainId": 0
    }
  ]
}