{
  "hash": "0x446a8102294a7550a6bec2727aa15937472ab315a8295c8dfd023bb94d5c2beb",
  "parentHash": "0x8c98c2e3967963e58470576f8eeb66b8cd7b2de46a7bb40c8a903af00c1ade13",
  "number": 121850,
  "timestamp": 1440183689,
  "nonce": "0x5524552e12ce5b01",
  "difficulty": 4488577692374,
  "gasLimit": {
    "_hex": "0x2fefd8"
  },
  "gasUsed": {
    "_hex": "0x1bdbe"
  },
  "miner": "0xD0ee3F53eE0fCf3F9fbCcdd17BD1b6441DdC2074",
  "extraData": "0x",
  "transactions": [
    {
      "hash": "0x915d3d640f6077d8413d92b38e245b668f452a65d73b0d14133f776aecc0ea49",
      "blockHash": "0x446a8102294a7550a6bec2727aa15937472ab315a8295c8dfd023bb94d5c2beb",
      "blockNumber": 121850,
      "transactionIndex": 0,
      "confirmations": null,
      "from": "0x4245271A2F40593fb9F66A98202b3Dc1a8593cD2",
      "gasPrice": {
        "_hex": "0xba43b7400"
      },
      "gasLimit": {
        "_hex": "0x249f0"
      },
      "to": "0xE28e72FCf78647ADCe1F1252F240bbfaebD63BcC",
      "value": {
        "_hex": "0x8ac7230489e80000"
      },
      "nonce": 5,
      "data": "0x45466f3a",
      "r": "0xfbdb9d7716ebb715bc21fd68ab78e56f04dbf49a61092d9c9d35799e0029f562",
      "s": "0x236568986d8305f0169e699e0b66e18109d48f2fc315a9b0c7d0b0e190fe9673",
      "v": 27,
      "creates": null,
      "raw": "0xf87105850ba43b7400830249f094e28e72fcf78647adce1f1252f240bbfaebd63bcc888ac7230489e800008445466f3a1ba0fbdb9d7716ebb715bc21fd68ab78e56f04dbf49a61092d9c9d35799e0029f562a0236568986d8305f0169e699e0b66e18109d48f2fc315a9b0c7d0b0e190fe9673",
      "networkId": 0,
      "chainId": 0
    }
  ]
}