{
  "hash": "0xc48265c28df199eda120804adc7beef62d16067fa0a509058134cead3630432a",
  "parentHash": "0xdd0fb375c8447f55dd68369415f1799216f8f54e6bf518376a260644e8cc596f",
  "number": 115467,
  "timestamp": 1440057755,
  "nonce": "0xb04b6a2a3425d77a",
  "difficulty": 4564961474924,
  "gasLimit": {
    "_hex": "0x2fefd8"
  },
  "gasUsed": {
    "_hex": "0x5208"
  },
  "miner": "0xe6A7a1d47ff21B6321162AEA7C6CB457D5476Bca",
  "extraData": "0x476574682f76312e302e312d38326566323666362f6c696e75782f676f312e34",
  "transactions": [
    {
      "hash": "0x2744a48a9ac81074b54494520d47a7c20fbf72625d414a239329d906aa4693c4",
      "blockHash": "0xc48265c28df199eda120804adc7beef62d16067fa0a509058134cead3630432a",
      "blockNumber": 115467,
      "transactionIndex": 0,
      "confirmations": null,
      "from": "0x32Be343B94f860124dC4fEe278FDCBD38C102D88",
      "gasPrice": {
        "_hex": "0xdf156d7b9"
      },
      "gasLimit": {
        "_hex": "0x5208"
      },
      "to": "0xed433C980AaED4E749B3229F3993BfB2840f2433",
      "value": {
        "_hex": "0x41905a081cbc70000"
      },
      "nonce": 1430,
      "data": "0x",
      "r": "0x7f7ad7ce079803ee1013e93e43b7c76d3c8dec91a9e67cd20909b1c261549bf3",
      "s": "0x65e45d25bc5aacad6cbb18fc0a436345133fd8198ad2680036fb3f5e59160a20",
      "v": 27,
      "creates": null,
      "raw": "0xf86f820596850df156d7b982520894ed433c980aaed4e749b3229f3993bfb2840f243389041905a081cbc70000801ba07f7ad7ce079803ee1013e93e43b7c76d3c8dec91a9e67cd20909b1c261549bf3a065e45d25bc5aacad6cbb18fc0a436345133fd8198ad2680036fb3f5e59160a20",
      "networkId": 0,
      "chainId": 0
    }
  ]
}