{
  "hash": "0x54866e614d8a6d048d8a7a9d906338eb96f104ab2baa85a3e2dedbd8abae1861",
  "parentHash": "0x32145fbd342a1fbfbcf0421c8d94c57afa95ac90c0744daa53b3b6a9f8ea681e",
  "number": 63106,
  "timestamp": 1439199242,
  "nonce": "0x9adae08813bad072",
  "difficulty": 1803254928336,
  "gasLimit": {
    "_hex": "0x2fefd8"
  },
  "gasUsed": {
    "_hex": "0x5208"
  },
  "miner": "0xA1623430350C5df1b52B0b57483A5bb45d1796Da",
  "extraData": "0x476574682f76312e302e312d38326566323666362f6c696e75782f676f312e34",
  "transactions": [
    {
      "hash": "0xc5163907b1b453bb89cea9aee21bd1603ea478258888ffcc1cef81712a040218",
      "blockHash": "0x54866e614d8a6d048d8a7a9d906338eb96f104ab2baa85a3e2dedbd8abae1861",
      "blockNumber": 63106,
      "transactionIndex": 0,
      "confirmations": null,
      "from": "0x2910543Af39abA0Cd09dBb2D50200b3E800A63D2",
      "gasPrice": {
        "_hex": "0xcf6913868"
      },
      "gasLimit": {
        "_hex": "0x5208"
      },
      "to": "0xb4Ad43131139584E8f6F31D578E0dC4d11Df6D7b",
      "value": {
        "_hex": "0x2b5e3af16b1880000"
      },
      "nonce": 120,
      "data": "0x",
      "r": "0xdd88b55c3adabd89a977adf6259a0d68a42fff61d176df3274caaa66063b945e",
      "s": "0x7ff6aca03e41ddffea0de1be9bb680bc97016c844f8890b7218cd3f5665928b5",
      "v": 28,
      "creates": null,
      "raw": "0xf86d78850cf691386882520894b4ad43131139584e8f6f31d578e0dc4d11df6d7b8902b5e3af16b1880000801ca0dd88b55c3adabd89a977adf6259a0d68a42fff61d176df3274caaa66063b945ea07ff6aca03e41ddffea0de1be9bb680bc97016c844f8890b7218cd3f5665928b5",
      "networkId": 0,
      "chainId": 0
    }
  ]
}