{
  "hash": "0xf9c25bd00a00ece0537bd090c865712dff3315d0c4f5af1dea9037a7cb814af8",
  "parentHash": "0x7d769e040702d9cacbaf0416e0fccae1fa2a293b07629fa0c0eecbbeb246e9bd",
  "number": 60225,
  "timestamp": 1439151716,
  "nonce": "0x07a9373427b86d36",
  "difficulty": 1740708533267,
  "gasLimit": {
    "_hex": "0x2fefd5"
  },
  "gasUsed": {
    "_hex": "0xa410"
  },
  "miner": "0xbb7B8287f3F0a933474a79eAe42CBCa977791171",
  "extraData": "0x476574682f4c5649562f76312e302e312f6c696e75782f676f312e342e32",
  "transactions": [
    {
      "hash": "0xf7161ad7db67b814a21ca1851b003695a524621965e1c09c681832ddb7ce1945",
      "blockHash": "0xf9c25bd00a00ece0537bd090c865712dff3315d0c4f5af1dea9037a7cb814af8",
      "blockNumber": 60225,
      "transactionIndex": 0,
      "confirmations": null,
      "from": "0x2d11763B4999FB3b61Ca8d19C8C77a743079f7bd",
      "gasPrice": {
        "_hex": "0xdcc52ce7a"
      },
      "gasLimit": {
        "_hex": "0x7a120"
      },
      "to": "0xbBF289D846208c16EDc8474705C748aff07732dB",
      "value": {
        "_hex": "0x6f05b59d3b20000"
      },
      "nonce": 10,
      "data": "0x",
      "r": "0x05e54148bc0d5d93b5696e1f20fd01e548306d729d854c7286c3c6aa6c6c4a69",
      "s": "0x13bfbfa0356d449986690c8378211d51f93869f553c9eca906f43b6b44a9109f",
      "v": 27,
      "creates": null,
      "raw": "0xf86d0a850dcc52ce7a8307a12094bbf289d846208c16edc8474705c748aff07732db8806f05b59d3b20000801ba005e54148bc0d5d93b5696e1f20fd01e548306d729d854c7286c3c6aa6c6c4a69a013bfbfa0356d449986690c8378211d51f93869f553c9eca906f43b6b44a9109f",
      "networkId": 0,
      "chainId": 0
    },
    {
      "hash": "0x0b7f0d90cea5b320ded8b602f72cd6054b797b12b85c0d8cace390cea2d134a8",
      "blockHash": "0xf9c25bd00a00ece0537bd090c865712dff3315d0c4f5af1dea9037a7cb814af8",
      "blockNumber": 60225,
      "transactionIndex": 1,
      "confirmations": null,
      "from": "0x3a7dB224aCaE17de7798797D82cdF8253017DFa8",
      "gasPrice": {
        "_hex": "0xd8cac2e96"
      },
      "gasLimit": {
        "_hex": "0x15f90"
      },
      "to": "0x33f844352144a9DDd91542b0adCD8Ba0dD142e93",
      "value": {
        "_hex": "0x1bc16d674ec80000"
      },
      "nonce": 2,
      "data": "0x",
      "r": "0x4a6d4c22a919151eddbc4102124628f0822cb979de97543338cf30a9e9e29d92",
      "s": "0x0519282df03c7133ae8ff9f8a46720c1b96d3b3fb1a45e8b1c138566efb76bab",
      "v": 27,
      "creates": null,
      "raw": "0xf86d02850d8cac2e9683015f909433f844352144a9ddd91542b0adcd8ba0dd142e93881bc16d674ec80000801ba04a6d4c22a919151eddbc4102124628f0822cb979de97543338cf30a9e9e29d92a00519282df03c7133ae8ff9f8a46720c1b96d3b3fb1a45e8b1c138566efb76bab",
      "networkId": 0,
      "chainId": 0
    }
  ]
}