{
  "hash": "0x4f511fb7d94ae888531be64086746b899307618fad6f8a2e7da655266dd960a0",
  "parentHash": "0xddc895a7b5e8081cedec8f63d1cf6ff51b2b096f2747a8363e9f492048286464",
  "number": 114711,
  "timestamp": 1440044941,
  "nonce": "0x4b964e3f6550b7fe",
  "difficulty": 4481444860996,
  "gasLimit": {
    "_hex": "0x2fefd8"
  },
  "gasUsed": {
    "_hex": "0x8a2e"
  },
  "miner": "0xbb7B8287f3F0a933474a79eAe42CBCa977791171",
  "extraData": "0xd783010001844765746887676f312e342e32856c696e7578",
  "transactions": [
    {
      "hash": "0x120ba83b47a4e3e6efd0f30a1465823dd0c41b27720cda4a5609e9a977c9f267",
      "blockHash": "0x4f511fb7d94ae888531be64086746b899307618fad6f8a2e7da655266dd960a0",
      "blockNumber": 114711,
      "transactionIndex": 0,
      "confirmations": null,
      "from": "0xcD063B3081Ea55535E5b60a21eff7f14E785A877",
      "gasPrice": {
        "_hex": "0xdd03ee916"
      },
      "gasLimit": {
        "_hex": "0x15f90"
      },
      "to": "0x3edDc7ebC7db94f54b72D8Ed1F42cE6A527305bB",
      "value": {
        "_hex": "0x0"
      },
      "nonce": 12,
      "data": "0x90b98a11000000000000000000000000b0eee1bf305686ecfdaf5ffac67fd7bdaf514d5100000000000000000000000000000000000000000000000000000000000003e8",
      "r": "0x34b446766875643fadf8258f34cee0c84884cfabe5cc7c5550802d66ec7e0fdb",
      "s": "0x40789564bc0ad6b4b05d8930a7217e9be6532464bf80d29e2b2e8d34d69b7977",
      "v": 28,
      "creates": null,
      "raw": "0xf8aa0c850dd03ee91683015f90943eddc7ebc7db94f54b72d8ed1f42ce6a527305bb80b84490b98a11000000000000000000000000b0eee1bf305686ecfdaf5ffac67fd7bdaf514d5100000000000000000000000000000000000000000000000000000000000003e81ca034b446766875643fadf8258f34cee0c84884cfabe5cc7c5550802d66ec7e0fdba040789564bc0ad6b4b05d8930a7217e9be6532464bf80d29e2b2e8d34d69b7977",
      "networkId": 0,
      "chainId": 0
    }
  ]
}