{
  "hash": "0x6a734fa758d46b9916ef26d32b0bd8279d139133490e28888fb9acb837e40c9b",
  "parentHash": "0xda465bd17a93a6ced94e58de65b281cdaffdc5b9f31c06d45a32cfa9fff89ae0",
  "number": 61558,
  "timestamp": 1439174352,
  "nonce": "0x17e51ed06bc6670e",
  "difficulty": 1737884351519,
  "gasLimit": {
    "_hex": "0x2fefd8"
  },
  "gasUsed": {
    "_hex": "0x5208"
  },
  "miner": "0x1D889aFF5D57138c9819412d63b5d877567B5936",
  "extraData": "0x476574682f76312e302e312f77696e646f77732f676f312e342e32",
  "transactions": [
    {
      "hash": "0x1929132f5b00e59fb817cf37defb14bba19bb955a4fc92ef16f8ee6b1cfe7627",
      "blockHash": "0x6a734fa758d46b9916ef26d32b0bd8279d139133490e28888fb9acb837e40c9b",
      "blockNumber": 61558,
      "transactionIndex": 0,
      "confirmations": null,
      "from": "0x32Be343B94f860124dC4fEe278FDCBD38C102D88",
      "gasPrice": {
        "_hex": "0xce9155cf3"
      },
      "gasLimit": {
        "_hex": "0x5208"
      },
      "to": "0xFBb1b73C4f0BDa4f67dcA266ce6Ef42f520fBB98",
      "value": {
        "_hex": "0x45400a8fd5330000"
      },
      "nonce": 141,
      "data": "0x",
      "r": "0x4b93236cc88abc573025ad32d0e96148f919e74961f1e06ae33fd8738d74ebfc",
      "s": "0x4eb5b3381d9f10f1379d7e7385e3dd5c04de99b5884dc646fd843a04f3e79006",
      "v": 28,
      "creates": null,
      "raw": "0xf86d818d850ce9155cf382520894fbb1b73c4f0bda4f67dca266ce6ef42f520fbb988845400a8fd5330000801ca04b93236cc88abc573025ad32d0e96148f919e74961f1e06ae33fd8738d74ebfca04eb5b3381d9f10f1379d7e7385e3dd5c04de99b5884dc646fd843a04f3e79006",
      "networkId": 0,
      "chainId": 0
    }
  ]
}