{
  "hash": "0x0f79e2c273082880048a8543a6b86f91a9e0655187ff0ef9e0ceba5309384f9f",
  "parentHash": "0xecb72956c8aa43f16812d0fd7c8dc924e61b0f5e703a982a6551735a2b1baa30",
  "number": 81340,
  "timestamp": 1439500139,
  "nonce": "0xcdfbfa1d5f370dc7",
  "difficulty": 2445037138024,
  "gasLimit": {
    "_hex": "0x2fefd8"
  },
  "gasUsed": {
    "_hex": "0x5208"
  },
  "miner": "0x007f7f58D3eb5b7510A301eCC749FC1fCDDBE14D",
  "extraData": "0x476574682f76312e302e312f77696e646f77732f676f312e342e32",
  "transactions": [
    {
      "hash": "0xf98255f3935962034a15ebb13957b5029483cfdf4f1668b3af70b6f36836099d",
      "blockHash": "0x0f79e2c273082880048a8543a6b86f91a9e0655187ff0ef9e0ceba5309384f9f",
      "blockNumber": 81340,
      "transactionIndex": 0,
      "confirmations": null,
      "from": "0x35e8e5dC5FBd97c5b421A80B596C030a2Be2A04D",
      "gasPrice": {
        "_hex": "0xd00e0781e"
      },
      "gasLimit": {
        "_hex": "0x55f0"
      },
      "to": "0x8751DfA908C45A8aEf041FbeE9C17f9fE57Cc449",
      "value": {
        "_hex": "0xd8f4045c124750000"
      },
      "nonce": 0,
      "data": "0x",
      "r": "0xc623ef15cd8841cc6e8a3b9cc1dcaa2df11f7dcb9c5f9cc0f938ea2afeb161cf",
      "s": "0x543d864e723a8425830d25c10ddf6e73e8a81f0a5ff13bce9c60a3282f269f42",
      "v": 27,
      "creates": null,
      "raw": "0xf86d80850d00e0781e8255f0948751dfa908c45a8aef041fbee9c17f9fe57cc449890d8f4045c124750000801ba0c623ef15cd8841cc6e8a3b9cc1dcaa2df11f7dcb9c5f9cc0f938ea2afeb161cfa0543d864e723a8425830d25c10ddf6e73e8a81f0a5ff13bce9c60a3282f269f42",
      "networkId": 0,
      "chainId": 0
    }
  ]
}