{
  "hash": "0xa5ff3aeb6815bae74cc470b70352e0aecea1c4a42835aeb28b8f34ddb392dc43",
  "parentHash": "0xf3048aec58824c8e1c4f036d5a5b74dfa2d2c022226a679e1a2073fa8fe67ae1",
  "number": 47348,
  "timestamp": 1438938721,
  "nonce": "0xba32c47f22000bc5",
  "difficulty": 1451680438297,
  "gasLimit": {
    "_hex": "0xb2da"
  },
  "gasUsed": {
    "_hex": "0x5208"
  },
  "miner": "0xe6A7a1d47ff21B6321162AEA7C6CB457D5476Bca",
  "extraData": "0x657468706f6f6c2e6f7267",
  "transactions": [
    {
      "hash": "0x055dad4f7d922910c42a6bf6ce5ad34c8b87f1b3ac7d0d8351644079bc08ead2",
      "blockHash": "0xa5ff3aeb6815bae74cc470b70352e0aecea1c4a42835aeb28b8f34ddb392dc43",
      "blockNumber": 47348,
      "transactionIndex": 0,
      "confirmations": null,
      "from": "0xa08d215B5B6aAC4861A281aC7E400b78FEF04cbf",
      "gasPrice": {
        "_hex": "0x11d22b91c7"
      },
      "gasLimit": {
        "_hex": "0x6978"
      },
      "to": "0x7e1f96dE76715323e90CF5138ea516AD8528d407",
      "value": {
        "_hex": "0xae56f730e6d840000"
      },
      "nonce": 2,
      "data": "0x",
      "r": "0x9925ccd254bd576022c273920560151d38faa307c2d0932ac01814263d26fad5",
      "s": "0x283707915bcba821e183fafb8abac16565732fce7486805d90a026ac4088646a",
      "v": 27,
      "creates": null,
      "raw": "0xf86d028511d22b91c7826978947e1f96de76715323e90cf5138ea516ad8528d407890ae56f730e6d840000801ba09925ccd254bd576022c273920560151d38faa307c2d0932ac01814263d26fad5a0283707915bcba821e183fafb8abac16565732fce7486805d90a026ac4088646a",
      "networkId": 0,
      "chainId": 0
    }
  ]
}