{
  "hash": "0xefe2c8da206d78a3ba825ef64788b0f05fe2fbc1c74c2b94d4068193d28725ef",
  "parentHash": "0x1929b08126b77dc268ac73bebe825e4e19cd1cc20e95fc433ba17ce3c8f7ee02",
  "number": 106044,
  "timestamp": 1439897675,
  "nonce": "0xe4f1015192276b10",
  "difficulty": 4475138444798,
  "gasLimit": {
    "_hex": "0x2fefd8"
  },
  "gasUsed": {
    "_hex": "0x5208"
  },
  "miner": "0xe6A7a1d47ff21B6321162AEA7C6CB457D5476Bca",
  "extraData": "0x476574682f76312e302e312d38326566323666362f6c696e75782f676f312e34",
  "transactions": [
    {
      "hash": "0x595816c40f83014a58f61d8f514edabdbebbe34f5dc7d45e955e96a6fd4d00b7",
      "blockHash": "0xefe2c8da206d78a3ba825ef64788b0f05fe2fbc1c74c2b94d4068193d28725ef",
      "blockNumber": 106044,
      "transactionIndex": 0,
      "confirmations": null,
      "from": "0xaA35779Ef4dfBEd0B3D6F46F5f11cb86261B17A5",
      "gasPrice": {
        "_hex": "0xd7d40ace3"
      },
      "gasLimit": {
        "_hex": "0x61a8"
      },
      "to": "0x30beD8049947963394D93412326225E4e3123601",
      "value": {
        "_hex": "0x4563918244f40000"
      },
      "nonce": 15,
      "data": "0x",
      "r": "0x5fcbe63d3e4438aa7c63dffb1a4e257c689bd85c7e31b510d8c534c75fdbb14c",
      "s": "0x1e7502b90ba856dd6d913ffed294f0cb7b64036c10906876a37718358b3a282f",
      "v": 27,
      "creates": null,
      "raw": "0xf86c0f850d7d40ace38261a89430bed8049947963394d93412326225e4e3123601884563918244f40000801ba05fcbe63d3e4438aa7c63dffb1a4e257c689bd85c7e31b510d8c534c75fdbb14ca01e7502b90ba856dd6d913ffed294f0cb7b64036c10906876a37718358b3a282f",
      "networkId": 0,
      "chainId": 0
    }
  ]
}