{
  "hash": "0x037d0474df3484479fbaf0178d27404e7e2ff15e07b05c189c4f9a893fe10916",
  "parentHash": "0x703fdd552f435eea32bad0c532e65374f29104f612080a5c8ed3ef5940354593",
  "number": 66534,
  "timestamp": 1439256111,
  "nonce": "0x08776812a21747ad",
  "difficulty": 1945183966550,
  "gasLimit": {
    "_hex": "0x2fefd5"
  },
  "gasUsed": {
    "_hex": "0x5208"
  },
  "miner": "0x87898CE53471043FcCa0a2aF4E1dC6d8B3fCf607",
  "extraData": "0x476574682f5369626572696131392f76312e302e312d37666266393930632f6c",
  "transactions": [
    {
      "hash": "0x2f6cb7bc3e173aac3f568d70b1e362f3f78b51692361891fc50d97636d870b95",
      "blockHash": "0x037d0474df3484479fbaf0178d27404e7e2ff15e07b05c189c4f9a893fe10916",
      "blockNumber": 66534,
      "transactionIndex": 0,
      "confirmations": null,
      "from": "0x120A270bbC009644e35F0bB6ab13f95b8199c4ad",
      "gasPrice": {
        "_hex": "0xdb80f6f73"
      },
      "gasLimit": {
        "_hex": "0x15f90"
      },
      "to": "0x81bF04fab4b5E3b80865eb356308cA9bD5640b89",
      "value": {
        "_hex": "0x4833d6c5e6139800"
      },
      "nonce": 146,
      "data": "0x",
      "r": "0xbf85947e2ab6b7a137f5b55e24486e83e40749178f5c5fc1e77ca54be5308845",
      "s": "0x309c4b8db707c406cd3072f01683d38a1a1c6f9d489d40486c6beea348d9f7b1",
      "v": 28,
      "creates": null,
      "raw": "0xf86e8192850db80f6f7383015f909481bf04fab4b5e3b80865eb356308ca9bd5640b89884833d6c5e6139800801ca0bf85947e2ab6b7a137f5b55e24486e83e40749178f5c5fc1e77ca54be5308845a0309c4b8db707c406cd3072f01683d38a1a1c6f9d489d40486c6beea348d9f7b1",
      "networkId": 0,
      "chainId": 0
    }
  ]
}