{
  "hash": "0x0bc78da5f221fdfc7f3953d523995ec8c61b38a4438eb9852524d950077dcf64",
  "parentHash": "0x7033b96ddbb6a45f982414e9b80f224f642c0d0e98312786e1e0226b235745fa",
  "number": 75779,
  "timestamp": 1439409124,
  "nonce": "0x360cf02973e77ca8",
  "difficulty": 2230973576535,
  "gasLimit": {
    "_hex": "0x2fefd8"
  },
  "gasUsed": {
    "_hex": "0x9380"
  },
  "miner": "0x52Dc504a422f0E2A9e7632A34a50f1a82F8224c7",
  "extraData": "0x476574682f76312e302e312f6c696e75782f676f312e342e32",
  "transactions": [
    {
      "hash": "0x1591fad7431f01b50864923799df91a867db961bc456aaebb8888e97f696a42a",
      "blockHash": "0x0bc78da5f221fdfc7f3953d523995ec8c61b38a4438eb9852524d950077dcf64",
      "blockNumber": 75779,
      "transactionIndex": 0,
      "confirmations": null,
      "from": "0x6A06499CEEe3eA86F394568874b5BDf6e9e26074",
      "gasPrice": {
        "_hex": "0xd03da391d"
      },
      "gasLimit": {
        "_hex": "0x61a80"
      },
      "to": "0x5Fe5B7546D1628f7348B023A0393de1FC825A4fD",
      "value": {
        "_hex": "0xde0b6b3a7640000"
      },
      "nonce": 1,
      "data": "0x5808e1c20000000000000000000000000000000000000000000000000000000000000002",
      "r": "0xd8295e7080f71bb69b62ef8a2ec2021fd06026372ecdb7bf55057daba17afcd7",
      "s": "0x49abe7eab5803d83133d928a29486addba842fcd1a8577b47d7114ad7b1ac22b",
      "v": 28,
      "creates": null,
      "raw": "0xf89101850d03da391d83061a80945fe5b7546d1628f7348b023a0393de1fc825a4fd880de0b6b3a7640000a45808e1c200000000000000000000000000000000000000000000000000000000000000021ca0d8295e7080f71bb69b62ef8a2ec2021fd06026372ecdb7bf55057daba17afcd7a049abe7eab5803d83133d928a29486addba842fcd1a8577b47d7114ad7b1ac22b",
      "networkId": 0,
      "chainId": 0
    }
  ]
}