{
  "hash": "0xe95d01f0cf690573272a1bda1ebb6ac01242a98c34058e8f36b39b1ffb4d0771",
  "parentHash": "0x82e01e98413aa29dcc56ceef04bbdd09a4cfddff6ebea6f299b9e062e8390763",
  "number": 109458,
  "timestamp": 1439956937,
  "nonce": "0x717bd57b1f1fcb0b",
  "difficulty": 4442842481025,
  "gasLimit": {
    "_hex": "0x2fefd8"
  },
  "gasUsed": {
    "_hex": "0x5208"
  },
  "miner": "0x87cD3b7f4DBBFE553DB92Ac1C97c6C24231c5D26",
  "extraData": "0x476574682f76312e302e312f6c696e75782f676f312e342e32",
  "transactions": [
    {
      "hash": "0x58013e5db78bcda2ebee727b98b0cff30991186ae8318207ed2ecdd733b4cda4",
      "blockHash": "0xe95d01f0cf690573272a1bda1ebb6ac01242a98c34058e8f36b39b1ffb4d0771",
      "blockNumber": 109458,
      "transactionIndex": 0,
      "confirmations": null,
      "from": "0xce7a6e1143620333cbaeDb089A14a5C08a3B7DF2",
      "gasPrice": {
        "_hex": "0xd566e8975"
      },
      "gasLimit": {
        "_hex": "0x5208"
      },
      "to": "0x32Be343B94f860124dC4fEe278FDCBD38C102D88",
      "value": {
        "_hex": "0x453bc47539a09800"
      },
      "nonce": 1,
      "data": "0x",
      "r": "0xcc2fc8e83f920a2f3b390f8e0b84c2c5588ea9392a07c1fba3fe3f6d869ace95",
      "s": "0x2780ab22d6b101de8b42234c6aaa1a194c8de00246bef77f64bcf277945e82c5",
      "v": 27,
      "creates": null,
      "raw": "0xf86c01850d566e89758252089432be343b94f860124dc4fee278fdcbd38c102d8888453bc47539a09800801ba0cc2fc8e83f920a2f3b390f8e0b84c2c5588ea9392a07c1fba3fe3f6d869ace95a02780ab22d6b101de8b42234c6aaa1a194c8de00246bef77f64bcf277945e82c5",
      "networkId": 0,
      "chainId": 0
    }
  ]
}