{
  "hash": "0xf9f75fa9a66def98fc63c23bb5ce43e7a5aca34a32382d7803f45f48f18e8e1c",
  "parentHash": "0x7604c654da906b88b2fd18ab91069b918ea1c547de94cc2aeb3524ceec7eac8c",
  "number": 102996,
  "timestamp": 1439846201,
  "nonce": "0xc20b90ce7ce91b45",
  "difficulty": 4140330569681,
  "gasLimit": {
    "_hex": "0x2fefd8"
  },
  "gasUsed": {
    "_hex": "0x5208"
  },
  "miner": "0x77EC9ad4A7E9418774C29415CAaF4Ee0da96eF64",
  "extraData": "0x",
  "transactions": [
    {
      "hash": "0x352fcff8c4c8b834ada52071cbcf88598db2419295b4f777b7c59507be62597e",
      "blockHash": "0xf9f75fa9a66def98fc63c23bb5ce43e7a5aca34a32382d7803f45f48f18e8e1c",
      "blockNumber": 102996,
      "transactionIndex": 0,
      "confirmations": null,
      "from": "0x79d5794171E11dd5C2f0e26E1C187319db2FE6f7",
      "gasPrice": {
        "_hex": "0xd0b6dd546"
      },
      "gasLimit": {
        "_hex": "0x5208"
      },
      "to": "0x32Be343B94f860124dC4fEe278FDCBD38C102D88",
      "value": {
        "_hex": "0x455f637160248400"
      },
      "nonce": 39,
      "data": "0x",
      "r": "0x912c24caa5b52989a763eeb20b816ebb300c3ad27a7c24aea6ee680448483d52",
      "s": "0x53139771920994574aac19f77ade99befa2cd884d9b5c1982039333a2f7adf70",
      "v": 27,
      "creates": null,
      "raw": "0xf86c27850d0b6dd5468252089432be343b94f860124dc4fee278fdcbd38c102d8888455f637160248400801ba0912c24caa5b52989a763eeb20b816ebb300c3ad27a7c24aea6ee680448483d52a053139771920994574aac19f77ade99befa2cd884d9b5c1982039333a2f7adf70",
      "networkId": 0,
      "chainId": 0
    }
  ]
}