{
  "hash": "0x61d9cc632196b7ab48a2da9042da5f62ce8bcc69c6d652e04441e6f2be12f502",
  "parentHash": "0xc014e7154902905b83980eb9dfaf5c28f96526bf02b2066417e0b5bd819eac5f",
  "number": 103762,
  "timestamp": 1439858488,
  "nonce": "0xe6a00c0f37cc37fa",
  "difficulty": 4229859150598,
  "gasLimit": {
    "_hex": "0x2fefd8"
  },
  "gasUsed": {
    "_hex": "0x5208"
  },
  "miner": "0x756C55cbfa47fd23c0260F958e65866E64c096CB",
  "extraData": "0x476574682f76312e302e312f6c696e75782f676f312e342e32",
  "transactions": [
    {
      "hash": "0x784d8432810748f897dd508ec1c7d742db1a841efe48bc528c20dcc524847284",
      "blockHash": "0x61d9cc632196b7ab48a2da9042da5f62ce8bcc69c6d652e04441e6f2be12f502",
      "blockNumber": 103762,
      "transactionIndex": 0,
      "confirmations": null,
      "from": "0x32Be343B94f860124dC4fEe278FDCBD38C102D88",
      "gasPrice": {
        "_hex": "0xcd9c3aaa7"
      },
      "gasLimit": {
        "_hex": "0x5208"
      },
      "to": "0xB51103A98E0d024f17eB73eF6A1d20Fb77460158",
      "value": {
        "_hex": "0x8aa39c121a270000"
      },
      "nonce": 1135,
      "data": "0x",
      "r": "0x603b7331efc2ad793790bfc13c2c7acf96493905d0dd9ca2cd5cd81ba8d3a469",
      "s": "0x1407167d4b1d9022ea80758f28e4f583804963a5280f8f88b907fa48ff2eaf19",
      "v": 27,
      "creates": null,
      "raw": "0xf86e82046f850cd9c3aaa782520894b51103a98e0d024f17eb73ef6a1d20fb77460158888aa39c121a270000801ba0603b7331efc2ad793790bfc13c2c7acf96493905d0dd9ca2cd5cd81ba8d3a469a01407167d4b1d9022ea80758f28e4f583804963a5280f8f88b907fa48ff2eaf19",
      "networkId": 0,
      "chainId": 0
    }
  ]
}