{
  "hash": "0xab34a168759e487c74b27cdb9831e2f1ba2139447d008a20eb0cbf7efd9f714a",
  "parentHash": "0x9faf9e0f1fcede0a83266e25054c046dd3d49547a299832349b8d0fe85183290",
  "number": 92751,
  "timestamp": 1439676566,
  "nonce": "0x35d1737f16666ed9",
  "difficulty": 3610381072494,
  "gasLimit": {
    "_hex": "0x2fefd8"
  },
  "gasUsed": {
    "_hex": "0x5208"
  },
  "miner": "0xe6A7a1d47ff21B6321162AEA7C6CB457D5476Bca",
  "extraData": "0x476574682f76312e302e312d38326566323666362f6c696e75782f676f312e34",
  "transactions": [
    {
      "hash": "0xf1331493af8088f920ee585a16895991e13f46894c6265fcf7c816f81b057ca7",
      "blockHash": "0xab34a168759e487c74b27cdb9831e2f1ba2139447d008a20eb0cbf7efd9f714a",
      "blockNumber": 92751,
      "transactionIndex": 0,
      "confirmations": null,
      "from": "0x52191276589069F70F0E46bcCc718d793d1Aa1D0",
      "gasPrice": {
        "_hex": "0xcf73acd09"
      },
      "gasLimit": {
        "_hex": "0x5208"
      },
      "to": "0x32Be343B94f860124dC4fEe278FDCBD38C102D88",
      "value": {
        "_hex": "0xb15f95dc1649400"
      },
      "nonce": 6,
      "data": "0x",
      "r": "0x7a1e16ff228f722170c7e3575dd648d3cfb0efa7febcd8651bdfe3a6ede66b3f",
      "s": "0x635adee8381e2b67de380bb082356d3cb4de0849af05dc799a4918eec97eb59c",
      "v": 27,
      "creates": null,
      "raw": "0xf86c06850cf73acd098252089432be343b94f860124dc4fee278fdcbd38c102d88880b15f95dc1649400801ba07a1e16ff228f722170c7e3575dd648d3cfb0efa7febcd8651bdfe3a6ede66b3fa0635adee8381e2b67de380bb082356d3cb4de0849af05dc799a4918eec97eb59c",
      "networkId": 0,
      "chainId": 0
    }
  ]
}