{
  "hash": "0xece9f18b92db0860638b44f0e313ca2ac51e1f18e3c09cea67192c509f6526f3",
  "parentHash": "0x2b60b736a0241b4442ce8cd33a99a7a2bb7bc4b1e6b5e2d5258a5a848d6a0ef3",
  "number": 75410,
  "timestamp": 1439402844,
  "nonce": "0x495239cba32a9d83",
  "difficulty": 2204002504479,
  "gasLimit": {
    "_hex": "0x2fefd8"
  },
  "gasUsed": {
    "_hex": "0x70d3"
  },
  "miner": "0x7E6930B63D03e88F5928C5cd6ee3FCee4D714F7F",
  "extraData": "0x",
  "transactions": [
    {
      "hash": "0x44b100f3792567dfe9db07be80bbc55b7fb08e2e4f60b68ebfdcbf920425f008",
      "blockHash": "0xece9f18b92db0860638b44f0e313ca2ac51e1f18e3c09cea67192c509f6526f3",
      "blockNumber": 75410,
      "transactionIndex": 0,
      "confirmations": null,
      "from": "0x9724Ac4dc56e03379eBA5d157D1513EcC32cBD8f",
      "gasPrice": {
        "_hex": "0xd4d0f7da8"
      },
      "gasLimit": {
        "_hex": "0x493e0"
      },
      "to": "0xD79B4C6791784184e2755B2fC1659eaaB0f80456",
      "value": {
        "_hex": "0x0"
      },
      "nonce": 6,
      "data": "0xbd66528a73302e3332343137333936333036313338383300000000000000000000000000",
      "r": "0xcb57b3a7ef256aaa9cd9e6d7a1c7f505a5be25f9dc830e8902207f2fde3e14b3",
      "s": "0x110d489a3d76511359690096a827381250367711ea9301f00947e5e83e392717",
      "v": 27,
      "creates": null,
      "raw": "0xf88906850d4d0f7da8830493e094d79b4c6791784184e2755b2fc1659eaab0f8045680a4bd66528a73302e33323431373339363330363133383833000000000000000000000000001ba0cb57b3a7ef256aaa9cd9e6d7a1c7f505a5be25f9dc830e8902207f2fde3e14b3a0110d489a3d76511359690096a827381250367711ea9301f00947e5e83e392717",
      "networkId": 0,
      "chainId": 0
    }
  ]
}