{
  "hash": "0x7afcddbbe769cc487266b3247641a64937c424f1f445f9fd20817a9171a3d9f7",
  "parentHash": "0x3e561484f5a53d5b2e1e949cd31f2ed3324ff857f07f5e04b4ce14b77f105eb7",
  "number": 122281,
  "timestamp": 1440191545,
  "nonce": "0xafc70bb67de3ba0b",
  "difficulty": 4446899694816,
  "gasLimit": {
    "_hex": "0x2fefd8"
  },
  "gasUsed": {
    "_hex": "0x5208"
  },
  "miner": "0x457C428117c1b8507111392d50876A9D548a6D36",
  "extraData": "0x476574682f76312e302e322f6c696e75782f676f312e342e32",
  "transactions": [
    {
      "hash": "0xa6c75d6d9641514cfd74f38a310119c04cbc5a2cd782f76599008cfdb7e34966",
      "blockHash": "0x7afcddbbe769cc487266b3247641a64937c424f1f445f9fd20817a9171a3d9f7",
      "blockNumber": 122281,
      "transactionIndex": 0,
      "confirmations": null,
      "from": "0x2910543Af39abA0Cd09dBb2D50200b3E800A63D2",
      "gasPrice": {
        "_hex": "0xcf60c2712"
      },
      "gasLimit": {
        "_hex": "0x5208"
      },
      "to": "0x0cA19A53a3256482A89770FC1daFC7630717F201",
      "value": {
        "_hex": "0xcbd35f37170eb8000"
      },
      "nonce": 1225,
      "data": "0x",
      "r": "0xeb717bf88917b5d8b16aed8347c6569c759949aa53f972ddb2aea2bf8f80c905",
      "s": "0x16616c1e667b52cb6e7940a2a15b6cd99557685e80ac6c781f8e74e35848e116",
      "v": 28,
      "creates": null,
      "raw": "0xf86f8204c9850cf60c2712825208940ca19a53a3256482a89770fc1dafc7630717f201890cbd35f37170eb8000801ca0eb717bf88917b5d8b16aed8347c6569c759949aa53f972ddb2aea2bf8f80c905a016616c1e667b52cb6e7940a2a15b6cd99557685e80ac6c781f8e74e35848e116",
      "networkId": 0,
      "chainId": 0
    }
  ]
}