{
  "hash": "0xa1eaf90fb6b1990c5897f0dc2af9e5f2a9e670704738548891e7c91a9aad8299",
  "parentHash": "0xcbe5c19574b20ae8204aa161ce3212047ab5f35ac1fc8026a41e6c4a6df9b02f",
  "number": 110833,
  "timestamp": 1439980242,
  "nonce": "0x0630fd5048bff2e1",
  "difficulty": 4401093851994,
  "gasLimit": {
    "_hex": "0x2fefd8"
  },
  "gasUsed": {
    "_hex": "0xa410"
  },
  "miner": "0x27A2f708f13CFE24f8e5d6E8b7D8E971D2449Ba0",
  "extraData": "0xd983010001844765746887676f312e342e328777696e646f7773",
  "transactions": [
    {
      "hash": "0x32ad2e1572597f642665dca00fb663e96a71f89d5075f353422173f871d111f7",
      "blockHash": "0xa1eaf90fb6b1990c5897f0dc2af9e5f2a9e670704738548891e7c91a9aad8299",
      "blockNumber": 110833,
      "transactionIndex": 0,
      "confirmations": null,
      "from": "0x2910543Af39abA0Cd09dBb2D50200b3E800A63D2",
      "gasPrice": {
        "_hex": "0xdd5abb392"
      },
      "gasLimit": {
        "_hex": "0x5208"
      },
      "to": "0xC5421FF9a6C1dfE6fE5BE19FA1322E70b77c8cb1",
      "value": {
        "_hex": "0x2065cc24269a37000"
      },
      "nonce": 1091,
      "data": "0x",
      "r": "0x737379da542b3641f653c05a1b6efdbfa48b9c6aab399100de35368a3c8e7dd9",
      "s": "0x6e857fc38801cb588c022935e478548563a57acdbce3e863cf35e488ca1628d2",
      "v": 27,
      "creates": null,
      "raw": "0xf86f820443850dd5abb39282520894c5421ff9a6c1dfe6fe5be19fa1322e70b77c8cb18902065cc24269a37000801ba0737379da542b3641f653c05a1b6efdbfa48b9c6aab399100de35368a3c8e7dd9a06e857fc38801cb588c022935e478548563a57acdbce3e863cf35e488ca1628d2",
      "networkId": 0,
      "chainId": 0
    },
    {
      "hash": "0xb27092f8c63f1b139fced921a9b5b1a9a65e9777f49a793a57371fb9aa08ee08",
      "blockHash": "0xa1eaf90fb6b1990c5897f0dc2af9e5f2a9e670704738548891e7c91a9aad8299",
      "blockNumber": 110833,
      "transactionIndex": 1,
      "confirmations": null,
      "from": "0xa70a9a7040d542C632D8e0bE7c5513A8a5Bbc752",
      "gasPrice": {
        "_hex": "0xd6f54477b"
      },
      "gasLimit": {
        "_hex": "0x5208"
      },
      "to": "0x32Be343B94f860124dC4fEe278FDCBD38C102D88",
      "value": {
        "_hex": "0x455f389fb5777400"
      },
      "nonce": 288,
      "data": "0x",
      "r": "0xf0a5e3aa93bd8176577258c2f9a668ef9d5cdb11a008c7745c295c94fdffbc23",
      "s": "0x74d6642c2231fce265b1657a3136b70f079fc5d22fa40756be7adf09fcfaf0d6",
      "v": 28,
      "creates": null,
      "raw": "0xf86e820120850d6f54477b8252089432be343b94f860124dc4fee278fdcbd38c102d8888455f389fb5777400801ca0f0a5e3aa93bd8176577258c2f9a668ef9d5cdb11a008c7745c295c94fdffbc23a074d6642c2231fce265b1657a3136b70f079fc5d22fa40756be7adf09fcfaf0d6",
      "networkId": 0,
      "chainId": 0
    }
  ]
}