{
  "hash": "0x931b71dbcff7f7282d9d709e5d88c67b983881e75b375730ce8e464c5d8bc6cf",
  "parentHash": "0x0609b77ba87181b91520a565847528888a790ebd4ce4af8c49f6ffcbec6bb5dc",
  "number": 99850,
  "timestamp": 1439796592,
  "nonce": "0x1b0fa4827fe4da36",
  "difficulty": 3834358789616,
  "gasLimit": {
    "_hex": "0x2fefd8"
  },
  "gasUsed": {
    "_hex": "0xa410"
  },
  "miner": "0xC603Ab5ef41fC61AA8b76bEddb09e3Cfcbb174BD",
  "extraData": "0x476574682f76312e302e312f77696e646f77732f676f312e342e32",
  "transactions": [
    {
      "hash": "0xcf2c4a834c2ca2e95d856a133c3bafdd504e7aeb36f63405d4d6b2f188a6a92b",
      "blockHash": "0x931b71dbcff7f7282d9d709e5d88c67b983881e75b375730ce8e464c5d8bc6cf",
      "blockNumber": 99850,
      "transactionIndex": 0,
      "confirmations": null,
      "from": "0xD9666150A9dA92d9108198a4072970805a8B3428",
      "gasPrice": {
        "_hex": "0xd53bae3fc"
      },
      "gasLimit": {
        "_hex": "0x5208"
      },
      "to": "0x32Be343B94f860124dC4fEe278FDCBD38C102D88",
      "value": {
        "_hex": "0x455f4c44d9cb3400"
      },
      "nonce": 39,
      "data": "0x",
      "r": "0xc8ba5c7c85ebaf0ce41c77816a23dcde700d428fc70d652cd36cff44c0571f73",
      "s": "0x448617168d1a0ab51689f655b4e8383116c83cdea56f8f2dc28fb6583b431de1",
      "v": 28,
      "creates": null,
      "raw": "0xf86c27850d53bae3fc8252089432be343b94f860124dc4fee278fdcbd38c102d8888455f4c44d9cb3400801ca0c8ba5c7c85ebaf0ce41c77816a23dcde700d428fc70d652cd36cff44c0571f73a0448617168d1a0ab51689f655b4e8383116c83cdea56f8f2dc28fb6583b431de1",
      "networkId": 0,
      "chainId": 0
    },
    {
      "hash": "0x7f6c29d359fde3134fb284605072f758d5f22a66ffcf49afef3dbeb0b3c69676",
      "blockHash": "0x931b71dbcff7f7282d9d709e5d88c67b983881e75b375730ce8e464c5d8bc6cf",
      "blockNumber": 99850,
      "transactionIndex": 1,
      "confirmations": null,
      "from": "0xa70a9a7040d542C632D8e0bE7c5513A8a5Bbc752",
      "gasPrice": {
        "_hex": "0xd53bae3fc"
      },
      "gasLimit": {
        "_hex": "0x5208"
      },
      "to": "0x32Be343B94f860124dC4fEe278FDCBD38C102D88",
      "value": {
        "_hex": "0x455f4c44d9cb3400"
      },
      "nonce": 201,
      "data": "0x",
      "r": "0xa4435b43eb31a6b1a6544d50fe7a5c97d916645e903fafce0fd93a80d4155e95",
      "s": "0x6ea1b5964148d354ad6475376464db27c17d37bc3efd67f0d5f710c4d6d53e6f",
      "v": 27,
      "creates": null,
      "raw": "0xf86d81c9850d53bae3fc8252089432be343b94f860124dc4fee278fdcbd38c102d8888455f4c44d9cb3400801ba0a4435b43eb31a6b1a6544d50fe7a5c97d916645e903fafce0fd93a80d4155e95a06ea1b5964148d354ad6475376464db27c17d37bc3efd67f0d5f710c4d6d53e6f",
      "networkId": 0,
      "chainId": 0
    }
  ]
}