{
  "hash": "0x576b7be4a1c98ce7c018d5047a1c2a9b77ea3e10311ffdc04412caad724a1292",
  "parentHash": "0x10f2c83f8fcea454806058f3adaf4ad9214fbf54245de7be7e7b6239f142a20e",
  "number": 73853,
  "timestamp": 1439376171,
  "nonce": "0xed5b580527d7adc7",
  "difficulty": 2222786120866,
  "gasLimit": {
    "_hex": "0x2fefd8"
  },
  "gasUsed": {
    "_hex": "0xa6d0"
  },
  "miner": "0x937a4C6CFA806b2FA9796F482CDA67dB579dE173",
  "extraData": "0x476574682f76312e302e312d37666266393930632f6c696e75782f676f312e34",
  "transactions": [
    {
      "hash": "0x689f33f7134f3fb52d93a927d295b5542a56ab82374e06bfd6fec425cd890254",
      "blockHash": "0x576b7be4a1c98ce7c018d5047a1c2a9b77ea3e10311ffdc04412caad724a1292",
      "blockNumber": 73853,
      "transactionIndex": 0,
      "confirmations": null,
      "from": "0x4BD5f0Ee173C81d42765154865EE69361b6aD189",
      "gasPrice": {
        "_hex": "0x746a528800"
      },
      "gasLimit": {
        "_hex": "0x5dc4"
      },
      "to": "0x2910543Af39abA0Cd09dBb2D50200b3E800A63D2",
      "value": {
        "_hex": "0x8ac7230489e80000"
      },
      "nonce": 18,
      "data": "0x0000000000000000000000000000000000000000000000454e465631595a3552",
      "r": "0xc9c89f6f68a952112222eb32ed45028aff1acc3629b09a0afebdb905c48d869c",
      "s": "0xf2e95b28ceec638ca6ff90199b611ca602e8c0f1555ab11ea6a3a1503b1837a7",
      "v": 27,
      "creates": null,
      "raw": "0xf88c1285746a528800825dc4942910543af39aba0cd09dbb2d50200b3e800a63d2888ac7230489e80000a00000000000000000000000000000000000000000000000454e465631595a35521ba0c9c89f6f68a952112222eb32ed45028aff1acc3629b09a0afebdb905c48d869ca0f2e95b28ceec638ca6ff90199b611ca602e8c0f1555ab11ea6a3a1503b1837a7",
      "networkId": 0,
      "chainId": 0
    },
    {
      "hash": "0xa10666615cba78eb047767fbb723085ffa4907dbd15304c20d6fe7ea842786b1",
      "blockHash": "0x576b7be4a1c98ce7c018d5047a1c2a9b77ea3e10311ffdc04412caad724a1292",
      "blockNumber": 73853,
      "transactionIndex": 1,
      "confirmations": null,
      "from": "0xECe1152682b7598FE2d1E21eC15533885435Ac85",
      "gasPrice": {
        "_hex": "0xdb3133bdf"
      },
      "gasLimit": {
        "_hex": "0x15f90"
      },
      "to": "0xe3A29c590ae7Bf0D32A7121373bf5C94ADbeCa4a",
      "value": {
        "_hex": "0x8e1bc9bf040000"
      },
      "nonce": 3,
      "data": "0x",
      "r": "0x604f18c9f75d20548d7b1812026c8340e98abbb93dfc073f5249ac97a0496730",
      "s": "0x1a303dde3fdb047ceb542a632e5427230be69b1231f8a506daca432400426e51",
      "v": 27,
      "creates": null,
      "raw": "0xf86c03850db3133bdf83015f9094e3a29c590ae7bf0d32a7121373bf5c94adbeca4a878e1bc9bf040000801ba0604f18c9f75d20548d7b1812026c8340e98abbb93dfc073f5249ac97a0496730a01a303dde3fdb047ceb542a632e5427230be69b1231f8a506daca432400426e51",
      "networkId": 0,
      "chainId": 0
    }
  ]
}