{
  "hash": "0x9f2590b9e60213d49b8f96e72dbce3478ffedac6b1d2e36a8277ef2a10584f2c",
  "parentHash": "0x781a9037b91cc38d7a0dc613bee7c59b3e60a2e5ab80dfcbd723331326298c3f",
  "number": 51858,
  "timestamp": 1439012148,
  "nonce": "0x73eb60525d0a091f",
  "difficulty": 1559631858233,
  "gasLimit": {
    "_hex": "0xe75a4"
  },
  "gasUsed": {
    "_hex": "0x7a120"
  },
  "miner": "0xf8E0CA3Ed80bd541b94BEdCf259e8CF2141A9523",
  "extraData": "0x476574682f76312e302e312f77696e646f77732f676f312e342e32",
  "transactions": [
    {
      "hash": "0x13e5facf065dd2ad7e336803653add0b5b15df7c8a18d3cfa476f248a4bee1f4",
      "blockHash": "0x9f2590b9e60213d49b8f96e72dbce3478ffedac6b1d2e36a8277ef2a10584f2c",
      "blockNumber": 51858,
      "transactionIndex": 0,
      "confirmations": null,
      "from": "0xCbF478675787C70C5696b1335EBCdaBF401298F9",
      "gasPrice": {
        "_hex": "0xd70f66086"
      },
      "gasLimit": {
        "_hex": "0x7a120"
      },
      "to": "0xBAA54d6E90c3F4d7Ebec11bD180134C7eD8eBb52",
      "value": {
        "_hex": "0x16345785d8a0000"
      },
      "nonce": 0,
      "data": "0x",
      "r": "0xcfa67bd014fdb9f70632665a935a6f58b51845378e6a61b288e5cdd34de4c090",
      "s": "0x0570048d2d68ddbcecd69be25cfcbdf84a8b936ea78212c041bb982e664ec1c9",
      "v": 28,
      "creates": null,
      "raw": "0xf86d80850d70f660868307a12094baa54d6e90c3f4d7ebec11bd180134c7ed8ebb5288016345785d8a0000801ca0cfa67bd014fdb9f70632665a935a6f58b51845378e6a61b288e5cdd34de4c090a00570048d2d68ddbcecd69be25cfcbdf84a8b936ea78212c041bb982e664ec1c9",
      "networkId": 0,
      "chainId": 0
    }
  ]
}