{
  "hash": "0x36dba93d769b557ed80e6e8fbd878409f6f425c510a2fe660a2b325d576a7420",
  "parentHash": "0x290990f20aa541b232c6776e4649679d3d3e71217a6996dc6e458472fd9e6f56",
  "number": 87186,
  "timestamp": 1439588442,
  "nonce": "0x424ebb6c75859e15",
  "difficulty": 3067621467734,
  "gasLimit": {
    "_hex": "0x2fefd8"
  },
  "gasUsed": {
    "_hex": "0x5208"
  },
  "miner": "0x47ff6576639c2e94762eA5443978D7681C0E78DC",
  "extraData": "0x476574682f76312e302e312f6c696e75782f676f312e342e32",
  "transactions": [
    {
      "hash": "0xedcca7d4cce55c679083ae6f53bb38c8266afb0a36046de6ee34465fb19d7f31",
      "blockHash": "0x36dba93d769b557ed80e6e8fbd878409f6f425c510a2fe660a2b325d576a7420",
      "blockNumber": 87186,
      "transactionIndex": 0,
      "confirmations": null,
      "from": "0xC47Aaa860008be6f65B58c6C6E02a84e666EfE31",
      "gasPrice": {
        "_hex": "0xdfc0e954b"
      },
      "gasLimit": {
        "_hex": "0x15f90"
      },
      "to": "0xa10F76A0856Df6C76321377105657AD3eB5c830b",
      "value": {
        "_hex": "0x1741010a4657df93"
      },
      "nonce": 21,
      "data": "0x",
      "r": "0x663dae9203d9011cf944447f8de47fdcbf512c59fd24f0cdc9ddc55faa9c5ac8",
      "s": "0x7790be46b036bc9e31257dd0659bada1c78566e2b7166a54ca10c45cc457499d",
      "v": 27,
      "creates": null,
      "raw": "0xf86d15850dfc0e954b83015f9094a10f76a0856df6c76321377105657ad3eb5c830b881741010a4657df93801ba0663dae9203d9011cf944447f8de47fdcbf512c59fd24f0cdc9ddc55faa9c5ac8a07790be46b036bc9e31257dd0659bada1c78566e2b7166a54ca10c45cc457499d",
      "networkId": 0,
      "chainId": 0
    }
  ]
}