{
  "hash": "0x3f75d27d17e3fbd8b4783f7ba04c70eaa3486b5850bf3c2526687977b3171dca",
  "parentHash": "0xbb1397f5302113ff584eb67c95b649f6a78ca75b89e04c82d1e8b9f1b2a74b50",
  "number": 65271,
  "timestamp": 1439234146,
  "nonce": "0xd9b739439a059973",
  "difficulty": 1942629124530,
  "gasLimit": {
    "_hex": "0x2fefd8"
  },
  "gasUsed": {
    "_hex": "0x17cd8"
  },
  "miner": "0x52Dc504a422f0E2A9e7632A34a50f1a82F8224c7",
  "extraData": "0x476574682f76312e302e312f6c696e75782f676f312e342e32",
  "transactions": [
    {
      "hash": "0x6910aad0a939a56844efbadf5c33d3c5e024fb9380b4e2fa97c76ca7db804173",
      "blockHash": "0x3f75d27d17e3fbd8b4783f7ba04c70eaa3486b5850bf3c2526687977b3171dca",
      "blockNumber": 65271,
      "transactionIndex": 0,
      "confirmations": null,
      "from": "0x29a6d3eAfFa242500973464AAac432700660B5BE",
      "gasPrice": {
        "_hex": "0xba43b7400"
      },
      "gasLimit": {
        "_hex": "0x15f90"
      },
      "to": "0x793AE8C1b1a160BFc07BFB0d04F85eab1A71F4f2",
      "value": {
        "_hex": "0x0"
      },
      "nonce": 0,
      "data": "0x3ba15036",
      "r": "0x6dfe0f80249c15eeaab26e48877433cf1997e0ac7e15a68e28eb761bcb712470",
      "s": "0x2b553314331a154ac79412044ec20076bf70594b1a49e61354d61629bdaf1848",
      "v": 27,
      "creates": null,
      "raw": "0xf86980850ba43b740083015f9094793ae8c1b1a160bfc07bfb0d04f85eab1a71f4f280843ba150361ba06dfe0f80249c15eeaab26e48877433cf1997e0ac7e15a68e28eb761bcb712470a02b553314331a154ac79412044ec20076bf70594b1a49e61354d61629bdaf1848",
      "networkId": 0,
      "chainId": 0
    },
    {
      "hash": "0xd8049413837b1289f6ef64e274355316aef6c0180c202c7975afa0f6db9e2fc2",
      "blockHash": "0x3f75d27d17e3fbd8b4783f7ba04c70eaa3486b5850bf3c2526687977b3171dca",
      "blockNumber": 65271,
      "transactionIndex": 1,
      "confirmations": null,
      "from": "0x1b4df3d15Ec87e4ec625Fc638A6d104924552584",
      "gasPrice": {
        "_hex": "0xba43b7400"
      },
      "gasLimit": {
        "_hex": "0x15f90"
      },
      "to": "0x793AE8C1b1a160BFc07BFB0d04F85eab1A71F4f2",
      "value": {
        "_hex": "0x0"
      },
      "nonce": 0,
      "data": "0x3ba15036",
      "r": "0x99e7f3b909a63ed94f04b450281c3f62819009103f5b654f2c2b8a426dc05a54",
      "s": "0x7d5999a0a2dd445980eefb30f8b8ac35d4405241cc4067de35f804a4ddb1f9fb",
      "v": 27,
      "creates": null,
      "raw": "0xf86980850ba43b740083015f9094793ae8c1b1a160bfc07bfb0d04f85eab1a71f4f280843ba150361ba099e7f3b909a63ed94f04b450281c3f62819009103f5b654f2c2b8a426dc05a54a07d5999a0a2dd445980eefb30f8b8ac35d4405241cc4067de35f804a4ddb1f9fb",
      "networkId": 0,
      "chainId": 0
    }
  ]
}