{
  "hash": "0xcac14311cdda1f42851cd3f4e59874d490fca0539b7888dfa0a8b43dfce9737c",
  "parentHash": "0xd92468aa807fb23d2a3610802616952a19ede8be25411b454ba72aaa8f829653",
  "number": 61503,
  "timestamp": 1439173383,
  "nonce": "0x323ec66f59de9e12",
  "difficulty": 1740443357409,
  "gasLimit": {
    "_hex": "0x2fefd8"
  },
  "gasUsed": {
    "_hex": "0x5208"
  },
  "miner": "0x39A1BB80a741bF5EC39FB9BE59408Fa0F418fFBf",
  "extraData": "0x476574682f76312e302e312f77696e646f77732f676f312e342e32",
  "transactions": [
    {
      "hash": "0xd12f6ac53358c49ba02a18baf284eaf8918d75ff2a70df755f6debf40db25c1c",
      "blockHash": "0xcac14311cdda1f42851cd3f4e59874d490fca0539b7888dfa0a8b43dfce9737c",
      "blockNumber": 61503,
      "transactionIndex": 0,
      "confirmations": null,
      "from": "0x1308A2e95c0160B90803ddCA9B9a5bb55E416d79",
      "gasPrice": {
        "_hex": "0xe8d4a51000"
      },
      "gasLimit": {
        "_hex": "0x15f90"
      },
      "to": "0x025c3B43d57E72D2150E14B2B0c6D923FbFC0474",
      "value": {
        "_hex": "0x3635c9adc5dea00000"
      },
      "nonce": 81,
      "data": "0x",
      "r": "0x1270068d8fc64b839ca42193c47c3023ed863441e20aedc21dd6a3fcbbfd3f7c",
      "s": "0x140f7fd2ba41d2b2b607e468e8d7febc87413e40925024344d4665b572be6be5",
      "v": 28,
      "creates": null,
      "raw": "0xf86e5185e8d4a5100083015f9094025c3b43d57e72d2150e14b2b0c6d923fbfc0474893635c9adc5dea00000801ca01270068d8fc64b839ca42193c47c3023ed863441e20aedc21dd6a3fcbbfd3f7ca0140f7fd2ba41d2b2b607e468e8d7febc87413e40925024344d4665b572be6be5",
      "networkId": 0,
      "chainId": 0
    }
  ]
}