{
  "hash": "0x06bec8a0f9059082f1b8d32b7a915e6a1e274f82f3f669acb40a140caf8c93a6",
  "parentHash": "0x5c2fe5834e6e209186b0bacf409317051f02c3772b1d4fffc9edc58940c33840",
  "number": 75997,
  "timestamp": 1439413156,
  "nonce": "0x0e15a0f575fac675",
  "difficulty": 2235277114857,
  "gasLimit": {
    "_hex": "0x2fefd8"
  },
  "gasUsed": {
    "_hex": "0x290fd"
  },
  "miner": "0x70137010922f2fC2964b3792907F79FBB75fEbe8",
  "extraData": "0x476574682f76312e302e302f6c696e75782f676f312e342e32",
  "transactions": [
    {
      "hash": "0x2e0965dd1c6a3e2d357c6ae18ab5b365ce9092e1ce26c1ca5bd74f64f29bd67c",
      "blockHash": "0x06bec8a0f9059082f1b8d32b7a915e6a1e274f82f3f669acb40a140caf8c93a6",
      "blockNumber": 75997,
      "transactionIndex": 0,
      "confirmations": null,
      "from": "0x0e320219838E859b2F9f18B72e3d4073cA50B37D",
      "gasPrice": {
        "_hex": "0xcb0112c4b"
      },
      "gasLimit": {
        "_hex": "0x2dc6c0"
      },
      "to": "0x35E57F2b08596f1946ECD9D31975eC3c2D7e1C1D",
      "value": {
        "_hex": "0x16345785d8a0000"
      },
      "nonce": 4,
      "data": "0xe2543d1c0000000000000000000000000000000000000000000000000000000000000014",
      "r": "0x7217cefdc1d6119ec85ca790fc3a451533c562829b9c69e6e2609819d3d3de95",
      "s": "0x4eb4b38e37716ac071e7b8d13370e448a199a40ae7edbaca1a9433828747d7a2",
      "v": 27,
      "creates": null,
      "raw": "0xf89104850cb0112c4b832dc6c09435e57f2b08596f1946ecd9d31975ec3c2d7e1c1d88016345785d8a0000a4e2543d1c00000000000000000000000000000000000000000000000000000000000000141ba07217cefdc1d6119ec85ca790fc3a451533c562829b9c69e6e2609819d3d3de95a04eb4b38e37716ac071e7b8d13370e448a199a40ae7edbaca1a9433828747d7a2",
      "networkId": 0,
      "chainId": 0
    }
  ]
}