{
  "hash": "0x7fc3bcac73ba9e1746c5c01fec01b083b845765d4f9eebcf7a2732939aa83e40",
  "parentHash": "0xe7b356bc032d8be56c38725a5e0837c86859220f85372952472fd89bc30f18ec",
  "number": 121384,
  "timestamp": 1440176373,
  "nonce": "0xd8a613c956d646f3",
  "difficulty": 4384843472002,
  "gasLimit": {
    "_hex": "0x2fefd8"
  },
  "gasUsed": {
    "_hex": "0x5208"
  },
  "miner": "0xe6A7a1d47ff21B6321162AEA7C6CB457D5476Bca",
  "extraData": "0xd783010002844765746887676f312e342e32856c696e7578",
  "transactions": [
    {
      "hash": "0x5733114883c30d4ed864d1f3e029dd02679107a5f52d534dc1e0a8f18b9b77a3",
      "blockHash": "0x7fc3bcac73ba9e1746c5c01fec01b083b845765d4f9eebcf7a2732939aa83e40",
      "blockNumber": 121384,
      "transactionIndex": 0,
      "confirmations": null,
      "from": "0x120A270bbC009644e35F0bB6ab13f95b8199c4ad",
      "gasPrice": {
        "_hex": "0xc0f283b9d"
      },
      "gasLimit": {
        "_hex": "0x3d090"
      },
      "to": "0x44Cb7068a28bc4B195e658ae160CC64289BC4012",
      "value": {
        "_hex": "0xd04f888c7b9f7800"
      },
      "nonce": 973,
      "data": "0x",
      "r": "0x10554f2c539d92b912860acd55d6feaa730b43d0cf7af5f363071c27ca5b8b75",
      "s": "0x400cc9cccd5be300b67b944fc3c984571070e8351bc4f68cfa76a77790553ec6",
      "v": 27,
      "creates": null,
      "raw": "0xf86f8203cd850c0f283b9d8303d0909444cb7068a28bc4b195e658ae160cc64289bc401288d04f888c7b9f7800801ba010554f2c539d92b912860acd55d6feaa730b43d0cf7af5f363071c27ca5b8b75a0400cc9cccd5be300b67b944fc3c984571070e8351bc4f68cfa76a77790553ec6",
      "networkId": 0,
      "chainId": 0
    }
  ]
}