{
  "hash": "0xb7f8245c6b37afa76fe63bd29d0c5ecf50a33096f569f1c06e957a6c8531e0eb",
  "parentHash": "0x25fb14766c886231037bc0f242efdd6d47c312f8dc521d326c1e7a5f1cdb7183",
  "number": 61646,
  "timestamp": 1439175701,
  "nonce": "0x61eb109775b2e91e",
  "difficulty": 1744667936698,
  "gasLimit": {
    "_hex": "0x2fefd8"
  },
  "gasUsed": {
    "_hex": "0x5208"
  },
  "miner": "0xEF247E639d49461D25F57e9362CadE3120910Ce0",
  "extraData": "0x476574682f76312e302e312f6c696e75782f676f312e342e32",
  "transactions": [
    {
      "hash": "0xa8ef33199232b34baaceb69377ea679077b5e65a8f56f8ef2ec66391f3bd0d58",
      "blockHash": "0xb7f8245c6b37afa76fe63bd29d0c5ecf50a33096f569f1c06e957a6c8531e0eb",
      "blockNumber": 61646,
      "transactionIndex": 0,
      "confirmations": null,
      "from": "0x2910543Af39abA0Cd09dBb2D50200b3E800A63D2",
      "gasPrice": {
        "_hex": "0xd8888a98c"
      },
      "gasLimit": {
        "_hex": "0x5208"
      },
      "to": "0xb4Ad43131139584E8f6F31D578E0dC4d11Df6D7b",
      "value": {
        "_hex": "0x2b5e3af16b1880000"
      },
      "nonce": 103,
      "data": "0x",
      "r": "0x62fc0ead3d80a102b4d37499a3bc682df60282d497fc3b8a82a73d9155295c0d",
      "s": "0x76337e89b56dfc624a67828aed8f09f3dfcd88b6737aa97846ab575560153426",
      "v": 27,
      "creates": null,
      "raw": "0xf86d67850d8888a98c82520894b4ad43131139584e8f6f31d578e0dc4d11df6d7b8902b5e3af16b1880000801ba062fc0ead3d80a102b4d37499a3bc682df60282d497fc3b8a82a73d9155295c0da076337e89b56dfc624a67828aed8f09f3dfcd88b6737aa97846ab575560153426",
      "networkId": 0,
      "chainId": 0
    }
  ]
}