{
  "hash": "0x87b4aa2861b014dcfa11d07d82304d4cb10aac1b5be9b254ce7d8ee41a7e1dc3",
  "parentHash": "0xe196cf0c7126018843f94718f774169c1f4b5615ff3c551b211525b4130edb5f",
  "number": 115145,
  "timestamp": 1440052303,
  "nonce": "0x79017cf27446bbcd",
  "difficulty": 4534036136359,
  "gasLimit": {
    "_hex": "0x2fefd8"
  },
  "gasUsed": {
    "_hex": "0x546c"
  },
  "miner": "0x623d2411c3bb3340784155F9a688b0085251aB5c",
  "extraData": "0x",
  "transactions": [
    {
      "hash": "0x78c835ea36e808ccb5dc41a2378c921f927fbecf93c103fe99ba1f581590430a",
      "blockHash": "0x87b4aa2861b014dcfa11d07d82304d4cb10aac1b5be9b254ce7d8ee41a7e1dc3",
      "blockNumber": 115145,
      "transactionIndex": 0,
      "confirmations": null,
      "from": "0x5F1c8A04c90d735B8A152909AeAe636FB0cE1665",
      "gasPrice": {
        "_hex": "0x110c8f7d8de"
      },
      "gasLimit": {
        "_hex": "0xc350"
      },
      "to": "0x2910543Af39abA0Cd09dBb2D50200b3E800A63D2",
      "value": {
        "_hex": "0xd8d726b7177a800000"
      },
      "nonce": 2,
      "data": "0x454e4e5a3137384b38",
      "r": "0x6b07e6859a3fe945e273d0f0d40280aa36c9e4f5968171f8a7d8205dc84deebe",
      "s": "0x8cdb103b0c4f94969cd3ef5c650de369c7402e88de63f041e18a5f0d6beb6d54",
      "v": 28,
      "creates": null,
      "raw": "0xf87702860110c8f7d8de82c350942910543af39aba0cd09dbb2d50200b3e800a63d289d8d726b7177a80000089454e4e5a3137384b381ca06b07e6859a3fe945e273d0f0d40280aa36c9e4f5968171f8a7d8205dc84deebea08cdb103b0c4f94969cd3ef5c650de369c7402e88de63f041e18a5f0d6beb6d54",
      "networkId": 0,
      "chainId": 0
    }
  ]
}