{
  "hash": "0x247efee551128f3e01a1eeec793abe1a7660dc53bc069dcaf2c249052c600223",
  "parentHash": "0xf446421353c621ea2fce82d40abf4d809a5e49a9defb2e64908b3aff2fcdfb11",
  "number": 48201,
  "timestamp": 1438953320,
  "nonce": "0xc93f6bc67a8f44b9",
  "difficulty": 1457925674275,
  "gasLimit": {
    "_hex": "0x13a36"
  },
  "gasUsed": {
    "_hex": "0x546c"
  },
  "miner": "0x3F98e477a361F777DA14611a7e419A75Fd238b6b",
  "extraData": "0x476574682f76312e302e312f6c696e75782f676f312e342e32",
  "transactions": [
    {
      "hash": "0x9ab5a19d5cdd01e415d50e7fb1fbdb1a843ce25a82bdf00e2758557a021c315f",
      "blockHash": "0x247efee551128f3e01a1eeec793abe1a7660dc53bc069dcaf2c249052c600223",
      "blockNumber": 48201,
      "transactionIndex": 0,
      "confirmations": null,
      "from": "0x91DBB6AaAD149585BE47375c5d6de5Ff09191518",
      "gasPrice": {
        "_hex": "0xdf8475800"
      },
      "gasLimit": {
        "_hex": "0xc738"
      },
      "to": "0x2910543Af39abA0Cd09dBb2D50200b3E800A63D2",
      "value": {
        "_hex": "0x56bc75e2d63100000"
      },
      "nonce": 5,
      "data": "0x454e44475843353152",
      "r": "0xb17e5aca54e186bfca8567cebe9b329ad0aace2f9616c0f021eb579d14da00be",
      "s": "0x0b7cba16464df70076be01f60dea9190b1fb8ddd95a9a237f4f321187ef4469e",
      "v": 28,
      "creates": null,
      "raw": "0xf87605850df847580082c738942910543af39aba0cd09dbb2d50200b3e800a63d289056bc75e2d6310000089454e444758433531521ca0b17e5aca54e186bfca8567cebe9b329ad0aace2f9616c0f021eb579d14da00bea00b7cba16464df70076be01f60dea9190b1fb8ddd95a9a237f4f321187ef4469e",
      "networkId": 0,
      "chainId": 0
    }
  ]
}