{
  "hash": "0x5844de75906df40311005c8be25afe56435ef77d381821a3693134f7871d94e8",
  "parentHash": "0x8ce082bef459eb79002fa87c4865205e0881f9235e0408bb6089a5709f7692c7",
  "number": 80414,
  "timestamp": 1439485213,
  "nonce": "0x5191b6f254a51d7f",
  "difficulty": 2398010531690,
  "gasLimit": {
    "_hex": "0x2fefd8"
  },
  "gasUsed": {
    "_hex": "0x1b4ad"
  },
  "miner": "0x19dFA9C93e19858130E213C2B35bD3062F5d0a6D",
  "extraData": "0x476574682f76312e302e312d38326566323666362f6c696e75782f676f312e34",
  "transactions": [
    {
      "hash": "0x3430c30269def6f455fb6d5615cdaa11cb3095d780a9e649b05ac6af1a424106",
      "blockHash": "0x5844de75906df40311005c8be25afe56435ef77d381821a3693134f7871d94e8",
      "blockNumber": 80414,
      "transactionIndex": 0,
      "confirmations": null,
      "from": "0x87C5B5874A18B4306DF8a752a6C8cc3E82daFc19",
      "gasPrice": {
        "_hex": "0x101e548011d"
      },
      "gasLimit": {
        "_hex": "0x493e0"
      },
      "to": "0xC4c51de1AbF5D60DBd329eC0F999Fd8f021ae9fC",
      "value": {
        "_hex": "0x6571c8fffde85e1"
      },
      "nonce": 201,
      "data": "0x8d2161860000000000000000000000000000000000000000000000000000000000000006d3d96ceed0cfca4794c2a5a3d3aeefe69da0a2a669e66a5651f30b64831c3db0",
      "r": "0x82ff2d54fd2e11e8f2cda86db0fb1c767a09e0885741e6c51abe316809bd9f32",
      "s": "0x54ed77d5da1103ec9b944e60dabd93ba889ef5d72f431b2650304b70eeeb52ab",
      "v": 27,
      "creates": null,
      "raw": "0xf8b481c9860101e548011d830493e094c4c51de1abf5d60dbd329ec0f999fd8f021ae9fc8806571c8fffde85e1b8448d2161860000000000000000000000000000000000000000000000000000000000000006d3d96ceed0cfca4794c2a5a3d3aeefe69da0a2a669e66a5651f30b64831c3db01ba082ff2d54fd2e11e8f2cda86db0fb1c767a09e0885741e6c51abe316809bd9f32a054ed77d5da1103ec9b944e60dabd93ba889ef5d72f431b2650304b70eeeb52ab",
      "networkId": 0,
      "chainId": 0
    }
  ]
}