{
  "hash": "0x660cc6448a5c6d528276b8bf6430357ab0a483044c63ead9484336007aff0c54",
  "parentHash": "0x83e7607f9802c8a53c54d06b3eb43ed24f639a7e0782d45f66d29c8f8a4f0b76",
  "number": 110711,
  "timestamp": 1439978142,
  "nonce": "0x50f450fe860f4993",
  "difficulty": 4388282711023,
  "gasLimit": {
    "_hex": "0x2fefd8"
  },
  "gasUsed": {
    "_hex": "0x5208"
  },
  "miner": "0xe6A7a1d47ff21B6321162AEA7C6CB457D5476Bca",
  "extraData": "0x476574682f76312e302e312d38326566323666362f6c696e75782f676f312e34",
  "transactions": [
    {
      "hash": "0xe17fdf271d2dfab67d5167e93378bf31684101b613b605c362ec4b076b31f820",
      "blockHash": "0x660cc6448a5c6d528276b8bf6430357ab0a483044c63ead9484336007aff0c54",
      "blockNumber": 110711,
      "transactionIndex": 0,
      "confirmations": null,
      "from": "0x2910543Af39abA0Cd09dBb2D50200b3E800A63D2",
      "gasPrice": {
        "_hex": "0xd1b21f2b7"
      },
      "gasLimit": {
        "_hex": "0x5208"
      },
      "to": "0xd268fB48FA174088a25a120aFF0fd8eb0C2d4c87",
      "value": {
        "_hex": "0x126c478a0e3ea8600000"
      },
      "nonce": 1090,
      "data": "0x",
      "r": "0xa47a98e063dc963a6999ea93a2ac755bd84c891687b5710125d2f1cba2b5d305",
      "s": "0x39f760fac637772a7fe061fdec48bfa5ac1c5bbb9052d2e54f1783bec2fcf02c",
      "v": 28,
      "creates": null,
      "raw": "0xf870820442850d1b21f2b782520894d268fb48fa174088a25a120aff0fd8eb0c2d4c878a126c478a0e3ea8600000801ca0a47a98e063dc963a6999ea93a2ac755bd84c891687b5710125d2f1cba2b5d305a039f760fac637772a7fe061fdec48bfa5ac1c5bbb9052d2e54f1783bec2fcf02c",
      "networkId": 0,
      "chainId": 0
    }
  ]
}