{
  "hash": "0x30646294f51af0abb900110c7b456f64032ca476b794cc42d254b03597ecf69a",
  "parentHash": "0x71ad05b698e86b5e107d3a27fafdae4f0b10344ccc4436746318f02a9b08dcc5",
  "number": 120605,
  "timestamp": 1440162826,
  "nonce": "0xb9f92ab65d7ab498",
  "difficulty": 4426123468777,
  "gasLimit": {
    "_hex": "0x2fefd8"
  },
  "gasUsed": {
    "_hex": "0x5208"
  },
  "miner": "0x9746c7e1ef2bd21FF3997fa467593a89cb852BD0",
  "extraData": "0x476574682f76312e302e312f77696e646f77732f676f312e342e32",
  "transactions": [
    {
      "hash": "0x36828de55b0f3c82dca5c0240f839f775785b61dbb61eff944d7e31517b379a6",
      "blockHash": "0x30646294f51af0abb900110c7b456f64032ca476b794cc42d254b03597ecf69a",
      "blockNumber": 120605,
      "transactionIndex": 0,
      "confirmations": null,
      "from": "0x632b9149D70178a7333634275E82d5953F27967B",
      "gasPrice": {
        "_hex": "0xba43b7400"
      },
      "gasLimit": {
        "_hex": "0x15f90"
      },
      "to": "0xAf5e1c1F54aaC6dBcD5cfDD067Ef4208279280D1",
      "value": {
        "_hex": "0x56bc75e2d63100000"
      },
      "nonce": 8,
      "data": "0x",
      "r": "0x04e4e0b46b5608506e93240920542d195be3938c73f7f673ffb916cd8dcc4ae1",
      "s": "0x2301ac1830ef8a90f73cd7d7cbeb54853eabd7a5879c0854dff21f5f4d861a88",
      "v": 28,
      "creates": null,
      "raw": "0xf86e08850ba43b740083015f9094af5e1c1f54aac6dbcd5cfdd067ef4208279280d189056bc75e2d63100000801ca004e4e0b46b5608506e93240920542d195be3938c73f7f673ffb916cd8dcc4ae1a02301ac1830ef8a90f73cd7d7cbeb54853eabd7a5879c0854dff21f5f4d861a88",
      "networkId": 0,
      "chainId": 0
    }
  ]
}