{
  "hash": "0x4088cd6113e3217ac9b59111fe12989e10a22b0fe5e1ff027e84a50b2e42a113",
  "parentHash": "0x5a249c4235df6170c4aec5159e39e513cc697b3be3f963ad38204f36a6d7da50",
  "number": 101974,
  "timestamp": 1439830693,
  "nonce": "0xd439f619ab560c47",
  "difficulty": 3935808050272,
  "gasLimit": {
    "_hex": "0x2fefd8"
  },
  "gasUsed": {
    "_hex": "0x5208"
  },
  "miner": "0x785ffdDd5cE55c6DF963f345e68d3F2024E5Acb1",
  "extraData": "0x",
  "transactions": [
    {
      "hash": "0x38efa1b77dd52b7fccbc69b458f921166da55bfee8ebd264d3ccef730ea2ec25",
      "blockHash": "0x4088cd6113e3217ac9b59111fe12989e10a22b0fe5e1ff027e84a50b2e42a113",
      "blockNumber": 101974,
      "transactionIndex": 0,
      "confirmations": null,
      "from": "0x2910543Af39abA0Cd09dBb2D50200b3E800A63D2",
      "gasPrice": {
        "_hex": "0xd2474c9a3"
      },
      "gasLimit": {
        "_hex": "0x5208"
      },
      "to": "0x76c4677D8C435220a8892C901430A01C61a60994",
      "value": {
        "_hex": "0x8ab55f8b52078000"
      },
      "nonce": 979,
      "data": "0x",
      "r": "0xea2342962d4d4382b0d3cdded00f13a9de1df20fbb7234d99e999e1e1a44aff2",
      "s": "0x70b7582acf525a4b8bafe86201e0ec8a2be9dc000cb7e00302865b90724b0022",
      "v": 27,
      "creates": null,
      "raw": "0xf86e8203d3850d2474c9a38252089476c4677d8c435220a8892c901430a01c61a60994888ab55f8b52078000801ba0ea2342962d4d4382b0d3cdded00f13a9de1df20fbb7234d99e999e1e1a44aff2a070b7582acf525a4b8bafe86201e0ec8a2be9dc000cb7e00302865b90724b0022",
      "networkId": 0,
      "chainId": 0
    }
  ]
}