{
  "hash": "0x87d9c05165ce29a3936ff476734115abdddb3b55b01d7c14692344b6dee29d12",
  "parentHash": "0x81c1c0e2694ebd86d40441b351dc4483612b7c5496dbdda84fe31f70eb987613",
  "number": 51290,
  "timestamp": 1439002432,
  "nonce": "0x178e443ea7bfdbd5",
  "difficulty": 1570436261025,
  "gasLimit": {
    "_hex": "0xa1c3f"
  },
  "gasUsed": {
    "_hex": "0x4381c"
  },
  "miner": "0x123843545FB525C8E134c9A5F15ADA6865cc3848",
  "extraData": "0x476574682f76312e302e312f77696e646f77732f676f312e342e32",
  "transactions": [
    {
      "hash": "0x7c026549d238a6419f33c8e155ba9df877da65ff40bb3d94e1e058b5495e071d",
      "blockHash": "0x87d9c05165ce29a3936ff476734115abdddb3b55b01d7c14692344b6dee29d12",
      "blockNumber": 51290,
      "transactionIndex": 0,
      "confirmations": null,
      "from": "0xa748fac76B1d857E2f77484a0F816463e8b56EDc",
      "gasPrice": {
        "_hex": "0x1102cdbdad2"
      },
      "gasLimit": {
        "_hex": "0x7a120"
      },
      "to": "0xBAA54d6E90c3F4d7Ebec11bD180134C7eD8eBb52",
      "value": {
        "_hex": "0x16345785d8a0000"
      },
      "nonce": 1,
      "data": "0x",
      "r": "0x675601f82bff1ea3f1c5da60fdf745458290b9b3461a2906ca298dfd9aa13dd1",
      "s": "0x2a538f0ad4360d6278c258feabfbbc41991706bd56f1dbfabc2532873fc0c382",
      "v": 27,
      "creates": null,
      "raw": "0xf86e018601102cdbdad28307a12094baa54d6e90c3f4d7ebec11bd180134c7ed8ebb5288016345785d8a0000801ba0675601f82bff1ea3f1c5da60fdf745458290b9b3461a2906ca298dfd9aa13dd1a02a538f0ad4360d6278c258feabfbbc41991706bd56f1dbfabc2532873fc0c382",
      "networkId": 0,
      "chainId": 0
    }
  ]
}