{
  "hash": "0xa8312f4a5287a9520d0321fd17bf51e36ed09f8f94134b0fec287fcdf981fa73",
  "parentHash": "0x060410f8b7117c63e4a49f802b736b57d15b7a0f22ec2200fd9bb4dfd0fd11b1",
  "number": 70995,
  "timestamp": 1439328760,
  "nonce": "0x76f747d074eace49",
  "difficulty": 2159345661470,
  "gasLimit": {
    "_hex": "0x2fefd8"
  },
  "gasUsed": {
    "_hex": "0x5208"
  },
  "miner": "0xf927a40C8B7F6E07c5af7FA2155B4864a4112B13",
  "extraData": "0x",
  "transactions": [
    {
      "hash": "0xddb7a63f1c8011e27c967c6a088fd8e540cbc590acde6db413aa96a4d573ee15",
      "blockHash": "0xa8312f4a5287a9520d0321fd17bf51e36ed09f8f94134b0fec287fcdf981fa73",
      "blockNumber": 70995,
      "transactionIndex": 0,
      "confirmations": null,
      "from": "0x4C935bB250778b3C4c7F7E07FC251FA630314aAb",
      "gasPrice": {
        "_hex": "0xd42b52db8"
      },
      "gasLimit": {
        "_hex": "0x15f90"
      },
      "to": "0x09c932038d924D69Ea7002a7c0Eb2Ecafa204964",
      "value": {
        "_hex": "0x1b1ae4d6e2ef500000"
      },
      "nonce": 1,
      "data": "0x",
      "r": "0x9ae74ef8e75445d42ad8ffe5723b09cadf90466619195dc32c284ddd951a5d08",
      "s": "0x7c0ec1fde44377a543f4783a5caeeee001595cb3dfb01dd81f5920d823ff1310",
      "v": 27,
      "creates": null,
      "raw": "0xf86e01850d42b52db883015f909409c932038d924d69ea7002a7c0eb2ecafa204964891b1ae4d6e2ef500000801ba09ae74ef8e75445d42ad8ffe5723b09cadf90466619195dc32c284ddd951a5d08a07c0ec1fde44377a543f4783a5caeeee001595cb3dfb01dd81f5920d823ff1310",
      "networkId": 0,
      "chainId": 0
    }
  ]
}