{
  "hash": "0x1f9261ef03921d5523799425123b6e42cb38bc797c5539483f3e398c154e1a0f",
  "parentHash": "0x6b9ab878497ec8581bfb3ed77d859df64573cccd052dd5fe61693556b4d997ea",
  "number": 70532,
  "timestamp": 1439321254,
  "nonce": "0x095367fa930aa7fb",
  "difficulty": 2141613792105,
  "gasLimit": {
    "_hex": "0x2fefd5"
  },
  "gasUsed": {
    "_hex": "0x5208"
  },
  "miner": "0x02020D22dCF88f5eDd66B382D7da019F161fB7e3",
  "extraData": "0x",
  "transactions": [
    {
      "hash": "0x0d8a6891dc5d428df5ca33bf3a8559c5d48489a1337d7f00f76023dcaeeff743",
      "blockHash": "0x1f9261ef03921d5523799425123b6e42cb38bc797c5539483f3e398c154e1a0f",
      "blockNumber": 70532,
      "transactionIndex": 0,
      "confirmations": null,
      "from": "0x7e5C0D990Aea6492841db80EF3E829a921502d17",
      "gasPrice": {
        "_hex": "0xd2a8ce58d"
      },
      "gasLimit": {
        "_hex": "0x15f90"
      },
      "to": "0x0f7E5465DB8bC57940471E530a83Fb7Ac5b82d7f",
      "value": {
        "_hex": "0x18fae27693b40000"
      },
      "nonce": 1,
      "data": "0x",
      "r": "0x9e749f29df4042707324c912049b0f27bf075b3804cbe51720cb79736e7a5629",
      "s": "0x714cd860f49c24e96b5dd8a4ee6fe82c5b099b623b4455a39b9e86de4090bd2e",
      "v": 27,
      "creates": null,
      "raw": "0xf86d01850d2a8ce58d83015f90940f7e5465db8bc57940471e530a83fb7ac5b82d7f8818fae27693b40000801ba09e749f29df4042707324c912049b0f27bf075b3804cbe51720cb79736e7a5629a0714cd860f49c24e96b5dd8a4ee6fe82c5b099b623b4455a39b9e86de4090bd2e",
      "networkId": 0,
      "chainId": 0
    }
  ]
}