{
  "hash": "0xca9dd543ac58a074f9fd394b9a09a1834be186942a13bea2c07ff947e34618fd",
  "parentHash": "0xf9a7ef4ac2dc53d9c2c348e0d9fc5b422fc86b826323db134d669907991f05c8",
  "number": 95521,
  "timestamp": 1439725353,
  "nonce": "0xc41bf53fef623485",
  "difficulty": 3619778387271,
  "gasLimit": {
    "_hex": "0x2fefd8"
  },
  "gasUsed": {
    "_hex": "0x249f0"
  },
  "miner": "0xe6A7a1d47ff21B6321162AEA7C6CB457D5476Bca",
  "extraData": "0x476574682f76312e302e312d38326566323666362f6c696e75782f676f312e34",
  "transactions": [
    {
      "hash": "0xcc4c177ed32a22bffb3c3634d05edfd0cf5a5adfa9aaea199e7f78cb385e6646",
      "blockHash": "0xca9dd543ac58a074f9fd394b9a09a1834be186942a13bea2c07ff947e34618fd",
      "blockNumber": 95521,
      "transactionIndex": 0,
      "confirmations": null,
      "from": "0xCdA0AD7542e30BF520652A05056eBe0105c7e49A",
      "gasPrice": {
        "_hex": "0xdaad05608"
      },
      "gasLimit": {
        "_hex": "0x249f0"
      },
      "to": "0xde0B295669a9FD93d5F28D9Ec85E40f4cb697BAe",
      "value": {
        "_hex": "0x0"
      },
      "nonce": 3,
      "data": "0xf00d4b5d000000000000000000000000cda0ad7542e30bf520652a05056ebe0105c7e49a00000000000000000000000002e816afc1b5c0f39852131959d946eb3b07b5ad",
      "r": "0x657cc3ee4d0e6caef9adf0c39450382457619311cf347fe4ded1f3648044a522",
      "s": "0x0cce64f6f269dc50e26433ddc590aa04e25f8d850ea578b816919fdad88beb8f",
      "v": 28,
      "creates": null,
      "raw": "0xf8aa03850daad05608830249f094de0b295669a9fd93d5f28d9ec85e40f4cb697bae80b844f00d4b5d000000000000000000000000cda0ad7542e30bf520652a05056ebe0105c7e49a00000000000000000000000002e816afc1b5c0f39852131959d946eb3b07b5ad1ca0657cc3ee4d0e6caef9adf0c39450382457619311cf347fe4ded1f3648044a522a00cce64f6f269dc50e26433ddc590aa04e25f8d850ea578b816919fdad88beb8f",
      "networkId": 0,
      "chainId": 0
    }
  ]
}