{
  "hash": "0x8816a62664656f10f22bc543a795b75f272b63cb4016edf2a6763ef513c8fac5",
  "parentHash": "0x511fc6796ea3ba35060effd7d22285bd7c876c70ad7a171a06707c393fa12f37",
  "number": 61080,
  "timestamp": 1439166415,
  "nonce": "0xba84073641c1e6b6",
  "difficulty": 1729517819598,
  "gasLimit": {
    "_hex": "0x2fefd8"
  },
  "gasUsed": {
    "_hex": "0x546c"
  },
  "miner": "0xbb7B8287f3F0a933474a79eAe42CBCa977791171",
  "extraData": "0x476574682f4c5649562f76312e302e312f6c696e75782f676f312e342e32",
  "transactions": [
    {
      "hash": "0xac2aed3c2c85b500ab04e893c653e15ce3cbb540d5205b9c68297ec5b67b2cd7",
      "blockHash": "0x8816a62664656f10f22bc543a795b75f272b63cb4016edf2a6763ef513c8fac5",
      "blockNumber": 61080,
      "transactionIndex": 0,
      "confirmations": null,
      "from": "0x1059cBc63E36C43E88F30008ACa7Ce058eeAa096",
      "gasPrice": {
        "_hex": "0x110c8f7d8de"
      },
      "gasLimit": {
        "_hex": "0xc350"
      },
      "to": "0x2910543Af39abA0Cd09dBb2D50200b3E800A63D2",
      "value": {
        "_hex": "0x65a3fc1a67c6f5c0000"
      },
      "nonce": 1,
      "data": "0x454e36365659394538",
      "r": "0x7403c400382176dbb316e71308b343c7f7d9ad7e8900f5a4373434c608db364d",
      "s": "0xb5befc9d1977bc364dc3325e0dfc3a1554d0a5eccdddfbbd859ffe532bd455d5",
      "v": 27,
      "creates": null,
      "raw": "0xf87801860110c8f7d8de82c350942910543af39aba0cd09dbb2d50200b3e800a63d28a065a3fc1a67c6f5c000089454e363656593945381ba07403c400382176dbb316e71308b343c7f7d9ad7e8900f5a4373434c608db364da0b5befc9d1977bc364dc3325e0dfc3a1554d0a5eccdddfbbd859ffe532bd455d5",
      "networkId": 0,
      "chainId": 0
    }
  ]
}