{
  "hash": "0xccc330398c565f2bc644319583b319df757fef8aa156402a93afc37ebf95af75",
  "parentHash": "0xc1b45ffca6021422d3f0470283cd5ab36e7dd216a2ebf9ef4668f9c24e224967",
  "number": 55248,
  "timestamp": 1439067643,
  "nonce": "0xdca0308da7e53b5f",
  "difficulty": 1638613368203,
  "gasLimit": {
    "_hex": "0x2fe225"
  },
  "gasUsed": {
    "_hex": "0xddfd"
  },
  "miner": "0xeB1325C8D9d3ea8D74aC11F4B00F1B2367686319",
  "extraData": "0x476574682f76312e302e312f77696e646f77732f676f312e342e32",
  "transactions": [
    {
      "hash": "0xd50829c1083e7e9e81eabc83586967323305d4442e3d8be036c7ff282d539f76",
      "blockHash": "0xccc330398c565f2bc644319583b319df757fef8aa156402a93afc37ebf95af75",
      "blockNumber": 55248,
      "transactionIndex": 0,
      "confirmations": null,
      "from": "0x0ae3F81a67725a8A7758FeB8684c6c17dA20755D",
      "gasPrice": {
        "_hex": "0xdc259f7ab"
      },
      "gasLimit": {
        "_hex": "0x1e8480"
      },
      "to": "0xBAA54d6E90c3F4d7Ebec11bD180134C7eD8eBb52",
      "value": {
        "_hex": "0x16345785d8a0000"
      },
      "nonce": 84,
      "data": "0x",
      "r": "0xf82c993a90247e93b26dd7f182998a88b7e96101a803725af75bf6232a527df8",
      "s": "0x204a6b2092d6e4201db9d11fbbaafd22b31ca5d60cb18e3c518173faaa4530e9",
      "v": 28,
      "creates": null,
      "raw": "0xf86d54850dc259f7ab831e848094baa54d6e90c3f4d7ebec11bd180134c7ed8ebb5288016345785d8a0000801ca0f82c993a90247e93b26dd7f182998a88b7e96101a803725af75bf6232a527df8a0204a6b2092d6e4201db9d11fbbaafd22b31ca5d60cb18e3c518173faaa4530e9",
      "networkId": 0,
      "chainId": 0
    }
  ]
}