{
  "hash": "0xe9b67d72bc77dc5d38ae3ef0b85d50ef5ab0f21ee8a10f8ab08c4735438e3c59",
  "parentHash": "0x8a9fe69d0dbff24b24efbd1df2971016e9723f84db6558bea5ced942e07273f7",
  "number": 101702,
  "timestamp": 1439826869,
  "nonce": "0x02011d72def8126a",
  "difficulty": 3871132389714,
  "gasLimit": {
    "_hex": "0x2fefd8"
  },
  "gasUsed": {
    "_hex": "0x5208"
  },
  "miner": "0x007f7f58D3eb5b7510A301eCC749FC1fCDDBE14D",
  "extraData": "0x476574682f76312e302e312f77696e646f77732f676f312e342e32",
  "transactions": [
    {
      "hash": "0xa105172a5cd554c2a30667fe447566907ed3117e95fe01a0a7678354f1053122",
      "blockHash": "0xe9b67d72bc77dc5d38ae3ef0b85d50ef5ab0f21ee8a10f8ab08c4735438e3c59",
      "blockNumber": 101702,
      "transactionIndex": 0,
      "confirmations": null,
      "from": "0x2910543Af39abA0Cd09dBb2D50200b3E800A63D2",
      "gasPrice": {
        "_hex": "0xd7a19de58"
      },
      "gasLimit": {
        "_hex": "0x5208"
      },
      "to": "0x219034787DFcdf07Ae8a07D98B0781439fc0db99",
      "value": {
        "_hex": "0xad78ebc5ac6200000"
      },
      "nonce": 976,
      "data": "0x",
      "r": "0xe371e62630fd1ba10fe0797a9bb1c856f9b42b200c00af70e6c997f26f8ff8bc",
      "s": "0x28139e3f28a5965a622d8cd5269b4341c94399da97dfe65406fabfabda90a4ba",
      "v": 28,
      "creates": null,
      "raw": "0xf86f8203d0850d7a19de5882520894219034787dfcdf07ae8a07d98b0781439fc0db99890ad78ebc5ac6200000801ca0e371e62630fd1ba10fe0797a9bb1c856f9b42b200c00af70e6c997f26f8ff8bca028139e3f28a5965a622d8cd5269b4341c94399da97dfe65406fabfabda90a4ba",
      "networkId": 0,
      "chainId": 0
    }
  ]
}