{
  "hash": "0xe631f39f27671630958b6e687ccc217afa5af0b916d478e8cb7e96d48c4c789f",
  "parentHash": "0x3d8899448c5f6051a4fa5f7b4d027d6e3eb5e07060ab108244d24f0371273667",
  "number": 115035,
  "timestamp": 1440050565,
  "nonce": "0xe6f8ad6b642effee",
  "difficulty": 4507606304335,
  "gasLimit": {
    "_hex": "0x2fefd8"
  },
  "gasUsed": {
    "_hex": "0x546c"
  },
  "miner": "0xe6A7a1d47ff21B6321162AEA7C6CB457D5476Bca",
  "extraData": "0x476574682f76312e302e312d38326566323666362f6c696e75782f676f312e34",
  "transactions": [
    {
      "hash": "0xb03d0bde67c741c492afe6c4525a3f8d07092315538b3bf46d0a844536ca656d",
      "blockHash": "0xe631f39f27671630958b6e687ccc217afa5af0b916d478e8cb7e96d48c4c789f",
      "blockNumber": 115035,
      "transactionIndex": 0,
      "confirmations": null,
      "from": "0xA2fe5fAEA931A4Fd9CAc31304072f3673770eD40",
      "gasPrice": {
        "_hex": "0xd2b2d15b4"
      },
      "gasLimit": {
        "_hex": "0x55f0"
      },
      "to": "0x2910543Af39abA0Cd09dBb2D50200b3E800A63D2",
      "value": {
        "_hex": "0x8ac7230489e80000"
      },
      "nonce": 3,
      "data": "0x454e48313542575a30",
      "r": "0xef5f241ba0f43fa3ce3a4fbe5e421193f5d27414d5f563d72f566c9f39ab9bc3",
      "s": "0x0cdb3ef689000da64a908ea1b002cb684effe457654bf718df544ab483c5c5c2",
      "v": 28,
      "creates": null,
      "raw": "0xf87503850d2b2d15b48255f0942910543af39aba0cd09dbb2d50200b3e800a63d2888ac7230489e8000089454e48313542575a301ca0ef5f241ba0f43fa3ce3a4fbe5e421193f5d27414d5f563d72f566c9f39ab9bc3a00cdb3ef689000da64a908ea1b002cb684effe457654bf718df544ab483c5c5c2",
      "networkId": 0,
      "chainId": 0
    }
  ]
}