{
  "hash": "0xf90126974bcea84b9bc323d698779be2cc80aaeceb5801cc9ea8bc01d77095ae",
  "parentHash": "0xc32635394de1ec1a3ccddbb80fb799b5e6e5547f128f567e0196b4f48b539da3",
  "number": 57627,
  "timestamp": 1439106628,
  "nonce": "0x7122d20c34bf3109",
  "difficulty": 1739548116897,
  "gasLimit": {
    "_hex": "0x2fefd8"
  },
  "gasUsed": {
    "_hex": "0x5208"
  },
  "miner": "0x9D49F602b0fdb924Bd63DDE2Bd0907E4A07c63a7",
  "extraData": "0x476574682f76312e302e312f6c696e75782f676f312e342e32",
  "transactions": [
    {
      "hash": "0xf1431f464096e9376a2edcbf503e9c53ed6f13ac74ba03f90ba6fcb04be02f45",
      "blockHash": "0xf90126974bcea84b9bc323d698779be2cc80aaeceb5801cc9ea8bc01d77095ae",
      "blockNumber": 57627,
      "transactionIndex": 0,
      "confirmations": null,
      "from": "0xA21Ba94e45f0E168dA824fC67aC9cb5Cb577a8aF",
      "gasPrice": {
        "_hex": "0x45d964b800"
      },
      "gasLimit": {
        "_hex": "0x5208"
      },
      "to": "0x56011d6b57A70c27F7cc294905A5DdA65BfBd154",
      "value": {
        "_hex": "0x324e964b3eca80000"
      },
      "nonce": 0,
      "data": "0x",
      "r": "0xe1d815affdc3ee0f6e30676e98b69487ba72c8bf4650e05ce24cd106ecd119d2",
      "s": "0x5004b2f6ea8ded28d43bb0d88eefaf9927ee4fccf6cba88b5d868eda0cf27c25",
      "v": 27,
      "creates": null,
      "raw": "0xf86d808545d964b8008252089456011d6b57a70c27f7cc294905a5dda65bfbd154890324e964b3eca80000801ba0e1d815affdc3ee0f6e30676e98b69487ba72c8bf4650e05ce24cd106ecd119d2a05004b2f6ea8ded28d43bb0d88eefaf9927ee4fccf6cba88b5d868eda0cf27c25",
      "networkId": 0,
      "chainId": 0
    }
  ]
}