{
  "hash": "0x6b55a54fcd0f497fb1a455d291198e80d24588ee981cade65f416c7c915cbca3",
  "parentHash": "0xbc3e7b52b818aa7fad95b214ea10f0e188b144ff363a49db03fb989af297d8de",
  "number": 110428,
  "timestamp": 1439973649,
  "nonce": "0x4689ccf09692d248",
  "difficulty": 4373456842040,
  "gasLimit": {
    "_hex": "0x2fefd8"
  },
  "gasUsed": {
    "_hex": "0x1ec30"
  },
  "miner": "0xe6A7a1d47ff21B6321162AEA7C6CB457D5476Bca",
  "extraData": "0x476574682f76312e302e312d38326566323666362f6c696e75782f676f312e34",
  "transactions": [
    {
      "hash": "0x26db5989886b591e97dd6d4518ef198eb3fc62b9808bb81d9c58316ed7e3742b",
      "blockHash": "0x6b55a54fcd0f497fb1a455d291198e80d24588ee981cade65f416c7c915cbca3",
      "blockNumber": 110428,
      "transactionIndex": 0,
      "confirmations": null,
      "from": "0xdc41BFACFAaF8B0F0949aB5A3f18f47063Ae62fB",
      "gasPrice": {
        "_hex": "0xdbd036747"
      },
      "gasLimit": {
        "_hex": "0x5208"
      },
      "to": "0x32Be343B94f860124dC4fEe278FDCBD38C102D88",
      "value": {
        "_hex": "0x4394873c43d26c000"
      },
      "nonce": 7,
      "data": "0x",
      "r": "0x21bcef8c07c232f86956b36983a128045abcb9a27480233a7032d7ff5fbd1178",
      "s": "0x419ff1c3be79397b0b1ccf2a8c06f96d93b2f1d06dad3a44fcd775430588c39e",
      "v": 28,
      "creates": null,
      "raw": "0xf86d07850dbd0367478252089432be343b94f860124dc4fee278fdcbd38c102d888904394873c43d26c000801ca021bcef8c07c232f86956b36983a128045abcb9a27480233a7032d7ff5fbd1178a0419ff1c3be79397b0b1ccf2a8c06f96d93b2f1d06dad3a44fcd775430588c39e",
      "networkId": 0,
      "chainId": 0
    },
    {
      "hash": "0x678cea4ffe864b087cd3dfe79673cec8c4ddb8265bf960da0f6a20d31bde2eb6",
      "blockHash": "0x6b55a54fcd0f497fb1a455d291198e80d24588ee981cade65f416c7c915cbca3",
      "blockNumber": 110428,
      "transactionIndex": 1,
      "confirmations": null,
      "from": "0xE7dAdedf7cEBAaBa85903823D254601B1D459C9B",
      "gasPrice": {
        "_hex": "0xdbd036747"
      },
      "gasLimit": {
        "_hex": "0x5208"
      },
      "to": "0x32Be343B94f860124dC4fEe278FDCBD38C102D88",
      "value": {
        "_hex": "0x7cc60d04b76a4800"
      },
      "nonce": 5,
      "data": "0x",
      "r": "0x46d02bb9832b88ca43980a5ca535ad1eebd1d9a1f67d0103534197a800f04a77",
      "s": "0x652adfe839d2ebdc754ebbed2ec788ace1748e9fbfc4caee9287bacc5fe2d7e1",
      "v": 27,
      "creates": null,
      "raw": "0xf86c05850dbd0367478252089432be343b94f860124dc4fee278fdcbd38c102d88887cc60d04b76a4800801ba046d02bb9832b88ca43980a5ca535ad1eebd1d9a1f67d0103534197a800f04a77a0652adfe839d2ebdc754ebbed2ec788ace1748e9fbfc4caee9287bacc5fe2d7e1",
      "networkId": 0,
      "chainId": 0
    },
    {
      "hash": "0xd41d48802484f1bc17ac635ee545914cbcd7e39a295a2818d04417071671ed22",
      "blockHash": "0x6b55a54fcd0f497fb1a455d291198e80d24588ee981cade65f416c7c915cbca3",
      "blockNumber": 110428,
      "transactionIndex": 2,
      "confirmations": null,
      "from": "0x03bbfbb9d362b4B1C6a113BE654A0190Fc6aEa80",
      "gasPrice": {
        "_hex": "0xdbd036747"
      },
      "gasLimit": {
        "_hex": "0x5208"
      },
      "to": "0x32Be343B94f860124dC4fEe278FDCBD38C102D88",
      "value": {
        "_hex": "0xabdaeb94dcc23000"
      },
      "nonce": 7,
      "data": "0x",
      "r": "0xfeaf72d086de216d70230630d2214c03367509a56d939d92394614758bc8dd32",
      "s": "0x57a75ba4bb3e7086af00aa84b0f2bdfcdc484b2002a7cd4b2480f22baafe8ff2",
      "v": 27,
      "creates": null,
      "raw": "0xf86c07850dbd0367478252089432be343b94f860124dc4fee278fdcbd38c102d8888abdaeb94dcc23000801ba0feaf72d086de216d70230630d2214c03367509a56d939d92394614758bc8dd32a057a75ba4bb3e7086af00aa84b0f2bdfcdc484b2002a7cd4b2480f22baafe8ff2",
      "networkId": 0,
      "chainId": 0
    },
    {
      "hash": "0x53e13b575c7760a6576ff1aaafc99ab1a2c14b838e114b853a791a5c9655b570",
      "blockHash": "0x6b55a54fcd0f497fb1a455d291198e80d24588ee981cade65f416c7c915cbca3",
      "blockNumber": 110428,
      "transactionIndex": 3,
      "confirmations": null,
      "from": "0x187b1f47Cd55b27878699DfCDCee2234cD49E97e",
      "gasPrice": {
        "_hex": "0xdbd036747"
      },
      "gasLimit": {
        "_hex": "0x5208"
      },
      "to": "0x32Be343B94f860124dC4fEe278FDCBD38C102D88",
      "value": {
        "_hex": "0x3124a500d4461c000"
      },
      "nonce": 9,
      "data": "0x",
      "r": "0x4b7ae989ba330c284b1e0dd85de6c58d1f6904dd5e74ae185c63d02b8b3761e2",
      "s": "0x392be210d3fa0b21c9bded40802bb9289775d45622d871c31378792b39b819d1",
      "v": 27,
      "creates": null,
      "raw": "0xf86d09850dbd0367478252089432be343b94f860124dc4fee278fdcbd38c102d888903124a500d4461c000801ba04b7ae989ba330c284b1e0dd85de6c58d1f6904dd5e74ae185c63d02b8b3761e2a0392be210d3fa0b21c9bded40802bb9289775d45622d871c31378792b39b819d1",
      "networkId": 0,
      "chainId": 0
    },
    {
      "hash": "0x5e7f39a619341894b61851c7b5e88b924bd9051d3149b96804e4c0676bc95b52",
      "blockHash": "0x6b55a54fcd0f497fb1a455d291198e80d24588ee981cade65f416c7c915cbca3",
      "blockNumber": 110428,
      "transactionIndex": 4,
      "confirmations": null,
      "from": "0xB0b3385a645Eb80B431224920043447Ab1303eA8",
      "gasPrice": {
        "_hex": "0xdbd036747"
      },
      "gasLimit": {
        "_hex": "0x5208"
      },
      "to": "0x32Be343B94f860124dC4fEe278FDCBD38C102D88",
      "value": {
        "_hex": "0x77760bf63e474400"
      },
      "nonce": 5,
      "data": "0x",
      "r": "0x311d4f65aae0fefdcb12861aa62c1f991648e9146943c7f9822816a8ffb0257d",
      "s": "0x74b1555eace7d6f652867e76147c3845b3dae17892a529da87201bbc75480038",
      "v": 27,
      "creates": null,
      "raw": "0xf86c05850dbd0367478252089432be343b94f860124dc4fee278fdcbd38c102d888877760bf63e474400801ba0311d4f65aae0fefdcb12861aa62c1f991648e9146943c7f9822816a8ffb0257da074b1555eace7d6f652867e76147c3845b3dae17892a529da87201bbc75480038",
      "networkId": 0,
      "chainId": 0
    },
    {
      "hash": "0x373bebdd325c5493aa7db2225841449693d87ede16463673185de4d46a10d850",
      "blockHash": "0x6b55a54fcd0f497fb1a455d291198e80d24588ee981cade65f416c7c915cbca3",
      "blockNumber": 110428,
      "transactionIndex": 5,
      "confirmations": null,
      "from": "0xe512429AB3036301dC4c56F9a4c9991dCbb6b496",
      "gasPrice": {
        "_hex": "0xdbd036747"
      },
      "gasLimit": {
        "_hex": "0x5208"
      },
      "to": "0x32Be343B94f860124dC4fEe278FDCBD38C102D88",
      "value": {
        "_hex": "0x3013ea657dba4800"
      },
      "nonce": 7,
      "data": "0x",
      "r": "0x6d4092065707daf8d07c486e0f30ac29dc8e9521d272ce729231ed3762f81a12",
      "s": "0x3ee9d4ea3df664fa6a81b576b7c67f37767f86883d72dfd66e44e49e11d343c0",
      "v": 28,
      "creates": null,
      "raw": "0xf86c07850dbd0367478252089432be343b94f860124dc4fee278fdcbd38c102d88883013ea657dba4800801ca06d4092065707daf8d07c486e0f30ac29dc8e9521d272ce729231ed3762f81a12a03ee9d4ea3df664fa6a81b576b7c67f37767f86883d72dfd66e44e49e11d343c0",
      "networkId": 0,
      "chainId": 0
    }
  ]
}