{
  "hash": "0x62c91e71d12cd6138e444ed6a56bc78b37301b4714c1ef4d9d044f41b9edac9b",
  "parentHash": "0xe189d61016e9499cc4cedf00add7e00f695922d6b15491080c94712c23bb1344",
  "number": 80552,
  "timestamp": 1439487188,
  "nonce": "0x91a34ccf8ba033b0",
  "difficulty": 2419139892740,
  "gasLimit": {
    "_hex": "0x2fefd8"
  },
  "gasUsed": {
    "_hex": "0xaa37"
  },
  "miner": "0xeB1325C8D9d3ea8D74aC11F4B00F1B2367686319",
  "extraData": "0x476574682f76312e302e312f77696e646f77732f676f312e342e32",
  "transactions": [
    {
      "hash": "0x55cef8146e6c241c7d350089ab788ceb3ad07903f3c30f9d65ef7d58d3970c4b",
      "blockHash": "0x62c91e71d12cd6138e444ed6a56bc78b37301b4714c1ef4d9d044f41b9edac9b",
      "blockNumber": 80552,
      "transactionIndex": 0,
      "confirmations": null,
      "from": "0x87C5B5874A18B4306DF8a752a6C8cc3E82daFc19",
      "gasPrice": {
        "_hex": "0xff1e20810a"
      },
      "gasLimit": {
        "_hex": "0x493e0"
      },
      "to": "0xC4c51de1AbF5D60DBd329eC0F999Fd8f021ae9fC",
      "value": {
        "_hex": "0x0"
      },
      "nonce": 242,
      "data": "0x03750d9400000000000000000000000087c5b5874a18b4306df8a752a6c8cc3e82dafc196b6b6b0000000000000000000000000000000000000000000000000000000000",
      "r": "0xf8936121f494a811b6ec6f615c7965fc77920263a54776a16ed59dd9c7314d3d",
      "s": "0x2a9e0a5dec569c8a36273545e6c6d68476c3e26d8247974180bdda4e3c347944",
      "v": 28,
      "creates": null,
      "raw": "0xf8ab81f285ff1e20810a830493e094c4c51de1abf5d60dbd329ec0f999fd8f021ae9fc80b84403750d9400000000000000000000000087c5b5874a18b4306df8a752a6c8cc3e82dafc196b6b6b00000000000000000000000000000000000000000000000000000000001ca0f8936121f494a811b6ec6f615c7965fc77920263a54776a16ed59dd9c7314d3da02a9e0a5dec569c8a36273545e6c6d68476c3e26d8247974180bdda4e3c347944",
      "networkId": 0,
      "chainId": 0
    }
  ]
}