{
  "hash": "0xc18b27691fffcb756e2cc4db57b1c1eb6694576422430b0ce46d1400e2d12d6e",
  "parentHash": "0x51d400ca2524928aeb155a4e12936e662f1bd3f0b93be61c1b3da880002765ff",
  "number": 100339,
  "timestamp": 1439804748,
  "nonce": "0x1a4754ace791c2cc",
  "difficulty": 3824786013266,
  "gasLimit": {
    "_hex": "0x2fefd8"
  },
  "gasUsed": {
    "_hex": "0xa674"
  },
  "miner": "0xe6A7a1d47ff21B6321162AEA7C6CB457D5476Bca",
  "extraData": "0x476574682f76312e302e312d38326566323666362f6c696e75782f676f312e34",
  "transactions": [
    {
      "hash": "0xd7d2af3fea3df2ce8a8bd7ea8b70323680dfe485ce09a928b7a5054b45a746a1",
      "blockHash": "0xc18b27691fffcb756e2cc4db57b1c1eb6694576422430b0ce46d1400e2d12d6e",
      "blockNumber": 100339,
      "transactionIndex": 0,
      "confirmations": null,
      "from": "0x5B85E60E2aF0544f2f01C64E2032900EbD38A3C7",
      "gasPrice": {
        "_hex": "0x110c8f7d8de"
      },
      "gasLimit": {
        "_hex": "0xc350"
      },
      "to": "0x2910543Af39abA0Cd09dBb2D50200b3E800A63D2",
      "value": {
        "_hex": "0x4563918244f40000"
      },
      "nonce": 0,
      "data": "0x454e52385a51484530",
      "r": "0x3c30de717cc95ef80f2f1b2f490c3b651e72c2942a75fdba2ea976e2363291df",
      "s": "0x36b0860c84ed9628ade74b9f27c7f40e4e21ab208f6ad8280349d191959e1aa0",
      "v": 28,
      "creates": null,
      "raw": "0xf87680860110c8f7d8de82c350942910543af39aba0cd09dbb2d50200b3e800a63d2884563918244f4000089454e52385a514845301ca03c30de717cc95ef80f2f1b2f490c3b651e72c2942a75fdba2ea976e2363291dfa036b0860c84ed9628ade74b9f27c7f40e4e21ab208f6ad8280349d191959e1aa0",
      "networkId": 0,
      "chainId": 0
    },
    {
      "hash": "0x80dd59ead27236b40b4dcaec0f105c30b87d63c1de56e2692fe354ad5b78942c",
      "blockHash": "0xc18b27691fffcb756e2cc4db57b1c1eb6694576422430b0ce46d1400e2d12d6e",
      "blockNumber": 100339,
      "transactionIndex": 1,
      "confirmations": null,
      "from": "0x007f7f58D3eb5b7510A301eCC749FC1fCDDBE14D",
      "gasPrice": {
        "_hex": "0xe0cfe7246"
      },
      "gasLimit": {
        "_hex": "0x15f90"
      },
      "to": "0xb1abce2918E21ddb93AA452731a12672A3d9F75a",
      "value": {
        "_hex": "0x4563918244f40000"
      },
      "nonce": 162,
      "data": "0x",
      "r": "0xbf845529a9710bfba5ed6716cb17e10b469af9a18907a31a2d2a0806ffb07077",
      "s": "0x27070b3b7e6db42140606265935336e68f54c6633e55a377bb266231daab9bca",
      "v": 28,
      "creates": null,
      "raw": "0xf86e81a2850e0cfe724683015f9094b1abce2918e21ddb93aa452731a12672a3d9f75a884563918244f40000801ca0bf845529a9710bfba5ed6716cb17e10b469af9a18907a31a2d2a0806ffb07077a027070b3b7e6db42140606265935336e68f54c6633e55a377bb266231daab9bca",
      "networkId": 0,
      "chainId": 0
    }
  ]
}