{
  "hash": "0xfad3058ec820b2c497d5b17672f9960504b4b00d25635a9d403194732552f9cc",
  "parentHash": "0x059f0997c3648359000bfd084a75ec05002ad59a89926e7aceab7e738fe373fe",
  "number": 64620,
  "timestamp": 1439223726,
  "nonce": "0x6901b0affc1ff2c9",
  "difficulty": 1885767162917,
  "gasLimit": {
    "_hex": "0x2fefd8"
  },
  "gasUsed": {
    "_hex": "0x38364"
  },
  "miner": "0xeB1325C8D9d3ea8D74aC11F4B00F1B2367686319",
  "extraData": "0x476574682f76312e302e312f77696e646f77732f676f312e342e32",
  "transactions": [
    {
      "hash": "0x135ea81e5dbcbc3211a5c4205aa0fe8e3386ea5cb00f269d0eb463c76b247606",
      "blockHash": "0xfad3058ec820b2c497d5b17672f9960504b4b00d25635a9d403194732552f9cc",
      "blockNumber": 64620,
      "transactionIndex": 0,
      "confirmations": null,
      "from": "0xC32540af404fb7dD2c4ea4D77fbEB0C6E54289f6",
      "gasPrice": {
        "_hex": "0xba43b7400"
      },
      "gasLimit": {
        "_hex": "0x15f90"
      },
      "to": "0x793AE8C1b1a160BFc07BFB0d04F85eab1A71F4f2",
      "value": {
        "_hex": "0x0"
      },
      "nonce": 0,
      "data": "0x3ba15036",
      "r": "0x02ba92748003033978ddcf8d5c0b2505e272ad719511eab8fd8e54ff86f2bf06",
      "s": "0x3472bfbd0e40279bc780abb0ec4e24327c8b60424c87a508a53cf92a0bb97d21",
      "v": 27,
      "creates": null,
      "raw": "0xf86980850ba43b740083015f9094793ae8c1b1a160bfc07bfb0d04f85eab1a71f4f280843ba150361ba002ba92748003033978ddcf8d5c0b2505e272ad719511eab8fd8e54ff86f2bf06a03472bfbd0e40279bc780abb0ec4e24327c8b60424c87a508a53cf92a0bb97d21",
      "networkId": 0,
      "chainId": 0
    },
    {
      "hash": "0xebb50ae47482dd8f4ac136ecbe81fa3bff78046d7d6a24ffc896b4e475eb46a9",
      "blockHash": "0xfad3058ec820b2c497d5b17672f9960504b4b00d25635a9d403194732552f9cc",
      "blockNumber": 64620,
      "transactionIndex": 1,
      "confirmations": null,
      "from": "0x6747f922385c9a6F9cfDf095F34345257DD597bE",
      "gasPrice": {
        "_hex": "0xba43b7400"
      },
      "gasLimit": {
        "_hex": "0x5208"
      },
      "to": "0x08018eDEaBcEb777a0d0Ed1c3D31a48C76A62fcE",
      "value": {
        "_hex": "0x1fcbfa42bd6000"
      },
      "nonce": 18,
      "data": "0x",
      "r": "0xe04ba1ee34fb231d79b2c38953cb62a49cd612d8d8f2718d6e9d966fbc48fb26",
      "s": "0x1f4f03d00589f7979b80b4bd0d67e8fe89602b7a626075a24e001cb7b8f7de38",
      "v": 27,
      "creates": null,
      "raw": "0xf86b12850ba43b74008252089408018edeabceb777a0d0ed1c3d31a48c76a62fce871fcbfa42bd6000801ba0e04ba1ee34fb231d79b2c38953cb62a49cd612d8d8f2718d6e9d966fbc48fb26a01f4f03d00589f7979b80b4bd0d67e8fe89602b7a626075a24e001cb7b8f7de38",
      "networkId": 0,
      "chainId": 0
    },
    {
      "hash": "0xbd54ae4d4ada398ecebc395d79b853be1a863044c563850581330f82aab1a07a",
      "blockHash": "0xfad3058ec820b2c497d5b17672f9960504b4b00d25635a9d403194732552f9cc",
      "blockNumber": 64620,
      "transactionIndex": 2,
      "confirmations": null,
      "from": "0xEBc158d9Ec4aD3f54bCE9bdE03D592910EDa0178",
      "gasPrice": {
        "_hex": "0xba43b7400"
      },
      "gasLimit": {
        "_hex": "0x15f90"
      },
      "to": "0x793AE8C1b1a160BFc07BFB0d04F85eab1A71F4f2",
      "value": {
        "_hex": "0x0"
      },
      "nonce": 0,
      "data": "0x3ba15036",
      "r": "0xfb4959a563ffa10e72ec782ae27a572a2cd0e02501563cb744fde8ce4e6327ec",
      "s": "0x470e490cb1ecc51b10dcd5244ce8492b1c583c1819abdd7c87038c17fea4dafe",
      "v": 28,
      "creates": null,
      "raw": "0xf86980850ba43b740083015f9094793ae8c1b1a160bfc07bfb0d04f85eab1a71f4f280843ba150361ca0fb4959a563ffa10e72ec782ae27a572a2cd0e02501563cb744fde8ce4e6327eca0470e490cb1ecc51b10dcd5244ce8492b1c583c1819abdd7c87038c17fea4dafe",
      "networkId": 0,
      "chainId": 0
    },
    {
      "hash": "0xcd63c415daa73dc37ae56eabd54dd4b9be2212501c1046c04e792d9bee96e875",
      "blockHash": "0xfad3058ec820b2c497d5b17672f9960504b4b00d25635a9d403194732552f9cc",
      "blockNumber": 64620,
      "transactionIndex": 3,
      "confirmations": null,
      "from": "0x6aDCFeC08ADb1a771A8Ae7ad4B00e45461b09C32",
      "gasPrice": {
        "_hex": "0xba43b7400"
      },
      "gasLimit": {
        "_hex": "0x15f90"
      },
      "to": "0x793AE8C1b1a160BFc07BFB0d04F85eab1A71F4f2",
      "value": {
        "_hex": "0x0"
      },
      "nonce": 0,
      "data": "0x3ba15036",
      "r": "0x709b8766ce6f6d840d0dbc9f48357736014a4e377043f7bba1ffe763eb7dd415",
      "s": "0x0ac1efb5fef1fec3fd6219005f7c61fab6ff9b591f28ebddf7e6ee4f608d9a0a",
      "v": 27,
      "creates": null,
      "raw": "0xf86980850ba43b740083015f9094793ae8c1b1a160bfc07bfb0d04f85eab1a71f4f280843ba150361ba0709b8766ce6f6d840d0dbc9f48357736014a4e377043f7bba1ffe763eb7dd415a00ac1efb5fef1fec3fd6219005f7c61fab6ff9b591f28ebddf7e6ee4f608d9a0a",
      "networkId": 0,
      "chainId": 0
    },
    {
      "hash": "0x8b03ebd64960584162ab998d038c7456d1eefb5ae9f056ce2c51d216a4bc5d81",
      "blockHash": "0xfad3058ec820b2c497d5b17672f9960504b4b00d25635a9d403194732552f9cc",
      "blockNumber": 64620,
      "transactionIndex": 4,
      "confirmations": null,
      "from": "0xbAc52feab7841a1452c87cF40B52a052693862b9",
      "gasPrice": {
        "_hex": "0xba43b7400"
      },
      "gasLimit": {
        "_hex": "0x5208"
      },
      "to": "0x96081d3F391AE5125022669c0c984908A32fB5E2",
      "value": {
        "_hex": "0xaa9f075c200000"
      },
      "nonce": 1,
      "data": "0x",
      "r": "0x3f5b1b70e8770a6bacc1e191667ff3e9159516cdde2012d65f0c294872406027",
      "s": "0x6f76dcfc23f1b13e9aa09cd9e8439f06b59eee15f1787452c326745eea777844",
      "v": 27,
      "creates": null,
      "raw": "0xf86b01850ba43b74008252089496081d3f391ae5125022669c0c984908a32fb5e287aa9f075c200000801ba03f5b1b70e8770a6bacc1e191667ff3e9159516cdde2012d65f0c294872406027a06f76dcfc23f1b13e9aa09cd9e8439f06b59eee15f1787452c326745eea777844",
      "networkId": 0,
      "chainId": 0
    },
    {
      "hash": "0x68301c35007b175c6f890ca7c4c8578f308aa111855410fd2b836a11a55f91fd",
      "blockHash": "0xfad3058ec820b2c497d5b17672f9960504b4b00d25635a9d403194732552f9cc",
      "blockNumber": 64620,
      "transactionIndex": 5,
      "confirmations": null,
      "from": "0x7D498573b1c08883E4F036944010C64af0c647eB",
      "gasPrice": {
        "_hex": "0xba43b7400"
      },
      "gasLimit": {
        "_hex": "0x5208"
      },
      "to": "0x75d5e97b0a377B529D065F8Cb1ECA2D4793C5BBb",
      "value": {
        "_hex": "0x937bda828f9000"
      },
      "nonce": 1,
      "data": "0x",
      "r": "0xe34efa6f1405a97b19f109fc0231bdd55c5819d3e1c120e97c64fba458ae4139",
      "s": "0x1f38cffc7b856a7c0c78ab2206a34361217c30cc9c35a69690df741f899de316",
      "v": 28,
      "creates": null,
      "raw": "0xf86b01850ba43b74008252089475d5e97b0a377b529d065f8cb1eca2d4793c5bbb87937bda828f9000801ca0e34efa6f1405a97b19f109fc0231bdd55c5819d3e1c120e97c64fba458ae4139a01f38cffc7b856a7c0c78ab2206a34361217c30cc9c35a69690df741f899de316",
      "networkId": 0,
      "chainId": 0
    },
    {
      "hash": "0xe7f35b356cf634d43f21a0832daa57c93c72bfe2829ed6ea90b78570b5566217",
      "blockHash": "0xfad3058ec820b2c497d5b17672f9960504b4b00d25635a9d403194732552f9cc",
      "blockNumber": 64620,
      "transactionIndex": 6,
      "confirmations": null,
      "from": "0x9d62aD97BD5B5aeeE9e4615191affDEc16614562",
      "gasPrice": {
        "_hex": "0xba43b7400"
      },
      "gasLimit": {
        "_hex": "0x5208"
      },
      "to": "0x6A9F8624353F14cCEb44fa0Ea6a70a8f066008a5",
      "value": {
        "_hex": "0x7c58ada8ff2000"
      },
      "nonce": 1,
      "data": "0x",
      "r": "0xfc32f66e2984553118086da6cbdbf7af84e3180b74799b49141d1dfdf0c7324b",
      "s": "0x78e9c404312a9fc80ec242983db61be6e5d5326dcf9f69ae7d6c0ff04ae03c11",
      "v": 28,
      "creates": null,
      "raw": "0xf86b01850ba43b7400825208946a9f8624353f14cceb44fa0ea6a70a8f066008a5877c58ada8ff2000801ca0fc32f66e2984553118086da6cbdbf7af84e3180b74799b49141d1dfdf0c7324ba078e9c404312a9fc80ec242983db61be6e5d5326dcf9f69ae7d6c0ff04ae03c11",
      "networkId": 0,
      "chainId": 0
    }
  ]
}