{
  "hash": "0xb9979ede311273ab9fd62fb5482ebd829e413eb120c208ee7095b310fa2d654e",
  "parentHash": "0x77451188502890d330b8aafb2dbdb7138edfd706a1dcf8328f4719d9a7353c21",
  "number": 115540,
  "timestamp": 1440058864,
  "nonce": "0xc1acc37f6d96dbd5",
  "difficulty": 4611970839150,
  "gasLimit": {
    "_hex": "0x2fefd8"
  },
  "gasUsed": {
    "_hex": "0x18326"
  },
  "miner": "0x580992B51e3925e23280EfB93d3047C82f17E038",
  "extraData": "0x476574682f76312e302e312f6c696e75782f676f312e342e32",
  "transactions": [
    {
      "hash": "0x656844503138ffde8631e9a61b92dd57a97485886923e617df7b730a4e4d80fe",
      "blockHash": "0xb9979ede311273ab9fd62fb5482ebd829e413eb120c208ee7095b310fa2d654e",
      "blockNumber": 115540,
      "transactionIndex": 0,
      "confirmations": null,
      "from": "0xaf4BEE1910f14Fd7B7D119D741E5CddDFb3375CC",
      "gasPrice": {
        "_hex": "0xd6b0a4690"
      },
      "gasLimit": {
        "_hex": "0x249f0"
      },
      "to": "0xE28e72FCf78647ADCe1F1252F240bbfaebD63BcC",
      "value": {
        "_hex": "0x6c6b935b8bbd400000"
      },
      "nonce": 1,
      "data": "0x45466f3a",
      "r": "0x1e3373565cba9a5a75bc90f7aabd3b02558a48442883e08e480410302d5ff773",
      "s": "0x1c130aeb89cdb9eb5f9b1104bc8e4e80e6e336cb4689fa7277456495cea7115f",
      "v": 28,
      "creates": null,
      "raw": "0xf87201850d6b0a4690830249f094e28e72fcf78647adce1f1252f240bbfaebd63bcc896c6b935b8bbd4000008445466f3a1ca01e3373565cba9a5a75bc90f7aabd3b02558a48442883e08e480410302d5ff773a01c130aeb89cdb9eb5f9b1104bc8e4e80e6e336cb4689fa7277456495cea7115f",
      "networkId": 0,
      "chainId": 0
    }
  ]
}