{
  "hash": "0x31968b4f4dcf613632851bf877713d3a638dd8466d00534e3edc5190a9befc48",
  "parentHash": "0x3efac3343bc2dd8c5a47ef5362ca7c35a8398d441dc001ecc5c07ddb2378b4eb",
  "number": 85287,
  "timestamp": 1439561261,
  "nonce": "0xa367039c43a9d756",
  "difficulty": 2749078002441,
  "gasLimit": {
    "_hex": "0x2fefd8"
  },
  "gasUsed": {
    "_hex": "0x5208"
  },
  "miner": "0x46E8c1d63017660A7A3B9c6E928D5f8025c95E8C",
  "extraData": "0xdd809b302e392e34302b2b616339342d5257696e646f2f6d73762f4a4954",
  "transactions": [
    {
      "hash": "0x098f44bd5c99e94029f00d2bd30f6c2934e486c8ea2a98ecea4b514285ed7913",
      "blockHash": "0x31968b4f4dcf613632851bf877713d3a638dd8466d00534e3edc5190a9befc48",
      "blockNumber": 85287,
      "transactionIndex": 0,
      "confirmations": null,
      "from": "0x7435017A858B6B057e5a8cEDFeb79fF3f7dc2C70",
      "gasPrice": {
        "_hex": "0x1b48eb57e000"
      },
      "gasLimit": {
        "_hex": "0x15f90"
      },
      "to": "0xa9155Cb58f6d09111139f961731393E201209264",
      "value": {
        "_hex": "0x0"
      },
      "nonce": 1,
      "data": "0x",
      "r": "0x69fb86c45dee075031e9f2b45a4b77a539dc2a3d1fa6ffe0c0e6c68c3f1852eb",
      "s": "0x4eef46869baf344e570f6a27e9038b2cf8852040d85a83774cd1c5e955497386",
      "v": 27,
      "creates": null,
      "raw": "0xf86601861b48eb57e00083015f9094a9155cb58f6d09111139f961731393e20120926480801ba069fb86c45dee075031e9f2b45a4b77a539dc2a3d1fa6ffe0c0e6c68c3f1852eba04eef46869baf344e570f6a27e9038b2cf8852040d85a83774cd1c5e955497386",
      "networkId": 0,
      "chainId": 0
    }
  ]
}