{
  "hash": "0x6348231e58beedf865a9f5b4c062efd56c211dbd3b7dd59c26129e42b809d220",
  "parentHash": "0xd1b161d99ac902cf36e9014a8f4c12e3fdcf6a0861756045b6137f90207c575f",
  "number": 51384,
  "timestamp": 1439004009,
  "nonce": "0xf0e4b0ae20db3605",
  "difficulty": 1568885799814,
  "gasLimit": {
    "_hex": "0xaa50f"
  },
  "gasUsed": {
    "_hex": "0x15f90"
  },
  "miner": "0xf8E0CA3Ed80bd541b94BEdCf259e8CF2141A9523",
  "extraData": "0x476574682f76312e302e312f77696e646f77732f676f312e342e32",
  "transactions": [
    {
      "hash": "0x3d2d29b84b681cd4c31bf8b9e50e74f640cb326054bc56dc3b6975bf151717bd",
      "blockHash": "0x6348231e58beedf865a9f5b4c062efd56c211dbd3b7dd59c26129e42b809d220",
      "blockNumber": 51384,
      "transactionIndex": 0,
      "confirmations": null,
      "from": "0xf88a65846C19D8fc76fFf545fEAa7bbc7114F667",
      "gasPrice": {
        "_hex": "0xcca64c339"
      },
      "gasLimit": {
        "_hex": "0x15f90"
      },
      "to": "0x109C4f2CCc82C4d77Bde15F306707320294Aea3F",
      "value": {
        "_hex": "0xde0b6b3a7640000"
      },
      "nonce": 14,
      "data": "0x",
      "r": "0x84e5fad0c1322a519baa462852dd9b83dc8e4732ecf6f630bb064d1126469bcb",
      "s": "0x07303c1ffd8dd08e1bc1f2cde8f0d1dd0de2d27b12c30f7c52cd33f8bea30675",
      "v": 27,
      "creates": null,
      "raw": "0xf86d0e850cca64c33983015f9094109c4f2ccc82c4d77bde15f306707320294aea3f880de0b6b3a7640000801ba084e5fad0c1322a519baa462852dd9b83dc8e4732ecf6f630bb064d1126469bcba007303c1ffd8dd08e1bc1f2cde8f0d1dd0de2d27b12c30f7c52cd33f8bea30675",
      "networkId": 0,
      "chainId": 0
    }
  ]
}