{
  "hash": "0xce06a261c251d273ef88d207914fbb36d8da58e93e9955ebece8c597297f3205",
  "parentHash": "0x9c4207ba5556e44a83351d58fa9b236b42e1c2ba52310696c580e897ce06a87b",
  "number": 108849,
  "timestamp": 1439947134,
  "nonce": "0xfc7e7e803f470024",
  "difficulty": 4380692474649,
  "gasLimit": {
    "_hex": "0x2fefd8"
  },
  "gasUsed": {
    "_hex": "0x5208"
  },
  "miner": "0xf8E0CA3Ed80bd541b94BEdCf259e8CF2141A9523",
  "extraData": "0x476574682f76312e302e312f77696e646f77732f676f312e342e32",
  "transactions": [
    {
      "hash": "0x140b88f08736af341bb519022c3e6eea3dee0ca80093c410ba1ed90b7b1a1b4c",
      "blockHash": "0xce06a261c251d273ef88d207914fbb36d8da58e93e9955ebece8c597297f3205",
      "blockNumber": 108849,
      "transactionIndex": 0,
      "confirmations": null,
      "from": "0x8b6bdecDD971D3Fd0f59CDe23843B0320962C9B3",
      "gasPrice": {
        "_hex": "0xd641f460d"
      },
      "gasLimit": {
        "_hex": "0x15f90"
      },
      "to": "0x3b8E0D4377E08D6d82FB5F22B246399f54bfCddD",
      "value": {
        "_hex": "0x5af3107a40000"
      },
      "nonce": 1,
      "data": "0x",
      "r": "0x62a1ef8d399fa1d015443531fcc2f3f70e836fb5c76662b02c14b9e37674f673",
      "s": "0x6a138dbefc5ea3efc6fbeb3025416f6fb9fd2fc684cd8d1a76acac3b6bd3f346",
      "v": 27,
      "creates": null,
      "raw": "0xf86c01850d641f460d83015f90943b8e0d4377e08d6d82fb5f22b246399f54bfcddd8705af3107a40000801ba062a1ef8d399fa1d015443531fcc2f3f70e836fb5c76662b02c14b9e37674f673a06a138dbefc5ea3efc6fbeb3025416f6fb9fd2fc684cd8d1a76acac3b6bd3f346",
      "networkId": 0,
      "chainId": 0
    }
  ]
}