{
  "hash": "0x5c10dc651086ab29a6704fd5e660bb79d5287dff516904a6de7dd3ac76bda122",
  "parentHash": "0x14b9a9f7542baee58ef69a254a337db740d104cbfb9a23192f2267a7c244fde8",
  "number": 55895,
  "timestamp": 1439078875,
  "nonce": "0xe46121fca46962c3",
  "difficulty": 1607580539696,
  "gasLimit": {
    "_hex": "0x2fefd8"
  },
  "gasUsed": {
    "_hex": "0xa410"
  },
  "miner": "0xecAb9B89BbB858a7e3DDe3ed0b13946eDAEb5533",
  "extraData": "0x476574682f76312e302e312d38326566323666362f6c696e75782f676f312e34",
  "transactions": [
    {
      "hash": "0xfe36d39556ec5d64b8469b39da196c874ec4ac44329f6797079c7005dc959593",
      "blockHash": "0x5c10dc651086ab29a6704fd5e660bb79d5287dff516904a6de7dd3ac76bda122",
      "blockNumber": 55895,
      "transactionIndex": 0,
      "confirmations": null,
      "from": "0xe6A7a1d47ff21B6321162AEA7C6CB457D5476Bca",
      "gasPrice": {
        "_hex": "0xcb0603114"
      },
      "gasLimit": {
        "_hex": "0x55f0"
      },
      "to": "0x132dDeF595eE2Bb0092F7484f2DCBCBfeE0DCB65",
      "value": {
        "_hex": "0xc3c1b57416ae0fe0"
      },
      "nonce": 459,
      "data": "0x",
      "r": "0x2205da1c7d6b732729028becc41a6565b5434bfb4417cc37712b725911d19345",
      "s": "0x614505a6fbbb96e15b60c1e2a3e1c65d54c308b9b210d2f92d6a8cd95a8fb243",
      "v": 27,
      "creates": null,
      "raw": "0xf86e8201cb850cb06031148255f094132ddef595ee2bb0092f7484f2dcbcbfee0dcb6588c3c1b57416ae0fe0801ba02205da1c7d6b732729028becc41a6565b5434bfb4417cc37712b725911d19345a0614505a6fbbb96e15b60c1e2a3e1c65d54c308b9b210d2f92d6a8cd95a8fb243",
      "networkId": 0,
      "chainId": 0
    },
    {
      "hash": "0xbc3466646ef580121bc1d2b6a01343b4088ab0417e07eea7ea1b18d0c9b061c8",
      "blockHash": "0x5c10dc651086ab29a6704fd5e660bb79d5287dff516904a6de7dd3ac76bda122",
      "blockNumber": 55895,
      "transactionIndex": 1,
      "confirmations": null,
      "from": "0xe6A7a1d47ff21B6321162AEA7C6CB457D5476Bca",
      "gasPrice": {
        "_hex": "0xcb0603114"
      },
      "gasLimit": {
        "_hex": "0x55f0"
      },
      "to": "0xF161498A7f225A91C338015ca11833B3399393A8",
      "value": {
        "_hex": "0xc950aa0b2fd10fc0"
      },
      "nonce": 460,
      "data": "0x",
      "r": "0xa125c302e18aeb8a05904b88651a5fe0b56f971c3b6c063afe4e8308792a6b3b",
      "s": "0x265a587ceccdda34f820d4fc8e3831a11160bfdcde09ad9deeea737ff0173251",
      "v": 28,
      "creates": null,
      "raw": "0xf86e8201cc850cb06031148255f094f161498a7f225a91c338015ca11833b3399393a888c950aa0b2fd10fc0801ca0a125c302e18aeb8a05904b88651a5fe0b56f971c3b6c063afe4e8308792a6b3ba0265a587ceccdda34f820d4fc8e3831a11160bfdcde09ad9deeea737ff0173251",
      "networkId": 0,
      "chainId": 0
    }
  ]
}