{
  "hash": "0xac808bcd7048d3a947aed34d9ec13384e32c00f03af16a46273375c48ceb489f",
  "parentHash": "0x6ea1e17ac8aa45443341bbc0ca9834b2ae9f142bc08ec44bc44acf388a2db846",
  "number": 103150,
  "timestamp": 1439848468,
  "nonce": "0x1674793a9b6c5a40",
  "difficulty": 4197248326618,
  "gasLimit": {
    "_hex": "0x2fefd8"
  },
  "gasUsed": {
    "_hex": "0x5208"
  },
  "miner": "0xe6A7a1d47ff21B6321162AEA7C6CB457D5476Bca",
  "extraData": "0x476574682f76312e302e312d38326566323666362f6c696e75782f676f312e34",
  "transactions": [
    {
      "hash": "0x95fc830ff1dc30dc08adb65272fb731684dcd7ecd7a90da65c879cc65401691a",
      "blockHash": "0xac808bcd7048d3a947aed34d9ec13384e32c00f03af16a46273375c48ceb489f",
      "blockNumber": 103150,
      "transactionIndex": 0,
      "confirmations": null,
      "from": "0x32Be343B94f860124dC4fEe278FDCBD38C102D88",
      "gasPrice": {
        "_hex": "0xdb9cf5d85"
      },
      "gasLimit": {
        "_hex": "0x5208"
      },
      "to": "0x120A270bbC009644e35F0bB6ab13f95b8199c4ad",
      "value": {
        "_hex": "0x878678326eac900000"
      },
      "nonce": 1119,
      "data": "0x",
      "r": "0x77bfe5772f1cd8ef3d3efba007652364963bebb72cf96520f6f7b11a7014a94c",
      "s": "0x61ab31ba416bebe2c0c8c7a280d876f2533db7204b11d72622291f4b654255aa",
      "v": 28,
      "creates": null,
      "raw": "0xf86f82045f850db9cf5d8582520894120a270bbc009644e35f0bb6ab13f95b8199c4ad89878678326eac900000801ca077bfe5772f1cd8ef3d3efba007652364963bebb72cf96520f6f7b11a7014a94ca061ab31ba416bebe2c0c8c7a280d876f2533db7204b11d72622291f4b654255aa",
      "networkId": 0,
      "chainId": 0
    }
  ]
}