{
  "hash": "0x329908301acc062c7e84542681cf81d6aa181aa4ac151eb594d29792e95f01f3",
  "parentHash": "0x3f94d0f5d74969170e974c4989ec2983798b6c30b2b93008f9b3713b911a3053",
  "number": 61164,
  "timestamp": 1439167817,
  "nonce": "0xe9dda040f65256b2",
  "difficulty": 1727812359973,
  "gasLimit": {
    "_hex": "0x2fefd8"
  },
  "gasUsed": {
    "_hex": "0x5208"
  },
  "miner": "0xC49418429e58989172a4ACE0bab0cB8D3F00F97f",
  "extraData": "0x476574682f76312e302e312f6c696e75782f676f312e342e32",
  "transactions": [
    {
      "hash": "0x934e1bde627e81ea709d9f38c08a7b6b9faec8296b9bd6ec197d5fe478112bbb",
      "blockHash": "0x329908301acc062c7e84542681cf81d6aa181aa4ac151eb594d29792e95f01f3",
      "blockNumber": 61164,
      "transactionIndex": 0,
      "confirmations": null,
      "from": "0x6800E12aFd6CAa35c8482E7757119ccf6b576FD0",
      "gasPrice": {
        "_hex": "0xce88f0d24"
      },
      "gasLimit": {
        "_hex": "0x5208"
      },
      "to": "0x32Be343B94f860124dC4fEe278FDCBD38C102D88",
      "value": {
        "_hex": "0xddc93cdeb9e3400"
      },
      "nonce": 0,
      "data": "0x",
      "r": "0x2f0d414caf107769972ee9b8a129ed1f36ca64f543d166bba6b6d1eb9960160c",
      "s": "0x4d468865a9e2c567a2e452228563e9fba89d359e1518ba0e2acc1b573ffa9db0",
      "v": 27,
      "creates": null,
      "raw": "0xf86c80850ce88f0d248252089432be343b94f860124dc4fee278fdcbd38c102d88880ddc93cdeb9e3400801ba02f0d414caf107769972ee9b8a129ed1f36ca64f543d166bba6b6d1eb9960160ca04d468865a9e2c567a2e452228563e9fba89d359e1518ba0e2acc1b573ffa9db0",
      "networkId": 0,
      "chainId": 0
    }
  ]
}