{
  "hash": "0xd80b4c979fb9e8c8d6d3798250619704eee23244fae70fa9aa107e30dffeb1d5",
  "parentHash": "0x4088de57e40ea6ec25b94ce53f638b5c78c25a2f7741a7cacc87a85884ac0d5f",
  "number": 71251,
  "timestamp": 1439333184,
  "nonce": "0x3e7ae2f9e7f10c3f",
  "difficulty": 2146664727801,
  "gasLimit": {
    "_hex": "0x2fefd8"
  },
  "gasUsed": {
    "_hex": "0x13810"
  },
  "miner": "0xeB1325C8D9d3ea8D74aC11F4B00F1B2367686319",
  "extraData": "0x476574682f76312e302e312f77696e646f77732f676f312e342e32",
  "transactions": [
    {
      "hash": "0x2212e49b52051ec85f7d8368fbba7305933dd0d8b649f29ebedd91da772e25f4",
      "blockHash": "0xd80b4c979fb9e8c8d6d3798250619704eee23244fae70fa9aa107e30dffeb1d5",
      "blockNumber": 71251,
      "transactionIndex": 0,
      "confirmations": null,
      "from": "0x6d921977dEFE5f4e0682CA512De1D07b1f4802E1",
      "gasPrice": {
        "_hex": "0xd0786e697"
      },
      "gasLimit": {
        "_hex": "0x5208"
      },
      "to": "0x32Be343B94f860124dC4fEe278FDCBD38C102D88",
      "value": {
        "_hex": "0x13b91b657626c00"
      },
      "nonce": 4,
      "data": "0x",
      "r": "0xb19f834ecf6cde2bfd648683084c1080f5e58e9a22ee1af248a1f5c4d6bb5b35",
      "s": "0x7e782268c55faec32e5b6415f573d2a7c8487eb92dc995fb9a970c244e904e41",
      "v": 28,
      "creates": null,
      "raw": "0xf86c04850d0786e6978252089432be343b94f860124dc4fee278fdcbd38c102d8888013b91b657626c00801ca0b19f834ecf6cde2bfd648683084c1080f5e58e9a22ee1af248a1f5c4d6bb5b35a07e782268c55faec32e5b6415f573d2a7c8487eb92dc995fb9a970c244e904e41",
      "networkId": 0,
      "chainId": 0
    },
    {
      "hash": "0x3cb64a838fddfa4be52cff3727ec37bd1637c706ada5cf5b7013bb17177d68dd",
      "blockHash": "0xd80b4c979fb9e8c8d6d3798250619704eee23244fae70fa9aa107e30dffeb1d5",
      "blockNumber": 71251,
      "transactionIndex": 1,
      "confirmations": null,
      "from": "0x5a0f0935E8E5591B2f9f2d55f29C626B50292088",
      "gasPrice": {
        "_hex": "0xd0786e697"
      },
      "gasLimit": {
        "_hex": "0x5208"
      },
      "to": "0x32Be343B94f860124dC4fEe278FDCBD38C102D88",
      "value": {
        "_hex": "0xad778cc0fa3cd0000"
      },
      "nonce": 2,
      "data": "0x",
      "r": "0xb09a37adeb3f127251dded93306ca05db755bb0a5ffd265199be3a9da1127021",
      "s": "0x52dfad6c625c8fc9c17d03a67e9d200f33f93da0bb4e77e18fe748470373539a",
      "v": 27,
      "creates": null,
      "raw": "0xf86d02850d0786e6978252089432be343b94f860124dc4fee278fdcbd38c102d88890ad778cc0fa3cd0000801ba0b09a37adeb3f127251dded93306ca05db755bb0a5ffd265199be3a9da1127021a052dfad6c625c8fc9c17d03a67e9d200f33f93da0bb4e77e18fe748470373539a",
      "networkId": 0,
      "chainId": 0
    },
    {
      "hash": "0xf7c25324065f6b7758c0dc15956306cd27996d562e7bab8702e7643bfb7cc6fe",
      "blockHash": "0xd80b4c979fb9e8c8d6d3798250619704eee23244fae70fa9aa107e30dffeb1d5",
      "blockNumber": 71251,
      "transactionIndex": 2,
      "confirmations": null,
      "from": "0x17580B766f7453525ca4C6A88b01b50570EA088C",
      "gasPrice": {
        "_hex": "0xcbaae5aad"
      },
      "gasLimit": {
        "_hex": "0x61a80"
      },
      "to": "0x5Fe5B7546D1628f7348B023A0393de1FC825A4fD",
      "value": {
        "_hex": "0xde0b6b3a7640000"
      },
      "nonce": 132,
      "data": "0xb595b8b50000000000000000000000000000000000000000000000000000000000000001",
      "r": "0xacec9be97b374ac983bdb3338bf366deede659bc4d0997a4e35e050e42dfc10c",
      "s": "0x1d4160500e97a6b98636f84c67fbca548cf269af52288de7b02f547456076342",
      "v": 28,
      "creates": null,
      "raw": "0xf8928184850cbaae5aad83061a80945fe5b7546d1628f7348b023a0393de1fc825a4fd880de0b6b3a7640000a4b595b8b500000000000000000000000000000000000000000000000000000000000000011ca0acec9be97b374ac983bdb3338bf366deede659bc4d0997a4e35e050e42dfc10ca01d4160500e97a6b98636f84c67fbca548cf269af52288de7b02f547456076342",
      "networkId": 0,
      "chainId": 0
    }
  ]
}