{
  "hash": "0x3a0ac64bd22c74b776515201f790bace5543b2572c16008894aa9471efa2bbbe",
  "parentHash": "0xd75a78ae69c84ef5aea196693ddb5a69759969a3e6349534d084630489514c92",
  "number": 68437,
  "timestamp": 1439287913,
  "nonce": "0x6ef6f149e9624a74",
  "difficulty": 2009416834694,
  "gasLimit": {
    "_hex": "0x2fefd8"
  },
  "gasUsed": {
    "_hex": "0x38658"
  },
  "miner": "0xa50ec0D39fa913E62f1Bae7074E6F36caA71855b",
  "extraData": "0x",
  "transactions": [
    {
      "hash": "0xc5836d020cb8096acfd0ae14058e432a5603d399ac27ab3820eec38978dcbd3d",
      "blockHash": "0x3a0ac64bd22c74b776515201f790bace5543b2572c16008894aa9471efa2bbbe",
      "blockNumber": 68437,
      "transactionIndex": 0,
      "confirmations": null,
      "from": "0xE9b9F4aC8114911e13f659915F9A10661F6B5CB1",
      "gasPrice": {
        "_hex": "0xdba07b8d7"
      },
      "gasLimit": {
        "_hex": "0x15f90"
      },
      "to": "0xD441bA6FFe06b0BD76330aC8F9c2946dA2dF88A2",
      "value": {
        "_hex": "0x15181ff25a980000"
      },
      "nonce": 12,
      "data": "0x",
      "r": "0xf0d87954b0ae5d853ba397ef5a904250c328e9307bc792e3981ff39b6312c484",
      "s": "0x27704342a3738c52ad5ddf51b80bd519da5bdeab7095d90355d061ea7e6c98a4",
      "v": 28,
      "creates": null,
      "raw": "0xf86d0c850dba07b8d783015f9094d441ba6ffe06b0bd76330ac8f9c2946da2df88a28815181ff25a980000801ca0f0d87954b0ae5d853ba397ef5a904250c328e9307bc792e3981ff39b6312c484a027704342a3738c52ad5ddf51b80bd519da5bdeab7095d90355d061ea7e6c98a4",
      "networkId": 0,
      "chainId": 0
    },
    {
      "hash": "0x0a42a64a8c0348d1b77fdc2a77a47d68f2fa2452189cd38bbfc86776b2eb78cc",
      "blockHash": "0x3a0ac64bd22c74b776515201f790bace5543b2572c16008894aa9471efa2bbbe",
      "blockNumber": 68437,
      "transactionIndex": 1,
      "confirmations": null,
      "from": "0x3d8b48f50F63FC839A2Ee90280492Dfaa293FB60",
      "gasPrice": {
        "_hex": "0xba43b7400"
      },
      "gasLimit": {
        "_hex": "0x5208"
      },
      "to": "0xB1841580DCCAB8CA8b5Fd5625Ec73E4F71b1529C",
      "value": {
        "_hex": "0xaa9f075c200000"
      },
      "nonce": 1,
      "data": "0x",
      "r": "0x97ad462b426a07e64239771491c26b901d84f2cc1c17fe587ac104ba55da0aa5",
      "s": "0x1a7b354cf18baf12e972de97cfef6f46ba0bd35c4b931ac1f8e3ddf70564d2ee",
      "v": 27,
      "creates": null,
      "raw": "0xf86b01850ba43b740082520894b1841580dccab8ca8b5fd5625ec73e4f71b1529c87aa9f075c200000801ba097ad462b426a07e64239771491c26b901d84f2cc1c17fe587ac104ba55da0aa5a01a7b354cf18baf12e972de97cfef6f46ba0bd35c4b931ac1f8e3ddf70564d2ee",
      "networkId": 0,
      "chainId": 0
    },
    {
      "hash": "0x908c66593a6933f63b8652b593bb31a718cc68286d1937633ed5f4185721b80a",
      "blockHash": "0x3a0ac64bd22c74b776515201f790bace5543b2572c16008894aa9471efa2bbbe",
      "blockNumber": 68437,
      "transactionIndex": 2,
      "confirmations": null,
      "from": "0x6c83B3f5c405E3De531aEc9541F146786a30AC6F",
      "gasPrice": {
        "_hex": "0xba43b7400"
      },
      "gasLimit": {
        "_hex": "0x5208"
      },
      "to": "0x27270e8d3247299FA3B9C8A9825a37fDc3329328",
      "value": {
        "_hex": "0xaa9f075c200000"
      },
      "nonce": 1,
      "data": "0x",
      "r": "0x73083ddf93baca973750f8bb362e653228b5acc5a6eb0ff404e82468fa9ae916",
      "s": "0x22c0f02cbc81c90ec8264d652ee594579446e0f2b784db053c7087d327571fa7",
      "v": 27,
      "creates": null,
      "raw": "0xf86b01850ba43b74008252089427270e8d3247299fa3b9c8a9825a37fdc332932887aa9f075c200000801ba073083ddf93baca973750f8bb362e653228b5acc5a6eb0ff404e82468fa9ae916a022c0f02cbc81c90ec8264d652ee594579446e0f2b784db053c7087d327571fa7",
      "networkId": 0,
      "chainId": 0
    },
    {
      "hash": "0xb8e1f3de839946458b5e181c5ad270312397fecb82955378a1160ae2d1c7dcf6",
      "blockHash": "0x3a0ac64bd22c74b776515201f790bace5543b2572c16008894aa9471efa2bbbe",
      "blockNumber": 68437,
      "transactionIndex": 3,
      "confirmations": null,
      "from": "0x636F3A63A881643a3cbE4C906284bbd315E541ab",
      "gasPrice": {
        "_hex": "0xba43b7400"
      },
      "gasLimit": {
        "_hex": "0x5208"
      },
      "to": "0xDD30f0c0457918d4539c5fF06577cDc58EC9E38e",
      "value": {
        "_hex": "0xaa9f075c200000"
      },
      "nonce": 1,
      "data": "0x",
      "r": "0x61def3dce703a5f4e138611a8011a9cbe42786741519e3c9a54e918722321a87",
      "s": "0x6b298b36bb17676f1b168e1fa51d12b56661fe622697ff7190f159205e77c7d4",
      "v": 27,
      "creates": null,
      "raw": "0xf86b01850ba43b740082520894dd30f0c0457918d4539c5ff06577cdc58ec9e38e87aa9f075c200000801ba061def3dce703a5f4e138611a8011a9cbe42786741519e3c9a54e918722321a87a06b298b36bb17676f1b168e1fa51d12b56661fe622697ff7190f159205e77c7d4",
      "networkId": 0,
      "chainId": 0
    },
    {
      "hash": "0x8fb75732e9cbc7b17731f61eeded06d56acd6e63cbd057934f4cfa77c62ddd37",
      "blockHash": "0x3a0ac64bd22c74b776515201f790bace5543b2572c16008894aa9471efa2bbbe",
      "blockNumber": 68437,
      "transactionIndex": 4,
      "confirmations": null,
      "from": "0x7301971fe63330De23ea059Ee5A6C8f7A5333Af7",
      "gasPrice": {
        "_hex": "0xba43b7400"
      },
      "gasLimit": {
        "_hex": "0x5208"
      },
      "to": "0x6F8Da0d26c7d0502dA46cbB1BBFd2721F7674C43",
      "value": {
        "_hex": "0xaa9f075c200000"
      },
      "nonce": 1,
      "data": "0x",
      "r": "0x6b6fe020d035be9166e2c5bcc09f476d941d39ea51cf2980ebd7d2b2220b6365",
      "s": "0x114bb5932ec6f8c29e7419714fec5cbcf3d725b3fe462437d2bee0de6e4061e9",
      "v": 28,
      "creates": null,
      "raw": "0xf86b01850ba43b7400825208946f8da0d26c7d0502da46cbb1bbfd2721f7674c4387aa9f075c200000801ca06b6fe020d035be9166e2c5bcc09f476d941d39ea51cf2980ebd7d2b2220b6365a0114bb5932ec6f8c29e7419714fec5cbcf3d725b3fe462437d2bee0de6e4061e9",
      "networkId": 0,
      "chainId": 0
    },
    {
      "hash": "0xfb7efbee5b03c5055f0dfa73bf38b9d62048586a90dfad400c7aa0cffdd1ab5f",
      "blockHash": "0x3a0ac64bd22c74b776515201f790bace5543b2572c16008894aa9471efa2bbbe",
      "blockNumber": 68437,
      "transactionIndex": 5,
      "confirmations": null,
      "from": "0xe311b530D342689Afa07508D9F99ff50790de6aB",
      "gasPrice": {
        "_hex": "0xba43b7400"
      },
      "gasLimit": {
        "_hex": "0x5208"
      },
      "to": "0xfA16a750a87A3409e99D82794A41288752f1F23c",
      "value": {
        "_hex": "0xaa9f075c200000"
      },
      "nonce": 1,
      "data": "0x",
      "r": "0x88c988b72d3cc1219d6ea75befd9850cd854304261f4aba7ce1df1a282c6e7ed",
      "s": "0x0853c1a92d825712f7638a4ac942f011aaabd7c1e707bad9278b82bd3fd35a1e",
      "v": 28,
      "creates": null,
      "raw": "0xf86b01850ba43b740082520894fa16a750a87a3409e99d82794a41288752f1f23c87aa9f075c200000801ca088c988b72d3cc1219d6ea75befd9850cd854304261f4aba7ce1df1a282c6e7eda00853c1a92d825712f7638a4ac942f011aaabd7c1e707bad9278b82bd3fd35a1e",
      "networkId": 0,
      "chainId": 0
    },
    {
      "hash": "0x11d0a428d35af0f39cb63589237736658e243be96c28b412611939e2cca5aede",
      "blockHash": "0x3a0ac64bd22c74b776515201f790bace5543b2572c16008894aa9471efa2bbbe",
      "blockNumber": 68437,
      "transactionIndex": 6,
      "confirmations": null,
      "from": "0xb3Ac99Fc53fAEDbE62160E7c06392C9754A7Fd0c",
      "gasPrice": {
        "_hex": "0xba43b7400"
      },
      "gasLimit": {
        "_hex": "0x5208"
      },
      "to": "0x96dF386cDC2aC081c2964090f9e32eF0d32eFfeF",
      "value": {
        "_hex": "0xaa9f075c200000"
      },
      "nonce": 1,
      "data": "0x",
      "r": "0x8462a9cd29b57da850af4387d3d216bf03359b40f97be761bd0c2f453a5057c9",
      "s": "0x2fc997f7cbf99a564d05318911bef0a1f4ef56e4b34a6abd02f624c966f2bf8a",
      "v": 27,
      "creates": null,
      "raw": "0xf86b01850ba43b74008252089496df386cdc2ac081c2964090f9e32ef0d32effef87aa9f075c200000801ba08462a9cd29b57da850af4387d3d216bf03359b40f97be761bd0c2f453a5057c9a02fc997f7cbf99a564d05318911bef0a1f4ef56e4b34a6abd02f624c966f2bf8a",
      "networkId": 0,
      "chainId": 0
    },
    {
      "hash": "0x0a0d21d504939aa027c060acd01c9891d6cfdb583e286b5169e1ae69304193b7",
      "blockHash": "0x3a0ac64bd22c74b776515201f790bace5543b2572c16008894aa9471efa2bbbe",
      "blockNumber": 68437,
      "transactionIndex": 7,
      "confirmations": null,
      "from": "0xb1792f5E416e5B3C7C4940C53C3de3357D5a366C",
      "gasPrice": {
        "_hex": "0xba43b7400"
      },
      "gasLimit": {
        "_hex": "0x5208"
      },
      "to": "0x8eECafE6f70028A34D7584f4A92EF6b2f27287Ec",
      "value": {
        "_hex": "0xaa9f075c200000"
      },
      "nonce": 1,
      "data": "0x",
      "r": "0xae0b8c44c13c398fad11303ede9f2b480bcc88cac2f5d920a4d05f953e4a5181",
      "s": "0x55731e3161ebfc94b3a9fb2a0ce35e941b26cd49d3002f42f8b6d81796b36ba3",
      "v": 28,
      "creates": null,
      "raw": "0xf86b01850ba43b7400825208948eecafe6f70028a34d7584f4a92ef6b2f27287ec87aa9f075c200000801ca0ae0b8c44c13c398fad11303ede9f2b480bcc88cac2f5d920a4d05f953e4a5181a055731e3161ebfc94b3a9fb2a0ce35e941b26cd49d3002f42f8b6d81796b36ba3",
      "networkId": 0,
      "chainId": 0
    },
    {
      "hash": "0xdbbc4b944fdcb4af5a6929503f44e253874c6229499bb8b184553c72574f6abc",
      "blockHash": "0x3a0ac64bd22c74b776515201f790bace5543b2572c16008894aa9471efa2bbbe",
      "blockNumber": 68437,
      "transactionIndex": 8,
      "confirmations": null,
      "from": "0xe3320c8Aa51E372F04AAcbe28576C25583A8BAAA",
      "gasPrice": {
        "_hex": "0xba43b7400"
      },
      "gasLimit": {
        "_hex": "0x5208"
      },
      "to": "0x5eDbe11c727D6793BF8bEf3DCa60ae9E666c5dF2",
      "value": {
        "_hex": "0xaa9f075c200000"
      },
      "nonce": 1,
      "data": "0x",
      "r": "0xf10334adfed1def0360dfc3e941058a58d872a0ef97fc8bc3a726985b9c51505",
      "s": "0x681bfdbbac64abbc263376f9d80826c5cc8e584bdaf425fd50a08b83b4120a07",
      "v": 27,
      "creates": null,
      "raw": "0xf86b01850ba43b7400825208945edbe11c727d6793bf8bef3dca60ae9e666c5df287aa9f075c200000801ba0f10334adfed1def0360dfc3e941058a58d872a0ef97fc8bc3a726985b9c51505a0681bfdbbac64abbc263376f9d80826c5cc8e584bdaf425fd50a08b83b4120a07",
      "networkId": 0,
      "chainId": 0
    },
    {
      "hash": "0xb6540e27d6844d380ff0ec6e257cdc6561c1aa1cfbbb9f5a21e8ca4a8830c151",
      "blockHash": "0x3a0ac64bd22c74b776515201f790bace5543b2572c16008894aa9471efa2bbbe",
      "blockNumber": 68437,
      "transactionIndex": 9,
      "confirmations": null,
      "from": "0x124717c55B2982693C7785B5eaa7aCD2880C5D48",
      "gasPrice": {
        "_hex": "0xba43b7400"
      },
      "gasLimit": {
        "_hex": "0x5208"
      },
      "to": "0x680267cA5790c7e18062966A58784F8401f6DF72",
      "value": {
        "_hex": "0xaa9f075c200000"
      },
      "nonce": 1,
      "data": "0x",
      "r": "0x0db4b66ad140623759b7045a7a428e3cbe9e8634e8aee327a496a3c2aed5a417",
      "s": "0x51660248cd6717cd94da7b1d2554c2b898d7df309123528fa6abdd020eb9d9a9",
      "v": 27,
      "creates": null,
      "raw": "0xf86b01850ba43b740082520894680267ca5790c7e18062966a58784f8401f6df7287aa9f075c200000801ba00db4b66ad140623759b7045a7a428e3cbe9e8634e8aee327a496a3c2aed5a417a051660248cd6717cd94da7b1d2554c2b898d7df309123528fa6abdd020eb9d9a9",
      "networkId": 0,
      "chainId": 0
    },
    {
      "hash": "0x00c424336e15c4eb7a0a7dbaa542a63f5cfe902f1b1a9e9f05f11b91806927e3",
      "blockHash": "0x3a0ac64bd22c74b776515201f790bace5543b2572c16008894aa9471efa2bbbe",
      "blockNumber": 68437,
      "transactionIndex": 10,
      "confirmations": null,
      "from": "0xDA72851d88C0c7A0e2000E72e2d7959470Ef435d",
      "gasPrice": {
        "_hex": "0xba43b7400"
      },
      "gasLimit": {
        "_hex": "0x5208"
      },
      "to": "0xb6363dE37085c567c38eD8afc7c82ec956f308e5",
      "value": {
        "_hex": "0xaa9f075c200000"
      },
      "nonce": 1,
      "data": "0x",
      "r": "0x9b5dc6c3dc0da78bd5c8f45b82bba9c24ab2985dc46509134a2caf548e09f03e",
      "s": "0x16c889febab16fef8568cd6d54893c243d8ed2add78042a24da03208388add0a",
      "v": 27,
      "creates": null,
      "raw": "0xf86b01850ba43b740082520894b6363de37085c567c38ed8afc7c82ec956f308e587aa9f075c200000801ba09b5dc6c3dc0da78bd5c8f45b82bba9c24ab2985dc46509134a2caf548e09f03ea016c889febab16fef8568cd6d54893c243d8ed2add78042a24da03208388add0a",
      "networkId": 0,
      "chainId": 0
    }
  ]
}