{
  "hash": "0x71ac213850fcc9341113e544668be41335c78a77a66572be52a7908825b93c6e",
  "parentHash": "0x73c11bdc9a6e958a868ead40a97032f78645eca205dead49d79a3688a889a9a1",
  "number": 88609,
  "timestamp": 1439610716,
  "nonce": "0x3530df2f197578f0",
  "difficulty": 3237923027330,
  "gasLimit": {
    "_hex": "0x2fefd8"
  },
  "gasUsed": {
    "_hex": "0x5208"
  },
  "miner": "0xeB1325C8D9d3ea8D74aC11F4B00F1B2367686319",
  "extraData": "0x476574682f76312e302e312f77696e646f77732f676f312e342e32",
  "transactions": [
    {
      "hash": "0x5eaee9e22e5287e9b0fcb1052480c357fef04df7aed899304751b3cf11e75cce",
      "blockHash": "0x71ac213850fcc9341113e544668be41335c78a77a66572be52a7908825b93c6e",
      "blockNumber": 88609,
      "transactionIndex": 0,
      "confirmations": null,
      "from": "0xa9E3dE793dD570894Aadb48ce8990062Fd4bb5Bb",
      "gasPrice": {
        "_hex": "0xde9ee6557"
      },
      "gasLimit": {
        "_hex": "0x5208"
      },
      "to": "0x32Be343B94f860124dC4fEe278FDCBD38C102D88",
      "value": {
        "_hex": "0x3635c54276290a0000"
      },
      "nonce": 2,
      "data": "0x",
      "r": "0x527f7f7fbba87e7589d707dc4ecbef99bfbff4f2d0597f467bb8a87080c48e26",
      "s": "0x56cd7b38ddbd48b730912c8e24fbb3854e33c4175523e1e92d6fe689314cd945",
      "v": 28,
      "creates": null,
      "raw": "0xf86d02850de9ee65578252089432be343b94f860124dc4fee278fdcbd38c102d88893635c54276290a0000801ca0527f7f7fbba87e7589d707dc4ecbef99bfbff4f2d0597f467bb8a87080c48e26a056cd7b38ddbd48b730912c8e24fbb3854e33c4175523e1e92d6fe689314cd945",
      "networkId": 0,
      "chainId": 0
    }
  ]
}