{
  "hash": "0x603efc7f48b8372b90d9162b810f9bfbd4d5e341c80b2c97acef4482df2aed69",
  "parentHash": "0x226fcbe0f5c91e7ad6facfa63b763e1d1d7155ad8210a1c65844cc938f93bc18",
  "number": 51913,
  "timestamp": 1439013032,
  "nonce": "0xaa92ff6893fe7511",
  "difficulty": 1561907908812,
  "gasLimit": {
    "_hex": "0xee31e"
  },
  "gasUsed": {
    "_hex": "0xa410"
  },
  "miner": "0xf8E0CA3Ed80bd541b94BEdCf259e8CF2141A9523",
  "extraData": "0x476574682f76312e302e312f77696e646f77732f676f312e342e32",
  "transactions": [
    {
      "hash": "0xca034694b7d9bfdd98232ab6215ca049ecd31001d5ae954efb7816eb46514aed",
      "blockHash": "0x603efc7f48b8372b90d9162b810f9bfbd4d5e341c80b2c97acef4482df2aed69",
      "blockNumber": 51913,
      "transactionIndex": 0,
      "confirmations": null,
      "from": "0x3f4e6ef4c172d29A5bfc4CC6073A6602eca6c2EB",
      "gasPrice": {
        "_hex": "0xd68d7907e"
      },
      "gasLimit": {
        "_hex": "0x5208"
      },
      "to": "0x32Be343B94f860124dC4fEe278FDCBD38C102D88",
      "value": {
        "_hex": "0xddc76dd3fd23c00"
      },
      "nonce": 1,
      "data": "0x",
      "r": "0xc9746db8ec86308f4e1a65f67a42d6092c1528d7fb628bc1b4642ac65be69bb5",
      "s": "0x4923588cf67aa6f0bbc136fbfadab7f00c6ecdbac47d654ec28e6c5c63a7e62a",
      "v": 28,
      "creates": null,
      "raw": "0xf86c01850d68d7907e8252089432be343b94f860124dc4fee278fdcbd38c102d88880ddc76dd3fd23c00801ca0c9746db8ec86308f4e1a65f67a42d6092c1528d7fb628bc1b4642ac65be69bb5a04923588cf67aa6f0bbc136fbfadab7f00c6ecdbac47d654ec28e6c5c63a7e62a",
      "networkId": 0,
      "chainId": 0
    },
    {
      "hash": "0xd84a0930f203f362d3fea47d8de2821edd06850edf82d404b00efa794d8e91ca",
      "blockHash": "0x603efc7f48b8372b90d9162b810f9bfbd4d5e341c80b2c97acef4482df2aed69",
      "blockNumber": 51913,
      "transactionIndex": 1,
      "confirmations": null,
      "from": "0x32Be343B94f860124dC4fEe278FDCBD38C102D88",
      "gasPrice": {
        "_hex": "0xd45e54dad"
      },
      "gasLimit": {
        "_hex": "0x5208"
      },
      "to": "0x5947168a79DB294bdA0dB697a2e4ec7Dfb2A0A5E",
      "value": {
        "_hex": "0x1067329b58d94c00"
      },
      "nonce": 0,
      "data": "0x",
      "r": "0xe3aeb9ab4dd6e15fc89ea6ac5fe09945c530f57c7d68699e9588ec4e98fe96c7",
      "s": "0x57c5bbf8245fd965f922137137504c8088816a70bba3e5fa74d121aaf5b5342f",
      "v": 28,
      "creates": null,
      "raw": "0xf86c80850d45e54dad825208945947168a79db294bda0db697a2e4ec7dfb2a0a5e881067329b58d94c00801ca0e3aeb9ab4dd6e15fc89ea6ac5fe09945c530f57c7d68699e9588ec4e98fe96c7a057c5bbf8245fd965f922137137504c8088816a70bba3e5fa74d121aaf5b5342f",
      "networkId": 0,
      "chainId": 0
    }
  ]
}