{
  "hash": "0xe9a9712049628e5bf205a2fd0e2aca2bd9e32ba941b558684a6319d0401539d2",
  "parentHash": "0x749b7a440ef49b2a3f0a9eac8756df4481903d16df9d97262b332c49dfa71e3c",
  "number": 79152,
  "timestamp": 1439465447,
  "nonce": "0x66bbce5e6b35ba70",
  "difficulty": 2311000419175,
  "gasLimit": {
    "_hex": "0x2fefd8"
  },
  "gasUsed": {
    "_hex": "0xfdb79"
  },
  "miner": "0xe6A7a1d47ff21B6321162AEA7C6CB457D5476Bca",
  "extraData": "0x476574682f76312e302e312d38326566323666362f6c696e75782f676f312e34",
  "transactions": [
    {
      "hash": "0x76d23b779a68125162494dc6c360db7f5146e2cf6000b78cee32e2e8e6d0ae67",
      "blockHash": "0xe9a9712049628e5bf205a2fd0e2aca2bd9e32ba941b558684a6319d0401539d2",
      "blockNumber": 79152,
      "transactionIndex": 0,
      "confirmations": null,
      "from": "0x48659D8f8C9A2FD44F68daA55d23A608FBE500DC",
      "gasPrice": {
        "_hex": "0xe0c9cadeb"
      },
      "gasLimit": {
        "_hex": "0x15f90"
      },
      "to": "0xBB33a4b72d92FA335a3b591Ce7eE217f7a7338C1",
      "value": {
        "_hex": "0x176b344f2a78c0000"
      },
      "nonce": 4,
      "data": "0x",
      "r": "0x8aaa7ae55f61f186a505c6f4f6b79fce9fd64d06af8cf30e2212b1697cf3a0de",
      "s": "0x70d245498d6f3d678c0a3df1cf2a5f7de0f72c2862c1cee73bc8d5ef179a5246",
      "v": 27,
      "creates": null,
      "raw": "0xf86e04850e0c9cadeb83015f9094bb33a4b72d92fa335a3b591ce7ee217f7a7338c1890176b344f2a78c0000801ba08aaa7ae55f61f186a505c6f4f6b79fce9fd64d06af8cf30e2212b1697cf3a0dea070d245498d6f3d678c0a3df1cf2a5f7de0f72c2862c1cee73bc8d5ef179a5246",
      "networkId": 0,
      "chainId": 0
    },
    {
      "hash": "0x066f065f30eb100aa285d4b90643c9956f43db12b395edbecd5d3f8b1b6a63de",
      "blockHash": "0xe9a9712049628e5bf205a2fd0e2aca2bd9e32ba941b558684a6319d0401539d2",
      "blockNumber": 79152,
      "transactionIndex": 1,
      "confirmations": null,
      "from": "0xB7576e9d314Df41EC5506494293Afb1bd5D3f65d",
      "gasPrice": {
        "_hex": "0xba43b7400"
      },
      "gasLimit": {
        "_hex": "0xf8974"
      },
      "to": null,
      "value": {
        "_hex": "0x0"
      },
      "nonce": 4,
      "data": "0x7f6761766f66796f726b000000000000000000000000000000000000000000000060608181527401000000000000000000000000000000000000000060698181526029808420600301805472fc9b9fd6ae40fd47941399915b9ce4fd5e1f28600160a060020a0319909116811790915585855292909152822079010000000000000000000000000000000000000000000000000060049091015560a0604052600991829052608092835280549181556000819052917f7f82d8a0b40fcf07134f3636b6610c244cc76bf7c8c3bd1c6bd7b88e869d86566020601f9093019290920482019160895b828111156101045782518260005055916020019190600101906100e6565b506101209291505b8082111561022d576000815560010161010c565b5050604080517f4e616d6552656700000000000000000000000000000000000000000000000000808252740100000000000000000000000000000000000000006007838101829052845193849003602790810185206003018054600160a060020a0319163090811790915584865285830184905286519586900390910185207901000000000000000000000000000000000000000000000000006004919091015584860190955283526020830191909152909160009181101561002157909001600050908051906020019082805482825590600052602060002090601f01602090048101928215610231579182015b8281111561023157825182600050559160200191906001019061020f565b5090565b5061023d92915061010c565b5050610bcd8061024e6000396000f300606060405236156100985760e060020a600035046301984892811461009a578063213b9eb81461011d578063511b1df9146102315780637f445c24146102c8578063ae999ece14610362578063c47f00271461047b578063ccf4f41314610515578063dd54a62f1461062a578063df55b41a146106bb578063e51ace1614610755578063fbf58b3e14610811578063fd6f543014610926575b005b610a2d600435604080516020810190915260008082528260a060020a811015610002576040805182546020601f82018190048102830181019093528082529093509083018282801561011157820191906000526020600020905b8154815290600101906020018083116100f457829003601f168201915b505050505090506102c3565b6040805160206004803590810135601f810183900483028401830190945283835261009893602493929184019181908401838280828437509495359450505050508133600160a060020a031660a060020a60005082604051808280519060200190808383829060006004602084601f0104600302600f01f15090910193845250506040519182900360200190912060030154600160a060020a031690911415905061022b578160a060020a60005084604051808280519060200190808383829060006004602084601f0104600302600f01f15090910193845250506040519182900360200182208054600160a060020a031916909317909255600080516020610bad83398151915290600090a25b505b5050565b6040805160206004803590810135601f8101839004830284018301909452838352610a9b93602493929184019181908401838280828437509495505050505050600060a060020a60005082604051808280519060200190808383829060006004602084601f0104600302600f01f15090910193845250506040519182900360200190912054600160a060020a03169150505b919050565b6040805160206004803590810135601f8101839004830284018301909452838352610a9b93602493929184019181908401838280828437509495505050505050600060a060020a60005082604051808280519060200190808383829060006004602084601f0104600302600f01f15090910193845250506040519182900360200190912060010154600160a060020a031691506102c39050565b6040805160206004803590810135601f810183900483028401830190945283835261009893602493929184019181908401838280828437509495505050505050600060a060020a60005082604051808280519060200190808383829060006004602084601f0104600302600f01f15090910193845250506040519182900360200190912060038101549092600160a060020a039190911614905080156104105750670de0b6b3a76400003410155b8061043857506003810154600160a060020a0316600014801590610438575060048101543410155b1561022d5760048101546000901115610b575760048101546003820154604051600160a060020a03919091169160009182818181858883f1935050505050610b5e565b6040805160206004803590810135601f8101839004830284018301909452838352610098936024939291840191819084018382808284375094955050505050508060003360a060020a81101561000257825181548183558284526020938490209294601f91909101849004830193919291018215610afe579182015b82811115610afe5782518260005055916020019190600101906104f7565b6040805160206004803590810135601f810183900483028401830190945283835261009893602493929184019181908401838280828437509495359450505050508133600160a060020a031660a060020a60005082604051808280519060200190808383829060006004602084601f0104600302600f01f15090910193845250506040519182900360200190912060030154600160a060020a031690911415905061022b578160a060020a60005084604051808280519060200190808383829060006004602084601f0104600302600f01f15090910193845250506040519182900360200182206001018054600160a060020a031916909317909255600080516020610bad83398151915290600090a2505050565b6040805160206004803590810135601f8101839004830284018301909452838352610ab893602493929184019181908401838280828437509495505050505050600060a060020a60005082604051808280519060200190808383829060006004602084601f0104600302600f01f1509091019384525050604051918290036020019091206002015491506102c39050565b6040805160206004803590810135601f8101839004830284018301909452838352610a9b93602493929184019181908401838280828437509495505050505050600060a060020a60005082604051808280519060200190808383829060006004602084601f0104600302600f01f15090910193845250506040519182900360200190912060030154600160a060020a031691506102c39050565b6040805160206004803590810135601f8101839004830284018301909452838352610aca936024939291840191819084018382808284375094955050505050506000600060006000600060a060020a60005086604051808280519060200190808383829060006004602084601f0104600302600f01f15090910193845250506040519182900360200190912060038101548154600183015460029390930154600160a060020a039182169b9382169a5098501695509350505050565b6040805160206004803590810135601f810183900483028401830190945283835261009893602493929184019181908401838280828437509495359450505050508133600160a060020a031660a060020a60005082604051808280519060200190808383829060006004602084601f0104600302600f01f15090910193845250506040519182900360200190912060030154600160a060020a031690911415905061022b578160a060020a60005084604051808280519060200190808383829060006004602084601f0104600302600f01f15090910193845250506040519182900360200182206003018054600160a060020a031916909317909255600080516020610bad83398151915290600090a2505050565b6040805160206004803590810135601f810183900483028401830190945283835261009893602493929184019181908401838280828437509495359450505050508133600160a060020a031660a060020a60005082604051808280519060200190808383829060006004602084601f0104600302600f01f15090910193845250506040519182900360200190912060030154600160a060020a031690911415905061022b578160a060020a60005084604051808280519060200190808383829060006004602084601f0104600302600f01f150909101938452505060405191829003602001822060020192909255600080516020610bad83398151915290600090a2505050565b60405180806020018281038252838181518152602001915080519060200190808383829060006004602084601f0104600302600f01f150905090810190601f168015610a8d5780820380516001836020036101000a031916815260200191505b509250505060405180910390f35b60408051600160a060020a03929092168252519081900360200190f35b60408051918252519081900360200190f35b60408051600160a060020a039586168152938516602085015283810192909252909216606082015290519081900360800190f35b50610b1a9291505b80821115610b535760008155600101610b06565b5050604051600160a060020a033316907f8ca8593febbed3bd243d2c96b80893cf0db57f85a2850286eea8c037cd9395be90600090a250565b5090565b3460048201555b600481018054600a029055600381018054600160a060020a0319163317905560405182907fc5857e0793af9e0b936336856d784101062ce2b928f1b57228c26a08ac826f5690600090a2505056001cf7652f1f9289dc41763c5bd36534c9772d48aa26021274d212f227d4b69765",
      "r": "0x6a61bead8cc846008edda8990ecb887fe49910e9cd62d201fb405e70f3c0a24e",
      "s": "0x787189c7e05357a1863699f1dc919ba9626de8a9e60f65d1d289e6d9d72415d6",
      "v": 28,
      "creates": "0x047CDBA9627A8686bb24b3a65D87DaB7EfA53D31",
      "raw": "0xf90e6e04850ba43b7400830f89748080b90e1b7f6761766f66796f726b000000000000000000000000000000000000000000000060608181527401000000000000000000000000000000000000000060698181526029808420600301805472fc9b9fd6ae40fd47941399915b9ce4fd5e1f28600160a060020a0319909116811790915585855292909152822079010000000000000000000000000000000000000000000000000060049091015560a0604052600991829052608092835280549181556000819052917f7f82d8a0b40fcf07134f3636b6610c244cc76bf7c8c3bd1c6bd7b88e869d86566020601f9093019290920482019160895b828111156101045782518260005055916020019190600101906100e6565b506101209291505b8082111561022d576000815560010161010c565b5050604080517f4e616d6552656700000000000000000000000000000000000000000000000000808252740100000000000000000000000000000000000000006007838101829052845193849003602790810185206003018054600160a060020a0319163090811790915584865285830184905286519586900390910185207901000000000000000000000000000000000000000000000000006004919091015584860190955283526020830191909152909160009181101561002157909001600050908051906020019082805482825590600052602060002090601f01602090048101928215610231579182015b8281111561023157825182600050559160200191906001019061020f565b5090565b5061023d92915061010c565b5050610bcd8061024e6000396000f300606060405236156100985760e060020a600035046301984892811461009a578063213b9eb81461011d578063511b1df9146102315780637f445c24146102c8578063ae999ece14610362578063c47f00271461047b578063ccf4f41314610515578063dd54a62f1461062a578063df55b41a146106bb578063e51ace1614610755578063fbf58b3e14610811578063fd6f543014610926575b005b610a2d600435604080516020810190915260008082528260a060020a811015610002576040805182546020601f82018190048102830181019093528082529093509083018282801561011157820191906000526020600020905b8154815290600101906020018083116100f457829003601f168201915b505050505090506102c3565b6040805160206004803590810135601f810183900483028401830190945283835261009893602493929184019181908401838280828437509495359450505050508133600160a060020a031660a060020a60005082604051808280519060200190808383829060006004602084601f0104600302600f01f15090910193845250506040519182900360200190912060030154600160a060020a031690911415905061022b578160a060020a60005084604051808280519060200190808383829060006004602084601f0104600302600f01f15090910193845250506040519182900360200182208054600160a060020a031916909317909255600080516020610bad83398151915290600090a25b505b5050565b6040805160206004803590810135601f8101839004830284018301909452838352610a9b93602493929184019181908401838280828437509495505050505050600060a060020a60005082604051808280519060200190808383829060006004602084601f0104600302600f01f15090910193845250506040519182900360200190912054600160a060020a03169150505b919050565b6040805160206004803590810135601f8101839004830284018301909452838352610a9b93602493929184019181908401838280828437509495505050505050600060a060020a60005082604051808280519060200190808383829060006004602084601f0104600302600f01f15090910193845250506040519182900360200190912060010154600160a060020a031691506102c39050565b6040805160206004803590810135601f810183900483028401830190945283835261009893602493929184019181908401838280828437509495505050505050600060a060020a60005082604051808280519060200190808383829060006004602084601f0104600302600f01f15090910193845250506040519182900360200190912060038101549092600160a060020a039190911614905080156104105750670de0b6b3a76400003410155b8061043857506003810154600160a060020a0316600014801590610438575060048101543410155b1561022d5760048101546000901115610b575760048101546003820154604051600160a060020a03919091169160009182818181858883f1935050505050610b5e565b6040805160206004803590810135601f8101839004830284018301909452838352610098936024939291840191819084018382808284375094955050505050508060003360a060020a81101561000257825181548183558284526020938490209294601f91909101849004830193919291018215610afe579182015b82811115610afe5782518260005055916020019190600101906104f7565b6040805160206004803590810135601f810183900483028401830190945283835261009893602493929184019181908401838280828437509495359450505050508133600160a060020a031660a060020a60005082604051808280519060200190808383829060006004602084601f0104600302600f01f15090910193845250506040519182900360200190912060030154600160a060020a031690911415905061022b578160a060020a60005084604051808280519060200190808383829060006004602084601f0104600302600f01f15090910193845250506040519182900360200182206001018054600160a060020a031916909317909255600080516020610bad83398151915290600090a2505050565b6040805160206004803590810135601f8101839004830284018301909452838352610ab893602493929184019181908401838280828437509495505050505050600060a060020a60005082604051808280519060200190808383829060006004602084601f0104600302600f01f1509091019384525050604051918290036020019091206002015491506102c39050565b6040805160206004803590810135601f8101839004830284018301909452838352610a9b93602493929184019181908401838280828437509495505050505050600060a060020a60005082604051808280519060200190808383829060006004602084601f0104600302600f01f15090910193845250506040519182900360200190912060030154600160a060020a031691506102c39050565b6040805160206004803590810135601f8101839004830284018301909452838352610aca936024939291840191819084018382808284375094955050505050506000600060006000600060a060020a60005086604051808280519060200190808383829060006004602084601f0104600302600f01f15090910193845250506040519182900360200190912060038101548154600183015460029390930154600160a060020a039182169b9382169a5098501695509350505050565b6040805160206004803590810135601f810183900483028401830190945283835261009893602493929184019181908401838280828437509495359450505050508133600160a060020a031660a060020a60005082604051808280519060200190808383829060006004602084601f0104600302600f01f15090910193845250506040519182900360200190912060030154600160a060020a031690911415905061022b578160a060020a60005084604051808280519060200190808383829060006004602084601f0104600302600f01f15090910193845250506040519182900360200182206003018054600160a060020a031916909317909255600080516020610bad83398151915290600090a2505050565b6040805160206004803590810135601f810183900483028401830190945283835261009893602493929184019181908401838280828437509495359450505050508133600160a060020a031660a060020a60005082604051808280519060200190808383829060006004602084601f0104600302600f01f15090910193845250506040519182900360200190912060030154600160a060020a031690911415905061022b578160a060020a60005084604051808280519060200190808383829060006004602084601f0104600302600f01f150909101938452505060405191829003602001822060020192909255600080516020610bad83398151915290600090a2505050565b60405180806020018281038252838181518152602001915080519060200190808383829060006004602084601f0104600302600f01f150905090810190601f168015610a8d5780820380516001836020036101000a031916815260200191505b509250505060405180910390f35b60408051600160a060020a03929092168252519081900360200190f35b60408051918252519081900360200190f35b60408051600160a060020a039586168152938516602085015283810192909252909216606082015290519081900360800190f35b50610b1a9291505b80821115610b535760008155600101610b06565b5050604051600160a060020a033316907f8ca8593febbed3bd243d2c96b80893cf0db57f85a2850286eea8c037cd9395be90600090a250565b5090565b3460048201555b600481018054600a029055600381018054600160a060020a0319163317905560405182907fc5857e0793af9e0b936336856d784101062ce2b928f1b57228c26a08ac826f5690600090a2505056001cf7652f1f9289dc41763c5bd36534c9772d48aa26021274d212f227d4b697651ca06a61bead8cc846008edda8990ecb887fe49910e9cd62d201fb405e70f3c0a24ea0787189c7e05357a1863699f1dc919ba9626de8a9e60f65d1d289e6d9d72415d6",
      "networkId": 0,
      "chainId": 0
    }
  ]
}