{
  "hash": "0x5978cf75ad136e6a22e25a25d11009ee35ce313565a1ea2e43354d8e5274d1a1",
  "parentHash": "0xcbebb2e70bbeafaf23239737330fab28695fa412633a0c135db5909a334b2870",
  "number": 112491,
  "timestamp": 1440008311,
  "nonce": "0x035f3842d511e31b",
  "difficulty": 4413134250683,
  "gasLimit": {
    "_hex": "0x2fefd8"
  },
  "gasUsed": {
    "_hex": "0x5208"
  },
  "miner": "0x790b8a3cE86E707ED0eD32bF89B3269692a23CC1",
  "extraData": "0xd783010001844765746887676f312e342e32856c696e7578",
  "transactions": [
    {
      "hash": "0x1fe04e4307c439ab1e73272af33e94db79f110d97c74f20b01e029df09dd412e",
      "blockHash": "0x5978cf75ad136e6a22e25a25d11009ee35ce313565a1ea2e43354d8e5274d1a1",
      "blockNumber": 112491,
      "transactionIndex": 0,
      "confirmations": null,
      "from": "0xb9D508dA22E0939176D5B8E16B7A3De46Bd37e78",
      "gasPrice": {
        "_hex": "0xd18d15476"
      },
      "gasLimit": {
        "_hex": "0x5208"
      },
      "to": "0x32Be343B94f860124dC4fEe278FDCBD38C102D88",
      "value": {
        "_hex": "0x10f0cec33a488300000"
      },
      "nonce": 1,
      "data": "0x",
      "r": "0x1246160c74292c6661573eccedadcf8e48399398e39cd803b5f2502fba4e4ad0",
      "s": "0x7ee62e9505ad3a8b54f2ffbe4a9e871d43ee37fd124e91e6649ba3ea69cb003f",
      "v": 28,
      "creates": null,
      "raw": "0xf86e01850d18d154768252089432be343b94f860124dc4fee278fdcbd38c102d888a010f0cec33a488300000801ca01246160c74292c6661573eccedadcf8e48399398e39cd803b5f2502fba4e4ad0a07ee62e9505ad3a8b54f2ffbe4a9e871d43ee37fd124e91e6649ba3ea69cb003f",
      "networkId": 0,
      "chainId": 0
    }
  ]
}