{
  "hash": "0xe8d251457dc11f002e970617b1dcadfe81e77e81decd52b4462e98068d6e1e80",
  "parentHash": "0x46215f0da4c430066899fe27b0e89682ce485b086f491b455c8d65e0e4702c52",
  "number": 61936,
  "timestamp": 1439180712,
  "nonce": "0xb05ede17f9dbfdb1",
  "difficulty": 1748018390117,
  "gasLimit": {
    "_hex": "0x2fefd5"
  },
  "gasUsed": {
    "_hex": "0xa674"
  },
  "miner": "0xF7e66D2622220807d8696064E94ca24b1dC6e7Da",
  "extraData": "0x",
  "transactions": [
    {
      "hash": "0xed6f32a10c5095e9f1c1f483d3e3d7b1a0ceb468250590431e7a14356ec6f2b8",
      "blockHash": "0xe8d251457dc11f002e970617b1dcadfe81e77e81decd52b4462e98068d6e1e80",
      "blockNumber": 61936,
      "transactionIndex": 0,
      "confirmations": null,
      "from": "0x2f66bFbF2262efcC8d2Bd0444FC5b0696298fF1E",
      "gasPrice": {
        "_hex": "0xd2b5c55d7"
      },
      "gasLimit": {
        "_hex": "0x15f90"
      },
      "to": "0x2910543Af39abA0Cd09dBb2D50200b3E800A63D2",
      "value": {
        "_hex": "0x10f0cf064dd59200000"
      },
      "nonce": 3,
      "data": "0x454e38504454594538",
      "r": "0x3ab66bd27a9ec698de73433296c38967fb54299a9acbbe1e921e9104b7936772",
      "s": "0x77a43b063d05bb8882ea9e5515fb644e07eaa083542d698427025eacf3e5f3ef",
      "v": 27,
      "creates": null,
      "raw": "0xf87803850d2b5c55d783015f90942910543af39aba0cd09dbb2d50200b3e800a63d28a010f0cf064dd5920000089454e385044545945381ba03ab66bd27a9ec698de73433296c38967fb54299a9acbbe1e921e9104b7936772a077a43b063d05bb8882ea9e5515fb644e07eaa083542d698427025eacf3e5f3ef",
      "networkId": 0,
      "chainId": 0
    },
    {
      "hash": "0x7d189d0445f42715dbd37d696786fc3423c5618e3d42a7cd9ac7e52de9856273",
      "blockHash": "0xe8d251457dc11f002e970617b1dcadfe81e77e81decd52b4462e98068d6e1e80",
      "blockNumber": 61936,
      "transactionIndex": 1,
      "confirmations": null,
      "from": "0x32Be343B94f860124dC4fEe278FDCBD38C102D88",
      "gasPrice": {
        "_hex": "0xd14ffe3e5"
      },
      "gasLimit": {
        "_hex": "0x5208"
      },
      "to": "0x120A270bbC009644e35F0bB6ab13f95b8199c4ad",
      "value": {
        "_hex": "0x6c6b935b8bbd400000"
      },
      "nonce": 144,
      "data": "0x",
      "r": "0xed6cfb2855f6adc89c0bcad5f3a1fc9572286367bfd6930e72708fe10e37032e",
      "s": "0x1f4575a10182c3d45abc4e31adbffeae187c633961f41edaec3f17267875ee5e",
      "v": 28,
      "creates": null,
      "raw": "0xf86e8190850d14ffe3e582520894120a270bbc009644e35f0bb6ab13f95b8199c4ad896c6b935b8bbd400000801ca0ed6cfb2855f6adc89c0bcad5f3a1fc9572286367bfd6930e72708fe10e37032ea01f4575a10182c3d45abc4e31adbffeae187c633961f41edaec3f17267875ee5e",
      "networkId": 0,
      "chainId": 0
    }
  ]
}