{
  "hash": "0x16da5b45a539a3aa2284bfdaf1e3db0253565257842190917eeab8499745d3bc",
  "parentHash": "0x4fd6cce23237ea6377c86ac084d9ded97bda7cf773b36795fae315953d13d103",
  "number": 80644,
  "timestamp": 1439488523,
  "nonce": "0xf091422c62a420a1",
  "difficulty": 2430954324532,
  "gasLimit": {
    "_hex": "0x2fefd8"
  },
  "gasUsed": {
    "_hex": "0x5208"
  },
  "miner": "0x6541237dAaFf6688A79f9F2F370Ca0E7Ee20BD33",
  "extraData": "0x476574682f76312e302e312f77696e646f77732f676f312e342e32",
  "transactions": [
    {
      "hash": "0x3a7e572af1ad24c8337f8ef2aac00bd537618ee3499458e4dddd54860955f757",
      "blockHash": "0x16da5b45a539a3aa2284bfdaf1e3db0253565257842190917eeab8499745d3bc",
      "blockNumber": 80644,
      "transactionIndex": 0,
      "confirmations": null,
      "from": "0x723E05fF30e4ba7A87b4D7D459eE5B488A9c36d1",
      "gasPrice": {
        "_hex": "0xd1f217cbf"
      },
      "gasLimit": {
        "_hex": "0x15f90"
      },
      "to": "0xabceA603089850F8f6bB612A9031554D90A247CF",
      "value": {
        "_hex": "0x1e87f85809dc0000"
      },
      "nonce": 16,
      "data": "0x",
      "r": "0x2adb62c23c076913d729dae4772f22837020fa2a0d0d7453777901419b975c89",
      "s": "0x73bd6cd11de1570e8e5ba6291683a3fb458844b657ae108aff8be7850829048b",
      "v": 27,
      "creates": null,
      "raw": "0xf86d10850d1f217cbf83015f9094abcea603089850f8f6bb612a9031554d90a247cf881e87f85809dc0000801ba02adb62c23c076913d729dae4772f22837020fa2a0d0d7453777901419b975c89a073bd6cd11de1570e8e5ba6291683a3fb458844b657ae108aff8be7850829048b",
      "networkId": 0,
      "chainId": 0
    }
  ]
}