{
  "hash": "0xd94ed6cea605b9f9d932a3af814c6cb2a2839f23a4f028ce3a748b15460e5474",
  "parentHash": "0x2eacad80a38ebe2d88d0bb85fa5f56f0dd12a1d4091a10ad378001471fe65233",
  "number": 72907,
  "timestamp": 1439360187,
  "nonce": "0xc0da4b56fc733df0",
  "difficulty": 2194993042715,
  "gasLimit": {
    "_hex": "0x2fefd8"
  },
  "gasUsed": {
    "_hex": "0x15f90"
  },
  "miner": "0xe6A7a1d47ff21B6321162AEA7C6CB457D5476Bca",
  "extraData": "0x476574682f76312e302e312d38326566323666362f6c696e75782f676f312e34",
  "transactions": [
    {
      "hash": "0x94bf4efeaf2c743b6c53c75e53c962ddbab20861dc859b198694d736338dfb07",
      "blockHash": "0xd94ed6cea605b9f9d932a3af814c6cb2a2839f23a4f028ce3a748b15460e5474",
      "blockNumber": 72907,
      "transactionIndex": 0,
      "confirmations": null,
      "from": "0x326Be8F71bFb0379f989aAB1CC1fE37f0a771f60",
      "gasPrice": {
        "_hex": "0xfddecefc35"
      },
      "gasLimit": {
        "_hex": "0x15f90"
      },
      "to": "0x070F98b1eC27942F613A73d9e22d0ba60E211668",
      "value": {
        "_hex": "0x1"
      },
      "nonce": 20,
      "data": "0x8d21618600000000000000000000000000000000000000000000000000000000000000806361740000000000000000000000000000000000000000000000000000000000",
      "r": "0x0b9ae79318c0efe3eea0e52e86b9472dc8bbaf710381501c37382dde331f4c4a",
      "s": "0x184bb538002bb8fb1837257e55c8676e615ad0932443581b8c8151ead4392297",
      "v": 27,
      "creates": null,
      "raw": "0xf8aa1485fddecefc3583015f9094070f98b1ec27942f613a73d9e22d0ba60e21166801b8448d216186000000000000000000000000000000000000000000000000000000000000008063617400000000000000000000000000000000000000000000000000000000001ba00b9ae79318c0efe3eea0e52e86b9472dc8bbaf710381501c37382dde331f4c4aa0184bb538002bb8fb1837257e55c8676e615ad0932443581b8c8151ead4392297",
      "networkId": 0,
      "chainId": 0
    }
  ]
}