{
  "hash": "0x8e1d6c42e4ad03f4fec74f4f282de9e27b61ec70ea1e9b11666d0f74ea8e84cc",
  "parentHash": "0xd2bd506ae9f6cbf138a203d43526647bbaf9c37ea84ee03c23a4603242a416db",
  "number": 64849,
  "timestamp": 1439227161,
  "nonce": "0xa2be30a1d984564a",
  "difficulty": 1905151111795,
  "gasLimit": {
    "_hex": "0x2fefd8"
  },
  "gasUsed": {
    "_hex": "0x11074"
  },
  "miner": "0x6Cf387a1C50cF6b09634E0d24fDAa2c06Be0ea95",
  "extraData": "0x476574682f76312e302e312d38326566323666362f6c696e75782f676f312e34",
  "transactions": [
    {
      "hash": "0x60ec2e7ea83327e0b4b7ed71dda0862f0cbeaee76d5dccac2fcaf58be236f260",
      "blockHash": "0x8e1d6c42e4ad03f4fec74f4f282de9e27b61ec70ea1e9b11666d0f74ea8e84cc",
      "blockNumber": 64849,
      "transactionIndex": 0,
      "confirmations": null,
      "from": "0xf0E93902C82C20C953Ba57D195E6C2987E6ba37F",
      "gasPrice": {
        "_hex": "0xcc50d71b7"
      },
      "gasLimit": {
        "_hex": "0x55f0"
      },
      "to": "0x8AdB5004B6025f672a1E22044E627145a6EDC0d7",
      "value": {
        "_hex": "0x8ac7230489e80000"
      },
      "nonce": 3,
      "data": "0x",
      "r": "0xe92a727b1511f978813d98536cc16000b29b4ad0587780be09346a9ce58cacc8",
      "s": "0x14b4b7f4d3528665fe0e1901d869d7c30c92ad4cdad6330e2b60a3e7f405c6e2",
      "v": 28,
      "creates": null,
      "raw": "0xf86c03850cc50d71b78255f0948adb5004b6025f672a1e22044e627145a6edc0d7888ac7230489e80000801ca0e92a727b1511f978813d98536cc16000b29b4ad0587780be09346a9ce58cacc8a014b4b7f4d3528665fe0e1901d869d7c30c92ad4cdad6330e2b60a3e7f405c6e2",
      "networkId": 0,
      "chainId": 0
    },
    {
      "hash": "0x57eb6474253086b1ae85680e21e39e0a8fbef6eea9c2991a3bb38b298f866704",
      "blockHash": "0x8e1d6c42e4ad03f4fec74f4f282de9e27b61ec70ea1e9b11666d0f74ea8e84cc",
      "blockNumber": 64849,
      "transactionIndex": 1,
      "confirmations": null,
      "from": "0xAd239925BF8d000B6de51716Dc42df7c9f0A7104",
      "gasPrice": {
        "_hex": "0xba43b7400"
      },
      "gasLimit": {
        "_hex": "0x15f90"
      },
      "to": "0x793AE8C1b1a160BFc07BFB0d04F85eab1A71F4f2",
      "value": {
        "_hex": "0x0"
      },
      "nonce": 0,
      "data": "0x3ba15036",
      "r": "0xc6aa2481f35bdcadf38bfb0b796ab3bbd742e2cbd1d0170b209603073d95cdfc",
      "s": "0x7a7904865a4e0de82e87ae71cabc1ab512f8e324a6079c536f1a7c2c7029807d",
      "v": 28,
      "creates": null,
      "raw": "0xf86980850ba43b740083015f9094793ae8c1b1a160bfc07bfb0d04f85eab1a71f4f280843ba150361ca0c6aa2481f35bdcadf38bfb0b796ab3bbd742e2cbd1d0170b209603073d95cdfca07a7904865a4e0de82e87ae71cabc1ab512f8e324a6079c536f1a7c2c7029807d",
      "networkId": 0,
      "chainId": 0
    }
  ]
}