{
  "hash": "0xa39a05550470b3a88de88c9da22f32a806b8255cfa26603e44aed0fbbd408823",
  "parentHash": "0xf2fb9c28aa8ef2c37607ece950b34bb0b95ca2f59fc0245d4379a6da4626a67e",
  "number": 101659,
  "timestamp": 1439826123,
  "nonce": "0x1ee4e257653c20be",
  "difficulty": 3888201568479,
  "gasLimit": {
    "_hex": "0x2fefd8"
  },
  "gasUsed": {
    "_hex": "0x5208"
  },
  "miner": "0x12a3bc22E3aE33B8e6A44D37dC0eb474277B9F62",
  "extraData": "0x476574682f76312e302e312f6c696e75782f676f312e342e32",
  "transactions": [
    {
      "hash": "0xe74d8d833b02b1adf88d0ad239d7176de183e1508b1314d6e7cf85f7c35260f4",
      "blockHash": "0xa39a05550470b3a88de88c9da22f32a806b8255cfa26603e44aed0fbbd408823",
      "blockNumber": 101659,
      "transactionIndex": 0,
      "confirmations": null,
      "from": "0x87898CE53471043FcCa0a2aF4E1dC6d8B3fCf607",
      "gasPrice": {
        "_hex": "0xd3eeb1caa"
      },
      "gasLimit": {
        "_hex": "0x5208"
      },
      "to": "0xBFdD9820a04283b289957956353b5F3C1F665EcF",
      "value": {
        "_hex": "0x270801d946c940000"
      },
      "nonce": 43,
      "data": "0x",
      "r": "0xfc252a116ddc64e1a7138144b8ce4c6fa642ed6c591cdf773c2a4f723d9004e0",
      "s": "0x7cce11ad2e6f2aed7975ef9e2c6e4756ff2f1007ab793b62a9ea3a67a60fadbc",
      "v": 27,
      "creates": null,
      "raw": "0xf86d2b850d3eeb1caa82520894bfdd9820a04283b289957956353b5f3c1f665ecf890270801d946c940000801ba0fc252a116ddc64e1a7138144b8ce4c6fa642ed6c591cdf773c2a4f723d9004e0a07cce11ad2e6f2aed7975ef9e2c6e4756ff2f1007ab793b62a9ea3a67a60fadbc",
      "networkId": 0,
      "chainId": 0
    }
  ]
}