{
  "hash": "0x8f02f36752042e78d3643d417885014cbaf5925f832ceabb9a92a5131aa29cb5",
  "parentHash": "0x823b21a36191c0baa175a63908a0eb02873f320a66e2175150f49edda56b559f",
  "number": 104218,
  "timestamp": 1439866215,
  "nonce": "0xa09d55ed91c1b142",
  "difficulty": 4275309612234,
  "gasLimit": {
    "_hex": "0x2fefd8"
  },
  "gasUsed": {
    "_hex": "0x5208"
  },
  "miner": "0xe6A7a1d47ff21B6321162AEA7C6CB457D5476Bca",
  "extraData": "0x476574682f76312e302e312d38326566323666362f6c696e75782f676f312e34",
  "transactions": [
    {
      "hash": "0x46847d644ee419d147caab78ed509b4c73539220d9dbd2bc6222e789f2f2ba8a",
      "blockHash": "0x8f02f36752042e78d3643d417885014cbaf5925f832ceabb9a92a5131aa29cb5",
      "blockNumber": 104218,
      "transactionIndex": 0,
      "confirmations": null,
      "from": "0xF87481A262E993a75F791E7859E71BaC36A606Eb",
      "gasPrice": {
        "_hex": "0xd5aef9565"
      },
      "gasLimit": {
        "_hex": "0x5208"
      },
      "to": "0x32Be343B94f860124dC4fEe278FDCBD38C102D88",
      "value": {
        "_hex": "0x2fb42f90e7b92e000"
      },
      "nonce": 36,
      "data": "0x",
      "r": "0xcf7e60e61814a02baa8448e775865845c3febfc971b28912a6e6d477594d3d6d",
      "s": "0x076ef06850a18195003c768f5fc19611bf47e54c36d81e04c452837b30d17ad1",
      "v": 27,
      "creates": null,
      "raw": "0xf86d24850d5aef95658252089432be343b94f860124dc4fee278fdcbd38c102d888902fb42f90e7b92e000801ba0cf7e60e61814a02baa8448e775865845c3febfc971b28912a6e6d477594d3d6da0076ef06850a18195003c768f5fc19611bf47e54c36d81e04c452837b30d17ad1",
      "networkId": 0,
      "chainId": 0
    }
  ]
}