{
  "hash": "0xc8b7b4bedb1c16e93e879e3e9b4a98b122c4426705e2b548b055f50c8aa3f09a",
  "parentHash": "0x416610520f310f85ecae10dfd6a07a6ab94beb12ca1ad5ea7ea37b26ad3e2c92",
  "number": 98278,
  "timestamp": 1439770003,
  "nonce": "0x8533aef47813c51c",
  "difficulty": 3880284086823,
  "gasLimit": {
    "_hex": "0x2fefd5"
  },
  "gasUsed": {
    "_hex": "0x5208"
  },
  "miner": "0xaEAf103356C2Ee943F748E8655659D29881323E1",
  "extraData": "0x476574682f76312e302e312f77696e646f77732f676f312e342e32",
  "transactions": [
    {
      "hash": "0xdae392aba670218aeb1e74a5bdaef762b94bee75a1963d151be3448d9b9deaa5",
      "blockHash": "0xc8b7b4bedb1c16e93e879e3e9b4a98b122c4426705e2b548b055f50c8aa3f09a",
      "blockNumber": 98278,
      "transactionIndex": 0,
      "confirmations": null,
      "from": "0x4c74B6F32c9680aCB5Fe0e72B7Aa95C612540A04",
      "gasPrice": {
        "_hex": "0xcb3ce9723"
      },
      "gasLimit": {
        "_hex": "0x5208"
      },
      "to": "0x32Be343B94f860124dC4fEe278FDCBD38C102D88",
      "value": {
        "_hex": "0x19270a05c8ce6e000"
      },
      "nonce": 34,
      "data": "0x",
      "r": "0xe4584e08f755283028b73d7e6d29e8596e8c25c968ca5ffe08df52ab9611842c",
      "s": "0x7f4c0ec851e73641a142b4f1448a0632295ae900e7fb946fb34c045941d68c4e",
      "v": 27,
      "creates": null,
      "raw": "0xf86d22850cb3ce97238252089432be343b94f860124dc4fee278fdcbd38c102d8889019270a05c8ce6e000801ba0e4584e08f755283028b73d7e6d29e8596e8c25c968ca5ffe08df52ab9611842ca07f4c0ec851e73641a142b4f1448a0632295ae900e7fb946fb34c045941d68c4e",
      "networkId": 0,
      "chainId": 0
    }
  ]
}