{
  "hash": "0xaa5976cf45598c1c94fbfb52f35d6f64efaaff6bf8f9c8c6f0bd686679a83bc9",
  "parentHash": "0x586f0cdb1d3c62aa39ce1e82201e0ddfd08eacf764a0fbfe4953d531832658d0",
  "number": 121357,
  "timestamp": 1440175835,
  "nonce": "0xe0f4079eedfc9c76",
  "difficulty": 4399870534975,
  "gasLimit": {
    "_hex": "0x2fefd8"
  },
  "gasUsed": {
    "_hex": "0x54b0"
  },
  "miner": "0xe6A7a1d47ff21B6321162AEA7C6CB457D5476Bca",
  "extraData": "0xd783010002844765746887676f312e342e32856c696e7578",
  "transactions": [
    {
      "hash": "0x9e822fe1b952183739ccaa0213f9ea71c528f22de53265ffe77c62b9fa51f916",
      "blockHash": "0xaa5976cf45598c1c94fbfb52f35d6f64efaaff6bf8f9c8c6f0bd686679a83bc9",
      "blockNumber": 121357,
      "transactionIndex": 0,
      "confirmations": null,
      "from": "0x27987110221A880826aDB2E7aB5ECA78c6e31aEc",
      "gasPrice": {
        "_hex": "0xba43b7400"
      },
      "gasLimit": {
        "_hex": "0x55f0"
      },
      "to": "0x40B9b889A21Ff1534d018D71Dc406122EBcf3F5A",
      "value": {
        "_hex": "0x6c6a18d45d8b86b620"
      },
      "nonce": 5,
      "data": "0x44565855423230363833",
      "r": "0x5af2dc17d8e48aa1dc5a497ca62184c3f4f305bc3f485a10b3644ff36b19e1c3",
      "s": "0x407644c714965cf83bda4bc5a7e26a021a60c8b68cfd38fb1cf0761f7bf571a1",
      "v": 27,
      "creates": null,
      "raw": "0xf87705850ba43b74008255f09440b9b889a21ff1534d018d71dc406122ebcf3f5a896c6a18d45d8b86b6208a445658554232303638331ba05af2dc17d8e48aa1dc5a497ca62184c3f4f305bc3f485a10b3644ff36b19e1c3a0407644c714965cf83bda4bc5a7e26a021a60c8b68cfd38fb1cf0761f7bf571a1",
      "networkId": 0,
      "chainId": 0
    }
  ]
}