{
  "hash": "0xed85c2c3976de316e3b6a7f8190ca4ff6b5adff13bc72292c6857f56b4c701f0",
  "parentHash": "0xb4fd3bbf24fd102b5dd1b4614db9ab1450149ca064386f2213e2bc3a66173dad",
  "number": 66407,
  "timestamp": 1439254096,
  "nonce": "0xda3c9330e574caef",
  "difficulty": 1938576086401,
  "gasLimit": {
    "_hex": "0x2fefd8"
  },
  "gasUsed": {
    "_hex": "0x7a120"
  },
  "miner": "0x66BE410479472f811a66312c3DB7825de83b3129",
  "extraData": "0x",
  "transactions": [
    {
      "hash": "0x86cb32338d96d048ea0d69be7ead3c3ab858c46e7077efa10c3bb870d01aea0f",
      "blockHash": "0xed85c2c3976de316e3b6a7f8190ca4ff6b5adff13bc72292c6857f56b4c701f0",
      "blockNumber": 66407,
      "transactionIndex": 0,
      "confirmations": null,
      "from": "0x1406854D149E081aC09Cb4CA560Da463f3123059",
      "gasPrice": {
        "_hex": "0xd2b18521f"
      },
      "gasLimit": {
        "_hex": "0x7a120"
      },
      "to": "0xA327075af2a223A1C83a36aDa1126afE7430f955",
      "value": {
        "_hex": "0x8ac7230489e80000"
      },
      "nonce": 14,
      "data": "0x",
      "r": "0xbc338c67f6581842b343b604dd6a0296fdf3ab47c21a7ce089f9a0d23bfb3725",
      "s": "0x4d1522189452929e0e8a06d1ebab855ca3dbd2b3c665326b12d2625e7030e2b8",
      "v": 28,
      "creates": null,
      "raw": "0xf86d0e850d2b18521f8307a12094a327075af2a223a1c83a36ada1126afe7430f955888ac7230489e80000801ca0bc338c67f6581842b343b604dd6a0296fdf3ab47c21a7ce089f9a0d23bfb3725a04d1522189452929e0e8a06d1ebab855ca3dbd2b3c665326b12d2625e7030e2b8",
      "networkId": 0,
      "chainId": 0
    }
  ]
}