{
  "hash": "0x9e950ccbc0ca366689bb2e0c3d653c2224e69b0c5dff7c597bd12fe8a26fd3c7",
  "parentHash": "0x18601c830c13d487ad88c281c4149f191136086d2fc4eed5bf8270320f728e30",
  "number": 77441,
  "timestamp": 1439437363,
  "nonce": "0x7c64fbe1830bdfc8",
  "difficulty": 2237075949573,
  "gasLimit": {
    "_hex": "0x2fefd8"
  },
  "gasUsed": {
    "_hex": "0xa410"
  },
  "miner": "0x6DE55b563cE6E319cCB403032Da3BE5Ad4ec4FcF",
  "extraData": "0x",
  "transactions": [
    {
      "hash": "0x8ef1f1b2f45cdb28f711f959fa76bde927b3ab287c19302ed485c51cf1c922b5",
      "blockHash": "0x9e950ccbc0ca366689bb2e0c3d653c2224e69b0c5dff7c597bd12fe8a26fd3c7",
      "blockNumber": 77441,
      "transactionIndex": 0,
      "confirmations": null,
      "from": "0x7d1a3568eeb3C85Eb38372ebc51C38384Ab189e5",
      "gasPrice": {
        "_hex": "0xde01a2d19"
      },
      "gasLimit": {
        "_hex": "0x15f90"
      },
      "to": "0x24C0B9E42a508F3cB1A66c03dEf2Baf4c4555a89",
      "value": {
        "_hex": "0x34f918c0adb0360000"
      },
      "nonce": 0,
      "data": "0x",
      "r": "0x75a1cb02765beeb4b7d98571bcc5dc620ee7e1108cea79a096f7e19e029f01b2",
      "s": "0x393eca3b767cfbcafef209e02ce22168d9c0ef0672d4121a80ab90d8066f8cee",
      "v": 28,
      "creates": null,
      "raw": "0xf86e80850de01a2d1983015f909424c0b9e42a508f3cb1a66c03def2baf4c4555a898934f918c0adb0360000801ca075a1cb02765beeb4b7d98571bcc5dc620ee7e1108cea79a096f7e19e029f01b2a0393eca3b767cfbcafef209e02ce22168d9c0ef0672d4121a80ab90d8066f8cee",
      "networkId": 0,
      "chainId": 0
    },
    {
      "hash": "0x9ccea7765313ba81346f6921dcbf0ba6b1bc2779a88a8136a1c0829f801d7de3",
      "blockHash": "0x9e950ccbc0ca366689bb2e0c3d653c2224e69b0c5dff7c597bd12fe8a26fd3c7",
      "blockNumber": 77441,
      "transactionIndex": 1,
      "confirmations": null,
      "from": "0xD2FE0A2b0b5e1F7C7de481945fe6b3686c782197",
      "gasPrice": {
        "_hex": "0xde01a2d19"
      },
      "gasLimit": {
        "_hex": "0x15f90"
      },
      "to": "0x24C0B9E42a508F3cB1A66c03dEf2Baf4c4555a89",
      "value": {
        "_hex": "0x342ee5b6dfa6c50000"
      },
      "nonce": 0,
      "data": "0x",
      "r": "0xb49819b5be5d0525667729eace97210ef2c288d25f2a39746a5358c5ef4dbda9",
      "s": "0x7f1ae89acf6bed7631266a53f866306a5ec24168f0ef1cf6b4ac1f2a141144d7",
      "v": 28,
      "creates": null,
      "raw": "0xf86e80850de01a2d1983015f909424c0b9e42a508f3cb1a66c03def2baf4c4555a8989342ee5b6dfa6c50000801ca0b49819b5be5d0525667729eace97210ef2c288d25f2a39746a5358c5ef4dbda9a07f1ae89acf6bed7631266a53f866306a5ec24168f0ef1cf6b4ac1f2a141144d7",
      "networkId": 0,
      "chainId": 0
    }
  ]
}