{
  "hash": "0x2fc8dff05c9e66dcdcab7cd07950a644f1514932889c188f175cff41d6edd9bb",
  "parentHash": "0xa265cf86423f222fa9f6e047dd44753d287f66ac9057f4ba5a330e4c7e6aaa76",
  "number": 120966,
  "timestamp": 1440169166,
  "nonce": "0xf7e2ab0c7c1bbb56",
  "difficulty": 4419454441996,
  "gasLimit": {
    "_hex": "0x2fefd8"
  },
  "gasUsed": {
    "_hex": "0xa410"
  },
  "miner": "0xe6A7a1d47ff21B6321162AEA7C6CB457D5476Bca",
  "extraData": "0xd783010002844765746887676f312e342e32856c696e7578",
  "transactions": [
    {
      "hash": "0x54c0b279153f4a431b427a127140c9fcae57041f3b459fecc59d434076a9a9e5",
      "blockHash": "0x2fc8dff05c9e66dcdcab7cd07950a644f1514932889c188f175cff41d6edd9bb",
      "blockNumber": 120966,
      "transactionIndex": 0,
      "confirmations": null,
      "from": "0x9D49F602b0fdb924Bd63DDE2Bd0907E4A07c63a7",
      "gasPrice": {
        "_hex": "0xba43b7400"
      },
      "gasLimit": {
        "_hex": "0x15f90"
      },
      "to": "0xC6c676946C54B5e7c31A07a079166C488Bf06dd7",
      "value": {
        "_hex": "0x4e1003b28d9280000"
      },
      "nonce": 8,
      "data": "0x",
      "r": "0xed207bff5c5f38635f006e13e6b112a9a8fdb4b8786c764d9eb147fb6b6d1317",
      "s": "0x110b7ea6647f18d1efef84c63a088b3dac1c0719f6950a71efcf7e785ac92219",
      "v": 27,
      "creates": null,
      "raw": "0xf86e08850ba43b740083015f9094c6c676946c54b5e7c31a07a079166c488bf06dd78904e1003b28d9280000801ba0ed207bff5c5f38635f006e13e6b112a9a8fdb4b8786c764d9eb147fb6b6d1317a0110b7ea6647f18d1efef84c63a088b3dac1c0719f6950a71efcf7e785ac92219",
      "networkId": 0,
      "chainId": 0
    },
    {
      "hash": "0x2464b628849b34818c45d281b75d31cf5169155275d551734b39f10056a04264",
      "blockHash": "0x2fc8dff05c9e66dcdcab7cd07950a644f1514932889c188f175cff41d6edd9bb",
      "blockNumber": 120966,
      "transactionIndex": 1,
      "confirmations": null,
      "from": "0x608f4b86321a68453f9adf6F06F7Fc3E621739ad",
      "gasPrice": {
        "_hex": "0xba43b7400"
      },
      "gasLimit": {
        "_hex": "0x5208"
      },
      "to": "0x32Be343B94f860124dC4fEe278FDCBD38C102D88",
      "value": {
        "_hex": "0x455fd68a17f06000"
      },
      "nonce": 87,
      "data": "0x",
      "r": "0x68919160a1081a31154e2aace7d221ba218b5107a893097c3ab895d3588f615d",
      "s": "0x3da975b4eb366e816c7dc0008a82938ab97e694284d4b889fe6b3a4f9beec8ec",
      "v": 28,
      "creates": null,
      "raw": "0xf86c57850ba43b74008252089432be343b94f860124dc4fee278fdcbd38c102d8888455fd68a17f06000801ca068919160a1081a31154e2aace7d221ba218b5107a893097c3ab895d3588f615da03da975b4eb366e816c7dc0008a82938ab97e694284d4b889fe6b3a4f9beec8ec",
      "networkId": 0,
      "chainId": 0
    }
  ]
}