{
  "hash": "0xbe9be71110d068e6b3d748e98315b2707d329da99753c57603e7c9591b6cd9b4",
  "parentHash": "0xcb0821b2a50551db83eec0da65c2082b6690b340998155c3ad20cf0dd2d525b7",
  "number": 74367,
  "timestamp": 1439384977,
  "nonce": "0x86e6ce8462eeb49b",
  "difficulty": 2209664666437,
  "gasLimit": {
    "_hex": "0x2fefd8"
  },
  "gasUsed": {
    "_hex": "0xa410"
  },
  "miner": "0xe6A7a1d47ff21B6321162AEA7C6CB457D5476Bca",
  "extraData": "0x476574682f76312e302e312d38326566323666362f6c696e75782f676f312e34",
  "transactions": [
    {
      "hash": "0x89a5005a027e9ffd5ec683fcfb65ab8590425961bb2403479da3eb38581fb858",
      "blockHash": "0xbe9be71110d068e6b3d748e98315b2707d329da99753c57603e7c9591b6cd9b4",
      "blockNumber": 74367,
      "transactionIndex": 0,
      "confirmations": null,
      "from": "0xa70a9a7040d542C632D8e0bE7c5513A8a5Bbc752",
      "gasPrice": {
        "_hex": "0xd40548225"
      },
      "gasLimit": {
        "_hex": "0x5208"
      },
      "to": "0x32Be343B94f860124dC4fEe278FDCBD38C102D88",
      "value": {
        "_hex": "0x455f527d69906400"
      },
      "nonce": 33,
      "data": "0x",
      "r": "0x9ab6feefc017382e99c231eb9874724277e02b6941734ca08c0e89b5dbd3e7ae",
      "s": "0x56a89c7be2a76ba7119adb791ad0d83c7aa5a8d29cfe74770da0b4e0ee0c189c",
      "v": 27,
      "creates": null,
      "raw": "0xf86c21850d405482258252089432be343b94f860124dc4fee278fdcbd38c102d8888455f527d69906400801ba09ab6feefc017382e99c231eb9874724277e02b6941734ca08c0e89b5dbd3e7aea056a89c7be2a76ba7119adb791ad0d83c7aa5a8d29cfe74770da0b4e0ee0c189c",
      "networkId": 0,
      "chainId": 0
    },
    {
      "hash": "0x3df6fde310deeeb93d7d218ba24c9fe9927a152f9311e21612426fa9f361f57d",
      "blockHash": "0xbe9be71110d068e6b3d748e98315b2707d329da99753c57603e7c9591b6cd9b4",
      "blockNumber": 74367,
      "transactionIndex": 1,
      "confirmations": null,
      "from": "0xa114c802ef29776f05f9c6925cE915232e8ae102",
      "gasPrice": {
        "_hex": "0xd40548225"
      },
      "gasLimit": {
        "_hex": "0x5208"
      },
      "to": "0x32Be343B94f860124dC4fEe278FDCBD38C102D88",
      "value": {
        "_hex": "0x455f527d69906400"
      },
      "nonce": 9,
      "data": "0x",
      "r": "0x9cf06debf183e3ea3f0eaf5b499b3a4e00872774e9c3dc01f61f564c29db6eea",
      "s": "0x06313ed52fceba9faef64dc8ae3e0c13d9a80e99a027b8c0b4d533cfc63820aa",
      "v": 28,
      "creates": null,
      "raw": "0xf86c09850d405482258252089432be343b94f860124dc4fee278fdcbd38c102d8888455f527d69906400801ca09cf06debf183e3ea3f0eaf5b499b3a4e00872774e9c3dc01f61f564c29db6eeaa006313ed52fceba9faef64dc8ae3e0c13d9a80e99a027b8c0b4d533cfc63820aa",
      "networkId": 0,
      "chainId": 0
    }
  ]
}