{
  "hash": "0x8d532c3c187ff85f9a0bb76082b2812ff3bedb0004944f22362650803f196e20",
  "parentHash": "0xf61b97a0a5a9e6e1f9e3d4af6f0b0a818b2e13cee3b1d79e70276d9951547fdb",
  "number": 121872,
  "timestamp": 1440184101,
  "nonce": "0x7527b0d72b394217",
  "difficulty": 4479807745305,
  "gasLimit": {
    "_hex": "0x2fefd8"
  },
  "gasUsed": {
    "_hex": "0xf618"
  },
  "miner": "0xe6A7a1d47ff21B6321162AEA7C6CB457D5476Bca",
  "extraData": "0xd783010002844765746887676f312e342e32856c696e7578",
  "transactions": [
    {
      "hash": "0x139c983709dd64a87749ce3c316eedb337b716fa476cc346bad640040da4cc6b",
      "blockHash": "0x8d532c3c187ff85f9a0bb76082b2812ff3bedb0004944f22362650803f196e20",
      "blockNumber": 121872,
      "transactionIndex": 0,
      "confirmations": null,
      "from": "0x1C356cfdB95FEbb714633B28d5C132dD84A9b436",
      "gasPrice": {
        "_hex": "0x11229821afa"
      },
      "gasLimit": {
        "_hex": "0x15f90"
      },
      "to": "0x64916978a6c23c21Ce9526E4eE9a2A6077dD0e01",
      "value": {
        "_hex": "0xde0b6b3a7640000"
      },
      "nonce": 12,
      "data": "0x",
      "r": "0x8e4997772897855d1cbefe5bd3c37fbebddceccb479c6b4a336e13ce5167584f",
      "s": "0x160a03fdf12e0eea765bb3c47a29cb8f76449ca536df01f91d20b250e9803562",
      "v": 27,
      "creates": null,
      "raw": "0xf86e0c86011229821afa83015f909464916978a6c23c21ce9526e4ee9a2a6077dd0e01880de0b6b3a7640000801ba08e4997772897855d1cbefe5bd3c37fbebddceccb479c6b4a336e13ce5167584fa0160a03fdf12e0eea765bb3c47a29cb8f76449ca536df01f91d20b250e9803562",
      "networkId": 0,
      "chainId": 0
    },
    {
      "hash": "0xf4a1b6cdf61b2a210568b805935ee8bdc814d2d15b9fe9e3065d925119f87cb6",
      "blockHash": "0x8d532c3c187ff85f9a0bb76082b2812ff3bedb0004944f22362650803f196e20",
      "blockNumber": 121872,
      "transactionIndex": 1,
      "confirmations": null,
      "from": "0x2C82c5457b3e101b0c8bc5c7e6BA098c1FfD53B6",
      "gasPrice": {
        "_hex": "0xd21d23441"
      },
      "gasLimit": {
        "_hex": "0x15f90"
      },
      "to": "0x89Ea4C778D3f3D6BE70883BB9995D41Bd4c453Ab",
      "value": {
        "_hex": "0x1bc16d674ec80000"
      },
      "nonce": 6,
      "data": "0x",
      "r": "0x291b8edb4fc982f9d139951327a492353618dc9bf1ddbb5e1522d44a1939669e",
      "s": "0x0b24282f3ddd28e303eb72459c20ce880a1c85ebbc3b63f57c0ccaca88eaec0e",
      "v": 28,
      "creates": null,
      "raw": "0xf86d06850d21d2344183015f909489ea4c778d3f3d6be70883bb9995d41bd4c453ab881bc16d674ec80000801ca0291b8edb4fc982f9d139951327a492353618dc9bf1ddbb5e1522d44a1939669ea00b24282f3ddd28e303eb72459c20ce880a1c85ebbc3b63f57c0ccaca88eaec0e",
      "networkId": 0,
      "chainId": 0
    },
    {
      "hash": "0x9f3dcf7f9c1b0b22c8e2d73b97fd694374d40203a6ac35237c458801968ad100",
      "blockHash": "0x8d532c3c187ff85f9a0bb76082b2812ff3bedb0004944f22362650803f196e20",
      "blockNumber": 121872,
      "transactionIndex": 2,
      "confirmations": null,
      "from": "0xe6A7a1d47ff21B6321162AEA7C6CB457D5476Bca",
      "gasPrice": {
        "_hex": "0xba43b7400"
      },
      "gasLimit": {
        "_hex": "0x55f0"
      },
      "to": "0xc61cbA90ba820f8D70f3AfE3dDfEA5201A0Bb795",
      "value": {
        "_hex": "0x15fd8ddb29556860"
      },
      "nonce": 6442,
      "data": "0x",
      "r": "0xc374361bfa0cb089f559d294f4cc733b6b5f9d962588101b762f8689f2fdf69b",
      "s": "0x31d7879db7f287daa41a6040e5d20b8978b4d05e5f621d754e619d5b39c1a529",
      "v": 27,
      "creates": null,
      "raw": "0xf86e82192a850ba43b74008255f094c61cba90ba820f8d70f3afe3ddfea5201a0bb7958815fd8ddb29556860801ba0c374361bfa0cb089f559d294f4cc733b6b5f9d962588101b762f8689f2fdf69ba031d7879db7f287daa41a6040e5d20b8978b4d05e5f621d754e619d5b39c1a529",
      "networkId": 0,
      "chainId": 0
    }
  ]
}