{
  "hash": "0x3aa7d417ad227b28c6a7cafacd0a9c9005908dfad5d454aab220f3766b2226f0",
  "parentHash": "0xac3ed449a78f284b1348a933c98b8160b626cf7768b94a8ad3f646642f7eb11a",
  "number": 78274,
  "timestamp": 1439451304,
  "nonce": "0x9f2c5df67f5ecc1b",
  "difficulty": 2282085835624,
  "gasLimit": {
    "_hex": "0x2fefd8"
  },
  "gasUsed": {
    "_hex": "0x5208"
  },
  "miner": "0xf927a40C8B7F6E07c5af7FA2155B4864a4112B13",
  "extraData": "0x",
  "transactions": [
    {
      "hash": "0x0ca15ca74d8680c34452ff1111a8eca807c5ed0b211174e792af4cac5d6257a9",
      "blockHash": "0x3aa7d417ad227b28c6a7cafacd0a9c9005908dfad5d454aab220f3766b2226f0",
      "blockNumber": 78274,
      "transactionIndex": 0,
      "confirmations": null,
      "from": "0x2910543Af39abA0Cd09dBb2D50200b3E800A63D2",
      "gasPrice": {
        "_hex": "0xd271f801f"
      },
      "gasLimit": {
        "_hex": "0x5208"
      },
      "to": "0xE57399f2Eea4ba6d2B4139b1190F5BE1E9880ABe",
      "value": {
        "_hex": "0x10b24a0cac2c6f8000"
      },
      "nonce": 342,
      "data": "0x",
      "r": "0x475bd9df1ab7dbfd454cf91ca6dac32c145c6d5c9b40a9ffdfb62ce3faefb9a0",
      "s": "0x07f107db4a851160641363a693d57fc102ae0b1a53b232cec8ab14ba3b586f56",
      "v": 28,
      "creates": null,
      "raw": "0xf86f820156850d271f801f82520894e57399f2eea4ba6d2b4139b1190f5be1e9880abe8910b24a0cac2c6f8000801ca0475bd9df1ab7dbfd454cf91ca6dac32c145c6d5c9b40a9ffdfb62ce3faefb9a0a007f107db4a851160641363a693d57fc102ae0b1a53b232cec8ab14ba3b586f56",
      "networkId": 0,
      "chainId": 0
    }
  ]
}