{
  "hash": "0xa358801f13acde58786aded5b1772ea53e036343f17fd50fc566a71e7f83b6b6",
  "parentHash": "0x3220be0a2838297e95470657eb76a970a9988ed52e560e0176e52caefc2f2502",
  "number": 91380,
  "timestamp": 1439654845,
  "nonce": "0x8c6dadefd6a3e3a6",
  "difficulty": 3467553895131,
  "gasLimit": {
    "_hex": "0x2fefd8"
  },
  "gasUsed": {
    "_hex": "0xa674"
  },
  "miner": "0xbb7B8287f3F0a933474a79eAe42CBCa977791171",
  "extraData": "0x476574682f4c5649562f76312e302e312f6c696e75782f676f312e342e32",
  "transactions": [
    {
      "hash": "0x921ae15c4c14dfebd7da28d7e44b8bb05a4e1c81137135f06a58b4c0bddec609",
      "blockHash": "0xa358801f13acde58786aded5b1772ea53e036343f17fd50fc566a71e7f83b6b6",
      "blockNumber": 91380,
      "transactionIndex": 0,
      "confirmations": null,
      "from": "0x3872f48dC5e3f817BC6B2aD2d030fc5e0471193d",
      "gasPrice": {
        "_hex": "0x110c8f7d8de"
      },
      "gasLimit": {
        "_hex": "0xc350"
      },
      "to": "0x2910543Af39abA0Cd09dBb2D50200b3E800A63D2",
      "value": {
        "_hex": "0x362ed9526c0aee0000"
      },
      "nonce": 3,
      "data": "0x454e31343431363138",
      "r": "0x4d2b6f9860862f92594edae88e9a9403da9a50b6fe74b840c81427b6973a62db",
      "s": "0xd6d599618e012d9b46cec393b68df488eff8db0503dc4b3aad2c785ee172ea96",
      "v": 27,
      "creates": null,
      "raw": "0xf87703860110c8f7d8de82c350942910543af39aba0cd09dbb2d50200b3e800a63d289362ed9526c0aee000089454e313434313631381ba04d2b6f9860862f92594edae88e9a9403da9a50b6fe74b840c81427b6973a62dba0d6d599618e012d9b46cec393b68df488eff8db0503dc4b3aad2c785ee172ea96",
      "networkId": 0,
      "chainId": 0
    },
    {
      "hash": "0xba1470bb9b2dadc2847d33dfa11f69fe22af16a93314c5507fd6fa0e94296fdd",
      "blockHash": "0xa358801f13acde58786aded5b1772ea53e036343f17fd50fc566a71e7f83b6b6",
      "blockNumber": 91380,
      "transactionIndex": 1,
      "confirmations": null,
      "from": "0xAF654b2845616930f74573a909B477E23752DcA4",
      "gasPrice": {
        "_hex": "0xba43b7400"
      },
      "gasLimit": {
        "_hex": "0x5267"
      },
      "to": "0x014e478251F22a79fA7014f285647d91462A9669",
      "value": {
        "_hex": "0x85"
      },
      "nonce": 4,
      "data": "0x",
      "r": "0xf0f23e4002b18ee60b41b9ae91f7ae62d827dff3ed5bd8fe368e1d8bb399cb36",
      "s": "0x08fc23adaf5ff0e2b9bad2a8cfdeaaa50072f86b02417d11d0c49e6348d33fe8",
      "v": 27,
      "creates": null,
      "raw": "0xf86504850ba43b740082526794014e478251f22a79fa7014f285647d91462a96698185801ba0f0f23e4002b18ee60b41b9ae91f7ae62d827dff3ed5bd8fe368e1d8bb399cb36a008fc23adaf5ff0e2b9bad2a8cfdeaaa50072f86b02417d11d0c49e6348d33fe8",
      "networkId": 0,
      "chainId": 0
    }
  ]
}