{
  "hash": "0x7cfbddea4a421a79670a1a0e69cbeaac50acd0b257bbf7a2d7191f4f872acc0a",
  "parentHash": "0xbdf6a896e850bb347242d7884a4833e65f021b0246706989a6b0982f7a0093ec",
  "number": 113690,
  "timestamp": 1440027831,
  "nonce": "0x0b1ea187dff90ba4",
  "difficulty": 4462337309328,
  "gasLimit": {
    "_hex": "0x2fefd8"
  },
  "gasUsed": {
    "_hex": "0x5208"
  },
  "miner": "0x9746c7e1ef2bd21FF3997fa467593a89cb852BD0",
  "extraData": "0x476574682f76312e302e312f77696e646f77732f676f312e342e32",
  "transactions": [
    {
      "hash": "0xfb3c53e7e0e6d0aff7beb6a746f4b22b15ecccd9f603c3041568cfc504533007",
      "blockHash": "0x7cfbddea4a421a79670a1a0e69cbeaac50acd0b257bbf7a2d7191f4f872acc0a",
      "blockNumber": 113690,
      "transactionIndex": 0,
      "confirmations": null,
      "from": "0x61F642543d22bAf5382908a714E675Cc0b51ea45",
      "gasPrice": {
        "_hex": "0xcf32f1c83"
      },
      "gasLimit": {
        "_hex": "0x5208"
      },
      "to": "0x32Be343B94f860124dC4fEe278FDCBD38C102D88",
      "value": {
        "_hex": "0x455f6b35bfcf1c00"
      },
      "nonce": 23,
      "data": "0x",
      "r": "0xe0687e0a242764a8da50afd1b7403d3ea49e596b759c589052598abe38df8537",
      "s": "0x686b86b2c5809188b7efeecd6f689a9c3cd223d691c8e2fae4f31720ff5c962c",
      "v": 27,
      "creates": null,
      "raw": "0xf86c17850cf32f1c838252089432be343b94f860124dc4fee278fdcbd38c102d8888455f6b35bfcf1c00801ba0e0687e0a242764a8da50afd1b7403d3ea49e596b759c589052598abe38df8537a0686b86b2c5809188b7efeecd6f689a9c3cd223d691c8e2fae4f31720ff5c962c",
      "networkId": 0,
      "chainId": 0
    }
  ]
}