{
  "hash": "0x24d078e8ec79da0ba9243e1bb8d7dbb11d690ac6eedb6e31b75918b8fd49fd64",
  "parentHash": "0x69ac00b10a28c4cd1246c310d809482c6d595395ab51a62cbd31fbb581da7793",
  "number": 96078,
  "timestamp": 1439734529,
  "nonce": "0x579b25891a83bdd0",
  "difficulty": 3646145655033,
  "gasLimit": {
    "_hex": "0x2fefd8"
  },
  "gasUsed": {
    "_hex": "0xf618"
  },
  "miner": "0xC5624D986419AeBa6B6A7Ce5BAFd9883f75d8bc8",
  "extraData": "0x",
  "transactions": [
    {
      "hash": "0x13fd9631a57992f7847ea228c568b29f0065bd9c8cb871f7b60292bd4cd87119",
      "blockHash": "0x24d078e8ec79da0ba9243e1bb8d7dbb11d690ac6eedb6e31b75918b8fd49fd64",
      "blockNumber": 96078,
      "transactionIndex": 0,
      "confirmations": null,
      "from": "0x7884D470204862a0d1A21122F41ee77430396Ee5",
      "gasPrice": {
        "_hex": "0xdeb1c0218"
      },
      "gasLimit": {
        "_hex": "0x15f90"
      },
      "to": "0xfdB948C0D3FC00Bbe56f48268481A3F8cc1743A2",
      "value": {
        "_hex": "0x174876e800"
      },
      "nonce": 7,
      "data": "0x",
      "r": "0x7fa504d2b671f65e90b0b66503992cbb61065083d176fa0e0ee22edbc82a26c5",
      "s": "0x45973634d74f364819327cde67c997ea4440be19614eb865c7ad6a8615cf3767",
      "v": 28,
      "creates": null,
      "raw": "0xf86a07850deb1c021883015f9094fdb948c0d3fc00bbe56f48268481a3f8cc1743a285174876e800801ca07fa504d2b671f65e90b0b66503992cbb61065083d176fa0e0ee22edbc82a26c5a045973634d74f364819327cde67c997ea4440be19614eb865c7ad6a8615cf3767",
      "networkId": 0,
      "chainId": 0
    },
    {
      "hash": "0x829f6442ed47f2b32794030a59f436d3605e98557c31d5fbaae957777b5fe3d7",
      "blockHash": "0x24d078e8ec79da0ba9243e1bb8d7dbb11d690ac6eedb6e31b75918b8fd49fd64",
      "blockNumber": 96078,
      "transactionIndex": 1,
      "confirmations": null,
      "from": "0x9dc5018E753A410593259039296bBfd28E29f894",
      "gasPrice": {
        "_hex": "0xda2e54d69"
      },
      "gasLimit": {
        "_hex": "0x61a8"
      },
      "to": "0x50056353D06a71b1f427499419D04F81f5dE4F20",
      "value": {
        "_hex": "0xfa89f0ccf940b550"
      },
      "nonce": 2,
      "data": "0x",
      "r": "0xc74a546f921789357220ad4ab9f5b20972aabadb60c0c10148b7b4a53b02d257",
      "s": "0x6f330eac181b7253121381e81f38450c4097dea8f77a1d8d710e63c88d8f2570",
      "v": 27,
      "creates": null,
      "raw": "0xf86c02850da2e54d698261a89450056353d06a71b1f427499419d04f81f5de4f2088fa89f0ccf940b550801ba0c74a546f921789357220ad4ab9f5b20972aabadb60c0c10148b7b4a53b02d257a06f330eac181b7253121381e81f38450c4097dea8f77a1d8d710e63c88d8f2570",
      "networkId": 0,
      "chainId": 0
    },
    {
      "hash": "0x03584c4c51a59f2f154f89717dc44e496a9c7b4df98a70853f387e78ce8e218b",
      "blockHash": "0x24d078e8ec79da0ba9243e1bb8d7dbb11d690ac6eedb6e31b75918b8fd49fd64",
      "blockNumber": 96078,
      "transactionIndex": 2,
      "confirmations": null,
      "from": "0xFb89b8778d254A66A7FE21Ca8C9F095375D497f4",
      "gasPrice": {
        "_hex": "0xba43b7400"
      },
      "gasLimit": {
        "_hex": "0x5208"
      },
      "to": "0xC47Aaa860008be6f65B58c6C6E02a84e666EfE31",
      "value": {
        "_hex": "0x821958ed2afb40710"
      },
      "nonce": 3,
      "data": "0x",
      "r": "0x3d1e1d235c6389bb41f6c4cd8812c6604c1b7c4d87c74f52898a71f419d5f143",
      "s": "0x708d64ea99845550e54946ef01bfa75a184cf0532c3dc7968008fbf81fd8693b",
      "v": 27,
      "creates": null,
      "raw": "0xf86d03850ba43b740082520894c47aaa860008be6f65b58c6c6e02a84e666efe31890821958ed2afb40710801ba03d1e1d235c6389bb41f6c4cd8812c6604c1b7c4d87c74f52898a71f419d5f143a0708d64ea99845550e54946ef01bfa75a184cf0532c3dc7968008fbf81fd8693b",
      "networkId": 0,
      "chainId": 0
    }
  ]
}