{
  "hash": "0x4c5f9c1b9501241db4e2c732ad35be317a1023a3bce832f45b66584c70f83394",
  "parentHash": "0x4b6b220e7f8c9331ce40860b3adbe4bae45025e35c3f4da48c0c68d24532ed82",
  "number": 119229,
  "timestamp": 1440139009,
  "nonce": "0x80edcaabf04dff2f",
  "difficulty": 4426849554210,
  "gasLimit": {
    "_hex": "0x2fefd8"
  },
  "gasUsed": {
    "_hex": "0x5208"
  },
  "miner": "0xe6A7a1d47ff21B6321162AEA7C6CB457D5476Bca",
  "extraData": "0xd783010002844765746887676f312e342e32856c696e7578",
  "transactions": [
    {
      "hash": "0x96a073d3a37ebe41c15de8b84331be2b60c6a40083e45bff4a20aeece5b8d65b",
      "blockHash": "0x4c5f9c1b9501241db4e2c732ad35be317a1023a3bce832f45b66584c70f83394",
      "blockNumber": 119229,
      "transactionIndex": 0,
      "confirmations": null,
      "from": "0x790b8a3cE86E707ED0eD32bF89B3269692a23CC1",
      "gasPrice": {
        "_hex": "0xba43b7400"
      },
      "gasLimit": {
        "_hex": "0x15f90"
      },
      "to": "0x4D67f4F0Db45b3B5a3424B39ed8d972F710381D5",
      "value": {
        "_hex": "0x376ca67717b760000"
      },
      "nonce": 66,
      "data": "0x",
      "r": "0x4aa8dbd51f94d3597c2df55c4f0f432c85fa3b796489e99746c9e9e8e50c9a6f",
      "s": "0x473f61fa0fdd9b37cc6dd6cf31c2c05fded8eca5b09777e4272e4532f49cbd2c",
      "v": 28,
      "creates": null,
      "raw": "0xf86e42850ba43b740083015f90944d67f4f0db45b3b5a3424b39ed8d972f710381d5890376ca67717b760000801ca04aa8dbd51f94d3597c2df55c4f0f432c85fa3b796489e99746c9e9e8e50c9a6fa0473f61fa0fdd9b37cc6dd6cf31c2c05fded8eca5b09777e4272e4532f49cbd2c",
      "networkId": 0,
      "chainId": 0
    }
  ]
}