{
  "hash": "0xa1723b6b276018da5f8da13bd9ecc707301c03529a0ebce0d9a93d3bbe1740fb",
  "parentHash": "0x894eae8908f4edd0652e02aeb207799fa9a9d0c9f15018d0d398aee18a6379f0",
  "number": 83769,
  "timestamp": 1439540593,
  "nonce": "0x762214b0b29f16b0",
  "difficulty": 2445523068711,
  "gasLimit": {
    "_hex": "0x2fefd5"
  },
  "gasUsed": {
    "_hex": "0x546c"
  },
  "miner": "0x2134e2a2b718DCa96580ECAC31E653Ea1fdd58DA",
  "extraData": "0x476574682f76312e302e312f77696e646f77732f676f312e342e32",
  "transactions": [
    {
      "hash": "0x73f6b1a80cf4f12d970ecb971d0cca0b729bdbf4472adef245a15264346f3610",
      "blockHash": "0xa1723b6b276018da5f8da13bd9ecc707301c03529a0ebce0d9a93d3bbe1740fb",
      "blockNumber": 83769,
      "transactionIndex": 0,
      "confirmations": null,
      "from": "0x6CE13F1816a2cFab76C59714291Cb8403CbBB3D8",
      "gasPrice": {
        "_hex": "0xd7d40ace3"
      },
      "gasLimit": {
        "_hex": "0x55f0"
      },
      "to": "0x2910543Af39abA0Cd09dBb2D50200b3E800A63D2",
      "value": {
        "_hex": "0x62884461f1460000"
      },
      "nonce": 1,
      "data": "0x454e4a5634464a5452",
      "r": "0x97469cbffb8327249668e2c61639f180528568b54a4d9f01951fd2be209dd616",
      "s": "0x48a31de600d0ba9e637917080e7498d343f82b96c12132cd1aec40eb5830c3a2",
      "v": 28,
      "creates": null,
      "raw": "0xf87501850d7d40ace38255f0942910543af39aba0cd09dbb2d50200b3e800a63d28862884461f146000089454e4a5634464a54521ca097469cbffb8327249668e2c61639f180528568b54a4d9f01951fd2be209dd616a048a31de600d0ba9e637917080e7498d343f82b96c12132cd1aec40eb5830c3a2",
      "networkId": 0,
      "chainId": 0
    }
  ]
}