{
  "hash": "0xf57d16cbfdfc91c78bf9c38fe05e616fc3b25623e3be51cb310f9ee7a0005388",
  "parentHash": "0xf7ef003893e7624b183b68e21f099fda4e41c9e7fd7012c402a1954eaa4e0927",
  "number": 80363,
  "timestamp": 1439484603,
  "nonce": "0x2a275eee25bcccae",
  "difficulty": 2380525612302,
  "gasLimit": {
    "_hex": "0x2fefd8"
  },
  "gasUsed": {
    "_hex": "0x14e47"
  },
  "miner": "0x06D138312754bDEB5c1175f47cE00620c480E9C9",
  "extraData": "0x476574682f76312e302e312f6c696e75782f676f312e342e32",
  "transactions": [
    {
      "hash": "0x3332a266586ad7a99885e7fe74fe9151eebb207e33b12bc6ea7aa7631ae8cc65",
      "blockHash": "0xf57d16cbfdfc91c78bf9c38fe05e616fc3b25623e3be51cb310f9ee7a0005388",
      "blockNumber": 80363,
      "transactionIndex": 0,
      "confirmations": null,
      "from": "0x87C5B5874A18B4306DF8a752a6C8cc3E82daFc19",
      "gasPrice": {
        "_hex": "0xfecfa8b642"
      },
      "gasLimit": {
        "_hex": "0x493e0"
      },
      "to": "0xC4c51de1AbF5D60DBd329eC0F999Fd8f021ae9fC",
      "value": {
        "_hex": "0x0"
      },
      "nonce": 187,
      "data": "0x03750d9400000000000000000000000087c5b5874a18b4306df8a752a6c8cc3e82dafc196b6b6b0000000000000000000000000000000000000000000000000000000000",
      "r": "0x82d75a0d57991ef6b0cd6cf3db52e667620c2d9887f84c07c96693072703f44e",
      "s": "0x045a13d2677eb16cf647004d350c55b9ba6d2c4ba4eecaf40bd52a5cc55da4b1",
      "v": 28,
      "creates": null,
      "raw": "0xf8ab81bb85fecfa8b642830493e094c4c51de1abf5d60dbd329ec0f999fd8f021ae9fc80b84403750d9400000000000000000000000087c5b5874a18b4306df8a752a6c8cc3e82dafc196b6b6b00000000000000000000000000000000000000000000000000000000001ca082d75a0d57991ef6b0cd6cf3db52e667620c2d9887f84c07c96693072703f44ea0045a13d2677eb16cf647004d350c55b9ba6d2c4ba4eecaf40bd52a5cc55da4b1",
      "networkId": 0,
      "chainId": 0
    },
    {
      "hash": "0xaf649a695a981551180fe69fdc2a340ac11283d829a06337775ab378adbef884",
      "blockHash": "0xf57d16cbfdfc91c78bf9c38fe05e616fc3b25623e3be51cb310f9ee7a0005388",
      "blockNumber": 80363,
      "transactionIndex": 1,
      "confirmations": null,
      "from": "0xaFF2628417768132E1d04f605Fe1e797f2ECA3F8",
      "gasPrice": {
        "_hex": "0x746a528800"
      },
      "gasLimit": {
        "_hex": "0x5b04"
      },
      "to": "0x1467bcfA961fE8067c779935a78B4a73E7393BD8",
      "value": {
        "_hex": "0x1bc16d674ec80000"
      },
      "nonce": 2,
      "data": "0x",
      "r": "0x164945a8741275924d0cd79115bb18c4673009c4397566768144185712e90829",
      "s": "0xf1acfccae70453cf1c5b5fe64ebdd65d0d6327bc1db572261af836ccb568e7db",
      "v": 28,
      "creates": null,
      "raw": "0xf86c0285746a528800825b04941467bcfa961fe8067c779935a78b4a73e7393bd8881bc16d674ec80000801ca0164945a8741275924d0cd79115bb18c4673009c4397566768144185712e90829a0f1acfccae70453cf1c5b5fe64ebdd65d0d6327bc1db572261af836ccb568e7db",
      "networkId": 0,
      "chainId": 0
    },
    {
      "hash": "0x39e134c74b1599876447fcc1ee42549b3afa9728b8977eb33ff5fd79d2af6f2e",
      "blockHash": "0xf57d16cbfdfc91c78bf9c38fe05e616fc3b25623e3be51cb310f9ee7a0005388",
      "blockNumber": 80363,
      "transactionIndex": 2,
      "confirmations": null,
      "from": "0x7Eb9F59f9547E376188eD83EFCD1F6dbF3712eA6",
      "gasPrice": {
        "_hex": "0xcb23aaccd"
      },
      "gasLimit": {
        "_hex": "0x15f90"
      },
      "to": "0xAd941B747c499E3ad5728C285446813783A33564",
      "value": {
        "_hex": "0x4563918244f40000"
      },
      "nonce": 6,
      "data": "0x",
      "r": "0x38ef9e4c4f6731b22ee6cdb1e1ef8bfb98818a7aba47f371458e86b778de1f76",
      "s": "0x6f260d2cdc88777656c39ec541a61414039020d35c982833e68811754c473419",
      "v": 28,
      "creates": null,
      "raw": "0xf86d06850cb23aaccd83015f9094ad941b747c499e3ad5728c285446813783a33564884563918244f40000801ca038ef9e4c4f6731b22ee6cdb1e1ef8bfb98818a7aba47f371458e86b778de1f76a06f260d2cdc88777656c39ec541a61414039020d35c982833e68811754c473419",
      "networkId": 0,
      "chainId": 0
    }
  ]
}