{
  "hash": "0x375ba15429966fe9de3aff42d2af5225fee5b0d2aff527589ea8a3c5313b1799",
  "parentHash": "0x3464c218b05c3ef1e9fab5f95f599efef82d0f44467d7f90286a23fc04201259",
  "number": 103579,
  "timestamp": 1439855587,
  "nonce": "0xec3818886fd93e8f",
  "difficulty": 4203186185678,
  "gasLimit": {
    "_hex": "0x2fefd8"
  },
  "gasUsed": {
    "_hex": "0x5208"
  },
  "miner": "0xe6A7a1d47ff21B6321162AEA7C6CB457D5476Bca",
  "extraData": "0x476574682f76312e302e312d38326566323666362f6c696e75782f676f312e34",
  "transactions": [
    {
      "hash": "0xdea71cd5dcb3284f7b0bb3eee415f9afd525221d05abeeb23e5e1ea94addd82b",
      "blockHash": "0x375ba15429966fe9de3aff42d2af5225fee5b0d2aff527589ea8a3c5313b1799",
      "blockNumber": 103579,
      "transactionIndex": 0,
      "confirmations": null,
      "from": "0x120A270bbC009644e35F0bB6ab13f95b8199c4ad",
      "gasPrice": {
        "_hex": "0xd3eb2e7d1"
      },
      "gasLimit": {
        "_hex": "0x3d090"
      },
      "to": "0xCA092A957744f6385B1aee5dC694143E8A06F805",
      "value": {
        "_hex": "0x7469c8943f7b000"
      },
      "nonce": 725,
      "data": "0x",
      "r": "0xa7c5cb3c46c334a85f82172a87b50cda7b5c16598650cb61d07851673f5baba7",
      "s": "0x2cbd5668a7ca52b6864135dc9e9f8092fc191c338aa0896986c7b7ec069d3075",
      "v": 27,
      "creates": null,
      "raw": "0xf86f8202d5850d3eb2e7d18303d09094ca092a957744f6385b1aee5dc694143e8a06f8058807469c8943f7b000801ba0a7c5cb3c46c334a85f82172a87b50cda7b5c16598650cb61d07851673f5baba7a02cbd5668a7ca52b6864135dc9e9f8092fc191c338aa0896986c7b7ec069d3075",
      "networkId": 0,
      "chainId": 0
    }
  ]
}