{
  "hash": "0xef0f3bb26b60006a5c8bb84541b6d3fd1f01ecd37b7d59af927c4af99e1514a8",
  "parentHash": "0x46e2401ea2c8648d556bf84533382c1dff73c74fcd85aa384999e520c21bcf16",
  "number": 78354,
  "timestamp": 1439452528,
  "nonce": "0x470e9485d550799f",
  "difficulty": 2273167146693,
  "gasLimit": {
    "_hex": "0x2fefd8"
  },
  "gasUsed": {
    "_hex": "0x5208"
  },
  "miner": "0x94b7fDF01f4E5d76b2C31eEb846f91F427606C98",
  "extraData": "0x476574682f76312e302e312d38326566323666362f6c696e75782f676f312e34",
  "transactions": [
    {
      "hash": "0x6050bce36ef4aa1ead4cebec98c6f7d5accc45afbe33544da7da88e72329b5ab",
      "blockHash": "0xef0f3bb26b60006a5c8bb84541b6d3fd1f01ecd37b7d59af927c4af99e1514a8",
      "blockNumber": 78354,
      "transactionIndex": 0,
      "confirmations": null,
      "from": "0xc597A5d92F5dC1137D847db733cfe02c6d209f13",
      "gasPrice": {
        "_hex": "0xdcdb80b96"
      },
      "gasLimit": {
        "_hex": "0x15f90"
      },
      "to": "0x5a0f0935E8E5591B2f9f2d55f29C626B50292088",
      "value": {
        "_hex": "0x2c6db0e33398b000"
      },
      "nonce": 9,
      "data": "0x",
      "r": "0x41ab3623cbab32a23a53214176ce25ccb5dbd3f4639fb3d204638433a81c135f",
      "s": "0x1faa63195e286117321f5c8a63460e65b31d6efb729bc395d9ec4dbe4bb9fb81",
      "v": 27,
      "creates": null,
      "raw": "0xf86d09850dcdb80b9683015f90945a0f0935e8e5591b2f9f2d55f29c626b50292088882c6db0e33398b000801ba041ab3623cbab32a23a53214176ce25ccb5dbd3f4639fb3d204638433a81c135fa01faa63195e286117321f5c8a63460e65b31d6efb729bc395d9ec4dbe4bb9fb81",
      "networkId": 0,
      "chainId": 0
    }
  ]
}