{
  "hash": "0xfdc0cbd2a90d3fc1e3e5b075b2268f7cb56f616b266479dddf5c1dcc7a2b0047",
  "parentHash": "0x7d821801c54b56ff73f4cd341779e5dca47e4c3f4d58cc30630c73b3358e566b",
  "number": 101145,
  "timestamp": 1439818119,
  "nonce": "0xb6c6768a6fac8538",
  "difficulty": 3869499574231,
  "gasLimit": {
    "_hex": "0x2fefd8"
  },
  "gasUsed": {
    "_hex": "0x5208"
  },
  "miner": "0xe6A7a1d47ff21B6321162AEA7C6CB457D5476Bca",
  "extraData": "0x476574682f76312e302e312d38326566323666362f6c696e75782f676f312e34",
  "transactions": [
    {
      "hash": "0xc5935bf3bcac15f86a83cb18cc1a0b923e87030cc9149a472dd64445ed51f09f",
      "blockHash": "0xfdc0cbd2a90d3fc1e3e5b075b2268f7cb56f616b266479dddf5c1dcc7a2b0047",
      "blockNumber": 101145,
      "transactionIndex": 0,
      "confirmations": null,
      "from": "0xb1abce2918E21ddb93AA452731a12672A3d9F75a",
      "gasPrice": {
        "_hex": "0xd48f18100"
      },
      "gasLimit": {
        "_hex": "0x5208"
      },
      "to": "0x32Be343B94f860124dC4fEe278FDCBD38C102D88",
      "value": {
        "_hex": "0x8ac2d6c3feef8800"
      },
      "nonce": 86,
      "data": "0x",
      "r": "0xf2fec61a20f6a5fbfe5ba09db933c25e2ce255792747f077eb684f80be645aa5",
      "s": "0x544b453c1e26735d87598ea3104ebe686170103e01ba473bcf069ea0a70745c8",
      "v": 27,
      "creates": null,
      "raw": "0xf86c56850d48f181008252089432be343b94f860124dc4fee278fdcbd38c102d88888ac2d6c3feef8800801ba0f2fec61a20f6a5fbfe5ba09db933c25e2ce255792747f077eb684f80be645aa5a0544b453c1e26735d87598ea3104ebe686170103e01ba473bcf069ea0a70745c8",
      "networkId": 0,
      "chainId": 0
    }
  ]
}