{
  "hash": "0xf77edf968e9bb093e7fe379124c6c707d583ef8f31b98570c26097255d62525a",
  "parentHash": "0x176809cac1b83d5274e4263fa6bb48714ab6119ee93336a23a71679bf71d58d1",
  "number": 109677,
  "timestamp": 1439960684,
  "nonce": "0x0e4a071fb8f3169f",
  "difficulty": 4449239163481,
  "gasLimit": {
    "_hex": "0x2fefd8"
  },
  "gasUsed": {
    "_hex": "0xa410"
  },
  "miner": "0xe6A7a1d47ff21B6321162AEA7C6CB457D5476Bca",
  "extraData": "0x476574682f76312e302e312d38326566323666362f6c696e75782f676f312e34",
  "transactions": [
    {
      "hash": "0xc780e5eace19d225fbe949c5674b144c8d1340a9b12e2cb8f7f78894877cef03",
      "blockHash": "0xf77edf968e9bb093e7fe379124c6c707d583ef8f31b98570c26097255d62525a",
      "blockNumber": 109677,
      "transactionIndex": 0,
      "confirmations": null,
      "from": "0xb1abce2918E21ddb93AA452731a12672A3d9F75a",
      "gasPrice": {
        "_hex": "0xd5b3b3831"
      },
      "gasLimit": {
        "_hex": "0x5208"
      },
      "to": "0x32Be343B94f860124dC4fEe278FDCBD38C102D88",
      "value": {
        "_hex": "0x455f54bed5154400"
      },
      "nonce": 153,
      "data": "0x",
      "r": "0xda1c79178fc43920ef53778049dd1fe2aa683559df3fa291a36b0dc218b8772d",
      "s": "0x5efc9a91b15b5c3b12ecf0a726dbc3f5dac6a6dcb84633e9bd78af2635d060ca",
      "v": 28,
      "creates": null,
      "raw": "0xf86d8199850d5b3b38318252089432be343b94f860124dc4fee278fdcbd38c102d8888455f54bed5154400801ca0da1c79178fc43920ef53778049dd1fe2aa683559df3fa291a36b0dc218b8772da05efc9a91b15b5c3b12ecf0a726dbc3f5dac6a6dcb84633e9bd78af2635d060ca",
      "networkId": 0,
      "chainId": 0
    },
    {
      "hash": "0x004d72449a655fb15fa3b85c2d3adf2e0a27a5299d4be229d2234fd486522b9c",
      "blockHash": "0xf77edf968e9bb093e7fe379124c6c707d583ef8f31b98570c26097255d62525a",
      "blockNumber": 109677,
      "transactionIndex": 1,
      "confirmations": null,
      "from": "0x63BBedc46A1113Ba7938CF7C18CCb5Aed20eC733",
      "gasPrice": {
        "_hex": "0xd1f217cbf"
      },
      "gasLimit": {
        "_hex": "0x15f90"
      },
      "to": "0x0A319A7e0C887F104359e1eEe6717BD8f232d3Da",
      "value": {
        "_hex": "0x401918a76055e0000"
      },
      "nonce": 10,
      "data": "0x",
      "r": "0xa45698650f28122ea55433721db15c189b083f407c4a8357a33532adda3902f2",
      "s": "0x7975c4326c34b9d10fbd086866c2227d25e22d01c6d7252ab4533d1b0e781cda",
      "v": 27,
      "creates": null,
      "raw": "0xf86e0a850d1f217cbf83015f90940a319a7e0c887f104359e1eee6717bd8f232d3da890401918a76055e0000801ba0a45698650f28122ea55433721db15c189b083f407c4a8357a33532adda3902f2a07975c4326c34b9d10fbd086866c2227d25e22d01c6d7252ab4533d1b0e781cda",
      "networkId": 0,
      "chainId": 0
    }
  ]
}