{
  "hash": "0xc49b9e09367086b3fd8756080d193e4d49fd63335201a36c4e6f26a26ecde746",
  "parentHash": "0xfcc10f3995186071c16b6becd0d45c39b6b980a727b80ca1b3eb7bc4c343cfaf",
  "number": 108718,
  "timestamp": 1439945129,
  "nonce": "0xe20fc3093c2a3281",
  "difficulty": 4340307000531,
  "gasLimit": {
    "_hex": "0x2fefd8"
  },
  "gasUsed": {
    "_hex": "0x5208"
  },
  "miner": "0x7E6930B63D03e88F5928C5cd6ee3FCee4D714F7F",
  "extraData": "0x",
  "transactions": [
    {
      "hash": "0x35b4668589522800a547f24273fe2a91746fbd34581de2ea1216ffcbe96b1d8a",
      "blockHash": "0xc49b9e09367086b3fd8756080d193e4d49fd63335201a36c4e6f26a26ecde746",
      "blockNumber": 108718,
      "transactionIndex": 0,
      "confirmations": null,
      "from": "0x196DAA0CA5AAE3dC7ff55F495f9749733C58f4Fb",
      "gasPrice": {
        "_hex": "0xba43b7400"
      },
      "gasLimit": {
        "_hex": "0x5208"
      },
      "to": "0xC47Aaa860008be6f65B58c6C6E02a84e666EfE31",
      "value": {
        "_hex": "0x531d064b4f9338f0"
      },
      "nonce": 0,
      "data": "0x",
      "r": "0xfcf7460179f414569d0bd25f64cd81c335197b50c6a247a045adae50ed0f7972",
      "s": "0x795c2be790a1613fba14b233f684afe2c70dd88f6b1de4756fb2a781533a2815",
      "v": 27,
      "creates": null,
      "raw": "0xf86c80850ba43b740082520894c47aaa860008be6f65b58c6c6e02a84e666efe3188531d064b4f9338f0801ba0fcf7460179f414569d0bd25f64cd81c335197b50c6a247a045adae50ed0f7972a0795c2be790a1613fba14b233f684afe2c70dd88f6b1de4756fb2a781533a2815",
      "networkId": 0,
      "chainId": 0
    }
  ]
}