{
  "hash": "0x22a8676df24582235061f685e559464b00a4e156a8d25433b434cd6244add4f6",
  "parentHash": "0x7b4984cbd0836bece0a39ba930c8375e3387085d9a65684280e18e21207ab1e6",
  "number": 66550,
  "timestamp": 1439256429,
  "nonce": "0xa9308177beb057a3",
  "difficulty": 1943281593399,
  "gasLimit": {
    "_hex": "0x2fefd8"
  },
  "gasUsed": {
    "_hex": "0x546c"
  },
  "miner": "0x55bAf64fc9eAccFFd7Cc643BB61142E1C6ac093e",
  "extraData": "0x",
  "transactions": [
    {
      "hash": "0xe5c29efb8933def57570e57cab9344727d03a828870efe73572606f7280c3ae8",
      "blockHash": "0x22a8676df24582235061f685e559464b00a4e156a8d25433b434cd6244add4f6",
      "blockNumber": 66550,
      "transactionIndex": 0,
      "confirmations": null,
      "from": "0x0151FA5d17a2dcE2D7F1eB39EF7fe2aD213D5d89",
      "gasPrice": {
        "_hex": "0x110c8f7d8de"
      },
      "gasLimit": {
        "_hex": "0xc350"
      },
      "to": "0x2910543Af39abA0Cd09dBb2D50200b3E800A63D2",
      "value": {
        "_hex": "0x6c6b935b8bbd400000"
      },
      "nonce": 0,
      "data": "0x454e444e5732324147",
      "r": "0x960b0cafa5d94f79c8a693d61f5971a0f8f5bda72ab8c2b3e032b1a700388b05",
      "s": "0xf1fe1070b4a3ee31c87c0364d906204c71805f6460c06f5a49bcb4187cf71d86",
      "v": 27,
      "creates": null,
      "raw": "0xf87780860110c8f7d8de82c350942910543af39aba0cd09dbb2d50200b3e800a63d2896c6b935b8bbd40000089454e444e57323241471ba0960b0cafa5d94f79c8a693d61f5971a0f8f5bda72ab8c2b3e032b1a700388b05a0f1fe1070b4a3ee31c87c0364d906204c71805f6460c06f5a49bcb4187cf71d86",
      "networkId": 0,
      "chainId": 0
    }
  ]
}