{
  "hash": "0x07d51ae250936d059182bba830b6f04b1b17c4304776b5f4ca6ae26bbd196adf",
  "parentHash": "0x1f0acfe54bbea601dbc83f47cb5930c79ba5af75fd1e4024edb7b0ace8253361",
  "number": 84680,
  "timestamp": 1439553052,
  "nonce": "0x7c7de4b5e5a95246",
  "difficulty": 2609325726929,
  "gasLimit": {
    "_hex": "0x2fefd8"
  },
  "gasUsed": {
    "_hex": "0xa410"
  },
  "miner": "0x52Dc504a422f0E2A9e7632A34a50f1a82F8224c7",
  "extraData": "0x476574682f76312e302e312f6c696e75782f676f312e342e32",
  "transactions": [
    {
      "hash": "0x832b9b34833299bbc7114f4b765aa05ef1ef2adbc432b23496915829de597df2",
      "blockHash": "0x07d51ae250936d059182bba830b6f04b1b17c4304776b5f4ca6ae26bbd196adf",
      "blockNumber": 84680,
      "transactionIndex": 0,
      "confirmations": null,
      "from": "0xabceA603089850F8f6bB612A9031554D90A247CF",
      "gasPrice": {
        "_hex": "0xd3e3c3200"
      },
      "gasLimit": {
        "_hex": "0x5208"
      },
      "to": "0x32Be343B94f860124dC4fEe278FDCBD38C102D88",
      "value": {
        "_hex": "0x34b8118552884c00"
      },
      "nonce": 27,
      "data": "0x",
      "r": "0x657588243194c9bad7af63ab94c79986fa935222f4aced4f2b256106e0f8d5d7",
      "s": "0x3ec986c87ef2275eab4bafffbbd35508e66ce9a8e322b880e72a3e3398f81828",
      "v": 27,
      "creates": null,
      "raw": "0xf86c1b850d3e3c32008252089432be343b94f860124dc4fee278fdcbd38c102d888834b8118552884c00801ba0657588243194c9bad7af63ab94c79986fa935222f4aced4f2b256106e0f8d5d7a03ec986c87ef2275eab4bafffbbd35508e66ce9a8e322b880e72a3e3398f81828",
      "networkId": 0,
      "chainId": 0
    },
    {
      "hash": "0x80b7ef3983d60806eff4f4843bc63decd6ed6d5fe18d38eca6127cbd1c8aa0e4",
      "blockHash": "0x07d51ae250936d059182bba830b6f04b1b17c4304776b5f4ca6ae26bbd196adf",
      "blockNumber": 84680,
      "transactionIndex": 1,
      "confirmations": null,
      "from": "0x32Be343B94f860124dC4fEe278FDCBD38C102D88",
      "gasPrice": {
        "_hex": "0xd3e3c3200"
      },
      "gasLimit": {
        "_hex": "0x5208"
      },
      "to": "0x5F28bcc5faFC8982536A9e4be559657998CdE1E3",
      "value": {
        "_hex": "0x568dd4c4a383b0000"
      },
      "nonce": 693,
      "data": "0x",
      "r": "0xcf8e387057348a13f238daba81bc30f6ca878d13a36996e0c6989c0a97c2222c",
      "s": "0x272488bac936b5989d15299dd004121c09c9e02365b471122ba379c0e6f7fb47",
      "v": 27,
      "creates": null,
      "raw": "0xf86f8202b5850d3e3c3200825208945f28bcc5fafc8982536a9e4be559657998cde1e3890568dd4c4a383b0000801ba0cf8e387057348a13f238daba81bc30f6ca878d13a36996e0c6989c0a97c2222ca0272488bac936b5989d15299dd004121c09c9e02365b471122ba379c0e6f7fb47",
      "networkId": 0,
      "chainId": 0
    }
  ]
}