{
  "hash": "0xf0ea9eafed369abe6139ad341c5bdc3ec20d9ddbdd7aedd7a2762ddf0bea7f39",
  "parentHash": "0xb17363034bbe9ec435b4e9fdf50732161ebad3c791fba672ee35dc5083901a01",
  "number": 95572,
  "timestamp": 1439725893,
  "nonce": "0x15eeb3c6fecf86f7",
  "difficulty": 3642806430806,
  "gasLimit": {
    "_hex": "0x2fefd8"
  },
  "gasUsed": {
    "_hex": "0x5208"
  },
  "miner": "0x88D74a59454F6cF3B51ef6b9136AFb6b9D405A88",
  "extraData": "0x476574682f76312e302e312d38326566323666362f6c696e75782f676f312e34",
  "transactions": [
    {
      "hash": "0xe24d111e38e5d75b43f6acd365e7e75a481d3e3f134ce42ebeafeb29ce28a396",
      "blockHash": "0xf0ea9eafed369abe6139ad341c5bdc3ec20d9ddbdd7aedd7a2762ddf0bea7f39",
      "blockNumber": 95572,
      "transactionIndex": 0,
      "confirmations": null,
      "from": "0x63738Ec4C9adec404749B5747F3bbE2147de632F",
      "gasPrice": {
        "_hex": "0xd8a9e25f9"
      },
      "gasLimit": {
        "_hex": "0x15f90"
      },
      "to": "0x557C2806B6ceA65a66F415bb2Ed1ce897B340745",
      "value": {
        "_hex": "0x8ac7230489e80000"
      },
      "nonce": 4,
      "data": "0x",
      "r": "0x602ccaea20b41dba440d3de43fa98c231edabfa5820263c07fad053a192f966c",
      "s": "0x4da500f47291ebcb236bbed4b7ea0631ab319b874f38e69c862ced811b17f2d6",
      "v": 27,
      "creates": null,
      "raw": "0xf86d04850d8a9e25f983015f9094557c2806b6cea65a66f415bb2ed1ce897b340745888ac7230489e80000801ba0602ccaea20b41dba440d3de43fa98c231edabfa5820263c07fad053a192f966ca04da500f47291ebcb236bbed4b7ea0631ab319b874f38e69c862ced811b17f2d6",
      "networkId": 0,
      "chainId": 0
    }
  ]
}