{
  "hash": "0x2bdcc0b9693f311c0345183d4abad0224def3a9ec2e0706a9d6dcc947fda0a99",
  "parentHash": "0xb8b30f1b96eeb414887703fc9f7c57c84fbec1295c5a268da36bddda33f6dcbd",
  "number": 81304,
  "timestamp": 1439499509,
  "nonce": "0x80ea73a3221397d0",
  "difficulty": 2449827781640,
  "gasLimit": {
    "_hex": "0x2fefd8"
  },
  "gasUsed": {
    "_hex": "0xf618"
  },
  "miner": "0xa50ec0D39fa913E62f1Bae7074E6F36caA71855b",
  "extraData": "0xd783010001844765746887676f312e342e32856c696e7578",
  "transactions": [
    {
      "hash": "0x14e7a0b6d69cd86c26e5b0cf8d25ec98abb4a4ed3fbde81049a217b1986a0f85",
      "blockHash": "0x2bdcc0b9693f311c0345183d4abad0224def3a9ec2e0706a9d6dcc947fda0a99",
      "blockNumber": 81304,
      "transactionIndex": 0,
      "confirmations": null,
      "from": "0xbEB64d852Bb6731CD479E80F7139ADEa5D6A5a28",
      "gasPrice": {
        "_hex": "0xcb6811658"
      },
      "gasLimit": {
        "_hex": "0x5208"
      },
      "to": "0x32Be343B94f860124dC4fEe278FDCBD38C102D88",
      "value": {
        "_hex": "0x2b5df9c3c17b14000"
      },
      "nonce": 1,
      "data": "0x",
      "r": "0x15e9ae97952165f80d91411913abdf8cfa7eaa70b501436e2d76f283ee741abd",
      "s": "0x2d7f83556b708e25d9c74ee13c0b17a8802db86ed376545ce39c756cbff96f1c",
      "v": 27,
      "creates": null,
      "raw": "0xf86d01850cb68116588252089432be343b94f860124dc4fee278fdcbd38c102d888902b5df9c3c17b14000801ba015e9ae97952165f80d91411913abdf8cfa7eaa70b501436e2d76f283ee741abda02d7f83556b708e25d9c74ee13c0b17a8802db86ed376545ce39c756cbff96f1c",
      "networkId": 0,
      "chainId": 0
    },
    {
      "hash": "0x6ed8d187ef22aebdf8a2e2d0e7aed2eef8a2db43e6e063f873aa7f8e7d4d2546",
      "blockHash": "0x2bdcc0b9693f311c0345183d4abad0224def3a9ec2e0706a9d6dcc947fda0a99",
      "blockNumber": 81304,
      "transactionIndex": 1,
      "confirmations": null,
      "from": "0x2910543Af39abA0Cd09dBb2D50200b3E800A63D2",
      "gasPrice": {
        "_hex": "0xcb4b4d3cd"
      },
      "gasLimit": {
        "_hex": "0x5208"
      },
      "to": "0xd7C9Da7F000be9dcD742D6437dE28669DAFf0f4B",
      "value": {
        "_hex": "0x428e4675cf5922000"
      },
      "nonce": 464,
      "data": "0x",
      "r": "0xfbac90ba8980042571a7070bcc85aa7b7b917fe4618ec029549703bb7cd4f25b",
      "s": "0x5e19b0e101c2f5d0e22fbdfcfc2895c19cbff6d4441c0d76d4a5e95515ee5fe4",
      "v": 27,
      "creates": null,
      "raw": "0xf86f8201d0850cb4b4d3cd82520894d7c9da7f000be9dcd742d6437de28669daff0f4b890428e4675cf5922000801ba0fbac90ba8980042571a7070bcc85aa7b7b917fe4618ec029549703bb7cd4f25ba05e19b0e101c2f5d0e22fbdfcfc2895c19cbff6d4441c0d76d4a5e95515ee5fe4",
      "networkId": 0,
      "chainId": 0
    },
    {
      "hash": "0x8215acc4df8f82be9b7a98e36c25614a8146669eacd80da71f111a4b79024887",
      "blockHash": "0x2bdcc0b9693f311c0345183d4abad0224def3a9ec2e0706a9d6dcc947fda0a99",
      "blockNumber": 81304,
      "transactionIndex": 2,
      "confirmations": null,
      "from": "0x2910543Af39abA0Cd09dBb2D50200b3E800A63D2",
      "gasPrice": {
        "_hex": "0xcb4b4d3cd"
      },
      "gasLimit": {
        "_hex": "0x5208"
      },
      "to": "0xb68c4428193f7F71bA7351366022f0c3E81ca552",
      "value": {
        "_hex": "0xdcef33a6f838000"
      },
      "nonce": 465,
      "data": "0x",
      "r": "0x45605c5102148445bc9bebb34a1e489ab67fad9d452c9c6e3358325ed54bef94",
      "s": "0x1ec7890cefbc45a860812987e3b647d52ea44ca2cdbe7a2355c6c140e4cbf5a1",
      "v": 27,
      "creates": null,
      "raw": "0xf86e8201d1850cb4b4d3cd82520894b68c4428193f7f71ba7351366022f0c3e81ca552880dcef33a6f838000801ba045605c5102148445bc9bebb34a1e489ab67fad9d452c9c6e3358325ed54bef94a01ec7890cefbc45a860812987e3b647d52ea44ca2cdbe7a2355c6c140e4cbf5a1",
      "networkId": 0,
      "chainId": 0
    }
  ]
}