{
  "hash": "0xfe10aefdd8a96fbb8750fd2b031fc7b01d6a4a30f87eedcad22a0f2a23e95e2c",
  "parentHash": "0xc796ac7f9826c2e384cfa44c7ddbb2373a557cb7697ae93da7589733461234b1",
  "number": 108488,
  "timestamp": 1439941448,
  "nonce": "0xb01353a3d4cce520",
  "difficulty": 4302444880594,
  "gasLimit": {
    "_hex": "0x2fefd8"
  },
  "gasUsed": {
    "_hex": "0x5208"
  },
  "miner": "0xe6A7a1d47ff21B6321162AEA7C6CB457D5476Bca",
  "extraData": "0x476574682f76312e302e312d38326566323666362f6c696e75782f676f312e34",
  "transactions": [
    {
      "hash": "0x6dd15c7dcce4428284b0180d6a2906ec8616d403fc74c53f8437ac443aa0a7f0",
      "blockHash": "0xfe10aefdd8a96fbb8750fd2b031fc7b01d6a4a30f87eedcad22a0f2a23e95e2c",
      "blockNumber": 108488,
      "transactionIndex": 0,
      "confirmations": null,
      "from": "0x120A270bbC009644e35F0bB6ab13f95b8199c4ad",
      "gasPrice": {
        "_hex": "0xd30639469"
      },
      "gasLimit": {
        "_hex": "0x3d090"
      },
      "to": "0xA871898ceCFC02633Aa4fb0e0590100789884bB8",
      "value": {
        "_hex": "0x15af1d78b58c40000"
      },
      "nonce": 836,
      "data": "0x",
      "r": "0xec4df5d1fd9332ccfb9cc0c75ab9371a434a16ed1325b60024685ea3423891a9",
      "s": "0x33cf0973ed40f6b4f594a00ee26304666c3b4de4d5ed9142879a9b7e52c62a9c",
      "v": 28,
      "creates": null,
      "raw": "0xf870820344850d306394698303d09094a871898cecfc02633aa4fb0e0590100789884bb889015af1d78b58c40000801ca0ec4df5d1fd9332ccfb9cc0c75ab9371a434a16ed1325b60024685ea3423891a9a033cf0973ed40f6b4f594a00ee26304666c3b4de4d5ed9142879a9b7e52c62a9c",
      "networkId": 0,
      "chainId": 0
    }
  ]
}