{
  "hash": "0x541a9b3f38ad979977bfb1aef48ef8776aeef4c35f5e3bbc8fed19baa06bd3d9",
  "parentHash": "0x83a1a3bca1bf257619de21d9dc0199c2d90192377f30d6b333d6209b4620f0ac",
  "number": 84908,
  "timestamp": 1439556100,
  "nonce": "0x0668b918aa864b28",
  "difficulty": 2681586020648,
  "gasLimit": {
    "_hex": "0x2fefd8"
  },
  "gasUsed": {
    "_hex": "0xa410"
  },
  "miner": "0xf927a40C8B7F6E07c5af7FA2155B4864a4112B13",
  "extraData": "0x",
  "transactions": [
    {
      "hash": "0x54b771dc817ac7c0f1a0bbe011fcb1177673673dd64a96a40da91a932e7ea980",
      "blockHash": "0x541a9b3f38ad979977bfb1aef48ef8776aeef4c35f5e3bbc8fed19baa06bd3d9",
      "blockNumber": 84908,
      "transactionIndex": 0,
      "confirmations": null,
      "from": "0x32Be343B94f860124dC4fEe278FDCBD38C102D88",
      "gasPrice": {
        "_hex": "0xccdddde0f"
      },
      "gasLimit": {
        "_hex": "0x5208"
      },
      "to": "0x8Be1BB9fC41fC29e9fe0343952BE5d60AB8aa8dc",
      "value": {
        "_hex": "0x13fbe85edc90000"
      },
      "nonce": 713,
      "data": "0x",
      "r": "0x87523a044a9541edee9a324f21b31bd5ed41509c1cf0f2dec15f41788b73facc",
      "s": "0x1aa27d0395ae5a339d49a2f0977d9f06e4731522d5aaa9c2cbaa4483d3ab040e",
      "v": 27,
      "creates": null,
      "raw": "0xf86e8202c9850ccdddde0f825208948be1bb9fc41fc29e9fe0343952be5d60ab8aa8dc88013fbe85edc90000801ba087523a044a9541edee9a324f21b31bd5ed41509c1cf0f2dec15f41788b73facca01aa27d0395ae5a339d49a2f0977d9f06e4731522d5aaa9c2cbaa4483d3ab040e",
      "networkId": 0,
      "chainId": 0
    },
    {
      "hash": "0xdb663ed881d42c834a6e4635ca6f107a025f3bec337a293846b6d398ddee658d",
      "blockHash": "0x541a9b3f38ad979977bfb1aef48ef8776aeef4c35f5e3bbc8fed19baa06bd3d9",
      "blockNumber": 84908,
      "transactionIndex": 1,
      "confirmations": null,
      "from": "0x32Be343B94f860124dC4fEe278FDCBD38C102D88",
      "gasPrice": {
        "_hex": "0xccdddde0f"
      },
      "gasLimit": {
        "_hex": "0x5208"
      },
      "to": "0xB6E50cCE61484289924ffb2629ea923272af1Ac1",
      "value": {
        "_hex": "0x1c7bf1e0197d40000"
      },
      "nonce": 714,
      "data": "0x",
      "r": "0x67bb3dadc9fb3247b055e1f047622dae847de1c5c7650989de037d851fef1a4e",
      "s": "0x117ebaec1a8bcc7423a37e1301ef497b78ce32bfcee0762b19427cdeb54ddab8",
      "v": 28,
      "creates": null,
      "raw": "0xf86f8202ca850ccdddde0f82520894b6e50cce61484289924ffb2629ea923272af1ac18901c7bf1e0197d40000801ca067bb3dadc9fb3247b055e1f047622dae847de1c5c7650989de037d851fef1a4ea0117ebaec1a8bcc7423a37e1301ef497b78ce32bfcee0762b19427cdeb54ddab8",
      "networkId": 0,
      "chainId": 0
    }
  ]
}