{
  "hash": "0x5b079f3c03cc22e0a40496a4ff6b24a919af33822505a603baa1211dacd48650",
  "parentHash": "0xcf04cdd685189aa1dc20c7e1a063872e5ce8901fea90efea5565a29c0be9a6cc",
  "number": 54352,
  "timestamp": 1439052739,
  "nonce": "0xd7e8d6f72fa00c15",
  "difficulty": 1608661552775,
  "gasLimit": {
    "_hex": "0x2fefd5"
  },
  "gasUsed": {
    "_hex": "0xac15"
  },
  "miner": "0xC759dc67E0c3816fdC56A2f5bb29920fc07e767D",
  "extraData": "0x476574682f76312e302e312f77696e646f77732f676f312e342e32",
  "transactions": [
    {
      "hash": "0x16246f9a9f03308f44d9ff4394151ade879386fa2bb7b49bc021165ac75255e8",
      "blockHash": "0x5b079f3c03cc22e0a40496a4ff6b24a919af33822505a603baa1211dacd48650",
      "blockNumber": 54352,
      "transactionIndex": 0,
      "confirmations": null,
      "from": "0x8674c218F0351a62C3BA78C34FD2182A93Da94E2",
      "gasPrice": {
        "_hex": "0xd2c399eb0"
      },
      "gasLimit": {
        "_hex": "0x15f90"
      },
      "to": "0xB9371963069cee6DF7d153A9E6B45Fc90cb6743b",
      "value": {
        "_hex": "0x0"
      },
      "nonce": 26,
      "data": "0xde6f24bb0000000000000000000000008674c218f0351a62c3ba78c34fd2182a93da94e20000000000000000000000000000000000000000000000000000000000000040000000000000000000000000000000000000000000000000000000000000000668656c6c6f210000000000000000000000000000000000000000000000000000",
      "r": "0x8b9cb101ce7cba37d408e5002269fbbcdd141893b5084855def100ff85598da7",
      "s": "0x740708d1dced17c9a6cdbf4b08e028bb6fa91e9aa9359a3379ea4504b6e0d292",
      "v": 27,
      "creates": null,
      "raw": "0xf8ea1a850d2c399eb083015f9094b9371963069cee6df7d153a9e6b45fc90cb6743b80b884de6f24bb0000000000000000000000008674c218f0351a62c3ba78c34fd2182a93da94e20000000000000000000000000000000000000000000000000000000000000040000000000000000000000000000000000000000000000000000000000000000668656c6c6f2100000000000000000000000000000000000000000000000000001ba08b9cb101ce7cba37d408e5002269fbbcdd141893b5084855def100ff85598da7a0740708d1dced17c9a6cdbf4b08e028bb6fa91e9aa9359a3379ea4504b6e0d292",
      "networkId": 0,
      "chainId": 0
    }
  ]
}