{
  "hash": "0x2d51a630e412f947d088aa25b0ca300b7fadd863a1de5719dc470d855db60b1b",
  "parentHash": "0xa32c5943dca832a4e9a4e0403b5fb156e6a40e0f6cf3a870f0f74817ca874e46",
  "number": 78449,
  "timestamp": 1439453889,
  "nonce": "0x5d8564308aba3fab",
  "difficulty": 2292088784766,
  "gasLimit": {
    "_hex": "0x2fefd8"
  },
  "gasUsed": {
    "_hex": "0x5208"
  },
  "miner": "0x040F866D0793aEbf4DaCDA92B2F2128e8599B5CF",
  "extraData": "0x476574682f76312e302e312f6c696e75782f676f312e342e32",
  "transactions": [
    {
      "hash": "0x905b11386cd3d2ec80bdcb3cc2a4fe1661f66f86d63df93f51c5979d0dc23208",
      "blockHash": "0x2d51a630e412f947d088aa25b0ca300b7fadd863a1de5719dc470d855db60b1b",
      "blockNumber": 78449,
      "transactionIndex": 0,
      "confirmations": null,
      "from": "0xf4B1114a02EFe852013277F28ed88734Fa81E54f",
      "gasPrice": {
        "_hex": "0xdb77a43ee"
      },
      "gasLimit": {
        "_hex": "0x15f90"
      },
      "to": "0x4B11852B35058CBFB5a50c5a007b0c134927Fd8b",
      "value": {
        "_hex": "0xde0b6b3a7640000"
      },
      "nonce": 11,
      "data": "0x",
      "r": "0x9744f194fafdefc1fc087f82b4521c4c7de33dab06f8822117190dd2438437df",
      "s": "0x39587222d11624f0cc320b969f98bfd0271179aec7f498807abfa4adcd23d12a",
      "v": 27,
      "creates": null,
      "raw": "0xf86d0b850db77a43ee83015f90944b11852b35058cbfb5a50c5a007b0c134927fd8b880de0b6b3a7640000801ba09744f194fafdefc1fc087f82b4521c4c7de33dab06f8822117190dd2438437dfa039587222d11624f0cc320b969f98bfd0271179aec7f498807abfa4adcd23d12a",
      "networkId": 0,
      "chainId": 0
    }
  ]
}