{
  "hash": "0x8e0adc637e9e7daeb13518abc365aceff5a21dac467cf4897740be486072af11",
  "parentHash": "0xe309e14999fda202d4ab43ea609ec29ea786f660d5c73948f49916903473e877",
  "number": 78758,
  "timestamp": 1439458876,
  "nonce": "0x6aebc178da3df544",
  "difficulty": 2304348046813,
  "gasLimit": {
    "_hex": "0x2fefd8"
  },
  "gasUsed": {
    "_hex": "0xa410"
  },
  "miner": "0xe6A7a1d47ff21B6321162AEA7C6CB457D5476Bca",
  "extraData": "0x476574682f76312e302e312d38326566323666362f6c696e75782f676f312e34",
  "transactions": [
    {
      "hash": "0x9d5b23fc69d4f9ceea97b55eb308d2be7a34393124a165eaa72a68d752d6c10e",
      "blockHash": "0x8e0adc637e9e7daeb13518abc365aceff5a21dac467cf4897740be486072af11",
      "blockNumber": 78758,
      "transactionIndex": 0,
      "confirmations": null,
      "from": "0xD378eb142Ad654E0bd8296DafCc5c4874EC40445",
      "gasPrice": {
        "_hex": "0xba43b7400"
      },
      "gasLimit": {
        "_hex": "0x5208"
      },
      "to": "0xC47Aaa860008be6f65B58c6C6E02a84e666EfE31",
      "value": {
        "_hex": "0x3e4bf43dd47d38f0"
      },
      "nonce": 0,
      "data": "0x",
      "r": "0xea85f704707fb6f0629892061cc814700cf7f8b35308b11ba4a244ebac491262",
      "s": "0x1af029c4f2a3661a11095ee755a28e65512b2af78475e1b533d6d908390b1baa",
      "v": 27,
      "creates": null,
      "raw": "0xf86c80850ba43b740082520894c47aaa860008be6f65b58c6c6e02a84e666efe31883e4bf43dd47d38f0801ba0ea85f704707fb6f0629892061cc814700cf7f8b35308b11ba4a244ebac491262a01af029c4f2a3661a11095ee755a28e65512b2af78475e1b533d6d908390b1baa",
      "networkId": 0,
      "chainId": 0
    },
    {
      "hash": "0xc059f8b7bfbba4f510a5409c27f2a4c270e64f375ba3b594abd655ecf666fc6d",
      "blockHash": "0x8e0adc637e9e7daeb13518abc365aceff5a21dac467cf4897740be486072af11",
      "blockNumber": 78758,
      "transactionIndex": 1,
      "confirmations": null,
      "from": "0xDbe59f61C5737D77911d230fC6bE4015cB4b78eb",
      "gasPrice": {
        "_hex": "0xba43b7400"
      },
      "gasLimit": {
        "_hex": "0x5208"
      },
      "to": "0xC47Aaa860008be6f65B58c6C6E02a84e666EfE31",
      "value": {
        "_hex": "0x11567041e770b38f0"
      },
      "nonce": 0,
      "data": "0x",
      "r": "0x6a750fe07a37c8c4fbcc1928565d19adfca8f77fa8c9f876f738a67d9d206c50",
      "s": "0x0ce5cf7702e68984bd19d2e15f366323596883967af31d7597db9e9ad4cc36f5",
      "v": 28,
      "creates": null,
      "raw": "0xf86d80850ba43b740082520894c47aaa860008be6f65b58c6c6e02a84e666efe3189011567041e770b38f0801ca06a750fe07a37c8c4fbcc1928565d19adfca8f77fa8c9f876f738a67d9d206c50a00ce5cf7702e68984bd19d2e15f366323596883967af31d7597db9e9ad4cc36f5",
      "networkId": 0,
      "chainId": 0
    }
  ]
}