{
  "hash": "0x16dc588b2ae5ae0a1c21923f6b0a27e2c4c786083e000837ea194a7445abb166",
  "parentHash": "0x76140273b743bd5cb30841106b549af4c350529ee4d58767be5486263bc56d7c",
  "number": 70908,
  "timestamp": 1439327215,
  "nonce": "0x4ca4718d44aa6a69",
  "difficulty": 2158313934971,
  "gasLimit": {
    "_hex": "0x2fefd5"
  },
  "gasUsed": {
    "_hex": "0x19a28"
  },
  "miner": "0x580992B51e3925e23280EfB93d3047C82f17E038",
  "extraData": "0x476574682f76312e302e312f6c696e75782f676f312e342e32",
  "transactions": [
    {
      "hash": "0xc4f22d7fd6a82848dadf8a871542a458e04d748480a3d80bf8e786dd2152a030",
      "blockHash": "0x16dc588b2ae5ae0a1c21923f6b0a27e2c4c786083e000837ea194a7445abb166",
      "blockNumber": 70908,
      "transactionIndex": 0,
      "confirmations": null,
      "from": "0xee04bfEDEa5A989165311fe3d04136ce8841208f",
      "gasPrice": {
        "_hex": "0xdb2816147"
      },
      "gasLimit": {
        "_hex": "0x15f90"
      },
      "to": "0x585aE8Cf889282751b3C38c38A9C833D96d0dc59",
      "value": {
        "_hex": "0x6f05b59d3b20000"
      },
      "nonce": 0,
      "data": "0x",
      "r": "0xb26a173c4f9241d3f5c945ac89a65c85c76b93bf66438da5debd0d720ce84b83",
      "s": "0x40f0c2ec4d0b8f11a6775e74d2b1ef448ec009846f5c3f79a82d9d1e73f78dbe",
      "v": 28,
      "creates": null,
      "raw": "0xf86d80850db281614783015f9094585ae8cf889282751b3c38c38a9c833d96d0dc598806f05b59d3b20000801ca0b26a173c4f9241d3f5c945ac89a65c85c76b93bf66438da5debd0d720ce84b83a040f0c2ec4d0b8f11a6775e74d2b1ef448ec009846f5c3f79a82d9d1e73f78dbe",
      "networkId": 0,
      "chainId": 0
    },
    {
      "hash": "0x15d5163b123eb5f53ce72db74354182dd794e0d8fb31200749829fa6cd4686d0",
      "blockHash": "0x16dc588b2ae5ae0a1c21923f6b0a27e2c4c786083e000837ea194a7445abb166",
      "blockNumber": 70908,
      "transactionIndex": 1,
      "confirmations": null,
      "from": "0x09c932038d924D69Ea7002a7c0Eb2Ecafa204964",
      "gasPrice": {
        "_hex": "0xcc1073b2a"
      },
      "gasLimit": {
        "_hex": "0x5208"
      },
      "to": "0x32Be343B94f860124dC4fEe278FDCBD38C102D88",
      "value": {
        "_hex": "0xddca0794051d800"
      },
      "nonce": 0,
      "data": "0x",
      "r": "0x21158406c969dcf22f2bc767594041444c5aeb03ea382539aec69eb88ca63236",
      "s": "0x348bbed01b7a796bb5194576cc586a4b488a493fca4e77ebed28be7b16deebac",
      "v": 28,
      "creates": null,
      "raw": "0xf86c80850cc1073b2a8252089432be343b94f860124dc4fee278fdcbd38c102d88880ddca0794051d800801ca021158406c969dcf22f2bc767594041444c5aeb03ea382539aec69eb88ca63236a0348bbed01b7a796bb5194576cc586a4b488a493fca4e77ebed28be7b16deebac",
      "networkId": 0,
      "chainId": 0
    },
    {
      "hash": "0x597fd922d0e2471256a494918378eafbbd7cb9ad6cb86e4139761847fec51357",
      "blockHash": "0x16dc588b2ae5ae0a1c21923f6b0a27e2c4c786083e000837ea194a7445abb166",
      "blockNumber": 70908,
      "transactionIndex": 2,
      "confirmations": null,
      "from": "0xa70a9a7040d542C632D8e0bE7c5513A8a5Bbc752",
      "gasPrice": {
        "_hex": "0xcc1073b2a"
      },
      "gasLimit": {
        "_hex": "0x5208"
      },
      "to": "0x32Be343B94f860124dC4fEe278FDCBD38C102D88",
      "value": {
        "_hex": "0x455f7031a9432c00"
      },
      "nonce": 12,
      "data": "0x",
      "r": "0x4fc477e62cd3f42d590e96e376a8e10c4ebe825a8d016fbd95f857a6e4d59cf8",
      "s": "0x733116a871f71a008e57f39d208c9724560794a2259eb425b65082b4ba957c7d",
      "v": 28,
      "creates": null,
      "raw": "0xf86c0c850cc1073b2a8252089432be343b94f860124dc4fee278fdcbd38c102d8888455f7031a9432c00801ca04fc477e62cd3f42d590e96e376a8e10c4ebe825a8d016fbd95f857a6e4d59cf8a0733116a871f71a008e57f39d208c9724560794a2259eb425b65082b4ba957c7d",
      "networkId": 0,
      "chainId": 0
    },
    {
      "hash": "0x2d041c66738ea86610b5b8a2ca18ea61b6493abac6253a3044dfc19da2414592",
      "blockHash": "0x16dc588b2ae5ae0a1c21923f6b0a27e2c4c786083e000837ea194a7445abb166",
      "blockNumber": 70908,
      "transactionIndex": 3,
      "confirmations": null,
      "from": "0x7Bceeab50c6D8eCBbaAAf7A25201bc9e2189616e",
      "gasPrice": {
        "_hex": "0xcc1073b2a"
      },
      "gasLimit": {
        "_hex": "0x5208"
      },
      "to": "0x32Be343B94f860124dC4fEe278FDCBD38C102D88",
      "value": {
        "_hex": "0xdcadd0008715800"
      },
      "nonce": 0,
      "data": "0x",
      "r": "0xf3f7665a6e21392b5dc684391b2adee8d6f519ed3a28c092bb292eab2d14f82e",
      "s": "0x17ce58f41d62725ce8a4a51570ccf308a0c0d195465347871953ebecc0d099f7",
      "v": 27,
      "creates": null,
      "raw": "0xf86c80850cc1073b2a8252089432be343b94f860124dc4fee278fdcbd38c102d88880dcadd0008715800801ba0f3f7665a6e21392b5dc684391b2adee8d6f519ed3a28c092bb292eab2d14f82ea017ce58f41d62725ce8a4a51570ccf308a0c0d195465347871953ebecc0d099f7",
      "networkId": 0,
      "chainId": 0
    },
    {
      "hash": "0xe6138698ee9c6b5edc24a2157c9167ddc363c0e4cd0ced7075562f252a78fb66",
      "blockHash": "0x16dc588b2ae5ae0a1c21923f6b0a27e2c4c786083e000837ea194a7445abb166",
      "blockNumber": 70908,
      "transactionIndex": 4,
      "confirmations": null,
      "from": "0x2db0CA23aeB4B1721bB88bc7B2059F5F99876d45",
      "gasPrice": {
        "_hex": "0xcc1073b2a"
      },
      "gasLimit": {
        "_hex": "0x5208"
      },
      "to": "0x32Be343B94f860124dC4fEe278FDCBD38C102D88",
      "value": {
        "_hex": "0xf0142310cb29b80000"
      },
      "nonce": 0,
      "data": "0x",
      "r": "0x82833e049f9b4e6bd5b44bb3504463b77fcb4ef3a7ee17a24dca28d6996d6b63",
      "s": "0x408e0e7d327b5f5c4ea8abd8a9452541f859502b2410b9e3a7874b9316bc0c64",
      "v": 28,
      "creates": null,
      "raw": "0xf86d80850cc1073b2a8252089432be343b94f860124dc4fee278fdcbd38c102d8889f0142310cb29b80000801ca082833e049f9b4e6bd5b44bb3504463b77fcb4ef3a7ee17a24dca28d6996d6b63a0408e0e7d327b5f5c4ea8abd8a9452541f859502b2410b9e3a7874b9316bc0c64",
      "networkId": 0,
      "chainId": 0
    }
  ]
}