{
  "hash": "0xa3798d2fb4733720e1f16f62f5dc123c67b20fa729da255e1da9c534c949890b",
  "parentHash": "0x51495dd5f7a4381c9598f1d8e516ec8ef7ea728810a4f93c3017ce8f78815024",
  "number": 72458,
  "timestamp": 1439352916,
  "nonce": "0x2389ac0f220e1d25",
  "difficulty": 2206932397962,
  "gasLimit": {
    "_hex": "0x2fefd8"
  },
  "gasUsed": {
    "_hex": "0x5208"
  },
  "miner": "0xeB1325C8D9d3ea8D74aC11F4B00F1B2367686319",
  "extraData": "0x476574682f76312e302e312f77696e646f77732f676f312e342e32",
  "transactions": [
    {
      "hash": "0xd9c7ea83a2433b9ea944e5be96666d374dbd9f287c672a5459baf53deeb17b38",
      "blockHash": "0xa3798d2fb4733720e1f16f62f5dc123c67b20fa729da255e1da9c534c949890b",
      "blockNumber": 72458,
      "transactionIndex": 0,
      "confirmations": null,
      "from": "0x1308A2e95c0160B90803ddCA9B9a5bb55E416d79",
      "gasPrice": {
        "_hex": "0x9184e72a000"
      },
      "gasLimit": {
        "_hex": "0x15f90"
      },
      "to": "0xe8F3DDC325F2b988A6cDB0E2Cb6af4ad49718346",
      "value": {
        "_hex": "0x88009813ced40000"
      },
      "nonce": 113,
      "data": "0x",
      "r": "0xa3ba9c009a9f8ef0c8cbcfda0f67480097ee3eeff824a6e544de5db040b4e9fe",
      "s": "0x5e49f292bd3c0a07971000e14813a4533c8c94ef106f5e3d156e3e9972f49fbd",
      "v": 28,
      "creates": null,
      "raw": "0xf86e718609184e72a00083015f9094e8f3ddc325f2b988a6cdb0e2cb6af4ad497183468888009813ced40000801ca0a3ba9c009a9f8ef0c8cbcfda0f67480097ee3eeff824a6e544de5db040b4e9fea05e49f292bd3c0a07971000e14813a4533c8c94ef106f5e3d156e3e9972f49fbd",
      "networkId": 0,
      "chainId": 0
    }
  ]
}