{
  "hash": "0x7aa23a5b8afe6ba67d2b8a8537da71d82534d81f82600f41dfa138c84978144b",
  "parentHash": "0x0e79d92e1f8e8e0c34e7c1a12af2b0a79ce147e5dd97aa199b8b8a3ffee24dc6",
  "number": 74556,
  "timestamp": 1439388050,
  "nonce": "0x00e405f8fcf79981",
  "difficulty": 2215016040556,
  "gasLimit": {
    "_hex": "0x2fefd8"
  },
  "gasUsed": {
    "_hex": "0x5208"
  },
  "miner": "0xe6A7a1d47ff21B6321162AEA7C6CB457D5476Bca",
  "extraData": "0x476574682f76312e302e312d38326566323666362f6c696e75782f676f312e34",
  "transactions": [
    {
      "hash": "0xdb7a885a825292993a5acc49eb3dc552de3250d16acfd4fed259bb930c837428",
      "blockHash": "0x7aa23a5b8afe6ba67d2b8a8537da71d82534d81f82600f41dfa138c84978144b",
      "blockNumber": 74556,
      "transactionIndex": 0,
      "confirmations": null,
      "from": "0x8461Ecc4a6A45eb1a5b947FB86B88069b91fcD6F",
      "gasPrice": {
        "_hex": "0x102d6747ef0"
      },
      "gasLimit": {
        "_hex": "0x7530"
      },
      "to": "0xB0adb3A9A5D88F64452acFdc1D83CCF5600d5A02",
      "value": {
        "_hex": "0x1e00c5e0d7ff0a4000"
      },
      "nonce": 2,
      "data": "0x",
      "r": "0xb47a7afc0844eef4ec6e9560b6d2ce4080c2343dfb01debdcfedd5dcd2a2037f",
      "s": "0x500ade9e2936b68800b599f44bb016c15d153033f85c4088742a7e09f9af1eeb",
      "v": 27,
      "creates": null,
      "raw": "0xf86e02860102d6747ef082753094b0adb3a9a5d88f64452acfdc1d83ccf5600d5a02891e00c5e0d7ff0a4000801ba0b47a7afc0844eef4ec6e9560b6d2ce4080c2343dfb01debdcfedd5dcd2a2037fa0500ade9e2936b68800b599f44bb016c15d153033f85c4088742a7e09f9af1eeb",
      "networkId": 0,
      "chainId": 0
    }
  ]
}