{
  "hash": "0xfa5b69187fc79b19fab6b9abec40dfe12c9857c3f7c989019d27fe0c183b2e0c",
  "parentHash": "0x74633a69701a902ef1d441ff9228c25f6f6c10530fe5eb084304720c0b7def8a",
  "number": 46680,
  "timestamp": 1438927322,
  "nonce": "0x89cea229618e574c",
  "difficulty": 1460327631448,
  "gasLimit": {
    "_hex": "0x70c1"
  },
  "gasUsed": {
    "_hex": "0x5208"
  },
  "miner": "0xbb7B8287f3F0a933474a79eAe42CBCa977791171",
  "extraData": "0x476574682f4c5649562f76312e302e312f6c696e75782f676f312e342e32",
  "transactions": [
    {
      "hash": "0x7c5660d480a06b6993381b695afe6dfca8572a0819c9d2f51958863567789900",
      "blockHash": "0xfa5b69187fc79b19fab6b9abec40dfe12c9857c3f7c989019d27fe0c183b2e0c",
      "blockNumber": 46680,
      "transactionIndex": 0,
      "confirmations": null,
      "from": "0xFD7c9117BbEB649d9b37B3D3C9917f7c12f526B3",
      "gasPrice": {
        "_hex": "0xdff3cf99c"
      },
      "gasLimit": {
        "_hex": "0x5208"
      },
      "to": "0x32Be343B94f860124dC4fEe278FDCBD38C102D88",
      "value": {
        "_hex": "0x5265f5b894acb0000"
      },
      "nonce": 1,
      "data": "0x",
      "r": "0xbd1f6bccef5ea2312fa5a943d787beed5b66233f05cc65f8b7c57dcc908504c7",
      "s": "0x4c4a05a7334c934e92287e92f672e936156e765d0e976b235f7336adca55b619",
      "v": 27,
      "creates": null,
      "raw": "0xf86d01850dff3cf99c8252089432be343b94f860124dc4fee278fdcbd38c102d888905265f5b894acb0000801ba0bd1f6bccef5ea2312fa5a943d787beed5b66233f05cc65f8b7c57dcc908504c7a04c4a05a7334c934e92287e92f672e936156e765d0e976b235f7336adca55b619",
      "networkId": 0,
      "chainId": 0
    }
  ]
}