{
  "hash": "0x292eb04d80f092d3d2e4b1c8448adddbb5f724a972700b0108fe3dc565ddb2e7",
  "parentHash": "0x1f17f3d4925fb48b3a9a6fff258b8e5ba89c7d9dfe95352651a060842bdf814f",
  "number": 81153,
  "timestamp": 1439497063,
  "nonce": "0x3d64689dd9fbb79a",
  "difficulty": 2443898042676,
  "gasLimit": {
    "_hex": "0x2fefd8"
  },
  "gasUsed": {
    "_hex": "0x5208"
  },
  "miner": "0xf927a40C8B7F6E07c5af7FA2155B4864a4112B13",
  "extraData": "0x",
  "transactions": [
    {
      "hash": "0x083c9f742e708f7b2647d3ecff33e9c1e9a8ea4ab45f25f809937ba52997de92",
      "blockHash": "0x292eb04d80f092d3d2e4b1c8448adddbb5f724a972700b0108fe3dc565ddb2e7",
      "blockNumber": 81153,
      "transactionIndex": 0,
      "confirmations": null,
      "from": "0x9FfbDc745507Be96FEdbA053b7deC24A7C54b1f3",
      "gasPrice": {
        "_hex": "0xd1f217cbf"
      },
      "gasLimit": {
        "_hex": "0x15f90"
      },
      "to": "0xd0c9016C1669D8D4B331F8a68BC0b4E7937F3475",
      "value": {
        "_hex": "0x42b9c8e5036917400"
      },
      "nonce": 1,
      "data": "0x",
      "r": "0x1753d4ad421e93ffec71565b796dd75810872e47bf68936f781ec7628853e07a",
      "s": "0x3d1da72fec62623ba98ffc6372ae409661a29ea7d837e105527c6f7ad6f5af05",
      "v": 28,
      "creates": null,
      "raw": "0xf86e01850d1f217cbf83015f9094d0c9016c1669d8d4b331f8a68bc0b4e7937f347589042b9c8e5036917400801ca01753d4ad421e93ffec71565b796dd75810872e47bf68936f781ec7628853e07aa03d1da72fec62623ba98ffc6372ae409661a29ea7d837e105527c6f7ad6f5af05",
      "networkId": 0,
      "chainId": 0
    }
  ]
}