{
  "hash": "0x0185b7bedb7de5e4e99fdf60b966c9b0a5d889d3723096b03b2b1f064164342e",
  "parentHash": "0x184fb1755b9c57732a5314f579530d0187369208602d42eaf4f77203fa52b3cb",
  "number": 79442,
  "timestamp": 1439469728,
  "nonce": "0x9a3b65056029e3af",
  "difficulty": 2340445405470,
  "gasLimit": {
    "_hex": "0x2fefd8"
  },
  "gasUsed": {
    "_hex": "0xa410"
  },
  "miner": "0xe6A7a1d47ff21B6321162AEA7C6CB457D5476Bca",
  "extraData": "0x476574682f76312e302e312d38326566323666362f6c696e75782f676f312e34",
  "transactions": [
    {
      "hash": "0x56d9158625609a1ec0f045e5a639256fcd02c7f63c3a630c55c93ac157fdf5c0",
      "blockHash": "0x0185b7bedb7de5e4e99fdf60b966c9b0a5d889d3723096b03b2b1f064164342e",
      "blockNumber": 79442,
      "transactionIndex": 0,
      "confirmations": null,
      "from": "0xa70a9a7040d542C632D8e0bE7c5513A8a5Bbc752",
      "gasPrice": {
        "_hex": "0xccc35826b"
      },
      "gasLimit": {
        "_hex": "0x5208"
      },
      "to": "0x32Be343B94f860124dC4fEe278FDCBD38C102D88",
      "value": {
        "_hex": "0x455f77b28394f000"
      },
      "nonce": 57,
      "data": "0x",
      "r": "0x9e1422be6c18409e41ad7c36c81163c6e2da7fbb4bbc988acb1abf2a18ae462a",
      "s": "0x2dad2f3495fb6c85225e61681b940faea18bf97c67268172b7edcc914dcf9e94",
      "v": 27,
      "creates": null,
      "raw": "0xf86c39850ccc35826b8252089432be343b94f860124dc4fee278fdcbd38c102d8888455f77b28394f000801ba09e1422be6c18409e41ad7c36c81163c6e2da7fbb4bbc988acb1abf2a18ae462aa02dad2f3495fb6c85225e61681b940faea18bf97c67268172b7edcc914dcf9e94",
      "networkId": 0,
      "chainId": 0
    },
    {
      "hash": "0xac2df500308801c742d133a8a5235977b98e44ae69f5a1b60a324f4fadebe1df",
      "blockHash": "0x0185b7bedb7de5e4e99fdf60b966c9b0a5d889d3723096b03b2b1f064164342e",
      "blockNumber": 79442,
      "transactionIndex": 1,
      "confirmations": null,
      "from": "0xB0bF4A71F730782368Ef660FE6D298F432F95450",
      "gasPrice": {
        "_hex": "0xccc35826b"
      },
      "gasLimit": {
        "_hex": "0x5208"
      },
      "to": "0x32Be343B94f860124dC4fEe278FDCBD38C102D88",
      "value": {
        "_hex": "0xad78aa28b04c10000"
      },
      "nonce": 18,
      "data": "0x",
      "r": "0x730cd7ca54610c1544af824252d712b36deb2b417a71ef46a8088d928cb68ac8",
      "s": "0x2fe559ee5ed2cdb62495482f87107c80a0de58b10755206c587bc5db460c3567",
      "v": 27,
      "creates": null,
      "raw": "0xf86d12850ccc35826b8252089432be343b94f860124dc4fee278fdcbd38c102d88890ad78aa28b04c10000801ba0730cd7ca54610c1544af824252d712b36deb2b417a71ef46a8088d928cb68ac8a02fe559ee5ed2cdb62495482f87107c80a0de58b10755206c587bc5db460c3567",
      "networkId": 0,
      "chainId": 0
    }
  ]
}