{
  "hash": "0xe8ef25f6a4cddc0d82ba8eaeda20252c458c277527ba9c361f1c59fcd3eaa46f",
  "parentHash": "0xf6eaf336c6a421ac5b2e9d4ea597d7949d2b4759269861fe247a4c70e816cfd7",
  "number": 102169,
  "timestamp": 1439833902,
  "nonce": "0xfc7a09d559690946",
  "difficulty": 3910813105380,
  "gasLimit": {
    "_hex": "0x2fefd8"
  },
  "gasUsed": {
    "_hex": "0x5208"
  },
  "miner": "0x623d2411c3bb3340784155F9a688b0085251aB5c",
  "extraData": "0x",
  "transactions": [
    {
      "hash": "0xb94ed31da0c746abcd787242beb440cd3e1bf54e0b8144e609c65fbc446e7079",
      "blockHash": "0xe8ef25f6a4cddc0d82ba8eaeda20252c458c277527ba9c361f1c59fcd3eaa46f",
      "blockNumber": 102169,
      "transactionIndex": 0,
      "confirmations": null,
      "from": "0xa70a9a7040d542C632D8e0bE7c5513A8a5Bbc752",
      "gasPrice": {
        "_hex": "0xd000304e7"
      },
      "gasLimit": {
        "_hex": "0x5208"
      },
      "to": "0x32Be343B94f860124dC4fEe278FDCBD38C102D88",
      "value": {
        "_hex": "0x455f73424cea5000"
      },
      "nonce": 217,
      "data": "0x",
      "r": "0xe2fe08b87235e55642149521ec4ce781c3442b754e65f3cef98c5c82df31bbe4",
      "s": "0x3881c073ef32ab3405ee841d0f9d63415d6c0adc7a92199cc14a5f32bac3d237",
      "v": 27,
      "creates": null,
      "raw": "0xf86d81d9850d000304e78252089432be343b94f860124dc4fee278fdcbd38c102d8888455f73424cea5000801ba0e2fe08b87235e55642149521ec4ce781c3442b754e65f3cef98c5c82df31bbe4a03881c073ef32ab3405ee841d0f9d63415d6c0adc7a92199cc14a5f32bac3d237",
      "networkId": 0,
      "chainId": 0
    }
  ]
}