{
  "hash": "0xa9d09197de9a5e98206a53c6ad420cefdab645c360dc9fcf17ac401044213802",
  "parentHash": "0xf58929794dab35fc6382ae8d0d7204ae67a64578f9afc0a98150a957da36ea45",
  "number": 62816,
  "timestamp": 1439194756,
  "nonce": "0xb529df5e0b3decf5",
  "difficulty": 1771895308995,
  "gasLimit": {
    "_hex": "0x2fefd8"
  },
  "gasUsed": {
    "_hex": "0xa97a"
  },
  "miner": "0xf8E0CA3Ed80bd541b94BEdCf259e8CF2141A9523",
  "extraData": "0x476574682f76312e302e312f77696e646f77732f676f312e342e32",
  "transactions": [
    {
      "hash": "0xf7c26945c70b646321d89202de7fdcab1a49833a26c68027c228437ae04fb2a8",
      "blockHash": "0xa9d09197de9a5e98206a53c6ad420cefdab645c360dc9fcf17ac401044213802",
      "blockNumber": 62816,
      "transactionIndex": 0,
      "confirmations": null,
      "from": "0x2910543Af39abA0Cd09dBb2D50200b3E800A63D2",
      "gasPrice": {
        "_hex": "0xd343cdea9"
      },
      "gasLimit": {
        "_hex": "0x15f90"
      },
      "to": "0xa1A111bc074c9cfa781F0C38e63bD51c91b8af00",
      "value": {
        "_hex": "0x3bd913e6c1df40000"
      },
      "nonce": 116,
      "data": "0x432ced044b52414b00000000000000000000000000000000000000000000000000000000",
      "r": "0x9b6154c70752f2b0fdb9806ddfce48bb02732914bd719aea67579c537d4a4705",
      "s": "0x6cf3b6898bcac22d889ee4e17ea4e4d3adf3889cc196d256f01e421cfb185c9e",
      "v": 28,
      "creates": null,
      "raw": "0xf89274850d343cdea983015f9094a1a111bc074c9cfa781f0c38e63bd51c91b8af008903bd913e6c1df40000a4432ced044b52414b000000000000000000000000000000000000000000000000000000001ca09b6154c70752f2b0fdb9806ddfce48bb02732914bd719aea67579c537d4a4705a06cf3b6898bcac22d889ee4e17ea4e4d3adf3889cc196d256f01e421cfb185c9e",
      "networkId": 0,
      "chainId": 0
    }
  ]
}