{
  "hash": "0xd05ccf50ab984871a375d8151a3c814a64e45fc86964e46def758c1b83bf9be7",
  "parentHash": "0xe43783bfa002875d6302ed3f1540505cbf0e8674a36d7ed32be78db0dcaf941a",
  "number": 56470,
  "timestamp": 1439087701,
  "nonce": "0x9b3d126655534338",
  "difficulty": 1660928161106,
  "gasLimit": {
    "_hex": "0x2fefd8"
  },
  "gasUsed": {
    "_hex": "0x546c"
  },
  "miner": "0x02020D22dCF88f5eDd66B382D7da019F161fB7e3",
  "extraData": "0x",
  "transactions": [
    {
      "hash": "0x0114e89f77ce081a599ca6d08a8cda198090b33d949e7f2dd017044556beb484",
      "blockHash": "0xd05ccf50ab984871a375d8151a3c814a64e45fc86964e46def758c1b83bf9be7",
      "blockNumber": 56470,
      "transactionIndex": 0,
      "confirmations": null,
      "from": "0xBAD4425E171c3e72975eB46ac0A015DB315a5D8f",
      "gasPrice": {
        "_hex": "0xee1106e74"
      },
      "gasLimit": {
        "_hex": "0x55f0"
      },
      "to": "0x2910543Af39abA0Cd09dBb2D50200b3E800A63D2",
      "value": {
        "_hex": "0x4563918244f40000"
      },
      "nonce": 5,
      "data": "0x454e4a434138574e30",
      "r": "0x10021a5768e338ec6aa22b0010ee98f1911a9d4e1f88e6d42d5747cd36451410",
      "s": "0x4159912a931936901006195390a7d1d1e7d7343952a1ea4d343c137ad7761539",
      "v": 28,
      "creates": null,
      "raw": "0xf87505850ee1106e748255f0942910543af39aba0cd09dbb2d50200b3e800a63d2884563918244f4000089454e4a434138574e301ca010021a5768e338ec6aa22b0010ee98f1911a9d4e1f88e6d42d5747cd36451410a04159912a931936901006195390a7d1d1e7d7343952a1ea4d343c137ad7761539",
      "networkId": 0,
      "chainId": 0
    }
  ]
}