{
  "hash": "0x30bf377abbcce97c091f91dda6e7195d2c77ddea9a66dbdc372d092d36333994",
  "parentHash": "0x3cc9d24eb326fee7060fe90e1359d785c3d397d2a1c67dbafcdaa7767357435b",
  "number": 46983,
  "timestamp": 1438932723,
  "nonce": "0x0cf2a352d1632cf4",
  "difficulty": 1451034918114,
  "gasLimit": {
    "_hex": "0x8bc8"
  },
  "gasUsed": {
    "_hex": "0x5208"
  },
  "miner": "0x8B454d830feF179e66206840F8F3D1d83bC32b17",
  "extraData": "0x476574682f76312e302e312f77696e646f77732f676f312e342e32",
  "transactions": [
    {
      "hash": "0xfb42c9acd59535f471a5a5b75915cda2910744154cde727d70196bca8b4cd632",
      "blockHash": "0x30bf377abbcce97c091f91dda6e7195d2c77ddea9a66dbdc372d092d36333994",
      "blockNumber": 46983,
      "transactionIndex": 0,
      "confirmations": null,
      "from": "0xe6A7a1d47ff21B6321162AEA7C6CB457D5476Bca",
      "gasPrice": {
        "_hex": "0xd6f3dfccc"
      },
      "gasLimit": {
        "_hex": "0x5208"
      },
      "to": "0x1379D5B7c342E519BFa972DCE35CfEBAa4fB1e27",
      "value": {
        "_hex": "0x1b9ef108b3282c80"
      },
      "nonce": 27,
      "data": "0x",
      "r": "0xbb4eb2a0a4dce42948f818240b0bbc65ff6976fd2acde1520d49144e887eceb5",
      "s": "0x28f01813340e6a7638f606e57bdc9c09f1fb5c80feaf529639617c966d0bd76b",
      "v": 27,
      "creates": null,
      "raw": "0xf86c1b850d6f3dfccc825208941379d5b7c342e519bfa972dce35cfebaa4fb1e27881b9ef108b3282c80801ba0bb4eb2a0a4dce42948f818240b0bbc65ff6976fd2acde1520d49144e887eceb5a028f01813340e6a7638f606e57bdc9c09f1fb5c80feaf529639617c966d0bd76b",
      "networkId": 0,
      "chainId": 0
    }
  ]
}