{
  "hash": "0x86c1d0933a13898f417ab1264635af0079c2641b87edcf410e69418ee83c49aa",
  "parentHash": "0x8e2979ea3f6f879e3b39777c5b1ff5068dc24a0828b9afcf74b1bed5f46441af",
  "number": 111219,
  "timestamp": 1439986742,
  "nonce": "0x929640d598ad1a1a",
  "difficulty": 4388016972013,
  "gasLimit": {
    "_hex": "0x2fefd8"
  },
  "gasUsed": {
    "_hex": "0x5208"
  },
  "miner": "0xe6A7a1d47ff21B6321162AEA7C6CB457D5476Bca",
  "extraData": "0x476574682f76312e302e312d38326566323666362f6c696e75782f676f312e34",
  "transactions": [
    {
      "hash": "0x3cd60f0cb5666aa0e2d87bcbd0c8692a22196506d121dc797d69002c4d03d7d7",
      "blockHash": "0x86c1d0933a13898f417ab1264635af0079c2641b87edcf410e69418ee83c49aa",
      "blockNumber": 111219,
      "transactionIndex": 0,
      "confirmations": null,
      "from": "0xb1abce2918E21ddb93AA452731a12672A3d9F75a",
      "gasPrice": {
        "_hex": "0xce8100bea"
      },
      "gasLimit": {
        "_hex": "0x5208"
      },
      "to": "0x32Be343B94f860124dC4fEe278FDCBD38C102D88",
      "value": {
        "_hex": "0x455f6ec672043c00"
      },
      "nonce": 180,
      "data": "0x",
      "r": "0xc8924935a413ec99b003e632419a1a03ce3f9b763bb990786c017484c3a878c7",
      "s": "0x154acc684ffac92205de79cab54e37acb7f1c270f73a640ef4944977b8a8ce07",
      "v": 27,
      "creates": null,
      "raw": "0xf86d81b4850ce8100bea8252089432be343b94f860124dc4fee278fdcbd38c102d8888455f6ec672043c00801ba0c8924935a413ec99b003e632419a1a03ce3f9b763bb990786c017484c3a878c7a0154acc684ffac92205de79cab54e37acb7f1c270f73a640ef4944977b8a8ce07",
      "networkId": 0,
      "chainId": 0
    }
  ]
}