{
  "hash": "0x64a5ded14edf9d5fd947bc65199bd85d5af87205c2c73ef5557b35a34b7ff86d",
  "parentHash": "0x4e7000751fdedd0d4d82f748263bf5cf6c2103a22ad67c25127e12925457c32c",
  "number": 46459,
  "timestamp": 1438923510,
  "nonce": "0x257f0bb6e6fd6496",
  "difficulty": 1468230971099,
  "gasLimit": {
    "_hex": "0x622b"
  },
  "gasUsed": {
    "_hex": "0x5208"
  },
  "miner": "0xbb7B8287f3F0a933474a79eAe42CBCa977791171",
  "extraData": "0x476574682f4c5649562f76312e302e312f6c696e75782f676f312e342e32",
  "transactions": [
    {
      "hash": "0xddff881e1f6207ebd84a2635ef2ea2f6669e34186058c83240f480227259c583",
      "blockHash": "0x64a5ded14edf9d5fd947bc65199bd85d5af87205c2c73ef5557b35a34b7ff86d",
      "blockNumber": 46459,
      "transactionIndex": 0,
      "confirmations": null,
      "from": "0xa89AC93b23370472DaAc337E9afdF642543F3E57",
      "gasPrice": {
        "_hex": "0x746a528800"
      },
      "gasLimit": {
        "_hex": "0x5208"
      },
      "to": "0xB5046cb3dC1DEDbd364514a2848E44C1dE4ED147",
      "value": {
        "_hex": "0x8ac7230489e80000"
      },
      "nonce": 4,
      "data": "0x",
      "r": "0xe4ff95e29d1e4f3ab16967308d2eda93327798fb8cac168fcb74987fe2a32ac6",
      "s": "0x6488f97662252250c1b7316e0f9b843a06c4a05da4a0cd2da7a9b4fbf63edd85",
      "v": 27,
      "creates": null,
      "raw": "0xf86c0485746a52880082520894b5046cb3dc1dedbd364514a2848e44c1de4ed147888ac7230489e80000801ba0e4ff95e29d1e4f3ab16967308d2eda93327798fb8cac168fcb74987fe2a32ac6a06488f97662252250c1b7316e0f9b843a06c4a05da4a0cd2da7a9b4fbf63edd85",
      "networkId": 0,
      "chainId": 0
    }
  ]
}