{
  "hash": "0x0ad22b4a09401a073e8759d35a29854bb783a670c8b12c42b9104df9b32ea2a7",
  "parentHash": "0x0962925b9b0f7644e8d2654e035a35bdb0d76d84299f7d01cd0f402ec215e63f",
  "number": 74655,
  "timestamp": 1439389968,
  "nonce": "0xda0c841dee881db9",
  "difficulty": 2200974433863,
  "gasLimit": {
    "_hex": "0x2fefd8"
  },
  "gasUsed": {
    "_hex": "0xa410"
  },
  "miner": "0xb3395f0a13448d9A660aC4aB2aBBC61F555f3656",
  "extraData": "0x476574682f76312e302e312f77696e646f77732f676f312e342e32",
  "transactions": [
    {
      "hash": "0x3074219cf99343564509d56f7f0908a8e5245881020e31c1ccc1cf12363a1e52",
      "blockHash": "0x0ad22b4a09401a073e8759d35a29854bb783a670c8b12c42b9104df9b32ea2a7",
      "blockNumber": 74655,
      "transactionIndex": 0,
      "confirmations": null,
      "from": "0x01Ad0ACFf478127D9d702B1A13599D706cB759b1",
      "gasPrice": {
        "_hex": "0xd050afdf8"
      },
      "gasLimit": {
        "_hex": "0x5208"
      },
      "to": "0x32Be343B94f860124dC4fEe278FDCBD38C102D88",
      "value": {
        "_hex": "0x455f657d3e97e800"
      },
      "nonce": 14,
      "data": "0x",
      "r": "0xe7238be796c2fce83a2c491560a4c5e3f3f300ee0436a5b51efccc3dcec38c2f",
      "s": "0x46bb2fea1fd50d205e9e271b7d711a3cb4afb1124321bafe89dc3c51e8822955",
      "v": 27,
      "creates": null,
      "raw": "0xf86c0e850d050afdf88252089432be343b94f860124dc4fee278fdcbd38c102d8888455f657d3e97e800801ba0e7238be796c2fce83a2c491560a4c5e3f3f300ee0436a5b51efccc3dcec38c2fa046bb2fea1fd50d205e9e271b7d711a3cb4afb1124321bafe89dc3c51e8822955",
      "networkId": 0,
      "chainId": 0
    },
    {
      "hash": "0xe2f62b7c6c415f84c42b63c70fa65358dff5336a0d9d46388dcf167a2808bf68",
      "blockHash": "0x0ad22b4a09401a073e8759d35a29854bb783a670c8b12c42b9104df9b32ea2a7",
      "blockNumber": 74655,
      "transactionIndex": 1,
      "confirmations": null,
      "from": "0xabceA603089850F8f6bB612A9031554D90A247CF",
      "gasPrice": {
        "_hex": "0xd050afdf8"
      },
      "gasLimit": {
        "_hex": "0x5208"
      },
      "to": "0x32Be343B94f860124dC4fEe278FDCBD38C102D88",
      "value": {
        "_hex": "0x377eaec99733e800"
      },
      "nonce": 11,
      "data": "0x",
      "r": "0xf3fc5228ffdc7837d91929c064c9dfc700d1ab433749fa6a7d55f913baa8f072",
      "s": "0x46f873a29df99978a7052ea759da00725d7368060cf7ca0fe2c23d6291fc68a3",
      "v": 28,
      "creates": null,
      "raw": "0xf86c0b850d050afdf88252089432be343b94f860124dc4fee278fdcbd38c102d8888377eaec99733e800801ca0f3fc5228ffdc7837d91929c064c9dfc700d1ab433749fa6a7d55f913baa8f072a046f873a29df99978a7052ea759da00725d7368060cf7ca0fe2c23d6291fc68a3",
      "networkId": 0,
      "chainId": 0
    }
  ]
}