{
  "hash": "0x35c3ed44601ad4aef83593e45e731d9faaabd8520fa22256553be0c87aebb891",
  "parentHash": "0xbc7aa7ef559db175b64d68a93b98419b8ad3e7c08ebe9dda79cb85d033def08a",
  "number": 102836,
  "timestamp": 1439843946,
  "nonce": "0x4aefa4084c66f4b2",
  "difficulty": 4060326764896,
  "gasLimit": {
    "_hex": "0x2fefd8"
  },
  "gasUsed": {
    "_hex": "0x14820"
  },
  "miner": "0x1217627fe41A00f0b828317F43E6d58F47dBfc43",
  "extraData": "0x476574682f76312e302e302d66313265303136312f6c696e75782f676f312e34",
  "transactions": [
    {
      "hash": "0xba638d2352ddb8ea9f86a32f2e187900afceb63c5d1b98262e460b05c2db6c03",
      "blockHash": "0x35c3ed44601ad4aef83593e45e731d9faaabd8520fa22256553be0c87aebb891",
      "blockNumber": 102836,
      "transactionIndex": 0,
      "confirmations": null,
      "from": "0xfDbb92Ce9AaA0ef325a63ae31adb1DFe4458eF31",
      "gasPrice": {
        "_hex": "0xcdb95052c"
      },
      "gasLimit": {
        "_hex": "0x5208"
      },
      "to": "0x32Be343B94f860124dC4fEe278FDCBD38C102D88",
      "value": {
        "_hex": "0x3858dec8f46b4c000"
      },
      "nonce": 0,
      "data": "0x",
      "r": "0xf7e18d44c6d20665694890090da4535576488c277c95433faa690f0f1361535a",
      "s": "0x54e25ef046c3696e645726239c87e083f459c56fea06ddbfd4d5affce48e14fc",
      "v": 27,
      "creates": null,
      "raw": "0xf86d80850cdb95052c8252089432be343b94f860124dc4fee278fdcbd38c102d888903858dec8f46b4c000801ba0f7e18d44c6d20665694890090da4535576488c277c95433faa690f0f1361535aa054e25ef046c3696e645726239c87e083f459c56fea06ddbfd4d5affce48e14fc",
      "networkId": 0,
      "chainId": 0
    },
    {
      "hash": "0x23e878661545d23ec75b6efddf85edcaab36f4169b9b69ef1c431b85f274396a",
      "blockHash": "0x35c3ed44601ad4aef83593e45e731d9faaabd8520fa22256553be0c87aebb891",
      "blockNumber": 102836,
      "transactionIndex": 1,
      "confirmations": null,
      "from": "0xAd9DbFc10FaF86e12b09d148F456a5568609b7Ab",
      "gasPrice": {
        "_hex": "0xcdb95052c"
      },
      "gasLimit": {
        "_hex": "0x5208"
      },
      "to": "0x32Be343B94f860124dC4fEe278FDCBD38C102D88",
      "value": {
        "_hex": "0x78648a2304f9a00000"
      },
      "nonce": 3,
      "data": "0x",
      "r": "0x8e2d662fd1c502e39812703b67c1def088ef9b6c44edfa31c813e51f0fc3e359",
      "s": "0x43cf603db9e525fef1d1ce7110ffd59c48d7c7aaa3fc63a81cca1db7721bdedc",
      "v": 27,
      "creates": null,
      "raw": "0xf86d03850cdb95052c8252089432be343b94f860124dc4fee278fdcbd38c102d888978648a2304f9a00000801ba08e2d662fd1c502e39812703b67c1def088ef9b6c44edfa31c813e51f0fc3e359a043cf603db9e525fef1d1ce7110ffd59c48d7c7aaa3fc63a81cca1db7721bdedc",
      "networkId": 0,
      "chainId": 0
    },
    {
      "hash": "0x4530f1fadad6f391d8d567e7ea5bdfaf53f13cecc296cb4b521bc5d6ba9039eb",
      "blockHash": "0x35c3ed44601ad4aef83593e45e731d9faaabd8520fa22256553be0c87aebb891",
      "blockNumber": 102836,
      "transactionIndex": 2,
      "confirmations": null,
      "from": "0xcf00A85f3826941e7A25BFcF9Aac575d40410852",
      "gasPrice": {
        "_hex": "0xcb5bea614"
      },
      "gasLimit": {
        "_hex": "0x15f90"
      },
      "to": "0xD9666150A9dA92d9108198a4072970805a8B3428",
      "value": {
        "_hex": "0x4563918244f40000"
      },
      "nonce": 46,
      "data": "0x",
      "r": "0x1aca5dff2bad202be7b7a8c1eeb96eb694731fbe87a84936bbf79499a3ff7165",
      "s": "0x40bd373601db7d1eed3f0f9fd145920410e4b939d9979c700393347fe265d325",
      "v": 27,
      "creates": null,
      "raw": "0xf86d2e850cb5bea61483015f9094d9666150a9da92d9108198a4072970805a8b3428884563918244f40000801ba01aca5dff2bad202be7b7a8c1eeb96eb694731fbe87a84936bbf79499a3ff7165a040bd373601db7d1eed3f0f9fd145920410e4b939d9979c700393347fe265d325",
      "networkId": 0,
      "chainId": 0
    },
    {
      "hash": "0x02da3097c4870c00b2a813fc1350e5bac1799a9de25b49f177b51973f7ebe929",
      "blockHash": "0x35c3ed44601ad4aef83593e45e731d9faaabd8520fa22256553be0c87aebb891",
      "blockNumber": 102836,
      "transactionIndex": 3,
      "confirmations": null,
      "from": "0xb1abce2918E21ddb93AA452731a12672A3d9F75a",
      "gasPrice": {
        "_hex": "0xcdb95052c"
      },
      "gasLimit": {
        "_hex": "0x5208"
      },
      "to": "0x32Be343B94f860124dC4fEe278FDCBD38C102D88",
      "value": {
        "_hex": "0x455f72c492683800"
      },
      "nonce": 110,
      "data": "0x",
      "r": "0x9a44d65c393ef79987bebaa7ee4506f09bbc912d56e144d7f7b8250c0d7eb2f8",
      "s": "0x1a90ff5608bcde6de9d5ac8eeba98483691374218f1af8bcba764d1363740832",
      "v": 27,
      "creates": null,
      "raw": "0xf86c6e850cdb95052c8252089432be343b94f860124dc4fee278fdcbd38c102d8888455f72c492683800801ba09a44d65c393ef79987bebaa7ee4506f09bbc912d56e144d7f7b8250c0d7eb2f8a01a90ff5608bcde6de9d5ac8eeba98483691374218f1af8bcba764d1363740832",
      "networkId": 0,
      "chainId": 0
    }
  ]
}