{
  "hash": "0x6ba52bcb503e83b8658989c423c9fd571af89b33c18acd7e1dfaca3521739c53",
  "parentHash": "0x2f92b72887deff242c51ef6c31fb3b55daf9fdb2fcc3aae1abc51005b7de82c2",
  "number": 119477,
  "timestamp": 1440143690,
  "nonce": "0xa93a870d60834429",
  "difficulty": 4392269680372,
  "gasLimit": {
    "_hex": "0x2fefd8"
  },
  "gasUsed": {
    "_hex": "0x5208"
  },
  "miner": "0x52bc44d5378309EE2abF1539BF71dE1b7d7bE3b5",
  "extraData": "0xd783010002844765746887676f312e342e32856c696e7578",
  "transactions": [
    {
      "hash": "0x52a6e5c8ac994aea0e462866249327db587e321a3e97a03961390c0473b9963e",
      "blockHash": "0x6ba52bcb503e83b8658989c423c9fd571af89b33c18acd7e1dfaca3521739c53",
      "blockNumber": 119477,
      "transactionIndex": 0,
      "confirmations": null,
      "from": "0xc2d8A8b3496243E22B7247990737217985B94421",
      "gasPrice": {
        "_hex": "0xba43b7400"
      },
      "gasLimit": {
        "_hex": "0x5208"
      },
      "to": "0x32Be343B94f860124dC4fEe278FDCBD38C102D88",
      "value": {
        "_hex": "0x9bb6f9209689000"
      },
      "nonce": 0,
      "data": "0x",
      "r": "0x489f000fc96d3d52038256571bfc3fac8936826533d409d25b5576ecba2950de",
      "s": "0x75677e294faeed27018a6bd109e8be1051ed1eb4f5ac26718f85972545c5ce1d",
      "v": 27,
      "creates": null,
      "raw": "0xf86c80850ba43b74008252089432be343b94f860124dc4fee278fdcbd38c102d888809bb6f9209689000801ba0489f000fc96d3d52038256571bfc3fac8936826533d409d25b5576ecba2950dea075677e294faeed27018a6bd109e8be1051ed1eb4f5ac26718f85972545c5ce1d",
      "networkId": 0,
      "chainId": 0
    }
  ]
}