{
  "hash": "0x0c7224e68eb9af18983a5627d9764cb56dfca916b844819ebe827e88c253f845",
  "parentHash": "0x6fe235ba7d90fa1b609527d6059e165849784f20b5f4f20c7160cf777a5039a6",
  "number": 106392,
  "timestamp": 1439903345,
  "nonce": "0xd51ac7ebf02ecc4e",
  "difficulty": 4488082235762,
  "gasLimit": {
    "_hex": "0x2fefd8"
  },
  "gasUsed": {
    "_hex": "0x5208"
  },
  "miner": "0xe6A7a1d47ff21B6321162AEA7C6CB457D5476Bca",
  "extraData": "0x476574682f76312e302e312d38326566323666362f6c696e75782f676f312e34",
  "transactions": [
    {
      "hash": "0xbd9fd5c56b85ec19e6f209b538d65c1b0f2324b4d58fa1c56602370c6f66081f",
      "blockHash": "0x0c7224e68eb9af18983a5627d9764cb56dfca916b844819ebe827e88c253f845",
      "blockNumber": 106392,
      "transactionIndex": 0,
      "confirmations": null,
      "from": "0x46532c79E7F23Aa3520221582D7AC182fb98C56B",
      "gasPrice": {
        "_hex": "0x10dc90d85e7"
      },
      "gasLimit": {
        "_hex": "0x15f90"
      },
      "to": "0x95A466C2ba3A392003E9ef63F4442236C6E1B40E",
      "value": {
        "_hex": "0x4f1a77ccd3ba0000"
      },
      "nonce": 5,
      "data": "0x",
      "r": "0xc13fb906316f54034a0ae32b5ca8965bd789c90cd16f128fef6f6e17ab48b3fc",
      "s": "0x0f364998571d366d87b818088630d49f9ec537a77bce8cd760278ffa3dc5d49a",
      "v": 27,
      "creates": null,
      "raw": "0xf86e0586010dc90d85e783015f909495a466c2ba3a392003e9ef63f4442236c6e1b40e884f1a77ccd3ba0000801ba0c13fb906316f54034a0ae32b5ca8965bd789c90cd16f128fef6f6e17ab48b3fca00f364998571d366d87b818088630d49f9ec537a77bce8cd760278ffa3dc5d49a",
      "networkId": 0,
      "chainId": 0
    }
  ]
}