{
  "hash": "0x9a7e0dd92378c9a7b878d13fab4f5b5d61a8c6291d041c48b4f9f96c9e6bab33",
  "parentHash": "0xd40f6863a5a5ba272f94874c84d3d25d54754eb7dadc71a3c39b4b3139bebb01",
  "number": 120947,
  "timestamp": 1440168900,
  "nonce": "0x524c0e29a331646d",
  "difficulty": 4417307036926,
  "gasLimit": {
    "_hex": "0x2fefd8"
  },
  "gasUsed": {
    "_hex": "0x5208"
  },
  "miner": "0xf0764A8BcaBfC5A5729282AA85DfAD72C468F74c",
  "extraData": "0xd983010002844765746887676f312e342e328777696e646f7773",
  "transactions": [
    {
      "hash": "0x5dbd114295c2823f91f00abcba26330f2530a9d565c465c8381c182e4e886d4f",
      "blockHash": "0x9a7e0dd92378c9a7b878d13fab4f5b5d61a8c6291d041c48b4f9f96c9e6bab33",
      "blockNumber": 120947,
      "transactionIndex": 0,
      "confirmations": null,
      "from": "0x23f2D0fd3B4C98Fb1698564deB4898275E2e831f",
      "gasPrice": {
        "_hex": "0xba43b7400"
      },
      "gasLimit": {
        "_hex": "0x5208"
      },
      "to": "0x32Be343B94f860124dC4fEe278FDCBD38C102D88",
      "value": {
        "_hex": "0x5895ae949246000"
      },
      "nonce": 26,
      "data": "0x",
      "r": "0xf5d0ff1b350f7314979e5f3ba1296320d83b507fefab8bdfb2ef73d3c8c39629",
      "s": "0x4ad3f34a05c347eafe7b29228a72deea95489231d0986174d6ff1418ec57801f",
      "v": 28,
      "creates": null,
      "raw": "0xf86c1a850ba43b74008252089432be343b94f860124dc4fee278fdcbd38c102d888805895ae949246000801ca0f5d0ff1b350f7314979e5f3ba1296320d83b507fefab8bdfb2ef73d3c8c39629a04ad3f34a05c347eafe7b29228a72deea95489231d0986174d6ff1418ec57801f",
      "networkId": 0,
      "chainId": 0
    }
  ]
}