{
  "hash": "0x35936571e35f92b51538a02427a4b0759e52ee0406db801d57b92e81010bed98",
  "parentHash": "0xce7bdede2197862376cc394f978bbbb1e69b35a3fe95a55b58d0aaf3e7ef103b",
  "number": 115295,
  "timestamp": 1440054719,
  "nonce": "0x5d3ab09cdcc3f119",
  "difficulty": 4560599189984,
  "gasLimit": {
    "_hex": "0x2fefd8"
  },
  "gasUsed": {
    "_hex": "0x38658"
  },
  "miner": "0x52bc44d5378309EE2abF1539BF71dE1b7d7bE3b5",
  "extraData": "0x476574682f76312e302e312d65626434373230372f6c696e75782f676f312e34",
  "transactions": [
    {
      "hash": "0x3c8044a13769f32b553fa0eb8f1d90c2963bdbdc2c52a122030871f177e87a42",
      "blockHash": "0x35936571e35f92b51538a02427a4b0759e52ee0406db801d57b92e81010bed98",
      "blockNumber": 115295,
      "transactionIndex": 0,
      "confirmations": null,
      "from": "0xe6A7a1d47ff21B6321162AEA7C6CB457D5476Bca",
      "gasPrice": {
        "_hex": "0xd5e39163d"
      },
      "gasLimit": {
        "_hex": "0x55f0"
      },
      "to": "0x77e41B4125b7c14757e0f07fE36b2E95db757a10",
      "value": {
        "_hex": "0x3f5efbe29ffd1be8"
      },
      "nonce": 5291,
      "data": "0x",
      "r": "0xd761712babd1803195ed64a8bf1c518a134da422720f32b93a86b9f535257bcb",
      "s": "0x0311e30cbbaef3eeee9eefb3ffd7144963de16aab40745583536a6ee329d4dd4",
      "v": 28,
      "creates": null,
      "raw": "0xf86e8214ab850d5e39163d8255f09477e41b4125b7c14757e0f07fe36b2e95db757a10883f5efbe29ffd1be8801ca0d761712babd1803195ed64a8bf1c518a134da422720f32b93a86b9f535257bcba00311e30cbbaef3eeee9eefb3ffd7144963de16aab40745583536a6ee329d4dd4",
      "networkId": 0,
      "chainId": 0
    },
    {
      "hash": "0xb6bdd7ff96f20bc3dc1a660962883404ff17f9660b932c7957a1cf7d6aed750c",
      "blockHash": "0x35936571e35f92b51538a02427a4b0759e52ee0406db801d57b92e81010bed98",
      "blockNumber": 115295,
      "transactionIndex": 1,
      "confirmations": null,
      "from": "0xe6A7a1d47ff21B6321162AEA7C6CB457D5476Bca",
      "gasPrice": {
        "_hex": "0xd5e39163d"
      },
      "gasLimit": {
        "_hex": "0x55f0"
      },
      "to": "0x59C7860aBcb1eE791165B63365c3C8657EEe54c5",
      "value": {
        "_hex": "0x401f605fdc37c3e0"
      },
      "nonce": 5292,
      "data": "0x",
      "r": "0x6da7a2fa1f904d7ce220b414fc6c68c00be678017a2fca3b620d407e1a1f462a",
      "s": "0x5b354ab2fd43e6f362b57babb19e81e9fbaaf0cce2f6ff9b389a352b4149bc89",
      "v": 27,
      "creates": null,
      "raw": "0xf86e8214ac850d5e39163d8255f09459c7860abcb1ee791165b63365c3c8657eee54c588401f605fdc37c3e0801ba06da7a2fa1f904d7ce220b414fc6c68c00be678017a2fca3b620d407e1a1f462aa05b354ab2fd43e6f362b57babb19e81e9fbaaf0cce2f6ff9b389a352b4149bc89",
      "networkId": 0,
      "chainId": 0
    },
    {
      "hash": "0x1cc5fc6a08bcc0ed1479be7c28c32c1e35b3cb0baf2ef5e66cd5d35e49246c3b",
      "blockHash": "0x35936571e35f92b51538a02427a4b0759e52ee0406db801d57b92e81010bed98",
      "blockNumber": 115295,
      "transactionIndex": 2,
      "confirmations": null,
      "from": "0xe6A7a1d47ff21B6321162AEA7C6CB457D5476Bca",
      "gasPrice": {
        "_hex": "0xd5e39163d"
      },
      "gasLimit": {
        "_hex": "0x55f0"
      },
      "to": "0x46b29910396E1cF71678f81101334A180876E9b1",
      "value": {
        "_hex": "0x402941e0da5d6798"
      },
      "nonce": 5293,
      "data": "0x",
      "r": "0x14d0f8be902406937d19e85c65c334c6fff3dc444a134aac76f5636505bc11d3",
      "s": "0x7007c3be5550491c6eac6564f217f6c40631712865c673171e70a842ca9cf2fe",
      "v": 28,
      "creates": null,
      "raw": "0xf86e8214ad850d5e39163d8255f09446b29910396e1cf71678f81101334a180876e9b188402941e0da5d6798801ca014d0f8be902406937d19e85c65c334c6fff3dc444a134aac76f5636505bc11d3a07007c3be5550491c6eac6564f217f6c40631712865c673171e70a842ca9cf2fe",
      "networkId": 0,
      "chainId": 0
    },
    {
      "hash": "0x408013b58c5ee41cecf2fb4eaa4b1a79be8365ae70e2e7a889098d8204083300",
      "blockHash": "0x35936571e35f92b51538a02427a4b0759e52ee0406db801d57b92e81010bed98",
      "blockNumber": 115295,
      "transactionIndex": 3,
      "confirmations": null,
      "from": "0xe6A7a1d47ff21B6321162AEA7C6CB457D5476Bca",
      "gasPrice": {
        "_hex": "0xd5e39163d"
      },
      "gasLimit": {
        "_hex": "0x55f0"
      },
      "to": "0xd8F5f0458bDA93A6d2ffA08cee7c1A0CbeA410aE",
      "value": {
        "_hex": "0x408990f5a7bd7f48"
      },
      "nonce": 5294,
      "data": "0x",
      "r": "0xf6822d8332b106027676b5b4624c67875d6af421c6587dfb2cda1adc3a06ecd4",
      "s": "0x29923ef7f08a781275d3a9a85d5150c5f4827cefa0f1993b1d0d1a5e7f809580",
      "v": 28,
      "creates": null,
      "raw": "0xf86e8214ae850d5e39163d8255f094d8f5f0458bda93a6d2ffa08cee7c1a0cbea410ae88408990f5a7bd7f48801ca0f6822d8332b106027676b5b4624c67875d6af421c6587dfb2cda1adc3a06ecd4a029923ef7f08a781275d3a9a85d5150c5f4827cefa0f1993b1d0d1a5e7f809580",
      "networkId": 0,
      "chainId": 0
    },
    {
      "hash": "0xe62b7d2704af8cbe2d79880ab7f474fb54cabf99f728aeb66a5051410847b6a6",
      "blockHash": "0x35936571e35f92b51538a02427a4b0759e52ee0406db801d57b92e81010bed98",
      "blockNumber": 115295,
      "transactionIndex": 4,
      "confirmations": null,
      "from": "0xe6A7a1d47ff21B6321162AEA7C6CB457D5476Bca",
      "gasPrice": {
        "_hex": "0xd5e39163d"
      },
      "gasLimit": {
        "_hex": "0x55f0"
      },
      "to": "0x0a856CdC3EaFBAD120c51220d0F71d4Aa2Dee7AE",
      "value": {
        "_hex": "0x409aa8e3e170edd0"
      },
      "nonce": 5295,
      "data": "0x",
      "r": "0x82decc00b67e90dcdd581b83363c7502449f250f3bbc81655829cd6eb090de9d",
      "s": "0x705b0f735cea3852084f027cfa32d6095217f90a130534a149919657e01c3a92",
      "v": 28,
      "creates": null,
      "raw": "0xf86e8214af850d5e39163d8255f0940a856cdc3eafbad120c51220d0f71d4aa2dee7ae88409aa8e3e170edd0801ca082decc00b67e90dcdd581b83363c7502449f250f3bbc81655829cd6eb090de9da0705b0f735cea3852084f027cfa32d6095217f90a130534a149919657e01c3a92",
      "networkId": 0,
      "chainId": 0
    },
    {
      "hash": "0x0b30538d0ab55f47a1fe439494fd8d2370429b642483c2942c5d381e782780b5",
      "blockHash": "0x35936571e35f92b51538a02427a4b0759e52ee0406db801d57b92e81010bed98",
      "blockNumber": 115295,
      "transactionIndex": 5,
      "confirmations": null,
      "from": "0xe6A7a1d47ff21B6321162AEA7C6CB457D5476Bca",
      "gasPrice": {
        "_hex": "0xd5e39163d"
      },
      "gasLimit": {
        "_hex": "0x55f0"
      },
      "to": "0xaa71fa80d26F718E6A3c87e41D817b8D10944a63",
      "value": {
        "_hex": "0x4277b375e9097af0"
      },
      "nonce": 5296,
      "data": "0x",
      "r": "0x5fe4f527737c69804f0db69f26da761c6c03073c23647b089c0398c262da9575",
      "s": "0x3f4f706a6bccd148d1c01967c6c499c9165bb30c199d86a2a259ab8490f4f2fb",
      "v": 27,
      "creates": null,
      "raw": "0xf86e8214b0850d5e39163d8255f094aa71fa80d26f718e6a3c87e41d817b8d10944a63884277b375e9097af0801ba05fe4f527737c69804f0db69f26da761c6c03073c23647b089c0398c262da9575a03f4f706a6bccd148d1c01967c6c499c9165bb30c199d86a2a259ab8490f4f2fb",
      "networkId": 0,
      "chainId": 0
    },
    {
      "hash": "0x5e0302f535f14f3cce6f1d30b2a7d6032e37b0221ba2ec5745cfa08b18d7c10f",
      "blockHash": "0x35936571e35f92b51538a02427a4b0759e52ee0406db801d57b92e81010bed98",
      "blockNumber": 115295,
      "transactionIndex": 6,
      "confirmations": null,
      "from": "0xe6A7a1d47ff21B6321162AEA7C6CB457D5476Bca",
      "gasPrice": {
        "_hex": "0xd5e39163d"
      },
      "gasLimit": {
        "_hex": "0x55f0"
      },
      "to": "0x211D45933Ef88c3D7aD0120942CF50ab506e618F",
      "value": {
        "_hex": "0x427dd1ca588db648"
      },
      "nonce": 5297,
      "data": "0x",
      "r": "0x76460b4d2dfd67cf22c64e771b6caae2cf6945c6407d7bac5305e14cc143774a",
      "s": "0x02e2676aeae18b739e93435ff97788e46546a7ca93be3d68be3e30ace2c04a02",
      "v": 28,
      "creates": null,
      "raw": "0xf86e8214b1850d5e39163d8255f094211d45933ef88c3d7ad0120942cf50ab506e618f88427dd1ca588db648801ca076460b4d2dfd67cf22c64e771b6caae2cf6945c6407d7bac5305e14cc143774aa002e2676aeae18b739e93435ff97788e46546a7ca93be3d68be3e30ace2c04a02",
      "networkId": 0,
      "chainId": 0
    },
    {
      "hash": "0x2114c7201a5f4ecb7a3216c204a90b5fcbea80877a1f79fff0890c84b3ac3fdd",
      "blockHash": "0x35936571e35f92b51538a02427a4b0759e52ee0406db801d57b92e81010bed98",
      "blockNumber": 115295,
      "transactionIndex": 7,
      "confirmations": null,
      "from": "0xe6A7a1d47ff21B6321162AEA7C6CB457D5476Bca",
      "gasPrice": {
        "_hex": "0xd5e39163d"
      },
      "gasLimit": {
        "_hex": "0x55f0"
      },
      "to": "0x10BD1134A760f6b35247e3cb33673a18bC95a7E7",
      "value": {
        "_hex": "0x42ba416b476f62b0"
      },
      "nonce": 5298,
      "data": "0x",
      "r": "0x36595161e4975e3feeec9531d38f955db3a9610a9ce5a3631d2e2b1dd9f6cb44",
      "s": "0x50f5725c009b9d435ce7f4f33386a9894dee330aa1d4f06e4a885bf1c5da68a5",
      "v": 27,
      "creates": null,
      "raw": "0xf86e8214b2850d5e39163d8255f09410bd1134a760f6b35247e3cb33673a18bc95a7e78842ba416b476f62b0801ba036595161e4975e3feeec9531d38f955db3a9610a9ce5a3631d2e2b1dd9f6cb44a050f5725c009b9d435ce7f4f33386a9894dee330aa1d4f06e4a885bf1c5da68a5",
      "networkId": 0,
      "chainId": 0
    },
    {
      "hash": "0x10f15c8862ea06fb445b9772b996c05c5f6eebe5e9eb5c0d140b0ef279ca87cd",
      "blockHash": "0x35936571e35f92b51538a02427a4b0759e52ee0406db801d57b92e81010bed98",
      "blockNumber": 115295,
      "transactionIndex": 8,
      "confirmations": null,
      "from": "0xe6A7a1d47ff21B6321162AEA7C6CB457D5476Bca",
      "gasPrice": {
        "_hex": "0xd5e39163d"
      },
      "gasLimit": {
        "_hex": "0x55f0"
      },
      "to": "0x610821723ac6726cBCec2037C83743dfbDADa663",
      "value": {
        "_hex": "0x4345dc90326ca7f0"
      },
      "nonce": 5299,
      "data": "0x",
      "r": "0x7cdbecb162e33e6822eaba75c23015febb544cef14697892d285eb186566b0d7",
      "s": "0x6ebac9deaff81812071fc365b3aee9eba4a9dccfd528d8f562d231615f9e280f",
      "v": 28,
      "creates": null,
      "raw": "0xf86e8214b3850d5e39163d8255f094610821723ac6726cbcec2037c83743dfbdada663884345dc90326ca7f0801ca07cdbecb162e33e6822eaba75c23015febb544cef14697892d285eb186566b0d7a06ebac9deaff81812071fc365b3aee9eba4a9dccfd528d8f562d231615f9e280f",
      "networkId": 0,
      "chainId": 0
    },
    {
      "hash": "0x723d5ac0e1826dde75c0bedd0aeaec14ccd2f5993b172ba0a5f529076c68fa94",
      "blockHash": "0x35936571e35f92b51538a02427a4b0759e52ee0406db801d57b92e81010bed98",
      "blockNumber": 115295,
      "transactionIndex": 9,
      "confirmations": null,
      "from": "0x2118baa5B9d6423676CF5502Eb6eaeD859228c33",
      "gasPrice": {
        "_hex": "0xd59c441c9"
      },
      "gasLimit": {
        "_hex": "0x5208"
      },
      "to": "0x32Be343B94f860124dC4fEe278FDCBD38C102D88",
      "value": {
        "_hex": "0x21533dd25b223000"
      },
      "nonce": 10,
      "data": "0x",
      "r": "0x17903f689a43e748b04b1ffdbbcf8b73a522bb170c58e2824f71c1be56b8b1fc",
      "s": "0x29e957957c31b9427961081ae6bc908f9d7413d38e46481754f78f2796601bcf",
      "v": 28,
      "creates": null,
      "raw": "0xf86c0a850d59c441c98252089432be343b94f860124dc4fee278fdcbd38c102d888821533dd25b223000801ca017903f689a43e748b04b1ffdbbcf8b73a522bb170c58e2824f71c1be56b8b1fca029e957957c31b9427961081ae6bc908f9d7413d38e46481754f78f2796601bcf",
      "networkId": 0,
      "chainId": 0
    },
    {
      "hash": "0x9831fced16afa88e66c2ed141957054f3db7e80dd99cddb1d7e7e11b8e39f3f8",
      "blockHash": "0x35936571e35f92b51538a02427a4b0759e52ee0406db801d57b92e81010bed98",
      "blockNumber": 115295,
      "transactionIndex": 10,
      "confirmations": null,
      "from": "0x2435CaC661de90FF84BF79A55629C5bc30B40a0d",
      "gasPrice": {
        "_hex": "0xd527ca0f6"
      },
      "gasLimit": {
        "_hex": "0x5208"
      },
      "to": "0xFBb1b73C4f0BDa4f67dcA266ce6Ef42f520fBB98",
      "value": {
        "_hex": "0x2be3e120440dac50"
      },
      "nonce": 4,
      "data": "0x",
      "r": "0x6c5b482407dee1fb31b83659eefbd2ef6ae5c4594068399e5507ac1374d8466c",
      "s": "0x744cf408ece0198f8fd42b4224b3bb704da9cfd836bf2984fe77e941b28c3f0d",
      "v": 28,
      "creates": null,
      "raw": "0xf86c04850d527ca0f682520894fbb1b73c4f0bda4f67dca266ce6ef42f520fbb98882be3e120440dac50801ca06c5b482407dee1fb31b83659eefbd2ef6ae5c4594068399e5507ac1374d8466ca0744cf408ece0198f8fd42b4224b3bb704da9cfd836bf2984fe77e941b28c3f0d",
      "networkId": 0,
      "chainId": 0
    }
  ]
}