{
  "hash": "0x4dbb903e113e399831dc6bbf977c2c4651861e83ab7d4f7bac41e6677b8b4e1b",
  "parentHash": "0xd8391d91af600531061d4611c93fef5eaca82972b052638b47938c351dff568b",
  "number": 109164,
  "timestamp": 1439951918,
  "nonce": "0xe4217a9bed0822f1",
  "difficulty": 4456033877651,
  "gasLimit": {
    "_hex": "0x2fefd8"
  },
  "gasUsed": {
    "_hex": "0x5208"
  },
  "miner": "0xe6A7a1d47ff21B6321162AEA7C6CB457D5476Bca",
  "extraData": "0x476574682f76312e302e312d38326566323666362f6c696e75782f676f312e34",
  "transactions": [
    {
      "hash": "0xdbc3a44cdccce709039776448d4d77d4ac7f9e5500aba1fb35b8b9638672814a",
      "blockHash": "0x4dbb903e113e399831dc6bbf977c2c4651861e83ab7d4f7bac41e6677b8b4e1b",
      "blockNumber": 109164,
      "transactionIndex": 0,
      "confirmations": null,
      "from": "0xb1abce2918E21ddb93AA452731a12672A3d9F75a",
      "gasPrice": {
        "_hex": "0xccfbfa9c4"
      },
      "gasLimit": {
        "_hex": "0x5208"
      },
      "to": "0x32Be343B94f860124dC4fEe278FDCBD38C102D88",
      "value": {
        "_hex": "0x455f7691cdd28000"
      },
      "nonce": 141,
      "data": "0x",
      "r": "0xf6e88e5a2f3217f1f4d1d4324f15f9aba4035babd9b909f8f83fc29c2b95400f",
      "s": "0x745407d8d46ec3e9bf51465e2738703aec63308062a5738eb7822c65ee3e200e",
      "v": 28,
      "creates": null,
      "raw": "0xf86d818d850ccfbfa9c48252089432be343b94f860124dc4fee278fdcbd38c102d8888455f7691cdd28000801ca0f6e88e5a2f3217f1f4d1d4324f15f9aba4035babd9b909f8f83fc29c2b95400fa0745407d8d46ec3e9bf51465e2738703aec63308062a5738eb7822c65ee3e200e",
      "networkId": 0,
      "chainId": 0
    }
  ]
}