{
  "hash": "0xaf1fbfd9cef98fb9a0b623863a8d94d47c2b396c630f5a5af3a3da058e05ddb5",
  "parentHash": "0x7afed693708f2eed1b9c85cb9e8be868a50df6bd071e448faa7221462a4b4255",
  "number": 62629,
  "timestamp": 1439191758,
  "nonce": "0x05afc7b134206fad",
  "difficulty": 1772800222653,
  "gasLimit": {
    "_hex": "0x2fefd8"
  },
  "gasUsed": {
    "_hex": "0x5208"
  },
  "miner": "0x95d2EecfE307D4F6A06338468949b9DA10Ea600a",
  "extraData": "0x",
  "transactions": [
    {
      "hash": "0xc1502ccc3c50f4e40c6e30fa5a9386995a09491de65f508a6c7d4c05c15e1ca4",
      "blockHash": "0xaf1fbfd9cef98fb9a0b623863a8d94d47c2b396c630f5a5af3a3da058e05ddb5",
      "blockNumber": 62629,
      "transactionIndex": 0,
      "confirmations": null,
      "from": "0xD913f0771949753c4726ACAA2bD3619C5C20FF77",
      "gasPrice": {
        "_hex": "0xde67f378b"
      },
      "gasLimit": {
        "_hex": "0x15f90"
      },
      "to": "0x8F8741b77dd1833BC0Ee23D94Ef14920Cb9882B3",
      "value": {
        "_hex": "0x1b1ae4d6e2ef500000"
      },
      "nonce": 5,
      "data": "0x",
      "r": "0x38bddbc0da8c1957c4eb2c428174ae86cf3dc19d1465ef9d1081ce5a898244d0",
      "s": "0x0e07cdbc4b9bf1396c3b80605743a8815cd436a83630a5fbe8571aa37048684e",
      "v": 27,
      "creates": null,
      "raw": "0xf86e05850de67f378b83015f90948f8741b77dd1833bc0ee23d94ef14920cb9882b3891b1ae4d6e2ef500000801ba038bddbc0da8c1957c4eb2c428174ae86cf3dc19d1465ef9d1081ce5a898244d0a00e07cdbc4b9bf1396c3b80605743a8815cd436a83630a5fbe8571aa37048684e",
      "networkId": 0,
      "chainId": 0
    }
  ]
}