{
  "hash": "0xddf4abe2f1d9c2014649bf69d082022af2116a286599030ca878b2125a95cd1f",
  "parentHash": "0xb06095413a5c8cec79279987c893b7b1aaaba14f7aade2282dfcc533a4eb89cc",
  "number": 101944,
  "timestamp": 1439830230,
  "nonce": "0xdc999c1bf1688741",
  "difficulty": 3931980425382,
  "gasLimit": {
    "_hex": "0x2fefd8"
  },
  "gasUsed": {
    "_hex": "0x5208"
  },
  "miner": "0x0037ce3d4B7f8729C8607D8D0248252Be68202c0",
  "extraData": "0x476574682f76312e302e312f77696e646f77732f676f312e342e32",
  "transactions": [
    {
      "hash": "0xe3f5804a86bc9a02784d76790ddab8dc2044a83efe82f389d3c6a21d36f97704",
      "blockHash": "0xddf4abe2f1d9c2014649bf69d082022af2116a286599030ca878b2125a95cd1f",
      "blockNumber": 101944,
      "transactionIndex": 0,
      "confirmations": null,
      "from": "0x9fAA3b300afa841089c996d37e6Ed5155fcF2B3a",
      "gasPrice": {
        "_hex": "0xd636357ae"
      },
      "gasLimit": {
        "_hex": "0x5208"
      },
      "to": "0x32Be343B94f860124dC4fEe278FDCBD38C102D88",
      "value": {
        "_hex": "0xd6ccd6a42dfba800"
      },
      "nonce": 0,
      "data": "0x",
      "r": "0xf52ee9682c71c572501a764f1a0d429802b50649881c6c8b40419ae6f051a075",
      "s": "0x55f0717bc8fe2de220c90406c0bbafd493347916d3ceedb1acf416187eb592fe",
      "v": 28,
      "creates": null,
      "raw": "0xf86c80850d636357ae8252089432be343b94f860124dc4fee278fdcbd38c102d8888d6ccd6a42dfba800801ca0f52ee9682c71c572501a764f1a0d429802b50649881c6c8b40419ae6f051a075a055f0717bc8fe2de220c90406c0bbafd493347916d3ceedb1acf416187eb592fe",
      "networkId": 0,
      "chainId": 0
    }
  ]
}