{
  "hash": "0xb36faceac268b9e247f6083c3bb5ae5883c6a7496c4ff0ddcf3997cad477a9c2",
  "parentHash": "0x5a6d2855016829fd525ff7c1a11fb623a08197e94f739c9ba16ad62e40a52a1c",
  "number": 112738,
  "timestamp": 1440012443,
  "nonce": "0x115cb9d9d723e320",
  "difficulty": 4436770739665,
  "gasLimit": {
    "_hex": "0x2fefd8"
  },
  "gasUsed": {
    "_hex": "0x5208"
  },
  "miner": "0xC603Ab5ef41fC61AA8b76bEddb09e3Cfcbb174BD",
  "extraData": "0x476574682f76312e302e312f77696e646f77732f676f312e342e32",
  "transactions": [
    {
      "hash": "0x027e3a023a8186d400ce73f96d3276c5d0b6645e09f9ff59e077c469db5d66cb",
      "blockHash": "0xb36faceac268b9e247f6083c3bb5ae5883c6a7496c4ff0ddcf3997cad477a9c2",
      "blockNumber": 112738,
      "transactionIndex": 0,
      "confirmations": null,
      "from": "0x120A270bbC009644e35F0bB6ab13f95b8199c4ad",
      "gasPrice": {
        "_hex": "0xd8e1a9e8d"
      },
      "gasLimit": {
        "_hex": "0x15f90"
      },
      "to": "0x572251a1FF0c56745E461cf7a293F893fFADB303",
      "value": {
        "_hex": "0x3a7f1e149597b400"
      },
      "nonce": 901,
      "data": "0x",
      "r": "0x467d46543a68c9053cd91f051a452c71147916008225c9321426ab24a672cdd2",
      "s": "0x1a8c1866a6a90f5ae7fe738ab5d07536f6c9277364383e415f2daca37586d0d5",
      "v": 27,
      "creates": null,
      "raw": "0xf86f820385850d8e1a9e8d83015f9094572251a1ff0c56745e461cf7a293f893ffadb303883a7f1e149597b400801ba0467d46543a68c9053cd91f051a452c71147916008225c9321426ab24a672cdd2a01a8c1866a6a90f5ae7fe738ab5d07536f6c9277364383e415f2daca37586d0d5",
      "networkId": 0,
      "chainId": 0
    }
  ]
}