{
  "hash": "0xe58bf1f0708fee0f516c32c464aeefc6ec1fdceaf00010b102548b4aa17b8c27",
  "parentHash": "0x07f7185cd65cfcb7a35b792948b0859fedb43aa2a00db27d9d7eedfd059a59c2",
  "number": 69948,
  "timestamp": 1439312399,
  "nonce": "0xc9464cc08797c27c",
  "difficulty": 2102389557939,
  "gasLimit": {
    "_hex": "0x2fefd8"
  },
  "gasUsed": {
    "_hex": "0xa410"
  },
  "miner": "0x47ff6576639c2e94762eA5443978D7681C0E78DC",
  "extraData": "0x476574682f76312e302e312f6c696e75782f676f312e342e32",
  "transactions": [
    {
      "hash": "0x92d24c6eef8c6378ecdea2c52cfbd46ee12a2f82388e2f4ecca7f9a548e70a4f",
      "blockHash": "0xe58bf1f0708fee0f516c32c464aeefc6ec1fdceaf00010b102548b4aa17b8c27",
      "blockNumber": 69948,
      "transactionIndex": 0,
      "confirmations": null,
      "from": "0x2910543Af39abA0Cd09dBb2D50200b3E800A63D2",
      "gasPrice": {
        "_hex": "0xdf0977ce6"
      },
      "gasLimit": {
        "_hex": "0x5208"
      },
      "to": "0xFD7c9117BbEB649d9b37B3D3C9917f7c12f526B3",
      "value": {
        "_hex": "0x8ab55f8b52078000"
      },
      "nonce": 231,
      "data": "0x",
      "r": "0x542959379c1791a3c4abc457a8104f6662e1cd171cae99ff4aa79d1aff07e9ed",
      "s": "0x6dbb38f1b6e6603e8faee1aadae1f9383998ebefe7b5b27babac2bd3b59b009d",
      "v": 27,
      "creates": null,
      "raw": "0xf86d81e7850df0977ce682520894fd7c9117bbeb649d9b37b3d3c9917f7c12f526b3888ab55f8b52078000801ba0542959379c1791a3c4abc457a8104f6662e1cd171cae99ff4aa79d1aff07e9eda06dbb38f1b6e6603e8faee1aadae1f9383998ebefe7b5b27babac2bd3b59b009d",
      "networkId": 0,
      "chainId": 0
    },
    {
      "hash": "0xb9b6003d020899b7e900aba4bfacd38822a890dc5d2b92ef71763ab3531b3052",
      "blockHash": "0xe58bf1f0708fee0f516c32c464aeefc6ec1fdceaf00010b102548b4aa17b8c27",
      "blockNumber": 69948,
      "transactionIndex": 1,
      "confirmations": null,
      "from": "0xBFdD9820a04283b289957956353b5F3C1F665EcF",
      "gasPrice": {
        "_hex": "0xddc96b48a"
      },
      "gasLimit": {
        "_hex": "0x5208"
      },
      "to": "0x32Be343B94f860124dC4fEe278FDCBD38C102D88",
      "value": {
        "_hex": "0x222c485b21233c000"
      },
      "nonce": 25,
      "data": "0x",
      "r": "0x80969d349c50e53fd99d1c7eb4ea635bceb41a6a1d9de238fffe0ed6c3ee5db7",
      "s": "0x0fb893b7e9dd60d6b0c15e52aa123fbe9092d3595fdba8495b1db3d2955added",
      "v": 28,
      "creates": null,
      "raw": "0xf86d19850ddc96b48a8252089432be343b94f860124dc4fee278fdcbd38c102d88890222c485b21233c000801ca080969d349c50e53fd99d1c7eb4ea635bceb41a6a1d9de238fffe0ed6c3ee5db7a00fb893b7e9dd60d6b0c15e52aa123fbe9092d3595fdba8495b1db3d2955added",
      "networkId": 0,
      "chainId": 0
    }
  ]
}