{
  "hash": "0xb38434e55cc7fea085ab907f270b8b2e75929c448df03d26660ee33199eed81c",
  "parentHash": "0xd9a0bb4ac963fe5748d6c0840c14df047c850477426d3b141c300a18aa2e15f3",
  "number": 100936,
  "timestamp": 1439814843,
  "nonce": "0xd6f585d94fe24fb7",
  "difficulty": 3856392401401,
  "gasLimit": {
    "_hex": "0x2fefd8"
  },
  "gasUsed": {
    "_hex": "0x5208"
  },
  "miner": "0x9746c7e1ef2bd21FF3997fa467593a89cb852BD0",
  "extraData": "0x476574682f76312e302e312f77696e646f77732f676f312e342e32",
  "transactions": [
    {
      "hash": "0xdc039720d323d5dc01049fe70f4608e71965a5356a32fb4a28174524d8909645",
      "blockHash": "0xb38434e55cc7fea085ab907f270b8b2e75929c448df03d26660ee33199eed81c",
      "blockNumber": 100936,
      "transactionIndex": 0,
      "confirmations": null,
      "from": "0xcf00A85f3826941e7A25BFcF9Aac575d40410852",
      "gasPrice": {
        "_hex": "0xcb5bea614"
      },
      "gasLimit": {
        "_hex": "0x15f90"
      },
      "to": "0xD9666150A9dA92d9108198a4072970805a8B3428",
      "value": {
        "_hex": "0x4563918244f40000"
      },
      "nonce": 30,
      "data": "0x",
      "r": "0x6f3f68c8339c59c1a9858089ada521711f08f4a3467be8405c03efdd0d5d41a6",
      "s": "0x711abf185c50fbfb2967fbdc5670df77e53fb196ea3d1ec5dbcc5faa7ca6f8cc",
      "v": 27,
      "creates": null,
      "raw": "0xf86d1e850cb5bea61483015f9094d9666150a9da92d9108198a4072970805a8b3428884563918244f40000801ba06f3f68c8339c59c1a9858089ada521711f08f4a3467be8405c03efdd0d5d41a6a0711abf185c50fbfb2967fbdc5670df77e53fb196ea3d1ec5dbcc5faa7ca6f8cc",
      "networkId": 0,
      "chainId": 0
    }
  ]
}