{
  "hash": "0xa5cf1bd217c6e9bab8e06d15f1fb5a3f4e01243dcc9160efbf0feb5d5dad57a2",
  "parentHash": "0x744966355af394902a30ceed1d7f05161003a73709d12e6b0c46e68e4524a189",
  "number": 55730,
  "timestamp": 1439076023,
  "nonce": "0x757c284e345bb53f",
  "difficulty": 1597439909328,
  "gasLimit": {
    "_hex": "0x2fefd2"
  },
  "gasUsed": {
    "_hex": "0x9847"
  },
  "miner": "0xf927a40C8B7F6E07c5af7FA2155B4864a4112B13",
  "extraData": "0x476574682f76312e302e312f6c696e75782f676f312e342e32",
  "transactions": [
    {
      "hash": "0xeaac6f4b561792f172b85374199ae7cfa248c7c68e7d934f7974bc96e186c361",
      "blockHash": "0xa5cf1bd217c6e9bab8e06d15f1fb5a3f4e01243dcc9160efbf0feb5d5dad57a2",
      "blockNumber": 55730,
      "transactionIndex": 0,
      "confirmations": null,
      "from": "0x288E4356F12D0D3D0F8DF3506E457E7cFd5f4Ab0",
      "gasPrice": {
        "_hex": "0xd6f88b32d"
      },
      "gasLimit": {
        "_hex": "0x186a0"
      },
      "to": "0xF6bF0eE51FE0ee92500bB22295382E9241eC3b5C",
      "value": {
        "_hex": "0x16345785d8a0000"
      },
      "nonce": 20,
      "data": "0xe54232743bf7884c7bf2e196cca249099bc33fa591cf3379418429be27e1ba7b19502bfe",
      "r": "0xdbe37290064d36ff9df1342b22765d777906287df1632bb13eea0b3962bfdfcd",
      "s": "0x231037324956213461a1af707d3a24ed0d54bf985a53833c2d2331e813eb355b",
      "v": 27,
      "creates": null,
      "raw": "0xf89114850d6f88b32d830186a094f6bf0ee51fe0ee92500bb22295382e9241ec3b5c88016345785d8a0000a4e54232743bf7884c7bf2e196cca249099bc33fa591cf3379418429be27e1ba7b19502bfe1ba0dbe37290064d36ff9df1342b22765d777906287df1632bb13eea0b3962bfdfcda0231037324956213461a1af707d3a24ed0d54bf985a53833c2d2331e813eb355b",
      "networkId": 0,
      "chainId": 0
    }
  ]
}