{
  "hash": "0xd9a0bb4ac963fe5748d6c0840c14df047c850477426d3b141c300a18aa2e15f3",
  "parentHash": "0x11a36e124a6cc206837eff6b75b5bd8ce887250314fb4e179cc85852f0c518a6",
  "number": 100935,
  "timestamp": 1439814833,
  "nonce": "0x549550d41bdfe9d6",
  "difficulty": 3854510316286,
  "gasLimit": {
    "_hex": "0x2fefd8"
  },
  "gasUsed": {
    "_hex": "0x546c"
  },
  "miner": "0xcf00A85f3826941e7A25BFcF9Aac575d40410852",
  "extraData": "0x476574682f76312e302e312f77696e646f77732f676f312e342e32",
  "transactions": [
    {
      "hash": "0x433ff33f9a802cc61d4451f6dc2eb1569a0ce397626c71ba787d8cad1833e990",
      "blockHash": "0xd9a0bb4ac963fe5748d6c0840c14df047c850477426d3b141c300a18aa2e15f3",
      "blockNumber": 100935,
      "transactionIndex": 0,
      "confirmations": null,
      "from": "0xbDE9786A84e75B48f18E726DD78d70E4AF3ed802",
      "gasPrice": {
        "_hex": "0x110c8f7d8de"
      },
      "gasLimit": {
        "_hex": "0xc350"
      },
      "to": "0x2910543Af39abA0Cd09dBb2D50200b3E800A63D2",
      "value": {
        "_hex": "0x13691d8aa7504e40000"
      },
      "nonce": 0,
      "data": "0x454e39394838375652",
      "r": "0x5dcbae92e28d9b91bd347ae029ba2feadaaa54781d0f1c8b245083d476901ffc",
      "s": "0x6c842f0d16101975c98f305948dbb3ca19c784c11b40e6b5731d33d03648e34b",
      "v": 28,
      "creates": null,
      "raw": "0xf87880860110c8f7d8de82c350942910543af39aba0cd09dbb2d50200b3e800a63d28a013691d8aa7504e4000089454e393948383756521ca05dcbae92e28d9b91bd347ae029ba2feadaaa54781d0f1c8b245083d476901ffca06c842f0d16101975c98f305948dbb3ca19c784c11b40e6b5731d33d03648e34b",
      "networkId": 0,
      "chainId": 0
    }
  ]
}