{
  "hash": "0x20a72152518b580e37b9e45a961d7af18ab24eaaf0b9930b21822308c5f1b676",
  "parentHash": "0x7a9c1954c287b6b5b6ce5efca10b0860545012897e3589c1bb4d9b72dc7c33cd",
  "number": 82134,
  "timestamp": 1439514227,
  "nonce": "0x2ddb24831afe55d1",
  "difficulty": 2383512006505,
  "gasLimit": {
    "_hex": "0x2fefd8"
  },
  "gasUsed": {
    "_hex": "0x5208"
  },
  "miner": "0x47ff6576639c2e94762eA5443978D7681C0E78DC",
  "extraData": "0x476574682f76312e302e312f6c696e75782f676f312e342e32",
  "transactions": [
    {
      "hash": "0x2b8dd4d6eca6a330645775e0dd1c34f10ea1afa496958f9dce5a9ebd75a27d48",
      "blockHash": "0x20a72152518b580e37b9e45a961d7af18ab24eaaf0b9930b21822308c5f1b676",
      "blockNumber": 82134,
      "transactionIndex": 0,
      "confirmations": null,
      "from": "0xA10C59651885FeAaac91F871082a23BBbaBeDfCf",
      "gasPrice": {
        "_hex": "0xffa10faa94"
      },
      "gasLimit": {
        "_hex": "0x5208"
      },
      "to": "0x4c74B6F32c9680aCB5Fe0e72B7Aa95C612540A04",
      "value": {
        "_hex": "0x1158e460913d00000"
      },
      "nonce": 24,
      "data": "0x",
      "r": "0xb6a4f3778eb4539fd02fd44be273a393e28966eb45f9c7382aae1d275e3ceab5",
      "s": "0x0ffd7b094ec38659f005631b702cf6b676b98de617c6c98f582a9de9472f24d5",
      "v": 27,
      "creates": null,
      "raw": "0xf86d1885ffa10faa94825208944c74b6f32c9680acb5fe0e72b7aa95c612540a048901158e460913d00000801ba0b6a4f3778eb4539fd02fd44be273a393e28966eb45f9c7382aae1d275e3ceab5a00ffd7b094ec38659f005631b702cf6b676b98de617c6c98f582a9de9472f24d5",
      "networkId": 0,
      "chainId": 0
    }
  ]
}