{
  "hash": "0x141cb27f7517d69b5882c960305094e2127f9fbec80a82e57b6ffbe3155f3b44",
  "parentHash": "0x158178c5e20c6a790963246eb27e1d2587f960327d5a2eb56687cd311045b347",
  "number": 94769,
  "timestamp": 1439713900,
  "nonce": "0xfeb09c3e9b7ee4db",
  "difficulty": 3484820407424,
  "gasLimit": {
    "_hex": "0x2fefd8"
  },
  "gasUsed": {
    "_hex": "0x5208"
  },
  "miner": "0xbb7B8287f3F0a933474a79eAe42CBCa977791171",
  "extraData": "0x476574682f4c5649562f76312e302e312f6c696e75782f676f312e342e32",
  "transactions": [
    {
      "hash": "0x64b7a80f87e5b95ab79be9b900e52b4b09fc7cce0610c21f35639f3b4e4fb98c",
      "blockHash": "0x141cb27f7517d69b5882c960305094e2127f9fbec80a82e57b6ffbe3155f3b44",
      "blockNumber": 94769,
      "transactionIndex": 0,
      "confirmations": null,
      "from": "0x233b4fC39b20bb5eCf29882D7F068544BCc5eB78",
      "gasPrice": {
        "_hex": "0xdb04e5b9f"
      },
      "gasLimit": {
        "_hex": "0x5208"
      },
      "to": "0x32Be343B94f860124dC4fEe278FDCBD38C102D88",
      "value": {
        "_hex": "0x12f0b6c0f04fd5000"
      },
      "nonce": 2,
      "data": "0x",
      "r": "0x4ff7fe03af1458c5e05402884c31c6e02ad69424fb8d2f27be6864820b8ada45",
      "s": "0x4eef221ac2d456dbcf07208dded104870a9e35c8e0fcb9496fec11789a8f83fc",
      "v": 28,
      "creates": null,
      "raw": "0xf86d02850db04e5b9f8252089432be343b94f860124dc4fee278fdcbd38c102d8889012f0b6c0f04fd5000801ca04ff7fe03af1458c5e05402884c31c6e02ad69424fb8d2f27be6864820b8ada45a04eef221ac2d456dbcf07208dded104870a9e35c8e0fcb9496fec11789a8f83fc",
      "networkId": 0,
      "chainId": 0
    }
  ]
}