{
  "hash": "0xb051278d6e97b4f35c64e7ba30fe9eca8f69ccbcba5476392a348fffef2e6938",
  "parentHash": "0xe3a605569bcf8dfe2464fa3b0076acb0c866b1cb3b5cd885184bde9b4362dbdc",
  "number": 111056,
  "timestamp": 1439983975,
  "nonce": "0xf6ca62951042c85c",
  "difficulty": 4407428324300,
  "gasLimit": {
    "_hex": "0x2fefd8"
  },
  "gasUsed": {
    "_hex": "0x5208"
  },
  "miner": "0xe6A7a1d47ff21B6321162AEA7C6CB457D5476Bca",
  "extraData": "0x476574682f76312e302e312d38326566323666362f6c696e75782f676f312e34",
  "transactions": [
    {
      "hash": "0xb2322d3b0294223bd0f665000280990c515b290d6ab66ce451f031288a31c616",
      "blockHash": "0xb051278d6e97b4f35c64e7ba30fe9eca8f69ccbcba5476392a348fffef2e6938",
      "blockNumber": 111056,
      "transactionIndex": 0,
      "confirmations": null,
      "from": "0xb1abce2918E21ddb93AA452731a12672A3d9F75a",
      "gasPrice": {
        "_hex": "0xd03d3f96e"
      },
      "gasLimit": {
        "_hex": "0x5208"
      },
      "to": "0x32Be343B94f860124dC4fEe278FDCBD38C102D88",
      "value": {
        "_hex": "0x455f65e15c973400"
      },
      "nonce": 175,
      "data": "0x",
      "r": "0xce720a8f88eb3715120d2c43a6a3f6ddec49996e29a540914216e8ff669b59eb",
      "s": "0x6d016437b1f3a8c4b862b7f234ebaf54fcc471c10502dc7ea77d13bf731ba07d",
      "v": 28,
      "creates": null,
      "raw": "0xf86d81af850d03d3f96e8252089432be343b94f860124dc4fee278fdcbd38c102d8888455f65e15c973400801ca0ce720a8f88eb3715120d2c43a6a3f6ddec49996e29a540914216e8ff669b59eba06d016437b1f3a8c4b862b7f234ebaf54fcc471c10502dc7ea77d13bf731ba07d",
      "networkId": 0,
      "chainId": 0
    }
  ]
}