{
  "hash": "0x132eb608f52ab7634a3d93f66831647b384bfd27b69dc4f1283b603755266190",
  "parentHash": "0x02bf0de34a80fc64412d2c87b583e870de2a688ae0c431bc3bde6c08dd395fb5",
  "number": 55672,
  "timestamp": 1439074823,
  "nonce": "0x2c8bb7d51aabc9a9",
  "difficulty": 1613127483466,
  "gasLimit": {
    "_hex": "0x2fefd8"
  },
  "gasUsed": {
    "_hex": "0x5208"
  },
  "miner": "0x3F98e477a361F777DA14611a7e419A75Fd238b6b",
  "extraData": "0x476574682f76312e302e312f6c696e75782f676f312e342e32",
  "transactions": [
    {
      "hash": "0x62cb8046eb5ba222c4ccbd6c9ba60405233a10b488ad2213df8917c304442e2b",
      "blockHash": "0x132eb608f52ab7634a3d93f66831647b384bfd27b69dc4f1283b603755266190",
      "blockNumber": 55672,
      "transactionIndex": 0,
      "confirmations": null,
      "from": "0x32Be343B94f860124dC4fEe278FDCBD38C102D88",
      "gasPrice": {
        "_hex": "0xd91923b42"
      },
      "gasLimit": {
        "_hex": "0x5208"
      },
      "to": "0xb794F5eA0ba39494cE839613fffBA74279579268",
      "value": {
        "_hex": "0x130ee8e7179044000000"
      },
      "nonce": 72,
      "data": "0x",
      "r": "0xec43da313525d2192b24d8492bcff06c3ff5cf5cfd256ddd15cca93f4836aa1c",
      "s": "0x3be1ed4dfd15ad27f413bb7c53048b7df57ad64b9344e7d0d1b3e5308b575901",
      "v": 27,
      "creates": null,
      "raw": "0xf86e48850d91923b4282520894b794f5ea0ba39494ce839613fffba742795792688a130ee8e7179044000000801ba0ec43da313525d2192b24d8492bcff06c3ff5cf5cfd256ddd15cca93f4836aa1ca03be1ed4dfd15ad27f413bb7c53048b7df57ad64b9344e7d0d1b3e5308b575901",
      "networkId": 0,
      "chainId": 0
    }
  ]
}