{
  "hash": "0x3d4793173dfcdc58316dc27ad2c580f472928fdc6744b4d825fd90971f06d24e",
  "parentHash": "0xc034e1c19035d2b5144f1898724d324da2823d0329515dc7389f6f9009b39d96",
  "number": 67465,
  "timestamp": 1439272577,
  "nonce": "0x73201c393710a6a3",
  "difficulty": 1919494707632,
  "gasLimit": {
    "_hex": "0x2fefd8"
  },
  "gasUsed": {
    "_hex": "0x5208"
  },
  "miner": "0xf927a40C8B7F6E07c5af7FA2155B4864a4112B13",
  "extraData": "0x",
  "transactions": [
    {
      "hash": "0x8aa288b6ef5f18a32a81c34daf43d6d861a61a87b408c96125799254a03455bb",
      "blockHash": "0x3d4793173dfcdc58316dc27ad2c580f472928fdc6744b4d825fd90971f06d24e",
      "blockNumber": 67465,
      "transactionIndex": 0,
      "confirmations": null,
      "from": "0x01Ad0ACFf478127D9d702B1A13599D706cB759b1",
      "gasPrice": {
        "_hex": "0xd34b036d4"
      },
      "gasLimit": {
        "_hex": "0x5208"
      },
      "to": "0x32Be343B94f860124dC4fEe278FDCBD38C102D88",
      "value": {
        "_hex": "0x5f52e94fa6968c00"
      },
      "nonce": 7,
      "data": "0x",
      "r": "0xfa84117bfeec1ff141829bc152834a2e3c390df0b33792dbb44426c5b9d4163b",
      "s": "0x33e21c09f71b8a8fa7e7cb2c81f188c48bb5f0fe5561c1615b012c6e1e463afa",
      "v": 27,
      "creates": null,
      "raw": "0xf86c07850d34b036d48252089432be343b94f860124dc4fee278fdcbd38c102d88885f52e94fa6968c00801ba0fa84117bfeec1ff141829bc152834a2e3c390df0b33792dbb44426c5b9d4163ba033e21c09f71b8a8fa7e7cb2c81f188c48bb5f0fe5561c1615b012c6e1e463afa",
      "networkId": 0,
      "chainId": 0
    }
  ]
}