{
  "hash": "0x61c85f325c5382bfb87b8590e05af875e864779c0cd3aae01059e8fba27fdb2e",
  "parentHash": "0x49f465c46b1cb4cd0b513eec50918df540ac4b14d95a645620700e03868794a3",
  "number": 54339,
  "timestamp": 1439052551,
  "nonce": "0xed9aa541fff43a46",
  "difficulty": 1606309329160,
  "gasLimit": {
    "_hex": "0x2fefd8"
  },
  "gasUsed": {
    "_hex": "0x546c"
  },
  "miner": "0x0193d941b50d91BE6567c7eE1C0Fe7AF498b4137",
  "extraData": "0x4a5ace9e4e",
  "transactions": [
    {
      "hash": "0x2b3747e5b53a19f10e8c61bb0d20814090081255912bc2c21b06d28b2bf9513e",
      "blockHash": "0x61c85f325c5382bfb87b8590e05af875e864779c0cd3aae01059e8fba27fdb2e",
      "blockNumber": 54339,
      "transactionIndex": 0,
      "confirmations": null,
      "from": "0x72D069e30Bd70282AcB6D74c2eBcc089e9C93277",
      "gasPrice": {
        "_hex": "0x9184e72a000"
      },
      "gasLimit": {
        "_hex": "0x99406"
      },
      "to": "0x2910543Af39abA0Cd09dBb2D50200b3E800A63D2",
      "value": {
        "_hex": "0xde0b6b3a7640000"
      },
      "nonce": 0,
      "data": "0x454e32544635393930",
      "r": "0x74848c571dd81f676b4981af2b34023ce57d39b372515666fe2670a783cbaa39",
      "s": "0x37b848904a055356094a816935ba1c63406dc80605e32dc012c9b5ce48e503b0",
      "v": 27,
      "creates": null,
      "raw": "0xf877808609184e72a00083099406942910543af39aba0cd09dbb2d50200b3e800a63d2880de0b6b3a764000089454e325446353939301ba074848c571dd81f676b4981af2b34023ce57d39b372515666fe2670a783cbaa39a037b848904a055356094a816935ba1c63406dc80605e32dc012c9b5ce48e503b0",
      "networkId": 0,
      "chainId": 0
    }
  ]
}