{
  "hash": "0xd6dbfef08591adb5e36f75cdda2208bc6d38dea390f40622940de32ecfc465e9",
  "parentHash": "0xe8fb7f7fd1d22769fbce00fc89b1d769af56a3657aad01949da72ce7d30544cf",
  "number": 79765,
  "timestamp": 1439474774,
  "nonce": "0xeee04a64cd454a96",
  "difficulty": 2348368237356,
  "gasLimit": {
    "_hex": "0x2fefd8"
  },
  "gasUsed": {
    "_hex": "0x5208"
  },
  "miner": "0xe090Ffdced499691fA9379752a59F8A058c1eE4A",
  "extraData": "0x476574682f76312e302e312f6c696e75782f676f312e342e32",
  "transactions": [
    {
      "hash": "0x60d2e8ddeda0b60557019049a7c3d57cd9ee41b6cdf12e4422d285b4bc776afd",
      "blockHash": "0xd6dbfef08591adb5e36f75cdda2208bc6d38dea390f40622940de32ecfc465e9",
      "blockNumber": 79765,
      "transactionIndex": 0,
      "confirmations": null,
      "from": "0xf747F959535B01d4BfDAB64A40DB48D0D6c68edb",
      "gasPrice": {
        "_hex": "0xba43b7400"
      },
      "gasLimit": {
        "_hex": "0x5208"
      },
      "to": "0xC47Aaa860008be6f65B58c6C6E02a84e666EfE31",
      "value": {
        "_hex": "0xdb259cbc11238f0"
      },
      "nonce": 0,
      "data": "0x",
      "r": "0x7049b6bbb75cdfb6456d130e77fe40d845339a5d6a8ef9b32f645b30ad4e8425",
      "s": "0x73c4ad8e91a0b3c9a79122817ec8d5ce22845be472d86ed2b879dd2ffc63aace",
      "v": 27,
      "creates": null,
      "raw": "0xf86c80850ba43b740082520894c47aaa860008be6f65b58c6c6e02a84e666efe31880db259cbc11238f0801ba07049b6bbb75cdfb6456d130e77fe40d845339a5d6a8ef9b32f645b30ad4e8425a073c4ad8e91a0b3c9a79122817ec8d5ce22845be472d86ed2b879dd2ffc63aace",
      "networkId": 0,
      "chainId": 0
    }
  ]
}