{
  "hash": "0x9c309f5344ae719eb91b74c6ca32e3f6119c7f835caf5dd2b115f5cedb3f44cf",
  "parentHash": "0xdb1675fa1437866bfe5c6e9a67b8e5fd316f2c8a9a0134bef9c690ef48ada6a9",
  "number": 66890,
  "timestamp": 1439262083,
  "nonce": "0xdcdc6565caf56c3b",
  "difficulty": 1950808312987,
  "gasLimit": {
    "_hex": "0x2fefd8"
  },
  "gasUsed": {
    "_hex": "0xa410"
  },
  "miner": "0x123843545FB525C8E134c9A5F15ADA6865cc3848",
  "extraData": "0x476574682f76312e302e312f77696e646f77732f676f312e342e32",
  "transactions": [
    {
      "hash": "0x566b7793f151a37e71a3f55dcd66d25b2cb22de81632a043314cb69da4bebbb5",
      "blockHash": "0x9c309f5344ae719eb91b74c6ca32e3f6119c7f835caf5dd2b115f5cedb3f44cf",
      "blockNumber": 66890,
      "transactionIndex": 0,
      "confirmations": null,
      "from": "0x0d187496799a43E7c43e4324026E32d1Dc80D8E4",
      "gasPrice": {
        "_hex": "0x746a528800"
      },
      "gasLimit": {
        "_hex": "0x5b04"
      },
      "to": "0x24307B6ddeB2aA6676D5E5019f501eEDAbe52A83",
      "value": {
        "_hex": "0xde0b6b3a7640000"
      },
      "nonce": 0,
      "data": "0x",
      "r": "0x4b70e4dbbe2bd2d444af9117ce6731887bb2b4fe0a77316390cd83844e7f29dc",
      "s": "0x13669377322436151c11f8635180ad7729bf400559da09f9151787d978d01889",
      "v": 28,
      "creates": null,
      "raw": "0xf86c8085746a528800825b049424307b6ddeb2aa6676d5e5019f501eedabe52a83880de0b6b3a7640000801ca04b70e4dbbe2bd2d444af9117ce6731887bb2b4fe0a77316390cd83844e7f29dca013669377322436151c11f8635180ad7729bf400559da09f9151787d978d01889",
      "networkId": 0,
      "chainId": 0
    },
    {
      "hash": "0xfdef104e30eedf99385f0f8ccef8e952115b9a7516adc26e7bd306a0bb0a2967",
      "blockHash": "0x9c309f5344ae719eb91b74c6ca32e3f6119c7f835caf5dd2b115f5cedb3f44cf",
      "blockNumber": 66890,
      "transactionIndex": 1,
      "confirmations": null,
      "from": "0x00818287ff6BA78A461D21bD5832891592dc6C6B",
      "gasPrice": {
        "_hex": "0xba43b7400"
      },
      "gasLimit": {
        "_hex": "0x5208"
      },
      "to": "0x00cDBe22d1E508635F75Ee617b459595072c9229",
      "value": {
        "_hex": "0x3ecf4c42b9d600000"
      },
      "nonce": 6,
      "data": "0x",
      "r": "0x4a6ce55f38fbe88142499b2ecf49bd2f6cc877c257e791d0b3de92c4897d0781",
      "s": "0x0634121ae5347a783782e5040e38dbce3974cdb297af0e25cef2ca694152124f",
      "v": 28,
      "creates": null,
      "raw": "0xf86d06850ba43b74008252089400cdbe22d1e508635f75ee617b459595072c92298903ecf4c42b9d600000801ca04a6ce55f38fbe88142499b2ecf49bd2f6cc877c257e791d0b3de92c4897d0781a00634121ae5347a783782e5040e38dbce3974cdb297af0e25cef2ca694152124f",
      "networkId": 0,
      "chainId": 0
    }
  ]
}