{
  "hash": "0xe0d415e0556327f41572bd7676831fe4cc98fe91ecb97b2b83a2a9e627c6a862",
  "parentHash": "0xb49eb7124d4ec7a5aa2e398529b86dcf7ca38a1213c9fb93fdd4d2c53f866f16",
  "number": 77713,
  "timestamp": 1439441635,
  "nonce": "0xd371a102f9107cd9",
  "difficulty": 2272231094387,
  "gasLimit": {
    "_hex": "0x2fefd8"
  },
  "gasUsed": {
    "_hex": "0x5208"
  },
  "miner": "0xbb7B8287f3F0a933474a79eAe42CBCa977791171",
  "extraData": "0x476574682f4c5649562f76312e302e312f6c696e75782f676f312e342e32",
  "transactions": [
    {
      "hash": "0xd36c04d8fddb3795d5a1965fd5c112cdbd55b779ab041bc68cec6c9034664ebe",
      "blockHash": "0xe0d415e0556327f41572bd7676831fe4cc98fe91ecb97b2b83a2a9e627c6a862",
      "blockNumber": 77713,
      "transactionIndex": 0,
      "confirmations": null,
      "from": "0x8178414Ff0aba7fD5bC60A72cB17e213b371F35C",
      "gasPrice": {
        "_hex": "0xba43b7400"
      },
      "gasLimit": {
        "_hex": "0x9965e"
      },
      "to": "0x9653c9859b18f8777Fe4eEc9a67c9F64F3D6F62a",
      "value": {
        "_hex": "0x3e8"
      },
      "nonce": 0,
      "data": "0x",
      "r": "0xdba623300d4ce47b2f0f715bb03704c74bdab77628b61ec20eed116e23840f30",
      "s": "0x5ba69e232dae02ca00eaa430e649b1bf16fbdcbf715b54ce998b420f27a8d969",
      "v": 27,
      "creates": null,
      "raw": "0xf86780850ba43b74008309965e949653c9859b18f8777fe4eec9a67c9f64f3d6f62a8203e8801ba0dba623300d4ce47b2f0f715bb03704c74bdab77628b61ec20eed116e23840f30a05ba69e232dae02ca00eaa430e649b1bf16fbdcbf715b54ce998b420f27a8d969",
      "networkId": 0,
      "chainId": 0
    }
  ]
}