{
  "hash": "0xb31f7003ba0ebd934c00aad1ac447e93a3ce4ccf830a1e5c6e3adc8c9e068c3d",
  "parentHash": "0x3ec04cb06df1e9da85376d05eb2199611568ac032955afaa3e8e026554d46fa7",
  "number": 56561,
  "timestamp": 1439089133,
  "nonce": "0x8a887a35878c1666",
  "difficulty": 1663344900251,
  "gasLimit": {
    "_hex": "0x2fefd2"
  },
  "gasUsed": {
    "_hex": "0xa410"
  },
  "miner": "0xeB1325C8D9d3ea8D74aC11F4B00F1B2367686319",
  "extraData": "0x476574682f76312e302e312f77696e646f77732f676f312e342e32",
  "transactions": [
    {
      "hash": "0x0afdd8feb16eaffb641ed4264ffe2d2cc746b50cc78961af9a9e283022c56061",
      "blockHash": "0xb31f7003ba0ebd934c00aad1ac447e93a3ce4ccf830a1e5c6e3adc8c9e068c3d",
      "blockNumber": 56561,
      "transactionIndex": 0,
      "confirmations": null,
      "from": "0x1308A2e95c0160B90803ddCA9B9a5bb55E416d79",
      "gasPrice": {
        "_hex": "0xe8d4a51000"
      },
      "gasLimit": {
        "_hex": "0x15f90"
      },
      "to": "0x7266c8FD66eD582bEA23bd8BC48E58D7f17321F3",
      "value": {
        "_hex": "0x56bc75e2d63100000"
      },
      "nonce": 68,
      "data": "0x",
      "r": "0xfd0e3b337693c6ba949534e862a376bbcb423bf23b05672d6148cdfd8cbff7cb",
      "s": "0x4bd558634892e0d5582dd14dd22376f9f18de8647ad5e135a4ebba698cd6e7f9",
      "v": 27,
      "creates": null,
      "raw": "0xf86e4485e8d4a5100083015f90947266c8fd66ed582bea23bd8bc48e58d7f17321f389056bc75e2d63100000801ba0fd0e3b337693c6ba949534e862a376bbcb423bf23b05672d6148cdfd8cbff7cba04bd558634892e0d5582dd14dd22376f9f18de8647ad5e135a4ebba698cd6e7f9",
      "networkId": 0,
      "chainId": 0
    },
    {
      "hash": "0x6c421ded2537f7f7f1810d16f6553c1060ac79370ac505f2c37830063cc7980e",
      "blockHash": "0xb31f7003ba0ebd934c00aad1ac447e93a3ce4ccf830a1e5c6e3adc8c9e068c3d",
      "blockNumber": 56561,
      "transactionIndex": 1,
      "confirmations": null,
      "from": "0x1308A2e95c0160B90803ddCA9B9a5bb55E416d79",
      "gasPrice": {
        "_hex": "0xe8d4a51000"
      },
      "gasLimit": {
        "_hex": "0x15f90"
      },
      "to": "0x7266c8FD66eD582bEA23bd8BC48E58D7f17321F3",
      "value": {
        "_hex": "0x56bc75e2d63100000"
      },
      "nonce": 69,
      "data": "0x",
      "r": "0x42b6b317dcf7ffb0bde574be529d1085ae30a41d8c6d0728287308d7af4ffce2",
      "s": "0x01356d393baf4f3452ee412809a266481e335c1f5452e631fd9f6572af5ecd8f",
      "v": 27,
      "creates": null,
      "raw": "0xf86e4585e8d4a5100083015f90947266c8fd66ed582bea23bd8bc48e58d7f17321f389056bc75e2d63100000801ba042b6b317dcf7ffb0bde574be529d1085ae30a41d8c6d0728287308d7af4ffce2a001356d393baf4f3452ee412809a266481e335c1f5452e631fd9f6572af5ecd8f",
      "networkId": 0,
      "chainId": 0
    }
  ]
}