{
  "hash": "0xe0bddbe2feca22a13ea348ac35e5c555b0eb291d2db005ae8982fa0fe08b991d",
  "parentHash": "0x0f8870ce66b7a5718ccd2287690d7288b6480d9c43c143685298bc5c62d98624",
  "number": 98706,
  "timestamp": 1439777773,
  "nonce": "0x9b4fb55f69957dc0",
  "difficulty": 3827399043344,
  "gasLimit": {
    "_hex": "0x2fefd8"
  },
  "gasUsed": {
    "_hex": "0x5208"
  },
  "miner": "0x55bAf64fc9eAccFFd7Cc643BB61142E1C6ac093e",
  "extraData": "0x",
  "transactions": [
    {
      "hash": "0xb127f7457dc5a8a3e0c60be3070a8c93cf5ec0f498779a6157d64f7c11a3baa8",
      "blockHash": "0xe0bddbe2feca22a13ea348ac35e5c555b0eb291d2db005ae8982fa0fe08b991d",
      "blockNumber": 98706,
      "transactionIndex": 0,
      "confirmations": null,
      "from": "0xD9666150A9dA92d9108198a4072970805a8B3428",
      "gasPrice": {
        "_hex": "0xceb51f136"
      },
      "gasLimit": {
        "_hex": "0x5208"
      },
      "to": "0x32Be343B94f860124dC4fEe278FDCBD38C102D88",
      "value": {
        "_hex": "0x11813cbe9c0d000"
      },
      "nonce": 30,
      "data": "0x",
      "r": "0xff7ff5e6e7707e973df65645aba8ec234e920a9005d6c7ea7c9b8f23b015f92a",
      "s": "0x3ff28b088015afa76b52295945d225e0e66052d14f5fab9de8a07cd5e09767d3",
      "v": 28,
      "creates": null,
      "raw": "0xf86c1e850ceb51f1368252089432be343b94f860124dc4fee278fdcbd38c102d8888011813cbe9c0d000801ca0ff7ff5e6e7707e973df65645aba8ec234e920a9005d6c7ea7c9b8f23b015f92aa03ff28b088015afa76b52295945d225e0e66052d14f5fab9de8a07cd5e09767d3",
      "networkId": 0,
      "chainId": 0
    }
  ]
}