{
  "hash": "0x97e6cfdde88e4dd6da5eecc18534f9683f68503b429420fd838b8d45ffa854e1",
  "parentHash": "0x33bdc23b026d6b14fa4a4a20d6443bfcf668efdb8678fcdb41aff0b082f227fe",
  "number": 69264,
  "timestamp": 1439300778,
  "nonce": "0xdf7ed1ecd948c2cc",
  "difficulty": 2069963802665,
  "gasLimit": {
    "_hex": "0x2fefd8"
  },
  "gasUsed": {
    "_hex": "0x70cb0"
  },
  "miner": "0xe6A7a1d47ff21B6321162AEA7C6CB457D5476Bca",
  "extraData": "0x476574682f76312e302e312d38326566323666362f6c696e75782f676f312e34",
  "transactions": [
    {
      "hash": "0x622350d027c43baf83d78bd858642bd06103169df6fc011b2dfd08f55cb3e184",
      "blockHash": "0x97e6cfdde88e4dd6da5eecc18534f9683f68503b429420fd838b8d45ffa854e1",
      "blockNumber": 69264,
      "transactionIndex": 0,
      "confirmations": null,
      "from": "0xe6A7a1d47ff21B6321162AEA7C6CB457D5476Bca",
      "gasPrice": {
        "_hex": "0xcde4d1488"
      },
      "gasLimit": {
        "_hex": "0x55f0"
      },
      "to": "0xA56697139eB8704667673Af60c361AF8C32694E3",
      "value": {
        "_hex": "0x113878d8a4761ef4"
      },
      "nonce": 523,
      "data": "0x",
      "r": "0x85b6c8e3c34776993dda1627cd97f9d98a2c1e02e1eff425ceb69c7c388d02ca",
      "s": "0x7320759f71de1f4a257971ec47b121733ff7d2be79eeb6e094bf0f1366c3d7b6",
      "v": 28,
      "creates": null,
      "raw": "0xf86e82020b850cde4d14888255f094a56697139eb8704667673af60c361af8c32694e388113878d8a4761ef4801ca085b6c8e3c34776993dda1627cd97f9d98a2c1e02e1eff425ceb69c7c388d02caa07320759f71de1f4a257971ec47b121733ff7d2be79eeb6e094bf0f1366c3d7b6",
      "networkId": 0,
      "chainId": 0
    },
    {
      "hash": "0x6d93f11a8f73ce18e7821b8c3978e074892e75bf2dbafbd16c3c5d081fb77bae",
      "blockHash": "0x97e6cfdde88e4dd6da5eecc18534f9683f68503b429420fd838b8d45ffa854e1",
      "blockNumber": 69264,
      "transactionIndex": 1,
      "confirmations": null,
      "from": "0xe6A7a1d47ff21B6321162AEA7C6CB457D5476Bca",
      "gasPrice": {
        "_hex": "0xcde4d1488"
      },
      "gasLimit": {
        "_hex": "0x55f0"
      },
      "to": "0x9FA0960220d2d51D54f755501E391Da140c2EF63",
      "value": {
        "_hex": "0x1152c3ac14027fa0"
      },
      "nonce": 524,
      "data": "0x",
      "r": "0x8534e95a5910a825644bb67fdfb4a69f2d14ade9428aea7b17792b5a6d59f804",
      "s": "0x28ce6a53e2af28e694a9edebf17f0e25f9ac779fb5f4aee5b3f82ce671434bc5",
      "v": 27,
      "creates": null,
      "raw": "0xf86e82020c850cde4d14888255f0949fa0960220d2d51d54f755501e391da140c2ef63881152c3ac14027fa0801ba08534e95a5910a825644bb67fdfb4a69f2d14ade9428aea7b17792b5a6d59f804a028ce6a53e2af28e694a9edebf17f0e25f9ac779fb5f4aee5b3f82ce671434bc5",
      "networkId": 0,
      "chainId": 0
    },
    {
      "hash": "0x74f9bdfc539d6a5cf4d9b9d6dd42fee3d211d3c33e2ab3f3f06980e87d1a1fef",
      "blockHash": "0x97e6cfdde88e4dd6da5eecc18534f9683f68503b429420fd838b8d45ffa854e1",
      "blockNumber": 69264,
      "transactionIndex": 2,
      "confirmations": null,
      "from": "0xe6A7a1d47ff21B6321162AEA7C6CB457D5476Bca",
      "gasPrice": {
        "_hex": "0xcde4d1488"
      },
      "gasLimit": {
        "_hex": "0x55f0"
      },
      "to": "0xCE09fD3E23b65BaD12809190a19b6BFCFfD48c35",
      "value": {
        "_hex": "0x11fc0b715c9c14b8"
      },
      "nonce": 525,
      "data": "0x",
      "r": "0xbb49d1b40f058c9512826c9cc3221a08e9d689fce388120295758d5e02f617d1",
      "s": "0x30d9fda147b9f37c772b36c6907e085aa05b3ee716f7e6e2acb1cdccd6567a01",
      "v": 28,
      "creates": null,
      "raw": "0xf86e82020d850cde4d14888255f094ce09fd3e23b65bad12809190a19b6bfcffd48c358811fc0b715c9c14b8801ca0bb49d1b40f058c9512826c9cc3221a08e9d689fce388120295758d5e02f617d1a030d9fda147b9f37c772b36c6907e085aa05b3ee716f7e6e2acb1cdccd6567a01",
      "networkId": 0,
      "chainId": 0
    },
    {
      "hash": "0xb273df68271dfff55ee299bcf4e4ceca24489f563eed2d87def33ff5076555f3",
      "blockHash": "0x97e6cfdde88e4dd6da5eecc18534f9683f68503b429420fd838b8d45ffa854e1",
      "blockNumber": 69264,
      "transactionIndex": 3,
      "confirmations": null,
      "from": "0xe6A7a1d47ff21B6321162AEA7C6CB457D5476Bca",
      "gasPrice": {
        "_hex": "0xcde4d1488"
      },
      "gasLimit": {
        "_hex": "0x55f0"
      },
      "to": "0xcCF7110d1Bd9A74bfd1d7d7d2d9D55607E7B837d",
      "value": {
        "_hex": "0x12204ed21d5e32e0"
      },
      "nonce": 526,
      "data": "0x",
      "r": "0x99e97e805b137eb3be661d900ac06a4cb3f878dafabeceafa77268c9422bc8f8",
      "s": "0x5cf6f23d475414f897a9ffe765d537a8d85686c90e4962181d20c7f94bd2025c",
      "v": 27,
      "creates": null,
      "raw": "0xf86e82020e850cde4d14888255f094ccf7110d1bd9a74bfd1d7d7d2d9d55607e7b837d8812204ed21d5e32e0801ba099e97e805b137eb3be661d900ac06a4cb3f878dafabeceafa77268c9422bc8f8a05cf6f23d475414f897a9ffe765d537a8d85686c90e4962181d20c7f94bd2025c",
      "networkId": 0,
      "chainId": 0
    },
    {
      "hash": "0x0a1cce3d4f0b82d9fcba02df8f03b32002a4a672bdd7a56f3a5b110820098110",
      "blockHash": "0x97e6cfdde88e4dd6da5eecc18534f9683f68503b429420fd838b8d45ffa854e1",
      "blockNumber": 69264,
      "transactionIndex": 4,
      "confirmations": null,
      "from": "0xe6A7a1d47ff21B6321162AEA7C6CB457D5476Bca",
      "gasPrice": {
        "_hex": "0xcbebddf65"
      },
      "gasLimit": {
        "_hex": "0x55f0"
      },
      "to": "0x0d187496799a43E7c43e4324026E32d1Dc80D8E4",
      "value": {
        "_hex": "0x12a58d912288d314"
      },
      "nonce": 527,
      "data": "0x",
      "r": "0xdd28c1137d18efc26f5156be5a6ebc174e594ea942fa130421abd015e3fb8441",
      "s": "0x708e15355b5d96e3c5102ab8a23db2409bad5b9e1f674b290154775dcec903e4",
      "v": 28,
      "creates": null,
      "raw": "0xf86e82020f850cbebddf658255f0940d187496799a43e7c43e4324026e32d1dc80d8e48812a58d912288d314801ca0dd28c1137d18efc26f5156be5a6ebc174e594ea942fa130421abd015e3fb8441a0708e15355b5d96e3c5102ab8a23db2409bad5b9e1f674b290154775dcec903e4",
      "networkId": 0,
      "chainId": 0
    },
    {
      "hash": "0xc0ff43d77419ee499f1c0190489149782cc62f8c96a5dd0c5e798d8df5871dc7",
      "blockHash": "0x97e6cfdde88e4dd6da5eecc18534f9683f68503b429420fd838b8d45ffa854e1",
      "blockNumber": 69264,
      "transactionIndex": 5,
      "confirmations": null,
      "from": "0xe6A7a1d47ff21B6321162AEA7C6CB457D5476Bca",
      "gasPrice": {
        "_hex": "0xcbebddf65"
      },
      "gasLimit": {
        "_hex": "0x55f0"
      },
      "to": "0x139961171236F8260f7D28B94b5a7352Bb114F80",
      "value": {
        "_hex": "0x13477de7fe752510"
      },
      "nonce": 528,
      "data": "0x",
      "r": "0x9d533fe2ee27328dcd7ccacf2daaa9d8b1661e4d1d8bad98a36ff1f436577700",
      "s": "0x422de3d32564e31b236c032e0489c84cbb2411d6e1cdc62b1b4daa89f423cbe4",
      "v": 27,
      "creates": null,
      "raw": "0xf86e820210850cbebddf658255f094139961171236f8260f7d28b94b5a7352bb114f808813477de7fe752510801ba09d533fe2ee27328dcd7ccacf2daaa9d8b1661e4d1d8bad98a36ff1f436577700a0422de3d32564e31b236c032e0489c84cbb2411d6e1cdc62b1b4daa89f423cbe4",
      "networkId": 0,
      "chainId": 0
    },
    {
      "hash": "0x3d84c1fec6f0e71e191e79a13b60951810e816ab4ae8586675e254152b2e3bd8",
      "blockHash": "0x97e6cfdde88e4dd6da5eecc18534f9683f68503b429420fd838b8d45ffa854e1",
      "blockNumber": 69264,
      "transactionIndex": 6,
      "confirmations": null,
      "from": "0xe6A7a1d47ff21B6321162AEA7C6CB457D5476Bca",
      "gasPrice": {
        "_hex": "0xcbebddf65"
      },
      "gasLimit": {
        "_hex": "0x55f0"
      },
      "to": "0xabceA603089850F8f6bB612A9031554D90A247CF",
      "value": {
        "_hex": "0x13893f4655fc1c88"
      },
      "nonce": 529,
      "data": "0x",
      "r": "0xe470884f83444b13d8e496c455cf36abbbf472848a382585415281e4683bbb8b",
      "s": "0x307b9a630c76d00e08662e6e52cace37e1d6cc1033ebbe25f3fb1890c52ce4f0",
      "v": 28,
      "creates": null,
      "raw": "0xf86e820211850cbebddf658255f094abcea603089850f8f6bb612a9031554d90a247cf8813893f4655fc1c88801ca0e470884f83444b13d8e496c455cf36abbbf472848a382585415281e4683bbb8ba0307b9a630c76d00e08662e6e52cace37e1d6cc1033ebbe25f3fb1890c52ce4f0",
      "networkId": 0,
      "chainId": 0
    },
    {
      "hash": "0xab81a5099f1b501199bea948debc6d9f2d1def973f997ea43f0bd0f1fb2ddd28",
      "blockHash": "0x97e6cfdde88e4dd6da5eecc18534f9683f68503b429420fd838b8d45ffa854e1",
      "blockNumber": 69264,
      "transactionIndex": 7,
      "confirmations": null,
      "from": "0xe6A7a1d47ff21B6321162AEA7C6CB457D5476Bca",
      "gasPrice": {
        "_hex": "0xcbebddf65"
      },
      "gasLimit": {
        "_hex": "0x55f0"
      },
      "to": "0x2e1A591a3Bd5FCE3c1E095c205Bd202C29541e70",
      "value": {
        "_hex": "0x13dce608a5f7702c"
      },
      "nonce": 530,
      "data": "0x",
      "r": "0x44c5e791eb9f9c22b4d61a950297fa9a585e772350d3af35fb930c194c2c7bf9",
      "s": "0x1151e6ece40e29e8ddf221ae1e3cc1c3770f4026529b65fa5abe27ab0cb43b44",
      "v": 27,
      "creates": null,
      "raw": "0xf86e820212850cbebddf658255f0942e1a591a3bd5fce3c1e095c205bd202c29541e708813dce608a5f7702c801ba044c5e791eb9f9c22b4d61a950297fa9a585e772350d3af35fb930c194c2c7bf9a01151e6ece40e29e8ddf221ae1e3cc1c3770f4026529b65fa5abe27ab0cb43b44",
      "networkId": 0,
      "chainId": 0
    },
    {
      "hash": "0xd865c155a6492dd99fc074b7796fcca96a20075bcf1eb69d62eba09cb0518779",
      "blockHash": "0x97e6cfdde88e4dd6da5eecc18534f9683f68503b429420fd838b8d45ffa854e1",
      "blockNumber": 69264,
      "transactionIndex": 8,
      "confirmations": null,
      "from": "0xe6A7a1d47ff21B6321162AEA7C6CB457D5476Bca",
      "gasPrice": {
        "_hex": "0xcbebddf65"
      },
      "gasLimit": {
        "_hex": "0x55f0"
      },
      "to": "0x7903428Eb39b4da60a93f8FCB5228b3b431b7B52",
      "value": {
        "_hex": "0x149823510f08ad10"
      },
      "nonce": 531,
      "data": "0x",
      "r": "0xc10f80a6357847e82fc3e0eb15ea6d9564e2f4409d7652c26c1d3eeabe060851",
      "s": "0x65307a9e53cf197681898dac1a3b2dbd0059b4576dcae8d99960571e8e2132a2",
      "v": 28,
      "creates": null,
      "raw": "0xf86e820213850cbebddf658255f0947903428eb39b4da60a93f8fcb5228b3b431b7b5288149823510f08ad10801ca0c10f80a6357847e82fc3e0eb15ea6d9564e2f4409d7652c26c1d3eeabe060851a065307a9e53cf197681898dac1a3b2dbd0059b4576dcae8d99960571e8e2132a2",
      "networkId": 0,
      "chainId": 0
    },
    {
      "hash": "0xbde92f0eb934a374c9467190e8c73b8dfee0c33fc470e46f77621a2df0247292",
      "blockHash": "0x97e6cfdde88e4dd6da5eecc18534f9683f68503b429420fd838b8d45ffa854e1",
      "blockNumber": 69264,
      "transactionIndex": 9,
      "confirmations": null,
      "from": "0xe6A7a1d47ff21B6321162AEA7C6CB457D5476Bca",
      "gasPrice": {
        "_hex": "0xcbebddf65"
      },
      "gasLimit": {
        "_hex": "0x55f0"
      },
      "to": "0xe2073a029bBF0eE2A933ceeFa9b3658973320CA5",
      "value": {
        "_hex": "0x14b46da782acdfe0"
      },
      "nonce": 532,
      "data": "0x",
      "r": "0x73f1e3f4ca61e434eea7ba641c2cd051845d18ce2ddafd4065da156fd444d22e",
      "s": "0x509a8f38c92b1c52f41714d896917c437d6710ba0791f920a42655e49e6baf9d",
      "v": 27,
      "creates": null,
      "raw": "0xf86e820214850cbebddf658255f094e2073a029bbf0ee2a933ceefa9b3658973320ca58814b46da782acdfe0801ba073f1e3f4ca61e434eea7ba641c2cd051845d18ce2ddafd4065da156fd444d22ea0509a8f38c92b1c52f41714d896917c437d6710ba0791f920a42655e49e6baf9d",
      "networkId": 0,
      "chainId": 0
    },
    {
      "hash": "0xf615ebcddbf6fe1e3118e487036cf78bc92239dc46f5b4b40423ec2f1d581df1",
      "blockHash": "0x97e6cfdde88e4dd6da5eecc18534f9683f68503b429420fd838b8d45ffa854e1",
      "blockNumber": 69264,
      "transactionIndex": 10,
      "confirmations": null,
      "from": "0xe6A7a1d47ff21B6321162AEA7C6CB457D5476Bca",
      "gasPrice": {
        "_hex": "0xcbebddf65"
      },
      "gasLimit": {
        "_hex": "0x55f0"
      },
      "to": "0xb6f15735Af04ae6d37B89592E406311A94e4F5f2",
      "value": {
        "_hex": "0x14c14ebcac5e7e04"
      },
      "nonce": 533,
      "data": "0x",
      "r": "0x4b44901b295b43cadb5c2ea6d24c0869984a4292945e652ca02298efbe6124e8",
      "s": "0x4f1da08d4831282bbf31654b21d06b7ec3a90feb4f57b71ea1cb4fb0becc0ce5",
      "v": 27,
      "creates": null,
      "raw": "0xf86e820215850cbebddf658255f094b6f15735af04ae6d37b89592e406311a94e4f5f28814c14ebcac5e7e04801ba04b44901b295b43cadb5c2ea6d24c0869984a4292945e652ca02298efbe6124e8a04f1da08d4831282bbf31654b21d06b7ec3a90feb4f57b71ea1cb4fb0becc0ce5",
      "networkId": 0,
      "chainId": 0
    },
    {
      "hash": "0x722e5db7447100af14cda9e2ec8700a62a37049d763b6dcf79e5a89ff3e131e4",
      "blockHash": "0x97e6cfdde88e4dd6da5eecc18534f9683f68503b429420fd838b8d45ffa854e1",
      "blockNumber": 69264,
      "transactionIndex": 11,
      "confirmations": null,
      "from": "0xe6A7a1d47ff21B6321162AEA7C6CB457D5476Bca",
      "gasPrice": {
        "_hex": "0xcbebddf65"
      },
      "gasLimit": {
        "_hex": "0x55f0"
      },
      "to": "0x91d32201228cd1Dea4e21d71f7A9e0CeF5de4A39",
      "value": {
        "_hex": "0x150da5371eff2b1c"
      },
      "nonce": 534,
      "data": "0x",
      "r": "0x6ef3aee94c18ef5f61ed28ea54be581fb834650ad513d5d7d08bbec2b713e29a",
      "s": "0x5105ad7e605d69119d950fbeb794ba809e4e35cd7f0b7dac0b1b977cef37be56",
      "v": 28,
      "creates": null,
      "raw": "0xf86e820216850cbebddf658255f09491d32201228cd1dea4e21d71f7a9e0cef5de4a3988150da5371eff2b1c801ca06ef3aee94c18ef5f61ed28ea54be581fb834650ad513d5d7d08bbec2b713e29aa05105ad7e605d69119d950fbeb794ba809e4e35cd7f0b7dac0b1b977cef37be56",
      "networkId": 0,
      "chainId": 0
    },
    {
      "hash": "0x563c199ee95b3edae8d4b63a86685c2391c7e31d2e337153a0433e710105f0d4",
      "blockHash": "0x97e6cfdde88e4dd6da5eecc18534f9683f68503b429420fd838b8d45ffa854e1",
      "blockNumber": 69264,
      "transactionIndex": 12,
      "confirmations": null,
      "from": "0xe6A7a1d47ff21B6321162AEA7C6CB457D5476Bca",
      "gasPrice": {
        "_hex": "0xcbebddf65"
      },
      "gasLimit": {
        "_hex": "0x55f0"
      },
      "to": "0x573fA39ba232a67268788CE9D5a7Bd8426856A6d",
      "value": {
        "_hex": "0x150ff5c14681e4e0"
      },
      "nonce": 535,
      "data": "0x",
      "r": "0x30014f85e9d0defc1ec3040e1b2d2b6fb34c9dbc93be443a50db24292843691b",
      "s": "0x3a20e0136079b60cd16bc81967520e5a66309a42f42166b6437a7bcbbc654124",
      "v": 27,
      "creates": null,
      "raw": "0xf86e820217850cbebddf658255f094573fa39ba232a67268788ce9d5a7bd8426856a6d88150ff5c14681e4e0801ba030014f85e9d0defc1ec3040e1b2d2b6fb34c9dbc93be443a50db24292843691ba03a20e0136079b60cd16bc81967520e5a66309a42f42166b6437a7bcbbc654124",
      "networkId": 0,
      "chainId": 0
    },
    {
      "hash": "0xe7a6d465d6c6ae7d8bfc7bb8e32f1e1b7f031118e3dfbad2793c03ed186febbb",
      "blockHash": "0x97e6cfdde88e4dd6da5eecc18534f9683f68503b429420fd838b8d45ffa854e1",
      "blockNumber": 69264,
      "transactionIndex": 13,
      "confirmations": null,
      "from": "0xe6A7a1d47ff21B6321162AEA7C6CB457D5476Bca",
      "gasPrice": {
        "_hex": "0xcbebddf65"
      },
      "gasLimit": {
        "_hex": "0x55f0"
      },
      "to": "0x2AC36246B388F762Fdc3CA30E749A1494fDA99Ee",
      "value": {
        "_hex": "0x15180d5ddfd60458"
      },
      "nonce": 536,
      "data": "0x",
      "r": "0x183510624bf111608505f0203d1f869e4b3aaedfb659abac3f57536b2d0d5f67",
      "s": "0x21f9bf52cd617f73a824584a8a0477ddf7d0133b98f057c95afa6fa0aec7cb1c",
      "v": 27,
      "creates": null,
      "raw": "0xf86e820218850cbebddf658255f0942ac36246b388f762fdc3ca30e749a1494fda99ee8815180d5ddfd60458801ba0183510624bf111608505f0203d1f869e4b3aaedfb659abac3f57536b2d0d5f67a021f9bf52cd617f73a824584a8a0477ddf7d0133b98f057c95afa6fa0aec7cb1c",
      "networkId": 0,
      "chainId": 0
    },
    {
      "hash": "0xb6b25fd3ba97d936f5b25179969f4c5b46bfa8590bf17457560d094a8aa730eb",
      "blockHash": "0x97e6cfdde88e4dd6da5eecc18534f9683f68503b429420fd838b8d45ffa854e1",
      "blockNumber": 69264,
      "transactionIndex": 14,
      "confirmations": null,
      "from": "0xe6A7a1d47ff21B6321162AEA7C6CB457D5476Bca",
      "gasPrice": {
        "_hex": "0xcbebddf65"
      },
      "gasLimit": {
        "_hex": "0x55f0"
      },
      "to": "0x7CdE613438e85F25D299265Ab4bB2b4015fe2BD1",
      "value": {
        "_hex": "0x160febdfe97a7328"
      },
      "nonce": 537,
      "data": "0x",
      "r": "0x89abd21cd0638e2815045aea4e502726200ab0b31a2554c27c014857f419d564",
      "s": "0x0412189260c85421df16f0a5c01b266f2649b5006c060047e1b8a8ad6d8f9356",
      "v": 28,
      "creates": null,
      "raw": "0xf86e820219850cbebddf658255f0947cde613438e85f25d299265ab4bb2b4015fe2bd188160febdfe97a7328801ca089abd21cd0638e2815045aea4e502726200ab0b31a2554c27c014857f419d564a00412189260c85421df16f0a5c01b266f2649b5006c060047e1b8a8ad6d8f9356",
      "networkId": 0,
      "chainId": 0
    },
    {
      "hash": "0x60385b7d7f95985916368822924d7e4b8878ba7f07c3160c5d251a9704b22515",
      "blockHash": "0x97e6cfdde88e4dd6da5eecc18534f9683f68503b429420fd838b8d45ffa854e1",
      "blockNumber": 69264,
      "transactionIndex": 15,
      "confirmations": null,
      "from": "0xe6A7a1d47ff21B6321162AEA7C6CB457D5476Bca",
      "gasPrice": {
        "_hex": "0xcbebddf65"
      },
      "gasLimit": {
        "_hex": "0x55f0"
      },
      "to": "0x908CABeD14f5632705F9D7BdB95d672b164446A8",
      "value": {
        "_hex": "0x165c3ba025d455e4"
      },
      "nonce": 538,
      "data": "0x",
      "r": "0xc117a96b1a111c868ace48f557b2a72a73933f9a45caee0430432a84fb73fc22",
      "s": "0x37e892119ea40aacc808295b316566d2deb66e96ec363aefc5da95e290e66f36",
      "v": 27,
      "creates": null,
      "raw": "0xf86e82021a850cbebddf658255f094908cabed14f5632705f9d7bdb95d672b164446a888165c3ba025d455e4801ba0c117a96b1a111c868ace48f557b2a72a73933f9a45caee0430432a84fb73fc22a037e892119ea40aacc808295b316566d2deb66e96ec363aefc5da95e290e66f36",
      "networkId": 0,
      "chainId": 0
    },
    {
      "hash": "0x01004605fd2660e22d70f149411d51b6dea8e236110a4a8439a266298d7d6171",
      "blockHash": "0x97e6cfdde88e4dd6da5eecc18534f9683f68503b429420fd838b8d45ffa854e1",
      "blockNumber": 69264,
      "transactionIndex": 16,
      "confirmations": null,
      "from": "0xe6A7a1d47ff21B6321162AEA7C6CB457D5476Bca",
      "gasPrice": {
        "_hex": "0xcbebddf65"
      },
      "gasLimit": {
        "_hex": "0x55f0"
      },
      "to": "0x28cF1915522F9744EF20294FAeBe6575e2fd5F38",
      "value": {
        "_hex": "0x16a8c9f26c1d760c"
      },
      "nonce": 539,
      "data": "0x",
      "r": "0x66eb6e98b914fd57da98a286b706f761ea66d000666c8e861d0802d5626ca2d8",
      "s": "0x7afcc874dc3d746737ec693e4a4ffe62e6af10ce45e9ac6a40752025c0e0f090",
      "v": 28,
      "creates": null,
      "raw": "0xf86e82021b850cbebddf658255f09428cf1915522f9744ef20294faebe6575e2fd5f388816a8c9f26c1d760c801ca066eb6e98b914fd57da98a286b706f761ea66d000666c8e861d0802d5626ca2d8a07afcc874dc3d746737ec693e4a4ffe62e6af10ce45e9ac6a40752025c0e0f090",
      "networkId": 0,
      "chainId": 0
    },
    {
      "hash": "0x7e00a7b07668cec1a987ecee9b2f305d06c3fa8dc70a75fcd21d7a00e907abd7",
      "blockHash": "0x97e6cfdde88e4dd6da5eecc18534f9683f68503b429420fd838b8d45ffa854e1",
      "blockNumber": 69264,
      "transactionIndex": 17,
      "confirmations": null,
      "from": "0xe6A7a1d47ff21B6321162AEA7C6CB457D5476Bca",
      "gasPrice": {
        "_hex": "0xcbebddf65"
      },
      "gasLimit": {
        "_hex": "0x55f0"
      },
      "to": "0xaA35779Ef4dfBEd0B3D6F46F5f11cb86261B17A5",
      "value": {
        "_hex": "0x16a971f029dc68d8"
      },
      "nonce": 540,
      "data": "0x",
      "r": "0xc127415858ba05f65aced7804913fd1a1d120ad14ad5da394a27bd2439568e56",
      "s": "0x446a96b8b8661450d1ca0bce23dbe6816ef895f79218909d66aaff2eb79db71e",
      "v": 28,
      "creates": null,
      "raw": "0xf86e82021c850cbebddf658255f094aa35779ef4dfbed0b3d6f46f5f11cb86261b17a58816a971f029dc68d8801ca0c127415858ba05f65aced7804913fd1a1d120ad14ad5da394a27bd2439568e56a0446a96b8b8661450d1ca0bce23dbe6816ef895f79218909d66aaff2eb79db71e",
      "networkId": 0,
      "chainId": 0
    },
    {
      "hash": "0x89316aafb8613da8653eb572ea5e00904d95db4b59d38b4c8a0ea873bfbe19e8",
      "blockHash": "0x97e6cfdde88e4dd6da5eecc18534f9683f68503b429420fd838b8d45ffa854e1",
      "blockNumber": 69264,
      "transactionIndex": 18,
      "confirmations": null,
      "from": "0xe6A7a1d47ff21B6321162AEA7C6CB457D5476Bca",
      "gasPrice": {
        "_hex": "0xcbebddf65"
      },
      "gasLimit": {
        "_hex": "0x55f0"
      },
      "to": "0x94c4f7b5aaF084e74A7611900D93eaDeA47A137F",
      "value": {
        "_hex": "0x16da2b02a1f0fa18"
      },
      "nonce": 541,
      "data": "0x",
      "r": "0xf15924f9cd8aaeb031b52cced8c9c68adf3288a429260091032f4820b5735ade",
      "s": "0x3648dba5825c73c4cb2c4b2169258b91e345e1b9ea19b4cd22c38df460d49ffc",
      "v": 27,
      "creates": null,
      "raw": "0xf86e82021d850cbebddf658255f09494c4f7b5aaf084e74a7611900d93eadea47a137f8816da2b02a1f0fa18801ba0f15924f9cd8aaeb031b52cced8c9c68adf3288a429260091032f4820b5735adea03648dba5825c73c4cb2c4b2169258b91e345e1b9ea19b4cd22c38df460d49ffc",
      "networkId": 0,
      "chainId": 0
    },
    {
      "hash": "0x5d8da67fcfe0429f94a559403aac79723fc17f200eaa932d5153eb154ce06bc4",
      "blockHash": "0x97e6cfdde88e4dd6da5eecc18534f9683f68503b429420fd838b8d45ffa854e1",
      "blockNumber": 69264,
      "transactionIndex": 19,
      "confirmations": null,
      "from": "0xe6A7a1d47ff21B6321162AEA7C6CB457D5476Bca",
      "gasPrice": {
        "_hex": "0xcbebddf65"
      },
      "gasLimit": {
        "_hex": "0x55f0"
      },
      "to": "0xE7bD36a7CF4F1F8896378D41177BEf637075a1eD",
      "value": {
        "_hex": "0x16df72be330ed4e0"
      },
      "nonce": 542,
      "data": "0x",
      "r": "0x5ed1751878c7120e9eff2873938847d019e2c4a727bea6d75f7a2e419a65e7a3",
      "s": "0x47891ef4e266d716983737d53740b647cc2b225ed385d9ac6999e6f29af68aa6",
      "v": 27,
      "creates": null,
      "raw": "0xf86e82021e850cbebddf658255f094e7bd36a7cf4f1f8896378d41177bef637075a1ed8816df72be330ed4e0801ba05ed1751878c7120e9eff2873938847d019e2c4a727bea6d75f7a2e419a65e7a3a047891ef4e266d716983737d53740b647cc2b225ed385d9ac6999e6f29af68aa6",
      "networkId": 0,
      "chainId": 0
    },
    {
      "hash": "0x33c11c2f69367e9c9f30758ba9e98047fa93ba5965a14c39e4dbd2ad1fdb215c",
      "blockHash": "0x97e6cfdde88e4dd6da5eecc18534f9683f68503b429420fd838b8d45ffa854e1",
      "blockNumber": 69264,
      "transactionIndex": 20,
      "confirmations": null,
      "from": "0xe6A7a1d47ff21B6321162AEA7C6CB457D5476Bca",
      "gasPrice": {
        "_hex": "0xcbebddf65"
      },
      "gasLimit": {
        "_hex": "0x55f0"
      },
      "to": "0x90fba3C13F19F8cf72A3Bb9EE63C8f728F548654",
      "value": {
        "_hex": "0x16f717981376b918"
      },
      "nonce": 543,
      "data": "0x",
      "r": "0x7bef1d1a5cb1c5563f6adf20cd2a6f3054431c4a579ea9290d43587aea1d3265",
      "s": "0x7e79ad1d9221e9f4003dc5722fa9236c39feb392ab9b0f85383ed84db0f7f86f",
      "v": 27,
      "creates": null,
      "raw": "0xf86e82021f850cbebddf658255f09490fba3c13f19f8cf72a3bb9ee63c8f728f5486548816f717981376b918801ba07bef1d1a5cb1c5563f6adf20cd2a6f3054431c4a579ea9290d43587aea1d3265a07e79ad1d9221e9f4003dc5722fa9236c39feb392ab9b0f85383ed84db0f7f86f",
      "networkId": 0,
      "chainId": 0
    },
    {
      "hash": "0x7df1f6b4dd335e939f4af9bcbf534ba0438112b938d0c717cef859c013662d5e",
      "blockHash": "0x97e6cfdde88e4dd6da5eecc18534f9683f68503b429420fd838b8d45ffa854e1",
      "blockNumber": 69264,
      "transactionIndex": 21,
      "confirmations": null,
      "from": "0xe6A7a1d47ff21B6321162AEA7C6CB457D5476Bca",
      "gasPrice": {
        "_hex": "0xcbebddf65"
      },
      "gasLimit": {
        "_hex": "0x55f0"
      },
      "to": "0xd03F6B5b7FBCf7Dd4DEE4919543236c733546a2A",
      "value": {
        "_hex": "0x172182de7801f72c"
      },
      "nonce": 544,
      "data": "0x",
      "r": "0x83a3f7cdb93183c9935c2903d59f9f9ae409a33fb0c8fe495eac05979b12b247",
      "s": "0x083f83d2f8ab7df8bcebe85f06c9caa0b16be2e03ca10f5ef3ca21a7803c564d",
      "v": 27,
      "creates": null,
      "raw": "0xf86e820220850cbebddf658255f094d03f6b5b7fbcf7dd4dee4919543236c733546a2a88172182de7801f72c801ba083a3f7cdb93183c9935c2903d59f9f9ae409a33fb0c8fe495eac05979b12b247a0083f83d2f8ab7df8bcebe85f06c9caa0b16be2e03ca10f5ef3ca21a7803c564d",
      "networkId": 0,
      "chainId": 0
    }
  ]
}