{
  "hash": "0x595a2889a0101a59290958912d786551b7da7b75dfb32dfccff93ccd55f760e4",
  "parentHash": "0x8252137084baebea389ddb826c4e7a63cbef2effc0d6526a5394377e5e8dada0",
  "number": 46275,
  "timestamp": 1438920403,
  "nonce": "0x5e987cd2e5c21afd",
  "difficulty": 1462538960287,
  "gasLimit": {
    "_hex": "0x57b2"
  },
  "gasUsed": {
    "_hex": "0x5208"
  },
  "miner": "0xe6A7a1d47ff21B6321162AEA7C6CB457D5476Bca",
  "extraData": "0x657468706f6f6c2e6f7267",
  "transactions": [
    {
      "hash": "0xaef899f6769fe611b5557457a3802d5cfae060027745f6ba9ac21d4648f02ca8",
      "blockHash": "0x595a2889a0101a59290958912d786551b7da7b75dfb32dfccff93ccd55f760e4",
      "blockNumber": 46275,
      "transactionIndex": 0,
      "confirmations": null,
      "from": "0xfC97c2C87E3Cc03BeB5fA2fACaa10bbd0D0dA1AF",
      "gasPrice": {
        "_hex": "0x2ea9c34e73"
      },
      "gasLimit": {
        "_hex": "0x5208"
      },
      "to": "0x08CAC8952641d8Fc526ec1aB4f2dF826A5E7710F",
      "value": {
        "_hex": "0x2386f26fc10000"
      },
      "nonce": 0,
      "data": "0x",
      "r": "0x8bda4afc753af052c84e56da7d19cd86013f20aedc1eb09f3497255711112563",
      "s": "0x1a7c3b56426a862f81564ec008561ee7ac09d850a106afc4b80415b7a7aadca6",
      "v": 28,
      "creates": null,
      "raw": "0xf86b80852ea9c34e738252089408cac8952641d8fc526ec1ab4f2df826a5e7710f872386f26fc10000801ca08bda4afc753af052c84e56da7d19cd86013f20aedc1eb09f3497255711112563a01a7c3b56426a862f81564ec008561ee7ac09d850a106afc4b80415b7a7aadca6",
      "networkId": 0,
      "chainId": 0
    }
  ]
}