{
  "hash": "0x079637afa42dc1f8fe22a19abcf5713c2dd8ff075a95fa405790079db4094e97",
  "parentHash": "0xdfdfcc209a660a7ce73af61cb258940f31457aec021b2dacfcc2f91bc88ea405",
  "number": 77746,
  "timestamp": 1439442255,
  "nonce": "0xc762798f1364d763",
  "difficulty": 2268896141613,
  "gasLimit": {
    "_hex": "0x2fefd8"
  },
  "gasUsed": {
    "_hex": "0xa410"
  },
  "miner": "0x9D49F602b0fdb924Bd63DDE2Bd0907E4A07c63a7",
  "extraData": "0x476574682f76312e302e312f6c696e75782f676f312e342e32",
  "transactions": [
    {
      "hash": "0x4f1c3278da28cd05f20bc5332419a2fe18c1b44334f98a5f888a1de84ade0c25",
      "blockHash": "0x079637afa42dc1f8fe22a19abcf5713c2dd8ff075a95fa405790079db4094e97",
      "blockNumber": 77746,
      "transactionIndex": 0,
      "confirmations": null,
      "from": "0x2910543Af39abA0Cd09dBb2D50200b3E800A63D2",
      "gasPrice": {
        "_hex": "0xdccad1ef7"
      },
      "gasLimit": {
        "_hex": "0x5208"
      },
      "to": "0xB9bE20Cc1AF22F065efE32F78FeDa4B2Ed030F56",
      "value": {
        "_hex": "0xdcef33a6f838000"
      },
      "nonce": 337,
      "data": "0x",
      "r": "0x4fda12f762d6d981daac3f286531831abb62f59cbcaa648871e24888077e709e",
      "s": "0x61ac63351173eba3b5f708ae3b49d74ef868e85b965794fbdc921859af262336",
      "v": 28,
      "creates": null,
      "raw": "0xf86e820151850dccad1ef782520894b9be20cc1af22f065efe32f78feda4b2ed030f56880dcef33a6f838000801ca04fda12f762d6d981daac3f286531831abb62f59cbcaa648871e24888077e709ea061ac63351173eba3b5f708ae3b49d74ef868e85b965794fbdc921859af262336",
      "networkId": 0,
      "chainId": 0
    },
    {
      "hash": "0x05a9e101d3789d4e8682ae39db27a903827a3801a666b878b73ab3f06967d646",
      "blockHash": "0x079637afa42dc1f8fe22a19abcf5713c2dd8ff075a95fa405790079db4094e97",
      "blockNumber": 77746,
      "transactionIndex": 1,
      "confirmations": null,
      "from": "0xaA4ce6C758BED60F8b5E538C85dC8F2C212d84E4",
      "gasPrice": {
        "_hex": "0xd641f460d"
      },
      "gasLimit": {
        "_hex": "0x15f90"
      },
      "to": "0xC25f24A505b8fEF751D8f4FCc397651001F7a160",
      "value": {
        "_hex": "0x45400a8fd5330000"
      },
      "nonce": 0,
      "data": "0x",
      "r": "0xe45891051bc7d4e1b1a142836cd39bf0a2b04abf839ec1e349de656f16b3eb24",
      "s": "0x748d52e0d0b0d783fdc04b7eb99aaedc788b7f25d7a2263b6a6c85478ab71eb1",
      "v": 28,
      "creates": null,
      "raw": "0xf86d80850d641f460d83015f9094c25f24a505b8fef751d8f4fcc397651001f7a1608845400a8fd5330000801ca0e45891051bc7d4e1b1a142836cd39bf0a2b04abf839ec1e349de656f16b3eb24a0748d52e0d0b0d783fdc04b7eb99aaedc788b7f25d7a2263b6a6c85478ab71eb1",
      "networkId": 0,
      "chainId": 0
    }
  ]
}