{
  "hash": "0x743c68b0dd50514217fbe975d243c89ea155befc9db3d01cc233c57a7f3b45b2",
  "parentHash": "0x86ba50ad9d56cb12717ae4a4a327f2e900376a25137d1cf8ee69368c8e8a2e41",
  "number": 58138,
  "timestamp": 1439115843,
  "nonce": "0xb8d49f0266f93d22",
  "difficulty": 1704965588413,
  "gasLimit": {
    "_hex": "0x2fefd8"
  },
  "gasUsed": {
    "_hex": "0x5208"
  },
  "miner": "0xC13Dad778D7BcE116BD97f744625D57f7124c38A",
  "extraData": "0x476574682f76312e302e312f6c696e75782f676f312e342e32",
  "transactions": [
    {
      "hash": "0x9d6ca71af1a0736f0567853c1b231e5c357e46f4d7b365223f13b9af43e3a339",
      "blockHash": "0x743c68b0dd50514217fbe975d243c89ea155befc9db3d01cc233c57a7f3b45b2",
      "blockNumber": 58138,
      "transactionIndex": 0,
      "confirmations": null,
      "from": "0x0cDA12BF72d461BBc479eB92e6491d057e6B5Ad1",
      "gasPrice": {
        "_hex": "0x68c6171400"
      },
      "gasLimit": {
        "_hex": "0x55f0"
      },
      "to": "0x865d4c0cbD0C4D7580AAB16CE346127177162FFA",
      "value": {
        "_hex": "0x15af1d78b58c400000"
      },
      "nonce": 17,
      "data": "0x",
      "r": "0xfbbaed43153f5ad06cf35ecf024d80e2ea84c723e3202e1db864385993339906",
      "s": "0x6fc4d96e6e4246ffbcd2711bc198539716f851e311cc402799c1195e914780cd",
      "v": 28,
      "creates": null,
      "raw": "0xf86d118568c61714008255f094865d4c0cbd0c4d7580aab16ce346127177162ffa8915af1d78b58c400000801ca0fbbaed43153f5ad06cf35ecf024d80e2ea84c723e3202e1db864385993339906a06fc4d96e6e4246ffbcd2711bc198539716f851e311cc402799c1195e914780cd",
      "networkId": 0,
      "chainId": 0
    }
  ]
}