{
  "hash": "0x1a1ae5cd5435bb53e6a843cb00c90afd48a72dbcbc09fc2ed389fdeaa3201692",
  "parentHash": "0xdc946b8f4dde6e8d32cb89bc3257cafcd149a3fa32e5c39078e985731c497070",
  "number": 79634,
  "timestamp": 1439472902,
  "nonce": "0x0c223acef1bb8be7",
  "difficulty": 2340391837534,
  "gasLimit": {
    "_hex": "0x2fefd8"
  },
  "gasUsed": {
    "_hex": "0x54cf"
  },
  "miner": "0x2134e2a2b718DCa96580ECAC31E653Ea1fdd58DA",
  "extraData": "0x476574682f76312e302e312f77696e646f77732f676f312e342e32",
  "transactions": [
    {
      "hash": "0x149f881aad15410e765d4432c883ffe0a2acdf210474ac643377f9d98e76b297",
      "blockHash": "0x1a1ae5cd5435bb53e6a843cb00c90afd48a72dbcbc09fc2ed389fdeaa3201692",
      "blockNumber": 79634,
      "transactionIndex": 0,
      "confirmations": null,
      "from": "0x87C5B5874A18B4306DF8a752a6C8cc3E82daFc19",
      "gasPrice": {
        "_hex": "0x1039f77aec5"
      },
      "gasLimit": {
        "_hex": "0x493e0"
      },
      "to": "0xC4c51de1AbF5D60DBd329eC0F999Fd8f021ae9fC",
      "value": {
        "_hex": "0x0"
      },
      "nonce": 93,
      "data": "0x46b305d6",
      "r": "0xd248c0818f01a5269f0ec1fb36191ba71bd5d52a99c57a3da579cb763f4c03cb",
      "s": "0x52bfb281519663b4dd863bef9253ba23fd9becab0fae2701bc8d609bd7d6e819",
      "v": 27,
      "creates": null,
      "raw": "0xf86a5d8601039f77aec5830493e094c4c51de1abf5d60dbd329ec0f999fd8f021ae9fc808446b305d61ba0d248c0818f01a5269f0ec1fb36191ba71bd5d52a99c57a3da579cb763f4c03cba052bfb281519663b4dd863bef9253ba23fd9becab0fae2701bc8d609bd7d6e819",
      "networkId": 0,
      "chainId": 0
    }
  ]
}