{
  "hash": "0x21e290d03ec8f1854f9e5efc678ad667921a894ff78df95c40f11e9277a44232",
  "parentHash": "0x12193b9b6748de91797ab8c0f794267e912adc32bed16820a0ed1f36b0546a70",
  "number": 103176,
  "timestamp": 1439848999,
  "nonce": "0x4d0aa3dd4c879278",
  "difficulty": 4180871846467,
  "gasLimit": {
    "_hex": "0x2fefd8"
  },
  "gasUsed": {
    "_hex": "0xa410"
  },
  "miner": "0xE81c9A6Ebe623E5d483110e0eaF2b10c769b1212",
  "extraData": "0x476574682f76312e302e312f6c696e75782f676f312e342e32",
  "transactions": [
    {
      "hash": "0x217dcb5b5a65aadd5e073f80a1f701c725617d5c7e1b252e9147e603495e53e5",
      "blockHash": "0x21e290d03ec8f1854f9e5efc678ad667921a894ff78df95c40f11e9277a44232",
      "blockNumber": 103176,
      "transactionIndex": 0,
      "confirmations": null,
      "from": "0x32Be343B94f860124dC4fEe278FDCBD38C102D88",
      "gasPrice": {
        "_hex": "0xd083ffa5e"
      },
      "gasLimit": {
        "_hex": "0x5208"
      },
      "to": "0x37D60138e7bdf663ffF738B1993515D7500968b0",
      "value": {
        "_hex": "0xde0b6b3a7640000"
      },
      "nonce": 1120,
      "data": "0x",
      "r": "0x65f103e41e68c4117f04abfd0f6ef9ee3a2d7b4908ced0248078f9099e21baf6",
      "s": "0x1d029f7e4f1ab8f192ef55bfc20f3e2561f1f463a66c04ad2458d3a33bc51722",
      "v": 28,
      "creates": null,
      "raw": "0xf86e820460850d083ffa5e8252089437d60138e7bdf663fff738b1993515d7500968b0880de0b6b3a7640000801ca065f103e41e68c4117f04abfd0f6ef9ee3a2d7b4908ced0248078f9099e21baf6a01d029f7e4f1ab8f192ef55bfc20f3e2561f1f463a66c04ad2458d3a33bc51722",
      "networkId": 0,
      "chainId": 0
    },
    {
      "hash": "0x3521cda4688c28b40eea00d2b97e4306f69d4de921b6d4d3367441f9a6b94484",
      "blockHash": "0x21e290d03ec8f1854f9e5efc678ad667921a894ff78df95c40f11e9277a44232",
      "blockNumber": 103176,
      "transactionIndex": 1,
      "confirmations": null,
      "from": "0x32Be343B94f860124dC4fEe278FDCBD38C102D88",
      "gasPrice": {
        "_hex": "0xd083ffa5e"
      },
      "gasLimit": {
        "_hex": "0x5208"
      },
      "to": "0x939CD990e1F4959202878aaaCfAd8454AA2C1D1e",
      "value": {
        "_hex": "0x15bcdaa876c3e30000"
      },
      "nonce": 1121,
      "data": "0x",
      "r": "0x7cdd9b007678f6f08a94944210e1d67863d46b985f2704e4026cb7ee43268ac1",
      "s": "0x74732b0924d33410dd26cd7de142d34a01262acc25cb50eba6940121826d1aa2",
      "v": 28,
      "creates": null,
      "raw": "0xf86f820461850d083ffa5e82520894939cd990e1f4959202878aaacfad8454aa2c1d1e8915bcdaa876c3e30000801ca07cdd9b007678f6f08a94944210e1d67863d46b985f2704e4026cb7ee43268ac1a074732b0924d33410dd26cd7de142d34a01262acc25cb50eba6940121826d1aa2",
      "networkId": 0,
      "chainId": 0
    }
  ]
}