{
  "hash": "0xaf8c5611c6db000a0a5b0d7d844192757fa3a787189e2a645597658579a49930",
  "parentHash": "0x5615113545c79fdfc5cfa7e3707c79b4f4e9af1bf1e03c935be4ce983745f64c",
  "number": 91042,
  "timestamp": 1439649492,
  "nonce": "0x49624dd11fd069b9",
  "difficulty": 3433994232668,
  "gasLimit": {
    "_hex": "0x2fefd8"
  },
  "gasUsed": {
    "_hex": "0x5208"
  },
  "miner": "0xe6A7a1d47ff21B6321162AEA7C6CB457D5476Bca",
  "extraData": "0x476574682f76312e302e312d38326566323666362f6c696e75782f676f312e34",
  "transactions": [
    {
      "hash": "0xcc1bec2b94a1ed17a709c97a1064531f32d71b4508c4497834a9432634e7a8ec",
      "blockHash": "0xaf8c5611c6db000a0a5b0d7d844192757fa3a787189e2a645597658579a49930",
      "blockNumber": 91042,
      "transactionIndex": 0,
      "confirmations": null,
      "from": "0xF109ca710C0Df51c1a86dBA1B0BA0Ed038114463",
      "gasPrice": {
        "_hex": "0xdc0aa4d63"
      },
      "gasLimit": {
        "_hex": "0x5208"
      },
      "to": "0x32Be343B94f860124dC4fEe278FDCBD38C102D88",
      "value": {
        "_hex": "0xb679d2c72e2e8800"
      },
      "nonce": 10,
      "data": "0x",
      "r": "0x9a71d6db0f57824cf1abd6a18bf9a56d7b1d4c5b91eeb1019be5d3cba87e1e6a",
      "s": "0x74e14ac8c2f333aa335c6f44bc43ebee113a54e0acf0d2d16847548c71ec4337",
      "v": 28,
      "creates": null,
      "raw": "0xf86c0a850dc0aa4d638252089432be343b94f860124dc4fee278fdcbd38c102d8888b679d2c72e2e8800801ca09a71d6db0f57824cf1abd6a18bf9a56d7b1d4c5b91eeb1019be5d3cba87e1e6aa074e14ac8c2f333aa335c6f44bc43ebee113a54e0acf0d2d16847548c71ec4337",
      "networkId": 0,
      "chainId": 0
    }
  ]
}