{
  "hash": "0xedcf93f22949190e59a37d91df93752071fbb56c7ae82bb65ad01d5f52e86a48",
  "parentHash": "0x7bcf291913bf754d0d5b6c945fe679693232841341fb55549d979bcbf63c41c4",
  "number": 99587,
  "timestamp": 1439792658,
  "nonce": "0xc5519684a4e5e605",
  "difficulty": 3780564798016,
  "gasLimit": {
    "_hex": "0x2fefd8"
  },
  "gasUsed": {
    "_hex": "0x5208"
  },
  "miner": "0xe6A7a1d47ff21B6321162AEA7C6CB457D5476Bca",
  "extraData": "0x476574682f76312e302e312d38326566323666362f6c696e75782f676f312e34",
  "transactions": [
    {
      "hash": "0xfaeae8ffcdf5d68214d1a549446f2cbd8e665e8a5c0eb9ee9e9e6543ca6aa5aa",
      "blockHash": "0xedcf93f22949190e59a37d91df93752071fbb56c7ae82bb65ad01d5f52e86a48",
      "blockNumber": 99587,
      "transactionIndex": 0,
      "confirmations": null,
      "from": "0xaA35779Ef4dfBEd0B3D6F46F5f11cb86261B17A5",
      "gasPrice": {
        "_hex": "0xd7d40ace3"
      },
      "gasLimit": {
        "_hex": "0x61a8"
      },
      "to": "0x30beD8049947963394D93412326225E4e3123601",
      "value": {
        "_hex": "0xa688906bd8b00000"
      },
      "nonce": 10,
      "data": "0x",
      "r": "0x2662580dcfd36a78da8f203f6076282aa448fd9bc76480662390cd2281b4c76a",
      "s": "0x601e7c77c8b860463fc742fcf381c30a1f81665af855e2adf9c348b75f595413",
      "v": 27,
      "creates": null,
      "raw": "0xf86c0a850d7d40ace38261a89430bed8049947963394d93412326225e4e312360188a688906bd8b00000801ba02662580dcfd36a78da8f203f6076282aa448fd9bc76480662390cd2281b4c76aa0601e7c77c8b860463fc742fcf381c30a1f81665af855e2adf9c348b75f595413",
      "networkId": 0,
      "chainId": 0
    }
  ]
}