{
  "hash": "0x829e21f938d3f3cea02f19c7700eb0e54f36bc289b0fa3f97f3ae1adf5a41b17",
  "parentHash": "0x55e895371bc610d073f491907d1cd2513a12949bafa2397ab29714b5ba3ebdba",
  "number": 90161,
  "timestamp": 1439635617,
  "nonce": "0x701b706562fc7af3",
  "difficulty": 3301174525645,
  "gasLimit": {
    "_hex": "0x2fefd8"
  },
  "gasUsed": {
    "_hex": "0x802e"
  },
  "miner": "0x458F183347F45a4001807728A89F31E9Da9D4A58",
  "extraData": "0x476574682f76312e302e312d38326566323666362f6c696e75782f676f312e34",
  "transactions": [
    {
      "hash": "0x754da6ce082d325229d85331478b0a01be399b78e80dc6300a39c09ecb8c8cd7",
      "blockHash": "0x829e21f938d3f3cea02f19c7700eb0e54f36bc289b0fa3f97f3ae1adf5a41b17",
      "blockNumber": 90161,
      "transactionIndex": 0,
      "confirmations": null,
      "from": "0xFBb1b73C4f0BDa4f67dcA266ce6Ef42f520fBB98",
      "gasPrice": {
        "_hex": "0xd52a62acb"
      },
      "gasLimit": {
        "_hex": "0x15f90"
      },
      "to": "0xCAc7000C7dBaa2E33Af15325AF5D435E011C7BdD",
      "value": {
        "_hex": "0x0"
      },
      "nonce": 41,
      "data": "0x3feb1bd842495454524558303000000000000000000000000000000000000000000000000000000000000000000000005a0f0935e8e5591b2f9f2d55f29c626b502920880000000000000000000000000000000000000000000000008aa39c121a270000",
      "r": "0x0f5b4ac8f31de756ebe6a9af072152a196b89045ffecb4757406b33635501c00",
      "s": "0x70b5369849f681fbcabb07226471ae67cc7e31e9df53dfbb17e01a59c4404ab1",
      "v": 28,
      "creates": null,
      "raw": "0xf8ca29850d52a62acb83015f9094cac7000c7dbaa2e33af15325af5d435e011c7bdd80b8643feb1bd842495454524558303000000000000000000000000000000000000000000000000000000000000000000000005a0f0935e8e5591b2f9f2d55f29c626b502920880000000000000000000000000000000000000000000000008aa39c121a2700001ca00f5b4ac8f31de756ebe6a9af072152a196b89045ffecb4757406b33635501c00a070b5369849f681fbcabb07226471ae67cc7e31e9df53dfbb17e01a59c4404ab1",
      "networkId": 0,
      "chainId": 0
    }
  ]
}