{
  "hash": "0x032d8f57e89fdcad0fbb91b1ed6282143e28c294f28d0e3ffd689fc254c89904",
  "parentHash": "0x2407b26f54da936ea3fd5b11c6bcad61a48a2b8e5772a7dbcdf4bf2050ecf7c7",
  "number": 65317,
  "timestamp": 1439234785,
  "nonce": "0xf0588fa0f4b2c178",
  "difficulty": 1948318082373,
  "gasLimit": {
    "_hex": "0x2fefd8"
  },
  "gasUsed": {
    "_hex": "0x17cd8"
  },
  "miner": "0x0eDEd3DA479d0beF8eeC92A76644D3f4E3C177f7",
  "extraData": "0x476574682f76312e302e312f6c696e75782f676f312e342e32",
  "transactions": [
    {
      "hash": "0xe7316664bf8468b67b2c45f3713bc90d5bd5aabab81fd81623e4ab81e2283d1c",
      "blockHash": "0x032d8f57e89fdcad0fbb91b1ed6282143e28c294f28d0e3ffd689fc254c89904",
      "blockNumber": 65317,
      "transactionIndex": 0,
      "confirmations": null,
      "from": "0x8a92084facdbd8381bBF359745a82746B3192D57",
      "gasPrice": {
        "_hex": "0xba43b7400"
      },
      "gasLimit": {
        "_hex": "0x15f90"
      },
      "to": "0x793AE8C1b1a160BFc07BFB0d04F85eab1A71F4f2",
      "value": {
        "_hex": "0x0"
      },
      "nonce": 0,
      "data": "0x3ba15036",
      "r": "0x8762b96655f5c362d6e62445cbae91ad87918b36a8c14f55d9332669ed54293e",
      "s": "0x34ff0fa0903a804b57bcf948f7226dd13b4770347840c058cb9d0e3da54e8cf6",
      "v": 27,
      "creates": null,
      "raw": "0xf86980850ba43b740083015f9094793ae8c1b1a160bfc07bfb0d04f85eab1a71f4f280843ba150361ba08762b96655f5c362d6e62445cbae91ad87918b36a8c14f55d9332669ed54293ea034ff0fa0903a804b57bcf948f7226dd13b4770347840c058cb9d0e3da54e8cf6",
      "networkId": 0,
      "chainId": 0
    },
    {
      "hash": "0xfbdb35c498538fe1a4f617e7bf35a333f222cdaca2e6b6ded66623994ffcb237",
      "blockHash": "0x032d8f57e89fdcad0fbb91b1ed6282143e28c294f28d0e3ffd689fc254c89904",
      "blockNumber": 65317,
      "transactionIndex": 1,
      "confirmations": null,
      "from": "0x5389E9356140849BaCA27EB187d27BbEcA39F67D",
      "gasPrice": {
        "_hex": "0xba43b7400"
      },
      "gasLimit": {
        "_hex": "0x15f90"
      },
      "to": "0x793AE8C1b1a160BFc07BFB0d04F85eab1A71F4f2",
      "value": {
        "_hex": "0x0"
      },
      "nonce": 0,
      "data": "0x3ba15036",
      "r": "0x292ee1ac2edc76944d895a50d18b0e0683a0a2b14d90649d8a76bbf16706fa6f",
      "s": "0x2e5a13dd0af4e22285d4dc81dfc7e4e2e509815a94a578ebbfe9e7772c868911",
      "v": 27,
      "creates": null,
      "raw": "0xf86980850ba43b740083015f9094793ae8c1b1a160bfc07bfb0d04f85eab1a71f4f280843ba150361ba0292ee1ac2edc76944d895a50d18b0e0683a0a2b14d90649d8a76bbf16706fa6fa02e5a13dd0af4e22285d4dc81dfc7e4e2e509815a94a578ebbfe9e7772c868911",
      "networkId": 0,
      "chainId": 0
    }
  ]
}