{
  "hash": "0x7694dafb2b396a78fa7c72a8297b249b5bb082b9dabc76d1bde516d16cfdbdf1",
  "parentHash": "0xbc43a5957bd7694435e65faaf28564a8f9a93356763c393a589380cec6f6bbaa",
  "number": 119540,
  "timestamp": 1440144643,
  "nonce": "0x12e081aea819fd5b",
  "difficulty": 4394381864411,
  "gasLimit": {
    "_hex": "0x2fefd8"
  },
  "gasUsed": {
    "_hex": "0x5208"
  },
  "miner": "0xe6A7a1d47ff21B6321162AEA7C6CB457D5476Bca",
  "extraData": "0xd783010002844765746887676f312e342e32856c696e7578",
  "transactions": [
    {
      "hash": "0x33c0d2e6e43e266328b5a8e3ebcdb2a58e27e799374ec81ec339df2c472fe395",
      "blockHash": "0x7694dafb2b396a78fa7c72a8297b249b5bb082b9dabc76d1bde516d16cfdbdf1",
      "blockNumber": 119540,
      "transactionIndex": 0,
      "confirmations": null,
      "from": "0x400fb5A6482E54E44b2250E75251707514c605C1",
      "gasPrice": {
        "_hex": "0xba43b7400"
      },
      "gasLimit": {
        "_hex": "0x55f0"
      },
      "to": "0xd7C9Da7F000be9dcD742D6437dE28669DAFf0f4B",
      "value": {
        "_hex": "0x5040a1f596116d8"
      },
      "nonce": 2,
      "data": "0x",
      "r": "0x821f49abfabcc204286c8c1c530e337c0ad9d8b766c3b1c78cb5340094104638",
      "s": "0x1244f96a0d0fe2f8ba0fe16c49a9b27c3c4a0b93e005250e3cde6d21dd0411a2",
      "v": 27,
      "creates": null,
      "raw": "0xf86c02850ba43b74008255f094d7c9da7f000be9dcd742d6437de28669daff0f4b8805040a1f596116d8801ba0821f49abfabcc204286c8c1c530e337c0ad9d8b766c3b1c78cb5340094104638a01244f96a0d0fe2f8ba0fe16c49a9b27c3c4a0b93e005250e3cde6d21dd0411a2",
      "networkId": 0,
      "chainId": 0
    }
  ]
}