{
  "hash": "0xb8b5d261e5d3ae5ef3d9c9c5678267a74e14ed1e6792775f156ecabfbcaa2a9b",
  "parentHash": "0xac136cf7c362403084db004863af7339d96b79a443880c41de1076c94384b261",
  "number": 105308,
  "timestamp": 1439885257,
  "nonce": "0x22042ac4df87484c",
  "difficulty": 4367588220961,
  "gasLimit": {
    "_hex": "0x2fefd8"
  },
  "gasUsed": {
    "_hex": "0x5208"
  },
  "miner": "0xe6A7a1d47ff21B6321162AEA7C6CB457D5476Bca",
  "extraData": "0x476574682f76312e302e312d38326566323666362f6c696e75782f676f312e34",
  "transactions": [
    {
      "hash": "0x407d79f527b6934a9d5f69740331da2b3ea187e9a53813ff7d45eb024f8d8b09",
      "blockHash": "0xb8b5d261e5d3ae5ef3d9c9c5678267a74e14ed1e6792775f156ecabfbcaa2a9b",
      "blockNumber": 105308,
      "transactionIndex": 0,
      "confirmations": null,
      "from": "0xcf00A85f3826941e7A25BFcF9Aac575d40410852",
      "gasPrice": {
        "_hex": "0xcb5bea614"
      },
      "gasLimit": {
        "_hex": "0x15f90"
      },
      "to": "0xD9666150A9dA92d9108198a4072970805a8B3428",
      "value": {
        "_hex": "0x4563918244f40000"
      },
      "nonce": 65,
      "data": "0x",
      "r": "0xe9d18255b60ee2293b694866b1db1c419f34dededb39ee5e037b8898a8f2a4d2",
      "s": "0x244260a5a56c6db4f981f70063e1907490a00f9169c92a1ab960abe1601c178e",
      "v": 28,
      "creates": null,
      "raw": "0xf86d41850cb5bea61483015f9094d9666150a9da92d9108198a4072970805a8b3428884563918244f40000801ca0e9d18255b60ee2293b694866b1db1c419f34dededb39ee5e037b8898a8f2a4d2a0244260a5a56c6db4f981f70063e1907490a00f9169c92a1ab960abe1601c178e",
      "networkId": 0,
      "chainId": 0
    }
  ]
}