{
  "hash": "0x5c5bd91bd39ad750bd040300b9bd13727a795c246f6bbbc02d1d21d755f2baeb",
  "parentHash": "0xd90b54c8ffbd64b9ea19a6c05d2eb78520a651b45a9588daf358d6ed33eee4df",
  "number": 78942,
  "timestamp": 1439461976,
  "nonce": "0x330cf3823f61ca48",
  "difficulty": 2290835237119,
  "gasLimit": {
    "_hex": "0x2fefd8"
  },
  "gasUsed": {
    "_hex": "0x5208"
  },
  "miner": "0xe6A7a1d47ff21B6321162AEA7C6CB457D5476Bca",
  "extraData": "0x476574682f76312e302e312d38326566323666362f6c696e75782f676f312e34",
  "transactions": [
    {
      "hash": "0xa67faccbaa58080aa2a6f3a3030179dee3c7d024d76e9531b334b02810402c5d",
      "blockHash": "0x5c5bd91bd39ad750bd040300b9bd13727a795c246f6bbbc02d1d21d755f2baeb",
      "blockNumber": 78942,
      "transactionIndex": 0,
      "confirmations": null,
      "from": "0xa70a9a7040d542C632D8e0bE7c5513A8a5Bbc752",
      "gasPrice": {
        "_hex": "0xde79db898"
      },
      "gasLimit": {
        "_hex": "0x5208"
      },
      "to": "0x32Be343B94f860124dC4fEe278FDCBD38C102D88",
      "value": {
        "_hex": "0x455f1ce25fcd0c00"
      },
      "nonce": 55,
      "data": "0x",
      "r": "0xa3e8eff48b8d7573b4732f50a0f8ca2d3886ea70586d649c336e67b399686b6a",
      "s": "0x0265fb30307660babbcaa9ba4b7eb38c59a97399fd9088b129a867e4918792ec",
      "v": 27,
      "creates": null,
      "raw": "0xf86c37850de79db8988252089432be343b94f860124dc4fee278fdcbd38c102d8888455f1ce25fcd0c00801ba0a3e8eff48b8d7573b4732f50a0f8ca2d3886ea70586d649c336e67b399686b6aa00265fb30307660babbcaa9ba4b7eb38c59a97399fd9088b129a867e4918792ec",
      "networkId": 0,
      "chainId": 0
    }
  ]
}