{
  "hash": "0xe454d358cc04b7b91f56e7817d07157ca8be87700af17ea6cec1c87061ad6275",
  "parentHash": "0xf529a8710d2586df536a4654f302ecadde91505a72db662e14b982aa10ce4552",
  "number": 76253,
  "timestamp": 1439417331,
  "nonce": "0x67d8cb7653e27dd8",
  "difficulty": 2235208900634,
  "gasLimit": {
    "_hex": "0x2fefd8"
  },
  "gasUsed": {
    "_hex": "0x5208"
  },
  "miner": "0xDdf735543837695220A5fF5920f5756696840A5D",
  "extraData": "0x476574682f76312e302e312f6c696e75782f676f312e342e32",
  "transactions": [
    {
      "hash": "0xc29bbdb4916624350b2324ee211bcb21bdd3b6aa013628a78b652e0e25ef0622",
      "blockHash": "0xe454d358cc04b7b91f56e7817d07157ca8be87700af17ea6cec1c87061ad6275",
      "blockNumber": 76253,
      "transactionIndex": 0,
      "confirmations": null,
      "from": "0x0e320219838E859b2F9f18B72e3d4073cA50B37D",
      "gasPrice": {
        "_hex": "0xcfcef4d42"
      },
      "gasLimit": {
        "_hex": "0x15f90"
      },
      "to": "0x84505745115a8C041C0c4A7F9d3Ca52a5bf375f4",
      "value": {
        "_hex": "0x2c68af0bb140000"
      },
      "nonce": 7,
      "data": "0x",
      "r": "0x3b5bb04f3b72ca1006b743016de900d309551e28b51347afce0a26fd4927200a",
      "s": "0x5a56f5a604d2c8d44ebebb0308b02d033ac9f9ca38d7279784b6acb01b7d5f3b",
      "v": 27,
      "creates": null,
      "raw": "0xf86d07850cfcef4d4283015f909484505745115a8c041c0c4a7f9d3ca52a5bf375f48802c68af0bb140000801ba03b5bb04f3b72ca1006b743016de900d309551e28b51347afce0a26fd4927200aa05a56f5a604d2c8d44ebebb0308b02d033ac9f9ca38d7279784b6acb01b7d5f3b",
      "networkId": 0,
      "chainId": 0
    }
  ]
}