{
  "hash": "0xed8d96f3bd3e5f8fb6ea8b3cfe4234f8e167dae898161a834d02c4830c34d590",
  "parentHash": "0xfa5acb178213da353ea34572e642029bccb7029fff4ed5add4b79c4bb09b5a61",
  "number": 81900,
  "timestamp": 1439509788,
  "nonce": "0xf2104c5855715a0e",
  "difficulty": 2411675366726,
  "gasLimit": {
    "_hex": "0x2fefd8"
  },
  "gasUsed": {
    "_hex": "0x14820"
  },
  "miner": "0xe6A7a1d47ff21B6321162AEA7C6CB457D5476Bca",
  "extraData": "0x476574682f76312e302e312d38326566323666362f6c696e75782f676f312e34",
  "transactions": [
    {
      "hash": "0x17ca34867bd69a8f1af66d4a1a6077ac6238eea3898530d071f7bec7e09ad288",
      "blockHash": "0xed8d96f3bd3e5f8fb6ea8b3cfe4234f8e167dae898161a834d02c4830c34d590",
      "blockNumber": 81900,
      "transactionIndex": 0,
      "confirmations": null,
      "from": "0xFD7c9117BbEB649d9b37B3D3C9917f7c12f526B3",
      "gasPrice": {
        "_hex": "0xccf8ec64b"
      },
      "gasLimit": {
        "_hex": "0x5208"
      },
      "to": "0x32Be343B94f860124dC4fEe278FDCBD38C102D88",
      "value": {
        "_hex": "0x1bab99bb5aa0d400"
      },
      "nonce": 16,
      "data": "0x",
      "r": "0x7d9c421c3c6c77998bec200e16d340b3ab42aabffe76a44a68b56202081a69a1",
      "s": "0x6bd3af59b40eb0378971ecebe0cb7f8611f244a49c3c365aef571152bbdea149",
      "v": 28,
      "creates": null,
      "raw": "0xf86c10850ccf8ec64b8252089432be343b94f860124dc4fee278fdcbd38c102d88881bab99bb5aa0d400801ca07d9c421c3c6c77998bec200e16d340b3ab42aabffe76a44a68b56202081a69a1a06bd3af59b40eb0378971ecebe0cb7f8611f244a49c3c365aef571152bbdea149",
      "networkId": 0,
      "chainId": 0
    },
    {
      "hash": "0x6f2af50044bf79a2a19a412a3664a2eebdbf37966f8b2e4223e6e626c83b8149",
      "blockHash": "0xed8d96f3bd3e5f8fb6ea8b3cfe4234f8e167dae898161a834d02c4830c34d590",
      "blockNumber": 81900,
      "transactionIndex": 1,
      "confirmations": null,
      "from": "0xD678C8d3430cbE0d7a6F36487f3Cb6E5f27e4CA6",
      "gasPrice": {
        "_hex": "0xccf8ec64b"
      },
      "gasLimit": {
        "_hex": "0x5208"
      },
      "to": "0x32Be343B94f860124dC4fEe278FDCBD38C102D88",
      "value": {
        "_hex": "0x8ac308220b0dd800"
      },
      "nonce": 1,
      "data": "0x",
      "r": "0x87fe38347b57b9232fbbe02e3f84ef487ed83beec4734af5244c9fe4757ea9f6",
      "s": "0x2b309ae274af61b7b259679ef31b563c73f2ec7e94d8daddd042b14b96227709",
      "v": 28,
      "creates": null,
      "raw": "0xf86c01850ccf8ec64b8252089432be343b94f860124dc4fee278fdcbd38c102d88888ac308220b0dd800801ca087fe38347b57b9232fbbe02e3f84ef487ed83beec4734af5244c9fe4757ea9f6a02b309ae274af61b7b259679ef31b563c73f2ec7e94d8daddd042b14b96227709",
      "networkId": 0,
      "chainId": 0
    },
    {
      "hash": "0x23398e6dc45b3fffbb1b1ace34d73e02a838e7c938f325b03c19a83c8ef6b61d",
      "blockHash": "0xed8d96f3bd3e5f8fb6ea8b3cfe4234f8e167dae898161a834d02c4830c34d590",
      "blockNumber": 81900,
      "transactionIndex": 2,
      "confirmations": null,
      "from": "0xAC853f6dF7F2A1fb81a65b0A8F6978a204D95D5C",
      "gasPrice": {
        "_hex": "0xccf8ec64b"
      },
      "gasLimit": {
        "_hex": "0x5208"
      },
      "to": "0x32Be343B94f860124dC4fEe278FDCBD38C102D88",
      "value": {
        "_hex": "0xddc9bd12889d800"
      },
      "nonce": 0,
      "data": "0x",
      "r": "0x31e9c705ee267003bcf4b3294712bc8c2aa73ba8e3c111dcc7e19b893ffb6c10",
      "s": "0x3a85fd8609d2027773bd5efca78e13fa83f12c706a4047a581f02499ecf8a471",
      "v": 28,
      "creates": null,
      "raw": "0xf86c80850ccf8ec64b8252089432be343b94f860124dc4fee278fdcbd38c102d88880ddc9bd12889d800801ca031e9c705ee267003bcf4b3294712bc8c2aa73ba8e3c111dcc7e19b893ffb6c10a03a85fd8609d2027773bd5efca78e13fa83f12c706a4047a581f02499ecf8a471",
      "networkId": 0,
      "chainId": 0
    },
    {
      "hash": "0x809b06f2d6cd9396a990aa3b103ec12b9e5e18e31e184d41f41a00c56d141a6c",
      "blockHash": "0xed8d96f3bd3e5f8fb6ea8b3cfe4234f8e167dae898161a834d02c4830c34d590",
      "blockNumber": 81900,
      "transactionIndex": 3,
      "confirmations": null,
      "from": "0xd69E5daDd5C346e6F140B0A0750B8c5e2952fdAa",
      "gasPrice": {
        "_hex": "0xccf8ec64b"
      },
      "gasLimit": {
        "_hex": "0x5208"
      },
      "to": "0x32Be343B94f860124dC4fEe278FDCBD38C102D88",
      "value": {
        "_hex": "0xecb32718823e000"
      },
      "nonce": 0,
      "data": "0x",
      "r": "0x963016984c901b2caf8cc6f8018866939d2351c012851d2b267833b773015aa6",
      "s": "0x70f9ca4a2e6e85815c10b4eb7d8b6e7769007d4d227017efc32a59c8fbd8f302",
      "v": 27,
      "creates": null,
      "raw": "0xf86c80850ccf8ec64b8252089432be343b94f860124dc4fee278fdcbd38c102d88880ecb32718823e000801ba0963016984c901b2caf8cc6f8018866939d2351c012851d2b267833b773015aa6a070f9ca4a2e6e85815c10b4eb7d8b6e7769007d4d227017efc32a59c8fbd8f302",
      "networkId": 0,
      "chainId": 0
    }
  ]
}