{
  "hash": "0x87ca53d3b3e52cf29fd95f9bdfd591ec3187cc7bd0c5c036ea3b33ee0db97468",
  "parentHash": "0xc8e9df1ba45758ae5e22dfaac77679c0df3db65cda47d4f16a913212dbc87863",
  "number": 51820,
  "timestamp": 1439011483,
  "nonce": "0xc5a53576a1252ca6",
  "difficulty": 1556595726135,
  "gasLimit": {
    "_hex": "0xe2de1"
  },
  "gasUsed": {
    "_hex": "0x5208"
  },
  "miner": "0x9746c7e1ef2bd21FF3997fa467593a89cb852BD0",
  "extraData": "0x476574682f76312e302e312f77696e646f77732f676f312e342e32",
  "transactions": [
    {
      "hash": "0x417943535e110e3600fa1bfefd74105f78ed9601bae20f62a69c59600883946d",
      "blockHash": "0x87ca53d3b3e52cf29fd95f9bdfd591ec3187cc7bd0c5c036ea3b33ee0db97468",
      "blockNumber": 51820,
      "transactionIndex": 0,
      "confirmations": null,
      "from": "0x0037ce3d4B7f8729C8607D8D0248252Be68202c0",
      "gasPrice": {
        "_hex": "0xd17005bc8"
      },
      "gasLimit": {
        "_hex": "0x15f90"
      },
      "to": "0x72eE786D8f3AD59264a4d1d598Bc62720aF2012E",
      "value": {
        "_hex": "0xde0b6b3a7640000"
      },
      "nonce": 1,
      "data": "0x",
      "r": "0xf512ddea555cdb9850cab9a2f570ff61b669b454211c4c7108a0fb6b1d074e60",
      "s": "0x6d587e232156d2eb94fce035dcefe893122537c5262eca746d065845e130fb7a",
      "v": 28,
      "creates": null,
      "raw": "0xf86d01850d17005bc883015f909472ee786d8f3ad59264a4d1d598bc62720af2012e880de0b6b3a7640000801ca0f512ddea555cdb9850cab9a2f570ff61b669b454211c4c7108a0fb6b1d074e60a06d587e232156d2eb94fce035dcefe893122537c5262eca746d065845e130fb7a",
      "networkId": 0,
      "chainId": 0
    }
  ]
}