{
  "hash": "0xa61272f70ca649f716ee8fe8ed8c3c562fc460f14aa9488a0fcd5a761eb8c01d",
  "parentHash": "0x7d6cd010dfd40dee96de70b6b7f88db738e48e654b6bcedbb0c921fe0b560161",
  "number": 46990,
  "timestamp": 1438932819,
  "nonce": "0x7d538808713f7d53",
  "difficulty": 1450325367617,
  "gasLimit": {
    "_hex": "0x8c8f"
  },
  "gasUsed": {
    "_hex": "0x5208"
  },
  "miner": "0xF2d2AfF1320476cb8C6b607199D23175cc595693",
  "extraData": "0x476574682f76312e302e312f77696e646f77732f676f312e342e32",
  "transactions": [
    {
      "hash": "0xa40aef6f1274536cd5d2e9b2455c86dae0b596760997b7ae7a55b38062885a4d",
      "blockHash": "0xa61272f70ca649f716ee8fe8ed8c3c562fc460f14aa9488a0fcd5a761eb8c01d",
      "blockNumber": 46990,
      "transactionIndex": 0,
      "confirmations": null,
      "from": "0x96dadE6c87E483acb081E9f669B4fc029a440E8B",
      "gasPrice": {
        "_hex": "0xdd891a3f6"
      },
      "gasLimit": {
        "_hex": "0x5208"
      },
      "to": "0x55D1554b08a5311C5c0A0B6464162192f9D2f884",
      "value": {
        "_hex": "0xb1a2bc2ec500000"
      },
      "nonce": 1,
      "data": "0x",
      "r": "0x96b6a4ebfe6544fd948412400f107fc9667310668733fa7fcbb6750d61710e67",
      "s": "0x39f80d70b06a501a8e3c66f5860c61509841d889ab55d7316a29b83c7c108844",
      "v": 27,
      "creates": null,
      "raw": "0xf86c01850dd891a3f68252089455d1554b08a5311c5c0a0b6464162192f9d2f884880b1a2bc2ec500000801ba096b6a4ebfe6544fd948412400f107fc9667310668733fa7fcbb6750d61710e67a039f80d70b06a501a8e3c66f5860c61509841d889ab55d7316a29b83c7c108844",
      "networkId": 0,
      "chainId": 0
    }
  ]
}