{
  "hash": "0x36a0bdb85017224c6a3810e14bfea93da94816a73b3b7116d6542c76351a369c",
  "parentHash": "0x15c811267c0eebe1ea9622920c7a16d549599ba31a59fd7cee8b006e5366dc54",
  "number": 85126,
  "timestamp": 1439558845,
  "nonce": "0x38f6e3744a9b6061",
  "difficulty": 2731735494716,
  "gasLimit": {
    "_hex": "0x2fefd8"
  },
  "gasUsed": {
    "_hex": "0x5208"
  },
  "miner": "0xe6A7a1d47ff21B6321162AEA7C6CB457D5476Bca",
  "extraData": "0x476574682f76312e302e312d38326566323666362f6c696e75782f676f312e34",
  "transactions": [
    {
      "hash": "0x383d905e9048552d7248fd3599cd1162eec6bda6d64a1cf2d60f499462c0d888",
      "blockHash": "0x36a0bdb85017224c6a3810e14bfea93da94816a73b3b7116d6542c76351a369c",
      "blockNumber": 85126,
      "transactionIndex": 0,
      "confirmations": null,
      "from": "0xD2a5A024230a57Ccc666760b89b0e26CAFd189C7",
      "gasPrice": {
        "_hex": "0x101fb07d4fc"
      },
      "gasLimit": {
        "_hex": "0x15f90"
      },
      "to": "0x151e1b655BC131b5aCf57Df4C4193029a2Af43bE",
      "value": {
        "_hex": "0x3635c9adc5dea00000"
      },
      "nonce": 5,
      "data": "0x",
      "r": "0x798affb78638dc97a3540d09e3344319ea20050c8dbc37abb9bbe7a5f50f02fd",
      "s": "0x75ec9c456c0704a5e6e1197b73cc41d38d4c5eb205c56e0022796e35237fdf56",
      "v": 28,
      "creates": null,
      "raw": "0xf86f05860101fb07d4fc83015f9094151e1b655bc131b5acf57df4c4193029a2af43be893635c9adc5dea00000801ca0798affb78638dc97a3540d09e3344319ea20050c8dbc37abb9bbe7a5f50f02fda075ec9c456c0704a5e6e1197b73cc41d38d4c5eb205c56e0022796e35237fdf56",
      "networkId": 0,
      "chainId": 0
    }
  ]
}