{
  "hash": "0xaa02943f9c01e0a4d5c7fff07f50f1008aef687e08151786add97bebf685a312",
  "parentHash": "0x3c51bc426ffa3869e5341b2d14acc2a8ad7d2d25728e0475f89e2719ff825f29",
  "number": 71095,
  "timestamp": 1439330663,
  "nonce": "0xb93c9ca18fe8574d",
  "difficulty": 2150901528983,
  "gasLimit": {
    "_hex": "0x2fefd8"
  },
  "gasUsed": {
    "_hex": "0x5208"
  },
  "miner": "0x31995C46B15C84523cDEE26f49A681b8237e43F5",
  "extraData": "0x476574682f76312e302e312f77696e646f77732f676f312e342e32",
  "transactions": [
    {
      "hash": "0x556a54e80379f015c6f4c1d217cec2e2c3f5174a5289d440fcbbc62b5aa94d7a",
      "blockHash": "0xaa02943f9c01e0a4d5c7fff07f50f1008aef687e08151786add97bebf685a312",
      "blockNumber": 71095,
      "transactionIndex": 0,
      "confirmations": null,
      "from": "0x2f86ba8019945f39edE131D38d4d8780884DA553",
      "gasPrice": {
        "_hex": "0xcbc61bb58"
      },
      "gasLimit": {
        "_hex": "0x5208"
      },
      "to": "0x32Be343B94f860124dC4fEe278FDCBD38C102D88",
      "value": {
        "_hex": "0x6c6b7d8d8a52080000"
      },
      "nonce": 4,
      "data": "0x",
      "r": "0x0046e302e89d30596f03b8b0f5f906a2391eb7f2fab7f0684a63e0aadce22a3d",
      "s": "0x492192188a4936e33c1ed51ca86939517bbff8c41483bae7055d50b76d238883",
      "v": 27,
      "creates": null,
      "raw": "0xf86c04850cbc61bb588252089432be343b94f860124dc4fee278fdcbd38c102d88896c6b7d8d8a52080000801b9f46e302e89d30596f03b8b0f5f906a2391eb7f2fab7f0684a63e0aadce22a3da0492192188a4936e33c1ed51ca86939517bbff8c41483bae7055d50b76d238883",
      "networkId": 0,
      "chainId": 0
    }
  ]
}