{
  "hash": "0x02da624033d4f11028836275407f4b8fd3465558db6bbb03472f0b9a56ba4040",
  "parentHash": "0x2b412e7d77a105ca9f0956fdd9fe8211695f3a2abe842cd83ea0ee5c871c9dc1",
  "number": 87284,
  "timestamp": 1439589974,
  "nonce": "0x7556497230f6b27c",
  "difficulty": 3085612528004,
  "gasLimit": {
    "_hex": "0x2fefd8"
  },
  "gasUsed": {
    "_hex": "0x5208"
  },
  "miner": "0xe6A7a1d47ff21B6321162AEA7C6CB457D5476Bca",
  "extraData": "0x476574682f76312e302e312d38326566323666362f6c696e75782f676f312e34",
  "transactions": [
    {
      "hash": "0xb2cb7194f8c559fee11261b81951087354e270567448014deeb86ec2f8e24c8b",
      "blockHash": "0x02da624033d4f11028836275407f4b8fd3465558db6bbb03472f0b9a56ba4040",
      "blockNumber": 87284,
      "transactionIndex": 0,
      "confirmations": null,
      "from": "0x9900467341E2d122D382794f203a0Fa60f42e508",
      "gasPrice": {
        "_hex": "0xd1f2be0ec"
      },
      "gasLimit": {
        "_hex": "0x15f90"
      },
      "to": "0x3A441D091C9ab611250C154646E2C9cf65abEBC4",
      "value": {
        "_hex": "0x16345785d8a0000"
      },
      "nonce": 0,
      "data": "0x",
      "r": "0x941a823827519b9babef69ac2b10707ad2bd8643161ed456e30a38f52b922f5d",
      "s": "0x351bd7b6d0885dba6d1f2a07f10b7ac5893d0dc1edf46c2007c33b8b878d5764",
      "v": 28,
      "creates": null,
      "raw": "0xf86d80850d1f2be0ec83015f90943a441d091c9ab611250c154646e2c9cf65abebc488016345785d8a0000801ca0941a823827519b9babef69ac2b10707ad2bd8643161ed456e30a38f52b922f5da0351bd7b6d0885dba6d1f2a07f10b7ac5893d0dc1edf46c2007c33b8b878d5764",
      "networkId": 0,
      "chainId": 0
    }
  ]
}