{
  "hash": "0x6f69dd0245245af094549228d5b4a98e32da8c6e5ea6011e7b34761dca8fc62e",
  "parentHash": "0xb05de19fb1df92f46bcf8f4a7c199df680aaac34f0cf52ffd268ea7452ad6673",
  "number": 51434,
  "timestamp": 1439004808,
  "nonce": "0x282fd004cdf20f83",
  "difficulty": 1567345090380,
  "gasLimit": {
    "_hex": "0xb06e6"
  },
  "gasUsed": {
    "_hex": "0xddfd"
  },
  "miner": "0x9746c7e1ef2bd21FF3997fa467593a89cb852BD0",
  "extraData": "0x476574682f76312e302e312f77696e646f77732f676f312e342e32",
  "transactions": [
    {
      "hash": "0xdd01d97c4ad256147d85e45f331a083642118208daaa7eb9aa47d15b38fdba86",
      "blockHash": "0x6f69dd0245245af094549228d5b4a98e32da8c6e5ea6011e7b34761dca8fc62e",
      "blockNumber": 51434,
      "transactionIndex": 0,
      "confirmations": null,
      "from": "0xf88a65846C19D8fc76fFf545fEAa7bbc7114F667",
      "gasPrice": {
        "_hex": "0xd2e06beb7"
      },
      "gasLimit": {
        "_hex": "0x7a120"
      },
      "to": "0xBAA54d6E90c3F4d7Ebec11bD180134C7eD8eBb52",
      "value": {
        "_hex": "0x16345785d8a0000"
      },
      "nonce": 22,
      "data": "0x",
      "r": "0xaffe0c38c1a0e98197b2301b5d9ab88b18daaffbcc1dacf41d3a38f9410b2293",
      "s": "0x503bb8a3bd09810ef6d9c401e514570487942b219c3f2b555f8337dbe2d07c3a",
      "v": 27,
      "creates": null,
      "raw": "0xf86d16850d2e06beb78307a12094baa54d6e90c3f4d7ebec11bd180134c7ed8ebb5288016345785d8a0000801ba0affe0c38c1a0e98197b2301b5d9ab88b18daaffbcc1dacf41d3a38f9410b2293a0503bb8a3bd09810ef6d9c401e514570487942b219c3f2b555f8337dbe2d07c3a",
      "networkId": 0,
      "chainId": 0
    }
  ]
}