{
  "hash": "0xecdcef2b30a8fdd498a0ce2d37616bfad7fbb4b6bdeb1ae5eab24bc29d3ba49c",
  "parentHash": "0x2f0faf8ce71c5e8729cdc3dab19d3c5293e922e443aacf832558f8e0533128ca",
  "number": 89189,
  "timestamp": 1439619537,
  "nonce": "0x851e2199478e5cc8",
  "difficulty": 3282268561683,
  "gasLimit": {
    "_hex": "0x2fefd8"
  },
  "gasUsed": {
    "_hex": "0x5208"
  },
  "miner": "0x688d4CACaCCc92e6914549710594BC6aa994F569",
  "extraData": "0x476574682f76312e302e312d38326566323666362f6c696e75782f676f312e34",
  "transactions": [
    {
      "hash": "0xd1a6acd3f9e2662988a5a946d8bafb142cd20cb0f5b412f8575e3cc349ab0bb9",
      "blockHash": "0xecdcef2b30a8fdd498a0ce2d37616bfad7fbb4b6bdeb1ae5eab24bc29d3ba49c",
      "blockNumber": 89189,
      "transactionIndex": 0,
      "confirmations": null,
      "from": "0x93641e54c9aA6F9038FE7Adb03629a1747326Cd6",
      "gasPrice": {
        "_hex": "0xda11a0b7c"
      },
      "gasLimit": {
        "_hex": "0x15f90"
      },
      "to": "0xA5fb3E4399E8F18643f969D0Ce65CC352fc252C6",
      "value": {
        "_hex": "0x6f05b59d3b200000"
      },
      "nonce": 3,
      "data": "0x",
      "r": "0xafdc66fdba9cb33db71ed6eebbf893142021abff682f0ee6ed23334cca50d54b",
      "s": "0x3b64fc8ec6da65632ba4d0aeba0387ba39b7f6da9ee219a57e5e21a04d3badb6",
      "v": 28,
      "creates": null,
      "raw": "0xf86d03850da11a0b7c83015f9094a5fb3e4399e8f18643f969d0ce65cc352fc252c6886f05b59d3b200000801ca0afdc66fdba9cb33db71ed6eebbf893142021abff682f0ee6ed23334cca50d54ba03b64fc8ec6da65632ba4d0aeba0387ba39b7f6da9ee219a57e5e21a04d3badb6",
      "networkId": 0,
      "chainId": 0
    }
  ]
}