{
  "hash": "0x8dbcb89785d6c535053468d908b06772902fe3ad17b4a106e5681c3c8f106afe",
  "parentHash": "0xb9449f078bc19b8d93b169b8f1530d5b462407c9c70d87b8039b9fb7f2c7d67b",
  "number": 83159,
  "timestamp": 1439531155,
  "nonce": "0x8f0da9897c35221b",
  "difficulty": 2407783826862,
  "gasLimit": {
    "_hex": "0x2fefd8"
  },
  "gasUsed": {
    "_hex": "0x5208"
  },
  "miner": "0xe6A7a1d47ff21B6321162AEA7C6CB457D5476Bca",
  "extraData": "0x476574682f76312e302e312d38326566323666362f6c696e75782f676f312e34",
  "transactions": [
    {
      "hash": "0x5a57bb84ba64c13ec611500c4acd400b533bec8e179824b96fb63448ec4cfb81",
      "blockHash": "0x8dbcb89785d6c535053468d908b06772902fe3ad17b4a106e5681c3c8f106afe",
      "blockNumber": 83159,
      "transactionIndex": 0,
      "confirmations": null,
      "from": "0x64c0f4A860176e4f956550703F0eF522A9eD06F9",
      "gasPrice": {
        "_hex": "0xe10fb6686"
      },
      "gasLimit": {
        "_hex": "0x15f90"
      },
      "to": "0xFDE80370e058cfC8292D8eE4D7ed14c37Aa66D89",
      "value": {
        "_hex": "0x8ac7230489e80000"
      },
      "nonce": 1,
      "data": "0x",
      "r": "0xe619cd89fc181f6b39523983934ac14e2d00e490f922735090737e3b22379c6a",
      "s": "0x5651455531222000c95c25b28426b7edc230bd666e9dccf84551c1174f8765d5",
      "v": 28,
      "creates": null,
      "raw": "0xf86d01850e10fb668683015f9094fde80370e058cfc8292d8ee4d7ed14c37aa66d89888ac7230489e80000801ca0e619cd89fc181f6b39523983934ac14e2d00e490f922735090737e3b22379c6aa05651455531222000c95c25b28426b7edc230bd666e9dccf84551c1174f8765d5",
      "networkId": 0,
      "chainId": 0
    }
  ]
}