{
  "hash": "0x401ef1e9ee59a06642cc11a92ae4fba2f41963d8d846c2795bb908d394ce81b7",
  "parentHash": "0x145c9c1d41cd268cac2803a2959d1d4ad9b23d9b52b7e5988ec223b11ce11a0d",
  "number": 76349,
  "timestamp": 1439418938,
  "nonce": "0x00a4bef0d8d66682",
  "difficulty": 2222124837173,
  "gasLimit": {
    "_hex": "0x2fefd8"
  },
  "gasUsed": {
    "_hex": "0xa410"
  },
  "miner": "0xEF247E639d49461D25F57e9362CadE3120910Ce0",
  "extraData": "0x476574682f76312e302e312f6c696e75782f676f312e342e32",
  "transactions": [
    {
      "hash": "0x30b8800dee0540aa5642df897572873c9b29def2f83a7f011f0c030ce9d732bf",
      "blockHash": "0x401ef1e9ee59a06642cc11a92ae4fba2f41963d8d846c2795bb908d394ce81b7",
      "blockNumber": 76349,
      "transactionIndex": 0,
      "confirmations": null,
      "from": "0x4c74B6F32c9680aCB5Fe0e72B7Aa95C612540A04",
      "gasPrice": {
        "_hex": "0xe2a103b49"
      },
      "gasLimit": {
        "_hex": "0x5208"
      },
      "to": "0x32Be343B94f860124dC4fEe278FDCBD38C102D88",
      "value": {
        "_hex": "0x56bc2d442ed2d0000"
      },
      "nonce": 19,
      "data": "0x",
      "r": "0x82dbead50bb4990c9946650102331d9cae2287d83c69915830296dd0a3c8b97b",
      "s": "0x30aa2ffff8c312397d4ff67c57207dc4e70cdd8e3afc751ea34c37216ca8d424",
      "v": 28,
      "creates": null,
      "raw": "0xf86d13850e2a103b498252089432be343b94f860124dc4fee278fdcbd38c102d8889056bc2d442ed2d0000801ca082dbead50bb4990c9946650102331d9cae2287d83c69915830296dd0a3c8b97ba030aa2ffff8c312397d4ff67c57207dc4e70cdd8e3afc751ea34c37216ca8d424",
      "networkId": 0,
      "chainId": 0
    },
    {
      "hash": "0xafdb49ec01cd2526723ec6f999aa7b17c3b817cbfac605c22059a866d7b48fc2",
      "blockHash": "0x401ef1e9ee59a06642cc11a92ae4fba2f41963d8d846c2795bb908d394ce81b7",
      "blockNumber": 76349,
      "transactionIndex": 1,
      "confirmations": null,
      "from": "0xfa61FFF5ba13ff0DD59B579457F557e0ddeD02dA",
      "gasPrice": {
        "_hex": "0xe2a103b49"
      },
      "gasLimit": {
        "_hex": "0x5208"
      },
      "to": "0x32Be343B94f860124dC4fEe278FDCBD38C102D88",
      "value": {
        "_hex": "0x7f8046abff74ac000"
      },
      "nonce": 1,
      "data": "0x",
      "r": "0xf304067c6f4d97e3715a401e87c71db7e6b9709430b70d238923c45cde094f52",
      "s": "0x13461d3607b30c7f235a4abf9e60dc0e07de97fa5c241ca2b9374d33c6ea8b50",
      "v": 27,
      "creates": null,
      "raw": "0xf86d01850e2a103b498252089432be343b94f860124dc4fee278fdcbd38c102d888907f8046abff74ac000801ba0f304067c6f4d97e3715a401e87c71db7e6b9709430b70d238923c45cde094f52a013461d3607b30c7f235a4abf9e60dc0e07de97fa5c241ca2b9374d33c6ea8b50",
      "networkId": 0,
      "chainId": 0
    }
  ]
}