{
  "hash": "0x85a9bccb16f2b9f32f71c313bcd2ad66c3e958cea416a14417087122af9b10d1",
  "parentHash": "0x4674a2f581114672c89a1cf70c27b434d08569d3acd37023d6f86df413f151b9",
  "number": 63925,
  "timestamp": 1439212537,
  "nonce": "0x852b67a9560463fe",
  "difficulty": 1844936599649,
  "gasLimit": {
    "_hex": "0x2fefd8"
  },
  "gasUsed": {
    "_hex": "0x30824"
  },
  "miner": "0x785ffdDd5cE55c6DF963f345e68d3F2024E5Acb1",
  "extraData": "0x457468657265756d20474f212121212121",
  "transactions": [
    {
      "hash": "0x6554c99e0bfe3bea327b08fc00b2490cb7133193f0738307c7032ea0bc753f95",
      "blockHash": "0x85a9bccb16f2b9f32f71c313bcd2ad66c3e958cea416a14417087122af9b10d1",
      "blockNumber": 63925,
      "transactionIndex": 0,
      "confirmations": null,
      "from": "0x4Aa148C2C33401E66A2b586E6577C4B292D3F240",
      "gasPrice": {
        "_hex": "0x110c8f7d8de"
      },
      "gasLimit": {
        "_hex": "0xc350"
      },
      "to": "0x2910543Af39abA0Cd09dBb2D50200b3E800A63D2",
      "value": {
        "_hex": "0xad78ebc5ac6200000"
      },
      "nonce": 0,
      "data": "0x454e384b3155363652",
      "r": "0x4fa17da3b03f2bb95780087e1f5c33468ab01979879c7aea875bda56f87477fd",
      "s": "0x0c39f24eabe1420554c9a2087370ad4490dd773f14f48403db7623ec90c1b63c",
      "v": 28,
      "creates": null,
      "raw": "0xf87780860110c8f7d8de82c350942910543af39aba0cd09dbb2d50200b3e800a63d2890ad78ebc5ac620000089454e384b31553636521ca04fa17da3b03f2bb95780087e1f5c33468ab01979879c7aea875bda56f87477fda00c39f24eabe1420554c9a2087370ad4490dd773f14f48403db7623ec90c1b63c",
      "networkId": 0,
      "chainId": 0
    },
    {
      "hash": "0x70cc4cdf696b8356a41845c2f342fa3bc4f6aa203d1f71e8a8b4be6250a7d0d1",
      "blockHash": "0x85a9bccb16f2b9f32f71c313bcd2ad66c3e958cea416a14417087122af9b10d1",
      "blockNumber": 63925,
      "transactionIndex": 1,
      "confirmations": null,
      "from": "0xc70bA22fe446A85A247bf85BaD1AdDf3ddaF62E9",
      "gasPrice": {
        "_hex": "0xdccf78ed0"
      },
      "gasLimit": {
        "_hex": "0xf4240"
      },
      "to": null,
      "value": {
        "_hex": "0x0"
      },
      "nonce": 22,
      "data": "0x606060405260405160208061025a8339016040526060805190602001505b8080602757506127105b600060005060003373ffffffffffffffffffffffffffffffffffffffff168152602001908152602001600020600050819055505b506101ef8061006b6000396000f30060606040526000357c01000000000000000000000000000000000000000000000000000000009004806390b98a1114610044578063bbd39ac01461007157610042565b005b61005b6004803590602001803590602001506100b3565b6040518082815260200191505060405180910390f35b610082600480359060200150610098565b6040518082815260200191505060405180910390f35b60006000506020528060005260406000206000915090505481565b600081600060005060003373ffffffffffffffffffffffffffffffffffffffff1681526020019081526020016000206000505410156100f557600090506101e9565b81600060005060003373ffffffffffffffffffffffffffffffffffffffff16815260200190815260200160002060008282825054039250508190555081600060005060008573ffffffffffffffffffffffffffffffffffffffff1681526020019081526020016000206000828282505401925050819055507f16cdf1707799c6655baac6e210f52b94b7cec08adcaf9ede7dfe8649da926146338484604051808473ffffffffffffffffffffffffffffffffffffffff1681526020018373ffffffffffffffffffffffffffffffffffffffff168152602001828152602001935050505060405180910390a1600190506101e9565b92915050560000000000000000000000000000000000000000000000000000000000002710",
      "r": "0xe2d10ae89f92f6b12ec21cfbec5264d0c9591da9e366d1e788fe71db865b682e",
      "s": "0x3600fde27f7bcb2ce0ecf9a0fba7991900d50993ea735e0f491014f8bcec69bb",
      "v": 28,
      "creates": "0xf30Bf3DCB1FA1Ce1427AE586C54a95Fce48F7DB2",
      "raw": "0xf902cd16850dccf78ed0830f42408080b9027a606060405260405160208061025a8339016040526060805190602001505b8080602757506127105b600060005060003373ffffffffffffffffffffffffffffffffffffffff168152602001908152602001600020600050819055505b506101ef8061006b6000396000f30060606040526000357c01000000000000000000000000000000000000000000000000000000009004806390b98a1114610044578063bbd39ac01461007157610042565b005b61005b6004803590602001803590602001506100b3565b6040518082815260200191505060405180910390f35b610082600480359060200150610098565b6040518082815260200191505060405180910390f35b60006000506020528060005260406000206000915090505481565b600081600060005060003373ffffffffffffffffffffffffffffffffffffffff1681526020019081526020016000206000505410156100f557600090506101e9565b81600060005060003373ffffffffffffffffffffffffffffffffffffffff16815260200190815260200160002060008282825054039250508190555081600060005060008573ffffffffffffffffffffffffffffffffffffffff1681526020019081526020016000206000828282505401925050819055507f16cdf1707799c6655baac6e210f52b94b7cec08adcaf9ede7dfe8649da926146338484604051808473ffffffffffffffffffffffffffffffffffffffff1681526020018373ffffffffffffffffffffffffffffffffffffffff168152602001828152602001935050505060405180910390a1600190506101e9565b929150505600000000000000000000000000000000000000000000000000000000000027101ca0e2d10ae89f92f6b12ec21cfbec5264d0c9591da9e366d1e788fe71db865b682ea03600fde27f7bcb2ce0ecf9a0fba7991900d50993ea735e0f491014f8bcec69bb",
      "networkId": 0,
      "chainId": 0
    }
  ]
}