{
  "hash": "0xadaa0a4465677f6637d8dd2c56c0d3f4042b23aed598c06337057b2321f1a2db",
  "parentHash": "0xa29734a25bab1c14e0434f0bf9e391500453c660966da5704818f397098b043e",
  "number": 106038,
  "timestamp": 1439897580,
  "nonce": "0x58f3d3ace6c41f25",
  "difficulty": 4475141645669,
  "gasLimit": {
    "_hex": "0x2fefd8"
  },
  "gasUsed": {
    "_hex": "0x546c"
  },
  "miner": "0xe6A7a1d47ff21B6321162AEA7C6CB457D5476Bca",
  "extraData": "0x476574682f76312e302e312d38326566323666362f6c696e75782f676f312e34",
  "transactions": [
    {
      "hash": "0x3cc8ad4bda9df93d02b768c3201c01e0a683374171f9c6ae91235f29f3e82861",
      "blockHash": "0xadaa0a4465677f6637d8dd2c56c0d3f4042b23aed598c06337057b2321f1a2db",
      "blockNumber": 106038,
      "transactionIndex": 0,
      "confirmations": null,
      "from": "0x7f541491d2Ac00D2612f94aA7f0BCB014651fbd4",
      "gasPrice": {
        "_hex": "0x110c8f7d8de"
      },
      "gasLimit": {
        "_hex": "0xc350"
      },
      "to": "0x2910543Af39abA0Cd09dBb2D50200b3E800A63D2",
      "value": {
        "_hex": "0x14542ba12a337c0000"
      },
      "nonce": 0,
      "data": "0x454e42375455303247",
      "r": "0x4c096e3224b05b4e4432cb96fe363abc3d0df22d56708c203f76dfb524f238af",
      "s": "0x4556033ba61a1611b2b4eeaa94b46815fb08a24c6da8c659b3bdb3727f4ba5f1",
      "v": 28,
      "creates": null,
      "raw": "0xf87780860110c8f7d8de82c350942910543af39aba0cd09dbb2d50200b3e800a63d28914542ba12a337c000089454e423754553032471ca04c096e3224b05b4e4432cb96fe363abc3d0df22d56708c203f76dfb524f238afa04556033ba61a1611b2b4eeaa94b46815fb08a24c6da8c659b3bdb3727f4ba5f1",
      "networkId": 0,
      "chainId": 0
    }
  ]
}