{
  "hash": "0x19bdd0dd3f2f44b249dc6db560067822e085e3078e539877a431e546e73d3b53",
  "parentHash": "0x88c241c500aaea968ea961731e6033ab746a0809370ce36eb817537037d729c2",
  "number": 68383,
  "timestamp": 1439286908,
  "nonce": "0x83b554f6639dc22f",
  "difficulty": 2019265432841,
  "gasLimit": {
    "_hex": "0x2fefd5"
  },
  "gasUsed": {
    "_hex": "0x5208"
  },
  "miner": "0xf8E0CA3Ed80bd541b94BEdCf259e8CF2141A9523",
  "extraData": "0x476574682f76312e302e312f77696e646f77732f676f312e342e32",
  "transactions": [
    {
      "hash": "0xb763d16d7f89ea5a619396c64871b0f32a8727374ac62fd2751d0aabf9121e09",
      "blockHash": "0x19bdd0dd3f2f44b249dc6db560067822e085e3078e539877a431e546e73d3b53",
      "blockNumber": 68383,
      "transactionIndex": 0,
      "confirmations": null,
      "from": "0x6747f922385c9a6F9cfDf095F34345257DD597bE",
      "gasPrice": {
        "_hex": "0xba43b7400"
      },
      "gasLimit": {
        "_hex": "0x5208"
      },
      "to": "0x32ce224244a542Df49c6eC5434EC236c89EE09C6",
      "value": {
        "_hex": "0x1fcbfa42bd6000"
      },
      "nonce": 71,
      "data": "0x",
      "r": "0x2aa1ceab014a8760b5a0fd005ec7cd4300efcde333662a71ab8d0e8724c7b239",
      "s": "0x5780d2be1b7fd6b31895da29dc888026ea4d9e4da55ee459797282c0105ca0da",
      "v": 28,
      "creates": null,
      "raw": "0xf86b47850ba43b74008252089432ce224244a542df49c6ec5434ec236c89ee09c6871fcbfa42bd6000801ca02aa1ceab014a8760b5a0fd005ec7cd4300efcde333662a71ab8d0e8724c7b239a05780d2be1b7fd6b31895da29dc888026ea4d9e4da55ee459797282c0105ca0da",
      "networkId": 0,
      "chainId": 0
    }
  ]
}