{
  "hash": "0x9353f4c4f6870d3ea869fdd700baf53ed5aa294a2c485d29043c8439551f8828",
  "parentHash": "0x54476585d70068a6d01b9d44b649f5838762011b581ce829fea1b1d97c09b18f",
  "number": 68212,
  "timestamp": 1439284304,
  "nonce": "0x5f4a6a583ebb3053",
  "difficulty": 1979282984590,
  "gasLimit": {
    "_hex": "0x2fefd8"
  },
  "gasUsed": {
    "_hex": "0x17cd8"
  },
  "miner": "0xf927a40C8B7F6E07c5af7FA2155B4864a4112B13",
  "extraData": "0x",
  "transactions": [
    {
      "hash": "0x8683416938a9ed6f305e19d692f0675bea9d792ea036e619a8fd39d930cece74",
      "blockHash": "0x9353f4c4f6870d3ea869fdd700baf53ed5aa294a2c485d29043c8439551f8828",
      "blockNumber": 68212,
      "transactionIndex": 0,
      "confirmations": null,
      "from": "0xC8F251AeD1F385B3529B883B541FCD8E09Da5a44",
      "gasPrice": {
        "_hex": "0xba43b7400"
      },
      "gasLimit": {
        "_hex": "0x15f90"
      },
      "to": "0x793AE8C1b1a160BFc07BFB0d04F85eab1A71F4f2",
      "value": {
        "_hex": "0x0"
      },
      "nonce": 0,
      "data": "0x3ba15036",
      "r": "0x00c7b8f7275e554280aed8a950a34ebee5f54cfa28d93190469addb07bd6d984",
      "s": "0x1e9f655ebcab470f66af48143d582a7ff77395386e748d563a0bf782185c5332",
      "v": 28,
      "creates": null,
      "raw": "0xf86880850ba43b740083015f9094793ae8c1b1a160bfc07bfb0d04f85eab1a71f4f280843ba150361c9fc7b8f7275e554280aed8a950a34ebee5f54cfa28d93190469addb07bd6d984a01e9f655ebcab470f66af48143d582a7ff77395386e748d563a0bf782185c5332",
      "networkId": 0,
      "chainId": 0
    },
    {
      "hash": "0x4c40602cef4f28b49feabaffaf884034e774229b27394f75600a3a82a8374cc9",
      "blockHash": "0x9353f4c4f6870d3ea869fdd700baf53ed5aa294a2c485d29043c8439551f8828",
      "blockNumber": 68212,
      "transactionIndex": 1,
      "confirmations": null,
      "from": "0x3788B73459deD4C06fd94526d1bB7f8bEC6bFD19",
      "gasPrice": {
        "_hex": "0xba43b7400"
      },
      "gasLimit": {
        "_hex": "0x15f90"
      },
      "to": "0x793AE8C1b1a160BFc07BFB0d04F85eab1A71F4f2",
      "value": {
        "_hex": "0x0"
      },
      "nonce": 0,
      "data": "0x3ba15036",
      "r": "0xe3bc56c4436d73576e7e73f1433e70199f9a6d8487e36beeb9ba2881bef56c6d",
      "s": "0x6a674f46dc5497b72bef1deeadb367f42d48f42b4d14bec0ef296ed09d754d02",
      "v": 27,
      "creates": null,
      "raw": "0xf86980850ba43b740083015f9094793ae8c1b1a160bfc07bfb0d04f85eab1a71f4f280843ba150361ba0e3bc56c4436d73576e7e73f1433e70199f9a6d8487e36beeb9ba2881bef56c6da06a674f46dc5497b72bef1deeadb367f42d48f42b4d14bec0ef296ed09d754d02",
      "networkId": 0,
      "chainId": 0
    }
  ]
}