{
  "hash": "0x6d5bb1e5139cd19c6e3dbaf1db25d04a9cd2fec5172334b279aaec73da2fdb12",
  "parentHash": "0x8d57294b150e043e9f21f417f30806b8b6b04c82b876911b6e82a211d852569d",
  "number": 73622,
  "timestamp": 1439372042,
  "nonce": "0xf00f3a85cb5aea2f",
  "difficulty": 2226105841641,
  "gasLimit": {
    "_hex": "0x2fefd8"
  },
  "gasUsed": {
    "_hex": "0x5208"
  },
  "miner": "0xf8E0CA3Ed80bd541b94BEdCf259e8CF2141A9523",
  "extraData": "0x476574682f76312e302e312f77696e646f77732f676f312e342e32",
  "transactions": [
    {
      "hash": "0xeee7f6671973a12e02a275dbdbb7631011b6220f8ff8fdfc68a8b69bee869ec4",
      "blockHash": "0x6d5bb1e5139cd19c6e3dbaf1db25d04a9cd2fec5172334b279aaec73da2fdb12",
      "blockNumber": 73622,
      "transactionIndex": 0,
      "confirmations": null,
      "from": "0xD2D6E7efc52B33B4daf79E3920655832fBC92105",
      "gasPrice": {
        "_hex": "0xdfae6e461"
      },
      "gasLimit": {
        "_hex": "0x15f90"
      },
      "to": "0x62b0559efe3a073EDfe78bBe7CB491A6C65F0806",
      "value": {
        "_hex": "0x9536c708910000"
      },
      "nonce": 2,
      "data": "0x",
      "r": "0xd4bc531fb993af59f199e42cd4209a5ca30f858fc12a3c4a2c64e27ccc221024",
      "s": "0x2ee0a8c7a8e863097725a10cedd5e652554dc358f497dd32c2f5220ac9c2bc14",
      "v": 27,
      "creates": null,
      "raw": "0xf86c02850dfae6e46183015f909462b0559efe3a073edfe78bbe7cb491a6c65f0806879536c708910000801ba0d4bc531fb993af59f199e42cd4209a5ca30f858fc12a3c4a2c64e27ccc221024a02ee0a8c7a8e863097725a10cedd5e652554dc358f497dd32c2f5220ac9c2bc14",
      "networkId": 0,
      "chainId": 0
    }
  ]
}