{
  "hash": "0x19e7c77590f5658da00ebbe4b9b3e191e158a76df209a3baa597407d18152642",
  "parentHash": "0x128f28a6772b6f7dbb32d3eae9fea9915ee4cf1ffa235dd10537bda05893dc53",
  "number": 59026,
  "timestamp": 1439130796,
  "nonce": "0xb61dad914c5cee17",
  "difficulty": 1708118026380,
  "gasLimit": {
    "_hex": "0x2fefd8"
  },
  "gasUsed": {
    "_hex": "0x5208"
  },
  "miner": "0x9746c7e1ef2bd21FF3997fa467593a89cb852BD0",
  "extraData": "0x476574682f76312e302e312f77696e646f77732f676f312e342e32",
  "transactions": [
    {
      "hash": "0x938a19db1ada02fe5ec26bd7ae1c3633c03f07ba73305848a8a7a531b4ce07ce",
      "blockHash": "0x19e7c77590f5658da00ebbe4b9b3e191e158a76df209a3baa597407d18152642",
      "blockNumber": 59026,
      "transactionIndex": 0,
      "confirmations": null,
      "from": "0xde545F4Cc5abc953847F4ECb8D90d654A8c5714b",
      "gasPrice": {
        "_hex": "0xdbcea3ca2"
      },
      "gasLimit": {
        "_hex": "0x5208"
      },
      "to": "0x32Be343B94f860124dC4fEe278FDCBD38C102D88",
      "value": {
        "_hex": "0xa96737ec717f4000000"
      },
      "nonce": 0,
      "data": "0x",
      "r": "0x3a0b42db50ee69bac8ea4e82282091953f051415d4f53467ccf0257335840301",
      "s": "0x7b6493e4f8827f0def2fe6a020d41fc06a557f8e43a3722849a804fbdc5ab665",
      "v": 27,
      "creates": null,
      "raw": "0xf86e80850dbcea3ca28252089432be343b94f860124dc4fee278fdcbd38c102d888a0a96737ec717f4000000801ba03a0b42db50ee69bac8ea4e82282091953f051415d4f53467ccf0257335840301a07b6493e4f8827f0def2fe6a020d41fc06a557f8e43a3722849a804fbdc5ab665",
      "networkId": 0,
      "chainId": 0
    }
  ]
}