{
  "hash": "0xba8e85ac52bb418b7bd66ae4f45bc7ebe5fe235e82d26659f91c1ee65ed2bb42",
  "parentHash": "0xc8001b83c604b46994f111992cdd760b727399ba32cf5348148dbcda9f2cd25d",
  "number": 55745,
  "timestamp": 1439076252,
  "nonce": "0x94a3cf0f97d4b3f0",
  "difficulty": 1598217241965,
  "gasLimit": {
    "_hex": "0x2fefd8"
  },
  "gasUsed": {
    "_hex": "0x5a73"
  },
  "miner": "0x9746c7e1ef2bd21FF3997fa467593a89cb852BD0",
  "extraData": "0x476574682f76312e302e312f77696e646f77732f676f312e342e32",
  "transactions": [
    {
      "hash": "0x8936a39d5d3233e0caf3782a601e43ce48227b905203062a3962baa42989aea5",
      "blockHash": "0xba8e85ac52bb418b7bd66ae4f45bc7ebe5fe235e82d26659f91c1ee65ed2bb42",
      "blockNumber": 55745,
      "transactionIndex": 0,
      "confirmations": null,
      "from": "0xFD2605a2bF58fDbB90db1Da55dF61628B47F9e8c",
      "gasPrice": {
        "_hex": "0xcdb9a6420"
      },
      "gasLimit": {
        "_hex": "0x186a0"
      },
      "to": "0xF6bF0eE51FE0ee92500bB22295382E9241eC3b5C",
      "value": {
        "_hex": "0x16345785d8a0000"
      },
      "nonce": 13,
      "data": "0xe542327451af57395e52d7739420025d30bf9ee5a670f6c5d17db66a0000000000000000",
      "r": "0x6283ffea43c3ad54fbd7d50d54fc65841a7d792c864ae3a6123451d3ac0d690e",
      "s": "0x708815a38542c6cea654bf44f8ab1bd2084f5c2b47b809f558262dc422e4b3b1",
      "v": 27,
      "creates": null,
      "raw": "0xf8910d850cdb9a6420830186a094f6bf0ee51fe0ee92500bb22295382e9241ec3b5c88016345785d8a0000a4e542327451af57395e52d7739420025d30bf9ee5a670f6c5d17db66a00000000000000001ba06283ffea43c3ad54fbd7d50d54fc65841a7d792c864ae3a6123451d3ac0d690ea0708815a38542c6cea654bf44f8ab1bd2084f5c2b47b809f558262dc422e4b3b1",
      "networkId": 0,
      "chainId": 0
    }
  ]
}