{
  "hash": "0x26384f315c5ff6c106c4c1c64f9bac87ffa1edc40f2fcddc3c6f92d1f0f3f6b9",
  "parentHash": "0x59cd419064af4ce873b700e209718a8480208c22fa947c84e5c0ad035d9fb5b4",
  "number": 88738,
  "timestamp": 1439612618,
  "nonce": "0xea78fef06f713e7e",
  "difficulty": 3239454613894,
  "gasLimit": {
    "_hex": "0x2fefd8"
  },
  "gasUsed": {
    "_hex": "0x5208"
  },
  "miner": "0xe6A7a1d47ff21B6321162AEA7C6CB457D5476Bca",
  "extraData": "0x476574682f76312e302e312d38326566323666362f6c696e75782f676f312e34",
  "transactions": [
    {
      "hash": "0x24825febb2ddf6bddf4e8668a005236679725c47ae373951714bf903d6a1b1c4",
      "blockHash": "0x26384f315c5ff6c106c4c1c64f9bac87ffa1edc40f2fcddc3c6f92d1f0f3f6b9",
      "blockNumber": 88738,
      "transactionIndex": 0,
      "confirmations": null,
      "from": "0x2910543Af39abA0Cd09dBb2D50200b3E800A63D2",
      "gasPrice": {
        "_hex": "0xd7779bee1"
      },
      "gasLimit": {
        "_hex": "0x5208"
      },
      "to": "0x6Ae11766c6D526f5a133AdF4819941B0ba66bE4C",
      "value": {
        "_hex": "0x8ab55f8b52078000"
      },
      "nonce": 735,
      "data": "0x",
      "r": "0x1bb1412547402403951734f00a5405996ddf42d89862ad7aa5905c4da4b8672b",
      "s": "0x3b2bac5aafd9600a6ea7e362e4046af92d40a301a72403b403ebec1274469fca",
      "v": 28,
      "creates": null,
      "raw": "0xf86e8202df850d7779bee1825208946ae11766c6d526f5a133adf4819941b0ba66be4c888ab55f8b52078000801ca01bb1412547402403951734f00a5405996ddf42d89862ad7aa5905c4da4b8672ba03b2bac5aafd9600a6ea7e362e4046af92d40a301a72403b403ebec1274469fca",
      "networkId": 0,
      "chainId": 0
    }
  ]
}