{
  "hash": "0x449a76303e429b784d3f9db641093b39495c143ed8395f2f2aec897ea4ee611d",
  "parentHash": "0xa55a1955928f4f6743eec73127dce33e7860127584a76a4019e461ba46d19d16",
  "number": 47229,
  "timestamp": 1438936495,
  "nonce": "0xfb69e61d04f83c2b",
  "difficulty": 1459519232151,
  "gasLimit": {
    "_hex": "0xa5eb"
  },
  "gasUsed": {
    "_hex": "0xa410"
  },
  "miner": "0xF2d2AfF1320476cb8C6b607199D23175cc595693",
  "extraData": "0x476574682f76312e302e312f77696e646f77732f676f312e342e32",
  "transactions": [
    {
      "hash": "0x5b690d35735aacc249f2aec80a43a6b38013be4e1620102e45afaaad4e77b0ff",
      "blockHash": "0x449a76303e429b784d3f9db641093b39495c143ed8395f2f2aec897ea4ee611d",
      "blockNumber": 47229,
      "transactionIndex": 0,
      "confirmations": null,
      "from": "0xBD744E3F13D79B33F6c8E1d5E32F8E9BA2866c46",
      "gasPrice": {
        "_hex": "0xfe1f98283"
      },
      "gasLimit": {
        "_hex": "0x5208"
      },
      "to": "0xa76096364818e36fE973189Dfc0e47f0d51C7746",
      "value": {
        "_hex": "0x92ddbab845e64000"
      },
      "nonce": 5,
      "data": "0x",
      "r": "0x3ab72f4cf31a3a4da308a15888974cb381849ead5ebffd7b4287e7569fc762f0",
      "s": "0x6c7352b837e6442fd460384befa01ca1679e24f8ca741d2f83e24b8098f06763",
      "v": 27,
      "creates": null,
      "raw": "0xf86c05850fe1f9828382520894a76096364818e36fe973189dfc0e47f0d51c77468892ddbab845e64000801ba03ab72f4cf31a3a4da308a15888974cb381849ead5ebffd7b4287e7569fc762f0a06c7352b837e6442fd460384befa01ca1679e24f8ca741d2f83e24b8098f06763",
      "networkId": 0,
      "chainId": 0
    },
    {
      "hash": "0x897d61043b2677d3f871f72d14d7ce9fb9844d9b5a8ac5946943f3709353ee90",
      "blockHash": "0x449a76303e429b784d3f9db641093b39495c143ed8395f2f2aec897ea4ee611d",
      "blockNumber": 47229,
      "transactionIndex": 1,
      "confirmations": null,
      "from": "0xe6A7a1d47ff21B6321162AEA7C6CB457D5476Bca",
      "gasPrice": {
        "_hex": "0xe5f6e1ea4"
      },
      "gasLimit": {
        "_hex": "0x5208"
      },
      "to": "0xab265e840933431739e8BE901b21785AAb7d28bE",
      "value": {
        "_hex": "0x80039bcd590b5298"
      },
      "nonce": 83,
      "data": "0x",
      "r": "0x2f1e6cd0d89ac4c71083a768263a9b2c9bb11135875b53b587c66b234db53de1",
      "s": "0x1bd127e539a3dd9d2e05a458a3d882eab153b7c0014cee73cd95aa1aa4a1318e",
      "v": 27,
      "creates": null,
      "raw": "0xf86c53850e5f6e1ea482520894ab265e840933431739e8be901b21785aab7d28be8880039bcd590b5298801ba02f1e6cd0d89ac4c71083a768263a9b2c9bb11135875b53b587c66b234db53de1a01bd127e539a3dd9d2e05a458a3d882eab153b7c0014cee73cd95aa1aa4a1318e",
      "networkId": 0,
      "chainId": 0
    }
  ]
}