{
  "hash": "0x32fabfa348f1299cce5340c947f366ce552b340eac2bf9c458135cb7bd09d3fa",
  "parentHash": "0x06b981c8b1ab21e4e9228aa9fd4cfe0bffb643a9ed25819b28649d1a11ffbad4",
  "number": 85954,
  "timestamp": 1439571338,
  "nonce": "0x8e37fddf295d8ccf",
  "difficulty": 2785339212579,
  "gasLimit": {
    "_hex": "0x2fefd8"
  },
  "gasUsed": {
    "_hex": "0xa410"
  },
  "miner": "0x05f74a38293C914C6B14a39f5d8dEa98f22E4FBA",
  "extraData": "0x",
  "transactions": [
    {
      "hash": "0xc3024471340f75ba7ae487d014cd215df9945a800ecdacecf7b4bfca5fa34d3b",
      "blockHash": "0x32fabfa348f1299cce5340c947f366ce552b340eac2bf9c458135cb7bd09d3fa",
      "blockNumber": 85954,
      "transactionIndex": 0,
      "confirmations": null,
      "from": "0x6534B8e66572C2822b90301C26Fc221B0AC0efDa",
      "gasPrice": {
        "_hex": "0xde7ca1fc4"
      },
      "gasLimit": {
        "_hex": "0x5208"
      },
      "to": "0x32Be343B94f860124dC4fEe278FDCBD38C102D88",
      "value": {
        "_hex": "0x3b3b6fe6baeb2c0000"
      },
      "nonce": 1,
      "data": "0x",
      "r": "0x02263c03f6291029e004546e4e8d8b3b76bd78fc476e5b9d92ecfff102eb0b9a",
      "s": "0x479a6425722802c57642c920ae2fc943dbf3b9d3bf2a6dc506b5f3a57210e273",
      "v": 27,
      "creates": null,
      "raw": "0xf86d01850de7ca1fc48252089432be343b94f860124dc4fee278fdcbd38c102d88893b3b6fe6baeb2c0000801ba002263c03f6291029e004546e4e8d8b3b76bd78fc476e5b9d92ecfff102eb0b9aa0479a6425722802c57642c920ae2fc943dbf3b9d3bf2a6dc506b5f3a57210e273",
      "networkId": 0,
      "chainId": 0
    },
    {
      "hash": "0xf507993e1da9c3d40b5b2f18e60c4b9693ff98e1ac595b2366b8843e4b3fabf0",
      "blockHash": "0x32fabfa348f1299cce5340c947f366ce552b340eac2bf9c458135cb7bd09d3fa",
      "blockNumber": 85954,
      "transactionIndex": 1,
      "confirmations": null,
      "from": "0x1463cEF3d9007Db05b7C3B8981D38602EE0D855a",
      "gasPrice": {
        "_hex": "0xde7ca1fc4"
      },
      "gasLimit": {
        "_hex": "0x5208"
      },
      "to": "0x32Be343B94f860124dC4fEe278FDCBD38C102D88",
      "value": {
        "_hex": "0x2b5df3a68d419c000"
      },
      "nonce": 4,
      "data": "0x",
      "r": "0x74e048354686ae38780f09e71ae2a36de17f7e7fadadfea3b7213103a06d388f",
      "s": "0x5acf661b733f6e38d4beac5e9f9d26453f630c757d0d328f247ceb22cef07f5a",
      "v": 27,
      "creates": null,
      "raw": "0xf86d04850de7ca1fc48252089432be343b94f860124dc4fee278fdcbd38c102d888902b5df3a68d419c000801ba074e048354686ae38780f09e71ae2a36de17f7e7fadadfea3b7213103a06d388fa05acf661b733f6e38d4beac5e9f9d26453f630c757d0d328f247ceb22cef07f5a",
      "networkId": 0,
      "chainId": 0
    }
  ]
}