{
  "hash": "0x50191b3015e12ea4759af8e74590c36680dfdfd9f9215e82cbe7be5569717472",
  "parentHash": "0xe071781b83af60a245b81c93f10833eafe924a4be2e6158b3a15a1ef2aa67358",
  "number": 81688,
  "timestamp": 1439505958,
  "nonce": "0x2306ebebb02a1502",
  "difficulty": 2433026643113,
  "gasLimit": {
    "_hex": "0x2fefd5"
  },
  "gasUsed": {
    "_hex": "0x5208"
  },
  "miner": "0x958fEE99162C77a8F022cA318a9Ee0463D2E9390",
  "extraData": "0xdd809b302e392e34302b2b616339342d5257696e646f2f6d73762f4a4954",
  "transactions": [
    {
      "hash": "0x89bc6778b37a6278445103e0660f02ec1bf8eba349b77749bbac3891e8e1d50e",
      "blockHash": "0x50191b3015e12ea4759af8e74590c36680dfdfd9f9215e82cbe7be5569717472",
      "blockNumber": 81688,
      "transactionIndex": 0,
      "confirmations": null,
      "from": "0x2910543Af39abA0Cd09dBb2D50200b3E800A63D2",
      "gasPrice": {
        "_hex": "0xd9c4915d0"
      },
      "gasLimit": {
        "_hex": "0x5208"
      },
      "to": "0xECbeBf25a95101fd892142Fc64063833BF3F2EE1",
      "value": {
        "_hex": "0xe7ca170a0d7838000"
      },
      "nonce": 495,
      "data": "0x",
      "r": "0x74fc5565c480ff54eaf09b67a5cf751a576b8d90eec8c536a42e2c0217d180cf",
      "s": "0x3463fefb9c17c5499f43ba5ce35fab3a42a1e9085c38cc53c417ed010dd9260f",
      "v": 27,
      "creates": null,
      "raw": "0xf86f8201ef850d9c4915d082520894ecbebf25a95101fd892142fc64063833bf3f2ee1890e7ca170a0d7838000801ba074fc5565c480ff54eaf09b67a5cf751a576b8d90eec8c536a42e2c0217d180cfa03463fefb9c17c5499f43ba5ce35fab3a42a1e9085c38cc53c417ed010dd9260f",
      "networkId": 0,
      "chainId": 0
    }
  ]
}