{
  "hash": "0x8c08483d8ae2ec7307ceab831bd9cae62985dccf20baae73b49e6ec2195c0254",
  "parentHash": "0x3edf2de08dd7c56e8c3b60e837ae60a262c9831b63cd02d5da3e74131fddda28",
  "number": 103288,
  "timestamp": 1439850769,
  "nonce": "0x1591f4ccb10084b9",
  "difficulty": 4176735190617,
  "gasLimit": {
    "_hex": "0x2fefd8"
  },
  "gasUsed": {
    "_hex": "0x5208"
  },
  "miner": "0x7E6930B63D03e88F5928C5cd6ee3FCee4D714F7F",
  "extraData": "0x",
  "transactions": [
    {
      "hash": "0x6834b849f8dcac139699577028563aad4183b4c586c7485a636d89289c8d3f92",
      "blockHash": "0x8c08483d8ae2ec7307ceab831bd9cae62985dccf20baae73b49e6ec2195c0254",
      "blockNumber": 103288,
      "transactionIndex": 0,
      "confirmations": null,
      "from": "0x60a175bB691fEE8557a7b6D8eFC9E49889486f41",
      "gasPrice": {
        "_hex": "0xd63b57d25"
      },
      "gasLimit": {
        "_hex": "0x15f90"
      },
      "to": "0xBb7f43EDfd8bf08B022fEd5BD91e3f9dE7e74D09",
      "value": {
        "_hex": "0x4563918244f40000"
      },
      "nonce": 4,
      "data": "0x",
      "r": "0x274725218e5995018e167db0ae7c940124fea3ac23d7e7779cf15e80ea2f5d78",
      "s": "0x46b1f1dd8b3b890ba8a8e800f2437346c726af0917cf2829260da07dc031adbf",
      "v": 28,
      "creates": null,
      "raw": "0xf86d04850d63b57d2583015f9094bb7f43edfd8bf08b022fed5bd91e3f9de7e74d09884563918244f40000801ca0274725218e5995018e167db0ae7c940124fea3ac23d7e7779cf15e80ea2f5d78a046b1f1dd8b3b890ba8a8e800f2437346c726af0917cf2829260da07dc031adbf",
      "networkId": 0,
      "chainId": 0
    }
  ]
}