{
  "hash": "0xfac0326f3b35ed219381ba8735ec7b48db27376764aca74b95ee5637201cab08",
  "parentHash": "0x9482f0817ffbfe1acf69335695a6ac6ee0392cc4e24b4a722e651dcf811b172b",
  "number": 80752,
  "timestamp": 1439490254,
  "nonce": "0x6f178f2e7ea3a967",
  "difficulty": 2442821795531,
  "gasLimit": {
    "_hex": "0x2fefd8"
  },
  "gasUsed": {
    "_hex": "0x546c"
  },
  "miner": "0x580992B51e3925e23280EfB93d3047C82f17E038",
  "extraData": "0x476574682f76312e302e312f6c696e75782f676f312e342e32",
  "transactions": [
    {
      "hash": "0xb091f774fd59eac927d358c718fc3151e640c6b130c21e72d9bd7f990fe96441",
      "blockHash": "0xfac0326f3b35ed219381ba8735ec7b48db27376764aca74b95ee5637201cab08",
      "blockNumber": 80752,
      "transactionIndex": 0,
      "confirmations": null,
      "from": "0x6a6b18a45A76467e2E5d5A2ef911c3e12929857B",
      "gasPrice": {
        "_hex": "0x110c8f7d8de"
      },
      "gasLimit": {
        "_hex": "0xc350"
      },
      "to": "0x2910543Af39abA0Cd09dBb2D50200b3E800A63D2",
      "value": {
        "_hex": "0x10f0cf064dd592000000"
      },
      "nonce": 0,
      "data": "0x454e52355044435738",
      "r": "0x32756fc9caa06f6627c52e86bb699db4e0f6def9f58d6877767ae04906d23b2f",
      "s": "0x6470329c74a8188573f81a28ac7f1b27d0323037f4d1c517318f9202127aac14",
      "v": 28,
      "creates": null,
      "raw": "0xf87880860110c8f7d8de82c350942910543af39aba0cd09dbb2d50200b3e800a63d28a10f0cf064dd59200000089454e523550444357381ca032756fc9caa06f6627c52e86bb699db4e0f6def9f58d6877767ae04906d23b2fa06470329c74a8188573f81a28ac7f1b27d0323037f4d1c517318f9202127aac14",
      "networkId": 0,
      "chainId": 0
    }
  ]
}