{
  "hash": "0x7486c29aec1a191b627d74c757df7f683676c223ac165651fa567747e7897157",
  "parentHash": "0x9edeab28ba48e44fd67024eddd8c9142e44e68bf254b4fbf8557a2399a23c2c2",
  "number": 101653,
  "timestamp": 1439826032,
  "nonce": "0x8627729491e68315",
  "difficulty": 3888204349539,
  "gasLimit": {
    "_hex": "0x2fefd8"
  },
  "gasUsed": {
    "_hex": "0x5208"
  },
  "miner": "0x9D49F602b0fdb924Bd63DDE2Bd0907E4A07c63a7",
  "extraData": "0x476574682f76312e302e312f6c696e75782f676f312e342e32",
  "transactions": [
    {
      "hash": "0x8277e855391edb0e4e463337144e5fd164f45485b5dfb601c824466332501155",
      "blockHash": "0x7486c29aec1a191b627d74c757df7f683676c223ac165651fa567747e7897157",
      "blockNumber": 101653,
      "transactionIndex": 0,
      "confirmations": null,
      "from": "0x0B021AE3828795E6F60e5fac5626d3F0e0033995",
      "gasPrice": {
        "_hex": "0xde3531793"
      },
      "gasLimit": {
        "_hex": "0x5208"
      },
      "to": "0xFBb1b73C4f0BDa4f67dcA266ce6Ef42f520fBB98",
      "value": {
        "_hex": "0xad78a491b0dfa2d68"
      },
      "nonce": 0,
      "data": "0x",
      "r": "0x1d60e575454aca81838f6188005b722d2d1ddbf27e1f7b23a2654af06f3d4bf4",
      "s": "0x0aee38f0d2902a6975cfc1bb7bd3673fbedf855d9ced1c76612adad86c3418c3",
      "v": 27,
      "creates": null,
      "raw": "0xf86d80850de353179382520894fbb1b73c4f0bda4f67dca266ce6ef42f520fbb98890ad78a491b0dfa2d68801ba01d60e575454aca81838f6188005b722d2d1ddbf27e1f7b23a2654af06f3d4bf4a00aee38f0d2902a6975cfc1bb7bd3673fbedf855d9ced1c76612adad86c3418c3",
      "networkId": 0,
      "chainId": 0
    }
  ]
}