{
  "hash": "0xed3f0de29dd5c1394f20bb97b5a30c4ddaad2e0700012c600be45eb979599632",
  "parentHash": "0xd8b9bd1076a6540af78cbb00157d6bfad57c663a39b689eb85a6f4ee2c929fac",
  "number": 77736,
  "timestamp": 1439442074,
  "nonce": "0x2804f8d9f2bd5110",
  "difficulty": 2271115650302,
  "gasLimit": {
    "_hex": "0x2fefd8"
  },
  "gasUsed": {
    "_hex": "0xe1a7"
  },
  "miner": "0xe6A7a1d47ff21B6321162AEA7C6CB457D5476Bca",
  "extraData": "0x476574682f76312e302e312d38326566323666362f6c696e75782f676f312e34",
  "transactions": [
    {
      "hash": "0x9507d26a8380c8d24540263dc79be1400e1c07c73bd6164e3e87880263f12ff8",
      "blockHash": "0xed3f0de29dd5c1394f20bb97b5a30c4ddaad2e0700012c600be45eb979599632",
      "blockNumber": 77736,
      "transactionIndex": 0,
      "confirmations": null,
      "from": "0x326Be8F71bFb0379f989aAB1CC1fE37f0a771f60",
      "gasPrice": {
        "_hex": "0x10dc90d85e7"
      },
      "gasLimit": {
        "_hex": "0x493e0"
      },
      "to": "0xD79B4C6791784184e2755B2fC1659eaaB0f80456",
      "value": {
        "_hex": "0xde0b6b3a7640000"
      },
      "nonce": 116,
      "data": "0x8d21618600000000000000000000000000000000000000000000000000000000000000806c9849dc80baf84f1cbb24d2bdaac817fd8818701f984bb358cecdce55150d02",
      "r": "0x057d28cd78518de60f361bf5aa54e7959f00ebea49609994ca2c523a5a2813b7",
      "s": "0x415d75c12c0bcb0f1e775586ec9aa2b71273b543c4c1db560cfa73916b85792b",
      "v": 28,
      "creates": null,
      "raw": "0xf8b37486010dc90d85e7830493e094d79b4c6791784184e2755b2fc1659eaab0f80456880de0b6b3a7640000b8448d21618600000000000000000000000000000000000000000000000000000000000000806c9849dc80baf84f1cbb24d2bdaac817fd8818701f984bb358cecdce55150d021ca0057d28cd78518de60f361bf5aa54e7959f00ebea49609994ca2c523a5a2813b7a0415d75c12c0bcb0f1e775586ec9aa2b71273b543c4c1db560cfa73916b85792b",
      "networkId": 0,
      "chainId": 0
    },
    {
      "hash": "0x1f26d5914ea17f6bd0b942e8576475eaec3c5f29ed8d3dc09e52aca6fda37a0e",
      "blockHash": "0xed3f0de29dd5c1394f20bb97b5a30c4ddaad2e0700012c600be45eb979599632",
      "blockNumber": 77736,
      "transactionIndex": 1,
      "confirmations": null,
      "from": "0xF2d2AfF1320476cb8C6b607199D23175cc595693",
      "gasPrice": {
        "_hex": "0xcdafa2a70"
      },
      "gasLimit": {
        "_hex": "0x15f90"
      },
      "to": "0xF5EeDc192aB70b08D8354384aD94efD095849E00",
      "value": {
        "_hex": "0x4563918244f400000"
      },
      "nonce": 27,
      "data": "0x",
      "r": "0xcb259a50d6a8e37534a0c3412cdd7c1e5429723e26f51827c74f708a530f7660",
      "s": "0x187a45a74e7e1f0f07d1c551c710b8c3811434f88c1ce9a774eb05d9a0c22361",
      "v": 27,
      "creates": null,
      "raw": "0xf86e1b850cdafa2a7083015f9094f5eedc192ab70b08d8354384ad94efd095849e008904563918244f400000801ba0cb259a50d6a8e37534a0c3412cdd7c1e5429723e26f51827c74f708a530f7660a0187a45a74e7e1f0f07d1c551c710b8c3811434f88c1ce9a774eb05d9a0c22361",
      "networkId": 0,
      "chainId": 0
    }
  ]
}