{
  "hash": "0xfa61092ac13c48f5156e121e932070353b3651e53d0cd7c1cd0f91d4e03ff81c",
  "parentHash": "0x6dfb842b774c8e5a34a6efb54af57ef3420d7fee6a9b16e09d6aed5fb3653ba1",
  "number": 95216,
  "timestamp": 1439720702,
  "nonce": "0x3682e6b73a2db3fc",
  "difficulty": 3544698363181,
  "gasLimit": {
    "_hex": "0x2fefd8"
  },
  "gasUsed": {
    "_hex": "0x5208"
  },
  "miner": "0xe6A7a1d47ff21B6321162AEA7C6CB457D5476Bca",
  "extraData": "0x476574682f76312e302e312d38326566323666362f6c696e75782f676f312e34",
  "transactions": [
    {
      "hash": "0x80a3ad826507c191f4bb186cebbfd0511872fda140e15e687b2dda9edd143613",
      "blockHash": "0xfa61092ac13c48f5156e121e932070353b3651e53d0cd7c1cd0f91d4e03ff81c",
      "blockNumber": 95216,
      "transactionIndex": 0,
      "confirmations": null,
      "from": "0x32Be343B94f860124dC4fEe278FDCBD38C102D88",
      "gasPrice": {
        "_hex": "0xd556c0820"
      },
      "gasLimit": {
        "_hex": "0x5208"
      },
      "to": "0xbB7735934F8229F1fc2e76F7AfD82e14AA1e8E81",
      "value": {
        "_hex": "0x51508afdb65e300000"
      },
      "nonce": 978,
      "data": "0x",
      "r": "0x9bea9abe2d315eebb979d9220f0baeb45a0cb0a4611a99ade9a3dbf83df1c070",
      "s": "0x23507668555a00c49fae57f12d5af1b562e98a8ce9b24f60928557ba922d81c1",
      "v": 27,
      "creates": null,
      "raw": "0xf86f8203d2850d556c082082520894bb7735934f8229f1fc2e76f7afd82e14aa1e8e818951508afdb65e300000801ba09bea9abe2d315eebb979d9220f0baeb45a0cb0a4611a99ade9a3dbf83df1c070a023507668555a00c49fae57f12d5af1b562e98a8ce9b24f60928557ba922d81c1",
      "networkId": 0,
      "chainId": 0
    }
  ]
}