{
  "hash": "0xc94f47ecb6c26e84f77decfccad7f5786f1e73ecb7bd44397ce28965d96c093d",
  "parentHash": "0xd578a327ab51f1b60c26545daa0702ff8661a3e21e54cd735536f0489c1ec05d",
  "number": 71127,
  "timestamp": 1439331245,
  "nonce": "0x9b79c7a6074f06e8",
  "difficulty": 2144601099802,
  "gasLimit": {
    "_hex": "0x2fefd8"
  },
  "gasUsed": {
    "_hex": "0x5208"
  },
  "miner": "0xe6A7a1d47ff21B6321162AEA7C6CB457D5476Bca",
  "extraData": "0x476574682f76312e302e312d38326566323666362f6c696e75782f676f312e34",
  "transactions": [
    {
      "hash": "0x209d9f849fcb1abacf78cb67343dd5d3e93c874aeeeebde7d4073790a9b3f249",
      "blockHash": "0xc94f47ecb6c26e84f77decfccad7f5786f1e73ecb7bd44397ce28965d96c093d",
      "blockNumber": 71127,
      "transactionIndex": 0,
      "confirmations": null,
      "from": "0x32Be343B94f860124dC4fEe278FDCBD38C102D88",
      "gasPrice": {
        "_hex": "0xdfd74e538"
      },
      "gasLimit": {
        "_hex": "0x5208"
      },
      "to": "0x00409849D932460343859C61C65563734993bDaA",
      "value": {
        "_hex": "0x1b9de674df070000"
      },
      "nonce": 265,
      "data": "0x",
      "r": "0x5a7da5be9e4451394d61086db8811a05c7da52d7f110449f347f218c818f6a42",
      "s": "0x6fdeb6c65ee236c98500fca55c4f6d8f488a7e5264ed9f02182c1eb88c6b5875",
      "v": 27,
      "creates": null,
      "raw": "0xf86e820109850dfd74e5388252089400409849d932460343859c61c65563734993bdaa881b9de674df070000801ba05a7da5be9e4451394d61086db8811a05c7da52d7f110449f347f218c818f6a42a06fdeb6c65ee236c98500fca55c4f6d8f488a7e5264ed9f02182c1eb88c6b5875",
      "networkId": 0,
      "chainId": 0
    }
  ]
}