{
  "hash": "0xf72b0cba525b91bfd0e64146a9d51225c5858ac95df70cbef37458c3b5339145",
  "parentHash": "0x014ff9d420b1334592348587142f08ae80096a4ed90f79fbe4cfd7cb4b21a4fe",
  "number": 88162,
  "timestamp": 1439603686,
  "nonce": "0xe14380e907e3cc79",
  "difficulty": 3205062089232,
  "gasLimit": {
    "_hex": "0x2fefd8"
  },
  "gasUsed": {
    "_hex": "0xa410"
  },
  "miner": "0x01d9DA08cc6Fb97c0DE1B6F4C28910A0859Ed1A1",
  "extraData": "0x476574682f76312e302e312f6c696e75782f676f312e342e32",
  "transactions": [
    {
      "hash": "0x03c93e8d7e1a43f409070bd82ab680f4d538cc2a017d67ca63180b3e01da6683",
      "blockHash": "0xf72b0cba525b91bfd0e64146a9d51225c5858ac95df70cbef37458c3b5339145",
      "blockNumber": 88162,
      "transactionIndex": 0,
      "confirmations": null,
      "from": "0xCbe52Fc533D7Dd608C92a260b37c3F45Deb4EB33",
      "gasPrice": {
        "_hex": "0xfecc2ee149"
      },
      "gasLimit": {
        "_hex": "0x15f90"
      },
      "to": "0x365DE8355B8cDe6EfcC572f8431bFaFe38A32269",
      "value": {
        "_hex": "0x3625d8f2598e1255c0"
      },
      "nonce": 1,
      "data": "0x",
      "r": "0x1b144183bac79cd650b89c48e7c32dd98fa69e905ac6892d05a6942700f41d2b",
      "s": "0x6f64661053840bc9288ff7dbd34f1b4cb673495ea88c818a9afa63a87c85b214",
      "v": 28,
      "creates": null,
      "raw": "0xf86e0185fecc2ee14983015f9094365de8355b8cde6efcc572f8431bfafe38a32269893625d8f2598e1255c0801ca01b144183bac79cd650b89c48e7c32dd98fa69e905ac6892d05a6942700f41d2ba06f64661053840bc9288ff7dbd34f1b4cb673495ea88c818a9afa63a87c85b214",
      "networkId": 0,
      "chainId": 0
    },
    {
      "hash": "0xb8004a7c83145a60694a36c12b8d08d7922a9efea3cae8a34c02b03c1bcea79a",
      "blockHash": "0xf72b0cba525b91bfd0e64146a9d51225c5858ac95df70cbef37458c3b5339145",
      "blockNumber": 88162,
      "transactionIndex": 1,
      "confirmations": null,
      "from": "0x2910543Af39abA0Cd09dBb2D50200b3E800A63D2",
      "gasPrice": {
        "_hex": "0xd8d0ce49a"
      },
      "gasLimit": {
        "_hex": "0x5208"
      },
      "to": "0x8284fDa6f59DFb02044c6989E2EE89c4Ec6dDD8b",
      "value": {
        "_hex": "0x1a4aa85ee2e8938000"
      },
      "nonce": 722,
      "data": "0x",
      "r": "0xa5a126cf0d9155c5e6d0a61d948e2533e4bd54753a8d444bb288703dbea37812",
      "s": "0x1961b3d295e7397a933086ea8b09fcf0bbc7075a5c4280fa35996a6d1b57e966",
      "v": 27,
      "creates": null,
      "raw": "0xf86f8202d2850d8d0ce49a825208948284fda6f59dfb02044c6989e2ee89c4ec6ddd8b891a4aa85ee2e8938000801ba0a5a126cf0d9155c5e6d0a61d948e2533e4bd54753a8d444bb288703dbea37812a01961b3d295e7397a933086ea8b09fcf0bbc7075a5c4280fa35996a6d1b57e966",
      "networkId": 0,
      "chainId": 0
    }
  ]
}