{
  "hash": "0x628623f9c173a4b208745ca7e2ebb189a4bf800e20805b2f52ed39b1a505aee7",
  "parentHash": "0x8be45664da75bf7f44c9d317c52db3f8b3500cfed9bf16cc86080f2d56b0ac01",
  "number": 61016,
  "timestamp": 1439165245,
  "nonce": "0xa1a0b18c48343754",
  "difficulty": 1741394484453,
  "gasLimit": {
    "_hex": "0x2fefd8"
  },
  "gasUsed": {
    "_hex": "0x5208"
  },
  "miner": "0x9746c7e1ef2bd21FF3997fa467593a89cb852BD0",
  "extraData": "0x476574682f76312e302e312f77696e646f77732f676f312e342e32",
  "transactions": [
    {
      "hash": "0xc77cd1ab684e65f5962862a839a95c00d88b60de9ce5086aa0a8b8fb0ba1a950",
      "blockHash": "0x628623f9c173a4b208745ca7e2ebb189a4bf800e20805b2f52ed39b1a505aee7",
      "blockNumber": 61016,
      "transactionIndex": 0,
      "confirmations": null,
      "from": "0x120A270bbC009644e35F0bB6ab13f95b8199c4ad",
      "gasPrice": {
        "_hex": "0xdd862de84"
      },
      "gasLimit": {
        "_hex": "0x15f90"
      },
      "to": "0x22ce7561C8196CEd2b68BDD8FbaAA9e661864505",
      "value": {
        "_hex": "0x4563918244f40000"
      },
      "nonce": 66,
      "data": "0x",
      "r": "0x74734d6176cd02e767a17952fc3fde00eb18a78dae64f6fc4315f4ec7dbeeadb",
      "s": "0x20f822ae36cfde22f82038554a3408c71f7a9ef3438a591330238d3e4da6da03",
      "v": 28,
      "creates": null,
      "raw": "0xf86d42850dd862de8483015f909422ce7561c8196ced2b68bdd8fbaaa9e661864505884563918244f40000801ca074734d6176cd02e767a17952fc3fde00eb18a78dae64f6fc4315f4ec7dbeeadba020f822ae36cfde22f82038554a3408c71f7a9ef3438a591330238d3e4da6da03",
      "networkId": 0,
      "chainId": 0
    }
  ]
}