{
  "hash": "0x48a68bce7cd7e2bb015d3071c0ba71fd24cb04b819e70bc7f0d21cd0b7462878",
  "parentHash": "0x12e3c25d4a5588348ad5f65fccbc174d28612e3cb9b18085fb9c7386b552d5dd",
  "number": 79737,
  "timestamp": 1439474360,
  "nonce": "0x9eba53c1ac3bf1b1",
  "difficulty": 2346083859131,
  "gasLimit": {
    "_hex": "0x2fefd8"
  },
  "gasUsed": {
    "_hex": "0xf618"
  },
  "miner": "0x785ffdDd5cE55c6DF963f345e68d3F2024E5Acb1",
  "extraData": "0x",
  "transactions": [
    {
      "hash": "0xdfffd74d7316a9527d73a7937a08917bf9ac87b70a0aa5cd2546c66a49b74123",
      "blockHash": "0x48a68bce7cd7e2bb015d3071c0ba71fd24cb04b819e70bc7f0d21cd0b7462878",
      "blockNumber": 79737,
      "transactionIndex": 0,
      "confirmations": null,
      "from": "0x2910543Af39abA0Cd09dBb2D50200b3E800A63D2",
      "gasPrice": {
        "_hex": "0xdd27aed6d"
      },
      "gasLimit": {
        "_hex": "0x5208"
      },
      "to": "0x5C8255aDccA7A442bfD8c38F420B7E5BA5852a7f",
      "value": {
        "_hex": "0xad77cf8e18e3f8000"
      },
      "nonce": 370,
      "data": "0x",
      "r": "0x1a34df3252366cb4ef349685f144de48941f6197eaa351af44af03500b0b8df8",
      "s": "0x6e99b10ec74d19681ab1b1182eb8ed3279c2d6adaa8d49208f746b422254ddba",
      "v": 27,
      "creates": null,
      "raw": "0xf86f820172850dd27aed6d825208945c8255adcca7a442bfd8c38f420b7e5ba5852a7f890ad77cf8e18e3f8000801ba01a34df3252366cb4ef349685f144de48941f6197eaa351af44af03500b0b8df8a06e99b10ec74d19681ab1b1182eb8ed3279c2d6adaa8d49208f746b422254ddba",
      "networkId": 0,
      "chainId": 0
    },
    {
      "hash": "0xd614adef045cf268d5f8280cf5d0146f396f6100aeb9c1996af5fe1f5fc99927",
      "blockHash": "0x48a68bce7cd7e2bb015d3071c0ba71fd24cb04b819e70bc7f0d21cd0b7462878",
      "blockNumber": 79737,
      "transactionIndex": 1,
      "confirmations": null,
      "from": "0x2910543Af39abA0Cd09dBb2D50200b3E800A63D2",
      "gasPrice": {
        "_hex": "0xdd27aed6d"
      },
      "gasLimit": {
        "_hex": "0x5208"
      },
      "to": "0x900755EB624662556E5c2A2467d2057790397545",
      "value": {
        "_hex": "0x44b0d28e82b0f8000"
      },
      "nonce": 371,
      "data": "0x",
      "r": "0x781017296c090601dbadea8b91079d63f9eea8cf7a160e25274561fb40c92cd8",
      "s": "0x58caebc529949ee6bd58f20bb28ef9324e16fc60678a0d6598fe68ccc751c999",
      "v": 27,
      "creates": null,
      "raw": "0xf86f820173850dd27aed6d82520894900755eb624662556e5c2a2467d205779039754589044b0d28e82b0f8000801ba0781017296c090601dbadea8b91079d63f9eea8cf7a160e25274561fb40c92cd8a058caebc529949ee6bd58f20bb28ef9324e16fc60678a0d6598fe68ccc751c999",
      "networkId": 0,
      "chainId": 0
    },
    {
      "hash": "0xa074fbce54bb5b4c66da6025ac16e85aaff3a1843effe6ed4c0abcc1eea83138",
      "blockHash": "0x48a68bce7cd7e2bb015d3071c0ba71fd24cb04b819e70bc7f0d21cd0b7462878",
      "blockNumber": 79737,
      "transactionIndex": 2,
      "confirmations": null,
      "from": "0xc597A5d92F5dC1137D847db733cfe02c6d209f13",
      "gasPrice": {
        "_hex": "0xd5c45475a"
      },
      "gasLimit": {
        "_hex": "0x15f90"
      },
      "to": "0x95D26518548e038C30909c1B24E95c7Cb9CDbFd9",
      "value": {
        "_hex": "0x1158e460913d00000"
      },
      "nonce": 16,
      "data": "0x",
      "r": "0x49f2be1187b20a972c5ec29e5e2c16ffb3a1a5862fce1b99bc4886c614686f1b",
      "s": "0x58cccbf92119359fd54d6d2b022823cae2c39a406cd1ced9a88a825454124428",
      "v": 28,
      "creates": null,
      "raw": "0xf86e10850d5c45475a83015f909495d26518548e038c30909c1b24e95c7cb9cdbfd98901158e460913d00000801ca049f2be1187b20a972c5ec29e5e2c16ffb3a1a5862fce1b99bc4886c614686f1ba058cccbf92119359fd54d6d2b022823cae2c39a406cd1ced9a88a825454124428",
      "networkId": 0,
      "chainId": 0
    }
  ]
}