{
  "hash": "0x649111ca0a1e716713a68cacc3186e1d9fd29fe11c25bd22afc37a16b7419169",
  "parentHash": "0x3aaa53c860c5630e007e961ec4ea694afca79a7b921aeaea0891c6fcb2d2097f",
  "number": 71644,
  "timestamp": 1439339516,
  "nonce": "0xcf765eb3e4c278a3",
  "difficulty": 2179303257231,
  "gasLimit": {
    "_hex": "0x2fefd8"
  },
  "gasUsed": {
    "_hex": "0xe5ba"
  },
  "miner": "0xa70a9a7040d542C632D8e0bE7c5513A8a5Bbc752",
  "extraData": "0x",
  "transactions": [
    {
      "hash": "0xc488ea06a232cd8e1d6df2f935fda3e2f08bf56ed675e1af4e3d1c9e67a7f8e7",
      "blockHash": "0x649111ca0a1e716713a68cacc3186e1d9fd29fe11c25bd22afc37a16b7419169",
      "blockNumber": 71644,
      "transactionIndex": 0,
      "confirmations": null,
      "from": "0x723E05fF30e4ba7A87b4D7D459eE5B488A9c36d1",
      "gasPrice": {
        "_hex": "0xe00816104"
      },
      "gasLimit": {
        "_hex": "0x15f90"
      },
      "to": "0xabceA603089850F8f6bB612A9031554D90A247CF",
      "value": {
        "_hex": "0x4563918244f40000"
      },
      "nonce": 3,
      "data": "0x",
      "r": "0x3a0d0f8440feb9b7a9c7b3d40088cb588c30feeb5df088860266a30c91256274",
      "s": "0x7dfecec217059b12e65e30a7b5b5f742be0ccec5342ad24aad0bb618c1a79b81",
      "v": 28,
      "creates": null,
      "raw": "0xf86d03850e0081610483015f9094abcea603089850f8f6bb612a9031554d90a247cf884563918244f40000801ca03a0d0f8440feb9b7a9c7b3d40088cb588c30feeb5df088860266a30c91256274a07dfecec217059b12e65e30a7b5b5f742be0ccec5342ad24aad0bb618c1a79b81",
      "networkId": 0,
      "chainId": 0
    },
    {
      "hash": "0xedeb5db83753fa733c70a1f626de2a912fa69f045c2edffe03fc86c443e67db2",
      "blockHash": "0x649111ca0a1e716713a68cacc3186e1d9fd29fe11c25bd22afc37a16b7419169",
      "blockNumber": 71644,
      "transactionIndex": 1,
      "confirmations": null,
      "from": "0x17580B766f7453525ca4C6A88b01b50570EA088C",
      "gasPrice": {
        "_hex": "0xce57db3f2"
      },
      "gasLimit": {
        "_hex": "0x61a80"
      },
      "to": "0x5Fe5B7546D1628f7348B023A0393de1FC825A4fD",
      "value": {
        "_hex": "0x1bc16d674ec80000"
      },
      "nonce": 242,
      "data": "0xb595b8b50000000000000000000000000000000000000000000000000000000000000000",
      "r": "0xbda4934201eb558df484fa6fde64337a9d9125fee0a2002a0cb1f225eb072efd",
      "s": "0x3da12dfe891e865cd152965dec0c7923f7d599245105a5d0e0f18433eca57518",
      "v": 27,
      "creates": null,
      "raw": "0xf89281f2850ce57db3f283061a80945fe5b7546d1628f7348b023a0393de1fc825a4fd881bc16d674ec80000a4b595b8b500000000000000000000000000000000000000000000000000000000000000001ba0bda4934201eb558df484fa6fde64337a9d9125fee0a2002a0cb1f225eb072efda03da12dfe891e865cd152965dec0c7923f7d599245105a5d0e0f18433eca57518",
      "networkId": 0,
      "chainId": 0
    }
  ]
}