{
  "hash": "0xc257d2bfe0fa3c7fb1ac91b7b1c14db859b35a2bd605945c45eaf6c597c8608d",
  "parentHash": "0xffdc99c7bddd9ae7ba52ce062167ada151af2e7b86929221d022419123c1bdf0",
  "number": 105679,
  "timestamp": 1439891814,
  "nonce": "0x4abf58366c868430",
  "difficulty": 4390915861289,
  "gasLimit": {
    "_hex": "0x2fefd8"
  },
  "gasUsed": {
    "_hex": "0x5208"
  },
  "miner": "0xe6A7a1d47ff21B6321162AEA7C6CB457D5476Bca",
  "extraData": "0x476574682f76312e302e312d38326566323666362f6c696e75782f676f312e34",
  "transactions": [
    {
      "hash": "0xff4b5d36a38b05adefa75e9723b82aa2fb36d1af9e2b57a2b82d3e46c31e4dea",
      "blockHash": "0xc257d2bfe0fa3c7fb1ac91b7b1c14db859b35a2bd605945c45eaf6c597c8608d",
      "blockNumber": 105679,
      "transactionIndex": 0,
      "confirmations": null,
      "from": "0x9Fa9952255B2b06639A04D63804d4BdFFf6E2d7e",
      "gasPrice": {
        "_hex": "0xcdc06490e"
      },
      "gasLimit": {
        "_hex": "0x15f90"
      },
      "to": "0xE12517204a15E890f12755207271102F4800A0c4",
      "value": {
        "_hex": "0x2b5e3af16b1880000"
      },
      "nonce": 17,
      "data": "0x",
      "r": "0xd0fc318cdce4c1fa2fcff35bec37e50425316acf386d1c21eaef322dcf99513f",
      "s": "0x471736068640867c34c153d219c4e414d6820652cac131ab53de1efe59e73349",
      "v": 28,
      "creates": null,
      "raw": "0xf86e11850cdc06490e83015f9094e12517204a15e890f12755207271102f4800a0c48902b5e3af16b1880000801ca0d0fc318cdce4c1fa2fcff35bec37e50425316acf386d1c21eaef322dcf99513fa0471736068640867c34c153d219c4e414d6820652cac131ab53de1efe59e73349",
      "networkId": 0,
      "chainId": 0
    }
  ]
}