{
  "hash": "0xe929833ff3ea14a1e56da2b9096a2d12b668eff687b8415e66be6c6c887f20f6",
  "parentHash": "0x2423a17eba5106697283bd6b70364c4b0951dac8baf4700772bc35d405c878cd",
  "number": 105842,
  "timestamp": 1439894291,
  "nonce": "0x225fe623d390f397",
  "difficulty": 4453447681190,
  "gasLimit": {
    "_hex": "0x2fefd8"
  },
  "gasUsed": {
    "_hex": "0x5208"
  },
  "miner": "0xa70a9a7040d542C632D8e0bE7c5513A8a5Bbc752",
  "extraData": "0x",
  "transactions": [
    {
      "hash": "0x31e2f26a12d40de51f20a77c4d6062ae98841feabd53cf060c93f56bbe0ca486",
      "blockHash": "0xe929833ff3ea14a1e56da2b9096a2d12b668eff687b8415e66be6c6c887f20f6",
      "blockNumber": 105842,
      "transactionIndex": 0,
      "confirmations": null,
      "from": "0x79d5794171E11dd5C2f0e26E1C187319db2FE6f7",
      "gasPrice": {
        "_hex": "0xdc407cf13"
      },
      "gasLimit": {
        "_hex": "0x5208"
      },
      "to": "0x32Be343B94f860124dC4fEe278FDCBD38C102D88",
      "value": {
        "_hex": "0x455f284a120be400"
      },
      "nonce": 40,
      "data": "0x",
      "r": "0x9643daef9e4d1a6336c90cb781da265f70f32df3d0579eb5c5295276decec606",
      "s": "0x5b2396979c6e4e15baec5fc7c472e3e0a285d83ba7cd2206ff0d5c44d7188b7c",
      "v": 28,
      "creates": null,
      "raw": "0xf86c28850dc407cf138252089432be343b94f860124dc4fee278fdcbd38c102d8888455f284a120be400801ca09643daef9e4d1a6336c90cb781da265f70f32df3d0579eb5c5295276decec606a05b2396979c6e4e15baec5fc7c472e3e0a285d83ba7cd2206ff0d5c44d7188b7c",
      "networkId": 0,
      "chainId": 0
    }
  ]
}