{
  "hash": "0xed1eaf312742b460f3c04aa3560512b23041d0a83c6436f1442a550391ed39ce",
  "parentHash": "0xca227135407cb7f601d0e7f0cff1f65fe4a99481cf483476fcd53eedb8abb8bf",
  "number": 81275,
  "timestamp": 1439499001,
  "nonce": "0xc27b99f7c4fefd02",
  "difficulty": 2451032752172,
  "gasLimit": {
    "_hex": "0x2fefd8"
  },
  "gasUsed": {
    "_hex": "0xa410"
  },
  "miner": "0xe6A7a1d47ff21B6321162AEA7C6CB457D5476Bca",
  "extraData": "0x476574682f76312e302e312d38326566323666362f6c696e75782f676f312e34",
  "transactions": [
    {
      "hash": "0x1c94048e1cf4e5bd6f9603bcaf1fce7d4d6a1c81874374274dcedd9d08287ced",
      "blockHash": "0xed1eaf312742b460f3c04aa3560512b23041d0a83c6436f1442a550391ed39ce",
      "blockNumber": 81275,
      "transactionIndex": 0,
      "confirmations": null,
      "from": "0x9f2DCCCF9e6A2601798E05e9ab5Eb6ccf7bAA111",
      "gasPrice": {
        "_hex": "0xde5e89e00"
      },
      "gasLimit": {
        "_hex": "0x5208"
      },
      "to": "0x32Be343B94f860124dC4fEe278FDCBD38C102D88",
      "value": {
        "_hex": "0x56bb1269ff8d20000"
      },
      "nonce": 0,
      "data": "0x",
      "r": "0x5957ba4e9bb6b31a32426be0cd8ca71d1a9d8d9ddd2f5543e4eac5dc13bf6d3c",
      "s": "0x227b719abe4a0902b167bed0bd89f4ae1849e90ea75d77c865c6b1fe65391d09",
      "v": 28,
      "creates": null,
      "raw": "0xf86d80850de5e89e008252089432be343b94f860124dc4fee278fdcbd38c102d8889056bb1269ff8d20000801ca05957ba4e9bb6b31a32426be0cd8ca71d1a9d8d9ddd2f5543e4eac5dc13bf6d3ca0227b719abe4a0902b167bed0bd89f4ae1849e90ea75d77c865c6b1fe65391d09",
      "networkId": 0,
      "chainId": 0
    },
    {
      "hash": "0x58e27b2e9887484af1ae3e3f41380db2ac6e8256ea5dae7e51965193bf083715",
      "blockHash": "0xed1eaf312742b460f3c04aa3560512b23041d0a83c6436f1442a550391ed39ce",
      "blockNumber": 81275,
      "transactionIndex": 1,
      "confirmations": null,
      "from": "0x0422403B43601b14BDE8c376a5396C292D090dFB",
      "gasPrice": {
        "_hex": "0xde5e89e00"
      },
      "gasLimit": {
        "_hex": "0x5208"
      },
      "to": "0x32Be343B94f860124dC4fEe278FDCBD38C102D88",
      "value": {
        "_hex": "0x1228d54a7193cf0000"
      },
      "nonce": 1,
      "data": "0x",
      "r": "0x09d722b598af51ad6b3ac32202e862d987a60e3c3a3cc2f0ba3effd308bfa35d",
      "s": "0x7053f45c86a8c985adfada461c2c279d92bf9ae18f730feeb3ad4c29a3761dac",
      "v": 27,
      "creates": null,
      "raw": "0xf86d01850de5e89e008252089432be343b94f860124dc4fee278fdcbd38c102d88891228d54a7193cf0000801ba009d722b598af51ad6b3ac32202e862d987a60e3c3a3cc2f0ba3effd308bfa35da07053f45c86a8c985adfada461c2c279d92bf9ae18f730feeb3ad4c29a3761dac",
      "networkId": 0,
      "chainId": 0
    }
  ]
}