{
  "hash": "0xc2b04a2aef0f836dc03250acf0b1934970cc73c5a6b1c978e7cf0d335e64e51a",
  "parentHash": "0x18c84c0f80980b7d8c9d7beb5bbcb2c30807f81ea4958d7f812c39c84539ed50",
  "number": 110955,
  "timestamp": 1439982242,
  "nonce": "0x7af9b9c11c68475e",
  "difficulty": 4418254990155,
  "gasLimit": {
    "_hex": "0x2fefd8"
  },
  "gasUsed": {
    "_hex": "0x5208"
  },
  "miner": "0x580992B51e3925e23280EfB93d3047C82f17E038",
  "extraData": "0x476574682f76312e302e312f6c696e75782f676f312e342e32",
  "transactions": [
    {
      "hash": "0x7a7d41b719904353e366f39a885dd7d7664119ca065483aa1d721aab1003e4ec",
      "blockHash": "0xc2b04a2aef0f836dc03250acf0b1934970cc73c5a6b1c978e7cf0d335e64e51a",
      "blockNumber": 110955,
      "transactionIndex": 0,
      "confirmations": null,
      "from": "0xb1abce2918E21ddb93AA452731a12672A3d9F75a",
      "gasPrice": {
        "_hex": "0xdf00a91c2"
      },
      "gasLimit": {
        "_hex": "0x5208"
      },
      "to": "0x32Be343B94f860124dC4fEe278FDCBD38C102D88",
      "value": {
        "_hex": "0x455f1a2ede018800"
      },
      "nonce": 172,
      "data": "0x",
      "r": "0x0dc7cc201f95d763e2e9f91942b8796a9e8d8303d5e7bfa3868d8cbb1e5412cb",
      "s": "0x226b86e0c3437a6ce21a9cc6959e774eee8a3ebd19b59b5a463699e4d99b4bd3",
      "v": 28,
      "creates": null,
      "raw": "0xf86d81ac850df00a91c28252089432be343b94f860124dc4fee278fdcbd38c102d8888455f1a2ede018800801ca00dc7cc201f95d763e2e9f91942b8796a9e8d8303d5e7bfa3868d8cbb1e5412cba0226b86e0c3437a6ce21a9cc6959e774eee8a3ebd19b59b5a463699e4d99b4bd3",
      "networkId": 0,
      "chainId": 0
    }
  ]
}