{
  "hash": "0x0a97553881316f375a67b28ff20904d4d44c08f114e436bc8bfcc9dc31882d7b",
  "parentHash": "0x229ffd67cef4e063847b76ca5e55af24563a42db6a43744b25ad68c62474963c",
  "number": 80020,
  "timestamp": 1439478796,
  "nonce": "0xca016694f1caeba9",
  "difficulty": 2356336990408,
  "gasLimit": {
    "_hex": "0x2fefd8"
  },
  "gasUsed": {
    "_hex": "0xaa37"
  },
  "miner": "0xa50ec0D39fa913E62f1Bae7074E6F36caA71855b",
  "extraData": "0xd783010001844765746887676f312e342e32856c696e7578",
  "transactions": [
    {
      "hash": "0x0c3373355f0fae82233ce15a1dedf981239560e4718c9babc08bfcf3b4e568e6",
      "blockHash": "0x0a97553881316f375a67b28ff20904d4d44c08f114e436bc8bfcc9dc31882d7b",
      "blockNumber": 80020,
      "transactionIndex": 0,
      "confirmations": null,
      "from": "0x87C5B5874A18B4306DF8a752a6C8cc3E82daFc19",
      "gasPrice": {
        "_hex": "0xfe6af2d1e3"
      },
      "gasLimit": {
        "_hex": "0x493e0"
      },
      "to": "0xC4c51de1AbF5D60DBd329eC0F999Fd8f021ae9fC",
      "value": {
        "_hex": "0x0"
      },
      "nonce": 114,
      "data": "0x03750d9400000000000000000000000087c5b5874a18b4306df8a752a6c8cc3e82dafc196361740000000000000000000000000000000000000000000000000000000000",
      "r": "0x2a9ffb75b4d538e3d1e6803231a962d19231627448b63ca7a81853fa7078f83c",
      "s": "0x24749d6796fa000e0063c77385adf04f47365ade045218680d71435699e4c3dd",
      "v": 28,
      "creates": null,
      "raw": "0xf8aa7285fe6af2d1e3830493e094c4c51de1abf5d60dbd329ec0f999fd8f021ae9fc80b84403750d9400000000000000000000000087c5b5874a18b4306df8a752a6c8cc3e82dafc1963617400000000000000000000000000000000000000000000000000000000001ca02a9ffb75b4d538e3d1e6803231a962d19231627448b63ca7a81853fa7078f83ca024749d6796fa000e0063c77385adf04f47365ade045218680d71435699e4c3dd",
      "networkId": 0,
      "chainId": 0
    }
  ]
}