{
  "hash": "0x5f5df7d6eb591e732f086d392b90548c6719ac49e004ac3afefaca74a5027a48",
  "parentHash": "0xe72441212914d3aa56f9f023040911efb4224478156f7946ccb4047305851fad",
  "number": 112773,
  "timestamp": 1440012929,
  "nonce": "0x95e4a348b0efb4f3",
  "difficulty": 4447597376850,
  "gasLimit": {
    "_hex": "0x2fefd8"
  },
  "gasUsed": {
    "_hex": "0xa410"
  },
  "miner": "0xe6A7a1d47ff21B6321162AEA7C6CB457D5476Bca",
  "extraData": "0x476574682f76312e302e312d38326566323666362f6c696e75782f676f312e34",
  "transactions": [
    {
      "hash": "0x39cfa9d6bd6c7fb20904a7fd83a757665dd84b0d00a58933868b487026c2d418",
      "blockHash": "0x5f5df7d6eb591e732f086d392b90548c6719ac49e004ac3afefaca74a5027a48",
      "blockNumber": 112773,
      "transactionIndex": 0,
      "confirmations": null,
      "from": "0xe535C1c29F0091324F184de7a5be5520D1b0b008",
      "gasPrice": {
        "_hex": "0xd7371d539"
      },
      "gasLimit": {
        "_hex": "0x5208"
      },
      "to": "0x32Be343B94f860124dC4fEe278FDCBD38C102D88",
      "value": {
        "_hex": "0x225fd65bd6224400"
      },
      "nonce": 7,
      "data": "0x",
      "r": "0x95ef9550d76b9946e2b12a4810dccd9e7a67dfb87ca3955ca861c6174bd8b1e5",
      "s": "0x76ba69ff5ea78f768d5b1ffff2846de3539fb2aeec903fdf3d681f61e33a8016",
      "v": 27,
      "creates": null,
      "raw": "0xf86c07850d7371d5398252089432be343b94f860124dc4fee278fdcbd38c102d8888225fd65bd6224400801ba095ef9550d76b9946e2b12a4810dccd9e7a67dfb87ca3955ca861c6174bd8b1e5a076ba69ff5ea78f768d5b1ffff2846de3539fb2aeec903fdf3d681f61e33a8016",
      "networkId": 0,
      "chainId": 0
    },
    {
      "hash": "0x2d1538fa678e8b888fc7c3ff44097b1ffa927e80fe34878611516a11496aa9b3",
      "blockHash": "0x5f5df7d6eb591e732f086d392b90548c6719ac49e004ac3afefaca74a5027a48",
      "blockNumber": 112773,
      "transactionIndex": 1,
      "confirmations": null,
      "from": "0x0f36D8B9254f1B059d0B4c4FeEceB82EE24a6180",
      "gasPrice": {
        "_hex": "0xd7371d539"
      },
      "gasLimit": {
        "_hex": "0x5208"
      },
      "to": "0x32Be343B94f860124dC4fEe278FDCBD38C102D88",
      "value": {
        "_hex": "0x1b9e86fb7ad48800"
      },
      "nonce": 4,
      "data": "0x",
      "r": "0x217e32a9e78c9565f263c6d3382f69cf3e041ffd56e9a88ccd6b97be669692c8",
      "s": "0x18c63e4e938ee38b1ac0f8d31e9181eb80a0bf26446e6351352ba36b33d4243c",
      "v": 28,
      "creates": null,
      "raw": "0xf86c04850d7371d5398252089432be343b94f860124dc4fee278fdcbd38c102d88881b9e86fb7ad48800801ca0217e32a9e78c9565f263c6d3382f69cf3e041ffd56e9a88ccd6b97be669692c8a018c63e4e938ee38b1ac0f8d31e9181eb80a0bf26446e6351352ba36b33d4243c",
      "networkId": 0,
      "chainId": 0
    }
  ]
}