{
  "hash": "0xd06b74706ba9f436a74c75db714741947b9894f0de10331c77ca65c44634dd58",
  "parentHash": "0x5d5917fb011598ec018051d1b46ed3043dd14f4d9c5013de69c4be918c77c5a1",
  "number": 69015,
  "timestamp": 1439297164,
  "nonce": "0xac7b966143bbd3af",
  "difficulty": 2034949409738,
  "gasLimit": {
    "_hex": "0x2fefd8"
  },
  "gasUsed": {
    "_hex": "0x5208"
  },
  "miner": "0x785ffdDd5cE55c6DF963f345e68d3F2024E5Acb1",
  "extraData": "0x476574682f4d69676e6f7474652f76312e302e312f6c696e75782f676f312e34",
  "transactions": [
    {
      "hash": "0xce7cd7b1d83179d33f40a5d3f7b8957878e90c375e20e0939dd4040489932200",
      "blockHash": "0xd06b74706ba9f436a74c75db714741947b9894f0de10331c77ca65c44634dd58",
      "blockNumber": 69015,
      "transactionIndex": 0,
      "confirmations": null,
      "from": "0x5D60425B43EedcDE1849e5d5C021F8bC96d01f80",
      "gasPrice": {
        "_hex": "0xba43b7400"
      },
      "gasLimit": {
        "_hex": "0x5208"
      },
      "to": "0x45A3B14Fda4803a40d7cc2044e3eB494e7066D4A",
      "value": {
        "_hex": "0x191fec7dbc46000"
      },
      "nonce": 1,
      "data": "0x",
      "r": "0xe1b93bd3cedd2508c6ec098f1bcdae52be905e5e7f919df3d5bf6dc14621f482",
      "s": "0x7b72023cb17601bc25eed773b50368654d59a4bab99b3953e3b1da4fbf967d0f",
      "v": 28,
      "creates": null,
      "raw": "0xf86c01850ba43b74008252089445a3b14fda4803a40d7cc2044e3eb494e7066d4a880191fec7dbc46000801ca0e1b93bd3cedd2508c6ec098f1bcdae52be905e5e7f919df3d5bf6dc14621f482a07b72023cb17601bc25eed773b50368654d59a4bab99b3953e3b1da4fbf967d0f",
      "networkId": 0,
      "chainId": 0
    }
  ]
}