{
  "hash": "0xfc4133e998d76571d8aa6bebecfd4d0a80e30e7feabae4e8f90f926432fb097b",
  "parentHash": "0xe5d6523613f7c2938ad0da23892d59fd8b1fce5440bf924754b31a9ee5562c66",
  "number": 108738,
  "timestamp": 1439945415,
  "nonce": "0x3d8fdbe726035c16",
  "difficulty": 4336060150100,
  "gasLimit": {
    "_hex": "0x2fefd8"
  },
  "gasUsed": {
    "_hex": "0x5208"
  },
  "miner": "0xe6A7a1d47ff21B6321162AEA7C6CB457D5476Bca",
  "extraData": "0x476574682f76312e302e312d38326566323666362f6c696e75782f676f312e34",
  "transactions": [
    {
      "hash": "0xcc00f7fb2151bd0634cf470d50bd158d2b99c69d559fd3e9ed7d63ad54fefd7e",
      "blockHash": "0xfc4133e998d76571d8aa6bebecfd4d0a80e30e7feabae4e8f90f926432fb097b",
      "blockNumber": 108738,
      "transactionIndex": 0,
      "confirmations": null,
      "from": "0x32Be343B94f860124dC4fEe278FDCBD38C102D88",
      "gasPrice": {
        "_hex": "0xded0cf06c"
      },
      "gasLimit": {
        "_hex": "0x5208"
      },
      "to": "0x9b7999611FD5eFF3ef9A86653490c42E83ED4B8E",
      "value": {
        "_hex": "0xd8d726b7177a80000"
      },
      "nonce": 1261,
      "data": "0x",
      "r": "0x914aa46a98301853058a95602f5c9a59b639de7818ad308bff6078c4b5c307e9",
      "s": "0x4137976d759512f11cb92b1547a184ab801383467d420412ce87f8df03470241",
      "v": 27,
      "creates": null,
      "raw": "0xf86f8204ed850ded0cf06c825208949b7999611fd5eff3ef9a86653490c42e83ed4b8e890d8d726b7177a80000801ba0914aa46a98301853058a95602f5c9a59b639de7818ad308bff6078c4b5c307e9a04137976d759512f11cb92b1547a184ab801383467d420412ce87f8df03470241",
      "networkId": 0,
      "chainId": 0
    }
  ]
}