{
  "hash": "0x8786556caa9eeb7a8f356c838e67742297bf55885eb05161e569511075ba1d05",
  "parentHash": "0xbc538748abfa9193454d194e9c525e17c98ee7d09611423a9f38317295525af8",
  "number": 111959,
  "timestamp": 1439999487,
  "nonce": "0x3b4a43fe050d9a36",
  "difficulty": 4387629900675,
  "gasLimit": {
    "_hex": "0x2fefd8"
  },
  "gasUsed": {
    "_hex": "0x5208"
  },
  "miner": "0xD0ee3F53eE0fCf3F9fbCcdd17BD1b6441DdC2074",
  "extraData": "0x476574682f76312e302e312d38326566323666362f6c696e75782f676f312e34",
  "transactions": [
    {
      "hash": "0x94788d381cb30ef245d1925e5b0f4468908f19ff1dc6705dc96ef25e337497e6",
      "blockHash": "0x8786556caa9eeb7a8f356c838e67742297bf55885eb05161e569511075ba1d05",
      "blockNumber": 111959,
      "transactionIndex": 0,
      "confirmations": null,
      "from": "0x120A270bbC009644e35F0bB6ab13f95b8199c4ad",
      "gasPrice": {
        "_hex": "0xd1dea5899"
      },
      "gasLimit": {
        "_hex": "0x15f90"
      },
      "to": "0xf4d9a6bdB61cA0316FEf11F642bFc8ed00301125",
      "value": {
        "_hex": "0xebec21ee1da40000"
      },
      "nonce": 888,
      "data": "0x",
      "r": "0xb8285f002a5a90ebb5e5ad746c75de900f705299c5987bb48a28a987f5661419",
      "s": "0x020f888ee371a3e62e1fa5ae056959a132df3db00d1c0aea7790e296d929ee58",
      "v": 27,
      "creates": null,
      "raw": "0xf86f820378850d1dea589983015f9094f4d9a6bdb61ca0316fef11f642bfc8ed0030112588ebec21ee1da40000801ba0b8285f002a5a90ebb5e5ad746c75de900f705299c5987bb48a28a987f5661419a0020f888ee371a3e62e1fa5ae056959a132df3db00d1c0aea7790e296d929ee58",
      "networkId": 0,
      "chainId": 0
    }
  ]
}