{
  "hash": "0xab644a70ded1bb3188771483e2cc0e79a17c8bff784e6f486c81c3e7f0e9e98f",
  "parentHash": "0xb228247ea5235b4cef83b14ad1a3fa376f0314099eb955df9c1fca71c3293cdf",
  "number": 80502,
  "timestamp": 1439486419,
  "nonce": "0xb149521273fbceba",
  "difficulty": 2416793009578,
  "gasLimit": {
    "_hex": "0x2fefd8"
  },
  "gasUsed": {
    "_hex": "0x6ed7"
  },
  "miner": "0x9746c7e1ef2bd21FF3997fa467593a89cb852BD0",
  "extraData": "0x476574682f76312e302e312f77696e646f77732f676f312e342e32",
  "transactions": [
    {
      "hash": "0x4ed0caa6bba2e2cb94e6d69bbf5259844a0d2531a91f4b81212505522b6cbd5e",
      "blockHash": "0xab644a70ded1bb3188771483e2cc0e79a17c8bff784e6f486c81c3e7f0e9e98f",
      "blockNumber": 80502,
      "transactionIndex": 0,
      "confirmations": null,
      "from": "0x87C5B5874A18B4306DF8a752a6C8cc3E82daFc19",
      "gasPrice": {
        "_hex": "0x116da39b833"
      },
      "gasLimit": {
        "_hex": "0x493e0"
      },
      "to": "0xC4c51de1AbF5D60DBd329eC0F999Fd8f021ae9fC",
      "value": {
        "_hex": "0x0"
      },
      "nonce": 226,
      "data": "0xbd66528a6b6b6b0000000000000000000000000000000000000000000000000000000000",
      "r": "0x7f705cc2a7926fdf0283ea904a93b7fbc34fdecc00850df43f7ab8a39bd0e07b",
      "s": "0x05b07e663ccb811871af2ae4e0a4447381afab58d1e6ea3e6eb72c285cf58834",
      "v": 27,
      "creates": null,
      "raw": "0xf88b81e2860116da39b833830493e094c4c51de1abf5d60dbd329ec0f999fd8f021ae9fc80a4bd66528a6b6b6b00000000000000000000000000000000000000000000000000000000001ba07f705cc2a7926fdf0283ea904a93b7fbc34fdecc00850df43f7ab8a39bd0e07ba005b07e663ccb811871af2ae4e0a4447381afab58d1e6ea3e6eb72c285cf58834",
      "networkId": 0,
      "chainId": 0
    }
  ]
}