{
  "hash": "0xeab8fe9da0b41b2c003db620bb9adbedd5fcc7222cc50d53431aa1df47a20dda",
  "parentHash": "0x0b68f75b70d64fb2a6aca332351d889dedfe59a9847bdf8da98caf62e8c6f1fb",
  "number": 46217,
  "timestamp": 1438919451,
  "nonce": "0x7779fa7e2d3de251",
  "difficulty": 1455425125664,
  "gasLimit": {
    "_hex": "0x5538"
  },
  "gasUsed": {
    "_hex": "0x5208"
  },
  "miner": "0x47ff6576639c2e94762eA5443978D7681C0E78DC",
  "extraData": "0x476574682f76312e302e312f6c696e75782f676f312e342e32",
  "transactions": [
    {
      "hash": "0x2ec382949ba0b22443aa4cb38267b1fb5e68e188109ac11f7a82f67571a0adf3",
      "blockHash": "0xeab8fe9da0b41b2c003db620bb9adbedd5fcc7222cc50d53431aa1df47a20dda",
      "blockNumber": 46217,
      "transactionIndex": 0,
      "confirmations": null,
      "from": "0xc8ebccC5F5689Fa8659d83713341e5aD19349448",
      "gasPrice": {
        "_hex": "0xf363b608c"
      },
      "gasLimit": {
        "_hex": "0x5208"
      },
      "to": "0xc8ebccC5F5689Fa8659d83713341e5aD19349448",
      "value": {
        "_hex": "0x0"
      },
      "nonce": 0,
      "data": "0x",
      "r": "0x618c4bc78adf969c14fd0e0f33a82fcce7d0b3aebde2ab4ffd9c63afb53dd04c",
      "s": "0x2012a4675e9c5eab65e5f71ffb4749305fb1201fe6ff0bc0413aee0145a96000",
      "v": 27,
      "creates": null,
      "raw": "0xf86480850f363b608c82520894c8ebccc5f5689fa8659d83713341e5ad1934944880801ba0618c4bc78adf969c14fd0e0f33a82fcce7d0b3aebde2ab4ffd9c63afb53dd04ca02012a4675e9c5eab65e5f71ffb4749305fb1201fe6ff0bc0413aee0145a96000",
      "networkId": 0,
      "chainId": 0
    }
  ]
}