{
  "hash": "0x7a4971065215487d070be39b96467cf5e6db417088754d0ae0ff66cdd3dc2f43",
  "parentHash": "0xa849bb08ad8be83b63e38e82ac6c3a590989afcba696d0cfb7e119c138785912",
  "number": 68133,
  "timestamp": 1439283149,
  "nonce": "0x2cdd5778ad1385ed",
  "difficulty": 1964857745068,
  "gasLimit": {
    "_hex": "0x2fefd8"
  },
  "gasUsed": {
    "_hex": "0x5208"
  },
  "miner": "0x157c6f2431eB1a95797EE86F7d17b3c0FD47A247",
  "extraData": "0x476574682f76312e302e312f77696e646f77732f676f312e342e32",
  "transactions": [
    {
      "hash": "0x3a07afa4bbc0afe4d7d628e8867925960071b3595883fbb24a3f909c1b851454",
      "blockHash": "0x7a4971065215487d070be39b96467cf5e6db417088754d0ae0ff66cdd3dc2f43",
      "blockNumber": 68133,
      "transactionIndex": 0,
      "confirmations": null,
      "from": "0xC3254b9978566516cAa1F1c652fe3Ca372e27d6C",
      "gasPrice": {
        "_hex": "0xba43b7400"
      },
      "gasLimit": {
        "_hex": "0x5208"
      },
      "to": "0xeab9AC7C4aea494423fe9646DF4402084c8A0C3A",
      "value": {
        "_hex": "0x36ef271c4dd000"
      },
      "nonce": 1,
      "data": "0x",
      "r": "0x3349b2d2161d7b35df73b236e1fd2a0bb2bf434edd04c1e5c7544f6f122afbd5",
      "s": "0x7b37d609fab3b890d55ce6bf7f2166bef26a2b9e3f67671ac53fb57775d178ea",
      "v": 27,
      "creates": null,
      "raw": "0xf86b01850ba43b740082520894eab9ac7c4aea494423fe9646df4402084c8a0c3a8736ef271c4dd000801ba03349b2d2161d7b35df73b236e1fd2a0bb2bf434edd04c1e5c7544f6f122afbd5a07b37d609fab3b890d55ce6bf7f2166bef26a2b9e3f67671ac53fb57775d178ea",
      "networkId": 0,
      "chainId": 0
    }
  ]
}