{
  "hash": "0x86d3591c1c94512788017e6d5c216751d602cc52b99c99e00a5b951196cf007a",
  "parentHash": "0x362640fc13e912651a7c5f7961cb935822154f0913b9f176f315ded7126a7436",
  "number": 93642,
  "timestamp": 1439694989,
  "nonce": "0x77a74f984f563286",
  "difficulty": 3453103922564,
  "gasLimit": {
    "_hex": "0x2fefd8"
  },
  "gasUsed": {
    "_hex": "0x5208"
  },
  "miner": "0xa70a9a7040d542C632D8e0bE7c5513A8a5Bbc752",
  "extraData": "0x",
  "transactions": [
    {
      "hash": "0xcca9365e739fd901884ff20b477fb2085b14e2583b888870ed40bc4818c4ed3d",
      "blockHash": "0x86d3591c1c94512788017e6d5c216751d602cc52b99c99e00a5b951196cf007a",
      "blockNumber": 93642,
      "transactionIndex": 0,
      "confirmations": null,
      "from": "0x562be95Aba17C5371fe2Ba828799b1f55d2177d6",
      "gasPrice": {
        "_hex": "0xd7a711796"
      },
      "gasLimit": {
        "_hex": "0x15f90"
      },
      "to": "0x3d2d9ee6D74C548099F96668523ccA8970D80F5c",
      "value": {
        "_hex": "0x816b7bd1a5283180000"
      },
      "nonce": 1,
      "data": "0x",
      "r": "0xa2311c46c114c08600602bbc3126c47556e2d2f31579b581a1944763a2a5d655",
      "s": "0x1605444ae75834dc76ee35dd7df6337e5141930ac9387490f83aa92c8ae25d81",
      "v": 28,
      "creates": null,
      "raw": "0xf86f01850d7a71179683015f90943d2d9ee6d74c548099f96668523cca8970d80f5c8a0816b7bd1a5283180000801ca0a2311c46c114c08600602bbc3126c47556e2d2f31579b581a1944763a2a5d655a01605444ae75834dc76ee35dd7df6337e5141930ac9387490f83aa92c8ae25d81",
      "networkId": 0,
      "chainId": 0
    }
  ]
}