{
  "hash": "0x0093aef95052aa5818633a9cce0c059b46d7480970b6fcf28a04ba4ab8640bbe",
  "parentHash": "0x258a055c764ee51f245d82f18d3e585b97478567b1524a6dc80366a636316c51",
  "number": 89861,
  "timestamp": 1439630287,
  "nonce": "0x632dbd63d168600b",
  "difficulty": 3340207182419,
  "gasLimit": {
    "_hex": "0x2fefd8"
  },
  "gasUsed": {
    "_hex": "0x5208"
  },
  "miner": "0xf8E0CA3Ed80bd541b94BEdCf259e8CF2141A9523",
  "extraData": "0x476574682f76312e302e312f77696e646f77732f676f312e342e32",
  "transactions": [
    {
      "hash": "0x45262812bc4dc39fad0eb70fd778475f5c7cb16e029004d6d7a2a9ed7d5b6ad9",
      "blockHash": "0x0093aef95052aa5818633a9cce0c059b46d7480970b6fcf28a04ba4ab8640bbe",
      "blockNumber": 89861,
      "transactionIndex": 0,
      "confirmations": null,
      "from": "0xD99b25c518320820D3C5ae9f47378DA32dED5f00",
      "gasPrice": {
        "_hex": "0xcdd09bc54"
      },
      "gasLimit": {
        "_hex": "0x5208"
      },
      "to": "0x32Be343B94f860124dC4fEe278FDCBD38C102D88",
      "value": {
        "_hex": "0x16d66960c0ec8d000"
      },
      "nonce": 3,
      "data": "0x",
      "r": "0x8936a5dc9631e1575c885065456d38e73855e7af3079bfb13a513f2717d607f5",
      "s": "0x669e2c7d70b45b8b39039a3e018c8422c1e82fbbc7b93e462ef9228538ab419e",
      "v": 27,
      "creates": null,
      "raw": "0xf86d03850cdd09bc548252089432be343b94f860124dc4fee278fdcbd38c102d8889016d66960c0ec8d000801ba08936a5dc9631e1575c885065456d38e73855e7af3079bfb13a513f2717d607f5a0669e2c7d70b45b8b39039a3e018c8422c1e82fbbc7b93e462ef9228538ab419e",
      "networkId": 0,
      "chainId": 0
    }
  ]
}