{
  "hash": "0xfb46a20764d1a1a846455a1ca07a187f6e2cc55b0876c4545b408d7f81c99045",
  "parentHash": "0xce74dadd59f7f3e108d2f098d8da0ff39d94bde77a561ba11002ddca116e0360",
  "number": 104386,
  "timestamp": 1439869004,
  "nonce": "0x224b306668cf42bd",
  "difficulty": 4312964814898,
  "gasLimit": {
    "_hex": "0x2fefd8"
  },
  "gasUsed": {
    "_hex": "0xa410"
  },
  "miner": "0x123843545FB525C8E134c9A5F15ADA6865cc3848",
  "extraData": "0x",
  "transactions": [
    {
      "hash": "0x8f2e954656b6b818a466f12dd1d4ea9bf82a69baa02b28aa0a7802de734a547a",
      "blockHash": "0xfb46a20764d1a1a846455a1ca07a187f6e2cc55b0876c4545b408d7f81c99045",
      "blockNumber": 104386,
      "transactionIndex": 0,
      "confirmations": null,
      "from": "0x3D6fAAd34e509F34c23b9737961fECa278DD40Da",
      "gasPrice": {
        "_hex": "0xd7263a4db"
      },
      "gasLimit": {
        "_hex": "0x5208"
      },
      "to": "0x32Be343B94f860124dC4fEe278FDCBD38C102D88",
      "value": {
        "_hex": "0x10eff0b5f19b4700000"
      },
      "nonce": 0,
      "data": "0x",
      "r": "0x6e5788e040b18f7f94805d1671af571259aa3184835c2d67695dbadb06b079da",
      "s": "0x2953a70331631ee2820226afff32573de79da103cc17437f0fb7338034649831",
      "v": 27,
      "creates": null,
      "raw": "0xf86e80850d7263a4db8252089432be343b94f860124dc4fee278fdcbd38c102d888a010eff0b5f19b4700000801ba06e5788e040b18f7f94805d1671af571259aa3184835c2d67695dbadb06b079daa02953a70331631ee2820226afff32573de79da103cc17437f0fb7338034649831",
      "networkId": 0,
      "chainId": 0
    },
    {
      "hash": "0x8e6ff0d18a7277d1c4774f6476e3866789ce6122998acbdcf5e6a020963539df",
      "blockHash": "0xfb46a20764d1a1a846455a1ca07a187f6e2cc55b0876c4545b408d7f81c99045",
      "blockNumber": 104386,
      "transactionIndex": 1,
      "confirmations": null,
      "from": "0xFaA71Aba9CCa068467205bA4ebc04E72605e6BBd",
      "gasPrice": {
        "_hex": "0xd7263a4db"
      },
      "gasLimit": {
        "_hex": "0x5208"
      },
      "to": "0x32Be343B94f860124dC4fEe278FDCBD38C102D88",
      "value": {
        "_hex": "0x56b9f882af5fc4000"
      },
      "nonce": 0,
      "data": "0x",
      "r": "0x678d2c6ec7c8c779ef7929e69edca1e67f5511fdd41c0f7ed768ccb1009aeb63",
      "s": "0x5b9d84889daf5b4168757a9228dc15db42e84db8f692e0f9a005d39750e5c390",
      "v": 28,
      "creates": null,
      "raw": "0xf86d80850d7263a4db8252089432be343b94f860124dc4fee278fdcbd38c102d8889056b9f882af5fc4000801ca0678d2c6ec7c8c779ef7929e69edca1e67f5511fdd41c0f7ed768ccb1009aeb63a05b9d84889daf5b4168757a9228dc15db42e84db8f692e0f9a005d39750e5c390",
      "networkId": 0,
      "chainId": 0
    }
  ]
}