{
  "hash": "0x3ce48f80144ebc31f405f4efdbac8b1357e5c4ca08148b5b522083b3541b67ba",
  "parentHash": "0xa244dcb3f50c2a63c5895fca66d9410bf9c2eaa23f58a8f103551c120f69bfb0",
  "number": 74842,
  "timestamp": 1439393313,
  "nonce": "0xf76b70b08213746f",
  "difficulty": 2191274554840,
  "gasLimit": {
    "_hex": "0x2fefd5"
  },
  "gasUsed": {
    "_hex": "0x5208"
  },
  "miner": "0xe6A7a1d47ff21B6321162AEA7C6CB457D5476Bca",
  "extraData": "0x476574682f76312e302e312d38326566323666362f6c696e75782f676f312e34",
  "transactions": [
    {
      "hash": "0x565c8e7846a4c4807295d9809fc62c5d3e34025bd696be8e469e542650dbcf34",
      "blockHash": "0x3ce48f80144ebc31f405f4efdbac8b1357e5c4ca08148b5b522083b3541b67ba",
      "blockNumber": 74842,
      "transactionIndex": 0,
      "confirmations": null,
      "from": "0x40585200683A403901372912A89834aADCb55Fdb",
      "gasPrice": {
        "_hex": "0xd4dfa5aef"
      },
      "gasLimit": {
        "_hex": "0x15f90"
      },
      "to": "0x690Db014Ed1665B5c774E3d1dD8c5C348157620d",
      "value": {
        "_hex": "0xde0b6b3a7640000"
      },
      "nonce": 0,
      "data": "0x",
      "r": "0x984157d56c5f2c029fa8d426fca20bc3c980d699c0ca55f052ac196505b73160",
      "s": "0x732012f80fc862db931404bb58275fe9d41f080ba126347ddc82c5f764e51eb8",
      "v": 27,
      "creates": null,
      "raw": "0xf86d80850d4dfa5aef83015f9094690db014ed1665b5c774e3d1dd8c5c348157620d880de0b6b3a7640000801ba0984157d56c5f2c029fa8d426fca20bc3c980d699c0ca55f052ac196505b73160a0732012f80fc862db931404bb58275fe9d41f080ba126347ddc82c5f764e51eb8",
      "networkId": 0,
      "chainId": 0
    }
  ]
}