{
  "hash": "0x6c26479175ec9949f3916262f50eb3489eb7e79f93670d6e9064ba69d5ea8541",
  "parentHash": "0x86494e9b031f5c8c6ce35491b2c69682c872e072aacbbad9ed07e746d8129de2",
  "number": 90789,
  "timestamp": 1439645508,
  "nonce": "0x3d6c325cc7f42901",
  "difficulty": 3392432483148,
  "gasLimit": {
    "_hex": "0x2fefd8"
  },
  "gasUsed": {
    "_hex": "0xfae0"
  },
  "miner": "0xe6A7a1d47ff21B6321162AEA7C6CB457D5476Bca",
  "extraData": "0x476574682f76312e302e312d38326566323666362f6c696e75782f676f312e34",
  "transactions": [
    {
      "hash": "0x93e7a82c5aa8164b47e638f3d132c1d8c4a4a3e78812da3565170cfce820209a",
      "blockHash": "0x6c26479175ec9949f3916262f50eb3489eb7e79f93670d6e9064ba69d5ea8541",
      "blockNumber": 90789,
      "transactionIndex": 0,
      "confirmations": null,
      "from": "0x4F85BC1FC5cbc9c001e8f1372e07505370D8c71f",
      "gasPrice": {
        "_hex": "0x110c8f7d8de"
      },
      "gasLimit": {
        "_hex": "0xc350"
      },
      "to": "0x2910543Af39abA0Cd09dBb2D50200b3E800A63D2",
      "value": {
        "_hex": "0xde0b6b3a7640000"
      },
      "nonce": 0,
      "data": "0x454e545857475a4652",
      "r": "0xb7a24ed1ee8b4c7e10e3d4217c80fa285e237e1c505a03b84cf9505917be7e43",
      "s": "0xb6885d55df3b2e89cd5ffa1523ae9b6cd0c35ee3a9807dfc1543d1ba416ec4e7",
      "v": 27,
      "creates": null,
      "raw": "0xf87680860110c8f7d8de82c350942910543af39aba0cd09dbb2d50200b3e800a63d2880de0b6b3a764000089454e545857475a46521ba0b7a24ed1ee8b4c7e10e3d4217c80fa285e237e1c505a03b84cf9505917be7e43a0b6885d55df3b2e89cd5ffa1523ae9b6cd0c35ee3a9807dfc1543d1ba416ec4e7",
      "networkId": 0,
      "chainId": 0
    },
    {
      "hash": "0x1c8b8515c398e833d56c1de871018658e224d9ecce5d50b3359182c7c10507bb",
      "blockHash": "0x6c26479175ec9949f3916262f50eb3489eb7e79f93670d6e9064ba69d5ea8541",
      "blockNumber": 90789,
      "transactionIndex": 1,
      "confirmations": null,
      "from": "0x32Be343B94f860124dC4fEe278FDCBD38C102D88",
      "gasPrice": {
        "_hex": "0xe0443e7ac"
      },
      "gasLimit": {
        "_hex": "0x5208"
      },
      "to": "0xCD1e66ED539dd92Fc40bBAa1FA16de8c02C14D45",
      "value": {
        "_hex": "0x4e284e5e397a18000"
      },
      "nonce": 861,
      "data": "0x",
      "r": "0x795ba36c2af18cc8b69b10e6cbb77e34d938156ead54df3acea2c586e1490016",
      "s": "0x410d1df0f54f53ecd65912c462ce095e29f3afc42064843ea8a95ec08b7c5715",
      "v": 28,
      "creates": null,
      "raw": "0xf86f82035d850e0443e7ac82520894cd1e66ed539dd92fc40bbaa1fa16de8c02c14d458904e284e5e397a18000801ca0795ba36c2af18cc8b69b10e6cbb77e34d938156ead54df3acea2c586e1490016a0410d1df0f54f53ecd65912c462ce095e29f3afc42064843ea8a95ec08b7c5715",
      "networkId": 0,
      "chainId": 0
    },
    {
      "hash": "0x75af35de4a2f434033d2a5da2dc84545fe153906bcde827f3a9f5e3dd63060e2",
      "blockHash": "0x6c26479175ec9949f3916262f50eb3489eb7e79f93670d6e9064ba69d5ea8541",
      "blockNumber": 90789,
      "transactionIndex": 2,
      "confirmations": null,
      "from": "0x72E9B6674F1F4eb48556178f40657D8f129bFb79",
      "gasPrice": {
        "_hex": "0xcdd59f378"
      },
      "gasLimit": {
        "_hex": "0x55f0"
      },
      "to": "0x2910543Af39abA0Cd09dBb2D50200b3E800A63D2",
      "value": {
        "_hex": "0x782e801e0ae20000"
      },
      "nonce": 0,
      "data": "0x454e51343033375047",
      "r": "0x666d753d537246e122be34594e08f52e025aee4980f6ce036aea29d46264014f",
      "s": "0x3e667e2926f7ff341ec053e6dad619db1103549529dbfec59ada3d184701933f",
      "v": 27,
      "creates": null,
      "raw": "0xf87580850cdd59f3788255f0942910543af39aba0cd09dbb2d50200b3e800a63d288782e801e0ae2000089454e513430333750471ba0666d753d537246e122be34594e08f52e025aee4980f6ce036aea29d46264014fa03e667e2926f7ff341ec053e6dad619db1103549529dbfec59ada3d184701933f",
      "networkId": 0,
      "chainId": 0
    }
  ]
}