{
  "hash": "0x4f83a2b28df0b95fbe2dec1e66752b6a24ec753498bf221f4fb7ee6bd8b0b388",
  "parentHash": "0xb54f3f6be38862cc009b28c28ed1178d966d465b2f5f324b7054fae44c92f193",
  "number": 117915,
  "timestamp": 1440117468,
  "nonce": "0xa50fa0f1d50787ae",
  "difficulty": 4346148808291,
  "gasLimit": {
    "_hex": "0x2fefd8"
  },
  "gasUsed": {
    "_hex": "0xa410"
  },
  "miner": "0xe6A7a1d47ff21B6321162AEA7C6CB457D5476Bca",
  "extraData": "0xd783010002844765746887676f312e342e32856c696e7578",
  "transactions": [
    {
      "hash": "0x95533e04e0775c11ee2a91c0573453bc09a0d3acf4c26c76ba9a8f36c5e2cb88",
      "blockHash": "0x4f83a2b28df0b95fbe2dec1e66752b6a24ec753498bf221f4fb7ee6bd8b0b388",
      "blockNumber": 117915,
      "transactionIndex": 0,
      "confirmations": null,
      "from": "0xFBb1b73C4f0BDa4f67dcA266ce6Ef42f520fBB98",
      "gasPrice": {
        "_hex": "0xba43b7400"
      },
      "gasLimit": {
        "_hex": "0x5208"
      },
      "to": "0x0d9979588ee4b6C5B92D8B872FCAF88f68e0228e",
      "value": {
        "_hex": "0x8e1bc9bf040000"
      },
      "nonce": 235,
      "data": "0x",
      "r": "0x53c03e383df0d13c179152af394e386cb2c96ded297780224d26bbb0b693638f",
      "s": "0x780d95a4bca6ce428955e05a7ace3c9d22962181fa371661127936ee9444998d",
      "v": 28,
      "creates": null,
      "raw": "0xf86c81eb850ba43b7400825208940d9979588ee4b6c5b92d8b872fcaf88f68e0228e878e1bc9bf040000801ca053c03e383df0d13c179152af394e386cb2c96ded297780224d26bbb0b693638fa0780d95a4bca6ce428955e05a7ace3c9d22962181fa371661127936ee9444998d",
      "networkId": 0,
      "chainId": 0
    },
    {
      "hash": "0x5c4e9b61163829ca947895f60e2842fd6b33cf75b85bda0aa221df936b1cf425",
      "blockHash": "0x4f83a2b28df0b95fbe2dec1e66752b6a24ec753498bf221f4fb7ee6bd8b0b388",
      "blockNumber": 117915,
      "transactionIndex": 1,
      "confirmations": null,
      "from": "0x263D845A19110802000139cbb7a4BBF2B2B8d6C0",
      "gasPrice": {
        "_hex": "0xba43b7400"
      },
      "gasLimit": {
        "_hex": "0x5208"
      },
      "to": "0x32Be343B94f860124dC4fEe278FDCBD38C102D88",
      "value": {
        "_hex": "0x38219c393ca60c00"
      },
      "nonce": 9,
      "data": "0x",
      "r": "0x2d108ebcb857b6c7524ac61df4de3eba27c68902866054e7560aaae9a0ca77e2",
      "s": "0x7193ce9cf9f54016860abc11304261b89144baf7ba6e7bcabdc15405f714f580",
      "v": 27,
      "creates": null,
      "raw": "0xf86c09850ba43b74008252089432be343b94f860124dc4fee278fdcbd38c102d888838219c393ca60c00801ba02d108ebcb857b6c7524ac61df4de3eba27c68902866054e7560aaae9a0ca77e2a07193ce9cf9f54016860abc11304261b89144baf7ba6e7bcabdc15405f714f580",
      "networkId": 0,
      "chainId": 0
    }
  ]
}