{
  "hash": "0xdce93893bcabf4e6d1b4d44eb1da61f070f6827bf7eb4bbadacd6ea5011e1a5c",
  "parentHash": "0xe065a4054c1b2af491a09c59650669c90e8ac7770d2c723916db2915f344c80c",
  "number": 84525,
  "timestamp": 1439550872,
  "nonce": "0x0e40103fa8c0875e",
  "difficulty": 2570174006129,
  "gasLimit": {
    "_hex": "0x2fefd8"
  },
  "gasUsed": {
    "_hex": "0x8a08"
  },
  "miner": "0x785ffdDd5cE55c6DF963f345e68d3F2024E5Acb1",
  "extraData": "0x",
  "transactions": [
    {
      "hash": "0x359c9cf92bad46ecf074487cddda992f533d3f6c71df8b65501e23d5e4c01e0c",
      "blockHash": "0xdce93893bcabf4e6d1b4d44eb1da61f070f6827bf7eb4bbadacd6ea5011e1a5c",
      "blockNumber": 84525,
      "transactionIndex": 0,
      "confirmations": null,
      "from": "0xE30fBFf0F73d76643501B77772aBc74377dacE64",
      "gasPrice": {
        "_hex": "0xb79356e83"
      },
      "gasLimit": {
        "_hex": "0x15f90"
      },
      "to": "0x0a105Bf0e4eD0D55F1867694ACa81cC84e613d32",
      "value": {
        "_hex": "0x0"
      },
      "nonce": 7,
      "data": "0xd0679d34000000000000000000000000f2a22f713f87c51076136a1338140aa8fff4ebf300000000000000000000000000000000000000000000000000000000000003e8",
      "r": "0x515535bd3ff9b1e83d93dfa2669a967bf8483a3bdf9f31d65843e4f3164f05d8",
      "s": "0x416009a8dfd26d627540f5cc6821374fdf4adf84637d2f8bc3a4aa9750aa5250",
      "v": 28,
      "creates": null,
      "raw": "0xf8aa07850b79356e8383015f90940a105bf0e4ed0d55f1867694aca81cc84e613d3280b844d0679d34000000000000000000000000f2a22f713f87c51076136a1338140aa8fff4ebf300000000000000000000000000000000000000000000000000000000000003e81ca0515535bd3ff9b1e83d93dfa2669a967bf8483a3bdf9f31d65843e4f3164f05d8a0416009a8dfd26d627540f5cc6821374fdf4adf84637d2f8bc3a4aa9750aa5250",
      "networkId": 0,
      "chainId": 0
    }
  ]
}