{
  "hash": "0x086763f8527124ceb732f2dbe9297873f2a1f03f10022e30d668194bd1857731",
  "parentHash": "0xf3eab3dcc3455223108eb3c6bb231230fb2c47fb3cc610d0abe529c3d9d8d4f7",
  "number": 108157,
  "timestamp": 1439935200,
  "nonce": "0xfdefddbd2c711bf4",
  "difficulty": 4372505469562,
  "gasLimit": {
    "_hex": "0x2fefd8"
  },
  "gasUsed": {
    "_hex": "0x5208"
  },
  "miner": "0xbb7B8287f3F0a933474a79eAe42CBCa977791171",
  "extraData": "0x476574682f4c5649562f76312e302e312f6c696e75782f676f312e342e32",
  "transactions": [
    {
      "hash": "0xf7b7eef5d306a85afea9408c6fcdf8eede97f2dbaaa0a2da6838074479f9d07d",
      "blockHash": "0x086763f8527124ceb732f2dbe9297873f2a1f03f10022e30d668194bd1857731",
      "blockNumber": 108157,
      "transactionIndex": 0,
      "confirmations": null,
      "from": "0x32Be343B94f860124dC4fEe278FDCBD38C102D88",
      "gasPrice": {
        "_hex": "0xd9f07513d"
      },
      "gasLimit": {
        "_hex": "0x5208"
      },
      "to": "0x9a099665914bc1E3303E18b1fdB434EB2B5535D6",
      "value": {
        "_hex": "0xde0b6b3a7640000"
      },
      "nonce": 1242,
      "data": "0x",
      "r": "0x48066fdfba8288a81aae416f7ebe4a1c709c7d0cb81cdfbe46bf6484369a535c",
      "s": "0x4f9b64dbca4a6122dfae0186745ed1cd774c43b2f3f111f51ab2d61cd7d5005f",
      "v": 28,
      "creates": null,
      "raw": "0xf86e8204da850d9f07513d825208949a099665914bc1e3303e18b1fdb434eb2b5535d6880de0b6b3a7640000801ca048066fdfba8288a81aae416f7ebe4a1c709c7d0cb81cdfbe46bf6484369a535ca04f9b64dbca4a6122dfae0186745ed1cd774c43b2f3f111f51ab2d61cd7d5005f",
      "networkId": 0,
      "chainId": 0
    }
  ]
}