{
  "hash": "0x8b7bbe3ff20bbfb1e80f9a0a5665a7ae5af7f6a0a69149513eb6912736209452",
  "parentHash": "0xd77eced4eb704784cdca4753fe7052fb5e073ee7f079c505929631b1e1c4ca1e",
  "number": 47717,
  "timestamp": 1438945319,
  "nonce": "0x5db17714e5561a24",
  "difficulty": 1442431402072,
  "gasLimit": {
    "_hex": "0xe870"
  },
  "gasUsed": {
    "_hex": "0x5208"
  },
  "miner": "0xf927a40C8B7F6E07c5af7FA2155B4864a4112B13",
  "extraData": "0x476574682f76312e302e312f6c696e75782f676f312e342e32",
  "transactions": [
    {
      "hash": "0xee80d3e4cdb72b8b4fa15254ee53378955b3686ffcb5c3833f419164ca9f6f79",
      "blockHash": "0x8b7bbe3ff20bbfb1e80f9a0a5665a7ae5af7f6a0a69149513eb6912736209452",
      "blockNumber": 47717,
      "transactionIndex": 0,
      "confirmations": null,
      "from": "0xe6A7a1d47ff21B6321162AEA7C6CB457D5476Bca",
      "gasPrice": {
        "_hex": "0xd1b174f9f"
      },
      "gasLimit": {
        "_hex": "0x55f0"
      },
      "to": "0xeF0a7407D5b9AF9fA9f38f67aBB66d20686afb55",
      "value": {
        "_hex": "0x5e4d48ad7dc0a4990"
      },
      "nonce": 222,
      "data": "0x",
      "r": "0xc38a3bd693ed1d9f39ae83f21b6d46c2492f4ad22d99cd22a2f9ac5b100984e4",
      "s": "0x3656d4f82f9b01c1c54ffe1d1531dee22f1d28e75791ab87662e449b844c89c2",
      "v": 27,
      "creates": null,
      "raw": "0xf86e81de850d1b174f9f8255f094ef0a7407d5b9af9fa9f38f67abb66d20686afb558905e4d48ad7dc0a4990801ba0c38a3bd693ed1d9f39ae83f21b6d46c2492f4ad22d99cd22a2f9ac5b100984e4a03656d4f82f9b01c1c54ffe1d1531dee22f1d28e75791ab87662e449b844c89c2",
      "networkId": 0,
      "chainId": 0
    }
  ]
}