{
  "hash": "0xb3525a223090d2b3f33c473462caae9a163bd474a26f5715b086e021e31ba535",
  "parentHash": "0xa98e43ac26ccb8afc655544682dc293a4e836a3e5040d08da82e528675f52316",
  "number": 84799,
  "timestamp": 1439554739,
  "nonce": "0x9a20f806b8dbea68",
  "difficulty": 2625904259754,
  "gasLimit": {
    "_hex": "0x2fefd8"
  },
  "gasUsed": {
    "_hex": "0x546c"
  },
  "miner": "0x6CE13F1816a2cFab76C59714291Cb8403CbBB3D8",
  "extraData": "0x",
  "transactions": [
    {
      "hash": "0x9a554023cb7394cf14c4bcffabf52cdd66b6ce8570544ddbfcb65156c8deeb9d",
      "blockHash": "0xb3525a223090d2b3f33c473462caae9a163bd474a26f5715b086e021e31ba535",
      "blockNumber": 84799,
      "transactionIndex": 0,
      "confirmations": null,
      "from": "0xb4b11D109f608fa8edD3feA9F8C315649AEB3d11",
      "gasPrice": {
        "_hex": "0x110c8f7d8de"
      },
      "gasLimit": {
        "_hex": "0xc350"
      },
      "to": "0x2910543Af39abA0Cd09dBb2D50200b3E800A63D2",
      "value": {
        "_hex": "0x1b0d04202f47ec0000"
      },
      "nonce": 1,
      "data": "0x454e34513746574352",
      "r": "0x70b5d20e0a196b4f51bfcf77787775462d893737298a36502bc88666f4db7182",
      "s": "0xce5bc134d2666c7f70e54acda4cee5b5b1a58ee6d5c9af894779d362505e24f2",
      "v": 28,
      "creates": null,
      "raw": "0xf87701860110c8f7d8de82c350942910543af39aba0cd09dbb2d50200b3e800a63d2891b0d04202f47ec000089454e345137465743521ca070b5d20e0a196b4f51bfcf77787775462d893737298a36502bc88666f4db7182a0ce5bc134d2666c7f70e54acda4cee5b5b1a58ee6d5c9af894779d362505e24f2",
      "networkId": 0,
      "chainId": 0
    }
  ]
}