{
  "hash": "0x539cf2667cd7f875157e9c2d9107592b01396b2605f52fea27501e866e49a9bf",
  "parentHash": "0xf5cd5fde7c5317d63b4e0fde154b4fcbe32ddaa1d8058d3496731c8fec3d570c",
  "number": 106696,
  "timestamp": 1439908900,
  "nonce": "0xccd9116ac62fbd42",
  "difficulty": 4448647817227,
  "gasLimit": {
    "_hex": "0x2fefd8"
  },
  "gasUsed": {
    "_hex": "0x5208"
  },
  "miner": "0xe6A7a1d47ff21B6321162AEA7C6CB457D5476Bca",
  "extraData": "0x476574682f76312e302e312d38326566323666362f6c696e75782f676f312e34",
  "transactions": [
    {
      "hash": "0x0f64438939a400411eca0db542a88a4fb7d3a67f56154de5946d235600692e37",
      "blockHash": "0x539cf2667cd7f875157e9c2d9107592b01396b2605f52fea27501e866e49a9bf",
      "blockNumber": 106696,
      "transactionIndex": 0,
      "confirmations": null,
      "from": "0x32Be343B94f860124dC4fEe278FDCBD38C102D88",
      "gasPrice": {
        "_hex": "0xdfdd243a5"
      },
      "gasLimit": {
        "_hex": "0x5208"
      },
      "to": "0x120A270bbC009644e35F0bB6ab13f95b8199c4ad",
      "value": {
        "_hex": "0x10f0cf064dd59200000"
      },
      "nonce": 1190,
      "data": "0x",
      "r": "0x3bdf55c0efabfc849d608d2fc5b6ffceeffcd53687745ae7ee4458c5638d8959",
      "s": "0x59a294f1f7671ddaba13e1dbf5321a63c08306d79dbf20cdd9c1adeb8c4f78b1",
      "v": 27,
      "creates": null,
      "raw": "0xf8708204a6850dfdd243a582520894120a270bbc009644e35f0bb6ab13f95b8199c4ad8a010f0cf064dd59200000801ba03bdf55c0efabfc849d608d2fc5b6ffceeffcd53687745ae7ee4458c5638d8959a059a294f1f7671ddaba13e1dbf5321a63c08306d79dbf20cdd9c1adeb8c4f78b1",
      "networkId": 0,
      "chainId": 0
    }
  ]
}