{
  "hash": "0x0e13f3387d8dc606c9b3997d9b40757bc91e2a19f455f6eeff8eb170d12e300e",
  "parentHash": "0x92f881e0a1db38aa96bba797bbb0471424124845c78d1eacf67c74d96c64afb4",
  "number": 48051,
  "timestamp": 1438950541,
  "nonce": "0xc3db96985a80a493",
  "difficulty": 1460802089115,
  "gasLimit": {
    "_hex": "0x1217b"
  },
  "gasUsed": {
    "_hex": "0x54c8"
  },
  "miner": "0xC0EdE9a639d107851462c15f2fb729c7c61bBf62",
  "extraData": "0x476574682f76312e302e312f6c696e75782f676f312e342e32",
  "transactions": [
    {
      "hash": "0x5c094a5d20c6ee55909068fbfd0bd4b08e24a89fd8d161a7c60220d4d8f89c33",
      "blockHash": "0x0e13f3387d8dc606c9b3997d9b40757bc91e2a19f455f6eeff8eb170d12e300e",
      "blockNumber": 48051,
      "transactionIndex": 0,
      "confirmations": null,
      "from": "0x8bae48F227d978d084B009b775222BAaF61ed9fe",
      "gasPrice": {
        "_hex": "0xba43b7400"
      },
      "gasLimit": {
        "_hex": "0x5dc4"
      },
      "to": "0x2910543Af39abA0Cd09dBb2D50200b3E800A63D2",
      "value": {
        "_hex": "0x14baddb5f53d60000"
      },
      "nonce": 4,
      "data": "0x0000000000000000000000000000000000000000000000454e4854505a334747",
      "r": "0xe462385afa3f42ade171cdfd433311a68bb07e2fe3585c4cee1c147452c26b31",
      "s": "0x325ac7bf801a3cf3eea132f8b273a881db3205f0f21233efe442a885fbab3a33",
      "v": 27,
      "creates": null,
      "raw": "0xf88d04850ba43b7400825dc4942910543af39aba0cd09dbb2d50200b3e800a63d289014baddb5f53d60000a00000000000000000000000000000000000000000000000454e4854505a3347471ba0e462385afa3f42ade171cdfd433311a68bb07e2fe3585c4cee1c147452c26b31a0325ac7bf801a3cf3eea132f8b273a881db3205f0f21233efe442a885fbab3a33",
      "networkId": 0,
      "chainId": 0
    }
  ]
}