{
  "hash": "0xf01284ad9cb5eac328c4e5cde53100a82e1677ba3f198ef3dc9152e1c7785747",
  "parentHash": "0x7b00e72968c4aa39b60c9825dad5f46c5c6219e70838f2e25c21e530e797a51c",
  "number": 73864,
  "timestamp": 1439376319,
  "nonce": "0x821406261ea31cf4",
  "difficulty": 2226041622422,
  "gasLimit": {
    "_hex": "0x2fefd8"
  },
  "gasUsed": {
    "_hex": "0x5208"
  },
  "miner": "0xbb7B8287f3F0a933474a79eAe42CBCa977791171",
  "extraData": "0x476574682f4c5649562f76312e302e312f6c696e75782f676f312e342e32",
  "transactions": [
    {
      "hash": "0x2990855c7bc3fb08316e05939fbfcb502dfaf07074c1524a1f784e30337cb23c",
      "blockHash": "0xf01284ad9cb5eac328c4e5cde53100a82e1677ba3f198ef3dc9152e1c7785747",
      "blockNumber": 73864,
      "transactionIndex": 0,
      "confirmations": null,
      "from": "0x260a230E4465077E0B14EE4442A482d5B0C914BF",
      "gasPrice": {
        "_hex": "0xdcc4d162a"
      },
      "gasLimit": {
        "_hex": "0x15f90"
      },
      "to": "0x2b7F73efA4A4CB9Dc35d2a340A277023e184D505",
      "value": {
        "_hex": "0x2086ac351052600000"
      },
      "nonce": 2,
      "data": "0x",
      "r": "0x940b0dd2c09ac0216717a13436bb61f3a90d08f3d1cb00ac7a586c0043e25c35",
      "s": "0x08d0b5a7a05547b11f51cec5a2c3380792512008510c2f86f9eec998c2826df3",
      "v": 28,
      "creates": null,
      "raw": "0xf86e02850dcc4d162a83015f90942b7f73efa4a4cb9dc35d2a340a277023e184d505892086ac351052600000801ca0940b0dd2c09ac0216717a13436bb61f3a90d08f3d1cb00ac7a586c0043e25c35a008d0b5a7a05547b11f51cec5a2c3380792512008510c2f86f9eec998c2826df3",
      "networkId": 0,
      "chainId": 0
    }
  ]
}