{
  "hash": "0xcc9ccd62f9d05669d23c648b5b15fbc37312111f0d0b4ecfcf0ddd922319b0a0",
  "parentHash": "0x270c0d646d00d1fce529cad612b6b32af4059064af7a45d9fd26657c915d7f04",
  "number": 71786,
  "timestamp": 1439341933,
  "nonce": "0x08381202483a4708",
  "difficulty": 2170770211840,
  "gasLimit": {
    "_hex": "0x2fefd8"
  },
  "gasUsed": {
    "_hex": "0xa410"
  },
  "miner": "0x9746c7e1ef2bd21FF3997fa467593a89cb852BD0",
  "extraData": "0x476574682f76312e302e312f77696e646f77732f676f312e342e32",
  "transactions": [
    {
      "hash": "0x7edeea3e569288b09a8f15885497493656674537541f97b0fd579b65621a99b1",
      "blockHash": "0xcc9ccd62f9d05669d23c648b5b15fbc37312111f0d0b4ecfcf0ddd922319b0a0",
      "blockNumber": 71786,
      "transactionIndex": 0,
      "confirmations": null,
      "from": "0xcb2Ff4305625D98A9E13C9cA10ca47cf2345e1F8",
      "gasPrice": {
        "_hex": "0xdb1888ab7"
      },
      "gasLimit": {
        "_hex": "0x5208"
      },
      "to": "0x32Be343B94f860124dC4fEe278FDCBD38C102D88",
      "value": {
        "_hex": "0x2bb6c6b7bed22a000"
      },
      "nonce": 7,
      "data": "0x",
      "r": "0x8e80a451a0fa71ac343f886b4aa772fdf53f61421ca57f3a97cd54218a67c6f1",
      "s": "0x0e5830d4954e092e99b96dc43a21b6b9f4d917b585313e1f2145020792624a18",
      "v": 27,
      "creates": null,
      "raw": "0xf86d07850db1888ab78252089432be343b94f860124dc4fee278fdcbd38c102d888902bb6c6b7bed22a000801ba08e80a451a0fa71ac343f886b4aa772fdf53f61421ca57f3a97cd54218a67c6f1a00e5830d4954e092e99b96dc43a21b6b9f4d917b585313e1f2145020792624a18",
      "networkId": 0,
      "chainId": 0
    },
    {
      "hash": "0x95824de550701b1548718afa4c05622473a0e7dce0f74c43cbbd4a388c593a47",
      "blockHash": "0xcc9ccd62f9d05669d23c648b5b15fbc37312111f0d0b4ecfcf0ddd922319b0a0",
      "blockNumber": 71786,
      "transactionIndex": 1,
      "confirmations": null,
      "from": "0xabceA603089850F8f6bB612A9031554D90A247CF",
      "gasPrice": {
        "_hex": "0xdb1888ab7"
      },
      "gasLimit": {
        "_hex": "0x5208"
      },
      "to": "0x32Be343B94f860124dC4fEe278FDCBD38C102D88",
      "value": {
        "_hex": "0x455f2e3820549400"
      },
      "nonce": 6,
      "data": "0x",
      "r": "0x7ee0b54c7d13c9206c5df05295fd0a1b4d121a06366ffc21f47bb0937d6d74bd",
      "s": "0x1a8e225dc5658893d315892feec0087084e5be9bc5b7f8df4967e0cc24661976",
      "v": 28,
      "creates": null,
      "raw": "0xf86c06850db1888ab78252089432be343b94f860124dc4fee278fdcbd38c102d8888455f2e3820549400801ca07ee0b54c7d13c9206c5df05295fd0a1b4d121a06366ffc21f47bb0937d6d74bda01a8e225dc5658893d315892feec0087084e5be9bc5b7f8df4967e0cc24661976",
      "networkId": 0,
      "chainId": 0
    }
  ]
}