{
  "hash": "0xff02b554e187ae2526f1880d7ebdec99efb5cd726f28ad63bd5b611920bba0e6",
  "parentHash": "0xde4153f5b7a1896d7f1c3ebb80d470d804a998e94ccb7847c830224aaaf23d55",
  "number": 100684,
  "timestamp": 1439810513,
  "nonce": "0x051e750d604ce91d",
  "difficulty": 3837723542293,
  "gasLimit": {
    "_hex": "0x2fefd8"
  },
  "gasUsed": {
    "_hex": "0xa410"
  },
  "miner": "0x3FF679B0823a026F2378E5f5F22A6F127cC85828",
  "extraData": "0x",
  "transactions": [
    {
      "hash": "0xe2c727a24f95998588024fb2dd405aa434768cfd92c21bc11260d330e07e694b",
      "blockHash": "0xff02b554e187ae2526f1880d7ebdec99efb5cd726f28ad63bd5b611920bba0e6",
      "blockNumber": 100684,
      "transactionIndex": 0,
      "confirmations": null,
      "from": "0x2910543Af39abA0Cd09dBb2D50200b3E800A63D2",
      "gasPrice": {
        "_hex": "0xd5e23aaee"
      },
      "gasLimit": {
        "_hex": "0x5208"
      },
      "to": "0x6Ea9d172E15e969316f49CB2D5549fc3b00c1ef3",
      "value": {
        "_hex": "0xa2a14b45d863ff8000"
      },
      "nonce": 954,
      "data": "0x",
      "r": "0x2a22631a76e779ab607d3a4570fe315f4cf7cbbb565f337e282244deb92c2b96",
      "s": "0x74398ec9c5098916c5be16d6fe32c6c1ed0915ed965cb9332073d55bbefc764a",
      "v": 28,
      "creates": null,
      "raw": "0xf86f8203ba850d5e23aaee825208946ea9d172e15e969316f49cb2d5549fc3b00c1ef389a2a14b45d863ff8000801ca02a22631a76e779ab607d3a4570fe315f4cf7cbbb565f337e282244deb92c2b96a074398ec9c5098916c5be16d6fe32c6c1ed0915ed965cb9332073d55bbefc764a",
      "networkId": 0,
      "chainId": 0
    },
    {
      "hash": "0xcdbcda6cb7161e53f3a00646d2991b948c9658bacc8bfa5d61123de24d2f5404",
      "blockHash": "0xff02b554e187ae2526f1880d7ebdec99efb5cd726f28ad63bd5b611920bba0e6",
      "blockNumber": 100684,
      "transactionIndex": 1,
      "confirmations": null,
      "from": "0x31353beec2eD3DFfC213c27A9F28ad8dfee828e9",
      "gasPrice": {
        "_hex": "0xd3d37f23a"
      },
      "gasLimit": {
        "_hex": "0x15f90"
      },
      "to": "0x6680AfD5E3Cd4B3b9A1D8D1a647Caa4Ff1D37E3D",
      "value": {
        "_hex": "0x470de4df820000"
      },
      "nonce": 4,
      "data": "0x",
      "r": "0x111add45c3454906ad92f5ddb01e757fc9dbfc7c2fcd25d9c51efa7079f7b050",
      "s": "0x1d3ddc1fbc8d191845dff894062ee11ccea4bf988bbc3269a0f1f6674b5b7fc5",
      "v": 28,
      "creates": null,
      "raw": "0xf86c04850d3d37f23a83015f90946680afd5e3cd4b3b9a1d8d1a647caa4ff1d37e3d87470de4df820000801ca0111add45c3454906ad92f5ddb01e757fc9dbfc7c2fcd25d9c51efa7079f7b050a01d3ddc1fbc8d191845dff894062ee11ccea4bf988bbc3269a0f1f6674b5b7fc5",
      "networkId": 0,
      "chainId": 0
    }
  ]
}