{
  "hash": "0x9e8ef069ef7410ddc0e31903c3731dafce2b99894a795b2871934b1df28ba021",
  "parentHash": "0x7bab4643ae2647a44a7efc0958a7eddfeeb1599cf0d4626cd593d795ff8b8016",
  "number": 103935,
  "timestamp": 1439861233,
  "nonce": "0xf5f5ae98aab869f6",
  "difficulty": 4269195559989,
  "gasLimit": {
    "_hex": "0x2fefd8"
  },
  "gasUsed": {
    "_hex": "0x5208"
  },
  "miner": "0xe6A7a1d47ff21B6321162AEA7C6CB457D5476Bca",
  "extraData": "0x476574682f76312e302e312d38326566323666362f6c696e75782f676f312e34",
  "transactions": [
    {
      "hash": "0x65e94e73aaf2f4b679c1b19e2a99c905f60c6528a72d75b967c0d3f18556294d",
      "blockHash": "0x9e8ef069ef7410ddc0e31903c3731dafce2b99894a795b2871934b1df28ba021",
      "blockNumber": 103935,
      "transactionIndex": 0,
      "confirmations": null,
      "from": "0x32Be343B94f860124dC4fEe278FDCBD38C102D88",
      "gasPrice": {
        "_hex": "0xd8b162600"
      },
      "gasLimit": {
        "_hex": "0x5208"
      },
      "to": "0x3f6da2f18Ce077B065ac7bcae884bF439a222B35",
      "value": {
        "_hex": "0xdbd2fc137a30000"
      },
      "nonce": 1142,
      "data": "0x",
      "r": "0xd164800740963149cbb118b8a937d2155fffd25fc3f77109427562ac855a1c81",
      "s": "0x44d63b31dc47591cd4916eef09cb622e7af1f872edfaccdf0ff19d0a98c40b60",
      "v": 28,
      "creates": null,
      "raw": "0xf86e820476850d8b162600825208943f6da2f18ce077b065ac7bcae884bf439a222b35880dbd2fc137a30000801ca0d164800740963149cbb118b8a937d2155fffd25fc3f77109427562ac855a1c81a044d63b31dc47591cd4916eef09cb622e7af1f872edfaccdf0ff19d0a98c40b60",
      "networkId": 0,
      "chainId": 0
    }
  ]
}