{
  "hash": "0x89dd72288286c65be71497553447ff876a2d4c55d0002d61338b9d713a1f0af9",
  "parentHash": "0x97c31e2512f219d69c59100a337ce9d2d0e9f2429b7b386cb52bd4a3a6446024",
  "number": 101624,
  "timestamp": 1439825641,
  "nonce": "0xb718fe5ecf8580f1",
  "difficulty": 3893917596979,
  "gasLimit": {
    "_hex": "0x2fefd8"
  },
  "gasUsed": {
    "_hex": "0x5208"
  },
  "miner": "0x31995C46B15C84523cDEE26f49A681b8237e43F5",
  "extraData": "0x476574682f76312e302e312f77696e646f77732f676f312e342e32",
  "transactions": [
    {
      "hash": "0x557bde495779b3ad5f5624922956a5dc2fbacf8e1637e1f54d97ba50dad32ca3",
      "blockHash": "0x89dd72288286c65be71497553447ff876a2d4c55d0002d61338b9d713a1f0af9",
      "blockNumber": 101624,
      "transactionIndex": 0,
      "confirmations": null,
      "from": "0x8fA33bA169f6aFf86fB3C9E172bddA7CA6D2A66a",
      "gasPrice": {
        "_hex": "0xcd28c6ded"
      },
      "gasLimit": {
        "_hex": "0x5208"
      },
      "to": "0x32Be343B94f860124dC4fEe278FDCBD38C102D88",
      "value": {
        "_hex": "0x8df7ed293ee4e000"
      },
      "nonce": 3,
      "data": "0x",
      "r": "0x1b7eaf0d93299cc37cccda0193f8e59dfed75a0848a107d97c7608d5a5aeb3ec",
      "s": "0x583cb9a3b8ef37f55b39997f9df387614f1038c3fc49cac34ad035cee1368ef0",
      "v": 27,
      "creates": null,
      "raw": "0xf86c03850cd28c6ded8252089432be343b94f860124dc4fee278fdcbd38c102d88888df7ed293ee4e000801ba01b7eaf0d93299cc37cccda0193f8e59dfed75a0848a107d97c7608d5a5aeb3eca0583cb9a3b8ef37f55b39997f9df387614f1038c3fc49cac34ad035cee1368ef0",
      "networkId": 0,
      "chainId": 0
    }
  ]
}