{
  "hash": "0xaacc2c1b51f57188b1faa4dd767bd840a93eed306b5f81d5435341d635cca963",
  "parentHash": "0x8749e5385aa688711b918d65ebca164464535a8dfc2ce289dbee55010ec9e38a",
  "number": 71339,
  "timestamp": 1439334359,
  "nonce": "0x37f793adaad31c35",
  "difficulty": 2176192377604,
  "gasLimit": {
    "_hex": "0x2fefd8"
  },
  "gasUsed": {
    "_hex": "0x93b2"
  },
  "miner": "0x88D74a59454F6cF3B51ef6b9136AFb6b9D405A88",
  "extraData": "0x476574682f76312e302e312d37666266393930632f6c696e75782f676f312e34",
  "transactions": [
    {
      "hash": "0x8a192ccd3314ef690928cdb0e17c31ea898778b82ab330c25f7780a884c2bcfa",
      "blockHash": "0xaacc2c1b51f57188b1faa4dd767bd840a93eed306b5f81d5435341d635cca963",
      "blockNumber": 71339,
      "transactionIndex": 0,
      "confirmations": null,
      "from": "0x17580B766f7453525ca4C6A88b01b50570EA088C",
      "gasPrice": {
        "_hex": "0xd51ae999c"
      },
      "gasLimit": {
        "_hex": "0x61a80"
      },
      "to": "0x5Fe5B7546D1628f7348B023A0393de1FC825A4fD",
      "value": {
        "_hex": "0xde0b6b3a7640000"
      },
      "nonce": 153,
      "data": "0xb595b8b50000000000000000000000000000000000000000000000000000000000000000",
      "r": "0x5ad227fe2d71079e90ed132b72cd4a2bed1cc6b5bef50a83e5cb21f2a4cb9d39",
      "s": "0x398c788cdeb4eda5bb9a2def026337b61028124c28f97be2f0f038b997ae3588",
      "v": 28,
      "creates": null,
      "raw": "0xf8928199850d51ae999c83061a80945fe5b7546d1628f7348b023a0393de1fc825a4fd880de0b6b3a7640000a4b595b8b500000000000000000000000000000000000000000000000000000000000000001ca05ad227fe2d71079e90ed132b72cd4a2bed1cc6b5bef50a83e5cb21f2a4cb9d39a0398c788cdeb4eda5bb9a2def026337b61028124c28f97be2f0f038b997ae3588",
      "networkId": 0,
      "chainId": 0
    }
  ]
}