{
  "hash": "0x599a259a04fc39de68645ce65f84aac9e276c9b190cc362f75e8fae76485f0d6",
  "parentHash": "0x10892cfa7024c182641e2566a10e3097e110f6b033a697112bd3f40aba8563ac",
  "number": 88103,
  "timestamp": 1439602694,
  "nonce": "0xa145ede3b017d5af",
  "difficulty": 3197269261490,
  "gasLimit": {
    "_hex": "0x2fefd8"
  },
  "gasUsed": {
    "_hex": "0xa674"
  },
  "miner": "0xe6A7a1d47ff21B6321162AEA7C6CB457D5476Bca",
  "extraData": "0x476574682f76312e302e312d38326566323666362f6c696e75782f676f312e34",
  "transactions": [
    {
      "hash": "0xbaf2eddc417a52066a54c799649ebfe309771cc70fd443944785512d4e5d2b34",
      "blockHash": "0x599a259a04fc39de68645ce65f84aac9e276c9b190cc362f75e8fae76485f0d6",
      "blockNumber": 88103,
      "transactionIndex": 0,
      "confirmations": null,
      "from": "0xD3a33636677fFF0BE34EC503b9E848b296E0972A",
      "gasPrice": {
        "_hex": "0x11633dd4aa0"
      },
      "gasLimit": {
        "_hex": "0x55f0"
      },
      "to": "0x2910543Af39abA0Cd09dBb2D50200b3E800A63D2",
      "value": {
        "_hex": "0xb1a2bc2ec500000"
      },
      "nonce": 5,
      "data": "0x454e324e5441315738",
      "r": "0x7166b963076c160a8172d498a54763b29ccd7f4b8c762a586ab4a1e8d509cd06",
      "s": "0x6de5da0a0d07b23d80f7610d94c4cfd970574c49d4117fa96855a7463a95ed40",
      "v": 27,
      "creates": null,
      "raw": "0xf8760586011633dd4aa08255f0942910543af39aba0cd09dbb2d50200b3e800a63d2880b1a2bc2ec50000089454e324e54413157381ba07166b963076c160a8172d498a54763b29ccd7f4b8c762a586ab4a1e8d509cd06a06de5da0a0d07b23d80f7610d94c4cfd970574c49d4117fa96855a7463a95ed40",
      "networkId": 0,
      "chainId": 0
    },
    {
      "hash": "0xfee6fdc9866f96e228af884ec1b390823c0a9160d85188e92bb46cc0750b2d05",
      "blockHash": "0x599a259a04fc39de68645ce65f84aac9e276c9b190cc362f75e8fae76485f0d6",
      "blockNumber": 88103,
      "transactionIndex": 1,
      "confirmations": null,
      "from": "0xa6BDc31c431B8F97848c9D60cbbe9660dc450eB7",
      "gasPrice": {
        "_hex": "0xdf00831b5"
      },
      "gasLimit": {
        "_hex": "0x5208"
      },
      "to": "0x32Be343B94f860124dC4fEe278FDCBD38C102D88",
      "value": {
        "_hex": "0x478a2c0431720000"
      },
      "nonce": 82,
      "data": "0x",
      "r": "0xa606da8996a7eedbd5ae7466155d0a21679d3284766a4be2bda1e3e4efda4606",
      "s": "0x7e0c1a2106784b755a93b5f20d3821c5bee9df63d567562ebbb43994505206e2",
      "v": 27,
      "creates": null,
      "raw": "0xf86c52850df00831b58252089432be343b94f860124dc4fee278fdcbd38c102d8888478a2c0431720000801ba0a606da8996a7eedbd5ae7466155d0a21679d3284766a4be2bda1e3e4efda4606a07e0c1a2106784b755a93b5f20d3821c5bee9df63d567562ebbb43994505206e2",
      "networkId": 0,
      "chainId": 0
    }
  ]
}