{
  "hash": "0x09407aac2c43b7abd5f3ed53d6342727cb4097902a3252c076712e3b5a8e480c",
  "parentHash": "0x92792f42d4fa6a826a38d075313ed4f2f626127c3de28d24c5ec1309cddbd46b",
  "number": 56933,
  "timestamp": 1439094832,
  "nonce": "0x927d3c8eb7df3d3b",
  "difficulty": 1709378717553,
  "gasLimit": {
    "_hex": "0x2fefd8"
  },
  "gasUsed": {
    "_hex": "0x546c"
  },
  "miner": "0x1B7047b4338ACf65bE94C1A3e8c5c9338ad7d67C",
  "extraData": "0x476574682f76312e302e312d38326566323666362f6c696e75782f676f312e34",
  "transactions": [
    {
      "hash": "0xc6e8b1cab938e06a72759f37db2996fcca0d0927aa45af7c1604edddc9a9e7d5",
      "blockHash": "0x09407aac2c43b7abd5f3ed53d6342727cb4097902a3252c076712e3b5a8e480c",
      "blockNumber": 56933,
      "transactionIndex": 0,
      "confirmations": null,
      "from": "0xc42250b0FE42e6B7dcD5C890A6F0C88F5f5fb574",
      "gasPrice": {
        "_hex": "0x110c8f7d8de"
      },
      "gasLimit": {
        "_hex": "0xc350"
      },
      "to": "0x2910543Af39abA0Cd09dBb2D50200b3E800A63D2",
      "value": {
        "_hex": "0x813ca56906d340000"
      },
      "nonce": 0,
      "data": "0x454e57545836325530",
      "r": "0xd1467d594cb71fe8a24636c81b4da6080629f89e1dddd53864c16b9b3b3ba26b",
      "s": "0x5c77a9413442561fbd99a8d19dc8173bd5101e6fbe7d526185e37c89ce4765b1",
      "v": 28,
      "creates": null,
      "raw": "0xf87780860110c8f7d8de82c350942910543af39aba0cd09dbb2d50200b3e800a63d2890813ca56906d34000089454e575458363255301ca0d1467d594cb71fe8a24636c81b4da6080629f89e1dddd53864c16b9b3b3ba26ba05c77a9413442561fbd99a8d19dc8173bd5101e6fbe7d526185e37c89ce4765b1",
      "networkId": 0,
      "chainId": 0
    }
  ]
}