{
  "hash": "0x41d2b10b6d110fb37c5da1e4ddce1aa33b263dff8307ab0ef21f186690fb405a",
  "parentHash": "0x7bb3258e6fb82f04acceb1e1cd0c8e51dca86ace3c70ef0d2e2b4fe6a75e5573",
  "number": 47112,
  "timestamp": 1438934382,
  "nonce": "0x95fcd3f30c738473",
  "difficulty": 1461679153218,
  "gasLimit": {
    "_hex": "0x9874"
  },
  "gasUsed": {
    "_hex": "0x5208"
  },
  "miner": "0xf927a40C8B7F6E07c5af7FA2155B4864a4112B13",
  "extraData": "0x476574682f76312e302e312f6c696e75782f676f312e342e32",
  "transactions": [
    {
      "hash": "0x8385d8cad79c760bb4474298c6d5abe5c2ee2f04662f518c666e4fe0adc9d5d7",
      "blockHash": "0x41d2b10b6d110fb37c5da1e4ddce1aa33b263dff8307ab0ef21f186690fb405a",
      "blockNumber": 47112,
      "transactionIndex": 0,
      "confirmations": null,
      "from": "0xe6A7a1d47ff21B6321162AEA7C6CB457D5476Bca",
      "gasPrice": {
        "_hex": "0xd1bc8f15b"
      },
      "gasLimit": {
        "_hex": "0x5208"
      },
      "to": "0x79F6a9Fc08d42283B5742e6C5Fd1DF7Ab09eADFA",
      "value": {
        "_hex": "0x2e6901eed82e7f10"
      },
      "nonce": 46,
      "data": "0x",
      "r": "0x6d82ff08f4459d712c4490f2b7644c0bbb26a158d49c985fa35180264bc9c4e8",
      "s": "0x47975c311a02192e2734f032ce99cb273a509159cb18ee408383a46a6bcedb12",
      "v": 28,
      "creates": null,
      "raw": "0xf86c2e850d1bc8f15b8252089479f6a9fc08d42283b5742e6c5fd1df7ab09eadfa882e6901eed82e7f10801ca06d82ff08f4459d712c4490f2b7644c0bbb26a158d49c985fa35180264bc9c4e8a047975c311a02192e2734f032ce99cb273a509159cb18ee408383a46a6bcedb12",
      "networkId": 0,
      "chainId": 0
    }
  ]
}