{
  "hash": "0xea8f92e439e46c3058cb13cc0edff3138ab6a1cb44ecf4cfaefe8aa25150f7b8",
  "parentHash": "0x25a5a75e1330e8fa2f27e84c785fbf5268f41c4bb14fc4dc590f8c02d127e30e",
  "number": 121014,
  "timestamp": 1440169992,
  "nonce": "0xdeb4965750b105b9",
  "difficulty": 4428069286881,
  "gasLimit": {
    "_hex": "0x2fefd8"
  },
  "gasUsed": {
    "_hex": "0x5208"
  },
  "miner": "0x17B719A685fC6C0002798e7f8151D0E2E83B7497",
  "extraData": "0x",
  "transactions": [
    {
      "hash": "0xacd83d451a77e5596f304c9289ba04b477e3fa9e62001814bb166a5aa0110114",
      "blockHash": "0xea8f92e439e46c3058cb13cc0edff3138ab6a1cb44ecf4cfaefe8aa25150f7b8",
      "blockNumber": 121014,
      "transactionIndex": 0,
      "confirmations": null,
      "from": "0x32Be343B94f860124dC4fEe278FDCBD38C102D88",
      "gasPrice": {
        "_hex": "0xba43b7400"
      },
      "gasLimit": {
        "_hex": "0x5208"
      },
      "to": "0x7aAaa306d4a7Fd1696A82A66cc538D29f5af4e39",
      "value": {
        "_hex": "0x45400a8fd5330000"
      },
      "nonce": 1541,
      "data": "0x",
      "r": "0x403bb3e48cb048343f90997a41552b4b033c7e8f0cb1dcbab69823b33d9b914d",
      "s": "0x63844eb26134b16b53a930732bd7272e9445de2dc7ee386338ad57db93f47443",
      "v": 28,
      "creates": null,
      "raw": "0xf86e820605850ba43b7400825208947aaaa306d4a7fd1696a82a66cc538d29f5af4e398845400a8fd5330000801ca0403bb3e48cb048343f90997a41552b4b033c7e8f0cb1dcbab69823b33d9b914da063844eb26134b16b53a930732bd7272e9445de2dc7ee386338ad57db93f47443",
      "networkId": 0,
      "chainId": 0
    }
  ]
}