{
  "hash": "0x7a7618edceea22e44d74f3f3da115044ffad7caa165e2f1f39921e1d8ec2bd0e",
  "parentHash": "0x5e42bac6e1d84bd6d1f6c971466c8ad7fcafe75989df84645b731b228fcdf7b3",
  "number": 81145,
  "timestamp": 1439496943,
  "nonce": "0x31718fa8e588db98",
  "difficulty": 2441514916676,
  "gasLimit": {
    "_hex": "0x2fefd8"
  },
  "gasUsed": {
    "_hex": "0x14820"
  },
  "miner": "0xf8E0CA3Ed80bd541b94BEdCf259e8CF2141A9523",
  "extraData": "0x476574682f76312e302e312f77696e646f77732f676f312e342e32",
  "transactions": [
    {
      "hash": "0x73224c83f37cfbb914c94a04dc7412ca6e67c4a1d14ba1da2b321e232ed21eb9",
      "blockHash": "0x7a7618edceea22e44d74f3f3da115044ffad7caa165e2f1f39921e1d8ec2bd0e",
      "blockNumber": 81145,
      "transactionIndex": 0,
      "confirmations": null,
      "from": "0x120A270bbC009644e35F0bB6ab13f95b8199c4ad",
      "gasPrice": {
        "_hex": "0xdf35daf61"
      },
      "gasLimit": {
        "_hex": "0x3d090"
      },
      "to": "0xFbc92cE518a6CA6341B08b4468880Cc9Dd61a027",
      "value": {
        "_hex": "0x18e364461c24c71000"
      },
      "nonce": 369,
      "data": "0x",
      "r": "0x5431682cf2802ef91389c4e82384a963fdc2c7a4a573cfad84311d8caa2e3ad5",
      "s": "0x07335e0d93f9964bde23cc725d354132a75824b3033a99672a5b665bfa563d97",
      "v": 27,
      "creates": null,
      "raw": "0xf870820171850df35daf618303d09094fbc92ce518a6ca6341b08b4468880cc9dd61a0278918e364461c24c71000801ba05431682cf2802ef91389c4e82384a963fdc2c7a4a573cfad84311d8caa2e3ad5a007335e0d93f9964bde23cc725d354132a75824b3033a99672a5b665bfa563d97",
      "networkId": 0,
      "chainId": 0
    },
    {
      "hash": "0xa9dce1e953a1ab99ba28cfd59da33a9d562c743788659a7b4f8547afaa2845db",
      "blockHash": "0x7a7618edceea22e44d74f3f3da115044ffad7caa165e2f1f39921e1d8ec2bd0e",
      "blockNumber": 81145,
      "transactionIndex": 1,
      "confirmations": null,
      "from": "0x7Eb9F59f9547E376188eD83EFCD1F6dbF3712eA6",
      "gasPrice": {
        "_hex": "0xd7d40ace3"
      },
      "gasLimit": {
        "_hex": "0x15f90"
      },
      "to": "0xAd941B747c499E3ad5728C285446813783A33564",
      "value": {
        "_hex": "0x4563918244f40000"
      },
      "nonce": 8,
      "data": "0x",
      "r": "0xc5d4b89dd25b024d8775635721303a3eaa68aa46b0479b34b79f5327128e6d74",
      "s": "0x76c67b27c634c2b068ba4329fc83759db58748281a20cbe7eccf875ebf8a7f72",
      "v": 28,
      "creates": null,
      "raw": "0xf86d08850d7d40ace383015f9094ad941b747c499e3ad5728c285446813783a33564884563918244f40000801ca0c5d4b89dd25b024d8775635721303a3eaa68aa46b0479b34b79f5327128e6d74a076c67b27c634c2b068ba4329fc83759db58748281a20cbe7eccf875ebf8a7f72",
      "networkId": 0,
      "chainId": 0
    },
    {
      "hash": "0x10d1932d514d5629528bbce20105d28c708e0aaa316b25b0a439ab6a9de121ce",
      "blockHash": "0x7a7618edceea22e44d74f3f3da115044ffad7caa165e2f1f39921e1d8ec2bd0e",
      "blockNumber": 81145,
      "transactionIndex": 2,
      "confirmations": null,
      "from": "0xB818B6Ac9290F3dC125E077eCCFCf471516D1c62",
      "gasPrice": {
        "_hex": "0xba43b7400"
      },
      "gasLimit": {
        "_hex": "0x5208"
      },
      "to": "0xC47Aaa860008be6f65B58c6C6E02a84e666EfE31",
      "value": {
        "_hex": "0xb4658c2753106000"
      },
      "nonce": 1,
      "data": "0x",
      "r": "0xa6e9c4dc5d555cad98014e07e9b342d5982ce68a26c7280658c8e04e650310dd",
      "s": "0x74a2c7ad06899915698771402e65e148e1b3143ccdd870db32d574dd470667bd",
      "v": 27,
      "creates": null,
      "raw": "0xf86c01850ba43b740082520894c47aaa860008be6f65b58c6c6e02a84e666efe3188b4658c2753106000801ba0a6e9c4dc5d555cad98014e07e9b342d5982ce68a26c7280658c8e04e650310dda074a2c7ad06899915698771402e65e148e1b3143ccdd870db32d574dd470667bd",
      "networkId": 0,
      "chainId": 0
    },
    {
      "hash": "0xd85abf83aec14a0bd4a5e6f123760f94e48570b8a6297639ecaf765eaa2d8959",
      "blockHash": "0x7a7618edceea22e44d74f3f3da115044ffad7caa165e2f1f39921e1d8ec2bd0e",
      "blockNumber": 81145,
      "transactionIndex": 3,
      "confirmations": null,
      "from": "0x41d38070FDD7962bfe615F6831B68617B165b8FB",
      "gasPrice": {
        "_hex": "0xba43b7400"
      },
      "gasLimit": {
        "_hex": "0x5208"
      },
      "to": "0xC47Aaa860008be6f65B58c6C6E02a84e666EfE31",
      "value": {
        "_hex": "0xc24642dafa746000"
      },
      "nonce": 0,
      "data": "0x",
      "r": "0xeb41e7225ddec6cca0fc5a9dee17f2cb2f1722409ef962997d25ae6245bf1fa2",
      "s": "0x7753ab0421858c28ac4b2e35c159ce28ea6efc6cd2c5c321dcfc839efdec40a5",
      "v": 28,
      "creates": null,
      "raw": "0xf86c80850ba43b740082520894c47aaa860008be6f65b58c6c6e02a84e666efe3188c24642dafa746000801ca0eb41e7225ddec6cca0fc5a9dee17f2cb2f1722409ef962997d25ae6245bf1fa2a07753ab0421858c28ac4b2e35c159ce28ea6efc6cd2c5c321dcfc839efdec40a5",
      "networkId": 0,
      "chainId": 0
    }
  ]
}