{
  "hash": "0xdb4a73858f24d20e5dffa14a2f8bc4db25dc25bc450648760beaf8dc167cf581",
  "parentHash": "0x88da6d0f62a640d2d935a4d4959d97213916a69a22930a337b2e00d84abc755d",
  "number": 84307,
  "timestamp": 1439547833,
  "nonce": "0xb869a5edf9a2e7d6",
  "difficulty": 2537817037385,
  "gasLimit": {
    "_hex": "0x2fefd8"
  },
  "gasUsed": {
    "_hex": "0xa410"
  },
  "miner": "0xe6A7a1d47ff21B6321162AEA7C6CB457D5476Bca",
  "extraData": "0x476574682f76312e302e312d38326566323666362f6c696e75782f676f312e34",
  "transactions": [
    {
      "hash": "0xbe19178841523eadda6576639c586900a8b213bdcfeef6fdc5e4e5edf5aa3929",
      "blockHash": "0xdb4a73858f24d20e5dffa14a2f8bc4db25dc25bc450648760beaf8dc167cf581",
      "blockNumber": 84307,
      "transactionIndex": 0,
      "confirmations": null,
      "from": "0xf79785E5a846aCea08F94379fCCe79B1054bDB99",
      "gasPrice": {
        "_hex": "0xdda9032fc"
      },
      "gasLimit": {
        "_hex": "0x5208"
      },
      "to": "0x32Be343B94f860124dC4fEe278FDCBD38C102D88",
      "value": {
        "_hex": "0x13e9402439af3e000"
      },
      "nonce": 9,
      "data": "0x",
      "r": "0x083a9f7e30f5802dae13a32d9373b4c68179004aa2bd7130e214b591695d1f37",
      "s": "0x7c3a305feb853bb9d3fb18c9f424f87e0ba8572f80af98e159d4c0d29bd3b247",
      "v": 28,
      "creates": null,
      "raw": "0xf86d09850dda9032fc8252089432be343b94f860124dc4fee278fdcbd38c102d8889013e9402439af3e000801ca0083a9f7e30f5802dae13a32d9373b4c68179004aa2bd7130e214b591695d1f37a07c3a305feb853bb9d3fb18c9f424f87e0ba8572f80af98e159d4c0d29bd3b247",
      "networkId": 0,
      "chainId": 0
    },
    {
      "hash": "0x7b0bb268d93675054dfffad16f41af7c6b0133a61b5f7451b078769934edfc13",
      "blockHash": "0xdb4a73858f24d20e5dffa14a2f8bc4db25dc25bc450648760beaf8dc167cf581",
      "blockNumber": 84307,
      "transactionIndex": 1,
      "confirmations": null,
      "from": "0x34d34F0a638F6991e4E2536F41295DF6E934A646",
      "gasPrice": {
        "_hex": "0xdda9032fc"
      },
      "gasLimit": {
        "_hex": "0x5208"
      },
      "to": "0x32Be343B94f860124dC4fEe278FDCBD38C102D88",
      "value": {
        "_hex": "0xa91e9d28bca01000"
      },
      "nonce": 9,
      "data": "0x",
      "r": "0xc746b47482aac8d2aac04173a1a51d3ebfd6f512fe850551c88fd498fc5900b9",
      "s": "0x6ab366a0a6a48a2475238fd42a946d2b4db15fcc9451ab387f66743d1072c418",
      "v": 28,
      "creates": null,
      "raw": "0xf86c09850dda9032fc8252089432be343b94f860124dc4fee278fdcbd38c102d8888a91e9d28bca01000801ca0c746b47482aac8d2aac04173a1a51d3ebfd6f512fe850551c88fd498fc5900b9a06ab366a0a6a48a2475238fd42a946d2b4db15fcc9451ab387f66743d1072c418",
      "networkId": 0,
      "chainId": 0
    }
  ]
}