{
  "hash": "0xe484b60e4aa29b49382b2b64e2ddc89c19884ddf37662cf8db20fed2997f2b77",
  "parentHash": "0x427fbbfdd570a9bca5e2ce1cc64ea3781e07dd9515a625c3ddc1900f87783f89",
  "number": 107269,
  "timestamp": 1439919386,
  "nonce": "0x53dcee0cfb4b1882",
  "difficulty": 4433165606647,
  "gasLimit": {
    "_hex": "0x2fefd8"
  },
  "gasUsed": {
    "_hex": "0xa410"
  },
  "miner": "0xe6A7a1d47ff21B6321162AEA7C6CB457D5476Bca",
  "extraData": "0x476574682f76312e302e312d38326566323666362f6c696e75782f676f312e34",
  "transactions": [
    {
      "hash": "0x4ce2db0f996125cbad0e2ac69a98462253da86180c3395456251f9e1a87535d7",
      "blockHash": "0xe484b60e4aa29b49382b2b64e2ddc89c19884ddf37662cf8db20fed2997f2b77",
      "blockNumber": 107269,
      "transactionIndex": 0,
      "confirmations": null,
      "from": "0x4D67f4F0Db45b3B5a3424B39ed8d972F710381D5",
      "gasPrice": {
        "_hex": "0xdd415a945"
      },
      "gasLimit": {
        "_hex": "0x5208"
      },
      "to": "0x32Be343B94f860124dC4fEe278FDCBD38C102D88",
      "value": {
        "_hex": "0x2ebfec9ca09b36000"
      },
      "nonce": 30,
      "data": "0x",
      "r": "0x57f9b155ed82dc9887914c655f0158b0dafc509a9a466557e947799690f98fb8",
      "s": "0x3578213f6e7a75e569febe4311e248ff375ce1717b58c06428c877ab167ee4da",
      "v": 27,
      "creates": null,
      "raw": "0xf86d1e850dd415a9458252089432be343b94f860124dc4fee278fdcbd38c102d888902ebfec9ca09b36000801ba057f9b155ed82dc9887914c655f0158b0dafc509a9a466557e947799690f98fb8a03578213f6e7a75e569febe4311e248ff375ce1717b58c06428c877ab167ee4da",
      "networkId": 0,
      "chainId": 0
    },
    {
      "hash": "0x82e9a7ab8dbeb510b492013e1af987a6e6b657fe06e8931a11f46ea23d56518b",
      "blockHash": "0xe484b60e4aa29b49382b2b64e2ddc89c19884ddf37662cf8db20fed2997f2b77",
      "blockNumber": 107269,
      "transactionIndex": 1,
      "confirmations": null,
      "from": "0x2910543Af39abA0Cd09dBb2D50200b3E800A63D2",
      "gasPrice": {
        "_hex": "0xd3eaf7091"
      },
      "gasLimit": {
        "_hex": "0x5208"
      },
      "to": "0x01f20444E96CCbf43c98eDf5Aa5B3e45082ABaFd",
      "value": {
        "_hex": "0x11c37937e08000"
      },
      "nonce": 1042,
      "data": "0x",
      "r": "0xec82751cfe9655c3828d404e5d7c88ddb1278a4ba19ebf55ec2c79e63e230ac1",
      "s": "0x650183dca0f63c8880b5074a86d2d3a48739121834c4686277840358d8e38960",
      "v": 28,
      "creates": null,
      "raw": "0xf86d820412850d3eaf70918252089401f20444e96ccbf43c98edf5aa5b3e45082abafd8711c37937e08000801ca0ec82751cfe9655c3828d404e5d7c88ddb1278a4ba19ebf55ec2c79e63e230ac1a0650183dca0f63c8880b5074a86d2d3a48739121834c4686277840358d8e38960",
      "networkId": 0,
      "chainId": 0
    }
  ]
}