{
  "hash": "0xf038bf7ac646000fc888962212aaada85aa4a91fea173c4a3b2a39fffeaf074d",
  "parentHash": "0x278436b6772e614e20fbce030201c2e0a0c8004046a3359dde1554a5476abdd1",
  "number": 61347,
  "timestamp": 1439171010,
  "nonce": "0x4326ca677b0fbb06",
  "difficulty": 1726931233527,
  "gasLimit": {
    "_hex": "0x2fefd8"
  },
  "gasUsed": {
    "_hex": "0x5208"
  },
  "miner": "0x5F8F73E26CdF436f19Cb24C82F90A15AFe55b592",
  "extraData": "0x476574682f76312e302e312f77696e646f77732f676f312e342e32",
  "transactions": [
    {
      "hash": "0x2974698e9b48350aac8bb599f89f75d591352926df8e82e6e17e54e4f5592baf",
      "blockHash": "0xf038bf7ac646000fc888962212aaada85aa4a91fea173c4a3b2a39fffeaf074d",
      "blockNumber": 61347,
      "transactionIndex": 0,
      "confirmations": null,
      "from": "0x2910543Af39abA0Cd09dBb2D50200b3E800A63D2",
      "gasPrice": {
        "_hex": "0xde920e547"
      },
      "gasLimit": {
        "_hex": "0x5208"
      },
      "to": "0xb4Ad43131139584E8f6F31D578E0dC4d11Df6D7b",
      "value": {
        "_hex": "0x1a055690d9db80000"
      },
      "nonce": 99,
      "data": "0x",
      "r": "0xce3aa6a996219675f70d41f7741efcca69766a5d86b83565c0b53d3f465dfd06",
      "s": "0x7071b10e47983b9d06f7f3e00054e1d6641aae5dd1d05a04b3b96a11c13bf905",
      "v": 27,
      "creates": null,
      "raw": "0xf86d63850de920e54782520894b4ad43131139584e8f6f31d578e0dc4d11df6d7b8901a055690d9db80000801ba0ce3aa6a996219675f70d41f7741efcca69766a5d86b83565c0b53d3f465dfd06a07071b10e47983b9d06f7f3e00054e1d6641aae5dd1d05a04b3b96a11c13bf905",
      "networkId": 0,
      "chainId": 0
    }
  ]
}