{
  "hash": "0xc8d9554899525eaf6ddceda3cbfc38295b157232803ff1e4f06b3128989d3a22",
  "parentHash": "0x82cef9ad4859e58ea0217e4dac713d4e0d6c07c39e9a87f7e18f0ad3a578e59e",
  "number": 102857,
  "timestamp": 1439844168,
  "nonce": "0x65188b5087248dbe",
  "difficulty": 4082183615478,
  "gasLimit": {
    "_hex": "0x2fefd8"
  },
  "gasUsed": {
    "_hex": "0x5208"
  },
  "miner": "0xe6A7a1d47ff21B6321162AEA7C6CB457D5476Bca",
  "extraData": "0x476574682f76312e302e312d38326566323666362f6c696e75782f676f312e34",
  "transactions": [
    {
      "hash": "0x91dc2ba7dbe344ece767fb7a91cbe6e83b3bb3aebd4e9011c88077b2a15eab29",
      "blockHash": "0xc8d9554899525eaf6ddceda3cbfc38295b157232803ff1e4f06b3128989d3a22",
      "blockNumber": 102857,
      "transactionIndex": 0,
      "confirmations": null,
      "from": "0xc97b6E47df229442524F8f210926557900f81574",
      "gasPrice": {
        "_hex": "0xcc6dcd7d1"
      },
      "gasLimit": {
        "_hex": "0x5208"
      },
      "to": "0x32Be343B94f860124dC4fEe278FDCBD38C102D88",
      "value": {
        "_hex": "0x1c9f36a761123d000"
      },
      "nonce": 13,
      "data": "0x",
      "r": "0x9100ebd66a6547aabcff8c3f8dfe33e8244a73a7d4cbdb25d63e5125edb46a82",
      "s": "0x6d75fc739596a447552570f9d81cef9f56980a63564ee2212700ea38bd330caf",
      "v": 27,
      "creates": null,
      "raw": "0xf86d0d850cc6dcd7d18252089432be343b94f860124dc4fee278fdcbd38c102d888901c9f36a761123d000801ba09100ebd66a6547aabcff8c3f8dfe33e8244a73a7d4cbdb25d63e5125edb46a82a06d75fc739596a447552570f9d81cef9f56980a63564ee2212700ea38bd330caf",
      "networkId": 0,
      "chainId": 0
    }
  ]
}