{
  "hash": "0x515cdb54c6811d3bf0e4aa683db2aac04e37e768a163365382dd238e36b810f3",
  "parentHash": "0xb105bc94a846f7d1b5b68d6a9414ee4fbb79fb57236047f48e24694df76ba67a",
  "number": 115805,
  "timestamp": 1440063770,
  "nonce": "0x44625b2abe407354",
  "difficulty": 4555870662906,
  "gasLimit": {
    "_hex": "0x2fefd8"
  },
  "gasUsed": {
    "_hex": "0xa410"
  },
  "miner": "0x52bc44d5378309EE2abF1539BF71dE1b7d7bE3b5",
  "extraData": "0x476574682f76312e302e312d65626434373230372f6c696e75782f676f312e34",
  "transactions": [
    {
      "hash": "0xf9f995cb1ee9e6c1e500a254891e04249ec3e6f46302f007ce278f1275aebe66",
      "blockHash": "0x515cdb54c6811d3bf0e4aa683db2aac04e37e768a163365382dd238e36b810f3",
      "blockNumber": 115805,
      "transactionIndex": 0,
      "confirmations": null,
      "from": "0x890Fe11f3c24dB8732D6C2e772E2297c7E65F139",
      "gasPrice": {
        "_hex": "0xd3d37f23a"
      },
      "gasLimit": {
        "_hex": "0x15f90"
      },
      "to": "0x45E19D9F052b9c35AC8385094C9fff6f1C544794",
      "value": {
        "_hex": "0x2386f26fc10000"
      },
      "nonce": 0,
      "data": "0x",
      "r": "0x0eb7545927e16317ff3f6abf6823a265a0d2d4d89057c7b15725ad0de718256a",
      "s": "0x6d5ec6f059528f05930f91027c98d0f9e760a2eb65778b07697b912e7673268a",
      "v": 28,
      "creates": null,
      "raw": "0xf86c80850d3d37f23a83015f909445e19d9f052b9c35ac8385094c9fff6f1c544794872386f26fc10000801ca00eb7545927e16317ff3f6abf6823a265a0d2d4d89057c7b15725ad0de718256aa06d5ec6f059528f05930f91027c98d0f9e760a2eb65778b07697b912e7673268a",
      "networkId": 0,
      "chainId": 0
    },
    {
      "hash": "0xa686ddbffe9aacdb05df6910a788289ffe85fa7de8ac2d7aa312d7a6473a96d7",
      "blockHash": "0x515cdb54c6811d3bf0e4aa683db2aac04e37e768a163365382dd238e36b810f3",
      "blockNumber": 115805,
      "transactionIndex": 1,
      "confirmations": null,
      "from": "0x64916978a6c23c21Ce9526E4eE9a2A6077dD0e01",
      "gasPrice": {
        "_hex": "0xcbe6d1caf"
      },
      "gasLimit": {
        "_hex": "0x5208"
      },
      "to": "0xFBb1b73C4f0BDa4f67dcA266ce6Ef42f520fBB98",
      "value": {
        "_hex": "0x541f297b00d0c88"
      },
      "nonce": 0,
      "data": "0x",
      "r": "0x6197d7a133fffe99e5e9580afde21f3ee601b367dee5d7e3678a11085f2a09f7",
      "s": "0x31c2329e39158d5d3f77fd3184eb3a81917d8f842f98a3c93ad6913157548d9b",
      "v": 27,
      "creates": null,
      "raw": "0xf86c80850cbe6d1caf82520894fbb1b73c4f0bda4f67dca266ce6ef42f520fbb98880541f297b00d0c88801ba06197d7a133fffe99e5e9580afde21f3ee601b367dee5d7e3678a11085f2a09f7a031c2329e39158d5d3f77fd3184eb3a81917d8f842f98a3c93ad6913157548d9b",
      "networkId": 0,
      "chainId": 0
    }
  ]
}