{
  "hash": "0x62cb21415698298934a6455c65e62fd6e6d22eb3bb1e0cd3665c2424bf247a34",
  "parentHash": "0x885e19edaf773ad6b57f67521d8233cc5b1ab08edaaf675756a597ef25ece930",
  "number": 108397,
  "timestamp": 1439939644,
  "nonce": "0x7e4fbd7fcb382ac2",
  "difficulty": 4325662813099,
  "gasLimit": {
    "_hex": "0x2fefd8"
  },
  "gasUsed": {
    "_hex": "0xa410"
  },
  "miner": "0xe6A7a1d47ff21B6321162AEA7C6CB457D5476Bca",
  "extraData": "0x476574682f76312e302e312d38326566323666362f6c696e75782f676f312e34",
  "transactions": [
    {
      "hash": "0x47973a51b09034f36b88002876bb2924f177ed760d4e5f1c546f3da4cc76b83d",
      "blockHash": "0x62cb21415698298934a6455c65e62fd6e6d22eb3bb1e0cd3665c2424bf247a34",
      "blockNumber": 108397,
      "transactionIndex": 0,
      "confirmations": null,
      "from": "0xE6ea7feBb65f6Fb46dc42DEA2f873C67AADB1f72",
      "gasPrice": {
        "_hex": "0xd8ccf05df"
      },
      "gasLimit": {
        "_hex": "0x5208"
      },
      "to": "0x32Be343B94f860124dC4fEe278FDCBD38C102D88",
      "value": {
        "_hex": "0xeec5ede52d2c00"
      },
      "nonce": 0,
      "data": "0x",
      "r": "0xb90bae40c92ff60474b23d1445a6025a09430392315d5917e6ce7f47ea868f17",
      "s": "0x7fc29a6c3f342036f50c42b9ef689039521147e0775f3081f31d7351afe6fffc",
      "v": 28,
      "creates": null,
      "raw": "0xf86b80850d8ccf05df8252089432be343b94f860124dc4fee278fdcbd38c102d8887eec5ede52d2c00801ca0b90bae40c92ff60474b23d1445a6025a09430392315d5917e6ce7f47ea868f17a07fc29a6c3f342036f50c42b9ef689039521147e0775f3081f31d7351afe6fffc",
      "networkId": 0,
      "chainId": 0
    },
    {
      "hash": "0xd55e634bffc9fe3a464528d12a59bb8a1d239e9c7644ac4daba584e25f4188b4",
      "blockHash": "0x62cb21415698298934a6455c65e62fd6e6d22eb3bb1e0cd3665c2424bf247a34",
      "blockNumber": 108397,
      "transactionIndex": 1,
      "confirmations": null,
      "from": "0x295f7067f6e4182a32a4eFF344Af3daADFdE10E5",
      "gasPrice": {
        "_hex": "0xd8ccf05df"
      },
      "gasLimit": {
        "_hex": "0x5208"
      },
      "to": "0x32Be343B94f860124dC4fEe278FDCBD38C102D88",
      "value": {
        "_hex": "0x5d79fa960844000"
      },
      "nonce": 0,
      "data": "0x",
      "r": "0x723e3833e90d43873593add4ce63728b67840c0a23de7a93ba653e1936cbe27e",
      "s": "0x0bbcad6fe6ceed49cf8db0f509a7e35538b88fcb6db0f5eea8653deb95db9e57",
      "v": 27,
      "creates": null,
      "raw": "0xf86c80850d8ccf05df8252089432be343b94f860124dc4fee278fdcbd38c102d888805d79fa960844000801ba0723e3833e90d43873593add4ce63728b67840c0a23de7a93ba653e1936cbe27ea00bbcad6fe6ceed49cf8db0f509a7e35538b88fcb6db0f5eea8653deb95db9e57",
      "networkId": 0,
      "chainId": 0
    }
  ]
}