{
  "hash": "0xa8aee7c678447ee0ac3fbaf3480486095b2c01a08cb35b41fc42ac7f01a9442c",
  "parentHash": "0x0707dd4cfd99b71e4e2bdbde78385f8107895d1de86764a7d6ba8e0d9f37fb49",
  "number": 107130,
  "timestamp": 1439916622,
  "nonce": "0xe3ad67bb1a5724a7",
  "difficulty": 4465828280072,
  "gasLimit": {
    "_hex": "0x2fefd8"
  },
  "gasUsed": {
    "_hex": "0x5208"
  },
  "miner": "0xe6A7a1d47ff21B6321162AEA7C6CB457D5476Bca",
  "extraData": "0x476574682f76312e302e312d38326566323666362f6c696e75782f676f312e34",
  "transactions": [
    {
      "hash": "0xbb46c18fff9bf1ff0cc325770ed5351cf34243a0e98e158dff3a67bbcdf2500d",
      "blockHash": "0xa8aee7c678447ee0ac3fbaf3480486095b2c01a08cb35b41fc42ac7f01a9442c",
      "blockNumber": 107130,
      "transactionIndex": 0,
      "confirmations": null,
      "from": "0x32Be343B94f860124dC4fEe278FDCBD38C102D88",
      "gasPrice": {
        "_hex": "0xded88b316"
      },
      "gasLimit": {
        "_hex": "0x5208"
      },
      "to": "0x19b4B1f62F1B0E99Fed15630A94C7293F9276a3A",
      "value": {
        "_hex": "0x1b9de674df070000"
      },
      "nonce": 1202,
      "data": "0x",
      "r": "0xaac70825c2aab0956724847c06e5f517265e051fad314fb71b7d750d9c943423",
      "s": "0x1a1131172eb4ae8aa304938a3992d8da2d335844cb72562056fb8670248e7308",
      "v": 27,
      "creates": null,
      "raw": "0xf86e8204b2850ded88b3168252089419b4b1f62f1b0e99fed15630a94c7293f9276a3a881b9de674df070000801ba0aac70825c2aab0956724847c06e5f517265e051fad314fb71b7d750d9c943423a01a1131172eb4ae8aa304938a3992d8da2d335844cb72562056fb8670248e7308",
      "networkId": 0,
      "chainId": 0
    }
  ]
}