{
  "hash": "0x309607ef13e86d444f0a5816587eea8595f5d32119a94c4436f5fee7857bcec7",
  "parentHash": "0xd182911d0dce2c100af1226980cf23d775958724266888a3238bb91fbbb635a3",
  "number": 80570,
  "timestamp": 1439487447,
  "nonce": "0xf3d45258074cb027",
  "difficulty": 2419134701833,
  "gasLimit": {
    "_hex": "0x2fefd8"
  },
  "gasUsed": {
    "_hex": "0x4f228"
  },
  "miner": "0x3ce70f7EBbb911d5FF14BB9244ac7C9be2c669B3",
  "extraData": "0xda8098302e392e34302b2b302d524c696e75782f672b2b2f696e74",
  "transactions": [
    {
      "hash": "0x5fefad9a911c50bf916b58964e703c835d79efbd6ff9c2ce74720c0f3fc693de",
      "blockHash": "0x309607ef13e86d444f0a5816587eea8595f5d32119a94c4436f5fee7857bcec7",
      "blockNumber": 80570,
      "transactionIndex": 0,
      "confirmations": null,
      "from": "0x24f7450dDBf18B020FeB1A2032D9D54b633EdF37",
      "gasPrice": {
        "_hex": "0x110c8f7d8de"
      },
      "gasLimit": {
        "_hex": "0xc350"
      },
      "to": "0x2910543Af39abA0Cd09dBb2D50200b3E800A63D2",
      "value": {
        "_hex": "0x29a2241af62c00000"
      },
      "nonce": 1,
      "data": "0x454e52305434433138",
      "r": "0xc90652db6abc7352c26ec1ca256fbcded5bd87db79fc7545b4ba858aa710c105",
      "s": "0x214631638479a27a50cbac0566baa421ea66fdf464934bef2125be8469fc9f6c",
      "v": 28,
      "creates": null,
      "raw": "0xf87701860110c8f7d8de82c350942910543af39aba0cd09dbb2d50200b3e800a63d289029a2241af62c0000089454e523054344331381ca0c90652db6abc7352c26ec1ca256fbcded5bd87db79fc7545b4ba858aa710c105a0214631638479a27a50cbac0566baa421ea66fdf464934bef2125be8469fc9f6c",
      "networkId": 0,
      "chainId": 0
    },
    {
      "hash": "0x12756bb6d021721a51cbdb877656bcfc9b28a2f38a69d3b2c314085cf6f857dd",
      "blockHash": "0x309607ef13e86d444f0a5816587eea8595f5d32119a94c4436f5fee7857bcec7",
      "blockNumber": 80570,
      "transactionIndex": 1,
      "confirmations": null,
      "from": "0x16893e10b99A59afd2C60331E0B49241d4d4d7cC",
      "gasPrice": {
        "_hex": "0xcd567f0ec"
      },
      "gasLimit": {
        "_hex": "0xf4240"
      },
      "to": null,
      "value": {
        "_hex": "0x0"
      },
      "nonce": 4,
      "data": "0x6060604052610f7c806100136000396000f30060606040526000357c01000000000000000000000000000000000000000000000000000000009004806305215b2f1461004f5780635f8dead31461008c578063dc3f65d3146100cf5761004d565b005b610060600480359060200150610124565b604051808273ffffffffffffffffffffffffffffffffffffffff16815260200191505060405180910390f35b6100a36004803590602001803590602001506101ef565b604051808273ffffffffffffffffffffffffffffffffffffffff16815260200191505060405180910390f35b6100da600450610240565b60405180806020018281038252838181518152602001915080519060200190602002808383829060006004602084601f0104600302600f01f1509050019250505060405180910390f35b6000600082604051610c7f806102fd83390180828152602001915050604051809103906000f0905080600060005060003373ffffffffffffffffffffffffffffffffffffffff168152602001908152602001600020600050600060005060003373ffffffffffffffffffffffffffffffffffffffff16815260200190815260200160002060005054815481101561000257906000526020600020900160006101000a81548173ffffffffffffffffffffffffffffffffffffffff021916908302179055505b50919050565b60006000506020528160005260406000206000508181548110156100025790600052602060002090016000915091509054906101000a900473ffffffffffffffffffffffffffffffffffffffff1681565b6020604051908101604052806000815260200150600060005060003373ffffffffffffffffffffffffffffffffffffffff1681526020019081526020016000206000508054806020026020016040519081016040528092919081815260200182805480156102ed57602002820191906000526020600020905b8160009054906101000a900473ffffffffffffffffffffffffffffffffffffffff16815260200190600101908083116102b9575b505050505090506102f9565b9056006060604052604051602080610c7f8339016040526060805190602001505b80600060005060003373ffffffffffffffffffffffffffffffffffffffff168152602001908152602001600020600050819055505b50610c1d806100626000396000f300606060405236156100b6576000357c0100000000000000000000000000000000000000000000000000000000900480631fa03a2b146100b857806321af4feb146100e557806327e235e314610112578063673448dd1461013957806367eae67214610160578063930b7a2314610193578063bbd39ac0146101ac578063c86a90fe146101d3578063d26c8a8a14610200578063daea85c514610221578063f4b1604514610234578063fbf1f78a14610261576100b6565b005b6100cf60048035906020018035906020015061072e565b6040518082815260200191505060405180910390f35b6100fc6004803590602001803590602001506105fd565b6040518082815260200191505060405180910390f35b610123600480359060200150610810565b6040518082815260200191505060405180910390f35b61014a600480359060200150610410565b6040518082815260200191505060405180910390f35b61017d60048035906020018035906020018035906020015061099b565b6040518082815260200191505060405180910390f35b6101aa600480359060200180359060200150610628565b005b6101bd6004803590602001506106f0565b6040518082815260200191505060405180910390f35b6101ea600480359060200180359060200150610867565b6040518082815260200191505060405180910390f35b61020b60045061082b565b6040518082815260200191505060405180910390f35b6102326004803590602001506104f1565b005b61024b6004803590602001803590602001506105c8565b6040518082815260200191505060405180910390f35b610272600480359060200150610274565b005b6000600160005060003373ffffffffffffffffffffffffffffffffffffffff16815260200190815260200160002060005060008373ffffffffffffffffffffffffffffffffffffffff16815260200190815260200160002060006101000a81548160ff021916908302179055506000600260005060003373ffffffffffffffffffffffffffffffffffffffff16815260200190815260200160002060005060008373ffffffffffffffffffffffffffffffffffffffff168152602001908152602001600020600050819055508073ffffffffffffffffffffffffffffffffffffffff163373ffffffffffffffffffffffffffffffffffffffff167f0e40f4b0b06b7d270eb92aed48caf256e6bbe4f83c5492e7433958cf5566192060006040518082815260200191505060405180910390a38073ffffffffffffffffffffffffffffffffffffffff163373ffffffffffffffffffffffffffffffffffffffff167fcc92c05edef6bc5dcdfab43862409620fd81888eec1be99935f19375c4ef704e60006040518082815260200191505060405180910390a35b50565b60006001600160005060003373ffffffffffffffffffffffffffffffffffffffff16815260200190815260200160002060005060008473ffffffffffffffffffffffffffffffffffffffff16815260200190815260200160002060009054906101000a900460ff1614806104dd57506000600260005060003373ffffffffffffffffffffffffffffffffffffffff16815260200190815260200160002060005060008473ffffffffffffffffffffffffffffffffffffffff16815260200190815260200160002060005054115b156104eb57600190506104ec565b5b919050565b6001600160005060003373ffffffffffffffffffffffffffffffffffffffff16815260200190815260200160002060005060008373ffffffffffffffffffffffffffffffffffffffff16815260200190815260200160002060006101000a81548160ff021916908302179055508073ffffffffffffffffffffffffffffffffffffffff163373ffffffffffffffffffffffffffffffffffffffff167f0e40f4b0b06b7d270eb92aed48caf256e6bbe4f83c5492e7433958cf5566192060016040518082815260200191505060405180910390a35b50565b60016000506020528160005260406000206000506020528060005260406000206000915091509054906101000a900460ff1681565b6002600050602052816000526040600020600050602052806000526040600020600091509150505481565b80600260005060003373ffffffffffffffffffffffffffffffffffffffff16815260200190815260200160002060005060008473ffffffffffffffffffffffffffffffffffffffff168152602001908152602001600020600050819055508173ffffffffffffffffffffffffffffffffffffffff163373ffffffffffffffffffffffffffffffffffffffff167fcc92c05edef6bc5dcdfab43862409620fd81888eec1be99935f19375c4ef704e836040518082815260200191505060405180910390a35b5050565b6000600060005060008373ffffffffffffffffffffffffffffffffffffffff168152602001908152602001600020600050549050610729565b919050565b60006001600160005060008573ffffffffffffffffffffffffffffffffffffffff16815260200190815260200160002060005060008473ffffffffffffffffffffffffffffffffffffffff16815260200190815260200160002060009054906101000a900460ff1614806107fb57506000600260005060008573ffffffffffffffffffffffffffffffffffffffff16815260200190815260200160002060005060008473ffffffffffffffffffffffffffffffffffffffff16815260200190815260200160002060005054115b15610809576001905061080a565b5b92915050565b60006000506020528060005260406000206000915090505481565b6000600060005060003373ffffffffffffffffffffffffffffffffffffffff168152602001908152602001600020600050549050610864565b90565b600082600060005060003373ffffffffffffffffffffffffffffffffffffffff1681526020019081526020016000206000505410151561098b5782600060005060003373ffffffffffffffffffffffffffffffffffffffff16815260200190815260200160002060008282825054039250508190555082600060005060008473ffffffffffffffffffffffffffffffffffffffff1681526020019081526020016000206000828282505401925050819055508173ffffffffffffffffffffffffffffffffffffffff163373ffffffffffffffffffffffffffffffffffffffff167f16cdf1707799c6655baac6e210f52b94b7cec08adcaf9ede7dfe8649da926146856040518082815260200191505060405180910390a36001905061099556610994565b60009050610995565b5b92915050565b6000600083600060005060008773ffffffffffffffffffffffffffffffffffffffff16815260200190815260200160002060005054101515610c145760009050600160005060008673ffffffffffffffffffffffffffffffffffffffff16815260200190815260200160002060005060003373ffffffffffffffffffffffffffffffffffffffff16815260200190815260200160002060009054906101000a900460ff1615610a4f57600190508050610b17565b600260005060008673ffffffffffffffffffffffffffffffffffffffff16815260200190815260200160002060005060003373ffffffffffffffffffffffffffffffffffffffff16815260200190815260200160002060005054841015610b16576001905080506000600260005060008773ffffffffffffffffffffffffffffffffffffffff16815260200190815260200160002060005060003373ffffffffffffffffffffffffffffffffffffffff168152602001908152602001600020600050819055505b5b6001811415610c0a5783600060005060008773ffffffffffffffffffffffffffffffffffffffff16815260200190815260200160002060008282825054039250508190555083600060005060008573ffffffffffffffffffffffffffffffffffffffff1681526020019081526020016000206000828282505401925050819055508273ffffffffffffffffffffffffffffffffffffffff168573ffffffffffffffffffffffffffffffffffffffff167f16cdf1707799c6655baac6e210f52b94b7cec08adcaf9ede7dfe8649da926146866040518082815260200191505060405180910390a360019150610c1556610c13565b60009150610c15565b5b5b50939250505056",
      "r": "0x088cf5209a227e1dc90d7a1c34745be3eb78bbdff16328ecf6ad631639bbb19d",
      "s": "0x3d0e7975a027822ab2c0206826dcbe5365e06521ba51438ab381c6b9a39ea116",
      "v": 28,
      "creates": "0x5659b5e6FDc892130a9eBDfCF0B0AF99F3631F01",
      "raw": "0xf90fe204850cd567f0ec830f42408080b90f8f6060604052610f7c806100136000396000f30060606040526000357c01000000000000000000000000000000000000000000000000000000009004806305215b2f1461004f5780635f8dead31461008c578063dc3f65d3146100cf5761004d565b005b610060600480359060200150610124565b604051808273ffffffffffffffffffffffffffffffffffffffff16815260200191505060405180910390f35b6100a36004803590602001803590602001506101ef565b604051808273ffffffffffffffffffffffffffffffffffffffff16815260200191505060405180910390f35b6100da600450610240565b60405180806020018281038252838181518152602001915080519060200190602002808383829060006004602084601f0104600302600f01f1509050019250505060405180910390f35b6000600082604051610c7f806102fd83390180828152602001915050604051809103906000f0905080600060005060003373ffffffffffffffffffffffffffffffffffffffff168152602001908152602001600020600050600060005060003373ffffffffffffffffffffffffffffffffffffffff16815260200190815260200160002060005054815481101561000257906000526020600020900160006101000a81548173ffffffffffffffffffffffffffffffffffffffff021916908302179055505b50919050565b60006000506020528160005260406000206000508181548110156100025790600052602060002090016000915091509054906101000a900473ffffffffffffffffffffffffffffffffffffffff1681565b6020604051908101604052806000815260200150600060005060003373ffffffffffffffffffffffffffffffffffffffff1681526020019081526020016000206000508054806020026020016040519081016040528092919081815260200182805480156102ed57602002820191906000526020600020905b8160009054906101000a900473ffffffffffffffffffffffffffffffffffffffff16815260200190600101908083116102b9575b505050505090506102f9565b9056006060604052604051602080610c7f8339016040526060805190602001505b80600060005060003373ffffffffffffffffffffffffffffffffffffffff168152602001908152602001600020600050819055505b50610c1d806100626000396000f300606060405236156100b6576000357c0100000000000000000000000000000000000000000000000000000000900480631fa03a2b146100b857806321af4feb146100e557806327e235e314610112578063673448dd1461013957806367eae67214610160578063930b7a2314610193578063bbd39ac0146101ac578063c86a90fe146101d3578063d26c8a8a14610200578063daea85c514610221578063f4b1604514610234578063fbf1f78a14610261576100b6565b005b6100cf60048035906020018035906020015061072e565b6040518082815260200191505060405180910390f35b6100fc6004803590602001803590602001506105fd565b6040518082815260200191505060405180910390f35b610123600480359060200150610810565b6040518082815260200191505060405180910390f35b61014a600480359060200150610410565b6040518082815260200191505060405180910390f35b61017d60048035906020018035906020018035906020015061099b565b6040518082815260200191505060405180910390f35b6101aa600480359060200180359060200150610628565b005b6101bd6004803590602001506106f0565b6040518082815260200191505060405180910390f35b6101ea600480359060200180359060200150610867565b6040518082815260200191505060405180910390f35b61020b60045061082b565b6040518082815260200191505060405180910390f35b6102326004803590602001506104f1565b005b61024b6004803590602001803590602001506105c8565b6040518082815260200191505060405180910390f35b610272600480359060200150610274565b005b6000600160005060003373ffffffffffffffffffffffffffffffffffffffff16815260200190815260200160002060005060008373ffffffffffffffffffffffffffffffffffffffff16815260200190815260200160002060006101000a81548160ff021916908302179055506000600260005060003373ffffffffffffffffffffffffffffffffffffffff16815260200190815260200160002060005060008373ffffffffffffffffffffffffffffffffffffffff168152602001908152602001600020600050819055508073ffffffffffffffffffffffffffffffffffffffff163373ffffffffffffffffffffffffffffffffffffffff167f0e40f4b0b06b7d270eb92aed48caf256e6bbe4f83c5492e7433958cf5566192060006040518082815260200191505060405180910390a38073ffffffffffffffffffffffffffffffffffffffff163373ffffffffffffffffffffffffffffffffffffffff167fcc92c05edef6bc5dcdfab43862409620fd81888eec1be99935f19375c4ef704e60006040518082815260200191505060405180910390a35b50565b60006001600160005060003373ffffffffffffffffffffffffffffffffffffffff16815260200190815260200160002060005060008473ffffffffffffffffffffffffffffffffffffffff16815260200190815260200160002060009054906101000a900460ff1614806104dd57506000600260005060003373ffffffffffffffffffffffffffffffffffffffff16815260200190815260200160002060005060008473ffffffffffffffffffffffffffffffffffffffff16815260200190815260200160002060005054115b156104eb57600190506104ec565b5b919050565b6001600160005060003373ffffffffffffffffffffffffffffffffffffffff16815260200190815260200160002060005060008373ffffffffffffffffffffffffffffffffffffffff16815260200190815260200160002060006101000a81548160ff021916908302179055508073ffffffffffffffffffffffffffffffffffffffff163373ffffffffffffffffffffffffffffffffffffffff167f0e40f4b0b06b7d270eb92aed48caf256e6bbe4f83c5492e7433958cf5566192060016040518082815260200191505060405180910390a35b50565b60016000506020528160005260406000206000506020528060005260406000206000915091509054906101000a900460ff1681565b6002600050602052816000526040600020600050602052806000526040600020600091509150505481565b80600260005060003373ffffffffffffffffffffffffffffffffffffffff16815260200190815260200160002060005060008473ffffffffffffffffffffffffffffffffffffffff168152602001908152602001600020600050819055508173ffffffffffffffffffffffffffffffffffffffff163373ffffffffffffffffffffffffffffffffffffffff167fcc92c05edef6bc5dcdfab43862409620fd81888eec1be99935f19375c4ef704e836040518082815260200191505060405180910390a35b5050565b6000600060005060008373ffffffffffffffffffffffffffffffffffffffff168152602001908152602001600020600050549050610729565b919050565b60006001600160005060008573ffffffffffffffffffffffffffffffffffffffff16815260200190815260200160002060005060008473ffffffffffffffffffffffffffffffffffffffff16815260200190815260200160002060009054906101000a900460ff1614806107fb57506000600260005060008573ffffffffffffffffffffffffffffffffffffffff16815260200190815260200160002060005060008473ffffffffffffffffffffffffffffffffffffffff16815260200190815260200160002060005054115b15610809576001905061080a565b5b92915050565b60006000506020528060005260406000206000915090505481565b6000600060005060003373ffffffffffffffffffffffffffffffffffffffff168152602001908152602001600020600050549050610864565b90565b600082600060005060003373ffffffffffffffffffffffffffffffffffffffff1681526020019081526020016000206000505410151561098b5782600060005060003373ffffffffffffffffffffffffffffffffffffffff16815260200190815260200160002060008282825054039250508190555082600060005060008473ffffffffffffffffffffffffffffffffffffffff1681526020019081526020016000206000828282505401925050819055508173ffffffffffffffffffffffffffffffffffffffff163373ffffffffffffffffffffffffffffffffffffffff167f16cdf1707799c6655baac6e210f52b94b7cec08adcaf9ede7dfe8649da926146856040518082815260200191505060405180910390a36001905061099556610994565b60009050610995565b5b92915050565b6000600083600060005060008773ffffffffffffffffffffffffffffffffffffffff16815260200190815260200160002060005054101515610c145760009050600160005060008673ffffffffffffffffffffffffffffffffffffffff16815260200190815260200160002060005060003373ffffffffffffffffffffffffffffffffffffffff16815260200190815260200160002060009054906101000a900460ff1615610a4f57600190508050610b17565b600260005060008673ffffffffffffffffffffffffffffffffffffffff16815260200190815260200160002060005060003373ffffffffffffffffffffffffffffffffffffffff16815260200190815260200160002060005054841015610b16576001905080506000600260005060008773ffffffffffffffffffffffffffffffffffffffff16815260200190815260200160002060005060003373ffffffffffffffffffffffffffffffffffffffff168152602001908152602001600020600050819055505b5b6001811415610c0a5783600060005060008773ffffffffffffffffffffffffffffffffffffffff16815260200190815260200160002060008282825054039250508190555083600060005060008573ffffffffffffffffffffffffffffffffffffffff1681526020019081526020016000206000828282505401925050819055508273ffffffffffffffffffffffffffffffffffffffff168573ffffffffffffffffffffffffffffffffffffffff167f16cdf1707799c6655baac6e210f52b94b7cec08adcaf9ede7dfe8649da926146866040518082815260200191505060405180910390a360019150610c1556610c13565b60009150610c15565b5b5b509392505050561ca0088cf5209a227e1dc90d7a1c34745be3eb78bbdff16328ecf6ad631639bbb19da03d0e7975a027822ab2c0206826dcbe5365e06521ba51438ab381c6b9a39ea116",
      "networkId": 0,
      "chainId": 0
    },
    {
      "hash": "0xa8f01cc5777ddf9118333f1f7d15802f70767402006563d1f82e129fe8c12e41",
      "blockHash": "0x309607ef13e86d444f0a5816587eea8595f5d32119a94c4436f5fee7857bcec7",
      "blockNumber": 80570,
      "transactionIndex": 2,
      "confirmations": null,
      "from": "0x87C5B5874A18B4306DF8a752a6C8cc3E82daFc19",
      "gasPrice": {
        "_hex": "0x1058682a370"
      },
      "gasLimit": {
        "_hex": "0x493e0"
      },
      "to": "0xC4c51de1AbF5D60DBd329eC0F999Fd8f021ae9fC",
      "value": {
        "_hex": "0x0"
      },
      "nonce": 249,
      "data": "0xbd66528a6b6b6b0000000000000000000000000000000000000000000000000000000000",
      "r": "0x33b149f9674f62daa51298782e16b99e1ee7bae042757dd2e67ea98678b182d0",
      "s": "0x1df06b96857e45d8193dcff245e0d1d81735ce1225c720ee64887c0909166cf7",
      "v": 27,
      "creates": null,
      "raw": "0xf88b81f98601058682a370830493e094c4c51de1abf5d60dbd329ec0f999fd8f021ae9fc80a4bd66528a6b6b6b00000000000000000000000000000000000000000000000000000000001ba033b149f9674f62daa51298782e16b99e1ee7bae042757dd2e67ea98678b182d0a01df06b96857e45d8193dcff245e0d1d81735ce1225c720ee64887c0909166cf7",
      "networkId": 0,
      "chainId": 0
    }
  ]
}