{
  "hash": "0xdf3f82b57645f9e783c68006c9dcc56e4b92a62f236e9892db1554ebe9f014dd",
  "parentHash": "0x8d3479e780ed55dc6dbfa6f925c5a2555373ca69aec96e3d85d53ca625fd2375",
  "number": 94122,
  "timestamp": 1439703030,
  "nonce": "0x2b90f2d1ae50b8a8",
  "difficulty": 3476591055187,
  "gasLimit": {
    "_hex": "0x2fefd8"
  },
  "gasUsed": {
    "_hex": "0x5d9f"
  },
  "miner": "0xe6A7a1d47ff21B6321162AEA7C6CB457D5476Bca",
  "extraData": "0x476574682f76312e302e312d38326566323666362f6c696e75782f676f312e34",
  "transactions": [
    {
      "hash": "0xbbe4e7e5f1fecdf0444a7c7e43abe81d0b5e13e2b9da81cc6d673bf2db6c09ff",
      "blockHash": "0xdf3f82b57645f9e783c68006c9dcc56e4b92a62f236e9892db1554ebe9f014dd",
      "blockNumber": 94122,
      "transactionIndex": 0,
      "confirmations": null,
      "from": "0x0ba6E46af25a13F57169255A34a4dac7Ce12bE04",
      "gasPrice": {
        "_hex": "0xccc702c67"
      },
      "gasLimit": {
        "_hex": "0x15f90"
      },
      "to": "0xCAc7000C7dBaa2E33Af15325AF5D435E011C7BdD",
      "value": {
        "_hex": "0x1b1ac14ff07f8f0000"
      },
      "nonce": 0,
      "data": "0xb214faa530364d3956334c4d570000000000000000000000000000000000000000000000",
      "r": "0x2419af4a90945b1dad51ff067a03e2662728b53e8f742afbab4fd5733584b1b7",
      "s": "0x6966b65cec7a0c5ee81b5c747f719bbd0e21cf64a4bd36b6d9fa66bb3ffac232",
      "v": 27,
      "creates": null,
      "raw": "0xf89280850ccc702c6783015f9094cac7000c7dbaa2e33af15325af5d435e011c7bdd891b1ac14ff07f8f0000a4b214faa530364d3956334c4d5700000000000000000000000000000000000000000000001ba02419af4a90945b1dad51ff067a03e2662728b53e8f742afbab4fd5733584b1b7a06966b65cec7a0c5ee81b5c747f719bbd0e21cf64a4bd36b6d9fa66bb3ffac232",
      "networkId": 0,
      "chainId": 0
    }
  ]
}