{
  "hash": "0xcc381c2770d452850efaa2dcb6030caa3393250cea648a4a13e9fc0fce152284",
  "parentHash": "0x13716eca624f5937835cd74ad2deb61c357e36520d45cdee29fc3d537168e4e3",
  "number": 89478,
  "timestamp": 1439624149,
  "nonce": "0xa67418f390aa684e",
  "difficulty": 3319223387503,
  "gasLimit": {
    "_hex": "0x2fefd8"
  },
  "gasUsed": {
    "_hex": "0xa410"
  },
  "miner": "0xe6A7a1d47ff21B6321162AEA7C6CB457D5476Bca",
  "extraData": "0x476574682f76312e302e312d38326566323666362f6c696e75782f676f312e34",
  "transactions": [
    {
      "hash": "0x4e7a654d2ce3ee4f82ed4bfb89c4956a0a5a5e6e82e9c83c276e230f0a29969d",
      "blockHash": "0xcc381c2770d452850efaa2dcb6030caa3393250cea648a4a13e9fc0fce152284",
      "blockNumber": 89478,
      "transactionIndex": 0,
      "confirmations": null,
      "from": "0x2910543Af39abA0Cd09dBb2D50200b3E800A63D2",
      "gasPrice": {
        "_hex": "0xcd766d702"
      },
      "gasLimit": {
        "_hex": "0x5208"
      },
      "to": "0x06C503404928FC8F0e70a41C58751a2A20dF3D3e",
      "value": {
        "_hex": "0x6a94d74f430000"
      },
      "nonce": 754,
      "data": "0x",
      "r": "0xd9f7097b671def5a033e94f7f0ed0c5a0c6df3b2fbc25195d20e947ff739c296",
      "s": "0x25b70f0ee0c14f73703d946f416766607d2c0ac001b23e5fd3062bf12977d1f9",
      "v": 28,
      "creates": null,
      "raw": "0xf86d8202f2850cd766d7028252089406c503404928fc8f0e70a41c58751a2a20df3d3e876a94d74f430000801ca0d9f7097b671def5a033e94f7f0ed0c5a0c6df3b2fbc25195d20e947ff739c296a025b70f0ee0c14f73703d946f416766607d2c0ac001b23e5fd3062bf12977d1f9",
      "networkId": 0,
      "chainId": 0
    },
    {
      "hash": "0xfb9f843447ef7360de3bbe09e2aba60d5fe5ab7366f25da2a25847b46545d7b2",
      "blockHash": "0xcc381c2770d452850efaa2dcb6030caa3393250cea648a4a13e9fc0fce152284",
      "blockNumber": 89478,
      "transactionIndex": 1,
      "confirmations": null,
      "from": "0x2910543Af39abA0Cd09dBb2D50200b3E800A63D2",
      "gasPrice": {
        "_hex": "0xcd766d702"
      },
      "gasLimit": {
        "_hex": "0x5208"
      },
      "to": "0xCe0df7AD79C6DBaB57E0b7ddc7612Bb087AaffF4",
      "value": {
        "_hex": "0x1b1ad31369b76f8000"
      },
      "nonce": 755,
      "data": "0x",
      "r": "0xaa929cab019e1816502e7945f49ba99975c41ed9a9315a2b398ed2ea3ebd28c3",
      "s": "0x437cede8d194af87f43cecaf2861eef5ca3a76aa5408786ebae0f78fdee8019c",
      "v": 27,
      "creates": null,
      "raw": "0xf86f8202f3850cd766d70282520894ce0df7ad79c6dbab57e0b7ddc7612bb087aafff4891b1ad31369b76f8000801ba0aa929cab019e1816502e7945f49ba99975c41ed9a9315a2b398ed2ea3ebd28c3a0437cede8d194af87f43cecaf2861eef5ca3a76aa5408786ebae0f78fdee8019c",
      "networkId": 0,
      "chainId": 0
    }
  ]
}