{
  "hash": "0x1e5351f73d7617edd6c2d4a72c5eccd9be224479aba4f87112dc810a6d03e8f8",
  "parentHash": "0x61cbd519a95feec2fbf0af722405e43124a50252db214c04dc772b4fb6a97fc8",
  "number": 71354,
  "timestamp": 1439334596,
  "nonce": "0x542900d47e9a519a",
  "difficulty": 2177251337855,
  "gasLimit": {
    "_hex": "0x2fefd8"
  },
  "gasUsed": {
    "_hex": "0x100c9"
  },
  "miner": "0x9dD134D14D1e65F84B706d6F205cd5B1CD03a46b",
  "extraData": "0x",
  "transactions": [
    {
      "hash": "0x75ff6f4002701f438ff7fc0657e8def075ffe48b8eb12309f1f864df847f7ffe",
      "blockHash": "0x1e5351f73d7617edd6c2d4a72c5eccd9be224479aba4f87112dc810a6d03e8f8",
      "blockNumber": 71354,
      "transactionIndex": 0,
      "confirmations": null,
      "from": "0x88f1045f19F2D3191816B1df18bb6E1435aD1B38",
      "gasPrice": {
        "_hex": "0xe27383bcc"
      },
      "gasLimit": {
        "_hex": "0x15f90"
      },
      "to": "0xE93eBB015A1bD8572073c44C25A01A8B6416Fe1A",
      "value": {
        "_hex": "0x2386f26fc10000"
      },
      "nonce": 0,
      "data": "0x",
      "r": "0xbb9f524c3201dbbfd4a0ca458448942cd76e0600f13c7adb6374575539708f9c",
      "s": "0x607c4d5320ff81c83d9f91c1192d28fea7a6d8d6cf0f7e2d5e8f13442e8a2bf9",
      "v": 28,
      "creates": null,
      "raw": "0xf86c80850e27383bcc83015f9094e93ebb015a1bd8572073c44c25a01a8b6416fe1a872386f26fc10000801ca0bb9f524c3201dbbfd4a0ca458448942cd76e0600f13c7adb6374575539708f9ca0607c4d5320ff81c83d9f91c1192d28fea7a6d8d6cf0f7e2d5e8f13442e8a2bf9",
      "networkId": 0,
      "chainId": 0
    },
    {
      "hash": "0x95d38b066ce8020e18b9a44c315c25eab8a47d488af2ab5e2a63aac937e37309",
      "blockHash": "0x1e5351f73d7617edd6c2d4a72c5eccd9be224479aba4f87112dc810a6d03e8f8",
      "blockNumber": 71354,
      "transactionIndex": 1,
      "confirmations": null,
      "from": "0x17580B766f7453525ca4C6A88b01b50570EA088C",
      "gasPrice": {
        "_hex": "0xcd9ef9a19"
      },
      "gasLimit": {
        "_hex": "0x61a80"
      },
      "to": "0x5Fe5B7546D1628f7348B023A0393de1FC825A4fD",
      "value": {
        "_hex": "0x29a2241af62c0000"
      },
      "nonce": 159,
      "data": "0xb595b8b50000000000000000000000000000000000000000000000000000000000000001",
      "r": "0x7ce66e0236357fdc6ae75e87af63ca1cc246f098204d8855faef8b354b3ab5f7",
      "s": "0x66626baba75c1624e2e9fa6d500265086bacfb013604815ff4faa1601f9a2cb0",
      "v": 28,
      "creates": null,
      "raw": "0xf892819f850cd9ef9a1983061a80945fe5b7546d1628f7348b023a0393de1fc825a4fd8829a2241af62c0000a4b595b8b500000000000000000000000000000000000000000000000000000000000000011ca07ce66e0236357fdc6ae75e87af63ca1cc246f098204d8855faef8b354b3ab5f7a066626baba75c1624e2e9fa6d500265086bacfb013604815ff4faa1601f9a2cb0",
      "networkId": 0,
      "chainId": 0
    }
  ]
}