{
  "hash": "0x2ba98c578305a230a2c24f2d20e3f16e84ee9552c5fe7f3ea26d661c8d061f9a",
  "parentHash": "0x8ef98f81a80b979d42d5154dd848b4e34826a6a9f7c3cd571caa13d2de459917",
  "number": 74041,
  "timestamp": 1439379374,
  "nonce": "0x94049da7e46398a9",
  "difficulty": 2240169444085,
  "gasLimit": {
    "_hex": "0x2fefd8"
  },
  "gasUsed": {
    "_hex": "0xd789"
  },
  "miner": "0x5214803C763281b785cDC039b80605fd088D42Ca",
  "extraData": "0x",
  "transactions": [
    {
      "hash": "0x6de771bba02b305f8cae9129f8797509bb0dd21bef78bdd2959f87542d2ac056",
      "blockHash": "0x2ba98c578305a230a2c24f2d20e3f16e84ee9552c5fe7f3ea26d661c8d061f9a",
      "blockNumber": 74041,
      "transactionIndex": 0,
      "confirmations": null,
      "from": "0xa14Cf6cEC1c6aAe4b608458F6e14692863A937Aa",
      "gasPrice": {
        "_hex": "0xdb9e8c683"
      },
      "gasLimit": {
        "_hex": "0x61a80"
      },
      "to": "0x5Fe5B7546D1628f7348B023A0393de1FC825A4fD",
      "value": {
        "_hex": "0x0"
      },
      "nonce": 20,
      "data": "0x572668030000000000000000000000000000000000000000000000056bc75e2d63100000",
      "r": "0x5b507fd0feb87e22641fa3c98f3460020f314a89920ba8edc82e385c52d0204b",
      "s": "0x6c02d6ab80ed2c30972ea83b68482a48b1dc2d220bb2c6d346c8b058c8de5559",
      "v": 27,
      "creates": null,
      "raw": "0xf88914850db9e8c68383061a80945fe5b7546d1628f7348b023a0393de1fc825a4fd80a4572668030000000000000000000000000000000000000000000000056bc75e2d631000001ba05b507fd0feb87e22641fa3c98f3460020f314a89920ba8edc82e385c52d0204ba06c02d6ab80ed2c30972ea83b68482a48b1dc2d220bb2c6d346c8b058c8de5559",
      "networkId": 0,
      "chainId": 0
    },
    {
      "hash": "0x3ed1b5a5258037df9a831b444099e366fd3679daf4adef87d9631020fdd19793",
      "blockHash": "0x2ba98c578305a230a2c24f2d20e3f16e84ee9552c5fe7f3ea26d661c8d061f9a",
      "blockNumber": 74041,
      "transactionIndex": 1,
      "confirmations": null,
      "from": "0x32Be343B94f860124dC4fEe278FDCBD38C102D88",
      "gasPrice": {
        "_hex": "0xd5302b73b"
      },
      "gasLimit": {
        "_hex": "0x5208"
      },
      "to": "0x139961171236F8260f7D28B94b5a7352Bb114F80",
      "value": {
        "_hex": "0x1a031e21b2df70000"
      },
      "nonce": 313,
      "data": "0x",
      "r": "0xb253066231c795da53f02e4de7c1f0ab0797aa9a726bb3c750686e1854e33832",
      "s": "0x01307592e18eeda682cf648a7eaf580f13b3c65e42e9b7269e01b4c52ca6f7bc",
      "v": 27,
      "creates": null,
      "raw": "0xf86f820139850d5302b73b82520894139961171236f8260f7d28b94b5a7352bb114f808901a031e21b2df70000801ba0b253066231c795da53f02e4de7c1f0ab0797aa9a726bb3c750686e1854e33832a001307592e18eeda682cf648a7eaf580f13b3c65e42e9b7269e01b4c52ca6f7bc",
      "networkId": 0,
      "chainId": 0
    }
  ]
}