{
  "hash": "0xfa541604ef117792825df469fa8a31a9f1649c2fe0dd36e34ab0cc259feae88d",
  "parentHash": "0xef77f783dc98ca2f93c510069170cbad2f1b77b020cf1258b07a35b1d2e5388c",
  "number": 95736,
  "timestamp": 1439728830,
  "nonce": "0xa2f2d1d31f0f7130",
  "difficulty": 3617918620222,
  "gasLimit": {
    "_hex": "0x2fefd5"
  },
  "gasUsed": {
    "_hex": "0x5208"
  },
  "miner": "0x47ff6576639c2e94762eA5443978D7681C0E78DC",
  "extraData": "0x476574682f76312e302e312f6c696e75782f676f312e342e32",
  "transactions": [
    {
      "hash": "0xa542e8a6b55a4b56724e3362ca9f08fac30913f7b22ea50e5f41b59225f72b68",
      "blockHash": "0xfa541604ef117792825df469fa8a31a9f1649c2fe0dd36e34ab0cc259feae88d",
      "blockNumber": 95736,
      "transactionIndex": 0,
      "confirmations": null,
      "from": "0x6F2a83BC1c1846bf84ffC43B8776f1AA4a9F890F",
      "gasPrice": {
        "_hex": "0xd7e7166d0"
      },
      "gasLimit": {
        "_hex": "0x15f90"
      },
      "to": "0x01Ad0ACFf478127D9d702B1A13599D706cB759b1",
      "value": {
        "_hex": "0x8ac7230489e80000"
      },
      "nonce": 3,
      "data": "0x",
      "r": "0xa3036a17033418847d39f4e8365ee38261032b8b7e474fffff82a5a4972338b0",
      "s": "0x7fb9ec778683fcfef39414de30bacf6526b4d0cf499bb593e4857a8eff146555",
      "v": 28,
      "creates": null,
      "raw": "0xf86d03850d7e7166d083015f909401ad0acff478127d9d702b1a13599d706cb759b1888ac7230489e80000801ca0a3036a17033418847d39f4e8365ee38261032b8b7e474fffff82a5a4972338b0a07fb9ec778683fcfef39414de30bacf6526b4d0cf499bb593e4857a8eff146555",
      "networkId": 0,
      "chainId": 0
    }
  ]
}