{
  "hash": "0x790e55f2049dec294e410878d96b270bf10c42c253dbfbe86a5038b04a63855d",
  "parentHash": "0xa5ba7f9d66530213c66a0a4d3b6641c56a19d6793193cd0febe033c74449f407",
  "number": 92339,
  "timestamp": 1439670516,
  "nonce": "0x1284f91e26fb1174",
  "difficulty": 3502892309437,
  "gasLimit": {
    "_hex": "0x2fefd8"
  },
  "gasUsed": {
    "_hex": "0x5208"
  },
  "miner": "0xe6A7a1d47ff21B6321162AEA7C6CB457D5476Bca",
  "extraData": "0x476574682f76312e302e312d38326566323666362f6c696e75782f676f312e34",
  "transactions": [
    {
      "hash": "0x2a17fbce4acbf3f18aec16a2ee165822360a1344d1af7e89599b8f647160b155",
      "blockHash": "0x790e55f2049dec294e410878d96b270bf10c42c253dbfbe86a5038b04a63855d",
      "blockNumber": 92339,
      "transactionIndex": 0,
      "confirmations": null,
      "from": "0xaF8DC9b93f150799F5eCb55b5131fEc2a0A5F192",
      "gasPrice": {
        "_hex": "0xddd9ddb1e"
      },
      "gasLimit": {
        "_hex": "0x30d40"
      },
      "to": "0x120A270bbC009644e35F0bB6ab13f95b8199c4ad",
      "value": {
        "_hex": "0x88990ea1470f19280"
      },
      "nonce": 0,
      "data": "0x",
      "r": "0x4ed9b6289e07e6a603d539d8ba29b57bbae9115105029c3194a4e5eeb190cb4d",
      "s": "0x268c4b09f58372245968cb6ca60f58452d7208979a6b1b2abd0682ce572a6ef3",
      "v": 27,
      "creates": null,
      "raw": "0xf86e80850ddd9ddb1e83030d4094120a270bbc009644e35f0bb6ab13f95b8199c4ad89088990ea1470f19280801ba04ed9b6289e07e6a603d539d8ba29b57bbae9115105029c3194a4e5eeb190cb4da0268c4b09f58372245968cb6ca60f58452d7208979a6b1b2abd0682ce572a6ef3",
      "networkId": 0,
      "chainId": 0
    }
  ]
}