{
  "hash": "0x88e24d888a52f42bbb50b13a870ac54c2b64f6cc67000428cb57b66e9873e628",
  "parentHash": "0x78c7c53e5d6af893ffb6ed97c68175c8f89b6acdb0f0fc320295ea6fcdb89202",
  "number": 57575,
  "timestamp": 1439105799,
  "nonce": "0x13507c7c9a0fc03e",
  "difficulty": 1732777002216,
  "gasLimit": {
    "_hex": "0x2fefd8"
  },
  "gasUsed": {
    "_hex": "0x5208"
  },
  "miner": "0x9746c7e1ef2bd21FF3997fa467593a89cb852BD0",
  "extraData": "0x476574682f76312e302e312f77696e646f77732f676f312e342e32",
  "transactions": [
    {
      "hash": "0xc386e7636dc0cc0c4ff06a34843815790accc74403733f3f4dc47d94c85ae501",
      "blockHash": "0x88e24d888a52f42bbb50b13a870ac54c2b64f6cc67000428cb57b66e9873e628",
      "blockNumber": 57575,
      "transactionIndex": 0,
      "confirmations": null,
      "from": "0xD6e6b0E55C9b50F68269e40E31f8Ce7a8B43f9fC",
      "gasPrice": {
        "_hex": "0xd70a86b79"
      },
      "gasLimit": {
        "_hex": "0x15f90"
      },
      "to": "0x0Db50d943315f83aa62d0cB2a6D1Eb6c1d0538FD",
      "value": {
        "_hex": "0xb1a2bc2ec50000"
      },
      "nonce": 0,
      "data": "0x",
      "r": "0x7ae07153dff60b005745d13f3e97afe63ba9d3e1ae53a61e8afd52ca25210aef",
      "s": "0x4242d7405d14081c981a9e0c219352e216701e32672c9af95129bf30016931be",
      "v": 27,
      "creates": null,
      "raw": "0xf86c80850d70a86b7983015f90940db50d943315f83aa62d0cb2a6d1eb6c1d0538fd87b1a2bc2ec50000801ba07ae07153dff60b005745d13f3e97afe63ba9d3e1ae53a61e8afd52ca25210aefa04242d7405d14081c981a9e0c219352e216701e32672c9af95129bf30016931be",
      "networkId": 0,
      "chainId": 0
    }
  ]
}