{
  "hash": "0x1410b90cedd32ee2c4547f82e8d3d8d3824e22a1415e0a2bd36d040775434532",
  "parentHash": "0xbfd9ea3c563a124b08301de4b67e212f4f174139ae642e083247a8c3d6809ca5",
  "number": 89213,
  "timestamp": 1439619900,
  "nonce": "0x3a7fed8598943e6b",
  "difficulty": 3291889265173,
  "gasLimit": {
    "_hex": "0x2fefd8"
  },
  "gasUsed": {
    "_hex": "0xb20b"
  },
  "miner": "0x8B454d830feF179e66206840F8F3D1d83bC32b17",
  "extraData": "0x476574682f76312e302e312f77696e646f77732f676f312e342e32",
  "transactions": [
    {
      "hash": "0xa4fd2cd7365d9f8b2b3c9923145a7d2d6679ed827a2009c780abd60a2995818b",
      "blockHash": "0x1410b90cedd32ee2c4547f82e8d3d8d3824e22a1415e0a2bd36d040775434532",
      "blockNumber": 89213,
      "transactionIndex": 0,
      "confirmations": null,
      "from": "0x9d30cB237BC096f17036FC80dd21CA68992ca2d9",
      "gasPrice": {
        "_hex": "0x110c8f7d8de"
      },
      "gasLimit": {
        "_hex": "0xc350"
      },
      "to": "0x2910543Af39abA0Cd09dBb2D50200b3E800A63D2",
      "value": {
        "_hex": "0x10f0cf064dd59200000"
      },
      "nonce": 6,
      "data": "0x454e4e445759415947",
      "r": "0x7aa13c1a263c906868c2dc13ac2ecfde0108addf0ef6d2ed8b9fcf8ca03247c0",
      "s": "0x1e255ecbe8dda8e405cba46cbed643de14a7f5452b3965f007b7a4f0e6b5b0bc",
      "v": 28,
      "creates": null,
      "raw": "0xf87806860110c8f7d8de82c350942910543af39aba0cd09dbb2d50200b3e800a63d28a010f0cf064dd5920000089454e4e4457594159471ca07aa13c1a263c906868c2dc13ac2ecfde0108addf0ef6d2ed8b9fcf8ca03247c0a01e255ecbe8dda8e405cba46cbed643de14a7f5452b3965f007b7a4f0e6b5b0bc",
      "networkId": 0,
      "chainId": 0
    },
    {
      "hash": "0x5ebae7611b3edb2495874dc72147e058e04f2a9836355c2d301457327a906bfd",
      "blockHash": "0x1410b90cedd32ee2c4547f82e8d3d8d3824e22a1415e0a2bd36d040775434532",
      "blockNumber": 89213,
      "transactionIndex": 1,
      "confirmations": null,
      "from": "0x2659fACb1E83436553b5B42989adB8075F9953ED",
      "gasPrice": {
        "_hex": "0xd99681958"
      },
      "gasLimit": {
        "_hex": "0x15f90"
      },
      "to": "0xCAc7000C7dBaa2E33Af15325AF5D435E011C7BdD",
      "value": {
        "_hex": "0x19741ef84aa9d0000"
      },
      "nonce": 0,
      "data": "0xb214faa5444744363830364b480000000000000000000000000000000000000000000000",
      "r": "0x09da8ff49b6d7ac19af152ecb8246e496f57b3105dba9787f350a9f7cc92a910",
      "s": "0x638f5d78f9fb5750729198fcabb4eecedc2dae1e6ed90d2c8c3f148d4b368347",
      "v": 27,
      "creates": null,
      "raw": "0xf89280850d9968195883015f9094cac7000c7dbaa2e33af15325af5d435e011c7bdd89019741ef84aa9d0000a4b214faa5444744363830364b4800000000000000000000000000000000000000000000001ba009da8ff49b6d7ac19af152ecb8246e496f57b3105dba9787f350a9f7cc92a910a0638f5d78f9fb5750729198fcabb4eecedc2dae1e6ed90d2c8c3f148d4b368347",
      "networkId": 0,
      "chainId": 0
    }
  ]
}