{
  "hash": "0xa852507a75c890f8de89db20773dfc725cd52a5baf8db57eeef6b7c4220c26ef",
  "parentHash": "0x3bc3ca1e7e5a3e022f6cbf8a410fb3267b04a9a79340c7518ea17b375abcbe89",
  "number": 80721,
  "timestamp": 1439489773,
  "nonce": "0x1c45f38fa9360938",
  "difficulty": 2439255076816,
  "gasLimit": {
    "_hex": "0x2fefd8"
  },
  "gasUsed": {
    "_hex": "0x5208"
  },
  "miner": "0xe090Ffdced499691fA9379752a59F8A058c1eE4A",
  "extraData": "0x476574682f76312e302e312f6c696e75782f676f312e342e32",
  "transactions": [
    {
      "hash": "0x28a140b4f7ee425decbe11d0ef9c6babb9ef5a86045ee7eda03c0871f68e74de",
      "blockHash": "0xa852507a75c890f8de89db20773dfc725cd52a5baf8db57eeef6b7c4220c26ef",
      "blockNumber": 80721,
      "transactionIndex": 0,
      "confirmations": null,
      "from": "0x9746c7e1ef2bd21FF3997fa467593a89cb852BD0",
      "gasPrice": {
        "_hex": "0xd95cf7f34"
      },
      "gasLimit": {
        "_hex": "0x5208"
      },
      "to": "0xB0bF4A71F730782368Ef660FE6D298F432F95450",
      "value": {
        "_hex": "0x9c2007651b2500000"
      },
      "nonce": 23,
      "data": "0x",
      "r": "0xf957b2a9617281b6ae80f66ebff214c0dd40b6a208a0f0b873c8cb0b0ced6260",
      "s": "0x3a983e78ca278df68ae9f749d234408aaea936faf62052ebbaf840a156d11986",
      "v": 28,
      "creates": null,
      "raw": "0xf86d17850d95cf7f3482520894b0bf4a71f730782368ef660fe6d298f432f954508909c2007651b2500000801ca0f957b2a9617281b6ae80f66ebff214c0dd40b6a208a0f0b873c8cb0b0ced6260a03a983e78ca278df68ae9f749d234408aaea936faf62052ebbaf840a156d11986",
      "networkId": 0,
      "chainId": 0
    }
  ]
}