{
  "hash": "0xf8e7eeb18420183bf8849dca745288429c5a90c0c3cb66e0432da4e78a2d488c",
  "parentHash": "0xb3984bb298d328a0026a7c607131e4ac1814c4a5adcff8917512bda977a2835b",
  "number": 80724,
  "timestamp": 1439489838,
  "nonce": "0x8546f2f719278961",
  "difficulty": 2438063453019,
  "gasLimit": {
    "_hex": "0x2fefd8"
  },
  "gasUsed": {
    "_hex": "0x5208"
  },
  "miner": "0xe6A7a1d47ff21B6321162AEA7C6CB457D5476Bca",
  "extraData": "0x476574682f76312e302e312d38326566323666362f6c696e75782f676f312e34",
  "transactions": [
    {
      "hash": "0xf27d241b6ff0ef4de65e5fe2c87da02fe3f6be27455b612cc65a6d11dd720e37",
      "blockHash": "0xf8e7eeb18420183bf8849dca745288429c5a90c0c3cb66e0432da4e78a2d488c",
      "blockNumber": 80724,
      "transactionIndex": 0,
      "confirmations": null,
      "from": "0x859337F6BeF10dEE917c9F7086B47Fc9B019d45b",
      "gasPrice": {
        "_hex": "0xba43b7400"
      },
      "gasLimit": {
        "_hex": "0x5208"
      },
      "to": "0xC47Aaa860008be6f65B58c6C6E02a84e666EfE31",
      "value": {
        "_hex": "0x8a58d337619e01c0"
      },
      "nonce": 0,
      "data": "0x",
      "r": "0x63b1cc3383a13c5c67f803f271e2a574c7d4a88ede9c12bf04866898dc79bbaa",
      "s": "0x45738bde0cc1f19265c303051ca41637d84472a8658427e4f58706cc1cf60f9a",
      "v": 27,
      "creates": null,
      "raw": "0xf86c80850ba43b740082520894c47aaa860008be6f65b58c6c6e02a84e666efe31888a58d337619e01c0801ba063b1cc3383a13c5c67f803f271e2a574c7d4a88ede9c12bf04866898dc79bbaaa045738bde0cc1f19265c303051ca41637d84472a8658427e4f58706cc1cf60f9a",
      "networkId": 0,
      "chainId": 0
    }
  ]
}