{
  "hash": "0x1fd8276075a0a15727c28550ece82405264e871122aa9137f01b7541e42acebb",
  "parentHash": "0xc53ce3ea6eab0cbaaa1367f807ee9151102454a99d1e20d1a464990d37f1ea0c",
  "number": 67451,
  "timestamp": 1439272353,
  "nonce": "0xf487462000b7cf88",
  "difficulty": 1919497911138,
  "gasLimit": {
    "_hex": "0x2fefd8"
  },
  "gasUsed": {
    "_hex": "0x5208"
  },
  "miner": "0xEF247E639d49461D25F57e9362CadE3120910Ce0",
  "extraData": "0x476574682f76312e302e312f6c696e75782f676f312e342e32",
  "transactions": [
    {
      "hash": "0xb786f668e234f9c0bb4fa138ff7630c200c4b0af15adc8e1d3e8ad2ee1252381",
      "blockHash": "0x1fd8276075a0a15727c28550ece82405264e871122aa9137f01b7541e42acebb",
      "blockNumber": 67451,
      "transactionIndex": 0,
      "confirmations": null,
      "from": "0x6866e5e1FaBB4AbceF3EEb9Ea0d8CD6b52dfC9FF",
      "gasPrice": {
        "_hex": "0xcbde04bc2"
      },
      "gasLimit": {
        "_hex": "0x15f90"
      },
      "to": "0x01Ad0ACFf478127D9d702B1A13599D706cB759b1",
      "value": {
        "_hex": "0x5f572499e6ef0000"
      },
      "nonce": 5,
      "data": "0x",
      "r": "0x31c9531ab828b737e87e0b9e9739502d7c0f57a63fca2a766b5350355ac3a566",
      "s": "0x297514903f01458310ab936f3c7d8e135b7e80de109d3110fda9d3fd20236172",
      "v": 28,
      "creates": null,
      "raw": "0xf86d05850cbde04bc283015f909401ad0acff478127d9d702b1a13599d706cb759b1885f572499e6ef0000801ca031c9531ab828b737e87e0b9e9739502d7c0f57a63fca2a766b5350355ac3a566a0297514903f01458310ab936f3c7d8e135b7e80de109d3110fda9d3fd20236172",
      "networkId": 0,
      "chainId": 0
    }
  ]
}