{
  "hash": "0x970d6912a64c0bdcb64065b1db69a5e69e20d9f2574d576b2219e782801983f3",
  "parentHash": "0x1c0a65a5787ef2d232cfa47578c2bdb4b81e97ff8ac8dc4c5c8696609e48957a",
  "number": 69084,
  "timestamp": 1439298058,
  "nonce": "0x0798c3b4db7aaf4f",
  "difficulty": 2053899286716,
  "gasLimit": {
    "_hex": "0x2fefd8"
  },
  "gasUsed": {
    "_hex": "0xa410"
  },
  "miner": "0xeB1325C8D9d3ea8D74aC11F4B00F1B2367686319",
  "extraData": "0x476574682f76312e302e312f77696e646f77732f676f312e342e32",
  "transactions": [
    {
      "hash": "0x48b78a649d87219a9c94c010eacdcb5744c98c35eea1f25385479839838dfdce",
      "blockHash": "0x970d6912a64c0bdcb64065b1db69a5e69e20d9f2574d576b2219e782801983f3",
      "blockNumber": 69084,
      "transactionIndex": 0,
      "confirmations": null,
      "from": "0x2f3DF887C687A3120dAB039d85154e92ac9C4247",
      "gasPrice": {
        "_hex": "0xba43b7400"
      },
      "gasLimit": {
        "_hex": "0x5208"
      },
      "to": "0xe56Ddaf998A184c40b5761D66c3D23f3e7dBf9bA",
      "value": {
        "_hex": "0x653580cf6eb000"
      },
      "nonce": 1,
      "data": "0x",
      "r": "0xdf976d973fa50be79b78454e57ff60c5d0c70d13bbf0caf37c12eee60fe4bac5",
      "s": "0x63be1379ecf88d231ff93eed87097ba49732be0bbf4de4a75ddd837cca3b23ad",
      "v": 28,
      "creates": null,
      "raw": "0xf86b01850ba43b740082520894e56ddaf998a184c40b5761d66c3d23f3e7dbf9ba87653580cf6eb000801ca0df976d973fa50be79b78454e57ff60c5d0c70d13bbf0caf37c12eee60fe4bac5a063be1379ecf88d231ff93eed87097ba49732be0bbf4de4a75ddd837cca3b23ad",
      "networkId": 0,
      "chainId": 0
    },
    {
      "hash": "0x6272420b2bcdf753049f4d7502db6a1adcda20bc72caade40c4b10a7853c84bc",
      "blockHash": "0x970d6912a64c0bdcb64065b1db69a5e69e20d9f2574d576b2219e782801983f3",
      "blockNumber": 69084,
      "transactionIndex": 1,
      "confirmations": null,
      "from": "0x4eaFf044a6EA01B008092DFbA85196BCFD7974B1",
      "gasPrice": {
        "_hex": "0xba43b7400"
      },
      "gasLimit": {
        "_hex": "0x5208"
      },
      "to": "0x1E8eb0f1e9848AEcCe1755df800C38d75c7161Dd",
      "value": {
        "_hex": "0x653580cf6eb000"
      },
      "nonce": 1,
      "data": "0x",
      "r": "0x89517df832765cc03708896b691382ad2ed8ddfc5740850419d688c194705791",
      "s": "0x15aae048a0b1a500d4f2d4b68a22649275423f0c1860718838db0b3cea8eef22",
      "v": 27,
      "creates": null,
      "raw": "0xf86b01850ba43b7400825208941e8eb0f1e9848aecce1755df800c38d75c7161dd87653580cf6eb000801ba089517df832765cc03708896b691382ad2ed8ddfc5740850419d688c194705791a015aae048a0b1a500d4f2d4b68a22649275423f0c1860718838db0b3cea8eef22",
      "networkId": 0,
      "chainId": 0
    }
  ]
}