{
  "hash": "0x6928348c9a218cfce49c16a191543689313dfd5e7d5caf91e47165dd36096a01",
  "parentHash": "0x22388d045042f5e427a920f5878912b562ebc152ecc32dd9e61d3a1979b47e24",
  "number": 47162,
  "timestamp": 1438935302,
  "nonce": "0x9cb30b122ff032eb",
  "difficulty": 1457394469689,
  "gasLimit": {
    "_hex": "0x9dc3"
  },
  "gasUsed": {
    "_hex": "0x5208"
  },
  "miner": "0xe6A7a1d47ff21B6321162AEA7C6CB457D5476Bca",
  "extraData": "0x657468706f6f6c2e6f7267",
  "transactions": [
    {
      "hash": "0x358f00015d00283ab21451864aa84d4caa704ca054c935c8e9a00229e30b233a",
      "blockHash": "0x6928348c9a218cfce49c16a191543689313dfd5e7d5caf91e47165dd36096a01",
      "blockNumber": 47162,
      "transactionIndex": 0,
      "confirmations": null,
      "from": "0xa0E74ae010D51894734c308D612131056bB721AD",
      "gasPrice": {
        "_hex": "0xd6cf1a5bd"
      },
      "gasLimit": {
        "_hex": "0x5208"
      },
      "to": "0x32Be343B94f860124dC4fEe278FDCBD38C102D88",
      "value": {
        "_hex": "0x8ac2eba5c9946800"
      },
      "nonce": 1,
      "data": "0x",
      "r": "0xd3d9812aa1824864b5ac54afe2f537d52965c51b7b18d214bfbe7b61a5b0b57c",
      "s": "0x4462c6ce654cfe6d94093b5b6407b63b666fcdcba9f1360bf9fe37c6d1fd6ebc",
      "v": 27,
      "creates": null,
      "raw": "0xf86c01850d6cf1a5bd8252089432be343b94f860124dc4fee278fdcbd38c102d88888ac2eba5c9946800801ba0d3d9812aa1824864b5ac54afe2f537d52965c51b7b18d214bfbe7b61a5b0b57ca04462c6ce654cfe6d94093b5b6407b63b666fcdcba9f1360bf9fe37c6d1fd6ebc",
      "networkId": 0,
      "chainId": 0
    }
  ]
}