{
  "hash": "0xcee404e7bb8e9fb31864cdee26c08e8b05c832c48235ee66e97ccf7adaff8c04",
  "parentHash": "0xa6b75e060b4882f98525d20180ad3155bdd45eb6d732e7031ab2d38222297349",
  "number": 65295,
  "timestamp": 1439234458,
  "nonce": "0x046bbda8f18f45ac",
  "difficulty": 1946421461259,
  "gasLimit": {
    "_hex": "0x2fefd8"
  },
  "gasUsed": {
    "_hex": "0xa410"
  },
  "miner": "0xDaD56904f2996453f00a79C2C7ee2E8c47dFbba3",
  "extraData": "0x476574682f76312e302e312f6c696e75782f676f312e342e32",
  "transactions": [
    {
      "hash": "0xbb85249f8d9a14f64cd9bc7b07f18b44b9fd25c39a444b09c8744fd1663692b9",
      "blockHash": "0xcee404e7bb8e9fb31864cdee26c08e8b05c832c48235ee66e97ccf7adaff8c04",
      "blockNumber": 65295,
      "transactionIndex": 0,
      "confirmations": null,
      "from": "0x11511DC0B60AEC4198353b797FE30498F14fb2e9",
      "gasPrice": {
        "_hex": "0xba43b7400"
      },
      "gasLimit": {
        "_hex": "0x5208"
      },
      "to": "0xA6501680FB9FD0A30001c66D2eC34E3aC3cEe6d6",
      "value": {
        "_hex": "0x870701872a5a000"
      },
      "nonce": 1,
      "data": "0x",
      "r": "0x2c0781a8e5ff98ef1c3a4f4efd7cd89e11c8b8534558f5ebc084b2e258cdb5a4",
      "s": "0x315eaa3390bd3e461eee95e1fbb89eb0ff1add91b29d1dfbc5cb5a818f5219bc",
      "v": 27,
      "creates": null,
      "raw": "0xf86c01850ba43b740082520894a6501680fb9fd0a30001c66d2ec34e3ac3cee6d6880870701872a5a000801ba02c0781a8e5ff98ef1c3a4f4efd7cd89e11c8b8534558f5ebc084b2e258cdb5a4a0315eaa3390bd3e461eee95e1fbb89eb0ff1add91b29d1dfbc5cb5a818f5219bc",
      "networkId": 0,
      "chainId": 0
    },
    {
      "hash": "0x4556333877585f1bcca34318809d5a54ba685381099e31f0a39cc823bbb1c69b",
      "blockHash": "0xcee404e7bb8e9fb31864cdee26c08e8b05c832c48235ee66e97ccf7adaff8c04",
      "blockNumber": 65295,
      "transactionIndex": 1,
      "confirmations": null,
      "from": "0x05ED11E01706D9C8E9067D78C7802f64afc4016f",
      "gasPrice": {
        "_hex": "0xba43b7400"
      },
      "gasLimit": {
        "_hex": "0x5208"
      },
      "to": "0x7B25BF429aaA99bC7851cd2F9353bC66f5df256c",
      "value": {
        "_hex": "0x7fcc03832d37000"
      },
      "nonce": 1,
      "data": "0x",
      "r": "0xc75ed2c993d0b40b300f630a82a6be451d6f585d38890709cd61aaa1966f5f14",
      "s": "0x3a0ceeaae0078c30f44d94ec2d256f86595da04974e008725fb7b8bbc9b86cb4",
      "v": 28,
      "creates": null,
      "raw": "0xf86c01850ba43b7400825208947b25bf429aaa99bc7851cd2f9353bc66f5df256c8807fcc03832d37000801ca0c75ed2c993d0b40b300f630a82a6be451d6f585d38890709cd61aaa1966f5f14a03a0ceeaae0078c30f44d94ec2d256f86595da04974e008725fb7b8bbc9b86cb4",
      "networkId": 0,
      "chainId": 0
    }
  ]
}