{
  "hash": "0xc39cf50f6e95a9206e4b28593d2fc4676f291cdc3243ccc63be905097c0429a9",
  "parentHash": "0x1aa83873a92fad181531aa169f05b3808d9137da2675866b5aa33ab46a8c226f",
  "number": 72182,
  "timestamp": 1439348668,
  "nonce": "0xca5a07fbc9b31f49",
  "difficulty": 2177036442202,
  "gasLimit": {
    "_hex": "0x2fefd8"
  },
  "gasUsed": {
    "_hex": "0x9400"
  },
  "miner": "0xbb7B8287f3F0a933474a79eAe42CBCa977791171",
  "extraData": "0x476574682f4c5649562f76312e302e312f6c696e75782f676f312e342e32",
  "transactions": [
    {
      "hash": "0x2e11048fe545c669fe9d1ff7d42fff7650fcbaa5e4982838f53f2dadb42c1d40",
      "blockHash": "0xc39cf50f6e95a9206e4b28593d2fc4676f291cdc3243ccc63be905097c0429a9",
      "blockNumber": 72182,
      "transactionIndex": 0,
      "confirmations": null,
      "from": "0x17580B766f7453525ca4C6A88b01b50570EA088C",
      "gasPrice": {
        "_hex": "0xdba44afab"
      },
      "gasLimit": {
        "_hex": "0x61a80"
      },
      "to": "0x5Fe5B7546D1628f7348B023A0393de1FC825A4fD",
      "value": {
        "_hex": "0x53444835ec580000"
      },
      "nonce": 346,
      "data": "0xb595b8b50000000000000000000000000000000000000000000000000000000000000001",
      "r": "0x83c5e0db905a2cdca2a12fcca5f640e644d90ef7fe42a3b1f2fa7f751d5211df",
      "s": "0x1049aa042cb2920173592df50c04ffdee967552c094b74997ef396d520963efd",
      "v": 27,
      "creates": null,
      "raw": "0xf89382015a850dba44afab83061a80945fe5b7546d1628f7348b023a0393de1fc825a4fd8853444835ec580000a4b595b8b500000000000000000000000000000000000000000000000000000000000000011ba083c5e0db905a2cdca2a12fcca5f640e644d90ef7fe42a3b1f2fa7f751d5211dfa01049aa042cb2920173592df50c04ffdee967552c094b74997ef396d520963efd",
      "networkId": 0,
      "chainId": 0
    }
  ]
}