{
  "hash": "0xd05ac32e5172db285e53570c53e35652a078ebd33d3c85443a4a22bf2c478eef",
  "parentHash": "0x543b97c5220574ee497a6f4497425be02e5191e926544bf4d5df0a41b9920b35",
  "number": 95727,
  "timestamp": 1439728638,
  "nonce": "0xd4a37091a6b4e298",
  "difficulty": 3630309606171,
  "gasLimit": {
    "_hex": "0x2fefd8"
  },
  "gasUsed": {
    "_hex": "0x546c"
  },
  "miner": "0x33F36DffD23cf019833E1d59cBc7138824b12289",
  "extraData": "0xda8098302e392e34312b2b302d524c696e75782f672b2b2f696e74",
  "transactions": [
    {
      "hash": "0x3782a78c61a83422137bb1bff7cba173426ba204eb3023d87e2771fa9186bcce",
      "blockHash": "0xd05ac32e5172db285e53570c53e35652a078ebd33d3c85443a4a22bf2c478eef",
      "blockNumber": 95727,
      "transactionIndex": 0,
      "confirmations": null,
      "from": "0x15D99468507AA0413Fb60dCA2aDC7f569cB36B54",
      "gasPrice": {
        "_hex": "0x110c8f7d8de"
      },
      "gasLimit": {
        "_hex": "0xc350"
      },
      "to": "0x2910543Af39abA0Cd09dBb2D50200b3E800A63D2",
      "value": {
        "_hex": "0xca0f82db99b0000"
      },
      "nonce": 1,
      "data": "0x454e48334448394347",
      "r": "0xacfe549b2c4328ee75967fa9f21b01a78a722ee937ae78dd0d2a12f3aff7311d",
      "s": "0x5e2311d491c8ecb09aafcd6d1cd3d5bfb376b3c213d5ba82c5d21b84707d9a2e",
      "v": 28,
      "creates": null,
      "raw": "0xf87601860110c8f7d8de82c350942910543af39aba0cd09dbb2d50200b3e800a63d2880ca0f82db99b000089454e483344483943471ca0acfe549b2c4328ee75967fa9f21b01a78a722ee937ae78dd0d2a12f3aff7311da05e2311d491c8ecb09aafcd6d1cd3d5bfb376b3c213d5ba82c5d21b84707d9a2e",
      "networkId": 0,
      "chainId": 0
    }
  ]
}