{
  "hash": "0x724c60d9abc88622b129c631386812c6dbce7e6a872f137f4759ba337eb3359b",
  "parentHash": "0x3717948e86a143f2243fc4b4f39f38fbeabfac89831c1de915909cc481469697",
  "number": 68277,
  "timestamp": 1439285239,
  "nonce": "0x72d82ac3de3856ca",
  "difficulty": 1993817456283,
  "gasLimit": {
    "_hex": "0x2fefd8"
  },
  "gasUsed": {
    "_hex": "0xf8d8"
  },
  "miner": "0xa50ec0D39fa913E62f1Bae7074E6F36caA71855b",
  "extraData": "0x",
  "transactions": [
    {
      "hash": "0x36c59a04f6798665adc425036b12d5e14433a4af2c838d770ba100fc13be8033",
      "blockHash": "0x724c60d9abc88622b129c631386812c6dbce7e6a872f137f4759ba337eb3359b",
      "blockNumber": 68277,
      "transactionIndex": 0,
      "confirmations": null,
      "from": "0x4BD5f0Ee173C81d42765154865EE69361b6aD189",
      "gasPrice": {
        "_hex": "0x746a528800"
      },
      "gasLimit": {
        "_hex": "0x5dc4"
      },
      "to": "0x2910543Af39abA0Cd09dBb2D50200b3E800A63D2",
      "value": {
        "_hex": "0x8ac7230489e80000"
      },
      "nonce": 11,
      "data": "0x0000000000000000000000000000000000000000000000454e465631595a3552",
      "r": "0xe49b2a43a0aebb0c586cc12ed64685430e7c6692e83254690a14f1514b10ed80",
      "s": "0xc7fab5f9865a6e17f9af6e05396eb4fa18126ffea6ddfccd2d0ec4afd2661c29",
      "v": 27,
      "creates": null,
      "raw": "0xf88c0b85746a528800825dc4942910543af39aba0cd09dbb2d50200b3e800a63d2888ac7230489e80000a00000000000000000000000000000000000000000000000454e465631595a35521ba0e49b2a43a0aebb0c586cc12ed64685430e7c6692e83254690a14f1514b10ed80a0c7fab5f9865a6e17f9af6e05396eb4fa18126ffea6ddfccd2d0ec4afd2661c29",
      "networkId": 0,
      "chainId": 0
    },
    {
      "hash": "0x4c5701b93352f33ed3809831bedd1a3753f9aaea600f30c750e416a7c00b8833",
      "blockHash": "0x724c60d9abc88622b129c631386812c6dbce7e6a872f137f4759ba337eb3359b",
      "blockNumber": 68277,
      "transactionIndex": 1,
      "confirmations": null,
      "from": "0x64be5c0AC7252bcFC7D7e67aCd4bA4FeEDF8D3b6",
      "gasPrice": {
        "_hex": "0xba43b7400"
      },
      "gasLimit": {
        "_hex": "0x5208"
      },
      "to": "0xCCd5F2678f68e2e6b3969F028226F8483Cd4ffc8",
      "value": {
        "_hex": "0x36ef271c4dd000"
      },
      "nonce": 1,
      "data": "0x",
      "r": "0x542e8802b730cdc4aa2f909b039413c1ba12dafddb678646ee79a7f3cf0b8cb6",
      "s": "0x16eda16c1b7391c09c5ced0c288e6ed905380739d188986ac5478792a17d828d",
      "v": 28,
      "creates": null,
      "raw": "0xf86b01850ba43b740082520894ccd5f2678f68e2e6b3969f028226f8483cd4ffc88736ef271c4dd000801ca0542e8802b730cdc4aa2f909b039413c1ba12dafddb678646ee79a7f3cf0b8cb6a016eda16c1b7391c09c5ced0c288e6ed905380739d188986ac5478792a17d828d",
      "networkId": 0,
      "chainId": 0
    },
    {
      "hash": "0x405832515fddd9efc6960b5881108f98941531046850cac1d8b2acfb70f24a0b",
      "blockHash": "0x724c60d9abc88622b129c631386812c6dbce7e6a872f137f4759ba337eb3359b",
      "blockNumber": 68277,
      "transactionIndex": 2,
      "confirmations": null,
      "from": "0x6747f922385c9a6F9cfDf095F34345257DD597bE",
      "gasPrice": {
        "_hex": "0xba43b7400"
      },
      "gasLimit": {
        "_hex": "0x5208"
      },
      "to": "0x8711c5D30e4FCeBeE19B9Ac4468bfA5Cc0a9d9ab",
      "value": {
        "_hex": "0x1fcbfa42bd6000"
      },
      "nonce": 43,
      "data": "0x",
      "r": "0xbea72e2fc8915fada0f8a8ca8e93e0327b22b1c2dbf262bcdde341a6462b04ab",
      "s": "0x02ada3e4e84be3c2399baadc5913962fe97dc7582a464c7a4b36ca94c79e0330",
      "v": 28,
      "creates": null,
      "raw": "0xf86b2b850ba43b7400825208948711c5d30e4fcebee19b9ac4468bfa5cc0a9d9ab871fcbfa42bd6000801ca0bea72e2fc8915fada0f8a8ca8e93e0327b22b1c2dbf262bcdde341a6462b04aba002ada3e4e84be3c2399baadc5913962fe97dc7582a464c7a4b36ca94c79e0330",
      "networkId": 0,
      "chainId": 0
    }
  ]
}