{
  "hash": "0x375285555131dc4650f02aac3bdec5cd1a1ffa66c30d53a3f2623f99df1a5d11",
  "parentHash": "0x7f70ed9998b1497e814da5c71a3dd7b043a87568f1a51708c044b1ad1f37f99b",
  "number": 61950,
  "timestamp": 1439180865,
  "nonce": "0xc8310babbba8153c",
  "difficulty": 1751432902037,
  "gasLimit": {
    "_hex": "0x2fefd8"
  },
  "gasUsed": {
    "_hex": "0x5208"
  },
  "miner": "0xbb7B8287f3F0a933474a79eAe42CBCa977791171",
  "extraData": "0x476574682f4c5649562f76312e302e312f6c696e75782f676f312e342e32",
  "transactions": [
    {
      "hash": "0xc0ef3677ee4bb2d12e754a92efa0af62991f96b50ffef1848dd3b0e2b1d13932",
      "blockHash": "0x375285555131dc4650f02aac3bdec5cd1a1ffa66c30d53a3f2623f99df1a5d11",
      "blockNumber": 61950,
      "transactionIndex": 0,
      "confirmations": null,
      "from": "0x2910543Af39abA0Cd09dBb2D50200b3E800A63D2",
      "gasPrice": {
        "_hex": "0xd8f5c3b4a"
      },
      "gasLimit": {
        "_hex": "0x5208"
      },
      "to": "0x2A3A69c490DD4c3b15959D4dF6531d37E4F3e0d6",
      "value": {
        "_hex": "0x2984eefe38ecd14000"
      },
      "nonce": 105,
      "data": "0x",
      "r": "0x969fb12d44871cef0446e52a8384378b5e09b32023bec9172c0cf2e4c970fdcd",
      "s": "0x6cb473128c9beab464f61ce410f0a4dc0998ec5bc3beeb51bbf12f384898a1e2",
      "v": 28,
      "creates": null,
      "raw": "0xf86d69850d8f5c3b4a825208942a3a69c490dd4c3b15959d4df6531d37e4f3e0d6892984eefe38ecd14000801ca0969fb12d44871cef0446e52a8384378b5e09b32023bec9172c0cf2e4c970fdcda06cb473128c9beab464f61ce410f0a4dc0998ec5bc3beeb51bbf12f384898a1e2",
      "networkId": 0,
      "chainId": 0
    }
  ]
}