{
  "hash": "0x04f8afc1ca03a44f038dab168d364ebe1448340203f9e032123228a7ea7ac9e7",
  "parentHash": "0xe1ce0e16f35e73731d28503be6eac5e6b1e54dec22576c7d9782646f71b6df4c",
  "number": 115709,
  "timestamp": 1440061968,
  "nonce": "0xdb0f6e87ad22ae7c",
  "difficulty": 4587173499231,
  "gasLimit": {
    "_hex": "0x2fefd8"
  },
  "gasUsed": {
    "_hex": "0x5208"
  },
  "miner": "0xe6A7a1d47ff21B6321162AEA7C6CB457D5476Bca",
  "extraData": "0x476574682f76312e302e312d38326566323666362f6c696e75782f676f312e34",
  "transactions": [
    {
      "hash": "0xfd8a0637b592219e8f545d8661befdc2dc912781ff02a064c798dcc674e6b0af",
      "blockHash": "0x04f8afc1ca03a44f038dab168d364ebe1448340203f9e032123228a7ea7ac9e7",
      "blockNumber": 115709,
      "transactionIndex": 0,
      "confirmations": null,
      "from": "0x4b0424c09BaC4Ee3f4376f1D3fA354E8Cb2D3171",
      "gasPrice": {
        "_hex": "0xd7d40ace3"
      },
      "gasLimit": {
        "_hex": "0x15f90"
      },
      "to": "0x34d34F0a638F6991e4E2536F41295DF6E934A646",
      "value": {
        "_hex": "0x340392246a2a0000"
      },
      "nonce": 20,
      "data": "0x",
      "r": "0x2b62cb6aea7f655e2c053adce9690130121eab5ebf5f0b795f4d48786bd971f7",
      "s": "0x556e2387a71cdb7b7aaa10c0da0d7256f0eb0976b96df5ba4d8b5d536c9a1a6c",
      "v": 28,
      "creates": null,
      "raw": "0xf86d14850d7d40ace383015f909434d34f0a638f6991e4e2536f41295df6e934a64688340392246a2a0000801ca02b62cb6aea7f655e2c053adce9690130121eab5ebf5f0b795f4d48786bd971f7a0556e2387a71cdb7b7aaa10c0da0d7256f0eb0976b96df5ba4d8b5d536c9a1a6c",
      "networkId": 0,
      "chainId": 0
    }
  ]
}