{
  "hash": "0x15abccaf5d7a67af438f84515a55fd1d1a9bb0d2845b28e1648f6cb18980da7a",
  "parentHash": "0x152da343ff9fff4b544fa1caa9f5813b8bac1405009f4cb1aa21f8075f50fb6e",
  "number": 84570,
  "timestamp": 1439551525,
  "nonce": "0x2a40650bf2d3e4e0",
  "difficulty": 2578959976763,
  "gasLimit": {
    "_hex": "0x2fefd8"
  },
  "gasUsed": {
    "_hex": "0x14820"
  },
  "miner": "0x0193d941b50d91BE6567c7eE1C0Fe7AF498b4137",
  "extraData": "0x4a5ace9e4e",
  "transactions": [
    {
      "hash": "0xdf6efb4dd3d86c7c8813183af7cc5dd9417f021aa95e9eb5962bee52d97cf089",
      "blockHash": "0x15abccaf5d7a67af438f84515a55fd1d1a9bb0d2845b28e1648f6cb18980da7a",
      "blockNumber": 84570,
      "transactionIndex": 0,
      "confirmations": null,
      "from": "0x42cD38c5A02759A2881756e81A3f91122b51e1B7",
      "gasPrice": {
        "_hex": "0xba43b7400"
      },
      "gasLimit": {
        "_hex": "0x5208"
      },
      "to": "0xC47Aaa860008be6f65B58c6C6E02a84e666EfE31",
      "value": {
        "_hex": "0x1e32c6e11542a000"
      },
      "nonce": 0,
      "data": "0x",
      "r": "0x055c7d03817fa2db2a83f82c2d3b21b31847e95b4f1a09b26b8c617a549c0a81",
      "s": "0x69d6db5e7f4eada27198cc6d01e267022fc2f208c62e52a81b085b45a7207218",
      "v": 28,
      "creates": null,
      "raw": "0xf86c80850ba43b740082520894c47aaa860008be6f65b58c6c6e02a84e666efe31881e32c6e11542a000801ca0055c7d03817fa2db2a83f82c2d3b21b31847e95b4f1a09b26b8c617a549c0a81a069d6db5e7f4eada27198cc6d01e267022fc2f208c62e52a81b085b45a7207218",
      "networkId": 0,
      "chainId": 0
    },
    {
      "hash": "0x20257924343c60eadecc6008b29932c0170f03c335666fd6ea8304fd628593f6",
      "blockHash": "0x15abccaf5d7a67af438f84515a55fd1d1a9bb0d2845b28e1648f6cb18980da7a",
      "blockNumber": 84570,
      "transactionIndex": 1,
      "confirmations": null,
      "from": "0xb2169f1326FE9745321aD99563654089bAdf09eb",
      "gasPrice": {
        "_hex": "0xba43b7400"
      },
      "gasLimit": {
        "_hex": "0x5208"
      },
      "to": "0xC47Aaa860008be6f65B58c6C6E02a84e666EfE31",
      "value": {
        "_hex": "0xad7793de9613c0710"
      },
      "nonce": 10,
      "data": "0x",
      "r": "0xcfeccf07d612f00b1fb4ad5a7cf4549ca9f4284b225e9fee71dc8e5a17aa7dde",
      "s": "0x6bd60b8b21837b54107b568ecc14a0277d61ee0b6f91a890048d1db9bbb75d08",
      "v": 27,
      "creates": null,
      "raw": "0xf86d0a850ba43b740082520894c47aaa860008be6f65b58c6c6e02a84e666efe31890ad7793de9613c0710801ba0cfeccf07d612f00b1fb4ad5a7cf4549ca9f4284b225e9fee71dc8e5a17aa7ddea06bd60b8b21837b54107b568ecc14a0277d61ee0b6f91a890048d1db9bbb75d08",
      "networkId": 0,
      "chainId": 0
    },
    {
      "hash": "0x4ae302454554535fda1e2b69237fb167f0c5ee40528b6ed6cee7b7bd089c802d",
      "blockHash": "0x15abccaf5d7a67af438f84515a55fd1d1a9bb0d2845b28e1648f6cb18980da7a",
      "blockNumber": 84570,
      "transactionIndex": 2,
      "confirmations": null,
      "from": "0x19D182e96Fd7EeAE2cd0c0280cF63a7E01B6184a",
      "gasPrice": {
        "_hex": "0xba43b7400"
      },
      "gasLimit": {
        "_hex": "0x5208"
      },
      "to": "0xC47Aaa860008be6f65B58c6C6E02a84e666EfE31",
      "value": {
        "_hex": "0xc79b6431cd66000"
      },
      "nonce": 0,
      "data": "0x",
      "r": "0x20ab92e07a1cd0d983b8038c2478267cf09984d4b1e3e261b995e99a23fb6f77",
      "s": "0x565453d0d03cce70f085dbaf7fb48f13e6f4c30f45756ec282ee29151e0a2520",
      "v": 28,
      "creates": null,
      "raw": "0xf86c80850ba43b740082520894c47aaa860008be6f65b58c6c6e02a84e666efe31880c79b6431cd66000801ca020ab92e07a1cd0d983b8038c2478267cf09984d4b1e3e261b995e99a23fb6f77a0565453d0d03cce70f085dbaf7fb48f13e6f4c30f45756ec282ee29151e0a2520",
      "networkId": 0,
      "chainId": 0
    },
    {
      "hash": "0xbfb7c5e2d0950063d128f81f2a261d024980ec4179f9ac1ac862b7453358efe3",
      "blockHash": "0x15abccaf5d7a67af438f84515a55fd1d1a9bb0d2845b28e1648f6cb18980da7a",
      "blockNumber": 84570,
      "transactionIndex": 3,
      "confirmations": null,
      "from": "0x1490dF8723A2496AD757c0D395840Ef9331e7e3c",
      "gasPrice": {
        "_hex": "0xba43b7400"
      },
      "gasLimit": {
        "_hex": "0x5208"
      },
      "to": "0xC47Aaa860008be6f65B58c6C6E02a84e666EfE31",
      "value": {
        "_hex": "0x183b5b48b91a97ead0"
      },
      "nonce": 0,
      "data": "0x",
      "r": "0x1840e0578d3e1dfef553a474852d553a3658c866759572b907a477acd89fadfb",
      "s": "0x6257f2c13659ed4f2cfac0af092123fd6af4fe8ab5844610a6597a89869bac4d",
      "v": 28,
      "creates": null,
      "raw": "0xf86d80850ba43b740082520894c47aaa860008be6f65b58c6c6e02a84e666efe3189183b5b48b91a97ead0801ca01840e0578d3e1dfef553a474852d553a3658c866759572b907a477acd89fadfba06257f2c13659ed4f2cfac0af092123fd6af4fe8ab5844610a6597a89869bac4d",
      "networkId": 0,
      "chainId": 0
    }
  ]
}