{
  "hash": "0x92966e49cf8b3d5a91ead49c7be7fabae79750db8e4023f68525c8b6dd3bea18",
  "parentHash": "0x6a2d4e1bf749f73cb4142c938d7dce21677f9af3bf6f7ff200768fb2cc9707e2",
  "number": 96293,
  "timestamp": 1439737997,
  "nonce": "0x5654eb01bcf3a83b",
  "difficulty": 3683630820530,
  "gasLimit": {
    "_hex": "0x2fefd8"
  },
  "gasUsed": {
    "_hex": "0x5d9f"
  },
  "miner": "0x5F8F73E26CdF436f19Cb24C82F90A15AFe55b592",
  "extraData": "0x476574682f76312e302e312f77696e646f77732f676f312e342e32",
  "transactions": [
    {
      "hash": "0xee6301a719661e05a3e336436881b2e779141fbcc6ee874aef752cc663f0145a",
      "blockHash": "0x92966e49cf8b3d5a91ead49c7be7fabae79750db8e4023f68525c8b6dd3bea18",
      "blockNumber": 96293,
      "transactionIndex": 0,
      "confirmations": null,
      "from": "0xb4f523106D96985a62306557ED1e19F129D42812",
      "gasPrice": {
        "_hex": "0xce86c9ea7"
      },
      "gasLimit": {
        "_hex": "0x15f90"
      },
      "to": "0xAd8d3a5d2d92EB14bB56CA9f380be35b8EFE0c04",
      "value": {
        "_hex": "0x9361d1bb9aa60000"
      },
      "nonce": 0,
      "data": "0xb214faa541414141414a4946440000000000000000000000000000000000000000000000",
      "r": "0x1e46da4839b4d6f75a2d4216ad3eac0e368b6fba0b5b98a4f7166b7d491c1e3e",
      "s": "0x13ab1a46578894dd7b194ed758be7bb04480d6a65abdfa5dc80c0acddaba332e",
      "v": 28,
      "creates": null,
      "raw": "0xf89180850ce86c9ea783015f9094ad8d3a5d2d92eb14bb56ca9f380be35b8efe0c04889361d1bb9aa60000a4b214faa541414141414a49464400000000000000000000000000000000000000000000001ca01e46da4839b4d6f75a2d4216ad3eac0e368b6fba0b5b98a4f7166b7d491c1e3ea013ab1a46578894dd7b194ed758be7bb04480d6a65abdfa5dc80c0acddaba332e",
      "networkId": 0,
      "chainId": 0
    }
  ]
}