{
  "hash": "0xa47e0437e6ae663238e9232131f91bdc96bcff493dac567c7c5a431b073884d9",
  "parentHash": "0x10ac9b2dc76cdab11a964e075ebdd69bb90f9f51c82d0de82820fba2d54a70b1",
  "number": 82491,
  "timestamp": 1439520325,
  "nonce": "0x6d35b746a8734643",
  "difficulty": 2375278054594,
  "gasLimit": {
    "_hex": "0x2fefd8"
  },
  "gasUsed": {
    "_hex": "0xf618"
  },
  "miner": "0x21D46e5e1C37D3fa2157A393Fa444EafE63646Fa",
  "extraData": "0x",
  "transactions": [
    {
      "hash": "0x76e922c55b4ba0fb4d7884346b058819a4c0833f315e9611211740a746f58a51",
      "blockHash": "0xa47e0437e6ae663238e9232131f91bdc96bcff493dac567c7c5a431b073884d9",
      "blockNumber": 82491,
      "transactionIndex": 0,
      "confirmations": null,
      "from": "0xC47Aaa860008be6f65B58c6C6E02a84e666EfE31",
      "gasPrice": {
        "_hex": "0xcf04830a6"
      },
      "gasLimit": {
        "_hex": "0x15f90"
      },
      "to": "0x164d6C84C4D54AA3E22A5b2B72cFb968eDe862C5",
      "value": {
        "_hex": "0xddd2935029d7fff"
      },
      "nonce": 6,
      "data": "0x",
      "r": "0x81f22704cadef9a7091125b7370977ef7243f6484ba509b7f7fb3bf1aee163c2",
      "s": "0x79acd96fd0d9d6a3f450fd41a010ccce09cdbe329c5872ecf141c79fcdb6b571",
      "v": 27,
      "creates": null,
      "raw": "0xf86d06850cf04830a683015f9094164d6c84c4d54aa3e22a5b2b72cfb968ede862c5880ddd2935029d7fff801ba081f22704cadef9a7091125b7370977ef7243f6484ba509b7f7fb3bf1aee163c2a079acd96fd0d9d6a3f450fd41a010ccce09cdbe329c5872ecf141c79fcdb6b571",
      "networkId": 0,
      "chainId": 0
    },
    {
      "hash": "0x5d06943d2427b8c07a42dba4667ff0c65b2b7b05a9f8e14093c7b44ed710a093",
      "blockHash": "0xa47e0437e6ae663238e9232131f91bdc96bcff493dac567c7c5a431b073884d9",
      "blockNumber": 82491,
      "transactionIndex": 1,
      "confirmations": null,
      "from": "0xC8224326e29eD30AEEC1B70ec238A818169ecaBA",
      "gasPrice": {
        "_hex": "0xcd6dd9911"
      },
      "gasLimit": {
        "_hex": "0x15f90"
      },
      "to": "0x27A2f708f13CFE24f8e5d6E8b7D8E971D2449Ba0",
      "value": {
        "_hex": "0xde0b6b3a7640000"
      },
      "nonce": 4,
      "data": "0x",
      "r": "0x30dba42e59439d28d36512be454df055e408c3a4731bf1c6ae4e911ee6ca0350",
      "s": "0x544530a62faca5d3a8b4bea47a5a8b99778efbc5bdddd6ddf53235d0a89abc96",
      "v": 27,
      "creates": null,
      "raw": "0xf86d04850cd6dd991183015f909427a2f708f13cfe24f8e5d6e8b7d8e971d2449ba0880de0b6b3a7640000801ba030dba42e59439d28d36512be454df055e408c3a4731bf1c6ae4e911ee6ca0350a0544530a62faca5d3a8b4bea47a5a8b99778efbc5bdddd6ddf53235d0a89abc96",
      "networkId": 0,
      "chainId": 0
    },
    {
      "hash": "0x58f809b3ff1e5e05f15e8bdc75d055c2333f582ca3577dbe67b75ee9114e374a",
      "blockHash": "0xa47e0437e6ae663238e9232131f91bdc96bcff493dac567c7c5a431b073884d9",
      "blockNumber": 82491,
      "transactionIndex": 2,
      "confirmations": null,
      "from": "0x7368f28fdD7237E9557E2A34E15e1e618BA851d4",
      "gasPrice": {
        "_hex": "0xba43b7400"
      },
      "gasLimit": {
        "_hex": "0x5208"
      },
      "to": "0xC47Aaa860008be6f65B58c6C6E02a84e666EfE31",
      "value": {
        "_hex": "0xa64938b39241c3000"
      },
      "nonce": 0,
      "data": "0x",
      "r": "0x9bafedb4916c75af476e433cc9172cc8bc45f97395cfdb8dccf81c258e039fbf",
      "s": "0x7fe98f8232978756cb64810b9b0ff92eabc9a6a5f0b85115597a54af9473e78c",
      "v": 28,
      "creates": null,
      "raw": "0xf86d80850ba43b740082520894c47aaa860008be6f65b58c6c6e02a84e666efe31890a64938b39241c3000801ca09bafedb4916c75af476e433cc9172cc8bc45f97395cfdb8dccf81c258e039fbfa07fe98f8232978756cb64810b9b0ff92eabc9a6a5f0b85115597a54af9473e78c",
      "networkId": 0,
      "chainId": 0
    }
  ]
}