{
  "hash": "0x2584367b84987b5b6667cf0046af1a2606a04dc027884c0e52129a92d2ba181c",
  "parentHash": "0xc40aed68f61b715143400d3a888d66db7ba6f255b7eebf0baf00bfdade5c5803",
  "number": 88262,
  "timestamp": 1439605312,
  "nonce": "0xd8eb011434d2c947",
  "difficulty": 3214427369201,
  "gasLimit": {
    "_hex": "0x2fefd8"
  },
  "gasUsed": {
    "_hex": "0x5208"
  },
  "miner": "0xe6A7a1d47ff21B6321162AEA7C6CB457D5476Bca",
  "extraData": "0x476574682f76312e302e312d38326566323666362f6c696e75782f676f312e34",
  "transactions": [
    {
      "hash": "0x6e7dbd2aa5154ccbe47186ba44b664dfaed8fe8b50e6e87fbd1d9ef0c2a481f2",
      "blockHash": "0x2584367b84987b5b6667cf0046af1a2606a04dc027884c0e52129a92d2ba181c",
      "blockNumber": 88262,
      "transactionIndex": 0,
      "confirmations": null,
      "from": "0x0089508679abF8c71BF6781687120e3E6a84584D",
      "gasPrice": {
        "_hex": "0xe001e13b6"
      },
      "gasLimit": {
        "_hex": "0x15f90"
      },
      "to": "0xA81fd3D89fe9c52094feDf0777c2F77212310B2F",
      "value": {
        "_hex": "0x5150ae84a8cdf00000"
      },
      "nonce": 4,
      "data": "0x",
      "r": "0x02e2b2bb6f546ef4de041059424317052f304212ac0c68181d8d3d618c5a1417",
      "s": "0x2ed9bb1137998a036c4354ea711dd6bede43da16a39b922e58e8b556dcc12004",
      "v": 27,
      "creates": null,
      "raw": "0xf86e04850e001e13b683015f9094a81fd3d89fe9c52094fedf0777c2f77212310b2f895150ae84a8cdf00000801ba002e2b2bb6f546ef4de041059424317052f304212ac0c68181d8d3d618c5a1417a02ed9bb1137998a036c4354ea711dd6bede43da16a39b922e58e8b556dcc12004",
      "networkId": 0,
      "chainId": 0
    }
  ]
}