{
  "hash": "0x3517a3bc36966ad1d39f56d7c0807627c70a2226b2db0d3a0d6947b3437be21e",
  "parentHash": "0x3a00375e9920e26f740106649560209e5fbc632ed8538af2cd20b2ef9a579533",
  "number": 79056,
  "timestamp": 1439463726,
  "nonce": "0x4ad5576c526bd858",
  "difficulty": 2313284831324,
  "gasLimit": {
    "_hex": "0x2fefd8"
  },
  "gasUsed": {
    "_hex": "0x2938c"
  },
  "miner": "0xbb7B8287f3F0a933474a79eAe42CBCa977791171",
  "extraData": "0x476574682f4c5649562f76312e302e312f6c696e75782f676f312e342e32",
  "transactions": [
    {
      "hash": "0xdce1f81d4a77061b8e0f7bcc18e31a5a064872dec731f795c3116825527f3bf4",
      "blockHash": "0x3517a3bc36966ad1d39f56d7c0807627c70a2226b2db0d3a0d6947b3437be21e",
      "blockNumber": 79056,
      "transactionIndex": 0,
      "confirmations": null,
      "from": "0xfDC46f32a632B2B3D5d18776B2FD8Cce5E6C37dd",
      "gasPrice": {
        "_hex": "0xe0a5866bc"
      },
      "gasLimit": {
        "_hex": "0x5208"
      },
      "to": "0x32Be343B94f860124dC4fEe278FDCBD38C102D88",
      "value": {
        "_hex": "0x1236a8877a3dcc000"
      },
      "nonce": 1,
      "data": "0x",
      "r": "0xbdae24aedbcc5f45fe26a172eddd8d0063c2fdc560d5c0bfd1d38ba4f9e21db1",
      "s": "0x23def8e77e089a42986cb4e76148673925f562b5a6605dead1082f7d188cf278",
      "v": 27,
      "creates": null,
      "raw": "0xf86d01850e0a5866bc8252089432be343b94f860124dc4fee278fdcbd38c102d888901236a8877a3dcc000801ba0bdae24aedbcc5f45fe26a172eddd8d0063c2fdc560d5c0bfd1d38ba4f9e21db1a023def8e77e089a42986cb4e76148673925f562b5a6605dead1082f7d188cf278",
      "networkId": 0,
      "chainId": 0
    },
    {
      "hash": "0xd2beb69bae083873fc4a5435ca917779f47f5f0861724d242286d2441c7007d4",
      "blockHash": "0x3517a3bc36966ad1d39f56d7c0807627c70a2226b2db0d3a0d6947b3437be21e",
      "blockNumber": 79056,
      "transactionIndex": 1,
      "confirmations": null,
      "from": "0x7cFa3d23636173A3beFaabc8ca86846A07C4B3DD",
      "gasPrice": {
        "_hex": "0xd8c4ec3dc"
      },
      "gasLimit": {
        "_hex": "0xf4240"
      },
      "to": null,
      "value": {
        "_hex": "0x0"
      },
      "nonce": 4,
      "data": "0x606060405260008054600160a060020a0319908116735fe5b7546d1628f7348b023a0393de1fc825a4fd17909155600180549091163317905561013c806100476000396000f300606060405260e060020a60003504632e1a7d4d811461003157806341c0e1b5146100705780636ffcc71914610098575b005b61002f60043560015433600160a060020a039081169116141561006d57600154600160a060020a0316600082606082818181858883f150505050505b50565b61002f60015433600160a060020a039081169116141561013a57600154600160a060020a0316ff5b61002f60043560243560015460009033600160a060020a039081169116141561013557602543633b9aca0060026001808701600302010406014401420145010681547f5808e1c200000000000000000000000000000000000000000000000000000000606090815260648390529192600160a060020a039190911691635808e1c29186916084919060248185886185025a03f11561000257505050505b505050565b56",
      "r": "0x6f01e8bac01b90d2be16fed2d399f27c51c039b43f3ac9338e5edc3f33dc3042",
      "s": "0x62988e5dd1405427b83deb00871d1fe38b707c678f2dceb0fb29fad7a0fafe87",
      "v": 28,
      "creates": "0xBCd159845b81E35a0b5aFF57FECCD0b3114791Ab",
      "raw": "0xf901d604850d8c4ec3dc830f42408080b90183606060405260008054600160a060020a0319908116735fe5b7546d1628f7348b023a0393de1fc825a4fd17909155600180549091163317905561013c806100476000396000f300606060405260e060020a60003504632e1a7d4d811461003157806341c0e1b5146100705780636ffcc71914610098575b005b61002f60043560015433600160a060020a039081169116141561006d57600154600160a060020a0316600082606082818181858883f150505050505b50565b61002f60015433600160a060020a039081169116141561013a57600154600160a060020a0316ff5b61002f60043560243560015460009033600160a060020a039081169116141561013557602543633b9aca0060026001808701600302010406014401420145010681547f5808e1c200000000000000000000000000000000000000000000000000000000606090815260648390529192600160a060020a039190911691635808e1c29186916084919060248185886185025a03f11561000257505050505b505050565b561ca06f01e8bac01b90d2be16fed2d399f27c51c039b43f3ac9338e5edc3f33dc3042a062988e5dd1405427b83deb00871d1fe38b707c678f2dceb0fb29fad7a0fafe87",
      "networkId": 0,
      "chainId": 0
    }
  ]
}