{
  "hash": "0x1662a0cab60a6969b69e6abcd7def662fae3a0e9eb46b399cc4efd17736a0a36",
  "parentHash": "0x582626cd1aeed75a5c1def1b75cda53e35aa7347f469cea005da85110e0a6155",
  "number": 122085,
  "timestamp": 1440187906,
  "nonce": "0x3c983f6dc95dbf87",
  "difficulty": 4460051032949,
  "gasLimit": {
    "_hex": "0x2fefd8"
  },
  "gasUsed": {
    "_hex": "0xa410"
  },
  "miner": "0xe6A7a1d47ff21B6321162AEA7C6CB457D5476Bca",
  "extraData": "0xd783010002844765746887676f312e342e32856c696e7578",
  "transactions": [
    {
      "hash": "0xa5195a4c2d6e3258fd7b71e3620bab6c4bf782aaf26cfd6677e2631f3bbcc039",
      "blockHash": "0x1662a0cab60a6969b69e6abcd7def662fae3a0e9eb46b399cc4efd17736a0a36",
      "blockNumber": 122085,
      "transactionIndex": 0,
      "confirmations": null,
      "from": "0xb1abce2918E21ddb93AA452731a12672A3d9F75a",
      "gasPrice": {
        "_hex": "0xd74ccad38"
      },
      "gasLimit": {
        "_hex": "0x5208"
      },
      "to": "0x32Be343B94f860124dC4fEe278FDCBD38C102D88",
      "value": {
        "_hex": "0x455f41ac5faea000"
      },
      "nonce": 221,
      "data": "0x",
      "r": "0xef6865a7ef14352598af50f17f88821f5cadf20e3defaa0439556ceac900d1d4",
      "s": "0x330a391abf4577803bb308498d0349057d9191efa951cde96ae7cbbd6869ea84",
      "v": 28,
      "creates": null,
      "raw": "0xf86d81dd850d74ccad388252089432be343b94f860124dc4fee278fdcbd38c102d8888455f41ac5faea000801ca0ef6865a7ef14352598af50f17f88821f5cadf20e3defaa0439556ceac900d1d4a0330a391abf4577803bb308498d0349057d9191efa951cde96ae7cbbd6869ea84",
      "networkId": 0,
      "chainId": 0
    },
    {
      "hash": "0x634cb219a7752d3053e14b90ecb7d2ba8c315bc99f89393e3fd90ace5b11f822",
      "blockHash": "0x1662a0cab60a6969b69e6abcd7def662fae3a0e9eb46b399cc4efd17736a0a36",
      "blockNumber": 122085,
      "transactionIndex": 1,
      "confirmations": null,
      "from": "0x644e5cB4F43432ba0E15B74fc638033Bcb066405",
      "gasPrice": {
        "_hex": "0xba43b7400"
      },
      "gasLimit": {
        "_hex": "0x55f0"
      },
      "to": "0x3175a28CF6105466923f11bFFabD279F162aa2f8",
      "value": {
        "_hex": "0xb1a2bc2ec50000"
      },
      "nonce": 3,
      "data": "0x",
      "r": "0x69784357badde6f9ea9e6a5bcdd104955f6b241a9eadaba9af0f16d5f8ec3469",
      "s": "0x6e751b0b9ece76bc8df87833b84ae5abaa3be8e7f19de4133ce390dcfe7d676d",
      "v": 28,
      "creates": null,
      "raw": "0xf86b03850ba43b74008255f0943175a28cf6105466923f11bffabd279f162aa2f887b1a2bc2ec50000801ca069784357badde6f9ea9e6a5bcdd104955f6b241a9eadaba9af0f16d5f8ec3469a06e751b0b9ece76bc8df87833b84ae5abaa3be8e7f19de4133ce390dcfe7d676d",
      "networkId": 0,
      "chainId": 0
    }
  ]
}