{
  "hash": "0x2538fd81448e20d0a7697906403d2d6366b5fa40f6f7bb57cf4335edac156458",
  "parentHash": "0xa59d4b2b531fc8c07e1e3ad96e763a56f30e34d198eea9827194aee40884f8b6",
  "number": 83672,
  "timestamp": 1439538853,
  "nonce": "0x4e32c085a7ec1c21",
  "difficulty": 2449136323160,
  "gasLimit": {
    "_hex": "0x2fefd5"
  },
  "gasUsed": {
    "_hex": "0xa410"
  },
  "miner": "0xF2d2AfF1320476cb8C6b607199D23175cc595693",
  "extraData": "0x476574682f76312e302e312f77696e646f77732f676f312e342e32",
  "transactions": [
    {
      "hash": "0x494d824667b569b39fd486270f8622593ec3a0b0bf5daea109b2eb9aed9e675f",
      "blockHash": "0x2538fd81448e20d0a7697906403d2d6366b5fa40f6f7bb57cf4335edac156458",
      "blockNumber": 83672,
      "transactionIndex": 0,
      "confirmations": null,
      "from": "0x2910543Af39abA0Cd09dBb2D50200b3E800A63D2",
      "gasPrice": {
        "_hex": "0xdb09f9f10"
      },
      "gasLimit": {
        "_hex": "0x5208"
      },
      "to": "0xb4Ad43131139584E8f6F31D578E0dC4d11Df6D7b",
      "value": {
        "_hex": "0x2b5e3af16b1880000"
      },
      "nonce": 529,
      "data": "0x",
      "r": "0x4529daba5c5f1abfeeefde94781eea3d73cba6fce2b890ab6c379bb6121828ce",
      "s": "0x50aaa6e322a829e618b0ea45e3aef88baff65a32d90eda5fab0b43dfc6ee1eab",
      "v": 28,
      "creates": null,
      "raw": "0xf86f820211850db09f9f1082520894b4ad43131139584e8f6f31d578e0dc4d11df6d7b8902b5e3af16b1880000801ca04529daba5c5f1abfeeefde94781eea3d73cba6fce2b890ab6c379bb6121828cea050aaa6e322a829e618b0ea45e3aef88baff65a32d90eda5fab0b43dfc6ee1eab",
      "networkId": 0,
      "chainId": 0
    },
    {
      "hash": "0x8dc38aa8aab92035a1eb7965a2b9bd1b995ef21f074879ef9dcfa74602943457",
      "blockHash": "0x2538fd81448e20d0a7697906403d2d6366b5fa40f6f7bb57cf4335edac156458",
      "blockNumber": 83672,
      "transactionIndex": 1,
      "confirmations": null,
      "from": "0x458F183347F45a4001807728A89F31E9Da9D4A58",
      "gasPrice": {
        "_hex": "0xd7d40ace3"
      },
      "gasLimit": {
        "_hex": "0x15f90"
      },
      "to": "0x7fa165177F28D171bA7C17f765c1904344Ec64CB",
      "value": {
        "_hex": "0x2906b5b64d3fa0000"
      },
      "nonce": 18,
      "data": "0x",
      "r": "0xa30b9190b29ac09d76a2ba6d4f0d99d14813fc3f3b68f3c2c4962d5b2cda7200",
      "s": "0x60526691fad2e272874ce7d01a79d849cb364638a28a2acf69a6e1f32d909ec0",
      "v": 27,
      "creates": null,
      "raw": "0xf86e12850d7d40ace383015f90947fa165177f28d171ba7c17f765c1904344ec64cb8902906b5b64d3fa0000801ba0a30b9190b29ac09d76a2ba6d4f0d99d14813fc3f3b68f3c2c4962d5b2cda7200a060526691fad2e272874ce7d01a79d849cb364638a28a2acf69a6e1f32d909ec0",
      "networkId": 0,
      "chainId": 0
    }
  ]
}