{
  "hash": "0xaf011fe98d212ced8aac654ec06e462a530e260bd9068a89c7e9f52b4bf33c12",
  "parentHash": "0xd19218c9b484267cdc28b00b2373e1ac301ff8cbbc0c835fcc1b7f30273bd2f0",
  "number": 107600,
  "timestamp": 1439925434,
  "nonce": "0xe8f1044a381b0077",
  "difficulty": 4379205968662,
  "gasLimit": {
    "_hex": "0x2fefd8"
  },
  "gasUsed": {
    "_hex": "0x546c"
  },
  "miner": "0xe6A7a1d47ff21B6321162AEA7C6CB457D5476Bca",
  "extraData": "0x476574682f76312e302e312d38326566323666362f6c696e75782f676f312e34",
  "transactions": [
    {
      "hash": "0xb0b9c9b3e5af1d3511ff526a5886b7af6364f43df2764e736ce9bb9dece99dc2",
      "blockHash": "0xaf011fe98d212ced8aac654ec06e462a530e260bd9068a89c7e9f52b4bf33c12",
      "blockNumber": 107600,
      "transactionIndex": 0,
      "confirmations": null,
      "from": "0xC21fa6643A1F14C02996aD7144b75926E87ECb4B",
      "gasPrice": {
        "_hex": "0xdca880db7"
      },
      "gasLimit": {
        "_hex": "0x55f0"
      },
      "to": "0x2910543Af39abA0Cd09dBb2D50200b3E800A63D2",
      "value": {
        "_hex": "0xd928dd17e550000"
      },
      "nonce": 9,
      "data": "0x454e43415255575738",
      "r": "0x4248ce8f56b0f4d4706264efcc7a8d56d8259ea34f2c6e95f8875894939780a7",
      "s": "0x695f22893b1341407f2d52ed369aee30cb3bb9fcd4f1bb21f6384998e09fe4c6",
      "v": 27,
      "creates": null,
      "raw": "0xf87509850dca880db78255f0942910543af39aba0cd09dbb2d50200b3e800a63d2880d928dd17e55000089454e434152555757381ba04248ce8f56b0f4d4706264efcc7a8d56d8259ea34f2c6e95f8875894939780a7a0695f22893b1341407f2d52ed369aee30cb3bb9fcd4f1bb21f6384998e09fe4c6",
      "networkId": 0,
      "chainId": 0
    }
  ]
}