{
  "hash": "0xef97db03c9d3a5774effc051f54b462970131b987159386244c7cad5bb5211bf",
  "parentHash": "0x1f696817e6160a3ae16f0b3ad4567681b10e1685d7c065b900b4b075e95438cd",
  "number": 120809,
  "timestamp": 1440166166,
  "nonce": "0xa1219da5e4431b1f",
  "difficulty": 4456375452546,
  "gasLimit": {
    "_hex": "0x2fefd8"
  },
  "gasUsed": {
    "_hex": "0xa410"
  },
  "miner": "0xe6A7a1d47ff21B6321162AEA7C6CB457D5476Bca",
  "extraData": "0xd783010002844765746887676f312e342e32856c696e7578",
  "transactions": [
    {
      "hash": "0x3db695cb541f9a109628f80e4ee7251435d4f5c2b8f681162026c9a96358cb5c",
      "blockHash": "0xef97db03c9d3a5774effc051f54b462970131b987159386244c7cad5bb5211bf",
      "blockNumber": 120809,
      "transactionIndex": 0,
      "confirmations": null,
      "from": "0x4D67f4F0Db45b3B5a3424B39ed8d972F710381D5",
      "gasPrice": {
        "_hex": "0xba43b7400"
      },
      "gasLimit": {
        "_hex": "0x5208"
      },
      "to": "0x32Be343B94f860124dC4fEe278FDCBD38C102D88",
      "value": {
        "_hex": "0x2f9e040286bee6000"
      },
      "nonce": 61,
      "data": "0x",
      "r": "0x70f1101ab9d023f018984eed198163033ae773217f1133556db1fae9dde2b03f",
      "s": "0x6d2f71e89f68dd4fa5223265e026d696c7be95d3ae6f2c0398bffc1a2500b01f",
      "v": 28,
      "creates": null,
      "raw": "0xf86d3d850ba43b74008252089432be343b94f860124dc4fee278fdcbd38c102d888902f9e040286bee6000801ca070f1101ab9d023f018984eed198163033ae773217f1133556db1fae9dde2b03fa06d2f71e89f68dd4fa5223265e026d696c7be95d3ae6f2c0398bffc1a2500b01f",
      "networkId": 0,
      "chainId": 0
    },
    {
      "hash": "0x8d771255c9d62dd88a2f1e0b73154ad48d3460a1170c2a4ed161cd7beae2bb59",
      "blockHash": "0xef97db03c9d3a5774effc051f54b462970131b987159386244c7cad5bb5211bf",
      "blockNumber": 120809,
      "transactionIndex": 1,
      "confirmations": null,
      "from": "0x0A38f5Ba343D4eA8641F955ecf98e1c43dF1B5a3",
      "gasPrice": {
        "_hex": "0xba43b7400"
      },
      "gasLimit": {
        "_hex": "0x5208"
      },
      "to": "0x32Be343B94f860124dC4fEe278FDCBD38C102D88",
      "value": {
        "_hex": "0xddcfbbb7a606000"
      },
      "nonce": 10,
      "data": "0x",
      "r": "0x6a5f51e9854df04c2ab7f55caeb3c746118d1a2bc97a160fea0fa74095915558",
      "s": "0x79d7cf7cd03c0ca368e440f2b23b2173c3f81c64ace2181917099054101c1987",
      "v": 28,
      "creates": null,
      "raw": "0xf86c0a850ba43b74008252089432be343b94f860124dc4fee278fdcbd38c102d88880ddcfbbb7a606000801ca06a5f51e9854df04c2ab7f55caeb3c746118d1a2bc97a160fea0fa74095915558a079d7cf7cd03c0ca368e440f2b23b2173c3f81c64ace2181917099054101c1987",
      "networkId": 0,
      "chainId": 0
    }
  ]
}