{
  "hash": "0x7432bca88700aada8583092f7f3b6ee6c03707fe8fdea0e5fd8c1091e37684f2",
  "parentHash": "0x371192bf8646a830302a6379b782b200087f984d82243c5242f5c792fe6e9eb7",
  "number": 48172,
  "timestamp": 1438952860,
  "nonce": "0x2c1830d481c0b673",
  "difficulty": 1458642768550,
  "gasLimit": {
    "_hex": "0x13399"
  },
  "gasUsed": {
    "_hex": "0xf87c"
  },
  "miner": "0xf927a40C8B7F6E07c5af7FA2155B4864a4112B13",
  "extraData": "0x476574682f76312e302e312f6c696e75782f676f312e342e32",
  "transactions": [
    {
      "hash": "0xd3ba2d38d4f9d81494e3365354f1609314b6439f93cbef8bd9102c517b53c392",
      "blockHash": "0x7432bca88700aada8583092f7f3b6ee6c03707fe8fdea0e5fd8c1091e37684f2",
      "blockNumber": 48172,
      "transactionIndex": 0,
      "confirmations": null,
      "from": "0x24086efcaD85969b9266376FDAE4c4B5c007b4Bd",
      "gasPrice": {
        "_hex": "0xed2c583fc"
      },
      "gasLimit": {
        "_hex": "0x5208"
      },
      "to": "0xac2B6F3cA32EbEFB4eEBaE254D8677097E4c2326",
      "value": {
        "_hex": "0xde0b6b3a7640000"
      },
      "nonce": 0,
      "data": "0x",
      "r": "0x76ac724d1642cd8374b25e8cd95e5811f4d7f5b8a4829d0d1a59e0a5f3dbaab7",
      "s": "0x552dea9f06d97b5e41d1a40d58b13a3d1373d9990ed4cb1846a266ff96f1b5f0",
      "v": 28,
      "creates": null,
      "raw": "0xf86c80850ed2c583fc82520894ac2b6f3ca32ebefb4eebae254d8677097e4c2326880de0b6b3a7640000801ca076ac724d1642cd8374b25e8cd95e5811f4d7f5b8a4829d0d1a59e0a5f3dbaab7a0552dea9f06d97b5e41d1a40d58b13a3d1373d9990ed4cb1846a266ff96f1b5f0",
      "networkId": 0,
      "chainId": 0
    },
    {
      "hash": "0x7a54025726704a0498ba47946296c199d11917ba47dbf7804d7a1c7e6029bfbf",
      "blockHash": "0x7432bca88700aada8583092f7f3b6ee6c03707fe8fdea0e5fd8c1091e37684f2",
      "blockNumber": 48172,
      "transactionIndex": 1,
      "confirmations": null,
      "from": "0xb6047CDF932DB3E4045F4976122341537eD5961E",
      "gasPrice": {
        "_hex": "0xec5a72859"
      },
      "gasLimit": {
        "_hex": "0x61a8"
      },
      "to": null,
      "value": {
        "_hex": "0x2386f26fc10000"
      },
      "nonce": 1,
      "data": "0x",
      "r": "0xe836e597bf1272a684526864cf73c9afe258f1ca1b29773f8edc00086ed036bc",
      "s": "0x150fa49528eff24dfd0cac60e3ea33764506e1c9977d9bb4ccd5b8432853c100",
      "v": 28,
      "creates": "0x9a6bfff95d8AE43425d3960585c230c89e9060E4",
      "raw": "0xf85701850ec5a728598261a880872386f26fc10000801ca0e836e597bf1272a684526864cf73c9afe258f1ca1b29773f8edc00086ed036bca0150fa49528eff24dfd0cac60e3ea33764506e1c9977d9bb4ccd5b8432853c100",
      "networkId": 0,
      "chainId": 0
    },
    {
      "hash": "0x4475c89b51cd090b354621c767bb01ad0bc81ac85366680a4a91952a50360bdf",
      "blockHash": "0x7432bca88700aada8583092f7f3b6ee6c03707fe8fdea0e5fd8c1091e37684f2",
      "blockNumber": 48172,
      "transactionIndex": 2,
      "confirmations": null,
      "from": "0x29C0024a99b44d481694cB5D98907a1343D390fD",
      "gasPrice": {
        "_hex": "0xe25233632"
      },
      "gasLimit": {
        "_hex": "0x61a8"
      },
      "to": "0x2910543Af39abA0Cd09dBb2D50200b3E800A63D2",
      "value": {
        "_hex": "0x4563918244f40000"
      },
      "nonce": 1,
      "data": "0x454e4a443447343952",
      "r": "0xfc5c1d9590611ad89a47f8a5a5687d90267dba5ac5abab70f354e431ad7000d7",
      "s": "0x522a51c7bb1c975e4241bb0011d3d4e5afde452aad28b8d81e41186a5702bffe",
      "v": 28,
      "creates": null,
      "raw": "0xf87501850e252336328261a8942910543af39aba0cd09dbb2d50200b3e800a63d2884563918244f4000089454e4a4434473439521ca0fc5c1d9590611ad89a47f8a5a5687d90267dba5ac5abab70f354e431ad7000d7a0522a51c7bb1c975e4241bb0011d3d4e5afde452aad28b8d81e41186a5702bffe",
      "networkId": 0,
      "chainId": 0
    }
  ]
}