{
  "hash": "0xa9ae3525c600faa30f173b0c1550d9329c7a9d739f50e3484315b57880ebc563",
  "parentHash": "0x1e1d62226f52746cabb0ca5dcabafedf797ad7c93bb6e3c178eaefa9b9446e09",
  "number": 79331,
  "timestamp": 1439467738,
  "nonce": "0x68004f7542ea8977",
  "difficulty": 2350784305054,
  "gasLimit": {
    "_hex": "0x2fefd8"
  },
  "gasUsed": {
    "_hex": "0xf618"
  },
  "miner": "0xe6A7a1d47ff21B6321162AEA7C6CB457D5476Bca",
  "extraData": "0x476574682f76312e302e312d38326566323666362f6c696e75782f676f312e34",
  "transactions": [
    {
      "hash": "0x1a34517d249537f3ef8c422a18afdb86270c7662afde016056307b818d5d2acb",
      "blockHash": "0xa9ae3525c600faa30f173b0c1550d9329c7a9d739f50e3484315b57880ebc563",
      "blockNumber": 79331,
      "transactionIndex": 0,
      "confirmations": null,
      "from": "0xF5EeDc192aB70b08D8354384aD94efD095849E00",
      "gasPrice": {
        "_hex": "0xdd5b2960a"
      },
      "gasLimit": {
        "_hex": "0x5208"
      },
      "to": "0x32Be343B94f860124dC4fEe278FDCBD38C102D88",
      "value": {
        "_hex": "0x56bc2ef4aa7380000"
      },
      "nonce": 31,
      "data": "0x",
      "r": "0x4c3529ba2f88f8cbdd8740a7ba1ed60d0ad2cdc79b57afff653333e2d2ebb03e",
      "s": "0x28472fedab64f2da1eed089a59aa82c6e5eacd9e961c87ca1f44426c0ab6dd6f",
      "v": 27,
      "creates": null,
      "raw": "0xf86d1f850dd5b2960a8252089432be343b94f860124dc4fee278fdcbd38c102d8889056bc2ef4aa7380000801ba04c3529ba2f88f8cbdd8740a7ba1ed60d0ad2cdc79b57afff653333e2d2ebb03ea028472fedab64f2da1eed089a59aa82c6e5eacd9e961c87ca1f44426c0ab6dd6f",
      "networkId": 0,
      "chainId": 0
    },
    {
      "hash": "0x6a65cdd24f726bd0471416587bd7b59c58be0e13f6acf7605430a85284b24ff8",
      "blockHash": "0xa9ae3525c600faa30f173b0c1550d9329c7a9d739f50e3484315b57880ebc563",
      "blockNumber": 79331,
      "transactionIndex": 1,
      "confirmations": null,
      "from": "0x910a4aADabb3A7B3F7879118332E13Da66b68D77",
      "gasPrice": {
        "_hex": "0xdd5b2960a"
      },
      "gasLimit": {
        "_hex": "0x5208"
      },
      "to": "0x32Be343B94f860124dC4fEe278FDCBD38C102D88",
      "value": {
        "_hex": "0x21d37667bc4640000"
      },
      "nonce": 13,
      "data": "0x",
      "r": "0xbe1f7e57a10ae493807ff2c94c9ba560a474967b4b80a1596f3b9dc4e5320cbc",
      "s": "0x7a2759ad1b579604c098886f591bd50be36c840357072e432ef82f0812b4719e",
      "v": 27,
      "creates": null,
      "raw": "0xf86d0d850dd5b2960a8252089432be343b94f860124dc4fee278fdcbd38c102d8889021d37667bc4640000801ba0be1f7e57a10ae493807ff2c94c9ba560a474967b4b80a1596f3b9dc4e5320cbca07a2759ad1b579604c098886f591bd50be36c840357072e432ef82f0812b4719e",
      "networkId": 0,
      "chainId": 0
    },
    {
      "hash": "0x0867bf0b3744a4d19e7685537123862f9606b1f9d3407d46865a1c4915280e1b",
      "blockHash": "0xa9ae3525c600faa30f173b0c1550d9329c7a9d739f50e3484315b57880ebc563",
      "blockNumber": 79331,
      "transactionIndex": 2,
      "confirmations": null,
      "from": "0xb68c4428193f7F71bA7351366022f0c3E81ca552",
      "gasPrice": {
        "_hex": "0xdd5b2960a"
      },
      "gasLimit": {
        "_hex": "0x5208"
      },
      "to": "0x32Be343B94f860124dC4fEe278FDCBD38C102D88",
      "value": {
        "_hex": "0x796df7b5cced80000"
      },
      "nonce": 1,
      "data": "0x",
      "r": "0x97e9d3e5c2a9a623922a5b0bea3eaa9d0b30012504172a6e5c91e7068f089263",
      "s": "0x50a178ce3b20af4b197ef5679b6ac680dd632b225da886242b04a9233b136d3e",
      "v": 28,
      "creates": null,
      "raw": "0xf86d01850dd5b2960a8252089432be343b94f860124dc4fee278fdcbd38c102d88890796df7b5cced80000801ca097e9d3e5c2a9a623922a5b0bea3eaa9d0b30012504172a6e5c91e7068f089263a050a178ce3b20af4b197ef5679b6ac680dd632b225da886242b04a9233b136d3e",
      "networkId": 0,
      "chainId": 0
    }
  ]
}