{
  "hash": "0x98ed5bae5b86added5af36dba0f5103caf4d472b97a786c9fb71dba46311d871",
  "parentHash": "0x24b05fb4327d398ca483f423a746d56ebb385c5ea4580a1c29392fcabbaa4511",
  "number": 112726,
  "timestamp": 1440012073,
  "nonce": "0x0b4454acac57e393",
  "difficulty": 4436777086521,
  "gasLimit": {
    "_hex": "0x2fefd8"
  },
  "gasUsed": {
    "_hex": "0xf618"
  },
  "miner": "0xbb7B8287f3F0a933474a79eAe42CBCa977791171",
  "extraData": "0x476574682f4c5649562f76312e302e312f6c696e75782f676f312e342e32",
  "transactions": [
    {
      "hash": "0x2f67c4cb5192ff46eb5ad46e23794ccc3d55245cefabac69d4dabd102d790212",
      "blockHash": "0x98ed5bae5b86added5af36dba0f5103caf4d472b97a786c9fb71dba46311d871",
      "blockNumber": 112726,
      "transactionIndex": 0,
      "confirmations": null,
      "from": "0x0912001e29BbaF75C23069A22D9B9602BE86FEB7",
      "gasPrice": {
        "_hex": "0xcb4236075"
      },
      "gasLimit": {
        "_hex": "0x5208"
      },
      "to": "0x32Be343B94f860124dC4fEe278FDCBD38C102D88",
      "value": {
        "_hex": "0x61e9c27584f1e4000"
      },
      "nonce": 8,
      "data": "0x",
      "r": "0x46a613c28dae6c79cec9c6da6e87bd9e9de13e5da8ab0723cb27c7336ff68e54",
      "s": "0x415c5ab5b0b3a339745d35a205117184459bcba415c96ace793b02e02240b11c",
      "v": 28,
      "creates": null,
      "raw": "0xf86d08850cb42360758252089432be343b94f860124dc4fee278fdcbd38c102d8889061e9c27584f1e4000801ca046a613c28dae6c79cec9c6da6e87bd9e9de13e5da8ab0723cb27c7336ff68e54a0415c5ab5b0b3a339745d35a205117184459bcba415c96ace793b02e02240b11c",
      "networkId": 0,
      "chainId": 0
    },
    {
      "hash": "0xf05c969abfd55b1521931858643a40e0222ed9fb5adb362451acfa9af9c0b1bc",
      "blockHash": "0x98ed5bae5b86added5af36dba0f5103caf4d472b97a786c9fb71dba46311d871",
      "blockNumber": 112726,
      "transactionIndex": 1,
      "confirmations": null,
      "from": "0xF7e66D2622220807d8696064E94ca24b1dC6e7Da",
      "gasPrice": {
        "_hex": "0xcb4236075"
      },
      "gasLimit": {
        "_hex": "0x5208"
      },
      "to": "0x32Be343B94f860124dC4fEe278FDCBD38C102D88",
      "value": {
        "_hex": "0x18e6c1e3ee17de000"
      },
      "nonce": 17,
      "data": "0x",
      "r": "0xff4e440c34c0841e133a295807710c0f53075aa8af8e0b114907bb8d1663200f",
      "s": "0x0d623b66114dcb85b78f72c9da3d3f3e3748bbb685c6782b78d016a8394aac5c",
      "v": 28,
      "creates": null,
      "raw": "0xf86d11850cb42360758252089432be343b94f860124dc4fee278fdcbd38c102d8889018e6c1e3ee17de000801ca0ff4e440c34c0841e133a295807710c0f53075aa8af8e0b114907bb8d1663200fa00d623b66114dcb85b78f72c9da3d3f3e3748bbb685c6782b78d016a8394aac5c",
      "networkId": 0,
      "chainId": 0
    },
    {
      "hash": "0x64a311527671c880f9c1361591206545c722666bf35317f373ba13fb2e2f1732",
      "blockHash": "0x98ed5bae5b86added5af36dba0f5103caf4d472b97a786c9fb71dba46311d871",
      "blockNumber": 112726,
      "transactionIndex": 2,
      "confirmations": null,
      "from": "0xd223eD5b348a82910987CbBc7875a7AE62E1Ba53",
      "gasPrice": {
        "_hex": "0xcb4236075"
      },
      "gasLimit": {
        "_hex": "0x5208"
      },
      "to": "0x32Be343B94f860124dC4fEe278FDCBD38C102D88",
      "value": {
        "_hex": "0x15cb374d4053e800"
      },
      "nonce": 10,
      "data": "0x",
      "r": "0xe2c582f891684014841b129b0b5798d5d952995e32220e23514d757cd5bfa887",
      "s": "0x0b6cc32c9f3a638935aa3a2eda1d1cfa3ce9ca5a1b5fea256c643008c9017cb8",
      "v": 28,
      "creates": null,
      "raw": "0xf86c0a850cb42360758252089432be343b94f860124dc4fee278fdcbd38c102d888815cb374d4053e800801ca0e2c582f891684014841b129b0b5798d5d952995e32220e23514d757cd5bfa887a00b6cc32c9f3a638935aa3a2eda1d1cfa3ce9ca5a1b5fea256c643008c9017cb8",
      "networkId": 0,
      "chainId": 0
    }
  ]
}