{
  "hash": "0x186551139aa3ac5918543ccab0319281fc9e8fae9977b76182be7156d6b79d86",
  "parentHash": "0x73947ea7fd98184839a4975b82a082cc6205f356d1186d521f8f1230e7e3943d",
  "number": 50871,
  "timestamp": 1438995914,
  "nonce": "0x80efd4d8acb5794a",
  "difficulty": 1545411348978,
  "gasLimit": {
    "_hex": "0x7ecf8"
  },
  "gasUsed": {
    "_hex": "0x58841"
  },
  "miner": "0x157c6f2431eB1a95797EE86F7d17b3c0FD47A247",
  "extraData": "0x476574682f76312e302e312f77696e646f77732f676f312e342e32",
  "transactions": [
    {
      "hash": "0x6df0b4a0d15ae3b925b9819646a0cff4d1bc0a53b294c0d84d884865302d13a5",
      "blockHash": "0x186551139aa3ac5918543ccab0319281fc9e8fae9977b76182be7156d6b79d86",
      "blockNumber": 50871,
      "transactionIndex": 0,
      "confirmations": null,
      "from": "0xf88a65846C19D8fc76fFf545fEAa7bbc7114F667",
      "gasPrice": {
        "_hex": "0xd7576f0a1"
      },
      "gasLimit": {
        "_hex": "0x7a120"
      },
      "to": "0x109C4f2CCc82C4d77Bde15F306707320294Aea3F",
      "value": {
        "_hex": "0xde0b6b3a7640000"
      },
      "nonce": 2,
      "data": "0x",
      "r": "0x714d98131e248afdfa148287ff24607e3bc07825789be58e72b7158bbd82f343",
      "s": "0x5117229b0c7bc60735065c2b073a2ff5160c3c1952f9be68a4f6cf190e9c25dd",
      "v": 27,
      "creates": null,
      "raw": "0xf86d02850d7576f0a18307a12094109c4f2ccc82c4d77bde15f306707320294aea3f880de0b6b3a7640000801ba0714d98131e248afdfa148287ff24607e3bc07825789be58e72b7158bbd82f343a05117229b0c7bc60735065c2b073a2ff5160c3c1952f9be68a4f6cf190e9c25dd",
      "networkId": 0,
      "chainId": 0
    }
  ]
}