{
  "hash": "0x9ee5cf5702305999f132131906e97da10e1986c6c7a0c8086bca6cd0186da296",
  "parentHash": "0x83fd5d36cd4744722bef4ada32964c7548b517aff3b95f485d31b50ebcc44335",
  "number": 65557,
  "timestamp": 1439239091,
  "nonce": "0xe02bd584b4580ab1",
  "difficulty": 1946360669938,
  "gasLimit": {
    "_hex": "0x2fefd5"
  },
  "gasUsed": {
    "_hex": "0x5208"
  },
  "miner": "0x36F60f6fAe70855D6a506c3cbDfa8B1Cc4d77c35",
  "extraData": "0x",
  "transactions": [
    {
      "hash": "0xc228596d869a4a99dd7d32abae23304049da1a2da0fd217cc349ee1cfb708680",
      "blockHash": "0x9ee5cf5702305999f132131906e97da10e1986c6c7a0c8086bca6cd0186da296",
      "blockNumber": 65557,
      "transactionIndex": 0,
      "confirmations": null,
      "from": "0xD397044FD43217C1E37c5c0Fb909608f5466b36c",
      "gasPrice": {
        "_hex": "0xd23ee12e2"
      },
      "gasLimit": {
        "_hex": "0x15f90"
      },
      "to": "0x29396fD3264c8F2B009c8d7EAdEc84741f32E8f2",
      "value": {
        "_hex": "0xac9ae05a71ebc0000"
      },
      "nonce": 1,
      "data": "0x",
      "r": "0x6c0f482d33fc5379353c58099e8fd84edb777d60eecd19d8adaae255558aaec0",
      "s": "0x37eff7b26765eb9cc23a6aa082ab46a76ea418241a5cbeddbbfa6a1f01b08337",
      "v": 27,
      "creates": null,
      "raw": "0xf86e01850d23ee12e283015f909429396fd3264c8f2b009c8d7eadec84741f32e8f2890ac9ae05a71ebc0000801ba06c0f482d33fc5379353c58099e8fd84edb777d60eecd19d8adaae255558aaec0a037eff7b26765eb9cc23a6aa082ab46a76ea418241a5cbeddbbfa6a1f01b08337",
      "networkId": 0,
      "chainId": 0
    }
  ]
}