{
  "hash": "0x12259296b40dbb5e5d40f2804ee985784215af4db57a2ed36dcdfedf6d102068",
  "parentHash": "0x837cbbf6c0c3671cc4162aac0a81cb6b115a8550a91ac7fa20fa5dbefd952dd4",
  "number": 55875,
  "timestamp": 1439078473,
  "nonce": "0x1c9e907f74c737a8",
  "difficulty": 1609155046014,
  "gasLimit": {
    "_hex": "0x2fefd8"
  },
  "gasUsed": {
    "_hex": "0x57288"
  },
  "miner": "0x9746c7e1ef2bd21FF3997fa467593a89cb852BD0",
  "extraData": "0x476574682f76312e302e312f77696e646f77732f676f312e342e32",
  "transactions": [
    {
      "hash": "0x5c3d64185229938c7143a52f85a455146c028477dcdc1562239477b6c69c1439",
      "blockHash": "0x12259296b40dbb5e5d40f2804ee985784215af4db57a2ed36dcdfedf6d102068",
      "blockNumber": 55875,
      "transactionIndex": 0,
      "confirmations": null,
      "from": "0xe6A7a1d47ff21B6321162AEA7C6CB457D5476Bca",
      "gasPrice": {
        "_hex": "0xcab9e78a8"
      },
      "gasLimit": {
        "_hex": "0x55f0"
      },
      "to": "0x523e93ed2d488b01E5a425F3A8d1cFcfEbD8B064",
      "value": {
        "_hex": "0x2c43a4d3e7517618"
      },
      "nonce": 355,
      "data": "0x",
      "r": "0x9cc6e87476b1ec082ef5d32946eff6ec78ce1c2e31d0a1754505eb9d489a4bde",
      "s": "0x0b2c306fdedd0147d05c4bfa046215f9ff355d856f2d7d790be86fcdc43715ba",
      "v": 27,
      "creates": null,
      "raw": "0xf86e820163850cab9e78a88255f094523e93ed2d488b01e5a425f3a8d1cfcfebd8b064882c43a4d3e7517618801ba09cc6e87476b1ec082ef5d32946eff6ec78ce1c2e31d0a1754505eb9d489a4bdea00b2c306fdedd0147d05c4bfa046215f9ff355d856f2d7d790be86fcdc43715ba",
      "networkId": 0,
      "chainId": 0
    },
    {
      "hash": "0xb3b04d36f18c8281a1372e9355642c0a569ef8435300502f838de70d79e9e7b7",
      "blockHash": "0x12259296b40dbb5e5d40f2804ee985784215af4db57a2ed36dcdfedf6d102068",
      "blockNumber": 55875,
      "transactionIndex": 1,
      "confirmations": null,
      "from": "0xe6A7a1d47ff21B6321162AEA7C6CB457D5476Bca",
      "gasPrice": {
        "_hex": "0xdebc3a45c"
      },
      "gasLimit": {
        "_hex": "0x55f0"
      },
      "to": "0xF178805EA39C903a49e6A465DBD40f22576aE24a",
      "value": {
        "_hex": "0x2d34e8e6bcebbfc0"
      },
      "nonce": 356,
      "data": "0x",
      "r": "0x3868b13cb4aeb4c842159c3d28c5fc9e2b4a24b37e921cb6b5f6d812f5f37a06",
      "s": "0x75a408ea49c7a85e0bfc0bbeb9e6585b766b24864323b02a52ac7c8663dc711f",
      "v": 28,
      "creates": null,
      "raw": "0xf86e820164850debc3a45c8255f094f178805ea39c903a49e6a465dbd40f22576ae24a882d34e8e6bcebbfc0801ca03868b13cb4aeb4c842159c3d28c5fc9e2b4a24b37e921cb6b5f6d812f5f37a06a075a408ea49c7a85e0bfc0bbeb9e6585b766b24864323b02a52ac7c8663dc711f",
      "networkId": 0,
      "chainId": 0
    },
    {
      "hash": "0x49cbd3e94ad2b5a3412a4d96602ffea1d187ff3c02c77ebda7605ee70654f75a",
      "blockHash": "0x12259296b40dbb5e5d40f2804ee985784215af4db57a2ed36dcdfedf6d102068",
      "blockNumber": 55875,
      "transactionIndex": 2,
      "confirmations": null,
      "from": "0xe6A7a1d47ff21B6321162AEA7C6CB457D5476Bca",
      "gasPrice": {
        "_hex": "0xdebc3a45c"
      },
      "gasLimit": {
        "_hex": "0x55f0"
      },
      "to": "0x64bE1C1A0198370F53B2081e15478BE3135D6beF",
      "value": {
        "_hex": "0x2d6c885f7c683424"
      },
      "nonce": 357,
      "data": "0x",
      "r": "0x5f90bcd769f20bbab2120f46c42c630c2d3ca29fdfbaa62e476089f8f7758639",
      "s": "0x733f89040ef6e82404770c7c566900218adac36915a978d2833e2b354d7164c9",
      "v": 28,
      "creates": null,
      "raw": "0xf86e820165850debc3a45c8255f09464be1c1a0198370f53b2081e15478be3135d6bef882d6c885f7c683424801ca05f90bcd769f20bbab2120f46c42c630c2d3ca29fdfbaa62e476089f8f7758639a0733f89040ef6e82404770c7c566900218adac36915a978d2833e2b354d7164c9",
      "networkId": 0,
      "chainId": 0
    },
    {
      "hash": "0xeaf894dea9a5df8228e80c2e47e873e04bfdef5beff60bf11334dfba224e23ff",
      "blockHash": "0x12259296b40dbb5e5d40f2804ee985784215af4db57a2ed36dcdfedf6d102068",
      "blockNumber": 55875,
      "transactionIndex": 3,
      "confirmations": null,
      "from": "0xe6A7a1d47ff21B6321162AEA7C6CB457D5476Bca",
      "gasPrice": {
        "_hex": "0xdebc3a45c"
      },
      "gasLimit": {
        "_hex": "0x55f0"
      },
      "to": "0x9B80BD38c4afE0942F8029298A11fACe85ce4cAF",
      "value": {
        "_hex": "0x2d793e83586893e8"
      },
      "nonce": 358,
      "data": "0x",
      "r": "0xd378aaace12a93a832bb50d4bbd0b59183f1518611529fca97f133ba42b14b6d",
      "s": "0x26ecaefb4e38c80bc92a2a72dd4a7edc7de124fcd22f394cc769a076f9c9139c",
      "v": 27,
      "creates": null,
      "raw": "0xf86e820166850debc3a45c8255f0949b80bd38c4afe0942f8029298a11face85ce4caf882d793e83586893e8801ba0d378aaace12a93a832bb50d4bbd0b59183f1518611529fca97f133ba42b14b6da026ecaefb4e38c80bc92a2a72dd4a7edc7de124fcd22f394cc769a076f9c9139c",
      "networkId": 0,
      "chainId": 0
    },
    {
      "hash": "0x7a5ff5f188bc5232b022460639b6dc25df1d4d4db9ffb976cc762728da93b514",
      "blockHash": "0x12259296b40dbb5e5d40f2804ee985784215af4db57a2ed36dcdfedf6d102068",
      "blockNumber": 55875,
      "transactionIndex": 4,
      "confirmations": null,
      "from": "0xe6A7a1d47ff21B6321162AEA7C6CB457D5476Bca",
      "gasPrice": {
        "_hex": "0xdebc3a45c"
      },
      "gasLimit": {
        "_hex": "0x55f0"
      },
      "to": "0xD9DE820A23C38bCfE281630df2c89511CB833D03",
      "value": {
        "_hex": "0x2e2e6f5034f521fc"
      },
      "nonce": 359,
      "data": "0x",
      "r": "0x67d8bf055661df09d4e5fa91766903b54febca95e0d7b7451e3cf3bc9c0e22b3",
      "s": "0x7d9fab7e9759892cc972621d7a5541edb3a6f3369bf3812a94a557721e0f8f1e",
      "v": 28,
      "creates": null,
      "raw": "0xf86e820167850debc3a45c8255f094d9de820a23c38bcfe281630df2c89511cb833d03882e2e6f5034f521fc801ca067d8bf055661df09d4e5fa91766903b54febca95e0d7b7451e3cf3bc9c0e22b3a07d9fab7e9759892cc972621d7a5541edb3a6f3369bf3812a94a557721e0f8f1e",
      "networkId": 0,
      "chainId": 0
    },
    {
      "hash": "0x8a2514a2756aad0a238bd3d7e0c5bd1206c6a3db7603bedbe5e500b085e9a43b",
      "blockHash": "0x12259296b40dbb5e5d40f2804ee985784215af4db57a2ed36dcdfedf6d102068",
      "blockNumber": 55875,
      "transactionIndex": 5,
      "confirmations": null,
      "from": "0xe6A7a1d47ff21B6321162AEA7C6CB457D5476Bca",
      "gasPrice": {
        "_hex": "0xdebc3a45c"
      },
      "gasLimit": {
        "_hex": "0x55f0"
      },
      "to": "0xCadcea36EC3feB740167E4370777fab1549F8759",
      "value": {
        "_hex": "0x2e90ec2c8d4fb428"
      },
      "nonce": 360,
      "data": "0x",
      "r": "0x182709d4fbe0c36a8ec8047a2637b0425b70270986c7c4d2bcc8a7b2bf4d90c0",
      "s": "0x46963b8facd40bcc10a5929b3941ced0c09f64fb8a1e4a5780dd4b02ca917b25",
      "v": 28,
      "creates": null,
      "raw": "0xf86e820168850debc3a45c8255f094cadcea36ec3feb740167e4370777fab1549f8759882e90ec2c8d4fb428801ca0182709d4fbe0c36a8ec8047a2637b0425b70270986c7c4d2bcc8a7b2bf4d90c0a046963b8facd40bcc10a5929b3941ced0c09f64fb8a1e4a5780dd4b02ca917b25",
      "networkId": 0,
      "chainId": 0
    },
    {
      "hash": "0x523c08553d0a0f927f11797eb366973c6994fdf1152bffdd62c71402f6e8255a",
      "blockHash": "0x12259296b40dbb5e5d40f2804ee985784215af4db57a2ed36dcdfedf6d102068",
      "blockNumber": 55875,
      "transactionIndex": 6,
      "confirmations": null,
      "from": "0xe6A7a1d47ff21B6321162AEA7C6CB457D5476Bca",
      "gasPrice": {
        "_hex": "0xdebc3a45c"
      },
      "gasLimit": {
        "_hex": "0x55f0"
      },
      "to": "0x853Bff007d269E0526E871360d79d69D602770dc",
      "value": {
        "_hex": "0x2e92f771045c2e60"
      },
      "nonce": 361,
      "data": "0x",
      "r": "0x65db4930d2a880456870663e3ff6c90e19ac90adb95bfd66cc474bbec93f6ea7",
      "s": "0x16e8dfbd101c8b25b26561cf0e857efe1fed137950519ae2413d3381aae18950",
      "v": 27,
      "creates": null,
      "raw": "0xf86e820169850debc3a45c8255f094853bff007d269e0526e871360d79d69d602770dc882e92f771045c2e60801ba065db4930d2a880456870663e3ff6c90e19ac90adb95bfd66cc474bbec93f6ea7a016e8dfbd101c8b25b26561cf0e857efe1fed137950519ae2413d3381aae18950",
      "networkId": 0,
      "chainId": 0
    },
    {
      "hash": "0xd3ad117c2bb1f08fd576b222ed8ebcac7a197c055eee1c20af28349ee43307b8",
      "blockHash": "0x12259296b40dbb5e5d40f2804ee985784215af4db57a2ed36dcdfedf6d102068",
      "blockNumber": 55875,
      "transactionIndex": 7,
      "confirmations": null,
      "from": "0xe6A7a1d47ff21B6321162AEA7C6CB457D5476Bca",
      "gasPrice": {
        "_hex": "0xdebc3a45c"
      },
      "gasLimit": {
        "_hex": "0x55f0"
      },
      "to": "0xf64EE50154E0D74461966B4bB90139C010BCA68B",
      "value": {
        "_hex": "0x2f29c087bdccbb78"
      },
      "nonce": 362,
      "data": "0x",
      "r": "0xdd3dd53c46a9273a28d65be0dc0e3c549056bfd03fc432c3194f09b56ed4d01f",
      "s": "0x73bdb5767b0bde52e325e65474b1954b9d91f6dd9d31537862faa54794414000",
      "v": 27,
      "creates": null,
      "raw": "0xf86e82016a850debc3a45c8255f094f64ee50154e0d74461966b4bb90139c010bca68b882f29c087bdccbb78801ba0dd3dd53c46a9273a28d65be0dc0e3c549056bfd03fc432c3194f09b56ed4d01fa073bdb5767b0bde52e325e65474b1954b9d91f6dd9d31537862faa54794414000",
      "networkId": 0,
      "chainId": 0
    },
    {
      "hash": "0x6ef6e0735d3829db2cbf619d0c569543522a31451d777efad62b87bf6f568b0c",
      "blockHash": "0x12259296b40dbb5e5d40f2804ee985784215af4db57a2ed36dcdfedf6d102068",
      "blockNumber": 55875,
      "transactionIndex": 8,
      "confirmations": null,
      "from": "0xe6A7a1d47ff21B6321162AEA7C6CB457D5476Bca",
      "gasPrice": {
        "_hex": "0xdebc3a45c"
      },
      "gasLimit": {
        "_hex": "0x55f0"
      },
      "to": "0x34BDAF0a5ed72734a4c4c6CE6Cc8132EC81fb2a8",
      "value": {
        "_hex": "0x303392f327ea7750"
      },
      "nonce": 363,
      "data": "0x",
      "r": "0x5f7831fbdfe4b8ec4d8db53b9997c4050ca6964b05fbf2212bf46e420d6b963c",
      "s": "0x71f49904f925b4a8bc609bc158db8e172fe4d7e071a7e53afddd20ffcfecf8fb",
      "v": 27,
      "creates": null,
      "raw": "0xf86e82016b850debc3a45c8255f09434bdaf0a5ed72734a4c4c6ce6cc8132ec81fb2a888303392f327ea7750801ba05f7831fbdfe4b8ec4d8db53b9997c4050ca6964b05fbf2212bf46e420d6b963ca071f49904f925b4a8bc609bc158db8e172fe4d7e071a7e53afddd20ffcfecf8fb",
      "networkId": 0,
      "chainId": 0
    },
    {
      "hash": "0x81f53a0794b6be3fe6801bb42e3b20934ea8808a22942fc9dd75dc1f5c0b327e",
      "blockHash": "0x12259296b40dbb5e5d40f2804ee985784215af4db57a2ed36dcdfedf6d102068",
      "blockNumber": 55875,
      "transactionIndex": 9,
      "confirmations": null,
      "from": "0xe6A7a1d47ff21B6321162AEA7C6CB457D5476Bca",
      "gasPrice": {
        "_hex": "0xdebc3a45c"
      },
      "gasLimit": {
        "_hex": "0x55f0"
      },
      "to": "0xbB9Fd5277Ee852D8a7D0a282420AD095067Ca065",
      "value": {
        "_hex": "0x30c268abee056b08"
      },
      "nonce": 364,
      "data": "0x",
      "r": "0x2a96ef04c58974b14f01c38181e6b4a928c7cb7e5261751140531826d58c45d0",
      "s": "0x68ab25249703068a66ab8102b1268351ae98bea5b0c37421d9c6c85a3dbf156d",
      "v": 28,
      "creates": null,
      "raw": "0xf86e82016c850debc3a45c8255f094bb9fd5277ee852d8a7d0a282420ad095067ca0658830c268abee056b08801ca02a96ef04c58974b14f01c38181e6b4a928c7cb7e5261751140531826d58c45d0a068ab25249703068a66ab8102b1268351ae98bea5b0c37421d9c6c85a3dbf156d",
      "networkId": 0,
      "chainId": 0
    },
    {
      "hash": "0xdc613a59452f4d911e4c315219753213f464006edf18854fbe2290d2595dea68",
      "blockHash": "0x12259296b40dbb5e5d40f2804ee985784215af4db57a2ed36dcdfedf6d102068",
      "blockNumber": 55875,
      "transactionIndex": 10,
      "confirmations": null,
      "from": "0xe6A7a1d47ff21B6321162AEA7C6CB457D5476Bca",
      "gasPrice": {
        "_hex": "0xdebc3a45c"
      },
      "gasLimit": {
        "_hex": "0x55f0"
      },
      "to": "0xaA35779Ef4dfBEd0B3D6F46F5f11cb86261B17A5",
      "value": {
        "_hex": "0x31050335b7cafc1c"
      },
      "nonce": 365,
      "data": "0x",
      "r": "0x2f8c904c37c9d3482d79e0563ccdeb0ceb045e23dad6ecc040bcb5e1040b7861",
      "s": "0x5ec00ac9146ffb44514f5cce393f49615f887513223ef5bf74262e15492f019d",
      "v": 27,
      "creates": null,
      "raw": "0xf86e82016d850debc3a45c8255f094aa35779ef4dfbed0b3d6f46f5f11cb86261b17a58831050335b7cafc1c801ba02f8c904c37c9d3482d79e0563ccdeb0ceb045e23dad6ecc040bcb5e1040b7861a05ec00ac9146ffb44514f5cce393f49615f887513223ef5bf74262e15492f019d",
      "networkId": 0,
      "chainId": 0
    },
    {
      "hash": "0xc0f63848441d9aee0c904c1088c3fdd8229fbaaa4a2d1d3eb0df8d1058ed990a",
      "blockHash": "0x12259296b40dbb5e5d40f2804ee985784215af4db57a2ed36dcdfedf6d102068",
      "blockNumber": 55875,
      "transactionIndex": 11,
      "confirmations": null,
      "from": "0xe6A7a1d47ff21B6321162AEA7C6CB457D5476Bca",
      "gasPrice": {
        "_hex": "0xdebc3a45c"
      },
      "gasLimit": {
        "_hex": "0x55f0"
      },
      "to": "0xD79aFf13Ba2Da75d46240cAC0a2467C656949823",
      "value": {
        "_hex": "0x310e35bf14df5de8"
      },
      "nonce": 366,
      "data": "0x",
      "r": "0x1b385a591290d027915180d7015df6338d9c0c19a2560d474de5d22ef3af814b",
      "s": "0x44fc09692759aadab23a39e474b497dc7d6da88f4a1873d5f799b061b756e430",
      "v": 27,
      "creates": null,
      "raw": "0xf86e82016e850debc3a45c8255f094d79aff13ba2da75d46240cac0a2467c65694982388310e35bf14df5de8801ba01b385a591290d027915180d7015df6338d9c0c19a2560d474de5d22ef3af814ba044fc09692759aadab23a39e474b497dc7d6da88f4a1873d5f799b061b756e430",
      "networkId": 0,
      "chainId": 0
    },
    {
      "hash": "0xb6ea12166aea70ce1bb0c29e697b176687227f6cccfa56593d915ddc8a784e22",
      "blockHash": "0x12259296b40dbb5e5d40f2804ee985784215af4db57a2ed36dcdfedf6d102068",
      "blockNumber": 55875,
      "transactionIndex": 12,
      "confirmations": null,
      "from": "0xe6A7a1d47ff21B6321162AEA7C6CB457D5476Bca",
      "gasPrice": {
        "_hex": "0xdebc3a45c"
      },
      "gasLimit": {
        "_hex": "0x55f0"
      },
      "to": "0x6dC8a46AB80ED97E4073b96F78554A536E2e7152",
      "value": {
        "_hex": "0x317b45b5514dc968"
      },
      "nonce": 367,
      "data": "0x",
      "r": "0xb11c91d6c13f49ddf67cee129877294f85a4dfe73d28203ff6db94b2d00e1544",
      "s": "0x067ec2d36e4b3733165ab9261b3ceaab6f0f08f06c0bba66df1440fbb08ef885",
      "v": 27,
      "creates": null,
      "raw": "0xf86e82016f850debc3a45c8255f0946dc8a46ab80ed97e4073b96f78554a536e2e715288317b45b5514dc968801ba0b11c91d6c13f49ddf67cee129877294f85a4dfe73d28203ff6db94b2d00e1544a0067ec2d36e4b3733165ab9261b3ceaab6f0f08f06c0bba66df1440fbb08ef885",
      "networkId": 0,
      "chainId": 0
    },
    {
      "hash": "0x016a18171a5ae933ac4829dba6549aa877fcdaab1eacb59945693019a12813ca",
      "blockHash": "0x12259296b40dbb5e5d40f2804ee985784215af4db57a2ed36dcdfedf6d102068",
      "blockNumber": 55875,
      "transactionIndex": 13,
      "confirmations": null,
      "from": "0xe6A7a1d47ff21B6321162AEA7C6CB457D5476Bca",
      "gasPrice": {
        "_hex": "0xdebc3a45c"
      },
      "gasLimit": {
        "_hex": "0x55f0"
      },
      "to": "0x6B4971F56172Fe56565FD3d6b56F8CA3C91B2baD",
      "value": {
        "_hex": "0x31a860a9218fc820"
      },
      "nonce": 368,
      "data": "0x",
      "r": "0x0c1aae5d49ac2e557c233ab02b56840179adb09ad92a4f876f7ae5a5e73c26bf",
      "s": "0x3fa874fd5d0832313b074049478220fc544af1d2f959d4d6ec64baa334636ddb",
      "v": 27,
      "creates": null,
      "raw": "0xf86e820170850debc3a45c8255f0946b4971f56172fe56565fd3d6b56f8ca3c91b2bad8831a860a9218fc820801ba00c1aae5d49ac2e557c233ab02b56840179adb09ad92a4f876f7ae5a5e73c26bfa03fa874fd5d0832313b074049478220fc544af1d2f959d4d6ec64baa334636ddb",
      "networkId": 0,
      "chainId": 0
    },
    {
      "hash": "0x2fcc53d09d7001f7997a45e593e7c290d347942e397ed34af3e59eaea48401b1",
      "blockHash": "0x12259296b40dbb5e5d40f2804ee985784215af4db57a2ed36dcdfedf6d102068",
      "blockNumber": 55875,
      "transactionIndex": 14,
      "confirmations": null,
      "from": "0xe6A7a1d47ff21B6321162AEA7C6CB457D5476Bca",
      "gasPrice": {
        "_hex": "0xdebc3a45c"
      },
      "gasLimit": {
        "_hex": "0x55f0"
      },
      "to": "0x360A45Bb0fd4B1980981FbD42e4f6bAaa69EeC08",
      "value": {
        "_hex": "0x31f931afb902ba14"
      },
      "nonce": 369,
      "data": "0x",
      "r": "0xf5309cc0e5f77629836b238dd81f4e4da0d5fb9687e5b3329ebded520893bff7",
      "s": "0x5b9c5da9cac01be5a86a5412d971292b4cad0b4669f8df6e63bf590d3a64c5af",
      "v": 27,
      "creates": null,
      "raw": "0xf86e820171850debc3a45c8255f094360a45bb0fd4b1980981fbd42e4f6baaa69eec088831f931afb902ba14801ba0f5309cc0e5f77629836b238dd81f4e4da0d5fb9687e5b3329ebded520893bff7a05b9c5da9cac01be5a86a5412d971292b4cad0b4669f8df6e63bf590d3a64c5af",
      "networkId": 0,
      "chainId": 0
    },
    {
      "hash": "0x34049218c868a1df994e734020f8eca17d1473af756b209d3bcd3f3a755771c4",
      "blockHash": "0x12259296b40dbb5e5d40f2804ee985784215af4db57a2ed36dcdfedf6d102068",
      "blockNumber": 55875,
      "transactionIndex": 15,
      "confirmations": null,
      "from": "0xe6A7a1d47ff21B6321162AEA7C6CB457D5476Bca",
      "gasPrice": {
        "_hex": "0xdebc3a45c"
      },
      "gasLimit": {
        "_hex": "0x55f0"
      },
      "to": "0xE53Fe5B196a315dE96297181E99F6c22a9313fd3",
      "value": {
        "_hex": "0x3319380d53c33338"
      },
      "nonce": 370,
      "data": "0x",
      "r": "0xaa400c549070f7bdb8b69139eb3b9d24391f8e518d8a8cc2d98c09b07beafe61",
      "s": "0x1eff797b6997240604ccdf76c36a0312bc2be87514253805444284b28a8bebf4",
      "v": 27,
      "creates": null,
      "raw": "0xf86e820172850debc3a45c8255f094e53fe5b196a315de96297181e99f6c22a9313fd3883319380d53c33338801ba0aa400c549070f7bdb8b69139eb3b9d24391f8e518d8a8cc2d98c09b07beafe61a01eff797b6997240604ccdf76c36a0312bc2be87514253805444284b28a8bebf4",
      "networkId": 0,
      "chainId": 0
    },
    {
      "hash": "0xaf5e314c62c84adb7767c051cd11d4f5a930e5bd13ab8dd3331372355c02c8f9",
      "blockHash": "0x12259296b40dbb5e5d40f2804ee985784215af4db57a2ed36dcdfedf6d102068",
      "blockNumber": 55875,
      "transactionIndex": 16,
      "confirmations": null,
      "from": "0xe6A7a1d47ff21B6321162AEA7C6CB457D5476Bca",
      "gasPrice": {
        "_hex": "0xdebc3a45c"
      },
      "gasLimit": {
        "_hex": "0x55f0"
      },
      "to": "0x3B7Ce4d16316f594a3c5ebB7CCc4c022FC2858c6",
      "value": {
        "_hex": "0x33936cb53e1c2f10"
      },
      "nonce": 371,
      "data": "0x",
      "r": "0x8986677e773b9a91ff666fe3ae07900b554f45a832ce78527aaf83a7fd937a5d",
      "s": "0x357b00a95050e0b9fd0605d0fcd5d00fdb880a31069df83ec5a7fb89c91f68b7",
      "v": 28,
      "creates": null,
      "raw": "0xf86e820173850debc3a45c8255f0943b7ce4d16316f594a3c5ebb7ccc4c022fc2858c68833936cb53e1c2f10801ca08986677e773b9a91ff666fe3ae07900b554f45a832ce78527aaf83a7fd937a5da0357b00a95050e0b9fd0605d0fcd5d00fdb880a31069df83ec5a7fb89c91f68b7",
      "networkId": 0,
      "chainId": 0
    }
  ]
}