{
  "hash": "0xe0cf31a6ebb3d840fd12ae9b490d39d4d2e7b01bee2e1719080aeaebfa7a9086",
  "parentHash": "0xe93309c854ee89dd68c3caca39ff868708128cd7f6f70ec99a51bd2e1d3a3c08",
  "number": 99676,
  "timestamp": 1439794085,
  "nonce": "0x2dee4af2c85ab462",
  "difficulty": 3793468512305,
  "gasLimit": {
    "_hex": "0x2fefd8"
  },
  "gasUsed": {
    "_hex": "0x5208"
  },
  "miner": "0x0D4EcC7d750180EBf4A9Df728B6669B5Bceb5E40",
  "extraData": "0x",
  "transactions": [
    {
      "hash": "0x63598396b69547bb50bb64b35d19c6b55e83a9ec991dca2792c7d54482059d28",
      "blockHash": "0xe0cf31a6ebb3d840fd12ae9b490d39d4d2e7b01bee2e1719080aeaebfa7a9086",
      "blockNumber": 99676,
      "transactionIndex": 0,
      "confirmations": null,
      "from": "0x0D4EcC7d750180EBf4A9Df728B6669B5Bceb5E40",
      "gasPrice": {
        "_hex": "0xce4b07328"
      },
      "gasLimit": {
        "_hex": "0x5208"
      },
      "to": "0x32Be343B94f860124dC4fEe278FDCBD38C102D88",
      "value": {
        "_hex": "0x455f6fdb838b3800"
      },
      "nonce": 58,
      "data": "0x",
      "r": "0x1e43436882551669a6a521fd96b21c46adf3b7f587a8b6cc3b755fae117e8f0a",
      "s": "0x79ad5499ac3563e9679adab5a571869a5a46df86bddf987eef14079f53265db0",
      "v": 27,
      "creates": null,
      "raw": "0xf86c3a850ce4b073288252089432be343b94f860124dc4fee278fdcbd38c102d8888455f6fdb838b3800801ba01e43436882551669a6a521fd96b21c46adf3b7f587a8b6cc3b755fae117e8f0aa079ad5499ac3563e9679adab5a571869a5a46df86bddf987eef14079f53265db0",
      "networkId": 0,
      "chainId": 0
    }
  ]
}