{
  "hash": "0xd7b0d27e3095e5d9fcf54a64a098403c05a94aec0999cfc209027f8240142622",
  "parentHash": "0xe61246e14e36e702ef397396d864994e160c295c525773a806c0c078ee1dbf6d",
  "number": 91471,
  "timestamp": 1439656125,
  "nonce": "0x843d7a3966f04f61",
  "difficulty": 3486190741890,
  "gasLimit": {
    "_hex": "0x2fefd8"
  },
  "gasUsed": {
    "_hex": "0x802e"
  },
  "miner": "0xe6A7a1d47ff21B6321162AEA7C6CB457D5476Bca",
  "extraData": "0x476574682f76312e302e312d38326566323666362f6c696e75782f676f312e34",
  "transactions": [
    {
      "hash": "0xc423915e0f9234d4783e693641f16d8b7653b653d6ce708f4ce6255c60eed720",
      "blockHash": "0xd7b0d27e3095e5d9fcf54a64a098403c05a94aec0999cfc209027f8240142622",
      "blockNumber": 91471,
      "transactionIndex": 0,
      "confirmations": null,
      "from": "0xFBb1b73C4f0BDa4f67dcA266ce6Ef42f520fBB98",
      "gasPrice": {
        "_hex": "0xd081a9f5c"
      },
      "gasLimit": {
        "_hex": "0x15f90"
      },
      "to": "0xCAc7000C7dBaa2E33Af15325AF5D435E011C7BdD",
      "value": {
        "_hex": "0x0"
      },
      "nonce": 46,
      "data": "0x3feb1bd842495454524558303000000000000000000000000000000000000000000000000000000000000000000000003fee2e5f121cfb9d6d9bab6cec64eb60585124d4000000000000000000000000000000000000000000000000007e986cc5534000",
      "r": "0x0d03918c95369937808433f2fce22aec9b9845ab946410c163c5765bc70fe549",
      "s": "0x308ac18ca4892650d4829ab93d63450361db5858cdad371d440dd3df032c2ff0",
      "v": 27,
      "creates": null,
      "raw": "0xf8ca2e850d081a9f5c83015f9094cac7000c7dbaa2e33af15325af5d435e011c7bdd80b8643feb1bd842495454524558303000000000000000000000000000000000000000000000000000000000000000000000003fee2e5f121cfb9d6d9bab6cec64eb60585124d4000000000000000000000000000000000000000000000000007e986cc55340001ba00d03918c95369937808433f2fce22aec9b9845ab946410c163c5765bc70fe549a0308ac18ca4892650d4829ab93d63450361db5858cdad371d440dd3df032c2ff0",
      "networkId": 0,
      "chainId": 0
    }
  ]
}