{
  "hash": "0xeac3654a970f2edd2bca6667fe6c6ecd6c482b30adc32e2a2450a7869eb1c991",
  "parentHash": "0x8b86490d25734a3c2fa781a95d9a9616b4be4f3c9ec50cc22db4b9f2c19bc0a4",
  "number": 85567,
  "timestamp": 1439565566,
  "nonce": "0x00dad26a038d1fbb",
  "difficulty": 2765140867913,
  "gasLimit": {
    "_hex": "0x2fefd8"
  },
  "gasUsed": {
    "_hex": "0x5208"
  },
  "miner": "0xf927a40C8B7F6E07c5af7FA2155B4864a4112B13",
  "extraData": "0x",
  "transactions": [
    {
      "hash": "0xe0409704ff9bf5211d4b37c65645743cb463420b58c346966423dc76e4204a75",
      "blockHash": "0xeac3654a970f2edd2bca6667fe6c6ecd6c482b30adc32e2a2450a7869eb1c991",
      "blockNumber": 85567,
      "transactionIndex": 0,
      "confirmations": null,
      "from": "0x056507108FE6d30189EcCD6cd7F4Fad56eEef622",
      "gasPrice": {
        "_hex": "0xd3d37f23a"
      },
      "gasLimit": {
        "_hex": "0x15f90"
      },
      "to": "0x4E61B2316C9A92a4F5F078A71f2E78f1e2208F34",
      "value": {
        "_hex": "0x35c7c9c18c9447000"
      },
      "nonce": 5,
      "data": "0x",
      "r": "0xdce3f68b9601aeb257368eb4bd7dee33d09b0b1ae48f4ecb42bb05d4da6c1fde",
      "s": "0x411c88d7933ef049ef42fdccb506d256615fa1b304021d3d0b489f8c96cbacf6",
      "v": 28,
      "creates": null,
      "raw": "0xf86e05850d3d37f23a83015f90944e61b2316c9a92a4f5f078a71f2e78f1e2208f3489035c7c9c18c9447000801ca0dce3f68b9601aeb257368eb4bd7dee33d09b0b1ae48f4ecb42bb05d4da6c1fdea0411c88d7933ef049ef42fdccb506d256615fa1b304021d3d0b489f8c96cbacf6",
      "networkId": 0,
      "chainId": 0
    }
  ]
}