{
  "hash": "0x98365646f593c6fe258275244588709f2d3ca7b3e996dba2f608f8e4236ddc21",
  "parentHash": "0x65bb48ad6c569c6e9be0fe8b1d6634b57061c7e4175e06c08ad621fd1fc51a57",
  "number": 66481,
  "timestamp": 1439255296,
  "nonce": "0xe40b6f64450aafb4",
  "difficulty": 1944246685353,
  "gasLimit": {
    "_hex": "0x2fefd8"
  },
  "gasUsed": {
    "_hex": "0x5208"
  },
  "miner": "0x8B454d830feF179e66206840F8F3D1d83bC32b17",
  "extraData": "0x476574682f76312e302e312f77696e646f77732f676f312e342e32",
  "transactions": [
    {
      "hash": "0xa5a3e1c4551162f5eda7bda955dc8043165d0bd23e324af7c8f829daebf6d943",
      "blockHash": "0x98365646f593c6fe258275244588709f2d3ca7b3e996dba2f608f8e4236ddc21",
      "blockNumber": 66481,
      "transactionIndex": 0,
      "confirmations": null,
      "from": "0x3620db64D25D412bAb4C8d93E2e0D7e64e8Cb933",
      "gasPrice": {
        "_hex": "0xd11552ad3"
      },
      "gasLimit": {
        "_hex": "0x5208"
      },
      "to": "0x32Be343B94f860124dC4fEe278FDCBD38C102D88",
      "value": {
        "_hex": "0x16c4a78ec971970000"
      },
      "nonce": 1,
      "data": "0x",
      "r": "0xd25df58600723ab2d4f63ebd6edbcbed88e1f0cd2771b5214e2b8a43f73d96d4",
      "s": "0x67e2b96fd8062ba638818ba7f90c9b676f14db56a040a0021f5c7bb0fa131c87",
      "v": 27,
      "creates": null,
      "raw": "0xf86d01850d11552ad38252089432be343b94f860124dc4fee278fdcbd38c102d888916c4a78ec971970000801ba0d25df58600723ab2d4f63ebd6edbcbed88e1f0cd2771b5214e2b8a43f73d96d4a067e2b96fd8062ba638818ba7f90c9b676f14db56a040a0021f5c7bb0fa131c87",
      "networkId": 0,
      "chainId": 0
    }
  ]
}