{
  "hash": "0xe4e03578822116bacdfa567d4069f33cba2bee633d8b6cd382957e2611674bb5",
  "parentHash": "0x2bec1474dff53d45d4996202dfd7a9d73964646fcd5fb867b57d056ffabf3ebc",
  "number": 87532,
  "timestamp": 1439593706,
  "nonce": "0xe3a8d550611f5778",
  "difficulty": 3149451901805,
  "gasLimit": {
    "_hex": "0x2fefd8"
  },
  "gasUsed": {
    "_hex": "0xa410"
  },
  "miner": "0xe6A7a1d47ff21B6321162AEA7C6CB457D5476Bca",
  "extraData": "0x476574682f76312e302e312d38326566323666362f6c696e75782f676f312e34",
  "transactions": [
    {
      "hash": "0xc6c71af508afbdeaf37056226dd2982a8ec6da29fae0f837625227963c56d22a",
      "blockHash": "0xe4e03578822116bacdfa567d4069f33cba2bee633d8b6cd382957e2611674bb5",
      "blockNumber": 87532,
      "transactionIndex": 0,
      "confirmations": null,
      "from": "0x2910543Af39abA0Cd09dBb2D50200b3E800A63D2",
      "gasPrice": {
        "_hex": "0xd61b386f2"
      },
      "gasLimit": {
        "_hex": "0x5208"
      },
      "to": "0x8F68fbE2DCFf038C24F650C9e05Ee478038171cd",
      "value": {
        "_hex": "0x20869a71971a7f8000"
      },
      "nonce": 706,
      "data": "0x",
      "r": "0x3c603a34baa141cb3a3ddc1ab73cba00586c1cb8c415aa75088c0d1bb36fbf39",
      "s": "0x6dea2acaf921d8f1a9a64b3fb036c5010088f88203ae60caad8308d30c01ebec",
      "v": 27,
      "creates": null,
      "raw": "0xf86f8202c2850d61b386f2825208948f68fbe2dcff038c24f650c9e05ee478038171cd8920869a71971a7f8000801ba03c603a34baa141cb3a3ddc1ab73cba00586c1cb8c415aa75088c0d1bb36fbf39a06dea2acaf921d8f1a9a64b3fb036c5010088f88203ae60caad8308d30c01ebec",
      "networkId": 0,
      "chainId": 0
    },
    {
      "hash": "0x358d4fc6b4668f2d5339048e6b194d857d350e401d6b6bf41cffd64978a78a66",
      "blockHash": "0xe4e03578822116bacdfa567d4069f33cba2bee633d8b6cd382957e2611674bb5",
      "blockNumber": 87532,
      "transactionIndex": 1,
      "confirmations": null,
      "from": "0x2910543Af39abA0Cd09dBb2D50200b3E800A63D2",
      "gasPrice": {
        "_hex": "0xd61b386f2"
      },
      "gasLimit": {
        "_hex": "0x5208"
      },
      "to": "0x02020D22dCF88f5eDd66B382D7da019F161fB7e3",
      "value": {
        "_hex": "0x22430c71ae57ef4000"
      },
      "nonce": 707,
      "data": "0x",
      "r": "0x96544a8cab9deac4732eb76572aa3c919372b38ee7c2f7df2817c99a8b9287ac",
      "s": "0x12ec21ecb4f275a74c11ef23df872e56e8d3f21e5a3034d6ca087ff9ece5f903",
      "v": 28,
      "creates": null,
      "raw": "0xf86f8202c3850d61b386f28252089402020d22dcf88f5edd66b382d7da019f161fb7e38922430c71ae57ef4000801ca096544a8cab9deac4732eb76572aa3c919372b38ee7c2f7df2817c99a8b9287aca012ec21ecb4f275a74c11ef23df872e56e8d3f21e5a3034d6ca087ff9ece5f903",
      "networkId": 0,
      "chainId": 0
    }
  ]
}