{
  "hash": "0xce3cf649b168ae82a11f6bde9bc2f1b7bdd61fd8984921edc7fbb75c062f4a4a",
  "parentHash": "0x705404afb0d128604ef0dd3d6340d516f8c9bc2141ff6af6aeb1007bc2a3410d",
  "number": 60392,
  "timestamp": 1439154827,
  "nonce": "0x49210071c85d1513",
  "difficulty": 1739824148649,
  "gasLimit": {
    "_hex": "0x2fefd8"
  },
  "gasUsed": {
    "_hex": "0x5208"
  },
  "miner": "0x88D74a59454F6cF3B51ef6b9136AFb6b9D405A88",
  "extraData": "0x476574682f76312e302e312d37666266393930632f6c696e75782f676f312e34",
  "transactions": [
    {
      "hash": "0x548ca5b67d956f193119a3895d5d796dacc89a96fc8039d60959344209162495",
      "blockHash": "0xce3cf649b168ae82a11f6bde9bc2f1b7bdd61fd8984921edc7fbb75c062f4a4a",
      "blockNumber": 60392,
      "transactionIndex": 0,
      "confirmations": null,
      "from": "0x32Be343B94f860124dC4fEe278FDCBD38C102D88",
      "gasPrice": {
        "_hex": "0xd99017765"
      },
      "gasLimit": {
        "_hex": "0x5208"
      },
      "to": "0x6aCdB36b4ba1c50356c8A71e94B1361448dDAfF9",
      "value": {
        "_hex": "0x45400a8fd5330000"
      },
      "nonce": 119,
      "data": "0x",
      "r": "0x0a6d2c4d71646ba7133935bf5bb6f488c9345f8d0fd8f4ccc6b76eaa65d3d686",
      "s": "0x35c4a93d88aacae32007179f85f3feb8030a5f6ba3afe043529991500dcd4959",
      "v": 27,
      "creates": null,
      "raw": "0xf86c77850d99017765825208946acdb36b4ba1c50356c8a71e94b1361448ddaff98845400a8fd5330000801ba00a6d2c4d71646ba7133935bf5bb6f488c9345f8d0fd8f4ccc6b76eaa65d3d686a035c4a93d88aacae32007179f85f3feb8030a5f6ba3afe043529991500dcd4959",
      "networkId": 0,
      "chainId": 0
    }
  ]
}