{
  "hash": "0x577a921579211df75567016d34f8c1d3be3856250397be3937d745b0cd8281da",
  "parentHash": "0x4d95f79bbd61c29a9eb06a7610eda7894690e6b969470db6697d84588d3e38c5",
  "number": 111676,
  "timestamp": 1439994150,
  "nonce": "0xf5cca77705f361c7",
  "difficulty": 4450351531713,
  "gasLimit": {
    "_hex": "0x2fefd8"
  },
  "gasUsed": {
    "_hex": "0x2542d"
  },
  "miner": "0xe6A7a1d47ff21B6321162AEA7C6CB457D5476Bca",
  "extraData": "0x476574682f76312e302e312d38326566323666362f6c696e75782f676f312e34",
  "transactions": [
    {
      "hash": "0x16257425caa4fa4e7273d0651a21101c472571e323abc673da4a0e0970703417",
      "blockHash": "0x577a921579211df75567016d34f8c1d3be3856250397be3937d745b0cd8281da",
      "blockNumber": 111676,
      "transactionIndex": 0,
      "confirmations": null,
      "from": "0x0D82Cd113DC35DdDA93f38166cD5CDe8b88e36A1",
      "gasPrice": {
        "_hex": "0xdb4a20322"
      },
      "gasLimit": {
        "_hex": "0x30d40"
      },
      "to": "0x4d6387f3B967dA39B11DE111158D49754C31985d",
      "value": {
        "_hex": "0x16345785d8a0000"
      },
      "nonce": 28,
      "data": "0x02dc2e1d00000000000000000000000000000000000000000000000000000000000000200000000000000000000000000000000000000000000000000000000000000022313265764e714c707a58765036585372436578336736574e7238644a766a74514a73000000000000000000000000000000000000000000000000000000000000",
      "r": "0xe9ad25304fd4f3023b318454a1846f1498f25e6c799e7dba0164ce2a0dd9b68e",
      "s": "0x00d9e49fd58732ae464dd8f29c096fc8df3b7452cf4dc46c355bd969fd6b0cfe",
      "v": 28,
      "creates": null,
      "raw": "0xf8f11c850db4a2032283030d40944d6387f3b967da39b11de111158d49754c31985d88016345785d8a0000b88402dc2e1d00000000000000000000000000000000000000000000000000000000000000200000000000000000000000000000000000000000000000000000000000000022313265764e714c707a58765036585372436578336736574e7238644a766a74514a730000000000000000000000000000000000000000000000000000000000001ca0e9ad25304fd4f3023b318454a1846f1498f25e6c799e7dba0164ce2a0dd9b68e9fd9e49fd58732ae464dd8f29c096fc8df3b7452cf4dc46c355bd969fd6b0cfe",
      "networkId": 0,
      "chainId": 0
    },
    {
      "hash": "0xddb09988a67756781f317ec973c7480ed433ca212e7cadf0ebf99e3c80954df8",
      "blockHash": "0x577a921579211df75567016d34f8c1d3be3856250397be3937d745b0cd8281da",
      "blockNumber": 111676,
      "transactionIndex": 1,
      "confirmations": null,
      "from": "0x120A270bbC009644e35F0bB6ab13f95b8199c4ad",
      "gasPrice": {
        "_hex": "0xd96f22ae5"
      },
      "gasLimit": {
        "_hex": "0x3d090"
      },
      "to": "0xD3c6b518F1631509963232bA8e1882D3474a5838",
      "value": {
        "_hex": "0x26859dd783b34ff800"
      },
      "nonce": 885,
      "data": "0x",
      "r": "0x75a9b675852db8d3b557005b998a154b3e668741c82dd449d94b57e838d863e9",
      "s": "0x151770eb5b261b144da2bd6b2171b3724816ab1e19d84b289a850a177838d4b7",
      "v": 28,
      "creates": null,
      "raw": "0xf870820375850d96f22ae58303d09094d3c6b518f1631509963232ba8e1882d3474a58388926859dd783b34ff800801ca075a9b675852db8d3b557005b998a154b3e668741c82dd449d94b57e838d863e9a0151770eb5b261b144da2bd6b2171b3724816ab1e19d84b289a850a177838d4b7",
      "networkId": 0,
      "chainId": 0
    }
  ]
}