{
  "hash": "0x1d2fb8aadfcd130ad005b97cf82147663695751863283dbfaaa2ad555a0ec0cb",
  "parentHash": "0xde59d1d871ad622d44dfa903bc3826d074ce440a8b6d7793f89146f180b563bd",
  "number": 53239,
  "timestamp": 1439034584,
  "nonce": "0x3a364ff6ff355df1",
  "difficulty": 1580069402718,
  "gasLimit": {
    "_hex": "0x227a42"
  },
  "gasUsed": {
    "_hex": "0xf9448"
  },
  "miner": "0xf927a40C8B7F6E07c5af7FA2155B4864a4112B13",
  "extraData": "0x476574682f76312e302e302f6c696e75782f676f312e342e32",
  "transactions": [
    {
      "hash": "0x7436ade779f1eb8f5b71785b0b53aec5a1855149efb825fdc17adad287d67f44",
      "blockHash": "0x1d2fb8aadfcd130ad005b97cf82147663695751863283dbfaaa2ad555a0ec0cb",
      "blockNumber": 53239,
      "transactionIndex": 0,
      "confirmations": null,
      "from": "0xF5EeDc192aB70b08D8354384aD94efD095849E00",
      "gasPrice": {
        "_hex": "0xd5cfbf520"
      },
      "gasLimit": {
        "_hex": "0x5208"
      },
      "to": "0x32Be343B94f860124dC4fEe278FDCBD38C102D88",
      "value": {
        "_hex": "0x3afac3f86584ec000"
      },
      "nonce": 6,
      "data": "0x",
      "r": "0xdbf79e16964ce256c38c17567028c737c9e37482e2e794deb3b736a5e13ba493",
      "s": "0x1da859895bce9674112299b2086a401035c9ccbd3929c3b7d3194a2d30e32250",
      "v": 28,
      "creates": null,
      "raw": "0xf86d06850d5cfbf5208252089432be343b94f860124dc4fee278fdcbd38c102d888903afac3f86584ec000801ca0dbf79e16964ce256c38c17567028c737c9e37482e2e794deb3b736a5e13ba493a01da859895bce9674112299b2086a401035c9ccbd3929c3b7d3194a2d30e32250",
      "networkId": 0,
      "chainId": 0
    },
    {
      "hash": "0xd488f2ca791348a7eaacce979f4d5dcddd3caa5ce7656eb4dcff73afff537564",
      "blockHash": "0x1d2fb8aadfcd130ad005b97cf82147663695751863283dbfaaa2ad555a0ec0cb",
      "blockNumber": 53239,
      "transactionIndex": 1,
      "confirmations": null,
      "from": "0x8674c218F0351a62C3BA78C34FD2182A93Da94E2",
      "gasPrice": {
        "_hex": "0xba43b7400"
      },
      "gasLimit": {
        "_hex": "0xf4240"
      },
      "to": "0x18991fC52465c9Cb2cA762947e855beb2ddfff72",
      "value": {
        "_hex": "0x0"
      },
      "nonce": 9,
      "data": "0xde6f24bb0000000000000000000000008674c218f0351a62c3ba78c34fd2182a93da94e20000000000000000000000000000000000000000000000000000000000000040000000000000000000000000000000000000000000000000000000000000000568656c6c6f000000000000000000000000000000000000000000000000000000",
      "r": "0x6e539cc4bfa10169d94a0897815139c36fbb4e0ae49bc8061c4e7e96813e6788",
      "s": "0x68407b015e144c5c74af407472624d44a6bf69fb188662e341fceebb2892a932",
      "v": 28,
      "creates": null,
      "raw": "0xf8ea09850ba43b7400830f42409418991fc52465c9cb2ca762947e855beb2ddfff7280b884de6f24bb0000000000000000000000008674c218f0351a62c3ba78c34fd2182a93da94e20000000000000000000000000000000000000000000000000000000000000040000000000000000000000000000000000000000000000000000000000000000568656c6c6f0000000000000000000000000000000000000000000000000000001ca06e539cc4bfa10169d94a0897815139c36fbb4e0ae49bc8061c4e7e96813e6788a068407b015e144c5c74af407472624d44a6bf69fb188662e341fceebb2892a932",
      "networkId": 0,
      "chainId": 0
    }
  ]
}