{
  "hash": "0x525a2d2e92e6f243a2dbf1de85fe7cdfa1f51951c9dbd7bcff8dcd36db113d6c",
  "parentHash": "0xa3db3a16d33377dfc2cb0bad3a4799b30bd824b54663081a78185c77f67674d0",
  "number": 90493,
  "timestamp": 1439640837,
  "nonce": "0x3f179ae86a26afce",
  "difficulty": 3346485265543,
  "gasLimit": {
    "_hex": "0x2fefd8"
  },
  "gasUsed": {
    "_hex": "0x55d8"
  },
  "miner": "0x7E6930B63D03e88F5928C5cd6ee3FCee4D714F7F",
  "extraData": "0x",
  "transactions": [
    {
      "hash": "0x36c64f1679bb162bb3a5139733dc871709c1a59d8bda47a686f01d7c2a3c2dd8",
      "blockHash": "0x525a2d2e92e6f243a2dbf1de85fe7cdfa1f51951c9dbd7bcff8dcd36db113d6c",
      "blockNumber": 90493,
      "transactionIndex": 0,
      "confirmations": null,
      "from": "0xF5DB8283D971Aa114D2035f512EdD8e86557c5C0",
      "gasPrice": {
        "_hex": "0xd6792466d"
      },
      "gasLimit": {
        "_hex": "0x15f90"
      },
      "to": "0x0000000000000000000000000000000000000000",
      "value": {
        "_hex": "0x470de4df820000"
      },
      "nonce": 0,
      "data": "0xb214faa54141414141484a48430000000000000000000000000000000000000000000000",
      "r": "0xa1b04fdffb319b8ebf3bdffd46f5c858f6d7b26774cd8f126ae7a31db6cebbd2",
      "s": "0x311750024aa89adfdf174f447e1ffaa58d2115f393b8eb1895ac81a0ab3cd1a7",
      "v": 27,
      "creates": null,
      "raw": "0xf89080850d6792466d83015f9094000000000000000000000000000000000000000087470de4df820000a4b214faa54141414141484a484300000000000000000000000000000000000000000000001ba0a1b04fdffb319b8ebf3bdffd46f5c858f6d7b26774cd8f126ae7a31db6cebbd2a0311750024aa89adfdf174f447e1ffaa58d2115f393b8eb1895ac81a0ab3cd1a7",
      "networkId": 0,
      "chainId": 0
    }
  ]
}