{
  "hash": "0xbd95090517986c26a626f0e10298ec0d192a97afebaa4671ab9a22670d0565fc",
  "parentHash": "0xb71c8fdc065fdbcc227b2d68dd9889fa71f4f593c541912b3bccb9af9c196201",
  "number": 121571,
  "timestamp": 1440179157,
  "nonce": "0xfc3c9f863757cfe3",
  "difficulty": 4442935166666,
  "gasLimit": {
    "_hex": "0x2fefd8"
  },
  "gasUsed": {
    "_hex": "0xa410"
  },
  "miner": "0x608f4b86321a68453f9adf6F06F7Fc3E621739ad",
  "extraData": "0xd783010002844765746887676f312e342e32856c696e7578",
  "transactions": [
    {
      "hash": "0x0e1370f7d3e2d8f4dcee4911a192fa4cebbab146dc39b892320c1fd0582ead02",
      "blockHash": "0xbd95090517986c26a626f0e10298ec0d192a97afebaa4671ab9a22670d0565fc",
      "blockNumber": 121571,
      "transactionIndex": 0,
      "confirmations": null,
      "from": "0x2910543Af39abA0Cd09dBb2D50200b3E800A63D2",
      "gasPrice": {
        "_hex": "0xd81bf0866"
      },
      "gasLimit": {
        "_hex": "0x5208"
      },
      "to": "0xb6450d1f229e4A9442Ff238BF4d0565B1200D0b1",
      "value": {
        "_hex": "0x2b5d1eb9d79a78000"
      },
      "nonce": 1193,
      "data": "0x",
      "r": "0x8dd07b24f726b23be0f9a2eb6f156370185ae0d1a3d0a7d9cb66ea03e8528725",
      "s": "0x59fa7406476400f35f797905826963af373861f2c90a8aacf1c03967bb0970ae",
      "v": 28,
      "creates": null,
      "raw": "0xf86f8204a9850d81bf086682520894b6450d1f229e4a9442ff238bf4d0565b1200d0b18902b5d1eb9d79a78000801ca08dd07b24f726b23be0f9a2eb6f156370185ae0d1a3d0a7d9cb66ea03e8528725a059fa7406476400f35f797905826963af373861f2c90a8aacf1c03967bb0970ae",
      "networkId": 0,
      "chainId": 0
    },
    {
      "hash": "0x9d3e6256b4238e10a4ec27ee8841530ea1e5b8185d7c74c8aa282830c421c5c1",
      "blockHash": "0xbd95090517986c26a626f0e10298ec0d192a97afebaa4671ab9a22670d0565fc",
      "blockNumber": 121571,
      "transactionIndex": 1,
      "confirmations": null,
      "from": "0xa70a9a7040d542C632D8e0bE7c5513A8a5Bbc752",
      "gasPrice": {
        "_hex": "0xba43b7400"
      },
      "gasLimit": {
        "_hex": "0x5208"
      },
      "to": "0x32Be343B94f860124dC4fEe278FDCBD38C102D88",
      "value": {
        "_hex": "0x455fd68a17f06000"
      },
      "nonce": 337,
      "data": "0x",
      "r": "0x4d1cbb16821675b57bb4aa8967b1051ccac7fce6f81eecdf799b9ae201a82dbd",
      "s": "0x1f0a9b14349424ccd0e2c44920c889c9c416917743833cd4fa62ccdc82a619be",
      "v": 28,
      "creates": null,
      "raw": "0xf86e820151850ba43b74008252089432be343b94f860124dc4fee278fdcbd38c102d8888455fd68a17f06000801ca04d1cbb16821675b57bb4aa8967b1051ccac7fce6f81eecdf799b9ae201a82dbda01f0a9b14349424ccd0e2c44920c889c9c416917743833cd4fa62ccdc82a619be",
      "networkId": 0,
      "chainId": 0
    }
  ]
}