{
  "hash": "0x300c51a6417a491c0c38b71ce8a5e23d0ca2d411ad9204294cf1453abfe38cd5",
  "parentHash": "0x40d02d19a3da1ae5bc10d333aba395a529dde58043a51fd500a3ff2b0008a4e8",
  "number": 84264,
  "timestamp": 1439547270,
  "nonce": "0x1c3041543eca047a",
  "difficulty": 2526701941253,
  "gasLimit": {
    "_hex": "0x2fefd8"
  },
  "gasUsed": {
    "_hex": "0xb3718"
  },
  "miner": "0xF8f28F38D73956dA4AB44cCd82Ff58CeCaDc5F75",
  "extraData": "0x476574682f617578626f72672d6e756d62657274776f2f76312e302e312d3832",
  "transactions": [
    {
      "hash": "0x1d29909e391378e3858b9a199b7e1f9a638a7258630f89132e4722558ef886aa",
      "blockHash": "0x300c51a6417a491c0c38b71ce8a5e23d0ca2d411ad9204294cf1453abfe38cd5",
      "blockNumber": 84264,
      "transactionIndex": 0,
      "confirmations": null,
      "from": "0xe6A7a1d47ff21B6321162AEA7C6CB457D5476Bca",
      "gasPrice": {
        "_hex": "0xcba127242"
      },
      "gasLimit": {
        "_hex": "0x55f0"
      },
      "to": "0xC8224326e29eD30AEEC1B70ec238A818169ecaBA",
      "value": {
        "_hex": "0x2222d355bafe0420"
      },
      "nonce": 1548,
      "data": "0x",
      "r": "0x10b27a00d34fe39917c70084fb5ef6eb5f8d1a9e6c684337cade7b236f1d678b",
      "s": "0x2926fa8c3083fb5e89048c719177499b98f733e554cbafefa42881a3601a8ca8",
      "v": 27,
      "creates": null,
      "raw": "0xf86e82060c850cba1272428255f094c8224326e29ed30aeec1b70ec238a818169ecaba882222d355bafe0420801ba010b27a00d34fe39917c70084fb5ef6eb5f8d1a9e6c684337cade7b236f1d678ba02926fa8c3083fb5e89048c719177499b98f733e554cbafefa42881a3601a8ca8",
      "networkId": 0,
      "chainId": 0
    },
    {
      "hash": "0xc52437a7cabe8f4baf2cf227f43b367bde35ff3476f26fd9087ffe098eade1f4",
      "blockHash": "0x300c51a6417a491c0c38b71ce8a5e23d0ca2d411ad9204294cf1453abfe38cd5",
      "blockNumber": 84264,
      "transactionIndex": 1,
      "confirmations": null,
      "from": "0xe6A7a1d47ff21B6321162AEA7C6CB457D5476Bca",
      "gasPrice": {
        "_hex": "0xcba127242"
      },
      "gasLimit": {
        "_hex": "0x55f0"
      },
      "to": "0x625C91D2eC2873Db4773931f7DFeF46CC594b2c9",
      "value": {
        "_hex": "0x22298afc75e94420"
      },
      "nonce": 1549,
      "data": "0x",
      "r": "0x2fd51d35f10693d20f723d1fd9929d3e71d581299395b436f78d19c5ca78e472",
      "s": "0x0a2c12b56e67c672df3bc111bc7dfc76f90cf6af6371a2f35943fa5f507a6904",
      "v": 27,
      "creates": null,
      "raw": "0xf86e82060d850cba1272428255f094625c91d2ec2873db4773931f7dfef46cc594b2c98822298afc75e94420801ba02fd51d35f10693d20f723d1fd9929d3e71d581299395b436f78d19c5ca78e472a00a2c12b56e67c672df3bc111bc7dfc76f90cf6af6371a2f35943fa5f507a6904",
      "networkId": 0,
      "chainId": 0
    },
    {
      "hash": "0x1c8599ed5d8e76b6cf4a718b2a583671a1ed581f61933e76e61eaa36c214ea68",
      "blockHash": "0x300c51a6417a491c0c38b71ce8a5e23d0ca2d411ad9204294cf1453abfe38cd5",
      "blockNumber": 84264,
      "transactionIndex": 2,
      "confirmations": null,
      "from": "0xe6A7a1d47ff21B6321162AEA7C6CB457D5476Bca",
      "gasPrice": {
        "_hex": "0xcba127242"
      },
      "gasLimit": {
        "_hex": "0x55f0"
      },
      "to": "0x20b2a17fFa355d7Bcb269812A39e8F57D750A5b3",
      "value": {
        "_hex": "0x225569c3a396bbec"
      },
      "nonce": 1550,
      "data": "0x",
      "r": "0x6857c1b3f16dc940398f48c559cb65ed48452ba8a6d26a7c880bea40d78756aa",
      "s": "0x33a5911b8d1aee0486cc769b4dcd0b3832b92e12486967734dc12dea73917bea",
      "v": 27,
      "creates": null,
      "raw": "0xf86e82060e850cba1272428255f09420b2a17ffa355d7bcb269812a39e8f57d750a5b388225569c3a396bbec801ba06857c1b3f16dc940398f48c559cb65ed48452ba8a6d26a7c880bea40d78756aaa033a5911b8d1aee0486cc769b4dcd0b3832b92e12486967734dc12dea73917bea",
      "networkId": 0,
      "chainId": 0
    },
    {
      "hash": "0x4e562703179248be45fbcb40a5b5118a6d1a32fa6b34ec1e1ce14e40aad2669f",
      "blockHash": "0x300c51a6417a491c0c38b71ce8a5e23d0ca2d411ad9204294cf1453abfe38cd5",
      "blockNumber": 84264,
      "transactionIndex": 3,
      "confirmations": null,
      "from": "0xe6A7a1d47ff21B6321162AEA7C6CB457D5476Bca",
      "gasPrice": {
        "_hex": "0xcba127242"
      },
      "gasLimit": {
        "_hex": "0x55f0"
      },
      "to": "0x9aB9F7a4B85412bfbe2f4F63b1C98808851C4F32",
      "value": {
        "_hex": "0x2262b77dc7639b98"
      },
      "nonce": 1551,
      "data": "0x",
      "r": "0x183ebbe2c02ca62542c4c694ebcc8c4e7d7c350f4f13515eef24dbd99638357c",
      "s": "0x52abb8f090c2166210697490cead1aa440242d86aa2637160c35aac16064c187",
      "v": 27,
      "creates": null,
      "raw": "0xf86e82060f850cba1272428255f0949ab9f7a4b85412bfbe2f4f63b1c98808851c4f32882262b77dc7639b98801ba0183ebbe2c02ca62542c4c694ebcc8c4e7d7c350f4f13515eef24dbd99638357ca052abb8f090c2166210697490cead1aa440242d86aa2637160c35aac16064c187",
      "networkId": 0,
      "chainId": 0
    },
    {
      "hash": "0x17ec2a1c41e734ac4ecd6a041609a82fbce3bdd10c47a50cda4496538aa47149",
      "blockHash": "0x300c51a6417a491c0c38b71ce8a5e23d0ca2d411ad9204294cf1453abfe38cd5",
      "blockNumber": 84264,
      "transactionIndex": 4,
      "confirmations": null,
      "from": "0xe6A7a1d47ff21B6321162AEA7C6CB457D5476Bca",
      "gasPrice": {
        "_hex": "0xcba127242"
      },
      "gasLimit": {
        "_hex": "0x55f0"
      },
      "to": "0xaFF2628417768132E1d04f605Fe1e797f2ECA3F8",
      "value": {
        "_hex": "0x227fa71b28a29dd8"
      },
      "nonce": 1552,
      "data": "0x",
      "r": "0x6977d3561e517b4e1b313cc1f2cdd6cf575175e8dc08390021f2c0266fb1fdc9",
      "s": "0x4442a53e11a6d0f0067046214618ddbf4ee7a1e6b7c1279a9ab86b3124c2787b",
      "v": 27,
      "creates": null,
      "raw": "0xf86e820610850cba1272428255f094aff2628417768132e1d04f605fe1e797f2eca3f888227fa71b28a29dd8801ba06977d3561e517b4e1b313cc1f2cdd6cf575175e8dc08390021f2c0266fb1fdc9a04442a53e11a6d0f0067046214618ddbf4ee7a1e6b7c1279a9ab86b3124c2787b",
      "networkId": 0,
      "chainId": 0
    },
    {
      "hash": "0x2d10801f298df7385d4a2170dee20d78f52c8c19cf540d3d7a71cf2a746f1cac",
      "blockHash": "0x300c51a6417a491c0c38b71ce8a5e23d0ca2d411ad9204294cf1453abfe38cd5",
      "blockNumber": 84264,
      "transactionIndex": 5,
      "confirmations": null,
      "from": "0xe6A7a1d47ff21B6321162AEA7C6CB457D5476Bca",
      "gasPrice": {
        "_hex": "0xcba127242"
      },
      "gasLimit": {
        "_hex": "0x55f0"
      },
      "to": "0x537fbDe14cF29Bb12e0b2561e3f75Bc8ab73bC04",
      "value": {
        "_hex": "0x2290f0b3cc7c91f0"
      },
      "nonce": 1553,
      "data": "0x",
      "r": "0x60e82f3f926a8d93e3dbd5fea324c6e3b74dcebf09052a4829d3bc9a4d237017",
      "s": "0x4bc4e30be61fae036f3ed32e371c8da57afc4af34f1f3658bb72404f92fc7554",
      "v": 27,
      "creates": null,
      "raw": "0xf86e820611850cba1272428255f094537fbde14cf29bb12e0b2561e3f75bc8ab73bc04882290f0b3cc7c91f0801ba060e82f3f926a8d93e3dbd5fea324c6e3b74dcebf09052a4829d3bc9a4d237017a04bc4e30be61fae036f3ed32e371c8da57afc4af34f1f3658bb72404f92fc7554",
      "networkId": 0,
      "chainId": 0
    },
    {
      "hash": "0xf145bfcdbc7f669fe27a29418eaffccb3f0998e42facdf2f478d6ce85d783347",
      "blockHash": "0x300c51a6417a491c0c38b71ce8a5e23d0ca2d411ad9204294cf1453abfe38cd5",
      "blockNumber": 84264,
      "transactionIndex": 6,
      "confirmations": null,
      "from": "0xe6A7a1d47ff21B6321162AEA7C6CB457D5476Bca",
      "gasPrice": {
        "_hex": "0xcba127242"
      },
      "gasLimit": {
        "_hex": "0x55f0"
      },
      "to": "0x2d11763B4999FB3b61Ca8d19C8C77a743079f7bd",
      "value": {
        "_hex": "0x2293991c08cafa1c"
      },
      "nonce": 1554,
      "data": "0x",
      "r": "0x216bcf4aec45e921abe8045f0f2ba34ba2cfdcc1a995bfe95741c824410da1fe",
      "s": "0x2ba1050c4df8a44c3456a725f1c29f65c007c2c9a6b811dc09668ac3adc2472c",
      "v": 27,
      "creates": null,
      "raw": "0xf86e820612850cba1272428255f0942d11763b4999fb3b61ca8d19c8c77a743079f7bd882293991c08cafa1c801ba0216bcf4aec45e921abe8045f0f2ba34ba2cfdcc1a995bfe95741c824410da1fea02ba1050c4df8a44c3456a725f1c29f65c007c2c9a6b811dc09668ac3adc2472c",
      "networkId": 0,
      "chainId": 0
    },
    {
      "hash": "0xe917d952d9fa2e67321f90e5fd44be888bc4610feaaafa90bd43b6a93a9f651a",
      "blockHash": "0x300c51a6417a491c0c38b71ce8a5e23d0ca2d411ad9204294cf1453abfe38cd5",
      "blockNumber": 84264,
      "transactionIndex": 7,
      "confirmations": null,
      "from": "0xe6A7a1d47ff21B6321162AEA7C6CB457D5476Bca",
      "gasPrice": {
        "_hex": "0xddf9fd548"
      },
      "gasLimit": {
        "_hex": "0x55f0"
      },
      "to": "0x0EB0AcFB7C81a83296b8C023673f362e8FCd88bD",
      "value": {
        "_hex": "0x22d11a6069802e10"
      },
      "nonce": 1555,
      "data": "0x",
      "r": "0xeb18812b95ab96f125f15649c871344474ef4e608a3392a2424aea8b6d003afb",
      "s": "0x13d27c598c31722f524ad94cdbd847c15c11ac8269df6a9fe4c0999d1aaa4051",
      "v": 27,
      "creates": null,
      "raw": "0xf86e820613850ddf9fd5488255f0940eb0acfb7c81a83296b8c023673f362e8fcd88bd8822d11a6069802e10801ba0eb18812b95ab96f125f15649c871344474ef4e608a3392a2424aea8b6d003afba013d27c598c31722f524ad94cdbd847c15c11ac8269df6a9fe4c0999d1aaa4051",
      "networkId": 0,
      "chainId": 0
    },
    {
      "hash": "0x10d9054761e0ff7ce8c5f806b043f029369d8f5c5c1d0148914aa3bd1bb5edcd",
      "blockHash": "0x300c51a6417a491c0c38b71ce8a5e23d0ca2d411ad9204294cf1453abfe38cd5",
      "blockNumber": 84264,
      "transactionIndex": 8,
      "confirmations": null,
      "from": "0xe6A7a1d47ff21B6321162AEA7C6CB457D5476Bca",
      "gasPrice": {
        "_hex": "0xddf9fd548"
      },
      "gasLimit": {
        "_hex": "0x55f0"
      },
      "to": "0x0d271b81faBA0B8eD00aC8542D9896B69AAaA0E5",
      "value": {
        "_hex": "0x2347f27a05c8fdd4"
      },
      "nonce": 1556,
      "data": "0x",
      "r": "0x2bf1a3b4c21541b420be9e5bbd104b2008e0d321515e522bdff4bb931610e31e",
      "s": "0x7ad3ab1528e2d8f3ae1a68157bb16e53d8f1f4f38dbe8743b12a862380e9a699",
      "v": 28,
      "creates": null,
      "raw": "0xf86e820614850ddf9fd5488255f0940d271b81faba0b8ed00ac8542d9896b69aaaa0e5882347f27a05c8fdd4801ca02bf1a3b4c21541b420be9e5bbd104b2008e0d321515e522bdff4bb931610e31ea07ad3ab1528e2d8f3ae1a68157bb16e53d8f1f4f38dbe8743b12a862380e9a699",
      "networkId": 0,
      "chainId": 0
    },
    {
      "hash": "0x4df653b1cca9e7269ca7bcbd3c5820241c6386b250cc20df27492dc28c86fac8",
      "blockHash": "0x300c51a6417a491c0c38b71ce8a5e23d0ca2d411ad9204294cf1453abfe38cd5",
      "blockNumber": 84264,
      "transactionIndex": 9,
      "confirmations": null,
      "from": "0xe6A7a1d47ff21B6321162AEA7C6CB457D5476Bca",
      "gasPrice": {
        "_hex": "0xddf9fd548"
      },
      "gasLimit": {
        "_hex": "0x55f0"
      },
      "to": "0xD9666150A9dA92d9108198a4072970805a8B3428",
      "value": {
        "_hex": "0x234984d3d2df8328"
      },
      "nonce": 1557,
      "data": "0x",
      "r": "0x2f4dddab39ed1bfa9ada33179325f00b546fea9ee4dd25f6dbae90c1d8334df9",
      "s": "0x79ba40442d55cfcfc2dee88288ec1dd1b9c73c6b38d8c02592ffaa5fde04cca0",
      "v": 28,
      "creates": null,
      "raw": "0xf86e820615850ddf9fd5488255f094d9666150a9da92d9108198a4072970805a8b342888234984d3d2df8328801ca02f4dddab39ed1bfa9ada33179325f00b546fea9ee4dd25f6dbae90c1d8334df9a079ba40442d55cfcfc2dee88288ec1dd1b9c73c6b38d8c02592ffaa5fde04cca0",
      "networkId": 0,
      "chainId": 0
    },
    {
      "hash": "0x89a245ee9f43d078f11828c27e8eed1d8a4d0260a1d8309b8c689d4fd1dddf88",
      "blockHash": "0x300c51a6417a491c0c38b71ce8a5e23d0ca2d411ad9204294cf1453abfe38cd5",
      "blockNumber": 84264,
      "transactionIndex": 10,
      "confirmations": null,
      "from": "0xe6A7a1d47ff21B6321162AEA7C6CB457D5476Bca",
      "gasPrice": {
        "_hex": "0xddf9fd548"
      },
      "gasLimit": {
        "_hex": "0x55f0"
      },
      "to": "0x9900467341E2d122D382794f203a0Fa60f42e508",
      "value": {
        "_hex": "0x234c62c1c15f3908"
      },
      "nonce": 1558,
      "data": "0x",
      "r": "0x79e335d928513bcedab6020a79547072748fd79df1707df6f6c599bed71534fd",
      "s": "0x148470e9edf752936a364d8fecc59a64337b52d2e5049a6297d83fae3df01c2c",
      "v": 28,
      "creates": null,
      "raw": "0xf86e820616850ddf9fd5488255f0949900467341e2d122d382794f203a0fa60f42e50888234c62c1c15f3908801ca079e335d928513bcedab6020a79547072748fd79df1707df6f6c599bed71534fda0148470e9edf752936a364d8fecc59a64337b52d2e5049a6297d83fae3df01c2c",
      "networkId": 0,
      "chainId": 0
    },
    {
      "hash": "0xe815ff4e39c8d224517838668247ae8f95e4c528a1308fe628918a3301d0f45a",
      "blockHash": "0x300c51a6417a491c0c38b71ce8a5e23d0ca2d411ad9204294cf1453abfe38cd5",
      "blockNumber": 84264,
      "transactionIndex": 11,
      "confirmations": null,
      "from": "0xe6A7a1d47ff21B6321162AEA7C6CB457D5476Bca",
      "gasPrice": {
        "_hex": "0xddf9fd548"
      },
      "gasLimit": {
        "_hex": "0x55f0"
      },
      "to": "0x5C2422A39Bcb8E469423cA039cf2b89BbE55E93E",
      "value": {
        "_hex": "0x23ab37a97a5c29c8"
      },
      "nonce": 1559,
      "data": "0x",
      "r": "0x0b9c4c3a5d4c1cc7c3b356a750438ed13f939592c1b03154891b76690e0f4e62",
      "s": "0x2dbff18c258613f2fc2ef3ae1d59100afb52611c2a6bd35462e4c645c03a79ea",
      "v": 27,
      "creates": null,
      "raw": "0xf86e820617850ddf9fd5488255f0945c2422a39bcb8e469423ca039cf2b89bbe55e93e8823ab37a97a5c29c8801ba00b9c4c3a5d4c1cc7c3b356a750438ed13f939592c1b03154891b76690e0f4e62a02dbff18c258613f2fc2ef3ae1d59100afb52611c2a6bd35462e4c645c03a79ea",
      "networkId": 0,
      "chainId": 0
    },
    {
      "hash": "0x64e63e0c5eacdd93e49768a541f39df8ed88ab99d5566f477c34eb0f91bad828",
      "blockHash": "0x300c51a6417a491c0c38b71ce8a5e23d0ca2d411ad9204294cf1453abfe38cd5",
      "blockNumber": 84264,
      "transactionIndex": 12,
      "confirmations": null,
      "from": "0xe6A7a1d47ff21B6321162AEA7C6CB457D5476Bca",
      "gasPrice": {
        "_hex": "0xddf9fd548"
      },
      "gasLimit": {
        "_hex": "0x55f0"
      },
      "to": "0x83B72f566f6ef3fd4a25C58119809f846602292C",
      "value": {
        "_hex": "0x23f57cff2caea440"
      },
      "nonce": 1560,
      "data": "0x",
      "r": "0xe22f7b9f3a91c7783a175a43338c82dfbf5647b3731fb42e5a7e0b3b3104292b",
      "s": "0x0abc15dc609f076df50059a4f66c13fbfc1034ad994bf95a9e3fb18a722e0567",
      "v": 27,
      "creates": null,
      "raw": "0xf86e820618850ddf9fd5488255f09483b72f566f6ef3fd4a25c58119809f846602292c8823f57cff2caea440801ba0e22f7b9f3a91c7783a175a43338c82dfbf5647b3731fb42e5a7e0b3b3104292ba00abc15dc609f076df50059a4f66c13fbfc1034ad994bf95a9e3fb18a722e0567",
      "networkId": 0,
      "chainId": 0
    },
    {
      "hash": "0x252c8d780890eebd64abff366c06502f7509441ec7fd2ed3ef35c06552e87a97",
      "blockHash": "0x300c51a6417a491c0c38b71ce8a5e23d0ca2d411ad9204294cf1453abfe38cd5",
      "blockNumber": 84264,
      "transactionIndex": 13,
      "confirmations": null,
      "from": "0xe6A7a1d47ff21B6321162AEA7C6CB457D5476Bca",
      "gasPrice": {
        "_hex": "0xddf9fd548"
      },
      "gasLimit": {
        "_hex": "0x55f0"
      },
      "to": "0x8eB3FbB4A0Cc2366e88FB476df63D3Ad6907907b",
      "value": {
        "_hex": "0x2449e51d55ff1f98"
      },
      "nonce": 1561,
      "data": "0x",
      "r": "0x4b23d7e6817574a9e3c0068c85bc0c3fa75fd3c47ec0411453bc6810eacf2a5b",
      "s": "0x4dfaf395d36d1d29c3943ed1416d1359426e2513dbe30416cea9f7ed5c88ec56",
      "v": 28,
      "creates": null,
      "raw": "0xf86e820619850ddf9fd5488255f0948eb3fbb4a0cc2366e88fb476df63d3ad6907907b882449e51d55ff1f98801ca04b23d7e6817574a9e3c0068c85bc0c3fa75fd3c47ec0411453bc6810eacf2a5ba04dfaf395d36d1d29c3943ed1416d1359426e2513dbe30416cea9f7ed5c88ec56",
      "networkId": 0,
      "chainId": 0
    },
    {
      "hash": "0x8f498e3f2142953e92d96631fecfc8fdc004df1d774470327e36c324bc03e69c",
      "blockHash": "0x300c51a6417a491c0c38b71ce8a5e23d0ca2d411ad9204294cf1453abfe38cd5",
      "blockNumber": 84264,
      "transactionIndex": 14,
      "confirmations": null,
      "from": "0xe6A7a1d47ff21B6321162AEA7C6CB457D5476Bca",
      "gasPrice": {
        "_hex": "0xddf9fd548"
      },
      "gasLimit": {
        "_hex": "0x55f0"
      },
      "to": "0xC8E18619E6F0976FC389a37cba21bc6d080284ee",
      "value": {
        "_hex": "0x24609b7c4d52e970"
      },
      "nonce": 1562,
      "data": "0x",
      "r": "0x9f2c1dd457fa22c377aa2e08670b6da299957c6a423f2a3c19cbaeb2be0ca403",
      "s": "0x3fd70d9adf0add3b0d6a7cb7665c5dab819f56eb5bf52bb6b8574657d3d0e360",
      "v": 27,
      "creates": null,
      "raw": "0xf86e82061a850ddf9fd5488255f094c8e18619e6f0976fc389a37cba21bc6d080284ee8824609b7c4d52e970801ba09f2c1dd457fa22c377aa2e08670b6da299957c6a423f2a3c19cbaeb2be0ca403a03fd70d9adf0add3b0d6a7cb7665c5dab819f56eb5bf52bb6b8574657d3d0e360",
      "networkId": 0,
      "chainId": 0
    },
    {
      "hash": "0xc5c063e6ad930f68afca37a0efd21d07a7238c4fc1c443c75a7684a706eb6bd1",
      "blockHash": "0x300c51a6417a491c0c38b71ce8a5e23d0ca2d411ad9204294cf1453abfe38cd5",
      "blockNumber": 84264,
      "transactionIndex": 15,
      "confirmations": null,
      "from": "0xe6A7a1d47ff21B6321162AEA7C6CB457D5476Bca",
      "gasPrice": {
        "_hex": "0xddf9fd548"
      },
      "gasLimit": {
        "_hex": "0x55f0"
      },
      "to": "0x9746c7e1ef2bd21FF3997fa467593a89cb852BD0",
      "value": {
        "_hex": "0x248f438e397e9424"
      },
      "nonce": 1563,
      "data": "0x",
      "r": "0xc8cc67ce2264979991cf72871f7e97e0492fa754fcfa84b60a7a93ce5f585fac",
      "s": "0x02fe232877cec280a370f7b56e8915bb8c8947cf17b99439997b411c1d7602ce",
      "v": 28,
      "creates": null,
      "raw": "0xf86e82061b850ddf9fd5488255f0949746c7e1ef2bd21ff3997fa467593a89cb852bd088248f438e397e9424801ca0c8cc67ce2264979991cf72871f7e97e0492fa754fcfa84b60a7a93ce5f585faca002fe232877cec280a370f7b56e8915bb8c8947cf17b99439997b411c1d7602ce",
      "networkId": 0,
      "chainId": 0
    },
    {
      "hash": "0xb90880d833167e87ce3c3c23987e018bb54ee2ee54b476e85ddce1576a0f00f9",
      "blockHash": "0x300c51a6417a491c0c38b71ce8a5e23d0ca2d411ad9204294cf1453abfe38cd5",
      "blockNumber": 84264,
      "transactionIndex": 16,
      "confirmations": null,
      "from": "0xe6A7a1d47ff21B6321162AEA7C6CB457D5476Bca",
      "gasPrice": {
        "_hex": "0xddf9fd548"
      },
      "gasLimit": {
        "_hex": "0x55f0"
      },
      "to": "0xB0798DE851A7C081C98966a7A0eE5C14231FB447",
      "value": {
        "_hex": "0x24d20091d277ac30"
      },
      "nonce": 1564,
      "data": "0x",
      "r": "0xd28b4a088a8ef3cdeac74e88d33eca2a3af8a2022aa77b46742045433637b00b",
      "s": "0x43e6a8b0928d81d72a33e6b1cb96513aa8103fa4b99f5ba654d863a0ef8b8974",
      "v": 28,
      "creates": null,
      "raw": "0xf86e82061c850ddf9fd5488255f094b0798de851a7c081c98966a7a0ee5c14231fb4478824d20091d277ac30801ca0d28b4a088a8ef3cdeac74e88d33eca2a3af8a2022aa77b46742045433637b00ba043e6a8b0928d81d72a33e6b1cb96513aa8103fa4b99f5ba654d863a0ef8b8974",
      "networkId": 0,
      "chainId": 0
    },
    {
      "hash": "0x8be4cc4eab7f4ae6d8ade8bebc3006efb0b584ce23fbb8266154c3273817920f",
      "blockHash": "0x300c51a6417a491c0c38b71ce8a5e23d0ca2d411ad9204294cf1453abfe38cd5",
      "blockNumber": 84264,
      "transactionIndex": 17,
      "confirmations": null,
      "from": "0xe6A7a1d47ff21B6321162AEA7C6CB457D5476Bca",
      "gasPrice": {
        "_hex": "0xddf9fd548"
      },
      "gasLimit": {
        "_hex": "0x55f0"
      },
      "to": "0x3F587446d527E3a66c695E46D735838500fA92fe",
      "value": {
        "_hex": "0x251a3a19310d5f20"
      },
      "nonce": 1565,
      "data": "0x",
      "r": "0x0eb68fa1fbbab5995b9bbdbf8637fdd4180e0d75bc8d86fcceca57b061cabc8c",
      "s": "0x4ad09ecf07fa7db159171c37862549a94734d538256892e95d8369ce1fba9ee8",
      "v": 27,
      "creates": null,
      "raw": "0xf86e82061d850ddf9fd5488255f0943f587446d527e3a66c695e46d735838500fa92fe88251a3a19310d5f20801ba00eb68fa1fbbab5995b9bbdbf8637fdd4180e0d75bc8d86fcceca57b061cabc8ca04ad09ecf07fa7db159171c37862549a94734d538256892e95d8369ce1fba9ee8",
      "networkId": 0,
      "chainId": 0
    },
    {
      "hash": "0x3b66678e24f40c9674a03f630815b618776e652decdb094c12a1648611fe2983",
      "blockHash": "0x300c51a6417a491c0c38b71ce8a5e23d0ca2d411ad9204294cf1453abfe38cd5",
      "blockNumber": 84264,
      "transactionIndex": 18,
      "confirmations": null,
      "from": "0xe6A7a1d47ff21B6321162AEA7C6CB457D5476Bca",
      "gasPrice": {
        "_hex": "0xddf9fd548"
      },
      "gasLimit": {
        "_hex": "0x55f0"
      },
      "to": "0xC5d30A49174e1a78D4b8a71824e78563cB041e94",
      "value": {
        "_hex": "0x251ba4fa650c9dfc"
      },
      "nonce": 1566,
      "data": "0x",
      "r": "0x3feef2bc15c2005bef3b94609bb70cc48475bf1ea0a19e86fa2b4dcbf146ea4f",
      "s": "0x057d682f1bdcf6e5da76fe39e57a0c21caa3d96c8b6ede736aadc5b60126ef35",
      "v": 27,
      "creates": null,
      "raw": "0xf86e82061e850ddf9fd5488255f094c5d30a49174e1a78d4b8a71824e78563cb041e9488251ba4fa650c9dfc801ba03feef2bc15c2005bef3b94609bb70cc48475bf1ea0a19e86fa2b4dcbf146ea4fa0057d682f1bdcf6e5da76fe39e57a0c21caa3d96c8b6ede736aadc5b60126ef35",
      "networkId": 0,
      "chainId": 0
    },
    {
      "hash": "0x2a7edfacbb94ce1cb8c828da3757d2d949b9d6d27fa4f8e8deca761430a3ecee",
      "blockHash": "0x300c51a6417a491c0c38b71ce8a5e23d0ca2d411ad9204294cf1453abfe38cd5",
      "blockNumber": 84264,
      "transactionIndex": 19,
      "confirmations": null,
      "from": "0xe6A7a1d47ff21B6321162AEA7C6CB457D5476Bca",
      "gasPrice": {
        "_hex": "0xddf9fd548"
      },
      "gasLimit": {
        "_hex": "0x55f0"
      },
      "to": "0xA1A13F48D504123E1d50e360267F894e8e43838c",
      "value": {
        "_hex": "0x251fd28d9c95aee8"
      },
      "nonce": 1567,
      "data": "0x",
      "r": "0xf6d99afcef867277058fe6b987c5404b23a7359fcd14bda2c835ebb010932740",
      "s": "0x7ba384ba6ba2f7322cdc247402a132d2e246921135d4e30be41035dacd77ae57",
      "v": 27,
      "creates": null,
      "raw": "0xf86e82061f850ddf9fd5488255f094a1a13f48d504123e1d50e360267f894e8e43838c88251fd28d9c95aee8801ba0f6d99afcef867277058fe6b987c5404b23a7359fcd14bda2c835ebb010932740a07ba384ba6ba2f7322cdc247402a132d2e246921135d4e30be41035dacd77ae57",
      "networkId": 0,
      "chainId": 0
    },
    {
      "hash": "0x9b9e91a4c66577a7e3437fdc20492686d560e276bb7fd1f7d649039b33264593",
      "blockHash": "0x300c51a6417a491c0c38b71ce8a5e23d0ca2d411ad9204294cf1453abfe38cd5",
      "blockNumber": 84264,
      "transactionIndex": 20,
      "confirmations": null,
      "from": "0xe6A7a1d47ff21B6321162AEA7C6CB457D5476Bca",
      "gasPrice": {
        "_hex": "0xddf9fd548"
      },
      "gasLimit": {
        "_hex": "0x55f0"
      },
      "to": "0x1CC77ed71531833bAC1eA0E757Cd150dCD297920",
      "value": {
        "_hex": "0x257a89dfa5100c1c"
      },
      "nonce": 1568,
      "data": "0x",
      "r": "0x8ebbb8ab64c9025cfba95c52cf5e5bf50dd25de70b8d6558824809266470b452",
      "s": "0x438a671b2d6bdb8de8ba758f6d0495757bbc2cb2c9e67c489db1f842480223ad",
      "v": 28,
      "creates": null,
      "raw": "0xf86e820620850ddf9fd5488255f0941cc77ed71531833bac1ea0e757cd150dcd29792088257a89dfa5100c1c801ca08ebbb8ab64c9025cfba95c52cf5e5bf50dd25de70b8d6558824809266470b452a0438a671b2d6bdb8de8ba758f6d0495757bbc2cb2c9e67c489db1f842480223ad",
      "networkId": 0,
      "chainId": 0
    },
    {
      "hash": "0x2efec37d05d65e59bed2389f1c45ca4459da67ab23f4cad1d47a4b78edf8e55b",
      "blockHash": "0x300c51a6417a491c0c38b71ce8a5e23d0ca2d411ad9204294cf1453abfe38cd5",
      "blockNumber": 84264,
      "transactionIndex": 21,
      "confirmations": null,
      "from": "0xe6A7a1d47ff21B6321162AEA7C6CB457D5476Bca",
      "gasPrice": {
        "_hex": "0xddf9fd548"
      },
      "gasLimit": {
        "_hex": "0x55f0"
      },
      "to": "0x0F7606315036EF870B5D92Cd9e52b8d4f771a7eA",
      "value": {
        "_hex": "0x25d44afb3a667004"
      },
      "nonce": 1569,
      "data": "0x",
      "r": "0xe25d02e0e4db5e0be07e174c95e8dd53e43083a2fdfd0c0715719bacf4fb4d74",
      "s": "0x181a94c27269ea0b8ab97dee33d22f7d18784e0c16626b2b98e1410f0a8c056f",
      "v": 28,
      "creates": null,
      "raw": "0xf86e820621850ddf9fd5488255f0940f7606315036ef870b5d92cd9e52b8d4f771a7ea8825d44afb3a667004801ca0e25d02e0e4db5e0be07e174c95e8dd53e43083a2fdfd0c0715719bacf4fb4d74a0181a94c27269ea0b8ab97dee33d22f7d18784e0c16626b2b98e1410f0a8c056f",
      "networkId": 0,
      "chainId": 0
    },
    {
      "hash": "0x06761c99c6f29645bc25f07888dd4a166d79b8e2e440e9dfe969590dbdb6be9a",
      "blockHash": "0x300c51a6417a491c0c38b71ce8a5e23d0ca2d411ad9204294cf1453abfe38cd5",
      "blockNumber": 84264,
      "transactionIndex": 22,
      "confirmations": null,
      "from": "0xe6A7a1d47ff21B6321162AEA7C6CB457D5476Bca",
      "gasPrice": {
        "_hex": "0xddf9fd548"
      },
      "gasLimit": {
        "_hex": "0x55f0"
      },
      "to": "0x5c34E9095588400B7CFF963daa495eFbEFCa083E",
      "value": {
        "_hex": "0x25dfd59ce67c5e08"
      },
      "nonce": 1570,
      "data": "0x",
      "r": "0xa00cf71aa8bc32ceef7ee3627b6979169b5d240ec1bab623d975d8a6c8e9d94b",
      "s": "0x1a31001b9c5c33dd7a0f23dc961e9859ac52cfdfbc068330b33fd9125e8a24c3",
      "v": 27,
      "creates": null,
      "raw": "0xf86e820622850ddf9fd5488255f0945c34e9095588400b7cff963daa495efbefca083e8825dfd59ce67c5e08801ba0a00cf71aa8bc32ceef7ee3627b6979169b5d240ec1bab623d975d8a6c8e9d94ba01a31001b9c5c33dd7a0f23dc961e9859ac52cfdfbc068330b33fd9125e8a24c3",
      "networkId": 0,
      "chainId": 0
    },
    {
      "hash": "0xdaf7bfdbede8c75591a5c3eac7df5f63250362b21036f01983017071ac2c4e5c",
      "blockHash": "0x300c51a6417a491c0c38b71ce8a5e23d0ca2d411ad9204294cf1453abfe38cd5",
      "blockNumber": 84264,
      "transactionIndex": 23,
      "confirmations": null,
      "from": "0xe6A7a1d47ff21B6321162AEA7C6CB457D5476Bca",
      "gasPrice": {
        "_hex": "0xddf9fd548"
      },
      "gasLimit": {
        "_hex": "0x55f0"
      },
      "to": "0xF8Fca9e38A8bc846BE8ea3B37bb94ea23B475D2F",
      "value": {
        "_hex": "0x25f15790e5ab25f4"
      },
      "nonce": 1571,
      "data": "0x",
      "r": "0x4538990af33193d52e27723e66926e5bbe9c7f26ba84e80c1fe1fec4fc8b67d2",
      "s": "0x0bd79eb6f0a5c6898934c12cce5eab35dcfd02829f8fb1157c7a2fbf0e92d549",
      "v": 28,
      "creates": null,
      "raw": "0xf86e820623850ddf9fd5488255f094f8fca9e38a8bc846be8ea3b37bb94ea23b475d2f8825f15790e5ab25f4801ca04538990af33193d52e27723e66926e5bbe9c7f26ba84e80c1fe1fec4fc8b67d2a00bd79eb6f0a5c6898934c12cce5eab35dcfd02829f8fb1157c7a2fbf0e92d549",
      "networkId": 0,
      "chainId": 0
    },
    {
      "hash": "0x807074b8ab23efff92eeaa2c8782532125fa4b5e9e28cdc5b11016e10614440f",
      "blockHash": "0x300c51a6417a491c0c38b71ce8a5e23d0ca2d411ad9204294cf1453abfe38cd5",
      "blockNumber": 84264,
      "transactionIndex": 24,
      "confirmations": null,
      "from": "0xe6A7a1d47ff21B6321162AEA7C6CB457D5476Bca",
      "gasPrice": {
        "_hex": "0xddf9fd548"
      },
      "gasLimit": {
        "_hex": "0x55f0"
      },
      "to": "0x91d32201228cd1Dea4e21d71f7A9e0CeF5de4A39",
      "value": {
        "_hex": "0x261e87d1d10c9828"
      },
      "nonce": 1572,
      "data": "0x",
      "r": "0x4a93e0d33e4f472933a1402e57370c5ee621a100a08c4ab783698e1ab2f062ef",
      "s": "0x0810ad2dcb0654019a609818454271906345b8929bac35227f472b72ad7be3b8",
      "v": 28,
      "creates": null,
      "raw": "0xf86e820624850ddf9fd5488255f09491d32201228cd1dea4e21d71f7a9e0cef5de4a3988261e87d1d10c9828801ca04a93e0d33e4f472933a1402e57370c5ee621a100a08c4ab783698e1ab2f062efa00810ad2dcb0654019a609818454271906345b8929bac35227f472b72ad7be3b8",
      "networkId": 0,
      "chainId": 0
    },
    {
      "hash": "0x6055be83135ea593fae422f260b932768e5d6633dd2ecebfffe51dae4c7ec9bd",
      "blockHash": "0x300c51a6417a491c0c38b71ce8a5e23d0ca2d411ad9204294cf1453abfe38cd5",
      "blockNumber": 84264,
      "transactionIndex": 25,
      "confirmations": null,
      "from": "0xe6A7a1d47ff21B6321162AEA7C6CB457D5476Bca",
      "gasPrice": {
        "_hex": "0xddf9fd548"
      },
      "gasLimit": {
        "_hex": "0x55f0"
      },
      "to": "0xbb30e448B72d6Fdd44973A4C7a312F92f22C8F07",
      "value": {
        "_hex": "0x2627c114687d4138"
      },
      "nonce": 1573,
      "data": "0x",
      "r": "0x01ab5b1c72ca25eb5539550541956de57c4d4645aa9023d73e8c91be64557705",
      "s": "0x08ae1882321550c83193850ee6bd1f68956c894445dbf177379e254a8b28fbb3",
      "v": 28,
      "creates": null,
      "raw": "0xf86e820625850ddf9fd5488255f094bb30e448b72d6fdd44973a4c7a312f92f22c8f07882627c114687d4138801ca001ab5b1c72ca25eb5539550541956de57c4d4645aa9023d73e8c91be64557705a008ae1882321550c83193850ee6bd1f68956c894445dbf177379e254a8b28fbb3",
      "networkId": 0,
      "chainId": 0
    },
    {
      "hash": "0x752d4a79f0a147851b19032a7eebb8262a5c6a814fdfbcac3c4204a186a05d25",
      "blockHash": "0x300c51a6417a491c0c38b71ce8a5e23d0ca2d411ad9204294cf1453abfe38cd5",
      "blockNumber": 84264,
      "transactionIndex": 26,
      "confirmations": null,
      "from": "0xe6A7a1d47ff21B6321162AEA7C6CB457D5476Bca",
      "gasPrice": {
        "_hex": "0xddf9fd548"
      },
      "gasLimit": {
        "_hex": "0x55f0"
      },
      "to": "0x202833e8072EDc2bcD3b718CEE181919ed39f54B",
      "value": {
        "_hex": "0x263190171d10c7fc"
      },
      "nonce": 1574,
      "data": "0x",
      "r": "0xaafc6da382cd8facad7e3c34f7079a94bdc767d9419f6b02b97f66f5825bc2c3",
      "s": "0x2a8ba1130d69bfda9f7c7570c622fd29915ea4c4240f5f3795e1cf8ad80e0075",
      "v": 27,
      "creates": null,
      "raw": "0xf86e820626850ddf9fd5488255f094202833e8072edc2bcd3b718cee181919ed39f54b88263190171d10c7fc801ba0aafc6da382cd8facad7e3c34f7079a94bdc767d9419f6b02b97f66f5825bc2c3a02a8ba1130d69bfda9f7c7570c622fd29915ea4c4240f5f3795e1cf8ad80e0075",
      "networkId": 0,
      "chainId": 0
    },
    {
      "hash": "0x3f92672ae17cb882f7ba517c698b37a206ccbe84bf651871b1ec844cc69db947",
      "blockHash": "0x300c51a6417a491c0c38b71ce8a5e23d0ca2d411ad9204294cf1453abfe38cd5",
      "blockNumber": 84264,
      "transactionIndex": 27,
      "confirmations": null,
      "from": "0xe6A7a1d47ff21B6321162AEA7C6CB457D5476Bca",
      "gasPrice": {
        "_hex": "0xddf9fd548"
      },
      "gasLimit": {
        "_hex": "0x55f0"
      },
      "to": "0x4C9560759adF54ABEdd7318d1413C4fA49240074",
      "value": {
        "_hex": "0x2636630bd87cdbf4"
      },
      "nonce": 1575,
      "data": "0x",
      "r": "0xe800dd1d9ab72ae084b0064ed40994fac5124af75875446468996b7a4c7571d4",
      "s": "0x68a0a72600015dc41acb5442cd26a4ef5e0c5625ad72a56cdf7f2cdd27c071ad",
      "v": 27,
      "creates": null,
      "raw": "0xf86e820627850ddf9fd5488255f0944c9560759adf54abedd7318d1413c4fa49240074882636630bd87cdbf4801ba0e800dd1d9ab72ae084b0064ed40994fac5124af75875446468996b7a4c7571d4a068a0a72600015dc41acb5442cd26a4ef5e0c5625ad72a56cdf7f2cdd27c071ad",
      "networkId": 0,
      "chainId": 0
    },
    {
      "hash": "0x77f9d67c6263035a8bbe55e5ecdfbf41b2dde92b8dc0bd11e0b405fcc516c24d",
      "blockHash": "0x300c51a6417a491c0c38b71ce8a5e23d0ca2d411ad9204294cf1453abfe38cd5",
      "blockNumber": 84264,
      "transactionIndex": 28,
      "confirmations": null,
      "from": "0xe6A7a1d47ff21B6321162AEA7C6CB457D5476Bca",
      "gasPrice": {
        "_hex": "0xddf9fd548"
      },
      "gasLimit": {
        "_hex": "0x55f0"
      },
      "to": "0x9B80BD38c4afE0942F8029298A11fACe85ce4cAF",
      "value": {
        "_hex": "0x266c0fc61315b780"
      },
      "nonce": 1576,
      "data": "0x",
      "r": "0x54c3193204f9f7723d4289d7e38e6de6ad5aa6ec474fdf88705b3c54ea6996dc",
      "s": "0x148a70e7ccaa6e17bd5c99fec82ddb97b402019d6a10994f89aee42fdba8d79a",
      "v": 28,
      "creates": null,
      "raw": "0xf86e820628850ddf9fd5488255f0949b80bd38c4afe0942f8029298a11face85ce4caf88266c0fc61315b780801ca054c3193204f9f7723d4289d7e38e6de6ad5aa6ec474fdf88705b3c54ea6996dca0148a70e7ccaa6e17bd5c99fec82ddb97b402019d6a10994f89aee42fdba8d79a",
      "networkId": 0,
      "chainId": 0
    },
    {
      "hash": "0x6fe594bf0fb7339aafe7f06f4cb0668be5f47b728e96aa7209de9a3ffea41493",
      "blockHash": "0x300c51a6417a491c0c38b71ce8a5e23d0ca2d411ad9204294cf1453abfe38cd5",
      "blockNumber": 84264,
      "transactionIndex": 29,
      "confirmations": null,
      "from": "0xe6A7a1d47ff21B6321162AEA7C6CB457D5476Bca",
      "gasPrice": {
        "_hex": "0xddf9fd548"
      },
      "gasLimit": {
        "_hex": "0x55f0"
      },
      "to": "0xD9DE820A23C38bCfE281630df2c89511CB833D03",
      "value": {
        "_hex": "0x2689ee4d12ee7228"
      },
      "nonce": 1577,
      "data": "0x",
      "r": "0x15b68d82683087fed072939527d7e7d57cffe4d430ae56c4701c74e5613c7dc0",
      "s": "0x1903ec303c1e41d637cd5866eb4b9803ae52b6ae6999773aeb241e8786cfcf16",
      "v": 27,
      "creates": null,
      "raw": "0xf86e820629850ddf9fd5488255f094d9de820a23c38bcfe281630df2c89511cb833d03882689ee4d12ee7228801ba015b68d82683087fed072939527d7e7d57cffe4d430ae56c4701c74e5613c7dc0a01903ec303c1e41d637cd5866eb4b9803ae52b6ae6999773aeb241e8786cfcf16",
      "networkId": 0,
      "chainId": 0
    },
    {
      "hash": "0xedf3e34cfe0e14d008d7cbf957e9cb32c7529919ee615f4c1bf0a957b99493c0",
      "blockHash": "0x300c51a6417a491c0c38b71ce8a5e23d0ca2d411ad9204294cf1453abfe38cd5",
      "blockNumber": 84264,
      "transactionIndex": 30,
      "confirmations": null,
      "from": "0xe6A7a1d47ff21B6321162AEA7C6CB457D5476Bca",
      "gasPrice": {
        "_hex": "0xddf9fd548"
      },
      "gasLimit": {
        "_hex": "0x55f0"
      },
      "to": "0xE7dAdedf7cEBAaBa85903823D254601B1D459C9B",
      "value": {
        "_hex": "0x269c929db7d84be0"
      },
      "nonce": 1578,
      "data": "0x",
      "r": "0x1d172005045ff439033e3395dd06f72fa2a5362c558e564136697b3a9f069379",
      "s": "0x63af55234af952c148e931f33be14d06025561b6a2252015049f115b4819ea37",
      "v": 28,
      "creates": null,
      "raw": "0xf86e82062a850ddf9fd5488255f094e7dadedf7cebaaba85903823d254601b1d459c9b88269c929db7d84be0801ca01d172005045ff439033e3395dd06f72fa2a5362c558e564136697b3a9f069379a063af55234af952c148e931f33be14d06025561b6a2252015049f115b4819ea37",
      "networkId": 0,
      "chainId": 0
    },
    {
      "hash": "0x736457e8cfae3e616f29d790a8ee4dd36a4e66beb197501fe500a2605d55fa34",
      "blockHash": "0x300c51a6417a491c0c38b71ce8a5e23d0ca2d411ad9204294cf1453abfe38cd5",
      "blockNumber": 84264,
      "transactionIndex": 31,
      "confirmations": null,
      "from": "0xe6A7a1d47ff21B6321162AEA7C6CB457D5476Bca",
      "gasPrice": {
        "_hex": "0xddf9fd548"
      },
      "gasLimit": {
        "_hex": "0x55f0"
      },
      "to": "0x4F2B8001a7022812Fdd958AA86dD63e2b8B994C1",
      "value": {
        "_hex": "0x26a7da32aee34110"
      },
      "nonce": 1579,
      "data": "0x",
      "r": "0x4719d3cd501241cfc7a81adb2098c972abdc67d745992c6c5f46261f0c893af7",
      "s": "0x67ef6a4e349f2b3a2e0cd26fbd4a2b6d0a8e23a3402f4aacfe85be499250cccf",
      "v": 28,
      "creates": null,
      "raw": "0xf86e82062b850ddf9fd5488255f0944f2b8001a7022812fdd958aa86dd63e2b8b994c18826a7da32aee34110801ca04719d3cd501241cfc7a81adb2098c972abdc67d745992c6c5f46261f0c893af7a067ef6a4e349f2b3a2e0cd26fbd4a2b6d0a8e23a3402f4aacfe85be499250cccf",
      "networkId": 0,
      "chainId": 0
    },
    {
      "hash": "0xe1d4ea4e78f25ef91afb80dbd241f1cb44af8c6a475bd6ed8a70f17f01d747dd",
      "blockHash": "0x300c51a6417a491c0c38b71ce8a5e23d0ca2d411ad9204294cf1453abfe38cd5",
      "blockNumber": 84264,
      "transactionIndex": 32,
      "confirmations": null,
      "from": "0xe6A7a1d47ff21B6321162AEA7C6CB457D5476Bca",
      "gasPrice": {
        "_hex": "0xddf9fd548"
      },
      "gasLimit": {
        "_hex": "0x55f0"
      },
      "to": "0x3890681569061d29Ca2E22c131F532270871ef65",
      "value": {
        "_hex": "0x26c147176b1a9e18"
      },
      "nonce": 1580,
      "data": "0x",
      "r": "0x8799ff2141e38e01aba69ce3076a71f3e9551b124811b86f26de1fc840043f19",
      "s": "0x01aa5e4ef8cbc87dcc81b6869550e0316a715930eb1d589a831c617659da8ced",
      "v": 28,
      "creates": null,
      "raw": "0xf86e82062c850ddf9fd5488255f0943890681569061d29ca2e22c131f532270871ef658826c147176b1a9e18801ca08799ff2141e38e01aba69ce3076a71f3e9551b124811b86f26de1fc840043f19a001aa5e4ef8cbc87dcc81b6869550e0316a715930eb1d589a831c617659da8ced",
      "networkId": 0,
      "chainId": 0
    },
    {
      "hash": "0x44af6ff2ccb64440dda80e165f10238a55d02c9b89a0d7021a20aaff1e9da2d4",
      "blockHash": "0x300c51a6417a491c0c38b71ce8a5e23d0ca2d411ad9204294cf1453abfe38cd5",
      "blockNumber": 84264,
      "transactionIndex": 33,
      "confirmations": null,
      "from": "0xe6A7a1d47ff21B6321162AEA7C6CB457D5476Bca",
      "gasPrice": {
        "_hex": "0xddf9fd548"
      },
      "gasLimit": {
        "_hex": "0x55f0"
      },
      "to": "0x3F6DDbC103F2999640fe4AFc6884708fa691C2b8",
      "value": {
        "_hex": "0x26e9a6cd4f9f05dc"
      },
      "nonce": 1581,
      "data": "0x",
      "r": "0xfb9ca8051765e6595362b1dff80d88d32aee4d00d4dd913f1efbe74e9d6c610e",
      "s": "0x41a0798d4f2a4bc9c8453c186b05548f34c8da1307a5967ff9ea7ddc9b2b1995",
      "v": 28,
      "creates": null,
      "raw": "0xf86e82062d850ddf9fd5488255f0943f6ddbc103f2999640fe4afc6884708fa691c2b88826e9a6cd4f9f05dc801ca0fb9ca8051765e6595362b1dff80d88d32aee4d00d4dd913f1efbe74e9d6c610ea041a0798d4f2a4bc9c8453c186b05548f34c8da1307a5967ff9ea7ddc9b2b1995",
      "networkId": 0,
      "chainId": 0
    },
    {
      "hash": "0xdd5a6c6826a5f8f654d46a9fca0e6f02e6d73720326bc008f5016ed95876b9d7",
      "blockHash": "0x300c51a6417a491c0c38b71ce8a5e23d0ca2d411ad9204294cf1453abfe38cd5",
      "blockNumber": 84264,
      "transactionIndex": 34,
      "confirmations": null,
      "from": "0xe6A7a1d47ff21B6321162AEA7C6CB457D5476Bca",
      "gasPrice": {
        "_hex": "0xddf9fd548"
      },
      "gasLimit": {
        "_hex": "0x55f0"
      },
      "to": "0xc47d9E6C75d388Aeb92574429dAD43A148f2f3ea",
      "value": {
        "_hex": "0x26ecf3ede5e46030"
      },
      "nonce": 1582,
      "data": "0x",
      "r": "0xebf7700ad1e917084fd47f1358a69feab12e047221d9d26923d4b5ef09874682",
      "s": "0x1d43e503990f25451263d5b92bde9ed972644d89a9513d4141bf69f1bc63c4c7",
      "v": 27,
      "creates": null,
      "raw": "0xf86e82062e850ddf9fd5488255f094c47d9e6c75d388aeb92574429dad43a148f2f3ea8826ecf3ede5e46030801ba0ebf7700ad1e917084fd47f1358a69feab12e047221d9d26923d4b5ef09874682a01d43e503990f25451263d5b92bde9ed972644d89a9513d4141bf69f1bc63c4c7",
      "networkId": 0,
      "chainId": 0
    }
  ]
}