{
  "hash": "0x9f014ac2a342fbf7e881018af21f30cce1735319091d24ffe1defac1fca5aff1",
  "parentHash": "0xf3892cf5a4fddfb095587519af415741729cc74ba9dc9196ed3ee0d4ebc95e86",
  "number": 113430,
  "timestamp": 1440023417,
  "nonce": "0xa0c16ce287aebcec",
  "difficulty": 4462475619018,
  "gasLimit": {
    "_hex": "0x2fefd8"
  },
  "gasUsed": {
    "_hex": "0x5208"
  },
  "miner": "0xe6A7a1d47ff21B6321162AEA7C6CB457D5476Bca",
  "extraData": "0x476574682f76312e302e312d38326566323666362f6c696e75782f676f312e34",
  "transactions": [
    {
      "hash": "0x41e17f6d516995a19bae4fe53240a8689de9267e99715ba670fa92745010f54b",
      "blockHash": "0x9f014ac2a342fbf7e881018af21f30cce1735319091d24ffe1defac1fca5aff1",
      "blockNumber": 113430,
      "transactionIndex": 0,
      "confirmations": null,
      "from": "0xcC26443fa886eca41C2c5aE022228246e376d352",
      "gasPrice": {
        "_hex": "0xba43b7400"
      },
      "gasLimit": {
        "_hex": "0x5208"
      },
      "to": "0xC47Aaa860008be6f65B58c6C6E02a84e666EfE31",
      "value": {
        "_hex": "0x1b0d0065371ae7ead0"
      },
      "nonce": 1,
      "data": "0x",
      "r": "0x392f73f2038655d6d1bef8e27a7d74b58347fa1dde603a0d5f648ac94bbdb5e7",
      "s": "0x5f7e677e830d854a3f8772c7ac695e916f175fe6da5c6b5c00e8befda51a820e",
      "v": 28,
      "creates": null,
      "raw": "0xf86d01850ba43b740082520894c47aaa860008be6f65b58c6c6e02a84e666efe31891b0d0065371ae7ead0801ca0392f73f2038655d6d1bef8e27a7d74b58347fa1dde603a0d5f648ac94bbdb5e7a05f7e677e830d854a3f8772c7ac695e916f175fe6da5c6b5c00e8befda51a820e",
      "networkId": 0,
      "chainId": 0
    }
  ]
}