{
  "hash": "0x43cd12cde85430cf86c71e9a4d22672eb6cf8841a2f7b7f4fe456c0f68b0a531",
  "parentHash": "0xd8f4c3f8a05eec146ea65b3d33d0e0b5e747cf9372d8bae1a8818f8015a6b74c",
  "number": 81295,
  "timestamp": 1439499421,
  "nonce": "0xc7bacd7e13bae7b5",
  "difficulty": 2446244418073,
  "gasLimit": {
    "_hex": "0x2fefd8"
  },
  "gasUsed": {
    "_hex": "0x5208"
  },
  "miner": "0x47ff6576639c2e94762eA5443978D7681C0E78DC",
  "extraData": "0x476574682f76312e302e312f6c696e75782f676f312e342e32",
  "transactions": [
    {
      "hash": "0xa7f15c2fb985381f9213123ad8f2602e247c66179ac56c4b5078dae80bf24970",
      "blockHash": "0x43cd12cde85430cf86c71e9a4d22672eb6cf8841a2f7b7f4fe456c0f68b0a531",
      "blockNumber": 81295,
      "transactionIndex": 0,
      "confirmations": null,
      "from": "0x120A270bbC009644e35F0bB6ab13f95b8199c4ad",
      "gasPrice": {
        "_hex": "0xdb0c93b16"
      },
      "gasLimit": {
        "_hex": "0x15f90"
      },
      "to": "0x645cd9bb0842A32f6B7F27Cab3389e4A2476450F",
      "value": {
        "_hex": "0x1dcd6500"
      },
      "nonce": 371,
      "data": "0x",
      "r": "0xc4173a5453c44d7d560bd8e41778710d6158f980120ed539259452827041e4d6",
      "s": "0x113b801e35775e5102402e8e7c34fd4cbf05a195eade0640909f0e68a04642a3",
      "v": 28,
      "creates": null,
      "raw": "0xf86b820173850db0c93b1683015f9094645cd9bb0842a32f6b7f27cab3389e4a2476450f841dcd6500801ca0c4173a5453c44d7d560bd8e41778710d6158f980120ed539259452827041e4d6a0113b801e35775e5102402e8e7c34fd4cbf05a195eade0640909f0e68a04642a3",
      "networkId": 0,
      "chainId": 0
    }
  ]
}