{
  "hash": "0x3ba09ef7565227a047f34df2b187a48cd41c38aaa6b7c8229c050245e8e24dac",
  "parentHash": "0x046c6c3308b04a1a693d380db53b862a5d64c53c826f042fffafaa1bcd51f2d6",
  "number": 53399,
  "timestamp": 1439037028,
  "nonce": "0xb9d3fe2d47464afa",
  "difficulty": 1590877318015,
  "gasLimit": {
    "_hex": "0x26fca6"
  },
  "gasUsed": {
    "_hex": "0x5208"
  },
  "miner": "0xbb7B8287f3F0a933474a79eAe42CBCa977791171",
  "extraData": "0x476574682f4c5649562f76312e302e312f6c696e75782f676f312e342e32",
  "transactions": [
    {
      "hash": "0x2cde19bcb0720fbb033b641bfd05ba3a030b5673f59d33ea6f95503dcb8a8088",
      "blockHash": "0x3ba09ef7565227a047f34df2b187a48cd41c38aaa6b7c8229c050245e8e24dac",
      "blockNumber": 53399,
      "transactionIndex": 0,
      "confirmations": null,
      "from": "0x47C247F53b9FBeb17Bba0703A00c009fdb0f6EaE",
      "gasPrice": {
        "_hex": "0xd7b1a03fb"
      },
      "gasLimit": {
        "_hex": "0x5208"
      },
      "to": "0x900C0aFc99968F30e64a7DEe5828042b6422a098",
      "value": {
        "_hex": "0x2d35efae54e4070000"
      },
      "nonce": 2,
      "data": "0x",
      "r": "0x12b00406ef1a2345a2ba87fa74a388d6974f6a7c6c3bccc0c65b3341604b43ac",
      "s": "0x587a195b594933f186ff8c0c4f68e6d3c651761b35c5126410d5dcb961650c3b",
      "v": 27,
      "creates": null,
      "raw": "0xf86d02850d7b1a03fb82520894900c0afc99968f30e64a7dee5828042b6422a098892d35efae54e4070000801ba012b00406ef1a2345a2ba87fa74a388d6974f6a7c6c3bccc0c65b3341604b43aca0587a195b594933f186ff8c0c4f68e6d3c651761b35c5126410d5dcb961650c3b",
      "networkId": 0,
      "chainId": 0
    }
  ]
}