{
  "hash": "0xf66e28cfd771d8e4fe00a7cde46c75282364c8aefa07b191a5684b0d4418881d",
  "parentHash": "0x4bc7ab408ec1b37c9663f7b6948b83e12370f81a205229c93429e929479413a5",
  "number": 97860,
  "timestamp": 1439763113,
  "nonce": "0x7a2389e53d37c5b5",
  "difficulty": 3842766588423,
  "gasLimit": {
    "_hex": "0x2fefd8"
  },
  "gasUsed": {
    "_hex": "0x5208"
  },
  "miner": "0x157c6f2431eB1a95797EE86F7d17b3c0FD47A247",
  "extraData": "0x476574682f76312e302e312f77696e646f77732f676f312e342e32",
  "transactions": [
    {
      "hash": "0xc9536effdcc4b4a1e11044f33c47fc6f9be92aaf599511090a2c824da84e1a83",
      "blockHash": "0xf66e28cfd771d8e4fe00a7cde46c75282364c8aefa07b191a5684b0d4418881d",
      "blockNumber": 97860,
      "transactionIndex": 0,
      "confirmations": null,
      "from": "0x458F183347F45a4001807728A89F31E9Da9D4A58",
      "gasPrice": {
        "_hex": "0xd025497ba"
      },
      "gasLimit": {
        "_hex": "0x15f90"
      },
      "to": "0x1D3ffA437e5bce40fCC134f4E0ac62841E4A9E81",
      "value": {
        "_hex": "0x53444835ec580000"
      },
      "nonce": 36,
      "data": "0x",
      "r": "0xc46fb96861e3ad676a98207a6da3b41c507a001d09b2f055f9a4b8c2622ee748",
      "s": "0x0ea3281e5b2e2553827229fea6fa8c3573478d10da0285ad6ab7f46a1c877bec",
      "v": 27,
      "creates": null,
      "raw": "0xf86d24850d025497ba83015f90941d3ffa437e5bce40fcc134f4e0ac62841e4a9e818853444835ec580000801ba0c46fb96861e3ad676a98207a6da3b41c507a001d09b2f055f9a4b8c2622ee748a00ea3281e5b2e2553827229fea6fa8c3573478d10da0285ad6ab7f46a1c877bec",
      "networkId": 0,
      "chainId": 0
    }
  ]
}