{
  "hash": "0x436aaba944d9b73e80dba59488bf5abcdb5db367827e91bc3c606a7c04ef2579",
  "parentHash": "0xccd262e054135d019bab1017f929a2b25bb349b7c7377b6b960dd9ef7510df72",
  "number": 115289,
  "timestamp": 1440054629,
  "nonce": "0x8ac03b43da2aaeb4",
  "difficulty": 4556150912253,
  "gasLimit": {
    "_hex": "0x2fefd8"
  },
  "gasUsed": {
    "_hex": "0x57288"
  },
  "miner": "0xe6A7a1d47ff21B6321162AEA7C6CB457D5476Bca",
  "extraData": "0x476574682f76312e302e312d38326566323666362f6c696e75782f676f312e34",
  "transactions": [
    {
      "hash": "0x1eaa4b64a5a166e89ca9d37b714d204fd4613edbce968063175374db8ec85e5c",
      "blockHash": "0x436aaba944d9b73e80dba59488bf5abcdb5db367827e91bc3c606a7c04ef2579",
      "blockNumber": 115289,
      "transactionIndex": 0,
      "confirmations": null,
      "from": "0xe6A7a1d47ff21B6321162AEA7C6CB457D5476Bca",
      "gasPrice": {
        "_hex": "0xcdbe2f87d"
      },
      "gasLimit": {
        "_hex": "0x55f0"
      },
      "to": "0xF9d39b090fBC6669b52606272a0Cea56BDAb638A",
      "value": {
        "_hex": "0x270f86f13c597bb8"
      },
      "nonce": 5211,
      "data": "0x",
      "r": "0xe407946f83cb13ee7b0ec7c45805a69aac0c162596f1819e9dde27bae10239de",
      "s": "0x3ed04cc5685c8ed423e3435d04d4e31b8121ee0e63a94685799e61aa385a3e50",
      "v": 27,
      "creates": null,
      "raw": "0xf86e82145b850cdbe2f87d8255f094f9d39b090fbc6669b52606272a0cea56bdab638a88270f86f13c597bb8801ba0e407946f83cb13ee7b0ec7c45805a69aac0c162596f1819e9dde27bae10239dea03ed04cc5685c8ed423e3435d04d4e31b8121ee0e63a94685799e61aa385a3e50",
      "networkId": 0,
      "chainId": 0
    },
    {
      "hash": "0xb600457e47ed00f8fc82d764e8d74a921dd29b3074e6cf696db733b1c365ee8a",
      "blockHash": "0x436aaba944d9b73e80dba59488bf5abcdb5db367827e91bc3c606a7c04ef2579",
      "blockNumber": 115289,
      "transactionIndex": 1,
      "confirmations": null,
      "from": "0xe6A7a1d47ff21B6321162AEA7C6CB457D5476Bca",
      "gasPrice": {
        "_hex": "0xcdbe2f87d"
      },
      "gasLimit": {
        "_hex": "0x55f0"
      },
      "to": "0x796C24bD0325fc7d33BE618526173a8f4D5083Ce",
      "value": {
        "_hex": "0x272d073617c1c1ec"
      },
      "nonce": 5212,
      "data": "0x",
      "r": "0xb2c9cf3edde801309a070f7a9eab7e4d44b603be7645ba34bf21f0d716b1b5f2",
      "s": "0x2b0403e0e4049df980ae136ccea4c89b37fea0cf0c884d5d3db8132cf14be631",
      "v": 27,
      "creates": null,
      "raw": "0xf86e82145c850cdbe2f87d8255f094796c24bd0325fc7d33be618526173a8f4d5083ce88272d073617c1c1ec801ba0b2c9cf3edde801309a070f7a9eab7e4d44b603be7645ba34bf21f0d716b1b5f2a02b0403e0e4049df980ae136ccea4c89b37fea0cf0c884d5d3db8132cf14be631",
      "networkId": 0,
      "chainId": 0
    },
    {
      "hash": "0x8341a8baec3cac32fffb88100c2bea64fdf67654afa1c8b9e98d3d9fe2de12b5",
      "blockHash": "0x436aaba944d9b73e80dba59488bf5abcdb5db367827e91bc3c606a7c04ef2579",
      "blockNumber": 115289,
      "transactionIndex": 2,
      "confirmations": null,
      "from": "0xe6A7a1d47ff21B6321162AEA7C6CB457D5476Bca",
      "gasPrice": {
        "_hex": "0xcdbe2f87d"
      },
      "gasLimit": {
        "_hex": "0x55f0"
      },
      "to": "0x99181ED48C7c51532622dA23e20E2B38392476A7",
      "value": {
        "_hex": "0x27a1626785c1d208"
      },
      "nonce": 5213,
      "data": "0x",
      "r": "0x32c055d344bac81de3ce61236df7dc50272211708ac6be0f639371a7011b47c5",
      "s": "0x2a8ae6dde4a998e146fc3784aa6039a8084f38ffe4cc66dbe44618d5266e30df",
      "v": 28,
      "creates": null,
      "raw": "0xf86e82145d850cdbe2f87d8255f09499181ed48c7c51532622da23e20e2b38392476a78827a1626785c1d208801ca032c055d344bac81de3ce61236df7dc50272211708ac6be0f639371a7011b47c5a02a8ae6dde4a998e146fc3784aa6039a8084f38ffe4cc66dbe44618d5266e30df",
      "networkId": 0,
      "chainId": 0
    },
    {
      "hash": "0xa38cc82d229047bb098369f3e2a02471cece7c07be4fa24e4de2ccf350663a52",
      "blockHash": "0x436aaba944d9b73e80dba59488bf5abcdb5db367827e91bc3c606a7c04ef2579",
      "blockNumber": 115289,
      "transactionIndex": 3,
      "confirmations": null,
      "from": "0xe6A7a1d47ff21B6321162AEA7C6CB457D5476Bca",
      "gasPrice": {
        "_hex": "0xcdbe2f87d"
      },
      "gasLimit": {
        "_hex": "0x55f0"
      },
      "to": "0xFAF4d1326d886D8dFe403B3F8A00DC7a7EA05629",
      "value": {
        "_hex": "0x27babcaa6d376c00"
      },
      "nonce": 5214,
      "data": "0x",
      "r": "0xa75f910bd4a02fe08a859103449dd0c4cbdb2483abedbc32c14f0aaad9ceffc2",
      "s": "0x0a5292484e23fe0ecd1812c6fcbc350d56e1b9e183f17f610a6fa6d019d9c85a",
      "v": 27,
      "creates": null,
      "raw": "0xf86e82145e850cdbe2f87d8255f094faf4d1326d886d8dfe403b3f8a00dc7a7ea056298827babcaa6d376c00801ba0a75f910bd4a02fe08a859103449dd0c4cbdb2483abedbc32c14f0aaad9ceffc2a00a5292484e23fe0ecd1812c6fcbc350d56e1b9e183f17f610a6fa6d019d9c85a",
      "networkId": 0,
      "chainId": 0
    },
    {
      "hash": "0x4b6dbe575e59f028603f8626ac7c39b0711563c8aac96a0d247382d0a1eaff9c",
      "blockHash": "0x436aaba944d9b73e80dba59488bf5abcdb5db367827e91bc3c606a7c04ef2579",
      "blockNumber": 115289,
      "transactionIndex": 4,
      "confirmations": null,
      "from": "0xe6A7a1d47ff21B6321162AEA7C6CB457D5476Bca",
      "gasPrice": {
        "_hex": "0xcdbe2f87d"
      },
      "gasLimit": {
        "_hex": "0x55f0"
      },
      "to": "0xAD8c7FBFaBC46C35aDb03F7b3A67e731E5793899",
      "value": {
        "_hex": "0x27eae0ef2dac9030"
      },
      "nonce": 5215,
      "data": "0x",
      "r": "0x95f96623a6fc80ae8b55c25716b0e4c6db504ef8502d2c2cada1ccd73162a41b",
      "s": "0x077b2210c28e2181cb636fc033c77df579f204c42f9fbe545c657844f84c28f6",
      "v": 27,
      "creates": null,
      "raw": "0xf86e82145f850cdbe2f87d8255f094ad8c7fbfabc46c35adb03f7b3a67e731e57938998827eae0ef2dac9030801ba095f96623a6fc80ae8b55c25716b0e4c6db504ef8502d2c2cada1ccd73162a41ba0077b2210c28e2181cb636fc033c77df579f204c42f9fbe545c657844f84c28f6",
      "networkId": 0,
      "chainId": 0
    },
    {
      "hash": "0xb3b02bbdebaca26979dd97995611489d9590dd325c0738762b96f96b20dfbe03",
      "blockHash": "0x436aaba944d9b73e80dba59488bf5abcdb5db367827e91bc3c606a7c04ef2579",
      "blockNumber": 115289,
      "transactionIndex": 5,
      "confirmations": null,
      "from": "0xe6A7a1d47ff21B6321162AEA7C6CB457D5476Bca",
      "gasPrice": {
        "_hex": "0xcdbe2f87d"
      },
      "gasLimit": {
        "_hex": "0x55f0"
      },
      "to": "0xE5cd922132641CF77d8a95dE3F3B335Ee6D54d71",
      "value": {
        "_hex": "0x280a4ae55b64c3d8"
      },
      "nonce": 5216,
      "data": "0x",
      "r": "0xe039113db676e3d4a8231ef2c95389e7974e09630de1a65959a34da944e71d94",
      "s": "0x092efcd4344781d695a3ef20124c8f2551fe293d5d7091f337ddd5dd58550d02",
      "v": 28,
      "creates": null,
      "raw": "0xf86e821460850cdbe2f87d8255f094e5cd922132641cf77d8a95de3f3b335ee6d54d7188280a4ae55b64c3d8801ca0e039113db676e3d4a8231ef2c95389e7974e09630de1a65959a34da944e71d94a0092efcd4344781d695a3ef20124c8f2551fe293d5d7091f337ddd5dd58550d02",
      "networkId": 0,
      "chainId": 0
    },
    {
      "hash": "0x7d3310f0559925eb0a93b7ed62144f92fcdca76e6bb7d6ffc72fe1cac2ec9ba5",
      "blockHash": "0x436aaba944d9b73e80dba59488bf5abcdb5db367827e91bc3c606a7c04ef2579",
      "blockNumber": 115289,
      "transactionIndex": 6,
      "confirmations": null,
      "from": "0xe6A7a1d47ff21B6321162AEA7C6CB457D5476Bca",
      "gasPrice": {
        "_hex": "0xcdbe2f87d"
      },
      "gasLimit": {
        "_hex": "0x55f0"
      },
      "to": "0xBc8405A1c3b4f67A4Ba6C70C91eF1F0152B6d3ab",
      "value": {
        "_hex": "0x282472a6ba7cb418"
      },
      "nonce": 5217,
      "data": "0x",
      "r": "0x962528745bfb71dc83f6d25210740ecafc5bafeb0c1f3c52f4f782a46a046cc7",
      "s": "0x0a83082bdf731db4c518d45fd229320abcde7a28ca108afbca28ff88866a9280",
      "v": 28,
      "creates": null,
      "raw": "0xf86e821461850cdbe2f87d8255f094bc8405a1c3b4f67a4ba6c70c91ef1f0152b6d3ab88282472a6ba7cb418801ca0962528745bfb71dc83f6d25210740ecafc5bafeb0c1f3c52f4f782a46a046cc7a00a83082bdf731db4c518d45fd229320abcde7a28ca108afbca28ff88866a9280",
      "networkId": 0,
      "chainId": 0
    },
    {
      "hash": "0x50037f18512acea39a6f54eba4f565cc19943b706f37c4351a25943ba4e558fe",
      "blockHash": "0x436aaba944d9b73e80dba59488bf5abcdb5db367827e91bc3c606a7c04ef2579",
      "blockNumber": 115289,
      "transactionIndex": 7,
      "confirmations": null,
      "from": "0xe6A7a1d47ff21B6321162AEA7C6CB457D5476Bca",
      "gasPrice": {
        "_hex": "0xcdbe2f87d"
      },
      "gasLimit": {
        "_hex": "0x55f0"
      },
      "to": "0x037658E13e294088Cfd16A534b9C1F3B37282eB2",
      "value": {
        "_hex": "0x285d282ff7fd7b98"
      },
      "nonce": 5218,
      "data": "0x",
      "r": "0xd679e7846412c129acf53a36fafab4371894a6c315adb89cadb31640c9edd850",
      "s": "0x381c8d239b71934c16d1778bed0369549490f3538d7a1f108e4945304a584cde",
      "v": 28,
      "creates": null,
      "raw": "0xf86e821462850cdbe2f87d8255f094037658e13e294088cfd16a534b9c1f3b37282eb288285d282ff7fd7b98801ca0d679e7846412c129acf53a36fafab4371894a6c315adb89cadb31640c9edd850a0381c8d239b71934c16d1778bed0369549490f3538d7a1f108e4945304a584cde",
      "networkId": 0,
      "chainId": 0
    },
    {
      "hash": "0x4139273fbe7d6091828a7afbc1f61b9542236a9997ed80c61d7cecf8cb96dc53",
      "blockHash": "0x436aaba944d9b73e80dba59488bf5abcdb5db367827e91bc3c606a7c04ef2579",
      "blockNumber": 115289,
      "transactionIndex": 8,
      "confirmations": null,
      "from": "0xe6A7a1d47ff21B6321162AEA7C6CB457D5476Bca",
      "gasPrice": {
        "_hex": "0xcdbe2f87d"
      },
      "gasLimit": {
        "_hex": "0x55f0"
      },
      "to": "0x4CA7cc5aF3D69A52e705DcEac59B9f76e0906DA8",
      "value": {
        "_hex": "0x2880c8074554e418"
      },
      "nonce": 5219,
      "data": "0x",
      "r": "0xce4f89206c4db1735f23491d71260ea1ccf10cd5a083280bc56fcf6f58b0825f",
      "s": "0x7d43872b8d0545404c4af9cf07a28a3fb5edab535c42ff36e5a1ea8efbf0da71",
      "v": 27,
      "creates": null,
      "raw": "0xf86e821463850cdbe2f87d8255f0944ca7cc5af3d69a52e705dceac59b9f76e0906da8882880c8074554e418801ba0ce4f89206c4db1735f23491d71260ea1ccf10cd5a083280bc56fcf6f58b0825fa07d43872b8d0545404c4af9cf07a28a3fb5edab535c42ff36e5a1ea8efbf0da71",
      "networkId": 0,
      "chainId": 0
    },
    {
      "hash": "0xd5ceaf7b2e46ee0a26d11d771f7d80a288c8596e92ede97c85d867fdde1a2de2",
      "blockHash": "0x436aaba944d9b73e80dba59488bf5abcdb5db367827e91bc3c606a7c04ef2579",
      "blockNumber": 115289,
      "transactionIndex": 9,
      "confirmations": null,
      "from": "0xe6A7a1d47ff21B6321162AEA7C6CB457D5476Bca",
      "gasPrice": {
        "_hex": "0xcdbe2f87d"
      },
      "gasLimit": {
        "_hex": "0x55f0"
      },
      "to": "0x49DC75D11428d1D718FC7b71941B71ae6F8bfA3C",
      "value": {
        "_hex": "0x28a38ffd18544e00"
      },
      "nonce": 5220,
      "data": "0x",
      "r": "0xe359becb5302d867d35af3753b322583a952846cdc1df7cd75af0b4fbbb7bcb5",
      "s": "0x2f732636182ddb6a06978faf0c36d70693ef1b42960b3802ffab591f52c4590c",
      "v": 28,
      "creates": null,
      "raw": "0xf86e821464850cdbe2f87d8255f09449dc75d11428d1d718fc7b71941b71ae6f8bfa3c8828a38ffd18544e00801ca0e359becb5302d867d35af3753b322583a952846cdc1df7cd75af0b4fbbb7bcb5a02f732636182ddb6a06978faf0c36d70693ef1b42960b3802ffab591f52c4590c",
      "networkId": 0,
      "chainId": 0
    },
    {
      "hash": "0xf3ccd7a697dd349d9c7e6fe77a63b95e710aa19765d417b163416e1af294f305",
      "blockHash": "0x436aaba944d9b73e80dba59488bf5abcdb5db367827e91bc3c606a7c04ef2579",
      "blockNumber": 115289,
      "transactionIndex": 10,
      "confirmations": null,
      "from": "0xe6A7a1d47ff21B6321162AEA7C6CB457D5476Bca",
      "gasPrice": {
        "_hex": "0xcdbe2f87d"
      },
      "gasLimit": {
        "_hex": "0x55f0"
      },
      "to": "0xD671e71108Bd20F1A8e2A4f73a7449Bf8DAa840f",
      "value": {
        "_hex": "0x28bcec7c4dbeb1d0"
      },
      "nonce": 5221,
      "data": "0x",
      "r": "0xd905cf3f4fdccc3054a156d5f2219afe97795192f4adcc00979e48b60306dc7b",
      "s": "0x64211a3c72d8e1be87b53543e486d23d8e11e22bfc26a1f4d72373fa2f6ee862",
      "v": 27,
      "creates": null,
      "raw": "0xf86e821465850cdbe2f87d8255f094d671e71108bd20f1a8e2a4f73a7449bf8daa840f8828bcec7c4dbeb1d0801ba0d905cf3f4fdccc3054a156d5f2219afe97795192f4adcc00979e48b60306dc7ba064211a3c72d8e1be87b53543e486d23d8e11e22bfc26a1f4d72373fa2f6ee862",
      "networkId": 0,
      "chainId": 0
    },
    {
      "hash": "0xe550a240eb973d9d07e74c6274acac5686ecbd5f448246a48e858ccdbbba020d",
      "blockHash": "0x436aaba944d9b73e80dba59488bf5abcdb5db367827e91bc3c606a7c04ef2579",
      "blockNumber": 115289,
      "transactionIndex": 11,
      "confirmations": null,
      "from": "0xe6A7a1d47ff21B6321162AEA7C6CB457D5476Bca",
      "gasPrice": {
        "_hex": "0xcdbe2f87d"
      },
      "gasLimit": {
        "_hex": "0x55f0"
      },
      "to": "0x4b0a38C16B842d68A8721B4CAd662e07cc430652",
      "value": {
        "_hex": "0x29043cee75db1ca8"
      },
      "nonce": 5222,
      "data": "0x",
      "r": "0x32b0d116ce9f45b0ebb8fabd9680323a53608780a6bf682b5556a95b2e4a8303",
      "s": "0x3a51c47b46ba6a06cd8b0c0fde941cda86b8c039070fff7291816f75d864d1a7",
      "v": 27,
      "creates": null,
      "raw": "0xf86e821466850cdbe2f87d8255f0944b0a38c16b842d68a8721b4cad662e07cc4306528829043cee75db1ca8801ba032b0d116ce9f45b0ebb8fabd9680323a53608780a6bf682b5556a95b2e4a8303a03a51c47b46ba6a06cd8b0c0fde941cda86b8c039070fff7291816f75d864d1a7",
      "networkId": 0,
      "chainId": 0
    },
    {
      "hash": "0x5d905e58b33725044ec943c14475d5b83d1fce99209e9f0864c69471bdf713ae",
      "blockHash": "0x436aaba944d9b73e80dba59488bf5abcdb5db367827e91bc3c606a7c04ef2579",
      "blockNumber": 115289,
      "transactionIndex": 12,
      "confirmations": null,
      "from": "0xe6A7a1d47ff21B6321162AEA7C6CB457D5476Bca",
      "gasPrice": {
        "_hex": "0xcdbe2f87d"
      },
      "gasLimit": {
        "_hex": "0x55f0"
      },
      "to": "0xcabcF33e299eEFB1bBde6Ef75a21853831e8b339",
      "value": {
        "_hex": "0x29955f8aa12b03dc"
      },
      "nonce": 5223,
      "data": "0x",
      "r": "0xa199a3409787746dc940cd9820f0463f132a42e782604629629af9af504163cd",
      "s": "0x09191cf1f5b7dbffc2f7465d1bce332464f3b784ec44eb1382d1b1aa00e1a97a",
      "v": 27,
      "creates": null,
      "raw": "0xf86e821467850cdbe2f87d8255f094cabcf33e299eefb1bbde6ef75a21853831e8b3398829955f8aa12b03dc801ba0a199a3409787746dc940cd9820f0463f132a42e782604629629af9af504163cda009191cf1f5b7dbffc2f7465d1bce332464f3b784ec44eb1382d1b1aa00e1a97a",
      "networkId": 0,
      "chainId": 0
    },
    {
      "hash": "0x54e7e8a28b379ae239d49c093d0f67331ef1ab55267897919cfbf794ff20e4d9",
      "blockHash": "0x436aaba944d9b73e80dba59488bf5abcdb5db367827e91bc3c606a7c04ef2579",
      "blockNumber": 115289,
      "transactionIndex": 13,
      "confirmations": null,
      "from": "0xe6A7a1d47ff21B6321162AEA7C6CB457D5476Bca",
      "gasPrice": {
        "_hex": "0xcdbe2f87d"
      },
      "gasLimit": {
        "_hex": "0x55f0"
      },
      "to": "0xF53cEB46156c2a0bC1a7aAd59774F5DfDA068CEc",
      "value": {
        "_hex": "0x29c92c8b85ab6dc0"
      },
      "nonce": 5224,
      "data": "0x",
      "r": "0xe96acc3d8eb9f53c513b3ddc277fc96abc9e9c01b24afd167c5864690f12faf3",
      "s": "0x374ae12953e606e0057e6532441542c4c8df2720a65441b077c90740e83589e3",
      "v": 28,
      "creates": null,
      "raw": "0xf86e821468850cdbe2f87d8255f094f53ceb46156c2a0bc1a7aad59774f5dfda068cec8829c92c8b85ab6dc0801ca0e96acc3d8eb9f53c513b3ddc277fc96abc9e9c01b24afd167c5864690f12faf3a0374ae12953e606e0057e6532441542c4c8df2720a65441b077c90740e83589e3",
      "networkId": 0,
      "chainId": 0
    },
    {
      "hash": "0x23082ee1598e99b1408b7c57f91c4f0b7765bec01b9a17daead2e5f437d910ff",
      "blockHash": "0x436aaba944d9b73e80dba59488bf5abcdb5db367827e91bc3c606a7c04ef2579",
      "blockNumber": 115289,
      "transactionIndex": 14,
      "confirmations": null,
      "from": "0xe6A7a1d47ff21B6321162AEA7C6CB457D5476Bca",
      "gasPrice": {
        "_hex": "0xcdbe2f87d"
      },
      "gasLimit": {
        "_hex": "0x55f0"
      },
      "to": "0xEa5b801969342B44467C9dE87fEfE2C1dB740bd4",
      "value": {
        "_hex": "0x29d233282afc2c28"
      },
      "nonce": 5225,
      "data": "0x",
      "r": "0x95e48f39a5ee503dc5cb5984c1808922a608814ab486d06f5acfd02704825d0d",
      "s": "0x30667781e962f16077bfb165c2f3204ad808d00a2d2fb17ba2e174f08af7af47",
      "v": 28,
      "creates": null,
      "raw": "0xf86e821469850cdbe2f87d8255f094ea5b801969342b44467c9de87fefe2c1db740bd48829d233282afc2c28801ca095e48f39a5ee503dc5cb5984c1808922a608814ab486d06f5acfd02704825d0da030667781e962f16077bfb165c2f3204ad808d00a2d2fb17ba2e174f08af7af47",
      "networkId": 0,
      "chainId": 0
    },
    {
      "hash": "0x97e086084271b23c160c45a08da330a1eb1f909ecfc0b09bdc0df0f293f60bfd",
      "blockHash": "0x436aaba944d9b73e80dba59488bf5abcdb5db367827e91bc3c606a7c04ef2579",
      "blockNumber": 115289,
      "transactionIndex": 15,
      "confirmations": null,
      "from": "0xe6A7a1d47ff21B6321162AEA7C6CB457D5476Bca",
      "gasPrice": {
        "_hex": "0xcdbe2f87d"
      },
      "gasLimit": {
        "_hex": "0x55f0"
      },
      "to": "0x05a56E2D52c817161883f50c441c3228CFe54d9f",
      "value": {
        "_hex": "0x29e210473d21fa48"
      },
      "nonce": 5226,
      "data": "0x",
      "r": "0x9ba15c8463acc52dbb81108ef8d1f8feeac392a5f2583e2a4e4f158cd1391205",
      "s": "0x6f17b9c697be3f1169009ee3c5a11d72d0cd86d8be232e1723291b413b411ba6",
      "v": 28,
      "creates": null,
      "raw": "0xf86e82146a850cdbe2f87d8255f09405a56e2d52c817161883f50c441c3228cfe54d9f8829e210473d21fa48801ca09ba15c8463acc52dbb81108ef8d1f8feeac392a5f2583e2a4e4f158cd1391205a06f17b9c697be3f1169009ee3c5a11d72d0cd86d8be232e1723291b413b411ba6",
      "networkId": 0,
      "chainId": 0
    },
    {
      "hash": "0x6733fc31746d2da3e07b095ef6c1119eea7a9859ac97edbd3641e78e08bb0120",
      "blockHash": "0x436aaba944d9b73e80dba59488bf5abcdb5db367827e91bc3c606a7c04ef2579",
      "blockNumber": 115289,
      "transactionIndex": 16,
      "confirmations": null,
      "from": "0xe6A7a1d47ff21B6321162AEA7C6CB457D5476Bca",
      "gasPrice": {
        "_hex": "0xcdbe2f87d"
      },
      "gasLimit": {
        "_hex": "0x55f0"
      },
      "to": "0x0eDEd3DA479d0beF8eeC92A76644D3f4E3C177f7",
      "value": {
        "_hex": "0x29f14310acb3cbec"
      },
      "nonce": 5227,
      "data": "0x",
      "r": "0xb29eb58c222faa6a1807a60f2a6d6e7470e425be60d4d7e9c1c7e4c7ed6ac7b7",
      "s": "0x16bc7c1a6bc3cba57c878dd9d75530cacd51d4f0626ffeab8447e3347ee6f346",
      "v": 28,
      "creates": null,
      "raw": "0xf86e82146b850cdbe2f87d8255f0940eded3da479d0bef8eec92a76644d3f4e3c177f78829f14310acb3cbec801ca0b29eb58c222faa6a1807a60f2a6d6e7470e425be60d4d7e9c1c7e4c7ed6ac7b7a016bc7c1a6bc3cba57c878dd9d75530cacd51d4f0626ffeab8447e3347ee6f346",
      "networkId": 0,
      "chainId": 0
    }
  ]
}