{
  "hash": "0xce5c48a268e40e965e60e474c46c4285c971951aa2bb5059c4bd759467cf6ecc",
  "parentHash": "0x05d87e21737abb9fc26843c011d4e860dbed6145f0f04a16afbb947b2c3f2aa2",
  "number": 105335,
  "timestamp": 1439885819,
  "nonce": "0xc7bfe2ae6841a1f0",
  "difficulty": 4361181032631,
  "gasLimit": {
    "_hex": "0x2fefd8"
  },
  "gasUsed": {
    "_hex": "0x5c490"
  },
  "miner": "0xe6A7a1d47ff21B6321162AEA7C6CB457D5476Bca",
  "extraData": "0x476574682f76312e302e312d38326566323666362f6c696e75782f676f312e34",
  "transactions": [
    {
      "hash": "0xd3679cdc03efc0311de5303eb26d870ea3052dbcba74a2a833e42c97f6c9e512",
      "blockHash": "0xce5c48a268e40e965e60e474c46c4285c971951aa2bb5059c4bd759467cf6ecc",
      "blockNumber": 105335,
      "transactionIndex": 0,
      "confirmations": null,
      "from": "0xe6A7a1d47ff21B6321162AEA7C6CB457D5476Bca",
      "gasPrice": {
        "_hex": "0xcb3753b9b"
      },
      "gasLimit": {
        "_hex": "0x55f0"
      },
      "to": "0x2b176421eEBBf303fa94aD4fE78362Fa9e4Ca693",
      "value": {
        "_hex": "0x1e9167b8771696890"
      },
      "nonce": 3980,
      "data": "0x",
      "r": "0x98b51903c66f0ef54409e5715cb1175a3e7cb7ab4853bee2731b2916ad88ee5e",
      "s": "0x6fe25a84f340b3260e1bf1fea916049cd949c82403ace08bae764d73a0b5f0b6",
      "v": 27,
      "creates": null,
      "raw": "0xf86f820f8c850cb3753b9b8255f0942b176421eebbf303fa94ad4fe78362fa9e4ca6938901e9167b8771696890801ba098b51903c66f0ef54409e5715cb1175a3e7cb7ab4853bee2731b2916ad88ee5ea06fe25a84f340b3260e1bf1fea916049cd949c82403ace08bae764d73a0b5f0b6",
      "networkId": 0,
      "chainId": 0
    },
    {
      "hash": "0x24ec540bf860feffe5241ed25ab9e03f3cb3b93b933cfcba299b5a96ec808b6d",
      "blockHash": "0xce5c48a268e40e965e60e474c46c4285c971951aa2bb5059c4bd759467cf6ecc",
      "blockNumber": 105335,
      "transactionIndex": 1,
      "confirmations": null,
      "from": "0xe6A7a1d47ff21B6321162AEA7C6CB457D5476Bca",
      "gasPrice": {
        "_hex": "0xded393ff3"
      },
      "gasLimit": {
        "_hex": "0x55f0"
      },
      "to": "0x383Ad663AFd1716301FC92d469d9985b97cfBCB0",
      "value": {
        "_hex": "0x1f7b01504ffccce60"
      },
      "nonce": 3981,
      "data": "0x",
      "r": "0xae11c97f337dc99ed80c5368f98f7a168aeca76301606a4f670e166aa536bc66",
      "s": "0x5fd6180b18c8ddd1eed267bab11f2d4e33a65543ddcf5c47238e830344db6ca9",
      "v": 27,
      "creates": null,
      "raw": "0xf86f820f8d850ded393ff38255f094383ad663afd1716301fc92d469d9985b97cfbcb08901f7b01504ffccce60801ba0ae11c97f337dc99ed80c5368f98f7a168aeca76301606a4f670e166aa536bc66a05fd6180b18c8ddd1eed267bab11f2d4e33a65543ddcf5c47238e830344db6ca9",
      "networkId": 0,
      "chainId": 0
    },
    {
      "hash": "0x6f93c2295b258db4f3fce759fcbc4d98aabc441dcaa0861ae5bce9eb81691395",
      "blockHash": "0xce5c48a268e40e965e60e474c46c4285c971951aa2bb5059c4bd759467cf6ecc",
      "blockNumber": 105335,
      "transactionIndex": 2,
      "confirmations": null,
      "from": "0xe6A7a1d47ff21B6321162AEA7C6CB457D5476Bca",
      "gasPrice": {
        "_hex": "0xded393ff3"
      },
      "gasLimit": {
        "_hex": "0x55f0"
      },
      "to": "0xc7704Fc5c51C7a5f1a6574b0014b58C8915BA55C",
      "value": {
        "_hex": "0x1fd760489a5783108"
      },
      "nonce": 3982,
      "data": "0x",
      "r": "0xf57177bfb8205993060941c879448c3a5de5a20f5b9e90dde75709a362ead99f",
      "s": "0x751390b4894e5b5cf23bcded50f4e5c62801ce224f788fa2aa6e702dd2e286da",
      "v": 27,
      "creates": null,
      "raw": "0xf86f820f8e850ded393ff38255f094c7704fc5c51c7a5f1a6574b0014b58c8915ba55c8901fd760489a5783108801ba0f57177bfb8205993060941c879448c3a5de5a20f5b9e90dde75709a362ead99fa0751390b4894e5b5cf23bcded50f4e5c62801ce224f788fa2aa6e702dd2e286da",
      "networkId": 0,
      "chainId": 0
    },
    {
      "hash": "0xb0314175edeed61c9c0ebbbf779d651536380e023ade962ab2e630a224b5c055",
      "blockHash": "0xce5c48a268e40e965e60e474c46c4285c971951aa2bb5059c4bd759467cf6ecc",
      "blockNumber": 105335,
      "transactionIndex": 3,
      "confirmations": null,
      "from": "0xe6A7a1d47ff21B6321162AEA7C6CB457D5476Bca",
      "gasPrice": {
        "_hex": "0xded393ff3"
      },
      "gasLimit": {
        "_hex": "0x55f0"
      },
      "to": "0x164d6C84C4D54AA3E22A5b2B72cFb968eDe862C5",
      "value": {
        "_hex": "0x1febd13a0b0dfe680"
      },
      "nonce": 3983,
      "data": "0x",
      "r": "0xb030911de1d62fc631573042b558c656dbf3c67441ddd3f412314418d5b8b985",
      "s": "0x3d25450dae29d8d41255dfd330c94a93f67ac25d088ad3516dd2204a57cc4076",
      "v": 28,
      "creates": null,
      "raw": "0xf86f820f8f850ded393ff38255f094164d6c84c4d54aa3e22a5b2b72cfb968ede862c58901febd13a0b0dfe680801ca0b030911de1d62fc631573042b558c656dbf3c67441ddd3f412314418d5b8b985a03d25450dae29d8d41255dfd330c94a93f67ac25d088ad3516dd2204a57cc4076",
      "networkId": 0,
      "chainId": 0
    },
    {
      "hash": "0x4e98e868217fe532ea783aa1c7b5ffc186bdb398dda6958a414e89c29caa1261",
      "blockHash": "0xce5c48a268e40e965e60e474c46c4285c971951aa2bb5059c4bd759467cf6ecc",
      "blockNumber": 105335,
      "transactionIndex": 4,
      "confirmations": null,
      "from": "0xe6A7a1d47ff21B6321162AEA7C6CB457D5476Bca",
      "gasPrice": {
        "_hex": "0xded393ff3"
      },
      "gasLimit": {
        "_hex": "0x55f0"
      },
      "to": "0xa114c802ef29776f05f9c6925cE915232e8ae102",
      "value": {
        "_hex": "0x2026e1057ecc31ba0"
      },
      "nonce": 3984,
      "data": "0x",
      "r": "0xb6dc94ecf9bf2d326d5ea03fb7d28e4cbd30f25b6434832dc2cffdd8b7bbba4a",
      "s": "0x722ff7e4b06c1271aed311cd5745818577e48e8ba998360bec9092619bf4d8c0",
      "v": 28,
      "creates": null,
      "raw": "0xf86f820f90850ded393ff38255f094a114c802ef29776f05f9c6925ce915232e8ae1028902026e1057ecc31ba0801ca0b6dc94ecf9bf2d326d5ea03fb7d28e4cbd30f25b6434832dc2cffdd8b7bbba4aa0722ff7e4b06c1271aed311cd5745818577e48e8ba998360bec9092619bf4d8c0",
      "networkId": 0,
      "chainId": 0
    },
    {
      "hash": "0x2def2a2571d6285383f78d43fd47840238ccde1f7ef18d660242e926c75c4ef2",
      "blockHash": "0xce5c48a268e40e965e60e474c46c4285c971951aa2bb5059c4bd759467cf6ecc",
      "blockNumber": 105335,
      "transactionIndex": 5,
      "confirmations": null,
      "from": "0xe6A7a1d47ff21B6321162AEA7C6CB457D5476Bca",
      "gasPrice": {
        "_hex": "0xded393ff3"
      },
      "gasLimit": {
        "_hex": "0x55f0"
      },
      "to": "0x19d1f826fce0c97733e0202eFCCc4A5608e8Eb6d",
      "value": {
        "_hex": "0x204bf7b813275d150"
      },
      "nonce": 3985,
      "data": "0x",
      "r": "0xa43ef42f9fe58f2c2196a7343915d168200783db176fcfcfc07eae0e417513c2",
      "s": "0x041a45fd2c908d212221a4ab7c996f5775373bdea2042adcf7403eae0a02cb6e",
      "v": 28,
      "creates": null,
      "raw": "0xf86f820f91850ded393ff38255f09419d1f826fce0c97733e0202efccc4a5608e8eb6d890204bf7b813275d150801ca0a43ef42f9fe58f2c2196a7343915d168200783db176fcfcfc07eae0e417513c2a0041a45fd2c908d212221a4ab7c996f5775373bdea2042adcf7403eae0a02cb6e",
      "networkId": 0,
      "chainId": 0
    },
    {
      "hash": "0x7f8f19d0692c846b64ac5e25bd4c0b552267bd97df8f5ff5fb685c3be24934c7",
      "blockHash": "0xce5c48a268e40e965e60e474c46c4285c971951aa2bb5059c4bd759467cf6ecc",
      "blockNumber": 105335,
      "transactionIndex": 6,
      "confirmations": null,
      "from": "0xe6A7a1d47ff21B6321162AEA7C6CB457D5476Bca",
      "gasPrice": {
        "_hex": "0xded393ff3"
      },
      "gasLimit": {
        "_hex": "0x55f0"
      },
      "to": "0x86d3856ad0105B9d4199936c1fd203664BA325dC",
      "value": {
        "_hex": "0x20ae961417ca4a960"
      },
      "nonce": 3986,
      "data": "0x",
      "r": "0x061001c7817830186c0802c177e9808d43c25b69191979fbcb8d24341c6b7afb",
      "s": "0x2e4d9c7f1399b67df8532bc33631e142cd5f89d1cc94506d037db8ae0d547db5",
      "v": 27,
      "creates": null,
      "raw": "0xf86f820f92850ded393ff38255f09486d3856ad0105b9d4199936c1fd203664ba325dc89020ae961417ca4a960801ba0061001c7817830186c0802c177e9808d43c25b69191979fbcb8d24341c6b7afba02e4d9c7f1399b67df8532bc33631e142cd5f89d1cc94506d037db8ae0d547db5",
      "networkId": 0,
      "chainId": 0
    },
    {
      "hash": "0xf1a78106ac99ed160bc0c7b6064d69e6229698e32ab3b4804fc47b2a318db40b",
      "blockHash": "0xce5c48a268e40e965e60e474c46c4285c971951aa2bb5059c4bd759467cf6ecc",
      "blockNumber": 105335,
      "transactionIndex": 7,
      "confirmations": null,
      "from": "0xe6A7a1d47ff21B6321162AEA7C6CB457D5476Bca",
      "gasPrice": {
        "_hex": "0xded393ff3"
      },
      "gasLimit": {
        "_hex": "0x55f0"
      },
      "to": "0xabceA603089850F8f6bB612A9031554D90A247CF",
      "value": {
        "_hex": "0x2103c85a7134360c8"
      },
      "nonce": 3987,
      "data": "0x",
      "r": "0xae77bad36586a0468169bd321d44fb7346a37f135f115e9f3da8e10a4eae0ce9",
      "s": "0x5f2783cf110cd0ba6492f22646d1ffa062472026ef634a8fe94b2e5b8d3c0f8c",
      "v": 27,
      "creates": null,
      "raw": "0xf86f820f93850ded393ff38255f094abcea603089850f8f6bb612a9031554d90a247cf8902103c85a7134360c8801ba0ae77bad36586a0468169bd321d44fb7346a37f135f115e9f3da8e10a4eae0ce9a05f2783cf110cd0ba6492f22646d1ffa062472026ef634a8fe94b2e5b8d3c0f8c",
      "networkId": 0,
      "chainId": 0
    },
    {
      "hash": "0x49387ebca8be6c001e9c573d374c98a282fb081e63694b46ce0318439f8215da",
      "blockHash": "0xce5c48a268e40e965e60e474c46c4285c971951aa2bb5059c4bd759467cf6ecc",
      "blockNumber": 105335,
      "transactionIndex": 8,
      "confirmations": null,
      "from": "0xe6A7a1d47ff21B6321162AEA7C6CB457D5476Bca",
      "gasPrice": {
        "_hex": "0xded393ff3"
      },
      "gasLimit": {
        "_hex": "0x55f0"
      },
      "to": "0xd121f6B6DE47879cc29a8262cA01F7B4ACE9707e",
      "value": {
        "_hex": "0x210590ddfa48fe380"
      },
      "nonce": 3988,
      "data": "0x",
      "r": "0x0a68bc100b39b8ff651f15bc4090083c8b97e2bcd16b7cebab92f53b36982ee8",
      "s": "0x2946f101cc2825f5d5db671503e43cfdbed19dc7e157b2fc111faec9ea05d950",
      "v": 28,
      "creates": null,
      "raw": "0xf86f820f94850ded393ff38255f094d121f6b6de47879cc29a8262ca01f7b4ace9707e890210590ddfa48fe380801ca00a68bc100b39b8ff651f15bc4090083c8b97e2bcd16b7cebab92f53b36982ee8a02946f101cc2825f5d5db671503e43cfdbed19dc7e157b2fc111faec9ea05d950",
      "networkId": 0,
      "chainId": 0
    },
    {
      "hash": "0x45f9620f8ae7630a0f2394f22a2235462a2dc530adb1acff00a7b4e43faac3b4",
      "blockHash": "0xce5c48a268e40e965e60e474c46c4285c971951aa2bb5059c4bd759467cf6ecc",
      "blockNumber": 105335,
      "transactionIndex": 9,
      "confirmations": null,
      "from": "0xe6A7a1d47ff21B6321162AEA7C6CB457D5476Bca",
      "gasPrice": {
        "_hex": "0xded393ff3"
      },
      "gasLimit": {
        "_hex": "0x55f0"
      },
      "to": "0x51c6a5F0248d9a4f7CA205080e2BA8b0962Fd8ea",
      "value": {
        "_hex": "0x21972c1841905e140"
      },
      "nonce": 3989,
      "data": "0x",
      "r": "0x4d59689cdaf5e77271d526b2448b3ea06fd34f869dcb3904f470f43eab1e84f8",
      "s": "0x0bdcbfa806a2234fb5acebf60dd9ab32ea007c313337701704e20467f22f7614",
      "v": 27,
      "creates": null,
      "raw": "0xf86f820f95850ded393ff38255f09451c6a5f0248d9a4f7ca205080e2ba8b0962fd8ea89021972c1841905e140801ba04d59689cdaf5e77271d526b2448b3ea06fd34f869dcb3904f470f43eab1e84f8a00bdcbfa806a2234fb5acebf60dd9ab32ea007c313337701704e20467f22f7614",
      "networkId": 0,
      "chainId": 0
    },
    {
      "hash": "0xbfbfc23ac0f53459ff079e5dcf6b60d27b09424b0060e3e98c5e31aeda3fbe11",
      "blockHash": "0xce5c48a268e40e965e60e474c46c4285c971951aa2bb5059c4bd759467cf6ecc",
      "blockNumber": 105335,
      "transactionIndex": 10,
      "confirmations": null,
      "from": "0xe6A7a1d47ff21B6321162AEA7C6CB457D5476Bca",
      "gasPrice": {
        "_hex": "0xded393ff3"
      },
      "gasLimit": {
        "_hex": "0x55f0"
      },
      "to": "0xf0c896DB24137eDA6Ec88cF1a95217F8604aE55e",
      "value": {
        "_hex": "0x22837e87d20c18058"
      },
      "nonce": 3990,
      "data": "0x",
      "r": "0x31ac022495b6e0e6453a8156baaf261bbf4fc1d7ce4a73f0af1bd9430c9eff7e",
      "s": "0x5b67210f0d672f51d36d025830cf55f1ded1f20ea9945267c400e9549ef7014a",
      "v": 27,
      "creates": null,
      "raw": "0xf86f820f96850ded393ff38255f094f0c896db24137eda6ec88cf1a95217f8604ae55e89022837e87d20c18058801ba031ac022495b6e0e6453a8156baaf261bbf4fc1d7ce4a73f0af1bd9430c9eff7ea05b67210f0d672f51d36d025830cf55f1ded1f20ea9945267c400e9549ef7014a",
      "networkId": 0,
      "chainId": 0
    },
    {
      "hash": "0xcf5ab694e8ac293266f64324cdddc3ee18c33e3cb4df4ca053bca6c8447213cd",
      "blockHash": "0xce5c48a268e40e965e60e474c46c4285c971951aa2bb5059c4bd759467cf6ecc",
      "blockNumber": 105335,
      "transactionIndex": 11,
      "confirmations": null,
      "from": "0xe6A7a1d47ff21B6321162AEA7C6CB457D5476Bca",
      "gasPrice": {
        "_hex": "0xded393ff3"
      },
      "gasLimit": {
        "_hex": "0x55f0"
      },
      "to": "0x556ca325C21e450b2aFf86D9c8eF0Fa371971c97",
      "value": {
        "_hex": "0x235a9324ef4cb5970"
      },
      "nonce": 3991,
      "data": "0x",
      "r": "0xa5d0b96803450a79e769bf08cd3542ed896cc6d7c20dd13d9cbf8805bbb3d105",
      "s": "0x6fe88d161d2380cb4fad231eaeb977088a968daafd36f54d933dc1608ef86958",
      "v": 28,
      "creates": null,
      "raw": "0xf86f820f97850ded393ff38255f094556ca325c21e450b2aff86d9c8ef0fa371971c97890235a9324ef4cb5970801ca0a5d0b96803450a79e769bf08cd3542ed896cc6d7c20dd13d9cbf8805bbb3d105a06fe88d161d2380cb4fad231eaeb977088a968daafd36f54d933dc1608ef86958",
      "networkId": 0,
      "chainId": 0
    },
    {
      "hash": "0x8a18554abde35aead0a87690c117355cbcf4f93a1be1355a585760c5b866649d",
      "blockHash": "0xce5c48a268e40e965e60e474c46c4285c971951aa2bb5059c4bd759467cf6ecc",
      "blockNumber": 105335,
      "transactionIndex": 12,
      "confirmations": null,
      "from": "0xe6A7a1d47ff21B6321162AEA7C6CB457D5476Bca",
      "gasPrice": {
        "_hex": "0xded393ff3"
      },
      "gasLimit": {
        "_hex": "0x55f0"
      },
      "to": "0x9cF18B3eb373C383a42d06136ba331D766ed9Fbb",
      "value": {
        "_hex": "0x2372d2b4bd3bdc490"
      },
      "nonce": 3992,
      "data": "0x",
      "r": "0x376ddb0021673bbc9f265d688e01a272272b84bf4f5a9dcec43dbdef7d9c004b",
      "s": "0x1a4317753b1deac95e165faf23b5e8f76763cebe1582b8e89e214d07b73bd0d4",
      "v": 28,
      "creates": null,
      "raw": "0xf86f820f98850ded393ff38255f0949cf18b3eb373c383a42d06136ba331d766ed9fbb8902372d2b4bd3bdc490801ca0376ddb0021673bbc9f265d688e01a272272b84bf4f5a9dcec43dbdef7d9c004ba01a4317753b1deac95e165faf23b5e8f76763cebe1582b8e89e214d07b73bd0d4",
      "networkId": 0,
      "chainId": 0
    },
    {
      "hash": "0xf2b0d925bf0997aa88b3521a896604893c161b4fc13eedfd2c4071a78410d47c",
      "blockHash": "0xce5c48a268e40e965e60e474c46c4285c971951aa2bb5059c4bd759467cf6ecc",
      "blockNumber": 105335,
      "transactionIndex": 13,
      "confirmations": null,
      "from": "0xe6A7a1d47ff21B6321162AEA7C6CB457D5476Bca",
      "gasPrice": {
        "_hex": "0xded393ff3"
      },
      "gasLimit": {
        "_hex": "0x55f0"
      },
      "to": "0x226E8B888E9F360E1Aea28229C40E2adC5D698b5",
      "value": {
        "_hex": "0x23bafa8db4f74dfe0"
      },
      "nonce": 3993,
      "data": "0x",
      "r": "0xd3019f26f338e05d7d73ac2bbeb1141ecda087e7ed4ba831f785d518bca0deb8",
      "s": "0x487b7ab64eaec405d485fde768b1b3ffc63903b18568c04ce80d4ceb055e93e2",
      "v": 27,
      "creates": null,
      "raw": "0xf86f820f99850ded393ff38255f094226e8b888e9f360e1aea28229c40e2adc5d698b589023bafa8db4f74dfe0801ba0d3019f26f338e05d7d73ac2bbeb1141ecda087e7ed4ba831f785d518bca0deb8a0487b7ab64eaec405d485fde768b1b3ffc63903b18568c04ce80d4ceb055e93e2",
      "networkId": 0,
      "chainId": 0
    },
    {
      "hash": "0x97edf9609578e7cb44315919aed9a932357365059c4571dea9a0168419821830",
      "blockHash": "0xce5c48a268e40e965e60e474c46c4285c971951aa2bb5059c4bd759467cf6ecc",
      "blockNumber": 105335,
      "transactionIndex": 14,
      "confirmations": null,
      "from": "0xe6A7a1d47ff21B6321162AEA7C6CB457D5476Bca",
      "gasPrice": {
        "_hex": "0xded393ff3"
      },
      "gasLimit": {
        "_hex": "0x55f0"
      },
      "to": "0x267069452478cA39b3f5F1A4fFdD4131f50Bc977",
      "value": {
        "_hex": "0x23d21b5d16db49ee8"
      },
      "nonce": 3994,
      "data": "0x",
      "r": "0xd91237e95da4458bcbf5b65137a541ff3c82ef437e20dc2498a0f2a8f4c987a3",
      "s": "0x27e83071154937fd1ace5bdfda90eb847f68c39e9c19a81fb7300b21bb00aed8",
      "v": 27,
      "creates": null,
      "raw": "0xf86f820f9a850ded393ff38255f094267069452478ca39b3f5f1a4ffdd4131f50bc97789023d21b5d16db49ee8801ba0d91237e95da4458bcbf5b65137a541ff3c82ef437e20dc2498a0f2a8f4c987a3a027e83071154937fd1ace5bdfda90eb847f68c39e9c19a81fb7300b21bb00aed8",
      "networkId": 0,
      "chainId": 0
    },
    {
      "hash": "0x5e859aef1c4085bb3b4ce5b95240de69ec7fae2359aaf88766760feeae6d32dd",
      "blockHash": "0xce5c48a268e40e965e60e474c46c4285c971951aa2bb5059c4bd759467cf6ecc",
      "blockNumber": 105335,
      "transactionIndex": 15,
      "confirmations": null,
      "from": "0xe6A7a1d47ff21B6321162AEA7C6CB457D5476Bca",
      "gasPrice": {
        "_hex": "0xded393ff3"
      },
      "gasLimit": {
        "_hex": "0x55f0"
      },
      "to": "0xB5EDD17d2582A94610ebf0C6832c1652EBBBe210",
      "value": {
        "_hex": "0x23eb90f66038eaef0"
      },
      "nonce": 3995,
      "data": "0x",
      "r": "0x69af0d697af495da64fb015a2b8ca4e8daccded5058fee7c60ba6a883e2755f9",
      "s": "0x5178dd1cf0f7fd3934d44d5dc71e742a49cd131f645ede7a7c210ef3a35664c5",
      "v": 28,
      "creates": null,
      "raw": "0xf86f820f9b850ded393ff38255f094b5edd17d2582a94610ebf0c6832c1652ebbbe21089023eb90f66038eaef0801ca069af0d697af495da64fb015a2b8ca4e8daccded5058fee7c60ba6a883e2755f9a05178dd1cf0f7fd3934d44d5dc71e742a49cd131f645ede7a7c210ef3a35664c5",
      "networkId": 0,
      "chainId": 0
    },
    {
      "hash": "0x116cfa765530915961daf805e060097eac80a3b0906e7fa90f481049974a38e3",
      "blockHash": "0xce5c48a268e40e965e60e474c46c4285c971951aa2bb5059c4bd759467cf6ecc",
      "blockNumber": 105335,
      "transactionIndex": 16,
      "confirmations": null,
      "from": "0x3175a28CF6105466923f11bFFabD279F162aa2f8",
      "gasPrice": {
        "_hex": "0xd04830431"
      },
      "gasLimit": {
        "_hex": "0x5208"
      },
      "to": "0x32Be343B94f860124dC4fEe278FDCBD38C102D88",
      "value": {
        "_hex": "0x63e1fa1c8a3c5000"
      },
      "nonce": 14,
      "data": "0x",
      "r": "0xcfdd091f8a794e3097a9ecc90be6dda335f38ac6913b0f4cfe9021de7ace43c3",
      "s": "0x6a698c0c4a735b59f4a8c4fa698c0deb452d94fc2892bdab112ec5004553d34c",
      "v": 27,
      "creates": null,
      "raw": "0xf86c0e850d048304318252089432be343b94f860124dc4fee278fdcbd38c102d888863e1fa1c8a3c5000801ba0cfdd091f8a794e3097a9ecc90be6dda335f38ac6913b0f4cfe9021de7ace43c3a06a698c0c4a735b59f4a8c4fa698c0deb452d94fc2892bdab112ec5004553d34c",
      "networkId": 0,
      "chainId": 0
    },
    {
      "hash": "0x040e0150142c917147a50e60f1f1dc6bced84078576e173b9c65479f15f25f24",
      "blockHash": "0xce5c48a268e40e965e60e474c46c4285c971951aa2bb5059c4bd759467cf6ecc",
      "blockNumber": 105335,
      "transactionIndex": 17,
      "confirmations": null,
      "from": "0x6111E933E5e6297DFd0AAd9aAB64017c69062a08",
      "gasPrice": {
        "_hex": "0xd04830431"
      },
      "gasLimit": {
        "_hex": "0x5208"
      },
      "to": "0x32Be343B94f860124dC4fEe278FDCBD38C102D88",
      "value": {
        "_hex": "0xa15a88a048548000"
      },
      "nonce": 16,
      "data": "0x",
      "r": "0xdc06b5974a178c77d23fd9a50ada855859b775935e8d1c74312cad6f1e644628",
      "s": "0x582b26db60eb466df459f65e2c9077ced6df0904f25fa5d0cc910a60c1e590fd",
      "v": 28,
      "creates": null,
      "raw": "0xf86c10850d048304318252089432be343b94f860124dc4fee278fdcbd38c102d8888a15a88a048548000801ca0dc06b5974a178c77d23fd9a50ada855859b775935e8d1c74312cad6f1e644628a0582b26db60eb466df459f65e2c9077ced6df0904f25fa5d0cc910a60c1e590fd",
      "networkId": 0,
      "chainId": 0
    }
  ]
}