{
  "hash": "0x5e7a61ef192f992bc8dd0df29cb96516cc455b14a97e62d6cd2dff893d91a556",
  "parentHash": "0x051d36064cf6af8601d374773926a70481038392643c58cc7eeda6d7a043ee78",
  "number": 50418,
  "timestamp": 1438988953,
  "nonce": "0xced182196a78d350",
  "difficulty": 1508956479709,
  "gasLimit": {
    "_hex": "0x612b9"
  },
  "gasUsed": {
    "_hex": "0x546c"
  },
  "miner": "0x4F85e43F44D2B0e6f57C9355806cE3e1B3F40Ab8",
  "extraData": "0x476574682f76312e302e312f6c696e75782f676f312e342e32",
  "transactions": [
    {
      "hash": "0xc40f6558dcbdcf9b0035c91a3b0e8a588bbf322b8d15fcfd64f4c9a00b052428",
      "blockHash": "0x5e7a61ef192f992bc8dd0df29cb96516cc455b14a97e62d6cd2dff893d91a556",
      "blockNumber": 50418,
      "transactionIndex": 0,
      "confirmations": null,
      "from": "0x6d3B7836A2B9D899721A4d237b522385dCE8DFCd",
      "gasPrice": {
        "_hex": "0x110c8f7d8de"
      },
      "gasLimit": {
        "_hex": "0xc350"
      },
      "to": "0x2910543Af39abA0Cd09dBb2D50200b3E800A63D2",
      "value": {
        "_hex": "0x1043561a8829300000"
      },
      "nonce": 1,
      "data": "0x454e47503650364147",
      "r": "0x66edde581f23830bfd7614e4f572624b32bc52c05179cc2a8d3d4e8b98ad25ba",
      "s": "0x8aa9e7e79d461f7518e5be0328bcf8589095b65ea5bdbfa88ef094481b1d9b6f",
      "v": 28,
      "creates": null,
      "raw": "0xf87701860110c8f7d8de82c350942910543af39aba0cd09dbb2d50200b3e800a63d2891043561a882930000089454e475036503641471ca066edde581f23830bfd7614e4f572624b32bc52c05179cc2a8d3d4e8b98ad25baa08aa9e7e79d461f7518e5be0328bcf8589095b65ea5bdbfa88ef094481b1d9b6f",
      "networkId": 0,
      "chainId": 0
    }
  ]
}