{
  "hash": "0x15cc598dff2b91c14a0c41dc5db6172fb7afd873dac3fdb59693dafed032d637",
  "parentHash": "0x9a38da32f95c246ecfc13c5f79eee3f8b3393014de8655baeba1f84de45a5d4b",
  "number": 104164,
  "timestamp": 1439865413,
  "nonce": "0x6a7a779f1a580f60",
  "difficulty": 4266995014535,
  "gasLimit": {
    "_hex": "0x2fefd8"
  },
  "gasUsed": {
    "_hex": "0x5208"
  },
  "miner": "0x9Fa9952255B2b06639A04D63804d4BdFFf6E2d7e",
  "extraData": "0x476574682f76312e302e312f77696e646f77732f676f312e342e32",
  "transactions": [
    {
      "hash": "0x6b81c9979cbd7f455d27e5eead4c7862e41da5f4db0938e72b7634d791b4989b",
      "blockHash": "0x15cc598dff2b91c14a0c41dc5db6172fb7afd873dac3fdb59693dafed032d637",
      "blockNumber": 104164,
      "transactionIndex": 0,
      "confirmations": null,
      "from": "0x120A270bbC009644e35F0bB6ab13f95b8199c4ad",
      "gasPrice": {
        "_hex": "0xd31bf7383"
      },
      "gasLimit": {
        "_hex": "0x3d090"
      },
      "to": "0x9eE2bcfE9d322cFD264b1aa913ff9e2Ca905C204",
      "value": {
        "_hex": "0x2940f6dbc414de2000"
      },
      "nonce": 738,
      "data": "0x",
      "r": "0xb2fdbb28c9fb62d30ab5bc36ab992bd2f7d8883c5c1d55d6d0c0473bfed9f58f",
      "s": "0x69006c7b9e2e84ff5bec2ebb8809f11c769f2af7ace25fec7c0747b158466aea",
      "v": 28,
      "creates": null,
      "raw": "0xf8708202e2850d31bf73838303d090949ee2bcfe9d322cfd264b1aa913ff9e2ca905c204892940f6dbc414de2000801ca0b2fdbb28c9fb62d30ab5bc36ab992bd2f7d8883c5c1d55d6d0c0473bfed9f58fa069006c7b9e2e84ff5bec2ebb8809f11c769f2af7ace25fec7c0747b158466aea",
      "networkId": 0,
      "chainId": 0
    }
  ]
}