{
  "hash": "0xf607739fbe7fc67ee332c0195b6804408bbc5f4916af72456455c0468299456c",
  "parentHash": "0x5c4c5877cbbe0af5184ac2d7e1e20db43c94ca8d24679c543056a88c130bab00",
  "number": 82016,
  "timestamp": 1439511926,
  "nonce": "0xe625f8e541f995af",
  "difficulty": 2409288047878,
  "gasLimit": {
    "_hex": "0x2fefd8"
  },
  "gasUsed": {
    "_hex": "0x19a28"
  },
  "miner": "0xe6A7a1d47ff21B6321162AEA7C6CB457D5476Bca",
  "extraData": "0x476574682f76312e302e312d38326566323666362f6c696e75782f676f312e34",
  "transactions": [
    {
      "hash": "0x7c993066b7077618c5c8a2662474541d2f0072e2cc7a0ffcacd588d53d15817c",
      "blockHash": "0xf607739fbe7fc67ee332c0195b6804408bbc5f4916af72456455c0468299456c",
      "blockNumber": 82016,
      "transactionIndex": 0,
      "confirmations": null,
      "from": "0x04B1De703147C22d898323A196121E6ED76C85B3",
      "gasPrice": {
        "_hex": "0xba43b7400"
      },
      "gasLimit": {
        "_hex": "0x5208"
      },
      "to": "0xC47Aaa860008be6f65B58c6C6E02a84e666EfE31",
      "value": {
        "_hex": "0x455fd68a17e11dc0"
      },
      "nonce": 0,
      "data": "0x",
      "r": "0x7445f8d0fe0f4f1b6783522831751efb65551e7d041246234f3c82baec5053f1",
      "s": "0x321d7525912f77521870ce64b03fc595f770b0997cdad2d20305a743ff37c613",
      "v": 28,
      "creates": null,
      "raw": "0xf86c80850ba43b740082520894c47aaa860008be6f65b58c6c6e02a84e666efe3188455fd68a17e11dc0801ca07445f8d0fe0f4f1b6783522831751efb65551e7d041246234f3c82baec5053f1a0321d7525912f77521870ce64b03fc595f770b0997cdad2d20305a743ff37c613",
      "networkId": 0,
      "chainId": 0
    },
    {
      "hash": "0xc163d502b95bb872e1cc560b5fa4db36f719045e0dc93979893eec037d3853be",
      "blockHash": "0xf607739fbe7fc67ee332c0195b6804408bbc5f4916af72456455c0468299456c",
      "blockNumber": 82016,
      "transactionIndex": 1,
      "confirmations": null,
      "from": "0x2845A058eF8C5aD7d022c344ffF46A61Cd6655f6",
      "gasPrice": {
        "_hex": "0xba43b7400"
      },
      "gasLimit": {
        "_hex": "0x5208"
      },
      "to": "0xC47Aaa860008be6f65B58c6C6E02a84e666EfE31",
      "value": {
        "_hex": "0x56ba01c42c64b6000"
      },
      "nonce": 1,
      "data": "0x",
      "r": "0x736c9dd895b079d472dc873c53f745994802c2ba95ff77f91c755c7f69d9ecf3",
      "s": "0x67a62860ff575ed9ecd1db11b838c28d430e89e4d1e5d86897492d017895c0b3",
      "v": 27,
      "creates": null,
      "raw": "0xf86d01850ba43b740082520894c47aaa860008be6f65b58c6c6e02a84e666efe3189056ba01c42c64b6000801ba0736c9dd895b079d472dc873c53f745994802c2ba95ff77f91c755c7f69d9ecf3a067a62860ff575ed9ecd1db11b838c28d430e89e4d1e5d86897492d017895c0b3",
      "networkId": 0,
      "chainId": 0
    },
    {
      "hash": "0x897d81f06f33379ff7071ad4b912037bb3a05c99cfff5e0f9fed15ca6f3fdf5d",
      "blockHash": "0xf607739fbe7fc67ee332c0195b6804408bbc5f4916af72456455c0468299456c",
      "blockNumber": 82016,
      "transactionIndex": 2,
      "confirmations": null,
      "from": "0x03A2F4470228455c681C2D4772EBF4092Ee2624f",
      "gasPrice": {
        "_hex": "0xba43b7400"
      },
      "gasLimit": {
        "_hex": "0x5208"
      },
      "to": "0xC47Aaa860008be6f65B58c6C6E02a84e666EfE31",
      "value": {
        "_hex": "0x189bb6b36a491dc0"
      },
      "nonce": 0,
      "data": "0x",
      "r": "0x3f346d31116a4c3ff38e9d7d00ffdc5580202a9b5f986b6ad69df8104c5f1e3a",
      "s": "0x28153b0d408af9746798a08e19169bf5c7d8bdbeb76b3661c0c808c046260820",
      "v": 27,
      "creates": null,
      "raw": "0xf86c80850ba43b740082520894c47aaa860008be6f65b58c6c6e02a84e666efe3188189bb6b36a491dc0801ba03f346d31116a4c3ff38e9d7d00ffdc5580202a9b5f986b6ad69df8104c5f1e3aa028153b0d408af9746798a08e19169bf5c7d8bdbeb76b3661c0c808c046260820",
      "networkId": 0,
      "chainId": 0
    },
    {
      "hash": "0x4e5294a73658fb93658268d608d278535f95916274f01742edd4675712068b78",
      "blockHash": "0xf607739fbe7fc67ee332c0195b6804408bbc5f4916af72456455c0468299456c",
      "blockNumber": 82016,
      "transactionIndex": 3,
      "confirmations": null,
      "from": "0x79b3CC55449605B142479d28864956bd9e18f283",
      "gasPrice": {
        "_hex": "0xba43b7400"
      },
      "gasLimit": {
        "_hex": "0x5208"
      },
      "to": "0xC47Aaa860008be6f65B58c6C6E02a84e666EfE31",
      "value": {
        "_hex": "0x183cdae2cb861b1c0"
      },
      "nonce": 1,
      "data": "0x",
      "r": "0xf68f8894f3370ce706586e2fc5d2cdb263e3bb7e6c213790e9f4cd24ffccbfb1",
      "s": "0x063fbf387c026981fcaf19117f42068e07418c5dc31c9f564fb2668961d9e7ea",
      "v": 27,
      "creates": null,
      "raw": "0xf86d01850ba43b740082520894c47aaa860008be6f65b58c6c6e02a84e666efe31890183cdae2cb861b1c0801ba0f68f8894f3370ce706586e2fc5d2cdb263e3bb7e6c213790e9f4cd24ffccbfb1a0063fbf387c026981fcaf19117f42068e07418c5dc31c9f564fb2668961d9e7ea",
      "networkId": 0,
      "chainId": 0
    },
    {
      "hash": "0xf59d65de22c85bc30fe683a00a337f4db51d47a8080198f31c22890cb1969648",
      "blockHash": "0xf607739fbe7fc67ee332c0195b6804408bbc5f4916af72456455c0468299456c",
      "blockNumber": 82016,
      "transactionIndex": 4,
      "confirmations": null,
      "from": "0xA0eadCdC3d2cc51DaA7Ef7e65370D2d46Ca9e6D9",
      "gasPrice": {
        "_hex": "0xba43b7400"
      },
      "gasLimit": {
        "_hex": "0x5208"
      },
      "to": "0xC47Aaa860008be6f65B58c6C6E02a84e666EfE31",
      "value": {
        "_hex": "0x410ae44b76d876000"
      },
      "nonce": 1,
      "data": "0x",
      "r": "0x232acf09129e69a330ccb81fba95e28b1f7f4d1a70e77016f2cd76c12459b801",
      "s": "0x362047840e82d953d07af2c05eb29dcd04bdda862f6f839998066dd361511835",
      "v": 28,
      "creates": null,
      "raw": "0xf86d01850ba43b740082520894c47aaa860008be6f65b58c6c6e02a84e666efe31890410ae44b76d876000801ca0232acf09129e69a330ccb81fba95e28b1f7f4d1a70e77016f2cd76c12459b801a0362047840e82d953d07af2c05eb29dcd04bdda862f6f839998066dd361511835",
      "networkId": 0,
      "chainId": 0
    }
  ]
}