{
  "hash": "0xf4ae938d4efaaa0745d669a9a13c90ce889546ff975b31d707b75f9e709ff055",
  "parentHash": "0x0c7224e68eb9af18983a5627d9764cb56dfca916b844819ebe827e88c253f845",
  "number": 106393,
  "timestamp": 1439903382,
  "nonce": "0x5a433ff79fac709f",
  "difficulty": 4485890789358,
  "gasLimit": {
    "_hex": "0x2fefd8"
  },
  "gasUsed": {
    "_hex": "0xaa37"
  },
  "miner": "0x35e8e5dC5FBd97c5b421A80B596C030a2Be2A04D",
  "extraData": "0x476574682f76312e302e312f6c696e75782f676f312e342e32",
  "transactions": [
    {
      "hash": "0x0516f66f27029991bb5fa72dd4f9dbaddea75b4032afe2db083859f4edef0a6f",
      "blockHash": "0xf4ae938d4efaaa0745d669a9a13c90ce889546ff975b31d707b75f9e709ff055",
      "blockNumber": 106393,
      "transactionIndex": 0,
      "confirmations": null,
      "from": "0x87C5B5874A18B4306DF8a752a6C8cc3E82daFc19",
      "gasPrice": {
        "_hex": "0x105cae9a1f6"
      },
      "gasLimit": {
        "_hex": "0x493e0"
      },
      "to": "0xD79B4C6791784184e2755B2fC1659eaaB0f80456",
      "value": {
        "_hex": "0x0"
      },
      "nonce": 345,
      "data": "0x03750d9400000000000000000000000087c5b5874a18b4306df8a752a6c8cc3e82dafc196b6b6b0000000000000000000000000000000000000000000000000000000000",
      "r": "0xc7d8a28e600d8e16af6cdf72b1894f92819d938204263ec98e2c02691ac8c25d",
      "s": "0x580ee04c64233dd4520910ba83a5fb8df460ce6e49ca8f835926092efce1bc43",
      "v": 28,
      "creates": null,
      "raw": "0xf8ad820159860105cae9a1f6830493e094d79b4c6791784184e2755b2fc1659eaab0f8045680b84403750d9400000000000000000000000087c5b5874a18b4306df8a752a6c8cc3e82dafc196b6b6b00000000000000000000000000000000000000000000000000000000001ca0c7d8a28e600d8e16af6cdf72b1894f92819d938204263ec98e2c02691ac8c25da0580ee04c64233dd4520910ba83a5fb8df460ce6e49ca8f835926092efce1bc43",
      "networkId": 0,
      "chainId": 0
    }
  ]
}