{
  "hash": "0xd8838074e424e264ee383f87f6aa031d239b293da3ec2db210bf36c545e54a97",
  "parentHash": "0x3bacf84a8fd8c225f1dcf6d197ec82ba6816652f22e5d25998456c4592872a6f",
  "number": 59867,
  "timestamp": 1439145109,
  "nonce": "0xb034295ffed057b9",
  "difficulty": 1720502087170,
  "gasLimit": {
    "_hex": "0x2fefd8"
  },
  "gasUsed": {
    "_hex": "0x5208"
  },
  "miner": "0xC49418429e58989172a4ACE0bab0cB8D3F00F97f",
  "extraData": "0x476574682f76312e302e312f6c696e75782f676f312e342e32",
  "transactions": [
    {
      "hash": "0x9c516883a8cc477e2fc711a88f34b5d8df8d8e0fc5193db4908247caa760d7ec",
      "blockHash": "0xd8838074e424e264ee383f87f6aa031d239b293da3ec2db210bf36c545e54a97",
      "blockNumber": 59867,
      "transactionIndex": 0,
      "confirmations": null,
      "from": "0x3a35269a1cF41344F2288e9D11bA854991112015",
      "gasPrice": {
        "_hex": "0xd8364fc25"
      },
      "gasLimit": {
        "_hex": "0x15f90"
      },
      "to": "0x86d3856ad0105B9d4199936c1fd203664BA325dC",
      "value": {
        "_hex": "0x4563918244f40000"
      },
      "nonce": 4,
      "data": "0x",
      "r": "0xc69f7b872653d6d1d274384f55d2b483deeaf1688cdf39e19892ef63855dde0e",
      "s": "0x58d430bb14321d9447b7b1c1f48f8a9d2f126838d2a5b4714aeec98bd21d0442",
      "v": 28,
      "creates": null,
      "raw": "0xf86d04850d8364fc2583015f909486d3856ad0105b9d4199936c1fd203664ba325dc884563918244f40000801ca0c69f7b872653d6d1d274384f55d2b483deeaf1688cdf39e19892ef63855dde0ea058d430bb14321d9447b7b1c1f48f8a9d2f126838d2a5b4714aeec98bd21d0442",
      "networkId": 0,
      "chainId": 0
    }
  ]
}