{
  "hash": "0xfe2ad0257c3fb6cb5d0162bcd37b28db1211e44e3f7c71550212baea6633df86",
  "parentHash": "0xe20634dc2d07d44633545da380e39dfa8d2a2e4a6fe26fed4efff8e1c3abd435",
  "number": 96241,
  "timestamp": 1439737187,
  "nonce": "0xaf8317f9d8822fee",
  "difficulty": 3669292449265,
  "gasLimit": {
    "_hex": "0x2fefd8"
  },
  "gasUsed": {
    "_hex": "0xa410"
  },
  "miner": "0xe6A7a1d47ff21B6321162AEA7C6CB457D5476Bca",
  "extraData": "0x476574682f76312e302e312d38326566323666362f6c696e75782f676f312e34",
  "transactions": [
    {
      "hash": "0x941a6c765a07b0a94f9853b952c718e79c5ecf4d61190c538c935a374c04a073",
      "blockHash": "0xfe2ad0257c3fb6cb5d0162bcd37b28db1211e44e3f7c71550212baea6633df86",
      "blockNumber": 96241,
      "transactionIndex": 0,
      "confirmations": null,
      "from": "0xa6BDc31c431B8F97848c9D60cbbe9660dc450eB7",
      "gasPrice": {
        "_hex": "0xd955313d0"
      },
      "gasLimit": {
        "_hex": "0x5208"
      },
      "to": "0x32Be343B94f860124dC4fEe278FDCBD38C102D88",
      "value": {
        "_hex": "0x455f4127a908dc00"
      },
      "nonce": 125,
      "data": "0x",
      "r": "0x9ab05cbca42e6c87894f8a81addccf2a37ce5cc7bcd7ea7e8ee0b0a7896ecea3",
      "s": "0x20d81baa0492458d1ba6613b5943d75eb7a60d45997c817a1e273e708d7e8fc3",
      "v": 27,
      "creates": null,
      "raw": "0xf86c7d850d955313d08252089432be343b94f860124dc4fee278fdcbd38c102d8888455f4127a908dc00801ba09ab05cbca42e6c87894f8a81addccf2a37ce5cc7bcd7ea7e8ee0b0a7896ecea3a020d81baa0492458d1ba6613b5943d75eb7a60d45997c817a1e273e708d7e8fc3",
      "networkId": 0,
      "chainId": 0
    },
    {
      "hash": "0x2edf64036d271a265795a769546673b4ea94d66fdacd0d46e1b2a9614d45311e",
      "blockHash": "0xfe2ad0257c3fb6cb5d0162bcd37b28db1211e44e3f7c71550212baea6633df86",
      "blockNumber": 96241,
      "transactionIndex": 1,
      "confirmations": null,
      "from": "0x007f7f58D3eb5b7510A301eCC749FC1fCDDBE14D",
      "gasPrice": {
        "_hex": "0xcc8ddf695"
      },
      "gasLimit": {
        "_hex": "0x15f90"
      },
      "to": "0xb1abce2918E21ddb93AA452731a12672A3d9F75a",
      "value": {
        "_hex": "0x4563918244f40000"
      },
      "nonce": 76,
      "data": "0x",
      "r": "0x6e2acf3d29b7656bd8780df97327453cf9ebd963e4427bfb199abaaddf203d0a",
      "s": "0x4498e30cc88eced624d14b342aaa8ec856c8b0692454e9995ea69aae5a8a71e2",
      "v": 28,
      "creates": null,
      "raw": "0xf86d4c850cc8ddf69583015f9094b1abce2918e21ddb93aa452731a12672a3d9f75a884563918244f40000801ca06e2acf3d29b7656bd8780df97327453cf9ebd963e4427bfb199abaaddf203d0aa04498e30cc88eced624d14b342aaa8ec856c8b0692454e9995ea69aae5a8a71e2",
      "networkId": 0,
      "chainId": 0
    }
  ]
}