{
  "hash": "0x70aa28177b39184bc3217cc623e5a7138a31ceb56e9b53c56704f72c122148e4",
  "parentHash": "0xae6356435cd19e38f6a486631e34d08a7955aecec1e8eb30e471435e52a3e28c",
  "number": 69672,
  "timestamp": 1439307841,
  "nonce": "0x9d9d4feb8e6055a4",
  "difficulty": 2086097266470,
  "gasLimit": {
    "_hex": "0x2fefd8"
  },
  "gasUsed": {
    "_hex": "0x546c"
  },
  "miner": "0x9746c7e1ef2bd21FF3997fa467593a89cb852BD0",
  "extraData": "0x476574682f76312e302e312f77696e646f77732f676f312e342e32",
  "transactions": [
    {
      "hash": "0x7745c81443c7851a96526d497d2d1730676670f7fcc71b40c462b6d2d569c05b",
      "blockHash": "0x70aa28177b39184bc3217cc623e5a7138a31ceb56e9b53c56704f72c122148e4",
      "blockNumber": 69672,
      "transactionIndex": 0,
      "confirmations": null,
      "from": "0x52F058D46147e9006D29bF2C09304Ad1cdDd6E15",
      "gasPrice": {
        "_hex": "0x110c8f7d8de"
      },
      "gasLimit": {
        "_hex": "0xc350"
      },
      "to": "0x2910543Af39abA0Cd09dBb2D50200b3E800A63D2",
      "value": {
        "_hex": "0x50c5e761a444080000"
      },
      "nonce": 0,
      "data": "0x454e44514d4d5a4547",
      "r": "0xb4bfa21d9ec0e9ff413fd1696fd4b10792cd166f890bd69eb5e47aa71ed99ca3",
      "s": "0xbfd173177552e9c29cd43cf7759ba7fc15807669d41b1f59be3f2f7c1f224851",
      "v": 28,
      "creates": null,
      "raw": "0xf87780860110c8f7d8de82c350942910543af39aba0cd09dbb2d50200b3e800a63d28950c5e761a44408000089454e44514d4d5a45471ca0b4bfa21d9ec0e9ff413fd1696fd4b10792cd166f890bd69eb5e47aa71ed99ca3a0bfd173177552e9c29cd43cf7759ba7fc15807669d41b1f59be3f2f7c1f224851",
      "networkId": 0,
      "chainId": 0
    }
  ]
}