{
  "hash": "0xf8ee12c29ffb7dfffa0c52d86c1e84389cd014f94eaa732bd973fca8e41eab39",
  "parentHash": "0x10cd3bb6329b6778fc27be7005fc2fe4ac41647153a217274a70cd19222d988c",
  "number": 63867,
  "timestamp": 1439211551,
  "nonce": "0x15d69822c13b0bdd",
  "difficulty": 1853979927685,
  "gasLimit": {
    "_hex": "0x2fefd8"
  },
  "gasUsed": {
    "_hex": "0x528f"
  },
  "miner": "0xA2Cb067D1B3038eEe446d994440C0ae9cf1abfdF",
  "extraData": "0x476574682f76312e302e312f77696e646f77732f676f312e342e32",
  "transactions": [
    {
      "hash": "0x6b8f74ff3a3a7979ccf68731f1c2edadc958a21337880b6c20f16e0f93611b4f",
      "blockHash": "0xf8ee12c29ffb7dfffa0c52d86c1e84389cd014f94eaa732bd973fca8e41eab39",
      "blockNumber": 63867,
      "transactionIndex": 0,
      "confirmations": null,
      "from": "0xD9E6086071980fE3484b6BaABA07A10b47B046A6",
      "gasPrice": {
        "_hex": "0x109db8c8993"
      },
      "gasLimit": {
        "_hex": "0x30d40"
      },
      "to": "0x125B606C67E8066Da65069652b656c19717745Fa",
      "value": {
        "_hex": "0x1f161421c8e0000"
      },
      "nonce": 7,
      "data": "0x",
      "r": "0x32996e29efd632ad80aa220dd8d7b5a26c796c6f1354ceb104375675a28a3381",
      "s": "0x073c608c38c21858222b0eb34c185638a15871a6195114b61efc13c521c03952",
      "v": 28,
      "creates": null,
      "raw": "0xf86e07860109db8c899383030d4094125b606c67e8066da65069652b656c19717745fa8801f161421c8e0000801ca032996e29efd632ad80aa220dd8d7b5a26c796c6f1354ceb104375675a28a3381a0073c608c38c21858222b0eb34c185638a15871a6195114b61efc13c521c03952",
      "networkId": 0,
      "chainId": 0
    }
  ]
}