{
  "hash": "0x21f3d00bc8d4854e409c51460bf1c2708cecc968036399cc0d0aefaa5dbe7514",
  "parentHash": "0xc45533df70a2302e31abe24be5c1ab6a62e5a90f5eaf3ea47cbeba251a88b0c0",
  "number": 108565,
  "timestamp": 1439942532,
  "nonce": "0x69f885224ee2551f",
  "difficulty": 4334032830620,
  "gasLimit": {
    "_hex": "0x2fefd8"
  },
  "gasUsed": {
    "_hex": "0x5208"
  },
  "miner": "0xd10E6C4B44Ee5557dF0f11239Ca4BE5025791E8E",
  "extraData": "0x476574682f76312e302e312f6c696e75782f676f312e342e32",
  "transactions": [
    {
      "hash": "0x4bac35e18ba751d65df83ee55862486d875b082b829f6f8b00d47fd1f40f3dbd",
      "blockHash": "0x21f3d00bc8d4854e409c51460bf1c2708cecc968036399cc0d0aefaa5dbe7514",
      "blockNumber": 108565,
      "transactionIndex": 0,
      "confirmations": null,
      "from": "0xC603Ab5ef41fC61AA8b76bEddb09e3Cfcbb174BD",
      "gasPrice": {
        "_hex": "0xd10489125"
      },
      "gasLimit": {
        "_hex": "0x15f90"
      },
      "to": "0x8F79f76381Aad7B98C19aF55eE75fdfEeb012211",
      "value": {
        "_hex": "0x68f365aea1e440000"
      },
      "nonce": 40,
      "data": "0x",
      "r": "0xe0fe5a306f2f06109f7b8073022b052f02099942d2b3f813334f941ec8b2445f",
      "s": "0x700c9e0b26fb3c5f87aee8dedc630ea78ffda538afdaddff45e4977e85c6fa80",
      "v": 28,
      "creates": null,
      "raw": "0xf86e28850d1048912583015f90948f79f76381aad7b98c19af55ee75fdfeeb01221189068f365aea1e440000801ca0e0fe5a306f2f06109f7b8073022b052f02099942d2b3f813334f941ec8b2445fa0700c9e0b26fb3c5f87aee8dedc630ea78ffda538afdaddff45e4977e85c6fa80",
      "networkId": 0,
      "chainId": 0
    }
  ]
}