{
  "hash": "0xc782b5cd68b9a88ceb18b7246ae9b0d14dabb7593453a5edf452204509415f36",
  "parentHash": "0x4b123fb755d578a51a5bc360250649e656dccc16829e7724f497fda462fb5346",
  "number": 116824,
  "timestamp": 1440098119,
  "nonce": "0xa854969840a97477",
  "difficulty": 4340351497407,
  "gasLimit": {
    "_hex": "0x2fefd8"
  },
  "gasUsed": {
    "_hex": "0xf618"
  },
  "miner": "0xe6A7a1d47ff21B6321162AEA7C6CB457D5476Bca",
  "extraData": "0xd783010002844765746887676f312e342e32856c696e7578",
  "transactions": [
    {
      "hash": "0x7f9962f59e08817a50729d83edc1342b2ce84075d951db754b31c29e399aae85",
      "blockHash": "0xc782b5cd68b9a88ceb18b7246ae9b0d14dabb7593453a5edf452204509415f36",
      "blockNumber": 116824,
      "transactionIndex": 0,
      "confirmations": null,
      "from": "0xe6A7a1d47ff21B6321162AEA7C6CB457D5476Bca",
      "gasPrice": {
        "_hex": "0xba43b7400"
      },
      "gasLimit": {
        "_hex": "0x55f0"
      },
      "to": "0xabceA603089850F8f6bB612A9031554D90A247CF",
      "value": {
        "_hex": "0x787d36e96d9d8158"
      },
      "nonce": 5792,
      "data": "0x",
      "r": "0x8f32065d884bd6a611e539d989edfecf72a36ee793b48643ace45cda0a434914",
      "s": "0x4e9d302a21f52b372e2c9e3861244d318f307f0639754491fe20edf471673606",
      "v": 28,
      "creates": null,
      "raw": "0xf86e8216a0850ba43b74008255f094abcea603089850f8f6bb612a9031554d90a247cf88787d36e96d9d8158801ca08f32065d884bd6a611e539d989edfecf72a36ee793b48643ace45cda0a434914a04e9d302a21f52b372e2c9e3861244d318f307f0639754491fe20edf471673606",
      "networkId": 0,
      "chainId": 0
    },
    {
      "hash": "0x0adf37687d24c5b6c081bc1882a603f15431a9c3beb4fae10991b134bf39c39c",
      "blockHash": "0xc782b5cd68b9a88ceb18b7246ae9b0d14dabb7593453a5edf452204509415f36",
      "blockNumber": 116824,
      "transactionIndex": 1,
      "confirmations": null,
      "from": "0xe6A7a1d47ff21B6321162AEA7C6CB457D5476Bca",
      "gasPrice": {
        "_hex": "0xba43b7400"
      },
      "gasLimit": {
        "_hex": "0x55f0"
      },
      "to": "0x02020D22dCF88f5eDd66B382D7da019F161fB7e3",
      "value": {
        "_hex": "0x7acbc537d0e37c90"
      },
      "nonce": 5793,
      "data": "0x",
      "r": "0xd5d1a75ec8c0b54f7751869e4b26e8e06aff4e06806e308fdbcfcf151669f1de",
      "s": "0x0132066afc520708ba358a210bc221ce356b90ef53dd2870548ad8f5a31ce673",
      "v": 27,
      "creates": null,
      "raw": "0xf86e8216a1850ba43b74008255f09402020d22dcf88f5edd66b382d7da019f161fb7e3887acbc537d0e37c90801ba0d5d1a75ec8c0b54f7751869e4b26e8e06aff4e06806e308fdbcfcf151669f1dea00132066afc520708ba358a210bc221ce356b90ef53dd2870548ad8f5a31ce673",
      "networkId": 0,
      "chainId": 0
    },
    {
      "hash": "0x8e6932fed2eb1e3febdcc3d7b3dac88ef982459899073ec4d8d99a287eab2991",
      "blockHash": "0xc782b5cd68b9a88ceb18b7246ae9b0d14dabb7593453a5edf452204509415f36",
      "blockNumber": 116824,
      "transactionIndex": 2,
      "confirmations": null,
      "from": "0xe6A7a1d47ff21B6321162AEA7C6CB457D5476Bca",
      "gasPrice": {
        "_hex": "0xba43b7400"
      },
      "gasLimit": {
        "_hex": "0x55f0"
      },
      "to": "0x5D9067970755043fF5cE7FA2cd21C12F3646Bc55",
      "value": {
        "_hex": "0x7dca14a326caa500"
      },
      "nonce": 5794,
      "data": "0x",
      "r": "0x605f6e46e5196896079e38c2029bcb75eafffe28961bbf6810260411960636c4",
      "s": "0x7c964cbe0164c981388b54846e484f920722c0e6818cc44b8fd94ded11211129",
      "v": 27,
      "creates": null,
      "raw": "0xf86e8216a2850ba43b74008255f0945d9067970755043ff5ce7fa2cd21c12f3646bc55887dca14a326caa500801ba0605f6e46e5196896079e38c2029bcb75eafffe28961bbf6810260411960636c4a07c964cbe0164c981388b54846e484f920722c0e6818cc44b8fd94ded11211129",
      "networkId": 0,
      "chainId": 0
    }
  ]
}