{
  "hash": "0xd1e6d390943e88bdfc911da67e9107fb28a7cd671e00b5cc83ec927ddb9f132e",
  "parentHash": "0xf0055364e494292fbe213a732ac400447e5a52bf4546b3c304c025856d851b27",
  "number": 102226,
  "timestamp": 1439834784,
  "nonce": "0x715d239cb5511ac4",
  "difficulty": 3924176348935,
  "gasLimit": {
    "_hex": "0x2fefd8"
  },
  "gasUsed": {
    "_hex": "0x5208"
  },
  "miner": "0xEF247E639d49461D25F57e9362CadE3120910Ce0",
  "extraData": "0x476574682f76312e302e312f6c696e75782f676f312e342e32",
  "transactions": [
    {
      "hash": "0xe425d468c47a3e7e9cc895a36ac526cddf92bf4bdc51f9dd63e5ada5e6401b83",
      "blockHash": "0xd1e6d390943e88bdfc911da67e9107fb28a7cd671e00b5cc83ec927ddb9f132e",
      "blockNumber": 102226,
      "transactionIndex": 0,
      "confirmations": null,
      "from": "0xd1ce10d2AdBa8b18135eF72Aa5296c9503a3501c",
      "gasPrice": {
        "_hex": "0xd861f710e"
      },
      "gasLimit": {
        "_hex": "0x15f90"
      },
      "to": "0xf2cC0eEAAAeD313542CB262B0B8c3972425143f0",
      "value": {
        "_hex": "0x342e341423780000"
      },
      "nonce": 5,
      "data": "0x",
      "r": "0x1602a904e3c6caf17268e00655a6a4a607ffe31657e5fdc14bc7392f11f0fa23",
      "s": "0x1966811ad972747b34e99bdacb3af972b43d48697edddde1e3a05b502640a74d",
      "v": 28,
      "creates": null,
      "raw": "0xf86d05850d861f710e83015f9094f2cc0eeaaaed313542cb262b0b8c3972425143f088342e341423780000801ca01602a904e3c6caf17268e00655a6a4a607ffe31657e5fdc14bc7392f11f0fa23a01966811ad972747b34e99bdacb3af972b43d48697edddde1e3a05b502640a74d",
      "networkId": 0,
      "chainId": 0
    }
  ]
}