{
  "hash": "0x016b4f401862a405c9d3bf26534368f2adac6a6ce7b0136aeabf519545767d64",
  "parentHash": "0x40a0afee638c091520d718a14bbecd5cb9e1ef862ed6e27bac74b62ee20b8652",
  "number": 63191,
  "timestamp": 1439200645,
  "nonce": "0xf461f4c94e5bc116",
  "difficulty": 1800597129989,
  "gasLimit": {
    "_hex": "0x2fefd8"
  },
  "gasUsed": {
    "_hex": "0xa410"
  },
  "miner": "0x6541237dAaFf6688A79f9F2F370Ca0E7Ee20BD33",
  "extraData": "0x476574682f76312e302e312f77696e646f77732f676f312e342e32",
  "transactions": [
    {
      "hash": "0xfa38dd1b3896322e48a461ac0384fa7ff5af225ef1c7a4452c40a5e7f7ce2793",
      "blockHash": "0x016b4f401862a405c9d3bf26534368f2adac6a6ce7b0136aeabf519545767d64",
      "blockNumber": 63191,
      "transactionIndex": 0,
      "confirmations": null,
      "from": "0x32Be343B94f860124dC4fEe278FDCBD38C102D88",
      "gasPrice": {
        "_hex": "0xd272ceada"
      },
      "gasLimit": {
        "_hex": "0x5208"
      },
      "to": "0xAFe1985fd7FFF4cD6c2370b2BdA170DE647c125d",
      "value": {
        "_hex": "0x17418ff2a05b9800000"
      },
      "nonce": 159,
      "data": "0x",
      "r": "0xd2d9a45783e3a09d8efe0dcf5a9d23ebea9de72ddd79455f67d4d5b42e9c3514",
      "s": "0x6d695a40d09caba93cf0eb8a004cfb9eca46d3a364658524d578a28dc8ffebf7",
      "v": 27,
      "creates": null,
      "raw": "0xf86f819f850d272ceada82520894afe1985fd7fff4cd6c2370b2bda170de647c125d8a017418ff2a05b9800000801ba0d2d9a45783e3a09d8efe0dcf5a9d23ebea9de72ddd79455f67d4d5b42e9c3514a06d695a40d09caba93cf0eb8a004cfb9eca46d3a364658524d578a28dc8ffebf7",
      "networkId": 0,
      "chainId": 0
    },
    {
      "hash": "0x3697020cf31a307636ad8b11861202111d090d1ef5eff3863974212fc5a16d38",
      "blockHash": "0x016b4f401862a405c9d3bf26534368f2adac6a6ce7b0136aeabf519545767d64",
      "blockNumber": 63191,
      "transactionIndex": 1,
      "confirmations": null,
      "from": "0x2Aef8Fb29909AaAa9132e12eFa89a6d04FbC5261",
      "gasPrice": {
        "_hex": "0xd05577996"
      },
      "gasLimit": {
        "_hex": "0x15f90"
      },
      "to": "0x1FC0a68ee75c96453Dc8A877F49CfD6ab21d00ec",
      "value": {
        "_hex": "0x37bdb25026a7a8000"
      },
      "nonce": 1,
      "data": "0x",
      "r": "0xb6931574c98f56efaa5a42bf2d603d8c77a54e966f14a42c0d5888302eadb4fd",
      "s": "0x3d138769d7d110856215450530e101eb6af04d6d6ebd28afaaf118f0d5fb5f2f",
      "v": 28,
      "creates": null,
      "raw": "0xf86e01850d0557799683015f90941fc0a68ee75c96453dc8a877f49cfd6ab21d00ec89037bdb25026a7a8000801ca0b6931574c98f56efaa5a42bf2d603d8c77a54e966f14a42c0d5888302eadb4fda03d138769d7d110856215450530e101eb6af04d6d6ebd28afaaf118f0d5fb5f2f",
      "networkId": 0,
      "chainId": 0
    }
  ]
}