{
  "hash": "0x07f7185cd65cfcb7a35b792948b0859fedb43aa2a00db27d9d7eedfd059a59c2",
  "parentHash": "0x0e88ef305c6c1b564c98eeeb2f51323c0bfdb49a5387bd254cf27f41a059f9aa",
  "number": 69947,
  "timestamp": 1439312358,
  "nonce": "0xeb88bbebb595ec04",
  "difficulty": 2103416616833,
  "gasLimit": {
    "_hex": "0x2fefd8"
  },
  "gasUsed": {
    "_hex": "0x5208"
  },
  "miner": "0x55bAf64fc9eAccFFd7Cc643BB61142E1C6ac093e",
  "extraData": "0x",
  "transactions": [
    {
      "hash": "0x519b325b972b223996070b99c6c0af5e481d794abeb416937bec753e4e8732ef",
      "blockHash": "0x07f7185cd65cfcb7a35b792948b0859fedb43aa2a00db27d9d7eedfd059a59c2",
      "blockNumber": 69947,
      "transactionIndex": 0,
      "confirmations": null,
      "from": "0xCaf1829959CeA5744a97c0b25dC7582c62760f97",
      "gasPrice": {
        "_hex": "0xba43b7400"
      },
      "gasLimit": {
        "_hex": "0x5b04"
      },
      "to": "0x27e806e70622d2864e1B1f4426D72FFb0457C83a",
      "value": {
        "_hex": "0x198c8bbef77e8000"
      },
      "nonce": 0,
      "data": "0x",
      "r": "0xddb01cc7ffc5d56fe360197312f1c2e06d487db2506def9716d439e2e7ed9f33",
      "s": "0x4716fc7a259306a36e0eef882117ec0b239a3785f5e839b31804a0026f016454",
      "v": 28,
      "creates": null,
      "raw": "0xf86c80850ba43b7400825b049427e806e70622d2864e1b1f4426d72ffb0457c83a88198c8bbef77e8000801ca0ddb01cc7ffc5d56fe360197312f1c2e06d487db2506def9716d439e2e7ed9f33a04716fc7a259306a36e0eef882117ec0b239a3785f5e839b31804a0026f016454",
      "networkId": 0,
      "chainId": 0
    }
  ]
}