{
  "hash": "0xc62abd98794296aa480eb8806c15f361a9910ce647aa9a48cf70f826d73cf30a",
  "parentHash": "0xaa3812b0ebe6e75e4908f468f5f30a6db364230b7003f576fe43ff23064e6d28",
  "number": 63685,
  "timestamp": 1439208486,
  "nonce": "0xa9983b9adaf65e6a",
  "difficulty": 1841389406047,
  "gasLimit": {
    "_hex": "0x2fefd8"
  },
  "gasUsed": {
    "_hex": "0xa410"
  },
  "miner": "0x5F8F73E26CdF436f19Cb24C82F90A15AFe55b592",
  "extraData": "0x476574682f76312e302e312f77696e646f77732f676f312e342e32",
  "transactions": [
    {
      "hash": "0x9ddda16395c412ac1b173c867cedba5be2dbc44cb7e200cdb39f80fa0e4f0d87",
      "blockHash": "0xc62abd98794296aa480eb8806c15f361a9910ce647aa9a48cf70f826d73cf30a",
      "blockNumber": 63685,
      "transactionIndex": 0,
      "confirmations": null,
      "from": "0x98EaB1a51ef0aB03f4A0BabcB61113A3AF9886C6",
      "gasPrice": {
        "_hex": "0x746a528800"
      },
      "gasLimit": {
        "_hex": "0x5b04"
      },
      "to": "0x0000000000000000000000000000000000000000",
      "value": {
        "_hex": "0x1bc16d674ec80000"
      },
      "nonce": 0,
      "data": "0x",
      "r": "0x2b1c45410bcec9c756a3d5d6ecc37348eaabd50db50fcffbd8d7d04c97180ba7",
      "s": "0xf30b0419c758d87614e312cabfede7c14baef3042609305b9682565707d4a18b",
      "v": 28,
      "creates": null,
      "raw": "0xf86c8085746a528800825b04940000000000000000000000000000000000000000881bc16d674ec80000801ca02b1c45410bcec9c756a3d5d6ecc37348eaabd50db50fcffbd8d7d04c97180ba7a0f30b0419c758d87614e312cabfede7c14baef3042609305b9682565707d4a18b",
      "networkId": 0,
      "chainId": 0
    },
    {
      "hash": "0x1906b03e9eacccbb08828d4a81b800fb1642ae491a4592540ab51af63546e19c",
      "blockHash": "0xc62abd98794296aa480eb8806c15f361a9910ce647aa9a48cf70f826d73cf30a",
      "blockNumber": 63685,
      "transactionIndex": 1,
      "confirmations": null,
      "from": "0x2910543Af39abA0Cd09dBb2D50200b3E800A63D2",
      "gasPrice": {
        "_hex": "0xde6496cfd"
      },
      "gasLimit": {
        "_hex": "0x5208"
      },
      "to": "0x431f45FF1650D680041a5034211e066e89b7aAdd",
      "value": {
        "_hex": "0xde0b6b3a7640000"
      },
      "nonce": 131,
      "data": "0x",
      "r": "0x2bd74c08f891b718f3a183757189e196ef99afbcc60f2f7819ee0b754ae79f1d",
      "s": "0x4ef0488cc3eb9e9a30713b7d534fdae53405dbf437f272279a976fe9bf3fd034",
      "v": 27,
      "creates": null,
      "raw": "0xf86d8183850de6496cfd82520894431f45ff1650d680041a5034211e066e89b7aadd880de0b6b3a7640000801ba02bd74c08f891b718f3a183757189e196ef99afbcc60f2f7819ee0b754ae79f1da04ef0488cc3eb9e9a30713b7d534fdae53405dbf437f272279a976fe9bf3fd034",
      "networkId": 0,
      "chainId": 0
    }
  ]
}