{
  "hash": "0x2ebf735acb40d4b75ec709e4a0e43f9da6f14839e47ffd1bc68dd99f75b4dcaa",
  "parentHash": "0x5bfcafe1cd5c37d989ed7cff232413fb3091fc641c3f2b61830746ce60f8c4f5",
  "number": 113397,
  "timestamp": 1440022817,
  "nonce": "0x20bd63996c3fb2bf",
  "difficulty": 4473401243705,
  "gasLimit": {
    "_hex": "0x2fefd8"
  },
  "gasUsed": {
    "_hex": "0x23e38"
  },
  "miner": "0x0037ce3d4B7f8729C8607D8D0248252Be68202c0",
  "extraData": "0x476574682f76312e302e312f77696e646f77732f676f312e342e32",
  "transactions": [
    {
      "hash": "0x649de7632905fd05d8a11452d0245f44fe8a4db794ed83774e9bcf7854cb6f09",
      "blockHash": "0x2ebf735acb40d4b75ec709e4a0e43f9da6f14839e47ffd1bc68dd99f75b4dcaa",
      "blockNumber": 113397,
      "transactionIndex": 0,
      "confirmations": null,
      "from": "0xD99b25c518320820D3C5ae9f47378DA32dED5f00",
      "gasPrice": {
        "_hex": "0xd712a6e79"
      },
      "gasLimit": {
        "_hex": "0x5208"
      },
      "to": "0x32Be343B94f860124dC4fEe278FDCBD38C102D88",
      "value": {
        "_hex": "0x81065e8395ce000"
      },
      "nonce": 9,
      "data": "0x",
      "r": "0x1be5fb50ada8f1aefb9bf878d9e6b4f79f2a910e59fdc170feff4cd83bdce25c",
      "s": "0x7a5672db2d4734bdf34ec5e41916d739b6c5c6b5191c80ee1dded189a3345c1b",
      "v": 28,
      "creates": null,
      "raw": "0xf86c09850d712a6e798252089432be343b94f860124dc4fee278fdcbd38c102d8888081065e8395ce000801ca01be5fb50ada8f1aefb9bf878d9e6b4f79f2a910e59fdc170feff4cd83bdce25ca07a5672db2d4734bdf34ec5e41916d739b6c5c6b5191c80ee1dded189a3345c1b",
      "networkId": 0,
      "chainId": 0
    },
    {
      "hash": "0x42e92c9de0d08b7c85ecb820f6fa9b03ecd8ad69e5cc1ce42a6c41762c23636e",
      "blockHash": "0x2ebf735acb40d4b75ec709e4a0e43f9da6f14839e47ffd1bc68dd99f75b4dcaa",
      "blockNumber": 113397,
      "transactionIndex": 1,
      "confirmations": null,
      "from": "0x94b20d3d932AA82aD71b86b904A3D769689351b4",
      "gasPrice": {
        "_hex": "0xd712a6e79"
      },
      "gasLimit": {
        "_hex": "0x5208"
      },
      "to": "0x32Be343B94f860124dC4fEe278FDCBD38C102D88",
      "value": {
        "_hex": "0x8a274b5e5de3f000"
      },
      "nonce": 10,
      "data": "0x",
      "r": "0xe89c7e284a839fe25e58656db2acb0c74135e6fd155bac90cda2deaa59b4f2cc",
      "s": "0x762a28702a67ac6c46d4575f293b510833ba032b67b4154dfc74f101d832e334",
      "v": 28,
      "creates": null,
      "raw": "0xf86c0a850d712a6e798252089432be343b94f860124dc4fee278fdcbd38c102d88888a274b5e5de3f000801ca0e89c7e284a839fe25e58656db2acb0c74135e6fd155bac90cda2deaa59b4f2cca0762a28702a67ac6c46d4575f293b510833ba032b67b4154dfc74f101d832e334",
      "networkId": 0,
      "chainId": 0
    },
    {
      "hash": "0x72ff38677b4935ded79620acae92a5b2f872c850e3f199ab816fef82ddc922e8",
      "blockHash": "0x2ebf735acb40d4b75ec709e4a0e43f9da6f14839e47ffd1bc68dd99f75b4dcaa",
      "blockNumber": 113397,
      "transactionIndex": 2,
      "confirmations": null,
      "from": "0xc544B25bb91b87e380dda392687c6216b0260671",
      "gasPrice": {
        "_hex": "0xd712a6e79"
      },
      "gasLimit": {
        "_hex": "0x5208"
      },
      "to": "0x32Be343B94f860124dC4fEe278FDCBD38C102D88",
      "value": {
        "_hex": "0x11ccca265c4f0800"
      },
      "nonce": 12,
      "data": "0x",
      "r": "0x69f2b8f104be1e65a0b4f0f7d9d792f4c413ae232a4910865f0436757bf3d52d",
      "s": "0x75c24bc1b8a90867c9e3e51ba0d2e2ed0b2140bf1c4639053770833ff071b384",
      "v": 28,
      "creates": null,
      "raw": "0xf86c0c850d712a6e798252089432be343b94f860124dc4fee278fdcbd38c102d888811ccca265c4f0800801ca069f2b8f104be1e65a0b4f0f7d9d792f4c413ae232a4910865f0436757bf3d52da075c24bc1b8a90867c9e3e51ba0d2e2ed0b2140bf1c4639053770833ff071b384",
      "networkId": 0,
      "chainId": 0
    },
    {
      "hash": "0x43c2a0c20ba8d0306f5f2601f8acad64c528a8a9bb2c1f2ed4de97771f770af2",
      "blockHash": "0x2ebf735acb40d4b75ec709e4a0e43f9da6f14839e47ffd1bc68dd99f75b4dcaa",
      "blockNumber": 113397,
      "transactionIndex": 3,
      "confirmations": null,
      "from": "0x8263B7757b139904C7cD8511B3D0a6D1479848Ba",
      "gasPrice": {
        "_hex": "0xd712a6e79"
      },
      "gasLimit": {
        "_hex": "0x5208"
      },
      "to": "0x32Be343B94f860124dC4fEe278FDCBD38C102D88",
      "value": {
        "_hex": "0x1e5e4d353cf60000"
      },
      "nonce": 9,
      "data": "0x",
      "r": "0xf399995f1b8399d978329f36af8d655743815524b1acb8eaea5d2658fc3e41ce",
      "s": "0x615a1b8cba86f3a1e724b5744aa59e17bbc8f0d4851daed64cf8c78452c41ef3",
      "v": 27,
      "creates": null,
      "raw": "0xf86c09850d712a6e798252089432be343b94f860124dc4fee278fdcbd38c102d88881e5e4d353cf60000801ba0f399995f1b8399d978329f36af8d655743815524b1acb8eaea5d2658fc3e41cea0615a1b8cba86f3a1e724b5744aa59e17bbc8f0d4851daed64cf8c78452c41ef3",
      "networkId": 0,
      "chainId": 0
    },
    {
      "hash": "0x7db9e346a11a6491041f398287610e962c38d81c4061e21d09474c269e289f86",
      "blockHash": "0x2ebf735acb40d4b75ec709e4a0e43f9da6f14839e47ffd1bc68dd99f75b4dcaa",
      "blockNumber": 113397,
      "transactionIndex": 4,
      "confirmations": null,
      "from": "0x4a09cb883b0B1Ff0d401B3DFFED924407D083D74",
      "gasPrice": {
        "_hex": "0xd712a6e79"
      },
      "gasLimit": {
        "_hex": "0x5208"
      },
      "to": "0x32Be343B94f860124dC4fEe278FDCBD38C102D88",
      "value": {
        "_hex": "0x1d5350d14ac97c00"
      },
      "nonce": 3,
      "data": "0x",
      "r": "0xd5bde971e5af2d37c56271afa2906ba9a6add1c16eb2381f5ebd3d24f7cf2c5e",
      "s": "0x6c67a633bf56cf4798f6c129361d54c9727ac6848eb4fe4e74db4824c3360366",
      "v": 28,
      "creates": null,
      "raw": "0xf86c03850d712a6e798252089432be343b94f860124dc4fee278fdcbd38c102d88881d5350d14ac97c00801ca0d5bde971e5af2d37c56271afa2906ba9a6add1c16eb2381f5ebd3d24f7cf2c5ea06c67a633bf56cf4798f6c129361d54c9727ac6848eb4fe4e74db4824c3360366",
      "networkId": 0,
      "chainId": 0
    },
    {
      "hash": "0x9ffa6dc244ee031fe0e34c573264f5f3e35f8c824fbce353af5d4ffb025dfac0",
      "blockHash": "0x2ebf735acb40d4b75ec709e4a0e43f9da6f14839e47ffd1bc68dd99f75b4dcaa",
      "blockNumber": 113397,
      "transactionIndex": 5,
      "confirmations": null,
      "from": "0x0fCA66B29fD596F59398744163e3eB9C323E5133",
      "gasPrice": {
        "_hex": "0xd712a6e79"
      },
      "gasLimit": {
        "_hex": "0x5208"
      },
      "to": "0x32Be343B94f860124dC4fEe278FDCBD38C102D88",
      "value": {
        "_hex": "0x13f884daceac2a000"
      },
      "nonce": 2,
      "data": "0x",
      "r": "0x0a4ccad919f3d3c032e361f69ea4021fc8f2ffe8f85012c2d1f917e56287d3ce",
      "s": "0x2d101e4ae417d4490d186a71c5ead71c32b659a6a9493f35ddbc9ce0609ededc",
      "v": 27,
      "creates": null,
      "raw": "0xf86d02850d712a6e798252089432be343b94f860124dc4fee278fdcbd38c102d8889013f884daceac2a000801ba00a4ccad919f3d3c032e361f69ea4021fc8f2ffe8f85012c2d1f917e56287d3cea02d101e4ae417d4490d186a71c5ead71c32b659a6a9493f35ddbc9ce0609ededc",
      "networkId": 0,
      "chainId": 0
    },
    {
      "hash": "0xe548467d56473fe82458cad6eebe43e458283443dfd9f858419cbf0f927fe298",
      "blockHash": "0x2ebf735acb40d4b75ec709e4a0e43f9da6f14839e47ffd1bc68dd99f75b4dcaa",
      "blockNumber": 113397,
      "transactionIndex": 6,
      "confirmations": null,
      "from": "0xFBb1b73C4f0BDa4f67dcA266ce6Ef42f520fBB98",
      "gasPrice": {
        "_hex": "0xd056b2263"
      },
      "gasLimit": {
        "_hex": "0x5208"
      },
      "to": "0x1f1f1f6FAA77a31e6c9aeF1eF25A6F6819177EEB",
      "value": {
        "_hex": "0x7630407375d6400"
      },
      "nonce": 225,
      "data": "0x",
      "r": "0xccad1aac8db281f40314b5b71e424af09997308892140a24372bb3cf25a8d10f",
      "s": "0x7177c8087926aeb8a6ab4071f5d11695e91c06b063729854ac74a20777f0394b",
      "v": 28,
      "creates": null,
      "raw": "0xf86d81e1850d056b2263825208941f1f1f6faa77a31e6c9aef1ef25a6f6819177eeb8807630407375d6400801ca0ccad1aac8db281f40314b5b71e424af09997308892140a24372bb3cf25a8d10fa07177c8087926aeb8a6ab4071f5d11695e91c06b063729854ac74a20777f0394b",
      "networkId": 0,
      "chainId": 0
    }
  ]
}