{
  "hash": "0x21b24d6c1472058da57abfb6326c2a18cc13db4607a96c9bb083043a4fbf0664",
  "parentHash": "0xa44de66e7f4c42c0284e0eaae2401c34f3d814bda4baa91f249b85ca0a5adbd0",
  "number": 88650,
  "timestamp": 1439611286,
  "nonce": "0x441b027dcf1b4d91",
  "difficulty": 3236326578180,
  "gasLimit": {
    "_hex": "0x2fefd8"
  },
  "gasUsed": {
    "_hex": "0x5208"
  },
  "miner": "0x88D74a59454F6cF3B51ef6b9136AFb6b9D405A88",
  "extraData": "0x476574682f76312e302e312d37666266393930632f6c696e75782f676f312e34",
  "transactions": [
    {
      "hash": "0x68b361675da5d1a7bf917f9cc9ed5f6ade7579b3a3de086f1d35ff6f28d6221d",
      "blockHash": "0x21b24d6c1472058da57abfb6326c2a18cc13db4607a96c9bb083043a4fbf0664",
      "blockNumber": 88650,
      "transactionIndex": 0,
      "confirmations": null,
      "from": "0x2910543Af39abA0Cd09dBb2D50200b3E800A63D2",
      "gasPrice": {
        "_hex": "0xce9d9ad5d"
      },
      "gasLimit": {
        "_hex": "0x5208"
      },
      "to": "0xe7cfdAcb398c319799E001D6A0F5d07B9187Ae16",
      "value": {
        "_hex": "0x2a7f134e9d2438000"
      },
      "nonce": 733,
      "data": "0x",
      "r": "0x5789573271c6b91f1db3f72f6e64cf0b93c50e4f703f682900e30426dae56977",
      "s": "0x62a185dd2ad815527bcec6bd42ec6846e8d68a6453b02ac316232b70163bf41c",
      "v": 28,
      "creates": null,
      "raw": "0xf86f8202dd850ce9d9ad5d82520894e7cfdacb398c319799e001d6a0f5d07b9187ae168902a7f134e9d2438000801ca05789573271c6b91f1db3f72f6e64cf0b93c50e4f703f682900e30426dae56977a062a185dd2ad815527bcec6bd42ec6846e8d68a6453b02ac316232b70163bf41c",
      "networkId": 0,
      "chainId": 0
    }
  ]
}