{
  "hash": "0xa846c8cfdfd18d3e7e7106a36263c02e0534049570c5156c93287ec9a63e7c5e",
  "parentHash": "0x17758519569e7fc81b27441d62396c75c788fb704f643464298fce51b9271d4e",
  "number": 70980,
  "timestamp": 1439328570,
  "nonce": "0x3ec0d4f283d81580",
  "difficulty": 2160404150109,
  "gasLimit": {
    "_hex": "0x2fefd8"
  },
  "gasUsed": {
    "_hex": "0x5208"
  },
  "miner": "0xbb7B8287f3F0a933474a79eAe42CBCa977791171",
  "extraData": "0x476574682f4c5649562f76312e302e312f6c696e75782f676f312e342e32",
  "transactions": [
    {
      "hash": "0xe1cad8b4be678952b8c100788cba5f5b04b148a1b01019e21b9c52555ec133e5",
      "blockHash": "0xa846c8cfdfd18d3e7e7106a36263c02e0534049570c5156c93287ec9a63e7c5e",
      "blockNumber": 70980,
      "transactionIndex": 0,
      "confirmations": null,
      "from": "0x67da922eFFA472a6b124e84Ea8f86b24E0f515aA",
      "gasPrice": {
        "_hex": "0xdc2bc5c0e"
      },
      "gasLimit": {
        "_hex": "0x15f90"
      },
      "to": "0x597f19B04CEf3204943aB6D8CFd4f4457451222D",
      "value": {
        "_hex": "0x107ad8f556c6c0000"
      },
      "nonce": 0,
      "data": "0x",
      "r": "0x88aa1313ea5283c6ebdc14d82c500d769eef844f88b9cb158ed5839df5e8d8bf",
      "s": "0x111770a763aba9cc1c3e0a3f4ef6b33b9fce46cbcbd226d5980052987771eb54",
      "v": 28,
      "creates": null,
      "raw": "0xf86e80850dc2bc5c0e83015f9094597f19b04cef3204943ab6d8cfd4f4457451222d890107ad8f556c6c0000801ca088aa1313ea5283c6ebdc14d82c500d769eef844f88b9cb158ed5839df5e8d8bfa0111770a763aba9cc1c3e0a3f4ef6b33b9fce46cbcbd226d5980052987771eb54",
      "networkId": 0,
      "chainId": 0
    }
  ]
}