{
  "hash": "0x4a0755b98585d37b299ef0907fbc290bb83d399062af89894d2ca3fbebe4e2af",
  "parentHash": "0xd777b77ce89504c89e082d7d7e96b5e28a53a691ea0e8f7dd6acbfbf959856d9",
  "number": 74280,
  "timestamp": 1439383593,
  "nonce": "0x6ce441ea35622ee5",
  "difficulty": 2206453105728,
  "gasLimit": {
    "_hex": "0x2fefd8"
  },
  "gasUsed": {
    "_hex": "0x57288"
  },
  "miner": "0xeB1325C8D9d3ea8D74aC11F4B00F1B2367686319",
  "extraData": "0x476574682f76312e302e312f77696e646f77732f676f312e342e32",
  "transactions": [
    {
      "hash": "0xb1abf514943f632c0227a2be802386e86f1a5f59aff24afae1f6dbd5c1b3a311",
      "blockHash": "0x4a0755b98585d37b299ef0907fbc290bb83d399062af89894d2ca3fbebe4e2af",
      "blockNumber": 74280,
      "transactionIndex": 0,
      "confirmations": null,
      "from": "0xaa71fa80d26F718E6A3c87e41D817b8D10944a63",
      "gasPrice": {
        "_hex": "0xdaa031dae"
      },
      "gasLimit": {
        "_hex": "0x5208"
      },
      "to": "0x32Be343B94f860124dC4fEe278FDCBD38C102D88",
      "value": {
        "_hex": "0xe98ab01b8d081000"
      },
      "nonce": 0,
      "data": "0x",
      "r": "0x26c617d5ffc99fde7b16ca46fb9c938d1963b1bca57083936659331d3745d5a5",
      "s": "0x6bbe2f24d0457f42f00228d62db86840d8f8728d6fbdec18b27cb38df86238b0",
      "v": 27,
      "creates": null,
      "raw": "0xf86c80850daa031dae8252089432be343b94f860124dc4fee278fdcbd38c102d8888e98ab01b8d081000801ba026c617d5ffc99fde7b16ca46fb9c938d1963b1bca57083936659331d3745d5a5a06bbe2f24d0457f42f00228d62db86840d8f8728d6fbdec18b27cb38df86238b0",
      "networkId": 0,
      "chainId": 0
    },
    {
      "hash": "0xab35756b23e43cfc998aef60817ff9dada82d8a39d1300263b39a49df90f58ac",
      "blockHash": "0x4a0755b98585d37b299ef0907fbc290bb83d399062af89894d2ca3fbebe4e2af",
      "blockNumber": 74280,
      "transactionIndex": 1,
      "confirmations": null,
      "from": "0xce8ff6d2027CA9837abb85FD515752151b6C7d0A",
      "gasPrice": {
        "_hex": "0xdaa031dae"
      },
      "gasLimit": {
        "_hex": "0x5208"
      },
      "to": "0x32Be343B94f860124dC4fEe278FDCBD38C102D88",
      "value": {
        "_hex": "0xde7c7ca49e091800"
      },
      "nonce": 0,
      "data": "0x",
      "r": "0xa21d64693cb8992632f2e5b28abd724a1a78ba60d010c0d082947124ffa016dd",
      "s": "0x31c602d9331b2e4baacde5a8708d92b071344095d5ffb2aa20d53ccb18ba6903",
      "v": 28,
      "creates": null,
      "raw": "0xf86c80850daa031dae8252089432be343b94f860124dc4fee278fdcbd38c102d8888de7c7ca49e091800801ca0a21d64693cb8992632f2e5b28abd724a1a78ba60d010c0d082947124ffa016dda031c602d9331b2e4baacde5a8708d92b071344095d5ffb2aa20d53ccb18ba6903",
      "networkId": 0,
      "chainId": 0
    },
    {
      "hash": "0xb7e568014932f0f9c5a0a0f29f8638b0bbd98d8cce6f7dfa38b2e1afe585a26b",
      "blockHash": "0x4a0755b98585d37b299ef0907fbc290bb83d399062af89894d2ca3fbebe4e2af",
      "blockNumber": 74280,
      "transactionIndex": 2,
      "confirmations": null,
      "from": "0x6599C9c86f1635FAAEFE7A5540914811DAD8d167",
      "gasPrice": {
        "_hex": "0xdaa031dae"
      },
      "gasLimit": {
        "_hex": "0x5208"
      },
      "to": "0x32Be343B94f860124dC4fEe278FDCBD38C102D88",
      "value": {
        "_hex": "0x8dcbea3b4adbf000"
      },
      "nonce": 0,
      "data": "0x",
      "r": "0xb81d164653ec38272449a7fc3b475f6b4e0ad04caf222090bd0203fcaa874ea8",
      "s": "0x1c34a574b5c575f29a3265821cff334dd4a89c1829afaeddc0028571452bbae7",
      "v": 28,
      "creates": null,
      "raw": "0xf86c80850daa031dae8252089432be343b94f860124dc4fee278fdcbd38c102d88888dcbea3b4adbf000801ca0b81d164653ec38272449a7fc3b475f6b4e0ad04caf222090bd0203fcaa874ea8a01c34a574b5c575f29a3265821cff334dd4a89c1829afaeddc0028571452bbae7",
      "networkId": 0,
      "chainId": 0
    },
    {
      "hash": "0x317e27ff999b6a7a5269b6b067530476cae3c1528e0ed7da358a30877f20c343",
      "blockHash": "0x4a0755b98585d37b299ef0907fbc290bb83d399062af89894d2ca3fbebe4e2af",
      "blockNumber": 74280,
      "transactionIndex": 3,
      "confirmations": null,
      "from": "0x4369BF4867c99a39513Bb176d468A7e326F3a542",
      "gasPrice": {
        "_hex": "0xdaa031dae"
      },
      "gasLimit": {
        "_hex": "0x5208"
      },
      "to": "0x32Be343B94f860124dC4fEe278FDCBD38C102D88",
      "value": {
        "_hex": "0x6d079581df40b800"
      },
      "nonce": 0,
      "data": "0x",
      "r": "0x6627a26ea98970ab0f10b42d26ee63c0ca3f329a0250442d381d65455c0cabc6",
      "s": "0x459a6de00babea1ce583e5baa74462c454318bde0352593818a91ae508974059",
      "v": 28,
      "creates": null,
      "raw": "0xf86c80850daa031dae8252089432be343b94f860124dc4fee278fdcbd38c102d88886d079581df40b800801ca06627a26ea98970ab0f10b42d26ee63c0ca3f329a0250442d381d65455c0cabc6a0459a6de00babea1ce583e5baa74462c454318bde0352593818a91ae508974059",
      "networkId": 0,
      "chainId": 0
    },
    {
      "hash": "0x5c9246cbe158940e1059b2bc58585ca47738fce773a19e8ff125b4b1f1b28357",
      "blockHash": "0x4a0755b98585d37b299ef0907fbc290bb83d399062af89894d2ca3fbebe4e2af",
      "blockNumber": 74280,
      "transactionIndex": 4,
      "confirmations": null,
      "from": "0x06EC48800B2DB3eEfa052e98A9b5Fc2Bf783Ee74",
      "gasPrice": {
        "_hex": "0xdaa031dae"
      },
      "gasLimit": {
        "_hex": "0x5208"
      },
      "to": "0x32Be343B94f860124dC4fEe278FDCBD38C102D88",
      "value": {
        "_hex": "0x2843db02cb106c00"
      },
      "nonce": 0,
      "data": "0x",
      "r": "0xaf935139bee35d71a3c744a776ec133b7e7e7dc02607f2617d8611ed3fbfc2a8",
      "s": "0x11b85c91d51733971b245e0a6dd9accb02cdbaf146a495c78527ddc3b2faeb4b",
      "v": 28,
      "creates": null,
      "raw": "0xf86c80850daa031dae8252089432be343b94f860124dc4fee278fdcbd38c102d88882843db02cb106c00801ca0af935139bee35d71a3c744a776ec133b7e7e7dc02607f2617d8611ed3fbfc2a8a011b85c91d51733971b245e0a6dd9accb02cdbaf146a495c78527ddc3b2faeb4b",
      "networkId": 0,
      "chainId": 0
    },
    {
      "hash": "0xcf6b3269fa7fd16ea613342c04e90ff71d1c8c055d53e1d6704f4b0d4ab981d9",
      "blockHash": "0x4a0755b98585d37b299ef0907fbc290bb83d399062af89894d2ca3fbebe4e2af",
      "blockNumber": 74280,
      "transactionIndex": 5,
      "confirmations": null,
      "from": "0x46b29910396E1cF71678f81101334A180876E9b1",
      "gasPrice": {
        "_hex": "0xdaa031dae"
      },
      "gasLimit": {
        "_hex": "0x5208"
      },
      "to": "0x32Be343B94f860124dC4fEe278FDCBD38C102D88",
      "value": {
        "_hex": "0xdd6b01fcc2b2d000"
      },
      "nonce": 0,
      "data": "0x",
      "r": "0x58167e2249f9d6c9874722580ae2f1eb6cabe60ac4e1be1950a588cad123e543",
      "s": "0x42eca51a886fe17bbf5d8b5edd81f16021a9aea13f1789b8a2a6d47e70e9e53a",
      "v": 27,
      "creates": null,
      "raw": "0xf86c80850daa031dae8252089432be343b94f860124dc4fee278fdcbd38c102d8888dd6b01fcc2b2d000801ba058167e2249f9d6c9874722580ae2f1eb6cabe60ac4e1be1950a588cad123e543a042eca51a886fe17bbf5d8b5edd81f16021a9aea13f1789b8a2a6d47e70e9e53a",
      "networkId": 0,
      "chainId": 0
    },
    {
      "hash": "0x5da03502b63431c5da8272fbc70796e39b9ec2c3bb3169bb580910760daaac7a",
      "blockHash": "0x4a0755b98585d37b299ef0907fbc290bb83d399062af89894d2ca3fbebe4e2af",
      "blockNumber": 74280,
      "transactionIndex": 6,
      "confirmations": null,
      "from": "0x3b09EfC81d5e3F72737B4063883CEDdfBc79ae88",
      "gasPrice": {
        "_hex": "0xdaa031dae"
      },
      "gasLimit": {
        "_hex": "0x5208"
      },
      "to": "0x32Be343B94f860124dC4fEe278FDCBD38C102D88",
      "value": {
        "_hex": "0x6e51b7b3c3f0c000"
      },
      "nonce": 0,
      "data": "0x",
      "r": "0x0cfc003430bd93520783cbc73bb9135eef521a327f5c2a64456d944e6e79d8e2",
      "s": "0x37cad5e6a448e25e6cff23e875d70f9ece7769ef461874a0b252c8f656ae1a3a",
      "v": 28,
      "creates": null,
      "raw": "0xf86c80850daa031dae8252089432be343b94f860124dc4fee278fdcbd38c102d88886e51b7b3c3f0c000801ca00cfc003430bd93520783cbc73bb9135eef521a327f5c2a64456d944e6e79d8e2a037cad5e6a448e25e6cff23e875d70f9ece7769ef461874a0b252c8f656ae1a3a",
      "networkId": 0,
      "chainId": 0
    },
    {
      "hash": "0xd071218d1e56e3f1ac6fb10f280bf178319a104998070605be1293481915e90a",
      "blockHash": "0x4a0755b98585d37b299ef0907fbc290bb83d399062af89894d2ca3fbebe4e2af",
      "blockNumber": 74280,
      "transactionIndex": 7,
      "confirmations": null,
      "from": "0xdc41BFACFAaF8B0F0949aB5A3f18f47063Ae62fB",
      "gasPrice": {
        "_hex": "0xdaa031dae"
      },
      "gasLimit": {
        "_hex": "0x5208"
      },
      "to": "0x32Be343B94f860124dC4fEe278FDCBD38C102D88",
      "value": {
        "_hex": "0x60cc651674018c00"
      },
      "nonce": 0,
      "data": "0x",
      "r": "0xca191ec9e298102c5a109752acd6a771300c0d9151660a884bc65260df5770a0",
      "s": "0x357957d63fa79e54677dcd316be897d9e95a78a81cd0a02f3572038fb98e308e",
      "v": 27,
      "creates": null,
      "raw": "0xf86c80850daa031dae8252089432be343b94f860124dc4fee278fdcbd38c102d888860cc651674018c00801ba0ca191ec9e298102c5a109752acd6a771300c0d9151660a884bc65260df5770a0a0357957d63fa79e54677dcd316be897d9e95a78a81cd0a02f3572038fb98e308e",
      "networkId": 0,
      "chainId": 0
    },
    {
      "hash": "0xbd09c662c89c272c0506dbdebd801b353ed86e91b46ba3f9c36cfeff114ddd14",
      "blockHash": "0x4a0755b98585d37b299ef0907fbc290bb83d399062af89894d2ca3fbebe4e2af",
      "blockNumber": 74280,
      "transactionIndex": 8,
      "confirmations": null,
      "from": "0x972ad000397A3c903299F1353d6d4b85eE4E4e2A",
      "gasPrice": {
        "_hex": "0xdaa031dae"
      },
      "gasLimit": {
        "_hex": "0x5208"
      },
      "to": "0x32Be343B94f860124dC4fEe278FDCBD38C102D88",
      "value": {
        "_hex": "0x1d343fce06dfb000"
      },
      "nonce": 2,
      "data": "0x",
      "r": "0x971087c4dc8fe647abf90fd1708fc4048be9dbca3451debb409f90597c5573ca",
      "s": "0x6e755731d63d73cd6b47362d982bc2743d8d309bcb5a268c9dc01ea923e1062c",
      "v": 27,
      "creates": null,
      "raw": "0xf86c02850daa031dae8252089432be343b94f860124dc4fee278fdcbd38c102d88881d343fce06dfb000801ba0971087c4dc8fe647abf90fd1708fc4048be9dbca3451debb409f90597c5573caa06e755731d63d73cd6b47362d982bc2743d8d309bcb5a268c9dc01ea923e1062c",
      "networkId": 0,
      "chainId": 0
    },
    {
      "hash": "0x568ca142f8ba4e058d79e299bdb76f0e39dfbb71433dfad66c16da63dd4ae722",
      "blockHash": "0x4a0755b98585d37b299ef0907fbc290bb83d399062af89894d2ca3fbebe4e2af",
      "blockNumber": 74280,
      "transactionIndex": 9,
      "confirmations": null,
      "from": "0x0d62E666D681E8Be96903Ac4aBD3537f28c6125A",
      "gasPrice": {
        "_hex": "0xdaa031dae"
      },
      "gasLimit": {
        "_hex": "0x5208"
      },
      "to": "0x32Be343B94f860124dC4fEe278FDCBD38C102D88",
      "value": {
        "_hex": "0x847ca294c73b0000"
      },
      "nonce": 0,
      "data": "0x",
      "r": "0xbc8ae931931ae473e2f58ad9cf44342de47c74cabfe79d2544216cc067d97edb",
      "s": "0x7327b941f68efd944e8cd1188047831a2cf065e0c378297e8801aa47e7a9fdca",
      "v": 28,
      "creates": null,
      "raw": "0xf86c80850daa031dae8252089432be343b94f860124dc4fee278fdcbd38c102d8888847ca294c73b0000801ca0bc8ae931931ae473e2f58ad9cf44342de47c74cabfe79d2544216cc067d97edba07327b941f68efd944e8cd1188047831a2cf065e0c378297e8801aa47e7a9fdca",
      "networkId": 0,
      "chainId": 0
    },
    {
      "hash": "0x040c139dd89570a0d6eaa9f93f1748a15018ecc74ff607fa572fd4f598c11166",
      "blockHash": "0x4a0755b98585d37b299ef0907fbc290bb83d399062af89894d2ca3fbebe4e2af",
      "blockNumber": 74280,
      "transactionIndex": 10,
      "confirmations": null,
      "from": "0x9Fa88512e871481291d0416CEFf5B3764f840aED",
      "gasPrice": {
        "_hex": "0xdaa031dae"
      },
      "gasLimit": {
        "_hex": "0x5208"
      },
      "to": "0x32Be343B94f860124dC4fEe278FDCBD38C102D88",
      "value": {
        "_hex": "0x118a098a704bd4000"
      },
      "nonce": 0,
      "data": "0x",
      "r": "0xd50c6120b9bbaeac9ead4207391c24e650185a60acccc55f135a1de5696da44d",
      "s": "0x24490498baa97cab1d7000e630bd0e630d46f4ade6f3d18e438b3250c04ff92d",
      "v": 28,
      "creates": null,
      "raw": "0xf86d80850daa031dae8252089432be343b94f860124dc4fee278fdcbd38c102d88890118a098a704bd4000801ca0d50c6120b9bbaeac9ead4207391c24e650185a60acccc55f135a1de5696da44da024490498baa97cab1d7000e630bd0e630d46f4ade6f3d18e438b3250c04ff92d",
      "networkId": 0,
      "chainId": 0
    },
    {
      "hash": "0x458b93c2f8c1dae98d8dc7f35ea95de899f680f52ce2002a979e3d5adb108902",
      "blockHash": "0x4a0755b98585d37b299ef0907fbc290bb83d399062af89894d2ca3fbebe4e2af",
      "blockNumber": 74280,
      "transactionIndex": 11,
      "confirmations": null,
      "from": "0x78A5a3e39DB4Cf9824d4DFAbAbcdB36611788C78",
      "gasPrice": {
        "_hex": "0xdaa031dae"
      },
      "gasLimit": {
        "_hex": "0x5208"
      },
      "to": "0x32Be343B94f860124dC4fEe278FDCBD38C102D88",
      "value": {
        "_hex": "0x14180babc0b4c5000"
      },
      "nonce": 1,
      "data": "0x",
      "r": "0x3463021afb2b52c03e610d8038f5320b7b0615d1c282a9ddee7a0e8555b1aede",
      "s": "0x1ed8e062c253b931f3333b56387a29c8eaeca857213db0aa1eb275b723b85127",
      "v": 27,
      "creates": null,
      "raw": "0xf86d01850daa031dae8252089432be343b94f860124dc4fee278fdcbd38c102d8889014180babc0b4c5000801ba03463021afb2b52c03e610d8038f5320b7b0615d1c282a9ddee7a0e8555b1aedea01ed8e062c253b931f3333b56387a29c8eaeca857213db0aa1eb275b723b85127",
      "networkId": 0,
      "chainId": 0
    },
    {
      "hash": "0xce00635b388bed6e5bd2c6edbeb13f5a541b59e1ba2d8e4fa1a4a9a606add264",
      "blockHash": "0x4a0755b98585d37b299ef0907fbc290bb83d399062af89894d2ca3fbebe4e2af",
      "blockNumber": 74280,
      "transactionIndex": 12,
      "confirmations": null,
      "from": "0x03bbfbb9d362b4B1C6a113BE654A0190Fc6aEa80",
      "gasPrice": {
        "_hex": "0xdaa031dae"
      },
      "gasLimit": {
        "_hex": "0x5208"
      },
      "to": "0x32Be343B94f860124dC4fEe278FDCBD38C102D88",
      "value": {
        "_hex": "0xab0243fbfd065000"
      },
      "nonce": 0,
      "data": "0x",
      "r": "0xe0ac226a169ba37e3c1936c842552c80a35aea6475586839b44883d43dc8d25b",
      "s": "0x2486d2672dc278e82e26dec1e235ed0e7daa91baa7e0863e864279fe90906a09",
      "v": 27,
      "creates": null,
      "raw": "0xf86c80850daa031dae8252089432be343b94f860124dc4fee278fdcbd38c102d8888ab0243fbfd065000801ba0e0ac226a169ba37e3c1936c842552c80a35aea6475586839b44883d43dc8d25ba02486d2672dc278e82e26dec1e235ed0e7daa91baa7e0863e864279fe90906a09",
      "networkId": 0,
      "chainId": 0
    },
    {
      "hash": "0x500103a90013706a46fd7671993fef8977b51a64a986fa00df08c850d01b4db4",
      "blockHash": "0x4a0755b98585d37b299ef0907fbc290bb83d399062af89894d2ca3fbebe4e2af",
      "blockNumber": 74280,
      "transactionIndex": 13,
      "confirmations": null,
      "from": "0x7550E0d09f273C690454B44F794D7D381B2E55EA",
      "gasPrice": {
        "_hex": "0xdaa031dae"
      },
      "gasLimit": {
        "_hex": "0x5208"
      },
      "to": "0x32Be343B94f860124dC4fEe278FDCBD38C102D88",
      "value": {
        "_hex": "0x8c7fa4671569b000"
      },
      "nonce": 0,
      "data": "0x",
      "r": "0x58d844a4cdd66381123775eca7e19e605440c842c6371e508dedcacaa1712107",
      "s": "0x15cd74cf2224f88821337ab2f410a8a584e1a68dfd3e253a01b47f8598969773",
      "v": 28,
      "creates": null,
      "raw": "0xf86c80850daa031dae8252089432be343b94f860124dc4fee278fdcbd38c102d88888c7fa4671569b000801ca058d844a4cdd66381123775eca7e19e605440c842c6371e508dedcacaa1712107a015cd74cf2224f88821337ab2f410a8a584e1a68dfd3e253a01b47f8598969773",
      "networkId": 0,
      "chainId": 0
    },
    {
      "hash": "0x2254bbc62c49e6645703a3f4bd0915341154845e43515beb2f3f3d0694ae1b4a",
      "blockHash": "0x4a0755b98585d37b299ef0907fbc290bb83d399062af89894d2ca3fbebe4e2af",
      "blockNumber": 74280,
      "transactionIndex": 14,
      "confirmations": null,
      "from": "0xF18446BCC37B179f7ccc3De19387269cE04023F1",
      "gasPrice": {
        "_hex": "0xdaa031dae"
      },
      "gasLimit": {
        "_hex": "0x5208"
      },
      "to": "0x32Be343B94f860124dC4fEe278FDCBD38C102D88",
      "value": {
        "_hex": "0x63f346d0678d2400"
      },
      "nonce": 0,
      "data": "0x",
      "r": "0x52408cbd7a4669ebc17db124155899121d5ef3339fad6543795ab37106f4accf",
      "s": "0x3f3faab7cfcdd0146cb8a68dd42b444062580305e8c2a69f6a8e6f4d35b904ec",
      "v": 27,
      "creates": null,
      "raw": "0xf86c80850daa031dae8252089432be343b94f860124dc4fee278fdcbd38c102d888863f346d0678d2400801ba052408cbd7a4669ebc17db124155899121d5ef3339fad6543795ab37106f4accfa03f3faab7cfcdd0146cb8a68dd42b444062580305e8c2a69f6a8e6f4d35b904ec",
      "networkId": 0,
      "chainId": 0
    },
    {
      "hash": "0x7ff74bc995cc3251503c84b388444516770dc68bfa026d12898af10ebcb8402c",
      "blockHash": "0x4a0755b98585d37b299ef0907fbc290bb83d399062af89894d2ca3fbebe4e2af",
      "blockNumber": 74280,
      "transactionIndex": 15,
      "confirmations": null,
      "from": "0xe70361D11B44B2fBA997417D7AAa26eb69EBfef0",
      "gasPrice": {
        "_hex": "0xdaa031dae"
      },
      "gasLimit": {
        "_hex": "0x5208"
      },
      "to": "0x32Be343B94f860124dC4fEe278FDCBD38C102D88",
      "value": {
        "_hex": "0x18001a67a5bf46000"
      },
      "nonce": 0,
      "data": "0x",
      "r": "0x2dc3e4206db23b4108c3a1eba13904deacb789dac3c7df736fe2098f0a551018",
      "s": "0x1fe5b8d18e5a3eafda9e7f5a456c6a00c02fd5378d6b70e254b89b59d4147f6f",
      "v": 27,
      "creates": null,
      "raw": "0xf86d80850daa031dae8252089432be343b94f860124dc4fee278fdcbd38c102d8889018001a67a5bf46000801ba02dc3e4206db23b4108c3a1eba13904deacb789dac3c7df736fe2098f0a551018a01fe5b8d18e5a3eafda9e7f5a456c6a00c02fd5378d6b70e254b89b59d4147f6f",
      "networkId": 0,
      "chainId": 0
    },
    {
      "hash": "0xbecbada9616edf144eb1044322a0d855c992b5c7915d690c8dc6729cf43f529c",
      "blockHash": "0x4a0755b98585d37b299ef0907fbc290bb83d399062af89894d2ca3fbebe4e2af",
      "blockNumber": 74280,
      "transactionIndex": 16,
      "confirmations": null,
      "from": "0xD99b25c518320820D3C5ae9f47378DA32dED5f00",
      "gasPrice": {
        "_hex": "0xd86a5b364"
      },
      "gasLimit": {
        "_hex": "0x5208"
      },
      "to": "0x32Be343B94f860124dC4fEe278FDCBD38C102D88",
      "value": {
        "_hex": "0x77053a5dd06ab000"
      },
      "nonce": 0,
      "data": "0x",
      "r": "0x21ce6439acd39e32d43e8e16f383ad72b61634a3a47180f7db3a130130386b6f",
      "s": "0x73edec8d8df780f8aa13103d9ec254c0dc6d006da2e0a09f45a145fa8b7ed9fc",
      "v": 28,
      "creates": null,
      "raw": "0xf86c80850d86a5b3648252089432be343b94f860124dc4fee278fdcbd38c102d888877053a5dd06ab000801ca021ce6439acd39e32d43e8e16f383ad72b61634a3a47180f7db3a130130386b6fa073edec8d8df780f8aa13103d9ec254c0dc6d006da2e0a09f45a145fa8b7ed9fc",
      "networkId": 0,
      "chainId": 0
    }
  ]
}