{
  "hash": "0x0570a44c8ea12ec6c87585818b2a48af7b7e5a27322ff3f70d95ceec4a05e73c",
  "parentHash": "0x630514fe5a8fa8603b42f4f40897c5fc0c57c6aa183f3996d4d207fcc268d8af",
  "number": 113457,
  "timestamp": 1440023829,
  "nonce": "0x4bdbccd20a52e13a",
  "difficulty": 4460282851439,
  "gasLimit": {
    "_hex": "0x2fefd8"
  },
  "gasUsed": {
    "_hex": "0xa410"
  },
  "miner": "0x52bc44d5378309EE2abF1539BF71dE1b7d7bE3b5",
  "extraData": "0x476574682f76312e302e312d39353236303766382f6c696e75782f676f312e34",
  "transactions": [
    {
      "hash": "0x3776b44c7f32b3b4df5d73885be941c187f496fe31c3da0b12a37deb29ba793e",
      "blockHash": "0x0570a44c8ea12ec6c87585818b2a48af7b7e5a27322ff3f70d95ceec4a05e73c",
      "blockNumber": 113457,
      "transactionIndex": 0,
      "confirmations": null,
      "from": "0xBBDa93a81B882774e1c9b5e3F933Fa35DaC8bc88",
      "gasPrice": {
        "_hex": "0xdde34269a"
      },
      "gasLimit": {
        "_hex": "0x5208"
      },
      "to": "0x32Be343B94f860124dC4fEe278FDCBD38C102D88",
      "value": {
        "_hex": "0x1e5b488f4fcf0c000"
      },
      "nonce": 17,
      "data": "0x",
      "r": "0xa24459becf04923a407368421005c7e5f98210895f9910da547c5a6b7acc0bfb",
      "s": "0x3024b385ac221f5989dd03b20be730398301a70d61152e5acc7bb4c4bb121bef",
      "v": 28,
      "creates": null,
      "raw": "0xf86d11850dde34269a8252089432be343b94f860124dc4fee278fdcbd38c102d888901e5b488f4fcf0c000801ca0a24459becf04923a407368421005c7e5f98210895f9910da547c5a6b7acc0bfba03024b385ac221f5989dd03b20be730398301a70d61152e5acc7bb4c4bb121bef",
      "networkId": 0,
      "chainId": 0
    },
    {
      "hash": "0x25a25fe5e7dc11cc5266fb0ddaa82d87c59db7efc56c4b5218f3765c1fedd723",
      "blockHash": "0x0570a44c8ea12ec6c87585818b2a48af7b7e5a27322ff3f70d95ceec4a05e73c",
      "blockNumber": 113457,
      "transactionIndex": 1,
      "confirmations": null,
      "from": "0x16a4739e52878d2924e0F51cb5D3068aFafb397B",
      "gasPrice": {
        "_hex": "0xdba3fc171"
      },
      "gasLimit": {
        "_hex": "0x7a120"
      },
      "to": "0xBBDa93a81B882774e1c9b5e3F933Fa35DaC8bc88",
      "value": {
        "_hex": "0x1158e460913d00000"
      },
      "nonce": 2,
      "data": "0x",
      "r": "0x6afc08adf73d688852d26a4a5dd3057279ca097640d6bc1c38db6d7877a6223d",
      "s": "0x636e8abb73b103235d540f9b90c75c6474585d0536b67ecd88c989e88f300dee",
      "v": 28,
      "creates": null,
      "raw": "0xf86e02850dba3fc1718307a12094bbda93a81b882774e1c9b5e3f933fa35dac8bc888901158e460913d00000801ca06afc08adf73d688852d26a4a5dd3057279ca097640d6bc1c38db6d7877a6223da0636e8abb73b103235d540f9b90c75c6474585d0536b67ecd88c989e88f300dee",
      "networkId": 0,
      "chainId": 0
    }
  ]
}