{
  "hash": "0x2c8f2ab02d87e32ce3addf609a6f15fe9fb480898a5e44239b5375526c7dd57f",
  "parentHash": "0xd93f0064d7535f0a4750fa815249f0cbd1777f9f718b67f18dcf5750b2e4237f",
  "number": 102674,
  "timestamp": 1439841429,
  "nonce": "0x8a9bc4d4e8887634",
  "difficulty": 4048526867440,
  "gasLimit": {
    "_hex": "0x2fefd8"
  },
  "gasUsed": {
    "_hex": "0xa410"
  },
  "miner": "0xe6A7a1d47ff21B6321162AEA7C6CB457D5476Bca",
  "extraData": "0x476574682f76312e302e312d38326566323666362f6c696e75782f676f312e34",
  "transactions": [
    {
      "hash": "0x6b4a3c39a50d1037d980eea021fcdfa9b9b92ff4769882dc6b0fe695759e36f2",
      "blockHash": "0x2c8f2ab02d87e32ce3addf609a6f15fe9fb480898a5e44239b5375526c7dd57f",
      "blockNumber": 102674,
      "transactionIndex": 0,
      "confirmations": null,
      "from": "0xc1A75C10a8df8afd0F5f33890CEc81a2FE8dbc69",
      "gasPrice": {
        "_hex": "0xe0ab991f8"
      },
      "gasLimit": {
        "_hex": "0x5208"
      },
      "to": "0x32Be343B94f860124dC4fEe278FDCBD38C102D88",
      "value": {
        "_hex": "0x1b1ace9389b4d40000"
      },
      "nonce": 1,
      "data": "0x",
      "r": "0xd761335c57da2e94a6c15ed22778aabd80f57be6984e2a8198154e4e61b30804",
      "s": "0x3e9fc97fba3f6e8511a512b785234338f2fa032ea8beef51d2f50c813db37e3c",
      "v": 28,
      "creates": null,
      "raw": "0xf86d01850e0ab991f88252089432be343b94f860124dc4fee278fdcbd38c102d88891b1ace9389b4d40000801ca0d761335c57da2e94a6c15ed22778aabd80f57be6984e2a8198154e4e61b30804a03e9fc97fba3f6e8511a512b785234338f2fa032ea8beef51d2f50c813db37e3c",
      "networkId": 0,
      "chainId": 0
    },
    {
      "hash": "0x3fa18214517a5f63d0cb3656f19336c4b3badaa26feba7583b0ed3cb37b7b129",
      "blockHash": "0x2c8f2ab02d87e32ce3addf609a6f15fe9fb480898a5e44239b5375526c7dd57f",
      "blockNumber": 102674,
      "transactionIndex": 1,
      "confirmations": null,
      "from": "0xb1abce2918E21ddb93AA452731a12672A3d9F75a",
      "gasPrice": {
        "_hex": "0xcc99609e2"
      },
      "gasLimit": {
        "_hex": "0x5208"
      },
      "to": "0x32Be343B94f860124dC4fEe278FDCBD38C102D88",
      "value": {
        "_hex": "0x455f788b0be6c400"
      },
      "nonce": 108,
      "data": "0x",
      "r": "0x92c715de6dd5126e948cfc3f9eded1b2e6525d89ac4a23a5bda909dcf2b329f8",
      "s": "0x75f797530af5c492bbaed122624f5fca7be2e625a8afc44b01a3a3bc5200a7fa",
      "v": 27,
      "creates": null,
      "raw": "0xf86c6c850cc99609e28252089432be343b94f860124dc4fee278fdcbd38c102d8888455f788b0be6c400801ba092c715de6dd5126e948cfc3f9eded1b2e6525d89ac4a23a5bda909dcf2b329f8a075f797530af5c492bbaed122624f5fca7be2e625a8afc44b01a3a3bc5200a7fa",
      "networkId": 0,
      "chainId": 0
    }
  ]
}