{
  "hash": "0x8fb53534c903efca58454754dbfeaef0cdb1d8e978ed4415c31dcdcfae71a6a6",
  "parentHash": "0xa969ea20c4cc884df214361b687ecfd785cb20aeffdb1aa59fb82cf5bf13de25",
  "number": 110443,
  "timestamp": 1439973934,
  "nonce": "0x3269c94fc3e9ed0e",
  "difficulty": 4367047291636,
  "gasLimit": {
    "_hex": "0x2fefd8"
  },
  "gasUsed": {
    "_hex": "0xf618"
  },
  "miner": "0x88D74a59454F6cF3B51ef6b9136AFb6b9D405A88",
  "extraData": "0x",
  "transactions": [
    {
      "hash": "0x2f24c78970bd2dfba68e0703f8a7f10c451f54f28a4911e8836686c1955c1154",
      "blockHash": "0x8fb53534c903efca58454754dbfeaef0cdb1d8e978ed4415c31dcdcfae71a6a6",
      "blockNumber": 110443,
      "transactionIndex": 0,
      "confirmations": null,
      "from": "0x182c02d431a667bF08d1BB680306aB6feC4971e5",
      "gasPrice": {
        "_hex": "0xddf93b51b"
      },
      "gasLimit": {
        "_hex": "0x15f90"
      },
      "to": "0xfe8635C30D5b0a49D09Fc9480d59e05d7450fd41",
      "value": {
        "_hex": "0x3b1c56fed02df0000"
      },
      "nonce": 7,
      "data": "0x",
      "r": "0x769e98241211a08e725afb7bb5f5a44ae28acfdc96cf07672d8a303ecf47f5ed",
      "s": "0x01984ab4862f918faafb2865ee0e02ea45ac516af1437c065b1a530968e237df",
      "v": 27,
      "creates": null,
      "raw": "0xf86e07850ddf93b51b83015f9094fe8635c30d5b0a49d09fc9480d59e05d7450fd418903b1c56fed02df0000801ba0769e98241211a08e725afb7bb5f5a44ae28acfdc96cf07672d8a303ecf47f5eda001984ab4862f918faafb2865ee0e02ea45ac516af1437c065b1a530968e237df",
      "networkId": 0,
      "chainId": 0
    },
    {
      "hash": "0x5f76debde86bc787bbf4fcd15c7ece604d7a72124e7381bb43603f06ae11930f",
      "blockHash": "0x8fb53534c903efca58454754dbfeaef0cdb1d8e978ed4415c31dcdcfae71a6a6",
      "blockNumber": 110443,
      "transactionIndex": 1,
      "confirmations": null,
      "from": "0xD72ab61a64fEAeE7b5EB3D42B5445858B95d38fd",
      "gasPrice": {
        "_hex": "0xd0913892d"
      },
      "gasLimit": {
        "_hex": "0x5208"
      },
      "to": "0x32Be343B94f860124dC4fEe278FDCBD38C102D88",
      "value": {
        "_hex": "0xf114414c9e0fc800"
      },
      "nonce": 6,
      "data": "0x",
      "r": "0x6795f2187f5473f93173593560348cd9ff44e4d4ca795b23e73fe736bb6a910d",
      "s": "0x4bb34ab180e47be478870635e9cbda40e36c36437e5a825f6a1a5d732b160629",
      "v": 27,
      "creates": null,
      "raw": "0xf86c06850d0913892d8252089432be343b94f860124dc4fee278fdcbd38c102d8888f114414c9e0fc800801ba06795f2187f5473f93173593560348cd9ff44e4d4ca795b23e73fe736bb6a910da04bb34ab180e47be478870635e9cbda40e36c36437e5a825f6a1a5d732b160629",
      "networkId": 0,
      "chainId": 0
    },
    {
      "hash": "0x824c2b88925a98ef35ea7e4a4828c7adfeeb1175d7f922b21ecc0abf95942110",
      "blockHash": "0x8fb53534c903efca58454754dbfeaef0cdb1d8e978ed4415c31dcdcfae71a6a6",
      "blockNumber": 110443,
      "transactionIndex": 2,
      "confirmations": null,
      "from": "0xFAF4d1326d886D8dFe403B3F8A00DC7a7EA05629",
      "gasPrice": {
        "_hex": "0xd0913892d"
      },
      "gasLimit": {
        "_hex": "0x5208"
      },
      "to": "0x32Be343B94f860124dC4fEe278FDCBD38C102D88",
      "value": {
        "_hex": "0x51e4925ab2670400"
      },
      "nonce": 6,
      "data": "0x",
      "r": "0x0424ac3bf2f87e4192a06b9eb1a3d51d83ecf8a201f4ed23e782a705343364d6",
      "s": "0x7b1081689cd3911a613fa4d2964836b1eb98e85b4a618547ef7d1318b322b8af",
      "v": 27,
      "creates": null,
      "raw": "0xf86c06850d0913892d8252089432be343b94f860124dc4fee278fdcbd38c102d888851e4925ab2670400801ba00424ac3bf2f87e4192a06b9eb1a3d51d83ecf8a201f4ed23e782a705343364d6a07b1081689cd3911a613fa4d2964836b1eb98e85b4a618547ef7d1318b322b8af",
      "networkId": 0,
      "chainId": 0
    }
  ]
}