{
  "hash": "0xb3314654f3412503186e8ac26f24da00c6163787af99ffa5ac7cd310ea181871",
  "parentHash": "0x344be3a94494687eff4164f5823cb964c8f0a0005ab953562255dbbe79b78e62",
  "number": 60292,
  "timestamp": 1439152989,
  "nonce": "0x2155c083922af715",
  "difficulty": 1744949565227,
  "gasLimit": {
    "_hex": "0x2fe3fc"
  },
  "gasUsed": {
    "_hex": "0xa674"
  },
  "miner": "0x70C6b45fe0A5116E97B112B806A76E2F51E24413",
  "extraData": "0x476574682f76312e302e302f77696e646f77732f676f312e342e32",
  "transactions": [
    {
      "hash": "0xccb9b952e4880ddb0c09374fe8dafd113b00a2c41d6f0ce1c3e3fe46b8c21c81",
      "blockHash": "0xb3314654f3412503186e8ac26f24da00c6163787af99ffa5ac7cd310ea181871",
      "blockNumber": 60292,
      "transactionIndex": 0,
      "confirmations": null,
      "from": "0x95a204DD5D814E40f300bA0DfB1194286F03e28A",
      "gasPrice": {
        "_hex": "0x746a528800"
      },
      "gasLimit": {
        "_hex": "0x5b04"
      },
      "to": "0x71f913897f689FE1c71FF4a8009CBfe512660C6C",
      "value": {
        "_hex": "0x4563918244f40000"
      },
      "nonce": 2,
      "data": "0x",
      "r": "0xd22531cc22e1fc018672f75a8647669f1532ac0777ebd5dc825b352178c3b12f",
      "s": "0x7601cdaca237984371cc12fa48a8c9fd725a0e1cfc726ba7a30317b97055d427",
      "v": 27,
      "creates": null,
      "raw": "0xf86c0285746a528800825b049471f913897f689fe1c71ff4a8009cbfe512660c6c884563918244f40000801ba0d22531cc22e1fc018672f75a8647669f1532ac0777ebd5dc825b352178c3b12fa07601cdaca237984371cc12fa48a8c9fd725a0e1cfc726ba7a30317b97055d427",
      "networkId": 0,
      "chainId": 0
    },
    {
      "hash": "0xfb19eb08768fa41a238bfe469f062506b3ed5d86874e0e787d2313f9c1f08bea",
      "blockHash": "0xb3314654f3412503186e8ac26f24da00c6163787af99ffa5ac7cd310ea181871",
      "blockNumber": 60292,
      "transactionIndex": 1,
      "confirmations": null,
      "from": "0xe6282e5294D064DD01851808dE43b9be32066E72",
      "gasPrice": {
        "_hex": "0xff5de1306f"
      },
      "gasLimit": {
        "_hex": "0x55f0"
      },
      "to": "0x2910543Af39abA0Cd09dBb2D50200b3E800A63D2",
      "value": {
        "_hex": "0x6c5db2a4d815dc0000"
      },
      "nonce": 5,
      "data": "0x454e3137344a514738",
      "r": "0xa89ab9c3541c95bacc8ae19a61d4ea75d7b64720115cf7b100b3ed98780d4c14",
      "s": "0x7c3b086a81184fa1186366d528257743e6b65dc1722b4f87ce1ccb17ce67659d",
      "v": 27,
      "creates": null,
      "raw": "0xf8760585ff5de1306f8255f0942910543af39aba0cd09dbb2d50200b3e800a63d2896c5db2a4d815dc000089454e3137344a5147381ba0a89ab9c3541c95bacc8ae19a61d4ea75d7b64720115cf7b100b3ed98780d4c14a07c3b086a81184fa1186366d528257743e6b65dc1722b4f87ce1ccb17ce67659d",
      "networkId": 0,
      "chainId": 0
    }
  ]
}