{
  "hash": "0xfdc5c90d928b8d073ebc86c42ed41d2901f561d1c9265dfcf044b8755c5813e9",
  "parentHash": "0xe4d797bf106edee530e445314b1a99599ecd9bc576b85c9c9f9bfd0e7dd4f825",
  "number": 77973,
  "timestamp": 1439445914,
  "nonce": "0xe3bed463d3d394e5",
  "difficulty": 2294458438405,
  "gasLimit": {
    "_hex": "0x2fefd5"
  },
  "gasUsed": {
    "_hex": "0xcc6a"
  },
  "miner": "0x3FEe2E5f121CFb9d6D9BAb6Cec64eb60585124d4",
  "extraData": "0x476574682f76312e302e312f77696e646f77732f676f312e342e32",
  "transactions": [
    {
      "hash": "0x183902c41e75e16995afc6200dd9a30ae091b10cebd1d06aa785328564057413",
      "blockHash": "0xfdc5c90d928b8d073ebc86c42ed41d2901f561d1c9265dfcf044b8755c5813e9",
      "blockNumber": 77973,
      "transactionIndex": 0,
      "confirmations": null,
      "from": "0x008FC7CBAdFFbD0D7fe44F8DFD60a79d721a1c9C",
      "gasPrice": {
        "_hex": "0xd870344ec"
      },
      "gasLimit": {
        "_hex": "0x30d40"
      },
      "to": "0x93eEA62C088759fd22ebc15a6f9645672D3a9265",
      "value": {
        "_hex": "0xe8d4a51000"
      },
      "nonce": 19,
      "data": "0x",
      "r": "0xe5c6d4b16c9c2d5b504ae4732af9532e16ee2ba66ad24efa374d24fbcde36eae",
      "s": "0x6cb31632cfc14c45b95c7b4c8cfad409e4cca16525b612cccb8e88b802e12c66",
      "v": 27,
      "creates": null,
      "raw": "0xf86a13850d870344ec83030d409493eea62c088759fd22ebc15a6f9645672d3a926585e8d4a51000801ba0e5c6d4b16c9c2d5b504ae4732af9532e16ee2ba66ad24efa374d24fbcde36eaea06cb31632cfc14c45b95c7b4c8cfad409e4cca16525b612cccb8e88b802e12c66",
      "networkId": 0,
      "chainId": 0
    },
    {
      "hash": "0xda7be7a913cc782f9ae2f934da26084cda1df71f2308b86ac42dc4c66fc6a5e8",
      "blockHash": "0xfdc5c90d928b8d073ebc86c42ed41d2901f561d1c9265dfcf044b8755c5813e9",
      "blockNumber": 77973,
      "transactionIndex": 1,
      "confirmations": null,
      "from": "0xF2d2AfF1320476cb8C6b607199D23175cc595693",
      "gasPrice": {
        "_hex": "0xd40bfe878"
      },
      "gasLimit": {
        "_hex": "0x15f90"
      },
      "to": "0xF5EeDc192aB70b08D8354384aD94efD095849E00",
      "value": {
        "_hex": "0x2b5e3af16b1880000"
      },
      "nonce": 28,
      "data": "0x",
      "r": "0xc9282d6ef7888c8232853805696e5e513012382810dcbf3706914372996baffd",
      "s": "0x12401e77d26b762aa9ab6306d841bbb4ce90cce86870aae3bf1cffff106dd9cb",
      "v": 27,
      "creates": null,
      "raw": "0xf86e1c850d40bfe87883015f9094f5eedc192ab70b08d8354384ad94efd095849e008902b5e3af16b1880000801ba0c9282d6ef7888c8232853805696e5e513012382810dcbf3706914372996baffda012401e77d26b762aa9ab6306d841bbb4ce90cce86870aae3bf1cffff106dd9cb",
      "networkId": 0,
      "chainId": 0
    }
  ]
}