{
  "hash": "0x28b244573258e3647071af65a6c977ce381f9a1144e9d4c699380cf759f061fc",
  "parentHash": "0xca4a023ff1a5a305b060d81842741c0cb2265ecf5724ddd4358e9cf23913e9d3",
  "number": 73255,
  "timestamp": 1439366031,
  "nonce": "0xb5e4f6bffdd115fd",
  "difficulty": 2203492589834,
  "gasLimit": {
    "_hex": "0x2fefd8"
  },
  "gasUsed": {
    "_hex": "0x15f90"
  },
  "miner": "0xe6A7a1d47ff21B6321162AEA7C6CB457D5476Bca",
  "extraData": "0x476574682f76312e302e312d38326566323666362f6c696e75782f676f312e34",
  "transactions": [
    {
      "hash": "0x5fabeea5d1047d12117250a7c42f939dc7b70e909fe8bf2d8cb4d2c38ca6950b",
      "blockHash": "0x28b244573258e3647071af65a6c977ce381f9a1144e9d4c699380cf759f061fc",
      "blockNumber": 73255,
      "transactionIndex": 0,
      "confirmations": null,
      "from": "0x326Be8F71bFb0379f989aAB1CC1fE37f0a771f60",
      "gasPrice": {
        "_hex": "0x108e875c757"
      },
      "gasLimit": {
        "_hex": "0x15f90"
      },
      "to": "0xB86A36e3E0d2E8132F5798119148eDEF957E1912",
      "value": {
        "_hex": "0x8ac7230489e80000"
      },
      "nonce": 34,
      "data": "0x8d21618600000000000000000000000000000000000000000000000000000000000000808d5adaad541502933bfca57b79fdcf7b21a9ea7dbcf2e9321d253f5db02ac8f3",
      "r": "0x0d8c44a7776f14c4a44f056138cfb1bc716e06f99c34f476e188e93498ffb49e",
      "s": "0x535af4794d6d059851d4f6558a0b60c0a1e4105216d4814a339ba984e2ea9bc8",
      "v": 27,
      "creates": null,
      "raw": "0xf8b322860108e875c75783015f9094b86a36e3e0d2e8132f5798119148edef957e1912888ac7230489e80000b8448d21618600000000000000000000000000000000000000000000000000000000000000808d5adaad541502933bfca57b79fdcf7b21a9ea7dbcf2e9321d253f5db02ac8f31ba00d8c44a7776f14c4a44f056138cfb1bc716e06f99c34f476e188e93498ffb49ea0535af4794d6d059851d4f6558a0b60c0a1e4105216d4814a339ba984e2ea9bc8",
      "networkId": 0,
      "chainId": 0
    }
  ]
}