{
  "hash": "0x4d50b147f9c711211c4787b0e3574f32e9538287522a4b86396c1c5826c2045c",
  "parentHash": "0x8fd90b90810fb3d321b26e8455fdccad81dab1d21da084ac9d5b593cac8afbfe",
  "number": 110670,
  "timestamp": 1439977523,
  "nonce": "0xee10e4b5c69236b4",
  "difficulty": 4377603592647,
  "gasLimit": {
    "_hex": "0x2fefd8"
  },
  "gasUsed": {
    "_hex": "0x5208"
  },
  "miner": "0x88D74a59454F6cF3B51ef6b9136AFb6b9D405A88",
  "extraData": "0x",
  "transactions": [
    {
      "hash": "0xa24c57087c87c46d84fb647362438fb05935c65eea6e054e4dba6893453a9896",
      "blockHash": "0x4d50b147f9c711211c4787b0e3574f32e9538287522a4b86396c1c5826c2045c",
      "blockNumber": 110670,
      "transactionIndex": 0,
      "confirmations": null,
      "from": "0x4a09cb883b0B1Ff0d401B3DFFED924407D083D74",
      "gasPrice": {
        "_hex": "0xde3c27fc5"
      },
      "gasLimit": {
        "_hex": "0x5208"
      },
      "to": "0x32Be343B94f860124dC4fEe278FDCBD38C102D88",
      "value": {
        "_hex": "0xa540ae5ada47800"
      },
      "nonce": 2,
      "data": "0x",
      "r": "0x97367601118ad22cc4b2a353500c048960865ec42c26bd145862a6b2e1b10f16",
      "s": "0x1cff073c91d214a1a74b7967556943756fbfd9a2f69706cb0180f7686e3f29d8",
      "v": 28,
      "creates": null,
      "raw": "0xf86c02850de3c27fc58252089432be343b94f860124dc4fee278fdcbd38c102d88880a540ae5ada47800801ca097367601118ad22cc4b2a353500c048960865ec42c26bd145862a6b2e1b10f16a01cff073c91d214a1a74b7967556943756fbfd9a2f69706cb0180f7686e3f29d8",
      "networkId": 0,
      "chainId": 0
    }
  ]
}