{
  "hash": "0x31ede275f9fd1c4dda319c1617d2b3903550455880be941462bebdd55d883d69",
  "parentHash": "0x2138b7514fcf4f2cdce32bfc71e2de2cfbe0563cd9a27b8b32afac1b26d90c60",
  "number": 67388,
  "timestamp": 1439271206,
  "nonce": "0x9f713f598089e708",
  "difficulty": 1920449817790,
  "gasLimit": {
    "_hex": "0x2fefd8"
  },
  "gasUsed": {
    "_hex": "0xa410"
  },
  "miner": "0x9746c7e1ef2bd21FF3997fa467593a89cb852BD0",
  "extraData": "0x476574682f76312e302e312f77696e646f77732f676f312e342e32",
  "transactions": [
    {
      "hash": "0x7743b0724cb730f859dc20e342dbb3162c0636344d8704b8d2fb0bf20c91a72e",
      "blockHash": "0x31ede275f9fd1c4dda319c1617d2b3903550455880be941462bebdd55d883d69",
      "blockNumber": 67388,
      "transactionIndex": 0,
      "confirmations": null,
      "from": "0xC5D780c85389F9f57157E12f924C649A33aF46dd",
      "gasPrice": {
        "_hex": "0x10d74076966"
      },
      "gasLimit": {
        "_hex": "0x5208"
      },
      "to": "0xAD063CE182014Fa78C3932981fE402a6Af48235B",
      "value": {
        "_hex": "0x1544ed90891ddb0"
      },
      "nonce": 1,
      "data": "0x",
      "r": "0x34f50479223049f2f55db2d049e30739546aaa18bdaf63c53edfb76f259c64ab",
      "s": "0x0dfa88771f73e5f77503209287e10a4008fce27707cf2dcae530cd9b0080d84d",
      "v": 28,
      "creates": null,
      "raw": "0xf86d0186010d7407696682520894ad063ce182014fa78c3932981fe402a6af48235b8801544ed90891ddb0801ca034f50479223049f2f55db2d049e30739546aaa18bdaf63c53edfb76f259c64aba00dfa88771f73e5f77503209287e10a4008fce27707cf2dcae530cd9b0080d84d",
      "networkId": 0,
      "chainId": 0
    },
    {
      "hash": "0xcb794f1f2f9705ce3f0cffaebe0543cfc19cafe1a4b23828f62cf4dee4e22ee9",
      "blockHash": "0x31ede275f9fd1c4dda319c1617d2b3903550455880be941462bebdd55d883d69",
      "blockNumber": 67388,
      "transactionIndex": 1,
      "confirmations": null,
      "from": "0x2847102668d2090639a94039b795377Fa3a71bcA",
      "gasPrice": {
        "_hex": "0xcb23c0d89"
      },
      "gasLimit": {
        "_hex": "0x15f90"
      },
      "to": "0xC25f24A505b8fEF751D8f4FCc397651001F7a160",
      "value": {
        "_hex": "0x45400a8fd5330000"
      },
      "nonce": 0,
      "data": "0x",
      "r": "0x560d6b4e47cf9a1af827d8029555522e01ee2b876cd435fd5bf97320641289a7",
      "s": "0x077c980ac0e6d5de65f044b850c9804a82e7a83b4a534d3e05fc7e959ed0a3e5",
      "v": 27,
      "creates": null,
      "raw": "0xf86d80850cb23c0d8983015f9094c25f24a505b8fef751d8f4fcc397651001f7a1608845400a8fd5330000801ba0560d6b4e47cf9a1af827d8029555522e01ee2b876cd435fd5bf97320641289a7a0077c980ac0e6d5de65f044b850c9804a82e7a83b4a534d3e05fc7e959ed0a3e5",
      "networkId": 0,
      "chainId": 0
    }
  ]
}