{
  "hash": "0x8685f43d895db6bd920e5d14d86d0a81bd71e5157fdbe24cd4daebe33e385481",
  "parentHash": "0x3cfd4c6e45183acaafb6d43ab1b59f174066f628cc95182169d7e749b6226c54",
  "number": 65386,
  "timestamp": 1439236003,
  "nonce": "0xe2a5ef6ef3064071",
  "difficulty": 1943551261137,
  "gasLimit": {
    "_hex": "0x2fefd8"
  },
  "gasUsed": {
    "_hex": "0x5208"
  },
  "miner": "0xf927a40C8B7F6E07c5af7FA2155B4864a4112B13",
  "extraData": "0x",
  "transactions": [
    {
      "hash": "0xa6cb3a42296fd2a3c5a89311aa857c05b95064e161cc850bb308a04e91337d93",
      "blockHash": "0x8685f43d895db6bd920e5d14d86d0a81bd71e5157fdbe24cd4daebe33e385481",
      "blockNumber": 65386,
      "transactionIndex": 0,
      "confirmations": null,
      "from": "0x2910543Af39abA0Cd09dBb2D50200b3E800A63D2",
      "gasPrice": {
        "_hex": "0xdca0cbed4"
      },
      "gasLimit": {
        "_hex": "0x5208"
      },
      "to": "0xa256D16066104348Ae311b81867D4Ee12711911f",
      "value": {
        "_hex": "0x1bafa9ee16e78000"
      },
      "nonce": 176,
      "data": "0x",
      "r": "0x8ab89010633ef830f80ded1a79e36c23c80305d159b08f5c7565548a17c0081f",
      "s": "0x1ea2e77bbce5ed88ccbfcf0431ce95db3790adf58a0538783054a33985448e14",
      "v": 27,
      "creates": null,
      "raw": "0xf86d81b0850dca0cbed482520894a256d16066104348ae311b81867d4ee12711911f881bafa9ee16e78000801ba08ab89010633ef830f80ded1a79e36c23c80305d159b08f5c7565548a17c0081fa01ea2e77bbce5ed88ccbfcf0431ce95db3790adf58a0538783054a33985448e14",
      "networkId": 0,
      "chainId": 0
    }
  ]
}