{
  "hash": "0x8f89e82fdeec2701744341087fbc6eea3cc3c25cd4bb5f2d6bc54ec7441e1adc",
  "parentHash": "0xeab0c77a40b2c60aede25553b844cb2a6310f6fc0e846990453e5c9606e4e432",
  "number": 98291,
  "timestamp": 1439770259,
  "nonce": "0xe7b4e987c3818f35",
  "difficulty": 3874598232991,
  "gasLimit": {
    "_hex": "0x2fefd8"
  },
  "gasUsed": {
    "_hex": "0x5208"
  },
  "miner": "0x7D45E10A0d63eCCA0694a7cbfF030f4dD87DA0dC",
  "extraData": "0x476574682f76312e302e302f77696e646f77732f676f312e342e32",
  "transactions": [
    {
      "hash": "0x7351be5b8c3a60d7f310a6313e899c65c6c853619089cf7c760ddcbd91ea455a",
      "blockHash": "0x8f89e82fdeec2701744341087fbc6eea3cc3c25cd4bb5f2d6bc54ec7441e1adc",
      "blockNumber": 98291,
      "transactionIndex": 0,
      "confirmations": null,
      "from": "0xBFdD9820a04283b289957956353b5F3C1F665EcF",
      "gasPrice": {
        "_hex": "0xdca83662d"
      },
      "gasLimit": {
        "_hex": "0x5208"
      },
      "to": "0x32Be343B94f860124dC4fEe278FDCBD38C102D88",
      "value": {
        "_hex": "0x15aed6c404b44d000"
      },
      "nonce": 44,
      "data": "0x",
      "r": "0x0ddbb3803b33147ad39630ef50e5e566928d3db16acb55bbe68edef2548986a9",
      "s": "0x4f7e5dcf65767739d000ef82e91f4504f4c3bfa0c18c1fb9fdc95e6d87d0eeee",
      "v": 28,
      "creates": null,
      "raw": "0xf86d2c850dca83662d8252089432be343b94f860124dc4fee278fdcbd38c102d8889015aed6c404b44d000801ca00ddbb3803b33147ad39630ef50e5e566928d3db16acb55bbe68edef2548986a9a04f7e5dcf65767739d000ef82e91f4504f4c3bfa0c18c1fb9fdc95e6d87d0eeee",
      "networkId": 0,
      "chainId": 0
    }
  ]
}