{
  "hash": "0x2ccceac37192505c9db53d8d17781d8fa3ee3cd52a1dd3924c8fba20825770f0",
  "parentHash": "0x8126c69a1096d9ff2de4daca57d758dda7287ccbec3f8d71d3d8a93402e32985",
  "number": 108237,
  "timestamp": 1439936887,
  "nonce": "0xe2c4d9d0c8c124f9",
  "difficulty": 4346918775302,
  "gasLimit": {
    "_hex": "0x2fefd8"
  },
  "gasUsed": {
    "_hex": "0xf618"
  },
  "miner": "0xa6BDc31c431B8F97848c9D60cbbe9660dc450eB7",
  "extraData": "0x",
  "transactions": [
    {
      "hash": "0x36de57b94b7c56319d05e31121340ba1caf616a2c978a331555a5287b2ed254d",
      "blockHash": "0x2ccceac37192505c9db53d8d17781d8fa3ee3cd52a1dd3924c8fba20825770f0",
      "blockNumber": 108237,
      "transactionIndex": 0,
      "confirmations": null,
      "from": "0x770E2DE60A56861F14ff290b17748CE8f576aa8f",
      "gasPrice": {
        "_hex": "0xce55bec30"
      },
      "gasLimit": {
        "_hex": "0x5208"
      },
      "to": "0x32Be343B94f860124dC4fEe278FDCBD38C102D88",
      "value": {
        "_hex": "0xa76df805a9a3400"
      },
      "nonce": 0,
      "data": "0x",
      "r": "0x05ad636f0f80c2de1ab2e4fe2f89ed37e6ae440786c5e020b5744b7e62bd4ffe",
      "s": "0x04af1999ccfdf9e0a3257c4d7bbe188de6af85da0f32ce4b943ceeee532ea2d8",
      "v": 27,
      "creates": null,
      "raw": "0xf86c80850ce55bec308252089432be343b94f860124dc4fee278fdcbd38c102d88880a76df805a9a3400801ba005ad636f0f80c2de1ab2e4fe2f89ed37e6ae440786c5e020b5744b7e62bd4ffea004af1999ccfdf9e0a3257c4d7bbe188de6af85da0f32ce4b943ceeee532ea2d8",
      "networkId": 0,
      "chainId": 0
    },
    {
      "hash": "0x115ec300b1ca999b44cac2e10731ee8811715e24dc592f37618a7b6af82644f1",
      "blockHash": "0x2ccceac37192505c9db53d8d17781d8fa3ee3cd52a1dd3924c8fba20825770f0",
      "blockNumber": 108237,
      "transactionIndex": 1,
      "confirmations": null,
      "from": "0xBBDa93a81B882774e1c9b5e3F933Fa35DaC8bc88",
      "gasPrice": {
        "_hex": "0xce55bec30"
      },
      "gasLimit": {
        "_hex": "0x5208"
      },
      "to": "0x32Be343B94f860124dC4fEe278FDCBD38C102D88",
      "value": {
        "_hex": "0x1e4751a2b525ce000"
      },
      "nonce": 13,
      "data": "0x",
      "r": "0x237055401cc49a9d5ed41cd81f6b2e4d6c9bc4ce3721693dc64473bbddffdaf6",
      "s": "0x615b10164e3fcefa285ef2f99dfaa1164ee97bb5f396703f5118c5058c370479",
      "v": 27,
      "creates": null,
      "raw": "0xf86d0d850ce55bec308252089432be343b94f860124dc4fee278fdcbd38c102d888901e4751a2b525ce000801ba0237055401cc49a9d5ed41cd81f6b2e4d6c9bc4ce3721693dc64473bbddffdaf6a0615b10164e3fcefa285ef2f99dfaa1164ee97bb5f396703f5118c5058c370479",
      "networkId": 0,
      "chainId": 0
    },
    {
      "hash": "0xb2831aadd5463a83eb37ae847befa58471e331db7f6e41088d177da85c8b64f1",
      "blockHash": "0x2ccceac37192505c9db53d8d17781d8fa3ee3cd52a1dd3924c8fba20825770f0",
      "blockNumber": 108237,
      "transactionIndex": 2,
      "confirmations": null,
      "from": "0x0D4EcC7d750180EBf4A9Df728B6669B5Bceb5E40",
      "gasPrice": {
        "_hex": "0xce55bec30"
      },
      "gasLimit": {
        "_hex": "0x5208"
      },
      "to": "0x32Be343B94f860124dC4fEe278FDCBD38C102D88",
      "value": {
        "_hex": "0x4570613f2e862c00"
      },
      "nonce": 88,
      "data": "0x",
      "r": "0xda158d43802bfe55deeacfa2812e915f5f4de95771029ac345f9ae1a5049b2a4",
      "s": "0x09f1b89db6006060d22c5a0daec51acc037dc4d7cdb843832c8376389e928479",
      "v": 27,
      "creates": null,
      "raw": "0xf86c58850ce55bec308252089432be343b94f860124dc4fee278fdcbd38c102d88884570613f2e862c00801ba0da158d43802bfe55deeacfa2812e915f5f4de95771029ac345f9ae1a5049b2a4a009f1b89db6006060d22c5a0daec51acc037dc4d7cdb843832c8376389e928479",
      "networkId": 0,
      "chainId": 0
    }
  ]
}