{
  "hash": "0xa4ffa5e3324daff0a133e11b22119661dbf605b1e35f9e349dca3d20ad5cf558",
  "parentHash": "0xf4018a7f4bd9e417474fc5a7bd3153ec676c67f633e755056210c283bf950164",
  "number": 94279,
  "timestamp": 1439705648,
  "nonce": "0xec5f2313378a2b12",
  "difficulty": 3471437148719,
  "gasLimit": {
    "_hex": "0x2fefd8"
  },
  "gasUsed": {
    "_hex": "0xa410"
  },
  "miner": "0xe6A7a1d47ff21B6321162AEA7C6CB457D5476Bca",
  "extraData": "0x476574682f76312e302e312d38326566323666362f6c696e75782f676f312e34",
  "transactions": [
    {
      "hash": "0x0f24a47e05308eea446aa5ef38d96296d126efd942f24b7fa6b8437bcf8ad5fe",
      "blockHash": "0xa4ffa5e3324daff0a133e11b22119661dbf605b1e35f9e349dca3d20ad5cf558",
      "blockNumber": 94279,
      "transactionIndex": 0,
      "confirmations": null,
      "from": "0x32Be343B94f860124dC4fEe278FDCBD38C102D88",
      "gasPrice": {
        "_hex": "0xd46ef4f04"
      },
      "gasLimit": {
        "_hex": "0x5208"
      },
      "to": "0x2071130408d9aAf3D5D65953118c3FE37aCB8D04",
      "value": {
        "_hex": "0xd1e6cb5d43c880000"
      },
      "nonce": 949,
      "data": "0x",
      "r": "0x25b237f281c274e5475c4c07fb2bae7eb87df5f4f1548b66e2dab11554ed96cf",
      "s": "0x634341d73ecbb18e32df04723bfebc091bdf062a5b536df5eaa448663406bf3c",
      "v": 28,
      "creates": null,
      "raw": "0xf86f8203b5850d46ef4f04825208942071130408d9aaf3d5d65953118c3fe37acb8d04890d1e6cb5d43c880000801ca025b237f281c274e5475c4c07fb2bae7eb87df5f4f1548b66e2dab11554ed96cfa0634341d73ecbb18e32df04723bfebc091bdf062a5b536df5eaa448663406bf3c",
      "networkId": 0,
      "chainId": 0
    },
    {
      "hash": "0x1709bd0167d5a0249ff4776535e447160f00dee5291d3c27aa2febd97cc0d1e4",
      "blockHash": "0xa4ffa5e3324daff0a133e11b22119661dbf605b1e35f9e349dca3d20ad5cf558",
      "blockNumber": 94279,
      "transactionIndex": 1,
      "confirmations": null,
      "from": "0x32Be343B94f860124dC4fEe278FDCBD38C102D88",
      "gasPrice": {
        "_hex": "0xd2809d9f5"
      },
      "gasLimit": {
        "_hex": "0x5208"
      },
      "to": "0xc93a69dFC0fb3E867D9207599f7fe87d51619635",
      "value": {
        "_hex": "0x56ba3d73af34f0000"
      },
      "nonce": 950,
      "data": "0x",
      "r": "0x0017a5b61cb73eaf744718676e1e72f3b4ec65a19f67df270d8e7a3cbb52d545",
      "s": "0x5c41130df67be4313170580ca128b5263e725a4794f1a5145e1191babd176de1",
      "v": 28,
      "creates": null,
      "raw": "0xf86e8203b6850d2809d9f582520894c93a69dfc0fb3e867d9207599f7fe87d5161963589056ba3d73af34f0000801c9f17a5b61cb73eaf744718676e1e72f3b4ec65a19f67df270d8e7a3cbb52d545a05c41130df67be4313170580ca128b5263e725a4794f1a5145e1191babd176de1",
      "networkId": 0,
      "chainId": 0
    }
  ]
}