{
  "hash": "0xfdbe31ad2ddb810dc56d46daa52d2c3ba321edf66bd0e79130516acb0a7d2b0d",
  "parentHash": "0x6f06bc06cf7a8c537d0786345b418e366eb0212e38212f86d2c8bdc7f7cb7ae0",
  "number": 93181,
  "timestamp": 1439684463,
  "nonce": "0xa38c9763170bf563",
  "difficulty": 3603151725896,
  "gasLimit": {
    "_hex": "0x2fefd8"
  },
  "gasUsed": {
    "_hex": "0xafa7"
  },
  "miner": "0x7e438f91d967E175a700EfBD9A471f4724449dcd",
  "extraData": "0x",
  "transactions": [
    {
      "hash": "0x3e9bc378a2dc2c3fc94564cd8effbaef7e0cb41af86b519f43fe529f54102d84",
      "blockHash": "0xfdbe31ad2ddb810dc56d46daa52d2c3ba321edf66bd0e79130516acb0a7d2b0d",
      "blockNumber": 93181,
      "transactionIndex": 0,
      "confirmations": null,
      "from": "0x02020D22dCF88f5eDd66B382D7da019F161fB7e3",
      "gasPrice": {
        "_hex": "0xd69d87478"
      },
      "gasLimit": {
        "_hex": "0x15f90"
      },
      "to": "0xCAc7000C7dBaa2E33Af15325AF5D435E011C7BdD",
      "value": {
        "_hex": "0x3635c9adc5dea00000"
      },
      "nonce": 21,
      "data": "0xb214faa5384e53354b355737410000000000000000000000000000000000000000000000",
      "r": "0xc229900c1e00a9cc6574e0cdcc66729ac511c21d10bb777e0a9a4a5687551c96",
      "s": "0x16344bb1d39dbdda9ed3ab419eca5e88db47e4021304751545a8e710bcb4d7b5",
      "v": 28,
      "creates": null,
      "raw": "0xf89215850d69d8747883015f9094cac7000c7dbaa2e33af15325af5d435e011c7bdd893635c9adc5dea00000a4b214faa5384e53354b3557374100000000000000000000000000000000000000000000001ca0c229900c1e00a9cc6574e0cdcc66729ac511c21d10bb777e0a9a4a5687551c96a016344bb1d39dbdda9ed3ab419eca5e88db47e4021304751545a8e710bcb4d7b5",
      "networkId": 0,
      "chainId": 0
    },
    {
      "hash": "0xd29fa988c57f5137bfdb58ce744767d029f386879e2aaf450486b395025a9991",
      "blockHash": "0xfdbe31ad2ddb810dc56d46daa52d2c3ba321edf66bd0e79130516acb0a7d2b0d",
      "blockNumber": 93181,
      "transactionIndex": 1,
      "confirmations": null,
      "from": "0x2910543Af39abA0Cd09dBb2D50200b3E800A63D2",
      "gasPrice": {
        "_hex": "0xcf78e70ee"
      },
      "gasLimit": {
        "_hex": "0x5208"
      },
      "to": "0xceE5B64f0B4F8ecf107fE721BB62e276dF19b40c",
      "value": {
        "_hex": "0x15181ff25a98000"
      },
      "nonce": 844,
      "data": "0x",
      "r": "0x5ff7dd19fa3503770768589566b009b5e7249098e2c22f9d58481e45a8c43b70",
      "s": "0x3e3e11fc6fe8c193b5dc23314cc2d32c99adccdd9d782189a818bb528e5ac230",
      "v": 27,
      "creates": null,
      "raw": "0xf86e82034c850cf78e70ee82520894cee5b64f0b4f8ecf107fe721bb62e276df19b40c88015181ff25a98000801ba05ff7dd19fa3503770768589566b009b5e7249098e2c22f9d58481e45a8c43b70a03e3e11fc6fe8c193b5dc23314cc2d32c99adccdd9d782189a818bb528e5ac230",
      "networkId": 0,
      "chainId": 0
    }
  ]
}