{
  "hash": "0x1f45e3c041e1588d35ba1ec899b76dfd52ae4625d074ceea29b7126acf9140e9",
  "parentHash": "0x64ef8f6b2dd974abff06b7357d7d84c24d8d7ede369830986dda2f16b0fb2b7d",
  "number": 68641,
  "timestamp": 1439291200,
  "nonce": "0x15a320b8e9c08b45",
  "difficulty": 2023150939913,
  "gasLimit": {
    "_hex": "0x2fefd8"
  },
  "gasUsed": {
    "_hex": "0x14820"
  },
  "miner": "0x47ff6576639c2e94762eA5443978D7681C0E78DC",
  "extraData": "0x476574682f76312e302e312f6c696e75782f676f312e342e32",
  "transactions": [
    {
      "hash": "0x81d69ba10d2da1628a45ff51e9dcfc31bac2adfddfe93db74e97ea5460e12fa6",
      "blockHash": "0x1f45e3c041e1588d35ba1ec899b76dfd52ae4625d074ceea29b7126acf9140e9",
      "blockNumber": 68641,
      "transactionIndex": 0,
      "confirmations": null,
      "from": "0x3aA8fb055ae3b0758aC5d9B37a905e2550c296fF",
      "gasPrice": {
        "_hex": "0xba43b7400"
      },
      "gasLimit": {
        "_hex": "0x5208"
      },
      "to": "0x1799Aac869488a85A53d9EAc8Dc7A956f818efEa",
      "value": {
        "_hex": "0x191fec7dbc46000"
      },
      "nonce": 1,
      "data": "0x",
      "r": "0x471313db7e590d0f873432c871bb8e4bf32db0c3819efb00f52aa145dc95d2b5",
      "s": "0x4a709037cf64e837339f87af8111b25443e0b6059c06cd2cd329b974115511bc",
      "v": 28,
      "creates": null,
      "raw": "0xf86c01850ba43b7400825208941799aac869488a85a53d9eac8dc7a956f818efea880191fec7dbc46000801ca0471313db7e590d0f873432c871bb8e4bf32db0c3819efb00f52aa145dc95d2b5a04a709037cf64e837339f87af8111b25443e0b6059c06cd2cd329b974115511bc",
      "networkId": 0,
      "chainId": 0
    },
    {
      "hash": "0x39e086b63a2bf7f9a273761aabd02cb79e1e9a67333e36dc4955200ac5bc552c",
      "blockHash": "0x1f45e3c041e1588d35ba1ec899b76dfd52ae4625d074ceea29b7126acf9140e9",
      "blockNumber": 68641,
      "transactionIndex": 1,
      "confirmations": null,
      "from": "0x0826Ea37259D017E5B660914899770508F6bC4C4",
      "gasPrice": {
        "_hex": "0xba43b7400"
      },
      "gasLimit": {
        "_hex": "0x5208"
      },
      "to": "0x5EB458dE0AD4972746AB87ED80F8c4229022c1d4",
      "value": {
        "_hex": "0x191fec7dbc46000"
      },
      "nonce": 1,
      "data": "0x",
      "r": "0xf082ce7945177c66dd33ba0f02ac66aa07664b1a2db03e39822c7b90db45bab8",
      "s": "0x682f628435b27f12322842e78aa2266f228124d97b9e11fc8cba03cf7690c557",
      "v": 27,
      "creates": null,
      "raw": "0xf86c01850ba43b7400825208945eb458de0ad4972746ab87ed80f8c4229022c1d4880191fec7dbc46000801ba0f082ce7945177c66dd33ba0f02ac66aa07664b1a2db03e39822c7b90db45bab8a0682f628435b27f12322842e78aa2266f228124d97b9e11fc8cba03cf7690c557",
      "networkId": 0,
      "chainId": 0
    },
    {
      "hash": "0xb21645c56f970bf0c5f918c6a3d2caaf1c26af8cdeb71cbfef8e6da9178293ce",
      "blockHash": "0x1f45e3c041e1588d35ba1ec899b76dfd52ae4625d074ceea29b7126acf9140e9",
      "blockNumber": 68641,
      "transactionIndex": 2,
      "confirmations": null,
      "from": "0xA1c4892037aA64092852B1a640eb80C09e927a09",
      "gasPrice": {
        "_hex": "0xba43b7400"
      },
      "gasLimit": {
        "_hex": "0x5208"
      },
      "to": "0xd7196c9cF873468228035cD6A2502Eb913F2174C",
      "value": {
        "_hex": "0x191fec7dbc46000"
      },
      "nonce": 1,
      "data": "0x",
      "r": "0x448209551a2a96b459c3059862df60413fb24990373631675b8a5cb3c03a6d64",
      "s": "0x11cb8405f802558b96ad7ded90ad777cedb5dec5fb7cfee3549db04c9846ac97",
      "v": 28,
      "creates": null,
      "raw": "0xf86c01850ba43b740082520894d7196c9cf873468228035cd6a2502eb913f2174c880191fec7dbc46000801ca0448209551a2a96b459c3059862df60413fb24990373631675b8a5cb3c03a6d64a011cb8405f802558b96ad7ded90ad777cedb5dec5fb7cfee3549db04c9846ac97",
      "networkId": 0,
      "chainId": 0
    },
    {
      "hash": "0xe67cf687cdbc84d85c1c090d2889d052b3b17c741a170b4d89c4766555a33299",
      "blockHash": "0x1f45e3c041e1588d35ba1ec899b76dfd52ae4625d074ceea29b7126acf9140e9",
      "blockNumber": 68641,
      "transactionIndex": 3,
      "confirmations": null,
      "from": "0x8a962110e062e8F4f48bCcdb5152fF42d5281670",
      "gasPrice": {
        "_hex": "0xba43b7400"
      },
      "gasLimit": {
        "_hex": "0x5208"
      },
      "to": "0x7EE7b14dE74A27B328D8Ea49fC5F492fEBDaCb79",
      "value": {
        "_hex": "0x191fec7dbc46000"
      },
      "nonce": 1,
      "data": "0x",
      "r": "0x38848b87e12a92131e7814cca07eced4205f5d88ff85dd97c7e2dd369abb28b5",
      "s": "0x02ae61dbc6c560b8334627894d708598d6edad41e954b3e2fe75b879172a6f2e",
      "v": 28,
      "creates": null,
      "raw": "0xf86c01850ba43b7400825208947ee7b14de74a27b328d8ea49fc5f492febdacb79880191fec7dbc46000801ca038848b87e12a92131e7814cca07eced4205f5d88ff85dd97c7e2dd369abb28b5a002ae61dbc6c560b8334627894d708598d6edad41e954b3e2fe75b879172a6f2e",
      "networkId": 0,
      "chainId": 0
    }
  ]
}