{
  "hash": "0xa177c356e2393e2e70c6520eb1e189b8179b171ade790df939484924ba41bced",
  "parentHash": "0x281e108725a63084caeedb3b3b7d20773c4f08416225472cb409dd4abb7d8b07",
  "number": 81577,
  "timestamp": 1439504028,
  "nonce": "0xba2a15e42c742b05",
  "difficulty": 2448552181250,
  "gasLimit": {
    "_hex": "0x2fefd8"
  },
  "gasUsed": {
    "_hex": "0x5208"
  },
  "miner": "0xe6A7a1d47ff21B6321162AEA7C6CB457D5476Bca",
  "extraData": "0x476574682f76312e302e312d38326566323666362f6c696e75782f676f312e34",
  "transactions": [
    {
      "hash": "0xb6bd4037a09b3e3830b14a521004d734add86a7ecf18ef336e7d533553a5495b",
      "blockHash": "0xa177c356e2393e2e70c6520eb1e189b8179b171ade790df939484924ba41bced",
      "blockNumber": 81577,
      "transactionIndex": 0,
      "confirmations": null,
      "from": "0x32Be343B94f860124dC4fEe278FDCBD38C102D88",
      "gasPrice": {
        "_hex": "0xcf73d4181"
      },
      "gasLimit": {
        "_hex": "0x5208"
      },
      "to": "0x751F0a036c4A71c3aA4e642C74bb301F55861214",
      "value": {
        "_hex": "0x24f71fee31231c0000"
      },
      "nonce": 602,
      "data": "0x",
      "r": "0xac9122aee3235df358173cce783c319eae9e46732c2752244a770c7b8c26209b",
      "s": "0x0b08259865296d1e9c3c6927980afcac144c1df1e890e0e6f381e7367e001a28",
      "v": 28,
      "creates": null,
      "raw": "0xf86f82025a850cf73d418182520894751f0a036c4a71c3aa4e642c74bb301f558612148924f71fee31231c0000801ca0ac9122aee3235df358173cce783c319eae9e46732c2752244a770c7b8c26209ba00b08259865296d1e9c3c6927980afcac144c1df1e890e0e6f381e7367e001a28",
      "networkId": 0,
      "chainId": 0
    }
  ]
}