{
  "hash": "0xe9b81fb99fd2d241278594326ba8d13c3a59eb0dcc622c792e0f113228a69301",
  "parentHash": "0x55a01efa45f9878c63b7bdfdcf4e31fcbe5b0162f151136ebad9fa4668f5a3cb",
  "number": 100940,
  "timestamp": 1439814905,
  "nonce": "0xb50fe5f37647df81",
  "difficulty": 3860158408707,
  "gasLimit": {
    "_hex": "0x2fefd8"
  },
  "gasUsed": {
    "_hex": "0xa410"
  },
  "miner": "0xaEAf103356C2Ee943F748E8655659D29881323E1",
  "extraData": "0x476574682f76312e302e312f77696e646f77732f676f312e342e32",
  "transactions": [
    {
      "hash": "0xeedb28087efcb837bd2bd8646acc2a79722167d8b8d42cc82d3f5d0d47998804",
      "blockHash": "0xe9b81fb99fd2d241278594326ba8d13c3a59eb0dcc622c792e0f113228a69301",
      "blockNumber": 100940,
      "transactionIndex": 0,
      "confirmations": null,
      "from": "0x6C26A66F05426f23E15b992C6EcE6E01aa9c253a",
      "gasPrice": {
        "_hex": "0xba43b7400"
      },
      "gasLimit": {
        "_hex": "0x5208"
      },
      "to": "0xC47Aaa860008be6f65B58c6C6E02a84e666EfE31",
      "value": {
        "_hex": "0x56ed7188789d993320"
      },
      "nonce": 1,
      "data": "0x",
      "r": "0x629df7c2434e2a1138b05a6802cdb2360023c12e098b6c6863e00bd8b31e50ea",
      "s": "0x01ce21520fc449ed48979581c00b28dc12ef4fd251d3f68a81a2d28647e2df03",
      "v": 27,
      "creates": null,
      "raw": "0xf86d01850ba43b740082520894c47aaa860008be6f65b58c6c6e02a84e666efe318956ed7188789d993320801ba0629df7c2434e2a1138b05a6802cdb2360023c12e098b6c6863e00bd8b31e50eaa001ce21520fc449ed48979581c00b28dc12ef4fd251d3f68a81a2d28647e2df03",
      "networkId": 0,
      "chainId": 0
    },
    {
      "hash": "0x533ecd85e19c57f8465909cc6e97a739729f12be397359f54e8f44438077fa75",
      "blockHash": "0xe9b81fb99fd2d241278594326ba8d13c3a59eb0dcc622c792e0f113228a69301",
      "blockNumber": 100940,
      "transactionIndex": 1,
      "confirmations": null,
      "from": "0x1498b7B299C45Ad396984E98FbBE68029fD3DA9c",
      "gasPrice": {
        "_hex": "0xba43b7400"
      },
      "gasLimit": {
        "_hex": "0x5208"
      },
      "to": "0xC47Aaa860008be6f65B58c6C6E02a84e666EfE31",
      "value": {
        "_hex": "0xddcfbbb7a606000"
      },
      "nonce": 0,
      "data": "0x",
      "r": "0x105fe942ac69c7db269e8a3c487119070536d72fb411296414bc76062dee4527",
      "s": "0x28fc7bc0e5dfe6cc5ad260987ebf6c5075a28dc47b6d1f2327c5913aee3f75e0",
      "v": 28,
      "creates": null,
      "raw": "0xf86c80850ba43b740082520894c47aaa860008be6f65b58c6c6e02a84e666efe31880ddcfbbb7a606000801ca0105fe942ac69c7db269e8a3c487119070536d72fb411296414bc76062dee4527a028fc7bc0e5dfe6cc5ad260987ebf6c5075a28dc47b6d1f2327c5913aee3f75e0",
      "networkId": 0,
      "chainId": 0
    }
  ]
}