{
  "hash": "0xb8e35364c254fa854036ca30ef4f4b45bbe18511d8ba3befc6769bc9b7a343ba",
  "parentHash": "0x82628d9917dd6a0f729fa7a429238d2443bf6a3b47ec1539dd4c8dcd5b912fce",
  "number": 52658,
  "timestamp": 1439025256,
  "nonce": "0x37d72553ff98c356",
  "difficulty": 1567116412317,
  "gasLimit": {
    "_hex": "0x172226"
  },
  "gasUsed": {
    "_hex": "0x16e360"
  },
  "miner": "0xEF247E639d49461D25F57e9362CadE3120910Ce0",
  "extraData": "0x476574682f76312e302e312f6c696e75782f676f312e342e32",
  "transactions": [
    {
      "hash": "0x2a8f9dc141dc4122688af86fecc580129a51ca6e7c43a7bbbf9fa19f7a2a74d1",
      "blockHash": "0xb8e35364c254fa854036ca30ef4f4b45bbe18511d8ba3befc6769bc9b7a343ba",
      "blockNumber": 52658,
      "transactionIndex": 0,
      "confirmations": null,
      "from": "0x54dAeb3E8a6BBC797E4aD2b0339f134b186e4637",
      "gasPrice": {
        "_hex": "0xd8bd64e50"
      },
      "gasLimit": {
        "_hex": "0x7a120"
      },
      "to": "0xBAA54d6E90c3F4d7Ebec11bD180134C7eD8eBb52",
      "value": {
        "_hex": "0x16345785d8a0000"
      },
      "nonce": 867,
      "data": "0x",
      "r": "0x58749d9bb8b4fe0dcad498c9582317931fab56b8ad3f7321827083a546a948cc",
      "s": "0x25498f54e386ef84297888ba2a14412fa35c6c7d34486d382c99ab1824b50019",
      "v": 28,
      "creates": null,
      "raw": "0xf86f820363850d8bd64e508307a12094baa54d6e90c3f4d7ebec11bd180134c7ed8ebb5288016345785d8a0000801ca058749d9bb8b4fe0dcad498c9582317931fab56b8ad3f7321827083a546a948cca025498f54e386ef84297888ba2a14412fa35c6c7d34486d382c99ab1824b50019",
      "networkId": 0,
      "chainId": 0
    },
    {
      "hash": "0xb0787d90e234b8671d5b90eab88a8ff21077f655512745f0e542b750f2e5a86d",
      "blockHash": "0xb8e35364c254fa854036ca30ef4f4b45bbe18511d8ba3befc6769bc9b7a343ba",
      "blockNumber": 52658,
      "transactionIndex": 1,
      "confirmations": null,
      "from": "0x54dAeb3E8a6BBC797E4aD2b0339f134b186e4637",
      "gasPrice": {
        "_hex": "0xe7d27df17"
      },
      "gasLimit": {
        "_hex": "0x7a120"
      },
      "to": "0xBAA54d6E90c3F4d7Ebec11bD180134C7eD8eBb52",
      "value": {
        "_hex": "0x16345785d8a0000"
      },
      "nonce": 868,
      "data": "0x",
      "r": "0x8beeed4352e924f62b5d865d134197fb024fbc70c70b316610003feeb9015f38",
      "s": "0x33ff98ff4229f63994454b818d7f0eb1f700a038b2509a667d59202c93e36421",
      "v": 27,
      "creates": null,
      "raw": "0xf86f820364850e7d27df178307a12094baa54d6e90c3f4d7ebec11bd180134c7ed8ebb5288016345785d8a0000801ba08beeed4352e924f62b5d865d134197fb024fbc70c70b316610003feeb9015f38a033ff98ff4229f63994454b818d7f0eb1f700a038b2509a667d59202c93e36421",
      "networkId": 0,
      "chainId": 0
    },
    {
      "hash": "0x1e2d22996f92b6c6d02e72086233a308e77ecfa8967ad2149e85fcdc8b808015",
      "blockHash": "0xb8e35364c254fa854036ca30ef4f4b45bbe18511d8ba3befc6769bc9b7a343ba",
      "blockNumber": 52658,
      "transactionIndex": 2,
      "confirmations": null,
      "from": "0x54dAeb3E8a6BBC797E4aD2b0339f134b186e4637",
      "gasPrice": {
        "_hex": "0xd8bd64e50"
      },
      "gasLimit": {
        "_hex": "0x7a120"
      },
      "to": "0xBAA54d6E90c3F4d7Ebec11bD180134C7eD8eBb52",
      "value": {
        "_hex": "0x16345785d8a0000"
      },
      "nonce": 869,
      "data": "0x",
      "r": "0xa702a772edf9b65e090fb05440cdf54a634573e6fb7dcb62e0982bc7ec9f3bc5",
      "s": "0x6d20fd0b5ce10d73c935702faab6ca03cf6ee398af88a4c68e9fb48669050899",
      "v": 27,
      "creates": null,
      "raw": "0xf86f820365850d8bd64e508307a12094baa54d6e90c3f4d7ebec11bd180134c7ed8ebb5288016345785d8a0000801ba0a702a772edf9b65e090fb05440cdf54a634573e6fb7dcb62e0982bc7ec9f3bc5a06d20fd0b5ce10d73c935702faab6ca03cf6ee398af88a4c68e9fb48669050899",
      "networkId": 0,
      "chainId": 0
    }
  ]
}