{
  "hash": "0x54ac4baec32ceb9f0854ebd24e4047f3c1e1b6d2917f7170a9121a3247235f97",
  "parentHash": "0x5e2e6c02a4dd2db1c839da3e242ee88cab2ebd3ccd5cdf8084853224a50edad9",
  "number": 83923,
  "timestamp": 1439542661,
  "nonce": "0x6393e98b1bd825aa",
  "difficulty": 2476722192392,
  "gasLimit": {
    "_hex": "0x2fefd8"
  },
  "gasUsed": {
    "_hex": "0xa410"
  },
  "miner": "0xe6A7a1d47ff21B6321162AEA7C6CB457D5476Bca",
  "extraData": "0x476574682f76312e302e312d38326566323666362f6c696e75782f676f312e34",
  "transactions": [
    {
      "hash": "0xc39a28aefb1c6bae2d7d3ed220a29c64660a16b6688feec49e28413306716bc4",
      "blockHash": "0x54ac4baec32ceb9f0854ebd24e4047f3c1e1b6d2917f7170a9121a3247235f97",
      "blockNumber": 83923,
      "transactionIndex": 0,
      "confirmations": null,
      "from": "0xcd0Af3474e22F069EC3407870DD770443d5b12B0",
      "gasPrice": {
        "_hex": "0xcd38dc5ee"
      },
      "gasLimit": {
        "_hex": "0x7a120"
      },
      "to": "0x0bCa038BF4ACAd3Cbf73463EccC7717dDCDc3D83",
      "value": {
        "_hex": "0x56bc75e2d63100000"
      },
      "nonce": 15,
      "data": "0x",
      "r": "0xf828887726c00641f5b647af377708efe32a7f986fb0937fdd337f1694ab99d5",
      "s": "0x1ca7e805dca87064aa97729f2d191e020486a212e59c9fb2ef9cef67994b4ef8",
      "v": 27,
      "creates": null,
      "raw": "0xf86e0f850cd38dc5ee8307a120940bca038bf4acad3cbf73463eccc7717ddcdc3d8389056bc75e2d63100000801ba0f828887726c00641f5b647af377708efe32a7f986fb0937fdd337f1694ab99d5a01ca7e805dca87064aa97729f2d191e020486a212e59c9fb2ef9cef67994b4ef8",
      "networkId": 0,
      "chainId": 0
    },
    {
      "hash": "0xeaac0a559054cd6326298b189e59de74ffb993ee58a3078b4cabe403afcebed9",
      "blockHash": "0x54ac4baec32ceb9f0854ebd24e4047f3c1e1b6d2917f7170a9121a3247235f97",
      "blockNumber": 83923,
      "transactionIndex": 1,
      "confirmations": null,
      "from": "0x61B3df2e9e9Fd968131f1e88f0a0Eb5BD765464D",
      "gasPrice": {
        "_hex": "0xcad356b20"
      },
      "gasLimit": {
        "_hex": "0x15f90"
      },
      "to": "0xEe38Df16452Bb041e346cAa6679EFC57c8bD4603",
      "value": {
        "_hex": "0xb973e97ec3e3540000"
      },
      "nonce": 3,
      "data": "0x",
      "r": "0x260a5df11c5f85ce1347bf5afb562f799c720461e92979fe737ba890261ed299",
      "s": "0x0b99f2fc54fd8bab7286398f270adbef06c4a4b861ce704dc6161e8a56aa5f72",
      "v": 27,
      "creates": null,
      "raw": "0xf86e03850cad356b2083015f9094ee38df16452bb041e346caa6679efc57c8bd460389b973e97ec3e3540000801ba0260a5df11c5f85ce1347bf5afb562f799c720461e92979fe737ba890261ed299a00b99f2fc54fd8bab7286398f270adbef06c4a4b861ce704dc6161e8a56aa5f72",
      "networkId": 0,
      "chainId": 0
    }
  ]
}