{
  "hash": "0xef308024c357e4ae8fa28c89a53fbc731ef783a65fc0be44d5c09e4b73f933cd",
  "parentHash": "0xa9152292d7cc045bd2c76979536f5f8e5dcc6c24d991eb3b090ada23943ff0b8",
  "number": 102341,
  "timestamp": 1439836525,
  "nonce": "0xbe116d0418959f87",
  "difficulty": 3945256088584,
  "gasLimit": {
    "_hex": "0x2fefd8"
  },
  "gasUsed": {
    "_hex": "0x5208"
  },
  "miner": "0xaEAf103356C2Ee943F748E8655659D29881323E1",
  "extraData": "0x476574682f76312e302e312f77696e646f77732f676f312e342e32",
  "transactions": [
    {
      "hash": "0xd816dc873f6b424b401a6f61876c4f85e70d2f99a082db2b237f3f9d0b69fa7b",
      "blockHash": "0xef308024c357e4ae8fa28c89a53fbc731ef783a65fc0be44d5c09e4b73f933cd",
      "blockNumber": 102341,
      "transactionIndex": 0,
      "confirmations": null,
      "from": "0x2910543Af39abA0Cd09dBb2D50200b3E800A63D2",
      "gasPrice": {
        "_hex": "0xdf8a4f6e6"
      },
      "gasLimit": {
        "_hex": "0x5208"
      },
      "to": "0x51fC3ce7B54841B37c6b8ccf34dFA1b27A40350E",
      "value": {
        "_hex": "0x3ba17f487a09cf8000"
      },
      "nonce": 992,
      "data": "0x",
      "r": "0xa356c5b1a519347d869d8bb378e3ebd2c5a6876347a69c407b05dbdc1c8aa1b9",
      "s": "0x25cafe027845d3a71a6620df6e66e1b470b7619064b5db3977b0239b4a943147",
      "v": 28,
      "creates": null,
      "raw": "0xf86f8203e0850df8a4f6e68252089451fc3ce7b54841b37c6b8ccf34dfa1b27a40350e893ba17f487a09cf8000801ca0a356c5b1a519347d869d8bb378e3ebd2c5a6876347a69c407b05dbdc1c8aa1b9a025cafe027845d3a71a6620df6e66e1b470b7619064b5db3977b0239b4a943147",
      "networkId": 0,
      "chainId": 0
    }
  ]
}