{
  "hash": "0xe999850daf58ffc3396960496b962ae35229c21cf0dc0af7cf7fa78cde2b604f",
  "parentHash": "0xdfe4b955b09616fd0a7dfb65e7f2ff5ec74b4138632d078c04ad82583f03ed30",
  "number": 82861,
  "timestamp": 1439526390,
  "nonce": "0x5bd9c67bd89a3fd7",
  "difficulty": 2386799176630,
  "gasLimit": {
    "_hex": "0x2fefd8"
  },
  "gasUsed": {
    "_hex": "0xa674"
  },
  "miner": "0x9746c7e1ef2bd21FF3997fa467593a89cb852BD0",
  "extraData": "0x476574682f76312e302e312f77696e646f77732f676f312e342e32",
  "transactions": [
    {
      "hash": "0x0317172177384378f93e3bea2941aee03e73903b46c866820e89392877ec0974",
      "blockHash": "0xe999850daf58ffc3396960496b962ae35229c21cf0dc0af7cf7fa78cde2b604f",
      "blockNumber": 82861,
      "transactionIndex": 0,
      "confirmations": null,
      "from": "0x27F03cF1aBC5e1b51DBc444B289e542c9Ddfb0e6",
      "gasPrice": {
        "_hex": "0x110c8f7d8de"
      },
      "gasLimit": {
        "_hex": "0xc350"
      },
      "to": "0x2910543Af39abA0Cd09dBb2D50200b3E800A63D2",
      "value": {
        "_hex": "0x363466684d81160000"
      },
      "nonce": 1,
      "data": "0x454e51313654353738",
      "r": "0x4dc303360cd2f9671cdfca51a70e44be963ae8d864ec1e4754482ed9ac68c50a",
      "s": "0xfd6d383eaef32274cc58890357f31b980fd14014e256e6919b994f9803728cab",
      "v": 28,
      "creates": null,
      "raw": "0xf87701860110c8f7d8de82c350942910543af39aba0cd09dbb2d50200b3e800a63d289363466684d8116000089454e513136543537381ca04dc303360cd2f9671cdfca51a70e44be963ae8d864ec1e4754482ed9ac68c50aa0fd6d383eaef32274cc58890357f31b980fd14014e256e6919b994f9803728cab",
      "networkId": 0,
      "chainId": 0
    },
    {
      "hash": "0x387d04c95a64a11f11b6c6bba210668160e9d66633d038e6fb3093301bf22906",
      "blockHash": "0xe999850daf58ffc3396960496b962ae35229c21cf0dc0af7cf7fa78cde2b604f",
      "blockNumber": 82861,
      "transactionIndex": 1,
      "confirmations": null,
      "from": "0xa8a8dbdD1A85D1Beee2569E91cCc4D09Ae7F6Ea1",
      "gasPrice": {
        "_hex": "0xd23ee12e2"
      },
      "gasLimit": {
        "_hex": "0x7a120"
      },
      "to": "0xA18fa51c09A433d69c02261Ae6f708115c8a2642",
      "value": {
        "_hex": "0x1043561a8829300000"
      },
      "nonce": 1,
      "data": "0x",
      "r": "0x7e27f801c36799be11f3374ffeb26a608b0c1d5469a92113639c189fb38ce198",
      "s": "0x3e357038058e815a79cb4ec16363484f9bd23b6cd6b0b22d7a20a15d51d278b6",
      "v": 27,
      "creates": null,
      "raw": "0xf86e01850d23ee12e28307a12094a18fa51c09a433d69c02261ae6f708115c8a2642891043561a8829300000801ba07e27f801c36799be11f3374ffeb26a608b0c1d5469a92113639c189fb38ce198a03e357038058e815a79cb4ec16363484f9bd23b6cd6b0b22d7a20a15d51d278b6",
      "networkId": 0,
      "chainId": 0
    }
  ]
}