{
  "hash": "0xefb1ec26267ae2fe2ef06509b0212857ebc59f6f471e481521d88d0309765bfa",
  "parentHash": "0x3edce310cf4767583625e47502b9493af8e7b12e43c2f26790c4f12439525c5e",
  "number": 72204,
  "timestamp": 1439349064,
  "nonce": "0x125862fb19c6eb87",
  "difficulty": 2168543293556,
  "gasLimit": {
    "_hex": "0x2fefd8"
  },
  "gasUsed": {
    "_hex": "0x93f5"
  },
  "miner": "0xe6A7a1d47ff21B6321162AEA7C6CB457D5476Bca",
  "extraData": "0x476574682f76312e302e312d38326566323666362f6c696e75782f676f312e34",
  "transactions": [
    {
      "hash": "0x0534e6790737a2a9798da54006b32734595da9921323cdc2f7cb7ca32fdfbe74",
      "blockHash": "0xefb1ec26267ae2fe2ef06509b0212857ebc59f6f471e481521d88d0309765bfa",
      "blockNumber": 72204,
      "transactionIndex": 0,
      "confirmations": null,
      "from": "0x17580B766f7453525ca4C6A88b01b50570EA088C",
      "gasPrice": {
        "_hex": "0xd310487b5"
      },
      "gasLimit": {
        "_hex": "0x61a80"
      },
      "to": "0x5Fe5B7546D1628f7348B023A0393de1FC825A4fD",
      "value": {
        "_hex": "0x8ac7230489e80000"
      },
      "nonce": 372,
      "data": "0xb595b8b50000000000000000000000000000000000000000000000000000000000000001",
      "r": "0xf7bd1fb55a3990349074f148bbef7a6ab848f09733f708580860d6d5e5995e46",
      "s": "0x4595fd18c90f4518dbe299b183982124193862f81e856b172bc0585492cd554b",
      "v": 27,
      "creates": null,
      "raw": "0xf893820174850d310487b583061a80945fe5b7546d1628f7348b023a0393de1fc825a4fd888ac7230489e80000a4b595b8b500000000000000000000000000000000000000000000000000000000000000011ba0f7bd1fb55a3990349074f148bbef7a6ab848f09733f708580860d6d5e5995e46a04595fd18c90f4518dbe299b183982124193862f81e856b172bc0585492cd554b",
      "networkId": 0,
      "chainId": 0
    }
  ]
}