{
  "hash": "0x302b02361a20cdc26c4d77e19f99771e3cff4d956716966f259f221b7ac89f7b",
  "parentHash": "0xbad071246963fda55ce0d65f87e8f272f44da47d2656ad83f7fb12bde19b79fc",
  "number": 109540,
  "timestamp": 1439958292,
  "nonce": "0x9d9c5911e691df06",
  "difficulty": 4451484873797,
  "gasLimit": {
    "_hex": "0x2fefd8"
  },
  "gasUsed": {
    "_hex": "0x5208"
  },
  "miner": "0x0D2C9857E819cf1275eb59B49033343ccC35fe42",
  "extraData": "0x",
  "transactions": [
    {
      "hash": "0xc67e9a45087ec5f29ec6cf84cebcce1c18734b530c16995cbe17e09e709cc80d",
      "blockHash": "0x302b02361a20cdc26c4d77e19f99771e3cff4d956716966f259f221b7ac89f7b",
      "blockNumber": 109540,
      "transactionIndex": 0,
      "confirmations": null,
      "from": "0x007f7f58D3eb5b7510A301eCC749FC1fCDDBE14D",
      "gasPrice": {
        "_hex": "0xd382b0b9c"
      },
      "gasLimit": {
        "_hex": "0x15f90"
      },
      "to": "0xb1abce2918E21ddb93AA452731a12672A3d9F75a",
      "value": {
        "_hex": "0x4563918244f40000"
      },
      "nonce": 269,
      "data": "0x",
      "r": "0xa88f036517204a9dc000fae1a4b533efe2476b88abcda40621881baf5352b692",
      "s": "0x6b80ff73fe1bcb7026395e674baaf9f1484a3ad421dcc3ceca3b9f9979add1ab",
      "v": 28,
      "creates": null,
      "raw": "0xf86f82010d850d382b0b9c83015f9094b1abce2918e21ddb93aa452731a12672a3d9f75a884563918244f40000801ca0a88f036517204a9dc000fae1a4b533efe2476b88abcda40621881baf5352b692a06b80ff73fe1bcb7026395e674baaf9f1484a3ad421dcc3ceca3b9f9979add1ab",
      "networkId": 0,
      "chainId": 0
    }
  ]
}