{
  "hash": "0x55464264ed6477dc163861f12f995d43c685d586a440696b6ce6ecc1ea1d95d9",
  "parentHash": "0x3f27351c51e71e40f4fd15ca599318a04a035111d8856f7860cfc37a1f15456b",
  "number": 108292,
  "timestamp": 1439937887,
  "nonce": "0x62f2a63d5e9d744e",
  "difficulty": 4344768287692,
  "gasLimit": {
    "_hex": "0x2fefd8"
  },
  "gasUsed": {
    "_hex": "0x5208"
  },
  "miner": "0xe6A7a1d47ff21B6321162AEA7C6CB457D5476Bca",
  "extraData": "0x476574682f76312e302e312d38326566323666362f6c696e75782f676f312e34",
  "transactions": [
    {
      "hash": "0xbc0c24002dc12d61d03ebf5c98849ff9fb0323a0a559d027f4691be7a79d515b",
      "blockHash": "0x55464264ed6477dc163861f12f995d43c685d586a440696b6ce6ecc1ea1d95d9",
      "blockNumber": 108292,
      "transactionIndex": 0,
      "confirmations": null,
      "from": "0xBBDa93a81B882774e1c9b5e3F933Fa35DaC8bc88",
      "gasPrice": {
        "_hex": "0xdfdc55fbf"
      },
      "gasLimit": {
        "_hex": "0x5208"
      },
      "to": "0x32Be343B94f860124dC4fEe278FDCBD38C102D88",
      "value": {
        "_hex": "0x15aed6700dc77f000"
      },
      "nonce": 16,
      "data": "0x",
      "r": "0x8fec2453c57614810ec279c093f3fdc1becae49004a65b98e2a58b043f97b0f0",
      "s": "0x7822df0ffea87b5bde742156210f81a8e29f5e00eff2b48cd6fd4cd66ca9d803",
      "v": 28,
      "creates": null,
      "raw": "0xf86d10850dfdc55fbf8252089432be343b94f860124dc4fee278fdcbd38c102d8889015aed6700dc77f000801ca08fec2453c57614810ec279c093f3fdc1becae49004a65b98e2a58b043f97b0f0a07822df0ffea87b5bde742156210f81a8e29f5e00eff2b48cd6fd4cd66ca9d803",
      "networkId": 0,
      "chainId": 0
    }
  ]
}