{
  "hash": "0xcfd98113587f113dac04692050928f418b9a400319097433773193cbdcabe60f",
  "parentHash": "0x5d19249d1be5754fe10ab08baa54b6867a8f7e0a0b638a7b578007ef02ac9f1a",
  "number": 110416,
  "timestamp": 1439973379,
  "nonce": "0x8df063de51e8e26e",
  "difficulty": 4386294766725,
  "gasLimit": {
    "_hex": "0x2fefd5"
  },
  "gasUsed": {
    "_hex": "0x546c"
  },
  "miner": "0xf927a40C8B7F6E07c5af7FA2155B4864a4112B13",
  "extraData": "0x",
  "transactions": [
    {
      "hash": "0x490e218d36a217265166b9127ed54cb45052ef739bd2587f872f2b9b1b859021",
      "blockHash": "0xcfd98113587f113dac04692050928f418b9a400319097433773193cbdcabe60f",
      "blockNumber": 110416,
      "transactionIndex": 0,
      "confirmations": null,
      "from": "0x837A2A346557050c8cF0fb24b84Aa695E8Add19f",
      "gasPrice": {
        "_hex": "0xd3fcacd1b"
      },
      "gasLimit": {
        "_hex": "0x55f0"
      },
      "to": "0x2910543Af39abA0Cd09dBb2D50200b3E800A63D2",
      "value": {
        "_hex": "0xbb59a27953c600000"
      },
      "nonce": 9,
      "data": "0x454e415157474e5a38",
      "r": "0x434635d6d5ac1f132973846c024a4c89ec00b6b8e27bf9e3c487670665a773ca",
      "s": "0x6464a65d856461eb7dad6bdfb307f3d72f1dbcc06c8cc49a4f5470f4ce586e34",
      "v": 27,
      "creates": null,
      "raw": "0xf87609850d3fcacd1b8255f0942910543af39aba0cd09dbb2d50200b3e800a63d2890bb59a27953c60000089454e415157474e5a381ba0434635d6d5ac1f132973846c024a4c89ec00b6b8e27bf9e3c487670665a773caa06464a65d856461eb7dad6bdfb307f3d72f1dbcc06c8cc49a4f5470f4ce586e34",
      "networkId": 0,
      "chainId": 0
    }
  ]
}