{
  "hash": "0x66213432d8dbabfa2508f1217328c657f5776a0ff2e0888258b6fe19e7304d68",
  "parentHash": "0x3ae3be0cbbf132045afccc66f136c3c56674840f98495a7f53b399e537a016fc",
  "number": 79477,
  "timestamp": 1439470325,
  "nonce": "0x952536687f84663e",
  "difficulty": 2334728655109,
  "gasLimit": {
    "_hex": "0x2fefd8"
  },
  "gasUsed": {
    "_hex": "0x5208"
  },
  "miner": "0xeB1325C8D9d3ea8D74aC11F4B00F1B2367686319",
  "extraData": "0x476574682f76312e302e312f77696e646f77732f676f312e342e32",
  "transactions": [
    {
      "hash": "0x48db9e02465c8bbe201890a3c31fdd914b3bdf903b582fc3380c1eb7b622d608",
      "blockHash": "0x66213432d8dbabfa2508f1217328c657f5776a0ff2e0888258b6fe19e7304d68",
      "blockNumber": 79477,
      "transactionIndex": 0,
      "confirmations": null,
      "from": "0x4d67f2AB8599fef5Fc413999Aa01FD7fcE70B43D",
      "gasPrice": {
        "_hex": "0xcd01555c5"
      },
      "gasLimit": {
        "_hex": "0x55f0"
      },
      "to": "0x0000000000000000000000000000000000000000",
      "value": {
        "_hex": "0x283edea298a20000"
      },
      "nonce": 4,
      "data": "0x",
      "r": "0x778e2878bee1f6776cd0f36c03a7d885cd5c319f6f1f85a5f8b8078591d8e71b",
      "s": "0x75468eaa1f5693ca1fcf18881dfd6a0a1b3c53eed416f2744a612a422c6e4a14",
      "v": 28,
      "creates": null,
      "raw": "0xf86c04850cd01555c58255f094000000000000000000000000000000000000000088283edea298a20000801ca0778e2878bee1f6776cd0f36c03a7d885cd5c319f6f1f85a5f8b8078591d8e71ba075468eaa1f5693ca1fcf18881dfd6a0a1b3c53eed416f2744a612a422c6e4a14",
      "networkId": 0,
      "chainId": 0
    }
  ]
}