{
  "hash": "0x5254657b25ed238489a6331530a46ebc26059b7bfe1117981f91b18f3a21be72",
  "parentHash": "0xe0ede2da052db7fe24496a4a11fcfa0fee9465166511ee729c33c5eff6a1d8ac",
  "number": 94197,
  "timestamp": 1439704127,
  "nonce": "0x549b57ba7b09d8cf",
  "difficulty": 3481656321494,
  "gasLimit": {
    "_hex": "0x2fefd8"
  },
  "gasUsed": {
    "_hex": "0x5208"
  },
  "miner": "0xe6A7a1d47ff21B6321162AEA7C6CB457D5476Bca",
  "extraData": "0x476574682f76312e302e312d38326566323666362f6c696e75782f676f312e34",
  "transactions": [
    {
      "hash": "0x4638378901ef094b82f9410124c0e8ea8aa9e32e46368d62ea88f05b6ce25261",
      "blockHash": "0x5254657b25ed238489a6331530a46ebc26059b7bfe1117981f91b18f3a21be72",
      "blockNumber": 94197,
      "transactionIndex": 0,
      "confirmations": null,
      "from": "0xb1abce2918E21ddb93AA452731a12672A3d9F75a",
      "gasPrice": {
        "_hex": "0xcf9cb9d2e"
      },
      "gasLimit": {
        "_hex": "0x5208"
      },
      "to": "0x32Be343B94f860124dC4fEe278FDCBD38C102D88",
      "value": {
        "_hex": "0x455f731167f09c00"
      },
      "nonce": 14,
      "data": "0x",
      "r": "0xd35c1f904bf2a45ad99cb436dde313831039dc85c0c6b97dfe550fa769d3a245",
      "s": "0x4971bd6c0f8c0af3b21327e32b4ff247bf1764aee0332479e70b9b0757b8b8c2",
      "v": 28,
      "creates": null,
      "raw": "0xf86c0e850cf9cb9d2e8252089432be343b94f860124dc4fee278fdcbd38c102d8888455f731167f09c00801ca0d35c1f904bf2a45ad99cb436dde313831039dc85c0c6b97dfe550fa769d3a245a04971bd6c0f8c0af3b21327e32b4ff247bf1764aee0332479e70b9b0757b8b8c2",
      "networkId": 0,
      "chainId": 0
    }
  ]
}