{
  "hash": "0x8cbf67b2c4c3635e7410cb492feab3b7c92060bff4e7bd3194a186864940566a",
  "parentHash": "0x496c54a05f3d6eeeadb6ce94ebed5f036d48f9a43ad517f94ff4ad2278bd3baa",
  "number": 49039,
  "timestamp": 1438966780,
  "nonce": "0x6c302b09cb7fa2ff",
  "difficulty": 1487984576549,
  "gasLimit": {
    "_hex": "0x243cd"
  },
  "gasUsed": {
    "_hex": "0x546c"
  },
  "miner": "0xf927a40C8B7F6E07c5af7FA2155B4864a4112B13",
  "extraData": "0x476574682f76312e302e312f6c696e75782f676f312e342e32",
  "transactions": [
    {
      "hash": "0x179688baace6d6e01bc355ab69a286fd58fe0c6a86e8dd49d2b71fe86a75caa2",
      "blockHash": "0x8cbf67b2c4c3635e7410cb492feab3b7c92060bff4e7bd3194a186864940566a",
      "blockNumber": 49039,
      "transactionIndex": 0,
      "confirmations": null,
      "from": "0xC939D6e2515872B4A5bed252f1d82A4dCE4A1507",
      "gasPrice": {
        "_hex": "0x102dc79a6ff"
      },
      "gasLimit": {
        "_hex": "0x15f90"
      },
      "to": "0x2910543Af39abA0Cd09dBb2D50200b3E800A63D2",
      "value": {
        "_hex": "0x55de6a779bbac0000"
      },
      "nonce": 1,
      "data": "0x454e52513155544452",
      "r": "0xd83d6cdb8a6130fd09ad468413911b841e54355ad71d73c47f016e09133580a5",
      "s": "0x78ea3c6cc3cbb6348e50086b0d625ae16d0d5cdb02a02ba19e75034748bee290",
      "v": 28,
      "creates": null,
      "raw": "0xf87801860102dc79a6ff83015f90942910543af39aba0cd09dbb2d50200b3e800a63d289055de6a779bbac000089454e525131555444521ca0d83d6cdb8a6130fd09ad468413911b841e54355ad71d73c47f016e09133580a5a078ea3c6cc3cbb6348e50086b0d625ae16d0d5cdb02a02ba19e75034748bee290",
      "networkId": 0,
      "chainId": 0
    }
  ]
}