{
  "hash": "0x052c61002e96dea2ded66fdf50655c89a4f14f17b99de422d3f1ce8e4d1aba14",
  "parentHash": "0x380bb6768d49636355069edce9828d06c4def0731a607162321561ac192eb6b7",
  "number": 49542,
  "timestamp": 1438975059,
  "nonce": "0x509aa76aa0430c47",
  "difficulty": 1479925153726,
  "gasLimit": {
    "_hex": "0x35296"
  },
  "gasUsed": {
    "_hex": "0x5208"
  },
  "miner": "0x9746c7e1ef2bd21FF3997fa467593a89cb852BD0",
  "extraData": "0x476574682f76312e302e312f77696e646f77732f676f312e342e32",
  "transactions": [
    {
      "hash": "0x5a9977970bb3b0e317471dad5f1e8d335030c43cfe4548a51cd69fa7fceed498",
      "blockHash": "0x052c61002e96dea2ded66fdf50655c89a4f14f17b99de422d3f1ce8e4d1aba14",
      "blockNumber": 49542,
      "transactionIndex": 0,
      "confirmations": null,
      "from": "0x8B454d830feF179e66206840F8F3D1d83bC32b17",
      "gasPrice": {
        "_hex": "0xce962d5be"
      },
      "gasLimit": {
        "_hex": "0x15f90"
      },
      "to": "0xA5fb3E4399E8F18643f969D0Ce65CC352fc252C6",
      "value": {
        "_hex": "0x38d7ea4c68000"
      },
      "nonce": 4,
      "data": "0x",
      "r": "0xf85ca811b8f8fc23b5fd486d02db05e4b84cf448ae94bea87a961d7906fb750c",
      "s": "0x0ef2048a83a2956312695adb4f4d679f4d1d262faa38c71b75438d0b82b6bfde",
      "v": 27,
      "creates": null,
      "raw": "0xf86c04850ce962d5be83015f9094a5fb3e4399e8f18643f969d0ce65cc352fc252c687038d7ea4c68000801ba0f85ca811b8f8fc23b5fd486d02db05e4b84cf448ae94bea87a961d7906fb750ca00ef2048a83a2956312695adb4f4d679f4d1d262faa38c71b75438d0b82b6bfde",
      "networkId": 0,
      "chainId": 0
    }
  ]
}