{
  "hash": "0x82917efdff2676d0a713ecd18b24e6e8cde04ca6df789bfa393c7a41f8cd4491",
  "parentHash": "0xd9be374ecd04a8f666ed25d115a76ecc1442c4b5bb6faea636d160f9127725a5",
  "number": 76831,
  "timestamp": 1439427006,
  "nonce": "0xf364d9c162bcde44",
  "difficulty": 2232873287832,
  "gasLimit": {
    "_hex": "0x2fefd8"
  },
  "gasUsed": {
    "_hex": "0x546c"
  },
  "miner": "0xe6A7a1d47ff21B6321162AEA7C6CB457D5476Bca",
  "extraData": "0x476574682f76312e302e312d38326566323666362f6c696e75782f676f312e34",
  "transactions": [
    {
      "hash": "0x968dfa189a0f35410008b0446b30ac79c59144465696c899d7a757df5c1d2c66",
      "blockHash": "0x82917efdff2676d0a713ecd18b24e6e8cde04ca6df789bfa393c7a41f8cd4491",
      "blockNumber": 76831,
      "transactionIndex": 0,
      "confirmations": null,
      "from": "0x6c341709A69F0D286ff289986ECd928bb3a51B7A",
      "gasPrice": {
        "_hex": "0x9184e72a000"
      },
      "gasLimit": {
        "_hex": "0x55f0"
      },
      "to": "0x2910543Af39abA0Cd09dBb2D50200b3E800A63D2",
      "value": {
        "_hex": "0xde0b6b3a7640000"
      },
      "nonce": 1,
      "data": "0x454e484e5137434430",
      "r": "0xc10b591a58df3bac33ae2b039ca59d6bdd9ef4112de27d42a32116a44d18f545",
      "s": "0xaf159573bbca8d2511eadcd8c7e2406346922bf00ba08f96b93dc0cdf08b1860",
      "v": 27,
      "creates": null,
      "raw": "0xf876018609184e72a0008255f0942910543af39aba0cd09dbb2d50200b3e800a63d2880de0b6b3a764000089454e484e51374344301ba0c10b591a58df3bac33ae2b039ca59d6bdd9ef4112de27d42a32116a44d18f545a0af159573bbca8d2511eadcd8c7e2406346922bf00ba08f96b93dc0cdf08b1860",
      "networkId": 0,
      "chainId": 0
    }
  ]
}