{
  "hash": "0x20b69f5551d904e3b8d2e1df8a31b956b86c2e4f8c829c9c8b90a69c28209498",
  "parentHash": "0x90fad8181154d3050c4c30ae3d4ffb05947c082c8cd3b57e2919ddab484f4136",
  "number": 59539,
  "timestamp": 1439139895,
  "nonce": "0xfae0f4ba5245eb5f",
  "difficulty": 1700524119443,
  "gasLimit": {
    "_hex": "0x2fefd8"
  },
  "gasUsed": {
    "_hex": "0x5208"
  },
  "miner": "0xbb7B8287f3F0a933474a79eAe42CBCa977791171",
  "extraData": "0x476574682f4c5649562f76312e302e312f6c696e75782f676f312e342e32",
  "transactions": [
    {
      "hash": "0xd10d9b51386db409804c017c6e0540d001a634315a4a35dcae63056987c9de61",
      "blockHash": "0x20b69f5551d904e3b8d2e1df8a31b956b86c2e4f8c829c9c8b90a69c28209498",
      "blockNumber": 59539,
      "transactionIndex": 0,
      "confirmations": null,
      "from": "0xc544B25bb91b87e380dda392687c6216b0260671",
      "gasPrice": {
        "_hex": "0xcbe470738"
      },
      "gasLimit": {
        "_hex": "0x5208"
      },
      "to": "0x32Be343B94f860124dC4fEe278FDCBD38C102D88",
      "value": {
        "_hex": "0x1bbd580ec0373c00"
      },
      "nonce": 1,
      "data": "0x",
      "r": "0xe2199bdf3e804e539bdcf0831246aa7a3c811c54950a5cd657b99b194468f808",
      "s": "0x750e96ae6531c3c65699f5105bf417dbdd08f844d51295f863643926c438d35d",
      "v": 27,
      "creates": null,
      "raw": "0xf86c01850cbe4707388252089432be343b94f860124dc4fee278fdcbd38c102d88881bbd580ec0373c00801ba0e2199bdf3e804e539bdcf0831246aa7a3c811c54950a5cd657b99b194468f808a0750e96ae6531c3c65699f5105bf417dbdd08f844d51295f863643926c438d35d",
      "networkId": 0,
      "chainId": 0
    }
  ]
}