{
  "hash": "0x5dfa4445825307f5ac9b70327a1c691436c1fe8cdd96fad397769deadd423b05",
  "parentHash": "0xdc36e9ba7e8e27ace0b43c5b4f9249fd3e493cb79b12646a24780050de2988c0",
  "number": 77319,
  "timestamp": 1439435336,
  "nonce": "0x512e4da3e68bb021",
  "difficulty": 2226211727732,
  "gasLimit": {
    "_hex": "0x2fefd8"
  },
  "gasUsed": {
    "_hex": "0x55d8"
  },
  "miner": "0x70137010922f2fC2964b3792907F79FBB75fEbe8",
  "extraData": "0x476574682f76312e302e302f6c696e75782f676f312e342e32",
  "transactions": [
    {
      "hash": "0xc405752aee92f43db06a483c93e44e67603e3d1b9ac4a4fe2dcb67003013fd76",
      "blockHash": "0x5dfa4445825307f5ac9b70327a1c691436c1fe8cdd96fad397769deadd423b05",
      "blockNumber": 77319,
      "transactionIndex": 0,
      "confirmations": null,
      "from": "0x770d98d31b4353FceEE8560c4CCf803e88C0c4e0",
      "gasPrice": {
        "_hex": "0xdf266863c"
      },
      "gasLimit": {
        "_hex": "0x15f90"
      },
      "to": "0x0000000000000000000000000000000000000000",
      "value": {
        "_hex": "0x38d7ea4c68000"
      },
      "nonce": 10,
      "data": "0xb214faa54131313131313131410000000000000000000000000000000000000000000000",
      "r": "0x0dc1b5cd5514c5c1e08bec017c8c50b11283e97550f3963f7411b0e30d7a655f",
      "s": "0x4d399a82ff65271504c220235b5cfbd36843668d39527533e3673dd626b6d78c",
      "v": 28,
      "creates": null,
      "raw": "0xf8900a850df266863c83015f9094000000000000000000000000000000000000000087038d7ea4c68000a4b214faa541313131313131314100000000000000000000000000000000000000000000001ca00dc1b5cd5514c5c1e08bec017c8c50b11283e97550f3963f7411b0e30d7a655fa04d399a82ff65271504c220235b5cfbd36843668d39527533e3673dd626b6d78c",
      "networkId": 0,
      "chainId": 0
    }
  ]
}