{
  "hash": "0x2ec644df36fe4871ee6142a3df67f5a1039b16ae4f16ecc5634ab8ff173bda22",
  "parentHash": "0x35a2261595dd097a696d1a433abccbdf9e853d46440cad18c50eadac70064803",
  "number": 87205,
  "timestamp": 1439588884,
  "nonce": "0x9d686668a86abd73",
  "difficulty": 3063124232927,
  "gasLimit": {
    "_hex": "0x2fefd8"
  },
  "gasUsed": {
    "_hex": "0x5208"
  },
  "miner": "0xaB638742EBe3A78F2a85028350e1AADB86C0a6ed",
  "extraData": "0x",
  "transactions": [
    {
      "hash": "0xe3772f280038d09e1a3baca7b367c86aed97024de0904192eb74e90b76a65208",
      "blockHash": "0x2ec644df36fe4871ee6142a3df67f5a1039b16ae4f16ecc5634ab8ff173bda22",
      "blockNumber": 87205,
      "transactionIndex": 0,
      "confirmations": null,
      "from": "0x32Be343B94f860124dC4fEe278FDCBD38C102D88",
      "gasPrice": {
        "_hex": "0xd13fde135"
      },
      "gasLimit": {
        "_hex": "0x5208"
      },
      "to": "0xF8FFFdCB6b8B88372B6aE42257f66D93E5189AC9",
      "value": {
        "_hex": "0x13f41831582f740000"
      },
      "nonce": 778,
      "data": "0x",
      "r": "0x87bfbfa82a2e46baede2a41a3b6196106dc147d87616852816fc352d1c8e4c61",
      "s": "0x1bb55ee17a41a90fcae10b2ec4044d2f7583c2f45738fc9f238c57b73483449d",
      "v": 27,
      "creates": null,
      "raw": "0xf86f82030a850d13fde13582520894f8fffdcb6b8b88372b6ae42257f66d93e5189ac98913f41831582f740000801ba087bfbfa82a2e46baede2a41a3b6196106dc147d87616852816fc352d1c8e4c61a01bb55ee17a41a90fcae10b2ec4044d2f7583c2f45738fc9f238c57b73483449d",
      "networkId": 0,
      "chainId": 0
    }
  ]
}