{
  "hash": "0x38637275886297e0c63eb1c6fae3a0bb468f97f28a8c0904050ecb35360fc0c1",
  "parentHash": "0xff9ca284b959a71a1e8afa1c9687726b817de1d100b870e1bfb00869b53b5b8c",
  "number": 112799,
  "timestamp": 1440013466,
  "nonce": "0xba598b3e3a84e592",
  "difficulty": 4425919806469,
  "gasLimit": {
    "_hex": "0x2fefd8"
  },
  "gasUsed": {
    "_hex": "0xa410"
  },
  "miner": "0xe6A7a1d47ff21B6321162AEA7C6CB457D5476Bca",
  "extraData": "0x476574682f76312e302e312d38326566323666362f6c696e75782f676f312e34",
  "transactions": [
    {
      "hash": "0xcac777dec0d05e2a430c5b5a1a938a2e30bb79b8f91e50cfeda1b0b7f08506dc",
      "blockHash": "0x38637275886297e0c63eb1c6fae3a0bb468f97f28a8c0904050ecb35360fc0c1",
      "blockNumber": 112799,
      "transactionIndex": 0,
      "confirmations": null,
      "from": "0xB28fE7b9815982FF203F751ce550111D752d8795",
      "gasPrice": {
        "_hex": "0xccc7e0bbd"
      },
      "gasLimit": {
        "_hex": "0x5208"
      },
      "to": "0x32Be343B94f860124dC4fEe278FDCBD38C102D88",
      "value": {
        "_hex": "0x26751eca508c30000"
      },
      "nonce": 6,
      "data": "0x",
      "r": "0xa323fb0a3c7d881c2e86cf11a8df2c26002a204d100f1e4c0dd76b3414aca07c",
      "s": "0x0c63bfeb33f33eac036cd2b08c9ecefb074f303cce880aac07f769a9a2f48922",
      "v": 27,
      "creates": null,
      "raw": "0xf86d06850ccc7e0bbd8252089432be343b94f860124dc4fee278fdcbd38c102d8889026751eca508c30000801ba0a323fb0a3c7d881c2e86cf11a8df2c26002a204d100f1e4c0dd76b3414aca07ca00c63bfeb33f33eac036cd2b08c9ecefb074f303cce880aac07f769a9a2f48922",
      "networkId": 0,
      "chainId": 0
    },
    {
      "hash": "0x79cdb11f125716d065ae290bb1b27a1c4c8cffec4ff5ab5248fc0257c5fb0a45",
      "blockHash": "0x38637275886297e0c63eb1c6fae3a0bb468f97f28a8c0904050ecb35360fc0c1",
      "blockNumber": 112799,
      "transactionIndex": 1,
      "confirmations": null,
      "from": "0x8fA33bA169f6aFf86fB3C9E172bddA7CA6D2A66a",
      "gasPrice": {
        "_hex": "0xccc7e0bbd"
      },
      "gasLimit": {
        "_hex": "0x5208"
      },
      "to": "0x32Be343B94f860124dC4fEe278FDCBD38C102D88",
      "value": {
        "_hex": "0x296371decddea800"
      },
      "nonce": 5,
      "data": "0x",
      "r": "0xcffdb725466d2fe97cb493798943988c1c62dba6bea638aef10f8068de61afa0",
      "s": "0x694d21ef87e1caa79371f618a62fd85ee2a6d2f34d9991658ce4efb673e856fb",
      "v": 27,
      "creates": null,
      "raw": "0xf86c05850ccc7e0bbd8252089432be343b94f860124dc4fee278fdcbd38c102d8888296371decddea800801ba0cffdb725466d2fe97cb493798943988c1c62dba6bea638aef10f8068de61afa0a0694d21ef87e1caa79371f618a62fd85ee2a6d2f34d9991658ce4efb673e856fb",
      "networkId": 0,
      "chainId": 0
    }
  ]
}