{
  "hash": "0x674dad1a36c73c4d3855d62d1fa2182c933cfe306681ba1f6ed29ceb2bf8e482",
  "parentHash": "0xa85528940665f946edde6060a4da155b977bdf1d485737567b80a8260d9dc3e8",
  "number": 87914,
  "timestamp": 1439599478,
  "nonce": "0x5c2060dd3ff9473f",
  "difficulty": 3186431540285,
  "gasLimit": {
    "_hex": "0x2fefd8"
  },
  "gasUsed": {
    "_hex": "0x5208"
  },
  "miner": "0xe6A7a1d47ff21B6321162AEA7C6CB457D5476Bca",
  "extraData": "0x476574682f76312e302e312d38326566323666362f6c696e75782f676f312e34",
  "transactions": [
    {
      "hash": "0x53f65c8fab29afc854a2ab0fc3e053a47a3477d41890c2711fb8a43b11f66e8d",
      "blockHash": "0x674dad1a36c73c4d3855d62d1fa2182c933cfe306681ba1f6ed29ceb2bf8e482",
      "blockNumber": 87914,
      "transactionIndex": 0,
      "confirmations": null,
      "from": "0x2910543Af39abA0Cd09dBb2D50200b3E800A63D2",
      "gasPrice": {
        "_hex": "0xd24b575bd"
      },
      "gasLimit": {
        "_hex": "0x5208"
      },
      "to": "0x54A6ae0918896330899e0999038D20D94031c6fe",
      "value": {
        "_hex": "0x15ae0141220e38000"
      },
      "nonce": 716,
      "data": "0x",
      "r": "0xd6226f580490a3ee96af6cc70f7cbed2935a4214120cf464a43dc86e87434eb0",
      "s": "0x4e5d93f28ca1ee533aad7d6cbdc9a47753d8344ded9bdda3305a2570e50c225f",
      "v": 27,
      "creates": null,
      "raw": "0xf86f8202cc850d24b575bd8252089454a6ae0918896330899e0999038d20d94031c6fe89015ae0141220e38000801ba0d6226f580490a3ee96af6cc70f7cbed2935a4214120cf464a43dc86e87434eb0a04e5d93f28ca1ee533aad7d6cbdc9a47753d8344ded9bdda3305a2570e50c225f",
      "networkId": 0,
      "chainId": 0
    }
  ]
}