{
  "hash": "0x3dc9deeb38c01474aa4ab0f490839a1dc30ef22848937614188a093a2cbebd52",
  "parentHash": "0x3b16dc46878a8785ecddaab8b469cc17bda9ad416150af2d313e4f732ffa1a0d",
  "number": 94638,
  "timestamp": 1439711453,
  "nonce": "0x362fa096cc0794be",
  "difficulty": 3507065973874,
  "gasLimit": {
    "_hex": "0x2fefd8"
  },
  "gasUsed": {
    "_hex": "0x61698"
  },
  "miner": "0x7aAaa306d4a7Fd1696A82A66cc538D29f5af4e39",
  "extraData": "0x",
  "transactions": [
    {
      "hash": "0xda0078689566348bba60acec0b75656ddcb3be33da9eaf895fae7a98378b01dc",
      "blockHash": "0x3dc9deeb38c01474aa4ab0f490839a1dc30ef22848937614188a093a2cbebd52",
      "blockNumber": 94638,
      "transactionIndex": 0,
      "confirmations": null,
      "from": "0xe6A7a1d47ff21B6321162AEA7C6CB457D5476Bca",
      "gasPrice": {
        "_hex": "0xdc8b9a534"
      },
      "gasLimit": {
        "_hex": "0x55f0"
      },
      "to": "0x2a9345Be3f611A15B4ac383C0f601c4B16b24577",
      "value": {
        "_hex": "0xf65ca9e9d3df4d4"
      },
      "nonce": 2512,
      "data": "0x",
      "r": "0xc228dde289095550e6fd474205bc085ae3542bf466484f50aa7b0ebf44aae2c0",
      "s": "0x748ecc3e51517072aa47572b8eab48e1b16c87c42a0dd536794f1ab216e94700",
      "v": 27,
      "creates": null,
      "raw": "0xf86e8209d0850dc8b9a5348255f0942a9345be3f611a15b4ac383c0f601c4b16b24577880f65ca9e9d3df4d4801ba0c228dde289095550e6fd474205bc085ae3542bf466484f50aa7b0ebf44aae2c0a0748ecc3e51517072aa47572b8eab48e1b16c87c42a0dd536794f1ab216e94700",
      "networkId": 0,
      "chainId": 0
    },
    {
      "hash": "0xdf47a4c7a0969960f3fe72f8d548cbdf08d40fcaa33942554c206d308d972503",
      "blockHash": "0x3dc9deeb38c01474aa4ab0f490839a1dc30ef22848937614188a093a2cbebd52",
      "blockNumber": 94638,
      "transactionIndex": 1,
      "confirmations": null,
      "from": "0xe6A7a1d47ff21B6321162AEA7C6CB457D5476Bca",
      "gasPrice": {
        "_hex": "0xdc8b9a534"
      },
      "gasLimit": {
        "_hex": "0x55f0"
      },
      "to": "0xA542d5046D885E5fC7Dc4006ADb648C5710Ff0ED",
      "value": {
        "_hex": "0xf66c56933ba4af0"
      },
      "nonce": 2513,
      "data": "0x",
      "r": "0x788e72455a9389b8fad315adf357fcad5a635f8fabc12d67fab6a4101fad1874",
      "s": "0x1d56edb3629097087a93c7c4695b740bac9d635c29b22eada4bf2b94ce167942",
      "v": 28,
      "creates": null,
      "raw": "0xf86e8209d1850dc8b9a5348255f094a542d5046d885e5fc7dc4006adb648c5710ff0ed880f66c56933ba4af0801ca0788e72455a9389b8fad315adf357fcad5a635f8fabc12d67fab6a4101fad1874a01d56edb3629097087a93c7c4695b740bac9d635c29b22eada4bf2b94ce167942",
      "networkId": 0,
      "chainId": 0
    },
    {
      "hash": "0x6cd1406d02f92b9786e91d6f31ffad1c0b25ee93367201b534e4342069007f15",
      "blockHash": "0x3dc9deeb38c01474aa4ab0f490839a1dc30ef22848937614188a093a2cbebd52",
      "blockNumber": 94638,
      "transactionIndex": 2,
      "confirmations": null,
      "from": "0xe6A7a1d47ff21B6321162AEA7C6CB457D5476Bca",
      "gasPrice": {
        "_hex": "0xdc8b9a534"
      },
      "gasLimit": {
        "_hex": "0x55f0"
      },
      "to": "0x52524C3c4B039D2C330eD2D34973906987B21413",
      "value": {
        "_hex": "0xf874121a32552a0"
      },
      "nonce": 2514,
      "data": "0x",
      "r": "0x6536437570cbc9066660df0ba49a78db153868a496da2fb1e52c8b991bca7003",
      "s": "0x184556d285ec77976024562efec0602d43f38cd82f6ae17ebf90a5a035731055",
      "v": 27,
      "creates": null,
      "raw": "0xf86e8209d2850dc8b9a5348255f09452524c3c4b039d2c330ed2d34973906987b21413880f874121a32552a0801ba06536437570cbc9066660df0ba49a78db153868a496da2fb1e52c8b991bca7003a0184556d285ec77976024562efec0602d43f38cd82f6ae17ebf90a5a035731055",
      "networkId": 0,
      "chainId": 0
    },
    {
      "hash": "0xde38da16402b79be690f75e485dd477743264b801a9988ad0441a00ab8e83dfa",
      "blockHash": "0x3dc9deeb38c01474aa4ab0f490839a1dc30ef22848937614188a093a2cbebd52",
      "blockNumber": 94638,
      "transactionIndex": 3,
      "confirmations": null,
      "from": "0xe6A7a1d47ff21B6321162AEA7C6CB457D5476Bca",
      "gasPrice": {
        "_hex": "0xdc8b9a534"
      },
      "gasLimit": {
        "_hex": "0x55f0"
      },
      "to": "0xAa3D5083092Da09B17024192c83361c85B19739d",
      "value": {
        "_hex": "0xf8767f42801ce88"
      },
      "nonce": 2515,
      "data": "0x",
      "r": "0x9bad4dea1dfacaf3e05f06b84963ebe42e007de05f8e8cbacbc8832caedb4fe8",
      "s": "0x28166256ecac45863cc7f94fd52956fa6631aa620535d1d4d96a6ed57816b73a",
      "v": 28,
      "creates": null,
      "raw": "0xf86e8209d3850dc8b9a5348255f094aa3d5083092da09b17024192c83361c85b19739d880f8767f42801ce88801ca09bad4dea1dfacaf3e05f06b84963ebe42e007de05f8e8cbacbc8832caedb4fe8a028166256ecac45863cc7f94fd52956fa6631aa620535d1d4d96a6ed57816b73a",
      "networkId": 0,
      "chainId": 0
    },
    {
      "hash": "0x5d34e3346b20361633bf914420c06ac94665e83c854a946994711d8dcc9aa354",
      "blockHash": "0x3dc9deeb38c01474aa4ab0f490839a1dc30ef22848937614188a093a2cbebd52",
      "blockNumber": 94638,
      "transactionIndex": 4,
      "confirmations": null,
      "from": "0xe6A7a1d47ff21B6321162AEA7C6CB457D5476Bca",
      "gasPrice": {
        "_hex": "0xdc8b9a534"
      },
      "gasLimit": {
        "_hex": "0x55f0"
      },
      "to": "0x1FC0a68ee75c96453Dc8A877F49CfD6ab21d00ec",
      "value": {
        "_hex": "0xf928b7f2e95e888"
      },
      "nonce": 2516,
      "data": "0x",
      "r": "0x87fdb99de0a0c44d85deec8b9c4994db437217471583ddfca792e429c6c4dc95",
      "s": "0x30c53c7981291d4184d53afafe8f1c436260a49bc3a45caf77ad801727837da4",
      "v": 28,
      "creates": null,
      "raw": "0xf86e8209d4850dc8b9a5348255f0941fc0a68ee75c96453dc8a877f49cfd6ab21d00ec880f928b7f2e95e888801ca087fdb99de0a0c44d85deec8b9c4994db437217471583ddfca792e429c6c4dc95a030c53c7981291d4184d53afafe8f1c436260a49bc3a45caf77ad801727837da4",
      "networkId": 0,
      "chainId": 0
    },
    {
      "hash": "0x3d7b801f1c3370b5a4d26600f2161aa16b568b527f9c27de8231ab5b96e25e20",
      "blockHash": "0x3dc9deeb38c01474aa4ab0f490839a1dc30ef22848937614188a093a2cbebd52",
      "blockNumber": 94638,
      "transactionIndex": 5,
      "confirmations": null,
      "from": "0xe6A7a1d47ff21B6321162AEA7C6CB457D5476Bca",
      "gasPrice": {
        "_hex": "0xdc8b9a534"
      },
      "gasLimit": {
        "_hex": "0x55f0"
      },
      "to": "0x8133cC8164c511DDC7C1c233C9628CA4dbcE3e55",
      "value": {
        "_hex": "0xf94d16ae01ad2e8"
      },
      "nonce": 2517,
      "data": "0x",
      "r": "0xf182212b65661742351142c16c25a7235daf426fd9c3116f51f6d0a11efc96d8",
      "s": "0x416063ef395c2543204c498d090741f125e083176ba1e90b32eb2e12091f450e",
      "v": 28,
      "creates": null,
      "raw": "0xf86e8209d5850dc8b9a5348255f0948133cc8164c511ddc7c1c233c9628ca4dbce3e55880f94d16ae01ad2e8801ca0f182212b65661742351142c16c25a7235daf426fd9c3116f51f6d0a11efc96d8a0416063ef395c2543204c498d090741f125e083176ba1e90b32eb2e12091f450e",
      "networkId": 0,
      "chainId": 0
    },
    {
      "hash": "0xb30e8679febff0f4bd8009e26442a93eb0e19bd494ddab2c8965a1fdb3978b6d",
      "blockHash": "0x3dc9deeb38c01474aa4ab0f490839a1dc30ef22848937614188a093a2cbebd52",
      "blockNumber": 94638,
      "transactionIndex": 6,
      "confirmations": null,
      "from": "0xe6A7a1d47ff21B6321162AEA7C6CB457D5476Bca",
      "gasPrice": {
        "_hex": "0xdc8b9a534"
      },
      "gasLimit": {
        "_hex": "0x55f0"
      },
      "to": "0x61d5Ec7Bf3A98B798D8274dFFe16697A935a8742",
      "value": {
        "_hex": "0xf9ddbf78c0cf578"
      },
      "nonce": 2518,
      "data": "0x",
      "r": "0x09698219cebee2e679523151b221fa71b773fa139d65a5d3bd448145c34b6218",
      "s": "0x2c1ca112c8fa72b62f644ffd3b87da85a05250813575377e64d1c8bb445290b4",
      "v": 27,
      "creates": null,
      "raw": "0xf86e8209d6850dc8b9a5348255f09461d5ec7bf3a98b798d8274dffe16697a935a8742880f9ddbf78c0cf578801ba009698219cebee2e679523151b221fa71b773fa139d65a5d3bd448145c34b6218a02c1ca112c8fa72b62f644ffd3b87da85a05250813575377e64d1c8bb445290b4",
      "networkId": 0,
      "chainId": 0
    },
    {
      "hash": "0x2bebade390fbbfc563d1dec4c145d6fa99749f52fd3a1798d722023acddaf0bf",
      "blockHash": "0x3dc9deeb38c01474aa4ab0f490839a1dc30ef22848937614188a093a2cbebd52",
      "blockNumber": 94638,
      "transactionIndex": 7,
      "confirmations": null,
      "from": "0xe6A7a1d47ff21B6321162AEA7C6CB457D5476Bca",
      "gasPrice": {
        "_hex": "0xdc8b9a534"
      },
      "gasLimit": {
        "_hex": "0x55f0"
      },
      "to": "0x07B4875Db0388E150D1D95Dd975E458f1eC2a210",
      "value": {
        "_hex": "0xfc0e9864d53815c"
      },
      "nonce": 2519,
      "data": "0x",
      "r": "0x11bf63e7ce11a2628a31beb167edc3aadbcba0394f2cd06618290c0f39f6f3ad",
      "s": "0x24df7a6d08b753e5fc9fa41ac114cd429f298daa4d3baad3da14b93be5ed566e",
      "v": 27,
      "creates": null,
      "raw": "0xf86e8209d7850dc8b9a5348255f09407b4875db0388e150d1d95dd975e458f1ec2a210880fc0e9864d53815c801ba011bf63e7ce11a2628a31beb167edc3aadbcba0394f2cd06618290c0f39f6f3ada024df7a6d08b753e5fc9fa41ac114cd429f298daa4d3baad3da14b93be5ed566e",
      "networkId": 0,
      "chainId": 0
    },
    {
      "hash": "0x1ce9812725539679adc39beb6f1600e473a295a85f4b72c6025d9b66c8fb686e",
      "blockHash": "0x3dc9deeb38c01474aa4ab0f490839a1dc30ef22848937614188a093a2cbebd52",
      "blockNumber": 94638,
      "transactionIndex": 8,
      "confirmations": null,
      "from": "0xe6A7a1d47ff21B6321162AEA7C6CB457D5476Bca",
      "gasPrice": {
        "_hex": "0xdc8b9a534"
      },
      "gasLimit": {
        "_hex": "0x55f0"
      },
      "to": "0x740Ab9f08593f931fC5d0589a528663565e707ee",
      "value": {
        "_hex": "0xfe30d0bc41f3b30"
      },
      "nonce": 2520,
      "data": "0x",
      "r": "0x5ddba7ecbe30fd77b1aca3e35f8b254f8757d3bd2e6eb53084bdc7c6e0d36e0f",
      "s": "0x4caf040bb3be2a176cae42ec95fd12c27fef0558cfedd968cd6abcca934ab8a3",
      "v": 28,
      "creates": null,
      "raw": "0xf86e8209d8850dc8b9a5348255f094740ab9f08593f931fc5d0589a528663565e707ee880fe30d0bc41f3b30801ca05ddba7ecbe30fd77b1aca3e35f8b254f8757d3bd2e6eb53084bdc7c6e0d36e0fa04caf040bb3be2a176cae42ec95fd12c27fef0558cfedd968cd6abcca934ab8a3",
      "networkId": 0,
      "chainId": 0
    },
    {
      "hash": "0xcb26decfb0280d6dac22c04618b5a1f36540311a2ab4051cfde10e55225aae36",
      "blockHash": "0x3dc9deeb38c01474aa4ab0f490839a1dc30ef22848937614188a093a2cbebd52",
      "blockNumber": 94638,
      "transactionIndex": 9,
      "confirmations": null,
      "from": "0xe6A7a1d47ff21B6321162AEA7C6CB457D5476Bca",
      "gasPrice": {
        "_hex": "0xdc8b9a534"
      },
      "gasLimit": {
        "_hex": "0x55f0"
      },
      "to": "0x943800a6196105B4937F48570Dc5D0232a962da5",
      "value": {
        "_hex": "0xffc1bae469ea7e8"
      },
      "nonce": 2521,
      "data": "0x",
      "r": "0x14d94c12cb3b379261b3415c2653028603ed42c308bbca07a2daf7134083804d",
      "s": "0x3eb2f854415f45dad085a92f85a60d73ffe6d7fd7304646bd07075da8bfed3d6",
      "v": 27,
      "creates": null,
      "raw": "0xf86e8209d9850dc8b9a5348255f094943800a6196105b4937f48570dc5d0232a962da5880ffc1bae469ea7e8801ba014d94c12cb3b379261b3415c2653028603ed42c308bbca07a2daf7134083804da03eb2f854415f45dad085a92f85a60d73ffe6d7fd7304646bd07075da8bfed3d6",
      "networkId": 0,
      "chainId": 0
    },
    {
      "hash": "0x2eb945268ac114b2378befcd21d6a3d2ed550f9df4e8d9bbf089ef73f689bc2d",
      "blockHash": "0x3dc9deeb38c01474aa4ab0f490839a1dc30ef22848937614188a093a2cbebd52",
      "blockNumber": 94638,
      "transactionIndex": 10,
      "confirmations": null,
      "from": "0xe6A7a1d47ff21B6321162AEA7C6CB457D5476Bca",
      "gasPrice": {
        "_hex": "0xdc8b9a534"
      },
      "gasLimit": {
        "_hex": "0x55f0"
      },
      "to": "0xFACDD7f1B8a4bF2D881953e5751654D233024935",
      "value": {
        "_hex": "0x102b98b2cb4bd3d4"
      },
      "nonce": 2522,
      "data": "0x",
      "r": "0xa771474b0fdc4973a7ade9c5413a3da564e88083464695570386512c78c4153f",
      "s": "0x30004b30c2fe169daa67434b99140c10760451c661f20b26e099362825a38ce4",
      "v": 27,
      "creates": null,
      "raw": "0xf86e8209da850dc8b9a5348255f094facdd7f1b8a4bf2d881953e5751654d23302493588102b98b2cb4bd3d4801ba0a771474b0fdc4973a7ade9c5413a3da564e88083464695570386512c78c4153fa030004b30c2fe169daa67434b99140c10760451c661f20b26e099362825a38ce4",
      "networkId": 0,
      "chainId": 0
    },
    {
      "hash": "0x87886a98ad4c03c5265511622d5447696fdf6a991f89411b5239c4b5a3e4456e",
      "blockHash": "0x3dc9deeb38c01474aa4ab0f490839a1dc30ef22848937614188a093a2cbebd52",
      "blockNumber": 94638,
      "transactionIndex": 11,
      "confirmations": null,
      "from": "0xe6A7a1d47ff21B6321162AEA7C6CB457D5476Bca",
      "gasPrice": {
        "_hex": "0xda72ac08d"
      },
      "gasLimit": {
        "_hex": "0x55f0"
      },
      "to": "0x822f505e0174EF22d2a774Cb80a855fFd27AE3Bf",
      "value": {
        "_hex": "0x10539690e58b75e8"
      },
      "nonce": 2523,
      "data": "0x",
      "r": "0xec1b64eaed083598ef312132d1737f7ad7c7fd67068246e38a9db507d5e178e0",
      "s": "0x4642e22942e30cb730c73563ed387eeb1f19f010c4a1651ca4b5eaab1d7a26ef",
      "v": 27,
      "creates": null,
      "raw": "0xf86e8209db850da72ac08d8255f094822f505e0174ef22d2a774cb80a855ffd27ae3bf8810539690e58b75e8801ba0ec1b64eaed083598ef312132d1737f7ad7c7fd67068246e38a9db507d5e178e0a04642e22942e30cb730c73563ed387eeb1f19f010c4a1651ca4b5eaab1d7a26ef",
      "networkId": 0,
      "chainId": 0
    },
    {
      "hash": "0x996bae42a51ca6f0d551e61e03a20b21647631a2b1f7f4b89ec8d63e1cc23d05",
      "blockHash": "0x3dc9deeb38c01474aa4ab0f490839a1dc30ef22848937614188a093a2cbebd52",
      "blockNumber": 94638,
      "transactionIndex": 12,
      "confirmations": null,
      "from": "0xe6A7a1d47ff21B6321162AEA7C6CB457D5476Bca",
      "gasPrice": {
        "_hex": "0xda72ac08d"
      },
      "gasLimit": {
        "_hex": "0x55f0"
      },
      "to": "0x0d271b81faBA0B8eD00aC8542D9896B69AAaA0E5",
      "value": {
        "_hex": "0x10d757ccae17aee8"
      },
      "nonce": 2524,
      "data": "0x",
      "r": "0xd8e67b513a372dbc36ddb4c409f42b44873a5096e382e867e6ade75c65096889",
      "s": "0x4790c8184cd7db976891a9b5b0bec0bc5497a45e9d41827ed3f7495ee1c1a7c7",
      "v": 27,
      "creates": null,
      "raw": "0xf86e8209dc850da72ac08d8255f0940d271b81faba0b8ed00ac8542d9896b69aaaa0e58810d757ccae17aee8801ba0d8e67b513a372dbc36ddb4c409f42b44873a5096e382e867e6ade75c65096889a04790c8184cd7db976891a9b5b0bec0bc5497a45e9d41827ed3f7495ee1c1a7c7",
      "networkId": 0,
      "chainId": 0
    },
    {
      "hash": "0xde12db4331b555a6ffc9ec93e6c99eb195ade40e09eb4587928b33cb5974f6d3",
      "blockHash": "0x3dc9deeb38c01474aa4ab0f490839a1dc30ef22848937614188a093a2cbebd52",
      "blockNumber": 94638,
      "transactionIndex": 13,
      "confirmations": null,
      "from": "0xe6A7a1d47ff21B6321162AEA7C6CB457D5476Bca",
      "gasPrice": {
        "_hex": "0xda72ac08d"
      },
      "gasLimit": {
        "_hex": "0x55f0"
      },
      "to": "0xCC0c34544f4644d80d7FCD82E0b56e9d5C7AF43c",
      "value": {
        "_hex": "0x10ddf652a1f22000"
      },
      "nonce": 2525,
      "data": "0x",
      "r": "0x3ec49fe483e64e616daea680237c1b9c3f7e6da31fb348cface1af7ed2533ba7",
      "s": "0x0fd1fd4eabb7cdfd68d8e198d6ef97eb8cb7d3eb15bf0a4eacf2b907cec458c1",
      "v": 27,
      "creates": null,
      "raw": "0xf86e8209dd850da72ac08d8255f094cc0c34544f4644d80d7fcd82e0b56e9d5c7af43c8810ddf652a1f22000801ba03ec49fe483e64e616daea680237c1b9c3f7e6da31fb348cface1af7ed2533ba7a00fd1fd4eabb7cdfd68d8e198d6ef97eb8cb7d3eb15bf0a4eacf2b907cec458c1",
      "networkId": 0,
      "chainId": 0
    },
    {
      "hash": "0x7df84aab6ea7b57e6b3ce2a8a98ad461c25f066aaf33a58917e99f10bd306bab",
      "blockHash": "0x3dc9deeb38c01474aa4ab0f490839a1dc30ef22848937614188a093a2cbebd52",
      "blockNumber": 94638,
      "transactionIndex": 14,
      "confirmations": null,
      "from": "0xe6A7a1d47ff21B6321162AEA7C6CB457D5476Bca",
      "gasPrice": {
        "_hex": "0xda72ac08d"
      },
      "gasLimit": {
        "_hex": "0x55f0"
      },
      "to": "0x9FA0960220d2d51D54f755501E391Da140c2EF63",
      "value": {
        "_hex": "0x11150435212854f8"
      },
      "nonce": 2526,
      "data": "0x",
      "r": "0x1c57ba386038a4f098a8ab272c1d6f3c93f2070fb172b34215c6648e0d935b11",
      "s": "0x525a2961c045d7514eca686815788fabeb0e01b7527f2d67c0eb91c5ca2d8262",
      "v": 28,
      "creates": null,
      "raw": "0xf86e8209de850da72ac08d8255f0949fa0960220d2d51d54f755501e391da140c2ef638811150435212854f8801ca01c57ba386038a4f098a8ab272c1d6f3c93f2070fb172b34215c6648e0d935b11a0525a2961c045d7514eca686815788fabeb0e01b7527f2d67c0eb91c5ca2d8262",
      "networkId": 0,
      "chainId": 0
    },
    {
      "hash": "0x406d3f3f37fc438a249dce5a388b193ce9246ecaed0743f9a6ee8cab93163303",
      "blockHash": "0x3dc9deeb38c01474aa4ab0f490839a1dc30ef22848937614188a093a2cbebd52",
      "blockNumber": 94638,
      "transactionIndex": 15,
      "confirmations": null,
      "from": "0xe6A7a1d47ff21B6321162AEA7C6CB457D5476Bca",
      "gasPrice": {
        "_hex": "0xda72ac08d"
      },
      "gasLimit": {
        "_hex": "0x55f0"
      },
      "to": "0x91d32201228cd1Dea4e21d71f7A9e0CeF5de4A39",
      "value": {
        "_hex": "0x11248fea3ae26e10"
      },
      "nonce": 2527,
      "data": "0x",
      "r": "0xa8ca64f0f2a399f15a37c88fc5353a65f7c80ebe1238f2f38169506c03010f03",
      "s": "0x486e7633a78d149784062ccd7c24d0d94169b0701fe566e27a1861f64744b7b1",
      "v": 28,
      "creates": null,
      "raw": "0xf86e8209df850da72ac08d8255f09491d32201228cd1dea4e21d71f7a9e0cef5de4a398811248fea3ae26e10801ca0a8ca64f0f2a399f15a37c88fc5353a65f7c80ebe1238f2f38169506c03010f03a0486e7633a78d149784062ccd7c24d0d94169b0701fe566e27a1861f64744b7b1",
      "networkId": 0,
      "chainId": 0
    },
    {
      "hash": "0x0e77d02876ba919145f3024be0866e684f6a77aed58358020567181f54ba25c4",
      "blockHash": "0x3dc9deeb38c01474aa4ab0f490839a1dc30ef22848937614188a093a2cbebd52",
      "blockNumber": 94638,
      "transactionIndex": 16,
      "confirmations": null,
      "from": "0xe6A7a1d47ff21B6321162AEA7C6CB457D5476Bca",
      "gasPrice": {
        "_hex": "0xda72ac08d"
      },
      "gasLimit": {
        "_hex": "0x55f0"
      },
      "to": "0xE76EaD3b758580Bc4a79eccE04D7c88e061E299a",
      "value": {
        "_hex": "0x114b7526cffb85fc"
      },
      "nonce": 2528,
      "data": "0x",
      "r": "0x189ce0e045c4ebff0fad0f500ea559c4ba160013cdcf8a308a8212103c261d54",
      "s": "0x47ba87f47c90ef6875d934b6c71ce2a27a4da74231d23a0dcbea83994c087257",
      "v": 28,
      "creates": null,
      "raw": "0xf86e8209e0850da72ac08d8255f094e76ead3b758580bc4a79ecce04d7c88e061e299a88114b7526cffb85fc801ca0189ce0e045c4ebff0fad0f500ea559c4ba160013cdcf8a308a8212103c261d54a047ba87f47c90ef6875d934b6c71ce2a27a4da74231d23a0dcbea83994c087257",
      "networkId": 0,
      "chainId": 0
    },
    {
      "hash": "0x255854588452a064e6691b675838db4285610544072076dc180f9f1091d25333",
      "blockHash": "0x3dc9deeb38c01474aa4ab0f490839a1dc30ef22848937614188a093a2cbebd52",
      "blockNumber": 94638,
      "transactionIndex": 17,
      "confirmations": null,
      "from": "0xe6A7a1d47ff21B6321162AEA7C6CB457D5476Bca",
      "gasPrice": {
        "_hex": "0xda72ac08d"
      },
      "gasLimit": {
        "_hex": "0x55f0"
      },
      "to": "0x657a04FeFfb4412AA72aEe9c4d23918A998B3DF3",
      "value": {
        "_hex": "0x117a481e891920dc"
      },
      "nonce": 2529,
      "data": "0x",
      "r": "0x11659fc72269b8ccdf66cfa4bbb08ec8d9423fe987db1fd60285895c5611de7e",
      "s": "0x26b805b1779d2f8425fcd9735053037b912cdadc932e3af98d009d2821ec0722",
      "v": 27,
      "creates": null,
      "raw": "0xf86e8209e1850da72ac08d8255f094657a04feffb4412aa72aee9c4d23918a998b3df388117a481e891920dc801ba011659fc72269b8ccdf66cfa4bbb08ec8d9423fe987db1fd60285895c5611de7ea026b805b1779d2f8425fcd9735053037b912cdadc932e3af98d009d2821ec0722",
      "networkId": 0,
      "chainId": 0
    },
    {
      "hash": "0x3cff2e2dd06e471e4070c386cc64826b85b83cbdc17658404b0cb2fb9a9f3611",
      "blockHash": "0x3dc9deeb38c01474aa4ab0f490839a1dc30ef22848937614188a093a2cbebd52",
      "blockNumber": 94638,
      "transactionIndex": 18,
      "confirmations": null,
      "from": "0xe6A7a1d47ff21B6321162AEA7C6CB457D5476Bca",
      "gasPrice": {
        "_hex": "0xda72ac08d"
      },
      "gasLimit": {
        "_hex": "0x55f0"
      },
      "to": "0x3F587446d527E3a66c695E46D735838500fA92fe",
      "value": {
        "_hex": "0x117d4dc6e42e74e4"
      },
      "nonce": 2530,
      "data": "0x",
      "r": "0xbb8314b4548055d076c43ff4016c0224a4644f1c115869779c942fb48d080c47",
      "s": "0x289806d14da4cde1688f93a2bde1af9ab9e7b578645bade078d7bc2316fe26a3",
      "v": 27,
      "creates": null,
      "raw": "0xf86e8209e2850da72ac08d8255f0943f587446d527e3a66c695e46d735838500fa92fe88117d4dc6e42e74e4801ba0bb8314b4548055d076c43ff4016c0224a4644f1c115869779c942fb48d080c47a0289806d14da4cde1688f93a2bde1af9ab9e7b578645bade078d7bc2316fe26a3",
      "networkId": 0,
      "chainId": 0
    }
  ]
}