{
  "hash": "0x241c645eb46250b8c614b774276a9a505d186f9696d8834b7be24dc1fd1d2e05",
  "parentHash": "0xbbe811a51837b9431d17df8f4b35e8c0a42fed5e32f537e4ad4b53a2cd362c85",
  "number": 72903,
  "timestamp": 1439360098,
  "nonce": "0x7ee33a576d4367d2",
  "difficulty": 2194994089369,
  "gasLimit": {
    "_hex": "0x2fefd8"
  },
  "gasUsed": {
    "_hex": "0x15f90"
  },
  "miner": "0xdd2F1e6e498202e86D8f5442Af596580A4f03c2C",
  "extraData": "0x476574682f76312e302e312d38326566323666362f6c696e75782f676f312e34",
  "transactions": [
    {
      "hash": "0x2a3ea183b3910bd6f2884d45b1bf9b4812f5826c1926b677ac59a34cd5323459",
      "blockHash": "0x241c645eb46250b8c614b774276a9a505d186f9696d8834b7be24dc1fd1d2e05",
      "blockNumber": 72903,
      "transactionIndex": 0,
      "confirmations": null,
      "from": "0x326Be8F71bFb0379f989aAB1CC1fE37f0a771f60",
      "gasPrice": {
        "_hex": "0x108a7dd96d7"
      },
      "gasLimit": {
        "_hex": "0x15f90"
      },
      "to": "0x070F98b1eC27942F613A73d9e22d0ba60E211668",
      "value": {
        "_hex": "0x3e8"
      },
      "nonce": 19,
      "data": "0x8d21618600000000000000000000000000000000000000000000000000000000000000806361740000000000000000000000000000000000000000000000000000000000",
      "r": "0x138c6e41dfb71b4c571731a0ff29430c30ccb823cb2121f669c58a617e3cc4cd",
      "s": "0x0cde228bdc401e629228f29c8b1687f818e8900898f580cb75855d1135b0e0fb",
      "v": 28,
      "creates": null,
      "raw": "0xf8ad13860108a7dd96d783015f9094070f98b1ec27942f613a73d9e22d0ba60e2116688203e8b8448d216186000000000000000000000000000000000000000000000000000000000000008063617400000000000000000000000000000000000000000000000000000000001ca0138c6e41dfb71b4c571731a0ff29430c30ccb823cb2121f669c58a617e3cc4cda00cde228bdc401e629228f29c8b1687f818e8900898f580cb75855d1135b0e0fb",
      "networkId": 0,
      "chainId": 0
    }
  ]
}