{
  "hash": "0xfdd1af2da36a62eaa8da7d58f5f53bee05341f5a321d46a182778dfb0ab44e20",
  "parentHash": "0xa1c414522822a9cf5f03b43222198789cf431c631e6b3c9c613d20e158d3e9a9",
  "number": 81021,
  "timestamp": 1439494754,
  "nonce": "0x0f46b6388d166892",
  "difficulty": 2439167843804,
  "gasLimit": {
    "_hex": "0x2fefd5"
  },
  "gasUsed": {
    "_hex": "0x14820"
  },
  "miner": "0xe6A7a1d47ff21B6321162AEA7C6CB457D5476Bca",
  "extraData": "0x476574682f76312e302e312d38326566323666362f6c696e75782f676f312e34",
  "transactions": [
    {
      "hash": "0x2b440213c9958830d73101725dc0ad9bb5cebae6836d4c86d460c2345b177cf4",
      "blockHash": "0xfdd1af2da36a62eaa8da7d58f5f53bee05341f5a321d46a182778dfb0ab44e20",
      "blockNumber": 81021,
      "transactionIndex": 0,
      "confirmations": null,
      "from": "0xEC18e5d71227112E9372b53fF156E73F6584c067",
      "gasPrice": {
        "_hex": "0xded1af684"
      },
      "gasLimit": {
        "_hex": "0x5208"
      },
      "to": "0x32Be343B94f860124dC4fEe278FDCBD38C102D88",
      "value": {
        "_hex": "0x3b4101507c0b380000"
      },
      "nonce": 0,
      "data": "0x",
      "r": "0x282e4f2dc88c407758c546dac97150ee0bbe2bb15e3ed15de3b01097baa64811",
      "s": "0x7bd3758f4102d57636c5fb28c26cb1da659f8a3785663f5de1412c5c0fbe0c05",
      "v": 27,
      "creates": null,
      "raw": "0xf86d80850ded1af6848252089432be343b94f860124dc4fee278fdcbd38c102d88893b4101507c0b380000801ba0282e4f2dc88c407758c546dac97150ee0bbe2bb15e3ed15de3b01097baa64811a07bd3758f4102d57636c5fb28c26cb1da659f8a3785663f5de1412c5c0fbe0c05",
      "networkId": 0,
      "chainId": 0
    },
    {
      "hash": "0x4caede5517b8d34f24c654daf3e354533f368f9ff4aa85a63040a662e2c1c33a",
      "blockHash": "0xfdd1af2da36a62eaa8da7d58f5f53bee05341f5a321d46a182778dfb0ab44e20",
      "blockNumber": 81021,
      "transactionIndex": 1,
      "confirmations": null,
      "from": "0x6De181Fc4C140FA31F196e5393516c49EEeBdAd3",
      "gasPrice": {
        "_hex": "0xded1af684"
      },
      "gasLimit": {
        "_hex": "0x5208"
      },
      "to": "0x32Be343B94f860124dC4fEe278FDCBD38C102D88",
      "value": {
        "_hex": "0xd0263e258cbe2800"
      },
      "nonce": 8,
      "data": "0x",
      "r": "0x3766551c91cb641a64efd60148f28c2f1582041aea7d180c35efb9ed86304f04",
      "s": "0x66fd6d39dcae77e3a217c914f12397fca35c207575460c0e6079c8003809a22e",
      "v": 28,
      "creates": null,
      "raw": "0xf86c08850ded1af6848252089432be343b94f860124dc4fee278fdcbd38c102d8888d0263e258cbe2800801ca03766551c91cb641a64efd60148f28c2f1582041aea7d180c35efb9ed86304f04a066fd6d39dcae77e3a217c914f12397fca35c207575460c0e6079c8003809a22e",
      "networkId": 0,
      "chainId": 0
    },
    {
      "hash": "0xf6865612624662cd81e31b3ff4225c02fa3d8ad6baf8388145ef9d87d786b1b4",
      "blockHash": "0xfdd1af2da36a62eaa8da7d58f5f53bee05341f5a321d46a182778dfb0ab44e20",
      "blockNumber": 81021,
      "transactionIndex": 2,
      "confirmations": null,
      "from": "0x2470E945B04963A88Ee3C9Ee17dFFb7E19D84808",
      "gasPrice": {
        "_hex": "0xdcafcbd78"
      },
      "gasLimit": {
        "_hex": "0x5208"
      },
      "to": "0x32Be343B94f860124dC4fEe278FDCBD38C102D88",
      "value": {
        "_hex": "0x3635c537649c820000"
      },
      "nonce": 0,
      "data": "0x",
      "r": "0x7af71aa189bb4960d52e12d8e67c396fad28ad8342bc1e90ddf61a1a35349d83",
      "s": "0x08953012ca3b7e7501ed095df0113a32684cc661deecfe0170815e5de2e6273c",
      "v": 27,
      "creates": null,
      "raw": "0xf86d80850dcafcbd788252089432be343b94f860124dc4fee278fdcbd38c102d88893635c537649c820000801ba07af71aa189bb4960d52e12d8e67c396fad28ad8342bc1e90ddf61a1a35349d83a008953012ca3b7e7501ed095df0113a32684cc661deecfe0170815e5de2e6273c",
      "networkId": 0,
      "chainId": 0
    },
    {
      "hash": "0xcd5b8884914741116ddb4d3b326e25fe5ee6543db7ef930f98da29d8a30e3787",
      "blockHash": "0xfdd1af2da36a62eaa8da7d58f5f53bee05341f5a321d46a182778dfb0ab44e20",
      "blockNumber": 81021,
      "transactionIndex": 3,
      "confirmations": null,
      "from": "0x120A270bbC009644e35F0bB6ab13f95b8199c4ad",
      "gasPrice": {
        "_hex": "0xda3ab248d"
      },
      "gasLimit": {
        "_hex": "0x3d090"
      },
      "to": "0x49570575511aCaE737b82793B3E29008B3524D2a",
      "value": {
        "_hex": "0x92f53f932250000"
      },
      "nonce": 361,
      "data": "0x",
      "r": "0x4ac210c4bd00395dbf48895705a66623cfdcfbdb4e5d1b08e4907c659543bd16",
      "s": "0x309789548e91db99da46171da4a89e9e406468ac156e3f0607076a085f3f96c7",
      "v": 28,
      "creates": null,
      "raw": "0xf86f820169850da3ab248d8303d0909449570575511acae737b82793b3e29008b3524d2a88092f53f932250000801ca04ac210c4bd00395dbf48895705a66623cfdcfbdb4e5d1b08e4907c659543bd16a0309789548e91db99da46171da4a89e9e406468ac156e3f0607076a085f3f96c7",
      "networkId": 0,
      "chainId": 0
    }
  ]
}