{
  "hash": "0x2f2ff21c7261f7a124331fe0b7cf12d896ac2ae088be1dda5ee8f5fcaf19077c",
  "parentHash": "0x95d694809e3b017fe3bbd959e36081a1cf53d639f619b22af8da9acc3a7a4f0c",
  "number": 85995,
  "timestamp": 1439571961,
  "nonce": "0x21251ef8947f18d8",
  "difficulty": 2794862044000,
  "gasLimit": {
    "_hex": "0x2fefd8"
  },
  "gasUsed": {
    "_hex": "0x546c"
  },
  "miner": "0xe6A7a1d47ff21B6321162AEA7C6CB457D5476Bca",
  "extraData": "0x476574682f76312e302e312d38326566323666362f6c696e75782f676f312e34",
  "transactions": [
    {
      "hash": "0x8834f9670a2b9f558d66b3d340755f4962d4b07d7a71e1bdf64df4e8f006a1b4",
      "blockHash": "0x2f2ff21c7261f7a124331fe0b7cf12d896ac2ae088be1dda5ee8f5fcaf19077c",
      "blockNumber": 85995,
      "transactionIndex": 0,
      "confirmations": null,
      "from": "0xc41461a3cFBD32c9865555A4813137C076312360",
      "gasPrice": {
        "_hex": "0x110c8f7d8de"
      },
      "gasLimit": {
        "_hex": "0xc350"
      },
      "to": "0x2910543Af39abA0Cd09dBb2D50200b3E800A63D2",
      "value": {
        "_hex": "0x362ed9526c0aee0000"
      },
      "nonce": 0,
      "data": "0x454e33575545465852",
      "r": "0x9d0d8389cac889a6a00d494218a1a717a14ea22da8e6a0a3b0be039c13da500c",
      "s": "0x8fad10cbc815c3378b036ba263a22d05c5d2303fb3f77c77b13f2c952b4888d7",
      "v": 27,
      "creates": null,
      "raw": "0xf87780860110c8f7d8de82c350942910543af39aba0cd09dbb2d50200b3e800a63d289362ed9526c0aee000089454e335755454658521ba09d0d8389cac889a6a00d494218a1a717a14ea22da8e6a0a3b0be039c13da500ca08fad10cbc815c3378b036ba263a22d05c5d2303fb3f77c77b13f2c952b4888d7",
      "networkId": 0,
      "chainId": 0
    }
  ]
}