{
  "hash": "0x33cafb9707eeafbc3d609731aab1184cab97e436d0c6e843032fe42cd4e95a11",
  "parentHash": "0xbd07c58fd6a56618cadcefd5ac12adf03cea7c96d37dc23e7af77bc131119923",
  "number": 93682,
  "timestamp": 1439695809,
  "nonce": "0xfa611de237d5fee2",
  "difficulty": 3429562862951,
  "gasLimit": {
    "_hex": "0x2fefd8"
  },
  "gasUsed": {
    "_hex": "0x5208"
  },
  "miner": "0x7eD2359220bC2A40b70C40350EcAb732B39c0eF4",
  "extraData": "0x",
  "transactions": [
    {
      "hash": "0x29bd3cfca5f86f6e68c4099ffc9722b2efdf5bea9380d6793a01ea8cbcd482e0",
      "blockHash": "0x33cafb9707eeafbc3d609731aab1184cab97e436d0c6e843032fe42cd4e95a11",
      "blockNumber": 93682,
      "transactionIndex": 0,
      "confirmations": null,
      "from": "0x289B9bA6dC9c12D3130F1115180397C20cCBF220",
      "gasPrice": {
        "_hex": "0xba43b7400"
      },
      "gasLimit": {
        "_hex": "0x5208"
      },
      "to": "0xC47Aaa860008be6f65B58c6C6E02a84e666EfE31",
      "value": {
        "_hex": "0xf8b9b45a566ae2e910"
      },
      "nonce": 5,
      "data": "0x",
      "r": "0x433db7440c8b30d76959dc735653df600c1415d2bc22d0a0a2bb2f7eaf74bc9c",
      "s": "0x45877d86b770b042cf130a2c3dfae1d5d663e2ed6ad135543a5e1f8e50dcb0bc",
      "v": 27,
      "creates": null,
      "raw": "0xf86d05850ba43b740082520894c47aaa860008be6f65b58c6c6e02a84e666efe3189f8b9b45a566ae2e910801ba0433db7440c8b30d76959dc735653df600c1415d2bc22d0a0a2bb2f7eaf74bc9ca045877d86b770b042cf130a2c3dfae1d5d663e2ed6ad135543a5e1f8e50dcb0bc",
      "networkId": 0,
      "chainId": 0
    }
  ]
}