{
  "hash": "0x975e15cd1a85f1a01e2b43524fbde17993619961fdf9c056daf933136c854107",
  "parentHash": "0xf8dbbe1250a082411a38ba0aa4d086d4a7d47da5e2fc0eab54c950f2c37f12c1",
  "number": 54415,
  "timestamp": 1439053863,
  "nonce": "0x2edb8876ec696b79",
  "difficulty": 1611007618521,
  "gasLimit": {
    "_hex": "0x2fefd8"
  },
  "gasUsed": {
    "_hex": "0x5208"
  },
  "miner": "0x47ff6576639c2e94762eA5443978D7681C0E78DC",
  "extraData": "0x476574682f76312e302e312f6c696e75782f676f312e342e32",
  "transactions": [
    {
      "hash": "0x0a88bc78a83d141ba44733dcf5c3944c9df14bda1b66df9f5e36f0ef3040d192",
      "blockHash": "0x975e15cd1a85f1a01e2b43524fbde17993619961fdf9c056daf933136c854107",
      "blockNumber": 54415,
      "transactionIndex": 0,
      "confirmations": null,
      "from": "0xf85787F98B727466F7A58c9424AbD404baBE6ede",
      "gasPrice": {
        "_hex": "0xd121fa1ff"
      },
      "gasLimit": {
        "_hex": "0x5208"
      },
      "to": "0x32Be343B94f860124dC4fEe278FDCBD38C102D88",
      "value": {
        "_hex": "0x119c8b9839a70b00000"
      },
      "nonce": 1,
      "data": "0x",
      "r": "0xc5c003c8d26726065d2b874b8ac8bc5eda7c61ea7b6c606af1034612e205550f",
      "s": "0x0777a1b73dcfb4dab28d14f83889c887fbe7c7dd3e96f1c2db7ed322ec73aa65",
      "v": 28,
      "creates": null,
      "raw": "0xf86e01850d121fa1ff8252089432be343b94f860124dc4fee278fdcbd38c102d888a0119c8b9839a70b00000801ca0c5c003c8d26726065d2b874b8ac8bc5eda7c61ea7b6c606af1034612e205550fa00777a1b73dcfb4dab28d14f83889c887fbe7c7dd3e96f1c2db7ed322ec73aa65",
      "networkId": 0,
      "chainId": 0
    }
  ]
}