{
  "hash": "0xdfda0ae07ea28877ddc53efe82aa185600c06dcb31325935c5a4fcf80e638548",
  "parentHash": "0x9b87f207dfc498bd4b63c4e60ecb279c4d4e1236b682bfc9892fdce8d790c3e8",
  "number": 85502,
  "timestamp": 1439564691,
  "nonce": "0xeff1602a5392b95b",
  "difficulty": 2758419643065,
  "gasLimit": {
    "_hex": "0x2fefd8"
  },
  "gasUsed": {
    "_hex": "0x546c"
  },
  "miner": "0xf927a40C8B7F6E07c5af7FA2155B4864a4112B13",
  "extraData": "0x",
  "transactions": [
    {
      "hash": "0xceb4ec370cfd8cb2d4ccde68a497a355a5d9d0e70a970c6279da0d429c0ab6ec",
      "blockHash": "0xdfda0ae07ea28877ddc53efe82aa185600c06dcb31325935c5a4fcf80e638548",
      "blockNumber": 85502,
      "transactionIndex": 0,
      "confirmations": null,
      "from": "0x39D6caCA22Bccd6A72f87Ee7d6B59e0bde21d719",
      "gasPrice": {
        "_hex": "0x110c8f7d8de"
      },
      "gasLimit": {
        "_hex": "0xc350"
      },
      "to": "0x2910543Af39abA0Cd09dBb2D50200b3E800A63D2",
      "value": {
        "_hex": "0x8ac7230489e80000"
      },
      "nonce": 0,
      "data": "0x454e314e34374d3930",
      "r": "0xd3211b4d6be24fa863cadbb7a3f6dfd500beea35cbcd3303c8483701ce86e932",
      "s": "0x1263caa8ffb1b82b72617a7e536bb664b91c61b264dfd397d5c8e435e1020f04",
      "v": 28,
      "creates": null,
      "raw": "0xf87680860110c8f7d8de82c350942910543af39aba0cd09dbb2d50200b3e800a63d2888ac7230489e8000089454e314e34374d39301ca0d3211b4d6be24fa863cadbb7a3f6dfd500beea35cbcd3303c8483701ce86e932a01263caa8ffb1b82b72617a7e536bb664b91c61b264dfd397d5c8e435e1020f04",
      "networkId": 0,
      "chainId": 0
    }
  ]
}