{
  "hash": "0x29501ca003eabf71593031ad7b876b0770bd272736baa3103c99ae1a6acf87cb",
  "parentHash": "0x4c6041dd3ba368effe4f6bb06097d4f896be68792edcf5313be90d89318bdd2e",
  "number": 85532,
  "timestamp": 1439565082,
  "nonce": "0x3ab09af37d6fd82b",
  "difficulty": 2758409778203,
  "gasLimit": {
    "_hex": "0x2fefd8"
  },
  "gasUsed": {
    "_hex": "0x5208"
  },
  "miner": "0xf927a40C8B7F6E07c5af7FA2155B4864a4112B13",
  "extraData": "0x",
  "transactions": [
    {
      "hash": "0xb5c8f2ca1298b9ff4b3f5672af2d59cd3078b926d92c0116292a9289c319a4e3",
      "blockHash": "0x29501ca003eabf71593031ad7b876b0770bd272736baa3103c99ae1a6acf87cb",
      "blockNumber": 85532,
      "transactionIndex": 0,
      "confirmations": null,
      "from": "0xa6BDc31c431B8F97848c9D60cbbe9660dc450eB7",
      "gasPrice": {
        "_hex": "0xda5ebd36a"
      },
      "gasLimit": {
        "_hex": "0x5208"
      },
      "to": "0x32Be343B94f860124dC4fEe278FDCBD38C102D88",
      "value": {
        "_hex": "0x455f31f06753d800"
      },
      "nonce": 71,
      "data": "0x",
      "r": "0x4a957d18f0b8a77f28d99162908d2d324b611a435ce681d03222e06675fa1a02",
      "s": "0x01bdbed90099ab5e39a55e70d4c309aa96af3538ffd7f2b6b51d5ffaf3ef1acc",
      "v": 28,
      "creates": null,
      "raw": "0xf86c47850da5ebd36a8252089432be343b94f860124dc4fee278fdcbd38c102d8888455f31f06753d800801ca04a957d18f0b8a77f28d99162908d2d324b611a435ce681d03222e06675fa1a02a001bdbed90099ab5e39a55e70d4c309aa96af3538ffd7f2b6b51d5ffaf3ef1acc",
      "networkId": 0,
      "chainId": 0
    }
  ]
}