{
  "hash": "0x960b496bd0512e8cc96eac50feb2ffd52c5d3a82689928702edfe998e7a7574f",
  "parentHash": "0x46d853c155584d023dd972aa23dec65931068c624a5c269a203d9b912dbfec4c",
  "number": 91482,
  "timestamp": 1439656302,
  "nonce": "0x71a8ef5307269493",
  "difficulty": 3487888825572,
  "gasLimit": {
    "_hex": "0x2fefd8"
  },
  "gasUsed": {
    "_hex": "0xf87c"
  },
  "miner": "0x790b8a3cE86E707ED0eD32bF89B3269692a23CC1",
  "extraData": "0xd783010001844765746887676f312e342e32856c696e7578",
  "transactions": [
    {
      "hash": "0x7e8f2afbd305b3a04c61bfb9b1674c6e9a1a34015773d0c19576e05168fbdb1e",
      "blockHash": "0x960b496bd0512e8cc96eac50feb2ffd52c5d3a82689928702edfe998e7a7574f",
      "blockNumber": 91482,
      "transactionIndex": 0,
      "confirmations": null,
      "from": "0x8197948121732e63D9C148194EcAD46E30B749c8",
      "gasPrice": {
        "_hex": "0x110c8f7d8de"
      },
      "gasLimit": {
        "_hex": "0xc350"
      },
      "to": "0x2910543Af39abA0Cd09dBb2D50200b3E800A63D2",
      "value": {
        "_hex": "0x0"
      },
      "nonce": 0,
      "data": "0x454e31323355355638",
      "r": "0xcaa0d54ece328956b9413fbc165e30e870f78eb39ffffaef0ce8f595eb466ea7",
      "s": "0x1825b7c38c3d0b9728b976961d510616cb6a5ba23957d45ed65374615821e81d",
      "v": 27,
      "creates": null,
      "raw": "0xf86e80860110c8f7d8de82c350942910543af39aba0cd09dbb2d50200b3e800a63d28089454e313233553556381ba0caa0d54ece328956b9413fbc165e30e870f78eb39ffffaef0ce8f595eb466ea7a01825b7c38c3d0b9728b976961d510616cb6a5ba23957d45ed65374615821e81d",
      "networkId": 0,
      "chainId": 0
    },
    {
      "hash": "0x07bc86eb417d26cc75b6acfc7950730bfabad946dea053e5d658b95a0bf0011c",
      "blockHash": "0x960b496bd0512e8cc96eac50feb2ffd52c5d3a82689928702edfe998e7a7574f",
      "blockNumber": 91482,
      "transactionIndex": 1,
      "confirmations": null,
      "from": "0x53c451B5977b29118899c6B6613Cf4dEC25E6Cb0",
      "gasPrice": {
        "_hex": "0x45d964b800"
      },
      "gasLimit": {
        "_hex": "0x5208"
      },
      "to": "0xeBE0CB07a7Cf347E83e7BC0d660c730731f64bd2",
      "value": {
        "_hex": "0x2274a0f79e49041c00"
      },
      "nonce": 2,
      "data": "0x",
      "r": "0x2da9ddc32e7ed96d1e518d54e2b84e51ddb5837365040c42cf88aab373e9264f",
      "s": "0x10d1568237f148e25fca567c94f52f9f434a705cc72c21c7674124b4a63cdd21",
      "v": 27,
      "creates": null,
      "raw": "0xf86d028545d964b80082520894ebe0cb07a7cf347e83e7bc0d660c730731f64bd2892274a0f79e49041c00801ba02da9ddc32e7ed96d1e518d54e2b84e51ddb5837365040c42cf88aab373e9264fa010d1568237f148e25fca567c94f52f9f434a705cc72c21c7674124b4a63cdd21",
      "networkId": 0,
      "chainId": 0
    },
    {
      "hash": "0x5b3fd94ff9c6025df2428d33732eb1ce3eda6319c84615fb5c75a37ff480ee62",
      "blockHash": "0x960b496bd0512e8cc96eac50feb2ffd52c5d3a82689928702edfe998e7a7574f",
      "blockNumber": 91482,
      "transactionIndex": 2,
      "confirmations": null,
      "from": "0xa6BDc31c431B8F97848c9D60cbbe9660dc450eB7",
      "gasPrice": {
        "_hex": "0xd8fc01495"
      },
      "gasLimit": {
        "_hex": "0x5208"
      },
      "to": "0x32Be343B94f860124dC4fEe278FDCBD38C102D88",
      "value": {
        "_hex": "0x455f2d7934858c00"
      },
      "nonce": 94,
      "data": "0x",
      "r": "0x0762383e011c1bd3b30447e5a72073a96939b86b36d381d0ec98fdd3d970552f",
      "s": "0x4fa5f23ebd61bae75c362da92145a0af90bfeada4a0464bcbc0b19f200d0d3c3",
      "v": 27,
      "creates": null,
      "raw": "0xf86c5e850d8fc014958252089432be343b94f860124dc4fee278fdcbd38c102d8888455f2d7934858c00801ba00762383e011c1bd3b30447e5a72073a96939b86b36d381d0ec98fdd3d970552fa04fa5f23ebd61bae75c362da92145a0af90bfeada4a0464bcbc0b19f200d0d3c3",
      "networkId": 0,
      "chainId": 0
    }
  ]
}