{
  "hash": "0x2878c9ebd2e0974d615f509151bdb14639850cdc641e665aaa9d17e802130338",
  "parentHash": "0xdcd3d4eaf78189a26fedb2cdbc62f7dd2bceee0aad6ac9a566b488f07d0e14e1",
  "number": 90078,
  "timestamp": 1439633908,
  "nonce": "0x454cebb78cc568d1",
  "difficulty": 3338490257292,
  "gasLimit": {
    "_hex": "0x2fefd8"
  },
  "gasUsed": {
    "_hex": "0x5208"
  },
  "miner": "0xcf00A85f3826941e7A25BFcF9Aac575d40410852",
  "extraData": "0x476574682f76312e302e312f77696e646f77732f676f312e342e32",
  "transactions": [
    {
      "hash": "0xdf809acd7b6d0df821edcb2e85888da521e1f627c6ce94432ce751cade6b91c9",
      "blockHash": "0x2878c9ebd2e0974d615f509151bdb14639850cdc641e665aaa9d17e802130338",
      "blockNumber": 90078,
      "transactionIndex": 0,
      "confirmations": null,
      "from": "0xc3DBDB3Efa722db2a3F6041b0ca0042782296ba9",
      "gasPrice": {
        "_hex": "0xd96112f6d"
      },
      "gasLimit": {
        "_hex": "0x15f90"
      },
      "to": "0x92857A8BC0A6F66180324f49541C695A3a0Ff944",
      "value": {
        "_hex": "0x3afb087b876900000"
      },
      "nonce": 4,
      "data": "0x",
      "r": "0x4845039740f8df349fb44636cd190ceaab95a62e14a7ce921a4b01a3482ea9b0",
      "s": "0x1ba2c7a72d7904ffe79c2dfb5fef502fc4bf7a825e52b4cb91cb8e090a528f73",
      "v": 28,
      "creates": null,
      "raw": "0xf86e04850d96112f6d83015f909492857a8bc0a6f66180324f49541c695a3a0ff9448903afb087b876900000801ca04845039740f8df349fb44636cd190ceaab95a62e14a7ce921a4b01a3482ea9b0a01ba2c7a72d7904ffe79c2dfb5fef502fc4bf7a825e52b4cb91cb8e090a528f73",
      "networkId": 0,
      "chainId": 0
    }
  ]
}