{
  "hash": "0xcefb4ba622ef2ba79fd29bb762053e788fd216a60a7ac4e8f61fefb1fc7763fe",
  "parentHash": "0x346004f9b089b62489961ddb8772a267e7d9600c117b6b8900524def53e0e29e",
  "number": 68956,
  "timestamp": 1439296158,
  "nonce": "0xf6d803da3a2d5d34",
  "difficulty": 2035957599629,
  "gasLimit": {
    "_hex": "0x2fefd8"
  },
  "gasUsed": {
    "_hex": "0x6b1cc"
  },
  "miner": "0xC5624D986419AeBa6B6A7Ce5BAFd9883f75d8bc8",
  "extraData": "0x",
  "transactions": [
    {
      "hash": "0xdc580242ce16fedddcf1b99a1f5a804af75b523f5879677d00d525839fda757c",
      "blockHash": "0xcefb4ba622ef2ba79fd29bb762053e788fd216a60a7ac4e8f61fefb1fc7763fe",
      "blockNumber": 68956,
      "transactionIndex": 0,
      "confirmations": null,
      "from": "0xDf89126fff309F08ac527f1AeBe3d5E5471c7A0f",
      "gasPrice": {
        "_hex": "0xba43b7400"
      },
      "gasLimit": {
        "_hex": "0x15f90"
      },
      "to": "0x793AE8C1b1a160BFc07BFB0d04F85eab1A71F4f2",
      "value": {
        "_hex": "0x0"
      },
      "nonce": 0,
      "data": "0x3ba15036",
      "r": "0xe41fcfdf2de75bf447f5421fe7528cbf18af14c391141b6b174b4fd2ab936ce1",
      "s": "0x61d3f9c7accfba32d3044aa90b499b098f0b4a384582adc39536f28f75dfd529",
      "v": 27,
      "creates": null,
      "raw": "0xf86980850ba43b740083015f9094793ae8c1b1a160bfc07bfb0d04f85eab1a71f4f280843ba150361ba0e41fcfdf2de75bf447f5421fe7528cbf18af14c391141b6b174b4fd2ab936ce1a061d3f9c7accfba32d3044aa90b499b098f0b4a384582adc39536f28f75dfd529",
      "networkId": 0,
      "chainId": 0
    },
    {
      "hash": "0x1174ae6310d6393ce955ab51b8e000301827eff8eb70087a71e85d95c0316fdc",
      "blockHash": "0xcefb4ba622ef2ba79fd29bb762053e788fd216a60a7ac4e8f61fefb1fc7763fe",
      "blockNumber": 68956,
      "transactionIndex": 1,
      "confirmations": null,
      "from": "0x61B34A0F8F3A467ABCA5e79c9dA49effbE943B89",
      "gasPrice": {
        "_hex": "0xba43b7400"
      },
      "gasLimit": {
        "_hex": "0x15f90"
      },
      "to": "0x793AE8C1b1a160BFc07BFB0d04F85eab1A71F4f2",
      "value": {
        "_hex": "0x0"
      },
      "nonce": 0,
      "data": "0x3ba15036",
      "r": "0x8ec20210d3c2f5476cc1f3f45d051114ab305f58b9032e57c1fefe5d7a721aea",
      "s": "0x33ef49e01891af33db81b598c1848ea9c729207fee396a72752eed668212f715",
      "v": 28,
      "creates": null,
      "raw": "0xf86980850ba43b740083015f9094793ae8c1b1a160bfc07bfb0d04f85eab1a71f4f280843ba150361ca08ec20210d3c2f5476cc1f3f45d051114ab305f58b9032e57c1fefe5d7a721aeaa033ef49e01891af33db81b598c1848ea9c729207fee396a72752eed668212f715",
      "networkId": 0,
      "chainId": 0
    },
    {
      "hash": "0x5e65930a9577f5ed5b95c0d77d72a7ea2d9786cde86132836799cd9eed51153f",
      "blockHash": "0xcefb4ba622ef2ba79fd29bb762053e788fd216a60a7ac4e8f61fefb1fc7763fe",
      "blockNumber": 68956,
      "transactionIndex": 2,
      "confirmations": null,
      "from": "0x1eF803FCd8730CE3D437d15DeF6d9AD590840E12",
      "gasPrice": {
        "_hex": "0xba43b7400"
      },
      "gasLimit": {
        "_hex": "0x15f90"
      },
      "to": "0x793AE8C1b1a160BFc07BFB0d04F85eab1A71F4f2",
      "value": {
        "_hex": "0x0"
      },
      "nonce": 0,
      "data": "0x3ba15036",
      "r": "0xa2548bcd8ec6a5ce19351339a7228843e7159dcd03123f1d9da7e01aae1ecd2c",
      "s": "0x762ec74d2cdacd36eb643977b8f214421428fdd116cc37ba4ca4412f61dc8b27",
      "v": 27,
      "creates": null,
      "raw": "0xf86980850ba43b740083015f9094793ae8c1b1a160bfc07bfb0d04f85eab1a71f4f280843ba150361ba0a2548bcd8ec6a5ce19351339a7228843e7159dcd03123f1d9da7e01aae1ecd2ca0762ec74d2cdacd36eb643977b8f214421428fdd116cc37ba4ca4412f61dc8b27",
      "networkId": 0,
      "chainId": 0
    },
    {
      "hash": "0x38b42578997193fef4c17d344014e2d1003ef0b8a14d724d2e637b985c429f8b",
      "blockHash": "0xcefb4ba622ef2ba79fd29bb762053e788fd216a60a7ac4e8f61fefb1fc7763fe",
      "blockNumber": 68956,
      "transactionIndex": 3,
      "confirmations": null,
      "from": "0xa2b27B7D3f23DC4177A4Ad16aF288ac202781e9E",
      "gasPrice": {
        "_hex": "0xba43b7400"
      },
      "gasLimit": {
        "_hex": "0x15f90"
      },
      "to": "0x793AE8C1b1a160BFc07BFB0d04F85eab1A71F4f2",
      "value": {
        "_hex": "0x0"
      },
      "nonce": 0,
      "data": "0x3ba15036",
      "r": "0x25549ad796cf6488b082c6895771ad4e2e2f86db27a30964cf6350ea9b78faf2",
      "s": "0x73a105545dfc2b28a2dc6f5255f2d4c8deda8908f0a5e40b3401b1acc29c0656",
      "v": 27,
      "creates": null,
      "raw": "0xf86980850ba43b740083015f9094793ae8c1b1a160bfc07bfb0d04f85eab1a71f4f280843ba150361ba025549ad796cf6488b082c6895771ad4e2e2f86db27a30964cf6350ea9b78faf2a073a105545dfc2b28a2dc6f5255f2d4c8deda8908f0a5e40b3401b1acc29c0656",
      "networkId": 0,
      "chainId": 0
    },
    {
      "hash": "0xa50af329ba505e8c4ffc0987a8d1295ddcd8a4b7bbf86abb8fb3d124e5d1eb9f",
      "blockHash": "0xcefb4ba622ef2ba79fd29bb762053e788fd216a60a7ac4e8f61fefb1fc7763fe",
      "blockNumber": 68956,
      "transactionIndex": 4,
      "confirmations": null,
      "from": "0xA7F4C0AfdaecA66cc37B19272e43B99D98BdD29B",
      "gasPrice": {
        "_hex": "0xba43b7400"
      },
      "gasLimit": {
        "_hex": "0x15f90"
      },
      "to": "0x793AE8C1b1a160BFc07BFB0d04F85eab1A71F4f2",
      "value": {
        "_hex": "0x0"
      },
      "nonce": 0,
      "data": "0x3ba15036",
      "r": "0xdec184597ac10f4763664251cba57cb0bede48e76c8bbaff7ac31f1d1c7abd40",
      "s": "0x325944cc6b2cad79b3c389a53b869341e5700c797aea20b5eb2a048b9219d467",
      "v": 28,
      "creates": null,
      "raw": "0xf86980850ba43b740083015f9094793ae8c1b1a160bfc07bfb0d04f85eab1a71f4f280843ba150361ca0dec184597ac10f4763664251cba57cb0bede48e76c8bbaff7ac31f1d1c7abd40a0325944cc6b2cad79b3c389a53b869341e5700c797aea20b5eb2a048b9219d467",
      "networkId": 0,
      "chainId": 0
    },
    {
      "hash": "0x52e6060c68a7335a3f3146b6d4901f29e3cac1858c4cf11a9fd60235577bd5fe",
      "blockHash": "0xcefb4ba622ef2ba79fd29bb762053e788fd216a60a7ac4e8f61fefb1fc7763fe",
      "blockNumber": 68956,
      "transactionIndex": 5,
      "confirmations": null,
      "from": "0xcA19F23ed63fCAd809B75F6Bd896f73f417da33b",
      "gasPrice": {
        "_hex": "0xba43b7400"
      },
      "gasLimit": {
        "_hex": "0x15f90"
      },
      "to": "0x793AE8C1b1a160BFc07BFB0d04F85eab1A71F4f2",
      "value": {
        "_hex": "0x0"
      },
      "nonce": 0,
      "data": "0x3ba15036",
      "r": "0xe65142ed643a2ba2e39e7ac32e8ef362cd99b813ac3f0a18245f21fef001f9d6",
      "s": "0x4329929330111193c63cf0bc73b64ed81bb4c2774e15ccd6f228a4c0a1ccc466",
      "v": 28,
      "creates": null,
      "raw": "0xf86980850ba43b740083015f9094793ae8c1b1a160bfc07bfb0d04f85eab1a71f4f280843ba150361ca0e65142ed643a2ba2e39e7ac32e8ef362cd99b813ac3f0a18245f21fef001f9d6a04329929330111193c63cf0bc73b64ed81bb4c2774e15ccd6f228a4c0a1ccc466",
      "networkId": 0,
      "chainId": 0
    },
    {
      "hash": "0xf45cf14f7b2ae102c7ce6dd5cede210663bbab6754a40963df0b1af71f6aa7f1",
      "blockHash": "0xcefb4ba622ef2ba79fd29bb762053e788fd216a60a7ac4e8f61fefb1fc7763fe",
      "blockNumber": 68956,
      "transactionIndex": 6,
      "confirmations": null,
      "from": "0x69d65D8477260d539a4f5CdeCc7cFed02927CF89",
      "gasPrice": {
        "_hex": "0xba43b7400"
      },
      "gasLimit": {
        "_hex": "0x15f90"
      },
      "to": "0x793AE8C1b1a160BFc07BFB0d04F85eab1A71F4f2",
      "value": {
        "_hex": "0x0"
      },
      "nonce": 0,
      "data": "0x3ba15036",
      "r": "0xc1f5041732668311fe36369d749ea474c56a6243abe5f7a8f6906decb7daf234",
      "s": "0x575616c52f8fee6c16278591684628d84066a9482c9f347f44e2f46d59286c5f",
      "v": 28,
      "creates": null,
      "raw": "0xf86980850ba43b740083015f9094793ae8c1b1a160bfc07bfb0d04f85eab1a71f4f280843ba150361ca0c1f5041732668311fe36369d749ea474c56a6243abe5f7a8f6906decb7daf234a0575616c52f8fee6c16278591684628d84066a9482c9f347f44e2f46d59286c5f",
      "networkId": 0,
      "chainId": 0
    },
    {
      "hash": "0xb3459968236ebfd044e19caf2eeeaa727150f2b204b399b5b1ee38b40da9903d",
      "blockHash": "0xcefb4ba622ef2ba79fd29bb762053e788fd216a60a7ac4e8f61fefb1fc7763fe",
      "blockNumber": 68956,
      "transactionIndex": 7,
      "confirmations": null,
      "from": "0xff7CDb6b68e764c2CBD95ed2a81dD04145C4F2bD",
      "gasPrice": {
        "_hex": "0xba43b7400"
      },
      "gasLimit": {
        "_hex": "0x15f90"
      },
      "to": "0x793AE8C1b1a160BFc07BFB0d04F85eab1A71F4f2",
      "value": {
        "_hex": "0x0"
      },
      "nonce": 0,
      "data": "0x3ba15036",
      "r": "0xa30257347b4d96f3cc3c2e81cb671c6c0566df391fd5c16a8c5aaae4c756aabe",
      "s": "0x3ebc6eb8dd5fae15525f720482b7fd8697b88325be409941b74d2c31151f20ee",
      "v": 27,
      "creates": null,
      "raw": "0xf86980850ba43b740083015f9094793ae8c1b1a160bfc07bfb0d04f85eab1a71f4f280843ba150361ba0a30257347b4d96f3cc3c2e81cb671c6c0566df391fd5c16a8c5aaae4c756aabea03ebc6eb8dd5fae15525f720482b7fd8697b88325be409941b74d2c31151f20ee",
      "networkId": 0,
      "chainId": 0
    },
    {
      "hash": "0x3025f8c14fcfadfd5850e324ea59ec9fb4565898649ff919695e476a502f6d41",
      "blockHash": "0xcefb4ba622ef2ba79fd29bb762053e788fd216a60a7ac4e8f61fefb1fc7763fe",
      "blockNumber": 68956,
      "transactionIndex": 8,
      "confirmations": null,
      "from": "0x437Fe3e513aa0DBff6f8C946f5B702216b1F85be",
      "gasPrice": {
        "_hex": "0xba43b7400"
      },
      "gasLimit": {
        "_hex": "0x15f90"
      },
      "to": "0x793AE8C1b1a160BFc07BFB0d04F85eab1A71F4f2",
      "value": {
        "_hex": "0x0"
      },
      "nonce": 0,
      "data": "0x3ba15036",
      "r": "0xcbe3a3e44004764e5af148c1485ed133db880fe25c54e78d52c83f6f18c94230",
      "s": "0x4b3071839f9e186b8cef636bb878fcea50709157f4e1d345e3e7815d57ceb005",
      "v": 27,
      "creates": null,
      "raw": "0xf86980850ba43b740083015f9094793ae8c1b1a160bfc07bfb0d04f85eab1a71f4f280843ba150361ba0cbe3a3e44004764e5af148c1485ed133db880fe25c54e78d52c83f6f18c94230a04b3071839f9e186b8cef636bb878fcea50709157f4e1d345e3e7815d57ceb005",
      "networkId": 0,
      "chainId": 0
    }
  ]
}