{
  "hash": "0x040c212d0f0a2a2368464e0e5148bc9fe679d9ad1cee1976b41153ded510b020",
  "parentHash": "0x5c0929727f8f826c51c8fb16bb1c4ad94258ace05763e4826878808d38d75d28",
  "number": 50816,
  "timestamp": 1438995049,
  "nonce": "0xcd992e584080cc9b",
  "difficulty": 1550712721759,
  "gasLimit": {
    "_hex": "0x7a0fe"
  },
  "gasUsed": {
    "_hex": "0xddfd"
  },
  "miner": "0xbb7B8287f3F0a933474a79eAe42CBCa977791171",
  "extraData": "0x476574682f4c5649562f76312e302e312f6c696e75782f676f312e342e32",
  "transactions": [
    {
      "hash": "0xff117d440ad7326dec5743957186336a115df1fb8f3484cb945ecf945a3d00d3",
      "blockHash": "0x040c212d0f0a2a2368464e0e5148bc9fe679d9ad1cee1976b41153ded510b020",
      "blockNumber": 50816,
      "transactionIndex": 0,
      "confirmations": null,
      "from": "0x190174d939CC332eE1Ea9351AD703ddF7364Ca68",
      "gasPrice": {
        "_hex": "0xd30ebf784"
      },
      "gasLimit": {
        "_hex": "0x30d40"
      },
      "to": "0xBAA54d6E90c3F4d7Ebec11bD180134C7eD8eBb52",
      "value": {
        "_hex": "0x16345785d8a0000"
      },
      "nonce": 0,
      "data": "0x",
      "r": "0x4899e485825325822cf22b05b007228f1f37af11ae25b57e025c0fe3a81bf5cf",
      "s": "0x1b7daa8ad29d47ddc0c425eb0739d42b8d0fbaa094cf5cfa23aab43225a03576",
      "v": 28,
      "creates": null,
      "raw": "0xf86d80850d30ebf78483030d4094baa54d6e90c3f4d7ebec11bd180134c7ed8ebb5288016345785d8a0000801ca04899e485825325822cf22b05b007228f1f37af11ae25b57e025c0fe3a81bf5cfa01b7daa8ad29d47ddc0c425eb0739d42b8d0fbaa094cf5cfa23aab43225a03576",
      "networkId": 0,
      "chainId": 0
    }
  ]
}