{
  "hash": "0x35d1e56ecac313d28c9ddf4f8c2f3c5896b5a03b88980a7736f57dcf71c4012e",
  "parentHash": "0x90d29bb57d14929ea9db15dee2eb3bb11eccbffc4561ac035218d3b2a5d20ca5",
  "number": 82031,
  "timestamp": 1439512265,
  "nonce": "0xc863a51b644e8b08",
  "difficulty": 2403408873280,
  "gasLimit": {
    "_hex": "0x2fefd8"
  },
  "gasUsed": {
    "_hex": "0x5208"
  },
  "miner": "0x8964Bb67A8103e116bF15dF338b95916CaD4a775",
  "extraData": "0x4d657a697469",
  "transactions": [
    {
      "hash": "0xef69250fe459e14058a44e1dd6153fd00b73a8a24f1cff6400519b5ecc37267c",
      "blockHash": "0x35d1e56ecac313d28c9ddf4f8c2f3c5896b5a03b88980a7736f57dcf71c4012e",
      "blockNumber": 82031,
      "transactionIndex": 0,
      "confirmations": null,
      "from": "0x32Be343B94f860124dC4fEe278FDCBD38C102D88",
      "gasPrice": {
        "_hex": "0xde1b098de"
      },
      "gasLimit": {
        "_hex": "0x5208"
      },
      "to": "0x5F28bcc5faFC8982536A9e4be559657998CdE1E3",
      "value": {
        "_hex": "0x3dfe533c6c1b92000"
      },
      "nonce": 621,
      "data": "0x",
      "r": "0x4fb9fea1fea0230f74cdb6e9a2adb028b62efa6ed5ca1ce56afb8504eb068925",
      "s": "0x5ad7f9597a1308e39518b81321a1736c43d7c227986fc3f13f2a5925c01736cd",
      "v": 27,
      "creates": null,
      "raw": "0xf86f82026d850de1b098de825208945f28bcc5fafc8982536a9e4be559657998cde1e38903dfe533c6c1b92000801ba04fb9fea1fea0230f74cdb6e9a2adb028b62efa6ed5ca1ce56afb8504eb068925a05ad7f9597a1308e39518b81321a1736c43d7c227986fc3f13f2a5925c01736cd",
      "networkId": 0,
      "chainId": 0
    }
  ]
}