{
  "hash": "0x60340c19943f3dd54c72490be41f2b95d80e4bd0fcaa98557ba76c9d102c2f36",
  "parentHash": "0x5e15433c724f7530b6ddbc57be02111ba0a29830e652630567269dcbb608e272",
  "number": 118901,
  "timestamp": 1440133319,
  "nonce": "0x2cf883fc4dec1f9d",
  "difficulty": 4396862999944,
  "gasLimit": {
    "_hex": "0x2fefd8"
  },
  "gasUsed": {
    "_hex": "0x5208"
  },
  "miner": "0x0193d941b50d91BE6567c7eE1C0Fe7AF498b4137",
  "extraData": "0x4a5ace9e4e",
  "transactions": [
    {
      "hash": "0x647ed6e23a4843fd809b133830b11a1cda57d14b34565e58a12aff2f94647bab",
      "blockHash": "0x60340c19943f3dd54c72490be41f2b95d80e4bd0fcaa98557ba76c9d102c2f36",
      "blockNumber": 118901,
      "transactionIndex": 0,
      "confirmations": null,
      "from": "0x608f4b86321a68453f9adf6F06F7Fc3E621739ad",
      "gasPrice": {
        "_hex": "0xba43b7400"
      },
      "gasLimit": {
        "_hex": "0x5208"
      },
      "to": "0x32Be343B94f860124dC4fEe278FDCBD38C102D88",
      "value": {
        "_hex": "0xb0326cc8b23620000"
      },
      "nonce": 12,
      "data": "0x",
      "r": "0x30fc83a0f6ec294de0fdaac4e295a512088da3b13e0ad2b986fcdb09dba2898e",
      "s": "0x0e73f1cf518c01d065b28a10100f25e5bbf63c7c8840a5cf4d0b57fbc1d6c1a6",
      "v": 27,
      "creates": null,
      "raw": "0xf86d0c850ba43b74008252089432be343b94f860124dc4fee278fdcbd38c102d88890b0326cc8b23620000801ba030fc83a0f6ec294de0fdaac4e295a512088da3b13e0ad2b986fcdb09dba2898ea00e73f1cf518c01d065b28a10100f25e5bbf63c7c8840a5cf4d0b57fbc1d6c1a6",
      "networkId": 0,
      "chainId": 0
    }
  ]
}