{
  "hash": "0x59969b2bfbe704a52f5fcac67c666fcfbac0f12d3bb3ccfb6fe1538f129fdf44",
  "parentHash": "0xbc261b449687f547fec5325e16eaa422c790cb5ae9a9470019a8a8ca69828ea4",
  "number": 79530,
  "timestamp": 1439471187,
  "nonce": "0x28108916400b2be6",
  "difficulty": 2338136401563,
  "gasLimit": {
    "_hex": "0x2fefd8"
  },
  "gasUsed": {
    "_hex": "0x5208"
  },
  "miner": "0x02dE7d35a60bf6A216411476040ec648668769D7",
  "extraData": "0x476574682f76312e302e312f77696e646f77732f676f312e342e32",
  "transactions": [
    {
      "hash": "0x853735430d2833b4c0fdc6100afe0f67397a9650f0a0cfea6cd616e138266aeb",
      "blockHash": "0x59969b2bfbe704a52f5fcac67c666fcfbac0f12d3bb3ccfb6fe1538f129fdf44",
      "blockNumber": 79530,
      "transactionIndex": 0,
      "confirmations": null,
      "from": "0xA3AA3C09d07c1DB0822Bc6CbE1154846bD2d4594",
      "gasPrice": {
        "_hex": "0xd7d40ace3"
      },
      "gasLimit": {
        "_hex": "0x15f90"
      },
      "to": "0xf2cC0eEAAAeD313542CB262B0B8c3972425143f0",
      "value": {
        "_hex": "0x44004c09e76a0000"
      },
      "nonce": 4,
      "data": "0x",
      "r": "0x10723b4632bb49db1158c6c81b7cdf7d55cf212facfe364b5ac89e4e5b7ac1be",
      "s": "0x06e35d09b873094c6073ae44e2ab16571c84f08f05d58a6b3d175cc50e6c4a82",
      "v": 28,
      "creates": null,
      "raw": "0xf86d04850d7d40ace383015f9094f2cc0eeaaaed313542cb262b0b8c3972425143f08844004c09e76a0000801ca010723b4632bb49db1158c6c81b7cdf7d55cf212facfe364b5ac89e4e5b7ac1bea006e35d09b873094c6073ae44e2ab16571c84f08f05d58a6b3d175cc50e6c4a82",
      "networkId": 0,
      "chainId": 0
    }
  ]
}