{
  "hash": "0x92fc5338ae184711b43a3c6de71efcde818bec1c782239b6a05973cef23f4e32",
  "parentHash": "0x2f3c194fbc124513333218eb2bae9a66a6dafc1f9e5936995c6a81c3a71e453e",
  "number": 88576,
  "timestamp": 1439610184,
  "nonce": "0x2472a2735c548ebf",
  "difficulty": 3236355127529,
  "gasLimit": {
    "_hex": "0x2fefd8"
  },
  "gasUsed": {
    "_hex": "0xa674"
  },
  "miner": "0xe6A7a1d47ff21B6321162AEA7C6CB457D5476Bca",
  "extraData": "0x476574682f76312e302e312d38326566323666362f6c696e75782f676f312e34",
  "transactions": [
    {
      "hash": "0xa98062114eac4c12e5e87d93639ae0fc5bc62cfbf56925c24766c89935b9eba5",
      "blockHash": "0x92fc5338ae184711b43a3c6de71efcde818bec1c782239b6a05973cef23f4e32",
      "blockNumber": 88576,
      "transactionIndex": 0,
      "confirmations": null,
      "from": "0x9d30cB237BC096f17036FC80dd21CA68992ca2d9",
      "gasPrice": {
        "_hex": "0x110c8f7d8de"
      },
      "gasLimit": {
        "_hex": "0xc350"
      },
      "to": "0x2910543Af39abA0Cd09dBb2D50200b3E800A63D2",
      "value": {
        "_hex": "0x448586170a7dc0000"
      },
      "nonce": 0,
      "data": "0x454e4e445759415947",
      "r": "0x933048d6c4ad29e89ae3b140c879041c4dc76357ff6bd378f9c8751a9fed4842",
      "s": "0x3a3f509819c86e968e0cc412a264f07c528f18440238eca4cf2806dda76e47dc",
      "v": 27,
      "creates": null,
      "raw": "0xf87780860110c8f7d8de82c350942910543af39aba0cd09dbb2d50200b3e800a63d2890448586170a7dc000089454e4e4457594159471ba0933048d6c4ad29e89ae3b140c879041c4dc76357ff6bd378f9c8751a9fed4842a03a3f509819c86e968e0cc412a264f07c528f18440238eca4cf2806dda76e47dc",
      "networkId": 0,
      "chainId": 0
    },
    {
      "hash": "0xe99548c856a7e60ef4aec840370c165a9cf95c10ef9c0d68d0090c01aff0fed5",
      "blockHash": "0x92fc5338ae184711b43a3c6de71efcde818bec1c782239b6a05973cef23f4e32",
      "blockNumber": 88576,
      "transactionIndex": 1,
      "confirmations": null,
      "from": "0x32Be343B94f860124dC4fEe278FDCBD38C102D88",
      "gasPrice": {
        "_hex": "0xded6fcb4f"
      },
      "gasLimit": {
        "_hex": "0x5208"
      },
      "to": "0x663F37156fa35DBA128c9682f13D515b68002002",
      "value": {
        "_hex": "0x340aad21b3b700000"
      },
      "nonce": 838,
      "data": "0x",
      "r": "0x8c22474391d4ae0b8068273c640281090a376ac98f2ce99ca44c245860ee4f52",
      "s": "0x0b0cbbe640e778fddbd3987c6b167b00aa0c2cc3ca2e0dabf149899086b5129e",
      "v": 27,
      "creates": null,
      "raw": "0xf86f820346850ded6fcb4f82520894663f37156fa35dba128c9682f13d515b68002002890340aad21b3b700000801ba08c22474391d4ae0b8068273c640281090a376ac98f2ce99ca44c245860ee4f52a00b0cbbe640e778fddbd3987c6b167b00aa0c2cc3ca2e0dabf149899086b5129e",
      "networkId": 0,
      "chainId": 0
    }
  ]
}