{
  "hash": "0x8474a0fff9db755f84366238222ad74115d2fed3e5067dfa2607b9a2fc936938",
  "parentHash": "0x0e469f0532da5136e5295ef5b1235700904aac707cfe734cc42e4bd9af8963b9",
  "number": 55174,
  "timestamp": 1439066471,
  "nonce": "0x0a00da5e508ae980",
  "difficulty": 1641831395964,
  "gasLimit": {
    "_hex": "0x2fefd8"
  },
  "gasUsed": {
    "_hex": "0x546c"
  },
  "miner": "0xb3395f0a13448d9A660aC4aB2aBBC61F555f3656",
  "extraData": "0x476574682f76312e302e312f77696e646f77732f676f312e342e32",
  "transactions": [
    {
      "hash": "0xa29b9304a1fd69c74869a0101dffd8dee1f4d060ba12b82aafd0f30a7f934c86",
      "blockHash": "0x8474a0fff9db755f84366238222ad74115d2fed3e5067dfa2607b9a2fc936938",
      "blockNumber": 55174,
      "transactionIndex": 0,
      "confirmations": null,
      "from": "0x50763AdD868fd7361178342fC055EAA2b95F6846",
      "gasPrice": {
        "_hex": "0x110c8f7d8de"
      },
      "gasLimit": {
        "_hex": "0xc350"
      },
      "to": "0x2910543Af39abA0Cd09dBb2D50200b3E800A63D2",
      "value": {
        "_hex": "0x340aad21b3b700000"
      },
      "nonce": 1,
      "data": "0x454e543045505a4147",
      "r": "0x9322d291b555b9eb6514b89e71bbd11fea57d2c21f90be25eaad13ce12427db8",
      "s": "0xc4320cd0bcc669004836a07b8d5a98bb1d3b18f4a31af54b08dcf298996dc5e8",
      "v": 27,
      "creates": null,
      "raw": "0xf87701860110c8f7d8de82c350942910543af39aba0cd09dbb2d50200b3e800a63d2890340aad21b3b70000089454e543045505a41471ba09322d291b555b9eb6514b89e71bbd11fea57d2c21f90be25eaad13ce12427db8a0c4320cd0bcc669004836a07b8d5a98bb1d3b18f4a31af54b08dcf298996dc5e8",
      "networkId": 0,
      "chainId": 0
    }
  ]
}