{
  "hash": "0x7c747674e6e78d6e33479dbf3a1a73102e943df52bb8476e31ec96a774d5c3c2",
  "parentHash": "0xe2b38a96a6ed03deff4da613a075f8a40fcb4f3acedda5b2486bd198fa64f92d",
  "number": 100395,
  "timestamp": 1439805808,
  "nonce": "0x581d07fc64d95e7e",
  "difficulty": 3809849150991,
  "gasLimit": {
    "_hex": "0x2fefd8"
  },
  "gasUsed": {
    "_hex": "0xf618"
  },
  "miner": "0x2f6BCe4fc330B69C9B4c2694d57C63Ec7B18feC7",
  "extraData": "0x476574682f76312e302e312f77696e646f77732f676f312e342e32",
  "transactions": [
    {
      "hash": "0x2fed59015497e9d4c646fdd7bd120cd14eadf39bc72c32c7bcb4885cac43677d",
      "blockHash": "0x7c747674e6e78d6e33479dbf3a1a73102e943df52bb8476e31ec96a774d5c3c2",
      "blockNumber": 100395,
      "transactionIndex": 0,
      "confirmations": null,
      "from": "0x702bD0d370bBf0B97B66FE95578c62697c583393",
      "gasPrice": {
        "_hex": "0xdee1f6f3f"
      },
      "gasLimit": {
        "_hex": "0x5208"
      },
      "to": "0x32Be343B94f860124dC4fEe278FDCBD38C102D88",
      "value": {
        "_hex": "0xd0ad6350e7f3c000"
      },
      "nonce": 6,
      "data": "0x",
      "r": "0x54a0a768978a5a457173f3c070378973dfb10a7ded6b5661f025e4d8325b64b2",
      "s": "0x45e999e0daa4bc4cece07427b96562283ff3adff7da97e8e02ab1a4c041deac5",
      "v": 28,
      "creates": null,
      "raw": "0xf86c06850dee1f6f3f8252089432be343b94f860124dc4fee278fdcbd38c102d8888d0ad6350e7f3c000801ca054a0a768978a5a457173f3c070378973dfb10a7ded6b5661f025e4d8325b64b2a045e999e0daa4bc4cece07427b96562283ff3adff7da97e8e02ab1a4c041deac5",
      "networkId": 0,
      "chainId": 0
    },
    {
      "hash": "0x759e67b2f8fff8507276b9bd26e6b638b753e628ecc6c285c805676a3d08ce03",
      "blockHash": "0x7c747674e6e78d6e33479dbf3a1a73102e943df52bb8476e31ec96a774d5c3c2",
      "blockNumber": 100395,
      "transactionIndex": 1,
      "confirmations": null,
      "from": "0x04a2a3ee9C9ea82e1F918ecE209f8A7E6d7521E7",
      "gasPrice": {
        "_hex": "0xdee1f6f3f"
      },
      "gasLimit": {
        "_hex": "0x5208"
      },
      "to": "0x32Be343B94f860124dC4fEe278FDCBD38C102D88",
      "value": {
        "_hex": "0xac2b21a713f15000"
      },
      "nonce": 14,
      "data": "0x",
      "r": "0xdb9b477c0949c3603cb7fcd73aa8f968e6204364be525a61b0bfdef5dd3c0e7b",
      "s": "0x546d440e7667ffb181d50b81d5f5585c0ad552e41a95b35024f411efff409440",
      "v": 28,
      "creates": null,
      "raw": "0xf86c0e850dee1f6f3f8252089432be343b94f860124dc4fee278fdcbd38c102d8888ac2b21a713f15000801ca0db9b477c0949c3603cb7fcd73aa8f968e6204364be525a61b0bfdef5dd3c0e7ba0546d440e7667ffb181d50b81d5f5585c0ad552e41a95b35024f411efff409440",
      "networkId": 0,
      "chainId": 0
    },
    {
      "hash": "0xa4118c6354a5f546f6f7ba98e2aa6a662bcce27e166a7c792d0f11a490f71438",
      "blockHash": "0x7c747674e6e78d6e33479dbf3a1a73102e943df52bb8476e31ec96a774d5c3c2",
      "blockNumber": 100395,
      "transactionIndex": 2,
      "confirmations": null,
      "from": "0x7884D470204862a0d1A21122F41ee77430396Ee5",
      "gasPrice": {
        "_hex": "0xdf15d5a8d"
      },
      "gasLimit": {
        "_hex": "0x15f90"
      },
      "to": "0x3C224111361D244282eB3d906011eDD2598C95A6",
      "value": {
        "_hex": "0xb1a2bc2ec50000"
      },
      "nonce": 49,
      "data": "0x",
      "r": "0x56557e9cfd83180ec40d67c49a930d67b0ffd34dc773901ee0a85d24c716123f",
      "s": "0x5ea9820ac67e11d139c8f16e6112ebcd4d5c1deee690ce88c90030140e285fe7",
      "v": 28,
      "creates": null,
      "raw": "0xf86c31850df15d5a8d83015f90943c224111361d244282eb3d906011edd2598c95a687b1a2bc2ec50000801ca056557e9cfd83180ec40d67c49a930d67b0ffd34dc773901ee0a85d24c716123fa05ea9820ac67e11d139c8f16e6112ebcd4d5c1deee690ce88c90030140e285fe7",
      "networkId": 0,
      "chainId": 0
    }
  ]
}