{
  "hash": "0x34869f1273371d28e1e165f4b21837b49c40ea885d7e65b28224803dbaa0ecbb",
  "parentHash": "0x9383b18276ec980b6f3078ae20b9754d6c78ceb663e2838c6067c0b485138a9f",
  "number": 119516,
  "timestamp": 1440144247,
  "nonce": "0x25a053902e3ffc90",
  "difficulty": 4394394436857,
  "gasLimit": {
    "_hex": "0x2fefd8"
  },
  "gasUsed": {
    "_hex": "0x5208"
  },
  "miner": "0x007f7f58D3eb5b7510A301eCC749FC1fCDDBE14D",
  "extraData": "0x",
  "transactions": [
    {
      "hash": "0x9b28623031db33d6fa4a0c263e41b9b703f8568e0e5f12dd4a630c1447675caa",
      "blockHash": "0x34869f1273371d28e1e165f4b21837b49c40ea885d7e65b28224803dbaa0ecbb",
      "blockNumber": 119516,
      "transactionIndex": 0,
      "confirmations": null,
      "from": "0x6ed7A6220B1Cd6F93AC32948C2221E0D372F46Ad",
      "gasPrice": {
        "_hex": "0xba43b7400"
      },
      "gasLimit": {
        "_hex": "0x5208"
      },
      "to": "0xFBb1b73C4f0BDa4f67dcA266ce6Ef42f520fBB98",
      "value": {
        "_hex": "0x66ae59d2dce06000"
      },
      "nonce": 1,
      "data": "0x",
      "r": "0xb027a81ce9bd651758d4a65f6b90bac4fe1dda85f4bbe18f05f5b70921c2bbad",
      "s": "0x3f67e71d519d5b4357663cecfd8d87d438a0d07374d9c57b0e75e74540a026ed",
      "v": 27,
      "creates": null,
      "raw": "0xf86c01850ba43b740082520894fbb1b73c4f0bda4f67dca266ce6ef42f520fbb988866ae59d2dce06000801ba0b027a81ce9bd651758d4a65f6b90bac4fe1dda85f4bbe18f05f5b70921c2bbada03f67e71d519d5b4357663cecfd8d87d438a0d07374d9c57b0e75e74540a026ed",
      "networkId": 0,
      "chainId": 0
    }
  ]
}