{
  "hash": "0xc09ad0b8027114f9328949c69dbefc633399200cf95df7c9ad9c9fbfaa8478c5",
  "parentHash": "0x8df25eaef3e25889bbce5175fdcf3f82ccb42f97970441dca88ba8dbfa9a670e",
  "number": 99985,
  "timestamp": 1439798832,
  "nonce": "0xc1d3c2b9c32c50e6",
  "difficulty": 3847425014094,
  "gasLimit": {
    "_hex": "0x2fefd8"
  },
  "gasUsed": {
    "_hex": "0x5208"
  },
  "miner": "0xe6A7a1d47ff21B6321162AEA7C6CB457D5476Bca",
  "extraData": "0x476574682f76312e302e312d38326566323666362f6c696e75782f676f312e34",
  "transactions": [
    {
      "hash": "0xad1160209007e13c599a95021317ee04ffcdd1aa95609fadf8ee686ae4bdf584",
      "blockHash": "0xc09ad0b8027114f9328949c69dbefc633399200cf95df7c9ad9c9fbfaa8478c5",
      "blockNumber": 99985,
      "transactionIndex": 0,
      "confirmations": null,
      "from": "0x27e806e70622d2864e1B1f4426D72FFb0457C83a",
      "gasPrice": {
        "_hex": "0xd57ec4d89"
      },
      "gasLimit": {
        "_hex": "0x5208"
      },
      "to": "0x32Be343B94f860124dC4fEe278FDCBD38C102D88",
      "value": {
        "_hex": "0xbdaa13fdcd3a6000"
      },
      "nonce": 15,
      "data": "0x",
      "r": "0x96960ad83c84f8e7e9ae072a8d3254059b71d443b24ff202c04a0724b13c3141",
      "s": "0x72be5f0734131c808f343a0ced791f893ae5aa120cbff3c307fcd14a1f9892b9",
      "v": 28,
      "creates": null,
      "raw": "0xf86c0f850d57ec4d898252089432be343b94f860124dc4fee278fdcbd38c102d8888bdaa13fdcd3a6000801ca096960ad83c84f8e7e9ae072a8d3254059b71d443b24ff202c04a0724b13c3141a072be5f0734131c808f343a0ced791f893ae5aa120cbff3c307fcd14a1f9892b9",
      "networkId": 0,
      "chainId": 0
    }
  ]
}