{
  "hash": "0x89f3bd637fed8bd66e9a133462c2a521b960f32869e1ddec2ef7c7236fa3e2f6",
  "parentHash": "0xb0d380f86daecbbd37636d8352bcde2aeb8058d8decbb999327f738e3c560ff4",
  "number": 95632,
  "timestamp": 1439726998,
  "nonce": "0x29f9292e0dfeaae4",
  "difficulty": 3607379482870,
  "gasLimit": {
    "_hex": "0x2fefd8"
  },
  "gasUsed": {
    "_hex": "0x5208"
  },
  "miner": "0x47ff6576639c2e94762eA5443978D7681C0E78DC",
  "extraData": "0x476574682f76312e302e312f6c696e75782f676f312e342e32",
  "transactions": [
    {
      "hash": "0x49689f2170d9a5ff448af2f1b9662799620f2176611f42fff250006318d4d208",
      "blockHash": "0x89f3bd637fed8bd66e9a133462c2a521b960f32869e1ddec2ef7c7236fa3e2f6",
      "blockNumber": 95632,
      "transactionIndex": 0,
      "confirmations": null,
      "from": "0x120A270bbC009644e35F0bB6ab13f95b8199c4ad",
      "gasPrice": {
        "_hex": "0xdf8f45eab"
      },
      "gasLimit": {
        "_hex": "0x3d090"
      },
      "to": "0xc9CBB4dB18605df3f84dfB719A58c9C1252cE641",
      "value": {
        "_hex": "0xd8d726b7177a80000"
      },
      "nonce": 602,
      "data": "0x",
      "r": "0x1f233d86fae28767b9eb471af6ebfdc27486e95d50a51176106f8f3ff692f4a3",
      "s": "0x42e187873691f2e9d6e533b03db4e5a33456ab848d82af1b12bb2a0a55a2db6f",
      "v": 28,
      "creates": null,
      "raw": "0xf87082025a850df8f45eab8303d09094c9cbb4db18605df3f84dfb719a58c9c1252ce641890d8d726b7177a80000801ca01f233d86fae28767b9eb471af6ebfdc27486e95d50a51176106f8f3ff692f4a3a042e187873691f2e9d6e533b03db4e5a33456ab848d82af1b12bb2a0a55a2db6f",
      "networkId": 0,
      "chainId": 0
    }
  ]
}