{
  "hash": "0xe1ebe1bf89e09257c58106335fc84a20b0144a8fe1b3b349f45c1415f2bd80c3",
  "parentHash": "0xe6412c41d3f70247e1e49f02dc8c9a20691004d8486d284d43ebf655ca60c4d5",
  "number": 97945,
  "timestamp": 1439764491,
  "nonce": "0x9a675a926946b409",
  "difficulty": 3844604440844,
  "gasLimit": {
    "_hex": "0x2fefd8"
  },
  "gasUsed": {
    "_hex": "0xa410"
  },
  "miner": "0x790b8a3cE86E707ED0eD32bF89B3269692a23CC1",
  "extraData": "0xd783010001844765746887676f312e342e32856c696e7578",
  "transactions": [
    {
      "hash": "0x4db75bcb3daa039285e029a17f76d5f0d50ffc8d304dc3135eb1ce1aada91aef",
      "blockHash": "0xe1ebe1bf89e09257c58106335fc84a20b0144a8fe1b3b349f45c1415f2bd80c3",
      "blockNumber": 97945,
      "transactionIndex": 0,
      "confirmations": null,
      "from": "0xa6BDc31c431B8F97848c9D60cbbe9660dc450eB7",
      "gasPrice": {
        "_hex": "0xd63bc517f"
      },
      "gasLimit": {
        "_hex": "0x5208"
      },
      "to": "0x32Be343B94f860124dC4fEe278FDCBD38C102D88",
      "value": {
        "_hex": "0x8ac2e48b614dd000"
      },
      "nonce": 137,
      "data": "0x",
      "r": "0x5b693fe966b448351199cae57b966e859002a78ca8c388d8c082c9aeeef314c2",
      "s": "0x7160a405a08a811040a60fa4e34f9e58a8526998cf1f9b72438b7a5909f1e74f",
      "v": 27,
      "creates": null,
      "raw": "0xf86d8189850d63bc517f8252089432be343b94f860124dc4fee278fdcbd38c102d88888ac2e48b614dd000801ba05b693fe966b448351199cae57b966e859002a78ca8c388d8c082c9aeeef314c2a07160a405a08a811040a60fa4e34f9e58a8526998cf1f9b72438b7a5909f1e74f",
      "networkId": 0,
      "chainId": 0
    },
    {
      "hash": "0x7686fa7b1a691046d6d8279918da68932f436e2b6602757c5c4c00c4c6c66e3e",
      "blockHash": "0xe1ebe1bf89e09257c58106335fc84a20b0144a8fe1b3b349f45c1415f2bd80c3",
      "blockNumber": 97945,
      "transactionIndex": 1,
      "confirmations": null,
      "from": "0xcf00A85f3826941e7A25BFcF9Aac575d40410852",
      "gasPrice": {
        "_hex": "0xcb5bea614"
      },
      "gasLimit": {
        "_hex": "0x15f90"
      },
      "to": "0xD9666150A9dA92d9108198a4072970805a8B3428",
      "value": {
        "_hex": "0x4563918244f40000"
      },
      "nonce": 9,
      "data": "0x",
      "r": "0xc9144f2241e66de8c7b7ae39816331199dad43ba2c966bcad5242b79afd530e7",
      "s": "0x4c15c3df86f3380b5882e05638bd4c169afa8dc6ef5a27d2defec0020b5747b7",
      "v": 28,
      "creates": null,
      "raw": "0xf86d09850cb5bea61483015f9094d9666150a9da92d9108198a4072970805a8b3428884563918244f40000801ca0c9144f2241e66de8c7b7ae39816331199dad43ba2c966bcad5242b79afd530e7a04c15c3df86f3380b5882e05638bd4c169afa8dc6ef5a27d2defec0020b5747b7",
      "networkId": 0,
      "chainId": 0
    }
  ]
}