{
  "hash": "0x38d61168efc8a889c8cb070b6575690ec2a11efbccabb3fd1a9b04e1a4be526e",
  "parentHash": "0x401d8199e70faca766dfb75fd2c6a4f212c731108f7797981671889673a8dc1b",
  "number": 55020,
  "timestamp": 1439064146,
  "nonce": "0x33873140562629b5",
  "difficulty": 1621149342509,
  "gasLimit": {
    "_hex": "0x2fefd8"
  },
  "gasUsed": {
    "_hex": "0x5208"
  },
  "miner": "0xA1623430350C5df1b52B0b57483A5bb45d1796Da",
  "extraData": "0x476574682f76312e302e312d38326566323666362f6c696e75782f676f312e34",
  "transactions": [
    {
      "hash": "0xd2bb5d4cf34ab48d3e723d805bce8d2e6004010d8358d9e0f96444e20bb2a235",
      "blockHash": "0x38d61168efc8a889c8cb070b6575690ec2a11efbccabb3fd1a9b04e1a4be526e",
      "blockNumber": 55020,
      "transactionIndex": 0,
      "confirmations": null,
      "from": "0x843bd3502f45F8bc4da370b323BdaC3fCF5f19A6",
      "gasPrice": {
        "_hex": "0xe1f0e5216"
      },
      "gasLimit": {
        "_hex": "0x15f90"
      },
      "to": "0x3c0552a53b84E1F265708FA1AfA9b5E71ccAffFa",
      "value": {
        "_hex": "0x4fd9fb3fb626640000"
      },
      "nonce": 1,
      "data": "0x",
      "r": "0x5640c5413528589e409a348d1f70007f6c4cba0d7c740b62d9a3f2be8b845ef5",
      "s": "0x61815e4f6c637a278525976c64501e01587f30ed5037c128d51470d2ee0509d1",
      "v": 27,
      "creates": null,
      "raw": "0xf86e01850e1f0e521683015f90943c0552a53b84e1f265708fa1afa9b5e71ccafffa894fd9fb3fb626640000801ba05640c5413528589e409a348d1f70007f6c4cba0d7c740b62d9a3f2be8b845ef5a061815e4f6c637a278525976c64501e01587f30ed5037c128d51470d2ee0509d1",
      "networkId": 0,
      "chainId": 0
    }
  ]
}