{
  "hash": "0xb8e18a0ff0ad8773cd3b4b72ebff334ffd507582420f5d9b163e632f6e45103c",
  "parentHash": "0x0f573c8565ce438c677fff4fe7c2ab91163339f5c72895404986f11883db6108",
  "number": 78284,
  "timestamp": 1439451421,
  "nonce": "0x53d9264286fdc628",
  "difficulty": 2282083115168,
  "gasLimit": {
    "_hex": "0x2fefd8"
  },
  "gasUsed": {
    "_hex": "0x5208"
  },
  "miner": "0xbb7B8287f3F0a933474a79eAe42CBCa977791171",
  "extraData": "0x476574682f4c5649562f76312e302e312f6c696e75782f676f312e342e32",
  "transactions": [
    {
      "hash": "0x2937e7a9e9de9a2bae90cb28a6e50b9e1f9c095a0f1ed21231b07875a3d42920",
      "blockHash": "0xb8e18a0ff0ad8773cd3b4b72ebff334ffd507582420f5d9b163e632f6e45103c",
      "blockNumber": 78284,
      "transactionIndex": 0,
      "confirmations": null,
      "from": "0x640bAfc5732d621d5611eed670718409acb81366",
      "gasPrice": {
        "_hex": "0xdac7a609e"
      },
      "gasLimit": {
        "_hex": "0x15f90"
      },
      "to": "0xDA4E0Ba268486216E0B3Ad5ccEAa1E7EdB1C2751",
      "value": {
        "_hex": "0x8ac7230489e80000"
      },
      "nonce": 4,
      "data": "0x",
      "r": "0x931cefe336abb79e4200840efc26c2baf2941cf66591579cf43921be1273f327",
      "s": "0x078257f7bb9f9bfca68cdf2c3be1deaa8a023778498f23c70d01849adfb23c82",
      "v": 27,
      "creates": null,
      "raw": "0xf86d04850dac7a609e83015f9094da4e0ba268486216e0b3ad5cceaa1e7edb1c2751888ac7230489e80000801ba0931cefe336abb79e4200840efc26c2baf2941cf66591579cf43921be1273f327a0078257f7bb9f9bfca68cdf2c3be1deaa8a023778498f23c70d01849adfb23c82",
      "networkId": 0,
      "chainId": 0
    }
  ]
}