{
  "hash": "0xdfd495fa073a37c203c38cb4d802e453780ab7635f11f0463a5ba0492b6bccf4",
  "parentHash": "0x54035f367ca7cb793097fbf68ee7130aec8a831f572664c7ce02c9f49cbed05a",
  "number": 63358,
  "timestamp": 1439203081,
  "nonce": "0xed8358906200b273",
  "difficulty": 1829809244312,
  "gasLimit": {
    "_hex": "0x2fefd8"
  },
  "gasUsed": {
    "_hex": "0x546c"
  },
  "miner": "0x9746c7e1ef2bd21FF3997fa467593a89cb852BD0",
  "extraData": "0x476574682f76312e302e312f77696e646f77732f676f312e342e32",
  "transactions": [
    {
      "hash": "0xc32e19ec122a81e53ac64500a1c8f5cbc7dac3ef70077f1995a60c5ff1317a1d",
      "blockHash": "0xdfd495fa073a37c203c38cb4d802e453780ab7635f11f0463a5ba0492b6bccf4",
      "blockNumber": 63358,
      "transactionIndex": 0,
      "confirmations": null,
      "from": "0x08d54e83ad486a934cfaeAe283a33Efd227C0E99",
      "gasPrice": {
        "_hex": "0x110c8f7d8de"
      },
      "gasLimit": {
        "_hex": "0xc350"
      },
      "to": "0x2910543Af39abA0Cd09dBb2D50200b3E800A63D2",
      "value": {
        "_hex": "0x20f5b1eaad8d80000"
      },
      "nonce": 2,
      "data": "0x454e50463042414a47",
      "r": "0x0cdd913fb0eecfa74d4d9cc3e8a1034d7c74a628169005e947276cf6d10d3308",
      "s": "0x3e9cf18968038a08e5add1d47deeba1d13bedf8b8bb4eec7485ad9a5bc981ba7",
      "v": 27,
      "creates": null,
      "raw": "0xf87702860110c8f7d8de82c350942910543af39aba0cd09dbb2d50200b3e800a63d289020f5b1eaad8d8000089454e50463042414a471ba00cdd913fb0eecfa74d4d9cc3e8a1034d7c74a628169005e947276cf6d10d3308a03e9cf18968038a08e5add1d47deeba1d13bedf8b8bb4eec7485ad9a5bc981ba7",
      "networkId": 0,
      "chainId": 0
    }
  ]
}