{
  "hash": "0x5349a7167f69c10a88f178e43fa0e54819ae286595edb63d5cecfb0de1875d52",
  "parentHash": "0xdcd4c7b2095998f0ae4ba1c6f11c87ce55e9b38a6c9fdec42c6473def85350b9",
  "number": 119422,
  "timestamp": 1440142636,
  "nonce": "0x5b2cc1c18b6bae54",
  "difficulty": 4390154324788,
  "gasLimit": {
    "_hex": "0x2fefd8"
  },
  "gasUsed": {
    "_hex": "0x802c8"
  },
  "miner": "0x608f4b86321a68453f9adf6F06F7Fc3E621739ad",
  "extraData": "0xd783010002844765746887676f312e342e32856c696e7578",
  "transactions": [
    {
      "hash": "0xd5bc16818149485401637ccf6340f3e137ed4074e6dbd11b556678aa35b78b41",
      "blockHash": "0x5349a7167f69c10a88f178e43fa0e54819ae286595edb63d5cecfb0de1875d52",
      "blockNumber": 119422,
      "transactionIndex": 0,
      "confirmations": null,
      "from": "0xE12517204a15E890f12755207271102F4800A0c4",
      "gasPrice": {
        "_hex": "0xc37e51f0f"
      },
      "gasLimit": {
        "_hex": "0x5208"
      },
      "to": "0x32Be343B94f860124dC4fEe278FDCBD38C102D88",
      "value": {
        "_hex": "0x27e9adcafbf664000"
      },
      "nonce": 21,
      "data": "0x",
      "r": "0x7cdfe6f7a299845395fd344bbb4fbc1131243455740d4f77d7aced25f332b054",
      "s": "0x5a9adf56d1053d07126a1d79dadafbdee0c8488f1711809bef82e02eb01a3c8d",
      "v": 27,
      "creates": null,
      "raw": "0xf86d15850c37e51f0f8252089432be343b94f860124dc4fee278fdcbd38c102d8889027e9adcafbf664000801ba07cdfe6f7a299845395fd344bbb4fbc1131243455740d4f77d7aced25f332b054a05a9adf56d1053d07126a1d79dadafbdee0c8488f1711809bef82e02eb01a3c8d",
      "networkId": 0,
      "chainId": 0
    },
    {
      "hash": "0xa2872debfc2e9414b015edf94575c972ec4bc772c33c99f932280c84a36a6996",
      "blockHash": "0x5349a7167f69c10a88f178e43fa0e54819ae286595edb63d5cecfb0de1875d52",
      "blockNumber": 119422,
      "transactionIndex": 1,
      "confirmations": null,
      "from": "0x52bc44d5378309EE2abF1539BF71dE1b7d7bE3b5",
      "gasPrice": {
        "_hex": "0xba43b7400"
      },
      "gasLimit": {
        "_hex": "0x61a8"
      },
      "to": "0x65001c830f61DBB739d9cea1AD07e4325C75021B",
      "value": {
        "_hex": "0x454515cecefa0180"
      },
      "nonce": 657,
      "data": "0x",
      "r": "0x20d4305f471fbfb6019a9277e253f6cac0ef74776c3d1eac1bcad80b7acd17c9",
      "s": "0x137ccc08b7c06d393c8646e4b7593b4bc5033f4a20ce091a11e75b1fd85e8632",
      "v": 27,
      "creates": null,
      "raw": "0xf86e820291850ba43b74008261a89465001c830f61dbb739d9cea1ad07e4325c75021b88454515cecefa0180801ba020d4305f471fbfb6019a9277e253f6cac0ef74776c3d1eac1bcad80b7acd17c9a0137ccc08b7c06d393c8646e4b7593b4bc5033f4a20ce091a11e75b1fd85e8632",
      "networkId": 0,
      "chainId": 0
    },
    {
      "hash": "0x086c96ede591ee2494772aedf74b55836696f172a82d9018d09555a8e0a1db85",
      "blockHash": "0x5349a7167f69c10a88f178e43fa0e54819ae286595edb63d5cecfb0de1875d52",
      "blockNumber": 119422,
      "transactionIndex": 2,
      "confirmations": null,
      "from": "0x52bc44d5378309EE2abF1539BF71dE1b7d7bE3b5",
      "gasPrice": {
        "_hex": "0xba43b7400"
      },
      "gasLimit": {
        "_hex": "0x61a8"
      },
      "to": "0x60781265e9850f54AE0Bc9545948d05DeE6FC3e3",
      "value": {
        "_hex": "0x48d4f143f2147400"
      },
      "nonce": 658,
      "data": "0x",
      "r": "0xc7e8f2059c0db90f9cdca49c3c5dc1794aeac9828cb49c9f3b34adb197d15fb8",
      "s": "0x5297727472c0cab77def3b94d8d04ef115fe56bb820a1ebddd497c949067f0f0",
      "v": 28,
      "creates": null,
      "raw": "0xf86e820292850ba43b74008261a89460781265e9850f54ae0bc9545948d05dee6fc3e38848d4f143f2147400801ca0c7e8f2059c0db90f9cdca49c3c5dc1794aeac9828cb49c9f3b34adb197d15fb8a05297727472c0cab77def3b94d8d04ef115fe56bb820a1ebddd497c949067f0f0",
      "networkId": 0,
      "chainId": 0
    },
    {
      "hash": "0x4267402f7d224dccdd5a68440a862597da55461e36a0a7224b447e5bf580e7e0",
      "blockHash": "0x5349a7167f69c10a88f178e43fa0e54819ae286595edb63d5cecfb0de1875d52",
      "blockNumber": 119422,
      "transactionIndex": 3,
      "confirmations": null,
      "from": "0x52bc44d5378309EE2abF1539BF71dE1b7d7bE3b5",
      "gasPrice": {
        "_hex": "0xba43b7400"
      },
      "gasLimit": {
        "_hex": "0x61a8"
      },
      "to": "0x9cF18B3eb373C383a42d06136ba331D766ed9Fbb",
      "value": {
        "_hex": "0x2b976ae397233e00"
      },
      "nonce": 659,
      "data": "0x",
      "r": "0x793531f0e0dd16eb136ac97f6b5bcd45b315ec6404c65042ea60f74780f5c1ed",
      "s": "0x513c7fec62eecc1807974e36118ead5a919d8df4c5e233254e94567486447ed3",
      "v": 28,
      "creates": null,
      "raw": "0xf86e820293850ba43b74008261a8949cf18b3eb373c383a42d06136ba331d766ed9fbb882b976ae397233e00801ca0793531f0e0dd16eb136ac97f6b5bcd45b315ec6404c65042ea60f74780f5c1eda0513c7fec62eecc1807974e36118ead5a919d8df4c5e233254e94567486447ed3",
      "networkId": 0,
      "chainId": 0
    },
    {
      "hash": "0x3e259950b603b8597aef319068a284d32847c1ff73b03f0173646cb3a1d88663",
      "blockHash": "0x5349a7167f69c10a88f178e43fa0e54819ae286595edb63d5cecfb0de1875d52",
      "blockNumber": 119422,
      "transactionIndex": 4,
      "confirmations": null,
      "from": "0x52bc44d5378309EE2abF1539BF71dE1b7d7bE3b5",
      "gasPrice": {
        "_hex": "0xba43b7400"
      },
      "gasLimit": {
        "_hex": "0x61a8"
      },
      "to": "0x05f74a38293C914C6B14a39f5d8dEa98f22E4FBA",
      "value": {
        "_hex": "0xd81c5650f221b400"
      },
      "nonce": 660,
      "data": "0x",
      "r": "0x7b0a02068503dcb56ac5ff9b5800158cee1cb1856d73861b44c8ef914de8533b",
      "s": "0x0d97332036a23447592a2bcfc260ce1ad7c2a485e03aca5e6ed2fc02f76d0649",
      "v": 27,
      "creates": null,
      "raw": "0xf86e820294850ba43b74008261a89405f74a38293c914c6b14a39f5d8dea98f22e4fba88d81c5650f221b400801ba07b0a02068503dcb56ac5ff9b5800158cee1cb1856d73861b44c8ef914de8533ba00d97332036a23447592a2bcfc260ce1ad7c2a485e03aca5e6ed2fc02f76d0649",
      "networkId": 0,
      "chainId": 0
    },
    {
      "hash": "0x1551a8ab9bcb2faeb2b0b31a9de4e4a0c4df6dbd89cbab214bd08615ff90764c",
      "blockHash": "0x5349a7167f69c10a88f178e43fa0e54819ae286595edb63d5cecfb0de1875d52",
      "blockNumber": 119422,
      "transactionIndex": 5,
      "confirmations": null,
      "from": "0x52bc44d5378309EE2abF1539BF71dE1b7d7bE3b5",
      "gasPrice": {
        "_hex": "0xba43b7400"
      },
      "gasLimit": {
        "_hex": "0x61a8"
      },
      "to": "0xb2b31e84127A377AD448A86B3FD32C0A0843eb1F",
      "value": {
        "_hex": "0x5797360d4a0ed40"
      },
      "nonce": 661,
      "data": "0x",
      "r": "0xf6b1ecf13a5ad6f588cb5a153440879d63500225f3a7b0e14f1e9dc3aa4cea22",
      "s": "0x6a60d5dd99f4a09c78887182bd279b360c7ab2e6abc899d8acf8214f44a591ec",
      "v": 27,
      "creates": null,
      "raw": "0xf86e820295850ba43b74008261a894b2b31e84127a377ad448a86b3fd32c0a0843eb1f8805797360d4a0ed40801ba0f6b1ecf13a5ad6f588cb5a153440879d63500225f3a7b0e14f1e9dc3aa4cea22a06a60d5dd99f4a09c78887182bd279b360c7ab2e6abc899d8acf8214f44a591ec",
      "networkId": 0,
      "chainId": 0
    },
    {
      "hash": "0x7ad1d6b12eac4adb0828a2673afeec0be982b0e912ef8863a048f022dcb25c2f",
      "blockHash": "0x5349a7167f69c10a88f178e43fa0e54819ae286595edb63d5cecfb0de1875d52",
      "blockNumber": 119422,
      "transactionIndex": 6,
      "confirmations": null,
      "from": "0x52bc44d5378309EE2abF1539BF71dE1b7d7bE3b5",
      "gasPrice": {
        "_hex": "0xba43b7400"
      },
      "gasLimit": {
        "_hex": "0x61a8"
      },
      "to": "0x49f0609Ed78ee50FAa268a9Bdeb2949fa50d83eD",
      "value": {
        "_hex": "0x3512fd5ec97ae500"
      },
      "nonce": 662,
      "data": "0x",
      "r": "0xc94daa56b9bf681c0b78aa89e53e7b5fc2ed1119e56ecdbb37461e48dc5f7da7",
      "s": "0x17698eb3fdc6361c846cc618eb4de3d8e1d15603f20d93d395b5d5467acc371d",
      "v": 28,
      "creates": null,
      "raw": "0xf86e820296850ba43b74008261a89449f0609ed78ee50faa268a9bdeb2949fa50d83ed883512fd5ec97ae500801ca0c94daa56b9bf681c0b78aa89e53e7b5fc2ed1119e56ecdbb37461e48dc5f7da7a017698eb3fdc6361c846cc618eb4de3d8e1d15603f20d93d395b5d5467acc371d",
      "networkId": 0,
      "chainId": 0
    },
    {
      "hash": "0x3c505e03ec8ec78ae96b2563a209e1c0604528d4848aba0d391c25306c558b2e",
      "blockHash": "0x5349a7167f69c10a88f178e43fa0e54819ae286595edb63d5cecfb0de1875d52",
      "blockNumber": 119422,
      "transactionIndex": 7,
      "confirmations": null,
      "from": "0x52bc44d5378309EE2abF1539BF71dE1b7d7bE3b5",
      "gasPrice": {
        "_hex": "0xba43b7400"
      },
      "gasLimit": {
        "_hex": "0x61a8"
      },
      "to": "0x40328669c1Cde50A6aDAB908672E7E4F8d708b50",
      "value": {
        "_hex": "0x2051c0d63cde680"
      },
      "nonce": 663,
      "data": "0x",
      "r": "0x6d0f4e698d2012c199dd8e8f91a3d99307f839556f400c56c4801d6f1b74446d",
      "s": "0x7042f44aae97f446dec09bbb9e68a7c58f736311bb41ed26cce953f5bc5eb5e4",
      "v": 28,
      "creates": null,
      "raw": "0xf86e820297850ba43b74008261a89440328669c1cde50a6adab908672e7e4f8d708b508802051c0d63cde680801ca06d0f4e698d2012c199dd8e8f91a3d99307f839556f400c56c4801d6f1b74446da07042f44aae97f446dec09bbb9e68a7c58f736311bb41ed26cce953f5bc5eb5e4",
      "networkId": 0,
      "chainId": 0
    },
    {
      "hash": "0x16b6fb730aec163cd75d335efac59182bd4d5ec7e2e2781af97ae70dcd887140",
      "blockHash": "0x5349a7167f69c10a88f178e43fa0e54819ae286595edb63d5cecfb0de1875d52",
      "blockNumber": 119422,
      "transactionIndex": 8,
      "confirmations": null,
      "from": "0x52bc44d5378309EE2abF1539BF71dE1b7d7bE3b5",
      "gasPrice": {
        "_hex": "0xba43b7400"
      },
      "gasLimit": {
        "_hex": "0x61a8"
      },
      "to": "0x78FF59159FAfb4a337fd158FcF8D9603a7c6f03a",
      "value": {
        "_hex": "0x81404e12289de500"
      },
      "nonce": 664,
      "data": "0x",
      "r": "0x4ccffa80465714d3089ddd948791d022014fd6e0c5aeeb370a9e285d7437af5c",
      "s": "0x27b27571f70aab46d8364339037430645f858fd123730aea78ac4efbbfbd4bf0",
      "v": 28,
      "creates": null,
      "raw": "0xf86e820298850ba43b74008261a89478ff59159fafb4a337fd158fcf8d9603a7c6f03a8881404e12289de500801ca04ccffa80465714d3089ddd948791d022014fd6e0c5aeeb370a9e285d7437af5ca027b27571f70aab46d8364339037430645f858fd123730aea78ac4efbbfbd4bf0",
      "networkId": 0,
      "chainId": 0
    },
    {
      "hash": "0x5d31bc9eebe01b017c6b69e9f6f6310bf4b54fdd72fd15f24a346f8b68a2590a",
      "blockHash": "0x5349a7167f69c10a88f178e43fa0e54819ae286595edb63d5cecfb0de1875d52",
      "blockNumber": 119422,
      "transactionIndex": 9,
      "confirmations": null,
      "from": "0x52bc44d5378309EE2abF1539BF71dE1b7d7bE3b5",
      "gasPrice": {
        "_hex": "0xba43b7400"
      },
      "gasLimit": {
        "_hex": "0x61a8"
      },
      "to": "0x8df03bD37602d97980327B58D940258dC57007B3",
      "value": {
        "_hex": "0x1a6a02f7ead597600"
      },
      "nonce": 665,
      "data": "0x",
      "r": "0xcfa7b5c3149ce9e171f403e9d9302ff9bb67f8ee57c73fc0b1e0028f3a8bd67c",
      "s": "0x17e5fc3b7506965a07158218f2164313030572c9b394fb7b43ba986455846ce9",
      "v": 28,
      "creates": null,
      "raw": "0xf86f820299850ba43b74008261a8948df03bd37602d97980327b58d940258dc57007b38901a6a02f7ead597600801ca0cfa7b5c3149ce9e171f403e9d9302ff9bb67f8ee57c73fc0b1e0028f3a8bd67ca017e5fc3b7506965a07158218f2164313030572c9b394fb7b43ba986455846ce9",
      "networkId": 0,
      "chainId": 0
    },
    {
      "hash": "0x5e056e0156b9d2b1c22720d323fd2c7d78a0890b3a81a72cd95046bbb61623ea",
      "blockHash": "0x5349a7167f69c10a88f178e43fa0e54819ae286595edb63d5cecfb0de1875d52",
      "blockNumber": 119422,
      "transactionIndex": 10,
      "confirmations": null,
      "from": "0x52bc44d5378309EE2abF1539BF71dE1b7d7bE3b5",
      "gasPrice": {
        "_hex": "0xba43b7400"
      },
      "gasLimit": {
        "_hex": "0x61a8"
      },
      "to": "0x01d226ceb0705Cb2fC943c1D978EF6522eB62B4F",
      "value": {
        "_hex": "0x9085e56defb5b900"
      },
      "nonce": 666,
      "data": "0x",
      "r": "0xb3a92a7ec208c6c95976ac30918b06c3dd0d9ac310c339cd3047f8d2b073b50a",
      "s": "0x060f4f14993074bcc43047be7d7ad81dcf6d8c7c850ef16924c3ea9d22abe5c0",
      "v": 28,
      "creates": null,
      "raw": "0xf86e82029a850ba43b74008261a89401d226ceb0705cb2fc943c1d978ef6522eb62b4f889085e56defb5b900801ca0b3a92a7ec208c6c95976ac30918b06c3dd0d9ac310c339cd3047f8d2b073b50aa0060f4f14993074bcc43047be7d7ad81dcf6d8c7c850ef16924c3ea9d22abe5c0",
      "networkId": 0,
      "chainId": 0
    },
    {
      "hash": "0xfcc1c1f0b3b0e7f00e5bfb8de0f76d1f4f5800db1e770447b1502a1a29da8480",
      "blockHash": "0x5349a7167f69c10a88f178e43fa0e54819ae286595edb63d5cecfb0de1875d52",
      "blockNumber": 119422,
      "transactionIndex": 11,
      "confirmations": null,
      "from": "0x52bc44d5378309EE2abF1539BF71dE1b7d7bE3b5",
      "gasPrice": {
        "_hex": "0xba43b7400"
      },
      "gasLimit": {
        "_hex": "0x61a8"
      },
      "to": "0x8aa50dfc95Ab047128ccDc6Af4BA2dDbA8D0A874",
      "value": {
        "_hex": "0x39b8dbb4c0afdc80"
      },
      "nonce": 667,
      "data": "0x",
      "r": "0x83982c21dfd3e3a48268c9e1c532a897112fb5e468cd3dfa55e5192a4d8009d1",
      "s": "0x3fbbdf34b1413eb657fbb75226f23ff52b609c7fe281e85aedeaf9430c863d9d",
      "v": 28,
      "creates": null,
      "raw": "0xf86e82029b850ba43b74008261a8948aa50dfc95ab047128ccdc6af4ba2ddba8d0a8748839b8dbb4c0afdc80801ca083982c21dfd3e3a48268c9e1c532a897112fb5e468cd3dfa55e5192a4d8009d1a03fbbdf34b1413eb657fbb75226f23ff52b609c7fe281e85aedeaf9430c863d9d",
      "networkId": 0,
      "chainId": 0
    },
    {
      "hash": "0x8c7fb96df285d61ca59d4a2c0bafbc1537c2a813ac8960ea5fd1157e5eae40b3",
      "blockHash": "0x5349a7167f69c10a88f178e43fa0e54819ae286595edb63d5cecfb0de1875d52",
      "blockNumber": 119422,
      "transactionIndex": 12,
      "confirmations": null,
      "from": "0x52bc44d5378309EE2abF1539BF71dE1b7d7bE3b5",
      "gasPrice": {
        "_hex": "0xba43b7400"
      },
      "gasLimit": {
        "_hex": "0x61a8"
      },
      "to": "0xBEC18596951F1713394944D3178F2E4FAC3bf1b4",
      "value": {
        "_hex": "0x249fe34f12d0df00"
      },
      "nonce": 668,
      "data": "0x",
      "r": "0xe777d2bb4221772c0c9df02c3b001af67f255150c783d7ce7c08670eb62a0f00",
      "s": "0x0a432a2de6f2fc7c7ed6502902d64a8ef45e0380019c3bd44820623bb776f13d",
      "v": 28,
      "creates": null,
      "raw": "0xf86e82029c850ba43b74008261a894bec18596951f1713394944d3178f2e4fac3bf1b488249fe34f12d0df00801ca0e777d2bb4221772c0c9df02c3b001af67f255150c783d7ce7c08670eb62a0f00a00a432a2de6f2fc7c7ed6502902d64a8ef45e0380019c3bd44820623bb776f13d",
      "networkId": 0,
      "chainId": 0
    },
    {
      "hash": "0x421e3b582d31896fd6a360fad2ef0b4d508189e040f549a764f44ad7ab39368f",
      "blockHash": "0x5349a7167f69c10a88f178e43fa0e54819ae286595edb63d5cecfb0de1875d52",
      "blockNumber": 119422,
      "transactionIndex": 13,
      "confirmations": null,
      "from": "0x52bc44d5378309EE2abF1539BF71dE1b7d7bE3b5",
      "gasPrice": {
        "_hex": "0xba43b7400"
      },
      "gasLimit": {
        "_hex": "0x61a8"
      },
      "to": "0x093B13434A79E17A9e3D1e05378726583c13ECAd",
      "value": {
        "_hex": "0x8410f6e6419bd2600"
      },
      "nonce": 669,
      "data": "0x",
      "r": "0xb45d5aaeaa96b2b75c3b2cb4836844e1116987bb4ddd16ba78e87c2920944a7f",
      "s": "0x16ba3c9200822cc0a3be207750cbeba6ca09d3f541da78ab801df63c91ced434",
      "v": 28,
      "creates": null,
      "raw": "0xf86f82029d850ba43b74008261a894093b13434a79e17a9e3d1e05378726583c13ecad8908410f6e6419bd2600801ca0b45d5aaeaa96b2b75c3b2cb4836844e1116987bb4ddd16ba78e87c2920944a7fa016ba3c9200822cc0a3be207750cbeba6ca09d3f541da78ab801df63c91ced434",
      "networkId": 0,
      "chainId": 0
    },
    {
      "hash": "0xb217fa72f50b6867d53e32f464ee91fb3d88aa2a1129cf444d0b2d1db5554d46",
      "blockHash": "0x5349a7167f69c10a88f178e43fa0e54819ae286595edb63d5cecfb0de1875d52",
      "blockNumber": 119422,
      "transactionIndex": 14,
      "confirmations": null,
      "from": "0x52bc44d5378309EE2abF1539BF71dE1b7d7bE3b5",
      "gasPrice": {
        "_hex": "0xba43b7400"
      },
      "gasLimit": {
        "_hex": "0x61a8"
      },
      "to": "0x4eC3C2a5775FBF9A1B95b594211a0Dc63f45D5be",
      "value": {
        "_hex": "0x26aea0c6a5876b80"
      },
      "nonce": 670,
      "data": "0x",
      "r": "0x56cdd9eea19dce8bccd4e4daef76d5a0dc2cf46ce3275e06d56cb14009d977ab",
      "s": "0x5f1f5bb6c34e0fa86248bb5e793cc725853aa26bd28fdf0a3adcdbbd1bb49761",
      "v": 28,
      "creates": null,
      "raw": "0xf86e82029e850ba43b74008261a8944ec3c2a5775fbf9a1b95b594211a0dc63f45d5be8826aea0c6a5876b80801ca056cdd9eea19dce8bccd4e4daef76d5a0dc2cf46ce3275e06d56cb14009d977aba05f1f5bb6c34e0fa86248bb5e793cc725853aa26bd28fdf0a3adcdbbd1bb49761",
      "networkId": 0,
      "chainId": 0
    },
    {
      "hash": "0xaa0189cb2eea6c2686f77218e7f73cde11f92c0dd8fa4bb1ebd7ed641b10bc82",
      "blockHash": "0x5349a7167f69c10a88f178e43fa0e54819ae286595edb63d5cecfb0de1875d52",
      "blockNumber": 119422,
      "transactionIndex": 15,
      "confirmations": null,
      "from": "0x52bc44d5378309EE2abF1539BF71dE1b7d7bE3b5",
      "gasPrice": {
        "_hex": "0xba43b7400"
      },
      "gasLimit": {
        "_hex": "0x61a8"
      },
      "to": "0x37Ec25ca582d94f0D66320C32902378798A3bDf2",
      "value": {
        "_hex": "0x91e2498b4f11b00"
      },
      "nonce": 671,
      "data": "0x",
      "r": "0xeab2358fb306a8346e367d5c2b26eb25447e2c2d64b2f6406dd069459acd704f",
      "s": "0x3d5f3f28d2d8d5e8e3120cb12eb066c7a228f0bae9c014ffc48c0ba2f596d56d",
      "v": 27,
      "creates": null,
      "raw": "0xf86e82029f850ba43b74008261a89437ec25ca582d94f0d66320c32902378798a3bdf288091e2498b4f11b00801ba0eab2358fb306a8346e367d5c2b26eb25447e2c2d64b2f6406dd069459acd704fa03d5f3f28d2d8d5e8e3120cb12eb066c7a228f0bae9c014ffc48c0ba2f596d56d",
      "networkId": 0,
      "chainId": 0
    },
    {
      "hash": "0xa8389ae855710324c2473dd9b2cc1dd612ba5b3fcbaa1bd19548dce6eacb1fe0",
      "blockHash": "0x5349a7167f69c10a88f178e43fa0e54819ae286595edb63d5cecfb0de1875d52",
      "blockNumber": 119422,
      "transactionIndex": 16,
      "confirmations": null,
      "from": "0x52bc44d5378309EE2abF1539BF71dE1b7d7bE3b5",
      "gasPrice": {
        "_hex": "0xba43b7400"
      },
      "gasLimit": {
        "_hex": "0x61a8"
      },
      "to": "0x0daE64E0af17d7AFce313812603520e1B7a1453E",
      "value": {
        "_hex": "0xd0791c99d62f540"
      },
      "nonce": 672,
      "data": "0x",
      "r": "0xfe0d8ba25265cc892ced81422bdce5ef3bd82b387981152160e576e6aec7e696",
      "s": "0x004e994391cf8cad1e26a38867c1a86f775930563c7f2397e8106fd50f6c5e80",
      "v": 27,
      "creates": null,
      "raw": "0xf86d8202a0850ba43b74008261a8940dae64e0af17d7afce313812603520e1b7a1453e880d0791c99d62f540801ba0fe0d8ba25265cc892ced81422bdce5ef3bd82b387981152160e576e6aec7e6969f4e994391cf8cad1e26a38867c1a86f775930563c7f2397e8106fd50f6c5e80",
      "networkId": 0,
      "chainId": 0
    },
    {
      "hash": "0xf840bc0a7fd9a025fcfb21d0b64d5074f153bd5607180741537dc9393f73107a",
      "blockHash": "0x5349a7167f69c10a88f178e43fa0e54819ae286595edb63d5cecfb0de1875d52",
      "blockNumber": 119422,
      "transactionIndex": 17,
      "confirmations": null,
      "from": "0x52bc44d5378309EE2abF1539BF71dE1b7d7bE3b5",
      "gasPrice": {
        "_hex": "0xba43b7400"
      },
      "gasLimit": {
        "_hex": "0x61a8"
      },
      "to": "0x2Ba293248CEDDE748A4b083fb63829d20D32607d",
      "value": {
        "_hex": "0x3b724df2be20ad80"
      },
      "nonce": 673,
      "data": "0x",
      "r": "0x0deafa267eaa67071a0102e370a552ec422d6d1e16dd73b7fead843e2355902d",
      "s": "0x4a9942939d9e4ce3454266951fa1e592352c48bb8476bcc69f4848e63661550c",
      "v": 28,
      "creates": null,
      "raw": "0xf86e8202a1850ba43b74008261a8942ba293248cedde748a4b083fb63829d20d32607d883b724df2be20ad80801ca00deafa267eaa67071a0102e370a552ec422d6d1e16dd73b7fead843e2355902da04a9942939d9e4ce3454266951fa1e592352c48bb8476bcc69f4848e63661550c",
      "networkId": 0,
      "chainId": 0
    },
    {
      "hash": "0xea50d10990021c0e3b58540cf0aa036a78827ff50e413dea34fd0c8ef9ef5d86",
      "blockHash": "0x5349a7167f69c10a88f178e43fa0e54819ae286595edb63d5cecfb0de1875d52",
      "blockNumber": 119422,
      "transactionIndex": 18,
      "confirmations": null,
      "from": "0x52bc44d5378309EE2abF1539BF71dE1b7d7bE3b5",
      "gasPrice": {
        "_hex": "0xba43b7400"
      },
      "gasLimit": {
        "_hex": "0x61a8"
      },
      "to": "0x66C8c4127D9Ab859531c8ee3F8f2025AFba1BAa8",
      "value": {
        "_hex": "0x1ff9ffbcff11a3c00"
      },
      "nonce": 674,
      "data": "0x",
      "r": "0xd2ff7293d5c55d9f48d18435241961587d66725eba913e57b305a852faa1e38e",
      "s": "0x1eadb1ce06e63647392007b9f70f4a416f8522d6fe5fe4271f1799604a89bd5b",
      "v": 27,
      "creates": null,
      "raw": "0xf86f8202a2850ba43b74008261a89466c8c4127d9ab859531c8ee3f8f2025afba1baa88901ff9ffbcff11a3c00801ba0d2ff7293d5c55d9f48d18435241961587d66725eba913e57b305a852faa1e38ea01eadb1ce06e63647392007b9f70f4a416f8522d6fe5fe4271f1799604a89bd5b",
      "networkId": 0,
      "chainId": 0
    },
    {
      "hash": "0x059714b3ddd1bba968c69cb78194a5981161c9425d5ecd13b844a05fe1c246b2",
      "blockHash": "0x5349a7167f69c10a88f178e43fa0e54819ae286595edb63d5cecfb0de1875d52",
      "blockNumber": 119422,
      "transactionIndex": 19,
      "confirmations": null,
      "from": "0x52bc44d5378309EE2abF1539BF71dE1b7d7bE3b5",
      "gasPrice": {
        "_hex": "0xba43b7400"
      },
      "gasLimit": {
        "_hex": "0x61a8"
      },
      "to": "0x9548127Dfd2D864e34B867533DFD46567C380952",
      "value": {
        "_hex": "0x99010ebdba3f400"
      },
      "nonce": 675,
      "data": "0x",
      "r": "0x06137958d80ba000fbeaf54487bb6761fecb0107eff5c04718b4f47e655e7147",
      "s": "0x35b16580f9f1eacefad151c11d80c3e3ad06563bf0c52663311ec1dbd20ede6a",
      "v": 28,
      "creates": null,
      "raw": "0xf86e8202a3850ba43b74008261a8949548127dfd2d864e34b867533dfd46567c38095288099010ebdba3f400801ca006137958d80ba000fbeaf54487bb6761fecb0107eff5c04718b4f47e655e7147a035b16580f9f1eacefad151c11d80c3e3ad06563bf0c52663311ec1dbd20ede6a",
      "networkId": 0,
      "chainId": 0
    },
    {
      "hash": "0x98653bab832264ccacd62f93873ff3476b0970f675cc7759977ae63e7fd55aca",
      "blockHash": "0x5349a7167f69c10a88f178e43fa0e54819ae286595edb63d5cecfb0de1875d52",
      "blockNumber": 119422,
      "transactionIndex": 20,
      "confirmations": null,
      "from": "0x52bc44d5378309EE2abF1539BF71dE1b7d7bE3b5",
      "gasPrice": {
        "_hex": "0xba43b7400"
      },
      "gasLimit": {
        "_hex": "0x61a8"
      },
      "to": "0x34f0F706648F334eDf39e555766d4EACD54D61dC",
      "value": {
        "_hex": "0x68420668bc3eb40"
      },
      "nonce": 676,
      "data": "0x",
      "r": "0x152a17e3097d099287fd30169e243dfc5ff0960e02da3cbd101300d5a26eca2f",
      "s": "0x5665ec62e9bb1583c2993800a3549cba59870f8e43cfe4676e9766ecd9385a5e",
      "v": 28,
      "creates": null,
      "raw": "0xf86e8202a4850ba43b74008261a89434f0f706648f334edf39e555766d4eacd54d61dc88068420668bc3eb40801ca0152a17e3097d099287fd30169e243dfc5ff0960e02da3cbd101300d5a26eca2fa05665ec62e9bb1583c2993800a3549cba59870f8e43cfe4676e9766ecd9385a5e",
      "networkId": 0,
      "chainId": 0
    },
    {
      "hash": "0xf5f04efc687500391e7db11be4e1c609ad2a7e7dbb1827600c9c9e8fb4413fa7",
      "blockHash": "0x5349a7167f69c10a88f178e43fa0e54819ae286595edb63d5cecfb0de1875d52",
      "blockNumber": 119422,
      "transactionIndex": 21,
      "confirmations": null,
      "from": "0x52bc44d5378309EE2abF1539BF71dE1b7d7bE3b5",
      "gasPrice": {
        "_hex": "0xba43b7400"
      },
      "gasLimit": {
        "_hex": "0x61a8"
      },
      "to": "0x1E550f4ecF22cBCb73da4fc090FBf5a5c748b0F1",
      "value": {
        "_hex": "0x15d8debb0c252580"
      },
      "nonce": 677,
      "data": "0x",
      "r": "0x47aade6ed3c641192042d944e2a80225b2b9b8ae9534775301796cf80b49569f",
      "s": "0x4b7a93ca6dc5a6047335fb96f19cc56cf9b737d1ac09723ff794fafb2bc3c2b0",
      "v": 28,
      "creates": null,
      "raw": "0xf86e8202a5850ba43b74008261a8941e550f4ecf22cbcb73da4fc090fbf5a5c748b0f18815d8debb0c252580801ca047aade6ed3c641192042d944e2a80225b2b9b8ae9534775301796cf80b49569fa04b7a93ca6dc5a6047335fb96f19cc56cf9b737d1ac09723ff794fafb2bc3c2b0",
      "networkId": 0,
      "chainId": 0
    },
    {
      "hash": "0x04a9909dabba28488fd9fa8f03702f0b1220b8f84ea23a0ac0bcd2636a938cfe",
      "blockHash": "0x5349a7167f69c10a88f178e43fa0e54819ae286595edb63d5cecfb0de1875d52",
      "blockNumber": 119422,
      "transactionIndex": 22,
      "confirmations": null,
      "from": "0x52bc44d5378309EE2abF1539BF71dE1b7d7bE3b5",
      "gasPrice": {
        "_hex": "0xba43b7400"
      },
      "gasLimit": {
        "_hex": "0x61a8"
      },
      "to": "0x2660299c07076aEB9cEF872a41EAF75E4C16020D",
      "value": {
        "_hex": "0xe02802989e65300"
      },
      "nonce": 678,
      "data": "0x",
      "r": "0x8a1256c94d8d2abce59b92ff305ecea52d239e058af83aa20e9a1e47969badc6",
      "s": "0x760a9a16e2d6295d7250ab84cdae314dae6ab8cbd736d185a29d27754b572f6c",
      "v": 27,
      "creates": null,
      "raw": "0xf86e8202a6850ba43b74008261a8942660299c07076aeb9cef872a41eaf75e4c16020d880e02802989e65300801ba08a1256c94d8d2abce59b92ff305ecea52d239e058af83aa20e9a1e47969badc6a0760a9a16e2d6295d7250ab84cdae314dae6ab8cbd736d185a29d27754b572f6c",
      "networkId": 0,
      "chainId": 0
    },
    {
      "hash": "0xbe27bb0758000b3ac7a548f7e9eb16969f60710c4a7482be3ce82d30d0a666ae",
      "blockHash": "0x5349a7167f69c10a88f178e43fa0e54819ae286595edb63d5cecfb0de1875d52",
      "blockNumber": 119422,
      "transactionIndex": 23,
      "confirmations": null,
      "from": "0x52bc44d5378309EE2abF1539BF71dE1b7d7bE3b5",
      "gasPrice": {
        "_hex": "0xba43b7400"
      },
      "gasLimit": {
        "_hex": "0x61a8"
      },
      "to": "0x8c6e4B005B8b30B027f9fFB8FA9BE1dFF6E72ABB",
      "value": {
        "_hex": "0x10e57b4674bc1e80"
      },
      "nonce": 679,
      "data": "0x",
      "r": "0x41c9eaac4bf302e9979bfbbc8a8c4b2b16734d04d4f78af7b6e5de97ad847a46",
      "s": "0x152db8282292c1d88181fde28ece604ce963b4beb008d6a0adeb2f8f91bccc06",
      "v": 27,
      "creates": null,
      "raw": "0xf86e8202a7850ba43b74008261a8948c6e4b005b8b30b027f9ffb8fa9be1dff6e72abb8810e57b4674bc1e80801ba041c9eaac4bf302e9979bfbbc8a8c4b2b16734d04d4f78af7b6e5de97ad847a46a0152db8282292c1d88181fde28ece604ce963b4beb008d6a0adeb2f8f91bccc06",
      "networkId": 0,
      "chainId": 0
    },
    {
      "hash": "0xc95297b079bc1d55bd638b23901fefb1c3b8e79f71228b77456a649699dfe828",
      "blockHash": "0x5349a7167f69c10a88f178e43fa0e54819ae286595edb63d5cecfb0de1875d52",
      "blockNumber": 119422,
      "transactionIndex": 24,
      "confirmations": null,
      "from": "0x52bc44d5378309EE2abF1539BF71dE1b7d7bE3b5",
      "gasPrice": {
        "_hex": "0xba43b7400"
      },
      "gasLimit": {
        "_hex": "0x61a8"
      },
      "to": "0xCFd78Fa2ad43e502442475aD34F87e777849c3b4",
      "value": {
        "_hex": "0xd0ed6847e9910c0"
      },
      "nonce": 680,
      "data": "0x",
      "r": "0x43ef9e32f50b215a44084d15b74029e3289e2495490366bbdd722266549a6d1e",
      "s": "0x60ee55691c33e2a26560dca41ab54237fd9e84c0534a5025a3244cd950ad877f",
      "v": 28,
      "creates": null,
      "raw": "0xf86e8202a8850ba43b74008261a894cfd78fa2ad43e502442475ad34f87e777849c3b4880d0ed6847e9910c0801ca043ef9e32f50b215a44084d15b74029e3289e2495490366bbdd722266549a6d1ea060ee55691c33e2a26560dca41ab54237fd9e84c0534a5025a3244cd950ad877f",
      "networkId": 0,
      "chainId": 0
    }
  ]
}