{
  "hash": "0xb55a2b8768cb4a11ee564942acf3140efeaa34ebd9513f524caff36a91caae25",
  "parentHash": "0xd3eedbbf98909e74d565faa57c475b98119ed0b9f8562de5f32bede327b2499a",
  "number": 108083,
  "timestamp": 1439933816,
  "nonce": "0xc5b0dc72058f68a5",
  "difficulty": 4381092512896,
  "gasLimit": {
    "_hex": "0x2fefd8"
  },
  "gasUsed": {
    "_hex": "0x1bdbe"
  },
  "miner": "0xa6BDc31c431B8F97848c9D60cbbe9660dc450eB7",
  "extraData": "0x",
  "transactions": [
    {
      "hash": "0x018a00b56a51c8e82202fef45d41c62cf35c085379cd9c22c28b9ce6f6a6e0a7",
      "blockHash": "0xb55a2b8768cb4a11ee564942acf3140efeaa34ebd9513f524caff36a91caae25",
      "blockNumber": 108083,
      "transactionIndex": 0,
      "confirmations": null,
      "from": "0x02E816AFC1b5C0f39852131959D946eb3b07b5ad",
      "gasPrice": {
        "_hex": "0xba43b7400"
      },
      "gasLimit": {
        "_hex": "0x249f0"
      },
      "to": "0xE28e72FCf78647ADCe1F1252F240bbfaebD63BcC",
      "value": {
        "_hex": "0x1043561a8829300000"
      },
      "nonce": 4,
      "data": "0x45466f3a",
      "r": "0x86e234752eef0f8c4cf2699986f36305e83cd9ad7657711e4c7f9383d764e638",
      "s": "0x6d05ce03ba45d332af5ae91ae127e113280891c35975f8f06e23037605592c27",
      "v": 27,
      "creates": null,
      "raw": "0xf87204850ba43b7400830249f094e28e72fcf78647adce1f1252f240bbfaebd63bcc891043561a88293000008445466f3a1ba086e234752eef0f8c4cf2699986f36305e83cd9ad7657711e4c7f9383d764e638a06d05ce03ba45d332af5ae91ae127e113280891c35975f8f06e23037605592c27",
      "networkId": 0,
      "chainId": 0
    }
  ]
}