{
  "hash": "0x144b45867c985fa14f0f350daf1530a148b2f2090506b3c36be1ff42be5ea2a5",
  "parentHash": "0xe72cfce62caa10093aa4b6255c5cc6cb57cfe6dd4b8090c4119712a9daaf5c4a",
  "number": 110355,
  "timestamp": 1439972439,
  "nonce": "0x9a7540b0e720bd1f",
  "difficulty": 4354317608185,
  "gasLimit": {
    "_hex": "0x2fefd8"
  },
  "gasUsed": {
    "_hex": "0xf618"
  },
  "miner": "0xe6A7a1d47ff21B6321162AEA7C6CB457D5476Bca",
  "extraData": "0x476574682f76312e302e312d38326566323666362f6c696e75782f676f312e34",
  "transactions": [
    {
      "hash": "0x2964f4ed57f928164955432766d1908c1caf05b3ef0aa70d62f46fdc07ad8b98",
      "blockHash": "0x144b45867c985fa14f0f350daf1530a148b2f2090506b3c36be1ff42be5ea2a5",
      "blockNumber": 110355,
      "transactionIndex": 0,
      "confirmations": null,
      "from": "0xad74C8133300eB63De8d69A384B1E8CcFe28DED7",
      "gasPrice": {
        "_hex": "0xd4d0e9498"
      },
      "gasLimit": {
        "_hex": "0x5208"
      },
      "to": "0x32Be343B94f860124dC4fEe278FDCBD38C102D88",
      "value": {
        "_hex": "0x2bc21261b6c10800"
      },
      "nonce": 7,
      "data": "0x",
      "r": "0x604882001d518305f8eb884f5e4502171b8d8ab130a080a0abf8a165275f5cd2",
      "s": "0x633c07821ecca0601e314e9989433772feab413349b1e2f2ca49c5ac598a088f",
      "v": 28,
      "creates": null,
      "raw": "0xf86c07850d4d0e94988252089432be343b94f860124dc4fee278fdcbd38c102d88882bc21261b6c10800801ca0604882001d518305f8eb884f5e4502171b8d8ab130a080a0abf8a165275f5cd2a0633c07821ecca0601e314e9989433772feab413349b1e2f2ca49c5ac598a088f",
      "networkId": 0,
      "chainId": 0
    },
    {
      "hash": "0xbbbe73bae60f3c601e2368829783798f590ac3ebbf6179b9a65def622ad6d00d",
      "blockHash": "0x144b45867c985fa14f0f350daf1530a148b2f2090506b3c36be1ff42be5ea2a5",
      "blockNumber": 110355,
      "transactionIndex": 1,
      "confirmations": null,
      "from": "0x6589D22b54648e5D67Dc008eBd0c836D3DF39c87",
      "gasPrice": {
        "_hex": "0xd4d0e9498"
      },
      "gasLimit": {
        "_hex": "0x5208"
      },
      "to": "0x32Be343B94f860124dC4fEe278FDCBD38C102D88",
      "value": {
        "_hex": "0x73460b9a4875b000"
      },
      "nonce": 8,
      "data": "0x",
      "r": "0x7c7acafd175fcc3cde09ac22c6762e5948705898f3780536635e8569416f332c",
      "s": "0x6e167dc0b868e6408606a0ca073c5fa56d80b2fd6f97aaaff1794a510b419c91",
      "v": 27,
      "creates": null,
      "raw": "0xf86c08850d4d0e94988252089432be343b94f860124dc4fee278fdcbd38c102d888873460b9a4875b000801ba07c7acafd175fcc3cde09ac22c6762e5948705898f3780536635e8569416f332ca06e167dc0b868e6408606a0ca073c5fa56d80b2fd6f97aaaff1794a510b419c91",
      "networkId": 0,
      "chainId": 0
    },
    {
      "hash": "0xd6fcbc71dadcb25cc54be09555927ea189440414a60cca27e1696d97a00d4dd2",
      "blockHash": "0x144b45867c985fa14f0f350daf1530a148b2f2090506b3c36be1ff42be5ea2a5",
      "blockNumber": 110355,
      "transactionIndex": 2,
      "confirmations": null,
      "from": "0x36c510bf8d6e569BF2F37d47265dbcB502Ff2BcE",
      "gasPrice": {
        "_hex": "0xd060bb7cb"
      },
      "gasLimit": {
        "_hex": "0x15f90"
      },
      "to": "0x066A8A05e59870FBd1e75837Ae8C2849Cb526599",
      "value": {
        "_hex": "0x6c6b935b8bbd400000"
      },
      "nonce": 5,
      "data": "0x",
      "r": "0xbae0cbb660cfa0a67b88968c8a0b9568b0a2d669e3e643169edddfdccf7ad243",
      "s": "0x1277ee9daf02dd293c2958f70a24a0ed996d2792774ec52e41c22d3d454bb263",
      "v": 27,
      "creates": null,
      "raw": "0xf86e05850d060bb7cb83015f9094066a8a05e59870fbd1e75837ae8c2849cb526599896c6b935b8bbd400000801ba0bae0cbb660cfa0a67b88968c8a0b9568b0a2d669e3e643169edddfdccf7ad243a01277ee9daf02dd293c2958f70a24a0ed996d2792774ec52e41c22d3d454bb263",
      "networkId": 0,
      "chainId": 0
    }
  ]
}