{
  "hash": "0x40d05d24387e844cbb1c6a85071e7b8ec938556a9003885efacc50522546c991",
  "parentHash": "0xc9d00cbc61679b8160c979f9d9e39438080fbe6a647c19f9f30fe20f90d05167",
  "number": 61770,
  "timestamp": 1439177942,
  "nonce": "0xb5a39b9e6c0e554b",
  "difficulty": 1729375564952,
  "gasLimit": {
    "_hex": "0x2fefd8"
  },
  "gasUsed": {
    "_hex": "0xf618"
  },
  "miner": "0xf32866D5cE9a9b5673e076be48AbCd6ED48ADe78",
  "extraData": "0x476574682f76312e302e312d37666266393930632f6c696e75782f676f312e34",
  "transactions": [
    {
      "hash": "0x8685a04e144871936648171112adcf884b12b28cd4b4f70e06a083385ce885e3",
      "blockHash": "0x40d05d24387e844cbb1c6a85071e7b8ec938556a9003885efacc50522546c991",
      "blockNumber": 61770,
      "transactionIndex": 0,
      "confirmations": null,
      "from": "0x1308A2e95c0160B90803ddCA9B9a5bb55E416d79",
      "gasPrice": {
        "_hex": "0xe8d4a51000"
      },
      "gasLimit": {
        "_hex": "0x15f90"
      },
      "to": "0xAa45AAEc400D41a9176810509840A0a4DC27d05a",
      "value": {
        "_hex": "0xde0b6b3a7640000"
      },
      "nonce": 104,
      "data": "0x",
      "r": "0x930b6f809fb845fec944fe02c2c2ff22eae9ea217674de6a6ad2e48e9100081d",
      "s": "0x50571031bccbb63f2a06c2439b08e76593a902f1b1bec570f4f958a026b011cd",
      "v": 27,
      "creates": null,
      "raw": "0xf86d6885e8d4a5100083015f9094aa45aaec400d41a9176810509840a0a4dc27d05a880de0b6b3a7640000801ba0930b6f809fb845fec944fe02c2c2ff22eae9ea217674de6a6ad2e48e9100081da050571031bccbb63f2a06c2439b08e76593a902f1b1bec570f4f958a026b011cd",
      "networkId": 0,
      "chainId": 0
    },
    {
      "hash": "0xd1eddfbd7400b9137d0e92f5032bcc3f0cbcc473163c3a2a5297c3153e28ffaa",
      "blockHash": "0x40d05d24387e844cbb1c6a85071e7b8ec938556a9003885efacc50522546c991",
      "blockNumber": 61770,
      "transactionIndex": 1,
      "confirmations": null,
      "from": "0xbC3C68fd00888CFD2178537ab2435837Fa9A3cD2",
      "gasPrice": {
        "_hex": "0xcd12c5380"
      },
      "gasLimit": {
        "_hex": "0x5208"
      },
      "to": "0x32Be343B94f860124dC4fEe278FDCBD38C102D88",
      "value": {
        "_hex": "0xcc8fe06063a28000"
      },
      "nonce": 0,
      "data": "0x",
      "r": "0x87e9ca741e3f861427212e8ebf674a7325b09620d6dd8c632ac2fd214ac24758",
      "s": "0x0621d0e4f1864cf4ec589ff2fd606eac15d93a2658a56d903ea142bc94550eea",
      "v": 28,
      "creates": null,
      "raw": "0xf86c80850cd12c53808252089432be343b94f860124dc4fee278fdcbd38c102d8888cc8fe06063a28000801ca087e9ca741e3f861427212e8ebf674a7325b09620d6dd8c632ac2fd214ac24758a00621d0e4f1864cf4ec589ff2fd606eac15d93a2658a56d903ea142bc94550eea",
      "networkId": 0,
      "chainId": 0
    },
    {
      "hash": "0xbc72d043d09b8abfeb2d0e54b9c93dd6ae6b384cc9076119f089a87a52b1f456",
      "blockHash": "0x40d05d24387e844cbb1c6a85071e7b8ec938556a9003885efacc50522546c991",
      "blockNumber": 61770,
      "transactionIndex": 2,
      "confirmations": null,
      "from": "0x431FDD9f2Fdc4A532867E0e0a85463436807d17C",
      "gasPrice": {
        "_hex": "0xcd12c5380"
      },
      "gasLimit": {
        "_hex": "0x5208"
      },
      "to": "0x32Be343B94f860124dC4fEe278FDCBD38C102D88",
      "value": {
        "_hex": "0x455f761b0f741400"
      },
      "nonce": 0,
      "data": "0x",
      "r": "0x7b33cd0dc7226450b6d7e7a336692bcab3c6476bc94d7a64b2ba40c0eb0b2d38",
      "s": "0x5db64143cdddfe390cfdd394b6e0b1d7d4be734d8b8f35f54aeef90c75dab228",
      "v": 27,
      "creates": null,
      "raw": "0xf86c80850cd12c53808252089432be343b94f860124dc4fee278fdcbd38c102d8888455f761b0f741400801ba07b33cd0dc7226450b6d7e7a336692bcab3c6476bc94d7a64b2ba40c0eb0b2d38a05db64143cdddfe390cfdd394b6e0b1d7d4be734d8b8f35f54aeef90c75dab228",
      "networkId": 0,
      "chainId": 0
    }
  ]
}