{
  "hash": "0x76f0e9033791aa548e1d33673929dc565a22ed6adfc5342a5656e8b82f88ca15",
  "parentHash": "0xaafae018a37a26daac9da1256c9ae8d9c4a11bccfa3baccfdc98dd640e7de174",
  "number": 73048,
  "timestamp": 1439362300,
  "nonce": "0x2929b417278ad91d",
  "difficulty": 2224085151487,
  "gasLimit": {
    "_hex": "0x2fefd8"
  },
  "gasUsed": {
    "_hex": "0x5208"
  },
  "miner": "0xB1F9FAAfe5f917d92EBf5b21C25dC77c2CF86000",
  "extraData": "0x476574682f76312e302e312f77696e646f77732f676f312e342e32",
  "transactions": [
    {
      "hash": "0x0aa4386276c14eb7c79b8508b589fc920684c6a8444a1f621aca9785828ad83d",
      "blockHash": "0x76f0e9033791aa548e1d33673929dc565a22ed6adfc5342a5656e8b82f88ca15",
      "blockNumber": 73048,
      "transactionIndex": 0,
      "confirmations": null,
      "from": "0x496F5843F6D24cd98D255e4c23d1E1F023227545",
      "gasPrice": {
        "_hex": "0x746a528800"
      },
      "gasLimit": {
        "_hex": "0x5267"
      },
      "to": "0x117D2945355d346cE6637d6D5CC9A9E46CB43B73",
      "value": {
        "_hex": "0x28dfda1d2304880000"
      },
      "nonce": 0,
      "data": "0x",
      "r": "0x3831c9af414715e6342ac664685b1dbb5d48d02a005bc0a0b107e7cb81adcf97",
      "s": "0x22169e48f98adeb58165a0c7ccc641a3977a23e0d1836e112afe28edad5f99cc",
      "v": 27,
      "creates": null,
      "raw": "0xf86d8085746a52880082526794117d2945355d346ce6637d6d5cc9a9e46cb43b738928dfda1d2304880000801ba03831c9af414715e6342ac664685b1dbb5d48d02a005bc0a0b107e7cb81adcf97a022169e48f98adeb58165a0c7ccc641a3977a23e0d1836e112afe28edad5f99cc",
      "networkId": 0,
      "chainId": 0
    }
  ]
}