{
  "hash": "0xac50df661c158645c7cca4a758e1e6f026ebcdac802d7376e2b829cf7acc2d02",
  "parentHash": "0xc95e99708e7f9d5d278fad15cc2ab07e46b7585a3c85ede058e2af1059439ae2",
  "number": 107388,
  "timestamp": 1439921616,
  "nonce": "0xdd21a91864ce34e8",
  "difficulty": 4400752317324,
  "gasLimit": {
    "_hex": "0x2fefd8"
  },
  "gasUsed": {
    "_hex": "0xa410"
  },
  "miner": "0x623d2411c3bb3340784155F9a688b0085251aB5c",
  "extraData": "0x",
  "transactions": [
    {
      "hash": "0x27a5d76b7a35e441d1e8a21a353ab62476ba2c86de0cdf38228731c49610d37e",
      "blockHash": "0xac50df661c158645c7cca4a758e1e6f026ebcdac802d7376e2b829cf7acc2d02",
      "blockNumber": 107388,
      "transactionIndex": 0,
      "confirmations": null,
      "from": "0xa61ff394e3846F8bfbBF8801afb051730B04Ee75",
      "gasPrice": {
        "_hex": "0xd87895689"
      },
      "gasLimit": {
        "_hex": "0x5208"
      },
      "to": "0x32Be343B94f860124dC4fEe278FDCBD38C102D88",
      "value": {
        "_hex": "0x455f2fbaa00a6c00"
      },
      "nonce": 15,
      "data": "0x",
      "r": "0x09317ed18fe282db16346e037645c9f0eaa42f76adee78a138d6221ed695ca79",
      "s": "0x434580ccdf6a58e85081ee5aadf25b475cf6f1891bbd559c429ec9040c18cf65",
      "v": 28,
      "creates": null,
      "raw": "0xf86c0f850d878956898252089432be343b94f860124dc4fee278fdcbd38c102d8888455f2fbaa00a6c00801ca009317ed18fe282db16346e037645c9f0eaa42f76adee78a138d6221ed695ca79a0434580ccdf6a58e85081ee5aadf25b475cf6f1891bbd559c429ec9040c18cf65",
      "networkId": 0,
      "chainId": 0
    },
    {
      "hash": "0xa912d40def499bc1b49de20013d2ddd634f67af2e8aa47d2f467054b3bda992d",
      "blockHash": "0xac50df661c158645c7cca4a758e1e6f026ebcdac802d7376e2b829cf7acc2d02",
      "blockNumber": 107388,
      "transactionIndex": 1,
      "confirmations": null,
      "from": "0x0D4EcC7d750180EBf4A9Df728B6669B5Bceb5E40",
      "gasPrice": {
        "_hex": "0xd87895689"
      },
      "gasLimit": {
        "_hex": "0x5208"
      },
      "to": "0x32Be343B94f860124dC4fEe278FDCBD38C102D88",
      "value": {
        "_hex": "0x456772fed2ac6c00"
      },
      "nonce": 83,
      "data": "0x",
      "r": "0x3b763638add1ea64fc9b433da4e287432e14cc75ce22c2c1a54364480a01aeb6",
      "s": "0x72112c4429ad41668bf4a272344dda642d31421ffec4a1d98bbd0feedb0826db",
      "v": 27,
      "creates": null,
      "raw": "0xf86c53850d878956898252089432be343b94f860124dc4fee278fdcbd38c102d8888456772fed2ac6c00801ba03b763638add1ea64fc9b433da4e287432e14cc75ce22c2c1a54364480a01aeb6a072112c4429ad41668bf4a272344dda642d31421ffec4a1d98bbd0feedb0826db",
      "networkId": 0,
      "chainId": 0
    }
  ]
}