{
  "hash": "0x7d805171f46eec62149238945e8d30574c547a9acd66a033ad65325c1f46617f",
  "parentHash": "0x0f449b3b0945fb3d7e217c03dc1fa280fa757b4368c33520f06dbeb770431195",
  "number": 119922,
  "timestamp": 1440150901,
  "nonce": "0x5c130a7054b810a9",
  "difficulty": 4420004497273,
  "gasLimit": {
    "_hex": "0x2fefd8"
  },
  "gasUsed": {
    "_hex": "0x5208"
  },
  "miner": "0xe6A7a1d47ff21B6321162AEA7C6CB457D5476Bca",
  "extraData": "0xd783010002844765746887676f312e342e32856c696e7578",
  "transactions": [
    {
      "hash": "0x8fd9841a20e84fc32994d4c970369c57c144d70c4be95795c6f7ac9c96db417b",
      "blockHash": "0x7d805171f46eec62149238945e8d30574c547a9acd66a033ad65325c1f46617f",
      "blockNumber": 119922,
      "transactionIndex": 0,
      "confirmations": null,
      "from": "0x379965B927911bcF18D2d4F062Edf10c45847069",
      "gasPrice": {
        "_hex": "0xba43b7400"
      },
      "gasLimit": {
        "_hex": "0x5267"
      },
      "to": "0xE9820EfC74A9fe5fb68bf1e0FBf9945c1302bC0B",
      "value": {
        "_hex": "0xde0b6b3a7640000"
      },
      "nonce": 12,
      "data": "0x",
      "r": "0x5909519c3b764e21ee06c96efeef8ec70d4391494d55b4d8467fb455259e473c",
      "s": "0x9133074d9e72e5ecc3e3b546780e75e9fa7eb8b0f70f8795e57649c69bb36053",
      "v": 27,
      "creates": null,
      "raw": "0xf86c0c850ba43b740082526794e9820efc74a9fe5fb68bf1e0fbf9945c1302bc0b880de0b6b3a7640000801ba05909519c3b764e21ee06c96efeef8ec70d4391494d55b4d8467fb455259e473ca09133074d9e72e5ecc3e3b546780e75e9fa7eb8b0f70f8795e57649c69bb36053",
      "networkId": 0,
      "chainId": 0
    }
  ]
}