{
  "hash": "0x1cba282aef63d6cf6159ad8b658d1d921621d79f3f847d03b200993b4630dcc0",
  "parentHash": "0x587a3c9b265ae9bd250da7b6871ab8b0d516f3370f811524dafa76a244a35cfb",
  "number": 91881,
  "timestamp": 1439663100,
  "nonce": "0xc20405e2ec328396",
  "difficulty": 3479218366326,
  "gasLimit": {
    "_hex": "0x2fefd8"
  },
  "gasUsed": {
    "_hex": "0x5208"
  },
  "miner": "0xe6A7a1d47ff21B6321162AEA7C6CB457D5476Bca",
  "extraData": "0x476574682f76312e302e312d38326566323666362f6c696e75782f676f312e34",
  "transactions": [
    {
      "hash": "0x40eb5f1f89bb5e1a051abeeb2317e9c300957df69f48bfabb62b5e28d5ef066b",
      "blockHash": "0x1cba282aef63d6cf6159ad8b658d1d921621d79f3f847d03b200993b4630dcc0",
      "blockNumber": 91881,
      "transactionIndex": 0,
      "confirmations": null,
      "from": "0x3125489a20C268f9Bc735f8e0909d21aa7c098fD",
      "gasPrice": {
        "_hex": "0xba43b7400"
      },
      "gasLimit": {
        "_hex": "0x5267"
      },
      "to": "0x3D96803b62814598744c91D312be9d41592F5FCC",
      "value": {
        "_hex": "0x29a2241af62c0000"
      },
      "nonce": 1,
      "data": "0x",
      "r": "0x3aa5df2ad5f933ee622813fd217e794ffdecfb40f8680e9caf65290bb8561657",
      "s": "0xb5500ec59fb13041a400ac3d1ff131d68b975682647503792d520a9f7dd30bb9",
      "v": 28,
      "creates": null,
      "raw": "0xf86c01850ba43b7400825267943d96803b62814598744c91d312be9d41592f5fcc8829a2241af62c0000801ca03aa5df2ad5f933ee622813fd217e794ffdecfb40f8680e9caf65290bb8561657a0b5500ec59fb13041a400ac3d1ff131d68b975682647503792d520a9f7dd30bb9",
      "networkId": 0,
      "chainId": 0
    }
  ]
}