{
  "hash": "0x368d6a5cc4faf3b2ee032e7f42b8fb3e2738585621badbd7687d3657c8da8985",
  "parentHash": "0xa7651124ac61387f381413389b1d6baa516e4770a9b243d3720c70c204b4a158",
  "number": 103775,
  "timestamp": 1439858745,
  "nonce": "0x6a618c492e977bad",
  "difficulty": 4223661057797,
  "gasLimit": {
    "_hex": "0x2fefd8"
  },
  "gasUsed": {
    "_hex": "0x5208"
  },
  "miner": "0x580992B51e3925e23280EfB93d3047C82f17E038",
  "extraData": "0x476574682f76312e302e312f6c696e75782f676f312e342e32",
  "transactions": [
    {
      "hash": "0xe20dad8764f892bd22d5acab6946ac06c5678b9bb5f4727e0d1a9dc145000db4",
      "blockHash": "0x368d6a5cc4faf3b2ee032e7f42b8fb3e2738585621badbd7687d3657c8da8985",
      "blockNumber": 103775,
      "transactionIndex": 0,
      "confirmations": null,
      "from": "0x32Be343B94f860124dC4fEe278FDCBD38C102D88",
      "gasPrice": {
        "_hex": "0xe0cd4eace"
      },
      "gasLimit": {
        "_hex": "0x5208"
      },
      "to": "0xAaA4BEfA989B980188a418Cc5C4C02E7d9103818",
      "value": {
        "_hex": "0x1fa7e8965f4de70000"
      },
      "nonce": 1136,
      "data": "0x",
      "r": "0x1728272667ee0087ce76bde6c8dc137d337d374941e820f02c5f1db28b486583",
      "s": "0x7daeeebfcf2ec65387b09c1c4b5470bff5bc0695cd65ca9fed713ac26e7017c9",
      "v": 27,
      "creates": null,
      "raw": "0xf86f820470850e0cd4eace82520894aaa4befa989b980188a418cc5c4c02e7d9103818891fa7e8965f4de70000801ba01728272667ee0087ce76bde6c8dc137d337d374941e820f02c5f1db28b486583a07daeeebfcf2ec65387b09c1c4b5470bff5bc0695cd65ca9fed713ac26e7017c9",
      "networkId": 0,
      "chainId": 0
    }
  ]
}