{
  "hash": "0x3e51f9b5aea9478450edc2bd5206538f5ad04621a2a10cd9d47e5110542f8d86",
  "parentHash": "0x3401ea713bccb17d730dbce7e434c0dc2b8324355c616aca6d3cc177b3957b09",
  "number": 80462,
  "timestamp": 1439485836,
  "nonce": "0x9c0b1163971de30c",
  "difficulty": 2414445524959,
  "gasLimit": {
    "_hex": "0x2fefd8"
  },
  "gasUsed": {
    "_hex": "0xfc3f"
  },
  "miner": "0x05f74a38293C914C6B14a39f5d8dEa98f22E4FBA",
  "extraData": "0x",
  "transactions": [
    {
      "hash": "0xd0c0d5d36960624a7564fdf52e68742ea44b4a5b9e5ec844f53f56320109a1e2",
      "blockHash": "0x3e51f9b5aea9478450edc2bd5206538f5ad04621a2a10cd9d47e5110542f8d86",
      "blockNumber": 80462,
      "transactionIndex": 0,
      "confirmations": null,
      "from": "0x87C5B5874A18B4306DF8a752a6C8cc3E82daFc19",
      "gasPrice": {
        "_hex": "0x10ef7fe711a"
      },
      "gasLimit": {
        "_hex": "0x493e0"
      },
      "to": "0xC4c51de1AbF5D60DBd329eC0F999Fd8f021ae9fC",
      "value": {
        "_hex": "0x0"
      },
      "nonce": 214,
      "data": "0x03750d9400000000000000000000000087c5b5874a18b4306df8a752a6c8cc3e82dafc196b6b6b0000000000000000000000000000000000000000000000000000000000",
      "r": "0x88e58193e7c977916cc60d4e9058f075d7853e8a83010f908375262675e44981",
      "s": "0x1f9e182543558d17264d777e9593dda0f3539ff1382e494cacc5fc714e3d037f",
      "v": 28,
      "creates": null,
      "raw": "0xf8ac81d686010ef7fe711a830493e094c4c51de1abf5d60dbd329ec0f999fd8f021ae9fc80b84403750d9400000000000000000000000087c5b5874a18b4306df8a752a6c8cc3e82dafc196b6b6b00000000000000000000000000000000000000000000000000000000001ca088e58193e7c977916cc60d4e9058f075d7853e8a83010f908375262675e44981a01f9e182543558d17264d777e9593dda0f3539ff1382e494cacc5fc714e3d037f",
      "networkId": 0,
      "chainId": 0
    },
    {
      "hash": "0x31d7e4396e9a9c84876f18fa1133f7c9e51cd95a81a37d6c4a331da94b795876",
      "blockHash": "0x3e51f9b5aea9478450edc2bd5206538f5ad04621a2a10cd9d47e5110542f8d86",
      "blockNumber": 80462,
      "transactionIndex": 1,
      "confirmations": null,
      "from": "0xF2d2AfF1320476cb8C6b607199D23175cc595693",
      "gasPrice": {
        "_hex": "0xcd6b7a009"
      },
      "gasLimit": {
        "_hex": "0x15f90"
      },
      "to": "0xF5EeDc192aB70b08D8354384aD94efD095849E00",
      "value": {
        "_hex": "0x2b5e3af16b1880000"
      },
      "nonce": 33,
      "data": "0x",
      "r": "0xb39a714c22037e9a583a3e3454af6758de97c0427193fd0c144bb7bf09320920",
      "s": "0x0cee8c8165a7c1e32e465ba84f75beb8097931b8469e94a41a33e3bc4b200ea9",
      "v": 27,
      "creates": null,
      "raw": "0xf86e21850cd6b7a00983015f9094f5eedc192ab70b08d8354384ad94efd095849e008902b5e3af16b1880000801ba0b39a714c22037e9a583a3e3454af6758de97c0427193fd0c144bb7bf09320920a00cee8c8165a7c1e32e465ba84f75beb8097931b8469e94a41a33e3bc4b200ea9",
      "networkId": 0,
      "chainId": 0
    }
  ]
}