{
  "hash": "0x0494ebf1954dba57130449a123f70f57ac008b846f342ec080f6b0e4703a9783",
  "parentHash": "0xebf3cd98a74a41bbd410d747be7b14a041e8517f94132263b0cdf5f46479ca31",
  "number": 104203,
  "timestamp": 1439866047,
  "nonce": "0x4a0565a69f618073",
  "difficulty": 4269059169511,
  "gasLimit": {
    "_hex": "0x2fefd8"
  },
  "gasUsed": {
    "_hex": "0x3f290"
  },
  "miner": "0xEc98b7A32A91F21203E7DB60feABDA1eDD7ef5bb",
  "extraData": "0x476574682f76312e302e312f6c696e75782f676f312e342e32",
  "transactions": [
    {
      "hash": "0xd1b062bb95cb53da67cd83c69a7abdc500e64a351ad3dcc3ca167c6b55e503da",
      "blockHash": "0x0494ebf1954dba57130449a123f70f57ac008b846f342ec080f6b0e4703a9783",
      "blockNumber": 104203,
      "transactionIndex": 0,
      "confirmations": null,
      "from": "0x77b97786B0FB73e55d9E92d4B182beFBF346F979",
      "gasPrice": {
        "_hex": "0xce5f5dd2b"
      },
      "gasLimit": {
        "_hex": "0x2fefd8"
      },
      "to": "0xcf2405263b7E0D11EEC326b2Da9d4b0d5463246b",
      "value": {
        "_hex": "0x16345785d8a0000"
      },
      "nonce": 17,
      "data": "0x1335ff360000000000000000000000000000000036943a9cdc96e259860192803b6af09d000000000000000000000000000000000000000000000000000000000000000000000000000000000000000000000000000000000000000000000000000000020000000000000000000000000000000000000000000000000000000055d41b5f000000000000000000000000e37673a8e0aaa536828f0d5b0ddba12fece1115c0000000000000000000000000000000000000000000000000000000000000000000000000000000000000000000000000000000000000000000000000000000000000000000000000000000000000000000000000000000000000000000000000000000000000000000000000000000000000000000000000000000000000000",
      "r": "0x5e78065399fb10b214d6b1f3a0ea618834deaba3060f9eeaf46fe48a55021d35",
      "s": "0x25dfeb34d6adbfab2f4122ba5ac5e7374fad27a20a39d33d09ad0a7379c9793a",
      "v": 28,
      "creates": null,
      "raw": "0xf9019311850ce5f5dd2b832fefd894cf2405263b7e0d11eec326b2da9d4b0d5463246b88016345785d8a0000b901241335ff360000000000000000000000000000000036943a9cdc96e259860192803b6af09d000000000000000000000000000000000000000000000000000000000000000000000000000000000000000000000000000000000000000000000000000000020000000000000000000000000000000000000000000000000000000055d41b5f000000000000000000000000e37673a8e0aaa536828f0d5b0ddba12fece1115c00000000000000000000000000000000000000000000000000000000000000000000000000000000000000000000000000000000000000000000000000000000000000000000000000000000000000000000000000000000000000000000000000000000000000000000000000000000000000000000000000000000000000001ca05e78065399fb10b214d6b1f3a0ea618834deaba3060f9eeaf46fe48a55021d35a025dfeb34d6adbfab2f4122ba5ac5e7374fad27a20a39d33d09ad0a7379c9793a",
      "networkId": 0,
      "chainId": 0
    }
  ]
}