{
  "hash": "0x958f4ff965a20d2233661b50356177115c8d728cffb5c21f71fdce4f0c1d6f1b",
  "parentHash": "0xd51add281e2940edba2a0f5860a06c1a7057c97562fd1f44504341db6dc1fca6",
  "number": 101386,
  "timestamp": 1439822243,
  "nonce": "0x70c34d87dce9fdb8",
  "difficulty": 3822441780766,
  "gasLimit": {
    "_hex": "0x2fefd8"
  },
  "gasUsed": {
    "_hex": "0x5208"
  },
  "miner": "0xe6A7a1d47ff21B6321162AEA7C6CB457D5476Bca",
  "extraData": "0x476574682f76312e302e312d38326566323666362f6c696e75782f676f312e34",
  "transactions": [
    {
      "hash": "0xd890d6c1f819d608c699036f3f579f2061db07ddfe705d349c4a619f9f4300e7",
      "blockHash": "0x958f4ff965a20d2233661b50356177115c8d728cffb5c21f71fdce4f0c1d6f1b",
      "blockNumber": 101386,
      "transactionIndex": 0,
      "confirmations": null,
      "from": "0x007f7f58D3eb5b7510A301eCC749FC1fCDDBE14D",
      "gasPrice": {
        "_hex": "0xe0cfe7246"
      },
      "gasLimit": {
        "_hex": "0x15f90"
      },
      "to": "0xb1abce2918E21ddb93AA452731a12672A3d9F75a",
      "value": {
        "_hex": "0x4563918244f40000"
      },
      "nonce": 187,
      "data": "0x",
      "r": "0xe039dafe0457e3e7cdc8348ffb7de8b1ecc3dd50216b12634e0a2adc0b012044",
      "s": "0x42641b6b6d0c3a0c4034c98e7542ff66b0a4c411159c30a7b9ad4699eb41aa22",
      "v": 27,
      "creates": null,
      "raw": "0xf86e81bb850e0cfe724683015f9094b1abce2918e21ddb93aa452731a12672a3d9f75a884563918244f40000801ba0e039dafe0457e3e7cdc8348ffb7de8b1ecc3dd50216b12634e0a2adc0b012044a042641b6b6d0c3a0c4034c98e7542ff66b0a4c411159c30a7b9ad4699eb41aa22",
      "networkId": 0,
      "chainId": 0
    }
  ]
}