{
  "hash": "0x575852ca23cc11e1e314483e3365862793f61798bdc055ccb9525425807aa74e",
  "parentHash": "0x3f88616686e70f2c944cc4b6402f3faf1a9343da6357a1d20744ad0cdfa2be9d",
  "number": 105979,
  "timestamp": 1439896637,
  "nonce": "0xd425f9dad205b456",
  "difficulty": 4459903228799,
  "gasLimit": {
    "_hex": "0x2fefd8"
  },
  "gasUsed": {
    "_hex": "0x179ff"
  },
  "miner": "0xA55A736A19c5367e01F9DA25227cbE1AFc48D7f3",
  "extraData": "0x476574682f76312e302e312f77696e646f77732f676f312e342e32",
  "transactions": [
    {
      "hash": "0x96385af2692c746d11bdd2bb38f66f574548f2b47a0b3b83c65122ad98ed4da6",
      "blockHash": "0x575852ca23cc11e1e314483e3365862793f61798bdc055ccb9525425807aa74e",
      "blockNumber": 105979,
      "transactionIndex": 0,
      "confirmations": null,
      "from": "0x87C5B5874A18B4306DF8a752a6C8cc3E82daFc19",
      "gasPrice": {
        "_hex": "0x116002e0d36"
      },
      "gasLimit": {
        "_hex": "0x493e0"
      },
      "to": "0xD79B4C6791784184e2755B2fC1659eaaB0f80456",
      "value": {
        "_hex": "0x16e8895022cfc83c"
      },
      "nonce": 319,
      "data": "0x8d2161860000000000000000000000000000000000000000000000000000000000000007d3d96ceed0cfca4794c2a5a3d3aeefe69da0a2a669e66a5651f30b64831c3db0",
      "r": "0x076665636af0611e8e40a06e21546eca04b52de5e51029287d9fb30a75da0703",
      "s": "0x6ea0ddf3cc21d380d3192fbbc80a4b6f5f6bf7aa311cf79a283369439c0409dd",
      "v": 27,
      "creates": null,
      "raw": "0xf8b582013f860116002e0d36830493e094d79b4c6791784184e2755b2fc1659eaab0f804568816e8895022cfc83cb8448d2161860000000000000000000000000000000000000000000000000000000000000007d3d96ceed0cfca4794c2a5a3d3aeefe69da0a2a669e66a5651f30b64831c3db01ba0076665636af0611e8e40a06e21546eca04b52de5e51029287d9fb30a75da0703a06ea0ddf3cc21d380d3192fbbc80a4b6f5f6bf7aa311cf79a283369439c0409dd",
      "networkId": 0,
      "chainId": 0
    }
  ]
}