{
  "hash": "0xeecb227f1470b79248d0372ac9ea4fcbc00c41052bef9e7f2a25e0c9c5508b3f",
  "parentHash": "0x0773acb3435891b4c85993b8593a22161aedf7a83c62edb9395c0ff7f0ca8ce6",
  "number": 121469,
  "timestamp": 1440177540,
  "nonce": "0xebecc8786d6a6155",
  "difficulty": 4438652451112,
  "gasLimit": {
    "_hex": "0x2fefd8"
  },
  "gasUsed": {
    "_hex": "0xa410"
  },
  "miner": "0xe6A7a1d47ff21B6321162AEA7C6CB457D5476Bca",
  "extraData": "0xd783010002844765746887676f312e342e32856c696e7578",
  "transactions": [
    {
      "hash": "0x6020a0063d32901f133d64cf5ac1cbbd54e01caba1f98e344de9f98c51cc1782",
      "blockHash": "0xeecb227f1470b79248d0372ac9ea4fcbc00c41052bef9e7f2a25e0c9c5508b3f",
      "blockNumber": 121469,
      "transactionIndex": 0,
      "confirmations": null,
      "from": "0x32Be343B94f860124dC4fEe278FDCBD38C102D88",
      "gasPrice": {
        "_hex": "0xba43b7400"
      },
      "gasLimit": {
        "_hex": "0x5208"
      },
      "to": "0xBdF25376dA0767EfBF7eE3dCAe463ECe5572bFF3",
      "value": {
        "_hex": "0xb5253be5c9f3d0000"
      },
      "nonce": 1555,
      "data": "0x",
      "r": "0x3089e4e12e0d938d7a2a5fa9855c6a3fed7e656c190432e494e94474e63bd7ef",
      "s": "0x106cc8ca168cd7b52e848c69ab0a789fd86a8f1ce3a079fffc2f7f600c293325",
      "v": 28,
      "creates": null,
      "raw": "0xf86f820613850ba43b740082520894bdf25376da0767efbf7ee3dcae463ece5572bff3890b5253be5c9f3d0000801ca03089e4e12e0d938d7a2a5fa9855c6a3fed7e656c190432e494e94474e63bd7efa0106cc8ca168cd7b52e848c69ab0a789fd86a8f1ce3a079fffc2f7f600c293325",
      "networkId": 0,
      "chainId": 0
    },
    {
      "hash": "0xa29dc5e1190c567a8a913e5e0cc49eec386faf2bb33564f22ba10f0cf9e84744",
      "blockHash": "0xeecb227f1470b79248d0372ac9ea4fcbc00c41052bef9e7f2a25e0c9c5508b3f",
      "blockNumber": 121469,
      "transactionIndex": 1,
      "confirmations": null,
      "from": "0x32Be343B94f860124dC4fEe278FDCBD38C102D88",
      "gasPrice": {
        "_hex": "0xba43b7400"
      },
      "gasLimit": {
        "_hex": "0x5208"
      },
      "to": "0xC656F7262cA45C1Af32d07774d666816c4ad6d83",
      "value": {
        "_hex": "0x1383dd65b0f4df0000"
      },
      "nonce": 1556,
      "data": "0x",
      "r": "0x8c5372e133002549eeec188c303c9a0554f423c587b1f59ef3ac1a1ef575ad86",
      "s": "0x05cc05a1f6a2cb8f3874f9d25448d2b83d9afe7542fe2655c1db2810b81c161e",
      "v": 27,
      "creates": null,
      "raw": "0xf86f820614850ba43b740082520894c656f7262ca45c1af32d07774d666816c4ad6d83891383dd65b0f4df0000801ba08c5372e133002549eeec188c303c9a0554f423c587b1f59ef3ac1a1ef575ad86a005cc05a1f6a2cb8f3874f9d25448d2b83d9afe7542fe2655c1db2810b81c161e",
      "networkId": 0,
      "chainId": 0
    }
  ]
}