{
  "hash": "0x271f6fb1538d7297ec29154efa86af716f5f4b13e8b57b3f1df3567dcd65eca0",
  "parentHash": "0x4a1bd272df68a929db5378efdbe858a461597565513d816ffd1fc95b4c92e890",
  "number": 83208,
  "timestamp": 1439531893,
  "nonce": "0x20516612862344aa",
  "difficulty": 2413655288587,
  "gasLimit": {
    "_hex": "0x2fefd8"
  },
  "gasUsed": {
    "_hex": "0x546c"
  },
  "miner": "0xF5b9549fFA99Cfe8e5f80415dfd3859a387cCb89",
  "extraData": "0x",
  "transactions": [
    {
      "hash": "0x2a38c299a4a44de8e2d0c8f6bd235ace0213b3cd62d88287e1a02669ad05e3f3",
      "blockHash": "0x271f6fb1538d7297ec29154efa86af716f5f4b13e8b57b3f1df3567dcd65eca0",
      "blockNumber": 83208,
      "transactionIndex": 0,
      "confirmations": null,
      "from": "0xd1E5e234a9F44266a4A6241A84D7a1A55Ad5A7fE",
      "gasPrice": {
        "_hex": "0x110c8f7d8de"
      },
      "gasLimit": {
        "_hex": "0xc350"
      },
      "to": "0x2910543Af39abA0Cd09dBb2D50200b3E800A63D2",
      "value": {
        "_hex": "0x21e19e0c9bab2400000"
      },
      "nonce": 0,
      "data": "0x454e4e5a4b4b514852",
      "r": "0xfc4415ee301e99d792fcb679a80f06ff7dccf0b7c915678ce1412253b386e338",
      "s": "0x106e4084c7e2fd5e4acb9ffc6421c01935d86811cdadb5081279dd09b69dfb6f",
      "v": 28,
      "creates": null,
      "raw": "0xf87880860110c8f7d8de82c350942910543af39aba0cd09dbb2d50200b3e800a63d28a021e19e0c9bab240000089454e4e5a4b4b5148521ca0fc4415ee301e99d792fcb679a80f06ff7dccf0b7c915678ce1412253b386e338a0106e4084c7e2fd5e4acb9ffc6421c01935d86811cdadb5081279dd09b69dfb6f",
      "networkId": 0,
      "chainId": 0
    }
  ]
}