{
  "hash": "0x282290426855514619a91494bd66192de7214a06a881ff1f238442529bfd61ff",
  "parentHash": "0xa1e0c7d0ae9ce1c9bbdedd069033b87682b4f115d95aed988fa2673559f55f14",
  "number": 65886,
  "timestamp": 1439244761,
  "nonce": "0x0609de5c02887715",
  "difficulty": 1943435419891,
  "gasLimit": {
    "_hex": "0x2fefd5"
  },
  "gasUsed": {
    "_hex": "0x5208"
  },
  "miner": "0x8dd979d3638B9c8e7a169d955ef8E8Da5B772C51",
  "extraData": "0x476574682f76312e302e312f77696e646f77732f676f312e342e32",
  "transactions": [
    {
      "hash": "0x8b206dff517e43d0b3b103bd9abc65058325e619fb5b8bfbccb1de1ab4f97161",
      "blockHash": "0x282290426855514619a91494bd66192de7214a06a881ff1f238442529bfd61ff",
      "blockNumber": 65886,
      "transactionIndex": 0,
      "confirmations": null,
      "from": "0x32b7C0BDFD488A3c81cCAD7ff2a2fB7A12a5575b",
      "gasPrice": {
        "_hex": "0xde7c84938"
      },
      "gasLimit": {
        "_hex": "0x5208"
      },
      "to": "0x32Be343B94f860124dC4fEe278FDCBD38C102D88",
      "value": {
        "_hex": "0x18f4d2c12e190000000"
      },
      "nonce": 3,
      "data": "0x",
      "r": "0x6d95fb1e573679d61455a32f8c40670dffc0ee4bcd060c422abee73de8377ed5",
      "s": "0x3dffffc3328cd542c8295a310f3d01830a8143279a79bbf7da57ed9ff6590416",
      "v": 28,
      "creates": null,
      "raw": "0xf86e03850de7c849388252089432be343b94f860124dc4fee278fdcbd38c102d888a018f4d2c12e190000000801ca06d95fb1e573679d61455a32f8c40670dffc0ee4bcd060c422abee73de8377ed5a03dffffc3328cd542c8295a310f3d01830a8143279a79bbf7da57ed9ff6590416",
      "networkId": 0,
      "chainId": 0
    }
  ]
}