{
  "hash": "0x4e7c7b8a61c7bc74214decae2f675d643fe317e35f090bc18474c4f424d9dde8",
  "parentHash": "0x07263e74ec5733098d9fdeab66814b85c04c5f92aca54d19b20a73fad506e825",
  "number": 79973,
  "timestamp": 1439478218,
  "nonce": "0x0fe2597d8d31563d",
  "difficulty": 2341440262034,
  "gasLimit": {
    "_hex": "0x2fefd8"
  },
  "gasUsed": {
    "_hex": "0x5208"
  },
  "miner": "0xe6A7a1d47ff21B6321162AEA7C6CB457D5476Bca",
  "extraData": "0x476574682f76312e302e312d38326566323666362f6c696e75782f676f312e34",
  "transactions": [
    {
      "hash": "0x97f8283eb6c83c22b76bd5e285864cbcf8294314baff7eb7e8c2cae2f62d5794",
      "blockHash": "0x4e7c7b8a61c7bc74214decae2f675d643fe317e35f090bc18474c4f424d9dde8",
      "blockNumber": 79973,
      "transactionIndex": 0,
      "confirmations": null,
      "from": "0xeC210EC3715d5918B37CFa4D344a45d177eD849f",
      "gasPrice": {
        "_hex": "0xd59f02199"
      },
      "gasLimit": {
        "_hex": "0x5208"
      },
      "to": "0x32Be343B94f860124dC4fEe278FDCBD38C102D88",
      "value": {
        "_hex": "0x1a05121d4a06f1000"
      },
      "nonce": 6,
      "data": "0x",
      "r": "0x94580cfb666273d97dfab0ce7b63e14de50b5f4eb3c793d88a136fa95bf1f3d3",
      "s": "0x5247e751fcab778afa9bb8745e3094fdcc5a2bf920bc102ba8e6d6b0cb0b9130",
      "v": 28,
      "creates": null,
      "raw": "0xf86d06850d59f021998252089432be343b94f860124dc4fee278fdcbd38c102d888901a05121d4a06f1000801ca094580cfb666273d97dfab0ce7b63e14de50b5f4eb3c793d88a136fa95bf1f3d3a05247e751fcab778afa9bb8745e3094fdcc5a2bf920bc102ba8e6d6b0cb0b9130",
      "networkId": 0,
      "chainId": 0
    }
  ]
}