{
  "hash": "0x1dbf0381ee462e78b3e2a93f592968427391b0f529b041c37323978fba882236",
  "parentHash": "0xb653acb5b407bd687e88d7b5570a0d327eb684ccb77bee297d7edf388d2126ff",
  "number": 57722,
  "timestamp": 1439108481,
  "nonce": "0x73f52049e95f75a1",
  "difficulty": 1725148734694,
  "gasLimit": {
    "_hex": "0x2fefd8"
  },
  "gasUsed": {
    "_hex": "0x5208"
  },
  "miner": "0xf8E0CA3Ed80bd541b94BEdCf259e8CF2141A9523",
  "extraData": "0x476574682f76312e302e312f77696e646f77732f676f312e342e32",
  "transactions": [
    {
      "hash": "0xe67bb169cf3cfab639dc4b5f7d5318944a326b7e616652a2535eeb3b896467fa",
      "blockHash": "0x1dbf0381ee462e78b3e2a93f592968427391b0f529b041c37323978fba882236",
      "blockNumber": 57722,
      "transactionIndex": 0,
      "confirmations": null,
      "from": "0xeD17Ea8E9fd42159037deE95ea173a56c54f55ce",
      "gasPrice": {
        "_hex": "0xcc290d9a0"
      },
      "gasLimit": {
        "_hex": "0x5208"
      },
      "to": "0x32Be343B94f860124dC4fEe278FDCBD38C102D88",
      "value": {
        "_hex": "0x9f97f3a682e4c0000"
      },
      "nonce": 11,
      "data": "0x",
      "r": "0x6986627ca5cba5be432a0ebb1660f7e8742d5120e41be4dd390b00de27e3b99a",
      "s": "0x3ed7e0e956548729df5f8be447e55142da179c4e717f74e14742f38c09a6fe57",
      "v": 28,
      "creates": null,
      "raw": "0xf86d0b850cc290d9a08252089432be343b94f860124dc4fee278fdcbd38c102d888909f97f3a682e4c0000801ca06986627ca5cba5be432a0ebb1660f7e8742d5120e41be4dd390b00de27e3b99aa03ed7e0e956548729df5f8be447e55142da179c4e717f74e14742f38c09a6fe57",
      "networkId": 0,
      "chainId": 0
    }
  ]
}