{
  "hash": "0x80e29568cc21da0efcf12a1c0c2dd707535f674f4ad0c74039573d5cec845ba6",
  "parentHash": "0x45bc0ad46ac3135bf38b391e514d917147f3167599a097b341f82f5bdc8a9e63",
  "number": 56579,
  "timestamp": 1439089436,
  "nonce": "0x518135cb31c596c1",
  "difficulty": 1666593219535,
  "gasLimit": {
    "_hex": "0x2fefd8"
  },
  "gasUsed": {
    "_hex": "0xa410"
  },
  "miner": "0xf8E0CA3Ed80bd541b94BEdCf259e8CF2141A9523",
  "extraData": "0x476574682f76312e302e312f77696e646f77732f676f312e342e32",
  "transactions": [
    {
      "hash": "0x1f0b18a08f0c314ec1af82682513d5acc60cd811b5283158966e30c0a2d7d4cd",
      "blockHash": "0x80e29568cc21da0efcf12a1c0c2dd707535f674f4ad0c74039573d5cec845ba6",
      "blockNumber": 56579,
      "transactionIndex": 0,
      "confirmations": null,
      "from": "0xF5EeDc192aB70b08D8354384aD94efD095849E00",
      "gasPrice": {
        "_hex": "0xd6c9242c1"
      },
      "gasLimit": {
        "_hex": "0x5208"
      },
      "to": "0x32Be343B94f860124dC4fEe278FDCBD38C102D88",
      "value": {
        "_hex": "0x1314b664006d6d000"
      },
      "nonce": 10,
      "data": "0x",
      "r": "0x6c000ccb22f0f785c4f06d1d78ae5934261c7681dfbf82008f4e55ae2ea9583f",
      "s": "0x5cc0724743ab31846c62dd12ec20b610d36029643f5f8a23a8d688bd372a27c2",
      "v": 27,
      "creates": null,
      "raw": "0xf86d0a850d6c9242c18252089432be343b94f860124dc4fee278fdcbd38c102d888901314b664006d6d000801ba06c000ccb22f0f785c4f06d1d78ae5934261c7681dfbf82008f4e55ae2ea9583fa05cc0724743ab31846c62dd12ec20b610d36029643f5f8a23a8d688bd372a27c2",
      "networkId": 0,
      "chainId": 0
    },
    {
      "hash": "0x18da5a7afa156b074d281702717dc72e65fa97600e9e2d3ab0bd9eb79843a3a3",
      "blockHash": "0x80e29568cc21da0efcf12a1c0c2dd707535f674f4ad0c74039573d5cec845ba6",
      "blockNumber": 56579,
      "transactionIndex": 1,
      "confirmations": null,
      "from": "0x3f4e6ef4c172d29A5bfc4CC6073A6602eca6c2EB",
      "gasPrice": {
        "_hex": "0xd6c9242c1"
      },
      "gasLimit": {
        "_hex": "0x5208"
      },
      "to": "0x32Be343B94f860124dC4fEe278FDCBD38C102D88",
      "value": {
        "_hex": "0xb80b12a35233600000"
      },
      "nonce": 3,
      "data": "0x",
      "r": "0xf4e085510aa4cc490ea9e4fe1e732cc0f564c4b0141baf7a38ac8debe3c6df79",
      "s": "0x42994b7ccfa4f12e17672e02c4eb50eb7c1166e6d12cab8fa99042529a3e41e3",
      "v": 28,
      "creates": null,
      "raw": "0xf86d03850d6c9242c18252089432be343b94f860124dc4fee278fdcbd38c102d8889b80b12a35233600000801ca0f4e085510aa4cc490ea9e4fe1e732cc0f564c4b0141baf7a38ac8debe3c6df79a042994b7ccfa4f12e17672e02c4eb50eb7c1166e6d12cab8fa99042529a3e41e3",
      "networkId": 0,
      "chainId": 0
    }
  ]
}