{
  "hash": "0xed93cf06eb3651b6c30d974d023a5da51d5a7c7160ccc4df8da35d779644b1b9",
  "parentHash": "0x689925d15a2cc0e4bf0e8563bb8bfe3bb9f90e18f391d3062c43edb9a337fd93",
  "number": 79822,
  "timestamp": 1439475698,
  "nonce": "0xadd2a11f929ba5bf",
  "difficulty": 2354092567137,
  "gasLimit": {
    "_hex": "0x2fefd8"
  },
  "gasUsed": {
    "_hex": "0xc343"
  },
  "miner": "0x87898CE53471043FcCa0a2aF4E1dC6d8B3fCf607",
  "extraData": "0x476574682f5369626572696131392f76312e302e312d37666266393930632f6c",
  "transactions": [
    {
      "hash": "0x04b2d8b1ce52703ed69fa21c04b6efac31cb8e16c7252a43a2eb7e64b687deee",
      "blockHash": "0xed93cf06eb3651b6c30d974d023a5da51d5a7c7160ccc4df8da35d779644b1b9",
      "blockNumber": 79822,
      "transactionIndex": 0,
      "confirmations": null,
      "from": "0xeb453f5a3addDD8AB56750faDb0fe7F94D9C89E7",
      "gasPrice": {
        "_hex": "0x110c8f7d8de"
      },
      "gasLimit": {
        "_hex": "0xc350"
      },
      "to": "0x2910543Af39abA0Cd09dBb2D50200b3E800A63D2",
      "value": {
        "_hex": "0xca0f82db99b0000"
      },
      "nonce": 1,
      "data": "0x454e41514456454152",
      "r": "0x7c176031e5b0d901883e4a5204e35dd76e06774aed7a36f18f0e6763ba37cc03",
      "s": "0x7e1e323cd8aaa4663386a69710878e2b74d0985341a55ca4845101a0d0a959ac",
      "v": 28,
      "creates": null,
      "raw": "0xf87601860110c8f7d8de82c350942910543af39aba0cd09dbb2d50200b3e800a63d2880ca0f82db99b000089454e415144564541521ca07c176031e5b0d901883e4a5204e35dd76e06774aed7a36f18f0e6763ba37cc03a07e1e323cd8aaa4663386a69710878e2b74d0985341a55ca4845101a0d0a959ac",
      "networkId": 0,
      "chainId": 0
    },
    {
      "hash": "0x83096a7bf5b99b58cae53970ff3542699d6b9ea5063aee65433c36b7353ae5af",
      "blockHash": "0xed93cf06eb3651b6c30d974d023a5da51d5a7c7160ccc4df8da35d779644b1b9",
      "blockNumber": 79822,
      "transactionIndex": 1,
      "confirmations": null,
      "from": "0x87C5B5874A18B4306DF8a752a6C8cc3E82daFc19",
      "gasPrice": {
        "_hex": "0x10956b1597c"
      },
      "gasLimit": {
        "_hex": "0x493e0"
      },
      "to": "0xC4c51de1AbF5D60DBd329eC0F999Fd8f021ae9fC",
      "value": {
        "_hex": "0x0"
      },
      "nonce": 108,
      "data": "0xbd66528a6361740000000000000000000000000000000000000000000000000000000000",
      "r": "0x929f69f6bbee533b5c1fe99c21cc2c3dc3fdf625ed112e61abb364c9465f265a",
      "s": "0x074e0654839b2994e4952bb03e9af9cf46705a0642a784692fe838163c7073eb",
      "v": 28,
      "creates": null,
      "raw": "0xf88a6c86010956b1597c830493e094c4c51de1abf5d60dbd329ec0f999fd8f021ae9fc80a4bd66528a63617400000000000000000000000000000000000000000000000000000000001ca0929f69f6bbee533b5c1fe99c21cc2c3dc3fdf625ed112e61abb364c9465f265aa0074e0654839b2994e4952bb03e9af9cf46705a0642a784692fe838163c7073eb",
      "networkId": 0,
      "chainId": 0
    }
  ]
}