{
  "hash": "0x698d3aea7b99c7def06dd3873409f0326f1bf83e96a445bf1b7484d323312781",
  "parentHash": "0xd2c59dbc7b4391a6df48cd2fe7284dbe5f1c49b47cf2158dc1655288356d53fb",
  "number": 93557,
  "timestamp": 1439693035,
  "nonce": "0xfcd8011e121dd273",
  "difficulty": 3468347232629,
  "gasLimit": {
    "_hex": "0x2fefd8"
  },
  "gasUsed": {
    "_hex": "0x5208"
  },
  "miner": "0x9D49F602b0fdb924Bd63DDE2Bd0907E4A07c63a7",
  "extraData": "0x476574682f76312e302e312f6c696e75782f676f312e342e32",
  "transactions": [
    {
      "hash": "0x91ddbdd5c1c43b63b182b7a44ba50c5ea7a6d59fbfdb7f1c1090dcbaa013bc73",
      "blockHash": "0x698d3aea7b99c7def06dd3873409f0326f1bf83e96a445bf1b7484d323312781",
      "blockNumber": 93557,
      "transactionIndex": 0,
      "confirmations": null,
      "from": "0x007f7f58D3eb5b7510A301eCC749FC1fCDDBE14D",
      "gasPrice": {
        "_hex": "0xe067c158c"
      },
      "gasLimit": {
        "_hex": "0x15f90"
      },
      "to": "0xb1abce2918E21ddb93AA452731a12672A3d9F75a",
      "value": {
        "_hex": "0x7518058bd45bc0000"
      },
      "nonce": 10,
      "data": "0x",
      "r": "0xd6e597ced882281d688e736e491ce13f67901760d04c58c297a4002a3c3d8421",
      "s": "0x654593b30d4e53795d6d0a048fd67fcd2890a71029d5d3e188abc662340e6073",
      "v": 27,
      "creates": null,
      "raw": "0xf86e0a850e067c158c83015f9094b1abce2918e21ddb93aa452731a12672a3d9f75a8907518058bd45bc0000801ba0d6e597ced882281d688e736e491ce13f67901760d04c58c297a4002a3c3d8421a0654593b30d4e53795d6d0a048fd67fcd2890a71029d5d3e188abc662340e6073",
      "networkId": 0,
      "chainId": 0
    }
  ]
}