{
  "hash": "0x8b9d3b578053bd8c07a25927b1aee8faeb2978b098e10200321e745d27d4c271",
  "parentHash": "0x237bbbcc54229bbd369a102072300d434ac632fcddf0a5c4c25ecde101c1a649",
  "number": 80609,
  "timestamp": 1439487986,
  "nonce": "0xb23e31da9de269da",
  "difficulty": 2425036733921,
  "gasLimit": {
    "_hex": "0x2fefd8"
  },
  "gasUsed": {
    "_hex": "0xa410"
  },
  "miner": "0xA1623430350C5df1b52B0b57483A5bb45d1796Da",
  "extraData": "0x476574682f76312e302e312d38326566323666362f6c696e75782f676f312e34",
  "transactions": [
    {
      "hash": "0xfc3acf8ee3021711d3a07cee9f80b1d1938f668b562f03f9d9b57634f412449e",
      "blockHash": "0x8b9d3b578053bd8c07a25927b1aee8faeb2978b098e10200321e745d27d4c271",
      "blockNumber": 80609,
      "transactionIndex": 0,
      "confirmations": null,
      "from": "0x7339BF89A60F8a29d0Ed436F3198774F8e191f37",
      "gasPrice": {
        "_hex": "0xdb55b8863"
      },
      "gasLimit": {
        "_hex": "0x5208"
      },
      "to": "0x32Be343B94f860124dC4fEe278FDCBD38C102D88",
      "value": {
        "_hex": "0x4610cfb9fcd45800"
      },
      "nonce": 4,
      "data": "0x",
      "r": "0xb326534b74b2358ef382ab6f89d404d9ae552a1d4236850e666633f280e5fcc8",
      "s": "0x6309f4a5aa72e217e8fc9dadfdf1e076e71db0c5bf268047ab1b80518fcbcb3f",
      "v": 28,
      "creates": null,
      "raw": "0xf86c04850db55b88638252089432be343b94f860124dc4fee278fdcbd38c102d88884610cfb9fcd45800801ca0b326534b74b2358ef382ab6f89d404d9ae552a1d4236850e666633f280e5fcc8a06309f4a5aa72e217e8fc9dadfdf1e076e71db0c5bf268047ab1b80518fcbcb3f",
      "networkId": 0,
      "chainId": 0
    },
    {
      "hash": "0x6ead3e6733c993a0d202f2557de25c6a1e80fd7ed69c478793585032da82c28d",
      "blockHash": "0x8b9d3b578053bd8c07a25927b1aee8faeb2978b098e10200321e745d27d4c271",
      "blockNumber": 80609,
      "transactionIndex": 1,
      "confirmations": null,
      "from": "0xf2cC0eEAAAeD313542CB262B0B8c3972425143f0",
      "gasPrice": {
        "_hex": "0xdb55b8863"
      },
      "gasLimit": {
        "_hex": "0x5208"
      },
      "to": "0x32Be343B94f860124dC4fEe278FDCBD38C102D88",
      "value": {
        "_hex": "0x453bb177b8a4f800"
      },
      "nonce": 1,
      "data": "0x",
      "r": "0xfeecdaa39562c70ac8fd075169052cfca22c5d5d41b9c646a6b664aba82b0a66",
      "s": "0x2ba1deb55b0a9b26f040a86f525c58742a7115469000f04337736c02481ef518",
      "v": 27,
      "creates": null,
      "raw": "0xf86c01850db55b88638252089432be343b94f860124dc4fee278fdcbd38c102d8888453bb177b8a4f800801ba0feecdaa39562c70ac8fd075169052cfca22c5d5d41b9c646a6b664aba82b0a66a02ba1deb55b0a9b26f040a86f525c58742a7115469000f04337736c02481ef518",
      "networkId": 0,
      "chainId": 0
    }
  ]
}