{
  "hash": "0x5246e7eca95adff244ab7979b97e0f5ed1d47bf9befe7d75b35a656a268c9eb9",
  "parentHash": "0x37256d96ce772d6862b1af7484fc799d42ce1539bd0319f6ada93e448908489b",
  "number": 74438,
  "timestamp": 1439385974,
  "nonce": "0xf485b2ad75e0aea9",
  "difficulty": 2219377690759,
  "gasLimit": {
    "_hex": "0x2fefd8"
  },
  "gasUsed": {
    "_hex": "0xa410"
  },
  "miner": "0x47ff6576639c2e94762eA5443978D7681C0E78DC",
  "extraData": "0x476574682f76312e302e312f6c696e75782f676f312e342e32",
  "transactions": [
    {
      "hash": "0x52d65802dd4c52c6ca8c0b7702794673d56cdbce965a61168911a426415d4a8c",
      "blockHash": "0x5246e7eca95adff244ab7979b97e0f5ed1d47bf9befe7d75b35a656a268c9eb9",
      "blockNumber": 74438,
      "transactionIndex": 0,
      "confirmations": null,
      "from": "0x86d3856ad0105B9d4199936c1fd203664BA325dC",
      "gasPrice": {
        "_hex": "0xd9ce01bc1"
      },
      "gasLimit": {
        "_hex": "0x5208"
      },
      "to": "0x32Be343B94f860124dC4fEe278FDCBD38C102D88",
      "value": {
        "_hex": "0x21b4bb729d581000"
      },
      "nonce": 11,
      "data": "0x",
      "r": "0x2bbcfb2f18ae7ee98f0420f1d072d512ecfaaf44b581c1811a7d4374673252a6",
      "s": "0x76055a7928989a1e83709790d6d90b1919674db1738cc62caa2d60285ccf9a60",
      "v": 27,
      "creates": null,
      "raw": "0xf86c0b850d9ce01bc18252089432be343b94f860124dc4fee278fdcbd38c102d888821b4bb729d581000801ba02bbcfb2f18ae7ee98f0420f1d072d512ecfaaf44b581c1811a7d4374673252a6a076055a7928989a1e83709790d6d90b1919674db1738cc62caa2d60285ccf9a60",
      "networkId": 0,
      "chainId": 0
    },
    {
      "hash": "0x117f1f4f7d75d81fb24e6698753985ce29ab6b4cbe8f5a735e1eccd0d88b20f5",
      "blockHash": "0x5246e7eca95adff244ab7979b97e0f5ed1d47bf9befe7d75b35a656a268c9eb9",
      "blockNumber": 74438,
      "transactionIndex": 1,
      "confirmations": null,
      "from": "0xDC6A542F97876923583019b526335fD1fB0DfC6A",
      "gasPrice": {
        "_hex": "0xd9ce01bc1"
      },
      "gasLimit": {
        "_hex": "0x5208"
      },
      "to": "0x32Be343B94f860124dC4fEe278FDCBD38C102D88",
      "value": {
        "_hex": "0xddc5a0630891000"
      },
      "nonce": 3,
      "data": "0x",
      "r": "0x85c699a212a2a9375d5125837985be98e5b3aceb9714c50a97466e0b0c3b7b6f",
      "s": "0x2c6af92a442d841fefdaf9065500f4f470954cfc3d0a0bde968c6c5200f2785a",
      "v": 28,
      "creates": null,
      "raw": "0xf86c03850d9ce01bc18252089432be343b94f860124dc4fee278fdcbd38c102d88880ddc5a0630891000801ca085c699a212a2a9375d5125837985be98e5b3aceb9714c50a97466e0b0c3b7b6fa02c6af92a442d841fefdaf9065500f4f470954cfc3d0a0bde968c6c5200f2785a",
      "networkId": 0,
      "chainId": 0
    }
  ]
}