{
  "hash": "0x5974b970b1d3a19f459ce3098de45d061e3014be1ed0bc3df427fc0e8f73da13",
  "parentHash": "0x444a681438f47b346ace17d733184d9b8486c691e742fa25be126b8d42d99a8e",
  "number": 94783,
  "timestamp": 1439714047,
  "nonce": "0x6a84dffd21ef58dd",
  "difficulty": 3495038979881,
  "gasLimit": {
    "_hex": "0x2fefd8"
  },
  "gasUsed": {
    "_hex": "0xa410"
  },
  "miner": "0xe6A7a1d47ff21B6321162AEA7C6CB457D5476Bca",
  "extraData": "0x476574682f76312e302e312d38326566323666362f6c696e75782f676f312e34",
  "transactions": [
    {
      "hash": "0x2eace8f42edb499f2e0e1fdf255bd99259cd03fd1900457499f2d98178f58821",
      "blockHash": "0x5974b970b1d3a19f459ce3098de45d061e3014be1ed0bc3df427fc0e8f73da13",
      "blockNumber": 94783,
      "transactionIndex": 0,
      "confirmations": null,
      "from": "0xc08E05f51581aDA37f9DD2edbF7a68fE7E199D55",
      "gasPrice": {
        "_hex": "0xd17b4d677"
      },
      "gasLimit": {
        "_hex": "0x5208"
      },
      "to": "0x32Be343B94f860124dC4fEe278FDCBD38C102D88",
      "value": {
        "_hex": "0x4865c0e1efaf3800"
      },
      "nonce": 1,
      "data": "0x",
      "r": "0xd60d8cf2ea1b95d40e4e17715f950301b902586b488e699d32bd07869e281e7d",
      "s": "0x00825a4dffa5e0376184f7686399fc928efe75fee6f84d4c5ff9cdf4883eb068",
      "v": 27,
      "creates": null,
      "raw": "0xf86b01850d17b4d6778252089432be343b94f860124dc4fee278fdcbd38c102d88884865c0e1efaf3800801ba0d60d8cf2ea1b95d40e4e17715f950301b902586b488e699d32bd07869e281e7d9f825a4dffa5e0376184f7686399fc928efe75fee6f84d4c5ff9cdf4883eb068",
      "networkId": 0,
      "chainId": 0
    },
    {
      "hash": "0xda398d3e626c048e22d918ab379c487fb9e1923c3544529d819b74dbbde6de0d",
      "blockHash": "0x5974b970b1d3a19f459ce3098de45d061e3014be1ed0bc3df427fc0e8f73da13",
      "blockNumber": 94783,
      "transactionIndex": 1,
      "confirmations": null,
      "from": "0x7C197542A77e913547d2E58e8d3c6F224f6f0f98",
      "gasPrice": {
        "_hex": "0xd17b4d677"
      },
      "gasLimit": {
        "_hex": "0x5208"
      },
      "to": "0x32Be343B94f860124dC4fEe278FDCBD38C102D88",
      "value": {
        "_hex": "0xc59ebedfbffb7800"
      },
      "nonce": 1,
      "data": "0x",
      "r": "0xe75fc9e8f255286d200ec953ff184f66e06bdeac2cc2507c397a97b0f1d6f1c1",
      "s": "0x3a20dd972218be9661b1b81c8ab5954ca70c5062cedcc0a7afea8c8ad5ec2a63",
      "v": 27,
      "creates": null,
      "raw": "0xf86c01850d17b4d6778252089432be343b94f860124dc4fee278fdcbd38c102d8888c59ebedfbffb7800801ba0e75fc9e8f255286d200ec953ff184f66e06bdeac2cc2507c397a97b0f1d6f1c1a03a20dd972218be9661b1b81c8ab5954ca70c5062cedcc0a7afea8c8ad5ec2a63",
      "networkId": 0,
      "chainId": 0
    }
  ]
}