{
  "hash": "0xf8b08ae6a7efcb1876850142d0e7ab2801092dc94667428f30ad214769b950df",
  "parentHash": "0xa2a98fd48388f2921c06267f95c06bb9a2a708b089c0262a7cb8d8083e2e103f",
  "number": 73938,
  "timestamp": 1439377746,
  "nonce": "0x76192f1d343e8f87",
  "difficulty": 2226021985506,
  "gasLimit": {
    "_hex": "0x2fefd8"
  },
  "gasUsed": {
    "_hex": "0x5208"
  },
  "miner": "0xf8E0CA3Ed80bd541b94BEdCf259e8CF2141A9523",
  "extraData": "0x476574682f76312e302e312f77696e646f77732f676f312e342e32",
  "transactions": [
    {
      "hash": "0xa4db4bc2cbd0bec76161bc50a77e7049ef9c43cf4dc4a8766059465fb5b0346a",
      "blockHash": "0xf8b08ae6a7efcb1876850142d0e7ab2801092dc94667428f30ad214769b950df",
      "blockNumber": 73938,
      "transactionIndex": 0,
      "confirmations": null,
      "from": "0x19ae27E1b61445EB9f27821A5eB4b3e957319e7e",
      "gasPrice": {
        "_hex": "0xd1cfac871"
      },
      "gasLimit": {
        "_hex": "0x5208"
      },
      "to": "0x32Be343B94f860124dC4fEe278FDCBD38C102D88",
      "value": {
        "_hex": "0x6eefc8e076f64400"
      },
      "nonce": 1,
      "data": "0x",
      "r": "0x7a8ca91b138f199924ee53e21eaaf0c7cdfaf22f8e6ea367c85d514136143531",
      "s": "0x09451d9ef694ee9581b2956580f20a4c83f5b5e5d902970019672ec8ae4cc1eb",
      "v": 27,
      "creates": null,
      "raw": "0xf86c01850d1cfac8718252089432be343b94f860124dc4fee278fdcbd38c102d88886eefc8e076f64400801ba07a8ca91b138f199924ee53e21eaaf0c7cdfaf22f8e6ea367c85d514136143531a009451d9ef694ee9581b2956580f20a4c83f5b5e5d902970019672ec8ae4cc1eb",
      "networkId": 0,
      "chainId": 0
    }
  ]
}