{
  "hash": "0x1d0d99912c7ad0a91294e6644dc1d2b1603e931f968f906147b6983ab047a2de",
  "parentHash": "0x4eddd0f925e5d6604646ff885ec5aa43daef250a1199b4abe74b42631785c36f",
  "number": 83394,
  "timestamp": 1439534717,
  "nonce": "0x97c53d432e305a69",
  "difficulty": 2425415756469,
  "gasLimit": {
    "_hex": "0x2fefd8"
  },
  "gasUsed": {
    "_hex": "0x5208"
  },
  "miner": "0xe6A7a1d47ff21B6321162AEA7C6CB457D5476Bca",
  "extraData": "0x476574682f76312e302e312d38326566323666362f6c696e75782f676f312e34",
  "transactions": [
    {
      "hash": "0x160ec2ac70c24e11e6e4f5f5d437542cd370c1490a545b2be5d28cc3f26d182c",
      "blockHash": "0x1d0d99912c7ad0a91294e6644dc1d2b1603e931f968f906147b6983ab047a2de",
      "blockNumber": 83394,
      "transactionIndex": 0,
      "confirmations": null,
      "from": "0x58ad1c67eF353A08C79710732002C43A8F4237B1",
      "gasPrice": {
        "_hex": "0xba43b7400"
      },
      "gasLimit": {
        "_hex": "0x5208"
      },
      "to": "0xC47Aaa860008be6f65B58c6C6E02a84e666EfE31",
      "value": {
        "_hex": "0xddcfbbb7a606000"
      },
      "nonce": 0,
      "data": "0x",
      "r": "0xaa51d7a096ccb7dcd34f9b95d10c584bb95d0dc59a2a19348ab06d91b4da4438",
      "s": "0x7b92e98ead61680bcabc5115e11ab034d2e7605610901c312f065a29d50d0e62",
      "v": 28,
      "creates": null,
      "raw": "0xf86c80850ba43b740082520894c47aaa860008be6f65b58c6c6e02a84e666efe31880ddcfbbb7a606000801ca0aa51d7a096ccb7dcd34f9b95d10c584bb95d0dc59a2a19348ab06d91b4da4438a07b92e98ead61680bcabc5115e11ab034d2e7605610901c312f065a29d50d0e62",
      "networkId": 0,
      "chainId": 0
    }
  ]
}