{
  "hash": "0x961849c168f3189ca7ec1409353864558dc0b911c3ccbaea69bc1f08a60a1753",
  "parentHash": "0x263ecd44fc058d1633c66bb5deb68762c5f1c205bb2d27f9827d989077b9d2f6",
  "number": 103119,
  "timestamp": 1439847884,
  "nonce": "0x4dec0a9ad96b0f6d",
  "difficulty": 4191120002321,
  "gasLimit": {
    "_hex": "0x2fefd8"
  },
  "gasUsed": {
    "_hex": "0x5208"
  },
  "miner": "0x580992B51e3925e23280EfB93d3047C82f17E038",
  "extraData": "0x476574682f76312e302e312f6c696e75782f676f312e342e32",
  "transactions": [
    {
      "hash": "0x175b733291be76b97ec49660ee3e2c93b4e803b92bd57f484f0f29abb0ffe370",
      "blockHash": "0x961849c168f3189ca7ec1409353864558dc0b911c3ccbaea69bc1f08a60a1753",
      "blockNumber": 103119,
      "transactionIndex": 0,
      "confirmations": null,
      "from": "0xcf00A85f3826941e7A25BFcF9Aac575d40410852",
      "gasPrice": {
        "_hex": "0xcb5bea614"
      },
      "gasLimit": {
        "_hex": "0x15f90"
      },
      "to": "0xD9666150A9dA92d9108198a4072970805a8B3428",
      "value": {
        "_hex": "0x4563918244f40000"
      },
      "nonce": 48,
      "data": "0x",
      "r": "0xee414b21661fedea046ce50021663e5f13a7805377227096e160da368271e2f0",
      "s": "0x402ebba094920202fd7441f1c270ed24b9047d375ce0a88b7b502c4688a16353",
      "v": 27,
      "creates": null,
      "raw": "0xf86d30850cb5bea61483015f9094d9666150a9da92d9108198a4072970805a8b3428884563918244f40000801ba0ee414b21661fedea046ce50021663e5f13a7805377227096e160da368271e2f0a0402ebba094920202fd7441f1c270ed24b9047d375ce0a88b7b502c4688a16353",
      "networkId": 0,
      "chainId": 0
    }
  ]
}