{
  "hash": "0x2f3d01b0cfc63a4f5984d1ac9d3eff66374b31f3ea4161f0c5fbc116dda011db",
  "parentHash": "0x4953c731df66b5cfbb4518ff324dd54e280afa4b7d32146b56d3c8a84df7b557",
  "number": 107167,
  "timestamp": 1439917337,
  "nonce": "0xa393adfd99245a24",
  "difficulty": 4463628543999,
  "gasLimit": {
    "_hex": "0x2fefd8"
  },
  "gasUsed": {
    "_hex": "0x5208"
  },
  "miner": "0xf927a40C8B7F6E07c5af7FA2155B4864a4112B13",
  "extraData": "0x",
  "transactions": [
    {
      "hash": "0xb7066855889159ab764c922525363287064d00f3040363608839158c79d85b0a",
      "blockHash": "0x2f3d01b0cfc63a4f5984d1ac9d3eff66374b31f3ea4161f0c5fbc116dda011db",
      "blockNumber": 107167,
      "transactionIndex": 0,
      "confirmations": null,
      "from": "0xa6BDc31c431B8F97848c9D60cbbe9660dc450eB7",
      "gasPrice": {
        "_hex": "0xd658388aa"
      },
      "gasLimit": {
        "_hex": "0x5208"
      },
      "to": "0x32Be343B94f860124dC4fEe278FDCBD38C102D88",
      "value": {
        "_hex": "0x455f3a9b47979c00"
      },
      "nonce": 179,
      "data": "0x",
      "r": "0xf6332961cd358dded60eb609287dee16f6a086ed5a4fcdd988ac95ff8c76a841",
      "s": "0x7353dbab12d9c6dd5693a670895a002903fd25e62b0e577278bec0abbf16b022",
      "v": 28,
      "creates": null,
      "raw": "0xf86d81b3850d658388aa8252089432be343b94f860124dc4fee278fdcbd38c102d8888455f3a9b47979c00801ca0f6332961cd358dded60eb609287dee16f6a086ed5a4fcdd988ac95ff8c76a841a07353dbab12d9c6dd5693a670895a002903fd25e62b0e577278bec0abbf16b022",
      "networkId": 0,
      "chainId": 0
    }
  ]
}