{
  "hash": "0x830804310aca865310927e917491e27d5424b36696d3f484824e7f93460c48b9",
  "parentHash": "0xac5d1607efb0317e34540ef54d6cf23428dae4cbf060a32eb5cbab14bf56d8d5",
  "number": 109320,
  "timestamp": 1439954684,
  "nonce": "0x9c7ad8cb08c196bc",
  "difficulty": 4447256474629,
  "gasLimit": {
    "_hex": "0x2fefd8"
  },
  "gasUsed": {
    "_hex": "0x5208"
  },
  "miner": "0xC759dc67E0c3816fdC56A2f5bb29920fc07e767D",
  "extraData": "0x476574682f76312e302e312f77696e646f77732f676f312e342e32",
  "transactions": [
    {
      "hash": "0x9091008baba70fcb3f944fa0e0c672ad0e4aacdb2cf316f2c495f0c0cb868780",
      "blockHash": "0x830804310aca865310927e917491e27d5424b36696d3f484824e7f93460c48b9",
      "blockNumber": 109320,
      "transactionIndex": 0,
      "confirmations": null,
      "from": "0xb1abce2918E21ddb93AA452731a12672A3d9F75a",
      "gasPrice": {
        "_hex": "0xd5bfd8f7b"
      },
      "gasLimit": {
        "_hex": "0x5208"
      },
      "to": "0x32Be343B94f860124dC4fEe278FDCBD38C102D88",
      "value": {
        "_hex": "0x455f3da047034c00"
      },
      "nonce": 146,
      "data": "0x",
      "r": "0x06686b173dcfde0f22759a264cb43930f10c0d264051ffd513d0d47223480a36",
      "s": "0x69aef6156cb552c8f9b855f1dc9919c8a0a14de75b1187c80431fd61538c5c77",
      "v": 27,
      "creates": null,
      "raw": "0xf86d8192850d5bfd8f7b8252089432be343b94f860124dc4fee278fdcbd38c102d8888455f3da047034c00801ba006686b173dcfde0f22759a264cb43930f10c0d264051ffd513d0d47223480a36a069aef6156cb552c8f9b855f1dc9919c8a0a14de75b1187c80431fd61538c5c77",
      "networkId": 0,
      "chainId": 0
    }
  ]
}