{
  "hash": "0x187fd371a9db26a22a17d8b990b01399ac341b50a02e5bd99d500dee8c63f8db",
  "parentHash": "0x732732da80b4684d061cbd832cafe6a65c31cdf867d4008d98d4bb4a64ef3f1a",
  "number": 75017,
  "timestamp": 1439396201,
  "nonce": "0xc383b93f11f89c52",
  "difficulty": 2190159166891,
  "gasLimit": {
    "_hex": "0x2fefd8"
  },
  "gasUsed": {
    "_hex": "0x522d"
  },
  "miner": "0xe6A7a1d47ff21B6321162AEA7C6CB457D5476Bca",
  "extraData": "0x476574682f76312e302e312d38326566323666362f6c696e75782f676f312e34",
  "transactions": [
    {
      "hash": "0x63abdd5d8a83b7480b417405d862f0385f51c35e76f32c9a918d3679a4dc2d68",
      "blockHash": "0x187fd371a9db26a22a17d8b990b01399ac341b50a02e5bd99d500dee8c63f8db",
      "blockNumber": 75017,
      "transactionIndex": 0,
      "confirmations": null,
      "from": "0x326Be8F71bFb0379f989aAB1CC1fE37f0a771f60",
      "gasPrice": {
        "_hex": "0x100662e7403"
      },
      "gasLimit": {
        "_hex": "0x15f90"
      },
      "to": "0xD79B4C6791784184e2755B2fC1659eaaB0f80456",
      "value": {
        "_hex": "0x3635c9adc5dea00000"
      },
      "nonce": 63,
      "data": "0x",
      "r": "0x9cd7ea9b7af9166ad41e5933a886943b0ac03027c65f6de48bde3a1a20f816ee",
      "s": "0x37c6cc8e4f5fbcea777abf5cfb8ff6068b5f4aba287b6c1e0552c5f4d5c78b96",
      "v": 27,
      "creates": null,
      "raw": "0xf86f3f860100662e740383015f9094d79b4c6791784184e2755b2fc1659eaab0f80456893635c9adc5dea00000801ba09cd7ea9b7af9166ad41e5933a886943b0ac03027c65f6de48bde3a1a20f816eea037c6cc8e4f5fbcea777abf5cfb8ff6068b5f4aba287b6c1e0552c5f4d5c78b96",
      "networkId": 0,
      "chainId": 0
    }
  ]
}