{
  "hash": "0x107daca4e5382f2c0b2e03519e4d9efa029a14217dd0ecc8a330c9d088833931",
  "parentHash": "0x4ec8191beb0225bc87b2898f45823863ca75fdfb4a5f92d46ecedd0b07bbd91a",
  "number": 76633,
  "timestamp": 1439423696,
  "nonce": "0xc90f964e549e9d6d",
  "difficulty": 2243855613692,
  "gasLimit": {
    "_hex": "0x2fefd8"
  },
  "gasUsed": {
    "_hex": "0x5208"
  },
  "miner": "0xF2d2AfF1320476cb8C6b607199D23175cc595693",
  "extraData": "0x476574682f76312e302e312f77696e646f77732f676f312e342e32",
  "transactions": [
    {
      "hash": "0x1d8d7b4a9eafd3be3b0d63b288285b73b56a8da98a34e9e16cfe8f9d9cfd125a",
      "blockHash": "0x107daca4e5382f2c0b2e03519e4d9efa029a14217dd0ecc8a330c9d088833931",
      "blockNumber": 76633,
      "transactionIndex": 0,
      "confirmations": null,
      "from": "0xcb2Ff4305625D98A9E13C9cA10ca47cf2345e1F8",
      "gasPrice": {
        "_hex": "0xcce68c51f"
      },
      "gasLimit": {
        "_hex": "0x5208"
      },
      "to": "0x32Be343B94f860124dC4fEe278FDCBD38C102D88",
      "value": {
        "_hex": "0x2b742d06f01070000"
      },
      "nonce": 8,
      "data": "0x",
      "r": "0x63ca8476e4c4d66b08968b4ece1acab0d0314c45257ca1a1acead3ab3f6b93b5",
      "s": "0x0101f916ccfe67314ac40bc39e1c7257cb7d4d748686e7b01b4d6864666addd1",
      "v": 28,
      "creates": null,
      "raw": "0xf86d08850cce68c51f8252089432be343b94f860124dc4fee278fdcbd38c102d888902b742d06f01070000801ca063ca8476e4c4d66b08968b4ece1acab0d0314c45257ca1a1acead3ab3f6b93b5a00101f916ccfe67314ac40bc39e1c7257cb7d4d748686e7b01b4d6864666addd1",
      "networkId": 0,
      "chainId": 0
    }
  ]
}