{
  "hash": "0x21a585e14c640e9136e28189e552743048896a70032743cff353d22dfad4ce62",
  "parentHash": "0x23ed78709be602f2b14e3f152fd54c88a03dc5e1d5bc49ba56ba2aa6c5b00f59",
  "number": 65683,
  "timestamp": 1439241205,
  "nonce": "0x5f7430c8c4d80304",
  "difficulty": 1931184962516,
  "gasLimit": {
    "_hex": "0x2fefd8"
  },
  "gasUsed": {
    "_hex": "0x5208"
  },
  "miner": "0xeB1325C8D9d3ea8D74aC11F4B00F1B2367686319",
  "extraData": "0x476574682f76312e302e312f77696e646f77732f676f312e342e32",
  "transactions": [
    {
      "hash": "0xa26d2202dbe66f7969b3e0d695e039dd15860f4ac838112eea221bb78e87dd87",
      "blockHash": "0x21a585e14c640e9136e28189e552743048896a70032743cff353d22dfad4ce62",
      "blockNumber": 65683,
      "transactionIndex": 0,
      "confirmations": null,
      "from": "0x994A688Ccbd21c39a780468628e269CbC013d948",
      "gasPrice": {
        "_hex": "0x10a79f04d1e"
      },
      "gasLimit": {
        "_hex": "0x55f0"
      },
      "to": "0xAD063CE182014Fa78C3932981fE402a6Af48235B",
      "value": {
        "_hex": "0x25ccac71946898"
      },
      "nonce": 2,
      "data": "0x",
      "r": "0x8239afaa8869b26fd9535e0b6cf8b4871acfd4c121df4c643fc61f9573463fb5",
      "s": "0x43ec15402b3104b68fa95e479fc1f95a04bc88ae6f3126ecd153c9db39be96f7",
      "v": 27,
      "creates": null,
      "raw": "0xf86c0286010a79f04d1e8255f094ad063ce182014fa78c3932981fe402a6af48235b8725ccac71946898801ba08239afaa8869b26fd9535e0b6cf8b4871acfd4c121df4c643fc61f9573463fb5a043ec15402b3104b68fa95e479fc1f95a04bc88ae6f3126ecd153c9db39be96f7",
      "networkId": 0,
      "chainId": 0
    }
  ]
}