{
  "hash": "0x71735550c04e636bf691709fd3228d776852054ca6e1c17c3d7971ba8d10a6db",
  "parentHash": "0xec57f82f62b76f7390d280f187844c9357019eb170a1c2b2fdb6344dbd6237ad",
  "number": 80839,
  "timestamp": 1439491824,
  "nonce": "0x1de1e85ff4a33db1",
  "difficulty": 2453555028999,
  "gasLimit": {
    "_hex": "0x2fefd8"
  },
  "gasUsed": {
    "_hex": "0xf618"
  },
  "miner": "0x9998bacdb32b1DDc6A36173a0E64a87904BD9b43",
  "extraData": "0x",
  "transactions": [
    {
      "hash": "0xc465342687a4533a063f3351f97da78009fa6f00d386d53fbce203ef5677e4a0",
      "blockHash": "0x71735550c04e636bf691709fd3228d776852054ca6e1c17c3d7971ba8d10a6db",
      "blockNumber": 80839,
      "transactionIndex": 0,
      "confirmations": null,
      "from": "0x1D3ffA437e5bce40fCC134f4E0ac62841E4A9E81",
      "gasPrice": {
        "_hex": "0xba43b7400"
      },
      "gasLimit": {
        "_hex": "0x5208"
      },
      "to": "0xC47Aaa860008be6f65B58c6C6E02a84e666EfE31",
      "value": {
        "_hex": "0x1bbdb26f21c46000"
      },
      "nonce": 0,
      "data": "0x",
      "r": "0x9719576d26f08b55b2cefa9e6292c79f5f7eec6ad7a53a26d3920d91c901d2f0",
      "s": "0x6d60af50603bde1888716610293aee8fffddafdc21e0532d26ac04ea2466bab2",
      "v": 28,
      "creates": null,
      "raw": "0xf86c80850ba43b740082520894c47aaa860008be6f65b58c6c6e02a84e666efe31881bbdb26f21c46000801ca09719576d26f08b55b2cefa9e6292c79f5f7eec6ad7a53a26d3920d91c901d2f0a06d60af50603bde1888716610293aee8fffddafdc21e0532d26ac04ea2466bab2",
      "networkId": 0,
      "chainId": 0
    },
    {
      "hash": "0x909a4da728ed5a0bed62df9074d1be61e50eb4532d8feab521cb424ad7384b0c",
      "blockHash": "0x71735550c04e636bf691709fd3228d776852054ca6e1c17c3d7971ba8d10a6db",
      "blockNumber": 80839,
      "transactionIndex": 1,
      "confirmations": null,
      "from": "0x98238986aFB35e580ca6002cDDDC6480857BAE33",
      "gasPrice": {
        "_hex": "0xba43b7400"
      },
      "gasLimit": {
        "_hex": "0x5208"
      },
      "to": "0xC47Aaa860008be6f65B58c6C6E02a84e666EfE31",
      "value": {
        "_hex": "0x25eb8e9645f011dc0"
      },
      "nonce": 2,
      "data": "0x",
      "r": "0xfd8e63075cbe11d7598629420ca63a44465ee47dd428bf4155e4e52cd354dc98",
      "s": "0x4ba73259aff56fdafab24175b68f97ae1962256328cc422180d9e81104651d77",
      "v": 27,
      "creates": null,
      "raw": "0xf86d02850ba43b740082520894c47aaa860008be6f65b58c6c6e02a84e666efe3189025eb8e9645f011dc0801ba0fd8e63075cbe11d7598629420ca63a44465ee47dd428bf4155e4e52cd354dc98a04ba73259aff56fdafab24175b68f97ae1962256328cc422180d9e81104651d77",
      "networkId": 0,
      "chainId": 0
    },
    {
      "hash": "0xb97fca8aa528f6070051b1ed642dab8bb52d5d06eff8cd41fcb0447fcff75fd9",
      "blockHash": "0x71735550c04e636bf691709fd3228d776852054ca6e1c17c3d7971ba8d10a6db",
      "blockNumber": 80839,
      "transactionIndex": 2,
      "confirmations": null,
      "from": "0xA0eadCdC3d2cc51DaA7Ef7e65370D2d46Ca9e6D9",
      "gasPrice": {
        "_hex": "0xba43b7400"
      },
      "gasLimit": {
        "_hex": "0x5208"
      },
      "to": "0xC47Aaa860008be6f65B58c6C6E02a84e666EfE31",
      "value": {
        "_hex": "0x2b45927b3b7396000"
      },
      "nonce": 0,
      "data": "0x",
      "r": "0x5abdd2d070a7540ade8709ef0c7038bfc450ff2d6cae8aac1374984941fe8aef",
      "s": "0x241837abb82c71b7e7af9cec4f7fcd6b82de8116c753be38b56d8d3a32046e5e",
      "v": 27,
      "creates": null,
      "raw": "0xf86d80850ba43b740082520894c47aaa860008be6f65b58c6c6e02a84e666efe318902b45927b3b7396000801ba05abdd2d070a7540ade8709ef0c7038bfc450ff2d6cae8aac1374984941fe8aefa0241837abb82c71b7e7af9cec4f7fcd6b82de8116c753be38b56d8d3a32046e5e",
      "networkId": 0,
      "chainId": 0
    }
  ]
}