{
  "hash": "0x16bf1c87977433bc84d39e20ade0100258c8206c5caf7186664eb5277a0528bd",
  "parentHash": "0x4753ab4280167d05e8929562e115a592c9f24d54a8acbfb16d6f7bfe767da703",
  "number": 68910,
  "timestamp": 1439295560,
  "nonce": "0x79c13a8668dd28d0",
  "difficulty": 2024074140242,
  "gasLimit": {
    "_hex": "0x2fefd2"
  },
  "gasUsed": {
    "_hex": "0xa410"
  },
  "miner": "0xe6A7a1d47ff21B6321162AEA7C6CB457D5476Bca",
  "extraData": "0x476574682f76312e302e312d38326566323666362f6c696e75782f676f312e34",
  "transactions": [
    {
      "hash": "0xe1b33f9c6eeb8384a0b94b3bf62092acf5f030772bcb84b66cb8e1b698f1c60e",
      "blockHash": "0x16bf1c87977433bc84d39e20ade0100258c8206c5caf7186664eb5277a0528bd",
      "blockNumber": 68910,
      "transactionIndex": 0,
      "confirmations": null,
      "from": "0x0e00834deB82864b23E0D84E925ba6bc83aDF7E4",
      "gasPrice": {
        "_hex": "0xba43b7400"
      },
      "gasLimit": {
        "_hex": "0x5208"
      },
      "to": "0xc357564165E9e75dA11Ee063fD186Be11F8F581f",
      "value": {
        "_hex": "0x4e1253f5de4000"
      },
      "nonce": 1,
      "data": "0x",
      "r": "0x48ca63d6a6338f0cb60e90aec8fd133d8f2a5696d633c097ba58ab3c83d86fef",
      "s": "0x46b3814cf020cc7865c392004ab3572f2bb05ee2eaac66ba14405f69d9d22ad4",
      "v": 28,
      "creates": null,
      "raw": "0xf86b01850ba43b740082520894c357564165e9e75da11ee063fd186be11f8f581f874e1253f5de4000801ca048ca63d6a6338f0cb60e90aec8fd133d8f2a5696d633c097ba58ab3c83d86fefa046b3814cf020cc7865c392004ab3572f2bb05ee2eaac66ba14405f69d9d22ad4",
      "networkId": 0,
      "chainId": 0
    },
    {
      "hash": "0xf1fff5c7436a144927a36912bf394dda016d4ee77d5f3f6e320ef9833e0d6ec3",
      "blockHash": "0x16bf1c87977433bc84d39e20ade0100258c8206c5caf7186664eb5277a0528bd",
      "blockNumber": 68910,
      "transactionIndex": 1,
      "confirmations": null,
      "from": "0xDDB9f433e3E16E03064240De8ECf2f09e27044F5",
      "gasPrice": {
        "_hex": "0xba43b7400"
      },
      "gasLimit": {
        "_hex": "0x5208"
      },
      "to": "0x921171015a30a15260CCb44086f5B0001Ca28046",
      "value": {
        "_hex": "0x4e1253f5de4000"
      },
      "nonce": 1,
      "data": "0x",
      "r": "0xc8ff70f0c69891fc78206fd37bd3b95f7c2ec420aa4afdbf9659afcda45648e5",
      "s": "0x1365ce332427f1210fd60f2077fd2234d08ea75f414f40c03c7339e5d6425e78",
      "v": 27,
      "creates": null,
      "raw": "0xf86b01850ba43b740082520894921171015a30a15260ccb44086f5b0001ca28046874e1253f5de4000801ba0c8ff70f0c69891fc78206fd37bd3b95f7c2ec420aa4afdbf9659afcda45648e5a01365ce332427f1210fd60f2077fd2234d08ea75f414f40c03c7339e5d6425e78",
      "networkId": 0,
      "chainId": 0
    }
  ]
}