{
  "hash": "0x52ce0ae019af3db6056c9f75c2cbcc60da65d90a6afda81745933ce02d34d978",
  "parentHash": "0x518c52b50542e47a7eb6b43557796b99e6f4f6d214f6ba426eb2eb944afad78b",
  "number": 64264,
  "timestamp": 1439217821,
  "nonce": "0x0b3af7f072437785",
  "difficulty": 1880330335662,
  "gasLimit": {
    "_hex": "0x2fe510"
  },
  "gasUsed": {
    "_hex": "0x5208"
  },
  "miner": "0x2f6BCe4fc330B69C9B4c2694d57C63Ec7B18feC7",
  "extraData": "0x476574682f76312e302e302f77696e646f77732f676f312e342e32",
  "transactions": [
    {
      "hash": "0x182760ab8eff2529aef46b5e11acd2e6193e55ddcc613ba79a8f07d78356b3da",
      "blockHash": "0x52ce0ae019af3db6056c9f75c2cbcc60da65d90a6afda81745933ce02d34d978",
      "blockNumber": 64264,
      "transactionIndex": 0,
      "confirmations": null,
      "from": "0xA542d5046D885E5fC7Dc4006ADb648C5710Ff0ED",
      "gasPrice": {
        "_hex": "0x746a528800"
      },
      "gasLimit": {
        "_hex": "0x5b04"
      },
      "to": "0x99181ED48C7c51532622dA23e20E2B38392476A7",
      "value": {
        "_hex": "0xcff8f799cc010000"
      },
      "nonce": 0,
      "data": "0x",
      "r": "0x05036ac4c9e6660b33793454884ff8385d8ed79735d7648657727db740efee34",
      "s": "0xff7ad8d29a0b2b669313d123cd8044b882bfeda7a82630aa48732babdbe827c9",
      "v": 27,
      "creates": null,
      "raw": "0xf86c8085746a528800825b049499181ed48c7c51532622da23e20e2b38392476a788cff8f799cc010000801ba005036ac4c9e6660b33793454884ff8385d8ed79735d7648657727db740efee34a0ff7ad8d29a0b2b669313d123cd8044b882bfeda7a82630aa48732babdbe827c9",
      "networkId": 0,
      "chainId": 0
    }
  ]
}