{
  "hash": "0x8135ae169832f462383d477820624d910de665358a0b833d76e5766fc45c0a57",
  "parentHash": "0x4c5ecff9fac91acce6f89e3563c53834dedd8a2eb157179921a1bf97b9503dc3",
  "number": 60410,
  "timestamp": 1439155095,
  "nonce": "0xb5b639c766a338ba",
  "difficulty": 1739820415395,
  "gasLimit": {
    "_hex": "0x2fe3de"
  },
  "gasUsed": {
    "_hex": "0x546c"
  },
  "miner": "0xF6373d7b1F8394B11C151759dCFD590E84C6BC6B",
  "extraData": "0x476574682f76312e302e302d30333937633636632f6c696e75782f676f312e34",
  "transactions": [
    {
      "hash": "0x2958fd33e30e3f15476a6e1ae6fe7abd7ee21b93f6b4a4242eb406515e0aa314",
      "blockHash": "0x8135ae169832f462383d477820624d910de665358a0b833d76e5766fc45c0a57",
      "blockNumber": 60410,
      "transactionIndex": 0,
      "confirmations": null,
      "from": "0xA34f9D568bF7aFd94c2A5B8a5Ff55C66C4087999",
      "gasPrice": {
        "_hex": "0xffc7633098"
      },
      "gasLimit": {
        "_hex": "0x15f90"
      },
      "to": "0x2910543Af39abA0Cd09dBb2D50200b3E800A63D2",
      "value": {
        "_hex": "0x8453ae170718840000"
      },
      "nonce": 2,
      "data": "0x454e435250324d4a52",
      "r": "0x56540ea09fc7ab40f6d05b7e92d780cf2a98a1406b009ea14a445e8e6acb1ea0",
      "s": "0x6d7da582028909321ecfef059a42c8b088d64b54b048fa511408510f457714b1",
      "v": 28,
      "creates": null,
      "raw": "0xf8770285ffc763309883015f90942910543af39aba0cd09dbb2d50200b3e800a63d2898453ae17071884000089454e435250324d4a521ca056540ea09fc7ab40f6d05b7e92d780cf2a98a1406b009ea14a445e8e6acb1ea0a06d7da582028909321ecfef059a42c8b088d64b54b048fa511408510f457714b1",
      "networkId": 0,
      "chainId": 0
    }
  ]
}