{
  "hash": "0xa2efcecf0a9c2d593d500e3334a8fe80e13b372f1d90cc31adee7a56bf334c8f",
  "parentHash": "0xc95d80b51e5d5d53ef1b4c9915edfbff159477a7249e98725762f26052d37445",
  "number": 79444,
  "timestamp": 1439469791,
  "nonce": "0x2d70f2c93bbe7f38",
  "difficulty": 2338160372260,
  "gasLimit": {
    "_hex": "0x2fefd8"
  },
  "gasUsed": {
    "_hex": "0xa410"
  },
  "miner": "0x55bAf64fc9eAccFFd7Cc643BB61142E1C6ac093e",
  "extraData": "0x",
  "transactions": [
    {
      "hash": "0x9f06f05b65da93369dfc2f95926f440ddd6fbcf124294709e750422d198d5c2a",
      "blockHash": "0xa2efcecf0a9c2d593d500e3334a8fe80e13b372f1d90cc31adee7a56bf334c8f",
      "blockNumber": 79444,
      "transactionIndex": 0,
      "confirmations": null,
      "from": "0x32Be343B94f860124dC4fEe278FDCBD38C102D88",
      "gasPrice": {
        "_hex": "0xdead098b3"
      },
      "gasLimit": {
        "_hex": "0x5208"
      },
      "to": "0xD7Add146Fd01cC02354e9dE91df7d38D918E9C5D",
      "value": {
        "_hex": "0x5df0e56ddf6528000"
      },
      "nonce": 424,
      "data": "0x",
      "r": "0x7d680d9f4a40a7707ece3f6f2d4b6ea89e03386d6b016d08a4b6d14fa682249a",
      "s": "0x28848609a8215e8f992f538f61eb92b05a132ab8fbe5b743400b0619ec98806f",
      "v": 27,
      "creates": null,
      "raw": "0xf86f8201a8850dead098b382520894d7add146fd01cc02354e9de91df7d38d918e9c5d8905df0e56ddf6528000801ba07d680d9f4a40a7707ece3f6f2d4b6ea89e03386d6b016d08a4b6d14fa682249aa028848609a8215e8f992f538f61eb92b05a132ab8fbe5b743400b0619ec98806f",
      "networkId": 0,
      "chainId": 0
    },
    {
      "hash": "0x2cb6676777818684b0f6b00971c0efca07a4fc520178414557e317da113de711",
      "blockHash": "0xa2efcecf0a9c2d593d500e3334a8fe80e13b372f1d90cc31adee7a56bf334c8f",
      "blockNumber": 79444,
      "transactionIndex": 1,
      "confirmations": null,
      "from": "0x2910543Af39abA0Cd09dBb2D50200b3E800A63D2",
      "gasPrice": {
        "_hex": "0xd4952f684"
      },
      "gasLimit": {
        "_hex": "0x5208"
      },
      "to": "0x2C6dA0AeEF23c6a9eA4a8f19c0810e505FDEb231",
      "value": {
        "_hex": "0x56bb59ab42b2f8000"
      },
      "nonce": 355,
      "data": "0x",
      "r": "0x013cf9ffa295fd758da124c8c3f0ca5e0b6a4fa65af70f15bac196ff471de383",
      "s": "0x513ce2d6d3422a6a399aa9b2a3aa3b876e4a67a52924e218a1a1931d93b1de70",
      "v": 28,
      "creates": null,
      "raw": "0xf86f820163850d4952f684825208942c6da0aeef23c6a9ea4a8f19c0810e505fdeb23189056bb59ab42b2f8000801ca0013cf9ffa295fd758da124c8c3f0ca5e0b6a4fa65af70f15bac196ff471de383a0513ce2d6d3422a6a399aa9b2a3aa3b876e4a67a52924e218a1a1931d93b1de70",
      "networkId": 0,
      "chainId": 0
    }
  ]
}