{
  "hash": "0xcf01d1111268383a44d6b8d46dabb331e8b1de716d1a67fff070315e32675e84",
  "parentHash": "0x996cc3be9ff5c1c1d2650c7548ed8f02c6cd68de4eda6ec1a97d3930483aec75",
  "number": 50230,
  "timestamp": 1438985839,
  "nonce": "0x6bfa591a1fb91ba0",
  "difficulty": 1511940424789,
  "gasLimit": {
    "_hex": "0x57854"
  },
  "gasUsed": {
    "_hex": "0x1a3b8"
  },
  "miner": "0xbb7B8287f3F0a933474a79eAe42CBCa977791171",
  "extraData": "0x476574682f4c5649562f76312e302e312f6c696e75782f676f312e342e32",
  "transactions": [
    {
      "hash": "0x17cfc967783b08ad8d58f640e4060f323bd1a3cb53101d3324c272ed70e55718",
      "blockHash": "0xcf01d1111268383a44d6b8d46dabb331e8b1de716d1a67fff070315e32675e84",
      "blockNumber": 50230,
      "transactionIndex": 0,
      "confirmations": null,
      "from": "0x5e1fBd4E58e2312b3C78d7aAAAfA10bf9C3189E3",
      "gasPrice": {
        "_hex": "0x1190afdd38c"
      },
      "gasLimit": {
        "_hex": "0x15f90"
      },
      "to": "0x2910543Af39abA0Cd09dBb2D50200b3E800A63D2",
      "value": {
        "_hex": "0x3635c9adc5dea00000"
      },
      "nonce": 2,
      "data": "0x454e4d515456374252",
      "r": "0xa7805b7b5195f37ab41f19505ba367dac47145a1fbdd8fbff017fe2546ccf568",
      "s": "0x6c9cfa9803fef523338196c39688d2c00548afad912d1d36b647e1225076edf4",
      "v": 28,
      "creates": null,
      "raw": "0xf878028601190afdd38c83015f90942910543af39aba0cd09dbb2d50200b3e800a63d2893635c9adc5dea0000089454e4d5154563742521ca0a7805b7b5195f37ab41f19505ba367dac47145a1fbdd8fbff017fe2546ccf568a06c9cfa9803fef523338196c39688d2c00548afad912d1d36b647e1225076edf4",
      "networkId": 0,
      "chainId": 0
    },
    {
      "hash": "0x354a0d645b6d11739387f56ffb0467d27b836c3643f3538e0ff3a076b616631d",
      "blockHash": "0xcf01d1111268383a44d6b8d46dabb331e8b1de716d1a67fff070315e32675e84",
      "blockNumber": 50230,
      "transactionIndex": 1,
      "confirmations": null,
      "from": "0x5e1fBd4E58e2312b3C78d7aAAAfA10bf9C3189E3",
      "gasPrice": {
        "_hex": "0x1190afdd38c"
      },
      "gasLimit": {
        "_hex": "0x15f90"
      },
      "to": "0x2910543Af39abA0Cd09dBb2D50200b3E800A63D2",
      "value": {
        "_hex": "0x3635c9adc5dea00000"
      },
      "nonce": 3,
      "data": "0x454e4d515456374252",
      "r": "0x8ad9d4eea51d455eadcc511406d96d949479a2595e0425008726086c0d4bc916",
      "s": "0x2d749fc012f7c09f61d96a911368a24de742c2211932e6e7686e86bdcf29bfcd",
      "v": 27,
      "creates": null,
      "raw": "0xf878038601190afdd38c83015f90942910543af39aba0cd09dbb2d50200b3e800a63d2893635c9adc5dea0000089454e4d5154563742521ba08ad9d4eea51d455eadcc511406d96d949479a2595e0425008726086c0d4bc916a02d749fc012f7c09f61d96a911368a24de742c2211932e6e7686e86bdcf29bfcd",
      "networkId": 0,
      "chainId": 0
    },
    {
      "hash": "0xdf371f3e344bc0251b54457c7996e504cbd8b41752524d594711a026afe9276d",
      "blockHash": "0xcf01d1111268383a44d6b8d46dabb331e8b1de716d1a67fff070315e32675e84",
      "blockNumber": 50230,
      "transactionIndex": 2,
      "confirmations": null,
      "from": "0x5e1fBd4E58e2312b3C78d7aAAAfA10bf9C3189E3",
      "gasPrice": {
        "_hex": "0x1190afdd38c"
      },
      "gasLimit": {
        "_hex": "0x15f90"
      },
      "to": "0x2910543Af39abA0Cd09dBb2D50200b3E800A63D2",
      "value": {
        "_hex": "0x3635c9adc5dea00000"
      },
      "nonce": 4,
      "data": "0x454e4d515456374252",
      "r": "0x5c53795780f2bf54ce4f5319c184def1ae8134515ff7e6fdebf99f37c8326340",
      "s": "0x21d9c2877bf007bd3cde1130aa14c29ac891d45b69b163fe33b368cd6cbd9006",
      "v": 28,
      "creates": null,
      "raw": "0xf878048601190afdd38c83015f90942910543af39aba0cd09dbb2d50200b3e800a63d2893635c9adc5dea0000089454e4d5154563742521ca05c53795780f2bf54ce4f5319c184def1ae8134515ff7e6fdebf99f37c8326340a021d9c2877bf007bd3cde1130aa14c29ac891d45b69b163fe33b368cd6cbd9006",
      "networkId": 0,
      "chainId": 0
    },
    {
      "hash": "0x7750f31a1fdad5bef116e29cce2a65c002b5ac555b4a7014ddee504dbd9d619a",
      "blockHash": "0xcf01d1111268383a44d6b8d46dabb331e8b1de716d1a67fff070315e32675e84",
      "blockNumber": 50230,
      "transactionIndex": 3,
      "confirmations": null,
      "from": "0x50E13023bD9CA96ad4C53fdfd410CB6b1f420Bdf",
      "gasPrice": {
        "_hex": "0xde0df16c3"
      },
      "gasLimit": {
        "_hex": "0x15f90"
      },
      "to": "0x2910543Af39abA0Cd09dBb2D50200b3E800A63D2",
      "value": {
        "_hex": "0xa844a7424d9c80000"
      },
      "nonce": 1,
      "data": "0x454e434a4243344e52",
      "r": "0xc6d988195ed0cc137b2928e0ed4fff10ab45a9225778b716e1461940ce07c501",
      "s": "0x2e59f7f7bb62ad8584bf79db4df87d03c6f72801a8dcf12cba0c3fac8baae312",
      "v": 27,
      "creates": null,
      "raw": "0xf87701850de0df16c383015f90942910543af39aba0cd09dbb2d50200b3e800a63d2890a844a7424d9c8000089454e434a4243344e521ba0c6d988195ed0cc137b2928e0ed4fff10ab45a9225778b716e1461940ce07c501a02e59f7f7bb62ad8584bf79db4df87d03c6f72801a8dcf12cba0c3fac8baae312",
      "networkId": 0,
      "chainId": 0
    },
    {
      "hash": "0x2e0f2db57e0dcb5d03da943cb4911de0aac72d05af06e986e278fbb8d7512308",
      "blockHash": "0xcf01d1111268383a44d6b8d46dabb331e8b1de716d1a67fff070315e32675e84",
      "blockNumber": 50230,
      "transactionIndex": 4,
      "confirmations": null,
      "from": "0x136D4b662BbD1080Cfe4445B0fA213864435B7f1",
      "gasPrice": {
        "_hex": "0xd5e6ae554"
      },
      "gasLimit": {
        "_hex": "0x5208"
      },
      "to": "0xc8ebccC5F5689Fa8659d83713341e5aD19349448",
      "value": {
        "_hex": "0xbb9551fc24000"
      },
      "nonce": 6,
      "data": "0x",
      "r": "0x3c6e5005c9d1eb7a6e4b3a79c978b50d1f5d0a60fd9e205bff9c6a3c77358c45",
      "s": "0x1b5d2817547d70dfc2f1478e6f0a50f1d79b108051d932430583b21456fdd31c",
      "v": 28,
      "creates": null,
      "raw": "0xf86b06850d5e6ae55482520894c8ebccc5f5689fa8659d83713341e5ad19349448870bb9551fc24000801ca03c6e5005c9d1eb7a6e4b3a79c978b50d1f5d0a60fd9e205bff9c6a3c77358c45a01b5d2817547d70dfc2f1478e6f0a50f1d79b108051d932430583b21456fdd31c",
      "networkId": 0,
      "chainId": 0
    }
  ]
}