{
  "hash": "0xfef33c370a52861147e4742cdfd7644d26d5457417c0c041f3b09b9221bbd3ba",
  "parentHash": "0xa5f1129e9284b1f09fd557b85e9fb7d8f82bf856dcf8b2827440e869c47506fb",
  "number": 76233,
  "timestamp": 1439416996,
  "nonce": "0x62f7412d4fb064f1",
  "difficulty": 2239584149041,
  "gasLimit": {
    "_hex": "0x2fefd8"
  },
  "gasUsed": {
    "_hex": "0xa410"
  },
  "miner": "0xe6A7a1d47ff21B6321162AEA7C6CB457D5476Bca",
  "extraData": "0x476574682f76312e302e312d38326566323666362f6c696e75782f676f312e34",
  "transactions": [
    {
      "hash": "0xa7fd005610c4e8c5f7fa06de84508a5976f9368ec11cab6cb66bb7801c4f1f39",
      "blockHash": "0xfef33c370a52861147e4742cdfd7644d26d5457417c0c041f3b09b9221bbd3ba",
      "blockNumber": 76233,
      "transactionIndex": 0,
      "confirmations": null,
      "from": "0x120A270bbC009644e35F0bB6ab13f95b8199c4ad",
      "gasPrice": {
        "_hex": "0xe2a053059"
      },
      "gasLimit": {
        "_hex": "0x3d090"
      },
      "to": "0x6d134bfF5434a4cCe5992A7fb698Ec4755A9B601",
      "value": {
        "_hex": "0x25f273933db5700000"
      },
      "nonce": 308,
      "data": "0x",
      "r": "0x3420dea0f2875b67e042dbb8d4e7626fd4170e4fc932160538cad68c14cba6c6",
      "s": "0x3c8eecb6f579213aa30640725905a56a9c8363712e72b64803b8fe347303e630",
      "v": 27,
      "creates": null,
      "raw": "0xf870820134850e2a0530598303d090946d134bff5434a4cce5992a7fb698ec4755a9b6018925f273933db5700000801ba03420dea0f2875b67e042dbb8d4e7626fd4170e4fc932160538cad68c14cba6c6a03c8eecb6f579213aa30640725905a56a9c8363712e72b64803b8fe347303e630",
      "networkId": 0,
      "chainId": 0
    },
    {
      "hash": "0x096852fc5f48b54b966d621a13e5963ef2f8b308cf169fbddbac28b521793024",
      "blockHash": "0xfef33c370a52861147e4742cdfd7644d26d5457417c0c041f3b09b9221bbd3ba",
      "blockNumber": 76233,
      "transactionIndex": 1,
      "confirmations": null,
      "from": "0x120A270bbC009644e35F0bB6ab13f95b8199c4ad",
      "gasPrice": {
        "_hex": "0xe2a053059"
      },
      "gasLimit": {
        "_hex": "0x3d090"
      },
      "to": "0xf6175d230b6fC1398c3CD5fD3054366Cd1E193CB",
      "value": {
        "_hex": "0x1b1ae4d6e2ef500000"
      },
      "nonce": 309,
      "data": "0x",
      "r": "0x039f437dae76b25747d9e8713b3eff688129928b076c037839b036f75b99e8bf",
      "s": "0x6a802dc872c95ab059f78cc96c7925c25e949c36896270ba9f2fb33cd924bb64",
      "v": 28,
      "creates": null,
      "raw": "0xf870820135850e2a0530598303d09094f6175d230b6fc1398c3cd5fd3054366cd1e193cb891b1ae4d6e2ef500000801ca0039f437dae76b25747d9e8713b3eff688129928b076c037839b036f75b99e8bfa06a802dc872c95ab059f78cc96c7925c25e949c36896270ba9f2fb33cd924bb64",
      "networkId": 0,
      "chainId": 0
    }
  ]
}