{
  "hash": "0xac0f4e5800044f418cee232d9a542f6e882c90f58c0737f78267f5ca6d67e4d3",
  "parentHash": "0x85dc12da960836baae7e1d5aaed17ed889ce77f2e2dc4314d0e0c3ce521097b5",
  "number": 90820,
  "timestamp": 1439645932,
  "nonce": "0x94d03baacbabc98f",
  "difficulty": 3404034971349,
  "gasLimit": {
    "_hex": "0x2fefd8"
  },
  "gasUsed": {
    "_hex": "0x5208"
  },
  "miner": "0x458F183347F45a4001807728A89F31E9Da9D4A58",
  "extraData": "0x476574682f76312e302e312d38326566323666362f6c696e75782f676f312e34",
  "transactions": [
    {
      "hash": "0xba931296575454ce073cb54da3f08a04f250cc578c2517a384018842ff1ceb63",
      "blockHash": "0xac0f4e5800044f418cee232d9a542f6e882c90f58c0737f78267f5ca6d67e4d3",
      "blockNumber": 90820,
      "transactionIndex": 0,
      "confirmations": null,
      "from": "0xC8224326e29eD30AEEC1B70ec238A818169ecaBA",
      "gasPrice": {
        "_hex": "0xdc753b320"
      },
      "gasLimit": {
        "_hex": "0x15f90"
      },
      "to": "0x61F642543d22bAf5382908a714E675Cc0b51ea45",
      "value": {
        "_hex": "0xb469471f80140000"
      },
      "nonce": 7,
      "data": "0x",
      "r": "0x6945d5305bee8ee89f2ec3876669d3a9337e52e4a8e6d335ecbe3f140bdb64ad",
      "s": "0x5d299b1f6108e1a2f27ceee8526c7098154169d8d7426cbfe8a3f697ac8de606",
      "v": 27,
      "creates": null,
      "raw": "0xf86d07850dc753b32083015f909461f642543d22baf5382908a714e675cc0b51ea4588b469471f80140000801ba06945d5305bee8ee89f2ec3876669d3a9337e52e4a8e6d335ecbe3f140bdb64ada05d299b1f6108e1a2f27ceee8526c7098154169d8d7426cbfe8a3f697ac8de606",
      "networkId": 0,
      "chainId": 0
    }
  ]
}