{
  "hash": "0xc37f116bd636cffc62ff5c988f2add1ed934c8227d27dc0be24284be42ff618f",
  "parentHash": "0x7b7ff6ae659a3dfa274196f378dc6620dc8c6031e75866b8c3336799feae6413",
  "number": 55439,
  "timestamp": 1439070688,
  "nonce": "0x37941bf778a50fa0",
  "difficulty": 1629798705857,
  "gasLimit": {
    "_hex": "0x2fefd8"
  },
  "gasUsed": {
    "_hex": "0x1bbfa"
  },
  "miner": "0x01d9DA08cc6Fb97c0DE1B6F4C28910A0859Ed1A1",
  "extraData": "0x476574682f76312e302e312f6c696e75782f676f312e342e32",
  "transactions": [
    {
      "hash": "0x1c6105d79ec0870f12f8eec2a05d30f5421bf2affce87a8366e2fbfa8e4347d6",
      "blockHash": "0xc37f116bd636cffc62ff5c988f2add1ed934c8227d27dc0be24284be42ff618f",
      "blockNumber": 55439,
      "transactionIndex": 0,
      "confirmations": null,
      "from": "0x0028795F5139935918A4176C80b01d32549E2819",
      "gasPrice": {
        "_hex": "0xd7d40ace3"
      },
      "gasLimit": {
        "_hex": "0x7a120"
      },
      "to": "0x109C4f2CCc82C4d77Bde15F306707320294Aea3F",
      "value": {
        "_hex": "0xde0b6b3a7640000"
      },
      "nonce": 0,
      "data": "0x",
      "r": "0x1a7ccfc7cb0f452bd4983afe0f71a4b26d4d033bacfa93ad76d9de2c704d4648",
      "s": "0x34059e89623c6f225a615d166abc1ba081afa8a334d96caba25c85a93877800f",
      "v": 28,
      "creates": null,
      "raw": "0xf86d80850d7d40ace38307a12094109c4f2ccc82c4d77bde15f306707320294aea3f880de0b6b3a7640000801ca01a7ccfc7cb0f452bd4983afe0f71a4b26d4d033bacfa93ad76d9de2c704d4648a034059e89623c6f225a615d166abc1ba081afa8a334d96caba25c85a93877800f",
      "networkId": 0,
      "chainId": 0
    },
    {
      "hash": "0xe4d83460d18127b519685b1868b2a57646fbb0ea2286cf0ae78a3605a6ab4177",
      "blockHash": "0xc37f116bd636cffc62ff5c988f2add1ed934c8227d27dc0be24284be42ff618f",
      "blockNumber": 55439,
      "transactionIndex": 1,
      "confirmations": null,
      "from": "0x0028795F5139935918A4176C80b01d32549E2819",
      "gasPrice": {
        "_hex": "0xd7d40ace3"
      },
      "gasLimit": {
        "_hex": "0x7a120"
      },
      "to": "0xA327075af2a223A1C83a36aDa1126afE7430f955",
      "value": {
        "_hex": "0x8ac7230489e80000"
      },
      "nonce": 1,
      "data": "0x",
      "r": "0x5b6f6fc8a47ed43814f118eeb99d503e0f309000d593678010c1c867d1960c69",
      "s": "0x478f066f0dc4f2c79584c97086cb320b8b103148fda44431a8bb12334c586870",
      "v": 28,
      "creates": null,
      "raw": "0xf86d01850d7d40ace38307a12094a327075af2a223a1c83a36ada1126afe7430f955888ac7230489e80000801ca05b6f6fc8a47ed43814f118eeb99d503e0f309000d593678010c1c867d1960c69a0478f066f0dc4f2c79584c97086cb320b8b103148fda44431a8bb12334c586870",
      "networkId": 0,
      "chainId": 0
    }
  ]
}