{
  "hash": "0x96df36fb587ecb220ecd9f323b20b6aa7f58d17314014bf6dccf949b878c4ae1",
  "parentHash": "0x0b5c46e21669f24c274471d206bd9375f6195e1bc1fbae28a72cbf825d9a1d8b",
  "number": 50959,
  "timestamp": 1438997186,
  "nonce": "0x86ef6ba0a60bc3a7",
  "difficulty": 1549929300819,
  "gasLimit": {
    "_hex": "0x86141"
  },
  "gasUsed": {
    "_hex": "0x5208"
  },
  "miner": "0xf8E0CA3Ed80bd541b94BEdCf259e8CF2141A9523",
  "extraData": "0x476574682f76312e302e312f77696e646f77732f676f312e342e32",
  "transactions": [
    {
      "hash": "0xdfde004dd1230ef8c7c75cc20584fbf3e67fd2169fc0f5f4af6a26b3c3a49634",
      "blockHash": "0x96df36fb587ecb220ecd9f323b20b6aa7f58d17314014bf6dccf949b878c4ae1",
      "blockNumber": 50959,
      "transactionIndex": 0,
      "confirmations": null,
      "from": "0x283396ce3CaC398BcBE7227F323e78FF96D08767",
      "gasPrice": {
        "_hex": "0xced4eb51f"
      },
      "gasLimit": {
        "_hex": "0x15f90"
      },
      "to": "0x3F3F51FA40eC00Cd81D0898bF65F7F07b4cd146A",
      "value": {
        "_hex": "0x15a13cc201e4dc0000"
      },
      "nonce": 3,
      "data": "0x",
      "r": "0xe0cab575ddc30250fef17dc09e0aedbc6ed40e05505efaf906c9488e3f4ba2b5",
      "s": "0x7c4136af3c0ff0f0ff086b2d17fa11048dbcb06dd837b66dc557760331654e1a",
      "v": 27,
      "creates": null,
      "raw": "0xf86e03850ced4eb51f83015f90943f3f51fa40ec00cd81d0898bf65f7f07b4cd146a8915a13cc201e4dc0000801ba0e0cab575ddc30250fef17dc09e0aedbc6ed40e05505efaf906c9488e3f4ba2b5a07c4136af3c0ff0f0ff086b2d17fa11048dbcb06dd837b66dc557760331654e1a",
      "networkId": 0,
      "chainId": 0
    }
  ]
}