{
  "hash": "0xe48fcf29ec46afb775c0c5bf6e79b27d4dcb873129c7f757463153602c4e7993",
  "parentHash": "0x45ceb6f7851656ab3ef39b168d98ddb34d03615d3b2156bc20bb99917f7309bb",
  "number": 84357,
  "timestamp": 1439548617,
  "nonce": "0x17180e0ad57a7ca0",
  "difficulty": 2537801910861,
  "gasLimit": {
    "_hex": "0x2fefd8"
  },
  "gasUsed": {
    "_hex": "0x5208"
  },
  "miner": "0x580992B51e3925e23280EfB93d3047C82f17E038",
  "extraData": "0x476574682f76312e302e312f6c696e75782f676f312e342e32",
  "transactions": [
    {
      "hash": "0xd18f08fc934bfe9e77cfd9b0b3dcedfa7f41cc7a8ef0a94582ad3f22ab095b48",
      "blockHash": "0xe48fcf29ec46afb775c0c5bf6e79b27d4dcb873129c7f757463153602c4e7993",
      "blockNumber": 84357,
      "transactionIndex": 0,
      "confirmations": null,
      "from": "0x1406854D149E081aC09Cb4CA560Da463f3123059",
      "gasPrice": {
        "_hex": "0xd1f217cbf"
      },
      "gasLimit": {
        "_hex": "0x7a120"
      },
      "to": "0xa0E74ae010D51894734c308D612131056bB721AD",
      "value": {
        "_hex": "0x8ac7230489e80000"
      },
      "nonce": 17,
      "data": "0x",
      "r": "0xea75c3fd0409c34b2387dc03c12f6911b9679da3464dedc4f2e4e7245333d7a2",
      "s": "0x28142d6d522c30138f25006350b92308524bd43ca16369a87dd4f46f03f6eca4",
      "v": 28,
      "creates": null,
      "raw": "0xf86d11850d1f217cbf8307a12094a0e74ae010d51894734c308d612131056bb721ad888ac7230489e80000801ca0ea75c3fd0409c34b2387dc03c12f6911b9679da3464dedc4f2e4e7245333d7a2a028142d6d522c30138f25006350b92308524bd43ca16369a87dd4f46f03f6eca4",
      "networkId": 0,
      "chainId": 0
    }
  ]
}