{
  "hash": "0xe9bf01f20ecd9efcb000adb72a41bcad546d2e373c412582ae24592d18a7f3d5",
  "parentHash": "0xa2331596e8e4573967b1b0946188c5645074bc19b87ab59d285e680791da2b17",
  "number": 71586,
  "timestamp": 1439338606,
  "nonce": "0x140e033631f819e5",
  "difficulty": 2172942946623,
  "gasLimit": {
    "_hex": "0x2fefd8"
  },
  "gasUsed": {
    "_hex": "0xaec1"
  },
  "miner": "0x9746c7e1ef2bd21FF3997fa467593a89cb852BD0",
  "extraData": "0x476574682f76312e302e312f77696e646f77732f676f312e342e32",
  "transactions": [
    {
      "hash": "0x39789761cf547e44e42d2dce9d3762d8047e2cec7178e6c5b6ae501a8202958a",
      "blockHash": "0xe9bf01f20ecd9efcb000adb72a41bcad546d2e373c412582ae24592d18a7f3d5",
      "blockNumber": 71586,
      "transactionIndex": 0,
      "confirmations": null,
      "from": "0x17580B766f7453525ca4C6A88b01b50570EA088C",
      "gasPrice": {
        "_hex": "0xdc6a2bcc7"
      },
      "gasLimit": {
        "_hex": "0x61a80"
      },
      "to": "0x5Fe5B7546D1628f7348B023A0393de1FC825A4fD",
      "value": {
        "_hex": "0x29a2241af62c0000"
      },
      "nonce": 225,
      "data": "0xb595b8b50000000000000000000000000000000000000000000000000000000000000001",
      "r": "0xf69dda5eb6cf71c6fdaf7baf4e55af11b98f4891c64286366ed27084edac6b32",
      "s": "0x357f7799cfb9b9f20370fb8e7d271af748b9107d1026360862e1f474360ae8c0",
      "v": 27,
      "creates": null,
      "raw": "0xf89281e1850dc6a2bcc783061a80945fe5b7546d1628f7348b023a0393de1fc825a4fd8829a2241af62c0000a4b595b8b500000000000000000000000000000000000000000000000000000000000000011ba0f69dda5eb6cf71c6fdaf7baf4e55af11b98f4891c64286366ed27084edac6b32a0357f7799cfb9b9f20370fb8e7d271af748b9107d1026360862e1f474360ae8c0",
      "networkId": 0,
      "chainId": 0
    }
  ]
}