{
  "hash": "0x6ea537ed1a9c3d9f9b0feade8826896306a132fe88751a7f106afeb4615e97e7",
  "parentHash": "0x871b709ecd97fe9b524a50d83b181e251e4534f4f49b843996d940816e883d7d",
  "number": 112818,
  "timestamp": 1440013738,
  "nonce": "0x916e41ef46ba5859",
  "difficulty": 4428071398502,
  "gasLimit": {
    "_hex": "0x2fefd8"
  },
  "gasUsed": {
    "_hex": "0x5208"
  },
  "miner": "0xe6A7a1d47ff21B6321162AEA7C6CB457D5476Bca",
  "extraData": "0x476574682f76312e302e312d38326566323666362f6c696e75782f676f312e34",
  "transactions": [
    {
      "hash": "0xff604d1d7085d9802d379a35306c8c2fbfbb613e7ab6f1fc143bbe3877e94509",
      "blockHash": "0x6ea537ed1a9c3d9f9b0feade8826896306a132fe88751a7f106afeb4615e97e7",
      "blockNumber": 112818,
      "transactionIndex": 0,
      "confirmations": null,
      "from": "0x9ac4E9D48C027208905CF2A81f304664A5dAeF87",
      "gasPrice": {
        "_hex": "0xd058ad26e"
      },
      "gasLimit": {
        "_hex": "0x5208"
      },
      "to": "0x32Be343B94f860124dC4fEe278FDCBD38C102D88",
      "value": {
        "_hex": "0x4ae5504850fc8000"
      },
      "nonce": 2,
      "data": "0x",
      "r": "0x3606fbfd37474ec5859e9ec86c56b899e4a3161d47c6e6bbbed4a44796c1acce",
      "s": "0x4115e1c538e78d9d7d9e6568af5756786482df82cf344352a9cce62debb7673f",
      "v": 28,
      "creates": null,
      "raw": "0xf86c02850d058ad26e8252089432be343b94f860124dc4fee278fdcbd38c102d88884ae5504850fc8000801ca03606fbfd37474ec5859e9ec86c56b899e4a3161d47c6e6bbbed4a44796c1accea04115e1c538e78d9d7d9e6568af5756786482df82cf344352a9cce62debb7673f",
      "networkId": 0,
      "chainId": 0
    }
  ]
}