{
  "hash": "0xe1fde52fdbe231d322f33a2ef1e26dc6115f4135af6550cdec7e1fb2df598361",
  "parentHash": "0x2dd5db69045d1a7d904875d84ae06d0a47b8560983cdd60611e687520a9c9529",
  "number": 107480,
  "timestamp": 1439923116,
  "nonce": "0x5da26ad48e6fb786",
  "difficulty": 4417927923459,
  "gasLimit": {
    "_hex": "0x2fefd8"
  },
  "gasUsed": {
    "_hex": "0x5208"
  },
  "miner": "0xA560c68C8252c7BA1cA82B9C5C0d15CBa39c039b",
  "extraData": "0x",
  "transactions": [
    {
      "hash": "0x995b2aab85d8b3d73aa06ca2f0573900b0aa9eb30799c83cbfe729e00b65090f",
      "blockHash": "0xe1fde52fdbe231d322f33a2ef1e26dc6115f4135af6550cdec7e1fb2df598361",
      "blockNumber": 107480,
      "transactionIndex": 0,
      "confirmations": null,
      "from": "0xa70a9a7040d542C632D8e0bE7c5513A8a5Bbc752",
      "gasPrice": {
        "_hex": "0xdb3c8212b"
      },
      "gasLimit": {
        "_hex": "0x5208"
      },
      "to": "0x32Be343B94f860124dC4fEe278FDCBD38C102D88",
      "value": {
        "_hex": "0x455f2d7ddc9d5400"
      },
      "nonce": 255,
      "data": "0x",
      "r": "0x2e6aa1ca1852c1f029c5bb8f1f02f9aa39613f3d6520f8d39642c1bd925bd744",
      "s": "0x696faa52cfbd2b1b2eb7dbfc47f59533f721b6e4122141fd409292585a3bab93",
      "v": 28,
      "creates": null,
      "raw": "0xf86d81ff850db3c8212b8252089432be343b94f860124dc4fee278fdcbd38c102d8888455f2d7ddc9d5400801ca02e6aa1ca1852c1f029c5bb8f1f02f9aa39613f3d6520f8d39642c1bd925bd744a0696faa52cfbd2b1b2eb7dbfc47f59533f721b6e4122141fd409292585a3bab93",
      "networkId": 0,
      "chainId": 0
    }
  ]
}