{
  "hash": "0x43f4680dc481cb5fdf636e1de8a1f0bd2497dead1b71f950c6b2cfeae16644f7",
  "parentHash": "0x03170dea13fe9f3c7645d90ed900fb49aec891eb51d8e7e75b296e3e0bb7ab2e",
  "number": 110826,
  "timestamp": 1439980105,
  "nonce": "0xdf564e84aaa160ca",
  "difficulty": 4403247022863,
  "gasLimit": {
    "_hex": "0x2fefd8"
  },
  "gasUsed": {
    "_hex": "0x18326"
  },
  "miner": "0x623d2411c3bb3340784155F9a688b0085251aB5c",
  "extraData": "0x",
  "transactions": [
    {
      "hash": "0xc2be3dca1cf30c786c3b7085ced88d5ba6826c9b668187935dac51dbc536c0bc",
      "blockHash": "0x43f4680dc481cb5fdf636e1de8a1f0bd2497dead1b71f950c6b2cfeae16644f7",
      "blockNumber": 110826,
      "transactionIndex": 0,
      "confirmations": null,
      "from": "0x25c6e74Ff1d928df98137AF4dF8430df24F07Cd7",
      "gasPrice": {
        "_hex": "0xde03b6a3c"
      },
      "gasLimit": {
        "_hex": "0x249f0"
      },
      "to": "0xE28e72FCf78647ADCe1F1252F240bbfaebD63BcC",
      "value": {
        "_hex": "0xad78ebc5ac6200000"
      },
      "nonce": 7,
      "data": "0x45466f3a",
      "r": "0xad74b0a885afa2e3a0b91eba1a479dc5240ef38b4154dfae8daef2bafe48c9e8",
      "s": "0x0d6c0469e56d34a90a27cfc11f23e8dbb788b03efd7d1715b74e95f61ffe0a7d",
      "v": 28,
      "creates": null,
      "raw": "0xf87207850de03b6a3c830249f094e28e72fcf78647adce1f1252f240bbfaebd63bcc890ad78ebc5ac62000008445466f3a1ca0ad74b0a885afa2e3a0b91eba1a479dc5240ef38b4154dfae8daef2bafe48c9e8a00d6c0469e56d34a90a27cfc11f23e8dbb788b03efd7d1715b74e95f61ffe0a7d",
      "networkId": 0,
      "chainId": 0
    }
  ]
}