{
  "hash": "0x3eb4511f61cf40fb22f60b95666894cf1fc6674fb46848c93216f35f39cbf5b1",
  "parentHash": "0xa79a1cd282f0133e5c8a5888c2e55dc95eb92025e121db98ced354b36e4529ab",
  "number": 86527,
  "timestamp": 1439579528,
  "nonce": "0x931ca033fc09dc0e",
  "difficulty": 2891857467854,
  "gasLimit": {
    "_hex": "0x2fefd8"
  },
  "gasUsed": {
    "_hex": "0x5208"
  },
  "miner": "0xe6A7a1d47ff21B6321162AEA7C6CB457D5476Bca",
  "extraData": "0x476574682f76312e302e312d38326566323666362f6c696e75782f676f312e34",
  "transactions": [
    {
      "hash": "0x4d11f87116784757dab173286a24aceeb5c0cae5f2381e6b91fa6dc06ceef436",
      "blockHash": "0x3eb4511f61cf40fb22f60b95666894cf1fc6674fb46848c93216f35f39cbf5b1",
      "blockNumber": 86527,
      "transactionIndex": 0,
      "confirmations": null,
      "from": "0x2910543Af39abA0Cd09dBb2D50200b3E800A63D2",
      "gasPrice": {
        "_hex": "0xcfee2abe4"
      },
      "gasLimit": {
        "_hex": "0x5208"
      },
      "to": "0xE652BB86f049541e438AF3b8bCafdA935C686691",
      "value": {
        "_hex": "0x5b59c5f82874e000"
      },
      "nonce": 668,
      "data": "0x",
      "r": "0xe28fa583594bdf044dafb06e6241ce2a6b5874ab16505802ba915b07ba29de5a",
      "s": "0x32a9af5c9a4b590d233a14d1a66e90501166ad7378045c444d25c1de850084e6",
      "v": 28,
      "creates": null,
      "raw": "0xf86e82029c850cfee2abe482520894e652bb86f049541e438af3b8bcafda935c686691885b59c5f82874e000801ca0e28fa583594bdf044dafb06e6241ce2a6b5874ab16505802ba915b07ba29de5aa032a9af5c9a4b590d233a14d1a66e90501166ad7378045c444d25c1de850084e6",
      "networkId": 0,
      "chainId": 0
    }
  ]
}