{
  "hash": "0xa301eee6ef2f9627785c48df6b89009a81c0927eb1a2a7cc9830f19023e554be",
  "parentHash": "0x7951c37fd484589f037d203af16dd55db037f77ec4fd5093677c5931ad385a1b",
  "number": 100892,
  "timestamp": 1439814077,
  "nonce": "0x9634dcb6b21dabf9",
  "difficulty": 3867727279914,
  "gasLimit": {
    "_hex": "0x2fefd8"
  },
  "gasUsed": {
    "_hex": "0x5208"
  },
  "miner": "0xe6A7a1d47ff21B6321162AEA7C6CB457D5476Bca",
  "extraData": "0x476574682f76312e302e312d38326566323666362f6c696e75782f676f312e34",
  "transactions": [
    {
      "hash": "0x24badb0dd38b711f6596bd3899e50a1d2af7f4921a0dec1f31c960773e6a3659",
      "blockHash": "0xa301eee6ef2f9627785c48df6b89009a81c0927eb1a2a7cc9830f19023e554be",
      "blockNumber": 100892,
      "transactionIndex": 0,
      "confirmations": null,
      "from": "0x943800a6196105B4937F48570Dc5D0232a962da5",
      "gasPrice": {
        "_hex": "0xba43b7400"
      },
      "gasLimit": {
        "_hex": "0x5b04"
      },
      "to": "0x02d7FFc396D24b1dBfca72ce1ae8a22dfa5DA000",
      "value": {
        "_hex": "0xde0b6b3a7640000"
      },
      "nonce": 7,
      "data": "0x",
      "r": "0x78b77b1dfe294a1424e311a9e4f4d1886bd39cadcde1e644c01e1f56f7ba7ec0",
      "s": "0x2fc457b03a89f033453b8b78c014f8b50840d1b15e3f51d8abdbe012727aefd0",
      "v": 28,
      "creates": null,
      "raw": "0xf86c07850ba43b7400825b049402d7ffc396d24b1dbfca72ce1ae8a22dfa5da000880de0b6b3a7640000801ca078b77b1dfe294a1424e311a9e4f4d1886bd39cadcde1e644c01e1f56f7ba7ec0a02fc457b03a89f033453b8b78c014f8b50840d1b15e3f51d8abdbe012727aefd0",
      "networkId": 0,
      "chainId": 0
    }
  ]
}