{
  "hash": "0xd8dd84e02a28cc62a4551a0f23676abb9437c7264f8570dd32ebbe04ef918724",
  "parentHash": "0xa56808586ed16f8bcb6c82647dfd1e9680d7c268081488fdec06077ae7ec3742",
  "number": 85635,
  "timestamp": 1439566472,
  "nonce": "0xe236addcaf26bab6",
  "difficulty": 2792253846557,
  "gasLimit": {
    "_hex": "0x2fefd8"
  },
  "gasUsed": {
    "_hex": "0xa674"
  },
  "miner": "0xB1A4B41b8e75a153841c99c62d18588d45e7b406",
  "extraData": "0x",
  "transactions": [
    {
      "hash": "0xe55ef6697039f1da627d093fd1c05eebc11391919f5be4b1a43fb966e116e1be",
      "blockHash": "0xd8dd84e02a28cc62a4551a0f23676abb9437c7264f8570dd32ebbe04ef918724",
      "blockNumber": 85635,
      "transactionIndex": 0,
      "confirmations": null,
      "from": "0xE208812A684098F3da4efe6abA256256AdFE3Fe6",
      "gasPrice": {
        "_hex": "0x110c8f7d8de"
      },
      "gasLimit": {
        "_hex": "0xc350"
      },
      "to": "0x2910543Af39abA0Cd09dBb2D50200b3E800A63D2",
      "value": {
        "_hex": "0xde0b6b3a7640000"
      },
      "nonce": 0,
      "data": "0x454e433537344b5152",
      "r": "0x46b5c1d5aac2608e1075e0ba3aabe16bdf3b61829fffb25752f9eb8d4af7bbf7",
      "s": "0xaa5491bbf105772089dd33746edc37d2d3f4738eedba853a49fcc8b7d243a952",
      "v": 28,
      "creates": null,
      "raw": "0xf87680860110c8f7d8de82c350942910543af39aba0cd09dbb2d50200b3e800a63d2880de0b6b3a764000089454e433537344b51521ca046b5c1d5aac2608e1075e0ba3aabe16bdf3b61829fffb25752f9eb8d4af7bbf7a0aa5491bbf105772089dd33746edc37d2d3f4738eedba853a49fcc8b7d243a952",
      "networkId": 0,
      "chainId": 0
    },
    {
      "hash": "0xb7af5e77665d4320d9180b5d4b3f8cfd68b19e645e9cf91b452e29fbad02c27d",
      "blockHash": "0xd8dd84e02a28cc62a4551a0f23676abb9437c7264f8570dd32ebbe04ef918724",
      "blockNumber": 85635,
      "transactionIndex": 1,
      "confirmations": null,
      "from": "0xA8c8B89fD99a25b4a085DfF3d967b47b10b37034",
      "gasPrice": {
        "_hex": "0xcd281c9d4"
      },
      "gasLimit": {
        "_hex": "0x15f90"
      },
      "to": "0x76Df61770A702069FE1381EAE55AD11A03dEcA93",
      "value": {
        "_hex": "0x2386f26fc10000"
      },
      "nonce": 0,
      "data": "0x",
      "r": "0x2793718e66c2726355ab836792eb4048da08f43f13bcb494cfe17f8fa4bf020b",
      "s": "0x09d6e153fca7813322935bbb5780d2b4c4cdfe5b6c7bfc71136f54b90413027b",
      "v": 27,
      "creates": null,
      "raw": "0xf86c80850cd281c9d483015f909476df61770a702069fe1381eae55ad11a03deca93872386f26fc10000801ba02793718e66c2726355ab836792eb4048da08f43f13bcb494cfe17f8fa4bf020ba009d6e153fca7813322935bbb5780d2b4c4cdfe5b6c7bfc71136f54b90413027b",
      "networkId": 0,
      "chainId": 0
    }
  ]
}