{
  "hash": "0x7f3f4333b372132558d840fd8b21740396b11cdc482b930667ea8f80b020a8c4",
  "parentHash": "0x082e4624b8911c23da44148cbaabc818cc3c94a8a6418874445de5237809ee2c",
  "number": 115308,
  "timestamp": 1440054972,
  "nonce": "0xeb6299147d626234",
  "difficulty": 4558365814113,
  "gasLimit": {
    "_hex": "0x2fefd8"
  },
  "gasUsed": {
    "_hex": "0x5208"
  },
  "miner": "0x8f6E4E97770BD1F1C5CDBd294213B28657C28690",
  "extraData": "0x476574682f76312e302e312f6c696e75782f676f312e342e32",
  "transactions": [
    {
      "hash": "0x3ee42a8cb5d5d9f7a276d705d6ad44c9456e425a917f6dc5433a0346fffab4a4",
      "blockHash": "0x7f3f4333b372132558d840fd8b21740396b11cdc482b930667ea8f80b020a8c4",
      "blockNumber": 115308,
      "transactionIndex": 0,
      "confirmations": null,
      "from": "0x1dbe45A9437978D7Bdc5D468e6be0988a71D153f",
      "gasPrice": {
        "_hex": "0xd1f217cbf"
      },
      "gasLimit": {
        "_hex": "0x15f90"
      },
      "to": "0x11AA265966dFdDfDC4fA42a83C305f6EcbE9588a",
      "value": {
        "_hex": "0x2dcbf4840eca0000"
      },
      "nonce": 7,
      "data": "0x",
      "r": "0xb509a18f8c4eaea2c7cef62efa249c168f133914c9bfc09c8fc3378d8bf71b69",
      "s": "0x57f149c43d8da3df8537bd9e9d99ee4af6e98cba109c4944a2c81d0648cfb3be",
      "v": 28,
      "creates": null,
      "raw": "0xf86d07850d1f217cbf83015f909411aa265966dfddfdc4fa42a83c305f6ecbe9588a882dcbf4840eca0000801ca0b509a18f8c4eaea2c7cef62efa249c168f133914c9bfc09c8fc3378d8bf71b69a057f149c43d8da3df8537bd9e9d99ee4af6e98cba109c4944a2c81d0648cfb3be",
      "networkId": 0,
      "chainId": 0
    }
  ]
}