{
  "hash": "0x8995aaad7a1510fb51fb4b03fa90dd4e3ef8b3f7cae45d1dda8b9e08fedde819",
  "parentHash": "0x261294f229591f533fd0167a09aa76fd3b809c61efdeba921ab99a9c12af516a",
  "number": 107030,
  "timestamp": 1439914806,
  "nonce": "0x420455add5970e97",
  "difficulty": 4448470693809,
  "gasLimit": {
    "_hex": "0x2fefd8"
  },
  "gasUsed": {
    "_hex": "0x20fc6"
  },
  "miner": "0xbb7B8287f3F0a933474a79eAe42CBCa977791171",
  "extraData": "0x476574682f4c5649562f76312e302e312f6c696e75782f676f312e342e32",
  "transactions": [
    {
      "hash": "0x9b60403394b99d665007734844708c778449f7e06183b12564bc719a709ae3f1",
      "blockHash": "0x8995aaad7a1510fb51fb4b03fa90dd4e3ef8b3f7cae45d1dda8b9e08fedde819",
      "blockNumber": 107030,
      "transactionIndex": 0,
      "confirmations": null,
      "from": "0x76628150e2995B5b279FC83e0DD5F102A671dd1C",
      "gasPrice": {
        "_hex": "0xd641f460d"
      },
      "gasLimit": {
        "_hex": "0x249f0"
      },
      "to": "0xE28e72FCf78647ADCe1F1252F240bbfaebD63BcC",
      "value": {
        "_hex": "0xa2a15d09519be00000"
      },
      "nonce": 4,
      "data": "0x45466f3a",
      "r": "0xb7ac3059a8d4c0beaed2e3e5bddfc31a6042d2abefdb7593e31baaa753ea140a",
      "s": "0x1b939240b1b003c950db851627e8f7c5db1f28abd3b33396e1d40a055c300ded",
      "v": 28,
      "creates": null,
      "raw": "0xf87204850d641f460d830249f094e28e72fcf78647adce1f1252f240bbfaebd63bcc89a2a15d09519be000008445466f3a1ca0b7ac3059a8d4c0beaed2e3e5bddfc31a6042d2abefdb7593e31baaa753ea140aa01b939240b1b003c950db851627e8f7c5db1f28abd3b33396e1d40a055c300ded",
      "networkId": 0,
      "chainId": 0
    },
    {
      "hash": "0x1c92f2ac3456a78a6e97f4a895910df4ff0c469f7e7fe81c12ab362ca014febf",
      "blockHash": "0x8995aaad7a1510fb51fb4b03fa90dd4e3ef8b3f7cae45d1dda8b9e08fedde819",
      "blockNumber": 107030,
      "transactionIndex": 1,
      "confirmations": null,
      "from": "0x67a8Acb3621e0683EC4eeb0be82BE8cf344d97c6",
      "gasPrice": {
        "_hex": "0xba43b7400"
      },
      "gasLimit": {
        "_hex": "0x5208"
      },
      "to": "0xC47Aaa860008be6f65B58c6C6E02a84e666EfE31",
      "value": {
        "_hex": "0x8ac3680c5ce46000"
      },
      "nonce": 3,
      "data": "0x",
      "r": "0x4a5ea10fa948d52d43a460bf657978449108a1a448e9ccbab6c1674c21da0979",
      "s": "0x10a71bad0d80c0533b198786b35ba7df515693fd9655ce0ebec9a267f8d63802",
      "v": 28,
      "creates": null,
      "raw": "0xf86c03850ba43b740082520894c47aaa860008be6f65b58c6c6e02a84e666efe31888ac3680c5ce46000801ca04a5ea10fa948d52d43a460bf657978449108a1a448e9ccbab6c1674c21da0979a010a71bad0d80c0533b198786b35ba7df515693fd9655ce0ebec9a267f8d63802",
      "networkId": 0,
      "chainId": 0
    }
  ]
}