{
  "hash": "0x44f9e1f00a60dbf5bc53d69da52bdf618daee260f2c41494f0c05f1a44d56c44",
  "parentHash": "0x48712e5b02f07fa3dcfba0f3ec5c8898b3fc0a0cd09ccbb1d2ac632082e01bb7",
  "number": 110206,
  "timestamp": 1439969917,
  "nonce": "0x75c0c8b2c388dc9c",
  "difficulty": 4360778133855,
  "gasLimit": {
    "_hex": "0x2fefd8"
  },
  "gasUsed": {
    "_hex": "0xf624"
  },
  "miner": "0x7E6930B63D03e88F5928C5cd6ee3FCee4D714F7F",
  "extraData": "0x",
  "transactions": [
    {
      "hash": "0x60dad422b6b40cde9a81fa1d29c30b2811aeee8dd72d9a44a41252f66dd0ddd7",
      "blockHash": "0x44f9e1f00a60dbf5bc53d69da52bdf618daee260f2c41494f0c05f1a44d56c44",
      "blockNumber": 110206,
      "transactionIndex": 0,
      "confirmations": null,
      "from": "0xb9836ec1f42Bd48331bceaedb74a6Bcdc22832bD",
      "gasPrice": {
        "_hex": "0xd402176d5"
      },
      "gasLimit": {
        "_hex": "0x7530"
      },
      "to": "0x7cB57B5A97eAbe94205C07890BE4c1aD31E486A8",
      "value": {
        "_hex": "0x38d7ea4c68000"
      },
      "nonce": 9,
      "data": "0x00",
      "r": "0x7314c96dcaefcba5c3941722f4d66551f5bc1afb2af27d36efb7dc4148aba407",
      "s": "0xbb5a594f89962aa601b665c853aa156b351e33864d6546d8e7a875773721dfd9",
      "v": 28,
      "creates": null,
      "raw": "0xf86b09850d402176d5827530947cb57b5a97eabe94205c07890be4c1ad31e486a887038d7ea4c68000001ca07314c96dcaefcba5c3941722f4d66551f5bc1afb2af27d36efb7dc4148aba407a0bb5a594f89962aa601b665c853aa156b351e33864d6546d8e7a875773721dfd9",
      "networkId": 0,
      "chainId": 0
    },
    {
      "hash": "0xad15d10483421b8586ea43e6ac0af7e93b9cbfa07528e8bdd79144d7aacea4c9",
      "blockHash": "0x44f9e1f00a60dbf5bc53d69da52bdf618daee260f2c41494f0c05f1a44d56c44",
      "blockNumber": 110206,
      "transactionIndex": 1,
      "confirmations": null,
      "from": "0xb9836ec1f42Bd48331bceaedb74a6Bcdc22832bD",
      "gasPrice": {
        "_hex": "0xd1bf90a2d"
      },
      "gasLimit": {
        "_hex": "0x7530"
      },
      "to": "0x7cB57B5A97eAbe94205C07890BE4c1aD31E486A8",
      "value": {
        "_hex": "0x38d7ea4c68000"
      },
      "nonce": 10,
      "data": "0x00",
      "r": "0x4b2cf50f04151cb5898fed08635f94a6b0696d1f07c1e6026ba37bae502d0aeb",
      "s": "0x0a20eeb87bbe015c2494195f3d98e6c30a6a0a3532158ddb2eded02d08c415a7",
      "v": 27,
      "creates": null,
      "raw": "0xf86b0a850d1bf90a2d827530947cb57b5a97eabe94205c07890be4c1ad31e486a887038d7ea4c68000001ba04b2cf50f04151cb5898fed08635f94a6b0696d1f07c1e6026ba37bae502d0aeba00a20eeb87bbe015c2494195f3d98e6c30a6a0a3532158ddb2eded02d08c415a7",
      "networkId": 0,
      "chainId": 0
    },
    {
      "hash": "0x5c1d0aadd68c977aa7a51883178d214e3b0bd523497a7451b54e53d12b2138ea",
      "blockHash": "0x44f9e1f00a60dbf5bc53d69da52bdf618daee260f2c41494f0c05f1a44d56c44",
      "blockNumber": 110206,
      "transactionIndex": 2,
      "confirmations": null,
      "from": "0xb9836ec1f42Bd48331bceaedb74a6Bcdc22832bD",
      "gasPrice": {
        "_hex": "0xd1bf90a2d"
      },
      "gasLimit": {
        "_hex": "0x7530"
      },
      "to": "0x7cB57B5A97eAbe94205C07890BE4c1aD31E486A8",
      "value": {
        "_hex": "0x38d7ea4c68000"
      },
      "nonce": 11,
      "data": "0x00",
      "r": "0x0ddb0a23ba62ce8e20fd69672011fcf44b45f42843e0cb40e35d1875c613bc68",
      "s": "0x325a706a572b4fb7ef632dfe41892a07dc107f8fffee0ac816c85832fd44906a",
      "v": 28,
      "creates": null,
      "raw": "0xf86b0b850d1bf90a2d827530947cb57b5a97eabe94205c07890be4c1ad31e486a887038d7ea4c68000001ca00ddb0a23ba62ce8e20fd69672011fcf44b45f42843e0cb40e35d1875c613bc68a0325a706a572b4fb7ef632dfe41892a07dc107f8fffee0ac816c85832fd44906a",
      "networkId": 0,
      "chainId": 0
    }
  ]
}