{
  "hash": "0x1d873bc2ac852e9f1749e3d1d3b9a797ca0956055d057995b34c25e0894f382b",
  "parentHash": "0x91fbad6532a84661e2a4d8cef6f63bfa80721387654b0bb9141218cbbb6106e0",
  "number": 59167,
  "timestamp": 1439133264,
  "nonce": "0xdfb3718279201105",
  "difficulty": 1705589063231,
  "gasLimit": {
    "_hex": "0x2fefd5"
  },
  "gasUsed": {
    "_hex": "0x5208"
  },
  "miner": "0x88D74a59454F6cF3B51ef6b9136AFb6b9D405A88",
  "extraData": "0x476574682f76312e302e312d37666266393930632f6c696e75782f676f312e34",
  "transactions": [
    {
      "hash": "0xc1e47b5bed90d9eda48f111d2148049394355a64bdb19c9c69a78e6530b1b906",
      "blockHash": "0x1d873bc2ac852e9f1749e3d1d3b9a797ca0956055d057995b34c25e0894f382b",
      "blockNumber": 59167,
      "transactionIndex": 0,
      "confirmations": null,
      "from": "0xe1F5B8dc9336BC9637eA97c3f3b13Cd363F88854",
      "gasPrice": {
        "_hex": "0xd32c7432c"
      },
      "gasLimit": {
        "_hex": "0x5208"
      },
      "to": "0x32Be343B94f860124dC4fEe278FDCBD38C102D88",
      "value": {
        "_hex": "0xce763b73c1b0b80000"
      },
      "nonce": 5,
      "data": "0x",
      "r": "0xc723447d501a4518d52b9e7106d146ad79fd366b90f02389ecbe3823b100fdf4",
      "s": "0x375adbc18ac7a5eeb1c8f5275d9a3ed5708c11df8143b7f17c12b62233a02f62",
      "v": 27,
      "creates": null,
      "raw": "0xf86d05850d32c7432c8252089432be343b94f860124dc4fee278fdcbd38c102d8889ce763b73c1b0b80000801ba0c723447d501a4518d52b9e7106d146ad79fd366b90f02389ecbe3823b100fdf4a0375adbc18ac7a5eeb1c8f5275d9a3ed5708c11df8143b7f17c12b62233a02f62",
      "networkId": 0,
      "chainId": 0
    }
  ]
}