{
  "hash": "0x02fcf72b11555beed5d1328c293d1c56bfcdbeb60590dfbfaf1d3404c5eae063",
  "parentHash": "0xd771f5f7172f303bfb867cf0ec18e0904c7d0643e8038dcd35569dc8ceb58ca5",
  "number": 86273,
  "timestamp": 1439576049,
  "nonce": "0xc32c94080efb1f9c",
  "difficulty": 2841554242268,
  "gasLimit": {
    "_hex": "0x2fefd8"
  },
  "gasUsed": {
    "_hex": "0x5208"
  },
  "miner": "0x5F8F73E26CdF436f19Cb24C82F90A15AFe55b592",
  "extraData": "0x476574682f76312e302e312f77696e646f77732f676f312e342e32",
  "transactions": [
    {
      "hash": "0x93a6afea06dc0a4288f0127c2014918a3092fc5cef26591619fb34622acc97cf",
      "blockHash": "0x02fcf72b11555beed5d1328c293d1c56bfcdbeb60590dfbfaf1d3404c5eae063",
      "blockNumber": 86273,
      "transactionIndex": 0,
      "confirmations": null,
      "from": "0x3fc4eAB8A8df5a124043b29146709935c65F1f7d",
      "gasPrice": {
        "_hex": "0xd3d37f23a"
      },
      "gasLimit": {
        "_hex": "0x15f90"
      },
      "to": "0x051B69BB7073F7385370C5751F988b31A7567a63",
      "value": {
        "_hex": "0x29a2241af62c0000"
      },
      "nonce": 1,
      "data": "0x",
      "r": "0x83df36b3191d69e542c4fe6b9715035f0c02a9bc3847985a7aadd55c1b641150",
      "s": "0x1d25ea69e718b72cf301b94d5773412b05b6b76290a7ed9186e088a7fb7318ed",
      "v": 27,
      "creates": null,
      "raw": "0xf86d01850d3d37f23a83015f9094051b69bb7073f7385370c5751f988b31a7567a638829a2241af62c0000801ba083df36b3191d69e542c4fe6b9715035f0c02a9bc3847985a7aadd55c1b641150a01d25ea69e718b72cf301b94d5773412b05b6b76290a7ed9186e088a7fb7318ed",
      "networkId": 0,
      "chainId": 0
    }
  ]
}