{
  "hash": "0xe2c91a1016265e08f26f33098cd83120ed2fc39d4fc38c86f8a25681fc648f23",
  "parentHash": "0x089837df0e8313b18998d1bee92fdc935135f892882d956ba4e7cccc1c337817",
  "number": 86805,
  "timestamp": 1439583089,
  "nonce": "0xba15d60fea8cdcf4",
  "difficulty": 2951677615828,
  "gasLimit": {
    "_hex": "0x2fefd8"
  },
  "gasUsed": {
    "_hex": "0x546c"
  },
  "miner": "0x55D1554b08a5311C5c0A0B6464162192f9D2f884",
  "extraData": "0xd783010001844765746887676f312e342e32856c696e7578",
  "transactions": [
    {
      "hash": "0x65259d841a753c2d6978764c5d2b746f22a7dc4456e39c41a6dda6d182fa9e90",
      "blockHash": "0xe2c91a1016265e08f26f33098cd83120ed2fc39d4fc38c86f8a25681fc648f23",
      "blockNumber": 86805,
      "transactionIndex": 0,
      "confirmations": null,
      "from": "0x00a5797F52c9d58f189f36B1d45D1Bf6041f2F6b",
      "gasPrice": {
        "_hex": "0x110c8f7d8de"
      },
      "gasLimit": {
        "_hex": "0xc350"
      },
      "to": "0x2910543Af39abA0Cd09dBb2D50200b3E800A63D2",
      "value": {
        "_hex": "0x878514ecf64f060000"
      },
      "nonce": 1,
      "data": "0x454e4e43474d5a5a52",
      "r": "0x74f531469fd239173d7aeeb5e0b2304cb16eea7adf289e6927c967d911325110",
      "s": "0xd6d8d3dc6f1ffcb9e7c0b2eb8f2f4d4e96093adb9ade3ca53513e56405b1f5cf",
      "v": 27,
      "creates": null,
      "raw": "0xf87701860110c8f7d8de82c350942910543af39aba0cd09dbb2d50200b3e800a63d289878514ecf64f06000089454e4e43474d5a5a521ba074f531469fd239173d7aeeb5e0b2304cb16eea7adf289e6927c967d911325110a0d6d8d3dc6f1ffcb9e7c0b2eb8f2f4d4e96093adb9ade3ca53513e56405b1f5cf",
      "networkId": 0,
      "chainId": 0
    }
  ]
}