{
  "hash": "0xbca091ff98ec9db3d55c76386065a8a95bd57297e29da828ede546f12bdffc06",
  "parentHash": "0x677030932ccdb9f5e4473b0659c795f8e735ee759c347e33d500b864a4d9b6b9",
  "number": 79810,
  "timestamp": 1439475444,
  "nonce": "0x605bb2a4b21f78c6",
  "difficulty": 2361002813232,
  "gasLimit": {
    "_hex": "0x2fefd8"
  },
  "gasUsed": {
    "_hex": "0x546c"
  },
  "miner": "0xA560c68C8252c7BA1cA82B9C5C0d15CBa39c039b",
  "extraData": "0x",
  "transactions": [
    {
      "hash": "0x1490ce073a724cdec0ccc06ae428169d974ab5410b2f6192cc04e997513ec22e",
      "blockHash": "0xbca091ff98ec9db3d55c76386065a8a95bd57297e29da828ede546f12bdffc06",
      "blockNumber": 79810,
      "transactionIndex": 0,
      "confirmations": null,
      "from": "0x179A825e0F1f6E985309668465CfFED436f6Aea9",
      "gasPrice": {
        "_hex": "0x110c8f7d8de"
      },
      "gasLimit": {
        "_hex": "0xc350"
      },
      "to": "0x2910543Af39abA0Cd09dBb2D50200b3E800A63D2",
      "value": {
        "_hex": "0xc3663566a580000"
      },
      "nonce": 2,
      "data": "0x454e41514456454152",
      "r": "0x6ff2ddf8df5279e3a8154f18681c3715b94f42b3277862ec77493f7ff21743cb",
      "s": "0xf66d2305a60572dc6f062ea8fbe41beee7e077ba08ba3e98fe56fa5e8b16eabb",
      "v": 28,
      "creates": null,
      "raw": "0xf87602860110c8f7d8de82c350942910543af39aba0cd09dbb2d50200b3e800a63d2880c3663566a58000089454e415144564541521ca06ff2ddf8df5279e3a8154f18681c3715b94f42b3277862ec77493f7ff21743cba0f66d2305a60572dc6f062ea8fbe41beee7e077ba08ba3e98fe56fa5e8b16eabb",
      "networkId": 0,
      "chainId": 0
    }
  ]
}