{
  "hash": "0x0474b491cdd4c549e5354e28ba77163bcc9359b943d5ffc50483a2f5ce9facf4",
  "parentHash": "0xcd50fb46719b495f80ff59e465603d13f409026af1e6203f425781b42c8b8f96",
  "number": 46808,
  "timestamp": 1438929478,
  "nonce": "0x3af8004d9241a541",
  "difficulty": 1461732124890,
  "gasLimit": {
    "_hex": "0x7aa2"
  },
  "gasUsed": {
    "_hex": "0x5208"
  },
  "miner": "0xbb7B8287f3F0a933474a79eAe42CBCa977791171",
  "extraData": "0x476574682f4c5649562f76312e302e312f6c696e75782f676f312e342e32",
  "transactions": [
    {
      "hash": "0xa4f6b453543866227ba65323dabb639a47db67926e1fff34032f7933ab6e8339",
      "blockHash": "0x0474b491cdd4c549e5354e28ba77163bcc9359b943d5ffc50483a2f5ce9facf4",
      "blockNumber": 46808,
      "transactionIndex": 0,
      "confirmations": null,
      "from": "0x821eB90994a2fBf94BdC3233910296f76F9BF6E7",
      "gasPrice": {
        "_hex": "0x45d964b800"
      },
      "gasLimit": {
        "_hex": "0x5208"
      },
      "to": "0x17f8255F73211f9129a7E93250e8B7DF5D7F752d",
      "value": {
        "_hex": "0x6c6b28c6b46dfd0000"
      },
      "nonce": 3,
      "data": "0x",
      "r": "0x1139bceac9f9f5420ff9137c36db8b04a260a89fd72ff541e518f628b228a19b",
      "s": "0x7f721f9b8bbc1b789ec5733ab506ac20c49b02936b3bca786a1438f83d825e23",
      "v": 28,
      "creates": null,
      "raw": "0xf86d038545d964b8008252089417f8255f73211f9129a7e93250e8b7df5d7f752d896c6b28c6b46dfd0000801ca01139bceac9f9f5420ff9137c36db8b04a260a89fd72ff541e518f628b228a19ba07f721f9b8bbc1b789ec5733ab506ac20c49b02936b3bca786a1438f83d825e23",
      "networkId": 0,
      "chainId": 0
    }
  ]
}