{
  "hash": "0x47938547554b1a62c9f511fa744df3531b48319b4d202a004aea4c5f092ce74d",
  "parentHash": "0x3e9c431a81307a34feed93178d79fee9cfb817d228485114baf9207edb67bcb0",
  "number": 48092,
  "timestamp": 1438951220,
  "nonce": "0x4f811be3cb78a4f7",
  "difficulty": 1462936353892,
  "gasLimit": {
    "_hex": "0x127b5"
  },
  "gasUsed": {
    "_hex": "0xa8d8"
  },
  "miner": "0xeB1325C8D9d3ea8D74aC11F4B00F1B2367686319",
  "extraData": "0x476574682f76312e302e312f77696e646f77732f676f312e342e32",
  "transactions": [
    {
      "hash": "0x2d26e3e227614ae6b69ea532f98aa839ac4847c9cae38ee42e9750f9ad590159",
      "blockHash": "0x47938547554b1a62c9f511fa744df3531b48319b4d202a004aea4c5f092ce74d",
      "blockNumber": 48092,
      "transactionIndex": 0,
      "confirmations": null,
      "from": "0x54a62bf9233E146ffEC3876E45f20ee8414adeba",
      "gasPrice": {
        "_hex": "0x107c06fba7d"
      },
      "gasLimit": {
        "_hex": "0x61a8"
      },
      "to": "0x2910543Af39abA0Cd09dBb2D50200b3E800A63D2",
      "value": {
        "_hex": "0x2b5e3af16b1880000"
      },
      "nonce": 1,
      "data": "0x454e4a314d4b363152",
      "r": "0xda2624bab7b69cf77e0910f131aade92417a345a772ffc372d1cdbf6c6ff62ca",
      "s": "0x250937aa93875588b2443b793c46aff3b42e7ac48e6a1228456e127e1eb37188",
      "v": 27,
      "creates": null,
      "raw": "0xf87701860107c06fba7d8261a8942910543af39aba0cd09dbb2d50200b3e800a63d28902b5e3af16b188000089454e4a314d4b3631521ba0da2624bab7b69cf77e0910f131aade92417a345a772ffc372d1cdbf6c6ff62caa0250937aa93875588b2443b793c46aff3b42e7ac48e6a1228456e127e1eb37188",
      "networkId": 0,
      "chainId": 0
    },
    {
      "hash": "0xc22688620f8dceb5ffd1a96ff4827c7fee7487d4eb6d782161fd966bc2576f0d",
      "blockHash": "0x47938547554b1a62c9f511fa744df3531b48319b4d202a004aea4c5f092ce74d",
      "blockNumber": 48092,
      "transactionIndex": 1,
      "confirmations": null,
      "from": "0xc47d9E6C75d388Aeb92574429dAD43A148f2f3ea",
      "gasPrice": {
        "_hex": "0xdf8475800"
      },
      "gasLimit": {
        "_hex": "0x546c"
      },
      "to": "0x2910543Af39abA0Cd09dBb2D50200b3E800A63D2",
      "value": {
        "_hex": "0x22b1c8c1227a00000"
      },
      "nonce": 1,
      "data": "0x454e465935304d4630",
      "r": "0x364c94c747978661d267ff19ad55dc9c6d0985d4e3f62edb4fec8d9d53c07801",
      "s": "0x4e1aa0be7e2af6d3446a3c9a727897a93f219dc35f81d51f837263728e106a1d",
      "v": 27,
      "creates": null,
      "raw": "0xf87601850df847580082546c942910543af39aba0cd09dbb2d50200b3e800a63d289022b1c8c1227a0000089454e465935304d46301ba0364c94c747978661d267ff19ad55dc9c6d0985d4e3f62edb4fec8d9d53c07801a04e1aa0be7e2af6d3446a3c9a727897a93f219dc35f81d51f837263728e106a1d",
      "networkId": 0,
      "chainId": 0
    }
  ]
}