{
  "hash": "0xccb6d142efc3dab9b315713d528439823b1132d672ee9c1f91028ad54663f291",
  "parentHash": "0xe31f7fa2a9c282d7bb2ba2613a43e7928e23eb4ec606b1f50ef1856e4cb8b72d",
  "number": 121786,
  "timestamp": 1440182425,
  "nonce": "0xec7450a8f6b4f266",
  "difficulty": 4501781450826,
  "gasLimit": {
    "_hex": "0x2fefd8"
  },
  "gasUsed": {
    "_hex": "0xa410"
  },
  "miner": "0xcf00A85f3826941e7A25BFcF9Aac575d40410852",
  "extraData": "0x",
  "transactions": [
    {
      "hash": "0x797b6697c7a022f486196977f5f71491a8f01e949aab20899874870b15e0a59c",
      "blockHash": "0xccb6d142efc3dab9b315713d528439823b1132d672ee9c1f91028ad54663f291",
      "blockNumber": 121786,
      "transactionIndex": 0,
      "confirmations": null,
      "from": "0x32Be343B94f860124dC4fEe278FDCBD38C102D88",
      "gasPrice": {
        "_hex": "0xcdcb8371f"
      },
      "gasLimit": {
        "_hex": "0x5208"
      },
      "to": "0xBdF25376dA0767EfBF7eE3dCAe463ECe5572bFF3",
      "value": {
        "_hex": "0xaaa365d79cd278000"
      },
      "nonce": 1574,
      "data": "0x",
      "r": "0xe55319c4275a3cf19d33723dbc520631e490503f37bc01fe97029fbb7ef7d398",
      "s": "0x3af1e17816097e6aa07e389b66322d079668e18aae83135e984e50a83dbdf1e5",
      "v": 27,
      "creates": null,
      "raw": "0xf86f820626850cdcb8371f82520894bdf25376da0767efbf7ee3dcae463ece5572bff3890aaa365d79cd278000801ba0e55319c4275a3cf19d33723dbc520631e490503f37bc01fe97029fbb7ef7d398a03af1e17816097e6aa07e389b66322d079668e18aae83135e984e50a83dbdf1e5",
      "networkId": 0,
      "chainId": 0
    },
    {
      "hash": "0xbf593bd3d721e146a159a1cf5bad1c892ab7db9334f370e034f0ec70b4b622cc",
      "blockHash": "0xccb6d142efc3dab9b315713d528439823b1132d672ee9c1f91028ad54663f291",
      "blockNumber": 121786,
      "transactionIndex": 1,
      "confirmations": null,
      "from": "0x5fA54d061A07E621f6878B553E127b064c2a3aec",
      "gasPrice": {
        "_hex": "0xba43b7400"
      },
      "gasLimit": {
        "_hex": "0x15f90"
      },
      "to": "0x9FA0960220d2d51D54f755501E391Da140c2EF63",
      "value": {
        "_hex": "0xde0b6b3a7640000"
      },
      "nonce": 0,
      "data": "0x",
      "r": "0xc18ef886ac670d850c2fe2367c7651e158ed404c370790598981335de662b5e1",
      "s": "0x539f1dbc4c4e3f56397ca704cd444852bcfc64034d80ad9cda2f63c5ea0a7402",
      "v": 27,
      "creates": null,
      "raw": "0xf86d80850ba43b740083015f90949fa0960220d2d51d54f755501e391da140c2ef63880de0b6b3a7640000801ba0c18ef886ac670d850c2fe2367c7651e158ed404c370790598981335de662b5e1a0539f1dbc4c4e3f56397ca704cd444852bcfc64034d80ad9cda2f63c5ea0a7402",
      "networkId": 0,
      "chainId": 0
    }
  ]
}