{
  "hash": "0x02de9468390203c5f1c033c5734c76b4eb49520bd085e441a3eae7ef07190638",
  "parentHash": "0x598a938bf78e59cc24b216f128800bec6422fad7f61d1a26962e04dcf71318f5",
  "number": 73128,
  "timestamp": 1439363558,
  "nonce": "0xca93574973ba02d4",
  "difficulty": 2219724305133,
  "gasLimit": {
    "_hex": "0x2fefd8"
  },
  "gasUsed": {
    "_hex": "0x15f90"
  },
  "miner": "0x01d9DA08cc6Fb97c0DE1B6F4C28910A0859Ed1A1",
  "extraData": "0x476574682f76312e302e312f6c696e75782f676f312e342e32",
  "transactions": [
    {
      "hash": "0x46f5d33b03245176157944798de91ca3d7a2fd6ab8e856c55c0aa54350d66a4d",
      "blockHash": "0x02de9468390203c5f1c033c5734c76b4eb49520bd085e441a3eae7ef07190638",
      "blockNumber": 73128,
      "transactionIndex": 0,
      "confirmations": null,
      "from": "0x326Be8F71bFb0379f989aAB1CC1fE37f0a771f60",
      "gasPrice": {
        "_hex": "0x11418809f79"
      },
      "gasLimit": {
        "_hex": "0x15f90"
      },
      "to": "0x7153FdeEf24E488Af4dc001F620407764ee47747",
      "value": {
        "_hex": "0x0"
      },
      "nonce": 28,
      "data": "0x8d21618600000000000000000000000000000000000000000000000000000000000000808d5adaad541502933bfca57b79fdcf7b21a9ea7dbcf2e9321d253f5db02ac8f3",
      "r": "0x110e7ad08a3edba5b86cd8edb9cc1d2bb14e4fcad9111a42fbb27c9aa75aeb85",
      "s": "0x70c9ca91a417dd0d8a157a88f44c5e7b1172a8a68e6a881d5554bcb91b2076de",
      "v": 28,
      "creates": null,
      "raw": "0xf8ab1c86011418809f7983015f90947153fdeef24e488af4dc001f620407764ee4774780b8448d21618600000000000000000000000000000000000000000000000000000000000000808d5adaad541502933bfca57b79fdcf7b21a9ea7dbcf2e9321d253f5db02ac8f31ca0110e7ad08a3edba5b86cd8edb9cc1d2bb14e4fcad9111a42fbb27c9aa75aeb85a070c9ca91a417dd0d8a157a88f44c5e7b1172a8a68e6a881d5554bcb91b2076de",
      "networkId": 0,
      "chainId": 0
    }
  ]
}