{
  "hash": "0xec12b53c514b1ec54faccb41ef76954328b71b0fa50fa45c608e731fb15e5efc",
  "parentHash": "0x959d09d2d357f4dd4e1705fbd77a83fe823628843eb9df083b131bada7d534fa",
  "number": 95683,
  "timestamp": 1439727843,
  "nonce": "0xf93e4147cc18c15b",
  "difficulty": 3619708483131,
  "gasLimit": {
    "_hex": "0x2fefd8"
  },
  "gasUsed": {
    "_hex": "0x5208"
  },
  "miner": "0xe6A7a1d47ff21B6321162AEA7C6CB457D5476Bca",
  "extraData": "0x476574682f76312e302e312d38326566323666362f6c696e75782f676f312e34",
  "transactions": [
    {
      "hash": "0x1c05d2bb72fb359fa3b15136c5fafd85fe6b9c7e659eaeb1373b951819884783",
      "blockHash": "0xec12b53c514b1ec54faccb41ef76954328b71b0fa50fa45c608e731fb15e5efc",
      "blockNumber": 95683,
      "transactionIndex": 0,
      "confirmations": null,
      "from": "0x007f7f58D3eb5b7510A301eCC749FC1fCDDBE14D",
      "gasPrice": {
        "_hex": "0xcc8ddf695"
      },
      "gasLimit": {
        "_hex": "0x15f90"
      },
      "to": "0xb1abce2918E21ddb93AA452731a12672A3d9F75a",
      "value": {
        "_hex": "0x4563918244f40000"
      },
      "nonce": 61,
      "data": "0x",
      "r": "0x1e77e8bac89f013c97f6eab25d90b6ffcbd78cc19c74660e7193478e3b123044",
      "s": "0x00407cedd1ed3365e2ef5904d56ea35238271b5583d559e28d87e258cf64f063",
      "v": 28,
      "creates": null,
      "raw": "0xf86c3d850cc8ddf69583015f9094b1abce2918e21ddb93aa452731a12672a3d9f75a884563918244f40000801ca01e77e8bac89f013c97f6eab25d90b6ffcbd78cc19c74660e7193478e3b1230449f407cedd1ed3365e2ef5904d56ea35238271b5583d559e28d87e258cf64f063",
      "networkId": 0,
      "chainId": 0
    }
  ]
}