{
  "hash": "0xb51a399f7b49fc921e73ff92d04c11643dd7f6201455ca6fbddb772ae2a84717",
  "parentHash": "0x722aeb1c41564cba1d137661da4d4707f17cace3b247d2abb3fa2c22602c2106",
  "number": 84682,
  "timestamp": 1439553077,
  "nonce": "0xd6bb3231444fed4c",
  "difficulty": 2609325104817,
  "gasLimit": {
    "_hex": "0x2fefd8"
  },
  "gasUsed": {
    "_hex": "0xa410"
  },
  "miner": "0x55bAf64fc9eAccFFd7Cc643BB61142E1C6ac093e",
  "extraData": "0x",
  "transactions": [
    {
      "hash": "0x6229086bf69404db87efaed52b7fd2404e0cbf66b43fe572eb3c9773ac32be00",
      "blockHash": "0xb51a399f7b49fc921e73ff92d04c11643dd7f6201455ca6fbddb772ae2a84717",
      "blockNumber": 84682,
      "transactionIndex": 0,
      "confirmations": null,
      "from": "0x2910543Af39abA0Cd09dBb2D50200b3E800A63D2",
      "gasPrice": {
        "_hex": "0xcea71e354"
      },
      "gasLimit": {
        "_hex": "0x5208"
      },
      "to": "0xFD7c9117BbEB649d9b37B3D3C9917f7c12f526B3",
      "value": {
        "_hex": "0x1f4cbc2398fdc87300"
      },
      "nonce": 566,
      "data": "0x",
      "r": "0xba076acfec18e7a05839ddfdff8a58f004988bfb6162ed57cb100567d6cba237",
      "s": "0x2fad559b2863d145fabd44d6c99b4d9cc6641303726e1e9fa9bc1c9324df38f2",
      "v": 28,
      "creates": null,
      "raw": "0xf86f820236850cea71e35482520894fd7c9117bbeb649d9b37b3d3c9917f7c12f526b3891f4cbc2398fdc87300801ca0ba076acfec18e7a05839ddfdff8a58f004988bfb6162ed57cb100567d6cba237a02fad559b2863d145fabd44d6c99b4d9cc6641303726e1e9fa9bc1c9324df38f2",
      "networkId": 0,
      "chainId": 0
    },
    {
      "hash": "0xd12cca5bfadcdff608cb6e0c0050e8209988386db6a5c73296409d56a2d05f7b",
      "blockHash": "0xb51a399f7b49fc921e73ff92d04c11643dd7f6201455ca6fbddb772ae2a84717",
      "blockNumber": 84682,
      "transactionIndex": 1,
      "confirmations": null,
      "from": "0x2910543Af39abA0Cd09dBb2D50200b3E800A63D2",
      "gasPrice": {
        "_hex": "0xcea71e354"
      },
      "gasLimit": {
        "_hex": "0x5208"
      },
      "to": "0x2C6dA0AeEF23c6a9eA4a8f19c0810e505FDEb231",
      "value": {
        "_hex": "0x104344570ef14f8000"
      },
      "nonce": 567,
      "data": "0x",
      "r": "0xe738d81aac2192b9406bfc8ce2731ac6b002e6aac8126dc6594c5a53ad595157",
      "s": "0x4198d5a4906a61fe103c654b5a51fd5e062f0b1124f9c7778d38bce0aa1e2663",
      "v": 28,
      "creates": null,
      "raw": "0xf86f820237850cea71e354825208942c6da0aeef23c6a9ea4a8f19c0810e505fdeb23189104344570ef14f8000801ca0e738d81aac2192b9406bfc8ce2731ac6b002e6aac8126dc6594c5a53ad595157a04198d5a4906a61fe103c654b5a51fd5e062f0b1124f9c7778d38bce0aa1e2663",
      "networkId": 0,
      "chainId": 0
    }
  ]
}