{
  "hash": "0x19ac5d454d8ed2bcb59154307fbc98b3cda3decc80d470665780ade4838d9605",
  "parentHash": "0xb560ddb3c544da01d1897ebb09245afbb1f1ddaa9fd1f861b3f3f7bddd0b28c8",
  "number": 48747,
  "timestamp": 1438962302,
  "nonce": "0xf19ef859e3d00226",
  "difficulty": 1475015232808,
  "gasLimit": {
    "_hex": "0x1d713"
  },
  "gasUsed": {
    "_hex": "0x5208"
  },
  "miner": "0x0037ce3d4B7f8729C8607D8D0248252Be68202c0",
  "extraData": "0x476574682f76312e302e312f77696e646f77732f676f312e342e32",
  "transactions": [
    {
      "hash": "0x194a0080b67c2f4585842d013fbdd459c85384f097640138a89e88b9bea8240e",
      "blockHash": "0x19ac5d454d8ed2bcb59154307fbc98b3cda3decc80d470665780ade4838d9605",
      "blockNumber": 48747,
      "transactionIndex": 0,
      "confirmations": null,
      "from": "0xEC73114c5e406fdBBE09B4FA621bd70ED54eA1ef",
      "gasPrice": {
        "_hex": "0x103a44cc6e8"
      },
      "gasLimit": {
        "_hex": "0x15f90"
      },
      "to": "0xE3Bd035E20AD594D3B7E836d8572231d16d6dC9C",
      "value": {
        "_hex": "0xd8d726b7177a800000"
      },
      "nonce": 1,
      "data": "0x",
      "r": "0x3643a578804f7b60559bac4a0f0eac399b987e78b51d7f911a598aae2081d090",
      "s": "0x610f490c7e9fe099a975469936693c7875cbbde5761e3e31d5dde714cde56042",
      "v": 27,
      "creates": null,
      "raw": "0xf86f01860103a44cc6e883015f9094e3bd035e20ad594d3b7e836d8572231d16d6dc9c89d8d726b7177a800000801ba03643a578804f7b60559bac4a0f0eac399b987e78b51d7f911a598aae2081d090a0610f490c7e9fe099a975469936693c7875cbbde5761e3e31d5dde714cde56042",
      "networkId": 0,
      "chainId": 0
    }
  ]
}