{
  "hash": "0x35f60bb6c7bc4bef3824cf7c766da7a95c30379ece4c55d923628727e3399890",
  "parentHash": "0xa55ac7fdf04648cf1b57045183f235c2589cc3260c4a7828428eb006e477fa39",
  "number": 65141,
  "timestamp": 1439232016,
  "nonce": "0xe4000b4a400a06d5",
  "difficulty": 1931309743197,
  "gasLimit": {
    "_hex": "0x2fefd8"
  },
  "gasUsed": {
    "_hex": "0xa410"
  },
  "miner": "0xE81c9A6Ebe623E5d483110e0eaF2b10c769b1212",
  "extraData": "0x476574682f76312e302e312f6c696e75782f676f312e342e32",
  "transactions": [
    {
      "hash": "0x2a7101c9524601bf59c9cdf91ed71408721dd0be3c388d72ff962095be470bd0",
      "blockHash": "0x35f60bb6c7bc4bef3824cf7c766da7a95c30379ece4c55d923628727e3399890",
      "blockNumber": 65141,
      "transactionIndex": 0,
      "confirmations": null,
      "from": "0xc013C81d352026dBd441fFe027005d019DC6BCdd",
      "gasPrice": {
        "_hex": "0xba43b7400"
      },
      "gasLimit": {
        "_hex": "0x5208"
      },
      "to": "0xd84B0329606556B845a1ABb0d7910082c4ee2f64",
      "value": {
        "_hex": "0x58c0a7d4097a000"
      },
      "nonce": 1,
      "data": "0x",
      "r": "0x74cddc4e06b39bed27b4e7ed639662075565cf64a05c2444831e52ae6d3c37c9",
      "s": "0x4d831620a05da0ab8480c6689c944d4a7cad677c11b10b191f48d6018833bf02",
      "v": 27,
      "creates": null,
      "raw": "0xf86c01850ba43b740082520894d84b0329606556b845a1abb0d7910082c4ee2f6488058c0a7d4097a000801ba074cddc4e06b39bed27b4e7ed639662075565cf64a05c2444831e52ae6d3c37c9a04d831620a05da0ab8480c6689c944d4a7cad677c11b10b191f48d6018833bf02",
      "networkId": 0,
      "chainId": 0
    },
    {
      "hash": "0xbabda74270261c73b3b4d8d42bb952f6aa11997df38cdb792f4a1fdd513b78ff",
      "blockHash": "0x35f60bb6c7bc4bef3824cf7c766da7a95c30379ece4c55d923628727e3399890",
      "blockNumber": 65141,
      "transactionIndex": 1,
      "confirmations": null,
      "from": "0x63ca7D886042Dbc788B5553012985aB6fd568803",
      "gasPrice": {
        "_hex": "0xba43b7400"
      },
      "gasLimit": {
        "_hex": "0x5208"
      },
      "to": "0x105cA1EC80eDFCA8A62FcCaA76B399eE3C1B3702",
      "value": {
        "_hex": "0x52f7dc9da55e000"
      },
      "nonce": 1,
      "data": "0x",
      "r": "0x6ed2514b61c206dbb5d7002a0d83b965c5fbc32099eb29d1cf1f4de27686bb7e",
      "s": "0x1fa591a5012d3f5d9c90fd681c9f9b2070b89847e4fb9d0ac9a5688f187053f7",
      "v": 28,
      "creates": null,
      "raw": "0xf86c01850ba43b740082520894105ca1ec80edfca8a62fccaa76b399ee3c1b370288052f7dc9da55e000801ca06ed2514b61c206dbb5d7002a0d83b965c5fbc32099eb29d1cf1f4de27686bb7ea01fa591a5012d3f5d9c90fd681c9f9b2070b89847e4fb9d0ac9a5688f187053f7",
      "networkId": 0,
      "chainId": 0
    }
  ]
}