{
  "hash": "0x1acc9fbe5990cb9990daaf806868432d63235232eca4627fdbd4190ed3579411",
  "parentHash": "0x084014a2cc378acfb1bd9a2c24bb87c6a55d7ca03a62512022368c1c7fdc5586",
  "number": 48653,
  "timestamp": 1438960483,
  "nonce": "0xeddfd211c2518e09",
  "difficulty": 1473592003747,
  "gasLimit": {
    "_hex": "0x1b5f8"
  },
  "gasUsed": {
    "_hex": "0x546c"
  },
  "miner": "0xF2d2AfF1320476cb8C6b607199D23175cc595693",
  "extraData": "0x476574682f76312e302e312f77696e646f77732f676f312e342e32",
  "transactions": [
    {
      "hash": "0x9cc2a1171ae8e6a1d63359bb6abef0b17cff679c502bb16015cfe3078af51dda",
      "blockHash": "0x1acc9fbe5990cb9990daaf806868432d63235232eca4627fdbd4190ed3579411",
      "blockNumber": 48653,
      "transactionIndex": 0,
      "confirmations": null,
      "from": "0xD071192966eb69C3520FCA3aA4dD04297eA04b4e",
      "gasPrice": {
        "_hex": "0xe5c5c946f"
      },
      "gasLimit": {
        "_hex": "0x15f90"
      },
      "to": "0x2910543Af39abA0Cd09dBb2D50200b3E800A63D2",
      "value": {
        "_hex": "0x5f66afa3f7d370000"
      },
      "nonce": 0,
      "data": "0x454e453057334a5a38",
      "r": "0x4f9c6d8b4b81c60a830d88f257a378cdd278d5218c87bc8b23346b3f8d602bfc",
      "s": "0x6c951afe35ab85316b83c8b0e3cc2092c1929431576f48aba9e37ae9f8d53a49",
      "v": 27,
      "creates": null,
      "raw": "0xf87780850e5c5c946f83015f90942910543af39aba0cd09dbb2d50200b3e800a63d28905f66afa3f7d37000089454e453057334a5a381ba04f9c6d8b4b81c60a830d88f257a378cdd278d5218c87bc8b23346b3f8d602bfca06c951afe35ab85316b83c8b0e3cc2092c1929431576f48aba9e37ae9f8d53a49",
      "networkId": 0,
      "chainId": 0
    }
  ]
}