{
  "hash": "0x98445ff767d9856834c8f19412aeff22761aa39cfb9de3a0a6e7e4f3b1ba79d3",
  "parentHash": "0xd61dccedbe7ddf2711efdef5da377b85371040573095708e0678beeec50b398f",
  "number": 95061,
  "timestamp": 1439718367,
  "nonce": "0x0893d4e1eedc4613",
  "difficulty": 3494923155543,
  "gasLimit": {
    "_hex": "0x2fefd8"
  },
  "gasUsed": {
    "_hex": "0x5208"
  },
  "miner": "0xe6A7a1d47ff21B6321162AEA7C6CB457D5476Bca",
  "extraData": "0x476574682f76312e302e312d38326566323666362f6c696e75782f676f312e34",
  "transactions": [
    {
      "hash": "0x103e162302ee4b2defb23bb2eba9359747a089de918a51ac15858e361ee72668",
      "blockHash": "0x98445ff767d9856834c8f19412aeff22761aa39cfb9de3a0a6e7e4f3b1ba79d3",
      "blockNumber": 95061,
      "transactionIndex": 0,
      "confirmations": null,
      "from": "0x007f7f58D3eb5b7510A301eCC749FC1fCDDBE14D",
      "gasPrice": {
        "_hex": "0xcc8ddf695"
      },
      "gasLimit": {
        "_hex": "0x15f90"
      },
      "to": "0xb1abce2918E21ddb93AA452731a12672A3d9F75a",
      "value": {
        "_hex": "0x4563918244f40000"
      },
      "nonce": 51,
      "data": "0x",
      "r": "0xa42284eeedc17ac830ae3a298abc4960d14a4113783e7bfa634ecbbc22c0408d",
      "s": "0x374cbaed8c86e32efd7aa25bf15bff479cafd4a7b44eaf3cdfa0c42b8bada0e3",
      "v": 28,
      "creates": null,
      "raw": "0xf86d33850cc8ddf69583015f9094b1abce2918e21ddb93aa452731a12672a3d9f75a884563918244f40000801ca0a42284eeedc17ac830ae3a298abc4960d14a4113783e7bfa634ecbbc22c0408da0374cbaed8c86e32efd7aa25bf15bff479cafd4a7b44eaf3cdfa0c42b8bada0e3",
      "networkId": 0,
      "chainId": 0
    }
  ]
}