{
  "hash": "0x11a3d8218f077ea4cd21a7028e3aeaefdd0fef57c6f8d21765925d6f90529624",
  "parentHash": "0xa8b24b2600258ebadc3cd88bea21afc2cc0d919503b4996596d91b2770e9b028",
  "number": 105998,
  "timestamp": 1439897042,
  "nonce": "0xf1d2b7293f1f556e",
  "difficulty": 4453364862754,
  "gasLimit": {
    "_hex": "0x2fefd8"
  },
  "gasUsed": {
    "_hex": "0x5208"
  },
  "miner": "0xe6A7a1d47ff21B6321162AEA7C6CB457D5476Bca",
  "extraData": "0x476574682f76312e302e312d38326566323666362f6c696e75782f676f312e34",
  "transactions": [
    {
      "hash": "0xd4bc8dc091ea018635568eedebab72bdc4a7f4ebb261a68353b019736fde4547",
      "blockHash": "0x11a3d8218f077ea4cd21a7028e3aeaefdd0fef57c6f8d21765925d6f90529624",
      "blockNumber": 105998,
      "transactionIndex": 0,
      "confirmations": null,
      "from": "0x61F642543d22bAf5382908a714E675Cc0b51ea45",
      "gasPrice": {
        "_hex": "0xdf58787ad"
      },
      "gasLimit": {
        "_hex": "0x5208"
      },
      "to": "0x32Be343B94f860124dC4fEe278FDCBD38C102D88",
      "value": {
        "_hex": "0x455f186d810aa400"
      },
      "nonce": 17,
      "data": "0x",
      "r": "0xbfbe7ed5c7f374dc2287287040eeb9075e331418c513aafb672557e1fb0b8da4",
      "s": "0x7bb4cc0e05cb2796b710617be9f3a44939fb8d30a66d2a4e0e48a5535b20a362",
      "v": 28,
      "creates": null,
      "raw": "0xf86c11850df58787ad8252089432be343b94f860124dc4fee278fdcbd38c102d8888455f186d810aa400801ca0bfbe7ed5c7f374dc2287287040eeb9075e331418c513aafb672557e1fb0b8da4a07bb4cc0e05cb2796b710617be9f3a44939fb8d30a66d2a4e0e48a5535b20a362",
      "networkId": 0,
      "chainId": 0
    }
  ]
}