{
  "hash": "0xfd43917eb04255e6fba25d7e7729f6a135874b03e0bc63bf61349377c1cf2cb5",
  "parentHash": "0x9f158410c01cc2a47d3fc51486a8f399dd5886c319aa64861e350e36a79e221c",
  "number": 117841,
  "timestamp": 1440116193,
  "nonce": "0xa1c01094165f9e03",
  "difficulty": 4346187147964,
  "gasLimit": {
    "_hex": "0x2fefd8"
  },
  "gasUsed": {
    "_hex": "0xf618"
  },
  "miner": "0x580992B51e3925e23280EfB93d3047C82f17E038",
  "extraData": "0x",
  "transactions": [
    {
      "hash": "0x99d93f9a1bda53044bec4e82bb07f2ce41fc562a9d0217a89e0a398697329dae",
      "blockHash": "0xfd43917eb04255e6fba25d7e7729f6a135874b03e0bc63bf61349377c1cf2cb5",
      "blockNumber": 117841,
      "transactionIndex": 0,
      "confirmations": null,
      "from": "0xbc681E36E2BC0d9Cb397811ce7a5821da2D66059",
      "gasPrice": {
        "_hex": "0xba43b7400"
      },
      "gasLimit": {
        "_hex": "0x5208"
      },
      "to": "0x32Be343B94f860124dC4fEe278FDCBD38C102D88",
      "value": {
        "_hex": "0x2cce06b59f23e000"
      },
      "nonce": 11,
      "data": "0x",
      "r": "0xd13c1ce5deb9d634a4cfa44f0770ac2e83b89717868fb879446ba35e6fa4d898",
      "s": "0x7aa6626a7ca115e2148bb85ca17c3c9784bcb808f1a88d3b1bd71b4845f3adc8",
      "v": 27,
      "creates": null,
      "raw": "0xf86c0b850ba43b74008252089432be343b94f860124dc4fee278fdcbd38c102d88882cce06b59f23e000801ba0d13c1ce5deb9d634a4cfa44f0770ac2e83b89717868fb879446ba35e6fa4d898a07aa6626a7ca115e2148bb85ca17c3c9784bcb808f1a88d3b1bd71b4845f3adc8",
      "networkId": 0,
      "chainId": 0
    },
    {
      "hash": "0x29a374b8545c6381f97101f42b67f75128af0ac986e0238b41bef48c8d0cac73",
      "blockHash": "0xfd43917eb04255e6fba25d7e7729f6a135874b03e0bc63bf61349377c1cf2cb5",
      "blockNumber": 117841,
      "transactionIndex": 1,
      "confirmations": null,
      "from": "0x0fCA66B29fD596F59398744163e3eB9C323E5133",
      "gasPrice": {
        "_hex": "0xba43b7400"
      },
      "gasLimit": {
        "_hex": "0x5208"
      },
      "to": "0x32Be343B94f860124dC4fEe278FDCBD38C102D88",
      "value": {
        "_hex": "0x2a5e319f1de6c8000"
      },
      "nonce": 3,
      "data": "0x",
      "r": "0x873faecb9d61e96ee9b064c3cedad00d229484f44c48cfb57e7578cfe3941a38",
      "s": "0x69ed915bc41c9e7e8b991b4fefe47f3478ed969e586be56b29dbfa311083009e",
      "v": 27,
      "creates": null,
      "raw": "0xf86d03850ba43b74008252089432be343b94f860124dc4fee278fdcbd38c102d888902a5e319f1de6c8000801ba0873faecb9d61e96ee9b064c3cedad00d229484f44c48cfb57e7578cfe3941a38a069ed915bc41c9e7e8b991b4fefe47f3478ed969e586be56b29dbfa311083009e",
      "networkId": 0,
      "chainId": 0
    },
    {
      "hash": "0x044ffc75caa183148e842dd58319e51261ea62278e9eb93c0b437ecf9c1d7e2b",
      "blockHash": "0xfd43917eb04255e6fba25d7e7729f6a135874b03e0bc63bf61349377c1cf2cb5",
      "blockNumber": 117841,
      "transactionIndex": 2,
      "confirmations": null,
      "from": "0x7CabE4dE323c392C7135680c61a04d5Eb7519897",
      "gasPrice": {
        "_hex": "0xba43b7400"
      },
      "gasLimit": {
        "_hex": "0x5208"
      },
      "to": "0x32Be343B94f860124dC4fEe278FDCBD38C102D88",
      "value": {
        "_hex": "0x3aa0728f3cd4e400"
      },
      "nonce": 10,
      "data": "0x",
      "r": "0x899250d75e19b59783f63ac1584d6d3ac4eb4790eb78fbba773bd40c167fb007",
      "s": "0x42648c8cf5b5ef3b4dd66ce93b4a457525d73a6e780451f1cf69eb831f9d4d72",
      "v": 27,
      "creates": null,
      "raw": "0xf86c0a850ba43b74008252089432be343b94f860124dc4fee278fdcbd38c102d88883aa0728f3cd4e400801ba0899250d75e19b59783f63ac1584d6d3ac4eb4790eb78fbba773bd40c167fb007a042648c8cf5b5ef3b4dd66ce93b4a457525d73a6e780451f1cf69eb831f9d4d72",
      "networkId": 0,
      "chainId": 0
    }
  ]
}