{
  "hash": "0xfbacb1f149a86014d9a1215dc4d9daf8f16543420d1cfd77f9caf576c255fe31",
  "parentHash": "0x5b4137f078ddb1ec18dddd94828a0cff5bfb103b9cede051eacd2150e47c89dc",
  "number": 79774,
  "timestamp": 1439474904,
  "nonce": "0xff6b51e4f8ea0fb7",
  "difficulty": 2351808227703,
  "gasLimit": {
    "_hex": "0x2fefd8"
  },
  "gasUsed": {
    "_hex": "0x2207d"
  },
  "miner": "0xbb7B8287f3F0a933474a79eAe42CBCa977791171",
  "extraData": "0x476574682f4c5649562f76312e302e312f6c696e75782f676f312e342e32",
  "transactions": [
    {
      "hash": "0x471ad13dbdb91421ae20e932623eea493d31a126aa09906a5d2c0fc293ee6ba9",
      "blockHash": "0xfbacb1f149a86014d9a1215dc4d9daf8f16543420d1cfd77f9caf576c255fe31",
      "blockNumber": 79774,
      "transactionIndex": 0,
      "confirmations": null,
      "from": "0x87C5B5874A18B4306DF8a752a6C8cc3E82daFc19",
      "gasPrice": {
        "_hex": "0x10039695101"
      },
      "gasLimit": {
        "_hex": "0x493e0"
      },
      "to": "0xC4c51de1AbF5D60DBd329eC0F999Fd8f021ae9fC",
      "value": {
        "_hex": "0x0"
      },
      "nonce": 100,
      "data": "0x03750d9400000000000000000000000087c5b5874a18b4306df8a752a6c8cc3e82dafc196361740000000000000000000000000000000000000000000000000000000000",
      "r": "0xdc79df1d7030bb75698514d42115a350a1f2bb6e223f1a7bbf3a057e27a3b557",
      "s": "0x04888a72b85e2ed9c44b22044f23e43d44f4544f85f82156c3c6488c756ef4a1",
      "v": 28,
      "creates": null,
      "raw": "0xf8ab6486010039695101830493e094c4c51de1abf5d60dbd329ec0f999fd8f021ae9fc80b84403750d9400000000000000000000000087c5b5874a18b4306df8a752a6c8cc3e82dafc1963617400000000000000000000000000000000000000000000000000000000001ca0dc79df1d7030bb75698514d42115a350a1f2bb6e223f1a7bbf3a057e27a3b557a004888a72b85e2ed9c44b22044f23e43d44f4544f85f82156c3c6488c756ef4a1",
      "networkId": 0,
      "chainId": 0
    },
    {
      "hash": "0xed0ebae33ea0c536d08befa82659341e0ad2c93d44627b402c9c0879618f63f9",
      "blockHash": "0xfbacb1f149a86014d9a1215dc4d9daf8f16543420d1cfd77f9caf576c255fe31",
      "blockNumber": 79774,
      "transactionIndex": 1,
      "confirmations": null,
      "from": "0xD1826373C4E0938f0b4302B40324f7f9c546492C",
      "gasPrice": {
        "_hex": "0xd69da31df"
      },
      "gasLimit": {
        "_hex": "0x15f90"
      },
      "to": "0x4dA64d12AEDF38B1Aa68404784A86059c7077EF0",
      "value": {
        "_hex": "0x0"
      },
      "nonce": 29,
      "data": "0x237297a4",
      "r": "0x18a392d551e54d90a698418d212cf2d3f3950d4d3a12bfafca60ea1553f158df",
      "s": "0x7f407c6fd87a8b661528dad2ac017df76b5dae1aed163c0fbf3bea43d1074ea9",
      "v": 28,
      "creates": null,
      "raw": "0xf8691d850d69da31df83015f90944da64d12aedf38b1aa68404784a86059c7077ef08084237297a41ca018a392d551e54d90a698418d212cf2d3f3950d4d3a12bfafca60ea1553f158dfa07f407c6fd87a8b661528dad2ac017df76b5dae1aed163c0fbf3bea43d1074ea9",
      "networkId": 0,
      "chainId": 0
    },
    {
      "hash": "0xafab057e1f2aa1b7c65b0de7e2b45867305724a95a3426887996e4156f5f4110",
      "blockHash": "0xfbacb1f149a86014d9a1215dc4d9daf8f16543420d1cfd77f9caf576c255fe31",
      "blockNumber": 79774,
      "transactionIndex": 2,
      "confirmations": null,
      "from": "0x2910543Af39abA0Cd09dBb2D50200b3E800A63D2",
      "gasPrice": {
        "_hex": "0xd3575603d"
      },
      "gasLimit": {
        "_hex": "0x5208"
      },
      "to": "0x07936944E0D93499f666a0dFa5e7D399A0cC3fCA",
      "value": {
        "_hex": "0x11c37937e08000"
      },
      "nonce": 372,
      "data": "0x",
      "r": "0x40c3e73c62c50aedc45001483955d39fce77f75f833a1c6f999a3bd8718d6e4d",
      "s": "0x5e447f5ce259c9f8226cc246d2db7c7fe01351cfbfce09330d8874e37369e940",
      "v": 28,
      "creates": null,
      "raw": "0xf86d820174850d3575603d8252089407936944e0d93499f666a0dfa5e7d399a0cc3fca8711c37937e08000801ca040c3e73c62c50aedc45001483955d39fce77f75f833a1c6f999a3bd8718d6e4da05e447f5ce259c9f8226cc246d2db7c7fe01351cfbfce09330d8874e37369e940",
      "networkId": 0,
      "chainId": 0
    }
  ]
}