{
  "hash": "0x07fe65cd9d67f9df415db8c32be542af363748d88cf0ce553fa8d960dc4dc039",
  "parentHash": "0x65d8c65361c9ad1b36a0404ff3edbc1335b5344fe3e8767fd08cf15aa3518dc5",
  "number": 105400,
  "timestamp": 1439886975,
  "nonce": "0x103db983920ccb5c",
  "difficulty": 4367540320766,
  "gasLimit": {
    "_hex": "0x2fefd8"
  },
  "gasUsed": {
    "_hex": "0x5208"
  },
  "miner": "0xe6A7a1d47ff21B6321162AEA7C6CB457D5476Bca",
  "extraData": "0x476574682f76312e302e312d38326566323666362f6c696e75782f676f312e34",
  "transactions": [
    {
      "hash": "0x42cde5c5e48a636842024d97bee884bd1e908e73f26e9f23787bb846a34452c9",
      "blockHash": "0x07fe65cd9d67f9df415db8c32be542af363748d88cf0ce553fa8d960dc4dc039",
      "blockNumber": 105400,
      "transactionIndex": 0,
      "confirmations": null,
      "from": "0x120A270bbC009644e35F0bB6ab13f95b8199c4ad",
      "gasPrice": {
        "_hex": "0xcc04b93d7"
      },
      "gasLimit": {
        "_hex": "0x3d090"
      },
      "to": "0x9eE2bcfE9d322cFD264b1aa913ff9e2Ca905C204",
      "value": {
        "_hex": "0x2843f11e8884a07c00"
      },
      "nonce": 767,
      "data": "0x",
      "r": "0x47804e6a8eec10554236f214714c62b03c34e533cd36fb916c58df25dc15c8a4",
      "s": "0x6fcd49849f287584a047f1b2237375a7f6f3085a4f6d39a77f4be293167c1df5",
      "v": 28,
      "creates": null,
      "raw": "0xf8708202ff850cc04b93d78303d090949ee2bcfe9d322cfd264b1aa913ff9e2ca905c204892843f11e8884a07c00801ca047804e6a8eec10554236f214714c62b03c34e533cd36fb916c58df25dc15c8a4a06fcd49849f287584a047f1b2237375a7f6f3085a4f6d39a77f4be293167c1df5",
      "networkId": 0,
      "chainId": 0
    }
  ]
}