{
  "hash": "0x19bfef364d42eacef57c08c80604a23a3538ffeaf5aed3be0b0d3b8f7d196629",
  "parentHash": "0xf845918154dec402a0fcfe1d56f847925b36eb425cc81b86c6aebcd181efdcd0",
  "number": 85887,
  "timestamp": 1439570343,
  "nonce": "0x7ef4b5d969745b83",
  "difficulty": 2781284326500,
  "gasLimit": {
    "_hex": "0x2fefd8"
  },
  "gasUsed": {
    "_hex": "0xa410"
  },
  "miner": "0xeB1325C8D9d3ea8D74aC11F4B00F1B2367686319",
  "extraData": "0x476574682f76312e302e312f77696e646f77732f676f312e342e32",
  "transactions": [
    {
      "hash": "0x4a2e80b9a4488d5acef9328a59684e9fd8fd76d317f2d02f1b5072532efca29a",
      "blockHash": "0x19bfef364d42eacef57c08c80604a23a3538ffeaf5aed3be0b0d3b8f7d196629",
      "blockNumber": 85887,
      "transactionIndex": 0,
      "confirmations": null,
      "from": "0x50056353D06a71b1f427499419D04F81f5dE4F20",
      "gasPrice": {
        "_hex": "0xcf04c55fd"
      },
      "gasLimit": {
        "_hex": "0x5208"
      },
      "to": "0x32Be343B94f860124dC4fEe278FDCBD38C102D88",
      "value": {
        "_hex": "0x133cc134236bd6000"
      },
      "nonce": 3,
      "data": "0x",
      "r": "0x32b92767e5be19dd0f663549ece00314c39647c228875c423f348fed9401cc87",
      "s": "0x3d8899f7fde9db713bf4bfc0034823b972950beec036e70bea3a9314f051e439",
      "v": 27,
      "creates": null,
      "raw": "0xf86d03850cf04c55fd8252089432be343b94f860124dc4fee278fdcbd38c102d88890133cc134236bd6000801ba032b92767e5be19dd0f663549ece00314c39647c228875c423f348fed9401cc87a03d8899f7fde9db713bf4bfc0034823b972950beec036e70bea3a9314f051e439",
      "networkId": 0,
      "chainId": 0
    },
    {
      "hash": "0x7e4d7036b99cc9dc4a76d2f8308d66aae5641bb893949527d30dd575a0e69133",
      "blockHash": "0x19bfef364d42eacef57c08c80604a23a3538ffeaf5aed3be0b0d3b8f7d196629",
      "blockNumber": 85887,
      "transactionIndex": 1,
      "confirmations": null,
      "from": "0x32Be343B94f860124dC4fEe278FDCBD38C102D88",
      "gasPrice": {
        "_hex": "0xcf04c55fd"
      },
      "gasLimit": {
        "_hex": "0x5208"
      },
      "to": "0xB139D418EFafa49c3364bbf260697491cFb204b1",
      "value": {
        "_hex": "0x13f089fccd48000"
      },
      "nonce": 740,
      "data": "0x",
      "r": "0x18111daebe73b4235ee2b783c411e6158f49340229140a953c859cbdb53090fd",
      "s": "0x09b609f133cc27bf34a19851c99a724c066b27b6effd0592c67a21ee02304d90",
      "v": 27,
      "creates": null,
      "raw": "0xf86e8202e4850cf04c55fd82520894b139d418efafa49c3364bbf260697491cfb204b188013f089fccd48000801ba018111daebe73b4235ee2b783c411e6158f49340229140a953c859cbdb53090fda009b609f133cc27bf34a19851c99a724c066b27b6effd0592c67a21ee02304d90",
      "networkId": 0,
      "chainId": 0
    }
  ]
}