{
  "hash": "0x27c9fd69b09eee5ca6ee3ae5caaa7510ed271f621ae0573f419036d1ed3ee212",
  "parentHash": "0x61024ab786aff61ac8009aeb5b2b4ad847024c8978acc1ac3c699e681bffac9a",
  "number": 52654,
  "timestamp": 1439025216,
  "nonce": "0x32e835a917f3b47f",
  "difficulty": 1565587518622,
  "gasLimit": {
    "_hex": "0x170b18"
  },
  "gasUsed": {
    "_hex": "0x16e360"
  },
  "miner": "0x0193d941b50d91BE6567c7eE1C0Fe7AF498b4137",
  "extraData": "0x4a5ace9e4e",
  "transactions": [
    {
      "hash": "0x290f017fd1415b90b8d39f359b3766a65c862048f94f190a403029fa2642eac8",
      "blockHash": "0x27c9fd69b09eee5ca6ee3ae5caaa7510ed271f621ae0573f419036d1ed3ee212",
      "blockNumber": 52654,
      "transactionIndex": 0,
      "confirmations": null,
      "from": "0x54dAeb3E8a6BBC797E4aD2b0339f134b186e4637",
      "gasPrice": {
        "_hex": "0xe1780dfbb"
      },
      "gasLimit": {
        "_hex": "0x7a120"
      },
      "to": "0xBAA54d6E90c3F4d7Ebec11bD180134C7eD8eBb52",
      "value": {
        "_hex": "0x16345785d8a0000"
      },
      "nonce": 856,
      "data": "0x",
      "r": "0x12a3170e8ab00b603ea559d3db293755f3407b2dd426546074345eeb7b9ba150",
      "s": "0x712416453b9c84df091fb0ad07c729337b261cbe9b4b02aa322d0ed4747db85f",
      "v": 28,
      "creates": null,
      "raw": "0xf86f820358850e1780dfbb8307a12094baa54d6e90c3f4d7ebec11bd180134c7ed8ebb5288016345785d8a0000801ca012a3170e8ab00b603ea559d3db293755f3407b2dd426546074345eeb7b9ba150a0712416453b9c84df091fb0ad07c729337b261cbe9b4b02aa322d0ed4747db85f",
      "networkId": 0,
      "chainId": 0
    },
    {
      "hash": "0xe41734e1d7ce5dce3a80707cad284e7dc4c66124ee50d2c78c00a71df7ced9af",
      "blockHash": "0x27c9fd69b09eee5ca6ee3ae5caaa7510ed271f621ae0573f419036d1ed3ee212",
      "blockNumber": 52654,
      "transactionIndex": 1,
      "confirmations": null,
      "from": "0x54dAeb3E8a6BBC797E4aD2b0339f134b186e4637",
      "gasPrice": {
        "_hex": "0xd8bd64e50"
      },
      "gasLimit": {
        "_hex": "0x7a120"
      },
      "to": "0xBAA54d6E90c3F4d7Ebec11bD180134C7eD8eBb52",
      "value": {
        "_hex": "0x16345785d8a0000"
      },
      "nonce": 857,
      "data": "0x",
      "r": "0xdd338e8b49e19654566b03895105101344d70ab67e560ed9244d3c99b4ca80a1",
      "s": "0x1fb0519f4d595e870890e282b1b0a5235140dc03d8d4d39d58839462291a972e",
      "v": 27,
      "creates": null,
      "raw": "0xf86f820359850d8bd64e508307a12094baa54d6e90c3f4d7ebec11bd180134c7ed8ebb5288016345785d8a0000801ba0dd338e8b49e19654566b03895105101344d70ab67e560ed9244d3c99b4ca80a1a01fb0519f4d595e870890e282b1b0a5235140dc03d8d4d39d58839462291a972e",
      "networkId": 0,
      "chainId": 0
    },
    {
      "hash": "0x462e7a3582cbe1d802e40e25bed2a8a77707da0aad408da42946ecbcb49b8247",
      "blockHash": "0x27c9fd69b09eee5ca6ee3ae5caaa7510ed271f621ae0573f419036d1ed3ee212",
      "blockNumber": 52654,
      "transactionIndex": 2,
      "confirmations": null,
      "from": "0x54dAeb3E8a6BBC797E4aD2b0339f134b186e4637",
      "gasPrice": {
        "_hex": "0xdada9c769"
      },
      "gasLimit": {
        "_hex": "0x7a120"
      },
      "to": "0xBAA54d6E90c3F4d7Ebec11bD180134C7eD8eBb52",
      "value": {
        "_hex": "0x16345785d8a0000"
      },
      "nonce": 858,
      "data": "0x",
      "r": "0x11d430e6267812852030075db483760a4c2871503636c80792ae0876d4932328",
      "s": "0x572a5337c0a72ac1dd59a7af2a532a907cce60b8fd26f3f96220713814d83137",
      "v": 28,
      "creates": null,
      "raw": "0xf86f82035a850dada9c7698307a12094baa54d6e90c3f4d7ebec11bd180134c7ed8ebb5288016345785d8a0000801ca011d430e6267812852030075db483760a4c2871503636c80792ae0876d4932328a0572a5337c0a72ac1dd59a7af2a532a907cce60b8fd26f3f96220713814d83137",
      "networkId": 0,
      "chainId": 0
    }
  ]
}