{
  "hash": "0x590a50cb4743217d6f0b6205642298853e41b2fc19358cf5316979047e41c556",
  "parentHash": "0x038b476ef49694ed9f2bf2e1bd05df457da67d292de1cfb62631af5cf61fee46",
  "number": 101791,
  "timestamp": 1439828132,
  "nonce": "0x4babfa2ce5ca1c4b",
  "difficulty": 3880553772091,
  "gasLimit": {
    "_hex": "0x2fefd8"
  },
  "gasUsed": {
    "_hex": "0x5208"
  },
  "miner": "0x5439f91E9Bf71DcE4c201C53e5D8cd51dD5633c5",
  "extraData": "0xdd809b302e392e34302b2b616339392d524c696e75782f672b2b2f4a4954",
  "transactions": [
    {
      "hash": "0x17cf67f8372a403f438f0353773a7ef43be8f75f90892cab8f4229f2c5df103c",
      "blockHash": "0x590a50cb4743217d6f0b6205642298853e41b2fc19358cf5316979047e41c556",
      "blockNumber": 101791,
      "transactionIndex": 0,
      "confirmations": null,
      "from": "0xa70a9a7040d542C632D8e0bE7c5513A8a5Bbc752",
      "gasPrice": {
        "_hex": "0xe19b2a586"
      },
      "gasLimit": {
        "_hex": "0x5208"
      },
      "to": "0x32Be343B94f860124dC4fEe278FDCBD38C102D88",
      "value": {
        "_hex": "0x455f0cd73dddfc00"
      },
      "nonce": 213,
      "data": "0x",
      "r": "0xb07f3f96dde75d2e0c1b8844822f7118391a5d3ada4db0a86c2ba7bd39c210a6",
      "s": "0x41e0bda4aeaf29b001b362ae92eed76b0838ba3018d5fb9924a311b153fa29c4",
      "v": 28,
      "creates": null,
      "raw": "0xf86d81d5850e19b2a5868252089432be343b94f860124dc4fee278fdcbd38c102d8888455f0cd73dddfc00801ca0b07f3f96dde75d2e0c1b8844822f7118391a5d3ada4db0a86c2ba7bd39c210a6a041e0bda4aeaf29b001b362ae92eed76b0838ba3018d5fb9924a311b153fa29c4",
      "networkId": 0,
      "chainId": 0
    }
  ]
}