{
  "hash": "0x31a70aa6a87c11115a170cd3852aae18a388b354c4648eb80305cc4d9c648e35",
  "parentHash": "0xa2f1b800c826a52749683e2b68d91c940264aa57e4c1382c2be20cd6456d5438",
  "number": 55373,
  "timestamp": 1439069686,
  "nonce": "0xb4dfc1c58f5b2d11",
  "difficulty": 1625043677588,
  "gasLimit": {
    "_hex": "0x2fefd8"
  },
  "gasUsed": {
    "_hex": "0x3b6db"
  },
  "miner": "0x9746c7e1ef2bd21FF3997fa467593a89cb852BD0",
  "extraData": "0x476574682f76312e302e312f77696e646f77732f676f312e342e32",
  "transactions": [
    {
      "hash": "0x7bd9cfb8aeec4bdc88ddfc5247fa651d94fe9a4a45603506643e2b886388fb7e",
      "blockHash": "0x31a70aa6a87c11115a170cd3852aae18a388b354c4648eb80305cc4d9c648e35",
      "blockNumber": 55373,
      "transactionIndex": 0,
      "confirmations": null,
      "from": "0x073f70b5bfAde6409E4951EF72BC8F4157677729",
      "gasPrice": {
        "_hex": "0xdc952f81e"
      },
      "gasLimit": {
        "_hex": "0x15f90"
      },
      "to": "0xF6bF0eE51FE0ee92500bB22295382E9241eC3b5C",
      "value": {
        "_hex": "0xc8"
      },
      "nonce": 4,
      "data": "0xe54232743539393434373161626230313131326166636331383135396636630000000000",
      "r": "0x7184c5a1818a1e19bc120383b4e44fa9c33e6b2909d894e7b33a451ef7975db1",
      "s": "0x3147d59dbad817bcd49c56e0dd700f1f422af5a231bb2687ba5612a6e0625492",
      "v": 27,
      "creates": null,
      "raw": "0xf88a04850dc952f81e83015f9094f6bf0ee51fe0ee92500bb22295382e9241ec3b5c81c8a4e542327435393934343731616262303131313261666363313831353966366300000000001ba07184c5a1818a1e19bc120383b4e44fa9c33e6b2909d894e7b33a451ef7975db1a03147d59dbad817bcd49c56e0dd700f1f422af5a231bb2687ba5612a6e0625492",
      "networkId": 0,
      "chainId": 0
    },
    {
      "hash": "0xa3572f223c8d0162548f5aa42c0226e6ce93a1f85bab61459bdeae7dd4ea6c46",
      "blockHash": "0x31a70aa6a87c11115a170cd3852aae18a388b354c4648eb80305cc4d9c648e35",
      "blockNumber": 55373,
      "transactionIndex": 1,
      "confirmations": null,
      "from": "0x073f70b5bfAde6409E4951EF72BC8F4157677729",
      "gasPrice": {
        "_hex": "0xdc952f81e"
      },
      "gasLimit": {
        "_hex": "0x15f90"
      },
      "to": "0xF6bF0eE51FE0ee92500bB22295382E9241eC3b5C",
      "value": {
        "_hex": "0xc8"
      },
      "nonce": 5,
      "data": "0xe54232743539393434373161626230313131326166636331383135396636633400000000",
      "r": "0xb999b8698276a83604d694a3d6efb3e08b92adc628156b2e623c669706cee0c1",
      "s": "0x7509c708ab32fc988ae2cec3ddf409dd829f27f4af7874a75ce6250b1e8050f2",
      "v": 28,
      "creates": null,
      "raw": "0xf88a05850dc952f81e83015f9094f6bf0ee51fe0ee92500bb22295382e9241ec3b5c81c8a4e542327435393934343731616262303131313261666363313831353966366334000000001ca0b999b8698276a83604d694a3d6efb3e08b92adc628156b2e623c669706cee0c1a07509c708ab32fc988ae2cec3ddf409dd829f27f4af7874a75ce6250b1e8050f2",
      "networkId": 0,
      "chainId": 0
    },
    {
      "hash": "0xa3a317974307ee8b7ba8dee7cf54111b9e54708167f2291ac5bd46be72f5c4c3",
      "blockHash": "0x31a70aa6a87c11115a170cd3852aae18a388b354c4648eb80305cc4d9c648e35",
      "blockNumber": 55373,
      "transactionIndex": 2,
      "confirmations": null,
      "from": "0x073f70b5bfAde6409E4951EF72BC8F4157677729",
      "gasPrice": {
        "_hex": "0xdc952f81e"
      },
      "gasLimit": {
        "_hex": "0x15f90"
      },
      "to": "0xF6bF0eE51FE0ee92500bB22295382E9241eC3b5C",
      "value": {
        "_hex": "0xc8"
      },
      "nonce": 6,
      "data": "0xe54232743539393434373161626230313131326166636331383135396636633434343400",
      "r": "0x159d06d7f921babd42326fd4d919a97953e3d49a41289a96aed984abb5067841",
      "s": "0x41944f3b33ea604276f2db5cae12d8e64ec229d5254d4b02aab3f2fbdb02b0d0",
      "v": 28,
      "creates": null,
      "raw": "0xf88a06850dc952f81e83015f9094f6bf0ee51fe0ee92500bb22295382e9241ec3b5c81c8a4e542327435393934343731616262303131313261666363313831353966366334343434001ca0159d06d7f921babd42326fd4d919a97953e3d49a41289a96aed984abb5067841a041944f3b33ea604276f2db5cae12d8e64ec229d5254d4b02aab3f2fbdb02b0d0",
      "networkId": 0,
      "chainId": 0
    },
    {
      "hash": "0x73e12e8d5374550312beacecd3c242f5eee65de06d1d140524003fb9f4a4234e",
      "blockHash": "0x31a70aa6a87c11115a170cd3852aae18a388b354c4648eb80305cc4d9c648e35",
      "blockNumber": 55373,
      "transactionIndex": 3,
      "confirmations": null,
      "from": "0x288E4356F12D0D3D0F8DF3506E457E7cFd5f4Ab0",
      "gasPrice": {
        "_hex": "0xd7b9f6624"
      },
      "gasLimit": {
        "_hex": "0x186a0"
      },
      "to": "0xF6bF0eE51FE0ee92500bB22295382E9241eC3b5C",
      "value": {
        "_hex": "0x38d7ea4c68000"
      },
      "nonce": 11,
      "data": "0xe54232741566336316561edb086701c71c71c70000000000000000000000000000000000",
      "r": "0x62ce0a383979e42321530c01408534cc2c856d3799f50113772f7885f95fa0ee",
      "s": "0x481837314aa45c44776ee9e67d0f938ae34f2381544e7e0b65d7a75c04fb6364",
      "v": 28,
      "creates": null,
      "raw": "0xf8900b850d7b9f6624830186a094f6bf0ee51fe0ee92500bb22295382e9241ec3b5c87038d7ea4c68000a4e54232741566336316561edb086701c71c71c700000000000000000000000000000000001ca062ce0a383979e42321530c01408534cc2c856d3799f50113772f7885f95fa0eea0481837314aa45c44776ee9e67d0f938ae34f2381544e7e0b65d7a75c04fb6364",
      "networkId": 0,
      "chainId": 0
    },
    {
      "hash": "0xb097a3f038b7a0530b998b4e48f32ec460561743d7cb29d8acfe0bb15fe8fba5",
      "blockHash": "0x31a70aa6a87c11115a170cd3852aae18a388b354c4648eb80305cc4d9c648e35",
      "blockNumber": 55373,
      "transactionIndex": 4,
      "confirmations": null,
      "from": "0x288E4356F12D0D3D0F8DF3506E457E7cFd5f4Ab0",
      "gasPrice": {
        "_hex": "0xd7b9f6624"
      },
      "gasLimit": {
        "_hex": "0x186a0"
      },
      "to": "0xF6bF0eE51FE0ee92500bB22295382E9241eC3b5C",
      "value": {
        "_hex": "0x38d7ea4c68000"
      },
      "nonce": 12,
      "data": "0xe5423274c29ff2059e1234b58ab61a3054811c71c71c71c7000000000000000000000000",
      "r": "0x584a3695ac6ccbf407f51a0eb0f945c5782aeb0bf1e02f67c34f43f357083dd2",
      "s": "0x77168b90e62c8b2bff2660ad3bc43787d2bff1bd6b59a3b803737f5d49386474",
      "v": 27,
      "creates": null,
      "raw": "0xf8900c850d7b9f6624830186a094f6bf0ee51fe0ee92500bb22295382e9241ec3b5c87038d7ea4c68000a4e5423274c29ff2059e1234b58ab61a3054811c71c71c71c70000000000000000000000001ba0584a3695ac6ccbf407f51a0eb0f945c5782aeb0bf1e02f67c34f43f357083dd2a077168b90e62c8b2bff2660ad3bc43787d2bff1bd6b59a3b803737f5d49386474",
      "networkId": 0,
      "chainId": 0
    },
    {
      "hash": "0x66c2a3afd94c58ba4feccce3a00f5bf17d66987c10187bee7affe553e5dfbc6d",
      "blockHash": "0x31a70aa6a87c11115a170cd3852aae18a388b354c4648eb80305cc4d9c648e35",
      "blockNumber": 55373,
      "transactionIndex": 5,
      "confirmations": null,
      "from": "0xB7268c7705A1866b2A78e882fdfDc8E2a4e1428E",
      "gasPrice": {
        "_hex": "0xcd2df8063"
      },
      "gasLimit": {
        "_hex": "0x15f90"
      },
      "to": "0x96811Ad897894eC178872117C8BF2f03971A393B",
      "value": {
        "_hex": "0xde0b6b3a7640000"
      },
      "nonce": 1,
      "data": "0x",
      "r": "0x92af8c42cf416cfd37d9426b64637c0e3fcea1eff3f5624763ff39842cbf8b30",
      "s": "0x51ea03db9bbe32a68e81fd8da235c4b38390b26caba51f8cfacec7c5203674e4",
      "v": 27,
      "creates": null,
      "raw": "0xf86d01850cd2df806383015f909496811ad897894ec178872117c8bf2f03971a393b880de0b6b3a7640000801ba092af8c42cf416cfd37d9426b64637c0e3fcea1eff3f5624763ff39842cbf8b30a051ea03db9bbe32a68e81fd8da235c4b38390b26caba51f8cfacec7c5203674e4",
      "networkId": 0,
      "chainId": 0
    }
  ]
}