{
  "hash": "0x1298fbcf6b4763282a4b3bce9f01c3c09ebd567deb6f154569e579ad93cbc302",
  "parentHash": "0x59fd48f7f2a60cd4da006578b5c23dda8770399c642b06db5e3f1aa989a08bd2",
  "number": 99880,
  "timestamp": 1439797050,
  "nonce": "0x5fce8df0906f4ffa",
  "difficulty": 3841841350925,
  "gasLimit": {
    "_hex": "0x2fefd8"
  },
  "gasUsed": {
    "_hex": "0x5208"
  },
  "miner": "0xe6A7a1d47ff21B6321162AEA7C6CB457D5476Bca",
  "extraData": "0x476574682f76312e302e312d38326566323666362f6c696e75782f676f312e34",
  "transactions": [
    {
      "hash": "0xb7657237c545ef4a7b94ac0e4d21ca6629eeae2aa3cf7260512e7ab5683080e8",
      "blockHash": "0x1298fbcf6b4763282a4b3bce9f01c3c09ebd567deb6f154569e579ad93cbc302",
      "blockNumber": 99880,
      "transactionIndex": 0,
      "confirmations": null,
      "from": "0x007f7f58D3eb5b7510A301eCC749FC1fCDDBE14D",
      "gasPrice": {
        "_hex": "0xe0cfe7246"
      },
      "gasLimit": {
        "_hex": "0x15f90"
      },
      "to": "0xb1abce2918E21ddb93AA452731a12672A3d9F75a",
      "value": {
        "_hex": "0x4563918244f40000"
      },
      "nonce": 151,
      "data": "0x",
      "r": "0x7a1a1fd4989028a1563f18e8b2ba8c1637bc411a79927fe673e1dc72602811eb",
      "s": "0x0f6f922b45d50cf12412719656cca6f151c73dd976414a41d8d0e032eca37963",
      "v": 27,
      "creates": null,
      "raw": "0xf86e8197850e0cfe724683015f9094b1abce2918e21ddb93aa452731a12672a3d9f75a884563918244f40000801ba07a1a1fd4989028a1563f18e8b2ba8c1637bc411a79927fe673e1dc72602811eba00f6f922b45d50cf12412719656cca6f151c73dd976414a41d8d0e032eca37963",
      "networkId": 0,
      "chainId": 0
    }
  ]
}