{
  "hash": "0xbbee9c4e737e72a000cd3442da4e279b0fc6bd9f3d3262ec50c0853c00d41fa6",
  "parentHash": "0x44c9e09ef210f05648c5c615b93e1fecdee72588ad4a5de39b1ece2f0ee31757",
  "number": 68574,
  "timestamp": 1439290272,
  "nonce": "0x1b64790ddcaef967",
  "difficulty": 2012329608561,
  "gasLimit": {
    "_hex": "0x2fefd8"
  },
  "gasUsed": {
    "_hex": "0x12988c"
  },
  "miner": "0x02020D22dCF88f5eDd66B382D7da019F161fB7e3",
  "extraData": "0x",
  "transactions": [
    {
      "hash": "0xa84dc993d1e45e6706053d492f5825a8428abc154a0f89f3576d0e911cf493ef",
      "blockHash": "0xbbee9c4e737e72a000cd3442da4e279b0fc6bd9f3d3262ec50c0853c00d41fa6",
      "blockNumber": 68574,
      "transactionIndex": 0,
      "confirmations": null,
      "from": "0x996Ac856a6eb5460E7fE501519e74B3f3CF00483",
      "gasPrice": {
        "_hex": "0xba43b7400"
      },
      "gasLimit": {
        "_hex": "0x15f90"
      },
      "to": "0x793AE8C1b1a160BFc07BFB0d04F85eab1A71F4f2",
      "value": {
        "_hex": "0x0"
      },
      "nonce": 0,
      "data": "0x3ba15036",
      "r": "0xbad6ed4230b270cb6b5f1cd77595f7a2b18eb6061409b7e697835262831ed029",
      "s": "0x0200a3e5d928dca4853a768964c7576ef660001b66b160edc3715cd689fc0ba7",
      "v": 28,
      "creates": null,
      "raw": "0xf86980850ba43b740083015f9094793ae8c1b1a160bfc07bfb0d04f85eab1a71f4f280843ba150361ca0bad6ed4230b270cb6b5f1cd77595f7a2b18eb6061409b7e697835262831ed029a00200a3e5d928dca4853a768964c7576ef660001b66b160edc3715cd689fc0ba7",
      "networkId": 0,
      "chainId": 0
    },
    {
      "hash": "0xc843a8903c9cfcdb343f2e8b25cec9e56fda17b16c292f104df7c15da470cfc4",
      "blockHash": "0xbbee9c4e737e72a000cd3442da4e279b0fc6bd9f3d3262ec50c0853c00d41fa6",
      "blockNumber": 68574,
      "transactionIndex": 1,
      "confirmations": null,
      "from": "0xEef316eDD6a387D0c065f9A3E6416d86B343c41E",
      "gasPrice": {
        "_hex": "0xba43b7400"
      },
      "gasLimit": {
        "_hex": "0x15f90"
      },
      "to": "0x793AE8C1b1a160BFc07BFB0d04F85eab1A71F4f2",
      "value": {
        "_hex": "0x0"
      },
      "nonce": 0,
      "data": "0x3ba15036",
      "r": "0x42615db7c5f904bdbab9e1dcb5040bd9404c938814343d04bd21e99b8d13bb97",
      "s": "0x7b78beb74e779f933e9e632a2c3973a3701f80b9b42ef8e9c0c13f075b428300",
      "v": 27,
      "creates": null,
      "raw": "0xf86980850ba43b740083015f9094793ae8c1b1a160bfc07bfb0d04f85eab1a71f4f280843ba150361ba042615db7c5f904bdbab9e1dcb5040bd9404c938814343d04bd21e99b8d13bb97a07b78beb74e779f933e9e632a2c3973a3701f80b9b42ef8e9c0c13f075b428300",
      "networkId": 0,
      "chainId": 0
    },
    {
      "hash": "0x57664f269ac91abf577eba75b60e5b201ecc218ec98a73477949bf9c338df650",
      "blockHash": "0xbbee9c4e737e72a000cd3442da4e279b0fc6bd9f3d3262ec50c0853c00d41fa6",
      "blockNumber": 68574,
      "transactionIndex": 2,
      "confirmations": null,
      "from": "0x64e4869041746d9D55C6D8896fe5750E9faD30f3",
      "gasPrice": {
        "_hex": "0xba43b7400"
      },
      "gasLimit": {
        "_hex": "0x15f90"
      },
      "to": "0x793AE8C1b1a160BFc07BFB0d04F85eab1A71F4f2",
      "value": {
        "_hex": "0x0"
      },
      "nonce": 0,
      "data": "0x3ba15036",
      "r": "0x387249fefce9988c9798f05066d133a7c02ffdf248f2558f23bc7add1c94414e",
      "s": "0x53d831f4a59f86be2a863f3cf4ad4fcf2a376227be13df167df5f47e39ac09bf",
      "v": 27,
      "creates": null,
      "raw": "0xf86980850ba43b740083015f9094793ae8c1b1a160bfc07bfb0d04f85eab1a71f4f280843ba150361ba0387249fefce9988c9798f05066d133a7c02ffdf248f2558f23bc7add1c94414ea053d831f4a59f86be2a863f3cf4ad4fcf2a376227be13df167df5f47e39ac09bf",
      "networkId": 0,
      "chainId": 0
    },
    {
      "hash": "0x627c470e358cd8613916de733101b98d9450c59c5977d170b46fac5c43b35e13",
      "blockHash": "0xbbee9c4e737e72a000cd3442da4e279b0fc6bd9f3d3262ec50c0853c00d41fa6",
      "blockNumber": 68574,
      "transactionIndex": 3,
      "confirmations": null,
      "from": "0xC829A397a9935Abf0175cC6c99693Ed29951630b",
      "gasPrice": {
        "_hex": "0xba43b7400"
      },
      "gasLimit": {
        "_hex": "0x15f90"
      },
      "to": "0x793AE8C1b1a160BFc07BFB0d04F85eab1A71F4f2",
      "value": {
        "_hex": "0x0"
      },
      "nonce": 0,
      "data": "0x3ba15036",
      "r": "0x25fe124fa2bc163688348417fdc6e836759842817f3c519623e84b2de02dfe80",
      "s": "0x34264e9151b2eb5e19947207cfb6aaa55f7f2c94c7f29f12f82e6a2aaa5f24ed",
      "v": 27,
      "creates": null,
      "raw": "0xf86980850ba43b740083015f9094793ae8c1b1a160bfc07bfb0d04f85eab1a71f4f280843ba150361ba025fe124fa2bc163688348417fdc6e836759842817f3c519623e84b2de02dfe80a034264e9151b2eb5e19947207cfb6aaa55f7f2c94c7f29f12f82e6a2aaa5f24ed",
      "networkId": 0,
      "chainId": 0
    },
    {
      "hash": "0x1b75e34c80c231e8364fa301165979b8357f0b3770378709d856333e396224f7",
      "blockHash": "0xbbee9c4e737e72a000cd3442da4e279b0fc6bd9f3d3262ec50c0853c00d41fa6",
      "blockNumber": 68574,
      "transactionIndex": 4,
      "confirmations": null,
      "from": "0xF5Ce3C601af96518c121F35604c212E7d5c6Ab5b",
      "gasPrice": {
        "_hex": "0xba43b7400"
      },
      "gasLimit": {
        "_hex": "0x15f90"
      },
      "to": "0x793AE8C1b1a160BFc07BFB0d04F85eab1A71F4f2",
      "value": {
        "_hex": "0x0"
      },
      "nonce": 0,
      "data": "0x3ba15036",
      "r": "0xe85f22faa6938c037974cd58aed4bb9478019443083e3f70f3b6150fff6b57c4",
      "s": "0x705905f0b54edacdd037de355ed5e0d99bff649b8d5012fb07a1ecf145a4f132",
      "v": 28,
      "creates": null,
      "raw": "0xf86980850ba43b740083015f9094793ae8c1b1a160bfc07bfb0d04f85eab1a71f4f280843ba150361ca0e85f22faa6938c037974cd58aed4bb9478019443083e3f70f3b6150fff6b57c4a0705905f0b54edacdd037de355ed5e0d99bff649b8d5012fb07a1ecf145a4f132",
      "networkId": 0,
      "chainId": 0
    },
    {
      "hash": "0xdfbdb4f78afeaae154f9d3622d654f062abe0e5ee31ccd4f207d09289af24b62",
      "blockHash": "0xbbee9c4e737e72a000cd3442da4e279b0fc6bd9f3d3262ec50c0853c00d41fa6",
      "blockNumber": 68574,
      "transactionIndex": 5,
      "confirmations": null,
      "from": "0xBB2e13986309484dd6468e2f7db5BC9E53EF4AFf",
      "gasPrice": {
        "_hex": "0xba43b7400"
      },
      "gasLimit": {
        "_hex": "0x15f90"
      },
      "to": "0x793AE8C1b1a160BFc07BFB0d04F85eab1A71F4f2",
      "value": {
        "_hex": "0x0"
      },
      "nonce": 0,
      "data": "0x3ba15036",
      "r": "0xa89767016a59e9733fb294841e21ae3883ba089fb9f073b4918439f621154310",
      "s": "0x6a4dc8f558f49134f74fddf0ef033b97b8f3c230e17af3dd005ae57ab364ee93",
      "v": 28,
      "creates": null,
      "raw": "0xf86980850ba43b740083015f9094793ae8c1b1a160bfc07bfb0d04f85eab1a71f4f280843ba150361ca0a89767016a59e9733fb294841e21ae3883ba089fb9f073b4918439f621154310a06a4dc8f558f49134f74fddf0ef033b97b8f3c230e17af3dd005ae57ab364ee93",
      "networkId": 0,
      "chainId": 0
    },
    {
      "hash": "0xb7deac9fe5ee0a81d012bc8a30140c8cf3a5e05772557871c9122544c23d6437",
      "blockHash": "0xbbee9c4e737e72a000cd3442da4e279b0fc6bd9f3d3262ec50c0853c00d41fa6",
      "blockNumber": 68574,
      "transactionIndex": 6,
      "confirmations": null,
      "from": "0xCaD3f480d3C14Ef9A9C9dfA8B130354f20A93674",
      "gasPrice": {
        "_hex": "0xba43b7400"
      },
      "gasLimit": {
        "_hex": "0x15f90"
      },
      "to": "0x793AE8C1b1a160BFc07BFB0d04F85eab1A71F4f2",
      "value": {
        "_hex": "0x0"
      },
      "nonce": 0,
      "data": "0x3ba15036",
      "r": "0x3fddc9b4c2540a9398c3c054375654ce7ceacab9c89e48761fc3e3a5458c916e",
      "s": "0x4ff454b2ccf29fb2028f253c8877998b027b59a9f6e644c84fddd5b7ffffe357",
      "v": 28,
      "creates": null,
      "raw": "0xf86980850ba43b740083015f9094793ae8c1b1a160bfc07bfb0d04f85eab1a71f4f280843ba150361ca03fddc9b4c2540a9398c3c054375654ce7ceacab9c89e48761fc3e3a5458c916ea04ff454b2ccf29fb2028f253c8877998b027b59a9f6e644c84fddd5b7ffffe357",
      "networkId": 0,
      "chainId": 0
    },
    {
      "hash": "0x88548c293744027f3b9ce08e0b176432c3f9a06668c6abf0a2ee6db638d02a7c",
      "blockHash": "0xbbee9c4e737e72a000cd3442da4e279b0fc6bd9f3d3262ec50c0853c00d41fa6",
      "blockNumber": 68574,
      "transactionIndex": 7,
      "confirmations": null,
      "from": "0x80FeF5cA24064ADBd088875A85E25e5D317f36C8",
      "gasPrice": {
        "_hex": "0xba43b7400"
      },
      "gasLimit": {
        "_hex": "0x15f90"
      },
      "to": "0x793AE8C1b1a160BFc07BFB0d04F85eab1A71F4f2",
      "value": {
        "_hex": "0x0"
      },
      "nonce": 0,
      "data": "0x3ba15036",
      "r": "0xec8934d71014abef1167ff3fe9940810ea8999ecf8837e32fe005b0faf794a6d",
      "s": "0x1c4c22e824317ec226f6521262abc1d3ae2f4253981b4054bb110e2e2986c656",
      "v": 28,
      "creates": null,
      "raw": "0xf86980850ba43b740083015f9094793ae8c1b1a160bfc07bfb0d04f85eab1a71f4f280843ba150361ca0ec8934d71014abef1167ff3fe9940810ea8999ecf8837e32fe005b0faf794a6da01c4c22e824317ec226f6521262abc1d3ae2f4253981b4054bb110e2e2986c656",
      "networkId": 0,
      "chainId": 0
    },
    {
      "hash": "0xff63af9cc8ccb2497abed1fa79d49ca2425a6652756d43fac16d491377ccc7e7",
      "blockHash": "0xbbee9c4e737e72a000cd3442da4e279b0fc6bd9f3d3262ec50c0853c00d41fa6",
      "blockNumber": 68574,
      "transactionIndex": 8,
      "confirmations": null,
      "from": "0xd813564893f443456979D731a6f36E7E1D030E88",
      "gasPrice": {
        "_hex": "0xba43b7400"
      },
      "gasLimit": {
        "_hex": "0x15f90"
      },
      "to": "0x793AE8C1b1a160BFc07BFB0d04F85eab1A71F4f2",
      "value": {
        "_hex": "0x0"
      },
      "nonce": 0,
      "data": "0x3ba15036",
      "r": "0x0f766a0b67ab7bb4bb06d6ce5ee14566d74654204428f5877f9fbca38e0b6aaa",
      "s": "0x3635c66d791829cb53926d11bc172acb7a0381e4219c74037c3c034214b500a8",
      "v": 28,
      "creates": null,
      "raw": "0xf86980850ba43b740083015f9094793ae8c1b1a160bfc07bfb0d04f85eab1a71f4f280843ba150361ca00f766a0b67ab7bb4bb06d6ce5ee14566d74654204428f5877f9fbca38e0b6aaaa03635c66d791829cb53926d11bc172acb7a0381e4219c74037c3c034214b500a8",
      "networkId": 0,
      "chainId": 0
    },
    {
      "hash": "0xaba001623c58a45fece2008408d2aa095712ab145f792a46e0cbc13d90cf33f0",
      "blockHash": "0xbbee9c4e737e72a000cd3442da4e279b0fc6bd9f3d3262ec50c0853c00d41fa6",
      "blockNumber": 68574,
      "transactionIndex": 9,
      "confirmations": null,
      "from": "0xfBb274b243adf278B9d86e286343b665B95649Eb",
      "gasPrice": {
        "_hex": "0xba43b7400"
      },
      "gasLimit": {
        "_hex": "0x15f90"
      },
      "to": "0x793AE8C1b1a160BFc07BFB0d04F85eab1A71F4f2",
      "value": {
        "_hex": "0x0"
      },
      "nonce": 0,
      "data": "0x3ba15036",
      "r": "0x675faaa83720b66e924662ea41bb8cd1fa241dd2528c58e21d34b803ff3f28fc",
      "s": "0x02cc42fb75509eea985ce44433d8871c13704c9f331ef6b6148737ddee0a17ef",
      "v": 27,
      "creates": null,
      "raw": "0xf86980850ba43b740083015f9094793ae8c1b1a160bfc07bfb0d04f85eab1a71f4f280843ba150361ba0675faaa83720b66e924662ea41bb8cd1fa241dd2528c58e21d34b803ff3f28fca002cc42fb75509eea985ce44433d8871c13704c9f331ef6b6148737ddee0a17ef",
      "networkId": 0,
      "chainId": 0
    },
    {
      "hash": "0x24053f36c6665f07877ed0eb6c8dd3ab0452c38f8d26553ba678f1398d9644d9",
      "blockHash": "0xbbee9c4e737e72a000cd3442da4e279b0fc6bd9f3d3262ec50c0853c00d41fa6",
      "blockNumber": 68574,
      "transactionIndex": 10,
      "confirmations": null,
      "from": "0x60d52c5289c196b99d3ec2bc6f9270043D9804cC",
      "gasPrice": {
        "_hex": "0xba43b7400"
      },
      "gasLimit": {
        "_hex": "0x15f90"
      },
      "to": "0x793AE8C1b1a160BFc07BFB0d04F85eab1A71F4f2",
      "value": {
        "_hex": "0x0"
      },
      "nonce": 0,
      "data": "0x3ba15036",
      "r": "0x24e3b4ebfb0a483ef2c67503ac94f2d8b2ee91eabebfa348a728ac0ba2211337",
      "s": "0x72bc9cb53a12cdae20fe6559d527ca234fc830cdb52120332c7a9c9318a48081",
      "v": 28,
      "creates": null,
      "raw": "0xf86980850ba43b740083015f9094793ae8c1b1a160bfc07bfb0d04f85eab1a71f4f280843ba150361ca024e3b4ebfb0a483ef2c67503ac94f2d8b2ee91eabebfa348a728ac0ba2211337a072bc9cb53a12cdae20fe6559d527ca234fc830cdb52120332c7a9c9318a48081",
      "networkId": 0,
      "chainId": 0
    },
    {
      "hash": "0x6ea10e0f3829ae1467a7b0e24ad3de6e0f838a36470ddc2dbaed79f8c1af6f91",
      "blockHash": "0xbbee9c4e737e72a000cd3442da4e279b0fc6bd9f3d3262ec50c0853c00d41fa6",
      "blockNumber": 68574,
      "transactionIndex": 11,
      "confirmations": null,
      "from": "0xDaa83D26C4399Afd0C28A8a25812A30FAc047d34",
      "gasPrice": {
        "_hex": "0xba43b7400"
      },
      "gasLimit": {
        "_hex": "0x15f90"
      },
      "to": "0x793AE8C1b1a160BFc07BFB0d04F85eab1A71F4f2",
      "value": {
        "_hex": "0x0"
      },
      "nonce": 0,
      "data": "0x3ba15036",
      "r": "0xdae2682d7946bda3d03c6d3f0e21bde535f3948c0a1260267aa82834f49cbe1c",
      "s": "0x6e1e561266a3998e4843c65b3d4e42210eddc4d0fe63f5f7ba40a442e366a532",
      "v": 28,
      "creates": null,
      "raw": "0xf86980850ba43b740083015f9094793ae8c1b1a160bfc07bfb0d04f85eab1a71f4f280843ba150361ca0dae2682d7946bda3d03c6d3f0e21bde535f3948c0a1260267aa82834f49cbe1ca06e1e561266a3998e4843c65b3d4e42210eddc4d0fe63f5f7ba40a442e366a532",
      "networkId": 0,
      "chainId": 0
    },
    {
      "hash": "0x745937c673e2969ab4d51d25b6fabb01e78764051ce6993e43e7e1bdbf633cb8",
      "blockHash": "0xbbee9c4e737e72a000cd3442da4e279b0fc6bd9f3d3262ec50c0853c00d41fa6",
      "blockNumber": 68574,
      "transactionIndex": 12,
      "confirmations": null,
      "from": "0xc1a4213A66464056090aA28e751cDf9d706f23c5",
      "gasPrice": {
        "_hex": "0xba43b7400"
      },
      "gasLimit": {
        "_hex": "0x15f90"
      },
      "to": "0x793AE8C1b1a160BFc07BFB0d04F85eab1A71F4f2",
      "value": {
        "_hex": "0x0"
      },
      "nonce": 0,
      "data": "0x3ba15036",
      "r": "0xdd9d453e3cf6a51d2f239e96e5c9006bc2f35aac4a8810a52d818228f6d1b843",
      "s": "0x30b238515a1d551fccf155ab09799c179fdfc358e467ff136a96651ad4d60d93",
      "v": 27,
      "creates": null,
      "raw": "0xf86980850ba43b740083015f9094793ae8c1b1a160bfc07bfb0d04f85eab1a71f4f280843ba150361ba0dd9d453e3cf6a51d2f239e96e5c9006bc2f35aac4a8810a52d818228f6d1b843a030b238515a1d551fccf155ab09799c179fdfc358e467ff136a96651ad4d60d93",
      "networkId": 0,
      "chainId": 0
    },
    {
      "hash": "0x7855dfd22743ab25f55458c9760d93ca2344c61d704ab3a4715bbf64f89ae03b",
      "blockHash": "0xbbee9c4e737e72a000cd3442da4e279b0fc6bd9f3d3262ec50c0853c00d41fa6",
      "blockNumber": 68574,
      "transactionIndex": 13,
      "confirmations": null,
      "from": "0xB598fdd55d1B2F388E588b68E8b012eaed3D7Aad",
      "gasPrice": {
        "_hex": "0xba43b7400"
      },
      "gasLimit": {
        "_hex": "0x15f90"
      },
      "to": "0x793AE8C1b1a160BFc07BFB0d04F85eab1A71F4f2",
      "value": {
        "_hex": "0x0"
      },
      "nonce": 0,
      "data": "0x3ba15036",
      "r": "0xd972b36b9cd3c875bdd81323e151545e3711b3a70f57bcf60fbb18dfcc97ac95",
      "s": "0x7dd8d5fa5370c776bb75332fd814f406874b58c392773623c84b763d7f44f50f",
      "v": 28,
      "creates": null,
      "raw": "0xf86980850ba43b740083015f9094793ae8c1b1a160bfc07bfb0d04f85eab1a71f4f280843ba150361ca0d972b36b9cd3c875bdd81323e151545e3711b3a70f57bcf60fbb18dfcc97ac95a07dd8d5fa5370c776bb75332fd814f406874b58c392773623c84b763d7f44f50f",
      "networkId": 0,
      "chainId": 0
    },
    {
      "hash": "0x076279713be88d6c142fb0bc7514278547d24339163c4f34be1ac32038e72555",
      "blockHash": "0xbbee9c4e737e72a000cd3442da4e279b0fc6bd9f3d3262ec50c0853c00d41fa6",
      "blockNumber": 68574,
      "transactionIndex": 14,
      "confirmations": null,
      "from": "0x0d7D63eAd1F93BD1222ac64D10fdE9C04B1C5828",
      "gasPrice": {
        "_hex": "0xba43b7400"
      },
      "gasLimit": {
        "_hex": "0x15f90"
      },
      "to": "0x793AE8C1b1a160BFc07BFB0d04F85eab1A71F4f2",
      "value": {
        "_hex": "0x0"
      },
      "nonce": 0,
      "data": "0x3ba15036",
      "r": "0x5d375e1aa94c4a5c098fb996fafe0ed8c883d5ca0eb74bad4a740b725f706624",
      "s": "0x6e84094b3a7f2484d9f0fcc264cf00534705f86a904df0cef1113c560188ccd9",
      "v": 28,
      "creates": null,
      "raw": "0xf86980850ba43b740083015f9094793ae8c1b1a160bfc07bfb0d04f85eab1a71f4f280843ba150361ca05d375e1aa94c4a5c098fb996fafe0ed8c883d5ca0eb74bad4a740b725f706624a06e84094b3a7f2484d9f0fcc264cf00534705f86a904df0cef1113c560188ccd9",
      "networkId": 0,
      "chainId": 0
    },
    {
      "hash": "0x5e83c07dc9ce816a172f7b737bd44f7b9e56c446a63de26a66d5a5f51ba5f3ac",
      "blockHash": "0xbbee9c4e737e72a000cd3442da4e279b0fc6bd9f3d3262ec50c0853c00d41fa6",
      "blockNumber": 68574,
      "transactionIndex": 15,
      "confirmations": null,
      "from": "0x7Cc44620350392a61433140354eac3f5d929a448",
      "gasPrice": {
        "_hex": "0xba43b7400"
      },
      "gasLimit": {
        "_hex": "0x15f90"
      },
      "to": "0x793AE8C1b1a160BFc07BFB0d04F85eab1A71F4f2",
      "value": {
        "_hex": "0x0"
      },
      "nonce": 0,
      "data": "0x3ba15036",
      "r": "0x7ec0e49d13c65e33072fa80c1f4e6149f4e77dfc82d3d04016d18386b46effe2",
      "s": "0x6f868f025977260826f305438a5d81978b2432f57d4fc470cfadfd1bcee387a7",
      "v": 28,
      "creates": null,
      "raw": "0xf86980850ba43b740083015f9094793ae8c1b1a160bfc07bfb0d04f85eab1a71f4f280843ba150361ca07ec0e49d13c65e33072fa80c1f4e6149f4e77dfc82d3d04016d18386b46effe2a06f868f025977260826f305438a5d81978b2432f57d4fc470cfadfd1bcee387a7",
      "networkId": 0,
      "chainId": 0
    },
    {
      "hash": "0xfaab6cb605f01c3c8d167c41674b88f82b8df1ce849cae4b0eba65c4e2934d58",
      "blockHash": "0xbbee9c4e737e72a000cd3442da4e279b0fc6bd9f3d3262ec50c0853c00d41fa6",
      "blockNumber": 68574,
      "transactionIndex": 16,
      "confirmations": null,
      "from": "0x04F04B0f000d12107Bde142F3A3Cf2d519B1FEE0",
      "gasPrice": {
        "_hex": "0xba43b7400"
      },
      "gasLimit": {
        "_hex": "0x15f90"
      },
      "to": "0x793AE8C1b1a160BFc07BFB0d04F85eab1A71F4f2",
      "value": {
        "_hex": "0x0"
      },
      "nonce": 0,
      "data": "0x3ba15036",
      "r": "0xeb3bcd5ba83990db572ae39a8a23c8d6ff655e588cc48b02a74a3b2463ed5e68",
      "s": "0x7ea5faf82b04e9822c2111914882a3651eaba691754f61ddfae2d6f175588ad5",
      "v": 28,
      "creates": null,
      "raw": "0xf86980850ba43b740083015f9094793ae8c1b1a160bfc07bfb0d04f85eab1a71f4f280843ba150361ca0eb3bcd5ba83990db572ae39a8a23c8d6ff655e588cc48b02a74a3b2463ed5e68a07ea5faf82b04e9822c2111914882a3651eaba691754f61ddfae2d6f175588ad5",
      "networkId": 0,
      "chainId": 0
    },
    {
      "hash": "0xa08d31a2c8477bca23865d75a071695a13c5e855558a32da10f334de99d8d589",
      "blockHash": "0xbbee9c4e737e72a000cd3442da4e279b0fc6bd9f3d3262ec50c0853c00d41fa6",
      "blockNumber": 68574,
      "transactionIndex": 17,
      "confirmations": null,
      "from": "0x3061f9e8E5564EE320C6a619C28B02737ad36fdD",
      "gasPrice": {
        "_hex": "0xba43b7400"
      },
      "gasLimit": {
        "_hex": "0x15f90"
      },
      "to": "0x793AE8C1b1a160BFc07BFB0d04F85eab1A71F4f2",
      "value": {
        "_hex": "0x0"
      },
      "nonce": 0,
      "data": "0x3ba15036",
      "r": "0xe8836d26d8703ebc3570fe2e9ec3abbe142a50d2eafc39d74993ecac92630c76",
      "s": "0x217e928f0b17e4aa5e435343a62224cf8be42bfc17ee28bb86254301bbd99746",
      "v": 28,
      "creates": null,
      "raw": "0xf86980850ba43b740083015f9094793ae8c1b1a160bfc07bfb0d04f85eab1a71f4f280843ba150361ca0e8836d26d8703ebc3570fe2e9ec3abbe142a50d2eafc39d74993ecac92630c76a0217e928f0b17e4aa5e435343a62224cf8be42bfc17ee28bb86254301bbd99746",
      "networkId": 0,
      "chainId": 0
    },
    {
      "hash": "0xa705320dcf95b2553ade8906305df55ac3cfc3b2984baa86cd2f2fe1872a9e20",
      "blockHash": "0xbbee9c4e737e72a000cd3442da4e279b0fc6bd9f3d3262ec50c0853c00d41fa6",
      "blockNumber": 68574,
      "transactionIndex": 18,
      "confirmations": null,
      "from": "0x0C031A9bBaD5F8A488AE56B1a0a097cE1320aA00",
      "gasPrice": {
        "_hex": "0xba43b7400"
      },
      "gasLimit": {
        "_hex": "0x15f90"
      },
      "to": "0x793AE8C1b1a160BFc07BFB0d04F85eab1A71F4f2",
      "value": {
        "_hex": "0x0"
      },
      "nonce": 0,
      "data": "0x3ba15036",
      "r": "0x9ebcc2b118f0a2cc26a79753915ad851e53f89e94fa6d0785f71de1b630b282f",
      "s": "0x40a12bce2b985c620680e9106265ba5d499a989c76f30465330189cbdf08a64f",
      "v": 28,
      "creates": null,
      "raw": "0xf86980850ba43b740083015f9094793ae8c1b1a160bfc07bfb0d04f85eab1a71f4f280843ba150361ca09ebcc2b118f0a2cc26a79753915ad851e53f89e94fa6d0785f71de1b630b282fa040a12bce2b985c620680e9106265ba5d499a989c76f30465330189cbdf08a64f",
      "networkId": 0,
      "chainId": 0
    },
    {
      "hash": "0x8dc34e57843ce4b8c8f5097c2ccd4bf93fb3fcf8ffd3fb1cc71bc154ddd72ef7",
      "blockHash": "0xbbee9c4e737e72a000cd3442da4e279b0fc6bd9f3d3262ec50c0853c00d41fa6",
      "blockNumber": 68574,
      "transactionIndex": 19,
      "confirmations": null,
      "from": "0xd6d6266e3ADEd2BF2874df9780Cfe7cb1f268a30",
      "gasPrice": {
        "_hex": "0xba43b7400"
      },
      "gasLimit": {
        "_hex": "0x15f90"
      },
      "to": "0x793AE8C1b1a160BFc07BFB0d04F85eab1A71F4f2",
      "value": {
        "_hex": "0x0"
      },
      "nonce": 0,
      "data": "0x3ba15036",
      "r": "0x2adc750b20a3b4819e4c12f5828c88226f9cbc33c6391bcb13e740bdfe3f1a68",
      "s": "0x3f9c0fc56940f99ba48ece6bab21e4b9a259a77e90fb320875f929b739a67f63",
      "v": 28,
      "creates": null,
      "raw": "0xf86980850ba43b740083015f9094793ae8c1b1a160bfc07bfb0d04f85eab1a71f4f280843ba150361ca02adc750b20a3b4819e4c12f5828c88226f9cbc33c6391bcb13e740bdfe3f1a68a03f9c0fc56940f99ba48ece6bab21e4b9a259a77e90fb320875f929b739a67f63",
      "networkId": 0,
      "chainId": 0
    },
    {
      "hash": "0x3f06b1b34a095bbdd95d68b2d6485991eedf1998eca32a4edb892df88407ed14",
      "blockHash": "0xbbee9c4e737e72a000cd3442da4e279b0fc6bd9f3d3262ec50c0853c00d41fa6",
      "blockNumber": 68574,
      "transactionIndex": 20,
      "confirmations": null,
      "from": "0xed165CE1728510608A1F65591173Bf68BD597598",
      "gasPrice": {
        "_hex": "0xba43b7400"
      },
      "gasLimit": {
        "_hex": "0x15f90"
      },
      "to": "0x793AE8C1b1a160BFc07BFB0d04F85eab1A71F4f2",
      "value": {
        "_hex": "0x0"
      },
      "nonce": 0,
      "data": "0x3ba15036",
      "r": "0x34028f62c2d1f4fd52005fc4a365cc751497a9e7e1338d7637dcfd03fe6dc3c9",
      "s": "0x67fcd6910fe1a622d0de6970161e97aa15079cc54e988f280e8fdbb50f4bc19e",
      "v": 27,
      "creates": null,
      "raw": "0xf86980850ba43b740083015f9094793ae8c1b1a160bfc07bfb0d04f85eab1a71f4f280843ba150361ba034028f62c2d1f4fd52005fc4a365cc751497a9e7e1338d7637dcfd03fe6dc3c9a067fcd6910fe1a622d0de6970161e97aa15079cc54e988f280e8fdbb50f4bc19e",
      "networkId": 0,
      "chainId": 0
    },
    {
      "hash": "0xaef405c28dffa35b193166cc4e043472ce5157404973b6c63f08a6c54dfa4831",
      "blockHash": "0xbbee9c4e737e72a000cd3442da4e279b0fc6bd9f3d3262ec50c0853c00d41fa6",
      "blockNumber": 68574,
      "transactionIndex": 21,
      "confirmations": null,
      "from": "0xA5Ac8bd187F7d0e34f4ddDc2c70f6E7420f7318d",
      "gasPrice": {
        "_hex": "0xba43b7400"
      },
      "gasLimit": {
        "_hex": "0x15f90"
      },
      "to": "0x793AE8C1b1a160BFc07BFB0d04F85eab1A71F4f2",
      "value": {
        "_hex": "0x0"
      },
      "nonce": 0,
      "data": "0x3ba15036",
      "r": "0xd5ed97fd9c3f652e768909fc4c1174bf9c1e7b95a4e24bb316dc9afa14c22b9d",
      "s": "0x62ec2569a2e5020c0923ab96e8c56f3a71964b320f60abee9850c1ccaebbb509",
      "v": 27,
      "creates": null,
      "raw": "0xf86980850ba43b740083015f9094793ae8c1b1a160bfc07bfb0d04f85eab1a71f4f280843ba150361ba0d5ed97fd9c3f652e768909fc4c1174bf9c1e7b95a4e24bb316dc9afa14c22b9da062ec2569a2e5020c0923ab96e8c56f3a71964b320f60abee9850c1ccaebbb509",
      "networkId": 0,
      "chainId": 0
    },
    {
      "hash": "0xb8a6ce2070436c6aefd62fe515e12a7a897971765e7e8df41385da78900e49a6",
      "blockHash": "0xbbee9c4e737e72a000cd3442da4e279b0fc6bd9f3d3262ec50c0853c00d41fa6",
      "blockNumber": 68574,
      "transactionIndex": 22,
      "confirmations": null,
      "from": "0x14FE79e199A27B8eb9C5666BC6B6C7ea3c9AEf52",
      "gasPrice": {
        "_hex": "0xba43b7400"
      },
      "gasLimit": {
        "_hex": "0x15f90"
      },
      "to": "0x793AE8C1b1a160BFc07BFB0d04F85eab1A71F4f2",
      "value": {
        "_hex": "0x0"
      },
      "nonce": 0,
      "data": "0x3ba15036",
      "r": "0xd5e64d056991cf7517fd65226230a9d1c3e5f471b3ebdaa9521a231fabf2b79e",
      "s": "0x08d1acbcf16649f12d248b94ed286269b62695e536e80bee17caad3215bf6f70",
      "v": 27,
      "creates": null,
      "raw": "0xf86980850ba43b740083015f9094793ae8c1b1a160bfc07bfb0d04f85eab1a71f4f280843ba150361ba0d5e64d056991cf7517fd65226230a9d1c3e5f471b3ebdaa9521a231fabf2b79ea008d1acbcf16649f12d248b94ed286269b62695e536e80bee17caad3215bf6f70",
      "networkId": 0,
      "chainId": 0
    },
    {
      "hash": "0x9fbc5916c6609828b08fbc5dff0a8bdf7fb82adc7392341831eaeac928780d61",
      "blockHash": "0xbbee9c4e737e72a000cd3442da4e279b0fc6bd9f3d3262ec50c0853c00d41fa6",
      "blockNumber": 68574,
      "transactionIndex": 23,
      "confirmations": null,
      "from": "0x903F53d3304cE48eaf57e0A1699b66e9642A0b31",
      "gasPrice": {
        "_hex": "0xba43b7400"
      },
      "gasLimit": {
        "_hex": "0x15f90"
      },
      "to": "0x793AE8C1b1a160BFc07BFB0d04F85eab1A71F4f2",
      "value": {
        "_hex": "0x0"
      },
      "nonce": 0,
      "data": "0x3ba15036",
      "r": "0xcebe5c19fe8d9eb222b7e34a4c94a4f4a8a44ba59e352d77b942916d6f769ad4",
      "s": "0x77118ed8bf9e51c57e57e3374b96e4c1b9b7550bb31da9c699cc5c6256cd2ea4",
      "v": 28,
      "creates": null,
      "raw": "0xf86980850ba43b740083015f9094793ae8c1b1a160bfc07bfb0d04f85eab1a71f4f280843ba150361ca0cebe5c19fe8d9eb222b7e34a4c94a4f4a8a44ba59e352d77b942916d6f769ad4a077118ed8bf9e51c57e57e3374b96e4c1b9b7550bb31da9c699cc5c6256cd2ea4",
      "networkId": 0,
      "chainId": 0
    },
    {
      "hash": "0x7b835b626122356af236118a37e8e954067df0b7fa02d5e36c2fa88fa4de305e",
      "blockHash": "0xbbee9c4e737e72a000cd3442da4e279b0fc6bd9f3d3262ec50c0853c00d41fa6",
      "blockNumber": 68574,
      "transactionIndex": 24,
      "confirmations": null,
      "from": "0xFA4F525ccb8b486672ee5768cC75a41b9b159B74",
      "gasPrice": {
        "_hex": "0xba43b7400"
      },
      "gasLimit": {
        "_hex": "0x15f90"
      },
      "to": "0x793AE8C1b1a160BFc07BFB0d04F85eab1A71F4f2",
      "value": {
        "_hex": "0x0"
      },
      "nonce": 0,
      "data": "0x3ba15036",
      "r": "0xac516d42cdb37babd379eb364b32a946f6153eef0ca61934f42b424f8344d7e2",
      "s": "0x2290871be321ef80dd3070dc9b96454a14dfcac85d02a3d197ac9869edd6f015",
      "v": 28,
      "creates": null,
      "raw": "0xf86980850ba43b740083015f9094793ae8c1b1a160bfc07bfb0d04f85eab1a71f4f280843ba150361ca0ac516d42cdb37babd379eb364b32a946f6153eef0ca61934f42b424f8344d7e2a02290871be321ef80dd3070dc9b96454a14dfcac85d02a3d197ac9869edd6f015",
      "networkId": 0,
      "chainId": 0
    }
  ]
}