{
  "hash": "0xc414e2e5abd32a1c3dbc9b8e39d64b6b9b00d950020ba5f49fa2deedc5697272",
  "parentHash": "0x7b58a2aa56038bcc4536e358e580051562c2c91205e788a85d7ec2da818dce9c",
  "number": 102171,
  "timestamp": 1439833974,
  "nonce": "0x3faf42f7c8220741",
  "difficulty": 3906994884368,
  "gasLimit": {
    "_hex": "0x2fefd8"
  },
  "gasUsed": {
    "_hex": "0x261ce"
  },
  "miner": "0xe6A7a1d47ff21B6321162AEA7C6CB457D5476Bca",
  "extraData": "0x476574682f76312e302e312d38326566323666362f6c696e75782f676f312e34",
  "transactions": [
    {
      "hash": "0x9e010393e97e218fe20e114e3be968627a234799f8b79044d6067747acbe40b7",
      "blockHash": "0xc414e2e5abd32a1c3dbc9b8e39d64b6b9b00d950020ba5f49fa2deedc5697272",
      "blockNumber": 102171,
      "transactionIndex": 0,
      "confirmations": null,
      "from": "0x2910543Af39abA0Cd09dBb2D50200b3E800A63D2",
      "gasPrice": {
        "_hex": "0xdf6bf9803"
      },
      "gasLimit": {
        "_hex": "0x5208"
      },
      "to": "0x289B9bA6dC9c12D3130F1115180397C20cCBF220",
      "value": {
        "_hex": "0xe32ed331c4fb668000"
      },
      "nonce": 986,
      "data": "0x",
      "r": "0x3b7d0d3012464f81a525641398f8c1a59ef4d9862010f658cff7bf517b8b1eca",
      "s": "0x471401561775a7226b57ec5538d650bf9175cac0d4ef1242ec6804fd37005b05",
      "v": 28,
      "creates": null,
      "raw": "0xf86f8203da850df6bf980382520894289b9ba6dc9c12d3130f1115180397c20ccbf22089e32ed331c4fb668000801ca03b7d0d3012464f81a525641398f8c1a59ef4d9862010f658cff7bf517b8b1ecaa0471401561775a7226b57ec5538d650bf9175cac0d4ef1242ec6804fd37005b05",
      "networkId": 0,
      "chainId": 0
    },
    {
      "hash": "0xba4535ed7ebbaa26dc4a47cd6964efc0401259582bc27171c7f862ffd9685839",
      "blockHash": "0xc414e2e5abd32a1c3dbc9b8e39d64b6b9b00d950020ba5f49fa2deedc5697272",
      "blockNumber": 102171,
      "transactionIndex": 1,
      "confirmations": null,
      "from": "0xD43ee438D83dE9a37562Bb4E286Cb1bD19F4964D",
      "gasPrice": {
        "_hex": "0xd7d40ace3"
      },
      "gasLimit": {
        "_hex": "0x249f0"
      },
      "to": "0xE28e72FCf78647ADCe1F1252F240bbfaebD63BcC",
      "value": {
        "_hex": "0x56bc75e2d63100000"
      },
      "nonce": 0,
      "data": "0x45466f3a",
      "r": "0xeff0616babbf5281295381b59890369a8008a39158207a92d1bfb00e5d47ff78",
      "s": "0x34db2119a78fbf7de202f63974bd36158ea8d23a681d5609395e2f61e04f9868",
      "v": 28,
      "creates": null,
      "raw": "0xf87280850d7d40ace3830249f094e28e72fcf78647adce1f1252f240bbfaebd63bcc89056bc75e2d631000008445466f3a1ca0eff0616babbf5281295381b59890369a8008a39158207a92d1bfb00e5d47ff78a034db2119a78fbf7de202f63974bd36158ea8d23a681d5609395e2f61e04f9868",
      "networkId": 0,
      "chainId": 0
    },
    {
      "hash": "0x792e7f1f083ae3413e74affd7b914001ba1ab6ab6c0334f6389fc5002cfa2f52",
      "blockHash": "0xc414e2e5abd32a1c3dbc9b8e39d64b6b9b00d950020ba5f49fa2deedc5697272",
      "blockNumber": 102171,
      "transactionIndex": 2,
      "confirmations": null,
      "from": "0x32Be343B94f860124dC4fEe278FDCBD38C102D88",
      "gasPrice": {
        "_hex": "0xcbdea5a9e"
      },
      "gasLimit": {
        "_hex": "0x5208"
      },
      "to": "0x915E19e9d6874Ad050c3D4b88D4eA496dB0Ee7DB",
      "value": {
        "_hex": "0x50c5e761a444080000"
      },
      "nonce": 1099,
      "data": "0x",
      "r": "0x53e5c9f342e3ce3c4962d8cc1c67049a402a7a8d5f14cc229664758634df590f",
      "s": "0x7a2729d7ab490fd609587fd3ba2836a023474429623a5abf40d181a8e804966a",
      "v": 28,
      "creates": null,
      "raw": "0xf86f82044b850cbdea5a9e82520894915e19e9d6874ad050c3d4b88d4ea496db0ee7db8950c5e761a444080000801ca053e5c9f342e3ce3c4962d8cc1c67049a402a7a8d5f14cc229664758634df590fa07a2729d7ab490fd609587fd3ba2836a023474429623a5abf40d181a8e804966a",
      "networkId": 0,
      "chainId": 0
    }
  ]
}