{
  "hash": "0x64d45e88db3c9c8d62abf1a8db15411535769693598ce2a0ac2347184796ed0f",
  "parentHash": "0xe6c83b8230950a72e06fde46da1d68438c1a86b9f806b2953d433f494d2cf82a",
  "number": 69562,
  "timestamp": 1439305954,
  "nonce": "0xa718e6c346f5e828",
  "difficulty": 2082054135594,
  "gasLimit": {
    "_hex": "0x2fefd5"
  },
  "gasUsed": {
    "_hex": "0xa414"
  },
  "miner": "0x8B454d830feF179e66206840F8F3D1d83bC32b17",
  "extraData": "0x476574682f76312e302e312f77696e646f77732f676f312e342e32",
  "transactions": [
    {
      "hash": "0xa328208152dc07105134d00aba9e70a7b0fe666db551ec85afe3f51a7ae5d11f",
      "blockHash": "0x64d45e88db3c9c8d62abf1a8db15411535769693598ce2a0ac2347184796ed0f",
      "blockNumber": 69562,
      "transactionIndex": 0,
      "confirmations": null,
      "from": "0x4E567864EC2EFAd2a2186806b9aFeeF0cAF9a427",
      "gasPrice": {
        "_hex": "0xd7d40ace3"
      },
      "gasLimit": {
        "_hex": "0x55f0"
      },
      "to": "0x4E567864EC2EFAd2a2186806b9aFeeF0cAF9a427",
      "value": {
        "_hex": "0xde0b6b3a7640000"
      },
      "nonce": 2,
      "data": "0x00",
      "r": "0x290b463c12bf152b0f6cc6fe3c5c6531a67140b6be35b105a3121ea67e433fb2",
      "s": "0xf5bd5569e141c9359f7bf93e0d54a20e93b6122e22fe2a2310b82f91224a983a",
      "v": 28,
      "creates": null,
      "raw": "0xf86c02850d7d40ace38255f0944e567864ec2efad2a2186806b9afeef0caf9a427880de0b6b3a7640000001ca0290b463c12bf152b0f6cc6fe3c5c6531a67140b6be35b105a3121ea67e433fb2a0f5bd5569e141c9359f7bf93e0d54a20e93b6122e22fe2a2310b82f91224a983a",
      "networkId": 0,
      "chainId": 0
    },
    {
      "hash": "0x921aebf3768966479a74757993ebf1f2f9688a4097739f3ebd5d011e7651abd2",
      "blockHash": "0x64d45e88db3c9c8d62abf1a8db15411535769693598ce2a0ac2347184796ed0f",
      "blockNumber": 69562,
      "transactionIndex": 1,
      "confirmations": null,
      "from": "0x120A270bbC009644e35F0bB6ab13f95b8199c4ad",
      "gasPrice": {
        "_hex": "0xcdadd3ff6"
      },
      "gasLimit": {
        "_hex": "0x15f90"
      },
      "to": "0xf03f75Aa64b7f7Cd8A431b620353C0c493a95f47",
      "value": {
        "_hex": "0x6311299e7ac132000"
      },
      "nonce": 179,
      "data": "0x",
      "r": "0xad70a2e011f950ff374bfa8e30a186b4517af9cbe851e8507b73daa4881a7ac3",
      "s": "0x2ccafa66cb03b66aa817bb96285c89f3bfb43cf298b3387a0fada1379aa479dc",
      "v": 27,
      "creates": null,
      "raw": "0xf86f81b3850cdadd3ff683015f9094f03f75aa64b7f7cd8a431b620353c0c493a95f478906311299e7ac132000801ba0ad70a2e011f950ff374bfa8e30a186b4517af9cbe851e8507b73daa4881a7ac3a02ccafa66cb03b66aa817bb96285c89f3bfb43cf298b3387a0fada1379aa479dc",
      "networkId": 0,
      "chainId": 0
    }
  ]
}