{
  "hash": "0x405ef35a9d9e0d259c5ade886b7dcf7019c338d9a3b3a31f8f090780f3791b8f",
  "parentHash": "0x168bd88021d761f65bc1f35c24de3816319b96798160a0b42909a4fbbfefbecf",
  "number": 58178,
  "timestamp": 1439116365,
  "nonce": "0x21275d0984731839",
  "difficulty": 1718329606661,
  "gasLimit": {
    "_hex": "0x2fefd8"
  },
  "gasUsed": {
    "_hex": "0x546c"
  },
  "miner": "0x9746c7e1ef2bd21FF3997fa467593a89cb852BD0",
  "extraData": "0x476574682f76312e302e312f77696e646f77732f676f312e342e32",
  "transactions": [
    {
      "hash": "0x8fa0812f4a9d8a41fab84811786da5f7e06244cc08055e97507163df31872b3d",
      "blockHash": "0x405ef35a9d9e0d259c5ade886b7dcf7019c338d9a3b3a31f8f090780f3791b8f",
      "blockNumber": 58178,
      "transactionIndex": 0,
      "confirmations": null,
      "from": "0xd482e7F68E41F238Fe517829de15477Fe0f6dD1d",
      "gasPrice": {
        "_hex": "0x110c8f7d8de"
      },
      "gasLimit": {
        "_hex": "0xc350"
      },
      "to": "0x2910543Af39abA0Cd09dBb2D50200b3E800A63D2",
      "value": {
        "_hex": "0x15adba333d2eb60000"
      },
      "nonce": 1,
      "data": "0x454e59413257303030",
      "r": "0xdbcb2fac2104f15e08bced4aac097399efc1315c4e5d9abae58837916ac2552a",
      "s": "0xff3163790ee4b056acb976a027566c8a24b5bf42647adc5ba6a1f85ae2056cf4",
      "v": 27,
      "creates": null,
      "raw": "0xf87701860110c8f7d8de82c350942910543af39aba0cd09dbb2d50200b3e800a63d28915adba333d2eb6000089454e594132573030301ba0dbcb2fac2104f15e08bced4aac097399efc1315c4e5d9abae58837916ac2552aa0ff3163790ee4b056acb976a027566c8a24b5bf42647adc5ba6a1f85ae2056cf4",
      "networkId": 0,
      "chainId": 0
    }
  ]
}