{
  "hash": "0xafda89e46931442013ad5d58db77cce669e9255991e9aa04c426c77205f31a07",
  "parentHash": "0xeff92582752bbb857b698e43ff49a5a0907147d3ec090b076d722dd20c822bcb",
  "number": 102813,
  "timestamp": 1439843575,
  "nonce": "0x654a8f2a4236a90b",
  "difficulty": 4058355794503,
  "gasLimit": {
    "_hex": "0x2fefd8"
  },
  "gasUsed": {
    "_hex": "0x5208"
  },
  "miner": "0xe6A7a1d47ff21B6321162AEA7C6CB457D5476Bca",
  "extraData": "0x476574682f76312e302e312d38326566323666362f6c696e75782f676f312e34",
  "transactions": [
    {
      "hash": "0xf9f457a569fd534f6762ebb6f0aabb128298020bd4eaa94e78f7e650b1673e89",
      "blockHash": "0xafda89e46931442013ad5d58db77cce669e9255991e9aa04c426c77205f31a07",
      "blockNumber": 102813,
      "transactionIndex": 0,
      "confirmations": null,
      "from": "0xd2a25DC828b52BdC5f63b95d5B1D1Bb90d6D299B",
      "gasPrice": {
        "_hex": "0x11b8eee8d23"
      },
      "gasLimit": {
        "_hex": "0x15f90"
      },
      "to": "0xc3a54b95AEc42EBAEE1b351B4B89c1a0B9759Bb8",
      "value": {
        "_hex": "0xa"
      },
      "nonce": 0,
      "data": "0x",
      "r": "0x4b9a93b3a3e2371345474fc37b4807e38044a9e2f501a79fad18adf813415d69",
      "s": "0x13dd93d0cf8f20ad33d403f7becc32d99d45b383b65ec0f981c912a57b125822",
      "v": 28,
      "creates": null,
      "raw": "0xf8668086011b8eee8d2383015f9094c3a54b95aec42ebaee1b351b4b89c1a0b9759bb80a801ca04b9a93b3a3e2371345474fc37b4807e38044a9e2f501a79fad18adf813415d69a013dd93d0cf8f20ad33d403f7becc32d99d45b383b65ec0f981c912a57b125822",
      "networkId": 0,
      "chainId": 0
    }
  ]
}