{
  "hash": "0xb54a6f420937fe1ebb1bce9a115c2c37e29ef296cd80bd7152ceaac0faaaed4d",
  "parentHash": "0x2f857792659f7edcb55360024b3355bf05eb6673f26bd55abfe1c918eda0343d",
  "number": 102316,
  "timestamp": 1439836013,
  "nonce": "0x99cabc18741b8b36",
  "difficulty": 3939492875722,
  "gasLimit": {
    "_hex": "0x2fefd8"
  },
  "gasUsed": {
    "_hex": "0xa410"
  },
  "miner": "0xa50ec0D39fa913E62f1Bae7074E6F36caA71855b",
  "extraData": "0xd783010001844765746887676f312e342e32856c696e7578",
  "transactions": [
    {
      "hash": "0x26bd5342729b0dee0519e09bcd19fea17e571415e390f7bc548231946a2752a4",
      "blockHash": "0xb54a6f420937fe1ebb1bce9a115c2c37e29ef296cd80bd7152ceaac0faaaed4d",
      "blockNumber": 102316,
      "transactionIndex": 0,
      "confirmations": null,
      "from": "0x007f7f58D3eb5b7510A301eCC749FC1fCDDBE14D",
      "gasPrice": {
        "_hex": "0xe0cfe7246"
      },
      "gasLimit": {
        "_hex": "0x15f90"
      },
      "to": "0xb1abce2918E21ddb93AA452731a12672A3d9F75a",
      "value": {
        "_hex": "0x4563918244f40000"
      },
      "nonce": 208,
      "data": "0x",
      "r": "0xcd9ac982598b59485004effbea5e48c5e3cd937fee4a2a40572c448e56d943ac",
      "s": "0x49043890b5763058465dbfc2419c9f2297f62a1113dd9f8df616e7ae4b83797a",
      "v": 28,
      "creates": null,
      "raw": "0xf86e81d0850e0cfe724683015f9094b1abce2918e21ddb93aa452731a12672a3d9f75a884563918244f40000801ca0cd9ac982598b59485004effbea5e48c5e3cd937fee4a2a40572c448e56d943aca049043890b5763058465dbfc2419c9f2297f62a1113dd9f8df616e7ae4b83797a",
      "networkId": 0,
      "chainId": 0
    },
    {
      "hash": "0x938e65ceaa0abf694fbb2fdaf01437b5b4a8084ef7cdcf4e3f8617ee98cf52fe",
      "blockHash": "0xb54a6f420937fe1ebb1bce9a115c2c37e29ef296cd80bd7152ceaac0faaaed4d",
      "blockNumber": 102316,
      "transactionIndex": 1,
      "confirmations": null,
      "from": "0x0361540510aaC3F834967945511CE54871dc050D",
      "gasPrice": {
        "_hex": "0xbdfd63e00"
      },
      "gasLimit": {
        "_hex": "0x1820f0"
      },
      "to": "0x0082F373Cb94D694ABf51D4f27d20Ca7955Db377",
      "value": {
        "_hex": "0x6f05b59d3b200000"
      },
      "nonce": 2,
      "data": "0x",
      "r": "0x80b66e274ecd72a5c7269f5d3fe1012cb21884d83500646ea635f72e0902f040",
      "s": "0x5244f6e7a59f58f6f116bc9878a6f7c4974ba73288f0a7868a47a087a0b95e72",
      "v": 28,
      "creates": null,
      "raw": "0xf86d02850bdfd63e00831820f0940082f373cb94d694abf51d4f27d20ca7955db377886f05b59d3b200000801ca080b66e274ecd72a5c7269f5d3fe1012cb21884d83500646ea635f72e0902f040a05244f6e7a59f58f6f116bc9878a6f7c4974ba73288f0a7868a47a087a0b95e72",
      "networkId": 0,
      "chainId": 0
    }
  ]
}