{
  "hash": "0x4bc24bb489e361588b5323758c356d367a386cdb8191d0b93cda0f18ad73d792",
  "parentHash": "0xd5f3f977b1028ef42116f15ba21940af3477e76da5501a89a120f766dfc80563",
  "number": 91507,
  "timestamp": 1439656764,
  "nonce": "0x26bec26b147c2b4b",
  "difficulty": 3482772973804,
  "gasLimit": {
    "_hex": "0x2fefd8"
  },
  "gasUsed": {
    "_hex": "0x5208"
  },
  "miner": "0xe6A7a1d47ff21B6321162AEA7C6CB457D5476Bca",
  "extraData": "0x476574682f76312e302e312d38326566323666362f6c696e75782f676f312e34",
  "transactions": [
    {
      "hash": "0x234a0faa464f3c9871dd80ece0625a9bad42d66a85cc0bb8c481903641566c49",
      "blockHash": "0x4bc24bb489e361588b5323758c356d367a386cdb8191d0b93cda0f18ad73d792",
      "blockNumber": 91507,
      "transactionIndex": 0,
      "confirmations": null,
      "from": "0x34fDf2118f88a297b3750FAD5eEB307808d08378",
      "gasPrice": {
        "_hex": "0xd260fa5fd"
      },
      "gasLimit": {
        "_hex": "0x5208"
      },
      "to": "0x32Be343B94f860124dC4fEe278FDCBD38C102D88",
      "value": {
        "_hex": "0x363ee5ad835a3800"
      },
      "nonce": 2,
      "data": "0x",
      "r": "0x12b9f68feb894ecdd7702447677b0b23da4470a3817afbd08289db3efc4f41d1",
      "s": "0x2aff20217cc990105451e91a560ee14d05fb91f07f8b31e580c8ce444b06a857",
      "v": 27,
      "creates": null,
      "raw": "0xf86c02850d260fa5fd8252089432be343b94f860124dc4fee278fdcbd38c102d8888363ee5ad835a3800801ba012b9f68feb894ecdd7702447677b0b23da4470a3817afbd08289db3efc4f41d1a02aff20217cc990105451e91a560ee14d05fb91f07f8b31e580c8ce444b06a857",
      "networkId": 0,
      "chainId": 0
    }
  ]
}