{
  "hash": "0xe446d644b3188dcaa2258d3704fa0f6a3c0745f8623f2e688f882b4f7638870f",
  "parentHash": "0xf95de0ea99e2ba12bb1948e722269b0137ae8a3a79f2ed46d021549cd262c84c",
  "number": 84313,
  "timestamp": 1439547891,
  "nonce": "0x945d6a6e20030ef0",
  "difficulty": 2540294768091,
  "gasLimit": {
    "_hex": "0x2fefd8"
  },
  "gasUsed": {
    "_hex": "0xa410"
  },
  "miner": "0xEF247E639d49461D25F57e9362CadE3120910Ce0",
  "extraData": "0x476574682f76312e302e312f6c696e75782f676f312e342e32",
  "transactions": [
    {
      "hash": "0x26c0bf89ba83a2e46d6f92f74d77d4dd5feb246dff43d11134394e8f76169584",
      "blockHash": "0xe446d644b3188dcaa2258d3704fa0f6a3c0745f8623f2e688f882b4f7638870f",
      "blockNumber": 84313,
      "transactionIndex": 0,
      "confirmations": null,
      "from": "0x0D81FD2bB264D9Ee0F432599b443ae1B691f6134",
      "gasPrice": {
        "_hex": "0xd10f525b8"
      },
      "gasLimit": {
        "_hex": "0x5208"
      },
      "to": "0x32Be343B94f860124dC4fEe278FDCBD38C102D88",
      "value": {
        "_hex": "0xc3b7e72657b13000"
      },
      "nonce": 3,
      "data": "0x",
      "r": "0xbbbae5a8fc0fa5b0593238b934d6e8f3974ccfe9013cbacd26788c4a21996bbc",
      "s": "0x1807b6cd988fa0fe0e54f56d93c728e95b8fd217ac809cbe0364a4d4c7138dae",
      "v": 27,
      "creates": null,
      "raw": "0xf86c03850d10f525b88252089432be343b94f860124dc4fee278fdcbd38c102d8888c3b7e72657b13000801ba0bbbae5a8fc0fa5b0593238b934d6e8f3974ccfe9013cbacd26788c4a21996bbca01807b6cd988fa0fe0e54f56d93c728e95b8fd217ac809cbe0364a4d4c7138dae",
      "networkId": 0,
      "chainId": 0
    },
    {
      "hash": "0x5bf10d41f9d89e5fb2bb7dd216c3d0316029b3c9247402b8ccfb953e86a01435",
      "blockHash": "0xe446d644b3188dcaa2258d3704fa0f6a3c0745f8623f2e688f882b4f7638870f",
      "blockNumber": 84313,
      "transactionIndex": 1,
      "confirmations": null,
      "from": "0x7fDF07A0f977e4032C1f082Df831423abf58D13D",
      "gasPrice": {
        "_hex": "0xd10f525b8"
      },
      "gasLimit": {
        "_hex": "0x5208"
      },
      "to": "0x32Be343B94f860124dC4fEe278FDCBD38C102D88",
      "value": {
        "_hex": "0x3e0dce163f937000"
      },
      "nonce": 1,
      "data": "0x",
      "r": "0xe09c58e597a59354c124f4dacc4e8d628b715aedb2a85356c8baa5d8446f1c45",
      "s": "0x0a3b1198b5d43193541582d22faeae14f71ec1583180fc38c71e2649d3bf06b3",
      "v": 28,
      "creates": null,
      "raw": "0xf86c01850d10f525b88252089432be343b94f860124dc4fee278fdcbd38c102d88883e0dce163f937000801ca0e09c58e597a59354c124f4dacc4e8d628b715aedb2a85356c8baa5d8446f1c45a00a3b1198b5d43193541582d22faeae14f71ec1583180fc38c71e2649d3bf06b3",
      "networkId": 0,
      "chainId": 0
    }
  ]
}