{
  "hash": "0x3cd877e9da600aa4d2268ae31dce6b022c9da6845f9c689bee7b7486a454447d",
  "parentHash": "0x201ee9db2a402bd2e68b62f1d962ef7daf1ad8eee6a40a36d020a5537d25c35d",
  "number": 79643,
  "timestamp": 1439473074,
  "nonce": "0x14d7985f731dacc1",
  "difficulty": 2334682454218,
  "gasLimit": {
    "_hex": "0x2fefd8"
  },
  "gasUsed": {
    "_hex": "0x5208"
  },
  "miner": "0x7E6930B63D03e88F5928C5cd6ee3FCee4D714F7F",
  "extraData": "0x",
  "transactions": [
    {
      "hash": "0x3b0977fc9bd12fd6a7769bb6496f37ce6393581eeed6026bb7c6668c932b6d7b",
      "blockHash": "0x3cd877e9da600aa4d2268ae31dce6b022c9da6845f9c689bee7b7486a454447d",
      "blockNumber": 79643,
      "transactionIndex": 0,
      "confirmations": null,
      "from": "0xB5EDD17d2582A94610ebf0C6832c1652EBBBe210",
      "gasPrice": {
        "_hex": "0xd3bb21e20"
      },
      "gasLimit": {
        "_hex": "0x5208"
      },
      "to": "0x98077F47f89BEd877C8877Bf95753f6cE0CE4fcF",
      "value": {
        "_hex": "0x6e90069a28f0b0000"
      },
      "nonce": 3,
      "data": "0x",
      "r": "0x85caa312c0518dd7dbbf4aedc3cac4e182f3835bc45ed27454f11a87f3cd2dc6",
      "s": "0x0d31bc038a917b0f847b599a64daac84d24d65f4295277ea09f357fa81aea487",
      "v": 28,
      "creates": null,
      "raw": "0xf86d03850d3bb21e208252089498077f47f89bed877c8877bf95753f6ce0ce4fcf8906e90069a28f0b0000801ca085caa312c0518dd7dbbf4aedc3cac4e182f3835bc45ed27454f11a87f3cd2dc6a00d31bc038a917b0f847b599a64daac84d24d65f4295277ea09f357fa81aea487",
      "networkId": 0,
      "chainId": 0
    }
  ]
}