{
  "hash": "0x3680b0f8d3fda991faafaa03601d32af1107a59ad81a2b3c0446fe1443701cc1",
  "parentHash": "0x5f0f2e730ed71ce4f46fae230d3cdd8fd78ef3437b452f4085b957a9f4d3edc7",
  "number": 100812,
  "timestamp": 1439812735,
  "nonce": "0x89f8d770cec4a0e1",
  "difficulty": 3845167748264,
  "gasLimit": {
    "_hex": "0x2fefd8"
  },
  "gasUsed": {
    "_hex": "0x546c"
  },
  "miner": "0xf927a40C8B7F6E07c5af7FA2155B4864a4112B13",
  "extraData": "0x",
  "transactions": [
    {
      "hash": "0x6162c17508516741e4988303486184d1505313bc7cf942405ad899cdd59e0c58",
      "blockHash": "0x3680b0f8d3fda991faafaa03601d32af1107a59ad81a2b3c0446fe1443701cc1",
      "blockNumber": 100812,
      "transactionIndex": 0,
      "confirmations": null,
      "from": "0xe22B20c77894463Baf774CC256D5bDDbbF7DDd09",
      "gasPrice": {
        "_hex": "0xd7aa5f4da"
      },
      "gasLimit": {
        "_hex": "0x9c40"
      },
      "to": "0x2910543Af39abA0Cd09dBb2D50200b3E800A63D2",
      "value": {
        "_hex": "0x349550bdc5d1270000"
      },
      "nonce": 6,
      "data": "0x454e34433248304a30",
      "r": "0xe4d16dd245777f9c98a0524e45fb832517207a4624620f8a61d52a6dd600ac67",
      "s": "0x0ee9ddd080c852b74f7c0baf5db22023f822141bf0e93b5eddb8dc469cf2efde",
      "v": 28,
      "creates": null,
      "raw": "0xf87606850d7aa5f4da829c40942910543af39aba0cd09dbb2d50200b3e800a63d289349550bdc5d127000089454e34433248304a301ca0e4d16dd245777f9c98a0524e45fb832517207a4624620f8a61d52a6dd600ac67a00ee9ddd080c852b74f7c0baf5db22023f822141bf0e93b5eddb8dc469cf2efde",
      "networkId": 0,
      "chainId": 0
    }
  ]
}