{
  "hash": "0x2be6dacaec5095797ae62a145f897e8e7f43c53711b3ba592a51fb8d04f39669",
  "parentHash": "0xa039ebe61e33dec99eab8210bf0c08012cf7d0a8004ca0207cc6608e162fdba6",
  "number": 103110,
  "timestamp": 1439847778,
  "nonce": "0x62b730a12ba755f7",
  "difficulty": 4189078550776,
  "gasLimit": {
    "_hex": "0x2fefd8"
  },
  "gasUsed": {
    "_hex": "0x5208"
  },
  "miner": "0x580992B51e3925e23280EfB93d3047C82f17E038",
  "extraData": "0x476574682f76312e302e312f6c696e75782f676f312e342e32",
  "transactions": [
    {
      "hash": "0x83186970fe24c408704b48249fc681bc3d4218775765c8916c859400ee47fbc1",
      "blockHash": "0x2be6dacaec5095797ae62a145f897e8e7f43c53711b3ba592a51fb8d04f39669",
      "blockNumber": 103110,
      "transactionIndex": 0,
      "confirmations": null,
      "from": "0xEF247E639d49461D25F57e9362CadE3120910Ce0",
      "gasPrice": {
        "_hex": "0xd4a4f25a4"
      },
      "gasLimit": {
        "_hex": "0x15f90"
      },
      "to": "0xF87481A262E993a75F791E7859E71BaC36A606Eb",
      "value": {
        "_hex": "0x6fe3c108759640000"
      },
      "nonce": 37,
      "data": "0x",
      "r": "0x4c76970a6df8026c881891a5cfe7a666960862bd4bb8b88d2c4123ba43a22246",
      "s": "0x6a8eb56e7fb4ccf55bf4794637e299553e6ca37da7c007f121ab1d83c714f80a",
      "v": 27,
      "creates": null,
      "raw": "0xf86e25850d4a4f25a483015f9094f87481a262e993a75f791e7859e71bac36a606eb8906fe3c108759640000801ba04c76970a6df8026c881891a5cfe7a666960862bd4bb8b88d2c4123ba43a22246a06a8eb56e7fb4ccf55bf4794637e299553e6ca37da7c007f121ab1d83c714f80a",
      "networkId": 0,
      "chainId": 0
    }
  ]
}