{
  "hash": "0xdda16d16e0bb7b7cb22288f21f80d78c1fb9e8087b9a3d1c996157bd7cdd1f19",
  "parentHash": "0x092ea118e49d334ad24edbbf002c40f53f981af9c5d724671025a526f53dfef0",
  "number": 53071,
  "timestamp": 1439032039,
  "nonce": "0x3315a1ebbd928e74",
  "difficulty": 1573940816677,
  "gasLimit": {
    "_hex": "0x1f04da"
  },
  "gasUsed": {
    "_hex": "0x5208"
  },
  "miner": "0xf8E0CA3Ed80bd541b94BEdCf259e8CF2141A9523",
  "extraData": "0x476574682f76312e302e312f77696e646f77732f676f312e342e32",
  "transactions": [
    {
      "hash": "0xc918be78c29d348e520668f98bcfdd021949212cf4ffb53bffc57a60f6ed8de1",
      "blockHash": "0xdda16d16e0bb7b7cb22288f21f80d78c1fb9e8087b9a3d1c996157bd7cdd1f19",
      "blockNumber": 53071,
      "transactionIndex": 0,
      "confirmations": null,
      "from": "0x0fFecdF99016b9C74f1088c858B0A6b71992A471",
      "gasPrice": {
        "_hex": "0xd4bbdfda0"
      },
      "gasLimit": {
        "_hex": "0x5208"
      },
      "to": "0x32Be343B94f860124dC4fEe278FDCBD38C102D88",
      "value": {
        "_hex": "0x8ac2e057b3d86000"
      },
      "nonce": 1,
      "data": "0x",
      "r": "0x6759d6fb0a326e77ed26d8aea1f4c779e2939bb9f6e5f7bfd7f7c94a1985b23a",
      "s": "0x6d73fab878105519bd9ae8d0f87532c024d2cc128707c3321efd893849005377",
      "v": 28,
      "creates": null,
      "raw": "0xf86c01850d4bbdfda08252089432be343b94f860124dc4fee278fdcbd38c102d88888ac2e057b3d86000801ca06759d6fb0a326e77ed26d8aea1f4c779e2939bb9f6e5f7bfd7f7c94a1985b23aa06d73fab878105519bd9ae8d0f87532c024d2cc128707c3321efd893849005377",
      "networkId": 0,
      "chainId": 0
    }
  ]
}