{
  "hash": "0x9b4c9f88ab2ce4a49fc85c3b9d0fa94c97a858fad15c4b2570b73f49dc7d4e59",
  "parentHash": "0x9cd39ae246892e1eeafe1c2c521ceea67824430f5ef6c6564da9720ed48b017f",
  "number": 68380,
  "timestamp": 1439286879,
  "nonce": "0xc14b09ebd98dba11",
  "difficulty": 2018280425782,
  "gasLimit": {
    "_hex": "0x2fefd8"
  },
  "gasUsed": {
    "_hex": "0x5208"
  },
  "miner": "0xe6A7a1d47ff21B6321162AEA7C6CB457D5476Bca",
  "extraData": "0x476574682f76312e302e312d38326566323666362f6c696e75782f676f312e34",
  "transactions": [
    {
      "hash": "0xabe080e8427468a5c00abc9cdf170d62520500cf22ecbdf0de21e223dfa74e93",
      "blockHash": "0x9b4c9f88ab2ce4a49fc85c3b9d0fa94c97a858fad15c4b2570b73f49dc7d4e59",
      "blockNumber": 68380,
      "transactionIndex": 0,
      "confirmations": null,
      "from": "0x6747f922385c9a6F9cfDf095F34345257DD597bE",
      "gasPrice": {
        "_hex": "0xba43b7400"
      },
      "gasLimit": {
        "_hex": "0x5208"
      },
      "to": "0x84d574903025b03Ecad8FB7b330aE4Bf3A1817C5",
      "value": {
        "_hex": "0x1fcbfa42bd6000"
      },
      "nonce": 70,
      "data": "0x",
      "r": "0x633ab80ca5c9f730631278f7eca85f16cc029699d1f37475052a779138784ca4",
      "s": "0x688477c39361f5fc64fd8e020ebbd15a4d2f4bf520b4fb7cba20c40701a607d8",
      "v": 27,
      "creates": null,
      "raw": "0xf86b46850ba43b74008252089484d574903025b03ecad8fb7b330ae4bf3a1817c5871fcbfa42bd6000801ba0633ab80ca5c9f730631278f7eca85f16cc029699d1f37475052a779138784ca4a0688477c39361f5fc64fd8e020ebbd15a4d2f4bf520b4fb7cba20c40701a607d8",
      "networkId": 0,
      "chainId": 0
    }
  ]
}