{
  "hash": "0x1267cd238da21c8c207169a54e78c8821589a7dec5c7173fb96d4b3e720252fb",
  "parentHash": "0xf0d82302b0ebe9ee8196e0365e298747e3cbb8097b30bb049af406b756cc4cdd",
  "number": 68547,
  "timestamp": 1439289865,
  "nonce": "0x3210fca86f0d8b13",
  "difficulty": 2007429147626,
  "gasLimit": {
    "_hex": "0x2fefd8"
  },
  "gasUsed": {
    "_hex": "0x14820"
  },
  "miner": "0x580992B51e3925e23280EfB93d3047C82f17E038",
  "extraData": "0x476574682f76312e302e312f6c696e75782f676f312e342e32",
  "transactions": [
    {
      "hash": "0xae9cf8c6891d9d6dc99e004830d75e2f082c4d5bdd61da8b0c5e779db11c1dd7",
      "blockHash": "0x1267cd238da21c8c207169a54e78c8821589a7dec5c7173fb96d4b3e720252fb",
      "blockNumber": 68547,
      "transactionIndex": 0,
      "confirmations": null,
      "from": "0xC27AAA15c99104570F2768e38e0a23e426865D97",
      "gasPrice": {
        "_hex": "0xba43b7400"
      },
      "gasLimit": {
        "_hex": "0x5208"
      },
      "to": "0xBAa43Ab4C3af60C3a5023D29f8F9C06453179c58",
      "value": {
        "_hex": "0x653580cf6eb000"
      },
      "nonce": 1,
      "data": "0x",
      "r": "0xc2fca180cbd2c834ba90ef2f3637a8c9c1ee4f24ca2e54300ab41f324e5cfe4e",
      "s": "0x48fc7b617baaf36e98cc3f182fdff01a8a2cc2fa52830825b39ddadc0b10f801",
      "v": 28,
      "creates": null,
      "raw": "0xf86b01850ba43b740082520894baa43ab4c3af60c3a5023d29f8f9c06453179c5887653580cf6eb000801ca0c2fca180cbd2c834ba90ef2f3637a8c9c1ee4f24ca2e54300ab41f324e5cfe4ea048fc7b617baaf36e98cc3f182fdff01a8a2cc2fa52830825b39ddadc0b10f801",
      "networkId": 0,
      "chainId": 0
    },
    {
      "hash": "0xd8a997ba79eb2b7911678454d56d62a12373fa69ca2df34b1dcdf903a7deef49",
      "blockHash": "0x1267cd238da21c8c207169a54e78c8821589a7dec5c7173fb96d4b3e720252fb",
      "blockNumber": 68547,
      "transactionIndex": 1,
      "confirmations": null,
      "from": "0xA71FEfB391fb604f449280a446F95CB05FA63028",
      "gasPrice": {
        "_hex": "0xba43b7400"
      },
      "gasLimit": {
        "_hex": "0x5208"
      },
      "to": "0x2115144F44869D7EB9e4cf506056211D82aA9e48",
      "value": {
        "_hex": "0x653580cf6eb000"
      },
      "nonce": 1,
      "data": "0x",
      "r": "0x4e9defe0be060dcefe82f4aca94302b11890414b5d9d8caad93fa5675b3d78c5",
      "s": "0x4a8f2aba45dcfbb8ad9f2c01e18ab26f250cd360a996438fd0bbd2336836ab32",
      "v": 28,
      "creates": null,
      "raw": "0xf86b01850ba43b7400825208942115144f44869d7eb9e4cf506056211d82aa9e4887653580cf6eb000801ca04e9defe0be060dcefe82f4aca94302b11890414b5d9d8caad93fa5675b3d78c5a04a8f2aba45dcfbb8ad9f2c01e18ab26f250cd360a996438fd0bbd2336836ab32",
      "networkId": 0,
      "chainId": 0
    },
    {
      "hash": "0x7b0c531bd2db0db9dd4b689c659e82ded7e3479e9ceb5d49601aa87641c2056e",
      "blockHash": "0x1267cd238da21c8c207169a54e78c8821589a7dec5c7173fb96d4b3e720252fb",
      "blockNumber": 68547,
      "transactionIndex": 2,
      "confirmations": null,
      "from": "0x35F4557d5FD8344f7Cb4E15B5b6Ad573D016Eb6c",
      "gasPrice": {
        "_hex": "0xba43b7400"
      },
      "gasLimit": {
        "_hex": "0x5208"
      },
      "to": "0xCab28A8b659cAC6F88515900353Ead062f6d1eE0",
      "value": {
        "_hex": "0x653580cf6eb000"
      },
      "nonce": 1,
      "data": "0x",
      "r": "0xafffa49388b6fdf49854ba418e5b19cd0eccdf64605ee4af945fe443baafed28",
      "s": "0x57d26c06a9f3863d34b205778ce8210a3361aa9bfba205fd3877a90af0ee74bf",
      "v": 27,
      "creates": null,
      "raw": "0xf86b01850ba43b740082520894cab28a8b659cac6f88515900353ead062f6d1ee087653580cf6eb000801ba0afffa49388b6fdf49854ba418e5b19cd0eccdf64605ee4af945fe443baafed28a057d26c06a9f3863d34b205778ce8210a3361aa9bfba205fd3877a90af0ee74bf",
      "networkId": 0,
      "chainId": 0
    },
    {
      "hash": "0xe68fb811ab63edcfc6739c5ad644c8a2ff50266980816832f03783f83f03e0d5",
      "blockHash": "0x1267cd238da21c8c207169a54e78c8821589a7dec5c7173fb96d4b3e720252fb",
      "blockNumber": 68547,
      "transactionIndex": 3,
      "confirmations": null,
      "from": "0x02856fD084e22a97B620d39a501bc27524521663",
      "gasPrice": {
        "_hex": "0xba43b7400"
      },
      "gasLimit": {
        "_hex": "0x5208"
      },
      "to": "0xb74fb78eeBD1467803f297B380dfF8da7b213F60",
      "value": {
        "_hex": "0x653580cf6eb000"
      },
      "nonce": 1,
      "data": "0x",
      "r": "0x2feb73ea07bd21777a32cb06cec9078d56c2d581771d6099cc53b330c11ad2a8",
      "s": "0x0b5ddaf83b71d6fd331188b1c7ae42f00cf96dffeb7b020794c414bd3e86fe47",
      "v": 27,
      "creates": null,
      "raw": "0xf86b01850ba43b740082520894b74fb78eebd1467803f297b380dff8da7b213f6087653580cf6eb000801ba02feb73ea07bd21777a32cb06cec9078d56c2d581771d6099cc53b330c11ad2a8a00b5ddaf83b71d6fd331188b1c7ae42f00cf96dffeb7b020794c414bd3e86fe47",
      "networkId": 0,
      "chainId": 0
    }
  ]
}