{
  "hash": "0xbfda1d98c153d1e52dccc399f8416d7b632bef876a54cc551bbf9c6a887363dc",
  "parentHash": "0xadaa0a4465677f6637d8dd2c56c0d3f4042b23aed598c06337057b2321f1a2db",
  "number": 106039,
  "timestamp": 1439897584,
  "nonce": "0xeb23590f635c6d77",
  "difficulty": 4477326773425,
  "gasLimit": {
    "_hex": "0x2fefd8"
  },
  "gasUsed": {
    "_hex": "0x5208"
  },
  "miner": "0x900deD2eC098c430caD5347E6F3322932D7BB3a9",
  "extraData": "0x476574682f76312e302e312f77696e646f77732f676f312e342e32",
  "transactions": [
    {
      "hash": "0x69921e8bf44cad26e865801c261440ee9475978cbe6bf54d93eebca5b27af863",
      "blockHash": "0xbfda1d98c153d1e52dccc399f8416d7b632bef876a54cc551bbf9c6a887363dc",
      "blockNumber": 106039,
      "transactionIndex": 0,
      "confirmations": null,
      "from": "0x32Be343B94f860124dC4fEe278FDCBD38C102D88",
      "gasPrice": {
        "_hex": "0xcbf5a4be9"
      },
      "gasLimit": {
        "_hex": "0x5208"
      },
      "to": "0x0a0a0a169A784a9B524d0d40f03552053B360F21",
      "value": {
        "_hex": "0x5801322a6db590000"
      },
      "nonce": 1182,
      "data": "0x",
      "r": "0x73f65c0199d8b6623ca5e8f39857d66c290cdd311d09d7426ba5b9f84c397441",
      "s": "0x69fd56cbef85b51787cfebb357cee7a661a39ced8184ec14611eb01afafb17b1",
      "v": 27,
      "creates": null,
      "raw": "0xf86f82049e850cbf5a4be9825208940a0a0a169a784a9b524d0d40f03552053b360f218905801322a6db590000801ba073f65c0199d8b6623ca5e8f39857d66c290cdd311d09d7426ba5b9f84c397441a069fd56cbef85b51787cfebb357cee7a661a39ced8184ec14611eb01afafb17b1",
      "networkId": 0,
      "chainId": 0
    }
  ]
}