{
  "hash": "0x33be5ebef09c87c20393381be5343e11246762646806464c0fe5ffa86eb1ccd5",
  "parentHash": "0x949676c0220e57dbde8017e4ed0cc5b8f5dc6d259609e0fdd6f810d776e8f2d5",
  "number": 115365,
  "timestamp": 1440055947,
  "nonce": "0xb008418f49d10da2",
  "difficulty": 4551662479784,
  "gasLimit": {
    "_hex": "0x2fefd8"
  },
  "gasUsed": {
    "_hex": "0x5208"
  },
  "miner": "0xe6A7a1d47ff21B6321162AEA7C6CB457D5476Bca",
  "extraData": "0x476574682f76312e302e312d38326566323666362f6c696e75782f676f312e34",
  "transactions": [
    {
      "hash": "0x606560ee9029812d5c5ccbccb0dea38244c6de832d2ec870e62d6422286747b2",
      "blockHash": "0x33be5ebef09c87c20393381be5343e11246762646806464c0fe5ffa86eb1ccd5",
      "blockNumber": 115365,
      "transactionIndex": 0,
      "confirmations": null,
      "from": "0x211D45933Ef88c3D7aD0120942CF50ab506e618F",
      "gasPrice": {
        "_hex": "0xdf3db098b"
      },
      "gasLimit": {
        "_hex": "0x5208"
      },
      "to": "0x32Be343B94f860124dC4fEe278FDCBD38C102D88",
      "value": {
        "_hex": "0x4279593da61c9000"
      },
      "nonce": 12,
      "data": "0x",
      "r": "0xe2a277281693c779c3ec40c57cdabb66ab46b65f190530036f93f290bcb3837d",
      "s": "0x3f07b23e2bfa31e60e9dfe3dd99e417cec2e29fa51efbc6f9c5a3f4538bb16b3",
      "v": 28,
      "creates": null,
      "raw": "0xf86c0c850df3db098b8252089432be343b94f860124dc4fee278fdcbd38c102d88884279593da61c9000801ca0e2a277281693c779c3ec40c57cdabb66ab46b65f190530036f93f290bcb3837da03f07b23e2bfa31e60e9dfe3dd99e417cec2e29fa51efbc6f9c5a3f4538bb16b3",
      "networkId": 0,
      "chainId": 0
    }
  ]
}