{
  "hash": "0xb8a7d139b04806609e3c2011d5022555e30f50834e2478947d826e75c7673586",
  "parentHash": "0xf9c7ef6990aa3ca8c9e895411187155e688a6477e1e9c1b5edc501ecfa2bbc9a",
  "number": 70394,
  "timestamp": 1439319174,
  "nonce": "0xc3938dbf4684ed25",
  "difficulty": 2143741499679,
  "gasLimit": {
    "_hex": "0x2fefd8"
  },
  "gasUsed": {
    "_hex": "0x5208"
  },
  "miner": "0xf8E0CA3Ed80bd541b94BEdCf259e8CF2141A9523",
  "extraData": "0x476574682f76312e302e312f77696e646f77732f676f312e342e32",
  "transactions": [
    {
      "hash": "0x5d8c7f408b1e8dadc733020bb292e0a0b114be100cef712dac6bf84aeb38cd98",
      "blockHash": "0xb8a7d139b04806609e3c2011d5022555e30f50834e2478947d826e75c7673586",
      "blockNumber": 70394,
      "transactionIndex": 0,
      "confirmations": null,
      "from": "0x6dC8a46AB80ED97E4073b96F78554A536E2e7152",
      "gasPrice": {
        "_hex": "0x746a528800"
      },
      "gasLimit": {
        "_hex": "0x5b04"
      },
      "to": "0x4aa1e987Ec64AF9Dc59C9e20396D2d11Fc71685A",
      "value": {
        "_hex": "0xebec21ee1da40000"
      },
      "nonce": 0,
      "data": "0x",
      "r": "0xa5d415c2c975f43bc3a1ba5b622da3ab6bd3390fc51276103438d7e49227ca64",
      "s": "0x948fc6a8b70bebbb9cd8a1a9b4ea174835623c15b980747e4a3a694051fd48c9",
      "v": 28,
      "creates": null,
      "raw": "0xf86c8085746a528800825b04944aa1e987ec64af9dc59c9e20396d2d11fc71685a88ebec21ee1da40000801ca0a5d415c2c975f43bc3a1ba5b622da3ab6bd3390fc51276103438d7e49227ca64a0948fc6a8b70bebbb9cd8a1a9b4ea174835623c15b980747e4a3a694051fd48c9",
      "networkId": 0,
      "chainId": 0
    }
  ]
}