{
  "hash": "0x0fd348601e5a4acbb6f5e8dda17d4a3526376dedb0303f6f466ef59b0011b9f7",
  "parentHash": "0x60acda0484c74c692d7008cc9d86ac0eb1ca21e82b317046716f13f31a7d74e7",
  "number": 98849,
  "timestamp": 1439779933,
  "nonce": "0x1429dd854d057f27",
  "difficulty": 3863006510765,
  "gasLimit": {
    "_hex": "0x2fefd8"
  },
  "gasUsed": {
    "_hex": "0x5208"
  },
  "miner": "0xEF247E639d49461D25F57e9362CadE3120910Ce0",
  "extraData": "0x476574682f76312e302e312f6c696e75782f676f312e342e32",
  "transactions": [
    {
      "hash": "0x1144f057e082c5671505b47c0a8dd8b9e5fac8efee1181683078310e71e6ef58",
      "blockHash": "0x0fd348601e5a4acbb6f5e8dda17d4a3526376dedb0303f6f466ef59b0011b9f7",
      "blockNumber": 98849,
      "transactionIndex": 0,
      "confirmations": null,
      "from": "0x120A270bbC009644e35F0bB6ab13f95b8199c4ad",
      "gasPrice": {
        "_hex": "0xcbf921657"
      },
      "gasLimit": {
        "_hex": "0x15f90"
      },
      "to": "0x80E03eAb4185068f85f9eC2a65c31bdE6Ed0A097",
      "value": {
        "_hex": "0x332ca1b67940c0000"
      },
      "nonce": 663,
      "data": "0x",
      "r": "0x0fd9b8277b530c98aa1490d190f27d5594d401e3983a6593a884df8fd93def54",
      "s": "0x46243666473a47c7983bed224ad7382019d2e04dd86105d14d21210b42935f9f",
      "v": 27,
      "creates": null,
      "raw": "0xf870820297850cbf92165783015f909480e03eab4185068f85f9ec2a65c31bde6ed0a097890332ca1b67940c0000801ba00fd9b8277b530c98aa1490d190f27d5594d401e3983a6593a884df8fd93def54a046243666473a47c7983bed224ad7382019d2e04dd86105d14d21210b42935f9f",
      "networkId": 0,
      "chainId": 0
    }
  ]
}