{
  "hash": "0xa67fc102f6aec8f645a677cf014491be09cf6f8613e6ab152b156128b8153477",
  "parentHash": "0x1a5f07e0a3a16fb0f159e5a6459e27480820ad1d823ee39ddefac2970572cc37",
  "number": 46482,
  "timestamp": 1438923894,
  "nonce": "0xb4403e5c75c694c8",
  "difficulty": 1467510212741,
  "gasLimit": {
    "_hex": "0x63de"
  },
  "gasUsed": {
    "_hex": "0x5208"
  },
  "miner": "0xab84940B570d6358ed6A9Dbf7e0bc8Ec8F5A6E89",
  "extraData": "0x322831652933",
  "transactions": [
    {
      "hash": "0x0f96f5a17908d767fb9526d68c127c84b8f6cf1e15af53cf534d9e77d4f9e54a",
      "blockHash": "0xa67fc102f6aec8f645a677cf014491be09cf6f8613e6ab152b156128b8153477",
      "blockNumber": 46482,
      "transactionIndex": 0,
      "confirmations": null,
      "from": "0xcd39cBcF71Ff4e9592F94db59db4ff45e34b174f",
      "gasPrice": {
        "_hex": "0x746a528800"
      },
      "gasLimit": {
        "_hex": "0x5208"
      },
      "to": "0x8178414Ff0aba7fD5bC60A72cB17e213b371F35C",
      "value": {
        "_hex": "0x2386f26fc10000"
      },
      "nonce": 1,
      "data": "0x",
      "r": "0x7f2620b1966b0f7dac70fca747eaa239b9733e660aedd239ab95f2e9e85fc5aa",
      "s": "0x3dbcae0acff9e53a9c08ec2ec26b7fd282fdb486b059d613fbec98dbdc538118",
      "v": 28,
      "creates": null,
      "raw": "0xf86b0185746a528800825208948178414ff0aba7fd5bc60a72cb17e213b371f35c872386f26fc10000801ca07f2620b1966b0f7dac70fca747eaa239b9733e660aedd239ab95f2e9e85fc5aaa03dbcae0acff9e53a9c08ec2ec26b7fd282fdb486b059d613fbec98dbdc538118",
      "networkId": 0,
      "chainId": 0
    }
  ]
}