{
  "hash": "0xb3dd3c2d1fb48ebae7f229f6d409762a8dc7fa8bc7915e178601c7b2ceaa99cd",
  "parentHash": "0x418a07927200a1d1f62a81f67a8b4d7f43481de697d75e316f4f59dd3316eee2",
  "number": 84353,
  "timestamp": 1439548554,
  "nonce": "0x273ed36e2874bc41",
  "difficulty": 2537803120980,
  "gasLimit": {
    "_hex": "0x2fefd8"
  },
  "gasUsed": {
    "_hex": "0x5208"
  },
  "miner": "0x6DE55b563cE6E319cCB403032Da3BE5Ad4ec4FcF",
  "extraData": "0x",
  "transactions": [
    {
      "hash": "0x62217588c020f640d81e10197b8d4da1491f483f2c3a1388cfe4be31ff30ffd6",
      "blockHash": "0xb3dd3c2d1fb48ebae7f229f6d409762a8dc7fa8bc7915e178601c7b2ceaa99cd",
      "blockNumber": 84353,
      "transactionIndex": 0,
      "confirmations": null,
      "from": "0x87898CE53471043FcCa0a2aF4E1dC6d8B3fCf607",
      "gasPrice": {
        "_hex": "0xdcb098b16"
      },
      "gasLimit": {
        "_hex": "0x5208"
      },
      "to": "0xBFdD9820a04283b289957956353b5F3C1F665EcF",
      "value": {
        "_hex": "0x14d1120d7b1600000"
      },
      "nonce": 33,
      "data": "0x",
      "r": "0x31092efe142f351e46d9c3c5351fd1c5c00b43c08f4e82761be8cf0ce7e5670e",
      "s": "0x1ec5f17fcf31b7dfa196ef6676d726b4ed71a7e3506a9ff995ebde0a4a7f3833",
      "v": 28,
      "creates": null,
      "raw": "0xf86d21850dcb098b1682520894bfdd9820a04283b289957956353b5f3c1f665ecf89014d1120d7b1600000801ca031092efe142f351e46d9c3c5351fd1c5c00b43c08f4e82761be8cf0ce7e5670ea01ec5f17fcf31b7dfa196ef6676d726b4ed71a7e3506a9ff995ebde0a4a7f3833",
      "networkId": 0,
      "chainId": 0
    }
  ]
}