{
  "hash": "0xc481bfeaddb09d34da77a598ae8af7727f33051a706df3daf832151b657df26b",
  "parentHash": "0x64584d52e0a04e8b8cc4d3a59bf9ced0088fed71281c533f35c9271d4cf262bc",
  "number": 54306,
  "timestamp": 1439052026,
  "nonce": "0xd26a818d2b26f3af",
  "difficulty": 1605531505825,
  "gasLimit": {
    "_hex": "0x2fefd8"
  },
  "gasUsed": {
    "_hex": "0x15f90"
  },
  "miner": "0x824993e2412D68DFA4C1c4917BB7782Ee2648A4D",
  "extraData": "0x",
  "transactions": [
    {
      "hash": "0xd5c382e1ca1d47e5c773d5c0a68f1dcc39e02bfe3f9bc77d32112567fcf550e2",
      "blockHash": "0xc481bfeaddb09d34da77a598ae8af7727f33051a706df3daf832151b657df26b",
      "blockNumber": 54306,
      "transactionIndex": 0,
      "confirmations": null,
      "from": "0x8674c218F0351a62C3BA78C34FD2182A93Da94E2",
      "gasPrice": {
        "_hex": "0xd6ece5944"
      },
      "gasLimit": {
        "_hex": "0x15f90"
      },
      "to": "0xd51Ead1dAA49bf10cF495430b8826780966130EF",
      "value": {
        "_hex": "0x0"
      },
      "nonce": 17,
      "data": "0xde6f24bb0000000000000000000000008674c218f0351a62c3ba78c34fd2182a93da94e20000000000000000000000000000000000000000000000000000000000000040000000000000000000000000000000000000000000000000000000000000000668656c6c6f210000000000000000000000000000000000000000000000000000",
      "r": "0x5efe934af2d7c38910625afa9a706333a71b02eb9d7a7fd1a4c8d2a3f7af0066",
      "s": "0x1c74446969b3757a8cfefb369c2b57f18bf9f48fc807102b68abfb147bf2f8c2",
      "v": 27,
      "creates": null,
      "raw": "0xf8ea11850d6ece594483015f9094d51ead1daa49bf10cf495430b8826780966130ef80b884de6f24bb0000000000000000000000008674c218f0351a62c3ba78c34fd2182a93da94e20000000000000000000000000000000000000000000000000000000000000040000000000000000000000000000000000000000000000000000000000000000668656c6c6f2100000000000000000000000000000000000000000000000000001ba05efe934af2d7c38910625afa9a706333a71b02eb9d7a7fd1a4c8d2a3f7af0066a01c74446969b3757a8cfefb369c2b57f18bf9f48fc807102b68abfb147bf2f8c2",
      "networkId": 0,
      "chainId": 0
    }
  ]
}