{
  "hash": "0x4605fe3ad8f918ae6ed34858623f9e2c6632650e561ddf780637376002a21873",
  "parentHash": "0x230eb94a1634c235c37a69a1f936bdf1bd98e3ac53f57fccd12fdc73f81274db",
  "number": 82359,
  "timestamp": 1439518111,
  "nonce": "0x53678ebd1265bbac",
  "difficulty": 2368366682701,
  "gasLimit": {
    "_hex": "0x2fefd8"
  },
  "gasUsed": {
    "_hex": "0x5208"
  },
  "miner": "0xf927a40C8B7F6E07c5af7FA2155B4864a4112B13",
  "extraData": "0x",
  "transactions": [
    {
      "hash": "0xdf3b78b35ce7db87f6711abf48ced9e5ebffdfe7076552eb02a02a7d7f7830a8",
      "blockHash": "0x4605fe3ad8f918ae6ed34858623f9e2c6632650e561ddf780637376002a21873",
      "blockNumber": 82359,
      "transactionIndex": 0,
      "confirmations": null,
      "from": "0xe229E746a83f2cE253b0b03eB1472411B57E5700",
      "gasPrice": {
        "_hex": "0xd6d9651bf"
      },
      "gasLimit": {
        "_hex": "0x15f90"
      },
      "to": "0xe3A29c590ae7Bf0D32A7121373bf5C94ADbeCa4a",
      "value": {
        "_hex": "0x1369ee4377a0dc20000"
      },
      "nonce": 0,
      "data": "0x",
      "r": "0xf57e2e417d7181437854a79d442cd6e660b52009ad948ab5b5961a57bfee522e",
      "s": "0x260a3db33987103995b4f304ee94b5c1e1782ccdc88d83713b71d27f0f0ca9c9",
      "v": 27,
      "creates": null,
      "raw": "0xf86f80850d6d9651bf83015f9094e3a29c590ae7bf0d32a7121373bf5c94adbeca4a8a01369ee4377a0dc20000801ba0f57e2e417d7181437854a79d442cd6e660b52009ad948ab5b5961a57bfee522ea0260a3db33987103995b4f304ee94b5c1e1782ccdc88d83713b71d27f0f0ca9c9",
      "networkId": 0,
      "chainId": 0
    }
  ]
}