{
  "hash": "0x089752888abeb1257f23e1f7666ad68e6419ec3f325b385e3722c988832100d6",
  "parentHash": "0x24b92ebcc273aa9a64a76cc7158e6f5ea9ef48d1e64df4714359878cb96c10ad",
  "number": 91459,
  "timestamp": 1439656015,
  "nonce": "0x2507878d81146db1",
  "difficulty": 3475997210603,
  "gasLimit": {
    "_hex": "0x2fefd8"
  },
  "gasUsed": {
    "_hex": "0x14a84"
  },
  "miner": "0xEcbbFE46500E669149DD031fcdbeb3ed9be638Fb",
  "extraData": "0x476574682f76312e302e312f6c696e75782f676f312e342e32",
  "transactions": [
    {
      "hash": "0x969478361a544ef1ebd168fc226761f8b9dd0ba948b187dc5006a9ece255c48c",
      "blockHash": "0x089752888abeb1257f23e1f7666ad68e6419ec3f325b385e3722c988832100d6",
      "blockNumber": 91459,
      "transactionIndex": 0,
      "confirmations": null,
      "from": "0x77a17122Fa31b98f1711D32A99F03Ec326F33D08",
      "gasPrice": {
        "_hex": "0x110c8f7d8de"
      },
      "gasLimit": {
        "_hex": "0xc350"
      },
      "to": "0x2910543Af39abA0Cd09dBb2D50200b3E800A63D2",
      "value": {
        "_hex": "0x56bc75e2d63100000"
      },
      "nonce": 4,
      "data": "0x454e54525932525038",
      "r": "0xc3e149e01f3a60d24e0189ae5d1065f9cf7343db2bdd4918ad190aa1f9ba3ccf",
      "s": "0x15b6ab84e8ffaf5c76e100315ff2ee0f6aec7fa015080a9efc7f1af9bbdeaf69",
      "v": 28,
      "creates": null,
      "raw": "0xf87704860110c8f7d8de82c350942910543af39aba0cd09dbb2d50200b3e800a63d289056bc75e2d6310000089454e545259325250381ca0c3e149e01f3a60d24e0189ae5d1065f9cf7343db2bdd4918ad190aa1f9ba3ccfa015b6ab84e8ffaf5c76e100315ff2ee0f6aec7fa015080a9efc7f1af9bbdeaf69",
      "networkId": 0,
      "chainId": 0
    },
    {
      "hash": "0xe946efeb8e3adfeff9af3f7cd3f84df743dc896b9d82b132a3db4c76ea4d8c2c",
      "blockHash": "0x089752888abeb1257f23e1f7666ad68e6419ec3f325b385e3722c988832100d6",
      "blockNumber": 91459,
      "transactionIndex": 1,
      "confirmations": null,
      "from": "0x922a20c79a1d3a26DD3829677Bf1D45c8f672bb6",
      "gasPrice": {
        "_hex": "0xdfd6dfb86"
      },
      "gasLimit": {
        "_hex": "0x15f90"
      },
      "to": "0xc72322CEA06c8576280ED2f09d907e76Ca73686a",
      "value": {
        "_hex": "0xc59ea48da190000"
      },
      "nonce": 2,
      "data": "0x",
      "r": "0x7b0688c765cc8c8d2c70389282501444ad14f8f644d8089c9bd4e8a6fec91bf7",
      "s": "0x041894047f5a1f6b590bff8ccc8e4a2ceaef04dc09cfad7901be24f47591af04",
      "v": 27,
      "creates": null,
      "raw": "0xf86d02850dfd6dfb8683015f9094c72322cea06c8576280ed2f09d907e76ca73686a880c59ea48da190000801ba07b0688c765cc8c8d2c70389282501444ad14f8f644d8089c9bd4e8a6fec91bf7a0041894047f5a1f6b590bff8ccc8e4a2ceaef04dc09cfad7901be24f47591af04",
      "networkId": 0,
      "chainId": 0
    },
    {
      "hash": "0x4c755d79976e7f839ece2e981297ce671bf16b6632a8492999a9b47abe586a08",
      "blockHash": "0x089752888abeb1257f23e1f7666ad68e6419ec3f325b385e3722c988832100d6",
      "blockNumber": 91459,
      "transactionIndex": 2,
      "confirmations": null,
      "from": "0xAF17A4ab5d6B10055Fc1eB1BFaCcbDe69B83aF76",
      "gasPrice": {
        "_hex": "0xdb7ce6758"
      },
      "gasLimit": {
        "_hex": "0x5208"
      },
      "to": "0x32Be343B94f860124dC4fEe278FDCBD38C102D88",
      "value": {
        "_hex": "0x471f6203c9718c000"
      },
      "nonce": 1,
      "data": "0x",
      "r": "0x984102af3d4679f5157368aae6af92ad4eab59a96daa94bc89338ee94422beda",
      "s": "0x40a11380efa1b56db3661ace8c90274f180a8b50dffb369a06763378dd205395",
      "v": 27,
      "creates": null,
      "raw": "0xf86d01850db7ce67588252089432be343b94f860124dc4fee278fdcbd38c102d88890471f6203c9718c000801ba0984102af3d4679f5157368aae6af92ad4eab59a96daa94bc89338ee94422bedaa040a11380efa1b56db3661ace8c90274f180a8b50dffb369a06763378dd205395",
      "networkId": 0,
      "chainId": 0
    },
    {
      "hash": "0x66841c5221aadc862bbf82c5da6a9857208c07e472f1c052c00713b21df42d6c",
      "blockHash": "0x089752888abeb1257f23e1f7666ad68e6419ec3f325b385e3722c988832100d6",
      "blockNumber": 91459,
      "transactionIndex": 3,
      "confirmations": null,
      "from": "0xB0bF4A71F730782368Ef660FE6D298F432F95450",
      "gasPrice": {
        "_hex": "0xdb7ce6758"
      },
      "gasLimit": {
        "_hex": "0x5208"
      },
      "to": "0x32Be343B94f860124dC4fEe278FDCBD38C102D88",
      "value": {
        "_hex": "0xad78a570bbf310000"
      },
      "nonce": 25,
      "data": "0x",
      "r": "0x9a84f850c4831a8376d09d14667f9d2cecc1f84bacacb2e7b3c8343ee71ca249",
      "s": "0x169abff62f7917e3df556ec0efab02a19739f1f91bec8e2312c36d6aba9a6c51",
      "v": 28,
      "creates": null,
      "raw": "0xf86d19850db7ce67588252089432be343b94f860124dc4fee278fdcbd38c102d88890ad78a570bbf310000801ca09a84f850c4831a8376d09d14667f9d2cecc1f84bacacb2e7b3c8343ee71ca249a0169abff62f7917e3df556ec0efab02a19739f1f91bec8e2312c36d6aba9a6c51",
      "networkId": 0,
      "chainId": 0
    }
  ]
}