{
  "hash": "0x4823b4a52e889d9bb4860fba9ee41b69907dbe1d703f47264a08ef8442dcbca4",
  "parentHash": "0x5dd8624af07e65f782e940880579db0f9c0528ef8727d73ea17524b3efd0f82e",
  "number": 66156,
  "timestamp": 1439249721,
  "nonce": "0xeac2910759bda8a9",
  "difficulty": 1939580922337,
  "gasLimit": {
    "_hex": "0x2fefd8"
  },
  "gasUsed": {
    "_hex": "0x65653"
  },
  "miner": "0x39A1BB80a741bF5EC39FB9BE59408Fa0F418fFBf",
  "extraData": "0x476574682f76312e302e312f77696e646f77732f676f312e342e32",
  "transactions": [
    {
      "hash": "0x82af8fc1a664cd5f2d7337952963ed9c5accaeef100ab63c7fe78c4760b1b14e",
      "blockHash": "0x4823b4a52e889d9bb4860fba9ee41b69907dbe1d703f47264a08ef8442dcbca4",
      "blockNumber": 66156,
      "transactionIndex": 0,
      "confirmations": null,
      "from": "0x2910543Af39abA0Cd09dBb2D50200b3E800A63D2",
      "gasPrice": {
        "_hex": "0xd6442d848"
      },
      "gasLimit": {
        "_hex": "0x5208"
      },
      "to": "0x5A4A6a7D2e9420d4618791b65D8C3C3ce24D1b88",
      "value": {
        "_hex": "0x471e8c21266278000"
      },
      "nonce": 197,
      "data": "0x",
      "r": "0x118bb82ce0f29cbeb94cb58c867f23d206844dc844410148f2f57d06ec51a794",
      "s": "0x5cb3389c666d955618a416d706602159d6d38b6d741ff718da535b24f8c0cd0b",
      "v": 28,
      "creates": null,
      "raw": "0xf86e81c5850d6442d848825208945a4a6a7d2e9420d4618791b65d8c3c3ce24d1b88890471e8c21266278000801ca0118bb82ce0f29cbeb94cb58c867f23d206844dc844410148f2f57d06ec51a794a05cb3389c666d955618a416d706602159d6d38b6d741ff718da535b24f8c0cd0b",
      "networkId": 0,
      "chainId": 0
    },
    {
      "hash": "0x11eb3af1add29a8c18518436fd6bdbe2901a4a66d7479ebe2988e6c25d9d813b",
      "blockHash": "0x4823b4a52e889d9bb4860fba9ee41b69907dbe1d703f47264a08ef8442dcbca4",
      "blockNumber": 66156,
      "transactionIndex": 1,
      "confirmations": null,
      "from": "0xFD2605a2bF58fDbB90db1Da55dF61628B47F9e8c",
      "gasPrice": {
        "_hex": "0xd43fbcbb5"
      },
      "gasLimit": {
        "_hex": "0xf4240"
      },
      "to": null,
      "value": {
        "_hex": "0x0"
      },
      "nonce": 54,
      "data": "0x60606040524360005561052e806100176000396000f300606060405236156100775760e060020a60003504632168129d811461007957806350b44712146100a057806363bd1d4a146100d457806367dd74ca146100e55780637c1c17161461015d578063806b984f14610296578063a294958b1461029f578063b69ef8a8146102aa578063e0fe075e146102b3575b005b60408051600435815290519081900360200190205b60408051918252519081900360200190f35b6102da60043560038054829081101561000257506000526000805160206104ee8339815191520154600160a060020a031681565b6102da6000600060006102f76102b7565b6100776004356028606a430610156104ea57600160a060020a033316600090815260056020908152604080832084905560069091529020805434019055600280546001810180835591908290801582901161049c57600083905261049c9060008051602061050e833981519152908101908301610411565b610077600435600160a060020a033316600090815260066020526040812054811480159061018e5750604c606a4306105b801561019d5750602e606a4306115b1561044357600160a060020a0333166000908152600560209081526040918290205482518581529251928390039091019091201415610443576004805483189055600160a060020a03331660008181526006602052604080822054905160029091049082818181858883f15050604082209282525060066020529054600180546002909204909101905590505b600160a060020a03331660009081526006602052604090205467016345785d8a0000900463ffffffff82161015610429576003805460018101808355919082908015829011610447576000839052610447906000805160206104ee833981519152908101908301610411565b61008e60005481565b61008e606a43065b90565b61008e60015481565b61008e5b6000604c606a43061180156102d3575060446000600050544303115b90506102a7565b60408051600160a060020a03929092168252519081900360200190f35b156103e75760038054600454819006908110156100025760009182526001546000805160206104ee8339815191529190910154604051600160a060020a039190911694508492916161a83a0290039082818181858883f150504382555060018190559150505b6002548110156103ec576002805460059160009184908110156100025760008051602061050e8339815191520154600160a060020a031682526020929092526040812081905581546006929084908110156100025760008051602061050e8339815191520154600160a060020a0316825250602091909152604081205560010161035d565b508192505b505090565b600380546000808355919091526103e2906000805160206104ee833981519152908101905b808211156104255760008155600101610411565b5090565b600160a060020a0333166000908152600660205260408120555b5050565b505060038054339350909150600019810190811015610002576000919091526000805160206104ee83398151915201805473ffffffffffffffffffffffffffffffffffffffff1916909117905560010161022a565b5050600280543393509091506000198101908110156100025760009190915260008051602061050e83398151915201805473ffffffffffffffffffffffffffffffffffffffff191690911790555b505600c2575a0e9e593c00f959f8c92f12db2869c3395a3b0502d05e2516446f71f85b405787fa12a823e0f2b7631cc41b3ba8828b3321ca811111fa75cd3aa3bb5ace",
      "r": "0x5d294dc9eb2cb6b8bc9074866d06757b703c391bca4c67233576d4a77442e4bf",
      "s": "0x048227716fc189f881eeadde1494194a818578258f9206a03f88f027d5f55209",
      "v": 28,
      "creates": "0x02AeaC9ca07bc56F37d5ec61B28a3DfFD7CFF0A3",
      "raw": "0xf9059836850d43fbcbb5830f42408080b9054560606040524360005561052e806100176000396000f300606060405236156100775760e060020a60003504632168129d811461007957806350b44712146100a057806363bd1d4a146100d457806367dd74ca146100e55780637c1c17161461015d578063806b984f14610296578063a294958b1461029f578063b69ef8a8146102aa578063e0fe075e146102b3575b005b60408051600435815290519081900360200190205b60408051918252519081900360200190f35b6102da60043560038054829081101561000257506000526000805160206104ee8339815191520154600160a060020a031681565b6102da6000600060006102f76102b7565b6100776004356028606a430610156104ea57600160a060020a033316600090815260056020908152604080832084905560069091529020805434019055600280546001810180835591908290801582901161049c57600083905261049c9060008051602061050e833981519152908101908301610411565b610077600435600160a060020a033316600090815260066020526040812054811480159061018e5750604c606a4306105b801561019d5750602e606a4306115b1561044357600160a060020a0333166000908152600560209081526040918290205482518581529251928390039091019091201415610443576004805483189055600160a060020a03331660008181526006602052604080822054905160029091049082818181858883f15050604082209282525060066020529054600180546002909204909101905590505b600160a060020a03331660009081526006602052604090205467016345785d8a0000900463ffffffff82161015610429576003805460018101808355919082908015829011610447576000839052610447906000805160206104ee833981519152908101908301610411565b61008e60005481565b61008e606a43065b90565b61008e60015481565b61008e5b6000604c606a43061180156102d3575060446000600050544303115b90506102a7565b60408051600160a060020a03929092168252519081900360200190f35b156103e75760038054600454819006908110156100025760009182526001546000805160206104ee8339815191529190910154604051600160a060020a039190911694508492916161a83a0290039082818181858883f150504382555060018190559150505b6002548110156103ec576002805460059160009184908110156100025760008051602061050e8339815191520154600160a060020a031682526020929092526040812081905581546006929084908110156100025760008051602061050e8339815191520154600160a060020a0316825250602091909152604081205560010161035d565b508192505b505090565b600380546000808355919091526103e2906000805160206104ee833981519152908101905b808211156104255760008155600101610411565b5090565b600160a060020a0333166000908152600660205260408120555b5050565b505060038054339350909150600019810190811015610002576000919091526000805160206104ee83398151915201805473ffffffffffffffffffffffffffffffffffffffff1916909117905560010161022a565b5050600280543393509091506000198101908110156100025760009190915260008051602061050e83398151915201805473ffffffffffffffffffffffffffffffffffffffff191690911790555b505600c2575a0e9e593c00f959f8c92f12db2869c3395a3b0502d05e2516446f71f85b405787fa12a823e0f2b7631cc41b3ba8828b3321ca811111fa75cd3aa3bb5ace1ca05d294dc9eb2cb6b8bc9074866d06757b703c391bca4c67233576d4a77442e4bfa0048227716fc189f881eeadde1494194a818578258f9206a03f88f027d5f55209",
      "networkId": 0,
      "chainId": 0
    }
  ]
}