{
  "hash": "0x88a0a9d2053c74c0a85023fc69a11c1db15aff5ffa74cd6e08fffea11cfc2781",
  "parentHash": "0x04707817e159c436ece292dd2817fad7c9fab72a9044a0e0280c9ff7d66e5db5",
  "number": 84496,
  "timestamp": 1439550538,
  "nonce": "0xe0a62ef6cb0cf5fb",
  "difficulty": 2563915683856,
  "gasLimit": {
    "_hex": "0x2fefd8"
  },
  "gasUsed": {
    "_hex": "0xf618"
  },
  "miner": "0xf8E0CA3Ed80bd541b94BEdCf259e8CF2141A9523",
  "extraData": "0x476574682f76312e302e312f77696e646f77732f676f312e342e32",
  "transactions": [
    {
      "hash": "0x93ca81cbbb3241ed880a7715900aa652e684471579f824e05f779712c9692d8c",
      "blockHash": "0x88a0a9d2053c74c0a85023fc69a11c1db15aff5ffa74cd6e08fffea11cfc2781",
      "blockNumber": 84496,
      "transactionIndex": 0,
      "confirmations": null,
      "from": "0x2E6B0aD16aFd1E29e306A0EE121BC719761BFE52",
      "gasPrice": {
        "_hex": "0xdf9cee7fa"
      },
      "gasLimit": {
        "_hex": "0x5208"
      },
      "to": "0x32Be343B94f860124dC4fEe278FDCBD38C102D88",
      "value": {
        "_hex": "0x51c84e4f9c8a84000"
      },
      "nonce": 0,
      "data": "0x",
      "r": "0x1fd07258b21155428dc2d1fdc38a20dfbcb81a585d09eee38e4d467598f8ae13",
      "s": "0x28456afacf7466fe65f97e016bb32d9773684785822a200aa512ef4862f83d7e",
      "v": 27,
      "creates": null,
      "raw": "0xf86d80850df9cee7fa8252089432be343b94f860124dc4fee278fdcbd38c102d8889051c84e4f9c8a84000801ba01fd07258b21155428dc2d1fdc38a20dfbcb81a585d09eee38e4d467598f8ae13a028456afacf7466fe65f97e016bb32d9773684785822a200aa512ef4862f83d7e",
      "networkId": 0,
      "chainId": 0
    },
    {
      "hash": "0xa4a32f170c7a549e43010b08c02a42456224da45ac4cc5fc1148401b6394fcc4",
      "blockHash": "0x88a0a9d2053c74c0a85023fc69a11c1db15aff5ffa74cd6e08fffea11cfc2781",
      "blockNumber": 84496,
      "transactionIndex": 1,
      "confirmations": null,
      "from": "0x5a0f0935E8E5591B2f9f2d55f29C626B50292088",
      "gasPrice": {
        "_hex": "0xdf9cee7fa"
      },
      "gasLimit": {
        "_hex": "0x5208"
      },
      "to": "0x32Be343B94f860124dC4fEe278FDCBD38C102D88",
      "value": {
        "_hex": "0x14188341f1d6fa0000"
      },
      "nonce": 10,
      "data": "0x",
      "r": "0x4e34cc27845ca0c95bf6338e3bde0e7fb2d21fea12941b4829d6a2dc3636f1df",
      "s": "0x77fbf9b0a7be8a418bd85cee687131f787a42f88a6ca10397d6ad3285e47eee1",
      "v": 28,
      "creates": null,
      "raw": "0xf86d0a850df9cee7fa8252089432be343b94f860124dc4fee278fdcbd38c102d888914188341f1d6fa0000801ca04e34cc27845ca0c95bf6338e3bde0e7fb2d21fea12941b4829d6a2dc3636f1dfa077fbf9b0a7be8a418bd85cee687131f787a42f88a6ca10397d6ad3285e47eee1",
      "networkId": 0,
      "chainId": 0
    },
    {
      "hash": "0x7b5c3bd8cdea4dd3eb6ce8e17c9c923538ad8a80335fc0d9d4c9752c2772c3cd",
      "blockHash": "0x88a0a9d2053c74c0a85023fc69a11c1db15aff5ffa74cd6e08fffea11cfc2781",
      "blockNumber": 84496,
      "transactionIndex": 2,
      "confirmations": null,
      "from": "0x0A38ff322A11A9bA4f9a7C668F79025e8CEadc45",
      "gasPrice": {
        "_hex": "0xd874633f5"
      },
      "gasLimit": {
        "_hex": "0x15f90"
      },
      "to": "0x89Ea4C778D3f3D6BE70883BB9995D41Bd4c453Ab",
      "value": {
        "_hex": "0xde0b6b3a7640000"
      },
      "nonce": 0,
      "data": "0x",
      "r": "0x7f2bec80d3c32d20e38e61cbff2a1ecc3941a3ac302729049bced5a33fde0d43",
      "s": "0x4b5dfc2578668f7003fb37b884601c0a731c4ec905c2f1a5d123d35052beec7e",
      "v": 27,
      "creates": null,
      "raw": "0xf86d80850d874633f583015f909489ea4c778d3f3d6be70883bb9995d41bd4c453ab880de0b6b3a7640000801ba07f2bec80d3c32d20e38e61cbff2a1ecc3941a3ac302729049bced5a33fde0d43a04b5dfc2578668f7003fb37b884601c0a731c4ec905c2f1a5d123d35052beec7e",
      "networkId": 0,
      "chainId": 0
    }
  ]
}