{
  "hash": "0x880709cbdc3de86fbc03d8036eee0fd1c9fa19bea7dc2976c2d949e31f4c1502",
  "parentHash": "0x2f05f50f82d1cec3a29f3615eac54ec7a0f1cb78111d7450d1dd229a2914ff3b",
  "number": 49956,
  "timestamp": 1438981830,
  "nonce": "0x57cd67e328ad8ba4",
  "difficulty": 1501689189284,
  "gasLimit": {
    "_hex": "0x47dc9"
  },
  "gasUsed": {
    "_hex": "0x546c"
  },
  "miner": "0xa50ec0D39fa913E62f1Bae7074E6F36caA71855b",
  "extraData": "0x",
  "transactions": [
    {
      "hash": "0x74c9874d02128f6d3177eca77273a29c2030dbf2161b494b612cbe5645034609",
      "blockHash": "0x880709cbdc3de86fbc03d8036eee0fd1c9fa19bea7dc2976c2d949e31f4c1502",
      "blockNumber": 49956,
      "transactionIndex": 0,
      "confirmations": null,
      "from": "0xE406F5DD72cAB66d8A6ECBd6Bfb494a7B6b09aFE",
      "gasPrice": {
        "_hex": "0x110c8f7d8de"
      },
      "gasLimit": {
        "_hex": "0xc350"
      },
      "to": "0x2910543Af39abA0Cd09dBb2D50200b3E800A63D2",
      "value": {
        "_hex": "0x56a6418b505860000"
      },
      "nonce": 0,
      "data": "0x454e39454439375230",
      "r": "0xb6d0cb1e72294ff7f04836767d876f2845bd33129b7f088881c7ad7121e4a69b",
      "s": "0x4c144ea4ac867bf702e689b19e67fe48286d9abfce37ecac9cf256aea85b2771",
      "v": 28,
      "creates": null,
      "raw": "0xf87780860110c8f7d8de82c350942910543af39aba0cd09dbb2d50200b3e800a63d289056a6418b50586000089454e394544393752301ca0b6d0cb1e72294ff7f04836767d876f2845bd33129b7f088881c7ad7121e4a69ba04c144ea4ac867bf702e689b19e67fe48286d9abfce37ecac9cf256aea85b2771",
      "networkId": 0,
      "chainId": 0
    }
  ]
}