{
  "hash": "0xd296856e8135a3fd394d75cc7217855e27d2b9daa23c14b2c96ff0213374414c",
  "parentHash": "0xeee94ebb64c9fc0d64492a9260b291d3d599b843b0f5f394808f45ac04e57a21",
  "number": 110528,
  "timestamp": 1439975222,
  "nonce": "0x73871970580c21b4",
  "difficulty": 4377677696129,
  "gasLimit": {
    "_hex": "0x2fefd8"
  },
  "gasUsed": {
    "_hex": "0x5208"
  },
  "miner": "0xf927a40C8B7F6E07c5af7FA2155B4864a4112B13",
  "extraData": "0x",
  "transactions": [
    {
      "hash": "0x312e5fa4699cdf346a412d8d00f92773d17e58d979491af76d0affa417a20d38",
      "blockHash": "0xd296856e8135a3fd394d75cc7217855e27d2b9daa23c14b2c96ff0213374414c",
      "blockNumber": 110528,
      "transactionIndex": 0,
      "confirmations": null,
      "from": "0xF109ca710C0Df51c1a86dBA1B0BA0Ed038114463",
      "gasPrice": {
        "_hex": "0xd3a42aef2"
      },
      "gasLimit": {
        "_hex": "0x5208"
      },
      "to": "0x32Be343B94f860124dC4fEe278FDCBD38C102D88",
      "value": {
        "_hex": "0xd026777435690000"
      },
      "nonce": 18,
      "data": "0x",
      "r": "0xd5ed1a74ad0b7f4a4fd31e32551ef5354a87dedf379bafaaa548c7d7e2b0ace8",
      "s": "0x41df6374bdb83de6db79bcd91a3f1164e27fd6cb1afdcf37c578e176c72b28f4",
      "v": 27,
      "creates": null,
      "raw": "0xf86c12850d3a42aef28252089432be343b94f860124dc4fee278fdcbd38c102d8888d026777435690000801ba0d5ed1a74ad0b7f4a4fd31e32551ef5354a87dedf379bafaaa548c7d7e2b0ace8a041df6374bdb83de6db79bcd91a3f1164e27fd6cb1afdcf37c578e176c72b28f4",
      "networkId": 0,
      "chainId": 0
    }
  ]
}