{
  "hash": "0x592d637f9aaf6e926adbc6d49ef4489efe335782471cb83e1af2a7d87ea6ef00",
  "parentHash": "0x7c79ff904f8733811b49ed7de6d8fdd3e3dd28636a65619cc0d7615408bebdf2",
  "number": 119395,
  "timestamp": 1440142053,
  "nonce": "0xd0602fef156977c9",
  "difficulty": 4418124371037,
  "gasLimit": {
    "_hex": "0x2fefd8"
  },
  "gasUsed": {
    "_hex": "0xa410"
  },
  "miner": "0x58850Ab9442C06379DfFBf52e3EAA035f5D5E092",
  "extraData": "0xd983010100844765746887676f312e342e328777696e646f7773",
  "transactions": [
    {
      "hash": "0x77627d698bc14871a8fb4c82dff10ed32b2612cf3387234a38c4f7e4b094b69a",
      "blockHash": "0x592d637f9aaf6e926adbc6d49ef4489efe335782471cb83e1af2a7d87ea6ef00",
      "blockNumber": 119395,
      "transactionIndex": 0,
      "confirmations": null,
      "from": "0xe7523F78ae9eDb81dC7B2A9ca718Ba3776C14f2e",
      "gasPrice": {
        "_hex": "0xba43b7400"
      },
      "gasLimit": {
        "_hex": "0x5208"
      },
      "to": "0x32Be343B94f860124dC4fEe278FDCBD38C102D88",
      "value": {
        "_hex": "0x83de633fec7c9000"
      },
      "nonce": 12,
      "data": "0x",
      "r": "0xa14cfdfbb0768830f9da0aa95c394ff10904914e1f9280287ef6c1ed28d08a67",
      "s": "0x65e4a43d1e30b1ab012e0f4690da3d614939e225de8e8e8a05e3d3ff4b56da85",
      "v": 28,
      "creates": null,
      "raw": "0xf86c0c850ba43b74008252089432be343b94f860124dc4fee278fdcbd38c102d888883de633fec7c9000801ca0a14cfdfbb0768830f9da0aa95c394ff10904914e1f9280287ef6c1ed28d08a67a065e4a43d1e30b1ab012e0f4690da3d614939e225de8e8e8a05e3d3ff4b56da85",
      "networkId": 0,
      "chainId": 0
    },
    {
      "hash": "0x405b75353f65c735f7aae470800689b266be33cc7a0c97b39dcbe2a519e3b1c9",
      "blockHash": "0x592d637f9aaf6e926adbc6d49ef4489efe335782471cb83e1af2a7d87ea6ef00",
      "blockNumber": 119395,
      "transactionIndex": 1,
      "confirmations": null,
      "from": "0xAD8c7FBFaBC46C35aDb03F7b3A67e731E5793899",
      "gasPrice": {
        "_hex": "0xba43b7400"
      },
      "gasLimit": {
        "_hex": "0x5208"
      },
      "to": "0x32Be343B94f860124dC4fEe278FDCBD38C102D88",
      "value": {
        "_hex": "0x2434c4b3a4f3f000"
      },
      "nonce": 14,
      "data": "0x",
      "r": "0xed7bad221ce570358ebf5c74de791aae97eec7f9cfa5d85e4b1de50dd5d67358",
      "s": "0x64db5f2b93622b1bedaf925650aae6c2482b660d8fe1b00a6b418bffa1ceaa37",
      "v": 27,
      "creates": null,
      "raw": "0xf86c0e850ba43b74008252089432be343b94f860124dc4fee278fdcbd38c102d88882434c4b3a4f3f000801ba0ed7bad221ce570358ebf5c74de791aae97eec7f9cfa5d85e4b1de50dd5d67358a064db5f2b93622b1bedaf925650aae6c2482b660d8fe1b00a6b418bffa1ceaa37",
      "networkId": 0,
      "chainId": 0
    }
  ]
}