{
  "hash": "0xa67d3e72ffab64fe54debebdf5992efb9398f9bf2fb160de9b2c8e43e4245e10",
  "parentHash": "0xbf03770ff4f369bfce96c9d91276a459dc0d7f2990b515be7fd3d844c5acc235",
  "number": 47645,
  "timestamp": 1438944198,
  "nonce": "0x930b6ff2881ad935",
  "difficulty": 1445263808884,
  "gasLimit": {
    "_hex": "0xdc51"
  },
  "gasUsed": {
    "_hex": "0x546c"
  },
  "miner": "0xFA0D8956305eDfBc2E00beE10be65876005267Ac",
  "extraData": "0x476574682f76312e302e312f6c696e75782f676f312e342e32",
  "transactions": [
    {
      "hash": "0x750ac3c608cdac72dd6f76e9f264b76b23784f39e17322ea0504243330d5e965",
      "blockHash": "0xa67d3e72ffab64fe54debebdf5992efb9398f9bf2fb160de9b2c8e43e4245e10",
      "blockNumber": 47645,
      "transactionIndex": 0,
      "confirmations": null,
      "from": "0xB1a2B43A7433dd150BB82227eD519Cd6b142d382",
      "gasPrice": {
        "_hex": "0xda25217df"
      },
      "gasLimit": {
        "_hex": "0x7530"
      },
      "to": "0x2910543Af39abA0Cd09dBb2D50200b3E800A63D2",
      "value": {
        "_hex": "0x4563918244f40000"
      },
      "nonce": 3,
      "data": "0x454e4333314e333030",
      "r": "0xadeaff54217a6e2597bf0c3c5f1c3f88529098dc7235bf4c563e2284860b6f4a",
      "s": "0x4e333000b6e577100cf1ba28dae407f7578d0034f4acad37e106d93ea6f1dfb8",
      "v": 27,
      "creates": null,
      "raw": "0xf87503850da25217df827530942910543af39aba0cd09dbb2d50200b3e800a63d2884563918244f4000089454e4333314e3330301ba0adeaff54217a6e2597bf0c3c5f1c3f88529098dc7235bf4c563e2284860b6f4aa04e333000b6e577100cf1ba28dae407f7578d0034f4acad37e106d93ea6f1dfb8",
      "networkId": 0,
      "chainId": 0
    }
  ]
}