{
  "hash": "0xaed31303a153b8fba6a995761e3bad32a95ce810e9a39624e0e3b4159cbdb9fc",
  "parentHash": "0x3cd245ed4a7a759ffde31cc0545799d78c0b0381bb3dd5128874924a44095a48",
  "number": 94751,
  "timestamp": 1439713659,
  "nonce": "0xc2fe007b710a8692",
  "difficulty": 3481426393701,
  "gasLimit": {
    "_hex": "0x2fefd8"
  },
  "gasUsed": {
    "_hex": "0x19a28"
  },
  "miner": "0x55bAf64fc9eAccFFd7Cc643BB61142E1C6ac093e",
  "extraData": "0x",
  "transactions": [
    {
      "hash": "0xc40e18899de67d85025881162752f0255f72135f123a39cbe2dc52c9db354587",
      "blockHash": "0xaed31303a153b8fba6a995761e3bad32a95ce810e9a39624e0e3b4159cbdb9fc",
      "blockNumber": 94751,
      "transactionIndex": 0,
      "confirmations": null,
      "from": "0x120A270bbC009644e35F0bB6ab13f95b8199c4ad",
      "gasPrice": {
        "_hex": "0xde53dc6ea"
      },
      "gasLimit": {
        "_hex": "0x3d090"
      },
      "to": "0x957523c697993cB24FCf75EfBce4f228325e7383",
      "value": {
        "_hex": "0x2594845661d651000"
      },
      "nonce": 586,
      "data": "0x",
      "r": "0x54a6dc09573a8f5e61d78c4025c9cf6c172413b2abce06ff1b711c317968e7c7",
      "s": "0x18d3226099d53e42331bb016421fcfce59bf9fb0fc50a6c5e81dffe98fea62b9",
      "v": 27,
      "creates": null,
      "raw": "0xf87082024a850de53dc6ea8303d09094957523c697993cb24fcf75efbce4f228325e73838902594845661d651000801ba054a6dc09573a8f5e61d78c4025c9cf6c172413b2abce06ff1b711c317968e7c7a018d3226099d53e42331bb016421fcfce59bf9fb0fc50a6c5e81dffe98fea62b9",
      "networkId": 0,
      "chainId": 0
    },
    {
      "hash": "0x634f9be8ebbf64200b37885f9720c672696fdc41280de03c71313c71b4c0f7f6",
      "blockHash": "0xaed31303a153b8fba6a995761e3bad32a95ce810e9a39624e0e3b4159cbdb9fc",
      "blockNumber": 94751,
      "transactionIndex": 1,
      "confirmations": null,
      "from": "0x1308A2e95c0160B90803ddCA9B9a5bb55E416d79",
      "gasPrice": {
        "_hex": "0xd8d59c31a"
      },
      "gasLimit": {
        "_hex": "0x15f90"
      },
      "to": "0xE4ad81e4b687313Bf7c8C53Cc3b4DBB5A4dF7D20",
      "value": {
        "_hex": "0x34bc4fdde27c00000"
      },
      "nonce": 159,
      "data": "0x",
      "r": "0xa65cdc6ba08ee10cd9f363cf9bda16f337f46c0fcffb77c3e6c73c8d4bd790b4",
      "s": "0x310919275a5467131500297936cc9484c760c35d28824ad1271f104dfaf8bde5",
      "v": 28,
      "creates": null,
      "raw": "0xf86f819f850d8d59c31a83015f9094e4ad81e4b687313bf7c8c53cc3b4dbb5a4df7d2089034bc4fdde27c00000801ca0a65cdc6ba08ee10cd9f363cf9bda16f337f46c0fcffb77c3e6c73c8d4bd790b4a0310919275a5467131500297936cc9484c760c35d28824ad1271f104dfaf8bde5",
      "networkId": 0,
      "chainId": 0
    },
    {
      "hash": "0x7c623b5531d287cf8801a31dadf40cab77a4d785db37d62f3a051ebf11e1193a",
      "blockHash": "0xaed31303a153b8fba6a995761e3bad32a95ce810e9a39624e0e3b4159cbdb9fc",
      "blockNumber": 94751,
      "transactionIndex": 2,
      "confirmations": null,
      "from": "0x4CD33268dF93C6b4F6b3D504009EAE965Afe272d",
      "gasPrice": {
        "_hex": "0xd370a5eed"
      },
      "gasLimit": {
        "_hex": "0x5208"
      },
      "to": "0x32Be343B94f860124dC4fEe278FDCBD38C102D88",
      "value": {
        "_hex": "0x8b901e5c5f1ee000"
      },
      "nonce": 3,
      "data": "0x",
      "r": "0xeed47a9bdbcb069a97808c62d4d7104ed3b72a4e267ad9dd77401f5afc8459e9",
      "s": "0x5cdc4c8b5114be4b970bc69f4733104ebacab968b43f34629b9e70c7c38e552b",
      "v": 28,
      "creates": null,
      "raw": "0xf86c03850d370a5eed8252089432be343b94f860124dc4fee278fdcbd38c102d88888b901e5c5f1ee000801ca0eed47a9bdbcb069a97808c62d4d7104ed3b72a4e267ad9dd77401f5afc8459e9a05cdc4c8b5114be4b970bc69f4733104ebacab968b43f34629b9e70c7c38e552b",
      "networkId": 0,
      "chainId": 0
    },
    {
      "hash": "0x51546f05ad34cacf547b8aae48c1bdf8ca8753dac88f20b5ce046e1d6ccd7730",
      "blockHash": "0xaed31303a153b8fba6a995761e3bad32a95ce810e9a39624e0e3b4159cbdb9fc",
      "blockNumber": 94751,
      "transactionIndex": 3,
      "confirmations": null,
      "from": "0xD72ab61a64fEAeE7b5EB3D42B5445858B95d38fd",
      "gasPrice": {
        "_hex": "0xd370a5eed"
      },
      "gasLimit": {
        "_hex": "0x5208"
      },
      "to": "0x32Be343B94f860124dC4fEe278FDCBD38C102D88",
      "value": {
        "_hex": "0xe34bb945f65b4800"
      },
      "nonce": 3,
      "data": "0x",
      "r": "0x93811f8ea0b507c75cc108912b1433e15f11c7337cdd08f15036a90238fab24c",
      "s": "0x42caf5aaf19c7366de92384cf9dc480fd1c59da1084a86e9516f80f9641dd05f",
      "v": 28,
      "creates": null,
      "raw": "0xf86c03850d370a5eed8252089432be343b94f860124dc4fee278fdcbd38c102d8888e34bb945f65b4800801ca093811f8ea0b507c75cc108912b1433e15f11c7337cdd08f15036a90238fab24ca042caf5aaf19c7366de92384cf9dc480fd1c59da1084a86e9516f80f9641dd05f",
      "networkId": 0,
      "chainId": 0
    },
    {
      "hash": "0x7b05af9f7024fb9a670d7cfca3ed8011803de9020a1d9991b56db2cb05441666",
      "blockHash": "0xaed31303a153b8fba6a995761e3bad32a95ce810e9a39624e0e3b4159cbdb9fc",
      "blockNumber": 94751,
      "transactionIndex": 4,
      "confirmations": null,
      "from": "0x01Ad0ACFf478127D9d702B1A13599D706cB759b1",
      "gasPrice": {
        "_hex": "0xd370a5eed"
      },
      "gasLimit": {
        "_hex": "0x5208"
      },
      "to": "0x32Be343B94f860124dC4fEe278FDCBD38C102D88",
      "value": {
        "_hex": "0x1156da84619b58000"
      },
      "nonce": 30,
      "data": "0x",
      "r": "0xb6b7715189f5227cc9287292f208c4d8d433d846c90f8faf19e7a141a3f0c6f8",
      "s": "0x6ce8a76f57e7f66400536bd0d55d0e10c3895835e8bd997f5e824e877b289f40",
      "v": 28,
      "creates": null,
      "raw": "0xf86d1e850d370a5eed8252089432be343b94f860124dc4fee278fdcbd38c102d888901156da84619b58000801ca0b6b7715189f5227cc9287292f208c4d8d433d846c90f8faf19e7a141a3f0c6f8a06ce8a76f57e7f66400536bd0d55d0e10c3895835e8bd997f5e824e877b289f40",
      "networkId": 0,
      "chainId": 0
    }
  ]
}