{
  "hash": "0xab3dfb889cd88cf4e91736f314f399777bf607fee93328439d415cb07b662f98",
  "parentHash": "0xe8d297d55d82cc299958a5511a94fb149dbc66c975334890ecb502eb3fcb5412",
  "number": 80419,
  "timestamp": 1439485261,
  "nonce": "0xcb3533f38dc47e77",
  "difficulty": 2399180291250,
  "gasLimit": {
    "_hex": "0x2fefd8"
  },
  "gasUsed": {
    "_hex": "0xa674"
  },
  "miner": "0x88D74a59454F6cF3B51ef6b9136AFb6b9D405A88",
  "extraData": "0x476574682f76312e302e312d38326566323666362f6c696e75782f676f312e34",
  "transactions": [
    {
      "hash": "0x75042d534fe0edae69dbf3c810bf4724664fae11ba0c31d71e5d416366c55f1e",
      "blockHash": "0xab3dfb889cd88cf4e91736f314f399777bf607fee93328439d415cb07b662f98",
      "blockNumber": 80419,
      "transactionIndex": 0,
      "confirmations": null,
      "from": "0x671c5D0ffeB3993FD3Ce1D4a70A04eD949B3a250",
      "gasPrice": {
        "_hex": "0xfe7ee0b3a9"
      },
      "gasLimit": {
        "_hex": "0x55f0"
      },
      "to": "0x2910543Af39abA0Cd09dBb2D50200b3E800A63D2",
      "value": {
        "_hex": "0x6f05b59d3b20000"
      },
      "nonce": 7,
      "data": "0x454e42363131514538",
      "r": "0x84653ae3742f34a2d2d2262037d38f0bc492807e6a689a7ac9934f0baa4857be",
      "s": "0x52840a6b9adcb5e28b12f0342e99377da22b08b741cb03cdae63c4163ed0c3d4",
      "v": 27,
      "creates": null,
      "raw": "0xf8750785fe7ee0b3a98255f0942910543af39aba0cd09dbb2d50200b3e800a63d28806f05b59d3b2000089454e423631315145381ba084653ae3742f34a2d2d2262037d38f0bc492807e6a689a7ac9934f0baa4857bea052840a6b9adcb5e28b12f0342e99377da22b08b741cb03cdae63c4163ed0c3d4",
      "networkId": 0,
      "chainId": 0
    },
    {
      "hash": "0xce3db574d68e3b5ea57b2fd630eaf0fdce53a8e60aca809689825ec6663eccd2",
      "blockHash": "0xab3dfb889cd88cf4e91736f314f399777bf607fee93328439d415cb07b662f98",
      "blockNumber": 80419,
      "transactionIndex": 1,
      "confirmations": null,
      "from": "0x469a7A70162e447176d795123E1737083764C306",
      "gasPrice": {
        "_hex": "0xcd9f1e7b4"
      },
      "gasLimit": {
        "_hex": "0x15f90"
      },
      "to": "0xaE5822ba0FD0A171C5499A20eAB936E0Ec974E15",
      "value": {
        "_hex": "0x3bc2df8f3c06a0000"
      },
      "nonce": 0,
      "data": "0x",
      "r": "0xef94dbb22bd5275980d326441ee4d51c7370658a3afe276b7d6fb167118d92d8",
      "s": "0x750850dc6f30323e4e6ffacbc93f38e2775d20cc5155945ff77531f64f357e2c",
      "v": 28,
      "creates": null,
      "raw": "0xf86e80850cd9f1e7b483015f9094ae5822ba0fd0a171c5499a20eab936e0ec974e158903bc2df8f3c06a0000801ca0ef94dbb22bd5275980d326441ee4d51c7370658a3afe276b7d6fb167118d92d8a0750850dc6f30323e4e6ffacbc93f38e2775d20cc5155945ff77531f64f357e2c",
      "networkId": 0,
      "chainId": 0
    }
  ]
}