{
  "hash": "0xab51066d0ca58e83fb632f8e2ed53d675333654edddd426074ef8a9bddd55ae8",
  "parentHash": "0xd446fb339cb163fb644f3bcb41642d2898d2a94c8c6116a0af2e2e51c6b2deb4",
  "number": 108774,
  "timestamp": 1439945873,
  "nonce": "0x7352bb5ea7a50495",
  "difficulty": 4361522615898,
  "gasLimit": {
    "_hex": "0x2fefd8"
  },
  "gasUsed": {
    "_hex": "0x5208"
  },
  "miner": "0x580992B51e3925e23280EfB93d3047C82f17E038",
  "extraData": "0x476574682f76312e302e312f6c696e75782f676f312e342e32",
  "transactions": [
    {
      "hash": "0x8404cabcd5fffa25abbefa63f41a040368b01509881288fb24d2247aec90ac87",
      "blockHash": "0xab51066d0ca58e83fb632f8e2ed53d675333654edddd426074ef8a9bddd55ae8",
      "blockNumber": 108774,
      "transactionIndex": 0,
      "confirmations": null,
      "from": "0xC759dc67E0c3816fdC56A2f5bb29920fc07e767D",
      "gasPrice": {
        "_hex": "0xd54e82032"
      },
      "gasLimit": {
        "_hex": "0x5208"
      },
      "to": "0x910a4aADabb3A7B3F7879118332E13Da66b68D77",
      "value": {
        "_hex": "0xd02ab486cedc0000"
      },
      "nonce": 23,
      "data": "0x",
      "r": "0xb6870a8d8f15a7aab69c39660b51c86fe9f98c2204f9f65b5802ae9a4802f9e5",
      "s": "0x169873dc26ed09e565b6d0e44c008b769e8a025f9a354546ddc61ddf6994ffa4",
      "v": 28,
      "creates": null,
      "raw": "0xf86c17850d54e8203282520894910a4aadabb3a7b3f7879118332e13da66b68d7788d02ab486cedc0000801ca0b6870a8d8f15a7aab69c39660b51c86fe9f98c2204f9f65b5802ae9a4802f9e5a0169873dc26ed09e565b6d0e44c008b769e8a025f9a354546ddc61ddf6994ffa4",
      "networkId": 0,
      "chainId": 0
    }
  ]
}