{
  "hash": "0x5fe2ecb025d122cfc91e0fc7df96e84c3e492962a3c04a27f243558dd6eb2715",
  "parentHash": "0x2f552fb59c802c5d87ed31655b540f1252127c6c2a06c12cba349b330e8f5bf8",
  "number": 113798,
  "timestamp": 1440029777,
  "nonce": "0xe9483bfa93602640",
  "difficulty": 4444883077002,
  "gasLimit": {
    "_hex": "0x2fefd8"
  },
  "gasUsed": {
    "_hex": "0xa8b1"
  },
  "miner": "0x52bc44d5378309EE2abF1539BF71dE1b7d7bE3b5",
  "extraData": "0x476574682f76312e302e312d39353236303766382f6c696e75782f676f312e34",
  "transactions": [
    {
      "hash": "0xcb6ccd3908c4c6f049992291ce2b1c4b1cb614b575fb73181dc16f024ad5ad0a",
      "blockHash": "0x5fe2ecb025d122cfc91e0fc7df96e84c3e492962a3c04a27f243558dd6eb2715",
      "blockNumber": 113798,
      "transactionIndex": 0,
      "confirmations": null,
      "from": "0x77b97786B0FB73e55d9E92d4B182beFBF346F979",
      "gasPrice": {
        "_hex": "0xd9eb63d3d"
      },
      "gasLimit": {
        "_hex": "0x2fefd8"
      },
      "to": "0xe37673A8e0aAa536828f0d5B0Ddba12fece1115c",
      "value": {
        "_hex": "0x0"
      },
      "nonce": 21,
      "data": "0xa6b756c50000000000000000000000000000000036943a9cdc96e259860192803b6af09d00000000000000000000000000000000000000000000000000000000000014d6",
      "r": "0x766cbee0185b1a990f92529958c7a211f030612c1b2774778471aec20193be6c",
      "s": "0x1750386008eb0e642033ee97c9a7f41e4efa5fa5ca07e9e5dffd8f5a311a053a",
      "v": 27,
      "creates": null,
      "raw": "0xf8aa15850d9eb63d3d832fefd894e37673a8e0aaa536828f0d5b0ddba12fece1115c80b844a6b756c50000000000000000000000000000000036943a9cdc96e259860192803b6af09d00000000000000000000000000000000000000000000000000000000000014d61ba0766cbee0185b1a990f92529958c7a211f030612c1b2774778471aec20193be6ca01750386008eb0e642033ee97c9a7f41e4efa5fa5ca07e9e5dffd8f5a311a053a",
      "networkId": 0,
      "chainId": 0
    }
  ]
}