{
  "hash": "0x09193bbd7503f0e2eb7d4ab97d1bd2495f0572b446d3102600433ffd5beda999",
  "parentHash": "0x0e07f30dfec4a893fc8744e1404fafb20da81f8ebd79b5310cf3aba8ffa94d77",
  "number": 64468,
  "timestamp": 1439221211,
  "nonce": "0x68e3f5c2bfd54c08",
  "difficulty": 1876615761896,
  "gasLimit": {
    "_hex": "0x2fefd8"
  },
  "gasUsed": {
    "_hex": "0xa410"
  },
  "miner": "0x4B043a4d2AA90F3C8DC80144C4a996a4691F0239",
  "extraData": "0x",
  "transactions": [
    {
      "hash": "0x8910bc3df156dbbd54f104052c370ad4f7b393de65328ffe31b6c90806ea2da9",
      "blockHash": "0x09193bbd7503f0e2eb7d4ab97d1bd2495f0572b446d3102600433ffd5beda999",
      "blockNumber": 64468,
      "transactionIndex": 0,
      "confirmations": null,
      "from": "0x6CEaB690C13c569062c3E85A2A27fAF1eBad174b",
      "gasPrice": {
        "_hex": "0x10dcf7406d5"
      },
      "gasLimit": {
        "_hex": "0x15f90"
      },
      "to": "0xC916425CB50d7f1d6DF5178D0709844a9C92C50F",
      "value": {
        "_hex": "0xde0b6b3a7640000"
      },
      "nonce": 0,
      "data": "0x",
      "r": "0x1dc5d3597b433035675f3ba81904c0343a8566fb6107c4a5dc43fe618f992a07",
      "s": "0x11635af3c8f2df659e8369b466c94ce27a6377579abfee5060ff566922efb544",
      "v": 28,
      "creates": null,
      "raw": "0xf86e8086010dcf7406d583015f9094c916425cb50d7f1d6df5178d0709844a9c92c50f880de0b6b3a7640000801ca01dc5d3597b433035675f3ba81904c0343a8566fb6107c4a5dc43fe618f992a07a011635af3c8f2df659e8369b466c94ce27a6377579abfee5060ff566922efb544",
      "networkId": 0,
      "chainId": 0
    },
    {
      "hash": "0x4f127ea0cd864484fb34918ba8745b941c887a298d16c21f672717a50f688c8a",
      "blockHash": "0x09193bbd7503f0e2eb7d4ab97d1bd2495f0572b446d3102600433ffd5beda999",
      "blockNumber": 64468,
      "transactionIndex": 1,
      "confirmations": null,
      "from": "0x7A3F5314eFB62CDe77750d52dD2bf12eF74a5D2a",
      "gasPrice": {
        "_hex": "0xdceea6013"
      },
      "gasLimit": {
        "_hex": "0x5208"
      },
      "to": "0x32Be343B94f860124dC4fEe278FDCBD38C102D88",
      "value": {
        "_hex": "0x56bb12dfde6718000"
      },
      "nonce": 0,
      "data": "0x",
      "r": "0x33fad7fadfb8f334dd9a3db8428d7e97ccf999d28342ec2a0a4e2055e7994d2f",
      "s": "0x33ebd2bc881823e91ec064542d6aacfd860b2d79944c66e8e6344c6361321bf6",
      "v": 27,
      "creates": null,
      "raw": "0xf86d80850dceea60138252089432be343b94f860124dc4fee278fdcbd38c102d8889056bb12dfde6718000801ba033fad7fadfb8f334dd9a3db8428d7e97ccf999d28342ec2a0a4e2055e7994d2fa033ebd2bc881823e91ec064542d6aacfd860b2d79944c66e8e6344c6361321bf6",
      "networkId": 0,
      "chainId": 0
    }
  ]
}