{
  "hash": "0x9c1277864a6de74822af6e94da19a9444c13f7a696db1db5d8277419eb127fb6",
  "parentHash": "0xcb6a2a972315ec8d589beee47259895cfcc2ba3ea4291721cf4a6ea956bbc594",
  "number": 108914,
  "timestamp": 1439948289,
  "nonce": "0x3011fc4cf061f1af",
  "difficulty": 4378520059066,
  "gasLimit": {
    "_hex": "0x2fefd8"
  },
  "gasUsed": {
    "_hex": "0xa410"
  },
  "miner": "0x31995C46B15C84523cDEE26f49A681b8237e43F5",
  "extraData": "0x476574682f76312e302e312f77696e646f77732f676f312e342e32",
  "transactions": [
    {
      "hash": "0x980b0ea399c8835d79457e9cb479ce3ac7baa0181daf0efa705cecd835bef577",
      "blockHash": "0x9c1277864a6de74822af6e94da19a9444c13f7a696db1db5d8277419eb127fb6",
      "blockNumber": 108914,
      "transactionIndex": 0,
      "confirmations": null,
      "from": "0xefe8745972E5cF49d99F05a72ad83A23db5D0A07",
      "gasPrice": {
        "_hex": "0xd8364fc25"
      },
      "gasLimit": {
        "_hex": "0x15f90"
      },
      "to": "0x7f90aec45d974ec79b0CB8470033F2D82D8E68f6",
      "value": {
        "_hex": "0x4bffe92109000"
      },
      "nonce": 0,
      "data": "0x",
      "r": "0x7b4cfb3cfb1c51fdf15b151df037d354e879b6b38a694ec8ad52829a426b5e9a",
      "s": "0x77b9ef821b0ef35fc02f5e8417ce59de4a585ddcd6be3ed6cf72f1786b0e5907",
      "v": 27,
      "creates": null,
      "raw": "0xf86c80850d8364fc2583015f90947f90aec45d974ec79b0cb8470033f2d82d8e68f68704bffe92109000801ba07b4cfb3cfb1c51fdf15b151df037d354e879b6b38a694ec8ad52829a426b5e9aa077b9ef821b0ef35fc02f5e8417ce59de4a585ddcd6be3ed6cf72f1786b0e5907",
      "networkId": 0,
      "chainId": 0
    },
    {
      "hash": "0xd0d088cb8a47ddc55b171659fce582cd6b347ddf818c267577b6855a2740a6ea",
      "blockHash": "0x9c1277864a6de74822af6e94da19a9444c13f7a696db1db5d8277419eb127fb6",
      "blockNumber": 108914,
      "transactionIndex": 1,
      "confirmations": null,
      "from": "0xefe8745972E5cF49d99F05a72ad83A23db5D0A07",
      "gasPrice": {
        "_hex": "0xd8364fc25"
      },
      "gasLimit": {
        "_hex": "0x15f90"
      },
      "to": "0x7f90aec45d974ec79b0CB8470033F2D82D8E68f6",
      "value": {
        "_hex": "0x4bffe92109000"
      },
      "nonce": 1,
      "data": "0x",
      "r": "0x94be5703d1025bc71eababc964cfb4cdb9f383baa89df5c813dd8a6d5840e315",
      "s": "0x487f413530b6735095cdbe96ffa9a7a617902a69a11adc346173fe4c5a409514",
      "v": 28,
      "creates": null,
      "raw": "0xf86c01850d8364fc2583015f90947f90aec45d974ec79b0cb8470033f2d82d8e68f68704bffe92109000801ca094be5703d1025bc71eababc964cfb4cdb9f383baa89df5c813dd8a6d5840e315a0487f413530b6735095cdbe96ffa9a7a617902a69a11adc346173fe4c5a409514",
      "networkId": 0,
      "chainId": 0
    }
  ]
}