{
  "hash": "0x80128616f022462364775e29d6e5730f0b8ab36ec472d59d28c65100c71dc96c",
  "parentHash": "0x498d034642aef489be3fca4fbfac5a7e4e771c378bf062d7e86cd1dbbb67ddbb",
  "number": 84852,
  "timestamp": 1439555339,
  "nonce": "0x165d1139ef3ef3ac",
  "difficulty": 2655543835486,
  "gasLimit": {
    "_hex": "0x2fefd8"
  },
  "gasUsed": {
    "_hex": "0x19a28"
  },
  "miner": "0x580992B51e3925e23280EfB93d3047C82f17E038",
  "extraData": "0x476574682f76312e302e312f6c696e75782f676f312e342e32",
  "transactions": [
    {
      "hash": "0x87df1ce375ee3a846e9d83b38a98aa8eefc93a2aa3e817a895f6ec378965fe08",
      "blockHash": "0x80128616f022462364775e29d6e5730f0b8ab36ec472d59d28c65100c71dc96c",
      "blockNumber": 84852,
      "transactionIndex": 0,
      "confirmations": null,
      "from": "0x120A270bbC009644e35F0bB6ab13f95b8199c4ad",
      "gasPrice": {
        "_hex": "0xddc647043"
      },
      "gasLimit": {
        "_hex": "0x3d090"
      },
      "to": "0x6bf2EA4d4A45372a71f9c74e853C538fc773f9f1",
      "value": {
        "_hex": "0x1a3953c1fa31e0800"
      },
      "nonce": 436,
      "data": "0x",
      "r": "0x78679fdee78b2f6fbb64213fd03cb93f3d740908da59184ca908a80b7e5cc204",
      "s": "0x0bb15a1766925da45fee1a0933775175f49a2e324c25b41473f1b18dedb5288b",
      "v": 27,
      "creates": null,
      "raw": "0xf8708201b4850ddc6470438303d090946bf2ea4d4a45372a71f9c74e853c538fc773f9f18901a3953c1fa31e0800801ba078679fdee78b2f6fbb64213fd03cb93f3d740908da59184ca908a80b7e5cc204a00bb15a1766925da45fee1a0933775175f49a2e324c25b41473f1b18dedb5288b",
      "networkId": 0,
      "chainId": 0
    },
    {
      "hash": "0xba651bc941a741c44836e9757e7349861fab4725725d5978e44e73c68bdb76c7",
      "blockHash": "0x80128616f022462364775e29d6e5730f0b8ab36ec472d59d28c65100c71dc96c",
      "blockNumber": 84852,
      "transactionIndex": 1,
      "confirmations": null,
      "from": "0xF11940EA05aA9CC3F13aCF5C5cA6EDCF312E3Aec",
      "gasPrice": {
        "_hex": "0xd74a896c4"
      },
      "gasLimit": {
        "_hex": "0x15f90"
      },
      "to": "0x59C62d3D43f9EA1c4118d98c188AA5d028b8bB8E",
      "value": {
        "_hex": "0x8ac7230489e80000"
      },
      "nonce": 9,
      "data": "0x",
      "r": "0xcac7461ca4801344ef7b9ca87d97e867feb5b3c5f08fcd4e6236a41a73121f35",
      "s": "0x2f81055dfb6cdea97097daa816923941ab37edf90df50e5a6079474db69a166d",
      "v": 28,
      "creates": null,
      "raw": "0xf86d09850d74a896c483015f909459c62d3d43f9ea1c4118d98c188aa5d028b8bb8e888ac7230489e80000801ca0cac7461ca4801344ef7b9ca87d97e867feb5b3c5f08fcd4e6236a41a73121f35a02f81055dfb6cdea97097daa816923941ab37edf90df50e5a6079474db69a166d",
      "networkId": 0,
      "chainId": 0
    },
    {
      "hash": "0xcb4f0f6f8b6b1013ef75423da8faebf6c34f0f5a9863bd70df9771859e28818e",
      "blockHash": "0x80128616f022462364775e29d6e5730f0b8ab36ec472d59d28c65100c71dc96c",
      "blockNumber": 84852,
      "transactionIndex": 2,
      "confirmations": null,
      "from": "0x79d5794171E11dd5C2f0e26E1C187319db2FE6f7",
      "gasPrice": {
        "_hex": "0xcf212549f"
      },
      "gasLimit": {
        "_hex": "0x5208"
      },
      "to": "0x32Be343B94f860124dC4fEe278FDCBD38C102D88",
      "value": {
        "_hex": "0x455f6b908d9ed800"
      },
      "nonce": 25,
      "data": "0x",
      "r": "0x38a394ea8358e97b832db686e3171f4b5aebe3200494829f2233da0b0a4a653b",
      "s": "0x2c98d132df40b9e1e85f14b2a9e681ad0817fa79732697c53ba509ba508e4cad",
      "v": 28,
      "creates": null,
      "raw": "0xf86c19850cf212549f8252089432be343b94f860124dc4fee278fdcbd38c102d8888455f6b908d9ed800801ca038a394ea8358e97b832db686e3171f4b5aebe3200494829f2233da0b0a4a653ba02c98d132df40b9e1e85f14b2a9e681ad0817fa79732697c53ba509ba508e4cad",
      "networkId": 0,
      "chainId": 0
    },
    {
      "hash": "0x9866a4e222dae5e3fc96c25a5263fe52ca2148bffe393e9eabd60917a644f8a4",
      "blockHash": "0x80128616f022462364775e29d6e5730f0b8ab36ec472d59d28c65100c71dc96c",
      "blockNumber": 84852,
      "transactionIndex": 3,
      "confirmations": null,
      "from": "0x61F642543d22bAf5382908a714E675Cc0b51ea45",
      "gasPrice": {
        "_hex": "0xcf212549f"
      },
      "gasLimit": {
        "_hex": "0x5208"
      },
      "to": "0x32Be343B94f860124dC4fEe278FDCBD38C102D88",
      "value": {
        "_hex": "0x8ac2fd12d292d800"
      },
      "nonce": 3,
      "data": "0x",
      "r": "0x82ba3a76719754bb52c55a43e92d5d676e531f4489e1ecb5cd21f4b7b362f795",
      "s": "0x44bc160db185e9398f50fdeabb2469689a960070356a0e551c7ea786cf4853ea",
      "v": 27,
      "creates": null,
      "raw": "0xf86c03850cf212549f8252089432be343b94f860124dc4fee278fdcbd38c102d88888ac2fd12d292d800801ba082ba3a76719754bb52c55a43e92d5d676e531f4489e1ecb5cd21f4b7b362f795a044bc160db185e9398f50fdeabb2469689a960070356a0e551c7ea786cf4853ea",
      "networkId": 0,
      "chainId": 0
    },
    {
      "hash": "0x99950de112913cfeea46cdcaca5712a84a07b0d05f35dc8c856b2644a032fa33",
      "blockHash": "0x80128616f022462364775e29d6e5730f0b8ab36ec472d59d28c65100c71dc96c",
      "blockNumber": 84852,
      "transactionIndex": 4,
      "confirmations": null,
      "from": "0x32Be343B94f860124dC4fEe278FDCBD38C102D88",
      "gasPrice": {
        "_hex": "0xcf212549f"
      },
      "gasLimit": {
        "_hex": "0x5208"
      },
      "to": "0xB482a9A3A5D373599dE82e79E8Dba9F5C721248A",
      "value": {
        "_hex": "0x8ac4ea9562ebf0000"
      },
      "nonce": 708,
      "data": "0x",
      "r": "0x76e831a2ebeedc1eb9ed42237b5c5e5cf8c6c8e4f6535260bd2ff844067c5830",
      "s": "0x0dbbc86d96eb87f1879f0ec0f4015b5dc7b115c74e17e65e6909e08b0314f9a1",
      "v": 28,
      "creates": null,
      "raw": "0xf86f8202c4850cf212549f82520894b482a9a3a5d373599de82e79e8dba9f5c721248a8908ac4ea9562ebf0000801ca076e831a2ebeedc1eb9ed42237b5c5e5cf8c6c8e4f6535260bd2ff844067c5830a00dbbc86d96eb87f1879f0ec0f4015b5dc7b115c74e17e65e6909e08b0314f9a1",
      "networkId": 0,
      "chainId": 0
    }
  ]
}