{
  "hash": "0xdddda8da7156de5291df07769780e5be4352a5f2a6b14d973e2e2513335944fc",
  "parentHash": "0x1da1e671c689555114b2c3342cd7ea01595157bc61e0d2a73c558eacf2ace5fe",
  "number": 101916,
  "timestamp": 1439830001,
  "nonce": "0xa8d4bfab6f6a51cf",
  "difficulty": 3897586434651,
  "gasLimit": {
    "_hex": "0x2fefd8"
  },
  "gasUsed": {
    "_hex": "0xa410"
  },
  "miner": "0xf927a40C8B7F6E07c5af7FA2155B4864a4112B13",
  "extraData": "0x",
  "transactions": [
    {
      "hash": "0x5753e386df2184ce9d5f6830b754c7574ec4f64ea642789ae2580db923a9d7cd",
      "blockHash": "0xdddda8da7156de5291df07769780e5be4352a5f2a6b14d973e2e2513335944fc",
      "blockNumber": 101916,
      "transactionIndex": 0,
      "confirmations": null,
      "from": "0x557C2806B6ceA65a66F415bb2Ed1ce897B340745",
      "gasPrice": {
        "_hex": "0xce4691875"
      },
      "gasLimit": {
        "_hex": "0x5208"
      },
      "to": "0x32Be343B94f860124dC4fEe278FDCBD38C102D88",
      "value": {
        "_hex": "0x5c1ce0fc23d7e4000"
      },
      "nonce": 6,
      "data": "0x",
      "r": "0xdc287fe50c849077804d7282fc6edda556167eb123ab8f76aab35aa1f19e61f0",
      "s": "0x5dd39af0bdd342431a62605a23885b3b1f336dcabe22d85602b016d0dea694a3",
      "v": 28,
      "creates": null,
      "raw": "0xf86d06850ce46918758252089432be343b94f860124dc4fee278fdcbd38c102d888905c1ce0fc23d7e4000801ca0dc287fe50c849077804d7282fc6edda556167eb123ab8f76aab35aa1f19e61f0a05dd39af0bdd342431a62605a23885b3b1f336dcabe22d85602b016d0dea694a3",
      "networkId": 0,
      "chainId": 0
    },
    {
      "hash": "0xa022a1ca529f8a85297e3325be486ab2ba8a3cb27fda0fe7f2352c9cf8b51294",
      "blockHash": "0xdddda8da7156de5291df07769780e5be4352a5f2a6b14d973e2e2513335944fc",
      "blockNumber": 101916,
      "transactionIndex": 1,
      "confirmations": null,
      "from": "0x80bA7fe0Fc041a04C13C6Fdc9616aEd480A8782B",
      "gasPrice": {
        "_hex": "0xce4691875"
      },
      "gasLimit": {
        "_hex": "0x5208"
      },
      "to": "0x32Be343B94f860124dC4fEe278FDCBD38C102D88",
      "value": {
        "_hex": "0x1a051477bd0ba4000"
      },
      "nonce": 3,
      "data": "0x",
      "r": "0xe85a97c9b973a0e7b3dcd175d4caee1f34c0eaf04b4151ff5fa0ba9fb0ec872d",
      "s": "0x1fcd00e955ac5c469900555cb55014afde2a629cb361b00a53a00e0bd696bf5a",
      "v": 28,
      "creates": null,
      "raw": "0xf86d03850ce46918758252089432be343b94f860124dc4fee278fdcbd38c102d888901a051477bd0ba4000801ca0e85a97c9b973a0e7b3dcd175d4caee1f34c0eaf04b4151ff5fa0ba9fb0ec872da01fcd00e955ac5c469900555cb55014afde2a629cb361b00a53a00e0bd696bf5a",
      "networkId": 0,
      "chainId": 0
    }
  ]
}