{
  "hash": "0x4ba9d4e3e9b3b1267ca99c1969f86d14d3d624795c6b73c6d50db22e7da93452",
  "parentHash": "0x5c7285d38374f24a9ae96ef2fce258384a901d55e132a4987d1d129e4b24d9d6",
  "number": 91029,
  "timestamp": 1439649356,
  "nonce": "0x94adf7ba1e81880f",
  "difficulty": 3428972963706,
  "gasLimit": {
    "_hex": "0x2fefd8"
  },
  "gasUsed": {
    "_hex": "0x5208"
  },
  "miner": "0xf927a40C8B7F6E07c5af7FA2155B4864a4112B13",
  "extraData": "0x",
  "transactions": [
    {
      "hash": "0x9a8cea0785266ea839c003ec93c70c48f0a8adf430d142c858fe2b1ba0dc5d5e",
      "blockHash": "0x4ba9d4e3e9b3b1267ca99c1969f86d14d3d624795c6b73c6d50db22e7da93452",
      "blockNumber": 91029,
      "transactionIndex": 0,
      "confirmations": null,
      "from": "0xad7210d76107F888745616FFF7979623b84F928c",
      "gasPrice": {
        "_hex": "0xd7d40ace3"
      },
      "gasLimit": {
        "_hex": "0x61a8"
      },
      "to": "0xF109ca710C0Df51c1a86dBA1B0BA0Ed038114463",
      "value": {
        "_hex": "0xb67e2f540c630000"
      },
      "nonce": 10,
      "data": "0x",
      "r": "0x0efc978b74330a7ccc814f9091f77d743eab9af15db61298badc8b08a4a85519",
      "s": "0x3f29b345f7d6b46be2e5c6b63793e5789fc1ecce4d5aeeae7953144467d5179a",
      "v": 28,
      "creates": null,
      "raw": "0xf86c0a850d7d40ace38261a894f109ca710c0df51c1a86dba1b0ba0ed03811446388b67e2f540c630000801ca00efc978b74330a7ccc814f9091f77d743eab9af15db61298badc8b08a4a85519a03f29b345f7d6b46be2e5c6b63793e5789fc1ecce4d5aeeae7953144467d5179a",
      "networkId": 0,
      "chainId": 0
    }
  ]
}