{
  "hash": "0x25f83a596942a92895973f47d50521fd6871581288d4eac13a9c3e8a312dd5fa",
  "parentHash": "0x63f09fc7cca189a1d1d64983d80883bac5b30fda5a5c1c2f757bd357ef9abac4",
  "number": 90062,
  "timestamp": 1439633576,
  "nonce": "0x3798690c56578e47",
  "difficulty": 3345023498526,
  "gasLimit": {
    "_hex": "0x2fefd8"
  },
  "gasUsed": {
    "_hex": "0x8c11"
  },
  "miner": "0xe6A7a1d47ff21B6321162AEA7C6CB457D5476Bca",
  "extraData": "0x476574682f76312e302e312d38326566323666362f6c696e75782f676f312e34",
  "transactions": [
    {
      "hash": "0x5f3b41e6e90cc30c3b132df6c7a5605f9fa1e8e5975c5c06697ee4161f3a3fd0",
      "blockHash": "0x25f83a596942a92895973f47d50521fd6871581288d4eac13a9c3e8a312dd5fa",
      "blockNumber": 90062,
      "transactionIndex": 0,
      "confirmations": null,
      "from": "0x5eD8Cee6b63b1c6AFce3AD7c92f4fD7E1B8fAd9F",
      "gasPrice": {
        "_hex": "0xce18039ba"
      },
      "gasLimit": {
        "_hex": "0xf4240"
      },
      "to": "0xde0B295669a9FD93d5F28D9Ec85E40f4cb697BAe",
      "value": {
        "_hex": "0x0"
      },
      "nonce": 5,
      "data": "0x797af627506218608039ab67bf6ba0fa6fdea7b596d02d1189b72b3d6e2899158bcfff98",
      "r": "0x3524b69116d59ffff9ed42fb2ed2169c396632297372ddf12ccb3a4cb03e9e22",
      "s": "0x0472682e5c35555b5eee88439c4f3f6932c19f5cc2c8f70bc1cd1591266bdeee",
      "v": 27,
      "creates": null,
      "raw": "0xf88905850ce18039ba830f424094de0b295669a9fd93d5f28d9ec85e40f4cb697bae80a4797af627506218608039ab67bf6ba0fa6fdea7b596d02d1189b72b3d6e2899158bcfff981ba03524b69116d59ffff9ed42fb2ed2169c396632297372ddf12ccb3a4cb03e9e22a00472682e5c35555b5eee88439c4f3f6932c19f5cc2c8f70bc1cd1591266bdeee",
      "networkId": 0,
      "chainId": 0
    }
  ]
}