{
  "hash": "0x3117bd3cbddd8395cd0fee6b1ad31613bfa7a80843d3e59dade34d971aed7d77",
  "parentHash": "0xacd9cb57f2fa4f5b7121fbe86f6d63368667f7734b4f8cd2c0950040a935f847",
  "number": 100657,
  "timestamp": 1439810020,
  "nonce": "0x24eae821b2e5379b",
  "difficulty": 3832118326156,
  "gasLimit": {
    "_hex": "0x2fefd8"
  },
  "gasUsed": {
    "_hex": "0x5208"
  },
  "miner": "0xe6A7a1d47ff21B6321162AEA7C6CB457D5476Bca",
  "extraData": "0x476574682f76312e302e312d38326566323666362f6c696e75782f676f312e34",
  "transactions": [
    {
      "hash": "0x5fe20af51ed9e370afb41e50f661760819b8919a1ad9e64b97c26c1c1446f7af",
      "blockHash": "0x3117bd3cbddd8395cd0fee6b1ad31613bfa7a80843d3e59dade34d971aed7d77",
      "blockNumber": 100657,
      "transactionIndex": 0,
      "confirmations": null,
      "from": "0x5175f107219871c88e0C4202F14A5f34088b54c8",
      "gasPrice": {
        "_hex": "0x746a528800"
      },
      "gasLimit": {
        "_hex": "0x5b04"
      },
      "to": "0x90fba3C13F19F8cf72A3Bb9EE63C8f728F548654",
      "value": {
        "_hex": "0x2386f26fc1000000"
      },
      "nonce": 8,
      "data": "0x",
      "r": "0x31d11bad016a9b87536a406ef026d65bc05d9dc35b3022e1d9e35329fe0e1216",
      "s": "0x909b8687debd3b3828ca5a91a20eefdbc898f70415a39112d417dcc34b7e94ab",
      "v": 27,
      "creates": null,
      "raw": "0xf86c0885746a528800825b049490fba3c13f19f8cf72a3bb9ee63c8f728f548654882386f26fc1000000801ba031d11bad016a9b87536a406ef026d65bc05d9dc35b3022e1d9e35329fe0e1216a0909b8687debd3b3828ca5a91a20eefdbc898f70415a39112d417dcc34b7e94ab",
      "networkId": 0,
      "chainId": 0
    }
  ]
}