{
  "hash": "0x4646f32655f6bcdd8ed25b5b70154b6651a34f9f722e151f89fb960d71196249",
  "parentHash": "0x54f894951e57a34c897f9f22e83b2be890b00093300309791ee1725b3b2c8258",
  "number": 69716,
  "timestamp": 1439308550,
  "nonce": "0xbd055c1bf8798436",
  "difficulty": 2094251036151,
  "gasLimit": {
    "_hex": "0x2fefd8"
  },
  "gasUsed": {
    "_hex": "0x5208"
  },
  "miner": "0x55D1554b08a5311C5c0A0B6464162192f9D2f884",
  "extraData": "0x",
  "transactions": [
    {
      "hash": "0x4eef480dcada1c9bdeac7c00c0b77b46ceaee3f4e259e8108b7679735162611e",
      "blockHash": "0x4646f32655f6bcdd8ed25b5b70154b6651a34f9f722e151f89fb960d71196249",
      "blockNumber": 69716,
      "transactionIndex": 0,
      "confirmations": null,
      "from": "0x8bae48F227d978d084B009b775222BAaF61ed9fe",
      "gasPrice": {
        "_hex": "0xba43b7400"
      },
      "gasLimit": {
        "_hex": "0x5267"
      },
      "to": "0x000Df160997ba9420e4622996b05447871848834",
      "value": {
        "_hex": "0x6f05b59d3b20000"
      },
      "nonce": 17,
      "data": "0x",
      "r": "0xc5aa00ce1cb4697fbf346295d07e39f820c8be78ac65abd1417ffb8fdfed229d",
      "s": "0x41140b6b488987fc28f76869476573acb4a8694fb7c2bcd1b5a29fe6a6dfe681",
      "v": 28,
      "creates": null,
      "raw": "0xf86c11850ba43b740082526794000df160997ba9420e4622996b054478718488348806f05b59d3b20000801ca0c5aa00ce1cb4697fbf346295d07e39f820c8be78ac65abd1417ffb8fdfed229da041140b6b488987fc28f76869476573acb4a8694fb7c2bcd1b5a29fe6a6dfe681",
      "networkId": 0,
      "chainId": 0
    }
  ]
}