{
  "hash": "0x7c65a812b9bc42bcc4dee2b3eaa0ad049e05332304129db6f58b85da29b94053",
  "parentHash": "0x55c333ca6cbddb43b8e56ba64647bcf88e52f0f60d82af3c8dad41db3c0648e1",
  "number": 58841,
  "timestamp": 1439127580,
  "nonce": "0xde5d0f942801dd52",
  "difficulty": 1705655347518,
  "gasLimit": {
    "_hex": "0x2fefd8"
  },
  "gasUsed": {
    "_hex": "0xa410"
  },
  "miner": "0x72e3Ea8234b449531A581F05f1c1E07cceb559d2",
  "extraData": "0x476574682f76312e302e312f6c696e75782f676f312e342e32",
  "transactions": [
    {
      "hash": "0xa1c0e1460c46349f05c4b3879b180deb45ae64ebe6fff46ba6474639fed826cd",
      "blockHash": "0x7c65a812b9bc42bcc4dee2b3eaa0ad049e05332304129db6f58b85da29b94053",
      "blockNumber": 58841,
      "transactionIndex": 0,
      "confirmations": null,
      "from": "0x32Be343B94f860124dC4fEe278FDCBD38C102D88",
      "gasPrice": {
        "_hex": "0xd4fb1e135"
      },
      "gasLimit": {
        "_hex": "0x5208"
      },
      "to": "0x9c344098BA615A398F11D009905b177C44a7b602",
      "value": {
        "_hex": "0xd99a8cec7e20000"
      },
      "nonce": 98,
      "data": "0x",
      "r": "0xda46994b5851355001414e309bd28cffe31682884f2550589513e3337bd46e80",
      "s": "0x409758e9327dc6b271d76e2951185dbd4b283022e7dd24161c3a3e368747fd5b",
      "v": 28,
      "creates": null,
      "raw": "0xf86c62850d4fb1e135825208949c344098ba615a398f11d009905b177c44a7b602880d99a8cec7e20000801ca0da46994b5851355001414e309bd28cffe31682884f2550589513e3337bd46e80a0409758e9327dc6b271d76e2951185dbd4b283022e7dd24161c3a3e368747fd5b",
      "networkId": 0,
      "chainId": 0
    },
    {
      "hash": "0x320d63662945161b3c30b97797a227df4cc4200202cb5d70486078a6e696b110",
      "blockHash": "0x7c65a812b9bc42bcc4dee2b3eaa0ad049e05332304129db6f58b85da29b94053",
      "blockNumber": 58841,
      "transactionIndex": 1,
      "confirmations": null,
      "from": "0x32Be343B94f860124dC4fEe278FDCBD38C102D88",
      "gasPrice": {
        "_hex": "0xd4fb1e135"
      },
      "gasLimit": {
        "_hex": "0x5208"
      },
      "to": "0xC2892E890641c57e54FF8608B2B192ed5dC19a0F",
      "value": {
        "_hex": "0x1ac57a84f5b9ed000"
      },
      "nonce": 99,
      "data": "0x",
      "r": "0xca140d6f08f3b1027e91270cd6d39606118e0fca28e4ac456b8d0c5d6304e001",
      "s": "0x43bf5ef6100f8f54e32e4e8300efea47f2433b714a78d243447e785f4bf84caf",
      "v": 27,
      "creates": null,
      "raw": "0xf86d63850d4fb1e13582520894c2892e890641c57e54ff8608b2b192ed5dc19a0f8901ac57a84f5b9ed000801ba0ca140d6f08f3b1027e91270cd6d39606118e0fca28e4ac456b8d0c5d6304e001a043bf5ef6100f8f54e32e4e8300efea47f2433b714a78d243447e785f4bf84caf",
      "networkId": 0,
      "chainId": 0
    }
  ]
}