{
  "hash": "0x9d1acdb55e55717fefa300b5578bada84b0615dddce494f69d0642aa90a4d3a4",
  "parentHash": "0x05220a9b3af1d2f5ea24c5d2f97b6897a208e38f78ed70f36546069d5ce1c06e",
  "number": 85403,
  "timestamp": 1439563074,
  "nonce": "0xcdcfdfc98d8cf3ae",
  "difficulty": 2740997945050,
  "gasLimit": {
    "_hex": "0x2fefd8"
  },
  "gasUsed": {
    "_hex": "0xf618"
  },
  "miner": "0xB5EDD17d2582A94610ebf0C6832c1652EBBBe210",
  "extraData": "0x476574682f76312e302e312d38326566323666362f6c696e75782f676f312e34",
  "transactions": [
    {
      "hash": "0x9083b8f8056d9051f242e8bc2025561d23dd9abe87b12cbf916682a34f90254c",
      "blockHash": "0x9d1acdb55e55717fefa300b5578bada84b0615dddce494f69d0642aa90a4d3a4",
      "blockNumber": 85403,
      "transactionIndex": 0,
      "confirmations": null,
      "from": "0xA43B1A989f607Edc8041319870e1A0ae96D84aA0",
      "gasPrice": {
        "_hex": "0xdadb0701b"
      },
      "gasLimit": {
        "_hex": "0x5208"
      },
      "to": "0x32Be343B94f860124dC4fEe278FDCBD38C102D88",
      "value": {
        "_hex": "0x56bc5fc8dc6dd00000"
      },
      "nonce": 1,
      "data": "0x",
      "r": "0xd90eb0608b9984d9df8eb27d85d6e16325acd0fe75bc0d848ddd74762d440c11",
      "s": "0x0fbbb26c9bfcc8a1cb045ea4aa9728f574d36dd8682b64a690a9c5e7ef74a7e0",
      "v": 28,
      "creates": null,
      "raw": "0xf86d01850dadb0701b8252089432be343b94f860124dc4fee278fdcbd38c102d888956bc5fc8dc6dd00000801ca0d90eb0608b9984d9df8eb27d85d6e16325acd0fe75bc0d848ddd74762d440c11a00fbbb26c9bfcc8a1cb045ea4aa9728f574d36dd8682b64a690a9c5e7ef74a7e0",
      "networkId": 0,
      "chainId": 0
    },
    {
      "hash": "0xd6b07bba8ad207b36173bf898eedab2ccc9c396b7f6bf2c6ee317349f7ee2d16",
      "blockHash": "0x9d1acdb55e55717fefa300b5578bada84b0615dddce494f69d0642aa90a4d3a4",
      "blockNumber": 85403,
      "transactionIndex": 1,
      "confirmations": null,
      "from": "0xd97FDBc4B51136F7381A02c672E73247F5D6927c",
      "gasPrice": {
        "_hex": "0xdadb0701b"
      },
      "gasLimit": {
        "_hex": "0x5208"
      },
      "to": "0x32Be343B94f860124dC4fEe278FDCBD38C102D88",
      "value": {
        "_hex": "0x13456107aaea8700000"
      },
      "nonce": 3,
      "data": "0x",
      "r": "0x39561f84aebe373a67b7e140e8f877f57eaedde425a61d82420b442d4ec32d08",
      "s": "0x1ba0231557ac8af7cb22a6263e84f0011dbf948cf54d1f9a2636dfcd47dbf63e",
      "v": 27,
      "creates": null,
      "raw": "0xf86e03850dadb0701b8252089432be343b94f860124dc4fee278fdcbd38c102d888a013456107aaea8700000801ba039561f84aebe373a67b7e140e8f877f57eaedde425a61d82420b442d4ec32d08a01ba0231557ac8af7cb22a6263e84f0011dbf948cf54d1f9a2636dfcd47dbf63e",
      "networkId": 0,
      "chainId": 0
    },
    {
      "hash": "0xd6663f69d342fb5428e787cc8ac5c6bd82af58ae59dda87e12c589d351cfc7cb",
      "blockHash": "0x9d1acdb55e55717fefa300b5578bada84b0615dddce494f69d0642aa90a4d3a4",
      "blockNumber": 85403,
      "transactionIndex": 2,
      "confirmations": null,
      "from": "0x8751DfA908C45A8aEf041FbeE9C17f9fE57Cc449",
      "gasPrice": {
        "_hex": "0xdadb0701b"
      },
      "gasLimit": {
        "_hex": "0x5208"
      },
      "to": "0x32Be343B94f860124dC4fEe278FDCBD38C102D88",
      "value": {
        "_hex": "0xad78a4e18b17c8000"
      },
      "nonce": 5,
      "data": "0x",
      "r": "0x4eb1cfd9be08e56fd5d36b867f17a38b71d9c897862d218631597f8949cf7aca",
      "s": "0x06d631eb58cce1b2becc4c30de23f16b40649002b9b935e409651589302819b1",
      "v": 27,
      "creates": null,
      "raw": "0xf86d05850dadb0701b8252089432be343b94f860124dc4fee278fdcbd38c102d88890ad78a4e18b17c8000801ba04eb1cfd9be08e56fd5d36b867f17a38b71d9c897862d218631597f8949cf7acaa006d631eb58cce1b2becc4c30de23f16b40649002b9b935e409651589302819b1",
      "networkId": 0,
      "chainId": 0
    }
  ]
}