{
  "hash": "0x3248d2e43410e486e57714869705db07911db91180d39e1dcd81c914d5d51c67",
  "parentHash": "0x5954355a71acf4be04f01767c201f99ef59af26b76f925301b23a660e669a6a3",
  "number": 110181,
  "timestamp": 1439969457,
  "nonce": "0x3bb41bd1e95307f8",
  "difficulty": 4371450600326,
  "gasLimit": {
    "_hex": "0x2fefd8"
  },
  "gasUsed": {
    "_hex": "0x5208"
  },
  "miner": "0xA1623430350C5df1b52B0b57483A5bb45d1796Da",
  "extraData": "0x476574682f76312e302e312d38326566323666362f6c696e75782f676f312e34",
  "transactions": [
    {
      "hash": "0xb9ac94311aabc40269e2dd50d6d25b34fcc916ac20d6a77c16409fd79f803c54",
      "blockHash": "0x3248d2e43410e486e57714869705db07911db91180d39e1dcd81c914d5d51c67",
      "blockNumber": 110181,
      "transactionIndex": 0,
      "confirmations": null,
      "from": "0xb1abce2918E21ddb93AA452731a12672A3d9F75a",
      "gasPrice": {
        "_hex": "0xd00545739"
      },
      "gasLimit": {
        "_hex": "0x5208"
      },
      "to": "0x32Be343B94f860124dC4fEe278FDCBD38C102D88",
      "value": {
        "_hex": "0x455f66ffbe4dc000"
      },
      "nonce": 159,
      "data": "0x",
      "r": "0x3f9887763b24978db1354fc5ff48cbd11f26f69bd16d3d6e785b32d76715314a",
      "s": "0x4a20bfdf412fb3554ec37ba258fb60925bbf9be6f288310ecb669717c182ee78",
      "v": 27,
      "creates": null,
      "raw": "0xf86d819f850d005457398252089432be343b94f860124dc4fee278fdcbd38c102d8888455f66ffbe4dc000801ba03f9887763b24978db1354fc5ff48cbd11f26f69bd16d3d6e785b32d76715314aa04a20bfdf412fb3554ec37ba258fb60925bbf9be6f288310ecb669717c182ee78",
      "networkId": 0,
      "chainId": 0
    }
  ]
}