{
  "hash": "0xf84aa11e8d5fa30780f752727a1788ae196304cb4969f0d0ab0a853b6940b074",
  "parentHash": "0xd32eb3b41f58cd648a3e7bd2bf0884ff15780fac38a7ef0a6407f92c81e70301",
  "number": 49507,
  "timestamp": 1438974586,
  "nonce": "0xd00091c11d3446b1",
  "difficulty": 1479208882087,
  "gasLimit": {
    "_hex": "0x337d1"
  },
  "gasUsed": {
    "_hex": "0x5208"
  },
  "miner": "0xEF247E639d49461D25F57e9362CadE3120910Ce0",
  "extraData": "0x476574682f76312e302e312f6c696e75782f676f312e342e32",
  "transactions": [
    {
      "hash": "0xd9189f8f83cc214aa3c2b6f0e6491d5a2c0a4ecc422627a95c6845083729e464",
      "blockHash": "0xf84aa11e8d5fa30780f752727a1788ae196304cb4969f0d0ab0a853b6940b074",
      "blockNumber": 49507,
      "transactionIndex": 0,
      "confirmations": null,
      "from": "0x834e9B529AC9Fa63B39A06f8D8C9B0D6791FA5dF",
      "gasPrice": {
        "_hex": "0xd8364fc25"
      },
      "gasLimit": {
        "_hex": "0x5208"
      },
      "to": "0xBCf9CBee07209482191e52B1136D0dF410dA4925",
      "value": {
        "_hex": "0xde0b6b3a7640000"
      },
      "nonce": 1,
      "data": "0x",
      "r": "0x947e3992a9a6678026bd6ac4529ced9eb6e14de7ff0a029913d3cfdefd544c97",
      "s": "0x14c63a4cc1f30fa4ab8841871c275bc0b594143c551f008a5c65100cce7a0f12",
      "v": 27,
      "creates": null,
      "raw": "0xf86c01850d8364fc2582520894bcf9cbee07209482191e52b1136d0df410da4925880de0b6b3a7640000801ba0947e3992a9a6678026bd6ac4529ced9eb6e14de7ff0a029913d3cfdefd544c97a014c63a4cc1f30fa4ab8841871c275bc0b594143c551f008a5c65100cce7a0f12",
      "networkId": 0,
      "chainId": 0
    }
  ]
}