{
  "hash": "0x05e9a6718419653cb4ee16d031a8dfbdc12461aba9c72c2a35390f707d8ecdfe",
  "parentHash": "0x5e4b6870538edc8b8598e2e06f34eadebd52d400d3b66d110fa45de85ebb1c6e",
  "number": 86308,
  "timestamp": 1439576518,
  "nonce": "0xc210026f38cf4827",
  "difficulty": 2851271307351,
  "gasLimit": {
    "_hex": "0x2fefd8"
  },
  "gasUsed": {
    "_hex": "0xa674"
  },
  "miner": "0xe6A7a1d47ff21B6321162AEA7C6CB457D5476Bca",
  "extraData": "0x476574682f76312e302e312d38326566323666362f6c696e75782f676f312e34",
  "transactions": [
    {
      "hash": "0x41e502e93dbf325788bb7eee94fdf0d3ecd40111233320b6bf0212b739e057d4",
      "blockHash": "0x05e9a6718419653cb4ee16d031a8dfbdc12461aba9c72c2a35390f707d8ecdfe",
      "blockNumber": 86308,
      "transactionIndex": 0,
      "confirmations": null,
      "from": "0x58e661D0ba73D6cF24099a5562B808F7B3673B68",
      "gasPrice": {
        "_hex": "0x110c8f7d8de"
      },
      "gasLimit": {
        "_hex": "0xc350"
      },
      "to": "0x2910543Af39abA0Cd09dBb2D50200b3E800A63D2",
      "value": {
        "_hex": "0x2b5e3af16b1880000"
      },
      "nonce": 0,
      "data": "0x454e364a5a34524830",
      "r": "0x1b52c346a86b7fb03957cf66c5091f77491d8f07b85dc33377b60ef385d28c08",
      "s": "0x2951b235746d56510a86a519cf854cab489731e5782092dd7740046c2b99cda3",
      "v": 28,
      "creates": null,
      "raw": "0xf87780860110c8f7d8de82c350942910543af39aba0cd09dbb2d50200b3e800a63d28902b5e3af16b188000089454e364a5a345248301ca01b52c346a86b7fb03957cf66c5091f77491d8f07b85dc33377b60ef385d28c08a02951b235746d56510a86a519cf854cab489731e5782092dd7740046c2b99cda3",
      "networkId": 0,
      "chainId": 0
    },
    {
      "hash": "0x36bf93e5b1d7413c20f91e230ea37c08c2d39e5489d4519373757dc1946d51cc",
      "blockHash": "0x05e9a6718419653cb4ee16d031a8dfbdc12461aba9c72c2a35390f707d8ecdfe",
      "blockNumber": 86308,
      "transactionIndex": 1,
      "confirmations": null,
      "from": "0xf4B1114a02EFe852013277F28ed88734Fa81E54f",
      "gasPrice": {
        "_hex": "0xd579a68ff"
      },
      "gasLimit": {
        "_hex": "0x15f90"
      },
      "to": "0x48a33958A96276E41c11e1359a9989BbaDfDb74A",
      "value": {
        "_hex": "0x3cb71f51fc5580000"
      },
      "nonce": 20,
      "data": "0x",
      "r": "0x9ba3c3e00e6583e7ed1e5bcb0634337207b49f8edeabb1a5fe32458f136670fc",
      "s": "0x33b2312e0e3705396e019ae9f1454c9cedf533f32a2ea2f8e6fde5e082840103",
      "v": 27,
      "creates": null,
      "raw": "0xf86e14850d579a68ff83015f909448a33958a96276e41c11e1359a9989bbadfdb74a8903cb71f51fc5580000801ba09ba3c3e00e6583e7ed1e5bcb0634337207b49f8edeabb1a5fe32458f136670fca033b2312e0e3705396e019ae9f1454c9cedf533f32a2ea2f8e6fde5e082840103",
      "networkId": 0,
      "chainId": 0
    }
  ]
}