{
  "hash": "0xb177bedeb24a6f36fe99a589764b8413114149e38ad691db3ceb6f96ae7fccd2",
  "parentHash": "0x623c44a1cbe2eea26aa79ce7742cfab938b6986c2cbebe42bccdae2f79d7b893",
  "number": 119491,
  "timestamp": 1440143830,
  "nonce": "0x7a08e758e8b1a5d0",
  "difficulty": 4400849371103,
  "gasLimit": {
    "_hex": "0x2fefd8"
  },
  "gasUsed": {
    "_hex": "0x5208"
  },
  "miner": "0x52bc44d5378309EE2abF1539BF71dE1b7d7bE3b5",
  "extraData": "0xd783010002844765746887676f312e342e32856c696e7578",
  "transactions": [
    {
      "hash": "0x615f8862e27a29e34aa3ad5ef197a9c3e828ac4200da1133caaef6d8e64bb1a1",
      "blockHash": "0xb177bedeb24a6f36fe99a589764b8413114149e38ad691db3ceb6f96ae7fccd2",
      "blockNumber": 119491,
      "transactionIndex": 0,
      "confirmations": null,
      "from": "0x608f4b86321a68453f9adf6F06F7Fc3E621739ad",
      "gasPrice": {
        "_hex": "0xba43b7400"
      },
      "gasLimit": {
        "_hex": "0x5208"
      },
      "to": "0x32Be343B94f860124dC4fEe278FDCBD38C102D88",
      "value": {
        "_hex": "0x455fd68a17f06000"
      },
      "nonce": 34,
      "data": "0x",
      "r": "0x0b95786ba6591ba7a66c47554a872bd5b9071ef132d16d1a61fbcaff66355db3",
      "s": "0x046073fe705a67abad7bd54eb5e2bac550381584bc55282d884e97c97c485c83",
      "v": 27,
      "creates": null,
      "raw": "0xf86c22850ba43b74008252089432be343b94f860124dc4fee278fdcbd38c102d8888455fd68a17f06000801ba00b95786ba6591ba7a66c47554a872bd5b9071ef132d16d1a61fbcaff66355db3a0046073fe705a67abad7bd54eb5e2bac550381584bc55282d884e97c97c485c83",
      "networkId": 0,
      "chainId": 0
    }
  ]
}