{
  "hash": "0xd29d4939a49873a0f4959eba77831f99992360e644dc5b36cc5b460c092afa97",
  "parentHash": "0xaf06b46b5d6cb7b156f17a95cd9aad9646a86e1af2158988b45b118fcb2633be",
  "number": 88893,
  "timestamp": 1439615137,
  "nonce": "0x020d506c26b7141c",
  "difficulty": 3244143442345,
  "gasLimit": {
    "_hex": "0x2fefd5"
  },
  "gasUsed": {
    "_hex": "0x5208"
  },
  "miner": "0xe6A7a1d47ff21B6321162AEA7C6CB457D5476Bca",
  "extraData": "0x476574682f76312e302e312d38326566323666362f6c696e75782f676f312e34",
  "transactions": [
    {
      "hash": "0x3fceeae9f8c2b0d8bf7e3fb145cf119d50b57d34843e4ceebb95f62b197f5649",
      "blockHash": "0xd29d4939a49873a0f4959eba77831f99992360e644dc5b36cc5b460c092afa97",
      "blockNumber": 88893,
      "transactionIndex": 0,
      "confirmations": null,
      "from": "0x2910543Af39abA0Cd09dBb2D50200b3E800A63D2",
      "gasPrice": {
        "_hex": "0xdc299b831"
      },
      "gasLimit": {
        "_hex": "0x5208"
      },
      "to": "0x98781996FF0F2C5dE96Bb45755683BB5a09A5727",
      "value": {
        "_hex": "0x56bb59ab42b2f8000"
      },
      "nonce": 741,
      "data": "0x",
      "r": "0x16a6132918b94c878ad4fd3caa0e207e875b8240346c811ac257633c4e746b1e",
      "s": "0x24d61a4c1b6f3de7a36bca649a00d16933610811621b5028ecb3f29d1a05baa8",
      "v": 27,
      "creates": null,
      "raw": "0xf86f8202e5850dc299b8318252089498781996ff0f2c5de96bb45755683bb5a09a572789056bb59ab42b2f8000801ba016a6132918b94c878ad4fd3caa0e207e875b8240346c811ac257633c4e746b1ea024d61a4c1b6f3de7a36bca649a00d16933610811621b5028ecb3f29d1a05baa8",
      "networkId": 0,
      "chainId": 0
    }
  ]
}