{
  "hash": "0x0d3e662914c6ba96548bb14abd8de82b7637d60cca09002c6223a295bc21a440",
  "parentHash": "0x9295bcfa3675d06f0fdfa685381afcc1aea1c89ea12c2051df3b705052c1f983",
  "number": 86423,
  "timestamp": 1439577878,
  "nonce": "0xd41f4888a563825d",
  "difficulty": 2897547069684,
  "gasLimit": {
    "_hex": "0x2fefd8"
  },
  "gasUsed": {
    "_hex": "0x5208"
  },
  "miner": "0x580992B51e3925e23280EfB93d3047C82f17E038",
  "extraData": "0x476574682f76312e302e312f6c696e75782f676f312e342e32",
  "transactions": [
    {
      "hash": "0xbd3beaf45d7716328f046f5ab808b296cce46a6de9230dc0e9e6f91c81e345f0",
      "blockHash": "0x0d3e662914c6ba96548bb14abd8de82b7637d60cca09002c6223a295bc21a440",
      "blockNumber": 86423,
      "transactionIndex": 0,
      "confirmations": null,
      "from": "0x2910543Af39abA0Cd09dBb2D50200b3E800A63D2",
      "gasPrice": {
        "_hex": "0xcb35566df"
      },
      "gasLimit": {
        "_hex": "0x5208"
      },
      "to": "0x09D6b0F8DE057aC9116C0f321eA4017444de0801",
      "value": {
        "_hex": "0x3635b7ea4ca6bf8000"
      },
      "nonce": 662,
      "data": "0x",
      "r": "0x7194baf56325fc64d2618e0ed1ce3e93e5fe06f27e2ce2d7bbe243f6d4984285",
      "s": "0x557cf37e61d39de6440ab693193a6d5cce02b9d411437e36ba7f0744d5b17a00",
      "v": 27,
      "creates": null,
      "raw": "0xf86f820296850cb35566df8252089409d6b0f8de057ac9116c0f321ea4017444de0801893635b7ea4ca6bf8000801ba07194baf56325fc64d2618e0ed1ce3e93e5fe06f27e2ce2d7bbe243f6d4984285a0557cf37e61d39de6440ab693193a6d5cce02b9d411437e36ba7f0744d5b17a00",
      "networkId": 0,
      "chainId": 0
    }
  ]
}