{
  "hash": "0xa11837ef12028337834f5ba8a953b11b9ecc7f6369659e5b5dec946aa414bdcf",
  "parentHash": "0x663926ea615b527a6d6d4ec79705c29942bebb1ef732342863d3974600617431",
  "number": 98048,
  "timestamp": 1439766257,
  "nonce": "0x663ad5fff798d953",
  "difficulty": 3857720295110,
  "gasLimit": {
    "_hex": "0x2fefd8"
  },
  "gasUsed": {
    "_hex": "0x5208"
  },
  "miner": "0xf9b71212c93b1FEA22C1409191c42E9cADCAb851",
  "extraData": "0x476574682f76312e302e312f6c696e75782f676f312e342e32",
  "transactions": [
    {
      "hash": "0xb47280671f7ef85f375970f38936ff95465058e7239f3bacd0ad95918ebbf7bf",
      "blockHash": "0xa11837ef12028337834f5ba8a953b11b9ecc7f6369659e5b5dec946aa414bdcf",
      "blockNumber": 98048,
      "transactionIndex": 0,
      "confirmations": null,
      "from": "0x0D4EcC7d750180EBf4A9Df728B6669B5Bceb5E40",
      "gasPrice": {
        "_hex": "0xcc3f9f64a"
      },
      "gasLimit": {
        "_hex": "0x5208"
      },
      "to": "0x32Be343B94f860124dC4fEe278FDCBD38C102D88",
      "value": {
        "_hex": "0x4563354de610d800"
      },
      "nonce": 46,
      "data": "0x",
      "r": "0x6e41c85b071dadd51076519702cea895a5b46de5aae6e9b731c9a0883e14136e",
      "s": "0x08ab85f004be18705245506d30d3211425a88ec5b1ed0e785b52e4ae5ad81638",
      "v": 27,
      "creates": null,
      "raw": "0xf86c2e850cc3f9f64a8252089432be343b94f860124dc4fee278fdcbd38c102d88884563354de610d800801ba06e41c85b071dadd51076519702cea895a5b46de5aae6e9b731c9a0883e14136ea008ab85f004be18705245506d30d3211425a88ec5b1ed0e785b52e4ae5ad81638",
      "networkId": 0,
      "chainId": 0
    }
  ]
}