{
  "hash": "0xc8fac9a500f3ae6ac3352035cae818492a93fa0ab19125cddb885521feaefc2c",
  "parentHash": "0xed726711e26be2db3eb5a1181e21d5526941b90beacb35c96c26ea0c7856053a",
  "number": 72388,
  "timestamp": 1439351916,
  "nonce": "0xac3d2f70163fbd40",
  "difficulty": 2187638775627,
  "gasLimit": {
    "_hex": "0x2fefd8"
  },
  "gasUsed": {
    "_hex": "0x5208"
  },
  "miner": "0xe6A7a1d47ff21B6321162AEA7C6CB457D5476Bca",
  "extraData": "0x476574682f76312e302e312d38326566323666362f6c696e75782f676f312e34",
  "transactions": [
    {
      "hash": "0x1241f793114a9c916bad03355773f03350df648272cd81c81b0ee1eeaad5601c",
      "blockHash": "0xc8fac9a500f3ae6ac3352035cae818492a93fa0ab19125cddb885521feaefc2c",
      "blockNumber": 72388,
      "transactionIndex": 0,
      "confirmations": null,
      "from": "0x1308A2e95c0160B90803ddCA9B9a5bb55E416d79",
      "gasPrice": {
        "_hex": "0x9184e72a000"
      },
      "gasLimit": {
        "_hex": "0x15f90"
      },
      "to": "0x025c3B43d57E72D2150E14B2B0c6D923FbFC0474",
      "value": {
        "_hex": "0x21e19e0c9bab2400000"
      },
      "nonce": 109,
      "data": "0x",
      "r": "0x5952446f74c1627174e12c946bd72aa9237d255937775edc1ecceb48dc792e44",
      "s": "0x58bfaa0436f403e5a95f3393dffdab6c375c0f4f22f452e9e3a819437e516ab6",
      "v": 27,
      "creates": null,
      "raw": "0xf8706d8609184e72a00083015f9094025c3b43d57e72d2150e14b2b0c6d923fbfc04748a021e19e0c9bab2400000801ba05952446f74c1627174e12c946bd72aa9237d255937775edc1ecceb48dc792e44a058bfaa0436f403e5a95f3393dffdab6c375c0f4f22f452e9e3a819437e516ab6",
      "networkId": 0,
      "chainId": 0
    }
  ]
}