{
  "hash": "0x27ac902dde73e2d4996e16bf1944198ac44c639dcdd15711e8f657197a583357",
  "parentHash": "0x03a8f5810d26dcf530734ce200ad83bd96690628c31d226eda896c47bec549ab",
  "number": 96977,
  "timestamp": 1439748955,
  "nonce": "0x4588ac0062db754a",
  "difficulty": 3737682628310,
  "gasLimit": {
    "_hex": "0x2fefd8"
  },
  "gasUsed": {
    "_hex": "0xa410"
  },
  "miner": "0xf927a40C8B7F6E07c5af7FA2155B4864a4112B13",
  "extraData": "0x",
  "transactions": [
    {
      "hash": "0x5653f5562cd155dbab6c11e9bd47d7575c471e0f24d039314f36184817111637",
      "blockHash": "0x27ac902dde73e2d4996e16bf1944198ac44c639dcdd15711e8f657197a583357",
      "blockNumber": 96977,
      "transactionIndex": 0,
      "confirmations": null,
      "from": "0x6724EFf089f9dD79c381137DF68678bD574B37e0",
      "gasPrice": {
        "_hex": "0xdcb2342d6"
      },
      "gasLimit": {
        "_hex": "0x5208"
      },
      "to": "0x32Be343B94f860124dC4fEe278FDCBD38C102D88",
      "value": {
        "_hex": "0x17d7badd970ec6000"
      },
      "nonce": 1,
      "data": "0x",
      "r": "0xa6e42ba2719b7563ee8b962d28f62a216346ec37fa07d3f98d03db2697b779dc",
      "s": "0x4ac34a2fc537caf4ce82547d1f9e7a1a342e50cb9f10c8f22323940e266c14c9",
      "v": 27,
      "creates": null,
      "raw": "0xf86d01850dcb2342d68252089432be343b94f860124dc4fee278fdcbd38c102d8889017d7badd970ec6000801ba0a6e42ba2719b7563ee8b962d28f62a216346ec37fa07d3f98d03db2697b779dca04ac34a2fc537caf4ce82547d1f9e7a1a342e50cb9f10c8f22323940e266c14c9",
      "networkId": 0,
      "chainId": 0
    },
    {
      "hash": "0x9611759617aa0e18f3199980084c43d9e2e4365ba4d152947d76766ac42a73bd",
      "blockHash": "0x27ac902dde73e2d4996e16bf1944198ac44c639dcdd15711e8f657197a583357",
      "blockNumber": 96977,
      "transactionIndex": 1,
      "confirmations": null,
      "from": "0xC47Aaa860008be6f65B58c6C6E02a84e666EfE31",
      "gasPrice": {
        "_hex": "0xd96d9c686"
      },
      "gasLimit": {
        "_hex": "0x15f90"
      },
      "to": "0x57c80409e577598799b53e380C9b188a8ff70917",
      "value": {
        "_hex": "0xddd2935029d7fff"
      },
      "nonce": 32,
      "data": "0x",
      "r": "0xf66ddf5db87f73932874480f242e2568804077a9de5a2e68c97cc2884eef96c8",
      "s": "0x62c191e68a701db697a2061656aa1da970ebf252eb26de7cdbd16b339ce339e3",
      "v": 28,
      "creates": null,
      "raw": "0xf86d20850d96d9c68683015f909457c80409e577598799b53e380c9b188a8ff70917880ddd2935029d7fff801ca0f66ddf5db87f73932874480f242e2568804077a9de5a2e68c97cc2884eef96c8a062c191e68a701db697a2061656aa1da970ebf252eb26de7cdbd16b339ce339e3",
      "networkId": 0,
      "chainId": 0
    }
  ]
}