{
  "hash": "0xed169c2d7d3bb12c2cb59ec41875de909c41a2d9ce73aac4063a8cc2f78514c6",
  "parentHash": "0xa429c40bf5edfb890a763502b7259d2e0cc14751530ecc1e8424686770bc33c8",
  "number": 63653,
  "timestamp": 1439207885,
  "nonce": "0x22648753f446529a",
  "difficulty": 1844996422563,
  "gasLimit": {
    "_hex": "0x2fefd8"
  },
  "gasUsed": {
    "_hex": "0x5208"
  },
  "miner": "0xC49418429e58989172a4ACE0bab0cB8D3F00F97f",
  "extraData": "0x476574682f76312e302e312f6c696e75782f676f312e342e32",
  "transactions": [
    {
      "hash": "0x16fe469e156dc2787432265c4599f5e34cbc204796881a2f2c37c5cc7fb43306",
      "blockHash": "0xed169c2d7d3bb12c2cb59ec41875de909c41a2d9ce73aac4063a8cc2f78514c6",
      "blockNumber": 63653,
      "transactionIndex": 0,
      "confirmations": null,
      "from": "0x120A270bbC009644e35F0bB6ab13f95b8199c4ad",
      "gasPrice": {
        "_hex": "0xd21b1db3f"
      },
      "gasLimit": {
        "_hex": "0x15f90"
      },
      "to": "0xc3877edF798a7713bE2fBbB90f594797D3e8C05C",
      "value": {
        "_hex": "0x376305bc0c6000"
      },
      "nonce": 105,
      "data": "0x",
      "r": "0x0880e7c69d47a73e0a593710b6544f6c05aa90b5ce580624e4c76c82fe596395",
      "s": "0x764b7cca8a4404b39c21942412cd45cd7e4a4a37145723f635747b5d2cec5688",
      "v": 28,
      "creates": null,
      "raw": "0xf86c69850d21b1db3f83015f9094c3877edf798a7713be2fbbb90f594797d3e8c05c87376305bc0c6000801ca00880e7c69d47a73e0a593710b6544f6c05aa90b5ce580624e4c76c82fe596395a0764b7cca8a4404b39c21942412cd45cd7e4a4a37145723f635747b5d2cec5688",
      "networkId": 0,
      "chainId": 0
    }
  ]
}