{
  "hash": "0x4f12e14a04c5c2e5129cafd045e145c11adc8407bafa41af9f6bc6bbe2fbd63b",
  "parentHash": "0x0093aef95052aa5818633a9cce0c059b46d7480970b6fcf28a04ba4ab8640bbe",
  "number": 89862,
  "timestamp": 1439630291,
  "nonce": "0xef0b26e2fa89ec52",
  "difficulty": 3341838142957,
  "gasLimit": {
    "_hex": "0x2fefd8"
  },
  "gasUsed": {
    "_hex": "0x5208"
  },
  "miner": "0xe6A7a1d47ff21B6321162AEA7C6CB457D5476Bca",
  "extraData": "0x476574682f76312e302e312d38326566323666362f6c696e75782f676f312e34",
  "transactions": [
    {
      "hash": "0x3582770b4f6c895df6070d6c19ac1d71af883ffb81c09b455041ca4ebf52e3fe",
      "blockHash": "0x4f12e14a04c5c2e5129cafd045e145c11adc8407bafa41af9f6bc6bbe2fbd63b",
      "blockNumber": 89862,
      "transactionIndex": 0,
      "confirmations": null,
      "from": "0x211D45933Ef88c3D7aD0120942CF50ab506e618F",
      "gasPrice": {
        "_hex": "0xcbd1876af"
      },
      "gasLimit": {
        "_hex": "0x5208"
      },
      "to": "0x32Be343B94f860124dC4fEe278FDCBD38C102D88",
      "value": {
        "_hex": "0xc389153123973000"
      },
      "nonce": 3,
      "data": "0x",
      "r": "0xf4478aef1891ea396dba94c83a226e9665ffcebba1862275dec8db9c9727c8e2",
      "s": "0x47c89022109aae8a9546bdabbcd112f2544f7f39461188d6f28976b1b87b3d87",
      "v": 27,
      "creates": null,
      "raw": "0xf86c03850cbd1876af8252089432be343b94f860124dc4fee278fdcbd38c102d8888c389153123973000801ba0f4478aef1891ea396dba94c83a226e9665ffcebba1862275dec8db9c9727c8e2a047c89022109aae8a9546bdabbcd112f2544f7f39461188d6f28976b1b87b3d87",
      "networkId": 0,
      "chainId": 0
    }
  ]
}