{
  "hash": "0x13e889249353f64239a3b74cb031a2d011343abcb7bc4fd338a97512650fa194",
  "parentHash": "0x07b29e5d775c39dc684caf1125f16c6a39a69f6e2ad83e66576df69131e56270",
  "number": 121726,
  "timestamp": 1440181579,
  "nonce": "0x85c61f186cc0ef01",
  "difficulty": 4484262740668,
  "gasLimit": {
    "_hex": "0x2fefd8"
  },
  "gasUsed": {
    "_hex": "0xa410"
  },
  "miner": "0xe6A7a1d47ff21B6321162AEA7C6CB457D5476Bca",
  "extraData": "0xd783010002844765746887676f312e342e32856c696e7578",
  "transactions": [
    {
      "hash": "0xdefe95a7fc873c57df9482de1d5b006faba84365bd6f239e8a3c12611634e5ea",
      "blockHash": "0x13e889249353f64239a3b74cb031a2d011343abcb7bc4fd338a97512650fa194",
      "blockNumber": 121726,
      "transactionIndex": 0,
      "confirmations": null,
      "from": "0x9DfC792a17a1dcdC696ab1A9a82fb88826480cc6",
      "gasPrice": {
        "_hex": "0xd63834a8f"
      },
      "gasLimit": {
        "_hex": "0x15f90"
      },
      "to": "0x8312c82650D4A0bF2393eCE0554f650dA73eD14b",
      "value": {
        "_hex": "0x2c68af0bb140000"
      },
      "nonce": 3,
      "data": "0x",
      "r": "0x9e91d7db4503f548483c8effaeb85882e6d1d3883e87f252d7450b1005f2d3d1",
      "s": "0x092da3d6a7adbadd6d9ba446fae40f9a0a42c4a27782e1d0567e8de204df50b8",
      "v": 28,
      "creates": null,
      "raw": "0xf86d03850d63834a8f83015f90948312c82650d4a0bf2393ece0554f650da73ed14b8802c68af0bb140000801ca09e91d7db4503f548483c8effaeb85882e6d1d3883e87f252d7450b1005f2d3d1a0092da3d6a7adbadd6d9ba446fae40f9a0a42c4a27782e1d0567e8de204df50b8",
      "networkId": 0,
      "chainId": 0
    },
    {
      "hash": "0xad5f7f1b48c19db586f5672bf9c9fbb930e61af88bdf7553b0fbccef2b97ca9d",
      "blockHash": "0x13e889249353f64239a3b74cb031a2d011343abcb7bc4fd338a97512650fa194",
      "blockNumber": 121726,
      "transactionIndex": 1,
      "confirmations": null,
      "from": "0x900a0A6428078594b201108ebF8f8A8446E86fbA",
      "gasPrice": {
        "_hex": "0xba43b7400"
      },
      "gasLimit": {
        "_hex": "0x15f90"
      },
      "to": "0x839004d04F48410856d9D43fdd18Ee8453bBd8f5",
      "value": {
        "_hex": "0xde0b6b3a7640000"
      },
      "nonce": 2,
      "data": "0x",
      "r": "0x7975c76114248ee9f53270d906f9e3580cffabe65a6542fb4c39cfe5f2ac44a2",
      "s": "0x3918bfd87eb0e1e84fa2adf56331549006b06b7701a77f74f279ddb895665c11",
      "v": 28,
      "creates": null,
      "raw": "0xf86d02850ba43b740083015f9094839004d04f48410856d9d43fdd18ee8453bbd8f5880de0b6b3a7640000801ca07975c76114248ee9f53270d906f9e3580cffabe65a6542fb4c39cfe5f2ac44a2a03918bfd87eb0e1e84fa2adf56331549006b06b7701a77f74f279ddb895665c11",
      "networkId": 0,
      "chainId": 0
    }
  ]
}