{
  "hash": "0xce7bdede2197862376cc394f978bbbb1e69b35a3fe95a55b58d0aaf3e7ef103b",
  "parentHash": "0x791a853c458aba06a7673fd2b0c1d0d946a9427dd5ceabaac7021a943f3d936b",
  "number": 115294,
  "timestamp": 1440054707,
  "nonce": "0x6377cdaf5d3aef78",
  "difficulty": 4558373421712,
  "gasLimit": {
    "_hex": "0x2fefd8"
  },
  "gasUsed": {
    "_hex": "0x29040"
  },
  "miner": "0xe6A7a1d47ff21B6321162AEA7C6CB457D5476Bca",
  "extraData": "0x476574682f76312e302e312d38326566323666362f6c696e75782f676f312e34",
  "transactions": [
    {
      "hash": "0xc0c3e4d0ee1707392ec36b7f85f3b39697d744e293187f9520e671fa90378a09",
      "blockHash": "0xce7bdede2197862376cc394f978bbbb1e69b35a3fe95a55b58d0aaf3e7ef103b",
      "blockNumber": 115294,
      "transactionIndex": 0,
      "confirmations": null,
      "from": "0xe6A7a1d47ff21B6321162AEA7C6CB457D5476Bca",
      "gasPrice": {
        "_hex": "0xd83696347"
      },
      "gasLimit": {
        "_hex": "0x55f0"
      },
      "to": "0xB0b3385a645Eb80B431224920043447Ab1303eA8",
      "value": {
        "_hex": "0x3cf533a6933a81f4"
      },
      "nonce": 5284,
      "data": "0x",
      "r": "0x903f69c77c7cb3833e8324a3c033fce615de7e0b8d7a7d52c0171ef3f35cce51",
      "s": "0x377f2f21be8109d6453e5484c47fa4c7b05419bbc113e604e020384e5d6a843c",
      "v": 27,
      "creates": null,
      "raw": "0xf86e8214a4850d836963478255f094b0b3385a645eb80b431224920043447ab1303ea8883cf533a6933a81f4801ba0903f69c77c7cb3833e8324a3c033fce615de7e0b8d7a7d52c0171ef3f35cce51a0377f2f21be8109d6453e5484c47fa4c7b05419bbc113e604e020384e5d6a843c",
      "networkId": 0,
      "chainId": 0
    },
    {
      "hash": "0x9420c54156ee47875d49c855aed64a33db14127fc7bd75a8dee5aafcf283c234",
      "blockHash": "0xce7bdede2197862376cc394f978bbbb1e69b35a3fe95a55b58d0aaf3e7ef103b",
      "blockNumber": 115294,
      "transactionIndex": 1,
      "confirmations": null,
      "from": "0xe6A7a1d47ff21B6321162AEA7C6CB457D5476Bca",
      "gasPrice": {
        "_hex": "0xd83696347"
      },
      "gasLimit": {
        "_hex": "0x55f0"
      },
      "to": "0x90891a4dAE53428129E5E2044f4677213EcCBB59",
      "value": {
        "_hex": "0x3cfbe09a1a729e08"
      },
      "nonce": 5285,
      "data": "0x",
      "r": "0x7b43411869cdf15c7f9f73fbd9812c1c5669fbf93f6843f9abb97438f54a70b1",
      "s": "0x2a737e29a53f8f937b406ed1031bacb6c65663339e720f9cc0a2020c99fdcd8c",
      "v": 27,
      "creates": null,
      "raw": "0xf86e8214a5850d836963478255f09490891a4dae53428129e5e2044f4677213eccbb59883cfbe09a1a729e08801ba07b43411869cdf15c7f9f73fbd9812c1c5669fbf93f6843f9abb97438f54a70b1a02a737e29a53f8f937b406ed1031bacb6c65663339e720f9cc0a2020c99fdcd8c",
      "networkId": 0,
      "chainId": 0
    },
    {
      "hash": "0x5ee4fd7b5e03d332b8f6c4bb2d85c5479554794562ea2d452365c972507c3973",
      "blockHash": "0xce7bdede2197862376cc394f978bbbb1e69b35a3fe95a55b58d0aaf3e7ef103b",
      "blockNumber": 115294,
      "transactionIndex": 2,
      "confirmations": null,
      "from": "0xe6A7a1d47ff21B6321162AEA7C6CB457D5476Bca",
      "gasPrice": {
        "_hex": "0xd83696347"
      },
      "gasLimit": {
        "_hex": "0x55f0"
      },
      "to": "0x027698B61229ECCa19311e977ADE3C2923D4e414",
      "value": {
        "_hex": "0x3d1a225603c5e590"
      },
      "nonce": 5286,
      "data": "0x",
      "r": "0x323aaaad0ac56687a8fdc1623465f9ce4c434c86368ea6bf689c376a030d4ff2",
      "s": "0x4f4d997b23282d8564dbef727265544680e74e0f9511c2e66559cf7c66c51fd8",
      "v": 28,
      "creates": null,
      "raw": "0xf86e8214a6850d836963478255f094027698b61229ecca19311e977ade3c2923d4e414883d1a225603c5e590801ca0323aaaad0ac56687a8fdc1623465f9ce4c434c86368ea6bf689c376a030d4ff2a04f4d997b23282d8564dbef727265544680e74e0f9511c2e66559cf7c66c51fd8",
      "networkId": 0,
      "chainId": 0
    },
    {
      "hash": "0xc3be46e023dc5686a3e36eeb62b979f3fc788e005e5873ba2557c4df4767ed6d",
      "blockHash": "0xce7bdede2197862376cc394f978bbbb1e69b35a3fe95a55b58d0aaf3e7ef103b",
      "blockNumber": 115294,
      "transactionIndex": 3,
      "confirmations": null,
      "from": "0xe6A7a1d47ff21B6321162AEA7C6CB457D5476Bca",
      "gasPrice": {
        "_hex": "0xd83696347"
      },
      "gasLimit": {
        "_hex": "0x55f0"
      },
      "to": "0x305E8d20Ca61Ba9DD2DD18E1134e7CDB9a13F68D",
      "value": {
        "_hex": "0x3d6a2a59d8971ea0"
      },
      "nonce": 5287,
      "data": "0x",
      "r": "0x2209936234a093d4b11c8c519445add8c3d39ba5a7af1340c05a69d24375d8ba",
      "s": "0x3ce0ead4ebf84f276c199f21e2a0ca3f22f3cccfde890d90aa7d9ff609a47756",
      "v": 27,
      "creates": null,
      "raw": "0xf86e8214a7850d836963478255f094305e8d20ca61ba9dd2dd18e1134e7cdb9a13f68d883d6a2a59d8971ea0801ba02209936234a093d4b11c8c519445add8c3d39ba5a7af1340c05a69d24375d8baa03ce0ead4ebf84f276c199f21e2a0ca3f22f3cccfde890d90aa7d9ff609a47756",
      "networkId": 0,
      "chainId": 0
    },
    {
      "hash": "0x4834d886fdd80784562b9f00bdd5bbeac2df6186698eeae50609d30727e524ba",
      "blockHash": "0xce7bdede2197862376cc394f978bbbb1e69b35a3fe95a55b58d0aaf3e7ef103b",
      "blockNumber": 115294,
      "transactionIndex": 4,
      "confirmations": null,
      "from": "0xe6A7a1d47ff21B6321162AEA7C6CB457D5476Bca",
      "gasPrice": {
        "_hex": "0xd83696347"
      },
      "gasLimit": {
        "_hex": "0x55f0"
      },
      "to": "0xeD3Fe86896534C24D9F91232faE34b78DFf3c1f4",
      "value": {
        "_hex": "0x3db993f23b3d0c1c"
      },
      "nonce": 5288,
      "data": "0x",
      "r": "0xb3529d2db868817fcc8ee000b10b9daa16f0be3106fde32ec5a2178e965fea83",
      "s": "0x4bd0667a6783d6ece07a2270bd329b57e21a824c9b5faeb87bbfbcf3ec147550",
      "v": 28,
      "creates": null,
      "raw": "0xf86e8214a8850d836963478255f094ed3fe86896534c24d9f91232fae34b78dff3c1f4883db993f23b3d0c1c801ca0b3529d2db868817fcc8ee000b10b9daa16f0be3106fde32ec5a2178e965fea83a04bd0667a6783d6ece07a2270bd329b57e21a824c9b5faeb87bbfbcf3ec147550",
      "networkId": 0,
      "chainId": 0
    },
    {
      "hash": "0xc31a338f0acf1181c21d874e6e8af5be20578d9242a97dd43e4aa2486b2443d7",
      "blockHash": "0xce7bdede2197862376cc394f978bbbb1e69b35a3fe95a55b58d0aaf3e7ef103b",
      "blockNumber": 115294,
      "transactionIndex": 5,
      "confirmations": null,
      "from": "0xe6A7a1d47ff21B6321162AEA7C6CB457D5476Bca",
      "gasPrice": {
        "_hex": "0xd83696347"
      },
      "gasLimit": {
        "_hex": "0x55f0"
      },
      "to": "0x314D012beD8f104C4ab11ad41B96b2c5Ecf7B96c",
      "value": {
        "_hex": "0x3e66ca9e3ee20e18"
      },
      "nonce": 5289,
      "data": "0x",
      "r": "0x83e71c458c45400c39a408c38497954587bebe17f1a500ad42ce9d0d81aac9e0",
      "s": "0x23d43cda41076f558b55a58ee1e3c967a40dcf84f1a3197d86ad4ab682a271cc",
      "v": 27,
      "creates": null,
      "raw": "0xf86e8214a9850d836963478255f094314d012bed8f104c4ab11ad41b96b2c5ecf7b96c883e66ca9e3ee20e18801ba083e71c458c45400c39a408c38497954587bebe17f1a500ad42ce9d0d81aac9e0a023d43cda41076f558b55a58ee1e3c967a40dcf84f1a3197d86ad4ab682a271cc",
      "networkId": 0,
      "chainId": 0
    },
    {
      "hash": "0x031cfb76b6d433ce53d135d898187a4297ad6d1032ee177b47ab2712be62605e",
      "blockHash": "0xce7bdede2197862376cc394f978bbbb1e69b35a3fe95a55b58d0aaf3e7ef103b",
      "blockNumber": 115294,
      "transactionIndex": 6,
      "confirmations": null,
      "from": "0xe6A7a1d47ff21B6321162AEA7C6CB457D5476Bca",
      "gasPrice": {
        "_hex": "0xd83696347"
      },
      "gasLimit": {
        "_hex": "0x55f0"
      },
      "to": "0xA5a5181868a8Df772f87DC95aB9B366e974Da936",
      "value": {
        "_hex": "0x3f174d4441b46a08"
      },
      "nonce": 5290,
      "data": "0x",
      "r": "0xc154272276e8fad2a142717fa49eb643869259eeea9c4d500e786b079165d913",
      "s": "0x380b9ad24ef0edd1c78d4b7f89491c85bfb5304891097d3b3345de74ef618201",
      "v": 27,
      "creates": null,
      "raw": "0xf86e8214aa850d836963478255f094a5a5181868a8df772f87dc95ab9b366e974da936883f174d4441b46a08801ba0c154272276e8fad2a142717fa49eb643869259eeea9c4d500e786b079165d913a0380b9ad24ef0edd1c78d4b7f89491c85bfb5304891097d3b3345de74ef618201",
      "networkId": 0,
      "chainId": 0
    },
    {
      "hash": "0x419d7f7ba48327f696fb3d482f62b539918f9cf4c1e500f11a7c641d92668f32",
      "blockHash": "0xce7bdede2197862376cc394f978bbbb1e69b35a3fe95a55b58d0aaf3e7ef103b",
      "blockNumber": 115294,
      "transactionIndex": 7,
      "confirmations": null,
      "from": "0xb71F25995CC5De7A465fB37688126E07654Fa662",
      "gasPrice": {
        "_hex": "0xd7a063c3b"
      },
      "gasLimit": {
        "_hex": "0x5208"
      },
      "to": "0x32Be343B94f860124dC4fEe278FDCBD38C102D88",
      "value": {
        "_hex": "0x1848406330e9b400"
      },
      "nonce": 10,
      "data": "0x",
      "r": "0x0cc671969381cac148308eaa10ced304f0a4f10f6c9fbce3b049aa1a0a45bfa5",
      "s": "0x65dd6ddad80ba5ee234e65a6c039f33f21f047463d32e193de3b8346c3312a5c",
      "v": 28,
      "creates": null,
      "raw": "0xf86c0a850d7a063c3b8252089432be343b94f860124dc4fee278fdcbd38c102d88881848406330e9b400801ca00cc671969381cac148308eaa10ced304f0a4f10f6c9fbce3b049aa1a0a45bfa5a065dd6ddad80ba5ee234e65a6c039f33f21f047463d32e193de3b8346c3312a5c",
      "networkId": 0,
      "chainId": 0
    }
  ]
}