{
  "hash": "0xe1eb159d88663ea22448d4e755685c52f30892319306d7079532e80576ba94af",
  "parentHash": "0xdfdc76c943400ed1222f3be0de423f249e9124c5eb4b3ab20651b378f6f32939",
  "number": 76905,
  "timestamp": 1439428196,
  "nonce": "0xe11bfa4458a78854",
  "difficulty": 2232853590652,
  "gasLimit": {
    "_hex": "0x2fefd8"
  },
  "gasUsed": {
    "_hex": "0x5208"
  },
  "miner": "0xf8E0CA3Ed80bd541b94BEdCf259e8CF2141A9523",
  "extraData": "0x476574682f76312e302e312f77696e646f77732f676f312e342e32",
  "transactions": [
    {
      "hash": "0x8e76aa7c9ebbecf19fd38be61c8bb06c0b1aabde05c35b940bd10c25cc05fa46",
      "blockHash": "0xe1eb159d88663ea22448d4e755685c52f30892319306d7079532e80576ba94af",
      "blockNumber": 76905,
      "transactionIndex": 0,
      "confirmations": null,
      "from": "0x1BF3aa6bA1a55E2e26b26a4799d33c2c14945406",
      "gasPrice": {
        "_hex": "0xd95e566d7"
      },
      "gasLimit": {
        "_hex": "0x5208"
      },
      "to": "0x32Be343B94f860124dC4fEe278FDCBD38C102D88",
      "value": {
        "_hex": "0x9c9ce976fb54180000"
      },
      "nonce": 1,
      "data": "0x",
      "r": "0x669a59c7513ceffd676d42a8c736fee9d0a4c056551f49ee0d211360e49d9f66",
      "s": "0x24f4d86a1f16f816d46731b587260eb5a10a980cca6b6cb2f029f0a2ba45345e",
      "v": 28,
      "creates": null,
      "raw": "0xf86d01850d95e566d78252089432be343b94f860124dc4fee278fdcbd38c102d88899c9ce976fb54180000801ca0669a59c7513ceffd676d42a8c736fee9d0a4c056551f49ee0d211360e49d9f66a024f4d86a1f16f816d46731b587260eb5a10a980cca6b6cb2f029f0a2ba45345e",
      "networkId": 0,
      "chainId": 0
    }
  ]
}