{
  "hash": "0x35c0d0a5c9c587ece142238dd7992e9524aeba128e758d0d64d32d4458b26743",
  "parentHash": "0xa83fc7c54d81cae70d33537dee094e56766759aeada20a2c5d9df9787b5e030f",
  "number": 69490,
  "timestamp": 1439305019,
  "nonce": "0xfdb03ea3aaa3c476",
  "difficulty": 2059825697385,
  "gasLimit": {
    "_hex": "0x2fefd8"
  },
  "gasUsed": {
    "_hex": "0xa414"
  },
  "miner": "0xe6A7a1d47ff21B6321162AEA7C6CB457D5476Bca",
  "extraData": "0x476574682f76312e302e312d38326566323666362f6c696e75782f676f312e34",
  "transactions": [
    {
      "hash": "0x24b0e39890b0d8d68bc0c678a890424c87399ffcd7ab22edb738386f26227ccb",
      "blockHash": "0x35c0d0a5c9c587ece142238dd7992e9524aeba128e758d0d64d32d4458b26743",
      "blockNumber": 69490,
      "transactionIndex": 0,
      "confirmations": null,
      "from": "0xA21Ba94e45f0E168dA824fC67aC9cb5Cb577a8aF",
      "gasPrice": {
        "_hex": "0x45d964b800"
      },
      "gasLimit": {
        "_hex": "0x5208"
      },
      "to": "0x56011d6b57A70c27F7cc294905A5DdA65BfBd154",
      "value": {
        "_hex": "0x56bc75e2d63100000"
      },
      "nonce": 4,
      "data": "0x",
      "r": "0x5ccba59ad7177fcd8cb99d6c1b5cd4c4184e3eec7c2b1d6c70bc4ad7f07ac432",
      "s": "0x7617ff1a4cbbd4c32b7b36b63189f3f6a5201b116d84a756c3644e2618da6b63",
      "v": 27,
      "creates": null,
      "raw": "0xf86d048545d964b8008252089456011d6b57a70c27f7cc294905a5dda65bfbd15489056bc75e2d63100000801ba05ccba59ad7177fcd8cb99d6c1b5cd4c4184e3eec7c2b1d6c70bc4ad7f07ac432a07617ff1a4cbbd4c32b7b36b63189f3f6a5201b116d84a756c3644e2618da6b63",
      "networkId": 0,
      "chainId": 0
    },
    {
      "hash": "0xcf3caa1c9f11dbe13fc90d639d0f4ec96e1b540a05bc52d44c6bc800a2ba6551",
      "blockHash": "0x35c0d0a5c9c587ece142238dd7992e9524aeba128e758d0d64d32d4458b26743",
      "blockNumber": 69490,
      "transactionIndex": 1,
      "confirmations": null,
      "from": "0x4E567864EC2EFAd2a2186806b9aFeeF0cAF9a427",
      "gasPrice": {
        "_hex": "0xd7d40ace3"
      },
      "gasLimit": {
        "_hex": "0x55f0"
      },
      "to": "0x4E567864EC2EFAd2a2186806b9aFeeF0cAF9a427",
      "value": {
        "_hex": "0xde0b6b3a7640000"
      },
      "nonce": 1,
      "data": "0x00",
      "r": "0xcaf89bac6cf73d43e27b00610e7afed5854809f217053d190e912b8ad550f8c0",
      "s": "0xeb5626fc26e97086af31cda2b3dd0d509d8167aa38e85ecb5bdf775af29d1abc",
      "v": 28,
      "creates": null,
      "raw": "0xf86c01850d7d40ace38255f0944e567864ec2efad2a2186806b9afeef0caf9a427880de0b6b3a7640000001ca0caf89bac6cf73d43e27b00610e7afed5854809f217053d190e912b8ad550f8c0a0eb5626fc26e97086af31cda2b3dd0d509d8167aa38e85ecb5bdf775af29d1abc",
      "networkId": 0,
      "chainId": 0
    }
  ]
}