{
  "hash": "0x2a785a1f7878278872d58bbe54196c91a7e513df1333f411e9c027ac0eb5c84f",
  "parentHash": "0xeebd3a76e11a157472cc735903dc49c06be29d60dfd0d91300a61c2f65ee2075",
  "number": 79501,
  "timestamp": 1439470752,
  "nonce": "0x3e66fd978409e53d",
  "difficulty": 2334721975406,
  "gasLimit": {
    "_hex": "0x2fefd8"
  },
  "gasUsed": {
    "_hex": "0xa410"
  },
  "miner": "0xbb7B8287f3F0a933474a79eAe42CBCa977791171",
  "extraData": "0x476574682f4c5649562f76312e302e312f6c696e75782f676f312e342e32",
  "transactions": [
    {
      "hash": "0x1e4250aba20018c786fce03d74d425114876c9d9c36275a6ecaefb40629d3253",
      "blockHash": "0x2a785a1f7878278872d58bbe54196c91a7e513df1333f411e9c027ac0eb5c84f",
      "blockNumber": 79501,
      "transactionIndex": 0,
      "confirmations": null,
      "from": "0x32Be343B94f860124dC4fEe278FDCBD38C102D88",
      "gasPrice": {
        "_hex": "0xd91578d7d"
      },
      "gasLimit": {
        "_hex": "0x5208"
      },
      "to": "0x5f55BA419de3cd16AF8d066a07C517BD3a2CAa13",
      "value": {
        "_hex": "0xd02ab486cedc0000"
      },
      "nonce": 432,
      "data": "0x",
      "r": "0xbe9a49b377b799d4929669ffc0e3c8630b555de5ddc476538291c4617c0b0153",
      "s": "0x13e9787981759f42027b573fa7ed447728297d2d3f733f704e4e1d96ea96d3ed",
      "v": 28,
      "creates": null,
      "raw": "0xf86e8201b0850d91578d7d825208945f55ba419de3cd16af8d066a07c517bd3a2caa1388d02ab486cedc0000801ca0be9a49b377b799d4929669ffc0e3c8630b555de5ddc476538291c4617c0b0153a013e9787981759f42027b573fa7ed447728297d2d3f733f704e4e1d96ea96d3ed",
      "networkId": 0,
      "chainId": 0
    },
    {
      "hash": "0x10e3999ed46a62e9d4c8abe36ba07489df99afb1660d20c2466dc17c803063b5",
      "blockHash": "0x2a785a1f7878278872d58bbe54196c91a7e513df1333f411e9c027ac0eb5c84f",
      "blockNumber": 79501,
      "transactionIndex": 1,
      "confirmations": null,
      "from": "0x32Be343B94f860124dC4fEe278FDCBD38C102D88",
      "gasPrice": {
        "_hex": "0xd91578d7d"
      },
      "gasLimit": {
        "_hex": "0x5208"
      },
      "to": "0x9ECAA33FeD4620f99c626e223b5dA8796fea40e5",
      "value": {
        "_hex": "0xd0072d945f1b0000"
      },
      "nonce": 433,
      "data": "0x",
      "r": "0xa95a6b967790f85fe46cd75b0b6b35d0535ca122f5776f67171dc3cbd661c54f",
      "s": "0x05a37c40a21b536890905314cb35addf4542c79a141f76c35511acb8143f1d1b",
      "v": 27,
      "creates": null,
      "raw": "0xf86e8201b1850d91578d7d825208949ecaa33fed4620f99c626e223b5da8796fea40e588d0072d945f1b0000801ba0a95a6b967790f85fe46cd75b0b6b35d0535ca122f5776f67171dc3cbd661c54fa005a37c40a21b536890905314cb35addf4542c79a141f76c35511acb8143f1d1b",
      "networkId": 0,
      "chainId": 0
    }
  ]
}