{
  "hash": "0x601b25532e1ac999fbe4f2b89d18b748c64093f0486469a73a9a6786e7f1aff9",
  "parentHash": "0x79726e58c5d08e3cfa450757134e29324dc98864dd05106576f9ee5d17f7564c",
  "number": 110222,
  "timestamp": 1439970102,
  "nonce": "0x13ade884324e8bf1",
  "difficulty": 4369295268487,
  "gasLimit": {
    "_hex": "0x2fefd8"
  },
  "gasUsed": {
    "_hex": "0x5208"
  },
  "miner": "0xe6A7a1d47ff21B6321162AEA7C6CB457D5476Bca",
  "extraData": "0x476574682f76312e302e312d38326566323666362f6c696e75782f676f312e34",
  "transactions": [
    {
      "hash": "0xf11b7751c1da741d191657c48b19c97dea06f8b9b0606e7cb8ad3da9037cda5d",
      "blockHash": "0x601b25532e1ac999fbe4f2b89d18b748c64093f0486469a73a9a6786e7f1aff9",
      "blockNumber": 110222,
      "transactionIndex": 0,
      "confirmations": null,
      "from": "0xeeb66aFe554366d685C7832C6c93727Ba577378D",
      "gasPrice": {
        "_hex": "0xe1405ed27"
      },
      "gasLimit": {
        "_hex": "0x5208"
      },
      "to": "0xFBb1b73C4f0BDa4f67dcA266ce6Ef42f520fBB98",
      "value": {
        "_hex": "0x1bbcea8cc8a218c8"
      },
      "nonce": 1,
      "data": "0x",
      "r": "0xa29cc8025cd2a0175e3b12a54d5810182073d33206a8274799c244a201d0c6ef",
      "s": "0x734229ffe7cf5f9ea6bcc227c1929f9ec619799eff727f89d86ea1343de17c81",
      "v": 27,
      "creates": null,
      "raw": "0xf86c01850e1405ed2782520894fbb1b73c4f0bda4f67dca266ce6ef42f520fbb98881bbcea8cc8a218c8801ba0a29cc8025cd2a0175e3b12a54d5810182073d33206a8274799c244a201d0c6efa0734229ffe7cf5f9ea6bcc227c1929f9ec619799eff727f89d86ea1343de17c81",
      "networkId": 0,
      "chainId": 0
    }
  ]
}