{
  "hash": "0x2a2bf10c55fce1f921c835db576ea67edb98ed1c97da3444be4cc6af55d14769",
  "parentHash": "0x94db5041104f7d94fe633fa2b12497b33acc2b68ee1da8fd1664876a2f19065d",
  "number": 70985,
  "timestamp": 1439328665,
  "nonce": "0x1130cbfa4fc97098",
  "difficulty": 2157240526257,
  "gasLimit": {
    "_hex": "0x2fefd8"
  },
  "gasUsed": {
    "_hex": "0x152d1"
  },
  "miner": "0xecAb9B89BbB858a7e3DDe3ed0b13946eDAEb5533",
  "extraData": "0x476574682f76312e302e312d38326566323666362f6c696e75782f676f312e34",
  "transactions": [
    {
      "hash": "0xa1f70bb8bdb976612e84be33b516ba339ff70474467336830c15099fe50a0975",
      "blockHash": "0x2a2bf10c55fce1f921c835db576ea67edb98ed1c97da3444be4cc6af55d14769",
      "blockNumber": 70985,
      "transactionIndex": 0,
      "confirmations": null,
      "from": "0x5161fd49E847F67455f1C8Bb7abb36e985260D03",
      "gasPrice": {
        "_hex": "0x1066e9dc2f2"
      },
      "gasLimit": {
        "_hex": "0x15f90"
      },
      "to": "0xDeDbaA6D17975d4edc31195983F9AFaB1529CD47",
      "value": {
        "_hex": "0x56bc75e2d63100000"
      },
      "nonce": 3,
      "data": "0x",
      "r": "0xf843c964dd727bedc5e51b1f59955c0b7873bb7698652f58057ebeafe64faf73",
      "s": "0x5c0ef049a429c684624a70efc3116af3dcd35f69202e6e03da2f4445d6593261",
      "v": 28,
      "creates": null,
      "raw": "0xf86f038601066e9dc2f283015f9094dedbaa6d17975d4edc31195983f9afab1529cd4789056bc75e2d63100000801ca0f843c964dd727bedc5e51b1f59955c0b7873bb7698652f58057ebeafe64faf73a05c0ef049a429c684624a70efc3116af3dcd35f69202e6e03da2f4445d6593261",
      "networkId": 0,
      "chainId": 0
    },
    {
      "hash": "0x4c90c8e5ea5f621ec801d34f8fa05a3517c4cbca271ef3201ed8341287839a81",
      "blockHash": "0x2a2bf10c55fce1f921c835db576ea67edb98ed1c97da3444be4cc6af55d14769",
      "blockNumber": 70985,
      "transactionIndex": 1,
      "confirmations": null,
      "from": "0xa114c802ef29776f05f9c6925cE915232e8ae102",
      "gasPrice": {
        "_hex": "0xd9f428ea8"
      },
      "gasLimit": {
        "_hex": "0x5208"
      },
      "to": "0x32Be343B94f860124dC4fEe278FDCBD38C102D88",
      "value": {
        "_hex": "0x8ac2d1b7c9284000"
      },
      "nonce": 2,
      "data": "0x",
      "r": "0x5289e4b61a3d50229415be62906aba773493abf8732cf008f85731bce17bb4f7",
      "s": "0x09f68eab30f9f2e2015a2663e4073b52df0d30e6ad1b4de81e4145532c43c398",
      "v": 28,
      "creates": null,
      "raw": "0xf86c02850d9f428ea88252089432be343b94f860124dc4fee278fdcbd38c102d88888ac2d1b7c9284000801ca05289e4b61a3d50229415be62906aba773493abf8732cf008f85731bce17bb4f7a009f68eab30f9f2e2015a2663e4073b52df0d30e6ad1b4de81e4145532c43c398",
      "networkId": 0,
      "chainId": 0
    },
    {
      "hash": "0x9a59d005a57c9709bca87739df3b5c4168c5c8527c489a7f11e2c406086895e6",
      "blockHash": "0x2a2bf10c55fce1f921c835db576ea67edb98ed1c97da3444be4cc6af55d14769",
      "blockNumber": 70985,
      "transactionIndex": 2,
      "confirmations": null,
      "from": "0x17580B766f7453525ca4C6A88b01b50570EA088C",
      "gasPrice": {
        "_hex": "0xd06c9d8bf"
      },
      "gasLimit": {
        "_hex": "0x61a80"
      },
      "to": "0x5Fe5B7546D1628f7348B023A0393de1FC825A4fD",
      "value": {
        "_hex": "0xde0b6b3a7640000"
      },
      "nonce": 72,
      "data": "0xb595b8b50000000000000000000000000000000000000000000000000000000000000001",
      "r": "0x1642104343f3ef68b152a197ad8938305a1b03d674a3532ca28e4ef9a5f66a37",
      "s": "0x22e29b9ef522f2fbc58b713419632802065dae13d12d059ba851fce4c9c824f8",
      "v": 27,
      "creates": null,
      "raw": "0xf89148850d06c9d8bf83061a80945fe5b7546d1628f7348b023a0393de1fc825a4fd880de0b6b3a7640000a4b595b8b500000000000000000000000000000000000000000000000000000000000000011ba01642104343f3ef68b152a197ad8938305a1b03d674a3532ca28e4ef9a5f66a37a022e29b9ef522f2fbc58b713419632802065dae13d12d059ba851fce4c9c824f8",
      "networkId": 0,
      "chainId": 0
    }
  ]
}