{
  "hash": "0xce299141279f68162b8f2ce21a1fd4abc5e1849df8601973a3d3fc68bd9db871",
  "parentHash": "0x7ce9f0c49e6ac13cdbdecc1c882c0a06bfcd8d894fc8a6278d8374c4863aa5e7",
  "number": 50678,
  "timestamp": 1438992966,
  "nonce": "0xc9b3135d09afc1ea",
  "difficulty": 1529681005519,
  "gasLimit": {
    "_hex": "0x7108f"
  },
  "gasUsed": {
    "_hex": "0xa8d8"
  },
  "miner": "0xF2d2AfF1320476cb8C6b607199D23175cc595693",
  "extraData": "0x476574682f76312e302e312f77696e646f77732f676f312e342e32",
  "transactions": [
    {
      "hash": "0x3beecff914099fda68e0fc58c6c7c82395051a1eb8f7f1f10ef6f40a78129668",
      "blockHash": "0xce299141279f68162b8f2ce21a1fd4abc5e1849df8601973a3d3fc68bd9db871",
      "blockNumber": 50678,
      "transactionIndex": 0,
      "confirmations": null,
      "from": "0x3E8745BA322f5fd6cB50124Ec46688c7a69a7FaE",
      "gasPrice": {
        "_hex": "0xd8364fc25"
      },
      "gasLimit": {
        "_hex": "0x15f90"
      },
      "to": "0x2910543Af39abA0Cd09dBb2D50200b3E800A63D2",
      "value": {
        "_hex": "0xd8d726b7177a800000"
      },
      "nonce": 6,
      "data": "0x454e435250324d4a52",
      "r": "0xf579c8cf1782783fe8fb97bc82e6a079e94fce7529439be3afe9aca732c44e7b",
      "s": "0x5b02a44348269aeaf4fc4a7c5834c8e5fe521c8da8aded6236099ec043adc346",
      "v": 27,
      "creates": null,
      "raw": "0xf87706850d8364fc2583015f90942910543af39aba0cd09dbb2d50200b3e800a63d289d8d726b7177a80000089454e435250324d4a521ba0f579c8cf1782783fe8fb97bc82e6a079e94fce7529439be3afe9aca732c44e7ba05b02a44348269aeaf4fc4a7c5834c8e5fe521c8da8aded6236099ec043adc346",
      "networkId": 0,
      "chainId": 0
    },
    {
      "hash": "0x142d80becd5bead747a4239639ca22237841eda1f10330fb100f82245026d88c",
      "blockHash": "0xce299141279f68162b8f2ce21a1fd4abc5e1849df8601973a3d3fc68bd9db871",
      "blockNumber": 50678,
      "transactionIndex": 1,
      "confirmations": null,
      "from": "0x2dd325FDfFB97B19995284aFA5abDB574a1Df16a",
      "gasPrice": {
        "_hex": "0xd59ffc7e0"
      },
      "gasLimit": {
        "_hex": "0x15f90"
      },
      "to": "0x2910543Af39abA0Cd09dBb2D50200b3E800A63D2",
      "value": {
        "_hex": "0x56bc75e2d63100000"
      },
      "nonce": 2,
      "data": "0x454e32345444484547",
      "r": "0x964774c71ae5af4ffd5c98ed3548fa1fe857e1f6c93caf4f345af8d80377d7b2",
      "s": "0x4c368a30bccc2ad9a90b7f30af7f7918f771828b6f45170f5aa6d0564d8cdbab",
      "v": 28,
      "creates": null,
      "raw": "0xf87702850d59ffc7e083015f90942910543af39aba0cd09dbb2d50200b3e800a63d289056bc75e2d6310000089454e323454444845471ca0964774c71ae5af4ffd5c98ed3548fa1fe857e1f6c93caf4f345af8d80377d7b2a04c368a30bccc2ad9a90b7f30af7f7918f771828b6f45170f5aa6d0564d8cdbab",
      "networkId": 0,
      "chainId": 0
    }
  ]
}