{
  "hash": "0x8390e081ed485cb0b8318f4b6b197d77e6828a7d7c4db416c698743c6f832c54",
  "parentHash": "0xa916e99352b190de6792e083d3eafd8fb74598a04c7bf4b955d2286b31dc448c",
  "number": 77555,
  "timestamp": 1439439159,
  "nonce": "0x6e8c82591c56dc48",
  "difficulty": 2254590915308,
  "gasLimit": {
    "_hex": "0x2fefd8"
  },
  "gasUsed": {
    "_hex": "0x5208"
  },
  "miner": "0xe6A7a1d47ff21B6321162AEA7C6CB457D5476Bca",
  "extraData": "0x476574682f76312e302e312d38326566323666362f6c696e75782f676f312e34",
  "transactions": [
    {
      "hash": "0xe97ad0e6b0f7de7e2fef896a9a4eef8390d21b82dbe76cebf82f0a4b371ce03d",
      "blockHash": "0x8390e081ed485cb0b8318f4b6b197d77e6828a7d7c4db416c698743c6f832c54",
      "blockNumber": 77555,
      "transactionIndex": 0,
      "confirmations": null,
      "from": "0x2910543Af39abA0Cd09dBb2D50200b3E800A63D2",
      "gasPrice": {
        "_hex": "0xcb97e07b8"
      },
      "gasLimit": {
        "_hex": "0x5208"
      },
      "to": "0x3B1E88830B47B0e800C4C15a96d6da92d5C79Cf4",
      "value": {
        "_hex": "0x2b5e292df1e09f8000"
      },
      "nonce": 336,
      "data": "0x",
      "r": "0xf374f1a2de79fa33d7a5b78d92c7adbd3132eac96e54e0ae65ffb1bdf271bb03",
      "s": "0x6759810cda865b06101d25f0be1d12948d404e51be78ddf83425312b73e2b351",
      "v": 28,
      "creates": null,
      "raw": "0xf86f820150850cb97e07b8825208943b1e88830b47b0e800c4c15a96d6da92d5c79cf4892b5e292df1e09f8000801ca0f374f1a2de79fa33d7a5b78d92c7adbd3132eac96e54e0ae65ffb1bdf271bb03a06759810cda865b06101d25f0be1d12948d404e51be78ddf83425312b73e2b351",
      "networkId": 0,
      "chainId": 0
    }
  ]
}