{
  "hash": "0x758d09693ada82762c37dc52fd21f3829aff36192a8e7376c7ae03d80c59dd48",
  "parentHash": "0xd56bcfd4ba651b6d43ed5275ead09437acdedfc5c0260fa8ea8110a45e9713aa",
  "number": 76126,
  "timestamp": 1439415296,
  "nonce": "0xf62758795e5a78a6",
  "difficulty": 2240706544018,
  "gasLimit": {
    "_hex": "0x2fefd8"
  },
  "gasUsed": {
    "_hex": "0xa410"
  },
  "miner": "0xe6A7a1d47ff21B6321162AEA7C6CB457D5476Bca",
  "extraData": "0x476574682f76312e302e312d38326566323666362f6c696e75782f676f312e34",
  "transactions": [
    {
      "hash": "0xb7a9ef400e20a0a6d00cb6ccb6d005c725c3da1933334d06a79b543a1fad4e98",
      "blockHash": "0x758d09693ada82762c37dc52fd21f3829aff36192a8e7376c7ae03d80c59dd48",
      "blockNumber": 76126,
      "transactionIndex": 0,
      "confirmations": null,
      "from": "0x64CF897D51472Dc7CfF0e6368EB15B9e2d5168E3",
      "gasPrice": {
        "_hex": "0x746a528800"
      },
      "gasLimit": {
        "_hex": "0x5b04"
      },
      "to": "0x9bc6B0dEB59eF75AeDe905EBa5a779514F43D409",
      "value": {
        "_hex": "0xa"
      },
      "nonce": 9,
      "data": "0x",
      "r": "0xe8455136561375a12fc3dc60e5f0325894cbfc74b40d30de410841d7ef366176",
      "s": "0x81374c7df5f711434e5d5c6589b4da09149fb2a28b16dc88eed5e5261cd02462",
      "v": 28,
      "creates": null,
      "raw": "0xf8640985746a528800825b04949bc6b0deb59ef75aede905eba5a779514f43d4090a801ca0e8455136561375a12fc3dc60e5f0325894cbfc74b40d30de410841d7ef366176a081374c7df5f711434e5d5c6589b4da09149fb2a28b16dc88eed5e5261cd02462",
      "networkId": 0,
      "chainId": 0
    },
    {
      "hash": "0xb76ae79e4d669243c31061567b8342458652383cfe72547baa36f4ac2776a4aa",
      "blockHash": "0x758d09693ada82762c37dc52fd21f3829aff36192a8e7376c7ae03d80c59dd48",
      "blockNumber": 76126,
      "transactionIndex": 1,
      "confirmations": null,
      "from": "0x120A270bbC009644e35F0bB6ab13f95b8199c4ad",
      "gasPrice": {
        "_hex": "0xcb167e6d4"
      },
      "gasLimit": {
        "_hex": "0x3d090"
      },
      "to": "0x797e99024A03481AD2a00ffe9c98Fe145c817969",
      "value": {
        "_hex": "0xe134d8bc2a6d5800"
      },
      "nonce": 306,
      "data": "0x",
      "r": "0xc1cc3f61a2587d87da6d5fe55850946568a021caf574b087330c67ceecb10fb1",
      "s": "0x41d7e83e6295d421da03dad07f3698af6fd1f6ead994db93f646a56005646308",
      "v": 28,
      "creates": null,
      "raw": "0xf86f820132850cb167e6d48303d09094797e99024a03481ad2a00ffe9c98fe145c81796988e134d8bc2a6d5800801ca0c1cc3f61a2587d87da6d5fe55850946568a021caf574b087330c67ceecb10fb1a041d7e83e6295d421da03dad07f3698af6fd1f6ead994db93f646a56005646308",
      "networkId": 0,
      "chainId": 0
    }
  ]
}