{
  "hash": "0xfa5500bb8bff1385a5939507deb6fb4ff80c2f23aeee0ea7321b83e9f6062563",
  "parentHash": "0x86e1476de0b1b91c8c8ceb557051bf5321e5556732dcf412701fc97a775f975a",
  "number": 116531,
  "timestamp": 1440089002,
  "nonce": "0x24dc9261a234b0ac",
  "difficulty": 4551029851544,
  "gasLimit": {
    "_hex": "0x2fefd8"
  },
  "gasUsed": {
    "_hex": "0x9d7fa"
  },
  "miner": "0xe6A7a1d47ff21B6321162AEA7C6CB457D5476Bca",
  "extraData": "0xd783010002844765746887676f312e342e32856c696e7578",
  "transactions": [
    {
      "hash": "0x11d30adb50e76650892ce5090f0d8fb0fd4bc545eaee8bafae3af18b356d1acb",
      "blockHash": "0xfa5500bb8bff1385a5939507deb6fb4ff80c2f23aeee0ea7321b83e9f6062563",
      "blockNumber": 116531,
      "transactionIndex": 0,
      "confirmations": null,
      "from": "0xF000d531B485D3fc32Ed670b26509813D8f47008",
      "gasPrice": {
        "_hex": "0xdff0b0c69"
      },
      "gasLimit": {
        "_hex": "0x5208"
      },
      "to": "0x32Be343B94f860124dC4fEe278FDCBD38C102D88",
      "value": {
        "_hex": "0xdcd7812afec700000"
      },
      "nonce": 1,
      "data": "0x",
      "r": "0xe7a5ce43cdd0aac39a2b8b4e4ff1841082e9859a81782027d677e702562b6dc2",
      "s": "0x22a92076c46c15c3014ffb29de46a69432cea916852dde4ff5695df300a3350a",
      "v": 27,
      "creates": null,
      "raw": "0xf86d01850dff0b0c698252089432be343b94f860124dc4fee278fdcbd38c102d88890dcd7812afec700000801ba0e7a5ce43cdd0aac39a2b8b4e4ff1841082e9859a81782027d677e702562b6dc2a022a92076c46c15c3014ffb29de46a69432cea916852dde4ff5695df300a3350a",
      "networkId": 0,
      "chainId": 0
    },
    {
      "hash": "0xf96fff0cf77cef18f72dc9e8d0e927fb36f0be7b54a1457ee084f1cf033f380a",
      "blockHash": "0xfa5500bb8bff1385a5939507deb6fb4ff80c2f23aeee0ea7321b83e9f6062563",
      "blockNumber": 116531,
      "transactionIndex": 1,
      "confirmations": null,
      "from": "0x28D252EC46a4d6Ac35a25a6518da44C6e54EE015",
      "gasPrice": {
        "_hex": "0xde5dce401"
      },
      "gasLimit": {
        "_hex": "0x5208"
      },
      "to": "0xFBb1b73C4f0BDa4f67dcA266ce6Ef42f520fBB98",
      "value": {
        "_hex": "0xddc42a3b7748df8"
      },
      "nonce": 0,
      "data": "0x",
      "r": "0x771948a1abe13ce424f0be3f2e8194a0f8cedf052e949ce6cda93a4f00435a31",
      "s": "0x43a84884e99bfcd70cb3c652b8351ae39a02222252b04e985e2e064ba8af4d1b",
      "v": 28,
      "creates": null,
      "raw": "0xf86c80850de5dce40182520894fbb1b73c4f0bda4f67dca266ce6ef42f520fbb98880ddc42a3b7748df8801ca0771948a1abe13ce424f0be3f2e8194a0f8cedf052e949ce6cda93a4f00435a31a043a84884e99bfcd70cb3c652b8351ae39a02222252b04e985e2e064ba8af4d1b",
      "networkId": 0,
      "chainId": 0
    },
    {
      "hash": "0xa5d250b3c2c4202acb3fa2775fb7fb7994cd3212e890e89571d17818fa0872bb",
      "blockHash": "0xfa5500bb8bff1385a5939507deb6fb4ff80c2f23aeee0ea7321b83e9f6062563",
      "blockNumber": 116531,
      "transactionIndex": 2,
      "confirmations": null,
      "from": "0xE3A4CD0E7193d90A4e94EAb73d2a546a34130170",
      "gasPrice": {
        "_hex": "0xde5a47a42"
      },
      "gasLimit": {
        "_hex": "0x5208"
      },
      "to": "0x32Be343B94f860124dC4fEe278FDCBD38C102D88",
      "value": {
        "_hex": "0x1a190b396a19a6000"
      },
      "nonce": 5,
      "data": "0x",
      "r": "0x2d848d705fd59e44e3422528ccef6b7ca4b418feaa92bee8a4e14db761ef8d80",
      "s": "0x4468412a6e38e67e6e2cbba1d449399a4fdd16262ac569d7f3b11581c124d697",
      "v": 27,
      "creates": null,
      "raw": "0xf86d05850de5a47a428252089432be343b94f860124dc4fee278fdcbd38c102d888901a190b396a19a6000801ba02d848d705fd59e44e3422528ccef6b7ca4b418feaa92bee8a4e14db761ef8d80a04468412a6e38e67e6e2cbba1d449399a4fdd16262ac569d7f3b11581c124d697",
      "networkId": 0,
      "chainId": 0
    },
    {
      "hash": "0x834e5bb4eee7b40c7c2c224145291ba20da711954c7dbb47cefee4555c80ff48",
      "blockHash": "0xfa5500bb8bff1385a5939507deb6fb4ff80c2f23aeee0ea7321b83e9f6062563",
      "blockNumber": 116531,
      "transactionIndex": 3,
      "confirmations": null,
      "from": "0x7ceE0020B379cA6AB79a6821639aF44BB82aCfA8",
      "gasPrice": {
        "_hex": "0xde335820a"
      },
      "gasLimit": {
        "_hex": "0x5208"
      },
      "to": "0x32Be343B94f860124dC4fEe278FDCBD38C102D88",
      "value": {
        "_hex": "0x34ba118f3a8190000"
      },
      "nonce": 2,
      "data": "0x",
      "r": "0x43dfeb0b50d36ac6936ad771ee99156cd2110a1615df459a79c92b1e61f73ba3",
      "s": "0x696768097f0613640e7d10978856b3d9a2f714078880c7e7ddcfe314a53433d1",
      "v": 27,
      "creates": null,
      "raw": "0xf86d02850de335820a8252089432be343b94f860124dc4fee278fdcbd38c102d8889034ba118f3a8190000801ba043dfeb0b50d36ac6936ad771ee99156cd2110a1615df459a79c92b1e61f73ba3a0696768097f0613640e7d10978856b3d9a2f714078880c7e7ddcfe314a53433d1",
      "networkId": 0,
      "chainId": 0
    },
    {
      "hash": "0x38922dddd341035650f51410a96d8f2d03d2d89eab99c94fd78beeb06549efa4",
      "blockHash": "0xfa5500bb8bff1385a5939507deb6fb4ff80c2f23aeee0ea7321b83e9f6062563",
      "blockNumber": 116531,
      "transactionIndex": 4,
      "confirmations": null,
      "from": "0xA616A0Fd1E5b6A0c9d2F72C30A3fBB4ef6730a4F",
      "gasPrice": {
        "_hex": "0xddda5cad7"
      },
      "gasLimit": {
        "_hex": "0x5208"
      },
      "to": "0x32Be343B94f860124dC4fEe278FDCBD38C102D88",
      "value": {
        "_hex": "0x455f20139c1aa800"
      },
      "nonce": 0,
      "data": "0x",
      "r": "0x9a0596dbc3517f4609cef551d851429316e2fd8d99251dbed40966883db0312f",
      "s": "0x20bdc9b97936faced0ebfffe4493d25791efa04e19b764f6729ba2373b2e7d72",
      "v": 28,
      "creates": null,
      "raw": "0xf86c80850ddda5cad78252089432be343b94f860124dc4fee278fdcbd38c102d8888455f20139c1aa800801ca09a0596dbc3517f4609cef551d851429316e2fd8d99251dbed40966883db0312fa020bdc9b97936faced0ebfffe4493d25791efa04e19b764f6729ba2373b2e7d72",
      "networkId": 0,
      "chainId": 0
    },
    {
      "hash": "0x5cb332ef55776d61ade27ee1a7bd2a375e5109a1926b821f97a41675db475a6b",
      "blockHash": "0xfa5500bb8bff1385a5939507deb6fb4ff80c2f23aeee0ea7321b83e9f6062563",
      "blockNumber": 116531,
      "transactionIndex": 5,
      "confirmations": null,
      "from": "0x120A270bbC009644e35F0bB6ab13f95b8199c4ad",
      "gasPrice": {
        "_hex": "0xddcb99c98"
      },
      "gasLimit": {
        "_hex": "0x3d090"
      },
      "to": "0x60d85a32126130b225913C23dF4e5EF8b759fA09",
      "value": {
        "_hex": "0x25f273933db5700000"
      },
      "nonce": 962,
      "data": "0x",
      "r": "0x4f9ac7f88c80f69c2948ff41eb7be09a82b92040e4e06a9cf4639168d02122d9",
      "s": "0x3c9e1bd7c5af83b677fc94ea1cfb1c4b2973d16d8c6e658cf8262b6c10fff0f0",
      "v": 27,
      "creates": null,
      "raw": "0xf8708203c2850ddcb99c988303d0909460d85a32126130b225913c23df4e5ef8b759fa098925f273933db5700000801ba04f9ac7f88c80f69c2948ff41eb7be09a82b92040e4e06a9cf4639168d02122d9a03c9e1bd7c5af83b677fc94ea1cfb1c4b2973d16d8c6e658cf8262b6c10fff0f0",
      "networkId": 0,
      "chainId": 0
    },
    {
      "hash": "0x74032baa75325075178deee1a3c5ffb23314bbc272e6efb0d79fd04ed75c80fb",
      "blockHash": "0xfa5500bb8bff1385a5939507deb6fb4ff80c2f23aeee0ea7321b83e9f6062563",
      "blockNumber": 116531,
      "transactionIndex": 6,
      "confirmations": null,
      "from": "0xDa1d8D4c5fcF90F031f912409052224a15B83101",
      "gasPrice": {
        "_hex": "0xddbc611d8"
      },
      "gasLimit": {
        "_hex": "0x15f90"
      },
      "to": "0xeDc1c224e7D9A03E71143A45645d83e12fB0acb5",
      "value": {
        "_hex": "0x2a7fec5a7b980a000"
      },
      "nonce": 1,
      "data": "0x",
      "r": "0x5755253e49e3d127ceb82ba09f2ace8fd0ca3b604fbef53acc27796a17c3b386",
      "s": "0x0eac985fbb14ea694fd09e0b37151749cb925c8382b311c38e46c7d36a6b8d76",
      "v": 27,
      "creates": null,
      "raw": "0xf86e01850ddbc611d883015f9094edc1c224e7d9a03e71143a45645d83e12fb0acb58902a7fec5a7b980a000801ba05755253e49e3d127ceb82ba09f2ace8fd0ca3b604fbef53acc27796a17c3b386a00eac985fbb14ea694fd09e0b37151749cb925c8382b311c38e46c7d36a6b8d76",
      "networkId": 0,
      "chainId": 0
    },
    {
      "hash": "0x259acdb32518ffbab9120834d45dce0f7d3a2fcac0f58e2b7e4cdb535bde7a30",
      "blockHash": "0xfa5500bb8bff1385a5939507deb6fb4ff80c2f23aeee0ea7321b83e9f6062563",
      "blockNumber": 116531,
      "transactionIndex": 7,
      "confirmations": null,
      "from": "0x7548566f611b89EBfb57C547FeA0c293A2830aD2",
      "gasPrice": {
        "_hex": "0xdd1280d2e"
      },
      "gasLimit": {
        "_hex": "0x5208"
      },
      "to": "0x32Be343B94f860124dC4fEe278FDCBD38C102D88",
      "value": {
        "_hex": "0x748e5e107cde8800"
      },
      "nonce": 6,
      "data": "0x",
      "r": "0x07434230a93c7bf5082732adb871d1aab10010ba750bb46d1788c0403bbd55fb",
      "s": "0x0c555bf65e87862bf2ea6c98d702f5949f830450b794b557d74a6c4f1f73d939",
      "v": 27,
      "creates": null,
      "raw": "0xf86c06850dd1280d2e8252089432be343b94f860124dc4fee278fdcbd38c102d8888748e5e107cde8800801ba007434230a93c7bf5082732adb871d1aab10010ba750bb46d1788c0403bbd55fba00c555bf65e87862bf2ea6c98d702f5949f830450b794b557d74a6c4f1f73d939",
      "networkId": 0,
      "chainId": 0
    },
    {
      "hash": "0x5377b80178c78bdddd46f5172d36aaa507c91ddf4e01385a3d527ed57b7d64ee",
      "blockHash": "0xfa5500bb8bff1385a5939507deb6fb4ff80c2f23aeee0ea7321b83e9f6062563",
      "blockNumber": 116531,
      "transactionIndex": 8,
      "confirmations": null,
      "from": "0x8B9a9b77Edb4d38018522c1C24008B0499fee12E",
      "gasPrice": {
        "_hex": "0xd8379100f"
      },
      "gasLimit": {
        "_hex": "0x5208"
      },
      "to": "0x32Be343B94f860124dC4fEe278FDCBD38C102D88",
      "value": {
        "_hex": "0x10a2ed1ac12f2c00"
      },
      "nonce": 0,
      "data": "0x",
      "r": "0xf91b5850efdeafc2302418b135160f8b8639508224e571db3094558fa2e2b665",
      "s": "0x4829832d066d9a267bba206faf6b3c0b78c2f7c422a1fbe4265d6c539d8e83c0",
      "v": 27,
      "creates": null,
      "raw": "0xf86c80850d8379100f8252089432be343b94f860124dc4fee278fdcbd38c102d888810a2ed1ac12f2c00801ba0f91b5850efdeafc2302418b135160f8b8639508224e571db3094558fa2e2b665a04829832d066d9a267bba206faf6b3c0b78c2f7c422a1fbe4265d6c539d8e83c0",
      "networkId": 0,
      "chainId": 0
    },
    {
      "hash": "0x770661181bb1af89588e16f6c2059a593e25c340424e496d6508e2c7329965f7",
      "blockHash": "0xfa5500bb8bff1385a5939507deb6fb4ff80c2f23aeee0ea7321b83e9f6062563",
      "blockNumber": 116531,
      "transactionIndex": 9,
      "confirmations": null,
      "from": "0x047fF53dFE1F7BD2c3Ed2D1f777F35D1f64e9ffE",
      "gasPrice": {
        "_hex": "0xd8379100f"
      },
      "gasLimit": {
        "_hex": "0x5208"
      },
      "to": "0x32Be343B94f860124dC4fEe278FDCBD38C102D88",
      "value": {
        "_hex": "0x870c1308747090000"
      },
      "nonce": 10,
      "data": "0x",
      "r": "0xfef0526ab4098ed90f5325b7601627557f02587223159d003ec2d05ceaf125bc",
      "s": "0x407113277a1c09dd587cc7babb66b0cd55fee4bf5401c019445bc8ec24b667ef",
      "v": 28,
      "creates": null,
      "raw": "0xf86d0a850d8379100f8252089432be343b94f860124dc4fee278fdcbd38c102d88890870c1308747090000801ca0fef0526ab4098ed90f5325b7601627557f02587223159d003ec2d05ceaf125bca0407113277a1c09dd587cc7babb66b0cd55fee4bf5401c019445bc8ec24b667ef",
      "networkId": 0,
      "chainId": 0
    },
    {
      "hash": "0x58d93bf196e368e3ba913748b1295f88f7eef38005846aecc0d37c9ec11d3aec",
      "blockHash": "0xfa5500bb8bff1385a5939507deb6fb4ff80c2f23aeee0ea7321b83e9f6062563",
      "blockNumber": 116531,
      "transactionIndex": 10,
      "confirmations": null,
      "from": "0x9A9bcc9D0E610C1E7Adc0b4c21C803b86288e027",
      "gasPrice": {
        "_hex": "0xd7b3d943a"
      },
      "gasLimit": {
        "_hex": "0x15f90"
      },
      "to": "0xeDc1c224e7D9A03E71143A45645d83e12fB0acb5",
      "value": {
        "_hex": "0xdab9aede1fd8400"
      },
      "nonce": 0,
      "data": "0x",
      "r": "0xfc08a324e22c94d50db872e639633142d05d4d5e88340ae15fac01c1061499b0",
      "s": "0x21123884059201df129b28e2b960aeeab596c964b0b44442bf1453a71b0c542c",
      "v": 28,
      "creates": null,
      "raw": "0xf86d80850d7b3d943a83015f9094edc1c224e7d9a03e71143a45645d83e12fb0acb5880dab9aede1fd8400801ca0fc08a324e22c94d50db872e639633142d05d4d5e88340ae15fac01c1061499b0a021123884059201df129b28e2b960aeeab596c964b0b44442bf1453a71b0c542c",
      "networkId": 0,
      "chainId": 0
    },
    {
      "hash": "0x3dc9dc578761614d2d840d140d7e3c789c3259c6244f63abd5a5c17e525612ee",
      "blockHash": "0xfa5500bb8bff1385a5939507deb6fb4ff80c2f23aeee0ea7321b83e9f6062563",
      "blockNumber": 116531,
      "transactionIndex": 11,
      "confirmations": null,
      "from": "0xf00955cEDD33a99B4a993aABeb4239e268aaD294",
      "gasPrice": {
        "_hex": "0xd79ffbd14"
      },
      "gasLimit": {
        "_hex": "0x5208"
      },
      "to": "0x32Be343B94f860124dC4fEe278FDCBD38C102D88",
      "value": {
        "_hex": "0x299dd29afc66a400"
      },
      "nonce": 4,
      "data": "0x",
      "r": "0x4531d2a3c56650cb639d4a456a0ff93eef185baaf137ca4573e6e7332883eb0b",
      "s": "0x5a75e953d33e4f0aa446d3482021a9cf91c948fa977c14c7f9e2438e74b5ff67",
      "v": 28,
      "creates": null,
      "raw": "0xf86c04850d79ffbd148252089432be343b94f860124dc4fee278fdcbd38c102d8888299dd29afc66a400801ca04531d2a3c56650cb639d4a456a0ff93eef185baaf137ca4573e6e7332883eb0ba05a75e953d33e4f0aa446d3482021a9cf91c948fa977c14c7f9e2438e74b5ff67",
      "networkId": 0,
      "chainId": 0
    },
    {
      "hash": "0x3309f8afe56f057b16de8ebc71e523f99cd615262c32c3bc44bb4019adb945da",
      "blockHash": "0xfa5500bb8bff1385a5939507deb6fb4ff80c2f23aeee0ea7321b83e9f6062563",
      "blockNumber": 116531,
      "transactionIndex": 12,
      "confirmations": null,
      "from": "0xD9176cf582B2f51fAD57941e0a84dfBa0Ed3620D",
      "gasPrice": {
        "_hex": "0xd79ffbd14"
      },
      "gasLimit": {
        "_hex": "0x5208"
      },
      "to": "0x32Be343B94f860124dC4fEe278FDCBD38C102D88",
      "value": {
        "_hex": "0x670f18abd688c8000"
      },
      "nonce": 3,
      "data": "0x",
      "r": "0x53485b928e03778190e629cf302f4a286de0caf5a3ed25a35f209df293a4e27d",
      "s": "0x760a4d52143243e15d195205081088aaf5c7f9f3f1ede7c3b8b957e1a528e637",
      "v": 28,
      "creates": null,
      "raw": "0xf86d03850d79ffbd148252089432be343b94f860124dc4fee278fdcbd38c102d88890670f18abd688c8000801ca053485b928e03778190e629cf302f4a286de0caf5a3ed25a35f209df293a4e27da0760a4d52143243e15d195205081088aaf5c7f9f3f1ede7c3b8b957e1a528e637",
      "networkId": 0,
      "chainId": 0
    },
    {
      "hash": "0x2c36dc23e9233461573ff147b90e361a8d790b5b641950b19a73e35b21e4c512",
      "blockHash": "0xfa5500bb8bff1385a5939507deb6fb4ff80c2f23aeee0ea7321b83e9f6062563",
      "blockNumber": 116531,
      "transactionIndex": 13,
      "confirmations": null,
      "from": "0xDF01e9ACe02Dc63458b0afaA54056e5291828a33",
      "gasPrice": {
        "_hex": "0xd62e479d7"
      },
      "gasLimit": {
        "_hex": "0x7530"
      },
      "to": "0x4410F83EFAfE6e5167BD2aF2a8CE2d9e79019AF0",
      "value": {
        "_hex": "0xb1a2bc2ec50000"
      },
      "nonce": 0,
      "data": "0x00",
      "r": "0x157dfcfdd5d51022569df3e572a38263b1ce42b2dcb19be6c6958723b56129ce",
      "s": "0xf1e298805b5fc7bf0c557ac868a67dd8946dcc14e8b89387da429a1a8e1c0530",
      "v": 27,
      "creates": null,
      "raw": "0xf86b80850d62e479d7827530944410f83efafe6e5167bd2af2a8ce2d9e79019af087b1a2bc2ec50000001ba0157dfcfdd5d51022569df3e572a38263b1ce42b2dcb19be6c6958723b56129cea0f1e298805b5fc7bf0c557ac868a67dd8946dcc14e8b89387da429a1a8e1c0530",
      "networkId": 0,
      "chainId": 0
    },
    {
      "hash": "0xc4fdd5647a452cef6ccea6746803c43dc15a65c1cd0d1af24b41ed8d8e118467",
      "blockHash": "0xfa5500bb8bff1385a5939507deb6fb4ff80c2f23aeee0ea7321b83e9f6062563",
      "blockNumber": 116531,
      "transactionIndex": 14,
      "confirmations": null,
      "from": "0x41c043029b0D13183C40Ffaafb3951Dc79eCA200",
      "gasPrice": {
        "_hex": "0xd60340b78"
      },
      "gasLimit": {
        "_hex": "0x249f0"
      },
      "to": "0xE28e72FCf78647ADCe1F1252F240bbfaebD63BcC",
      "value": {
        "_hex": "0x3627e8f712373c0000"
      },
      "nonce": 1,
      "data": "0x45466f3a",
      "r": "0x90a74738b0db656702c987c464fc9ebdb9aa9abfe93aabd2eca2e3627223f514",
      "s": "0x26c10651514ea852c528e996dad1d085016a886b44837d0605bd07a10decf697",
      "v": 28,
      "creates": null,
      "raw": "0xf87201850d60340b78830249f094e28e72fcf78647adce1f1252f240bbfaebd63bcc893627e8f712373c00008445466f3a1ca090a74738b0db656702c987c464fc9ebdb9aa9abfe93aabd2eca2e3627223f514a026c10651514ea852c528e996dad1d085016a886b44837d0605bd07a10decf697",
      "networkId": 0,
      "chainId": 0
    },
    {
      "hash": "0xa3a24f46621beb22f6b87962e8d87b914f02f629c37525fc793d2a6267652bb7",
      "blockHash": "0xfa5500bb8bff1385a5939507deb6fb4ff80c2f23aeee0ea7321b83e9f6062563",
      "blockNumber": 116531,
      "transactionIndex": 15,
      "confirmations": null,
      "from": "0x120A270bbC009644e35F0bB6ab13f95b8199c4ad",
      "gasPrice": {
        "_hex": "0xd45ec2427"
      },
      "gasLimit": {
        "_hex": "0x3d090"
      },
      "to": "0xdDbddD1BBd38fFADE0305d30f02028D92e9f3Aa8",
      "value": {
        "_hex": "0x95137daa12f938400"
      },
      "nonce": 963,
      "data": "0x",
      "r": "0x434f667e04057e1c38b91381c4bcded2773ed7e8317028223987a7222625af18",
      "s": "0x0bcf10a0c6177c43d52395218837525401ddc82cf17225cbc178a3c1e1ae2aa3",
      "v": 27,
      "creates": null,
      "raw": "0xf8708203c3850d45ec24278303d09094ddbddd1bbd38ffade0305d30f02028d92e9f3aa889095137daa12f938400801ba0434f667e04057e1c38b91381c4bcded2773ed7e8317028223987a7222625af18a00bcf10a0c6177c43d52395218837525401ddc82cf17225cbc178a3c1e1ae2aa3",
      "networkId": 0,
      "chainId": 0
    },
    {
      "hash": "0x3fdd6ced33491b47e40bd498ea1a9e9d27d17cb2ff9e3318d609e48dfbe2a9b3",
      "blockHash": "0xfa5500bb8bff1385a5939507deb6fb4ff80c2f23aeee0ea7321b83e9f6062563",
      "blockNumber": 116531,
      "transactionIndex": 16,
      "confirmations": null,
      "from": "0xb2d1cCd26cdfC4474Ac02423AeFc62dA2A3Bc839",
      "gasPrice": {
        "_hex": "0xd43780c2c"
      },
      "gasLimit": {
        "_hex": "0x5208"
      },
      "to": "0x32Be343B94f860124dC4fEe278FDCBD38C102D88",
      "value": {
        "_hex": "0x22b184bd2f9f72000"
      },
      "nonce": 7,
      "data": "0x",
      "r": "0xa50c9ef59f53bff53823d750aef45c618fb8cf2e7b7a1cd4d8213f9796246da2",
      "s": "0x6f80115331d5a359f51ae6d8dc70c4b52837179a12ff20aa99d31e512f56d3c8",
      "v": 27,
      "creates": null,
      "raw": "0xf86d07850d43780c2c8252089432be343b94f860124dc4fee278fdcbd38c102d8889022b184bd2f9f72000801ba0a50c9ef59f53bff53823d750aef45c618fb8cf2e7b7a1cd4d8213f9796246da2a06f80115331d5a359f51ae6d8dc70c4b52837179a12ff20aa99d31e512f56d3c8",
      "networkId": 0,
      "chainId": 0
    },
    {
      "hash": "0x2254a5648fb9c900bb56af8375e0b815f6c5f72d4f7828e0d41dd8623b7ece46",
      "blockHash": "0xfa5500bb8bff1385a5939507deb6fb4ff80c2f23aeee0ea7321b83e9f6062563",
      "blockNumber": 116531,
      "transactionIndex": 17,
      "confirmations": null,
      "from": "0xd7BcdE951198c558ee285C228b88cB6C51956Ae1",
      "gasPrice": {
        "_hex": "0xd391116d3"
      },
      "gasLimit": {
        "_hex": "0x5208"
      },
      "to": "0x32Be343B94f860124dC4fEe278FDCBD38C102D88",
      "value": {
        "_hex": "0xddc6e44ffed9800"
      },
      "nonce": 0,
      "data": "0x",
      "r": "0x1f4664017213c586f2ce10a4df69ac63f9e2d4e0ed4d5b24179ad13c9cb7f42e",
      "s": "0x0fa8c2a8311fe3aaf322692348b28fee50736207705e31ac2a6d0f34e3297a64",
      "v": 27,
      "creates": null,
      "raw": "0xf86c80850d391116d38252089432be343b94f860124dc4fee278fdcbd38c102d88880ddc6e44ffed9800801ba01f4664017213c586f2ce10a4df69ac63f9e2d4e0ed4d5b24179ad13c9cb7f42ea00fa8c2a8311fe3aaf322692348b28fee50736207705e31ac2a6d0f34e3297a64",
      "networkId": 0,
      "chainId": 0
    },
    {
      "hash": "0xdaed64ea30d5847d1da6fe257f77dca88bfeaa9e73a46769207f194934be861e",
      "blockHash": "0xfa5500bb8bff1385a5939507deb6fb4ff80c2f23aeee0ea7321b83e9f6062563",
      "blockNumber": 116531,
      "transactionIndex": 18,
      "confirmations": null,
      "from": "0x0cA19A53a3256482A89770FC1daFC7630717F201",
      "gasPrice": {
        "_hex": "0xd3610ade3"
      },
      "gasLimit": {
        "_hex": "0x5208"
      },
      "to": "0x32Be343B94f860124dC4fEe278FDCBD38C102D88",
      "value": {
        "_hex": "0x3d0a6ad2df2300000"
      },
      "nonce": 18,
      "data": "0x",
      "r": "0x591aebb1e01d8726b7f5ca1bc1daee4aa1078b5d1727b9aff580ee4bfe2d8e01",
      "s": "0x5028d445285d869bf8cb80d88914898eb740e25d56937091770f38fccd23c081",
      "v": 27,
      "creates": null,
      "raw": "0xf86d12850d3610ade38252089432be343b94f860124dc4fee278fdcbd38c102d888903d0a6ad2df2300000801ba0591aebb1e01d8726b7f5ca1bc1daee4aa1078b5d1727b9aff580ee4bfe2d8e01a05028d445285d869bf8cb80d88914898eb740e25d56937091770f38fccd23c081",
      "networkId": 0,
      "chainId": 0
    },
    {
      "hash": "0xb03c88bc7a4c3266c98479af49835e5d26f61c18b01c3483aac4d72bff58a707",
      "blockHash": "0xfa5500bb8bff1385a5939507deb6fb4ff80c2f23aeee0ea7321b83e9f6062563",
      "blockNumber": 116531,
      "transactionIndex": 19,
      "confirmations": null,
      "from": "0xBb7f43EDfd8bf08B022fEd5BD91e3f9dE7e74D09",
      "gasPrice": {
        "_hex": "0xd26375447"
      },
      "gasLimit": {
        "_hex": "0x5208"
      },
      "to": "0x32Be343B94f860124dC4fEe278FDCBD38C102D88",
      "value": {
        "_hex": "0x8ac2ec5db93fc000"
      },
      "nonce": 9,
      "data": "0x",
      "r": "0x6d9e70f0b01245d768c6ade05261d4b89df1dd138f6e5d88b27fcbb77b04ea4b",
      "s": "0x706829428d362061d75e1deb72a24783247981c133bff22d569bf2e4b8d39d94",
      "v": 28,
      "creates": null,
      "raw": "0xf86c09850d263754478252089432be343b94f860124dc4fee278fdcbd38c102d88888ac2ec5db93fc000801ca06d9e70f0b01245d768c6ade05261d4b89df1dd138f6e5d88b27fcbb77b04ea4ba0706829428d362061d75e1deb72a24783247981c133bff22d569bf2e4b8d39d94",
      "networkId": 0,
      "chainId": 0
    },
    {
      "hash": "0x76ae48eaaaee2d0cd1a7d81b78e31c839c90277e74dd5f3f28ff9f5bcd756de3",
      "blockHash": "0xfa5500bb8bff1385a5939507deb6fb4ff80c2f23aeee0ea7321b83e9f6062563",
      "blockNumber": 116531,
      "transactionIndex": 20,
      "confirmations": null,
      "from": "0x120A270bbC009644e35F0bB6ab13f95b8199c4ad",
      "gasPrice": {
        "_hex": "0xcdf667708"
      },
      "gasLimit": {
        "_hex": "0x3d090"
      },
      "to": "0xef39804Fd2836Ef471E13ecFa2B91C42C368cE76",
      "value": {
        "_hex": "0x2b5e3af16b1880000"
      },
      "nonce": 964,
      "data": "0x",
      "r": "0x122f0021fbe81e9379c275fe3d179d036a9f53bbda9286edc706bc145f503e90",
      "s": "0x586b697228f4c77b6f7c39944e2ed05c7fdc89240ca598a45ec6fea255f21395",
      "v": 28,
      "creates": null,
      "raw": "0xf8708203c4850cdf6677088303d09094ef39804fd2836ef471e13ecfa2b91c42c368ce768902b5e3af16b1880000801ca0122f0021fbe81e9379c275fe3d179d036a9f53bbda9286edc706bc145f503e90a0586b697228f4c77b6f7c39944e2ed05c7fdc89240ca598a45ec6fea255f21395",
      "networkId": 0,
      "chainId": 0
    },
    {
      "hash": "0xd091b54cffb6644e8e075a771e90544b994aefabb7bac552f35a50d92c02708f",
      "blockHash": "0xfa5500bb8bff1385a5939507deb6fb4ff80c2f23aeee0ea7321b83e9f6062563",
      "blockNumber": 116531,
      "transactionIndex": 21,
      "confirmations": null,
      "from": "0x120A270bbC009644e35F0bB6ab13f95b8199c4ad",
      "gasPrice": {
        "_hex": "0xcdf667708"
      },
      "gasLimit": {
        "_hex": "0x3d090"
      },
      "to": "0x78e9620B1DB726C61eEd97a5531329c6fDaa265d",
      "value": {
        "_hex": "0x247c09f92cd5e8d000"
      },
      "nonce": 965,
      "data": "0x",
      "r": "0x8f7462c1d360fa3c850dc19a077648d5083915716ab2fb568a95df970d6b442a",
      "s": "0x7b0a69a71141ee5836020c54f5ada44c0ddd52af9af181fda9d323b0cabfd5c6",
      "v": 27,
      "creates": null,
      "raw": "0xf8708203c5850cdf6677088303d0909478e9620b1db726c61eed97a5531329c6fdaa265d89247c09f92cd5e8d000801ba08f7462c1d360fa3c850dc19a077648d5083915716ab2fb568a95df970d6b442aa07b0a69a71141ee5836020c54f5ada44c0ddd52af9af181fda9d323b0cabfd5c6",
      "networkId": 0,
      "chainId": 0
    },
    {
      "hash": "0xd8312a24612e4f4018c34bdc1828ab53ee385d9a530174d256ec9a2d0cbbc230",
      "blockHash": "0xfa5500bb8bff1385a5939507deb6fb4ff80c2f23aeee0ea7321b83e9f6062563",
      "blockNumber": 116531,
      "transactionIndex": 22,
      "confirmations": null,
      "from": "0x120A270bbC009644e35F0bB6ab13f95b8199c4ad",
      "gasPrice": {
        "_hex": "0xcdf667708"
      },
      "gasLimit": {
        "_hex": "0x3d090"
      },
      "to": "0x80a2A362F7328959F956E06121ae770b07144F5F",
      "value": {
        "_hex": "0x2493af5ab6fbe0f000"
      },
      "nonce": 966,
      "data": "0x",
      "r": "0x1bce65ffee98d58bccafb78c23ab4d0a6a0d3625a5206722161b8c8e27deb3a7",
      "s": "0x6a8a88e2b172505cb8aa9d920f77a85aa3d8eac01a6eea2c6ada00353b52c62a",
      "v": 27,
      "creates": null,
      "raw": "0xf8708203c6850cdf6677088303d0909480a2a362f7328959f956e06121ae770b07144f5f892493af5ab6fbe0f000801ba01bce65ffee98d58bccafb78c23ab4d0a6a0d3625a5206722161b8c8e27deb3a7a06a8a88e2b172505cb8aa9d920f77a85aa3d8eac01a6eea2c6ada00353b52c62a",
      "networkId": 0,
      "chainId": 0
    },
    {
      "hash": "0x8084c18f1a8127a5c6758daea696da8175a9af3db5c810bc33ff94bbbc967b4e",
      "blockHash": "0xfa5500bb8bff1385a5939507deb6fb4ff80c2f23aeee0ea7321b83e9f6062563",
      "blockNumber": 116531,
      "transactionIndex": 23,
      "confirmations": null,
      "from": "0x5D9067970755043fF5cE7FA2cd21C12F3646Bc55",
      "gasPrice": {
        "_hex": "0xcd8200ea1"
      },
      "gasLimit": {
        "_hex": "0x5208"
      },
      "to": "0x32Be343B94f860124dC4fEe278FDCBD38C102D88",
      "value": {
        "_hex": "0x20bbb4c69da5ce000"
      },
      "nonce": 7,
      "data": "0x",
      "r": "0xcc32164bf060ae3958e5e5d79dfc17e11b30f07a72cbf28b932b78433f368a66",
      "s": "0x065eefbf8ff360d71d6ec1996f18e938bf51d8a9bd5ddc508ed577204afad0dc",
      "v": 28,
      "creates": null,
      "raw": "0xf86d07850cd8200ea18252089432be343b94f860124dc4fee278fdcbd38c102d8889020bbb4c69da5ce000801ca0cc32164bf060ae3958e5e5d79dfc17e11b30f07a72cbf28b932b78433f368a66a0065eefbf8ff360d71d6ec1996f18e938bf51d8a9bd5ddc508ed577204afad0dc",
      "networkId": 0,
      "chainId": 0
    },
    {
      "hash": "0x3cb3ef05a96dc20a69b53f2a56b17fa3b65aa4836576231ef97c5e868e8e255b",
      "blockHash": "0xfa5500bb8bff1385a5939507deb6fb4ff80c2f23aeee0ea7321b83e9f6062563",
      "blockNumber": 116531,
      "transactionIndex": 24,
      "confirmations": null,
      "from": "0xD9B8E8ad1083a6F83438039BFF0d74Dc06006722",
      "gasPrice": {
        "_hex": "0xcd8200ea1"
      },
      "gasLimit": {
        "_hex": "0x5208"
      },
      "to": "0x32Be343B94f860124dC4fEe278FDCBD38C102D88",
      "value": {
        "_hex": "0xd8d6ac0512e008000"
      },
      "nonce": 1,
      "data": "0x",
      "r": "0x260b3c61783cd8e13871727ac55cd5827168a305501e467f3b8bf59aa7c55d50",
      "s": "0x49035dce7a6b2eaa6170d4a4d926c5ab48eb48b860d7898cd176bc87e3fed952",
      "v": 28,
      "creates": null,
      "raw": "0xf86d01850cd8200ea18252089432be343b94f860124dc4fee278fdcbd38c102d88890d8d6ac0512e008000801ca0260b3c61783cd8e13871727ac55cd5827168a305501e467f3b8bf59aa7c55d50a049035dce7a6b2eaa6170d4a4d926c5ab48eb48b860d7898cd176bc87e3fed952",
      "networkId": 0,
      "chainId": 0
    },
    {
      "hash": "0x8b754e535716bb46d5434e273963972fcc62981d92abb0603f0b7ff5d2d119ed",
      "blockHash": "0xfa5500bb8bff1385a5939507deb6fb4ff80c2f23aeee0ea7321b83e9f6062563",
      "blockNumber": 116531,
      "transactionIndex": 25,
      "confirmations": null,
      "from": "0x664254957B416b15EE4A881B59Deab3c4159E549",
      "gasPrice": {
        "_hex": "0xcd3cc8e5e"
      },
      "gasLimit": {
        "_hex": "0x5208"
      },
      "to": "0x32Be343B94f860124dC4fEe278FDCBD38C102D88",
      "value": {
        "_hex": "0x62501f0d6565dc000"
      },
      "nonce": 2,
      "data": "0x",
      "r": "0xc9c07d35a35cbe20c29ec9173870d9db4dd9b0038947a7e2876696230d1d00d0",
      "s": "0x09db7f6c29f3366113c66c94ebb2418302118b4c29bea925345a69f9ee718e9a",
      "v": 28,
      "creates": null,
      "raw": "0xf86d02850cd3cc8e5e8252089432be343b94f860124dc4fee278fdcbd38c102d8889062501f0d6565dc000801ca0c9c07d35a35cbe20c29ec9173870d9db4dd9b0038947a7e2876696230d1d00d0a009db7f6c29f3366113c66c94ebb2418302118b4c29bea925345a69f9ee718e9a",
      "networkId": 0,
      "chainId": 0
    },
    {
      "hash": "0x50ddc03bf7b43f10311cef16a85e4e8d043e56de0e0aa63e2b03d5a3611f91c4",
      "blockHash": "0xfa5500bb8bff1385a5939507deb6fb4ff80c2f23aeee0ea7321b83e9f6062563",
      "blockNumber": 116531,
      "transactionIndex": 26,
      "confirmations": null,
      "from": "0xA616A0Fd1E5b6A0c9d2F72C30A3fBB4ef6730a4F",
      "gasPrice": {
        "_hex": "0xccde83717"
      },
      "gasLimit": {
        "_hex": "0x5208"
      },
      "to": "0x32Be343B94f860124dC4fEe278FDCBD38C102D88",
      "value": {
        "_hex": "0xcd7b6a569464c000"
      },
      "nonce": 1,
      "data": "0x",
      "r": "0x8c8c7fad1827068c39722ffd66734812b1390f297a632296505d8bf3031b94d6",
      "s": "0x65439100438573c3a74f2ef210d7fe0878d4eba2105fb5660ed3c37432459443",
      "v": 27,
      "creates": null,
      "raw": "0xf86c01850ccde837178252089432be343b94f860124dc4fee278fdcbd38c102d8888cd7b6a569464c000801ba08c8c7fad1827068c39722ffd66734812b1390f297a632296505d8bf3031b94d6a065439100438573c3a74f2ef210d7fe0878d4eba2105fb5660ed3c37432459443",
      "networkId": 0,
      "chainId": 0
    }
  ]
}