{
  "hash": "0xf3ca60eb330b43a2670aff2cd402ea5314ff25e4f711c52d83a1ce7154d14b32",
  "parentHash": "0xae4fe1410a531369be8be842cf4fe57a4e200df63c56e626b495d1632544094d",
  "number": 97397,
  "timestamp": 1439755337,
  "nonce": "0x99a5eeacc0da0292",
  "difficulty": 3822393024380,
  "gasLimit": {
    "_hex": "0x2fefd8"
  },
  "gasUsed": {
    "_hex": "0x5208"
  },
  "miner": "0x790b8a3cE86E707ED0eD32bF89B3269692a23CC1",
  "extraData": "0xd783010001844765746887676f312e342e32856c696e7578",
  "transactions": [
    {
      "hash": "0xe71f24aa6e66d0e76c955ada7893f37e192d23d3f2d201538559be278afa138e",
      "blockHash": "0xf3ca60eb330b43a2670aff2cd402ea5314ff25e4f711c52d83a1ce7154d14b32",
      "blockNumber": 97397,
      "transactionIndex": 0,
      "confirmations": null,
      "from": "0x7d3e543308c8E6E9F06536ee1A9E34944d28bcdA",
      "gasPrice": {
        "_hex": "0xdc341d9a2"
      },
      "gasLimit": {
        "_hex": "0x15f90"
      },
      "to": "0xd7F6723Be60dBbC4EF2b4246FaFEa9cEF9eE9846",
      "value": {
        "_hex": "0x6f05b59d3b20000"
      },
      "nonce": 0,
      "data": "0x",
      "r": "0x59a6baa1857b5edb4b67fab2c8936dd902bf1f404ba2bd67adf69ca2186ddab4",
      "s": "0x3c8930cac313b56895bfb46c9a883ece25698a24758785002268bc79021740ba",
      "v": 27,
      "creates": null,
      "raw": "0xf86d80850dc341d9a283015f9094d7f6723be60dbbc4ef2b4246fafea9cef9ee98468806f05b59d3b20000801ba059a6baa1857b5edb4b67fab2c8936dd902bf1f404ba2bd67adf69ca2186ddab4a03c8930cac313b56895bfb46c9a883ece25698a24758785002268bc79021740ba",
      "networkId": 0,
      "chainId": 0
    }
  ]
}