{
  "hash": "0x7d3e12d70ed7b06ef67f3c4df19bda9872447d6779e35866c93ffa0947030054",
  "parentHash": "0x3efe3294fb09e0d90e549e88edb6929196bdf2afdac32da0f50967032142abef",
  "number": 96249,
  "timestamp": 1439737287,
  "nonce": "0xf1a53b813d25a603",
  "difficulty": 3676462533677,
  "gasLimit": {
    "_hex": "0x2fefd8"
  },
  "gasUsed": {
    "_hex": "0xa410"
  },
  "miner": "0xe6A7a1d47ff21B6321162AEA7C6CB457D5476Bca",
  "extraData": "0x476574682f76312e302e312d38326566323666362f6c696e75782f676f312e34",
  "transactions": [
    {
      "hash": "0xed8e45fd367239afb8cd5a71427c34a6b0d3fa2dce4aa89bad0f517ba14149a6",
      "blockHash": "0x7d3e12d70ed7b06ef67f3c4df19bda9872447d6779e35866c93ffa0947030054",
      "blockNumber": 96249,
      "transactionIndex": 0,
      "confirmations": null,
      "from": "0xDdFafdbC7c90f1320e54b98F374617fbd01d109f",
      "gasPrice": {
        "_hex": "0x10e6196ff4c"
      },
      "gasLimit": {
        "_hex": "0x55f0"
      },
      "to": "0x06402aC4416476Bf55199D9c7BE67C387bb6773c",
      "value": {
        "_hex": "0xde0b6b3a7640000"
      },
      "nonce": 7,
      "data": "0x",
      "r": "0x560cb0dd52f1e65ddcb2503487399658d121f9d592e01fe88352ad92ebe18646",
      "s": "0x09f6d33b47d1d3b22f0fdce391c22825932301ca7fe4c66e77d38a661fa6a687",
      "v": 28,
      "creates": null,
      "raw": "0xf86d0786010e6196ff4c8255f09406402ac4416476bf55199d9c7be67c387bb6773c880de0b6b3a7640000801ca0560cb0dd52f1e65ddcb2503487399658d121f9d592e01fe88352ad92ebe18646a009f6d33b47d1d3b22f0fdce391c22825932301ca7fe4c66e77d38a661fa6a687",
      "networkId": 0,
      "chainId": 0
    },
    {
      "hash": "0x6f0dec92394408daeb8f4f6f70e54c020088a9affd398afb573407733d5f1157",
      "blockHash": "0x7d3e12d70ed7b06ef67f3c4df19bda9872447d6779e35866c93ffa0947030054",
      "blockNumber": 96249,
      "transactionIndex": 1,
      "confirmations": null,
      "from": "0x120A270bbC009644e35F0bB6ab13f95b8199c4ad",
      "gasPrice": {
        "_hex": "0xda449f029"
      },
      "gasLimit": {
        "_hex": "0x3d090"
      },
      "to": "0x739f8ab33a41B67952f16778e3CC6D2dEcC3a2d5",
      "value": {
        "_hex": "0x18650127cc3dc80000"
      },
      "nonce": 613,
      "data": "0x",
      "r": "0x76e3300ea4fbd3b08e0a114a1656043e77896aa300808a63c5fcd540fd542771",
      "s": "0x7292089e138f9d67cf15bb3667b03a18a4a56fda09f965ad84fc2ed7f15fbb04",
      "v": 27,
      "creates": null,
      "raw": "0xf870820265850da449f0298303d09094739f8ab33a41b67952f16778e3cc6d2decc3a2d58918650127cc3dc80000801ba076e3300ea4fbd3b08e0a114a1656043e77896aa300808a63c5fcd540fd542771a07292089e138f9d67cf15bb3667b03a18a4a56fda09f965ad84fc2ed7f15fbb04",
      "networkId": 0,
      "chainId": 0
    }
  ]
}