{
  "hash": "0x5fb78e1cca7260621a8259eb7b182886533fbbb2cadca1a6a6d8457ca9b99430",
  "parentHash": "0x91a787b4c094a388e35e5d7eada978007aec56b55c81630fbd1302ff139c4f35",
  "number": 71295,
  "timestamp": 1439333931,
  "nonce": "0x4ad1c12a870697a1",
  "difficulty": 2150850248096,
  "gasLimit": {
    "_hex": "0x2fefd5"
  },
  "gasUsed": {
    "_hex": "0xaec1"
  },
  "miner": "0xf8E0CA3Ed80bd541b94BEdCf259e8CF2141A9523",
  "extraData": "0x476574682f76312e302e312f77696e646f77732f676f312e342e32",
  "transactions": [
    {
      "hash": "0x5458adaeff89de7cba7e9ff93d18742aa11fd0e883450d51f1584d432651fa77",
      "blockHash": "0x5fb78e1cca7260621a8259eb7b182886533fbbb2cadca1a6a6d8457ca9b99430",
      "blockNumber": 71295,
      "transactionIndex": 0,
      "confirmations": null,
      "from": "0x17580B766f7453525ca4C6A88b01b50570EA088C",
      "gasPrice": {
        "_hex": "0xddaba092b"
      },
      "gasLimit": {
        "_hex": "0x61a80"
      },
      "to": "0x5Fe5B7546D1628f7348B023A0393de1FC825A4fD",
      "value": {
        "_hex": "0xde0b6b3a7640000"
      },
      "nonce": 147,
      "data": "0xb595b8b50000000000000000000000000000000000000000000000000000000000000001",
      "r": "0x663b80d959dd856607a4ff1371aeafc2f087e5a3815a4198dd03dd89b8dc26d8",
      "s": "0x6ece9bcb781630189c4d3b2025fd664bdb5401da54c9d2fb039996b7ee0ee6ab",
      "v": 27,
      "creates": null,
      "raw": "0xf8928193850ddaba092b83061a80945fe5b7546d1628f7348b023a0393de1fc825a4fd880de0b6b3a7640000a4b595b8b500000000000000000000000000000000000000000000000000000000000000011ba0663b80d959dd856607a4ff1371aeafc2f087e5a3815a4198dd03dd89b8dc26d8a06ece9bcb781630189c4d3b2025fd664bdb5401da54c9d2fb039996b7ee0ee6ab",
      "networkId": 0,
      "chainId": 0
    }
  ]
}