{
  "hash": "0xa474147ea8a23d12ad0672bc435e591c881608470fe2ab62df69197e1a8996bd",
  "parentHash": "0x0672485c3789c9b1c0106af0a995272363b71f59979d14b458e571cd4261ffde",
  "number": 75800,
  "timestamp": 1439409498,
  "nonce": "0x7578a6336e8a2166",
  "difficulty": 2227702364157,
  "gasLimit": {
    "_hex": "0x2fefd8"
  },
  "gasUsed": {
    "_hex": "0xad77"
  },
  "miner": "0x47ff6576639c2e94762eA5443978D7681C0E78DC",
  "extraData": "0x476574682f76312e302e312f6c696e75782f676f312e342e32",
  "transactions": [
    {
      "hash": "0x767d494f4d0a00d35f243a5228f1ca436fac0e60db23a8bf5a2e92c45f6407ab",
      "blockHash": "0xa474147ea8a23d12ad0672bc435e591c881608470fe2ab62df69197e1a8996bd",
      "blockNumber": 75800,
      "transactionIndex": 0,
      "confirmations": null,
      "from": "0x87C5B5874A18B4306DF8a752a6C8cc3E82daFc19",
      "gasPrice": {
        "_hex": "0x1117d5cc7c5"
      },
      "gasLimit": {
        "_hex": "0x493e0"
      },
      "to": "0xD79B4C6791784184e2755B2fC1659eaaB0f80456",
      "value": {
        "_hex": "0x0"
      },
      "nonce": 66,
      "data": "0x03750d94000000000000000000000000326be8f71bfb0379f989aab1cc1fe37f0a771f606436343934383066306562373937353400000000000000000000000000000000",
      "r": "0x82b6fce91daad88d05e41202182c1319b42d5b442cfaccc3eaa6f549f9a6320e",
      "s": "0x60b7707ca691493b15498b46c8f5a7298b5880f5f2457976d53c6131a3328385",
      "v": 27,
      "creates": null,
      "raw": "0xf8ab428601117d5cc7c5830493e094d79b4c6791784184e2755b2fc1659eaab0f8045680b84403750d94000000000000000000000000326be8f71bfb0379f989aab1cc1fe37f0a771f6064363439343830663065623739373534000000000000000000000000000000001ba082b6fce91daad88d05e41202182c1319b42d5b442cfaccc3eaa6f549f9a6320ea060b7707ca691493b15498b46c8f5a7298b5880f5f2457976d53c6131a3328385",
      "networkId": 0,
      "chainId": 0
    }
  ]
}