{
  "hash": "0xeb2bd4125f85d64f2be59253ccc2e753454706c713187632bd43c68f6e311418",
  "parentHash": "0x85874842a6765b012a95527909320e5d2e3c0d6c7067b09abd3c84e2be341866",
  "number": 80016,
  "timestamp": 1439478748,
  "nonce": "0xe7b02557e7bae528",
  "difficulty": 2356338113997,
  "gasLimit": {
    "_hex": "0x2fefd8"
  },
  "gasUsed": {
    "_hex": "0xa410"
  },
  "miner": "0xe6A7a1d47ff21B6321162AEA7C6CB457D5476Bca",
  "extraData": "0x476574682f76312e302e312d38326566323666362f6c696e75782f676f312e34",
  "transactions": [
    {
      "hash": "0xbeed790de244bfb546e185ebd98eb7d1ccb4c9197dd2e06c6951e4adcaf3a5f6",
      "blockHash": "0xeb2bd4125f85d64f2be59253ccc2e753454706c713187632bd43c68f6e311418",
      "blockNumber": 80016,
      "transactionIndex": 0,
      "confirmations": null,
      "from": "0xF11940EA05aA9CC3F13aCF5C5cA6EDCF312E3Aec",
      "gasPrice": {
        "_hex": "0xd7826cfac"
      },
      "gasLimit": {
        "_hex": "0x15f90"
      },
      "to": "0x59C62d3D43f9EA1c4118d98c188AA5d028b8bB8E",
      "value": {
        "_hex": "0x14d1120d7b1600000"
      },
      "nonce": 2,
      "data": "0x",
      "r": "0xed8f8e8453114618a8b825a5543606ad54cdbad097083b1839d23ec24dbaf69a",
      "s": "0x5769daca8c92daa0509ef4b846211bf5227666a519566288e50553819afb3d25",
      "v": 28,
      "creates": null,
      "raw": "0xf86e02850d7826cfac83015f909459c62d3d43f9ea1c4118d98c188aa5d028b8bb8e89014d1120d7b1600000801ca0ed8f8e8453114618a8b825a5543606ad54cdbad097083b1839d23ec24dbaf69aa05769daca8c92daa0509ef4b846211bf5227666a519566288e50553819afb3d25",
      "networkId": 0,
      "chainId": 0
    },
    {
      "hash": "0x023ed0bf1c9bfadf7785de499cca88ec4727948081dae3951723a91764dbe613",
      "blockHash": "0xeb2bd4125f85d64f2be59253ccc2e753454706c713187632bd43c68f6e311418",
      "blockNumber": 80016,
      "transactionIndex": 1,
      "confirmations": null,
      "from": "0x32Be343B94f860124dC4fEe278FDCBD38C102D88",
      "gasPrice": {
        "_hex": "0xd4d09dc7d"
      },
      "gasLimit": {
        "_hex": "0x5208"
      },
      "to": "0xcb101DE19B809Da93093Cb290F28393D8c639473",
      "value": {
        "_hex": "0xb0d1dd881e3628000"
      },
      "nonce": 503,
      "data": "0x",
      "r": "0x74eb53c56445ca3065841d6a8476ffa76fd84fa538f8ee9401c9782add017cf3",
      "s": "0x39fdeab7323f8ddfd1b01e0fe3c729a43f6bfd3f7d45ab4a9495167c9f5acbdc",
      "v": 27,
      "creates": null,
      "raw": "0xf86f8201f7850d4d09dc7d82520894cb101de19b809da93093cb290f28393d8c639473890b0d1dd881e3628000801ba074eb53c56445ca3065841d6a8476ffa76fd84fa538f8ee9401c9782add017cf3a039fdeab7323f8ddfd1b01e0fe3c729a43f6bfd3f7d45ab4a9495167c9f5acbdc",
      "networkId": 0,
      "chainId": 0
    }
  ]
}