{
  "hash": "0x6b85030771c5d133e75d5aca096dde3c5ebc17df42fcaf02b415fc01a6a0e109",
  "parentHash": "0xc89698073a58fb753d1949177bf3f220d8aba8c91d2257fa2f29a59769398f9e",
  "number": 75979,
  "timestamp": 1439412905,
  "nonce": "0xf61c49da0caf7ebf",
  "difficulty": 2230920386607,
  "gasLimit": {
    "_hex": "0x2fefd5"
  },
  "gasUsed": {
    "_hex": "0xa09a"
  },
  "miner": "0x3222BA3F3e79eA0e31467EEE7639B57923558cCD",
  "extraData": "0x",
  "transactions": [
    {
      "hash": "0x99986633af6796a358a1db71f654aea2863554fb9837df5dbff3d85ffe662176",
      "blockHash": "0x6b85030771c5d133e75d5aca096dde3c5ebc17df42fcaf02b415fc01a6a0e109",
      "blockNumber": 75979,
      "transactionIndex": 0,
      "confirmations": null,
      "from": "0x0e320219838E859b2F9f18B72e3d4073cA50B37D",
      "gasPrice": {
        "_hex": "0xde189e32c"
      },
      "gasLimit": {
        "_hex": "0x2dc6c0"
      },
      "to": "0x35E57F2b08596f1946ECD9D31975eC3c2D7e1C1D",
      "value": {
        "_hex": "0x8ac7230489e80000"
      },
      "nonce": 3,
      "data": "0x",
      "r": "0x93394cacbec3ff2524f284213318e990033f42408cc32a222b75387000a34e48",
      "s": "0x4f2d395fa9758edd1495ae4c5c182af9e177ff2266b2d3809f426da79aff9ee5",
      "v": 28,
      "creates": null,
      "raw": "0xf86d03850de189e32c832dc6c09435e57f2b08596f1946ecd9d31975ec3c2d7e1c1d888ac7230489e80000801ca093394cacbec3ff2524f284213318e990033f42408cc32a222b75387000a34e48a04f2d395fa9758edd1495ae4c5c182af9e177ff2266b2d3809f426da79aff9ee5",
      "networkId": 0,
      "chainId": 0
    }
  ]
}