{
  "hash": "0xd0bbe8d3f977bad1c5bc7e7d095def2ad22b9c6d96b9f3316e7fe79ef0e09ac7",
  "parentHash": "0x7237c034a961d55e1bd82e044407dddeb6149d208dfe9e053c2f47c9065b9cc1",
  "number": 115746,
  "timestamp": 1440062660,
  "nonce": "0x51ec62a0e21a8ff9",
  "difficulty": 4562581282525,
  "gasLimit": {
    "_hex": "0x2fefd8"
  },
  "gasUsed": {
    "_hex": "0xa410"
  },
  "miner": "0xe6A7a1d47ff21B6321162AEA7C6CB457D5476Bca",
  "extraData": "0x476574682f76312e302e312d38326566323666362f6c696e75782f676f312e34",
  "transactions": [
    {
      "hash": "0xef254f6ee5a871354390fbb2bb571aeecc8fa66e3244f7ead40b769ba9731625",
      "blockHash": "0xd0bbe8d3f977bad1c5bc7e7d095def2ad22b9c6d96b9f3316e7fe79ef0e09ac7",
      "blockNumber": 115746,
      "transactionIndex": 0,
      "confirmations": null,
      "from": "0x7339BF89A60F8a29d0Ed436F3198774F8e191f37",
      "gasPrice": {
        "_hex": "0xd2af11ab4"
      },
      "gasLimit": {
        "_hex": "0x5208"
      },
      "to": "0x32Be343B94f860124dC4fEe278FDCBD38C102D88",
      "value": {
        "_hex": "0x453bd26430c90800"
      },
      "nonce": 11,
      "data": "0x",
      "r": "0xfa05267ca6abc6ce0ac9c39436e68abdfdcd258140d7d4637f6a36ff7f9aa3b3",
      "s": "0x12d4a3df9886e4e010d3ba57dae7a47b3d0e2bcbf21b251616b31482d5b6dc76",
      "v": 28,
      "creates": null,
      "raw": "0xf86c0b850d2af11ab48252089432be343b94f860124dc4fee278fdcbd38c102d8888453bd26430c90800801ca0fa05267ca6abc6ce0ac9c39436e68abdfdcd258140d7d4637f6a36ff7f9aa3b3a012d4a3df9886e4e010d3ba57dae7a47b3d0e2bcbf21b251616b31482d5b6dc76",
      "networkId": 0,
      "chainId": 0
    },
    {
      "hash": "0xe727132c53720fbb5ff1f37266a3d01e02e2b32cc1f2adc4aea5d7347e10ee23",
      "blockHash": "0xd0bbe8d3f977bad1c5bc7e7d095def2ad22b9c6d96b9f3316e7fe79ef0e09ac7",
      "blockNumber": 115746,
      "transactionIndex": 1,
      "confirmations": null,
      "from": "0x511718C3df5E7De7e63544aD29d2dDfacF0ada1e",
      "gasPrice": {
        "_hex": "0xd2af11ab4"
      },
      "gasLimit": {
        "_hex": "0x5208"
      },
      "to": "0x32Be343B94f860124dC4fEe278FDCBD38C102D88",
      "value": {
        "_hex": "0xddc7e8802fa0800"
      },
      "nonce": 0,
      "data": "0x",
      "r": "0x499f594aaf147bd53def92516a8ff4e4bae64dcd37fa47e421cd1bc91a992cdb",
      "s": "0x459230ac1ef0995a06a2598aea667e8127423965b2a090c1de876a57312c4709",
      "v": 28,
      "creates": null,
      "raw": "0xf86c80850d2af11ab48252089432be343b94f860124dc4fee278fdcbd38c102d88880ddc7e8802fa0800801ca0499f594aaf147bd53def92516a8ff4e4bae64dcd37fa47e421cd1bc91a992cdba0459230ac1ef0995a06a2598aea667e8127423965b2a090c1de876a57312c4709",
      "networkId": 0,
      "chainId": 0
    }
  ]
}