{
  "hash": "0xee3179922ef113a468a32293aeca92bb39caf896a8097892adcb497e4dce75cd",
  "parentHash": "0x4a88e449f99de39935fc1c72e675d8730d39fe77230c8d85acde5fe7eb9464df",
  "number": 68542,
  "timestamp": 1439289804,
  "nonce": "0x973d673c02e62d2c",
  "difficulty": 2004491924811,
  "gasLimit": {
    "_hex": "0x2fefd8"
  },
  "gasUsed": {
    "_hex": "0xa410"
  },
  "miner": "0x39A1BB80a741bF5EC39FB9BE59408Fa0F418fFBf",
  "extraData": "0x476574682f76312e302e312f77696e646f77732f676f312e342e32",
  "transactions": [
    {
      "hash": "0x696995196859116439381c7c0f56135b7663775e33ff6eebb9fa6ed77e756ead",
      "blockHash": "0xee3179922ef113a468a32293aeca92bb39caf896a8097892adcb497e4dce75cd",
      "blockNumber": 68542,
      "transactionIndex": 0,
      "confirmations": null,
      "from": "0xF7028cC8c0a9D4d58dc42EE8729A76e30a6B4382",
      "gasPrice": {
        "_hex": "0xba43b7400"
      },
      "gasLimit": {
        "_hex": "0x5208"
      },
      "to": "0x69B67caDcCeCCC4c315eE66A0291a24bd1858cA3",
      "value": {
        "_hex": "0x4e1253f5de4000"
      },
      "nonce": 1,
      "data": "0x",
      "r": "0xf8cf59b2b91d90e0bb47dcf962c8f6e0bf4ff75f354c228e5d2bb0a8013426c5",
      "s": "0x479e566a11e8ac6552631bbec9ba2a9d6eec7ffd35483a253c337a7e2a691473",
      "v": 28,
      "creates": null,
      "raw": "0xf86b01850ba43b74008252089469b67cadcceccc4c315ee66a0291a24bd1858ca3874e1253f5de4000801ca0f8cf59b2b91d90e0bb47dcf962c8f6e0bf4ff75f354c228e5d2bb0a8013426c5a0479e566a11e8ac6552631bbec9ba2a9d6eec7ffd35483a253c337a7e2a691473",
      "networkId": 0,
      "chainId": 0
    },
    {
      "hash": "0xcba300d80cededb3739f70aa31b20e606f400876f9e5029e59e41c364a27c0f6",
      "blockHash": "0xee3179922ef113a468a32293aeca92bb39caf896a8097892adcb497e4dce75cd",
      "blockNumber": 68542,
      "transactionIndex": 1,
      "confirmations": null,
      "from": "0x74584ff507d71419Ac8052FC389B7D4B2648571f",
      "gasPrice": {
        "_hex": "0xba43b7400"
      },
      "gasLimit": {
        "_hex": "0x5208"
      },
      "to": "0xD4586961e866EF8b2070F7F4E64a351A141a87A2",
      "value": {
        "_hex": "0x4e1253f5de4000"
      },
      "nonce": 1,
      "data": "0x",
      "r": "0x63745b39651dc0764aec6f913ee487854a5d6d057928c9f1eed70e1b2f1fbcb2",
      "s": "0x3404ff762a6ab4117403cc1d04db211243c1e41dc1b54e830454b74d5f148d9e",
      "v": 28,
      "creates": null,
      "raw": "0xf86b01850ba43b740082520894d4586961e866ef8b2070f7f4e64a351a141a87a2874e1253f5de4000801ca063745b39651dc0764aec6f913ee487854a5d6d057928c9f1eed70e1b2f1fbcb2a03404ff762a6ab4117403cc1d04db211243c1e41dc1b54e830454b74d5f148d9e",
      "networkId": 0,
      "chainId": 0
    }
  ]
}