{
  "hash": "0xb70f131d7e791a43c165f025a8e3bb1a5f0fc9d9f931e2b4c0d2f8a4041d4a4e",
  "parentHash": "0xaee0e9cf25b578d57693bee4ac9f132b67ec26dd47064524b0c00f324299eefe",
  "number": 51469,
  "timestamp": 1439005476,
  "nonce": "0x53acb6272f1934d7",
  "difficulty": 1560465944139,
  "gasLimit": {
    "_hex": "0xb57c4"
  },
  "gasUsed": {
    "_hex": "0x11123"
  },
  "miner": "0xf8E0CA3Ed80bd541b94BEdCf259e8CF2141A9523",
  "extraData": "0x476574682f76312e302e312f77696e646f77732f676f312e342e32",
  "transactions": [
    {
      "hash": "0xd4c907ecbba61e6102fe9eb10a316e4c263ff2432ec4b77b1a5430b77fe5f007",
      "blockHash": "0xb70f131d7e791a43c165f025a8e3bb1a5f0fc9d9f931e2b4c0d2f8a4041d4a4e",
      "blockNumber": 51469,
      "transactionIndex": 0,
      "confirmations": null,
      "from": "0xBe5Cba8D37427986E8ca2600e858bB03c359520f",
      "gasPrice": {
        "_hex": "0x110c8f7d8de"
      },
      "gasLimit": {
        "_hex": "0xc350"
      },
      "to": "0x2910543Af39abA0Cd09dBb2D50200b3E800A63D2",
      "value": {
        "_hex": "0x35f0661c4399ac0000"
      },
      "nonce": 1,
      "data": "0x454e4543364a584130",
      "r": "0x4ac4c95ac92087567eea65c52651d84e39c48866ee528fabc1028b2856df6d5b",
      "s": "0x160215fa41919a25ff0c6501a8b359674a1353b42db820c2e09a38eed16732e6",
      "v": 28,
      "creates": null,
      "raw": "0xf87701860110c8f7d8de82c350942910543af39aba0cd09dbb2d50200b3e800a63d28935f0661c4399ac000089454e4543364a5841301ca04ac4c95ac92087567eea65c52651d84e39c48866ee528fabc1028b2856df6d5ba0160215fa41919a25ff0c6501a8b359674a1353b42db820c2e09a38eed16732e6",
      "networkId": 0,
      "chainId": 0
    },
    {
      "hash": "0x237153b441675c9420ca5f8c0567d3975407792aa3183722f0d742a15aae12a5",
      "blockHash": "0xb70f131d7e791a43c165f025a8e3bb1a5f0fc9d9f931e2b4c0d2f8a4041d4a4e",
      "blockNumber": 51469,
      "transactionIndex": 1,
      "confirmations": null,
      "from": "0x2905726Ed11131A984ce9C0119cB32DBC99dE90B",
      "gasPrice": {
        "_hex": "0x10c1a2c52f2"
      },
      "gasLimit": {
        "_hex": "0x186a0"
      },
      "to": "0xd94BAdbEC21695B7a36ABCb979EFad0108319d18",
      "value": {
        "_hex": "0x8e1bc9bf04000"
      },
      "nonce": 23,
      "data": "0xa69beaba6558697374656e5a000000000000000000000000000000000000000000000000",
      "r": "0x5bad53ef9505e71fd077264d2f41fc3e7755159d7f918bb2cfc61ca8b1ed4462",
      "s": "0x6c39693893877ea9187b32e540a953476926fffa84c2d57cef0dd2c53089d294",
      "v": 28,
      "creates": null,
      "raw": "0xf8911786010c1a2c52f2830186a094d94badbec21695b7a36abcb979efad0108319d188708e1bc9bf04000a4a69beaba6558697374656e5a0000000000000000000000000000000000000000000000001ca05bad53ef9505e71fd077264d2f41fc3e7755159d7f918bb2cfc61ca8b1ed4462a06c39693893877ea9187b32e540a953476926fffa84c2d57cef0dd2c53089d294",
      "networkId": 0,
      "chainId": 0
    },
    {
      "hash": "0xaa1df0641cfd0d0b0fd3ce343056b1e2e3464eca46b235d078ae325313a84709",
      "blockHash": "0xb70f131d7e791a43c165f025a8e3bb1a5f0fc9d9f931e2b4c0d2f8a4041d4a4e",
      "blockNumber": 51469,
      "transactionIndex": 2,
      "confirmations": null,
      "from": "0xA0d6bEEf41e5c2DcAbf47D035D582C252e906Aa2",
      "gasPrice": {
        "_hex": "0xe77bf3b3e"
      },
      "gasLimit": {
        "_hex": "0x5208"
      },
      "to": "0x32Be343B94f860124dC4fEe278FDCBD38C102D88",
      "value": {
        "_hex": "0xdff9ad70e217400"
      },
      "nonce": 0,
      "data": "0x",
      "r": "0xf7e9fcb0ea0a585a9ea365b2f489f9f04bb3456b882d665a1f14ad0a095b4f83",
      "s": "0x0d87425cc73becffe9948965dd598f2777da2137024b5173ac91dbfa3e6955b1",
      "v": 28,
      "creates": null,
      "raw": "0xf86c80850e77bf3b3e8252089432be343b94f860124dc4fee278fdcbd38c102d88880dff9ad70e217400801ca0f7e9fcb0ea0a585a9ea365b2f489f9f04bb3456b882d665a1f14ad0a095b4f83a00d87425cc73becffe9948965dd598f2777da2137024b5173ac91dbfa3e6955b1",
      "networkId": 0,
      "chainId": 0
    }
  ]
}