{
  "hash": "0xccd81caaf58f0ff6189d0e54de4434b1ad8c15f29173ebf3bf46235fd9f80b35",
  "parentHash": "0x96e6d886681aa231b7c9a80e241d7eef408ff86326dd856c049f1f21a78d1de3",
  "number": 87852,
  "timestamp": 1439598497,
  "nonce": "0x312703513c975f4a",
  "difficulty": 3180237619347,
  "gasLimit": {
    "_hex": "0x2fefd5"
  },
  "gasUsed": {
    "_hex": "0x5208"
  },
  "miner": "0xe6A7a1d47ff21B6321162AEA7C6CB457D5476Bca",
  "extraData": "0x476574682f76312e302e312d38326566323666362f6c696e75782f676f312e34",
  "transactions": [
    {
      "hash": "0x57c846ac64a47e8292d6b6d35237cb1b456e53b5f22ada829ccc9f30c90f3329",
      "blockHash": "0xccd81caaf58f0ff6189d0e54de4434b1ad8c15f29173ebf3bf46235fd9f80b35",
      "blockNumber": 87852,
      "transactionIndex": 0,
      "confirmations": null,
      "from": "0x4b0424c09BaC4Ee3f4376f1D3fA354E8Cb2D3171",
      "gasPrice": {
        "_hex": "0xd566a991c"
      },
      "gasLimit": {
        "_hex": "0x15f90"
      },
      "to": "0x34d34F0a638F6991e4E2536F41295DF6E934A646",
      "value": {
        "_hex": "0x4563918244f40000"
      },
      "nonce": 11,
      "data": "0x",
      "r": "0x4d7ede0f6419c208a2ede31d04393d7077f1bcba2f81f0bfa29975e7ee58be30",
      "s": "0x54ee280be16ddb8302c0e494d1eac935bee5a53a1d6b884004a7279ab71c8d1c",
      "v": 28,
      "creates": null,
      "raw": "0xf86d0b850d566a991c83015f909434d34f0a638f6991e4e2536f41295df6e934a646884563918244f40000801ca04d7ede0f6419c208a2ede31d04393d7077f1bcba2f81f0bfa29975e7ee58be30a054ee280be16ddb8302c0e494d1eac935bee5a53a1d6b884004a7279ab71c8d1c",
      "networkId": 0,
      "chainId": 0
    }
  ]
}