{
  "hash": "0x2b7a2dc51a90bb9862e6f48dff98a6ea1bf717837449e2ad7d17cc69213c483a",
  "parentHash": "0xf423f3854db49560972df0bde1e660a2318994265d1c0430ff962e868bda7f3d",
  "number": 110998,
  "timestamp": 1439982996,
  "nonce": "0x9d156e6e5b8fa953",
  "difficulty": 4411765059629,
  "gasLimit": {
    "_hex": "0x2fefd8"
  },
  "gasUsed": {
    "_hex": "0xa410"
  },
  "miner": "0xe6A7a1d47ff21B6321162AEA7C6CB457D5476Bca",
  "extraData": "0x476574682f76312e302e312d38326566323666362f6c696e75782f676f312e34",
  "transactions": [
    {
      "hash": "0xa932670761cc2e0e346a6ece23f2644d61b2378353a0348b3e611b77dd926865",
      "blockHash": "0x2b7a2dc51a90bb9862e6f48dff98a6ea1bf717837449e2ad7d17cc69213c483a",
      "blockNumber": 110998,
      "transactionIndex": 0,
      "confirmations": null,
      "from": "0xBDe8541989cF94E88cA73e2D46a8839414968F9B",
      "gasPrice": {
        "_hex": "0xdbf89a327"
      },
      "gasLimit": {
        "_hex": "0x5208"
      },
      "to": "0x32Be343B94f860124dC4fEe278FDCBD38C102D88",
      "value": {
        "_hex": "0xb464e93eb3178000"
      },
      "nonce": 2,
      "data": "0x",
      "r": "0x059ae03f9c82bf4a6df1ac24bbf42c19de1e4a734b81ea41d7279a545a59145e",
      "s": "0x724467f9824f9c55298849b260e9e4636c80e223c0b0d1f22e7851ba35fcf6e7",
      "v": 28,
      "creates": null,
      "raw": "0xf86c02850dbf89a3278252089432be343b94f860124dc4fee278fdcbd38c102d8888b464e93eb3178000801ca0059ae03f9c82bf4a6df1ac24bbf42c19de1e4a734b81ea41d7279a545a59145ea0724467f9824f9c55298849b260e9e4636c80e223c0b0d1f22e7851ba35fcf6e7",
      "networkId": 0,
      "chainId": 0
    },
    {
      "hash": "0x954b24df695e6c56c2ff6ce1a22e08adee4bcbbeabe28077c24f6c9938f35b6c",
      "blockHash": "0x2b7a2dc51a90bb9862e6f48dff98a6ea1bf717837449e2ad7d17cc69213c483a",
      "blockNumber": 110998,
      "transactionIndex": 1,
      "confirmations": null,
      "from": "0xb1abce2918E21ddb93AA452731a12672A3d9F75a",
      "gasPrice": {
        "_hex": "0xdbf89a327"
      },
      "gasLimit": {
        "_hex": "0x5208"
      },
      "to": "0x32Be343B94f860124dC4fEe278FDCBD38C102D88",
      "value": {
        "_hex": "0x455f347ea8611c00"
      },
      "nonce": 174,
      "data": "0x",
      "r": "0x52f13074493f735b766afb35bae6bdb9c896729a0a53d2e1bb735955b1470b83",
      "s": "0x2bad5db47ddae43a2ae4a13833e72881fcc22337bd81730afbecc67cc75b3664",
      "v": 27,
      "creates": null,
      "raw": "0xf86d81ae850dbf89a3278252089432be343b94f860124dc4fee278fdcbd38c102d8888455f347ea8611c00801ba052f13074493f735b766afb35bae6bdb9c896729a0a53d2e1bb735955b1470b83a02bad5db47ddae43a2ae4a13833e72881fcc22337bd81730afbecc67cc75b3664",
      "networkId": 0,
      "chainId": 0
    }
  ]
}