{
  "hash": "0xb13486ef26f833b89ac1831ecc3b9388a7660043ddecada493698c5c80706797",
  "parentHash": "0xcb08820d27514ac06ebe55b7fa932fa170c80bde1c0eec1c119d7cc2b5b1fb57",
  "number": 112093,
  "timestamp": 1440001753,
  "nonce": "0x95958b594f307c15",
  "difficulty": 4374724443869,
  "gasLimit": {
    "_hex": "0x2fefd8"
  },
  "gasUsed": {
    "_hex": "0xa410"
  },
  "miner": "0x47ff6576639c2e94762eA5443978D7681C0E78DC",
  "extraData": "0x",
  "transactions": [
    {
      "hash": "0x2de73a3d265a817e013b0172e2765f346249727a6b05cbbed6674f6e67a17224",
      "blockHash": "0xb13486ef26f833b89ac1831ecc3b9388a7660043ddecada493698c5c80706797",
      "blockNumber": 112093,
      "transactionIndex": 0,
      "confirmations": null,
      "from": "0x82B52510444eccC53A32772e7035007A44575251",
      "gasPrice": {
        "_hex": "0xd829211eb"
      },
      "gasLimit": {
        "_hex": "0x15f90"
      },
      "to": "0x0De2D5595Cd390109b377107505cb710429d8FE7",
      "value": {
        "_hex": "0x32e78fab7c3d390800"
      },
      "nonce": 1,
      "data": "0x",
      "r": "0xf5c2cb420a332789079009ec59eb1e078d7dd81f1a3c42ff856ff0634a13464a",
      "s": "0x3bfe4e7fe2d9975a6ae49128fdf2aeb75463cef9d71687b986ec32f01b874087",
      "v": 27,
      "creates": null,
      "raw": "0xf86e01850d829211eb83015f90940de2d5595cd390109b377107505cb710429d8fe78932e78fab7c3d390800801ba0f5c2cb420a332789079009ec59eb1e078d7dd81f1a3c42ff856ff0634a13464aa03bfe4e7fe2d9975a6ae49128fdf2aeb75463cef9d71687b986ec32f01b874087",
      "networkId": 0,
      "chainId": 0
    },
    {
      "hash": "0x553c225af6f19401e76a9344fc5395d97a93e9e939d5a06177814096ad002ca3",
      "blockHash": "0xb13486ef26f833b89ac1831ecc3b9388a7660043ddecada493698c5c80706797",
      "blockNumber": 112093,
      "transactionIndex": 1,
      "confirmations": null,
      "from": "0x82f600f520d879ecc6101C4e8cdD6522Fdd24778",
      "gasPrice": {
        "_hex": "0xcfcd83bd0"
      },
      "gasLimit": {
        "_hex": "0x5208"
      },
      "to": "0x32Be343B94f860124dC4fEe278FDCBD38C102D88",
      "value": {
        "_hex": "0x8ac2f9a064f85000"
      },
      "nonce": 2,
      "data": "0x",
      "r": "0x4c1507ca88625932780df46eec78f364e8ae9515fa0e3293a1e7cc70eb8c04c5",
      "s": "0x610df79d7c02aecf16f5dd7a31ac12d5eb52d86805f5124d6a2fcd21d7addd70",
      "v": 28,
      "creates": null,
      "raw": "0xf86c02850cfcd83bd08252089432be343b94f860124dc4fee278fdcbd38c102d88888ac2f9a064f85000801ca04c1507ca88625932780df46eec78f364e8ae9515fa0e3293a1e7cc70eb8c04c5a0610df79d7c02aecf16f5dd7a31ac12d5eb52d86805f5124d6a2fcd21d7addd70",
      "networkId": 0,
      "chainId": 0
    }
  ]
}