{
  "hash": "0xc9937a29d008deb4756fac6ededdcf40391f00f87509441785015c25f02b9a39",
  "parentHash": "0x6ae5369e952edd2f8e914991c8decd594699018db2e8b1e79aac56344d508273",
  "number": 76398,
  "timestamp": 1439419863,
  "nonce": "0xe6878f50ba6fd43a",
  "difficulty": 2223197137790,
  "gasLimit": {
    "_hex": "0x2fefd5"
  },
  "gasUsed": {
    "_hex": "0xe1a7"
  },
  "miner": "0xf8E0CA3Ed80bd541b94BEdCf259e8CF2141A9523",
  "extraData": "0x476574682f76312e302e312f77696e646f77732f676f312e342e32",
  "transactions": [
    {
      "hash": "0xfae97d3c2a0d2068b3f96ba77bcd28d60e8e58dab08d556545220366dd4b6ce0",
      "blockHash": "0xc9937a29d008deb4756fac6ededdcf40391f00f87509441785015c25f02b9a39",
      "blockNumber": 76398,
      "transactionIndex": 0,
      "confirmations": null,
      "from": "0x8Be84A3adfBc51c59023B2413766E229108c35DE",
      "gasPrice": {
        "_hex": "0xdcea3e2c7"
      },
      "gasLimit": {
        "_hex": "0x493e0"
      },
      "to": "0xD79B4C6791784184e2755B2fC1659eaaB0f80456",
      "value": {
        "_hex": "0xde0b6b3a7640000"
      },
      "nonce": 1,
      "data": "0x8d21618600000000000000000000000000000000000000000000000000000000000000e69b3599292ac331124899ab8edf5323619af75f9e4c335630a5d5254c21b72597",
      "r": "0x3ffb200c987b814196cef671cf146f375bc17986d8bd5c1a67a7d10e34ba9c72",
      "s": "0x5b72992ed2ea64d48227d8d6ccd79545a4a06b2d3bea44c67d8bc3a35f419646",
      "v": 28,
      "creates": null,
      "raw": "0xf8b201850dcea3e2c7830493e094d79b4c6791784184e2755b2fc1659eaab0f80456880de0b6b3a7640000b8448d21618600000000000000000000000000000000000000000000000000000000000000e69b3599292ac331124899ab8edf5323619af75f9e4c335630a5d5254c21b725971ca03ffb200c987b814196cef671cf146f375bc17986d8bd5c1a67a7d10e34ba9c72a05b72992ed2ea64d48227d8d6ccd79545a4a06b2d3bea44c67d8bc3a35f419646",
      "networkId": 0,
      "chainId": 0
    },
    {
      "hash": "0x33108130284aac28fb0fb02994ef09837fbd5dd671932409635926250e275885",
      "blockHash": "0xc9937a29d008deb4756fac6ededdcf40391f00f87509441785015c25f02b9a39",
      "blockNumber": 76398,
      "transactionIndex": 1,
      "confirmations": null,
      "from": "0x2910543Af39abA0Cd09dBb2D50200b3E800A63D2",
      "gasPrice": {
        "_hex": "0xd3e568f82"
      },
      "gasLimit": {
        "_hex": "0x5208"
      },
      "to": "0xE2A7ffDCB7645b0AdB7fEbD0C72F485d10783A52",
      "value": {
        "_hex": "0x6de97e09bd18000"
      },
      "nonce": 324,
      "data": "0x",
      "r": "0xbfce746c75fe294251f1a81ea7c6bdc73e9c266b6e589978e03e62ec41e4021c",
      "s": "0x7f2a506626a04bb00c9e78cd1bd128f03a4da410bd2cfb5c0705eaa40cce31f4",
      "v": 28,
      "creates": null,
      "raw": "0xf86e820144850d3e568f8282520894e2a7ffdcb7645b0adb7febd0c72f485d10783a528806de97e09bd18000801ca0bfce746c75fe294251f1a81ea7c6bdc73e9c266b6e589978e03e62ec41e4021ca07f2a506626a04bb00c9e78cd1bd128f03a4da410bd2cfb5c0705eaa40cce31f4",
      "networkId": 0,
      "chainId": 0
    }
  ]
}