{
  "hash": "0xed3cc5fb0c609870f37b62feafb52c561b424633edebd06c797ea0b424622726",
  "parentHash": "0x40c22c4320263dd61cfbc2e784cbb852a4a3e8ebce709177a2f20d1f894be50b",
  "number": 121595,
  "timestamp": 1440179644,
  "nonce": "0x0184f0493e1bdd8d",
  "difficulty": 4447263366389,
  "gasLimit": {
    "_hex": "0x2fefd8"
  },
  "gasUsed": {
    "_hex": "0xa410"
  },
  "miner": "0x5F8F73E26CdF436f19Cb24C82F90A15AFe55b592",
  "extraData": "0x",
  "transactions": [
    {
      "hash": "0xf8296aa1ed4e80e25926879b2cd6bdcc1cfe6fceb2e2d61cb7e138d869a64cc4",
      "blockHash": "0xed3cc5fb0c609870f37b62feafb52c561b424633edebd06c797ea0b424622726",
      "blockNumber": 121595,
      "transactionIndex": 0,
      "confirmations": null,
      "from": "0x7884D470204862a0d1A21122F41ee77430396Ee5",
      "gasPrice": {
        "_hex": "0xd0a0aada4"
      },
      "gasLimit": {
        "_hex": "0x15f90"
      },
      "to": "0x715a0B61BC8b682A6f5a029820c6804F1885d5d9",
      "value": {
        "_hex": "0x16345785d8a0000"
      },
      "nonce": 114,
      "data": "0x",
      "r": "0xd9689ab7fa54d217f8cbbc43995b5ad50f0a386f3137cf7148aee0f7dde5381d",
      "s": "0x79e00721294033f2245827dee9843a521413fdc320d74f7287a1d5f3088063c4",
      "v": 27,
      "creates": null,
      "raw": "0xf86d72850d0a0aada483015f9094715a0b61bc8b682a6f5a029820c6804f1885d5d988016345785d8a0000801ba0d9689ab7fa54d217f8cbbc43995b5ad50f0a386f3137cf7148aee0f7dde5381da079e00721294033f2245827dee9843a521413fdc320d74f7287a1d5f3088063c4",
      "networkId": 0,
      "chainId": 0
    },
    {
      "hash": "0x2df478c7feaf9a191b4389ff46ab09087a3774235cf0d2250dd3364491ed1538",
      "blockHash": "0xed3cc5fb0c609870f37b62feafb52c561b424633edebd06c797ea0b424622726",
      "blockNumber": 121595,
      "transactionIndex": 1,
      "confirmations": null,
      "from": "0x7884D470204862a0d1A21122F41ee77430396Ee5",
      "gasPrice": {
        "_hex": "0xd0a0aada4"
      },
      "gasLimit": {
        "_hex": "0x15f90"
      },
      "to": "0x46cDEfFA1D1b81dEc495a4e9eBe1057Eb43c27f4",
      "value": {
        "_hex": "0x186cc6acd4b0000"
      },
      "nonce": 115,
      "data": "0x",
      "r": "0xc8aa2f4227a18824724d7d3bf1e3fe983c32b894e1f7e64c89ada157f548b947",
      "s": "0x48820f907f3043a4c85392299f77ebbe109e3d2a51509aff964310057ee580f6",
      "v": 28,
      "creates": null,
      "raw": "0xf86d73850d0a0aada483015f909446cdeffa1d1b81dec495a4e9ebe1057eb43c27f4880186cc6acd4b0000801ca0c8aa2f4227a18824724d7d3bf1e3fe983c32b894e1f7e64c89ada157f548b947a048820f907f3043a4c85392299f77ebbe109e3d2a51509aff964310057ee580f6",
      "networkId": 0,
      "chainId": 0
    }
  ]
}