{
  "hash": "0xf501b521b30f04c3a92bee7659e3748d8900d0bb3f1c261f1712baaf38350ba9",
  "parentHash": "0x627b9c8864abdd6cd2a78d2f460165033076277a4ed662b56798720a552b0e62",
  "number": 48679,
  "timestamp": 1438960969,
  "nonce": "0x80ba61a49a6eedd8",
  "difficulty": 1472149088530,
  "gasLimit": {
    "_hex": "0x1bda0"
  },
  "gasUsed": {
    "_hex": "0xa944"
  },
  "miner": "0x5B3e850E39e6f2C7dD38707b649e2B3536F14C0b",
  "extraData": "0x476574682f76312e302e312f64617277696e2f676f312e342e32",
  "transactions": [
    {
      "hash": "0xeb025215e8cedf8d7b85c2a85c769ecb05849cecf86f775665714984989376b4",
      "blockHash": "0xf501b521b30f04c3a92bee7659e3748d8900d0bb3f1c261f1712baaf38350ba9",
      "blockNumber": 48679,
      "transactionIndex": 0,
      "confirmations": null,
      "from": "0x0e320219838E859b2F9f18B72e3d4073cA50B37D",
      "gasPrice": {
        "_hex": "0xd9186a228"
      },
      "gasLimit": {
        "_hex": "0x15f90"
      },
      "to": "0x2910543Af39abA0Cd09dBb2D50200b3E800A63D2",
      "value": {
        "_hex": "0xde0b6b3a7640000"
      },
      "nonce": 0,
      "data": "0x454e4e58314e365730",
      "r": "0x83bb179aad09ffb4c10e0f0406bf8e7bc22af0b8bcccace66f44d21bba44b516",
      "s": "0x2360b8af6e3a6294e697d51152e2f1169511f3ae60db45e2ed380ec059f3057f",
      "v": 28,
      "creates": null,
      "raw": "0xf87680850d9186a22883015f90942910543af39aba0cd09dbb2d50200b3e800a63d2880de0b6b3a764000089454e4e58314e3657301ca083bb179aad09ffb4c10e0f0406bf8e7bc22af0b8bcccace66f44d21bba44b516a02360b8af6e3a6294e697d51152e2f1169511f3ae60db45e2ed380ec059f3057f",
      "networkId": 0,
      "chainId": 0
    },
    {
      "hash": "0xa1a3034acac317ccd8c8cb481c34047ef10b0d38daa35dbdb03c10ffbfa5d361",
      "blockHash": "0xf501b521b30f04c3a92bee7659e3748d8900d0bb3f1c261f1712baaf38350ba9",
      "blockNumber": 48679,
      "transactionIndex": 1,
      "confirmations": null,
      "from": "0x22F2DcFf5aD78c3Eb6850B5Cb951127B659522E6",
      "gasPrice": {
        "_hex": "0xd19e1d61f"
      },
      "gasLimit": {
        "_hex": "0x15f90"
      },
      "to": "0x0000000000000000000000000000000000000000",
      "value": {
        "_hex": "0x0"
      },
      "nonce": 10,
      "data": "0x432ced046368726973000000000000000000000000000000000000000000000000000000",
      "r": "0xe6f1db75d4cdc5ca29521596d332efb4a34c60f5fde21f5e4c9124527349c4ca",
      "s": "0x07f0f7cda95da2c710a2106c4420c4500d4bc090ee1055b609c36a4849f7b167",
      "v": 27,
      "creates": null,
      "raw": "0xf8890a850d19e1d61f83015f9094000000000000000000000000000000000000000080a4432ced0463687269730000000000000000000000000000000000000000000000000000001ba0e6f1db75d4cdc5ca29521596d332efb4a34c60f5fde21f5e4c9124527349c4caa007f0f7cda95da2c710a2106c4420c4500d4bc090ee1055b609c36a4849f7b167",
      "networkId": 0,
      "chainId": 0
    }
  ]
}