{
  "hash": "0x45f79b0dd5be78f56ed645bea56b2bad942d9cb4e7991b9aee34fad3e4d8b639",
  "parentHash": "0xbaf400280d0f515c219c618d5aa0e527b759c91c417c950bde9520cf8099f80b",
  "number": 73136,
  "timestamp": 1439363714,
  "nonce": "0x68bdd8ac9fb65499",
  "difficulty": 2217555548721,
  "gasLimit": {
    "_hex": "0x2fefd8"
  },
  "gasUsed": {
    "_hex": "0xa410"
  },
  "miner": "0xf8E0CA3Ed80bd541b94BEdCf259e8CF2141A9523",
  "extraData": "0x476574682f76312e302e312f77696e646f77732f676f312e342e32",
  "transactions": [
    {
      "hash": "0x272cb481b829945237b4343e0526df75fc2d472e70df2214614a1f09f06c6f92",
      "blockHash": "0x45f79b0dd5be78f56ed645bea56b2bad942d9cb4e7991b9aee34fad3e4d8b639",
      "blockNumber": 73136,
      "transactionIndex": 0,
      "confirmations": null,
      "from": "0x40B9b889A21Ff1534d018D71Dc406122EBcf3F5A",
      "gasPrice": {
        "_hex": "0x10e3a580c60"
      },
      "gasLimit": {
        "_hex": "0x15f90"
      },
      "to": "0x50Da60D4Da4c04E154eA22AF84437e69Dd6dA401",
      "value": {
        "_hex": "0x16345785d8a0000"
      },
      "nonce": 3,
      "data": "0x",
      "r": "0x316bc174d19aa2b8e0ab26ebdf09ef7ebb84fa0cc1ab94c524594f7a7ab236ce",
      "s": "0x7146b5c534d8b1568463820815193ca50b03c8ca34ef2edbeb1bc3b357be6b0a",
      "v": 28,
      "creates": null,
      "raw": "0xf86e0386010e3a580c6083015f909450da60d4da4c04e154ea22af84437e69dd6da40188016345785d8a0000801ca0316bc174d19aa2b8e0ab26ebdf09ef7ebb84fa0cc1ab94c524594f7a7ab236cea07146b5c534d8b1568463820815193ca50b03c8ca34ef2edbeb1bc3b357be6b0a",
      "networkId": 0,
      "chainId": 0
    },
    {
      "hash": "0xe27e6167e57dabc3f33ec00ccdb1480ac63dec376114ff4924c527016b3df515",
      "blockHash": "0x45f79b0dd5be78f56ed645bea56b2bad942d9cb4e7991b9aee34fad3e4d8b639",
      "blockNumber": 73136,
      "transactionIndex": 1,
      "confirmations": null,
      "from": "0xb50405193Dc0c7077dD65252C15C39242F0aCB76",
      "gasPrice": {
        "_hex": "0xd6dd1f169"
      },
      "gasLimit": {
        "_hex": "0x5208"
      },
      "to": "0x32Be343B94f860124dC4fEe278FDCBD38C102D88",
      "value": {
        "_hex": "0x22b183e7905c7c000"
      },
      "nonce": 3,
      "data": "0x",
      "r": "0xe8074c2cdbbeb1541e19e86dc771299a4f94c527fa9ad150690e753e6e1a1693",
      "s": "0x569e754aef5999e25b63fc4d2893adf3a7feb0002b8d9c3e05885f27efa0a6a1",
      "v": 27,
      "creates": null,
      "raw": "0xf86d03850d6dd1f1698252089432be343b94f860124dc4fee278fdcbd38c102d8889022b183e7905c7c000801ba0e8074c2cdbbeb1541e19e86dc771299a4f94c527fa9ad150690e753e6e1a1693a0569e754aef5999e25b63fc4d2893adf3a7feb0002b8d9c3e05885f27efa0a6a1",
      "networkId": 0,
      "chainId": 0
    }
  ]
}