{
  "hash": "0x98f7bffd0bc8e820c624c3590f3a49275dac450a79e7e444a1d580b259a7af1f",
  "parentHash": "0xb41bbbfa51637ff56fd454207b905a655737d6605490b3f803d7dcccfaba5bc8",
  "number": 52932,
  "timestamp": 1439029745,
  "nonce": "0xbce3485796d2e415",
  "difficulty": 1574735623487,
  "gasLimit": {
    "_hex": "0x1c0d75"
  },
  "gasUsed": {
    "_hex": "0x546c"
  },
  "miner": "0x47ff6576639c2e94762eA5443978D7681C0E78DC",
  "extraData": "0x476574682f76312e302e312f6c696e75782f676f312e342e32",
  "transactions": [
    {
      "hash": "0x4928106e9b9af98902f4d7472c959a188a80fd7f0cc9a0ba7adfcf57de4c8d12",
      "blockHash": "0x98f7bffd0bc8e820c624c3590f3a49275dac450a79e7e444a1d580b259a7af1f",
      "blockNumber": 52932,
      "transactionIndex": 0,
      "confirmations": null,
      "from": "0xb2968F7D35f208871631C6687B3F3DAeAbc6616C",
      "gasPrice": {
        "_hex": "0x110c8f7d8de"
      },
      "gasLimit": {
        "_hex": "0xc350"
      },
      "to": "0x2910543Af39abA0Cd09dBb2D50200b3E800A63D2",
      "value": {
        "_hex": "0x874ef557a00f00000"
      },
      "nonce": 0,
      "data": "0x454e34455841483930",
      "r": "0xe24563c01fd4885469ca377bd749c50d83b7985390315fb2fd80b83c166921e2",
      "s": "0xfffdd978d8002e3720855a9d50ee7c49ea7204bcbd60b558a1abb8ed43f06c61",
      "v": 27,
      "creates": null,
      "raw": "0xf87780860110c8f7d8de82c350942910543af39aba0cd09dbb2d50200b3e800a63d2890874ef557a00f0000089454e344558414839301ba0e24563c01fd4885469ca377bd749c50d83b7985390315fb2fd80b83c166921e2a0fffdd978d8002e3720855a9d50ee7c49ea7204bcbd60b558a1abb8ed43f06c61",
      "networkId": 0,
      "chainId": 0
    }
  ]
}