{
  "hash": "0x134cee0fba3509d7d2c51800f615c494e2071fb43a471d4fe28d68320edf0cac",
  "parentHash": "0xb01b8e6b6c966f54d1a6e93009d052adbab45fc1d75758369baa73ea59e03465",
  "number": 76078,
  "timestamp": 1439414462,
  "nonce": "0x8b8b13b8747c03b1",
  "difficulty": 2249489293816,
  "gasLimit": {
    "_hex": "0x2fefd8"
  },
  "gasUsed": {
    "_hex": "0x5208"
  },
  "miner": "0xf927a40C8B7F6E07c5af7FA2155B4864a4112B13",
  "extraData": "0x",
  "transactions": [
    {
      "hash": "0xfbc1f7c96331f64019c653c7e7137a8e3230c35a49abf2059980853dba0c4c19",
      "blockHash": "0x134cee0fba3509d7d2c51800f615c494e2071fb43a471d4fe28d68320edf0cac",
      "blockNumber": 76078,
      "transactionIndex": 0,
      "confirmations": null,
      "from": "0xcc71a3b4707041559d69f774284f47E8272be370",
      "gasPrice": {
        "_hex": "0xd66bb33f0"
      },
      "gasLimit": {
        "_hex": "0x5208"
      },
      "to": "0x32Be343B94f860124dC4fEe278FDCBD38C102D88",
      "value": {
        "_hex": "0x895f9d04d1449000"
      },
      "nonce": 2,
      "data": "0x",
      "r": "0xcde6c6a0db6889b92ca8adb0493a05a1c83977aaaecdce50f3338b9e26dd0fd2",
      "s": "0x570ecd7b885c875afdaff252747ce03b5f9b2d97b59535d360f129c7db5efd38",
      "v": 28,
      "creates": null,
      "raw": "0xf86c02850d66bb33f08252089432be343b94f860124dc4fee278fdcbd38c102d8888895f9d04d1449000801ca0cde6c6a0db6889b92ca8adb0493a05a1c83977aaaecdce50f3338b9e26dd0fd2a0570ecd7b885c875afdaff252747ce03b5f9b2d97b59535d360f129c7db5efd38",
      "networkId": 0,
      "chainId": 0
    }
  ]
}