{
  "hash": "0xa9ee4ac02ef9ba8249404fb8ae13715e3557a3ecd0428ffeb70495028e9ee9fc",
  "parentHash": "0xf14f5690400ef652f0b71cdfc1cc7c31a460d6b297182ab7b60fe6f6cebbd368",
  "number": 70389,
  "timestamp": 1439319080,
  "nonce": "0xeaf4835f858f6579",
  "difficulty": 2142696283475,
  "gasLimit": {
    "_hex": "0x2fefd8"
  },
  "gasUsed": {
    "_hex": "0xce6a"
  },
  "miner": "0x580992B51e3925e23280EfB93d3047C82f17E038",
  "extraData": "0x476574682f76312e302e312f6c696e75782f676f312e342e32",
  "transactions": [
    {
      "hash": "0x1776d95043a71a94d655100201340dc6f5d8c09ca0bfffbc9ed8461fbe74bb5f",
      "blockHash": "0xa9ee4ac02ef9ba8249404fb8ae13715e3557a3ecd0428ffeb70495028e9ee9fc",
      "blockNumber": 70389,
      "transactionIndex": 0,
      "confirmations": null,
      "from": "0x5a891155f50E42074374C739BAADF7df2651153A",
      "gasPrice": {
        "_hex": "0xdf92c9e74"
      },
      "gasLimit": {
        "_hex": "0x15f90"
      },
      "to": "0x93Db80284c8E4d2B0eE8586dE2D072208c075145",
      "value": {
        "_hex": "0x30bc2198e4d42c0000"
      },
      "nonce": 4,
      "data": "0x",
      "r": "0x97bf920dc997ba580534c462c1acca3b319a2fa1dd1ccc97b9f7d5150276bb0d",
      "s": "0x7a2533910f8b7174f2f19326d8d768c9ba4479c05334fee2d5d938cc0935b516",
      "v": 28,
      "creates": null,
      "raw": "0xf86e04850df92c9e7483015f909493db80284c8e4d2b0ee8586de2d072208c0751458930bc2198e4d42c0000801ca097bf920dc997ba580534c462c1acca3b319a2fa1dd1ccc97b9f7d5150276bb0da07a2533910f8b7174f2f19326d8d768c9ba4479c05334fee2d5d938cc0935b516",
      "networkId": 0,
      "chainId": 0
    },
    {
      "hash": "0x2fa37e924f5f96534e1b495d55028eab71361c1797fdccfd9c5dd6afe12a7ff8",
      "blockHash": "0xa9ee4ac02ef9ba8249404fb8ae13715e3557a3ecd0428ffeb70495028e9ee9fc",
      "blockNumber": 70389,
      "transactionIndex": 1,
      "confirmations": null,
      "from": "0x000Df160997ba9420e4622996b05447871848834",
      "gasPrice": {
        "_hex": "0xba43b7400"
      },
      "gasLimit": {
        "_hex": "0x9965e"
      },
      "to": "0xdf373f3Dab2561668e239cA6e43a8c6aaeB3f825",
      "value": {
        "_hex": "0x0"
      },
      "nonce": 9,
      "data": "0x43d726d6",
      "r": "0x0ef7ca50c5ca8cce1573283b3c170d091de7f8119f26204c5d9c5e59ab309c4c",
      "s": "0x778fff1b5a197e7754667b17eb8e27a859b0ee4669f1d991d6541eddd52ad393",
      "v": 28,
      "creates": null,
      "raw": "0xf86909850ba43b74008309965e94df373f3dab2561668e239ca6e43a8c6aaeb3f825808443d726d61ca00ef7ca50c5ca8cce1573283b3c170d091de7f8119f26204c5d9c5e59ab309c4ca0778fff1b5a197e7754667b17eb8e27a859b0ee4669f1d991d6541eddd52ad393",
      "networkId": 0,
      "chainId": 0
    }
  ]
}