{
  "hash": "0x3582640243d930cdac5054b780b44a38e94ec676f1edbf98f285dd43e05eda2c",
  "parentHash": "0xfb47ec4865d36b41eb0a656dded490786beb34ac64344538d239e07a780fcfd1",
  "number": 94903,
  "timestamp": 1439715719,
  "nonce": "0x05113e53dee2b321",
  "difficulty": 3543100175295,
  "gasLimit": {
    "_hex": "0x2fefd8"
  },
  "gasUsed": {
    "_hex": "0x5208"
  },
  "miner": "0xe6A7a1d47ff21B6321162AEA7C6CB457D5476Bca",
  "extraData": "0x476574682f76312e302e312d38326566323666362f6c696e75782f676f312e34",
  "transactions": [
    {
      "hash": "0x62d88f1107ebe7b47ba265f418e8b6c5fdcc4daa21df6c7ff2d4ddd06b9b89d0",
      "blockHash": "0x3582640243d930cdac5054b780b44a38e94ec676f1edbf98f285dd43e05eda2c",
      "blockNumber": 94903,
      "transactionIndex": 0,
      "confirmations": null,
      "from": "0x8b06F59751d5260f1d1d7ec4B399c04609B9d974",
      "gasPrice": {
        "_hex": "0xd1834f2a3"
      },
      "gasLimit": {
        "_hex": "0x15f90"
      },
      "to": "0x7884D470204862a0d1A21122F41ee77430396Ee5",
      "value": {
        "_hex": "0x51493d2076000"
      },
      "nonce": 0,
      "data": "0x",
      "r": "0x12b8b4412de76cc7c6c1c535a83e877a750a30cfa482acb5e3928eb907c77d1a",
      "s": "0x4788f8a8b5dd7a6781bd0bd28b714cae1b52b1ba664a444216f9e9e239c9a7a0",
      "v": 28,
      "creates": null,
      "raw": "0xf86c80850d1834f2a383015f90947884d470204862a0d1a21122f41ee77430396ee587051493d2076000801ca012b8b4412de76cc7c6c1c535a83e877a750a30cfa482acb5e3928eb907c77d1aa04788f8a8b5dd7a6781bd0bd28b714cae1b52b1ba664a444216f9e9e239c9a7a0",
      "networkId": 0,
      "chainId": 0
    }
  ]
}