{
  "hash": "0x8b4d2021bbcbec3133fd757a0e5d3e5e0747b5fd726b4333d9949cdab8d2c008",
  "parentHash": "0x61a684c52920d89d22fcb3a7c01216fa14d1851569a5764b3ed7cd3f53417770",
  "number": 107056,
  "timestamp": 1439915172,
  "nonce": "0xe50feb7f877889b1",
  "difficulty": 4461508605045,
  "gasLimit": {
    "_hex": "0x2fefd8"
  },
  "gasUsed": {
    "_hex": "0x20225"
  },
  "miner": "0xe6A7a1d47ff21B6321162AEA7C6CB457D5476Bca",
  "extraData": "0x476574682f76312e302e312d38326566323666362f6c696e75782f676f312e34",
  "transactions": [
    {
      "hash": "0x33ebf9e1166602a15af5ca384b11e58a52ba7f8d898d19937807d93d43611a86",
      "blockHash": "0x8b4d2021bbcbec3133fd757a0e5d3e5e0747b5fd726b4333d9949cdab8d2c008",
      "blockNumber": 107056,
      "transactionIndex": 0,
      "confirmations": null,
      "from": "0x0D82Cd113DC35DdDA93f38166cD5CDe8b88e36A1",
      "gasPrice": {
        "_hex": "0xd42b9106c"
      },
      "gasLimit": {
        "_hex": "0x30d40"
      },
      "to": "0x4d6387f3B967dA39B11DE111158D49754C31985d",
      "value": {
        "_hex": "0x16345785d8a0000"
      },
      "nonce": 24,
      "data": "0x02dc2e1d00000000000000000000000000000000000000000000000000000000000000200000000000000000000000000000000000000000000000000000000000000022314858416b567468516268586d3861365a755a41374c4759685a6a66734243347954000000000000000000000000000000000000000000000000000000000000",
      "r": "0xa1c9636d20bf9e247c84a3ace66b01ce8e0abf71cc82c8a8ff2efdb6d594168d",
      "s": "0x5b1d927b4315da893a467e726825d9f9547453115fb9ebf3847190c351dfb493",
      "v": 28,
      "creates": null,
      "raw": "0xf8f218850d42b9106c83030d40944d6387f3b967da39b11de111158d49754c31985d88016345785d8a0000b88402dc2e1d00000000000000000000000000000000000000000000000000000000000000200000000000000000000000000000000000000000000000000000000000000022314858416b567468516268586d3861365a755a41374c4759685a6a667342433479540000000000000000000000000000000000000000000000000000000000001ca0a1c9636d20bf9e247c84a3ace66b01ce8e0abf71cc82c8a8ff2efdb6d594168da05b1d927b4315da893a467e726825d9f9547453115fb9ebf3847190c351dfb493",
      "networkId": 0,
      "chainId": 0
    }
  ]
}