{
  "hash": "0xd11b12497b5b91cd9867fe41a03c9aeb04d945bb8a0455ed5248b8005940dc5d",
  "parentHash": "0x5b61c81c8e6f57771be9f3996c12230fdd8b53b202ca2dbd8cbb93e052f8efe1",
  "number": 111542,
  "timestamp": 1439991994,
  "nonce": "0x9bb5e4c2c84f2e5f",
  "difficulty": 4441738873015,
  "gasLimit": {
    "_hex": "0x2fefd8"
  },
  "gasUsed": {
    "_hex": "0x5208"
  },
  "miner": "0x52bc44d5378309EE2abF1539BF71dE1b7d7bE3b5",
  "extraData": "0x476574682f76312e302e312d63303261396266632f6c696e75782f676f312e34",
  "transactions": [
    {
      "hash": "0xf5a3d55e9c666c975701b5e56c564ca1b36be8f0516ae3da6efb6541957675cc",
      "blockHash": "0xd11b12497b5b91cd9867fe41a03c9aeb04d945bb8a0455ed5248b8005940dc5d",
      "blockNumber": 111542,
      "transactionIndex": 0,
      "confirmations": null,
      "from": "0x72907bC54bB4C0797c238CDD6DA2A2522A8A63f4",
      "gasPrice": {
        "_hex": "0xd01eb4bb3"
      },
      "gasLimit": {
        "_hex": "0x5208"
      },
      "to": "0x32Be343B94f860124dC4fEe278FDCBD38C102D88",
      "value": {
        "_hex": "0x1dd0c45af4b7980000"
      },
      "nonce": 2,
      "data": "0x",
      "r": "0xe86c338cf484dcbf0a6b5cd481d54f494ba509119b8689175ac619dc3661b7b5",
      "s": "0x030e4b43460257207bbadcb1dfd6fdf4ee45ce6069d174eabb7b1937164eca31",
      "v": 28,
      "creates": null,
      "raw": "0xf86d02850d01eb4bb38252089432be343b94f860124dc4fee278fdcbd38c102d88891dd0c45af4b7980000801ca0e86c338cf484dcbf0a6b5cd481d54f494ba509119b8689175ac619dc3661b7b5a0030e4b43460257207bbadcb1dfd6fdf4ee45ce6069d174eabb7b1937164eca31",
      "networkId": 0,
      "chainId": 0
    }
  ]
}