{
  "hash": "0x6805e8dae92ac81a839f88ba0293861944e450de5dd9788b3b133869e9bc90bd",
  "parentHash": "0xb835c0a7c09b1c4ffdad6731731dca04fe7f5d749fa7af0b5d25d59494da04ed",
  "number": 75158,
  "timestamp": 1439398594,
  "nonce": "0xf57108b4e9fe9787",
  "difficulty": 2195475865098,
  "gasLimit": {
    "_hex": "0x2fefd8"
  },
  "gasUsed": {
    "_hex": "0x1ed0e"
  },
  "miner": "0x2f6BCe4fc330B69C9B4c2694d57C63Ec7B18feC7",
  "extraData": "0x476574682f76312e302e312f77696e646f77732f676f312e342e32",
  "transactions": [
    {
      "hash": "0x098b984cc4b4d9cb56c198bd287772ad9420fcc1ed321bc58bf1881792b7990a",
      "blockHash": "0x6805e8dae92ac81a839f88ba0293861944e450de5dd9788b3b133869e9bc90bd",
      "blockNumber": 75158,
      "transactionIndex": 0,
      "confirmations": null,
      "from": "0x326Be8F71bFb0379f989aAB1CC1fE37f0a771f60",
      "gasPrice": {
        "_hex": "0x1108d9f0d23"
      },
      "gasLimit": {
        "_hex": "0x493e0"
      },
      "to": "0xD79B4C6791784184e2755B2fC1659eaaB0f80456",
      "value": {
        "_hex": "0x0"
      },
      "nonce": 77,
      "data": "0x",
      "r": "0x2dccd399b6a79126af53a17a81f6c17cfa515cd6a2da6f741f3cab61bbaac004",
      "s": "0x6a8b8cb1b49fc5dfa17819c2af3b24eea0ae9abcf5747fda23dd8ee728d645a4",
      "v": 27,
      "creates": null,
      "raw": "0xf8664d8601108d9f0d23830493e094d79b4c6791784184e2755b2fc1659eaab0f8045680801ba02dccd399b6a79126af53a17a81f6c17cfa515cd6a2da6f741f3cab61bbaac004a06a8b8cb1b49fc5dfa17819c2af3b24eea0ae9abcf5747fda23dd8ee728d645a4",
      "networkId": 0,
      "chainId": 0
    },
    {
      "hash": "0x613c79a562f12c18ad8694df5a8be7bbf50deb8b72ef40f3860e96d031bcf871",
      "blockHash": "0x6805e8dae92ac81a839f88ba0293861944e450de5dd9788b3b133869e9bc90bd",
      "blockNumber": 75158,
      "transactionIndex": 1,
      "confirmations": null,
      "from": "0x326Be8F71bFb0379f989aAB1CC1fE37f0a771f60",
      "gasPrice": {
        "_hex": "0x1108d9f0d23"
      },
      "gasLimit": {
        "_hex": "0x493e0"
      },
      "to": "0xD79B4C6791784184e2755B2fC1659eaaB0f80456",
      "value": {
        "_hex": "0x0"
      },
      "nonce": 78,
      "data": "0x",
      "r": "0x63c5fbca9dac5c792e75aaeacd5839f4ece85a058f73405cf26e2b5909bc167a",
      "s": "0x72ee01b9a75ac2848fadffd9bf011f2c72811011ad284cbfd53951d806f43426",
      "v": 28,
      "creates": null,
      "raw": "0xf8664e8601108d9f0d23830493e094d79b4c6791784184e2755b2fc1659eaab0f8045680801ca063c5fbca9dac5c792e75aaeacd5839f4ece85a058f73405cf26e2b5909bc167aa072ee01b9a75ac2848fadffd9bf011f2c72811011ad284cbfd53951d806f43426",
      "networkId": 0,
      "chainId": 0
    },
    {
      "hash": "0x0fc2eeb0b1032da9b95e95d84a1fa5100cb493267b4b4802570a2f7d96710f26",
      "blockHash": "0x6805e8dae92ac81a839f88ba0293861944e450de5dd9788b3b133869e9bc90bd",
      "blockNumber": 75158,
      "transactionIndex": 2,
      "confirmations": null,
      "from": "0x326Be8F71bFb0379f989aAB1CC1fE37f0a771f60",
      "gasPrice": {
        "_hex": "0x1108d9f0d23"
      },
      "gasLimit": {
        "_hex": "0x493e0"
      },
      "to": "0xD79B4C6791784184e2755B2fC1659eaaB0f80456",
      "value": {
        "_hex": "0x0"
      },
      "nonce": 79,
      "data": "0x",
      "r": "0xdf4ed1e0d6950fe161ee6248a36c47448062a56615737c10398a5d3111b95896",
      "s": "0x32b0cb05c45d721b5594660395b2259c4f1f8c5e9b0b46ada6381727540eea41",
      "v": 27,
      "creates": null,
      "raw": "0xf8664f8601108d9f0d23830493e094d79b4c6791784184e2755b2fc1659eaab0f8045680801ba0df4ed1e0d6950fe161ee6248a36c47448062a56615737c10398a5d3111b95896a032b0cb05c45d721b5594660395b2259c4f1f8c5e9b0b46ada6381727540eea41",
      "networkId": 0,
      "chainId": 0
    },
    {
      "hash": "0xd33fbc7f9683fd74424cc7f342b7dd8c09b8e0ee101148f73123a7b4c948a314",
      "blockHash": "0x6805e8dae92ac81a839f88ba0293861944e450de5dd9788b3b133869e9bc90bd",
      "blockNumber": 75158,
      "transactionIndex": 3,
      "confirmations": null,
      "from": "0x326Be8F71bFb0379f989aAB1CC1fE37f0a771f60",
      "gasPrice": {
        "_hex": "0x1108d9f0d23"
      },
      "gasLimit": {
        "_hex": "0x493e0"
      },
      "to": "0xD79B4C6791784184e2755B2fC1659eaaB0f80456",
      "value": {
        "_hex": "0x0"
      },
      "nonce": 80,
      "data": "0x",
      "r": "0xf951ab120ca676b31c4af8b4802d0cd128296ac1104df141124c3326fb2bcedb",
      "s": "0x23f3d8c003c91f36a8e609ddfc9987da31e6e77ce9240b39f5e36bb3c45b082b",
      "v": 28,
      "creates": null,
      "raw": "0xf866508601108d9f0d23830493e094d79b4c6791784184e2755b2fc1659eaab0f8045680801ca0f951ab120ca676b31c4af8b4802d0cd128296ac1104df141124c3326fb2bcedba023f3d8c003c91f36a8e609ddfc9987da31e6e77ce9240b39f5e36bb3c45b082b",
      "networkId": 0,
      "chainId": 0
    },
    {
      "hash": "0xdb76a3f7c3807dbddbfd8d0ba2db585f6ee1d6849cd6530889e4c4839b996dd1",
      "blockHash": "0x6805e8dae92ac81a839f88ba0293861944e450de5dd9788b3b133869e9bc90bd",
      "blockNumber": 75158,
      "transactionIndex": 4,
      "confirmations": null,
      "from": "0x326Be8F71bFb0379f989aAB1CC1fE37f0a771f60",
      "gasPrice": {
        "_hex": "0x1108d9f0d23"
      },
      "gasLimit": {
        "_hex": "0x493e0"
      },
      "to": "0xD79B4C6791784184e2755B2fC1659eaaB0f80456",
      "value": {
        "_hex": "0x0"
      },
      "nonce": 81,
      "data": "0x",
      "r": "0x163d590fcd7756f205fc2c984680dfa02c359242408284219b8880ca8b9dc02e",
      "s": "0x447acca7e2061414e5ad6ec0748fa453b3683839d9edb54a4f560c819a6b7a62",
      "v": 27,
      "creates": null,
      "raw": "0xf866518601108d9f0d23830493e094d79b4c6791784184e2755b2fc1659eaab0f8045680801ba0163d590fcd7756f205fc2c984680dfa02c359242408284219b8880ca8b9dc02ea0447acca7e2061414e5ad6ec0748fa453b3683839d9edb54a4f560c819a6b7a62",
      "networkId": 0,
      "chainId": 0
    },
    {
      "hash": "0x344710ecf1481c5fae7ec75c824f361a7eb65160a03cd887190784c867d9a2f4",
      "blockHash": "0x6805e8dae92ac81a839f88ba0293861944e450de5dd9788b3b133869e9bc90bd",
      "blockNumber": 75158,
      "transactionIndex": 5,
      "confirmations": null,
      "from": "0x326Be8F71bFb0379f989aAB1CC1fE37f0a771f60",
      "gasPrice": {
        "_hex": "0x1108d9f0d23"
      },
      "gasLimit": {
        "_hex": "0x493e0"
      },
      "to": "0xD79B4C6791784184e2755B2fC1659eaaB0f80456",
      "value": {
        "_hex": "0x0"
      },
      "nonce": 82,
      "data": "0x",
      "r": "0xa8179f4317518a6077e68f149f9dec5459e98ef0dfcd9013fca0958ade9dc567",
      "s": "0x22de0f33cf139d4e164c826a4ae8db98d93a1a1c30a3c5b819f5569fa123d4d1",
      "v": 28,
      "creates": null,
      "raw": "0xf866528601108d9f0d23830493e094d79b4c6791784184e2755b2fc1659eaab0f8045680801ca0a8179f4317518a6077e68f149f9dec5459e98ef0dfcd9013fca0958ade9dc567a022de0f33cf139d4e164c826a4ae8db98d93a1a1c30a3c5b819f5569fa123d4d1",
      "networkId": 0,
      "chainId": 0
    }
  ]
}