{
  "hash": "0x7b869247eff11881e7d5a07a4dd0c9727548ce6d51b493febfb1acf2d8ecb7c8",
  "parentHash": "0x97e1b41adb2760270618035aa7d29c1837d71ba913d38564cf1870935084e9c8",
  "number": 112716,
  "timestamp": 1440011920,
  "nonce": "0x33d4a489a686a72a",
  "difficulty": 4432451694876,
  "gasLimit": {
    "_hex": "0x2fefd8"
  },
  "gasUsed": {
    "_hex": "0x5208"
  },
  "miner": "0x52bc44d5378309EE2abF1539BF71dE1b7d7bE3b5",
  "extraData": "0x476574682f76312e302e312d39353236303766382f6c696e75782f676f312e34",
  "transactions": [
    {
      "hash": "0x3de997db49cc3c0c3a80161a81ec3f9081ec966b080cda9cb826b74fba88298c",
      "blockHash": "0x7b869247eff11881e7d5a07a4dd0c9727548ce6d51b493febfb1acf2d8ecb7c8",
      "blockNumber": 112716,
      "transactionIndex": 0,
      "confirmations": null,
      "from": "0x1E550f4ecF22cBCb73da4fc090FBf5a5c748b0F1",
      "gasPrice": {
        "_hex": "0xcbb1ba404"
      },
      "gasLimit": {
        "_hex": "0x5208"
      },
      "to": "0x32Be343B94f860124dC4fEe278FDCBD38C102D88",
      "value": {
        "_hex": "0x7c0f8602594d0400"
      },
      "nonce": 7,
      "data": "0x",
      "r": "0x80e61a4783c8db2739bf19f82342b33f8c73621bdfec0b6c7cad3957d2a83243",
      "s": "0x0c92ddc1f4a9f15c703e8a40adbcbc196c4f6ba2eb431cbcc781cb68b2117a37",
      "v": 27,
      "creates": null,
      "raw": "0xf86c07850cbb1ba4048252089432be343b94f860124dc4fee278fdcbd38c102d88887c0f8602594d0400801ba080e61a4783c8db2739bf19f82342b33f8c73621bdfec0b6c7cad3957d2a83243a00c92ddc1f4a9f15c703e8a40adbcbc196c4f6ba2eb431cbcc781cb68b2117a37",
      "networkId": 0,
      "chainId": 0
    }
  ]
}