{
  "hash": "0x245ff054e51a323871b9d62348bd1c0767f4cc5e3457e4cbc5dafd1de48e3385",
  "parentHash": "0x58b14650339bc085c284f0d0b35def853f61e1060d04d26949edab41824b7899",
  "number": 79224,
  "timestamp": 1439466328,
  "nonce": "0x8fc9023a90f16d97",
  "difficulty": 2322292263484,
  "gasLimit": {
    "_hex": "0x2fefd8"
  },
  "gasUsed": {
    "_hex": "0x546c"
  },
  "miner": "0x88D74a59454F6cF3B51ef6b9136AFb6b9D405A88",
  "extraData": "0x476574682f76312e302e312d37666266393930632f6c696e75782f676f312e34",
  "transactions": [
    {
      "hash": "0x8a966132e96e44fedc59da926b7f5e5afd103854b407a3e6a801bc4b0193f84e",
      "blockHash": "0x245ff054e51a323871b9d62348bd1c0767f4cc5e3457e4cbc5dafd1de48e3385",
      "blockNumber": 79224,
      "transactionIndex": 0,
      "confirmations": null,
      "from": "0x0E1801E70B6262861b1134ccBC391F568Afc92F7",
      "gasPrice": {
        "_hex": "0x110c8f7d8de"
      },
      "gasLimit": {
        "_hex": "0xc350"
      },
      "to": "0x2910543Af39abA0Cd09dBb2D50200b3E800A63D2",
      "value": {
        "_hex": "0x6c262fca09784c0000"
      },
      "nonce": 1,
      "data": "0x454e4757324b415630",
      "r": "0x9c10d51744f278d344a1b789f64fdbd0f10b98d685d53c1c9c6ebcdbd13312b0",
      "s": "0xffc6252baf6dec92e5c11fffa6f1556bb5edc21daf9bb45f598a523d6feaa449",
      "v": 28,
      "creates": null,
      "raw": "0xf87701860110c8f7d8de82c350942910543af39aba0cd09dbb2d50200b3e800a63d2896c262fca09784c000089454e4757324b4156301ca09c10d51744f278d344a1b789f64fdbd0f10b98d685d53c1c9c6ebcdbd13312b0a0ffc6252baf6dec92e5c11fffa6f1556bb5edc21daf9bb45f598a523d6feaa449",
      "networkId": 0,
      "chainId": 0
    }
  ]
}