{
  "hash": "0x6a489e77dd27816d4f00015c287a66061f1dc21195a7b36a8eeaa407632c3456",
  "parentHash": "0x8e83e9237b32236fe2701bb70b49c33242e005c6ff267901b1e6e939ba84d9ce",
  "number": 84284,
  "timestamp": 1439547534,
  "nonce": "0x545b8562457bf48a",
  "difficulty": 2531635692917,
  "gasLimit": {
    "_hex": "0x2fefd8"
  },
  "gasUsed": {
    "_hex": "0x38658"
  },
  "miner": "0xe6A7a1d47ff21B6321162AEA7C6CB457D5476Bca",
  "extraData": "0x476574682f76312e302e312d38326566323666362f6c696e75782f676f312e34",
  "transactions": [
    {
      "hash": "0x2ba3087012a6d60bce9fad66804ad873221407613f95b3ba9d03dc2e3a11b4ca",
      "blockHash": "0x6a489e77dd27816d4f00015c287a66061f1dc21195a7b36a8eeaa407632c3456",
      "blockNumber": 84284,
      "transactionIndex": 0,
      "confirmations": null,
      "from": "0xe6A7a1d47ff21B6321162AEA7C6CB457D5476Bca",
      "gasPrice": {
        "_hex": "0xe22884ec1"
      },
      "gasLimit": {
        "_hex": "0x55f0"
      },
      "to": "0xce8ff6d2027CA9837abb85FD515752151b6C7d0A",
      "value": {
        "_hex": "0x8fa27903c5269908"
      },
      "nonce": 1772,
      "data": "0x",
      "r": "0xe41a415ec36fdca7c7b9d2647cb1a4337e64e8ba3d5f1af23c6cee80890d03fb",
      "s": "0x6335b1af0744b0df917e640e7f1aa874f7a49aef53d385bbb99be48255acfbd1",
      "v": 27,
      "creates": null,
      "raw": "0xf86e8206ec850e22884ec18255f094ce8ff6d2027ca9837abb85fd515752151b6c7d0a888fa27903c5269908801ba0e41a415ec36fdca7c7b9d2647cb1a4337e64e8ba3d5f1af23c6cee80890d03fba06335b1af0744b0df917e640e7f1aa874f7a49aef53d385bbb99be48255acfbd1",
      "networkId": 0,
      "chainId": 0
    },
    {
      "hash": "0x016b5a9b577ed8fb9b1ee1aac6b5f78bb8b7c7ac7fa53510a592f3d1ce9b1cb8",
      "blockHash": "0x6a489e77dd27816d4f00015c287a66061f1dc21195a7b36a8eeaa407632c3456",
      "blockNumber": 84284,
      "transactionIndex": 1,
      "confirmations": null,
      "from": "0xe6A7a1d47ff21B6321162AEA7C6CB457D5476Bca",
      "gasPrice": {
        "_hex": "0xe22884ec1"
      },
      "gasLimit": {
        "_hex": "0x55f0"
      },
      "to": "0x1A99941B3E60c242bb3941e5BB5e1049145CDf9B",
      "value": {
        "_hex": "0x8fe4095891757350"
      },
      "nonce": 1773,
      "data": "0x",
      "r": "0x0dc9bf1da9d90c6892e6a8b371999755b2e56b54299e82388422d73920c6f2e1",
      "s": "0x7f106394aa5365702d016d37120b9c193c3e01de97a6050c10c2c3fdcda19fe3",
      "v": 28,
      "creates": null,
      "raw": "0xf86e8206ed850e22884ec18255f0941a99941b3e60c242bb3941e5bb5e1049145cdf9b888fe4095891757350801ca00dc9bf1da9d90c6892e6a8b371999755b2e56b54299e82388422d73920c6f2e1a07f106394aa5365702d016d37120b9c193c3e01de97a6050c10c2c3fdcda19fe3",
      "networkId": 0,
      "chainId": 0
    },
    {
      "hash": "0x8105b66adb095437a7cea3e7d8be59c7c0bf0fba6443f7e08a896360b5ed9928",
      "blockHash": "0x6a489e77dd27816d4f00015c287a66061f1dc21195a7b36a8eeaa407632c3456",
      "blockNumber": 84284,
      "transactionIndex": 2,
      "confirmations": null,
      "from": "0xe6A7a1d47ff21B6321162AEA7C6CB457D5476Bca",
      "gasPrice": {
        "_hex": "0xe22884ec1"
      },
      "gasLimit": {
        "_hex": "0x55f0"
      },
      "to": "0x943800a6196105B4937F48570Dc5D0232a962da5",
      "value": {
        "_hex": "0x9097e8845af21710"
      },
      "nonce": 1774,
      "data": "0x",
      "r": "0x6f5eb1569c842b0fc7ab22bf5ecded6deb5330e7e93bfd698d5196383d7a75c1",
      "s": "0x6277763ad91be153a43f899af7b1bb79aaa330b830d750a80ba1a903d8b30a3b",
      "v": 27,
      "creates": null,
      "raw": "0xf86e8206ee850e22884ec18255f094943800a6196105b4937f48570dc5d0232a962da5889097e8845af21710801ba06f5eb1569c842b0fc7ab22bf5ecded6deb5330e7e93bfd698d5196383d7a75c1a06277763ad91be153a43f899af7b1bb79aaa330b830d750a80ba1a903d8b30a3b",
      "networkId": 0,
      "chainId": 0
    },
    {
      "hash": "0x35614df447d479ebf3d1ea1e28270c00e7d3e99a56cf0d8dcedff66a23281b86",
      "blockHash": "0x6a489e77dd27816d4f00015c287a66061f1dc21195a7b36a8eeaa407632c3456",
      "blockNumber": 84284,
      "transactionIndex": 3,
      "confirmations": null,
      "from": "0xe6A7a1d47ff21B6321162AEA7C6CB457D5476Bca",
      "gasPrice": {
        "_hex": "0xe22884ec1"
      },
      "gasLimit": {
        "_hex": "0x55f0"
      },
      "to": "0xeD3Fe86896534C24D9F91232faE34b78DFf3c1f4",
      "value": {
        "_hex": "0x928ab5dfcb4298d8"
      },
      "nonce": 1775,
      "data": "0x",
      "r": "0x72438ca2895544cabce9a66cd3b0855b2d6735fdb4ed1ca564581fd638994263",
      "s": "0x1990fef298a092cbf9f910859d2fe564c898bc70fed06141f66e836fad9ca880",
      "v": 28,
      "creates": null,
      "raw": "0xf86e8206ef850e22884ec18255f094ed3fe86896534c24d9f91232fae34b78dff3c1f488928ab5dfcb4298d8801ca072438ca2895544cabce9a66cd3b0855b2d6735fdb4ed1ca564581fd638994263a01990fef298a092cbf9f910859d2fe564c898bc70fed06141f66e836fad9ca880",
      "networkId": 0,
      "chainId": 0
    },
    {
      "hash": "0xe8243fb86dc8d38523f5b345bc2d686628be4c13b553093f06a9f80a72a7111b",
      "blockHash": "0x6a489e77dd27816d4f00015c287a66061f1dc21195a7b36a8eeaa407632c3456",
      "blockNumber": 84284,
      "transactionIndex": 4,
      "confirmations": null,
      "from": "0xe6A7a1d47ff21B6321162AEA7C6CB457D5476Bca",
      "gasPrice": {
        "_hex": "0xe22884ec1"
      },
      "gasLimit": {
        "_hex": "0x55f0"
      },
      "to": "0xF11940EA05aA9CC3F13aCF5C5cA6EDCF312E3Aec",
      "value": {
        "_hex": "0x9426788ec14e0768"
      },
      "nonce": 1776,
      "data": "0x",
      "r": "0xb4427328488c8a2c97deb9595222971ab8037e8f7eee1c34ec8140d1c6a418ed",
      "s": "0x02bced42dc07a963e2a4cfc9f90ef6583874570451b07855d77bf11ca687dd14",
      "v": 27,
      "creates": null,
      "raw": "0xf86e8206f0850e22884ec18255f094f11940ea05aa9cc3f13acf5c5ca6edcf312e3aec889426788ec14e0768801ba0b4427328488c8a2c97deb9595222971ab8037e8f7eee1c34ec8140d1c6a418eda002bced42dc07a963e2a4cfc9f90ef6583874570451b07855d77bf11ca687dd14",
      "networkId": 0,
      "chainId": 0
    },
    {
      "hash": "0x9a8446dc1f1b741a20452799d84deb026641d1345deaa1109747590e03006506",
      "blockHash": "0x6a489e77dd27816d4f00015c287a66061f1dc21195a7b36a8eeaa407632c3456",
      "blockNumber": 84284,
      "transactionIndex": 5,
      "confirmations": null,
      "from": "0xe6A7a1d47ff21B6321162AEA7C6CB457D5476Bca",
      "gasPrice": {
        "_hex": "0xe22884ec1"
      },
      "gasLimit": {
        "_hex": "0x55f0"
      },
      "to": "0x6599C9c86f1635FAAEFE7A5540914811DAD8d167",
      "value": {
        "_hex": "0x9484bcc3abab3570"
      },
      "nonce": 1777,
      "data": "0x",
      "r": "0x9f83c58b8de1a4c8ffbc1c720b21dcb5bb37a5751c6c4094747d5b208c91e3e2",
      "s": "0x67e074e15578750e34544d55e79313a2507abea3b74a038a25746cc6e4ed46be",
      "v": 27,
      "creates": null,
      "raw": "0xf86e8206f1850e22884ec18255f0946599c9c86f1635faaefe7a5540914811dad8d167889484bcc3abab3570801ba09f83c58b8de1a4c8ffbc1c720b21dcb5bb37a5751c6c4094747d5b208c91e3e2a067e074e15578750e34544d55e79313a2507abea3b74a038a25746cc6e4ed46be",
      "networkId": 0,
      "chainId": 0
    },
    {
      "hash": "0x6aba80ba74d67f5532f3daebbef7a61887de200c0627c4b6fa971df04b08d442",
      "blockHash": "0x6a489e77dd27816d4f00015c287a66061f1dc21195a7b36a8eeaa407632c3456",
      "blockNumber": 84284,
      "transactionIndex": 6,
      "confirmations": null,
      "from": "0xe6A7a1d47ff21B6321162AEA7C6CB457D5476Bca",
      "gasPrice": {
        "_hex": "0xe22884ec1"
      },
      "gasLimit": {
        "_hex": "0x55f0"
      },
      "to": "0xa70a9a7040d542C632D8e0bE7c5513A8a5Bbc752",
      "value": {
        "_hex": "0x979eb15d3bbf7158"
      },
      "nonce": 1778,
      "data": "0x",
      "r": "0x3515d5d77e067d23c7e83408cb0c43a20aba42129e6dad157364de081cc4a6f6",
      "s": "0x41682eba029a5c82b5d34b2b57b756fd3ef4031c7fa6ecf235710ce20dc847ed",
      "v": 27,
      "creates": null,
      "raw": "0xf86e8206f2850e22884ec18255f094a70a9a7040d542c632d8e0be7c5513a8a5bbc75288979eb15d3bbf7158801ba03515d5d77e067d23c7e83408cb0c43a20aba42129e6dad157364de081cc4a6f6a041682eba029a5c82b5d34b2b57b756fd3ef4031c7fa6ecf235710ce20dc847ed",
      "networkId": 0,
      "chainId": 0
    },
    {
      "hash": "0xeaab64c0ec40d0da3de8d2c9ad5fc11d7fadae9ff0e7b98cf295364b8a1d963b",
      "blockHash": "0x6a489e77dd27816d4f00015c287a66061f1dc21195a7b36a8eeaa407632c3456",
      "blockNumber": 84284,
      "transactionIndex": 7,
      "confirmations": null,
      "from": "0xe6A7a1d47ff21B6321162AEA7C6CB457D5476Bca",
      "gasPrice": {
        "_hex": "0xe22884ec1"
      },
      "gasLimit": {
        "_hex": "0x55f0"
      },
      "to": "0x3175a28CF6105466923f11bFFabD279F162aa2f8",
      "value": {
        "_hex": "0x97bf7046eb161828"
      },
      "nonce": 1779,
      "data": "0x",
      "r": "0xc1e9a3fcb58c6c6b22efb5d70b0f1a7d28a2efdf3277b89d18c90b827d515ea6",
      "s": "0x6863a806b82faf47c3b6faa1bf3f7a57d30b3903b83b5856b23e1740ffe7b404",
      "v": 28,
      "creates": null,
      "raw": "0xf86e8206f3850e22884ec18255f0943175a28cf6105466923f11bffabd279f162aa2f88897bf7046eb161828801ca0c1e9a3fcb58c6c6b22efb5d70b0f1a7d28a2efdf3277b89d18c90b827d515ea6a06863a806b82faf47c3b6faa1bf3f7a57d30b3903b83b5856b23e1740ffe7b404",
      "networkId": 0,
      "chainId": 0
    },
    {
      "hash": "0x4300ff439fb27482634b7e444e0f56357c5320a0d54f643e6e24b3bb077a521c",
      "blockHash": "0x6a489e77dd27816d4f00015c287a66061f1dc21195a7b36a8eeaa407632c3456",
      "blockNumber": 84284,
      "transactionIndex": 8,
      "confirmations": null,
      "from": "0xAD8c7FBFaBC46C35aDb03F7b3A67e731E5793899",
      "gasPrice": {
        "_hex": "0xde8ded7bc"
      },
      "gasLimit": {
        "_hex": "0x5208"
      },
      "to": "0x32Be343B94f860124dC4fEe278FDCBD38C102D88",
      "value": {
        "_hex": "0x644bd0d04675e800"
      },
      "nonce": 5,
      "data": "0x",
      "r": "0x726a55f7cc7ab22d85000ea9f96604560dd93d09fcf607303959007f7d24bfcd",
      "s": "0x2eaabf5dcc66a6ab2e4e41fbd8e86abbfa8f0edf327a03368a1355995fbb9618",
      "v": 28,
      "creates": null,
      "raw": "0xf86c05850de8ded7bc8252089432be343b94f860124dc4fee278fdcbd38c102d8888644bd0d04675e800801ca0726a55f7cc7ab22d85000ea9f96604560dd93d09fcf607303959007f7d24bfcda02eaabf5dcc66a6ab2e4e41fbd8e86abbfa8f0edf327a03368a1355995fbb9618",
      "networkId": 0,
      "chainId": 0
    },
    {
      "hash": "0x270d74fee82bedfea2c521b36f5f2458af0a377fe15b265461e2125271f6a580",
      "blockHash": "0x6a489e77dd27816d4f00015c287a66061f1dc21195a7b36a8eeaa407632c3456",
      "blockNumber": 84284,
      "transactionIndex": 9,
      "confirmations": null,
      "from": "0xbb30e448B72d6Fdd44973A4C7a312F92f22C8F07",
      "gasPrice": {
        "_hex": "0xde8ded7bc"
      },
      "gasLimit": {
        "_hex": "0x5208"
      },
      "to": "0x32Be343B94f860124dC4fEe278FDCBD38C102D88",
      "value": {
        "_hex": "0x26234c0dd9e3b800"
      },
      "nonce": 8,
      "data": "0x",
      "r": "0x39cd8b762dd0258475598b3c998ce8c1b5c519133ff1ae0db8f01a6a646d4a32",
      "s": "0x20280bd696da5212dd85f95c7bf650b61d6ebc31e975fb192687602002ab0144",
      "v": 28,
      "creates": null,
      "raw": "0xf86c08850de8ded7bc8252089432be343b94f860124dc4fee278fdcbd38c102d888826234c0dd9e3b800801ca039cd8b762dd0258475598b3c998ce8c1b5c519133ff1ae0db8f01a6a646d4a32a020280bd696da5212dd85f95c7bf650b61d6ebc31e975fb192687602002ab0144",
      "networkId": 0,
      "chainId": 0
    },
    {
      "hash": "0xcc288cc7fa8a96d748bbe699dd9ecdb8847359f72a66b47fe21acb8696ee7343",
      "blockHash": "0x6a489e77dd27816d4f00015c287a66061f1dc21195a7b36a8eeaa407632c3456",
      "blockNumber": 84284,
      "transactionIndex": 10,
      "confirmations": null,
      "from": "0x1c69e6202df7794272b70FaEa8f7408c856B1f08",
      "gasPrice": {
        "_hex": "0xde8ded7bc"
      },
      "gasLimit": {
        "_hex": "0x5208"
      },
      "to": "0x32Be343B94f860124dC4fEe278FDCBD38C102D88",
      "value": {
        "_hex": "0x5cd2572b47e4e000"
      },
      "nonce": 4,
      "data": "0x",
      "r": "0x3ef576dfefaaf5d735480a5846d6bee1f81fd93646c5d7fff665da8390f4e50a",
      "s": "0x408afa2bbb7251a9f03bed65e7020d4fb36cc3ea24e2f524ea31acc80acf28ce",
      "v": 27,
      "creates": null,
      "raw": "0xf86c04850de8ded7bc8252089432be343b94f860124dc4fee278fdcbd38c102d88885cd2572b47e4e000801ba03ef576dfefaaf5d735480a5846d6bee1f81fd93646c5d7fff665da8390f4e50aa0408afa2bbb7251a9f03bed65e7020d4fb36cc3ea24e2f524ea31acc80acf28ce",
      "networkId": 0,
      "chainId": 0
    }
  ]
}