{
  "hash": "0x9eb49af0e710226edf88bd36c0b277b35148fe73b8c7e04ed864d3d82b197966",
  "parentHash": "0xe0ab47d5487495b52fc13426159495a5023cfc729da7d94e11bd9e3ad7d401f9",
  "number": 50882,
  "timestamp": 1438996079,
  "nonce": "0xc066ffefa8fb99b3",
  "difficulty": 1547674764698,
  "gasLimit": {
    "_hex": "0x7f4f8"
  },
  "gasUsed": {
    "_hex": "0x5208"
  },
  "miner": "0xE81c9A6Ebe623E5d483110e0eaF2b10c769b1212",
  "extraData": "0x476574682f76312e302e312f6c696e75782f676f312e342e32",
  "transactions": [
    {
      "hash": "0x90897359479e061ecb4e65e689ee6b3aa488d9090e1330cd9d180c068e8c60d1",
      "blockHash": "0x9eb49af0e710226edf88bd36c0b277b35148fe73b8c7e04ed864d3d82b197966",
      "blockNumber": 50882,
      "transactionIndex": 0,
      "confirmations": null,
      "from": "0xCA092A957744f6385B1aee5dC694143E8A06F805",
      "gasPrice": {
        "_hex": "0xd7460142d"
      },
      "gasLimit": {
        "_hex": "0x15f90"
      },
      "to": "0x55ECA9413A8D63A0DfEcBeD5F8287D6032E4b255",
      "value": {
        "_hex": "0x49e57d6354000"
      },
      "nonce": 1,
      "data": "0x",
      "r": "0x399a2e0916d80d04b859923f5ffe44dd69ff53d465c4ed80ddf70ce4c81cedd2",
      "s": "0x0083f9b44786c4bab21ac8bd826799470fb3921b330c4db4971dee6842fe36ef",
      "v": 28,
      "creates": null,
      "raw": "0xf86b01850d7460142d83015f909455eca9413a8d63a0dfecbed5f8287d6032e4b25587049e57d6354000801ca0399a2e0916d80d04b859923f5ffe44dd69ff53d465c4ed80ddf70ce4c81cedd29f83f9b44786c4bab21ac8bd826799470fb3921b330c4db4971dee6842fe36ef",
      "networkId": 0,
      "chainId": 0
    }
  ]
}