{
  "hash": "0x02b86a0d1788f93681388c822a8c01e6ef5ac815fc9d37947e3d66c7ed496e03",
  "parentHash": "0x0b27aec3c727f05ed312bb0a3533a4d723899e51bf513d31634cabc2e93f8dc9",
  "number": 78901,
  "timestamp": 1439461323,
  "nonce": "0x324811d1d838ea90",
  "difficulty": 2283029757837,
  "gasLimit": {
    "_hex": "0x2fefd8"
  },
  "gasUsed": {
    "_hex": "0x546c"
  },
  "miner": "0x47ff6576639c2e94762eA5443978D7681C0E78DC",
  "extraData": "0x476574682f76312e302e312f6c696e75782f676f312e342e32",
  "transactions": [
    {
      "hash": "0x41ee077ce56c6a5a71e02e24d43e11ffe94f23bcc63cf132806e64cabb537127",
      "blockHash": "0x02b86a0d1788f93681388c822a8c01e6ef5ac815fc9d37947e3d66c7ed496e03",
      "blockNumber": 78901,
      "transactionIndex": 0,
      "confirmations": null,
      "from": "0x9f8aF3029af4Ba51bbAa32cF064816e07A35BBbD",
      "gasPrice": {
        "_hex": "0xdade9ccd6"
      },
      "gasLimit": {
        "_hex": "0x55f0"
      },
      "to": "0x2910543Af39abA0Cd09dBb2D50200b3E800A63D2",
      "value": {
        "_hex": "0x6a94d74f4300000"
      },
      "nonce": 1,
      "data": "0x454e304236584b4738",
      "r": "0x5def638b17db86fe9d5d5077aedfff13b0a0088cef11f7034f3234185413d9f3",
      "s": "0x128e5b7525e700b21874a8aa0507a7b3da2cde2c25a20a896a2ac5e1328857cf",
      "v": 27,
      "creates": null,
      "raw": "0xf87501850dade9ccd68255f0942910543af39aba0cd09dbb2d50200b3e800a63d28806a94d74f430000089454e304236584b47381ba05def638b17db86fe9d5d5077aedfff13b0a0088cef11f7034f3234185413d9f3a0128e5b7525e700b21874a8aa0507a7b3da2cde2c25a20a896a2ac5e1328857cf",
      "networkId": 0,
      "chainId": 0
    }
  ]
}