{
  "hash": "0xa88e2fab7a7253db95b78de761096b52e66be609a02a7cd430aae0c74d7692cd",
  "parentHash": "0xfafc5460e94bcf85961fb8feac575119587b6e68a2677e0a4d6fb486256d0b2d",
  "number": 68635,
  "timestamp": 1439291128,
  "nonce": "0x6b815c24d62a667d",
  "difficulty": 2023152386984,
  "gasLimit": {
    "_hex": "0x2fefd8"
  },
  "gasUsed": {
    "_hex": "0x3d860"
  },
  "miner": "0x1B7047b4338ACf65bE94C1A3e8c5c9338ad7d67C",
  "extraData": "0x476574682f76312e302e312d38326566323666362f6c696e75782f676f312e34",
  "transactions": [
    {
      "hash": "0x0690e49dabbd6d3c5303e45edf80c434af0a2a11a69b211dfa65a2d6776e18b1",
      "blockHash": "0xa88e2fab7a7253db95b78de761096b52e66be609a02a7cd430aae0c74d7692cd",
      "blockNumber": 68635,
      "transactionIndex": 0,
      "confirmations": null,
      "from": "0x18dF57d10Cd5813fb1e9aA2f4aA78b9fbb4Ec2ac",
      "gasPrice": {
        "_hex": "0xba43b7400"
      },
      "gasLimit": {
        "_hex": "0x5208"
      },
      "to": "0x21AB3da0261Cd18583213890949288776E85a8b3",
      "value": {
        "_hex": "0x17adb9b0233f000"
      },
      "nonce": 1,
      "data": "0x",
      "r": "0x2f9e973a5f1bd3fec10c299a9aa6bb6a6cb8ff8627040f4647f1a83f63f3a74f",
      "s": "0x1dce427ebcb43287a4ec5f4ce1d2def6a05805b05c01f5c2c5b20fb2449d00ba",
      "v": 27,
      "creates": null,
      "raw": "0xf86c01850ba43b74008252089421ab3da0261cd18583213890949288776e85a8b388017adb9b0233f000801ba02f9e973a5f1bd3fec10c299a9aa6bb6a6cb8ff8627040f4647f1a83f63f3a74fa01dce427ebcb43287a4ec5f4ce1d2def6a05805b05c01f5c2c5b20fb2449d00ba",
      "networkId": 0,
      "chainId": 0
    },
    {
      "hash": "0x76154d3aaa3d0283cf958c456579d948705333ec89d8ffc2309b1579e37c3a09",
      "blockHash": "0xa88e2fab7a7253db95b78de761096b52e66be609a02a7cd430aae0c74d7692cd",
      "blockNumber": 68635,
      "transactionIndex": 1,
      "confirmations": null,
      "from": "0xF8781B31324867d19e7e9bf8D19AE3f682148B7D",
      "gasPrice": {
        "_hex": "0xba43b7400"
      },
      "gasLimit": {
        "_hex": "0x5208"
      },
      "to": "0x703399462D33860FfB2f66D4920d09966D577c42",
      "value": {
        "_hex": "0x17adb9b0233f000"
      },
      "nonce": 1,
      "data": "0x",
      "r": "0x945668ea838609cd80e8209fe0d0e0bf63b563afd7c19b6955b093b0aa2b3e4d",
      "s": "0x6c2ebb53d2537edfd7acc7229bb73e29187bfc27b4654c4bacba6d7287d8d22d",
      "v": 28,
      "creates": null,
      "raw": "0xf86c01850ba43b740082520894703399462d33860ffb2f66d4920d09966d577c4288017adb9b0233f000801ca0945668ea838609cd80e8209fe0d0e0bf63b563afd7c19b6955b093b0aa2b3e4da06c2ebb53d2537edfd7acc7229bb73e29187bfc27b4654c4bacba6d7287d8d22d",
      "networkId": 0,
      "chainId": 0
    },
    {
      "hash": "0x967e729fc55d06f4eef40e9baf0b181476eee633dfda862de9a931832f4d564c",
      "blockHash": "0xa88e2fab7a7253db95b78de761096b52e66be609a02a7cd430aae0c74d7692cd",
      "blockNumber": 68635,
      "transactionIndex": 2,
      "confirmations": null,
      "from": "0x7FA5adC8A01E387cd7Fb496C6452c673a6beD424",
      "gasPrice": {
        "_hex": "0xba43b7400"
      },
      "gasLimit": {
        "_hex": "0x5208"
      },
      "to": "0x44787EDC9B8840f759A5CDB3518DB52aCDC8B578",
      "value": {
        "_hex": "0x17adb9b0233f000"
      },
      "nonce": 1,
      "data": "0x",
      "r": "0x3ef6c37874c7214c8eb85bb0010f24a979a5a72616eeeb3f2cf32e9fc95c852d",
      "s": "0x68b5f77ff9407fa210c5c0b556048f80b82528c0dd3bea468c6868233731abce",
      "v": 27,
      "creates": null,
      "raw": "0xf86c01850ba43b74008252089444787edc9b8840f759a5cdb3518db52acdc8b57888017adb9b0233f000801ba03ef6c37874c7214c8eb85bb0010f24a979a5a72616eeeb3f2cf32e9fc95c852da068b5f77ff9407fa210c5c0b556048f80b82528c0dd3bea468c6868233731abce",
      "networkId": 0,
      "chainId": 0
    },
    {
      "hash": "0x9a0e98831377da59738c78e7329633025a7808cdd4fcfeb0c364a216a811d931",
      "blockHash": "0xa88e2fab7a7253db95b78de761096b52e66be609a02a7cd430aae0c74d7692cd",
      "blockNumber": 68635,
      "transactionIndex": 3,
      "confirmations": null,
      "from": "0x18e1823Ad69bbd7dA1718f0F31D7E05Ec90F236F",
      "gasPrice": {
        "_hex": "0xba43b7400"
      },
      "gasLimit": {
        "_hex": "0x5208"
      },
      "to": "0xf3aD8f54422aCcfaFD1c09CF7960EaFe3eE1181D",
      "value": {
        "_hex": "0x17adb9b0233f000"
      },
      "nonce": 1,
      "data": "0x",
      "r": "0x197e5a1d5367d718937c145980fb2e4293469e3ee794de976c0623ff9c70eb52",
      "s": "0x08e1fd1ea93173c120e5583a5974522e87e128b86bfe004a6c5ead74df7d1b95",
      "v": 28,
      "creates": null,
      "raw": "0xf86c01850ba43b740082520894f3ad8f54422accfafd1c09cf7960eafe3ee1181d88017adb9b0233f000801ca0197e5a1d5367d718937c145980fb2e4293469e3ee794de976c0623ff9c70eb52a008e1fd1ea93173c120e5583a5974522e87e128b86bfe004a6c5ead74df7d1b95",
      "networkId": 0,
      "chainId": 0
    },
    {
      "hash": "0xa7c2826c85e1dab2924e5f51070960d52bfe94fef80a7aa0d40338c71688a34b",
      "blockHash": "0xa88e2fab7a7253db95b78de761096b52e66be609a02a7cd430aae0c74d7692cd",
      "blockNumber": 68635,
      "transactionIndex": 4,
      "confirmations": null,
      "from": "0xA6d28a5720E0D51FD8C5FeEAe807Ff13F2808b7f",
      "gasPrice": {
        "_hex": "0xba43b7400"
      },
      "gasLimit": {
        "_hex": "0x5208"
      },
      "to": "0x5cF22Ef806509315aC46b952652200207B96a599",
      "value": {
        "_hex": "0x17adb9b0233f000"
      },
      "nonce": 1,
      "data": "0x",
      "r": "0xc162e3529614b3e3985de99c2f010af57c4562022c2423bc486a1ec9096eb6a6",
      "s": "0x4b343a0972b73732fee23e4fda47da41606386b80be865534d65ad823ae85062",
      "v": 28,
      "creates": null,
      "raw": "0xf86c01850ba43b7400825208945cf22ef806509315ac46b952652200207b96a59988017adb9b0233f000801ca0c162e3529614b3e3985de99c2f010af57c4562022c2423bc486a1ec9096eb6a6a04b343a0972b73732fee23e4fda47da41606386b80be865534d65ad823ae85062",
      "networkId": 0,
      "chainId": 0
    },
    {
      "hash": "0xef2a6eec48dd07a6b1720cf3669d87e1a77883f00b8a9c4b54c44bde6f4afee3",
      "blockHash": "0xa88e2fab7a7253db95b78de761096b52e66be609a02a7cd430aae0c74d7692cd",
      "blockNumber": 68635,
      "transactionIndex": 5,
      "confirmations": null,
      "from": "0xdeb04086E705c30aD5A18127aF9D57403fEc7dC0",
      "gasPrice": {
        "_hex": "0xba43b7400"
      },
      "gasLimit": {
        "_hex": "0x5208"
      },
      "to": "0xD58B356Ee2C4b6C34b6F03058A4379ec77d7B21B",
      "value": {
        "_hex": "0x17adb9b0233f000"
      },
      "nonce": 1,
      "data": "0x",
      "r": "0xcf536ded0b535af89ec9302430349f1188ddb1aadffc23cf10d7c0e6da443dd3",
      "s": "0x79a47716520a23bf3b27e93c4d9a15b690f58cf39b837e807e39bef61ea006aa",
      "v": 27,
      "creates": null,
      "raw": "0xf86c01850ba43b740082520894d58b356ee2c4b6c34b6f03058a4379ec77d7b21b88017adb9b0233f000801ba0cf536ded0b535af89ec9302430349f1188ddb1aadffc23cf10d7c0e6da443dd3a079a47716520a23bf3b27e93c4d9a15b690f58cf39b837e807e39bef61ea006aa",
      "networkId": 0,
      "chainId": 0
    },
    {
      "hash": "0x674440735e5565037195f16f1645bcf7abd27b001d5d2636d73c4059611609a0",
      "blockHash": "0xa88e2fab7a7253db95b78de761096b52e66be609a02a7cd430aae0c74d7692cd",
      "blockNumber": 68635,
      "transactionIndex": 6,
      "confirmations": null,
      "from": "0xCB0AE669157A8be0524Cbb600f399FD9e05b92Bd",
      "gasPrice": {
        "_hex": "0xba43b7400"
      },
      "gasLimit": {
        "_hex": "0x5208"
      },
      "to": "0x788F9C1086703D0C79132c1C8819637fCD3f143E",
      "value": {
        "_hex": "0x17adb9b0233f000"
      },
      "nonce": 1,
      "data": "0x",
      "r": "0x09891db839ebd0736b0b56aef1f2b2ec18b1fed242409d0a1cc847b4448ea437",
      "s": "0x40d199f9f88b1fbecf648cec154356dd85ab4941e7790314839de9911dfb0446",
      "v": 28,
      "creates": null,
      "raw": "0xf86c01850ba43b740082520894788f9c1086703d0c79132c1c8819637fcd3f143e88017adb9b0233f000801ca009891db839ebd0736b0b56aef1f2b2ec18b1fed242409d0a1cc847b4448ea437a040d199f9f88b1fbecf648cec154356dd85ab4941e7790314839de9911dfb0446",
      "networkId": 0,
      "chainId": 0
    },
    {
      "hash": "0x8dc320c6a4e9fa26e78bce4944136456220bb5c5637bada4611729df6618a3f0",
      "blockHash": "0xa88e2fab7a7253db95b78de761096b52e66be609a02a7cd430aae0c74d7692cd",
      "blockNumber": 68635,
      "transactionIndex": 7,
      "confirmations": null,
      "from": "0x7E9aC8f8550268328e4ddbA89d7B902098f594fC",
      "gasPrice": {
        "_hex": "0xba43b7400"
      },
      "gasLimit": {
        "_hex": "0x5208"
      },
      "to": "0xc9f2fC7A925aaA6d00D73B614b7b2774fFC9318f",
      "value": {
        "_hex": "0x17adb9b0233f000"
      },
      "nonce": 1,
      "data": "0x",
      "r": "0xc3a35ffa93175e3ffde84cf19d212d043b5fc902fac11dd208a573e490c1ef29",
      "s": "0x2968b17631ae4580cc22c7e41aa16a737c49443322d0f228de2d9afe962a5e91",
      "v": 28,
      "creates": null,
      "raw": "0xf86c01850ba43b740082520894c9f2fc7a925aaa6d00d73b614b7b2774ffc9318f88017adb9b0233f000801ca0c3a35ffa93175e3ffde84cf19d212d043b5fc902fac11dd208a573e490c1ef29a02968b17631ae4580cc22c7e41aa16a737c49443322d0f228de2d9afe962a5e91",
      "networkId": 0,
      "chainId": 0
    },
    {
      "hash": "0x95a9a88c694376299c19d6347bfed09223b40e055f4841c57b48bbd465018a28",
      "blockHash": "0xa88e2fab7a7253db95b78de761096b52e66be609a02a7cd430aae0c74d7692cd",
      "blockNumber": 68635,
      "transactionIndex": 8,
      "confirmations": null,
      "from": "0xf6a9095B1ED6779EfC6bdDBc9F641E05Ad6449A6",
      "gasPrice": {
        "_hex": "0xba43b7400"
      },
      "gasLimit": {
        "_hex": "0x5208"
      },
      "to": "0x856c991Ae9f7647D17e7D771c58f7cbB6bc11364",
      "value": {
        "_hex": "0x17adb9b0233f000"
      },
      "nonce": 1,
      "data": "0x",
      "r": "0x6fb8ad496eff75c38241957d4e228c6f83b7bd44e42acae5d0317d6fc9546e04",
      "s": "0x6f72d37484f8496b129288274a7cba1fa7e0d875ad31cf6abba00fd7ee673856",
      "v": 28,
      "creates": null,
      "raw": "0xf86c01850ba43b740082520894856c991ae9f7647d17e7d771c58f7cbb6bc1136488017adb9b0233f000801ca06fb8ad496eff75c38241957d4e228c6f83b7bd44e42acae5d0317d6fc9546e04a06f72d37484f8496b129288274a7cba1fa7e0d875ad31cf6abba00fd7ee673856",
      "networkId": 0,
      "chainId": 0
    },
    {
      "hash": "0x1ed9146fd464913e0619cd823131d9845c9552792812fce1883be7612433f76a",
      "blockHash": "0xa88e2fab7a7253db95b78de761096b52e66be609a02a7cd430aae0c74d7692cd",
      "blockNumber": 68635,
      "transactionIndex": 9,
      "confirmations": null,
      "from": "0xdC4357B572Fe45779ee88E920A2De6392e4A7196",
      "gasPrice": {
        "_hex": "0xba43b7400"
      },
      "gasLimit": {
        "_hex": "0x5208"
      },
      "to": "0x636015334Aa0C4e7Ab19937C01805C6d287b680a",
      "value": {
        "_hex": "0x17adb9b0233f000"
      },
      "nonce": 1,
      "data": "0x",
      "r": "0xf90957d19c23840d3b4a37d312a23a7598719b073be7493518b189ea32f2fc52",
      "s": "0x71d0ac9c8999869e128dda5c013529925ea8c6a0b73df04ddcefeaf54c5d868a",
      "v": 28,
      "creates": null,
      "raw": "0xf86c01850ba43b740082520894636015334aa0c4e7ab19937c01805c6d287b680a88017adb9b0233f000801ca0f90957d19c23840d3b4a37d312a23a7598719b073be7493518b189ea32f2fc52a071d0ac9c8999869e128dda5c013529925ea8c6a0b73df04ddcefeaf54c5d868a",
      "networkId": 0,
      "chainId": 0
    },
    {
      "hash": "0x92e1c786bdfbf1daf236b0ae4bbe0486790593b88c8791fb495299c3017ced6c",
      "blockHash": "0xa88e2fab7a7253db95b78de761096b52e66be609a02a7cd430aae0c74d7692cd",
      "blockNumber": 68635,
      "transactionIndex": 10,
      "confirmations": null,
      "from": "0x713c3C88AA03630f6ac890D69DE8e3F69BcF8D82",
      "gasPrice": {
        "_hex": "0xba43b7400"
      },
      "gasLimit": {
        "_hex": "0x5208"
      },
      "to": "0x3aA8fb055ae3b0758aC5d9B37a905e2550c296fF",
      "value": {
        "_hex": "0x17adb9b0233f000"
      },
      "nonce": 1,
      "data": "0x",
      "r": "0x9fc2f87f47106a9b59d3c6299e4d0d7ff44fcdc58c8bbb5a4fa384bdc8030e5e",
      "s": "0x11d3313a1a8ae99689c43269ff22c68612d4c28567f82f34cb21042eb4dd4abb",
      "v": 28,
      "creates": null,
      "raw": "0xf86c01850ba43b7400825208943aa8fb055ae3b0758ac5d9b37a905e2550c296ff88017adb9b0233f000801ca09fc2f87f47106a9b59d3c6299e4d0d7ff44fcdc58c8bbb5a4fa384bdc8030e5ea011d3313a1a8ae99689c43269ff22c68612d4c28567f82f34cb21042eb4dd4abb",
      "networkId": 0,
      "chainId": 0
    },
    {
      "hash": "0xa046fa87fe4659bb0f4323b3aacc14c526f669097a8944ba9117a9fc3e866af0",
      "blockHash": "0xa88e2fab7a7253db95b78de761096b52e66be609a02a7cd430aae0c74d7692cd",
      "blockNumber": 68635,
      "transactionIndex": 11,
      "confirmations": null,
      "from": "0xb879a6150B910d734155FDC4d501d097982684e7",
      "gasPrice": {
        "_hex": "0xba43b7400"
      },
      "gasLimit": {
        "_hex": "0x5208"
      },
      "to": "0xB44D69AAaAa93150b6E2a150225D0592C2Db0D00",
      "value": {
        "_hex": "0x17adb9b0233f000"
      },
      "nonce": 1,
      "data": "0x",
      "r": "0xb50e122f41bf2806c8324fc063344cabe5a178552a037a13bea7594030822874",
      "s": "0x1af5de0970b0d0a7e967e1bed07723639537d8a757b71c2534f0fb253b917c15",
      "v": 27,
      "creates": null,
      "raw": "0xf86c01850ba43b740082520894b44d69aaaaa93150b6e2a150225d0592c2db0d0088017adb9b0233f000801ba0b50e122f41bf2806c8324fc063344cabe5a178552a037a13bea7594030822874a01af5de0970b0d0a7e967e1bed07723639537d8a757b71c2534f0fb253b917c15",
      "networkId": 0,
      "chainId": 0
    }
  ]
}