{
  "hash": "0xeda10ad979dbad2f2f1667768da164621fa3c36be79d3f33bcb23842ed14163a",
  "parentHash": "0xe3a856ae825b583c56db66f0adcd69c7f4e897f77c0ac712811668aa0d65f577",
  "number": 55083,
  "timestamp": 1439065111,
  "nonce": "0xd829dbf266771b60",
  "difficulty": 1631460318957,
  "gasLimit": {
    "_hex": "0x2fefd8"
  },
  "gasUsed": {
    "_hex": "0xa674"
  },
  "miner": "0x157c6f2431eB1a95797EE86F7d17b3c0FD47A247",
  "extraData": "0x476574682f76312e302e312f77696e646f77732f676f312e342e32",
  "transactions": [
    {
      "hash": "0x564d511c5d5ffa3e5eb3c57ef49900c99fa46b7d431524dcf1552cda1da74697",
      "blockHash": "0xeda10ad979dbad2f2f1667768da164621fa3c36be79d3f33bcb23842ed14163a",
      "blockNumber": 55083,
      "transactionIndex": 0,
      "confirmations": null,
      "from": "0x1d395b30adda1cF21f091a4F4A7B753371189441",
      "gasPrice": {
        "_hex": "0x110c8f7d8de"
      },
      "gasLimit": {
        "_hex": "0xc350"
      },
      "to": "0x2910543Af39abA0Cd09dBb2D50200b3E800A63D2",
      "value": {
        "_hex": "0x21e19e0c9bab2400000"
      },
      "nonce": 0,
      "data": "0x454e45384347313452",
      "r": "0x4ed4e4ba6f4f261558b163b9e5585ade0dbde4043952cebeadb92971d1351891",
      "s": "0x573cc259684ff79e314b90442a4da7ff7b97f7684dff26e5bb013218c2ac68a6",
      "v": 28,
      "creates": null,
      "raw": "0xf87880860110c8f7d8de82c350942910543af39aba0cd09dbb2d50200b3e800a63d28a021e19e0c9bab240000089454e453843473134521ca04ed4e4ba6f4f261558b163b9e5585ade0dbde4043952cebeadb92971d1351891a0573cc259684ff79e314b90442a4da7ff7b97f7684dff26e5bb013218c2ac68a6",
      "networkId": 0,
      "chainId": 0
    },
    {
      "hash": "0x1cb14b8d3a6e743a3451bce51c0add949b02acb715410661ee4d79f8b90c228d",
      "blockHash": "0xeda10ad979dbad2f2f1667768da164621fa3c36be79d3f33bcb23842ed14163a",
      "blockNumber": 55083,
      "transactionIndex": 1,
      "confirmations": null,
      "from": "0x32Be343B94f860124dC4fEe278FDCBD38C102D88",
      "gasPrice": {
        "_hex": "0xccfbe62e0"
      },
      "gasLimit": {
        "_hex": "0x5208"
      },
      "to": "0x0361540510aaC3F834967945511CE54871dc050D",
      "value": {
        "_hex": "0x1043561a8829300000"
      },
      "nonce": 63,
      "data": "0x",
      "r": "0xefdcd932036e3740a7eb5456f15167949d68fb63a5acb16c0818bf96841e6d1d",
      "s": "0x19c97676508e60fb60c5e338da8907af0f0f52e5d072ac3597c8771faf634ae8",
      "v": 28,
      "creates": null,
      "raw": "0xf86d3f850ccfbe62e0825208940361540510aac3f834967945511ce54871dc050d891043561a8829300000801ca0efdcd932036e3740a7eb5456f15167949d68fb63a5acb16c0818bf96841e6d1da019c97676508e60fb60c5e338da8907af0f0f52e5d072ac3597c8771faf634ae8",
      "networkId": 0,
      "chainId": 0
    }
  ]
}