{
  "hash": "0x3838dbcc1df5ee69dfb900a01c70e9eee816a12174d9849100f751994b9cad52",
  "parentHash": "0x96dc701f607f93af68dc81f56fec7b97858cfd0bcedfad81645f4c061ef165e7",
  "number": 110480,
  "timestamp": 1439974481,
  "nonce": "0xda20cbb9e333767a",
  "difficulty": 4373429731574,
  "gasLimit": {
    "_hex": "0x2fefd8"
  },
  "gasUsed": {
    "_hex": "0xa410"
  },
  "miner": "0x457C428117c1b8507111392d50876A9D548a6D36",
  "extraData": "0x476574682f76312e302e312f6c696e75782f676f312e342e32",
  "transactions": [
    {
      "hash": "0xd509ffa090a3beaa83bb44492241d3db256f8d0cf3b3bb7c5bd6d0ccb0e309c7",
      "blockHash": "0x3838dbcc1df5ee69dfb900a01c70e9eee816a12174d9849100f751994b9cad52",
      "blockNumber": 110480,
      "transactionIndex": 0,
      "confirmations": null,
      "from": "0xa61ff394e3846F8bfbBF8801afb051730B04Ee75",
      "gasPrice": {
        "_hex": "0xe1f15238d"
      },
      "gasLimit": {
        "_hex": "0x5208"
      },
      "to": "0x32Be343B94f860124dC4fEe278FDCBD38C102D88",
      "value": {
        "_hex": "0x4570614182921000"
      },
      "nonce": 20,
      "data": "0x",
      "r": "0x7a2b8cba956180759b2156cea604a5c91016a4bc9a40420e1f170b62d4f2baf8",
      "s": "0x1e4fda9e327c2edaa022b1d8963b5a4738b8720d174db77136be4ec7f2e224b8",
      "v": 27,
      "creates": null,
      "raw": "0xf86c14850e1f15238d8252089432be343b94f860124dc4fee278fdcbd38c102d88884570614182921000801ba07a2b8cba956180759b2156cea604a5c91016a4bc9a40420e1f170b62d4f2baf8a01e4fda9e327c2edaa022b1d8963b5a4738b8720d174db77136be4ec7f2e224b8",
      "networkId": 0,
      "chainId": 0
    },
    {
      "hash": "0xb3cadde7122801cc152c353686dbd778dfdef992f967711b4478d2c8255a7d41",
      "blockHash": "0x3838dbcc1df5ee69dfb900a01c70e9eee816a12174d9849100f751994b9cad52",
      "blockNumber": 110480,
      "transactionIndex": 1,
      "confirmations": null,
      "from": "0xb1abce2918E21ddb93AA452731a12672A3d9F75a",
      "gasPrice": {
        "_hex": "0xe1f15238d"
      },
      "gasLimit": {
        "_hex": "0x5208"
      },
      "to": "0x32Be343B94f860124dC4fEe278FDCBD38C102D88",
      "value": {
        "_hex": "0x455f0b1cdd0ac400"
      },
      "nonce": 163,
      "data": "0x",
      "r": "0xab4a24a67b4ec34f5e495e654f5b2c3a7882657be284cdf0b074cca9255fe5fb",
      "s": "0x08b1304093a84fa8b7159835b4bd8251f7e71c37a79311efd415885dbe8fb29a",
      "v": 28,
      "creates": null,
      "raw": "0xf86d81a3850e1f15238d8252089432be343b94f860124dc4fee278fdcbd38c102d8888455f0b1cdd0ac400801ca0ab4a24a67b4ec34f5e495e654f5b2c3a7882657be284cdf0b074cca9255fe5fba008b1304093a84fa8b7159835b4bd8251f7e71c37a79311efd415885dbe8fb29a",
      "networkId": 0,
      "chainId": 0
    }
  ]
}