{
  "hash": "0xb6afbc8ccb102022f347c2d02f3b08e72a426eabd4cbd7b6623c9bb2b78bec31",
  "parentHash": "0xa2f4d89bf7e6ef5cf34d9194745a3e69ed7626f40c6cd236a02afc7a2dc17708",
  "number": 64494,
  "timestamp": 1439221671,
  "nonce": "0x4b4605619b2a3e3b",
  "difficulty": 1876609945442,
  "gasLimit": {
    "_hex": "0x2fefd8"
  },
  "gasUsed": {
    "_hex": "0x11074"
  },
  "miner": "0xB1F9FAAfe5f917d92EBf5b21C25dC77c2CF86000",
  "extraData": "0x476574682f76312e302e312f77696e646f77732f676f312e342e32",
  "transactions": [
    {
      "hash": "0xe74b6fa09dee0e4f2e3a66abeda4228dd19e9afb5284913428e299116cb3c657",
      "blockHash": "0xb6afbc8ccb102022f347c2d02f3b08e72a426eabd4cbd7b6623c9bb2b78bec31",
      "blockNumber": 64494,
      "transactionIndex": 0,
      "confirmations": null,
      "from": "0x4c3343207f602E505D6640F228e8933dbC1E27f8",
      "gasPrice": {
        "_hex": "0xdf0f1795f"
      },
      "gasLimit": {
        "_hex": "0x15f90"
      },
      "to": "0x793AE8C1b1a160BFc07BFB0d04F85eab1A71F4f2",
      "value": {
        "_hex": "0x0"
      },
      "nonce": 0,
      "data": "0x3ba15036",
      "r": "0x78edc5ecf90655612f939011edd3c1899743d32677cf05db31032e06738bada4",
      "s": "0x7b220fa7f9f6bec4d8a84c25c5bc11714dbac74285216214ce0faf247e614ade",
      "v": 27,
      "creates": null,
      "raw": "0xf86980850df0f1795f83015f9094793ae8c1b1a160bfc07bfb0d04f85eab1a71f4f280843ba150361ba078edc5ecf90655612f939011edd3c1899743d32677cf05db31032e06738bada4a07b220fa7f9f6bec4d8a84c25c5bc11714dbac74285216214ce0faf247e614ade",
      "networkId": 0,
      "chainId": 0
    },
    {
      "hash": "0x8452801581e60cdfcd25a7e9caf1cb2d4510113414fbd77e500fde81dc68f614",
      "blockHash": "0xb6afbc8ccb102022f347c2d02f3b08e72a426eabd4cbd7b6623c9bb2b78bec31",
      "blockNumber": 64494,
      "transactionIndex": 1,
      "confirmations": null,
      "from": "0x893608751d68D046E85802926673CDf2f57f7cB8",
      "gasPrice": {
        "_hex": "0xd3e0dd636"
      },
      "gasLimit": {
        "_hex": "0x15f90"
      },
      "to": "0x13c209bcc316A696C50da92A4b4eAD1009839833",
      "value": {
        "_hex": "0x16345785d8a0000"
      },
      "nonce": 1,
      "data": "0x",
      "r": "0x053e4db5237de4507456db6f3b85aa0041f5bfba0ff45d78419bffa01d9fff79",
      "s": "0x4adf9443bb4f6a338b377324a1f7e08e5c754bab599a2019a820c7da8790a427",
      "v": 28,
      "creates": null,
      "raw": "0xf86d01850d3e0dd63683015f909413c209bcc316a696c50da92a4b4ead100983983388016345785d8a0000801ca0053e4db5237de4507456db6f3b85aa0041f5bfba0ff45d78419bffa01d9fff79a04adf9443bb4f6a338b377324a1f7e08e5c754bab599a2019a820c7da8790a427",
      "networkId": 0,
      "chainId": 0
    }
  ]
}