{
  "hash": "0x5dd4158c762036c35f31afcbaf1b123007dfcd792a3bdfc0f0d55ee5be5d3d89",
  "parentHash": "0xf9c0a3c7eb2ffa666c0a9ee3b99261c930a265a6281d01750e554ded90fc0e5d",
  "number": 114505,
  "timestamp": 1440041441,
  "nonce": "0x348f40ff54461989",
  "difficulty": 4507891108101,
  "gasLimit": {
    "_hex": "0x2fefd8"
  },
  "gasUsed": {
    "_hex": "0xf618"
  },
  "miner": "0xe6A7a1d47ff21B6321162AEA7C6CB457D5476Bca",
  "extraData": "0x476574682f76312e302e312d38326566323666362f6c696e75782f676f312e34",
  "transactions": [
    {
      "hash": "0xe400c6c6caa2d0c11ca194b0e308211f5a3b9223d2c07812af864b8c20da02bc",
      "blockHash": "0x5dd4158c762036c35f31afcbaf1b123007dfcd792a3bdfc0f0d55ee5be5d3d89",
      "blockNumber": 114505,
      "transactionIndex": 0,
      "confirmations": null,
      "from": "0x32Be343B94f860124dC4fEe278FDCBD38C102D88",
      "gasPrice": {
        "_hex": "0xdb4bf89bb"
      },
      "gasLimit": {
        "_hex": "0x5208"
      },
      "to": "0x4E304D6e488541DffF25B878BC79C218B19f5B9a",
      "value": {
        "_hex": "0x470de4df820000"
      },
      "nonce": 1395,
      "data": "0x",
      "r": "0x509d3c94df98084ecc824317c12ac1db2c7650939b305893bfba3671f1157a45",
      "s": "0x6050f1909f166e640ae2fb09e129cc1bea8f02d25181b5cf67638c493acc6482",
      "v": 27,
      "creates": null,
      "raw": "0xf86d820573850db4bf89bb825208944e304d6e488541dfff25b878bc79c218b19f5b9a87470de4df820000801ba0509d3c94df98084ecc824317c12ac1db2c7650939b305893bfba3671f1157a45a06050f1909f166e640ae2fb09e129cc1bea8f02d25181b5cf67638c493acc6482",
      "networkId": 0,
      "chainId": 0
    },
    {
      "hash": "0x651d1d967d82c21c7ca849e317bc4b691523a61a7309b39d3f4369fdea89897b",
      "blockHash": "0x5dd4158c762036c35f31afcbaf1b123007dfcd792a3bdfc0f0d55ee5be5d3d89",
      "blockNumber": 114505,
      "transactionIndex": 1,
      "confirmations": null,
      "from": "0xC47Aaa860008be6f65B58c6C6E02a84e666EfE31",
      "gasPrice": {
        "_hex": "0xce7db6c55"
      },
      "gasLimit": {
        "_hex": "0x15f90"
      },
      "to": "0xEcea5FdBdd578fA0aFfeA4a57e603828D978f20E",
      "value": {
        "_hex": "0xddd2935029d7fff"
      },
      "nonce": 109,
      "data": "0x",
      "r": "0xce3d330e1e699339ec24a6f32d3f4008ba9d7a9ab60c220c28cc598a07a1fb18",
      "s": "0x003377f6d88965c000053a52665ae9644cf3d891f4e99b42cbee47c545992d85",
      "v": 27,
      "creates": null,
      "raw": "0xf86c6d850ce7db6c5583015f9094ecea5fdbdd578fa0affea4a57e603828d978f20e880ddd2935029d7fff801ba0ce3d330e1e699339ec24a6f32d3f4008ba9d7a9ab60c220c28cc598a07a1fb189f3377f6d88965c000053a52665ae9644cf3d891f4e99b42cbee47c545992d85",
      "networkId": 0,
      "chainId": 0
    },
    {
      "hash": "0x660dde342266212f0b25efb59a0191ba52f055c4d1e3edbaac16fe8438ada271",
      "blockHash": "0x5dd4158c762036c35f31afcbaf1b123007dfcd792a3bdfc0f0d55ee5be5d3d89",
      "blockNumber": 114505,
      "transactionIndex": 2,
      "confirmations": null,
      "from": "0x289B9bA6dC9c12D3130F1115180397C20cCBF220",
      "gasPrice": {
        "_hex": "0xba43b7400"
      },
      "gasLimit": {
        "_hex": "0x5208"
      },
      "to": "0xC47Aaa860008be6f65B58c6C6E02a84e666EfE31",
      "value": {
        "_hex": "0x6c6b6c19a1207a4e90"
      },
      "nonce": 16,
      "data": "0x",
      "r": "0x1b568435d16e472d5d9fc4b19bf39d70bc0cb8591152a719855a50a298d6c94d",
      "s": "0x2b5e1cfcf0022e8c6142eaacdf9162587af0c325eca7d2e5fa6c024a8392fead",
      "v": 27,
      "creates": null,
      "raw": "0xf86d10850ba43b740082520894c47aaa860008be6f65b58c6c6e02a84e666efe31896c6b6c19a1207a4e90801ba01b568435d16e472d5d9fc4b19bf39d70bc0cb8591152a719855a50a298d6c94da02b5e1cfcf0022e8c6142eaacdf9162587af0c325eca7d2e5fa6c024a8392fead",
      "networkId": 0,
      "chainId": 0
    }
  ]
}