{
  "hash": "0x229ffd67cef4e063847b76ca5e55af24563a42db6a43744b25ad68c62474963c",
  "parentHash": "0x9d002e2f514dfc1c9a9f4eb3bf5a9ce37612b6e0f1a13538dfb87c68ab128cd6",
  "number": 80019,
  "timestamp": 1439478794,
  "nonce": "0xeb331750ff06859d",
  "difficulty": 2355186996758,
  "gasLimit": {
    "_hex": "0x2fefd8"
  },
  "gasUsed": {
    "_hex": "0x5208"
  },
  "miner": "0x98f7A0eDF3E25675482cA52480B7e07cA828a4b9",
  "extraData": "0x476574682f76312e302e312f6c696e75782f676f312e342e32",
  "transactions": [
    {
      "hash": "0x1a90a7b47efdbce7a9297f6aa5d76c488d9fad537a56a80c2a2d6054aafd3462",
      "blockHash": "0x229ffd67cef4e063847b76ca5e55af24563a42db6a43744b25ad68c62474963c",
      "blockNumber": 80019,
      "transactionIndex": 0,
      "confirmations": null,
      "from": "0x2d11763B4999FB3b61Ca8d19C8C77a743079f7bd",
      "gasPrice": {
        "_hex": "0xccd432d09"
      },
      "gasLimit": {
        "_hex": "0x186a0"
      },
      "to": "0x00CA462fF2a8833DacD7827Deb400f9b9b22c115",
      "value": {
        "_hex": "0x56bc75e2d63100000"
      },
      "nonce": 14,
      "data": "0x",
      "r": "0x04c9ca51e1e44b7904480c2a8cf85aa5cf1753497403bbcdbfb084215928c554",
      "s": "0x54e1e849db4673988605b19058720c1a8ebec71a29e373c0239349594e4b1c0a",
      "v": 28,
      "creates": null,
      "raw": "0xf86e0e850ccd432d09830186a09400ca462ff2a8833dacd7827deb400f9b9b22c11589056bc75e2d63100000801ca004c9ca51e1e44b7904480c2a8cf85aa5cf1753497403bbcdbfb084215928c554a054e1e849db4673988605b19058720c1a8ebec71a29e373c0239349594e4b1c0a",
      "networkId": 0,
      "chainId": 0
    }
  ]
}