{
  "hash": "0x056062dd7e88201c5374ba815a18b83bd44dc76577619f1f049df78e6eefc6a2",
  "parentHash": "0x8b91e7a5ac12944154c7043a38ea07a08ff1bbf76f3801351059cbb95810cdb7",
  "number": 120565,
  "timestamp": 1440162040,
  "nonce": "0x17308219c7f822d3",
  "difficulty": 4426144574228,
  "gasLimit": {
    "_hex": "0x2fefd8"
  },
  "gasUsed": {
    "_hex": "0x5208"
  },
  "miner": "0xe6A7a1d47ff21B6321162AEA7C6CB457D5476Bca",
  "extraData": "0xd783010002844765746887676f312e342e32856c696e7578",
  "transactions": [
    {
      "hash": "0x59a2ff15b462ddac65f2dfec3455d47944ad43d1be558ba5845374b03abbe884",
      "blockHash": "0x056062dd7e88201c5374ba815a18b83bd44dc76577619f1f049df78e6eefc6a2",
      "blockNumber": 120565,
      "transactionIndex": 0,
      "confirmations": null,
      "from": "0x7884D470204862a0d1A21122F41ee77430396Ee5",
      "gasPrice": {
        "_hex": "0xce7e3338c"
      },
      "gasLimit": {
        "_hex": "0x15f90"
      },
      "to": "0x7884D470204862a0d1A21122F41ee77430396Ee5",
      "value": {
        "_hex": "0x16345785d8a0000"
      },
      "nonce": 113,
      "data": "0x",
      "r": "0xe1ba7f5c4e23caaa75008f45947796930892a2c4e1c0c195a68623abec576dcc",
      "s": "0x68efdef0fc8524509bcb1bf612dd2ed4bcd86f6faa1bd06c63294624077e7a11",
      "v": 28,
      "creates": null,
      "raw": "0xf86d71850ce7e3338c83015f90947884d470204862a0d1a21122f41ee77430396ee588016345785d8a0000801ca0e1ba7f5c4e23caaa75008f45947796930892a2c4e1c0c195a68623abec576dcca068efdef0fc8524509bcb1bf612dd2ed4bcd86f6faa1bd06c63294624077e7a11",
      "networkId": 0,
      "chainId": 0
    }
  ]
}