{
  "hash": "0x0808056ba3c74c2ad8cedf1c784ec33fb6158dab0fb9a74cfaa163965594b46f",
  "parentHash": "0x5386742bfd8c198b88ffc68f66d9351e4c5b176757bfe2cd0aeaa0b312442484",
  "number": 94489,
  "timestamp": 1439709279,
  "nonce": "0x121508492007db7c",
  "difficulty": 3484936727807,
  "gasLimit": {
    "_hex": "0x2fefd8"
  },
  "gasUsed": {
    "_hex": "0x5208"
  },
  "miner": "0xfC25864D8326b4CB335C6942218e5F4Ee8D1E1EF",
  "extraData": "0x476574682f76312e302e312f77696e646f77732f676f312e342e32",
  "transactions": [
    {
      "hash": "0xc1c83fc739ae4dad4b213b3ea42b2c063cb7a3c04d0516848982bec1bcebed05",
      "blockHash": "0x0808056ba3c74c2ad8cedf1c784ec33fb6158dab0fb9a74cfaa163965594b46f",
      "blockNumber": 94489,
      "transactionIndex": 0,
      "confirmations": null,
      "from": "0x120A270bbC009644e35F0bB6ab13f95b8199c4ad",
      "gasPrice": {
        "_hex": "0xdcf534b79"
      },
      "gasLimit": {
        "_hex": "0x15f90"
      },
      "to": "0x957523c697993cB24FCf75EfBce4f228325e7383",
      "value": {
        "_hex": "0x1b1ae4d6e2ef500000"
      },
      "nonce": 581,
      "data": "0x",
      "r": "0x24ff33a37c0965a780b16735cd9fb9e92951bda7ec2bb781c02bacd0f1406692",
      "s": "0x4cb0a867bac3b2c9705761b6e1b51a5525545ff78f09a069b9c92901b83116ce",
      "v": 27,
      "creates": null,
      "raw": "0xf870820245850dcf534b7983015f9094957523c697993cb24fcf75efbce4f228325e7383891b1ae4d6e2ef500000801ba024ff33a37c0965a780b16735cd9fb9e92951bda7ec2bb781c02bacd0f1406692a04cb0a867bac3b2c9705761b6e1b51a5525545ff78f09a069b9c92901b83116ce",
      "networkId": 0,
      "chainId": 0
    }
  ]
}