{
  "hash": "0x8b98a7cb2ea576e771fd58f006f6280ba535d874c6e2e645838be483d6dce60b",
  "parentHash": "0x01606a50ad3a7d7c3455d33f46a594c05e8444f496b9a9b814f9c5c8acde4a28",
  "number": 87629,
  "timestamp": 1439595144,
  "nonce": "0xe21bb3b299f02ce8",
  "difficulty": 3157113880841,
  "gasLimit": {
    "_hex": "0x2fefd8"
  },
  "gasUsed": {
    "_hex": "0xa410"
  },
  "miner": "0x9D49F602b0fdb924Bd63DDE2Bd0907E4A07c63a7",
  "extraData": "0x476574682f76312e302e312f6c696e75782f676f312e342e32",
  "transactions": [
    {
      "hash": "0x989a1c72efab057dbcecb7b820f7ed087bf1a75a781cd079c31e13a378234cd5",
      "blockHash": "0x8b98a7cb2ea576e771fd58f006f6280ba535d874c6e2e645838be483d6dce60b",
      "blockNumber": 87629,
      "transactionIndex": 0,
      "confirmations": null,
      "from": "0x2910543Af39abA0Cd09dBb2D50200b3E800A63D2",
      "gasPrice": {
        "_hex": "0xcf0164a69"
      },
      "gasLimit": {
        "_hex": "0x5208"
      },
      "to": "0xb2169f1326FE9745321aD99563654089bAdf09eb",
      "value": {
        "_hex": "0x56bb59ab42b2f8000"
      },
      "nonce": 712,
      "data": "0x",
      "r": "0xdc5c2f3ef315bd1dc8c1e877a2234d9ecfd8af17ce995872afcfb22b277d36bb",
      "s": "0x7486c57850237ba2e6fe6d84e3a4ccb94102be9e8eaf16eec9fd5bd760f4de99",
      "v": 27,
      "creates": null,
      "raw": "0xf86f8202c8850cf0164a6982520894b2169f1326fe9745321ad99563654089badf09eb89056bb59ab42b2f8000801ba0dc5c2f3ef315bd1dc8c1e877a2234d9ecfd8af17ce995872afcfb22b277d36bba07486c57850237ba2e6fe6d84e3a4ccb94102be9e8eaf16eec9fd5bd760f4de99",
      "networkId": 0,
      "chainId": 0
    },
    {
      "hash": "0x9a9ab737a8b15ad538101ad7ea0e6329f6dc07af306bfc05a83890814039cd8f",
      "blockHash": "0x8b98a7cb2ea576e771fd58f006f6280ba535d874c6e2e645838be483d6dce60b",
      "blockNumber": 87629,
      "transactionIndex": 1,
      "confirmations": null,
      "from": "0xa70a9a7040d542C632D8e0bE7c5513A8a5Bbc752",
      "gasPrice": {
        "_hex": "0xcd824a658"
      },
      "gasLimit": {
        "_hex": "0x5208"
      },
      "to": "0x32Be343B94f860124dC4fEe278FDCBD38C102D88",
      "value": {
        "_hex": "0x4563885059fe9400"
      },
      "nonce": 101,
      "data": "0x",
      "r": "0xb445e4836777ab5c79cbee8b81fb0d6ac5c06d3c77d95d7268f985c5a35e8896",
      "s": "0x7a9b83b3a0e9d8b3ce3446cabb4e60cb7d08dbe542ceb9304f120fc1362de744",
      "v": 27,
      "creates": null,
      "raw": "0xf86c65850cd824a6588252089432be343b94f860124dc4fee278fdcbd38c102d88884563885059fe9400801ba0b445e4836777ab5c79cbee8b81fb0d6ac5c06d3c77d95d7268f985c5a35e8896a07a9b83b3a0e9d8b3ce3446cabb4e60cb7d08dbe542ceb9304f120fc1362de744",
      "networkId": 0,
      "chainId": 0
    }
  ]
}