{
  "hash": "0xeb9b159cfdd63d8c0e5759f48dd1cdcaad822a6f8ec55c8e4de047f7b3c772ae",
  "parentHash": "0x8bf315d0fc300ae46c19331abaae9e0acd7a003c1d0b4ac737196b1dc556dd11",
  "number": 84556,
  "timestamp": 1439551314,
  "nonce": "0x456ef7fc32877ba7",
  "difficulty": 2576446990213,
  "gasLimit": {
    "_hex": "0x2fefd8"
  },
  "gasUsed": {
    "_hex": "0x5208"
  },
  "miner": "0xe6A7a1d47ff21B6321162AEA7C6CB457D5476Bca",
  "extraData": "0x476574682f76312e302e312d38326566323666362f6c696e75782f676f312e34",
  "transactions": [
    {
      "hash": "0x89a536d212ad9760b285e8742acd996865633e76bb010d3b4b95f9e849578c75",
      "blockHash": "0xeb9b159cfdd63d8c0e5759f48dd1cdcaad822a6f8ec55c8e4de047f7b3c772ae",
      "blockNumber": 84556,
      "transactionIndex": 0,
      "confirmations": null,
      "from": "0x32Be343B94f860124dC4fEe278FDCBD38C102D88",
      "gasPrice": {
        "_hex": "0xceb24dea8"
      },
      "gasLimit": {
        "_hex": "0x5208"
      },
      "to": "0x7c56803FF5ab7bC5e13EA6D3c6dAEe765EC0fCb9",
      "value": {
        "_hex": "0xf1eb830bf2432000"
      },
      "nonce": 682,
      "data": "0x",
      "r": "0xb1e984b0c27fcb49f58ef8d0213430c29fd05157fc22226460ee62c95671b64b",
      "s": "0x51c9d4568acc867b0bcc310754fdf37f7bad764e062a6af77008c1502bb03a88",
      "v": 27,
      "creates": null,
      "raw": "0xf86e8202aa850ceb24dea8825208947c56803ff5ab7bc5e13ea6d3c6daee765ec0fcb988f1eb830bf2432000801ba0b1e984b0c27fcb49f58ef8d0213430c29fd05157fc22226460ee62c95671b64ba051c9d4568acc867b0bcc310754fdf37f7bad764e062a6af77008c1502bb03a88",
      "networkId": 0,
      "chainId": 0
    }
  ]
}