{
  "hash": "0x61dcee90f1965f144fe1274e574aaf5fdac0a4ce6ecf77548375abe2dfa9e91a",
  "parentHash": "0x06dc48a933f90416e96d749cb6d7a8d14e1618096b8c1a659a95ec09d5060586",
  "number": 103432,
  "timestamp": 1439853290,
  "nonce": "0xb63e28698b114dab",
  "difficulty": 4180744258315,
  "gasLimit": {
    "_hex": "0x2fefd8"
  },
  "gasUsed": {
    "_hex": "0x5208"
  },
  "miner": "0x7E6930B63D03e88F5928C5cd6ee3FCee4D714F7F",
  "extraData": "0x",
  "transactions": [
    {
      "hash": "0xa34a80e0c3a843ff6fd32f6ed3871e3006fc074d8a4a6e80ec0c470411cacce5",
      "blockHash": "0x61dcee90f1965f144fe1274e574aaf5fdac0a4ce6ecf77548375abe2dfa9e91a",
      "blockNumber": 103432,
      "transactionIndex": 0,
      "confirmations": null,
      "from": "0x161caF5a972ACe8379a6D0A04aE6e163fe21df2B",
      "gasPrice": {
        "_hex": "0x1069a50f485"
      },
      "gasLimit": {
        "_hex": "0x15f90"
      },
      "to": "0x2F015C60E0be116B1f0CD534704Db9c92118FB6A",
      "value": {
        "_hex": "0xde0b6b3a7640000"
      },
      "nonce": 0,
      "data": "0x",
      "r": "0xa5e8e0d31aeda0a365548508a22954174f9488cb33533fb1c7ab1ea763abf2eb",
      "s": "0x71130c102a834a6c31c16807ea69e464e247e47f3082f9ef3a3dc4fcc6c93cff",
      "v": 28,
      "creates": null,
      "raw": "0xf86e808601069a50f48583015f90942f015c60e0be116b1f0cd534704db9c92118fb6a880de0b6b3a7640000801ca0a5e8e0d31aeda0a365548508a22954174f9488cb33533fb1c7ab1ea763abf2eba071130c102a834a6c31c16807ea69e464e247e47f3082f9ef3a3dc4fcc6c93cff",
      "networkId": 0,
      "chainId": 0
    }
  ]
}