{
  "hash": "0x12b8b51bd2c9493cef9fd20dabace886190abae1e66a7a557dc2426c00780a52",
  "parentHash": "0x47faa1c3686bd33efe31eb1a1c05874229dd013a837f0e544b46d4f568a951dc",
  "number": 85338,
  "timestamp": 1439562085,
  "nonce": "0x957ef4845b1bf449",
  "difficulty": 2739681122364,
  "gasLimit": {
    "_hex": "0x2fefd8"
  },
  "gasUsed": {
    "_hex": "0x29040"
  },
  "miner": "0x2C674A948592B20a4B775E1a3991Db043E6CF0FE",
  "extraData": "0x476574682f76312e302e312d38326566323666362f6c696e75782f676f312e34",
  "transactions": [
    {
      "hash": "0x3ded619c4979974dc8ad9d4c3305c9863decc2322b241f2012076c64dca68c30",
      "blockHash": "0x12b8b51bd2c9493cef9fd20dabace886190abae1e66a7a557dc2426c00780a52",
      "blockNumber": 85338,
      "transactionIndex": 0,
      "confirmations": null,
      "from": "0x120A270bbC009644e35F0bB6ab13f95b8199c4ad",
      "gasPrice": {
        "_hex": "0xd3b7d0da4"
      },
      "gasLimit": {
        "_hex": "0x3d090"
      },
      "to": "0x0c86db7DffC9eCbBe8da476416F54F4c47F97322",
      "value": {
        "_hex": "0xbb59a27953c60000"
      },
      "nonce": 450,
      "data": "0x",
      "r": "0xcc86a20ec88771ae5c149e5bdaa581afda72bbdd515f04a4e605e5e8bdb64b18",
      "s": "0x2cd04ada3c829cca788bed189adc30ad4008eb904758cd89830cb563038f90fa",
      "v": 27,
      "creates": null,
      "raw": "0xf86f8201c2850d3b7d0da48303d090940c86db7dffc9ecbbe8da476416f54f4c47f9732288bb59a27953c60000801ba0cc86a20ec88771ae5c149e5bdaa581afda72bbdd515f04a4e605e5e8bdb64b18a02cd04ada3c829cca788bed189adc30ad4008eb904758cd89830cb563038f90fa",
      "networkId": 0,
      "chainId": 0
    },
    {
      "hash": "0x6d5e7a16460a22ce77825b75725e88d4a8ec31fc61ce7b62058c79c18894ab87",
      "blockHash": "0x12b8b51bd2c9493cef9fd20dabace886190abae1e66a7a557dc2426c00780a52",
      "blockNumber": 85338,
      "transactionIndex": 1,
      "confirmations": null,
      "from": "0x120A270bbC009644e35F0bB6ab13f95b8199c4ad",
      "gasPrice": {
        "_hex": "0xd3b7d0da4"
      },
      "gasLimit": {
        "_hex": "0x3d090"
      },
      "to": "0xc5623FA5c297c05c2d965A336b2068CfA0e567FA",
      "value": {
        "_hex": "0x1617d0455717ad5000"
      },
      "nonce": 451,
      "data": "0x",
      "r": "0xc83a2324fc9c465f06e892b4609ce6676869f63b190e15d6d7d9c7f415a717d6",
      "s": "0x4d2b4245086bc131618f2e17a40a2f2cde85c561e89bef712d47cfad078563a8",
      "v": 28,
      "creates": null,
      "raw": "0xf8708201c3850d3b7d0da48303d09094c5623fa5c297c05c2d965a336b2068cfa0e567fa891617d0455717ad5000801ca0c83a2324fc9c465f06e892b4609ce6676869f63b190e15d6d7d9c7f415a717d6a04d2b4245086bc131618f2e17a40a2f2cde85c561e89bef712d47cfad078563a8",
      "networkId": 0,
      "chainId": 0
    },
    {
      "hash": "0x201bc3140c9eb4b357d862987378ad9aff5693780e55ed0a960b1310640d3644",
      "blockHash": "0x12b8b51bd2c9493cef9fd20dabace886190abae1e66a7a557dc2426c00780a52",
      "blockNumber": 85338,
      "transactionIndex": 2,
      "confirmations": null,
      "from": "0xd97FDBc4B51136F7381A02c672E73247F5D6927c",
      "gasPrice": {
        "_hex": "0xcb7989219"
      },
      "gasLimit": {
        "_hex": "0x5208"
      },
      "to": "0x32Be343B94f860124dC4fEe278FDCBD38C102D88",
      "value": {
        "_hex": "0x6c4fcddaef06d00000"
      },
      "nonce": 2,
      "data": "0x",
      "r": "0x8f866adcde3f67b40ce76cf707437e736ac6968fb1ec51dd03603f5e690a8ea9",
      "s": "0x0ccd3f979c3c35ee88f8486efe417f99842c6b93a3ec06557e073ade841e521a",
      "v": 27,
      "creates": null,
      "raw": "0xf86d02850cb79892198252089432be343b94f860124dc4fee278fdcbd38c102d88896c4fcddaef06d00000801ba08f866adcde3f67b40ce76cf707437e736ac6968fb1ec51dd03603f5e690a8ea9a00ccd3f979c3c35ee88f8486efe417f99842c6b93a3ec06557e073ade841e521a",
      "networkId": 0,
      "chainId": 0
    },
    {
      "hash": "0x6a6c9c08c227070aa33e31945db4eac03529a4cb207a3b41311b4f8a273dd0a5",
      "blockHash": "0x12b8b51bd2c9493cef9fd20dabace886190abae1e66a7a557dc2426c00780a52",
      "blockNumber": 85338,
      "transactionIndex": 3,
      "confirmations": null,
      "from": "0x0398aC7B5CF7d978dB26724AF753A878F0D51610",
      "gasPrice": {
        "_hex": "0xcb7989219"
      },
      "gasLimit": {
        "_hex": "0x5208"
      },
      "to": "0x32Be343B94f860124dC4fEe278FDCBD38C102D88",
      "value": {
        "_hex": "0x1b28afb6e7f72d0000"
      },
      "nonce": 0,
      "data": "0x",
      "r": "0x7f961e9d81b3b61e34411dff20d589486aedaba1b44e45f4753914d6b6b51265",
      "s": "0x12e34ae379e8e29e4541047ea681ac054841a4e614416d1a07706594edbf1158",
      "v": 27,
      "creates": null,
      "raw": "0xf86d80850cb79892198252089432be343b94f860124dc4fee278fdcbd38c102d88891b28afb6e7f72d0000801ba07f961e9d81b3b61e34411dff20d589486aedaba1b44e45f4753914d6b6b51265a012e34ae379e8e29e4541047ea681ac054841a4e614416d1a07706594edbf1158",
      "networkId": 0,
      "chainId": 0
    },
    {
      "hash": "0x45caf9f4550e519f92a0d28ff6fd705fcfbb7344af742a84e4796aafb9b811db",
      "blockHash": "0x12b8b51bd2c9493cef9fd20dabace886190abae1e66a7a557dc2426c00780a52",
      "blockNumber": 85338,
      "transactionIndex": 4,
      "confirmations": null,
      "from": "0xA6CF15Cc4e4C6d1cE63B43E5963CBD0450fd9566",
      "gasPrice": {
        "_hex": "0xcb7989219"
      },
      "gasLimit": {
        "_hex": "0x5208"
      },
      "to": "0x32Be343B94f860124dC4fEe278FDCBD38C102D88",
      "value": {
        "_hex": "0x56bc34068d17c8000"
      },
      "nonce": 0,
      "data": "0x",
      "r": "0xd9ed681affa6445934af9e9294af8b8478f500450b0de7429740b808f1be1eae",
      "s": "0x2d78b56b1a7426a2dc3c4812849843d3ab4cd67720837bf1bc08994e6e21e9ec",
      "v": 28,
      "creates": null,
      "raw": "0xf86d80850cb79892198252089432be343b94f860124dc4fee278fdcbd38c102d8889056bc34068d17c8000801ca0d9ed681affa6445934af9e9294af8b8478f500450b0de7429740b808f1be1eaea02d78b56b1a7426a2dc3c4812849843d3ab4cd67720837bf1bc08994e6e21e9ec",
      "networkId": 0,
      "chainId": 0
    },
    {
      "hash": "0x88fd890f3fe0c53b94ebafbee0e89e9baf02836096fde92d673a71d763ab8a92",
      "blockHash": "0x12b8b51bd2c9493cef9fd20dabace886190abae1e66a7a557dc2426c00780a52",
      "blockNumber": 85338,
      "transactionIndex": 5,
      "confirmations": null,
      "from": "0x4fA3954A093E9916a48C5960B4303d7832b21A9b",
      "gasPrice": {
        "_hex": "0xcb7989219"
      },
      "gasLimit": {
        "_hex": "0x5208"
      },
      "to": "0x32Be343B94f860124dC4fEe278FDCBD38C102D88",
      "value": {
        "_hex": "0xf9c8c56c5d618800"
      },
      "nonce": 4,
      "data": "0x",
      "r": "0xac081daa384d213e23ada40f6e6af0740cc0f610ed2ffa72f08a849dd995a017",
      "s": "0x101e7c61c40c7ba431e950eb87448313a69007aee6172161643f5df04fc955dc",
      "v": 27,
      "creates": null,
      "raw": "0xf86c04850cb79892198252089432be343b94f860124dc4fee278fdcbd38c102d8888f9c8c56c5d618800801ba0ac081daa384d213e23ada40f6e6af0740cc0f610ed2ffa72f08a849dd995a017a0101e7c61c40c7ba431e950eb87448313a69007aee6172161643f5df04fc955dc",
      "networkId": 0,
      "chainId": 0
    },
    {
      "hash": "0xf0f92400e63b035e05e5532c9185e2731b23e25fa9c12c5ef347066b46035f48",
      "blockHash": "0x12b8b51bd2c9493cef9fd20dabace886190abae1e66a7a557dc2426c00780a52",
      "blockNumber": 85338,
      "transactionIndex": 6,
      "confirmations": null,
      "from": "0xfe8635C30D5b0a49D09Fc9480d59e05d7450fd41",
      "gasPrice": {
        "_hex": "0xcb7989219"
      },
      "gasLimit": {
        "_hex": "0x5208"
      },
      "to": "0x32Be343B94f860124dC4fEe278FDCBD38C102D88",
      "value": {
        "_hex": "0x12062b044c201000"
      },
      "nonce": 1,
      "data": "0x",
      "r": "0x14f1c098f93896385904e9ec7f8c4fa24e25c95366d554ed4d7d538861c0a52e",
      "s": "0x2afb1cd40146c6a69ed7d8d0e96d9442aec3116ae337064ad515c7b0bfc1a885",
      "v": 27,
      "creates": null,
      "raw": "0xf86c01850cb79892198252089432be343b94f860124dc4fee278fdcbd38c102d888812062b044c201000801ba014f1c098f93896385904e9ec7f8c4fa24e25c95366d554ed4d7d538861c0a52ea02afb1cd40146c6a69ed7d8d0e96d9442aec3116ae337064ad515c7b0bfc1a885",
      "networkId": 0,
      "chainId": 0
    },
    {
      "hash": "0x800d3a0011ff8a4b90873d6392d547669ae0bb981293172f7b4e852a7832b637",
      "blockHash": "0x12b8b51bd2c9493cef9fd20dabace886190abae1e66a7a557dc2426c00780a52",
      "blockNumber": 85338,
      "transactionIndex": 7,
      "confirmations": null,
      "from": "0xe44e19dD7Fa7A7f73e7BD58559f36c3B0d288fb5",
      "gasPrice": {
        "_hex": "0xcb7989219"
      },
      "gasLimit": {
        "_hex": "0x5208"
      },
      "to": "0x32Be343B94f860124dC4fEe278FDCBD38C102D88",
      "value": {
        "_hex": "0x2703724447f67c00"
      },
      "nonce": 0,
      "data": "0x",
      "r": "0xa9f405508248049868c187caf43a75fce0f92e1f090caa917d7dcaded5094fba",
      "s": "0x08f088e74c5c3c9a5e9ddce642a6c77ece6c949815c51360c97d8abe85f3ea62",
      "v": 28,
      "creates": null,
      "raw": "0xf86c80850cb79892198252089432be343b94f860124dc4fee278fdcbd38c102d88882703724447f67c00801ca0a9f405508248049868c187caf43a75fce0f92e1f090caa917d7dcaded5094fbaa008f088e74c5c3c9a5e9ddce642a6c77ece6c949815c51360c97d8abe85f3ea62",
      "networkId": 0,
      "chainId": 0
    }
  ]
}