{
  "hash": "0xacb26c5d4ff753f020d56e980e1a308fe659bc7879b2cc315291827d0f4d78de",
  "parentHash": "0x14d0f6c390e611f4c71fa0eda313af0dc5ce9d8ec812a74c6cd3690346b926ad",
  "number": 90949,
  "timestamp": 1439647866,
  "nonce": "0x2f9053904ae6300b",
  "difficulty": 3422314923928,
  "gasLimit": {
    "_hex": "0x2fefd8"
  },
  "gasUsed": {
    "_hex": "0xa410"
  },
  "miner": "0xC603Ab5ef41fC61AA8b76bEddb09e3Cfcbb174BD",
  "extraData": "0x476574682f76312e302e312f77696e646f77732f676f312e342e32",
  "transactions": [
    {
      "hash": "0xc875808d26df3def227570e34f20b1186a32ab38a788af6a1042168acc15fe7c",
      "blockHash": "0xacb26c5d4ff753f020d56e980e1a308fe659bc7879b2cc315291827d0f4d78de",
      "blockNumber": 90949,
      "transactionIndex": 0,
      "confirmations": null,
      "from": "0x007f7f58D3eb5b7510A301eCC749FC1fCDDBE14D",
      "gasPrice": {
        "_hex": "0xe0dd06abf"
      },
      "gasLimit": {
        "_hex": "0x15f90"
      },
      "to": "0xD9666150A9dA92d9108198a4072970805a8B3428",
      "value": {
        "_hex": "0x100bd33fb98ba0000"
      },
      "nonce": 6,
      "data": "0x",
      "r": "0x2d5ee28cf1b46f4dc1f7d77d28dcfd6eb3facc0ef6ebe3cfcf08795bc21b0293",
      "s": "0x0886b43f3995d3d296c210195e1e9392763fca2b192ca87cdb1f67e24ca8d02d",
      "v": 27,
      "creates": null,
      "raw": "0xf86e06850e0dd06abf83015f9094d9666150a9da92d9108198a4072970805a8b3428890100bd33fb98ba0000801ba02d5ee28cf1b46f4dc1f7d77d28dcfd6eb3facc0ef6ebe3cfcf08795bc21b0293a00886b43f3995d3d296c210195e1e9392763fca2b192ca87cdb1f67e24ca8d02d",
      "networkId": 0,
      "chainId": 0
    },
    {
      "hash": "0xd61eb8b61a8deb680519db596e50a76a2ca7a26a3a2797c23483dbfa1da9b1a1",
      "blockHash": "0xacb26c5d4ff753f020d56e980e1a308fe659bc7879b2cc315291827d0f4d78de",
      "blockNumber": 90949,
      "transactionIndex": 1,
      "confirmations": null,
      "from": "0xD609bf4F146EEA6B0DC8e06ddCF4448A1fCCc9fA",
      "gasPrice": {
        "_hex": "0xcb6d00839"
      },
      "gasLimit": {
        "_hex": "0x15f90"
      },
      "to": "0x80034a706E2cbA70Da4F7E8b9Ee5f9c1B16e6Bd1",
      "value": {
        "_hex": "0x6c6a3016135fb60000"
      },
      "nonce": 0,
      "data": "0x",
      "r": "0xda37da2e3e147b79ce56fd6868453c7f5246b399ebe5b9ac3b8f967982052987",
      "s": "0x46ab0e8e8b09e95c403d145107ab151dfb76d5782bd3d791db3195d48d30a01d",
      "v": 27,
      "creates": null,
      "raw": "0xf86e80850cb6d0083983015f909480034a706e2cba70da4f7e8b9ee5f9c1b16e6bd1896c6a3016135fb60000801ba0da37da2e3e147b79ce56fd6868453c7f5246b399ebe5b9ac3b8f967982052987a046ab0e8e8b09e95c403d145107ab151dfb76d5782bd3d791db3195d48d30a01d",
      "networkId": 0,
      "chainId": 0
    }
  ]
}