{
  "hash": "0x2f1c4697b0e45f1a1b9d4bb716f8e366be100bc26e22154e4b138bbc3dd8b15f",
  "parentHash": "0x1a5d2cda32b3da5ee9794679e2acd665057fa53357caa0cac39c01f5120d3dbe",
  "number": 52684,
  "timestamp": 1439025624,
  "nonce": "0xbd276a00e8d65472",
  "difficulty": 1570175311113,
  "gasLimit": {
    "_hex": "0x17b12c"
  },
  "gasUsed": {
    "_hex": "0x173568"
  },
  "miner": "0xeB1325C8D9d3ea8D74aC11F4B00F1B2367686319",
  "extraData": "0x476574682f76312e302e312f77696e646f77732f676f312e342e32",
  "transactions": [
    {
      "hash": "0x26b1aa3e016102d09a06f9671c508f8373a211e9949b09cb749109b0fc3a7887",
      "blockHash": "0x2f1c4697b0e45f1a1b9d4bb716f8e366be100bc26e22154e4b138bbc3dd8b15f",
      "blockNumber": 52684,
      "transactionIndex": 0,
      "confirmations": null,
      "from": "0xc56e71225f1372c990E6829D53A1Ab76d27301cf",
      "gasPrice": {
        "_hex": "0x104914f23f"
      },
      "gasLimit": {
        "_hex": "0x15f90"
      },
      "to": "0xA5fb3E4399E8F18643f969D0Ce65CC352fc252C6",
      "value": {
        "_hex": "0xde0b6b3a7640000"
      },
      "nonce": 2,
      "data": "0x",
      "r": "0x070ec527a98317a00175f4f2375d94a5cb8126ff2f2963eb523bc0020a5a7519",
      "s": "0x01920733833e3ce6e66a71da2e38a9a8542af050f1b79310a43cd9f93837d4ff",
      "v": 27,
      "creates": null,
      "raw": "0xf86d0285104914f23f83015f9094a5fb3e4399e8f18643f969d0ce65cc352fc252c6880de0b6b3a7640000801ba0070ec527a98317a00175f4f2375d94a5cb8126ff2f2963eb523bc0020a5a7519a001920733833e3ce6e66a71da2e38a9a8542af050f1b79310a43cd9f93837d4ff",
      "networkId": 0,
      "chainId": 0
    },
    {
      "hash": "0xd081e66b56a8c237e99d2459e51fdd0aaf5fa85ce1ef3102c54bf07262434dda",
      "blockHash": "0x2f1c4697b0e45f1a1b9d4bb716f8e366be100bc26e22154e4b138bbc3dd8b15f",
      "blockNumber": 52684,
      "transactionIndex": 1,
      "confirmations": null,
      "from": "0x54dAeb3E8a6BBC797E4aD2b0339f134b186e4637",
      "gasPrice": {
        "_hex": "0xe1780dfbb"
      },
      "gasLimit": {
        "_hex": "0x7a120"
      },
      "to": "0xBAA54d6E90c3F4d7Ebec11bD180134C7eD8eBb52",
      "value": {
        "_hex": "0x16345785d8a0000"
      },
      "nonce": 933,
      "data": "0x",
      "r": "0xea507edb22248c4b0069210d2fc9f66f19ffe36d114e51a6a031be24f505e9a6",
      "s": "0x1a4a069adfc2907c91c35de601be7b06d908ca9b7b2406cc88681f10f0e32008",
      "v": 28,
      "creates": null,
      "raw": "0xf86f8203a5850e1780dfbb8307a12094baa54d6e90c3f4d7ebec11bd180134c7ed8ebb5288016345785d8a0000801ca0ea507edb22248c4b0069210d2fc9f66f19ffe36d114e51a6a031be24f505e9a6a01a4a069adfc2907c91c35de601be7b06d908ca9b7b2406cc88681f10f0e32008",
      "networkId": 0,
      "chainId": 0
    },
    {
      "hash": "0xc8d60c4a1b8485d178fc9597489937c9c255e3bc1686d73b0a6ef2655c052352",
      "blockHash": "0x2f1c4697b0e45f1a1b9d4bb716f8e366be100bc26e22154e4b138bbc3dd8b15f",
      "blockNumber": 52684,
      "transactionIndex": 2,
      "confirmations": null,
      "from": "0x54dAeb3E8a6BBC797E4aD2b0339f134b186e4637",
      "gasPrice": {
        "_hex": "0xe7d27df17"
      },
      "gasLimit": {
        "_hex": "0x7a120"
      },
      "to": "0xBAA54d6E90c3F4d7Ebec11bD180134C7eD8eBb52",
      "value": {
        "_hex": "0x16345785d8a0000"
      },
      "nonce": 934,
      "data": "0x",
      "r": "0xaabaeecac0a99d487c103068304882e498079fc734a5f3f166f809c95187cd0c",
      "s": "0x06d3971c5d74408312c63b90a7ccf8c8eb741da82629beab4f3dd5cb965fc74e",
      "v": 27,
      "creates": null,
      "raw": "0xf86f8203a6850e7d27df178307a12094baa54d6e90c3f4d7ebec11bd180134c7ed8ebb5288016345785d8a0000801ba0aabaeecac0a99d487c103068304882e498079fc734a5f3f166f809c95187cd0ca006d3971c5d74408312c63b90a7ccf8c8eb741da82629beab4f3dd5cb965fc74e",
      "networkId": 0,
      "chainId": 0
    },
    {
      "hash": "0xc14a071efc1d92a5591ec38998a0b7e618c74d0aa73b6ff50676fd3c59267276",
      "blockHash": "0x2f1c4697b0e45f1a1b9d4bb716f8e366be100bc26e22154e4b138bbc3dd8b15f",
      "blockNumber": 52684,
      "transactionIndex": 3,
      "confirmations": null,
      "from": "0x54dAeb3E8a6BBC797E4aD2b0339f134b186e4637",
      "gasPrice": {
        "_hex": "0xe1780dfbb"
      },
      "gasLimit": {
        "_hex": "0x7a120"
      },
      "to": "0xBAA54d6E90c3F4d7Ebec11bD180134C7eD8eBb52",
      "value": {
        "_hex": "0x16345785d8a0000"
      },
      "nonce": 935,
      "data": "0x",
      "r": "0xba89842bfd647b808b8994aef49fa8ea2fa31975be0d5e1d3d79577b44711ee2",
      "s": "0x3dede8a23d26608054047d6d10d2dc010c9c73b56f49536e0810651364c8d454",
      "v": 27,
      "creates": null,
      "raw": "0xf86f8203a7850e1780dfbb8307a12094baa54d6e90c3f4d7ebec11bd180134c7ed8ebb5288016345785d8a0000801ba0ba89842bfd647b808b8994aef49fa8ea2fa31975be0d5e1d3d79577b44711ee2a03dede8a23d26608054047d6d10d2dc010c9c73b56f49536e0810651364c8d454",
      "networkId": 0,
      "chainId": 0
    }
  ]
}