{
  "hash": "0x3bf3fd3106aeeef437d16f21fc28cd3178b965b5b33e3918da11c47ffba32b3f",
  "parentHash": "0x11f24cd1e84d7e8b86a22a05b5446f7e5ae94dc0fed8da74c569000c01d1346b",
  "number": 75820,
  "timestamp": 1439409745,
  "nonce": "0xee218d4403edcf70",
  "difficulty": 2232052275820,
  "gasLimit": {
    "_hex": "0x2fefd8"
  },
  "gasUsed": {
    "_hex": "0x546c"
  },
  "miner": "0xf927a40C8B7F6E07c5af7FA2155B4864a4112B13",
  "extraData": "0x",
  "transactions": [
    {
      "hash": "0xe70218aece7725951a8610c1bc827e38853cbb1b09a451929fc40c81b8ecbb84",
      "blockHash": "0x3bf3fd3106aeeef437d16f21fc28cd3178b965b5b33e3918da11c47ffba32b3f",
      "blockNumber": 75820,
      "transactionIndex": 0,
      "confirmations": null,
      "from": "0xD3a33636677fFF0BE34EC503b9E848b296E0972A",
      "gasPrice": {
        "_hex": "0x1012169dd13"
      },
      "gasLimit": {
        "_hex": "0x55f0"
      },
      "to": "0x2910543Af39abA0Cd09dBb2D50200b3E800A63D2",
      "value": {
        "_hex": "0x4e1003b28d9280000"
      },
      "nonce": 2,
      "data": "0x454e324e5441315738",
      "r": "0x4585605f039ec7cc77a2a8dc87968a59a94a6fcb57e7a1c19c8e9ae875f2fb7f",
      "s": "0x47144726e7fb94ffc4b9d432cbbf1fc9bea48288b3dda52d23d3fdbbd9d869b7",
      "v": 28,
      "creates": null,
      "raw": "0xf877028601012169dd138255f0942910543af39aba0cd09dbb2d50200b3e800a63d28904e1003b28d928000089454e324e54413157381ca04585605f039ec7cc77a2a8dc87968a59a94a6fcb57e7a1c19c8e9ae875f2fb7fa047144726e7fb94ffc4b9d432cbbf1fc9bea48288b3dda52d23d3fdbbd9d869b7",
      "networkId": 0,
      "chainId": 0
    }
  ]
}