{
  "hash": "0x1e9feca6e94381bda6eabbed084748a2a47200ab396f8f66b278b39f065621ef",
  "parentHash": "0xa5786ad8fc05862272253077359fd5568dbe67cc9fb812f48a7ab4091ec0ab2b",
  "number": 98726,
  "timestamp": 1439778096,
  "nonce": "0x90ae649aa62f4eac",
  "difficulty": 3831129429523,
  "gasLimit": {
    "_hex": "0x2fefd8"
  },
  "gasUsed": {
    "_hex": "0x5208"
  },
  "miner": "0xe6A7a1d47ff21B6321162AEA7C6CB457D5476Bca",
  "extraData": "0x476574682f76312e302e312d38326566323666362f6c696e75782f676f312e34",
  "transactions": [
    {
      "hash": "0x1a67d404b9964da6cf37b06bc7d7ccf382c160c4e9f72fa39fb6687c9103ee64",
      "blockHash": "0x1e9feca6e94381bda6eabbed084748a2a47200ab396f8f66b278b39f065621ef",
      "blockNumber": 98726,
      "transactionIndex": 0,
      "confirmations": null,
      "from": "0xEF247E639d49461D25F57e9362CadE3120910Ce0",
      "gasPrice": {
        "_hex": "0xd70bd1af4"
      },
      "gasLimit": {
        "_hex": "0x15f90"
      },
      "to": "0xF87481A262E993a75F791E7859E71BaC36A606Eb",
      "value": {
        "_hex": "0x8ac7230489e80000"
      },
      "nonce": 35,
      "data": "0x",
      "r": "0x92dcc391c986b8d75e6503ea1b973681c8876cbcedeb49483655bca8de39b68a",
      "s": "0x1eda425d4a2298369db736a99c7f87e93121b650cb9b7813941c25190d2eb7f4",
      "v": 27,
      "creates": null,
      "raw": "0xf86d23850d70bd1af483015f9094f87481a262e993a75f791e7859e71bac36a606eb888ac7230489e80000801ba092dcc391c986b8d75e6503ea1b973681c8876cbcedeb49483655bca8de39b68aa01eda425d4a2298369db736a99c7f87e93121b650cb9b7813941c25190d2eb7f4",
      "networkId": 0,
      "chainId": 0
    }
  ]
}