{
  "hash": "0x8af9793796b10e074f07af4fe64df0cc46847729f160cbb55acda235e933fe72",
  "parentHash": "0xfedeaa07ea259a5386d2ecd3582835639f4e0d908d8f7185984cdac267afa9c4",
  "number": 115649,
  "timestamp": 1440060859,
  "nonce": "0xbe813e4f11f80f6c",
  "difficulty": 4591688191453,
  "gasLimit": {
    "_hex": "0x2fefd8"
  },
  "gasUsed": {
    "_hex": "0x5208"
  },
  "miner": "0xe6A7a1d47ff21B6321162AEA7C6CB457D5476Bca",
  "extraData": "0x476574682f76312e302e312d38326566323666362f6c696e75782f676f312e34",
  "transactions": [
    {
      "hash": "0xf9f749338c974b81a6418e60071c541f3cde183108a9d7951d0391b4e622ad0a",
      "blockHash": "0x8af9793796b10e074f07af4fe64df0cc46847729f160cbb55acda235e933fe72",
      "blockNumber": 115649,
      "transactionIndex": 0,
      "confirmations": null,
      "from": "0x120A270bbC009644e35F0bB6ab13f95b8199c4ad",
      "gasPrice": {
        "_hex": "0xdb9a40999"
      },
      "gasLimit": {
        "_hex": "0x3d090"
      },
      "to": "0x612a19AB7c9B986099e2CD38f06b48Ec08A4B6fe",
      "value": {
        "_hex": "0x56bc75e2d63100000"
      },
      "nonce": 937,
      "data": "0x",
      "r": "0x094d1961b845a7b0257fa49abd3f49013013ac5b8fe678b074eea9968615fd4d",
      "s": "0x4d9d895b56de5fd81dce01f286777dbe102d9edb3a432e88bd24b33d5dbcfbd0",
      "v": 27,
      "creates": null,
      "raw": "0xf8708203a9850db9a409998303d09094612a19ab7c9b986099e2cd38f06b48ec08a4b6fe89056bc75e2d63100000801ba0094d1961b845a7b0257fa49abd3f49013013ac5b8fe678b074eea9968615fd4da04d9d895b56de5fd81dce01f286777dbe102d9edb3a432e88bd24b33d5dbcfbd0",
      "networkId": 0,
      "chainId": 0
    }
  ]
}