{
  "hash": "0xda56cb5039ae10bf209edd7ed0aa40ee35ead67247d701700f19ceabb95efa5e",
  "parentHash": "0x945e9571e2f7c74916ac56a7c0312069e7ddbd388d094fbd3958bbb50f2c1767",
  "number": 46371,
  "timestamp": 1438922078,
  "nonce": "0x92d87d8566dd4e5e",
  "difficulty": 1461094675638,
  "gasLimit": {
    "_hex": "0x5d82"
  },
  "gasUsed": {
    "_hex": "0x5208"
  },
  "miner": "0xe6A7a1d47ff21B6321162AEA7C6CB457D5476Bca",
  "extraData": "0x657468706f6f6c2e6f7267",
  "transactions": [
    {
      "hash": "0xee1da32e879d5fb90ac26683c8240b845904379b0ea9128acbb9c2513513e88a",
      "blockHash": "0xda56cb5039ae10bf209edd7ed0aa40ee35ead67247d701700f19ceabb95efa5e",
      "blockNumber": 46371,
      "transactionIndex": 0,
      "confirmations": null,
      "from": "0xAF880FC7567D5595cACCe15c3FC14C8742C26C9e",
      "gasPrice": {
        "_hex": "0x746a528800"
      },
      "gasLimit": {
        "_hex": "0x5208"
      },
      "to": "0x543807d0aF2c58b49d7F25659D0472d4d8B8e8DA",
      "value": {
        "_hex": "0x1a055690d9db80000"
      },
      "nonce": 2,
      "data": "0x",
      "r": "0x14d7e73ec25de3c3603c12760e25bb0c573a09b1faea16ebab69de3c5e99f88c",
      "s": "0x6a5227f6efca8f8b01849510b4037d693d5af39e648ce394c09ec13d7fdac2a4",
      "v": 27,
      "creates": null,
      "raw": "0xf86d0285746a52880082520894543807d0af2c58b49d7f25659d0472d4d8b8e8da8901a055690d9db80000801ba014d7e73ec25de3c3603c12760e25bb0c573a09b1faea16ebab69de3c5e99f88ca06a5227f6efca8f8b01849510b4037d693d5af39e648ce394c09ec13d7fdac2a4",
      "networkId": 0,
      "chainId": 0
    }
  ]
}