{
  "hash": "0x10451b53068f30b22343f118c7b1fc769ab29a90be95ea96b6b49e9648138d14",
  "parentHash": "0x90c36faa45348abb6c5e50b928bf72a20717769f66ab305c074819b93e870bbb",
  "number": 62021,
  "timestamp": 1439182115,
  "nonce": "0xbe098092fc83960b",
  "difficulty": 1742036264635,
  "gasLimit": {
    "_hex": "0x2fefd8"
  },
  "gasUsed": {
    "_hex": "0x5208"
  },
  "miner": "0xF2d2AfF1320476cb8C6b607199D23175cc595693",
  "extraData": "0x476574682f76312e302e312f77696e646f77732f676f312e342e32",
  "transactions": [
    {
      "hash": "0x9c7302c958394053f794380e5fe6e782f1bcf83cb11032b3c36b1027237c7581",
      "blockHash": "0x10451b53068f30b22343f118c7b1fc769ab29a90be95ea96b6b49e9648138d14",
      "blockNumber": 62021,
      "transactionIndex": 0,
      "confirmations": null,
      "from": "0xb9b3Fb6f39Aa2067ee6E7130601bd8aCB235735A",
      "gasPrice": {
        "_hex": "0xd3d37f23a"
      },
      "gasLimit": {
        "_hex": "0x15f90"
      },
      "to": "0xd50EC384FEdb1033ad98072b30a5315f71cE5Bbb",
      "value": {
        "_hex": "0x2386f26fc10000"
      },
      "nonce": 0,
      "data": "0x",
      "r": "0x3f86668c099e6b50d8b88b05bb911d8ab92d5f1222d64306aa71b3fbde21ba8a",
      "s": "0x56eb15f88eeb48e18fbbd926612dc6dc683342912e953c18923fd1479a9a1412",
      "v": 28,
      "creates": null,
      "raw": "0xf86c80850d3d37f23a83015f9094d50ec384fedb1033ad98072b30a5315f71ce5bbb872386f26fc10000801ca03f86668c099e6b50d8b88b05bb911d8ab92d5f1222d64306aa71b3fbde21ba8aa056eb15f88eeb48e18fbbd926612dc6dc683342912e953c18923fd1479a9a1412",
      "networkId": 0,
      "chainId": 0
    }
  ]
}