{
  "hash": "0x87d5ba6799264d90e795404b05d9b45991903816ffa312627ebcc438df0cf865",
  "parentHash": "0x76f27ed5d1590a7d95e2eaba152b49675a3a7b47b9c452009238ec9e092cb62c",
  "number": 85371,
  "timestamp": 1439562568,
  "nonce": "0x88e93d7a4a64349e",
  "difficulty": 2738332941509,
  "gasLimit": {
    "_hex": "0x2fefd8"
  },
  "gasUsed": {
    "_hex": "0x5208"
  },
  "miner": "0x55bAf64fc9eAccFFd7Cc643BB61142E1C6ac093e",
  "extraData": "0x",
  "transactions": [
    {
      "hash": "0xb55347756030730859213e6ea1715834fa7be396e8fab6db802e5f5538f7f6da",
      "blockHash": "0x87d5ba6799264d90e795404b05d9b45991903816ffa312627ebcc438df0cf865",
      "blockNumber": 85371,
      "transactionIndex": 0,
      "confirmations": null,
      "from": "0xF5EeDc192aB70b08D8354384aD94efD095849E00",
      "gasPrice": {
        "_hex": "0xdb76795f1"
      },
      "gasLimit": {
        "_hex": "0x5208"
      },
      "to": "0x32Be343B94f860124dC4fEe278FDCBD38C102D88",
      "value": {
        "_hex": "0x4e0fbe182b5c4c000"
      },
      "nonce": 42,
      "data": "0x",
      "r": "0x7e09b2e4d85d42278f5b47687f3b81fb7b250ab533e52b26df76fccf5d17f425",
      "s": "0x15f4a81136858126e46835aa04524c6d0ebd30a2fcf489861e0ccc6393eb6328",
      "v": 28,
      "creates": null,
      "raw": "0xf86d2a850db76795f18252089432be343b94f860124dc4fee278fdcbd38c102d888904e0fbe182b5c4c000801ca07e09b2e4d85d42278f5b47687f3b81fb7b250ab533e52b26df76fccf5d17f425a015f4a81136858126e46835aa04524c6d0ebd30a2fcf489861e0ccc6393eb6328",
      "networkId": 0,
      "chainId": 0
    }
  ]
}