{
  "hash": "0x2e96a35ed8104cda6757dbecc6f8b56792f1c5c7129659738aab0d2f5c064d98",
  "parentHash": "0x26401749f5761300a7d5867cc12ebbef673047b420c9c3ef893cfa52514039e3",
  "number": 73276,
  "timestamp": 1439366391,
  "nonce": "0x5cbb114168ab8517",
  "difficulty": 2206717203393,
  "gasLimit": {
    "_hex": "0x2fefd8"
  },
  "gasUsed": {
    "_hex": "0xaa59"
  },
  "miner": "0x9746c7e1ef2bd21FF3997fa467593a89cb852BD0",
  "extraData": "0x476574682f76312e302e312f77696e646f77732f676f312e342e32",
  "transactions": [
    {
      "hash": "0xead22f6d023bec65f0144de5411897a9bf1b5dd85ebfdc35c8ad4d4d9d2611af",
      "blockHash": "0x2e96a35ed8104cda6757dbecc6f8b56792f1c5c7129659738aab0d2f5c064d98",
      "blockNumber": 73276,
      "transactionIndex": 0,
      "confirmations": null,
      "from": "0xD1826373C4E0938f0b4302B40324f7f9c546492C",
      "gasPrice": {
        "_hex": "0xdd71feeab"
      },
      "gasLimit": {
        "_hex": "0x30d40"
      },
      "to": "0x3e4Bd3AEA13f59b9502073b7a03Cfb52ECecc997",
      "value": {
        "_hex": "0x71afd498d0000"
      },
      "nonce": 2,
      "data": "0x",
      "r": "0xf22cc6e5a65ab6d25f7fd9f7fb9809115c932017889a912a13752ff316073fcf",
      "s": "0x5a102bbb5d82bbd60519d3869550a904ee1452a1c760b9375870d1bbae0db13a",
      "v": 27,
      "creates": null,
      "raw": "0xf86c02850dd71feeab83030d40943e4bd3aea13f59b9502073b7a03cfb52ececc99787071afd498d0000801ba0f22cc6e5a65ab6d25f7fd9f7fb9809115c932017889a912a13752ff316073fcfa05a102bbb5d82bbd60519d3869550a904ee1452a1c760b9375870d1bbae0db13a",
      "networkId": 0,
      "chainId": 0
    },
    {
      "hash": "0x534d36b8343611b407d20805e1708422565ef127ff2c797c97a3a2ccacd95507",
      "blockHash": "0x2e96a35ed8104cda6757dbecc6f8b56792f1c5c7129659738aab0d2f5c064d98",
      "blockNumber": 73276,
      "transactionIndex": 1,
      "confirmations": null,
      "from": "0x2910543Af39abA0Cd09dBb2D50200b3E800A63D2",
      "gasPrice": {
        "_hex": "0xcd1554a11"
      },
      "gasLimit": {
        "_hex": "0x5208"
      },
      "to": "0x197D8Ac346334Cf05e98ABd8f8c886Af37F6D274",
      "value": {
        "_hex": "0x6fe2a4d0e21838000"
      },
      "nonce": 283,
      "data": "0x",
      "r": "0xd6fdbec010a11dfc58d56620c7912ed2f35b4f2238c583ec7f21aa8e5dccb9ef",
      "s": "0x418395c3876d48bfbca7cc31d1900203728f15c594f6ade7f6ed1b5f9eda1d4f",
      "v": 27,
      "creates": null,
      "raw": "0xf86f82011b850cd1554a1182520894197d8ac346334cf05e98abd8f8c886af37f6d2748906fe2a4d0e21838000801ba0d6fdbec010a11dfc58d56620c7912ed2f35b4f2238c583ec7f21aa8e5dccb9efa0418395c3876d48bfbca7cc31d1900203728f15c594f6ade7f6ed1b5f9eda1d4f",
      "networkId": 0,
      "chainId": 0
    }
  ]
}