{
  "hash": "0x1ecc2165880a040799e43c26fd9aab37dc938b85e4e9fc82d86f6e3c8f760d44",
  "parentHash": "0xf1d9c166ff336c6de66b52b2f622c5de7084aed02570d50733064a6241fd1c16",
  "number": 47670,
  "timestamp": 1438944487,
  "nonce": "0x12a2b64d8bdacd04",
  "difficulty": 1448792278243,
  "gasLimit": {
    "_hex": "0xe0c2"
  },
  "gasUsed": {
    "_hex": "0xa674"
  },
  "miner": "0x580992B51e3925e23280EfB93d3047C82f17E038",
  "extraData": "0x476574682f76312e302e312f6c696e75782f676f312e342e32",
  "transactions": [
    {
      "hash": "0xbd4ede1f68a3b9fb5876b680a9c671ed3c6fa1dbab6583931bdaadfbb2612629",
      "blockHash": "0x1ecc2165880a040799e43c26fd9aab37dc938b85e4e9fc82d86f6e3c8f760d44",
      "blockNumber": 47670,
      "transactionIndex": 0,
      "confirmations": null,
      "from": "0xe6A7a1d47ff21B6321162AEA7C6CB457D5476Bca",
      "gasPrice": {
        "_hex": "0xdc4947f24"
      },
      "gasLimit": {
        "_hex": "0x55f0"
      },
      "to": "0xa261512125c57b597c5B0F9FA51Fdbe85cE65e37",
      "value": {
        "_hex": "0x3ff11d94e436eff8"
      },
      "nonce": 191,
      "data": "0x",
      "r": "0x8d9c4f2b9fbb19bcb3cf563a41151c7b7822785c1e59b0abe818209188060403",
      "s": "0x5d484742591f56e0ca4abee5fc5435005b895684f581e9ddab7df0c22c0ff237",
      "v": 27,
      "creates": null,
      "raw": "0xf86d81bf850dc4947f248255f094a261512125c57b597c5b0f9fa51fdbe85ce65e37883ff11d94e436eff8801ba08d9c4f2b9fbb19bcb3cf563a41151c7b7822785c1e59b0abe818209188060403a05d484742591f56e0ca4abee5fc5435005b895684f581e9ddab7df0c22c0ff237",
      "networkId": 0,
      "chainId": 0
    },
    {
      "hash": "0x5ae32514fd78b3135a562d1dbacdb54c9fba882546636ee9570eb2481350fb9b",
      "blockHash": "0x1ecc2165880a040799e43c26fd9aab37dc938b85e4e9fc82d86f6e3c8f760d44",
      "blockNumber": 47670,
      "transactionIndex": 1,
      "confirmations": null,
      "from": "0xC8b1850525D946F2Ae84f317B15188c536a5dC86",
      "gasPrice": {
        "_hex": "0xd3e408d1e"
      },
      "gasLimit": {
        "_hex": "0x7530"
      },
      "to": "0x2910543Af39abA0Cd09dBb2D50200b3E800A63D2",
      "value": {
        "_hex": "0x4563918244f40000"
      },
      "nonce": 0,
      "data": "0x454e424e4a544e5152",
      "r": "0x63383a8abb68107c6806b0ca6db0972df17a2c139bb34444adbcd53d5b1b9590",
      "s": "0x2c7650b23f309cba5350c758096fa857ba55199d3699d193187928c70cdc1638",
      "v": 27,
      "creates": null,
      "raw": "0xf87580850d3e408d1e827530942910543af39aba0cd09dbb2d50200b3e800a63d2884563918244f4000089454e424e4a544e51521ba063383a8abb68107c6806b0ca6db0972df17a2c139bb34444adbcd53d5b1b9590a02c7650b23f309cba5350c758096fa857ba55199d3699d193187928c70cdc1638",
      "networkId": 0,
      "chainId": 0
    }
  ]
}