{
  "hash": "0xfcaa04f7e22c44e145d4d7ba6dcf9ebebc869dded9cbf5574d5ca42b46a76fa1",
  "parentHash": "0x945df23cff3f066dd3e55c210dece6786304e8b8ca5e10435fc4397b8f8d5615",
  "number": 107683,
  "timestamp": 1439926848,
  "nonce": "0x8f97aade8b7b494a",
  "difficulty": 4381301424678,
  "gasLimit": {
    "_hex": "0x2fefd8"
  },
  "gasUsed": {
    "_hex": "0x5208"
  },
  "miner": "0xC603Ab5ef41fC61AA8b76bEddb09e3Cfcbb174BD",
  "extraData": "0x476574682f76312e302e312f77696e646f77732f676f312e342e32",
  "transactions": [
    {
      "hash": "0x29c5c07c7e68995807686b917a94e3adb56b942956319cac18636223b4299c91",
      "blockHash": "0xfcaa04f7e22c44e145d4d7ba6dcf9ebebc869dded9cbf5574d5ca42b46a76fa1",
      "blockNumber": 107683,
      "transactionIndex": 0,
      "confirmations": null,
      "from": "0xa70a9a7040d542C632D8e0bE7c5513A8a5Bbc752",
      "gasPrice": {
        "_hex": "0xd29d7ea8b"
      },
      "gasLimit": {
        "_hex": "0x5208"
      },
      "to": "0x32Be343B94f860124dC4fEe278FDCBD38C102D88",
      "value": {
        "_hex": "0x8cee07bfc5756000"
      },
      "nonce": 257,
      "data": "0x",
      "r": "0x95c29349053381227e0354bef5aac3906d8ed4e553852a073c6d3993520dcbea",
      "s": "0x237dff44e3150fad7fe6abe5f7d6a66bd6ddfd67df5dfebfa0baac1f8d3ac07d",
      "v": 27,
      "creates": null,
      "raw": "0xf86e820101850d29d7ea8b8252089432be343b94f860124dc4fee278fdcbd38c102d88888cee07bfc5756000801ba095c29349053381227e0354bef5aac3906d8ed4e553852a073c6d3993520dcbeaa0237dff44e3150fad7fe6abe5f7d6a66bd6ddfd67df5dfebfa0baac1f8d3ac07d",
      "networkId": 0,
      "chainId": 0
    }
  ]
}