{
  "hash": "0x1c052d1f2a2876c09d16e7b76c31097a018e5d559e89e1192fcf78a6cb439844",
  "parentHash": "0x9e8730aabbe6e1c2c8b3e7e0dbcbde2ee6ab3445b35d20211b18e2d010e975c1",
  "number": 64983,
  "timestamp": 1439229447,
  "nonce": "0x0119ce28b293bb67",
  "difficulty": 1912577111174,
  "gasLimit": {
    "_hex": "0x2fefd8"
  },
  "gasUsed": {
    "_hex": "0xa410"
  },
  "miner": "0x157c6f2431eB1a95797EE86F7d17b3c0FD47A247",
  "extraData": "0x476574682f76312e302e312f77696e646f77732f676f312e342e32",
  "transactions": [
    {
      "hash": "0xd15f2702102e9ece833686faefe865dad73abb7798c3d3f2a61204d6a8ff6651",
      "blockHash": "0x1c052d1f2a2876c09d16e7b76c31097a018e5d559e89e1192fcf78a6cb439844",
      "blockNumber": 64983,
      "transactionIndex": 0,
      "confirmations": null,
      "from": "0x99B403fACa38461FC2E69f24e935654958287B06",
      "gasPrice": {
        "_hex": "0xba43b7400"
      },
      "gasLimit": {
        "_hex": "0x5208"
      },
      "to": "0xd5F1282Ac81119947Fa8a0E20833fF45165Ae8C2",
      "value": {
        "_hex": "0x1ee8b7b42062000"
      },
      "nonce": 1,
      "data": "0x",
      "r": "0xe060e173c7cf337cb508c6314a8e485a4df64acc422d6649c22577369d2bae65",
      "s": "0x1ade969e90f53d759bd8724b97a544ad78bf87de822e3180e3016b16485d23d9",
      "v": 27,
      "creates": null,
      "raw": "0xf86c01850ba43b740082520894d5f1282ac81119947fa8a0e20833ff45165ae8c28801ee8b7b42062000801ba0e060e173c7cf337cb508c6314a8e485a4df64acc422d6649c22577369d2bae65a01ade969e90f53d759bd8724b97a544ad78bf87de822e3180e3016b16485d23d9",
      "networkId": 0,
      "chainId": 0
    },
    {
      "hash": "0xb71a1cc02fab1df750929e583cbcdb97c10879d97fefb57b89e0234299abace3",
      "blockHash": "0x1c052d1f2a2876c09d16e7b76c31097a018e5d559e89e1192fcf78a6cb439844",
      "blockNumber": 64983,
      "transactionIndex": 1,
      "confirmations": null,
      "from": "0xAeA19377dE256B89aBad1080340d280d7608Cedb",
      "gasPrice": {
        "_hex": "0xba43b7400"
      },
      "gasLimit": {
        "_hex": "0x5208"
      },
      "to": "0xb31a3B3d607B972e8DC8bd1c1F890C52047DcE05",
      "value": {
        "_hex": "0x24b182ea847e000"
      },
      "nonce": 1,
      "data": "0x",
      "r": "0xc162681f6e69449ce51374770cd8049e06acd7177b2f4876b48078e79196a0c4",
      "s": "0x36a49e483645654bc06e4fa38b3ceb92b5336defb23cb35bf7f44b453e1262e6",
      "v": 28,
      "creates": null,
      "raw": "0xf86c01850ba43b740082520894b31a3b3d607b972e8dc8bd1c1f890c52047dce0588024b182ea847e000801ca0c162681f6e69449ce51374770cd8049e06acd7177b2f4876b48078e79196a0c4a036a49e483645654bc06e4fa38b3ceb92b5336defb23cb35bf7f44b453e1262e6",
      "networkId": 0,
      "chainId": 0
    }
  ]
}