{
  "hash": "0xdadf54b448c1a99f8d8ed4ba3c20884b0035d5a5acc4e8442a8a928367a6842c",
  "parentHash": "0x1d873bc2ac852e9f1749e3d1d3b9a797ca0956055d057995b34c25e0894f382b",
  "number": 59168,
  "timestamp": 1439133271,
  "nonce": "0x746a3f640ab7dabe",
  "difficulty": 1706421870390,
  "gasLimit": {
    "_hex": "0x2fefd8"
  },
  "gasUsed": {
    "_hex": "0xa410"
  },
  "miner": "0xbb7B8287f3F0a933474a79eAe42CBCa977791171",
  "extraData": "0x476574682f4c5649562f76312e302e312f6c696e75782f676f312e342e32",
  "transactions": [
    {
      "hash": "0x1f228bc6fe9752ed9d86fc60e477b10df32c1f46437f1060dc62f1fbe9ff95de",
      "blockHash": "0xdadf54b448c1a99f8d8ed4ba3c20884b0035d5a5acc4e8442a8a928367a6842c",
      "blockNumber": 59168,
      "transactionIndex": 0,
      "confirmations": null,
      "from": "0xDeDbaA6D17975d4edc31195983F9AFaB1529CD47",
      "gasPrice": {
        "_hex": "0xd0dadebfe"
      },
      "gasLimit": {
        "_hex": "0x5208"
      },
      "to": "0x32Be343B94f860124dC4fEe278FDCBD38C102D88",
      "value": {
        "_hex": "0x4485426c266a04000"
      },
      "nonce": 2,
      "data": "0x",
      "r": "0x9b1a37868f71605c8ad74ab21320dabb047cf17d2ed240edf19de824b5f6e4bc",
      "s": "0x0175cb497501cc94d347a18b9c2fbc76335006a0b941478007612109f4f866f0",
      "v": 28,
      "creates": null,
      "raw": "0xf86d02850d0dadebfe8252089432be343b94f860124dc4fee278fdcbd38c102d888904485426c266a04000801ca09b1a37868f71605c8ad74ab21320dabb047cf17d2ed240edf19de824b5f6e4bca00175cb497501cc94d347a18b9c2fbc76335006a0b941478007612109f4f866f0",
      "networkId": 0,
      "chainId": 0
    },
    {
      "hash": "0xf5c8a5d13b939ccbebfd12b2ae11664e0a21c65d7b11bde0b360bcde20b7ee7f",
      "blockHash": "0xdadf54b448c1a99f8d8ed4ba3c20884b0035d5a5acc4e8442a8a928367a6842c",
      "blockNumber": 59168,
      "transactionIndex": 1,
      "confirmations": null,
      "from": "0x9Fd0F678538d8c5b8b2D6cD6feFd48f27218965C",
      "gasPrice": {
        "_hex": "0xd0dadebfe"
      },
      "gasLimit": {
        "_hex": "0x5208"
      },
      "to": "0x32Be343B94f860124dC4fEe278FDCBD38C102D88",
      "value": {
        "_hex": "0x26277b1232ce84000"
      },
      "nonce": 0,
      "data": "0x",
      "r": "0x2c935590f0f9047b68f75b3787cc80f75a139ffd55b07dc59dbb772a2e974199",
      "s": "0x61cdab1932c6c1bfc4512aa13dda2cc58620ac024101970ae742425af4b1ba4e",
      "v": 27,
      "creates": null,
      "raw": "0xf86d80850d0dadebfe8252089432be343b94f860124dc4fee278fdcbd38c102d8889026277b1232ce84000801ba02c935590f0f9047b68f75b3787cc80f75a139ffd55b07dc59dbb772a2e974199a061cdab1932c6c1bfc4512aa13dda2cc58620ac024101970ae742425af4b1ba4e",
      "networkId": 0,
      "chainId": 0
    }
  ]
}