{
  "hash": "0xb38518f96fc2d3a15df24d635041a02450c9e33cb407f4f9c645f2966fa9f093",
  "parentHash": "0x5b01a4e7bbeb56d6ec43610db88b82a40a13fbe63fbcfe0ced87fb272e2bfbee",
  "number": 108407,
  "timestamp": 1439939921,
  "nonce": "0xe69fa2ba823400f3",
  "difficulty": 4317217350899,
  "gasLimit": {
    "_hex": "0x2fefd8"
  },
  "gasUsed": {
    "_hex": "0x19a28"
  },
  "miner": "0xe6A7a1d47ff21B6321162AEA7C6CB457D5476Bca",
  "extraData": "0x476574682f76312e302e312d38326566323666362f6c696e75782f676f312e34",
  "transactions": [
    {
      "hash": "0x54ffb5754b4c327d105fed67b6d541f9a9d7d9f65d964eedb3ea4c5f929b632b",
      "blockHash": "0xb38518f96fc2d3a15df24d635041a02450c9e33cb407f4f9c645f2966fa9f093",
      "blockNumber": 108407,
      "transactionIndex": 0,
      "confirmations": null,
      "from": "0xa70a9a7040d542C632D8e0bE7c5513A8a5Bbc752",
      "gasPrice": {
        "_hex": "0xdb8de3d54"
      },
      "gasLimit": {
        "_hex": "0x5208"
      },
      "to": "0x32Be343B94f860124dC4fEe278FDCBD38C102D88",
      "value": {
        "_hex": "0x478a3cec83caac00"
      },
      "nonce": 264,
      "data": "0x",
      "r": "0x6a681cd1387341a226eed429392040e6113b06e409e6338550a888f7d61746c3",
      "s": "0x4bcefaa7029aedaf1249ae397f0ccbee80d6f0b28497c57b09ec37d5cb899ac1",
      "v": 27,
      "creates": null,
      "raw": "0xf86e820108850db8de3d548252089432be343b94f860124dc4fee278fdcbd38c102d8888478a3cec83caac00801ba06a681cd1387341a226eed429392040e6113b06e409e6338550a888f7d61746c3a04bcefaa7029aedaf1249ae397f0ccbee80d6f0b28497c57b09ec37d5cb899ac1",
      "networkId": 0,
      "chainId": 0
    },
    {
      "hash": "0xc39eaa3cfc7ee03f5b1b85e3574152b121d5b631d5a0ca82dd0e776a82498943",
      "blockHash": "0xb38518f96fc2d3a15df24d635041a02450c9e33cb407f4f9c645f2966fa9f093",
      "blockNumber": 108407,
      "transactionIndex": 1,
      "confirmations": null,
      "from": "0xdeE4977F74E6Aef6D627191c9A45D2627e331150",
      "gasPrice": {
        "_hex": "0xdb8de3d54"
      },
      "gasLimit": {
        "_hex": "0x5208"
      },
      "to": "0x32Be343B94f860124dC4fEe278FDCBD38C102D88",
      "value": {
        "_hex": "0xd0264ee3f640d000"
      },
      "nonce": 21,
      "data": "0x",
      "r": "0xe3e6c51896cc8741978a6d29a1357455b5f73ac95f17acc5ca52f18e30189679",
      "s": "0x6fc306aaeba1f3302cf8102bb25900d48556db2cf57d15f032dc3f7d04dfdb90",
      "v": 28,
      "creates": null,
      "raw": "0xf86c15850db8de3d548252089432be343b94f860124dc4fee278fdcbd38c102d8888d0264ee3f640d000801ca0e3e6c51896cc8741978a6d29a1357455b5f73ac95f17acc5ca52f18e30189679a06fc306aaeba1f3302cf8102bb25900d48556db2cf57d15f032dc3f7d04dfdb90",
      "networkId": 0,
      "chainId": 0
    },
    {
      "hash": "0x53c3e60530e5995d35c16b0e202c35ca7ab864f6fbbb55352c6ad44217b9415c",
      "blockHash": "0xb38518f96fc2d3a15df24d635041a02450c9e33cb407f4f9c645f2966fa9f093",
      "blockNumber": 108407,
      "transactionIndex": 2,
      "confirmations": null,
      "from": "0x0D4EcC7d750180EBf4A9Df728B6669B5Bceb5E40",
      "gasPrice": {
        "_hex": "0xdb8de3d54"
      },
      "gasLimit": {
        "_hex": "0x5208"
      },
      "to": "0x32Be343B94f860124dC4fEe278FDCBD38C102D88",
      "value": {
        "_hex": "0x3406477c870fe800"
      },
      "nonce": 91,
      "data": "0x",
      "r": "0x1b37628755332e41cea460523b0851789a773b55400d70f4b0c1551856e107b7",
      "s": "0x6a2a469ae5fcffa3f96fbd090d3ddb232e611992de9f51d436e94fa131f09ecc",
      "v": 27,
      "creates": null,
      "raw": "0xf86c5b850db8de3d548252089432be343b94f860124dc4fee278fdcbd38c102d88883406477c870fe800801ba01b37628755332e41cea460523b0851789a773b55400d70f4b0c1551856e107b7a06a2a469ae5fcffa3f96fbd090d3ddb232e611992de9f51d436e94fa131f09ecc",
      "networkId": 0,
      "chainId": 0
    },
    {
      "hash": "0xdfbac65dc55bfd93d241f9c0004ca4024b4ce3980848b4e30154fadff7b2ebff",
      "blockHash": "0xb38518f96fc2d3a15df24d635041a02450c9e33cb407f4f9c645f2966fa9f093",
      "blockNumber": 108407,
      "transactionIndex": 3,
      "confirmations": null,
      "from": "0xFBb1b73C4f0BDa4f67dcA266ce6Ef42f520fBB98",
      "gasPrice": {
        "_hex": "0xd6df27a8e"
      },
      "gasLimit": {
        "_hex": "0x5208"
      },
      "to": "0xe5C985e12Ca5C7d6b68052968d40312c875d4637",
      "value": {
        "_hex": "0x4eb453c1321000"
      },
      "nonce": 211,
      "data": "0x",
      "r": "0x487610d64de5299af95aa8298ae88474327cec60d727afcebf2a57665268c7c9",
      "s": "0x2605231cbfb5e5780b6bd704333f73e80c0e53b521604aff78a473cd8c3b58ea",
      "v": 27,
      "creates": null,
      "raw": "0xf86c81d3850d6df27a8e82520894e5c985e12ca5c7d6b68052968d40312c875d4637874eb453c1321000801ba0487610d64de5299af95aa8298ae88474327cec60d727afcebf2a57665268c7c9a02605231cbfb5e5780b6bd704333f73e80c0e53b521604aff78a473cd8c3b58ea",
      "networkId": 0,
      "chainId": 0
    },
    {
      "hash": "0xa6339b7a9dc8c610e44df4459787f2c93e245eb131c1b9bb42f3056522789d21",
      "blockHash": "0xb38518f96fc2d3a15df24d635041a02450c9e33cb407f4f9c645f2966fa9f093",
      "blockNumber": 108407,
      "transactionIndex": 4,
      "confirmations": null,
      "from": "0xf057b019703A4cce4850A018131D8ED6369F6EFC",
      "gasPrice": {
        "_hex": "0xd217274dc"
      },
      "gasLimit": {
        "_hex": "0x15f90"
      },
      "to": "0x89138EC84Ff16104964e3B2f9b895dc194Bd0F96",
      "value": {
        "_hex": "0x38d7ea4c68000"
      },
      "nonce": 2,
      "data": "0x",
      "r": "0xaec0e9d98e797fdce3feaebd1d656f5d18d44ea51be492e51572e73247269a7d",
      "s": "0x4a5c5874594fea403d4ce6ad7b66ce609fcba8685ae82d2a3a9eb97d443e437d",
      "v": 28,
      "creates": null,
      "raw": "0xf86c02850d217274dc83015f909489138ec84ff16104964e3b2f9b895dc194bd0f9687038d7ea4c68000801ca0aec0e9d98e797fdce3feaebd1d656f5d18d44ea51be492e51572e73247269a7da04a5c5874594fea403d4ce6ad7b66ce609fcba8685ae82d2a3a9eb97d443e437d",
      "networkId": 0,
      "chainId": 0
    }
  ]
}