{
  "hash": "0xff1e985b8b7ae848162cc2aeecfadd3f546fbc384bf4a0a252def83aa4c7b767",
  "parentHash": "0x075c9b700c8289989c6bf71a5964e5e645d6078328272d9f1b929da6d83e4ef2",
  "number": 75218,
  "timestamp": 1439399732,
  "nonce": "0xb1e263cdb1d04aa3",
  "difficulty": 2193317204190,
  "gasLimit": {
    "_hex": "0x2fefd8"
  },
  "gasUsed": {
    "_hex": "0xa410"
  },
  "miner": "0xF78645Ea06d743C6B52a11EB3f3d486bbb4Cf01F",
  "extraData": "0x",
  "transactions": [
    {
      "hash": "0x29a290fcd4c31ac979f74d17dcee4158e0894c29e9443ba330d787be02f1390b",
      "blockHash": "0xff1e985b8b7ae848162cc2aeecfadd3f546fbc384bf4a0a252def83aa4c7b767",
      "blockNumber": 75218,
      "transactionIndex": 0,
      "confirmations": null,
      "from": "0x6A8CC233E14F874983bB2F37D1DE706f6910Ef0b",
      "gasPrice": {
        "_hex": "0xd93456741"
      },
      "gasLimit": {
        "_hex": "0x5208"
      },
      "to": "0x32Be343B94f860124dC4fEe278FDCBD38C102D88",
      "value": {
        "_hex": "0x5187ebc5f4b9c0000"
      },
      "nonce": 4,
      "data": "0x",
      "r": "0x5f75e40c187ed76343e4412817d329ad18ecc01cce29b59aaf0f049a2f712822",
      "s": "0x28ce1382fbe579e77b828f2e428046d76972407ceed4c4101ea51955230501ef",
      "v": 28,
      "creates": null,
      "raw": "0xf86d04850d934567418252089432be343b94f860124dc4fee278fdcbd38c102d888905187ebc5f4b9c0000801ca05f75e40c187ed76343e4412817d329ad18ecc01cce29b59aaf0f049a2f712822a028ce1382fbe579e77b828f2e428046d76972407ceed4c4101ea51955230501ef",
      "networkId": 0,
      "chainId": 0
    },
    {
      "hash": "0x2c390fd20c36ea987b0ea36c97e9bc3c0d00e6d56b58d49f35b068179dc62b4f",
      "blockHash": "0xff1e985b8b7ae848162cc2aeecfadd3f546fbc384bf4a0a252def83aa4c7b767",
      "blockNumber": 75218,
      "transactionIndex": 1,
      "confirmations": null,
      "from": "0xDA4E0Ba268486216E0B3Ad5ccEAa1E7EdB1C2751",
      "gasPrice": {
        "_hex": "0xd93456741"
      },
      "gasLimit": {
        "_hex": "0x5208"
      },
      "to": "0x32Be343B94f860124dC4fEe278FDCBD38C102D88",
      "value": {
        "_hex": "0xd02665a0ba5f6000"
      },
      "nonce": 3,
      "data": "0x",
      "r": "0x9e7457278312b8deed3b05e905d7c32d1d145d5c34f7b0b09b83d5e7d25f3b5f",
      "s": "0x76d203585482e24b5b8bb9ab7d90450b040b48ca763dede41f7860c06c0db04b",
      "v": 27,
      "creates": null,
      "raw": "0xf86c03850d934567418252089432be343b94f860124dc4fee278fdcbd38c102d8888d02665a0ba5f6000801ba09e7457278312b8deed3b05e905d7c32d1d145d5c34f7b0b09b83d5e7d25f3b5fa076d203585482e24b5b8bb9ab7d90450b040b48ca763dede41f7860c06c0db04b",
      "networkId": 0,
      "chainId": 0
    }
  ]
}