{
  "hash": "0xef6f0629a9547f6726de7353f1b38ac6173544060b86f32a113c8ca405184ec8",
  "parentHash": "0x88e9b495b4fe63eec522ee651dbe3fae8bba8f5ec9444eb2dcb0bf72cd4f71bb",
  "number": 112442,
  "timestamp": 1440007549,
  "nonce": "0xafb87ec73ce8e968",
  "difficulty": 4415315418648,
  "gasLimit": {
    "_hex": "0x2fefd8"
  },
  "gasUsed": {
    "_hex": "0x5208"
  },
  "miner": "0x7E6930B63D03e88F5928C5cd6ee3FCee4D714F7F",
  "extraData": "0x",
  "transactions": [
    {
      "hash": "0xb1a5bd3bc6c629c3bf6eea20915338868223b6a23dca0b1bf4e63faac23cde54",
      "blockHash": "0xef6f0629a9547f6726de7353f1b38ac6173544060b86f32a113c8ca405184ec8",
      "blockNumber": 112442,
      "transactionIndex": 0,
      "confirmations": null,
      "from": "0x2660299c07076aEB9cEF872a41EAF75E4C16020D",
      "gasPrice": {
        "_hex": "0xd6c0d3a21"
      },
      "gasLimit": {
        "_hex": "0x15f90"
      },
      "to": "0x23ac86f02C0e12C822b2c991b4602fbd79EAB8Ed",
      "value": {
        "_hex": "0x7c34c994b3bf0000"
      },
      "nonce": 5,
      "data": "0x",
      "r": "0x1c3f28054a9bcb74b74daea75c730cf0d9ee802ad208e55cb9a04f774cb64bbc",
      "s": "0x0fd00a1725815b6e9a786658ae739065437e44e8705c0d912825d38e0c0b707b",
      "v": 27,
      "creates": null,
      "raw": "0xf86d05850d6c0d3a2183015f909423ac86f02c0e12c822b2c991b4602fbd79eab8ed887c34c994b3bf0000801ba01c3f28054a9bcb74b74daea75c730cf0d9ee802ad208e55cb9a04f774cb64bbca00fd00a1725815b6e9a786658ae739065437e44e8705c0d912825d38e0c0b707b",
      "networkId": 0,
      "chainId": 0
    }
  ]
}