{
  "hash": "0xfa6c9a804a93a4e23154cccbb72ac22d2e86ab81a059ec970cc46dcf1e0a1929",
  "parentHash": "0x9d76c1e0454549caab916c186dc0ca41bd52f968b861c24fb9365e06d09d2320",
  "number": 78359,
  "timestamp": 1439452597,
  "nonce": "0x2698c3e601c05c79",
  "difficulty": 2274276007128,
  "gasLimit": {
    "_hex": "0x2fefd8"
  },
  "gasUsed": {
    "_hex": "0x546c"
  },
  "miner": "0x88D74a59454F6cF3B51ef6b9136AFb6b9D405A88",
  "extraData": "0x476574682f76312e302e312d38326566323666362f6c696e75782f676f312e34",
  "transactions": [
    {
      "hash": "0x9fc4cfe3d0c351631203ebb9cce36961a1c2ce4aa12f93308ff892d664f2f1e7",
      "blockHash": "0xfa6c9a804a93a4e23154cccbb72ac22d2e86ab81a059ec970cc46dcf1e0a1929",
      "blockNumber": 78359,
      "transactionIndex": 0,
      "confirmations": null,
      "from": "0x0E0d6633db1e0c7f234A6Df163a10e0aB39C200f",
      "gasPrice": {
        "_hex": "0x116fa7c62ce"
      },
      "gasLimit": {
        "_hex": "0x55f0"
      },
      "to": "0x2910543Af39abA0Cd09dBb2D50200b3E800A63D2",
      "value": {
        "_hex": "0x55005f0c614480000"
      },
      "nonce": 1,
      "data": "0x454e44485642394352",
      "r": "0x7dac927c901b32f3433ede122ab6389e16f6dd1cce2f712c36a57cc0fcbb46cd",
      "s": "0x68b577b691094741e639bad4e13cfea33a423bbf81bae76c22b3b20fda220992",
      "v": 28,
      "creates": null,
      "raw": "0xf87701860116fa7c62ce8255f0942910543af39aba0cd09dbb2d50200b3e800a63d289055005f0c61448000089454e444856423943521ca07dac927c901b32f3433ede122ab6389e16f6dd1cce2f712c36a57cc0fcbb46cda068b577b691094741e639bad4e13cfea33a423bbf81bae76c22b3b20fda220992",
      "networkId": 0,
      "chainId": 0
    }
  ]
}