{
  "hash": "0xa4b9e1b62e0139cef20f85dba6b8dce55218facf608253a4c79da901392c25dd",
  "parentHash": "0x7f6d80203a32b0e32989d27e93862150e27e07322aaec89c8c499fe916f3cf1f",
  "number": 71327,
  "timestamp": 1439334248,
  "nonce": "0xa038659de44aa0b6",
  "difficulty": 2169829247549,
  "gasLimit": {
    "_hex": "0x2fefd8"
  },
  "gasUsed": {
    "_hex": "0x1007b"
  },
  "miner": "0x88D74a59454F6cF3B51ef6b9136AFb6b9D405A88",
  "extraData": "0x476574682f76312e302e312d37666266393930632f6c696e75782f676f312e34",
  "transactions": [
    {
      "hash": "0xbc5fdcbdbc246cf9a5fe1235816ebce96d8dffb68bf9c4c0284d7b57467b1a1e",
      "blockHash": "0xa4b9e1b62e0139cef20f85dba6b8dce55218facf608253a4c79da901392c25dd",
      "blockNumber": 71327,
      "transactionIndex": 0,
      "confirmations": null,
      "from": "0x17580B766f7453525ca4C6A88b01b50570EA088C",
      "gasPrice": {
        "_hex": "0xd77f32b93"
      },
      "gasLimit": {
        "_hex": "0x61a80"
      },
      "to": "0x5Fe5B7546D1628f7348B023A0393de1FC825A4fD",
      "value": {
        "_hex": "0x3782dace9d900000"
      },
      "nonce": 152,
      "data": "0xb595b8b50000000000000000000000000000000000000000000000000000000000000000",
      "r": "0xbd6d21dee2a326c6c9b7a939a2ed661f9a7d50dc9161ea5686f4fbb5e35a308d",
      "s": "0x29e614850e3396b7b894121e03ec4c24e2f7a01e5b1d9795ed7c3d64a7f47467",
      "v": 28,
      "creates": null,
      "raw": "0xf8928198850d77f32b9383061a80945fe5b7546d1628f7348b023a0393de1fc825a4fd883782dace9d900000a4b595b8b500000000000000000000000000000000000000000000000000000000000000001ca0bd6d21dee2a326c6c9b7a939a2ed661f9a7d50dc9161ea5686f4fbb5e35a308da029e614850e3396b7b894121e03ec4c24e2f7a01e5b1d9795ed7c3d64a7f47467",
      "networkId": 0,
      "chainId": 0
    },
    {
      "hash": "0x07f636cb8d2bd22e6710faef5b02a239d31c17de2c17ec550718b8c848c73e0e",
      "blockHash": "0xa4b9e1b62e0139cef20f85dba6b8dce55218facf608253a4c79da901392c25dd",
      "blockNumber": 71327,
      "transactionIndex": 1,
      "confirmations": null,
      "from": "0x32Be343B94f860124dC4fEe278FDCBD38C102D88",
      "gasPrice": {
        "_hex": "0xcb7605589"
      },
      "gasLimit": {
        "_hex": "0x5208"
      },
      "to": "0x2910543Af39abA0Cd09dBb2D50200b3E800A63D2",
      "value": {
        "_hex": "0x375f53dc2dcf0000"
      },
      "nonce": 269,
      "data": "0x",
      "r": "0x663cff72aeac992be05b9d58fcc7fd0854226bd9854244edc477600af263969e",
      "s": "0x6d9439b2cfce2c30f0096c210633a95e49bef9be8cff59a25ad53dd64d8f5290",
      "v": 28,
      "creates": null,
      "raw": "0xf86e82010d850cb7605589825208942910543af39aba0cd09dbb2d50200b3e800a63d288375f53dc2dcf0000801ca0663cff72aeac992be05b9d58fcc7fd0854226bd9854244edc477600af263969ea06d9439b2cfce2c30f0096c210633a95e49bef9be8cff59a25ad53dd64d8f5290",
      "networkId": 0,
      "chainId": 0
    }
  ]
}