{
  "hash": "0x78843966ff9a79a710aea0a809d052bf17480820e61c48181a58923e1a81b40c",
  "parentHash": "0x9ee5cf5702305999f132131906e97da10e1986c6c7a0c8086bca6cd0186da296",
  "number": 65558,
  "timestamp": 1439239110,
  "nonce": "0x166951638f767902",
  "difficulty": 1945410298518,
  "gasLimit": {
    "_hex": "0x2fefd8"
  },
  "gasUsed": {
    "_hex": "0x6f2d"
  },
  "miner": "0x157c6f2431eB1a95797EE86F7d17b3c0FD47A247",
  "extraData": "0x476574682f76312e302e312f77696e646f77732f676f312e342e32",
  "transactions": [
    {
      "hash": "0xfa658659285f1bfa3a259f1158ab985c48b212ee4a9588dcbb11a8c4fae0c49f",
      "blockHash": "0x78843966ff9a79a710aea0a809d052bf17480820e61c48181a58923e1a81b40c",
      "blockNumber": 65558,
      "transactionIndex": 0,
      "confirmations": null,
      "from": "0x976349705b839e2F5719387Fb27D2519d519da03",
      "gasPrice": {
        "_hex": "0xda40f4a35"
      },
      "gasLimit": {
        "_hex": "0x15f90"
      },
      "to": "0x125B606C67E8066Da65069652b656c19717745Fa",
      "value": {
        "_hex": "0x133d275819a559e"
      },
      "nonce": 1,
      "data": "0xa55526db",
      "r": "0xcac754f5e85cd3fc24986c2d562b77a528ecec5bd97412b6535ecfaa9abcd693",
      "s": "0x23712df42adc6a6d042fb4ef178f021ca1b3a841bc65b11b32cb6f41e2b4e942",
      "v": 27,
      "creates": null,
      "raw": "0xf87101850da40f4a3583015f9094125b606c67e8066da65069652b656c19717745fa880133d275819a559e84a55526db1ba0cac754f5e85cd3fc24986c2d562b77a528ecec5bd97412b6535ecfaa9abcd693a023712df42adc6a6d042fb4ef178f021ca1b3a841bc65b11b32cb6f41e2b4e942",
      "networkId": 0,
      "chainId": 0
    }
  ]
}