{
  "hash": "0x9c73b8e71caeb85161c0f1e2897773411d0d4e1f04915c9bb727563197bb7bff",
  "parentHash": "0x141716d328687e69967d4c5c754a6fdd29e7b5fe6e280758f0a5a3806a94d069",
  "number": 109025,
  "timestamp": 1439949930,
  "nonce": "0x046c1bfb0ef95973",
  "difficulty": 4406343493578,
  "gasLimit": {
    "_hex": "0x2fefd8"
  },
  "gasUsed": {
    "_hex": "0xf618"
  },
  "miner": "0xe6A7a1d47ff21B6321162AEA7C6CB457D5476Bca",
  "extraData": "0x476574682f76312e302e312d38326566323666362f6c696e75782f676f312e34",
  "transactions": [
    {
      "hash": "0x64abdbb88cee9b4b8cc451970fbe237db5b7157533b2bfdec7a47c1d41dfad71",
      "blockHash": "0x9c73b8e71caeb85161c0f1e2897773411d0d4e1f04915c9bb727563197bb7bff",
      "blockNumber": 109025,
      "transactionIndex": 0,
      "confirmations": null,
      "from": "0x120A270bbC009644e35F0bB6ab13f95b8199c4ad",
      "gasPrice": {
        "_hex": "0xdc9e6bd87"
      },
      "gasLimit": {
        "_hex": "0x3d090"
      },
      "to": "0xD3c6b518F1631509963232bA8e1882D3474a5838",
      "value": {
        "_hex": "0x246efdaf2997dba000"
      },
      "nonce": 847,
      "data": "0x",
      "r": "0x613bd0f1fb8dc96f03ee930fca34edce837febb95b376d225556dcf4247b5171",
      "s": "0x128c457052440f5f6539a1edd2ecd7a40dcce898e9d8fb398bde1850c50bcdfb",
      "v": 28,
      "creates": null,
      "raw": "0xf87082034f850dc9e6bd878303d09094d3c6b518f1631509963232ba8e1882d3474a583889246efdaf2997dba000801ca0613bd0f1fb8dc96f03ee930fca34edce837febb95b376d225556dcf4247b5171a0128c457052440f5f6539a1edd2ecd7a40dcce898e9d8fb398bde1850c50bcdfb",
      "networkId": 0,
      "chainId": 0
    },
    {
      "hash": "0x03c4e4335516be0bb980a461c69456e0d28ba26f275470cc47b236c8000a4e6c",
      "blockHash": "0x9c73b8e71caeb85161c0f1e2897773411d0d4e1f04915c9bb727563197bb7bff",
      "blockNumber": 109025,
      "transactionIndex": 1,
      "confirmations": null,
      "from": "0xC47Aaa860008be6f65B58c6C6E02a84e666EfE31",
      "gasPrice": {
        "_hex": "0xdb92c67dd"
      },
      "gasLimit": {
        "_hex": "0x15f90"
      },
      "to": "0x193bB9b5E9b6099FB6c33DBb5CcDA4AC18ed14D7",
      "value": {
        "_hex": "0x821ab0d4414980000"
      },
      "nonce": 94,
      "data": "0x",
      "r": "0x68c3f14e1932e5f0af268ca3d0ce69f377cc2b86a519080e56ef7ba54e678077",
      "s": "0x2cda0ac6a902ba7c93392824c49b54801f9b55fc9fc9b16df0eb5b195f065243",
      "v": 28,
      "creates": null,
      "raw": "0xf86e5e850db92c67dd83015f9094193bb9b5e9b6099fb6c33dbb5ccda4ac18ed14d7890821ab0d4414980000801ca068c3f14e1932e5f0af268ca3d0ce69f377cc2b86a519080e56ef7ba54e678077a02cda0ac6a902ba7c93392824c49b54801f9b55fc9fc9b16df0eb5b195f065243",
      "networkId": 0,
      "chainId": 0
    },
    {
      "hash": "0x1888a8f5704b084aef04bb1a8ca5bb64185bea1cdaa3798acfceffbaec8e0819",
      "blockHash": "0x9c73b8e71caeb85161c0f1e2897773411d0d4e1f04915c9bb727563197bb7bff",
      "blockNumber": 109025,
      "transactionIndex": 2,
      "confirmations": null,
      "from": "0xa70a9a7040d542C632D8e0bE7c5513A8a5Bbc752",
      "gasPrice": {
        "_hex": "0xd5a1208b8"
      },
      "gasLimit": {
        "_hex": "0x5208"
      },
      "to": "0x32Be343B94f860124dC4fEe278FDCBD38C102D88",
      "value": {
        "_hex": "0x455f4a3ff77b7c00"
      },
      "nonce": 268,
      "data": "0x",
      "r": "0x744521dbfbdd3127d0e06a746ddb8a274c1c26c341dd3878021167b1daafaed4",
      "s": "0x5666647eb09d3bba7680db970f6e0e0c91db9c3ae45af12a1f9bbf103e899e1a",
      "v": 28,
      "creates": null,
      "raw": "0xf86e82010c850d5a1208b88252089432be343b94f860124dc4fee278fdcbd38c102d8888455f4a3ff77b7c00801ca0744521dbfbdd3127d0e06a746ddb8a274c1c26c341dd3878021167b1daafaed4a05666647eb09d3bba7680db970f6e0e0c91db9c3ae45af12a1f9bbf103e899e1a",
      "networkId": 0,
      "chainId": 0
    }
  ]
}