{
  "hash": "0xf833470586577f2274ca4287db4589620a9d3112f6c000c0c094975ad9316502",
  "parentHash": "0x47f74ff663de44f487249b41e025b6ed78c44a1e2eddfd7936d7348581b9f59e",
  "number": 104121,
  "timestamp": 1439864814,
  "nonce": "0xda3cfb60dfbd133d",
  "difficulty": 4244159776455,
  "gasLimit": {
    "_hex": "0x2fefd8"
  },
  "gasUsed": {
    "_hex": "0xa410"
  },
  "miner": "0xbb7B8287f3F0a933474a79eAe42CBCa977791171",
  "extraData": "0x476574682f4c5649562f76312e302e312f6c696e75782f676f312e342e32",
  "transactions": [
    {
      "hash": "0x82995fec02beff27112462f3bf47cf5bbcdcdef62a32ca9b3cb031d418006981",
      "blockHash": "0xf833470586577f2274ca4287db4589620a9d3112f6c000c0c094975ad9316502",
      "blockNumber": 104121,
      "transactionIndex": 0,
      "confirmations": null,
      "from": "0x120A270bbC009644e35F0bB6ab13f95b8199c4ad",
      "gasPrice": {
        "_hex": "0xd4bc07852"
      },
      "gasLimit": {
        "_hex": "0x15f90"
      },
      "to": "0xDc6813b78D46972A65B1d173374d0619b69BAf52",
      "value": {
        "_hex": "0x246c7ebf0d2c0ac00"
      },
      "nonce": 736,
      "data": "0x",
      "r": "0x4890e525d25f17fb5061b7551f3b5e016d1c9e8a3fa58ba63abced4e42063181",
      "s": "0x5a7f6004dd3ef4ef56855eb9902f0a262e34e17f9b2cd9ef59ab8db25e605849",
      "v": 28,
      "creates": null,
      "raw": "0xf8708202e0850d4bc0785283015f9094dc6813b78d46972a65b1d173374d0619b69baf52890246c7ebf0d2c0ac00801ca04890e525d25f17fb5061b7551f3b5e016d1c9e8a3fa58ba63abced4e42063181a05a7f6004dd3ef4ef56855eb9902f0a262e34e17f9b2cd9ef59ab8db25e605849",
      "networkId": 0,
      "chainId": 0
    },
    {
      "hash": "0xd30eafb7af4db6e6a060df6babf4480f1ed1563534028f0701d0db6edfd42c43",
      "blockHash": "0xf833470586577f2274ca4287db4589620a9d3112f6c000c0c094975ad9316502",
      "blockNumber": 104121,
      "transactionIndex": 1,
      "confirmations": null,
      "from": "0xfCCD0D1eCEE27ADDEa95f6857aeeC8c7A04b28ee",
      "gasPrice": {
        "_hex": "0xd0a0e2766"
      },
      "gasLimit": {
        "_hex": "0x15f90"
      },
      "to": "0xc77C9c7861CafaAb94ecb5Ea05f8AEf6216Da4d2",
      "value": {
        "_hex": "0x3e8"
      },
      "nonce": 0,
      "data": "0x",
      "r": "0x340c57afe123f501c25824ff9a902c7f11befcf93cc261d1cb629bb95e82a214",
      "s": "0x66651092adf414ede1149ae85f35248bdce07c4c8e0024d71ab6ffc246729ed9",
      "v": 28,
      "creates": null,
      "raw": "0xf86780850d0a0e276683015f9094c77c9c7861cafaab94ecb5ea05f8aef6216da4d28203e8801ca0340c57afe123f501c25824ff9a902c7f11befcf93cc261d1cb629bb95e82a214a066651092adf414ede1149ae85f35248bdce07c4c8e0024d71ab6ffc246729ed9",
      "networkId": 0,
      "chainId": 0
    }
  ]
}