{
  "hash": "0x64d7d813bf25f997b44078cf99d1681cb0b3147e84ae3cc88b1b0916b1423a4b",
  "parentHash": "0xe08a42bb648e658fa1bd14220b36ba6489bc6d82edacf714fb4b81fc3c567f7b",
  "number": 117825,
  "timestamp": 1440115980,
  "nonce": "0x5c026644e5c7758b",
  "difficulty": 4346195437666,
  "gasLimit": {
    "_hex": "0x2fefd8"
  },
  "gasUsed": {
    "_hex": "0xa410"
  },
  "miner": "0xe6A7a1d47ff21B6321162AEA7C6CB457D5476Bca",
  "extraData": "0xd783010002844765746887676f312e342e32856c696e7578",
  "transactions": [
    {
      "hash": "0x9c9dab0ab3010633eb958afc932ffe2fc456761feb75df7725bc555f4adcfada",
      "blockHash": "0x64d7d813bf25f997b44078cf99d1681cb0b3147e84ae3cc88b1b0916b1423a4b",
      "blockNumber": 117825,
      "transactionIndex": 0,
      "confirmations": null,
      "from": "0x1c69e6202df7794272b70FaEa8f7408c856B1f08",
      "gasPrice": {
        "_hex": "0xba43b7400"
      },
      "gasLimit": {
        "_hex": "0x5208"
      },
      "to": "0x32Be343B94f860124dC4fEe278FDCBD38C102D88",
      "value": {
        "_hex": "0x18215047b1f14000"
      },
      "nonce": 12,
      "data": "0x",
      "r": "0xe49a93e47e26502f6c017fa3b402358f3076598cbc58b92514352c7ddd259e76",
      "s": "0x716f50bf3f1b7314e7896deeb16001b055104ba64fe9dfd40082c00d654ac9fc",
      "v": 28,
      "creates": null,
      "raw": "0xf86c0c850ba43b74008252089432be343b94f860124dc4fee278fdcbd38c102d888818215047b1f14000801ca0e49a93e47e26502f6c017fa3b402358f3076598cbc58b92514352c7ddd259e76a0716f50bf3f1b7314e7896deeb16001b055104ba64fe9dfd40082c00d654ac9fc",
      "networkId": 0,
      "chainId": 0
    },
    {
      "hash": "0xf64ffde7e6edb9f415cfbe579879e816171fadc0fd40fb1f7e892546674941d1",
      "blockHash": "0x64d7d813bf25f997b44078cf99d1681cb0b3147e84ae3cc88b1b0916b1423a4b",
      "blockNumber": 117825,
      "transactionIndex": 1,
      "confirmations": null,
      "from": "0xc0920452d99591a4e8b190632c52754c72F73328",
      "gasPrice": {
        "_hex": "0xba43b7400"
      },
      "gasLimit": {
        "_hex": "0x5208"
      },
      "to": "0x32Be343B94f860124dC4fEe278FDCBD38C102D88",
      "value": {
        "_hex": "0xd31023ab3d00b000"
      },
      "nonce": 13,
      "data": "0x",
      "r": "0x4f711e57a7346e1eabfe3c3f60a2c6f665d63699feb6eb5e39575c57518feec9",
      "s": "0x457dd72dd6a9b107e3af244bacc592410b78ccf0e87d7970c444ffa89289cdf8",
      "v": 28,
      "creates": null,
      "raw": "0xf86c0d850ba43b74008252089432be343b94f860124dc4fee278fdcbd38c102d8888d31023ab3d00b000801ca04f711e57a7346e1eabfe3c3f60a2c6f665d63699feb6eb5e39575c57518feec9a0457dd72dd6a9b107e3af244bacc592410b78ccf0e87d7970c444ffa89289cdf8",
      "networkId": 0,
      "chainId": 0
    }
  ]
}