{
  "hash": "0xcd38171e4c08b2a60dc1a1a240146556c4f713cec053f23a215fe70027987865",
  "parentHash": "0xef67dbaffa2d2e42e47b2fc452e8fc8e3d14aac8495ba8172074e23ff5376d5e",
  "number": 101430,
  "timestamp": 1439822911,
  "nonce": "0xf912f164784e1c5f",
  "difficulty": 3841131542477,
  "gasLimit": {
    "_hex": "0x2fefd8"
  },
  "gasUsed": {
    "_hex": "0x5208"
  },
  "miner": "0xe6A7a1d47ff21B6321162AEA7C6CB457D5476Bca",
  "extraData": "0x476574682f76312e302e312d38326566323666362f6c696e75782f676f312e34",
  "transactions": [
    {
      "hash": "0x3e5efaa1b6af2dc8ae0dc85981ba6dfc0accac8284cd75ba13ef8d351932ccdc",
      "blockHash": "0xcd38171e4c08b2a60dc1a1a240146556c4f713cec053f23a215fe70027987865",
      "blockNumber": 101430,
      "transactionIndex": 0,
      "confirmations": null,
      "from": "0x32Be343B94f860124dC4fEe278FDCBD38C102D88",
      "gasPrice": {
        "_hex": "0xd87b8b49a"
      },
      "gasLimit": {
        "_hex": "0x5208"
      },
      "to": "0xbB7735934F8229F1fc2e76F7AfD82e14AA1e8E81",
      "value": {
        "_hex": "0x410d34e32e35000000"
      },
      "nonce": 1080,
      "data": "0x",
      "r": "0x194cf7b5e408bb67d84934d1dff6094fe3b87ff7bd67e8b5cf723c0582712c90",
      "s": "0x33559258158a059dc4ee675af41bed7c52af7feabed5df6c2ffad58ff3b9088e",
      "v": 28,
      "creates": null,
      "raw": "0xf86f820438850d87b8b49a82520894bb7735934f8229f1fc2e76f7afd82e14aa1e8e8189410d34e32e35000000801ca0194cf7b5e408bb67d84934d1dff6094fe3b87ff7bd67e8b5cf723c0582712c90a033559258158a059dc4ee675af41bed7c52af7feabed5df6c2ffad58ff3b9088e",
      "networkId": 0,
      "chainId": 0
    }
  ]
}