{
  "hash": "0x2f68f94a10a6797d332e1c8169fea3b43fb2540ad99e40f122c05ea1ee82b95a",
  "parentHash": "0x564bbdf5beb43909cd1a9aa246006ea7586815d9ff96e8406d8c270bc0768d1e",
  "number": 110530,
  "timestamp": 1439975225,
  "nonce": "0x1810f515c8f65e62",
  "difficulty": 4381953815723,
  "gasLimit": {
    "_hex": "0x2fefd8"
  },
  "gasUsed": {
    "_hex": "0x5208"
  },
  "miner": "0xC603Ab5ef41fC61AA8b76bEddb09e3Cfcbb174BD",
  "extraData": "0x476574682f76312e302e312f77696e646f77732f676f312e342e32",
  "transactions": [
    {
      "hash": "0x2b17c32472b3becc71e51c662415e431d19e04dbb3bfd86bfc124f14e5d4c3fe",
      "blockHash": "0x2f68f94a10a6797d332e1c8169fea3b43fb2540ad99e40f122c05ea1ee82b95a",
      "blockNumber": 110530,
      "transactionIndex": 0,
      "confirmations": null,
      "from": "0x0DBaD90C967BFfeA4d6B589c0d2AF50A0eA16304",
      "gasPrice": {
        "_hex": "0xcd8021dbf"
      },
      "gasLimit": {
        "_hex": "0x5208"
      },
      "to": "0x32Be343B94f860124dC4fEe278FDCBD38C102D88",
      "value": {
        "_hex": "0x616e02bbdc93e0000"
      },
      "nonce": 4,
      "data": "0x",
      "r": "0x87fbc2a2d3850dafe38855cc828b89164d2203e92fc9ed22568baff037ca1c3d",
      "s": "0x017c792241befe232de1f9dcc58d089f016b20e71688d10904e1c30c3ca56c64",
      "v": 28,
      "creates": null,
      "raw": "0xf86d04850cd8021dbf8252089432be343b94f860124dc4fee278fdcbd38c102d88890616e02bbdc93e0000801ca087fbc2a2d3850dafe38855cc828b89164d2203e92fc9ed22568baff037ca1c3da0017c792241befe232de1f9dcc58d089f016b20e71688d10904e1c30c3ca56c64",
      "networkId": 0,
      "chainId": 0
    }
  ]
}