{
  "hash": "0x56238309b331d712836b36e5a97eb57c15b273928dc4ca4c94fcde924ddab68a",
  "parentHash": "0x93c011ea2f5aa55461ccd073c0be0f6102cb00d7121b8c82a87cd77fd64e6594",
  "number": 73307,
  "timestamp": 1439366988,
  "nonce": "0x0980078f13cc7d9d",
  "difficulty": 2199179460626,
  "gasLimit": {
    "_hex": "0x2fefd8"
  },
  "gasUsed": {
    "_hex": "0xa410"
  },
  "miner": "0x04B678db962cfE6Aa2f35d05e491bE9737d82386",
  "extraData": "0x",
  "transactions": [
    {
      "hash": "0x9afca8016b9552ba91a9214dd3d759bec2bad22b74c46e6ede2f5db861195a9e",
      "blockHash": "0x56238309b331d712836b36e5a97eb57c15b273928dc4ca4c94fcde924ddab68a",
      "blockNumber": 73307,
      "transactionIndex": 0,
      "confirmations": null,
      "from": "0xfC372FF6927CB396d9cf29803500110Da632bC52",
      "gasPrice": {
        "_hex": "0x10cdfbff6c5"
      },
      "gasLimit": {
        "_hex": "0x5208"
      },
      "to": "0xa748fac76B1d857E2f77484a0F816463e8b56EDc",
      "value": {
        "_hex": "0xde0b6b3a7640000"
      },
      "nonce": 8,
      "data": "0x",
      "r": "0x4914994262647819b4307cd1f28b002a4a74b3accf9724c29e77985d9df19816",
      "s": "0x1b824f34df3dd3a3a27b4d6098229b762a1105c63d6f081ea54c752b07fb899c",
      "v": 28,
      "creates": null,
      "raw": "0xf86d0886010cdfbff6c582520894a748fac76b1d857e2f77484a0f816463e8b56edc880de0b6b3a7640000801ca04914994262647819b4307cd1f28b002a4a74b3accf9724c29e77985d9df19816a01b824f34df3dd3a3a27b4d6098229b762a1105c63d6f081ea54c752b07fb899c",
      "networkId": 0,
      "chainId": 0
    },
    {
      "hash": "0x672cae45c9e471f47607469d1de1c00d1cd12cf671457522f766dd44864c2a3f",
      "blockHash": "0x56238309b331d712836b36e5a97eb57c15b273928dc4ca4c94fcde924ddab68a",
      "blockNumber": 73307,
      "transactionIndex": 1,
      "confirmations": null,
      "from": "0x3A06E3bB1EDcFd0C44c3074dE0bB606b049894A2",
      "gasPrice": {
        "_hex": "0xd641f460d"
      },
      "gasLimit": {
        "_hex": "0x15f90"
      },
      "to": "0x372FaE4b73482aa4B5E5200b846384Dc11284500",
      "value": {
        "_hex": "0x6c6b935b8bbd400000"
      },
      "nonce": 0,
      "data": "0x",
      "r": "0x01cce984f8cbd428ec342a9b2dab2139ea4942cd7bca35de3a3e4b8fca21882f",
      "s": "0x7e3e9bb9e553844e52c95ae6e8fb87d3bffba6ad1b5156b053403940c0aa7ca8",
      "v": 27,
      "creates": null,
      "raw": "0xf86e80850d641f460d83015f9094372fae4b73482aa4b5e5200b846384dc11284500896c6b935b8bbd400000801ba001cce984f8cbd428ec342a9b2dab2139ea4942cd7bca35de3a3e4b8fca21882fa07e3e9bb9e553844e52c95ae6e8fb87d3bffba6ad1b5156b053403940c0aa7ca8",
      "networkId": 0,
      "chainId": 0
    }
  ]
}