{
  "hash": "0xa3f5e074fc6c7a1e19bfb65a2184ecea00e6dfad4d4c68f0b4dbe81037848168",
  "parentHash": "0x21c5c2c5684e217409c44f67e673c338cb97e956324e60f5a89dac0e0b2e9730",
  "number": 113530,
  "timestamp": 1440025193,
  "nonce": "0xc77d65085e8c24a9",
  "difficulty": 4440686358521,
  "gasLimit": {
    "_hex": "0x2fefd8"
  },
  "gasUsed": {
    "_hex": "0x5208"
  },
  "miner": "0x580992B51e3925e23280EfB93d3047C82f17E038",
  "extraData": "0x476574682f76312e302e312f6c696e75782f676f312e342e32",
  "transactions": [
    {
      "hash": "0x747171b6b7b3d10aa9cdfdae9779485498bb4aae4cf958bfbe47e1d28a589c76",
      "blockHash": "0xa3f5e074fc6c7a1e19bfb65a2184ecea00e6dfad4d4c68f0b4dbe81037848168",
      "blockNumber": 113530,
      "transactionIndex": 0,
      "confirmations": null,
      "from": "0xd4E17D07aC9aD4F7f8cbbC6727D5eB4D5BbA30B1",
      "gasPrice": {
        "_hex": "0xba43b7400"
      },
      "gasLimit": {
        "_hex": "0x15f90"
      },
      "to": "0xb1A2a1e9b8AC33fdcB2118b73A875b096AEd24aD",
      "value": {
        "_hex": "0x45400a8fd5330000"
      },
      "nonce": 0,
      "data": "0x",
      "r": "0x76a39d81f71a972fa0cf5f1994a21c3e4cb533ed3cf49605446eae60c7fcf63c",
      "s": "0x072cfbe50966ec5c554fcee1d9f2387add4860c47b5a025806788cb0d3a30a63",
      "v": 28,
      "creates": null,
      "raw": "0xf86d80850ba43b740083015f9094b1a2a1e9b8ac33fdcb2118b73a875b096aed24ad8845400a8fd5330000801ca076a39d81f71a972fa0cf5f1994a21c3e4cb533ed3cf49605446eae60c7fcf63ca0072cfbe50966ec5c554fcee1d9f2387add4860c47b5a025806788cb0d3a30a63",
      "networkId": 0,
      "chainId": 0
    }
  ]
}