{
  "hash": "0xf7294326b631b0f505cc5e42ba59b7855f0e506d6af68304bcc4cb8263e6d9e4",
  "parentHash": "0x3225476ac28bcf71435bad19146bce684f977669b38cf4b506b640928a7270d4",
  "number": 52148,
  "timestamp": 1439017001,
  "nonce": "0x61f59b5fd8d59a29",
  "difficulty": 1556534863416,
  "gasLimit": {
    "_hex": "0x1095aa"
  },
  "gasUsed": {
    "_hex": "0xabe0"
  },
  "miner": "0xF2d2AfF1320476cb8C6b607199D23175cc595693",
  "extraData": "0x476574682f76312e302e312f77696e646f77732f676f312e342e32",
  "transactions": [
    {
      "hash": "0x8ddf87387ab3750df1116efcae13d07b7474d5e8319ea163474413195ad701a2",
      "blockHash": "0xf7294326b631b0f505cc5e42ba59b7855f0e506d6af68304bcc4cb8263e6d9e4",
      "blockNumber": 52148,
      "transactionIndex": 0,
      "confirmations": null,
      "from": "0x320e69e693Df6C1476c13836CDBE2F6E5dEf83A1",
      "gasPrice": {
        "_hex": "0xd6e5667b5"
      },
      "gasLimit": {
        "_hex": "0x15f90"
      },
      "to": "0x0000000000000000000000000000000000000000",
      "value": {
        "_hex": "0x0"
      },
      "nonce": 5,
      "data": "0xbe99a9807465737400000000000000000000000000000000000000000000000000000000000000000000000000000000320e69e693df6b07e35545d88d2ab768000000000000000000000000000000000000000000000000000000000000000000000001",
      "r": "0x1dce63ca6a2cf2566d3674bfa7bb6af6aa334dc774ccf862c67e61a0dd4340de",
      "s": "0x102a6f2599286b1448f99e744770af43ec531b18288b3feedf64da9f83338adc",
      "v": 27,
      "creates": null,
      "raw": "0xf8ca05850d6e5667b583015f9094000000000000000000000000000000000000000080b864be99a9807465737400000000000000000000000000000000000000000000000000000000000000000000000000000000320e69e693df6b07e35545d88d2ab7680000000000000000000000000000000000000000000000000000000000000000000000011ba01dce63ca6a2cf2566d3674bfa7bb6af6aa334dc774ccf862c67e61a0dd4340dea0102a6f2599286b1448f99e744770af43ec531b18288b3feedf64da9f83338adc",
      "networkId": 0,
      "chainId": 0
    },
    {
      "hash": "0xf0a12d0a7411d9501c0bfc03b6caaca10dc99f60ab2262f9a1a54008ca7e3737",
      "blockHash": "0xf7294326b631b0f505cc5e42ba59b7855f0e506d6af68304bcc4cb8263e6d9e4",
      "blockNumber": 52148,
      "transactionIndex": 1,
      "confirmations": null,
      "from": "0x3B4AF94C39e87281410A3B5Cf880b4a647459363",
      "gasPrice": {
        "_hex": "0xce270961c"
      },
      "gasLimit": {
        "_hex": "0x5208"
      },
      "to": "0x32Be343B94f860124dC4fEe278FDCBD38C102D88",
      "value": {
        "_hex": "0xddc95c4d5a69400"
      },
      "nonce": 1,
      "data": "0x",
      "r": "0x0612cb73718d92a2cf8b2f0cdd4d41c26fadc5c02e766d8f646b9c4d0156a26d",
      "s": "0x4ec48a7f66ec8270bc236688dfab1fad1faec9fcc6c35daa2097ca41cd82fc18",
      "v": 27,
      "creates": null,
      "raw": "0xf86c01850ce270961c8252089432be343b94f860124dc4fee278fdcbd38c102d88880ddc95c4d5a69400801ba00612cb73718d92a2cf8b2f0cdd4d41c26fadc5c02e766d8f646b9c4d0156a26da04ec48a7f66ec8270bc236688dfab1fad1faec9fcc6c35daa2097ca41cd82fc18",
      "networkId": 0,
      "chainId": 0
    }
  ]
}