{
  "hash": "0xfe74af352ee556dc61b25a6789176c70c467cd9052df0232932a3f0f137e511d",
  "parentHash": "0x480b7db8ee875d7aa3148f1e852ba23da2a7772991668e72152a92c83c026b20",
  "number": 107386,
  "timestamp": 1439921589,
  "nonce": "0xf242d05082bf6afd",
  "difficulty": 4400753366546,
  "gasLimit": {
    "_hex": "0x2fefd8"
  },
  "gasUsed": {
    "_hex": "0x546c"
  },
  "miner": "0xAE161b030a8f26E020D88434a59DaA7E0f3430B7",
  "extraData": "0x",
  "transactions": [
    {
      "hash": "0xbaa7267594ba100b208fc3e3873e864c630e4fbafbe0f61d4666b5d906f89e1c",
      "blockHash": "0xfe74af352ee556dc61b25a6789176c70c467cd9052df0232932a3f0f137e511d",
      "blockNumber": 107386,
      "transactionIndex": 0,
      "confirmations": null,
      "from": "0xBFa71Aba804c2b986D969E175aCFdAC7266CDe9C",
      "gasPrice": {
        "_hex": "0xd5dc19a4a"
      },
      "gasLimit": {
        "_hex": "0x7530"
      },
      "to": "0x2910543Af39abA0Cd09dBb2D50200b3E800A63D2",
      "value": {
        "_hex": "0x401fc1f4d54a10000"
      },
      "nonce": 3,
      "data": "0x454e3651304d384252",
      "r": "0x216a2c426a6a774fc3509312e718f8296f6842f4272dd46fe4471a024f59719f",
      "s": "0x759dd5993d9200f6008919fa650c578856d5b236f5440b1bb6049e246b8dcfc0",
      "v": 27,
      "creates": null,
      "raw": "0xf87603850d5dc19a4a827530942910543af39aba0cd09dbb2d50200b3e800a63d2890401fc1f4d54a1000089454e3651304d3842521ba0216a2c426a6a774fc3509312e718f8296f6842f4272dd46fe4471a024f59719fa0759dd5993d9200f6008919fa650c578856d5b236f5440b1bb6049e246b8dcfc0",
      "networkId": 0,
      "chainId": 0
    }
  ]
}