{
  "hash": "0xab4fd570342ed0451cdf11b976f2c171c1aa1f300a98b28ecced4afd6b770755",
  "parentHash": "0x573cea4e2937901596c20fda8627b4ef2e1224ea4972331960d2cdb0cdf20215",
  "number": 103581,
  "timestamp": 1439855634,
  "nonce": "0xf6e2859ee07d7ba1",
  "difficulty": 4199082513787,
  "gasLimit": {
    "_hex": "0x2fefd8"
  },
  "gasUsed": {
    "_hex": "0x5208"
  },
  "miner": "0xe6A7a1d47ff21B6321162AEA7C6CB457D5476Bca",
  "extraData": "0x476574682f76312e302e312d38326566323666362f6c696e75782f676f312e34",
  "transactions": [
    {
      "hash": "0xfc6c1b0ec5587c101c3fe0fa5b73ce56cda41ee697f0cc3187f0d71551529bda",
      "blockHash": "0xab4fd570342ed0451cdf11b976f2c171c1aa1f300a98b28ecced4afd6b770755",
      "blockNumber": 103581,
      "transactionIndex": 0,
      "confirmations": null,
      "from": "0x120A270bbC009644e35F0bB6ab13f95b8199c4ad",
      "gasPrice": {
        "_hex": "0xd3eb2e7d1"
      },
      "gasLimit": {
        "_hex": "0x3d090"
      },
      "to": "0xCA092A957744f6385B1aee5dC694143E8A06F805",
      "value": {
        "_hex": "0x5cafbd587320400"
      },
      "nonce": 727,
      "data": "0x",
      "r": "0x48cc327b6043c3dbe4f7a7a05db672a2d8fa75ffe091082bde0014e32179c7fd",
      "s": "0x60512fb5e463ef0d22ac4c5f5a5cff5a4225e4b64854a1b35145b0390c16bc70",
      "v": 27,
      "creates": null,
      "raw": "0xf86f8202d7850d3eb2e7d18303d09094ca092a957744f6385b1aee5dc694143e8a06f8058805cafbd587320400801ba048cc327b6043c3dbe4f7a7a05db672a2d8fa75ffe091082bde0014e32179c7fda060512fb5e463ef0d22ac4c5f5a5cff5a4225e4b64854a1b35145b0390c16bc70",
      "networkId": 0,
      "chainId": 0
    }
  ]
}