{
  "hash": "0x49ed2daebc6880a4ea315cdd35959665720840cb9c5b29f04c5b31418b24159d",
  "parentHash": "0x95f7393b66cbe90ae56cb3c3b5a1b79a0f7eaabb477b296ce8656388ce40ba65",
  "number": 61184,
  "timestamp": 1439168277,
  "nonce": "0x9af653e7943eee91",
  "difficulty": 1726121751302,
  "gasLimit": {
    "_hex": "0x2fefd5"
  },
  "gasUsed": {
    "_hex": "0x5208"
  },
  "miner": "0x79ca0E269c8949Ee9a58aB594a2DbbeFb230edF3",
  "extraData": "0x",
  "transactions": [
    {
      "hash": "0x5edee2dcd47c66f9cd1e839f911afd8565d41d4868723f4322e927d8c33bd7f1",
      "blockHash": "0x49ed2daebc6880a4ea315cdd35959665720840cb9c5b29f04c5b31418b24159d",
      "blockNumber": 61184,
      "transactionIndex": 0,
      "confirmations": null,
      "from": "0xF2d2AfF1320476cb8C6b607199D23175cc595693",
      "gasPrice": {
        "_hex": "0xd4be89f70"
      },
      "gasLimit": {
        "_hex": "0x15f90"
      },
      "to": "0xF5EeDc192aB70b08D8354384aD94efD095849E00",
      "value": {
        "_hex": "0x4d31f847531c40000"
      },
      "nonce": 17,
      "data": "0x",
      "r": "0x42aaf1e1e4e0221d955b50b679832b305ce4acecb1636ed4e15a188834ee54b3",
      "s": "0x2acd9381026769a384660ca9641591ede04f2b5b727ead5be75f8cf6ae1bba5a",
      "v": 27,
      "creates": null,
      "raw": "0xf86e11850d4be89f7083015f9094f5eedc192ab70b08d8354384ad94efd095849e008904d31f847531c40000801ba042aaf1e1e4e0221d955b50b679832b305ce4acecb1636ed4e15a188834ee54b3a02acd9381026769a384660ca9641591ede04f2b5b727ead5be75f8cf6ae1bba5a",
      "networkId": 0,
      "chainId": 0
    }
  ]
}