{
  "hash": "0x91df5ae0d833be247df2e264f6ecb4806b92de1b5062ef36a136dcfc69473b07",
  "parentHash": "0x78b66cc46cd8102adce4d35a040a88a96b39eebc0cbfac5538c599bb444424cb",
  "number": 78984,
  "timestamp": 1439462738,
  "nonce": "0x9802c0f86eba9628",
  "difficulty": 2288587726646,
  "gasLimit": {
    "_hex": "0x2fefd8"
  },
  "gasUsed": {
    "_hex": "0x5208"
  },
  "miner": "0x2f6BCe4fc330B69C9B4c2694d57C63Ec7B18feC7",
  "extraData": "0x476574682f76312e302e312f77696e646f77732f676f312e342e32",
  "transactions": [
    {
      "hash": "0xa6415562a38baa10e52b44329cb6faa6ebf0d935c34aed03cdc7a83778a9ab7e",
      "blockHash": "0x91df5ae0d833be247df2e264f6ecb4806b92de1b5062ef36a136dcfc69473b07",
      "blockNumber": 78984,
      "transactionIndex": 0,
      "confirmations": null,
      "from": "0x32Be343B94f860124dC4fEe278FDCBD38C102D88",
      "gasPrice": {
        "_hex": "0xdb3784cf2"
      },
      "gasLimit": {
        "_hex": "0x5208"
      },
      "to": "0xCaf1C12c783fCcC4066e87a376F94518141dEF80",
      "value": {
        "_hex": "0x13d874153c9a1a000"
      },
      "nonce": 407,
      "data": "0x",
      "r": "0x9b9ae5d4f2f6add1adab5a98d5c6a75ff96fc9c878d8c18842aaef12fcd5f649",
      "s": "0x664894eaaf0547356e6ff438ae98cb54b8f85825e5f0794974a5577ddb9ef52d",
      "v": 27,
      "creates": null,
      "raw": "0xf86f820197850db3784cf282520894caf1c12c783fccc4066e87a376f94518141def8089013d874153c9a1a000801ba09b9ae5d4f2f6add1adab5a98d5c6a75ff96fc9c878d8c18842aaef12fcd5f649a0664894eaaf0547356e6ff438ae98cb54b8f85825e5f0794974a5577ddb9ef52d",
      "networkId": 0,
      "chainId": 0
    }
  ]
}