{
  "hash": "0x7154f0b7e962036d978f20cc8baf76cd9c0fb0014b3284ca26f6d04cafd4ff62",
  "parentHash": "0x09193bbd7503f0e2eb7d4ab97d1bd2495f0572b446d3102600433ffd5beda999",
  "number": 64469,
  "timestamp": 1439221238,
  "nonce": "0x10ac476e6d47b235",
  "difficulty": 1875699445607,
  "gasLimit": {
    "_hex": "0x2fefd8"
  },
  "gasUsed": {
    "_hex": "0xa410"
  },
  "miner": "0x9653c9859b18f8777Fe4eEc9a67c9F64F3D6F62a",
  "extraData": "0x",
  "transactions": [
    {
      "hash": "0x5fc5a8be44cf67b31aeae6515feb622fe30ff0307bbae8ed4f457c2709f2f616",
      "blockHash": "0x7154f0b7e962036d978f20cc8baf76cd9c0fb0014b3284ca26f6d04cafd4ff62",
      "blockNumber": 64469,
      "transactionIndex": 0,
      "confirmations": null,
      "from": "0x2910543Af39abA0Cd09dBb2D50200b3E800A63D2",
      "gasPrice": {
        "_hex": "0xd92e7a380"
      },
      "gasLimit": {
        "_hex": "0x5208"
      },
      "to": "0xddDfeCf1F02cDBAdd9292Ba977b8462D670ed4eb",
      "value": {
        "_hex": "0x8ab55f8b52078000"
      },
      "nonce": 142,
      "data": "0x",
      "r": "0x94d8622b02d88f8324e8d9a272ddc64122002f39456e6b2d21f2bbe2d835c60d",
      "s": "0x75172578dd7bbcb2d6a44a5a04e5ff8fab47b2c8f86f457c2d73c33638b97e7f",
      "v": 27,
      "creates": null,
      "raw": "0xf86d818e850d92e7a38082520894dddfecf1f02cdbadd9292ba977b8462d670ed4eb888ab55f8b52078000801ba094d8622b02d88f8324e8d9a272ddc64122002f39456e6b2d21f2bbe2d835c60da075172578dd7bbcb2d6a44a5a04e5ff8fab47b2c8f86f457c2d73c33638b97e7f",
      "networkId": 0,
      "chainId": 0
    },
    {
      "hash": "0xd4eaaafb24020c1166784dc0bce492560c6421e12e327fef42525b5f15d7ce1f",
      "blockHash": "0x7154f0b7e962036d978f20cc8baf76cd9c0fb0014b3284ca26f6d04cafd4ff62",
      "blockNumber": 64469,
      "transactionIndex": 1,
      "confirmations": null,
      "from": "0x6747f922385c9a6F9cfDf095F34345257DD597bE",
      "gasPrice": {
        "_hex": "0xba43b7400"
      },
      "gasLimit": {
        "_hex": "0x15f90"
      },
      "to": "0xBE38840CaC03E2fF88C50b23C3B041cc16c38548",
      "value": {
        "_hex": "0x2386f26fc10000"
      },
      "nonce": 2,
      "data": "0x",
      "r": "0x0a9034badddfda1e708b8aaa3a841185708f054f7d0f83be81dace1ffa473005",
      "s": "0x451f521de770761395a973f10d12926f1dd6ac2cfbdaa8f73916d5970a035e3b",
      "v": 28,
      "creates": null,
      "raw": "0xf86c02850ba43b740083015f9094be38840cac03e2ff88c50b23c3b041cc16c38548872386f26fc10000801ca00a9034badddfda1e708b8aaa3a841185708f054f7d0f83be81dace1ffa473005a0451f521de770761395a973f10d12926f1dd6ac2cfbdaa8f73916d5970a035e3b",
      "networkId": 0,
      "chainId": 0
    }
  ]
}