{
  "hash": "0x4740dec14cabe8682958f2df30550310c216d77bec95466e75f7ffed4fe01995",
  "parentHash": "0xa9259acfd34042f18bb63ad6c44087a36f70810908d9710997b77c94c25e6b19",
  "number": 120046,
  "timestamp": 1440153143,
  "nonce": "0x511b8caa91894b93",
  "difficulty": 4398410029695,
  "gasLimit": {
    "_hex": "0x2fefd8"
  },
  "gasUsed": {
    "_hex": "0x5208"
  },
  "miner": "0x52bc44d5378309EE2abF1539BF71dE1b7d7bE3b5",
  "extraData": "0xd783010002844765746887676f312e342e32856c696e7578",
  "transactions": [
    {
      "hash": "0xea7587f99db88c317c4d495c50a3f0eaed916e82ff1daa893a9c8a70ff3a4554",
      "blockHash": "0x4740dec14cabe8682958f2df30550310c216d77bec95466e75f7ffed4fe01995",
      "blockNumber": 120046,
      "transactionIndex": 0,
      "confirmations": null,
      "from": "0x5804baCD8DEC367de4137ffaD580997311841369",
      "gasPrice": {
        "_hex": "0xba43b7400"
      },
      "gasLimit": {
        "_hex": "0x15f90"
      },
      "to": "0xD007C3Ce0bFCFE50559e15a3737C236f8Fa15BbE",
      "value": {
        "_hex": "0xde0b6b3a7640000"
      },
      "nonce": 3,
      "data": "0x",
      "r": "0x8127ec5724ccc015b814e1e1fbf40ef752e9a4bc3048513ea52b8a089d744289",
      "s": "0x1ef10c2adafc0e8effbc70eecce71637a0d58859bb028eba17318c4b621be7cb",
      "v": 28,
      "creates": null,
      "raw": "0xf86d03850ba43b740083015f9094d007c3ce0bfcfe50559e15a3737c236f8fa15bbe880de0b6b3a7640000801ca08127ec5724ccc015b814e1e1fbf40ef752e9a4bc3048513ea52b8a089d744289a01ef10c2adafc0e8effbc70eecce71637a0d58859bb028eba17318c4b621be7cb",
      "networkId": 0,
      "chainId": 0
    }
  ]
}