{
  "hash": "0x9b3b822b5fe9970edd6c6dfe2805f3c7fc96e2d75b0cfeece03d388e885fc52c",
  "parentHash": "0xb223ac5192df810598caaf375baa5a41fa3d7576693f7d4dcb902756b862f6f9",
  "number": 110425,
  "timestamp": 1439973559,
  "nonce": "0xe813ec49490c771d",
  "difficulty": 4379869534335,
  "gasLimit": {
    "_hex": "0x2fefd8"
  },
  "gasUsed": {
    "_hex": "0xf618"
  },
  "miner": "0xE300c4587D260cE22a677755Db6429B491A4309E",
  "extraData": "0x",
  "transactions": [
    {
      "hash": "0x6671030fe70248cafcc2fedab60efba1672efadc3fa769e1869d9173bc19818a",
      "blockHash": "0x9b3b822b5fe9970edd6c6dfe2805f3c7fc96e2d75b0cfeece03d388e885fc52c",
      "blockNumber": 110425,
      "transactionIndex": 0,
      "confirmations": null,
      "from": "0x6CB5e8313a5B29aDb14AE1884D3EcE4489d02D77",
      "gasPrice": {
        "_hex": "0xe2c5588fa"
      },
      "gasLimit": {
        "_hex": "0x5208"
      },
      "to": "0x32Be343B94f860124dC4fEe278FDCBD38C102D88",
      "value": {
        "_hex": "0x1802dad6670614000"
      },
      "nonce": 7,
      "data": "0x",
      "r": "0x9c4da4124418a5f1843ff48c9b10bfdb066d8759a012dc915283af692a26832d",
      "s": "0x14a9471a8ae3258098c12328088e7693940b192d54612be427e8418022c2e208",
      "v": 28,
      "creates": null,
      "raw": "0xf86d07850e2c5588fa8252089432be343b94f860124dc4fee278fdcbd38c102d888901802dad6670614000801ca09c4da4124418a5f1843ff48c9b10bfdb066d8759a012dc915283af692a26832da014a9471a8ae3258098c12328088e7693940b192d54612be427e8418022c2e208",
      "networkId": 0,
      "chainId": 0
    },
    {
      "hash": "0x62679fb0a9f8301f32d1d33657778614fa5a76de505aee3d40b993ab8e039fa7",
      "blockHash": "0x9b3b822b5fe9970edd6c6dfe2805f3c7fc96e2d75b0cfeece03d388e885fc52c",
      "blockNumber": 110425,
      "transactionIndex": 1,
      "confirmations": null,
      "from": "0x46b29910396E1cF71678f81101334A180876E9b1",
      "gasPrice": {
        "_hex": "0xe2c5588fa"
      },
      "gasLimit": {
        "_hex": "0x5208"
      },
      "to": "0x32Be343B94f860124dC4fEe278FDCBD38C102D88",
      "value": {
        "_hex": "0x8c2270c14a8fa000"
      },
      "nonce": 7,
      "data": "0x",
      "r": "0xf8616f11df70e6e3a6d19d966a1aaaabe615f4b092dd1f9b292a180e1b6e95a2",
      "s": "0x6864d0b09ec086ed92346286bff19c7ed422247823f03f949a2e31f720071bcf",
      "v": 28,
      "creates": null,
      "raw": "0xf86c07850e2c5588fa8252089432be343b94f860124dc4fee278fdcbd38c102d88888c2270c14a8fa000801ca0f8616f11df70e6e3a6d19d966a1aaaabe615f4b092dd1f9b292a180e1b6e95a2a06864d0b09ec086ed92346286bff19c7ed422247823f03f949a2e31f720071bcf",
      "networkId": 0,
      "chainId": 0
    },
    {
      "hash": "0x613788281330acddce95cf1a4fd908b9a78176bc3c37f4c4de2895664224edff",
      "blockHash": "0x9b3b822b5fe9970edd6c6dfe2805f3c7fc96e2d75b0cfeece03d388e885fc52c",
      "blockNumber": 110425,
      "transactionIndex": 2,
      "confirmations": null,
      "from": "0x8674c218F0351a62C3BA78C34FD2182A93Da94E2",
      "gasPrice": {
        "_hex": "0xba43b7400"
      },
      "gasLimit": {
        "_hex": "0x15f90"
      },
      "to": "0x226FE438c842C7EA989d8613C65fc5bAa0364588",
      "value": {
        "_hex": "0x3782dace9d900000"
      },
      "nonce": 88,
      "data": "0x",
      "r": "0x2d5915418bc87fde33f5b7b39edd2f354873b71567e1d01aca261741491de052",
      "s": "0x3f99c0c66ad8f8bf987f9d204957ed6d239203461612efe6b663b9d793becf70",
      "v": 27,
      "creates": null,
      "raw": "0xf86d58850ba43b740083015f9094226fe438c842c7ea989d8613c65fc5baa0364588883782dace9d900000801ba02d5915418bc87fde33f5b7b39edd2f354873b71567e1d01aca261741491de052a03f99c0c66ad8f8bf987f9d204957ed6d239203461612efe6b663b9d793becf70",
      "networkId": 0,
      "chainId": 0
    }
  ]
}