{
  "hash": "0x907e4094bb33ff324397d9e687b7ffcf6a87f0d172c52aa7e1809a1cff4b0ac7",
  "parentHash": "0xf1402edb9164d02ca35ce30dde14dfcf753f0c207975e9d4c7806d910453173d",
  "number": 100292,
  "timestamp": 1439804030,
  "nonce": "0x55523c6561d2d3e1",
  "difficulty": 3826675480916,
  "gasLimit": {
    "_hex": "0x2fefd5"
  },
  "gasUsed": {
    "_hex": "0x5208"
  },
  "miner": "0x9746c7e1ef2bd21FF3997fa467593a89cb852BD0",
  "extraData": "0x476574682f76312e302e312f77696e646f77732f676f312e342e32",
  "transactions": [
    {
      "hash": "0x9700aa56fb679713c8d08bce3fd3a1683489bf1e024e82938da0970dbdb62cac",
      "blockHash": "0x907e4094bb33ff324397d9e687b7ffcf6a87f0d172c52aa7e1809a1cff4b0ac7",
      "blockNumber": 100292,
      "transactionIndex": 0,
      "confirmations": null,
      "from": "0x9dc5018E753A410593259039296bBfd28E29f894",
      "gasPrice": {
        "_hex": "0xd36dcab1d"
      },
      "gasLimit": {
        "_hex": "0x61a8"
      },
      "to": "0x50056353D06a71b1f427499419D04F81f5dE4F20",
      "value": {
        "_hex": "0x129ab43dbecd11398"
      },
      "nonce": 3,
      "data": "0x",
      "r": "0x4410ffc502a397ff46f71feff74b7aa533445930d4d00d24c76743c282e892d8",
      "s": "0x4ecc30a2ba51e258624509c568769db61130f60acc812e8034a8982f3a7a1001",
      "v": 28,
      "creates": null,
      "raw": "0xf86d03850d36dcab1d8261a89450056353d06a71b1f427499419d04f81f5de4f20890129ab43dbecd11398801ca04410ffc502a397ff46f71feff74b7aa533445930d4d00d24c76743c282e892d8a04ecc30a2ba51e258624509c568769db61130f60acc812e8034a8982f3a7a1001",
      "networkId": 0,
      "chainId": 0
    }
  ]
}