{
  "hash": "0x981087c40871db81e425e163832a9f726061df611747ec7ce2fec2da17a399b3",
  "parentHash": "0x7c22a36532084deb408c5020e471540f5fc66509fc845bbf3a188370aeb9e0e2",
  "number": 76283,
  "timestamp": 1439417798,
  "nonce": "0x182d4153501a5a29",
  "difficulty": 2235200906917,
  "gasLimit": {
    "_hex": "0x2fefd5"
  },
  "gasUsed": {
    "_hex": "0x2b93d"
  },
  "miner": "0xf927a40C8B7F6E07c5af7FA2155B4864a4112B13",
  "extraData": "0x",
  "transactions": [
    {
      "hash": "0x0fd7d4320a102679a6599fc37fcb922a7703821c6fd244344e1b9fac929b4728",
      "blockHash": "0x981087c40871db81e425e163832a9f726061df611747ec7ce2fec2da17a399b3",
      "blockNumber": 76283,
      "transactionIndex": 0,
      "confirmations": null,
      "from": "0x77b97786B0FB73e55d9E92d4B182beFBF346F979",
      "gasPrice": {
        "_hex": "0xdb9c6aacd"
      },
      "gasLimit": {
        "_hex": "0xf4240"
      },
      "to": "0xDB7C577B93Baeb56dAB50aF4D6f86F99A06B96a2",
      "value": {
        "_hex": "0x16345785d8a0000"
      },
      "nonce": 4,
      "data": "0x1335ff360000000000000000000000078d997317b6a31cc0aea1c0c86a86e70eec81388000000000000000000000000000000000000000000000000000000000000000000000000000000000000000000000000000000000000000000000000000000002000000000000000000000000000000000000000000000000000000007735940000000000000000000000000033ca8b5377c9776eb59863fb63814dc00a5cb10d0000000000000000000000000000000000000000000000000000000000000000000000000000000000000000000000000000000000000000000000000000000000000000000000000000000000000000000000000000000000000000000000000000000000000000000000000000000000000000000000000000000000000000",
      "r": "0x6e3a02fc8fa4d7bf4afd7203023850420cd43fcca516fe723183bfcf043ccc4d",
      "s": "0x55696954cd3f88623887d53f1cde8a1639f01a39ed030f19ace2a032c1a993c2",
      "v": 27,
      "creates": null,
      "raw": "0xf9019304850db9c6aacd830f424094db7c577b93baeb56dab50af4d6f86f99a06b96a288016345785d8a0000b901241335ff360000000000000000000000078d997317b6a31cc0aea1c0c86a86e70eec81388000000000000000000000000000000000000000000000000000000000000000000000000000000000000000000000000000000000000000000000000000000002000000000000000000000000000000000000000000000000000000007735940000000000000000000000000033ca8b5377c9776eb59863fb63814dc00a5cb10d00000000000000000000000000000000000000000000000000000000000000000000000000000000000000000000000000000000000000000000000000000000000000000000000000000000000000000000000000000000000000000000000000000000000000000000000000000000000000000000000000000000000000001ba06e3a02fc8fa4d7bf4afd7203023850420cd43fcca516fe723183bfcf043ccc4da055696954cd3f88623887d53f1cde8a1639f01a39ed030f19ace2a032c1a993c2",
      "networkId": 0,
      "chainId": 0
    },
    {
      "hash": "0xeaac822cc5b76b8b2a5e9b749d3893f447cffe0ea1f7d7e9a7f303f578108b76",
      "blockHash": "0x981087c40871db81e425e163832a9f726061df611747ec7ce2fec2da17a399b3",
      "blockNumber": 76283,
      "transactionIndex": 1,
      "confirmations": null,
      "from": "0x0e320219838E859b2F9f18B72e3d4073cA50B37D",
      "gasPrice": {
        "_hex": "0xd73add30b"
      },
      "gasLimit": {
        "_hex": "0x2dc6c0"
      },
      "to": "0x35E57F2b08596f1946ECD9D31975eC3c2D7e1C1D",
      "value": {
        "_hex": "0x16345785d8a0000"
      },
      "nonce": 8,
      "data": "0xe2543d1c0000000000000000000000000000000000000000000000000000000000000028",
      "r": "0x7855aff2dfd567fc3bd6571e41cc9328cdfe1ee8027c890d7fd74dad5621c321",
      "s": "0x7263e358abf2c6f04901ef22d691b9659cfa4090d5f760a1007c087fa2f783bd",
      "v": 27,
      "creates": null,
      "raw": "0xf89108850d73add30b832dc6c09435e57f2b08596f1946ecd9d31975ec3c2d7e1c1d88016345785d8a0000a4e2543d1c00000000000000000000000000000000000000000000000000000000000000281ba07855aff2dfd567fc3bd6571e41cc9328cdfe1ee8027c890d7fd74dad5621c321a07263e358abf2c6f04901ef22d691b9659cfa4090d5f760a1007c087fa2f783bd",
      "networkId": 0,
      "chainId": 0
    }
  ]
}