{
  "hash": "0x5229f855661cd4f88769138be02185736dd88cb9736b9ad242bfe61eeb13db0e",
  "parentHash": "0x7d52b465f939348e133c9f36ed807bed4d99f14942903c894dbea563ee6a031c",
  "number": 70563,
  "timestamp": 1439321785,
  "nonce": "0x52fff1ef9e72bbc2",
  "difficulty": 2138471056150,
  "gasLimit": {
    "_hex": "0x2fefd8"
  },
  "gasUsed": {
    "_hex": "0xa410"
  },
  "miner": "0xe6A7a1d47ff21B6321162AEA7C6CB457D5476Bca",
  "extraData": "0x476574682f76312e302e312d38326566323666362f6c696e75782f676f312e34",
  "transactions": [
    {
      "hash": "0x9ab51d02f63bb6deb9bded285a811f0ec601d55530f995a5cd30bf2a8e298e34",
      "blockHash": "0x5229f855661cd4f88769138be02185736dd88cb9736b9ad242bfe61eeb13db0e",
      "blockNumber": 70563,
      "transactionIndex": 0,
      "confirmations": null,
      "from": "0x2910543Af39abA0Cd09dBb2D50200b3E800A63D2",
      "gasPrice": {
        "_hex": "0xd433a3f54"
      },
      "gasLimit": {
        "_hex": "0x5208"
      },
      "to": "0x3f7DB8eC644A6DC4Aa6904bC4F2561F697374CCb",
      "value": {
        "_hex": "0x71e529acf38fd38000"
      },
      "nonce": 243,
      "data": "0x",
      "r": "0x85429f1dfb6679de71c26a08dfcbe797ce2694063cca972e0834a325111d06f0",
      "s": "0x2990160347a4b1081ebb6b78b9844b2ed0c7834e81b9336b98328a10b3ce8ca4",
      "v": 27,
      "creates": null,
      "raw": "0xf86e81f3850d433a3f54825208943f7db8ec644a6dc4aa6904bc4f2561f697374ccb8971e529acf38fd38000801ba085429f1dfb6679de71c26a08dfcbe797ce2694063cca972e0834a325111d06f0a02990160347a4b1081ebb6b78b9844b2ed0c7834e81b9336b98328a10b3ce8ca4",
      "networkId": 0,
      "chainId": 0
    },
    {
      "hash": "0x686a1e721522a27a3cb987bd7344b47abc813260d8c89c56a6e5c54d65f25d60",
      "blockHash": "0x5229f855661cd4f88769138be02185736dd88cb9736b9ad242bfe61eeb13db0e",
      "blockNumber": 70563,
      "transactionIndex": 1,
      "confirmations": null,
      "from": "0x2910543Af39abA0Cd09dBb2D50200b3E800A63D2",
      "gasPrice": {
        "_hex": "0xd433a3f54"
      },
      "gasLimit": {
        "_hex": "0x5208"
      },
      "to": "0x1BD0c80210852114476EE06F10C72E29D4B614Ae",
      "value": {
        "_hex": "0x29af6a347436c4000"
      },
      "nonce": 244,
      "data": "0x",
      "r": "0x098bd0e3b7371b5d2642f7a9d8d011fb9456f5a9106a98edc24680027b3a5297",
      "s": "0x129ae9f617860224075c1a37f73847affc395fe2300f3fb2f183b11fa9c43756",
      "v": 28,
      "creates": null,
      "raw": "0xf86e81f4850d433a3f54825208941bd0c80210852114476ee06f10c72e29d4b614ae89029af6a347436c4000801ca0098bd0e3b7371b5d2642f7a9d8d011fb9456f5a9106a98edc24680027b3a5297a0129ae9f617860224075c1a37f73847affc395fe2300f3fb2f183b11fa9c43756",
      "networkId": 0,
      "chainId": 0
    }
  ]
}