{
  "hash": "0x54cee5fa0712bbd39d5fbc35e44f5d03f9e66de2788d55e876e8eb4dd7ecbf8d",
  "parentHash": "0x0009cb4e0688398ed5d525ce10b1963d8d94adc1d0710e29c15ff767fe558c69",
  "number": 94753,
  "timestamp": 1439713704,
  "nonce": "0x18bfb2ba771992ee",
  "difficulty": 3478027393276,
  "gasLimit": {
    "_hex": "0x2fefd8"
  },
  "gasUsed": {
    "_hex": "0xa410"
  },
  "miner": "0x3D5292e9d2a2D31014717ff936A0F9375A5Cc8b7",
  "extraData": "0x476574682f76312e302e312f77696e646f77732f676f312e342e32",
  "transactions": [
    {
      "hash": "0xafcaa008ca27ee557971d215703e10dbb88b35cd556716c84f7ae7b708199022",
      "blockHash": "0x54cee5fa0712bbd39d5fbc35e44f5d03f9e66de2788d55e876e8eb4dd7ecbf8d",
      "blockNumber": 94753,
      "transactionIndex": 0,
      "confirmations": null,
      "from": "0x1308A2e95c0160B90803ddCA9B9a5bb55E416d79",
      "gasPrice": {
        "_hex": "0xd471b5481"
      },
      "gasLimit": {
        "_hex": "0x15f90"
      },
      "to": "0xDc40b55bCeD5980430eCB529fbD95305Aa2116F3",
      "value": {
        "_hex": "0xbce18ebbd392ee800"
      },
      "nonce": 160,
      "data": "0x",
      "r": "0x4bdca4c7e5fa63eab952e0c6a65e7e87def039235870c976e4511cebf0b98fa7",
      "s": "0x239dd4e4175a8cf3c2195b905a45bdee9829eab03999ceb5de6809a40c04469e",
      "v": 27,
      "creates": null,
      "raw": "0xf86f81a0850d471b548183015f9094dc40b55bced5980430ecb529fbd95305aa2116f3890bce18ebbd392ee800801ba04bdca4c7e5fa63eab952e0c6a65e7e87def039235870c976e4511cebf0b98fa7a0239dd4e4175a8cf3c2195b905a45bdee9829eab03999ceb5de6809a40c04469e",
      "networkId": 0,
      "chainId": 0
    },
    {
      "hash": "0x81efb70f62081ea0a7b194eaab8dd0582e9bd511cf5139da7eecdc6eecc013fc",
      "blockHash": "0x54cee5fa0712bbd39d5fbc35e44f5d03f9e66de2788d55e876e8eb4dd7ecbf8d",
      "blockNumber": 94753,
      "transactionIndex": 1,
      "confirmations": null,
      "from": "0xBa9CF76D809cF9f2e3f180AFb33f0adb0826D7DF",
      "gasPrice": {
        "_hex": "0xcf45ab4f2"
      },
      "gasLimit": {
        "_hex": "0x5208"
      },
      "to": "0x32Be343B94f860124dC4fEe278FDCBD38C102D88",
      "value": {
        "_hex": "0x1cac8f6b6df106000"
      },
      "nonce": 2,
      "data": "0x",
      "r": "0xd1f537e47dcceaedce6dea1e4fa3df0d6d3603713ea2581196d26c51e2d4d157",
      "s": "0x22b3dd8db52efdac186ace6523e20233fff7f4a562af05d8d59280957b65ac9d",
      "v": 27,
      "creates": null,
      "raw": "0xf86d02850cf45ab4f28252089432be343b94f860124dc4fee278fdcbd38c102d888901cac8f6b6df106000801ba0d1f537e47dcceaedce6dea1e4fa3df0d6d3603713ea2581196d26c51e2d4d157a022b3dd8db52efdac186ace6523e20233fff7f4a562af05d8d59280957b65ac9d",
      "networkId": 0,
      "chainId": 0
    }
  ]
}