{
  "hash": "0x6ae129abf341b7d5f326e31e3fdffe8e3f50af466ee1a130c59194c32d5c4ac0",
  "parentHash": "0x0eab491186fa24f99c1d1997ef5dd879d1cac2c4dac423e38d3eba1eabfaeeda",
  "number": 66620,
  "timestamp": 1439257614,
  "nonce": "0xdec7bee4b8e4770f",
  "difficulty": 1945164024627,
  "gasLimit": {
    "_hex": "0x2fefd8"
  },
  "gasUsed": {
    "_hex": "0x5208"
  },
  "miner": "0x0eDEd3DA479d0beF8eeC92A76644D3f4E3C177f7",
  "extraData": "0x476574682f76312e302e312f6c696e75782f676f312e342e32",
  "transactions": [
    {
      "hash": "0x1624a575babe5bfcd170ee074d88203dad7e520b98a83e73a948fb76fe9d42e3",
      "blockHash": "0x6ae129abf341b7d5f326e31e3fdffe8e3f50af466ee1a130c59194c32d5c4ac0",
      "blockNumber": 66620,
      "transactionIndex": 0,
      "confirmations": null,
      "from": "0x87898CE53471043FcCa0a2aF4E1dC6d8B3fCf607",
      "gasPrice": {
        "_hex": "0xdd6b57f71"
      },
      "gasLimit": {
        "_hex": "0x5208"
      },
      "to": "0xBFdD9820a04283b289957956353b5F3C1F665EcF",
      "value": {
        "_hex": "0x1158e460913d00000"
      },
      "nonce": 19,
      "data": "0x",
      "r": "0x3cbf219ac8633302ba509074b629e46bb05b69e3a11fb2d94634672260548fc4",
      "s": "0x2e15543b39d0dbd64b8f0f54f1c4d42770d864c6408d06eaedde4277c3201f65",
      "v": 28,
      "creates": null,
      "raw": "0xf86d13850dd6b57f7182520894bfdd9820a04283b289957956353b5f3c1f665ecf8901158e460913d00000801ca03cbf219ac8633302ba509074b629e46bb05b69e3a11fb2d94634672260548fc4a02e15543b39d0dbd64b8f0f54f1c4d42770d864c6408d06eaedde4277c3201f65",
      "networkId": 0,
      "chainId": 0
    }
  ]
}