{
  "hash": "0xbd5cde7a18000e68bc4070444dae3ae3af1cfdf3d080e83984dc7d679131d283",
  "parentHash": "0xa8e031d9c0ec4ef438141ed5716a15a4b004ac2358d97a60246d42386724d9c6",
  "number": 105491,
  "timestamp": 1439888596,
  "nonce": "0x299acac909c834cb",
  "difficulty": 4378168793899,
  "gasLimit": {
    "_hex": "0x2fefd8"
  },
  "gasUsed": {
    "_hex": "0x5208"
  },
  "miner": "0x9Fa9952255B2b06639A04D63804d4BdFFf6E2d7e",
  "extraData": "0x476574682f76312e302e312f77696e646f77732f676f312e342e32",
  "transactions": [
    {
      "hash": "0x82c1e97c7e19f27456b4d71f055b0dd4ff9e04a64e885b75fa33755e83a29e6d",
      "blockHash": "0xbd5cde7a18000e68bc4070444dae3ae3af1cfdf3d080e83984dc7d679131d283",
      "blockNumber": 105491,
      "transactionIndex": 0,
      "confirmations": null,
      "from": "0x32Be343B94f860124dC4fEe278FDCBD38C102D88",
      "gasPrice": {
        "_hex": "0xcbec18ffc"
      },
      "gasLimit": {
        "_hex": "0x5208"
      },
      "to": "0x6F298BCF4f0A82Ceb3Ebfc9f2dc32C3cb8687EFc",
      "value": {
        "_hex": "0xde0b6b3a7640000"
      },
      "nonce": 1171,
      "data": "0x",
      "r": "0x925a3020cbb9807130e86c15c3adf8290d7c67d958b690ad84c453cf5bf1ca92",
      "s": "0x553f1040fe8bf082d5bd571286df46a00fe43e86b1bcfa01fc227b5e4546fac6",
      "v": 28,
      "creates": null,
      "raw": "0xf86e820493850cbec18ffc825208946f298bcf4f0a82ceb3ebfc9f2dc32c3cb8687efc880de0b6b3a7640000801ca0925a3020cbb9807130e86c15c3adf8290d7c67d958b690ad84c453cf5bf1ca92a0553f1040fe8bf082d5bd571286df46a00fe43e86b1bcfa01fc227b5e4546fac6",
      "networkId": 0,
      "chainId": 0
    }
  ]
}