{
  "hash": "0xb87154d4a7f2e4f54b1f9e92c406d5b1636e74b4cd59f1011fb4614b5c953e69",
  "parentHash": "0x37b427389eb48e53d990ba03116a656c827d65e77d4d7df815692cec3b1781a3",
  "number": 89801,
  "timestamp": 1439629422,
  "nonce": "0x9a9000b1cd8c226c",
  "difficulty": 3336970721093,
  "gasLimit": {
    "_hex": "0x2fefd8"
  },
  "gasUsed": {
    "_hex": "0x5208"
  },
  "miner": "0x007f7f58D3eb5b7510A301eCC749FC1fCDDBE14D",
  "extraData": "0x476574682f76312e302e312f77696e646f77732f676f312e342e32",
  "transactions": [
    {
      "hash": "0xd432cc92977db6cb0f0cd75f66b90aee216214580ee1be9e357a5e906ae09f22",
      "blockHash": "0xb87154d4a7f2e4f54b1f9e92c406d5b1636e74b4cd59f1011fb4614b5c953e69",
      "blockNumber": 89801,
      "transactionIndex": 0,
      "confirmations": null,
      "from": "0xeCdf9d571849dE520c84eBEd7Ac4551e483eA5b3",
      "gasPrice": {
        "_hex": "0xcb2d39b37"
      },
      "gasLimit": {
        "_hex": "0x5208"
      },
      "to": "0x32Be343B94f860124dC4fEe278FDCBD38C102D88",
      "value": {
        "_hex": "0x97eeb3b65c681800"
      },
      "nonce": 4,
      "data": "0x",
      "r": "0xf00d8ff7471707468863b51fc2254d146cb663afa81cd7459f5c00a05d295e09",
      "s": "0x3c424501b3ab359f436c5d461c3b5d6c65f3fef86a9b1a98e86e36181b5cd52f",
      "v": 27,
      "creates": null,
      "raw": "0xf86c04850cb2d39b378252089432be343b94f860124dc4fee278fdcbd38c102d888897eeb3b65c681800801ba0f00d8ff7471707468863b51fc2254d146cb663afa81cd7459f5c00a05d295e09a03c424501b3ab359f436c5d461c3b5d6c65f3fef86a9b1a98e86e36181b5cd52f",
      "networkId": 0,
      "chainId": 0
    }
  ]
}