{
  "hash": "0x57abbc590096b135044808f5f5f8017e27dea32380d0e12dcea31b1b82331e61",
  "parentHash": "0xf5f50830e57e025cdcd5585d9cc8753cdaffe5f98cd587a5ce539583c14018fb",
  "number": 109407,
  "timestamp": 1439955975,
  "nonce": "0x9e1ef9a60dab1951",
  "difficulty": 4475529501292,
  "gasLimit": {
    "_hex": "0x2fefd8"
  },
  "gasUsed": {
    "_hex": "0x5208"
  },
  "miner": "0xe6A7a1d47ff21B6321162AEA7C6CB457D5476Bca",
  "extraData": "0x476574682f76312e302e312d38326566323666362f6c696e75782f676f312e34",
  "transactions": [
    {
      "hash": "0xcc217e3cf37a2055fd1ec77e2b6cc0fe42385dc97afbfda17f9ad1efe2d321c3",
      "blockHash": "0x57abbc590096b135044808f5f5f8017e27dea32380d0e12dcea31b1b82331e61",
      "blockNumber": 109407,
      "transactionIndex": 0,
      "confirmations": null,
      "from": "0x32Be343B94f860124dC4fEe278FDCBD38C102D88",
      "gasPrice": {
        "_hex": "0xd256d03cc"
      },
      "gasLimit": {
        "_hex": "0x5208"
      },
      "to": "0x10c4712a317A10F60fE9347b199400d6BaA89558",
      "value": {
        "_hex": "0x13c3b93cd65ffd000"
      },
      "nonce": 1274,
      "data": "0x",
      "r": "0x81d340ee0615dc743e45cb1f804f9800faac625cf5eb81aa9b7ae2235b6650ef",
      "s": "0x4f592f4b54140f444b3e680ef6115120c41daae3597593420a2c08e6865a4dd0",
      "v": 28,
      "creates": null,
      "raw": "0xf86f8204fa850d256d03cc8252089410c4712a317a10f60fe9347b199400d6baa8955889013c3b93cd65ffd000801ca081d340ee0615dc743e45cb1f804f9800faac625cf5eb81aa9b7ae2235b6650efa04f592f4b54140f444b3e680ef6115120c41daae3597593420a2c08e6865a4dd0",
      "networkId": 0,
      "chainId": 0
    }
  ]
}