{
  "hash": "0x8d6ccf4894c1153866d6df5a0d356d82d942a336b3db2b9e5c39e2feab513aa8",
  "parentHash": "0x69395d09bbadbe586e26f70c9a7b311ab2cca2c70cef0a52f25993e541a3730a",
  "number": 68009,
  "timestamp": 1439281213,
  "nonce": "0x10205c6d0a2cef16",
  "difficulty": 1947692945129,
  "gasLimit": {
    "_hex": "0x2fefd8"
  },
  "gasUsed": {
    "_hex": "0x5208"
  },
  "miner": "0x02020D22dCF88f5eDd66B382D7da019F161fB7e3",
  "extraData": "0x",
  "transactions": [
    {
      "hash": "0x51f19b2541c9d4a83ac2fb49687d71c41bfa58057ca8f690f20945f1752ce6a2",
      "blockHash": "0x8d6ccf4894c1153866d6df5a0d356d82d942a336b3db2b9e5c39e2feab513aa8",
      "blockNumber": 68009,
      "transactionIndex": 0,
      "confirmations": null,
      "from": "0x458F183347F45a4001807728A89F31E9Da9D4A58",
      "gasPrice": {
        "_hex": "0xd3d37f23a"
      },
      "gasLimit": {
        "_hex": "0x15f90"
      },
      "to": "0x7fa165177F28D171bA7C17f765c1904344Ec64CB",
      "value": {
        "_hex": "0x70c1cc73b00c80000"
      },
      "nonce": 6,
      "data": "0x",
      "r": "0xd6932dcc1ac532cd8301b9d3879ad3365395590046602377ec570a695e36d5c6",
      "s": "0x1bbb358e78ac1eeb955ce454a9a3db573c2d46af450fee2b6d232b72750f4ba4",
      "v": 27,
      "creates": null,
      "raw": "0xf86e06850d3d37f23a83015f90947fa165177f28d171ba7c17f765c1904344ec64cb89070c1cc73b00c80000801ba0d6932dcc1ac532cd8301b9d3879ad3365395590046602377ec570a695e36d5c6a01bbb358e78ac1eeb955ce454a9a3db573c2d46af450fee2b6d232b72750f4ba4",
      "networkId": 0,
      "chainId": 0
    }
  ]
}