{
  "hash": "0x0e4c22e96ef0dea4b7d8afe1d6053b8d9cc7a78e2ddc0f93bbbdddb5e04c5f35",
  "parentHash": "0xddc87f8ff41b6f07b9c01f84190140b38b682e05593a57c3260572290ecf49a8",
  "number": 58374,
  "timestamp": 1439119494,
  "nonce": "0x94ceedf8f714fc33",
  "difficulty": 1718289458319,
  "gasLimit": {
    "_hex": "0x2fefd8"
  },
  "gasUsed": {
    "_hex": "0x5208"
  },
  "miner": "0x79ca0E269c8949Ee9a58aB594a2DbbeFb230edF3",
  "extraData": "0x",
  "transactions": [
    {
      "hash": "0x4c2a6a94751cfe21a3ea599ab9077ad9b93f77320adbef2a284995581337eb7b",
      "blockHash": "0x0e4c22e96ef0dea4b7d8afe1d6053b8d9cc7a78e2ddc0f93bbbdddb5e04c5f35",
      "blockNumber": 58374,
      "transactionIndex": 0,
      "confirmations": null,
      "from": "0x32Be343B94f860124dC4fEe278FDCBD38C102D88",
      "gasPrice": {
        "_hex": "0xce585ffc0"
      },
      "gasLimit": {
        "_hex": "0x5208"
      },
      "to": "0x109C4f2CCc82C4d77Bde15F306707320294Aea3F",
      "value": {
        "_hex": "0xde0b6b3a7640000"
      },
      "nonce": 97,
      "data": "0x",
      "r": "0x341c33bd40008caf14cd11f2c03afe91abd1196ba76e20026fe27e29b168cdca",
      "s": "0x41bcd7248af9c3f6e75c2ec039c341995dbe6267d278af1caf3a4b6ad173093f",
      "v": 27,
      "creates": null,
      "raw": "0xf86c61850ce585ffc082520894109c4f2ccc82c4d77bde15f306707320294aea3f880de0b6b3a7640000801ba0341c33bd40008caf14cd11f2c03afe91abd1196ba76e20026fe27e29b168cdcaa041bcd7248af9c3f6e75c2ec039c341995dbe6267d278af1caf3a4b6ad173093f",
      "networkId": 0,
      "chainId": 0
    }
  ]
}