{
  "hash": "0x7aa619c885b81863fa7d5da8b75b4babc2dcd77250afe58b19c4841073715444",
  "parentHash": "0x81673f96e579be10a3f6fb6e07e964347bdee7595531c45b60174793c6de848b",
  "number": 84748,
  "timestamp": 1439554066,
  "nonce": "0x74b7bb2c9dfa3c3b",
  "difficulty": 2619517105380,
  "gasLimit": {
    "_hex": "0x2fefd8"
  },
  "gasUsed": {
    "_hex": "0x5208"
  },
  "miner": "0x9D49F602b0fdb924Bd63DDE2Bd0907E4A07c63a7",
  "extraData": "0x476574682f76312e302e312f6c696e75782f676f312e342e32",
  "transactions": [
    {
      "hash": "0x0ba46aa9d73141e97b32cd8d5dd24b0f893b159a18061a64284c8b6c9aef2ab1",
      "blockHash": "0x7aa619c885b81863fa7d5da8b75b4babc2dcd77250afe58b19c4841073715444",
      "blockNumber": 84748,
      "transactionIndex": 0,
      "confirmations": null,
      "from": "0x2910543Af39abA0Cd09dBb2D50200b3E800A63D2",
      "gasPrice": {
        "_hex": "0xcd9278da9"
      },
      "gasLimit": {
        "_hex": "0x5208"
      },
      "to": "0xAfB0dFf6a88F9c755dB704eC522eBE7B1b0Da498",
      "value": {
        "_hex": "0x2b5d1eb9d79a78000"
      },
      "nonce": 573,
      "data": "0x",
      "r": "0x7cdb1dd8f7fbc9a4156845f674b3f5e9e4bb9f8b50908f50c077fa6931b211c8",
      "s": "0x28977b3194db583ce5dc484ec0286eaac5582dd7d431e2cf96db8ee0a840effa",
      "v": 28,
      "creates": null,
      "raw": "0xf86f82023d850cd9278da982520894afb0dff6a88f9c755db704ec522ebe7b1b0da4988902b5d1eb9d79a78000801ca07cdb1dd8f7fbc9a4156845f674b3f5e9e4bb9f8b50908f50c077fa6931b211c8a028977b3194db583ce5dc484ec0286eaac5582dd7d431e2cf96db8ee0a840effa",
      "networkId": 0,
      "chainId": 0
    }
  ]
}