{
  "hash": "0x2c5e179c2d1cf3249e1470c65114a6d1ead59a4524458444387b44a1b2211bf8",
  "parentHash": "0x9cdfe671d7e619c076a86692a5c5e1d6822edf0cec7e015c46c06d4976402f68",
  "number": 84209,
  "timestamp": 1439546437,
  "nonce": "0x7122ca9858734176",
  "difficulty": 2523019969106,
  "gasLimit": {
    "_hex": "0x2fefd8"
  },
  "gasUsed": {
    "_hex": "0x5208"
  },
  "miner": "0x55bAf64fc9eAccFFd7Cc643BB61142E1C6ac093e",
  "extraData": "0x",
  "transactions": [
    {
      "hash": "0xa51f6929608e7b8a3d0d6f5deca7cef43a3be0d92aff2c28d424486b16c873af",
      "blockHash": "0x2c5e179c2d1cf3249e1470c65114a6d1ead59a4524458444387b44a1b2211bf8",
      "blockNumber": 84209,
      "transactionIndex": 0,
      "confirmations": null,
      "from": "0x64c0f4A860176e4f956550703F0eF522A9eD06F9",
      "gasPrice": {
        "_hex": "0xd8aa70f90"
      },
      "gasLimit": {
        "_hex": "0x15f90"
      },
      "to": "0xFDE80370e058cfC8292D8eE4D7ed14c37Aa66D89",
      "value": {
        "_hex": "0xa1544be879ea80000"
      },
      "nonce": 2,
      "data": "0x",
      "r": "0x3695feecda2eb46c1c903ff01ed412b96828eaf3018658cd00bbfc35d3fac0da",
      "s": "0x0e66387a59fab5270c7d3f0ccb085670d2c064702507f9b6f5f495e9c79af2b9",
      "v": 28,
      "creates": null,
      "raw": "0xf86e02850d8aa70f9083015f9094fde80370e058cfc8292d8ee4d7ed14c37aa66d89890a1544be879ea80000801ca03695feecda2eb46c1c903ff01ed412b96828eaf3018658cd00bbfc35d3fac0daa00e66387a59fab5270c7d3f0ccb085670d2c064702507f9b6f5f495e9c79af2b9",
      "networkId": 0,
      "chainId": 0
    }
  ]
}