{
  "hash": "0x8dfd9f6877081787da4c2924d0026a5aefc025273ed2250c848933f450e73d1f",
  "parentHash": "0x2e374f10f5c7d3529f028e184302d08fc843ab4f7ec0fdc540e60a3d6ad20d18",
  "number": 102187,
  "timestamp": 1439834163,
  "nonce": "0x997e71cc3e3d0d35",
  "difficulty": 3914625724649,
  "gasLimit": {
    "_hex": "0x2fefd8"
  },
  "gasUsed": {
    "_hex": "0x5208"
  },
  "miner": "0xf927a40C8B7F6E07c5af7FA2155B4864a4112B13",
  "extraData": "0x",
  "transactions": [
    {
      "hash": "0xa190c08a87850dc6c3c018f89b2fcc8d8ef43fca0cda9143bfaf1b3b4c2771d5",
      "blockHash": "0x8dfd9f6877081787da4c2924d0026a5aefc025273ed2250c848933f450e73d1f",
      "blockNumber": 102187,
      "transactionIndex": 0,
      "confirmations": null,
      "from": "0x63e2599604Db7711Eed64E12B8Ad553b5F5D0eF0",
      "gasPrice": {
        "_hex": "0xd707e605c"
      },
      "gasLimit": {
        "_hex": "0x5208"
      },
      "to": "0x32Be343B94f860124dC4fEe278FDCBD38C102D88",
      "value": {
        "_hex": "0x457a71b712420c000"
      },
      "nonce": 0,
      "data": "0x",
      "r": "0x2b7084c85f5fc6defdc071ad54f08ad50279953d96bb7b7d6493e7e9f6b65c6f",
      "s": "0x5f6b0092a6321dd6a59158fba3392d8c1234da2d1d92970c60129006a4aa4323",
      "v": 28,
      "creates": null,
      "raw": "0xf86d80850d707e605c8252089432be343b94f860124dc4fee278fdcbd38c102d88890457a71b712420c000801ca02b7084c85f5fc6defdc071ad54f08ad50279953d96bb7b7d6493e7e9f6b65c6fa05f6b0092a6321dd6a59158fba3392d8c1234da2d1d92970c60129006a4aa4323",
      "networkId": 0,
      "chainId": 0
    }
  ]
}