{
  "hash": "0xc1b2e907a679c4097f0b129ef749a9943b3d12171aa990a79d47d673a80bd892",
  "parentHash": "0xc06002b74d2113bd8e87069a86b94012df0dd9e80aac37e762c23d031ff4c688",
  "number": 77413,
  "timestamp": 1439436797,
  "nonce": "0xbf48b397a96aad5c",
  "difficulty": 2232718376863,
  "gasLimit": {
    "_hex": "0x2fefd8"
  },
  "gasUsed": {
    "_hex": "0x5208"
  },
  "miner": "0xe6A7a1d47ff21B6321162AEA7C6CB457D5476Bca",
  "extraData": "0x476574682f76312e302e312d38326566323666362f6c696e75782f676f312e34",
  "transactions": [
    {
      "hash": "0xc33431fc5dc0d16d00193dd15494f4da58eeb68259ddf07670c0349238e5565c",
      "blockHash": "0xc1b2e907a679c4097f0b129ef749a9943b3d12171aa990a79d47d673a80bd892",
      "blockNumber": 77413,
      "transactionIndex": 0,
      "confirmations": null,
      "from": "0xC99478b218E58F45783fA70f0507cf614938E67d",
      "gasPrice": {
        "_hex": "0xd28856576"
      },
      "gasLimit": {
        "_hex": "0x15f90"
      },
      "to": "0xC3fe64D1af00F0d9c324E4387EF7533f7D788e95",
      "value": {
        "_hex": "0x47e30e8e20860000"
      },
      "nonce": 12,
      "data": "0x",
      "r": "0xadf07b92f625bb92595471db806411001b06da2d61165bc788f68441ac85527b",
      "s": "0x165ad29b090a3d31a4f594eb098ec96c7f55a0ff9e7eed3dbefcb20b1f3e67b9",
      "v": 27,
      "creates": null,
      "raw": "0xf86d0c850d2885657683015f9094c3fe64d1af00f0d9c324e4387ef7533f7d788e958847e30e8e20860000801ba0adf07b92f625bb92595471db806411001b06da2d61165bc788f68441ac85527ba0165ad29b090a3d31a4f594eb098ec96c7f55a0ff9e7eed3dbefcb20b1f3e67b9",
      "networkId": 0,
      "chainId": 0
    }
  ]
}