{
  "hash": "0x3810d1c1efbd984f690c8cdea19763984a9b366f0761caf3feade32e7c746207",
  "parentHash": "0x0ed2c6a74f0d51fcc6dafa968b5aa7f5c81221f42e3bdb430bf3068296fd7f24",
  "number": 111520,
  "timestamp": 1439991600,
  "nonce": "0x9211b08fbc6033d6",
  "difficulty": 4450434294118,
  "gasLimit": {
    "_hex": "0x2fefd8"
  },
  "gasUsed": {
    "_hex": "0x5208"
  },
  "miner": "0x580992B51e3925e23280EfB93d3047C82f17E038",
  "extraData": "0x476574682f76312e302e312f6c696e75782f676f312e342e32",
  "transactions": [
    {
      "hash": "0x0b2b493e872ab843ff16753a005b344158a07045669e01518313896cede3ff9e",
      "blockHash": "0x3810d1c1efbd984f690c8cdea19763984a9b366f0761caf3feade32e7c746207",
      "blockNumber": 111520,
      "transactionIndex": 0,
      "confirmations": null,
      "from": "0x3222BA3F3e79eA0e31467EEE7639B57923558cCD",
      "gasPrice": {
        "_hex": "0xd6bd60364"
      },
      "gasLimit": {
        "_hex": "0x5208"
      },
      "to": "0x5E33810d055F68eBA415be93fAEC212e9a2d6723",
      "value": {
        "_hex": "0x1190673b5fda900000"
      },
      "nonce": 3,
      "data": "0x",
      "r": "0xe8eb808333c51b52205cd04e608049a086c6903ffc53daea4d1fa4d91d175ed6",
      "s": "0x4a9d6f673c9a09792981c8104ca5105c6f2f9c0774cecc386172946b8348b7cd",
      "v": 28,
      "creates": null,
      "raw": "0xf86d03850d6bd60364825208945e33810d055f68eba415be93faec212e9a2d6723891190673b5fda900000801ca0e8eb808333c51b52205cd04e608049a086c6903ffc53daea4d1fa4d91d175ed6a04a9d6f673c9a09792981c8104ca5105c6f2f9c0774cecc386172946b8348b7cd",
      "networkId": 0,
      "chainId": 0
    }
  ]
}