{
  "hash": "0x7e1a150b2724a32c88869aabeb10efd16ca3f22eef2ed8953144de13233ab831",
  "parentHash": "0xd9bf710327e0d5702e8ed64a326b5177eb15646ad6f3a8ec0bd3308494f6e1ad",
  "number": 82818,
  "timestamp": 1439525712,
  "nonce": "0x92128df54290b7b2",
  "difficulty": 2378667290041,
  "gasLimit": {
    "_hex": "0x2fefd8"
  },
  "gasUsed": {
    "_hex": "0x5208"
  },
  "miner": "0xf8E0CA3Ed80bd541b94BEdCf259e8CF2141A9523",
  "extraData": "0x476574682f76312e302e312f77696e646f77732f676f312e342e32",
  "transactions": [
    {
      "hash": "0x01d09187d021c8e3dada6a0a1206a81461599f0f768c5d6c980d27c7c85d4d29",
      "blockHash": "0x7e1a150b2724a32c88869aabeb10efd16ca3f22eef2ed8953144de13233ab831",
      "blockNumber": 82818,
      "transactionIndex": 0,
      "confirmations": null,
      "from": "0x120A270bbC009644e35F0bB6ab13f95b8199c4ad",
      "gasPrice": {
        "_hex": "0xd89164503"
      },
      "gasLimit": {
        "_hex": "0x3d090"
      },
      "to": "0xCFac548F6C7Aa43932439B30d60A813cfB93171e",
      "value": {
        "_hex": "0xb8ca4850c42a9000"
      },
      "nonce": 405,
      "data": "0x",
      "r": "0x7d261b138969db80d2c9d1bab194ac9d0abcf45a449626182a62a7bf77c8727e",
      "s": "0x792efcd7ed6c4e3b3f990bbd323d744932c524456f0527665512063d1349b621",
      "v": 28,
      "creates": null,
      "raw": "0xf86f820195850d891645038303d09094cfac548f6c7aa43932439b30d60a813cfb93171e88b8ca4850c42a9000801ca07d261b138969db80d2c9d1bab194ac9d0abcf45a449626182a62a7bf77c8727ea0792efcd7ed6c4e3b3f990bbd323d744932c524456f0527665512063d1349b621",
      "networkId": 0,
      "chainId": 0
    }
  ]
}