{
  "hash": "0x0633c8d4a1c79d626cb3389c174b6b4704f507c300b04ad267f5b6f125d1f948",
  "parentHash": "0xc5b698d7c77de13b5288782d251b0d1a73670f9e607fa9006146d8adb1385d63",
  "number": 122261,
  "timestamp": 1440191088,
  "nonce": "0x3be5ad11109e0481",
  "difficulty": 4459957458330,
  "gasLimit": {
    "_hex": "0x2fefd8"
  },
  "gasUsed": {
    "_hex": "0x5208"
  },
  "miner": "0xf32866D5cE9a9b5673e076be48AbCd6ED48ADe78",
  "extraData": "0xd783010002844765746887676f312e342e32856c696e7578",
  "transactions": [
    {
      "hash": "0xe5d1a971150433521a1fa2fef08d72573c2a6bcd520ae5824f4522bec959b699",
      "blockHash": "0x0633c8d4a1c79d626cb3389c174b6b4704f507c300b04ad267f5b6f125d1f948",
      "blockNumber": 122261,
      "transactionIndex": 0,
      "confirmations": null,
      "from": "0x60a175bB691fEE8557a7b6D8eFC9E49889486f41",
      "gasPrice": {
        "_hex": "0xba43b7400"
      },
      "gasLimit": {
        "_hex": "0x15f90"
      },
      "to": "0xBb7f43EDfd8bf08B022fEd5BD91e3f9dE7e74D09",
      "value": {
        "_hex": "0x1a055690d9db80000"
      },
      "nonce": 21,
      "data": "0x",
      "r": "0xd4368df7cd8fff7d5b27ee19eba0a4de8001ebce3d50f57bf86f085c5e1950d4",
      "s": "0x16f018d9d07177f18d8ba0923e30012380a6b46ff61f94972859d1cef09b0795",
      "v": 27,
      "creates": null,
      "raw": "0xf86e15850ba43b740083015f9094bb7f43edfd8bf08b022fed5bd91e3f9de7e74d098901a055690d9db80000801ba0d4368df7cd8fff7d5b27ee19eba0a4de8001ebce3d50f57bf86f085c5e1950d4a016f018d9d07177f18d8ba0923e30012380a6b46ff61f94972859d1cef09b0795",
      "networkId": 0,
      "chainId": 0
    }
  ]
}