{
  "hash": "0x35719304a8ba502a182eca684bdd5404f10147e80e85dc13574e7183213c83db",
  "parentHash": "0x1ac66c0d023b6135d5297466399819e10f840e2a6c8380636951b9b5d9d1a14b",
  "number": 52496,
  "timestamp": 1439022527,
  "nonce": "0x97e2d0547f9f35a7",
  "difficulty": 1568677840933,
  "gasLimit": {
    "_hex": "0x148289"
  },
  "gasUsed": {
    "_hex": "0x5898"
  },
  "miner": "0xf8E0CA3Ed80bd541b94BEdCf259e8CF2141A9523",
  "extraData": "0x476574682f76312e302e312f77696e646f77732f676f312e342e32",
  "transactions": [
    {
      "hash": "0x341febf8cd88e5eb68387c3c30b5bbdef6c5ac7c529cae45e1034b10519c7bc0",
      "blockHash": "0x35719304a8ba502a182eca684bdd5404f10147e80e85dc13574e7183213c83db",
      "blockNumber": 52496,
      "transactionIndex": 0,
      "confirmations": null,
      "from": "0x48CD680bb700F6b7DE89Dd9FF4932CcC158c3e05",
      "gasPrice": {
        "_hex": "0xd3d37f23a"
      },
      "gasLimit": {
        "_hex": "0x15f90"
      },
      "to": "0x9018e2967c15E1fAed9B5D6439522F075535a683",
      "value": {
        "_hex": "0x0"
      },
      "nonce": 1,
      "data": "0x4fb2e45d000000000000000000000000326be8f71bfb0379f989aab1cc1fe37f0a771f60",
      "r": "0x7e6ef53a693d12c70c6630d825aebe2a2d2545814fec6eb0d278d68d10e7478e",
      "s": "0x74d208f9bec7d74b80df9cd8fe8d9a48f0bd140989a8491f5bf0f8e3a4784bb9",
      "v": 27,
      "creates": null,
      "raw": "0xf88901850d3d37f23a83015f90949018e2967c15e1faed9b5d6439522f075535a68380a44fb2e45d000000000000000000000000326be8f71bfb0379f989aab1cc1fe37f0a771f601ba07e6ef53a693d12c70c6630d825aebe2a2d2545814fec6eb0d278d68d10e7478ea074d208f9bec7d74b80df9cd8fe8d9a48f0bd140989a8491f5bf0f8e3a4784bb9",
      "networkId": 0,
      "chainId": 0
    }
  ]
}