{
  "hash": "0x711bfeec511e814aff6baa7111d0eda620c9da9cb5c50e8886cf496a7af56c29",
  "parentHash": "0x9159daa81cfafcdadfdceb27f67a0bc3c8d24c396c6b6e0e8bd6ad60024d2e58",
  "number": 48675,
  "timestamp": 1438960891,
  "nonce": "0xd2e8a207f81afdfa",
  "difficulty": 1472149790506,
  "gasLimit": {
    "_hex": "0x1bcc4"
  },
  "gasUsed": {
    "_hex": "0xa8c4"
  },
  "miner": "0x157c6f2431eB1a95797EE86F7d17b3c0FD47A247",
  "extraData": "0x476574682f76312e302e312f77696e646f77732f676f312e342e32",
  "transactions": [
    {
      "hash": "0x90540db753ae1eeae2809a2b7e50ecea49874856b63482e40ca09e127876d81b",
      "blockHash": "0x711bfeec511e814aff6baa7111d0eda620c9da9cb5c50e8886cf496a7af56c29",
      "blockNumber": 48675,
      "transactionIndex": 0,
      "confirmations": null,
      "from": "0x431F2C19E316B044a4b3E61A0C6ff8C104a1A12f",
      "gasPrice": {
        "_hex": "0x1078919c882"
      },
      "gasLimit": {
        "_hex": "0x15f90"
      },
      "to": "0x2910543Af39abA0Cd09dBb2D50200b3E800A63D2",
      "value": {
        "_hex": "0xde0b6b3a7640000"
      },
      "nonce": 0,
      "data": "0x454e314338315a4247",
      "r": "0xcbafcf4f63ce6b01d8858efdfc58b4c94b60056df3005b1becbcb6b565335354",
      "s": "0x1fb0111de500c8545c8c3293428bfbdf5953ec7cadfb11ea3b12820902339b18",
      "v": 27,
      "creates": null,
      "raw": "0xf877808601078919c88283015f90942910543af39aba0cd09dbb2d50200b3e800a63d2880de0b6b3a764000089454e314338315a42471ba0cbafcf4f63ce6b01d8858efdfc58b4c94b60056df3005b1becbcb6b565335354a01fb0111de500c8545c8c3293428bfbdf5953ec7cadfb11ea3b12820902339b18",
      "networkId": 0,
      "chainId": 0
    },
    {
      "hash": "0x0b350c1131b0b24ca4f869fc114570550ea87d45b48dbfc4ae1ce3149d9e7fa5",
      "blockHash": "0x711bfeec511e814aff6baa7111d0eda620c9da9cb5c50e8886cf496a7af56c29",
      "blockNumber": 48675,
      "transactionIndex": 1,
      "confirmations": null,
      "from": "0x22F2DcFf5aD78c3Eb6850B5Cb951127B659522E6",
      "gasPrice": {
        "_hex": "0xd599814f0"
      },
      "gasLimit": {
        "_hex": "0x15f90"
      },
      "to": "0x0000000000000000000000000000000000000000",
      "value": {
        "_hex": "0x0"
      },
      "nonce": 7,
      "data": "0x432ced04676f640000000000000000000000000000000000000000000000000000000000",
      "r": "0x8ef97cc4bb0b175397f5828c25ccdca9378e7b1c914113ab22ac46853b47e6cc",
      "s": "0x510d9b8a6be4927d765f3a8aedb9677028d6fbbe29dc3410f4c9183e0645a2ea",
      "v": 27,
      "creates": null,
      "raw": "0xf88907850d599814f083015f9094000000000000000000000000000000000000000080a4432ced04676f6400000000000000000000000000000000000000000000000000000000001ba08ef97cc4bb0b175397f5828c25ccdca9378e7b1c914113ab22ac46853b47e6cca0510d9b8a6be4927d765f3a8aedb9677028d6fbbe29dc3410f4c9183e0645a2ea",
      "networkId": 0,
      "chainId": 0
    }
  ]
}