{
  "hash": "0xefa0a8c1a0de4f37abebe07061db72e52a8fbfe03b2a161c672c3854dc5cb31f",
  "parentHash": "0xc0e990ac74f9e11f04c32033e535bc6d9c8dc40df9ce61daf214821fadf34bc3",
  "number": 101741,
  "timestamp": 1439827421,
  "nonce": "0x0b669147ecec308b",
  "difficulty": 3873005046501,
  "gasLimit": {
    "_hex": "0x2fefd5"
  },
  "gasUsed": {
    "_hex": "0xa414"
  },
  "miner": "0xe6A7a1d47ff21B6321162AEA7C6CB457D5476Bca",
  "extraData": "0x476574682f76312e302e312d38326566323666362f6c696e75782f676f312e34",
  "transactions": [
    {
      "hash": "0xc1f7c00abef9317fe6ab783471663429eff80c669f393f6bc933447c2615f0bb",
      "blockHash": "0xefa0a8c1a0de4f37abebe07061db72e52a8fbfe03b2a161c672c3854dc5cb31f",
      "blockNumber": 101741,
      "transactionIndex": 0,
      "confirmations": null,
      "from": "0x0D4EcC7d750180EBf4A9Df728B6669B5Bceb5E40",
      "gasPrice": {
        "_hex": "0xe16b5872c"
      },
      "gasLimit": {
        "_hex": "0x5208"
      },
      "to": "0x32Be343B94f860124dC4fEe278FDCBD38C102D88",
      "value": {
        "_hex": "0x4563756c7585c000"
      },
      "nonce": 64,
      "data": "0x",
      "r": "0x0a77f8a9c449b55d1dad60809e6712f0c7cd16b54ee76b93e38641f7d76175aa",
      "s": "0x61eb8dc6a9a7c4ff33d6e588708040b63be5e7c3f816fc561c5dc92247acc5ca",
      "v": 27,
      "creates": null,
      "raw": "0xf86c40850e16b5872c8252089432be343b94f860124dc4fee278fdcbd38c102d88884563756c7585c000801ba00a77f8a9c449b55d1dad60809e6712f0c7cd16b54ee76b93e38641f7d76175aaa061eb8dc6a9a7c4ff33d6e588708040b63be5e7c3f816fc561c5dc92247acc5ca",
      "networkId": 0,
      "chainId": 0
    },
    {
      "hash": "0x923b13b0759dceb21efa7c3224a63ce581c7a7de3a850683173b115bdd9b18a6",
      "blockHash": "0xefa0a8c1a0de4f37abebe07061db72e52a8fbfe03b2a161c672c3854dc5cb31f",
      "blockNumber": 101741,
      "transactionIndex": 1,
      "confirmations": null,
      "from": "0x95a204DD5D814E40f300bA0DfB1194286F03e28A",
      "gasPrice": {
        "_hex": "0xd1ad38302"
      },
      "gasLimit": {
        "_hex": "0x7530"
      },
      "to": "0xe7B79D2Fd13B6F1aEfF4274e8a17364219e00D01",
      "value": {
        "_hex": "0x8ac7230489e80000"
      },
      "nonce": 6,
      "data": "0x00",
      "r": "0x19e9280ba0eb0177a2742445a6b95922f114871a5eeff9c7e7a5814a153b5d47",
      "s": "0x4e18c3c5afba7eb0f1bde555aca8406a7dd3b1ad8f518ca371ded5a7f130486c",
      "v": 28,
      "creates": null,
      "raw": "0xf86c06850d1ad3830282753094e7b79d2fd13b6f1aeff4274e8a17364219e00d01888ac7230489e80000001ca019e9280ba0eb0177a2742445a6b95922f114871a5eeff9c7e7a5814a153b5d47a04e18c3c5afba7eb0f1bde555aca8406a7dd3b1ad8f518ca371ded5a7f130486c",
      "networkId": 0,
      "chainId": 0
    }
  ]
}