{
  "hash": "0xaca401869ccf057e731948ca928a6cb0499a7313605b9b477fbdad52a4ce0503",
  "parentHash": "0x431bafba72bc93ba9f6d2a1286fd3299c2284402ee6a65fdb698098e6be2c7df",
  "number": 48374,
  "timestamp": 1438956206,
  "nonce": "0x6d792caf2218ea79",
  "difficulty": 1452921071708,
  "gasLimit": {
    "_hex": "0x16376"
  },
  "gasUsed": {
    "_hex": "0x14a84"
  },
  "miner": "0x5B7970CD176308e0Ffd0358e8B14aaF4A19BA544",
  "extraData": "0x476574682f76312e302e302f77696e646f77732f676f312e342e32",
  "transactions": [
    {
      "hash": "0x6d37d10309157e7c73aac70b26e40fef01a222a905cd467baba052570012837e",
      "blockHash": "0xaca401869ccf057e731948ca928a6cb0499a7313605b9b477fbdad52a4ce0503",
      "blockNumber": 48374,
      "transactionIndex": 0,
      "confirmations": null,
      "from": "0x671110d96aAFf11523CC546Bf9940EedFfB2faF7",
      "gasPrice": {
        "_hex": "0x387a82acf4"
      },
      "gasLimit": {
        "_hex": "0x15f90"
      },
      "to": "0x2910543Af39abA0Cd09dBb2D50200b3E800A63D2",
      "value": {
        "_hex": "0x2a802f8630a240000"
      },
      "nonce": 1,
      "data": "0x454e4d353836443847",
      "r": "0x126f808315c5ffdbeaf4e5d14c6c921de7e6cd0dbbbeee4113b8b4927745a50c",
      "s": "0x638f54fd92faab1e6c051042e13605eb0e4c5b1e6d2b3b1d1dd37babd16b4b97",
      "v": 28,
      "creates": null,
      "raw": "0xf8770185387a82acf483015f90942910543af39aba0cd09dbb2d50200b3e800a63d28902a802f8630a24000089454e4d3538364438471ca0126f808315c5ffdbeaf4e5d14c6c921de7e6cd0dbbbeee4113b8b4927745a50ca0638f54fd92faab1e6c051042e13605eb0e4c5b1e6d2b3b1d1dd37babd16b4b97",
      "networkId": 0,
      "chainId": 0
    },
    {
      "hash": "0x2a38859dfe636b11302a6a54e06001197fc5f6af2666d74bb1fb9828317eb08a",
      "blockHash": "0xaca401869ccf057e731948ca928a6cb0499a7313605b9b477fbdad52a4ce0503",
      "blockNumber": 48374,
      "transactionIndex": 1,
      "confirmations": null,
      "from": "0x4eC68687B54dba931f2Ab0c35B4487b16F10f2e9",
      "gasPrice": {
        "_hex": "0xcc62038d0"
      },
      "gasLimit": {
        "_hex": "0x5208"
      },
      "to": "0x32Be343B94f860124dC4fEe278FDCBD38C102D88",
      "value": {
        "_hex": "0x299e0c3d76bd8800"
      },
      "nonce": 0,
      "data": "0x",
      "r": "0xba5f3a411a329079835f387bdd25bc14f5a4aaec0becf6487fbe8691ab46bfff",
      "s": "0x7fb8acc6d6860932730649187e4bb8af43b3e14bccf9d08a1d395a9476cabff7",
      "v": 28,
      "creates": null,
      "raw": "0xf86c80850cc62038d08252089432be343b94f860124dc4fee278fdcbd38c102d8888299e0c3d76bd8800801ca0ba5f3a411a329079835f387bdd25bc14f5a4aaec0becf6487fbe8691ab46bfffa07fb8acc6d6860932730649187e4bb8af43b3e14bccf9d08a1d395a9476cabff7",
      "networkId": 0,
      "chainId": 0
    },
    {
      "hash": "0xa35dceaf1c85d09958b8ee1903fdc1832ee02d2c5795ca293c854a69b4d3ec60",
      "blockHash": "0xaca401869ccf057e731948ca928a6cb0499a7313605b9b477fbdad52a4ce0503",
      "blockNumber": 48374,
      "transactionIndex": 2,
      "confirmations": null,
      "from": "0x6De181Fc4C140FA31F196e5393516c49EEeBdAd3",
      "gasPrice": {
        "_hex": "0xcc62038d0"
      },
      "gasLimit": {
        "_hex": "0x5208"
      },
      "to": "0x32Be343B94f860124dC4fEe278FDCBD38C102D88",
      "value": {
        "_hex": "0x5f68a69546d898000"
      },
      "nonce": 1,
      "data": "0x",
      "r": "0x1ca1302e4035e7d6b03c0fd1ccc22c08524ff8cc7f4401dc91d097cfc8b44d2c",
      "s": "0x22ac7637efe7e706fa5d908d4001a73fe0305896e583b3b46c5dc4de55003331",
      "v": 27,
      "creates": null,
      "raw": "0xf86d01850cc62038d08252089432be343b94f860124dc4fee278fdcbd38c102d888905f68a69546d898000801ba01ca1302e4035e7d6b03c0fd1ccc22c08524ff8cc7f4401dc91d097cfc8b44d2ca022ac7637efe7e706fa5d908d4001a73fe0305896e583b3b46c5dc4de55003331",
      "networkId": 0,
      "chainId": 0
    },
    {
      "hash": "0x00503d4e733318953900094e8ed23f007a2964e7868fa37ad53c062ba59763c5",
      "blockHash": "0xaca401869ccf057e731948ca928a6cb0499a7313605b9b477fbdad52a4ce0503",
      "blockNumber": 48374,
      "transactionIndex": 3,
      "confirmations": null,
      "from": "0x0fFecdF99016b9C74f1088c858B0A6b71992A471",
      "gasPrice": {
        "_hex": "0xcc62038d0"
      },
      "gasLimit": {
        "_hex": "0x5208"
      },
      "to": "0x32Be343B94f860124dC4fEe278FDCBD38C102D88",
      "value": {
        "_hex": "0x8ac30b270a798800"
      },
      "nonce": 0,
      "data": "0x",
      "r": "0x4e9afa6a9249f62aecc3bec0d74ae31772f4d9db3169a706c4058153ecb343ba",
      "s": "0x3e0773095ab667862063c47956fba7d69f4c855c0b1e5b4546ab759b7777b064",
      "v": 28,
      "creates": null,
      "raw": "0xf86c80850cc62038d08252089432be343b94f860124dc4fee278fdcbd38c102d88888ac30b270a798800801ca04e9afa6a9249f62aecc3bec0d74ae31772f4d9db3169a706c4058153ecb343baa03e0773095ab667862063c47956fba7d69f4c855c0b1e5b4546ab759b7777b064",
      "networkId": 0,
      "chainId": 0
    }
  ]
}