{
  "hash": "0x4b3f8b44ea41abc3182c66b08824ff0b6e34b658c1c05e81021a2d561d0b4071",
  "parentHash": "0xa3dc12f50176f7157abb4b2f7381509549fdffa3a781af16bea645392b17fe60",
  "number": 66278,
  "timestamp": 1439251669,
  "nonce": "0xa837acc4fde5e1ef",
  "difficulty": 1939552714177,
  "gasLimit": {
    "_hex": "0x2fefd8"
  },
  "gasUsed": {
    "_hex": "0x5208"
  },
  "miner": "0xB57a69A9cFD1BC39510a70Ab14De3BDa11d1dF70",
  "extraData": "0x476574682f76312e302e312f6c696e75782f676f312e342e32",
  "transactions": [
    {
      "hash": "0x2d484ba3637775ad74ff08a0df12f99eaec08cd8efd96d0c566b82b63cdf7bc1",
      "blockHash": "0x4b3f8b44ea41abc3182c66b08824ff0b6e34b658c1c05e81021a2d561d0b4071",
      "blockNumber": 66278,
      "transactionIndex": 0,
      "confirmations": null,
      "from": "0x87898CE53471043FcCa0a2aF4E1dC6d8B3fCf607",
      "gasPrice": {
        "_hex": "0xd76df8a92"
      },
      "gasLimit": {
        "_hex": "0x5208"
      },
      "to": "0xBFdD9820a04283b289957956353b5F3C1F665EcF",
      "value": {
        "_hex": "0x1e5b8fa8fe2ac0000"
      },
      "nonce": 18,
      "data": "0x",
      "r": "0x5cd063b182bf9476c5000f6bad1853295965fdc7a3bd61a6bcd9f4bb64f38f1e",
      "s": "0x35e359b46e9b6aa550eaf9bcee293e672e45f3b75bbfc39b938e1269d9801e0d",
      "v": 27,
      "creates": null,
      "raw": "0xf86d12850d76df8a9282520894bfdd9820a04283b289957956353b5f3c1f665ecf8901e5b8fa8fe2ac0000801ba05cd063b182bf9476c5000f6bad1853295965fdc7a3bd61a6bcd9f4bb64f38f1ea035e359b46e9b6aa550eaf9bcee293e672e45f3b75bbfc39b938e1269d9801e0d",
      "networkId": 0,
      "chainId": 0
    }
  ]
}