{
  "hash": "0xd1f855cfa7ea4e134d06fd4141d51070b0a9b660ce7c7531a280d9e2d6e40773",
  "parentHash": "0x1f811733d70901e40a1d6677640c31dcf3c26027660dab8a33652cddb2da0cc1",
  "number": 93765,
  "timestamp": 1439697350,
  "nonce": "0x8b0dc898c2498ed3",
  "difficulty": 3424508883020,
  "gasLimit": {
    "_hex": "0x2fefd8"
  },
  "gasUsed": {
    "_hex": "0x5208"
  },
  "miner": "0x007f7f58D3eb5b7510A301eCC749FC1fCDDBE14D",
  "extraData": "0x476574682f76312e302e312f77696e646f77732f676f312e342e32",
  "transactions": [
    {
      "hash": "0xc8a9a6314debd1411b22d8e9e446e986e9cadb54fee188cf318ca42bedca1aa5",
      "blockHash": "0xd1f855cfa7ea4e134d06fd4141d51070b0a9b660ce7c7531a280d9e2d6e40773",
      "blockNumber": 93765,
      "transactionIndex": 0,
      "confirmations": null,
      "from": "0xF109ca710C0Df51c1a86dBA1B0BA0Ed038114463",
      "gasPrice": {
        "_hex": "0xd50f49732"
      },
      "gasLimit": {
        "_hex": "0x5208"
      },
      "to": "0x32Be343B94f860124dC4fEe278FDCBD38C102D88",
      "value": {
        "_hex": "0xd026702fe44c6000"
      },
      "nonce": 11,
      "data": "0x",
      "r": "0x6f31425e6f0a8660799dc15c35b3dc7288ad7961e7a09018eea235b3d57fb555",
      "s": "0x142835de62f5cc068527d52923885374f71f63e7250ee9cdc5d10ea9800721a2",
      "v": 27,
      "creates": null,
      "raw": "0xf86c0b850d50f497328252089432be343b94f860124dc4fee278fdcbd38c102d8888d026702fe44c6000801ba06f31425e6f0a8660799dc15c35b3dc7288ad7961e7a09018eea235b3d57fb555a0142835de62f5cc068527d52923885374f71f63e7250ee9cdc5d10ea9800721a2",
      "networkId": 0,
      "chainId": 0
    }
  ]
}