{
  "hash": "0x45e997da1c141950348684dc3fc64e215d8fd6d90637305d8bff317c116e3d30",
  "parentHash": "0xcecc5675bab4c51296cd3447ad3239353500042352a0b530f6a1fd03f83022b5",
  "number": 111549,
  "timestamp": 1439992111,
  "nonce": "0x92489ec621e95d39",
  "difficulty": 4443904512294,
  "gasLimit": {
    "_hex": "0x2fefd8"
  },
  "gasUsed": {
    "_hex": "0x546c"
  },
  "miner": "0xe6A7a1d47ff21B6321162AEA7C6CB457D5476Bca",
  "extraData": "0x476574682f76312e302e312d38326566323666362f6c696e75782f676f312e34",
  "transactions": [
    {
      "hash": "0x092eec4d68d72f3f9c2413fec59f08463a51ce2f0d51989ac378e15295103237",
      "blockHash": "0x45e997da1c141950348684dc3fc64e215d8fd6d90637305d8bff317c116e3d30",
      "blockNumber": 111549,
      "transactionIndex": 0,
      "confirmations": null,
      "from": "0x617Ff2CC803e31C9082233b825D025BE3f7b1056",
      "gasPrice": {
        "_hex": "0xba43b7400"
      },
      "gasLimit": {
        "_hex": "0x15f90"
      },
      "to": "0x2910543Af39abA0Cd09dBb2D50200b3E800A63D2",
      "value": {
        "_hex": "0x1da72661deaaac0000"
      },
      "nonce": 6,
      "data": "0x454e344d574d474d47",
      "r": "0xddf321d9232bd032093fbe4e455df5baed3201a8ebac28badb5593a92d07e080",
      "s": "0x17f4667ee3b9635f3ff473701d75396823220cd4d4d9d48399e8291fb3f1c7d1",
      "v": 27,
      "creates": null,
      "raw": "0xf87706850ba43b740083015f90942910543af39aba0cd09dbb2d50200b3e800a63d2891da72661deaaac000089454e344d574d474d471ba0ddf321d9232bd032093fbe4e455df5baed3201a8ebac28badb5593a92d07e080a017f4667ee3b9635f3ff473701d75396823220cd4d4d9d48399e8291fb3f1c7d1",
      "networkId": 0,
      "chainId": 0
    }
  ]
}