{
  "hash": "0xcc5014993454c12e8bdd6bd9d369edcbaa542f6396fd68386089811f50843dd5",
  "parentHash": "0xd417bf747996c330a867fa589fd99cf15c11690c7e445278202f4905021ca887",
  "number": 87298,
  "timestamp": 1439590137,
  "nonce": "0x06066c51b2a8af1f",
  "difficulty": 3091639844889,
  "gasLimit": {
    "_hex": "0x2fefd5"
  },
  "gasUsed": {
    "_hex": "0x5208"
  },
  "miner": "0xa70a9a7040d542C632D8e0bE7c5513A8a5Bbc752",
  "extraData": "0x",
  "transactions": [
    {
      "hash": "0x50db88c0baff1d3a465ed28e40e903fcb17830f0a8ecb9cc6b8a3c27cd14508e",
      "blockHash": "0xcc5014993454c12e8bdd6bd9d369edcbaa542f6396fd68386089811f50843dd5",
      "blockNumber": 87298,
      "transactionIndex": 0,
      "confirmations": null,
      "from": "0xa9f5E7bf6Cbf6fEc55B30850Eb492b47A376d050",
      "gasPrice": {
        "_hex": "0xdc3a92fb7"
      },
      "gasLimit": {
        "_hex": "0x5208"
      },
      "to": "0x32Be343B94f860124dC4fEe278FDCBD38C102D88",
      "value": {
        "_hex": "0x107a931724b63a000"
      },
      "nonce": 21,
      "data": "0x",
      "r": "0x5e70611f290caf41fb670ab91138124cbc7329cfb2a58d830fdc2939101db9f9",
      "s": "0x10c97909f130b5ddcf132ccb67f3beb5ebc93aaf92f21413346ab4bdcd40b4f2",
      "v": 27,
      "creates": null,
      "raw": "0xf86d15850dc3a92fb78252089432be343b94f860124dc4fee278fdcbd38c102d88890107a931724b63a000801ba05e70611f290caf41fb670ab91138124cbc7329cfb2a58d830fdc2939101db9f9a010c97909f130b5ddcf132ccb67f3beb5ebc93aaf92f21413346ab4bdcd40b4f2",
      "networkId": 0,
      "chainId": 0
    }
  ]
}