{
  "hash": "0x166ac6bd0af7760229046581fc4db306343dcf373d93b47c71b4e51ad270af05",
  "parentHash": "0x4e65601ebb8d4c44daebae0dc862a76d661c352f2c6160270ce2a771ee054f03",
  "number": 80288,
  "timestamp": 1439483136,
  "nonce": "0x330b89c5186e1b02",
  "difficulty": 2381709556289,
  "gasLimit": {
    "_hex": "0x2fefd8"
  },
  "gasUsed": {
    "_hex": "0x6ed7"
  },
  "miner": "0x0037ce3d4B7f8729C8607D8D0248252Be68202c0",
  "extraData": "0x476574682f76312e302e312f77696e646f77732f676f312e342e32",
  "transactions": [
    {
      "hash": "0xc6322fc9e0292a1b9ac37f3835f8e3c0f3f53c5656a25926412cc15e42f66024",
      "blockHash": "0x166ac6bd0af7760229046581fc4db306343dcf373d93b47c71b4e51ad270af05",
      "blockNumber": 80288,
      "transactionIndex": 0,
      "confirmations": null,
      "from": "0x87C5B5874A18B4306DF8a752a6C8cc3E82daFc19",
      "gasPrice": {
        "_hex": "0x10bda0efabd"
      },
      "gasLimit": {
        "_hex": "0x493e0"
      },
      "to": "0xC4c51de1AbF5D60DBd329eC0F999Fd8f021ae9fC",
      "value": {
        "_hex": "0x0"
      },
      "nonce": 164,
      "data": "0xbd66528a6b6b6b0000000000000000000000000000000000000000000000000000000000",
      "r": "0x06df02f62d62a2c12558e2f88defe50ec6c50d5b3b1b68e4a82935f53cd40a48",
      "s": "0x1f07c58c880f891dfe6da62535203c89b25f8d5f853c3de2c589f1679576bca2",
      "v": 28,
      "creates": null,
      "raw": "0xf88b81a486010bda0efabd830493e094c4c51de1abf5d60dbd329ec0f999fd8f021ae9fc80a4bd66528a6b6b6b00000000000000000000000000000000000000000000000000000000001ca006df02f62d62a2c12558e2f88defe50ec6c50d5b3b1b68e4a82935f53cd40a48a01f07c58c880f891dfe6da62535203c89b25f8d5f853c3de2c589f1679576bca2",
      "networkId": 0,
      "chainId": 0
    }
  ]
}