{
  "hash": "0x2db46398db5534ec5f3f9decb2aa5e0a8af2272c3aee797c06980cf2057c3ce1",
  "parentHash": "0xe4a45f749c28478b1c1113b3fcda922e7be704e90f7895fbd6cdd76846240677",
  "number": 92937,
  "timestamp": 1439679514,
  "nonce": "0x33fff348f43befe9",
  "difficulty": 3670737949115,
  "gasLimit": {
    "_hex": "0x2fefd8"
  },
  "gasUsed": {
    "_hex": "0x5208"
  },
  "miner": "0xa50ec0D39fa913E62f1Bae7074E6F36caA71855b",
  "extraData": "0xd783010001844765746887676f312e342e32856c696e7578",
  "transactions": [
    {
      "hash": "0x3838234504bf6cf9a74b4c2b5935601660950e23f46d5f8ff0df63eab4e1e3fe",
      "blockHash": "0x2db46398db5534ec5f3f9decb2aa5e0a8af2272c3aee797c06980cf2057c3ce1",
      "blockNumber": 92937,
      "transactionIndex": 0,
      "confirmations": null,
      "from": "0xfF68C2F39C4e7FE2f92c2DC2f8615b1BF070e0FA",
      "gasPrice": {
        "_hex": "0xd9018ea78"
      },
      "gasLimit": {
        "_hex": "0x5208"
      },
      "to": "0x7147dFfD3d08ad00917cFEa2b60188439944990b",
      "value": {
        "_hex": "0xc7b2316199a0c63080"
      },
      "nonce": 1,
      "data": "0x",
      "r": "0x86256d01e5026dc005f863c24a51b1f920abbafcf5ce348d7ab8fa1d525e2775",
      "s": "0x5a0a86140b0f4ba8c5c1ad1a798bfc5d2b45630cf034ec0f31f5880022bdecb2",
      "v": 28,
      "creates": null,
      "raw": "0xf86d01850d9018ea78825208947147dffd3d08ad00917cfea2b60188439944990b89c7b2316199a0c63080801ca086256d01e5026dc005f863c24a51b1f920abbafcf5ce348d7ab8fa1d525e2775a05a0a86140b0f4ba8c5c1ad1a798bfc5d2b45630cf034ec0f31f5880022bdecb2",
      "networkId": 0,
      "chainId": 0
    }
  ]
}