{
  "hash": "0x1b7ec762aae01147ea2bddc067f6fd4aa4d953b8e0434cf237ed76d82e9cdaf3",
  "parentHash": "0x2298d0605dc06d9a7c961282edafbd1d28caa04d683e35f38644048e587db55a",
  "number": 94414,
  "timestamp": 1439707977,
  "nonce": "0x3e7d8f1a8709bb03",
  "difficulty": 3490076560333,
  "gasLimit": {
    "_hex": "0x2fefd8"
  },
  "gasUsed": {
    "_hex": "0x546c"
  },
  "miner": "0xe6A7a1d47ff21B6321162AEA7C6CB457D5476Bca",
  "extraData": "0x476574682f76312e302e312d38326566323666362f6c696e75782f676f312e34",
  "transactions": [
    {
      "hash": "0x698a136ff000dddc9560231b86ef906aeb9b37643632deb79a619847e64240e2",
      "blockHash": "0x1b7ec762aae01147ea2bddc067f6fd4aa4d953b8e0434cf237ed76d82e9cdaf3",
      "blockNumber": 94414,
      "transactionIndex": 0,
      "confirmations": null,
      "from": "0xD02108d2AE3CAB10CBCF1657AF223E027c8210f6",
      "gasPrice": {
        "_hex": "0x110c8f7d8de"
      },
      "gasLimit": {
        "_hex": "0xc350"
      },
      "to": "0x2910543Af39abA0Cd09dBb2D50200b3E800A63D2",
      "value": {
        "_hex": "0xfd217f5c3f20000"
      },
      "nonce": 0,
      "data": "0x454e43515a48503238",
      "r": "0xc7c82471cc31e3f548bc1d425fd7874c0a1b36e21e3ccdf29edb3c65b973b3a6",
      "s": "0xd958fae8f8384881bc7bb050b6810777171debd4c3e145954dc565c7f3175003",
      "v": 28,
      "creates": null,
      "raw": "0xf87680860110c8f7d8de82c350942910543af39aba0cd09dbb2d50200b3e800a63d2880fd217f5c3f2000089454e43515a485032381ca0c7c82471cc31e3f548bc1d425fd7874c0a1b36e21e3ccdf29edb3c65b973b3a6a0d958fae8f8384881bc7bb050b6810777171debd4c3e145954dc565c7f3175003",
      "networkId": 0,
      "chainId": 0
    }
  ]
}