{
  "hash": "0x9d6713ae9a22ddd49a912df0dc6e50043f42d583b8aacccd1dd8c83a2fe128a3",
  "parentHash": "0x7f91a396118cf201ef57f3241c67097c6ef33ceb3650634bc65a7d82f4398f3c",
  "number": 56998,
  "timestamp": 1439095833,
  "nonce": "0x1ca7e2157dfbc8e3",
  "difficulty": 1710200327289,
  "gasLimit": {
    "_hex": "0x2fefd8"
  },
  "gasUsed": {
    "_hex": "0x5208"
  },
  "miner": "0x88D74a59454F6cF3B51ef6b9136AFb6b9D405A88",
  "extraData": "0x476574682f76312e302e312d37666266393930632f6c696e75782f676f312e34",
  "transactions": [
    {
      "hash": "0x66dfbd99a68966164202d4c3f8539513c98dd0d42ee595874570440d57f6b342",
      "blockHash": "0x9d6713ae9a22ddd49a912df0dc6e50043f42d583b8aacccd1dd8c83a2fe128a3",
      "blockNumber": 56998,
      "transactionIndex": 0,
      "confirmations": null,
      "from": "0xB7268c7705A1866b2A78e882fdfDc8E2a4e1428E",
      "gasPrice": {
        "_hex": "0xd4be89f70"
      },
      "gasLimit": {
        "_hex": "0x15f90"
      },
      "to": "0x96811Ad897894eC178872117C8BF2f03971A393B",
      "value": {
        "_hex": "0x107ad8f556c6c0000"
      },
      "nonce": 3,
      "data": "0x",
      "r": "0x8d559495e53bbe2399336900ff6f248eea5a65cc431d415d7ea9e912991d5246",
      "s": "0x72ebaf5a4ed3edf861d89cb4071e2f2247aedab5d958a910be94d16b32f9954b",
      "v": 27,
      "creates": null,
      "raw": "0xf86e03850d4be89f7083015f909496811ad897894ec178872117c8bf2f03971a393b890107ad8f556c6c0000801ba08d559495e53bbe2399336900ff6f248eea5a65cc431d415d7ea9e912991d5246a072ebaf5a4ed3edf861d89cb4071e2f2247aedab5d958a910be94d16b32f9954b",
      "networkId": 0,
      "chainId": 0
    }
  ]
}