{
  "hash": "0xf03e7710099395434023fb7281bd3c20d2a6b9419ae202da140049a0c2cfbe33",
  "parentHash": "0x6d2a2ff75ff17cda5cbc9b1072a679b804b88ba1ea9eb2b1d09564f92bd40f18",
  "number": 93900,
  "timestamp": 1439699508,
  "nonce": "0xa2e0de16b799ff69",
  "difficulty": 3466512372559,
  "gasLimit": {
    "_hex": "0x2fefd8"
  },
  "gasUsed": {
    "_hex": "0x5208"
  },
  "miner": "0xe6A7a1d47ff21B6321162AEA7C6CB457D5476Bca",
  "extraData": "0x476574682f76312e302e312d38326566323666362f6c696e75782f676f312e34",
  "transactions": [
    {
      "hash": "0x97718d02a94c6991cd1fc271bfd0b27c6222e7208b58afe6b837979898900950",
      "blockHash": "0xf03e7710099395434023fb7281bd3c20d2a6b9419ae202da140049a0c2cfbe33",
      "blockNumber": 93900,
      "transactionIndex": 0,
      "confirmations": null,
      "from": "0xe090Ffdced499691fA9379752a59F8A058c1eE4A",
      "gasPrice": {
        "_hex": "0xce94c1e41"
      },
      "gasLimit": {
        "_hex": "0x5208"
      },
      "to": "0x3620db64D25D412bAb4C8d93E2e0D7e64e8Cb933",
      "value": {
        "_hex": "0x82f8bc3f7bbfc0000"
      },
      "nonce": 5,
      "data": "0x",
      "r": "0x6ebe2974736cf90b4a2fea027ea75a7d2dbaca3fd33eb552a7b74ab580e4b956",
      "s": "0x5dd1f40111352c56ac9559ee5c734618edaebe67f11380ebac571dca91e413b8",
      "v": 28,
      "creates": null,
      "raw": "0xf86d05850ce94c1e41825208943620db64d25d412bab4c8d93e2e0d7e64e8cb93389082f8bc3f7bbfc0000801ca06ebe2974736cf90b4a2fea027ea75a7d2dbaca3fd33eb552a7b74ab580e4b956a05dd1f40111352c56ac9559ee5c734618edaebe67f11380ebac571dca91e413b8",
      "networkId": 0,
      "chainId": 0
    }
  ]
}