{
  "hash": "0x15fb008253a3dea57da634a15583df6fbf2ec987cdae1b3a4d8c82883a4b0c18",
  "parentHash": "0x48c21bf34e3aecebc5b5666a48aabeba65f73fdfd7f7a35b963b05eff9c90895",
  "number": 65255,
  "timestamp": 1439233885,
  "nonce": "0x1786de05f6e6eb26",
  "difficulty": 1938842327628,
  "gasLimit": {
    "_hex": "0x2fefd8"
  },
  "gasUsed": {
    "_hex": "0x17cd8"
  },
  "miner": "0x5F8F73E26CdF436f19Cb24C82F90A15AFe55b592",
  "extraData": "0x476574682f76312e302e312f77696e646f77732f676f312e342e32",
  "transactions": [
    {
      "hash": "0x508d89edaaec164471ff10880770f81598db749c4657f0aea8b98d40acb055a5",
      "blockHash": "0x15fb008253a3dea57da634a15583df6fbf2ec987cdae1b3a4d8c82883a4b0c18",
      "blockNumber": 65255,
      "transactionIndex": 0,
      "confirmations": null,
      "from": "0x14B01fe46D16D9283a84B92df2385bdC8f6F7475",
      "gasPrice": {
        "_hex": "0xba43b7400"
      },
      "gasLimit": {
        "_hex": "0x15f90"
      },
      "to": "0x793AE8C1b1a160BFc07BFB0d04F85eab1A71F4f2",
      "value": {
        "_hex": "0x0"
      },
      "nonce": 0,
      "data": "0x3ba15036",
      "r": "0x0ada5c05468e40a2c0131fded77a5e485926ec3cae2857db4e45971acbe7046e",
      "s": "0x60a3c2dd098c1b8ed24a3ee45f6dd544096992c5010f46242e6b52b89def057c",
      "v": 27,
      "creates": null,
      "raw": "0xf86980850ba43b740083015f9094793ae8c1b1a160bfc07bfb0d04f85eab1a71f4f280843ba150361ba00ada5c05468e40a2c0131fded77a5e485926ec3cae2857db4e45971acbe7046ea060a3c2dd098c1b8ed24a3ee45f6dd544096992c5010f46242e6b52b89def057c",
      "networkId": 0,
      "chainId": 0
    },
    {
      "hash": "0x22dd3d7eb4817974ce74ac9d85b8e847f550def60693773c1f4d647f7b72df5f",
      "blockHash": "0x15fb008253a3dea57da634a15583df6fbf2ec987cdae1b3a4d8c82883a4b0c18",
      "blockNumber": 65255,
      "transactionIndex": 1,
      "confirmations": null,
      "from": "0xAe3749943D7BE4CF3d5D0BAAb0ec7259322d093B",
      "gasPrice": {
        "_hex": "0xba43b7400"
      },
      "gasLimit": {
        "_hex": "0x15f90"
      },
      "to": "0x793AE8C1b1a160BFc07BFB0d04F85eab1A71F4f2",
      "value": {
        "_hex": "0x0"
      },
      "nonce": 0,
      "data": "0x3ba15036",
      "r": "0x278f9accac74e8c47a6c4f0d6012301071a58763cfd6d47f515c7592cfe91b27",
      "s": "0x25687f70f9a68d781be6b6eff25a425d002a36eb014fef1d9293f2cda06d63f6",
      "v": 28,
      "creates": null,
      "raw": "0xf86980850ba43b740083015f9094793ae8c1b1a160bfc07bfb0d04f85eab1a71f4f280843ba150361ca0278f9accac74e8c47a6c4f0d6012301071a58763cfd6d47f515c7592cfe91b27a025687f70f9a68d781be6b6eff25a425d002a36eb014fef1d9293f2cda06d63f6",
      "networkId": 0,
      "chainId": 0
    }
  ]
}