{
  "hash": "0xf4203e1e065360e0cfaed9cad12f641ebaa4caba52bb74e8c8f223e0d4bd7209",
  "parentHash": "0x7758771998f9ba96102a13d2799d623a3f77922303cdad3abdf7b3d8a4a0ff51",
  "number": 92454,
  "timestamp": 1439672294,
  "nonce": "0x1a4938082efce306",
  "difficulty": 3521709011667,
  "gasLimit": {
    "_hex": "0x2fefd8"
  },
  "gasUsed": {
    "_hex": "0x5208"
  },
  "miner": "0x77EC9ad4A7E9418774C29415CAaF4Ee0da96eF64",
  "extraData": "0x",
  "transactions": [
    {
      "hash": "0xb987d769222ee69a9398603fed4b90678489875e55cf23b3186127091ab4bacd",
      "blockHash": "0xf4203e1e065360e0cfaed9cad12f641ebaa4caba52bb74e8c8f223e0d4bd7209",
      "blockNumber": 92454,
      "transactionIndex": 0,
      "confirmations": null,
      "from": "0x996262E4E0C9CA1ED4882E3402B9D60E1f9CC3A1",
      "gasPrice": {
        "_hex": "0xdc4df71fe"
      },
      "gasLimit": {
        "_hex": "0x5208"
      },
      "to": "0x32Be343B94f860124dC4fEe278FDCBD38C102D88",
      "value": {
        "_hex": "0x8ac2b9867d9b3000"
      },
      "nonce": 0,
      "data": "0x",
      "r": "0xb18357bfd9b5a0846120622da018613f5a5fe7a8878f668dee32a5e933e3a527",
      "s": "0x2d217755af8e14d5c6eb7fcaac75097be7ed1057c0687e2b563536983bd787a4",
      "v": 28,
      "creates": null,
      "raw": "0xf86c80850dc4df71fe8252089432be343b94f860124dc4fee278fdcbd38c102d88888ac2b9867d9b3000801ca0b18357bfd9b5a0846120622da018613f5a5fe7a8878f668dee32a5e933e3a527a02d217755af8e14d5c6eb7fcaac75097be7ed1057c0687e2b563536983bd787a4",
      "networkId": 0,
      "chainId": 0
    }
  ]
}