{
  "hash": "0x6798312140b8f6dd0121ecde54fe4afaa14c84b8bc77a9425729600201ddb797",
  "parentHash": "0xe2871b707f50629f686ddf91c7ec9cb42bd1337a9a0c1c55b4569abb14c460e8",
  "number": 93688,
  "timestamp": 1439695939,
  "nonce": "0x7271b007aa986043",
  "difficulty": 3426212864393,
  "gasLimit": {
    "_hex": "0x2fefd8"
  },
  "gasUsed": {
    "_hex": "0x5208"
  },
  "miner": "0xcf00A85f3826941e7A25BFcF9Aac575d40410852",
  "extraData": "0x476574682f76312e302e312f77696e646f77732f676f312e342e32",
  "transactions": [
    {
      "hash": "0x79599220f4115d041a90804ffde4a3e7b91307a9adacae68635552e093ea2865",
      "blockHash": "0x6798312140b8f6dd0121ecde54fe4afaa14c84b8bc77a9425729600201ddb797",
      "blockNumber": 93688,
      "transactionIndex": 0,
      "confirmations": null,
      "from": "0x02Ade5Db22F8B758Ee1443626C64Ec2F32Aa0a15",
      "gasPrice": {
        "_hex": "0xdf42440a5"
      },
      "gasLimit": {
        "_hex": "0x15f90"
      },
      "to": "0x49Fc3524b3eEe1b21C7D52DEEdbc80a5A10deC20",
      "value": {
        "_hex": "0x1450b3737d49a300000"
      },
      "nonce": 3,
      "data": "0x",
      "r": "0x690a7031cfd83be65bc6c50676b3e9b645ae420b0f12b6ba62d62103973efe29",
      "s": "0x3ccef84a0475ae4b6e0a12cdc113bec862857b0cdfd7e38a58e23c20d79e8013",
      "v": 27,
      "creates": null,
      "raw": "0xf86f03850df42440a583015f909449fc3524b3eee1b21c7d52deedbc80a5a10dec208a01450b3737d49a300000801ba0690a7031cfd83be65bc6c50676b3e9b645ae420b0f12b6ba62d62103973efe29a03ccef84a0475ae4b6e0a12cdc113bec862857b0cdfd7e38a58e23c20d79e8013",
      "networkId": 0,
      "chainId": 0
    }
  ]
}