{
  "hash": "0x4235b50bd455b52ef2cb82c8d4f96ff02d0e6ba04b4acd260619bff5f1d5dc8e",
  "parentHash": "0x34f410fd860cc9d61a92ddca244b1c7b58a27d0d72fd3022919aca5bb8885606",
  "number": 112398,
  "timestamp": 1440006864,
  "nonce": "0x8b82aac4e2be915a",
  "difficulty": 4406723285231,
  "gasLimit": {
    "_hex": "0x2fefd8"
  },
  "gasUsed": {
    "_hex": "0x5208"
  },
  "miner": "0xD0ee3F53eE0fCf3F9fbCcdd17BD1b6441DdC2074",
  "extraData": "0x476574682f76312e302e312d38326566323666362f6c696e75782f676f312e34",
  "transactions": [
    {
      "hash": "0x0a0abeb97a317571ed54044fc8a2eb03d25e3cc08369ec99ccf81980980743f8",
      "blockHash": "0x4235b50bd455b52ef2cb82c8d4f96ff02d0e6ba04b4acd260619bff5f1d5dc8e",
      "blockNumber": 112398,
      "transactionIndex": 0,
      "confirmations": null,
      "from": "0x120A270bbC009644e35F0bB6ab13f95b8199c4ad",
      "gasPrice": {
        "_hex": "0xdc25ac3ea"
      },
      "gasLimit": {
        "_hex": "0x3d090"
      },
      "to": "0x6bf4181DB31Ed1c38500284215c6712C643122A4",
      "value": {
        "_hex": "0x470de4df820000"
      },
      "nonce": 891,
      "data": "0x",
      "r": "0x70932056f97bb4a4aa833b8be7ed4e40962e991fd694ef65ba048d47c1827ff5",
      "s": "0x01935683c41c50617eb034bd617d8b43a3a607920dd7bb06064c278adf247f88",
      "v": 27,
      "creates": null,
      "raw": "0xf86e82037b850dc25ac3ea8303d090946bf4181db31ed1c38500284215c6712c643122a487470de4df820000801ba070932056f97bb4a4aa833b8be7ed4e40962e991fd694ef65ba048d47c1827ff5a001935683c41c50617eb034bd617d8b43a3a607920dd7bb06064c278adf247f88",
      "networkId": 0,
      "chainId": 0
    }
  ]
}