{
  "hash": "0xdd78c248cec499b20515f1b0420da839f2e60187e28229733c120ebcf16de779",
  "parentHash": "0x80019ac69c2a2b42312d21ab4376e52d6901b9299b46bd9431fba8df303dc2ba",
  "number": 85640,
  "timestamp": 1439566542,
  "nonce": "0x638eff0f340d0ea8",
  "difficulty": 2790889110559,
  "gasLimit": {
    "_hex": "0x2fefd8"
  },
  "gasUsed": {
    "_hex": "0x5d9f"
  },
  "miner": "0x6dC8a46AB80ED97E4073b96F78554A536E2e7152",
  "extraData": "0x",
  "transactions": [
    {
      "hash": "0x1cf01051f5e5dfe06fadada4060484b1986a3ce0549f4703d1f3d79cf12b0700",
      "blockHash": "0xdd78c248cec499b20515f1b0420da839f2e60187e28229733c120ebcf16de779",
      "blockNumber": 85640,
      "transactionIndex": 0,
      "confirmations": null,
      "from": "0x02020D22dCF88f5eDd66B382D7da019F161fB7e3",
      "gasPrice": {
        "_hex": "0xe17d35cfd"
      },
      "gasLimit": {
        "_hex": "0x15f90"
      },
      "to": "0xCAc7000C7dBaa2E33Af15325AF5D435E011C7BdD",
      "value": {
        "_hex": "0xa"
      },
      "nonce": 6,
      "data": "0xb214faa5384e53354b355737410000000000000000000000000000000000000000000000",
      "r": "0x4b4277b45accc380b45591490ab2cfc46deea1f661b2a982e7e57bc287b10146",
      "s": "0x5112265b6c3514d1fde8bb3387886a177aa37be0bde75eff4743b6bfb2675b46",
      "v": 28,
      "creates": null,
      "raw": "0xf88906850e17d35cfd83015f9094cac7000c7dbaa2e33af15325af5d435e011c7bdd0aa4b214faa5384e53354b3557374100000000000000000000000000000000000000000000001ca04b4277b45accc380b45591490ab2cfc46deea1f661b2a982e7e57bc287b10146a05112265b6c3514d1fde8bb3387886a177aa37be0bde75eff4743b6bfb2675b46",
      "networkId": 0,
      "chainId": 0
    }
  ]
}