{
  "hash": "0x69b1e47385620439e754f066c1089db37a3c2694ffcb689ac8d6a0ba23ef1bcd",
  "parentHash": "0x6a5f98ce8fecba3d11e159f4a6fefa5823a3c6cb3dd02bef282baf9064fe3261",
  "number": 90231,
  "timestamp": 1439636816,
  "nonce": "0x7e05ba8330f71183",
  "difficulty": 3291489801970,
  "gasLimit": {
    "_hex": "0x2fefd8"
  },
  "gasUsed": {
    "_hex": "0x5208"
  },
  "miner": "0xe6A7a1d47ff21B6321162AEA7C6CB457D5476Bca",
  "extraData": "0x476574682f76312e302e312d38326566323666362f6c696e75782f676f312e34",
  "transactions": [
    {
      "hash": "0xc4e6a52eac9725830b78fe6b0037f021da77e784f7210d8f93b002ff12d06ccb",
      "blockHash": "0x69b1e47385620439e754f066c1089db37a3c2694ffcb689ac8d6a0ba23ef1bcd",
      "blockNumber": 90231,
      "transactionIndex": 0,
      "confirmations": null,
      "from": "0x47fe9Ce29dA03E8466a067e4321fD32312e39607",
      "gasPrice": {
        "_hex": "0xcba6ed221"
      },
      "gasLimit": {
        "_hex": "0x15f90"
      },
      "to": "0x132ACC4ebA2B5039C65849368648bc19f32BEd97",
      "value": {
        "_hex": "0xde0b6b3a7640000"
      },
      "nonce": 2,
      "data": "0x",
      "r": "0x444171f22c6f8048bcb69f068b2ff6e5bdea4f26ddcdf971e49e66139a0504c8",
      "s": "0x085ab5f26a4d2644f2f5339c26418961112cc3624fa24e67963ff882ce22062d",
      "v": 27,
      "creates": null,
      "raw": "0xf86d02850cba6ed22183015f9094132acc4eba2b5039c65849368648bc19f32bed97880de0b6b3a7640000801ba0444171f22c6f8048bcb69f068b2ff6e5bdea4f26ddcdf971e49e66139a0504c8a0085ab5f26a4d2644f2f5339c26418961112cc3624fa24e67963ff882ce22062d",
      "networkId": 0,
      "chainId": 0
    }
  ]
}