{
  "hash": "0xd36e07a297f99746fd7b4410702aedd141938657ebf057b91f3f3847e52f7955",
  "parentHash": "0xffae35531e7c173ca38a5981e2565e75173d6a5b5beefc6fe60fb0b555969a48",
  "number": 50215,
  "timestamp": 1438985569,
  "nonce": "0xda119465d3997b40",
  "difficulty": 1512681562158,
  "gasLimit": {
    "_hex": "0x56ed7"
  },
  "gasUsed": {
    "_hex": "0xa8d8"
  },
  "miner": "0x4EF5e475724b7c945A4bdbB1Be68d76103bA9013",
  "extraData": "0x476574682f76312e302e302f77696e646f77732f676f312e342e32",
  "transactions": [
    {
      "hash": "0xa066306ff5e7ccacc419e071c1f992737578c27a254cca8fe75ccd6230f6d0c9",
      "blockHash": "0xd36e07a297f99746fd7b4410702aedd141938657ebf057b91f3f3847e52f7955",
      "blockNumber": 50215,
      "transactionIndex": 0,
      "confirmations": null,
      "from": "0xEB90c793B3539761e1C814A29671148692193Eb4",
      "gasPrice": {
        "_hex": "0x10e91ba162b"
      },
      "gasLimit": {
        "_hex": "0x15f90"
      },
      "to": "0x2910543Af39abA0Cd09dBb2D50200b3E800A63D2",
      "value": {
        "_hex": "0x35fe46d2f741100000"
      },
      "nonce": 1,
      "data": "0x454e425751464a4b52",
      "r": "0xd7f2ff7a013cc69d2aad2c28193589458f90d2100ae6a8f0846e830ad4045bc2",
      "s": "0x4fa7698ecaf11791f836bce6069d806322299a70e6aa653f233476d64b740f19",
      "v": 27,
      "creates": null,
      "raw": "0xf8780186010e91ba162b83015f90942910543af39aba0cd09dbb2d50200b3e800a63d28935fe46d2f74110000089454e425751464a4b521ba0d7f2ff7a013cc69d2aad2c28193589458f90d2100ae6a8f0846e830ad4045bc2a04fa7698ecaf11791f836bce6069d806322299a70e6aa653f233476d64b740f19",
      "networkId": 0,
      "chainId": 0
    },
    {
      "hash": "0x097fc62b2156a44bf6eecd58e4ffbfe2f6494f2d9fdc02e2f59ed57e3e2fed9f",
      "blockHash": "0xd36e07a297f99746fd7b4410702aedd141938657ebf057b91f3f3847e52f7955",
      "blockNumber": 50215,
      "transactionIndex": 1,
      "confirmations": null,
      "from": "0x5e1fBd4E58e2312b3C78d7aAAAfA10bf9C3189E3",
      "gasPrice": {
        "_hex": "0x10623dc357f"
      },
      "gasLimit": {
        "_hex": "0x15f90"
      },
      "to": "0x2910543Af39abA0Cd09dBb2D50200b3E800A63D2",
      "value": {
        "_hex": "0x3635c9adc5dea00000"
      },
      "nonce": 1,
      "data": "0x454e4d515456374252",
      "r": "0x37b9f23eeef2d54cf72e937ec4c00fb5d4b7066d75f89b73ff6d7200bd5443fd",
      "s": "0x4edcbd9195957fc247da1fe69e37d712e6767379e3af2aad9dff5e825a977800",
      "v": 28,
      "creates": null,
      "raw": "0xf8780186010623dc357f83015f90942910543af39aba0cd09dbb2d50200b3e800a63d2893635c9adc5dea0000089454e4d5154563742521ca037b9f23eeef2d54cf72e937ec4c00fb5d4b7066d75f89b73ff6d7200bd5443fda04edcbd9195957fc247da1fe69e37d712e6767379e3af2aad9dff5e825a977800",
      "networkId": 0,
      "chainId": 0
    }
  ]
}