{
  "hash": "0x4ee8e9ab9cda8c185f45c7fa1fc6b2f7da443f78aa1eb3c6053f14531db810cf",
  "parentHash": "0x5ed3b300aeb497e767b9ed1cd656412218008390a766536ecd78ef54fcd80f3f",
  "number": 75733,
  "timestamp": 1439408286,
  "nonce": "0xa8c4637969e250d4",
  "difficulty": 2226632668395,
  "gasLimit": {
    "_hex": "0x2fefd8"
  },
  "gasUsed": {
    "_hex": "0x546c"
  },
  "miner": "0xf8E0CA3Ed80bd541b94BEdCf259e8CF2141A9523",
  "extraData": "0x476574682f76312e302e312f77696e646f77732f676f312e342e32",
  "transactions": [
    {
      "hash": "0xcb449f104eeecf2998bbb6cff5b7879709fdbfda86b7c03daa5076a2e7c27ad2",
      "blockHash": "0x4ee8e9ab9cda8c185f45c7fa1fc6b2f7da443f78aa1eb3c6053f14531db810cf",
      "blockNumber": 75733,
      "transactionIndex": 0,
      "confirmations": null,
      "from": "0xb2f9c972C1e9737755B3FF1B3088738396395B26",
      "gasPrice": {
        "_hex": "0x110c8f7d8de"
      },
      "gasLimit": {
        "_hex": "0xc350"
      },
      "to": "0x2910543Af39abA0Cd09dBb2D50200b3E800A63D2",
      "value": {
        "_hex": "0x2b5e3af16b1880000"
      },
      "nonce": 0,
      "data": "0x454e50424556585747",
      "r": "0x721c9ded3c4bff486684d670299e9a62da3f4e871c5e94bb5cf3f137f6d10862",
      "s": "0x623331bbb575684ef5a259f0f2a87286c1cfa05a900084ae96805508f1e0e8ac",
      "v": 27,
      "creates": null,
      "raw": "0xf87780860110c8f7d8de82c350942910543af39aba0cd09dbb2d50200b3e800a63d28902b5e3af16b188000089454e504245565857471ba0721c9ded3c4bff486684d670299e9a62da3f4e871c5e94bb5cf3f137f6d10862a0623331bbb575684ef5a259f0f2a87286c1cfa05a900084ae96805508f1e0e8ac",
      "networkId": 0,
      "chainId": 0
    }
  ]
}