{
  "hash": "0x053925c3d863ee9b6911ad1e705ed48c5edae737eabe8a45bd4c3da9fdf32172",
  "parentHash": "0xef91305ccb7717210c917ae09bbd34fdab58734f8b8202bc8af09ceef8e7ff39",
  "number": 82009,
  "timestamp": 1439511808,
  "nonce": "0x78494b2c358ca52e",
  "difficulty": 2408113934254,
  "gasLimit": {
    "_hex": "0x2fefd5"
  },
  "gasUsed": {
    "_hex": "0xa410"
  },
  "miner": "0xf927a40C8B7F6E07c5af7FA2155B4864a4112B13",
  "extraData": "0x",
  "transactions": [
    {
      "hash": "0xc8424d29d3b9d9054c996170d65aa7ef4ec37fa49ccf5c8bc956ba37050de54a",
      "blockHash": "0x053925c3d863ee9b6911ad1e705ed48c5edae737eabe8a45bd4c3da9fdf32172",
      "blockNumber": 82009,
      "transactionIndex": 0,
      "confirmations": null,
      "from": "0xAd941B747c499E3ad5728C285446813783A33564",
      "gasPrice": {
        "_hex": "0xced5c7149"
      },
      "gasLimit": {
        "_hex": "0x5208"
      },
      "to": "0x32Be343B94f860124dC4fEe278FDCBD38C102D88",
      "value": {
        "_hex": "0x8ac2fe955248b000"
      },
      "nonce": 11,
      "data": "0x",
      "r": "0xa385101400e45b13de26d03c08d41a2b40e02284acb61c078764e27df75fcdcf",
      "s": "0x5a7d0d39c7f57e18a2757c5483e3ee0c155b6e250601c992b1e3e44c9c038a3d",
      "v": 28,
      "creates": null,
      "raw": "0xf86c0b850ced5c71498252089432be343b94f860124dc4fee278fdcbd38c102d88888ac2fe955248b000801ca0a385101400e45b13de26d03c08d41a2b40e02284acb61c078764e27df75fcdcfa05a7d0d39c7f57e18a2757c5483e3ee0c155b6e250601c992b1e3e44c9c038a3d",
      "networkId": 0,
      "chainId": 0
    },
    {
      "hash": "0x4efeac14d1feb512e7c3f8c7a9882c76e42f34bd6ac8720145eda7026de02eca",
      "blockHash": "0x053925c3d863ee9b6911ad1e705ed48c5edae737eabe8a45bd4c3da9fdf32172",
      "blockNumber": 82009,
      "transactionIndex": 1,
      "confirmations": null,
      "from": "0xf357482c5A92C7B2Cee6a157034362b7d7d88c5A",
      "gasPrice": {
        "_hex": "0xced5c7149"
      },
      "gasLimit": {
        "_hex": "0x5208"
      },
      "to": "0x32Be343B94f860124dC4fEe278FDCBD38C102D88",
      "value": {
        "_hex": "0xc0e293eb924eb000"
      },
      "nonce": 2,
      "data": "0x",
      "r": "0x15b74c2e825059c17286794bb6f61cd7fe017bbb9a029a4f9f51dda83a141f94",
      "s": "0x1613eda7b1c4b3e3cf78a1e905e13d20c686d17550dca8610b8a9247adc20e52",
      "v": 28,
      "creates": null,
      "raw": "0xf86c02850ced5c71498252089432be343b94f860124dc4fee278fdcbd38c102d8888c0e293eb924eb000801ca015b74c2e825059c17286794bb6f61cd7fe017bbb9a029a4f9f51dda83a141f94a01613eda7b1c4b3e3cf78a1e905e13d20c686d17550dca8610b8a9247adc20e52",
      "networkId": 0,
      "chainId": 0
    }
  ]
}