{
  "hash": "0x765808c02b2dc941173fee5290a5333014b22a002a4b8ff3676e530d79123dec",
  "parentHash": "0x2e085faa33117d98bf681fba2d10b5eee0ccddd827409ce0a2a279060dd2a8ab",
  "number": 70797,
  "timestamp": 1439325671,
  "nonce": "0x5d9dcf8a1f4eb0ad",
  "difficulty": 2146780910641,
  "gasLimit": {
    "_hex": "0x2fefd8"
  },
  "gasUsed": {
    "_hex": "0xa410"
  },
  "miner": "0x9746c7e1ef2bd21FF3997fa467593a89cb852BD0",
  "extraData": "0x476574682f76312e302e312f77696e646f77732f676f312e342e32",
  "transactions": [
    {
      "hash": "0x0fc990faab39502fdcb7d135585d1cf21ccaee4d75f8a8392a6883ca6e3357ce",
      "blockHash": "0x765808c02b2dc941173fee5290a5333014b22a002a4b8ff3676e530d79123dec",
      "blockNumber": 70797,
      "transactionIndex": 0,
      "confirmations": null,
      "from": "0x96811Ad897894eC178872117C8BF2f03971A393B",
      "gasPrice": {
        "_hex": "0xdb783b16e"
      },
      "gasLimit": {
        "_hex": "0x5208"
      },
      "to": "0x32Be343B94f860124dC4fEe278FDCBD38C102D88",
      "value": {
        "_hex": "0x455f2c4cda87a800"
      },
      "nonce": 14,
      "data": "0x",
      "r": "0x50168a3b2449e696992ab584585561dd68322fd55663c93f662c93798a9c76de",
      "s": "0x43c35d71c0ed9cb2e531c4a4a2898e44cb1d4e97ef39b1407c45e1dced300a0e",
      "v": 27,
      "creates": null,
      "raw": "0xf86c0e850db783b16e8252089432be343b94f860124dc4fee278fdcbd38c102d8888455f2c4cda87a800801ba050168a3b2449e696992ab584585561dd68322fd55663c93f662c93798a9c76dea043c35d71c0ed9cb2e531c4a4a2898e44cb1d4e97ef39b1407c45e1dced300a0e",
      "networkId": 0,
      "chainId": 0
    },
    {
      "hash": "0x22cf93d0c858e4f35bdd0cdfbf45a5a08425d85bd77b044722b570fe212b68d8",
      "blockHash": "0x765808c02b2dc941173fee5290a5333014b22a002a4b8ff3676e530d79123dec",
      "blockNumber": 70797,
      "transactionIndex": 1,
      "confirmations": null,
      "from": "0xB3a8C2CB7d358E5739941d945Ba9045a023A8bBB",
      "gasPrice": {
        "_hex": "0xd7d40ace3"
      },
      "gasLimit": {
        "_hex": "0x7530"
      },
      "to": "0xeEdDfD6c3b6e7c8326E43E78D48DEeE628a7e2C9",
      "value": {
        "_hex": "0x361e3210c7a8760000"
      },
      "nonce": 2,
      "data": "0x",
      "r": "0xada50f2845736268be8d45c142687acecfcc035837bfe1636c53decfa291ae83",
      "s": "0x146b3e41d96e46add61070666446704242e613a04cc0176ce609adc3963535e8",
      "v": 28,
      "creates": null,
      "raw": "0xf86d02850d7d40ace382753094eeddfd6c3b6e7c8326e43e78d48deee628a7e2c989361e3210c7a8760000801ca0ada50f2845736268be8d45c142687acecfcc035837bfe1636c53decfa291ae83a0146b3e41d96e46add61070666446704242e613a04cc0176ce609adc3963535e8",
      "networkId": 0,
      "chainId": 0
    }
  ]
}