{
  "hash": "0xa2a82d59bef36a483940b6497b1fe72c7551ff9db01ecb98b6f682890a6884ac",
  "parentHash": "0xf540b05d91c306f10f33a95ea311cd4b6cd4b0978697245183b8e5dd4ea9d65a",
  "number": 68810,
  "timestamp": 1439294131,
  "nonce": "0x27d5ef71fb103b2e",
  "difficulty": 2014239066034,
  "gasLimit": {
    "_hex": "0x2fefd8"
  },
  "gasUsed": {
    "_hex": "0x5208"
  },
  "miner": "0x48040276E9c17DDbe5C8d2976245dCD0235efA43",
  "extraData": "0x476574682f76312e302e312d38326566323666362f6c696e75782f676f312e34",
  "transactions": [
    {
      "hash": "0xd39c394ed925699fd7a12631b412c998af14a8caf2285000527acd88585b4e48",
      "blockHash": "0xa2a82d59bef36a483940b6497b1fe72c7551ff9db01ecb98b6f682890a6884ac",
      "blockNumber": 68810,
      "transactionIndex": 0,
      "confirmations": null,
      "from": "0xa70a9a7040d542C632D8e0bE7c5513A8a5Bbc752",
      "gasPrice": {
        "_hex": "0xdc7d04382"
      },
      "gasLimit": {
        "_hex": "0x5208"
      },
      "to": "0x32Be343B94f860124dC4fEe278FDCBD38C102D88",
      "value": {
        "_hex": "0x455f33365dd48800"
      },
      "nonce": 4,
      "data": "0x",
      "r": "0x05397b8c0cb7c55ab4f20d329fbb302587ed91a12414ecbb4b3535f81eba7c0b",
      "s": "0x3abdd5ca6776f3e59d25b4a1c86090c304d6dec1cf5f57c51ef3554ae9493a0a",
      "v": 28,
      "creates": null,
      "raw": "0xf86c04850dc7d043828252089432be343b94f860124dc4fee278fdcbd38c102d8888455f33365dd48800801ca005397b8c0cb7c55ab4f20d329fbb302587ed91a12414ecbb4b3535f81eba7c0ba03abdd5ca6776f3e59d25b4a1c86090c304d6dec1cf5f57c51ef3554ae9493a0a",
      "networkId": 0,
      "chainId": 0
    }
  ]
}