{
  "hash": "0xae560d5d9302969b0ae5b609438ef698c978edd16948a2fb5942a442f709ab76",
  "parentHash": "0x2a20761c8308a6256a9061ad947fafd0062f7bcb6a7639f238b601ce8ddc94d4",
  "number": 119904,
  "timestamp": 1440150620,
  "nonce": "0x2e6d5940c888f9c5",
  "difficulty": 4420013981586,
  "gasLimit": {
    "_hex": "0x2fefd8"
  },
  "gasUsed": {
    "_hex": "0x20fc6"
  },
  "miner": "0xe6A7a1d47ff21B6321162AEA7C6CB457D5476Bca",
  "extraData": "0xd783010002844765746887676f312e342e32856c696e7578",
  "transactions": [
    {
      "hash": "0x3f2c34b0451bf008c9ab7a1cd08ee64cbe4b792f432bc7dddf9934f572d60692",
      "blockHash": "0xae560d5d9302969b0ae5b609438ef698c978edd16948a2fb5942a442f709ab76",
      "blockNumber": 119904,
      "transactionIndex": 0,
      "confirmations": null,
      "from": "0x43Ff38743ed0CD43308C066509Cc8E7E72c862aA",
      "gasPrice": {
        "_hex": "0xba43b7400"
      },
      "gasLimit": {
        "_hex": "0x249f0"
      },
      "to": "0xE28e72FCf78647ADCe1F1252F240bbfaebD63BcC",
      "value": {
        "_hex": "0x821ab0d4414980000"
      },
      "nonce": 0,
      "data": "0x45466f3a",
      "r": "0x4f1ceb96cdda8944dac28d9a9b294b32066efd166b1157d00806f624c828cc74",
      "s": "0x63384eaaaaa001f949936c9392ef0a1b17e02b03262dce446eb3c9cf40df4378",
      "v": 27,
      "creates": null,
      "raw": "0xf87280850ba43b7400830249f094e28e72fcf78647adce1f1252f240bbfaebd63bcc890821ab0d44149800008445466f3a1ba04f1ceb96cdda8944dac28d9a9b294b32066efd166b1157d00806f624c828cc74a063384eaaaaa001f949936c9392ef0a1b17e02b03262dce446eb3c9cf40df4378",
      "networkId": 0,
      "chainId": 0
    },
    {
      "hash": "0xe921a677fc504fc72b4f034e0853b61713070bfcf6360f6ca2f824053bb0ac19",
      "blockHash": "0xae560d5d9302969b0ae5b609438ef698c978edd16948a2fb5942a442f709ab76",
      "blockNumber": 119904,
      "transactionIndex": 1,
      "confirmations": null,
      "from": "0x1dbe45A9437978D7Bdc5D468e6be0988a71D153f",
      "gasPrice": {
        "_hex": "0xba43b7400"
      },
      "gasLimit": {
        "_hex": "0x15f90"
      },
      "to": "0x11AA265966dFdDfDC4fA42a83C305f6EcbE9588a",
      "value": {
        "_hex": "0x24150e3980040000"
      },
      "nonce": 8,
      "data": "0x",
      "r": "0x17545b7938b258f292c1ec7e807ef46c00fcf8a1dce3e51e7f4d0b3928a6a186",
      "s": "0x0c4781b095e04328bb1ed26c9d2407d034d46323c28ffa42a544adc76034a806",
      "v": 28,
      "creates": null,
      "raw": "0xf86d08850ba43b740083015f909411aa265966dfddfdc4fa42a83c305f6ecbe9588a8824150e3980040000801ca017545b7938b258f292c1ec7e807ef46c00fcf8a1dce3e51e7f4d0b3928a6a186a00c4781b095e04328bb1ed26c9d2407d034d46323c28ffa42a544adc76034a806",
      "networkId": 0,
      "chainId": 0
    }
  ]
}