{
  "hash": "0x30438138730958d9a89d7cfbe35b62f0c5d59f4a993b57501c14aafa115e44cf",
  "parentHash": "0x8cbf67b2c4c3635e7410cb492feab3b7c92060bff4e7bd3194a186864940566a",
  "number": 49040,
  "timestamp": 1438966832,
  "nonce": "0x65e5070db18b18fe",
  "difficulty": 1487258021580,
  "gasLimit": {
    "_hex": "0x2445c"
  },
  "gasUsed": {
    "_hex": "0xfae0"
  },
  "miner": "0xf32866D5cE9a9b5673e076be48AbCd6ED48ADe78",
  "extraData": "0x476574682f76312e302e312d38326566323666362f6c696e75782f676f312e34",
  "transactions": [
    {
      "hash": "0xd7c497b13ff558b20e7fc18d04338e5368aa2362ed30f71fb19316a6ba804f9c",
      "blockHash": "0x30438138730958d9a89d7cfbe35b62f0c5d59f4a993b57501c14aafa115e44cf",
      "blockNumber": 49040,
      "transactionIndex": 0,
      "confirmations": null,
      "from": "0x275875ff4FBB0cF3a430213127487F7608d04CBa",
      "gasPrice": {
        "_hex": "0x110c8f7d8de"
      },
      "gasLimit": {
        "_hex": "0xc350"
      },
      "to": "0x2910543Af39abA0Cd09dBb2D50200b3E800A63D2",
      "value": {
        "_hex": "0x10357563d481cc0000"
      },
      "nonce": 1,
      "data": "0x454e4e5a4b544d5047",
      "r": "0xaca73e031ba64936941263fc0761c1e60e2b8b4d49dd03823d786d78a07b9a95",
      "s": "0xe9417fac571f171b31bc0b5a7674991ba11d777748dc06017343514cb1a161d2",
      "v": 27,
      "creates": null,
      "raw": "0xf87701860110c8f7d8de82c350942910543af39aba0cd09dbb2d50200b3e800a63d28910357563d481cc000089454e4e5a4b544d50471ba0aca73e031ba64936941263fc0761c1e60e2b8b4d49dd03823d786d78a07b9a95a0e9417fac571f171b31bc0b5a7674991ba11d777748dc06017343514cb1a161d2",
      "networkId": 0,
      "chainId": 0
    },
    {
      "hash": "0x154e6ffa4deb2af355b60dd4e1b73e184d6e13054864e2d040be28cac4d744e7",
      "blockHash": "0x30438138730958d9a89d7cfbe35b62f0c5d59f4a993b57501c14aafa115e44cf",
      "blockNumber": 49040,
      "transactionIndex": 1,
      "confirmations": null,
      "from": "0x493A67fe23deCc63B10dDA75f3287695a81bD5AB",
      "gasPrice": {
        "_hex": "0x110c8f7d8de"
      },
      "gasLimit": {
        "_hex": "0xc350"
      },
      "to": "0x2910543Af39abA0Cd09dBb2D50200b3E800A63D2",
      "value": {
        "_hex": "0xde0b6b3a7640000"
      },
      "nonce": 1,
      "data": "0x454e443646584e3238",
      "r": "0xf4dfdcdba4d9c7aa098a16b93a724631e9b4759eed5ffd36c4f688fc3ee0792e",
      "s": "0x6d98b7f0c789e66a75748d83d99eb0ba30d145e119a33c18b22fdcf0136f87d9",
      "v": 27,
      "creates": null,
      "raw": "0xf87601860110c8f7d8de82c350942910543af39aba0cd09dbb2d50200b3e800a63d2880de0b6b3a764000089454e443646584e32381ba0f4dfdcdba4d9c7aa098a16b93a724631e9b4759eed5ffd36c4f688fc3ee0792ea06d98b7f0c789e66a75748d83d99eb0ba30d145e119a33c18b22fdcf0136f87d9",
      "networkId": 0,
      "chainId": 0
    },
    {
      "hash": "0x568042c7beebb42c01f0d6d0e8f49664fc58afa967c7bcedad414590f54a63b5",
      "blockHash": "0x30438138730958d9a89d7cfbe35b62f0c5d59f4a993b57501c14aafa115e44cf",
      "blockNumber": 49040,
      "transactionIndex": 2,
      "confirmations": null,
      "from": "0x93868ddb2a794d02eBDA2FA4807c76E3609858Dc",
      "gasPrice": {
        "_hex": "0x1020be83250"
      },
      "gasLimit": {
        "_hex": "0x55f0"
      },
      "to": "0x8Fa7ce8b18F17Dc2392067a111AcEa95AC7b2744",
      "value": {
        "_hex": "0xde0b6b3a7640000"
      },
      "nonce": 0,
      "data": "0x",
      "r": "0xc337f4525db48cc53b3d7555e48c1eeacf468671da5d4c205120a8ba90a8a317",
      "s": "0x5cba9a1d06dc5a7c051e7e712b1036162fb0e0c80a41abdcd612948b5e2e96e0",
      "v": 27,
      "creates": null,
      "raw": "0xf86d808601020be832508255f0948fa7ce8b18f17dc2392067a111acea95ac7b2744880de0b6b3a7640000801ba0c337f4525db48cc53b3d7555e48c1eeacf468671da5d4c205120a8ba90a8a317a05cba9a1d06dc5a7c051e7e712b1036162fb0e0c80a41abdcd612948b5e2e96e0",
      "networkId": 0,
      "chainId": 0
    }
  ]
}