{
  "hash": "0xc81c36de32221b6558a274d2cc3e762ea33536ef77b32158bdb80ade2a6f8e26",
  "parentHash": "0x40c0d704ca1ea7c47a18c9526f1aeefb9aa2a273ac560d1f89d99c21926ec391",
  "number": 84727,
  "timestamp": 1439553769,
  "nonce": "0x18f63b9639643d5f",
  "difficulty": 2613136141569,
  "gasLimit": {
    "_hex": "0x2fefd8"
  },
  "gasUsed": {
    "_hex": "0x5208"
  },
  "miner": "0x88D74a59454F6cF3B51ef6b9136AFb6b9D405A88",
  "extraData": "0x476574682f76312e302e312d37666266393930632f6c696e75782f676f312e34",
  "transactions": [
    {
      "hash": "0x8a659a77443be0fbd48cbe687822f8026adfa8172b8815d43c5603fff13f1105",
      "blockHash": "0xc81c36de32221b6558a274d2cc3e762ea33536ef77b32158bdb80ade2a6f8e26",
      "blockNumber": 84727,
      "transactionIndex": 0,
      "confirmations": null,
      "from": "0x9CF253B20806e369059D8D8023f376b1aE248aDD",
      "gasPrice": {
        "_hex": "0xd3d37f23a"
      },
      "gasLimit": {
        "_hex": "0x15f90"
      },
      "to": "0x214Bff3588C0607Ac539d1407fb382C787B487eD",
      "value": {
        "_hex": "0x4563918244f40000"
      },
      "nonce": 5,
      "data": "0x",
      "r": "0x636b137cb6041cce7b8add09fdcf4e1cbdebdeeff66dfcc60d705c2cc95d5799",
      "s": "0x2c68e53fc9db1222fa774b365a56c02638acafc5339c2c0f3a9bb7d4ae6fd69a",
      "v": 27,
      "creates": null,
      "raw": "0xf86d05850d3d37f23a83015f9094214bff3588c0607ac539d1407fb382c787b487ed884563918244f40000801ba0636b137cb6041cce7b8add09fdcf4e1cbdebdeeff66dfcc60d705c2cc95d5799a02c68e53fc9db1222fa774b365a56c02638acafc5339c2c0f3a9bb7d4ae6fd69a",
      "networkId": 0,
      "chainId": 0
    }
  ]
}