{
  "hash": "0x58d0388572bad514328047aec9f33e9787f4281be8acbe9a9804e20654757783",
  "parentHash": "0x2398c7b58feb3776165941e2621c74bf8f7e4d2b8db0d891a3c4ac1d31c36e25",
  "number": 65664,
  "timestamp": 1439240862,
  "nonce": "0x32146735b045f51b",
  "difficulty": 1935909914777,
  "gasLimit": {
    "_hex": "0x2fefd8"
  },
  "gasUsed": {
    "_hex": "0x5208"
  },
  "miner": "0xEF247E639d49461D25F57e9362CadE3120910Ce0",
  "extraData": "0x476574682f76312e302e312f6c696e75782f676f312e342e32",
  "transactions": [
    {
      "hash": "0xc4c2da7272f3c76a97ff2507141b2df59f28026e013da3981d1894a8343e1d8f",
      "blockHash": "0x58d0388572bad514328047aec9f33e9787f4281be8acbe9a9804e20654757783",
      "blockNumber": 65664,
      "transactionIndex": 0,
      "confirmations": null,
      "from": "0x6CEaB690C13c569062c3E85A2A27fAF1eBad174b",
      "gasPrice": {
        "_hex": "0x1066e9dc2f2"
      },
      "gasLimit": {
        "_hex": "0x15f90"
      },
      "to": "0xC916425CB50d7f1d6DF5178D0709844a9C92C50F",
      "value": {
        "_hex": "0xb1a2bc2ec500000"
      },
      "nonce": 2,
      "data": "0x",
      "r": "0x0b50309342618a0770c80bcc53ee80f9d6c65b26043606bbaa4e25e23583d4ca",
      "s": "0x108705ae4bf7e94dd4763d61463c553008c112f23c65f86cd8fb78327e1b230c",
      "v": 28,
      "creates": null,
      "raw": "0xf86e028601066e9dc2f283015f9094c916425cb50d7f1d6df5178d0709844a9c92c50f880b1a2bc2ec500000801ca00b50309342618a0770c80bcc53ee80f9d6c65b26043606bbaa4e25e23583d4caa0108705ae4bf7e94dd4763d61463c553008c112f23c65f86cd8fb78327e1b230c",
      "networkId": 0,
      "chainId": 0
    }
  ]
}