{
  "hash": "0xb791099fe329b209e9141ae6050b9709b8fdfc5295c4c9537d6a7b3d9b829a61",
  "parentHash": "0xab14ea530f8686029ec8602c8c5581caa0a5a53b405b0d831a197506f92ede87",
  "number": 100049,
  "timestamp": 1439799836,
  "nonce": "0x66085cfded9c9823",
  "difficulty": 3847395660678,
  "gasLimit": {
    "_hex": "0x2fefd8"
  },
  "gasUsed": {
    "_hex": "0xa410"
  },
  "miner": "0xE9dEfDfce0C01e6385eD158792d329d53D7569Df",
  "extraData": "0x476574682f76312e302e312f77696e646f77732f676f312e342e32",
  "transactions": [
    {
      "hash": "0x6ed570a0315ae2ea48320e63da924d27523c02db46f4d5b5ed738a1bd8e1272a",
      "blockHash": "0xb791099fe329b209e9141ae6050b9709b8fdfc5295c4c9537d6a7b3d9b829a61",
      "blockNumber": 100049,
      "transactionIndex": 0,
      "confirmations": null,
      "from": "0xc0920452d99591a4e8b190632c52754c72F73328",
      "gasPrice": {
        "_hex": "0xd1a1c618b"
      },
      "gasLimit": {
        "_hex": "0x5208"
      },
      "to": "0x32Be343B94f860124dC4fEe278FDCBD38C102D88",
      "value": {
        "_hex": "0x1e769d123a2264000"
      },
      "nonce": 8,
      "data": "0x",
      "r": "0x1a1ab925aacc58708045e675f2d1ad5cea49526c9a46ed17c863f8e71f37ea6d",
      "s": "0x2b486e3c4dba5c4a44ce5d51b1598eb2ee2c7fc5cff69aae579e8b26b885e49e",
      "v": 27,
      "creates": null,
      "raw": "0xf86d08850d1a1c618b8252089432be343b94f860124dc4fee278fdcbd38c102d888901e769d123a2264000801ba01a1ab925aacc58708045e675f2d1ad5cea49526c9a46ed17c863f8e71f37ea6da02b486e3c4dba5c4a44ce5d51b1598eb2ee2c7fc5cff69aae579e8b26b885e49e",
      "networkId": 0,
      "chainId": 0
    },
    {
      "hash": "0x96d58100e4db7d08fb6850bf3396f39036cc0bdb8490bc0274d716c45df9449b",
      "blockHash": "0xb791099fe329b209e9141ae6050b9709b8fdfc5295c4c9537d6a7b3d9b829a61",
      "blockNumber": 100049,
      "transactionIndex": 1,
      "confirmations": null,
      "from": "0xdCB14605B0EE4F372D223e5DF87aa9e760886D01",
      "gasPrice": {
        "_hex": "0xd1a1c618b"
      },
      "gasLimit": {
        "_hex": "0x5208"
      },
      "to": "0x32Be343B94f860124dC4fEe278FDCBD38C102D88",
      "value": {
        "_hex": "0x3c5e3b510c865e000"
      },
      "nonce": 7,
      "data": "0x",
      "r": "0xeb2913247b3a7e174e514a8204a6a85d30ec890fd4f33f6edc2d46c83ac0eb7a",
      "s": "0x1184f2134989e242b47d6e7aab0405c40f2cfed5ec3ac9bd916c483e07658c31",
      "v": 27,
      "creates": null,
      "raw": "0xf86d07850d1a1c618b8252089432be343b94f860124dc4fee278fdcbd38c102d888903c5e3b510c865e000801ba0eb2913247b3a7e174e514a8204a6a85d30ec890fd4f33f6edc2d46c83ac0eb7aa01184f2134989e242b47d6e7aab0405c40f2cfed5ec3ac9bd916c483e07658c31",
      "networkId": 0,
      "chainId": 0
    }
  ]
}