{
  "hash": "0x3d85464f861087b865e8c2b17bc7eb4aecc43b38a9ee3e9f45caab70a993bfd1",
  "parentHash": "0x64fd081f1b1faa371651aabb22e86e877ee22cc1679613bec2bdae73d957303f",
  "number": 69040,
  "timestamp": 1439297521,
  "nonce": "0x057cb7073c7773fc",
  "difficulty": 2039917538462,
  "gasLimit": {
    "_hex": "0x2fefd8"
  },
  "gasUsed": {
    "_hex": "0x42a68"
  },
  "miner": "0xe6A7a1d47ff21B6321162AEA7C6CB457D5476Bca",
  "extraData": "0x476574682f76312e302e312d38326566323666362f6c696e75782f676f312e34",
  "transactions": [
    {
      "hash": "0xd0d1423af026330998eb1daab4c9400cb1b8c296dc134c152dd7fa1309f213cb",
      "blockHash": "0x3d85464f861087b865e8c2b17bc7eb4aecc43b38a9ee3e9f45caab70a993bfd1",
      "blockNumber": 69040,
      "transactionIndex": 0,
      "confirmations": null,
      "from": "0xd392Ab3B669de4650076Cf5A8705CF846a5192Fb",
      "gasPrice": {
        "_hex": "0xba43b7400"
      },
      "gasLimit": {
        "_hex": "0x5208"
      },
      "to": "0xA45107b45ff7E4d5Dc0f2bd3f81Dd0Fb9c8014fA",
      "value": {
        "_hex": "0x1ee8b7b42062000"
      },
      "nonce": 1,
      "data": "0x",
      "r": "0x2853cde35ca1ca0ddbe259c4447ea6ea605e570512ca4a0b2e920e47d499c3cc",
      "s": "0x07c428d05e03a257f6181da8e7e1cc6c2d76ab74b3ed0c1dd6154ec9767a2725",
      "v": 27,
      "creates": null,
      "raw": "0xf86c01850ba43b740082520894a45107b45ff7e4d5dc0f2bd3f81dd0fb9c8014fa8801ee8b7b42062000801ba02853cde35ca1ca0ddbe259c4447ea6ea605e570512ca4a0b2e920e47d499c3cca007c428d05e03a257f6181da8e7e1cc6c2d76ab74b3ed0c1dd6154ec9767a2725",
      "networkId": 0,
      "chainId": 0
    },
    {
      "hash": "0x6426f9fda60cfd8220ecff19c6cd505be9a3b40c32876af7c2ead7910f3e7072",
      "blockHash": "0x3d85464f861087b865e8c2b17bc7eb4aecc43b38a9ee3e9f45caab70a993bfd1",
      "blockNumber": 69040,
      "transactionIndex": 1,
      "confirmations": null,
      "from": "0x5626052Dc26588Fe02CB91F859b462A2eC1BC303",
      "gasPrice": {
        "_hex": "0xba43b7400"
      },
      "gasLimit": {
        "_hex": "0x5208"
      },
      "to": "0xAdf6FC422aE976CD4f9efb7fC8c1bA1B028444A1",
      "value": {
        "_hex": "0x1ee8b7b42062000"
      },
      "nonce": 1,
      "data": "0x",
      "r": "0x1d2897ed3142e54c07b78938582dce0312c98f2a01fb9fd5da3197c998ba77e8",
      "s": "0x5bdcbf307653abbad2dc278cb58f0a1eebb733fd881ad9339eb4c12f032dfb13",
      "v": 28,
      "creates": null,
      "raw": "0xf86c01850ba43b740082520894adf6fc422ae976cd4f9efb7fc8c1ba1b028444a18801ee8b7b42062000801ca01d2897ed3142e54c07b78938582dce0312c98f2a01fb9fd5da3197c998ba77e8a05bdcbf307653abbad2dc278cb58f0a1eebb733fd881ad9339eb4c12f032dfb13",
      "networkId": 0,
      "chainId": 0
    },
    {
      "hash": "0xa9afd0785e28b9aa788102cc521858fb8cacae2d8a5469ced6c44b16d58c9f05",
      "blockHash": "0x3d85464f861087b865e8c2b17bc7eb4aecc43b38a9ee3e9f45caab70a993bfd1",
      "blockNumber": 69040,
      "transactionIndex": 2,
      "confirmations": null,
      "from": "0x25A44ee5CDf5171c16632113d9665fcfE7D6708b",
      "gasPrice": {
        "_hex": "0xba43b7400"
      },
      "gasLimit": {
        "_hex": "0x5208"
      },
      "to": "0xBC85999ef438b65E8Ac0fe6757E1A0D540d5313f",
      "value": {
        "_hex": "0x1ee8b7b42062000"
      },
      "nonce": 1,
      "data": "0x",
      "r": "0x3fa3c3970944d9bb6cadb0078848997814270df32f95046a025180fe2a8d10a3",
      "s": "0x1cebf41555b601d826b2dd8df30cdfb50dc2ead79a07e19d40713a2a3b08687e",
      "v": 28,
      "creates": null,
      "raw": "0xf86c01850ba43b740082520894bc85999ef438b65e8ac0fe6757e1a0d540d5313f8801ee8b7b42062000801ca03fa3c3970944d9bb6cadb0078848997814270df32f95046a025180fe2a8d10a3a01cebf41555b601d826b2dd8df30cdfb50dc2ead79a07e19d40713a2a3b08687e",
      "networkId": 0,
      "chainId": 0
    },
    {
      "hash": "0xfffc1872bb4b563c33157e795f4705a147b465949f4ebf18e1331e60da83cc82",
      "blockHash": "0x3d85464f861087b865e8c2b17bc7eb4aecc43b38a9ee3e9f45caab70a993bfd1",
      "blockNumber": 69040,
      "transactionIndex": 3,
      "confirmations": null,
      "from": "0x7bC37EB17cb496318E825384CE7146DCaaB873b1",
      "gasPrice": {
        "_hex": "0xba43b7400"
      },
      "gasLimit": {
        "_hex": "0x5208"
      },
      "to": "0xa3B518A536f9f3E47e71Fd084A4aab35F9b5D2f6",
      "value": {
        "_hex": "0x1ee8b7b42062000"
      },
      "nonce": 1,
      "data": "0x",
      "r": "0x606ae7d5869ed7649db6cb83609c397071392548e941373f97ac073a7546d6eb",
      "s": "0x656696bcb027de33b74fef194b51871c5ce6c777114ea7008ff20256b8d2df64",
      "v": 28,
      "creates": null,
      "raw": "0xf86c01850ba43b740082520894a3b518a536f9f3e47e71fd084a4aab35f9b5d2f68801ee8b7b42062000801ca0606ae7d5869ed7649db6cb83609c397071392548e941373f97ac073a7546d6eba0656696bcb027de33b74fef194b51871c5ce6c777114ea7008ff20256b8d2df64",
      "networkId": 0,
      "chainId": 0
    },
    {
      "hash": "0xf79362b73336ffbbc1edb0ee646cee2be58156195354e48b9a66e3b7fbcaae7e",
      "blockHash": "0x3d85464f861087b865e8c2b17bc7eb4aecc43b38a9ee3e9f45caab70a993bfd1",
      "blockNumber": 69040,
      "transactionIndex": 4,
      "confirmations": null,
      "from": "0x4829FDEf3a853cFf1f478ee90E073DfC311Ca363",
      "gasPrice": {
        "_hex": "0xba43b7400"
      },
      "gasLimit": {
        "_hex": "0x5208"
      },
      "to": "0x674291bA8c2d0d956cD8B3798404e8d459079304",
      "value": {
        "_hex": "0x1ee8b7b42062000"
      },
      "nonce": 1,
      "data": "0x",
      "r": "0xd49d6f997695b6a7f5d049dbaa44ef0cd10415d95d6005aba32b25b8f0937c3d",
      "s": "0x58a3fe5757b27c364f20cc127e37ed70ac7d947af23ef9657738aa0859c470e9",
      "v": 27,
      "creates": null,
      "raw": "0xf86c01850ba43b740082520894674291ba8c2d0d956cd8b3798404e8d4590793048801ee8b7b42062000801ba0d49d6f997695b6a7f5d049dbaa44ef0cd10415d95d6005aba32b25b8f0937c3da058a3fe5757b27c364f20cc127e37ed70ac7d947af23ef9657738aa0859c470e9",
      "networkId": 0,
      "chainId": 0
    },
    {
      "hash": "0x5df18b5f941d882c14cd87d18e25dec7219de90063abf51c3f21413717e3fa4b",
      "blockHash": "0x3d85464f861087b865e8c2b17bc7eb4aecc43b38a9ee3e9f45caab70a993bfd1",
      "blockNumber": 69040,
      "transactionIndex": 5,
      "confirmations": null,
      "from": "0xf88Bb49e1F8BBC0e7DEa0aA5Cf4D1D832c829f0D",
      "gasPrice": {
        "_hex": "0xba43b7400"
      },
      "gasLimit": {
        "_hex": "0x5208"
      },
      "to": "0x0d716a58380bd4BB4192597bd9a7A226C18dA58a",
      "value": {
        "_hex": "0x1ee8b7b42062000"
      },
      "nonce": 1,
      "data": "0x",
      "r": "0x90eeb27807e76bd6526a342c5005e5fb745097d2f75e30236faec3e7a4cfdc85",
      "s": "0x7dd0c816be55542508112506510f1a624095da725c1d3ce2615000dc0fd72aa5",
      "v": 28,
      "creates": null,
      "raw": "0xf86c01850ba43b7400825208940d716a58380bd4bb4192597bd9a7a226c18da58a8801ee8b7b42062000801ca090eeb27807e76bd6526a342c5005e5fb745097d2f75e30236faec3e7a4cfdc85a07dd0c816be55542508112506510f1a624095da725c1d3ce2615000dc0fd72aa5",
      "networkId": 0,
      "chainId": 0
    },
    {
      "hash": "0x347149d137ffa233dd33946a9758b93b4ac204eef3f946361fc63852f1abbabe",
      "blockHash": "0x3d85464f861087b865e8c2b17bc7eb4aecc43b38a9ee3e9f45caab70a993bfd1",
      "blockNumber": 69040,
      "transactionIndex": 6,
      "confirmations": null,
      "from": "0x064637D068e92F3fad1d6d95E1227845D700d35c",
      "gasPrice": {
        "_hex": "0xba43b7400"
      },
      "gasLimit": {
        "_hex": "0x5208"
      },
      "to": "0xDF16FaEbF453A41257E2c8aED173c075763EdA4C",
      "value": {
        "_hex": "0x1ee8b7b42062000"
      },
      "nonce": 1,
      "data": "0x",
      "r": "0xc2a967d5c9cd3ace90e1f8176a16bcd59b75d93e7ba2f71ee077e06490dda1ec",
      "s": "0x0f5fead20f801caed221241e3d5d9a93f9045cd56321b0a111fed8251a182936",
      "v": 27,
      "creates": null,
      "raw": "0xf86c01850ba43b740082520894df16faebf453a41257e2c8aed173c075763eda4c8801ee8b7b42062000801ba0c2a967d5c9cd3ace90e1f8176a16bcd59b75d93e7ba2f71ee077e06490dda1eca00f5fead20f801caed221241e3d5d9a93f9045cd56321b0a111fed8251a182936",
      "networkId": 0,
      "chainId": 0
    },
    {
      "hash": "0x8bbf268aafe27d9d1303e711b5ca66be7a28043aacc8679661b5e2bca70cb179",
      "blockHash": "0x3d85464f861087b865e8c2b17bc7eb4aecc43b38a9ee3e9f45caab70a993bfd1",
      "blockNumber": 69040,
      "transactionIndex": 7,
      "confirmations": null,
      "from": "0x72b81bDFEDcF2dde462ED93396ee1f3A99ada1F6",
      "gasPrice": {
        "_hex": "0xba43b7400"
      },
      "gasLimit": {
        "_hex": "0x5208"
      },
      "to": "0x37145b7e6c638231CBfe14B648247277b74312a7",
      "value": {
        "_hex": "0x1ee8b7b42062000"
      },
      "nonce": 1,
      "data": "0x",
      "r": "0x4dfe72d9a4573ad1c5e6b335f16a0e60a837b38620c391eb359a925ea3ab4e40",
      "s": "0x6af04ef8c079f3a4d4976062a1e4ce34fd0c45653475a79a77a5320b595d5478",
      "v": 27,
      "creates": null,
      "raw": "0xf86c01850ba43b74008252089437145b7e6c638231cbfe14b648247277b74312a78801ee8b7b42062000801ba04dfe72d9a4573ad1c5e6b335f16a0e60a837b38620c391eb359a925ea3ab4e40a06af04ef8c079f3a4d4976062a1e4ce34fd0c45653475a79a77a5320b595d5478",
      "networkId": 0,
      "chainId": 0
    },
    {
      "hash": "0xdf0ae2bfb6f7e94a044bc51a62e9a1119ca1111fbf0df813efc5da099a549863",
      "blockHash": "0x3d85464f861087b865e8c2b17bc7eb4aecc43b38a9ee3e9f45caab70a993bfd1",
      "blockNumber": 69040,
      "transactionIndex": 8,
      "confirmations": null,
      "from": "0x16730db8dFc9E0b15Ac338975c4d7a75ef375E9e",
      "gasPrice": {
        "_hex": "0xba43b7400"
      },
      "gasLimit": {
        "_hex": "0x5208"
      },
      "to": "0x24552a9C80D335C95B39EF2cb78685Eca9Bf1e8c",
      "value": {
        "_hex": "0x1ee8b7b42062000"
      },
      "nonce": 1,
      "data": "0x",
      "r": "0xd25285cbb26a09c8d6cb8e3c2ebb612e93b54dc75b994cc91d0c5c741844034a",
      "s": "0x5f6e20bdd03b66603625ab2d518ba0443eb63ff964ffe0a0a0e27bd4cea312d3",
      "v": 27,
      "creates": null,
      "raw": "0xf86c01850ba43b74008252089424552a9c80d335c95b39ef2cb78685eca9bf1e8c8801ee8b7b42062000801ba0d25285cbb26a09c8d6cb8e3c2ebb612e93b54dc75b994cc91d0c5c741844034aa05f6e20bdd03b66603625ab2d518ba0443eb63ff964ffe0a0a0e27bd4cea312d3",
      "networkId": 0,
      "chainId": 0
    },
    {
      "hash": "0x3ce5aff9abfb4d15bb697a2a2e448c7a42a96cc04eea1a6db2ad7a9684f228d5",
      "blockHash": "0x3d85464f861087b865e8c2b17bc7eb4aecc43b38a9ee3e9f45caab70a993bfd1",
      "blockNumber": 69040,
      "transactionIndex": 9,
      "confirmations": null,
      "from": "0xA84C48f517770B47e1aDCf954F4ef6478DCAc27b",
      "gasPrice": {
        "_hex": "0xba43b7400"
      },
      "gasLimit": {
        "_hex": "0x5208"
      },
      "to": "0x6904Da81b3FE5e6AcF1B9c1Bcdbe2e53dAcC2cC1",
      "value": {
        "_hex": "0x1ee8b7b42062000"
      },
      "nonce": 1,
      "data": "0x",
      "r": "0x48d85b74e123a68edf135eec17476b7b59d66f43beae990f5078602121dacd87",
      "s": "0x78b881b2386ad0d32163fb7c06e9c60babe1705cfdb7a25eccddbcb6c12f54ef",
      "v": 27,
      "creates": null,
      "raw": "0xf86c01850ba43b7400825208946904da81b3fe5e6acf1b9c1bcdbe2e53dacc2cc18801ee8b7b42062000801ba048d85b74e123a68edf135eec17476b7b59d66f43beae990f5078602121dacd87a078b881b2386ad0d32163fb7c06e9c60babe1705cfdb7a25eccddbcb6c12f54ef",
      "networkId": 0,
      "chainId": 0
    },
    {
      "hash": "0x588d98f047d22eb0c428551dc655cd1141c574cb0ec696808a2945d298896525",
      "blockHash": "0x3d85464f861087b865e8c2b17bc7eb4aecc43b38a9ee3e9f45caab70a993bfd1",
      "blockNumber": 69040,
      "transactionIndex": 10,
      "confirmations": null,
      "from": "0xB63f8e5eAA9255F461647398A0C61e4D06A15766",
      "gasPrice": {
        "_hex": "0xba43b7400"
      },
      "gasLimit": {
        "_hex": "0x5208"
      },
      "to": "0x645999a2167F7B6614f0C0691F3b12C48F480169",
      "value": {
        "_hex": "0x1ee8b7b42062000"
      },
      "nonce": 1,
      "data": "0x",
      "r": "0x91faab7a91473df66b06a37bb2464b9e30c13917cd44691a778469f8e073770b",
      "s": "0x35d4b7e497c5b1551024f9e806e0c6221b1eaaafc4d689c03b6f931599549547",
      "v": 27,
      "creates": null,
      "raw": "0xf86c01850ba43b740082520894645999a2167f7b6614f0c0691f3b12c48f4801698801ee8b7b42062000801ba091faab7a91473df66b06a37bb2464b9e30c13917cd44691a778469f8e073770ba035d4b7e497c5b1551024f9e806e0c6221b1eaaafc4d689c03b6f931599549547",
      "networkId": 0,
      "chainId": 0
    },
    {
      "hash": "0x879cf4327b3efc81bdc2e1ee9cfebdc220f6b6d5c332fca1cfb97acadcc4eaa9",
      "blockHash": "0x3d85464f861087b865e8c2b17bc7eb4aecc43b38a9ee3e9f45caab70a993bfd1",
      "blockNumber": 69040,
      "transactionIndex": 11,
      "confirmations": null,
      "from": "0xaeEd5aF87D03C0e9dbd70e56C7D1971EA83a0Bc4",
      "gasPrice": {
        "_hex": "0xba43b7400"
      },
      "gasLimit": {
        "_hex": "0x5208"
      },
      "to": "0x9858447d05901DA8E335b3705D961fCD25e51C44",
      "value": {
        "_hex": "0x1ee8b7b42062000"
      },
      "nonce": 1,
      "data": "0x",
      "r": "0xcef7e9ae56d3e50bf4a595ba55db63c1757156d9212e5a7bd44e984f66af2b14",
      "s": "0x4363d9d131a413a02f27b845242e4c98cb0a9f0eb8b54e8798b3fa3670d5d43d",
      "v": 27,
      "creates": null,
      "raw": "0xf86c01850ba43b7400825208949858447d05901da8e335b3705d961fcd25e51c448801ee8b7b42062000801ba0cef7e9ae56d3e50bf4a595ba55db63c1757156d9212e5a7bd44e984f66af2b14a04363d9d131a413a02f27b845242e4c98cb0a9f0eb8b54e8798b3fa3670d5d43d",
      "networkId": 0,
      "chainId": 0
    },
    {
      "hash": "0xa88f44c1a5fad9f163b7879a337ebc5a52bab1bdc9ecaefa31c6680d57a0e6b6",
      "blockHash": "0x3d85464f861087b865e8c2b17bc7eb4aecc43b38a9ee3e9f45caab70a993bfd1",
      "blockNumber": 69040,
      "transactionIndex": 12,
      "confirmations": null,
      "from": "0xf4e8bE8B1d4133f08c272ab78d07baC4d4D91b81",
      "gasPrice": {
        "_hex": "0xba43b7400"
      },
      "gasLimit": {
        "_hex": "0x5208"
      },
      "to": "0xCCb207fCeFb18973eF68397B92ac3e68673AA20A",
      "value": {
        "_hex": "0x1ee8b7b42062000"
      },
      "nonce": 1,
      "data": "0x",
      "r": "0x540b851348dcc0be52ef7b032867462b69becef6fe7902ca55c342b000f4b2f8",
      "s": "0x3a63538b11bb7148e5496f0884d96b83a1ffac4879c040a65e8ccae49dfeadb7",
      "v": 27,
      "creates": null,
      "raw": "0xf86c01850ba43b740082520894ccb207fcefb18973ef68397b92ac3e68673aa20a8801ee8b7b42062000801ba0540b851348dcc0be52ef7b032867462b69becef6fe7902ca55c342b000f4b2f8a03a63538b11bb7148e5496f0884d96b83a1ffac4879c040a65e8ccae49dfeadb7",
      "networkId": 0,
      "chainId": 0
    }
  ]
}