{
  "hash": "0xd29a8e71ab6ae2cabbe543884fbedda21c1e9833eb6f73af20568ab9ee57ccfd",
  "parentHash": "0xecba1b0435b27df7141cc1e2895d853f3de2ac8ec8c1a73f9f9bee1bf919c2d8",
  "number": 83259,
  "timestamp": 1439532770,
  "nonce": "0x414060698635426a",
  "difficulty": 2417178811863,
  "gasLimit": {
    "_hex": "0x2fefd8"
  },
  "gasUsed": {
    "_hex": "0x5208"
  },
  "miner": "0xe6A7a1d47ff21B6321162AEA7C6CB457D5476Bca",
  "extraData": "0x476574682f76312e302e312d38326566323666362f6c696e75782f676f312e34",
  "transactions": [
    {
      "hash": "0xf37d9f3f3415976ea487360f53c05877f11567cb6f1f54443a70088fd0183cb8",
      "blockHash": "0xd29a8e71ab6ae2cabbe543884fbedda21c1e9833eb6f73af20568ab9ee57ccfd",
      "blockNumber": 83259,
      "transactionIndex": 0,
      "confirmations": null,
      "from": "0xabceA603089850F8f6bB612A9031554D90A247CF",
      "gasPrice": {
        "_hex": "0xcb843f502"
      },
      "gasLimit": {
        "_hex": "0x5208"
      },
      "to": "0x32Be343B94f860124dC4fEe278FDCBD38C102D88",
      "value": {
        "_hex": "0x18066217642d62000"
      },
      "nonce": 23,
      "data": "0x",
      "r": "0x3d32cd08c95b90841a22319bdff4ad925303b12ece93c657f89d50e648967d49",
      "s": "0x436e7cf79738e3d60eca7698d1858d4476cd71a37af4b334e65aa3df802ed058",
      "v": 27,
      "creates": null,
      "raw": "0xf86d17850cb843f5028252089432be343b94f860124dc4fee278fdcbd38c102d8889018066217642d62000801ba03d32cd08c95b90841a22319bdff4ad925303b12ece93c657f89d50e648967d49a0436e7cf79738e3d60eca7698d1858d4476cd71a37af4b334e65aa3df802ed058",
      "networkId": 0,
      "chainId": 0
    }
  ]
}