{
  "hash": "0xdae6103c6ea5940d6ac6cd38638c0751fe0549abd69f130d184ad02d4c726092",
  "parentHash": "0x5a179713313f4536324161f4dfe8f4776a685228399047d8bb0d07b454db2197",
  "number": 79546,
  "timestamp": 1439471422,
  "nonce": "0x57333e07c16f70ad",
  "difficulty": 2342703068774,
  "gasLimit": {
    "_hex": "0x2fefd8"
  },
  "gasUsed": {
    "_hex": "0x5208"
  },
  "miner": "0xe090Ffdced499691fA9379752a59F8A058c1eE4A",
  "extraData": "0x476574682f76312e302e312f6c696e75782f676f312e342e32",
  "transactions": [
    {
      "hash": "0x5bf50d9f013cc27a1e31399d0087ac1fdd494ceb3f74eedadfd13af4c2636b00",
      "blockHash": "0xdae6103c6ea5940d6ac6cd38638c0751fe0549abd69f130d184ad02d4c726092",
      "blockNumber": 79546,
      "transactionIndex": 0,
      "confirmations": null,
      "from": "0x3730a07b6d2d7413d0d76B91935F60bB0b1d8E2F",
      "gasPrice": {
        "_hex": "0xba43b7400"
      },
      "gasLimit": {
        "_hex": "0x5267"
      },
      "to": "0x00cC9f63304b1c51a46C9dd94b0080e3FC12d341",
      "value": {
        "_hex": "0x2632e314a000"
      },
      "nonce": 1,
      "data": "0x",
      "r": "0xc850cba6e0ba782bd29412e2e1b9d97418d37cc56405de3e00f7d6938dadab8e",
      "s": "0x0a14479864e562b235f5e6c49010b8b7bb5407f583e61ff8689f18ed89868ddf",
      "v": 28,
      "creates": null,
      "raw": "0xf86a01850ba43b74008252679400cc9f63304b1c51a46c9dd94b0080e3fc12d341862632e314a000801ca0c850cba6e0ba782bd29412e2e1b9d97418d37cc56405de3e00f7d6938dadab8ea00a14479864e562b235f5e6c49010b8b7bb5407f583e61ff8689f18ed89868ddf",
      "networkId": 0,
      "chainId": 0
    }
  ]
}