{
  "hash": "0x758752a07e91c2071fff9208df7566966dd55cb32aedea175a9dc86eeb952edc",
  "parentHash": "0x64bb554170a8a5ade16c56a5591a4569ddf44604cb9fb0137bccf709c0515c26",
  "number": 54448,
  "timestamp": 1439054442,
  "nonce": "0x4a4aa6dc89b084d2",
  "difficulty": 1608643143209,
  "gasLimit": {
    "_hex": "0x2fd7e7"
  },
  "gasUsed": {
    "_hex": "0xa674"
  },
  "miner": "0x356CEFb4Eb836DC68403308309E075a31DD991D2",
  "extraData": "0x476574682f76312e302e302f6c696e75782f676f312e342e32",
  "transactions": [
    {
      "hash": "0xa76c1a37f72a6c491bf9b956db66cbebda9351f03e2f94c672e6babf93525382",
      "blockHash": "0x758752a07e91c2071fff9208df7566966dd55cb32aedea175a9dc86eeb952edc",
      "blockNumber": 54448,
      "transactionIndex": 0,
      "confirmations": null,
      "from": "0x710b0274d712C77E08a5707D6f3E70c0Ce3d92CF",
      "gasPrice": {
        "_hex": "0x10e7809bb4a"
      },
      "gasLimit": {
        "_hex": "0x15f90"
      },
      "to": "0x2910543Af39abA0Cd09dBb2D50200b3E800A63D2",
      "value": {
        "_hex": "0x821ab0d4414980000"
      },
      "nonce": 1,
      "data": "0x454e42304e4b394752",
      "r": "0x6490ffe934d79801f68eb8503ea0fc9b29fa5d40d382484c5babf3bb23f37eb1",
      "s": "0x03711357d7bcc05460981f57b59a72a6d05a2f307b2effb5a903f4ba603356d6",
      "v": 28,
      "creates": null,
      "raw": "0xf8780186010e7809bb4a83015f90942910543af39aba0cd09dbb2d50200b3e800a63d2890821ab0d441498000089454e42304e4b3947521ca06490ffe934d79801f68eb8503ea0fc9b29fa5d40d382484c5babf3bb23f37eb1a003711357d7bcc05460981f57b59a72a6d05a2f307b2effb5a903f4ba603356d6",
      "networkId": 0,
      "chainId": 0
    },
    {
      "hash": "0xc5d533b5c0b7d4fbe9f6017ce850ccb7a5c6533de84d8991041e10cb982ac0f4",
      "blockHash": "0x758752a07e91c2071fff9208df7566966dd55cb32aedea175a9dc86eeb952edc",
      "blockNumber": 54448,
      "transactionIndex": 1,
      "confirmations": null,
      "from": "0x1C257ad4A55105ea3B58Ed374b198dA266c85f63",
      "gasPrice": {
        "_hex": "0x10bd2717cdb"
      },
      "gasLimit": {
        "_hex": "0x5208"
      },
      "to": "0x439632734cdF5a84774156c1938CbeDe2eF398F0",
      "value": {
        "_hex": "0x2b5e3af16b1880000"
      },
      "nonce": 6,
      "data": "0x",
      "r": "0x9cc8fcc4f1d112317e1b7d6037678b927d6804ac3aed1833f589303f4745cfa5",
      "s": "0x15ec7864111d6d2d8dc5b415e58469d185d1bdd39fb37be2d952b62678b6d239",
      "v": 27,
      "creates": null,
      "raw": "0xf86e0686010bd2717cdb82520894439632734cdf5a84774156c1938cbede2ef398f08902b5e3af16b1880000801ba09cc8fcc4f1d112317e1b7d6037678b927d6804ac3aed1833f589303f4745cfa5a015ec7864111d6d2d8dc5b415e58469d185d1bdd39fb37be2d952b62678b6d239",
      "networkId": 0,
      "chainId": 0
    }
  ]
}