{
  "hash": "0x616cdb16b8d8378cb6f4b274a01ecbd5d8360b408410ca9bd18d8cbfa33fbf8a",
  "parentHash": "0xb441c631351c3057dfd9d80fa37bdb033458662cf8130d770d2a4d7d1aae91c9",
  "number": 107701,
  "timestamp": 1439927262,
  "nonce": "0xdd78f32210ac2777",
  "difficulty": 4377015506086,
  "gasLimit": {
    "_hex": "0x2fefd8"
  },
  "gasUsed": {
    "_hex": "0x5208"
  },
  "miner": "0xf927a40C8B7F6E07c5af7FA2155B4864a4112B13",
  "extraData": "0x",
  "transactions": [
    {
      "hash": "0x6433b775182909f45f503482c991fafe3b3db7d0029c61ede7bfae90c82638ce",
      "blockHash": "0x616cdb16b8d8378cb6f4b274a01ecbd5d8360b408410ca9bd18d8cbfa33fbf8a",
      "blockNumber": 107701,
      "transactionIndex": 0,
      "confirmations": null,
      "from": "0x0D2C9857E819cf1275eb59B49033343ccC35fe42",
      "gasPrice": {
        "_hex": "0xcb3ebb06b"
      },
      "gasLimit": {
        "_hex": "0x15f90"
      },
      "to": "0x02aca973fdeA473c380F2cFbA7760220d2CB38Ea",
      "value": {
        "_hex": "0x2b5e3af16b1880000"
      },
      "nonce": 1,
      "data": "0x",
      "r": "0x8e5d2791e58fd24c3ea5a29c06c6e97f1791590bdd9d062cd5a80be49dcd03c7",
      "s": "0x08e62f2da99df53331c187be78e2c292dec4231283258a08a061d10105dbe66a",
      "v": 28,
      "creates": null,
      "raw": "0xf86e01850cb3ebb06b83015f909402aca973fdea473c380f2cfba7760220d2cb38ea8902b5e3af16b1880000801ca08e5d2791e58fd24c3ea5a29c06c6e97f1791590bdd9d062cd5a80be49dcd03c7a008e62f2da99df53331c187be78e2c292dec4231283258a08a061d10105dbe66a",
      "networkId": 0,
      "chainId": 0
    }
  ]
}