{
  "hash": "0x67297ac5848988bbde0fbfd034b6573ce3c15a5c01c22b6bff4a75d6ba8ef43b",
  "parentHash": "0x0068019f894f70ff91f74f24ed8000767b40ab9cdd0d0babd094a659eaf30745",
  "number": 64816,
  "timestamp": 1439226672,
  "nonce": "0x9ce64194c47ce470",
  "difficulty": 1898657949252,
  "gasLimit": {
    "_hex": "0x2fefd8"
  },
  "gasUsed": {
    "_hex": "0x17cd8"
  },
  "miner": "0xf927a40C8B7F6E07c5af7FA2155B4864a4112B13",
  "extraData": "0x",
  "transactions": [
    {
      "hash": "0x9ed6e0ca5ed13d2eae60bfecd97eeaffd33b9cb863696cbda590131470502e4a",
      "blockHash": "0x67297ac5848988bbde0fbfd034b6573ce3c15a5c01c22b6bff4a75d6ba8ef43b",
      "blockNumber": 64816,
      "transactionIndex": 0,
      "confirmations": null,
      "from": "0x5B80B04cBad97d1A7BeBD3eC81ed7b78AA922381",
      "gasPrice": {
        "_hex": "0xba43b7400"
      },
      "gasLimit": {
        "_hex": "0x15f90"
      },
      "to": "0x793AE8C1b1a160BFc07BFB0d04F85eab1A71F4f2",
      "value": {
        "_hex": "0x0"
      },
      "nonce": 0,
      "data": "0x3ba15036",
      "r": "0x7cdcacb1a792145c56111619d7e98112ae14229a2bd6cfc6020ca6a9456c5e0d",
      "s": "0x0c9cfdec50132b99a64f174b0436ac1f67541a1787b3c7086b5e827d00022cfa",
      "v": 28,
      "creates": null,
      "raw": "0xf86980850ba43b740083015f9094793ae8c1b1a160bfc07bfb0d04f85eab1a71f4f280843ba150361ca07cdcacb1a792145c56111619d7e98112ae14229a2bd6cfc6020ca6a9456c5e0da00c9cfdec50132b99a64f174b0436ac1f67541a1787b3c7086b5e827d00022cfa",
      "networkId": 0,
      "chainId": 0
    },
    {
      "hash": "0x05b832c0994fbf348319eeebbc59ce03331a43f52363fce9bba26053a6f4ac1d",
      "blockHash": "0x67297ac5848988bbde0fbfd034b6573ce3c15a5c01c22b6bff4a75d6ba8ef43b",
      "blockNumber": 64816,
      "transactionIndex": 1,
      "confirmations": null,
      "from": "0x5DCF84FFc56A135124c58bB199Bfc7ba8af356B3",
      "gasPrice": {
        "_hex": "0xba43b7400"
      },
      "gasLimit": {
        "_hex": "0x15f90"
      },
      "to": "0x793AE8C1b1a160BFc07BFB0d04F85eab1A71F4f2",
      "value": {
        "_hex": "0x0"
      },
      "nonce": 0,
      "data": "0x3ba15036",
      "r": "0x987279e1a573c2252a04fdf9ce05d396e0b703a7c427d760b77531086404a196",
      "s": "0x338cd75a9eaec99609cd985c9ab99f9e325c11310a8c5c813f6f5bd9710cb605",
      "v": 27,
      "creates": null,
      "raw": "0xf86980850ba43b740083015f9094793ae8c1b1a160bfc07bfb0d04f85eab1a71f4f280843ba150361ba0987279e1a573c2252a04fdf9ce05d396e0b703a7c427d760b77531086404a196a0338cd75a9eaec99609cd985c9ab99f9e325c11310a8c5c813f6f5bd9710cb605",
      "networkId": 0,
      "chainId": 0
    }
  ]
}