{
  "hash": "0xd95407d5fb5f1376eb4841202e10343f05b8d94b4681fc85860c56238690ff2c",
  "parentHash": "0x312a91e1269875998682de81c1254c81b555ed3d9832315f2ad1a4288542016d",
  "number": 49448,
  "timestamp": 1438973614,
  "nonce": "0x6f25de2011f10a71",
  "difficulty": 1481387699015,
  "gasLimit": {
    "_hex": "0x31745"
  },
  "gasUsed": {
    "_hex": "0x546c"
  },
  "miner": "0x3222BA3F3e79eA0e31467EEE7639B57923558cCD",
  "extraData": "0x",
  "transactions": [
    {
      "hash": "0x968b799d64a2b0ab19cae73c968db760b6f02eb95504dd25119a70ed1594ab72",
      "blockHash": "0xd95407d5fb5f1376eb4841202e10343f05b8d94b4681fc85860c56238690ff2c",
      "blockNumber": 49448,
      "transactionIndex": 0,
      "confirmations": null,
      "from": "0x9C05E9d0f0758e795303717E31da213Ca157E686",
      "gasPrice": {
        "_hex": "0xdaccd3d58"
      },
      "gasLimit": {
        "_hex": "0x9c40"
      },
      "to": "0x2910543Af39abA0Cd09dBb2D50200b3E800A63D2",
      "value": {
        "_hex": "0xde0b6b3a7640000"
      },
      "nonce": 0,
      "data": "0x454e34433248304a30",
      "r": "0x88748cca28cc4f1894315bab32cd33eff905964071736d17567663727d7f8d8b",
      "s": "0x5138f7103eff8f455e9df0aa1e95af04c57c2203768b3607409f9ad2fdc8a0c0",
      "v": 27,
      "creates": null,
      "raw": "0xf87580850daccd3d58829c40942910543af39aba0cd09dbb2d50200b3e800a63d2880de0b6b3a764000089454e34433248304a301ba088748cca28cc4f1894315bab32cd33eff905964071736d17567663727d7f8d8ba05138f7103eff8f455e9df0aa1e95af04c57c2203768b3607409f9ad2fdc8a0c0",
      "networkId": 0,
      "chainId": 0
    }
  ]
}