{
  "hash": "0x1a45f872dd6b9b265ea310a5fb61bafba2f666fe0a36e6fa05ca5fd19d201179",
  "parentHash": "0x33c98b006a8453d13614136939baafc8bfc6bb54d1f8f3385142bd9c5b228d9e",
  "number": 52373,
  "timestamp": 1439020555,
  "nonce": "0x3483a18fadcd76ad",
  "difficulty": 1563348224098,
  "gasLimit": {
    "_hex": "0x130334"
  },
  "gasUsed": {
    "_hex": "0xf618"
  },
  "miner": "0xDaD56904f2996453f00a79C2C7ee2E8c47dFbba3",
  "extraData": "0x476574682f76312e302e312f6c696e75782f676f312e342e32",
  "transactions": [
    {
      "hash": "0x561531fac7741edb54df427d0da663b82c1ecb9f48a06d9ab457d450b7a37686",
      "blockHash": "0x1a45f872dd6b9b265ea310a5fb61bafba2f666fe0a36e6fa05ca5fd19d201179",
      "blockNumber": 52373,
      "transactionIndex": 0,
      "confirmations": null,
      "from": "0xb81b17f58AE6eBbC0c104C748cA0EB9A18516820",
      "gasPrice": {
        "_hex": "0xda030eed6"
      },
      "gasLimit": {
        "_hex": "0x5208"
      },
      "to": "0x32Be343B94f860124dC4fEe278FDCBD38C102D88",
      "value": {
        "_hex": "0x3635c5448dabb80000"
      },
      "nonce": 0,
      "data": "0x",
      "r": "0x358401fdd9cee7077e1207bb809172d9f6ff2158480dbc6bb7fe6f6435997e4a",
      "s": "0x3770888ca4bc75be73e977053d6b51b4f03b45f35c384d995ade4fbac48bbd56",
      "v": 27,
      "creates": null,
      "raw": "0xf86d80850da030eed68252089432be343b94f860124dc4fee278fdcbd38c102d88893635c5448dabb80000801ba0358401fdd9cee7077e1207bb809172d9f6ff2158480dbc6bb7fe6f6435997e4aa03770888ca4bc75be73e977053d6b51b4f03b45f35c384d995ade4fbac48bbd56",
      "networkId": 0,
      "chainId": 0
    },
    {
      "hash": "0x2d9519f7fb5289e777da5aba2c7e75b073d43ee23156d0e0b7ec6e4344928018",
      "blockHash": "0x1a45f872dd6b9b265ea310a5fb61bafba2f666fe0a36e6fa05ca5fd19d201179",
      "blockNumber": 52373,
      "transactionIndex": 1,
      "confirmations": null,
      "from": "0x32Be343B94f860124dC4fEe278FDCBD38C102D88",
      "gasPrice": {
        "_hex": "0xda030eed6"
      },
      "gasLimit": {
        "_hex": "0x5208"
      },
      "to": "0x2910543Af39abA0Cd09dBb2D50200b3E800A63D2",
      "value": {
        "_hex": "0x1fd2e031ec99690000"
      },
      "nonce": 9,
      "data": "0x",
      "r": "0x6fc263ae79daaaf6ab6c0ecdf457c9f9fba4003f3f0a605b31ca0205da8bea21",
      "s": "0x53414ee302a105108768c349cc040e733a3d123679639ddbe2404261c21ee722",
      "v": 27,
      "creates": null,
      "raw": "0xf86d09850da030eed6825208942910543af39aba0cd09dbb2d50200b3e800a63d2891fd2e031ec99690000801ba06fc263ae79daaaf6ab6c0ecdf457c9f9fba4003f3f0a605b31ca0205da8bea21a053414ee302a105108768c349cc040e733a3d123679639ddbe2404261c21ee722",
      "networkId": 0,
      "chainId": 0
    },
    {
      "hash": "0x00585049fb1b97e656b25079f4b0a5ecede94db0dbe634c2167d3925e5366446",
      "blockHash": "0x1a45f872dd6b9b265ea310a5fb61bafba2f666fe0a36e6fa05ca5fd19d201179",
      "blockNumber": 52373,
      "transactionIndex": 2,
      "confirmations": null,
      "from": "0x32Be343B94f860124dC4fEe278FDCBD38C102D88",
      "gasPrice": {
        "_hex": "0xda030eed6"
      },
      "gasLimit": {
        "_hex": "0x5208"
      },
      "to": "0x8674c218F0351a62C3BA78C34FD2182A93Da94E2",
      "value": {
        "_hex": "0x215355e06f7b68000"
      },
      "nonce": 10,
      "data": "0x",
      "r": "0xdc6078bafe773529d23ce079605eaa0b4a5c1dd51ba636fa0bc16a1c21c05776",
      "s": "0x671c61d8ab76ce5a2d41dbdb7dd1d5aadc4c6606dadfc680a99c5ac3441fa5d4",
      "v": 28,
      "creates": null,
      "raw": "0xf86d0a850da030eed6825208948674c218f0351a62c3ba78c34fd2182a93da94e2890215355e06f7b68000801ca0dc6078bafe773529d23ce079605eaa0b4a5c1dd51ba636fa0bc16a1c21c05776a0671c61d8ab76ce5a2d41dbdb7dd1d5aadc4c6606dadfc680a99c5ac3441fa5d4",
      "networkId": 0,
      "chainId": 0
    }
  ]
}