{
  "hash": "0xa1de5f004871193f65fd56e886b04fbf30e5542ca672ab98596c12907df574d8",
  "parentHash": "0x39236fd2afd7cbb839d83a15cc31fe13c14ac84491734d54ac00afb4a59803bd",
  "number": 54334,
  "timestamp": 1439052427,
  "nonce": "0xd21428c72c7eb665",
  "difficulty": 1608665004591,
  "gasLimit": {
    "_hex": "0x2fefd8"
  },
  "gasUsed": {
    "_hex": "0xddfd"
  },
  "miner": "0xF2d2AfF1320476cb8C6b607199D23175cc595693",
  "extraData": "0x476574682f76312e302e312f77696e646f77732f676f312e342e32",
  "transactions": [
    {
      "hash": "0xc86e391e3b0cd9478694af06c30ca867b15e938dbb2ad6e4b1fbc1443c9c8fb9",
      "blockHash": "0xa1de5f004871193f65fd56e886b04fbf30e5542ca672ab98596c12907df574d8",
      "blockNumber": 54334,
      "transactionIndex": 0,
      "confirmations": null,
      "from": "0xC151A0473225AE2768CF864F30ef38AC4b36C06C",
      "gasPrice": {
        "_hex": "0xcf014e62f"
      },
      "gasLimit": {
        "_hex": "0x15f90"
      },
      "to": "0x109C4f2CCc82C4d77Bde15F306707320294Aea3F",
      "value": {
        "_hex": "0xde0b6b3a7640000"
      },
      "nonce": 3,
      "data": "0x",
      "r": "0xd981d39cddbffc0863f8c6b6d659191d769c1605c3d113c01f07dd7e7a522e8c",
      "s": "0x4e907d870e4145e4880cdc4acdcfd09bac059a608f4a8ef56937788b43b790f9",
      "v": 28,
      "creates": null,
      "raw": "0xf86d03850cf014e62f83015f9094109c4f2ccc82c4d77bde15f306707320294aea3f880de0b6b3a7640000801ca0d981d39cddbffc0863f8c6b6d659191d769c1605c3d113c01f07dd7e7a522e8ca04e907d870e4145e4880cdc4acdcfd09bac059a608f4a8ef56937788b43b790f9",
      "networkId": 0,
      "chainId": 0
    }
  ]
}