{
  "hash": "0x8a7beb146a6625438e28ab5d47251bcca3955e76e4f6cf46904b904d4a5c365d",
  "parentHash": "0x372216c003b53edd0854e4a69ce510277dba809bc732938867adafed6d62e472",
  "number": 73398,
  "timestamp": 1439368771,
  "nonce": "0x56d57f84c14f4c43",
  "difficulty": 2195936542642,
  "gasLimit": {
    "_hex": "0x2fefd8"
  },
  "gasUsed": {
    "_hex": "0xc987"
  },
  "miner": "0xbb7B8287f3F0a933474a79eAe42CBCa977791171",
  "extraData": "0x476574682f4c5649562f76312e302e312f6c696e75782f676f312e342e32",
  "transactions": [
    {
      "hash": "0xc6a4c6cefec24b6778b713eee4806091e608bc05947ddb6e2c8a65dd66db81aa",
      "blockHash": "0x8a7beb146a6625438e28ab5d47251bcca3955e76e4f6cf46904b904d4a5c365d",
      "blockNumber": 73398,
      "transactionIndex": 0,
      "confirmations": null,
      "from": "0x326Be8F71bFb0379f989aAB1CC1fE37f0a771f60",
      "gasPrice": {
        "_hex": "0xffbb83422b"
      },
      "gasLimit": {
        "_hex": "0x493e0"
      },
      "to": "0xDf595d10E76EffaBB38FB3ddFAF89a4Bd50Acf0f",
      "value": {
        "_hex": "0x8ac7230489e80000"
      },
      "nonce": 46,
      "data": "0x8d21618600000000000000000000000000000000000000000000000000000000000000808d5adaad541502933bfca57b79fdcf7b21a9ea7dbcf2e9321d253f5db02ac8f3",
      "r": "0x071030f9de09501c97cecfecd44b7536628e9a6255f8facb60a787c534f79547",
      "s": "0x52a46767bb89800ce71743505a8e1bf5930a458a766b4c0c186215478158819f",
      "v": 28,
      "creates": null,
      "raw": "0xf8b22e85ffbb83422b830493e094df595d10e76effabb38fb3ddfaf89a4bd50acf0f888ac7230489e80000b8448d21618600000000000000000000000000000000000000000000000000000000000000808d5adaad541502933bfca57b79fdcf7b21a9ea7dbcf2e9321d253f5db02ac8f31ca0071030f9de09501c97cecfecd44b7536628e9a6255f8facb60a787c534f79547a052a46767bb89800ce71743505a8e1bf5930a458a766b4c0c186215478158819f",
      "networkId": 0,
      "chainId": 0
    }
  ]
}