{
  "hash": "0x640485d594b82749ad72eabb37b61906d5f40bf4d492e6049b5ab2162dceb18b",
  "parentHash": "0x8a6b5bb523168cb179b1075278bc32b6581b4b946257a9d1896e16587905b3f8",
  "number": 102252,
  "timestamp": 1439835145,
  "nonce": "0xb8052ee37e858907",
  "difficulty": 3931836059608,
  "gasLimit": {
    "_hex": "0x2fefd8"
  },
  "gasUsed": {
    "_hex": "0x5208"
  },
  "miner": "0xe6A7a1d47ff21B6321162AEA7C6CB457D5476Bca",
  "extraData": "0x476574682f76312e302e312d38326566323666362f6c696e75782f676f312e34",
  "transactions": [
    {
      "hash": "0x115b25b9903582798df7724f687f5ee36b1ab0079ec9236c1706294ff50928a1",
      "blockHash": "0x640485d594b82749ad72eabb37b61906d5f40bf4d492e6049b5ab2162dceb18b",
      "blockNumber": 102252,
      "transactionIndex": 0,
      "confirmations": null,
      "from": "0xf01CD4c66F3633880Cbd076A2105f9c1400dD7c7",
      "gasPrice": {
        "_hex": "0xd6bf70a66"
      },
      "gasLimit": {
        "_hex": "0x15f90"
      },
      "to": "0xf2cC0eEAAAeD313542CB262B0B8c3972425143f0",
      "value": {
        "_hex": "0x45400a8fd5330000"
      },
      "nonce": 4,
      "data": "0x",
      "r": "0xd30b3e1f663608e738ffe81643ad11fc415eef97665f93d11155a76194c28744",
      "s": "0x71d6df5421399b8b264718bf7bb5316db640d565295f3fd81f6a292f8d374a0f",
      "v": 28,
      "creates": null,
      "raw": "0xf86d04850d6bf70a6683015f9094f2cc0eeaaaed313542cb262b0b8c3972425143f08845400a8fd5330000801ca0d30b3e1f663608e738ffe81643ad11fc415eef97665f93d11155a76194c28744a071d6df5421399b8b264718bf7bb5316db640d565295f3fd81f6a292f8d374a0f",
      "networkId": 0,
      "chainId": 0
    }
  ]
}