{
  "hash": "0x641c85b89c7ad3b89acb39190122eb578fe3f6a5ec7fbdf90399a52215ce259d",
  "parentHash": "0x6fad61bb239f1def082b1d49f3bdcad845a652f4fc8e36c2daaa84af8a6c6d1a",
  "number": 81140,
  "timestamp": 1439496858,
  "nonce": "0x9eca1cef02b2c839",
  "difficulty": 2440324516177,
  "gasLimit": {
    "_hex": "0x2fefd8"
  },
  "gasUsed": {
    "_hex": "0x5208"
  },
  "miner": "0xe6A7a1d47ff21B6321162AEA7C6CB457D5476Bca",
  "extraData": "0x476574682f76312e302e312d38326566323666362f6c696e75782f676f312e34",
  "transactions": [
    {
      "hash": "0x068e2522a62b8afbe5e6dc3e875cd5f75e85249cc6a0efd7dc892667348ca0e1",
      "blockHash": "0x641c85b89c7ad3b89acb39190122eb578fe3f6a5ec7fbdf90399a52215ce259d",
      "blockNumber": 81140,
      "transactionIndex": 0,
      "confirmations": null,
      "from": "0xad5C1768e5974C231b2148169da064e61910f31a",
      "gasPrice": {
        "_hex": "0x11453874712"
      },
      "gasLimit": {
        "_hex": "0x15f90"
      },
      "to": "0x88Ce4e2cC64e58f322a784407c1E1eDe70ae7f60",
      "value": {
        "_hex": "0x6c5db2a4d815dc0000"
      },
      "nonce": 2,
      "data": "0x",
      "r": "0x8f8ef11734d511ea33a263bec2a6c288e32580297cd6a983014e481d98632598",
      "s": "0x4b20745f190b3ecf1f7a1f92a167843071c154f28d1ddb7e8d7b39eeaa3c2c83",
      "v": 28,
      "creates": null,
      "raw": "0xf86f028601145387471283015f909488ce4e2cc64e58f322a784407c1e1ede70ae7f60896c5db2a4d815dc0000801ca08f8ef11734d511ea33a263bec2a6c288e32580297cd6a983014e481d98632598a04b20745f190b3ecf1f7a1f92a167843071c154f28d1ddb7e8d7b39eeaa3c2c83",
      "networkId": 0,
      "chainId": 0
    }
  ]
}