{
  "hash": "0xa9e9bf8d04ab600566d5b47536e5169296a865a12a4921bddcdc273a790e8512",
  "parentHash": "0x9370d74881245af214c04042dab7d3814cdc0c489e03925c896fb449de0c1abd",
  "number": 94700,
  "timestamp": 1439712633,
  "nonce": "0x765174726a34ab5d",
  "difficulty": 3486551073818,
  "gasLimit": {
    "_hex": "0x2fefd8"
  },
  "gasUsed": {
    "_hex": "0x1ec30"
  },
  "miner": "0x55bAf64fc9eAccFFd7Cc643BB61142E1C6ac093e",
  "extraData": "0x",
  "transactions": [
    {
      "hash": "0xf2607af2dddc613240aace1232cc851301e80accd6aeca5ed71c3cbb741befc8",
      "blockHash": "0xa9e9bf8d04ab600566d5b47536e5169296a865a12a4921bddcdc273a790e8512",
      "blockNumber": 94700,
      "transactionIndex": 0,
      "confirmations": null,
      "from": "0xe6A7a1d47ff21B6321162AEA7C6CB457D5476Bca",
      "gasPrice": {
        "_hex": "0xdee88308a"
      },
      "gasLimit": {
        "_hex": "0x55f0"
      },
      "to": "0x799Ac9F93b43E63D97F25A436C440470FEF05037",
      "value": {
        "_hex": "0x193a3f980c021778"
      },
      "nonce": 2996,
      "data": "0x",
      "r": "0xe3b698b9e2b5cc1d2a3355f55ffd4d5a15c5534ac4d06ffc58d05a50623ecead",
      "s": "0x00ee019f8af92ddfe3c07e1cb602f3dd50ac1f6bc59c1cd126f9bda8eb411d6f",
      "v": 27,
      "creates": null,
      "raw": "0xf86d820bb4850dee88308a8255f094799ac9f93b43e63d97f25a436c440470fef0503788193a3f980c021778801ba0e3b698b9e2b5cc1d2a3355f55ffd4d5a15c5534ac4d06ffc58d05a50623ecead9fee019f8af92ddfe3c07e1cb602f3dd50ac1f6bc59c1cd126f9bda8eb411d6f",
      "networkId": 0,
      "chainId": 0
    },
    {
      "hash": "0xa061ddb676c002f82a150357099116020b111a043e758b5dbcb36e6e49836f32",
      "blockHash": "0xa9e9bf8d04ab600566d5b47536e5169296a865a12a4921bddcdc273a790e8512",
      "blockNumber": 94700,
      "transactionIndex": 1,
      "confirmations": null,
      "from": "0xe6A7a1d47ff21B6321162AEA7C6CB457D5476Bca",
      "gasPrice": {
        "_hex": "0xdee88308a"
      },
      "gasLimit": {
        "_hex": "0x55f0"
      },
      "to": "0x1E9Cb3929516130db1ac4CB03a20cAe1CEE52F71",
      "value": {
        "_hex": "0x1ac3136cd746e7ec"
      },
      "nonce": 2997,
      "data": "0x",
      "r": "0x17f75a8bfcbe85b971902e886e34b888c408de6d5e1628962916497f6f660f0a",
      "s": "0x7a4f60ce2a3ab1030187c404220ebc95a13c7518cc5f70246fd02495217f5ebe",
      "v": 28,
      "creates": null,
      "raw": "0xf86e820bb5850dee88308a8255f0941e9cb3929516130db1ac4cb03a20cae1cee52f71881ac3136cd746e7ec801ca017f75a8bfcbe85b971902e886e34b888c408de6d5e1628962916497f6f660f0aa07a4f60ce2a3ab1030187c404220ebc95a13c7518cc5f70246fd02495217f5ebe",
      "networkId": 0,
      "chainId": 0
    },
    {
      "hash": "0x9a4365fc9fc202bc9bf8d92d4c728e9afcfabd52d01e3a0420cb3ff9ac2bc094",
      "blockHash": "0xa9e9bf8d04ab600566d5b47536e5169296a865a12a4921bddcdc273a790e8512",
      "blockNumber": 94700,
      "transactionIndex": 2,
      "confirmations": null,
      "from": "0xe6A7a1d47ff21B6321162AEA7C6CB457D5476Bca",
      "gasPrice": {
        "_hex": "0xdee88308a"
      },
      "gasLimit": {
        "_hex": "0x55f0"
      },
      "to": "0xF8Fca9e38A8bc846BE8ea3B37bb94ea23B475D2F",
      "value": {
        "_hex": "0x1c136f85f6800f28"
      },
      "nonce": 2998,
      "data": "0x",
      "r": "0xd5d7bb169b2a5bc3761607211f7bf2027126fd446aa20e0530b7dce75d45b8de",
      "s": "0x0a251b4b8df4c23bba3f7414f07e446678f4667bec0e596d10147fb6a669c9b8",
      "v": 28,
      "creates": null,
      "raw": "0xf86e820bb6850dee88308a8255f094f8fca9e38a8bc846be8ea3b37bb94ea23b475d2f881c136f85f6800f28801ca0d5d7bb169b2a5bc3761607211f7bf2027126fd446aa20e0530b7dce75d45b8dea00a251b4b8df4c23bba3f7414f07e446678f4667bec0e596d10147fb6a669c9b8",
      "networkId": 0,
      "chainId": 0
    },
    {
      "hash": "0xc5bb42c9124fe1fa47a98c817a6d58431d5c73d34b9d75a877be2ae3914a0c8f",
      "blockHash": "0xa9e9bf8d04ab600566d5b47536e5169296a865a12a4921bddcdc273a790e8512",
      "blockNumber": 94700,
      "transactionIndex": 3,
      "confirmations": null,
      "from": "0xe6A7a1d47ff21B6321162AEA7C6CB457D5476Bca",
      "gasPrice": {
        "_hex": "0xdee88308a"
      },
      "gasLimit": {
        "_hex": "0x55f0"
      },
      "to": "0x237213131Cf2e4027D4E8Bb293379823874a16fD",
      "value": {
        "_hex": "0x20e63ef1ad3d73d8"
      },
      "nonce": 2999,
      "data": "0x",
      "r": "0xd7176d8aef4a3ef994d39f2b7417561c714593023172c8450f79ac4da0c1e887",
      "s": "0x2f5c0392962b44cb195005bdbcb868808cf963e2d8c43bb3ffc0189b4bc3c233",
      "v": 28,
      "creates": null,
      "raw": "0xf86e820bb7850dee88308a8255f094237213131cf2e4027d4e8bb293379823874a16fd8820e63ef1ad3d73d8801ca0d7176d8aef4a3ef994d39f2b7417561c714593023172c8450f79ac4da0c1e887a02f5c0392962b44cb195005bdbcb868808cf963e2d8c43bb3ffc0189b4bc3c233",
      "networkId": 0,
      "chainId": 0
    },
    {
      "hash": "0xebfa4e3c80d946ce26d0294d540f1977c41ffc6bd0ec9cf777bb0249e4c10c20",
      "blockHash": "0xa9e9bf8d04ab600566d5b47536e5169296a865a12a4921bddcdc273a790e8512",
      "blockNumber": 94700,
      "transactionIndex": 4,
      "confirmations": null,
      "from": "0xe6A7a1d47ff21B6321162AEA7C6CB457D5476Bca",
      "gasPrice": {
        "_hex": "0xdee88308a"
      },
      "gasLimit": {
        "_hex": "0x55f0"
      },
      "to": "0x586c9f00191c01babA71993c5a6d6eE02905816d",
      "value": {
        "_hex": "0x244850b3de8b8ec8"
      },
      "nonce": 3000,
      "data": "0x",
      "r": "0x7823b273fe9d0fc976677e96560edec2c87b8dc0d73a80c6d4488d76212883e8",
      "s": "0x0ac6f620fe37867033b72d7ba8625703d9adf439e8ea022237b52c41f6124f41",
      "v": 28,
      "creates": null,
      "raw": "0xf86e820bb8850dee88308a8255f094586c9f00191c01baba71993c5a6d6ee02905816d88244850b3de8b8ec8801ca07823b273fe9d0fc976677e96560edec2c87b8dc0d73a80c6d4488d76212883e8a00ac6f620fe37867033b72d7ba8625703d9adf439e8ea022237b52c41f6124f41",
      "networkId": 0,
      "chainId": 0
    },
    {
      "hash": "0x5309242ba89ce3ec1814cc440f16b58975cc7b8ef768159bca8c0b0db9eb5374",
      "blockHash": "0xa9e9bf8d04ab600566d5b47536e5169296a865a12a4921bddcdc273a790e8512",
      "blockNumber": 94700,
      "transactionIndex": 5,
      "confirmations": null,
      "from": "0xD9666150A9dA92d9108198a4072970805a8B3428",
      "gasPrice": {
        "_hex": "0xd31953e3f"
      },
      "gasLimit": {
        "_hex": "0x5208"
      },
      "to": "0x32Be343B94f860124dC4fEe278FDCBD38C102D88",
      "value": {
        "_hex": "0x1864fced7fc6800000"
      },
      "nonce": 14,
      "data": "0x",
      "r": "0xba488572ce3c2fd4112898b4eb8bae15b2cc7cb60505b08ed25e116a6dbe329c",
      "s": "0x44413a257227aa0ab084270f581aa2869511cbcf6f8534a2563e2c7ed91c1307",
      "v": 28,
      "creates": null,
      "raw": "0xf86d0e850d31953e3f8252089432be343b94f860124dc4fee278fdcbd38c102d88891864fced7fc6800000801ca0ba488572ce3c2fd4112898b4eb8bae15b2cc7cb60505b08ed25e116a6dbe329ca044413a257227aa0ab084270f581aa2869511cbcf6f8534a2563e2c7ed91c1307",
      "networkId": 0,
      "chainId": 0
    }
  ]
}