{
  "hash": "0xbe3b6880cdaa189d7e41ae2c481a4f3d20567a2e5dabd97459fdc5d07ddf598a",
  "parentHash": "0x2fb4c3babc8403950dc28d7a01639f9ca05f0c1313f567d90489c39a50d9dd19",
  "number": 87735,
  "timestamp": 1439596651,
  "nonce": "0x76877cad19997d4a",
  "difficulty": 3166336790074,
  "gasLimit": {
    "_hex": "0x2fefd8"
  },
  "gasUsed": {
    "_hex": "0x5208"
  },
  "miner": "0xe6A7a1d47ff21B6321162AEA7C6CB457D5476Bca",
  "extraData": "0x476574682f76312e302e312d38326566323666362f6c696e75782f676f312e34",
  "transactions": [
    {
      "hash": "0xcd57d899bf9850a6d6a79be8e65701f60cd8b324ce1c243553eb9f2cd4f75124",
      "blockHash": "0xbe3b6880cdaa189d7e41ae2c481a4f3d20567a2e5dabd97459fdc5d07ddf598a",
      "blockNumber": 87735,
      "transactionIndex": 0,
      "confirmations": null,
      "from": "0x6343AC3F15c925ACD28Bbf799A138781E4Cb692f",
      "gasPrice": {
        "_hex": "0xcfdc07ddc"
      },
      "gasLimit": {
        "_hex": "0x5208"
      },
      "to": "0x32Be343B94f860124dC4fEe278FDCBD38C102D88",
      "value": {
        "_hex": "0x2b5df85680b1bc000"
      },
      "nonce": 1,
      "data": "0x",
      "r": "0x9cc7351ec358a5b2e0f9a7cfad3811af460cd0df52156863d41fcfcd05cd23ed",
      "s": "0x453a8a6f8780fbd4039497e99b5dd806d4d65575f178a94c75bc89874654fbfd",
      "v": 28,
      "creates": null,
      "raw": "0xf86d01850cfdc07ddc8252089432be343b94f860124dc4fee278fdcbd38c102d888902b5df85680b1bc000801ca09cc7351ec358a5b2e0f9a7cfad3811af460cd0df52156863d41fcfcd05cd23eda0453a8a6f8780fbd4039497e99b5dd806d4d65575f178a94c75bc89874654fbfd",
      "networkId": 0,
      "chainId": 0
    }
  ]
}