{
  "hash": "0x1a1c3bdef2519fdde0551a32c604f35891bc3c3e3a857d1fcd3df3de34dfd82e",
  "parentHash": "0x981737750b0eb9d855b9a513f8621dcd133dc187c54fb7510cbbca26039ea567",
  "number": 55858,
  "timestamp": 1439078227,
  "nonce": "0xc498387897100916",
  "difficulty": 1606802866986,
  "gasLimit": {
    "_hex": "0x2fefd8"
  },
  "gasUsed": {
    "_hex": "0x5c490"
  },
  "miner": "0xf927a40C8B7F6E07c5af7FA2155B4864a4112B13",
  "extraData": "0x476574682f76312e302e312f6c696e75782f676f312e342e32",
  "transactions": [
    {
      "hash": "0x742bd38a76ff45e7f27f3add865798f0982ba4749d498c6b7f5be65bb57c7837",
      "blockHash": "0x1a1c3bdef2519fdde0551a32c604f35891bc3c3e3a857d1fcd3df3de34dfd82e",
      "blockNumber": 55858,
      "transactionIndex": 0,
      "confirmations": null,
      "from": "0xe6A7a1d47ff21B6321162AEA7C6CB457D5476Bca",
      "gasPrice": {
        "_hex": "0xd66fafd41"
      },
      "gasLimit": {
        "_hex": "0x55f0"
      },
      "to": "0xe14Ab5e07c0BEe8af8BA6F5dA7c6fc8Fc41BDbe0",
      "value": {
        "_hex": "0x10aa8e4c75dfb104"
      },
      "nonce": 260,
      "data": "0x",
      "r": "0xbc55b4942fde8af1006b1ab723bd806cfcb5dea3a0ed4bb98e4ef62369948fc6",
      "s": "0x7d2e668d955d09eb5b7288c8d389dd3cf5fe58874eba7fbd27072d51b175160a",
      "v": 27,
      "creates": null,
      "raw": "0xf86e820104850d66fafd418255f094e14ab5e07c0bee8af8ba6f5da7c6fc8fc41bdbe08810aa8e4c75dfb104801ba0bc55b4942fde8af1006b1ab723bd806cfcb5dea3a0ed4bb98e4ef62369948fc6a07d2e668d955d09eb5b7288c8d389dd3cf5fe58874eba7fbd27072d51b175160a",
      "networkId": 0,
      "chainId": 0
    },
    {
      "hash": "0x195a4f64a74a35cf3a497f141cf4a4cbb83ae6cb12619868f9da4d9e71e90c2a",
      "blockHash": "0x1a1c3bdef2519fdde0551a32c604f35891bc3c3e3a857d1fcd3df3de34dfd82e",
      "blockNumber": 55858,
      "transactionIndex": 1,
      "confirmations": null,
      "from": "0xe6A7a1d47ff21B6321162AEA7C6CB457D5476Bca",
      "gasPrice": {
        "_hex": "0xd66fafd41"
      },
      "gasLimit": {
        "_hex": "0x55f0"
      },
      "to": "0xfeB0907bd66A4de5a6e71bd8dA6b2eb87612763B",
      "value": {
        "_hex": "0x10d0371c14a76320"
      },
      "nonce": 261,
      "data": "0x",
      "r": "0x91f80d117d027fb9cb727d309a5258115fe1d881e2a5c62abf7cf93b657d5c65",
      "s": "0x43c3c5d5a65314315832079bc328f2c2d0a76770fc021433ff3c99378f8a8c9f",
      "v": 28,
      "creates": null,
      "raw": "0xf86e820105850d66fafd418255f094feb0907bd66a4de5a6e71bd8da6b2eb87612763b8810d0371c14a76320801ca091f80d117d027fb9cb727d309a5258115fe1d881e2a5c62abf7cf93b657d5c65a043c3c5d5a65314315832079bc328f2c2d0a76770fc021433ff3c99378f8a8c9f",
      "networkId": 0,
      "chainId": 0
    },
    {
      "hash": "0xab6d9b7a77a3e28963e56fa8c37ecd01bc54b2a633ad651b67510eb0c828e206",
      "blockHash": "0x1a1c3bdef2519fdde0551a32c604f35891bc3c3e3a857d1fcd3df3de34dfd82e",
      "blockNumber": 55858,
      "transactionIndex": 2,
      "confirmations": null,
      "from": "0xe6A7a1d47ff21B6321162AEA7C6CB457D5476Bca",
      "gasPrice": {
        "_hex": "0xd66fafd41"
      },
      "gasLimit": {
        "_hex": "0x55f0"
      },
      "to": "0x66BE410479472f811a66312c3DB7825de83b3129",
      "value": {
        "_hex": "0x10eb720351a4e300"
      },
      "nonce": 262,
      "data": "0x",
      "r": "0xd3da7db6633cbc65a423fc5eb7744e87bf1c567e522be5d3b3f9c9e7e1895dca",
      "s": "0x4ffa9cb4c80ae5a5570cc01bc89db7b99d575244f0526525a1798bc0c68fefce",
      "v": 27,
      "creates": null,
      "raw": "0xf86e820106850d66fafd418255f09466be410479472f811a66312c3db7825de83b31298810eb720351a4e300801ba0d3da7db6633cbc65a423fc5eb7744e87bf1c567e522be5d3b3f9c9e7e1895dcaa04ffa9cb4c80ae5a5570cc01bc89db7b99d575244f0526525a1798bc0c68fefce",
      "networkId": 0,
      "chainId": 0
    },
    {
      "hash": "0x17baaffd369fe2a5cb5aad20a8b640963ee87d9fd1b59f7399c2c20049d0207c",
      "blockHash": "0x1a1c3bdef2519fdde0551a32c604f35891bc3c3e3a857d1fcd3df3de34dfd82e",
      "blockNumber": 55858,
      "transactionIndex": 3,
      "confirmations": null,
      "from": "0xe6A7a1d47ff21B6321162AEA7C6CB457D5476Bca",
      "gasPrice": {
        "_hex": "0xd66fafd41"
      },
      "gasLimit": {
        "_hex": "0x55f0"
      },
      "to": "0xFC700aC19c00bcBE58f37458e6e738de57FDaa34",
      "value": {
        "_hex": "0x1101d2bc6a0f4af4"
      },
      "nonce": 263,
      "data": "0x",
      "r": "0xff2aa7efc5c97f5a7860c617497ac3468cdea76920b225f1600fabdc712876b0",
      "s": "0x7b75ebd31dc34cb00d9c5d84251381428a9939b11f2bb9eeb1fd68c0f138647c",
      "v": 27,
      "creates": null,
      "raw": "0xf86e820107850d66fafd418255f094fc700ac19c00bcbe58f37458e6e738de57fdaa34881101d2bc6a0f4af4801ba0ff2aa7efc5c97f5a7860c617497ac3468cdea76920b225f1600fabdc712876b0a07b75ebd31dc34cb00d9c5d84251381428a9939b11f2bb9eeb1fd68c0f138647c",
      "networkId": 0,
      "chainId": 0
    },
    {
      "hash": "0x2f78904c318e34bfd8b3a3963d33038b358a3de9aac2303c500c496ede937a06",
      "blockHash": "0x1a1c3bdef2519fdde0551a32c604f35891bc3c3e3a857d1fcd3df3de34dfd82e",
      "blockNumber": 55858,
      "transactionIndex": 4,
      "confirmations": null,
      "from": "0xe6A7a1d47ff21B6321162AEA7C6CB457D5476Bca",
      "gasPrice": {
        "_hex": "0xd66fafd41"
      },
      "gasLimit": {
        "_hex": "0x55f0"
      },
      "to": "0x93d64b1D681dE89cCd0ab4AE8B1CDA2d8A02Ab22",
      "value": {
        "_hex": "0x110674d46ffbc3fc"
      },
      "nonce": 264,
      "data": "0x",
      "r": "0xf072744a6c6ef714868ad8f1de13343aa4407ba9327a4762b36c3fb5483c9e19",
      "s": "0x172af02ddd27db84455fefa4acf81781197ea7dcfac1d414e462bac518d76de5",
      "v": 27,
      "creates": null,
      "raw": "0xf86e820108850d66fafd418255f09493d64b1d681de89ccd0ab4ae8b1cda2d8a02ab2288110674d46ffbc3fc801ba0f072744a6c6ef714868ad8f1de13343aa4407ba9327a4762b36c3fb5483c9e19a0172af02ddd27db84455fefa4acf81781197ea7dcfac1d414e462bac518d76de5",
      "networkId": 0,
      "chainId": 0
    },
    {
      "hash": "0xb4c98c268ce8683c16fc2262c5fbf650390e38fc7478d25e33c1b4cc84668fd7",
      "blockHash": "0x1a1c3bdef2519fdde0551a32c604f35891bc3c3e3a857d1fcd3df3de34dfd82e",
      "blockNumber": 55858,
      "transactionIndex": 5,
      "confirmations": null,
      "from": "0xe6A7a1d47ff21B6321162AEA7C6CB457D5476Bca",
      "gasPrice": {
        "_hex": "0xd66fafd41"
      },
      "gasLimit": {
        "_hex": "0x55f0"
      },
      "to": "0x2A28A9F6Eb28Ca7b93978aDb543d29Ae4Ceb84d4",
      "value": {
        "_hex": "0x11156a007e5e6370"
      },
      "nonce": 265,
      "data": "0x",
      "r": "0x94757ef1b1cce4c01e5b4b0cfa2d52b5b2b04f7f1756d43a3204930c1cabdb11",
      "s": "0x45992c42f052797820011417909ccf66d2b29bb58f816d8340d58b45ac785128",
      "v": 27,
      "creates": null,
      "raw": "0xf86e820109850d66fafd418255f0942a28a9f6eb28ca7b93978adb543d29ae4ceb84d48811156a007e5e6370801ba094757ef1b1cce4c01e5b4b0cfa2d52b5b2b04f7f1756d43a3204930c1cabdb11a045992c42f052797820011417909ccf66d2b29bb58f816d8340d58b45ac785128",
      "networkId": 0,
      "chainId": 0
    },
    {
      "hash": "0x06a5b01fa4853d3007a4cd9f334a9738ecffd6fd73b22b53bb141c42794e1676",
      "blockHash": "0x1a1c3bdef2519fdde0551a32c604f35891bc3c3e3a857d1fcd3df3de34dfd82e",
      "blockNumber": 55858,
      "transactionIndex": 6,
      "confirmations": null,
      "from": "0xe6A7a1d47ff21B6321162AEA7C6CB457D5476Bca",
      "gasPrice": {
        "_hex": "0xd66fafd41"
      },
      "gasLimit": {
        "_hex": "0x55f0"
      },
      "to": "0xB5F2b5742DD223dB6E210bFa02B248F88726C7A6",
      "value": {
        "_hex": "0x1139ce2cf1ae4c28"
      },
      "nonce": 266,
      "data": "0x",
      "r": "0xf18ab984c6938276fbdc27fa21a7bf66f8778c4fff6c7a6db993d220f1c35a89",
      "s": "0x5d6a4e836ca6bfc3ea1d383edbbe1f1c8f7b6f7ddf6d8e1e481127cefa6519b5",
      "v": 28,
      "creates": null,
      "raw": "0xf86e82010a850d66fafd418255f094b5f2b5742dd223db6e210bfa02b248f88726c7a6881139ce2cf1ae4c28801ca0f18ab984c6938276fbdc27fa21a7bf66f8778c4fff6c7a6db993d220f1c35a89a05d6a4e836ca6bfc3ea1d383edbbe1f1c8f7b6f7ddf6d8e1e481127cefa6519b5",
      "networkId": 0,
      "chainId": 0
    },
    {
      "hash": "0xe00331f5abc59670ad9edbd13f6ef90feaee8a2b1337b6dbc8ed9ecb813bef11",
      "blockHash": "0x1a1c3bdef2519fdde0551a32c604f35891bc3c3e3a857d1fcd3df3de34dfd82e",
      "blockNumber": 55858,
      "transactionIndex": 7,
      "confirmations": null,
      "from": "0xe6A7a1d47ff21B6321162AEA7C6CB457D5476Bca",
      "gasPrice": {
        "_hex": "0xd66fafd41"
      },
      "gasLimit": {
        "_hex": "0x55f0"
      },
      "to": "0x1918175e6aB029996E0BC00238AeA5f89f3F84ad",
      "value": {
        "_hex": "0x116232faa9b35fe8"
      },
      "nonce": 267,
      "data": "0x",
      "r": "0xaf9956f15534ad1cba8e531f3438447c14ef0fb6f7c3b0a2913275d8303a9953",
      "s": "0x32cea41852ef98066b4bfcfc14fdb8385d4092ba65f5ae25754a59f0a6ab4796",
      "v": 27,
      "creates": null,
      "raw": "0xf86e82010b850d66fafd418255f0941918175e6ab029996e0bc00238aea5f89f3f84ad88116232faa9b35fe8801ba0af9956f15534ad1cba8e531f3438447c14ef0fb6f7c3b0a2913275d8303a9953a032cea41852ef98066b4bfcfc14fdb8385d4092ba65f5ae25754a59f0a6ab4796",
      "networkId": 0,
      "chainId": 0
    },
    {
      "hash": "0x859f9fdd76551f97fb0620baa0287c9791b85cacdb525d1e1d5d9dd8a1cb84ac",
      "blockHash": "0x1a1c3bdef2519fdde0551a32c604f35891bc3c3e3a857d1fcd3df3de34dfd82e",
      "blockNumber": 55858,
      "transactionIndex": 8,
      "confirmations": null,
      "from": "0xe6A7a1d47ff21B6321162AEA7C6CB457D5476Bca",
      "gasPrice": {
        "_hex": "0xd66fafd41"
      },
      "gasLimit": {
        "_hex": "0x55f0"
      },
      "to": "0x2b197453dCfaBe85bE2fBE31C8cc19BD30576ed0",
      "value": {
        "_hex": "0x1209996cc42f0b08"
      },
      "nonce": 268,
      "data": "0x",
      "r": "0xfaabafc42477147b8ec01728c25a9456c5ea3681adf720ef069264496578d954",
      "s": "0x5f2f32b2aab9af0dfe1eb9dddfe3a11738b4bfd8dfe43cc7d4dd00f6d9ea3dac",
      "v": 28,
      "creates": null,
      "raw": "0xf86e82010c850d66fafd418255f0942b197453dcfabe85be2fbe31c8cc19bd30576ed0881209996cc42f0b08801ca0faabafc42477147b8ec01728c25a9456c5ea3681adf720ef069264496578d954a05f2f32b2aab9af0dfe1eb9dddfe3a11738b4bfd8dfe43cc7d4dd00f6d9ea3dac",
      "networkId": 0,
      "chainId": 0
    },
    {
      "hash": "0x0b86e6ed6ce9a8dac6db040002f1bb9decc5af44619918372c4361003e5ceee1",
      "blockHash": "0x1a1c3bdef2519fdde0551a32c604f35891bc3c3e3a857d1fcd3df3de34dfd82e",
      "blockNumber": 55858,
      "transactionIndex": 9,
      "confirmations": null,
      "from": "0xe6A7a1d47ff21B6321162AEA7C6CB457D5476Bca",
      "gasPrice": {
        "_hex": "0xd66fafd41"
      },
      "gasLimit": {
        "_hex": "0x55f0"
      },
      "to": "0xda076E9eE5a5156B3e7F206401899C854fc1d5Fd",
      "value": {
        "_hex": "0x12116625417a511c"
      },
      "nonce": 269,
      "data": "0x",
      "r": "0xdbb076f24806a94abfc64c4f9b5846c315d92043e851945f7bc7db1b961f5d1f",
      "s": "0x4848bd102bab923d8436cccb33b6420d0c0d5ec8bb1d709744c95d0bf59abe9d",
      "v": 27,
      "creates": null,
      "raw": "0xf86e82010d850d66fafd418255f094da076e9ee5a5156b3e7f206401899c854fc1d5fd8812116625417a511c801ba0dbb076f24806a94abfc64c4f9b5846c315d92043e851945f7bc7db1b961f5d1fa04848bd102bab923d8436cccb33b6420d0c0d5ec8bb1d709744c95d0bf59abe9d",
      "networkId": 0,
      "chainId": 0
    },
    {
      "hash": "0x787a8413aa1211bb104146e48ab90610987b4adc91b14aa732d8cafd1b4db4b3",
      "blockHash": "0x1a1c3bdef2519fdde0551a32c604f35891bc3c3e3a857d1fcd3df3de34dfd82e",
      "blockNumber": 55858,
      "transactionIndex": 10,
      "confirmations": null,
      "from": "0xe6A7a1d47ff21B6321162AEA7C6CB457D5476Bca",
      "gasPrice": {
        "_hex": "0xd66fafd41"
      },
      "gasLimit": {
        "_hex": "0x55f0"
      },
      "to": "0xf88a65846C19D8fc76fFf545fEAa7bbc7114F667",
      "value": {
        "_hex": "0x1212e35c5e6b74d0"
      },
      "nonce": 270,
      "data": "0x",
      "r": "0x76e27c780f8619dcff16d5518beb235d91a7e2643a6c6c01e25b9e66dc65197f",
      "s": "0x29e51d3518d23aea369f1c352ee17c74b95a09d77a96615699841cb1a02e65dd",
      "v": 28,
      "creates": null,
      "raw": "0xf86e82010e850d66fafd418255f094f88a65846c19d8fc76fff545feaa7bbc7114f667881212e35c5e6b74d0801ca076e27c780f8619dcff16d5518beb235d91a7e2643a6c6c01e25b9e66dc65197fa029e51d3518d23aea369f1c352ee17c74b95a09d77a96615699841cb1a02e65dd",
      "networkId": 0,
      "chainId": 0
    },
    {
      "hash": "0x2bcd2924e43e4d7c12c570dd7c229c550c9f094ee4c124069b5e6b4dc99eb9a8",
      "blockHash": "0x1a1c3bdef2519fdde0551a32c604f35891bc3c3e3a857d1fcd3df3de34dfd82e",
      "blockNumber": 55858,
      "transactionIndex": 11,
      "confirmations": null,
      "from": "0xe6A7a1d47ff21B6321162AEA7C6CB457D5476Bca",
      "gasPrice": {
        "_hex": "0xd66fafd41"
      },
      "gasLimit": {
        "_hex": "0x55f0"
      },
      "to": "0x3BBC95cC1Cfd47836a73e0597D360f79C843f5A8",
      "value": {
        "_hex": "0x1295a538b64d8d70"
      },
      "nonce": 271,
      "data": "0x",
      "r": "0x5177fd43f8ca53577df9410e916126a47845d403e78d7b299ee9661f31b7f058",
      "s": "0x24b3775c589e471596b29af2b73a311da705485ba9ad85de8918f9279577afbd",
      "v": 28,
      "creates": null,
      "raw": "0xf86e82010f850d66fafd418255f0943bbc95cc1cfd47836a73e0597d360f79c843f5a8881295a538b64d8d70801ca05177fd43f8ca53577df9410e916126a47845d403e78d7b299ee9661f31b7f058a024b3775c589e471596b29af2b73a311da705485ba9ad85de8918f9279577afbd",
      "networkId": 0,
      "chainId": 0
    },
    {
      "hash": "0xcd49bb198bf60024a8da87222e4bb131594194a459c53ea5bf6addfd13e9808a",
      "blockHash": "0x1a1c3bdef2519fdde0551a32c604f35891bc3c3e3a857d1fcd3df3de34dfd82e",
      "blockNumber": 55858,
      "transactionIndex": 12,
      "confirmations": null,
      "from": "0xe6A7a1d47ff21B6321162AEA7C6CB457D5476Bca",
      "gasPrice": {
        "_hex": "0xd66fafd41"
      },
      "gasLimit": {
        "_hex": "0x55f0"
      },
      "to": "0xCE541F8B403F27Fea38FaD06a796385104ea1163",
      "value": {
        "_hex": "0x12bf50773a05be04"
      },
      "nonce": 272,
      "data": "0x",
      "r": "0x6d546114f8aa19034fa5339ce4ab5e7c4a686bdfc7e17176309e1c68389cc1ea",
      "s": "0x45e98f36575ab45206bcc091e061f6335db0e256b2738b868612d9b9ae81200d",
      "v": 28,
      "creates": null,
      "raw": "0xf86e820110850d66fafd418255f094ce541f8b403f27fea38fad06a796385104ea11638812bf50773a05be04801ca06d546114f8aa19034fa5339ce4ab5e7c4a686bdfc7e17176309e1c68389cc1eaa045e98f36575ab45206bcc091e061f6335db0e256b2738b868612d9b9ae81200d",
      "networkId": 0,
      "chainId": 0
    },
    {
      "hash": "0xdb7336787115060352e636ee28ee998ce9ac19577b0cd91e21e28db746c9c6c8",
      "blockHash": "0x1a1c3bdef2519fdde0551a32c604f35891bc3c3e3a857d1fcd3df3de34dfd82e",
      "blockNumber": 55858,
      "transactionIndex": 13,
      "confirmations": null,
      "from": "0xe6A7a1d47ff21B6321162AEA7C6CB457D5476Bca",
      "gasPrice": {
        "_hex": "0xd66fafd41"
      },
      "gasLimit": {
        "_hex": "0x55f0"
      },
      "to": "0x84BDA1c0A280B67d35727441B56e102aDCc594ac",
      "value": {
        "_hex": "0x12ecb1898c26eff0"
      },
      "nonce": 273,
      "data": "0x",
      "r": "0x082a5f75f9a0a44678e1865b5d3ab2ffd34c4cc9ad4c22b1faebe17bd7917a61",
      "s": "0x15557dfb364636468999fa83ac7f2b729c0ad6d2c98f4192f981725535f50532",
      "v": 28,
      "creates": null,
      "raw": "0xf86e820111850d66fafd418255f09484bda1c0a280b67d35727441b56e102adcc594ac8812ecb1898c26eff0801ca0082a5f75f9a0a44678e1865b5d3ab2ffd34c4cc9ad4c22b1faebe17bd7917a61a015557dfb364636468999fa83ac7f2b729c0ad6d2c98f4192f981725535f50532",
      "networkId": 0,
      "chainId": 0
    },
    {
      "hash": "0x8f59e6e7f3098b1a1a24f7a6549b686157edfcfdd0a4af642ebd5e89c4d04398",
      "blockHash": "0x1a1c3bdef2519fdde0551a32c604f35891bc3c3e3a857d1fcd3df3de34dfd82e",
      "blockNumber": 55858,
      "transactionIndex": 14,
      "confirmations": null,
      "from": "0xe6A7a1d47ff21B6321162AEA7C6CB457D5476Bca",
      "gasPrice": {
        "_hex": "0xd66fafd41"
      },
      "gasLimit": {
        "_hex": "0x55f0"
      },
      "to": "0x15dE68788d01B2504DF8621cB4721c54eD543305",
      "value": {
        "_hex": "0x139a82a57ecd2310"
      },
      "nonce": 274,
      "data": "0x",
      "r": "0xa52172ac72e8dae3869b8e155d6ee97335ee1c17c0aa4afd5aa860fa6ea378c6",
      "s": "0x6d70a8cff8c8ae8d99ae2a3da4295a70c32e150891fff7207586c4c47380b55b",
      "v": 28,
      "creates": null,
      "raw": "0xf86e820112850d66fafd418255f09415de68788d01b2504df8621cb4721c54ed54330588139a82a57ecd2310801ca0a52172ac72e8dae3869b8e155d6ee97335ee1c17c0aa4afd5aa860fa6ea378c6a06d70a8cff8c8ae8d99ae2a3da4295a70c32e150891fff7207586c4c47380b55b",
      "networkId": 0,
      "chainId": 0
    },
    {
      "hash": "0xf5a0bd91e74ec1cda2a69287d46abc3dba0b405584608ee755b36661414c5c9d",
      "blockHash": "0x1a1c3bdef2519fdde0551a32c604f35891bc3c3e3a857d1fcd3df3de34dfd82e",
      "blockNumber": 55858,
      "transactionIndex": 15,
      "confirmations": null,
      "from": "0xe6A7a1d47ff21B6321162AEA7C6CB457D5476Bca",
      "gasPrice": {
        "_hex": "0xd66fafd41"
      },
      "gasLimit": {
        "_hex": "0x55f0"
      },
      "to": "0xaFF2628417768132E1d04f605Fe1e797f2ECA3F8",
      "value": {
        "_hex": "0x139c07bf05264adc"
      },
      "nonce": 275,
      "data": "0x",
      "r": "0x2bf73b716f2114ff4bb2807db5ad054f3660722bce7806619eb76185b1a94921",
      "s": "0x08fc634009a58251c8f9079a2ce83244dbe11ba4fb4405ddc58f4b1122f931be",
      "v": 28,
      "creates": null,
      "raw": "0xf86e820113850d66fafd418255f094aff2628417768132e1d04f605fe1e797f2eca3f888139c07bf05264adc801ca02bf73b716f2114ff4bb2807db5ad054f3660722bce7806619eb76185b1a94921a008fc634009a58251c8f9079a2ce83244dbe11ba4fb4405ddc58f4b1122f931be",
      "networkId": 0,
      "chainId": 0
    },
    {
      "hash": "0x79cc85038b0e78f44f980ea7b63cc766259ce6a8527bca7b27499727c056383b",
      "blockHash": "0x1a1c3bdef2519fdde0551a32c604f35891bc3c3e3a857d1fcd3df3de34dfd82e",
      "blockNumber": 55858,
      "transactionIndex": 16,
      "confirmations": null,
      "from": "0xe6A7a1d47ff21B6321162AEA7C6CB457D5476Bca",
      "gasPrice": {
        "_hex": "0xd66fafd41"
      },
      "gasLimit": {
        "_hex": "0x55f0"
      },
      "to": "0xe8a09f2DdC6D33E1dCE008B1810B5D317Cd7891e",
      "value": {
        "_hex": "0x13d1ada2f5dbad14"
      },
      "nonce": 276,
      "data": "0x",
      "r": "0xd0ac845cfde5cc1111dbf1ad934e619fa3561bcb4066c1b9f406120806d0182e",
      "s": "0x07177b0634c55233509d1c699f9fb7320563d5a5667f9244562d784f991e7cdc",
      "v": 28,
      "creates": null,
      "raw": "0xf86e820114850d66fafd418255f094e8a09f2ddc6d33e1dce008b1810b5d317cd7891e8813d1ada2f5dbad14801ca0d0ac845cfde5cc1111dbf1ad934e619fa3561bcb4066c1b9f406120806d0182ea007177b0634c55233509d1c699f9fb7320563d5a5667f9244562d784f991e7cdc",
      "networkId": 0,
      "chainId": 0
    },
    {
      "hash": "0xb0233691bc9d8a2102db4ef2066f4bb44c381245d90fd2cd8be2293f8c453b8a",
      "blockHash": "0x1a1c3bdef2519fdde0551a32c604f35891bc3c3e3a857d1fcd3df3de34dfd82e",
      "blockNumber": 55858,
      "transactionIndex": 17,
      "confirmations": null,
      "from": "0xe6A7a1d47ff21B6321162AEA7C6CB457D5476Bca",
      "gasPrice": {
        "_hex": "0xd66fafd41"
      },
      "gasLimit": {
        "_hex": "0x55f0"
      },
      "to": "0xcC2E1dcD8A127A7c8EE16B0a75E234D216a34eA7",
      "value": {
        "_hex": "0x13d5b0f5cde3ee0c"
      },
      "nonce": 277,
      "data": "0x",
      "r": "0x484c8d72e42ac3e2d7bff8466a5ed26ecfa585c5147190520695fb29b15f8b42",
      "s": "0x0a36c887020fe23193aa4bd7079524a4d1ed344cbda1ae6390605d5598dd3161",
      "v": 28,
      "creates": null,
      "raw": "0xf86e820115850d66fafd418255f094cc2e1dcd8a127a7c8ee16b0a75e234d216a34ea78813d5b0f5cde3ee0c801ca0484c8d72e42ac3e2d7bff8466a5ed26ecfa585c5147190520695fb29b15f8b42a00a36c887020fe23193aa4bd7079524a4d1ed344cbda1ae6390605d5598dd3161",
      "networkId": 0,
      "chainId": 0
    }
  ]
}