{
  "hash": "0xff9901659c0b2a4c31701b3f1ccbb2b962270622927f0e9abb0c3de75337a853",
  "parentHash": "0x1fd0cd3494a5f9e6e30df1b8ab77e918b7b3a2cabd4a022e4f347de2a14895d8",
  "number": 105447,
  "timestamp": 1439887843,
  "nonce": "0x24ba107ccba9783a",
  "difficulty": 4386751271005,
  "gasLimit": {
    "_hex": "0x2fefd8"
  },
  "gasUsed": {
    "_hex": "0xa410"
  },
  "miner": "0xe6A7a1d47ff21B6321162AEA7C6CB457D5476Bca",
  "extraData": "0x476574682f76312e302e312d38326566323666362f6c696e75782f676f312e34",
  "transactions": [
    {
      "hash": "0xcc5b7c018188e8a6399ee3f2285c38ec767662645b37d1cf696612186e085464",
      "blockHash": "0xff9901659c0b2a4c31701b3f1ccbb2b962270622927f0e9abb0c3de75337a853",
      "blockNumber": 105447,
      "transactionIndex": 0,
      "confirmations": null,
      "from": "0x233b4fC39b20bb5eCf29882D7F068544BCc5eB78",
      "gasPrice": {
        "_hex": "0xd5d818106"
      },
      "gasLimit": {
        "_hex": "0x5208"
      },
      "to": "0x32Be343B94f860124dC4fEe278FDCBD38C102D88",
      "value": {
        "_hex": "0x13c33d0bd02181000"
      },
      "nonce": 4,
      "data": "0x",
      "r": "0x2c8df4decc480d43ba6d5bcd7297fc406def6b9f6189f97323ca48ea7cf06063",
      "s": "0x37aefb83b0545ccfa9b0f9cc36b6311154767b2439a567974bce5346baee318b",
      "v": 28,
      "creates": null,
      "raw": "0xf86d04850d5d8181068252089432be343b94f860124dc4fee278fdcbd38c102d8889013c33d0bd02181000801ca02c8df4decc480d43ba6d5bcd7297fc406def6b9f6189f97323ca48ea7cf06063a037aefb83b0545ccfa9b0f9cc36b6311154767b2439a567974bce5346baee318b",
      "networkId": 0,
      "chainId": 0
    },
    {
      "hash": "0x04c0a91d2b63adece4b5c3c231df0ad322d2074b18691e18d3b15d9ef32490f5",
      "blockHash": "0xff9901659c0b2a4c31701b3f1ccbb2b962270622927f0e9abb0c3de75337a853",
      "blockNumber": 105447,
      "transactionIndex": 1,
      "confirmations": null,
      "from": "0x67a8Acb3621e0683EC4eeb0be82BE8cf344d97c6",
      "gasPrice": {
        "_hex": "0xba43b7400"
      },
      "gasLimit": {
        "_hex": "0x5208"
      },
      "to": "0xC47Aaa860008be6f65B58c6C6E02a84e666EfE31",
      "value": {
        "_hex": "0xddcfbbb7a606000"
      },
      "nonce": 1,
      "data": "0x",
      "r": "0xfc56f04905b29309f813ccb75cf31d12a44e7f6275bb4260aedc315c7e54d320",
      "s": "0x2153375f1ff993a7bd4741e6d71aa18fa9d080db6f72c1b999151e0cb6f2c213",
      "v": 28,
      "creates": null,
      "raw": "0xf86c01850ba43b740082520894c47aaa860008be6f65b58c6c6e02a84e666efe31880ddcfbbb7a606000801ca0fc56f04905b29309f813ccb75cf31d12a44e7f6275bb4260aedc315c7e54d320a02153375f1ff993a7bd4741e6d71aa18fa9d080db6f72c1b999151e0cb6f2c213",
      "networkId": 0,
      "chainId": 0
    }
  ]
}