{
  "hash": "0x12cd3ce6c61161204d2de7d9f17246c32288e10a381e0a911036a7974bfb4afa",
  "parentHash": "0xc1b390233909a998733bd259736e6f4842263bce12a27ef1039037b6be9bd448",
  "number": 122167,
  "timestamp": 1440189343,
  "nonce": "0x955997da08c57314",
  "difficulty": 4473093023495,
  "gasLimit": {
    "_hex": "0x2fefd8"
  },
  "gasUsed": {
    "_hex": "0xa410"
  },
  "miner": "0x1E9Cb3929516130db1ac4CB03a20cAe1CEE52F71",
  "extraData": "0x476574682f76312e302e322d39323137366535332f6c696e75782f676f312e34",
  "transactions": [
    {
      "hash": "0x39ccc4c78e8fe17f80cc6fd4901a9e9ddf0339458d98a92ac76d3aa0a416be7d",
      "blockHash": "0x12cd3ce6c61161204d2de7d9f17246c32288e10a381e0a911036a7974bfb4afa",
      "blockNumber": 122167,
      "transactionIndex": 0,
      "confirmations": null,
      "from": "0x2910543Af39abA0Cd09dBb2D50200b3E800A63D2",
      "gasPrice": {
        "_hex": "0xcdb9f2dec"
      },
      "gasLimit": {
        "_hex": "0x5208"
      },
      "to": "0x8F68fbE2DCFf038C24F650C9e05Ee478038171cd",
      "value": {
        "_hex": "0x3635b7ea4ca6bf8000"
      },
      "nonce": 1220,
      "data": "0x",
      "r": "0x97c145b49aaed1dd54616ca1ec44bdb1e2d89ab998d36dbdabb2e511f2728e0c",
      "s": "0x610f3c5aa276142494e231d92d0448c7fab1ddbc20f078f78023406531be41ad",
      "v": 28,
      "creates": null,
      "raw": "0xf86f8204c4850cdb9f2dec825208948f68fbe2dcff038c24f650c9e05ee478038171cd893635b7ea4ca6bf8000801ca097c145b49aaed1dd54616ca1ec44bdb1e2d89ab998d36dbdabb2e511f2728e0ca0610f3c5aa276142494e231d92d0448c7fab1ddbc20f078f78023406531be41ad",
      "networkId": 0,
      "chainId": 0
    },
    {
      "hash": "0xd508afe98fe2c0d560860d648ba642a30ae6646b805e9a3770be854eb5d32297",
      "blockHash": "0x12cd3ce6c61161204d2de7d9f17246c32288e10a381e0a911036a7974bfb4afa",
      "blockNumber": 122167,
      "transactionIndex": 1,
      "confirmations": null,
      "from": "0xFc39Be41094b1997D2169E8264c2C3BAA6c99bc4",
      "gasPrice": {
        "_hex": "0xba43b7400"
      },
      "gasLimit": {
        "_hex": "0x15f90"
      },
      "to": "0x54A0B5f3245A3625d9a506a8B34327c26cde4f76",
      "value": {
        "_hex": "0x56bc75e2d63100000"
      },
      "nonce": 9,
      "data": "0x",
      "r": "0x5a4e1000cc99c9e479d5d18352572c6773cff4a0fd5a3e9c0fb354b6b2209e5b",
      "s": "0x2e3b6fc53079273495dc496a3a7eeb8cd1fd3b60705e19b247ce16a691e808dc",
      "v": 28,
      "creates": null,
      "raw": "0xf86e09850ba43b740083015f909454a0b5f3245a3625d9a506a8b34327c26cde4f7689056bc75e2d63100000801ca05a4e1000cc99c9e479d5d18352572c6773cff4a0fd5a3e9c0fb354b6b2209e5ba02e3b6fc53079273495dc496a3a7eeb8cd1fd3b60705e19b247ce16a691e808dc",
      "networkId": 0,
      "chainId": 0
    }
  ]
}