{
  "hash": "0x61cd534196ea5c448cfe3335ca624a53a7649794163949e352cebed51ee03a9f",
  "parentHash": "0xafa3a7e047c9908202756951f5c6b84115b6d62cdbf264b3912c84349a314c82",
  "number": 109059,
  "timestamp": 1439950421,
  "nonce": "0x4c1eb1ec8abacff3",
  "difficulty": 4410630788691,
  "gasLimit": {
    "_hex": "0x2fefd8"
  },
  "gasUsed": {
    "_hex": "0x5208"
  },
  "miner": "0xf5B16AbF021545b8298f4a32d7384Fac30e780Ae",
  "extraData": "0x",
  "transactions": [
    {
      "hash": "0xaf0bfa39a67152c4dc4a545053f4958fb4b0150abd1806071123559c7aa5326d",
      "blockHash": "0x61cd534196ea5c448cfe3335ca624a53a7649794163949e352cebed51ee03a9f",
      "blockNumber": 109059,
      "transactionIndex": 0,
      "confirmations": null,
      "from": "0x32Be343B94f860124dC4fEe278FDCBD38C102D88",
      "gasPrice": {
        "_hex": "0xcee4df66a"
      },
      "gasLimit": {
        "_hex": "0x5208"
      },
      "to": "0x2EC7156FA1f0c71eF974E72183465084ccF5A3b7",
      "value": {
        "_hex": "0x34bc91e3c9e9c4000"
      },
      "nonce": 1267,
      "data": "0x",
      "r": "0x604151e2b20f0eb3b4f25edeb70179ee65bb62048b8fc0e99d15552bb16c1c0a",
      "s": "0x21e107e3db7858d2287ebb40a196544deda1d115eba39f08f048e2606024b76a",
      "v": 28,
      "creates": null,
      "raw": "0xf86f8204f3850cee4df66a825208942ec7156fa1f0c71ef974e72183465084ccf5a3b789034bc91e3c9e9c4000801ca0604151e2b20f0eb3b4f25edeb70179ee65bb62048b8fc0e99d15552bb16c1c0aa021e107e3db7858d2287ebb40a196544deda1d115eba39f08f048e2606024b76a",
      "networkId": 0,
      "chainId": 0
    }
  ]
}