{
  "hash": "0x9281219b39d17a7e5788dee31b4f34a4d5ea4051ef8b8e0c1453a0fe8b4347b3",
  "parentHash": "0x7726be9ebe1982b17496f1c1d83cd8dfeda56ba9287d7d864e8ac0c53eade885",
  "number": 90413,
  "timestamp": 1439639635,
  "nonce": "0x1419d8ef90471a5d",
  "difficulty": 3336727277626,
  "gasLimit": {
    "_hex": "0x2fefd8"
  },
  "gasUsed": {
    "_hex": "0x5208"
  },
  "miner": "0xe6A7a1d47ff21B6321162AEA7C6CB457D5476Bca",
  "extraData": "0x476574682f76312e302e312d38326566323666362f6c696e75782f676f312e34",
  "transactions": [
    {
      "hash": "0x877b6f20978420ab1564a15883f5d531564c251a5b1d0a6bc34692e112d3bcb7",
      "blockHash": "0x9281219b39d17a7e5788dee31b4f34a4d5ea4051ef8b8e0c1453a0fe8b4347b3",
      "blockNumber": 90413,
      "transactionIndex": 0,
      "confirmations": null,
      "from": "0x0004B15be8cB573A7be023e203E268DbcFFD302B",
      "gasPrice": {
        "_hex": "0xd60340b78"
      },
      "gasLimit": {
        "_hex": "0x15f90"
      },
      "to": "0x2102cC711D03dfcedF9a443B9bD540DacBFf0426",
      "value": {
        "_hex": "0xde0b6b3a7640000"
      },
      "nonce": 0,
      "data": "0x",
      "r": "0x70f61acf3aa6baaf47b0e256732f272db67b3ee15c40ddf94191fa05454db150",
      "s": "0x0f2aae151a69ad2d8999fd634dc726ff8a1c174377479f9742836a12c81270cc",
      "v": 28,
      "creates": null,
      "raw": "0xf86d80850d60340b7883015f90942102cc711d03dfcedf9a443b9bd540dacbff0426880de0b6b3a7640000801ca070f61acf3aa6baaf47b0e256732f272db67b3ee15c40ddf94191fa05454db150a00f2aae151a69ad2d8999fd634dc726ff8a1c174377479f9742836a12c81270cc",
      "networkId": 0,
      "chainId": 0
    }
  ]
}