{
  "hash": "0x96688e06d6622c397cd60f0c0ede535de3737ec2dd24f8fb7ce3b381b4a89a31",
  "parentHash": "0xad0a7a124097dd5a738648597972a7f05c9717a21d0da12d68a7f1eb22aa2bf6",
  "number": 113470,
  "timestamp": 1440024005,
  "nonce": "0x0b68565d1dd2abe8",
  "difficulty": 4466814334796,
  "gasLimit": {
    "_hex": "0x2fefd8"
  },
  "gasUsed": {
    "_hex": "0xf618"
  },
  "miner": "0x9F06E0F7aAF743BB49B4845478056d900eDA0839",
  "extraData": "0x",
  "transactions": [
    {
      "hash": "0xb107ce4eba3c60a9fd6442f93eb67d39bcc2c39d4091fab3a7fce3f78a6de697",
      "blockHash": "0x96688e06d6622c397cd60f0c0ede535de3737ec2dd24f8fb7ce3b381b4a89a31",
      "blockNumber": 113470,
      "transactionIndex": 0,
      "confirmations": null,
      "from": "0x574FDcb2165600BA7FcF526D999380208DB10382",
      "gasPrice": {
        "_hex": "0xd7a2b52e6"
      },
      "gasLimit": {
        "_hex": "0x7a120"
      },
      "to": "0xBBDa93a81B882774e1c9b5e3F933Fa35DaC8bc88",
      "value": {
        "_hex": "0x4563918244f40000"
      },
      "nonce": 2,
      "data": "0x",
      "r": "0x94319c1fcdfaca0fdc58cf5e7a71a9048c04ec048ca2a62644c1224eb1f11b0d",
      "s": "0x2244360d3f7253a0564a3ee0c68bcf47d9eb497025e2f43824fe80103cbdf57a",
      "v": 28,
      "creates": null,
      "raw": "0xf86d02850d7a2b52e68307a12094bbda93a81b882774e1c9b5e3f933fa35dac8bc88884563918244f40000801ca094319c1fcdfaca0fdc58cf5e7a71a9048c04ec048ca2a62644c1224eb1f11b0da02244360d3f7253a0564a3ee0c68bcf47d9eb497025e2f43824fe80103cbdf57a",
      "networkId": 0,
      "chainId": 0
    },
    {
      "hash": "0xaa02babaa5412b34305ac8a8c3bbf0878038fe2d12533da782bbf36b16663e4f",
      "blockHash": "0x96688e06d6622c397cd60f0c0ede535de3737ec2dd24f8fb7ce3b381b4a89a31",
      "blockNumber": 113470,
      "transactionIndex": 1,
      "confirmations": null,
      "from": "0xd10E6C4B44Ee5557dF0f11239Ca4BE5025791E8E",
      "gasPrice": {
        "_hex": "0xd7a2b52e6"
      },
      "gasLimit": {
        "_hex": "0x7a120"
      },
      "to": "0xBBDa93a81B882774e1c9b5e3F933Fa35DaC8bc88",
      "value": {
        "_hex": "0x4563918244f40000"
      },
      "nonce": 2,
      "data": "0x",
      "r": "0xbe9d6bcf46639f3469253c7f9d9697da0f99b55248647d1166c9d2206c0c439f",
      "s": "0x333653bcc531351b779023e0496f913d0fd6a9db4899247e46bc451ddae41394",
      "v": 27,
      "creates": null,
      "raw": "0xf86d02850d7a2b52e68307a12094bbda93a81b882774e1c9b5e3f933fa35dac8bc88884563918244f40000801ba0be9d6bcf46639f3469253c7f9d9697da0f99b55248647d1166c9d2206c0c439fa0333653bcc531351b779023e0496f913d0fd6a9db4899247e46bc451ddae41394",
      "networkId": 0,
      "chainId": 0
    },
    {
      "hash": "0x34ddc531437c145f5c2856bbe8ee306296e990da1693b910f392c3173e6be976",
      "blockHash": "0x96688e06d6622c397cd60f0c0ede535de3737ec2dd24f8fb7ce3b381b4a89a31",
      "blockNumber": 113470,
      "transactionIndex": 2,
      "confirmations": null,
      "from": "0x1f1f1f6FAA77a31e6c9aeF1eF25A6F6819177EEB",
      "gasPrice": {
        "_hex": "0xba43b7400"
      },
      "gasLimit": {
        "_hex": "0x5266"
      },
      "to": "0x36c26D963B0Ab63062d2775626752b1DD337D670",
      "value": {
        "_hex": "0x8f1d5c1cae3740000"
      },
      "nonce": 4,
      "data": "0x",
      "r": "0x1b698916edcef27b65d86c0eaabba24471795372ea6083d58ef1c16ac972fd5d",
      "s": "0xff5f3657ef51013251ee664c587e376722364877db0b4674b01ff84a97a107c0",
      "v": 28,
      "creates": null,
      "raw": "0xf86d04850ba43b74008252669436c26d963b0ab63062d2775626752b1dd337d6708908f1d5c1cae3740000801ca01b698916edcef27b65d86c0eaabba24471795372ea6083d58ef1c16ac972fd5da0ff5f3657ef51013251ee664c587e376722364877db0b4674b01ff84a97a107c0",
      "networkId": 0,
      "chainId": 0
    }
  ]
}