{
  "hash": "0xa3127f98a7c3b1a4a35ee3b09656c1c77912e5ce03b023492af62d267efed9c4",
  "parentHash": "0xd2d2a56406be2840d08dc32d7dfd3b15b13f0d6564c8ce7dcd887f335eb5d52d",
  "number": 65668,
  "timestamp": 1439240969,
  "nonce": "0x4bd0d7bcd34c60a1",
  "difficulty": 1935908991663,
  "gasLimit": {
    "_hex": "0x2fefd8"
  },
  "gasUsed": {
    "_hex": "0xa410"
  },
  "miner": "0xEF247E639d49461D25F57e9362CadE3120910Ce0",
  "extraData": "0x476574682f76312e302e312f6c696e75782f676f312e342e32",
  "transactions": [
    {
      "hash": "0x1f79941fe0a85e56d7344d62d5bdd4e827a6433dfe88f23644b6af4c7b77b7b5",
      "blockHash": "0xa3127f98a7c3b1a4a35ee3b09656c1c77912e5ce03b023492af62d267efed9c4",
      "blockNumber": 65668,
      "transactionIndex": 0,
      "confirmations": null,
      "from": "0xC2B0FB302729ef0f4aa96C0E02cC2346459294DF",
      "gasPrice": {
        "_hex": "0xd7d40ace3"
      },
      "gasLimit": {
        "_hex": "0x15f90"
      },
      "to": "0xcE2b6a73E0155C41C002D0745D93D9BEd0fbD019",
      "value": {
        "_hex": "0xde0b6b3a7640000"
      },
      "nonce": 1,
      "data": "0x",
      "r": "0xffa893574ab6fda31d035be5903a3e1eaf8f50fe5ef14ebc116897624869adee",
      "s": "0x73ee5c3bb42962bb74e13a73d2f5c41ace7591eef393fa51986fc61a0e96f0d7",
      "v": 28,
      "creates": null,
      "raw": "0xf86d01850d7d40ace383015f9094ce2b6a73e0155c41c002d0745d93d9bed0fbd019880de0b6b3a7640000801ca0ffa893574ab6fda31d035be5903a3e1eaf8f50fe5ef14ebc116897624869adeea073ee5c3bb42962bb74e13a73d2f5c41ace7591eef393fa51986fc61a0e96f0d7",
      "networkId": 0,
      "chainId": 0
    },
    {
      "hash": "0x2fe5bba4cee669a14194eec0625df891bea053bf3ec54049d6d222625aa0525f",
      "blockHash": "0xa3127f98a7c3b1a4a35ee3b09656c1c77912e5ce03b023492af62d267efed9c4",
      "blockNumber": 65668,
      "transactionIndex": 1,
      "confirmations": null,
      "from": "0x608F680cB915b87F83f3d369bBbb796D778c6162",
      "gasPrice": {
        "_hex": "0xd0a550ef4"
      },
      "gasLimit": {
        "_hex": "0x15f90"
      },
      "to": "0xBaf4E201A3015b60bD8dd1190E20411EaF12C5eE",
      "value": {
        "_hex": "0xde0b6b3a7640000"
      },
      "nonce": 4,
      "data": "0x",
      "r": "0x40a82cf20ac34cef3e9aed462612a0c3e26606c3416fce54c639f1d68295f9b8",
      "s": "0x3103e189a189cafa8d08734e5c06d3759d9b7c715b78d66957ab5bf9623f2988",
      "v": 28,
      "creates": null,
      "raw": "0xf86d04850d0a550ef483015f9094baf4e201a3015b60bd8dd1190e20411eaf12c5ee880de0b6b3a7640000801ca040a82cf20ac34cef3e9aed462612a0c3e26606c3416fce54c639f1d68295f9b8a03103e189a189cafa8d08734e5c06d3759d9b7c715b78d66957ab5bf9623f2988",
      "networkId": 0,
      "chainId": 0
    }
  ]
}