{
  "hash": "0x067c5e14d3fc22d83e154613a0f1af7e0af19ede55fe71a9dd3ec0d49f78e440",
  "parentHash": "0x55283e8e258481ab3a812322e957635644ad43921d8975ef7fc767823db1bb9a",
  "number": 51560,
  "timestamp": 1439007016,
  "nonce": "0xa6bdb68b0aee1073",
  "difficulty": 1561211140330,
  "gasLimit": {
    "_hex": "0xbf533"
  },
  "gasUsed": {
    "_hex": "0xa410"
  },
  "miner": "0xF2d2AfF1320476cb8C6b607199D23175cc595693",
  "extraData": "0x476574682f76312e302e312f77696e646f77732f676f312e342e32",
  "transactions": [
    {
      "hash": "0x959961d36be684a67836379ab0a506a19706d7ca295722437ad9c1285178efea",
      "blockHash": "0x067c5e14d3fc22d83e154613a0f1af7e0af19ede55fe71a9dd3ec0d49f78e440",
      "blockNumber": 51560,
      "transactionIndex": 0,
      "confirmations": null,
      "from": "0x1308A2e95c0160B90803ddCA9B9a5bb55E416d79",
      "gasPrice": {
        "_hex": "0xd66f7d368"
      },
      "gasLimit": {
        "_hex": "0x15f90"
      },
      "to": "0xE5F9b98aFCd58f9a652BAd30417958Bc9dD7bFba",
      "value": {
        "_hex": "0xde0b6b3a7640000"
      },
      "nonce": 4,
      "data": "0x",
      "r": "0x3cc442e27255214589ff3609204437854d403735bf049006fb8142e01b61c87f",
      "s": "0x285ff093072077e6049d160cafdcd9766958caf9c1087546e3b6f56e8667c662",
      "v": 28,
      "creates": null,
      "raw": "0xf86d04850d66f7d36883015f9094e5f9b98afcd58f9a652bad30417958bc9dd7bfba880de0b6b3a7640000801ca03cc442e27255214589ff3609204437854d403735bf049006fb8142e01b61c87fa0285ff093072077e6049d160cafdcd9766958caf9c1087546e3b6f56e8667c662",
      "networkId": 0,
      "chainId": 0
    },
    {
      "hash": "0xda8539712e1b362df4a85676f8a6e5c29f09931500cfc5149b73477d96e626dd",
      "blockHash": "0x067c5e14d3fc22d83e154613a0f1af7e0af19ede55fe71a9dd3ec0d49f78e440",
      "blockNumber": 51560,
      "transactionIndex": 1,
      "confirmations": null,
      "from": "0x1308A2e95c0160B90803ddCA9B9a5bb55E416d79",
      "gasPrice": {
        "_hex": "0xd66f7d368"
      },
      "gasLimit": {
        "_hex": "0x15f90"
      },
      "to": "0xE5F9b98aFCd58f9a652BAd30417958Bc9dD7bFba",
      "value": {
        "_hex": "0xde0b6b3a7640000"
      },
      "nonce": 5,
      "data": "0x",
      "r": "0xf4ad8ff3fc49b24ff5a1f95f764b98e9c06f137327dc925908543162ca6aeb47",
      "s": "0x40548f0434cca9db38b87e52418e8268ec91eef5052cd0c1a9210df8fca2e3e0",
      "v": 28,
      "creates": null,
      "raw": "0xf86d05850d66f7d36883015f9094e5f9b98afcd58f9a652bad30417958bc9dd7bfba880de0b6b3a7640000801ca0f4ad8ff3fc49b24ff5a1f95f764b98e9c06f137327dc925908543162ca6aeb47a040548f0434cca9db38b87e52418e8268ec91eef5052cd0c1a9210df8fca2e3e0",
      "networkId": 0,
      "chainId": 0
    }
  ]
}