{
  "hash": "0xccd9d332db402ec44dc206639c3960ab0492a47fe846b4ced06aae3c80e2bd06",
  "parentHash": "0x40c71efe63e1ee3141d8a2a36cdc2118fc273cdb9b63f1198c289d901b3766fb",
  "number": 76503,
  "timestamp": 1439421700,
  "nonce": "0xbf41184241165e58",
  "difficulty": 2224255107297,
  "gasLimit": {
    "_hex": "0x2fefd8"
  },
  "gasUsed": {
    "_hex": "0xad77"
  },
  "miner": "0x31995C46B15C84523cDEE26f49A681b8237e43F5",
  "extraData": "0x476574682f76312e302e312f77696e646f77732f676f312e342e32",
  "transactions": [
    {
      "hash": "0xbf7912731f81b1468e6e6deaad9a64d91878374e43da01294c213b7a9cfe716e",
      "blockHash": "0xccd9d332db402ec44dc206639c3960ab0492a47fe846b4ced06aae3c80e2bd06",
      "blockNumber": 76503,
      "transactionIndex": 0,
      "confirmations": null,
      "from": "0x87C5B5874A18B4306DF8a752a6C8cc3E82daFc19",
      "gasPrice": {
        "_hex": "0x10b1f58ee69"
      },
      "gasLimit": {
        "_hex": "0x493e0"
      },
      "to": "0xD79B4C6791784184e2755B2fC1659eaaB0f80456",
      "value": {
        "_hex": "0x0"
      },
      "nonce": 80,
      "data": "0x03750d940000000000000000000000008be84a3adfbc51c59023b2413766e229108c35de3464323363343233636138613639633100000000000000000000000000000000",
      "r": "0xb01120d4621963964e98d40b4d6aeeb86fc5def00dbdfe9b7ef9a7bf26449e05",
      "s": "0x74a93898dbfb235e6d578ef783fb8ecfaa7e46ceb6317f798599647ac6a90ac0",
      "v": 28,
      "creates": null,
      "raw": "0xf8ab5086010b1f58ee69830493e094d79b4c6791784184e2755b2fc1659eaab0f8045680b84403750d940000000000000000000000008be84a3adfbc51c59023b2413766e229108c35de34643233633432336361386136396331000000000000000000000000000000001ca0b01120d4621963964e98d40b4d6aeeb86fc5def00dbdfe9b7ef9a7bf26449e05a074a93898dbfb235e6d578ef783fb8ecfaa7e46ceb6317f798599647ac6a90ac0",
      "networkId": 0,
      "chainId": 0
    }
  ]
}