{
  "hash": "0x174b5952bfb5ab8c83460416c8f0c46ffa7a411603bb5e33b7a780daa4e728e0",
  "parentHash": "0xd8a5fa63a91644a4eb8fc4582c5c7d317af818135e7c229dcb6e42e7bb83c6fd",
  "number": 75484,
  "timestamp": 1439404222,
  "nonce": "0x996bb4f4b54d3157",
  "difficulty": 2206136440646,
  "gasLimit": {
    "_hex": "0x2fefd8"
  },
  "gasUsed": {
    "_hex": "0x34ebf"
  },
  "miner": "0x3FF679B0823a026F2378E5f5F22A6F127cC85828",
  "extraData": "0x",
  "transactions": [
    {
      "hash": "0xc70c38663ef0054adcd6ba290b3c1b6adff39674546bf7eeb242b3d9a1f21609",
      "blockHash": "0x174b5952bfb5ab8c83460416c8f0c46ffa7a411603bb5e33b7a780daa4e728e0",
      "blockNumber": 75484,
      "transactionIndex": 0,
      "confirmations": null,
      "from": "0x326Be8F71bFb0379f989aAB1CC1fE37f0a771f60",
      "gasPrice": {
        "_hex": "0x10d121c7022"
      },
      "gasLimit": {
        "_hex": "0x493e0"
      },
      "to": "0xD79B4C6791784184e2755B2fC1659eaaB0f80456",
      "value": {
        "_hex": "0xde0b6b3a7640000"
      },
      "nonce": 99,
      "data": "0x8d2161860000000000000000000000000000000000000000000000000000000000000080c0e1b162a566939b397d88c89b28f79c319cabb1e33e43e022a1201915d985e6",
      "r": "0x3b5f17d4344b76346317be79888ec12d48d658703d2b05e4c474667bdff717ce",
      "s": "0x1863d538fcc217ba6f3dba041313ea8f5d901b17a53f859647d04cfa2c85801a",
      "v": 27,
      "creates": null,
      "raw": "0xf8b36386010d121c7022830493e094d79b4c6791784184e2755b2fc1659eaab0f80456880de0b6b3a7640000b8448d2161860000000000000000000000000000000000000000000000000000000000000080c0e1b162a566939b397d88c89b28f79c319cabb1e33e43e022a1201915d985e61ba03b5f17d4344b76346317be79888ec12d48d658703d2b05e4c474667bdff717cea01863d538fcc217ba6f3dba041313ea8f5d901b17a53f859647d04cfa2c85801a",
      "networkId": 0,
      "chainId": 0
    },
    {
      "hash": "0xffdcdeedb43e96fd346e42304579cdf5fbbbb4db31cc5e7ed07b15bb156e73a8",
      "blockHash": "0x174b5952bfb5ab8c83460416c8f0c46ffa7a411603bb5e33b7a780daa4e728e0",
      "blockNumber": 75484,
      "transactionIndex": 1,
      "confirmations": null,
      "from": "0xb577b6BEfA054E9c040461855094B002D7f57bd7",
      "gasPrice": {
        "_hex": "0x10090087a50"
      },
      "gasLimit": {
        "_hex": "0x15f90"
      },
      "to": "0x1BF3aa6bA1a55E2e26b26a4799d33c2c14945406",
      "value": {
        "_hex": "0x8ac7230489e80000"
      },
      "nonce": 1,
      "data": "0x",
      "r": "0xffadc5ef312830174ecd133d22e75019978f201fb2b954f15e080887d82a8a50",
      "s": "0x0a8cfb844a75eed9aec8181d5c6fc6fb350f2989a519e6ef17ab7b95a3ccf656",
      "v": 27,
      "creates": null,
      "raw": "0xf86e0186010090087a5083015f90941bf3aa6ba1a55e2e26b26a4799d33c2c14945406888ac7230489e80000801ba0ffadc5ef312830174ecd133d22e75019978f201fb2b954f15e080887d82a8a50a00a8cfb844a75eed9aec8181d5c6fc6fb350f2989a519e6ef17ab7b95a3ccf656",
      "networkId": 0,
      "chainId": 0
    },
    {
      "hash": "0xe9a6c4cb8371449e643322d08b5fc76f7bc1642f75a37cbea07808bee631ab31",
      "blockHash": "0x174b5952bfb5ab8c83460416c8f0c46ffa7a411603bb5e33b7a780daa4e728e0",
      "blockNumber": 75484,
      "transactionIndex": 2,
      "confirmations": null,
      "from": "0x9cF18B3eb373C383a42d06136ba331D766ed9Fbb",
      "gasPrice": {
        "_hex": "0xdfd61b95e"
      },
      "gasLimit": {
        "_hex": "0x5208"
      },
      "to": "0x32Be343B94f860124dC4fEe278FDCBD38C102D88",
      "value": {
        "_hex": "0x8ac2a76ad520f000"
      },
      "nonce": 1,
      "data": "0x",
      "r": "0x2c7a333e84e758de75b63a76ba2912ca7088709ff25417fdcd2413ea28793a1a",
      "s": "0x265f5fdacbf0ad083a79a69a1ee604ac66a84b862d6e782d9c9e72d7f340ff99",
      "v": 27,
      "creates": null,
      "raw": "0xf86c01850dfd61b95e8252089432be343b94f860124dc4fee278fdcbd38c102d88888ac2a76ad520f000801ba02c7a333e84e758de75b63a76ba2912ca7088709ff25417fdcd2413ea28793a1aa0265f5fdacbf0ad083a79a69a1ee604ac66a84b862d6e782d9c9e72d7f340ff99",
      "networkId": 0,
      "chainId": 0
    },
    {
      "hash": "0x4546c94f11d80a57866b366f196f902b2b5ff133998fd247dc741c63f0b2d62d",
      "blockHash": "0x174b5952bfb5ab8c83460416c8f0c46ffa7a411603bb5e33b7a780daa4e728e0",
      "blockNumber": 75484,
      "transactionIndex": 3,
      "confirmations": null,
      "from": "0x6d921977dEFE5f4e0682CA512De1D07b1f4802E1",
      "gasPrice": {
        "_hex": "0xdfd61b95e"
      },
      "gasLimit": {
        "_hex": "0x5208"
      },
      "to": "0x32Be343B94f860124dC4fEe278FDCBD38C102D88",
      "value": {
        "_hex": "0x3afac0c1ec1c90000"
      },
      "nonce": 10,
      "data": "0x",
      "r": "0x1c604736f4f90ab77a522f1cb4b9436760b0cac421f5fbff72cfbda79cb56171",
      "s": "0x4275d76279fb318b795db7771b581efb8472fca476ba3499031626b922d1bb62",
      "v": 27,
      "creates": null,
      "raw": "0xf86d0a850dfd61b95e8252089432be343b94f860124dc4fee278fdcbd38c102d888903afac0c1ec1c90000801ba01c604736f4f90ab77a522f1cb4b9436760b0cac421f5fbff72cfbda79cb56171a04275d76279fb318b795db7771b581efb8472fca476ba3499031626b922d1bb62",
      "networkId": 0,
      "chainId": 0
    },
    {
      "hash": "0xceb4c785ad2518bf14dbc752c898fc1ceaa7ccb830136ab61b877d3dfecd5a8c",
      "blockHash": "0x174b5952bfb5ab8c83460416c8f0c46ffa7a411603bb5e33b7a780daa4e728e0",
      "blockNumber": 75484,
      "transactionIndex": 4,
      "confirmations": null,
      "from": "0x32Be343B94f860124dC4fEe278FDCBD38C102D88",
      "gasPrice": {
        "_hex": "0xdfd61b95e"
      },
      "gasLimit": {
        "_hex": "0x5208"
      },
      "to": "0xa748fac76B1d857E2f77484a0F816463e8b56EDc",
      "value": {
        "_hex": "0xdb614c3ee160000"
      },
      "nonce": 340,
      "data": "0x",
      "r": "0x70a9b339c84fc0c70addfbc41fb59cb35c91028afb83434ff4869c3b4429ddd5",
      "s": "0x4f56d29712d9c8847bab1c102c07e4e39b92f23de4719af687f521e7f0f5fc2f",
      "v": 27,
      "creates": null,
      "raw": "0xf86e820154850dfd61b95e82520894a748fac76b1d857e2f77484a0f816463e8b56edc880db614c3ee160000801ba070a9b339c84fc0c70addfbc41fb59cb35c91028afb83434ff4869c3b4429ddd5a04f56d29712d9c8847bab1c102c07e4e39b92f23de4719af687f521e7f0f5fc2f",
      "networkId": 0,
      "chainId": 0
    },
    {
      "hash": "0x75c85b79a9b73a99f83bce489e0b75f01b80e5bf85cec3050e5dda8fb0fc18e7",
      "blockHash": "0x174b5952bfb5ab8c83460416c8f0c46ffa7a411603bb5e33b7a780daa4e728e0",
      "blockNumber": 75484,
      "transactionIndex": 5,
      "confirmations": null,
      "from": "0x32Be343B94f860124dC4fEe278FDCBD38C102D88",
      "gasPrice": {
        "_hex": "0xdfd61b95e"
      },
      "gasLimit": {
        "_hex": "0x5208"
      },
      "to": "0xF87fF81fd2d041F0d54FC7da43440E54DaC5A8ef",
      "value": {
        "_hex": "0xa64f134e309ab000"
      },
      "nonce": 341,
      "data": "0x",
      "r": "0xd4f6a931f43ceb41c0d7a9d68c219f72d3672c8fd6fd383f7ef6259a1ffcd229",
      "s": "0x6056ab28f4ebef3ef310db3177cd553df8f6349ea3d0205a2b55191cf6edcee8",
      "v": 28,
      "creates": null,
      "raw": "0xf86e820155850dfd61b95e82520894f87ff81fd2d041f0d54fc7da43440e54dac5a8ef88a64f134e309ab000801ca0d4f6a931f43ceb41c0d7a9d68c219f72d3672c8fd6fd383f7ef6259a1ffcd229a06056ab28f4ebef3ef310db3177cd553df8f6349ea3d0205a2b55191cf6edcee8",
      "networkId": 0,
      "chainId": 0
    }
  ]
}