{
  "hash": "0xc658952e3b844f381fa194188a3126b0a4c6a80a16433b8a7fcf658a6b19ef8c",
  "parentHash": "0x5be622dcd0462c17392a7776df71017ff67b8bdc0f1919c476e1f08b139f1d35",
  "number": 121939,
  "timestamp": 1440185201,
  "nonce": "0x7bcd4e4c882f7a1f",
  "difficulty": 4477585110236,
  "gasLimit": {
    "_hex": "0x2fefd8"
  },
  "gasUsed": {
    "_hex": "0x5208"
  },
  "miner": "0x52bc44d5378309EE2abF1539BF71dE1b7d7bE3b5",
  "extraData": "0xd783010002844765746887676f312e342e32856c696e7578",
  "transactions": [
    {
      "hash": "0x0a34c88b892cf471bd6e807a439c98735cd3156daea4debf7c66f4e627a1d3cf",
      "blockHash": "0xc658952e3b844f381fa194188a3126b0a4c6a80a16433b8a7fcf658a6b19ef8c",
      "blockNumber": 121939,
      "transactionIndex": 0,
      "confirmations": null,
      "from": "0x32Be343B94f860124dC4fEe278FDCBD38C102D88",
      "gasPrice": {
        "_hex": "0xda8f8f46f"
      },
      "gasLimit": {
        "_hex": "0x5208"
      },
      "to": "0xBdF25376dA0767EfBF7eE3dCAe463ECe5572bFF3",
      "value": {
        "_hex": "0x6e2c00da20c51800"
      },
      "nonce": 1582,
      "data": "0x",
      "r": "0xc3292f521926732ee8260c80e68a4051c435cbb7bfd8023c65a5d4c85bdf1e1b",
      "s": "0x02eb976c025d66bab091f6f40456704f5cf1b56a84fa4bb5068426c80215deb8",
      "v": 27,
      "creates": null,
      "raw": "0xf86e82062e850da8f8f46f82520894bdf25376da0767efbf7ee3dcae463ece5572bff3886e2c00da20c51800801ba0c3292f521926732ee8260c80e68a4051c435cbb7bfd8023c65a5d4c85bdf1e1ba002eb976c025d66bab091f6f40456704f5cf1b56a84fa4bb5068426c80215deb8",
      "networkId": 0,
      "chainId": 0
    }
  ]
}