{
  "hash": "0xe9fe4205affe97e72d3cfb3edb6aa0d5e9056f58ec25c3d99fd5a0ceef17053d",
  "parentHash": "0x214f7f9c086d4b4fa58a56131bd787529ce3a9e3f102e8b742d9d358034634d7",
  "number": 79939,
  "timestamp": 1439477594,
  "nonce": "0x0c049ba6895bd7f4",
  "difficulty": 2350613928130,
  "gasLimit": {
    "_hex": "0x2fefd8"
  },
  "gasUsed": {
    "_hex": "0x546c"
  },
  "miner": "0xe090Ffdced499691fA9379752a59F8A058c1eE4A",
  "extraData": "0x476574682f76312e302e312f6c696e75782f676f312e342e32",
  "transactions": [
    {
      "hash": "0x88865764ab18872f3119cf8b1dd21f90f24372eb7966746376557348c5a2d42f",
      "blockHash": "0xe9fe4205affe97e72d3cfb3edb6aa0d5e9056f58ec25c3d99fd5a0ceef17053d",
      "blockNumber": 79939,
      "transactionIndex": 0,
      "confirmations": null,
      "from": "0xe2fF9Ee4b6ecC14141CC74Ca52a9e7a2Ee14D908",
      "gasPrice": {
        "_hex": "0x110c8f7d8de"
      },
      "gasLimit": {
        "_hex": "0xc350"
      },
      "to": "0x2910543Af39abA0Cd09dBb2D50200b3E800A63D2",
      "value": {
        "_hex": "0x4563918244f40000"
      },
      "nonce": 0,
      "data": "0x454e35435237524147",
      "r": "0x4bd076399cbc6236640b9f7220337925543e6a7689df511a4c3c3a432f74c6c0",
      "s": "0x8f908b011a09e8f3d0c0e8c2e5b89b9c4a38968ca2da78e17ff10f648cb471fe",
      "v": 27,
      "creates": null,
      "raw": "0xf87680860110c8f7d8de82c350942910543af39aba0cd09dbb2d50200b3e800a63d2884563918244f4000089454e354352375241471ba04bd076399cbc6236640b9f7220337925543e6a7689df511a4c3c3a432f74c6c0a08f908b011a09e8f3d0c0e8c2e5b89b9c4a38968ca2da78e17ff10f648cb471fe",
      "networkId": 0,
      "chainId": 0
    }
  ]
}