{
  "hash": "0xb1aae1a88e2b5cf9ff06f89557a069a26de5180806d299eeb9de5a4e2c02ece2",
  "parentHash": "0x483850e8e1baf547c8d9ab985a6d233da27f3d4a8c6ce8104d92bdbfee4a05a9",
  "number": 114219,
  "timestamp": 1440036840,
  "nonce": "0x002dc60c8de20d61",
  "difficulty": 4451175510616,
  "gasLimit": {
    "_hex": "0x2fefd8"
  },
  "gasUsed": {
    "_hex": "0x5208"
  },
  "miner": "0xc38a95397BF6FDa410aD0DA9dB44906Cd38F7ee8",
  "extraData": "0xd983010001844765746887676f312e342e328777696e646f7773",
  "transactions": [
    {
      "hash": "0xf568ab7001f03c31c6dfd3da76d5057b1aeab51b44dfd3d2b4abe489c9a2d2c0",
      "blockHash": "0xb1aae1a88e2b5cf9ff06f89557a069a26de5180806d299eeb9de5a4e2c02ece2",
      "blockNumber": 114219,
      "transactionIndex": 0,
      "confirmations": null,
      "from": "0x34d34F0a638F6991e4E2536F41295DF6E934A646",
      "gasPrice": {
        "_hex": "0xda7530a1a"
      },
      "gasLimit": {
        "_hex": "0x5208"
      },
      "to": "0x32Be343B94f860124dC4fEe278FDCBD38C102D88",
      "value": {
        "_hex": "0x455ba3ffac46b400"
      },
      "nonce": 25,
      "data": "0x",
      "r": "0xc46aebcf959915d477afb554f4490ae7e2292baa8023657c3e7c37013c1083b0",
      "s": "0x37452bb77ec86e2dc25513c5fc31cb9d9be1cce9797757d4637d9beaa8c154ae",
      "v": 28,
      "creates": null,
      "raw": "0xf86c19850da7530a1a8252089432be343b94f860124dc4fee278fdcbd38c102d8888455ba3ffac46b400801ca0c46aebcf959915d477afb554f4490ae7e2292baa8023657c3e7c37013c1083b0a037452bb77ec86e2dc25513c5fc31cb9d9be1cce9797757d4637d9beaa8c154ae",
      "networkId": 0,
      "chainId": 0
    }
  ]
}