{
  "hash": "0x2522e8385fa7f8a72d4073d2b956a26a04522dab03acd0a7afea6422652151fe",
  "parentHash": "0x9f3a4688eb77831d3364aaccb0086f1c1592ffdefe759c4e15ac3fcc1ea92e2c",
  "number": 64819,
  "timestamp": 1439226753,
  "nonce": "0x2e446867de2822b5",
  "difficulty": 1899584575432,
  "gasLimit": {
    "_hex": "0x2fefd8"
  },
  "gasUsed": {
    "_hex": "0xa410"
  },
  "miner": "0x157c6f2431eB1a95797EE86F7d17b3c0FD47A247",
  "extraData": "0x476574682f76312e302e312f77696e646f77732f676f312e342e32",
  "transactions": [
    {
      "hash": "0x1683a39055ac2cb24dae6226ffe19c35d755af23240f18cbc2a63be65cc740cc",
      "blockHash": "0x2522e8385fa7f8a72d4073d2b956a26a04522dab03acd0a7afea6422652151fe",
      "blockNumber": 64819,
      "transactionIndex": 0,
      "confirmations": null,
      "from": "0x5B80B04cBad97d1A7BeBD3eC81ed7b78AA922381",
      "gasPrice": {
        "_hex": "0xba43b7400"
      },
      "gasLimit": {
        "_hex": "0x5208"
      },
      "to": "0xe6e41587F259c8aC862F6276aF333DdfB03FAA37",
      "value": {
        "_hex": "0x1a921f4b554d000"
      },
      "nonce": 1,
      "data": "0x",
      "r": "0xcce08865832e2f1897b593c67cb9f8951d0fb80aaa50505a0d21765c87de75e7",
      "s": "0x5bcc0c69e50623d55cddb4f300daa38769f58deb0459fb4affc1dfa6a1d3c804",
      "v": 27,
      "creates": null,
      "raw": "0xf86c01850ba43b740082520894e6e41587f259c8ac862f6276af333ddfb03faa378801a921f4b554d000801ba0cce08865832e2f1897b593c67cb9f8951d0fb80aaa50505a0d21765c87de75e7a05bcc0c69e50623d55cddb4f300daa38769f58deb0459fb4affc1dfa6a1d3c804",
      "networkId": 0,
      "chainId": 0
    },
    {
      "hash": "0xcc9d8ab85bab0a228728f28eb603987de2698a21ed8cdbcab08ce69d447a55e1",
      "blockHash": "0x2522e8385fa7f8a72d4073d2b956a26a04522dab03acd0a7afea6422652151fe",
      "blockNumber": 64819,
      "transactionIndex": 1,
      "confirmations": null,
      "from": "0x5DCF84FFc56A135124c58bB199Bfc7ba8af356B3",
      "gasPrice": {
        "_hex": "0xba43b7400"
      },
      "gasLimit": {
        "_hex": "0x5208"
      },
      "to": "0x52689EcF4dBEa4Aa134Cf9D72085BceE7B14e08E",
      "value": {
        "_hex": "0x1d7684e6875b000"
      },
      "nonce": 1,
      "data": "0x",
      "r": "0x6a031b1903baa663697713d49b17f769336df147593c3ac499c6b824a20123f7",
      "s": "0x46ecb6e9da58221e1d017beae338701fb4e6f5c813a47926c793e8f5a984f70d",
      "v": 27,
      "creates": null,
      "raw": "0xf86c01850ba43b74008252089452689ecf4dbea4aa134cf9d72085bcee7b14e08e8801d7684e6875b000801ba06a031b1903baa663697713d49b17f769336df147593c3ac499c6b824a20123f7a046ecb6e9da58221e1d017beae338701fb4e6f5c813a47926c793e8f5a984f70d",
      "networkId": 0,
      "chainId": 0
    }
  ]
}