{
  "hash": "0x8a839bcef71a9f39241de1764a94c570cfaca121bef2a12fd89c220fd68d12cb",
  "parentHash": "0x5a7f50d49795ef6a336fa352233e6e5ce59aca76ef917db5a05959eac77a6e22",
  "number": 68985,
  "timestamp": 1439296682,
  "nonce": "0x9797190f3c415cda",
  "difficulty": 2034956687297,
  "gasLimit": {
    "_hex": "0x2fefd8"
  },
  "gasUsed": {
    "_hex": "0x5208"
  },
  "miner": "0x8B454d830feF179e66206840F8F3D1d83bC32b17",
  "extraData": "0x476574682f76312e302e312f77696e646f77732f676f312e342e32",
  "transactions": [
    {
      "hash": "0x730aac2b0e4a005762035bab30cf8046f763c2090bb735b1f8e83e8af88bc204",
      "blockHash": "0x8a839bcef71a9f39241de1764a94c570cfaca121bef2a12fd89c220fd68d12cb",
      "blockNumber": 68985,
      "transactionIndex": 0,
      "confirmations": null,
      "from": "0xD71833f71aD55C22F56B57E018c34F1001737d71",
      "gasPrice": {
        "_hex": "0xba43b7400"
      },
      "gasLimit": {
        "_hex": "0x5208"
      },
      "to": "0xf5Ced1b97849293E45CAa5C74921f414904a9B95",
      "value": {
        "_hex": "0x13572147582a000"
      },
      "nonce": 1,
      "data": "0x",
      "r": "0xf5f2916b4a424c598f9374896de592b9269b146d4674c401111eb35ef9ccce42",
      "s": "0x66c7cac313e6eb54eb5ff9f77c3e8cecffca15cafd05c0d45023eacd738cd7a9",
      "v": 27,
      "creates": null,
      "raw": "0xf86c01850ba43b740082520894f5ced1b97849293e45caa5c74921f414904a9b9588013572147582a000801ba0f5f2916b4a424c598f9374896de592b9269b146d4674c401111eb35ef9ccce42a066c7cac313e6eb54eb5ff9f77c3e8cecffca15cafd05c0d45023eacd738cd7a9",
      "networkId": 0,
      "chainId": 0
    }
  ]
}