{
  "hash": "0x8e3e4f38a498d5bc5c108d8282ff453b85f062b4cb5069b94c559c2da3c0b678",
  "parentHash": "0x4ad4d336ffcad888bd28c3eb065314f737950284c0e33cfa8c1dadda13ecca7a",
  "number": 111134,
  "timestamp": 1439985246,
  "nonce": "0xadf349f6550eb191",
  "difficulty": 4390204566573,
  "gasLimit": {
    "_hex": "0x2fefd8"
  },
  "gasUsed": {
    "_hex": "0xa410"
  },
  "miner": "0x88D74a59454F6cF3B51ef6b9136AFb6b9D405A88",
  "extraData": "0x",
  "transactions": [
    {
      "hash": "0x7183c7499b98db876a1e628ba4c014369555e0d52178ec3a1e9886caf995f523",
      "blockHash": "0x8e3e4f38a498d5bc5c108d8282ff453b85f062b4cb5069b94c559c2da3c0b678",
      "blockNumber": 111134,
      "transactionIndex": 0,
      "confirmations": null,
      "from": "0x1151790FE5F7C3113dfb07Dc3914B1916EcC8a7A",
      "gasPrice": {
        "_hex": "0xe1ce3b46b"
      },
      "gasLimit": {
        "_hex": "0x5208"
      },
      "to": "0x32Be343B94f860124dC4fEe278FDCBD38C102D88",
      "value": {
        "_hex": "0x297a177666155800"
      },
      "nonce": 5,
      "data": "0x",
      "r": "0xebc231b0fe1f3ebd53d3bc2324412668045077aa42af8520b729b524a16f9ec2",
      "s": "0x291ccfe4681e10a8637b6405f8b659b55913e7caec7a704400815ef85154d8ff",
      "v": 28,
      "creates": null,
      "raw": "0xf86c05850e1ce3b46b8252089432be343b94f860124dc4fee278fdcbd38c102d8888297a177666155800801ca0ebc231b0fe1f3ebd53d3bc2324412668045077aa42af8520b729b524a16f9ec2a0291ccfe4681e10a8637b6405f8b659b55913e7caec7a704400815ef85154d8ff",
      "networkId": 0,
      "chainId": 0
    },
    {
      "hash": "0xf87cb8dc00df44d02a6abba5ba094c773922880a80c270ea7ce63dad32806d03",
      "blockHash": "0x8e3e4f38a498d5bc5c108d8282ff453b85f062b4cb5069b94c559c2da3c0b678",
      "blockNumber": 111134,
      "transactionIndex": 1,
      "confirmations": null,
      "from": "0xb1abce2918E21ddb93AA452731a12672A3d9F75a",
      "gasPrice": {
        "_hex": "0xe1ce3b46b"
      },
      "gasLimit": {
        "_hex": "0x5208"
      },
      "to": "0x32Be343B94f860124dC4fEe278FDCBD38C102D88",
      "value": {
        "_hex": "0x455f0bd0249e5800"
      },
      "nonce": 176,
      "data": "0x",
      "r": "0x079dc1f09a7f95aa7ec9dae8f80657552432b6aa79e5dd29e6617bdc7397b3d6",
      "s": "0x3f3ac9b2fd28b8c46e1349a689e6b3359c1b67df7cf735b631f0fe0fafc360ab",
      "v": 28,
      "creates": null,
      "raw": "0xf86d81b0850e1ce3b46b8252089432be343b94f860124dc4fee278fdcbd38c102d8888455f0bd0249e5800801ca0079dc1f09a7f95aa7ec9dae8f80657552432b6aa79e5dd29e6617bdc7397b3d6a03f3ac9b2fd28b8c46e1349a689e6b3359c1b67df7cf735b631f0fe0fafc360ab",
      "networkId": 0,
      "chainId": 0
    }
  ]
}