{
  "hash": "0x43d6821956d81f1edcecd5bc3f0a145b78d710e6c920912bf0ed004fdf8c5924",
  "parentHash": "0xc02454bb265f847796045d37c0643bfb3176f90e681134995c6532683bf073ae",
  "number": 76300,
  "timestamp": 1439418163,
  "nonce": "0x4b65f0b288ff1688",
  "difficulty": 2223223110472,
  "gasLimit": {
    "_hex": "0x2fefd8"
  },
  "gasUsed": {
    "_hex": "0x7530"
  },
  "miner": "0xB5ebc1ED9a468C33fceC311Cf6AAb5d07774F0ea",
  "extraData": "0x",
  "transactions": [
    {
      "hash": "0x923d82df5a0d5f65cd5c4228cc94f0b26bd5acf8bc0c1c043cdb3bb2cdc7deb0",
      "blockHash": "0x43d6821956d81f1edcecd5bc3f0a145b78d710e6c920912bf0ed004fdf8c5924",
      "blockNumber": 76300,
      "transactionIndex": 0,
      "confirmations": null,
      "from": "0x84505745115a8C041C0c4A7F9d3Ca52a5bf375f4",
      "gasPrice": {
        "_hex": "0x1122f9e2dde"
      },
      "gasLimit": {
        "_hex": "0x7530"
      },
      "to": "0x35E57F2b08596f1946ECD9D31975eC3c2D7e1C1D",
      "value": {
        "_hex": "0x16345785d8a0000"
      },
      "nonce": 1,
      "data": "0xe2543d1c0000000000000000000000000000000000000000000000000000000000000028",
      "r": "0xa2f3f239568296c3cbe8ff6bf5ee093106905b76dd5261ce6aba7d46b0232823",
      "s": "0x27a79dbe57ab906a7e9802421b9510e3db2aabad1bedd3e532081d2de9a05f39",
      "v": 28,
      "creates": null,
      "raw": "0xf891018601122f9e2dde8275309435e57f2b08596f1946ecd9d31975ec3c2d7e1c1d88016345785d8a0000a4e2543d1c00000000000000000000000000000000000000000000000000000000000000281ca0a2f3f239568296c3cbe8ff6bf5ee093106905b76dd5261ce6aba7d46b0232823a027a79dbe57ab906a7e9802421b9510e3db2aabad1bedd3e532081d2de9a05f39",
      "networkId": 0,
      "chainId": 0
    }
  ]
}