{
  "hash": "0x01f4ff5acb3d212c2819c52d1f02ceb4989d7d20565886a9bd13f797175b18c2",
  "parentHash": "0x33ae405476d77db4733326dd12991ad0393ad8ee1d4a77c251d4b4dab4c99b10",
  "number": 75254,
  "timestamp": 1439400240,
  "nonce": "0x98edb2f8c587cebc",
  "difficulty": 2193307791509,
  "gasLimit": {
    "_hex": "0x2fefd8"
  },
  "gasUsed": {
    "_hex": "0x546c"
  },
  "miner": "0x6DE55b563cE6E319cCB403032Da3BE5Ad4ec4FcF",
  "extraData": "0x",
  "transactions": [
    {
      "hash": "0x8825bfc4676741aef46a44ff06d40d16c0c57acdde6fee65e041b95121de62dd",
      "blockHash": "0x01f4ff5acb3d212c2819c52d1f02ceb4989d7d20565886a9bd13f797175b18c2",
      "blockNumber": 75254,
      "transactionIndex": 0,
      "confirmations": null,
      "from": "0x293384C42b6F8F2905CE52b7205C2274376c612B",
      "gasPrice": {
        "_hex": "0x110c8f7d8de"
      },
      "gasLimit": {
        "_hex": "0xc350"
      },
      "to": "0x2910543Af39abA0Cd09dBb2D50200b3E800A63D2",
      "value": {
        "_hex": "0x257853b1dd8e0000"
      },
      "nonce": 2,
      "data": "0x454e474d544a303747",
      "r": "0x5bf9c12b9f88c4430cc34677e30835962da7ad0fc830e91af62585050c3d9c64",
      "s": "0x293799ad7c92279e3325b4e201f2c531e2491446b12176dde1304580e4e70cc7",
      "v": 27,
      "creates": null,
      "raw": "0xf87602860110c8f7d8de82c350942910543af39aba0cd09dbb2d50200b3e800a63d288257853b1dd8e000089454e474d544a3037471ba05bf9c12b9f88c4430cc34677e30835962da7ad0fc830e91af62585050c3d9c64a0293799ad7c92279e3325b4e201f2c531e2491446b12176dde1304580e4e70cc7",
      "networkId": 0,
      "chainId": 0
    }
  ]
}