{
  "hash": "0xcfba60d7d231245b5aea45e4e230eeadc83bdd943e7c9993fee358f1297eabec",
  "parentHash": "0xbb2d86cf13aa6310758f9e865f5cfee3f89fc78a90a3e96a7a8ba28f11c165d2",
  "number": 55097,
  "timestamp": 1439065331,
  "nonce": "0xf8f898253a788f32",
  "difficulty": 1633051594794,
  "gasLimit": {
    "_hex": "0x2fefd8"
  },
  "gasUsed": {
    "_hex": "0xa410"
  },
  "miner": "0xe2c324Df4bFa311cf2055DD11476a1eC8aD9B725",
  "extraData": "0x",
  "transactions": [
    {
      "hash": "0x873796b590ce88956aed58ece4008f6d44d3c23b31ffe48c320d1619dad708c1",
      "blockHash": "0xcfba60d7d231245b5aea45e4e230eeadc83bdd943e7c9993fee358f1297eabec",
      "blockNumber": 55097,
      "transactionIndex": 0,
      "confirmations": null,
      "from": "0xE4FC13CFCbAc1B17Ce7783aCD423a845943F6b3A",
      "gasPrice": {
        "_hex": "0xd625abd7d"
      },
      "gasLimit": {
        "_hex": "0x15f90"
      },
      "to": "0x71Fe0c3ce24D9eD33E2219f515E485B142ED66fC",
      "value": {
        "_hex": "0xf7064db109f40000"
      },
      "nonce": 1,
      "data": "0x",
      "r": "0x44047a0a42acbdbc99ae0880afeae41d438199a8000cdc55c2088460febbbdbc",
      "s": "0x50ad2c7fe410dcd06631ebafe2ccc2463f13db75075c1e9f35da79146becdb24",
      "v": 27,
      "creates": null,
      "raw": "0xf86d01850d625abd7d83015f909471fe0c3ce24d9ed33e2219f515e485b142ed66fc88f7064db109f40000801ba044047a0a42acbdbc99ae0880afeae41d438199a8000cdc55c2088460febbbdbca050ad2c7fe410dcd06631ebafe2ccc2463f13db75075c1e9f35da79146becdb24",
      "networkId": 0,
      "chainId": 0
    },
    {
      "hash": "0x3e2a24521a6dd8408045b99f577b3a037af9bce21b75293361839cfc0f940fac",
      "blockHash": "0xcfba60d7d231245b5aea45e4e230eeadc83bdd943e7c9993fee358f1297eabec",
      "blockNumber": 55097,
      "transactionIndex": 1,
      "confirmations": null,
      "from": "0xabC74706964960Dfe0dca3dca79E9216056f1Cf4",
      "gasPrice": {
        "_hex": "0xcd01555c5"
      },
      "gasLimit": {
        "_hex": "0x15f90"
      },
      "to": "0x0ae3F81a67725a8A7758FeB8684c6c17dA20755D",
      "value": {
        "_hex": "0x3635c9adc5dea00000"
      },
      "nonce": 0,
      "data": "0x",
      "r": "0x132b8b39ce108da0544c7380544c30a25133671e6d957d805d7455c13bfd9031",
      "s": "0x12262e0ae9910ba247fb225cd8e2d6403ffe16b449644cbb97f3c3e1709cffcb",
      "v": 27,
      "creates": null,
      "raw": "0xf86e80850cd01555c583015f90940ae3f81a67725a8a7758feb8684c6c17da20755d893635c9adc5dea00000801ba0132b8b39ce108da0544c7380544c30a25133671e6d957d805d7455c13bfd9031a012262e0ae9910ba247fb225cd8e2d6403ffe16b449644cbb97f3c3e1709cffcb",
      "networkId": 0,
      "chainId": 0
    }
  ]
}