{
  "hash": "0x2bd7f910ba9be84248dae6f2f4b0b8a81f23e97d58410e502b6cbeebdff8c745",
  "parentHash": "0x38a352066460f1d4b970d6b39c7001fcb7c687ae2c8f4fea7dcb3a9094431936",
  "number": 58909,
  "timestamp": 1439128769,
  "nonce": "0xd8589ec5d12a8852",
  "difficulty": 1707308000394,
  "gasLimit": {
    "_hex": "0x2fefd8"
  },
  "gasUsed": {
    "_hex": "0x5208"
  },
  "miner": "0x47ff6576639c2e94762eA5443978D7681C0E78DC",
  "extraData": "0x476574682f76312e302e312f6c696e75782f676f312e342e32",
  "transactions": [
    {
      "hash": "0x75860ca6bf1413970dd8aa406fae6a0bc10c51a937a76fea0b567ea9e5f335e2",
      "blockHash": "0x2bd7f910ba9be84248dae6f2f4b0b8a81f23e97d58410e502b6cbeebdff8c745",
      "blockNumber": 58909,
      "transactionIndex": 0,
      "confirmations": null,
      "from": "0x910a4aADabb3A7B3F7879118332E13Da66b68D77",
      "gasPrice": {
        "_hex": "0xdda1da2f7"
      },
      "gasLimit": {
        "_hex": "0x5208"
      },
      "to": "0x32Be343B94f860124dC4fEe278FDCBD38C102D88",
      "value": {
        "_hex": "0x176aec8259ca36000"
      },
      "nonce": 5,
      "data": "0x",
      "r": "0xa5749f425a930c1ea8537cf668a3f70d71b89a55ad3b3d900361eee3e6bf2b92",
      "s": "0x0a0d942ebdb08527fe73a0242e84f4a1870d3570af04b9bb6ec51183da383f3a",
      "v": 27,
      "creates": null,
      "raw": "0xf86d05850dda1da2f78252089432be343b94f860124dc4fee278fdcbd38c102d88890176aec8259ca36000801ba0a5749f425a930c1ea8537cf668a3f70d71b89a55ad3b3d900361eee3e6bf2b92a00a0d942ebdb08527fe73a0242e84f4a1870d3570af04b9bb6ec51183da383f3a",
      "networkId": 0,
      "chainId": 0
    }
  ]
}