{
  "hash": "0x5ea49bf982d96246ba47e76218ea3050268af6532ae123881b4e3097f2659105",
  "parentHash": "0x2f2ff21c7261f7a124331fe0b7cf12d896ac2ae088be1dda5ee8f5fcaf19077c",
  "number": 85996,
  "timestamp": 1439571985,
  "nonce": "0xe9759993dc96ca9d",
  "difficulty": 2793497365268,
  "gasLimit": {
    "_hex": "0x2fefd8"
  },
  "gasUsed": {
    "_hex": "0x5208"
  },
  "miner": "0xe6A7a1d47ff21B6321162AEA7C6CB457D5476Bca",
  "extraData": "0x476574682f76312e302e312d38326566323666362f6c696e75782f676f312e34",
  "transactions": [
    {
      "hash": "0x3e953e509f7578ad9ba4de4b3aa9491b827943756caa214c475df5c67f9d779b",
      "blockHash": "0x5ea49bf982d96246ba47e76218ea3050268af6532ae123881b4e3097f2659105",
      "blockNumber": 85996,
      "transactionIndex": 0,
      "confirmations": null,
      "from": "0xC7C3C1e14c528F3C4976b727Bf9706c569fEacd3",
      "gasPrice": {
        "_hex": "0xd641f460d"
      },
      "gasLimit": {
        "_hex": "0x15f90"
      },
      "to": "0x3bEe0Da03BcEe401533d73bcAa8391E65B42d83a",
      "value": {
        "_hex": "0xde0b6b3a7640000"
      },
      "nonce": 0,
      "data": "0x",
      "r": "0x7db518e32344d5bb4d9d498a8fa4c0c614e831adacffe2d698ca300d5ab6c8c3",
      "s": "0x6b4655ac1d4d298bb70ad801c7950ef15971cbbee8e1281c0ee9ea77f00cd759",
      "v": 27,
      "creates": null,
      "raw": "0xf86d80850d641f460d83015f90943bee0da03bcee401533d73bcaa8391e65b42d83a880de0b6b3a7640000801ba07db518e32344d5bb4d9d498a8fa4c0c614e831adacffe2d698ca300d5ab6c8c3a06b4655ac1d4d298bb70ad801c7950ef15971cbbee8e1281c0ee9ea77f00cd759",
      "networkId": 0,
      "chainId": 0
    }
  ]
}