{
  "hash": "0xfe5d41f8c06e8f9d793e8a4faf06a8a24fcf1daaaf02c284b1cfc9c0180307d4",
  "parentHash": "0x8dac0a81fdeaa688c01d62f8ef5dd568f4a97b09a6f1ec850e891821ded6509c",
  "number": 100174,
  "timestamp": 1439802100,
  "nonce": "0xdd861406ef5c6a51",
  "difficulty": 3834210694917,
  "gasLimit": {
    "_hex": "0x2fefd8"
  },
  "gasUsed": {
    "_hex": "0x5208"
  },
  "miner": "0x35e8e5dC5FBd97c5b421A80B596C030a2Be2A04D",
  "extraData": "0x476574682f76312e302e312f6c696e75782f676f312e342e32",
  "transactions": [
    {
      "hash": "0x0fd80a17b0a9298f283d3b9453a17ed3bd8e577d9fee910dc933d439b509bfde",
      "blockHash": "0xfe5d41f8c06e8f9d793e8a4faf06a8a24fcf1daaaf02c284b1cfc9c0180307d4",
      "blockNumber": 100174,
      "transactionIndex": 0,
      "confirmations": null,
      "from": "0xf79785E5a846aCea08F94379fCCe79B1054bDB99",
      "gasPrice": {
        "_hex": "0xd1b7a3f3a"
      },
      "gasLimit": {
        "_hex": "0x5208"
      },
      "to": "0x32Be343B94f860124dC4fEe278FDCBD38C102D88",
      "value": {
        "_hex": "0x15bbfac3f65966000"
      },
      "nonce": 12,
      "data": "0x",
      "r": "0x87e2b1192595c99ee403f9e2fad670b6bc5c4a0c178ceeab33234640560d1b89",
      "s": "0x4f72edc398d515b5aa8bf608f9ba997f7a45d8e0d165c26cb93c548ded4220e2",
      "v": 28,
      "creates": null,
      "raw": "0xf86d0c850d1b7a3f3a8252089432be343b94f860124dc4fee278fdcbd38c102d8889015bbfac3f65966000801ca087e2b1192595c99ee403f9e2fad670b6bc5c4a0c178ceeab33234640560d1b89a04f72edc398d515b5aa8bf608f9ba997f7a45d8e0d165c26cb93c548ded4220e2",
      "networkId": 0,
      "chainId": 0
    }
  ]
}