{
  "hash": "0x128883994f96a8a8717d01490cb725aae1bb327e921d74516d0e8627a669d992",
  "parentHash": "0xa535f6f4ab7cc474494c807838b4c28fa1f3fe6967a2a02e7bd71c627325eadb",
  "number": 113131,
  "timestamp": 1440018393,
  "nonce": "0x8ce3d6afc3787111",
  "difficulty": 4482289023771,
  "gasLimit": {
    "_hex": "0x2fefd5"
  },
  "gasUsed": {
    "_hex": "0xa674"
  },
  "miner": "0xe6A7a1d47ff21B6321162AEA7C6CB457D5476Bca",
  "extraData": "0x476574682f76312e302e312d38326566323666362f6c696e75782f676f312e34",
  "transactions": [
    {
      "hash": "0x9cd5b2235c300bd147a66acf270391c335cb85a1995df0a1e764c11095d95e54",
      "blockHash": "0x128883994f96a8a8717d01490cb725aae1bb327e921d74516d0e8627a669d992",
      "blockNumber": 113131,
      "transactionIndex": 0,
      "confirmations": null,
      "from": "0x35e8e5dC5FBd97c5b421A80B596C030a2Be2A04D",
      "gasPrice": {
        "_hex": "0xd05e9918d"
      },
      "gasLimit": {
        "_hex": "0x55f0"
      },
      "to": "0x8751DfA908C45A8aEf041FbeE9C17f9fE57Cc449",
      "value": {
        "_hex": "0x5e8adca7e45940000"
      },
      "nonce": 5,
      "data": "0x",
      "r": "0xd6b83f7310a827e87ad17ab1f9adefebc844ca063a5322525ad053198d5b5cf1",
      "s": "0x6a796f01d1beeb3a4cb55e7d8be10ba80c3633e1991e37011b6f87af1b56a694",
      "v": 28,
      "creates": null,
      "raw": "0xf86d05850d05e9918d8255f0948751dfa908c45a8aef041fbee9c17f9fe57cc4498905e8adca7e45940000801ca0d6b83f7310a827e87ad17ab1f9adefebc844ca063a5322525ad053198d5b5cf1a06a796f01d1beeb3a4cb55e7d8be10ba80c3633e1991e37011b6f87af1b56a694",
      "networkId": 0,
      "chainId": 0
    },
    {
      "hash": "0x681d21b28ff1503c48fa6d1062f1946477469ba0c129ad74b9c86ecc690bfef5",
      "blockHash": "0x128883994f96a8a8717d01490cb725aae1bb327e921d74516d0e8627a669d992",
      "blockNumber": 113131,
      "transactionIndex": 1,
      "confirmations": null,
      "from": "0x76d4a9bc9612bE738A81d0fE632b00B971E2bB9a",
      "gasPrice": {
        "_hex": "0xba43b7400"
      },
      "gasLimit": {
        "_hex": "0x55f0"
      },
      "to": "0x2910543Af39abA0Cd09dBb2D50200b3E800A63D2",
      "value": {
        "_hex": "0x2fb474098f67c0000"
      },
      "nonce": 13,
      "data": "0x454e5a324343504238",
      "r": "0x45fca40db6381253a9c1c9fc52858be2abfa748e74440c13242c077364a5fb33",
      "s": "0x2276f2520ebfaf1cba94713251a7cb4a2d273561f76ccb80a605d2bbcfbbb287",
      "v": 27,
      "creates": null,
      "raw": "0xf8760d850ba43b74008255f0942910543af39aba0cd09dbb2d50200b3e800a63d28902fb474098f67c000089454e5a3243435042381ba045fca40db6381253a9c1c9fc52858be2abfa748e74440c13242c077364a5fb33a02276f2520ebfaf1cba94713251a7cb4a2d273561f76ccb80a605d2bbcfbbb287",
      "networkId": 0,
      "chainId": 0
    }
  ]
}