{
  "hash": "0x91936d1103608c56ce6fdf117fefe1f42db84c51988b469008e22860000a005c",
  "parentHash": "0xb1c13baf886b5462f77cbd9add569917336f91829ab900f7393b9fb4e93a9b51",
  "number": 51621,
  "timestamp": 1439008006,
  "nonce": "0xc4cf69979460d798",
  "difficulty": 1560437669041,
  "gasLimit": {
    "_hex": "0xc6558"
  },
  "gasUsed": {
    "_hex": "0x7a120"
  },
  "miner": "0x01434e4Ac3238bEC44a39ad642aBaBBB68D097e6",
  "extraData": "0x476574682f76312e302e302f77696e646f77732f676f312e342e32",
  "transactions": [
    {
      "hash": "0xa69d1b065cc34c73a361f9deac14d8dc11a3e4337fa4a2096d0ad33b30e8806f",
      "blockHash": "0x91936d1103608c56ce6fdf117fefe1f42db84c51988b469008e22860000a005c",
      "blockNumber": 51621,
      "transactionIndex": 0,
      "confirmations": null,
      "from": "0xCbbdAd70d0ff27254925AD37B5C135EEe1116615",
      "gasPrice": {
        "_hex": "0xd8364fc25"
      },
      "gasLimit": {
        "_hex": "0x7a120"
      },
      "to": "0x109C4f2CCc82C4d77Bde15F306707320294Aea3F",
      "value": {
        "_hex": "0xde0b6b3a7640000"
      },
      "nonce": 0,
      "data": "0x",
      "r": "0x88358f0e950890d2bbe435426386d82a24dc2cbb8e383ef89f8f866357b9134d",
      "s": "0x1ce0223fe30478fd92ad38ae1835aed2c6856ee93379f8a3476c81ebe74f5c4e",
      "v": 28,
      "creates": null,
      "raw": "0xf86d80850d8364fc258307a12094109c4f2ccc82c4d77bde15f306707320294aea3f880de0b6b3a7640000801ca088358f0e950890d2bbe435426386d82a24dc2cbb8e383ef89f8f866357b9134da01ce0223fe30478fd92ad38ae1835aed2c6856ee93379f8a3476c81ebe74f5c4e",
      "networkId": 0,
      "chainId": 0
    }
  ]
}