{
  "hash": "0x8d5334eb961a8b120b11d2cc2508bf521870ecff6b06c3587adcd62e99767ef3",
  "parentHash": "0xae996a92cec7c9c6593bd3569374c49ecd3106eae157b63c4cf8f1a7286b7f2b",
  "number": 52360,
  "timestamp": 1439020315,
  "nonce": "0xa6c77bbce6e97610",
  "difficulty": 1562587478319,
  "gasLimit": {
    "_hex": "0x12f502"
  },
  "gasUsed": {
    "_hex": "0x5208"
  },
  "miner": "0x4F85e43F44D2B0e6f57C9355806cE3e1B3F40Ab8",
  "extraData": "0x476574682f76312e302e312f6c696e75782f676f312e342e32",
  "transactions": [
    {
      "hash": "0x735969f3e670eb34d4a7fad5c5fe160003b06bdbc468624b77f15593002eb56d",
      "blockHash": "0x8d5334eb961a8b120b11d2cc2508bf521870ecff6b06c3587adcd62e99767ef3",
      "blockNumber": 52360,
      "transactionIndex": 0,
      "confirmations": null,
      "from": "0xc126573d87b0175a5295f1DD07c575CF8cFA15F2",
      "gasPrice": {
        "_hex": "0xba43b7400"
      },
      "gasLimit": {
        "_hex": "0x5208"
      },
      "to": "0xd12e0ECc7D872f9075690D7599324656456bDB39",
      "value": {
        "_hex": "0x8ac7230489e80000"
      },
      "nonce": 0,
      "data": "0x",
      "r": "0xb85ef3b965269a4d959c6221f0342c9a9d87027d50be80f4eb2d9fbe1d0fda30",
      "s": "0x036710b6d316b4f12a6659195b7ca482cde5a2fbcb9cd30b52e796540b0c45e0",
      "v": 28,
      "creates": null,
      "raw": "0xf86c80850ba43b740082520894d12e0ecc7d872f9075690d7599324656456bdb39888ac7230489e80000801ca0b85ef3b965269a4d959c6221f0342c9a9d87027d50be80f4eb2d9fbe1d0fda30a0036710b6d316b4f12a6659195b7ca482cde5a2fbcb9cd30b52e796540b0c45e0",
      "networkId": 0,
      "chainId": 0
    }
  ]
}