{
  "hash": "0x2be7bf211113c8431ebace839dd049de72110baa6218436f8cc142ae30b62cd4",
  "parentHash": "0xf27fe26f4b822aff69174a6302c010a8e65fdab2e15e2e8e0e3a4ab6cef2ff37",
  "number": 56649,
  "timestamp": 1439090417,
  "nonce": "0xce3dd48960a6fcd1",
  "difficulty": 1681291541996,
  "gasLimit": {
    "_hex": "0x2fefd8"
  },
  "gasUsed": {
    "_hex": "0x5208"
  },
  "miner": "0x5F8F73E26CdF436f19Cb24C82F90A15AFe55b592",
  "extraData": "0x476574682f76312e302e312f77696e646f77732f676f312e342e32",
  "transactions": [
    {
      "hash": "0x3b97f43a2e2a09e787399da5ccc83b7f7b223b3b1129d69e7e28cd38ffb6a9fa",
      "blockHash": "0x2be7bf211113c8431ebace839dd049de72110baa6218436f8cc142ae30b62cd4",
      "blockNumber": 56649,
      "transactionIndex": 0,
      "confirmations": null,
      "from": "0xaca1E6BC64cC3180F620E94dC5B1Bcfd8158e45D",
      "gasPrice": {
        "_hex": "0xda50f488a"
      },
      "gasLimit": {
        "_hex": "0x15f90"
      },
      "to": "0x40d8646B152DBb1eBFf414Ab9f26b94d1858458c",
      "value": {
        "_hex": "0xc215fefd0b92754"
      },
      "nonce": 5,
      "data": "0x",
      "r": "0xd1c309d9c0c9b7271f4b6ed3e0cf3f7c4a9e3a7d6e3d00fe5c18171208560011",
      "s": "0x0ada1632f1f884e15b25d7942974b04f588df5d952ee40a4c5ec6d078831ca3e",
      "v": 28,
      "creates": null,
      "raw": "0xf86d05850da50f488a83015f909440d8646b152dbb1ebff414ab9f26b94d1858458c880c215fefd0b92754801ca0d1c309d9c0c9b7271f4b6ed3e0cf3f7c4a9e3a7d6e3d00fe5c18171208560011a00ada1632f1f884e15b25d7942974b04f588df5d952ee40a4c5ec6d078831ca3e",
      "networkId": 0,
      "chainId": 0
    }
  ]
}