{
  "hash": "0x76531e6e4cd20cca794ee2d2c5e0f26be18ed7f004b983dc23230c57836f7418",
  "parentHash": "0x3a10998bf6fabb5937d533b443d2f56aee8dc570d8d7c7ab31fafb0488eaf626",
  "number": 46279,
  "timestamp": 1438920429,
  "nonce": "0xe8fb00cf3c719f38",
  "difficulty": 1465397574551,
  "gasLimit": {
    "_hex": "0x5802"
  },
  "gasUsed": {
    "_hex": "0x5208"
  },
  "miner": "0xe6A7a1d47ff21B6321162AEA7C6CB457D5476Bca",
  "extraData": "0x657468706f6f6c2e6f7267",
  "transactions": [
    {
      "hash": "0xcf9f3fdb64623a3a134148df946b97f51ee3a9102953133811f4b77cbfea9be1",
      "blockHash": "0x76531e6e4cd20cca794ee2d2c5e0f26be18ed7f004b983dc23230c57836f7418",
      "blockNumber": 46279,
      "transactionIndex": 0,
      "confirmations": null,
      "from": "0x03B35D960c861Fe987C50380d76db9D6Ae1fa510",
      "gasPrice": {
        "_hex": "0x2cd6ccd775"
      },
      "gasLimit": {
        "_hex": "0x5208"
      },
      "to": "0xB83b76f35cF6b2149B34Ee092B3Fc93b7Bb54A8D",
      "value": {
        "_hex": "0xde0b6b3a7640000"
      },
      "nonce": 2,
      "data": "0x",
      "r": "0xb0126a03fc00b8cb7241163c6b3268e9ffb5d7626e958212e320fac534748608",
      "s": "0x081f8f7b663c6c89f3120f7932034f9ff4fa7565c93699bbaf522bd2133576b9",
      "v": 28,
      "creates": null,
      "raw": "0xf86c02852cd6ccd77582520894b83b76f35cf6b2149b34ee092b3fc93b7bb54a8d880de0b6b3a7640000801ca0b0126a03fc00b8cb7241163c6b3268e9ffb5d7626e958212e320fac534748608a0081f8f7b663c6c89f3120f7932034f9ff4fa7565c93699bbaf522bd2133576b9",
      "networkId": 0,
      "chainId": 0
    }
  ]
}