{
  "hash": "0x50b949380989ef4de5f798d6532c6c7c212558d5f0f00535fe9fd35874edfb09",
  "parentHash": "0x1182c81e866346411114aea2c0eb5401ac879cb3fd665d8f6c12380739587ac5",
  "number": 73281,
  "timestamp": 1439366485,
  "nonce": "0xaeef870073948087",
  "difficulty": 2205638653028,
  "gasLimit": {
    "_hex": "0x2fefd8"
  },
  "gasUsed": {
    "_hex": "0x5208"
  },
  "miner": "0xe6A7a1d47ff21B6321162AEA7C6CB457D5476Bca",
  "extraData": "0x476574682f76312e302e312d38326566323666362f6c696e75782f676f312e34",
  "transactions": [
    {
      "hash": "0xea2c4a858a52bbc3a0329ad2ba37b2e1ac4c179887ba8d9fd05c42794ad4ebcd",
      "blockHash": "0x50b949380989ef4de5f798d6532c6c7c212558d5f0f00535fe9fd35874edfb09",
      "blockNumber": 73281,
      "transactionIndex": 0,
      "confirmations": null,
      "from": "0x9E5871FB2fe165484413293aa230D2774E888865",
      "gasPrice": {
        "_hex": "0xdba833774"
      },
      "gasLimit": {
        "_hex": "0x5208"
      },
      "to": "0x32Be343B94f860124dC4fEe278FDCBD38C102D88",
      "value": {
        "_hex": "0x8ac2bcd8528f4000"
      },
      "nonce": 0,
      "data": "0x",
      "r": "0xf80120fc51e87f7ebc3ca9f76b8a53d4d380e27b3c46a862395349065a0ffcc7",
      "s": "0x16933da66d5daa24a234d2ffc8653e2638f73acd9cd406a11f22357417d46b32",
      "v": 27,
      "creates": null,
      "raw": "0xf86c80850dba8337748252089432be343b94f860124dc4fee278fdcbd38c102d88888ac2bcd8528f4000801ba0f80120fc51e87f7ebc3ca9f76b8a53d4d380e27b3c46a862395349065a0ffcc7a016933da66d5daa24a234d2ffc8653e2638f73acd9cd406a11f22357417d46b32",
      "networkId": 0,
      "chainId": 0
    }
  ]
}