{
  "hash": "0xa6660d82b4aa682c59f937a9823eade4f9c82394a4ea5b0c438a5288df53fc46",
  "parentHash": "0xbe0e60f907ba893ce5506664b930d2716329745fa3b6c74a878c64f1709f025e",
  "number": 79082,
  "timestamp": 1439464101,
  "nonce": "0x6c789f958b239259",
  "difficulty": 2317800197333,
  "gasLimit": {
    "_hex": "0x2fefd8"
  },
  "gasUsed": {
    "_hex": "0xa410"
  },
  "miner": "0xeB1325C8D9d3ea8D74aC11F4B00F1B2367686319",
  "extraData": "0x476574682f76312e302e312f77696e646f77732f676f312e342e32",
  "transactions": [
    {
      "hash": "0x1d104f35622a56f2e5f23cc82a68a56e10dcb3aafefd204347478902e1baf0ab",
      "blockHash": "0xa6660d82b4aa682c59f937a9823eade4f9c82394a4ea5b0c438a5288df53fc46",
      "blockNumber": 79082,
      "transactionIndex": 0,
      "confirmations": null,
      "from": "0xe6A7a1d47ff21B6321162AEA7C6CB457D5476Bca",
      "gasPrice": {
        "_hex": "0xd1769ae3d"
      },
      "gasLimit": {
        "_hex": "0x55f0"
      },
      "to": "0x07B4875Db0388E150D1D95Dd975E458f1eC2a210",
      "value": {
        "_hex": "0x13d9d6587dad19e0"
      },
      "nonce": 1045,
      "data": "0x",
      "r": "0x81e192e3eef73a7c8e75bc4bbbb4f939ad875c6e033f3c893ef03dfce2c0e3e4",
      "s": "0x4ffd7c23e71f7afd3ba3b89908d05207ac6288d1456b25c5f827f915322ba845",
      "v": 27,
      "creates": null,
      "raw": "0xf86e820415850d1769ae3d8255f09407b4875db0388e150d1d95dd975e458f1ec2a2108813d9d6587dad19e0801ba081e192e3eef73a7c8e75bc4bbbb4f939ad875c6e033f3c893ef03dfce2c0e3e4a04ffd7c23e71f7afd3ba3b89908d05207ac6288d1456b25c5f827f915322ba845",
      "networkId": 0,
      "chainId": 0
    },
    {
      "hash": "0xc1da951b14cc9b52665564d64e73d36709168965d8d5e408e5ef0b2f04a3961b",
      "blockHash": "0xa6660d82b4aa682c59f937a9823eade4f9c82394a4ea5b0c438a5288df53fc46",
      "blockNumber": 79082,
      "transactionIndex": 1,
      "confirmations": null,
      "from": "0xe6A7a1d47ff21B6321162AEA7C6CB457D5476Bca",
      "gasPrice": {
        "_hex": "0xd1769ae3d"
      },
      "gasLimit": {
        "_hex": "0x55f0"
      },
      "to": "0x2Ad6b4c0f491c0f58f2f7F223F7f55596c125936",
      "value": {
        "_hex": "0x13de195fed3692fc"
      },
      "nonce": 1046,
      "data": "0x",
      "r": "0x66e2e62b38a55de8f736180ed5e01e86c05ace7e1fa79f222c151c95eaad15ed",
      "s": "0x791cadecf0cb260b12697871b4ef2e4463b5ab725838604d4a9edff678902e79",
      "v": 28,
      "creates": null,
      "raw": "0xf86e820416850d1769ae3d8255f0942ad6b4c0f491c0f58f2f7f223f7f55596c1259368813de195fed3692fc801ca066e2e62b38a55de8f736180ed5e01e86c05ace7e1fa79f222c151c95eaad15eda0791cadecf0cb260b12697871b4ef2e4463b5ab725838604d4a9edff678902e79",
      "networkId": 0,
      "chainId": 0
    }
  ]
}