{
  "hash": "0x3e223016fe7c911c3d9c5a4e2346bfe1fb6ef448ba5462ff6997644b7332e6e8",
  "parentHash": "0x8e18f1fa9f8ee5a96fe78057af4e0c752c8ae3ca3cde63d47f8926170444f968",
  "number": 55510,
  "timestamp": 1439071885,
  "nonce": "0x810d2e7d9758e96e",
  "difficulty": 1625810797331,
  "gasLimit": {
    "_hex": "0x2fe3fc"
  },
  "gasUsed": {
    "_hex": "0x5208"
  },
  "miner": "0x70C6b45fe0A5116E97B112B806A76E2F51E24413",
  "extraData": "0x476574682f76312e302e302f77696e646f77732f676f312e342e32",
  "transactions": [
    {
      "hash": "0x47d24c04f6842881379606ebc6a0dde93b4384b17fadc01d3084a2b03e8a30b9",
      "blockHash": "0x3e223016fe7c911c3d9c5a4e2346bfe1fb6ef448ba5462ff6997644b7332e6e8",
      "blockNumber": 55510,
      "transactionIndex": 0,
      "confirmations": null,
      "from": "0x26eAB902725342208bC79c5Bfa2C5fE795f7aeD6",
      "gasPrice": {
        "_hex": "0x10193b94221"
      },
      "gasLimit": {
        "_hex": "0x15f90"
      },
      "to": "0x06B0A142c49df51771F80A73C237BF6bd5C93bd1",
      "value": {
        "_hex": "0xde0b6b3a7640000"
      },
      "nonce": 0,
      "data": "0x",
      "r": "0x96f2830dfc262b0c9bc7d6ea8e070814d67a5029b047fbab8510f82aa5b150aa",
      "s": "0x46af2465c65516dd3a3905e3405d1400a10f8f46ae24ce312f9ef47d239b10f5",
      "v": 27,
      "creates": null,
      "raw": "0xf86e8086010193b9422183015f909406b0a142c49df51771f80a73c237bf6bd5c93bd1880de0b6b3a7640000801ba096f2830dfc262b0c9bc7d6ea8e070814d67a5029b047fbab8510f82aa5b150aaa046af2465c65516dd3a3905e3405d1400a10f8f46ae24ce312f9ef47d239b10f5",
      "networkId": 0,
      "chainId": 0
    }
  ]
}