{
  "hash": "0x41378944b6ac05c864dd8e89aa86ea300804c7c46b051ca5f3c21436febb6549",
  "parentHash": "0xc903780ae1c5abdb980d89136c03febba578a8d873e4cfbcd646fe129ab4809f",
  "number": 67122,
  "timestamp": 1439266303,
  "nonce": "0xb059120f2ec343fe",
  "difficulty": 1926145462261,
  "gasLimit": {
    "_hex": "0x2fefd8"
  },
  "gasUsed": {
    "_hex": "0x5208"
  },
  "miner": "0x6541237dAaFf6688A79f9F2F370Ca0E7Ee20BD33",
  "extraData": "0x476574682f76312e302e312f77696e646f77732f676f312e342e32",
  "transactions": [
    {
      "hash": "0x5750a742020931e607adb3fc18c84fbeb656dcf69a13e24d5b92ef53134814d8",
      "blockHash": "0x41378944b6ac05c864dd8e89aa86ea300804c7c46b051ca5f3c21436febb6549",
      "blockNumber": 67122,
      "transactionIndex": 0,
      "confirmations": null,
      "from": "0x32Be343B94f860124dC4fEe278FDCBD38C102D88",
      "gasPrice": {
        "_hex": "0xcff83726d"
      },
      "gasLimit": {
        "_hex": "0x5208"
      },
      "to": "0x120A270bbC009644e35F0bB6ab13f95b8199c4ad",
      "value": {
        "_hex": "0x878678326eac900000"
      },
      "nonce": 207,
      "data": "0x",
      "r": "0x660df9d86fd7666a5587b90fb6df5e290c0cf08b1e9d0e49a3ee3b065adeb17a",
      "s": "0x419facf5fd61ecae2f22687a74b8d8c235b449181c7ec3ae815a4abbceb2e3a1",
      "v": 28,
      "creates": null,
      "raw": "0xf86e81cf850cff83726d82520894120a270bbc009644e35f0bb6ab13f95b8199c4ad89878678326eac900000801ca0660df9d86fd7666a5587b90fb6df5e290c0cf08b1e9d0e49a3ee3b065adeb17aa0419facf5fd61ecae2f22687a74b8d8c235b449181c7ec3ae815a4abbceb2e3a1",
      "networkId": 0,
      "chainId": 0
    }
  ]
}