{
  "hash": "0x6498a09a4783cedc8331f043e3aa19efe08f3aabf758405f48b5527c239c67e3",
  "parentHash": "0xd23ca1c2f6200e4ae4d9f10e16dc38e75b26e99aea08527316fa4ab9c0fee155",
  "number": 65257,
  "timestamp": 1439233911,
  "nonce": "0xf648ee1900598037",
  "difficulty": 1938841865372,
  "gasLimit": {
    "_hex": "0x2fefd8"
  },
  "gasUsed": {
    "_hex": "0xa410"
  },
  "miner": "0xE4BA8cF48d11D4cd54fba46C5331b5477DbF5539",
  "extraData": "0x476574682f76312e302e312f77696e646f77732f676f312e342e32",
  "transactions": [
    {
      "hash": "0x988cc446cf9e4e97f2f832713d0b96f9b544774d24aaaed7ea5c7e8bfda96324",
      "blockHash": "0x6498a09a4783cedc8331f043e3aa19efe08f3aabf758405f48b5527c239c67e3",
      "blockNumber": 65257,
      "transactionIndex": 0,
      "confirmations": null,
      "from": "0x14B01fe46D16D9283a84B92df2385bdC8f6F7475",
      "gasPrice": {
        "_hex": "0xba43b7400"
      },
      "gasLimit": {
        "_hex": "0x5208"
      },
      "to": "0x84Add079ba323bC47e5179E208D6dfE6FA054e76",
      "value": {
        "_hex": "0x7a03384cc91b000"
      },
      "nonce": 1,
      "data": "0x",
      "r": "0x182b4734a0b6123f3704803f4341989b5b816a8d1b22db0a781b2583907060fa",
      "s": "0x2a6065cdf1701ac64b9b8a6eae91f863b634eb8592bd74e6aab307043b47609e",
      "v": 27,
      "creates": null,
      "raw": "0xf86c01850ba43b74008252089484add079ba323bc47e5179e208d6dfe6fa054e768807a03384cc91b000801ba0182b4734a0b6123f3704803f4341989b5b816a8d1b22db0a781b2583907060faa02a6065cdf1701ac64b9b8a6eae91f863b634eb8592bd74e6aab307043b47609e",
      "networkId": 0,
      "chainId": 0
    },
    {
      "hash": "0xedc352c071af8c0503bb8399a83a4088b386d8d588a434088137baf8fd1deaf4",
      "blockHash": "0x6498a09a4783cedc8331f043e3aa19efe08f3aabf758405f48b5527c239c67e3",
      "blockNumber": 65257,
      "transactionIndex": 1,
      "confirmations": null,
      "from": "0xAe3749943D7BE4CF3d5D0BAAb0ec7259322d093B",
      "gasPrice": {
        "_hex": "0xba43b7400"
      },
      "gasLimit": {
        "_hex": "0x5208"
      },
      "to": "0x0250B7Eda2902FB4102b9a2B8Af659A15Fd6d0EE",
      "value": {
        "_hex": "0x72c83a48cbf8000"
      },
      "nonce": 1,
      "data": "0x",
      "r": "0x3da8c7670c668d31735c43639c2226f4fd16fceb03f3e646f8f0c2505dae2176",
      "s": "0x3358ec4b14a690a2a7cc5b60ec7876eca52c2ba4010ce009bbee560c677d3e1e",
      "v": 27,
      "creates": null,
      "raw": "0xf86c01850ba43b7400825208940250b7eda2902fb4102b9a2b8af659a15fd6d0ee88072c83a48cbf8000801ba03da8c7670c668d31735c43639c2226f4fd16fceb03f3e646f8f0c2505dae2176a03358ec4b14a690a2a7cc5b60ec7876eca52c2ba4010ce009bbee560c677d3e1e",
      "networkId": 0,
      "chainId": 0
    }
  ]
}