{
  "hash": "0xfd9b4b105709b2921802395c61dc3d5614c62a3c07843f6042a8d2d23128a8ca",
  "parentHash": "0x851cc4297d0d473df40476ace90eb05c970f7a4be4c663be3c2ce35318667dc9",
  "number": 82067,
  "timestamp": 1439512911,
  "nonce": "0xa06812a4ad50c510",
  "difficulty": 2396367655920,
  "gasLimit": {
    "_hex": "0x2fefd8"
  },
  "gasUsed": {
    "_hex": "0x1908f"
  },
  "miner": "0xf8E0CA3Ed80bd541b94BEdCf259e8CF2141A9523",
  "extraData": "0x476574682f76312e302e312f77696e646f77732f676f312e342e32",
  "transactions": [
    {
      "hash": "0x638ed5db5dc6b55a909ac579e09d69123c613e0182801e568918bc09cffa1025",
      "blockHash": "0xfd9b4b105709b2921802395c61dc3d5614c62a3c07843f6042a8d2d23128a8ca",
      "blockNumber": 82067,
      "transactionIndex": 0,
      "confirmations": null,
      "from": "0x91F624b24A1FA5A056fe571229E7379db14b9a1E",
      "gasPrice": {
        "_hex": "0x110c8f7d8de"
      },
      "gasLimit": {
        "_hex": "0xc350"
      },
      "to": "0x2910543Af39abA0Cd09dBb2D50200b3E800A63D2",
      "value": {
        "_hex": "0xc7d713b49da0000"
      },
      "nonce": 0,
      "data": "0x454e55564159363430",
      "r": "0x7539ae1d3c2136eb68e4cfd0f13def08d7e52b76919b156d88c8a128f0dddd10",
      "s": "0x888ab4672518772dcf7d7e25d1c91b86559b50fa16698ae3e9df440b7522cdea",
      "v": 27,
      "creates": null,
      "raw": "0xf87680860110c8f7d8de82c350942910543af39aba0cd09dbb2d50200b3e800a63d2880c7d713b49da000089454e555641593634301ba07539ae1d3c2136eb68e4cfd0f13def08d7e52b76919b156d88c8a128f0dddd10a0888ab4672518772dcf7d7e25d1c91b86559b50fa16698ae3e9df440b7522cdea",
      "networkId": 0,
      "chainId": 0
    },
    {
      "hash": "0xbad44f59ec65afd6d4f644aa0e2525ed68fef84afb6e8b6756552f824781a020",
      "blockHash": "0xfd9b4b105709b2921802395c61dc3d5614c62a3c07843f6042a8d2d23128a8ca",
      "blockNumber": 82067,
      "transactionIndex": 1,
      "confirmations": null,
      "from": "0x20134CBFf88bFADc466b52ECEAA79857891d831E",
      "gasPrice": {
        "_hex": "0xd7d40ace3"
      },
      "gasLimit": {
        "_hex": "0x15f90"
      },
      "to": "0xa1D62569c759769351ac0A3265519372B4a40B0f",
      "value": {
        "_hex": "0x2386f26fc10000"
      },
      "nonce": 3,
      "data": "0x",
      "r": "0x34c4b89eb1e84ffebc65970b9f1bd74a17470d77724db65b7443b77f9d095d83",
      "s": "0x3e30682f33b4801f1dbec95697f12657ada09b08b9d75a722608018296aa3c41",
      "v": 28,
      "creates": null,
      "raw": "0xf86c03850d7d40ace383015f9094a1d62569c759769351ac0a3265519372b4a40b0f872386f26fc10000801ca034c4b89eb1e84ffebc65970b9f1bd74a17470d77724db65b7443b77f9d095d83a03e30682f33b4801f1dbec95697f12657ada09b08b9d75a722608018296aa3c41",
      "networkId": 0,
      "chainId": 0
    },
    {
      "hash": "0x78ee8dd885b13f22ecde3a5aa2f62348c1500b923c9325a2d9f2925e1dc03056",
      "blockHash": "0xfd9b4b105709b2921802395c61dc3d5614c62a3c07843f6042a8d2d23128a8ca",
      "blockNumber": 82067,
      "transactionIndex": 2,
      "confirmations": null,
      "from": "0x7e7eC15A5944e978257dDae0008C2F2eCe0A6090",
      "gasPrice": {
        "_hex": "0xd247349bc"
      },
      "gasLimit": {
        "_hex": "0x2dc6c0"
      },
      "to": "0x35E57F2b08596f1946ECD9D31975eC3c2D7e1C1D",
      "value": {
        "_hex": "0x0"
      },
      "nonce": 3,
      "data": "0x0bf945120000000000000000000000000000000000000000000000000000000000067932",
      "r": "0x79e5b1e36c186699fff2afd459ffc7ddea6e0160fb2df441b28548390f87df91",
      "s": "0x3a51eced7455d8935939cf72024cb022bb9f29d65f08fa709ba2978b31af14fa",
      "v": 28,
      "creates": null,
      "raw": "0xf88903850d247349bc832dc6c09435e57f2b08596f1946ecd9d31975ec3c2d7e1c1d80a40bf9451200000000000000000000000000000000000000000000000000000000000679321ca079e5b1e36c186699fff2afd459ffc7ddea6e0160fb2df441b28548390f87df91a03a51eced7455d8935939cf72024cb022bb9f29d65f08fa709ba2978b31af14fa",
      "networkId": 0,
      "chainId": 0
    }
  ]
}