{
  "hash": "0x547a58c17df6c6d983b9810592fe7662facefbf91100094b3064ffec6a4fd5b5",
  "parentHash": "0xf31eeedbbf651289aa08cff0a063874cea71635ace9e97946e1b978887c0b9ab",
  "number": 71372,
  "timestamp": 1439334854,
  "nonce": "0xaf8e39a8bd1e8544",
  "difficulty": 2177246665985,
  "gasLimit": {
    "_hex": "0x2fefd8"
  },
  "gasUsed": {
    "_hex": "0x5208"
  },
  "miner": "0xfFcD9CAE6d9f54fd8ae05296F839892677ff6EaA",
  "extraData": "0x476574682f76312e302e312f77696e646f77732f676f312e342e32",
  "transactions": [
    {
      "hash": "0x0dc4cfb7d2201c3cf8deccadce6ce3b66b4245f8eda97bf3ac225c5fcadf6b90",
      "blockHash": "0x547a58c17df6c6d983b9810592fe7662facefbf91100094b3064ffec6a4fd5b5",
      "blockNumber": 71372,
      "transactionIndex": 0,
      "confirmations": null,
      "from": "0x88f1045f19F2D3191816B1df18bb6E1435aD1B38",
      "gasPrice": {
        "_hex": "0xd20415315"
      },
      "gasLimit": {
        "_hex": "0x15f90"
      },
      "to": "0xE93eBB015A1bD8572073c44C25A01A8B6416Fe1A",
      "value": {
        "_hex": "0x2386f26fc10000"
      },
      "nonce": 1,
      "data": "0x",
      "r": "0xf212e11d7d1cc7bbdce827e78dd215a73f9f64e59a3e803fb99423ba6e213aa7",
      "s": "0x0476cd7c3c64f550e0ffed9ee7422555b9705df6c9e405e6f4cc2f47f2b79ace",
      "v": 27,
      "creates": null,
      "raw": "0xf86c01850d2041531583015f9094e93ebb015a1bd8572073c44c25a01a8b6416fe1a872386f26fc10000801ba0f212e11d7d1cc7bbdce827e78dd215a73f9f64e59a3e803fb99423ba6e213aa7a00476cd7c3c64f550e0ffed9ee7422555b9705df6c9e405e6f4cc2f47f2b79ace",
      "networkId": 0,
      "chainId": 0
    }
  ]
}