{
  "hash": "0x352228272835c33e0f237e933c2afea9b273ceab4cc9373d6e8cca75aac9074f",
  "parentHash": "0xd3e52f0ee85f48bab3de52dbd9625cd2991443ac8279082ec127a344a3037e77",
  "number": 116593,
  "timestamp": 1440091149,
  "nonce": "0xf8a5b74921e996cd",
  "difficulty": 4476066259201,
  "gasLimit": {
    "_hex": "0x2fefd8"
  },
  "gasUsed": {
    "_hex": "0x1185a"
  },
  "miner": "0xe6A7a1d47ff21B6321162AEA7C6CB457D5476Bca",
  "extraData": "0xd783010002844765746887676f312e342e32856c696e7578",
  "transactions": [
    {
      "hash": "0xcd00c809d674717642222309c5cb5d40083b010a1a2f112b9849f6874186e5e1",
      "blockHash": "0x352228272835c33e0f237e933c2afea9b273ceab4cc9373d6e8cca75aac9074f",
      "blockNumber": 116593,
      "transactionIndex": 0,
      "confirmations": null,
      "from": "0x9b22a80D5c7B3374a05b446081f97d0A34079e7F",
      "gasPrice": {
        "_hex": "0xba43b7400"
      },
      "gasLimit": {
        "_hex": "0x201d39"
      },
      "to": "0x2c785Fa15498FE27F1FC5F809BcD9c10C9481752",
      "value": {
        "_hex": "0x0"
      },
      "nonce": 8,
      "data": "0x797af6275d966930a07fe559375c1735b8e7db4ac0d2f27aa651a531480b71a204909a4b",
      "r": "0xfd05ec81bd17c20101aa58ac927e98ad0a43aed798b27489b1375a69fd1046f9",
      "s": "0x0a1af08ad252e38e2ba67c3fa6af47cfe57d00e3599f802b259c9418fdfd5f3f",
      "v": 28,
      "creates": null,
      "raw": "0xf88908850ba43b740083201d39942c785fa15498fe27f1fc5f809bcd9c10c948175280a4797af6275d966930a07fe559375c1735b8e7db4ac0d2f27aa651a531480b71a204909a4b1ca0fd05ec81bd17c20101aa58ac927e98ad0a43aed798b27489b1375a69fd1046f9a00a1af08ad252e38e2ba67c3fa6af47cfe57d00e3599f802b259c9418fdfd5f3f",
      "networkId": 0,
      "chainId": 0
    },
    {
      "hash": "0xcbfc0fa2c1415e5ba7d0c66289fc0d3cda96f65896a2264a896bd3d5f14f779e",
      "blockHash": "0x352228272835c33e0f237e933c2afea9b273ceab4cc9373d6e8cca75aac9074f",
      "blockNumber": 116593,
      "transactionIndex": 1,
      "confirmations": null,
      "from": "0x9b22a80D5c7B3374a05b446081f97d0A34079e7F",
      "gasPrice": {
        "_hex": "0xba43b7400"
      },
      "gasLimit": {
        "_hex": "0x201d39"
      },
      "to": "0x2c785Fa15498FE27F1FC5F809BcD9c10C9481752",
      "value": {
        "_hex": "0x0"
      },
      "nonce": 9,
      "data": "0x797af6279427d95095fff16d9bad43fbf496f5a2ea0601c26ebec0180727afd6e0436fd7",
      "r": "0xc36e4b039d28883ea3d762d0277e1edff6282b8233223d83a1d21a96bf7da58d",
      "s": "0x7f69efdb50a11335cbb89b0579cf1ad612473597ffbf68a3b03fa141994de946",
      "v": 27,
      "creates": null,
      "raw": "0xf88909850ba43b740083201d39942c785fa15498fe27f1fc5f809bcd9c10c948175280a4797af6279427d95095fff16d9bad43fbf496f5a2ea0601c26ebec0180727afd6e0436fd71ba0c36e4b039d28883ea3d762d0277e1edff6282b8233223d83a1d21a96bf7da58da07f69efdb50a11335cbb89b0579cf1ad612473597ffbf68a3b03fa141994de946",
      "networkId": 0,
      "chainId": 0
    }
  ]
}