{
  "hash": "0xca0e844a3afa1cd45299ae0c7c5f8a3525c01fd9852feb50b2a73e848d4af4ec",
  "parentHash": "0xe97452359fb7df7f6feee1de30758cad4437e3264d2e877b8bbc320c0d6b967d",
  "number": 48625,
  "timestamp": 1438959978,
  "nonce": "0x817110501b228c7c",
  "difficulty": 1470721612019,
  "gasLimit": {
    "_hex": "0x1ad44"
  },
  "gasUsed": {
    "_hex": "0x546c"
  },
  "miner": "0xe6A7a1d47ff21B6321162AEA7C6CB457D5476Bca",
  "extraData": "0x657468706f6f6c2e6f7267",
  "transactions": [
    {
      "hash": "0x8dde24abdcd2f937355bba789a876a6cae92dc25ee2e1c579465b201d06cbae5",
      "blockHash": "0xca0e844a3afa1cd45299ae0c7c5f8a3525c01fd9852feb50b2a73e848d4af4ec",
      "blockNumber": 48625,
      "transactionIndex": 0,
      "confirmations": null,
      "from": "0x6C05E34e5Ef2f42Ed09deFF1026cD66BCb6960bb",
      "gasPrice": {
        "_hex": "0x9184e72a000"
      },
      "gasLimit": {
        "_hex": "0x55f0"
      },
      "to": "0x2910543Af39abA0Cd09dBb2D50200b3E800A63D2",
      "value": {
        "_hex": "0x35ab028ac154b80000"
      },
      "nonce": 1,
      "data": "0x454e32383547574138",
      "r": "0xb289f75975ed7ebe39593e253d1f468eaa656685a02ad717e6a5e07f9aa8fe22",
      "s": "0x0dff67d299ebd581f73c272f7454d45bc60b7aad535c04e9329ce339b84af4ff",
      "v": 27,
      "creates": null,
      "raw": "0xf877018609184e72a0008255f0942910543af39aba0cd09dbb2d50200b3e800a63d28935ab028ac154b8000089454e323835475741381ba0b289f75975ed7ebe39593e253d1f468eaa656685a02ad717e6a5e07f9aa8fe22a00dff67d299ebd581f73c272f7454d45bc60b7aad535c04e9329ce339b84af4ff",
      "networkId": 0,
      "chainId": 0
    }
  ]
}