{
  "hash": "0xcc7d0e439e7bd03acea2740347ae319c844de268466b4904d6eccd0c4bf55ebc",
  "parentHash": "0x28c2ca123fc3c2cfd418d1eb871f05601f7b60b50f5771f8f73b85b56028ebf9",
  "number": 79084,
  "timestamp": 1439464121,
  "nonce": "0x0f26fc510679ba0b",
  "difficulty": 2320064226694,
  "gasLimit": {
    "_hex": "0x2fefd8"
  },
  "gasUsed": {
    "_hex": "0x29040"
  },
  "miner": "0xbb7B8287f3F0a933474a79eAe42CBCa977791171",
  "extraData": "0x476574682f4c5649562f76312e302e312f6c696e75782f676f312e342e32",
  "transactions": [
    {
      "hash": "0x856c95ab68003ea7c5e1bcb4ee0c367f55038834861ff71270c5fee8ac6157ea",
      "blockHash": "0xcc7d0e439e7bd03acea2740347ae319c844de268466b4904d6eccd0c4bf55ebc",
      "blockNumber": 79084,
      "transactionIndex": 0,
      "confirmations": null,
      "from": "0xe6A7a1d47ff21B6321162AEA7C6CB457D5476Bca",
      "gasPrice": {
        "_hex": "0xcd7d6c798"
      },
      "gasLimit": {
        "_hex": "0x55f0"
      },
      "to": "0xaEcF258f8242D3806087bE4a8F10Bc00093876b1",
      "value": {
        "_hex": "0x161467fdc6cba790"
      },
      "nonce": 1054,
      "data": "0x",
      "r": "0x9923bbbb5d7a237ffef5e3d1207fa99e7ceca023e95df0fffbe0d6f2b551fa31",
      "s": "0x3c884514402424c307419d11e960d1c12e5b4c7de91a09978bea3e831fb91eed",
      "v": 28,
      "creates": null,
      "raw": "0xf86e82041e850cd7d6c7988255f094aecf258f8242d3806087be4a8f10bc00093876b188161467fdc6cba790801ca09923bbbb5d7a237ffef5e3d1207fa99e7ceca023e95df0fffbe0d6f2b551fa31a03c884514402424c307419d11e960d1c12e5b4c7de91a09978bea3e831fb91eed",
      "networkId": 0,
      "chainId": 0
    },
    {
      "hash": "0x4c1f303b2501c9bd9b50517602a0b829b38dd5ce512b68475bc7b8d88d14d552",
      "blockHash": "0xcc7d0e439e7bd03acea2740347ae319c844de268466b4904d6eccd0c4bf55ebc",
      "blockNumber": 79084,
      "transactionIndex": 1,
      "confirmations": null,
      "from": "0xe6A7a1d47ff21B6321162AEA7C6CB457D5476Bca",
      "gasPrice": {
        "_hex": "0xcd7d6c798"
      },
      "gasLimit": {
        "_hex": "0x55f0"
      },
      "to": "0x014687B2Ed3c3256fe367D6aC47ab2482E055F6b",
      "value": {
        "_hex": "0x161f1be6481e5210"
      },
      "nonce": 1055,
      "data": "0x",
      "r": "0x926991311416573c714ee6f2db7577db160171fbc9c5b61f15a4ed6501b60cc4",
      "s": "0x78e8d83a8f46e4f91817863a51d956a57049dd162e8b551022ce8d5c13834ef0",
      "v": 28,
      "creates": null,
      "raw": "0xf86e82041f850cd7d6c7988255f094014687b2ed3c3256fe367d6ac47ab2482e055f6b88161f1be6481e5210801ca0926991311416573c714ee6f2db7577db160171fbc9c5b61f15a4ed6501b60cc4a078e8d83a8f46e4f91817863a51d956a57049dd162e8b551022ce8d5c13834ef0",
      "networkId": 0,
      "chainId": 0
    },
    {
      "hash": "0xa6714cbe76b7f7079cceb615ddb5f79d703c2c022256af37f371d96c10b26ea5",
      "blockHash": "0xcc7d0e439e7bd03acea2740347ae319c844de268466b4904d6eccd0c4bf55ebc",
      "blockNumber": 79084,
      "transactionIndex": 2,
      "confirmations": null,
      "from": "0xe6A7a1d47ff21B6321162AEA7C6CB457D5476Bca",
      "gasPrice": {
        "_hex": "0xcd7d6c798"
      },
      "gasLimit": {
        "_hex": "0x55f0"
      },
      "to": "0x744Df4ED8BaC8eBCa76964a93358c3A67a89b003",
      "value": {
        "_hex": "0x1673d7824fbadf00"
      },
      "nonce": 1056,
      "data": "0x",
      "r": "0xdba65fcbda7de61bd5697c99ef3a087324bf60eb61e9df215d568503a9b1d2f2",
      "s": "0x182af4110d5abe6d5f2469ea3a1be4eb97cc8249cd63b12a38f08a7e71d8a2da",
      "v": 27,
      "creates": null,
      "raw": "0xf86e820420850cd7d6c7988255f094744df4ed8bac8ebca76964a93358c3a67a89b003881673d7824fbadf00801ba0dba65fcbda7de61bd5697c99ef3a087324bf60eb61e9df215d568503a9b1d2f2a0182af4110d5abe6d5f2469ea3a1be4eb97cc8249cd63b12a38f08a7e71d8a2da",
      "networkId": 0,
      "chainId": 0
    },
    {
      "hash": "0xde69813917013e2ce160fec4ac65d478202e59d7ef7b602be6b25ef20d19cf24",
      "blockHash": "0xcc7d0e439e7bd03acea2740347ae319c844de268466b4904d6eccd0c4bf55ebc",
      "blockNumber": 79084,
      "transactionIndex": 3,
      "confirmations": null,
      "from": "0xe6A7a1d47ff21B6321162AEA7C6CB457D5476Bca",
      "gasPrice": {
        "_hex": "0xcd7d6c798"
      },
      "gasLimit": {
        "_hex": "0x55f0"
      },
      "to": "0x7608740e31F03A7aCE7b2762464CA5bB4169f6e8",
      "value": {
        "_hex": "0x168b21519d0c9ef8"
      },
      "nonce": 1057,
      "data": "0x",
      "r": "0x5d754512334d8526e66ac25bf1f9a490b6089ecef4940c1c201bb493acc3e064",
      "s": "0x4480f22f448ef9dd9a40712aad8622e90109cdad2d9fedf1faffefcfafa7e0d8",
      "v": 27,
      "creates": null,
      "raw": "0xf86e820421850cd7d6c7988255f0947608740e31f03a7ace7b2762464ca5bb4169f6e888168b21519d0c9ef8801ba05d754512334d8526e66ac25bf1f9a490b6089ecef4940c1c201bb493acc3e064a04480f22f448ef9dd9a40712aad8622e90109cdad2d9fedf1faffefcfafa7e0d8",
      "networkId": 0,
      "chainId": 0
    },
    {
      "hash": "0x8bd67504f293caadab1c7369c5a9657a7fa5ff57d7efd0614a910b9748b1d963",
      "blockHash": "0xcc7d0e439e7bd03acea2740347ae319c844de268466b4904d6eccd0c4bf55ebc",
      "blockNumber": 79084,
      "transactionIndex": 4,
      "confirmations": null,
      "from": "0xe6A7a1d47ff21B6321162AEA7C6CB457D5476Bca",
      "gasPrice": {
        "_hex": "0xcd7d6c798"
      },
      "gasLimit": {
        "_hex": "0x55f0"
      },
      "to": "0x55d6bb729E3D6128B9032d03897D7C85cBB4e688",
      "value": {
        "_hex": "0x172b5694dcd2e128"
      },
      "nonce": 1058,
      "data": "0x",
      "r": "0xc3bcb2531c7405a75160a9f09d124b19ef636aefede5700038b0d295db0c2e5f",
      "s": "0x738eeac875770d419f3ff5461a2a22011452fbb1a535850ace386e3019285b2d",
      "v": 27,
      "creates": null,
      "raw": "0xf86e820422850cd7d6c7988255f09455d6bb729e3d6128b9032d03897d7c85cbb4e68888172b5694dcd2e128801ba0c3bcb2531c7405a75160a9f09d124b19ef636aefede5700038b0d295db0c2e5fa0738eeac875770d419f3ff5461a2a22011452fbb1a535850ace386e3019285b2d",
      "networkId": 0,
      "chainId": 0
    },
    {
      "hash": "0x9ff87fc2c9e1998e65702454b59bf62bb7aed143e2c42457792a53e941b436a6",
      "blockHash": "0xcc7d0e439e7bd03acea2740347ae319c844de268466b4904d6eccd0c4bf55ebc",
      "blockNumber": 79084,
      "transactionIndex": 5,
      "confirmations": null,
      "from": "0xe6A7a1d47ff21B6321162AEA7C6CB457D5476Bca",
      "gasPrice": {
        "_hex": "0xcd7d6c798"
      },
      "gasLimit": {
        "_hex": "0x55f0"
      },
      "to": "0x1ee96bFCC664C0D4430267bDAd17A38946655eE3",
      "value": {
        "_hex": "0x173c956c1be47328"
      },
      "nonce": 1059,
      "data": "0x",
      "r": "0xf7ce3829407218684494d1d29f537cab04d7432c3a25c6bcba6a227513de9ba5",
      "s": "0x2d8fece29b0cbfcce336f8cafa04797c413b557fadc89df968323e3da61d4f96",
      "v": 28,
      "creates": null,
      "raw": "0xf86e820423850cd7d6c7988255f0941ee96bfcc664c0d4430267bdad17a38946655ee388173c956c1be47328801ca0f7ce3829407218684494d1d29f537cab04d7432c3a25c6bcba6a227513de9ba5a02d8fece29b0cbfcce336f8cafa04797c413b557fadc89df968323e3da61d4f96",
      "networkId": 0,
      "chainId": 0
    },
    {
      "hash": "0x9fd724bf6fedeeec4c3944b36df3c6a57d710fc449f5eda91c1f64a568527749",
      "blockHash": "0xcc7d0e439e7bd03acea2740347ae319c844de268466b4904d6eccd0c4bf55ebc",
      "blockNumber": 79084,
      "transactionIndex": 6,
      "confirmations": null,
      "from": "0xe6A7a1d47ff21B6321162AEA7C6CB457D5476Bca",
      "gasPrice": {
        "_hex": "0xcd7d6c798"
      },
      "gasLimit": {
        "_hex": "0x55f0"
      },
      "to": "0xb6f15735Af04ae6d37B89592E406311A94e4F5f2",
      "value": {
        "_hex": "0x1740c7726a4475e0"
      },
      "nonce": 1060,
      "data": "0x",
      "r": "0x2287159a76ca7d29126ff7fb664fc1ddc59a44bbad5a50b06805c9513d121823",
      "s": "0x7e0066b287a7b5f15e12dd66a02ce824f049afe8843ae65202e805f67f999d85",
      "v": 28,
      "creates": null,
      "raw": "0xf86e820424850cd7d6c7988255f094b6f15735af04ae6d37b89592e406311a94e4f5f2881740c7726a4475e0801ca02287159a76ca7d29126ff7fb664fc1ddc59a44bbad5a50b06805c9513d121823a07e0066b287a7b5f15e12dd66a02ce824f049afe8843ae65202e805f67f999d85",
      "networkId": 0,
      "chainId": 0
    },
    {
      "hash": "0x0e70b80566c091092a501d3486953b5dc7536e05b71218c1bd50cee18a4db426",
      "blockHash": "0xcc7d0e439e7bd03acea2740347ae319c844de268466b4904d6eccd0c4bf55ebc",
      "blockNumber": 79084,
      "transactionIndex": 7,
      "confirmations": null,
      "from": "0xe6A7a1d47ff21B6321162AEA7C6CB457D5476Bca",
      "gasPrice": {
        "_hex": "0xcd7d6c798"
      },
      "gasLimit": {
        "_hex": "0x55f0"
      },
      "to": "0x972ad000397A3c903299F1353d6d4b85eE4E4e2A",
      "value": {
        "_hex": "0x1764b6d1854403e8"
      },
      "nonce": 1061,
      "data": "0x",
      "r": "0x2f913a1182d7aca822549331fac0420cebaed65aa31156631590ab2db0af9acf",
      "s": "0x77bef2c7b948d1de1bac60f7999cb770a946deb3beacfd0981ae02e4613f75bd",
      "v": 28,
      "creates": null,
      "raw": "0xf86e820425850cd7d6c7988255f094972ad000397a3c903299f1353d6d4b85ee4e4e2a881764b6d1854403e8801ca02f913a1182d7aca822549331fac0420cebaed65aa31156631590ab2db0af9acfa077bef2c7b948d1de1bac60f7999cb770a946deb3beacfd0981ae02e4613f75bd",
      "networkId": 0,
      "chainId": 0
    }
  ]
}