{
  "hash": "0x3ea8150fb6db81db10047982f90cf66748ecb210bb9c4a7670a8a05dd0a32edb",
  "parentHash": "0x350dff67cf026669906a91f2c012cbaf95759e5859261e74c04f64949dff7346",
  "number": 47123,
  "timestamp": 1438934573,
  "nonce": "0xeec4b9c197c30a14",
  "difficulty": 1460963701088,
  "gasLimit": {
    "_hex": "0x992d"
  },
  "gasUsed": {
    "_hex": "0x5208"
  },
  "miner": "0x0037ce3d4B7f8729C8607D8D0248252Be68202c0",
  "extraData": "0x476574682f76312e302e312f77696e646f77732f676f312e342e32",
  "transactions": [
    {
      "hash": "0xdda10f8c11d2e2fc3dcd2ba892d7dbaeb79a40deb45850ab167673d670da6629",
      "blockHash": "0x3ea8150fb6db81db10047982f90cf66748ecb210bb9c4a7670a8a05dd0a32edb",
      "blockNumber": 47123,
      "transactionIndex": 0,
      "confirmations": null,
      "from": "0xe6A7a1d47ff21B6321162AEA7C6CB457D5476Bca",
      "gasPrice": {
        "_hex": "0xd175206da"
      },
      "gasLimit": {
        "_hex": "0x5208"
      },
      "to": "0xC7C3C1e14c528F3C4976b727Bf9706c569fEacd3",
      "value": {
        "_hex": "0x2fcc7a2771b88c60"
      },
      "nonce": 47,
      "data": "0x",
      "r": "0x156a740ed1f1cac228b1c4b3fdafea65e74156828a042a3560e24fcbc0bab708",
      "s": "0x48418978eeb5ef56e984b2d9e1ac5b13c1695510eeb161f7bc6441418d6879e2",
      "v": 27,
      "creates": null,
      "raw": "0xf86c2f850d175206da82520894c7c3c1e14c528f3c4976b727bf9706c569feacd3882fcc7a2771b88c60801ba0156a740ed1f1cac228b1c4b3fdafea65e74156828a042a3560e24fcbc0bab708a048418978eeb5ef56e984b2d9e1ac5b13c1695510eeb161f7bc6441418d6879e2",
      "networkId": 0,
      "chainId": 0
    }
  ]
}