{
  "hash": "0x5d9968b3e809ae2f86c4301820bd16b725919154de2771ece48661ad51558c05",
  "parentHash": "0x192f00884db038d8d56a2dcffd35a51b93eb3480952d0824189a0e6422e9f00e",
  "number": 102452,
  "timestamp": 1439838272,
  "nonce": "0x609907a7d834c033",
  "difficulty": 3962579358080,
  "gasLimit": {
    "_hex": "0x2fefd8"
  },
  "gasUsed": {
    "_hex": "0x5208"
  },
  "miner": "0xB4f6A8f7Cd91Cd4bcADcc0a20e417c392E5f50A4",
  "extraData": "0x",
  "transactions": [
    {
      "hash": "0x9051b26c76276b82414aabd349d1ffe78e51a4187887ddd659fef72e1ca407d3",
      "blockHash": "0x5d9968b3e809ae2f86c4301820bd16b725919154de2771ece48661ad51558c05",
      "blockNumber": 102452,
      "transactionIndex": 0,
      "confirmations": null,
      "from": "0x5DE860D6869F1f5B252804d304547004Da5d69dF",
      "gasPrice": {
        "_hex": "0xd2edcc351"
      },
      "gasLimit": {
        "_hex": "0x7a120"
      },
      "to": "0xBBDa93a81B882774e1c9b5e3F933Fa35DaC8bc88",
      "value": {
        "_hex": "0x114dca34ce50b0000"
      },
      "nonce": 0,
      "data": "0x",
      "r": "0xee2eaf995c96aaef711ac33cd01a5a0663c2f8b68d71b1bfb9888e536bd8f04b",
      "s": "0x1e6de48bd11b33a834a87666534ddaf1300f8d0220952f2b7fd19e0d18418fb6",
      "v": 28,
      "creates": null,
      "raw": "0xf86e80850d2edcc3518307a12094bbda93a81b882774e1c9b5e3f933fa35dac8bc88890114dca34ce50b0000801ca0ee2eaf995c96aaef711ac33cd01a5a0663c2f8b68d71b1bfb9888e536bd8f04ba01e6de48bd11b33a834a87666534ddaf1300f8d0220952f2b7fd19e0d18418fb6",
      "networkId": 0,
      "chainId": 0
    }
  ]
}