{
  "hash": "0x16564a0d7e595e333bb2694e117c0c72f56e901b831970cc4cda2a60200d74c7",
  "parentHash": "0x88a2721d318d06d8e8b05ce02d00e677815f1b70e22e399c2bb42174e0c67519",
  "number": 80377,
  "timestamp": 1439484797,
  "nonce": "0xafffb3ef9029929f",
  "difficulty": 2380521639374,
  "gasLimit": {
    "_hex": "0x2fefd8"
  },
  "gasUsed": {
    "_hex": "0xc343"
  },
  "miner": "0xe6A7a1d47ff21B6321162AEA7C6CB457D5476Bca",
  "extraData": "0x476574682f76312e302e312d38326566323666362f6c696e75782f676f312e34",
  "transactions": [
    {
      "hash": "0xc3c23a03dce726e1929112c601a20923ff209c6a59223a0ed9b057cad40d0dee",
      "blockHash": "0x16564a0d7e595e333bb2694e117c0c72f56e901b831970cc4cda2a60200d74c7",
      "blockNumber": 80377,
      "transactionIndex": 0,
      "confirmations": null,
      "from": "0x87C5B5874A18B4306DF8a752a6C8cc3E82daFc19",
      "gasPrice": {
        "_hex": "0x10f93ecff27"
      },
      "gasLimit": {
        "_hex": "0x493e0"
      },
      "to": "0xC4c51de1AbF5D60DBd329eC0F999Fd8f021ae9fC",
      "value": {
        "_hex": "0x0"
      },
      "nonce": 191,
      "data": "0xbd66528a6b6b6b0000000000000000000000000000000000000000000000000000000000",
      "r": "0x83526f42f0ca8a6ee341a7dbca332319464b0fcd6f9a99b4e4fe7c0fef5223fe",
      "s": "0x7904b20ae36fb9961b259dacf5e029fbd939b6547568c82394d167d8545f05a6",
      "v": 27,
      "creates": null,
      "raw": "0xf88b81bf86010f93ecff27830493e094c4c51de1abf5d60dbd329ec0f999fd8f021ae9fc80a4bd66528a6b6b6b00000000000000000000000000000000000000000000000000000000001ba083526f42f0ca8a6ee341a7dbca332319464b0fcd6f9a99b4e4fe7c0fef5223fea07904b20ae36fb9961b259dacf5e029fbd939b6547568c82394d167d8545f05a6",
      "networkId": 0,
      "chainId": 0
    },
    {
      "hash": "0x4ae1d9b06b5f81dba76ec928a66eb67cdb159dde6225a30f691aac183b32dce8",
      "blockHash": "0x16564a0d7e595e333bb2694e117c0c72f56e901b831970cc4cda2a60200d74c7",
      "blockNumber": 80377,
      "transactionIndex": 1,
      "confirmations": null,
      "from": "0xffBC3DA0381Ec339C1C049eb1Ed9ee34fDCea6ca",
      "gasPrice": {
        "_hex": "0xd81b0b5ea"
      },
      "gasLimit": {
        "_hex": "0x55f0"
      },
      "to": "0x2910543Af39abA0Cd09dBb2D50200b3E800A63D2",
      "value": {
        "_hex": "0x56bc75e2d63100000"
      },
      "nonce": 2,
      "data": "0x454e4d453338544b38",
      "r": "0xf327160cd59fe8260c601be2728b7c87c013c09edd86b97ea8cc12d8a4194daf",
      "s": "0x63a36aab821f1887fc5e0397916076086e2a543362146a3b9da584c7a5df0e1e",
      "v": 27,
      "creates": null,
      "raw": "0xf87602850d81b0b5ea8255f0942910543af39aba0cd09dbb2d50200b3e800a63d289056bc75e2d6310000089454e4d453338544b381ba0f327160cd59fe8260c601be2728b7c87c013c09edd86b97ea8cc12d8a4194dafa063a36aab821f1887fc5e0397916076086e2a543362146a3b9da584c7a5df0e1e",
      "networkId": 0,
      "chainId": 0
    }
  ]
}