{
  "hash": "0x1b9dd5a9010b6390cef17c04e89a1f08c3fa0def81ab909f39c699aea530ce85",
  "parentHash": "0x0cdfdea7a0f1f86eaf1642ff22faa21a51411099a62b6a5df18825b44c4fff59",
  "number": 70200,
  "timestamp": 1439316173,
  "nonce": "0x94ea3e8147a10503",
  "difficulty": 2120885319423,
  "gasLimit": {
    "_hex": "0x2fefd8"
  },
  "gasUsed": {
    "_hex": "0x5208"
  },
  "miner": "0xe6A7a1d47ff21B6321162AEA7C6CB457D5476Bca",
  "extraData": "0x476574682f76312e302e312d38326566323666362f6c696e75782f676f312e34",
  "transactions": [
    {
      "hash": "0x376998a31deef56972cb59bc0e3086bfeaf0c950ee48e56ca830a1e7476ba259",
      "blockHash": "0x1b9dd5a9010b6390cef17c04e89a1f08c3fa0def81ab909f39c699aea530ce85",
      "blockNumber": 70200,
      "transactionIndex": 0,
      "confirmations": null,
      "from": "0xc597A5d92F5dC1137D847db733cfe02c6d209f13",
      "gasPrice": {
        "_hex": "0xcec0141d3"
      },
      "gasLimit": {
        "_hex": "0x15f90"
      },
      "to": "0x4a09cb883b0B1Ff0d401B3DFFED924407D083D74",
      "value": {
        "_hex": "0xd5e98fca9b114800"
      },
      "nonce": 2,
      "data": "0x",
      "r": "0xd9b9b7a8aac01d8fa4c1bce598e8da9718534cf78828754f740f0aac205f2e31",
      "s": "0x5a009a9e57507e5cb2f723ca1826d2c338252dc5ff774a050cdef0dda34a1655",
      "v": 27,
      "creates": null,
      "raw": "0xf86d02850cec0141d383015f90944a09cb883b0b1ff0d401b3dffed924407d083d7488d5e98fca9b114800801ba0d9b9b7a8aac01d8fa4c1bce598e8da9718534cf78828754f740f0aac205f2e31a05a009a9e57507e5cb2f723ca1826d2c338252dc5ff774a050cdef0dda34a1655",
      "networkId": 0,
      "chainId": 0
    }
  ]
}