{
  "hash": "0xe88b7fa439bc1f01211a0f02420bf0ea2ca17b368b6620d6128eb510d74309f4",
  "parentHash": "0x14513650c0726e23794ed48115c46322b535dbf093de754722d6959b9f48173a",
  "number": 101336,
  "timestamp": 1439821391,
  "nonce": "0x42d7bb38e1a65d35",
  "difficulty": 3811282325056,
  "gasLimit": {
    "_hex": "0x2fefd8"
  },
  "gasUsed": {
    "_hex": "0xf618"
  },
  "miner": "0x306e6267d94f23a9b37Cb110f20852208Fbbf1aA",
  "extraData": "0x",
  "transactions": [
    {
      "hash": "0xa9e8083ba6704d7e96c85423147dd96b3f957900c5213aa146cc2f5208678bc8",
      "blockHash": "0xe88b7fa439bc1f01211a0f02420bf0ea2ca17b368b6620d6128eb510d74309f4",
      "blockNumber": 101336,
      "transactionIndex": 0,
      "confirmations": null,
      "from": "0x608f4b86321a68453f9adf6F06F7Fc3E621739ad",
      "gasPrice": {
        "_hex": "0xd6a871f4a"
      },
      "gasLimit": {
        "_hex": "0x5208"
      },
      "to": "0x32Be343B94f860124dC4fEe278FDCBD38C102D88",
      "value": {
        "_hex": "0x293e34731f6a800000"
      },
      "nonce": 4,
      "data": "0x",
      "r": "0x0d03dab75d3bc613df267872ca9c8f740c0376a3f76babc7ba9c9a1f2574c659",
      "s": "0x416370a7d4a5cd1f061ea01b2deb2b744f0fd97dcd0696b2531f4848960021d3",
      "v": 27,
      "creates": null,
      "raw": "0xf86d04850d6a871f4a8252089432be343b94f860124dc4fee278fdcbd38c102d8889293e34731f6a800000801ba00d03dab75d3bc613df267872ca9c8f740c0376a3f76babc7ba9c9a1f2574c659a0416370a7d4a5cd1f061ea01b2deb2b744f0fd97dcd0696b2531f4848960021d3",
      "networkId": 0,
      "chainId": 0
    },
    {
      "hash": "0x5d14e7e07210160a49318bf7c0e77610c9a11972b32fb8ed0112b6cabbf2f4cb",
      "blockHash": "0xe88b7fa439bc1f01211a0f02420bf0ea2ca17b368b6620d6128eb510d74309f4",
      "blockNumber": 101336,
      "transactionIndex": 1,
      "confirmations": null,
      "from": "0xa70a9a7040d542C632D8e0bE7c5513A8a5Bbc752",
      "gasPrice": {
        "_hex": "0xd6a871f4a"
      },
      "gasLimit": {
        "_hex": "0x5208"
      },
      "to": "0x32Be343B94f860124dC4fEe278FDCBD38C102D88",
      "value": {
        "_hex": "0x455f44f7387f0800"
      },
      "nonce": 210,
      "data": "0x",
      "r": "0xbede9754787ed9ef40846e52f973f5a2fd932c5267c0032d61c7eef8b2ce2d50",
      "s": "0x530e8bd92a843aff008e9ef884f71ce51e7cf117f929bc79ce22cf7411effd7d",
      "v": 28,
      "creates": null,
      "raw": "0xf86d81d2850d6a871f4a8252089432be343b94f860124dc4fee278fdcbd38c102d8888455f44f7387f0800801ca0bede9754787ed9ef40846e52f973f5a2fd932c5267c0032d61c7eef8b2ce2d50a0530e8bd92a843aff008e9ef884f71ce51e7cf117f929bc79ce22cf7411effd7d",
      "networkId": 0,
      "chainId": 0
    },
    {
      "hash": "0x28e94b785b9c78c5266a59aa17dabb54d3c56ecb54c93a725163385fde1e4325",
      "blockHash": "0xe88b7fa439bc1f01211a0f02420bf0ea2ca17b368b6620d6128eb510d74309f4",
      "blockNumber": 101336,
      "transactionIndex": 2,
      "confirmations": null,
      "from": "0x19ae27E1b61445EB9f27821A5eB4b3e957319e7e",
      "gasPrice": {
        "_hex": "0xd6a871f4a"
      },
      "gasLimit": {
        "_hex": "0x5208"
      },
      "to": "0x32Be343B94f860124dC4fEe278FDCBD38C102D88",
      "value": {
        "_hex": "0x12ede249228d8d00000"
      },
      "nonce": 14,
      "data": "0x",
      "r": "0x11d3de02eb478a7c17f4f0b04c23ffb108fdf0468405d6486036f5832950a956",
      "s": "0x4af352187b94cb768aee21ca882edf477709937e08803af35e0e6440b1ba901c",
      "v": 27,
      "creates": null,
      "raw": "0xf86e0e850d6a871f4a8252089432be343b94f860124dc4fee278fdcbd38c102d888a012ede249228d8d00000801ba011d3de02eb478a7c17f4f0b04c23ffb108fdf0468405d6486036f5832950a956a04af352187b94cb768aee21ca882edf477709937e08803af35e0e6440b1ba901c",
      "networkId": 0,
      "chainId": 0
    }
  ]
}