{
  "hash": "0x819178db148ab6f2621d80310726bedcdbe03eda09f37def2f81b3aaf2eac996",
  "parentHash": "0xd4ef8213b2b3d178797616c01c29cfc547a1ae9275de29c7f9feb0a21b2b2b62",
  "number": 65068,
  "timestamp": 1439230703,
  "nonce": "0xf1f3a6ac28d7841c",
  "difficulty": 1930383749647,
  "gasLimit": {
    "_hex": "0x2fefd8"
  },
  "gasUsed": {
    "_hex": "0xa410"
  },
  "miner": "0x88D74a59454F6cF3B51ef6b9136AFb6b9D405A88",
  "extraData": "0x476574682f76312e302e312d38326566323666362f6c696e75782f676f312e34",
  "transactions": [
    {
      "hash": "0x93ced6f293aa4f7083a7c53a4b8d990e0a9f95fb93949d6a8ecaa8d427cbf73f",
      "blockHash": "0x819178db148ab6f2621d80310726bedcdbe03eda09f37def2f81b3aaf2eac996",
      "blockNumber": 65068,
      "transactionIndex": 0,
      "confirmations": null,
      "from": "0x1C4b22D11D3004A1d4ef2a4433E2E3cC2b9aC5D9",
      "gasPrice": {
        "_hex": "0xba43b7400"
      },
      "gasLimit": {
        "_hex": "0x5208"
      },
      "to": "0xa663b8C11a69AF9D8B102947153c79B178211881",
      "value": {
        "_hex": "0x3a627cf67be7000"
      },
      "nonce": 1,
      "data": "0x",
      "r": "0x920f1916f37599391e8f67ae5190ef36bd4a50f0dc9667e61e81f7482b1a3358",
      "s": "0x172e2471f519bfa35e8567b333145a31b465bb1b556eac0e4525f389476c7dcc",
      "v": 28,
      "creates": null,
      "raw": "0xf86c01850ba43b740082520894a663b8c11a69af9d8b102947153c79b1782118818803a627cf67be7000801ca0920f1916f37599391e8f67ae5190ef36bd4a50f0dc9667e61e81f7482b1a3358a0172e2471f519bfa35e8567b333145a31b465bb1b556eac0e4525f389476c7dcc",
      "networkId": 0,
      "chainId": 0
    },
    {
      "hash": "0x5a786ebca401478b14263f1679665fbe4ad9777ba0faf46fd85c4051b4954c04",
      "blockHash": "0x819178db148ab6f2621d80310726bedcdbe03eda09f37def2f81b3aaf2eac996",
      "blockNumber": 65068,
      "transactionIndex": 1,
      "confirmations": null,
      "from": "0xfe94A04FD0E639e25E3ee538c8DAAFa20e0B8c3E",
      "gasPrice": {
        "_hex": "0xba43b7400"
      },
      "gasLimit": {
        "_hex": "0x5208"
      },
      "to": "0xa35BFd21Ed7630EAF5a59CEC266842bF4949770a",
      "value": {
        "_hex": "0x402b482ce003000"
      },
      "nonce": 1,
      "data": "0x",
      "r": "0x5e1e61ef491c517a1877816b77fa090c8194d376c35d9d5cbbcca9d1ae66f321",
      "s": "0x41e75d4f8ef2773b1c6e137e3459e2e9d9a839b0686020bb4a2aafbe4145ce9d",
      "v": 28,
      "creates": null,
      "raw": "0xf86c01850ba43b740082520894a35bfd21ed7630eaf5a59cec266842bf4949770a880402b482ce003000801ca05e1e61ef491c517a1877816b77fa090c8194d376c35d9d5cbbcca9d1ae66f321a041e75d4f8ef2773b1c6e137e3459e2e9d9a839b0686020bb4a2aafbe4145ce9d",
      "networkId": 0,
      "chainId": 0
    }
  ]
}