{
  "hash": "0x7c1f15352d112464a18fedcde4e57cdde81a82d6c0c35e04c84fe9444ed69a50",
  "parentHash": "0x19564a877f5329d8cccbd3c2be846b15a8d7c3e0dae05fe459ef22035c6fb973",
  "number": 55076,
  "timestamp": 1439065035,
  "nonce": "0xab66e768d1aab027",
  "difficulty": 1629073593235,
  "gasLimit": {
    "_hex": "0x2fefd8"
  },
  "gasUsed": {
    "_hex": "0x5208"
  },
  "miner": "0x1B7047b4338ACf65bE94C1A3e8c5c9338ad7d67C",
  "extraData": "0x476574682f76312e302e312d38326566323666362f6c696e75782f676f312e34",
  "transactions": [
    {
      "hash": "0xc7419b88867f94acf0363a5316cb649fe34fa47460ec6b51ee6ff336a96ba481",
      "blockHash": "0x7c1f15352d112464a18fedcde4e57cdde81a82d6c0c35e04c84fe9444ed69a50",
      "blockNumber": 55076,
      "transactionIndex": 0,
      "confirmations": null,
      "from": "0x6463F715d594A1A4aCe4bb9c3B288A74dEcf294D",
      "gasPrice": {
        "_hex": "0xe1b1036a3"
      },
      "gasLimit": {
        "_hex": "0x15f90"
      },
      "to": "0x9B2c46642CAF6B936dc0633da521f1E946B7e18F",
      "value": {
        "_hex": "0xde0b6b3a7640000"
      },
      "nonce": 1,
      "data": "0x",
      "r": "0xcd17326bd68796345a6d86b63cd467f3bfac323503fcfc230acad0d05d19a1b1",
      "s": "0x154674654031a4698042278a3a4730647bf86aa902dc9142b2ad8e62da02b2a3",
      "v": 27,
      "creates": null,
      "raw": "0xf86d01850e1b1036a383015f90949b2c46642caf6b936dc0633da521f1e946b7e18f880de0b6b3a7640000801ba0cd17326bd68796345a6d86b63cd467f3bfac323503fcfc230acad0d05d19a1b1a0154674654031a4698042278a3a4730647bf86aa902dc9142b2ad8e62da02b2a3",
      "networkId": 0,
      "chainId": 0
    }
  ]
}