{
  "hash": "0x802f7a3c6e3ff542bb4296b54184d14bf221a9dd5c2da94f42d8af549d9c33f4",
  "parentHash": "0xbe5a049e84efe73159b98a2c952040d1dfb278194fba94cd3fe53d470c122a34",
  "number": 76522,
  "timestamp": 1439421941,
  "nonce": "0x3ef3f24ec339e9bb",
  "difficulty": 2229687002050,
  "gasLimit": {
    "_hex": "0x2fefd8"
  },
  "gasUsed": {
    "_hex": "0x5208"
  },
  "miner": "0x9746c7e1ef2bd21FF3997fa467593a89cb852BD0",
  "extraData": "0x476574682f76312e302e312f77696e646f77732f676f312e342e32",
  "transactions": [
    {
      "hash": "0x70f13f822ecdb5437ec5329324ad9b2441976bb11c10d8a9eb3cc21b3bf7a2a1",
      "blockHash": "0x802f7a3c6e3ff542bb4296b54184d14bf221a9dd5c2da94f42d8af549d9c33f4",
      "blockNumber": 76522,
      "transactionIndex": 0,
      "confirmations": null,
      "from": "0xf21d9FB1e21a5D056D97d87626a4eA57d56af0ac",
      "gasPrice": {
        "_hex": "0xd8364fc25"
      },
      "gasLimit": {
        "_hex": "0x15f90"
      },
      "to": "0xC25f24A505b8fEF751D8f4FCc397651001F7a160",
      "value": {
        "_hex": "0x33e7262f43f60000"
      },
      "nonce": 0,
      "data": "0x",
      "r": "0xa2702a5fbcd4fa2430f0d20e631e964cfe1f2b644a6b209d3c3fb9c20afb37a1",
      "s": "0x5a03b15b0dac62a4794c7a783569089ee26781765d3666360a4e95a0f139fa13",
      "v": 28,
      "creates": null,
      "raw": "0xf86d80850d8364fc2583015f9094c25f24a505b8fef751d8f4fcc397651001f7a1608833e7262f43f60000801ca0a2702a5fbcd4fa2430f0d20e631e964cfe1f2b644a6b209d3c3fb9c20afb37a1a05a03b15b0dac62a4794c7a783569089ee26781765d3666360a4e95a0f139fa13",
      "networkId": 0,
      "chainId": 0
    }
  ]
}