{
  "hash": "0x8c73fb69fe8a33babc22c481045b0ad4b5c12efdc75edd770d77a54cddbed21e",
  "parentHash": "0x52f9937232f87c45fc5f5faebb2e4bd5092c3a8d17908bc659e455a5aec47889",
  "number": 108427,
  "timestamp": 1439940315,
  "nonce": "0xef111de65c5345e4",
  "difficulty": 4308783241220,
  "gasLimit": {
    "_hex": "0x2fefd8"
  },
  "gasUsed": {
    "_hex": "0x5208"
  },
  "miner": "0x7e8504a5e26df87f6D26fA1ba148BE146F42775A",
  "extraData": "0x476574682f76312e302e312f77696e646f77732f676f312e342e32",
  "transactions": [
    {
      "hash": "0x3ec0c1d7860515109595c8316b6f70466dd538adc53580601a30ded7dbfdf674",
      "blockHash": "0x8c73fb69fe8a33babc22c481045b0ad4b5c12efdc75edd770d77a54cddbed21e",
      "blockNumber": 108427,
      "transactionIndex": 0,
      "confirmations": null,
      "from": "0xC8FC262b7cBF3f91Dab62A097955e6544ae2ba2E",
      "gasPrice": {
        "_hex": "0xba43b7400"
      },
      "gasLimit": {
        "_hex": "0x5208"
      },
      "to": "0xC47Aaa860008be6f65B58c6C6E02a84e666EfE31",
      "value": {
        "_hex": "0xd7705788a87c800"
      },
      "nonce": 0,
      "data": "0x",
      "r": "0x1eff58e4376b1c3b6c9f1c3a85d741e05f75bada1a1077c16ce8f087dfef691a",
      "s": "0x719a1eeab3f627be9bfead11aa75c87a4c317eb54f637d332c6dfa7829ad4f6b",
      "v": 27,
      "creates": null,
      "raw": "0xf86c80850ba43b740082520894c47aaa860008be6f65b58c6c6e02a84e666efe31880d7705788a87c800801ba01eff58e4376b1c3b6c9f1c3a85d741e05f75bada1a1077c16ce8f087dfef691aa0719a1eeab3f627be9bfead11aa75c87a4c317eb54f637d332c6dfa7829ad4f6b",
      "networkId": 0,
      "chainId": 0
    }
  ]
}