{
  "hash": "0x11e7e2ff5686ec8aea07868d45b6e67bbdd2090825ee0f147b4cf4bc0728e150",
  "parentHash": "0xe09b99fc2eaa5dadf618461fe25a6236d73d2f9fa77744dfb1d4bd02cb6943d0",
  "number": 99787,
  "timestamp": 1439795571,
  "nonce": "0x183f0331cd38bc63",
  "difficulty": 3836260303350,
  "gasLimit": {
    "_hex": "0x2fefd5"
  },
  "gasUsed": {
    "_hex": "0x5208"
  },
  "miner": "0x9746c7e1ef2bd21FF3997fa467593a89cb852BD0",
  "extraData": "0x476574682f76312e302e312f77696e646f77732f676f312e342e32",
  "transactions": [
    {
      "hash": "0x9cbaac085bb893ae0247aea0310e9f92fcfd1d432447c47add52df682f01b7d6",
      "blockHash": "0x11e7e2ff5686ec8aea07868d45b6e67bbdd2090825ee0f147b4cf4bc0728e150",
      "blockNumber": 99787,
      "transactionIndex": 0,
      "confirmations": null,
      "from": "0x7884D470204862a0d1A21122F41ee77430396Ee5",
      "gasPrice": {
        "_hex": "0xde34ff3e9"
      },
      "gasLimit": {
        "_hex": "0x15f90"
      },
      "to": "0x266398c42818181B797E98b039c62d72a52D6FD6",
      "value": {
        "_hex": "0x13fbe85edc90000"
      },
      "nonce": 41,
      "data": "0x",
      "r": "0xad494607be1f0ab5e3baf366b411dc5739e0e96b2523eea86acf70ec88bbe870",
      "s": "0x1b01925e4a303825837c3386545b36cf29002d6ee711a0dd285228d7312ab194",
      "v": 28,
      "creates": null,
      "raw": "0xf86d29850de34ff3e983015f9094266398c42818181b797e98b039c62d72a52d6fd688013fbe85edc90000801ca0ad494607be1f0ab5e3baf366b411dc5739e0e96b2523eea86acf70ec88bbe870a01b01925e4a303825837c3386545b36cf29002d6ee711a0dd285228d7312ab194",
      "networkId": 0,
      "chainId": 0
    }
  ]
}