{
  "hash": "0xb3f7e8eac16e34664c268948a661eed4bfa505fd40d4bece9db4ea4570bc4416",
  "parentHash": "0x932a1c07d0ead641e2d96158612199ce56163dddd7e2bd65b9278c10bfef8fc8",
  "number": 92126,
  "timestamp": 1439667176,
  "nonce": "0xe1075a955f583920",
  "difficulty": 3477418379847,
  "gasLimit": {
    "_hex": "0x2fefd8"
  },
  "gasUsed": {
    "_hex": "0x5208"
  },
  "miner": "0xe87b14B387870E6ed0d84939D874AFdb2045e490",
  "extraData": "0x476574682f76312e302e312f6c696e75782f676f312e342e32",
  "transactions": [
    {
      "hash": "0x4975d59fe49366166c204a6f4e487af8471370a53e015d82bbc5972ee4e01d19",
      "blockHash": "0xb3f7e8eac16e34664c268948a661eed4bfa505fd40d4bece9db4ea4570bc4416",
      "blockNumber": 92126,
      "transactionIndex": 0,
      "confirmations": null,
      "from": "0x2910543Af39abA0Cd09dBb2D50200b3E800A63D2",
      "gasPrice": {
        "_hex": "0xcefd7be7f"
      },
      "gasLimit": {
        "_hex": "0x5208"
      },
      "to": "0xB480F44F0868b5c45aa0C59dCe85CA5A2eef91e8",
      "value": {
        "_hex": "0x813ca56906d340000"
      },
      "nonce": 823,
      "data": "0x",
      "r": "0xeabf6da5536513c38a62068e2a1c62e6a27cfdc5d03687d2cf730ffd1e40891a",
      "s": "0x4d5bef8389f6e77bbbb5a496cb936b7982ad5157b865591dfad4fc622d443df4",
      "v": 28,
      "creates": null,
      "raw": "0xf86f820337850cefd7be7f82520894b480f44f0868b5c45aa0c59dce85ca5a2eef91e8890813ca56906d340000801ca0eabf6da5536513c38a62068e2a1c62e6a27cfdc5d03687d2cf730ffd1e40891aa04d5bef8389f6e77bbbb5a496cb936b7982ad5157b865591dfad4fc622d443df4",
      "networkId": 0,
      "chainId": 0
    }
  ]
}