{
  "hash": "0xf7ee94e595bd012c9faa861799738be1cf3a7cb238b761a2f3af2e54bf896349",
  "parentHash": "0x3ed063297148519472d41f21f71d508d3d5ca29935040ab0fb809ee88256b49a",
  "number": 51589,
  "timestamp": 1439007602,
  "nonce": "0x1999bb4fa0c1cb7d",
  "difficulty": 1555878699282,
  "gasLimit": {
    "_hex": "0xc3495"
  },
  "gasUsed": {
    "_hex": "0x7a120"
  },
  "miner": "0x756C55cbfa47fd23c0260F958e65866E64c096CB",
  "extraData": "0x476574682f76312e302e302f77696e646f77732f676f312e342e32",
  "transactions": [
    {
      "hash": "0x2e588ee0890eb81e42cd59ac6414392cce04789f4893a10773cc10160f9b825b",
      "blockHash": "0xf7ee94e595bd012c9faa861799738be1cf3a7cb238b761a2f3af2e54bf896349",
      "blockNumber": 51589,
      "transactionIndex": 0,
      "confirmations": null,
      "from": "0xf88a65846C19D8fc76fFf545fEAa7bbc7114F667",
      "gasPrice": {
        "_hex": "0xd72d2d820"
      },
      "gasLimit": {
        "_hex": "0x7a120"
      },
      "to": "0x109C4f2CCc82C4d77Bde15F306707320294Aea3F",
      "value": {
        "_hex": "0xde0b6b3a7640000"
      },
      "nonce": 27,
      "data": "0x",
      "r": "0x71959ef77f6213a24f812e0822aa3b42da0196f8419c62b73bb971142f496586",
      "s": "0x1553314f1f8b5f9a765527c7115400b2a24d6391103a6cd2d3cc9eb942f9841f",
      "v": 27,
      "creates": null,
      "raw": "0xf86d1b850d72d2d8208307a12094109c4f2ccc82c4d77bde15f306707320294aea3f880de0b6b3a7640000801ba071959ef77f6213a24f812e0822aa3b42da0196f8419c62b73bb971142f496586a01553314f1f8b5f9a765527c7115400b2a24d6391103a6cd2d3cc9eb942f9841f",
      "networkId": 0,
      "chainId": 0
    }
  ]
}