{
  "hash": "0xaf3a980431b7959953b28ca2fd2f3fded11e6eb0f6efeadffd0a5f1621d90fcf",
  "parentHash": "0x404eeb7498b5c64be056a5d75fb6433b0db680d25e04fb3746fc39b7339764e1",
  "number": 79705,
  "timestamp": 1439473888,
  "nonce": "0x5a1b69db05ed03e8",
  "difficulty": 2346092808748,
  "gasLimit": {
    "_hex": "0x2fefd8"
  },
  "gasUsed": {
    "_hex": "0x1553d"
  },
  "miner": "0x0eDEd3DA479d0beF8eeC92A76644D3f4E3C177f7",
  "extraData": "0x476574682f76312e302e312f6c696e75782f676f312e342e32",
  "transactions": [
    {
      "hash": "0x7cba0bc7e0cc73ecb7ab46671950e4a1df080f285d41550269941e670f727e9f",
      "blockHash": "0xaf3a980431b7959953b28ca2fd2f3fded11e6eb0f6efeadffd0a5f1621d90fcf",
      "blockNumber": 79705,
      "transactionIndex": 0,
      "confirmations": null,
      "from": "0x87C5B5874A18B4306DF8a752a6C8cc3E82daFc19",
      "gasPrice": {
        "_hex": "0x108a2d045de"
      },
      "gasLimit": {
        "_hex": "0x493e0"
      },
      "to": "0xC4c51de1AbF5D60DBd329eC0F999Fd8f021ae9fC",
      "value": {
        "_hex": "0x0"
      },
      "nonce": 95,
      "data": "0x8d21618600000000000000000000000000000000000000000000000000000000000000808d5adaad541502933bfca57b79fdcf7b21a9ea7dbcf2e9321d253f5db02ac8f3",
      "r": "0x238ee45044519daa232a83e50e1451c66e6df7919c8ab7e991cc1be951a77b89",
      "s": "0x40b7c17976364cb46f3e52cd015950e2cd12619764efe187d21d9792a64fad4c",
      "v": 27,
      "creates": null,
      "raw": "0xf8ab5f860108a2d045de830493e094c4c51de1abf5d60dbd329ec0f999fd8f021ae9fc80b8448d21618600000000000000000000000000000000000000000000000000000000000000808d5adaad541502933bfca57b79fdcf7b21a9ea7dbcf2e9321d253f5db02ac8f31ba0238ee45044519daa232a83e50e1451c66e6df7919c8ab7e991cc1be951a77b89a040b7c17976364cb46f3e52cd015950e2cd12619764efe187d21d9792a64fad4c",
      "networkId": 0,
      "chainId": 0
    },
    {
      "hash": "0x4b9582b526db2a65d3bb5ac1010ef309c154c4a76df90a1bbd7f8534a7c7098b",
      "blockHash": "0xaf3a980431b7959953b28ca2fd2f3fded11e6eb0f6efeadffd0a5f1621d90fcf",
      "blockNumber": 79705,
      "transactionIndex": 1,
      "confirmations": null,
      "from": "0x2910543Af39abA0Cd09dBb2D50200b3E800A63D2",
      "gasPrice": {
        "_hex": "0xdaa9413ae"
      },
      "gasLimit": {
        "_hex": "0x5208"
      },
      "to": "0x241361559FEEF80Ef137302153Bd9Ed2f25db3eF",
      "value": {
        "_hex": "0x2a68c451e177c740000"
      },
      "nonce": 367,
      "data": "0x",
      "r": "0x605381481359ea2842f3c900b68e8c4a08b49008d3fcbe89c7bc138b56d7101f",
      "s": "0x4b3cd613cdeeeab5d1212014d7b40f40483374c37fd5777b4275a3158b24b82d",
      "v": 28,
      "creates": null,
      "raw": "0xf87082016f850daa9413ae82520894241361559feef80ef137302153bd9ed2f25db3ef8a02a68c451e177c740000801ca0605381481359ea2842f3c900b68e8c4a08b49008d3fcbe89c7bc138b56d7101fa04b3cd613cdeeeab5d1212014d7b40f40483374c37fd5777b4275a3158b24b82d",
      "networkId": 0,
      "chainId": 0
    },
    {
      "hash": "0xe0c52e255815e5e4cfb3f0151cedb6fb4f7b4d4e404e53a3023fab64625364c3",
      "blockHash": "0xaf3a980431b7959953b28ca2fd2f3fded11e6eb0f6efeadffd0a5f1621d90fcf",
      "blockNumber": 79705,
      "transactionIndex": 2,
      "confirmations": null,
      "from": "0x2910543Af39abA0Cd09dBb2D50200b3E800A63D2",
      "gasPrice": {
        "_hex": "0xdaa9413ae"
      },
      "gasLimit": {
        "_hex": "0x5208"
      },
      "to": "0x2C6dA0AeEF23c6a9eA4a8f19c0810e505FDEb231",
      "value": {
        "_hex": "0x56bb59ab42b2f8000"
      },
      "nonce": 368,
      "data": "0x",
      "r": "0x1c4a1049a01c27792999564f804c49a57352fe07bc6a27531405835d0763b555",
      "s": "0x128b71df9563e96370f611910d725365bdf4a616104aa1c76774053ba7881de8",
      "v": 27,
      "creates": null,
      "raw": "0xf86f820170850daa9413ae825208942c6da0aeef23c6a9ea4a8f19c0810e505fdeb23189056bb59ab42b2f8000801ba01c4a1049a01c27792999564f804c49a57352fe07bc6a27531405835d0763b555a0128b71df9563e96370f611910d725365bdf4a616104aa1c76774053ba7881de8",
      "networkId": 0,
      "chainId": 0
    },
    {
      "hash": "0x034027d165de589945ad01729f1d2aeff545b2230bb49965f68cbc4a6511449a",
      "blockHash": "0xaf3a980431b7959953b28ca2fd2f3fded11e6eb0f6efeadffd0a5f1621d90fcf",
      "blockNumber": 79705,
      "transactionIndex": 3,
      "confirmations": null,
      "from": "0x7126C13239472F9B469f7C3BB3749ACd775f2568",
      "gasPrice": {
        "_hex": "0xd7606c1a9"
      },
      "gasLimit": {
        "_hex": "0x15f90"
      },
      "to": "0x8eE1192c99eEaDB7a174a5Fdc09e8E7421d2b6cf",
      "value": {
        "_hex": "0xde0b6b3a7640000"
      },
      "nonce": 0,
      "data": "0x",
      "r": "0x09f8ddcd343876a2d2f32b66d379d7f05f9dba8c3066984d70e074be972d59dd",
      "s": "0x65d0199afef2c9ce58b9dd19255e8c63c8b1c405658e4d09bde94cb2efbb003b",
      "v": 27,
      "creates": null,
      "raw": "0xf86d80850d7606c1a983015f90948ee1192c99eeadb7a174a5fdc09e8e7421d2b6cf880de0b6b3a7640000801ba009f8ddcd343876a2d2f32b66d379d7f05f9dba8c3066984d70e074be972d59dda065d0199afef2c9ce58b9dd19255e8c63c8b1c405658e4d09bde94cb2efbb003b",
      "networkId": 0,
      "chainId": 0
    }
  ]
}