{
  "hash": "0xb4d558a75eb44f5630b6ee60e325a3af67cd16ab46d314c2936e6a89e65c854b",
  "parentHash": "0x464e1cdc586f199ffab8c378244d32f65c21bf6264a125fb158a1da5af257fb8",
  "number": 91048,
  "timestamp": 1439649633,
  "nonce": "0x7bbede7184c9669e",
  "difficulty": 3433991776484,
  "gasLimit": {
    "_hex": "0x2fefd8"
  },
  "gasUsed": {
    "_hex": "0xa410"
  },
  "miner": "0x790b8a3cE86E707ED0eD32bF89B3269692a23CC1",
  "extraData": "0xd783010001844765746887676f312e342e32856c696e7578",
  "transactions": [
    {
      "hash": "0x88885cf2aca9758a81d555b55783108ba08e966ac1365a9d249fb38760bf45d8",
      "blockHash": "0xb4d558a75eb44f5630b6ee60e325a3af67cd16ab46d314c2936e6a89e65c854b",
      "blockNumber": 91048,
      "transactionIndex": 0,
      "confirmations": null,
      "from": "0x120A270bbC009644e35F0bB6ab13f95b8199c4ad",
      "gasPrice": {
        "_hex": "0xd25f05a28"
      },
      "gasLimit": {
        "_hex": "0x3d090"
      },
      "to": "0xc5623FA5c297c05c2d965A336b2068CfA0e567FA",
      "value": {
        "_hex": "0xae14d0d4799313400"
      },
      "nonce": 529,
      "data": "0x",
      "r": "0x7abbe7557ad8574c9f87cf806c79f3e957e71388203be8cdd2118e5f44325510",
      "s": "0x379f27f75edd01917027eb4c38482dcc53fcc0a338706705294fbe3f6d948afd",
      "v": 28,
      "creates": null,
      "raw": "0xf870820211850d25f05a288303d09094c5623fa5c297c05c2d965a336b2068cfa0e567fa890ae14d0d4799313400801ca07abbe7557ad8574c9f87cf806c79f3e957e71388203be8cdd2118e5f44325510a0379f27f75edd01917027eb4c38482dcc53fcc0a338706705294fbe3f6d948afd",
      "networkId": 0,
      "chainId": 0
    },
    {
      "hash": "0x70e15be6c022c35de051e5c99b9be313f52778b010441b02dd4f4f72549788e3",
      "blockHash": "0xb4d558a75eb44f5630b6ee60e325a3af67cd16ab46d314c2936e6a89e65c854b",
      "blockNumber": 91048,
      "transactionIndex": 1,
      "confirmations": null,
      "from": "0x0966686ed6164a792d67B3C62b43F46959073A58",
      "gasPrice": {
        "_hex": "0xba43b7400"
      },
      "gasLimit": {
        "_hex": "0x5208"
      },
      "to": "0xC47Aaa860008be6f65B58c6C6E02a84e666EfE31",
      "value": {
        "_hex": "0xb4658c2753106000"
      },
      "nonce": 1,
      "data": "0x",
      "r": "0xfee516b2ff0e201be490b5455b57a4448d1f7fffe75fc54b6ad1641654b5e1bb",
      "s": "0x23d843856ea273a85d93f3586c6d8799b014e05282c373c9e2873c857ceca220",
      "v": 27,
      "creates": null,
      "raw": "0xf86c01850ba43b740082520894c47aaa860008be6f65b58c6c6e02a84e666efe3188b4658c2753106000801ba0fee516b2ff0e201be490b5455b57a4448d1f7fffe75fc54b6ad1641654b5e1bba023d843856ea273a85d93f3586c6d8799b014e05282c373c9e2873c857ceca220",
      "networkId": 0,
      "chainId": 0
    }
  ]
}