{
  "hash": "0x673d412c2224f3e808eb10e8d024b075dc475982ed40c0a23d9d4166b1ac0a6b",
  "parentHash": "0x620b091326b7d7a4cada48cbc3360bf2c9cf6e472de3193a24990ebf805b928b",
  "number": 59429,
  "timestamp": 1439137922,
  "nonce": "0x270abf9d6fcbc402",
  "difficulty": 1705535793672,
  "gasLimit": {
    "_hex": "0x2fefd8"
  },
  "gasUsed": {
    "_hex": "0x5208"
  },
  "miner": "0x34f0F706648F334eDf39e555766d4EACD54D61dC",
  "extraData": "0x476574682f76312e302e312d38326566323666362f6c696e75782f676f312e34",
  "transactions": [
    {
      "hash": "0x20600ede44ba331bda0f44a34d80deeb31fa432afb844808c8c62ad6da8ef3d3",
      "blockHash": "0x673d412c2224f3e808eb10e8d024b075dc475982ed40c0a23d9d4166b1ac0a6b",
      "blockNumber": 59429,
      "transactionIndex": 0,
      "confirmations": null,
      "from": "0x87898CE53471043FcCa0a2aF4E1dC6d8B3fCf607",
      "gasPrice": {
        "_hex": "0xd16649d39"
      },
      "gasLimit": {
        "_hex": "0x5208"
      },
      "to": "0xBFdD9820a04283b289957956353b5F3C1F665EcF",
      "value": {
        "_hex": "0x4563918244f40000"
      },
      "nonce": 6,
      "data": "0x",
      "r": "0x0ceb1b3a47a19c1888fdbf595b4cd5a630f4a0a058694cd446c1881a42b2f630",
      "s": "0x35e02f28fa82ec436feffe1e58c7160c38bde10b46fe5bb0b64e33e2b3655428",
      "v": 28,
      "creates": null,
      "raw": "0xf86c06850d16649d3982520894bfdd9820a04283b289957956353b5f3c1f665ecf884563918244f40000801ca00ceb1b3a47a19c1888fdbf595b4cd5a630f4a0a058694cd446c1881a42b2f630a035e02f28fa82ec436feffe1e58c7160c38bde10b46fe5bb0b64e33e2b3655428",
      "networkId": 0,
      "chainId": 0
    }
  ]
}