{
  "hash": "0x5efa008188e761057a6df5e155e9f8b69d9fbeb558d17ad51997274e2e3bfd81",
  "parentHash": "0x7cbf19efd6baa6055aec4a1efc3fd88712de85544942a9c5bc4d281c61deb788",
  "number": 122313,
  "timestamp": 1440191972,
  "nonce": "0x1f28ec1c0b1685b0",
  "difficulty": 4473015171965,
  "gasLimit": {
    "_hex": "0x2fefd8"
  },
  "gasUsed": {
    "_hex": "0x18326"
  },
  "miner": "0x52bc44d5378309EE2abF1539BF71dE1b7d7bE3b5",
  "extraData": "0xd783010002844765746887676f312e342e32856c696e7578",
  "transactions": [
    {
      "hash": "0x35583020ed50377fda8d53c57375c56e701e10011b17501366b4aa5f4901f5ef",
      "blockHash": "0x5efa008188e761057a6df5e155e9f8b69d9fbeb558d17ad51997274e2e3bfd81",
      "blockNumber": 122313,
      "transactionIndex": 0,
      "confirmations": null,
      "from": "0x59b7ee394b4F4EED8494C7920103D7e7e7E2BFF4",
      "gasPrice": {
        "_hex": "0xba43b7400"
      },
      "gasLimit": {
        "_hex": "0x24dd8"
      },
      "to": "0xE28e72FCf78647ADCe1F1252F240bbfaebD63BcC",
      "value": {
        "_hex": "0x4563918244f40000"
      },
      "nonce": 7,
      "data": "0x45466f3a",
      "r": "0x5452ad5e37f3e17cc2a6172e6c1968713108382dc06081cd420c972155bca9e6",
      "s": "0x60b3df3f5ef7809044024eed249d58f6cbd5c8c197c117b01d680c4fa51925ed",
      "v": 27,
      "creates": null,
      "raw": "0xf87107850ba43b740083024dd894e28e72fcf78647adce1f1252f240bbfaebd63bcc884563918244f400008445466f3a1ba05452ad5e37f3e17cc2a6172e6c1968713108382dc06081cd420c972155bca9e6a060b3df3f5ef7809044024eed249d58f6cbd5c8c197c117b01d680c4fa51925ed",
      "networkId": 0,
      "chainId": 0
    }
  ]
}