{
  "hash": "0xc2c3ee78cb832fb6369b0ef79858f4aa0fd98aa054c8ce52cb44d73e0683360a",
  "parentHash": "0x406b23fd7c5cdebcbb9203945cf272161b4564a64a9d0e1e9f538d1dfde2fe1f",
  "number": 48639,
  "timestamp": 1438960251,
  "nonce": "0xbb57b9621844347c",
  "difficulty": 1473594463072,
  "gasLimit": {
    "_hex": "0x1b1c6"
  },
  "gasUsed": {
    "_hex": "0x546c"
  },
  "miner": "0xF2d2AfF1320476cb8C6b607199D23175cc595693",
  "extraData": "0x476574682f76312e302e312f77696e646f77732f676f312e342e32",
  "transactions": [
    {
      "hash": "0xb7fcadc58ad3053068e84fc481f43bababc36edd4acee6916d8e06c24628784d",
      "blockHash": "0xc2c3ee78cb832fb6369b0ef79858f4aa0fd98aa054c8ce52cb44d73e0683360a",
      "blockNumber": 48639,
      "transactionIndex": 0,
      "confirmations": null,
      "from": "0x6bcCCe69ca0223A421F5c672A29e29c6Dc73F268",
      "gasPrice": {
        "_hex": "0xe7cff2604"
      },
      "gasLimit": {
        "_hex": "0x15f90"
      },
      "to": "0x2910543Af39abA0Cd09dBb2D50200b3E800A63D2",
      "value": {
        "_hex": "0xc249fdd327780000"
      },
      "nonce": 0,
      "data": "0x454e374b52565a3730",
      "r": "0x32b629ae9e6752b3753cbd1e63acb1e674b823307fb27d9fad3366e990b0a2dd",
      "s": "0x301bf40367a004b0dc7bbb4d8f743c3d36e41a98c94528ec67bb8af4d84ebf62",
      "v": 28,
      "creates": null,
      "raw": "0xf87680850e7cff260483015f90942910543af39aba0cd09dbb2d50200b3e800a63d288c249fdd32778000089454e374b52565a37301ca032b629ae9e6752b3753cbd1e63acb1e674b823307fb27d9fad3366e990b0a2dda0301bf40367a004b0dc7bbb4d8f743c3d36e41a98c94528ec67bb8af4d84ebf62",
      "networkId": 0,
      "chainId": 0
    }
  ]
}