{
  "hash": "0x3a82b5e529179da0969cef9ca4e207a28fc1c54d0b04a660cbdf349739604c42",
  "parentHash": "0x69eb119e11b388eb2e0de3ac461e3a08f524a9600ad194641e1f57a2f8e86ef4",
  "number": 83948,
  "timestamp": 1439543022,
  "nonce": "0x5a40b5d20f023e67",
  "difficulty": 2475505772893,
  "gasLimit": {
    "_hex": "0x2fefd8"
  },
  "gasUsed": {
    "_hex": "0x5208"
  },
  "miner": "0x753562eEA69CD2D342A9c07EDD49b9753dc0F01e",
  "extraData": "0x",
  "transactions": [
    {
      "hash": "0x0fb1c12c3eb4bd8d5b11021bdb83164b586a39e62aa2d4dfbba87003cc2ff748",
      "blockHash": "0x3a82b5e529179da0969cef9ca4e207a28fc1c54d0b04a660cbdf349739604c42",
      "blockNumber": 83948,
      "transactionIndex": 0,
      "confirmations": null,
      "from": "0x120A270bbC009644e35F0bB6ab13f95b8199c4ad",
      "gasPrice": {
        "_hex": "0xcf7047045"
      },
      "gasLimit": {
        "_hex": "0x3d090"
      },
      "to": "0x9230b1300eF6Bc6abD4b702f79a69dee0fDCe4C1",
      "value": {
        "_hex": "0x859a27cf35f7c3c00"
      },
      "nonce": 418,
      "data": "0x",
      "r": "0xb928d68369fc5b1990aaa8380d6a0dab50b6ba9df1bb50278ec7a5f1327a809a",
      "s": "0x781683b43251587b9eba4c129e5b7065b9f8a0b31fcd43deb7f8a054db2a1d44",
      "v": 28,
      "creates": null,
      "raw": "0xf8708201a2850cf70470458303d090949230b1300ef6bc6abd4b702f79a69dee0fdce4c1890859a27cf35f7c3c00801ca0b928d68369fc5b1990aaa8380d6a0dab50b6ba9df1bb50278ec7a5f1327a809aa0781683b43251587b9eba4c129e5b7065b9f8a0b31fcd43deb7f8a054db2a1d44",
      "networkId": 0,
      "chainId": 0
    }
  ]
}