{
  "hash": "0x1ee9aa83372a8d24a4fec107871566be71a9af1c616b720a13a0ae5d7900cbfd",
  "parentHash": "0x642b2b3f68c56a648b3172e20ec07a0588b2136c8e3a550d446fc645c5b015dd",
  "number": 93906,
  "timestamp": 1439699637,
  "nonce": "0xbe57bc84c8e9482a",
  "difficulty": 3469896810451,
  "gasLimit": {
    "_hex": "0x2fefd8"
  },
  "gasUsed": {
    "_hex": "0xa410"
  },
  "miner": "0xA21Ba94e45f0E168dA824fC67aC9cb5Cb577a8aF",
  "extraData": "0x",
  "transactions": [
    {
      "hash": "0x7a144c684511a596721060ffefeb31ea153e320e22096291106c1a8ef8b17cb8",
      "blockHash": "0x1ee9aa83372a8d24a4fec107871566be71a9af1c616b720a13a0ae5d7900cbfd",
      "blockNumber": 93906,
      "transactionIndex": 0,
      "confirmations": null,
      "from": "0x0A87bCDa651fF8811d1E497138251Ac0c7654547",
      "gasPrice": {
        "_hex": "0xd0c50cd3c"
      },
      "gasLimit": {
        "_hex": "0x5208"
      },
      "to": "0x32Be343B94f860124dC4fEe278FDCBD38C102D88",
      "value": {
        "_hex": "0xddc885841180400"
      },
      "nonce": 0,
      "data": "0x",
      "r": "0xe70edb81e21cbae35d446ca1da43a9abaf351f42be3979be933c7732601315e9",
      "s": "0x2468ceaa1ab44c257d56a4e0b1bc01258364a6f4b7d1c798c4df62af708a827b",
      "v": 28,
      "creates": null,
      "raw": "0xf86c80850d0c50cd3c8252089432be343b94f860124dc4fee278fdcbd38c102d88880ddc885841180400801ca0e70edb81e21cbae35d446ca1da43a9abaf351f42be3979be933c7732601315e9a02468ceaa1ab44c257d56a4e0b1bc01258364a6f4b7d1c798c4df62af708a827b",
      "networkId": 0,
      "chainId": 0
    },
    {
      "hash": "0xaed20abef30903a01d34f9a56cb256991b72a7f51ed85d375034181cc106ef1e",
      "blockHash": "0x1ee9aa83372a8d24a4fec107871566be71a9af1c616b720a13a0ae5d7900cbfd",
      "blockNumber": 93906,
      "transactionIndex": 1,
      "confirmations": null,
      "from": "0xb1abce2918E21ddb93AA452731a12672A3d9F75a",
      "gasPrice": {
        "_hex": "0xd0c50cd3c"
      },
      "gasLimit": {
        "_hex": "0x5208"
      },
      "to": "0x32Be343B94f860124dC4fEe278FDCBD38C102D88",
      "value": {
        "_hex": "0x7ce2333c6974f800"
      },
      "nonce": 8,
      "data": "0x",
      "r": "0x9758d58474bd93c885f4486c1af722d87257b2b69faaa00c64a75e79fd6d9ae7",
      "s": "0x5a4004eb3c98c85d098ff25e772dad4e45b5ccb0282919fdf087f3953f93dc78",
      "v": 28,
      "creates": null,
      "raw": "0xf86c08850d0c50cd3c8252089432be343b94f860124dc4fee278fdcbd38c102d88887ce2333c6974f800801ca09758d58474bd93c885f4486c1af722d87257b2b69faaa00c64a75e79fd6d9ae7a05a4004eb3c98c85d098ff25e772dad4e45b5ccb0282919fdf087f3953f93dc78",
      "networkId": 0,
      "chainId": 0
    }
  ]
}