{
  "hash": "0x5267770830e917bd4955041d87ecddd070f0787ca709447ce51494dd4c614b01",
  "parentHash": "0x70df2e211ced026a1b8c30ebf07df9a5a73b189985460d4f7dc81a7dbd27fc39",
  "number": 70630,
  "timestamp": 1439323056,
  "nonce": "0x90fa61794a3bd644",
  "difficulty": 2139498398227,
  "gasLimit": {
    "_hex": "0x2fefd8"
  },
  "gasUsed": {
    "_hex": "0xa674"
  },
  "miner": "0xf927a40C8B7F6E07c5af7FA2155B4864a4112B13",
  "extraData": "0x",
  "transactions": [
    {
      "hash": "0x2e5971b20e9953ab2c95dcd1e505b42ed4d3c759b7c3eab7638d7dfe0b0300ad",
      "blockHash": "0x5267770830e917bd4955041d87ecddd070f0787ca709447ce51494dd4c614b01",
      "blockNumber": 70630,
      "transactionIndex": 0,
      "confirmations": null,
      "from": "0xe408fceaa1b98F3C640f48fcbA39f056066D6308",
      "gasPrice": {
        "_hex": "0xdff5842ab"
      },
      "gasLimit": {
        "_hex": "0x61a8"
      },
      "to": "0x50056353D06a71b1f427499419D04F81f5dE4F20",
      "value": {
        "_hex": "0x3635c9adc5dea00000"
      },
      "nonce": 1,
      "data": "0x",
      "r": "0xe66b869bdaeefc9eab39901d666185c267bf89bebcf4d3d5ba68989d7e47d2d6",
      "s": "0x336fc0bf0fe92dc73260fc997acd843a1dc13a41e9bbed68a557135bc43e530a",
      "v": 27,
      "creates": null,
      "raw": "0xf86d01850dff5842ab8261a89450056353d06a71b1f427499419d04f81f5de4f20893635c9adc5dea00000801ba0e66b869bdaeefc9eab39901d666185c267bf89bebcf4d3d5ba68989d7e47d2d6a0336fc0bf0fe92dc73260fc997acd843a1dc13a41e9bbed68a557135bc43e530a",
      "networkId": 0,
      "chainId": 0
    },
    {
      "hash": "0x078f8b3a098a63fe5f1156cff8719bf29d7141afb27ba444c149d13164499531",
      "blockHash": "0x5267770830e917bd4955041d87ecddd070f0787ca709447ce51494dd4c614b01",
      "blockNumber": 70630,
      "transactionIndex": 1,
      "confirmations": null,
      "from": "0x76d4a9bc9612bE738A81d0fE632b00B971E2bB9a",
      "gasPrice": {
        "_hex": "0xcd01555c5"
      },
      "gasLimit": {
        "_hex": "0x55f0"
      },
      "to": "0x2910543Af39abA0Cd09dBb2D50200b3E800A63D2",
      "value": {
        "_hex": "0xde0b6b3a7640000"
      },
      "nonce": 2,
      "data": "0x454e5a324343504238",
      "r": "0x21de5f6ce1fead7dcbcff369f5b7c23ed8323a9a864807826225726dd1722a7a",
      "s": "0x06b8bb5de132671706a1e37df6723a93f43495f6d523f860b7dce6707867e1e4",
      "v": 27,
      "creates": null,
      "raw": "0xf87502850cd01555c58255f0942910543af39aba0cd09dbb2d50200b3e800a63d2880de0b6b3a764000089454e5a3243435042381ba021de5f6ce1fead7dcbcff369f5b7c23ed8323a9a864807826225726dd1722a7aa006b8bb5de132671706a1e37df6723a93f43495f6d523f860b7dce6707867e1e4",
      "networkId": 0,
      "chainId": 0
    }
  ]
}