{
  "hash": "0xafe48a88d00f68cf31e0c679105fd6a9e919ddad7eb9b8bbe390333c74617e16",
  "parentHash": "0xed89ca948d9fe6d87cbd100df44bfa4328a6913596fbe9772eb6ae6b821f9d74",
  "number": 106977,
  "timestamp": 1439913925,
  "nonce": "0x7b495afc4004fa44",
  "difficulty": 4450671448863,
  "gasLimit": {
    "_hex": "0x2fefd8"
  },
  "gasUsed": {
    "_hex": "0xa410"
  },
  "miner": "0x5F8F73E26CdF436f19Cb24C82F90A15AFe55b592",
  "extraData": "0x476574682f76312e302e312f77696e646f77732f676f312e342e32",
  "transactions": [
    {
      "hash": "0xed37b1b2386e392a47e79a5ec81aaa851fd2befd24bdd2da50d9fb4772e21fe2",
      "blockHash": "0xafe48a88d00f68cf31e0c679105fd6a9e919ddad7eb9b8bbe390333c74617e16",
      "blockNumber": 106977,
      "transactionIndex": 0,
      "confirmations": null,
      "from": "0xC603Ab5ef41fC61AA8b76bEddb09e3Cfcbb174BD",
      "gasPrice": {
        "_hex": "0xcda6f5b5c"
      },
      "gasLimit": {
        "_hex": "0x15f90"
      },
      "to": "0x8F79f76381Aad7B98C19aF55eE75fdfEeb012211",
      "value": {
        "_hex": "0x2a802f8630a240000"
      },
      "nonce": 39,
      "data": "0x",
      "r": "0x6751fbe2c0bdfcf48d9d5e4106249c996735bd43a7e83854ffbf80e4760b62c6",
      "s": "0x22c63ed9f36cd4a66f447af072d44092193c642c70347537bc8752cb04de3f2c",
      "v": 27,
      "creates": null,
      "raw": "0xf86e27850cda6f5b5c83015f90948f79f76381aad7b98c19af55ee75fdfeeb0122118902a802f8630a240000801ba06751fbe2c0bdfcf48d9d5e4106249c996735bd43a7e83854ffbf80e4760b62c6a022c63ed9f36cd4a66f447af072d44092193c642c70347537bc8752cb04de3f2c",
      "networkId": 0,
      "chainId": 0
    },
    {
      "hash": "0x82835ead5c6f9b00d8e0acd7f6690837be7cffc9a6df30828a67915f7433ef5d",
      "blockHash": "0xafe48a88d00f68cf31e0c679105fd6a9e919ddad7eb9b8bbe390333c74617e16",
      "blockNumber": 106977,
      "transactionIndex": 1,
      "confirmations": null,
      "from": "0x2fd8Ad8C541bc201DD24a3C7b60FCBBB6429A4E2",
      "gasPrice": {
        "_hex": "0xba43b7400"
      },
      "gasLimit": {
        "_hex": "0x5208"
      },
      "to": "0xC47Aaa860008be6f65B58c6C6E02a84e666EfE31",
      "value": {
        "_hex": "0x7ce2b158b5806000"
      },
      "nonce": 4,
      "data": "0x",
      "r": "0xcda91a28f6bdcbc5dbbe898332b840484534be70b7a1cbfee556b6edb35898a0",
      "s": "0x180262ac11d042a0450f6276160344d23ed5c0aabc9c52e5f71ac4a3ad7bcd50",
      "v": 28,
      "creates": null,
      "raw": "0xf86c04850ba43b740082520894c47aaa860008be6f65b58c6c6e02a84e666efe31887ce2b158b5806000801ca0cda91a28f6bdcbc5dbbe898332b840484534be70b7a1cbfee556b6edb35898a0a0180262ac11d042a0450f6276160344d23ed5c0aabc9c52e5f71ac4a3ad7bcd50",
      "networkId": 0,
      "chainId": 0
    }
  ]
}