{
  "hash": "0xa212264b23535256f0f11c3ca3a8c48f31190dd8ea67e91bc357eb2d4e9768a9",
  "parentHash": "0xf8dd15c3b3ec7dc6b5d5c1f9a2653f5d56656f5c385cc68696d99c830acb3d4c",
  "number": 82958,
  "timestamp": 1439527628,
  "nonce": "0x734877d1a85d6d44",
  "difficulty": 2413727222206,
  "gasLimit": {
    "_hex": "0x2fefd8"
  },
  "gasUsed": {
    "_hex": "0x5208"
  },
  "miner": "0xe090Ffdced499691fA9379752a59F8A058c1eE4A",
  "extraData": "0x476574682f76312e302e312f6c696e75782f676f312e342e32",
  "transactions": [
    {
      "hash": "0x9191285e9e9b1ca5054d9d38cef61603380e2a53c7f624453808a99512722eb4",
      "blockHash": "0xa212264b23535256f0f11c3ca3a8c48f31190dd8ea67e91bc357eb2d4e9768a9",
      "blockNumber": 82958,
      "transactionIndex": 0,
      "confirmations": null,
      "from": "0x4DF05bc6D92d5cc80c82abCAc7261607d6F28E97",
      "gasPrice": {
        "_hex": "0xd3d37f23a"
      },
      "gasLimit": {
        "_hex": "0x15f90"
      },
      "to": "0x4AbccD4EE4290bFC0b721D862c6ea13b2C3871ff",
      "value": {
        "_hex": "0x182619aa3df6e2000"
      },
      "nonce": 0,
      "data": "0x",
      "r": "0x4f5216a119c2866d094255ea74ff4b4ae055244450173a18844f9a62138bf2e2",
      "s": "0x4719f9c3336c058beb6a5f4fbc592a00382d7d72016fd6b100e144a21b2ccb9d",
      "v": 27,
      "creates": null,
      "raw": "0xf86e80850d3d37f23a83015f90944abccd4ee4290bfc0b721d862c6ea13b2c3871ff890182619aa3df6e2000801ba04f5216a119c2866d094255ea74ff4b4ae055244450173a18844f9a62138bf2e2a04719f9c3336c058beb6a5f4fbc592a00382d7d72016fd6b100e144a21b2ccb9d",
      "networkId": 0,
      "chainId": 0
    }
  ]
}