{
  "hash": "0xe9f32c33a7b2cc67be8dda11eddda73501e836594f6a8a761b95f0a60d59d7ff",
  "parentHash": "0x024c891272242a53c77c82e5361151191a116d552800edff65bf0aff91e5776b",
  "number": 94322,
  "timestamp": 1439706322,
  "nonce": "0xa9ebaab2a1cfc839",
  "difficulty": 3483304858560,
  "gasLimit": {
    "_hex": "0x2fefd8"
  },
  "gasUsed": {
    "_hex": "0x5208"
  },
  "miner": "0x723E05fF30e4ba7A87b4D7D459eE5B488A9c36d1",
  "extraData": "0x",
  "transactions": [
    {
      "hash": "0x68a0d619351caaeade2770487fb3c11c772f737f3fab5556022b9a31bd7ef682",
      "blockHash": "0xe9f32c33a7b2cc67be8dda11eddda73501e836594f6a8a761b95f0a60d59d7ff",
      "blockNumber": 94322,
      "transactionIndex": 0,
      "confirmations": null,
      "from": "0x859337F6BeF10dEE917c9F7086B47Fc9B019d45b",
      "gasPrice": {
        "_hex": "0xba43b7400"
      },
      "gasLimit": {
        "_hex": "0x5208"
      },
      "to": "0xC47Aaa860008be6f65B58c6C6E02a84e666EfE31",
      "value": {
        "_hex": "0x2e3246881d39278f0"
      },
      "nonce": 2,
      "data": "0x",
      "r": "0x76057cfb2269583e4a83b76a2bccef9e5528285ef664f7ce16e79c85ba635ce5",
      "s": "0x601f11a2ecdbb391ab73407ac6c087fa90240471c2bd8a36b2d45ec9b65630cf",
      "v": 28,
      "creates": null,
      "raw": "0xf86d02850ba43b740082520894c47aaa860008be6f65b58c6c6e02a84e666efe318902e3246881d39278f0801ca076057cfb2269583e4a83b76a2bccef9e5528285ef664f7ce16e79c85ba635ce5a0601f11a2ecdbb391ab73407ac6c087fa90240471c2bd8a36b2d45ec9b65630cf",
      "networkId": 0,
      "chainId": 0
    }
  ]
}