{
  "hash": "0x2944a5487bba382a0f51a420e5c6614054c701d12bf726895a741873cca901e0",
  "parentHash": "0xb364fd76c709cdda028faf2ba7ec12449034ef01ce303953da5a408ff1607481",
  "number": 121396,
  "timestamp": 1440176537,
  "nonce": "0xc6a032cc236cc0a6",
  "difficulty": 4393409704132,
  "gasLimit": {
    "_hex": "0x2fefd8"
  },
  "gasUsed": {
    "_hex": "0x5208"
  },
  "miner": "0xcf00A85f3826941e7A25BFcF9Aac575d40410852",
  "extraData": "0x",
  "transactions": [
    {
      "hash": "0x7f2dc87dc6b9c4af889636dfa4f0332c8b144f615f8cd3b2bed12313c319e08c",
      "blockHash": "0x2944a5487bba382a0f51a420e5c6614054c701d12bf726895a741873cca901e0",
      "blockNumber": 121396,
      "transactionIndex": 0,
      "confirmations": null,
      "from": "0x2910543Af39abA0Cd09dBb2D50200b3E800A63D2",
      "gasPrice": {
        "_hex": "0xd0073c707"
      },
      "gasLimit": {
        "_hex": "0x5208"
      },
      "to": "0xFFf1471A813EaF20Ade11C3d58E3a64157216587",
      "value": {
        "_hex": "0x464080b5ebec38000"
      },
      "nonce": 1192,
      "data": "0x",
      "r": "0x1b98b155940d1ddecf2802268527e8e9b109e45c9f5d00789c6534a00732fa89",
      "s": "0x19fbb55e4d690207b5d0a3409999d1f36569c2dc56717c1533e754df0c07e7bd",
      "v": 28,
      "creates": null,
      "raw": "0xf86f8204a8850d0073c70782520894fff1471a813eaf20ade11c3d58e3a64157216587890464080b5ebec38000801ca01b98b155940d1ddecf2802268527e8e9b109e45c9f5d00789c6534a00732fa89a019fbb55e4d690207b5d0a3409999d1f36569c2dc56717c1533e754df0c07e7bd",
      "networkId": 0,
      "chainId": 0
    }
  ]
}