{
  "hash": "0xe8f0a3acb524fb3837c3ea9fd78976bd7de9504addab84205f43de8dafe04f8b",
  "parentHash": "0x29bffd3466a2ecc04100ee3dc285d28b0d70c6ea2e2095ff79f4dcdc3b569a18",
  "number": 84226,
  "timestamp": 1439546674,
  "nonce": "0x7a06a808343e28b3",
  "difficulty": 2529182086083,
  "gasLimit": {
    "_hex": "0x2fefd8"
  },
  "gasUsed": {
    "_hex": "0xa410"
  },
  "miner": "0xF9df7dCaA26C039BD675B008D4991b34717E0703",
  "extraData": "0x",
  "transactions": [
    {
      "hash": "0x59b6e62855d23c7d7da3cde83d85808a073f5257b5cb3d3f19074b1faf5703b9",
      "blockHash": "0xe8f0a3acb524fb3837c3ea9fd78976bd7de9504addab84205f43de8dafe04f8b",
      "blockNumber": 84226,
      "transactionIndex": 0,
      "confirmations": null,
      "from": "0x80bdc955a46D4a80d5EE36Bd4ae88cDE91aCaE41",
      "gasPrice": {
        "_hex": "0xcfc9a810f"
      },
      "gasLimit": {
        "_hex": "0x55f0"
      },
      "to": "0x5248EfBC7319bd65d436374266765D9727253F12",
      "value": {
        "_hex": "0xde0b6b3a7640000"
      },
      "nonce": 0,
      "data": "0x",
      "r": "0x181a6a2482046ee8df6f834f607076a6f1fad52dbf862f1ab57dc4f8495bb7ac",
      "s": "0x5aa2728bf221762172b7e958a764b7226100436de8995f0f26d8dee708b1a234",
      "v": 27,
      "creates": null,
      "raw": "0xf86c80850cfc9a810f8255f0945248efbc7319bd65d436374266765d9727253f12880de0b6b3a7640000801ba0181a6a2482046ee8df6f834f607076a6f1fad52dbf862f1ab57dc4f8495bb7aca05aa2728bf221762172b7e958a764b7226100436de8995f0f26d8dee708b1a234",
      "networkId": 0,
      "chainId": 0
    },
    {
      "hash": "0x033a6bbb0f1a0ff0add5bea2ee0d792e32e8e392b47f6fcabc11e33546cbab55",
      "blockHash": "0xe8f0a3acb524fb3837c3ea9fd78976bd7de9504addab84205f43de8dafe04f8b",
      "blockNumber": 84226,
      "transactionIndex": 1,
      "confirmations": null,
      "from": "0x2910543Af39abA0Cd09dBb2D50200b3E800A63D2",
      "gasPrice": {
        "_hex": "0xcfb84b28f"
      },
      "gasLimit": {
        "_hex": "0x5208"
      },
      "to": "0x5571A8b1995e54aE5dCE0f8A8003f60593D8331d",
      "value": {
        "_hex": "0x4551ce090d138000"
      },
      "nonce": 543,
      "data": "0x",
      "r": "0xe185c0ca083123974f2431114b2455de346e08a4fb4495e04c028429619f245d",
      "s": "0x65abe78f408eeda1d5df99357d896eabe587983d8699407962b6b411026bfa31",
      "v": 27,
      "creates": null,
      "raw": "0xf86e82021f850cfb84b28f825208945571a8b1995e54ae5dce0f8a8003f60593d8331d884551ce090d138000801ba0e185c0ca083123974f2431114b2455de346e08a4fb4495e04c028429619f245da065abe78f408eeda1d5df99357d896eabe587983d8699407962b6b411026bfa31",
      "networkId": 0,
      "chainId": 0
    }
  ]
}