{
  "hash": "0xe5b4ef72ba4e8e96ceaf7d637d2ad8dd00233b18e765d37a08ebbf4c16ec1867",
  "parentHash": "0x431afb88449abafcd9bd26f10c538de3fea181c4f0bede40e1f320a95fb9022b",
  "number": 95757,
  "timestamp": 1439729138,
  "nonce": "0x4bbd0907293f10b5",
  "difficulty": 3626753141864,
  "gasLimit": {
    "_hex": "0x2fefd8"
  },
  "gasUsed": {
    "_hex": "0x5208"
  },
  "miner": "0xe6A7a1d47ff21B6321162AEA7C6CB457D5476Bca",
  "extraData": "0x476574682f76312e302e312d38326566323666362f6c696e75782f676f312e34",
  "transactions": [
    {
      "hash": "0x5cf83a45ef8027bd963bc0c82663330e39c04577e850f23d1834f66bede6f6d3",
      "blockHash": "0xe5b4ef72ba4e8e96ceaf7d637d2ad8dd00233b18e765d37a08ebbf4c16ec1867",
      "blockNumber": 95757,
      "transactionIndex": 0,
      "confirmations": null,
      "from": "0x1332996a46dcBBE02f9cF164Dfc153aB976a9766",
      "gasPrice": {
        "_hex": "0xba43b7400"
      },
      "gasLimit": {
        "_hex": "0x5208"
      },
      "to": "0xC47Aaa860008be6f65B58c6C6E02a84e666EfE31",
      "value": {
        "_hex": "0xc0e2fd629cea38f0"
      },
      "nonce": 6,
      "data": "0x",
      "r": "0x36a83f5347d8b0ad6671637248dfe55377cc0b84ef4756b3741488b497257582",
      "s": "0x45cc38ca925378e5b7cccc40bfbc36f49c671f8ed5f045987537958449728c85",
      "v": 28,
      "creates": null,
      "raw": "0xf86c06850ba43b740082520894c47aaa860008be6f65b58c6c6e02a84e666efe3188c0e2fd629cea38f0801ca036a83f5347d8b0ad6671637248dfe55377cc0b84ef4756b3741488b497257582a045cc38ca925378e5b7cccc40bfbc36f49c671f8ed5f045987537958449728c85",
      "networkId": 0,
      "chainId": 0
    }
  ]
}