{
  "hash": "0xf38216bcd7be6463c6d1f22523e51fc5e7679cbd5b8e7ec1c69c2efed2add674",
  "parentHash": "0xc4e9ce4c1c960779c9846d5cf939ace1117b776f7979b9ac8bfe952c49745008",
  "number": 76449,
  "timestamp": 1439420902,
  "nonce": "0x41a9068170c160a1",
  "difficulty": 2222098347534,
  "gasLimit": {
    "_hex": "0x2fefd8"
  },
  "gasUsed": {
    "_hex": "0x5208"
  },
  "miner": "0xf927a40C8B7F6E07c5af7FA2155B4864a4112B13",
  "extraData": "0x",
  "transactions": [
    {
      "hash": "0xf0f802135dd54c4672d9f0ef30fd86968e497895717227c5f0c4a6f0082efacd",
      "blockHash": "0xf38216bcd7be6463c6d1f22523e51fc5e7679cbd5b8e7ec1c69c2efed2add674",
      "blockNumber": 76449,
      "transactionIndex": 0,
      "confirmations": null,
      "from": "0x120A270bbC009644e35F0bB6ab13f95b8199c4ad",
      "gasPrice": {
        "_hex": "0xd41d862ba"
      },
      "gasLimit": {
        "_hex": "0x3d090"
      },
      "to": "0xc9CBB4dB18605df3f84dfB719A58c9C1252cE641",
      "value": {
        "_hex": "0xd8d726b7177a80000"
      },
      "nonce": 313,
      "data": "0x",
      "r": "0xe90d546ad509eaed822b1a1fc30ffad970eb5e1c89b8e05bad9e55bff413efd2",
      "s": "0x6a9508f7e763c1646066f727bf8fb34fae640a83ddf682ef5e813c8498891f2b",
      "v": 28,
      "creates": null,
      "raw": "0xf870820139850d41d862ba8303d09094c9cbb4db18605df3f84dfb719a58c9c1252ce641890d8d726b7177a80000801ca0e90d546ad509eaed822b1a1fc30ffad970eb5e1c89b8e05bad9e55bff413efd2a06a9508f7e763c1646066f727bf8fb34fae640a83ddf682ef5e813c8498891f2b",
      "networkId": 0,
      "chainId": 0
    }
  ]
}