{
  "hash": "0xea5266a99b2c162a5e7f091e3ed265cceac88399410547042882814f31595e36",
  "parentHash": "0x4529ea47fa11086ef188c89cac7d66534db78301e2c9516d2952936082009433",
  "number": 94049,
  "timestamp": 1439701791,
  "nonce": "0xf04e2497148315c5",
  "difficulty": 3485119524829,
  "gasLimit": {
    "_hex": "0x2fefd8"
  },
  "gasUsed": {
    "_hex": "0x5208"
  },
  "miner": "0xe6A7a1d47ff21B6321162AEA7C6CB457D5476Bca",
  "extraData": "0x476574682f76312e302e312d38326566323666362f6c696e75782f676f312e34",
  "transactions": [
    {
      "hash": "0x06d7dbc900504296982ed06b343d124c77aff7d33df55c269e590f7b5367a3d0",
      "blockHash": "0xea5266a99b2c162a5e7f091e3ed265cceac88399410547042882814f31595e36",
      "blockNumber": 94049,
      "transactionIndex": 0,
      "confirmations": null,
      "from": "0xc3631c7698b6C5111989BF452727B3f9395a6deA",
      "gasPrice": {
        "_hex": "0x45d964b800"
      },
      "gasLimit": {
        "_hex": "0x5208"
      },
      "to": "0x431FDD9f2Fdc4A532867E0e0a85463436807d17C",
      "value": {
        "_hex": "0x3635c9adc5dea00000"
      },
      "nonce": 5,
      "data": "0x",
      "r": "0xbaeec9fd191091c03ec410a2c1598d29d7d4315e532a5d4725585a879b972406",
      "s": "0x5b6dc1a973c2a15e97c307bd82b451608aee73fef7bd8fff6d9a8ad37baa8624",
      "v": 27,
      "creates": null,
      "raw": "0xf86d058545d964b80082520894431fdd9f2fdc4a532867e0e0a85463436807d17c893635c9adc5dea00000801ba0baeec9fd191091c03ec410a2c1598d29d7d4315e532a5d4725585a879b972406a05b6dc1a973c2a15e97c307bd82b451608aee73fef7bd8fff6d9a8ad37baa8624",
      "networkId": 0,
      "chainId": 0
    }
  ]
}