{
  "hash": "0xeb13d9034c06b69604d131b8274993009a21681385ef767730c27ab400277aba",
  "parentHash": "0x310d7dbb893497d9c29605b2f4d49ee037d34fa1dce4a27d370cb00349ebbe5c",
  "number": 54902,
  "timestamp": 1439061935,
  "nonce": "0x0b3788007b5d36f3",
  "difficulty": 1616429569263,
  "gasLimit": {
    "_hex": "0x2fefd8"
  },
  "gasUsed": {
    "_hex": "0x5208"
  },
  "miner": "0xbb7B8287f3F0a933474a79eAe42CBCa977791171",
  "extraData": "0x476574682f4c5649562f76312e302e312f6c696e75782f676f312e342e32",
  "transactions": [
    {
      "hash": "0xada3d71811b0b1b35b6f485edaccd0fd403483f8297d519fae6cea269b6d0947",
      "blockHash": "0xeb13d9034c06b69604d131b8274993009a21681385ef767730c27ab400277aba",
      "blockNumber": 54902,
      "transactionIndex": 0,
      "confirmations": null,
      "from": "0x1308A2e95c0160B90803ddCA9B9a5bb55E416d79",
      "gasPrice": {
        "_hex": "0xe8d4a51000"
      },
      "gasLimit": {
        "_hex": "0x15f90"
      },
      "to": "0x39C1Cd9aBe9a9420299BB06b8B4b5047f4C76f9b",
      "value": {
        "_hex": "0x8ef0f36da2860000"
      },
      "nonce": 13,
      "data": "0x",
      "r": "0x7fd61678946ded84c4762281b87e3a53f0b8667a5ba9d942d22fc6424b60b1a6",
      "s": "0x323bee0ea91681717e2fb588dd187aa4ff6d99a605311885844d6279e32377fa",
      "v": 27,
      "creates": null,
      "raw": "0xf86d0d85e8d4a5100083015f909439c1cd9abe9a9420299bb06b8b4b5047f4c76f9b888ef0f36da2860000801ba07fd61678946ded84c4762281b87e3a53f0b8667a5ba9d942d22fc6424b60b1a6a0323bee0ea91681717e2fb588dd187aa4ff6d99a605311885844d6279e32377fa",
      "networkId": 0,
      "chainId": 0
    }
  ]
}