{
  "hash": "0x4e6f94de11f6b9fa48d91c2d451c121c54a7178c3d03fef70132e13f78a67522",
  "parentHash": "0x428558c0521c5824dbf93253893940ddf12d73994babd6b0f1a6bef194b6f0cb",
  "number": 71092,
  "timestamp": 1439330580,
  "nonce": "0x2d891f9ed1902f77",
  "difficulty": 2151952800001,
  "gasLimit": {
    "_hex": "0x2fefd8"
  },
  "gasUsed": {
    "_hex": "0x5208"
  },
  "miner": "0xf927a40C8B7F6E07c5af7FA2155B4864a4112B13",
  "extraData": "0x",
  "transactions": [
    {
      "hash": "0x2232165809205dc71b6d22d36563495c09f3fcd2f3db1cb2ced5779ef2747311",
      "blockHash": "0x4e6f94de11f6b9fa48d91c2d451c121c54a7178c3d03fef70132e13f78a67522",
      "blockNumber": 71092,
      "transactionIndex": 0,
      "confirmations": null,
      "from": "0x2910543Af39abA0Cd09dBb2D50200b3E800A63D2",
      "gasPrice": {
        "_hex": "0xd9ab90549"
      },
      "gasLimit": {
        "_hex": "0x5208"
      },
      "to": "0xabd11E2D34AC9adb775cace2935Bd24aE1c07eE3",
      "value": {
        "_hex": "0x1a09d1aa801494000"
      },
      "nonce": 263,
      "data": "0x",
      "r": "0x60d77c9f28200164ed854c54cdf681ca5e8593980cf1f79e6dd2a7304c014ff3",
      "s": "0x4e9518bdadae0a3a49ef58dd0d27cfc0c2fc415256ecb67d5f9813c43481c86a",
      "v": 27,
      "creates": null,
      "raw": "0xf86f820107850d9ab9054982520894abd11e2d34ac9adb775cace2935bd24ae1c07ee38901a09d1aa801494000801ba060d77c9f28200164ed854c54cdf681ca5e8593980cf1f79e6dd2a7304c014ff3a04e9518bdadae0a3a49ef58dd0d27cfc0c2fc415256ecb67d5f9813c43481c86a",
      "networkId": 0,
      "chainId": 0
    }
  ]
}