{
  "hash": "0x50f7b66f68e640b55d1bfe1a45af8bfa49f6c52d0d4bde70c7a6ede5184987c7",
  "parentHash": "0x22f677733a74cbbc870638c4ca4edd34bdb848a0d0ca78f22b8e221bea69012e",
  "number": 46695,
  "timestamp": 1438927550,
  "nonce": "0x683ea6a64c42a940",
  "difficulty": 1459612144854,
  "gasLimit": {
    "_hex": "0x723e"
  },
  "gasUsed": {
    "_hex": "0x5208"
  },
  "miner": "0xf8E0CA3Ed80bd541b94BEdCf259e8CF2141A9523",
  "extraData": "0x476574682f76312e302e312f77696e646f77732f676f312e342e32",
  "transactions": [
    {
      "hash": "0xcdb7c775cce2331b75782f3f3d2736c358dbb3f79829f6fa4d3aaba480bde25f",
      "blockHash": "0x50f7b66f68e640b55d1bfe1a45af8bfa49f6c52d0d4bde70c7a6ede5184987c7",
      "blockNumber": 46695,
      "transactionIndex": 0,
      "confirmations": null,
      "from": "0x835cFb953639ABaB9F2612b8d92C997771Ae6312",
      "gasPrice": {
        "_hex": "0xce8475f8a"
      },
      "gasLimit": {
        "_hex": "0x5208"
      },
      "to": "0x32Be343B94f860124dC4fEe278FDCBD38C102D88",
      "value": {
        "_hex": "0xddc93e534151c00"
      },
      "nonce": 0,
      "data": "0x",
      "r": "0xd1464925f312a8b0cb93246e330728609355769295bd86c945ae53142cf849b4",
      "s": "0x6b5684d8021ec4264e279c96d80308309838438fc50ed2cb03dfb24a3fe364ed",
      "v": 27,
      "creates": null,
      "raw": "0xf86c80850ce8475f8a8252089432be343b94f860124dc4fee278fdcbd38c102d88880ddc93e534151c00801ba0d1464925f312a8b0cb93246e330728609355769295bd86c945ae53142cf849b4a06b5684d8021ec4264e279c96d80308309838438fc50ed2cb03dfb24a3fe364ed",
      "networkId": 0,
      "chainId": 0
    }
  ]
}