{
  "hash": "0x74297f0d41c7c73ae7181d7f3d0ba51e1add02b26a1bdb0dabac4bbb19da7f06",
  "parentHash": "0x53d16f5fcd53784e1f7212c038d6affc9d00d50feff9280a598cdfa27c9885a9",
  "number": 97690,
  "timestamp": 1439760269,
  "nonce": "0x645b49f37733cd72",
  "difficulty": 3835346233798,
  "gasLimit": {
    "_hex": "0x2fefd8"
  },
  "gasUsed": {
    "_hex": "0x546c"
  },
  "miner": "0xf927a40C8B7F6E07c5af7FA2155B4864a4112B13",
  "extraData": "0x",
  "transactions": [
    {
      "hash": "0xa9c3c3fadbe9fc3f6b2e2f08fd66b3ab9bc4a9b44e59499dd99ad955983bcddd",
      "blockHash": "0x74297f0d41c7c73ae7181d7f3d0ba51e1add02b26a1bdb0dabac4bbb19da7f06",
      "blockNumber": 97690,
      "transactionIndex": 0,
      "confirmations": null,
      "from": "0xA88577a073FbAF33C4cD202e00ea70ef711b4006",
      "gasPrice": {
        "_hex": "0x110c8f7d8de"
      },
      "gasLimit": {
        "_hex": "0xc350"
      },
      "to": "0x2910543Af39abA0Cd09dBb2D50200b3E800A63D2",
      "value": {
        "_hex": "0xb1a2bc2ec500000"
      },
      "nonce": 3,
      "data": "0x454e484e3745414347",
      "r": "0xaa4e266e1148dce1248a3a14f56726b5c77664dfc8295edf16e54387a23ca1c6",
      "s": "0xb33bee42617222f2051dcf9638348feccab91d8fa5969ea92e96061e58aa168b",
      "v": 27,
      "creates": null,
      "raw": "0xf87603860110c8f7d8de82c350942910543af39aba0cd09dbb2d50200b3e800a63d2880b1a2bc2ec50000089454e484e37454143471ba0aa4e266e1148dce1248a3a14f56726b5c77664dfc8295edf16e54387a23ca1c6a0b33bee42617222f2051dcf9638348feccab91d8fa5969ea92e96061e58aa168b",
      "networkId": 0,
      "chainId": 0
    }
  ]
}