{
  "hash": "0xdd2882f76f747de33acaea5774a10dc0717234596fb1f75d2f3fdc07cdd7ab00",
  "parentHash": "0x096b8fe6d6cde7cd3c4fa835173ec6c2e963c668cfef5d50592f4cb390efceba",
  "number": 119426,
  "timestamp": 1440142739,
  "nonce": "0xaaf14ab8d78f305e",
  "difficulty": 4385867065728,
  "gasLimit": {
    "_hex": "0x2fefd8"
  },
  "gasUsed": {
    "_hex": "0xa410"
  },
  "miner": "0xe6A7a1d47ff21B6321162AEA7C6CB457D5476Bca",
  "extraData": "0xd783010002844765746887676f312e342e32856c696e7578",
  "transactions": [
    {
      "hash": "0xa1a480eb54e5c63e4c2ade4a59b716b164d13df519a9598a22abf0401e95fbf6",
      "blockHash": "0xdd2882f76f747de33acaea5774a10dc0717234596fb1f75d2f3fdc07cdd7ab00",
      "blockNumber": 119426,
      "transactionIndex": 0,
      "confirmations": null,
      "from": "0x94b20d3d932AA82aD71b86b904A3D769689351b4",
      "gasPrice": {
        "_hex": "0xbb96d3072"
      },
      "gasLimit": {
        "_hex": "0x5208"
      },
      "to": "0x32Be343B94f860124dC4fEe278FDCBD38C102D88",
      "value": {
        "_hex": "0xd714f81cbcdb9800"
      },
      "nonce": 11,
      "data": "0x",
      "r": "0x777608473d6a412cc12c9b83e8e50be79c27d85fe7a9c797f4829b75377299a9",
      "s": "0x4c8e60a3be8420c3984c29617ef4b283b3f09f48d48ae2f1e9ed2f9c2ea59af0",
      "v": 27,
      "creates": null,
      "raw": "0xf86c0b850bb96d30728252089432be343b94f860124dc4fee278fdcbd38c102d8888d714f81cbcdb9800801ba0777608473d6a412cc12c9b83e8e50be79c27d85fe7a9c797f4829b75377299a9a04c8e60a3be8420c3984c29617ef4b283b3f09f48d48ae2f1e9ed2f9c2ea59af0",
      "networkId": 0,
      "chainId": 0
    },
    {
      "hash": "0x139987a76aa33a6ba8452ac4cd3ee6fb19b1eec153ced264865b5258b8758daf",
      "blockHash": "0xdd2882f76f747de33acaea5774a10dc0717234596fb1f75d2f3fdc07cdd7ab00",
      "blockNumber": 119426,
      "transactionIndex": 1,
      "confirmations": null,
      "from": "0x8710908977F5FaA8Ff9BC8cf3c0A928bF83AA873",
      "gasPrice": {
        "_hex": "0xbb96d3072"
      },
      "gasLimit": {
        "_hex": "0x5208"
      },
      "to": "0x32Be343B94f860124dC4fEe278FDCBD38C102D88",
      "value": {
        "_hex": "0x273195338e394400"
      },
      "nonce": 2,
      "data": "0x",
      "r": "0x68888ec26977917fa568a3efb9673c779168e593c84ead35e46407dde29d8c2d",
      "s": "0x512ad0c3392108b2654e42be83bf9261e329756b8902d55e59a6232535bf9804",
      "v": 27,
      "creates": null,
      "raw": "0xf86c02850bb96d30728252089432be343b94f860124dc4fee278fdcbd38c102d8888273195338e394400801ba068888ec26977917fa568a3efb9673c779168e593c84ead35e46407dde29d8c2da0512ad0c3392108b2654e42be83bf9261e329756b8902d55e59a6232535bf9804",
      "networkId": 0,
      "chainId": 0
    }
  ]
}