{
  "hash": "0x1efa2df1466524623ad2911688df29e7d4c96598b109aed566537d23431f44d3",
  "parentHash": "0x9694e645105c1d6d7ce455b0f9036c3feeae46a0036d0f164f977f4732b9dbb5",
  "number": 73758,
  "timestamp": 1439374594,
  "nonce": "0x44dc07785c770575",
  "difficulty": 2219557605968,
  "gasLimit": {
    "_hex": "0x2fefd8"
  },
  "gasUsed": {
    "_hex": "0xa410"
  },
  "miner": "0xe6A7a1d47ff21B6321162AEA7C6CB457D5476Bca",
  "extraData": "0x476574682f76312e302e312d38326566323666362f6c696e75782f676f312e34",
  "transactions": [
    {
      "hash": "0x051d9f659699557f249478ad8bacad4985fbba5616dcb8b3ba63b222e481ecb9",
      "blockHash": "0x1efa2df1466524623ad2911688df29e7d4c96598b109aed566537d23431f44d3",
      "blockNumber": 73758,
      "transactionIndex": 0,
      "confirmations": null,
      "from": "0x910560734C1155e546d762CB1C5e1669E798AEb4",
      "gasPrice": {
        "_hex": "0xdbef534b1"
      },
      "gasLimit": {
        "_hex": "0x15f90"
      },
      "to": "0xC436c3b9E0DA167Da47AC948117388cF9Ee5700E",
      "value": {
        "_hex": "0x1"
      },
      "nonce": 2,
      "data": "0x",
      "r": "0x809c8b51cb2aa6eea8951720da30023a37df35c89255b2397f6f648038493461",
      "s": "0x4fd6024533d198cd7217e6c21ecbdd01dcaa49e67307c0fd43926cf864b977e4",
      "v": 27,
      "creates": null,
      "raw": "0xf86502850dbef534b183015f9094c436c3b9e0da167da47ac948117388cf9ee5700e01801ba0809c8b51cb2aa6eea8951720da30023a37df35c89255b2397f6f648038493461a04fd6024533d198cd7217e6c21ecbdd01dcaa49e67307c0fd43926cf864b977e4",
      "networkId": 0,
      "chainId": 0
    },
    {
      "hash": "0x2d19ed54f291cecd248ebf676b6cccb34cb073266f1acfe8dd99268b5c4bd64d",
      "blockHash": "0x1efa2df1466524623ad2911688df29e7d4c96598b109aed566537d23431f44d3",
      "blockNumber": 73758,
      "transactionIndex": 1,
      "confirmations": null,
      "from": "0x2910543Af39abA0Cd09dBb2D50200b3E800A63D2",
      "gasPrice": {
        "_hex": "0xd170d5ea1"
      },
      "gasLimit": {
        "_hex": "0x5208"
      },
      "to": "0xCb75F1f9cC69e3B1A27b8d9C08bB73A58Ede24bE",
      "value": {
        "_hex": "0x6de97e09bd18000"
      },
      "nonce": 291,
      "data": "0x",
      "r": "0x320397c0a77625b11aa6cf934b5a0527c1ab32869df7e9f50ce18fe2558d96bc",
      "s": "0x6e27cb2dfd9b7e5827cdcbf10c47eee00b330b0063a892b4e014a22eba61369f",
      "v": 28,
      "creates": null,
      "raw": "0xf86e820123850d170d5ea182520894cb75f1f9cc69e3b1a27b8d9c08bb73a58ede24be8806de97e09bd18000801ca0320397c0a77625b11aa6cf934b5a0527c1ab32869df7e9f50ce18fe2558d96bca06e27cb2dfd9b7e5827cdcbf10c47eee00b330b0063a892b4e014a22eba61369f",
      "networkId": 0,
      "chainId": 0
    }
  ]
}