{
  "hash": "0xaff503146cef899584850b75c19f6ffd5afd19a4a6a37125746ac25dd7f22236",
  "parentHash": "0x0c0dbb70c0100d29ba4de01ba38186d702d4cc86042393f83819677e4ffccaa7",
  "number": 86053,
  "timestamp": 1439572810,
  "nonce": "0xb58fbed7c7752035",
  "difficulty": 2794842720005,
  "gasLimit": {
    "_hex": "0x2fefd8"
  },
  "gasUsed": {
    "_hex": "0xf87c"
  },
  "miner": "0xEF247E639d49461D25F57e9362CadE3120910Ce0",
  "extraData": "0x476574682f76312e302e312f6c696e75782f676f312e342e32",
  "transactions": [
    {
      "hash": "0xfec4f5dfb6d0c5f8e49d3b5e312c0cabad0564f7d3a6c4260cfc28b50e91f18e",
      "blockHash": "0xaff503146cef899584850b75c19f6ffd5afd19a4a6a37125746ac25dd7f22236",
      "blockNumber": 86053,
      "transactionIndex": 0,
      "confirmations": null,
      "from": "0x48Aad76dd8eE44231675609abcE5e895D9b54A31",
      "gasPrice": {
        "_hex": "0x106968eafd4"
      },
      "gasLimit": {
        "_hex": "0x55f0"
      },
      "to": "0x2910543Af39abA0Cd09dBb2D50200b3E800A63D2",
      "value": {
        "_hex": "0x429d069189e00000"
      },
      "nonce": 0,
      "data": "0x454e31445432424d52",
      "r": "0xba70193b7c11b229f18a99c80d3c8ad6e88d3d9fadd9a50ada70928620a3f3c1",
      "s": "0x51861e67f047f97fa5b04d9af2bda2833ff0774b2820242c081c8875f5b1d339",
      "v": 28,
      "creates": null,
      "raw": "0xf87680860106968eafd48255f0942910543af39aba0cd09dbb2d50200b3e800a63d288429d069189e0000089454e31445432424d521ca0ba70193b7c11b229f18a99c80d3c8ad6e88d3d9fadd9a50ada70928620a3f3c1a051861e67f047f97fa5b04d9af2bda2833ff0774b2820242c081c8875f5b1d339",
      "networkId": 0,
      "chainId": 0
    },
    {
      "hash": "0xd93aa32fd190cc565c275f96da1204aa54530b6554d8010c279300884199bf18",
      "blockHash": "0xaff503146cef899584850b75c19f6ffd5afd19a4a6a37125746ac25dd7f22236",
      "blockNumber": 86053,
      "transactionIndex": 1,
      "confirmations": null,
      "from": "0xea2F139F026F72AB7CDec19069F185C0714b4D6E",
      "gasPrice": {
        "_hex": "0xd641f460d"
      },
      "gasLimit": {
        "_hex": "0x15f90"
      },
      "to": "0x64f1bF4c23E8a6f89b8A3D0Fd4cC300dF71Cc065",
      "value": {
        "_hex": "0x1b0d04202f47ec0000"
      },
      "nonce": 0,
      "data": "0x",
      "r": "0xf18f7c0b531ccaf38f7e4afd712e082bb620b4ec9cf142bc32e2bd16e2d43053",
      "s": "0x4b46c16f56f904de2c277203a7d4578657c2d7d93a55a7dacf884e83253982d8",
      "v": 28,
      "creates": null,
      "raw": "0xf86e80850d641f460d83015f909464f1bf4c23e8a6f89b8a3d0fd4cc300df71cc065891b0d04202f47ec0000801ca0f18f7c0b531ccaf38f7e4afd712e082bb620b4ec9cf142bc32e2bd16e2d43053a04b46c16f56f904de2c277203a7d4578657c2d7d93a55a7dacf884e83253982d8",
      "networkId": 0,
      "chainId": 0
    },
    {
      "hash": "0xa0eae4f31c5860a15bab1fff906cf6943b15e28d73cbefb05ca1027a26f86634",
      "blockHash": "0xaff503146cef899584850b75c19f6ffd5afd19a4a6a37125746ac25dd7f22236",
      "blockNumber": 86053,
      "transactionIndex": 2,
      "confirmations": null,
      "from": "0x2910543Af39abA0Cd09dBb2D50200b3E800A63D2",
      "gasPrice": {
        "_hex": "0xd2997bc8d"
      },
      "gasLimit": {
        "_hex": "0x5208"
      },
      "to": "0x6CE13F1816a2cFab76C59714291Cb8403CbBB3D8",
      "value": {
        "_hex": "0x51c0b8920b9a34000"
      },
      "nonce": 640,
      "data": "0x",
      "r": "0x4fc5f31716671faa0a2f0082bc296357b4073d70f640cdad5bebfdc2575499ca",
      "s": "0x2058517d4abce341647a9cca37bd2e23400b7bcb3a1f82897d6031971200365e",
      "v": 28,
      "creates": null,
      "raw": "0xf86f820280850d2997bc8d825208946ce13f1816a2cfab76c59714291cb8403cbbb3d889051c0b8920b9a34000801ca04fc5f31716671faa0a2f0082bc296357b4073d70f640cdad5bebfdc2575499caa02058517d4abce341647a9cca37bd2e23400b7bcb3a1f82897d6031971200365e",
      "networkId": 0,
      "chainId": 0
    }
  ]
}