{
  "hash": "0x456565ba7c6a19ea2bd80ebab00670af4b02b8d045b54e36dc6f1eedde7cd83b",
  "parentHash": "0xe11219609e603465e10bc02ac71ef072660dd29dfcdcc1352ab4fefab1eb66b8",
  "number": 81958,
  "timestamp": 1439510814,
  "nonce": "0xb29035d4fc050886",
  "difficulty": 2409304706089,
  "gasLimit": {
    "_hex": "0x2fefd8"
  },
  "gasUsed": {
    "_hex": "0x10ed2"
  },
  "miner": "0x7E6930B63D03e88F5928C5cd6ee3FCee4D714F7F",
  "extraData": "0x",
  "transactions": [
    {
      "hash": "0x8ca4f51359150d60c1120ce7abf91014bef8dc6af0b66754b1f521867aed415c",
      "blockHash": "0x456565ba7c6a19ea2bd80ebab00670af4b02b8d045b54e36dc6f1eedde7cd83b",
      "blockNumber": 81958,
      "transactionIndex": 0,
      "confirmations": null,
      "from": "0x82f39B2758aE42277B86d69F75E628d958EbCAb0",
      "gasPrice": {
        "_hex": "0x110c8f7d8de"
      },
      "gasLimit": {
        "_hex": "0xc350"
      },
      "to": "0x2910543Af39abA0Cd09dBb2D50200b3E800A63D2",
      "value": {
        "_hex": "0x4fefa17b7240000"
      },
      "nonce": 3,
      "data": "0x454e34483356554547",
      "r": "0xa2fcc81c9e84842849b028690f3454636f0d0dc92164387e5a7cd8150ab753c6",
      "s": "0xefc12663ab6ef05c41fe04f733f719ae51e0e319e4bcf02d3de13260f67571cb",
      "v": 27,
      "creates": null,
      "raw": "0xf87603860110c8f7d8de82c350942910543af39aba0cd09dbb2d50200b3e800a63d28804fefa17b724000089454e344833565545471ba0a2fcc81c9e84842849b028690f3454636f0d0dc92164387e5a7cd8150ab753c6a0efc12663ab6ef05c41fe04f733f719ae51e0e319e4bcf02d3de13260f67571cb",
      "networkId": 0,
      "chainId": 0
    },
    {
      "hash": "0x0a6a9160cf67dab1bc97c199a189f33da15a6283b85e4c763f69a08b7fd0f2a8",
      "blockHash": "0x456565ba7c6a19ea2bd80ebab00670af4b02b8d045b54e36dc6f1eedde7cd83b",
      "blockNumber": 81958,
      "transactionIndex": 1,
      "confirmations": null,
      "from": "0x0D82Cd113DC35DdDA93f38166cD5CDe8b88e36A1",
      "gasPrice": {
        "_hex": "0xd59a521fd"
      },
      "gasLimit": {
        "_hex": "0x15f90"
      },
      "to": "0x3cb6797fD58b6A4a6D3107f686f09df04b62f6E4",
      "value": {
        "_hex": "0x0"
      },
      "nonce": 5,
      "data": "0x748dc522",
      "r": "0xf58bb0ad4ad7f506e03583f5b700428a7b49d49d1db91ca522b5fd74e02a406e",
      "s": "0x26a14f17bb23d71faab3f3bb68f409f97d9e8febca9d11166eb9c45955f30cf1",
      "v": 28,
      "creates": null,
      "raw": "0xf86905850d59a521fd83015f90943cb6797fd58b6a4a6d3107f686f09df04b62f6e48084748dc5221ca0f58bb0ad4ad7f506e03583f5b700428a7b49d49d1db91ca522b5fd74e02a406ea026a14f17bb23d71faab3f3bb68f409f97d9e8febca9d11166eb9c45955f30cf1",
      "networkId": 0,
      "chainId": 0
    }
  ]
}