{
  "hash": "0x3d3af7fa954229667fb0127422f6dc1f1b3e693e0495f0cf85564566ac2fd1b5",
  "parentHash": "0x4a164a4e1af60c571288c2cdf8f36ad3e44b0b3d9eedd9480b71225867e632ae",
  "number": 104300,
  "timestamp": 1439867601,
  "nonce": "0x2d14934f50a9fb92",
  "difficulty": 4279444926422,
  "gasLimit": {
    "_hex": "0x2fefd8"
  },
  "gasUsed": {
    "_hex": "0xa414"
  },
  "miner": "0x88D74a59454F6cF3B51ef6b9136AFb6b9D405A88",
  "extraData": "0x476574682f76312e302e312d38326566323666362f6c696e75782f676f312e34",
  "transactions": [
    {
      "hash": "0x56011d5a6a2ce00d3c78dd5d9b80fbc9e9a98210cb27f32ddfa9cbe1d3fea99b",
      "blockHash": "0x3d3af7fa954229667fb0127422f6dc1f1b3e693e0495f0cf85564566ac2fd1b5",
      "blockNumber": 104300,
      "transactionIndex": 0,
      "confirmations": null,
      "from": "0x120A270bbC009644e35F0bB6ab13f95b8199c4ad",
      "gasPrice": {
        "_hex": "0xd942ed455"
      },
      "gasLimit": {
        "_hex": "0x3d090"
      },
      "to": "0x480fC9313233A9a1896eDd5109FccA26b79dB731",
      "value": {
        "_hex": "0x1061a821b0b7c00"
      },
      "nonce": 744,
      "data": "0x",
      "r": "0x397d83976155b1280b15bdecc2257da20bd514c6c5e0c069f56a1a5f8c4ae8b1",
      "s": "0x44347d460fe317d463c4ba6abbf7712fab49e014d0d92bd326f4458247272fa9",
      "v": 28,
      "creates": null,
      "raw": "0xf86f8202e8850d942ed4558303d09094480fc9313233a9a1896edd5109fcca26b79db7318801061a821b0b7c00801ca0397d83976155b1280b15bdecc2257da20bd514c6c5e0c069f56a1a5f8c4ae8b1a044347d460fe317d463c4ba6abbf7712fab49e014d0d92bd326f4458247272fa9",
      "networkId": 0,
      "chainId": 0
    },
    {
      "hash": "0xfff0937bb9dcc75b9b137ec1ecd61e017fd0ffab8d85b98718dd395eb9239e3d",
      "blockHash": "0x3d3af7fa954229667fb0127422f6dc1f1b3e693e0495f0cf85564566ac2fd1b5",
      "blockNumber": 104300,
      "transactionIndex": 1,
      "confirmations": null,
      "from": "0x653777A18b481CA87686ac19a4bd2b52ad86CbA5",
      "gasPrice": {
        "_hex": "0xced33f6cd"
      },
      "gasLimit": {
        "_hex": "0x7530"
      },
      "to": "0xB8c0A44350E1d3e55c01486d15877889e17D1030",
      "value": {
        "_hex": "0xdb614c3ee160000"
      },
      "nonce": 0,
      "data": "0x00",
      "r": "0xfa2ec99639d3146c7615afe457e158eb2547be04a76e5d911473d33caad31db7",
      "s": "0x12c79bb1ba560f2257e12bc1991ba7f137283d5cab5ca1c10bccac1af285dfc3",
      "v": 27,
      "creates": null,
      "raw": "0xf86c80850ced33f6cd82753094b8c0a44350e1d3e55c01486d15877889e17d1030880db614c3ee160000001ba0fa2ec99639d3146c7615afe457e158eb2547be04a76e5d911473d33caad31db7a012c79bb1ba560f2257e12bc1991ba7f137283d5cab5ca1c10bccac1af285dfc3",
      "networkId": 0,
      "chainId": 0
    }
  ]
}