{
  "hash": "0x8df1c80f0ece26f56b785ab2f34004eeb891fee933b745cc4ba689e1be6cba14",
  "parentHash": "0xdeda711d20836a7ffbd46b0ae55b4a0c82f07954a289b59d192ad5bfa0c081d2",
  "number": 66863,
  "timestamp": 1439261593,
  "nonce": "0x7c257d6e204131b8",
  "difficulty": 1951767370824,
  "gasLimit": {
    "_hex": "0x2fefd5"
  },
  "gasUsed": {
    "_hex": "0x110f9"
  },
  "miner": "0x39A1BB80a741bF5EC39FB9BE59408Fa0F418fFBf",
  "extraData": "0x476574682f76312e302e312f77696e646f77732f676f312e342e32",
  "transactions": [
    {
      "hash": "0x25f3feda199150f75209a98bcaf227e7421b9774e14eaf3fd969ac71d36f9a27",
      "blockHash": "0x8df1c80f0ece26f56b785ab2f34004eeb891fee933b745cc4ba689e1be6cba14",
      "blockNumber": 66863,
      "transactionIndex": 0,
      "confirmations": null,
      "from": "0x54bCb8e7F73cDA3d73f4D38b2d0847e600BA0df8",
      "gasPrice": {
        "_hex": "0xd0142d7de"
      },
      "gasLimit": {
        "_hex": "0x15f90"
      },
      "to": "0x42979fca296FEA2C163EA66E1900acDe7886F86F",
      "value": {
        "_hex": "0x3a701dd1906f570000"
      },
      "nonce": 0,
      "data": "0x",
      "r": "0x0a4493945b6dd961de2b2af39c1cce5cc693902fd28e267fa9fe749b38cd869d",
      "s": "0x7513194b295757c79257cc67688054415e3e8e7c59685f41c9a2048501b0c0e7",
      "v": 27,
      "creates": null,
      "raw": "0xf86e80850d0142d7de83015f909442979fca296fea2c163ea66e1900acde7886f86f893a701dd1906f570000801ba00a4493945b6dd961de2b2af39c1cce5cc693902fd28e267fa9fe749b38cd869da07513194b295757c79257cc67688054415e3e8e7c59685f41c9a2048501b0c0e7",
      "networkId": 0,
      "chainId": 0
    },
    {
      "hash": "0x0f9621aceb0acc38c110f9e56d8fbb6c4b1831a3ea47a222114432fb5db567e9",
      "blockHash": "0x8df1c80f0ece26f56b785ab2f34004eeb891fee933b745cc4ba689e1be6cba14",
      "blockNumber": 66863,
      "transactionIndex": 1,
      "confirmations": null,
      "from": "0x976349705b839e2F5719387Fb27D2519d519da03",
      "gasPrice": {
        "_hex": "0xce727df99"
      },
      "gasLimit": {
        "_hex": "0x15f90"
      },
      "to": "0x125B606C67E8066Da65069652b656c19717745Fa",
      "value": {
        "_hex": "0xe8379fa3425f28"
      },
      "nonce": 12,
      "data": "0xa55526db",
      "r": "0x1f376d0714a08d3f58725e485658c8c360ac22a4b234d9f6527fcbd829447552",
      "s": "0x57b7b76e11c002694846f332abfe1b5d150c69043166a35b77779be56038f73f",
      "v": 27,
      "creates": null,
      "raw": "0xf8700c850ce727df9983015f9094125b606c67e8066da65069652b656c19717745fa87e8379fa3425f2884a55526db1ba01f376d0714a08d3f58725e485658c8c360ac22a4b234d9f6527fcbd829447552a057b7b76e11c002694846f332abfe1b5d150c69043166a35b77779be56038f73f",
      "networkId": 0,
      "chainId": 0
    }
  ]
}