{
  "hash": "0x67aafc02ed1d4fc7b1d4014a2b6dbce5e0a8e2db46c1715d28eb87772d2f41db",
  "parentHash": "0x2ec88063a24964ae213d684eafc5e0c957f4dde2530b902289616fcee806aaeb",
  "number": 113802,
  "timestamp": 1440029845,
  "nonce": "0x0d20bfc6a97c7435",
  "difficulty": 4444880957517,
  "gasLimit": {
    "_hex": "0x2fefd8"
  },
  "gasUsed": {
    "_hex": "0x5208"
  },
  "miner": "0x7E6930B63D03e88F5928C5cd6ee3FCee4D714F7F",
  "extraData": "0x",
  "transactions": [
    {
      "hash": "0x1f83c58abf4e25854195d2f2a8f60d7e100766941f29ede5bfe1f4ae0ca2a6b0",
      "blockHash": "0x67aafc02ed1d4fc7b1d4014a2b6dbce5e0a8e2db46c1715d28eb87772d2f41db",
      "blockNumber": 113802,
      "transactionIndex": 0,
      "confirmations": null,
      "from": "0x4D67f4F0Db45b3B5a3424B39ed8d972F710381D5",
      "gasPrice": {
        "_hex": "0xdc16442fe"
      },
      "gasLimit": {
        "_hex": "0x5208"
      },
      "to": "0x32Be343B94f860124dC4fEe278FDCBD38C102D88",
      "value": {
        "_hex": "0x2c25ca1129ffac000"
      },
      "nonce": 42,
      "data": "0x",
      "r": "0xc7268d1249e9072c348130551fa17a80eb0abab632615c300ad9e8bd9428fe92",
      "s": "0x54a2e842dc44d4a5904ff4544989d6e6065e66c4e3a8a98a3d74625df5097f9d",
      "v": 28,
      "creates": null,
      "raw": "0xf86d2a850dc16442fe8252089432be343b94f860124dc4fee278fdcbd38c102d888902c25ca1129ffac000801ca0c7268d1249e9072c348130551fa17a80eb0abab632615c300ad9e8bd9428fe92a054a2e842dc44d4a5904ff4544989d6e6065e66c4e3a8a98a3d74625df5097f9d",
      "networkId": 0,
      "chainId": 0
    }
  ]
}