{
  "hash": "0xeb8cb9642e7aa56311cdfe109411b08047235ca071778ffdd9194a9e7c3c633b",
  "parentHash": "0x2a7f66e543e932aebcb3f6aa647867310677f14f9408e0ccf2034afeef32f523",
  "number": 65858,
  "timestamp": 1439244138,
  "nonce": "0xf1eeea8bc58044d3",
  "difficulty": 1945340726463,
  "gasLimit": {
    "_hex": "0x2fefd8"
  },
  "gasUsed": {
    "_hex": "0xaee3"
  },
  "miner": "0xE12e1DAB1AA5907D699265166adD746584a777fd",
  "extraData": "0x476574682f76312e302e312d38326566323666362f6c696e75782f676f312e34",
  "transactions": [
    {
      "hash": "0x822905e89e532f976ed34642167cacbf8ead3367768d9ae0e169e399a43bfeba",
      "blockHash": "0xeb8cb9642e7aa56311cdfe109411b08047235ca071778ffdd9194a9e7c3c633b",
      "blockNumber": 65858,
      "transactionIndex": 0,
      "confirmations": null,
      "from": "0xFBb1b73C4f0BDa4f67dcA266ce6Ef42f520fBB98",
      "gasPrice": {
        "_hex": "0xdf45584dc"
      },
      "gasLimit": {
        "_hex": "0x15f90"
      },
      "to": "0xa1A111bc074c9cfa781F0C38e63bD51c91b8af00",
      "value": {
        "_hex": "0x0"
      },
      "nonce": 11,
      "data": "0xd5fa2b004254525800000000000000000000000000000000000000000000000000000000000000000000000000000000305e14e760862d558d50271c353d388d094a6e8f",
      "r": "0x0045c5e14de286004446f3dcdb747337026504d43c84786148b79976a582cdda",
      "s": "0x5cf68af433fee582f86b037c0efc301a1cc44e10e942f9d4ebb644f481822caa",
      "v": 27,
      "creates": null,
      "raw": "0xf8a90b850df45584dc83015f9094a1a111bc074c9cfa781f0c38e63bd51c91b8af0080b844d5fa2b004254525800000000000000000000000000000000000000000000000000000000000000000000000000000000305e14e760862d558d50271c353d388d094a6e8f1b9f45c5e14de286004446f3dcdb747337026504d43c84786148b79976a582cddaa05cf68af433fee582f86b037c0efc301a1cc44e10e942f9d4ebb644f481822caa",
      "networkId": 0,
      "chainId": 0
    }
  ]
}