{
  "hash": "0x2de33824b59de99512bf47b26e7cffd2899f5b3ea04d967614a30dd5d07638dd",
  "parentHash": "0xf01fd5322ad52adc79e5dc3b8853ea4deb1026c3fae76fd43e6bc5938b51c410",
  "number": 48726,
  "timestamp": 1438961978,
  "nonce": "0x2f6b85adc30ae812",
  "difficulty": 1475739325366,
  "gasLimit": {
    "_hex": "0x1cda4"
  },
  "gasUsed": {
    "_hex": "0x546c"
  },
  "miner": "0xf927a40C8B7F6E07c5af7FA2155B4864a4112B13",
  "extraData": "0x",
  "transactions": [
    {
      "hash": "0xa127d6e3f5439dd2b85d00deed4f085d796d1171ce3681f83b24aa50b505e9d8",
      "blockHash": "0x2de33824b59de99512bf47b26e7cffd2899f5b3ea04d967614a30dd5d07638dd",
      "blockNumber": 48726,
      "transactionIndex": 0,
      "confirmations": null,
      "from": "0x3F98e477a361F777DA14611a7e419A75Fd238b6b",
      "gasPrice": {
        "_hex": "0xdb5501dff"
      },
      "gasLimit": {
        "_hex": "0x15f90"
      },
      "to": "0x2910543Af39abA0Cd09dBb2D50200b3E800A63D2",
      "value": {
        "_hex": "0x4563918244f40000"
      },
      "nonce": 2,
      "data": "0x454e414a33474d4352",
      "r": "0x5b5cf5deb4f89bb7bd2ce6e5f1b09bbc52b9099b18806990fec2b6aaa277a9eb",
      "s": "0x489d224a63b78cb1aca62e703c9b5e412eecf9e0426ce291a78bf5be1ff1e3ec",
      "v": 27,
      "creates": null,
      "raw": "0xf87602850db5501dff83015f90942910543af39aba0cd09dbb2d50200b3e800a63d2884563918244f4000089454e414a33474d43521ba05b5cf5deb4f89bb7bd2ce6e5f1b09bbc52b9099b18806990fec2b6aaa277a9eba0489d224a63b78cb1aca62e703c9b5e412eecf9e0426ce291a78bf5be1ff1e3ec",
      "networkId": 0,
      "chainId": 0
    }
  ]
}