{
  "hash": "0x747af7b97f72cbf3f85e366e5d0ac840a738c81a074141810e7a91338c2d5b0e",
  "parentHash": "0x26477a1f124f6ce9249cad6b87add9b7ee50001665f57d3b4dd13955bb7d4d2d",
  "number": 65074,
  "timestamp": 1439230764,
  "nonce": "0x47af301dab9cfe88",
  "difficulty": 1932268428887,
  "gasLimit": {
    "_hex": "0x2fefd8"
  },
  "gasUsed": {
    "_hex": "0x17cd8"
  },
  "miner": "0x9746c7e1ef2bd21FF3997fa467593a89cb852BD0",
  "extraData": "0x476574682f76312e302e312f77696e646f77732f676f312e342e32",
  "transactions": [
    {
      "hash": "0x9f3f277f458819c362b025154f7d7dbaa50a063cecf9ad5f9e33fa60e4ee1862",
      "blockHash": "0x747af7b97f72cbf3f85e366e5d0ac840a738c81a074141810e7a91338c2d5b0e",
      "blockNumber": 65074,
      "transactionIndex": 0,
      "confirmations": null,
      "from": "0x0D3690Ac9557c2A908597b4b233457c0Cd9f9987",
      "gasPrice": {
        "_hex": "0xba43b7400"
      },
      "gasLimit": {
        "_hex": "0x15f90"
      },
      "to": "0x793AE8C1b1a160BFc07BFB0d04F85eab1A71F4f2",
      "value": {
        "_hex": "0x0"
      },
      "nonce": 0,
      "data": "0x3ba15036",
      "r": "0xe93c2017fc1ca2d308c672e45d87759795ed2db1d7a3d5d54f2383380de084cc",
      "s": "0x549c94e1e9fbc9118433acc31b4462dc73dbb0a37aee24cfbb7cb5518067ee0a",
      "v": 27,
      "creates": null,
      "raw": "0xf86980850ba43b740083015f9094793ae8c1b1a160bfc07bfb0d04f85eab1a71f4f280843ba150361ba0e93c2017fc1ca2d308c672e45d87759795ed2db1d7a3d5d54f2383380de084cca0549c94e1e9fbc9118433acc31b4462dc73dbb0a37aee24cfbb7cb5518067ee0a",
      "networkId": 0,
      "chainId": 0
    },
    {
      "hash": "0xd2035e819992c740e8869d74fe741dfeeb36eb81f258e6a1486de84144556139",
      "blockHash": "0x747af7b97f72cbf3f85e366e5d0ac840a738c81a074141810e7a91338c2d5b0e",
      "blockNumber": 65074,
      "transactionIndex": 1,
      "confirmations": null,
      "from": "0xa36C9283059BE6c19E1338b1963559c3D3A075B0",
      "gasPrice": {
        "_hex": "0xba43b7400"
      },
      "gasLimit": {
        "_hex": "0x15f90"
      },
      "to": "0x793AE8C1b1a160BFc07BFB0d04F85eab1A71F4f2",
      "value": {
        "_hex": "0x0"
      },
      "nonce": 0,
      "data": "0x3ba15036",
      "r": "0x0a01b3b242e0eb8008e9bb476d21c9c5f3ef848bb46d9c9ede7519f79e265c95",
      "s": "0x595d0a679455c37a239fc9499ed12728cd6fd37cfa4bb9e30679b5dfe13f5fd8",
      "v": 27,
      "creates": null,
      "raw": "0xf86980850ba43b740083015f9094793ae8c1b1a160bfc07bfb0d04f85eab1a71f4f280843ba150361ba00a01b3b242e0eb8008e9bb476d21c9c5f3ef848bb46d9c9ede7519f79e265c95a0595d0a679455c37a239fc9499ed12728cd6fd37cfa4bb9e30679b5dfe13f5fd8",
      "networkId": 0,
      "chainId": 0
    }
  ]
}