{
  "hash": "0x6353eeba7a55af54adb4e90b6d71cba93163f4b34c4d28ed98fa8307871d22b3",
  "parentHash": "0x43626689006a1d448c651a4e453b2daaeb612a364aa1ac8282d41cdea228a847",
  "number": 62247,
  "timestamp": 1439185548,
  "nonce": "0x7a4b6bdce09c79b2",
  "difficulty": 1769421675098,
  "gasLimit": {
    "_hex": "0x2fefd8"
  },
  "gasUsed": {
    "_hex": "0xe986"
  },
  "miner": "0x7D45E10A0d63eCCA0694a7cbfF030f4dD87DA0dC",
  "extraData": "0x476574682f76312e302e302f77696e646f77732f676f312e342e32",
  "transactions": [
    {
      "hash": "0x49e2a03859c470f4c386b199110b990ec9d97d088a217e7f9602b04750371d73",
      "blockHash": "0x6353eeba7a55af54adb4e90b6d71cba93163f4b34c4d28ed98fa8307871d22b3",
      "blockNumber": 62247,
      "transactionIndex": 0,
      "confirmations": null,
      "from": "0x271e8fC01E1C9E1621fD3d108e348450b2498541",
      "gasPrice": {
        "_hex": "0xcd19e5185"
      },
      "gasLimit": {
        "_hex": "0x55f0"
      },
      "to": "0x2910543Af39abA0Cd09dBb2D50200b3E800A63D2",
      "value": {
        "_hex": "0x98a7d9b8314c0000"
      },
      "nonce": 5,
      "data": "0x454e584136594a4230",
      "r": "0xfacef683bbc9aae567d9ea910f2ce9275587e654202d0b91807e48fc4c732ae6",
      "s": "0x31080e52ef01d212b9c51a9824c89721740bdaa2f135c51db70d42c76d1b03bf",
      "v": 27,
      "creates": null,
      "raw": "0xf87505850cd19e51858255f0942910543af39aba0cd09dbb2d50200b3e800a63d28898a7d9b8314c000089454e584136594a42301ba0facef683bbc9aae567d9ea910f2ce9275587e654202d0b91807e48fc4c732ae6a031080e52ef01d212b9c51a9824c89721740bdaa2f135c51db70d42c76d1b03bf",
      "networkId": 0,
      "chainId": 0
    },
    {
      "hash": "0x09b2e83c23834abd441ec158f27d7988ba2ef636d3166ca6b2e4cdf60a533733",
      "blockHash": "0x6353eeba7a55af54adb4e90b6d71cba93163f4b34c4d28ed98fa8307871d22b3",
      "blockNumber": 62247,
      "transactionIndex": 1,
      "confirmations": null,
      "from": "0xB100987e77FEbA6F022dBd22B80B008e35d3Ff2E",
      "gasPrice": {
        "_hex": "0xcb3f027e1"
      },
      "gasLimit": {
        "_hex": "0x15f90"
      },
      "to": "0xDd078da257128aEF13471Ace70Ef448C0A3F1EcA",
      "value": {
        "_hex": "0x0"
      },
      "nonce": 15,
      "data": "0xc2ca0ac500000000000000000000000000000000000000018ee90ff6c373e0ee4e3f0ad2",
      "r": "0xff4829c212174c2ff4571f5ea1c4cab1da538b5b3d0e9b77131ffcf4fe77ab17",
      "s": "0x03fbca3eb0ce3efefce8a35d0f1d19543c20026d8e44ff90a9affee8f3721607",
      "v": 28,
      "creates": null,
      "raw": "0xf8890f850cb3f027e183015f9094dd078da257128aef13471ace70ef448c0a3f1eca80a4c2ca0ac500000000000000000000000000000000000000018ee90ff6c373e0ee4e3f0ad21ca0ff4829c212174c2ff4571f5ea1c4cab1da538b5b3d0e9b77131ffcf4fe77ab17a003fbca3eb0ce3efefce8a35d0f1d19543c20026d8e44ff90a9affee8f3721607",
      "networkId": 0,
      "chainId": 0
    }
  ]
}