{
  "hash": "0x67e1f13856defaf5accec0405c30c9b1bc9cd7cdd849804259faddb2ca706f62",
  "parentHash": "0x2fe7e7c234434d98f9a5b90ea16874824dc6f213c2f4587bd964d148b68576ce",
  "number": 115333,
  "timestamp": 1440055427,
  "nonce": "0x52d14fb882060964",
  "difficulty": 4551679843034,
  "gasLimit": {
    "_hex": "0x2fefd8"
  },
  "gasUsed": {
    "_hex": "0x5208"
  },
  "miner": "0xe6A7a1d47ff21B6321162AEA7C6CB457D5476Bca",
  "extraData": "0x476574682f76312e302e312d38326566323666362f6c696e75782f676f312e34",
  "transactions": [
    {
      "hash": "0x7fd28a9d7c339a2cd593d6ca72b387e06b680bb270250ed7a68b5d16ee906237",
      "blockHash": "0x67e1f13856defaf5accec0405c30c9b1bc9cd7cdd849804259faddb2ca706f62",
      "blockNumber": 115333,
      "transactionIndex": 0,
      "confirmations": null,
      "from": "0x7CabE4dE323c392C7135680c61a04d5Eb7519897",
      "gasPrice": {
        "_hex": "0xddb468af5"
      },
      "gasLimit": {
        "_hex": "0x5208"
      },
      "to": "0x32Be343B94f860124dC4fEe278FDCBD38C102D88",
      "value": {
        "_hex": "0x33cd8118e0292400"
      },
      "nonce": 9,
      "data": "0x",
      "r": "0x87a9b8b885b9e3c838d09c045f49ce6647c06abaa6e9d8a82245e5506d019103",
      "s": "0x6df67e2a4119b3d7bc5ba4281d9bdd5429e9ca1f5be6f5fdfc80b2a6b261a31a",
      "v": 27,
      "creates": null,
      "raw": "0xf86c09850ddb468af58252089432be343b94f860124dc4fee278fdcbd38c102d888833cd8118e0292400801ba087a9b8b885b9e3c838d09c045f49ce6647c06abaa6e9d8a82245e5506d019103a06df67e2a4119b3d7bc5ba4281d9bdd5429e9ca1f5be6f5fdfc80b2a6b261a31a",
      "networkId": 0,
      "chainId": 0
    }
  ]
}