{
  "hash": "0x7144e4b5985929c3f89b242091137bb54e0db47e2d59e2abe19d57e14645c09f",
  "parentHash": "0x018d89f1baaa39bcbebfd1586a002d45755efbbf4d55a0b6520b759e4aa0f6ea",
  "number": 78108,
  "timestamp": 1439448468,
  "nonce": "0xb2a22d2d40ea703c",
  "difficulty": 2282130995679,
  "gasLimit": {
    "_hex": "0x2fefd8"
  },
  "gasUsed": {
    "_hex": "0x5208"
  },
  "miner": "0xf8E0CA3Ed80bd541b94BEdCf259e8CF2141A9523",
  "extraData": "0x476574682f76312e302e312f77696e646f77732f676f312e342e32",
  "transactions": [
    {
      "hash": "0xed597078fa1a134a7780a7d0e3f029e49926d165c74f83e8e3cabbdf2ae6572b",
      "blockHash": "0x7144e4b5985929c3f89b242091137bb54e0db47e2d59e2abe19d57e14645c09f",
      "blockNumber": 78108,
      "transactionIndex": 0,
      "confirmations": null,
      "from": "0x32Be343B94f860124dC4fEe278FDCBD38C102D88",
      "gasPrice": {
        "_hex": "0xe24b0a945"
      },
      "gasLimit": {
        "_hex": "0x5208"
      },
      "to": "0xcb101DE19B809Da93093Cb290F28393D8c639473",
      "value": {
        "_hex": "0x2fb23b9a686bb0000"
      },
      "nonce": 386,
      "data": "0x",
      "r": "0xc3f7a27ca60c46a87838ad15912478489c92cfda189f1f205ead39ae2095cc6a",
      "s": "0x4063b760295af34b63b6e283b3154eebb5a0e92c8b473b039aa0b9e8aaffe2b6",
      "v": 27,
      "creates": null,
      "raw": "0xf86f820182850e24b0a94582520894cb101de19b809da93093cb290f28393d8c6394738902fb23b9a686bb0000801ba0c3f7a27ca60c46a87838ad15912478489c92cfda189f1f205ead39ae2095cc6aa04063b760295af34b63b6e283b3154eebb5a0e92c8b473b039aa0b9e8aaffe2b6",
      "networkId": 0,
      "chainId": 0
    }
  ]
}