{
  "hash": "0xa353588c6ab97542c4880087a2cebca2cba5928b949e8740b75bc9dd75f2dea0",
  "parentHash": "0x24f7fb9606b2c623423b7615f667b847ff7be5f346225f7b200fe0c6f550683d",
  "number": 73742,
  "timestamp": 1439374322,
  "nonce": "0x3d5c04459ed41b79",
  "difficulty": 2219561839441,
  "gasLimit": {
    "_hex": "0x2fefd8"
  },
  "gasUsed": {
    "_hex": "0xa674"
  },
  "miner": "0xf8E0CA3Ed80bd541b94BEdCf259e8CF2141A9523",
  "extraData": "0x476574682f76312e302e312f77696e646f77732f676f312e342e32",
  "transactions": [
    {
      "hash": "0x71f1175a196859c942b7c2bccba07e31068abafc1febe11cb7e950ced5b68fdb",
      "blockHash": "0xa353588c6ab97542c4880087a2cebca2cba5928b949e8740b75bc9dd75f2dea0",
      "blockNumber": 73742,
      "transactionIndex": 0,
      "confirmations": null,
      "from": "0xD83ad260E9a6F432fB6ea28743299b4A09ad658C",
      "gasPrice": {
        "_hex": "0x110c8f7d8de"
      },
      "gasLimit": {
        "_hex": "0xc350"
      },
      "to": "0x2910543Af39abA0Cd09dBb2D50200b3E800A63D2",
      "value": {
        "_hex": "0x813ca56906d340000"
      },
      "nonce": 2,
      "data": "0x454e43573042564230",
      "r": "0xb619a30c7676811710bad06e6ebe0e3192ea979cded6619db7de80ad73049d26",
      "s": "0x26b0ec81664258c40c4427911fb59381f43d89fbb66d3e8aeaec42c3fc1921ce",
      "v": 28,
      "creates": null,
      "raw": "0xf87702860110c8f7d8de82c350942910543af39aba0cd09dbb2d50200b3e800a63d2890813ca56906d34000089454e435730425642301ca0b619a30c7676811710bad06e6ebe0e3192ea979cded6619db7de80ad73049d26a026b0ec81664258c40c4427911fb59381f43d89fbb66d3e8aeaec42c3fc1921ce",
      "networkId": 0,
      "chainId": 0
    },
    {
      "hash": "0x72539811de58d10642985da23c56a4c83a21bfbec44b218c40c9a0f5612df5aa",
      "blockHash": "0xa353588c6ab97542c4880087a2cebca2cba5928b949e8740b75bc9dd75f2dea0",
      "blockNumber": 73742,
      "transactionIndex": 1,
      "confirmations": null,
      "from": "0x910560734C1155e546d762CB1C5e1669E798AEb4",
      "gasPrice": {
        "_hex": "0xd2a22bfa6"
      },
      "gasLimit": {
        "_hex": "0x15f90"
      },
      "to": "0xC436c3b9E0DA167Da47AC948117388cF9Ee5700E",
      "value": {
        "_hex": "0x0"
      },
      "nonce": 0,
      "data": "0x",
      "r": "0x4bb3fbf15be8218ab4f3cc087601f0fd96515cf121fdab8f4f339c531b6b3944",
      "s": "0x633ec06c9d63c3a611408af3229fe814c68ff903e839bb2721d3cfdd13df186d",
      "v": 27,
      "creates": null,
      "raw": "0xf86580850d2a22bfa683015f9094c436c3b9e0da167da47ac948117388cf9ee5700e80801ba04bb3fbf15be8218ab4f3cc087601f0fd96515cf121fdab8f4f339c531b6b3944a0633ec06c9d63c3a611408af3229fe814c68ff903e839bb2721d3cfdd13df186d",
      "networkId": 0,
      "chainId": 0
    }
  ]
}