{
  "hash": "0x4698e0a1bb812e9d4bebdaa7590e65ad66bd91f2d6af8a30eee5f7e643d8e633",
  "parentHash": "0xf6ebe3d45b6beacc01b2abbced408e29fbe2a09d49bc2a8f7cb0f4aa67aa2074",
  "number": 103259,
  "timestamp": 1439850229,
  "nonce": "0x3817ef0b10a1cebb",
  "difficulty": 4199243700325,
  "gasLimit": {
    "_hex": "0x2fefd8"
  },
  "gasUsed": {
    "_hex": "0x14820"
  },
  "miner": "0x623d2411c3bb3340784155F9a688b0085251aB5c",
  "extraData": "0x",
  "transactions": [
    {
      "hash": "0x5b548fb3494b05fe68006bfc3b219e3a8f1aeab9004b6fc0700c95942c6fe653",
      "blockHash": "0x4698e0a1bb812e9d4bebdaa7590e65ad66bd91f2d6af8a30eee5f7e643d8e633",
      "blockNumber": 103259,
      "transactionIndex": 0,
      "confirmations": null,
      "from": "0xb1abce2918E21ddb93AA452731a12672A3d9F75a",
      "gasPrice": {
        "_hex": "0xcffac56c7"
      },
      "gasLimit": {
        "_hex": "0x5208"
      },
      "to": "0x32Be343B94f860124dC4fEe278FDCBD38C102D88",
      "value": {
        "_hex": "0x455f67354b5f3c00"
      },
      "nonce": 116,
      "data": "0x",
      "r": "0x8699fe9b8775ce1c1f42accfedf74e12a924efa142afbab09e4021fbf3d79637",
      "s": "0x5c28f2e983f81d0ba4073cf4ec1c6b3e9129cae5e904f099278edd301ecf39a3",
      "v": 27,
      "creates": null,
      "raw": "0xf86c74850cffac56c78252089432be343b94f860124dc4fee278fdcbd38c102d8888455f67354b5f3c00801ba08699fe9b8775ce1c1f42accfedf74e12a924efa142afbab09e4021fbf3d79637a05c28f2e983f81d0ba4073cf4ec1c6b3e9129cae5e904f099278edd301ecf39a3",
      "networkId": 0,
      "chainId": 0
    },
    {
      "hash": "0x69e92c50ba8830c91b79c8b4051672119d98b90092b9c00cd31d827d3d5efe32",
      "blockHash": "0x4698e0a1bb812e9d4bebdaa7590e65ad66bd91f2d6af8a30eee5f7e643d8e633",
      "blockNumber": 103259,
      "transactionIndex": 1,
      "confirmations": null,
      "from": "0xD9666150A9dA92d9108198a4072970805a8B3428",
      "gasPrice": {
        "_hex": "0xcffac56c7"
      },
      "gasLimit": {
        "_hex": "0x5208"
      },
      "to": "0x32Be343B94f860124dC4fEe278FDCBD38C102D88",
      "value": {
        "_hex": "0x455f67354b5f3c00"
      },
      "nonce": 62,
      "data": "0x",
      "r": "0xaa98fa90109f24f639274b8168df90bf35e621d65e6cf8ad550b615e5fc48f46",
      "s": "0x35a2c34ef26d61c54d109d9f2a3ec6331eb32d7992cfef8474a3f73241bc9a42",
      "v": 27,
      "creates": null,
      "raw": "0xf86c3e850cffac56c78252089432be343b94f860124dc4fee278fdcbd38c102d8888455f67354b5f3c00801ba0aa98fa90109f24f639274b8168df90bf35e621d65e6cf8ad550b615e5fc48f46a035a2c34ef26d61c54d109d9f2a3ec6331eb32d7992cfef8474a3f73241bc9a42",
      "networkId": 0,
      "chainId": 0
    },
    {
      "hash": "0x2ec234cf75d88793250011301564b8023e6e88ef1f2615779882141a253d4223",
      "blockHash": "0x4698e0a1bb812e9d4bebdaa7590e65ad66bd91f2d6af8a30eee5f7e643d8e633",
      "blockNumber": 103259,
      "transactionIndex": 2,
      "confirmations": null,
      "from": "0x029b539130345336FA435C807F08B86a344A1BFe",
      "gasPrice": {
        "_hex": "0xcffac56c7"
      },
      "gasLimit": {
        "_hex": "0x5208"
      },
      "to": "0x32Be343B94f860124dC4fEe278FDCBD38C102D88",
      "value": {
        "_hex": "0xa1502bd4848ad000"
      },
      "nonce": 5,
      "data": "0x",
      "r": "0x8187e20af97cdf68dce71cbe95c19e2e2b02c45612a0edeb64b2046947afb6b3",
      "s": "0x5cdb8997125f22e35411c7d99cb76a1241484bfbc36da83c8aa20660c57464b0",
      "v": 28,
      "creates": null,
      "raw": "0xf86c05850cffac56c78252089432be343b94f860124dc4fee278fdcbd38c102d8888a1502bd4848ad000801ca08187e20af97cdf68dce71cbe95c19e2e2b02c45612a0edeb64b2046947afb6b3a05cdb8997125f22e35411c7d99cb76a1241484bfbc36da83c8aa20660c57464b0",
      "networkId": 0,
      "chainId": 0
    },
    {
      "hash": "0x2a0501ec91d9bfacb6ee9f77ccf11ce61bc853f09f5d276fedc562242a250094",
      "blockHash": "0x4698e0a1bb812e9d4bebdaa7590e65ad66bd91f2d6af8a30eee5f7e643d8e633",
      "blockNumber": 103259,
      "transactionIndex": 3,
      "confirmations": null,
      "from": "0xB8796061FcCcC0c40BD2060d95d6cff928bD1C1B",
      "gasPrice": {
        "_hex": "0xcffac56c7"
      },
      "gasLimit": {
        "_hex": "0x5208"
      },
      "to": "0x32Be343B94f860124dC4fEe278FDCBD38C102D88",
      "value": {
        "_hex": "0x260df25bd56aec000"
      },
      "nonce": 6,
      "data": "0x",
      "r": "0x17c448cddcbd4ecdfbb3805b469c005b03d05a36ef86d0f946e654e3fc77d44f",
      "s": "0x01d0d844a40c19cba02461ff47b4e1ca52c8c1cf45f2a8b4f2852d39e6ced55e",
      "v": 27,
      "creates": null,
      "raw": "0xf86d06850cffac56c78252089432be343b94f860124dc4fee278fdcbd38c102d88890260df25bd56aec000801ba017c448cddcbd4ecdfbb3805b469c005b03d05a36ef86d0f946e654e3fc77d44fa001d0d844a40c19cba02461ff47b4e1ca52c8c1cf45f2a8b4f2852d39e6ced55e",
      "networkId": 0,
      "chainId": 0
    }
  ]
}