{
  "hash": "0xc8094a60968f121ecc6d8d3587e6d33daf2ecb391b876a1eb5ddb99ed776c790",
  "parentHash": "0x23fe7a11dd958986fdb5f5d855186a9df7c4f4597e1e9a67b5ddc77a9df14cf6",
  "number": 94944,
  "timestamp": 1439716484,
  "nonce": "0x30c875b67ef4aa5d",
  "difficulty": 3517227343503,
  "gasLimit": {
    "_hex": "0x2fefd8"
  },
  "gasUsed": {
    "_hex": "0xa414"
  },
  "miner": "0xe6A7a1d47ff21B6321162AEA7C6CB457D5476Bca",
  "extraData": "0x476574682f76312e302e312d38326566323666362f6c696e75782f676f312e34",
  "transactions": [
    {
      "hash": "0x5248675586b5dbbe164b6674153fb0db21e044f911bb4baa314373555b32172e",
      "blockHash": "0xc8094a60968f121ecc6d8d3587e6d33daf2ecb391b876a1eb5ddb99ed776c790",
      "blockNumber": 94944,
      "transactionIndex": 0,
      "confirmations": null,
      "from": "0x8b06F59751d5260f1d1d7ec4B399c04609B9d974",
      "gasPrice": {
        "_hex": "0xd5cfaaa95"
      },
      "gasLimit": {
        "_hex": "0x15f90"
      },
      "to": "0x7884D470204862a0d1A21122F41ee77430396Ee5",
      "value": {
        "_hex": "0x553c1180"
      },
      "nonce": 2,
      "data": "0x",
      "r": "0x62bda54507d3b51468c9c72787794769dc1358c802a6dce07618be3303dba239",
      "s": "0x54ff799ad7154d1f42f2198984f3d7bfb8472ca7acc29fd2bf0bab0a9f53a3da",
      "v": 27,
      "creates": null,
      "raw": "0xf86902850d5cfaaa9583015f90947884d470204862a0d1a21122f41ee77430396ee584553c1180801ba062bda54507d3b51468c9c72787794769dc1358c802a6dce07618be3303dba239a054ff799ad7154d1f42f2198984f3d7bfb8472ca7acc29fd2bf0bab0a9f53a3da",
      "networkId": 0,
      "chainId": 0
    },
    {
      "hash": "0xaca7ec9af1a8e3f012d1913e1e3cd689870132ca7238fcd9071dfac50646ae52",
      "blockHash": "0xc8094a60968f121ecc6d8d3587e6d33daf2ecb391b876a1eb5ddb99ed776c790",
      "blockNumber": 94944,
      "transactionIndex": 1,
      "confirmations": null,
      "from": "0x8375eA550366a24550ec93283600485F4Ba8CFE5",
      "gasPrice": {
        "_hex": "0xd4f67e805"
      },
      "gasLimit": {
        "_hex": "0x7530"
      },
      "to": "0xb9836ec1f42Bd48331bceaedb74a6Bcdc22832bD",
      "value": {
        "_hex": "0x58d15e17628000"
      },
      "nonce": 23,
      "data": "0x00",
      "r": "0xfce87342a6af4b20fdc1a4054de3e4c0a2d46a68e0da95e14a1e7e8f7cf33c24",
      "s": "0x49dca7a8329494a89482fac0f530af7dde66fa5723928d5d06c3342c9da57e63",
      "v": 27,
      "creates": null,
      "raw": "0xf86b17850d4f67e80582753094b9836ec1f42bd48331bceaedb74a6bcdc22832bd8758d15e17628000001ba0fce87342a6af4b20fdc1a4054de3e4c0a2d46a68e0da95e14a1e7e8f7cf33c24a049dca7a8329494a89482fac0f530af7dde66fa5723928d5d06c3342c9da57e63",
      "networkId": 0,
      "chainId": 0
    }
  ]
}