{
  "hash": "0xa67cbb0fd9d1166887f273e59c5b0609823067ba9a8e8146e93fd81c1426459a",
  "parentHash": "0x0a5bd35594e93db90773db65c4a3306c54fb4923a6c4a3c33baea8aa2eb49280",
  "number": 48864,
  "timestamp": 1438964284,
  "nonce": "0x5abf85eed6e131f2",
  "difficulty": 1472835605033,
  "gasLimit": {
    "_hex": "0x1fdd7"
  },
  "gasUsed": {
    "_hex": "0xa674"
  },
  "miner": "0xe6A7a1d47ff21B6321162AEA7C6CB457D5476Bca",
  "extraData": "0x657468706f6f6c2e6f7267",
  "transactions": [
    {
      "hash": "0xedee00f268967b06fb57d580121c7ae76d86d98bbd7c4d229ec5fe9de46513fa",
      "blockHash": "0xa67cbb0fd9d1166887f273e59c5b0609823067ba9a8e8146e93fd81c1426459a",
      "blockNumber": 48864,
      "transactionIndex": 0,
      "confirmations": null,
      "from": "0x86889b1CeA13d370E827e099e3778b17d488B3Dd",
      "gasPrice": {
        "_hex": "0xdb23fcb27"
      },
      "gasLimit": {
        "_hex": "0x15f90"
      },
      "to": "0x87abfFA6b80f712C852A9558120bA6611f0B5e46",
      "value": {
        "_hex": "0x98a7d9b8314c0000"
      },
      "nonce": 0,
      "data": "0x",
      "r": "0x71089a0a52cfc53b5357b3c9b06be93add916a72c755e37ea4b10c5b3a87c8d4",
      "s": "0x4a0aad25c0413369315c48765b43d5eba2ec2155d50995b58de6ec997307a10a",
      "v": 28,
      "creates": null,
      "raw": "0xf86d80850db23fcb2783015f909487abffa6b80f712c852a9558120ba6611f0b5e468898a7d9b8314c0000801ca071089a0a52cfc53b5357b3c9b06be93add916a72c755e37ea4b10c5b3a87c8d4a04a0aad25c0413369315c48765b43d5eba2ec2155d50995b58de6ec997307a10a",
      "networkId": 0,
      "chainId": 0
    },
    {
      "hash": "0xa8194679daba2cd16c48b1720264610c2e9c68981ebfe80376e33914861f2c15",
      "blockHash": "0xa67cbb0fd9d1166887f273e59c5b0609823067ba9a8e8146e93fd81c1426459a",
      "blockNumber": 48864,
      "transactionIndex": 1,
      "confirmations": null,
      "from": "0x29E88Cb82e196cA8eDB167258F9BA302a31CB2F6",
      "gasPrice": {
        "_hex": "0xd90458264"
      },
      "gasLimit": {
        "_hex": "0x15f90"
      },
      "to": "0x2910543Af39abA0Cd09dBb2D50200b3E800A63D2",
      "value": {
        "_hex": "0xde0b6b3a7640000"
      },
      "nonce": 2,
      "data": "0x454e4a465a4d464d47",
      "r": "0x376f4619ebb5b3d4e97a795230f7ff6805643db60dce59d2faac60635307bc9e",
      "s": "0x186bda3eaa2183554165a3d4ea6aafa332935da339afbb3da0da4d4bca4b74f7",
      "v": 28,
      "creates": null,
      "raw": "0xf87602850d9045826483015f90942910543af39aba0cd09dbb2d50200b3e800a63d2880de0b6b3a764000089454e4a465a4d464d471ca0376f4619ebb5b3d4e97a795230f7ff6805643db60dce59d2faac60635307bc9ea0186bda3eaa2183554165a3d4ea6aafa332935da339afbb3da0da4d4bca4b74f7",
      "networkId": 0,
      "chainId": 0
    }
  ]
}