{
  "hash": "0xd429e640710fc84cf00ff3d39dcb73c8d40031fb7cbf105a28adb6c194f029aa",
  "parentHash": "0xacf1fe45cfe61112db2927ed20065fee6a4bbd82ee74e6cb0fed2bb596deffb2",
  "number": 71345,
  "timestamp": 1439334434,
  "nonce": "0x95a73278037e5d03",
  "difficulty": 2178317045614,
  "gasLimit": {
    "_hex": "0x2fefd8"
  },
  "gasUsed": {
    "_hex": "0x5208"
  },
  "miner": "0x9746c7e1ef2bd21FF3997fa467593a89cb852BD0",
  "extraData": "0x476574682f76312e302e312f77696e646f77732f676f312e342e32",
  "transactions": [
    {
      "hash": "0x6bec582a4c83df0ad978b2589c668891add902a046728fc7124fc0584621118b",
      "blockHash": "0xd429e640710fc84cf00ff3d39dcb73c8d40031fb7cbf105a28adb6c194f029aa",
      "blockNumber": 71345,
      "transactionIndex": 0,
      "confirmations": null,
      "from": "0x8d304933a1F93F268bFDcFF9FFE6846a75167279",
      "gasPrice": {
        "_hex": "0xce58eccc3"
      },
      "gasLimit": {
        "_hex": "0x5208"
      },
      "to": "0x32Be343B94f860124dC4fEe278FDCBD38C102D88",
      "value": {
        "_hex": "0x5de2e2000673400"
      },
      "nonce": 1,
      "data": "0x",
      "r": "0xb265f305fdf5846b0640d4de339e7a24c864e16e0fa4f49c19f3908d9e64b890",
      "s": "0x33d82fceeb3853ad16b0c2b4a579ac15a17ae2bd84f652942c830aa87f07f6bb",
      "v": 28,
      "creates": null,
      "raw": "0xf86c01850ce58eccc38252089432be343b94f860124dc4fee278fdcbd38c102d888805de2e2000673400801ca0b265f305fdf5846b0640d4de339e7a24c864e16e0fa4f49c19f3908d9e64b890a033d82fceeb3853ad16b0c2b4a579ac15a17ae2bd84f652942c830aa87f07f6bb",
      "networkId": 0,
      "chainId": 0
    }
  ]
}