{
  "hash": "0x908be928177f7d147b6e45d4efcf05d0d42db135d6870f72c5185d6a65a59305",
  "parentHash": "0x81a8d2edf042613bd02c3b63c2cd45f5f108cb90759e41d7ca3d021f993033ae",
  "number": 122324,
  "timestamp": 1440192205,
  "nonce": "0x7122a0c585ef621a",
  "difficulty": 4466461842924,
  "gasLimit": {
    "_hex": "0x2fefd8"
  },
  "gasUsed": {
    "_hex": "0x5208"
  },
  "miner": "0x52bc44d5378309EE2abF1539BF71dE1b7d7bE3b5",
  "extraData": "0xd783010002844765746887676f312e342e32856c696e7578",
  "transactions": [
    {
      "hash": "0x4dd066054257c9784b07a4568f529d256c0ac3779b59821a679c960903721ad3",
      "blockHash": "0x908be928177f7d147b6e45d4efcf05d0d42db135d6870f72c5185d6a65a59305",
      "blockNumber": 122324,
      "transactionIndex": 0,
      "confirmations": null,
      "from": "0x007f7f58D3eb5b7510A301eCC749FC1fCDDBE14D",
      "gasPrice": {
        "_hex": "0xba43b7400"
      },
      "gasLimit": {
        "_hex": "0x15f90"
      },
      "to": "0xb1abce2918E21ddb93AA452731a12672A3d9F75a",
      "value": {
        "_hex": "0x4563918244f40000"
      },
      "nonce": 392,
      "data": "0x",
      "r": "0xd8743ef528203cec1a4f6d668063fd58f9f0e0c1960e8168f60261f50548f856",
      "s": "0x02322e60e481aeeedb65a966e4f45217339e25095114f2a9025943deeb1116d4",
      "v": 27,
      "creates": null,
      "raw": "0xf86f820188850ba43b740083015f9094b1abce2918e21ddb93aa452731a12672a3d9f75a884563918244f40000801ba0d8743ef528203cec1a4f6d668063fd58f9f0e0c1960e8168f60261f50548f856a002322e60e481aeeedb65a966e4f45217339e25095114f2a9025943deeb1116d4",
      "networkId": 0,
      "chainId": 0
    }
  ]
}