{
  "hash": "0x548f1dfcb6e514092121a70febf157bd0d5cda6ce07e63c6471af7c493d74159",
  "parentHash": "0xb9cc07a1e83567a309f4b5022e1ed0870a26477bd76ab9daee0034afd4a1a9ed",
  "number": 81693,
  "timestamp": 1439506018,
  "nonce": "0x2017375f34a4effa",
  "difficulty": 2434213483679,
  "gasLimit": {
    "_hex": "0x2fefd8"
  },
  "gasUsed": {
    "_hex": "0xf618"
  },
  "miner": "0x9746c7e1ef2bd21FF3997fa467593a89cb852BD0",
  "extraData": "0x476574682f76312e302e312f77696e646f77732f676f312e342e32",
  "transactions": [
    {
      "hash": "0xca559bacc5b4cd1f3549cbdb5097dfbe87e5505c740aa3dfcdb4c9b13331f014",
      "blockHash": "0x548f1dfcb6e514092121a70febf157bd0d5cda6ce07e63c6471af7c493d74159",
      "blockNumber": 81693,
      "transactionIndex": 0,
      "confirmations": null,
      "from": "0x120A270bbC009644e35F0bB6ab13f95b8199c4ad",
      "gasPrice": {
        "_hex": "0xd8f364814"
      },
      "gasLimit": {
        "_hex": "0x3d090"
      },
      "to": "0xFbc92cE518a6CA6341B08b4468880Cc9Dd61a027",
      "value": {
        "_hex": "0x1bb15def742fa7cc00"
      },
      "nonce": 387,
      "data": "0x",
      "r": "0xe8eef9e79e8e135e53690e8a92df0c0f0e618687d69c2c4e1dc40f375aabc24a",
      "s": "0x098e06b999bcb29a711a40cb49e306770113d7a4b7bfe2726f1394256940f252",
      "v": 27,
      "creates": null,
      "raw": "0xf870820183850d8f3648148303d09094fbc92ce518a6ca6341b08b4468880cc9dd61a027891bb15def742fa7cc00801ba0e8eef9e79e8e135e53690e8a92df0c0f0e618687d69c2c4e1dc40f375aabc24aa0098e06b999bcb29a711a40cb49e306770113d7a4b7bfe2726f1394256940f252",
      "networkId": 0,
      "chainId": 0
    },
    {
      "hash": "0x1f06f3ff71a12bb98325ed75af7d2dc2bcb732e5e7b6463adfb68b487d152792",
      "blockHash": "0x548f1dfcb6e514092121a70febf157bd0d5cda6ce07e63c6471af7c493d74159",
      "blockNumber": 81693,
      "transactionIndex": 1,
      "confirmations": null,
      "from": "0x32485C818728C197FeA487fBb6E829159eba8370",
      "gasPrice": {
        "_hex": "0xd69b48315"
      },
      "gasLimit": {
        "_hex": "0x15f90"
      },
      "to": "0x3D01cd9bD80e2165FFf6F863E0ddd402EbC4ae9c",
      "value": {
        "_hex": "0x16345785d8a0000"
      },
      "nonce": 1,
      "data": "0x",
      "r": "0x3cfefa54a6a0335addaa7cfdc2902de80749abb171d9a6ca99f5ae1dd855768f",
      "s": "0x1725b645481b338cf501cd49db502170567af677967a31fa08993379c3c7948e",
      "v": 27,
      "creates": null,
      "raw": "0xf86d01850d69b4831583015f90943d01cd9bd80e2165fff6f863e0ddd402ebc4ae9c88016345785d8a0000801ba03cfefa54a6a0335addaa7cfdc2902de80749abb171d9a6ca99f5ae1dd855768fa01725b645481b338cf501cd49db502170567af677967a31fa08993379c3c7948e",
      "networkId": 0,
      "chainId": 0
    },
    {
      "hash": "0x22a2dfcfe979f66552040f4548d3023f5d4bae807f112627f55a6a7511fc4bdb",
      "blockHash": "0x548f1dfcb6e514092121a70febf157bd0d5cda6ce07e63c6471af7c493d74159",
      "blockNumber": 81693,
      "transactionIndex": 2,
      "confirmations": null,
      "from": "0x32Be343B94f860124dC4fEe278FDCBD38C102D88",
      "gasPrice": {
        "_hex": "0xd0841a339"
      },
      "gasLimit": {
        "_hex": "0x5208"
      },
      "to": "0xB48CB04D046210A9F58175Ad35FCe298428e0969",
      "value": {
        "_hex": "0xa665097968ef0000"
      },
      "nonce": 609,
      "data": "0x",
      "r": "0x95fd645269e350696af8ae0385e66409ac6cee0fffa8b89af6593e7b707237b7",
      "s": "0x0e4aa69a703720788ffdde62369bf8cc6b88381cb582d42a5ad3b3febafc9296",
      "v": 27,
      "creates": null,
      "raw": "0xf86e820261850d0841a33982520894b48cb04d046210a9f58175ad35fce298428e096988a665097968ef0000801ba095fd645269e350696af8ae0385e66409ac6cee0fffa8b89af6593e7b707237b7a00e4aa69a703720788ffdde62369bf8cc6b88381cb582d42a5ad3b3febafc9296",
      "networkId": 0,
      "chainId": 0
    }
  ]
}