{
  "hash": "0xcd9fd6b0c385ad4fb3e8dd0f0b84afd3f1a11fbf42bcc197a15477c725efd537",
  "parentHash": "0x8ce2b4b4b84e649a6c817c25de21b0da602c3e0e41422fb26e9b386144011bd6",
  "number": 113391,
  "timestamp": 1440022707,
  "nonce": "0x3c8386d9482b02e0",
  "difficulty": 4469038016353,
  "gasLimit": {
    "_hex": "0x2fefd8"
  },
  "gasUsed": {
    "_hex": "0xf618"
  },
  "miner": "0x86812DdBab732444dDA27cad1F231C0dC156Cd39",
  "extraData": "0x476574682f76312e302e312f6c696e75782f676f312e342e32",
  "transactions": [
    {
      "hash": "0xea2f449a356e17a7e6dcfb7c6354a2b4bb521509ac53939930b51066c478495f",
      "blockHash": "0xcd9fd6b0c385ad4fb3e8dd0f0b84afd3f1a11fbf42bcc197a15477c725efd537",
      "blockNumber": 113391,
      "transactionIndex": 0,
      "confirmations": null,
      "from": "0x0A319A7e0C887F104359e1eEe6717BD8f232d3Da",
      "gasPrice": {
        "_hex": "0xcec67e47c"
      },
      "gasLimit": {
        "_hex": "0x5208"
      },
      "to": "0x32Be343B94f860124dC4fEe278FDCBD38C102D88",
      "value": {
        "_hex": "0x6209d6c22e880800"
      },
      "nonce": 17,
      "data": "0x",
      "r": "0x84038ab35907e92cc3d24dd706d391f9007accd0384035ca157e2b109a287f90",
      "s": "0x6d65c0787939183d6ecc98cf36c4ce01da83f638827fd86abb03f82374af37e7",
      "v": 27,
      "creates": null,
      "raw": "0xf86c11850cec67e47c8252089432be343b94f860124dc4fee278fdcbd38c102d88886209d6c22e880800801ba084038ab35907e92cc3d24dd706d391f9007accd0384035ca157e2b109a287f90a06d65c0787939183d6ecc98cf36c4ce01da83f638827fd86abb03f82374af37e7",
      "networkId": 0,
      "chainId": 0
    },
    {
      "hash": "0x18acbdd4ae68cf3c45a2b557fc77130f09eef857c5e600e6f1582b0d8c899f24",
      "blockHash": "0xcd9fd6b0c385ad4fb3e8dd0f0b84afd3f1a11fbf42bcc197a15477c725efd537",
      "blockNumber": 113391,
      "transactionIndex": 1,
      "confirmations": null,
      "from": "0x90fba3C13F19F8cf72A3Bb9EE63C8f728F548654",
      "gasPrice": {
        "_hex": "0xcec67e47c"
      },
      "gasLimit": {
        "_hex": "0x5208"
      },
      "to": "0x32Be343B94f860124dC4fEe278FDCBD38C102D88",
      "value": {
        "_hex": "0xa40e627a76099000"
      },
      "nonce": 9,
      "data": "0x",
      "r": "0x7fb52e06ee0887562a345eac6f48854560ebc60fd5d9ab9af3a59404d7d0cba2",
      "s": "0x6bce312a10b4e2414d05b3670d41a78abc21c3769a9accdc91aca2b65acfc68c",
      "v": 27,
      "creates": null,
      "raw": "0xf86c09850cec67e47c8252089432be343b94f860124dc4fee278fdcbd38c102d8888a40e627a76099000801ba07fb52e06ee0887562a345eac6f48854560ebc60fd5d9ab9af3a59404d7d0cba2a06bce312a10b4e2414d05b3670d41a78abc21c3769a9accdc91aca2b65acfc68c",
      "networkId": 0,
      "chainId": 0
    },
    {
      "hash": "0xcd0fd686f4af26c91512ce49e8a0d1180e3f0bcf01d9028c2bb7b5098e464cb4",
      "blockHash": "0xcd9fd6b0c385ad4fb3e8dd0f0b84afd3f1a11fbf42bcc197a15477c725efd537",
      "blockNumber": 113391,
      "transactionIndex": 2,
      "confirmations": null,
      "from": "0xAd941B747c499E3ad5728C285446813783A33564",
      "gasPrice": {
        "_hex": "0xcec67e47c"
      },
      "gasLimit": {
        "_hex": "0x5208"
      },
      "to": "0x32Be343B94f860124dC4fEe278FDCBD38C102D88",
      "value": {
        "_hex": "0x90fc90a8bd725000"
      },
      "nonce": 18,
      "data": "0x",
      "r": "0x9b15dd465581929d15f42bc836ab63c6639a0ec41a7da05c95959ecc50adb81c",
      "s": "0x56420740fcc5c0e5a147ee434326381eccd0d5f5fced906bec8730b57c285b4b",
      "v": 27,
      "creates": null,
      "raw": "0xf86c12850cec67e47c8252089432be343b94f860124dc4fee278fdcbd38c102d888890fc90a8bd725000801ba09b15dd465581929d15f42bc836ab63c6639a0ec41a7da05c95959ecc50adb81ca056420740fcc5c0e5a147ee434326381eccd0d5f5fced906bec8730b57c285b4b",
      "networkId": 0,
      "chainId": 0
    }
  ]
}