{
  "hash": "0x47b3b57d620bfde556998cc77682379076016e5000433e598b7ea3e8d03b3df5",
  "parentHash": "0xe809706ca01e92843396ab3265833f2ea792edd3585618e47627014bbd8f7f01",
  "number": 85072,
  "timestamp": 1439558181,
  "nonce": "0xa502a144103792e0",
  "difficulty": 2715793515016,
  "gasLimit": {
    "_hex": "0x2fe419"
  },
  "gasUsed": {
    "_hex": "0x5208"
  },
  "miner": "0xE706a05a40761915bC70310f7a94e6B2B596dbf8",
  "extraData": "0x476574682f76312e302e312d38326566323666362f6c696e75782f676f312e34",
  "transactions": [
    {
      "hash": "0x7f7b9fc9a1121b964709316cc50c010b12cbb68a1a71e343903788efae06f43d",
      "blockHash": "0x47b3b57d620bfde556998cc77682379076016e5000433e598b7ea3e8d03b3df5",
      "blockNumber": 85072,
      "transactionIndex": 0,
      "confirmations": null,
      "from": "0x2910543Af39abA0Cd09dBb2D50200b3E800A63D2",
      "gasPrice": {
        "_hex": "0xd13ec4a31"
      },
      "gasLimit": {
        "_hex": "0x5208"
      },
      "to": "0x3968A5606ac8747766AE89A61C3265011023673c",
      "value": {
        "_hex": "0xdcef33a6f838000"
      },
      "nonce": 586,
      "data": "0x",
      "r": "0x3e098e9c712b7eba813f479cf760c6dcd340c04a7db1a5020e9e10d3c6542498",
      "s": "0x11f90762cb9bbbe444a5c848c94436a29bd578549ba1f2571517782fbeda4039",
      "v": 28,
      "creates": null,
      "raw": "0xf86e82024a850d13ec4a31825208943968a5606ac8747766ae89a61c3265011023673c880dcef33a6f838000801ca03e098e9c712b7eba813f479cf760c6dcd340c04a7db1a5020e9e10d3c6542498a011f90762cb9bbbe444a5c848c94436a29bd578549ba1f2571517782fbeda4039",
      "networkId": 0,
      "chainId": 0
    }
  ]
}