{
  "hash": "0x189b648979b6dd9efb0e3b414956d1fc1cbcf063e5a61f51559e1737b264963a",
  "parentHash": "0x508c70bffb4ea3e96032c809a0b828396f354cb97712f199fb864351dac47f6a",
  "number": 83885,
  "timestamp": 1439542190,
  "nonce": "0xad600ea07df4cd13",
  "difficulty": 2464669463008,
  "gasLimit": {
    "_hex": "0x2fefd8"
  },
  "gasUsed": {
    "_hex": "0x5208"
  },
  "miner": "0xc15fa6D616245a5c7B7D75A6dFDcA10C0250BD2B",
  "extraData": "0x476574682f76312e302e312f77696e646f77732f676f312e342e32",
  "transactions": [
    {
      "hash": "0x9f61af50ccadd3847b84d4077b4cdc4bf6f9fa958f1bbffe69e4dbe2f737ffac",
      "blockHash": "0x189b648979b6dd9efb0e3b414956d1fc1cbcf063e5a61f51559e1737b264963a",
      "blockNumber": 83885,
      "transactionIndex": 0,
      "confirmations": null,
      "from": "0xcd0Af3474e22F069EC3407870DD770443d5b12B0",
      "gasPrice": {
        "_hex": "0xd627f25b8"
      },
      "gasLimit": {
        "_hex": "0x7a120"
      },
      "to": "0x0bCa038BF4ACAd3Cbf73463EccC7717dDCDc3D83",
      "value": {
        "_hex": "0x6f05b59d3b20000"
      },
      "nonce": 13,
      "data": "0x",
      "r": "0xe79b4810dd7706ae791f7ef815affed6bdc9ed30326c6a66d4cb5e4915b09443",
      "s": "0x747f5ac7c5335a927aa5445dae4a13574e9378101283d9b4db7e1afee5fd233d",
      "v": 27,
      "creates": null,
      "raw": "0xf86d0d850d627f25b88307a120940bca038bf4acad3cbf73463eccc7717ddcdc3d838806f05b59d3b20000801ba0e79b4810dd7706ae791f7ef815affed6bdc9ed30326c6a66d4cb5e4915b09443a0747f5ac7c5335a927aa5445dae4a13574e9378101283d9b4db7e1afee5fd233d",
      "networkId": 0,
      "chainId": 0
    }
  ]
}