{
  "hash": "0xfc87afb6ef748708bdb80c530160422036d99067a6ac2b587fcc26fb2acc103f",
  "parentHash": "0x3003c81381828b9197ea480b4751e470a61cd71c1b45eab5a52e27547f9c9c1d",
  "number": 70941,
  "timestamp": 1439327817,
  "nonce": "0xdd0a40290ff1c4c5",
  "difficulty": 2161469341614,
  "gasLimit": {
    "_hex": "0x2fefd8"
  },
  "gasUsed": {
    "_hex": "0xe5ba"
  },
  "miner": "0xe6A7a1d47ff21B6321162AEA7C6CB457D5476Bca",
  "extraData": "0x476574682f76312e302e312d38326566323666362f6c696e75782f676f312e34",
  "transactions": [
    {
      "hash": "0x9506087d4b95b943a3136ee687d5cb5927b68bc4d75f1e5e4f55b4d6d8abb818",
      "blockHash": "0xfc87afb6ef748708bdb80c530160422036d99067a6ac2b587fcc26fb2acc103f",
      "blockNumber": 70941,
      "transactionIndex": 0,
      "confirmations": null,
      "from": "0x17580B766f7453525ca4C6A88b01b50570EA088C",
      "gasPrice": {
        "_hex": "0xd822e4f11"
      },
      "gasLimit": {
        "_hex": "0x61a80"
      },
      "to": "0x5Fe5B7546D1628f7348B023A0393de1FC825A4fD",
      "value": {
        "_hex": "0x53444835ec580000"
      },
      "nonce": 57,
      "data": "0xb595b8b50000000000000000000000000000000000000000000000000000000000000000",
      "r": "0x734812225ff55af85d62266da90a5894da65bd669d13f4001ffe9ee1d7c5a2b9",
      "s": "0x0d8150eb97df5a1890d2a3e7c4fbf44d9ddb50ad070c975d22ab9d41cb3a0c06",
      "v": 27,
      "creates": null,
      "raw": "0xf89139850d822e4f1183061a80945fe5b7546d1628f7348b023a0393de1fc825a4fd8853444835ec580000a4b595b8b500000000000000000000000000000000000000000000000000000000000000001ba0734812225ff55af85d62266da90a5894da65bd669d13f4001ffe9ee1d7c5a2b9a00d8150eb97df5a1890d2a3e7c4fbf44d9ddb50ad070c975d22ab9d41cb3a0c06",
      "networkId": 0,
      "chainId": 0
    },
    {
      "hash": "0xaffba3a85e197954e0b07577bee3c6125045d624ce03d1db7c6df207db513824",
      "blockHash": "0xfc87afb6ef748708bdb80c530160422036d99067a6ac2b587fcc26fb2acc103f",
      "blockNumber": 70941,
      "transactionIndex": 1,
      "confirmations": null,
      "from": "0xee04bfEDEa5A989165311fe3d04136ce8841208f",
      "gasPrice": {
        "_hex": "0xd6a868bbf"
      },
      "gasLimit": {
        "_hex": "0x15f90"
      },
      "to": "0x585aE8Cf889282751b3C38c38A9C833D96d0dc59",
      "value": {
        "_hex": "0x3d0ff0b013b80000"
      },
      "nonce": 1,
      "data": "0x",
      "r": "0x0353941dcbe48f479b065a1fe6d5d2b3ba3a5178f6fae54f83351b8d15b3753c",
      "s": "0x6a4cfb6b8f9da30c4a0c16dacdaf2545a4cb37f62b711064996ef004150cec9e",
      "v": 28,
      "creates": null,
      "raw": "0xf86d01850d6a868bbf83015f9094585ae8cf889282751b3c38c38a9c833d96d0dc59883d0ff0b013b80000801ca00353941dcbe48f479b065a1fe6d5d2b3ba3a5178f6fae54f83351b8d15b3753ca06a4cfb6b8f9da30c4a0c16dacdaf2545a4cb37f62b711064996ef004150cec9e",
      "networkId": 0,
      "chainId": 0
    }
  ]
}