{
  "hash": "0x32e07ea83f9c58972bc9e07fd7ef574c0197616b907f3abddc106c89cc4127fc",
  "parentHash": "0x332971e896272518b7e0ac32733b2a9df4f997584fde35834b3fc14493ac792f",
  "number": 62509,
  "timestamp": 1439189993,
  "nonce": "0x8dc14a28488bcd00",
  "difficulty": 1764190306727,
  "gasLimit": {
    "_hex": "0x2fefd5"
  },
  "gasUsed": {
    "_hex": "0x245c6"
  },
  "miner": "0x06D138312754bDEB5c1175f47cE00620c480E9C9",
  "extraData": "0x476574682f76312e302e312f6c696e75782f676f312e342e32",
  "transactions": [
    {
      "hash": "0x125e7ab0db715af959edcc2b2dc843a5bf2cb548204a7387b3f8e69cbac085c5",
      "blockHash": "0x32e07ea83f9c58972bc9e07fd7ef574c0197616b907f3abddc106c89cc4127fc",
      "blockNumber": 62509,
      "transactionIndex": 0,
      "confirmations": null,
      "from": "0x17580B766f7453525ca4C6A88b01b50570EA088C",
      "gasPrice": {
        "_hex": "0xdb16c6c55"
      },
      "gasLimit": {
        "_hex": "0x7a120"
      },
      "to": "0xfBc128067A2FE13C11BBC6cc55f29AA1F27630DA",
      "value": {
        "_hex": "0xde0b6b3a7640000"
      },
      "nonce": 12,
      "data": "0x",
      "r": "0x4e8f490619833a1f87281a6de5183a4b19e9a3ea573d64b2172a7c27be4ae3c0",
      "s": "0x7d7ca5bd5e23bdf4f68d672639b4cdaff98dfd9b9801f7c6fc5380e98cae2a9c",
      "v": 27,
      "creates": null,
      "raw": "0xf86d0c850db16c6c558307a12094fbc128067a2fe13c11bbc6cc55f29aa1f27630da880de0b6b3a7640000801ba04e8f490619833a1f87281a6de5183a4b19e9a3ea573d64b2172a7c27be4ae3c0a07d7ca5bd5e23bdf4f68d672639b4cdaff98dfd9b9801f7c6fc5380e98cae2a9c",
      "networkId": 0,
      "chainId": 0
    }
  ]
}