{
  "hash": "0xccf35924160ea4afbc4af6cb577194257e1414b934a20d1f5c9fc7cca38db2ae",
  "parentHash": "0xda3760b2d0536580faf661097267a06795454dc175875bc1f8f002083f48bcc7",
  "number": 65037,
  "timestamp": 1439230265,
  "nonce": "0xce0b571e9354bd90",
  "difficulty": 1921926332130,
  "gasLimit": {
    "_hex": "0x2fefd8"
  },
  "gasUsed": {
    "_hex": "0x17cd8"
  },
  "miner": "0xf927a40C8B7F6E07c5af7FA2155B4864a4112B13",
  "extraData": "0x",
  "transactions": [
    {
      "hash": "0x69ca76d83f13399b9802ccfcb4ff4333d1afa34c55395f8094a1695779750b1e",
      "blockHash": "0xccf35924160ea4afbc4af6cb577194257e1414b934a20d1f5c9fc7cca38db2ae",
      "blockNumber": 65037,
      "transactionIndex": 0,
      "confirmations": null,
      "from": "0x00Ecd14b8Bb5Ef60a932462074a4107870bd9efA",
      "gasPrice": {
        "_hex": "0xba43b7400"
      },
      "gasLimit": {
        "_hex": "0x15f90"
      },
      "to": "0x793AE8C1b1a160BFc07BFB0d04F85eab1A71F4f2",
      "value": {
        "_hex": "0x0"
      },
      "nonce": 0,
      "data": "0x3ba15036",
      "r": "0x3bbe8e0ec446e8199a78ba6afb33bdb4482d12883f805b6c25b41f0f273dfb69",
      "s": "0x32be02593664f2af168d486d481a904997f4ec79c9628e827b79a44c5145dcab",
      "v": 27,
      "creates": null,
      "raw": "0xf86980850ba43b740083015f9094793ae8c1b1a160bfc07bfb0d04f85eab1a71f4f280843ba150361ba03bbe8e0ec446e8199a78ba6afb33bdb4482d12883f805b6c25b41f0f273dfb69a032be02593664f2af168d486d481a904997f4ec79c9628e827b79a44c5145dcab",
      "networkId": 0,
      "chainId": 0
    },
    {
      "hash": "0x6764730328d7d7eee72a65b3d93dd7403a65e1c67bfb8d2d80eabcd3dce840be",
      "blockHash": "0xccf35924160ea4afbc4af6cb577194257e1414b934a20d1f5c9fc7cca38db2ae",
      "blockNumber": 65037,
      "transactionIndex": 1,
      "confirmations": null,
      "from": "0x6c1fd76592E37F792f7DD0FB44C96A82d75252FB",
      "gasPrice": {
        "_hex": "0xba43b7400"
      },
      "gasLimit": {
        "_hex": "0x15f90"
      },
      "to": "0x793AE8C1b1a160BFc07BFB0d04F85eab1A71F4f2",
      "value": {
        "_hex": "0x0"
      },
      "nonce": 0,
      "data": "0x3ba15036",
      "r": "0xd4fa5efc30f261650f2436ee33be314d2df422fdd70d88ca0135c5453bc780f6",
      "s": "0x10e39f5f81d84d7314580798e3abfb79338c684b3af813170c0c7cd15c5b56a5",
      "v": 28,
      "creates": null,
      "raw": "0xf86980850ba43b740083015f9094793ae8c1b1a160bfc07bfb0d04f85eab1a71f4f280843ba150361ca0d4fa5efc30f261650f2436ee33be314d2df422fdd70d88ca0135c5453bc780f6a010e39f5f81d84d7314580798e3abfb79338c684b3af813170c0c7cd15c5b56a5",
      "networkId": 0,
      "chainId": 0
    }
  ]
}