{
  "hash": "0xe4edaa3536a38ba35d06e479b369d7812daacec9fad2cab1d9370fecc5c1059c",
  "parentHash": "0x3d56e2332e25b1dae0a5234709ed327203147fdefac5e3157fc64c6483bc14f6",
  "number": 84736,
  "timestamp": 1439553916,
  "nonce": "0x0820080c6d5bb026",
  "difficulty": 2614409593652,
  "gasLimit": {
    "_hex": "0x2fefd8"
  },
  "gasUsed": {
    "_hex": "0x6819"
  },
  "miner": "0xf8E0CA3Ed80bd541b94BEdCf259e8CF2141A9523",
  "extraData": "0x476574682f76312e302e312f77696e646f77732f676f312e342e32",
  "transactions": [
    {
      "hash": "0x8a1bf1072c75de99f5be83615aa1bf8c33b9b471f046347dcad3f645e1521a41",
      "blockHash": "0xe4edaa3536a38ba35d06e479b369d7812daacec9fad2cab1d9370fecc5c1059c",
      "blockNumber": 84736,
      "transactionIndex": 0,
      "confirmations": null,
      "from": "0xC4c6bAF00209a0f33331e4B7cb1c7B680A3d2F79",
      "gasPrice": {
        "_hex": "0xcd9650c94"
      },
      "gasLimit": {
        "_hex": "0x15f90"
      },
      "to": "0xa1A111bc074c9cfa781F0C38e63bD51c91b8af00",
      "value": {
        "_hex": "0x0"
      },
      "nonce": 4,
      "data": "0x201745d559554e4200000000000000000000000000000000000000000000000000000000000000000000000000000000c4c6baf00209a0f33331e4b7cb1c7b680a3d2f79",
      "r": "0xcfc170464fa431ae8705167e092f340391ed0ca5ecdaa963b7554f2c6c463834",
      "s": "0x527d754234f81a49f52fc0e7af8c78522c7a20c0b59e8cf7e6e88bd9c103f1aa",
      "v": 27,
      "creates": null,
      "raw": "0xf8aa04850cd9650c9483015f9094a1a111bc074c9cfa781f0c38e63bd51c91b8af0080b844201745d559554e4200000000000000000000000000000000000000000000000000000000000000000000000000000000c4c6baf00209a0f33331e4b7cb1c7b680a3d2f791ba0cfc170464fa431ae8705167e092f340391ed0ca5ecdaa963b7554f2c6c463834a0527d754234f81a49f52fc0e7af8c78522c7a20c0b59e8cf7e6e88bd9c103f1aa",
      "networkId": 0,
      "chainId": 0
    }
  ]
}