{
  "hash": "0x35f30bda594471e08f6f66168b0a9ff2179cbed3bcdd8e3496a909b6e83d0465",
  "parentHash": "0xa750628d950b159b259adcd7d2596c2a3060cc3b07b833625126b947670f2c69",
  "number": 48744,
  "timestamp": 1438962226,
  "nonce": "0x4e9cd45e68399569",
  "difficulty": 1475736158775,
  "gasLimit": {
    "_hex": "0x1d5b7"
  },
  "gasUsed": {
    "_hex": "0xa410"
  },
  "miner": "0xf8E0CA3Ed80bd541b94BEdCf259e8CF2141A9523",
  "extraData": "0x476574682f76312e302e312f77696e646f77732f676f312e342e32",
  "transactions": [
    {
      "hash": "0x15096e90fc6852be16a26d5fb19d4152b5887b8f7e5275f96cf148f4ef571760",
      "blockHash": "0x35f30bda594471e08f6f66168b0a9ff2179cbed3bcdd8e3496a909b6e83d0465",
      "blockNumber": 48744,
      "transactionIndex": 0,
      "confirmations": null,
      "from": "0xEC73114c5e406fdBBE09B4FA621bd70ED54eA1ef",
      "gasPrice": {
        "_hex": "0x10c421a41c6"
      },
      "gasLimit": {
        "_hex": "0x15f90"
      },
      "to": "0x3feB4963f938A7Bc17243C368ad0d74171b60fD1",
      "value": {
        "_hex": "0x56bc75e2d63100000"
      },
      "nonce": 0,
      "data": "0x",
      "r": "0xf837f7977352183df50dd9366d16d059593980e2ff56d508b37c29903ce278bf",
      "s": "0x6835ab9ae06a9608ac0e7973c3bca933f705f50a1de9a4b8a3edbb6e27cf3782",
      "v": 27,
      "creates": null,
      "raw": "0xf86f8086010c421a41c683015f90943feb4963f938a7bc17243c368ad0d74171b60fd189056bc75e2d63100000801ba0f837f7977352183df50dd9366d16d059593980e2ff56d508b37c29903ce278bfa06835ab9ae06a9608ac0e7973c3bca933f705f50a1de9a4b8a3edbb6e27cf3782",
      "networkId": 0,
      "chainId": 0
    },
    {
      "hash": "0xf2ec20a3a3758e61bc22228e4f9bb1aac54734d0a4be191b5732b38b06db6019",
      "blockHash": "0x35f30bda594471e08f6f66168b0a9ff2179cbed3bcdd8e3496a909b6e83d0465",
      "blockNumber": 48744,
      "transactionIndex": 1,
      "confirmations": null,
      "from": "0x796F87BA617a2930B1670BE92ed1281Fb0b346e1",
      "gasPrice": {
        "_hex": "0x10a110f25d0"
      },
      "gasLimit": {
        "_hex": "0x15f90"
      },
      "to": "0x5Fcb6761B7463127E5e79e151Fb542472a454C3E",
      "value": {
        "_hex": "0x8ac7230489e80000"
      },
      "nonce": 0,
      "data": "0x",
      "r": "0xf60b4b9e0ce4f27137f7117f9f0a8781390516c86253b5112ade1cd95ae8f579",
      "s": "0x75edc9a483fad30a0148d4d6b75a08849008973de783f74ebcdb8e7aaa02f058",
      "v": 27,
      "creates": null,
      "raw": "0xf86e8086010a110f25d083015f90945fcb6761b7463127e5e79e151fb542472a454c3e888ac7230489e80000801ba0f60b4b9e0ce4f27137f7117f9f0a8781390516c86253b5112ade1cd95ae8f579a075edc9a483fad30a0148d4d6b75a08849008973de783f74ebcdb8e7aaa02f058",
      "networkId": 0,
      "chainId": 0
    }
  ]
}