{
  "hash": "0xdf06a3709b254e0ab7baf077309695c47e0d9c35f00d12563cbc1722b5c6b70b",
  "parentHash": "0xf350d8a438d02028844e2c9189c6a15e10af8f9177de8041a737c989d8038a38",
  "number": 97474,
  "timestamp": 1439756740,
  "nonce": "0xb06128fa5c633227",
  "difficulty": 3827961198881,
  "gasLimit": {
    "_hex": "0x2fefd8"
  },
  "gasUsed": {
    "_hex": "0xa410"
  },
  "miner": "0x50f5E0F817a9bF0194A1703aA0dF67a9F2575F06",
  "extraData": "0x476574682f76312e302e312f6c696e75782f676f312e342e32",
  "transactions": [
    {
      "hash": "0x7696df2d70af76ab390e9ca2578c2db9cae6b08a177ec7dbb43d41b8fb0b498a",
      "blockHash": "0xdf06a3709b254e0ab7baf077309695c47e0d9c35f00d12563cbc1722b5c6b70b",
      "blockNumber": 97474,
      "transactionIndex": 0,
      "confirmations": null,
      "from": "0x0D4EcC7d750180EBf4A9Df728B6669B5Bceb5E40",
      "gasPrice": {
        "_hex": "0xd88289497"
      },
      "gasLimit": {
        "_hex": "0x5208"
      },
      "to": "0x32Be343B94f860124dC4fEe278FDCBD38C102D88",
      "value": {
        "_hex": "0x8ac2ccfabcf53800"
      },
      "nonce": 43,
      "data": "0x",
      "r": "0x1814a748b87ab152e78564a3a16f42b3185fb34dfa61a1ab0f23fb0904c3707b",
      "s": "0x4972b87fcde91472e64abfe721b9fa58cd233312cf705fb9dbc37dc6b5101dcb",
      "v": 27,
      "creates": null,
      "raw": "0xf86c2b850d882894978252089432be343b94f860124dc4fee278fdcbd38c102d88888ac2ccfabcf53800801ba01814a748b87ab152e78564a3a16f42b3185fb34dfa61a1ab0f23fb0904c3707ba04972b87fcde91472e64abfe721b9fa58cd233312cf705fb9dbc37dc6b5101dcb",
      "networkId": 0,
      "chainId": 0
    },
    {
      "hash": "0x6377fa8945a0daedf243727fb14e32808e4716163190cfdd517bb785f2dce02b",
      "blockHash": "0xdf06a3709b254e0ab7baf077309695c47e0d9c35f00d12563cbc1722b5c6b70b",
      "blockNumber": 97474,
      "transactionIndex": 1,
      "confirmations": null,
      "from": "0xF42B87d9E83eb6b6947aaBD558904Bc615C6091f",
      "gasPrice": {
        "_hex": "0xba43b7400"
      },
      "gasLimit": {
        "_hex": "0x5208"
      },
      "to": "0xC47Aaa860008be6f65B58c6C6E02a84e666EfE31",
      "value": {
        "_hex": "0x612143f166b838f0"
      },
      "nonce": 1,
      "data": "0x",
      "r": "0x447f42a45d055d106220eddb7d22678c92dcbd51a2bb363bf5489d5794f61f0a",
      "s": "0x6fd83209797965a9b045657a7307cca32a4d90d07450e70d05f56e3e57c45f33",
      "v": 27,
      "creates": null,
      "raw": "0xf86c01850ba43b740082520894c47aaa860008be6f65b58c6c6e02a84e666efe3188612143f166b838f0801ba0447f42a45d055d106220eddb7d22678c92dcbd51a2bb363bf5489d5794f61f0aa06fd83209797965a9b045657a7307cca32a4d90d07450e70d05f56e3e57c45f33",
      "networkId": 0,
      "chainId": 0
    }
  ]
}