{
  "hash": "0xb63f398de23b1ed70dce413a4eff3b32304ccb4be878b01dc1c287f297a962f7",
  "parentHash": "0x1535853a725a2a04ca04f93de51574d20755282ed59f14ac1d4f5be172b03b60",
  "number": 90182,
  "timestamp": 1439636055,
  "nonce": "0x9fb4fc21e59c9e15",
  "difficulty": 3299554757262,
  "gasLimit": {
    "_hex": "0x2fefd8"
  },
  "gasUsed": {
    "_hex": "0x5208"
  },
  "miner": "0xe6A7a1d47ff21B6321162AEA7C6CB457D5476Bca",
  "extraData": "0x476574682f76312e302e312d38326566323666362f6c696e75782f676f312e34",
  "transactions": [
    {
      "hash": "0xcfc22aa33048a3a51c34d113a7e527fcc0748c44ce36cd578fea6e40d0d13a43",
      "blockHash": "0xb63f398de23b1ed70dce413a4eff3b32304ccb4be878b01dc1c287f297a962f7",
      "blockNumber": 90182,
      "transactionIndex": 0,
      "confirmations": null,
      "from": "0x2910543Af39abA0Cd09dBb2D50200b3E800A63D2",
      "gasPrice": {
        "_hex": "0xcf7da9b31"
      },
      "gasLimit": {
        "_hex": "0x5208"
      },
      "to": "0x235a6dB6107b9b86C686bF9633f7Cc2d42B47e00",
      "value": {
        "_hex": "0x3ba17f487a09cf8000"
      },
      "nonce": 776,
      "data": "0x",
      "r": "0x59f870b9cda2ebd0d3d4c392bf44a2f734ae3d577181a867a09bff22032a3495",
      "s": "0x256390695eee474ee00091c9cfbf3319e05a09b52267a52884ea5b79cb2ccd57",
      "v": 28,
      "creates": null,
      "raw": "0xf86f820308850cf7da9b3182520894235a6db6107b9b86c686bf9633f7cc2d42b47e00893ba17f487a09cf8000801ca059f870b9cda2ebd0d3d4c392bf44a2f734ae3d577181a867a09bff22032a3495a0256390695eee474ee00091c9cfbf3319e05a09b52267a52884ea5b79cb2ccd57",
      "networkId": 0,
      "chainId": 0
    }
  ]
}