{
  "hash": "0x855f462e47119c0a6a8339a428eb93cdecff571993fa045172ae28dfd2339199",
  "parentHash": "0xd9c534169e8acef91f81cef997330877b3ee9a7af9dc2e57a52672902b72d560",
  "number": 58920,
  "timestamp": 1439128934,
  "nonce": "0x0a4c8756ff22c09b",
  "difficulty": 1711479081195,
  "gasLimit": {
    "_hex": "0x2fefd8"
  },
  "gasUsed": {
    "_hex": "0x5208"
  },
  "miner": "0x9746c7e1ef2bd21FF3997fa467593a89cb852BD0",
  "extraData": "0x476574682f76312e302e312f77696e646f77732f676f312e342e32",
  "transactions": [
    {
      "hash": "0xe233e8dcda58b084f1b53cf838b06ef640c6109c9b5154536a057f40177f0ddc",
      "blockHash": "0x855f462e47119c0a6a8339a428eb93cdecff571993fa045172ae28dfd2339199",
      "blockNumber": 58920,
      "transactionIndex": 0,
      "confirmations": null,
      "from": "0xC2fe7d75731f636Dcd09DbDa0671393bA0C82a7d",
      "gasPrice": {
        "_hex": "0xd3901b483"
      },
      "gasLimit": {
        "_hex": "0x15f90"
      },
      "to": "0x0aAA075488f382ADfb50f99Ce0E8e27b47740AEF",
      "value": {
        "_hex": "0x1f32b3917614c0"
      },
      "nonce": 2,
      "data": "0x",
      "r": "0xa0f3e6e7451468accd78ba1a83c6328699e2d9074bf9166a423c61bf34d51ace",
      "s": "0x6b40d88c1fc797e0db4cfe864bc53d0a6fc0b73fefc1b16b4d45589f47631f50",
      "v": 28,
      "creates": null,
      "raw": "0xf86c02850d3901b48383015f90940aaa075488f382adfb50f99ce0e8e27b47740aef871f32b3917614c0801ca0a0f3e6e7451468accd78ba1a83c6328699e2d9074bf9166a423c61bf34d51acea06b40d88c1fc797e0db4cfe864bc53d0a6fc0b73fefc1b16b4d45589f47631f50",
      "networkId": 0,
      "chainId": 0
    }
  ]
}