{
  "hash": "0x741f5e60d121130c34af2bbce5a90ef59eb54ccebd7bda036b337399545df2fc",
  "parentHash": "0x1ea09a53996e5c07a3ec62d97f109db4aefa2c2cd6f2dde33d9ab003f5a4c028",
  "number": 110452,
  "timestamp": 1439974052,
  "nonce": "0x61d6e0311d446b01",
  "difficulty": 4373444329496,
  "gasLimit": {
    "_hex": "0x2fefd8"
  },
  "gasUsed": {
    "_hex": "0xa410"
  },
  "miner": "0xe6A7a1d47ff21B6321162AEA7C6CB457D5476Bca",
  "extraData": "0x476574682f76312e302e312d38326566323666362f6c696e75782f676f312e34",
  "transactions": [
    {
      "hash": "0xf39a447a2c629c9d5bac0cdf39748aa4218060e936347c65e0f0caa1b666dbf0",
      "blockHash": "0x741f5e60d121130c34af2bbce5a90ef59eb54ccebd7bda036b337399545df2fc",
      "blockNumber": 110452,
      "transactionIndex": 0,
      "confirmations": null,
      "from": "0x357A01795bfA480a007fB4B1B6eDf2e8C23f1840",
      "gasPrice": {
        "_hex": "0xd470c88f7"
      },
      "gasLimit": {
        "_hex": "0x5208"
      },
      "to": "0x32Be343B94f860124dC4fEe278FDCBD38C102D88",
      "value": {
        "_hex": "0x4138594d5edce000"
      },
      "nonce": 7,
      "data": "0x",
      "r": "0x5649aa70a2963365de9f9c9cff6f733c0e41a812211f790fca51b24d20f37d3e",
      "s": "0x2be8da44218789a78deb7a70583f473937ea3362937f9e94f2edf30072920f8a",
      "v": 27,
      "creates": null,
      "raw": "0xf86c07850d470c88f78252089432be343b94f860124dc4fee278fdcbd38c102d88884138594d5edce000801ba05649aa70a2963365de9f9c9cff6f733c0e41a812211f790fca51b24d20f37d3ea02be8da44218789a78deb7a70583f473937ea3362937f9e94f2edf30072920f8a",
      "networkId": 0,
      "chainId": 0
    },
    {
      "hash": "0x9ab82d9d0969fa361b101b60286d00d1a975d9739f323e4de919956ab79f0378",
      "blockHash": "0x741f5e60d121130c34af2bbce5a90ef59eb54ccebd7bda036b337399545df2fc",
      "blockNumber": 110452,
      "transactionIndex": 1,
      "confirmations": null,
      "from": "0x250978C66B17d66f4167197A38b631d8900968C0",
      "gasPrice": {
        "_hex": "0xd470c88f7"
      },
      "gasLimit": {
        "_hex": "0x5208"
      },
      "to": "0x32Be343B94f860124dC4fEe278FDCBD38C102D88",
      "value": {
        "_hex": "0x9a86a76be88ca0000"
      },
      "nonce": 5,
      "data": "0x",
      "r": "0xb7dcda38aea79753982586260ad4335aae43620da89d0b3af0c93a38b67babc6",
      "s": "0x2466866165694dad8e53b221669242db2da7581c2aefaef8136a4a25eec61678",
      "v": 27,
      "creates": null,
      "raw": "0xf86d05850d470c88f78252089432be343b94f860124dc4fee278fdcbd38c102d888909a86a76be88ca0000801ba0b7dcda38aea79753982586260ad4335aae43620da89d0b3af0c93a38b67babc6a02466866165694dad8e53b221669242db2da7581c2aefaef8136a4a25eec61678",
      "networkId": 0,
      "chainId": 0
    }
  ]
}