{
  "hash": "0xac57456a34dbbd28efd2292caf122ee56b67e3b052833bdcc069a022e1c5df83",
  "parentHash": "0x37ef4ec233a21f980448cc21e080f0142eba933b32938e49190c376782113c88",
  "number": 48717,
  "timestamp": 1438961804,
  "nonce": "0x2367df76439f3c2f",
  "difficulty": 1475020507886,
  "gasLimit": {
    "_hex": "0x1cb0e"
  },
  "gasUsed": {
    "_hex": "0xfd44"
  },
  "miner": "0x2C674A948592B20a4B775E1a3991Db043E6CF0FE",
  "extraData": "0x476574682f76312e302e312d38326566323666362f6c696e75782f676f312e34",
  "transactions": [
    {
      "hash": "0x78db6da1c3cdb4945029260c92fede839a42441f5a0b99cb68f6a59b40b957ee",
      "blockHash": "0xac57456a34dbbd28efd2292caf122ee56b67e3b052833bdcc069a022e1c5df83",
      "blockNumber": 48717,
      "transactionIndex": 0,
      "confirmations": null,
      "from": "0xD4FeEd99e8917c5c5458635F3603ecB7E817A7d0",
      "gasPrice": {
        "_hex": "0x110c8f7d8de"
      },
      "gasLimit": {
        "_hex": "0xc350"
      },
      "to": "0x2910543Af39abA0Cd09dBb2D50200b3E800A63D2",
      "value": {
        "_hex": "0x103d1761ea84430000"
      },
      "nonce": 0,
      "data": "0x454e5244384d574a52",
      "r": "0x91b68ec8f9dad263aeaf54a0302c2beafc1d33ec9202cb8a6921a0e4c38abf67",
      "s": "0x12526381e6e24c6cf0465fe6042a3941d9a88bb03a75460155aec981c51b8c44",
      "v": 27,
      "creates": null,
      "raw": "0xf87780860110c8f7d8de82c350942910543af39aba0cd09dbb2d50200b3e800a63d289103d1761ea8443000089454e5244384d574a521ba091b68ec8f9dad263aeaf54a0302c2beafc1d33ec9202cb8a6921a0e4c38abf67a012526381e6e24c6cf0465fe6042a3941d9a88bb03a75460155aec981c51b8c44",
      "networkId": 0,
      "chainId": 0
    },
    {
      "hash": "0x3c83556b6b4b1a39604cfab464d535b033ead64ee7afbc66204d4ad22a3af4ed",
      "blockHash": "0xac57456a34dbbd28efd2292caf122ee56b67e3b052833bdcc069a022e1c5df83",
      "blockNumber": 48717,
      "transactionIndex": 1,
      "confirmations": null,
      "from": "0xcbA288Cd3C1eb4D59dDb06a6421c14C345a47B24",
      "gasPrice": {
        "_hex": "0xf03c343dc"
      },
      "gasLimit": {
        "_hex": "0x15f90"
      },
      "to": "0x2910543Af39abA0Cd09dBb2D50200b3E800A63D2",
      "value": {
        "_hex": "0xde0b6b3a7640000"
      },
      "nonce": 0,
      "data": "0x454e52433039593138",
      "r": "0xb3444d9865116c0b80d3558b317bf943bc163205daf72c4a1653e23108890009",
      "s": "0x3be320da8a18f7f6cbea0f417576788daeedd77160b1d1db14beaa1dc6f29603",
      "v": 28,
      "creates": null,
      "raw": "0xf87680850f03c343dc83015f90942910543af39aba0cd09dbb2d50200b3e800a63d2880de0b6b3a764000089454e524330395931381ca0b3444d9865116c0b80d3558b317bf943bc163205daf72c4a1653e23108890009a03be320da8a18f7f6cbea0f417576788daeedd77160b1d1db14beaa1dc6f29603",
      "networkId": 0,
      "chainId": 0
    },
    {
      "hash": "0x14e5dfba08eb788662d7982876c26faa6e7b2551d5ac2e01016c6a81a2cf9caa",
      "blockHash": "0xac57456a34dbbd28efd2292caf122ee56b67e3b052833bdcc069a022e1c5df83",
      "blockNumber": 48717,
      "transactionIndex": 2,
      "confirmations": null,
      "from": "0x77e41B4125b7c14757e0f07fE36b2E95db757a10",
      "gasPrice": {
        "_hex": "0xdacb7e341"
      },
      "gasLimit": {
        "_hex": "0x55f0"
      },
      "to": "0x2910543Af39abA0Cd09dBb2D50200b3E800A63D2",
      "value": {
        "_hex": "0x612c16438ab4c000"
      },
      "nonce": 2,
      "data": "0x454e47583939505930",
      "r": "0xc7270fdb9fe5f92f912e971bc1cd181a5b28708aaec8df3f5e76cf30bdcc9b97",
      "s": "0x6b561b4ade1098448b8d498664e86584028b2325c958b1c0675eb8740f403f11",
      "v": 27,
      "creates": null,
      "raw": "0xf87502850dacb7e3418255f0942910543af39aba0cd09dbb2d50200b3e800a63d288612c16438ab4c00089454e475839395059301ba0c7270fdb9fe5f92f912e971bc1cd181a5b28708aaec8df3f5e76cf30bdcc9b97a06b561b4ade1098448b8d498664e86584028b2325c958b1c0675eb8740f403f11",
      "networkId": 0,
      "chainId": 0
    }
  ]
}