{
  "hash": "0xf8515de2e3ed209e4e9fa00ac8bf171cb407b44ff26374f834b925c8edf8bac2",
  "parentHash": "0xfca4d09ba34f3d25fe85ccfe838d029e38c7cb340914a97a0554122670340706",
  "number": 56551,
  "timestamp": 1439088993,
  "nonce": "0x087d43465bbd688d",
  "difficulty": 1661723313683,
  "gasLimit": {
    "_hex": "0x2fefd8"
  },
  "gasUsed": {
    "_hex": "0xba86"
  },
  "miner": "0x7aAaa306d4a7Fd1696A82A66cc538D29f5af4e39",
  "extraData": "0x476574682f76312e302e312f6c696e75782f676f312e342e32",
  "transactions": [
    {
      "hash": "0x74544821a6570f6411754c383e56fd21784d0e653c3e9edebd58143a5932d747",
      "blockHash": "0xf8515de2e3ed209e4e9fa00ac8bf171cb407b44ff26374f834b925c8edf8bac2",
      "blockNumber": 56551,
      "transactionIndex": 0,
      "confirmations": null,
      "from": "0x073f70b5bfAde6409E4951EF72BC8F4157677729",
      "gasPrice": {
        "_hex": "0xd7be41f4e"
      },
      "gasLimit": {
        "_hex": "0x15f90"
      },
      "to": "0xCdd192F2c49383af4321c7D1941Fb3C9Ca1B622C",
      "value": {
        "_hex": "0x0"
      },
      "nonce": 13,
      "data": "0x7c1c1716000000000000000000000000000000000000000000000000000000003ade68b1",
      "r": "0xfdc888184382fcf7999ed19cca605150e6552270fd09e2d928b2e49ee48c428b",
      "s": "0x3592deb0aefad30eddbbdecc4c640072c5a3e27c89e2de312ef6d0a33c8d21f0",
      "v": 27,
      "creates": null,
      "raw": "0xf8890d850d7be41f4e83015f9094cdd192f2c49383af4321c7d1941fb3c9ca1b622c80a47c1c1716000000000000000000000000000000000000000000000000000000003ade68b11ba0fdc888184382fcf7999ed19cca605150e6552270fd09e2d928b2e49ee48c428ba03592deb0aefad30eddbbdecc4c640072c5a3e27c89e2de312ef6d0a33c8d21f0",
      "networkId": 0,
      "chainId": 0
    }
  ]
}