{
  "hash": "0xf7c4d2cc0144130168a435a36a33bab653535e17ba1e44e14c26f9fdfce9ec22",
  "parentHash": "0xb49cb852dc92c073f3343ee567161ac54446371eb043cae5639fc5b7be1d98da",
  "number": 106042,
  "timestamp": 1439897639,
  "nonce": "0xb1271322146c56dd",
  "difficulty": 4475139511755,
  "gasLimit": {
    "_hex": "0x2fefd8"
  },
  "gasUsed": {
    "_hex": "0x1b497"
  },
  "miner": "0xe6A7a1d47ff21B6321162AEA7C6CB457D5476Bca",
  "extraData": "0x476574682f76312e302e312d38326566323666362f6c696e75782f676f312e34",
  "transactions": [
    {
      "hash": "0x5c23f86febfb5bba832cf5518a7503a369360926b33b04a7d810f53e76f0087d",
      "blockHash": "0xf7c4d2cc0144130168a435a36a33bab653535e17ba1e44e14c26f9fdfce9ec22",
      "blockNumber": 106042,
      "transactionIndex": 0,
      "confirmations": null,
      "from": "0x87C5B5874A18B4306DF8a752a6C8cc3E82daFc19",
      "gasPrice": {
        "_hex": "0x11219dd5c61"
      },
      "gasLimit": {
        "_hex": "0x493e0"
      },
      "to": "0xD79B4C6791784184e2755B2fC1659eaaB0f80456",
      "value": {
        "_hex": "0x134f0eafd32700e5"
      },
      "nonce": 333,
      "data": "0x8d2161860000000000000000000000000000000000000000000000000000000000000007d3d96ceed0cfca4794c2a5a3d3aeefe69da0a2a669e66a5651f30b64831c3db0",
      "r": "0x8947d396aa3fa0287f1692caca619288ffefb71b601428b8308cb810961eeb42",
      "s": "0x1e6ae58cf6974e8068dc432d14085901d496cb1cdf95fdb59ec2fd0087678c76",
      "v": 27,
      "creates": null,
      "raw": "0xf8b582014d86011219dd5c61830493e094d79b4c6791784184e2755b2fc1659eaab0f8045688134f0eafd32700e5b8448d2161860000000000000000000000000000000000000000000000000000000000000007d3d96ceed0cfca4794c2a5a3d3aeefe69da0a2a669e66a5651f30b64831c3db01ba08947d396aa3fa0287f1692caca619288ffefb71b601428b8308cb810961eeb42a01e6ae58cf6974e8068dc432d14085901d496cb1cdf95fdb59ec2fd0087678c76",
      "networkId": 0,
      "chainId": 0
    }
  ]
}