{
  "hash": "0x4e07c17a4d90c63c10f690b703a81e8ed466c44322c10385f8e6e22b2d4f3f1c",
  "parentHash": "0xa5de830733da7e85eb6cd0e64a622912d4442fc550e2589a95980ee21260ddee",
  "number": 99975,
  "timestamp": 1439798675,
  "nonce": "0xb0a20086bb1cc4c1",
  "difficulty": 3847429600586,
  "gasLimit": {
    "_hex": "0x2fefd8"
  },
  "gasUsed": {
    "_hex": "0xf618"
  },
  "miner": "0xe6A7a1d47ff21B6321162AEA7C6CB457D5476Bca",
  "extraData": "0x476574682f76312e302e312d38326566323666362f6c696e75782f676f312e34",
  "transactions": [
    {
      "hash": "0x530976b786ae456e4351efdcc9b4588c7b01ceb3692b4043015c22de094b3c88",
      "blockHash": "0x4e07c17a4d90c63c10f690b703a81e8ed466c44322c10385f8e6e22b2d4f3f1c",
      "blockNumber": 99975,
      "transactionIndex": 0,
      "confirmations": null,
      "from": "0xe6A7a1d47ff21B6321162AEA7C6CB457D5476Bca",
      "gasPrice": {
        "_hex": "0xd08e3d640"
      },
      "gasLimit": {
        "_hex": "0x55f0"
      },
      "to": "0x9cF18B3eb373C383a42d06136ba331D766ed9Fbb",
      "value": {
        "_hex": "0x1f5f9d19bce273f80"
      },
      "nonce": 3450,
      "data": "0x",
      "r": "0x51f96662142f93a5d25a2a765d71b1b35fa677436db14536d9c8aee3fbfd6dc4",
      "s": "0x6ce8d78f6db78a3b7d1b59416e6db82d94f3c9ab2e34a6ad7bf917af6796427a",
      "v": 27,
      "creates": null,
      "raw": "0xf86f820d7a850d08e3d6408255f0949cf18b3eb373c383a42d06136ba331d766ed9fbb8901f5f9d19bce273f80801ba051f96662142f93a5d25a2a765d71b1b35fa677436db14536d9c8aee3fbfd6dc4a06ce8d78f6db78a3b7d1b59416e6db82d94f3c9ab2e34a6ad7bf917af6796427a",
      "networkId": 0,
      "chainId": 0
    },
    {
      "hash": "0x595f7b879ac916d5679a2321327b40eb570b511c9b64e84b213c31ed405b2957",
      "blockHash": "0x4e07c17a4d90c63c10f690b703a81e8ed466c44322c10385f8e6e22b2d4f3f1c",
      "blockNumber": 99975,
      "transactionIndex": 1,
      "confirmations": null,
      "from": "0xe6A7a1d47ff21B6321162AEA7C6CB457D5476Bca",
      "gasPrice": {
        "_hex": "0xd08e3d640"
      },
      "gasLimit": {
        "_hex": "0x55f0"
      },
      "to": "0x556ca325C21e450b2aFf86D9c8eF0Fa371971c97",
      "value": {
        "_hex": "0x2033566cd0d830150"
      },
      "nonce": 3451,
      "data": "0x",
      "r": "0x00f7cd5e2eb53b9839cd828e0bf6e1bcdd3a1d34bdc504b51ec5db1a47cc62cc",
      "s": "0x760d08cf9ad715108ebd6fa9380c6880d4f3c0508b3c2d9549309fd91196c108",
      "v": 28,
      "creates": null,
      "raw": "0xf86e820d7b850d08e3d6408255f094556ca325c21e450b2aff86d9c8ef0fa371971c978902033566cd0d830150801c9ff7cd5e2eb53b9839cd828e0bf6e1bcdd3a1d34bdc504b51ec5db1a47cc62cca0760d08cf9ad715108ebd6fa9380c6880d4f3c0508b3c2d9549309fd91196c108",
      "networkId": 0,
      "chainId": 0
    },
    {
      "hash": "0x2005c26a601571e47d7a5186d649a3a69893a55fe8fb6d44453d1278043bbe29",
      "blockHash": "0x4e07c17a4d90c63c10f690b703a81e8ed466c44322c10385f8e6e22b2d4f3f1c",
      "blockNumber": 99975,
      "transactionIndex": 2,
      "confirmations": null,
      "from": "0xe6A7a1d47ff21B6321162AEA7C6CB457D5476Bca",
      "gasPrice": {
        "_hex": "0xd08e3d640"
      },
      "gasLimit": {
        "_hex": "0x55f0"
      },
      "to": "0xc7704Fc5c51C7a5f1a6574b0014b58C8915BA55C",
      "value": {
        "_hex": "0x2049c656e5cbc2780"
      },
      "nonce": 3452,
      "data": "0x",
      "r": "0x7f838c11422af6c523aaf8e99db956046a9ea333abbf284eb266aed5995c580d",
      "s": "0x56075bbefa3ea0d9b7397d835444cbd209e12e39485891dc400462619d787920",
      "v": 28,
      "creates": null,
      "raw": "0xf86f820d7c850d08e3d6408255f094c7704fc5c51c7a5f1a6574b0014b58c8915ba55c8902049c656e5cbc2780801ca07f838c11422af6c523aaf8e99db956046a9ea333abbf284eb266aed5995c580da056075bbefa3ea0d9b7397d835444cbd209e12e39485891dc400462619d787920",
      "networkId": 0,
      "chainId": 0
    }
  ]
}