{
  "hash": "0x2a24efc0666697976169bcfc4786f474f64046a7d3c1ef6f6e92540ed2fecbe8",
  "parentHash": "0xb42e41d656a3175159ea21c069901217d9569c89963d5135e08f46814c1d73a3",
  "number": 78484,
  "timestamp": 1439454479,
  "nonce": "0x75040669bbc9fe1e",
  "difficulty": 2295439219967,
  "gasLimit": {
    "_hex": "0x2fefd8"
  },
  "gasUsed": {
    "_hex": "0x5208"
  },
  "miner": "0xa50ec0D39fa913E62f1Bae7074E6F36caA71855b",
  "extraData": "0xd783010001844765746887676f312e342e32856c696e7578",
  "transactions": [
    {
      "hash": "0x53ce1ce5f62d98621e8b0f65d955db25a3ea2cf61568f052e8dbb38eba55a740",
      "blockHash": "0x2a24efc0666697976169bcfc4786f474f64046a7d3c1ef6f6e92540ed2fecbe8",
      "blockNumber": 78484,
      "transactionIndex": 0,
      "confirmations": null,
      "from": "0x32Be343B94f860124dC4fEe278FDCBD38C102D88",
      "gasPrice": {
        "_hex": "0xcbb80c7e3"
      },
      "gasLimit": {
        "_hex": "0x5208"
      },
      "to": "0x2910543Af39abA0Cd09dBb2D50200b3E800A63D2",
      "value": {
        "_hex": "0x18ebbb8131ec000"
      },
      "nonce": 394,
      "data": "0x",
      "r": "0xd613bb48d3dc85c56482cfb409d660a04a0439e5085308d0cee527acd9cd5d2f",
      "s": "0x47ca343065c7199516b058a4abaadd3e5aeb70f740e5b3eaedc2ba980e6fc99b",
      "v": 27,
      "creates": null,
      "raw": "0xf86e82018a850cbb80c7e3825208942910543af39aba0cd09dbb2d50200b3e800a63d288018ebbb8131ec000801ba0d613bb48d3dc85c56482cfb409d660a04a0439e5085308d0cee527acd9cd5d2fa047ca343065c7199516b058a4abaadd3e5aeb70f740e5b3eaedc2ba980e6fc99b",
      "networkId": 0,
      "chainId": 0
    }
  ]
}