{
  "hash": "0x8ceeb0ff35e99a59525f5286f3f514df3ee5e78796ff8cda202fc7c59e2e493d",
  "parentHash": "0xa75ef3a3aa810c05e3bc08b64ee279a99d0dc46801d21d5750be2b856513645e",
  "number": 119447,
  "timestamp": 1440143194,
  "nonce": "0xeffcff1afac09882",
  "difficulty": 4383715077472,
  "gasLimit": {
    "_hex": "0x2fefd8"
  },
  "gasUsed": {
    "_hex": "0x5208"
  },
  "miner": "0x580992B51e3925e23280EfB93d3047C82f17E038",
  "extraData": "0x",
  "transactions": [
    {
      "hash": "0xa7c45a71b29a02b37b94d2cec1afb8e21c4cca41c3d7fd483a7d7fa01663052f",
      "blockHash": "0x8ceeb0ff35e99a59525f5286f3f514df3ee5e78796ff8cda202fc7c59e2e493d",
      "blockNumber": 119447,
      "transactionIndex": 0,
      "confirmations": null,
      "from": "0x5D9067970755043fF5cE7FA2cd21C12F3646Bc55",
      "gasPrice": {
        "_hex": "0xba43b7400"
      },
      "gasLimit": {
        "_hex": "0x5208"
      },
      "to": "0x32Be343B94f860124dC4fEe278FDCBD38C102D88",
      "value": {
        "_hex": "0xa9de46248abd1000"
      },
      "nonce": 9,
      "data": "0x",
      "r": "0x587ff717380e3017694939236398003639d69bac29332d1977ee2c78b0a53c9a",
      "s": "0x312b6a4c3090a9990ee5a7809344082cb35c063945a5bb4cf8bfdadab9c78be5",
      "v": 28,
      "creates": null,
      "raw": "0xf86c09850ba43b74008252089432be343b94f860124dc4fee278fdcbd38c102d8888a9de46248abd1000801ca0587ff717380e3017694939236398003639d69bac29332d1977ee2c78b0a53c9aa0312b6a4c3090a9990ee5a7809344082cb35c063945a5bb4cf8bfdadab9c78be5",
      "networkId": 0,
      "chainId": 0
    }
  ]
}