{
  "hash": "0x0c3dffdc6f816488a873381be4700bab952c2f8f33a946c3a98214b3e26e6ec2",
  "parentHash": "0xff46ca15fa7dba7bda75407783b62b0fd98ae3ac84bf4b75902df9cbf81422b5",
  "number": 68603,
  "timestamp": 1439290527,
  "nonce": "0x6376c4e7e05d2a86",
  "difficulty": 2027115450992,
  "gasLimit": {
    "_hex": "0x2fefd8"
  },
  "gasUsed": {
    "_hex": "0xa410"
  },
  "miner": "0xf927a40C8B7F6E07c5af7FA2155B4864a4112B13",
  "extraData": "0x",
  "transactions": [
    {
      "hash": "0x2cca5f123ea895734f552fc43efa00e4add27003371d15aa9f45397489f7ebd0",
      "blockHash": "0x0c3dffdc6f816488a873381be4700bab952c2f8f33a946c3a98214b3e26e6ec2",
      "blockNumber": 68603,
      "transactionIndex": 0,
      "confirmations": null,
      "from": "0x609E5437de2109754E697a7072F34aAab1A2d7AB",
      "gasPrice": {
        "_hex": "0xba43b7400"
      },
      "gasLimit": {
        "_hex": "0x5208"
      },
      "to": "0x2796c03EcB82cD729ff8AF963c506d7cF52E19A3",
      "value": {
        "_hex": "0x1072bbac261c000"
      },
      "nonce": 1,
      "data": "0x",
      "r": "0x7ee5005d356f936e1b027dd3cf58c234127f95bfd8ad44ea83a5d7c0b6aea3c0",
      "s": "0x6aa6718f0fc311a3ce48f9cfc63475f42783bbb16a73502db3448951d54f35cf",
      "v": 28,
      "creates": null,
      "raw": "0xf86c01850ba43b7400825208942796c03ecb82cd729ff8af963c506d7cf52e19a38801072bbac261c000801ca07ee5005d356f936e1b027dd3cf58c234127f95bfd8ad44ea83a5d7c0b6aea3c0a06aa6718f0fc311a3ce48f9cfc63475f42783bbb16a73502db3448951d54f35cf",
      "networkId": 0,
      "chainId": 0
    },
    {
      "hash": "0x53159c95c2ad2051d91234651c769726c796919f4d163345b0df8ab1d4c7a7e5",
      "blockHash": "0x0c3dffdc6f816488a873381be4700bab952c2f8f33a946c3a98214b3e26e6ec2",
      "blockNumber": 68603,
      "transactionIndex": 1,
      "confirmations": null,
      "from": "0xa4d1B67Fa483015D3B986e974cC94300988a4BF0",
      "gasPrice": {
        "_hex": "0xba43b7400"
      },
      "gasLimit": {
        "_hex": "0x5208"
      },
      "to": "0x015df075866a4F0a3703dcfAC8FcceC012461Eb5",
      "value": {
        "_hex": "0x1072bbac261c000"
      },
      "nonce": 1,
      "data": "0x",
      "r": "0x826a380a4b2f8f00581f47c247faf78348fe8979769dd794cfb559b72c3ce623",
      "s": "0x3debecd175d2e176c185032e99fe1f096ecc49469a4045e51f1787b84ffe877d",
      "v": 27,
      "creates": null,
      "raw": "0xf86c01850ba43b740082520894015df075866a4f0a3703dcfac8fccec012461eb58801072bbac261c000801ba0826a380a4b2f8f00581f47c247faf78348fe8979769dd794cfb559b72c3ce623a03debecd175d2e176c185032e99fe1f096ecc49469a4045e51f1787b84ffe877d",
      "networkId": 0,
      "chainId": 0
    }
  ]
}