{
  "hash": "0xb1126dcd28499e09ee85cf54fb7f7a637b9dda2a013038102e76f883733a40de",
  "parentHash": "0x2afb5d4a08828241e29cfb75f5d0f29258f07ed97a080ddeae15c3594ff352da",
  "number": 92333,
  "timestamp": 1439670376,
  "nonce": "0x175215e2a9b9de61",
  "difficulty": 3509743092475,
  "gasLimit": {
    "_hex": "0x2fefd8"
  },
  "gasUsed": {
    "_hex": "0x5d9f"
  },
  "miner": "0xaEAf103356C2Ee943F748E8655659D29881323E1",
  "extraData": "0x476574682f76312e302e312f77696e646f77732f676f312e342e32",
  "transactions": [
    {
      "hash": "0x89646f9a11867ce136f4b9a613589e637e1ad8978ffe384fd06560412d95e307",
      "blockHash": "0xb1126dcd28499e09ee85cf54fb7f7a637b9dda2a013038102e76f883733a40de",
      "blockNumber": 92333,
      "transactionIndex": 0,
      "confirmations": null,
      "from": "0xED9fB1f5af2FbF7Ffc5029cEE42b70ff5C275bf5",
      "gasPrice": {
        "_hex": "0xd06128ff6"
      },
      "gasLimit": {
        "_hex": "0x15f90"
      },
      "to": "0xCAc7000C7dBaa2E33Af15325AF5D435E011C7BdD",
      "value": {
        "_hex": "0xf2da44d8ca59f0000"
      },
      "nonce": 0,
      "data": "0xb214faa55148574a4f34504a410000000000000000000000000000000000000000000000",
      "r": "0xbe41386f436cefdef4e9d249c45fe06c61a297d6e75f29b1848167273f9ca55a",
      "s": "0x19698167f5d4d4fd942373984a4e0d3f1c43265d680f53e747fee6da20734973",
      "v": 28,
      "creates": null,
      "raw": "0xf89280850d06128ff683015f9094cac7000c7dbaa2e33af15325af5d435e011c7bdd890f2da44d8ca59f0000a4b214faa55148574a4f34504a4100000000000000000000000000000000000000000000001ca0be41386f436cefdef4e9d249c45fe06c61a297d6e75f29b1848167273f9ca55aa019698167f5d4d4fd942373984a4e0d3f1c43265d680f53e747fee6da20734973",
      "networkId": 0,
      "chainId": 0
    }
  ]
}