{
  "hash": "0x49a244fb7984830185168770371b4fa5b428511356f90a37bc4ddf4b4d28e785",
  "parentHash": "0x29c53e2f8638db23d3c9fe919988b4af9b92110b09e8dc5a1cc4353f4b3e86b5",
  "number": 72790,
  "timestamp": 1439358205,
  "nonce": "0x61a484e8437b422e",
  "difficulty": 2187533941807,
  "gasLimit": {
    "_hex": "0x2fefd8"
  },
  "gasUsed": {
    "_hex": "0x5208"
  },
  "miner": "0xf927a40C8B7F6E07c5af7FA2155B4864a4112B13",
  "extraData": "0x",
  "transactions": [
    {
      "hash": "0xe720971efe62e746197be847304230a686074d782d0b5a700d3e98d3fdf73f3c",
      "blockHash": "0x49a244fb7984830185168770371b4fa5b428511356f90a37bc4ddf4b4d28e785",
      "blockNumber": 72790,
      "transactionIndex": 0,
      "confirmations": null,
      "from": "0x32Be343B94f860124dC4fEe278FDCBD38C102D88",
      "gasPrice": {
        "_hex": "0xce8043004"
      },
      "gasLimit": {
        "_hex": "0x5208"
      },
      "to": "0x4BD5f0Ee173C81d42765154865EE69361b6aD189",
      "value": {
        "_hex": "0x1b1ac14ff07f8f0000"
      },
      "nonce": 283,
      "data": "0x",
      "r": "0xc82f5e01276cf8965739d60eb3118529fdd1db210142820809374a2cb39ae739",
      "s": "0x1c4ccdf854cf41daec8f2fb49529eabf1dca77f73ea33d10844e4e89b0f7e5ef",
      "v": 28,
      "creates": null,
      "raw": "0xf86f82011b850ce8043004825208944bd5f0ee173c81d42765154865ee69361b6ad189891b1ac14ff07f8f0000801ca0c82f5e01276cf8965739d60eb3118529fdd1db210142820809374a2cb39ae739a01c4ccdf854cf41daec8f2fb49529eabf1dca77f73ea33d10844e4e89b0f7e5ef",
      "networkId": 0,
      "chainId": 0
    }
  ]
}