{
  "hash": "0x6ec2c988ba27964c8cec0b90b12bd900c31676e34a936375c948fc950b941d45",
  "parentHash": "0x9bcc17c02a180b5b21107704c7f7128eb24d1be72a0cf40875d2453a3464720a",
  "number": 58542,
  "timestamp": 1439122524,
  "nonce": "0xcda6e3a5c6ff5229",
  "difficulty": 1709885578220,
  "gasLimit": {
    "_hex": "0x2fefd8"
  },
  "gasUsed": {
    "_hex": "0x5208"
  },
  "miner": "0x2C674A948592B20a4B775E1a3991Db043E6CF0FE",
  "extraData": "0x476574682f76312e302e312d38326566323666362f6c696e75782f676f312e34",
  "transactions": [
    {
      "hash": "0x4e33ade1176dd1c51dc147ba6aefe53dd788970148decba32f0fef0cf203af48",
      "blockHash": "0x6ec2c988ba27964c8cec0b90b12bd900c31676e34a936375c948fc950b941d45",
      "blockNumber": 58542,
      "transactionIndex": 0,
      "confirmations": null,
      "from": "0x00ec3B9E2e7Ba7FFBd1D77d100a29f8055C258Bb",
      "gasPrice": {
        "_hex": "0x2000000000"
      },
      "gasLimit": {
        "_hex": "0x7fff"
      },
      "to": "0x008B1D771AF0dCFd83C30D9D93f3B83CdF18BebA",
      "value": {
        "_hex": "0x4000000000"
      },
      "nonce": 4,
      "data": "0x",
      "r": "0x6dca080ee170c014a04a4238dcb27dc8ea259ceaf49500aedeae780d7f7ff28b",
      "s": "0x459b5f5a3d4377714000f9f982aa09b5614ac63574e182bd3e147abcf60deeea",
      "v": 28,
      "creates": null,
      "raw": "0xf86904852000000000827fff94008b1d771af0dcfd83c30d9d93f3b83cdf18beba854000000000801ca06dca080ee170c014a04a4238dcb27dc8ea259ceaf49500aedeae780d7f7ff28ba0459b5f5a3d4377714000f9f982aa09b5614ac63574e182bd3e147abcf60deeea",
      "networkId": 0,
      "chainId": 0
    }
  ]
}