{
  "hash": "0x7f4a79c3b52188952bc0abe00c2ceefc4f59bb5bfb0e3eb0cb806af5c2794111",
  "parentHash": "0x1561daa129ff39486da99be1cdaadc7f5b23d489d93051d222e6230aeada6496",
  "number": 102710,
  "timestamp": 1439841954,
  "nonce": "0xde0497b451f48eab",
  "difficulty": 4052465047058,
  "gasLimit": {
    "_hex": "0x2fefd8"
  },
  "gasUsed": {
    "_hex": "0x5208"
  },
  "miner": "0xe6A7a1d47ff21B6321162AEA7C6CB457D5476Bca",
  "extraData": "0x476574682f76312e302e312d38326566323666362f6c696e75782f676f312e34",
  "transactions": [
    {
      "hash": "0x10488535f3ddbecb28e4549b90d37226098812f8116fb0886550997a914f8c88",
      "blockHash": "0x7f4a79c3b52188952bc0abe00c2ceefc4f59bb5bfb0e3eb0cb806af5c2794111",
      "blockNumber": 102710,
      "transactionIndex": 0,
      "confirmations": null,
      "from": "0x32Be343B94f860124dC4fEe278FDCBD38C102D88",
      "gasPrice": {
        "_hex": "0xd5ca6bd8e"
      },
      "gasLimit": {
        "_hex": "0x5208"
      },
      "to": "0xd9c4a7022Acb3543826B6C1667FAd470f65f262E",
      "value": {
        "_hex": "0x167143ef9643f70000"
      },
      "nonce": 1110,
      "data": "0x",
      "r": "0x049cb6b628a40b20fa328659c514f2a06bea07759958e191e0a8acc39cc929df",
      "s": "0x30eae60650421ee678663286faf8d81de444de611c2053c9f64e6d69026d166e",
      "v": 28,
      "creates": null,
      "raw": "0xf86f820456850d5ca6bd8e82520894d9c4a7022acb3543826b6c1667fad470f65f262e89167143ef9643f70000801ca0049cb6b628a40b20fa328659c514f2a06bea07759958e191e0a8acc39cc929dfa030eae60650421ee678663286faf8d81de444de611c2053c9f64e6d69026d166e",
      "networkId": 0,
      "chainId": 0
    }
  ]
}