{
  "hash": "0x6bf5843320ddbc6f565c33ff47cc93b743c2d311e50fe6c0c5c35f49e64820c5",
  "parentHash": "0x273ce318faf285a4402f4d0190c53b6e9bcd4f72f6fba56bd2a1cf4ed007d967",
  "number": 95271,
  "timestamp": 1439721624,
  "nonce": "0x5a3ff116ad211f1f",
  "difficulty": 3549871322890,
  "gasLimit": {
    "_hex": "0x2fefd8"
  },
  "gasUsed": {
    "_hex": "0xa410"
  },
  "miner": "0xe6A7a1d47ff21B6321162AEA7C6CB457D5476Bca",
  "extraData": "0x476574682f76312e302e312d38326566323666362f6c696e75782f676f312e34",
  "transactions": [
    {
      "hash": "0x2ed8a6112d76abf1aea56bb145fe9724d6260b948fc0eb71810101010193582e",
      "blockHash": "0x6bf5843320ddbc6f565c33ff47cc93b743c2d311e50fe6c0c5c35f49e64820c5",
      "blockNumber": 95271,
      "transactionIndex": 0,
      "confirmations": null,
      "from": "0xB0798DE851A7C081C98966a7A0eE5C14231FB447",
      "gasPrice": {
        "_hex": "0xfe00b84d8d"
      },
      "gasLimit": {
        "_hex": "0x15f90"
      },
      "to": "0xAba5352947CBaEAcf6B2E11E03EaE0008176aeDF",
      "value": {
        "_hex": "0x24c6b0f5aec90000"
      },
      "nonce": 2,
      "data": "0x",
      "r": "0xdca9d4c11f993ef857535136d71c4dfd3b268a853c5779757f0c4fb61d760dcb",
      "s": "0x37b38816dfcd093c641a1375f28fc72474d03331fed4793c03e6dc3e7f4e6c8f",
      "v": 27,
      "creates": null,
      "raw": "0xf86d0285fe00b84d8d83015f9094aba5352947cbaeacf6b2e11e03eae0008176aedf8824c6b0f5aec90000801ba0dca9d4c11f993ef857535136d71c4dfd3b268a853c5779757f0c4fb61d760dcba037b38816dfcd093c641a1375f28fc72474d03331fed4793c03e6dc3e7f4e6c8f",
      "networkId": 0,
      "chainId": 0
    },
    {
      "hash": "0xb7565c27cbb7c95f49db135bd6d3a4668df6bc999e3da030dce4ef59f2f2fdac",
      "blockHash": "0x6bf5843320ddbc6f565c33ff47cc93b743c2d311e50fe6c0c5c35f49e64820c5",
      "blockNumber": 95271,
      "transactionIndex": 1,
      "confirmations": null,
      "from": "0xaA35779Ef4dfBEd0B3D6F46F5f11cb86261B17A5",
      "gasPrice": {
        "_hex": "0xd7d40ace3"
      },
      "gasLimit": {
        "_hex": "0x61a8"
      },
      "to": "0x30beD8049947963394D93412326225E4e3123601",
      "value": {
        "_hex": "0x4563918244f40000"
      },
      "nonce": 8,
      "data": "0x",
      "r": "0x9ca02463f12a3a3555a518c67092cf8825e325a2c036fc2fa69ad78c1d1c112e",
      "s": "0x13a021838c8f6326102511100a9ab7527b8c2309672215211a90b6e2660fe14f",
      "v": 28,
      "creates": null,
      "raw": "0xf86c08850d7d40ace38261a89430bed8049947963394d93412326225e4e3123601884563918244f40000801ca09ca02463f12a3a3555a518c67092cf8825e325a2c036fc2fa69ad78c1d1c112ea013a021838c8f6326102511100a9ab7527b8c2309672215211a90b6e2660fe14f",
      "networkId": 0,
      "chainId": 0
    }
  ]
}