{
  "hash": "0x04142f994f213aeced38cada8610fe03b533f1e394ff0e3001b491c5578c28ce",
  "parentHash": "0x65119cf3b5b98a57b13fd382c424cc8762b7a0d5c6a42cc0ff4e0204c50446be",
  "number": 46477,
  "timestamp": 1438923773,
  "nonce": "0xf52b64ff7888e70e",
  "difficulty": 1468227820620,
  "gasLimit": {
    "_hex": "0x636b"
  },
  "gasUsed": {
    "_hex": "0x5208"
  },
  "miner": "0x88D74a59454F6cF3B51ef6b9136AFb6b9D405A88",
  "extraData": "0x476574682f76312e302e302d66633739643332642f6c696e75782f676f312e34",
  "transactions": [
    {
      "hash": "0x020d91dee43184f29dcf231eb8f764e6edbb2fc05fb0b7f9bb87505d693420f3",
      "blockHash": "0x04142f994f213aeced38cada8610fe03b533f1e394ff0e3001b491c5578c28ce",
      "blockNumber": 46477,
      "transactionIndex": 0,
      "confirmations": null,
      "from": "0x529049b336Ebfd6dF2f059c7FA964BA833a2c32B",
      "gasPrice": {
        "_hex": "0x746a528800"
      },
      "gasLimit": {
        "_hex": "0x5208"
      },
      "to": "0x32Be343B94f860124dC4fEe278FDCBD38C102D88",
      "value": {
        "_hex": "0x56ba2107ba0ebc000"
      },
      "nonce": 0,
      "data": "0x",
      "r": "0x96c1aa0f7295103e60ae9d4bf4b83e385cb99e4ed2e8b9e5d7da7fb019864c8a",
      "s": "0x60a5b356b7ea3acd877d9e7272cf12e99e9b7807bbc8f8423e9a84290891ca6a",
      "v": 28,
      "creates": null,
      "raw": "0xf86d8085746a5288008252089432be343b94f860124dc4fee278fdcbd38c102d8889056ba2107ba0ebc000801ca096c1aa0f7295103e60ae9d4bf4b83e385cb99e4ed2e8b9e5d7da7fb019864c8aa060a5b356b7ea3acd877d9e7272cf12e99e9b7807bbc8f8423e9a84290891ca6a",
      "networkId": 0,
      "chainId": 0
    }
  ]
}