{
  "hash": "0x6ca93cb6590b6d1accee683535cf755d5153136d08c372788f64d77210a61228",
  "parentHash": "0xca70cc2c008e7e73e4d3b3b6c0a8aa3f8c113c5903edc250fd24edf547133b46",
  "number": 105373,
  "timestamp": 1439886364,
  "nonce": "0xd1982a6ad06bf8eb",
  "difficulty": 4373956851786,
  "gasLimit": {
    "_hex": "0x2fefd8"
  },
  "gasUsed": {
    "_hex": "0xa410"
  },
  "miner": "0x580992B51e3925e23280EfB93d3047C82f17E038",
  "extraData": "0x476574682f76312e302e312f6c696e75782f676f312e342e32",
  "transactions": [
    {
      "hash": "0x01a0f65c8a97de4b5f5eccec282395e582c369e57c296a5eaf2f95f63bd768ed",
      "blockHash": "0x6ca93cb6590b6d1accee683535cf755d5153136d08c372788f64d77210a61228",
      "blockNumber": 105373,
      "transactionIndex": 0,
      "confirmations": null,
      "from": "0x46e97208BC7F618816Cb502A2b516fb4BC41f1D3",
      "gasPrice": {
        "_hex": "0xd988b4e15"
      },
      "gasLimit": {
        "_hex": "0x5208"
      },
      "to": "0x32Be343B94f860124dC4fEe278FDCBD38C102D88",
      "value": {
        "_hex": "0x443925e675c29800"
      },
      "nonce": 7,
      "data": "0x",
      "r": "0xbf8ec9f1f52b671fd35d9f00623aafb4e3d6b9d8a4197fa43108d252dec79ccd",
      "s": "0x01f05731c2cf1e771ddda04f1e916854273e4658159adf8d4b5ca437c32390b7",
      "v": 28,
      "creates": null,
      "raw": "0xf86c07850d988b4e158252089432be343b94f860124dc4fee278fdcbd38c102d8888443925e675c29800801ca0bf8ec9f1f52b671fd35d9f00623aafb4e3d6b9d8a4197fa43108d252dec79ccda001f05731c2cf1e771ddda04f1e916854273e4658159adf8d4b5ca437c32390b7",
      "networkId": 0,
      "chainId": 0
    },
    {
      "hash": "0xd5aaf1ff9e5d31a62509221caaa8df0adafca945aefb62df053f57c478b47231",
      "blockHash": "0x6ca93cb6590b6d1accee683535cf755d5153136d08c372788f64d77210a61228",
      "blockNumber": 105373,
      "transactionIndex": 1,
      "confirmations": null,
      "from": "0xeD3Fe86896534C24D9F91232faE34b78DFf3c1f4",
      "gasPrice": {
        "_hex": "0xd988b4e15"
      },
      "gasLimit": {
        "_hex": "0x5208"
      },
      "to": "0x32Be343B94f860124dC4fEe278FDCBD38C102D88",
      "value": {
        "_hex": "0x83a178f8c0bfe800"
      },
      "nonce": 6,
      "data": "0x",
      "r": "0xa0b6958b4024b0862a69b42fc19a6d415c384c6e091d2ad9bbd320258dfd361f",
      "s": "0x2042b96eecfbc174017606c1bfb1120f00a48f04f7919e7a5a8f3241bba28916",
      "v": 28,
      "creates": null,
      "raw": "0xf86c06850d988b4e158252089432be343b94f860124dc4fee278fdcbd38c102d888883a178f8c0bfe800801ca0a0b6958b4024b0862a69b42fc19a6d415c384c6e091d2ad9bbd320258dfd361fa02042b96eecfbc174017606c1bfb1120f00a48f04f7919e7a5a8f3241bba28916",
      "networkId": 0,
      "chainId": 0
    }
  ]
}