{
  "hash": "0x01e5b686ec14760aa78ce51bd2c5bf6d3daddaa2ba5b8be127883bf99a61a04b",
  "parentHash": "0xc74f1f7ff328b9382ca54a0e1ee09c80ececbb62bc08102c26ed4d275e8b25e6",
  "number": 84163,
  "timestamp": 1439545782,
  "nonce": "0x960d76db26203ef1",
  "difficulty": 2510744330490,
  "gasLimit": {
    "_hex": "0x2fefd8"
  },
  "gasUsed": {
    "_hex": "0x546c"
  },
  "miner": "0xe6A7a1d47ff21B6321162AEA7C6CB457D5476Bca",
  "extraData": "0x476574682f76312e302e312d38326566323666362f6c696e75782f676f312e34",
  "transactions": [
    {
      "hash": "0x98582c65414d3ecc708ff16efd5accd6b8dbea9313c95f452fd55e2a08a9a2df",
      "blockHash": "0x01e5b686ec14760aa78ce51bd2c5bf6d3daddaa2ba5b8be127883bf99a61a04b",
      "blockNumber": 84163,
      "transactionIndex": 0,
      "confirmations": null,
      "from": "0xA276B058CB98D88BeedB67e543506C9A0d9470D8",
      "gasPrice": {
        "_hex": "0x110c8f7d8de"
      },
      "gasLimit": {
        "_hex": "0xc350"
      },
      "to": "0x2910543Af39abA0Cd09dBb2D50200b3E800A63D2",
      "value": {
        "_hex": "0x4563918244f40000"
      },
      "nonce": 0,
      "data": "0x454e4a5257355a3452",
      "r": "0x672b3d889c0093129ad0c0dc6e5a71cd49452304b961418f47c5501910c261a5",
      "s": "0x0906cee2efc0623c1f87376e1ff4be124cec9f85314eae5d9d23a6c9cc9dd838",
      "v": 27,
      "creates": null,
      "raw": "0xf87680860110c8f7d8de82c350942910543af39aba0cd09dbb2d50200b3e800a63d2884563918244f4000089454e4a5257355a34521ba0672b3d889c0093129ad0c0dc6e5a71cd49452304b961418f47c5501910c261a5a00906cee2efc0623c1f87376e1ff4be124cec9f85314eae5d9d23a6c9cc9dd838",
      "networkId": 0,
      "chainId": 0
    }
  ]
}