{
  "hash": "0x642b2b3f68c56a648b3172e20ec07a0588b2136c8e3a550d446fc645c5b015dd",
  "parentHash": "0xf32db1d23928674fe6ef4dff9f1583386712814b7c2fb32811738580f6eef5d9",
  "number": 93905,
  "timestamp": 1439699625,
  "nonce": "0x4dc6149031fec79d",
  "difficulty": 3468203351784,
  "gasLimit": {
    "_hex": "0x2fefd8"
  },
  "gasUsed": {
    "_hex": "0xf618"
  },
  "miner": "0xaA35779Ef4dfBEd0B3D6F46F5f11cb86261B17A5",
  "extraData": "0x476574682f76312e302e312f77696e646f77732f676f312e342e32",
  "transactions": [
    {
      "hash": "0x5363f8b1e7c99efb1a87e76655c729c6885149cb262b4d98b7691d2a0c8e7067",
      "blockHash": "0x642b2b3f68c56a648b3172e20ec07a0588b2136c8e3a550d446fc645c5b015dd",
      "blockNumber": 93905,
      "transactionIndex": 0,
      "confirmations": null,
      "from": "0xB28D8847A107E87a4191436D005801b036845EA4",
      "gasPrice": {
        "_hex": "0xd2dc897b1"
      },
      "gasLimit": {
        "_hex": "0x5208"
      },
      "to": "0x32Be343B94f860124dC4fEe278FDCBD38C102D88",
      "value": {
        "_hex": "0x129b6a32af9c000"
      },
      "nonce": 0,
      "data": "0x",
      "r": "0x14656ffe5567af82c7e5e6f4cf7d2a59f562710e75f54df61b8200647116f893",
      "s": "0x42260e5aeea0bd9c0dcd9fcf42a1c5bdeb27fbefde11cd3a4723052b9a87ed4c",
      "v": 28,
      "creates": null,
      "raw": "0xf86c80850d2dc897b18252089432be343b94f860124dc4fee278fdcbd38c102d88880129b6a32af9c000801ca014656ffe5567af82c7e5e6f4cf7d2a59f562710e75f54df61b8200647116f893a042260e5aeea0bd9c0dcd9fcf42a1c5bdeb27fbefde11cd3a4723052b9a87ed4c",
      "networkId": 0,
      "chainId": 0
    },
    {
      "hash": "0x18f90ffa2713fa84179d6a341550f67fd5720bdb6770edfc4ba1d6fba595ea2b",
      "blockHash": "0x642b2b3f68c56a648b3172e20ec07a0588b2136c8e3a550d446fc645c5b015dd",
      "blockNumber": 93905,
      "transactionIndex": 1,
      "confirmations": null,
      "from": "0xD9666150A9dA92d9108198a4072970805a8B3428",
      "gasPrice": {
        "_hex": "0xd2dc897b1"
      },
      "gasLimit": {
        "_hex": "0x5208"
      },
      "to": "0x32Be343B94f860124dC4fEe278FDCBD38C102D88",
      "value": {
        "_hex": "0xddc7d9f2e54f800"
      },
      "nonce": 13,
      "data": "0x",
      "r": "0x7450ad9538f206058fa77498df25e1a1dffbdf7a1f14fb1283a00db997191908",
      "s": "0x64d159953efeb0a861859a21135f4c1c42fae78882b85bbaf7ed94ba903580aa",
      "v": 28,
      "creates": null,
      "raw": "0xf86c0d850d2dc897b18252089432be343b94f860124dc4fee278fdcbd38c102d88880ddc7d9f2e54f800801ca07450ad9538f206058fa77498df25e1a1dffbdf7a1f14fb1283a00db997191908a064d159953efeb0a861859a21135f4c1c42fae78882b85bbaf7ed94ba903580aa",
      "networkId": 0,
      "chainId": 0
    },
    {
      "hash": "0xb05644de9b74e564549cdc3660929afce3efd6c29ff047658e08cbf2f6f9b4ac",
      "blockHash": "0x642b2b3f68c56a648b3172e20ec07a0588b2136c8e3a550d446fc645c5b015dd",
      "blockNumber": 93905,
      "transactionIndex": 2,
      "confirmations": null,
      "from": "0x3620db64D25D412bAb4C8d93E2e0D7e64e8Cb933",
      "gasPrice": {
        "_hex": "0xd2dc897b1"
      },
      "gasLimit": {
        "_hex": "0x5208"
      },
      "to": "0x32Be343B94f860124dC4fEe278FDCBD38C102D88",
      "value": {
        "_hex": "0x230508d043ed480000"
      },
      "nonce": 11,
      "data": "0x",
      "r": "0x721ff18a6fb43b6fa7080115ae689c19b2e0c45ed683c983e3addee190df2c3b",
      "s": "0x0382526acdbff1b99521c651c9c7f0c3a71e1a615b519907bb15d4e15c407262",
      "v": 27,
      "creates": null,
      "raw": "0xf86d0b850d2dc897b18252089432be343b94f860124dc4fee278fdcbd38c102d8889230508d043ed480000801ba0721ff18a6fb43b6fa7080115ae689c19b2e0c45ed683c983e3addee190df2c3ba00382526acdbff1b99521c651c9c7f0c3a71e1a615b519907bb15d4e15c407262",
      "networkId": 0,
      "chainId": 0
    }
  ]
}