{
  "hash": "0x96d6be9fc7f444b0a47f67c1705f1780afdeee748c8b54a04e02bee42f6d7cac",
  "parentHash": "0x075ac2f070e54c319937297b6a3d185c1eb2651595a02dc69353b2ab34f0058c",
  "number": 59513,
  "timestamp": 1439139443,
  "nonce": "0x4c9d3cc3249255d3",
  "difficulty": 1698869527375,
  "gasLimit": {
    "_hex": "0x2fefd8"
  },
  "gasUsed": {
    "_hex": "0x546c"
  },
  "miner": "0x271e8fC01E1C9E1621fD3d108e348450b2498541",
  "extraData": "0x476574682f76312e302e312f77696e646f77732f676f312e342e32",
  "transactions": [
    {
      "hash": "0x6d17b083fffccbc50220f2641671063c52c1cc33c3878b5878a22c6797373571",
      "blockHash": "0x96d6be9fc7f444b0a47f67c1705f1780afdeee748c8b54a04e02bee42f6d7cac",
      "blockNumber": 59513,
      "transactionIndex": 0,
      "confirmations": null,
      "from": "0x1d395b30adda1cF21f091a4F4A7B753371189441",
      "gasPrice": {
        "_hex": "0x110c8f7d8de"
      },
      "gasLimit": {
        "_hex": "0xc350"
      },
      "to": "0x2910543Af39abA0Cd09dBb2D50200b3E800A63D2",
      "value": {
        "_hex": "0x21e19e0c9bab2400000"
      },
      "nonce": 1,
      "data": "0x454e5a353952554238",
      "r": "0x73c14018a7388d10ba600e717b83624c28c11cbef7144b1dcc52ae8294067960",
      "s": "0x78cb76c968ca71dfa01cc70809204a7a222956065d18db446ac47f09599668bc",
      "v": 27,
      "creates": null,
      "raw": "0xf87801860110c8f7d8de82c350942910543af39aba0cd09dbb2d50200b3e800a63d28a021e19e0c9bab240000089454e5a3539525542381ba073c14018a7388d10ba600e717b83624c28c11cbef7144b1dcc52ae8294067960a078cb76c968ca71dfa01cc70809204a7a222956065d18db446ac47f09599668bc",
      "networkId": 0,
      "chainId": 0
    }
  ]
}