{
  "hash": "0xbcdf8271bf499575223715a9d26627f79e3c52f536f55afe1c845bd8afaa2301",
  "parentHash": "0x3a58baf24e4a4298c61353fac15f35b9236e3296b82adb1a29ad1694991fc0d2",
  "number": 53127,
  "timestamp": 1439032850,
  "nonce": "0xe5b76d52f3f84238",
  "difficulty": 1572394018346,
  "gasLimit": {
    "_hex": "0x2030e0"
  },
  "gasUsed": {
    "_hex": "0x5208"
  },
  "miner": "0xf927a40C8B7F6E07c5af7FA2155B4864a4112B13",
  "extraData": "0x476574682f76312e302e312f6c696e75782f676f312e342e32",
  "transactions": [
    {
      "hash": "0x5f3b0161677cd929b2ef8ecbca37d3cb37cb1c91029f97625cf5c3712a1fa464",
      "blockHash": "0xbcdf8271bf499575223715a9d26627f79e3c52f536f55afe1c845bd8afaa2301",
      "blockNumber": 53127,
      "transactionIndex": 0,
      "confirmations": null,
      "from": "0xa21E0cF3793cf75D63930696158E4474aF8383bA",
      "gasPrice": {
        "_hex": "0xd7d40ace3"
      },
      "gasLimit": {
        "_hex": "0x15f90"
      },
      "to": "0x556ca325C21e450b2aFf86D9c8eF0Fa371971c97",
      "value": {
        "_hex": "0x56bc75e2d63100000"
      },
      "nonce": 7,
      "data": "0x",
      "r": "0xdf6bb880592d971e164ccb71d17f9899707ab5a5c65817ff61a46e3cf4cfd1c3",
      "s": "0x39a7b65e50102669b14d830d09f397a16ae289da931df31acccf5617de6a7dfb",
      "v": 28,
      "creates": null,
      "raw": "0xf86e07850d7d40ace383015f9094556ca325c21e450b2aff86d9c8ef0fa371971c9789056bc75e2d63100000801ca0df6bb880592d971e164ccb71d17f9899707ab5a5c65817ff61a46e3cf4cfd1c3a039a7b65e50102669b14d830d09f397a16ae289da931df31acccf5617de6a7dfb",
      "networkId": 0,
      "chainId": 0
    }
  ]
}