{
  "hash": "0x04e52c295561197fdc04e2b7cf1e5173718cde1585e080136905dff1581374d9",
  "parentHash": "0xc42556345e94eef0182e7c9851ddab7163783bf9639fba7faab876c97cb159a8",
  "number": 68535,
  "timestamp": 1439289710,
  "nonce": "0x9e321433a99c60b4",
  "difficulty": 2001559476879,
  "gasLimit": {
    "_hex": "0x2fefd8"
  },
  "gasUsed": {
    "_hex": "0xf618"
  },
  "miner": "0xbb7B8287f3F0a933474a79eAe42CBCa977791171",
  "extraData": "0x476574682f4c5649562f76312e302e312f6c696e75782f676f312e342e32",
  "transactions": [
    {
      "hash": "0x039c658f40f22f136451d22e84eb431b57ac18a2aeed1c613a584a0adbe13ba5",
      "blockHash": "0x04e52c295561197fdc04e2b7cf1e5173718cde1585e080136905dff1581374d9",
      "blockNumber": 68535,
      "transactionIndex": 0,
      "confirmations": null,
      "from": "0x64d3b2c979F9B73Ff57B67B21de07970b644Eb0c",
      "gasPrice": {
        "_hex": "0xba43b7400"
      },
      "gasLimit": {
        "_hex": "0x5208"
      },
      "to": "0xe18e05dB456688d9813B5F1F54b2De2E55Cb1E16",
      "value": {
        "_hex": "0x36ef271c4dd000"
      },
      "nonce": 1,
      "data": "0x",
      "r": "0xdd88c9edc6179093ac326c33f2773f14d19aa6841534f1f88cbcef5729ae1ac3",
      "s": "0x59acf35b404df0dfbc828855d0c5760763483c16676906999a66cb2c51a72290",
      "v": 28,
      "creates": null,
      "raw": "0xf86b01850ba43b740082520894e18e05db456688d9813b5f1f54b2de2e55cb1e168736ef271c4dd000801ca0dd88c9edc6179093ac326c33f2773f14d19aa6841534f1f88cbcef5729ae1ac3a059acf35b404df0dfbc828855d0c5760763483c16676906999a66cb2c51a72290",
      "networkId": 0,
      "chainId": 0
    },
    {
      "hash": "0xcea8f2d059f51ae627559b526eb195718a7674f42007659429881e2d45f306f1",
      "blockHash": "0x04e52c295561197fdc04e2b7cf1e5173718cde1585e080136905dff1581374d9",
      "blockNumber": 68535,
      "transactionIndex": 1,
      "confirmations": null,
      "from": "0x27d873d62ceB0A4DD25dCED398febdC9Cb31b93a",
      "gasPrice": {
        "_hex": "0xba43b7400"
      },
      "gasLimit": {
        "_hex": "0x5208"
      },
      "to": "0xCD3e64aaaf115cFf8055556F78eFE771f3359A26",
      "value": {
        "_hex": "0x36ef271c4dd000"
      },
      "nonce": 1,
      "data": "0x",
      "r": "0x785b19c799464723de33214d87a836a446ab58f33cb18bbc44ac6c76e43dfa89",
      "s": "0x4da319d4c621db51f587bb72772324b9851b94ca338ef239b481db9b4b83108e",
      "v": 28,
      "creates": null,
      "raw": "0xf86b01850ba43b740082520894cd3e64aaaf115cff8055556f78efe771f3359a268736ef271c4dd000801ca0785b19c799464723de33214d87a836a446ab58f33cb18bbc44ac6c76e43dfa89a04da319d4c621db51f587bb72772324b9851b94ca338ef239b481db9b4b83108e",
      "networkId": 0,
      "chainId": 0
    },
    {
      "hash": "0x6d9476e61d4d0f54f258ce50740fe4155e6f483bae2b03a1c3baa11fb1df7033",
      "blockHash": "0x04e52c295561197fdc04e2b7cf1e5173718cde1585e080136905dff1581374d9",
      "blockNumber": 68535,
      "transactionIndex": 2,
      "confirmations": null,
      "from": "0x831E01aEaFd16A550cc48496451c853EF83ced06",
      "gasPrice": {
        "_hex": "0xba43b7400"
      },
      "gasLimit": {
        "_hex": "0x5208"
      },
      "to": "0xEafdf4Aa8ffE028105f5215483F7599c220cC857",
      "value": {
        "_hex": "0x36ef271c4dd000"
      },
      "nonce": 1,
      "data": "0x",
      "r": "0x957d47fb6f10f6d5d2d4041f2beba60b336671f9f8c20a7610cc5f29ae9f0208",
      "s": "0x308a89ce7cc6181bc509f77b5d8178ce4095a4569748a877dcb481b1da9fc6fd",
      "v": 28,
      "creates": null,
      "raw": "0xf86b01850ba43b740082520894eafdf4aa8ffe028105f5215483f7599c220cc8578736ef271c4dd000801ca0957d47fb6f10f6d5d2d4041f2beba60b336671f9f8c20a7610cc5f29ae9f0208a0308a89ce7cc6181bc509f77b5d8178ce4095a4569748a877dcb481b1da9fc6fd",
      "networkId": 0,
      "chainId": 0
    }
  ]
}