{
  "hash": "0x9d6cdd8ff280a611ea1664034c0a64dfc43bf6d572bff9948600e712b6ac35fc",
  "parentHash": "0xbb907ce84e8854a41bead45170dd70efc97792957df3e87e01df3c2987c06aec",
  "number": 101714,
  "timestamp": 1439827078,
  "nonce": "0xf9f0d64497072e69",
  "difficulty": 3863573435570,
  "gasLimit": {
    "_hex": "0x2fefd8"
  },
  "gasUsed": {
    "_hex": "0x5618"
  },
  "miner": "0x9746c7e1ef2bd21FF3997fa467593a89cb852BD0",
  "extraData": "0x476574682f76312e302e312f77696e646f77732f676f312e342e32",
  "transactions": [
    {
      "hash": "0xd85d28984d8e9d2f18a7e84aac8b2edc69ae2576bfab96e6deb2473685b626f4",
      "blockHash": "0x9d6cdd8ff280a611ea1664034c0a64dfc43bf6d572bff9948600e712b6ac35fc",
      "blockNumber": 101714,
      "transactionIndex": 0,
      "confirmations": null,
      "from": "0x8f7f160D267B54245003AaEeDB71b3cDD3A8BB65",
      "gasPrice": {
        "_hex": "0xd18a58a1a"
      },
      "gasLimit": {
        "_hex": "0x15f90"
      },
      "to": "0x0000000000000000000000000000000000000000",
      "value": {
        "_hex": "0x0"
      },
      "nonce": 4,
      "data": "0x432ced0470726f76656e616e636500000000000000000000000000000000000000000000",
      "r": "0x3959f571e245e10db928982cb05e6d2b40f82e1b5bf48c54acaaf4776442ead9",
      "s": "0x7c815e71a104c066be59b4b8c87b9b14a52440734be558eb8b0869b4a94d9ee4",
      "v": 27,
      "creates": null,
      "raw": "0xf88904850d18a58a1a83015f9094000000000000000000000000000000000000000080a4432ced0470726f76656e616e6365000000000000000000000000000000000000000000001ba03959f571e245e10db928982cb05e6d2b40f82e1b5bf48c54acaaf4776442ead9a07c815e71a104c066be59b4b8c87b9b14a52440734be558eb8b0869b4a94d9ee4",
      "networkId": 0,
      "chainId": 0
    }
  ]
}