{
  "hash": "0xa199e393c18eb795332ae49b81cee52eca9909c151d557a9081b69d663f80c05",
  "parentHash": "0x030653cdfd1daa8f7dc981abad6fd4b20986468ff7b71c8a929f4ba6c4fe3841",
  "number": 122002,
  "timestamp": 1440186532,
  "nonce": "0x1a9317e359471424",
  "difficulty": 4466633293120,
  "gasLimit": {
    "_hex": "0x2fefd8"
  },
  "gasUsed": {
    "_hex": "0x5208"
  },
  "miner": "0x790b8a3cE86E707ED0eD32bF89B3269692a23CC1",
  "extraData": "0xd783010002844765746887676f312e342e32856c696e7578",
  "transactions": [
    {
      "hash": "0x0d89a9ab4ffb221a4f311229844b29a23650820a895b11f899c7527604623c7c",
      "blockHash": "0xa199e393c18eb795332ae49b81cee52eca9909c151d557a9081b69d663f80c05",
      "blockNumber": 122002,
      "transactionIndex": 0,
      "confirmations": null,
      "from": "0x007f7f58D3eb5b7510A301eCC749FC1fCDDBE14D",
      "gasPrice": {
        "_hex": "0xba43b7400"
      },
      "gasLimit": {
        "_hex": "0x15f90"
      },
      "to": "0xb1abce2918E21ddb93AA452731a12672A3d9F75a",
      "value": {
        "_hex": "0x4563918244f40000"
      },
      "nonce": 384,
      "data": "0x",
      "r": "0xf53fa29e6ab28812a8009ee5e3b8e24b38250f734e2669ffd162346703e24bcd",
      "s": "0x58c774e0de3565292117a6e07207087a185a8404a55a112ee8bece31a8a0bf40",
      "v": 28,
      "creates": null,
      "raw": "0xf86f820180850ba43b740083015f9094b1abce2918e21ddb93aa452731a12672a3d9f75a884563918244f40000801ca0f53fa29e6ab28812a8009ee5e3b8e24b38250f734e2669ffd162346703e24bcda058c774e0de3565292117a6e07207087a185a8404a55a112ee8bece31a8a0bf40",
      "networkId": 0,
      "chainId": 0
    }
  ]
}