{
  "hash": "0xe3d24cd70e0ceef9414a401a92e6fe8457d12a352eba251c1768555a001fd437",
  "parentHash": "0x957a4af8cb5f70b120d6d9d09167613ebcd0692e36c85d23fc82dcb3e7942f23",
  "number": 121708,
  "timestamp": 1440181247,
  "nonce": "0xdf40155d675a92d9",
  "difficulty": 4497429143813,
  "gasLimit": {
    "_hex": "0x2fefd8"
  },
  "gasUsed": {
    "_hex": "0xf618"
  },
  "miner": "0x9746c7e1ef2bd21FF3997fa467593a89cb852BD0",
  "extraData": "0x476574682f76312e302e312f77696e646f77732f676f312e342e32",
  "transactions": [
    {
      "hash": "0x07e08334dbea17037d974eda82f25fe6021511f6cb6d00f182ddc3b14746d0be",
      "blockHash": "0xe3d24cd70e0ceef9414a401a92e6fe8457d12a352eba251c1768555a001fd437",
      "blockNumber": 121708,
      "transactionIndex": 0,
      "confirmations": null,
      "from": "0xb1abce2918E21ddb93AA452731a12672A3d9F75a",
      "gasPrice": {
        "_hex": "0xdc726af16"
      },
      "gasLimit": {
        "_hex": "0x5208"
      },
      "to": "0x32Be343B94f860124dC4fEe278FDCBD38C102D88",
      "value": {
        "_hex": "0x455f323f90e82000"
      },
      "nonce": 215,
      "data": "0x",
      "r": "0x91992a14feb0256ba60a4c2e550007e350ff1f3564915df19b8d9bcabeb01f89",
      "s": "0x122ed13b12216d2759106bc3643868807c60b1d318b2689b3c1cf1a59cb8633b",
      "v": 28,
      "creates": null,
      "raw": "0xf86d81d7850dc726af168252089432be343b94f860124dc4fee278fdcbd38c102d8888455f323f90e82000801ca091992a14feb0256ba60a4c2e550007e350ff1f3564915df19b8d9bcabeb01f89a0122ed13b12216d2759106bc3643868807c60b1d318b2689b3c1cf1a59cb8633b",
      "networkId": 0,
      "chainId": 0
    },
    {
      "hash": "0xdd860e39a9f3c4bc79e0c2bd4d965be86b36d27a2b6d9f5fb97f3f2e8c90d830",
      "blockHash": "0xe3d24cd70e0ceef9414a401a92e6fe8457d12a352eba251c1768555a001fd437",
      "blockNumber": 121708,
      "transactionIndex": 1,
      "confirmations": null,
      "from": "0xa70a9a7040d542C632D8e0bE7c5513A8a5Bbc752",
      "gasPrice": {
        "_hex": "0xdc726af16"
      },
      "gasLimit": {
        "_hex": "0x5208"
      },
      "to": "0x32Be343B94f860124dC4fEe278FDCBD38C102D88",
      "value": {
        "_hex": "0x45742130f0f1f800"
      },
      "nonce": 338,
      "data": "0x",
      "r": "0xec69d3c557a5ce667ff99105979b02dc9b4e90c2e87f21a5f144c687703ff825",
      "s": "0x76a86045e630c3aeb965dec1ac4980a90c134c2859d27bd634fb39f746265c83",
      "v": 28,
      "creates": null,
      "raw": "0xf86e820152850dc726af168252089432be343b94f860124dc4fee278fdcbd38c102d888845742130f0f1f800801ca0ec69d3c557a5ce667ff99105979b02dc9b4e90c2e87f21a5f144c687703ff825a076a86045e630c3aeb965dec1ac4980a90c134c2859d27bd634fb39f746265c83",
      "networkId": 0,
      "chainId": 0
    },
    {
      "hash": "0xf15ad4207595e3a1decbb29110295a4812b0eb2e724055a4b50448669d30a521",
      "blockHash": "0xe3d24cd70e0ceef9414a401a92e6fe8457d12a352eba251c1768555a001fd437",
      "blockNumber": 121708,
      "transactionIndex": 2,
      "confirmations": null,
      "from": "0x2910543Af39abA0Cd09dBb2D50200b3E800A63D2",
      "gasPrice": {
        "_hex": "0xd6930680b"
      },
      "gasLimit": {
        "_hex": "0x5208"
      },
      "to": "0xFFf1471A813EaF20Ade11C3d58E3a64157216587",
      "value": {
        "_hex": "0x4c52d0a48527f8000"
      },
      "nonce": 1198,
      "data": "0x",
      "r": "0xfd32454e51c69e55d9b72965101237826655c2a2e09b0693c986d4c61ffc905d",
      "s": "0x1dd8ff3046ac58edf0ffe61e5d15ebf8ccc2aa6d612ad613c3e65ac682f9bae2",
      "v": 27,
      "creates": null,
      "raw": "0xf86f8204ae850d6930680b82520894fff1471a813eaf20ade11c3d58e3a641572165878904c52d0a48527f8000801ba0fd32454e51c69e55d9b72965101237826655c2a2e09b0693c986d4c61ffc905da01dd8ff3046ac58edf0ffe61e5d15ebf8ccc2aa6d612ad613c3e65ac682f9bae2",
      "networkId": 0,
      "chainId": 0
    }
  ]
}