{
  "hash": "0x7f84cdebf14e330ce0db46561f9d84ec749bd354422f8f997934ec03d14f2920",
  "parentHash": "0x7ae612e9ec4c5691303c3141dc93998e299ba94ee9abdb496a48c0a4619c0f3c",
  "number": 96793,
  "timestamp": 1439745839,
  "nonce": "0x05cc68e68d70ff69",
  "difficulty": 3763403273065,
  "gasLimit": {
    "_hex": "0x2fefd8"
  },
  "gasUsed": {
    "_hex": "0x5208"
  },
  "miner": "0xe6A7a1d47ff21B6321162AEA7C6CB457D5476Bca",
  "extraData": "0x476574682f76312e302e312d38326566323666362f6c696e75782f676f312e34",
  "transactions": [
    {
      "hash": "0xea29d0edb3dc607edd957416db337dc7785597b278412445ee9baeeb29c30048",
      "blockHash": "0x7f84cdebf14e330ce0db46561f9d84ec749bd354422f8f997934ec03d14f2920",
      "blockNumber": 96793,
      "transactionIndex": 0,
      "confirmations": null,
      "from": "0x7884D470204862a0d1A21122F41ee77430396Ee5",
      "gasPrice": {
        "_hex": "0xd7698c377"
      },
      "gasLimit": {
        "_hex": "0x15f90"
      },
      "to": "0x20294778c579771db51F8E4259916Ba1d6a94fb5",
      "value": {
        "_hex": "0x2540be400"
      },
      "nonce": 21,
      "data": "0x",
      "r": "0x082ddbb3552e3e4ba971ab4e6a89a920b96241133c8c31bb391d94b81c0c7ffe",
      "s": "0x7aeacb9cbd55103f3ba6804cd778e1af613f938f02649fdc232f1a1c1a6af3e3",
      "v": 28,
      "creates": null,
      "raw": "0xf86a15850d7698c37783015f909420294778c579771db51f8e4259916ba1d6a94fb58502540be400801ca0082ddbb3552e3e4ba971ab4e6a89a920b96241133c8c31bb391d94b81c0c7ffea07aeacb9cbd55103f3ba6804cd778e1af613f938f02649fdc232f1a1c1a6af3e3",
      "networkId": 0,
      "chainId": 0
    }
  ]
}