{
  "hash": "0x8f911b53c5491ac7acf950f343f80e63769925aada620fba16fb5999abc49f72",
  "parentHash": "0x19bda360bf9468cbcc2a273476878a0e8d065c22aeceeaa92b6b24f3b2c0ed0e",
  "number": 119666,
  "timestamp": 1440146811,
  "nonce": "0x2f2efb6ef8824d01",
  "difficulty": 4381460726348,
  "gasLimit": {
    "_hex": "0x2fefd8"
  },
  "gasUsed": {
    "_hex": "0x723c"
  },
  "miner": "0x52bc44d5378309EE2abF1539BF71dE1b7d7bE3b5",
  "extraData": "0xd783010002844765746887676f312e342e32856c696e7578",
  "transactions": [
    {
      "hash": "0x63e04753794d94780b585da71820602f1d9ca9764fddf3e56d2d1afb941bfbb9",
      "blockHash": "0x8f911b53c5491ac7acf950f343f80e63769925aada620fba16fb5999abc49f72",
      "blockNumber": 119666,
      "transactionIndex": 0,
      "confirmations": null,
      "from": "0xEe38Df16452Bb041e346cAa6679EFC57c8bD4603",
      "gasPrice": {
        "_hex": "0xba43b7400"
      },
      "gasLimit": {
        "_hex": "0x1f8dc"
      },
      "to": "0xd2f06b96B41a6CBD916e3e762e837193AC74e89b",
      "value": {
        "_hex": "0x8ac7230489e80000"
      },
      "nonce": 3,
      "data": "0x",
      "r": "0xc541d46142c1f9ba81b78ac4ddebe4cb2ee25bb9c958da343ecb0a18cf2d38d4",
      "s": "0x62dc76f32dd4e93134e322fe2089bea279c6e0009d53b02e918946b0e4052c6b",
      "v": 27,
      "creates": null,
      "raw": "0xf86d03850ba43b74008301f8dc94d2f06b96b41a6cbd916e3e762e837193ac74e89b888ac7230489e80000801ba0c541d46142c1f9ba81b78ac4ddebe4cb2ee25bb9c958da343ecb0a18cf2d38d4a062dc76f32dd4e93134e322fe2089bea279c6e0009d53b02e918946b0e4052c6b",
      "networkId": 0,
      "chainId": 0
    }
  ]
}