{
  "hash": "0xf2c5a7d3b43daee1e8b1b9e69be92f927e306b05cd818c2758f5e8bd95e01e91",
  "parentHash": "0xdd9f85157c6c3ed161848f5a8be7c0182503542077192fc63a83051197adbb8c",
  "number": 59131,
  "timestamp": 1439132515,
  "nonce": "0xf5731498dfc7dadc",
  "difficulty": 1717295676300,
  "gasLimit": {
    "_hex": "0x2fefd8"
  },
  "gasUsed": {
    "_hex": "0x5208"
  },
  "miner": "0x3F98e477a361F777DA14611a7e419A75Fd238b6b",
  "extraData": "0x476574682f76312e302e312f6c696e75782f676f312e342e32",
  "transactions": [
    {
      "hash": "0x07b05824ee4143f9b21366cc706a6381df236df434b87044ce3d69342504b054",
      "blockHash": "0xf2c5a7d3b43daee1e8b1b9e69be92f927e306b05cd818c2758f5e8bd95e01e91",
      "blockNumber": 59131,
      "transactionIndex": 0,
      "confirmations": null,
      "from": "0x5fF827e73C5B866c300b824fe12719a3DD350513",
      "gasPrice": {
        "_hex": "0xdbb1df224"
      },
      "gasLimit": {
        "_hex": "0x5208"
      },
      "to": "0x32Be343B94f860124dC4fEe278FDCBD38C102D88",
      "value": {
        "_hex": "0x34b7e980c6298c00"
      },
      "nonce": 3,
      "data": "0x",
      "r": "0x67acbf70b74c19d105f4a2bd593f05ed64076e70f4c467973c666ade3e544e86",
      "s": "0x2a4001b44b3728c570b5edcea077008691d0b4113662a1fc3d72c397ff471c4c",
      "v": 27,
      "creates": null,
      "raw": "0xf86c03850dbb1df2248252089432be343b94f860124dc4fee278fdcbd38c102d888834b7e980c6298c00801ba067acbf70b74c19d105f4a2bd593f05ed64076e70f4c467973c666ade3e544e86a02a4001b44b3728c570b5edcea077008691d0b4113662a1fc3d72c397ff471c4c",
      "networkId": 0,
      "chainId": 0
    }
  ]
}