{
  "hash": "0xb76c54058fb9eb9590cf1140f8f4df429d2632fb2196b7b551bc1cbad84bcbb8",
  "parentHash": "0x07a47df0ee48eddbe2e07e4664ccfb0377bd71ea21c3de78287d0018d7fb2747",
  "number": 60002,
  "timestamp": 1439147273,
  "nonce": "0xfc95b1cae081f6d6",
  "difficulty": 1731430114620,
  "gasLimit": {
    "_hex": "0x2fefd8"
  },
  "gasUsed": {
    "_hex": "0x5208"
  },
  "miner": "0x72B04597570ca1Bd15727a8a23D7df9D432530b1",
  "extraData": "0x476574682f76312e302e312f77696e646f77732f676f312e342e32",
  "transactions": [
    {
      "hash": "0xe42a33347ec6af53a4ca81f39bf1c9af95ece582a4b195cdb471e882cc0b7b87",
      "blockHash": "0xb76c54058fb9eb9590cf1140f8f4df429d2632fb2196b7b551bc1cbad84bcbb8",
      "blockNumber": 60002,
      "transactionIndex": 0,
      "confirmations": null,
      "from": "0xF2d2AfF1320476cb8C6b607199D23175cc595693",
      "gasPrice": {
        "_hex": "0xd2c974150"
      },
      "gasLimit": {
        "_hex": "0x15f90"
      },
      "to": "0xF5EeDc192aB70b08D8354384aD94efD095849E00",
      "value": {
        "_hex": "0x55005f0c614480000"
      },
      "nonce": 16,
      "data": "0x",
      "r": "0x100ad81d39201de787698a4611772692fa08f9204173a430788ef5e8f33aa19e",
      "s": "0x506ab1a06476f2ed8935c2078b86509ced6a12d882ffd579b0441a0f6f5ec6fe",
      "v": 27,
      "creates": null,
      "raw": "0xf86e10850d2c97415083015f9094f5eedc192ab70b08d8354384ad94efd095849e0089055005f0c614480000801ba0100ad81d39201de787698a4611772692fa08f9204173a430788ef5e8f33aa19ea0506ab1a06476f2ed8935c2078b86509ced6a12d882ffd579b0441a0f6f5ec6fe",
      "networkId": 0,
      "chainId": 0
    }
  ]
}