{
  "hash": "0x1eea535df933110812b0449230abccc6b7127c9ff3e88c742ea42157b8bf285c",
  "parentHash": "0xbb930672c32d6104a6aad94059a9799f9abf2a4e67dfe62f5be044290564716b",
  "number": 122017,
  "timestamp": 1440186844,
  "nonce": "0xde3c9235372d9ef5",
  "difficulty": 4451384580240,
  "gasLimit": {
    "_hex": "0x2fefd8"
  },
  "gasUsed": {
    "_hex": "0x5208"
  },
  "miner": "0xC4E15a24b5f80FCeBC7104b922B1baF37FdD708B",
  "extraData": "0x",
  "transactions": [
    {
      "hash": "0xeaa85e306a4c035b25b09cbdba7c9dd23e7bbcb62577e16769e07640644cb3ef",
      "blockHash": "0x1eea535df933110812b0449230abccc6b7127c9ff3e88c742ea42157b8bf285c",
      "blockNumber": 122017,
      "transactionIndex": 0,
      "confirmations": null,
      "from": "0xF6b254f4060f12c7cDaFDd6020D2C13a70698c62",
      "gasPrice": {
        "_hex": "0xba43b7400"
      },
      "gasLimit": {
        "_hex": "0x15f90"
      },
      "to": "0x5197878A7683558Ed7FfEFc372709a50b9b711db",
      "value": {
        "_hex": "0x1d24b2dfac520000"
      },
      "nonce": 1,
      "data": "0x",
      "r": "0x3b75c1de021ba5c542a181ab430920556360260d4a4e58669d074db8ac053692",
      "s": "0x3426f5722daf2132cd0c74a0c601499f1e0855d30b22c885202d9bebcb3890e8",
      "v": 28,
      "creates": null,
      "raw": "0xf86d01850ba43b740083015f90945197878a7683558ed7ffefc372709a50b9b711db881d24b2dfac520000801ca03b75c1de021ba5c542a181ab430920556360260d4a4e58669d074db8ac053692a03426f5722daf2132cd0c74a0c601499f1e0855d30b22c885202d9bebcb3890e8",
      "networkId": 0,
      "chainId": 0
    }
  ]
}