{
  "hash": "0x450e6b7beebd1c4a0ada1de637f0b432108812915783c440adce1c6fd3748f1a",
  "parentHash": "0x24244f8cb43d67f5b54c9b2ce7919fb6ac383f60c192dca4ec4b0f8aa6e62e51",
  "number": 48926,
  "timestamp": 1438965185,
  "nonce": "0x550550b76e4aa6d7",
  "difficulty": 1480033832951,
  "gasLimit": {
    "_hex": "0x21444"
  },
  "gasUsed": {
    "_hex": "0xa674"
  },
  "miner": "0xe6A7a1d47ff21B6321162AEA7C6CB457D5476Bca",
  "extraData": "0x657468706f6f6c2e6f7267",
  "transactions": [
    {
      "hash": "0x508b6c53a59763879079e692adcd7c14a06f0f7a781466fb8e1024d1ea429ca8",
      "blockHash": "0x450e6b7beebd1c4a0ada1de637f0b432108812915783c440adce1c6fd3748f1a",
      "blockNumber": 48926,
      "transactionIndex": 0,
      "confirmations": null,
      "from": "0xB537d36A70EEb8d3e5c80dE815225c1158cb92C4",
      "gasPrice": {
        "_hex": "0x110c8f7d8de"
      },
      "gasLimit": {
        "_hex": "0xc350"
      },
      "to": "0x2910543Af39abA0Cd09dBb2D50200b3E800A63D2",
      "value": {
        "_hex": "0x1b1ae4d6e2ef500000"
      },
      "nonce": 0,
      "data": "0x454e38453751304e38",
      "r": "0x749cbc50fb7241d7ac36299321ef378366f1f5ca576765ec61a1d18a897527e7",
      "s": "0x4b6fb7a4bbb27bf72a3d23df7176a197f36f217358cd1b508c8691cf25d8078e",
      "v": 28,
      "creates": null,
      "raw": "0xf87780860110c8f7d8de82c350942910543af39aba0cd09dbb2d50200b3e800a63d2891b1ae4d6e2ef50000089454e38453751304e381ca0749cbc50fb7241d7ac36299321ef378366f1f5ca576765ec61a1d18a897527e7a04b6fb7a4bbb27bf72a3d23df7176a197f36f217358cd1b508c8691cf25d8078e",
      "networkId": 0,
      "chainId": 0
    },
    {
      "hash": "0x6fb96ebfcaa09b7168b40a1321fe7d1a4a6a19e14c6188e69ac161ef4a26b7b2",
      "blockHash": "0x450e6b7beebd1c4a0ada1de637f0b432108812915783c440adce1c6fd3748f1a",
      "blockNumber": 48926,
      "transactionIndex": 1,
      "confirmations": null,
      "from": "0x1d5886c94A247eCaf060Ce8bBDD258B8521E7359",
      "gasPrice": {
        "_hex": "0xdc8c89d53"
      },
      "gasLimit": {
        "_hex": "0x5208"
      },
      "to": "0x32Be343B94f860124dC4fEe278FDCBD38C102D88",
      "value": {
        "_hex": "0x6c6b8ed98ae7c40000"
      },
      "nonce": 0,
      "data": "0x",
      "r": "0xe626df3e29176bc50894b7d9fab79692fbe22fb20a51de179d09b4857face547",
      "s": "0x7430bc4ae76489d09ded3234b6a0534bdf62b8fe264ef170b01239127f222cca",
      "v": 27,
      "creates": null,
      "raw": "0xf86d80850dc8c89d538252089432be343b94f860124dc4fee278fdcbd38c102d88896c6b8ed98ae7c40000801ba0e626df3e29176bc50894b7d9fab79692fbe22fb20a51de179d09b4857face547a07430bc4ae76489d09ded3234b6a0534bdf62b8fe264ef170b01239127f222cca",
      "networkId": 0,
      "chainId": 0
    }
  ]
}