{
  "hash": "0x7da948271508f6151a3081eef5933c70cb19676787cfc221fb6e1a11be3959e6",
  "parentHash": "0x6ca93cb6590b6d1accee683535cf755d5153136d08c372788f64d77210a61228",
  "number": 105374,
  "timestamp": 1439886390,
  "nonce": "0x4dc51e61e7001f51",
  "difficulty": 4371821130667,
  "gasLimit": {
    "_hex": "0x2fefd8"
  },
  "gasUsed": {
    "_hex": "0x5208"
  },
  "miner": "0x56A1018A2F565672E98f4cB657cEB8059ff3E5a2",
  "extraData": "0x476574682f76312e302e312f77696e646f77732f676f312e342e32",
  "transactions": [
    {
      "hash": "0xf6c7b0d87a39766a5b6b7469c6694a227f25e9338aec7f989d369ec582d470ad",
      "blockHash": "0x7da948271508f6151a3081eef5933c70cb19676787cfc221fb6e1a11be3959e6",
      "blockNumber": 105374,
      "transactionIndex": 0,
      "confirmations": null,
      "from": "0x5248EfBC7319bd65d436374266765D9727253F12",
      "gasPrice": {
        "_hex": "0xd735f3805"
      },
      "gasLimit": {
        "_hex": "0x5208"
      },
      "to": "0x32Be343B94f860124dC4fEe278FDCBD38C102D88",
      "value": {
        "_hex": "0x29da044268c40e000"
      },
      "nonce": 9,
      "data": "0x",
      "r": "0x86839c3261bb0bffc307aa2cbe9237c4aaa34a37a0fe7f75dcf9cef5d7503143",
      "s": "0x20c99ddc5b2d6bd7eda495f7317ae33fd8492390ac580979e6b1baf3741abea7",
      "v": 28,
      "creates": null,
      "raw": "0xf86d09850d735f38058252089432be343b94f860124dc4fee278fdcbd38c102d8889029da044268c40e000801ca086839c3261bb0bffc307aa2cbe9237c4aaa34a37a0fe7f75dcf9cef5d7503143a020c99ddc5b2d6bd7eda495f7317ae33fd8492390ac580979e6b1baf3741abea7",
      "networkId": 0,
      "chainId": 0
    }
  ]
}