{
  "hash": "0xbc18cd7723e82454cafa7bb5582c7aefda02bb313888be93075806674d3ce19d",
  "parentHash": "0x33f3ec8cd5a5c54c21629c63f44a5ae3fe3d2dac8b5934f260397cd0a80d403b",
  "number": 50820,
  "timestamp": 1438995127,
  "nonce": "0x06de1531567be315",
  "difficulty": 1549198354228,
  "gasLimit": {
    "_hex": "0x7a51e"
  },
  "gasUsed": {
    "_hex": "0x30d40"
  },
  "miner": "0xa50ec0D39fa913E62f1Bae7074E6F36caA71855b",
  "extraData": "0x",
  "transactions": [
    {
      "hash": "0x988600fe291b45d2e5f9c3ef5b23a9741c669d69122bd0afb2eac6736ea97b57",
      "blockHash": "0xbc18cd7723e82454cafa7bb5582c7aefda02bb313888be93075806674d3ce19d",
      "blockNumber": 50820,
      "transactionIndex": 0,
      "confirmations": null,
      "from": "0x190174d939CC332eE1Ea9351AD703ddF7364Ca68",
      "gasPrice": {
        "_hex": "0xcaf8f7e16"
      },
      "gasLimit": {
        "_hex": "0x30d40"
      },
      "to": "0x109C4f2CCc82C4d77Bde15F306707320294Aea3F",
      "value": {
        "_hex": "0xde0b6b3a7640000"
      },
      "nonce": 1,
      "data": "0x",
      "r": "0x616d0d25bad575e57d26a478dd608c8b242c80657239acdd3b20d01a105690a2",
      "s": "0x196f7f2ac908673c39276c3bbe7a35608d5619503aeb4f24f7f81be18c984033",
      "v": 27,
      "creates": null,
      "raw": "0xf86d01850caf8f7e1683030d4094109c4f2ccc82c4d77bde15f306707320294aea3f880de0b6b3a7640000801ba0616d0d25bad575e57d26a478dd608c8b242c80657239acdd3b20d01a105690a2a0196f7f2ac908673c39276c3bbe7a35608d5619503aeb4f24f7f81be18c984033",
      "networkId": 0,
      "chainId": 0
    }
  ]
}