{
  "hash": "0x0b3da4725f942957e42bde3b8f25c6b261f71ac2d1018e0cfd71f19063233a7a",
  "parentHash": "0x994043e15c98e293cbc5e134408e20c9c72f93be14ce567bf79ad0649abd1eda",
  "number": 65358,
  "timestamp": 1439235549,
  "nonce": "0x1d3f6fd92962c771",
  "difficulty": 1943557748451,
  "gasLimit": {
    "_hex": "0x2fefd5"
  },
  "gasUsed": {
    "_hex": "0xf618"
  },
  "miner": "0xf927a40C8B7F6E07c5af7FA2155B4864a4112B13",
  "extraData": "0x476574682f76312e302e312f6c696e75782f676f312e342e32",
  "transactions": [
    {
      "hash": "0x2550c82c8f53b4d1436b890b1823736e2e1455a54a5b6d020f9752478d6b2d82",
      "blockHash": "0x0b3da4725f942957e42bde3b8f25c6b261f71ac2d1018e0cfd71f19063233a7a",
      "blockNumber": 65358,
      "transactionIndex": 0,
      "confirmations": null,
      "from": "0x9cF18B3eb373C383a42d06136ba331D766ed9Fbb",
      "gasPrice": {
        "_hex": "0xd7d3b322e"
      },
      "gasLimit": {
        "_hex": "0x5208"
      },
      "to": "0x32Be343B94f860124dC4fEe278FDCBD38C102D88",
      "value": {
        "_hex": "0xddc642a40531c00"
      },
      "nonce": 0,
      "data": "0x",
      "r": "0x49792d045358592fc2ba8e227f7338333379ba9e326b17c530a9bedefb59a331",
      "s": "0x1eaa5df5d4e84f9c053cc7a74cbc6c7eb67e25cf7ed3dd7487f73e8d5152fee2",
      "v": 28,
      "creates": null,
      "raw": "0xf86c80850d7d3b322e8252089432be343b94f860124dc4fee278fdcbd38c102d88880ddc642a40531c00801ca049792d045358592fc2ba8e227f7338333379ba9e326b17c530a9bedefb59a331a01eaa5df5d4e84f9c053cc7a74cbc6c7eb67e25cf7ed3dd7487f73e8d5152fee2",
      "networkId": 0,
      "chainId": 0
    },
    {
      "hash": "0x89170f2e1a60c15a2746d134dfbccaf6ae2c30c582e45c8d094efe65dad08171",
      "blockHash": "0x0b3da4725f942957e42bde3b8f25c6b261f71ac2d1018e0cfd71f19063233a7a",
      "blockNumber": 65358,
      "transactionIndex": 1,
      "confirmations": null,
      "from": "0x285B048CC4cB946abCF3eF11aDe982C36946AF18",
      "gasPrice": {
        "_hex": "0xd7d3b322e"
      },
      "gasLimit": {
        "_hex": "0x5208"
      },
      "to": "0x32Be343B94f860124dC4fEe278FDCBD38C102D88",
      "value": {
        "_hex": "0xd02661fd67cb2000"
      },
      "nonce": 1,
      "data": "0x",
      "r": "0xaf81ee9f95aa23da7aa46e4f6316eb498326861dfcd096f35c8c8885ef10d452",
      "s": "0x74ecc0b6e11ab8b65430a4e4e4196cdba7edfd8e407e1666dacc7986e936c6b0",
      "v": 27,
      "creates": null,
      "raw": "0xf86c01850d7d3b322e8252089432be343b94f860124dc4fee278fdcbd38c102d8888d02661fd67cb2000801ba0af81ee9f95aa23da7aa46e4f6316eb498326861dfcd096f35c8c8885ef10d452a074ecc0b6e11ab8b65430a4e4e4196cdba7edfd8e407e1666dacc7986e936c6b0",
      "networkId": 0,
      "chainId": 0
    },
    {
      "hash": "0xd5705bb91fef64c7e5d6cf48303d1a2e220a225d3d2d9d381a4b44f1e08887c5",
      "blockHash": "0x0b3da4725f942957e42bde3b8f25c6b261f71ac2d1018e0cfd71f19063233a7a",
      "blockNumber": 65358,
      "transactionIndex": 2,
      "confirmations": null,
      "from": "0xF2C98425f9f22071AB4DFA15A34628246FEDc163",
      "gasPrice": {
        "_hex": "0xd7d3b322e"
      },
      "gasLimit": {
        "_hex": "0x5208"
      },
      "to": "0x32Be343B94f860124dC4fEe278FDCBD38C102D88",
      "value": {
        "_hex": "0xddc642a40531c00"
      },
      "nonce": 0,
      "data": "0x",
      "r": "0xaefffbcfbe0a50902d8e35526309f3d412b89d77cdca10bb75a70855821b11c9",
      "s": "0x524a6cff76b60a036a7809644710af21a42fe315bb3a2a2ed7e4d592268a9ebe",
      "v": 27,
      "creates": null,
      "raw": "0xf86c80850d7d3b322e8252089432be343b94f860124dc4fee278fdcbd38c102d88880ddc642a40531c00801ba0aefffbcfbe0a50902d8e35526309f3d412b89d77cdca10bb75a70855821b11c9a0524a6cff76b60a036a7809644710af21a42fe315bb3a2a2ed7e4d592268a9ebe",
      "networkId": 0,
      "chainId": 0
    }
  ]
}