{
  "hash": "0x5dbdf5cc712bcb3b3886fe5f00eb188aaf6d66c8d7d2b9c357ca793460cec062",
  "parentHash": "0x76e7170ecb7ff4706bea0aabc3981cd706694f0589ed960d765192fd3475469a",
  "number": 103283,
  "timestamp": 1439850680,
  "nonce": "0x89e5d9615dc512d9",
  "difficulty": 4182860432060,
  "gasLimit": {
    "_hex": "0x2fefd8"
  },
  "gasUsed": {
    "_hex": "0x5208"
  },
  "miner": "0xFAB194aC2F8437fAdDeC28952ae2B2CB4F588E38",
  "extraData": "0x476574682f76312e302e312f77696e646f77732f676f312e342e32",
  "transactions": [
    {
      "hash": "0xdf383c5a3b2cb189d7a983a558b1dce8226ab3e7240c940c4afdc8e2cabc8a71",
      "blockHash": "0x5dbdf5cc712bcb3b3886fe5f00eb188aaf6d66c8d7d2b9c357ca793460cec062",
      "blockNumber": 103283,
      "transactionIndex": 0,
      "confirmations": null,
      "from": "0xF109ca710C0Df51c1a86dBA1B0BA0Ed038114463",
      "gasPrice": {
        "_hex": "0xcb7bdd7e9"
      },
      "gasLimit": {
        "_hex": "0x5208"
      },
      "to": "0x32Be343B94f860124dC4fEe278FDCBD38C102D88",
      "value": {
        "_hex": "0x455f7e4139121400"
      },
      "nonce": 17,
      "data": "0x",
      "r": "0xc526bc2d10b2154ab43c1eaaab55f5ca366550f2f93b96947c671d3b507fb02c",
      "s": "0x6f6d9860b89cbd2e5dad0a328dc1d4f0ae4da0dbfa650158cd676f73c8730e63",
      "v": 27,
      "creates": null,
      "raw": "0xf86c11850cb7bdd7e98252089432be343b94f860124dc4fee278fdcbd38c102d8888455f7e4139121400801ba0c526bc2d10b2154ab43c1eaaab55f5ca366550f2f93b96947c671d3b507fb02ca06f6d9860b89cbd2e5dad0a328dc1d4f0ae4da0dbfa650158cd676f73c8730e63",
      "networkId": 0,
      "chainId": 0
    }
  ]
}