{
  "hash": "0xe6d0d9ca77b677f60457e044b327c7c9455c66c87fb9a8351c8f587b5b785757",
  "parentHash": "0xe5927360c633aa5a386ad99e0abf10c79d3ad175588834222e227401a80376cd",
  "number": 101897,
  "timestamp": 1439829719,
  "nonce": "0x3b760000f899e618",
  "difficulty": 3891890073716,
  "gasLimit": {
    "_hex": "0x2fefd8"
  },
  "gasUsed": {
    "_hex": "0x5208"
  },
  "miner": "0x790b8a3cE86E707ED0eD32bF89B3269692a23CC1",
  "extraData": "0xd783010001844765746887676f312e342e32856c696e7578",
  "transactions": [
    {
      "hash": "0x26d35d566cc5c9ba0145bd8c4ffa8060993a48d5af8707be7d6ae03ecaa62fc6",
      "blockHash": "0xe6d0d9ca77b677f60457e044b327c7c9455c66c87fb9a8351c8f587b5b785757",
      "blockNumber": 101897,
      "transactionIndex": 0,
      "confirmations": null,
      "from": "0x0F5B063d39887707089aD6BEE70c0FDd4dE061EF",
      "gasPrice": {
        "_hex": "0xe0cad4330"
      },
      "gasLimit": {
        "_hex": "0x5208"
      },
      "to": "0x32Be343B94f860124dC4fEe278FDCBD38C102D88",
      "value": {
        "_hex": "0x987ff362e49ae000000"
      },
      "nonce": 0,
      "data": "0x",
      "r": "0x3e8a64a032c39494155c885aa301129dcdf8fecc0e3aa7a84baea675909844c4",
      "s": "0x22fd12daee718140e77acb656140539f2d142c0e56f9c810c82a5300e7d605fe",
      "v": 27,
      "creates": null,
      "raw": "0xf86e80850e0cad43308252089432be343b94f860124dc4fee278fdcbd38c102d888a0987ff362e49ae000000801ba03e8a64a032c39494155c885aa301129dcdf8fecc0e3aa7a84baea675909844c4a022fd12daee718140e77acb656140539f2d142c0e56f9c810c82a5300e7d605fe",
      "networkId": 0,
      "chainId": 0
    }
  ]
}