{
  "hash": "0x441100467be27479574dd80871d436f797df6b7cfc45babd29cb1e9180b8f10c",
  "parentHash": "0x6150b3979837d450f4e61cec4ce2ad845f51d3c8e3bfb24a687f6dd1782e9106",
  "number": 46262,
  "timestamp": 1438920197,
  "nonce": "0x6840a676a137d9c1",
  "difficulty": 1460400400643,
  "gasLimit": {
    "_hex": "0x5758"
  },
  "gasUsed": {
    "_hex": "0x5208"
  },
  "miner": "0x0037ce3d4B7f8729C8607D8D0248252Be68202c0",
  "extraData": "0x476574682f76312e302e312f77696e646f77732f676f312e342e32",
  "transactions": [
    {
      "hash": "0x003bd72d0e4da122082e919487bb0df8734d0747141a1f9c24dbd96427a99ece",
      "blockHash": "0x441100467be27479574dd80871d436f797df6b7cfc45babd29cb1e9180b8f10c",
      "blockNumber": 46262,
      "transactionIndex": 0,
      "confirmations": null,
      "from": "0x762998E1D75227fcEd7a70Be109a4C0B4eD86414",
      "gasPrice": {
        "_hex": "0x22ecb25c00"
      },
      "gasLimit": {
        "_hex": "0x5208"
      },
      "to": "0x9E0Afd592B1e40BEe26816E360f02eebF04aD74B",
      "value": {
        "_hex": "0x1064a49dd0ee20000"
      },
      "nonce": 1,
      "data": "0x",
      "r": "0x91cfa9028a89863d0484a0d8aa1ebb702985555a975bce61aaaf98680d9eb9ec",
      "s": "0x0e8e6a6b30762af6b9ff522b088783258f64da80afd9f1e946111ed3c7005415",
      "v": 27,
      "creates": null,
      "raw": "0xf86d018522ecb25c00825208949e0afd592b1e40bee26816e360f02eebf04ad74b8901064a49dd0ee20000801ba091cfa9028a89863d0484a0d8aa1ebb702985555a975bce61aaaf98680d9eb9eca00e8e6a6b30762af6b9ff522b088783258f64da80afd9f1e946111ed3c7005415",
      "networkId": 0,
      "chainId": 0
    }
  ]
}