{
  "hash": "0x012d8319b0e42956bf1d30e4f3cb19f6a9275b4a44b053f259746995ae609321",
  "parentHash": "0x47f358a86c63cc62d4e21b8cfc2de6a2b066e0b219afb6886938632eabc9898b",
  "number": 92437,
  "timestamp": 1439671888,
  "nonce": "0xc393fe29c74230db",
  "difficulty": 3526878693160,
  "gasLimit": {
    "_hex": "0x2fefd8"
  },
  "gasUsed": {
    "_hex": "0x546c"
  },
  "miner": "0xa50ec0D39fa913E62f1Bae7074E6F36caA71855b",
  "extraData": "0xd783010001844765746887676f312e342e32856c696e7578",
  "transactions": [
    {
      "hash": "0xaafd2b9f9bd738da55c5502f65c3ebb0760524d46fa727c2bc5aba5609a9e307",
      "blockHash": "0x012d8319b0e42956bf1d30e4f3cb19f6a9275b4a44b053f259746995ae609321",
      "blockNumber": 92437,
      "transactionIndex": 0,
      "confirmations": null,
      "from": "0xDdFafdbC7c90f1320e54b98F374617fbd01d109f",
      "gasPrice": {
        "_hex": "0x11398f691b1"
      },
      "gasLimit": {
        "_hex": "0x55f0"
      },
      "to": "0x2910543Af39abA0Cd09dBb2D50200b3E800A63D2",
      "value": {
        "_hex": "0x130ee8e7179044400000"
      },
      "nonce": 2,
      "data": "0x454e425039395a5630",
      "r": "0xa2ce29564fdc0cddc3fbd9fd6a926fbc9589d84c7e022da2148c4fd1cf9b5f2d",
      "s": "0x1894233ace91b887dd8dfa72f738d6963fe39677d6e341e47f01392ba37a3780",
      "v": 27,
      "creates": null,
      "raw": "0xf8780286011398f691b18255f0942910543af39aba0cd09dbb2d50200b3e800a63d28a130ee8e717904440000089454e425039395a56301ba0a2ce29564fdc0cddc3fbd9fd6a926fbc9589d84c7e022da2148c4fd1cf9b5f2da01894233ace91b887dd8dfa72f738d6963fe39677d6e341e47f01392ba37a3780",
      "networkId": 0,
      "chainId": 0
    }
  ]
}