{
  "hash": "0x7f31fbd426bedc07fcd98e1c037d0912e21b1dbe4990b38680095f73f62e2f94",
  "parentHash": "0x87a0e159c7a6639cb6a928aad5aeeb8e6f6ca22d5d2539e732382dfec5087799",
  "number": 53430,
  "timestamp": 1439037457,
  "nonce": "0x8f6852311af9d591",
  "difficulty": 1593203524880,
  "gasLimit": {
    "_hex": "0x27f342"
  },
  "gasUsed": {
    "_hex": "0x546c"
  },
  "miner": "0x9298A283561414096A90B8e52c2202D03F3406A9",
  "extraData": "0x476574682f76312e302e312f6c696e75782f676f312e342e32",
  "transactions": [
    {
      "hash": "0x6f9b639250396c08419517a6eac5d430c704da57fd42b2a45bf6546ec36413e5",
      "blockHash": "0x7f31fbd426bedc07fcd98e1c037d0912e21b1dbe4990b38680095f73f62e2f94",
      "blockNumber": 53430,
      "transactionIndex": 0,
      "confirmations": null,
      "from": "0x2dd325FDfFB97B19995284aFA5abDB574a1Df16a",
      "gasPrice": {
        "_hex": "0xd1f217cbf"
      },
      "gasLimit": {
        "_hex": "0x15f90"
      },
      "to": "0x2910543Af39abA0Cd09dBb2D50200b3E800A63D2",
      "value": {
        "_hex": "0x56bc75e2d63100000"
      },
      "nonce": 3,
      "data": "0x454e32345444484547",
      "r": "0x40af195b095a35c91e972d629b6f9591cbc8e5f8800492eb90c69d4fe25601e8",
      "s": "0x68e6ad2456d978b97ad89f8199a0b5bef5e1f0cecc918a612deb3ec39b5f232f",
      "v": 28,
      "creates": null,
      "raw": "0xf87703850d1f217cbf83015f90942910543af39aba0cd09dbb2d50200b3e800a63d289056bc75e2d6310000089454e323454444845471ca040af195b095a35c91e972d629b6f9591cbc8e5f8800492eb90c69d4fe25601e8a068e6ad2456d978b97ad89f8199a0b5bef5e1f0cecc918a612deb3ec39b5f232f",
      "networkId": 0,
      "chainId": 0
    }
  ]
}