{
  "hash": "0x051000f51a159b8c70d673c4127f8404c910bc9dd33857ebe04398fb19d983f6",
  "parentHash": "0xa074302c19a902590bf869554d6444f5f710958930a7668b7bbd005dd33390a6",
  "number": 100757,
  "timestamp": 1439811846,
  "nonce": "0x3d4d784e7e548da0",
  "difficulty": 3847070953465,
  "gasLimit": {
    "_hex": "0x2fefd8"
  },
  "gasUsed": {
    "_hex": "0x5208"
  },
  "miner": "0xa70a9a7040d542C632D8e0bE7c5513A8a5Bbc752",
  "extraData": "0x",
  "transactions": [
    {
      "hash": "0x4fa017b7cf3760c396ac425262bad9cb2ee94af9319ae8d36bb1b723e7beeda6",
      "blockHash": "0x051000f51a159b8c70d673c4127f8404c910bc9dd33857ebe04398fb19d983f6",
      "blockNumber": 100757,
      "transactionIndex": 0,
      "confirmations": null,
      "from": "0x3b09EfC81d5e3F72737B4063883CEDdfBc79ae88",
      "gasPrice": {
        "_hex": "0xd8cf067e3"
      },
      "gasLimit": {
        "_hex": "0x5208"
      },
      "to": "0x32Be343B94f860124dC4fEe278FDCBD38C102D88",
      "value": {
        "_hex": "0x6decba9d709f9c00"
      },
      "nonce": 5,
      "data": "0x",
      "r": "0x6900cfcd62b40a32dc4ae0a9aa468c5c8f82395da0b555e6c87e52e31218734a",
      "s": "0x2177e218a71a815d8bcc41a3b19165521399a0188236d5b951ebccc3796f3427",
      "v": 28,
      "creates": null,
      "raw": "0xf86c05850d8cf067e38252089432be343b94f860124dc4fee278fdcbd38c102d88886decba9d709f9c00801ca06900cfcd62b40a32dc4ae0a9aa468c5c8f82395da0b555e6c87e52e31218734aa02177e218a71a815d8bcc41a3b19165521399a0188236d5b951ebccc3796f3427",
      "networkId": 0,
      "chainId": 0
    }
  ]
}