{
  "hash": "0x49390c9a719e6d075716136cb278251003e231a9903be112d0796efd68721d53",
  "parentHash": "0xc296486cc8a27d385f20f9d64b9558dc73cbf79912e721b68d27c43247ce647f",
  "number": 48562,
  "timestamp": 1438959010,
  "nonce": "0x94f2d7990cc1730f",
  "difficulty": 1472888629865,
  "gasLimit": {
    "_hex": "0x19756"
  },
  "gasUsed": {
    "_hex": "0x546c"
  },
  "miner": "0xf8E0CA3Ed80bd541b94BEdCf259e8CF2141A9523",
  "extraData": "0x476574682f76312e302e312f77696e646f77732f676f312e342e32",
  "transactions": [
    {
      "hash": "0x1651e57ecfbb608aa7cbc4b5f54d8dce3fce0cbec3dbec6d0f8985abeff0e024",
      "blockHash": "0x49390c9a719e6d075716136cb278251003e231a9903be112d0796efd68721d53",
      "blockNumber": 48562,
      "transactionIndex": 0,
      "confirmations": null,
      "from": "0x8b2A772D304712e5cb3FBb6A42b57399799a7B95",
      "gasPrice": {
        "_hex": "0xdc0e174d7"
      },
      "gasLimit": {
        "_hex": "0x15f90"
      },
      "to": "0x2910543Af39abA0Cd09dBb2D50200b3E800A63D2",
      "value": {
        "_hex": "0x146d2683a0c730000"
      },
      "nonce": 0,
      "data": "0x454e51343033375047",
      "r": "0x7d28f10ae9b9775f3e073af635f2ff0e2622493341776f719099c2782cec780f",
      "s": "0x45d7d30cb491a5e5028d92f34c416472faa8d1b843a05236925f56f6343f790e",
      "v": 27,
      "creates": null,
      "raw": "0xf87780850dc0e174d783015f90942910543af39aba0cd09dbb2d50200b3e800a63d2890146d2683a0c73000089454e513430333750471ba07d28f10ae9b9775f3e073af635f2ff0e2622493341776f719099c2782cec780fa045d7d30cb491a5e5028d92f34c416472faa8d1b843a05236925f56f6343f790e",
      "networkId": 0,
      "chainId": 0
    }
  ]
}