{
  "hash": "0xb30775a2dd54cf49c70c5578ddebdc3ce2e20d499281042f1aff1065fe4684a6",
  "parentHash": "0x7a3009b5532f673cc0c05d7650402208702f6f6408931c41f094c5302134ad50",
  "number": 74240,
  "timestamp": 1439382813,
  "nonce": "0x70d0f75bf7ddef37",
  "difficulty": 2215099482089,
  "gasLimit": {
    "_hex": "0x2fefd5"
  },
  "gasUsed": {
    "_hex": "0x3d860"
  },
  "miner": "0xf927a40C8B7F6E07c5af7FA2155B4864a4112B13",
  "extraData": "0x",
  "transactions": [
    {
      "hash": "0xbb1f6b2526209849529752a289e867b1b351e87d4a7adc71a0ad3fbe78cdeee2",
      "blockHash": "0xb30775a2dd54cf49c70c5578ddebdc3ce2e20d499281042f1aff1065fe4684a6",
      "blockNumber": 74240,
      "transactionIndex": 0,
      "confirmations": null,
      "from": "0xe6A7a1d47ff21B6321162AEA7C6CB457D5476Bca",
      "gasPrice": {
        "_hex": "0xde5b98d9e"
      },
      "gasLimit": {
        "_hex": "0x55f0"
      },
      "to": "0x2a9345Be3f611A15B4ac383C0f601c4B16b24577",
      "value": {
        "_hex": "0x1746fdfce375cd08"
      },
      "nonce": 719,
      "data": "0x",
      "r": "0x2b15eeacbe53f7f8c989bb9b7727fec98781544342452d35dececbf3dada0fad",
      "s": "0x35176163fef762353751f75d8969d86ccac70b97c08d91d97eca004349aa8901",
      "v": 28,
      "creates": null,
      "raw": "0xf86e8202cf850de5b98d9e8255f0942a9345be3f611a15b4ac383c0f601c4b16b24577881746fdfce375cd08801ca02b15eeacbe53f7f8c989bb9b7727fec98781544342452d35dececbf3dada0fada035176163fef762353751f75d8969d86ccac70b97c08d91d97eca004349aa8901",
      "networkId": 0,
      "chainId": 0
    },
    {
      "hash": "0x594acafb7421544af536725ee499624465c1f12183a48cebca02604dc2aa1268",
      "blockHash": "0xb30775a2dd54cf49c70c5578ddebdc3ce2e20d499281042f1aff1065fe4684a6",
      "blockNumber": 74240,
      "transactionIndex": 1,
      "confirmations": null,
      "from": "0xe6A7a1d47ff21B6321162AEA7C6CB457D5476Bca",
      "gasPrice": {
        "_hex": "0xde5b98d9e"
      },
      "gasLimit": {
        "_hex": "0x55f0"
      },
      "to": "0xAb5199486803893a6dc1AD1D31612895300BCcA9",
      "value": {
        "_hex": "0x175d7ddc0d5df2ec"
      },
      "nonce": 720,
      "data": "0x",
      "r": "0x27645d2f797ea795a21d5dd7a8bc536de108d5a11e5800f7fcf9f4d947001574",
      "s": "0x078ef0ded57b206fa02342dff2d4c0ae1bb8595c7555be656d5ae77f96fd929f",
      "v": 28,
      "creates": null,
      "raw": "0xf86e8202d0850de5b98d9e8255f094ab5199486803893a6dc1ad1d31612895300bcca988175d7ddc0d5df2ec801ca027645d2f797ea795a21d5dd7a8bc536de108d5a11e5800f7fcf9f4d947001574a0078ef0ded57b206fa02342dff2d4c0ae1bb8595c7555be656d5ae77f96fd929f",
      "networkId": 0,
      "chainId": 0
    },
    {
      "hash": "0x893f7c169a3540fa0142180cfbd33c8fa00f62bc893d313cbdfd3f7ff9a1d35a",
      "blockHash": "0xb30775a2dd54cf49c70c5578ddebdc3ce2e20d499281042f1aff1065fe4684a6",
      "blockNumber": 74240,
      "transactionIndex": 2,
      "confirmations": null,
      "from": "0xe6A7a1d47ff21B6321162AEA7C6CB457D5476Bca",
      "gasPrice": {
        "_hex": "0xde5b98d9e"
      },
      "gasLimit": {
        "_hex": "0x55f0"
      },
      "to": "0x5C6935CC46A0ccd4f0E1eb8c27103e46AA9517dB",
      "value": {
        "_hex": "0x1804b8c93bdafed8"
      },
      "nonce": 721,
      "data": "0x",
      "r": "0x078251ebfe886a7ba43a634ff96b2bf92265d1cf7f0d42ebcb07cae7b7bd82c2",
      "s": "0x25f4578ae93b5635fda7303fc6bca872bdb1f23ddc56997bffd025dcdedfbf0c",
      "v": 27,
      "creates": null,
      "raw": "0xf86e8202d1850de5b98d9e8255f0945c6935cc46a0ccd4f0e1eb8c27103e46aa9517db881804b8c93bdafed8801ba0078251ebfe886a7ba43a634ff96b2bf92265d1cf7f0d42ebcb07cae7b7bd82c2a025f4578ae93b5635fda7303fc6bca872bdb1f23ddc56997bffd025dcdedfbf0c",
      "networkId": 0,
      "chainId": 0
    },
    {
      "hash": "0x90f1f6c1eb48dc797e7c5387e8e782bfe1e64aa128c993e0fcabb62b324c85a9",
      "blockHash": "0xb30775a2dd54cf49c70c5578ddebdc3ce2e20d499281042f1aff1065fe4684a6",
      "blockNumber": 74240,
      "transactionIndex": 3,
      "confirmations": null,
      "from": "0xe6A7a1d47ff21B6321162AEA7C6CB457D5476Bca",
      "gasPrice": {
        "_hex": "0xde5b98d9e"
      },
      "gasLimit": {
        "_hex": "0x55f0"
      },
      "to": "0xd7cF02FADF1681E45227D6eDB3649645B4936EBB",
      "value": {
        "_hex": "0x18736e7c6d5e0068"
      },
      "nonce": 722,
      "data": "0x",
      "r": "0x5d02de3d0c315b5fc578941fdecbde60d1d329fc42ef4bca24fe7a1077d5b8d0",
      "s": "0x61a7e48745211d5d4078543f1fa30c4969fc5675449558cbc70b114cab2adc97",
      "v": 28,
      "creates": null,
      "raw": "0xf86e8202d2850de5b98d9e8255f094d7cf02fadf1681e45227d6edb3649645b4936ebb8818736e7c6d5e0068801ca05d02de3d0c315b5fc578941fdecbde60d1d329fc42ef4bca24fe7a1077d5b8d0a061a7e48745211d5d4078543f1fa30c4969fc5675449558cbc70b114cab2adc97",
      "networkId": 0,
      "chainId": 0
    },
    {
      "hash": "0x6904f6a5831360496e21f0043cac73069a5d769bd5a4a53cae9876b8a748cd97",
      "blockHash": "0xb30775a2dd54cf49c70c5578ddebdc3ce2e20d499281042f1aff1065fe4684a6",
      "blockNumber": 74240,
      "transactionIndex": 4,
      "confirmations": null,
      "from": "0xe6A7a1d47ff21B6321162AEA7C6CB457D5476Bca",
      "gasPrice": {
        "_hex": "0xde5b98d9e"
      },
      "gasLimit": {
        "_hex": "0x55f0"
      },
      "to": "0xA5a5181868a8Df772f87DC95aB9B366e974Da936",
      "value": {
        "_hex": "0x18d7162ca524142c"
      },
      "nonce": 723,
      "data": "0x",
      "r": "0xadbbaa7e58e54966e5e6d4a083ce5e1f99d05650c182e1007aa1182e32778d5a",
      "s": "0x2bb6cc3974396cf517993a2b1b9805eee176c91192357d912eb5078490003b78",
      "v": 27,
      "creates": null,
      "raw": "0xf86e8202d3850de5b98d9e8255f094a5a5181868a8df772f87dc95ab9b366e974da9368818d7162ca524142c801ba0adbbaa7e58e54966e5e6d4a083ce5e1f99d05650c182e1007aa1182e32778d5aa02bb6cc3974396cf517993a2b1b9805eee176c91192357d912eb5078490003b78",
      "networkId": 0,
      "chainId": 0
    },
    {
      "hash": "0x76579f25f7d8824d1a5cda4e283ae97b632bad3373e9e534f9e92442258aa37a",
      "blockHash": "0xb30775a2dd54cf49c70c5578ddebdc3ce2e20d499281042f1aff1065fe4684a6",
      "blockNumber": 74240,
      "transactionIndex": 5,
      "confirmations": null,
      "from": "0xe6A7a1d47ff21B6321162AEA7C6CB457D5476Bca",
      "gasPrice": {
        "_hex": "0xde5b98d9e"
      },
      "gasLimit": {
        "_hex": "0x55f0"
      },
      "to": "0x60c84CBDBAc16e3cd806520Ab204029D7aab5588",
      "value": {
        "_hex": "0x18ea3916435c69e0"
      },
      "nonce": 724,
      "data": "0x",
      "r": "0xe23875737d5217e2d19883c6cc147fb8d912b85953e542cf5586602b6e628beb",
      "s": "0x215deeb917a7ae35904b826c9e0ba015b06b9f8197bf3582913f01dae35ea167",
      "v": 28,
      "creates": null,
      "raw": "0xf86e8202d4850de5b98d9e8255f09460c84cbdbac16e3cd806520ab204029d7aab55888818ea3916435c69e0801ca0e23875737d5217e2d19883c6cc147fb8d912b85953e542cf5586602b6e628beba0215deeb917a7ae35904b826c9e0ba015b06b9f8197bf3582913f01dae35ea167",
      "networkId": 0,
      "chainId": 0
    },
    {
      "hash": "0x1b522c3edb8bcdced0c95c807d43270e973f614ac5db16d610a94b2801d5dd36",
      "blockHash": "0xb30775a2dd54cf49c70c5578ddebdc3ce2e20d499281042f1aff1065fe4684a6",
      "blockNumber": 74240,
      "transactionIndex": 6,
      "confirmations": null,
      "from": "0xe6A7a1d47ff21B6321162AEA7C6CB457D5476Bca",
      "gasPrice": {
        "_hex": "0xde5b98d9e"
      },
      "gasLimit": {
        "_hex": "0x55f0"
      },
      "to": "0xd223eD5b348a82910987CbBc7875a7AE62E1Ba53",
      "value": {
        "_hex": "0x19681c6c5be96b2c"
      },
      "nonce": 725,
      "data": "0x",
      "r": "0x875b3cddce8f294529388a11df9dfa3a5e47815e06870f8aa61b32a82bc458e8",
      "s": "0x0d718ed5b4a1ec1b307351f7505f3245e2f643ea978250469c8d73e4b4c4f51a",
      "v": 27,
      "creates": null,
      "raw": "0xf86e8202d5850de5b98d9e8255f094d223ed5b348a82910987cbbc7875a7ae62e1ba538819681c6c5be96b2c801ba0875b3cddce8f294529388a11df9dfa3a5e47815e06870f8aa61b32a82bc458e8a00d718ed5b4a1ec1b307351f7505f3245e2f643ea978250469c8d73e4b4c4f51a",
      "networkId": 0,
      "chainId": 0
    },
    {
      "hash": "0x0d0f30f05db88711939686fd6ad5438fd334db8c6e7ed3153937fdc92e4a1b37",
      "blockHash": "0xb30775a2dd54cf49c70c5578ddebdc3ce2e20d499281042f1aff1065fe4684a6",
      "blockNumber": 74240,
      "transactionIndex": 7,
      "confirmations": null,
      "from": "0xe6A7a1d47ff21B6321162AEA7C6CB457D5476Bca",
      "gasPrice": {
        "_hex": "0xde5b98d9e"
      },
      "gasLimit": {
        "_hex": "0x55f0"
      },
      "to": "0x47ff6576639c2e94762eA5443978D7681C0E78DC",
      "value": {
        "_hex": "0x1994d636e1875e28"
      },
      "nonce": 726,
      "data": "0x",
      "r": "0x495a6a5882dc21a543a014988a891d0a8fdef0a713a97f0a05570c5d41979fdc",
      "s": "0x6e05a2dfe51d0ff7a5076e2052bfe68658e04034a2323d0c108b84e2f67935d2",
      "v": 27,
      "creates": null,
      "raw": "0xf86e8202d6850de5b98d9e8255f09447ff6576639c2e94762ea5443978d7681c0e78dc881994d636e1875e28801ba0495a6a5882dc21a543a014988a891d0a8fdef0a713a97f0a05570c5d41979fdca06e05a2dfe51d0ff7a5076e2052bfe68658e04034a2323d0c108b84e2f67935d2",
      "networkId": 0,
      "chainId": 0
    },
    {
      "hash": "0x7378f759a753294fac8f1ab216d71f0a9ef9de168a5b4eff377ecf0736016e19",
      "blockHash": "0xb30775a2dd54cf49c70c5578ddebdc3ce2e20d499281042f1aff1065fe4684a6",
      "blockNumber": 74240,
      "transactionIndex": 8,
      "confirmations": null,
      "from": "0xe6A7a1d47ff21B6321162AEA7C6CB457D5476Bca",
      "gasPrice": {
        "_hex": "0xde5b98d9e"
      },
      "gasLimit": {
        "_hex": "0x55f0"
      },
      "to": "0x57C413ECd1d83c2C65B14ABE1FB48D4Fc3136844",
      "value": {
        "_hex": "0x19b2e4298a319728"
      },
      "nonce": 727,
      "data": "0x",
      "r": "0xabc3b25f3016d01bbb164c177369b947adfea56eca74cfbe24de42649e9f38c5",
      "s": "0x561d2c2ccf8af880d7917d4f0d4c0d0167aea5e6a8a8b2512f0f6268a19217dd",
      "v": 28,
      "creates": null,
      "raw": "0xf86e8202d7850de5b98d9e8255f09457c413ecd1d83c2c65b14abe1fb48d4fc31368448819b2e4298a319728801ca0abc3b25f3016d01bbb164c177369b947adfea56eca74cfbe24de42649e9f38c5a0561d2c2ccf8af880d7917d4f0d4c0d0167aea5e6a8a8b2512f0f6268a19217dd",
      "networkId": 0,
      "chainId": 0
    },
    {
      "hash": "0x7fdc8b851ec48488aed7aa4f03db410aee4e9b375471b91876662608be2ef215",
      "blockHash": "0xb30775a2dd54cf49c70c5578ddebdc3ce2e20d499281042f1aff1065fe4684a6",
      "blockNumber": 74240,
      "transactionIndex": 9,
      "confirmations": null,
      "from": "0xe6A7a1d47ff21B6321162AEA7C6CB457D5476Bca",
      "gasPrice": {
        "_hex": "0xde5b98d9e"
      },
      "gasLimit": {
        "_hex": "0x55f0"
      },
      "to": "0xE25E3A1947405a1F82dD8e3048a9cA471dc782E1",
      "value": {
        "_hex": "0x1a700f967321bd28"
      },
      "nonce": 728,
      "data": "0x",
      "r": "0xff090f23c4b9863ae0c739963a3b69fc25f11bc752e2e0c4392e39265db43670",
      "s": "0x58af7d70fc0ef014b8842ef97b6acd1690caaa9c23541079156e67946fffcb11",
      "v": 27,
      "creates": null,
      "raw": "0xf86e8202d8850de5b98d9e8255f094e25e3a1947405a1f82dd8e3048a9ca471dc782e1881a700f967321bd28801ba0ff090f23c4b9863ae0c739963a3b69fc25f11bc752e2e0c4392e39265db43670a058af7d70fc0ef014b8842ef97b6acd1690caaa9c23541079156e67946fffcb11",
      "networkId": 0,
      "chainId": 0
    },
    {
      "hash": "0xc2d6e94cf490952ca6e30f93ac16c3f07234cc1c28f3934b4d6589b60ae58ca3",
      "blockHash": "0xb30775a2dd54cf49c70c5578ddebdc3ce2e20d499281042f1aff1065fe4684a6",
      "blockNumber": 74240,
      "transactionIndex": 10,
      "confirmations": null,
      "from": "0xe6A7a1d47ff21B6321162AEA7C6CB457D5476Bca",
      "gasPrice": {
        "_hex": "0xde5b98d9e"
      },
      "gasLimit": {
        "_hex": "0x55f0"
      },
      "to": "0xe1d9d0792E4175fbd6FA9Ab344AE5b1F9B0D78B2",
      "value": {
        "_hex": "0x1a82a24641526568"
      },
      "nonce": 729,
      "data": "0x",
      "r": "0x6d360a8913e1d961e440e51901df77599cb377e14b808fa1fa754f7510cc1bc8",
      "s": "0x562959039297e93762f6d49dab43190273c32d8b7d3b27a034667bd59319aaf9",
      "v": 28,
      "creates": null,
      "raw": "0xf86e8202d9850de5b98d9e8255f094e1d9d0792e4175fbd6fa9ab344ae5b1f9b0d78b2881a82a24641526568801ca06d360a8913e1d961e440e51901df77599cb377e14b808fa1fa754f7510cc1bc8a0562959039297e93762f6d49dab43190273c32d8b7d3b27a034667bd59319aaf9",
      "networkId": 0,
      "chainId": 0
    },
    {
      "hash": "0x831e0f358f421631f51af3545a563c243b37bb5d6672d749a2bfa8232005344a",
      "blockHash": "0xb30775a2dd54cf49c70c5578ddebdc3ce2e20d499281042f1aff1065fe4684a6",
      "blockNumber": 74240,
      "transactionIndex": 11,
      "confirmations": null,
      "from": "0xe6A7a1d47ff21B6321162AEA7C6CB457D5476Bca",
      "gasPrice": {
        "_hex": "0xde5b98d9e"
      },
      "gasLimit": {
        "_hex": "0x55f0"
      },
      "to": "0xb1eeAd479B0De423c2E956CA277BE7C70a612293",
      "value": {
        "_hex": "0x1a890d03830b48c0"
      },
      "nonce": 730,
      "data": "0x",
      "r": "0xed70968fa8e196e95c45e610e8934fd62537b15b045b7e89e6137e1b4564fc38",
      "s": "0x5fc033c108b075458b73deab42a229dff2b8b702c87cf27bf97b6a30bd433c2a",
      "v": 28,
      "creates": null,
      "raw": "0xf86e8202da850de5b98d9e8255f094b1eead479b0de423c2e956ca277be7c70a612293881a890d03830b48c0801ca0ed70968fa8e196e95c45e610e8934fd62537b15b045b7e89e6137e1b4564fc38a05fc033c108b075458b73deab42a229dff2b8b702c87cf27bf97b6a30bd433c2a",
      "networkId": 0,
      "chainId": 0
    }
  ]
}