{
  "hash": "0x46d8dc0d8a65ab1386dab02b2a7d7bf558139e7d790d7999b825ed76f20943c0",
  "parentHash": "0x52c0fedee1719851ffcf133d7ed0b0924b7a8d7ab25254f920e016ee657e197a",
  "number": 51198,
  "timestamp": 1439000958,
  "nonce": "0x385e2ada71d6d44a",
  "difficulty": 1565859279270,
  "gasLimit": {
    "_hex": "0x99568"
  },
  "gasUsed": {
    "_hex": "0x546c"
  },
  "miner": "0x863b7d048A0B7bfc239AF19F6A736E0995fB1C73",
  "extraData": "0x476574682f76312e302e312f6c696e75782f676f312e342e32",
  "transactions": [
    {
      "hash": "0xc9c98ed82079c5871a41753131cae607870fe586f47426d474e498aaf5437024",
      "blockHash": "0x46d8dc0d8a65ab1386dab02b2a7d7bf558139e7d790d7999b825ed76f20943c0",
      "blockNumber": 51198,
      "transactionIndex": 0,
      "confirmations": null,
      "from": "0xAE239ACffD4EbE2E1BA5b4170572DC79CC6533Ec",
      "gasPrice": {
        "_hex": "0x110c8f7d8de"
      },
      "gasLimit": {
        "_hex": "0xc350"
      },
      "to": "0x2910543Af39abA0Cd09dBb2D50200b3E800A63D2",
      "value": {
        "_hex": "0x28a77936e92c81c0000"
      },
      "nonce": 0,
      "data": "0x454e4a31304a474538",
      "r": "0xa22198ada1de54303d626a0f9f7114a4c5f03a19691d3e24e2d92ad6ec2dfc32",
      "s": "0x6893a66fed8049340961b19030ab07876a2efdf5523c0fbf9b10c5a624de9b2e",
      "v": 27,
      "creates": null,
      "raw": "0xf87880860110c8f7d8de82c350942910543af39aba0cd09dbb2d50200b3e800a63d28a028a77936e92c81c000089454e4a31304a4745381ba0a22198ada1de54303d626a0f9f7114a4c5f03a19691d3e24e2d92ad6ec2dfc32a06893a66fed8049340961b19030ab07876a2efdf5523c0fbf9b10c5a624de9b2e",
      "networkId": 0,
      "chainId": 0
    }
  ]
}