{
  "hash": "0x75e3ae6680ff77a7a8377db52be6e27e3f773f59250dec5267790d6e93b813cc",
  "parentHash": "0x1f7e75c56514353ad41192e1ca1fa6cd3ca2bbc24019889e9bda102a2b75f7b6",
  "number": 106185,
  "timestamp": 1439900087,
  "nonce": "0x9666b7ed36b5e7f6",
  "difficulty": 4468512754983,
  "gasLimit": {
    "_hex": "0x2fefd8"
  },
  "gasUsed": {
    "_hex": "0xa410"
  },
  "miner": "0xe6A7a1d47ff21B6321162AEA7C6CB457D5476Bca",
  "extraData": "0x476574682f76312e302e312d38326566323666362f6c696e75782f676f312e34",
  "transactions": [
    {
      "hash": "0xf5d0e38c1f5ebfbb3f4e3183d169567ebb03cd36ad049676affabcb1ef922e16",
      "blockHash": "0x75e3ae6680ff77a7a8377db52be6e27e3f773f59250dec5267790d6e93b813cc",
      "blockNumber": 106185,
      "transactionIndex": 0,
      "confirmations": null,
      "from": "0x0D4EcC7d750180EBf4A9Df728B6669B5Bceb5E40",
      "gasPrice": {
        "_hex": "0xd447cfe09"
      },
      "gasLimit": {
        "_hex": "0x5208"
      },
      "to": "0x32Be343B94f860124dC4fEe278FDCBD38C102D88",
      "value": {
        "_hex": "0x455f5ba15c3e7800"
      },
      "nonce": 80,
      "data": "0x",
      "r": "0x0035bf02febba9aef79be1567012606b84d54310f86d8c5a31f289e4552cf7a9",
      "s": "0x4e14e5c244b8a32542e71a1c409876c4abba55b2556a862f4d68a7176e4b2db8",
      "v": 27,
      "creates": null,
      "raw": "0xf86b50850d447cfe098252089432be343b94f860124dc4fee278fdcbd38c102d8888455f5ba15c3e7800801b9f35bf02febba9aef79be1567012606b84d54310f86d8c5a31f289e4552cf7a9a04e14e5c244b8a32542e71a1c409876c4abba55b2556a862f4d68a7176e4b2db8",
      "networkId": 0,
      "chainId": 0
    },
    {
      "hash": "0xd06dd97c5e5438de05e140792678fdd059f999f922a84df8e59f203547067b97",
      "blockHash": "0x75e3ae6680ff77a7a8377db52be6e27e3f773f59250dec5267790d6e93b813cc",
      "blockNumber": 106185,
      "transactionIndex": 1,
      "confirmations": null,
      "from": "0x2878c60b86FBf89645547fEcFA7f74B067f32E52",
      "gasPrice": {
        "_hex": "0xd447cfe09"
      },
      "gasLimit": {
        "_hex": "0x5208"
      },
      "to": "0x32Be343B94f860124dC4fEe278FDCBD38C102D88",
      "value": {
        "_hex": "0x43c23161175e3c00000"
      },
      "nonce": 5,
      "data": "0x",
      "r": "0xb8f56dcfbd3c5ac36294f96d1f0c1b877555e723f1c786901477638d126ea68d",
      "s": "0x197bff09cb5593671657477d6f873182d2525898d8db38e5412c0f9b5cb51231",
      "v": 28,
      "creates": null,
      "raw": "0xf86e05850d447cfe098252089432be343b94f860124dc4fee278fdcbd38c102d888a043c23161175e3c00000801ca0b8f56dcfbd3c5ac36294f96d1f0c1b877555e723f1c786901477638d126ea68da0197bff09cb5593671657477d6f873182d2525898d8db38e5412c0f9b5cb51231",
      "networkId": 0,
      "chainId": 0
    }
  ]
}