{
  "hash": "0xd32610756f05f0a6479295f491737b7a7458eae0502176173e2cab1bd7e1d143",
  "parentHash": "0xe64d7f9a3fcc111caf606992c6ed44b2216d97f429ce261f17e8323d9cb5c622",
  "number": 101324,
  "timestamp": 1439821168,
  "nonce": "0x5ca3a6a9ae4db20f",
  "difficulty": 3811287777143,
  "gasLimit": {
    "_hex": "0x2fefd8"
  },
  "gasUsed": {
    "_hex": "0x5208"
  },
  "miner": "0x580992B51e3925e23280EfB93d3047C82f17E038",
  "extraData": "0x476574682f76312e302e312f6c696e75782f676f312e342e32",
  "transactions": [
    {
      "hash": "0x903d4bf53d36be8ab672a22eb22e5094583e29380d2b625b31e3d754e732b077",
      "blockHash": "0xd32610756f05f0a6479295f491737b7a7458eae0502176173e2cab1bd7e1d143",
      "blockNumber": 101324,
      "transactionIndex": 0,
      "confirmations": null,
      "from": "0x2910543Af39abA0Cd09dBb2D50200b3E800A63D2",
      "gasPrice": {
        "_hex": "0xdb7cd78d6"
      },
      "gasLimit": {
        "_hex": "0x5208"
      },
      "to": "0x60794423f500DD2F95327fA1ffE71E428D2C0636",
      "value": {
        "_hex": "0x1bc16d674ec80000"
      },
      "nonce": 965,
      "data": "0x",
      "r": "0x7794f0116c24f669ba3d0442d7d054b1dfdef2df7eb6422cba3d09e021de9feb",
      "s": "0x5157d4c55c20ba47e19f3428c5905d285ef459b206951e287b16adb625f49b9f",
      "v": 28,
      "creates": null,
      "raw": "0xf86e8203c5850db7cd78d68252089460794423f500dd2f95327fa1ffe71e428d2c0636881bc16d674ec80000801ca07794f0116c24f669ba3d0442d7d054b1dfdef2df7eb6422cba3d09e021de9feba05157d4c55c20ba47e19f3428c5905d285ef459b206951e287b16adb625f49b9f",
      "networkId": 0,
      "chainId": 0
    }
  ]
}