{
  "hash": "0x23e370ebb9750003ab9e654e840aa5d012ec059cecc8b3855cda6fc73bec637a",
  "parentHash": "0x7e2f614839bc6127234c2485b4d5bdba51e378c155dacd3885980f0acb0dc41e",
  "number": 90213,
  "timestamp": 1439636530,
  "nonce": "0x3189f91d7cd07b50",
  "difficulty": 3294712787430,
  "gasLimit": {
    "_hex": "0x2fefd8"
  },
  "gasUsed": {
    "_hex": "0xa410"
  },
  "miner": "0x8d7b4db3D7B3455f309B138fE3f813633e8577B4",
  "extraData": "0x476574682f76312e302e312f77696e646f77732f676f312e342e32",
  "transactions": [
    {
      "hash": "0xa3429f1b6f122996c813e18a84677a757aab5f19c040200314314e4ed4b50e44",
      "blockHash": "0x23e370ebb9750003ab9e654e840aa5d012ec059cecc8b3855cda6fc73bec637a",
      "blockNumber": 90213,
      "transactionIndex": 0,
      "confirmations": null,
      "from": "0x5175f107219871c88e0C4202F14A5f34088b54c8",
      "gasPrice": {
        "_hex": "0x746a528800"
      },
      "gasLimit": {
        "_hex": "0x5b04"
      },
      "to": "0x90fba3C13F19F8cf72A3Bb9EE63C8f728F548654",
      "value": {
        "_hex": "0x6f05b59d3b20000"
      },
      "nonce": 5,
      "data": "0x",
      "r": "0x46e92bf9b6ad7ea651bbe5f50b5a9dfbbbc9db940219bfa67f8355076e242e05",
      "s": "0x2f60185a1fedc3290476a73b275dfdee9eb7516013fdc38b0420f4d7247cfff7",
      "v": 27,
      "creates": null,
      "raw": "0xf86c0585746a528800825b049490fba3c13f19f8cf72a3bb9ee63c8f728f5486548806f05b59d3b20000801ba046e92bf9b6ad7ea651bbe5f50b5a9dfbbbc9db940219bfa67f8355076e242e05a02f60185a1fedc3290476a73b275dfdee9eb7516013fdc38b0420f4d7247cfff7",
      "networkId": 0,
      "chainId": 0
    },
    {
      "hash": "0x578593119daa05ee285b7bec7a87ec4e7a38281328aabde1be47686feb5473b4",
      "blockHash": "0x23e370ebb9750003ab9e654e840aa5d012ec059cecc8b3855cda6fc73bec637a",
      "blockNumber": 90213,
      "transactionIndex": 1,
      "confirmations": null,
      "from": "0x790b8a3cE86E707ED0eD32bF89B3269692a23CC1",
      "gasPrice": {
        "_hex": "0xd68775739"
      },
      "gasLimit": {
        "_hex": "0x15f90"
      },
      "to": "0x4D67f4F0Db45b3B5a3424B39ed8d972F710381D5",
      "value": {
        "_hex": "0xa844a7424d9c80000"
      },
      "nonce": 4,
      "data": "0x",
      "r": "0x645c418401862abf7c4b6a4d067cc64df65ea54c42361a25ed3367dd7bca8fda",
      "s": "0x045a72e04f5b87f4bee34fe1a9ffedd0ac6e2629fc3ea698372a11289cc97b09",
      "v": 28,
      "creates": null,
      "raw": "0xf86e04850d6877573983015f90944d67f4f0db45b3b5a3424b39ed8d972f710381d5890a844a7424d9c80000801ca0645c418401862abf7c4b6a4d067cc64df65ea54c42361a25ed3367dd7bca8fdaa0045a72e04f5b87f4bee34fe1a9ffedd0ac6e2629fc3ea698372a11289cc97b09",
      "networkId": 0,
      "chainId": 0
    }
  ]
}