{
  "hash": "0x94424d8297d4467d05238a80077710253aac6ef2a086e5e9db16eba607c78c9f",
  "parentHash": "0xe41ad53cabac8e720c8d3f003c393ddd7d6911407151153347af17ed902e372a",
  "number": 117874,
  "timestamp": 1440116802,
  "nonce": "0x0fbe1542c03e7e46",
  "difficulty": 4331340334100,
  "gasLimit": {
    "_hex": "0x2fefd8"
  },
  "gasUsed": {
    "_hex": "0x14820"
  },
  "miner": "0x52bc44d5378309EE2abF1539BF71dE1b7d7bE3b5",
  "extraData": "0xd783010002844765746887676f312e342e32856c696e7578",
  "transactions": [
    {
      "hash": "0xda449ff290a87f2c7fe93ee5fb1e3efb1b3a75ae83d0e099f2ab497b2af66751",
      "blockHash": "0x94424d8297d4467d05238a80077710253aac6ef2a086e5e9db16eba607c78c9f",
      "blockNumber": 117874,
      "transactionIndex": 0,
      "confirmations": null,
      "from": "0xCCe96724c29e042F35bCe1c2405feB0e8E30082b",
      "gasPrice": {
        "_hex": "0xba43b7400"
      },
      "gasLimit": {
        "_hex": "0x5208"
      },
      "to": "0x32Be343B94f860124dC4fEe278FDCBD38C102D88",
      "value": {
        "_hex": "0x6b0f552faf310c00"
      },
      "nonce": 10,
      "data": "0x",
      "r": "0xe6f711d984bc1a0adb61c3bcf67ef3b8a577738e705d3dc78d0f3271401e62b0",
      "s": "0x3f73ff736683196773595e1bb0234978f3406626d22e74950e513a8b3cceb522",
      "v": 28,
      "creates": null,
      "raw": "0xf86c0a850ba43b74008252089432be343b94f860124dc4fee278fdcbd38c102d88886b0f552faf310c00801ca0e6f711d984bc1a0adb61c3bcf67ef3b8a577738e705d3dc78d0f3271401e62b0a03f73ff736683196773595e1bb0234978f3406626d22e74950e513a8b3cceb522",
      "networkId": 0,
      "chainId": 0
    },
    {
      "hash": "0x070c3526e7ecf53d403d41246cd222e0d2e0ae8c873afe673de7190befe7888b",
      "blockHash": "0x94424d8297d4467d05238a80077710253aac6ef2a086e5e9db16eba607c78c9f",
      "blockNumber": 117874,
      "transactionIndex": 1,
      "confirmations": null,
      "from": "0x4369BF4867c99a39513Bb176d468A7e326F3a542",
      "gasPrice": {
        "_hex": "0xba43b7400"
      },
      "gasLimit": {
        "_hex": "0x5208"
      },
      "to": "0x32Be343B94f860124dC4fEe278FDCBD38C102D88",
      "value": {
        "_hex": "0x1c55108c19ff1000"
      },
      "nonce": 10,
      "data": "0x",
      "r": "0x520abff5ad4d71e601d64aedee855c1fae98336b3b7dfd41664e929a39484e89",
      "s": "0x2880765f369d9c6da64ee15905e2f6a997d79005ac6c5b87aaeaacc97c099856",
      "v": 27,
      "creates": null,
      "raw": "0xf86c0a850ba43b74008252089432be343b94f860124dc4fee278fdcbd38c102d88881c55108c19ff1000801ba0520abff5ad4d71e601d64aedee855c1fae98336b3b7dfd41664e929a39484e89a02880765f369d9c6da64ee15905e2f6a997d79005ac6c5b87aaeaacc97c099856",
      "networkId": 0,
      "chainId": 0
    },
    {
      "hash": "0x35fe3371933b512f6161bbce444a2efc0e7cfe534701e05df20233987a87d512",
      "blockHash": "0x94424d8297d4467d05238a80077710253aac6ef2a086e5e9db16eba607c78c9f",
      "blockNumber": 117874,
      "transactionIndex": 2,
      "confirmations": null,
      "from": "0x7550E0d09f273C690454B44F794D7D381B2E55EA",
      "gasPrice": {
        "_hex": "0xba43b7400"
      },
      "gasLimit": {
        "_hex": "0x5208"
      },
      "to": "0x32Be343B94f860124dC4fEe278FDCBD38C102D88",
      "value": {
        "_hex": "0x3da8fcc3bbc3fc00"
      },
      "nonce": 10,
      "data": "0x",
      "r": "0x733008f2cead60885c2cd53662cce0001ae7c2fa3cf4aa229936c0a24716e253",
      "s": "0x1d678b10d4debf75bae287aba70feeb0c02d2007b8ae29b6bad1a549e54a59d0",
      "v": 28,
      "creates": null,
      "raw": "0xf86c0a850ba43b74008252089432be343b94f860124dc4fee278fdcbd38c102d88883da8fcc3bbc3fc00801ca0733008f2cead60885c2cd53662cce0001ae7c2fa3cf4aa229936c0a24716e253a01d678b10d4debf75bae287aba70feeb0c02d2007b8ae29b6bad1a549e54a59d0",
      "networkId": 0,
      "chainId": 0
    },
    {
      "hash": "0xaad91bf40bb2808e0c93bc253085136334d09a1013aa4e0fd2135dd2068444c7",
      "blockHash": "0x94424d8297d4467d05238a80077710253aac6ef2a086e5e9db16eba607c78c9f",
      "blockNumber": 117874,
      "transactionIndex": 3,
      "confirmations": null,
      "from": "0x9DDd75762f6d7abA204Ce1A413E6a2230f238f76",
      "gasPrice": {
        "_hex": "0xba43b7400"
      },
      "gasLimit": {
        "_hex": "0x5208"
      },
      "to": "0x32Be343B94f860124dC4fEe278FDCBD38C102D88",
      "value": {
        "_hex": "0x129f0bcd3714ac00"
      },
      "nonce": 4,
      "data": "0x",
      "r": "0x01ced3da3466bfc68c1fb7f60f146c5093dc5e5080b09224ffb7a09cdf90ca5b",
      "s": "0x22ca54c1122091c7379ac4d9a1a9bf65072cb0709a75389623224375e7175ee9",
      "v": 28,
      "creates": null,
      "raw": "0xf86c04850ba43b74008252089432be343b94f860124dc4fee278fdcbd38c102d8888129f0bcd3714ac00801ca001ced3da3466bfc68c1fb7f60f146c5093dc5e5080b09224ffb7a09cdf90ca5ba022ca54c1122091c7379ac4d9a1a9bf65072cb0709a75389623224375e7175ee9",
      "networkId": 0,
      "chainId": 0
    }
  ]
}