{
  "hash": "0x923adf2293653dec8da762f033cdc2e786d9a03e9b25ca2a5526ec613f2e7f17",
  "parentHash": "0xa17834b4f09fb3b0171b7972297aa9b51b3169b877140e855df9c1bb1a45186b",
  "number": 105890,
  "timestamp": 1439895073,
  "nonce": "0xe34b083efe607f3c",
  "difficulty": 4457773368139,
  "gasLimit": {
    "_hex": "0x2fefd8"
  },
  "gasUsed": {
    "_hex": "0x5208"
  },
  "miner": "0xa70a9a7040d542C632D8e0bE7c5513A8a5Bbc752",
  "extraData": "0x",
  "transactions": [
    {
      "hash": "0xbe3e86d93f7ec758802f328b47d00a039d0da82755ad4dcecd48f821cbeb7c7a",
      "blockHash": "0x923adf2293653dec8da762f033cdc2e786d9a03e9b25ca2a5526ec613f2e7f17",
      "blockNumber": 105890,
      "transactionIndex": 0,
      "confirmations": null,
      "from": "0x32Be343B94f860124dC4fEe278FDCBD38C102D88",
      "gasPrice": {
        "_hex": "0xd12ce91c2"
      },
      "gasLimit": {
        "_hex": "0x5208"
      },
      "to": "0xC557b4a4380B69196d6CF08Bf42B8fC2d0AEf083",
      "value": {
        "_hex": "0x9e66cbca37f908000"
      },
      "nonce": 1177,
      "data": "0x",
      "r": "0x126535e0a7ab24ce463ebedf17977487941418415a390f854b1a113c16a97faf",
      "s": "0x31f50752ae52b00fd95c587d3567f51c5f1afca10306e23af786d6ef126e6d39",
      "v": 28,
      "creates": null,
      "raw": "0xf86f820499850d12ce91c282520894c557b4a4380b69196d6cf08bf42b8fc2d0aef0838909e66cbca37f908000801ca0126535e0a7ab24ce463ebedf17977487941418415a390f854b1a113c16a97fafa031f50752ae52b00fd95c587d3567f51c5f1afca10306e23af786d6ef126e6d39",
      "networkId": 0,
      "chainId": 0
    }
  ]
}