{
  "hash": "0xb6985539f2e4cf980b414fddce438b9ba196007785a858784161cc134c3fb16d",
  "parentHash": "0xad36adce6c8506d91af32d8b1378743c96ba54b61fad2805067bf1246043ed2f",
  "number": 64125,
  "timestamp": 1439215676,
  "nonce": "0x524d910ad4cba3bf",
  "difficulty": 1862997402715,
  "gasLimit": {
    "_hex": "0x2fefd5"
  },
  "gasUsed": {
    "_hex": "0x5208"
  },
  "miner": "0xEF247E639d49461D25F57e9362CadE3120910Ce0",
  "extraData": "0x476574682f76312e302e312f6c696e75782f676f312e342e32",
  "transactions": [
    {
      "hash": "0xa667380eab52337baebdbceb29f355b951781a214f1d3d94518a401201c0bba4",
      "blockHash": "0xb6985539f2e4cf980b414fddce438b9ba196007785a858784161cc134c3fb16d",
      "blockNumber": 64125,
      "transactionIndex": 0,
      "confirmations": null,
      "from": "0x5a09fCD65081Be9d1baFa0493697d85AeCBb22AE",
      "gasPrice": {
        "_hex": "0xba43b7400"
      },
      "gasLimit": {
        "_hex": "0x5267"
      },
      "to": "0xA5a5181868a8Df772f87DC95aB9B366e974Da936",
      "value": {
        "_hex": "0x2fb10e8f77000"
      },
      "nonce": 2,
      "data": "0x",
      "r": "0x919bf426dd96428287ff73fe3a35211fb4d96ef22a559335f39d4f6b852f73c9",
      "s": "0x4f57ca406ae7ebfe517874eb6fbcedd0a13090953bc1292f8b1ec9d50b6159e9",
      "v": 27,
      "creates": null,
      "raw": "0xf86b02850ba43b740082526794a5a5181868a8df772f87dc95ab9b366e974da9368702fb10e8f77000801ba0919bf426dd96428287ff73fe3a35211fb4d96ef22a559335f39d4f6b852f73c9a04f57ca406ae7ebfe517874eb6fbcedd0a13090953bc1292f8b1ec9d50b6159e9",
      "networkId": 0,
      "chainId": 0
    }
  ]
}