{
  "hash": "0xc674f2652138df110258cbf843c4ffcd04e8baa01111388f4e6d646ba8f428da",
  "parentHash": "0x31a297ec1f27c47b61edf7f6982b0e8c11df0886db55c39be355a74af0be4328",
  "number": 117848,
  "timestamp": 1440116270,
  "nonce": "0xf4f2bf77a102662a",
  "difficulty": 4344061879154,
  "gasLimit": {
    "_hex": "0x2fefd8"
  },
  "gasUsed": {
    "_hex": "0x5208"
  },
  "miner": "0x608f4b86321a68453f9adf6F06F7Fc3E621739ad",
  "extraData": "0xd783010002844765746887676f312e342e32856c696e7578",
  "transactions": [
    {
      "hash": "0x7300e5ec7ae2c8070b3aeaa66d55cf1fa4a469e83dbc1b509afb5ed3e5131759",
      "blockHash": "0xc674f2652138df110258cbf843c4ffcd04e8baa01111388f4e6d646ba8f428da",
      "blockNumber": 117848,
      "transactionIndex": 0,
      "confirmations": null,
      "from": "0x98077F47f89BEd877C8877Bf95753f6cE0CE4fcF",
      "gasPrice": {
        "_hex": "0xba43b7400"
      },
      "gasLimit": {
        "_hex": "0x5208"
      },
      "to": "0x32Be343B94f860124dC4fEe278FDCBD38C102D88",
      "value": {
        "_hex": "0xc736f8c223eb48000"
      },
      "nonce": 5,
      "data": "0x",
      "r": "0x6b30c5f7e777e79f8f1b732f2fb00383fa4410ef3b43e2265910ac9bca0c1bc6",
      "s": "0x7d077fd553776981c0d4e2a1d71573a4def94ec8181184131a1409046e8f43f8",
      "v": 27,
      "creates": null,
      "raw": "0xf86d05850ba43b74008252089432be343b94f860124dc4fee278fdcbd38c102d88890c736f8c223eb48000801ba06b30c5f7e777e79f8f1b732f2fb00383fa4410ef3b43e2265910ac9bca0c1bc6a07d077fd553776981c0d4e2a1d71573a4def94ec8181184131a1409046e8f43f8",
      "networkId": 0,
      "chainId": 0
    }
  ]
}