{
  "hash": "0x1691ac257ec802ba0357c94ba6dce69be1e3b758df7b4fe5eeb362882234165e",
  "parentHash": "0xc88fdab42ef955cad77fc0eb8e3ca92f8e77f6ed56fec49c982585d8639b7c80",
  "number": 108663,
  "timestamp": 1439944192,
  "nonce": "0x98692d65c06bd543",
  "difficulty": 4333982198528,
  "gasLimit": {
    "_hex": "0x2fefd8"
  },
  "gasUsed": {
    "_hex": "0x5208"
  },
  "miner": "0xbb7B8287f3F0a933474a79eAe42CBCa977791171",
  "extraData": "0xd783010001844765746887676f312e342e32856c696e7578",
  "transactions": [
    {
      "hash": "0x06808c11f479c9abe6ee66acc0c5a847140fb79b277dc046676db8948c4b3956",
      "blockHash": "0x1691ac257ec802ba0357c94ba6dce69be1e3b758df7b4fe5eeb362882234165e",
      "blockNumber": 108663,
      "transactionIndex": 0,
      "confirmations": null,
      "from": "0x32Be343B94f860124dC4fEe278FDCBD38C102D88",
      "gasPrice": {
        "_hex": "0xdfdec7e90"
      },
      "gasLimit": {
        "_hex": "0x5208"
      },
      "to": "0x8eB3FbB4A0Cc2366e88FB476df63D3Ad6907907b",
      "value": {
        "_hex": "0x940214db3a48d0000"
      },
      "nonce": 1256,
      "data": "0x",
      "r": "0x7114536b0065b9ef91d56cf01048556026965e8e0355d4030b5b3a2a9d3445c6",
      "s": "0x07b0b06150793106bb1bcf9f425a94809a474b71ec7d76e60f8478f6d715c00d",
      "v": 28,
      "creates": null,
      "raw": "0xf86f8204e8850dfdec7e90825208948eb3fbb4a0cc2366e88fb476df63d3ad6907907b890940214db3a48d0000801ca07114536b0065b9ef91d56cf01048556026965e8e0355d4030b5b3a2a9d3445c6a007b0b06150793106bb1bcf9f425a94809a474b71ec7d76e60f8478f6d715c00d",
      "networkId": 0,
      "chainId": 0
    }
  ]
}