{
  "hash": "0xdc500dc8d7dd47bd50e38cd799eab50cb1dddbcfbd6bbae9feac0cbe379a0e64",
  "parentHash": "0x9e92c401008d0c880b4a44e34c93eba3fd4243d014f273c56934a107ef0315aa",
  "number": 52119,
  "timestamp": 1439016463,
  "nonce": "0x77a97018b2978984",
  "difficulty": 1555780400526,
  "gasLimit": {
    "_hex": "0x105d40"
  },
  "gasUsed": {
    "_hex": "0x5208"
  },
  "miner": "0xf927a40C8B7F6E07c5af7FA2155B4864a4112B13",
  "extraData": "0x476574682f76312e302e312f6c696e75782f676f312e342e32",
  "transactions": [
    {
      "hash": "0xdba11feeb61319400caa2dbc36f790cd9683a06297993f28189a17bfba72003c",
      "blockHash": "0xdc500dc8d7dd47bd50e38cd799eab50cb1dddbcfbd6bbae9feac0cbe379a0e64",
      "blockNumber": 52119,
      "transactionIndex": 0,
      "confirmations": null,
      "from": "0xeb5f44D72343Df39680AaF77B2CeD6586e6918c2",
      "gasPrice": {
        "_hex": "0x9184e72a000"
      },
      "gasLimit": {
        "_hex": "0x346ab"
      },
      "to": "0x2AaE9Cd3e67BEfB4D0A4962dE7db0E924bB6610E",
      "value": {
        "_hex": "0x3782dace9d900000"
      },
      "nonce": 3,
      "data": "0x",
      "r": "0x5a7c20b54c489d8e79025e175a4ee0a9a369eee2f79ad80becae0bb19d7e12b8",
      "s": "0x493d6ac539bc6fae6bcb6cd5af6c19c14ef05bf542b27d4b448a963d55bc78ff",
      "v": 27,
      "creates": null,
      "raw": "0xf86e038609184e72a000830346ab942aae9cd3e67befb4d0a4962de7db0e924bb6610e883782dace9d900000801ba05a7c20b54c489d8e79025e175a4ee0a9a369eee2f79ad80becae0bb19d7e12b8a0493d6ac539bc6fae6bcb6cd5af6c19c14ef05bf542b27d4b448a963d55bc78ff",
      "networkId": 0,
      "chainId": 0
    }
  ]
}