{
  "hash": "0x26ed1212bd376791fac0fac456d11c0b17f1d52d63102a76d4f0e81ceefb8fb6",
  "parentHash": "0x61e3a1fb8c8a74cacb8095bdedf5997e6ac3442ae71138d2689cd9c3b5a1cf76",
  "number": 115413,
  "timestamp": 1440056795,
  "nonce": "0xb8dfd4055d6b012a",
  "difficulty": 4569451037764,
  "gasLimit": {
    "_hex": "0x2fefd8"
  },
  "gasUsed": {
    "_hex": "0xa410"
  },
  "miner": "0xbb7B8287f3F0a933474a79eAe42CBCa977791171",
  "extraData": "0xd783010001844765746887676f312e342e32856c696e7578",
  "transactions": [
    {
      "hash": "0xc2556adab0d24135e4198f4a89b9cc313287765cb6df4d0a72e05f42fff00cee",
      "blockHash": "0x26ed1212bd376791fac0fac456d11c0b17f1d52d63102a76d4f0e81ceefb8fb6",
      "blockNumber": 115413,
      "transactionIndex": 0,
      "confirmations": null,
      "from": "0x3B6C409e2ADC909C20B59DF21a7c48F44c259F24",
      "gasPrice": {
        "_hex": "0xcde19bf40"
      },
      "gasLimit": {
        "_hex": "0x5208"
      },
      "to": "0x32Be343B94f860124dC4fEe278FDCBD38C102D88",
      "value": {
        "_hex": "0x333c9b178da64000"
      },
      "nonce": 6,
      "data": "0x",
      "r": "0x2cd32c18e5d519894bde501ffe9e4fb54a2669594421cdbdee208289d2dfdd8e",
      "s": "0x59fe01127ec333e273df04d5d0d5707ae57e0bf2239082f8d1b06205426cb147",
      "v": 27,
      "creates": null,
      "raw": "0xf86c06850cde19bf408252089432be343b94f860124dc4fee278fdcbd38c102d8888333c9b178da64000801ba02cd32c18e5d519894bde501ffe9e4fb54a2669594421cdbdee208289d2dfdd8ea059fe01127ec333e273df04d5d0d5707ae57e0bf2239082f8d1b06205426cb147",
      "networkId": 0,
      "chainId": 0
    },
    {
      "hash": "0x57d57f45d5a2c73a9895b41bb7bb661ecfb391c1a1e8f3464bf2f349b6a3ea94",
      "blockHash": "0x26ed1212bd376791fac0fac456d11c0b17f1d52d63102a76d4f0e81ceefb8fb6",
      "blockNumber": 115413,
      "transactionIndex": 1,
      "confirmations": null,
      "from": "0xE21812b7c0Bd57f6922B6A5670BDAec864beEF6b",
      "gasPrice": {
        "_hex": "0xcde19bf40"
      },
      "gasLimit": {
        "_hex": "0x5208"
      },
      "to": "0x32Be343B94f860124dC4fEe278FDCBD38C102D88",
      "value": {
        "_hex": "0x39d64c076fac0800"
      },
      "nonce": 6,
      "data": "0x",
      "r": "0x52c4a7af076d930c845eb708eeac25c1f0652aa5562b4c89f297ea06b9a883be",
      "s": "0x4425eb69df1feb9f88c30f78cdf4ff9f0649ac72c5eb2e6bff89a1b13775a374",
      "v": 27,
      "creates": null,
      "raw": "0xf86c06850cde19bf408252089432be343b94f860124dc4fee278fdcbd38c102d888839d64c076fac0800801ba052c4a7af076d930c845eb708eeac25c1f0652aa5562b4c89f297ea06b9a883bea04425eb69df1feb9f88c30f78cdf4ff9f0649ac72c5eb2e6bff89a1b13775a374",
      "networkId": 0,
      "chainId": 0
    }
  ]
}