{
  "hash": "0xc36fd3e5cbfc20085a7e81c1f3b06515e84f930fa6ec8424ab6fe2166fa2caab",
  "parentHash": "0x913ac028932782ee8bd7b3a4f7c54ef99674161213e7c28e02a99f651993fcff",
  "number": 86572,
  "timestamp": 1439580010,
  "nonce": "0xfdca9e051edf1ed6",
  "difficulty": 2907416097893,
  "gasLimit": {
    "_hex": "0x2fefd8"
  },
  "gasUsed": {
    "_hex": "0x5208"
  },
  "miner": "0x9D49F602b0fdb924Bd63DDE2Bd0907E4A07c63a7",
  "extraData": "0x476574682f76312e302e312f6c696e75782f676f312e342e32",
  "transactions": [
    {
      "hash": "0x4d37f0b2fd21c4317dd53ab95a5e49c949f2e86089775b63dd8063d525769147",
      "blockHash": "0xc36fd3e5cbfc20085a7e81c1f3b06515e84f930fa6ec8424ab6fe2166fa2caab",
      "blockNumber": 86572,
      "transactionIndex": 0,
      "confirmations": null,
      "from": "0xAD6Ca8714649EF78661Bd275407FF50064C657a4",
      "gasPrice": {
        "_hex": "0xba43b7400"
      },
      "gasLimit": {
        "_hex": "0x5208"
      },
      "to": "0xC47Aaa860008be6f65B58c6C6E02a84e666EfE31",
      "value": {
        "_hex": "0x15aee1c932bc06000"
      },
      "nonce": 0,
      "data": "0x",
      "r": "0x173384fbd0ecbc5fd2f51228c4d6202ee9261184f60c2e49027790d083d6c44e",
      "s": "0x28a2d0d40142768b92e858ac0fbd422a279724cb4e77ecb03df914594626f298",
      "v": 27,
      "creates": null,
      "raw": "0xf86d80850ba43b740082520894c47aaa860008be6f65b58c6c6e02a84e666efe3189015aee1c932bc06000801ba0173384fbd0ecbc5fd2f51228c4d6202ee9261184f60c2e49027790d083d6c44ea028a2d0d40142768b92e858ac0fbd422a279724cb4e77ecb03df914594626f298",
      "networkId": 0,
      "chainId": 0
    }
  ]
}