{
  "hash": "0xcf1cb0be57a68ae5b207e23d390daf3f29fb0ec36952b4ac8f5dd9e406540546",
  "parentHash": "0x5402b12bc79468aac9db1ec20b03cb06872014d3e63967a9cbef4f5f0e43860d",
  "number": 71112,
  "timestamp": 1439330945,
  "nonce": "0x4cf9dd4e2493e252",
  "difficulty": 2147748748070,
  "gasLimit": {
    "_hex": "0x2fefd8"
  },
  "gasUsed": {
    "_hex": "0xc9c3"
  },
  "miner": "0xe6A7a1d47ff21B6321162AEA7C6CB457D5476Bca",
  "extraData": "0x476574682f76312e302e312d38326566323666362f6c696e75782f676f312e34",
  "transactions": [
    {
      "hash": "0x57b50589597291bdbf8cd1cba3a2979f86b716c6c27837e1a6dcc8063d686a55",
      "blockHash": "0xcf1cb0be57a68ae5b207e23d390daf3f29fb0ec36952b4ac8f5dd9e406540546",
      "blockNumber": 71112,
      "transactionIndex": 0,
      "confirmations": null,
      "from": "0xf661E21B71A9CA331E251e51a412857D2B61d8F8",
      "gasPrice": {
        "_hex": "0xd213d2f86"
      },
      "gasLimit": {
        "_hex": "0x7a120"
      },
      "to": "0xfBc128067A2FE13C11BBC6cc55f29AA1F27630DA",
      "value": {
        "_hex": "0xde0b6b3a7640000"
      },
      "nonce": 4,
      "data": "0x",
      "r": "0xfddfc75de6ff11cd8d2810ef509e2d89675fdb150a46369d7cb210f32df0a733",
      "s": "0x59417436a92e647ccd400550d5049ae9638fd5afda9b7fa3cefe1c278bfa2ca6",
      "v": 28,
      "creates": null,
      "raw": "0xf86d04850d213d2f868307a12094fbc128067a2fe13c11bbc6cc55f29aa1f27630da880de0b6b3a7640000801ca0fddfc75de6ff11cd8d2810ef509e2d89675fdb150a46369d7cb210f32df0a733a059417436a92e647ccd400550d5049ae9638fd5afda9b7fa3cefe1c278bfa2ca6",
      "networkId": 0,
      "chainId": 0
    }
  ]
}