{
  "hash": "0x4b519dad1bfc75bab667fc2633447d886fbac944fb26c9dd09b17a8267506246",
  "parentHash": "0x42b7fd261b2e161c7887bd7c1d1bc78d6dffd20183add5fc058e9656946f62cf",
  "number": 75199,
  "timestamp": 1439399322,
  "nonce": "0x6f18e064b3dbfa99",
  "difficulty": 2194393391691,
  "gasLimit": {
    "_hex": "0x2fefd8"
  },
  "gasUsed": {
    "_hex": "0x70d3"
  },
  "miner": "0x55D1554b08a5311C5c0A0B6464162192f9D2f884",
  "extraData": "0x",
  "transactions": [
    {
      "hash": "0x9a031386798e7577d55b930666b2546b59d01925282480469f61212ec7f60697",
      "blockHash": "0x4b519dad1bfc75bab667fc2633447d886fbac944fb26c9dd09b17a8267506246",
      "blockNumber": 75199,
      "transactionIndex": 0,
      "confirmations": null,
      "from": "0x326Be8F71bFb0379f989aAB1CC1fE37f0a771f60",
      "gasPrice": {
        "_hex": "0x10dcf9d70f7"
      },
      "gasLimit": {
        "_hex": "0x493e0"
      },
      "to": "0xD79B4C6791784184e2755B2fC1659eaaB0f80456",
      "value": {
        "_hex": "0x0"
      },
      "nonce": 85,
      "data": "0xbd66528a73302e3636343536303035333231383439303400000000000000000000000000",
      "r": "0x40387a3f0505db6a0b826a3e7dab33ed27f5018e740042e6c551d88e780736ce",
      "s": "0x375a443b070e519121d8107407f6b5fb243d2bfc92f905039cd4de681195ab9c",
      "v": 27,
      "creates": null,
      "raw": "0xf88a5586010dcf9d70f7830493e094d79b4c6791784184e2755b2fc1659eaab0f8045680a4bd66528a73302e36363435363030353332313834393034000000000000000000000000001ba040387a3f0505db6a0b826a3e7dab33ed27f5018e740042e6c551d88e780736cea0375a443b070e519121d8107407f6b5fb243d2bfc92f905039cd4de681195ab9c",
      "networkId": 0,
      "chainId": 0
    }
  ]
}