{
  "hash": "0xb34bc0946df747497d21233f0c5123551ca203405354ba8845501c02c73511ad",
  "parentHash": "0x76cff4671183ddfafcfca431e9fc742c0fdbce286d7ec3fb86208756d76f5c1b",
  "number": 111917,
  "timestamp": 1439998597,
  "nonce": "0xc1982f8f7c1decca",
  "difficulty": 4417748336588,
  "gasLimit": {
    "_hex": "0x2fefd8"
  },
  "gasUsed": {
    "_hex": "0x5208"
  },
  "miner": "0xD0ee3F53eE0fCf3F9fbCcdd17BD1b6441DdC2074",
  "extraData": "0x476574682f76312e302e312d38326566323666362f6c696e75782f676f312e34",
  "transactions": [
    {
      "hash": "0x505f30a9be3f80aff213404710457b05dade3a54473d95296bfa1f07c450a441",
      "blockHash": "0xb34bc0946df747497d21233f0c5123551ca203405354ba8845501c02c73511ad",
      "blockNumber": 111917,
      "transactionIndex": 0,
      "confirmations": null,
      "from": "0x8b4FAE80aC2491bb2FabF0364F6C705565dA5118",
      "gasPrice": {
        "_hex": "0xba43b7400"
      },
      "gasLimit": {
        "_hex": "0x5266"
      },
      "to": "0x512f996df7C0e8256e822bA00C580871DfE20E16",
      "value": {
        "_hex": "0x4563918244f40000"
      },
      "nonce": 0,
      "data": "0x",
      "r": "0xd381e2b2f04abc2c5ce1818cf9c108e33072ad943448b9dbf0a2a1e777f285bb",
      "s": "0x180678825f38001f4922a952161d6ea4eee112c048db3edb6a884a47d947a83e",
      "v": 28,
      "creates": null,
      "raw": "0xf86c80850ba43b740082526694512f996df7c0e8256e822ba00c580871dfe20e16884563918244f40000801ca0d381e2b2f04abc2c5ce1818cf9c108e33072ad943448b9dbf0a2a1e777f285bba0180678825f38001f4922a952161d6ea4eee112c048db3edb6a884a47d947a83e",
      "networkId": 0,
      "chainId": 0
    }
  ]
}