{
  "hash": "0x6e908d16c5b0ac6ed26956b0f81c9385fcb3cdfa27d00b2fcfc5b12186517e22",
  "parentHash": "0x7857e82b77c95daba5327b090c312d1d3002d1212c3bd67796e264f2e8cc8c6d",
  "number": 46526,
  "timestamp": 1438924555,
  "nonce": "0x4a944dc44129efca",
  "difficulty": 1466070106856,
  "gasLimit": {
    "_hex": "0x6679"
  },
  "gasUsed": {
    "_hex": "0x5208"
  },
  "miner": "0xf927a40C8B7F6E07c5af7FA2155B4864a4112B13",
  "extraData": "0x476574682f76312e302e312f6c696e75782f676f312e342e32",
  "transactions": [
    {
      "hash": "0x84fa473a81fa335b7618a3d6dc62a3a0bdda2ff514c98491372891064b7ef890",
      "blockHash": "0x6e908d16c5b0ac6ed26956b0f81c9385fcb3cdfa27d00b2fcfc5b12186517e22",
      "blockNumber": 46526,
      "transactionIndex": 0,
      "confirmations": null,
      "from": "0xBFdD9820a04283b289957956353b5F3C1F665EcF",
      "gasPrice": {
        "_hex": "0x746a528800"
      },
      "gasLimit": {
        "_hex": "0x5208"
      },
      "to": "0x32Be343B94f860124dC4fEe278FDCBD38C102D88",
      "value": {
        "_hex": "0x56ba2107ba0ebc000"
      },
      "nonce": 0,
      "data": "0x",
      "r": "0x4f7002d0f3a3bad729f1a00c59e71a6e1602d8a7d3992f16088879babb98c98e",
      "s": "0x7e4202fef108e0a073d0829a4deb9e992d7aa724bad249b68410df983070f78c",
      "v": 28,
      "creates": null,
      "raw": "0xf86d8085746a5288008252089432be343b94f860124dc4fee278fdcbd38c102d8889056ba2107ba0ebc000801ca04f7002d0f3a3bad729f1a00c59e71a6e1602d8a7d3992f16088879babb98c98ea07e4202fef108e0a073d0829a4deb9e992d7aa724bad249b68410df983070f78c",
      "networkId": 0,
      "chainId": 0
    }
  ]
}