{
  "hash": "0x384ea137be31adc589369619bf10f9c7275b227e3e550d9dcc68a4625256db1a",
  "parentHash": "0xfebc1866ef9fd5aa2f5c363674a5aa03f92c97bc9b4baee08d6e43fb2c64992f",
  "number": 108098,
  "timestamp": 1439934031,
  "nonce": "0xc785234d799e6d73",
  "difficulty": 4378945999408,
  "gasLimit": {
    "_hex": "0x2fefd8"
  },
  "gasUsed": {
    "_hex": "0x5208"
  },
  "miner": "0xC5624D986419AeBa6B6A7Ce5BAFd9883f75d8bc8",
  "extraData": "0x",
  "transactions": [
    {
      "hash": "0x8564a0de9bdb180ff9bb24a76a77f4fbddaec6cacc4c3f43b63ad4a93c66494a",
      "blockHash": "0x384ea137be31adc589369619bf10f9c7275b227e3e550d9dcc68a4625256db1a",
      "blockNumber": 108098,
      "transactionIndex": 0,
      "confirmations": null,
      "from": "0xA89c99169bc9Aa59D997bdE1B36fA621ace77C44",
      "gasPrice": {
        "_hex": "0xd829211eb"
      },
      "gasLimit": {
        "_hex": "0x15f90"
      },
      "to": "0x2547379D8E07e629D3726c8BeE29854981C8903C",
      "value": {
        "_hex": "0xde0b6b3a7640000"
      },
      "nonce": 0,
      "data": "0x",
      "r": "0x30cf1009dc0b89b6e3b86bdbb32fc66ceabb728007d9634766c46dcc41fc70d3",
      "s": "0x4f0c0bc634b3ef2b3ba8e3b2ad270ee5210aed4cb17d847e07ccfc2e76157a77",
      "v": 28,
      "creates": null,
      "raw": "0xf86d80850d829211eb83015f90942547379d8e07e629d3726c8bee29854981c8903c880de0b6b3a7640000801ca030cf1009dc0b89b6e3b86bdbb32fc66ceabb728007d9634766c46dcc41fc70d3a04f0c0bc634b3ef2b3ba8e3b2ad270ee5210aed4cb17d847e07ccfc2e76157a77",
      "networkId": 0,
      "chainId": 0
    }
  ]
}