{
  "hash": "0x7826df4da6c1a02451f7b6f5099936e054a8b8557f2674a0b437f8811d1befe5",
  "parentHash": "0xdffa22b2459235711b8254996bb327694bdda93aa30499060c7a0c74f665a85a",
  "number": 54461,
  "timestamp": 1439054631,
  "nonce": "0xf9d5be9e115d34e2",
  "difficulty": 1609426311189,
  "gasLimit": {
    "_hex": "0x2fefd8"
  },
  "gasUsed": {
    "_hex": "0x5208"
  },
  "miner": "0xf8E0CA3Ed80bd541b94BEdCf259e8CF2141A9523",
  "extraData": "0x476574682f76312e302e312f77696e646f77732f676f312e342e32",
  "transactions": [
    {
      "hash": "0x4a9b76a7c7c5d555ee2ac5537373e25953a508d9e2732c351d04b7b6dc002d72",
      "blockHash": "0x7826df4da6c1a02451f7b6f5099936e054a8b8557f2674a0b437f8811d1befe5",
      "blockNumber": 54461,
      "transactionIndex": 0,
      "confirmations": null,
      "from": "0x562f16d79AbfCec3943E34b20F05F97BdfcDa605",
      "gasPrice": {
        "_hex": "0xd9476a2e0"
      },
      "gasLimit": {
        "_hex": "0x15f90"
      },
      "to": "0x60780933D9a5A8e8E3ab20CB6382cd314f04065F",
      "value": {
        "_hex": "0xd36b5f58ea17700000"
      },
      "nonce": 1,
      "data": "0x",
      "r": "0x986aa535269fc552b0de6040580b6c7a2f008d145b6b5fb4adfe5e088616dd93",
      "s": "0x3a06f70473a20b0c53c1f2bab36faa85e8763c010822220104c984ef769bf52d",
      "v": 28,
      "creates": null,
      "raw": "0xf86e01850d9476a2e083015f909460780933d9a5a8e8e3ab20cb6382cd314f04065f89d36b5f58ea17700000801ca0986aa535269fc552b0de6040580b6c7a2f008d145b6b5fb4adfe5e088616dd93a03a06f70473a20b0c53c1f2bab36faa85e8763c010822220104c984ef769bf52d",
      "networkId": 0,
      "chainId": 0
    }
  ]
}