{
  "hash": "0xe5068d96dd34cef2f4cfe6d400d69b13f2b060bfd9d69e27a9e6ee765362d9db",
  "parentHash": "0xa27084a197f9497c87e14e924b228e1c244aa3cc657603159650b50781bc66d1",
  "number": 91534,
  "timestamp": 1439657261,
  "nonce": "0x3eb79b0d778a250f",
  "difficulty": 3481061611701,
  "gasLimit": {
    "_hex": "0x2fefd8"
  },
  "gasUsed": {
    "_hex": "0x5208"
  },
  "miner": "0xe6A7a1d47ff21B6321162AEA7C6CB457D5476Bca",
  "extraData": "0x476574682f76312e302e312d38326566323666362f6c696e75782f676f312e34",
  "transactions": [
    {
      "hash": "0x2e2187de8be91993be9e8b8ead171e0463443515ce7cd677fcc74e993d6bf36b",
      "blockHash": "0xe5068d96dd34cef2f4cfe6d400d69b13f2b060bfd9d69e27a9e6ee765362d9db",
      "blockNumber": 91534,
      "transactionIndex": 0,
      "confirmations": null,
      "from": "0xC6c676946C54B5e7c31A07a079166C488Bf06dd7",
      "gasPrice": {
        "_hex": "0xdfcbbbcfe"
      },
      "gasLimit": {
        "_hex": "0x5208"
      },
      "to": "0x32Be343B94f860124dC4fEe278FDCBD38C102D88",
      "value": {
        "_hex": "0x15eca1689e05000"
      },
      "nonce": 3,
      "data": "0x",
      "r": "0xbbd5ea14dda37a808e2315c4b12d4271858f22565f762ccc11ce5dec2ea87e67",
      "s": "0x0262a67facf6ec8ea76e4c0ed5f798d22333da793c394ab97a339119f6bc9b73",
      "v": 27,
      "creates": null,
      "raw": "0xf86c03850dfcbbbcfe8252089432be343b94f860124dc4fee278fdcbd38c102d8888015eca1689e05000801ba0bbd5ea14dda37a808e2315c4b12d4271858f22565f762ccc11ce5dec2ea87e67a00262a67facf6ec8ea76e4c0ed5f798d22333da793c394ab97a339119f6bc9b73",
      "networkId": 0,
      "chainId": 0
    }
  ]
}