{
  "hash": "0xea78c87da0cc9185c6d60f00f2a94f04d58d5c6dd8a8428bc7b0e85d8101107f",
  "parentHash": "0x2529dfd62c22dde7b2dfe10bcfc414778d180b8d36a8c80dee1bd43e55fac806",
  "number": 105779,
  "timestamp": 1439893243,
  "nonce": "0x655943319b329884",
  "difficulty": 4429625184597,
  "gasLimit": {
    "_hex": "0x2fefd8"
  },
  "gasUsed": {
    "_hex": "0x546c"
  },
  "miner": "0xe6A7a1d47ff21B6321162AEA7C6CB457D5476Bca",
  "extraData": "0x476574682f76312e302e312d38326566323666362f6c696e75782f676f312e34",
  "transactions": [
    {
      "hash": "0xed233401be5d198a6c7d379869407e523d719ca9d26f07ac22152e2bfa6337b7",
      "blockHash": "0xea78c87da0cc9185c6d60f00f2a94f04d58d5c6dd8a8428bc7b0e85d8101107f",
      "blockNumber": 105779,
      "transactionIndex": 0,
      "confirmations": null,
      "from": "0x271e8fC01E1C9E1621fD3d108e348450b2498541",
      "gasPrice": {
        "_hex": "0xda0f387d7"
      },
      "gasLimit": {
        "_hex": "0x55f0"
      },
      "to": "0x2910543Af39abA0Cd09dBb2D50200b3E800A63D2",
      "value": {
        "_hex": "0x40f724129acc20000"
      },
      "nonce": 15,
      "data": "0x454e30334b52455730",
      "r": "0x33b99927601701c798d2f0663bf7913e7a3591c4b007f2b3bbb7652e12c27af3",
      "s": "0x2e30a773cd0265c23001b7484392a6e6b2988fe4d01a8d5a40f9356cfaf11ace",
      "v": 27,
      "creates": null,
      "raw": "0xf8760f850da0f387d78255f0942910543af39aba0cd09dbb2d50200b3e800a63d289040f724129acc2000089454e30334b524557301ba033b99927601701c798d2f0663bf7913e7a3591c4b007f2b3bbb7652e12c27af3a02e30a773cd0265c23001b7484392a6e6b2988fe4d01a8d5a40f9356cfaf11ace",
      "networkId": 0,
      "chainId": 0
    }
  ]
}