{
  "hash": "0x7325d55206818af4bd4a0479496daa342ceb1ced7faf890b2ff6d8b9d41ad0ed",
  "parentHash": "0x257cd424ca430f5883833416ac402355c8345bedf1bc111892ad7baaa718b705",
  "number": 75888,
  "timestamp": 1439411195,
  "nonce": "0xc85ec0284103ecb4",
  "difficulty": 2227678994748,
  "gasLimit": {
    "_hex": "0x2fefd8"
  },
  "gasUsed": {
    "_hex": "0x5208"
  },
  "miner": "0x0193d941b50d91BE6567c7eE1C0Fe7AF498b4137",
  "extraData": "0x4a5ace9e4e",
  "transactions": [
    {
      "hash": "0x9f53825c9562a3fcd94aa3d98557f755dd9bc872a9e147d3a1073dd4871e3b67",
      "blockHash": "0x7325d55206818af4bd4a0479496daa342ceb1ced7faf890b2ff6d8b9d41ad0ed",
      "blockNumber": 75888,
      "transactionIndex": 0,
      "confirmations": null,
      "from": "0xa70a9a7040d542C632D8e0bE7c5513A8a5Bbc752",
      "gasPrice": {
        "_hex": "0xda6990106"
      },
      "gasLimit": {
        "_hex": "0x5208"
      },
      "to": "0x32Be343B94f860124dC4fEe278FDCBD38C102D88",
      "value": {
        "_hex": "0x455f31b886367800"
      },
      "nonce": 40,
      "data": "0x",
      "r": "0x0eadea23fef2846b9a79d2afff45e33f3215491d53693a74ceabb2035a4541ed",
      "s": "0x72fdd4d7c5d961364dcfb6d5a415e2c2ea5468e402409fe0b06e9b019bf583a4",
      "v": 27,
      "creates": null,
      "raw": "0xf86c28850da69901068252089432be343b94f860124dc4fee278fdcbd38c102d8888455f31b886367800801ba00eadea23fef2846b9a79d2afff45e33f3215491d53693a74ceabb2035a4541eda072fdd4d7c5d961364dcfb6d5a415e2c2ea5468e402409fe0b06e9b019bf583a4",
      "networkId": 0,
      "chainId": 0
    }
  ]
}