{
  "hash": "0x811ea53f40eb1bd6104ae0e15929bd7ab5bfd42b6bd441f74ac2a540dbb7fa25",
  "parentHash": "0xb7f9f31b9320a09826b7580b60e3f0abe435ba5dd56b89df133e879bca444f80",
  "number": 95772,
  "timestamp": 1439729414,
  "nonce": "0x41621451719fd9ee",
  "difficulty": 3624976216471,
  "gasLimit": {
    "_hex": "0x2fefd8"
  },
  "gasUsed": {
    "_hex": "0x5208"
  },
  "miner": "0xe6A7a1d47ff21B6321162AEA7C6CB457D5476Bca",
  "extraData": "0x476574682f76312e302e312d38326566323666362f6c696e75782f676f312e34",
  "transactions": [
    {
      "hash": "0x1e9eab19ee6249f35ef99c13ce352829535eccae2483c8de9b9b28b9812cf06a",
      "blockHash": "0x811ea53f40eb1bd6104ae0e15929bd7ab5bfd42b6bd441f74ac2a540dbb7fa25",
      "blockNumber": 95772,
      "transactionIndex": 0,
      "confirmations": null,
      "from": "0x1332996a46dcBBE02f9cF164Dfc153aB976a9766",
      "gasPrice": {
        "_hex": "0xba43b7400"
      },
      "gasLimit": {
        "_hex": "0x5208"
      },
      "to": "0xC47Aaa860008be6f65B58c6C6E02a84e666EfE31",
      "value": {
        "_hex": "0x453c4f97a82f38f0"
      },
      "nonce": 7,
      "data": "0x",
      "r": "0x18cdb57f7336a89c968773ab82dde4b27b50491ef62dae6e095e914750fefa77",
      "s": "0x7387b78b2aa98c1eeb8833de61f6ed2db10be6b5d7371120fa8f0f6ca3f304a6",
      "v": 28,
      "creates": null,
      "raw": "0xf86c07850ba43b740082520894c47aaa860008be6f65b58c6c6e02a84e666efe3188453c4f97a82f38f0801ca018cdb57f7336a89c968773ab82dde4b27b50491ef62dae6e095e914750fefa77a07387b78b2aa98c1eeb8833de61f6ed2db10be6b5d7371120fa8f0f6ca3f304a6",
      "networkId": 0,
      "chainId": 0
    }
  ]
}