{
  "hash": "0x70df2e211ced026a1b8c30ebf07df9a5a73b189985460d4f7dc81a7dbd27fc39",
  "parentHash": "0x6f724400afbf89aef00b40b01c142c97c259e03d46df72afaa5da55caf2116fb",
  "number": 70629,
  "timestamp": 1439323024,
  "nonce": "0x4d4134d17b435da3",
  "difficulty": 2140543585524,
  "gasLimit": {
    "_hex": "0x2fefd8"
  },
  "gasUsed": {
    "_hex": "0x5208"
  },
  "miner": "0xa50ec0D39fa913E62f1Bae7074E6F36caA71855b",
  "extraData": "0x",
  "transactions": [
    {
      "hash": "0xac74563b78da4b5c0b083921b0140b03f4ab4af3ccfa8967cb43c1284bf9343d",
      "blockHash": "0x70df2e211ced026a1b8c30ebf07df9a5a73b189985460d4f7dc81a7dbd27fc39",
      "blockNumber": 70629,
      "transactionIndex": 0,
      "confirmations": null,
      "from": "0x2910543Af39abA0Cd09dBb2D50200b3E800A63D2",
      "gasPrice": {
        "_hex": "0xcf0cc0882"
      },
      "gasLimit": {
        "_hex": "0x5208"
      },
      "to": "0xE2fc177C2954e8396eCC28e8F4E6A0BE18AbF02b",
      "value": {
        "_hex": "0x9d64d95bd1270c000"
      },
      "nonce": 247,
      "data": "0x",
      "r": "0x1dd57e68784ece341520e971ea7b035eaf7ce428e1ccdae418411750305be0fe",
      "s": "0x32b1de338c5a3f3a2217c4f8663bd666ba911791b173843b387f6e95e1920910",
      "v": 27,
      "creates": null,
      "raw": "0xf86e81f7850cf0cc088282520894e2fc177c2954e8396ecc28e8f4e6a0be18abf02b8909d64d95bd1270c000801ba01dd57e68784ece341520e971ea7b035eaf7ce428e1ccdae418411750305be0fea032b1de338c5a3f3a2217c4f8663bd666ba911791b173843b387f6e95e1920910",
      "networkId": 0,
      "chainId": 0
    }
  ]
}