{
  "hash": "0x33478132382757bcc22848ae96e8797e76e4fbb7bd7dd820288fad4eae8a8120",
  "parentHash": "0xad5580a6e6f362e5076bcef0ddc39cfda361b8bf63c943ea9ea636c60b0d92a5",
  "number": 46855,
  "timestamp": 1438930466,
  "nonce": "0x4115ca3a6b077002",
  "difficulty": 1455314436732,
  "gasLimit": {
    "_hex": "0x7fa2"
  },
  "gasUsed": {
    "_hex": "0x5208"
  },
  "miner": "0x785ffdDd5cE55c6DF963f345e68d3F2024E5Acb1",
  "extraData": "0x476574682f4d69676e6f7474652f76312e302e312f6c696e75782f676f312e34",
  "transactions": [
    {
      "hash": "0x0a457184f2d0bafaa2b060213a9af23080db596c2c478fcc1ebc923f38d4fdd8",
      "blockHash": "0x33478132382757bcc22848ae96e8797e76e4fbb7bd7dd820288fad4eae8a8120",
      "blockNumber": 46855,
      "transactionIndex": 0,
      "confirmations": null,
      "from": "0xe6A7a1d47ff21B6321162AEA7C6CB457D5476Bca",
      "gasPrice": {
        "_hex": "0xdb78c330f"
      },
      "gasLimit": {
        "_hex": "0x5208"
      },
      "to": "0x0A656Fa14f63cE9DE5d4E2e8c03c2f00918BC1e2",
      "value": {
        "_hex": "0x1152ebdc8d400998"
      },
      "nonce": 8,
      "data": "0x",
      "r": "0x781a617177462327b417dd56b1f72a2e3d22f8a6676a8a0daa8a03f388ce1594",
      "s": "0x3af0c1fcfe7b47d1bf7bea0e6e405ec61b165362db6b2c18baf56a8ecf9cb5b2",
      "v": 27,
      "creates": null,
      "raw": "0xf86c08850db78c330f825208940a656fa14f63ce9de5d4e2e8c03c2f00918bc1e2881152ebdc8d400998801ba0781a617177462327b417dd56b1f72a2e3d22f8a6676a8a0daa8a03f388ce1594a03af0c1fcfe7b47d1bf7bea0e6e405ec61b165362db6b2c18baf56a8ecf9cb5b2",
      "networkId": 0,
      "chainId": 0
    }
  ]
}