{
  "hash": "0x13a8ca7c8e3e860638f3f7ec8b1060ca77b7e3a7931ceda5d6ca4afae7f9fa54",
  "parentHash": "0x2f6f736fbd214f491649b994c98ab6948269b263ca32ee3c815d9bb21047b5f0",
  "number": 86179,
  "timestamp": 1439574792,
  "nonce": "0xd1400c2286681ac7",
  "difficulty": 2803000639899,
  "gasLimit": {
    "_hex": "0x2fefd8"
  },
  "gasUsed": {
    "_hex": "0xa410"
  },
  "miner": "0x01d9DA08cc6Fb97c0DE1B6F4C28910A0859Ed1A1",
  "extraData": "0x476574682f76312e302e312f6c696e75782f676f312e342e32",
  "transactions": [
    {
      "hash": "0xd457fdefbbe533ed3239e588b0ad188176ce8490abd871f7057578003ad6247f",
      "blockHash": "0x13a8ca7c8e3e860638f3f7ec8b1060ca77b7e3a7931ceda5d6ca4afae7f9fa54",
      "blockNumber": 86179,
      "transactionIndex": 0,
      "confirmations": null,
      "from": "0x2910543Af39abA0Cd09dBb2D50200b3E800A63D2",
      "gasPrice": {
        "_hex": "0xd80dd5b44"
      },
      "gasLimit": {
        "_hex": "0x5208"
      },
      "to": "0xA143616A882230de7571d01f1916F0A781d6480a",
      "value": {
        "_hex": "0x11c37937e08000"
      },
      "nonce": 649,
      "data": "0x",
      "r": "0x585a797c34ca0423619072a7dffd01310b38f4bc72b03bbcf1739ea487ef1cec",
      "s": "0x5da69727d472fb1c8b2674819381b1ca37efe8afcdf02d91d5310b36f53103d7",
      "v": 28,
      "creates": null,
      "raw": "0xf86d820289850d80dd5b4482520894a143616a882230de7571d01f1916f0a781d6480a8711c37937e08000801ca0585a797c34ca0423619072a7dffd01310b38f4bc72b03bbcf1739ea487ef1ceca05da69727d472fb1c8b2674819381b1ca37efe8afcdf02d91d5310b36f53103d7",
      "networkId": 0,
      "chainId": 0
    },
    {
      "hash": "0x6d6a8340e54645cb99ced0327b77c26be20a30ff117a1519a9e80bb73220094f",
      "blockHash": "0x13a8ca7c8e3e860638f3f7ec8b1060ca77b7e3a7931ceda5d6ca4afae7f9fa54",
      "blockNumber": 86179,
      "transactionIndex": 1,
      "confirmations": null,
      "from": "0x2910543Af39abA0Cd09dBb2D50200b3E800A63D2",
      "gasPrice": {
        "_hex": "0xd80dd5b44"
      },
      "gasLimit": {
        "_hex": "0x5208"
      },
      "to": "0xA143616A882230de7571d01f1916F0A781d6480a",
      "value": {
        "_hex": "0xd87e55590018000"
      },
      "nonce": 650,
      "data": "0x",
      "r": "0x7738e760873a2758bc3332d6db26941777edaaca967e8feb974374fbde5d9a28",
      "s": "0x7a1ec3310432543db1f021375013a486ac3b6ed05cf6341ea8e622c751aa7830",
      "v": 28,
      "creates": null,
      "raw": "0xf86e82028a850d80dd5b4482520894a143616a882230de7571d01f1916f0a781d6480a880d87e55590018000801ca07738e760873a2758bc3332d6db26941777edaaca967e8feb974374fbde5d9a28a07a1ec3310432543db1f021375013a486ac3b6ed05cf6341ea8e622c751aa7830",
      "networkId": 0,
      "chainId": 0
    }
  ]
}