{
  "hash": "0xd6ad2e367ef8e00db9d19ed4a4a7399b87ec2997d1a0b25d61f8511b8e86b706",
  "parentHash": "0x4b68fab02fe2ae9d1d27fa7ac87948e6af42ed10ffe850a18cd7fbb58bb7fc0f",
  "number": 95944,
  "timestamp": 1439732429,
  "nonce": "0xfc3a2f2e058d5c2e",
  "difficulty": 3614297601327,
  "gasLimit": {
    "_hex": "0x2fefd8"
  },
  "gasUsed": {
    "_hex": "0x5208"
  },
  "miner": "0xa50ec0D39fa913E62f1Bae7074E6F36caA71855b",
  "extraData": "0xd783010001844765746887676f312e342e32856c696e7578",
  "transactions": [
    {
      "hash": "0xb7ab7f5abf82cab930e05828ee919eae0208f0abf7d82c1da9c4a9f71292022a",
      "blockHash": "0xd6ad2e367ef8e00db9d19ed4a4a7399b87ec2997d1a0b25d61f8511b8e86b706",
      "blockNumber": 95944,
      "transactionIndex": 0,
      "confirmations": null,
      "from": "0xb1abce2918E21ddb93AA452731a12672A3d9F75a",
      "gasPrice": {
        "_hex": "0xdab219ac6"
      },
      "gasLimit": {
        "_hex": "0x5208"
      },
      "to": "0x32Be343B94f860124dC4fEe278FDCBD38C102D88",
      "value": {
        "_hex": "0x455f3043fec7f800"
      },
      "nonce": 44,
      "data": "0x",
      "r": "0xbaa8a49c9556f61ba60a8bbb2e10eb271a7fa88a93acb75f2ac38700a3e392da",
      "s": "0x5c03a355863762aeb90ab65ca3d7c109a70680af378e6ae3db047bd7fae0bf9e",
      "v": 27,
      "creates": null,
      "raw": "0xf86c2c850dab219ac68252089432be343b94f860124dc4fee278fdcbd38c102d8888455f3043fec7f800801ba0baa8a49c9556f61ba60a8bbb2e10eb271a7fa88a93acb75f2ac38700a3e392daa05c03a355863762aeb90ab65ca3d7c109a70680af378e6ae3db047bd7fae0bf9e",
      "networkId": 0,
      "chainId": 0
    }
  ]
}