{
  "hash": "0xa1f30f28b37811a3fd59ba29fdc710631b33530b147166d08d64a53a407d2b67",
  "parentHash": "0x3dd97c0f09cbce35c9c88fa61f325fb4e5727f573f2f6a125e0b4430f3b8453f",
  "number": 92952,
  "timestamp": 1439679819,
  "nonce": "0x6f2564de939e086d",
  "difficulty": 3658206356446,
  "gasLimit": {
    "_hex": "0x2fefd8"
  },
  "gasUsed": {
    "_hex": "0x5208"
  },
  "miner": "0x9D240fc84828526e0C5a46fdF84B94EF888F8d61",
  "extraData": "0xdd809b302e392e34312b2b316135302d524c696e75782f672b2b2f696e74",
  "transactions": [
    {
      "hash": "0x74a490e7bc6176b9a37cb54b676b40d557fed61426f52aad47cfabdd46bdf657",
      "blockHash": "0xa1f30f28b37811a3fd59ba29fdc710631b33530b147166d08d64a53a407d2b67",
      "blockNumber": 92952,
      "transactionIndex": 0,
      "confirmations": null,
      "from": "0x2910543Af39abA0Cd09dBb2D50200b3E800A63D2",
      "gasPrice": {
        "_hex": "0xcbc4b7728"
      },
      "gasLimit": {
        "_hex": "0x5208"
      },
      "to": "0x5FB181054Cdd53e106812529a8D545b2eC664E87",
      "value": {
        "_hex": "0xde0b6b3a7640000"
      },
      "nonce": 840,
      "data": "0x",
      "r": "0xcc97f8be69b1eb86c38ec7881e63653fbb3b615c2c8aa801ec85882dac933cc5",
      "s": "0x4d3af053a95df49ac4233e5e344dc498737a1ba2829900f71767ae1987e21402",
      "v": 27,
      "creates": null,
      "raw": "0xf86e820348850cbc4b7728825208945fb181054cdd53e106812529a8d545b2ec664e87880de0b6b3a7640000801ba0cc97f8be69b1eb86c38ec7881e63653fbb3b615c2c8aa801ec85882dac933cc5a04d3af053a95df49ac4233e5e344dc498737a1ba2829900f71767ae1987e21402",
      "networkId": 0,
      "chainId": 0
    }
  ]
}