{
  "hash": "0xec0fbb9d5884d532617062d919d1058f7609e8a255ae3ce6b7ce768487dee631",
  "parentHash": "0xff5c91cf62d90883bae08cc79bf11355225bf053aa9387644a49e04aeeaf132d",
  "number": 119524,
  "timestamp": 1440144387,
  "nonce": "0xa5d6d6fb24bfccf5",
  "difficulty": 4394390246037,
  "gasLimit": {
    "_hex": "0x2fefd8"
  },
  "gasUsed": {
    "_hex": "0x2409c"
  },
  "miner": "0x790b8a3cE86E707ED0eD32bF89B3269692a23CC1",
  "extraData": "0xd783010002844765746887676f312e342e32856c696e7578",
  "transactions": [
    {
      "hash": "0xf754c2e0492e88b8b253c87783defbaf16d302023781f9e15217eb5e992cabd7",
      "blockHash": "0xec0fbb9d5884d532617062d919d1058f7609e8a255ae3ce6b7ce768487dee631",
      "blockNumber": 119524,
      "transactionIndex": 0,
      "confirmations": null,
      "from": "0x7D8f437a7e9930D9116EdaF3102AD77995a0082f",
      "gasPrice": {
        "_hex": "0xba43b7400"
      },
      "gasLimit": {
        "_hex": "0x5208"
      },
      "to": "0x32Be343B94f860124dC4fEe278FDCBD38C102D88",
      "value": {
        "_hex": "0xc40de940a5cd8000"
      },
      "nonce": 0,
      "data": "0x",
      "r": "0x5a97dbec279a5e8dbb5f9e1e782677ad5992e9f34161cd9fe2a586c1b3e7558c",
      "s": "0x528d68cf116a1d12df1acbb931961f1aa1db5fc115c4c60c7d009ea3e5e33a5f",
      "v": 28,
      "creates": null,
      "raw": "0xf86c80850ba43b74008252089432be343b94f860124dc4fee278fdcbd38c102d8888c40de940a5cd8000801ca05a97dbec279a5e8dbb5f9e1e782677ad5992e9f34161cd9fe2a586c1b3e7558ca0528d68cf116a1d12df1acbb931961f1aa1db5fc115c4c60c7d009ea3e5e33a5f",
      "networkId": 0,
      "chainId": 0
    },
    {
      "hash": "0x67c709855c47b165a75b891c69616133b76768262b440fb32273aedeb9f73a45",
      "blockHash": "0xec0fbb9d5884d532617062d919d1058f7609e8a255ae3ce6b7ce768487dee631",
      "blockNumber": 119524,
      "transactionIndex": 1,
      "confirmations": null,
      "from": "0x608f4b86321a68453f9adf6F06F7Fc3E621739ad",
      "gasPrice": {
        "_hex": "0xba43b7400"
      },
      "gasLimit": {
        "_hex": "0x5208"
      },
      "to": "0x32Be343B94f860124dC4fEe278FDCBD38C102D88",
      "value": {
        "_hex": "0xa4c8be9d36bfe000"
      },
      "nonce": 35,
      "data": "0x",
      "r": "0xecaf9502c62570097aed405fcd2ce9fae39280ebc2215576f1ad15b53d86856d",
      "s": "0x55c7d5fdd86598e20ce797b0d5339a77dd03b126f26679279f5b21470fc80b91",
      "v": 27,
      "creates": null,
      "raw": "0xf86c23850ba43b74008252089432be343b94f860124dc4fee278fdcbd38c102d8888a4c8be9d36bfe000801ba0ecaf9502c62570097aed405fcd2ce9fae39280ebc2215576f1ad15b53d86856da055c7d5fdd86598e20ce797b0d5339a77dd03b126f26679279f5b21470fc80b91",
      "networkId": 0,
      "chainId": 0
    },
    {
      "hash": "0xe08f02469db851b20f2cb77d3e2c5d4935dce9c3d0a7d91258764fd43a67eba0",
      "blockHash": "0xec0fbb9d5884d532617062d919d1058f7609e8a255ae3ce6b7ce768487dee631",
      "blockNumber": 119524,
      "transactionIndex": 2,
      "confirmations": null,
      "from": "0xfe8635C30D5b0a49D09Fc9480d59e05d7450fd41",
      "gasPrice": {
        "_hex": "0xba43b7400"
      },
      "gasLimit": {
        "_hex": "0x5208"
      },
      "to": "0x32Be343B94f860124dC4fEe278FDCBD38C102D88",
      "value": {
        "_hex": "0x324e5a9bbbfa46000"
      },
      "nonce": 10,
      "data": "0x",
      "r": "0xe55baaedf1e33086148cd328bf3c089cca25f46947e44ed8e4e935647fc063ee",
      "s": "0x28f61d6292e3f2ff39e152d2c11a1a39847b19866eae8a31e5ac67f05d388108",
      "v": 28,
      "creates": null,
      "raw": "0xf86d0a850ba43b74008252089432be343b94f860124dc4fee278fdcbd38c102d88890324e5a9bbbfa46000801ca0e55baaedf1e33086148cd328bf3c089cca25f46947e44ed8e4e935647fc063eea028f61d6292e3f2ff39e152d2c11a1a39847b19866eae8a31e5ac67f05d388108",
      "networkId": 0,
      "chainId": 0
    },
    {
      "hash": "0x1dbb6d76b9a928b590693a120c18bb8357267a9a3ce7a4245883cf839569032e",
      "blockHash": "0xec0fbb9d5884d532617062d919d1058f7609e8a255ae3ce6b7ce768487dee631",
      "blockNumber": 119524,
      "transactionIndex": 3,
      "confirmations": null,
      "from": "0xdbE8AfF79C6700AFE41999c573d2d15691Fb59ee",
      "gasPrice": {
        "_hex": "0xba43b7400"
      },
      "gasLimit": {
        "_hex": "0x15f90"
      },
      "to": "0x9252f10822221Afe05035227D96a9b5B2b50349B",
      "value": {
        "_hex": "0xde0b6b3a7640000"
      },
      "nonce": 3,
      "data": "0x454e433933464b3330",
      "r": "0xab16deaf4a9cb24c94c4a8d9984b9a6bc7e4865b98b6c0f4941134842bceda78",
      "s": "0x0d83eedf78f30fec09c39112900a0b74999eba936e8941a7f1f068e8dab47f94",
      "v": 28,
      "creates": null,
      "raw": "0xf87603850ba43b740083015f90949252f10822221afe05035227d96a9b5b2b50349b880de0b6b3a764000089454e433933464b33301ca0ab16deaf4a9cb24c94c4a8d9984b9a6bc7e4865b98b6c0f4941134842bceda78a00d83eedf78f30fec09c39112900a0b74999eba936e8941a7f1f068e8dab47f94",
      "networkId": 0,
      "chainId": 0
    },
    {
      "hash": "0x452bae482f45f5f18627d63630aea6f1de41a67377c43021a69015943112ffc8",
      "blockHash": "0xec0fbb9d5884d532617062d919d1058f7609e8a255ae3ce6b7ce768487dee631",
      "blockNumber": 119524,
      "transactionIndex": 4,
      "confirmations": null,
      "from": "0x6Db7eb9Cc3980b13aA65Bf2AbC1aacAd356322E3",
      "gasPrice": {
        "_hex": "0xba43b7400"
      },
      "gasLimit": {
        "_hex": "0x5208"
      },
      "to": "0x32Be343B94f860124dC4fEe278FDCBD38C102D88",
      "value": {
        "_hex": "0x392a40c1bb5c6400"
      },
      "nonce": 1,
      "data": "0x",
      "r": "0xdc6bc3ff32c50a9f6704613ac8ef77de4aa8f2e5a96fe456dd8f1695e747f309",
      "s": "0x787b838f049e3f77d3970ed8fb90befd6e79708d21e9dab4343e77819eb99254",
      "v": 28,
      "creates": null,
      "raw": "0xf86c01850ba43b74008252089432be343b94f860124dc4fee278fdcbd38c102d8888392a40c1bb5c6400801ca0dc6bc3ff32c50a9f6704613ac8ef77de4aa8f2e5a96fe456dd8f1695e747f309a0787b838f049e3f77d3970ed8fb90befd6e79708d21e9dab4343e77819eb99254",
      "networkId": 0,
      "chainId": 0
    },
    {
      "hash": "0x77f2314159a54d1dfe5fcb38c2f2c4f1023c5076e38e9c80e319826405fb0505",
      "blockHash": "0xec0fbb9d5884d532617062d919d1058f7609e8a255ae3ce6b7ce768487dee631",
      "blockNumber": 119524,
      "transactionIndex": 5,
      "confirmations": null,
      "from": "0x1e0Cf4971f42462823b122a9a0a2206902B51132",
      "gasPrice": {
        "_hex": "0xba43b7400"
      },
      "gasLimit": {
        "_hex": "0x5208"
      },
      "to": "0x32Be343B94f860124dC4fEe278FDCBD38C102D88",
      "value": {
        "_hex": "0xf1c8e5d00013800"
      },
      "nonce": 0,
      "data": "0x",
      "r": "0x733af13d47ac5d39bf6539623caab3154b8b9b6ff41ac087f6c2f10025cb6d22",
      "s": "0x39baba7bad89af14382f2c1feed3ff5cf2b595e2f91c78f174212e7ff07abcce",
      "v": 27,
      "creates": null,
      "raw": "0xf86c80850ba43b74008252089432be343b94f860124dc4fee278fdcbd38c102d88880f1c8e5d00013800801ba0733af13d47ac5d39bf6539623caab3154b8b9b6ff41ac087f6c2f10025cb6d22a039baba7bad89af14382f2c1feed3ff5cf2b595e2f91c78f174212e7ff07abcce",
      "networkId": 0,
      "chainId": 0
    },
    {
      "hash": "0x6270e9701008e12ee9202f727e795ea48fde447cbdde4ea5efac3762b481fcf7",
      "blockHash": "0xec0fbb9d5884d532617062d919d1058f7609e8a255ae3ce6b7ce768487dee631",
      "blockNumber": 119524,
      "transactionIndex": 6,
      "confirmations": null,
      "from": "0xb1abce2918E21ddb93AA452731a12672A3d9F75a",
      "gasPrice": {
        "_hex": "0xba43b7400"
      },
      "gasLimit": {
        "_hex": "0x5208"
      },
      "to": "0x32Be343B94f860124dC4fEe278FDCBD38C102D88",
      "value": {
        "_hex": "0x455fd68a17f06000"
      },
      "nonce": 196,
      "data": "0x",
      "r": "0x961ad91acc4a9a3c25fe41b84fdb5d5b38b7785a7e45633332ffe4d8cf828faf",
      "s": "0x3b258d463f489ac057d75a9f08caf9893147a0103397cabf3956cedbc1087843",
      "v": 28,
      "creates": null,
      "raw": "0xf86d81c4850ba43b74008252089432be343b94f860124dc4fee278fdcbd38c102d8888455fd68a17f06000801ca0961ad91acc4a9a3c25fe41b84fdb5d5b38b7785a7e45633332ffe4d8cf828fafa03b258d463f489ac057d75a9f08caf9893147a0103397cabf3956cedbc1087843",
      "networkId": 0,
      "chainId": 0
    }
  ]
}