{
  "hash": "0xc101bbb54f09b41533e11b73fff01e60acd0c1657028fd19a0148d01e0299224",
  "parentHash": "0x1ecc65daebfe2527393d2b3b46954f297a92c2407e2e7a77551e0306584a4708",
  "number": 49386,
  "timestamp": 1438972754,
  "nonce": "0xcaf6c1766657ccae",
  "difficulty": 1477064963782,
  "gasLimit": {
    "_hex": "0x2f56a"
  },
  "gasUsed": {
    "_hex": "0xf87c"
  },
  "miner": "0xeB1325C8D9d3ea8D74aC11F4B00F1B2367686319",
  "extraData": "0x476574682f76312e302e312f77696e646f77732f676f312e342e32",
  "transactions": [
    {
      "hash": "0x04c60308698264f4756829fb758db671c04598892fa2d1008df28f96e3cdd391",
      "blockHash": "0xc101bbb54f09b41533e11b73fff01e60acd0c1657028fd19a0148d01e0299224",
      "blockNumber": 49386,
      "transactionIndex": 0,
      "confirmations": null,
      "from": "0x38d2e9154964b41C8d50A7487D391E7eE2c3D3c2",
      "gasPrice": {
        "_hex": "0xdc5720e79"
      },
      "gasLimit": {
        "_hex": "0x15f90"
      },
      "to": "0x2910543Af39abA0Cd09dBb2D50200b3E800A63D2",
      "value": {
        "_hex": "0xbc7d11761081340000"
      },
      "nonce": 3,
      "data": "0x454e305133425a4847",
      "r": "0xc819d60bc9a591d4124256a8dc701dd3ba8a2febba67423c3ca7bef5f54fb53b",
      "s": "0x0fc65b6f4bf81198a67415b57898f2459c63908cc24997c1c815c50b219b640c",
      "v": 27,
      "creates": null,
      "raw": "0xf87703850dc5720e7983015f90942910543af39aba0cd09dbb2d50200b3e800a63d289bc7d1176108134000089454e305133425a48471ba0c819d60bc9a591d4124256a8dc701dd3ba8a2febba67423c3ca7bef5f54fb53ba00fc65b6f4bf81198a67415b57898f2459c63908cc24997c1c815c50b219b640c",
      "networkId": 0,
      "chainId": 0
    },
    {
      "hash": "0x86b5f268773dada815de847ee9193e7bd2c8018af342e428bd2b3ecacace1879",
      "blockHash": "0xc101bbb54f09b41533e11b73fff01e60acd0c1657028fd19a0148d01e0299224",
      "blockNumber": 49386,
      "transactionIndex": 1,
      "confirmations": null,
      "from": "0x481b251c3Cd86c298f9f601f8BF7021412e193c6",
      "gasPrice": {
        "_hex": "0xd984c1e72"
      },
      "gasLimit": {
        "_hex": "0x15f90"
      },
      "to": "0x1a79c7f4039C67A39d7513884cDC0E2C34222490",
      "value": {
        "_hex": "0x81bdedfa3a"
      },
      "nonce": 2,
      "data": "0x",
      "r": "0xa6a803913215bc1cf33fddf51855a5633f516d575a5aa144026b3c07b0708b3f",
      "s": "0x1dd3f8900b59174320c8ad1879853d087cf9d8699e5e897943d784ae6e9bf947",
      "v": 27,
      "creates": null,
      "raw": "0xf86a02850d984c1e7283015f90941a79c7f4039c67a39d7513884cdc0e2c342224908581bdedfa3a801ba0a6a803913215bc1cf33fddf51855a5633f516d575a5aa144026b3c07b0708b3fa01dd3f8900b59174320c8ad1879853d087cf9d8699e5e897943d784ae6e9bf947",
      "networkId": 0,
      "chainId": 0
    },
    {
      "hash": "0x8d14e8429c8b7d6bf993060fd9e0ebd2cc48623459d8404d2398a9b8375e4d13",
      "blockHash": "0xc101bbb54f09b41533e11b73fff01e60acd0c1657028fd19a0148d01e0299224",
      "blockNumber": 49386,
      "transactionIndex": 2,
      "confirmations": null,
      "from": "0xAae61E43CB0d0C96b30699F77E00D711d0a3979b",
      "gasPrice": {
        "_hex": "0xce834dff1"
      },
      "gasLimit": {
        "_hex": "0x15f90"
      },
      "to": "0xaed5c6263d084cFFc0a3fAD197702CecE3e9c3E3",
      "value": {
        "_hex": "0x56bc75e2d63100000"
      },
      "nonce": 4,
      "data": "0x",
      "r": "0x75d172233b209d8e0a2e2faa40552c55235b48952260c50f7ea8cbe3b28924a0",
      "s": "0x6252033775e435fb38701ce854a8eaac848ab3e82a7b7a865151d7605f665055",
      "v": 27,
      "creates": null,
      "raw": "0xf86e04850ce834dff183015f9094aed5c6263d084cffc0a3fad197702cece3e9c3e389056bc75e2d63100000801ba075d172233b209d8e0a2e2faa40552c55235b48952260c50f7ea8cbe3b28924a0a06252033775e435fb38701ce854a8eaac848ab3e82a7b7a865151d7605f665055",
      "networkId": 0,
      "chainId": 0
    }
  ]
}