{
  "hash": "0x4a88e449f99de39935fc1c72e675d8730d39fe77230c8d85acde5fe7eb9464df",
  "parentHash": "0xe23718d3e9d9497e58b6ca0edcd45254698b305f3954f98bea10b3e2ed9946bb",
  "number": 68541,
  "timestamp": 1439289796,
  "nonce": "0x21dfff815714a270",
  "difficulty": 2003513646664,
  "gasLimit": {
    "_hex": "0x2fefd8"
  },
  "gasUsed": {
    "_hex": "0x70717"
  },
  "miner": "0xe6A7a1d47ff21B6321162AEA7C6CB457D5476Bca",
  "extraData": "0x476574682f76312e302e312d38326566323666362f6c696e75782f676f312e34",
  "transactions": [
    {
      "hash": "0x57fa2e05b85b58d32915229d16f3ab173bb6fbf25f2d87f208ee4dc1aacee70e",
      "blockHash": "0x4a88e449f99de39935fc1c72e675d8730d39fe77230c8d85acde5fe7eb9464df",
      "blockNumber": 68541,
      "transactionIndex": 0,
      "confirmations": null,
      "from": "0xd268fB48FA174088a25a120aFF0fd8eb0C2d4c87",
      "gasPrice": {
        "_hex": "0x16838bff95"
      },
      "gasLimit": {
        "_hex": "0x1e36d"
      },
      "to": "0xeDf619865C8303E591Ad2c4B373AAe82997B337a",
      "value": {
        "_hex": "0x0"
      },
      "nonce": 5,
      "data": "0xb61d27f600000000000000000000000045f4054e7384d9c4b5be63d3927d9b7d18781fdc0000000000000000000000000000000000000000000000001bc16d674ec80000000000000000000000000000000000000000000000000000000000000000006000000000000000000000000000000000000000000000000000000000000000000000000000000000000000000000000000000000000000000000000000000000",
      "r": "0x3e33ce950fa0d7c8c63df600a90206cc6037a1c7edbe9dad5421ddb72e69e4d5",
      "s": "0x08952cdf29d7a01fc7f70ff01833666b9a46157d758318b000a12cdcb47707a9",
      "v": 27,
      "creates": null,
      "raw": "0xf9010a058516838bff958301e36d94edf619865c8303e591ad2c4b373aae82997b337a80b8a4b61d27f600000000000000000000000045f4054e7384d9c4b5be63d3927d9b7d18781fdc0000000000000000000000000000000000000000000000001bc16d674ec800000000000000000000000000000000000000000000000000000000000000000060000000000000000000000000000000000000000000000000000000000000000000000000000000000000000000000000000000000000000000000000000000001ba03e33ce950fa0d7c8c63df600a90206cc6037a1c7edbe9dad5421ddb72e69e4d5a008952cdf29d7a01fc7f70ff01833666b9a46157d758318b000a12cdcb47707a9",
      "networkId": 0,
      "chainId": 0
    },
    {
      "hash": "0x56b40f24bcd56cbabc0d77997aa38fdf27214e78241bc0f9a096c6802b3d3fa7",
      "blockHash": "0x4a88e449f99de39935fc1c72e675d8730d39fe77230c8d85acde5fe7eb9464df",
      "blockNumber": 68541,
      "transactionIndex": 1,
      "confirmations": null,
      "from": "0x17580B766f7453525ca4C6A88b01b50570EA088C",
      "gasPrice": {
        "_hex": "0xcdd40120a"
      },
      "gasLimit": {
        "_hex": "0x61a80"
      },
      "to": "0x5Fe5B7546D1628f7348B023A0393de1FC825A4fD",
      "value": {
        "_hex": "0x3782dace9d900000"
      },
      "nonce": 36,
      "data": "0xb595b8b50000000000000000000000000000000000000000000000000000000000000000",
      "r": "0x1822191579606eb9911cba5ca98020b4be746fdc4e9d36a073a30f95c3f58121",
      "s": "0x7e228fc768d88e82115dabbe44a3cf4eebda0c325dd5eefd191abca7f78f1d9c",
      "v": 27,
      "creates": null,
      "raw": "0xf89124850cdd40120a83061a80945fe5b7546d1628f7348b023a0393de1fc825a4fd883782dace9d900000a4b595b8b500000000000000000000000000000000000000000000000000000000000000001ba01822191579606eb9911cba5ca98020b4be746fdc4e9d36a073a30f95c3f58121a07e228fc768d88e82115dabbe44a3cf4eebda0c325dd5eefd191abca7f78f1d9c",
      "networkId": 0,
      "chainId": 0
    },
    {
      "hash": "0x5236890ec65a736f21f004a7dc68d5a9141b1ffe4a0d3e1c310c7ba7d8df570f",
      "blockHash": "0x4a88e449f99de39935fc1c72e675d8730d39fe77230c8d85acde5fe7eb9464df",
      "blockNumber": 68541,
      "transactionIndex": 2,
      "confirmations": null,
      "from": "0x2f6a2205491228c6E3CC7006EA605a083d6cFd6e",
      "gasPrice": {
        "_hex": "0xba43b7400"
      },
      "gasLimit": {
        "_hex": "0x5208"
      },
      "to": "0x35F4557d5FD8344f7Cb4E15B5b6Ad573D016Eb6c",
      "value": {
        "_hex": "0x4e1253f5de4000"
      },
      "nonce": 1,
      "data": "0x",
      "r": "0x555c47860762d2da1f7f6a49d6af9db4cd68af6f6700b7cc68858ba5b02b973d",
      "s": "0x508159b61214c9122771343b76edcd16d4be65cf5f738fa41493b914e232238a",
      "v": 28,
      "creates": null,
      "raw": "0xf86b01850ba43b74008252089435f4557d5fd8344f7cb4e15b5b6ad573d016eb6c874e1253f5de4000801ca0555c47860762d2da1f7f6a49d6af9db4cd68af6f6700b7cc68858ba5b02b973da0508159b61214c9122771343b76edcd16d4be65cf5f738fa41493b914e232238a",
      "networkId": 0,
      "chainId": 0
    },
    {
      "hash": "0x428b3ccbae4163ca3f9d1806eec0cd118abe043e46761877cf0516584b9397c7",
      "blockHash": "0x4a88e449f99de39935fc1c72e675d8730d39fe77230c8d85acde5fe7eb9464df",
      "blockNumber": 68541,
      "transactionIndex": 3,
      "confirmations": null,
      "from": "0xe18e05dB456688d9813B5F1F54b2De2E55Cb1E16",
      "gasPrice": {
        "_hex": "0xba43b7400"
      },
      "gasLimit": {
        "_hex": "0x5208"
      },
      "to": "0x922162DD675E77959331ea791b5dDE0044F5cEff",
      "value": {
        "_hex": "0x4e1253f5de4000"
      },
      "nonce": 1,
      "data": "0x",
      "r": "0x4286af93e510079c35f3c7d431014ce26273712e7916996aec45cc171f325914",
      "s": "0x143951f7b2fde7206298c841b24dacc99b705246d202bb4696170c9d7c99f8e9",
      "v": 28,
      "creates": null,
      "raw": "0xf86b01850ba43b740082520894922162dd675e77959331ea791b5dde0044f5ceff874e1253f5de4000801ca04286af93e510079c35f3c7d431014ce26273712e7916996aec45cc171f325914a0143951f7b2fde7206298c841b24dacc99b705246d202bb4696170c9d7c99f8e9",
      "networkId": 0,
      "chainId": 0
    },
    {
      "hash": "0x18c00f50e3fa21ea00147dce4ad504efc112831cb08766c08304940a3d5ad33a",
      "blockHash": "0x4a88e449f99de39935fc1c72e675d8730d39fe77230c8d85acde5fe7eb9464df",
      "blockNumber": 68541,
      "transactionIndex": 4,
      "confirmations": null,
      "from": "0x962b9eaA0E550C7D19302757a9E4Aa282BF6079F",
      "gasPrice": {
        "_hex": "0xba43b7400"
      },
      "gasLimit": {
        "_hex": "0x5208"
      },
      "to": "0x35471af1CfE8fB5d389F8393a24b40a7dddDeccf",
      "value": {
        "_hex": "0x4e1253f5de4000"
      },
      "nonce": 1,
      "data": "0x",
      "r": "0x75bffa3ed24dd3f40324aed49fafb17897a6ee5bea79cab57bd55d05aaf373d1",
      "s": "0x58a7e6748b83c41609cb2f6590cadc454a542571b06deb308a6811c508101870",
      "v": 27,
      "creates": null,
      "raw": "0xf86b01850ba43b74008252089435471af1cfe8fb5d389f8393a24b40a7ddddeccf874e1253f5de4000801ba075bffa3ed24dd3f40324aed49fafb17897a6ee5bea79cab57bd55d05aaf373d1a058a7e6748b83c41609cb2f6590cadc454a542571b06deb308a6811c508101870",
      "networkId": 0,
      "chainId": 0
    },
    {
      "hash": "0x78169f81aad3c6e96444456da922785e7aeed30ca52fecb7ac29a7126bcec0ad",
      "blockHash": "0x4a88e449f99de39935fc1c72e675d8730d39fe77230c8d85acde5fe7eb9464df",
      "blockNumber": 68541,
      "transactionIndex": 5,
      "confirmations": null,
      "from": "0xB41AAB9856bd41f0bCD9fC7A91b75839D54fA5aa",
      "gasPrice": {
        "_hex": "0xba43b7400"
      },
      "gasLimit": {
        "_hex": "0x5208"
      },
      "to": "0xd20e3C43a1fC90f3740D20A8dD36BFE40F3004E1",
      "value": {
        "_hex": "0x4e1253f5de4000"
      },
      "nonce": 1,
      "data": "0x",
      "r": "0x7bcfa05edf72554270aaaf71fa29b2ab6782ceff9ce663d228272746aa1134ef",
      "s": "0x2ed2ac4679ce4d1ba5936956e64fff6e2089a78213de0ddb1c086af812f34bed",
      "v": 28,
      "creates": null,
      "raw": "0xf86b01850ba43b740082520894d20e3c43a1fc90f3740d20a8dd36bfe40f3004e1874e1253f5de4000801ca07bcfa05edf72554270aaaf71fa29b2ab6782ceff9ce663d228272746aa1134efa02ed2ac4679ce4d1ba5936956e64fff6e2089a78213de0ddb1c086af812f34bed",
      "networkId": 0,
      "chainId": 0
    },
    {
      "hash": "0xf02516216efb4f7d222069ca415257d1868198563bb152a1267b7648d090879f",
      "blockHash": "0x4a88e449f99de39935fc1c72e675d8730d39fe77230c8d85acde5fe7eb9464df",
      "blockNumber": 68541,
      "transactionIndex": 6,
      "confirmations": null,
      "from": "0xdfe0d4Ca5536c35d6C7EF6DD527c2046Fe0cA429",
      "gasPrice": {
        "_hex": "0xba43b7400"
      },
      "gasLimit": {
        "_hex": "0x5208"
      },
      "to": "0x1A1E33F1281934Dc72cdae4EE519Cc44243b27f9",
      "value": {
        "_hex": "0x4e1253f5de4000"
      },
      "nonce": 1,
      "data": "0x",
      "r": "0x1f4a8d28fa83426b20b1708c0edabdfa9ba2a73fa7173eca5013660c87950f8a",
      "s": "0x68f387c1cd4cedf203df4f2675e359a842c88bd029f060c8fc38528ee07d3719",
      "v": 28,
      "creates": null,
      "raw": "0xf86b01850ba43b7400825208941a1e33f1281934dc72cdae4ee519cc44243b27f9874e1253f5de4000801ca01f4a8d28fa83426b20b1708c0edabdfa9ba2a73fa7173eca5013660c87950f8aa068f387c1cd4cedf203df4f2675e359a842c88bd029f060c8fc38528ee07d3719",
      "networkId": 0,
      "chainId": 0
    },
    {
      "hash": "0x177c58ff759fe35f597e573884967ab7e3a8cc2d21b5ff3dd987b0d275c831ba",
      "blockHash": "0x4a88e449f99de39935fc1c72e675d8730d39fe77230c8d85acde5fe7eb9464df",
      "blockNumber": 68541,
      "transactionIndex": 7,
      "confirmations": null,
      "from": "0xf75768D304cAaB27eF45955199ff977f4dD51cDc",
      "gasPrice": {
        "_hex": "0xba43b7400"
      },
      "gasLimit": {
        "_hex": "0x5208"
      },
      "to": "0x0F0F02a444aD16265154F8d57a618D05a57BcB58",
      "value": {
        "_hex": "0x4e1253f5de4000"
      },
      "nonce": 1,
      "data": "0x",
      "r": "0x02700c8276bc5058ac0d425f3660af02de5d4f84784f55d300d5469fea2c5c35",
      "s": "0x7b892c63d5874804f935c7ab929c7088f79df60c7a4caf9d405053b7cb540892",
      "v": 27,
      "creates": null,
      "raw": "0xf86b01850ba43b7400825208940f0f02a444ad16265154f8d57a618d05a57bcb58874e1253f5de4000801ba002700c8276bc5058ac0d425f3660af02de5d4f84784f55d300d5469fea2c5c35a07b892c63d5874804f935c7ab929c7088f79df60c7a4caf9d405053b7cb540892",
      "networkId": 0,
      "chainId": 0
    },
    {
      "hash": "0xc194a4ad46d0cd4ad82fb43dcc5161c022f31943f0d9e346684da84ca245cd37",
      "blockHash": "0x4a88e449f99de39935fc1c72e675d8730d39fe77230c8d85acde5fe7eb9464df",
      "blockNumber": 68541,
      "transactionIndex": 8,
      "confirmations": null,
      "from": "0xE607BA5e12973d8642f568b84227E50ecF9D381b",
      "gasPrice": {
        "_hex": "0xba43b7400"
      },
      "gasLimit": {
        "_hex": "0x5208"
      },
      "to": "0x53001aB6aF0139a5d6E98e7522266C2d41452304",
      "value": {
        "_hex": "0x4e1253f5de4000"
      },
      "nonce": 1,
      "data": "0x",
      "r": "0xfe77df60b7876ed4be7d98e92d21a0425ab0569b0ea542a322ec767c67d1c68c",
      "s": "0x3c9ac528ec3dd6f0e2d069fff5a3300d2c00c0a86f3e1805018b6471a7930c4f",
      "v": 27,
      "creates": null,
      "raw": "0xf86b01850ba43b74008252089453001ab6af0139a5d6e98e7522266c2d41452304874e1253f5de4000801ba0fe77df60b7876ed4be7d98e92d21a0425ab0569b0ea542a322ec767c67d1c68ca03c9ac528ec3dd6f0e2d069fff5a3300d2c00c0a86f3e1805018b6471a7930c4f",
      "networkId": 0,
      "chainId": 0
    },
    {
      "hash": "0x31a07c84feb8ec09b616a58dda1f485c5efe767c4b68ae4c09295651207cc15b",
      "blockHash": "0x4a88e449f99de39935fc1c72e675d8730d39fe77230c8d85acde5fe7eb9464df",
      "blockNumber": 68541,
      "transactionIndex": 9,
      "confirmations": null,
      "from": "0xEafdf4Aa8ffE028105f5215483F7599c220cC857",
      "gasPrice": {
        "_hex": "0xba43b7400"
      },
      "gasLimit": {
        "_hex": "0x5208"
      },
      "to": "0x0208dFA68Dd6E913a1035861778544b3169Db5A0",
      "value": {
        "_hex": "0x4e1253f5de4000"
      },
      "nonce": 1,
      "data": "0x",
      "r": "0xb6d684cff9b69de2cdcd2575aec82da68bd49d89cb63964308ab756ba45300f0",
      "s": "0x26fc2e1b4545cb30abe46444d1e3d42dfac9c77084459877399a6db483637fee",
      "v": 27,
      "creates": null,
      "raw": "0xf86b01850ba43b7400825208940208dfa68dd6e913a1035861778544b3169db5a0874e1253f5de4000801ba0b6d684cff9b69de2cdcd2575aec82da68bd49d89cb63964308ab756ba45300f0a026fc2e1b4545cb30abe46444d1e3d42dfac9c77084459877399a6db483637fee",
      "networkId": 0,
      "chainId": 0
    },
    {
      "hash": "0x1464630851b4843fa961361dca06cbf8166504701f6f10d5f5187c3499580afb",
      "blockHash": "0x4a88e449f99de39935fc1c72e675d8730d39fe77230c8d85acde5fe7eb9464df",
      "blockNumber": 68541,
      "transactionIndex": 10,
      "confirmations": null,
      "from": "0x16dc5544b566AeF97ec8083E58Dc7968Ab895F1D",
      "gasPrice": {
        "_hex": "0xba43b7400"
      },
      "gasLimit": {
        "_hex": "0x5208"
      },
      "to": "0x38F5c9B9840F3cdC16390Bc6F72E6172C068088f",
      "value": {
        "_hex": "0x4e1253f5de4000"
      },
      "nonce": 1,
      "data": "0x",
      "r": "0x5869a4b841ad5413b27a6c82a91f8449c7bf230127346487e1c93b15e4d4663d",
      "s": "0x2df046ad3c1dd944d9f4b2c4473cbd780b2c1068c54fe49b3e3f0098cace2832",
      "v": 28,
      "creates": null,
      "raw": "0xf86b01850ba43b74008252089438f5c9b9840f3cdc16390bc6f72e6172c068088f874e1253f5de4000801ca05869a4b841ad5413b27a6c82a91f8449c7bf230127346487e1c93b15e4d4663da02df046ad3c1dd944d9f4b2c4473cbd780b2c1068c54fe49b3e3f0098cace2832",
      "networkId": 0,
      "chainId": 0
    },
    {
      "hash": "0x1d32fab4779af3d1fdcc4ffd32c8892b883622837ddd3f192e2cf6e26cdbf992",
      "blockHash": "0x4a88e449f99de39935fc1c72e675d8730d39fe77230c8d85acde5fe7eb9464df",
      "blockNumber": 68541,
      "transactionIndex": 11,
      "confirmations": null,
      "from": "0xbD76eA1Edb467667ca6Bf7c06be27aaa0fcDf679",
      "gasPrice": {
        "_hex": "0xba43b7400"
      },
      "gasLimit": {
        "_hex": "0x5208"
      },
      "to": "0x13Be5d7F8963767dEcF2fEcF1f7Af047255494b4",
      "value": {
        "_hex": "0x4e1253f5de4000"
      },
      "nonce": 1,
      "data": "0x",
      "r": "0xc9ce5b441492dc3ab71a91eebc0b94b74737dc002d606724be80407c7c52bf6f",
      "s": "0x4c0cadabf7320822b32987321ead7011f42140d839550b9dc83231f8cc219a7d",
      "v": 27,
      "creates": null,
      "raw": "0xf86b01850ba43b74008252089413be5d7f8963767decf2fecf1f7af047255494b4874e1253f5de4000801ba0c9ce5b441492dc3ab71a91eebc0b94b74737dc002d606724be80407c7c52bf6fa04c0cadabf7320822b32987321ead7011f42140d839550b9dc83231f8cc219a7d",
      "networkId": 0,
      "chainId": 0
    },
    {
      "hash": "0x14693d726db85bcddcd47184a9c1877ed35dfbcbba4d3c73ec2e83ecc926e9ea",
      "blockHash": "0x4a88e449f99de39935fc1c72e675d8730d39fe77230c8d85acde5fe7eb9464df",
      "blockNumber": 68541,
      "transactionIndex": 12,
      "confirmations": null,
      "from": "0xCD3e64aaaf115cFf8055556F78eFE771f3359A26",
      "gasPrice": {
        "_hex": "0xba43b7400"
      },
      "gasLimit": {
        "_hex": "0x5208"
      },
      "to": "0xB5332c555468F5D74758048689455002A4276E4d",
      "value": {
        "_hex": "0x4e1253f5de4000"
      },
      "nonce": 1,
      "data": "0x",
      "r": "0xba7cda50f2cb847f9ec859006192fec98c28b1ee372101a1871c97f795998d24",
      "s": "0x215a28dc8ee61b2dd306cb232222c6de937cfed7bf1fba1351e48fd540724e85",
      "v": 28,
      "creates": null,
      "raw": "0xf86b01850ba43b740082520894b5332c555468f5d74758048689455002a4276e4d874e1253f5de4000801ca0ba7cda50f2cb847f9ec859006192fec98c28b1ee372101a1871c97f795998d24a0215a28dc8ee61b2dd306cb232222c6de937cfed7bf1fba1351e48fd540724e85",
      "networkId": 0,
      "chainId": 0
    },
    {
      "hash": "0x6651b8b7ee9c8624f443011061752ae53c4ede3cce3381cc50b3ed06954039e6",
      "blockHash": "0x4a88e449f99de39935fc1c72e675d8730d39fe77230c8d85acde5fe7eb9464df",
      "blockNumber": 68541,
      "transactionIndex": 13,
      "confirmations": null,
      "from": "0x4C3bf5218C4b7eDAAf0AF615B4DDA9c55E917664",
      "gasPrice": {
        "_hex": "0xba43b7400"
      },
      "gasLimit": {
        "_hex": "0x5208"
      },
      "to": "0x726D6d4F21959d7Ab77bD5BD26eeE17E4F411C6d",
      "value": {
        "_hex": "0x4e1253f5de4000"
      },
      "nonce": 1,
      "data": "0x",
      "r": "0x2a4c6a9076066ed17a083b090ae74290facd1248f5834cda7fa228cf740ef8ec",
      "s": "0x3f1cb061aa98a67b7630ad25627d977995915ce27c6c2d9b522bf0f89c65fca0",
      "v": 28,
      "creates": null,
      "raw": "0xf86b01850ba43b740082520894726d6d4f21959d7ab77bd5bd26eee17e4f411c6d874e1253f5de4000801ca02a4c6a9076066ed17a083b090ae74290facd1248f5834cda7fa228cf740ef8eca03f1cb061aa98a67b7630ad25627d977995915ce27c6c2d9b522bf0f89c65fca0",
      "networkId": 0,
      "chainId": 0
    },
    {
      "hash": "0xf507ba8f45875ae5a5e8bd358982cf0ddb813ec7bba84b6eaba66e55b62496a2",
      "blockHash": "0x4a88e449f99de39935fc1c72e675d8730d39fe77230c8d85acde5fe7eb9464df",
      "blockNumber": 68541,
      "transactionIndex": 14,
      "confirmations": null,
      "from": "0x65C675EaFe785109Ad4377C6d706170075579fFb",
      "gasPrice": {
        "_hex": "0xba43b7400"
      },
      "gasLimit": {
        "_hex": "0x5208"
      },
      "to": "0x9672EfE4d3EC460aAF56fE2Fc938e031c91486b1",
      "value": {
        "_hex": "0x4e1253f5de4000"
      },
      "nonce": 1,
      "data": "0x",
      "r": "0x870fe072cd4ab260cb58255c15779fb201a5d193b97c6baabc85d232ffcacdc5",
      "s": "0x49c7505951ebfdba83237735917610f7b3886da3314f3a0434be12a19618f1e1",
      "v": 27,
      "creates": null,
      "raw": "0xf86b01850ba43b7400825208949672efe4d3ec460aaf56fe2fc938e031c91486b1874e1253f5de4000801ba0870fe072cd4ab260cb58255c15779fb201a5d193b97c6baabc85d232ffcacdc5a049c7505951ebfdba83237735917610f7b3886da3314f3a0434be12a19618f1e1",
      "networkId": 0,
      "chainId": 0
    },
    {
      "hash": "0x4514374589f0cbd05fe56960734e5253b1f05a1ad234025299ac0c8223067abd",
      "blockHash": "0x4a88e449f99de39935fc1c72e675d8730d39fe77230c8d85acde5fe7eb9464df",
      "blockNumber": 68541,
      "transactionIndex": 15,
      "confirmations": null,
      "from": "0x93163c538E2fA05a0197676B2596611425E7134C",
      "gasPrice": {
        "_hex": "0xba43b7400"
      },
      "gasLimit": {
        "_hex": "0x5208"
      },
      "to": "0x46750EF414dEF91b58bBf318df65BeE53321f05f",
      "value": {
        "_hex": "0x4e1253f5de4000"
      },
      "nonce": 1,
      "data": "0x",
      "r": "0x291507366ba51a6253d382489432b3ad70d10f2bfa2af67248a4390f548becf9",
      "s": "0x3a8d320430556ceb22de7ff176ccfd01fae980a68d05ab81dfa09c0867528818",
      "v": 27,
      "creates": null,
      "raw": "0xf86b01850ba43b74008252089446750ef414def91b58bbf318df65bee53321f05f874e1253f5de4000801ba0291507366ba51a6253d382489432b3ad70d10f2bfa2af67248a4390f548becf9a03a8d320430556ceb22de7ff176ccfd01fae980a68d05ab81dfa09c0867528818",
      "networkId": 0,
      "chainId": 0
    },
    {
      "hash": "0xec6991b7f12b8bcb2727d20208eee0a6febd5fd3bcdd3824738c4478ad27f367",
      "blockHash": "0x4a88e449f99de39935fc1c72e675d8730d39fe77230c8d85acde5fe7eb9464df",
      "blockNumber": 68541,
      "transactionIndex": 16,
      "confirmations": null,
      "from": "0x19ba9889E82288Dfc19427d389BE352C4B96c64C",
      "gasPrice": {
        "_hex": "0xba43b7400"
      },
      "gasLimit": {
        "_hex": "0x5208"
      },
      "to": "0xC27AAA15c99104570F2768e38e0a23e426865D97",
      "value": {
        "_hex": "0x4e1253f5de4000"
      },
      "nonce": 1,
      "data": "0x",
      "r": "0x2a896de1af6c3abd91b435e8f92671cb93a827ac9240fe8f0ac9676516c2ba68",
      "s": "0x7ca9a4378ec63449b7847853274ce18215889e5c1fbc0d146f6fcc3df2a78a01",
      "v": 28,
      "creates": null,
      "raw": "0xf86b01850ba43b740082520894c27aaa15c99104570f2768e38e0a23e426865d97874e1253f5de4000801ca02a896de1af6c3abd91b435e8f92671cb93a827ac9240fe8f0ac9676516c2ba68a07ca9a4378ec63449b7847853274ce18215889e5c1fbc0d146f6fcc3df2a78a01",
      "networkId": 0,
      "chainId": 0
    },
    {
      "hash": "0xa7bc5619dcd27a69c51658525100bd56d09be9633fbe956efa7542cf52f96c7c",
      "blockHash": "0x4a88e449f99de39935fc1c72e675d8730d39fe77230c8d85acde5fe7eb9464df",
      "blockNumber": 68541,
      "transactionIndex": 17,
      "confirmations": null,
      "from": "0x69ee151757c99E607fDc1ABAF266Bb12a8dE3c7a",
      "gasPrice": {
        "_hex": "0xba43b7400"
      },
      "gasLimit": {
        "_hex": "0x5208"
      },
      "to": "0x96074A870CF850a9b866d622cD3AE8Dc3b4Fd313",
      "value": {
        "_hex": "0x4e1253f5de4000"
      },
      "nonce": 1,
      "data": "0x",
      "r": "0x7ead6c5fa81980383770b85c0ecca44b4a64ea788febcda525044cf33c3b119b",
      "s": "0x61748c2b354bfa41f44aeea840ae43da8af2e8de1cb4fd72fa6efaaba58877b9",
      "v": 28,
      "creates": null,
      "raw": "0xf86b01850ba43b74008252089496074a870cf850a9b866d622cd3ae8dc3b4fd313874e1253f5de4000801ca07ead6c5fa81980383770b85c0ecca44b4a64ea788febcda525044cf33c3b119ba061748c2b354bfa41f44aeea840ae43da8af2e8de1cb4fd72fa6efaaba58877b9",
      "networkId": 0,
      "chainId": 0
    },
    {
      "hash": "0x9be717180498ad6ea5c9ab5841337500e595cd64c7d7096cff665a0bab1be1e3",
      "blockHash": "0x4a88e449f99de39935fc1c72e675d8730d39fe77230c8d85acde5fe7eb9464df",
      "blockNumber": 68541,
      "transactionIndex": 18,
      "confirmations": null,
      "from": "0xdCEBceF2C18b21a63b8692E53c1e2aeede79F910",
      "gasPrice": {
        "_hex": "0xba43b7400"
      },
      "gasLimit": {
        "_hex": "0x5208"
      },
      "to": "0xA71FEfB391fb604f449280a446F95CB05FA63028",
      "value": {
        "_hex": "0x4e1253f5de4000"
      },
      "nonce": 1,
      "data": "0x",
      "r": "0xdae1f5500aad820d2fc59eb39f15ddc2e09318ca927f64815c2a12b86ac1b598",
      "s": "0x779693b326902724e0df3eacb8bf45ac86ecc5fdb685886ca649c08a7e1c67f4",
      "v": 27,
      "creates": null,
      "raw": "0xf86b01850ba43b740082520894a71fefb391fb604f449280a446f95cb05fa63028874e1253f5de4000801ba0dae1f5500aad820d2fc59eb39f15ddc2e09318ca927f64815c2a12b86ac1b598a0779693b326902724e0df3eacb8bf45ac86ecc5fdb685886ca649c08a7e1c67f4",
      "networkId": 0,
      "chainId": 0
    },
    {
      "hash": "0xde13d8133e22cc468395cc711ce76deb68a2c98321bf2968261b70ac02901b0d",
      "blockHash": "0x4a88e449f99de39935fc1c72e675d8730d39fe77230c8d85acde5fe7eb9464df",
      "blockNumber": 68541,
      "transactionIndex": 19,
      "confirmations": null,
      "from": "0xd18e7223F7bEbB6Aae155B606fB94064FF22750E",
      "gasPrice": {
        "_hex": "0xba43b7400"
      },
      "gasLimit": {
        "_hex": "0x5208"
      },
      "to": "0x7a2dd2473445445420156abe9B06c71132C2834b",
      "value": {
        "_hex": "0x4e1253f5de4000"
      },
      "nonce": 1,
      "data": "0x",
      "r": "0x11587572144e3498814eea2d42b4e6a9741b234d7bdcea6e7123ad03b3c45784",
      "s": "0x593eb9320c30aaf06892bdfc620604ce886edf3b2900aae2a1e0dbb0d36b7ce1",
      "v": 28,
      "creates": null,
      "raw": "0xf86b01850ba43b7400825208947a2dd2473445445420156abe9b06c71132c2834b874e1253f5de4000801ca011587572144e3498814eea2d42b4e6a9741b234d7bdcea6e7123ad03b3c45784a0593eb9320c30aaf06892bdfc620604ce886edf3b2900aae2a1e0dbb0d36b7ce1",
      "networkId": 0,
      "chainId": 0
    },
    {
      "hash": "0xc6c061622c9894245786636beca9aab23cbdaf4ffe14597b92aefab020dc39e2",
      "blockHash": "0x4a88e449f99de39935fc1c72e675d8730d39fe77230c8d85acde5fe7eb9464df",
      "blockNumber": 68541,
      "transactionIndex": 20,
      "confirmations": null,
      "from": "0x69f520816411c74A01b2bEc28B7CA080bCF27fCC",
      "gasPrice": {
        "_hex": "0xba43b7400"
      },
      "gasLimit": {
        "_hex": "0x5208"
      },
      "to": "0x02856fD084e22a97B620d39a501bc27524521663",
      "value": {
        "_hex": "0x4e1253f5de4000"
      },
      "nonce": 1,
      "data": "0x",
      "r": "0xfd8680a8c41674b57db3b06798923294c7d0256618997f8e6822279bf4045125",
      "s": "0x0275e13f85b13c88abedd4e7bf75c7a7db0cf7f155e84d2b27f8190a2fcb0b73",
      "v": 27,
      "creates": null,
      "raw": "0xf86b01850ba43b74008252089402856fd084e22a97b620d39a501bc27524521663874e1253f5de4000801ba0fd8680a8c41674b57db3b06798923294c7d0256618997f8e6822279bf4045125a00275e13f85b13c88abedd4e7bf75c7a7db0cf7f155e84d2b27f8190a2fcb0b73",
      "networkId": 0,
      "chainId": 0
    }
  ]
}