{
  "hash": "0x4b9c6c35bb2089f7912b7c6751cfc750c1ed62e07410ae4a55b0cf3eb26f938d",
  "parentHash": "0x2417042821c51f970a84715d76cbb280d9b389849dfed42e531dc74227138614",
  "number": 98249,
  "timestamp": 1439769421,
  "nonce": "0x609609fb6b251dce",
  "difficulty": 3874617632343,
  "gasLimit": {
    "_hex": "0x2fefd8"
  },
  "gasUsed": {
    "_hex": "0x5208"
  },
  "miner": "0xe6A7a1d47ff21B6321162AEA7C6CB457D5476Bca",
  "extraData": "0x476574682f76312e302e312d38326566323666362f6c696e75782f676f312e34",
  "transactions": [
    {
      "hash": "0x1e9d8bd876af20c4328a1e92b7a47b20212268c3fd748b63840ae3a32e555490",
      "blockHash": "0x4b9c6c35bb2089f7912b7c6751cfc750c1ed62e07410ae4a55b0cf3eb26f938d",
      "blockNumber": 98249,
      "transactionIndex": 0,
      "confirmations": null,
      "from": "0x770d98d31b4353FceEE8560c4CCf803e88C0c4e0",
      "gasPrice": {
        "_hex": "0xd3f3826cd"
      },
      "gasLimit": {
        "_hex": "0x5208"
      },
      "to": "0xFBb1b73C4f0BDa4f67dcA266ce6Ef42f520fBB98",
      "value": {
        "_hex": "0xdfb0fae9c6b33a1"
      },
      "nonce": 21,
      "data": "0x",
      "r": "0xb2c38c7f44c3e91dba3832ff641effbcba132b20a4e07ba70b6c5ef58aa3655d",
      "s": "0x04eaac8f0a736d43d7e80f6919bf6343107005161c1710a356cae6b8b1172024",
      "v": 28,
      "creates": null,
      "raw": "0xf86c15850d3f3826cd82520894fbb1b73c4f0bda4f67dca266ce6ef42f520fbb98880dfb0fae9c6b33a1801ca0b2c38c7f44c3e91dba3832ff641effbcba132b20a4e07ba70b6c5ef58aa3655da004eaac8f0a736d43d7e80f6919bf6343107005161c1710a356cae6b8b1172024",
      "networkId": 0,
      "chainId": 0
    }
  ]
}