{
  "hash": "0x21d1bf2682ddae0bbcc9893403edc614dd24d574cc3d0b17d8fd336edf4a28c5",
  "parentHash": "0xb6fa1c87631d2911dd7fd926d8263e821a7b8000a6cc78a5777c102c2eb9fe66",
  "number": 120220,
  "timestamp": 1440156207,
  "nonce": "0x8605628deb4fb4e2",
  "difficulty": 4411223391583,
  "gasLimit": {
    "_hex": "0x2fefd8"
  },
  "gasUsed": {
    "_hex": "0x5208"
  },
  "miner": "0x52bc44d5378309EE2abF1539BF71dE1b7d7bE3b5",
  "extraData": "0xd783010002844765746887676f312e342e32856c696e7578",
  "transactions": [
    {
      "hash": "0xa80585e92f4c78855ecb377366cfda92a36069280cdea8aba6f9821cafb69d75",
      "blockHash": "0x21d1bf2682ddae0bbcc9893403edc614dd24d574cc3d0b17d8fd336edf4a28c5",
      "blockNumber": 120220,
      "transactionIndex": 0,
      "confirmations": null,
      "from": "0x2910543Af39abA0Cd09dBb2D50200b3E800A63D2",
      "gasPrice": {
        "_hex": "0xcd1c3dd9b"
      },
      "gasLimit": {
        "_hex": "0x5208"
      },
      "to": "0xBaAE86636FA84853f8A5585096De5a8b13D1Ad8c",
      "value": {
        "_hex": "0x305646f3dc05760000"
      },
      "nonce": 1176,
      "data": "0x",
      "r": "0xe89c6fb39e2f20a084a4ec397b7311530c2aa09796206e4900cb05d5702b32ab",
      "s": "0x37524bd1029f81d604391c7f39965545fcb8fa54dd0545f1737a595c73265065",
      "v": 27,
      "creates": null,
      "raw": "0xf86f820498850cd1c3dd9b82520894baae86636fa84853f8a5585096de5a8b13d1ad8c89305646f3dc05760000801ba0e89c6fb39e2f20a084a4ec397b7311530c2aa09796206e4900cb05d5702b32aba037524bd1029f81d604391c7f39965545fcb8fa54dd0545f1737a595c73265065",
      "networkId": 0,
      "chainId": 0
    }
  ]
}