{
  "hash": "0xb468598bdfe52cbfd1903e2b3453fd2abe3efef4f059e5c153a96708218a8abb",
  "parentHash": "0xd0dd093c60e993bcdd3653c5e3d4d0aa99477a6a9904b04ebf4bf84e7c1304f3",
  "number": 85499,
  "timestamp": 1439564648,
  "nonce": "0x13e64b2490ce2d25",
  "difficulty": 2757074073150,
  "gasLimit": {
    "_hex": "0x2fefd8"
  },
  "gasUsed": {
    "_hex": "0x5208"
  },
  "miner": "0xbb7B8287f3F0a933474a79eAe42CBCa977791171",
  "extraData": "0x476574682f4c5649562f76312e302e312f6c696e75782f676f312e342e32",
  "transactions": [
    {
      "hash": "0xd02c2c830819b2563abe978b9c69ecef2e53f9b180d974d848e2c2b07d8183bc",
      "blockHash": "0xb468598bdfe52cbfd1903e2b3453fd2abe3efef4f059e5c153a96708218a8abb",
      "blockNumber": 85499,
      "transactionIndex": 0,
      "confirmations": null,
      "from": "0xD612597BC31743C78633f633F239b1E9426bD925",
      "gasPrice": {
        "_hex": "0xd7b986f4d"
      },
      "gasLimit": {
        "_hex": "0x5208"
      },
      "to": "0x738e836870D34d909F8De81Ae8c759cf55f4EAaF",
      "value": {
        "_hex": "0x109a12906aff6100000"
      },
      "nonce": 1,
      "data": "0x",
      "r": "0x915b2a8f63582862072174d0915a01fccb394f69998ad8417222bac26b8ac84d",
      "s": "0x6668a4d2510311d2e1c9f7cf37852471cefd805167a14c8e5a8b5caa94c2b308",
      "v": 28,
      "creates": null,
      "raw": "0xf86e01850d7b986f4d82520894738e836870d34d909f8de81ae8c759cf55f4eaaf8a0109a12906aff6100000801ca0915b2a8f63582862072174d0915a01fccb394f69998ad8417222bac26b8ac84da06668a4d2510311d2e1c9f7cf37852471cefd805167a14c8e5a8b5caa94c2b308",
      "networkId": 0,
      "chainId": 0
    }
  ]
}