{
  "hash": "0x03b28ce9f17401eb13b78493d561fed904d8d3f1da68c111c72afe2ba2fa4c19",
  "parentHash": "0x3b678aa05ab4c5afe48af79314fae6bfa0d693fd21c2dfc7f24703dd9560eb03",
  "number": 102654,
  "timestamp": 1439841168,
  "nonce": "0x6bc7173742fdeae1",
  "difficulty": 4036692929598,
  "gasLimit": {
    "_hex": "0x2fefd8"
  },
  "gasUsed": {
    "_hex": "0xa410"
  },
  "miner": "0xe6A7a1d47ff21B6321162AEA7C6CB457D5476Bca",
  "extraData": "0x476574682f76312e302e312d38326566323666362f6c696e75782f676f312e34",
  "transactions": [
    {
      "hash": "0xf154a49532b9c21c0d48bea56fb25fe72f485b7978aa4939f5afa815f2b5baab",
      "blockHash": "0x03b28ce9f17401eb13b78493d561fed904d8d3f1da68c111c72afe2ba2fa4c19",
      "blockNumber": 102654,
      "transactionIndex": 0,
      "confirmations": null,
      "from": "0x06EC48800B2DB3eEfa052e98A9b5Fc2Bf783Ee74",
      "gasPrice": {
        "_hex": "0xdd89ce433"
      },
      "gasLimit": {
        "_hex": "0x5208"
      },
      "to": "0x32Be343B94f860124dC4fEe278FDCBD38C102D88",
      "value": {
        "_hex": "0x1d031d5f6003c3000"
      },
      "nonce": 17,
      "data": "0x",
      "r": "0x0d5dcc7bf734e213e5dde8c5433e39b02421994c3e2a48bdff7c7a2ffa6ea97c",
      "s": "0x5bb2c4110382417018e9b4538767bc15f6a54e55c45fc2e17d5e43b0b4b2ad42",
      "v": 28,
      "creates": null,
      "raw": "0xf86d11850dd89ce4338252089432be343b94f860124dc4fee278fdcbd38c102d888901d031d5f6003c3000801ca00d5dcc7bf734e213e5dde8c5433e39b02421994c3e2a48bdff7c7a2ffa6ea97ca05bb2c4110382417018e9b4538767bc15f6a54e55c45fc2e17d5e43b0b4b2ad42",
      "networkId": 0,
      "chainId": 0
    },
    {
      "hash": "0x8da1a683c0197f8989cc3e945bded6ec45b0d906af653e87f679349e62a144ab",
      "blockHash": "0x03b28ce9f17401eb13b78493d561fed904d8d3f1da68c111c72afe2ba2fa4c19",
      "blockNumber": 102654,
      "transactionIndex": 1,
      "confirmations": null,
      "from": "0xb1abce2918E21ddb93AA452731a12672A3d9F75a",
      "gasPrice": {
        "_hex": "0xdd89ce433"
      },
      "gasLimit": {
        "_hex": "0x5208"
      },
      "to": "0x32Be343B94f860124dC4fEe278FDCBD38C102D88",
      "value": {
        "_hex": "0x455f21b20c5f3000"
      },
      "nonce": 107,
      "data": "0x",
      "r": "0x64c234b10bf942e55b307166d6e96201f8634d27a76634222300be2053600971",
      "s": "0x22707afd634ffba6c9ebea4252ac56bd32bb94ad5244ebc9256fa4530c78a6e1",
      "v": 28,
      "creates": null,
      "raw": "0xf86c6b850dd89ce4338252089432be343b94f860124dc4fee278fdcbd38c102d8888455f21b20c5f3000801ca064c234b10bf942e55b307166d6e96201f8634d27a76634222300be2053600971a022707afd634ffba6c9ebea4252ac56bd32bb94ad5244ebc9256fa4530c78a6e1",
      "networkId": 0,
      "chainId": 0
    }
  ]
}