{
  "hash": "0x1ca2414a1149777ef81140cefda7734e051be3fa62135353f2dd1d099ad3f39e",
  "parentHash": "0x73746e8015d307ccf798770e19d8447ca2a478f668014a9f32f336ca638d53b2",
  "number": 97281,
  "timestamp": 1439753594,
  "nonce": "0xdb527507a1b0c132",
  "difficulty": 3785298982416,
  "gasLimit": {
    "_hex": "0x2fefd8"
  },
  "gasUsed": {
    "_hex": "0x1586b"
  },
  "miner": "0xaEAf103356C2Ee943F748E8655659D29881323E1",
  "extraData": "0x476574682f76312e302e312f77696e646f77732f676f312e342e32",
  "transactions": [
    {
      "hash": "0x770efebf0a20a4e5878ef82a7f1849d5ec946458ec8399f5a1812ffc58a50ca2",
      "blockHash": "0x1ca2414a1149777ef81140cefda7734e051be3fa62135353f2dd1d099ad3f39e",
      "blockNumber": 97281,
      "transactionIndex": 0,
      "confirmations": null,
      "from": "0xe324bc8cB83B45cF7Ad7D440B92Ed2181161302D",
      "gasPrice": {
        "_hex": "0xd156a4db0"
      },
      "gasLimit": {
        "_hex": "0x186a0"
      },
      "to": null,
      "value": {
        "_hex": "0x0"
      },
      "nonce": 0,
      "data": "0x60606040526040516020806102518339016040526060805190602001505b80600060005060003373ffffffffffffffffffffffffffffffffffffffff168152602001908152602001600020600050819055505b506101ef806100626000396000f30060606040526000357c01000000000000000000000000000000000000000000000000000000009004806390b98a1114610044578063bbd39ac01461007157610042565b005b61005b6004803590602001803590602001506100b3565b6040518082815260200191505060405180910390f35b610082600480359060200150610098565b6040518082815260200191505060405180910390f35b60006000506020528060005260406000206000915090505481565b600081600060005060003373ffffffffffffffffffffffffffffffffffffffff1681526020019081526020016000206000505410156100f557600090506101e9565b81600060005060003373ffffffffffffffffffffffffffffffffffffffff16815260200190815260200160002060008282825054039250508190555081600060005060008573ffffffffffffffffffffffffffffffffffffffff1681526020019081526020016000206000828282505401925050819055507f16cdf1707799c6655baac6e210f52b94b7cec08adcaf9ede7dfe8649da926146338484604051808473ffffffffffffffffffffffffffffffffffffffff1681526020018373ffffffffffffffffffffffffffffffffffffffff168152602001828152602001935050505060405180910390a1600190506101e9565b92915050560000000000000000000000000000000000000000000000000000000000000063",
      "r": "0x682865f23df9707f20af153a88151ae331378f86d63a16b6f50a897dcdd6e694",
      "s": "0x6f4a4c7adf2b207a542622dec2933c29e9f28a965ae37590d48804a9b6f56b4e",
      "v": 27,
      "creates": "0x4D4D551Bd6244b854E732572902f19F4ccaA6996",
      "raw": "0xf902c480850d156a4db0830186a08080b9027160606040526040516020806102518339016040526060805190602001505b80600060005060003373ffffffffffffffffffffffffffffffffffffffff168152602001908152602001600020600050819055505b506101ef806100626000396000f30060606040526000357c01000000000000000000000000000000000000000000000000000000009004806390b98a1114610044578063bbd39ac01461007157610042565b005b61005b6004803590602001803590602001506100b3565b6040518082815260200191505060405180910390f35b610082600480359060200150610098565b6040518082815260200191505060405180910390f35b60006000506020528060005260406000206000915090505481565b600081600060005060003373ffffffffffffffffffffffffffffffffffffffff1681526020019081526020016000206000505410156100f557600090506101e9565b81600060005060003373ffffffffffffffffffffffffffffffffffffffff16815260200190815260200160002060008282825054039250508190555081600060005060008573ffffffffffffffffffffffffffffffffffffffff1681526020019081526020016000206000828282505401925050819055507f16cdf1707799c6655baac6e210f52b94b7cec08adcaf9ede7dfe8649da926146338484604051808473ffffffffffffffffffffffffffffffffffffffff1681526020018373ffffffffffffffffffffffffffffffffffffffff168152602001828152602001935050505060405180910390a1600190506101e9565b929150505600000000000000000000000000000000000000000000000000000000000000631ba0682865f23df9707f20af153a88151ae331378f86d63a16b6f50a897dcdd6e694a06f4a4c7adf2b207a542622dec2933c29e9f28a965ae37590d48804a9b6f56b4e",
      "networkId": 0,
      "chainId": 0
    },
    {
      "hash": "0x60c9e55c2c9cd42585362624a4a17b548152ca49eeb4886c089b0c2420d3216d",
      "blockHash": "0x1ca2414a1149777ef81140cefda7734e051be3fa62135353f2dd1d099ad3f39e",
      "blockNumber": 97281,
      "transactionIndex": 1,
      "confirmations": null,
      "from": "0x4BBc2EF7E5482B88E8c9C4bc05c5A3d3FF2B03c7",
      "gasPrice": {
        "_hex": "0xccc35123b"
      },
      "gasLimit": {
        "_hex": "0x15f90"
      },
      "to": "0xae07246D1A65F10106440Af2A3BD29aD124792f2",
      "value": {
        "_hex": "0x0"
      },
      "nonce": 9,
      "data": "0x41c0e1b5",
      "r": "0x146b522981ab6b020b81eda6a9584e8c05287a264722959313cf080a6899ff15",
      "s": "0x2540335f0efdba77bf0408801abd21da11330dcef335eaccb4099747c93014ad",
      "v": 27,
      "creates": null,
      "raw": "0xf86909850ccc35123b83015f9094ae07246d1a65f10106440af2a3bd29ad124792f2808441c0e1b51ba0146b522981ab6b020b81eda6a9584e8c05287a264722959313cf080a6899ff15a02540335f0efdba77bf0408801abd21da11330dcef335eaccb4099747c93014ad",
      "networkId": 0,
      "chainId": 0
    }
  ]
}