{
  "hash": "0xea7d00266218ed2adef46b7f7488bbf4f09af85f4ba658e917bee73dff900263",
  "parentHash": "0x9b8f519c3cde410a885928771ae4b4efe9194065a3b8f77a4626a9e8178a546c",
  "number": 85420,
  "timestamp": 1439563265,
  "nonce": "0x9a1e2ad3a3d5ca93",
  "difficulty": 2747692442194,
  "gasLimit": {
    "_hex": "0x2fefd8"
  },
  "gasUsed": {
    "_hex": "0x5208"
  },
  "miner": "0x897d64aD0a333394b4E4ae8e8DCccdbc71d4E4E8",
  "extraData": "0x",
  "transactions": [
    {
      "hash": "0xe109bbfd82d98bd848536665a8e5a260a668923bf58cc8f778fd3d85a90adeef",
      "blockHash": "0xea7d00266218ed2adef46b7f7488bbf4f09af85f4ba658e917bee73dff900263",
      "blockNumber": 85420,
      "transactionIndex": 0,
      "confirmations": null,
      "from": "0x943800a6196105B4937F48570Dc5D0232a962da5",
      "gasPrice": {
        "_hex": "0xba43b7400"
      },
      "gasLimit": {
        "_hex": "0x5b04"
      },
      "to": "0xCA82b9C8D4aEe4eA3470aa545330c21Fa4eEb979",
      "value": {
        "_hex": "0x8ac7230489e80000"
      },
      "nonce": 3,
      "data": "0x",
      "r": "0x15d69e129cc2f27bd4b770481aba2154bfc3ef0a0de35d77df04fc41ac0a1d1b",
      "s": "0xcf0f496b23e2026dae7ba04eac6da8c99b443b600c416ed7f74aebe5a6632de3",
      "v": 27,
      "creates": null,
      "raw": "0xf86c03850ba43b7400825b0494ca82b9c8d4aee4ea3470aa545330c21fa4eeb979888ac7230489e80000801ba015d69e129cc2f27bd4b770481aba2154bfc3ef0a0de35d77df04fc41ac0a1d1ba0cf0f496b23e2026dae7ba04eac6da8c99b443b600c416ed7f74aebe5a6632de3",
      "networkId": 0,
      "chainId": 0
    }
  ]
}