{
  "hash": "0x5bfa5e8ea7b758291c9b7732938ab936b074f12e98d04c22f5551b06ddbab039",
  "parentHash": "0xb495a28615b6a136dca3885cb3d89e9febd4fc706b5899e38454aa011a2a1716",
  "number": 86762,
  "timestamp": 1439582503,
  "nonce": "0x296e52131d55c99a",
  "difficulty": 2950251841641,
  "gasLimit": {
    "_hex": "0x2fefd8"
  },
  "gasUsed": {
    "_hex": "0xa410"
  },
  "miner": "0xe6A7a1d47ff21B6321162AEA7C6CB457D5476Bca",
  "extraData": "0x476574682f76312e302e312d38326566323666362f6c696e75782f676f312e34",
  "transactions": [
    {
      "hash": "0xc782c64e4204c4463f611e35362fe29b68082c0e939c321627243fb8526d1aff",
      "blockHash": "0x5bfa5e8ea7b758291c9b7732938ab936b074f12e98d04c22f5551b06ddbab039",
      "blockNumber": 86762,
      "transactionIndex": 0,
      "confirmations": null,
      "from": "0x120A270bbC009644e35F0bB6ab13f95b8199c4ad",
      "gasPrice": {
        "_hex": "0xd72b8ec60"
      },
      "gasLimit": {
        "_hex": "0x3d090"
      },
      "to": "0x8f717ec1552f4C440084fBa1154A81DC003EbdC0",
      "value": {
        "_hex": "0x410d586a20a4c0000"
      },
      "nonce": 481,
      "data": "0x",
      "r": "0x19fd51cef17ebb082fe9ef95c5afdd3e3f02ff1768135b9acd1ceb0b29439a3c",
      "s": "0x0d3f6112625f83c6e1c85711ebeb61f6a40517502428300674e2d30196882e04",
      "v": 27,
      "creates": null,
      "raw": "0xf8708201e1850d72b8ec608303d090948f717ec1552f4c440084fba1154a81dc003ebdc0890410d586a20a4c0000801ba019fd51cef17ebb082fe9ef95c5afdd3e3f02ff1768135b9acd1ceb0b29439a3ca00d3f6112625f83c6e1c85711ebeb61f6a40517502428300674e2d30196882e04",
      "networkId": 0,
      "chainId": 0
    },
    {
      "hash": "0x18aff30a8ae1933cf1cff9ae6401648deeec495cbb0a5936e7e410c1d06a3cf2",
      "blockHash": "0x5bfa5e8ea7b758291c9b7732938ab936b074f12e98d04c22f5551b06ddbab039",
      "blockNumber": 86762,
      "transactionIndex": 1,
      "confirmations": null,
      "from": "0x120A270bbC009644e35F0bB6ab13f95b8199c4ad",
      "gasPrice": {
        "_hex": "0xd72b8ec60"
      },
      "gasLimit": {
        "_hex": "0x3d090"
      },
      "to": "0x893017ff1ADAD499aa065401B4236Ce6e92b625a",
      "value": {
        "_hex": "0xd529ae9e860000"
      },
      "nonce": 482,
      "data": "0x",
      "r": "0x33a3ae6ed367375e0129fbeac13c4760353f9698d3639ebb54bc388ce4401dbd",
      "s": "0x005f0c9ed0eb1e53f625f4b8cab48f89dc9f46205c56fc42d15cb6db5e6741a9",
      "v": 27,
      "creates": null,
      "raw": "0xf86d8201e2850d72b8ec608303d09094893017ff1adad499aa065401b4236ce6e92b625a87d529ae9e860000801ba033a3ae6ed367375e0129fbeac13c4760353f9698d3639ebb54bc388ce4401dbd9f5f0c9ed0eb1e53f625f4b8cab48f89dc9f46205c56fc42d15cb6db5e6741a9",
      "networkId": 0,
      "chainId": 0
    }
  ]
}