{
  "hash": "0xd0d9bb984bf01a076b4dbc9816bb57c5478a1868b94adfe85ab7865cec6b42dd",
  "parentHash": "0xad12d6eba5e501d1ad47399c96fe62d6b48951cbd2af0bed3f828779fcbe1f97",
  "number": 50280,
  "timestamp": 1438986543,
  "nonce": "0xb8c2a2e6541bb25c",
  "difficulty": 1514887289878,
  "gasLimit": {
    "_hex": "0x5ab15"
  },
  "gasUsed": {
    "_hex": "0xa410"
  },
  "miner": "0xF2d2AfF1320476cb8C6b607199D23175cc595693",
  "extraData": "0x476574682f76312e302e312f77696e646f77732f676f312e342e32",
  "transactions": [
    {
      "hash": "0xffbea9f544b2d219e81e7feec343fdf1aff5d84bf385d790088c129c7086205b",
      "blockHash": "0xd0d9bb984bf01a076b4dbc9816bb57c5478a1868b94adfe85ab7865cec6b42dd",
      "blockNumber": 50280,
      "transactionIndex": 0,
      "confirmations": null,
      "from": "0xcaD6D85426181593cf3E16f594824847600c6122",
      "gasPrice": {
        "_hex": "0xd3fa4e5c0"
      },
      "gasLimit": {
        "_hex": "0x5208"
      },
      "to": "0xb6c00721Fbd69a851EE6456d71C429fBd8f0d022",
      "value": {
        "_hex": "0x3782dace9d90000"
      },
      "nonce": 0,
      "data": "0x",
      "r": "0x5734d7e411754fb429408c1accf6ef89d8e9de907e42e1980d7cb73dee0bb1a9",
      "s": "0x554016886dfb329ca1a864bd4ba124f44443b7c8d2e7ba3f13d973d689c08c77",
      "v": 28,
      "creates": null,
      "raw": "0xf86c80850d3fa4e5c082520894b6c00721fbd69a851ee6456d71c429fbd8f0d0228803782dace9d90000801ca05734d7e411754fb429408c1accf6ef89d8e9de907e42e1980d7cb73dee0bb1a9a0554016886dfb329ca1a864bd4ba124f44443b7c8d2e7ba3f13d973d689c08c77",
      "networkId": 0,
      "chainId": 0
    },
    {
      "hash": "0xfabf3c116155aac2a236500d547a8af01400a75f18712c80a321a7058c486405",
      "blockHash": "0xd0d9bb984bf01a076b4dbc9816bb57c5478a1868b94adfe85ab7865cec6b42dd",
      "blockNumber": 50280,
      "transactionIndex": 1,
      "confirmations": null,
      "from": "0x50E13023bD9CA96ad4C53fdfd410CB6b1f420Bdf",
      "gasPrice": {
        "_hex": "0xd16722105"
      },
      "gasLimit": {
        "_hex": "0x15f90"
      },
      "to": "0xfDFD6134c04A8ab7Eb16f00643f8fEd7daaaECB2",
      "value": {
        "_hex": "0xdbd2fc137a30000"
      },
      "nonce": 2,
      "data": "0x",
      "r": "0xea46d4fff15602971cec618b304d037154f8182d75582fbb1652af61dd06d63c",
      "s": "0x3aa9b312752408700eef1d052b4614dc90b4c83d1e9ffbb8c64b038b22930da8",
      "v": 28,
      "creates": null,
      "raw": "0xf86d02850d1672210583015f9094fdfd6134c04a8ab7eb16f00643f8fed7daaaecb2880dbd2fc137a30000801ca0ea46d4fff15602971cec618b304d037154f8182d75582fbb1652af61dd06d63ca03aa9b312752408700eef1d052b4614dc90b4c83d1e9ffbb8c64b038b22930da8",
      "networkId": 0,
      "chainId": 0
    }
  ]
}