{
  "hash": "0x81121c2eda893f813b9b1ddd5a3ebd27df1d725fa4881055c140af22ba569a51",
  "parentHash": "0x9751b6c0efaf157d1b30159b879a49ce519b48b85d25cb8eca376a05dced92e7",
  "number": 107099,
  "timestamp": 1439915883,
  "nonce": "0x47cc9ae65dab983d",
  "difficulty": 4472391342528,
  "gasLimit": {
    "_hex": "0x2fefd8"
  },
  "gasUsed": {
    "_hex": "0x5208"
  },
  "miner": "0xe6A7a1d47ff21B6321162AEA7C6CB457D5476Bca",
  "extraData": "0x476574682f76312e302e312d38326566323666362f6c696e75782f676f312e34",
  "transactions": [
    {
      "hash": "0x83bc15ba157395ca54cd7e68ee395e71333f82248b01fe66e7928e5b03311fcb",
      "blockHash": "0x81121c2eda893f813b9b1ddd5a3ebd27df1d725fa4881055c140af22ba569a51",
      "blockNumber": 107099,
      "transactionIndex": 0,
      "confirmations": null,
      "from": "0x120A270bbC009644e35F0bB6ab13f95b8199c4ad",
      "gasPrice": {
        "_hex": "0xdecf210f3"
      },
      "gasLimit": {
        "_hex": "0x3d090"
      },
      "to": "0xdDbddD1BBd38fFADE0305d30f02028D92e9f3Aa8",
      "value": {
        "_hex": "0x25f273933db5700000"
      },
      "nonce": 799,
      "data": "0x",
      "r": "0x2e00c67a71ff9ef630f5c79846cb5bacab51deeb95c80d5b9cf2ef84c81731ae",
      "s": "0x4a9d4684bfd82a34064f2214ca0d2e0c0af45408f76bc7954292c6a0bbdf72a7",
      "v": 28,
      "creates": null,
      "raw": "0xf87082031f850decf210f38303d09094ddbddd1bbd38ffade0305d30f02028d92e9f3aa88925f273933db5700000801ca02e00c67a71ff9ef630f5c79846cb5bacab51deeb95c80d5b9cf2ef84c81731aea04a9d4684bfd82a34064f2214ca0d2e0c0af45408f76bc7954292c6a0bbdf72a7",
      "networkId": 0,
      "chainId": 0
    }
  ]
}