{
  "hash": "0x11089b8dd4090d4b7e5ce64c75a55f9f11e0c20666bf2257ac61fb17a4fb7466",
  "parentHash": "0xe521c82c2b220283f949674c33c482cd7f441e137efbb50e8744fdfea0e8c507",
  "number": 107819,
  "timestamp": 1439929330,
  "nonce": "0xcfa2a698ecf82033",
  "difficulty": 4376953936363,
  "gasLimit": {
    "_hex": "0x2fefd8"
  },
  "gasUsed": {
    "_hex": "0x5208"
  },
  "miner": "0xe6A7a1d47ff21B6321162AEA7C6CB457D5476Bca",
  "extraData": "0x476574682f76312e302e312d38326566323666362f6c696e75782f676f312e34",
  "transactions": [
    {
      "hash": "0x3401f473e2f8aeb38e1806be839003b33802d2998d057b3a9ffb8936bf457988",
      "blockHash": "0x11089b8dd4090d4b7e5ce64c75a55f9f11e0c20666bf2257ac61fb17a4fb7466",
      "blockNumber": 107819,
      "transactionIndex": 0,
      "confirmations": null,
      "from": "0x97B9A4CDBD07f595BE3B5bFC82fA8bFbE4a9d0D9",
      "gasPrice": {
        "_hex": "0x103e7f77f4f"
      },
      "gasLimit": {
        "_hex": "0x55f0"
      },
      "to": "0x2b176421eEBBf303fa94aD4fE78362Fa9e4Ca693",
      "value": {
        "_hex": "0x3782dace9d900000"
      },
      "nonce": 0,
      "data": "0x",
      "r": "0x078a8d853912541d32741f7a7a3832cc8b88454bc7960b3d08b8c83fb9468349",
      "s": "0x10bf9f599e930344eabb0fe8dbba9b047d1f5d58247674918cea9a1d0676dbc9",
      "v": 28,
      "creates": null,
      "raw": "0xf86d80860103e7f77f4f8255f0942b176421eebbf303fa94ad4fe78362fa9e4ca693883782dace9d900000801ca0078a8d853912541d32741f7a7a3832cc8b88454bc7960b3d08b8c83fb9468349a010bf9f599e930344eabb0fe8dbba9b047d1f5d58247674918cea9a1d0676dbc9",
      "networkId": 0,
      "chainId": 0
    }
  ]
}