{
  "hash": "0xc6dfb485592068fbfa1372024b8a9fbe5c2c4a3686e4cee4c8473cd962255a1b",
  "parentHash": "0x41e18d761ab3f11c2e4de29a3682817c65eb4a3f70d256518671173d1065a430",
  "number": 109509,
  "timestamp": 1439957781,
  "nonce": "0x3a562cea5c3bc4f7",
  "difficulty": 4449328270010,
  "gasLimit": {
    "_hex": "0x2fefd8"
  },
  "gasUsed": {
    "_hex": "0x5208"
  },
  "miner": "0xe6A7a1d47ff21B6321162AEA7C6CB457D5476Bca",
  "extraData": "0x476574682f76312e302e312d38326566323666362f6c696e75782f676f312e34",
  "transactions": [
    {
      "hash": "0x240a644dbceb95b3d74d2b6abf29c54e12b8195ccb7820b2adff151abf77a492",
      "blockHash": "0xc6dfb485592068fbfa1372024b8a9fbe5c2c4a3686e4cee4c8473cd962255a1b",
      "blockNumber": 109509,
      "transactionIndex": 0,
      "confirmations": null,
      "from": "0x04ECA501630Abce35218b174956b891bA25EFb23",
      "gasPrice": {
        "_hex": "0xba43b7400"
      },
      "gasLimit": {
        "_hex": "0x15f90"
      },
      "to": "0x535260c47e6B717F5454aB608e5e861A09cee648",
      "value": {
        "_hex": "0x3520ed0a78f9950000"
      },
      "nonce": 1,
      "data": "0x",
      "r": "0xed9ce8f33a5fd8d353c7568fe426bdab404d0264aeb4ff7fe2c49f19c172d121",
      "s": "0x4a1ad2aca2318b55729d377c25eebc13dfa55c5736fb4c34fdf7ce1de7b3cc84",
      "v": 27,
      "creates": null,
      "raw": "0xf86e01850ba43b740083015f9094535260c47e6b717f5454ab608e5e861a09cee648893520ed0a78f9950000801ba0ed9ce8f33a5fd8d353c7568fe426bdab404d0264aeb4ff7fe2c49f19c172d121a04a1ad2aca2318b55729d377c25eebc13dfa55c5736fb4c34fdf7ce1de7b3cc84",
      "networkId": 0,
      "chainId": 0
    }
  ]
}