{
  "hash": "0x98187fa875e9f6adf2ccb58b25702289147ea45465a136e13a18f1cc4493a5f5",
  "parentHash": "0xf3494b0e3b6e3b200c1c8a240277eed250a0714b6ac4ce98f1c9c39ad9e92414",
  "number": 121382,
  "timestamp": 1440176316,
  "nonce": "0x26f0fcecf1733108",
  "difficulty": 4389128684032,
  "gasLimit": {
    "_hex": "0x2fefd8"
  },
  "gasUsed": {
    "_hex": "0x20fc6"
  },
  "miner": "0x52bc44d5378309EE2abF1539BF71dE1b7d7bE3b5",
  "extraData": "0xd783010002844765746887676f312e342e32856c696e7578",
  "transactions": [
    {
      "hash": "0xac7042f6da0100e0833cb1a66c0cbbbeebced8cd31c2776f2bdc77671a333839",
      "blockHash": "0x98187fa875e9f6adf2ccb58b25702289147ea45465a136e13a18f1cc4493a5f5",
      "blockNumber": 121382,
      "transactionIndex": 0,
      "confirmations": null,
      "from": "0x76aF50b39dE841a048832863e39A3076041dBEf4",
      "gasPrice": {
        "_hex": "0xd96729134"
      },
      "gasLimit": {
        "_hex": "0x249f0"
      },
      "to": "0xE28e72FCf78647ADCe1F1252F240bbfaebD63BcC",
      "value": {
        "_hex": "0x56ba3d73af34f0000"
      },
      "nonce": 0,
      "data": "0x45466f3a",
      "r": "0x457063ad81de2cdc3a2c4e2355bc35485e5c2dbb7f5ecab4894f48b15aef0c1e",
      "s": "0x7a66296bcad14305e525a4a37d52b1d26ea318a44c87ea7fbec668bf4b2281b0",
      "v": 28,
      "creates": null,
      "raw": "0xf87280850d96729134830249f094e28e72fcf78647adce1f1252f240bbfaebd63bcc89056ba3d73af34f00008445466f3a1ca0457063ad81de2cdc3a2c4e2355bc35485e5c2dbb7f5ecab4894f48b15aef0c1ea07a66296bcad14305e525a4a37d52b1d26ea318a44c87ea7fbec668bf4b2281b0",
      "networkId": 0,
      "chainId": 0
    },
    {
      "hash": "0xec9f2ce8f4179d7e34b7c4a0d73140cc944a6d3960fa9645d309b49da5389775",
      "blockHash": "0x98187fa875e9f6adf2ccb58b25702289147ea45465a136e13a18f1cc4493a5f5",
      "blockNumber": 121382,
      "transactionIndex": 1,
      "confirmations": null,
      "from": "0x32Be343B94f860124dC4fEe278FDCBD38C102D88",
      "gasPrice": {
        "_hex": "0xba43b7400"
      },
      "gasLimit": {
        "_hex": "0x5208"
      },
      "to": "0xBdF25376dA0767EfBF7eE3dCAe463ECe5572bFF3",
      "value": {
        "_hex": "0x32ba2aeab2fb960000"
      },
      "nonce": 1553,
      "data": "0x",
      "r": "0x509996cb2668152260a843e296f54fb1bc08d9d99eda5fbdcc1b4e0841348dae",
      "s": "0x28158a185e52560ac0f761e1d5735f34227cedd632c30e17052d272baa7d10c1",
      "v": 27,
      "creates": null,
      "raw": "0xf86f820611850ba43b740082520894bdf25376da0767efbf7ee3dcae463ece5572bff38932ba2aeab2fb960000801ba0509996cb2668152260a843e296f54fb1bc08d9d99eda5fbdcc1b4e0841348daea028158a185e52560ac0f761e1d5735f34227cedd632c30e17052d272baa7d10c1",
      "networkId": 0,
      "chainId": 0
    }
  ]
}