{
  "hash": "0xf5cb69e4783ad34c42c5ec1f73da602ec10beb502303f655934d42e3e0bc5d9e",
  "parentHash": "0x1f075cf5791c4f72371baa72fab31b2890a234db8ff18ccd8a97cf4c09e4434c",
  "number": 85839,
  "timestamp": 1439569613,
  "nonce": "0x83d872a06af7f18b",
  "difficulty": 2773163824388,
  "gasLimit": {
    "_hex": "0x2fefd8"
  },
  "gasUsed": {
    "_hex": "0x14820"
  },
  "miner": "0xe6A7a1d47ff21B6321162AEA7C6CB457D5476Bca",
  "extraData": "0x476574682f76312e302e312d38326566323666362f6c696e75782f676f312e34",
  "transactions": [
    {
      "hash": "0x0e07f6aca7c9d0bb6d6221ac2561757791a0b0c3fdee7c8d79046b8a86abf858",
      "blockHash": "0xf5cb69e4783ad34c42c5ec1f73da602ec10beb502303f655934d42e3e0bc5d9e",
      "blockNumber": 85839,
      "transactionIndex": 0,
      "confirmations": null,
      "from": "0x7D45E10A0d63eCCA0694a7cbfF030f4dD87DA0dC",
      "gasPrice": {
        "_hex": "0xda857a51e"
      },
      "gasLimit": {
        "_hex": "0x15f90"
      },
      "to": "0x6d921977dEFE5f4e0682CA512De1D07b1f4802E1",
      "value": {
        "_hex": "0x8ac7230489e80000"
      },
      "nonce": 12,
      "data": "0x",
      "r": "0xe4b11a8f7a7cccc9f1f53989f439bb3b2fee141ea5beb8a1ca42e908d5fe8cf5",
      "s": "0x74ec71c949f51b7489ae4ca78cf0cbb865bdda897ea07daff29bbcea7442d065",
      "v": 28,
      "creates": null,
      "raw": "0xf86d0c850da857a51e83015f90946d921977defe5f4e0682ca512de1d07b1f4802e1888ac7230489e80000801ca0e4b11a8f7a7cccc9f1f53989f439bb3b2fee141ea5beb8a1ca42e908d5fe8cf5a074ec71c949f51b7489ae4ca78cf0cbb865bdda897ea07daff29bbcea7442d065",
      "networkId": 0,
      "chainId": 0
    },
    {
      "hash": "0x94de6892e6ebc62d68fa59a0628d606adee889d2c61eec8e551a10f30d6d1c13",
      "blockHash": "0xf5cb69e4783ad34c42c5ec1f73da602ec10beb502303f655934d42e3e0bc5d9e",
      "blockNumber": 85839,
      "transactionIndex": 1,
      "confirmations": null,
      "from": "0x7D45E10A0d63eCCA0694a7cbfF030f4dD87DA0dC",
      "gasPrice": {
        "_hex": "0xda857a51e"
      },
      "gasLimit": {
        "_hex": "0x15f90"
      },
      "to": "0x6d921977dEFE5f4e0682CA512De1D07b1f4802E1",
      "value": {
        "_hex": "0x8ac7230489e80000"
      },
      "nonce": 13,
      "data": "0x",
      "r": "0x5553b66f5782ed70c36adf6784cb8bb395adacbe47aae524b96a908a450dd028",
      "s": "0x2ac6d48dd1a6e13bf4bb6b770f96aed15e7a3c39f6ef45eec645e35b60df8dcc",
      "v": 27,
      "creates": null,
      "raw": "0xf86d0d850da857a51e83015f90946d921977defe5f4e0682ca512de1d07b1f4802e1888ac7230489e80000801ba05553b66f5782ed70c36adf6784cb8bb395adacbe47aae524b96a908a450dd028a02ac6d48dd1a6e13bf4bb6b770f96aed15e7a3c39f6ef45eec645e35b60df8dcc",
      "networkId": 0,
      "chainId": 0
    },
    {
      "hash": "0x8d0551c9238d8803233328897f1acb3b49d61727334d702d89cbf17197357e9e",
      "blockHash": "0xf5cb69e4783ad34c42c5ec1f73da602ec10beb502303f655934d42e3e0bc5d9e",
      "blockNumber": 85839,
      "transactionIndex": 2,
      "confirmations": null,
      "from": "0x7D45E10A0d63eCCA0694a7cbfF030f4dD87DA0dC",
      "gasPrice": {
        "_hex": "0xda857a51e"
      },
      "gasLimit": {
        "_hex": "0x15f90"
      },
      "to": "0x6d921977dEFE5f4e0682CA512De1D07b1f4802E1",
      "value": {
        "_hex": "0x8ac7230489e80000"
      },
      "nonce": 14,
      "data": "0x",
      "r": "0x2e1804c6803b25a7113700427c3679644d37aed9a75af8d4de27df0aafd60fcf",
      "s": "0x4706fd60c2a79528d4d2ee76b20aac1ce85c7c05e82f6019de1bb5be407c6b81",
      "v": 28,
      "creates": null,
      "raw": "0xf86d0e850da857a51e83015f90946d921977defe5f4e0682ca512de1d07b1f4802e1888ac7230489e80000801ca02e1804c6803b25a7113700427c3679644d37aed9a75af8d4de27df0aafd60fcfa04706fd60c2a79528d4d2ee76b20aac1ce85c7c05e82f6019de1bb5be407c6b81",
      "networkId": 0,
      "chainId": 0
    },
    {
      "hash": "0xf6ff4c4c4b72c921f7e24e19c737657b425ec6aa485d5489a623d5ea7f3cb43a",
      "blockHash": "0xf5cb69e4783ad34c42c5ec1f73da602ec10beb502303f655934d42e3e0bc5d9e",
      "blockNumber": 85839,
      "transactionIndex": 3,
      "confirmations": null,
      "from": "0x7D45E10A0d63eCCA0694a7cbfF030f4dD87DA0dC",
      "gasPrice": {
        "_hex": "0xda857a51e"
      },
      "gasLimit": {
        "_hex": "0x15f90"
      },
      "to": "0x6d921977dEFE5f4e0682CA512De1D07b1f4802E1",
      "value": {
        "_hex": "0x7ce66c50e2840000"
      },
      "nonce": 15,
      "data": "0x",
      "r": "0x31ed1962502839f8a55d842c4eaf7b1520484e709aa2a4d9a34d204c54ad0d59",
      "s": "0x1cc1a6b2890e0190713477a825c984a7b06c8be74e87dd6e22c0a0fc2a71267d",
      "v": 28,
      "creates": null,
      "raw": "0xf86d0f850da857a51e83015f90946d921977defe5f4e0682ca512de1d07b1f4802e1887ce66c50e2840000801ca031ed1962502839f8a55d842c4eaf7b1520484e709aa2a4d9a34d204c54ad0d59a01cc1a6b2890e0190713477a825c984a7b06c8be74e87dd6e22c0a0fc2a71267d",
      "networkId": 0,
      "chainId": 0
    }
  ]
}