{
  "hash": "0xcba4c91038fb4815fa147832de264f6dfd79e806fe9db909f97af11e1c9cac5e",
  "parentHash": "0x26b94cd7dfafd56197b3cd66499cf707133a588307b93499b35a2684fc58d18c",
  "number": 75330,
  "timestamp": 1439401543,
  "nonce": "0x454ca76c6a7c15da",
  "difficulty": 2193287920430,
  "gasLimit": {
    "_hex": "0x2fefd8"
  },
  "gasUsed": {
    "_hex": "0x2069f"
  },
  "miner": "0x580992B51e3925e23280EfB93d3047C82f17E038",
  "extraData": "0x476574682f76312e302e312f6c696e75782f676f312e342e32",
  "transactions": [
    {
      "hash": "0x503cb1c24c9a3dedb37ceb0d4e0e08fb58821256d3c3f1cd114a1454e29dd588",
      "blockHash": "0xcba4c91038fb4815fa147832de264f6dfd79e806fe9db909f97af11e1c9cac5e",
      "blockNumber": 75330,
      "transactionIndex": 0,
      "confirmations": null,
      "from": "0x326Be8F71bFb0379f989aAB1CC1fE37f0a771f60",
      "gasPrice": {
        "_hex": "0x11554a7ebe1"
      },
      "gasLimit": {
        "_hex": "0x493e0"
      },
      "to": "0xD79B4C6791784184e2755B2fC1659eaaB0f80456",
      "value": {
        "_hex": "0xde0b6b3a7640000"
      },
      "nonce": 92,
      "data": "0x8d21618600000000000000000000000000000000000000000000000000000000000000808e39c8b55003f74aba8df86f2a63e4eca9c555a6898c677b8a6770c41ffb88b8",
      "r": "0xfd3460600bcb8b51ff48afe158d1303428859fafed22a25615e430b5ff20e22d",
      "s": "0x29f385deaf0345eae22acb14d08fa334199cedd39596705c303575f1b1343670",
      "v": 28,
      "creates": null,
      "raw": "0xf8b35c86011554a7ebe1830493e094d79b4c6791784184e2755b2fc1659eaab0f80456880de0b6b3a7640000b8448d21618600000000000000000000000000000000000000000000000000000000000000808e39c8b55003f74aba8df86f2a63e4eca9c555a6898c677b8a6770c41ffb88b81ca0fd3460600bcb8b51ff48afe158d1303428859fafed22a25615e430b5ff20e22da029f385deaf0345eae22acb14d08fa334199cedd39596705c303575f1b1343670",
      "networkId": 0,
      "chainId": 0
    },
    {
      "hash": "0x4c317ecd24fff5207cf93a5aee47272ea9e2f8109ecef315dfa8da425a98880f",
      "blockHash": "0xcba4c91038fb4815fa147832de264f6dfd79e806fe9db909f97af11e1c9cac5e",
      "blockNumber": 75330,
      "transactionIndex": 1,
      "confirmations": null,
      "from": "0x32Be343B94f860124dC4fEe278FDCBD38C102D88",
      "gasPrice": {
        "_hex": "0xdaa0b62d9"
      },
      "gasLimit": {
        "_hex": "0x5208"
      },
      "to": "0xb794F5eA0ba39494cE839613fffBA74279579268",
      "value": {
        "_hex": "0x54b40b1f852bd800000"
      },
      "nonce": 337,
      "data": "0x",
      "r": "0x8974d28261a0b48f1af1b83186d845601936ba2be74109623fbfaf337c22a56c",
      "s": "0x25f91f49025e0a30b1812416f78b48ce4cd15c01ca7009296c9c36cd84593241",
      "v": 28,
      "creates": null,
      "raw": "0xf870820151850daa0b62d982520894b794f5ea0ba39494ce839613fffba742795792688a054b40b1f852bd800000801ca08974d28261a0b48f1af1b83186d845601936ba2be74109623fbfaf337c22a56ca025f91f49025e0a30b1812416f78b48ce4cd15c01ca7009296c9c36cd84593241",
      "networkId": 0,
      "chainId": 0
    }
  ]
}