{
  "hash": "0xa20bf99f445a0e37135aac0ebb7a97d27b3e1341cd682e9ef6645e4b091015c6",
  "parentHash": "0x36ee3a02303b9d066b34be632101015698a18da8a0f15a0c887af74309937203",
  "number": 53019,
  "timestamp": 1439031106,
  "nonce": "0x9ac77dee93353c9a",
  "difficulty": 1573950573381,
  "gasLimit": {
    "_hex": "0x1de3a3"
  },
  "gasUsed": {
    "_hex": "0x546c"
  },
  "miner": "0xeB1325C8D9d3ea8D74aC11F4B00F1B2367686319",
  "extraData": "0x476574682f76312e302e312f77696e646f77732f676f312e342e32",
  "transactions": [
    {
      "hash": "0x3cc50d91df0c2b7421564464ac3323cd8e48e35fcd552e88f714e5a0e7192bf0",
      "blockHash": "0xa20bf99f445a0e37135aac0ebb7a97d27b3e1341cd682e9ef6645e4b091015c6",
      "blockNumber": 53019,
      "transactionIndex": 0,
      "confirmations": null,
      "from": "0x333Ad1596401e05Aea2d36Ca47318eF4Cd2cB3DF",
      "gasPrice": {
        "_hex": "0xd4b86f949"
      },
      "gasLimit": {
        "_hex": "0x15f90"
      },
      "to": "0x2910543Af39abA0Cd09dBb2D50200b3E800A63D2",
      "value": {
        "_hex": "0x1a3322855dea4a0000"
      },
      "nonce": 3,
      "data": "0x454e37485242515552",
      "r": "0xa23495d26b220ccf47c9cdb81c0f19fbd702def847fc62a455aaa63d21fc92c6",
      "s": "0x6fc97c5176b25872b54802085a1fe715be3b350ca9b2b5c62e58bca61fa12699",
      "v": 27,
      "creates": null,
      "raw": "0xf87703850d4b86f94983015f90942910543af39aba0cd09dbb2d50200b3e800a63d2891a3322855dea4a000089454e374852425155521ba0a23495d26b220ccf47c9cdb81c0f19fbd702def847fc62a455aaa63d21fc92c6a06fc97c5176b25872b54802085a1fe715be3b350ca9b2b5c62e58bca61fa12699",
      "networkId": 0,
      "chainId": 0
    }
  ]
}