{
  "hash": "0x65cd0fac377f30dd6972a43612772734be4e9441bcb6bce9d648063688b70bd5",
  "parentHash": "0x22ab0b4f2d98181d673c6db0fbef2f30a61cdf421853467b195029208da46d71",
  "number": 63226,
  "timestamp": 1439201174,
  "nonce": "0x94a0bda555b914d6",
  "difficulty": 1808519777203,
  "gasLimit": {
    "_hex": "0x2fefd8"
  },
  "gasUsed": {
    "_hex": "0x5208"
  },
  "miner": "0xA21Ba94e45f0E168dA824fC67aC9cb5Cb577a8aF",
  "extraData": "0x",
  "transactions": [
    {
      "hash": "0x252484585577c77f2c0b4dd687813a7ff5a3e7afeec423ae06937f72c22ee518",
      "blockHash": "0x65cd0fac377f30dd6972a43612772734be4e9441bcb6bce9d648063688b70bd5",
      "blockNumber": 63226,
      "transactionIndex": 0,
      "confirmations": null,
      "from": "0x01Ad0ACFf478127D9d702B1A13599D706cB759b1",
      "gasPrice": {
        "_hex": "0xdf356b730"
      },
      "gasLimit": {
        "_hex": "0x5208"
      },
      "to": "0x32Be343B94f860124dC4fEe278FDCBD38C102D88",
      "value": {
        "_hex": "0x8ac2aaa30d923800"
      },
      "nonce": 5,
      "data": "0x",
      "r": "0xb77fe16fd83756ab0c8b84674cd68d28ce227a421b010d12976838054d71e9bd",
      "s": "0x296656169dfaae267229cb1e14d40d5c37b975e63cfbc94ae8b3a77423b0c3be",
      "v": 28,
      "creates": null,
      "raw": "0xf86c05850df356b7308252089432be343b94f860124dc4fee278fdcbd38c102d88888ac2aaa30d923800801ca0b77fe16fd83756ab0c8b84674cd68d28ce227a421b010d12976838054d71e9bda0296656169dfaae267229cb1e14d40d5c37b975e63cfbc94ae8b3a77423b0c3be",
      "networkId": 0,
      "chainId": 0
    }
  ]
}