{
  "hash": "0xff261b995e8adde41e0d8a32a15d27ecf4207797e0e57bb05edecd36f5fd7d20",
  "parentHash": "0x6e8d7c29a5214439ea4ceb4f2c460fee08f1e3b6bbf2b13c4f61f792b4945cf4",
  "number": 72626,
  "timestamp": 1439355674,
  "nonce": "0x9da4de1c51635a1d",
  "difficulty": 2200432168223,
  "gasLimit": {
    "_hex": "0x2fefd8"
  },
  "gasUsed": {
    "_hex": "0x5208"
  },
  "miner": "0x580992B51e3925e23280EfB93d3047C82f17E038",
  "extraData": "0x476574682f76312e302e312f6c696e75782f676f312e342e32",
  "transactions": [
    {
      "hash": "0x5f230a1924c65162feae3de12fa69938ff10faf706086211151fc63d7061faa6",
      "blockHash": "0xff261b995e8adde41e0d8a32a15d27ecf4207797e0e57bb05edecd36f5fd7d20",
      "blockNumber": 72626,
      "transactionIndex": 0,
      "confirmations": null,
      "from": "0x458F183347F45a4001807728A89F31E9Da9D4A58",
      "gasPrice": {
        "_hex": "0xd89481ed7"
      },
      "gasLimit": {
        "_hex": "0x15f90"
      },
      "to": "0x7fa165177F28D171bA7C17f765c1904344Ec64CB",
      "value": {
        "_hex": "0x3cb71f51fc5580000"
      },
      "nonce": 8,
      "data": "0x",
      "r": "0x175a523f234360c2aa8cf412ca8b511cd453a63ae6b14b1b0f27abd7df3fa31d",
      "s": "0x2165a11569338bef8aba8e7facb2ec60449a9977e9eea503e28c78526d42c39e",
      "v": 27,
      "creates": null,
      "raw": "0xf86e08850d89481ed783015f90947fa165177f28d171ba7c17f765c1904344ec64cb8903cb71f51fc5580000801ba0175a523f234360c2aa8cf412ca8b511cd453a63ae6b14b1b0f27abd7df3fa31da02165a11569338bef8aba8e7facb2ec60449a9977e9eea503e28c78526d42c39e",
      "networkId": 0,
      "chainId": 0
    }
  ]
}