{
  "hash": "0x9694e437268dd49fa5aa7a119f518f09e8b393c9b48710ab2d519a7c7dd1fdec",
  "parentHash": "0x59450cde3990da01aeb0cc0c1122f83857a4c06cffa6a931e908512d662384f6",
  "number": 108192,
  "timestamp": 1439935948,
  "nonce": "0x88a1e417bed36edd",
  "difficulty": 4366086903871,
  "gasLimit": {
    "_hex": "0x2fefd8"
  },
  "gasUsed": {
    "_hex": "0x5208"
  },
  "miner": "0x7E6930B63D03e88F5928C5cd6ee3FCee4D714F7F",
  "extraData": "0x",
  "transactions": [
    {
      "hash": "0xe74321fc2a125fedfe73b7e2647e7813411efee1734a0a213885f963a17ff3a8",
      "blockHash": "0x9694e437268dd49fa5aa7a119f518f09e8b393c9b48710ab2d519a7c7dd1fdec",
      "blockNumber": 108192,
      "transactionIndex": 0,
      "confirmations": null,
      "from": "0x32Be343B94f860124dC4fEe278FDCBD38C102D88",
      "gasPrice": {
        "_hex": "0xd5e42fe0e"
      },
      "gasLimit": {
        "_hex": "0x5208"
      },
      "to": "0x3f6da2f18Ce077B065ac7bcae884bF439a222B35",
      "value": {
        "_hex": "0x56bc75e2d63100000"
      },
      "nonce": 1245,
      "data": "0x",
      "r": "0x24d27044e306cd226695fffefe6ba527e44b2f69bf8d50bb1a187549aebc88ae",
      "s": "0x701484405c40be17fa48224be948eb7a5cb0b995106754e7e41db2149d7fc983",
      "v": 27,
      "creates": null,
      "raw": "0xf86f8204dd850d5e42fe0e825208943f6da2f18ce077b065ac7bcae884bf439a222b3589056bc75e2d63100000801ba024d27044e306cd226695fffefe6ba527e44b2f69bf8d50bb1a187549aebc88aea0701484405c40be17fa48224be948eb7a5cb0b995106754e7e41db2149d7fc983",
      "networkId": 0,
      "chainId": 0
    }
  ]
}