{
  "hash": "0x37b427389eb48e53d990ba03116a656c827d65e77d4d7df815692cec3b1781a3",
  "parentHash": "0x2662b857da4c2a36fa3a27e492754abb5c572df730386d30aef60c99a55f5e1f",
  "number": 89800,
  "timestamp": 1439629421,
  "nonce": "0x59b65d0688db1e78",
  "difficulty": 3335342136066,
  "gasLimit": {
    "_hex": "0x2fefd8"
  },
  "gasUsed": {
    "_hex": "0x19a28"
  },
  "miner": "0x21D46e5e1C37D3fa2157A393Fa444EafE63646Fa",
  "extraData": "0x",
  "transactions": [
    {
      "hash": "0x434b6f80fd5cf32797255dfa5ed9382dd25328ab1051a0988cdcf8a4f9ae0e03",
      "blockHash": "0x37b427389eb48e53d990ba03116a656c827d65e77d4d7df815692cec3b1781a3",
      "blockNumber": 89800,
      "transactionIndex": 0,
      "confirmations": null,
      "from": "0xC15233674F0Cb7729e4Ab8aB733430C40580914d",
      "gasPrice": {
        "_hex": "0xcd3f635fe"
      },
      "gasLimit": {
        "_hex": "0x5208"
      },
      "to": "0x32Be343B94f860124dC4fEe278FDCBD38C102D88",
      "value": {
        "_hex": "0x3d1feb1f3d80d000"
      },
      "nonce": 4,
      "data": "0x",
      "r": "0xe15710c6d954725202787a38af1cc91d478223ef05972936d906ed7c44d0e39b",
      "s": "0x28b0f6f815f3bff79870a0e558c4266001109ab028ddb5091661bb3bc93e94d8",
      "v": 28,
      "creates": null,
      "raw": "0xf86c04850cd3f635fe8252089432be343b94f860124dc4fee278fdcbd38c102d88883d1feb1f3d80d000801ca0e15710c6d954725202787a38af1cc91d478223ef05972936d906ed7c44d0e39ba028b0f6f815f3bff79870a0e558c4266001109ab028ddb5091661bb3bc93e94d8",
      "networkId": 0,
      "chainId": 0
    },
    {
      "hash": "0x9d29da923b5f2b74095b87a6e8092ca5e7e147b2d44cbc9c934059a1ff6728b1",
      "blockHash": "0x37b427389eb48e53d990ba03116a656c827d65e77d4d7df815692cec3b1781a3",
      "blockNumber": 89800,
      "transactionIndex": 1,
      "confirmations": null,
      "from": "0xb4eb03c9bDD4944DE22085E8e1dB5Ebd36889Bd8",
      "gasPrice": {
        "_hex": "0xcd3f635fe"
      },
      "gasLimit": {
        "_hex": "0x5208"
      },
      "to": "0x32Be343B94f860124dC4fEe278FDCBD38C102D88",
      "value": {
        "_hex": "0x83705bcc71bfc000"
      },
      "nonce": 4,
      "data": "0x",
      "r": "0xdc25da7dae8aaba0df68db9c741541eacc02d4061cd6b9f4cd9ae9cced0164ba",
      "s": "0x69d2a7efe9473755f056d1c664c563a49e26310a17623b211c73a5525ba18e91",
      "v": 27,
      "creates": null,
      "raw": "0xf86c04850cd3f635fe8252089432be343b94f860124dc4fee278fdcbd38c102d888883705bcc71bfc000801ba0dc25da7dae8aaba0df68db9c741541eacc02d4061cd6b9f4cd9ae9cced0164baa069d2a7efe9473755f056d1c664c563a49e26310a17623b211c73a5525ba18e91",
      "networkId": 0,
      "chainId": 0
    },
    {
      "hash": "0x9111eaf93e21f60b2e2aa971c7f63fc971bab2debc9658264f12c88b2b897f9a",
      "blockHash": "0x37b427389eb48e53d990ba03116a656c827d65e77d4d7df815692cec3b1781a3",
      "blockNumber": 89800,
      "transactionIndex": 2,
      "confirmations": null,
      "from": "0x6589D22b54648e5D67Dc008eBd0c836D3DF39c87",
      "gasPrice": {
        "_hex": "0xcd3f635fe"
      },
      "gasLimit": {
        "_hex": "0x5208"
      },
      "to": "0x32Be343B94f860124dC4fEe278FDCBD38C102D88",
      "value": {
        "_hex": "0x6f22507bc8e7d800"
      },
      "nonce": 4,
      "data": "0x",
      "r": "0xd85ecdd391763f1267ed0c0d9e95d3299bbd238827b77ca7aa8e8282c0cc2089",
      "s": "0x6eac402cdfd6ed418c8b60a46ca9511ab0192b69b85450a7bc5c5f709c0a41b5",
      "v": 27,
      "creates": null,
      "raw": "0xf86c04850cd3f635fe8252089432be343b94f860124dc4fee278fdcbd38c102d88886f22507bc8e7d800801ba0d85ecdd391763f1267ed0c0d9e95d3299bbd238827b77ca7aa8e8282c0cc2089a06eac402cdfd6ed418c8b60a46ca9511ab0192b69b85450a7bc5c5f709c0a41b5",
      "networkId": 0,
      "chainId": 0
    },
    {
      "hash": "0x2f21016a60e1df82e72e4d34bec42574f795570852678407fd43b10f79d51e52",
      "blockHash": "0x37b427389eb48e53d990ba03116a656c827d65e77d4d7df815692cec3b1781a3",
      "blockNumber": 89800,
      "transactionIndex": 3,
      "confirmations": null,
      "from": "0xec4B2cCFC84A4C62d73D56c44917986aAAaEe10f",
      "gasPrice": {
        "_hex": "0xcd3f635fe"
      },
      "gasLimit": {
        "_hex": "0x5208"
      },
      "to": "0x32Be343B94f860124dC4fEe278FDCBD38C102D88",
      "value": {
        "_hex": "0x7d264ee081018c00"
      },
      "nonce": 2,
      "data": "0x",
      "r": "0x78f6a5f88a817ff09b3466f0c4955673f28730d948a86136aee954240be17829",
      "s": "0x04683ed1fc83f9898dd4612042a2c0193c0418983263c7bf0d8c3dbdcb620f79",
      "v": 28,
      "creates": null,
      "raw": "0xf86c02850cd3f635fe8252089432be343b94f860124dc4fee278fdcbd38c102d88887d264ee081018c00801ca078f6a5f88a817ff09b3466f0c4955673f28730d948a86136aee954240be17829a004683ed1fc83f9898dd4612042a2c0193c0418983263c7bf0d8c3dbdcb620f79",
      "networkId": 0,
      "chainId": 0
    },
    {
      "hash": "0xf4ca387753543a03ff10d0e51d959fec6e94ed0dc37f47c80d4756f20c571799",
      "blockHash": "0x37b427389eb48e53d990ba03116a656c827d65e77d4d7df815692cec3b1781a3",
      "blockNumber": 89800,
      "transactionIndex": 4,
      "confirmations": null,
      "from": "0x46e97208BC7F618816Cb502A2b516fb4BC41f1D3",
      "gasPrice": {
        "_hex": "0xcd3f635fe"
      },
      "gasLimit": {
        "_hex": "0x5208"
      },
      "to": "0x32Be343B94f860124dC4fEe278FDCBD38C102D88",
      "value": {
        "_hex": "0x520986207d50a800"
      },
      "nonce": 4,
      "data": "0x",
      "r": "0x13540a7ea270e134fdc1e20c95cdbc8de48a2df53b0f6526fb9045c0711b6f36",
      "s": "0x432ec0854268ea5b042f7a908b5b76f0b7672dbbdf9e77a081c2df4fc597c471",
      "v": 27,
      "creates": null,
      "raw": "0xf86c04850cd3f635fe8252089432be343b94f860124dc4fee278fdcbd38c102d8888520986207d50a800801ba013540a7ea270e134fdc1e20c95cdbc8de48a2df53b0f6526fb9045c0711b6f36a0432ec0854268ea5b042f7a908b5b76f0b7672dbbdf9e77a081c2df4fc597c471",
      "networkId": 0,
      "chainId": 0
    }
  ]
}