{
  "hash": "0x2589427e968e2111bfc1f556701205c7d3caa7f64db04e70dd9c0d96733199d2",
  "parentHash": "0xe5e072c4cb543310152bd61a628213efb60ac30c4efedcf762f41002b7dfe6a2",
  "number": 51634,
  "timestamp": 1439008248,
  "nonce": "0x364340f01ed3e4c1",
  "difficulty": 1558151130145,
  "gasLimit": {
    "_hex": "0xc7de8"
  },
  "gasUsed": {
    "_hex": "0x7a120"
  },
  "miner": "0xf8E0CA3Ed80bd541b94BEdCf259e8CF2141A9523",
  "extraData": "0x476574682f76312e302e312f77696e646f77732f676f312e342e32",
  "transactions": [
    {
      "hash": "0xf1b7906891d2549281745e8fb4f8b4527d2203494aeedd6f544ab8a5788d3d88",
      "blockHash": "0x2589427e968e2111bfc1f556701205c7d3caa7f64db04e70dd9c0d96733199d2",
      "blockNumber": 51634,
      "transactionIndex": 0,
      "confirmations": null,
      "from": "0xFCf9f6A78f06227522c6f948ec0119dA31680Ef7",
      "gasPrice": {
        "_hex": "0xd7f56563d"
      },
      "gasLimit": {
        "_hex": "0x7a120"
      },
      "to": "0xBAA54d6E90c3F4d7Ebec11bD180134C7eD8eBb52",
      "value": {
        "_hex": "0x16345785d8a0000"
      },
      "nonce": 40,
      "data": "0x",
      "r": "0x73b7d57d28c39aee42c30e13f647f833dbf284e37d86c0aa0a395351dfa8b872",
      "s": "0x159349f6c2ee7a98e7b0f174ad6d8c24ad5263ad7d9d6007bcf1b05e23c9902d",
      "v": 27,
      "creates": null,
      "raw": "0xf86d28850d7f56563d8307a12094baa54d6e90c3f4d7ebec11bd180134c7ed8ebb5288016345785d8a0000801ba073b7d57d28c39aee42c30e13f647f833dbf284e37d86c0aa0a395351dfa8b872a0159349f6c2ee7a98e7b0f174ad6d8c24ad5263ad7d9d6007bcf1b05e23c9902d",
      "networkId": 0,
      "chainId": 0
    }
  ]
}