{
  "hash": "0x9159daa81cfafcdadfdceb27f67a0bc3c8d24c396c6b6e0e8bd6ad60024d2e58",
  "parentHash": "0x085020bc95e8c937549e6871ff6c6afda5570d79169360671a46fbe4ac5959c2",
  "number": 48674,
  "timestamp": 1438960873,
  "nonce": "0x9e0e51efdf8686f7",
  "difficulty": 1472868964805,
  "gasLimit": {
    "_hex": "0x1bc56"
  },
  "gasUsed": {
    "_hex": "0x5208"
  },
  "miner": "0xBb12b5a9B85D4AB8CDE6056E9c1b2a4a337D2261",
  "extraData": "0x476574682f76312e302e312d36393865393864392f6c696e75782f676f312e34",
  "transactions": [
    {
      "hash": "0xb62a4b3138560708a86497139e165b82a0c40a394291c6bf80f549932b2fd009",
      "blockHash": "0x9159daa81cfafcdadfdceb27f67a0bc3c8d24c396c6b6e0e8bd6ad60024d2e58",
      "blockNumber": 48674,
      "transactionIndex": 0,
      "confirmations": null,
      "from": "0xe6A7a1d47ff21B6321162AEA7C6CB457D5476Bca",
      "gasPrice": {
        "_hex": "0xd326082b0"
      },
      "gasLimit": {
        "_hex": "0x55f0"
      },
      "to": "0xaC49eeb6a55aF554D86d37b4A4eA7940010866E1",
      "value": {
        "_hex": "0x3e3a908499a074640"
      },
      "nonce": 248,
      "data": "0x",
      "r": "0x9766520490e2a81791cba357266d003ccb59f86487dee9e8e4257f54d0a71099",
      "s": "0x283f034249e46e5b6b3fbb328924e19a70d7fd302a9de7cb9797fe9ccd67550a",
      "v": 28,
      "creates": null,
      "raw": "0xf86e81f8850d326082b08255f094ac49eeb6a55af554d86d37b4a4ea7940010866e18903e3a908499a074640801ca09766520490e2a81791cba357266d003ccb59f86487dee9e8e4257f54d0a71099a0283f034249e46e5b6b3fbb328924e19a70d7fd302a9de7cb9797fe9ccd67550a",
      "networkId": 0,
      "chainId": 0
    }
  ]
}