{
  "hash": "0x8e18f1fa9f8ee5a96fe78057af4e0c752c8ae3ca3cde63d47f8926170444f968",
  "parentHash": "0x54595e8aab5695ad71d0fc671fa00016908023df5873d9d2c944b7cc2822c549",
  "number": 55509,
  "timestamp": 1439071871,
  "nonce": "0xceba402a15b5f33a",
  "difficulty": 1626605038072,
  "gasLimit": {
    "_hex": "0x2fefd8"
  },
  "gasUsed": {
    "_hex": "0x5208"
  },
  "miner": "0xA21Ba94e45f0E168dA824fC67aC9cb5Cb577a8aF",
  "extraData": "0x476574682f76312e302e312d38326566323666362f6c696e75782f676f312e34",
  "transactions": [
    {
      "hash": "0x6c41a9f3693500bb0efa759534d56de854317b3350a70d4eb61d430eb5f2db15",
      "blockHash": "0x8e18f1fa9f8ee5a96fe78057af4e0c752c8ae3ca3cde63d47f8926170444f968",
      "blockNumber": 55509,
      "transactionIndex": 0,
      "confirmations": null,
      "from": "0x3B4AF94C39e87281410A3B5Cf880b4a647459363",
      "gasPrice": {
        "_hex": "0xd037672b7"
      },
      "gasLimit": {
        "_hex": "0x5208"
      },
      "to": "0x32Be343B94f860124dC4fEe278FDCBD38C102D88",
      "value": {
        "_hex": "0x30c9fe2f30b4840000"
      },
      "nonce": 3,
      "data": "0x",
      "r": "0x96f2876794802f606814d93db92fbf2f8c796f92e3318cf24fcdee28e5fe1e98",
      "s": "0x47483d4ec563e66bd7d12de55b69867431ac93c28783f6ce170a0f2145f04362",
      "v": 27,
      "creates": null,
      "raw": "0xf86d03850d037672b78252089432be343b94f860124dc4fee278fdcbd38c102d888930c9fe2f30b4840000801ba096f2876794802f606814d93db92fbf2f8c796f92e3318cf24fcdee28e5fe1e98a047483d4ec563e66bd7d12de55b69867431ac93c28783f6ce170a0f2145f04362",
      "networkId": 0,
      "chainId": 0
    }
  ]
}