{
  "hash": "0xeeab4c29f2cf2ca14dab1cbf9bb04050208fe00bcd1889c0be6bbb081d825edb",
  "parentHash": "0xd175198542796c84ec3847e2daa743401c0817e987974d7174c661e72edf41b1",
  "number": 57224,
  "timestamp": 1439099597,
  "nonce": "0x4ff2521a14cb27f8",
  "difficulty": 1735389721413,
  "gasLimit": {
    "_hex": "0x2fefd8"
  },
  "gasUsed": {
    "_hex": "0x5208"
  },
  "miner": "0x9746c7e1ef2bd21FF3997fa467593a89cb852BD0",
  "extraData": "0x476574682f76312e302e312f77696e646f77732f676f312e342e32",
  "transactions": [
    {
      "hash": "0xe72b7cc11d102d65660747c96f2ec190cae08e33d7176ff78c199de82a316486",
      "blockHash": "0xeeab4c29f2cf2ca14dab1cbf9bb04050208fe00bcd1889c0be6bbb081d825edb",
      "blockNumber": 57224,
      "transactionIndex": 0,
      "confirmations": null,
      "from": "0x120A270bbC009644e35F0bB6ab13f95b8199c4ad",
      "gasPrice": {
        "_hex": "0xcc9d166e8"
      },
      "gasLimit": {
        "_hex": "0x15f90"
      },
      "to": "0x87C6E0fbDdA04CEEb0615115A59951BE5672563F",
      "value": {
        "_hex": "0x8ac7230489e80000"
      },
      "nonce": 39,
      "data": "0x",
      "r": "0xbc21fe92484f9194d05c72ca8c2178f3e49581e09d4b5cda7a79b0a2f184ba0e",
      "s": "0x3e5bb018215561634e954c599a8730a13eba0a23d26793a05f96bf6bdfa990c6",
      "v": 28,
      "creates": null,
      "raw": "0xf86d27850cc9d166e883015f909487c6e0fbdda04ceeb0615115a59951be5672563f888ac7230489e80000801ca0bc21fe92484f9194d05c72ca8c2178f3e49581e09d4b5cda7a79b0a2f184ba0ea03e5bb018215561634e954c599a8730a13eba0a23d26793a05f96bf6bdfa990c6",
      "networkId": 0,
      "chainId": 0
    }
  ]
}