{
  "hash": "0xa7ff2776ec8a46c64e668466d32161f27cdc0c16632ff7628b59c904f437918d",
  "parentHash": "0xc882dc0c3822882749ccb3e7a7525f83332c070ff3bcb6796d18b824b3d434be",
  "number": 60215,
  "timestamp": 1439151429,
  "nonce": "0x82a1a743f5117a36",
  "difficulty": 1739011525283,
  "gasLimit": {
    "_hex": "0x2fefd2"
  },
  "gasUsed": {
    "_hex": "0xf618"
  },
  "miner": "0x4947190fcC30D3fb3a16233b259bFe6b3492339a",
  "extraData": "0x476574682f76312e302e312d38326566323666362f6c696e75782f676f312e34",
  "transactions": [
    {
      "hash": "0xb1da08a6a794fcb343e2584f83ef908ae0bd8b273556ecd18cfabcf4cb28c885",
      "blockHash": "0xa7ff2776ec8a46c64e668466d32161f27cdc0c16632ff7628b59c904f437918d",
      "blockNumber": 60215,
      "transactionIndex": 0,
      "confirmations": null,
      "from": "0x2d11763B4999FB3b61Ca8d19C8C77a743079f7bd",
      "gasPrice": {
        "_hex": "0xdddf8794e"
      },
      "gasLimit": {
        "_hex": "0x7a120"
      },
      "to": "0xbBF289D846208c16EDc8474705C748aff07732dB",
      "value": {
        "_hex": "0xde0b6b3a7640000"
      },
      "nonce": 9,
      "data": "0x",
      "r": "0xf0d61bbee4b13560c30c487f3b8009cec064df7af18fc961134d5c2114974d5a",
      "s": "0x66f9ba87b9ead25dca2a80ba21827747d1cb5275fe09581a3201476e4545d38b",
      "v": 28,
      "creates": null,
      "raw": "0xf86d09850dddf8794e8307a12094bbf289d846208c16edc8474705c748aff07732db880de0b6b3a7640000801ca0f0d61bbee4b13560c30c487f3b8009cec064df7af18fc961134d5c2114974d5aa066f9ba87b9ead25dca2a80ba21827747d1cb5275fe09581a3201476e4545d38b",
      "networkId": 0,
      "chainId": 0
    },
    {
      "hash": "0x562de3b0272fd59d96c0a685cd7171aa0b00a9b7995471202a17108e15bb55d2",
      "blockHash": "0xa7ff2776ec8a46c64e668466d32161f27cdc0c16632ff7628b59c904f437918d",
      "blockNumber": 60215,
      "transactionIndex": 1,
      "confirmations": null,
      "from": "0x05fD385FFA266D64FB0eA6a52b977B15f80e6BDb",
      "gasPrice": {
        "_hex": "0xdb5a95443"
      },
      "gasLimit": {
        "_hex": "0x15f90"
      },
      "to": "0x8Fcd6a7276F4a21379F529D2c284C6Ca037a6863",
      "value": {
        "_hex": "0x5af3107a4000"
      },
      "nonce": 3,
      "data": "0x",
      "r": "0x40204e7e76f82c4a8ba22d006c2dedfe80bfb110a2ded84dabcde0fb08d1b261",
      "s": "0x2cc62e1025862e6536da2e1a427108fbd9ba3aa10007cb1af695e6c602ee47c0",
      "v": 28,
      "creates": null,
      "raw": "0xf86b03850db5a9544383015f90948fcd6a7276f4a21379f529d2c284c6ca037a6863865af3107a4000801ca040204e7e76f82c4a8ba22d006c2dedfe80bfb110a2ded84dabcde0fb08d1b261a02cc62e1025862e6536da2e1a427108fbd9ba3aa10007cb1af695e6c602ee47c0",
      "networkId": 0,
      "chainId": 0
    },
    {
      "hash": "0xa42d40a2743ad3e14e9a189f1d8965b37d77f524100ddf519ad6efed9edd30e7",
      "blockHash": "0xa7ff2776ec8a46c64e668466d32161f27cdc0c16632ff7628b59c904f437918d",
      "blockNumber": 60215,
      "transactionIndex": 2,
      "confirmations": null,
      "from": "0xaC49eeb6a55aF554D86d37b4A4eA7940010866E1",
      "gasPrice": {
        "_hex": "0xd5341da0e"
      },
      "gasLimit": {
        "_hex": "0x15f90"
      },
      "to": "0xc97b6E47df229442524F8f210926557900f81574",
      "value": {
        "_hex": "0x4563918244f40000"
      },
      "nonce": 1,
      "data": "0x",
      "r": "0x58ea3013659fb366ce12f6c84b338c383229c3675ec8af265d3b7f9bc6cc656c",
      "s": "0x79668b497593a1f076f238ad9f25096e852af1e5988282a72222a0754547a886",
      "v": 27,
      "creates": null,
      "raw": "0xf86d01850d5341da0e83015f9094c97b6e47df229442524f8f210926557900f81574884563918244f40000801ba058ea3013659fb366ce12f6c84b338c383229c3675ec8af265d3b7f9bc6cc656ca079668b497593a1f076f238ad9f25096e852af1e5988282a72222a0754547a886",
      "networkId": 0,
      "chainId": 0
    }
  ]
}