{
  "hash": "0xb87071d4887772967c682458c30c3919a35cdb77e3b02b14b87728c85ec95554",
  "parentHash": "0x0cb9bbe33649663c0712af22ea634c0d6c77774438d978ae8854e4b63e89b6a5",
  "number": 113027,
  "timestamp": 1440016803,
  "nonce": "0xcf919bbdef525b59",
  "difficulty": 4473598558345,
  "gasLimit": {
    "_hex": "0x2fefd8"
  },
  "gasUsed": {
    "_hex": "0x5208"
  },
  "miner": "0xa50ec0D39fa913E62f1Bae7074E6F36caA71855b",
  "extraData": "0xd783010001844765746887676f312e342e32856c696e7578",
  "transactions": [
    {
      "hash": "0xfd7a124fc77f0b62a0715d4541465045f929f130cd5f8428db0fc9e3fd0dccdf",
      "blockHash": "0xb87071d4887772967c682458c30c3919a35cdb77e3b02b14b87728c85ec95554",
      "blockNumber": 113027,
      "transactionIndex": 0,
      "confirmations": null,
      "from": "0x30beD8049947963394D93412326225E4e3123601",
      "gasPrice": {
        "_hex": "0xda76af6f6"
      },
      "gasLimit": {
        "_hex": "0x5208"
      },
      "to": "0x32Be343B94f860124dC4fEe278FDCBD38C102D88",
      "value": {
        "_hex": "0x7b7ec6cb40e3a400"
      },
      "nonce": 17,
      "data": "0x",
      "r": "0x9ce47b7770f0971cee654c798df8596e13b734b5bbb85a50d4047b57cb01b123",
      "s": "0x3235a3c8d3ab80808cd405fbd18dcd482c105b71b5556618e7e9bb52c3379555",
      "v": 27,
      "creates": null,
      "raw": "0xf86c11850da76af6f68252089432be343b94f860124dc4fee278fdcbd38c102d88887b7ec6cb40e3a400801ba09ce47b7770f0971cee654c798df8596e13b734b5bbb85a50d4047b57cb01b123a03235a3c8d3ab80808cd405fbd18dcd482c105b71b5556618e7e9bb52c3379555",
      "networkId": 0,
      "chainId": 0
    }
  ]
}