{
  "hash": "0x96d6f9d5874828fae4cd4e786d333924aa1f6399f72cae8475457fc7c875f6f5",
  "parentHash": "0xcaa30bb66822c19e4edca28f1d741fa8a09b09fa35d4e3a9f58412d0934adcb9",
  "number": 113480,
  "timestamp": 1440024241,
  "nonce": "0x36a866d194b72257",
  "difficulty": 4466809009940,
  "gasLimit": {
    "_hex": "0x2fefd8"
  },
  "gasUsed": {
    "_hex": "0x20fc6"
  },
  "miner": "0x88D74a59454F6cF3B51ef6b9136AFb6b9D405A88",
  "extraData": "0x",
  "transactions": [
    {
      "hash": "0x9686ec864ad8e168461ffd1e2ff4da40cb4588427673b3dacd63f146b67c8af1",
      "blockHash": "0x96d6f9d5874828fae4cd4e786d333924aa1f6399f72cae8475457fc7c875f6f5",
      "blockNumber": 113480,
      "transactionIndex": 0,
      "confirmations": null,
      "from": "0x84b91e2E2902d05E2B591B41083Bd7BEB2d52c74",
      "gasPrice": {
        "_hex": "0xd7d40ace3"
      },
      "gasLimit": {
        "_hex": "0x249f0"
      },
      "to": "0xE28e72FCf78647ADCe1F1252F240bbfaebD63BcC",
      "value": {
        "_hex": "0x1158e460913d00000"
      },
      "nonce": 3,
      "data": "0x45466f3a",
      "r": "0x28dbad36af42a6750b6d1a72fae777835c2c153c58d20ca0bbcccc1ba6fe128e",
      "s": "0x774d5ee7d66fd5a11af2db8b49fdb2b011f47f9c672ea60b8f5ea2b818f35676",
      "v": 27,
      "creates": null,
      "raw": "0xf87203850d7d40ace3830249f094e28e72fcf78647adce1f1252f240bbfaebd63bcc8901158e460913d000008445466f3a1ba028dbad36af42a6750b6d1a72fae777835c2c153c58d20ca0bbcccc1ba6fe128ea0774d5ee7d66fd5a11af2db8b49fdb2b011f47f9c672ea60b8f5ea2b818f35676",
      "networkId": 0,
      "chainId": 0
    },
    {
      "hash": "0x21358f4336ecbc0b75db8af2148a2fc48c584899687b622b1068ac80299ded6d",
      "blockHash": "0x96d6f9d5874828fae4cd4e786d333924aa1f6399f72cae8475457fc7c875f6f5",
      "blockNumber": 113480,
      "transactionIndex": 1,
      "confirmations": null,
      "from": "0x0a0a0a169A784a9B524d0d40f03552053B360F21",
      "gasPrice": {
        "_hex": "0xba43b7400"
      },
      "gasLimit": {
        "_hex": "0x5267"
      },
      "to": "0x1f1f1f6FAA77a31e6c9aeF1eF25A6F6819177EEB",
      "value": {
        "_hex": "0x4a29b3afafb0000"
      },
      "nonce": 1,
      "data": "0x",
      "r": "0xd96da0fe5c62fd477b752f0c396a4dda873a695ef4e4149fd97728d75093c6ca",
      "s": "0x246a68a9265dbe1e060f03a6786de6f6ab38a23c7e8cbbbfd1e34a79275bec69",
      "v": 28,
      "creates": null,
      "raw": "0xf86c01850ba43b7400825267941f1f1f6faa77a31e6c9aef1ef25a6f6819177eeb8804a29b3afafb0000801ca0d96da0fe5c62fd477b752f0c396a4dda873a695ef4e4149fd97728d75093c6caa0246a68a9265dbe1e060f03a6786de6f6ab38a23c7e8cbbbfd1e34a79275bec69",
      "networkId": 0,
      "chainId": 0
    }
  ]
}