{
  "hash": "0xf8869441f8da599c12a1fbea59b05e73d2d84bca1252023d2b7b2688e41691e3",
  "parentHash": "0x86ab159dffb2ff3a8ab96bfc29b52a4f81fdae759ad62670f1064ddd5caf97c5",
  "number": 84976,
  "timestamp": 1439556902,
  "nonce": "0x7abb3229c1bf549c",
  "difficulty": 2710525426309,
  "gasLimit": {
    "_hex": "0x2fefd8"
  },
  "gasUsed": {
    "_hex": "0xa410"
  },
  "miner": "0xcf00A85f3826941e7A25BFcF9Aac575d40410852",
  "extraData": "0x476574682f76312e302e312f77696e646f77732f676f312e342e32",
  "transactions": [
    {
      "hash": "0xb8de34ef5d476681eb93b15de60cca49ae0582a5bc4f106c2c07f706a7bea97e",
      "blockHash": "0xf8869441f8da599c12a1fbea59b05e73d2d84bca1252023d2b7b2688e41691e3",
      "blockNumber": 84976,
      "transactionIndex": 0,
      "confirmations": null,
      "from": "0x2af3e5E72FEDcFf96ce4b4cd0e305ce8Ff4E81F1",
      "gasPrice": {
        "_hex": "0xba43b7400"
      },
      "gasLimit": {
        "_hex": "0x5208"
      },
      "to": "0xC47Aaa860008be6f65B58c6C6E02a84e666EfE31",
      "value": {
        "_hex": "0x1905564cab6860cf0"
      },
      "nonce": 0,
      "data": "0x",
      "r": "0xe3cd6abd31439dd9fc2cf6890a394ebbf1d3deebac4a911e11b19c4834a1980f",
      "s": "0x32e2617030974eb9b5ac74fcdb29e5ee2ec308c3c21e06b088f1c4b7e235ac70",
      "v": 27,
      "creates": null,
      "raw": "0xf86d80850ba43b740082520894c47aaa860008be6f65b58c6c6e02a84e666efe318901905564cab6860cf0801ba0e3cd6abd31439dd9fc2cf6890a394ebbf1d3deebac4a911e11b19c4834a1980fa032e2617030974eb9b5ac74fcdb29e5ee2ec308c3c21e06b088f1c4b7e235ac70",
      "networkId": 0,
      "chainId": 0
    },
    {
      "hash": "0x3d71f06863b1ab6aafca8165c5e7675164f9db9a40b57b8307b15bbee2f3571d",
      "blockHash": "0xf8869441f8da599c12a1fbea59b05e73d2d84bca1252023d2b7b2688e41691e3",
      "blockNumber": 84976,
      "transactionIndex": 1,
      "confirmations": null,
      "from": "0x899870bD39d8c7B78cE1Fe1AD54d85Cf3D937795",
      "gasPrice": {
        "_hex": "0xba43b7400"
      },
      "gasLimit": {
        "_hex": "0x5208"
      },
      "to": "0xC47Aaa860008be6f65B58c6C6E02a84e666EfE31",
      "value": {
        "_hex": "0x103571a8dc54c7ead0"
      },
      "nonce": 1,
      "data": "0x",
      "r": "0x196698a278c4eb88c1f4d1d917de032466deb0303f0132f8dc019dc4956cc2e3",
      "s": "0x7cba955b9537b9b01be7fb80ce2e960ce27500c7c602376e3a7628168a61ddc0",
      "v": 28,
      "creates": null,
      "raw": "0xf86d01850ba43b740082520894c47aaa860008be6f65b58c6c6e02a84e666efe3189103571a8dc54c7ead0801ca0196698a278c4eb88c1f4d1d917de032466deb0303f0132f8dc019dc4956cc2e3a07cba955b9537b9b01be7fb80ce2e960ce27500c7c602376e3a7628168a61ddc0",
      "networkId": 0,
      "chainId": 0
    }
  ]
}