{
  "hash": "0xfde04f9fa3befe65f7073e50208c8873f3da80598a502b06c1e3f500450c6d07",
  "parentHash": "0xfdf864ad14212b1901a35900700e32590de63160bac2599de8576df134a429b4",
  "number": 94790,
  "timestamp": 1439714143,
  "nonce": "0xfcc2113197638dc3",
  "difficulty": 3500159497132,
  "gasLimit": {
    "_hex": "0x2fefd8"
  },
  "gasUsed": {
    "_hex": "0xa410"
  },
  "miner": "0xEF247E639d49461D25F57e9362CadE3120910Ce0",
  "extraData": "0x476574682f76312e302e312f6c696e75782f676f312e342e32",
  "transactions": [
    {
      "hash": "0xa2430998de3ee9a5c020fabb4525814d51d009f8e9242dfb785208190b07ecb9",
      "blockHash": "0xfde04f9fa3befe65f7073e50208c8873f3da80598a502b06c1e3f500450c6d07",
      "blockNumber": 94790,
      "transactionIndex": 0,
      "confirmations": null,
      "from": "0x014e478251F22a79fA7014f285647d91462A9669",
      "gasPrice": {
        "_hex": "0xd7db525e0"
      },
      "gasLimit": {
        "_hex": "0x5208"
      },
      "to": "0x32Be343B94f860124dC4fEe278FDCBD38C102D88",
      "value": {
        "_hex": "0x8eeca0bca6aaf800"
      },
      "nonce": 4,
      "data": "0x",
      "r": "0x4ccdd8598e398be48e9f292569db0a94fb78515972eff7b511c65ab66c63fcaf",
      "s": "0x715cfb97c698a67228a9e9ab2c64d6a45d70027ff12590c01ddcad4b3d66f154",
      "v": 28,
      "creates": null,
      "raw": "0xf86c04850d7db525e08252089432be343b94f860124dc4fee278fdcbd38c102d88888eeca0bca6aaf800801ca04ccdd8598e398be48e9f292569db0a94fb78515972eff7b511c65ab66c63fcafa0715cfb97c698a67228a9e9ab2c64d6a45d70027ff12590c01ddcad4b3d66f154",
      "networkId": 0,
      "chainId": 0
    },
    {
      "hash": "0x707923221ac6289eda9ad96d827770c1f9b958318889a0f40aef827e3c254a46",
      "blockHash": "0xfde04f9fa3befe65f7073e50208c8873f3da80598a502b06c1e3f500450c6d07",
      "blockNumber": 94790,
      "transactionIndex": 1,
      "confirmations": null,
      "from": "0xb1abce2918E21ddb93AA452731a12672A3d9F75a",
      "gasPrice": {
        "_hex": "0xd7db525e0"
      },
      "gasLimit": {
        "_hex": "0x5208"
      },
      "to": "0x32Be343B94f860124dC4fEe278FDCBD38C102D88",
      "value": {
        "_hex": "0x455f3d6f62099800"
      },
      "nonce": 24,
      "data": "0x",
      "r": "0x6e1e4b2ee530f5f62b363a4c9f9fa4c28937970c18390d9a56cfc111d4c6cbd1",
      "s": "0x5074ff37649456519ed9828f90205cb31ce6f1e4700539d2c142075ef3b42335",
      "v": 28,
      "creates": null,
      "raw": "0xf86c18850d7db525e08252089432be343b94f860124dc4fee278fdcbd38c102d8888455f3d6f62099800801ca06e1e4b2ee530f5f62b363a4c9f9fa4c28937970c18390d9a56cfc111d4c6cbd1a05074ff37649456519ed9828f90205cb31ce6f1e4700539d2c142075ef3b42335",
      "networkId": 0,
      "chainId": 0
    }
  ]
}