{
  "hash": "0xa9d8163cfafeac378d41100147ea95f7a364e9ae5a5df4f63880e1c796096edf",
  "parentHash": "0xb73c82215232278bd490b8496e7c1a7823471b71f6d1baea428f20cfe00bfdc8",
  "number": 94583,
  "timestamp": 1439710632,
  "nonce": "0x7dfe88e248e63db8",
  "difficulty": 3498537181903,
  "gasLimit": {
    "_hex": "0x2fefd8"
  },
  "gasUsed": {
    "_hex": "0xa410"
  },
  "miner": "0xbb7B8287f3F0a933474a79eAe42CBCa977791171",
  "extraData": "0x476574682f4c5649562f76312e302e312f6c696e75782f676f312e342e32",
  "transactions": [
    {
      "hash": "0x2309f3b181ee10999f42b858e64b583e9a4328dfd4f672639210454a430fa5cd",
      "blockHash": "0xa9d8163cfafeac378d41100147ea95f7a364e9ae5a5df4f63880e1c796096edf",
      "blockNumber": 94583,
      "transactionIndex": 0,
      "confirmations": null,
      "from": "0xa6BDc31c431B8F97848c9D60cbbe9660dc450eB7",
      "gasPrice": {
        "_hex": "0xd8e969b14"
      },
      "gasLimit": {
        "_hex": "0x5208"
      },
      "to": "0x32Be343B94f860124dC4fEe278FDCBD38C102D88",
      "value": {
        "_hex": "0x478a55f657a99000"
      },
      "nonce": 110,
      "data": "0x",
      "r": "0x69a1a8ea04d1a8ee19c02e07f429abec631997d4c9fb207f7c2c36db125a7336",
      "s": "0x6e1878c906ba53bba66b33f0727d051ee7a725bc4cf636dfb5ef9c3573f62395",
      "v": 27,
      "creates": null,
      "raw": "0xf86c6e850d8e969b148252089432be343b94f860124dc4fee278fdcbd38c102d8888478a55f657a99000801ba069a1a8ea04d1a8ee19c02e07f429abec631997d4c9fb207f7c2c36db125a7336a06e1878c906ba53bba66b33f0727d051ee7a725bc4cf636dfb5ef9c3573f62395",
      "networkId": 0,
      "chainId": 0
    },
    {
      "hash": "0x7b54b0a5cba4307b515bff3eb9d0d18b88f08b78a021b4e01a861700887a02a8",
      "blockHash": "0xa9d8163cfafeac378d41100147ea95f7a364e9ae5a5df4f63880e1c796096edf",
      "blockNumber": 94583,
      "transactionIndex": 1,
      "confirmations": null,
      "from": "0x2E150c676CFf77ffcE03140E68871A96270B950b",
      "gasPrice": {
        "_hex": "0xd3b2a56ad"
      },
      "gasLimit": {
        "_hex": "0x15f90"
      },
      "to": "0x6724EFf089f9dD79c381137DF68678bD574B37e0",
      "value": {
        "_hex": "0x4563918244f40000"
      },
      "nonce": 0,
      "data": "0x",
      "r": "0x3c3f14d8c204ceba762defa31c08e8a3aee4c89d043e84b24ecf67a2b9b5a9b0",
      "s": "0x242c858be71cadd2d11473da51ca07c99b9aef9fc9b115a67282f13f9a21207d",
      "v": 27,
      "creates": null,
      "raw": "0xf86d80850d3b2a56ad83015f90946724eff089f9dd79c381137df68678bd574b37e0884563918244f40000801ba03c3f14d8c204ceba762defa31c08e8a3aee4c89d043e84b24ecf67a2b9b5a9b0a0242c858be71cadd2d11473da51ca07c99b9aef9fc9b115a67282f13f9a21207d",
      "networkId": 0,
      "chainId": 0
    }
  ]
}