{
  "hash": "0xb725da132403f7935c71b33ed510c93a66d2d975015302663faa8a06076bcbe5",
  "parentHash": "0x78cc8c941ead0d422c8dc8a567b681dbf5a5b1093a0fb25c14f741c60bf926b5",
  "number": 84602,
  "timestamp": 1439551930,
  "nonce": "0x8f21a44c7f7bec2d",
  "difficulty": 2589043865083,
  "gasLimit": {
    "_hex": "0x2fefd5"
  },
  "gasUsed": {
    "_hex": "0x5208"
  },
  "miner": "0x007f7f58D3eb5b7510A301eCC749FC1fCDDBE14D",
  "extraData": "0x476574682f76312e302e312f77696e646f77732f676f312e342e32",
  "transactions": [
    {
      "hash": "0xe6b159b776a7bf9313a409a8e6e744f96a94650ecc5edfd5e174fca88d6fb623",
      "blockHash": "0xb725da132403f7935c71b33ed510c93a66d2d975015302663faa8a06076bcbe5",
      "blockNumber": 84602,
      "transactionIndex": 0,
      "confirmations": null,
      "from": "0xEC73114c5e406fdBBE09B4FA621bd70ED54eA1ef",
      "gasPrice": {
        "_hex": "0x109ee2c7909"
      },
      "gasLimit": {
        "_hex": "0x15f90"
      },
      "to": "0xd66B9E119281Ea5e76738595171c3689050FF697",
      "value": {
        "_hex": "0x10f0cf064dd59200000"
      },
      "nonce": 2,
      "data": "0x",
      "r": "0x7af180814b5873b0da124792399c4c4c1a4d838e5a90188dfd343af27fdf2442",
      "s": "0x778924b1b88292c3060f3ddddaf98edfe6a357117dc3bd84b976755981d8f17d",
      "v": 28,
      "creates": null,
      "raw": "0xf87002860109ee2c790983015f9094d66b9e119281ea5e76738595171c3689050ff6978a010f0cf064dd59200000801ca07af180814b5873b0da124792399c4c4c1a4d838e5a90188dfd343af27fdf2442a0778924b1b88292c3060f3ddddaf98edfe6a357117dc3bd84b976755981d8f17d",
      "networkId": 0,
      "chainId": 0
    }
  ]
}