{
  "hash": "0x358edf828fa5c7c03b91a517ec594d08e535fc0d6e2f860844088f83cee58b2a",
  "parentHash": "0xdbf285dd439505d3eddf8fed14553eb19d20d09745b722ccc7fbd78f902bcee8",
  "number": 54177,
  "timestamp": 1439049866,
  "nonce": "0xb3943191e56a13f6",
  "difficulty": 1606340350357,
  "gasLimit": {
    "_hex": "0x2fefd8"
  },
  "gasUsed": {
    "_hex": "0xf618"
  },
  "miner": "0xF2d2AfF1320476cb8C6b607199D23175cc595693",
  "extraData": "0x476574682f76312e302e312f77696e646f77732f676f312e342e32",
  "transactions": [
    {
      "hash": "0x8d0be47924a7f9fb9c332fae4cbabb60f11a18eac486efdd7dc10ab35901ca5d",
      "blockHash": "0x358edf828fa5c7c03b91a517ec594d08e535fc0d6e2f860844088f83cee58b2a",
      "blockNumber": 54177,
      "transactionIndex": 0,
      "confirmations": null,
      "from": "0x811ef7e711aaa8957Fb864d9211F9F826c927BB2",
      "gasPrice": {
        "_hex": "0x117c5535118"
      },
      "gasLimit": {
        "_hex": "0x7a120"
      },
      "to": "0x2a9C57Fe7B6B138A920D676F3c76b6C2A0EEf699",
      "value": {
        "_hex": "0x8d8dadf544fc0000"
      },
      "nonce": 0,
      "data": "0x",
      "r": "0xe7483a25761eacb9e1218b9698877ccdf64afc64eaa3eee075eeaf3f63f50345",
      "s": "0x3b96e57750a8d8651868aabe141f41db441dbdac46407a7b0ebef709dd48ab3a",
      "v": 28,
      "creates": null,
      "raw": "0xf86e80860117c55351188307a120942a9c57fe7b6b138a920d676f3c76b6c2a0eef699888d8dadf544fc0000801ca0e7483a25761eacb9e1218b9698877ccdf64afc64eaa3eee075eeaf3f63f50345a03b96e57750a8d8651868aabe141f41db441dbdac46407a7b0ebef709dd48ab3a",
      "networkId": 0,
      "chainId": 0
    },
    {
      "hash": "0x47d7fafa9186070cd37cf75e817cd5fd34c9c3f08029e483321493b4c4d187d4",
      "blockHash": "0x358edf828fa5c7c03b91a517ec594d08e535fc0d6e2f860844088f83cee58b2a",
      "blockNumber": 54177,
      "transactionIndex": 1,
      "confirmations": null,
      "from": "0xD20654d200807101bB76403d2Ee893eD43e2fDa0",
      "gasPrice": {
        "_hex": "0xd64558d4d"
      },
      "gasLimit": {
        "_hex": "0x5208"
      },
      "to": "0x32Be343B94f860124dC4fEe278FDCBD38C102D88",
      "value": {
        "_hex": "0x8ac2d8750f933000"
      },
      "nonce": 0,
      "data": "0x",
      "r": "0x4292dffb96dd8c0c32c0226582c71bceb220d15c2605200c723a53b5b677b0e3",
      "s": "0x287ab94889b00ec2836dc805bd7c99d76d53c8601d3eae82ab9e499b4b6df687",
      "v": 28,
      "creates": null,
      "raw": "0xf86c80850d64558d4d8252089432be343b94f860124dc4fee278fdcbd38c102d88888ac2d8750f933000801ca04292dffb96dd8c0c32c0226582c71bceb220d15c2605200c723a53b5b677b0e3a0287ab94889b00ec2836dc805bd7c99d76d53c8601d3eae82ab9e499b4b6df687",
      "networkId": 0,
      "chainId": 0
    },
    {
      "hash": "0x29c9387e42c61e987c408a604c1a56cc9670db205d0649b1e90a8b0bd2a076f5",
      "blockHash": "0x358edf828fa5c7c03b91a517ec594d08e535fc0d6e2f860844088f83cee58b2a",
      "blockNumber": 54177,
      "transactionIndex": 2,
      "confirmations": null,
      "from": "0xD9666150A9dA92d9108198a4072970805a8B3428",
      "gasPrice": {
        "_hex": "0xd64558d4d"
      },
      "gasLimit": {
        "_hex": "0x5208"
      },
      "to": "0x32Be343B94f860124dC4fEe278FDCBD38C102D88",
      "value": {
        "_hex": "0xddc6068a9244800"
      },
      "nonce": 0,
      "data": "0x",
      "r": "0xea839d3b35846b4cf077de5d3c23e99e33d8a6ad2be5dedace84eb6cd9d90bbe",
      "s": "0x78c117f20c031d21cf0e89e7fd760a8ac9ecf86be630340421d5bf4308ba0776",
      "v": 28,
      "creates": null,
      "raw": "0xf86c80850d64558d4d8252089432be343b94f860124dc4fee278fdcbd38c102d88880ddc6068a9244800801ca0ea839d3b35846b4cf077de5d3c23e99e33d8a6ad2be5dedace84eb6cd9d90bbea078c117f20c031d21cf0e89e7fd760a8ac9ecf86be630340421d5bf4308ba0776",
      "networkId": 0,
      "chainId": 0
    }
  ]
}