{
  "hash": "0x4c5cbc1fd1d406177d602b8ab30543c445899bd20772463fd995fc9758f61025",
  "parentHash": "0x9a4d9c06e9c8f132a914571d11a50107e7196ad8a59fe38e38144f4e7f616c0e",
  "number": 47829,
  "timestamp": 1438947093,
  "nonce": "0x2a81ee0dbd65c443",
  "difficulty": 1457990328679,
  "gasLimit": {
    "_hex": "0xf899"
  },
  "gasUsed": {
    "_hex": "0x546c"
  },
  "miner": "0xf927a40C8B7F6E07c5af7FA2155B4864a4112B13",
  "extraData": "0x476574682f76312e302e312f6c696e75782f676f312e342e32",
  "transactions": [
    {
      "hash": "0x6ff651e4bb46336fbc5457de3522b3c3968321f1c63e475bd8d7fb87ca32a54f",
      "blockHash": "0x4c5cbc1fd1d406177d602b8ab30543c445899bd20772463fd995fc9758f61025",
      "blockNumber": 47829,
      "transactionIndex": 0,
      "confirmations": null,
      "from": "0x17E4a0e52BAc3eE44eFe0954e753d4b85D644E05",
      "gasPrice": {
        "_hex": "0x10daf955c52"
      },
      "gasLimit": {
        "_hex": "0x55f0"
      },
      "to": "0x2910543Af39abA0Cd09dBb2D50200b3E800A63D2",
      "value": {
        "_hex": "0x4563918244f40000"
      },
      "nonce": 1,
      "data": "0x454e4b364e48445238",
      "r": "0xd907af3a21b1f24476a1174133dea0adf84e25e064e1afc5d48df04696ca9762",
      "s": "0x70fc7eada6e4d15f3791ab7473b4d510b26e31538d73bc99ecc95d9ff42de17e",
      "v": 28,
      "creates": null,
      "raw": "0xf8760186010daf955c528255f0942910543af39aba0cd09dbb2d50200b3e800a63d2884563918244f4000089454e4b364e484452381ca0d907af3a21b1f24476a1174133dea0adf84e25e064e1afc5d48df04696ca9762a070fc7eada6e4d15f3791ab7473b4d510b26e31538d73bc99ecc95d9ff42de17e",
      "networkId": 0,
      "chainId": 0
    }
  ]
}