{
  "hash": "0x99064c58cc8a1de05c1c1a6f8f2210cfcf33f12239a029c5439882348c1dccd1",
  "parentHash": "0xacd214529e29440f9a0f4f1d7615bbd77b73c460c47fc5c1de3b73941acf4896",
  "number": 94861,
  "timestamp": 1439715123,
  "nonce": "0x41a282d47ee0dfd8",
  "difficulty": 3529304606136,
  "gasLimit": {
    "_hex": "0x2fefd8"
  },
  "gasUsed": {
    "_hex": "0xa418"
  },
  "miner": "0xe6A7a1d47ff21B6321162AEA7C6CB457D5476Bca",
  "extraData": "0x476574682f76312e302e312d38326566323666362f6c696e75782f676f312e34",
  "transactions": [
    {
      "hash": "0xed4ca6b0b0a5c5bddcfdf6b7ebf77b87b44cc64af5c3799919667b3ca943ba16",
      "blockHash": "0x99064c58cc8a1de05c1c1a6f8f2210cfcf33f12239a029c5439882348c1dccd1",
      "blockNumber": 94861,
      "transactionIndex": 0,
      "confirmations": null,
      "from": "0x8375eA550366a24550ec93283600485F4Ba8CFE5",
      "gasPrice": {
        "_hex": "0xe13c7bf74"
      },
      "gasLimit": {
        "_hex": "0x7530"
      },
      "to": "0xb9836ec1f42Bd48331bceaedb74a6Bcdc22832bD",
      "value": {
        "_hex": "0x71afd498d0000"
      },
      "nonce": 21,
      "data": "0x00",
      "r": "0x2ea10c31cd0bd775def9d155bb9d738887e0be246a86b703ae882dcc98eb5be6",
      "s": "0x50107ad0b885799bbc6905a17d78691726985a9b19ff972ccb24937d9811e75e",
      "v": 27,
      "creates": null,
      "raw": "0xf86b15850e13c7bf7482753094b9836ec1f42bd48331bceaedb74a6bcdc22832bd87071afd498d0000001ba02ea10c31cd0bd775def9d155bb9d738887e0be246a86b703ae882dcc98eb5be6a050107ad0b885799bbc6905a17d78691726985a9b19ff972ccb24937d9811e75e",
      "networkId": 0,
      "chainId": 0
    },
    {
      "hash": "0x3f71d5ea072ee13bfba507429056d480edf3162a84705992c01f388af2f82310",
      "blockHash": "0x99064c58cc8a1de05c1c1a6f8f2210cfcf33f12239a029c5439882348c1dccd1",
      "blockNumber": 94861,
      "transactionIndex": 1,
      "confirmations": null,
      "from": "0x8375eA550366a24550ec93283600485F4Ba8CFE5",
      "gasPrice": {
        "_hex": "0xded4a5f60"
      },
      "gasLimit": {
        "_hex": "0x7530"
      },
      "to": "0xb9836ec1f42Bd48331bceaedb74a6Bcdc22832bD",
      "value": {
        "_hex": "0x1d1a94a2000"
      },
      "nonce": 22,
      "data": "0x00",
      "r": "0x5dc39e856e6de3545dc516611b6d84708df58dce4de0a6f6c30eafd0dac5b3c1",
      "s": "0x8eaf89aed424447ca790ffc245122100563b095e4629e0ba24f7d55d43a5521d",
      "v": 27,
      "creates": null,
      "raw": "0xf86a16850ded4a5f6082753094b9836ec1f42bd48331bceaedb74a6bcdc22832bd8601d1a94a2000001ba05dc39e856e6de3545dc516611b6d84708df58dce4de0a6f6c30eafd0dac5b3c1a08eaf89aed424447ca790ffc245122100563b095e4629e0ba24f7d55d43a5521d",
      "networkId": 0,
      "chainId": 0
    }
  ]
}