{
  "hash": "0x2993c0168677e9163a9c00ee9945ffcec3b4f3a2ee8742c53203c63fc8596df6",
  "parentHash": "0x22e5270de338b11b39e18a11fff37906d5e66c47605a68f3e31f3fd25bb4feec",
  "number": 64695,
  "timestamp": 1439224980,
  "nonce": "0x0a36f51837305dc7",
  "difficulty": 1884829751090,
  "gasLimit": {
    "_hex": "0x2fefd8"
  },
  "gasUsed": {
    "_hex": "0x23e38"
  },
  "miner": "0x02020D22dCF88f5eDd66B382D7da019F161fB7e3",
  "extraData": "0x",
  "transactions": [
    {
      "hash": "0xa0c8f70610a0f8c69e4366acab71cc9827187bd3eb1634435ee29118bb46be83",
      "blockHash": "0x2993c0168677e9163a9c00ee9945ffcec3b4f3a2ee8742c53203c63fc8596df6",
      "blockNumber": 64695,
      "transactionIndex": 0,
      "confirmations": null,
      "from": "0x32Be343B94f860124dC4fEe278FDCBD38C102D88",
      "gasPrice": {
        "_hex": "0xcfe8cedbb"
      },
      "gasLimit": {
        "_hex": "0x5208"
      },
      "to": "0xD2883586F46d3ae001F84C548013D9447051c0C3",
      "value": {
        "_hex": "0x273491cb9efe5400"
      },
      "nonce": 182,
      "data": "0x",
      "r": "0x8ed12f574c749d4d991583971379eac7ad5ca69a2207cc680180c0b16b6bc740",
      "s": "0x517d6444136a9ad11e5e7df5310ecd012e68245f598c83bd9d7790f1b412daa3",
      "v": 27,
      "creates": null,
      "raw": "0xf86d81b6850cfe8cedbb82520894d2883586f46d3ae001f84c548013d9447051c0c388273491cb9efe5400801ba08ed12f574c749d4d991583971379eac7ad5ca69a2207cc680180c0b16b6bc740a0517d6444136a9ad11e5e7df5310ecd012e68245f598c83bd9d7790f1b412daa3",
      "networkId": 0,
      "chainId": 0
    },
    {
      "hash": "0x022f7d6db3e7561e9aa1311da6963cfa5d7b1e9152405c1f204c1dfde0e01a70",
      "blockHash": "0x2993c0168677e9163a9c00ee9945ffcec3b4f3a2ee8742c53203c63fc8596df6",
      "blockNumber": 64695,
      "transactionIndex": 1,
      "confirmations": null,
      "from": "0x7a277791DA31E0A0fED99D9185E13B635c73fcE9",
      "gasPrice": {
        "_hex": "0xba43b7400"
      },
      "gasLimit": {
        "_hex": "0x5208"
      },
      "to": "0x6747f922385c9a6F9cfDf095F34345257DD597bE",
      "value": {
        "_hex": "0x11e4ee79bf23000"
      },
      "nonce": 1,
      "data": "0x",
      "r": "0x74c9fef775afc8ddd8d65e720519884c94c7e0392ffbd800389765b93f21151b",
      "s": "0x2cf0a126b24e8484f864a474931adc51d35beb504f5743b433ab598ef4099eaa",
      "v": 28,
      "creates": null,
      "raw": "0xf86c01850ba43b7400825208946747f922385c9a6f9cfdf095f34345257dd597be88011e4ee79bf23000801ca074c9fef775afc8ddd8d65e720519884c94c7e0392ffbd800389765b93f21151ba02cf0a126b24e8484f864a474931adc51d35beb504f5743b433ab598ef4099eaa",
      "networkId": 0,
      "chainId": 0
    },
    {
      "hash": "0x83fb1944d1a3eb94b14a137c79c9c5a012d1af9ff76847e7b3f25f464a66ec7e",
      "blockHash": "0x2993c0168677e9163a9c00ee9945ffcec3b4f3a2ee8742c53203c63fc8596df6",
      "blockNumber": 64695,
      "transactionIndex": 2,
      "confirmations": null,
      "from": "0xc7e58f0634F5412Ac522Fc05dD1182c3c4632100",
      "gasPrice": {
        "_hex": "0xba43b7400"
      },
      "gasLimit": {
        "_hex": "0x5208"
      },
      "to": "0x6747f922385c9a6F9cfDf095F34345257DD597bE",
      "value": {
        "_hex": "0xf0088de8d15000"
      },
      "nonce": 1,
      "data": "0x",
      "r": "0x81537ba4d16d0508c5250f5868aaf47961b5e4c273a8fb588ca583f2bc384511",
      "s": "0x3d59deae9080186fbf94c24894093ac62eec111e17b2b980ef6ea533bbefe8d8",
      "v": 27,
      "creates": null,
      "raw": "0xf86b01850ba43b7400825208946747f922385c9a6f9cfdf095f34345257dd597be87f0088de8d15000801ba081537ba4d16d0508c5250f5868aaf47961b5e4c273a8fb588ca583f2bc384511a03d59deae9080186fbf94c24894093ac62eec111e17b2b980ef6ea533bbefe8d8",
      "networkId": 0,
      "chainId": 0
    },
    {
      "hash": "0xd31939c80670ddf911fb3848a01f0ffa827afa570bf1a2885612f1f14b4c26ca",
      "blockHash": "0x2993c0168677e9163a9c00ee9945ffcec3b4f3a2ee8742c53203c63fc8596df6",
      "blockNumber": 64695,
      "transactionIndex": 3,
      "confirmations": null,
      "from": "0xC75503E12a6339e3B838bE7afA91668f67E07552",
      "gasPrice": {
        "_hex": "0xba43b7400"
      },
      "gasLimit": {
        "_hex": "0x5208"
      },
      "to": "0x6747f922385c9a6F9cfDf095F34345257DD597bE",
      "value": {
        "_hex": "0xa6e40f2f1c6000"
      },
      "nonce": 0,
      "data": "0x",
      "r": "0xc7a95f5119ea7c5f7e9baf522604082c461a9f1376d81802d6721ba932b228b1",
      "s": "0x123894c623c37beae2cdbec66a18d629a5b083ffa8d410f925e408cbe27b33fd",
      "v": 27,
      "creates": null,
      "raw": "0xf86b80850ba43b7400825208946747f922385c9a6f9cfdf095f34345257dd597be87a6e40f2f1c6000801ba0c7a95f5119ea7c5f7e9baf522604082c461a9f1376d81802d6721ba932b228b1a0123894c623c37beae2cdbec66a18d629a5b083ffa8d410f925e408cbe27b33fd",
      "networkId": 0,
      "chainId": 0
    },
    {
      "hash": "0x1f9cc62699f376c1479a9bfa805f52fd6c679ab64e6c8f96203a3f018692bb76",
      "blockHash": "0x2993c0168677e9163a9c00ee9945ffcec3b4f3a2ee8742c53203c63fc8596df6",
      "blockNumber": 64695,
      "transactionIndex": 4,
      "confirmations": null,
      "from": "0xEe16d55277660Cd16bF228d28E4690712d40fA3c",
      "gasPrice": {
        "_hex": "0xba43b7400"
      },
      "gasLimit": {
        "_hex": "0x5208"
      },
      "to": "0x6747f922385c9a6F9cfDf095F34345257DD597bE",
      "value": {
        "_hex": "0x11e4ee79bf23000"
      },
      "nonce": 1,
      "data": "0x",
      "r": "0x0cfa97dc7dd4d3eaefc03f65fc251d7a69fb5fa887197de2b47b3708b231d479",
      "s": "0x2dac856ac87a6b1dfb69601e77c1f880f121ff7d2c2f13d62f90e3f99f83dd1c",
      "v": 27,
      "creates": null,
      "raw": "0xf86c01850ba43b7400825208946747f922385c9a6f9cfdf095f34345257dd597be88011e4ee79bf23000801ba00cfa97dc7dd4d3eaefc03f65fc251d7a69fb5fa887197de2b47b3708b231d479a02dac856ac87a6b1dfb69601e77c1f880f121ff7d2c2f13d62f90e3f99f83dd1c",
      "networkId": 0,
      "chainId": 0
    },
    {
      "hash": "0x38922f5593e4d14a09d1a0bceff62d00223fee13c960cfcb5b627db111ca3bf1",
      "blockHash": "0x2993c0168677e9163a9c00ee9945ffcec3b4f3a2ee8742c53203c63fc8596df6",
      "blockNumber": 64695,
      "transactionIndex": 5,
      "confirmations": null,
      "from": "0x1d0c9555E128A90047145fc052Dd9057Fc3Cb9b4",
      "gasPrice": {
        "_hex": "0xba43b7400"
      },
      "gasLimit": {
        "_hex": "0x5208"
      },
      "to": "0x6747f922385c9a6F9cfDf095F34345257DD597bE",
      "value": {
        "_hex": "0x13572147582a000"
      },
      "nonce": 1,
      "data": "0x",
      "r": "0x7f50d7c420898ff76c1b02e96d9fa32502438be70575eb0ff6c43ddaca2be27d",
      "s": "0x74330f9371d633c18fd8fca645519437133149ddf8400d281cbb0118361ce354",
      "v": 27,
      "creates": null,
      "raw": "0xf86c01850ba43b7400825208946747f922385c9a6f9cfdf095f34345257dd597be88013572147582a000801ba07f50d7c420898ff76c1b02e96d9fa32502438be70575eb0ff6c43ddaca2be27da074330f9371d633c18fd8fca645519437133149ddf8400d281cbb0118361ce354",
      "networkId": 0,
      "chainId": 0
    },
    {
      "hash": "0x97a398123e90c295a50057e48ca137b766c4d07c55f231bb736ce4a0275e7f47",
      "blockHash": "0x2993c0168677e9163a9c00ee9945ffcec3b4f3a2ee8742c53203c63fc8596df6",
      "blockNumber": 64695,
      "transactionIndex": 6,
      "confirmations": null,
      "from": "0xfc9AA60D0028579c5f2Bf2b75445C7e217c5783C",
      "gasPrice": {
        "_hex": "0xba43b7400"
      },
      "gasLimit": {
        "_hex": "0x5208"
      },
      "to": "0x6747f922385c9a6F9cfDf095F34345257DD597bE",
      "value": {
        "_hex": "0xaa9f075c200000"
      },
      "nonce": 1,
      "data": "0x",
      "r": "0xc97bc4a77012d6730e433c9c3f90edec2d24ab58f94827bf57a8585050e3b408",
      "s": "0x72c454f0bc27659226b7513f841c11988487fa091fb327ed6ad6fae2cfc1928e",
      "v": 27,
      "creates": null,
      "raw": "0xf86b01850ba43b7400825208946747f922385c9a6f9cfdf095f34345257dd597be87aa9f075c200000801ba0c97bc4a77012d6730e433c9c3f90edec2d24ab58f94827bf57a8585050e3b408a072c454f0bc27659226b7513f841c11988487fa091fb327ed6ad6fae2cfc1928e",
      "networkId": 0,
      "chainId": 0
    }
  ]
}