{
  "hash": "0x8e3c5aca50d8dfd514419fdf64a964cb482ddf73b8424a18fda460fd6cb5e438",
  "parentHash": "0x6032fdf6dd5d1283f4a328a31e7eddd4dc4f9ca7f34fc75527db82f05596a7ef",
  "number": 107152,
  "timestamp": 1439917098,
  "nonce": "0x956f2eef35dd0152",
  "difficulty": 4457102781637,
  "gasLimit": {
    "_hex": "0x2fefd8"
  },
  "gasUsed": {
    "_hex": "0x5208"
  },
  "miner": "0x146095feE8714DAfd3ab50d93C04dA070b21114E",
  "extraData": "0x",
  "transactions": [
    {
      "hash": "0x32c8f2e51e61dedfe9f86516c20d9eacb56275c753a0598b27c50fab7d966554",
      "blockHash": "0x8e3c5aca50d8dfd514419fdf64a964cb482ddf73b8424a18fda460fd6cb5e438",
      "blockNumber": 107152,
      "transactionIndex": 0,
      "confirmations": null,
      "from": "0xDb09059C2114CA52360b5d4DfEFB0Ae71C0195c6",
      "gasPrice": {
        "_hex": "0xdf24498ff"
      },
      "gasLimit": {
        "_hex": "0x5208"
      },
      "to": "0x32Be343B94f860124dC4fEe278FDCBD38C102D88",
      "value": {
        "_hex": "0xf1db92b2dffd000"
      },
      "nonce": 0,
      "data": "0x",
      "r": "0x72412e5ea86a34fbe85d66c88a1cf9dc857a0a6e7fbcdab102c68d42995f65ed",
      "s": "0x6dd10f7914252e38195c9a9c8ed990d529f2608bac6e0f8d68e94359b0dab1c6",
      "v": 27,
      "creates": null,
      "raw": "0xf86c80850df24498ff8252089432be343b94f860124dc4fee278fdcbd38c102d88880f1db92b2dffd000801ba072412e5ea86a34fbe85d66c88a1cf9dc857a0a6e7fbcdab102c68d42995f65eda06dd10f7914252e38195c9a9c8ed990d529f2608bac6e0f8d68e94359b0dab1c6",
      "networkId": 0,
      "chainId": 0
    }
  ]
}