{
  "hash": "0xb9f9aab789e12a5923b2f20a2071cafb01e8dc82103d3e8ce4fa75edfdaf092b",
  "parentHash": "0x54852f7818e735f559f8f19d2b6e4b9f37cb279a74a63b9bd51ea3a79cebb187",
  "number": 72690,
  "timestamp": 1439356702,
  "nonce": "0xc80da71808be276a",
  "difficulty": 2191836773066,
  "gasLimit": {
    "_hex": "0x2fefd8"
  },
  "gasUsed": {
    "_hex": "0x5208"
  },
  "miner": "0x9746c7e1ef2bd21FF3997fa467593a89cb852BD0",
  "extraData": "0x476574682f76312e302e312f77696e646f77732f676f312e342e32",
  "transactions": [
    {
      "hash": "0xf94b1288e42761aab4983172dacf5a43931b8b47a74b695f885711ca77c4b9d7",
      "blockHash": "0xb9f9aab789e12a5923b2f20a2071cafb01e8dc82103d3e8ce4fa75edfdaf092b",
      "blockNumber": 72690,
      "transactionIndex": 0,
      "confirmations": null,
      "from": "0x9CF253B20806e369059D8D8023f376b1aE248aDD",
      "gasPrice": {
        "_hex": "0xcdd2382f3"
      },
      "gasLimit": {
        "_hex": "0x15f90"
      },
      "to": "0x6d37bd781411ccDd33792481E2C9CE5b62D3a5B8",
      "value": {
        "_hex": "0x1806a2b3d36520000"
      },
      "nonce": 1,
      "data": "0x",
      "r": "0x943bb82693430913776c0c8da54e59332b2fe8dfb91f3b530c6d2ebb68d569da",
      "s": "0x52258794a236c84d235b7fc39ed6f3dac6e21094fdaadc1d53d64159c17407b3",
      "v": 27,
      "creates": null,
      "raw": "0xf86e01850cdd2382f383015f90946d37bd781411ccdd33792481e2c9ce5b62d3a5b88901806a2b3d36520000801ba0943bb82693430913776c0c8da54e59332b2fe8dfb91f3b530c6d2ebb68d569daa052258794a236c84d235b7fc39ed6f3dac6e21094fdaadc1d53d64159c17407b3",
      "networkId": 0,
      "chainId": 0
    }
  ]
}