{
  "hash": "0x38c0446569875a92eb01f6106571b13fdfe60e399ea641e3f19730c2a6087f04",
  "parentHash": "0x1329ff3ffd66b213447133c2fb680b95347e1943e697b69b2e6a701f066e819c",
  "number": 103080,
  "timestamp": 1439847324,
  "nonce": "0x021e424dc24516a6",
  "difficulty": 4176838756285,
  "gasLimit": {
    "_hex": "0x2fefd8"
  },
  "gasUsed": {
    "_hex": "0x20fc6"
  },
  "miner": "0xe6A7a1d47ff21B6321162AEA7C6CB457D5476Bca",
  "extraData": "0x476574682f76312e302e312d38326566323666362f6c696e75782f676f312e34",
  "transactions": [
    {
      "hash": "0xf54669c83ddcb574190713e9b0ced8cb09622ca244822c7afa0e58c445ab1d65",
      "blockHash": "0x38c0446569875a92eb01f6106571b13fdfe60e399ea641e3f19730c2a6087f04",
      "blockNumber": 103080,
      "transactionIndex": 0,
      "confirmations": null,
      "from": "0xE11bC3E5E6285CC7e065efC6A8CA3937222351FF",
      "gasPrice": {
        "_hex": "0xcd624ac97"
      },
      "gasLimit": {
        "_hex": "0x249f0"
      },
      "to": "0xE28e72FCf78647ADCe1F1252F240bbfaebD63BcC",
      "value": {
        "_hex": "0x29a2241af62c0000"
      },
      "nonce": 0,
      "data": "0x45466f3a",
      "r": "0xf5ad464c37c6f3270374749e8ebb935633c626080e86f64f7555e94252f37a0c",
      "s": "0x5d937e8723343194541a53f2a456090cbf94134c374fecadd67ad015008c4210",
      "v": 28,
      "creates": null,
      "raw": "0xf87180850cd624ac97830249f094e28e72fcf78647adce1f1252f240bbfaebd63bcc8829a2241af62c00008445466f3a1ca0f5ad464c37c6f3270374749e8ebb935633c626080e86f64f7555e94252f37a0ca05d937e8723343194541a53f2a456090cbf94134c374fecadd67ad015008c4210",
      "networkId": 0,
      "chainId": 0
    },
    {
      "hash": "0x599b639c366bbf91998e74b8444b4141b4d3435a3969651f625c4ccf0d84f3fc",
      "blockHash": "0x38c0446569875a92eb01f6106571b13fdfe60e399ea641e3f19730c2a6087f04",
      "blockNumber": 103080,
      "transactionIndex": 1,
      "confirmations": null,
      "from": "0x03Ef98f6F8d29683080690Bd0339dF4CfC8b7989",
      "gasPrice": {
        "_hex": "0xba43b7400"
      },
      "gasLimit": {
        "_hex": "0x5208"
      },
      "to": "0xa30e0ACB534c9b3084E8501dA090B4eB16A2C0Cd",
      "value": {
        "_hex": "0x87859a27037219c0000"
      },
      "nonce": 3,
      "data": "0x",
      "r": "0x5ea81b27cd3329f86f563fff7b9a12cd3021f2342628d93f80c7d07ff80e003d",
      "s": "0x205d9b4e86bf78c2d0e9b03f2393666e8f10bbf5cb4fcb3bf1eb24d912a65bb4",
      "v": 27,
      "creates": null,
      "raw": "0xf86e03850ba43b740082520894a30e0acb534c9b3084e8501da090b4eb16a2c0cd8a087859a27037219c0000801ba05ea81b27cd3329f86f563fff7b9a12cd3021f2342628d93f80c7d07ff80e003da0205d9b4e86bf78c2d0e9b03f2393666e8f10bbf5cb4fcb3bf1eb24d912a65bb4",
      "networkId": 0,
      "chainId": 0
    }
  ]
}