{
  "hash": "0x615fdbfa5bbd6ca9f5a936d44151c3f532a5572ffb685f16b16af0e173b77434",
  "parentHash": "0xacc9069553ef4fa96504dc0f343657aa089fbdc6824bcfae4647dad2a62c457b",
  "number": 106289,
  "timestamp": 1439901769,
  "nonce": "0xc6f0df8a345bd501",
  "difficulty": 4464095757542,
  "gasLimit": {
    "_hex": "0x2fefd8"
  },
  "gasUsed": {
    "_hex": "0x5208"
  },
  "miner": "0xbb7B8287f3F0a933474a79eAe42CBCa977791171",
  "extraData": "0x476574682f4c5649562f76312e302e312f6c696e75782f676f312e342e32",
  "transactions": [
    {
      "hash": "0xf627fefe6f30e5bd947acb6d52ec361f16d17f16117d346aa0151c1488e6d90e",
      "blockHash": "0x615fdbfa5bbd6ca9f5a936d44151c3f532a5572ffb685f16b16af0e173b77434",
      "blockNumber": 106289,
      "transactionIndex": 0,
      "confirmations": null,
      "from": "0xd3D6e9FB82542fD29eD9Ea3609891E151396B6f7",
      "gasPrice": {
        "_hex": "0xd4be89f70"
      },
      "gasLimit": {
        "_hex": "0x5208"
      },
      "to": "0x2878c60b86FBf89645547fEcFA7f74B067f32E52",
      "value": {
        "_hex": "0xb6f4a9f488d60088000"
      },
      "nonce": 1,
      "data": "0x",
      "r": "0x8bc5ca93bcf0a4e53a94a002b0ec9a5b0c958cf30d4d086ecda63ce06f8e330f",
      "s": "0x15d79bc6d8cdda083e4927c35532dbeee21765aebf171a9bce962e950ad38364",
      "v": 28,
      "creates": null,
      "raw": "0xf86e01850d4be89f70825208942878c60b86fbf89645547fecfa7f74b067f32e528a0b6f4a9f488d60088000801ca08bc5ca93bcf0a4e53a94a002b0ec9a5b0c958cf30d4d086ecda63ce06f8e330fa015d79bc6d8cdda083e4927c35532dbeee21765aebf171a9bce962e950ad38364",
      "networkId": 0,
      "chainId": 0
    }
  ]
}