{
  "hash": "0xff6e954bdb082119eb37e4c0b25931eee741ae0cd8fb2490cc83206d3f72c81c",
  "parentHash": "0x4c05040403e5864215fa42e29d3f5e830a74e8149592b917b3d6ef2e9432c906",
  "number": 88945,
  "timestamp": 1439615938,
  "nonce": "0xafcd28c22c5c5e0a",
  "difficulty": 3244123332341,
  "gasLimit": {
    "_hex": "0x2fefd8"
  },
  "gasUsed": {
    "_hex": "0x5208"
  },
  "miner": "0xf8E0CA3Ed80bd541b94BEdCf259e8CF2141A9523",
  "extraData": "0x476574682f76312e302e312f77696e646f77732f676f312e342e32",
  "transactions": [
    {
      "hash": "0x6d2b75cd792829f492856fe7f57ea47e5bf1b5e966d3876a5ee0f3f667edcc7a",
      "blockHash": "0xff6e954bdb082119eb37e4c0b25931eee741ae0cd8fb2490cc83206d3f72c81c",
      "blockNumber": 88945,
      "transactionIndex": 0,
      "confirmations": null,
      "from": "0x14009AbabEd54f8E39466887572cd666D742655A",
      "gasPrice": {
        "_hex": "0xda7ead958"
      },
      "gasLimit": {
        "_hex": "0x5208"
      },
      "to": "0x32Be343B94f860124dC4fEe278FDCBD38C102D88",
      "value": {
        "_hex": "0x259085d379a332000"
      },
      "nonce": 0,
      "data": "0x",
      "r": "0x756d7d6acaf49ecac9487b004e74f2af5274e6c6c485bf9b5acfda78697629ee",
      "s": "0x0a4eaddb28383e44a203f46330822e57bbb18586d12ec268bfc2283e518ae29b",
      "v": 28,
      "creates": null,
      "raw": "0xf86d80850da7ead9588252089432be343b94f860124dc4fee278fdcbd38c102d88890259085d379a332000801ca0756d7d6acaf49ecac9487b004e74f2af5274e6c6c485bf9b5acfda78697629eea00a4eaddb28383e44a203f46330822e57bbb18586d12ec268bfc2283e518ae29b",
      "networkId": 0,
      "chainId": 0
    }
  ]
}