{
  "hash": "0xb4863afb4ca3284b6295f4ea7f2d8266408e4ef02c4304adbbed6e4729aaee07",
  "parentHash": "0xec09b2b1c9027dca60a8ec0b31efa4baba6fde12806cb827d766a9c84aff8848",
  "number": 49683,
  "timestamp": 1438977348,
  "nonce": "0x1e53f8050ec6415a",
  "difficulty": 1490779183927,
  "gasLimit": {
    "_hex": "0x3a72c"
  },
  "gasUsed": {
    "_hex": "0x546c"
  },
  "miner": "0xf32866D5cE9a9b5673e076be48AbCd6ED48ADe78",
  "extraData": "0x476574682f76312e302e312d38326566323666362f6c696e75782f676f312e34",
  "transactions": [
    {
      "hash": "0x2cebc154c6c107116a77646ca23d23de86379fb0f6983695463336080f3f9476",
      "blockHash": "0xb4863afb4ca3284b6295f4ea7f2d8266408e4ef02c4304adbbed6e4729aaee07",
      "blockNumber": 49683,
      "transactionIndex": 0,
      "confirmations": null,
      "from": "0x0256149f5B5063beA14E15661FfB58F9B459a957",
      "gasPrice": {
        "_hex": "0x110c8f7d8de"
      },
      "gasLimit": {
        "_hex": "0xc350"
      },
      "to": "0x2910543Af39abA0Cd09dBb2D50200b3E800A63D2",
      "value": {
        "_hex": "0x261c15b758ab9c0000"
      },
      "nonce": 0,
      "data": "0x454e35433736595430",
      "r": "0x6f8b578f6b213a75b3be6375671af96f8018aa8ee368a1e42bee946238d79588",
      "s": "0x0dc1552daff519e21d5474a648a16f764c1c9b9e49bfce8b62608145c04faa5f",
      "v": 27,
      "creates": null,
      "raw": "0xf87780860110c8f7d8de82c350942910543af39aba0cd09dbb2d50200b3e800a63d289261c15b758ab9c000089454e354337365954301ba06f8b578f6b213a75b3be6375671af96f8018aa8ee368a1e42bee946238d79588a00dc1552daff519e21d5474a648a16f764c1c9b9e49bfce8b62608145c04faa5f",
      "networkId": 0,
      "chainId": 0
    }
  ]
}