{
  "hash": "0x88da6d0f62a640d2d935a4d4959d97213916a69a22930a337b2e00d84abc755d",
  "parentHash": "0x9b2f7ddc27aa619794558d6e60e9171b217aaccf10b21ef7348c7d32e6fa95b2",
  "number": 84306,
  "timestamp": 1439547829,
  "nonce": "0xcd192ac57f821978",
  "difficulty": 2536578473678,
  "gasLimit": {
    "_hex": "0x2fefd8"
  },
  "gasUsed": {
    "_hex": "0xa410"
  },
  "miner": "0xbb7B8287f3F0a933474a79eAe42CBCa977791171",
  "extraData": "0x476574682f4c5649562f76312e302e312f6c696e75782f676f312e342e32",
  "transactions": [
    {
      "hash": "0x913e62b9fef8bbfe253c3de150c710cad10330f3720af82cc30451750cdfefbf",
      "blockHash": "0x88da6d0f62a640d2d935a4d4959d97213916a69a22930a337b2e00d84abc755d",
      "blockNumber": 84306,
      "transactionIndex": 0,
      "confirmations": null,
      "from": "0x7CabE4dE323c392C7135680c61a04d5Eb7519897",
      "gasPrice": {
        "_hex": "0xdfb2225f8"
      },
      "gasLimit": {
        "_hex": "0x5208"
      },
      "to": "0x32Be343B94f860124dC4fEe278FDCBD38C102D88",
      "value": {
        "_hex": "0xd811907790b80000"
      },
      "nonce": 2,
      "data": "0x",
      "r": "0xdcbf13a62eeb4d95067d80fdba3f346feb25494a1d2eda26c27e0b7e392eb2b8",
      "s": "0x7af4677e022fd4a80010b54808c29cd372abffd3ff8c6a5e99aa0d6bc013778b",
      "v": 27,
      "creates": null,
      "raw": "0xf86c02850dfb2225f88252089432be343b94f860124dc4fee278fdcbd38c102d8888d811907790b80000801ba0dcbf13a62eeb4d95067d80fdba3f346feb25494a1d2eda26c27e0b7e392eb2b8a07af4677e022fd4a80010b54808c29cd372abffd3ff8c6a5e99aa0d6bc013778b",
      "networkId": 0,
      "chainId": 0
    },
    {
      "hash": "0x4ac0bb9cc1217cb54be007b2334ce75a15801adb18e176b8d9175179954325bc",
      "blockHash": "0x88da6d0f62a640d2d935a4d4959d97213916a69a22930a337b2e00d84abc755d",
      "blockNumber": 84306,
      "transactionIndex": 1,
      "confirmations": null,
      "from": "0xbc681E36E2BC0d9Cb397811ce7a5821da2D66059",
      "gasPrice": {
        "_hex": "0xdfb2225f8"
      },
      "gasLimit": {
        "_hex": "0x5208"
      },
      "to": "0x32Be343B94f860124dC4fEe278FDCBD38C102D88",
      "value": {
        "_hex": "0x85889e72da1f2800"
      },
      "nonce": 3,
      "data": "0x",
      "r": "0x36381f386494c1ae82fa916e4db6f00b3bc405f3064d5b4fbddba0e31cbb4a68",
      "s": "0x6f6da478a026b504a8f4de9fcfcf24032978c3751fd958b012fc66009fb1f594",
      "v": 28,
      "creates": null,
      "raw": "0xf86c03850dfb2225f88252089432be343b94f860124dc4fee278fdcbd38c102d888885889e72da1f2800801ca036381f386494c1ae82fa916e4db6f00b3bc405f3064d5b4fbddba0e31cbb4a68a06f6da478a026b504a8f4de9fcfcf24032978c3751fd958b012fc66009fb1f594",
      "networkId": 0,
      "chainId": 0
    }
  ]
}