{
  "hash": "0x91412a1d41c6444f9ec786782901dd1f791ec0020bb87ba141904f39f28c80e1",
  "parentHash": "0x1e677c069f3e23cf2fb389fa0a3bd77f2a699c616d850030e199ce6135690975",
  "number": 56927,
  "timestamp": 1439094737,
  "nonce": "0x20910fceac8b56ac",
  "difficulty": 1711050072036,
  "gasLimit": {
    "_hex": "0x2fefd8"
  },
  "gasUsed": {
    "_hex": "0x5208"
  },
  "miner": "0xc8ebccC5F5689Fa8659d83713341e5aD19349448",
  "extraData": "0x476574682f76312e302e302d35363231396135652f6c696e75782f676f312e34",
  "transactions": [
    {
      "hash": "0xe0afc699250b81a7450feee5fc565b7f2a530a47dc136cee89fd3e5048d5854d",
      "blockHash": "0x91412a1d41c6444f9ec786782901dd1f791ec0020bb87ba141904f39f28c80e1",
      "blockNumber": 56927,
      "transactionIndex": 0,
      "confirmations": null,
      "from": "0x3e24D2A72282bE2807BB9e0B9e6D75ed7776e4fb",
      "gasPrice": {
        "_hex": "0x746a528800"
      },
      "gasLimit": {
        "_hex": "0x5267"
      },
      "to": "0x5a9bC4FDfE098D03128afDCCa4Ff1Ae24fEc72bC",
      "value": {
        "_hex": "0x114b03a9dd959c0000"
      },
      "nonce": 2,
      "data": "0x",
      "r": "0x993169db6ff5815ae68b4eef182227637f5ae6df0d58ba0bb92f975f6a4a7881",
      "s": "0x26919a141cf079a9b2b1acec0ec64d38320b61172bf71306a4241567a784eb07",
      "v": 27,
      "creates": null,
      "raw": "0xf86d0285746a528800825267945a9bc4fdfe098d03128afdcca4ff1ae24fec72bc89114b03a9dd959c0000801ba0993169db6ff5815ae68b4eef182227637f5ae6df0d58ba0bb92f975f6a4a7881a026919a141cf079a9b2b1acec0ec64d38320b61172bf71306a4241567a784eb07",
      "networkId": 0,
      "chainId": 0
    }
  ]
}