{
  "hash": "0x7abf9cf5d066f28692958da41b11906e70304fd2fc56fec77ffb908ef56f1c33",
  "parentHash": "0xc067d1e8c367e67b1f8dc732443c7f20d6654339dda41d68fb2f5cff4d23818a",
  "number": 91411,
  "timestamp": 1439655326,
  "nonce": "0xd06106deb656630f",
  "difficulty": 3465848358718,
  "gasLimit": {
    "_hex": "0x2fefd8"
  },
  "gasUsed": {
    "_hex": "0x5208"
  },
  "miner": "0xe6A7a1d47ff21B6321162AEA7C6CB457D5476Bca",
  "extraData": "0x476574682f76312e302e312d38326566323666362f6c696e75782f676f312e34",
  "transactions": [
    {
      "hash": "0xfd0d7e89915006fdc7909ed7dd06e0abc93911b30adc202db7ac28df6313d72a",
      "blockHash": "0x7abf9cf5d066f28692958da41b11906e70304fd2fc56fec77ffb908ef56f1c33",
      "blockNumber": 91411,
      "transactionIndex": 0,
      "confirmations": null,
      "from": "0xbAeF66124E137Eb5eE0DE1BbAB5a30002508a1bf",
      "gasPrice": {
        "_hex": "0xe1a9d543c"
      },
      "gasLimit": {
        "_hex": "0x15f90"
      },
      "to": "0xAF17A4ab5d6B10055Fc1eB1BFaCcbDe69B83aF76",
      "value": {
        "_hex": "0x471fa858b9e080000"
      },
      "nonce": 1,
      "data": "0x",
      "r": "0x0c4868ca7bf54db94f43057a9ba55b87e2c8c359f1b23b93edb8c980a49114e4",
      "s": "0x290796621c728cf167793b4ced3fbb1035884a82681608ff4bd22b946ad77b82",
      "v": 27,
      "creates": null,
      "raw": "0xf86e01850e1a9d543c83015f9094af17a4ab5d6b10055fc1eb1bfaccbde69b83af76890471fa858b9e080000801ba00c4868ca7bf54db94f43057a9ba55b87e2c8c359f1b23b93edb8c980a49114e4a0290796621c728cf167793b4ced3fbb1035884a82681608ff4bd22b946ad77b82",
      "networkId": 0,
      "chainId": 0
    }
  ]
}