{
  "hash": "0xdf43ac8251ad8a931fc6f37d90b5cb0732707f4afce6564c4999aa8ddaf04939",
  "parentHash": "0xa27096ef6bb0d37ed5a0e28892209b5a385ff616e29626b00e6ca30684a85bcc",
  "number": 113684,
  "timestamp": 1440027755,
  "nonce": "0x46bf9f2a38dd18de",
  "difficulty": 4457984873420,
  "gasLimit": {
    "_hex": "0x2fefd8"
  },
  "gasUsed": {
    "_hex": "0x1d52e"
  },
  "miner": "0xe6A7a1d47ff21B6321162AEA7C6CB457D5476Bca",
  "extraData": "0x476574682f76312e302e312d38326566323666362f6c696e75782f676f312e34",
  "transactions": [
    {
      "hash": "0xf404318663679bc631de47a9d4545c75a73e4bb1c9ff2d5c0fd104bf3f65fa89",
      "blockHash": "0xdf43ac8251ad8a931fc6f37d90b5cb0732707f4afce6564c4999aa8ddaf04939",
      "blockNumber": 113684,
      "transactionIndex": 0,
      "confirmations": null,
      "from": "0x72c083BeadBdc227c5fb43881597E32e83C26056",
      "gasPrice": {
        "_hex": "0x10dc90d85e7"
      },
      "gasLimit": {
        "_hex": "0x249f0"
      },
      "to": "0xE28e72FCf78647ADCe1F1252F240bbfaebD63BcC",
      "value": {
        "_hex": "0x10f0cf064dd59200000"
      },
      "nonce": 13,
      "data": "0x45466f3a",
      "r": "0x7889570bea24051e636e17d0492b20f49ba0b8bb3fe168305b09526f99f3be27",
      "s": "0x654e82d3f1b5d96bc0464f2136a7f137332c046036a06a4c867f3c85f7be4412",
      "v": 28,
      "creates": null,
      "raw": "0xf8740d86010dc90d85e7830249f094e28e72fcf78647adce1f1252f240bbfaebd63bcc8a010f0cf064dd592000008445466f3a1ca07889570bea24051e636e17d0492b20f49ba0b8bb3fe168305b09526f99f3be27a0654e82d3f1b5d96bc0464f2136a7f137332c046036a06a4c867f3c85f7be4412",
      "networkId": 0,
      "chainId": 0
    },
    {
      "hash": "0x223a847def803002fe219054b82947b48d0a7e97aee49792fce3cf4207e894ad",
      "blockHash": "0xdf43ac8251ad8a931fc6f37d90b5cb0732707f4afce6564c4999aa8ddaf04939",
      "blockNumber": 113684,
      "transactionIndex": 1,
      "confirmations": null,
      "from": "0x3D92adD52e14562fb2621F47a37dBd6172483A7f",
      "gasPrice": {
        "_hex": "0xd23ee12e2"
      },
      "gasLimit": {
        "_hex": "0x15f90"
      },
      "to": "0x61F642543d22bAf5382908a714E675Cc0b51ea45",
      "value": {
        "_hex": "0x4563918244f40000"
      },
      "nonce": 1,
      "data": "0x",
      "r": "0x666397d13ca9d66928a206f386428b36d9f8e9a93bf5365d201796a2c8fbe2a6",
      "s": "0x715099f5912ac86b6608ea3cc98774f3e52e344cb96bb6d735cda323a87389e9",
      "v": 28,
      "creates": null,
      "raw": "0xf86d01850d23ee12e283015f909461f642543d22baf5382908a714e675cc0b51ea45884563918244f40000801ca0666397d13ca9d66928a206f386428b36d9f8e9a93bf5365d201796a2c8fbe2a6a0715099f5912ac86b6608ea3cc98774f3e52e344cb96bb6d735cda323a87389e9",
      "networkId": 0,
      "chainId": 0
    }
  ]
}