{
  "hash": "0xa79cc8c51bd4a021c1c73dede078d41c28d1a56ba6c7e271404c5f60edac4392",
  "parentHash": "0x6757168672e8553d39f5e108680bfddd7117ff3e11f33127719e7e057c6cb77b",
  "number": 112829,
  "timestamp": 1440013913,
  "nonce": "0xdfe66fc07c9855c4",
  "difficulty": 4430228261493,
  "gasLimit": {
    "_hex": "0x2fefd8"
  },
  "gasUsed": {
    "_hex": "0x5208"
  },
  "miner": "0xe6A7a1d47ff21B6321162AEA7C6CB457D5476Bca",
  "extraData": "0x476574682f76312e302e312d38326566323666362f6c696e75782f676f312e34",
  "transactions": [
    {
      "hash": "0x8c9f7118a27ae301ee9d3ad55bf0a5b080089a86df5cad8463a284cc70aff810",
      "blockHash": "0xa79cc8c51bd4a021c1c73dede078d41c28d1a56ba6c7e271404c5f60edac4392",
      "blockNumber": 112829,
      "transactionIndex": 0,
      "confirmations": null,
      "from": "0xE3a44b84A68C84F674E1e8c17445742DE48D9501",
      "gasPrice": {
        "_hex": "0xce7f1ea12"
      },
      "gasLimit": {
        "_hex": "0x5208"
      },
      "to": "0x32Be343B94f860124dC4fEe278FDCBD38C102D88",
      "value": {
        "_hex": "0x93ba036b9e8cd000"
      },
      "nonce": 5,
      "data": "0x",
      "r": "0xf555d498f7332f222ad166e1818fd47a6a06a56ea13ee9ca0f725c9b849b130f",
      "s": "0x655d4812bc5c40e3aee7402ff80c6c3b76e44cab60bb2801e405f2abc5a9919c",
      "v": 27,
      "creates": null,
      "raw": "0xf86c05850ce7f1ea128252089432be343b94f860124dc4fee278fdcbd38c102d888893ba036b9e8cd000801ba0f555d498f7332f222ad166e1818fd47a6a06a56ea13ee9ca0f725c9b849b130fa0655d4812bc5c40e3aee7402ff80c6c3b76e44cab60bb2801e405f2abc5a9919c",
      "networkId": 0,
      "chainId": 0
    }
  ]
}