{
  "hash": "0xee266de3c17efe01da55d96d9d0f74ad6d19f29b80ef59bba398d5eb1a3f7ef4",
  "parentHash": "0xe77c4be0b807b83765bbfa47b1965076b5547a52142ed4a2ea6f81ea9f56d770",
  "number": 91732,
  "timestamp": 1439660597,
  "nonce": "0x49b81311004d9194",
  "difficulty": 3474187294231,
  "gasLimit": {
    "_hex": "0x2fefd8"
  },
  "gasUsed": {
    "_hex": "0x5208"
  },
  "miner": "0xe6A7a1d47ff21B6321162AEA7C6CB457D5476Bca",
  "extraData": "0x476574682f76312e302e312d38326566323666362f6c696e75782f676f312e34",
  "transactions": [
    {
      "hash": "0xb412d511e5728acd77658a682d04a511665abc59ab83694fd720962c97a395dc",
      "blockHash": "0xee266de3c17efe01da55d96d9d0f74ad6d19f29b80ef59bba398d5eb1a3f7ef4",
      "blockNumber": 91732,
      "transactionIndex": 0,
      "confirmations": null,
      "from": "0xa4FDdE956cc0FF6102d3794647395E3ec786e8b5",
      "gasPrice": {
        "_hex": "0xce0015f07"
      },
      "gasLimit": {
        "_hex": "0x15f90"
      },
      "to": "0x202aD59cfc4E664e5bC52fdF2B63d0b5587c4BBb",
      "value": {
        "_hex": "0x33590a6584f20000"
      },
      "nonce": 0,
      "data": "0x",
      "r": "0xc0cd9716443b107778e44175ce3b3bf36d8fb0f2122a7593d1df2109fee0e1a4",
      "s": "0x4c3ceab6e14fc4ddfdd00884dceeb73fa1150eaae5dc58af46c26461228e8e1e",
      "v": 27,
      "creates": null,
      "raw": "0xf86d80850ce0015f0783015f9094202ad59cfc4e664e5bc52fdf2b63d0b5587c4bbb8833590a6584f20000801ba0c0cd9716443b107778e44175ce3b3bf36d8fb0f2122a7593d1df2109fee0e1a4a04c3ceab6e14fc4ddfdd00884dceeb73fa1150eaae5dc58af46c26461228e8e1e",
      "networkId": 0,
      "chainId": 0
    }
  ]
}