{
  "hash": "0x14e40351ec12348e528bea1878fd673c2583d76cd3aec6a63165a17967a0c6db",
  "parentHash": "0xfb4e77f49480e59ba9040b5d5c13cf7d22d7a7518912b5503ffee9544f0dee48",
  "number": 75630,
  "timestamp": 1439406577,
  "nonce": "0x179c35e114d1fee9",
  "difficulty": 2225573037377,
  "gasLimit": {
    "_hex": "0x2fefd8"
  },
  "gasUsed": {
    "_hex": "0x8f9f"
  },
  "miner": "0x580992B51e3925e23280EfB93d3047C82f17E038",
  "extraData": "0x476574682f76312e302e312f6c696e75782f676f312e342e32",
  "transactions": [
    {
      "hash": "0xccca717b97357237215c1f96981d610eaf022fa97354c13dd2c1dd61609a377a",
      "blockHash": "0x14e40351ec12348e528bea1878fd673c2583d76cd3aec6a63165a17967a0c6db",
      "blockNumber": 75630,
      "transactionIndex": 0,
      "confirmations": null,
      "from": "0x326Be8F71bFb0379f989aAB1CC1fE37f0a771f60",
      "gasPrice": {
        "_hex": "0x1137b2ef8be"
      },
      "gasLimit": {
        "_hex": "0x493e0"
      },
      "to": "0xD79B4C6791784184e2755B2fC1659eaaB0f80456",
      "value": {
        "_hex": "0xde0b6b3a7640000"
      },
      "nonce": 102,
      "data": "0x8d21618600000000000000000000000000000000000000000000000000000000000000808adce32357db345191b07d5ad38215b34baf902b0b0ec774cffbeb28acd9330b",
      "r": "0x74c0dca0a8e5540974a189c907db4bb96ec5b25d95ee1d05c4f68d138b34643e",
      "s": "0x373ffb524989176812beb25180ca980e99cd6b65d9aa7cbf1f4cfb0bd061914f",
      "v": 28,
      "creates": null,
      "raw": "0xf8b3668601137b2ef8be830493e094d79b4c6791784184e2755b2fc1659eaab0f80456880de0b6b3a7640000b8448d21618600000000000000000000000000000000000000000000000000000000000000808adce32357db345191b07d5ad38215b34baf902b0b0ec774cffbeb28acd9330b1ca074c0dca0a8e5540974a189c907db4bb96ec5b25d95ee1d05c4f68d138b34643ea0373ffb524989176812beb25180ca980e99cd6b65d9aa7cbf1f4cfb0bd061914f",
      "networkId": 0,
      "chainId": 0
    }
  ]
}