{
  "hash": "0xd7e30b33c2c9f6f58792ef9e8c9dd3ffb14b9b7563b71a91af0a9697fbc99814",
  "parentHash": "0x693fc212d8de55251323e1c265d033047cb846618489eb712b2b6e2e4f2da4ba",
  "number": 79818,
  "timestamp": 1439475580,
  "nonce": "0x6d586fcaf6b891e0",
  "difficulty": 2358696022260,
  "gasLimit": {
    "_hex": "0x2fefd8"
  },
  "gasUsed": {
    "_hex": "0x17a15"
  },
  "miner": "0xe090Ffdced499691fA9379752a59F8A058c1eE4A",
  "extraData": "0x476574682f76312e302e312f6c696e75782f676f312e342e32",
  "transactions": [
    {
      "hash": "0x7afd00f1c2c88024f45324a3d745cd18628888ba5ed835764bf89f6ff521403f",
      "blockHash": "0xd7e30b33c2c9f6f58792ef9e8c9dd3ffb14b9b7563b71a91af0a9697fbc99814",
      "blockNumber": 79818,
      "transactionIndex": 0,
      "confirmations": null,
      "from": "0x87C5B5874A18B4306DF8a752a6C8cc3E82daFc19",
      "gasPrice": {
        "_hex": "0x113f55007c5"
      },
      "gasLimit": {
        "_hex": "0x493e0"
      },
      "to": "0xC4c51de1AbF5D60DBd329eC0F999Fd8f021ae9fC",
      "value": {
        "_hex": "0x15af1d78b58c40000"
      },
      "nonce": 106,
      "data": "0x8d21618600000000000000000000000000000000000000000000000000000000000000808d5adaad541502933bfca57b79fdcf7b21a9ea7dbcf2e9321d253f5db02ac8f3",
      "r": "0x129e9f0953b3ba93b8b00342e0542f15b98a6b45a39abd294cb497ec09ab90f4",
      "s": "0x52c8678cf54df06b54d9c74c10655f26c26ce179f372d207aabdb4ba60613ba4",
      "v": 27,
      "creates": null,
      "raw": "0xf8b46a860113f55007c5830493e094c4c51de1abf5d60dbd329ec0f999fd8f021ae9fc89015af1d78b58c40000b8448d21618600000000000000000000000000000000000000000000000000000000000000808d5adaad541502933bfca57b79fdcf7b21a9ea7dbcf2e9321d253f5db02ac8f31ba0129e9f0953b3ba93b8b00342e0542f15b98a6b45a39abd294cb497ec09ab90f4a052c8678cf54df06b54d9c74c10655f26c26ce179f372d207aabdb4ba60613ba4",
      "networkId": 0,
      "chainId": 0
    }
  ]
}