{
  "hash": "0x07d133e1404186b4fbb1b7d7f2436b6fa5232086998c86df2d19c9c360ce6e37",
  "parentHash": "0xcf07bd32c355d7ba8128380061ed47653bf7de8cc0d8c6e7e2100f0621ce2c7f",
  "number": 103145,
  "timestamp": 1439848436,
  "nonce": "0x826738ef231eb29c",
  "difficulty": 4187016131768,
  "gasLimit": {
    "_hex": "0x2fefd8"
  },
  "gasUsed": {
    "_hex": "0xa410"
  },
  "miner": "0xEF247E639d49461D25F57e9362CadE3120910Ce0",
  "extraData": "0x476574682f76312e302e312f6c696e75782f676f312e342e32",
  "transactions": [
    {
      "hash": "0x2f066014f8d057dcbb488b515fd2a95bbf712e2c44d3d7f561a37d662e52206e",
      "blockHash": "0x07d133e1404186b4fbb1b7d7f2436b6fa5232086998c86df2d19c9c360ce6e37",
      "blockNumber": 103145,
      "transactionIndex": 0,
      "confirmations": null,
      "from": "0xF87481A262E993a75F791E7859E71BaC36A606Eb",
      "gasPrice": {
        "_hex": "0xd0ec2cfc4"
      },
      "gasLimit": {
        "_hex": "0x5208"
      },
      "to": "0x32Be343B94f860124dC4fEe278FDCBD38C102D88",
      "value": {
        "_hex": "0x6fe37eb4b3dae4000"
      },
      "nonce": 35,
      "data": "0x",
      "r": "0x1bf407a03bba011023ebe90e09e70a965bbfa45d6989d726ffdd9836b72677d1",
      "s": "0x26e10206d656e7653f3be1db4089e5ddbafdc78d4395a7ad9500132636b2b9d7",
      "v": 28,
      "creates": null,
      "raw": "0xf86d23850d0ec2cfc48252089432be343b94f860124dc4fee278fdcbd38c102d888906fe37eb4b3dae4000801ca01bf407a03bba011023ebe90e09e70a965bbfa45d6989d726ffdd9836b72677d1a026e10206d656e7653f3be1db4089e5ddbafdc78d4395a7ad9500132636b2b9d7",
      "networkId": 0,
      "chainId": 0
    },
    {
      "hash": "0x290b0a55087d5bba20528a873770c01c474132fe15bd8de002a3e10aa8cf77b2",
      "blockHash": "0x07d133e1404186b4fbb1b7d7f2436b6fa5232086998c86df2d19c9c360ce6e37",
      "blockNumber": 103145,
      "transactionIndex": 1,
      "confirmations": null,
      "from": "0x4c74B6F32c9680aCB5Fe0e72B7Aa95C612540A04",
      "gasPrice": {
        "_hex": "0xd0ec2cfc4"
      },
      "gasLimit": {
        "_hex": "0x5208"
      },
      "to": "0x32Be343B94f860124dC4fEe278FDCBD38C102D88",
      "value": {
        "_hex": "0x29a1e128bc0756000"
      },
      "nonce": 38,
      "data": "0x",
      "r": "0x364173004c748353c0b8ebe543b92995509dcc83da042449822d9859f75d831e",
      "s": "0x118ed0b745c062107c67a350dccafe703fbaa728e31ef21934a7a317feba9608",
      "v": 27,
      "creates": null,
      "raw": "0xf86d26850d0ec2cfc48252089432be343b94f860124dc4fee278fdcbd38c102d8889029a1e128bc0756000801ba0364173004c748353c0b8ebe543b92995509dcc83da042449822d9859f75d831ea0118ed0b745c062107c67a350dccafe703fbaa728e31ef21934a7a317feba9608",
      "networkId": 0,
      "chainId": 0
    }
  ]
}