{
  "hash": "0x47df943327ad7091929e850b19d2fb15707fd42235a46729ff5b02c48cee0cf2",
  "parentHash": "0xfb96a707fa3dc60a6b71dffdcc29c0f69f5441a22731dd9c61defaf4cf29ab95",
  "number": 121376,
  "timestamp": 1440176217,
  "nonce": "0xc749a683adf80b6a",
  "difficulty": 4389131823383,
  "gasLimit": {
    "_hex": "0x2fefd8"
  },
  "gasUsed": {
    "_hex": "0x5208"
  },
  "miner": "0xe6A7a1d47ff21B6321162AEA7C6CB457D5476Bca",
  "extraData": "0xd783010002844765746887676f312e342e32856c696e7578",
  "transactions": [
    {
      "hash": "0x28734d19bcff1b62dcc59230c82105b29bf3134fd0f461dda6fe7d902c83ad57",
      "blockHash": "0x47df943327ad7091929e850b19d2fb15707fd42235a46729ff5b02c48cee0cf2",
      "blockNumber": 121376,
      "transactionIndex": 0,
      "confirmations": null,
      "from": "0xF000d531B485D3fc32Ed670b26509813D8f47008",
      "gasPrice": {
        "_hex": "0xba43b7400"
      },
      "gasLimit": {
        "_hex": "0x5208"
      },
      "to": "0x32Be343B94f860124dC4fEe278FDCBD38C102D88",
      "value": {
        "_hex": "0x920f144153d470000"
      },
      "nonce": 2,
      "data": "0x",
      "r": "0x5f527dabad1ac173405c66a0050e90128b0854472ad17c599908c166417a2837",
      "s": "0x050370586e254e1aaa0ad69dfaa23f01e78bb8c68b93b7d6305a3d23ccd3ab39",
      "v": 27,
      "creates": null,
      "raw": "0xf86d02850ba43b74008252089432be343b94f860124dc4fee278fdcbd38c102d88890920f144153d470000801ba05f527dabad1ac173405c66a0050e90128b0854472ad17c599908c166417a2837a0050370586e254e1aaa0ad69dfaa23f01e78bb8c68b93b7d6305a3d23ccd3ab39",
      "networkId": 0,
      "chainId": 0
    }
  ]
}