{
  "hash": "0x0c5c2fdbf25562bd6cfbbe0ad5d3c5b16579e351b4cb03f7cb897009fd976bf3",
  "parentHash": "0x1c4f8ace0c44eabeeabec08cad98a97aac0982cf8e2a38de2897bf5ef60bc30c",
  "number": 99957,
  "timestamp": 1439798406,
  "nonce": "0x0c310c35f9ef9ad3",
  "difficulty": 3851196955312,
  "gasLimit": {
    "_hex": "0x2fefd8"
  },
  "gasUsed": {
    "_hex": "0x5208"
  },
  "miner": "0xe6A7a1d47ff21B6321162AEA7C6CB457D5476Bca",
  "extraData": "0x476574682f76312e302e312d38326566323666362f6c696e75782f676f312e34",
  "transactions": [
    {
      "hash": "0x3d635b322fe1d5bd3ef63a1341c8e05ceb68240a46985827ae6dfa837690b775",
      "blockHash": "0x0c5c2fdbf25562bd6cfbbe0ad5d3c5b16579e351b4cb03f7cb897009fd976bf3",
      "blockNumber": 99957,
      "transactionIndex": 0,
      "confirmations": null,
      "from": "0xe6A7a1d47ff21B6321162AEA7C6CB457D5476Bca",
      "gasPrice": {
        "_hex": "0xe14ab6673"
      },
      "gasLimit": {
        "_hex": "0x55f0"
      },
      "to": "0x3730a07b6d2d7413d0d76B91935F60bB0b1d8E2F",
      "value": {
        "_hex": "0x4d4727f47b40d6d0"
      },
      "nonce": 3252,
      "data": "0x",
      "r": "0xd39f6e20694ecc1fe16be3d8592558361862f4d015a24338d82a15827f008698",
      "s": "0x0500995f62e80688711ae96f267cbff2ead11f4b47f9dcd5e95d713cc0aeed53",
      "v": 28,
      "creates": null,
      "raw": "0xf86e820cb4850e14ab66738255f0943730a07b6d2d7413d0d76b91935f60bb0b1d8e2f884d4727f47b40d6d0801ca0d39f6e20694ecc1fe16be3d8592558361862f4d015a24338d82a15827f008698a00500995f62e80688711ae96f267cbff2ead11f4b47f9dcd5e95d713cc0aeed53",
      "networkId": 0,
      "chainId": 0
    }
  ]
}