{
  "hash": "0x3afdeecf38fdf0db925758cd99abfc848349d4fcf8fce91352cc3dc699a29fae",
  "parentHash": "0xaf3930b6945ef00c5a0eb9a9c1ae6e39aaa999e3ef0fdf0043cdc677536db6c0",
  "number": 119761,
  "timestamp": 1440148362,
  "nonce": "0x3be9e32b8b12614d",
  "difficulty": 4392120980664,
  "gasLimit": {
    "_hex": "0x2fefd8"
  },
  "gasUsed": {
    "_hex": "0x5208"
  },
  "miner": "0xD0ee3F53eE0fCf3F9fbCcdd17BD1b6441DdC2074",
  "extraData": "0x",
  "transactions": [
    {
      "hash": "0x0425076ecd20c5a648a6ace8f6a05f338a646c578332e3b4729be9a2593c2cab",
      "blockHash": "0x3afdeecf38fdf0db925758cd99abfc848349d4fcf8fce91352cc3dc699a29fae",
      "blockNumber": 119761,
      "transactionIndex": 0,
      "confirmations": null,
      "from": "0x608f4b86321a68453f9adf6F06F7Fc3E621739ad",
      "gasPrice": {
        "_hex": "0xba43b7400"
      },
      "gasLimit": {
        "_hex": "0x5208"
      },
      "to": "0x32Be343B94f860124dC4fEe278FDCBD38C102D88",
      "value": {
        "_hex": "0x7b95a037ddcf0000"
      },
      "nonce": 43,
      "data": "0x",
      "r": "0x518d377231dc4625e0e4c6e8fbdd2fcdc34b4f2af421947ae0d8e930640aa534",
      "s": "0x01bce3560979c3e0087c2d07804e3d707a2f45b9a083bd226f02bb8528d150f0",
      "v": 27,
      "creates": null,
      "raw": "0xf86c2b850ba43b74008252089432be343b94f860124dc4fee278fdcbd38c102d88887b95a037ddcf0000801ba0518d377231dc4625e0e4c6e8fbdd2fcdc34b4f2af421947ae0d8e930640aa534a001bce3560979c3e0087c2d07804e3d707a2f45b9a083bd226f02bb8528d150f0",
      "networkId": 0,
      "chainId": 0
    }
  ]
}