{
  "hash": "0x45fc5f2103d7aa92d31f325fe18008f9d759ad815ed79eb331ab2f0eb246bfc7",
  "parentHash": "0xb387e4114e64398cc0fa919acd06b2b94026bb201d2e35d6739b91c6f45991e3",
  "number": 85787,
  "timestamp": 1439568844,
  "nonce": "0x75a5aeb827079fc0",
  "difficulty": 2767769931343,
  "gasLimit": {
    "_hex": "0x2fefd8"
  },
  "gasUsed": {
    "_hex": "0x14bc3"
  },
  "miner": "0x9Fa9952255B2b06639A04D63804d4BdFFf6E2d7e",
  "extraData": "0x476574682f76312e302e312f77696e646f77732f676f312e342e32",
  "transactions": [
    {
      "hash": "0x933fb97d612972890cb7bcc285726eeb46ab36339b889f75e3fbab8a9db93830",
      "blockHash": "0x45fc5f2103d7aa92d31f325fe18008f9d759ad815ed79eb331ab2f0eb246bfc7",
      "blockNumber": 85787,
      "transactionIndex": 0,
      "confirmations": null,
      "from": "0x32Be343B94f860124dC4fEe278FDCBD38C102D88",
      "gasPrice": {
        "_hex": "0xd4809e583"
      },
      "gasLimit": {
        "_hex": "0x5208"
      },
      "to": "0xE60d047A7f89348A473EB1b32c27A13cB459d776",
      "value": {
        "_hex": "0xad78c83eb9f2400000"
      },
      "nonce": 739,
      "data": "0x",
      "r": "0x170e5d201f0b9cae26a3188e89a373364a315eca0c4795feb0e6fa6047c70168",
      "s": "0x01a40a75d89ac1705b243659499ece7afce80960b77115cb81fef5123ea20635",
      "v": 27,
      "creates": null,
      "raw": "0xf86f8202e3850d4809e58382520894e60d047a7f89348a473eb1b32c27a13cb459d77689ad78c83eb9f2400000801ba0170e5d201f0b9cae26a3188e89a373364a315eca0c4795feb0e6fa6047c70168a001a40a75d89ac1705b243659499ece7afce80960b77115cb81fef5123ea20635",
      "networkId": 0,
      "chainId": 0
    },
    {
      "hash": "0xdb63cc54cd5ac231dd31b8866c699dd8a659a78206d9fe775efea9586155e853",
      "blockHash": "0x45fc5f2103d7aa92d31f325fe18008f9d759ad815ed79eb331ab2f0eb246bfc7",
      "blockNumber": 85787,
      "transactionIndex": 1,
      "confirmations": null,
      "from": "0xd3CdA913deB6f67967B99D67aCDFa1712C293601",
      "gasPrice": {
        "_hex": "0xcf447e856"
      },
      "gasLimit": {
        "_hex": "0xf4240"
      },
      "to": null,
      "value": {
        "_hex": "0x0"
      },
      "nonce": 4,
      "data": "0x606060405260a48060116000396000f30060606040526000357c0100000000000000000000000000000000000000000000000000000000900480634896eb59146041578063cbf0b0c014606657603f565b005b60506004803590602001506093565b6040518082815260200191505060405180910390f35b60756004803590602001506077565b005b8073ffffffffffffffffffffffffffffffffffffffff16ff5b50565b6000600282029050609f565b91905056",
      "r": "0xa7bbb00b5c190eee2c0f00d657d6670c81e0cb957bdac18bf59aababe4293dbb",
      "s": "0x1074478df5df25c76ca5e68ba0ee9004c2452db6f45f80a83294e36f752c1502",
      "v": 28,
      "creates": "0x3e5E1Fe257a6A28dd2001bA84561BfBf9C7C78Cd",
      "raw": "0xf9010704850cf447e856830f42408080b8b5606060405260a48060116000396000f30060606040526000357c0100000000000000000000000000000000000000000000000000000000900480634896eb59146041578063cbf0b0c014606657603f565b005b60506004803590602001506093565b6040518082815260200191505060405180910390f35b60756004803590602001506077565b005b8073ffffffffffffffffffffffffffffffffffffffff16ff5b50565b6000600282029050609f565b919050561ca0a7bbb00b5c190eee2c0f00d657d6670c81e0cb957bdac18bf59aababe4293dbba01074478df5df25c76ca5e68ba0ee9004c2452db6f45f80a83294e36f752c1502",
      "networkId": 0,
      "chainId": 0
    }
  ]
}