{
  "hash": "0x62db2bdbcc2a37ad9933f8bca4b9f42fe1dddf350aa204e792be6cb9b1285618",
  "parentHash": "0x9bbd4f30b6e19be8c3874198fff9ae0ea4a072dfc7960ff327c807f278c8a840",
  "number": 88879,
  "timestamp": 1439614926,
  "nonce": "0xc9321165d3e38622",
  "difficulty": 3240982288658,
  "gasLimit": {
    "_hex": "0x2fefd8"
  },
  "gasUsed": {
    "_hex": "0x5208"
  },
  "miner": "0xe6A7a1d47ff21B6321162AEA7C6CB457D5476Bca",
  "extraData": "0x476574682f76312e302e312d38326566323666362f6c696e75782f676f312e34",
  "transactions": [
    {
      "hash": "0xb031a32a9c25cf553c6bacdcf8f68a63d75b1bb50a77ff64a40758503fdf180f",
      "blockHash": "0x62db2bdbcc2a37ad9933f8bca4b9f42fe1dddf350aa204e792be6cb9b1285618",
      "blockNumber": 88879,
      "transactionIndex": 0,
      "confirmations": null,
      "from": "0x5a0f0935E8E5591B2f9f2d55f29C626B50292088",
      "gasPrice": {
        "_hex": "0xe2ccce805"
      },
      "gasLimit": {
        "_hex": "0x5208"
      },
      "to": "0x32Be343B94f860124dC4fEe278FDCBD38C102D88",
      "value": {
        "_hex": "0xd6b3c9b0892338000"
      },
      "nonce": 13,
      "data": "0x",
      "r": "0x29fe88cd32c237473f6f084bc469894dd523ef49f10ed15fe908ebfd26a06b94",
      "s": "0x0333902e3d2ac5ca52ea1f057903505e6cf7000f1bd91701debc11b133b02038",
      "v": 27,
      "creates": null,
      "raw": "0xf86d0d850e2ccce8058252089432be343b94f860124dc4fee278fdcbd38c102d88890d6b3c9b0892338000801ba029fe88cd32c237473f6f084bc469894dd523ef49f10ed15fe908ebfd26a06b94a00333902e3d2ac5ca52ea1f057903505e6cf7000f1bd91701debc11b133b02038",
      "networkId": 0,
      "chainId": 0
    }
  ]
}