{
  "hash": "0x963aefd96089bdf174e67e138a8d6d702349352d7ce2e79f3c02e7fa2079f692",
  "parentHash": "0xa48ecd234ed62d4968336a3ab8548b65bf4fd502dbaf0d8a364d765aa9d30d97",
  "number": 75040,
  "timestamp": 1439396753,
  "nonce": "0x8fca464d177eb0b8",
  "difficulty": 2182680064915,
  "gasLimit": {
    "_hex": "0x2fefd8"
  },
  "gasUsed": {
    "_hex": "0xad77"
  },
  "miner": "0xa50ec0D39fa913E62f1Bae7074E6F36caA71855b",
  "extraData": "0x",
  "transactions": [
    {
      "hash": "0x51fc4a7db8497e8ff5078245be480476b7ec8fd33ac0085a92da50bb52d52836",
      "blockHash": "0x963aefd96089bdf174e67e138a8d6d702349352d7ce2e79f3c02e7fa2079f692",
      "blockNumber": 75040,
      "transactionIndex": 0,
      "confirmations": null,
      "from": "0x87C5B5874A18B4306DF8a752a6C8cc3E82daFc19",
      "gasPrice": {
        "_hex": "0x10357052ff1"
      },
      "gasLimit": {
        "_hex": "0x493e0"
      },
      "to": "0xD79B4C6791784184e2755B2fC1659eaaB0f80456",
      "value": {
        "_hex": "0x0"
      },
      "nonce": 28,
      "data": "0x03750d94000000000000000000000000326be8f71bfb0379f989aab1cc1fe37f0a771f603833646434393262376130636339613900000000000000000000000000000000",
      "r": "0x0c73cb11cc4219b829efb9aacaf766b958bd1bb10855c5d12106ea7bbcb9da48",
      "s": "0x6bed6704b925709af46a134a1316058d83e4db979ba30ea21553f0f2efd0cd03",
      "v": 28,
      "creates": null,
      "raw": "0xf8ab1c86010357052ff1830493e094d79b4c6791784184e2755b2fc1659eaab0f8045680b84403750d94000000000000000000000000326be8f71bfb0379f989aab1cc1fe37f0a771f6038336464343932623761306363396139000000000000000000000000000000001ca00c73cb11cc4219b829efb9aacaf766b958bd1bb10855c5d12106ea7bbcb9da48a06bed6704b925709af46a134a1316058d83e4db979ba30ea21553f0f2efd0cd03",
      "networkId": 0,
      "chainId": 0
    }
  ]
}