{
  "hash": "0x8b34850b586b92c2513190ee0a882201122b5069db772fb940db4260d2fd629e",
  "parentHash": "0xc6a4cd7fc5254614a08e06f1fe0c62c17fe90b148fe65b12bf40ed47ddb41376",
  "number": 115448,
  "timestamp": 1440057467,
  "nonce": "0x21decac667f316c9",
  "difficulty": 4562743368248,
  "gasLimit": {
    "_hex": "0x2fefd8"
  },
  "gasUsed": {
    "_hex": "0x14820"
  },
  "miner": "0xe6A7a1d47ff21B6321162AEA7C6CB457D5476Bca",
  "extraData": "0x476574682f76312e302e312d38326566323666362f6c696e75782f676f312e34",
  "transactions": [
    {
      "hash": "0xc05ee72e591fe6aca59f7ef14b9e51d8e3354430eb6ed258e98b1e994a07d22c",
      "blockHash": "0x8b34850b586b92c2513190ee0a882201122b5069db772fb940db4260d2fd629e",
      "blockNumber": 115448,
      "transactionIndex": 0,
      "confirmations": null,
      "from": "0x32Be343B94f860124dC4fEe278FDCBD38C102D88",
      "gasPrice": {
        "_hex": "0xdba3ba2f8"
      },
      "gasLimit": {
        "_hex": "0x5208"
      },
      "to": "0xed433C980AaED4E749B3229F3993BfB2840f2433",
      "value": {
        "_hex": "0x2fb23b9a686bb0000"
      },
      "nonce": 1426,
      "data": "0x",
      "r": "0x731238da8d15bdbcb7f3b20560cbaf9e5302c24919de33f3e2bcb0de29601c6a",
      "s": "0x558252312755174803d56d1e4b3d8a96bc25f787bd630efbea1d3dede7c9486c",
      "v": 27,
      "creates": null,
      "raw": "0xf86f820592850dba3ba2f882520894ed433c980aaed4e749b3229f3993bfb2840f24338902fb23b9a686bb0000801ba0731238da8d15bdbcb7f3b20560cbaf9e5302c24919de33f3e2bcb0de29601c6aa0558252312755174803d56d1e4b3d8a96bc25f787bd630efbea1d3dede7c9486c",
      "networkId": 0,
      "chainId": 0
    },
    {
      "hash": "0x4463650a58a12c3dbe6d4303360ebf298168a8a1e0cf2d12c0e2e98dcd7353d3",
      "blockHash": "0x8b34850b586b92c2513190ee0a882201122b5069db772fb940db4260d2fd629e",
      "blockNumber": 115448,
      "transactionIndex": 1,
      "confirmations": null,
      "from": "0x32Be343B94f860124dC4fEe278FDCBD38C102D88",
      "gasPrice": {
        "_hex": "0xdba3ba2f8"
      },
      "gasLimit": {
        "_hex": "0x5208"
      },
      "to": "0xAAc7c655830b2fF580BDFEa1a416E5efAfAb3291",
      "value": {
        "_hex": "0x2705adb7699908000"
      },
      "nonce": 1427,
      "data": "0x",
      "r": "0x0aadaa3f7922c4ac0b8279c09e33891de3e1b1943f5e7aa32f318d770855e0cd",
      "s": "0x6866f06a605736d30505c081a9ce3603366fde7b3cf5802148ea2fb8fe76e081",
      "v": 28,
      "creates": null,
      "raw": "0xf86f820593850dba3ba2f882520894aac7c655830b2ff580bdfea1a416e5efafab32918902705adb7699908000801ca00aadaa3f7922c4ac0b8279c09e33891de3e1b1943f5e7aa32f318d770855e0cda06866f06a605736d30505c081a9ce3603366fde7b3cf5802148ea2fb8fe76e081",
      "networkId": 0,
      "chainId": 0
    },
    {
      "hash": "0x0ada5d7a3eaaac07a7d6c8ed82bc015ecf988956ce08289b281b35642b7b614b",
      "blockHash": "0x8b34850b586b92c2513190ee0a882201122b5069db772fb940db4260d2fd629e",
      "blockNumber": 115448,
      "transactionIndex": 2,
      "confirmations": null,
      "from": "0x32Be343B94f860124dC4fEe278FDCBD38C102D88",
      "gasPrice": {
        "_hex": "0xdba3ba2f8"
      },
      "gasLimit": {
        "_hex": "0x5208"
      },
      "to": "0x120A270bbC009644e35F0bB6ab13f95b8199c4ad",
      "value": {
        "_hex": "0x17b7883c06916600000"
      },
      "nonce": 1428,
      "data": "0x",
      "r": "0x58e2da0005d74828a384b6fb87f3cbc8dcd1042faccdeaaaaae95b8ff7551484",
      "s": "0x6dbb6654d6c7855d170c53ccd3cbd2f6b9b5c925d9ef6cbc6728cb7503014420",
      "v": 28,
      "creates": null,
      "raw": "0xf870820594850dba3ba2f882520894120a270bbc009644e35f0bb6ab13f95b8199c4ad8a017b7883c06916600000801ca058e2da0005d74828a384b6fb87f3cbc8dcd1042faccdeaaaaae95b8ff7551484a06dbb6654d6c7855d170c53ccd3cbd2f6b9b5c925d9ef6cbc6728cb7503014420",
      "networkId": 0,
      "chainId": 0
    },
    {
      "hash": "0x9f7e0cc936358faffc6e445ba2e907e54dfbbfd1c4173961a21dfb98cf530f82",
      "blockHash": "0x8b34850b586b92c2513190ee0a882201122b5069db772fb940db4260d2fd629e",
      "blockNumber": 115448,
      "transactionIndex": 3,
      "confirmations": null,
      "from": "0xeDbc07d54406D3B56bdaeADEEa788b9721f779ba",
      "gasPrice": {
        "_hex": "0xd1f217cbf"
      },
      "gasLimit": {
        "_hex": "0x55f0"
      },
      "to": "0x0DBaD90C967BFfeA4d6B589c0d2AF50A0eA16304",
      "value": {
        "_hex": "0x3127448bfdd630000"
      },
      "nonce": 5,
      "data": "0x",
      "r": "0x617c107cea0490c2431b931747d2530c8208476d87268bcb817e874038f3b5d2",
      "s": "0x7ebd41db8a0f7b1033e72368826373d0f8aae083f23a45b40c7ec41a2882a202",
      "v": 27,
      "creates": null,
      "raw": "0xf86d05850d1f217cbf8255f0940dbad90c967bffea4d6b589c0d2af50a0ea163048903127448bfdd630000801ba0617c107cea0490c2431b931747d2530c8208476d87268bcb817e874038f3b5d2a07ebd41db8a0f7b1033e72368826373d0f8aae083f23a45b40c7ec41a2882a202",
      "networkId": 0,
      "chainId": 0
    }
  ]
}