{
  "hash": "0xa5a735da6f5e8ca921822b803313ecd367efbca7769e919704d3242cf1d04492",
  "parentHash": "0xb458cab8ce18551f8577a4db493e0213aaad5912337be482772ce04e862b800d",
  "number": 100866,
  "timestamp": 1439813606,
  "nonce": "0x22eea870d88f68fd",
  "difficulty": 3856424581786,
  "gasLimit": {
    "_hex": "0x2fefd8"
  },
  "gasUsed": {
    "_hex": "0x5208"
  },
  "miner": "0xe6A7a1d47ff21B6321162AEA7C6CB457D5476Bca",
  "extraData": "0x476574682f76312e302e312d38326566323666362f6c696e75782f676f312e34",
  "transactions": [
    {
      "hash": "0x0e2ac54eeef9efebe17f7d30d2d91cd3b93d65cde4d69102755cb98c2f27ebb2",
      "blockHash": "0xa5a735da6f5e8ca921822b803313ecd367efbca7769e919704d3242cf1d04492",
      "blockNumber": 100866,
      "transactionIndex": 0,
      "confirmations": null,
      "from": "0x315260950914163880F3AD5A7FEEC87407fa4868",
      "gasPrice": {
        "_hex": "0xcb64f8c96"
      },
      "gasLimit": {
        "_hex": "0x5208"
      },
      "to": "0x32Be343B94f860124dC4fEe278FDCBD38C102D88",
      "value": {
        "_hex": "0x1deefd210fed3c00"
      },
      "nonce": 5,
      "data": "0x",
      "r": "0x9865beb53f4c6dd4b9108a95ec36da309fe3ba0e3ce20215f58bd2068167948d",
      "s": "0x693836d244bede87e1e933ae758a8f57a517fa9cbeb8d62749f1855c0d8905e7",
      "v": 27,
      "creates": null,
      "raw": "0xf86c05850cb64f8c968252089432be343b94f860124dc4fee278fdcbd38c102d88881deefd210fed3c00801ba09865beb53f4c6dd4b9108a95ec36da309fe3ba0e3ce20215f58bd2068167948da0693836d244bede87e1e933ae758a8f57a517fa9cbeb8d62749f1855c0d8905e7",
      "networkId": 0,
      "chainId": 0
    }
  ]
}