{
  "hash": "0x65c50e0eb40b7fe2a5e18d3de5470cbf3a8af05e5fac713b2bb531a7bb517028",
  "parentHash": "0x66e911d51baebaa0a0f5d9902792dafb41049dbed77336707aa0cf05b55fd415",
  "number": 95033,
  "timestamp": 1439717970,
  "nonce": "0x3c2576c5b143845d",
  "difficulty": 3501767536644,
  "gasLimit": {
    "_hex": "0x2fefd8"
  },
  "gasUsed": {
    "_hex": "0x520c"
  },
  "miner": "0xe6A7a1d47ff21B6321162AEA7C6CB457D5476Bca",
  "extraData": "0x476574682f76312e302e312d38326566323666362f6c696e75782f676f312e34",
  "transactions": [
    {
      "hash": "0xeae3db1bdf64e38343fb318a7c11fc2f0874748e933ac3fa1bdcebdda734f743",
      "blockHash": "0x65c50e0eb40b7fe2a5e18d3de5470cbf3a8af05e5fac713b2bb531a7bb517028",
      "blockNumber": 95033,
      "transactionIndex": 0,
      "confirmations": null,
      "from": "0x8375eA550366a24550ec93283600485F4Ba8CFE5",
      "gasPrice": {
        "_hex": "0xd4d75a1fd"
      },
      "gasLimit": {
        "_hex": "0x7530"
      },
      "to": "0x7cB57B5A97eAbe94205C07890BE4c1aD31E486A8",
      "value": {
        "_hex": "0xde0b6b3a7640000"
      },
      "nonce": 24,
      "data": "0x00",
      "r": "0x48ba157737f2032aff1d65d767f20254e08a0049bd3e09ea5d5f36662c0a619e",
      "s": "0x1dc7ace05dc38ea1be961a11f75090990a7c7f1d32f3ab918f05136d7f204976",
      "v": 28,
      "creates": null,
      "raw": "0xf86c18850d4d75a1fd827530947cb57b5a97eabe94205c07890be4c1ad31e486a8880de0b6b3a7640000001ca048ba157737f2032aff1d65d767f20254e08a0049bd3e09ea5d5f36662c0a619ea01dc7ace05dc38ea1be961a11f75090990a7c7f1d32f3ab918f05136d7f204976",
      "networkId": 0,
      "chainId": 0
    }
  ]
}