{
  "hash": "0xbf455e796057849f1ac02d57e46e54a066dc9b480c169b960c0a3f64b04bf314",
  "parentHash": "0xe9322419b504ca34139d71e4c5c77f9ca87ec7a2f7b57cc87eb7ee4df60df79d",
  "number": 119391,
  "timestamp": 1440141966,
  "nonce": "0x7d7798426bb50409",
  "difficulty": 4418126477764,
  "gasLimit": {
    "_hex": "0x2fefd8"
  },
  "gasUsed": {
    "_hex": "0x546c"
  },
  "miner": "0xe6A7a1d47ff21B6321162AEA7C6CB457D5476Bca",
  "extraData": "0xd783010002844765746887676f312e342e32856c696e7578",
  "transactions": [
    {
      "hash": "0x903b74d982095aa4a9f4b38d127b2d3cb5be8cf5f0d2c4946362c8d82d1f6a28",
      "blockHash": "0xbf455e796057849f1ac02d57e46e54a066dc9b480c169b960c0a3f64b04bf314",
      "blockNumber": 119391,
      "transactionIndex": 0,
      "confirmations": null,
      "from": "0x837A2A346557050c8cF0fb24b84Aa695E8Add19f",
      "gasPrice": {
        "_hex": "0xba43b7400"
      },
      "gasLimit": {
        "_hex": "0x55f0"
      },
      "to": "0x2910543Af39abA0Cd09dBb2D50200b3E800A63D2",
      "value": {
        "_hex": "0x96ebc2e1bc5f80000"
      },
      "nonce": 12,
      "data": "0x454e415157474e5a38",
      "r": "0xa92f7a3c27de7c50882129211b4ab74f1a0a53a7af163f906cbeacd905bfc63f",
      "s": "0x46c6e285f338fb7327a3f98c2675fcdec3dd08b02979f2cd0a5883a1b2efee3e",
      "v": 28,
      "creates": null,
      "raw": "0xf8760c850ba43b74008255f0942910543af39aba0cd09dbb2d50200b3e800a63d289096ebc2e1bc5f8000089454e415157474e5a381ca0a92f7a3c27de7c50882129211b4ab74f1a0a53a7af163f906cbeacd905bfc63fa046c6e285f338fb7327a3f98c2675fcdec3dd08b02979f2cd0a5883a1b2efee3e",
      "networkId": 0,
      "chainId": 0
    }
  ]
}