{
  "hash": "0xb71fcbfa84ab5447f2e814001b4f4aed8696d16365d9bc90f4db26869d7eb258",
  "parentHash": "0x143e72c6685e65fe781468a622b54366466b1ed1980058f8d9ad41670295c1b0",
  "number": 119439,
  "timestamp": 1440143056,
  "nonce": "0x8557e95b3aef1bb1",
  "difficulty": 4379440371573,
  "gasLimit": {
    "_hex": "0x2fefd8"
  },
  "gasUsed": {
    "_hex": "0x19a28"
  },
  "miner": "0x88D74a59454F6cF3B51ef6b9136AFb6b9D405A88",
  "extraData": "0x",
  "transactions": [
    {
      "hash": "0x69400a8fcd78c4e92ab14b5352b28507d98862fa853ead897d2fb562d1b4f8a6",
      "blockHash": "0xb71fcbfa84ab5447f2e814001b4f4aed8696d16365d9bc90f4db26869d7eb258",
      "blockNumber": 119439,
      "transactionIndex": 0,
      "confirmations": null,
      "from": "0xD671e71108Bd20F1A8e2A4f73a7449Bf8DAa840f",
      "gasPrice": {
        "_hex": "0xba43b7400"
      },
      "gasLimit": {
        "_hex": "0x5208"
      },
      "to": "0x32Be343B94f860124dC4fEe278FDCBD38C102D88",
      "value": {
        "_hex": "0x30ac6812da8ac000"
      },
      "nonce": 11,
      "data": "0x",
      "r": "0xb007dd8e6ed9f2685ebf9ecd44db05127368ab5fe496f0208eba6ee391f82cc5",
      "s": "0x42f9e7258a7aa6de4bd3b3e94ecb39bf053f730ed89a5e8f7c86b0920942f3c6",
      "v": 27,
      "creates": null,
      "raw": "0xf86c0b850ba43b74008252089432be343b94f860124dc4fee278fdcbd38c102d888830ac6812da8ac000801ba0b007dd8e6ed9f2685ebf9ecd44db05127368ab5fe496f0208eba6ee391f82cc5a042f9e7258a7aa6de4bd3b3e94ecb39bf053f730ed89a5e8f7c86b0920942f3c6",
      "networkId": 0,
      "chainId": 0
    },
    {
      "hash": "0x70246fd40e45342fbf4cfc7708b6713c2cc5eb9161d78dec63105bb5c19bff1e",
      "blockHash": "0xb71fcbfa84ab5447f2e814001b4f4aed8696d16365d9bc90f4db26869d7eb258",
      "blockNumber": 119439,
      "transactionIndex": 1,
      "confirmations": null,
      "from": "0xF2C14aDd753869D4EEdfefdCdFBA341Abfa1D702",
      "gasPrice": {
        "_hex": "0xba43b7400"
      },
      "gasLimit": {
        "_hex": "0x5208"
      },
      "to": "0x32Be343B94f860124dC4fEe278FDCBD38C102D88",
      "value": {
        "_hex": "0x66b719e8bcf55000"
      },
      "nonce": 11,
      "data": "0x",
      "r": "0x0dbb7b15d8ea23c8e8d2445649f06f5c48b53a611c8f1685da83fa665d97a710",
      "s": "0x428ac41db0d35df614df2cc712c77fe5ff5855de0347f76f07fb74c410263c2f",
      "v": 27,
      "creates": null,
      "raw": "0xf86c0b850ba43b74008252089432be343b94f860124dc4fee278fdcbd38c102d888866b719e8bcf55000801ba00dbb7b15d8ea23c8e8d2445649f06f5c48b53a611c8f1685da83fa665d97a710a0428ac41db0d35df614df2cc712c77fe5ff5855de0347f76f07fb74c410263c2f",
      "networkId": 0,
      "chainId": 0
    },
    {
      "hash": "0x8512f2c6bdd786e59f5fbda8ea7ef945cd31a1fada0b710060a445d39801d91d",
      "blockHash": "0xb71fcbfa84ab5447f2e814001b4f4aed8696d16365d9bc90f4db26869d7eb258",
      "blockNumber": 119439,
      "transactionIndex": 2,
      "confirmations": null,
      "from": "0xD51361E8863b74B1d3BF75246d30f33f9f103e1d",
      "gasPrice": {
        "_hex": "0xba43b7400"
      },
      "gasLimit": {
        "_hex": "0x5208"
      },
      "to": "0x32Be343B94f860124dC4fEe278FDCBD38C102D88",
      "value": {
        "_hex": "0x2bedb1aabde84800"
      },
      "nonce": 10,
      "data": "0x",
      "r": "0x5949b9e491f466f231760ac0b8895e74da3fa27e93b4c5e3155952ce29d2beba",
      "s": "0x5e451bc498e3e37b6b8d1571c56f14eefa1c4ef12ca5ae528a94a9cc4bb0f7fa",
      "v": 27,
      "creates": null,
      "raw": "0xf86c0a850ba43b74008252089432be343b94f860124dc4fee278fdcbd38c102d88882bedb1aabde84800801ba05949b9e491f466f231760ac0b8895e74da3fa27e93b4c5e3155952ce29d2bebaa05e451bc498e3e37b6b8d1571c56f14eefa1c4ef12ca5ae528a94a9cc4bb0f7fa",
      "networkId": 0,
      "chainId": 0
    },
    {
      "hash": "0xb029fcf50dd2bfd61a807e502ac6ba69c369a49f12b41780edf960a627e420ea",
      "blockHash": "0xb71fcbfa84ab5447f2e814001b4f4aed8696d16365d9bc90f4db26869d7eb258",
      "blockNumber": 119439,
      "transactionIndex": 3,
      "confirmations": null,
      "from": "0xDd087A46e53FdDCe3d8FF96970235ae746b77D5c",
      "gasPrice": {
        "_hex": "0xba43b7400"
      },
      "gasLimit": {
        "_hex": "0x5208"
      },
      "to": "0x32Be343B94f860124dC4fEe278FDCBD38C102D88",
      "value": {
        "_hex": "0x16dfa235a967a800"
      },
      "nonce": 3,
      "data": "0x",
      "r": "0xba4c951a5839a98b957acea995ac0d7e8c03cb5df67111d1cc0f84f3f27b163f",
      "s": "0x1e6197441b2ff7beb395cd43f4423bf55fd74a35b6217ca33f092c8ab5437f56",
      "v": 27,
      "creates": null,
      "raw": "0xf86c03850ba43b74008252089432be343b94f860124dc4fee278fdcbd38c102d888816dfa235a967a800801ba0ba4c951a5839a98b957acea995ac0d7e8c03cb5df67111d1cc0f84f3f27b163fa01e6197441b2ff7beb395cd43f4423bf55fd74a35b6217ca33f092c8ab5437f56",
      "networkId": 0,
      "chainId": 0
    },
    {
      "hash": "0x8e7013980f9341a66e50b295bda38af38f049e54b0485d34f0e721652a16de2d",
      "blockHash": "0xb71fcbfa84ab5447f2e814001b4f4aed8696d16365d9bc90f4db26869d7eb258",
      "blockNumber": 119439,
      "transactionIndex": 4,
      "confirmations": null,
      "from": "0xf97e4688e66CD658F9666d93FD97f779b80218a0",
      "gasPrice": {
        "_hex": "0xba43b7400"
      },
      "gasLimit": {
        "_hex": "0x5208"
      },
      "to": "0x32Be343B94f860124dC4fEe278FDCBD38C102D88",
      "value": {
        "_hex": "0x2d91c210a0a16800"
      },
      "nonce": 8,
      "data": "0x",
      "r": "0x999b0de5ba7a382904facbdc5752789abcd38902f443dd15481558f28a46b949",
      "s": "0x446d17b5d4de6469df5538340a72c70738adb3a5af1074c42752f3a7a4e57fbe",
      "v": 28,
      "creates": null,
      "raw": "0xf86c08850ba43b74008252089432be343b94f860124dc4fee278fdcbd38c102d88882d91c210a0a16800801ca0999b0de5ba7a382904facbdc5752789abcd38902f443dd15481558f28a46b949a0446d17b5d4de6469df5538340a72c70738adb3a5af1074c42752f3a7a4e57fbe",
      "networkId": 0,
      "chainId": 0
    }
  ]
}