{
  "hash": "0x342ccdf6f170d062d10fd20b1558ef88135547158f8130a29f2d2f118c9c6f46",
  "parentHash": "0xee5bb2bc0954495a7ed326e5587dc8c044479512d85d81083c4f2e55e2575850",
  "number": 75078,
  "timestamp": 1439397230,
  "nonce": "0x9e7d895ebe8bc5cb",
  "difficulty": 2191212907712,
  "gasLimit": {
    "_hex": "0x2fefd8"
  },
  "gasUsed": {
    "_hex": "0xad77"
  },
  "miner": "0xe6A7a1d47ff21B6321162AEA7C6CB457D5476Bca",
  "extraData": "0x476574682f76312e302e312d38326566323666362f6c696e75782f676f312e34",
  "transactions": [
    {
      "hash": "0x9b3f6a26ca4757be77b31f5b5a691e555d3d4c4c6d16a48267b3ad1f267108de",
      "blockHash": "0x342ccdf6f170d062d10fd20b1558ef88135547158f8130a29f2d2f118c9c6f46",
      "blockNumber": 75078,
      "transactionIndex": 0,
      "confirmations": null,
      "from": "0x87C5B5874A18B4306DF8a752a6C8cc3E82daFc19",
      "gasPrice": {
        "_hex": "0x10b10016a89"
      },
      "gasLimit": {
        "_hex": "0x493e0"
      },
      "to": "0xD79B4C6791784184e2755B2fC1659eaaB0f80456",
      "value": {
        "_hex": "0x0"
      },
      "nonce": 30,
      "data": "0x03750d94000000000000000000000000326be8f71bfb0379f989aab1cc1fe37f0a771f603138633562646235653933623032323800000000000000000000000000000000",
      "r": "0x1dd3e0e2154d3c07379bbb9741aa70cc56e9714c9d1c2d6f5da3a115ba3b7bce",
      "s": "0x1ab078092a83f152f5895b712264cdaca1dbc530f22afedd79c49c97338041f3",
      "v": 28,
      "creates": null,
      "raw": "0xf8ab1e86010b10016a89830493e094d79b4c6791784184e2755b2fc1659eaab0f8045680b84403750d94000000000000000000000000326be8f71bfb0379f989aab1cc1fe37f0a771f6031386335626462356539336230323238000000000000000000000000000000001ca01dd3e0e2154d3c07379bbb9741aa70cc56e9714c9d1c2d6f5da3a115ba3b7bcea01ab078092a83f152f5895b712264cdaca1dbc530f22afedd79c49c97338041f3",
      "networkId": 0,
      "chainId": 0
    }
  ]
}