{
  "hash": "0x319f5325c5834239c32df3c5c8ffedeb0d0f79e4f822bbd86ff0d2dc9644edcc",
  "parentHash": "0x052eea11d7a8d68a6ea244e89da1c4a2a282479a1caa95fdef0050c9a8309844",
  "number": 79142,
  "timestamp": 1439465253,
  "nonce": "0xbd1268367864636d",
  "difficulty": 2311003174105,
  "gasLimit": {
    "_hex": "0x2fefd8"
  },
  "gasUsed": {
    "_hex": "0xa410"
  },
  "miner": "0xe6A7a1d47ff21B6321162AEA7C6CB457D5476Bca",
  "extraData": "0x476574682f76312e302e312d38326566323666362f6c696e75782f676f312e34",
  "transactions": [
    {
      "hash": "0xe80ff19f128f9dacdb01065c714911329311938ecd318c02b8f27c37be1b515e",
      "blockHash": "0x319f5325c5834239c32df3c5c8ffedeb0d0f79e4f822bbd86ff0d2dc9644edcc",
      "blockNumber": 79142,
      "transactionIndex": 0,
      "confirmations": null,
      "from": "0xa6BDc31c431B8F97848c9D60cbbe9660dc450eB7",
      "gasPrice": {
        "_hex": "0xdc9892c9d"
      },
      "gasLimit": {
        "_hex": "0x5208"
      },
      "to": "0x32Be343B94f860124dC4fEe278FDCBD38C102D88",
      "value": {
        "_hex": "0x4562e17e8e0cbc00"
      },
      "nonce": 30,
      "data": "0x",
      "r": "0x61c327ce2bd70b1f639ccfa2f6f1a33aa77df75403f6d436c9fca33e85f5e959",
      "s": "0x0718f74fb9fa831c796ddde607db402a854dc5b7e7b67c09237399c8d71c53fc",
      "v": 28,
      "creates": null,
      "raw": "0xf86c1e850dc9892c9d8252089432be343b94f860124dc4fee278fdcbd38c102d88884562e17e8e0cbc00801ca061c327ce2bd70b1f639ccfa2f6f1a33aa77df75403f6d436c9fca33e85f5e959a00718f74fb9fa831c796ddde607db402a854dc5b7e7b67c09237399c8d71c53fc",
      "networkId": 0,
      "chainId": 0
    },
    {
      "hash": "0x7b5eb91961d6e6989e0975fbcd5f730aad5206ce1ceb2702205704e80ef3efb8",
      "blockHash": "0x319f5325c5834239c32df3c5c8ffedeb0d0f79e4f822bbd86ff0d2dc9644edcc",
      "blockNumber": 79142,
      "transactionIndex": 1,
      "confirmations": null,
      "from": "0x7b0813f6450be6d2d27984878f03ee858471fF1c",
      "gasPrice": {
        "_hex": "0xdc9892c9d"
      },
      "gasLimit": {
        "_hex": "0x5208"
      },
      "to": "0x32Be343B94f860124dC4fEe278FDCBD38C102D88",
      "value": {
        "_hex": "0x1e7e412b0f8efb00000"
      },
      "nonce": 2,
      "data": "0x",
      "r": "0xa7737c1fdf21ac363128d36c6f10ca74c1b8593744728dab3075796a8cc1470f",
      "s": "0x6eefa62766630f8e10c64ee28458e28bdb921190b7f0dc1e5223e37e838c1123",
      "v": 28,
      "creates": null,
      "raw": "0xf86e02850dc9892c9d8252089432be343b94f860124dc4fee278fdcbd38c102d888a01e7e412b0f8efb00000801ca0a7737c1fdf21ac363128d36c6f10ca74c1b8593744728dab3075796a8cc1470fa06eefa62766630f8e10c64ee28458e28bdb921190b7f0dc1e5223e37e838c1123",
      "networkId": 0,
      "chainId": 0
    }
  ]
}