{
  "hash": "0x5b450bff1a8484f7f8ec2216ec15dd148eef1e57a1cd86ef64b50bb626be5ea3",
  "parentHash": "0xa424efccd2289ea2aa47847e16aad5e75b1ec924b74ae198a0e982ec71f00c77",
  "number": 49576,
  "timestamp": 1438975674,
  "nonce": "0x90edc370ca7136d2",
  "difficulty": 1475589799363,
  "gasLimit": {
    "_hex": "0x3618c"
  },
  "gasUsed": {
    "_hex": "0x5208"
  },
  "miner": "0x01d9DA08cc6Fb97c0DE1B6F4C28910A0859Ed1A1",
  "extraData": "0x476574682f76312e302e312f6c696e75782f676f312e342e32",
  "transactions": [
    {
      "hash": "0x4a3f8641c031abd8faebed3ea1912f15efff24ef747ef6cc0109d190e677ed7c",
      "blockHash": "0x5b450bff1a8484f7f8ec2216ec15dd148eef1e57a1cd86ef64b50bb626be5ea3",
      "blockNumber": 49576,
      "transactionIndex": 0,
      "confirmations": null,
      "from": "0xc56e71225f1372c990E6829D53A1Ab76d27301cf",
      "gasPrice": {
        "_hex": "0xcda30536b"
      },
      "gasLimit": {
        "_hex": "0x15f90"
      },
      "to": "0xA5fb3E4399E8F18643f969D0Ce65CC352fc252C6",
      "value": {
        "_hex": "0xde0b6b3a7640000"
      },
      "nonce": 1,
      "data": "0x",
      "r": "0x9379635c6cc615e7167999ca0c3d8539174fe6aaeeebae22c1ed98b4d9e4d7b8",
      "s": "0x1f0b19ff4aeab937e80c1d38278f242ed46d34ac1fc7f4683fefbbf3030ce68c",
      "v": 28,
      "creates": null,
      "raw": "0xf86d01850cda30536b83015f9094a5fb3e4399e8f18643f969d0ce65cc352fc252c6880de0b6b3a7640000801ca09379635c6cc615e7167999ca0c3d8539174fe6aaeeebae22c1ed98b4d9e4d7b8a01f0b19ff4aeab937e80c1d38278f242ed46d34ac1fc7f4683fefbbf3030ce68c",
      "networkId": 0,
      "chainId": 0
    }
  ]
}