{
  "hash": "0x965bad4f3932ceedb4ff78a857946dbb90ea9829d4cf16b3c3c30a60507e4fe5",
  "parentHash": "0x82adeb7a8a3996ae861295ed2243abfe137feb94430f13498720c97df13f9995",
  "number": 47023,
  "timestamp": 1438933292,
  "nonce": "0xd5d25b792440561d",
  "difficulty": 1449611671092,
  "gasLimit": {
    "_hex": "0x908a"
  },
  "gasUsed": {
    "_hex": "0x5208"
  },
  "miner": "0xf1C63182E2074b561fC3999a9ABEf18aD2B18052",
  "extraData": "0x606461746560206f6e2060686f73746e616d6560",
  "transactions": [
    {
      "hash": "0x206022115870c87ac7f5478c673bdd568542a4a004d39445500a1b4bf49fac8c",
      "blockHash": "0x965bad4f3932ceedb4ff78a857946dbb90ea9829d4cf16b3c3c30a60507e4fe5",
      "blockNumber": 47023,
      "transactionIndex": 0,
      "confirmations": null,
      "from": "0x6B925dD5D8eD6132Ab6D0860b82C44e1a51F1fEe",
      "gasPrice": {
        "_hex": "0xcbd1bd717"
      },
      "gasLimit": {
        "_hex": "0x55f0"
      },
      "to": "0xbc3324C4020F0A7dDc0d9Be8254b1f3f291E53fE",
      "value": {
        "_hex": "0x15af1d78b58c400000"
      },
      "nonce": 2,
      "data": "0x",
      "r": "0x3aed66424e215389f8cfd5e13785be96c53bc70c89a8852f738d7f0a7e3adec6",
      "s": "0x7bf07bda4138e1652c9ce8b77958ecc7d297f924bd250921c1537767af3ed4ce",
      "v": 28,
      "creates": null,
      "raw": "0xf86d02850cbd1bd7178255f094bc3324c4020f0a7ddc0d9be8254b1f3f291e53fe8915af1d78b58c400000801ca03aed66424e215389f8cfd5e13785be96c53bc70c89a8852f738d7f0a7e3adec6a07bf07bda4138e1652c9ce8b77958ecc7d297f924bd250921c1537767af3ed4ce",
      "networkId": 0,
      "chainId": 0
    }
  ]
}