{
  "hash": "0x5a8f6d71ffc0c7ba0a7a8229d5e7730ffadd8252f71158a82cdeac4bf3a360f3",
  "parentHash": "0x2ac74c7e2712cb262cee9562d9f81fbd6e1787f21f75c4583706fa1ef1b3564c",
  "number": 81894,
  "timestamp": 1439509689,
  "nonce": "0x0fb3f29540512c6c",
  "difficulty": 2411677091691,
  "gasLimit": {
    "_hex": "0x2fefd8"
  },
  "gasUsed": {
    "_hex": "0x5208"
  },
  "miner": "0xf8E0CA3Ed80bd541b94BEdCf259e8CF2141A9523",
  "extraData": "0x476574682f76312e302e312f77696e646f77732f676f312e342e32",
  "transactions": [
    {
      "hash": "0x9f503cfae79ac93a406e2abcefab24e139482bd6a49a55d1f908a144b97c6474",
      "blockHash": "0x5a8f6d71ffc0c7ba0a7a8229d5e7730ffadd8252f71158a82cdeac4bf3a360f3",
      "blockNumber": 81894,
      "transactionIndex": 0,
      "confirmations": null,
      "from": "0x2910543Af39abA0Cd09dBb2D50200b3E800A63D2",
      "gasPrice": {
        "_hex": "0xd12a45e94"
      },
      "gasLimit": {
        "_hex": "0x5208"
      },
      "to": "0xFD7c9117BbEB649d9b37B3D3C9917f7c12f526B3",
      "value": {
        "_hex": "0x1bafa9ee16e78000"
      },
      "nonce": 503,
      "data": "0x",
      "r": "0x840ca72569f0ed619617a6a0604ac77e57c51737c78805209b1520db69046b67",
      "s": "0x28bf1d2fac71fbbf51257f042f4f1e4cf0839087331e8fe49083823f4d1b7eda",
      "v": 27,
      "creates": null,
      "raw": "0xf86e8201f7850d12a45e9482520894fd7c9117bbeb649d9b37b3d3c9917f7c12f526b3881bafa9ee16e78000801ba0840ca72569f0ed619617a6a0604ac77e57c51737c78805209b1520db69046b67a028bf1d2fac71fbbf51257f042f4f1e4cf0839087331e8fe49083823f4d1b7eda",
      "networkId": 0,
      "chainId": 0
    }
  ]
}