{
  "hash": "0x7af999978aa5e93e2fb26cd9c536ce7e22eed3ea4e632acae36b22f58bb8d621",
  "parentHash": "0x9ad1f86728b560e3bc77dfc60455026aad5dc7ac737878653f0e8ec4349aa858",
  "number": 94439,
  "timestamp": 1439708409,
  "nonce": "0x1d79a36b16db0bf9",
  "difficulty": 3484957499711,
  "gasLimit": {
    "_hex": "0x2fefd8"
  },
  "gasUsed": {
    "_hex": "0x5208"
  },
  "miner": "0xe6A7a1d47ff21B6321162AEA7C6CB457D5476Bca",
  "extraData": "0x476574682f76312e302e312d38326566323666362f6c696e75782f676f312e34",
  "transactions": [
    {
      "hash": "0xcf7de5d549cbcc6a65d3f81074f0441f55450c7254852631ccdc6859d27df02b",
      "blockHash": "0x7af999978aa5e93e2fb26cd9c536ce7e22eed3ea4e632acae36b22f58bb8d621",
      "blockNumber": 94439,
      "transactionIndex": 0,
      "confirmations": null,
      "from": "0x901375679999F6D4846F257a79d7159ECEb2d47A",
      "gasPrice": {
        "_hex": "0xd9ab45eb5"
      },
      "gasLimit": {
        "_hex": "0x15f90"
      },
      "to": "0x237b555850BE6BFf53a0698146371a2F5890A030",
      "value": {
        "_hex": "0x8ac7230489e80000"
      },
      "nonce": 5,
      "data": "0x",
      "r": "0x15d52f82cc3e9ba0ab6d6ad60145d38976d6941d71cb2353d801208fbe36e44d",
      "s": "0x6b32b473541e25d3e82c77d1d004e06de02badee31001ae9d64b53490a77ea18",
      "v": 28,
      "creates": null,
      "raw": "0xf86d05850d9ab45eb583015f9094237b555850be6bff53a0698146371a2f5890a030888ac7230489e80000801ca015d52f82cc3e9ba0ab6d6ad60145d38976d6941d71cb2353d801208fbe36e44da06b32b473541e25d3e82c77d1d004e06de02badee31001ae9d64b53490a77ea18",
      "networkId": 0,
      "chainId": 0
    }
  ]
}