{
  "hash": "0x33b7135fdfbf79a7e6317cdc0e6a5fb954d68810fe79b5574675b7d30b06d21b",
  "parentHash": "0x2c87a7af971637b18bfddea102a82ab4e44d6c8bf6d7fefe5ff217c4386e3bf3",
  "number": 119011,
  "timestamp": 1440135311,
  "nonce": "0x66431698b0b138be",
  "difficulty": 4409705498316,
  "gasLimit": {
    "_hex": "0x2fefd8"
  },
  "gasUsed": {
    "_hex": "0x5208"
  },
  "miner": "0xe6A7a1d47ff21B6321162AEA7C6CB457D5476Bca",
  "extraData": "0xd783010002844765746887676f312e342e32856c696e7578",
  "transactions": [
    {
      "hash": "0x99d15915ba140aa433fcdb838b42566750e42a6f026c81b055af0afdc96cda18",
      "blockHash": "0x33b7135fdfbf79a7e6317cdc0e6a5fb954d68810fe79b5574675b7d30b06d21b",
      "blockNumber": 119011,
      "transactionIndex": 0,
      "confirmations": null,
      "from": "0x608f4b86321a68453f9adf6F06F7Fc3E621739ad",
      "gasPrice": {
        "_hex": "0xba43b7400"
      },
      "gasLimit": {
        "_hex": "0x5208"
      },
      "to": "0x32Be343B94f860124dC4fEe278FDCBD38C102D88",
      "value": {
        "_hex": "0x4563918244f40000"
      },
      "nonce": 18,
      "data": "0x",
      "r": "0x1b19b4c9db33b94cccdd73acf7532ffaf773d6d63eda367596f7fb9f51ade5e6",
      "s": "0x45999b6f3626faf139fff50274490a0d21bc33ebcfd3c9bdd0422460ce00837c",
      "v": 27,
      "creates": null,
      "raw": "0xf86c12850ba43b74008252089432be343b94f860124dc4fee278fdcbd38c102d88884563918244f40000801ba01b19b4c9db33b94cccdd73acf7532ffaf773d6d63eda367596f7fb9f51ade5e6a045999b6f3626faf139fff50274490a0d21bc33ebcfd3c9bdd0422460ce00837c",
      "networkId": 0,
      "chainId": 0
    }
  ]
}