{
  "hash": "0xdca04e9ae6e382951012ac142430e34c24f7e75a36343199941c8579872ccf1f",
  "parentHash": "0x60da0bae47812a7227c45bbbdd996464ee3c0ea23c6663cbe76a95b3e4353fb5",
  "number": 52162,
  "timestamp": 1439017257,
  "nonce": "0x6667cb9b87f207bd",
  "difficulty": 1556532265670,
  "gasLimit": {
    "_hex": "0x10ae8d"
  },
  "gasUsed": {
    "_hex": "0x5208"
  },
  "miner": "0xe6A7a1d47ff21B6321162AEA7C6CB457D5476Bca",
  "extraData": "0x657468706f6f6c2e6f7267",
  "transactions": [
    {
      "hash": "0x34a9baf7a9d64f54fcef994bcf58cfbb6809217c651afac93cb283200cb24a67",
      "blockHash": "0xdca04e9ae6e382951012ac142430e34c24f7e75a36343199941c8579872ccf1f",
      "blockNumber": 52162,
      "transactionIndex": 0,
      "confirmations": null,
      "from": "0xc0b9d23f8d37650D0141B559dbD33d94Ea004e07",
      "gasPrice": {
        "_hex": "0xdb50ab8d9"
      },
      "gasLimit": {
        "_hex": "0x5208"
      },
      "to": "0x32Be343B94f860124dC4fEe278FDCBD38C102D88",
      "value": {
        "_hex": "0x1383fc935f0b300000"
      },
      "nonce": 1,
      "data": "0x",
      "r": "0xe83d0e14fae9eb573eb58b4cd57f84a33ba1ad78553866ccc9fe6054e44e9889",
      "s": "0x42ef85f930fbb5d8185456e66ccb8e3ed559c91837b1ad64b8571c011c8991e1",
      "v": 28,
      "creates": null,
      "raw": "0xf86d01850db50ab8d98252089432be343b94f860124dc4fee278fdcbd38c102d88891383fc935f0b300000801ca0e83d0e14fae9eb573eb58b4cd57f84a33ba1ad78553866ccc9fe6054e44e9889a042ef85f930fbb5d8185456e66ccb8e3ed559c91837b1ad64b8571c011c8991e1",
      "networkId": 0,
      "chainId": 0
    }
  ]
}