{
  "hash": "0x78d8fb0f4e272039668437f2738d1463d47a7aeb12f66b827e8b2a54a9ac847f",
  "parentHash": "0xfaaa5e3d0252e131c8149498dd1b951e94c4f7a9daa9b7561cfbe88cd20308c7",
  "number": 68928,
  "timestamp": 1439295807,
  "nonce": "0x631f780b169b9242",
  "difficulty": 2028026921810,
  "gasLimit": {
    "_hex": "0x2fefd8"
  },
  "gasUsed": {
    "_hex": "0x5208"
  },
  "miner": "0x39A1BB80a741bF5EC39FB9BE59408Fa0F418fFBf",
  "extraData": "0x476574682f76312e302e312f77696e646f77732f676f312e342e32",
  "transactions": [
    {
      "hash": "0x9e69464f5043f86cabf9a2027f0b30216f5ba3ab32db79e048035ee54d21d092",
      "blockHash": "0x78d8fb0f4e272039668437f2738d1463d47a7aeb12f66b827e8b2a54a9ac847f",
      "blockNumber": 68928,
      "transactionIndex": 0,
      "confirmations": null,
      "from": "0x4059abb767EfDbd4dF7B483a64FDB9a8d5199a7C",
      "gasPrice": {
        "_hex": "0xba43b7400"
      },
      "gasLimit": {
        "_hex": "0x5208"
      },
      "to": "0xa7EFA1aF5818b50607d86E71140ABf1c9E376363",
      "value": {
        "_hex": "0x7c58ada8ff2000"
      },
      "nonce": 1,
      "data": "0x",
      "r": "0x447d6d424b48c4e97a71ef8f5e08f349e3c5f9b2be037c0b576fe0720d089ef3",
      "s": "0x32ce05808401b7b9d8ed491772b7296168771edb822b0479b4ccb227f7493101",
      "v": 28,
      "creates": null,
      "raw": "0xf86b01850ba43b740082520894a7efa1af5818b50607d86e71140abf1c9e376363877c58ada8ff2000801ca0447d6d424b48c4e97a71ef8f5e08f349e3c5f9b2be037c0b576fe0720d089ef3a032ce05808401b7b9d8ed491772b7296168771edb822b0479b4ccb227f7493101",
      "networkId": 0,
      "chainId": 0
    }
  ]
}