{
  "hash": "0xef9d2fae4406300d410c4169bd7b3d7c4859ecc254917ebe84c8a5696d28443c",
  "parentHash": "0x4b4d052f9a841e1616390191947dbd9c2bea76aaf86e8d05d5e48572919ec43e",
  "number": 115994,
  "timestamp": 1440066627,
  "nonce": "0x6420e6f816cd5375",
  "difficulty": 4584778446089,
  "gasLimit": {
    "_hex": "0x2fefd8"
  },
  "gasUsed": {
    "_hex": "0x5208"
  },
  "miner": "0xe343732D1eA6921c73683B947937AC902b77aD4f",
  "extraData": "0x476574682f76312e302e312f6c696e75782f676f312e342e32",
  "transactions": [
    {
      "hash": "0xd299080d89b71ec842ba4986eb6bcbd14df56d5bea2d06e77fa8e57166f911b7",
      "blockHash": "0xef9d2fae4406300d410c4169bd7b3d7c4859ecc254917ebe84c8a5696d28443c",
      "blockNumber": 115994,
      "transactionIndex": 0,
      "confirmations": null,
      "from": "0xFAB194aC2F8437fAdDeC28952ae2B2CB4F588E38",
      "gasPrice": {
        "_hex": "0xd1df8ebf4"
      },
      "gasLimit": {
        "_hex": "0x15f90"
      },
      "to": "0x23f2D0fd3B4C98Fb1698564deB4898275E2e831f",
      "value": {
        "_hex": "0x13f306a2409fc0000"
      },
      "nonce": 4,
      "data": "0x",
      "r": "0x479aab701ed78ea886c5885265ab9c51daed414f01f8f01f9c7150d15704074d",
      "s": "0x4da480b53a386af39540e7f7fb7c310aae46fe811de9c5761ac1f1d3ff13bd9e",
      "v": 28,
      "creates": null,
      "raw": "0xf86e04850d1df8ebf483015f909423f2d0fd3b4c98fb1698564deb4898275e2e831f89013f306a2409fc0000801ca0479aab701ed78ea886c5885265ab9c51daed414f01f8f01f9c7150d15704074da04da480b53a386af39540e7f7fb7c310aae46fe811de9c5761ac1f1d3ff13bd9e",
      "networkId": 0,
      "chainId": 0
    }
  ]
}