{
  "hash": "0x194a4c4a54bb0055f9ab5e99431b489512c7e6d6b4235a9829265fdf3d239cef",
  "parentHash": "0xb1c2fb058bab79ff36b6db7b5d74109a41dd2117cd59a11019f941dbef6bef9d",
  "number": 94162,
  "timestamp": 1439703608,
  "nonce": "0xe5aa2bba77b8f0d6",
  "difficulty": 3479971228378,
  "gasLimit": {
    "_hex": "0x2fefd8"
  },
  "gasUsed": {
    "_hex": "0x5208"
  },
  "miner": "0x9D49F602b0fdb924Bd63DDE2Bd0907E4A07c63a7",
  "extraData": "0x476574682f76312e302e312f6c696e75782f676f312e342e32",
  "transactions": [
    {
      "hash": "0x09ece8fef9b4dd7bcfd2362fb2f389fed05058091f0d5be9747c32e1475afdd4",
      "blockHash": "0x194a4c4a54bb0055f9ab5e99431b489512c7e6d6b4235a9829265fdf3d239cef",
      "blockNumber": 94162,
      "transactionIndex": 0,
      "confirmations": null,
      "from": "0x508EBad7B46b802AEA4Dac3bD4717c240ef584ed",
      "gasPrice": {
        "_hex": "0xba43b7400"
      },
      "gasLimit": {
        "_hex": "0x5208"
      },
      "to": "0xC47Aaa860008be6f65B58c6C6E02a84e666EfE31",
      "value": {
        "_hex": "0xf105858c25c88d530"
      },
      "nonce": 1,
      "data": "0x",
      "r": "0xe8fd15aa291dc18e657f4a15875d14c350152f337d16eaa0085c7127ae684a3f",
      "s": "0x343e150c5ce43db2f3fda04c87c665b0e50107a444937c100f2b61a75c72966c",
      "v": 28,
      "creates": null,
      "raw": "0xf86d01850ba43b740082520894c47aaa860008be6f65b58c6c6e02a84e666efe31890f105858c25c88d530801ca0e8fd15aa291dc18e657f4a15875d14c350152f337d16eaa0085c7127ae684a3fa0343e150c5ce43db2f3fda04c87c665b0e50107a444937c100f2b61a75c72966c",
      "networkId": 0,
      "chainId": 0
    }
  ]
}