{
  "hash": "0x503ae5bc93426140a9a0503511a69078941ed5286239df860eeb2093afa209bc",
  "parentHash": "0x084365fbdb045d7803ca6ba544f56d6bcf7b1f7344d94b2de432295e8912e975",
  "number": 71596,
  "timestamp": 1439338818,
  "nonce": "0x75f2c8b62a431c61",
  "difficulty": 2172940356274,
  "gasLimit": {
    "_hex": "0x2fefd8"
  },
  "gasUsed": {
    "_hex": "0x546c"
  },
  "miner": "0x47ff6576639c2e94762eA5443978D7681C0E78DC",
  "extraData": "0x476574682f76312e302e312f6c696e75782f676f312e342e32",
  "transactions": [
    {
      "hash": "0x5c6d0772a23ca7ea4a855c0561f2e9add1896833f5af19755b2d1ea1c5425817",
      "blockHash": "0x503ae5bc93426140a9a0503511a69078941ed5286239df860eeb2093afa209bc",
      "blockNumber": 71596,
      "transactionIndex": 0,
      "confirmations": null,
      "from": "0x2f2523Cc834F0086052402626296675186a8e582",
      "gasPrice": {
        "_hex": "0x110c8f7d8de"
      },
      "gasLimit": {
        "_hex": "0xc350"
      },
      "to": "0x2910543Af39abA0Cd09dBb2D50200b3E800A63D2",
      "value": {
        "_hex": "0x34841b6057afab00000"
      },
      "nonce": 0,
      "data": "0x454e3346515a544730",
      "r": "0xa35af9db7790d4c267ea42aa77f3f919c80d82f8ee6ce4d13f37c7ac02cf2d1a",
      "s": "0xde0f0115627fb9672671049954cc7c9de26355d6618c773e4f8ab74c896bf94d",
      "v": 28,
      "creates": null,
      "raw": "0xf87880860110c8f7d8de82c350942910543af39aba0cd09dbb2d50200b3e800a63d28a034841b6057afab0000089454e3346515a5447301ca0a35af9db7790d4c267ea42aa77f3f919c80d82f8ee6ce4d13f37c7ac02cf2d1aa0de0f0115627fb9672671049954cc7c9de26355d6618c773e4f8ab74c896bf94d",
      "networkId": 0,
      "chainId": 0
    }
  ]
}