{
  "hash": "0xa18c2b4fdda3e03c0dd126bedb7941838870088a20b346c144d18d0b89127cb5",
  "parentHash": "0xd08c78b1789c736757b065c120452c27c97e63dc8320bf882793d4d544e837c2",
  "number": 85825,
  "timestamp": 1439569340,
  "nonce": "0xce81a98dc7c30640",
  "difficulty": 2773168452609,
  "gasLimit": {
    "_hex": "0x2fefd8"
  },
  "gasUsed": {
    "_hex": "0xf618"
  },
  "miner": "0xe6A7a1d47ff21B6321162AEA7C6CB457D5476Bca",
  "extraData": "0x476574682f76312e302e312d38326566323666362f6c696e75782f676f312e34",
  "transactions": [
    {
      "hash": "0x318c72f3141d9f3eb032233f4d2d79e5a662dbf930a3ca1b4bd8bf9aebfa0fba",
      "blockHash": "0xa18c2b4fdda3e03c0dd126bedb7941838870088a20b346c144d18d0b89127cb5",
      "blockNumber": 85825,
      "transactionIndex": 0,
      "confirmations": null,
      "from": "0xa70a9a7040d542C632D8e0bE7c5513A8a5Bbc752",
      "gasPrice": {
        "_hex": "0xcbf49e4a2"
      },
      "gasLimit": {
        "_hex": "0x5208"
      },
      "to": "0x32Be343B94f860124dC4fEe278FDCBD38C102D88",
      "value": {
        "_hex": "0x34069775537a2c00"
      },
      "nonce": 92,
      "data": "0x",
      "r": "0xfba3665c6d737fd10a0f5710a7f3fea976fd3fa20a2e5a1c674875fde2e68dd0",
      "s": "0x785cfcc360106e26a322691b33f6e2a79310fe3684535605b443a1eea7a2fbca",
      "v": 28,
      "creates": null,
      "raw": "0xf86c5c850cbf49e4a28252089432be343b94f860124dc4fee278fdcbd38c102d888834069775537a2c00801ca0fba3665c6d737fd10a0f5710a7f3fea976fd3fa20a2e5a1c674875fde2e68dd0a0785cfcc360106e26a322691b33f6e2a79310fe3684535605b443a1eea7a2fbca",
      "networkId": 0,
      "chainId": 0
    },
    {
      "hash": "0xfbf11c818e95deca1cf59363534b115297651129ad1c93e388712ec6553b1560",
      "blockHash": "0xa18c2b4fdda3e03c0dd126bedb7941838870088a20b346c144d18d0b89127cb5",
      "blockNumber": 85825,
      "transactionIndex": 1,
      "confirmations": null,
      "from": "0x34d34F0a638F6991e4E2536F41295DF6E934A646",
      "gasPrice": {
        "_hex": "0xcbf49e4a2"
      },
      "gasLimit": {
        "_hex": "0x5208"
      },
      "to": "0x32Be343B94f860124dC4fEe278FDCBD38C102D88",
      "value": {
        "_hex": "0x4797e15b33970000"
      },
      "nonce": 10,
      "data": "0x",
      "r": "0x47d3d15d4f0091a4f94947845c1afd2f1549ac0e5d28d0d092d7d338bf53c51e",
      "s": "0x06919c22da3eee997102c858ad8e3ae2ee6af8f63f49827a42cd6e30f8533336",
      "v": 27,
      "creates": null,
      "raw": "0xf86c0a850cbf49e4a28252089432be343b94f860124dc4fee278fdcbd38c102d88884797e15b33970000801ba047d3d15d4f0091a4f94947845c1afd2f1549ac0e5d28d0d092d7d338bf53c51ea006919c22da3eee997102c858ad8e3ae2ee6af8f63f49827a42cd6e30f8533336",
      "networkId": 0,
      "chainId": 0
    },
    {
      "hash": "0xc66b443d37337f36ca8751f2b61be66797f936b0c3cea9a458eda0f75a4c7316",
      "blockHash": "0xa18c2b4fdda3e03c0dd126bedb7941838870088a20b346c144d18d0b89127cb5",
      "blockNumber": 85825,
      "transactionIndex": 2,
      "confirmations": null,
      "from": "0xABB4fEc7f89fb5f7443b2F4778e6398701612312",
      "gasPrice": {
        "_hex": "0xcbf49e4a2"
      },
      "gasLimit": {
        "_hex": "0x5208"
      },
      "to": "0x32Be343B94f860124dC4fEe278FDCBD38C102D88",
      "value": {
        "_hex": "0x50edc9593c650c0000"
      },
      "nonce": 0,
      "data": "0x",
      "r": "0xadd3c6300a2581ebb6cd7c51cfdfe1d2b0c417428624b6f9c6fad339671d7913",
      "s": "0x1e126b5b37a50a2f360cecc06dd3940b4279eceaf085926b3cffe1f0d7350302",
      "v": 28,
      "creates": null,
      "raw": "0xf86d80850cbf49e4a28252089432be343b94f860124dc4fee278fdcbd38c102d888950edc9593c650c0000801ca0add3c6300a2581ebb6cd7c51cfdfe1d2b0c417428624b6f9c6fad339671d7913a01e126b5b37a50a2f360cecc06dd3940b4279eceaf085926b3cffe1f0d7350302",
      "networkId": 0,
      "chainId": 0
    }
  ]
}