{
  "hash": "0x2d64618e2ae6c5a293eb7962dbb14de79429ef9854f20a278e33ed28691f7949",
  "parentHash": "0x29510f43f24884e5dec6a469917e084d7144e534350bb0eb9e86419153a5496a",
  "number": 55180,
  "timestamp": 1439066546,
  "nonce": "0x971733ef10c944ff",
  "difficulty": 1641830221636,
  "gasLimit": {
    "_hex": "0x2ffa36"
  },
  "gasUsed": {
    "_hex": "0x7a120"
  },
  "miner": "0x123843545FB525C8E134c9A5F15ADA6865cc3848",
  "extraData": "0x476574682f76312e302e312f77696e646f77732f676f312e342e32",
  "transactions": [
    {
      "hash": "0x9d9f45ad3d3d8f1b3f4910997d88503ccc1d485222f8ee94fb440a118e73ac40",
      "blockHash": "0x2d64618e2ae6c5a293eb7962dbb14de79429ef9854f20a278e33ed28691f7949",
      "blockNumber": 55180,
      "transactionIndex": 0,
      "confirmations": null,
      "from": "0x0ae3F81a67725a8A7758FeB8684c6c17dA20755D",
      "gasPrice": {
        "_hex": "0x1168c325df"
      },
      "gasLimit": {
        "_hex": "0x7a120"
      },
      "to": "0xBAA54d6E90c3F4d7Ebec11bD180134C7eD8eBb52",
      "value": {
        "_hex": "0x16345785d8a0000"
      },
      "nonce": 62,
      "data": "0x",
      "r": "0x1421e6324cdfd6be44cc66ba24da46e1adf934b8318451a4ddaf531dce3baab0",
      "s": "0x0649cbb3ad27a15f3da4cc478ac10e2d3f1e77f2ee2b480c720e551188d9fa98",
      "v": 27,
      "creates": null,
      "raw": "0xf86d3e851168c325df8307a12094baa54d6e90c3f4d7ebec11bd180134c7ed8ebb5288016345785d8a0000801ba01421e6324cdfd6be44cc66ba24da46e1adf934b8318451a4ddaf531dce3baab0a00649cbb3ad27a15f3da4cc478ac10e2d3f1e77f2ee2b480c720e551188d9fa98",
      "networkId": 0,
      "chainId": 0
    }
  ]
}