{
  "hash": "0xfcdc310094e043b97fe676bf3f604a01d05a799de63f6765c317119ca19df475",
  "parentHash": "0x735cef3693dc03fba64d1fc67c4ab8e2b4a7223b7151ac0ffab114384a11b8cb",
  "number": 60836,
  "timestamp": 1439162470,
  "nonce": "0x287ea949fded0b51",
  "difficulty": 1732949490986,
  "gasLimit": {
    "_hex": "0x2fefd8"
  },
  "gasUsed": {
    "_hex": "0x5208"
  },
  "miner": "0x31995C46B15C84523cDEE26f49A681b8237e43F5",
  "extraData": "0x476574682f76312e302e312f77696e646f77732f676f312e342e32",
  "transactions": [
    {
      "hash": "0xe7a214552a7953eed042f5277c7556f101048a24c0041ae4b2c517938a8bad48",
      "blockHash": "0xfcdc310094e043b97fe676bf3f604a01d05a799de63f6765c317119ca19df475",
      "blockNumber": 60836,
      "transactionIndex": 0,
      "confirmations": null,
      "from": "0x753562eEA69CD2D342A9c07EDD49b9753dc0F01e",
      "gasPrice": {
        "_hex": "0xd7d40ace3"
      },
      "gasLimit": {
        "_hex": "0x15f90"
      },
      "to": "0x1a504a8dB98E4E49b1383321a29DDd366eF34212",
      "value": {
        "_hex": "0x38d7ea4c68000"
      },
      "nonce": 0,
      "data": "0x",
      "r": "0xdab3490d72eb7945878f3809213c5bd5e48260b7756f6a871a855041d3dc7bc1",
      "s": "0x5dcb9105e3e4b1717a9a3a3b9390a4ae5fc76973fc58848f105ddf52f76c3245",
      "v": 27,
      "creates": null,
      "raw": "0xf86c80850d7d40ace383015f90941a504a8db98e4e49b1383321a29ddd366ef3421287038d7ea4c68000801ba0dab3490d72eb7945878f3809213c5bd5e48260b7756f6a871a855041d3dc7bc1a05dcb9105e3e4b1717a9a3a3b9390a4ae5fc76973fc58848f105ddf52f76c3245",
      "networkId": 0,
      "chainId": 0
    }
  ]
}