{
  "hash": "0xaf0ab53732f8abfa012643eea3b064bb4bffaa2fe8897e2d0f31eba21d89a29c",
  "parentHash": "0x8f2ea7edd513e8823f54a0a288e1211df85236f26d8f6e64c6e8e9a02077dcd3",
  "number": 100942,
  "timestamp": 1439814946,
  "nonce": "0x7c2c5407a99de04c",
  "difficulty": 3860157488373,
  "gasLimit": {
    "_hex": "0x2fefd8"
  },
  "gasUsed": {
    "_hex": "0x5208"
  },
  "miner": "0x00302daDc13249861Ff7F8280A45B2e1067EE4eB",
  "extraData": "0xda8098302e392e34312b2b302d524c696e75782f672b2b2f696e74",
  "transactions": [
    {
      "hash": "0x03678631260c870609502b398b9d37e63bc60b04f7ee20d51cb46a5ce98dd18b",
      "blockHash": "0xaf0ab53732f8abfa012643eea3b064bb4bffaa2fe8897e2d0f31eba21d89a29c",
      "blockNumber": 100942,
      "transactionIndex": 0,
      "confirmations": null,
      "from": "0x10c4712a317A10F60fE9347b199400d6BaA89558",
      "gasPrice": {
        "_hex": "0xd829211eb"
      },
      "gasLimit": {
        "_hex": "0x15f90"
      },
      "to": "0x5465B1c380c9D2446965E503EB731F08A30ecD25",
      "value": {
        "_hex": "0x14d1120d7b160000"
      },
      "nonce": 4,
      "data": "0x",
      "r": "0x93a9e0cfb8b9d0bc5923b76eae630412ecef629e275b6c5864fd804e903e4dac",
      "s": "0x2a149196a76073ba92c3944d9e58e9d12d9d7e34cd2b6e2e2cc7a8f1025b74fa",
      "v": 27,
      "creates": null,
      "raw": "0xf86d04850d829211eb83015f90945465b1c380c9d2446965e503eb731f08a30ecd258814d1120d7b160000801ba093a9e0cfb8b9d0bc5923b76eae630412ecef629e275b6c5864fd804e903e4daca02a149196a76073ba92c3944d9e58e9d12d9d7e34cd2b6e2e2cc7a8f1025b74fa",
      "networkId": 0,
      "chainId": 0
    }
  ]
}