{
  "hash": "0x498d034642aef489be3fca4fbfac5a7e4e771c378bf062d7e86cd1dbbb67ddbb",
  "parentHash": "0xabb3f12ff376f1e7eb938c095f807d86589c68fb2fb65064070087064bc964b6",
  "number": 84851,
  "timestamp": 1439555278,
  "nonce": "0x2f546808df8528b5",
  "difficulty": 2656841121189,
  "gasLimit": {
    "_hex": "0x2fefd8"
  },
  "gasUsed": {
    "_hex": "0xa7e0"
  },
  "miner": "0xcf00A85f3826941e7A25BFcF9Aac575d40410852",
  "extraData": "0x476574682f76312e302e312f77696e646f77732f676f312e342e32",
  "transactions": [
    {
      "hash": "0x96a7b06b7688ea2c83436837cb8bb9397c62a096253a102c9652c95f6c5c8e44",
      "blockHash": "0x498d034642aef489be3fca4fbfac5a7e4e771c378bf062d7e86cd1dbbb67ddbb",
      "blockNumber": 84851,
      "transactionIndex": 0,
      "confirmations": null,
      "from": "0xc539E5d2311bc56B7aBb15e01af9b15f04e16c6D",
      "gasPrice": {
        "_hex": "0x11508a5cc54"
      },
      "gasLimit": {
        "_hex": "0x15f90"
      },
      "to": "0x0000000000000000000000000000000000000000",
      "value": {
        "_hex": "0xde0b6b3a7640000"
      },
      "nonce": 0,
      "data": "0xb214faa5374848374d433731530000000000000000000000000000000000000000000000",
      "r": "0xd178020ebf7615a03acbfecbdda0385de7c65f11f7acaa30093e934690b74186",
      "s": "0x2db2138668ca77cf972ec42d4ca90bc0c449cb3b31e94b34440bfa76bf14fa74",
      "v": 28,
      "creates": null,
      "raw": "0xf8928086011508a5cc5483015f90940000000000000000000000000000000000000000880de0b6b3a7640000a4b214faa5374848374d4337315300000000000000000000000000000000000000000000001ca0d178020ebf7615a03acbfecbdda0385de7c65f11f7acaa30093e934690b74186a02db2138668ca77cf972ec42d4ca90bc0c449cb3b31e94b34440bfa76bf14fa74",
      "networkId": 0,
      "chainId": 0
    },
    {
      "hash": "0x7d71c1c789e1607308707e7e3e7081ebea6f3b7da3d8f3a0a63758782e8f8b0e",
      "blockHash": "0x498d034642aef489be3fca4fbfac5a7e4e771c378bf062d7e86cd1dbbb67ddbb",
      "blockNumber": 84851,
      "transactionIndex": 1,
      "confirmations": null,
      "from": "0x87898CE53471043FcCa0a2aF4E1dC6d8B3fCf607",
      "gasPrice": {
        "_hex": "0xd5953122e"
      },
      "gasLimit": {
        "_hex": "0x5208"
      },
      "to": "0xBFdD9820a04283b289957956353b5F3C1F665EcF",
      "value": {
        "_hex": "0x4563918244f40000"
      },
      "nonce": 35,
      "data": "0x",
      "r": "0x2bfa87ec3fe9de5e0f873afc2c43afa8b76852573dc79cb65155f3c06847fd05",
      "s": "0x216dd9d869f8c4fc0a66fa7606920eedb471273050500c8591becf9b4d5aa2d9",
      "v": 28,
      "creates": null,
      "raw": "0xf86c23850d5953122e82520894bfdd9820a04283b289957956353b5f3c1f665ecf884563918244f40000801ca02bfa87ec3fe9de5e0f873afc2c43afa8b76852573dc79cb65155f3c06847fd05a0216dd9d869f8c4fc0a66fa7606920eedb471273050500c8591becf9b4d5aa2d9",
      "networkId": 0,
      "chainId": 0
    }
  ]
}