{
  "hash": "0x61842be37ce17e86a30d8bf5aa6c9d829cb7927aa38b1414ed59b7dc75e24fa7",
  "parentHash": "0xa9b2a58f25ba72210fb4d2cadc421450c5d402bc3ad049755aa81a3351d0a984",
  "number": 59298,
  "timestamp": 1439135772,
  "nonce": "0xd46afdc487d698e9",
  "difficulty": 1704729837308,
  "gasLimit": {
    "_hex": "0x2fefd8"
  },
  "gasUsed": {
    "_hex": "0x5208"
  },
  "miner": "0xA21Ba94e45f0E168dA824fC67aC9cb5Cb577a8aF",
  "extraData": "0x",
  "transactions": [
    {
      "hash": "0xc87bc24df3074785ab8cc9e8bcc05ed8e35365cdfbefe270603824682b8a1eda",
      "blockHash": "0x61842be37ce17e86a30d8bf5aa6c9d829cb7927aa38b1414ed59b7dc75e24fa7",
      "blockNumber": 59298,
      "transactionIndex": 0,
      "confirmations": null,
      "from": "0x5fF827e73C5B866c300b824fe12719a3DD350513",
      "gasPrice": {
        "_hex": "0xe073ca5a2"
      },
      "gasLimit": {
        "_hex": "0x5208"
      },
      "to": "0x32Be343B94f860124dC4fEe278FDCBD38C102D88",
      "value": {
        "_hex": "0x455f12c0a40ee400"
      },
      "nonce": 4,
      "data": "0x",
      "r": "0xd81864d4ff700a5296d77eaab9f45c1dd87c8c57523eacb53b8086ceab425846",
      "s": "0x341e3c18d5933016bd7bc6403ae577e2e521c75ccbf0c508c6f6117da5dd292d",
      "v": 28,
      "creates": null,
      "raw": "0xf86c04850e073ca5a28252089432be343b94f860124dc4fee278fdcbd38c102d8888455f12c0a40ee400801ca0d81864d4ff700a5296d77eaab9f45c1dd87c8c57523eacb53b8086ceab425846a0341e3c18d5933016bd7bc6403ae577e2e521c75ccbf0c508c6f6117da5dd292d",
      "networkId": 0,
      "chainId": 0
    }
  ]
}