{
  "hash": "0xe83f4142403708e1250b177b81d6fdd3ba982ff16f0ba4180d2ccf42011da3d1",
  "parentHash": "0x7d758635aea1d088b07cd54d9781585e7db7bdc829a745c9b7f5769930e607ae",
  "number": 113400,
  "timestamp": 1440022898,
  "nonce": "0x06d9ffc1c918f923",
  "difficulty": 4466851608958,
  "gasLimit": {
    "_hex": "0x2fefd8"
  },
  "gasUsed": {
    "_hex": "0x5208"
  },
  "miner": "0x9D49F602b0fdb924Bd63DDE2Bd0907E4A07c63a7",
  "extraData": "0x476574682f76312e302e312f6c696e75782f676f312e342e32",
  "transactions": [
    {
      "hash": "0xa4958c89a28ec9089fa3db0c94cc4388fcfde4d8bab3a00b8bf54eaacf595223",
      "blockHash": "0xe83f4142403708e1250b177b81d6fdd3ba982ff16f0ba4180d2ccf42011da3d1",
      "blockNumber": 113400,
      "transactionIndex": 0,
      "confirmations": null,
      "from": "0xf2cC0eEAAAeD313542CB262B0B8c3972425143f0",
      "gasPrice": {
        "_hex": "0xd0f46d757"
      },
      "gasLimit": {
        "_hex": "0x5208"
      },
      "to": "0x32Be343B94f860124dC4fEe278FDCBD38C102D88",
      "value": {
        "_hex": "0x58ee018e302c7c00"
      },
      "nonce": 20,
      "data": "0x",
      "r": "0x558298a7195a6288a7ba0fcd31c74fa987478335e89889d4c2f4afb8a510bf43",
      "s": "0x30857cc62248a02aa6a8f4e07e39363efad61ed805190225292359c4db2e8834",
      "v": 28,
      "creates": null,
      "raw": "0xf86c14850d0f46d7578252089432be343b94f860124dc4fee278fdcbd38c102d888858ee018e302c7c00801ca0558298a7195a6288a7ba0fcd31c74fa987478335e89889d4c2f4afb8a510bf43a030857cc62248a02aa6a8f4e07e39363efad61ed805190225292359c4db2e8834",
      "networkId": 0,
      "chainId": 0
    }
  ]
}