{
  "hash": "0x5621fc99fa81e83321a5b34bd675ff1a8f8c36271cd5c8ec3a97714ed3d3f6da",
  "parentHash": "0x01553becfc1c7dd3f9e836049c74e94c83034a166df84ca8bee92727bc26e0df",
  "number": 60321,
  "timestamp": 1439153443,
  "nonce": "0x11b33a9bd73fbe59",
  "difficulty": 1747501475689,
  "gasLimit": {
    "_hex": "0x2fefd8"
  },
  "gasUsed": {
    "_hex": "0xa410"
  },
  "miner": "0xf927a40C8B7F6E07c5af7FA2155B4864a4112B13",
  "extraData": "0x",
  "transactions": [
    {
      "hash": "0x0e7ac0c0ad57b76fcd8e4b1b20edb420a91cc942af75fe60bc750e40f2474ec6",
      "blockHash": "0x5621fc99fa81e83321a5b34bd675ff1a8f8c36271cd5c8ec3a97714ed3d3f6da",
      "blockNumber": 60321,
      "transactionIndex": 0,
      "confirmations": null,
      "from": "0x2910543Af39abA0Cd09dBb2D50200b3E800A63D2",
      "gasPrice": {
        "_hex": "0xd868cd1c6"
      },
      "gasLimit": {
        "_hex": "0x5208"
      },
      "to": "0x73399E4211fC5e5C4cF33E51958a3173124645c3",
      "value": {
        "_hex": "0x8ab55f8b52078000"
      },
      "nonce": 27,
      "data": "0x",
      "r": "0x99244c9c369ea6a5162ecade320a2dc7b4fd829ccaf5d029afed1107681bff18",
      "s": "0x5f3a75b5e8c4ff288cf11f08d518829c1d3862c774dcde6221117a698cfe33af",
      "v": 28,
      "creates": null,
      "raw": "0xf86c1b850d868cd1c68252089473399e4211fc5e5c4cf33e51958a3173124645c3888ab55f8b52078000801ca099244c9c369ea6a5162ecade320a2dc7b4fd829ccaf5d029afed1107681bff18a05f3a75b5e8c4ff288cf11f08d518829c1d3862c774dcde6221117a698cfe33af",
      "networkId": 0,
      "chainId": 0
    },
    {
      "hash": "0xc9914407b168bc228d1102baf890941922dd6216b4719cc68481dd75b11cff8a",
      "blockHash": "0x5621fc99fa81e83321a5b34bd675ff1a8f8c36271cd5c8ec3a97714ed3d3f6da",
      "blockNumber": 60321,
      "transactionIndex": 1,
      "confirmations": null,
      "from": "0x2910543Af39abA0Cd09dBb2D50200b3E800A63D2",
      "gasPrice": {
        "_hex": "0xd868cd1c6"
      },
      "gasLimit": {
        "_hex": "0x5208"
      },
      "to": "0x5584a5A361e70D0757D8Ca2B151f041136C9C28a",
      "value": {
        "_hex": "0x55dd4e40083cb8000"
      },
      "nonce": 28,
      "data": "0x",
      "r": "0xf586cb08669fc21279f09691e4df0a02eead27096a2ef6fa26562f51b969475d",
      "s": "0x49686fc96be27b5ea02cacbe35f000ac7ebb096709c6219c8678a99a6d574d8e",
      "v": 27,
      "creates": null,
      "raw": "0xf86d1c850d868cd1c6825208945584a5a361e70d0757d8ca2b151f041136c9c28a89055dd4e40083cb8000801ba0f586cb08669fc21279f09691e4df0a02eead27096a2ef6fa26562f51b969475da049686fc96be27b5ea02cacbe35f000ac7ebb096709c6219c8678a99a6d574d8e",
      "networkId": 0,
      "chainId": 0
    }
  ]
}