{
  "hash": "0xd441c96dbc8753878865c675491750c8e4c59c83c59c7cfd0e99d89775119489",
  "parentHash": "0xc247934b1204c7636d952f8dea2621a9c9f18f3fe39d1b40e164090e9d59377f",
  "number": 74294,
  "timestamp": 1439383870,
  "nonce": "0x89aa0710fcc8d906",
  "difficulty": 2206449423316,
  "gasLimit": {
    "_hex": "0x2fefd8"
  },
  "gasUsed": {
    "_hex": "0x1eeb9"
  },
  "miner": "0x1217627fe41A00f0b828317F43E6d58F47dBfc43",
  "extraData": "0x476574682f76312e302e302d66313265303136312f6c696e75782f676f312e34",
  "transactions": [
    {
      "hash": "0x1288dafba19b68668128c349c69dced7bfffd6e4f6cb2a098d7a9c0c02f7e6b3",
      "blockHash": "0xd441c96dbc8753878865c675491750c8e4c59c83c59c7cfd0e99d89775119489",
      "blockNumber": 74294,
      "transactionIndex": 0,
      "confirmations": null,
      "from": "0x93b3437645A67059E280a3317a93c57e2f4788EA",
      "gasPrice": {
        "_hex": "0xd1b915c7e"
      },
      "gasLimit": {
        "_hex": "0x5208"
      },
      "to": "0x32Be343B94f860124dC4fEe278FDCBD38C102D88",
      "value": {
        "_hex": "0x1eea96d8b19b9f000"
      },
      "nonce": 0,
      "data": "0x",
      "r": "0xfdb021371da8a5de26d55f19d431db5c563f853bb26e69679f6fb29748db1acd",
      "s": "0x116c2a42d3455e95af8f05ed5d0ffcfd0a5d689ea2b1f6fb97d8475bffda5a70",
      "v": 28,
      "creates": null,
      "raw": "0xf86d80850d1b915c7e8252089432be343b94f860124dc4fee278fdcbd38c102d888901eea96d8b19b9f000801ca0fdb021371da8a5de26d55f19d431db5c563f853bb26e69679f6fb29748db1acda0116c2a42d3455e95af8f05ed5d0ffcfd0a5d689ea2b1f6fb97d8475bffda5a70",
      "networkId": 0,
      "chainId": 0
    },
    {
      "hash": "0xfd0327a52b0e44372c158d5740401a14d4446bd143fef6a2cf184a74fa0f7dea",
      "blockHash": "0xd441c96dbc8753878865c675491750c8e4c59c83c59c7cfd0e99d89775119489",
      "blockNumber": 74294,
      "transactionIndex": 1,
      "confirmations": null,
      "from": "0x6E8A26689f7A2FdEfd009CBaaA5310253450DABa",
      "gasPrice": {
        "_hex": "0xd7d40ace3"
      },
      "gasLimit": {
        "_hex": "0x15f90"
      },
      "to": "0xd6986162E8B905e6a771C3BCD1b2baa2B0bb386F",
      "value": {
        "_hex": "0xb1a2bc2ec50000"
      },
      "nonce": 0,
      "data": "0x",
      "r": "0xd3ad70e9e095e038c2d6f2a9a9fd0c74a082fec02557f07aeb10fad8967ca5e7",
      "s": "0x196e456b98e7fd3c5be22ebef85a8937ffb1309647acfcb5c12f03c5f4b24d46",
      "v": 27,
      "creates": null,
      "raw": "0xf86c80850d7d40ace383015f9094d6986162e8b905e6a771c3bcd1b2baa2b0bb386f87b1a2bc2ec50000801ba0d3ad70e9e095e038c2d6f2a9a9fd0c74a082fec02557f07aeb10fad8967ca5e7a0196e456b98e7fd3c5be22ebef85a8937ffb1309647acfcb5c12f03c5f4b24d46",
      "networkId": 0,
      "chainId": 0
    },
    {
      "hash": "0x9d9a8d820eb36b86273d84217e5be1e96c76047a2bbc5427552efca37f148398",
      "blockHash": "0xd441c96dbc8753878865c675491750c8e4c59c83c59c7cfd0e99d89775119489",
      "blockNumber": 74294,
      "transactionIndex": 2,
      "confirmations": null,
      "from": "0x187b1f47Cd55b27878699DfCDCee2234cD49E97e",
      "gasPrice": {
        "_hex": "0xd1b915c7e"
      },
      "gasLimit": {
        "_hex": "0x5208"
      },
      "to": "0x32Be343B94f860124dC4fEe278FDCBD38C102D88",
      "value": {
        "_hex": "0x283eb4267ea9ec000"
      },
      "nonce": 0,
      "data": "0x",
      "r": "0xa677bf73b19925a30ecd61b9c2ffff3fa144a00065724589fa60569a2d5c82ae",
      "s": "0x2fbd80e92eba25fd70f394c80e42e93f7cd20c4eb8ff6273d39e34d51fbb578a",
      "v": 28,
      "creates": null,
      "raw": "0xf86d80850d1b915c7e8252089432be343b94f860124dc4fee278fdcbd38c102d88890283eb4267ea9ec000801ca0a677bf73b19925a30ecd61b9c2ffff3fa144a00065724589fa60569a2d5c82aea02fbd80e92eba25fd70f394c80e42e93f7cd20c4eb8ff6273d39e34d51fbb578a",
      "networkId": 0,
      "chainId": 0
    },
    {
      "hash": "0x3e509d26ebc5ed26b04b73b18183a995707e2e903de408d25d7e272d7700c298",
      "blockHash": "0xd441c96dbc8753878865c675491750c8e4c59c83c59c7cfd0e99d89775119489",
      "blockNumber": 74294,
      "transactionIndex": 3,
      "confirmations": null,
      "from": "0x6CB5e8313a5B29aDb14AE1884D3EcE4489d02D77",
      "gasPrice": {
        "_hex": "0xd1b915c7e"
      },
      "gasLimit": {
        "_hex": "0x5208"
      },
      "to": "0x32Be343B94f860124dC4fEe278FDCBD38C102D88",
      "value": {
        "_hex": "0x24bc9e7ddb56ac000"
      },
      "nonce": 0,
      "data": "0x",
      "r": "0xde2442b69f9120a5655e78ea0572fff6bcce5d109f91c4e2ccd38e9b7f5c474c",
      "s": "0x5e856c94ed1afaf1e6d7ea7d9ae686ac4fe8601cf103ae281378758308dcafbc",
      "v": 27,
      "creates": null,
      "raw": "0xf86d80850d1b915c7e8252089432be343b94f860124dc4fee278fdcbd38c102d8889024bc9e7ddb56ac000801ba0de2442b69f9120a5655e78ea0572fff6bcce5d109f91c4e2ccd38e9b7f5c474ca05e856c94ed1afaf1e6d7ea7d9ae686ac4fe8601cf103ae281378758308dcafbc",
      "networkId": 0,
      "chainId": 0
    },
    {
      "hash": "0xb2783e8d90200b54b0eb3152a8001ab05dcdeab2fc31f678dd53a727cc236e16",
      "blockHash": "0xd441c96dbc8753878865c675491750c8e4c59c83c59c7cfd0e99d89775119489",
      "blockNumber": 74294,
      "transactionIndex": 4,
      "confirmations": null,
      "from": "0x837A2A346557050c8cF0fb24b84Aa695E8Add19f",
      "gasPrice": {
        "_hex": "0xdd6391afb"
      },
      "gasLimit": {
        "_hex": "0x55f0"
      },
      "to": "0x2910543Af39abA0Cd09dBb2D50200b3E800A63D2",
      "value": {
        "_hex": "0x4e1003b28d9280000"
      },
      "nonce": 1,
      "data": "0x454e415157474e5a38",
      "r": "0x71b04bfca77c71b9f36443e7d9ba16fcc245a73e7da2018a6664a63b7a27a86e",
      "s": "0x7b4139a72711d0ad21583bc70da077cad3baa8e2f5258487adddc58f52c124ea",
      "v": 27,
      "creates": null,
      "raw": "0xf87601850dd6391afb8255f0942910543af39aba0cd09dbb2d50200b3e800a63d28904e1003b28d928000089454e415157474e5a381ba071b04bfca77c71b9f36443e7d9ba16fcc245a73e7da2018a6664a63b7a27a86ea07b4139a72711d0ad21583bc70da077cad3baa8e2f5258487adddc58f52c124ea",
      "networkId": 0,
      "chainId": 0
    },
    {
      "hash": "0xd7bccec28b89c4e9fe7a15488a562243b41d30fc928fbba099445c0f08e6630f",
      "blockHash": "0xd441c96dbc8753878865c675491750c8e4c59c83c59c7cfd0e99d89775119489",
      "blockNumber": 74294,
      "transactionIndex": 5,
      "confirmations": null,
      "from": "0x87C5B5874A18B4306DF8a752a6C8cc3E82daFc19",
      "gasPrice": {
        "_hex": "0xfdb07d2c20"
      },
      "gasLimit": {
        "_hex": "0x15f90"
      },
      "to": "0x88A91FD7Fb8AAEa8cDAD2C990f1DBDcd28022a02",
      "value": {
        "_hex": "0x3635c9adc5dea00000"
      },
      "nonce": 12,
      "data": "0x",
      "r": "0x4cd7a7ede0a65a8790115f2384d85fc36ef6e5af53052ff8d6c56c97f300b5ca",
      "s": "0x060fcc3ee959ea0d40468f39ac39d96d96349332e3a14c6f74ab8c5a49b8a1fd",
      "v": 28,
      "creates": null,
      "raw": "0xf86e0c85fdb07d2c2083015f909488a91fd7fb8aaea8cdad2c990f1dbdcd28022a02893635c9adc5dea00000801ca04cd7a7ede0a65a8790115f2384d85fc36ef6e5af53052ff8d6c56c97f300b5caa0060fcc3ee959ea0d40468f39ac39d96d96349332e3a14c6f74ab8c5a49b8a1fd",
      "networkId": 0,
      "chainId": 0
    }
  ]
}