{
  "hash": "0xa5d04172ee61bb52d17c1bda7750b9437ceed3d4861cc4a99e403b860ea6dfb1",
  "parentHash": "0x07b5501a0c2c319d50321be9cc9265dacbe1338329a046c5a631a1f73a737f16",
  "number": 55269,
  "timestamp": 1439067915,
  "nonce": "0x9b97b2e35539ea2c",
  "difficulty": 1639409563726,
  "gasLimit": {
    "_hex": "0x2fefd8"
  },
  "gasUsed": {
    "_hex": "0x5208"
  },
  "miner": "0x47ff6576639c2e94762eA5443978D7681C0E78DC",
  "extraData": "0x476574682f76312e302e312f6c696e75782f676f312e342e32",
  "transactions": [
    {
      "hash": "0x35df7f4ed492b6efd587c575a396b3504aa341fc7f0f8612910ecb0b9d8c36e3",
      "blockHash": "0xa5d04172ee61bb52d17c1bda7750b9437ceed3d4861cc4a99e403b860ea6dfb1",
      "blockNumber": 55269,
      "transactionIndex": 0,
      "confirmations": null,
      "from": "0x32Be343B94f860124dC4fEe278FDCBD38C102D88",
      "gasPrice": {
        "_hex": "0xceb9feaa1"
      },
      "gasLimit": {
        "_hex": "0x5208"
      },
      "to": "0x6B4971F56172Fe56565FD3d6b56F8CA3C91B2baD",
      "value": {
        "_hex": "0xea9384f2437078000"
      },
      "nonce": 65,
      "data": "0x",
      "r": "0x594dded4b03fd1891a64ec15268f6924cae54905f5a45fb37eddf416130c57de",
      "s": "0x4a665a267e1bb7892599521111a673b1f206886efdd94bc2c6f8b5828dcdaa0a",
      "v": 27,
      "creates": null,
      "raw": "0xf86d41850ceb9feaa1825208946b4971f56172fe56565fd3d6b56f8ca3c91b2bad890ea9384f2437078000801ba0594dded4b03fd1891a64ec15268f6924cae54905f5a45fb37eddf416130c57dea04a665a267e1bb7892599521111a673b1f206886efdd94bc2c6f8b5828dcdaa0a",
      "networkId": 0,
      "chainId": 0
    }
  ]
}