{
  "hash": "0xcd2dc2b073a141ae6f1cd5419068c661b57b077a32f6c6a8a48aa446e5d8524a",
  "parentHash": "0x49a5b3594a1221a7c5cddd111d5657cd0d15cb8b69b0402ae2169f396337af78",
  "number": 61318,
  "timestamp": 1439170601,
  "nonce": "0x11019ca2fcc1dca3",
  "difficulty": 1724409362189,
  "gasLimit": {
    "_hex": "0x2fefd8"
  },
  "gasUsed": {
    "_hex": "0x5263"
  },
  "miner": "0x9746c7e1ef2bd21FF3997fa467593a89cb852BD0",
  "extraData": "0x476574682f76312e302e312f77696e646f77732f676f312e342e32",
  "transactions": [
    {
      "hash": "0xe535ec64e31c7fabd6e3ba23ee41192e0d693ae09a0545b09bc996ec888b1cdc",
      "blockHash": "0xcd2dc2b073a141ae6f1cd5419068c661b57b077a32f6c6a8a48aa446e5d8524a",
      "blockNumber": 61318,
      "transactionIndex": 0,
      "confirmations": null,
      "from": "0xE2beA3e7d349ab64EBD9873418e78912e13CD35f",
      "gasPrice": {
        "_hex": "0xd4cf49940"
      },
      "gasLimit": {
        "_hex": "0x15f90"
      },
      "to": "0x1702C089c3D4B2b8e09232F36114E41c214D6939",
      "value": {
        "_hex": "0xde0b6b3a7640000"
      },
      "nonce": 3,
      "data": "0x",
      "r": "0x435b9f2d2fca35c3ab5bd378f865e89ed5f19c7cd341a0b6fd1dd5a6e2b72a67",
      "s": "0x3a391009e235fba8e118a7b4b285f771ebbbf3a48bb97eeae336dd98e1e6c2d3",
      "v": 28,
      "creates": null,
      "raw": "0xf86d03850d4cf4994083015f90941702c089c3d4b2b8e09232f36114e41c214d6939880de0b6b3a7640000801ca0435b9f2d2fca35c3ab5bd378f865e89ed5f19c7cd341a0b6fd1dd5a6e2b72a67a03a391009e235fba8e118a7b4b285f771ebbbf3a48bb97eeae336dd98e1e6c2d3",
      "networkId": 0,
      "chainId": 0
    }
  ]
}