{
  "hash": "0xc3ba5b8bf54bf6944dbdc7a6fc99eef67c93503caa886d9c3ecef6b790ed3254",
  "parentHash": "0x3fbe97d547a1b8599a77c9dc76f6abb466d7a1232128a2e8fd25fb0731521747",
  "number": 60687,
  "timestamp": 1439159996,
  "nonce": "0xf20f45c9eff3fb05",
  "difficulty": 1727067110603,
  "gasLimit": {
    "_hex": "0x2fefd8"
  },
  "gasUsed": {
    "_hex": "0x5318"
  },
  "miner": "0x35e8e5dC5FBd97c5b421A80B596C030a2Be2A04D",
  "extraData": "0x476574682f76312e302e312f6c696e75782f676f312e342e32",
  "transactions": [
    {
      "hash": "0x950b02964ea1756fd93512e34902e46d9e7946d1f006c3c918d664a136fc5e9e",
      "blockHash": "0xc3ba5b8bf54bf6944dbdc7a6fc99eef67c93503caa886d9c3ecef6b790ed3254",
      "blockNumber": 60687,
      "transactionIndex": 0,
      "confirmations": null,
      "from": "0x3FF679B0823a026F2378E5f5F22A6F127cC85828",
      "gasPrice": {
        "_hex": "0xd8364fc25"
      },
      "gasLimit": {
        "_hex": "0x61a8"
      },
      "to": "0x71800954e6FA0Cbc43c6440d3CC80660F18a8B6F",
      "value": {
        "_hex": "0xa076407d3f7440000"
      },
      "nonce": 2,
      "data": "0x74657374",
      "r": "0x44801c3449873a1bcaa3af49b325338d007861ce3d79f4bc494bbc7165e3d2a4",
      "s": "0x3d1fd67a8a36a7df18c2b03f9b7766bb470ee8799bca9cab8de93e9ca06868b5",
      "v": 28,
      "creates": null,
      "raw": "0xf87102850d8364fc258261a89471800954e6fa0cbc43c6440d3cc80660f18a8b6f890a076407d3f744000084746573741ca044801c3449873a1bcaa3af49b325338d007861ce3d79f4bc494bbc7165e3d2a4a03d1fd67a8a36a7df18c2b03f9b7766bb470ee8799bca9cab8de93e9ca06868b5",
      "networkId": 0,
      "chainId": 0
    }
  ]
}