{
  "hash": "0xb75fe8838c5db718c0575499f78f8771f6d55d27ed66a8da58cc2e17f3c7feb6",
  "parentHash": "0xf60488a190a3e34755cd8f2f6445bf931cea63b8ace070636c64e270c55280e0",
  "number": 76993,
  "timestamp": 1439429704,
  "nonce": "0x143e7299cfb7009f",
  "difficulty": 2230650733175,
  "gasLimit": {
    "_hex": "0x2fefd8"
  },
  "gasUsed": {
    "_hex": "0xa410"
  },
  "miner": "0x9746c7e1ef2bd21FF3997fa467593a89cb852BD0",
  "extraData": "0x476574682f76312e302e312f77696e646f77732f676f312e342e32",
  "transactions": [
    {
      "hash": "0xbc9beaa2b4324fe6789b0971e618cdb406ad81340f73cb0fd87071aa4725b958",
      "blockHash": "0xb75fe8838c5db718c0575499f78f8771f6d55d27ed66a8da58cc2e17f3c7feb6",
      "blockNumber": 76993,
      "transactionIndex": 0,
      "confirmations": null,
      "from": "0x543807d0aF2c58b49d7F25659D0472d4d8B8e8DA",
      "gasPrice": {
        "_hex": "0xd35b550b6"
      },
      "gasLimit": {
        "_hex": "0x5208"
      },
      "to": "0x32Be343B94f860124dC4fEe278FDCBD38C102D88",
      "value": {
        "_hex": "0x5b93ad6a0b8f7c00"
      },
      "nonce": 2,
      "data": "0x",
      "r": "0x208c39ea181c0c18c0a2788623c05d272767829c5b5ff00e6fd7eb9e39105479",
      "s": "0x6df11cfd3b569e0fc4ec0258389ed8885e3fea6dbeda122b710863174b36eab3",
      "v": 28,
      "creates": null,
      "raw": "0xf86c02850d35b550b68252089432be343b94f860124dc4fee278fdcbd38c102d88885b93ad6a0b8f7c00801ca0208c39ea181c0c18c0a2788623c05d272767829c5b5ff00e6fd7eb9e39105479a06df11cfd3b569e0fc4ec0258389ed8885e3fea6dbeda122b710863174b36eab3",
      "networkId": 0,
      "chainId": 0
    },
    {
      "hash": "0xecb307ce948d0e3aef439fea6fe05e289076896636a9d77799d80571017a6efa",
      "blockHash": "0xb75fe8838c5db718c0575499f78f8771f6d55d27ed66a8da58cc2e17f3c7feb6",
      "blockNumber": 76993,
      "transactionIndex": 1,
      "confirmations": null,
      "from": "0xa6BDc31c431B8F97848c9D60cbbe9660dc450eB7",
      "gasPrice": {
        "_hex": "0xd35b550b6"
      },
      "gasLimit": {
        "_hex": "0x5208"
      },
      "to": "0x32Be343B94f860124dC4fEe278FDCBD38C102D88",
      "value": {
        "_hex": "0x455f55e432ef7c00"
      },
      "nonce": 17,
      "data": "0x",
      "r": "0x2f3a1d61364b97e9b631a67c6f9730d74a8203663f48bdc415a13eb7c4604870",
      "s": "0x160e7ad7e59ffd9c339f65154b23d9524710ef6e8267886812e4beb7e30cbfa8",
      "v": 28,
      "creates": null,
      "raw": "0xf86c11850d35b550b68252089432be343b94f860124dc4fee278fdcbd38c102d8888455f55e432ef7c00801ca02f3a1d61364b97e9b631a67c6f9730d74a8203663f48bdc415a13eb7c4604870a0160e7ad7e59ffd9c339f65154b23d9524710ef6e8267886812e4beb7e30cbfa8",
      "networkId": 0,
      "chainId": 0
    }
  ]
}