{
  "hash": "0xddebae51701ff50822b16aa20801fccd3d0e35b0a821e9ae3a198ec75319013a",
  "parentHash": "0xd9be6026fc68b6c887a81e9e82cd477d14844e535ecfc6f88c032453cb7e7144",
  "number": 65072,
  "timestamp": 1439230756,
  "nonce": "0xf7487c33a192f8ec",
  "difficulty": 1930382829168,
  "gasLimit": {
    "_hex": "0x2fefd8"
  },
  "gasUsed": {
    "_hex": "0xa410"
  },
  "miner": "0x47ff6576639c2e94762eA5443978D7681C0E78DC",
  "extraData": "0x476574682f76312e302e312f6c696e75782f676f312e342e32",
  "transactions": [
    {
      "hash": "0xb95b56122acfb177a03741477b25614d78b5bbfb62786c1c0f4f41528afc3f52",
      "blockHash": "0xddebae51701ff50822b16aa20801fccd3d0e35b0a821e9ae3a198ec75319013a",
      "blockNumber": 65072,
      "transactionIndex": 0,
      "confirmations": null,
      "from": "0xa35BFd21Ed7630EAF5a59CEC266842bF4949770a",
      "gasPrice": {
        "_hex": "0xba43b7400"
      },
      "gasLimit": {
        "_hex": "0x5208"
      },
      "to": "0xa36C9283059BE6c19E1338b1963559c3D3A075B0",
      "value": {
        "_hex": "0x419d7afa790a000"
      },
      "nonce": 1,
      "data": "0x",
      "r": "0x24a5ab73a21bc26859689e0bba7571f66c47eceb2ad72dbebf5dd23f29a0dd02",
      "s": "0x239c0e24ceec4c5ca769691725cb286a6ff9f7516f5957307ea800d264a0f5e3",
      "v": 27,
      "creates": null,
      "raw": "0xf86c01850ba43b740082520894a36c9283059be6c19e1338b1963559c3d3a075b0880419d7afa790a000801ba024a5ab73a21bc26859689e0bba7571f66c47eceb2ad72dbebf5dd23f29a0dd02a0239c0e24ceec4c5ca769691725cb286a6ff9f7516f5957307ea800d264a0f5e3",
      "networkId": 0,
      "chainId": 0
    },
    {
      "hash": "0x25c29c5479ac14ff1c6d39d39b96e30ab2630a4bae4984269f278b53df1b423a",
      "blockHash": "0xddebae51701ff50822b16aa20801fccd3d0e35b0a821e9ae3a198ec75319013a",
      "blockNumber": 65072,
      "transactionIndex": 1,
      "confirmations": null,
      "from": "0xa663b8C11a69AF9D8B102947153c79B178211881",
      "gasPrice": {
        "_hex": "0xba43b7400"
      },
      "gasLimit": {
        "_hex": "0x5208"
      },
      "to": "0x0D3690Ac9557c2A908597b4b233457c0Cd9f9987",
      "value": {
        "_hex": "0x3bd4afc414ee000"
      },
      "nonce": 1,
      "data": "0x",
      "r": "0x0530979a3a94903e13773e1d1c9b59115a38e9c67e0748a8b803550ceebf07e8",
      "s": "0x478831d9cc609d90556a314004bbb2dd5870eb2080f18f038094ceda1b8e4686",
      "v": 28,
      "creates": null,
      "raw": "0xf86c01850ba43b7400825208940d3690ac9557c2a908597b4b233457c0cd9f99878803bd4afc414ee000801ca00530979a3a94903e13773e1d1c9b59115a38e9c67e0748a8b803550ceebf07e8a0478831d9cc609d90556a314004bbb2dd5870eb2080f18f038094ceda1b8e4686",
      "networkId": 0,
      "chainId": 0
    }
  ]
}