{
  "hash": "0x7411df4565c78b724fec9da2a4969978019254b7e5ddb2a03b0fa6eec676a60d",
  "parentHash": "0x398ad98c47ff6ba8a89709b40ccacf6a6642470ed0a956e5034d78357f3b97db",
  "number": 48980,
  "timestamp": 1438965936,
  "nonce": "0x66ccac9e0a3f2225",
  "difficulty": 1484366672387,
  "gasLimit": {
    "_hex": "0x228e4"
  },
  "gasUsed": {
    "_hex": "0x546c"
  },
  "miner": "0xecAb9B89BbB858a7e3DDe3ed0b13946eDAEb5533",
  "extraData": "0x476574682f76312e302e312d38326566323666362f6c696e75782f676f312e34",
  "transactions": [
    {
      "hash": "0xa38c0e5205fbb595b1ba1d090ae461242f42039029100ef920f4b4b25406d4ea",
      "blockHash": "0x7411df4565c78b724fec9da2a4969978019254b7e5ddb2a03b0fa6eec676a60d",
      "blockNumber": 48980,
      "transactionIndex": 0,
      "confirmations": null,
      "from": "0xd8aE46Ba60513f7811Dcd26882405F6Be01C730F",
      "gasPrice": {
        "_hex": "0xdf3ee33f8"
      },
      "gasLimit": {
        "_hex": "0x61a8"
      },
      "to": "0x2910543Af39abA0Cd09dBb2D50200b3E800A63D2",
      "value": {
        "_hex": "0xd8d77be06cdab12c0"
      },
      "nonce": 1,
      "data": "0x454e42504251334e47",
      "r": "0x15314203dc6afd3d4729db41c7476f6b677bc5ff6ee90f2ea0cf1bb72abe51ba",
      "s": "0x69bc6227d74ab7d5242665b5997872c95af6f06d0c2c6feac897f6843411d1e6",
      "v": 28,
      "creates": null,
      "raw": "0xf87601850df3ee33f88261a8942910543af39aba0cd09dbb2d50200b3e800a63d2890d8d77be06cdab12c089454e42504251334e471ca015314203dc6afd3d4729db41c7476f6b677bc5ff6ee90f2ea0cf1bb72abe51baa069bc6227d74ab7d5242665b5997872c95af6f06d0c2c6feac897f6843411d1e6",
      "networkId": 0,
      "chainId": 0
    }
  ]
}