{
  "hash": "0x23e25cab74fdac7c56f623395088b431365c40059fa4d3082c49662330153b58",
  "parentHash": "0x58b865d651beffd04e11447d17f9a222afdbb7e8ea08def2ec8b9b87166ba94e",
  "number": 122385,
  "timestamp": 1440193476,
  "nonce": "0xc1881bcb5f02015b",
  "difficulty": 4481721600477,
  "gasLimit": {
    "_hex": "0x2fefd8"
  },
  "gasUsed": {
    "_hex": "0xa410"
  },
  "miner": "0x88D74a59454F6cF3B51ef6b9136AFb6b9D405A88",
  "extraData": "0x",
  "transactions": [
    {
      "hash": "0xdd140d866a5838f52c21d35a531caae48d0b94e6228dd65f884f6aed184bde90",
      "blockHash": "0x23e25cab74fdac7c56f623395088b431365c40059fa4d3082c49662330153b58",
      "blockNumber": 122385,
      "transactionIndex": 0,
      "confirmations": null,
      "from": "0x32Be343B94f860124dC4fEe278FDCBD38C102D88",
      "gasPrice": {
        "_hex": "0xd33b1a374"
      },
      "gasLimit": {
        "_hex": "0x5208"
      },
      "to": "0xFFf1471A813EaF20Ade11C3d58E3a64157216587",
      "value": {
        "_hex": "0x451c839d65720000"
      },
      "nonce": 1605,
      "data": "0x",
      "r": "0xe2a1777a19a39cbabded14c70fca36e855976647ee2ed054870885fb511873d8",
      "s": "0x2e9978c97c36f0aa3f7d32cabd26e5484621f4b12db1ca6e1dd2d8dca5046957",
      "v": 28,
      "creates": null,
      "raw": "0xf86e820645850d33b1a37482520894fff1471a813eaf20ade11c3d58e3a6415721658788451c839d65720000801ca0e2a1777a19a39cbabded14c70fca36e855976647ee2ed054870885fb511873d8a02e9978c97c36f0aa3f7d32cabd26e5484621f4b12db1ca6e1dd2d8dca5046957",
      "networkId": 0,
      "chainId": 0
    },
    {
      "hash": "0xf4fc1a5408c08c3e8b876d54fdf2354e95ec30d77b70ff36f777928b7bf58b4c",
      "blockHash": "0x23e25cab74fdac7c56f623395088b431365c40059fa4d3082c49662330153b58",
      "blockNumber": 122385,
      "transactionIndex": 1,
      "confirmations": null,
      "from": "0x32Be343B94f860124dC4fEe278FDCBD38C102D88",
      "gasPrice": {
        "_hex": "0xd33b1a374"
      },
      "gasLimit": {
        "_hex": "0x5208"
      },
      "to": "0xee8bB0274117C9A1D3695E19bea188c382EC1A8E",
      "value": {
        "_hex": "0x821878651a4d70000"
      },
      "nonce": 1606,
      "data": "0x",
      "r": "0xa761e182c7c4912a8ce9e8e5f0c14c3f46909dffede0c710c12eda016bbb8eef",
      "s": "0x519411c719c2f61259ab41010d9a02cb30d3f1282a3662781c607cc7ee342d4a",
      "v": 27,
      "creates": null,
      "raw": "0xf86f820646850d33b1a37482520894ee8bb0274117c9a1d3695e19bea188c382ec1a8e890821878651a4d70000801ba0a761e182c7c4912a8ce9e8e5f0c14c3f46909dffede0c710c12eda016bbb8eefa0519411c719c2f61259ab41010d9a02cb30d3f1282a3662781c607cc7ee342d4a",
      "networkId": 0,
      "chainId": 0
    }
  ]
}