{
  "hash": "0xee0e4b430fd812006dac5d465bc23461e53b34302013d316d83e46aa7d1e949c",
  "parentHash": "0x676d1b9fb791a0ff1b9b498554aabd34b3d2db8d556cbd13e4b9bbc1d5245123",
  "number": 88312,
  "timestamp": 1439606188,
  "nonce": "0xcacb31e491887c9e",
  "difficulty": 3195628856550,
  "gasLimit": {
    "_hex": "0x2fefd8"
  },
  "gasUsed": {
    "_hex": "0x5c58"
  },
  "miner": "0xe6A7a1d47ff21B6321162AEA7C6CB457D5476Bca",
  "extraData": "0x476574682f76312e302e312d38326566323666362f6c696e75782f676f312e34",
  "transactions": [
    {
      "hash": "0xe57c4338611f116c69aa00a114b0deefa5a5ddd2e9da93345c1b6a5d5e62327c",
      "blockHash": "0xee0e4b430fd812006dac5d465bc23461e53b34302013d316d83e46aa7d1e949c",
      "blockNumber": 88312,
      "transactionIndex": 0,
      "confirmations": null,
      "from": "0xf2Ae859397af92154241eAd0aC7c4ce3bea76E8F",
      "gasPrice": {
        "_hex": "0xdda86038c"
      },
      "gasLimit": {
        "_hex": "0x15f90"
      },
      "to": "0x0000000000000000000000000000000000000000",
      "value": {
        "_hex": "0x0"
      },
      "nonce": 11,
      "data": "0xbe99a980637970657278636f696e00000000000000000000000000000000000000000000000000000000000000000000f2ae859397af92154241ead0ac7c4ce3bea76e8f0000000000000000000000000000000000000000000000000000000000000001",
      "r": "0x10868ab1ecf7fd3dfb98e87fb386a2d8bab84c4581d5728c783932e4367d62e4",
      "s": "0x667ba19e612392382323a1d6809463bb9095ce49635a0236b20267c0501e5a71",
      "v": 28,
      "creates": null,
      "raw": "0xf8ca0b850dda86038c83015f9094000000000000000000000000000000000000000080b864be99a980637970657278636f696e00000000000000000000000000000000000000000000000000000000000000000000f2ae859397af92154241ead0ac7c4ce3bea76e8f00000000000000000000000000000000000000000000000000000000000000011ca010868ab1ecf7fd3dfb98e87fb386a2d8bab84c4581d5728c783932e4367d62e4a0667ba19e612392382323a1d6809463bb9095ce49635a0236b20267c0501e5a71",
      "networkId": 0,
      "chainId": 0
    }
  ]
}