{
  "hash": "0xd8cfc68e7c7ce313fb7db3ab1b0c153a054533406b13e2d6fb254fa6f43da157",
  "parentHash": "0x1a6fa47540a48b871d085ffbc2aece7e2c577767225e985b512ad1fb054830a3",
  "number": 80061,
  "timestamp": 1439479521,
  "nonce": "0xc81c5c5a03c05929",
  "difficulty": 2348285374409,
  "gasLimit": {
    "_hex": "0x2fefd8"
  },
  "gasUsed": {
    "_hex": "0x5208"
  },
  "miner": "0xe6A7a1d47ff21B6321162AEA7C6CB457D5476Bca",
  "extraData": "0x476574682f76312e302e312d38326566323666362f6c696e75782f676f312e34",
  "transactions": [
    {
      "hash": "0x79ff419000e54890ff4beef5fb25b522f0274b09dfe15be661c3591c71ce5dfa",
      "blockHash": "0xd8cfc68e7c7ce313fb7db3ab1b0c153a054533406b13e2d6fb254fa6f43da157",
      "blockNumber": 80061,
      "transactionIndex": 0,
      "confirmations": null,
      "from": "0x32Be343B94f860124dC4fEe278FDCBD38C102D88",
      "gasPrice": {
        "_hex": "0xcd90c0d76"
      },
      "gasLimit": {
        "_hex": "0x5208"
      },
      "to": "0xA0eadCdC3d2cc51DaA7Ef7e65370D2d46Ca9e6D9",
      "value": {
        "_hex": "0x2b45ce2abe43d0000"
      },
      "nonce": 508,
      "data": "0x",
      "r": "0xd83caadd1223d039cc64e85c9c0c8dcf2a367f582b6c255792c3ab51982c728c",
      "s": "0x160748114d2970ed64bf9826b0a513094d76f8e3f63c4ff3e7340da936dd7d98",
      "v": 28,
      "creates": null,
      "raw": "0xf86f8201fc850cd90c0d7682520894a0eadcdc3d2cc51daa7ef7e65370d2d46ca9e6d98902b45ce2abe43d0000801ca0d83caadd1223d039cc64e85c9c0c8dcf2a367f582b6c255792c3ab51982c728ca0160748114d2970ed64bf9826b0a513094d76f8e3f63c4ff3e7340da936dd7d98",
      "networkId": 0,
      "chainId": 0
    }
  ]
}