{
  "hash": "0x4788267ae007fd7344354ff5c9476427f2306378572780cbc2edce91db8ffc6d",
  "parentHash": "0x9f9a164ec857887eed567111cf8933be66359fd77a02b36920e8f7082fb6b527",
  "number": 121436,
  "timestamp": 1440177078,
  "nonce": "0x74e85a72a5f27bd1",
  "difficulty": 4432172713851,
  "gasLimit": {
    "_hex": "0x2fefd8"
  },
  "gasUsed": {
    "_hex": "0x5208"
  },
  "miner": "0x580992B51e3925e23280EfB93d3047C82f17E038",
  "extraData": "0x",
  "transactions": [
    {
      "hash": "0xf635e08c33ba486c0334cd5612fdd565ccdd02dfb17359621f7249e5d35d34ce",
      "blockHash": "0x4788267ae007fd7344354ff5c9476427f2306378572780cbc2edce91db8ffc6d",
      "blockNumber": 121436,
      "transactionIndex": 0,
      "confirmations": null,
      "from": "0x120A270bbC009644e35F0bB6ab13f95b8199c4ad",
      "gasPrice": {
        "_hex": "0xba43b7400"
      },
      "gasLimit": {
        "_hex": "0x3d090"
      },
      "to": "0xa0ABD8cb7E3D1e45836Ba2216D1df2A4d24B0a8C",
      "value": {
        "_hex": "0xa48a97e9ef0c800"
      },
      "nonce": 975,
      "data": "0x",
      "r": "0xba58c946055c818701f853afdd661685be2adeb43f8dfb6f1ec9a766d51f2ac6",
      "s": "0x2312c4e1787d1e03212f1361e26d72e06bc052ab051551f447e1e46bbdaae2f8",
      "v": 28,
      "creates": null,
      "raw": "0xf86f8203cf850ba43b74008303d09094a0abd8cb7e3d1e45836ba2216d1df2a4d24b0a8c880a48a97e9ef0c800801ca0ba58c946055c818701f853afdd661685be2adeb43f8dfb6f1ec9a766d51f2ac6a02312c4e1787d1e03212f1361e26d72e06bc052ab051551f447e1e46bbdaae2f8",
      "networkId": 0,
      "chainId": 0
    }
  ]
}