{
  "hash": "0x39801182333e0bb6f2fd6d9dbd0a0279ccf892451e07278cc7d545e21698adb7",
  "parentHash": "0x2d1aa074892ad91e5d5295b3c660ed32156e338afd580ccc7e55aa4c4799255e",
  "number": 79106,
  "timestamp": 1439464516,
  "nonce": "0xccbc4101c0fa730d",
  "difficulty": 2315531200456,
  "gasLimit": {
    "_hex": "0x2fefd8"
  },
  "gasUsed": {
    "_hex": "0x52080"
  },
  "miner": "0xf927a40C8B7F6E07c5af7FA2155B4864a4112B13",
  "extraData": "0x",
  "transactions": [
    {
      "hash": "0x1683120486ecd52562ad677eb29cd851d53b688f5e78c908747a6000dd3bf16a",
      "blockHash": "0x39801182333e0bb6f2fd6d9dbd0a0279ccf892451e07278cc7d545e21698adb7",
      "blockNumber": 79106,
      "transactionIndex": 0,
      "confirmations": null,
      "from": "0x6934e4839d59dEa0583b03643eCb8c10d6B150fc",
      "gasPrice": {
        "_hex": "0xd27c3dc42"
      },
      "gasLimit": {
        "_hex": "0x5208"
      },
      "to": "0x32Be343B94f860124dC4fEe278FDCBD38C102D88",
      "value": {
        "_hex": "0x9c688ab595b44800"
      },
      "nonce": 1,
      "data": "0x",
      "r": "0xe55cc61904936fd5f8c361b69ab103a3d4df3df7fea6f953ef34599f4478df74",
      "s": "0x73ef956077b422670bb9d9ed1eb5a89db4d2df408d8abbeabb47c64b969f1e2b",
      "v": 28,
      "creates": null,
      "raw": "0xf86c01850d27c3dc428252089432be343b94f860124dc4fee278fdcbd38c102d88889c688ab595b44800801ca0e55cc61904936fd5f8c361b69ab103a3d4df3df7fea6f953ef34599f4478df74a073ef956077b422670bb9d9ed1eb5a89db4d2df408d8abbeabb47c64b969f1e2b",
      "networkId": 0,
      "chainId": 0
    },
    {
      "hash": "0x33e7b453f7b7a2aa8d64dded6e205192befcd951bcfedd26e5c7b1366fe35b9f",
      "blockHash": "0x39801182333e0bb6f2fd6d9dbd0a0279ccf892451e07278cc7d545e21698adb7",
      "blockNumber": 79106,
      "transactionIndex": 1,
      "confirmations": null,
      "from": "0xAD8c7FBFaBC46C35aDb03F7b3A67e731E5793899",
      "gasPrice": {
        "_hex": "0xd27c3dc42"
      },
      "gasLimit": {
        "_hex": "0x5208"
      },
      "to": "0x32Be343B94f860124dC4fEe278FDCBD38C102D88",
      "value": {
        "_hex": "0x66164dd554a8b800"
      },
      "nonce": 4,
      "data": "0x",
      "r": "0x78c9a0fa6d9fefce2bc696061d4a693fdbef8bad9011f7863849f4e6c1369773",
      "s": "0x440ec5588811355095e59e57039c8ce51364499c045e89675b063ac4defbc79a",
      "v": 28,
      "creates": null,
      "raw": "0xf86c04850d27c3dc428252089432be343b94f860124dc4fee278fdcbd38c102d888866164dd554a8b800801ca078c9a0fa6d9fefce2bc696061d4a693fdbef8bad9011f7863849f4e6c1369773a0440ec5588811355095e59e57039c8ce51364499c045e89675b063ac4defbc79a",
      "networkId": 0,
      "chainId": 0
    },
    {
      "hash": "0xd5d5cc72e20ee8d7523587bdc3bb0162a184d16d26fb54525d3f2d16c9e1ec39",
      "blockHash": "0x39801182333e0bb6f2fd6d9dbd0a0279ccf892451e07278cc7d545e21698adb7",
      "blockNumber": 79106,
      "transactionIndex": 2,
      "confirmations": null,
      "from": "0x1c69e6202df7794272b70FaEa8f7408c856B1f08",
      "gasPrice": {
        "_hex": "0xd27c3dc42"
      },
      "gasLimit": {
        "_hex": "0x5208"
      },
      "to": "0x32Be343B94f860124dC4fEe278FDCBD38C102D88",
      "value": {
        "_hex": "0x55b7a2117f8cc400"
      },
      "nonce": 3,
      "data": "0x",
      "r": "0xf8d7509eda1e65f54ebfeb92f1a7aff522f516134ea493d8880cf6bdbf5b2b43",
      "s": "0x144819ec202f3674a5cc14c75fa0c198520d34c86a31b4f782b46747a19b05d1",
      "v": 27,
      "creates": null,
      "raw": "0xf86c03850d27c3dc428252089432be343b94f860124dc4fee278fdcbd38c102d888855b7a2117f8cc400801ba0f8d7509eda1e65f54ebfeb92f1a7aff522f516134ea493d8880cf6bdbf5b2b43a0144819ec202f3674a5cc14c75fa0c198520d34c86a31b4f782b46747a19b05d1",
      "networkId": 0,
      "chainId": 0
    },
    {
      "hash": "0xa4c54e39cb3e7efa6b2bccb16ce54b4bc10e0720c6c28bae64f4475720a0c06a",
      "blockHash": "0x39801182333e0bb6f2fd6d9dbd0a0279ccf892451e07278cc7d545e21698adb7",
      "blockNumber": 79106,
      "transactionIndex": 3,
      "confirmations": null,
      "from": "0xB89C0F465b0472fa5A58eCDd01eD937205ae4d06",
      "gasPrice": {
        "_hex": "0xd27c3dc42"
      },
      "gasLimit": {
        "_hex": "0x5208"
      },
      "to": "0x32Be343B94f860124dC4fEe278FDCBD38C102D88",
      "value": {
        "_hex": "0x558ab0632c370800"
      },
      "nonce": 2,
      "data": "0x",
      "r": "0xd2ebe97b61352f8520629e4b352a1e10222cc0eea1ade773ef372c31ab100d52",
      "s": "0x43d090b079edd9fd548195858c1f3dc913ebbf70cc3551ff593f0077c28d94a0",
      "v": 28,
      "creates": null,
      "raw": "0xf86c02850d27c3dc428252089432be343b94f860124dc4fee278fdcbd38c102d8888558ab0632c370800801ca0d2ebe97b61352f8520629e4b352a1e10222cc0eea1ade773ef372c31ab100d52a043d090b079edd9fd548195858c1f3dc913ebbf70cc3551ff593f0077c28d94a0",
      "networkId": 0,
      "chainId": 0
    },
    {
      "hash": "0x3aec6850f798740e71b70a0e6c9809987598fda79294f9f6119c770dd0d79820",
      "blockHash": "0x39801182333e0bb6f2fd6d9dbd0a0279ccf892451e07278cc7d545e21698adb7",
      "blockNumber": 79106,
      "transactionIndex": 4,
      "confirmations": null,
      "from": "0xc544B25bb91b87e380dda392687c6216b0260671",
      "gasPrice": {
        "_hex": "0xd27c3dc42"
      },
      "gasLimit": {
        "_hex": "0x5208"
      },
      "to": "0x32Be343B94f860124dC4fEe278FDCBD38C102D88",
      "value": {
        "_hex": "0x401dd1b7c701c800"
      },
      "nonce": 4,
      "data": "0x",
      "r": "0xbd925b2a2ed1b5ef5ad46e532b1d19eacf039bf541c10ddb08ec91bc4f991dd7",
      "s": "0x51404d284d9c4824bd949a8a5f876890c4a0e1e0f2a76987c259e1e7c71d9a95",
      "v": 27,
      "creates": null,
      "raw": "0xf86c04850d27c3dc428252089432be343b94f860124dc4fee278fdcbd38c102d8888401dd1b7c701c800801ba0bd925b2a2ed1b5ef5ad46e532b1d19eacf039bf541c10ddb08ec91bc4f991dd7a051404d284d9c4824bd949a8a5f876890c4a0e1e0f2a76987c259e1e7c71d9a95",
      "networkId": 0,
      "chainId": 0
    },
    {
      "hash": "0xba757a3e19cbe6b2dbd96e728de199d32bdfc66ae72ddffda69222a1ed960006",
      "blockHash": "0x39801182333e0bb6f2fd6d9dbd0a0279ccf892451e07278cc7d545e21698adb7",
      "blockNumber": 79106,
      "transactionIndex": 5,
      "confirmations": null,
      "from": "0xbb30e448B72d6Fdd44973A4C7a312F92f22C8F07",
      "gasPrice": {
        "_hex": "0xd27c3dc42"
      },
      "gasLimit": {
        "_hex": "0x5208"
      },
      "to": "0x32Be343B94f860124dC4fEe278FDCBD38C102D88",
      "value": {
        "_hex": "0x3ae712a8cb9f4400"
      },
      "nonce": 7,
      "data": "0x",
      "r": "0xf8432d554513ab9853bd7ab6e03812b02345480887870fc532421422f92cf58b",
      "s": "0x4716909b70253b879db6656e4d2c59628347851c21a58da1e030eb1eaf12d3c4",
      "v": 27,
      "creates": null,
      "raw": "0xf86c07850d27c3dc428252089432be343b94f860124dc4fee278fdcbd38c102d88883ae712a8cb9f4400801ba0f8432d554513ab9853bd7ab6e03812b02345480887870fc532421422f92cf58ba04716909b70253b879db6656e4d2c59628347851c21a58da1e030eb1eaf12d3c4",
      "networkId": 0,
      "chainId": 0
    },
    {
      "hash": "0x4c01c587d49288a223221a6846910c8ea83d4a6ebc1ca8506fbe71d5293f41f8",
      "blockHash": "0x39801182333e0bb6f2fd6d9dbd0a0279ccf892451e07278cc7d545e21698adb7",
      "blockNumber": 79106,
      "transactionIndex": 6,
      "confirmations": null,
      "from": "0x3175a28CF6105466923f11bFFabD279F162aa2f8",
      "gasPrice": {
        "_hex": "0xd27c3dc42"
      },
      "gasLimit": {
        "_hex": "0x5208"
      },
      "to": "0x32Be343B94f860124dC4fEe278FDCBD38C102D88",
      "value": {
        "_hex": "0xa39c1b6620cc7000"
      },
      "nonce": 7,
      "data": "0x",
      "r": "0xbb0bccd646c27478bbb4fddab858e1e01d40025f07b2e605d187bc5304e5497f",
      "s": "0x410b6a47ca969a6f474b35ce1054fe4abbf4ea7f4e44e2bff05c9d65dd958f26",
      "v": 27,
      "creates": null,
      "raw": "0xf86c07850d27c3dc428252089432be343b94f860124dc4fee278fdcbd38c102d8888a39c1b6620cc7000801ba0bb0bccd646c27478bbb4fddab858e1e01d40025f07b2e605d187bc5304e5497fa0410b6a47ca969a6f474b35ce1054fe4abbf4ea7f4e44e2bff05c9d65dd958f26",
      "networkId": 0,
      "chainId": 0
    },
    {
      "hash": "0x5eda40fd2fe4d7efa3e2967be120e00464ab883204a7424e6537ac7d44ca1362",
      "blockHash": "0x39801182333e0bb6f2fd6d9dbd0a0279ccf892451e07278cc7d545e21698adb7",
      "blockNumber": 79106,
      "transactionIndex": 7,
      "confirmations": null,
      "from": "0xCadcea36EC3feB740167E4370777fab1549F8759",
      "gasPrice": {
        "_hex": "0xd27c3dc42"
      },
      "gasLimit": {
        "_hex": "0x5208"
      },
      "to": "0x32Be343B94f860124dC4fEe278FDCBD38C102D88",
      "value": {
        "_hex": "0x4f049380baaac400"
      },
      "nonce": 3,
      "data": "0x",
      "r": "0xd939a949511147d06170145f278a1b3b878d21d42f209a477039f41fbc891d47",
      "s": "0x2b4369b485ac11b036e9c2bbc8ff450895b6df5e96d339336075a0e84aff0471",
      "v": 28,
      "creates": null,
      "raw": "0xf86c03850d27c3dc428252089432be343b94f860124dc4fee278fdcbd38c102d88884f049380baaac400801ca0d939a949511147d06170145f278a1b3b878d21d42f209a477039f41fbc891d47a02b4369b485ac11b036e9c2bbc8ff450895b6df5e96d339336075a0e84aff0471",
      "networkId": 0,
      "chainId": 0
    },
    {
      "hash": "0xc8775dc88e22cbba7a82aa1ed103dfdef1ce08e684d5300ad9659f7c129bc429",
      "blockHash": "0x39801182333e0bb6f2fd6d9dbd0a0279ccf892451e07278cc7d545e21698adb7",
      "blockNumber": 79106,
      "transactionIndex": 8,
      "confirmations": null,
      "from": "0xD924AAC0bCB65C13bE4044f6BeA8aAe34D7a7126",
      "gasPrice": {
        "_hex": "0xd27c3dc42"
      },
      "gasLimit": {
        "_hex": "0x5208"
      },
      "to": "0x32Be343B94f860124dC4fEe278FDCBD38C102D88",
      "value": {
        "_hex": "0x93bccb209539e000"
      },
      "nonce": 3,
      "data": "0x",
      "r": "0x478ee8563e68cd7b671f5c7e062c7679a2afbb42c991a64bec8763f469a8507d",
      "s": "0x6ee127fd071e2d14b28b0632c731b08282bf1691b2ecd1f5f6b4cbac1c8b0796",
      "v": 27,
      "creates": null,
      "raw": "0xf86c03850d27c3dc428252089432be343b94f860124dc4fee278fdcbd38c102d888893bccb209539e000801ba0478ee8563e68cd7b671f5c7e062c7679a2afbb42c991a64bec8763f469a8507da06ee127fd071e2d14b28b0632c731b08282bf1691b2ecd1f5f6b4cbac1c8b0796",
      "networkId": 0,
      "chainId": 0
    },
    {
      "hash": "0x1cf05385a81f62363f620347f79a4eaef024bf7592ad7e4da0cc73b3581609d3",
      "blockHash": "0x39801182333e0bb6f2fd6d9dbd0a0279ccf892451e07278cc7d545e21698adb7",
      "blockNumber": 79106,
      "transactionIndex": 9,
      "confirmations": null,
      "from": "0x59C62d3D43f9EA1c4118d98c188AA5d028b8bB8E",
      "gasPrice": {
        "_hex": "0xd27c3dc42"
      },
      "gasLimit": {
        "_hex": "0x5208"
      },
      "to": "0x32Be343B94f860124dC4fEe278FDCBD38C102D88",
      "value": {
        "_hex": "0x4df80b667f990c00"
      },
      "nonce": 2,
      "data": "0x",
      "r": "0xac47d21a0a4b954efdc34dff80dcf015a678d5fe1a801f8237c3644667a370fc",
      "s": "0x053d5ab8b3d6d068243f1fddb7fddf3aef5a48e370e102be8c5b7b6f5af3501e",
      "v": 27,
      "creates": null,
      "raw": "0xf86c02850d27c3dc428252089432be343b94f860124dc4fee278fdcbd38c102d88884df80b667f990c00801ba0ac47d21a0a4b954efdc34dff80dcf015a678d5fe1a801f8237c3644667a370fca0053d5ab8b3d6d068243f1fddb7fddf3aef5a48e370e102be8c5b7b6f5af3501e",
      "networkId": 0,
      "chainId": 0
    },
    {
      "hash": "0x3cab43347f76a74123c6fca35d26d1759e3a6d3b1d713fc89ceef7efc46c9673",
      "blockHash": "0x39801182333e0bb6f2fd6d9dbd0a0279ccf892451e07278cc7d545e21698adb7",
      "blockNumber": 79106,
      "transactionIndex": 10,
      "confirmations": null,
      "from": "0x6c716b5177cC5c983057af4D88F7152ebA2CC0a6",
      "gasPrice": {
        "_hex": "0xd27c3dc42"
      },
      "gasLimit": {
        "_hex": "0x5208"
      },
      "to": "0x32Be343B94f860124dC4fEe278FDCBD38C102D88",
      "value": {
        "_hex": "0x5d67b4ae92480c00"
      },
      "nonce": 5,
      "data": "0x",
      "r": "0xb2aa32f3fde029112d1897d4d1c5b15b3250782cb7fe79911b1cd815ce46e8e6",
      "s": "0x181160cd9b1f19317f217c61ba0a02aefb00978d8bb632ed70c08b95c85a6795",
      "v": 27,
      "creates": null,
      "raw": "0xf86c05850d27c3dc428252089432be343b94f860124dc4fee278fdcbd38c102d88885d67b4ae92480c00801ba0b2aa32f3fde029112d1897d4d1c5b15b3250782cb7fe79911b1cd815ce46e8e6a0181160cd9b1f19317f217c61ba0a02aefb00978d8bb632ed70c08b95c85a6795",
      "networkId": 0,
      "chainId": 0
    },
    {
      "hash": "0x15b09309127e0990957e2563f6777ea0a3903e2a9e4d98dac15a9bdb6e6d715a",
      "blockHash": "0x39801182333e0bb6f2fd6d9dbd0a0279ccf892451e07278cc7d545e21698adb7",
      "blockNumber": 79106,
      "transactionIndex": 11,
      "confirmations": null,
      "from": "0xd223eD5b348a82910987CbBc7875a7AE62E1Ba53",
      "gasPrice": {
        "_hex": "0xd27c3dc42"
      },
      "gasLimit": {
        "_hex": "0x5208"
      },
      "to": "0x32Be343B94f860124dC4fEe278FDCBD38C102D88",
      "value": {
        "_hex": "0x27ac0bfbe62fa000"
      },
      "nonce": 3,
      "data": "0x",
      "r": "0x7fc8a9ddd992da89badc61495da1647e9f19ac2fc14f972e3959dda5046e3f78",
      "s": "0x1f8c482fbdcb50ed807ad36c7674448a853cd1c3583bcd723b2b701cec51d170",
      "v": 27,
      "creates": null,
      "raw": "0xf86c03850d27c3dc428252089432be343b94f860124dc4fee278fdcbd38c102d888827ac0bfbe62fa000801ba07fc8a9ddd992da89badc61495da1647e9f19ac2fc14f972e3959dda5046e3f78a01f8c482fbdcb50ed807ad36c7674448a853cd1c3583bcd723b2b701cec51d170",
      "networkId": 0,
      "chainId": 0
    },
    {
      "hash": "0x4934d5efe25e11486da6acbae90bf23ac5211926adc85efb85b701d553e77536",
      "blockHash": "0x39801182333e0bb6f2fd6d9dbd0a0279ccf892451e07278cc7d545e21698adb7",
      "blockNumber": 79106,
      "transactionIndex": 12,
      "confirmations": null,
      "from": "0x06BcFDb20583cc822f2031724E36F3678BBCa6E9",
      "gasPrice": {
        "_hex": "0xd27c3dc42"
      },
      "gasLimit": {
        "_hex": "0x5208"
      },
      "to": "0x32Be343B94f860124dC4fEe278FDCBD38C102D88",
      "value": {
        "_hex": "0x76fd65d26b3d2800"
      },
      "nonce": 1,
      "data": "0x",
      "r": "0x7b90e6a18ee97c358a677807fd22148888cb5909a83bc65d769f92bcc4352ab9",
      "s": "0x6f3eefd5cb9f717a02b6de8d9b0bb5f5f998127493828926c072ea9378339a42",
      "v": 28,
      "creates": null,
      "raw": "0xf86c01850d27c3dc428252089432be343b94f860124dc4fee278fdcbd38c102d888876fd65d26b3d2800801ca07b90e6a18ee97c358a677807fd22148888cb5909a83bc65d769f92bcc4352ab9a06f3eefd5cb9f717a02b6de8d9b0bb5f5f998127493828926c072ea9378339a42",
      "networkId": 0,
      "chainId": 0
    },
    {
      "hash": "0x538eb827fab465f23c48803e2414f6368af682410f2a25571fc4ab2536bfd389",
      "blockHash": "0x39801182333e0bb6f2fd6d9dbd0a0279ccf892451e07278cc7d545e21698adb7",
      "blockNumber": 79106,
      "transactionIndex": 13,
      "confirmations": null,
      "from": "0x120A270bbC009644e35F0bB6ab13f95b8199c4ad",
      "gasPrice": {
        "_hex": "0xd0bc2ab7b"
      },
      "gasLimit": {
        "_hex": "0x3d090"
      },
      "to": "0xEB3090f39ca19EB8F97B5969e1F9b7Cd524fFdb7",
      "value": {
        "_hex": "0x21a4fd77f7d194d400"
      },
      "nonce": 330,
      "data": "0x",
      "r": "0x21639f3fe565d959e383abb77950f1055cd18187c0a718bef7bd1ec5daae0fca",
      "s": "0x0518c134e5d684627bd18edbe82849af7b896dd4b34b078347c068184345f936",
      "v": 27,
      "creates": null,
      "raw": "0xf87082014a850d0bc2ab7b8303d09094eb3090f39ca19eb8f97b5969e1f9b7cd524ffdb78921a4fd77f7d194d400801ba021639f3fe565d959e383abb77950f1055cd18187c0a718bef7bd1ec5daae0fcaa00518c134e5d684627bd18edbe82849af7b896dd4b34b078347c068184345f936",
      "networkId": 0,
      "chainId": 0
    },
    {
      "hash": "0xc9233339b8ae1b8f1d48de7994ccc34812efcdfee640644fe63cd45f271ade2f",
      "blockHash": "0x39801182333e0bb6f2fd6d9dbd0a0279ccf892451e07278cc7d545e21698adb7",
      "blockNumber": 79106,
      "transactionIndex": 14,
      "confirmations": null,
      "from": "0xe6A7a1d47ff21B6321162AEA7C6CB457D5476Bca",
      "gasPrice": {
        "_hex": "0xd00bef1ee"
      },
      "gasLimit": {
        "_hex": "0x55f0"
      },
      "to": "0x65B2003cE03eDcF961C6b724862D6a7f942B8971",
      "value": {
        "_hex": "0x1e027a8a7676601a0"
      },
      "nonce": 1340,
      "data": "0x",
      "r": "0x437449269c18f8ad719fc265305c2e1ab4b920c6c35a53c5c73a0e2c9ebdc623",
      "s": "0x45a7bb18e311076f09e4c9bef1d5ec740f90099a1125b66b00d7bfc3456057a4",
      "v": 28,
      "creates": null,
      "raw": "0xf86f82053c850d00bef1ee8255f09465b2003ce03edcf961c6b724862d6a7f942b89718901e027a8a7676601a0801ca0437449269c18f8ad719fc265305c2e1ab4b920c6c35a53c5c73a0e2c9ebdc623a045a7bb18e311076f09e4c9bef1d5ec740f90099a1125b66b00d7bfc3456057a4",
      "networkId": 0,
      "chainId": 0
    },
    {
      "hash": "0x14532bafee1f12aa927e8f33c486f311785e2e2f89a06af0aa6476966349e907",
      "blockHash": "0x39801182333e0bb6f2fd6d9dbd0a0279ccf892451e07278cc7d545e21698adb7",
      "blockNumber": 79106,
      "transactionIndex": 15,
      "confirmations": null,
      "from": "0xe6A7a1d47ff21B6321162AEA7C6CB457D5476Bca",
      "gasPrice": {
        "_hex": "0xcde539f1d"
      },
      "gasLimit": {
        "_hex": "0x55f0"
      },
      "to": "0xC99478b218E58F45783fA70f0507cf614938E67d",
      "value": {
        "_hex": "0x21e19b1ee7ca8be10"
      },
      "nonce": 1341,
      "data": "0x",
      "r": "0x95b25462976614bf871ab97b9f0db0345dc0b64237bc8edb5ee38c6ac953e4e2",
      "s": "0x05ea40ed731df14f080bb706eac8e3ac5097e0e9012674487949f24ced986051",
      "v": 27,
      "creates": null,
      "raw": "0xf86f82053d850cde539f1d8255f094c99478b218e58f45783fa70f0507cf614938e67d89021e19b1ee7ca8be10801ba095b25462976614bf871ab97b9f0db0345dc0b64237bc8edb5ee38c6ac953e4e2a005ea40ed731df14f080bb706eac8e3ac5097e0e9012674487949f24ced986051",
      "networkId": 0,
      "chainId": 0
    }
  ]
}