{
  "hash": "0xb0121a3e772aef50f9a21fe19067fbe6ae1fc0d49eb5902dd4f0e640187c2ef5",
  "parentHash": "0x52207eaf094969cf9f7f7b7e92132f574331491741716617d3599ddc77c1c088",
  "number": 108297,
  "timestamp": 1439937961,
  "nonce": "0x1de61be193ab7c85",
  "difficulty": 4351134765095,
  "gasLimit": {
    "_hex": "0x2fefd8"
  },
  "gasUsed": {
    "_hex": "0x5208"
  },
  "miner": "0xbb7B8287f3F0a933474a79eAe42CBCa977791171",
  "extraData": "0xd783010001844765746887676f312e342e32856c696e7578",
  "transactions": [
    {
      "hash": "0x76421f9cbf956da95bc94f4b4fbf70c21e0d64a7e3863c8782ec14be2cb24bcf",
      "blockHash": "0xb0121a3e772aef50f9a21fe19067fbe6ae1fc0d49eb5902dd4f0e640187c2ef5",
      "blockNumber": 108297,
      "transactionIndex": 0,
      "confirmations": null,
      "from": "0xE4Dd37247830493DE1Df7c758DD746DCdE19419e",
      "gasPrice": {
        "_hex": "0xd23ee12e2"
      },
      "gasLimit": {
        "_hex": "0x7530"
      },
      "to": "0x6De181Fc4C140FA31F196e5393516c49EEeBdAd3",
      "value": {
        "_hex": "0x46a3500832bd0000"
      },
      "nonce": 9,
      "data": "0x",
      "r": "0xee29c1ab780857c1f98a180beb8241c8345394c35b09006287c01f433a631d7a",
      "s": "0x225543d7087a727a661501fb7312908ed9984e3d51f19eb4b0288fe1f7f49d39",
      "v": 28,
      "creates": null,
      "raw": "0xf86c09850d23ee12e2827530946de181fc4c140fa31f196e5393516c49eeebdad38846a3500832bd0000801ca0ee29c1ab780857c1f98a180beb8241c8345394c35b09006287c01f433a631d7aa0225543d7087a727a661501fb7312908ed9984e3d51f19eb4b0288fe1f7f49d39",
      "networkId": 0,
      "chainId": 0
    }
  ]
}