{
  "hash": "0x007e1998d1242733ba40241c800f9bd828b037e8635ce650db5fbbaeb1de843a",
  "parentHash": "0x92677557e357c63bac9c1786b02d2b7d084564e3a6f600dbf34c83afdbd60931",
  "number": 113519,
  "timestamp": 1440025074,
  "nonce": "0x57fa0f3a6a64fc10",
  "difficulty": 4434192022924,
  "gasLimit": {
    "_hex": "0x2fefd8"
  },
  "gasUsed": {
    "_hex": "0x5208"
  },
  "miner": "0xe6A7a1d47ff21B6321162AEA7C6CB457D5476Bca",
  "extraData": "0x476574682f76312e302e312d38326566323666362f6c696e75782f676f312e34",
  "transactions": [
    {
      "hash": "0xe9a2a12e42d88f962c1bf6059537f5c62e322b356884d182fd5e0a6e00d0524f",
      "blockHash": "0x007e1998d1242733ba40241c800f9bd828b037e8635ce650db5fbbaeb1de843a",
      "blockNumber": 113519,
      "transactionIndex": 0,
      "confirmations": null,
      "from": "0x83fDfD476CAEa5d514b9545805C269fC2441B2Dd",
      "gasPrice": {
        "_hex": "0xcdf4ee0b2"
      },
      "gasLimit": {
        "_hex": "0x5208"
      },
      "to": "0x32Be343B94f860124dC4fEe278FDCBD38C102D88",
      "value": {
        "_hex": "0xdb90fd283018c00"
      },
      "nonce": 0,
      "data": "0x",
      "r": "0xc938b444df375326eb7b4913e0a00e5f06e24213dcd177e26b8ab2f602d3cb12",
      "s": "0x0b278fc165b296c6712ae6e8d3c0b3ba59805bd2250160e7605fd33d7f759e1c",
      "v": 27,
      "creates": null,
      "raw": "0xf86c80850cdf4ee0b28252089432be343b94f860124dc4fee278fdcbd38c102d88880db90fd283018c00801ba0c938b444df375326eb7b4913e0a00e5f06e24213dcd177e26b8ab2f602d3cb12a00b278fc165b296c6712ae6e8d3c0b3ba59805bd2250160e7605fd33d7f759e1c",
      "networkId": 0,
      "chainId": 0
    }
  ]
}