{
  "hash": "0x1edaa1275e6d32bd4e09549b3610dc6fbb8537094957d166926a9f46ec2fc1ff",
  "parentHash": "0x98e5f140d60017add188c225335513ac9d82b2029582c33407768bd56a97a220",
  "number": 70044,
  "timestamp": 1439313904,
  "nonce": "0x165b7d04d4f6ef20",
  "difficulty": 2108533803737,
  "gasLimit": {
    "_hex": "0x2fefd5"
  },
  "gasUsed": {
    "_hex": "0xa410"
  },
  "miner": "0x52Dc504a422f0E2A9e7632A34a50f1a82F8224c7",
  "extraData": "0x476574682f76312e302e312f6c696e75782f676f312e342e32",
  "transactions": [
    {
      "hash": "0x79dd63aa5d24e73284625d8d5196809d67a5237ad36abf0bbe3f0d3acd90f23a",
      "blockHash": "0x1edaa1275e6d32bd4e09549b3610dc6fbb8537094957d166926a9f46ec2fc1ff",
      "blockNumber": 70044,
      "transactionIndex": 0,
      "confirmations": null,
      "from": "0x2d3Cf607ADCE246F0750b08eBDC87789edb2a407",
      "gasPrice": {
        "_hex": "0x68c6171400"
      },
      "gasLimit": {
        "_hex": "0x55f0"
      },
      "to": "0x2aBD9e50d51e97aFc9a984f64657eD9539c59c91",
      "value": {
        "_hex": "0xde0b6b3a7640000"
      },
      "nonce": 0,
      "data": "0x",
      "r": "0x99c116bf720a8f0de2d25b1d44ac10f7ec3498af16537c71b44411082c8c481d",
      "s": "0x2010ff70287811680e412df41a7ecd755163e4f69017a66eb2e7204f84d831ad",
      "v": 27,
      "creates": null,
      "raw": "0xf86c808568c61714008255f0942abd9e50d51e97afc9a984f64657ed9539c59c91880de0b6b3a7640000801ba099c116bf720a8f0de2d25b1d44ac10f7ec3498af16537c71b44411082c8c481da02010ff70287811680e412df41a7ecd755163e4f69017a66eb2e7204f84d831ad",
      "networkId": 0,
      "chainId": 0
    },
    {
      "hash": "0x2a19b9217f9cfabbd02b0f74251b92af9de1d48200d5869ff87471e2896904b5",
      "blockHash": "0x1edaa1275e6d32bd4e09549b3610dc6fbb8537094957d166926a9f46ec2fc1ff",
      "blockNumber": 70044,
      "transactionIndex": 1,
      "confirmations": null,
      "from": "0xFD7c9117BbEB649d9b37B3D3C9917f7c12f526B3",
      "gasPrice": {
        "_hex": "0xdb663f445"
      },
      "gasLimit": {
        "_hex": "0x5208"
      },
      "to": "0x32Be343B94f860124dC4fEe278FDCBD38C102D88",
      "value": {
        "_hex": "0x56bb135d98e930000"
      },
      "nonce": 6,
      "data": "0x",
      "r": "0x462cc34b47276a6047144b7b4bd5c1c4c4cbe19c41beac063620b466c5d42cb4",
      "s": "0x6286d2d6c6f24ab34a3adc27eccabccf945a7a9bc0a5d3b68e5792d326156f20",
      "v": 28,
      "creates": null,
      "raw": "0xf86d06850db663f4458252089432be343b94f860124dc4fee278fdcbd38c102d8889056bb135d98e930000801ca0462cc34b47276a6047144b7b4bd5c1c4c4cbe19c41beac063620b466c5d42cb4a06286d2d6c6f24ab34a3adc27eccabccf945a7a9bc0a5d3b68e5792d326156f20",
      "networkId": 0,
      "chainId": 0
    }
  ]
}