{
  "hash": "0x85dd3a28c7a51a8590231133bf495633d6ba050475d734c1f0e9fe5808dfc340",
  "parentHash": "0xbaf379a173e456dd386f4848806c2b2a34dc77eb94c7b7a22359aae3d0023a29",
  "number": 67325,
  "timestamp": 1439270088,
  "nonce": "0xa3e085ac33b075f1",
  "difficulty": 1923279482482,
  "gasLimit": {
    "_hex": "0x2fefd8"
  },
  "gasUsed": {
    "_hex": "0x5208"
  },
  "miner": "0xA1623430350C5df1b52B0b57483A5bb45d1796Da",
  "extraData": "0x476574682f76312e302e312d38326566323666362f6c696e75782f676f312e34",
  "transactions": [
    {
      "hash": "0x3db6c0ee5f3e6e70265b901c7c8d5b168b93486deeddd539a5c8598c3f7779fa",
      "blockHash": "0x85dd3a28c7a51a8590231133bf495633d6ba050475d734c1f0e9fe5808dfc340",
      "blockNumber": 67325,
      "transactionIndex": 0,
      "confirmations": null,
      "from": "0xfC372FF6927CB396d9cf29803500110Da632bC52",
      "gasPrice": {
        "_hex": "0x10620bf0f23"
      },
      "gasLimit": {
        "_hex": "0x5208"
      },
      "to": "0x60664De32450711A29F363c14A76107111689e17",
      "value": {
        "_hex": "0x3635c9adc5dea00000"
      },
      "nonce": 5,
      "data": "0x",
      "r": "0x685bd9f48f29b9dc457ecd31268390799841353c8e38c4cef831f195fda1233c",
      "s": "0x0ed8a50234e6066dbb3997952b8417af0d7b2e955ac063d8fe24d60420cab3d9",
      "v": 27,
      "creates": null,
      "raw": "0xf86e0586010620bf0f238252089460664de32450711a29f363c14a76107111689e17893635c9adc5dea00000801ba0685bd9f48f29b9dc457ecd31268390799841353c8e38c4cef831f195fda1233ca00ed8a50234e6066dbb3997952b8417af0d7b2e955ac063d8fe24d60420cab3d9",
      "networkId": 0,
      "chainId": 0
    }
  ]
}