{
  "hash": "0x44a3ac890514001b00155f9c78ac46dc93db8d699d421ce8c172389670974969",
  "parentHash": "0x0c466ee82e5caba3577680e36b4848d273eda6614143ebbfa5a5e80f0c3f2e8b",
  "number": 86464,
  "timestamp": 1439578667,
  "nonce": "0x9a8b3f81998ec1cd",
  "difficulty": 2887646135974,
  "gasLimit": {
    "_hex": "0x2fefd8"
  },
  "gasUsed": {
    "_hex": "0x5208"
  },
  "miner": "0xbb7B8287f3F0a933474a79eAe42CBCa977791171",
  "extraData": "0x476574682f4c5649562f76312e302e312f6c696e75782f676f312e342e32",
  "transactions": [
    {
      "hash": "0x2fb9d691e429a64e67af2062d0ace03d9ac1e770b06923f9c8f40f76f7e4817b",
      "blockHash": "0x44a3ac890514001b00155f9c78ac46dc93db8d699d421ce8c172389670974969",
      "blockNumber": 86464,
      "transactionIndex": 0,
      "confirmations": null,
      "from": "0xF9634a7Ee627EeF74f4d803113CD4F87E5162079",
      "gasPrice": {
        "_hex": "0xba43b7400"
      },
      "gasLimit": {
        "_hex": "0x5b04"
      },
      "to": "0x9f78552704fe7e52cC7C3853534aA2C3cf580D54",
      "value": {
        "_hex": "0x4563918244f40000"
      },
      "nonce": 7,
      "data": "0x",
      "r": "0x4b6d17340cee0f50e2209f2d7cf3d7fb010cd4f74c93b2f5da0c451bd07b286b",
      "s": "0x7a508007463671f93050b8c971d7a5cce0e780931d68177273b7a9a5bb221684",
      "v": 27,
      "creates": null,
      "raw": "0xf86c07850ba43b7400825b04949f78552704fe7e52cc7c3853534aa2c3cf580d54884563918244f40000801ba04b6d17340cee0f50e2209f2d7cf3d7fb010cd4f74c93b2f5da0c451bd07b286ba07a508007463671f93050b8c971d7a5cce0e780931d68177273b7a9a5bb221684",
      "networkId": 0,
      "chainId": 0
    }
  ]
}