{
  "hash": "0x09684c5a337bc729fab02234ee23697e8cfe6b7a55db9d17ced9f12712086389",
  "parentHash": "0xd9db6b4ee29675483e075d146dae59f79a69a525bde2e7558783c232b47f85de",
  "number": 97139,
  "timestamp": 1439751413,
  "nonce": "0x2190e54d81c254f0",
  "difficulty": 3763248049357,
  "gasLimit": {
    "_hex": "0x2fefd8"
  },
  "gasUsed": {
    "_hex": "0xa674"
  },
  "miner": "0xe090Ffdced499691fA9379752a59F8A058c1eE4A",
  "extraData": "0x476574682f76312e302e312f6c696e75782f676f312e342e32",
  "transactions": [
    {
      "hash": "0xc921b20d58431bdc71e7d773162c5a78b711021d79d2fa5aba6dbc83aa11d382",
      "blockHash": "0x09684c5a337bc729fab02234ee23697e8cfe6b7a55db9d17ced9f12712086389",
      "blockNumber": 97139,
      "transactionIndex": 0,
      "confirmations": null,
      "from": "0x34E2849Bea583AB0CC37975190f322b395055582",
      "gasPrice": {
        "_hex": "0x110c8f7d8de"
      },
      "gasLimit": {
        "_hex": "0xc350"
      },
      "to": "0x2910543Af39abA0Cd09dBb2D50200b3E800A63D2",
      "value": {
        "_hex": "0x607095a2743bec0000"
      },
      "nonce": 5,
      "data": "0x454e434a5033463438",
      "r": "0x8b4cfa8d9c7cc33eaed5a2d49bac963df0458fb41605bacf2ff202679bda9cdb",
      "s": "0xd0ef0b073162438dd3f283bcdb3331ebf9067824313e9e2a91e2e6be1a6c7091",
      "v": 28,
      "creates": null,
      "raw": "0xf87705860110c8f7d8de82c350942910543af39aba0cd09dbb2d50200b3e800a63d289607095a2743bec000089454e434a50334634381ca08b4cfa8d9c7cc33eaed5a2d49bac963df0458fb41605bacf2ff202679bda9cdba0d0ef0b073162438dd3f283bcdb3331ebf9067824313e9e2a91e2e6be1a6c7091",
      "networkId": 0,
      "chainId": 0
    },
    {
      "hash": "0x86d25a79ffcf511cf5b6b462755478cf579b8b3be1f45669637b0de44c070776",
      "blockHash": "0x09684c5a337bc729fab02234ee23697e8cfe6b7a55db9d17ced9f12712086389",
      "blockNumber": 97139,
      "transactionIndex": 1,
      "confirmations": null,
      "from": "0x1BEBf48714786bfc3BBa36f875aCAfb4d78bC817",
      "gasPrice": {
        "_hex": "0xd23ee12e2"
      },
      "gasLimit": {
        "_hex": "0x15f90"
      },
      "to": "0x0b17D50069F88b74e898C983F5427a3767a45b7a",
      "value": {
        "_hex": "0x4af0a763bb1c0000"
      },
      "nonce": 1,
      "data": "0x",
      "r": "0x9c8d29489c4e53952133c23ea4fc801a0ca8b4ba8a8a3aa68045898acac981f1",
      "s": "0x406200790956efad6c832ac3257dd475444bf8004f046fb042bf9ea59d73ca80",
      "v": 28,
      "creates": null,
      "raw": "0xf86d01850d23ee12e283015f90940b17d50069f88b74e898c983f5427a3767a45b7a884af0a763bb1c0000801ca09c8d29489c4e53952133c23ea4fc801a0ca8b4ba8a8a3aa68045898acac981f1a0406200790956efad6c832ac3257dd475444bf8004f046fb042bf9ea59d73ca80",
      "networkId": 0,
      "chainId": 0
    }
  ]
}