{
  "hash": "0x1cadf0c191bfe768d9c894c80de3e12d7d5ebfcd16ea42df3723f52473b3f6e1",
  "parentHash": "0x3e249aa298a68ea0b13aa8fd32cbde32ec2402e46fd30bbb4ff6cccb293b0df3",
  "number": 68590,
  "timestamp": 1439290415,
  "nonce": "0xb5b21d7817395bf5",
  "difficulty": 2018229900877,
  "gasLimit": {
    "_hex": "0x2fefd8"
  },
  "gasUsed": {
    "_hex": "0x132c81"
  },
  "miner": "0x88F859e1F0A7C49985f0dDEa95d97c6C93435320",
  "extraData": "0x476574682f76312e302e312f77696e646f77732f676f312e342e32",
  "transactions": [
    {
      "hash": "0xf184597713c2877a204adf31a9040ac85930cfe6b0af077d63884b9ab6731bd3",
      "blockHash": "0x1cadf0c191bfe768d9c894c80de3e12d7d5ebfcd16ea42df3723f52473b3f6e1",
      "blockNumber": 68590,
      "transactionIndex": 0,
      "confirmations": null,
      "from": "0x17580B766f7453525ca4C6A88b01b50570EA088C",
      "gasPrice": {
        "_hex": "0xce0ea769a"
      },
      "gasLimit": {
        "_hex": "0x61a80"
      },
      "to": "0x5Fe5B7546D1628f7348B023A0393de1FC825A4fD",
      "value": {
        "_hex": "0x1bc16d674ec80000"
      },
      "nonce": 42,
      "data": "0xb595b8b50000000000000000000000000000000000000000000000000000000000000001",
      "r": "0xf71e1f4471960c45f1cc6a212b877f33929dce2cfb4aafea523703a19d4ea3fa",
      "s": "0x4af3436b8a1582ac654ddcfc1bae17c5f6e9fca2e10c648d1eb444bd30045e45",
      "v": 28,
      "creates": null,
      "raw": "0xf8912a850ce0ea769a83061a80945fe5b7546d1628f7348b023a0393de1fc825a4fd881bc16d674ec80000a4b595b8b500000000000000000000000000000000000000000000000000000000000000011ca0f71e1f4471960c45f1cc6a212b877f33929dce2cfb4aafea523703a19d4ea3faa04af3436b8a1582ac654ddcfc1bae17c5f6e9fca2e10c648d1eb444bd30045e45",
      "networkId": 0,
      "chainId": 0
    },
    {
      "hash": "0x5264e93afef0ecdc71c2bd6fa7c51fdee577188476c5b4fa80fcbadbaa2a556a",
      "blockHash": "0x1cadf0c191bfe768d9c894c80de3e12d7d5ebfcd16ea42df3723f52473b3f6e1",
      "blockNumber": 68590,
      "transactionIndex": 1,
      "confirmations": null,
      "from": "0x67A75f1d0561A3297a5C238E16e28b865cA884eB",
      "gasPrice": {
        "_hex": "0xba43b7400"
      },
      "gasLimit": {
        "_hex": "0x15f90"
      },
      "to": "0x793AE8C1b1a160BFc07BFB0d04F85eab1A71F4f2",
      "value": {
        "_hex": "0x0"
      },
      "nonce": 0,
      "data": "0x3ba15036",
      "r": "0xf4f23bdf4b39f6bacca47b8b7c384497d2d66f5dc8608a7ef56d10918d2a0522",
      "s": "0x22d007f6e3db9b6d1b7e3057e97822d4017e45898ad3a680c0f960ebab1a6f23",
      "v": 27,
      "creates": null,
      "raw": "0xf86980850ba43b740083015f9094793ae8c1b1a160bfc07bfb0d04f85eab1a71f4f280843ba150361ba0f4f23bdf4b39f6bacca47b8b7c384497d2d66f5dc8608a7ef56d10918d2a0522a022d007f6e3db9b6d1b7e3057e97822d4017e45898ad3a680c0f960ebab1a6f23",
      "networkId": 0,
      "chainId": 0
    },
    {
      "hash": "0xd3a92b0cdd07b3ebdba0dd408e69b50b687dd54b6224fb552c8662b548a5439e",
      "blockHash": "0x1cadf0c191bfe768d9c894c80de3e12d7d5ebfcd16ea42df3723f52473b3f6e1",
      "blockNumber": 68590,
      "transactionIndex": 2,
      "confirmations": null,
      "from": "0x841E5958d26c2DC23f7a98918742Da8B510d4D0a",
      "gasPrice": {
        "_hex": "0xba43b7400"
      },
      "gasLimit": {
        "_hex": "0x15f90"
      },
      "to": "0x793AE8C1b1a160BFc07BFB0d04F85eab1A71F4f2",
      "value": {
        "_hex": "0x0"
      },
      "nonce": 0,
      "data": "0x3ba15036",
      "r": "0x8f8652bd1aed7bfef489b93bf6d88afae000efb6f37342ba63978e8ff6f9afd4",
      "s": "0x284f8212263fe346961799f0995ebf22ad03f4378a0b136b02e94358e70c8cd6",
      "v": 28,
      "creates": null,
      "raw": "0xf86980850ba43b740083015f9094793ae8c1b1a160bfc07bfb0d04f85eab1a71f4f280843ba150361ca08f8652bd1aed7bfef489b93bf6d88afae000efb6f37342ba63978e8ff6f9afd4a0284f8212263fe346961799f0995ebf22ad03f4378a0b136b02e94358e70c8cd6",
      "networkId": 0,
      "chainId": 0
    },
    {
      "hash": "0x07e2a790195007d75a0e0aa1e818ec0f316ea7773cc814ff3f8a036940954a29",
      "blockHash": "0x1cadf0c191bfe768d9c894c80de3e12d7d5ebfcd16ea42df3723f52473b3f6e1",
      "blockNumber": 68590,
      "transactionIndex": 3,
      "confirmations": null,
      "from": "0x202A92eC4Abb585097C28E910263F74f103fFA33",
      "gasPrice": {
        "_hex": "0xba43b7400"
      },
      "gasLimit": {
        "_hex": "0x15f90"
      },
      "to": "0x793AE8C1b1a160BFc07BFB0d04F85eab1A71F4f2",
      "value": {
        "_hex": "0x0"
      },
      "nonce": 0,
      "data": "0x3ba15036",
      "r": "0x0ab6e5f079878f55607402ae7f102ea6d673332717c7894eea2bedfcea1ec7ed",
      "s": "0x7effaae9bd4ea7312e39a3a9f07306ae9f7e3011a2141572838de9507ec216f1",
      "v": 28,
      "creates": null,
      "raw": "0xf86980850ba43b740083015f9094793ae8c1b1a160bfc07bfb0d04f85eab1a71f4f280843ba150361ca00ab6e5f079878f55607402ae7f102ea6d673332717c7894eea2bedfcea1ec7eda07effaae9bd4ea7312e39a3a9f07306ae9f7e3011a2141572838de9507ec216f1",
      "networkId": 0,
      "chainId": 0
    },
    {
      "hash": "0x332bd9ae00a8eccd005c3c6b32bd76deea61c865b4423026ef2ed099336be679",
      "blockHash": "0x1cadf0c191bfe768d9c894c80de3e12d7d5ebfcd16ea42df3723f52473b3f6e1",
      "blockNumber": 68590,
      "transactionIndex": 4,
      "confirmations": null,
      "from": "0xa637abE4FC99DD25Db04f96e8922CD97877629f7",
      "gasPrice": {
        "_hex": "0xba43b7400"
      },
      "gasLimit": {
        "_hex": "0x15f90"
      },
      "to": "0x793AE8C1b1a160BFc07BFB0d04F85eab1A71F4f2",
      "value": {
        "_hex": "0x0"
      },
      "nonce": 0,
      "data": "0x3ba15036",
      "r": "0x34a55baff75fdc59f3b595cb455f72763f25e3d40cfef15a2bdc8464146a6657",
      "s": "0x526c653bd2822a6f7d408b235c87608f08fdc123072a998638519e8ba82c21be",
      "v": 27,
      "creates": null,
      "raw": "0xf86980850ba43b740083015f9094793ae8c1b1a160bfc07bfb0d04f85eab1a71f4f280843ba150361ba034a55baff75fdc59f3b595cb455f72763f25e3d40cfef15a2bdc8464146a6657a0526c653bd2822a6f7d408b235c87608f08fdc123072a998638519e8ba82c21be",
      "networkId": 0,
      "chainId": 0
    },
    {
      "hash": "0x921a51924516bada75b58618d39afaf83f0fc0898f117acb899efac5c956bc32",
      "blockHash": "0x1cadf0c191bfe768d9c894c80de3e12d7d5ebfcd16ea42df3723f52473b3f6e1",
      "blockNumber": 68590,
      "transactionIndex": 5,
      "confirmations": null,
      "from": "0x5097e53Cb43e993De1753e757d3bE739Ca8FAF2B",
      "gasPrice": {
        "_hex": "0xba43b7400"
      },
      "gasLimit": {
        "_hex": "0x15f90"
      },
      "to": "0x793AE8C1b1a160BFc07BFB0d04F85eab1A71F4f2",
      "value": {
        "_hex": "0x0"
      },
      "nonce": 0,
      "data": "0x3ba15036",
      "r": "0x269a315a48902db2ebcd2c801e31316306f531e4a61e0903f2a17966dd9385eb",
      "s": "0x22b380cfaf1d06396fc23251e8bf21256636eb544e5730b3a8b5ca2213722392",
      "v": 28,
      "creates": null,
      "raw": "0xf86980850ba43b740083015f9094793ae8c1b1a160bfc07bfb0d04f85eab1a71f4f280843ba150361ca0269a315a48902db2ebcd2c801e31316306f531e4a61e0903f2a17966dd9385eba022b380cfaf1d06396fc23251e8bf21256636eb544e5730b3a8b5ca2213722392",
      "networkId": 0,
      "chainId": 0
    },
    {
      "hash": "0x9054c94366913655710ac74582dbacfda212e5391fc576671a955a332d0b8d90",
      "blockHash": "0x1cadf0c191bfe768d9c894c80de3e12d7d5ebfcd16ea42df3723f52473b3f6e1",
      "blockNumber": 68590,
      "transactionIndex": 6,
      "confirmations": null,
      "from": "0x5cb22A640D3BF627592beF808bF35f8224FdF440",
      "gasPrice": {
        "_hex": "0xba43b7400"
      },
      "gasLimit": {
        "_hex": "0x15f90"
      },
      "to": "0x793AE8C1b1a160BFc07BFB0d04F85eab1A71F4f2",
      "value": {
        "_hex": "0x0"
      },
      "nonce": 0,
      "data": "0x3ba15036",
      "r": "0xa03853c5f0a625a2760890aca2b0077015de5da1b9d8e89f61eb4344409a56d3",
      "s": "0x0d0c9410e58913f30e1e282b6842e40d6e14b63c2cdafa34fa31109e6bb09f98",
      "v": 27,
      "creates": null,
      "raw": "0xf86980850ba43b740083015f9094793ae8c1b1a160bfc07bfb0d04f85eab1a71f4f280843ba150361ba0a03853c5f0a625a2760890aca2b0077015de5da1b9d8e89f61eb4344409a56d3a00d0c9410e58913f30e1e282b6842e40d6e14b63c2cdafa34fa31109e6bb09f98",
      "networkId": 0,
      "chainId": 0
    },
    {
      "hash": "0xbe8b83ec0f9f36866ed842eb62d3fe663b7a76bba29cd07d1aa5b67865c1c9ed",
      "blockHash": "0x1cadf0c191bfe768d9c894c80de3e12d7d5ebfcd16ea42df3723f52473b3f6e1",
      "blockNumber": 68590,
      "transactionIndex": 7,
      "confirmations": null,
      "from": "0x8093a7CD559816286851b113a1CA151202984362",
      "gasPrice": {
        "_hex": "0xba43b7400"
      },
      "gasLimit": {
        "_hex": "0x15f90"
      },
      "to": "0x793AE8C1b1a160BFc07BFB0d04F85eab1A71F4f2",
      "value": {
        "_hex": "0x0"
      },
      "nonce": 0,
      "data": "0x3ba15036",
      "r": "0x7315a3738ca8c5e5ba8af9dfea8e2b0393a4f91233f481a873194e0f23c6ce33",
      "s": "0x5d42ecb8eed366a0cb9ba0b2bdeb6433c5ffdc3dd7802a2c39e460fbddd1c284",
      "v": 28,
      "creates": null,
      "raw": "0xf86980850ba43b740083015f9094793ae8c1b1a160bfc07bfb0d04f85eab1a71f4f280843ba150361ca07315a3738ca8c5e5ba8af9dfea8e2b0393a4f91233f481a873194e0f23c6ce33a05d42ecb8eed366a0cb9ba0b2bdeb6433c5ffdc3dd7802a2c39e460fbddd1c284",
      "networkId": 0,
      "chainId": 0
    },
    {
      "hash": "0x8f01c338daa3b30483586d31a4b333571fa4b9a42485920d41630d5d83f8503b",
      "blockHash": "0x1cadf0c191bfe768d9c894c80de3e12d7d5ebfcd16ea42df3723f52473b3f6e1",
      "blockNumber": 68590,
      "transactionIndex": 8,
      "confirmations": null,
      "from": "0xDF90DEb4282e18875070927F231d8e483e915771",
      "gasPrice": {
        "_hex": "0xba43b7400"
      },
      "gasLimit": {
        "_hex": "0x15f90"
      },
      "to": "0x793AE8C1b1a160BFc07BFB0d04F85eab1A71F4f2",
      "value": {
        "_hex": "0x0"
      },
      "nonce": 0,
      "data": "0x3ba15036",
      "r": "0xe6e2a2ee2e91d91afb645e7ddfbf03fb6bd46b61e451f9d95541fb3cf4881818",
      "s": "0x1646c816852cf37f91c7e7a7bd846d495941c46f5f0ab1c49da79a9e8bebd6da",
      "v": 27,
      "creates": null,
      "raw": "0xf86980850ba43b740083015f9094793ae8c1b1a160bfc07bfb0d04f85eab1a71f4f280843ba150361ba0e6e2a2ee2e91d91afb645e7ddfbf03fb6bd46b61e451f9d95541fb3cf4881818a01646c816852cf37f91c7e7a7bd846d495941c46f5f0ab1c49da79a9e8bebd6da",
      "networkId": 0,
      "chainId": 0
    },
    {
      "hash": "0x0815206d0454d7ab77fa775812ddc58726da336e2d39a746f8de190ecdc37c1d",
      "blockHash": "0x1cadf0c191bfe768d9c894c80de3e12d7d5ebfcd16ea42df3723f52473b3f6e1",
      "blockNumber": 68590,
      "transactionIndex": 9,
      "confirmations": null,
      "from": "0xB72b2DEe2e6be08902326c57ba368423Db92f907",
      "gasPrice": {
        "_hex": "0xba43b7400"
      },
      "gasLimit": {
        "_hex": "0x15f90"
      },
      "to": "0x793AE8C1b1a160BFc07BFB0d04F85eab1A71F4f2",
      "value": {
        "_hex": "0x0"
      },
      "nonce": 0,
      "data": "0x3ba15036",
      "r": "0x1ccde3d971106c8a68c39a99437af2a73ebbf864b447b771726db889068c4da2",
      "s": "0x01da99c348a5173305f80fdc92918c6e6abeb6d3af7fe7e1a3847d7f47ea8ce6",
      "v": 27,
      "creates": null,
      "raw": "0xf86980850ba43b740083015f9094793ae8c1b1a160bfc07bfb0d04f85eab1a71f4f280843ba150361ba01ccde3d971106c8a68c39a99437af2a73ebbf864b447b771726db889068c4da2a001da99c348a5173305f80fdc92918c6e6abeb6d3af7fe7e1a3847d7f47ea8ce6",
      "networkId": 0,
      "chainId": 0
    },
    {
      "hash": "0x3f46741cffd59dd6c37ad59b2718b6d8a9ca44bf93022d414e505ab2756042d9",
      "blockHash": "0x1cadf0c191bfe768d9c894c80de3e12d7d5ebfcd16ea42df3723f52473b3f6e1",
      "blockNumber": 68590,
      "transactionIndex": 10,
      "confirmations": null,
      "from": "0xAb0285cee02DF2A960764518c189E85De031f289",
      "gasPrice": {
        "_hex": "0xba43b7400"
      },
      "gasLimit": {
        "_hex": "0x15f90"
      },
      "to": "0x793AE8C1b1a160BFc07BFB0d04F85eab1A71F4f2",
      "value": {
        "_hex": "0x0"
      },
      "nonce": 0,
      "data": "0x3ba15036",
      "r": "0x4d8b0074708b45d36486381686c3adf3b18d5c5df54aafdca0448862929e6c71",
      "s": "0x4a4ffb9f38b7eb2cc5e98bc450207d2c2527a1290be76574a6830f7df577dd8a",
      "v": 28,
      "creates": null,
      "raw": "0xf86980850ba43b740083015f9094793ae8c1b1a160bfc07bfb0d04f85eab1a71f4f280843ba150361ca04d8b0074708b45d36486381686c3adf3b18d5c5df54aafdca0448862929e6c71a04a4ffb9f38b7eb2cc5e98bc450207d2c2527a1290be76574a6830f7df577dd8a",
      "networkId": 0,
      "chainId": 0
    },
    {
      "hash": "0xc980f78463a2562df3e09c69df03e11a0b54b67f77d2d9c1a729dc72a00c97c5",
      "blockHash": "0x1cadf0c191bfe768d9c894c80de3e12d7d5ebfcd16ea42df3723f52473b3f6e1",
      "blockNumber": 68590,
      "transactionIndex": 11,
      "confirmations": null,
      "from": "0xEC0301d403cec991F50Ab5aB2334348Dab2AD8F3",
      "gasPrice": {
        "_hex": "0xba43b7400"
      },
      "gasLimit": {
        "_hex": "0x15f90"
      },
      "to": "0x793AE8C1b1a160BFc07BFB0d04F85eab1A71F4f2",
      "value": {
        "_hex": "0x0"
      },
      "nonce": 0,
      "data": "0x3ba15036",
      "r": "0x3294c594ecba9fad1a9e748d9a2f2c1323224b547c931725a78e4b90f3189e06",
      "s": "0x6b77acb3eda36c7caf848dda79a380bd01fa18bb8118909644f20dfca64015a6",
      "v": 27,
      "creates": null,
      "raw": "0xf86980850ba43b740083015f9094793ae8c1b1a160bfc07bfb0d04f85eab1a71f4f280843ba150361ba03294c594ecba9fad1a9e748d9a2f2c1323224b547c931725a78e4b90f3189e06a06b77acb3eda36c7caf848dda79a380bd01fa18bb8118909644f20dfca64015a6",
      "networkId": 0,
      "chainId": 0
    },
    {
      "hash": "0x6a9429c1ea1f9433ca0c589a0716672c46d1e095b0d28d39e6db35cff12e11d7",
      "blockHash": "0x1cadf0c191bfe768d9c894c80de3e12d7d5ebfcd16ea42df3723f52473b3f6e1",
      "blockNumber": 68590,
      "transactionIndex": 12,
      "confirmations": null,
      "from": "0xd4b30dDfF685871348e62D309c9f166dd9A06460",
      "gasPrice": {
        "_hex": "0xba43b7400"
      },
      "gasLimit": {
        "_hex": "0x15f90"
      },
      "to": "0x793AE8C1b1a160BFc07BFB0d04F85eab1A71F4f2",
      "value": {
        "_hex": "0x0"
      },
      "nonce": 0,
      "data": "0x3ba15036",
      "r": "0xdc7ca26caab2b3c4a92d41244ea47339052b796609ca7d69326a8186e16ff36e",
      "s": "0x25447abe46cada13bf2c466d791ca5954825896c1021c4065f1cb9b76a165d73",
      "v": 27,
      "creates": null,
      "raw": "0xf86980850ba43b740083015f9094793ae8c1b1a160bfc07bfb0d04f85eab1a71f4f280843ba150361ba0dc7ca26caab2b3c4a92d41244ea47339052b796609ca7d69326a8186e16ff36ea025447abe46cada13bf2c466d791ca5954825896c1021c4065f1cb9b76a165d73",
      "networkId": 0,
      "chainId": 0
    },
    {
      "hash": "0x78868fbe6289a546db3c7a3416e49e113c2be21df60adede0e18aaa66ef35d6b",
      "blockHash": "0x1cadf0c191bfe768d9c894c80de3e12d7d5ebfcd16ea42df3723f52473b3f6e1",
      "blockNumber": 68590,
      "transactionIndex": 13,
      "confirmations": null,
      "from": "0xc90CD003F617EE1d067548627BB18D6Be4a0Ed46",
      "gasPrice": {
        "_hex": "0xba43b7400"
      },
      "gasLimit": {
        "_hex": "0x15f90"
      },
      "to": "0x793AE8C1b1a160BFc07BFB0d04F85eab1A71F4f2",
      "value": {
        "_hex": "0x0"
      },
      "nonce": 0,
      "data": "0x3ba15036",
      "r": "0x1d35ee35018cc004d8b245eafbb1e29a7a64f3997f80a2cebaaf92b6e68be042",
      "s": "0x1ae9e36bc01af093214a704b26ae1899905a99131d27947c7e359b1ee568b429",
      "v": 27,
      "creates": null,
      "raw": "0xf86980850ba43b740083015f9094793ae8c1b1a160bfc07bfb0d04f85eab1a71f4f280843ba150361ba01d35ee35018cc004d8b245eafbb1e29a7a64f3997f80a2cebaaf92b6e68be042a01ae9e36bc01af093214a704b26ae1899905a99131d27947c7e359b1ee568b429",
      "networkId": 0,
      "chainId": 0
    },
    {
      "hash": "0x835db3a20a7389a463696c5ef24e957fea36dce5ce5d0e92af9ba7411ba198fd",
      "blockHash": "0x1cadf0c191bfe768d9c894c80de3e12d7d5ebfcd16ea42df3723f52473b3f6e1",
      "blockNumber": 68590,
      "transactionIndex": 14,
      "confirmations": null,
      "from": "0x64142fE5551a592e1eb12CeADB2E343C6581fD44",
      "gasPrice": {
        "_hex": "0xba43b7400"
      },
      "gasLimit": {
        "_hex": "0x15f90"
      },
      "to": "0x793AE8C1b1a160BFc07BFB0d04F85eab1A71F4f2",
      "value": {
        "_hex": "0x0"
      },
      "nonce": 0,
      "data": "0x3ba15036",
      "r": "0x50b3fe2eb07bd140eb61ef1b9956f3000e8eff20a0b9bd3547d7c2be23c98b6a",
      "s": "0x103c2881c14620b5483295bc722edd0e2fa0f9734ebfbde4590569662f72d67a",
      "v": 28,
      "creates": null,
      "raw": "0xf86980850ba43b740083015f9094793ae8c1b1a160bfc07bfb0d04f85eab1a71f4f280843ba150361ca050b3fe2eb07bd140eb61ef1b9956f3000e8eff20a0b9bd3547d7c2be23c98b6aa0103c2881c14620b5483295bc722edd0e2fa0f9734ebfbde4590569662f72d67a",
      "networkId": 0,
      "chainId": 0
    },
    {
      "hash": "0x2face6ec0ac8a42e70106b10ad3f9cc52c9f1eaf35b62f2e0b520a9fe0925304",
      "blockHash": "0x1cadf0c191bfe768d9c894c80de3e12d7d5ebfcd16ea42df3723f52473b3f6e1",
      "blockNumber": 68590,
      "transactionIndex": 15,
      "confirmations": null,
      "from": "0xA8451fdb797FF400A5B76e3e00BD76C1DfF6f8c6",
      "gasPrice": {
        "_hex": "0xba43b7400"
      },
      "gasLimit": {
        "_hex": "0x15f90"
      },
      "to": "0x793AE8C1b1a160BFc07BFB0d04F85eab1A71F4f2",
      "value": {
        "_hex": "0x0"
      },
      "nonce": 0,
      "data": "0x3ba15036",
      "r": "0xf8d7f02e230eeb328fae8f6fab78b31065447580acf3b232cb8890dd63f20ff5",
      "s": "0x54fd8494b9f6b65ff90dd7ccf289d1e8085267c166e8448731543f3ef36cba80",
      "v": 28,
      "creates": null,
      "raw": "0xf86980850ba43b740083015f9094793ae8c1b1a160bfc07bfb0d04f85eab1a71f4f280843ba150361ca0f8d7f02e230eeb328fae8f6fab78b31065447580acf3b232cb8890dd63f20ff5a054fd8494b9f6b65ff90dd7ccf289d1e8085267c166e8448731543f3ef36cba80",
      "networkId": 0,
      "chainId": 0
    },
    {
      "hash": "0x2c9d12c60e900eaf939366e69057009729bc83ded29da84afd5fe9f19ae3ceaa",
      "blockHash": "0x1cadf0c191bfe768d9c894c80de3e12d7d5ebfcd16ea42df3723f52473b3f6e1",
      "blockNumber": 68590,
      "transactionIndex": 16,
      "confirmations": null,
      "from": "0xE38FB8e21E92d717a4123665ADa693c7402CA3b1",
      "gasPrice": {
        "_hex": "0xba43b7400"
      },
      "gasLimit": {
        "_hex": "0x15f90"
      },
      "to": "0x793AE8C1b1a160BFc07BFB0d04F85eab1A71F4f2",
      "value": {
        "_hex": "0x0"
      },
      "nonce": 0,
      "data": "0x3ba15036",
      "r": "0x093714510cec472e25e1c5ed880edd3a63968dc595247f4b3497b27db0ea93c7",
      "s": "0x3baae298e5006e3cc85ca376d1e049aa819aacfc9432a1a6813e47c2587cee24",
      "v": 28,
      "creates": null,
      "raw": "0xf86980850ba43b740083015f9094793ae8c1b1a160bfc07bfb0d04f85eab1a71f4f280843ba150361ca0093714510cec472e25e1c5ed880edd3a63968dc595247f4b3497b27db0ea93c7a03baae298e5006e3cc85ca376d1e049aa819aacfc9432a1a6813e47c2587cee24",
      "networkId": 0,
      "chainId": 0
    },
    {
      "hash": "0x0f28d88146c8f6eda87cc5560f93a2e28c7e1124dfa5429fccb73aaf54ea3527",
      "blockHash": "0x1cadf0c191bfe768d9c894c80de3e12d7d5ebfcd16ea42df3723f52473b3f6e1",
      "blockNumber": 68590,
      "transactionIndex": 17,
      "confirmations": null,
      "from": "0xb9F4Bc0d94574A084F12243b65383832c60177ed",
      "gasPrice": {
        "_hex": "0xba43b7400"
      },
      "gasLimit": {
        "_hex": "0x15f90"
      },
      "to": "0x793AE8C1b1a160BFc07BFB0d04F85eab1A71F4f2",
      "value": {
        "_hex": "0x0"
      },
      "nonce": 0,
      "data": "0x3ba15036",
      "r": "0x220b93873dc5a55905b4c8467e8824f180907ceab41b3b5de328f3f379d3cac4",
      "s": "0x7e35d59e46c07579c1dc380a19fa6f652c13ebe19c4b2c3efbaaa961b16406b5",
      "v": 28,
      "creates": null,
      "raw": "0xf86980850ba43b740083015f9094793ae8c1b1a160bfc07bfb0d04f85eab1a71f4f280843ba150361ca0220b93873dc5a55905b4c8467e8824f180907ceab41b3b5de328f3f379d3cac4a07e35d59e46c07579c1dc380a19fa6f652c13ebe19c4b2c3efbaaa961b16406b5",
      "networkId": 0,
      "chainId": 0
    },
    {
      "hash": "0xd554221baff052215dfec5b56acd3d27fdb25c4b73c9bfcfbe2ed1cf35f486c7",
      "blockHash": "0x1cadf0c191bfe768d9c894c80de3e12d7d5ebfcd16ea42df3723f52473b3f6e1",
      "blockNumber": 68590,
      "transactionIndex": 18,
      "confirmations": null,
      "from": "0x7630c6598279962605F3F2BAa01959a6651B6A71",
      "gasPrice": {
        "_hex": "0xba43b7400"
      },
      "gasLimit": {
        "_hex": "0x15f90"
      },
      "to": "0x793AE8C1b1a160BFc07BFB0d04F85eab1A71F4f2",
      "value": {
        "_hex": "0x0"
      },
      "nonce": 0,
      "data": "0x3ba15036",
      "r": "0x6b01348b2765ab7d677309355e93e5d6d8f7a9a8a0851cc5096a8d489c567f65",
      "s": "0x7333a5448e26ed7af562fcbdc0eec20b4da5584c38e25731e40c6ad722b1474b",
      "v": 27,
      "creates": null,
      "raw": "0xf86980850ba43b740083015f9094793ae8c1b1a160bfc07bfb0d04f85eab1a71f4f280843ba150361ba06b01348b2765ab7d677309355e93e5d6d8f7a9a8a0851cc5096a8d489c567f65a07333a5448e26ed7af562fcbdc0eec20b4da5584c38e25731e40c6ad722b1474b",
      "networkId": 0,
      "chainId": 0
    },
    {
      "hash": "0xdb38340d88a9830225db3bcfd0d8fad8c58cdb64995496119c8cfb2bcf651a1a",
      "blockHash": "0x1cadf0c191bfe768d9c894c80de3e12d7d5ebfcd16ea42df3723f52473b3f6e1",
      "blockNumber": 68590,
      "transactionIndex": 19,
      "confirmations": null,
      "from": "0x8b5111c38d50DEdf85B620F62D51e662F160fe13",
      "gasPrice": {
        "_hex": "0xba43b7400"
      },
      "gasLimit": {
        "_hex": "0x15f90"
      },
      "to": "0x793AE8C1b1a160BFc07BFB0d04F85eab1A71F4f2",
      "value": {
        "_hex": "0x0"
      },
      "nonce": 0,
      "data": "0x3ba15036",
      "r": "0xa46034f3a21f8fabc4a2f4aa28ed0b3d12bcf7b7d600a92bf29cc33405f6c1e0",
      "s": "0x7f612e98ae2343446357388f72667a73c58632476608564830862fdaf1e00f7e",
      "v": 27,
      "creates": null,
      "raw": "0xf86980850ba43b740083015f9094793ae8c1b1a160bfc07bfb0d04f85eab1a71f4f280843ba150361ba0a46034f3a21f8fabc4a2f4aa28ed0b3d12bcf7b7d600a92bf29cc33405f6c1e0a07f612e98ae2343446357388f72667a73c58632476608564830862fdaf1e00f7e",
      "networkId": 0,
      "chainId": 0
    },
    {
      "hash": "0xec4de44003c06d2d4f1b956955fce08426b9d4bc7a602a723eaa07f85d3b907f",
      "blockHash": "0x1cadf0c191bfe768d9c894c80de3e12d7d5ebfcd16ea42df3723f52473b3f6e1",
      "blockNumber": 68590,
      "transactionIndex": 20,
      "confirmations": null,
      "from": "0x7BC8fEB71E9C95a520fE6376204e9249F7AA0C20",
      "gasPrice": {
        "_hex": "0xba43b7400"
      },
      "gasLimit": {
        "_hex": "0x15f90"
      },
      "to": "0x793AE8C1b1a160BFc07BFB0d04F85eab1A71F4f2",
      "value": {
        "_hex": "0x0"
      },
      "nonce": 0,
      "data": "0x3ba15036",
      "r": "0x15ddbe9abc420783bbc8d3cafb6355831b44cac4ba4c22630cdc7d021c8159ff",
      "s": "0x1c942565e08b241715627503d54b5b85b8b2620d76627d47f66ef163903bf6ff",
      "v": 28,
      "creates": null,
      "raw": "0xf86980850ba43b740083015f9094793ae8c1b1a160bfc07bfb0d04f85eab1a71f4f280843ba150361ca015ddbe9abc420783bbc8d3cafb6355831b44cac4ba4c22630cdc7d021c8159ffa01c942565e08b241715627503d54b5b85b8b2620d76627d47f66ef163903bf6ff",
      "networkId": 0,
      "chainId": 0
    },
    {
      "hash": "0xb446dcb49be9abafddb8a33d6af8b7ea2a71b7713bdfdc2c0cb6ac2c85339404",
      "blockHash": "0x1cadf0c191bfe768d9c894c80de3e12d7d5ebfcd16ea42df3723f52473b3f6e1",
      "blockNumber": 68590,
      "transactionIndex": 21,
      "confirmations": null,
      "from": "0x638F8073E66414827Cf3F06Cd6aD92143c19214E",
      "gasPrice": {
        "_hex": "0xba43b7400"
      },
      "gasLimit": {
        "_hex": "0x15f90"
      },
      "to": "0x793AE8C1b1a160BFc07BFB0d04F85eab1A71F4f2",
      "value": {
        "_hex": "0x0"
      },
      "nonce": 0,
      "data": "0x3ba15036",
      "r": "0x707e9b6d543fcd21cab7ba505c72e55348d32432422cef1313feca8ef20b9146",
      "s": "0x187b1a1d8536618e4bac6319e1072a3c77e38a9d6e658129c7fd79ba786737f3",
      "v": 28,
      "creates": null,
      "raw": "0xf86980850ba43b740083015f9094793ae8c1b1a160bfc07bfb0d04f85eab1a71f4f280843ba150361ca0707e9b6d543fcd21cab7ba505c72e55348d32432422cef1313feca8ef20b9146a0187b1a1d8536618e4bac6319e1072a3c77e38a9d6e658129c7fd79ba786737f3",
      "networkId": 0,
      "chainId": 0
    },
    {
      "hash": "0x5770842388ab5ffa7b49c3dd6ed1432df5dd84a38913ab9024220272aa801810",
      "blockHash": "0x1cadf0c191bfe768d9c894c80de3e12d7d5ebfcd16ea42df3723f52473b3f6e1",
      "blockNumber": 68590,
      "transactionIndex": 22,
      "confirmations": null,
      "from": "0x6156cd4A7e8FE04d8eaAC8A99EAa15E370b6C62F",
      "gasPrice": {
        "_hex": "0xba43b7400"
      },
      "gasLimit": {
        "_hex": "0x15f90"
      },
      "to": "0x793AE8C1b1a160BFc07BFB0d04F85eab1A71F4f2",
      "value": {
        "_hex": "0x0"
      },
      "nonce": 0,
      "data": "0x3ba15036",
      "r": "0xb6c2a368c2ea4eb418353b3d3db8adb7b117579ffdde7d3b16c5d89ed9956e0a",
      "s": "0x6c27f036b3a15ac9d4f2c3f922c4365d5c101bd12062b41136bee0661773bf1e",
      "v": 28,
      "creates": null,
      "raw": "0xf86980850ba43b740083015f9094793ae8c1b1a160bfc07bfb0d04f85eab1a71f4f280843ba150361ca0b6c2a368c2ea4eb418353b3d3db8adb7b117579ffdde7d3b16c5d89ed9956e0aa06c27f036b3a15ac9d4f2c3f922c4365d5c101bd12062b41136bee0661773bf1e",
      "networkId": 0,
      "chainId": 0
    },
    {
      "hash": "0xe96c271f030013b3f486c006f06db222966897fcd5bf88d45aabe0e939226e76",
      "blockHash": "0x1cadf0c191bfe768d9c894c80de3e12d7d5ebfcd16ea42df3723f52473b3f6e1",
      "blockNumber": 68590,
      "transactionIndex": 23,
      "confirmations": null,
      "from": "0xc3dA7435bcF7b23202F9Fc8D130403fd4e8021E5",
      "gasPrice": {
        "_hex": "0xba43b7400"
      },
      "gasLimit": {
        "_hex": "0x15f90"
      },
      "to": "0x793AE8C1b1a160BFc07BFB0d04F85eab1A71F4f2",
      "value": {
        "_hex": "0x0"
      },
      "nonce": 0,
      "data": "0x3ba15036",
      "r": "0x213684d33a132079dc68a04b36e429b97646b9839d81c99f20f40fa68a372a60",
      "s": "0x6877324c5e073b738b165f8b28130e278d892250735346ceb43115e4b21b6163",
      "v": 28,
      "creates": null,
      "raw": "0xf86980850ba43b740083015f9094793ae8c1b1a160bfc07bfb0d04f85eab1a71f4f280843ba150361ca0213684d33a132079dc68a04b36e429b97646b9839d81c99f20f40fa68a372a60a06877324c5e073b738b165f8b28130e278d892250735346ceb43115e4b21b6163",
      "networkId": 0,
      "chainId": 0
    },
    {
      "hash": "0x6fe064642bbc74456d0e4c2d0f7b46f44c4baf5fc00f3b76badb370399fd6933",
      "blockHash": "0x1cadf0c191bfe768d9c894c80de3e12d7d5ebfcd16ea42df3723f52473b3f6e1",
      "blockNumber": 68590,
      "transactionIndex": 24,
      "confirmations": null,
      "from": "0xe5Dc73f0CB3E662193A111eA4263BC1ef1d66dAd",
      "gasPrice": {
        "_hex": "0xba43b7400"
      },
      "gasLimit": {
        "_hex": "0x15f90"
      },
      "to": "0x793AE8C1b1a160BFc07BFB0d04F85eab1A71F4f2",
      "value": {
        "_hex": "0x0"
      },
      "nonce": 0,
      "data": "0x3ba15036",
      "r": "0xc944a73b9cefba5b6c63a58bbd5f0dad0a4fa52494a072343906d75c982c76c8",
      "s": "0x29d917603eddab70df5eeb0c36cdd992444a3f3e12d8daa0cf2652bbdcd3714b",
      "v": 27,
      "creates": null,
      "raw": "0xf86980850ba43b740083015f9094793ae8c1b1a160bfc07bfb0d04f85eab1a71f4f280843ba150361ba0c944a73b9cefba5b6c63a58bbd5f0dad0a4fa52494a072343906d75c982c76c8a029d917603eddab70df5eeb0c36cdd992444a3f3e12d8daa0cf2652bbdcd3714b",
      "networkId": 0,
      "chainId": 0
    },
    {
      "hash": "0xdcfc5ed18d72c93f2540b4cc7131e59d3c12965a4ac5c5dbaab074845acd4fd2",
      "blockHash": "0x1cadf0c191bfe768d9c894c80de3e12d7d5ebfcd16ea42df3723f52473b3f6e1",
      "blockNumber": 68590,
      "transactionIndex": 25,
      "confirmations": null,
      "from": "0x4d3949C1AF1bcF312ef354c9DF95Bb0f35A0086B",
      "gasPrice": {
        "_hex": "0xba43b7400"
      },
      "gasLimit": {
        "_hex": "0x15f90"
      },
      "to": "0x793AE8C1b1a160BFc07BFB0d04F85eab1A71F4f2",
      "value": {
        "_hex": "0x0"
      },
      "nonce": 0,
      "data": "0x3ba15036",
      "r": "0xb943e7de372f137f1b95d33c36f5228d86b79b15c5ce212e62395bb839f56947",
      "s": "0x70417d72bd8a7f9c0df44fd7fccded1955a60f1787405113d2879efbb0acfd4a",
      "v": 28,
      "creates": null,
      "raw": "0xf86980850ba43b740083015f9094793ae8c1b1a160bfc07bfb0d04f85eab1a71f4f280843ba150361ca0b943e7de372f137f1b95d33c36f5228d86b79b15c5ce212e62395bb839f56947a070417d72bd8a7f9c0df44fd7fccded1955a60f1787405113d2879efbb0acfd4a",
      "networkId": 0,
      "chainId": 0
    }
  ]
}