{
  "hash": "0xe0006049ae08a6359aa9330a8c5a5515e3ff7be445ffc2907f5ecedb37c52a41",
  "parentHash": "0xce3012bba8a4de849d259e8867dfc7703a9e85aaaf4d3a2fdce1ce42de4d48c3",
  "number": 47137,
  "timestamp": 1438934761,
  "nonce": "0x38fb3d860d196296",
  "difficulty": 1460961262844,
  "gasLimit": {
    "_hex": "0x9ae9"
  },
  "gasUsed": {
    "_hex": "0x5208"
  },
  "miner": "0x4705E331214F54eE19677a920BeB64e5206Fd610",
  "extraData": "0x476574682f76312e302e312f6c696e75782f676f312e342e32",
  "transactions": [
    {
      "hash": "0x876b83cc07f0ecf888e4a603ad6e8b4aaddde373dad6751266db40fd87aa76b6",
      "blockHash": "0xe0006049ae08a6359aa9330a8c5a5515e3ff7be445ffc2907f5ecedb37c52a41",
      "blockNumber": 47137,
      "transactionIndex": 0,
      "confirmations": null,
      "from": "0xe6A7a1d47ff21B6321162AEA7C6CB457D5476Bca",
      "gasPrice": {
        "_hex": "0xcb9c1dead"
      },
      "gasLimit": {
        "_hex": "0x5208"
      },
      "to": "0x8d92b9eb5d4Abe7d993CebD93D97CeE06D79F369",
      "value": {
        "_hex": "0x35027ff191f177e8"
      },
      "nonce": 52,
      "data": "0x",
      "r": "0x982ed058091e06549c6755db8ba9ff5ad6adb6457ac7d502ee9be6e79092ba86",
      "s": "0x4c8b26c161c6a795562e2bc7ca88b9628bb6f238fb2ec8dfd7d43069c3077902",
      "v": 27,
      "creates": null,
      "raw": "0xf86c34850cb9c1dead825208948d92b9eb5d4abe7d993cebd93d97cee06d79f3698835027ff191f177e8801ba0982ed058091e06549c6755db8ba9ff5ad6adb6457ac7d502ee9be6e79092ba86a04c8b26c161c6a795562e2bc7ca88b9628bb6f238fb2ec8dfd7d43069c3077902",
      "networkId": 0,
      "chainId": 0
    }
  ]
}