{
  "hash": "0x2bd2a04a521b1a5d5909c12a8938578347994acf831e693c426f71bb9b0aefcb",
  "parentHash": "0x3881d2fddcd87b9a1d507c21ba80d5e2ef47f33844a8767db1564f325b568fcd",
  "number": 105418,
  "timestamp": 1439887224,
  "nonce": "0x042ab89eed3c2287",
  "difficulty": 4371798199611,
  "gasLimit": {
    "_hex": "0x2fefd8"
  },
  "gasUsed": {
    "_hex": "0x5208"
  },
  "miner": "0xe6A7a1d47ff21B6321162AEA7C6CB457D5476Bca",
  "extraData": "0x476574682f76312e302e312d38326566323666362f6c696e75782f676f312e34",
  "transactions": [
    {
      "hash": "0x70614bafcdcae2797783010d8b9cc2d3bd8128aeb2082e0b3e009d13f12d1b84",
      "blockHash": "0x2bd2a04a521b1a5d5909c12a8938578347994acf831e693c426f71bb9b0aefcb",
      "blockNumber": 105418,
      "transactionIndex": 0,
      "confirmations": null,
      "from": "0x04a6c6a293340Fc3f2244D097b0CFD84d5317bA5",
      "gasPrice": {
        "_hex": "0xd06cde3c5"
      },
      "gasLimit": {
        "_hex": "0x5208"
      },
      "to": "0x32Be343B94f860124dC4fEe278FDCBD38C102D88",
      "value": {
        "_hex": "0x23f841d44c8e80000"
      },
      "nonce": 4,
      "data": "0x",
      "r": "0x5c034b99968a992f699120b634d1fc524720666570ade70f2193835c27c82c8d",
      "s": "0x6cb0219c84ba2aacc6ae5fb0be57568b1f89e1e8956f7015ed076f02d6526bc5",
      "v": 27,
      "creates": null,
      "raw": "0xf86d04850d06cde3c58252089432be343b94f860124dc4fee278fdcbd38c102d8889023f841d44c8e80000801ba05c034b99968a992f699120b634d1fc524720666570ade70f2193835c27c82c8da06cb0219c84ba2aacc6ae5fb0be57568b1f89e1e8956f7015ed076f02d6526bc5",
      "networkId": 0,
      "chainId": 0
    }
  ]
}