{
  "hash": "0x06ff63182578af94e4710f1272b1be205b3085c77df65848aaf9560acdc2324e",
  "parentHash": "0x4308895a3eeaefb30a2e0b62651f5b1cf6e78faab78e6830979ad3c9a397c8cf",
  "number": 77437,
  "timestamp": 1439437200,
  "nonce": "0xed705cda30705fe0",
  "difficulty": 2237077016295,
  "gasLimit": {
    "_hex": "0x2fefd8"
  },
  "gasUsed": {
    "_hex": "0xa410"
  },
  "miner": "0x01d9DA08cc6Fb97c0DE1B6F4C28910A0859Ed1A1",
  "extraData": "0x476574682f76312e302e312f6c696e75782f676f312e342e32",
  "transactions": [
    {
      "hash": "0xff38e16207974d58ce6d368f97d1d542af026d807d83a1e4e5eedc97bad5a327",
      "blockHash": "0x06ff63182578af94e4710f1272b1be205b3085c77df65848aaf9560acdc2324e",
      "blockNumber": 77437,
      "transactionIndex": 0,
      "confirmations": null,
      "from": "0x24C0B9E42a508F3cB1A66c03dEf2Baf4c4555a89",
      "gasPrice": {
        "_hex": "0xd534db5e5"
      },
      "gasLimit": {
        "_hex": "0x5208"
      },
      "to": "0x32Be343B94f860124dC4fEe278FDCBD38C102D88",
      "value": {
        "_hex": "0x4fc3e6355afce40000"
      },
      "nonce": 2,
      "data": "0x",
      "r": "0x06573900fa137abbce4a8306b0215a1415acac2869b83876558a16aba6a402dc",
      "s": "0x7efa0fc83f59799e01c2e0322bf5ecfd99485980a1b5d5e36a997c7d94652e3b",
      "v": 28,
      "creates": null,
      "raw": "0xf86d02850d534db5e58252089432be343b94f860124dc4fee278fdcbd38c102d88894fc3e6355afce40000801ca006573900fa137abbce4a8306b0215a1415acac2869b83876558a16aba6a402dca07efa0fc83f59799e01c2e0322bf5ecfd99485980a1b5d5e36a997c7d94652e3b",
      "networkId": 0,
      "chainId": 0
    },
    {
      "hash": "0xc46408ed4b41e29fafe672a46e5a965253abcb7eb4b35350e8523cbb90bbde1c",
      "blockHash": "0x06ff63182578af94e4710f1272b1be205b3085c77df65848aaf9560acdc2324e",
      "blockNumber": 77437,
      "transactionIndex": 1,
      "confirmations": null,
      "from": "0x7c4ED2709192c2615e2E577f047050582F0a9774",
      "gasPrice": {
        "_hex": "0xd534db5e5"
      },
      "gasLimit": {
        "_hex": "0x5208"
      },
      "to": "0x32Be343B94f860124dC4fEe278FDCBD38C102D88",
      "value": {
        "_hex": "0x1a05123f31f419000"
      },
      "nonce": 0,
      "data": "0x",
      "r": "0x09273dd67a4b890b825d98aa249851fdf154690035a6445c7a26e4057e63857b",
      "s": "0x4a0e104aeeb87f43fc15891704c571c28b51df6a96a9718ded9c5250c541d464",
      "v": 27,
      "creates": null,
      "raw": "0xf86d80850d534db5e58252089432be343b94f860124dc4fee278fdcbd38c102d888901a05123f31f419000801ba009273dd67a4b890b825d98aa249851fdf154690035a6445c7a26e4057e63857ba04a0e104aeeb87f43fc15891704c571c28b51df6a96a9718ded9c5250c541d464",
      "networkId": 0,
      "chainId": 0
    }
  ]
}