{
  "hash": "0x2a94dfe33f927e8406d8c28057c9c05a0aa73f8689eba8d8652e186c52f79ad1",
  "parentHash": "0xfe1a7bb46a22d12dd2ba5c4fe8ebe18ae6f71ed3811619bb2636e2bba0c6aa08",
  "number": 50531,
  "timestamp": 1438990764,
  "nonce": "0xa77a1b86ab3790df",
  "difficulty": 1515581812404,
  "gasLimit": {
    "_hex": "0x68390"
  },
  "gasUsed": {
    "_hex": "0x546c"
  },
  "miner": "0xbcB2E3693d246E1fc00348754334BadEb88b2a11",
  "extraData": "0x476574682f76312e302e302f6c696e75782f676f312e342e32",
  "transactions": [
    {
      "hash": "0xcb6ca7a6214fc247741e89c03a48bfec326fee88e24101799ee46201002144c8",
      "blockHash": "0x2a94dfe33f927e8406d8c28057c9c05a0aa73f8689eba8d8652e186c52f79ad1",
      "blockNumber": 50531,
      "transactionIndex": 0,
      "confirmations": null,
      "from": "0xE528A0e5a267D667e9393a6584E19b34Dc9BE973",
      "gasPrice": {
        "_hex": "0x110c8f7d8de"
      },
      "gasLimit": {
        "_hex": "0xc350"
      },
      "to": "0x2910543Af39abA0Cd09dBb2D50200b3E800A63D2",
      "value": {
        "_hex": "0x363cba091fb2520000"
      },
      "nonce": 4,
      "data": "0x454e52344851514d52",
      "r": "0x2daac04bfe88eefbcb8e2c416d25d9b8aeee9ade184bbf0244bb6a2762c2b752",
      "s": "0x8fdd898fd0502b842c8985cdc8610d0a87b61e92d1a1d9b13256bf99f81224df",
      "v": 28,
      "creates": null,
      "raw": "0xf87704860110c8f7d8de82c350942910543af39aba0cd09dbb2d50200b3e800a63d289363cba091fb252000089454e52344851514d521ca02daac04bfe88eefbcb8e2c416d25d9b8aeee9ade184bbf0244bb6a2762c2b752a08fdd898fd0502b842c8985cdc8610d0a87b61e92d1a1d9b13256bf99f81224df",
      "networkId": 0,
      "chainId": 0
    }
  ]
}