{
  "hash": "0x23e1eef6a06b0d9813a84e3f8d2af3ac369fdb65aa89772bfda58e8c6bf9b209",
  "parentHash": "0x7c5f34d10bf0732144da29ee315c973a65012ace942c08003ff982a1b800fe9e",
  "number": 71866,
  "timestamp": 1439343156,
  "nonce": "0xb89cfb831c71ef4e",
  "difficulty": 2168630671879,
  "gasLimit": {
    "_hex": "0x2fefd8"
  },
  "gasUsed": {
    "_hex": "0xaec1"
  },
  "miner": "0x9dD134D14D1e65F84B706d6F205cd5B1CD03a46b",
  "extraData": "0x",
  "transactions": [
    {
      "hash": "0xafbc1f916dc99668b5aad3006abc62950a516453677cdab8a23898eb85cb6d6a",
      "blockHash": "0x23e1eef6a06b0d9813a84e3f8d2af3ac369fdb65aa89772bfda58e8c6bf9b209",
      "blockNumber": 71866,
      "transactionIndex": 0,
      "confirmations": null,
      "from": "0x17580B766f7453525ca4C6A88b01b50570EA088C",
      "gasPrice": {
        "_hex": "0xd8dd002aa"
      },
      "gasLimit": {
        "_hex": "0x61a80"
      },
      "to": "0x5Fe5B7546D1628f7348B023A0393de1FC825A4fD",
      "value": {
        "_hex": "0x53444835ec580000"
      },
      "nonce": 275,
      "data": "0xb595b8b50000000000000000000000000000000000000000000000000000000000000001",
      "r": "0x1f2349e94e7b82260a1a265bc7946e54af35f6da8c5973897008c40df350b1d1",
      "s": "0x2cd6f7af5896994cbb653cc57ffed3b3b5467928c74ce53e6c26e738cc0f34e7",
      "v": 28,
      "creates": null,
      "raw": "0xf893820113850d8dd002aa83061a80945fe5b7546d1628f7348b023a0393de1fc825a4fd8853444835ec580000a4b595b8b500000000000000000000000000000000000000000000000000000000000000011ca01f2349e94e7b82260a1a265bc7946e54af35f6da8c5973897008c40df350b1d1a02cd6f7af5896994cbb653cc57ffed3b3b5467928c74ce53e6c26e738cc0f34e7",
      "networkId": 0,
      "chainId": 0
    }
  ]
}