{
  "hash": "0xf00bdc5b3e9867109b6ae795a04601d84e7d6b98b753ad7987f0e47c46139d58",
  "parentHash": "0x2fce0eb3c36ccb21f78ce6bb5c698dfa13787c8d895abb37c55a8f079cdb6b76",
  "number": 110352,
  "timestamp": 1439972344,
  "nonce": "0x3bc96aa6c5b51c4c",
  "difficulty": 4360702237091,
  "gasLimit": {
    "_hex": "0x2fefd8"
  },
  "gasUsed": {
    "_hex": "0x42a68"
  },
  "miner": "0xcf00A85f3826941e7A25BFcF9Aac575d40410852",
  "extraData": "0x476574682f76312e302e312f77696e646f77732f676f312e342e32",
  "transactions": [
    {
      "hash": "0x5c62b02f7d28123cdfdc216d3c4cbca19d9abd65ccf052b893181ebcb275c8fb",
      "blockHash": "0xf00bdc5b3e9867109b6ae795a04601d84e7d6b98b753ad7987f0e47c46139d58",
      "blockNumber": 110352,
      "transactionIndex": 0,
      "confirmations": null,
      "from": "0xb71F25995CC5De7A465fB37688126E07654Fa662",
      "gasPrice": {
        "_hex": "0xdb4e5f764"
      },
      "gasLimit": {
        "_hex": "0x5208"
      },
      "to": "0x32Be343B94f860124dC4fEe278FDCBD38C102D88",
      "value": {
        "_hex": "0x1a079a4272582800"
      },
      "nonce": 9,
      "data": "0x",
      "r": "0xbcc51597ce4e18779bed8d2ad5edf33ab2ee6131cfa1bb57053a5d696984ffa5",
      "s": "0x2722f5c85c564aacd22698a2dedc1ebbe53fcdc121ee2aaa993405301328184b",
      "v": 28,
      "creates": null,
      "raw": "0xf86c09850db4e5f7648252089432be343b94f860124dc4fee278fdcbd38c102d88881a079a4272582800801ca0bcc51597ce4e18779bed8d2ad5edf33ab2ee6131cfa1bb57053a5d696984ffa5a02722f5c85c564aacd22698a2dedc1ebbe53fcdc121ee2aaa993405301328184b",
      "networkId": 0,
      "chainId": 0
    },
    {
      "hash": "0xaa069e94f79f5d5b8fffcbfc044ba37dcdaf08f2487bf53447c7a198df678f9c",
      "blockHash": "0xf00bdc5b3e9867109b6ae795a04601d84e7d6b98b753ad7987f0e47c46139d58",
      "blockNumber": 110352,
      "transactionIndex": 1,
      "confirmations": null,
      "from": "0xe6A7a1d47ff21B6321162AEA7C6CB457D5476Bca",
      "gasPrice": {
        "_hex": "0xcbf9ff188"
      },
      "gasLimit": {
        "_hex": "0x55f0"
      },
      "to": "0x3A652ae439FFB94328afa58E11F544aFB5B85f7A",
      "value": {
        "_hex": "0x82443066eb7207740"
      },
      "nonce": 4574,
      "data": "0x",
      "r": "0x7de719b7934bda378201f818980649b0c7c39c5ef96e99877d99a62cee113d8a",
      "s": "0x0be56d13c793a50b3e181c571880ce12b1023e118eaa0946cf69899b338b6395",
      "v": 28,
      "creates": null,
      "raw": "0xf86f8211de850cbf9ff1888255f0943a652ae439ffb94328afa58e11f544afb5b85f7a89082443066eb7207740801ca07de719b7934bda378201f818980649b0c7c39c5ef96e99877d99a62cee113d8aa00be56d13c793a50b3e181c571880ce12b1023e118eaa0946cf69899b338b6395",
      "networkId": 0,
      "chainId": 0
    },
    {
      "hash": "0x45fb50f5cfbac9fd12d397a9daf152aa030a4973145d51b3d01b387e4ac83dca",
      "blockHash": "0xf00bdc5b3e9867109b6ae795a04601d84e7d6b98b753ad7987f0e47c46139d58",
      "blockNumber": 110352,
      "transactionIndex": 2,
      "confirmations": null,
      "from": "0xe6A7a1d47ff21B6321162AEA7C6CB457D5476Bca",
      "gasPrice": {
        "_hex": "0xcbf9ff188"
      },
      "gasLimit": {
        "_hex": "0x55f0"
      },
      "to": "0x25A0be9f6fCbDE4F61024B86a33dd80F7cbB3cEc",
      "value": {
        "_hex": "0x84d3c7af7327f7cf0"
      },
      "nonce": 4575,
      "data": "0x",
      "r": "0x451d8bf6212ed0b8e1ffd556fd145fe5f022675d547dc3c836ab6d47e4518949",
      "s": "0x6ed0d107edd9eb51ffc40a040f8767a6059820b9cf0e1bae548683c36cb79a14",
      "v": 27,
      "creates": null,
      "raw": "0xf86f8211df850cbf9ff1888255f09425a0be9f6fcbde4f61024b86a33dd80f7cbb3cec89084d3c7af7327f7cf0801ba0451d8bf6212ed0b8e1ffd556fd145fe5f022675d547dc3c836ab6d47e4518949a06ed0d107edd9eb51ffc40a040f8767a6059820b9cf0e1bae548683c36cb79a14",
      "networkId": 0,
      "chainId": 0
    },
    {
      "hash": "0x70ddb952c6dad01a95cef4086a823c78b3b35da1dca033b04a85005ecaa1aa2e",
      "blockHash": "0xf00bdc5b3e9867109b6ae795a04601d84e7d6b98b753ad7987f0e47c46139d58",
      "blockNumber": 110352,
      "transactionIndex": 3,
      "confirmations": null,
      "from": "0xe6A7a1d47ff21B6321162AEA7C6CB457D5476Bca",
      "gasPrice": {
        "_hex": "0xcbf9ff188"
      },
      "gasLimit": {
        "_hex": "0x55f0"
      },
      "to": "0xFa9F15F96E3244897308A95163a62861685e8917",
      "value": {
        "_hex": "0x861d8b981bfa70c00"
      },
      "nonce": 4576,
      "data": "0x",
      "r": "0x966ca4e4cd72ab0731f1e2659f5865dbc0292aedfbd2c84dd855c02e9c2dcc30",
      "s": "0x341688b712353abbb0803ad8df7e5bd8124f79e7408d01682caaf3904dcd6fdb",
      "v": 28,
      "creates": null,
      "raw": "0xf86f8211e0850cbf9ff1888255f094fa9f15f96e3244897308a95163a62861685e8917890861d8b981bfa70c00801ca0966ca4e4cd72ab0731f1e2659f5865dbc0292aedfbd2c84dd855c02e9c2dcc30a0341688b712353abbb0803ad8df7e5bd8124f79e7408d01682caaf3904dcd6fdb",
      "networkId": 0,
      "chainId": 0
    },
    {
      "hash": "0x0deffd7e69c3ae4bc78c59432728cdf62b764da7cd44fd9a0c62a1ed1c555ac7",
      "blockHash": "0xf00bdc5b3e9867109b6ae795a04601d84e7d6b98b753ad7987f0e47c46139d58",
      "blockNumber": 110352,
      "transactionIndex": 4,
      "confirmations": null,
      "from": "0xe6A7a1d47ff21B6321162AEA7C6CB457D5476Bca",
      "gasPrice": {
        "_hex": "0xcbf9ff188"
      },
      "gasLimit": {
        "_hex": "0x55f0"
      },
      "to": "0x665646727edaAEbB32B5F1A9b4e4F3BD867AA8fB",
      "value": {
        "_hex": "0x8a0a63a609bc482b0"
      },
      "nonce": 4577,
      "data": "0x",
      "r": "0x5f91df2df07788e5b2824c7b6d7228f9183e52b665e8f7f2e9d8f2967ff7959c",
      "s": "0x3489cefb9695695d18b22cb42071d387a7f81069a0311ac4046bc3545da58b63",
      "v": 28,
      "creates": null,
      "raw": "0xf86f8211e1850cbf9ff1888255f094665646727edaaebb32b5f1a9b4e4f3bd867aa8fb8908a0a63a609bc482b0801ca05f91df2df07788e5b2824c7b6d7228f9183e52b665e8f7f2e9d8f2967ff7959ca03489cefb9695695d18b22cb42071d387a7f81069a0311ac4046bc3545da58b63",
      "networkId": 0,
      "chainId": 0
    },
    {
      "hash": "0x2725bb4e7f4897530527e22ce5bc8bcd1b138e0b92b6c4ece4132656408350b4",
      "blockHash": "0xf00bdc5b3e9867109b6ae795a04601d84e7d6b98b753ad7987f0e47c46139d58",
      "blockNumber": 110352,
      "transactionIndex": 5,
      "confirmations": null,
      "from": "0xe6A7a1d47ff21B6321162AEA7C6CB457D5476Bca",
      "gasPrice": {
        "_hex": "0xcbf9ff188"
      },
      "gasLimit": {
        "_hex": "0x55f0"
      },
      "to": "0x123843545FB525C8E134c9A5F15ADA6865cc3848",
      "value": {
        "_hex": "0x8db48f11f97d3f9d0"
      },
      "nonce": 4578,
      "data": "0x",
      "r": "0xb0cf90f423de7a50efcfae608179f475f0f1c71f220174911fa0d98ca438380a",
      "s": "0x7028eda63c80271f457cd308d8f67e0b9ecfd64c84ce8d56301b81ad81e4c0d7",
      "v": 28,
      "creates": null,
      "raw": "0xf86f8211e2850cbf9ff1888255f094123843545fb525c8e134c9a5f15ada6865cc38488908db48f11f97d3f9d0801ca0b0cf90f423de7a50efcfae608179f475f0f1c71f220174911fa0d98ca438380aa07028eda63c80271f457cd308d8f67e0b9ecfd64c84ce8d56301b81ad81e4c0d7",
      "networkId": 0,
      "chainId": 0
    },
    {
      "hash": "0xf592ff27e407d2fcdad23755adfdf8d330db7a3ecbe21116bbf472f7e1b6fb8f",
      "blockHash": "0xf00bdc5b3e9867109b6ae795a04601d84e7d6b98b753ad7987f0e47c46139d58",
      "blockNumber": 110352,
      "transactionIndex": 6,
      "confirmations": null,
      "from": "0xe6A7a1d47ff21B6321162AEA7C6CB457D5476Bca",
      "gasPrice": {
        "_hex": "0xcbf9ff188"
      },
      "gasLimit": {
        "_hex": "0x55f0"
      },
      "to": "0x59cC965F1643a68ad7a4272ff1654d4af4343ea7",
      "value": {
        "_hex": "0x9996899c742497920"
      },
      "nonce": 4579,
      "data": "0x",
      "r": "0x78f7ceabbc872f3c746a47bd08997e40a972405519dc423c97e1bf117612b63c",
      "s": "0x576988d9957bd132e50198415ee274ad11cceb83dd171e25ede4053e55d8ce75",
      "v": 28,
      "creates": null,
      "raw": "0xf86f8211e3850cbf9ff1888255f09459cc965f1643a68ad7a4272ff1654d4af4343ea78909996899c742497920801ca078f7ceabbc872f3c746a47bd08997e40a972405519dc423c97e1bf117612b63ca0576988d9957bd132e50198415ee274ad11cceb83dd171e25ede4053e55d8ce75",
      "networkId": 0,
      "chainId": 0
    },
    {
      "hash": "0x0818041e202c81e61e821149bf1618d13838b6ec50387474083c783710ed6b3d",
      "blockHash": "0xf00bdc5b3e9867109b6ae795a04601d84e7d6b98b753ad7987f0e47c46139d58",
      "blockNumber": 110352,
      "transactionIndex": 7,
      "confirmations": null,
      "from": "0xe6A7a1d47ff21B6321162AEA7C6CB457D5476Bca",
      "gasPrice": {
        "_hex": "0xcbf9ff188"
      },
      "gasLimit": {
        "_hex": "0x55f0"
      },
      "to": "0x250978C66B17d66f4167197A38b631d8900968C0",
      "value": {
        "_hex": "0x9a86ec3438f488670"
      },
      "nonce": 4580,
      "data": "0x",
      "r": "0x1d7c7a4060c25e8c5b2df55cdd71b095108102ef3401b75b0603a35be8f9e62c",
      "s": "0x500dca38a747a3d4f3d0010327f1655d6e110fb40fd9e8a55fbf6311d53c8f0d",
      "v": 28,
      "creates": null,
      "raw": "0xf86f8211e4850cbf9ff1888255f094250978c66b17d66f4167197a38b631d8900968c08909a86ec3438f488670801ca01d7c7a4060c25e8c5b2df55cdd71b095108102ef3401b75b0603a35be8f9e62ca0500dca38a747a3d4f3d0010327f1655d6e110fb40fd9e8a55fbf6311d53c8f0d",
      "networkId": 0,
      "chainId": 0
    },
    {
      "hash": "0x69fb9b26e7ec92e7b73b119d8295fca4b05f7585ff2fa3288d0fe6a4fd614890",
      "blockHash": "0xf00bdc5b3e9867109b6ae795a04601d84e7d6b98b753ad7987f0e47c46139d58",
      "blockNumber": 110352,
      "transactionIndex": 8,
      "confirmations": null,
      "from": "0xe6A7a1d47ff21B6321162AEA7C6CB457D5476Bca",
      "gasPrice": {
        "_hex": "0xcbf9ff188"
      },
      "gasLimit": {
        "_hex": "0x55f0"
      },
      "to": "0xF2d2AfF1320476cb8C6b607199D23175cc595693",
      "value": {
        "_hex": "0xa4f4e2e0e926b0000"
      },
      "nonce": 4581,
      "data": "0x",
      "r": "0x60a8d47095e3b2156b81b7658e822fa403b032120ac0af9560f8e24c95a2791b",
      "s": "0x14ebc7ac68483e0434d4bbcac5fe3e402436d524e9db884c4c3b301a48802cf3",
      "v": 28,
      "creates": null,
      "raw": "0xf86f8211e5850cbf9ff1888255f094f2d2aff1320476cb8c6b607199d23175cc595693890a4f4e2e0e926b0000801ca060a8d47095e3b2156b81b7658e822fa403b032120ac0af9560f8e24c95a2791ba014ebc7ac68483e0434d4bbcac5fe3e402436d524e9db884c4c3b301a48802cf3",
      "networkId": 0,
      "chainId": 0
    },
    {
      "hash": "0xe97f70163abc04d5de7541baf4f2e9b0e8d6254565cd5dc821139125d3a831a9",
      "blockHash": "0xf00bdc5b3e9867109b6ae795a04601d84e7d6b98b753ad7987f0e47c46139d58",
      "blockNumber": 110352,
      "transactionIndex": 9,
      "confirmations": null,
      "from": "0xe6A7a1d47ff21B6321162AEA7C6CB457D5476Bca",
      "gasPrice": {
        "_hex": "0xcbf9ff188"
      },
      "gasLimit": {
        "_hex": "0x55f0"
      },
      "to": "0x4E66F49aAbe24B61cC417cf717BCd89862C69372",
      "value": {
        "_hex": "0xab0ada774e469f2d0"
      },
      "nonce": 4582,
      "data": "0x",
      "r": "0x4dba478fbf316ad39db095314900a3e92e3b1632cac9378087796c55ed7ac4e7",
      "s": "0x3e07eade712fc34c0dd1212ec5fd6bbd43e68fa05d97af5218d1f921f53d1f8f",
      "v": 28,
      "creates": null,
      "raw": "0xf86f8211e6850cbf9ff1888255f0944e66f49aabe24b61cc417cf717bcd89862c69372890ab0ada774e469f2d0801ca04dba478fbf316ad39db095314900a3e92e3b1632cac9378087796c55ed7ac4e7a03e07eade712fc34c0dd1212ec5fd6bbd43e68fa05d97af5218d1f921f53d1f8f",
      "networkId": 0,
      "chainId": 0
    },
    {
      "hash": "0xf9e76a2b86c028ecae7d0b56448cda19449894c21bccb01c86205c38233b7ae4",
      "blockHash": "0xf00bdc5b3e9867109b6ae795a04601d84e7d6b98b753ad7987f0e47c46139d58",
      "blockNumber": 110352,
      "transactionIndex": 10,
      "confirmations": null,
      "from": "0xe6A7a1d47ff21B6321162AEA7C6CB457D5476Bca",
      "gasPrice": {
        "_hex": "0xcbf9ff188"
      },
      "gasLimit": {
        "_hex": "0x55f0"
      },
      "to": "0x837A2A346557050c8cF0fb24b84Aa695E8Add19f",
      "value": {
        "_hex": "0xbb8e224d93fd0fbe0"
      },
      "nonce": 4583,
      "data": "0x",
      "r": "0xee49524e3c31d0c573eb3b0e0651d9e4e2744c32eed1fa8397ab139359210b65",
      "s": "0x226ecde4f4969c59c28182d157bc9177d11cd88adf9a539313fa4c6251fa06d5",
      "v": 27,
      "creates": null,
      "raw": "0xf86f8211e7850cbf9ff1888255f094837a2a346557050c8cf0fb24b84aa695e8add19f890bb8e224d93fd0fbe0801ba0ee49524e3c31d0c573eb3b0e0651d9e4e2744c32eed1fa8397ab139359210b65a0226ecde4f4969c59c28182d157bc9177d11cd88adf9a539313fa4c6251fa06d5",
      "networkId": 0,
      "chainId": 0
    },
    {
      "hash": "0x47608e6471fbd55438fb72780daed13c43046d97faa8483618da31473f2d268b",
      "blockHash": "0xf00bdc5b3e9867109b6ae795a04601d84e7d6b98b753ad7987f0e47c46139d58",
      "blockNumber": 110352,
      "transactionIndex": 11,
      "confirmations": null,
      "from": "0xe6A7a1d47ff21B6321162AEA7C6CB457D5476Bca",
      "gasPrice": {
        "_hex": "0xcbf9ff188"
      },
      "gasLimit": {
        "_hex": "0x55f0"
      },
      "to": "0x795dAa7Cd2C81b20de241CE0751981faC4930070",
      "value": {
        "_hex": "0xcb77455e6b82cf1a0"
      },
      "nonce": 4584,
      "data": "0x",
      "r": "0xc9db2fd1ec69416613a8efb154d4df98ec240d0cdf71903f7f78cd6349a6a670",
      "s": "0x6adeae7e97f9ced3b4a3ce3d9cb3e36c4f495431e1bee7c0bf7d1a5837a40570",
      "v": 27,
      "creates": null,
      "raw": "0xf86f8211e8850cbf9ff1888255f094795daa7cd2c81b20de241ce0751981fac4930070890cb77455e6b82cf1a0801ba0c9db2fd1ec69416613a8efb154d4df98ec240d0cdf71903f7f78cd6349a6a670a06adeae7e97f9ced3b4a3ce3d9cb3e36c4f495431e1bee7c0bf7d1a5837a40570",
      "networkId": 0,
      "chainId": 0
    },
    {
      "hash": "0xe41fd48616bcc92493e333f17e43e480b9699132faecf2ef10f9e6b51bebc1b5",
      "blockHash": "0xf00bdc5b3e9867109b6ae795a04601d84e7d6b98b753ad7987f0e47c46139d58",
      "blockNumber": 110352,
      "transactionIndex": 12,
      "confirmations": null,
      "from": "0xe6A7a1d47ff21B6321162AEA7C6CB457D5476Bca",
      "gasPrice": {
        "_hex": "0xcbf9ff188"
      },
      "gasLimit": {
        "_hex": "0x55f0"
      },
      "to": "0x0912001e29BbaF75C23069A22D9B9602BE86FEB7",
      "value": {
        "_hex": "0xd310c115218290660"
      },
      "nonce": 4585,
      "data": "0x",
      "r": "0xab435570b1f6c0568a9e4728f74aff85a2bbe3ee132787254067f0b4ffd4126c",
      "s": "0x07542309753a2323d738251542e147c763e6b4d7e40cdb1df118ac45c644be85",
      "v": 28,
      "creates": null,
      "raw": "0xf86f8211e9850cbf9ff1888255f0940912001e29bbaf75c23069a22d9b9602be86feb7890d310c115218290660801ca0ab435570b1f6c0568a9e4728f74aff85a2bbe3ee132787254067f0b4ffd4126ca007542309753a2323d738251542e147c763e6b4d7e40cdb1df118ac45c644be85",
      "networkId": 0,
      "chainId": 0
    }
  ]
}