{
  "hash": "0x87f53bf62cbe92d2eba5e9fba21642c1d8cba56659b0118d8afaa2102286902e",
  "parentHash": "0x2b60c5376eceaef224b5094db2fa82984dab0d05ba07b54f959fccb44de56e57",
  "number": 102445,
  "timestamp": 1439838183,
  "nonce": "0x29aff60110f4c0b1",
  "difficulty": 3956782349122,
  "gasLimit": {
    "_hex": "0x2fefd8"
  },
  "gasUsed": {
    "_hex": "0x546c"
  },
  "miner": "0x580992B51e3925e23280EfB93d3047C82f17E038",
  "extraData": "0x476574682f76312e302e312f6c696e75782f676f312e342e32",
  "transactions": [
    {
      "hash": "0x461641f24d999799c40943e154a3a70dd968d90a04e233be8d88adf31a9afdba",
      "blockHash": "0x87f53bf62cbe92d2eba5e9fba21642c1d8cba56659b0118d8afaa2102286902e",
      "blockNumber": 102445,
      "transactionIndex": 0,
      "confirmations": null,
      "from": "0xdd2BDfA917c1f310E6Fa35aa8af16939c233CD7D",
      "gasPrice": {
        "_hex": "0x110c8f7d8de"
      },
      "gasLimit": {
        "_hex": "0xc350"
      },
      "to": "0x2910543Af39abA0Cd09dBb2D50200b3E800A63D2",
      "value": {
        "_hex": "0x1043561a8829300000"
      },
      "nonce": 0,
      "data": "0x454e3330354b513538",
      "r": "0xf26a73db861d7000410026482ceb3338f66254e8083e1c9501b228ea56efc119",
      "s": "0xee8c14d235ace8c4428018d8eeccbbf564437fec63c2f2935dccb08c32ff8410",
      "v": 27,
      "creates": null,
      "raw": "0xf87780860110c8f7d8de82c350942910543af39aba0cd09dbb2d50200b3e800a63d2891043561a882930000089454e3330354b5135381ba0f26a73db861d7000410026482ceb3338f66254e8083e1c9501b228ea56efc119a0ee8c14d235ace8c4428018d8eeccbbf564437fec63c2f2935dccb08c32ff8410",
      "networkId": 0,
      "chainId": 0
    }
  ]
}