{
  "hash": "0x66d29dbaec9c5e5b5548e72382e476717b2b2c24d2e6bad757dfd1496b8e67a0",
  "parentHash": "0x7003c2f8b8e302438c8aec81d2d08d908eb85ac49a41bab9af5c16a893c2d5ce",
  "number": 98947,
  "timestamp": 1439781694,
  "nonce": "0xb13f7663e8bdb42a",
  "difficulty": 3851660672697,
  "gasLimit": {
    "_hex": "0x2fefd8"
  },
  "gasUsed": {
    "_hex": "0x5208"
  },
  "miner": "0x3D5292e9d2a2D31014717ff936A0F9375A5Cc8b7",
  "extraData": "0x476574682f76312e302e312f77696e646f77732f676f312e342e32",
  "transactions": [
    {
      "hash": "0xa0af1be04681160bd2554ade83d88cc54cf7f39fd09ce57b38637eec50678161",
      "blockHash": "0x66d29dbaec9c5e5b5548e72382e476717b2b2c24d2e6bad757dfd1496b8e67a0",
      "blockNumber": 98947,
      "transactionIndex": 0,
      "confirmations": null,
      "from": "0xad7210d76107F888745616FFF7979623b84F928c",
      "gasPrice": {
        "_hex": "0xd7d40ace3"
      },
      "gasLimit": {
        "_hex": "0x61a8"
      },
      "to": "0xF109ca710C0Df51c1a86dBA1B0BA0Ed038114463",
      "value": {
        "_hex": "0x4563918244f40000"
      },
      "nonce": 13,
      "data": "0x",
      "r": "0x9b36c6a4ace7aee26253a6c0ae4293defd31156186b81fecfbb22f8eafa503ac",
      "s": "0x69591c15df7a534135998b19c6a2a3f089ca2e326ba4995b088f4230198373ba",
      "v": 28,
      "creates": null,
      "raw": "0xf86c0d850d7d40ace38261a894f109ca710c0df51c1a86dba1b0ba0ed038114463884563918244f40000801ca09b36c6a4ace7aee26253a6c0ae4293defd31156186b81fecfbb22f8eafa503aca069591c15df7a534135998b19c6a2a3f089ca2e326ba4995b088f4230198373ba",
      "networkId": 0,
      "chainId": 0
    }
  ]
}