{
  "hash": "0xed015249bb50b89578e8a222f8682bbad8e050aae7f3bb74caa4b749361a0a0c",
  "parentHash": "0x5b36c05afddafaa3946f369c03e4b29f9dac8b47e916e47438b5097b023400c1",
  "number": 60484,
  "timestamp": 1439156354,
  "nonce": "0x89afd564e64a75f5",
  "difficulty": 1744909626948,
  "gasLimit": {
    "_hex": "0x2fefd8"
  },
  "gasUsed": {
    "_hex": "0x5208"
  },
  "miner": "0x88D74a59454F6cF3B51ef6b9136AFb6b9D405A88",
  "extraData": "0x476574682f76312e302e312d37666266393930632f6c696e75782f676f312e34",
  "transactions": [
    {
      "hash": "0x9cfb29b5819004998d2b7cc5634cad24edb7d646208b836fe148e9cffd1f0c48",
      "blockHash": "0xed015249bb50b89578e8a222f8682bbad8e050aae7f3bb74caa4b749361a0a0c",
      "blockNumber": 60484,
      "transactionIndex": 0,
      "confirmations": null,
      "from": "0x14Eec09Bf03E352bD6Ff1B1E876bE664CeFfD0cf",
      "gasPrice": {
        "_hex": "0xdf0a0288c"
      },
      "gasLimit": {
        "_hex": "0x5208"
      },
      "to": "0xb583f9403De6C5B2c83D7e2DE9928331176071b8",
      "value": {
        "_hex": "0x1142b0090b6460000"
      },
      "nonce": 1,
      "data": "0x",
      "r": "0xa775326f7ec8bf420049da884d5a1d2fa1361eff94aa973ce9b17d6bce77a531",
      "s": "0x080059b069d92456d863edc069f703166c96adbb8cbb778b0d6316a024965355",
      "v": 27,
      "creates": null,
      "raw": "0xf86d01850df0a0288c82520894b583f9403de6c5b2c83d7e2de9928331176071b88901142b0090b6460000801ba0a775326f7ec8bf420049da884d5a1d2fa1361eff94aa973ce9b17d6bce77a531a0080059b069d92456d863edc069f703166c96adbb8cbb778b0d6316a024965355",
      "networkId": 0,
      "chainId": 0
    }
  ]
}