{
  "hash": "0x8887a904091172816fb18cf96426b13d021bb614e42f2badf2e781d954357450",
  "parentHash": "0x8edf9e6318559dbac11968d39bf1cca20c76621198adb0478204c2cf1ac0577e",
  "number": 76841,
  "timestamp": 1439427188,
  "nonce": "0x2013daf3580a0515",
  "difficulty": 2232870626040,
  "gasLimit": {
    "_hex": "0x2fefd8"
  },
  "gasUsed": {
    "_hex": "0xa410"
  },
  "miner": "0xf927a40C8B7F6E07c5af7FA2155B4864a4112B13",
  "extraData": "0x",
  "transactions": [
    {
      "hash": "0xf31e50e396abcebc6f757e4830c09c34b16df947cc91bd07a16a73dd58d40ec1",
      "blockHash": "0x8887a904091172816fb18cf96426b13d021bb614e42f2badf2e781d954357450",
      "blockNumber": 76841,
      "transactionIndex": 0,
      "confirmations": null,
      "from": "0x32Be343B94f860124dC4fEe278FDCBD38C102D88",
      "gasPrice": {
        "_hex": "0xdc2901302"
      },
      "gasLimit": {
        "_hex": "0x5208"
      },
      "to": "0x9b7999611FD5eFF3ef9A86653490c42E83ED4B8E",
      "value": {
        "_hex": "0x65748eb4431710000"
      },
      "nonce": 359,
      "data": "0x",
      "r": "0x10f648579c7d70b23429bf4c3a2002006d9e253c75f10c1f3639ac8551bae21d",
      "s": "0x0b1c6381e5df814f9909e5146bbbdd1fb6aa6df1c7eb5a66c9aeaf0ba518c06f",
      "v": 27,
      "creates": null,
      "raw": "0xf86f820167850dc2901302825208949b7999611fd5eff3ef9a86653490c42e83ed4b8e89065748eb4431710000801ba010f648579c7d70b23429bf4c3a2002006d9e253c75f10c1f3639ac8551bae21da00b1c6381e5df814f9909e5146bbbdd1fb6aa6df1c7eb5a66c9aeaf0ba518c06f",
      "networkId": 0,
      "chainId": 0
    },
    {
      "hash": "0x19e66cada1a9dce98294e03f5bf36e34a6ddb0fb5328fe51cb17ba80b1dd4633",
      "blockHash": "0x8887a904091172816fb18cf96426b13d021bb614e42f2badf2e781d954357450",
      "blockNumber": 76841,
      "transactionIndex": 1,
      "confirmations": null,
      "from": "0x47ff6576639c2e94762eA5443978D7681C0E78DC",
      "gasPrice": {
        "_hex": "0xd0b19aa06"
      },
      "gasLimit": {
        "_hex": "0x5208"
      },
      "to": "0x3620db64D25D412bAb4C8d93E2e0D7e64e8Cb933",
      "value": {
        "_hex": "0xd7f91b4bdd0440000"
      },
      "nonce": 21,
      "data": "0x",
      "r": "0xa5fc28c59a98bbe188ea194e582ae0d57e6b0439ed8bc94efb970fdbd3d47405",
      "s": "0x1b2d6cca24269f3ed0ebbf2cc064a99ef53d58e963f42dd822fc9489a2f27602",
      "v": 28,
      "creates": null,
      "raw": "0xf86d15850d0b19aa06825208943620db64d25d412bab4c8d93e2e0d7e64e8cb933890d7f91b4bdd0440000801ca0a5fc28c59a98bbe188ea194e582ae0d57e6b0439ed8bc94efb970fdbd3d47405a01b2d6cca24269f3ed0ebbf2cc064a99ef53d58e963f42dd822fc9489a2f27602",
      "networkId": 0,
      "chainId": 0
    }
  ]
}