{
  "hash": "0x4700bc16b686ac4153bdfc3e65ac64c959f433186a8fdc0a609b4b7babbecb88",
  "parentHash": "0x52ff828e893a6d0906b9043a5c19c8ae9c427f4ecf5f959e764ae15a4202aa49",
  "number": 51336,
  "timestamp": 1439003141,
  "nonce": "0x5d4d4933325f0591",
  "difficulty": 1573497888408,
  "gasLimit": {
    "_hex": "0xa5aa9"
  },
  "gasUsed": {
    "_hex": "0x5208"
  },
  "miner": "0xF2d2AfF1320476cb8C6b607199D23175cc595693",
  "extraData": "0x476574682f76312e302e312f77696e646f77732f676f312e342e32",
  "transactions": [
    {
      "hash": "0x0fe05917761dcfac974792a353b39167bba41c60ec0f8ca6e39f4793a9447953",
      "blockHash": "0x4700bc16b686ac4153bdfc3e65ac64c959f433186a8fdc0a609b4b7babbecb88",
      "blockNumber": 51336,
      "transactionIndex": 0,
      "confirmations": null,
      "from": "0x1308A2e95c0160B90803ddCA9B9a5bb55E416d79",
      "gasPrice": {
        "_hex": "0xd38273478"
      },
      "gasLimit": {
        "_hex": "0x15f90"
      },
      "to": "0x42Dd879f8Eb7e9B43036A5b4C97B02c6176D6B99",
      "value": {
        "_hex": "0x3635c9adc5dea00000"
      },
      "nonce": 0,
      "data": "0x",
      "r": "0x524f465a79f3a180a37f436faafb130ce994151d4e2c32624e29f3544d50562f",
      "s": "0x69115b324e5cc5f9efea5e4a702e74ce4b764c554139f676dd4d97027e191bf4",
      "v": 28,
      "creates": null,
      "raw": "0xf86e80850d3827347883015f909442dd879f8eb7e9b43036a5b4c97b02c6176d6b99893635c9adc5dea00000801ca0524f465a79f3a180a37f436faafb130ce994151d4e2c32624e29f3544d50562fa069115b324e5cc5f9efea5e4a702e74ce4b764c554139f676dd4d97027e191bf4",
      "networkId": 0,
      "chainId": 0
    }
  ]
}