{
  "hash": "0xbb6fa26212c5b836df8ce36b7938d0574f0bcee7b8a75a4038cce3030793f968",
  "parentHash": "0xbd38304e14277bc4f22b0af1338a87e0957214fe04c8322915d3c45a66a2b6cd",
  "number": 115586,
  "timestamp": 1440059707,
  "nonce": "0x868f0a909ccf690a",
  "difficulty": 4602946632889,
  "gasLimit": {
    "_hex": "0x2fefd8"
  },
  "gasUsed": {
    "_hex": "0xa674"
  },
  "miner": "0xbb7B8287f3F0a933474a79eAe42CBCa977791171",
  "extraData": "0x476574682f4c5649562f76312e302e312f6c696e75782f676f312e342e32",
  "transactions": [
    {
      "hash": "0xead0415720cb0b6dee76ce10f10044a2683f0c699d393c1774a87766e5f3fdb7",
      "blockHash": "0xbb6fa26212c5b836df8ce36b7938d0574f0bcee7b8a75a4038cce3030793f968",
      "blockNumber": 115586,
      "transactionIndex": 0,
      "confirmations": null,
      "from": "0x8c1571F5e9fFff7D31C2d66d3818F273813D8FdF",
      "gasPrice": {
        "_hex": "0xdb4166143"
      },
      "gasLimit": {
        "_hex": "0x55f0"
      },
      "to": "0x2910543Af39abA0Cd09dBb2D50200b3E800A63D2",
      "value": {
        "_hex": "0x794ab7b188ea0000"
      },
      "nonce": 2,
      "data": "0x454e52343442485647",
      "r": "0x3bd2eb314af184a29e5a258228320eed3ca7026afb2d0d702112660517a70108",
      "s": "0x337a434701bae7cb56996a9f31dff0c70bc50327c69a573428c9c3fefd2ffa8a",
      "v": 27,
      "creates": null,
      "raw": "0xf87502850db41661438255f0942910543af39aba0cd09dbb2d50200b3e800a63d288794ab7b188ea000089454e523434424856471ba03bd2eb314af184a29e5a258228320eed3ca7026afb2d0d702112660517a70108a0337a434701bae7cb56996a9f31dff0c70bc50327c69a573428c9c3fefd2ffa8a",
      "networkId": 0,
      "chainId": 0
    },
    {
      "hash": "0x85c285782c69746f627f11bb73383110f49831c1ada5021b87dce8affc81b3f0",
      "blockHash": "0xbb6fa26212c5b836df8ce36b7938d0574f0bcee7b8a75a4038cce3030793f968",
      "blockNumber": 115586,
      "transactionIndex": 1,
      "confirmations": null,
      "from": "0xed433C980AaED4E749B3229F3993BfB2840f2433",
      "gasPrice": {
        "_hex": "0xba43b7400"
      },
      "gasLimit": {
        "_hex": "0x5208"
      },
      "to": "0xC47Aaa860008be6f65B58c6C6E02a84e666EfE31",
      "value": {
        "_hex": "0x2c39d23dfbc276000"
      },
      "nonce": 4,
      "data": "0x",
      "r": "0xba8e61dc70ae17bfad4f312fdd42f5f4842d7aa3ab7cd803c77608483b9d61dd",
      "s": "0x519a6f10d2963c1340ad094f41af312047c8f269283372a5ee324477502bac85",
      "v": 27,
      "creates": null,
      "raw": "0xf86d04850ba43b740082520894c47aaa860008be6f65b58c6c6e02a84e666efe318902c39d23dfbc276000801ba0ba8e61dc70ae17bfad4f312fdd42f5f4842d7aa3ab7cd803c77608483b9d61dda0519a6f10d2963c1340ad094f41af312047c8f269283372a5ee324477502bac85",
      "networkId": 0,
      "chainId": 0
    }
  ]
}