{
  "hash": "0x2c20c00de275a895c4732fcba694adcb7478e7e4a391a9a0c890a04fbe56253c",
  "parentHash": "0x73a347e109452d21d2910270c4c967c8d973f4bd26f79c798f1c0b550746cab6",
  "number": 79155,
  "timestamp": 1439465484,
  "nonce": "0x983a38f972963ba6",
  "difficulty": 2312128286093,
  "gasLimit": {
    "_hex": "0x2fefd8"
  },
  "gasUsed": {
    "_hex": "0x1ec30"
  },
  "miner": "0x3FF679B0823a026F2378E5f5F22A6F127cC85828",
  "extraData": "0x",
  "transactions": [
    {
      "hash": "0xd9dba5dac0265c31e1e7dd42bbe45eeeefeac35b3050b617c2a0d11c6f0646a8",
      "blockHash": "0x2c20c00de275a895c4732fcba694adcb7478e7e4a391a9a0c890a04fbe56253c",
      "blockNumber": 79155,
      "transactionIndex": 0,
      "confirmations": null,
      "from": "0x86d3856ad0105B9d4199936c1fd203664BA325dC",
      "gasPrice": {
        "_hex": "0xd6b4aaee0"
      },
      "gasLimit": {
        "_hex": "0x5208"
      },
      "to": "0x32Be343B94f860124dC4fEe278FDCBD38C102D88",
      "value": {
        "_hex": "0xabfaf6b48dfc2800"
      },
      "nonce": 12,
      "data": "0x",
      "r": "0xb3857ba3dc19f33a6ea2e232bd43742ed85e8426bb84f7570e9e3423c42f7c00",
      "s": "0x75ee1cc07a407c8d1712abf456818151ced4985684dfb0c0bca9f8cf242c0ec4",
      "v": 27,
      "creates": null,
      "raw": "0xf86c0c850d6b4aaee08252089432be343b94f860124dc4fee278fdcbd38c102d8888abfaf6b48dfc2800801ba0b3857ba3dc19f33a6ea2e232bd43742ed85e8426bb84f7570e9e3423c42f7c00a075ee1cc07a407c8d1712abf456818151ced4985684dfb0c0bca9f8cf242c0ec4",
      "networkId": 0,
      "chainId": 0
    },
    {
      "hash": "0x9f75c2a0228591358c622218b627fc06ad49f0af8cb10e70942285721fa4a254",
      "blockHash": "0x2c20c00de275a895c4732fcba694adcb7478e7e4a391a9a0c890a04fbe56253c",
      "blockNumber": 79155,
      "transactionIndex": 1,
      "confirmations": null,
      "from": "0xAba5352947CBaEAcf6B2E11E03EaE0008176aeDF",
      "gasPrice": {
        "_hex": "0xd6b4aaee0"
      },
      "gasLimit": {
        "_hex": "0x5208"
      },
      "to": "0x32Be343B94f860124dC4fEe278FDCBD38C102D88",
      "value": {
        "_hex": "0x15ee69af1835e000"
      },
      "nonce": 2,
      "data": "0x",
      "r": "0x4bdb660c7b8933d0020e1acd8c13dc972b552f33ceeaea14aded492ac3042f09",
      "s": "0x74357f0e870f4c8d54fba1a800fd87c2cf47bd31e9fc3a5490af69c814a556f1",
      "v": 27,
      "creates": null,
      "raw": "0xf86c02850d6b4aaee08252089432be343b94f860124dc4fee278fdcbd38c102d888815ee69af1835e000801ba04bdb660c7b8933d0020e1acd8c13dc972b552f33ceeaea14aded492ac3042f09a074357f0e870f4c8d54fba1a800fd87c2cf47bd31e9fc3a5490af69c814a556f1",
      "networkId": 0,
      "chainId": 0
    },
    {
      "hash": "0xd164762d22c3fd6d9a72a4e81864e13a7d363ca4f3fe311f1b7ea93e15230e91",
      "blockHash": "0x2c20c00de275a895c4732fcba694adcb7478e7e4a391a9a0c890a04fbe56253c",
      "blockNumber": 79155,
      "transactionIndex": 2,
      "confirmations": null,
      "from": "0xD9a9A8ec148D2B0F7Cd8B2700013A9AA5cf89910",
      "gasPrice": {
        "_hex": "0xd6b4aaee0"
      },
      "gasLimit": {
        "_hex": "0x5208"
      },
      "to": "0x32Be343B94f860124dC4fEe278FDCBD38C102D88",
      "value": {
        "_hex": "0x2a476befa809cc00"
      },
      "nonce": 2,
      "data": "0x",
      "r": "0x0ca25726d820ccd7fcaffd4f46ccf894de1f7ea85a3a58e73cce4e6f2c1bc91d",
      "s": "0x02fd4b984e88993a7988fc137682a567748ae6f41e93b0ebd28370aa6ec3a2d0",
      "v": 28,
      "creates": null,
      "raw": "0xf86c02850d6b4aaee08252089432be343b94f860124dc4fee278fdcbd38c102d88882a476befa809cc00801ca00ca25726d820ccd7fcaffd4f46ccf894de1f7ea85a3a58e73cce4e6f2c1bc91da002fd4b984e88993a7988fc137682a567748ae6f41e93b0ebd28370aa6ec3a2d0",
      "networkId": 0,
      "chainId": 0
    },
    {
      "hash": "0xe5f70bef51fdcfd79c47b75a262f0418030c468b726916ca3554f43dac81b8ee",
      "blockHash": "0x2c20c00de275a895c4732fcba694adcb7478e7e4a391a9a0c890a04fbe56253c",
      "blockNumber": 79155,
      "transactionIndex": 3,
      "confirmations": null,
      "from": "0x556ca325C21e450b2aFf86D9c8eF0Fa371971c97",
      "gasPrice": {
        "_hex": "0xd6b4aaee0"
      },
      "gasLimit": {
        "_hex": "0x5208"
      },
      "to": "0x32Be343B94f860124dC4fEe278FDCBD38C102D88",
      "value": {
        "_hex": "0x105da2d15b072f000"
      },
      "nonce": 9,
      "data": "0x",
      "r": "0x639d2a2bf1a2ab23fb1a16ef97f7cad9a0f5b1432251a55889ad03eaea3b34f8",
      "s": "0x4049ecaf2bb0fdc6e42ed9c7bdd34a5171c47025fb09f305544396b2005d6566",
      "v": 27,
      "creates": null,
      "raw": "0xf86d09850d6b4aaee08252089432be343b94f860124dc4fee278fdcbd38c102d88890105da2d15b072f000801ba0639d2a2bf1a2ab23fb1a16ef97f7cad9a0f5b1432251a55889ad03eaea3b34f8a04049ecaf2bb0fdc6e42ed9c7bdd34a5171c47025fb09f305544396b2005d6566",
      "networkId": 0,
      "chainId": 0
    },
    {
      "hash": "0x388f82496daff5f0a6b30fc389093d07a87bee0fb8cf63f306ce5014f1699114",
      "blockHash": "0x2c20c00de275a895c4732fcba694adcb7478e7e4a391a9a0c890a04fbe56253c",
      "blockNumber": 79155,
      "transactionIndex": 4,
      "confirmations": null,
      "from": "0x1333a55102f1f4B3df95298b6CE863eF8d5BAf45",
      "gasPrice": {
        "_hex": "0xd6b4aaee0"
      },
      "gasLimit": {
        "_hex": "0x5208"
      },
      "to": "0x32Be343B94f860124dC4fEe278FDCBD38C102D88",
      "value": {
        "_hex": "0x4957c3fd3374c800"
      },
      "nonce": 6,
      "data": "0x",
      "r": "0xe7614a99e5b0f3b69896c9f9d0bdb9f9ced3f7ad44c02487af32cf80a88963b2",
      "s": "0x291e0f36c3b98d0e048159545b5adc1fe57a0a57bf9921989f4b7dd3f24ae428",
      "v": 28,
      "creates": null,
      "raw": "0xf86c06850d6b4aaee08252089432be343b94f860124dc4fee278fdcbd38c102d88884957c3fd3374c800801ca0e7614a99e5b0f3b69896c9f9d0bdb9f9ced3f7ad44c02487af32cf80a88963b2a0291e0f36c3b98d0e048159545b5adc1fe57a0a57bf9921989f4b7dd3f24ae428",
      "networkId": 0,
      "chainId": 0
    },
    {
      "hash": "0x958413c0ce0552eb3fef0b133d30270d425d2c6832e364c43ca94af7bf975cbc",
      "blockHash": "0x2c20c00de275a895c4732fcba694adcb7478e7e4a391a9a0c890a04fbe56253c",
      "blockNumber": 79155,
      "transactionIndex": 5,
      "confirmations": null,
      "from": "0xa701174A7e8338D26063A01C07674cC96F1777A8",
      "gasPrice": {
        "_hex": "0xd6b4aaee0"
      },
      "gasLimit": {
        "_hex": "0x5208"
      },
      "to": "0x32Be343B94f860124dC4fEe278FDCBD38C102D88",
      "value": {
        "_hex": "0xa2a158bc87b2280000"
      },
      "nonce": 2,
      "data": "0x",
      "r": "0x72cc45cc4d1686b1fe41b9c6c264af93495da0775c20c185cbc03a7b2f451829",
      "s": "0x2c5c64db7b6b6f1142b697b544da1c27df611784784db581e4966ea7899b3515",
      "v": 28,
      "creates": null,
      "raw": "0xf86d02850d6b4aaee08252089432be343b94f860124dc4fee278fdcbd38c102d8889a2a158bc87b2280000801ca072cc45cc4d1686b1fe41b9c6c264af93495da0775c20c185cbc03a7b2f451829a02c5c64db7b6b6f1142b697b544da1c27df611784784db581e4966ea7899b3515",
      "networkId": 0,
      "chainId": 0
    }
  ]
}