{
  "hash": "0xfffb10f6b8374174a5ee5be57fd63c1993bfb2f2fbca71e51469a43bb3487df2",
  "parentHash": "0x9156e8a482a4f1d083f4be90dbfe228191a27346dd038aeead196de6f3d62686",
  "number": 52890,
  "timestamp": 1439029007,
  "nonce": "0xf021be54488ba261",
  "difficulty": 1571670838351,
  "gasLimit": {
    "_hex": "0x1b5215"
  },
  "gasUsed": {
    "_hex": "0x5208"
  },
  "miner": "0x0037ce3d4B7f8729C8607D8D0248252Be68202c0",
  "extraData": "0x476574682f76312e302e312f77696e646f77732f676f312e342e32",
  "transactions": [
    {
      "hash": "0xaf5cda9c1d193e2f5dd95c79b12f7d336fd198c44cafeecd625e92801eea70e1",
      "blockHash": "0xfffb10f6b8374174a5ee5be57fd63c1993bfb2f2fbca71e51469a43bb3487df2",
      "blockNumber": 52890,
      "transactionIndex": 0,
      "confirmations": null,
      "from": "0x095270cc42141dd998aD2862DBD1fE9B44E7e650",
      "gasPrice": {
        "_hex": "0xd47b9513e"
      },
      "gasLimit": {
        "_hex": "0x5208"
      },
      "to": "0xA58a34ca2DD2dE7520b845B3628C518Fec14A76B",
      "value": {
        "_hex": "0x2386f26fc10000"
      },
      "nonce": 1,
      "data": "0x",
      "r": "0x99f93dfb4e8eaf80c22dfa780fe24d49c2c5b0750cb1060012258ad028b4aa55",
      "s": "0x69a42851bc88cd00afd62edc32e3a3429ad2dfd612dffcded5b1da39e335fa61",
      "v": 28,
      "creates": null,
      "raw": "0xf86b01850d47b9513e82520894a58a34ca2dd2de7520b845b3628c518fec14a76b872386f26fc10000801ca099f93dfb4e8eaf80c22dfa780fe24d49c2c5b0750cb1060012258ad028b4aa55a069a42851bc88cd00afd62edc32e3a3429ad2dfd612dffcded5b1da39e335fa61",
      "networkId": 0,
      "chainId": 0
    }
  ]
}