{
  "hash": "0x894fc7558428cee0e37133c60ed8abfcd0d267bfa4efdcd013cdc8ec02041371",
  "parentHash": "0xe3fa39e81964af1403f336ff8095ac5b48521635fdd8245fbe21f59d0a5d18ca",
  "number": 78868,
  "timestamp": 1439460751,
  "nonce": "0x669d6369fa2b35e8",
  "difficulty": 2286385485008,
  "gasLimit": {
    "_hex": "0x2fefd8"
  },
  "gasUsed": {
    "_hex": "0xa410"
  },
  "miner": "0x02dE7d35a60bf6A216411476040ec648668769D7",
  "extraData": "0x476574682f76312e302e312f77696e646f77732f676f312e342e32",
  "transactions": [
    {
      "hash": "0x06cb90660b76f0a22001a55463a916bb753205d87fa1d5596ae4c73cf91861d5",
      "blockHash": "0x894fc7558428cee0e37133c60ed8abfcd0d267bfa4efdcd013cdc8ec02041371",
      "blockNumber": 78868,
      "transactionIndex": 0,
      "confirmations": null,
      "from": "0x2Fe86C0450Bf1bE6001d119aA87f6f33117bD699",
      "gasPrice": {
        "_hex": "0xcca81a47f"
      },
      "gasLimit": {
        "_hex": "0x5208"
      },
      "to": "0x32Be343B94f860124dC4fEe278FDCBD38C102D88",
      "value": {
        "_hex": "0xf3f1f5b13d23580000"
      },
      "nonce": 4,
      "data": "0x",
      "r": "0x58fc9015527c03bbc970290e326ef11e84939fee3da1e740d67293c5174c15e1",
      "s": "0x5b53085ed2aeee1cc53c824e98291ae279271997e3f2be62bc6f855ba79a49c5",
      "v": 27,
      "creates": null,
      "raw": "0xf86d04850cca81a47f8252089432be343b94f860124dc4fee278fdcbd38c102d8889f3f1f5b13d23580000801ba058fc9015527c03bbc970290e326ef11e84939fee3da1e740d67293c5174c15e1a05b53085ed2aeee1cc53c824e98291ae279271997e3f2be62bc6f855ba79a49c5",
      "networkId": 0,
      "chainId": 0
    },
    {
      "hash": "0x24908ced760810812615a3931f75ec57eeaa1abdc53a30d23b5612ee960e4d3d",
      "blockHash": "0x894fc7558428cee0e37133c60ed8abfcd0d267bfa4efdcd013cdc8ec02041371",
      "blockNumber": 78868,
      "transactionIndex": 1,
      "confirmations": null,
      "from": "0xa6BDc31c431B8F97848c9D60cbbe9660dc450eB7",
      "gasPrice": {
        "_hex": "0xcca81a47f"
      },
      "gasLimit": {
        "_hex": "0x5208"
      },
      "to": "0x32Be343B94f860124dC4fEe278FDCBD38C102D88",
      "value": {
        "_hex": "0x455f783e365e6000"
      },
      "nonce": 27,
      "data": "0x",
      "r": "0x963c80abdfe1de53d4f2e8d7001faf4a323faad4895ae9ee498ebcb751e69f8e",
      "s": "0x1916958051f4b7963ed88d4d5a22e9222f1a17fa99b579044418408143fd4c93",
      "v": 28,
      "creates": null,
      "raw": "0xf86c1b850cca81a47f8252089432be343b94f860124dc4fee278fdcbd38c102d8888455f783e365e6000801ca0963c80abdfe1de53d4f2e8d7001faf4a323faad4895ae9ee498ebcb751e69f8ea01916958051f4b7963ed88d4d5a22e9222f1a17fa99b579044418408143fd4c93",
      "networkId": 0,
      "chainId": 0
    }
  ]
}