{
  "hash": "0x4a2905e8a4c8eb1a08106404aacf32066d8f411dd2e8796e6039abfc0e990eaa",
  "parentHash": "0x2f57a2841e84174070039ba056165f81f077886e3a60cdeacadf036004be91d0",
  "number": 91619,
  "timestamp": 1439658625,
  "nonce": "0x71982a85989a983c",
  "difficulty": 3499773560780,
  "gasLimit": {
    "_hex": "0x2fefd8"
  },
  "gasUsed": {
    "_hex": "0x5208"
  },
  "miner": "0xf927a40C8B7F6E07c5af7FA2155B4864a4112B13",
  "extraData": "0x",
  "transactions": [
    {
      "hash": "0xbcc716e96abd741a7a5992a33350b70e0ec5c3b6a48ffc423128d8e786d16721",
      "blockHash": "0x4a2905e8a4c8eb1a08106404aacf32066d8f411dd2e8796e6039abfc0e990eaa",
      "blockNumber": 91619,
      "transactionIndex": 0,
      "confirmations": null,
      "from": "0x3A441D091C9ab611250C154646E2C9cf65abEBC4",
      "gasPrice": {
        "_hex": "0xba43b7400"
      },
      "gasLimit": {
        "_hex": "0x5208"
      },
      "to": "0xC47Aaa860008be6f65B58c6C6E02a84e666EfE31",
      "value": {
        "_hex": "0x2fdd21c06e1538f0"
      },
      "nonce": 2,
      "data": "0x",
      "r": "0x3122d53ceb3249956b506e8bd28d216c6d91e8ca7e9572e83d4e0c0c834beef9",
      "s": "0x7ef4fc4e90bf7fe627f396eb69c4a41660190125f736e31773a286f3dc20c502",
      "v": 28,
      "creates": null,
      "raw": "0xf86c02850ba43b740082520894c47aaa860008be6f65b58c6c6e02a84e666efe31882fdd21c06e1538f0801ca03122d53ceb3249956b506e8bd28d216c6d91e8ca7e9572e83d4e0c0c834beef9a07ef4fc4e90bf7fe627f396eb69c4a41660190125f736e31773a286f3dc20c502",
      "networkId": 0,
      "chainId": 0
    }
  ]
}