{
  "hash": "0xf6f9d773aeb7589eec581e1df7c2cebd57b0dd39e6923a0488e8dce6c24b1482",
  "parentHash": "0x953ed181e7b577fb40c2aa9abf9d64f0deee0dc43e96582431ca79babac7ee10",
  "number": 119995,
  "timestamp": 1440151995,
  "nonce": "0x8a12e964c468f696",
  "difficulty": 4430770150137,
  "gasLimit": {
    "_hex": "0x2fefd8"
  },
  "gasUsed": {
    "_hex": "0x5208"
  },
  "miner": "0x790b8a3cE86E707ED0eD32bF89B3269692a23CC1",
  "extraData": "0xd783010002844765746887676f312e342e32856c696e7578",
  "transactions": [
    {
      "hash": "0xc6a8c453ba4e628f1cf04fae4400b47b15d985be14413c77d05a667a6979f155",
      "blockHash": "0xf6f9d773aeb7589eec581e1df7c2cebd57b0dd39e6923a0488e8dce6c24b1482",
      "blockNumber": 119995,
      "transactionIndex": 0,
      "confirmations": null,
      "from": "0xE435df812EFcEBbbC6f764f8c1fA8FC9131B671b",
      "gasPrice": {
        "_hex": "0xba43b7400"
      },
      "gasLimit": {
        "_hex": "0x15f90"
      },
      "to": "0xaeC8dB2Bc80b8584093D25fA1025D96e6D107377",
      "value": {
        "_hex": "0x1aa535d3d0c0000"
      },
      "nonce": 0,
      "data": "0x",
      "r": "0x0801ac7fd12784f377808fec30a4c3e9fe6f154d522fab4ebadadd8310f6b21c",
      "s": "0x57c7f87f9387f03016e5d1df2b97c266d897f1f62655eac6b252d96297a98c3c",
      "v": 27,
      "creates": null,
      "raw": "0xf86d80850ba43b740083015f9094aec8db2bc80b8584093d25fa1025d96e6d1073778801aa535d3d0c0000801ba00801ac7fd12784f377808fec30a4c3e9fe6f154d522fab4ebadadd8310f6b21ca057c7f87f9387f03016e5d1df2b97c266d897f1f62655eac6b252d96297a98c3c",
      "networkId": 0,
      "chainId": 0
    }
  ]
}