{
  "hash": "0x5b01a4e7bbeb56d6ec43610db88b82a40a13fbe63fbcfe0ced87fb272e2bfbee",
  "parentHash": "0x40dd52dd77ae7912252c89f97c5489c6d18a33ccd974a508e98b70bc5e5344e3",
  "number": 108406,
  "timestamp": 1439939899,
  "nonce": "0x5d694b51d3940fd3",
  "difficulty": 4319326396991,
  "gasLimit": {
    "_hex": "0x2fefd8"
  },
  "gasUsed": {
    "_hex": "0xf618"
  },
  "miner": "0xe6A7a1d47ff21B6321162AEA7C6CB457D5476Bca",
  "extraData": "0x476574682f76312e302e312d38326566323666362f6c696e75782f676f312e34",
  "transactions": [
    {
      "hash": "0xf7a0952c33ffc402d82f994a8dd483370f234bc85de55671b964e6d528e62778",
      "blockHash": "0x5b01a4e7bbeb56d6ec43610db88b82a40a13fbe63fbcfe0ced87fb272e2bfbee",
      "blockNumber": 108406,
      "transactionIndex": 0,
      "confirmations": null,
      "from": "0x431FDD9f2Fdc4A532867E0e0a85463436807d17C",
      "gasPrice": {
        "_hex": "0xddcb5c8ce"
      },
      "gasLimit": {
        "_hex": "0x5208"
      },
      "to": "0x32Be343B94f860124dC4fEe278FDCBD38C102D88",
      "value": {
        "_hex": "0x3635c53ca40b500000"
      },
      "nonce": 6,
      "data": "0x",
      "r": "0x49f16015012a705d3122a132a9509ff6737ec53d82dbcad3169e5b6fdba4b928",
      "s": "0x0ec6d70b614efa5e44c7f5af206d40882e984a66678b9d2d89ef3a674fa02a2a",
      "v": 27,
      "creates": null,
      "raw": "0xf86d06850ddcb5c8ce8252089432be343b94f860124dc4fee278fdcbd38c102d88893635c53ca40b500000801ba049f16015012a705d3122a132a9509ff6737ec53d82dbcad3169e5b6fdba4b928a00ec6d70b614efa5e44c7f5af206d40882e984a66678b9d2d89ef3a674fa02a2a",
      "networkId": 0,
      "chainId": 0
    },
    {
      "hash": "0x5c52ab220ebf903f31224305af683a951f8af61259d5fc39f5df124d4e751ecd",
      "blockHash": "0x5b01a4e7bbeb56d6ec43610db88b82a40a13fbe63fbcfe0ced87fb272e2bfbee",
      "blockNumber": 108406,
      "transactionIndex": 1,
      "confirmations": null,
      "from": "0x5c59E28366c83f1d262567c1c529185146e68b16",
      "gasPrice": {
        "_hex": "0xddcb5c8ce"
      },
      "gasLimit": {
        "_hex": "0x5208"
      },
      "to": "0x32Be343B94f860124dC4fEe278FDCBD38C102D88",
      "value": {
        "_hex": "0x25f25d5ea4fe4a0000"
      },
      "nonce": 8,
      "data": "0x",
      "r": "0xb55f776f14958a800daf9c55bea18d3a04e5af869f38f6948736715dfe036fcc",
      "s": "0x35a216da49bb8a6daccab0a854ac852fd4b77fd560fb1dd5008a6c8132799aa7",
      "v": 27,
      "creates": null,
      "raw": "0xf86d08850ddcb5c8ce8252089432be343b94f860124dc4fee278fdcbd38c102d888925f25d5ea4fe4a0000801ba0b55f776f14958a800daf9c55bea18d3a04e5af869f38f6948736715dfe036fcca035a216da49bb8a6daccab0a854ac852fd4b77fd560fb1dd5008a6c8132799aa7",
      "networkId": 0,
      "chainId": 0
    },
    {
      "hash": "0xd4bf7de35e6e55ddaecd1b1e193dbd57d83108b688119026fafb6b8ef9964a63",
      "blockHash": "0x5b01a4e7bbeb56d6ec43610db88b82a40a13fbe63fbcfe0ced87fb272e2bfbee",
      "blockNumber": 108406,
      "transactionIndex": 2,
      "confirmations": null,
      "from": "0x6343AC3F15c925ACD28Bbf799A138781E4Cb692f",
      "gasPrice": {
        "_hex": "0xddcb5c8ce"
      },
      "gasLimit": {
        "_hex": "0x5208"
      },
      "to": "0x32Be343B94f860124dC4fEe278FDCBD38C102D88",
      "value": {
        "_hex": "0x2b5df3df4de370000"
      },
      "nonce": 2,
      "data": "0x",
      "r": "0x2cba016e6e4328e4a749aa692d3f49738fc14d1a5374a1cebd2a3f7d794e6fcd",
      "s": "0x38a0392b1877f824a8afb8cd925d9c9905406c59f3a914c8dc9a800617547e96",
      "v": 28,
      "creates": null,
      "raw": "0xf86d02850ddcb5c8ce8252089432be343b94f860124dc4fee278fdcbd38c102d888902b5df3df4de370000801ca02cba016e6e4328e4a749aa692d3f49738fc14d1a5374a1cebd2a3f7d794e6fcda038a0392b1877f824a8afb8cd925d9c9905406c59f3a914c8dc9a800617547e96",
      "networkId": 0,
      "chainId": 0
    }
  ]
}