{
  "hash": "0x107f56ddc519cca5539fa27b39b31760b89edaeeb0b1d64c88897466c4f1ccd1",
  "parentHash": "0xd34fd600e6350928cf12c53a255877457d4dc007112429f92f3296a56918bcf2",
  "number": 115355,
  "timestamp": 1440055818,
  "nonce": "0xecbc6916770ac1ab",
  "difficulty": 4551667905793,
  "gasLimit": {
    "_hex": "0x2fefd8"
  },
  "gasUsed": {
    "_hex": "0x5208"
  },
  "miner": "0xe6A7a1d47ff21B6321162AEA7C6CB457D5476Bca",
  "extraData": "0x476574682f76312e302e312d38326566323666362f6c696e75782f676f312e34",
  "transactions": [
    {
      "hash": "0x692117ebbea378fe399b4ae53533340e27665ee032639a6f3a800a62ca39c05f",
      "blockHash": "0x107f56ddc519cca5539fa27b39b31760b89edaeeb0b1d64c88897466c4f1ccd1",
      "blockNumber": 115355,
      "transactionIndex": 0,
      "confirmations": null,
      "from": "0x187b1f47Cd55b27878699DfCDCee2234cD49E97e",
      "gasPrice": {
        "_hex": "0xda178395a"
      },
      "gasLimit": {
        "_hex": "0x5208"
      },
      "to": "0x32Be343B94f860124dC4fEe278FDCBD38C102D88",
      "value": {
        "_hex": "0x1a454a40f65094000"
      },
      "nonce": 11,
      "data": "0x",
      "r": "0x9a5b19519cd77500ac0fd7f1d61f1414277f45445428afd5da2f1403b4cbcf05",
      "s": "0x2fb305ba1f034b9f20382f2d1fabcb43f2711169514372ae16cec9c6d1820331",
      "v": 28,
      "creates": null,
      "raw": "0xf86d0b850da178395a8252089432be343b94f860124dc4fee278fdcbd38c102d888901a454a40f65094000801ca09a5b19519cd77500ac0fd7f1d61f1414277f45445428afd5da2f1403b4cbcf05a02fb305ba1f034b9f20382f2d1fabcb43f2711169514372ae16cec9c6d1820331",
      "networkId": 0,
      "chainId": 0
    }
  ]
}