{
  "hash": "0xfa41b9a0f9bbb596fdc28058da0cff84d9dc190440b99ccbe0ddc10de38ff534",
  "parentHash": "0xa7d4bbe01de23277487ea67e522012b0bf84c93771fb6f1dc181867cb2544159",
  "number": 74461,
  "timestamp": 1439386291,
  "nonce": "0x221dc4756ceb6d3d",
  "difficulty": 2220455547888,
  "gasLimit": {
    "_hex": "0x2fefd5"
  },
  "gasUsed": {
    "_hex": "0x5208"
  },
  "miner": "0xF2d2AfF1320476cb8C6b607199D23175cc595693",
  "extraData": "0x476574682f76312e302e312f77696e646f77732f676f312e342e32",
  "transactions": [
    {
      "hash": "0xba16c8e50d0d67265d723a7a58b58becdd3e365ed3c7b72c02e126dcc7b879a5",
      "blockHash": "0xfa41b9a0f9bbb596fdc28058da0cff84d9dc190440b99ccbe0ddc10de38ff534",
      "blockNumber": 74461,
      "transactionIndex": 0,
      "confirmations": null,
      "from": "0x481FBF5Ed8E1bC51d277dB7D8F51d95b758F05ED",
      "gasPrice": {
        "_hex": "0xba43b7400"
      },
      "gasLimit": {
        "_hex": "0x5266"
      },
      "to": "0x481FBF5Ed8E1bC51d277dB7D8F51d95b758F05ED",
      "value": {
        "_hex": "0x71afd498d0000"
      },
      "nonce": 1,
      "data": "0x",
      "r": "0xe6e00691361825ff25ffd4e21a9320c4b6a5372bae8bbae43aeaf83109b15be6",
      "s": "0xf10afe1ef70f10254b1a8e967a6c6b9f2300f7ca39ec2edd530ee88190127b57",
      "v": 27,
      "creates": null,
      "raw": "0xf86b01850ba43b740082526694481fbf5ed8e1bc51d277db7d8f51d95b758f05ed87071afd498d0000801ba0e6e00691361825ff25ffd4e21a9320c4b6a5372bae8bbae43aeaf83109b15be6a0f10afe1ef70f10254b1a8e967a6c6b9f2300f7ca39ec2edd530ee88190127b57",
      "networkId": 0,
      "chainId": 0
    }
  ]
}