{
  "hash": "0xf1bf5feb520c8b8f738635959d9df050ef601a0a00dc683c24474bde7e235a33",
  "parentHash": "0x2fc76c5e3bedd9e659f0c3435c00493c423b7807d5090fdff9ef7874a1a84c2b",
  "number": 93158,
  "timestamp": 1439683904,
  "nonce": "0x91e5353e8ddbd3d5",
  "difficulty": 3615498170813,
  "gasLimit": {
    "_hex": "0x2fefd8"
  },
  "gasUsed": {
    "_hex": "0x5d9f"
  },
  "miner": "0xa50ec0D39fa913E62f1Bae7074E6F36caA71855b",
  "extraData": "0xd783010001844765746887676f312e342e32856c696e7578",
  "transactions": [
    {
      "hash": "0x25a735e677214b63783c2cbec5cc685dcf2d566e0f522402cff525d0893c1335",
      "blockHash": "0xf1bf5feb520c8b8f738635959d9df050ef601a0a00dc683c24474bde7e235a33",
      "blockNumber": 93158,
      "transactionIndex": 0,
      "confirmations": null,
      "from": "0x02020D22dCF88f5eDd66B382D7da019F161fB7e3",
      "gasPrice": {
        "_hex": "0xdb0090f99"
      },
      "gasLimit": {
        "_hex": "0x15f90"
      },
      "to": "0xCAc7000C7dBaa2E33Af15325AF5D435E011C7BdD",
      "value": {
        "_hex": "0x64"
      },
      "nonce": 17,
      "data": "0xb214faa5384e53354b355737410000000000000000000000000000000000000000000000",
      "r": "0xb749a3b42faca48c199d8249e11baac469f0eb27c1e563a61207675515838a19",
      "s": "0x05b69406e95b197341d193fea0d1b71171f23469c7bd7c7347a4e080f083c44e",
      "v": 27,
      "creates": null,
      "raw": "0xf88911850db0090f9983015f9094cac7000c7dbaa2e33af15325af5d435e011c7bdd64a4b214faa5384e53354b3557374100000000000000000000000000000000000000000000001ba0b749a3b42faca48c199d8249e11baac469f0eb27c1e563a61207675515838a19a005b69406e95b197341d193fea0d1b71171f23469c7bd7c7347a4e080f083c44e",
      "networkId": 0,
      "chainId": 0
    }
  ]
}