{
  "hash": "0x695babb81f34e9cef86f59d36749c378121b3ad67c97d5c6ba57f04927f1bb74",
  "parentHash": "0x54e24f3a1c313ac683f0c5623d2b3fb98e7fac4bff084b62a8597b445a3a341d",
  "number": 75938,
  "timestamp": 1439412220,
  "nonce": "0x371c358f4596925a",
  "difficulty": 2218980870525,
  "gasLimit": {
    "_hex": "0x2fefd8"
  },
  "gasUsed": {
    "_hex": "0x5208"
  },
  "miner": "0xC603Ab5ef41fC61AA8b76bEddb09e3Cfcbb174BD",
  "extraData": "0x476574682f76312e302e312f77696e646f77732f676f312e342e32",
  "transactions": [
    {
      "hash": "0xe730954ce83f09fb461d1d17c5fc6f5384036a0b8f1c5acbfea239e7fe0d6c42",
      "blockHash": "0x695babb81f34e9cef86f59d36749c378121b3ad67c97d5c6ba57f04927f1bb74",
      "blockNumber": 75938,
      "transactionIndex": 0,
      "confirmations": null,
      "from": "0xee5379D0c1ca47327368027455074C26D9952628",
      "gasPrice": {
        "_hex": "0xd5126cd6a"
      },
      "gasLimit": {
        "_hex": "0x15f90"
      },
      "to": "0x029b539130345336FA435C807F08B86a344A1BFe",
      "value": {
        "_hex": "0xe6ed27d666800000"
      },
      "nonce": 5,
      "data": "0x",
      "r": "0xf5ca8ede30927c745221eb5de653c3a3b47ace3f4ea12de5161968f1237267fe",
      "s": "0x190e956996a14446afe5d260430e3f1f39f03bdc68dc7db66fcb883f2e901f1a",
      "v": 28,
      "creates": null,
      "raw": "0xf86d05850d5126cd6a83015f9094029b539130345336fa435c807f08b86a344a1bfe88e6ed27d666800000801ca0f5ca8ede30927c745221eb5de653c3a3b47ace3f4ea12de5161968f1237267fea0190e956996a14446afe5d260430e3f1f39f03bdc68dc7db66fcb883f2e901f1a",
      "networkId": 0,
      "chainId": 0
    }
  ]
}