{
  "hash": "0xd67031cb2ec23e3f07eb93317520084275c1a05bde224bc012461dfbf80c628c",
  "parentHash": "0x95eec0d0a297835e5ec732d8e9772cf658317439c2c0aeb409528c802d3c2691",
  "number": 58993,
  "timestamp": 1439130262,
  "nonce": "0x389a9146bf99035d",
  "difficulty": 1708958994982,
  "gasLimit": {
    "_hex": "0x2fefd5"
  },
  "gasUsed": {
    "_hex": "0x5208"
  },
  "miner": "0xc8ebccC5F5689Fa8659d83713341e5aD19349448",
  "extraData": "0x476574682f76312e302e302d35363231396135652f6c696e75782f676f312e34",
  "transactions": [
    {
      "hash": "0x3133efdb3c59d459770d0baef7ab2a15ff7474cd9d751998b04a35f72eb93fbd",
      "blockHash": "0xd67031cb2ec23e3f07eb93317520084275c1a05bde224bc012461dfbf80c628c",
      "blockNumber": 58993,
      "transactionIndex": 0,
      "confirmations": null,
      "from": "0x2C674A948592B20a4B775E1a3991Db043E6CF0FE",
      "gasPrice": {
        "_hex": "0xd827a2e00"
      },
      "gasLimit": {
        "_hex": "0x15f90"
      },
      "to": "0xb2B4188b76453042a4d799751c095229E50d40c2",
      "value": {
        "_hex": "0xad78ebc5ac6200000"
      },
      "nonce": 4,
      "data": "0x",
      "r": "0x233788bcfa65bfabf7c290b24144ad12eaab0da5ef2f9c77844801de72790c92",
      "s": "0x1c2002d5b8aba741e75e127cc403420c5b5c19a2ebe875854898eb1de366143a",
      "v": 28,
      "creates": null,
      "raw": "0xf86e04850d827a2e0083015f9094b2b4188b76453042a4d799751c095229e50d40c2890ad78ebc5ac6200000801ca0233788bcfa65bfabf7c290b24144ad12eaab0da5ef2f9c77844801de72790c92a01c2002d5b8aba741e75e127cc403420c5b5c19a2ebe875854898eb1de366143a",
      "networkId": 0,
      "chainId": 0
    }
  ]
}