{
  "hash": "0xf4cb2fca06b11ae7543956089212f503ffcea5343c9e8a094543695fe8b70a31",
  "parentHash": "0xe8666ccfeaac14aeec6ab2cddd1c4c7c15daad4587babc28201553e68cbb5926",
  "number": 104788,
  "timestamp": 1439875577,
  "nonce": "0xa167fcf97cf735e3",
  "difficulty": 4359336321452,
  "gasLimit": {
    "_hex": "0x2fefd8"
  },
  "gasUsed": {
    "_hex": "0x5208"
  },
  "miner": "0xe6A7a1d47ff21B6321162AEA7C6CB457D5476Bca",
  "extraData": "0x476574682f76312e302e312d38326566323666362f6c696e75782f676f312e34",
  "transactions": [
    {
      "hash": "0x61a6cd343f9fc3dec99083fa0bc7d94fff93fed9a5a8794373d643076ee848ee",
      "blockHash": "0xf4cb2fca06b11ae7543956089212f503ffcea5343c9e8a094543695fe8b70a31",
      "blockNumber": 104788,
      "transactionIndex": 0,
      "confirmations": null,
      "from": "0x55e64970e28367941E1A28e3Adaea732534A3C10",
      "gasPrice": {
        "_hex": "0xcfc54ad7f"
      },
      "gasLimit": {
        "_hex": "0x15f90"
      },
      "to": "0x31191beEB5a3d7f5eBC5B193e98bd15ce10Eb249",
      "value": {
        "_hex": "0xc7d713b49da0000"
      },
      "nonce": 1,
      "data": "0x",
      "r": "0x5dd17bf85176ed11d49db57be7d04b2d84a8170efa0a34e80965e75d3fd4723a",
      "s": "0x66dc562d381f1af7c1e55111ae987ae6c642fcaff4fea185770805790c726f17",
      "v": 27,
      "creates": null,
      "raw": "0xf86d01850cfc54ad7f83015f909431191beeb5a3d7f5ebc5b193e98bd15ce10eb249880c7d713b49da0000801ba05dd17bf85176ed11d49db57be7d04b2d84a8170efa0a34e80965e75d3fd4723aa066dc562d381f1af7c1e55111ae987ae6c642fcaff4fea185770805790c726f17",
      "networkId": 0,
      "chainId": 0
    }
  ]
}