{
  "hash": "0xd386a17e969e5c2cef96e67e1d13782f0eb779043c0355f8778071a4a2735e9d",
  "parentHash": "0x3149ed94d667bf248e7b8bf27c550bb8ea3b8007c849cfeced60a7e5769d08f2",
  "number": 107361,
  "timestamp": 1439921131,
  "nonce": "0x140ca0e3211d0bee",
  "difficulty": 4402915818461,
  "gasLimit": {
    "_hex": "0x2fefd8"
  },
  "gasUsed": {
    "_hex": "0x5208"
  },
  "miner": "0xe6A7a1d47ff21B6321162AEA7C6CB457D5476Bca",
  "extraData": "0x476574682f76312e302e312d38326566323666362f6c696e75782f676f312e34",
  "transactions": [
    {
      "hash": "0xbab9d04816ac6859499ab0d4c1ce138a5d5994a2ed35b23bc1de30027d2862d6",
      "blockHash": "0xd386a17e969e5c2cef96e67e1d13782f0eb779043c0355f8778071a4a2735e9d",
      "blockNumber": 107361,
      "transactionIndex": 0,
      "confirmations": null,
      "from": "0x18aC3828876aC1968eF70ebCD8018A9223A4C56e",
      "gasPrice": {
        "_hex": "0xcf2fdf3e7"
      },
      "gasLimit": {
        "_hex": "0x5208"
      },
      "to": "0x32Be343B94f860124dC4fEe278FDCBD38C102D88",
      "value": {
        "_hex": "0xc794aff11085800"
      },
      "nonce": 2,
      "data": "0x",
      "r": "0x97da8b20fb4a72b6ea9d06681f2f2f2d6016d139f4632977f9b88e23f1b5db24",
      "s": "0x5686fa57315220fd50451dc5287258581c9dbfc614753eae08f28def7ca7c5b0",
      "v": 28,
      "creates": null,
      "raw": "0xf86c02850cf2fdf3e78252089432be343b94f860124dc4fee278fdcbd38c102d88880c794aff11085800801ca097da8b20fb4a72b6ea9d06681f2f2f2d6016d139f4632977f9b88e23f1b5db24a05686fa57315220fd50451dc5287258581c9dbfc614753eae08f28def7ca7c5b0",
      "networkId": 0,
      "chainId": 0
    }
  ]
}