{
  "hash": "0x23c3561dc420d8a65342dd9877112ca68a5536ee6ed98a12e6ca39c7e5e76d41",
  "parentHash": "0x15fecd92b459fd4f20d535999fa8535366b141f47514085939abefd03d27ebe7",
  "number": 80728,
  "timestamp": 1439489919,
  "nonce": "0x06c63425e7b60bdd",
  "difficulty": 2435682532246,
  "gasLimit": {
    "_hex": "0x2fefd8"
  },
  "gasUsed": {
    "_hex": "0xaa3b"
  },
  "miner": "0x007f7f58D3eb5b7510A301eCC749FC1fCDDBE14D",
  "extraData": "0x476574682f76312e302e312f77696e646f77732f676f312e342e32",
  "transactions": [
    {
      "hash": "0x4714e3ddb96812032168becea44cd929b1ddd6253c1911e5311bfef6e606850c",
      "blockHash": "0x23c3561dc420d8a65342dd9877112ca68a5536ee6ed98a12e6ca39c7e5e76d41",
      "blockNumber": 80728,
      "transactionIndex": 0,
      "confirmations": null,
      "from": "0xF5437e158090B2a2d68f82b54a5864B95dD6DBea",
      "gasPrice": {
        "_hex": "0xd718f0a5e"
      },
      "gasLimit": {
        "_hex": "0x15f90"
      },
      "to": "0x16cF55eb83BaC98CB6be71696152762c656d8c89",
      "value": {
        "_hex": "0x3635c9adc5dea00000"
      },
      "nonce": 4,
      "data": "0x",
      "r": "0xe0523291f5b85ef0bb4026b6842cbde01addb395c5fc1a4bcb37da57b5cd1ab5",
      "s": "0x33ecbaf49385c19d4cbdc14b0b66d0163f5c00c39271fe95bf0568c709a7ca71",
      "v": 28,
      "creates": null,
      "raw": "0xf86e04850d718f0a5e83015f909416cf55eb83bac98cb6be71696152762c656d8c89893635c9adc5dea00000801ca0e0523291f5b85ef0bb4026b6842cbde01addb395c5fc1a4bcb37da57b5cd1ab5a033ecbaf49385c19d4cbdc14b0b66d0163f5c00c39271fe95bf0568c709a7ca71",
      "networkId": 0,
      "chainId": 0
    },
    {
      "hash": "0x8fba7ff9f5649030515477f0c4467cf0cbe27b35c4e4459522cc4f53cceadee9",
      "blockHash": "0x23c3561dc420d8a65342dd9877112ca68a5536ee6ed98a12e6ca39c7e5e76d41",
      "blockNumber": 80728,
      "transactionIndex": 1,
      "confirmations": null,
      "from": "0xD1826373C4E0938f0b4302B40324f7f9c546492C",
      "gasPrice": {
        "_hex": "0xd6a064bb3"
      },
      "gasLimit": {
        "_hex": "0x15f90"
      },
      "to": "0x5d6f0e293786F1ec9fEEc3851c03951Dc8c6112a",
      "value": {
        "_hex": "0x0"
      },
      "nonce": 36,
      "data": "0x32983c9e",
      "r": "0xa1f0b30a32c98fbd1d927303f38c931ae07f406b2cd5d947607821505de0eda0",
      "s": "0x1628d4cd14f6e3bd54b9d083126d05a51be0c6365b4c08ee7104fa3c83a1e134",
      "v": 28,
      "creates": null,
      "raw": "0xf86924850d6a064bb383015f90945d6f0e293786f1ec9feec3851c03951dc8c6112a808432983c9e1ca0a1f0b30a32c98fbd1d927303f38c931ae07f406b2cd5d947607821505de0eda0a01628d4cd14f6e3bd54b9d083126d05a51be0c6365b4c08ee7104fa3c83a1e134",
      "networkId": 0,
      "chainId": 0
    }
  ]
}