{
  "hash": "0x695d1a8f2fc81726f775d7b84f96486ae43ce243c55f3165f14551b26589f450",
  "parentHash": "0xe7fe7e3a724180662c9cb36eceaa16501599618b7e682212e98657938e3a6aab",
  "number": 105479,
  "timestamp": 1439888377,
  "nonce": "0x6b665de9b3344f7e",
  "difficulty": 4386734536907,
  "gasLimit": {
    "_hex": "0x2fefd8"
  },
  "gasUsed": {
    "_hex": "0x5208"
  },
  "miner": "0xe6A7a1d47ff21B6321162AEA7C6CB457D5476Bca",
  "extraData": "0x476574682f76312e302e312d38326566323666362f6c696e75782f676f312e34",
  "transactions": [
    {
      "hash": "0x3bda21572b192f345510816b46d35bbc10b3fd1198b91397e7c8678ba3f375f7",
      "blockHash": "0x695d1a8f2fc81726f775d7b84f96486ae43ce243c55f3165f14551b26589f450",
      "blockNumber": 105479,
      "transactionIndex": 0,
      "confirmations": null,
      "from": "0x7e438f91d967E175a700EfBD9A471f4724449dcd",
      "gasPrice": {
        "_hex": "0xd98657377"
      },
      "gasLimit": {
        "_hex": "0x15f90"
      },
      "to": "0xf2cC0eEAAAeD313542CB262B0B8c3972425143f0",
      "value": {
        "_hex": "0x45400a8fd5330000"
      },
      "nonce": 4,
      "data": "0x",
      "r": "0x62b8ca88876f298526261d05624bb40d87e877793c22dd5a7b1f0c3ff0b948b9",
      "s": "0x1ffdd4dd3e830805b58c732cf50e0a1270a737c2b1fc43e51ba729514dd93600",
      "v": 27,
      "creates": null,
      "raw": "0xf86d04850d9865737783015f9094f2cc0eeaaaed313542cb262b0b8c3972425143f08845400a8fd5330000801ba062b8ca88876f298526261d05624bb40d87e877793c22dd5a7b1f0c3ff0b948b9a01ffdd4dd3e830805b58c732cf50e0a1270a737c2b1fc43e51ba729514dd93600",
      "networkId": 0,
      "chainId": 0
    }
  ]
}