{
  "hash": "0x2509bfd3c6941aaa98d1b172697e1bb4eef44977a9cd74f53221ec43b1955bd3",
  "parentHash": "0x20af02901fab275d7e211818d9ed17ddef3ccbaf28e53a84c7368f20782cd12b",
  "number": 79345,
  "timestamp": 1439467985,
  "nonce": "0x3e473ed85350f201",
  "difficulty": 2348485818190,
  "gasLimit": {
    "_hex": "0x2fefd8"
  },
  "gasUsed": {
    "_hex": "0x5208"
  },
  "miner": "0x33b01a7fe4A1a5F774Bb73f89A4eF15a6Ffe1141",
  "extraData": "0x476574682f76312e302e312f6c696e75782f676f312e342e32",
  "transactions": [
    {
      "hash": "0x64fc1d34b6d83822d45c9a8c2429ef45198a14a4b00cd65e37fa1629f0473198",
      "blockHash": "0x2509bfd3c6941aaa98d1b172697e1bb4eef44977a9cd74f53221ec43b1955bd3",
      "blockNumber": 79345,
      "transactionIndex": 0,
      "confirmations": null,
      "from": "0x3010cacF5965f60685011055570972e92B4479aB",
      "gasPrice": {
        "_hex": "0xd744e25fd"
      },
      "gasLimit": {
        "_hex": "0x5208"
      },
      "to": "0x32Be343B94f860124dC4fEe278FDCBD38C102D88",
      "value": {
        "_hex": "0x3635c55e19e2300000"
      },
      "nonce": 4,
      "data": "0x",
      "r": "0x755c8e3811db60ec48c1b326b9d8bdc55b10936a61d9fc04df99a9ccf085d433",
      "s": "0x122f729f64c05559ec06597560c7d1921b092eae2bbd120f1519cb1f1b826dfb",
      "v": 28,
      "creates": null,
      "raw": "0xf86d04850d744e25fd8252089432be343b94f860124dc4fee278fdcbd38c102d88893635c55e19e2300000801ca0755c8e3811db60ec48c1b326b9d8bdc55b10936a61d9fc04df99a9ccf085d433a0122f729f64c05559ec06597560c7d1921b092eae2bbd120f1519cb1f1b826dfb",
      "networkId": 0,
      "chainId": 0
    }
  ]
}