{
  "hash": "0x54595e8aab5695ad71d0fc671fa00016908023df5873d9d2c944b7cc2822c549",
  "parentHash": "0x66bacb116802c9cd9a25701410d2e47a792a3bd3d3ea008b5411ac589e87d8e6",
  "number": 55508,
  "timestamp": 1439071862,
  "nonce": "0x5dd2488ec6ae1e53",
  "difficulty": 1625811184955,
  "gasLimit": {
    "_hex": "0x2fefd8"
  },
  "gasUsed": {
    "_hex": "0x20e7f"
  },
  "miner": "0x9D49F602b0fdb924Bd63DDE2Bd0907E4A07c63a7",
  "extraData": "0x476574682f76312e302e312f6c696e75782f676f312e342e32",
  "transactions": [
    {
      "hash": "0x788831a10d755cd180e5553e37441ba83f49e7d6301402d850e4ec15002c8f79",
      "blockHash": "0x54595e8aab5695ad71d0fc671fa00016908023df5873d9d2c944b7cc2822c549",
      "blockNumber": 55508,
      "transactionIndex": 0,
      "confirmations": null,
      "from": "0x684A44C069339d08e19A75668bdbA303Be855332",
      "gasPrice": {
        "_hex": "0x110c8f7d8de"
      },
      "gasLimit": {
        "_hex": "0xc350"
      },
      "to": "0x2910543Af39abA0Cd09dBb2D50200b3E800A63D2",
      "value": {
        "_hex": "0x43c33c1937564800000"
      },
      "nonce": 2,
      "data": "0x454e3347514d323752",
      "r": "0x71495989be26afdd0fed2cf11cd433c7c67af4e3f64cfc273995aa0863594ea7",
      "s": "0x811293e8aff0fb3cc9e226c99ad0ec5ae467d023c199623d42baa3afd2c85f4d",
      "v": 28,
      "creates": null,
      "raw": "0xf87802860110c8f7d8de82c350942910543af39aba0cd09dbb2d50200b3e800a63d28a043c33c193756480000089454e3347514d3237521ca071495989be26afdd0fed2cf11cd433c7c67af4e3f64cfc273995aa0863594ea7a0811293e8aff0fb3cc9e226c99ad0ec5ae467d023c199623d42baa3afd2c85f4d",
      "networkId": 0,
      "chainId": 0
    },
    {
      "hash": "0xbf7a49b48da8c14f154d2ecf631b7372f745946482e1a8b4e438b8d2e141d578",
      "blockHash": "0x54595e8aab5695ad71d0fc671fa00016908023df5873d9d2c944b7cc2822c549",
      "blockNumber": 55508,
      "transactionIndex": 1,
      "confirmations": null,
      "from": "0xc70bA22fe446A85A247bf85BaD1AdDf3ddaF62E9",
      "gasPrice": {
        "_hex": "0xd7d40ace3"
      },
      "gasLimit": {
        "_hex": "0xf4240"
      },
      "to": null,
      "value": {
        "_hex": "0x0"
      },
      "nonce": 7,
      "data": "0x606060405260b48060116000396000f3006060604052361560275760e060020a6000350463cde4efa981146050578063ed88c68e14605b575b605b3473ffffffffffffffffffffffffffffffffffffffff30163160028102821015605d5760a6565b60aa60005460ff1681565b005b6000805460ff1916600242061780825560ff16141560795760a6565b3373ffffffffffffffffffffffffffffffffffffffff16600060028402606082818181858883f150505050505b5050565b6060908152602090f3",
      "r": "0x3d00561c66d6a18c363d313c65a5f066789053e3b0495b92b1514b4d23f9b226",
      "s": "0x05752659d98eb1f5da63190eb09ad708078584d55190ec136917655376670d85",
      "v": 27,
      "creates": "0x6C8dDa9F172D4601b3c5429321F458B08d5eF84E",
      "raw": "0xf9011707850d7d40ace3830f42408080b8c5606060405260b48060116000396000f3006060604052361560275760e060020a6000350463cde4efa981146050578063ed88c68e14605b575b605b3473ffffffffffffffffffffffffffffffffffffffff30163160028102821015605d5760a6565b60aa60005460ff1681565b005b6000805460ff1916600242061780825560ff16141560795760a6565b3373ffffffffffffffffffffffffffffffffffffffff16600060028402606082818181858883f150505050505b5050565b6060908152602090f31ba03d00561c66d6a18c363d313c65a5f066789053e3b0495b92b1514b4d23f9b226a005752659d98eb1f5da63190eb09ad708078584d55190ec136917655376670d85",
      "networkId": 0,
      "chainId": 0
    },
    {
      "hash": "0xedafde0b287939c3b291c996205a456d801060f01e85a43f85a3dc1115926755",
      "blockHash": "0x54595e8aab5695ad71d0fc671fa00016908023df5873d9d2c944b7cc2822c549",
      "blockNumber": 55508,
      "transactionIndex": 2,
      "confirmations": null,
      "from": "0xa0A0e65204541Fca9b2fB282cd95138FAE16f809",
      "gasPrice": {
        "_hex": "0xd49279200"
      },
      "gasLimit": {
        "_hex": "0x59d8"
      },
      "to": "0x2910543Af39abA0Cd09dBb2D50200b3E800A63D2",
      "value": {
        "_hex": "0x30ca024f987b900000"
      },
      "nonce": 7,
      "data": "0x454e42425057375430",
      "r": "0x2af720135bc5be7415b6ed336baca518b261705da727f4d87ebf17ac8ae5f5f7",
      "s": "0x634c4116f533561435a3d572046ba9789a4e2dc7b030a9d11bf63d46f3060cc8",
      "v": 27,
      "creates": null,
      "raw": "0xf87607850d492792008259d8942910543af39aba0cd09dbb2d50200b3e800a63d28930ca024f987b90000089454e424250573754301ba02af720135bc5be7415b6ed336baca518b261705da727f4d87ebf17ac8ae5f5f7a0634c4116f533561435a3d572046ba9789a4e2dc7b030a9d11bf63d46f3060cc8",
      "networkId": 0,
      "chainId": 0
    },
    {
      "hash": "0x686ada13ed5c4c15f8d39b1798afa5f72e5b873cab6d844fd5c2a973c46457bc",
      "blockHash": "0x54595e8aab5695ad71d0fc671fa00016908023df5873d9d2c944b7cc2822c549",
      "blockNumber": 55508,
      "transactionIndex": 3,
      "confirmations": null,
      "from": "0xE0C4AB9072B4E6e3654A49F8A8Db026A4B3386a9",
      "gasPrice": {
        "_hex": "0xd3d37f23a"
      },
      "gasLimit": {
        "_hex": "0x15f90"
      },
      "to": "0x2910543Af39abA0Cd09dBb2D50200b3E800A63D2",
      "value": {
        "_hex": "0x3635a626d36edf0000"
      },
      "nonce": 2,
      "data": "0x454e57475a39485952",
      "r": "0x4792b588cd1fb4790f4d4b6ecef6779db9f0716e4826e46d35a6fecff45e0b49",
      "s": "0x5099a26b54f5749e2443447c09db8a5fdd5d3a9e3382bbcfa4ec59467df8b3b2",
      "v": 28,
      "creates": null,
      "raw": "0xf87702850d3d37f23a83015f90942910543af39aba0cd09dbb2d50200b3e800a63d2893635a626d36edf000089454e57475a394859521ca04792b588cd1fb4790f4d4b6ecef6779db9f0716e4826e46d35a6fecff45e0b49a05099a26b54f5749e2443447c09db8a5fdd5d3a9e3382bbcfa4ec59467df8b3b2",
      "networkId": 0,
      "chainId": 0
    }
  ]
}