{
  "hash": "0xaf0784e7d858ac1a993715c6f097b7d138265c0db759f9ff9ae0d2a7cbec78f2",
  "parentHash": "0x0216f44f75d69bb30ca1eb859067a5d170f6b83b7d139544fc7c2ab6ca28c27f",
  "number": 121519,
  "timestamp": 1440178183,
  "nonce": "0x2ee843fbb7c579de",
  "difficulty": 4473438572668,
  "gasLimit": {
    "_hex": "0x2fefd8"
  },
  "gasUsed": {
    "_hex": "0xf618"
  },
  "miner": "0x790b8a3cE86E707ED0eD32bF89B3269692a23CC1",
  "extraData": "0xd783010002844765746887676f312e342e32856c696e7578",
  "transactions": [
    {
      "hash": "0x5441f4df0806c6070a1955318c3709dc3409d41c4fcb873a04764eb7cf081bae",
      "blockHash": "0xaf0784e7d858ac1a993715c6f097b7d138265c0db759f9ff9ae0d2a7cbec78f2",
      "blockNumber": 121519,
      "transactionIndex": 0,
      "confirmations": null,
      "from": "0x8d8A322f0957F9190ECc783d6FFBad6aBc7b1836",
      "gasPrice": {
        "_hex": "0xd87e269ac"
      },
      "gasLimit": {
        "_hex": "0x15f90"
      },
      "to": "0x37F5B1dcf6649a3Ea6888F745E618CE996Dc313B",
      "value": {
        "_hex": "0x3782dace9d90000"
      },
      "nonce": 0,
      "data": "0x",
      "r": "0xcbcd6ac57261d239245ccd428dd3fc907a73f59e3490e34b07531f8ea0dfd19d",
      "s": "0x65024e37a5ca85e44a76db931c1d796d77cf72a6d8573f7eb252ca8a695eea32",
      "v": 27,
      "creates": null,
      "raw": "0xf86d80850d87e269ac83015f909437f5b1dcf6649a3ea6888f745e618ce996dc313b8803782dace9d90000801ba0cbcd6ac57261d239245ccd428dd3fc907a73f59e3490e34b07531f8ea0dfd19da065024e37a5ca85e44a76db931c1d796d77cf72a6d8573f7eb252ca8a695eea32",
      "networkId": 0,
      "chainId": 0
    },
    {
      "hash": "0x9f72865192d361ab01b50cd9c2d8fab31939301fd0adbacbeb3cba1e59230de7",
      "blockHash": "0xaf0784e7d858ac1a993715c6f097b7d138265c0db759f9ff9ae0d2a7cbec78f2",
      "blockNumber": 121519,
      "transactionIndex": 1,
      "confirmations": null,
      "from": "0x608f4b86321a68453f9adf6F06F7Fc3E621739ad",
      "gasPrice": {
        "_hex": "0xba43b7400"
      },
      "gasLimit": {
        "_hex": "0x5208"
      },
      "to": "0x32Be343B94f860124dC4fEe278FDCBD38C102D88",
      "value": {
        "_hex": "0x3406f22986b36000"
      },
      "nonce": 103,
      "data": "0x",
      "r": "0xdb004cffcf3f0386e466487509874ed6c7e02c8e2d1fd83be18cfd8db5c475a9",
      "s": "0x136bd8772a5badf193e0df3cc52871877e1d95b60d0346510faaf171aa1d00e6",
      "v": 27,
      "creates": null,
      "raw": "0xf86c67850ba43b74008252089432be343b94f860124dc4fee278fdcbd38c102d88883406f22986b36000801ba0db004cffcf3f0386e466487509874ed6c7e02c8e2d1fd83be18cfd8db5c475a9a0136bd8772a5badf193e0df3cc52871877e1d95b60d0346510faaf171aa1d00e6",
      "networkId": 0,
      "chainId": 0
    },
    {
      "hash": "0x4016049839bf2a8fe88f6ad218b6d87ddc0b35975099b3f7906a387a66c994e0",
      "blockHash": "0xaf0784e7d858ac1a993715c6f097b7d138265c0db759f9ff9ae0d2a7cbec78f2",
      "blockNumber": 121519,
      "transactionIndex": 2,
      "confirmations": null,
      "from": "0xD5bf64B3B17Fb895536953EfE17578a8b7b16880",
      "gasPrice": {
        "_hex": "0xba43b7400"
      },
      "gasLimit": {
        "_hex": "0x5208"
      },
      "to": "0x32Be343B94f860124dC4fEe278FDCBD38C102D88",
      "value": {
        "_hex": "0x56bc3af652449c000"
      },
      "nonce": 8,
      "data": "0x",
      "r": "0x1ff75fe5a62f2b02e59d91efb1f85c81341ae2d81d12c9c588c8d476f7c06112",
      "s": "0x4f41c9771a83b5caaabf649077e956acd9c19079e32d2bc6722905b3d9ef0019",
      "v": 27,
      "creates": null,
      "raw": "0xf86d08850ba43b74008252089432be343b94f860124dc4fee278fdcbd38c102d8889056bc3af652449c000801ba01ff75fe5a62f2b02e59d91efb1f85c81341ae2d81d12c9c588c8d476f7c06112a04f41c9771a83b5caaabf649077e956acd9c19079e32d2bc6722905b3d9ef0019",
      "networkId": 0,
      "chainId": 0
    }
  ]
}