{
  "hash": "0x109c23c6d44d9561bf0d7fb8946134e6595942084e3fa05d64780835ebeb95cc",
  "parentHash": "0x93fd54ea7b92e3305a23e3be317709da23d43f48bad096299add2f125964aa99",
  "number": 80955,
  "timestamp": 1439493812,
  "nonce": "0x4c8b2ee276e15b7d",
  "difficulty": 2443955727766,
  "gasLimit": {
    "_hex": "0x2fefd8"
  },
  "gasUsed": {
    "_hex": "0x5208"
  },
  "miner": "0xe6A7a1d47ff21B6321162AEA7C6CB457D5476Bca",
  "extraData": "0x476574682f76312e302e312d38326566323666362f6c696e75782f676f312e34",
  "transactions": [
    {
      "hash": "0x61da5a52530e36257d69a442762176f09cd7449222808f1caafeb810eb44ba75",
      "blockHash": "0x109c23c6d44d9561bf0d7fb8946134e6595942084e3fa05d64780835ebeb95cc",
      "blockNumber": 80955,
      "transactionIndex": 0,
      "confirmations": null,
      "from": "0x2910543Af39abA0Cd09dBb2D50200b3E800A63D2",
      "gasPrice": {
        "_hex": "0xdf17b0b51"
      },
      "gasLimit": {
        "_hex": "0x5208"
      },
      "to": "0x077BC4363eBf116c408C421b293cB018d22779fc",
      "value": {
        "_hex": "0x11c37937e08000"
      },
      "nonce": 423,
      "data": "0x",
      "r": "0x8020e1e025a276e3bcf1e4a9195b84e166e4b9cc6dc1026b089189a2d7e7c822",
      "s": "0x37fa3adca956a5f21fffda7d4bd1e087b30a6fcaf29bbe1878f71093809e0177",
      "v": 28,
      "creates": null,
      "raw": "0xf86d8201a7850df17b0b5182520894077bc4363ebf116c408c421b293cb018d22779fc8711c37937e08000801ca08020e1e025a276e3bcf1e4a9195b84e166e4b9cc6dc1026b089189a2d7e7c822a037fa3adca956a5f21fffda7d4bd1e087b30a6fcaf29bbe1878f71093809e0177",
      "networkId": 0,
      "chainId": 0
    }
  ]
}