{
  "hash": "0x29c202e731f63ad805f7b7f80362d9c9d55ba3df4346f528df5375c14f46a31c",
  "parentHash": "0x3ae4f95d82f33e1c8c63f82a65513ab5cef40b3cdeef8e02ea4a84369e7e8e7f",
  "number": 70123,
  "timestamp": 1439315015,
  "nonce": "0xeb20c710b38c5d7e",
  "difficulty": 2111604853657,
  "gasLimit": {
    "_hex": "0x2fefd8"
  },
  "gasUsed": {
    "_hex": "0x5208"
  },
  "miner": "0xbb7B8287f3F0a933474a79eAe42CBCa977791171",
  "extraData": "0x476574682f4c5649562f76312e302e312f6c696e75782f676f312e342e32",
  "transactions": [
    {
      "hash": "0x90bf081a76123425746462ec12feea606fd188257c25838ca5c3e216ea8edf43",
      "blockHash": "0x29c202e731f63ad805f7b7f80362d9c9d55ba3df4346f528df5375c14f46a31c",
      "blockNumber": 70123,
      "transactionIndex": 0,
      "confirmations": null,
      "from": "0x120A270bbC009644e35F0bB6ab13f95b8199c4ad",
      "gasPrice": {
        "_hex": "0xda780e529"
      },
      "gasLimit": {
        "_hex": "0x15f90"
      },
      "to": "0x4723347f5833573E53246F87758C188BF96EfF2b",
      "value": {
        "_hex": "0x374b57f3cef2700000"
      },
      "nonce": 194,
      "data": "0x",
      "r": "0xafc94a7f8cc5746c03f47802fcbada3c42bb2a7efdbbd60e139ced3d6a375b20",
      "s": "0x56910d98229f2f6338e671682252933d92301f9e548fc19a44bdb4ce75dafcfd",
      "v": 27,
      "creates": null,
      "raw": "0xf86f81c2850da780e52983015f90944723347f5833573e53246f87758c188bf96eff2b89374b57f3cef2700000801ba0afc94a7f8cc5746c03f47802fcbada3c42bb2a7efdbbd60e139ced3d6a375b20a056910d98229f2f6338e671682252933d92301f9e548fc19a44bdb4ce75dafcfd",
      "networkId": 0,
      "chainId": 0
    }
  ]
}