{
  "hash": "0xffb764939fac7df727ab341f05c633c5be84e2bdafc466a2092d9b73630fdac2",
  "parentHash": "0xc04bb5f2fcbcf1327432539aaf5afc8f56e349f275f3716e4cc4c93826b73655",
  "number": 89025,
  "timestamp": 1439616961,
  "nonce": "0x2ac8abbe97a17e6e",
  "difficulty": 3272730594297,
  "gasLimit": {
    "_hex": "0x2fefd8"
  },
  "gasUsed": {
    "_hex": "0x5208"
  },
  "miner": "0xc2E9e042B88164B5408bd895Df7DdaD491c6321E",
  "extraData": "0x",
  "transactions": [
    {
      "hash": "0x0f7e835f88caa6e34445a6562f0a0f4fc293151abe66d023f2069cdcf115e068",
      "blockHash": "0xffb764939fac7df727ab341f05c633c5be84e2bdafc466a2092d9b73630fdac2",
      "blockNumber": 89025,
      "transactionIndex": 0,
      "confirmations": null,
      "from": "0xc93a69dFC0fb3E867D9207599f7fe87d51619635",
      "gasPrice": {
        "_hex": "0xba43b7400"
      },
      "gasLimit": {
        "_hex": "0x5208"
      },
      "to": "0xC47Aaa860008be6f65B58c6C6E02a84e666EfE31",
      "value": {
        "_hex": "0x3408390309eab6000"
      },
      "nonce": 4,
      "data": "0x",
      "r": "0xeabc491544df07f5bfcd3dc79fe4f8e259a06a896cbe01c5179de934ce4797fe",
      "s": "0x7338f2036dc6a55435be6ab81bdac30f8c2987280eb91e1e1ff12bc3e52abc7b",
      "v": 27,
      "creates": null,
      "raw": "0xf86d04850ba43b740082520894c47aaa860008be6f65b58c6c6e02a84e666efe318903408390309eab6000801ba0eabc491544df07f5bfcd3dc79fe4f8e259a06a896cbe01c5179de934ce4797fea07338f2036dc6a55435be6ab81bdac30f8c2987280eb91e1e1ff12bc3e52abc7b",
      "networkId": 0,
      "chainId": 0
    }
  ]
}