{
  "hash": "0x874dddd71a1e7c5d2fc98dbd6c47704bb6c3bf07480d91f92454191c808754f4",
  "parentHash": "0x286bcf274f0b3f8fd5c992fe5df4d511d83792c35acc634dca1c67f9043ed949",
  "number": 60333,
  "timestamp": 1439153686,
  "nonce": "0x9bd64db7228e006a",
  "difficulty": 1742386841694,
  "gasLimit": {
    "_hex": "0x2fefd8"
  },
  "gasUsed": {
    "_hex": "0x546c"
  },
  "miner": "0x9746c7e1ef2bd21FF3997fa467593a89cb852BD0",
  "extraData": "0x476574682f76312e302e312f77696e646f77732f676f312e342e32",
  "transactions": [
    {
      "hash": "0x4658d45aa1aa2b8e8753f5aeb328286da809f1954f4484cf7831b0bcadc98ac1",
      "blockHash": "0x874dddd71a1e7c5d2fc98dbd6c47704bb6c3bf07480d91f92454191c808754f4",
      "blockNumber": 60333,
      "transactionIndex": 0,
      "confirmations": null,
      "from": "0x3a7dB224aCaE17de7798797D82cdF8253017DFa8",
      "gasPrice": {
        "_hex": "0xd3dade52d"
      },
      "gasLimit": {
        "_hex": "0x55f0"
      },
      "to": "0x2910543Af39abA0Cd09dBb2D50200b3E800A63D2",
      "value": {
        "_hex": "0x15af1d78b58c400000"
      },
      "nonce": 3,
      "data": "0x454e5a574a554a3338",
      "r": "0x77d8270d1bbcd5f1d6735b38fcb5346239a1d28e8a3a6e8a6658fa2e40631e84",
      "s": "0x67f3173ef4d4a724ed0984818777c766c95dad074a4245ebc8beb2debcd6efbd",
      "v": 27,
      "creates": null,
      "raw": "0xf87603850d3dade52d8255f0942910543af39aba0cd09dbb2d50200b3e800a63d28915af1d78b58c40000089454e5a574a554a33381ba077d8270d1bbcd5f1d6735b38fcb5346239a1d28e8a3a6e8a6658fa2e40631e84a067f3173ef4d4a724ed0984818777c766c95dad074a4245ebc8beb2debcd6efbd",
      "networkId": 0,
      "chainId": 0
    }
  ]
}