{
  "hash": "0x5906052c06c60947cf037c97bd07348ec7c05c9c197030a7b55db85875a82d88",
  "parentHash": "0x4eacc5cc12b6773af6f0c12691444042cf50a578411b35a7aa6b50abf6fa6f6d",
  "number": 48802,
  "timestamp": 1438963288,
  "nonce": "0x1c13a90d62a46480",
  "difficulty": 1475725955359,
  "gasLimit": {
    "_hex": "0x1e99b"
  },
  "gasUsed": {
    "_hex": "0x546c"
  },
  "miner": "0x3F98e477a361F777DA14611a7e419A75Fd238b6b",
  "extraData": "0x476574682f76312e302e312f6c696e75782f676f312e342e32",
  "transactions": [
    {
      "hash": "0xb2718405b3c9b23832854272a6aabd1d0a17e19c50084b22b54727e44e182a8f",
      "blockHash": "0x5906052c06c60947cf037c97bd07348ec7c05c9c197030a7b55db85875a82d88",
      "blockNumber": 48802,
      "transactionIndex": 0,
      "confirmations": null,
      "from": "0xddbD1C9cF2ED2cc0f724335D6f166f993B636239",
      "gasPrice": {
        "_hex": "0xd16e80615"
      },
      "gasLimit": {
        "_hex": "0x15f90"
      },
      "to": "0x2910543Af39abA0Cd09dBb2D50200b3E800A63D2",
      "value": {
        "_hex": "0x45400a8fd5330000"
      },
      "nonce": 0,
      "data": "0x454e504d4459505647",
      "r": "0xa36a0b7ec85f630148d0bb22a3bd4652f4b1d2a471a942b196751588c326a102",
      "s": "0x65ca3de41e48a0c32a1b6345abc9202c3338377359753c840c7ec03da820ffed",
      "v": 27,
      "creates": null,
      "raw": "0xf87680850d16e8061583015f90942910543af39aba0cd09dbb2d50200b3e800a63d28845400a8fd533000089454e504d44595056471ba0a36a0b7ec85f630148d0bb22a3bd4652f4b1d2a471a942b196751588c326a102a065ca3de41e48a0c32a1b6345abc9202c3338377359753c840c7ec03da820ffed",
      "networkId": 0,
      "chainId": 0
    }
  ]
}