{
  "hash": "0x1ac99945873c4d243c20195629ae6947a863900fbe50b018e8a89bda849a932f",
  "parentHash": "0x8be959f2cdcb62606e9c17c558972cde619a85101b998d23b0a7921925704da3",
  "number": 91390,
  "timestamp": 1439655017,
  "nonce": "0x7c0fa2ce0532ba05",
  "difficulty": 3464165135074,
  "gasLimit": {
    "_hex": "0x2fefd8"
  },
  "gasUsed": {
    "_hex": "0xa410"
  },
  "miner": "0x01d9DA08cc6Fb97c0DE1B6F4C28910A0859Ed1A1",
  "extraData": "0x476574682f76312e302e312f6c696e75782f676f312e342e32",
  "transactions": [
    {
      "hash": "0xb853520e527e2204abf54b608bf411e2c31d1f0ae9bbe98c5a3c7e9bfd1fc99f",
      "blockHash": "0x1ac99945873c4d243c20195629ae6947a863900fbe50b018e8a89bda849a932f",
      "blockNumber": 91390,
      "transactionIndex": 0,
      "confirmations": null,
      "from": "0x43eDA77C4B1A04c9903688C1Aa10FEa84f046571",
      "gasPrice": {
        "_hex": "0xd2ed77a29"
      },
      "gasLimit": {
        "_hex": "0x5208"
      },
      "to": "0x32Be343B94f860124dC4fEe278FDCBD38C102D88",
      "value": {
        "_hex": "0x21e1867875e7e000000"
      },
      "nonce": 1,
      "data": "0x",
      "r": "0x127feac16016b527a27fbf0f42e8a3bf210957b1acfd99ae6d58bc3c3d65d1a7",
      "s": "0x088d1b36dc32e2718d1e5e031ba70b8222f225dfde64f6bd254c364f6d7267e7",
      "v": 28,
      "creates": null,
      "raw": "0xf86e01850d2ed77a298252089432be343b94f860124dc4fee278fdcbd38c102d888a021e1867875e7e000000801ca0127feac16016b527a27fbf0f42e8a3bf210957b1acfd99ae6d58bc3c3d65d1a7a0088d1b36dc32e2718d1e5e031ba70b8222f225dfde64f6bd254c364f6d7267e7",
      "networkId": 0,
      "chainId": 0
    },
    {
      "hash": "0x9e1356dc9cae71d95a1dedefff86c1c298223caa6c182674bf123a162c71854e",
      "blockHash": "0x1ac99945873c4d243c20195629ae6947a863900fbe50b018e8a89bda849a932f",
      "blockNumber": 91390,
      "transactionIndex": 1,
      "confirmations": null,
      "from": "0xAF17A4ab5d6B10055Fc1eB1BFaCcbDe69B83aF76",
      "gasPrice": {
        "_hex": "0xd2ed77a29"
      },
      "gasLimit": {
        "_hex": "0x5208"
      },
      "to": "0x32Be343B94f860124dC4fEe278FDCBD38C102D88",
      "value": {
        "_hex": "0xddc7d49089d0400"
      },
      "nonce": 0,
      "data": "0x",
      "r": "0xca306fd74e6cb2cbc2ef56600553cf7760f9541aec833a029d32dbd0627a99e6",
      "s": "0x7b214cecf49389d65af87637fc1d2b9df176ae821855458266c9e29b1952441e",
      "v": 28,
      "creates": null,
      "raw": "0xf86c80850d2ed77a298252089432be343b94f860124dc4fee278fdcbd38c102d88880ddc7d49089d0400801ca0ca306fd74e6cb2cbc2ef56600553cf7760f9541aec833a029d32dbd0627a99e6a07b214cecf49389d65af87637fc1d2b9df176ae821855458266c9e29b1952441e",
      "networkId": 0,
      "chainId": 0
    }
  ]
}