{
  "hash": "0x70a0888e71a286267d09e54fdea3b6254be1ec3760f33b9763b18ace7605fd89",
  "parentHash": "0x9a5222769536a77cbba966443685faeee33afb9ac8c53ffc082535b6314d1c91",
  "number": 74789,
  "timestamp": 1439392392,
  "nonce": "0xe975b12d08f78ff9",
  "difficulty": 2200939275675,
  "gasLimit": {
    "_hex": "0x2fefd8"
  },
  "gasUsed": {
    "_hex": "0x546c"
  },
  "miner": "0xe6A7a1d47ff21B6321162AEA7C6CB457D5476Bca",
  "extraData": "0x476574682f76312e302e312d38326566323666362f6c696e75782f676f312e34",
  "transactions": [
    {
      "hash": "0xded4f20b873044a3954f1cd2362177ac83088ea89ba5fefe300ef9f38b723723",
      "blockHash": "0x70a0888e71a286267d09e54fdea3b6254be1ec3760f33b9763b18ace7605fd89",
      "blockNumber": 74789,
      "transactionIndex": 0,
      "confirmations": null,
      "from": "0xD5377B8cbCca498A7fc78984898C27A98F982503",
      "gasPrice": {
        "_hex": "0xd23ee12e2"
      },
      "gasLimit": {
        "_hex": "0x15f90"
      },
      "to": "0x9252f10822221Afe05035227D96a9b5B2b50349B",
      "value": {
        "_hex": "0x227a45e653dc700000"
      },
      "nonce": 4,
      "data": "0x454e433933464b3330",
      "r": "0x73663f4b7833a537896281504224b29dc073392542597ba4851544b760190158",
      "s": "0x2b4a58868d78819229c52c1d1d1befee49dfebda7ad5f336480a6585deb63731",
      "v": 27,
      "creates": null,
      "raw": "0xf87704850d23ee12e283015f90949252f10822221afe05035227d96a9b5b2b50349b89227a45e653dc70000089454e433933464b33301ba073663f4b7833a537896281504224b29dc073392542597ba4851544b760190158a02b4a58868d78819229c52c1d1d1befee49dfebda7ad5f336480a6585deb63731",
      "networkId": 0,
      "chainId": 0
    }
  ]
}