{
  "hash": "0xb4aa63eb356f99638782d904ecf87aed0ca28ffa10e339ce795c51a62804e662",
  "parentHash": "0xb5ba4f9d4aa72131d09e7c686ed998439bf8f7b704c3da3aa89c5d497df4f735",
  "number": 50945,
  "timestamp": 1438996984,
  "nonce": "0x7ddc79e8ef3e4ab0",
  "difficulty": 1549931887547,
  "gasLimit": {
    "_hex": "0x85081"
  },
  "gasUsed": {
    "_hex": "0x5208"
  },
  "miner": "0x1D889aFF5D57138c9819412d63b5d877567B5936",
  "extraData": "0x476574682f76312e302e312f77696e646f77732f676f312e342e32",
  "transactions": [
    {
      "hash": "0x40921f69218a2ef7ba80be9bfed1835bce51fdeef72472469e7a65b589adea07",
      "blockHash": "0xb4aa63eb356f99638782d904ecf87aed0ca28ffa10e339ce795c51a62804e662",
      "blockNumber": 50945,
      "transactionIndex": 0,
      "confirmations": null,
      "from": "0x3Ad06149b21C55Ff867cc3fb9740D2BCc7101231",
      "gasPrice": {
        "_hex": "0xcc5e60727"
      },
      "gasLimit": {
        "_hex": "0x15f90"
      },
      "to": "0x1308A2e95c0160B90803ddCA9B9a5bb55E416d79",
      "value": {
        "_hex": "0x21e19e0c9bab2400000"
      },
      "nonce": 3,
      "data": "0x",
      "r": "0x02cc0b74e15a5b2a1a9712b0d53f249df6052581ab768d9e927b93f64e0f543c",
      "s": "0x44830840d70ec8cedc5aec35fbb636bd39d5c911431ebfb5648ee252dadfbfbb",
      "v": 27,
      "creates": null,
      "raw": "0xf86f03850cc5e6072783015f90941308a2e95c0160b90803ddca9b9a5bb55e416d798a021e19e0c9bab2400000801ba002cc0b74e15a5b2a1a9712b0d53f249df6052581ab768d9e927b93f64e0f543ca044830840d70ec8cedc5aec35fbb636bd39d5c911431ebfb5648ee252dadfbfbb",
      "networkId": 0,
      "chainId": 0
    }
  ]
}