{
  "hash": "0x38735a8b4d040ef2abf276097739c40281cd77aa719bbd26d683b8fbae3e15e2",
  "parentHash": "0x27060b274e068f6a74689123aa61b3591e4fe664c6df4216038da967ab81ea04",
  "number": 89821,
  "timestamp": 1439629656,
  "nonce": "0x8d46081689664003",
  "difficulty": 3340223109809,
  "gasLimit": {
    "_hex": "0x2fefd8"
  },
  "gasUsed": {
    "_hex": "0x5208"
  },
  "miner": "0xfC25864D8326b4CB335C6942218e5F4Ee8D1E1EF",
  "extraData": "0x476574682f76312e302e312f77696e646f77732f676f312e342e32",
  "transactions": [
    {
      "hash": "0xfd617e02021f0c2d934b0a6b4c3e5f9c5a5b7b5ba562b5db898a951d1ee82c4b",
      "blockHash": "0x38735a8b4d040ef2abf276097739c40281cd77aa719bbd26d683b8fbae3e15e2",
      "blockNumber": 89821,
      "transactionIndex": 0,
      "confirmations": null,
      "from": "0xC8E61bFB4846B622B084B98Bc586388aFCb70d5F",
      "gasPrice": {
        "_hex": "0xcb755cc2b"
      },
      "gasLimit": {
        "_hex": "0x5208"
      },
      "to": "0x32Be343B94f860124dC4fEe278FDCBD38C102D88",
      "value": {
        "_hex": "0xf6c3100ee8319000"
      },
      "nonce": 4,
      "data": "0x",
      "r": "0xa2ef339414ee2b129b3b4448a73624a8766ac55453a814d6125125229fda261a",
      "s": "0x541d881ec7a303d50a00c985b0ebbddb76e264a443169b9aacbecbb118dab423",
      "v": 27,
      "creates": null,
      "raw": "0xf86c04850cb755cc2b8252089432be343b94f860124dc4fee278fdcbd38c102d8888f6c3100ee8319000801ba0a2ef339414ee2b129b3b4448a73624a8766ac55453a814d6125125229fda261aa0541d881ec7a303d50a00c985b0ebbddb76e264a443169b9aacbecbb118dab423",
      "networkId": 0,
      "chainId": 0
    }
  ]
}