{
  "hash": "0x043bbb12eacaf663df82be9bd04d030d0a9a2209a23162a5de3be534ac95d002",
  "parentHash": "0xf6d36159385a860fbccfd5479adc808a42dbbab1b5537cae5b10bdeb5900c5a3",
  "number": 116163,
  "timestamp": 1440069427,
  "nonce": "0xeb85e165cc661611",
  "difficulty": 4600383206220,
  "gasLimit": {
    "_hex": "0x2fefd8"
  },
  "gasUsed": {
    "_hex": "0x5208"
  },
  "miner": "0x52bc44d5378309EE2abF1539BF71dE1b7d7bE3b5",
  "extraData": "0x476574682f76312e302e312d61383839306436312f6c696e75782f676f312e34",
  "transactions": [
    {
      "hash": "0xdab063575af3af2d71cba1615a6172537bd905bd50d98388217df6c0c5a1b23f",
      "blockHash": "0x043bbb12eacaf663df82be9bd04d030d0a9a2209a23162a5de3be534ac95d002",
      "blockNumber": 116163,
      "transactionIndex": 0,
      "confirmations": null,
      "from": "0x2910543Af39abA0Cd09dBb2D50200b3E800A63D2",
      "gasPrice": {
        "_hex": "0xdd7ffd0af"
      },
      "gasLimit": {
        "_hex": "0x5208"
      },
      "to": "0x0004B15be8cB573A7be023e203E268DbcFFD302B",
      "value": {
        "_hex": "0x4be4d5630232ff8000"
      },
      "nonce": 1128,
      "data": "0x",
      "r": "0x33d1209139b95b525497e08f9629ee39acea40249f14ab984a01bad3be7b8c92",
      "s": "0x1b03713720bb9771adefea6f2080d56c0b83f907437ba0cba0c5b9d2b6144c4a",
      "v": 28,
      "creates": null,
      "raw": "0xf86f820468850dd7ffd0af825208940004b15be8cb573a7be023e203e268dbcffd302b894be4d5630232ff8000801ca033d1209139b95b525497e08f9629ee39acea40249f14ab984a01bad3be7b8c92a01b03713720bb9771adefea6f2080d56c0b83f907437ba0cba0c5b9d2b6144c4a",
      "networkId": 0,
      "chainId": 0
    }
  ]
}