{
  "hash": "0xd99a14047f6bd2a3303f5a08901cc9af66edff389a0660d579cf685ba577e553",
  "parentHash": "0x289c28b39118d5eba9cf0c93f991b32610b47f19a4439de08dfea21f467620da",
  "number": 55583,
  "timestamp": 1439073101,
  "nonce": "0x17ec66c5fb0aabbb",
  "difficulty": 1623416854326,
  "gasLimit": {
    "_hex": "0x2fefd8"
  },
  "gasUsed": {
    "_hex": "0x5208"
  },
  "miner": "0xeB1325C8D9d3ea8D74aC11F4B00F1B2367686319",
  "extraData": "0x476574682f76312e302e312f77696e646f77732f676f312e342e32",
  "transactions": [
    {
      "hash": "0xdaecb4cfed3814e841965645bd1e015d3b03b618382935ab7f9e275bfe7c2370",
      "blockHash": "0xd99a14047f6bd2a3303f5a08901cc9af66edff389a0660d579cf685ba577e553",
      "blockNumber": 55583,
      "transactionIndex": 0,
      "confirmations": null,
      "from": "0x5CB4A151541Fcd1f86244DDE8d78Ede47535BeC3",
      "gasPrice": {
        "_hex": "0xd7b71e861"
      },
      "gasLimit": {
        "_hex": "0x5208"
      },
      "to": "0x65fdeb3Af336392404436bB824E9DCbAaDdef54D",
      "value": {
        "_hex": "0x3635c9adc5dea00000"
      },
      "nonce": 1,
      "data": "0x",
      "r": "0x7ed98d576a4f1c1e08455717cfe776c4f0088b6403b662162f0a6f8db2ba51ac",
      "s": "0x1732be5edb055026df5365b468eb74957f1d286fcd9a16b2472f32c9fd008c35",
      "v": 28,
      "creates": null,
      "raw": "0xf86d01850d7b71e8618252089465fdeb3af336392404436bb824e9dcbaaddef54d893635c9adc5dea00000801ca07ed98d576a4f1c1e08455717cfe776c4f0088b6403b662162f0a6f8db2ba51aca01732be5edb055026df5365b468eb74957f1d286fcd9a16b2472f32c9fd008c35",
      "networkId": 0,
      "chainId": 0
    }
  ]
}