{
  "hash": "0x756cf890842261da5b97cb0762a612c63c38b079449b361e843d4349a3f2aaa7",
  "parentHash": "0xe90f026dcb11e142e0fa9723a729324d1698bf43e2eaac97af06e4ce01c02bc0",
  "number": 99159,
  "timestamp": 1439785420,
  "nonce": "0x3bddd3a8ac859be4",
  "difficulty": 3802975600155,
  "gasLimit": {
    "_hex": "0x2fefd8"
  },
  "gasUsed": {
    "_hex": "0x14820"
  },
  "miner": "0xe6A7a1d47ff21B6321162AEA7C6CB457D5476Bca",
  "extraData": "0x476574682f76312e302e312d38326566323666362f6c696e75782f676f312e34",
  "transactions": [
    {
      "hash": "0x64f18649278914f9bc5ba83c3368e55732038588232b8c35cf7493b8c45e2d8f",
      "blockHash": "0x756cf890842261da5b97cb0762a612c63c38b079449b361e843d4349a3f2aaa7",
      "blockNumber": 99159,
      "transactionIndex": 0,
      "confirmations": null,
      "from": "0xe2dc38c86274d7F8d96Ee09dcF2072a329e6eda3",
      "gasPrice": {
        "_hex": "0xd68b01493"
      },
      "gasLimit": {
        "_hex": "0x5208"
      },
      "to": "0x32Be343B94f860124dC4fEe278FDCBD38C102D88",
      "value": {
        "_hex": "0x46c28b06ed0dec00"
      },
      "nonce": 0,
      "data": "0x",
      "r": "0x3b98441e06beedd0c60f30d27ce0d3a82f5a6ac2dfd536c3fdfd9b9cffadbf75",
      "s": "0x33579b538b38f72f4b44240f24c044e00ea799539f178e2b2dc72e022bf330fe",
      "v": 27,
      "creates": null,
      "raw": "0xf86c80850d68b014938252089432be343b94f860124dc4fee278fdcbd38c102d888846c28b06ed0dec00801ba03b98441e06beedd0c60f30d27ce0d3a82f5a6ac2dfd536c3fdfd9b9cffadbf75a033579b538b38f72f4b44240f24c044e00ea799539f178e2b2dc72e022bf330fe",
      "networkId": 0,
      "chainId": 0
    },
    {
      "hash": "0xc59c6b4973eb0e33397b483b2b587032f9aca4514614f25b6bad11a81bda4cf3",
      "blockHash": "0x756cf890842261da5b97cb0762a612c63c38b079449b361e843d4349a3f2aaa7",
      "blockNumber": 99159,
      "transactionIndex": 1,
      "confirmations": null,
      "from": "0x1B95B22FaDbf1abBFb05197526D2485a204f9961",
      "gasPrice": {
        "_hex": "0xd68b01493"
      },
      "gasLimit": {
        "_hex": "0x5208"
      },
      "to": "0x32Be343B94f860124dC4fEe278FDCBD38C102D88",
      "value": {
        "_hex": "0xb5c840a4282df000"
      },
      "nonce": 0,
      "data": "0x",
      "r": "0xa01b8f105e7465d63912d3060c544936ace3b1c3aaacad9a8e7ebfde2d88067f",
      "s": "0x791c17d24e1d15a833b5bd85d7e69f680f76c85bfb16de44dafdfe5183993bd4",
      "v": 28,
      "creates": null,
      "raw": "0xf86c80850d68b014938252089432be343b94f860124dc4fee278fdcbd38c102d8888b5c840a4282df000801ca0a01b8f105e7465d63912d3060c544936ace3b1c3aaacad9a8e7ebfde2d88067fa0791c17d24e1d15a833b5bd85d7e69f680f76c85bfb16de44dafdfe5183993bd4",
      "networkId": 0,
      "chainId": 0
    },
    {
      "hash": "0x5c83aa7b25c6934a784e0cb74af9a0d80e996c05cb1644fd1058e769d090062b",
      "blockHash": "0x756cf890842261da5b97cb0762a612c63c38b079449b361e843d4349a3f2aaa7",
      "blockNumber": 99159,
      "transactionIndex": 2,
      "confirmations": null,
      "from": "0x07fa0859A7282d3c93c1A1168421077878E5c54b",
      "gasPrice": {
        "_hex": "0xd68b01493"
      },
      "gasLimit": {
        "_hex": "0x5208"
      },
      "to": "0x32Be343B94f860124dC4fEe278FDCBD38C102D88",
      "value": {
        "_hex": "0xf3fb0384f7dec00"
      },
      "nonce": 0,
      "data": "0x",
      "r": "0x1191fb25e0f865463818b6c8aac78e5fa2ca66ff6bfd0e7d61063b85487d1416",
      "s": "0x76e6a01bf28337db05d2751383bfe027f9cee918957b9a5f9610f8486b6475d3",
      "v": 27,
      "creates": null,
      "raw": "0xf86c80850d68b014938252089432be343b94f860124dc4fee278fdcbd38c102d88880f3fb0384f7dec00801ba01191fb25e0f865463818b6c8aac78e5fa2ca66ff6bfd0e7d61063b85487d1416a076e6a01bf28337db05d2751383bfe027f9cee918957b9a5f9610f8486b6475d3",
      "networkId": 0,
      "chainId": 0
    },
    {
      "hash": "0xe09043f63c2712b831b081ea0df4385ddf969088bfaba2d13c6e6be57f0a3aec",
      "blockHash": "0x756cf890842261da5b97cb0762a612c63c38b079449b361e843d4349a3f2aaa7",
      "blockNumber": 99159,
      "transactionIndex": 3,
      "confirmations": null,
      "from": "0xBDe8541989cF94E88cA73e2D46a8839414968F9B",
      "gasPrice": {
        "_hex": "0xd68b01493"
      },
      "gasLimit": {
        "_hex": "0x5208"
      },
      "to": "0x32Be343B94f860124dC4fEe278FDCBD38C102D88",
      "value": {
        "_hex": "0x6120b2f5de4bec00"
      },
      "nonce": 0,
      "data": "0x",
      "r": "0x83ecaf343f7072e8e854698ee195a6307cd4b162a2ba5d33b069d6d1f86f994c",
      "s": "0x6568dbc287e22f6543a4a197678d8ad13f89d367a3f6c1017db283f812b45bc3",
      "v": 27,
      "creates": null,
      "raw": "0xf86c80850d68b014938252089432be343b94f860124dc4fee278fdcbd38c102d88886120b2f5de4bec00801ba083ecaf343f7072e8e854698ee195a6307cd4b162a2ba5d33b069d6d1f86f994ca06568dbc287e22f6543a4a197678d8ad13f89d367a3f6c1017db283f812b45bc3",
      "networkId": 0,
      "chainId": 0
    }
  ]
}