{
  "hash": "0x2eab2e6f5350d0edcefba0bdbb4d7ea53546bf9b40f36d44db501d3ecd47cd15",
  "parentHash": "0x5d84089e8b8757343b834d813c3c7ed9215341dadea7159f25e4b030185175b8",
  "number": 70633,
  "timestamp": 1439323148,
  "nonce": "0x83f82292b04e585f",
  "difficulty": 2138453211428,
  "gasLimit": {
    "_hex": "0x2fefd8"
  },
  "gasUsed": {
    "_hex": "0x14a84"
  },
  "miner": "0xe6A7a1d47ff21B6321162AEA7C6CB457D5476Bca",
  "extraData": "0x476574682f76312e302e312d38326566323666362f6c696e75782f676f312e34",
  "transactions": [
    {
      "hash": "0x24b125b04f7758d4d9e8ed6d02a2e846301a787cb28b283a1b7f2c52cbee331b",
      "blockHash": "0x2eab2e6f5350d0edcefba0bdbb4d7ea53546bf9b40f36d44db501d3ecd47cd15",
      "blockNumber": 70633,
      "transactionIndex": 0,
      "confirmations": null,
      "from": "0x2910543Af39abA0Cd09dBb2D50200b3E800A63D2",
      "gasPrice": {
        "_hex": "0xdc3d875f0"
      },
      "gasLimit": {
        "_hex": "0x5208"
      },
      "to": "0x98781996FF0F2C5dE96Bb45755683BB5a09A5727",
      "value": {
        "_hex": "0xad77cf8e18e3f8000"
      },
      "nonce": 248,
      "data": "0x",
      "r": "0xf5735cc453807ba785f9878a2efc2a4eee04acbd7a9fbb899bbfd454d4aff834",
      "s": "0x628892cb1ef7df6e1dae85ddedd4a166f18bec6559e3e8dfe1839255d03aa4e5",
      "v": 27,
      "creates": null,
      "raw": "0xf86e81f8850dc3d875f08252089498781996ff0f2c5de96bb45755683bb5a09a5727890ad77cf8e18e3f8000801ba0f5735cc453807ba785f9878a2efc2a4eee04acbd7a9fbb899bbfd454d4aff834a0628892cb1ef7df6e1dae85ddedd4a166f18bec6559e3e8dfe1839255d03aa4e5",
      "networkId": 0,
      "chainId": 0
    },
    {
      "hash": "0xc6fdd80bd33e6c023f947efb984430f0f74f7842e1d763f9dc2de2450e558839",
      "blockHash": "0x2eab2e6f5350d0edcefba0bdbb4d7ea53546bf9b40f36d44db501d3ecd47cd15",
      "blockNumber": 70633,
      "transactionIndex": 1,
      "confirmations": null,
      "from": "0x2910543Af39abA0Cd09dBb2D50200b3E800A63D2",
      "gasPrice": {
        "_hex": "0xdc3d875f0"
      },
      "gasLimit": {
        "_hex": "0x5208"
      },
      "to": "0xFD7c9117BbEB649d9b37B3D3C9917f7c12f526B3",
      "value": {
        "_hex": "0x56bb59ab42b2f8000"
      },
      "nonce": 249,
      "data": "0x",
      "r": "0x77c6529f536ff187b9b9f08373ff4e71bf0672c268d368b6a6503d6f7235f8f9",
      "s": "0x75cd7ebba681bd0ff4e6ad82c51ab1178d03e2f2a9d0730e4099ee2a0548a031",
      "v": 28,
      "creates": null,
      "raw": "0xf86e81f9850dc3d875f082520894fd7c9117bbeb649d9b37b3d3c9917f7c12f526b389056bb59ab42b2f8000801ca077c6529f536ff187b9b9f08373ff4e71bf0672c268d368b6a6503d6f7235f8f9a075cd7ebba681bd0ff4e6ad82c51ab1178d03e2f2a9d0730e4099ee2a0548a031",
      "networkId": 0,
      "chainId": 0
    },
    {
      "hash": "0xd97339c6c74e406391526d646fc73af6f66fcf5e91e5ef88a316a08d4dde4b7b",
      "blockHash": "0x2eab2e6f5350d0edcefba0bdbb4d7ea53546bf9b40f36d44db501d3ecd47cd15",
      "blockNumber": 70633,
      "transactionIndex": 2,
      "confirmations": null,
      "from": "0xe408fceaa1b98F3C640f48fcbA39f056066D6308",
      "gasPrice": {
        "_hex": "0xd90f29648"
      },
      "gasLimit": {
        "_hex": "0x61a8"
      },
      "to": "0x50056353D06a71b1f427499419D04F81f5dE4F20",
      "value": {
        "_hex": "0x6c6b935b8bbd400000"
      },
      "nonce": 2,
      "data": "0x",
      "r": "0x97bb1a11a0f2ef2a94bfd11ab7872cb22345a266443de5b5227d5e1a85fbb9c6",
      "s": "0x0e801adb82d03275fffa7651bbd9aef4994d1ef80699324019127f96d976c289",
      "v": 27,
      "creates": null,
      "raw": "0xf86d02850d90f296488261a89450056353d06a71b1f427499419d04f81f5de4f20896c6b935b8bbd400000801ba097bb1a11a0f2ef2a94bfd11ab7872cb22345a266443de5b5227d5e1a85fbb9c6a00e801adb82d03275fffa7651bbd9aef4994d1ef80699324019127f96d976c289",
      "networkId": 0,
      "chainId": 0
    },
    {
      "hash": "0x3de50f51933f170e8cad28380f18f03e9d3e7f46fe56696c6159f8d2ddf4a886",
      "blockHash": "0x2eab2e6f5350d0edcefba0bdbb4d7ea53546bf9b40f36d44db501d3ecd47cd15",
      "blockNumber": 70633,
      "transactionIndex": 3,
      "confirmations": null,
      "from": "0x558FaBA8c8326AdC0704469504E27c7482489a73",
      "gasPrice": {
        "_hex": "0xcd25aa5ce"
      },
      "gasLimit": {
        "_hex": "0x55f0"
      },
      "to": "0x2910543Af39abA0Cd09dBb2D50200b3E800A63D2",
      "value": {
        "_hex": "0xad607efeff8d50000"
      },
      "nonce": 1,
      "data": "0x454e423451384a3252",
      "r": "0x0aba9736138ce3b86ef8d638809a0e9575a443c5e77fa9e10343754ce519c2ae",
      "s": "0x5d4462efec49d671cf198ef879fd70661745e218af400533f3ff15ca9d56215c",
      "v": 28,
      "creates": null,
      "raw": "0xf87601850cd25aa5ce8255f0942910543af39aba0cd09dbb2d50200b3e800a63d2890ad607efeff8d5000089454e423451384a32521ca00aba9736138ce3b86ef8d638809a0e9575a443c5e77fa9e10343754ce519c2aea05d4462efec49d671cf198ef879fd70661745e218af400533f3ff15ca9d56215c",
      "networkId": 0,
      "chainId": 0
    }
  ]
}