{
  "hash": "0x1f39613b8fd06c00e618a1a53913a4cf0a8cc421ec2fffcbc57abaf2ff8bade9",
  "parentHash": "0x043a07948e9151bfc5d5a4e7c5b9f0933fd1196dd320b8893d611927ff6b367e",
  "number": 83152,
  "timestamp": 1439531054,
  "nonce": "0xda491d28c1ff3b44",
  "difficulty": 2406610446286,
  "gasLimit": {
    "_hex": "0x2fefd8"
  },
  "gasUsed": {
    "_hex": "0x14820"
  },
  "miner": "0xbb7B8287f3F0a933474a79eAe42CBCa977791171",
  "extraData": "0x476574682f4c5649562f76312e302e312f6c696e75782f676f312e342e32",
  "transactions": [
    {
      "hash": "0x721917d2309a290209d7c33729b943e639bc10201df9afa3e13c857ea104d48c",
      "blockHash": "0x1f39613b8fd06c00e618a1a53913a4cf0a8cc421ec2fffcbc57abaf2ff8bade9",
      "blockNumber": 83152,
      "transactionIndex": 0,
      "confirmations": null,
      "from": "0x06EC48800B2DB3eEfa052e98A9b5Fc2Bf783Ee74",
      "gasPrice": {
        "_hex": "0xdfbb3c616"
      },
      "gasLimit": {
        "_hex": "0x5208"
      },
      "to": "0x32Be343B94f860124dC4fEe278FDCBD38C102D88",
      "value": {
        "_hex": "0x14970f12801bc8000"
      },
      "nonce": 4,
      "data": "0x",
      "r": "0x1865635a91ebe94b110205e8415bb95578a8d221f485f881a3324762f34a3ce8",
      "s": "0x33c40929e3cb18967a24818dc813e0ae26d0fcedac6b0c4a8eb64c408ef43e4b",
      "v": 27,
      "creates": null,
      "raw": "0xf86d04850dfbb3c6168252089432be343b94f860124dc4fee278fdcbd38c102d8889014970f12801bc8000801ba01865635a91ebe94b110205e8415bb95578a8d221f485f881a3324762f34a3ce8a033c40929e3cb18967a24818dc813e0ae26d0fcedac6b0c4a8eb64c408ef43e4b",
      "networkId": 0,
      "chainId": 0
    },
    {
      "hash": "0xe48d12d7896450f8010e663eef7370ebe4894a4090d2fc4d2a5f1a845e54b007",
      "blockHash": "0x1f39613b8fd06c00e618a1a53913a4cf0a8cc421ec2fffcbc57abaf2ff8bade9",
      "blockNumber": 83152,
      "transactionIndex": 1,
      "confirmations": null,
      "from": "0x32Be343B94f860124dC4fEe278FDCBD38C102D88",
      "gasPrice": {
        "_hex": "0xdfbb3c616"
      },
      "gasLimit": {
        "_hex": "0x5208"
      },
      "to": "0x7435017A858B6B057e5a8cEDFeb79fF3f7dc2C70",
      "value": {
        "_hex": "0xbf70a21e613e0000"
      },
      "nonce": 641,
      "data": "0x",
      "r": "0x63588478d541d42cd270b01bab3d7e061427e49f4a7ff1480698940819bd1dd9",
      "s": "0x1968dcd80f0d906745d37f848821c61ed31d48c58492b3fe65bc70f9c40bc905",
      "v": 28,
      "creates": null,
      "raw": "0xf86e820281850dfbb3c616825208947435017a858b6b057e5a8cedfeb79ff3f7dc2c7088bf70a21e613e0000801ca063588478d541d42cd270b01bab3d7e061427e49f4a7ff1480698940819bd1dd9a01968dcd80f0d906745d37f848821c61ed31d48c58492b3fe65bc70f9c40bc905",
      "networkId": 0,
      "chainId": 0
    },
    {
      "hash": "0xc76e0c8cdcf38e5a764cbf9631b8326065c77c5355404eb57ca3de949b4ce19b",
      "blockHash": "0x1f39613b8fd06c00e618a1a53913a4cf0a8cc421ec2fffcbc57abaf2ff8bade9",
      "blockNumber": 83152,
      "transactionIndex": 2,
      "confirmations": null,
      "from": "0x0D4EcC7d750180EBf4A9Df728B6669B5Bceb5E40",
      "gasPrice": {
        "_hex": "0xdfbb3c616"
      },
      "gasLimit": {
        "_hex": "0x5208"
      },
      "to": "0x32Be343B94f860124dC4fEe278FDCBD38C102D88",
      "value": {
        "_hex": "0x455f1671eeea7c00"
      },
      "nonce": 19,
      "data": "0x",
      "r": "0x21ad6b9778c0c946d462fc5a9c43e511377266e985f54b3ebc5da25182a4c563",
      "s": "0x6b78769b4376b6a8506266f8c2b029a7eb57ab706cf541b0d1ed6b8fb075eb69",
      "v": 27,
      "creates": null,
      "raw": "0xf86c13850dfbb3c6168252089432be343b94f860124dc4fee278fdcbd38c102d8888455f1671eeea7c00801ba021ad6b9778c0c946d462fc5a9c43e511377266e985f54b3ebc5da25182a4c563a06b78769b4376b6a8506266f8c2b029a7eb57ab706cf541b0d1ed6b8fb075eb69",
      "networkId": 0,
      "chainId": 0
    },
    {
      "hash": "0x946ad0dd3b5dd898df61885cf2b17eabbfdb76d8b42fad2fe61fca8b5baa1368",
      "blockHash": "0x1f39613b8fd06c00e618a1a53913a4cf0a8cc421ec2fffcbc57abaf2ff8bade9",
      "blockNumber": 83152,
      "transactionIndex": 3,
      "confirmations": null,
      "from": "0x98f2c2754c77b49993EEA4Dcd2D9ABa71B696B60",
      "gasPrice": {
        "_hex": "0xdfbb3c616"
      },
      "gasLimit": {
        "_hex": "0x5208"
      },
      "to": "0x32Be343B94f860124dC4fEe278FDCBD38C102D88",
      "value": {
        "_hex": "0x2a4864fa5ca418000"
      },
      "nonce": 4,
      "data": "0x",
      "r": "0x9fa27353d460f9bd23d740d0b9d8058eced5b03f9ad00e733dbb5f450c25f78c",
      "s": "0x0f8cb994ca284a5945f7e33456cc8ed3cacc8149d94b26887b989b15c4c9446d",
      "v": 27,
      "creates": null,
      "raw": "0xf86d04850dfbb3c6168252089432be343b94f860124dc4fee278fdcbd38c102d888902a4864fa5ca418000801ba09fa27353d460f9bd23d740d0b9d8058eced5b03f9ad00e733dbb5f450c25f78ca00f8cb994ca284a5945f7e33456cc8ed3cacc8149d94b26887b989b15c4c9446d",
      "networkId": 0,
      "chainId": 0
    }
  ]
}