{
  "hash": "0xc6e9f5e636818a2ee27b81f82aecf12a79c21ffadd376ea0717ce3798ade1719",
  "parentHash": "0xc059dc4bc7e2905279712421834af21528f0cbe0f9a485175cd092d0186e6bc5",
  "number": 71638,
  "timestamp": 1439339381,
  "nonce": "0x1e78fc603cad0ee7",
  "difficulty": 2179304815990,
  "gasLimit": {
    "_hex": "0x2fefd8"
  },
  "gasUsed": {
    "_hex": "0xaec1"
  },
  "miner": "0xf927a40C8B7F6E07c5af7FA2155B4864a4112B13",
  "extraData": "0x",
  "transactions": [
    {
      "hash": "0xd7ee7f7288194c1b448438625dabfce2f836f2a14f9c4fd47a54023f08a45bf9",
      "blockHash": "0xc6e9f5e636818a2ee27b81f82aecf12a79c21ffadd376ea0717ce3798ade1719",
      "blockNumber": 71638,
      "transactionIndex": 0,
      "confirmations": null,
      "from": "0x17580B766f7453525ca4C6A88b01b50570EA088C",
      "gasPrice": {
        "_hex": "0xdb29047a7"
      },
      "gasLimit": {
        "_hex": "0x61a80"
      },
      "to": "0x5Fe5B7546D1628f7348B023A0393de1FC825A4fD",
      "value": {
        "_hex": "0x6f05b59d3b200000"
      },
      "nonce": 240,
      "data": "0xb595b8b50000000000000000000000000000000000000000000000000000000000000001",
      "r": "0xbbef8e81f885431c19b4fa922afc0208457f405cf12962960f423866b509dc4f",
      "s": "0x592756890e935baa8d402d5b5596f5fc0097a90c4f71a76490dbd9977c6667da",
      "v": 28,
      "creates": null,
      "raw": "0xf89281f0850db29047a783061a80945fe5b7546d1628f7348b023a0393de1fc825a4fd886f05b59d3b200000a4b595b8b500000000000000000000000000000000000000000000000000000000000000011ca0bbef8e81f885431c19b4fa922afc0208457f405cf12962960f423866b509dc4fa0592756890e935baa8d402d5b5596f5fc0097a90c4f71a76490dbd9977c6667da",
      "networkId": 0,
      "chainId": 0
    }
  ]
}