{
  "hash": "0x1f0acfe54bbea601dbc83f47cb5930c79ba5af75fd1e4024edb7b0ace8253361",
  "parentHash": "0x04c0741a44ba16a746cac1bdf504f7975687a5716f99e24830b8aff167070d45",
  "number": 84679,
  "timestamp": 1439553022,
  "nonce": "0xf2a4da1689dd7356",
  "difficulty": 2610600434172,
  "gasLimit": {
    "_hex": "0x2fefd8"
  },
  "gasUsed": {
    "_hex": "0x54b0"
  },
  "miner": "0xfFcD9CAE6d9f54fd8ae05296F839892677ff6EaA",
  "extraData": "0x476574682f76312e302e312f77696e646f77732f676f312e342e32",
  "transactions": [
    {
      "hash": "0x6e9100898559017d362821a612ab16d02eb441bf6bf7e8022af2a3c45c3188f0",
      "blockHash": "0x1f0acfe54bbea601dbc83f47cb5930c79ba5af75fd1e4024edb7b0ace8253361",
      "blockNumber": 84679,
      "transactionIndex": 0,
      "confirmations": null,
      "from": "0x6bE7595eA0f068489A2701eC4649158DdC43e178",
      "gasPrice": {
        "_hex": "0xcbc02e3d6"
      },
      "gasLimit": {
        "_hex": "0x55f0"
      },
      "to": "0x4504d181dAfC0635B4Fb30Cc846F8d3a9b556E1F",
      "value": {
        "_hex": "0x4e9acad5921c680000"
      },
      "nonce": 1,
      "data": "0x4352564f573232313531",
      "r": "0xe60885292787c6acfc5cfbe21dde28545b0e2fdae702d83e56b8ba10c16a2f46",
      "s": "0x5222bd3ef2eabad1329d310b93e6602f639b20b15f73ae5a8247309998cc8b06",
      "v": 28,
      "creates": null,
      "raw": "0xf87701850cbc02e3d68255f0944504d181dafc0635b4fb30cc846f8d3a9b556e1f894e9acad5921c6800008a4352564f5732323135311ca0e60885292787c6acfc5cfbe21dde28545b0e2fdae702d83e56b8ba10c16a2f46a05222bd3ef2eabad1329d310b93e6602f639b20b15f73ae5a8247309998cc8b06",
      "networkId": 0,
      "chainId": 0
    }
  ]
}