{
  "hash": "0xb68ef309a0caeda5aebdeedd772620e97aa7b7a33a1f6fd236cbb6704892b23e",
  "parentHash": "0xd687b64f9794a3e166435f62e4964112bb6697f3bceb9b837c79fd9cafdc4f02",
  "number": 47873,
  "timestamp": 1438947742,
  "nonce": "0xdecf8aa2418d964a",
  "difficulty": 1456559564904,
  "gasLimit": {
    "_hex": "0xff15"
  },
  "gasUsed": {
    "_hex": "0x546c"
  },
  "miner": "0x46E8c1d63017660A7A3B9c6E928D5f8025c95E8C",
  "extraData": "0xdd809b302e392e33392b2b613832352d5257696e646f2f6d73762f4a4954",
  "transactions": [
    {
      "hash": "0xe27029318a90d8c28edb9b01c5e6926855a0451810e6af18b9ecd123fea0d861",
      "blockHash": "0xb68ef309a0caeda5aebdeedd772620e97aa7b7a33a1f6fd236cbb6704892b23e",
      "blockNumber": 47873,
      "transactionIndex": 0,
      "confirmations": null,
      "from": "0xB6F78Da4F4D041b3BC14BC5Ba519A5ba0c32F128",
      "gasPrice": {
        "_hex": "0x10efae1940f"
      },
      "gasLimit": {
        "_hex": "0x55f0"
      },
      "to": "0x2910543Af39abA0Cd09dBb2D50200b3E800A63D2",
      "value": {
        "_hex": "0x4563918244f40000"
      },
      "nonce": 0,
      "data": "0x454e4a384b48473238",
      "r": "0xed1dd410a44665f87bc23889b383653ba7e99879037b246a6e7ec2ca76ed87ca",
      "s": "0x045c97d6fd7cf6b7050a90491360dc01314d81324a9509fbe04d586aed107157",
      "v": 28,
      "creates": null,
      "raw": "0xf8768086010efae1940f8255f0942910543af39aba0cd09dbb2d50200b3e800a63d2884563918244f4000089454e4a384b484732381ca0ed1dd410a44665f87bc23889b383653ba7e99879037b246a6e7ec2ca76ed87caa0045c97d6fd7cf6b7050a90491360dc01314d81324a9509fbe04d586aed107157",
      "networkId": 0,
      "chainId": 0
    }
  ]
}