{
  "hash": "0x3e63faf85ae55cff31a5bf619478a498f1839eaef3c457881eb91dec9a37f666",
  "parentHash": "0x2d03b696c7b5946babff12b907e34c3a88ef18768f4fef239425b6b77966c03c",
  "number": 46859,
  "timestamp": 1438930530,
  "nonce": "0x5a6da399aa1a3a89",
  "difficulty": 1455313742785,
  "gasLimit": {
    "_hex": "0x7ffc"
  },
  "gasUsed": {
    "_hex": "0x5208"
  },
  "miner": "0xe6A7a1d47ff21B6321162AEA7C6CB457D5476Bca",
  "extraData": "0x657468706f6f6c2e6f7267",
  "transactions": [
    {
      "hash": "0x83c876b86140e797d487f0c37922c4ef8334808eafffbacbcb35b754c5b965fc",
      "blockHash": "0x3e63faf85ae55cff31a5bf619478a498f1839eaef3c457881eb91dec9a37f666",
      "blockNumber": 46859,
      "transactionIndex": 0,
      "confirmations": null,
      "from": "0xe6A7a1d47ff21B6321162AEA7C6CB457D5476Bca",
      "gasPrice": {
        "_hex": "0xd75e014dd"
      },
      "gasLimit": {
        "_hex": "0x5208"
      },
      "to": "0x5EB29bE794Cc425659cE205C7574d158Dfa6Fb15",
      "value": {
        "_hex": "0x11be1a04adb2e10c"
      },
      "nonce": 9,
      "data": "0x",
      "r": "0x88b984c178885e92f4aceabc961870579f7f74bd88404498929bf094d701089b",
      "s": "0x51e043f791fb9e9d4835f4f4bd33fe2612b7d44ad51092ad95596772999c656c",
      "v": 27,
      "creates": null,
      "raw": "0xf86c09850d75e014dd825208945eb29be794cc425659ce205c7574d158dfa6fb158811be1a04adb2e10c801ba088b984c178885e92f4aceabc961870579f7f74bd88404498929bf094d701089ba051e043f791fb9e9d4835f4f4bd33fe2612b7d44ad51092ad95596772999c656c",
      "networkId": 0,
      "chainId": 0
    }
  ]
}