{
  "hash": "0x9badac0aa87171bc460548688492f99547cca3ea948961e6590014ece66ec10d",
  "parentHash": "0xb4f536c8e380795aef43d10dbf10a0f22ef9c3308d9a4e5503e021b8543489a1",
  "number": 50096,
  "timestamp": 1438983874,
  "nonce": "0x0b4b7bd25b21f202",
  "difficulty": 1509014402709,
  "gasLimit": {
    "_hex": "0x4faf5"
  },
  "gasUsed": {
    "_hex": "0x5208"
  },
  "miner": "0x55bAf64fc9eAccFFd7Cc643BB61142E1C6ac093e",
  "extraData": "0x",
  "transactions": [
    {
      "hash": "0xc98bd3ab48a97b8df1f3fc66e4c7fc9020d69eff016266f1342906f11f27f363",
      "blockHash": "0x9badac0aa87171bc460548688492f99547cca3ea948961e6590014ece66ec10d",
      "blockNumber": 50096,
      "transactionIndex": 0,
      "confirmations": null,
      "from": "0x96EA6Ac89A2bac95347B51DBa63D8bd5ebDedce1",
      "gasPrice": {
        "_hex": "0xcbfed6dcf"
      },
      "gasLimit": {
        "_hex": "0x15f90"
      },
      "to": "0x15eC455c1446538CaA87b185CEa4A0c7A537c56F",
      "value": {
        "_hex": "0x35659ef93f0fc40000"
      },
      "nonce": 4,
      "data": "0x",
      "r": "0x7dfce1464d2815e274423b3bccafd6c6af40669ff4b4130b2e6cf59a0f4aa760",
      "s": "0x38b01af2548eaca58d41e98e7b5046b48360f0c467c5e2bc248ed2cfa4646696",
      "v": 27,
      "creates": null,
      "raw": "0xf86e04850cbfed6dcf83015f909415ec455c1446538caa87b185cea4a0c7a537c56f8935659ef93f0fc40000801ba07dfce1464d2815e274423b3bccafd6c6af40669ff4b4130b2e6cf59a0f4aa760a038b01af2548eaca58d41e98e7b5046b48360f0c467c5e2bc248ed2cfa4646696",
      "networkId": 0,
      "chainId": 0
    }
  ]
}