{
  "hash": "0x776f6435d173336a244437d182617124fd8b5c8ed8eb59d99a6cd0573e7d33ed",
  "parentHash": "0xe82c88dfbd356cc52480ef95f5d69c7bbc4d60772e855c94fde7731e66bd5220",
  "number": 81161,
  "timestamp": 1439497230,
  "nonce": "0x1df6bc438be4ce83",
  "difficulty": 2441510259860,
  "gasLimit": {
    "_hex": "0x2fefd8"
  },
  "gasUsed": {
    "_hex": "0x5428"
  },
  "miner": "0xe6A7a1d47ff21B6321162AEA7C6CB457D5476Bca",
  "extraData": "0x476574682f76312e302e312d38326566323666362f6c696e75782f676f312e34",
  "transactions": [
    {
      "hash": "0x4714e84d52e3f0c93cf22bee50c3d9bf5c97c2cf7be38a1b0c29bd1997653e85",
      "blockHash": "0x776f6435d173336a244437d182617124fd8b5c8ed8eb59d99a6cd0573e7d33ed",
      "blockNumber": 81161,
      "transactionIndex": 0,
      "confirmations": null,
      "from": "0xa61e151af0007B7406d969Dce51740caf0D69088",
      "gasPrice": {
        "_hex": "0x10a178f1ed5"
      },
      "gasLimit": {
        "_hex": "0x55f0"
      },
      "to": "0x0000000000000000000000000000000000000000",
      "value": {
        "_hex": "0x16345785d8a0000"
      },
      "nonce": 1,
      "data": "0x454e374242585858",
      "r": "0x48eef343fe4ce66a6a5b07a04f69f806edf4dcb7434c6c9daa6301a2fb15db1f",
      "s": "0x346e44b3b30f0b92fd5c06a9191037a655d89e2fb9b30109dc74f94eef89bc48",
      "v": 28,
      "creates": null,
      "raw": "0xf8750186010a178f1ed58255f094000000000000000000000000000000000000000088016345785d8a000088454e3742425858581ca048eef343fe4ce66a6a5b07a04f69f806edf4dcb7434c6c9daa6301a2fb15db1fa0346e44b3b30f0b92fd5c06a9191037a655d89e2fb9b30109dc74f94eef89bc48",
      "networkId": 0,
      "chainId": 0
    }
  ]
}