{
  "hash": "0x7c1a5a33ff5c4c4371204a93548467440cc36658a64dc9082bd7e9c9782aaffa",
  "parentHash": "0x3aaf419bd393054b4cdc6466e4d8f0744813b0fc240b449f9d4be4e3eab809fd",
  "number": 104704,
  "timestamp": 1439874096,
  "nonce": "0x964269e953a87ad0",
  "difficulty": 4355124844935,
  "gasLimit": {
    "_hex": "0x2fefd5"
  },
  "gasUsed": {
    "_hex": "0x5208"
  },
  "miner": "0x790b8a3cE86E707ED0eD32bF89B3269692a23CC1",
  "extraData": "0xd783010001844765746887676f312e342e32856c696e7578",
  "transactions": [
    {
      "hash": "0xc2c6ac0db722f3fb63fed40e944eae5426a5fcf2a8f9a01fac26c500e4a1b886",
      "blockHash": "0x7c1a5a33ff5c4c4371204a93548467440cc36658a64dc9082bd7e9c9782aaffa",
      "blockNumber": 104704,
      "transactionIndex": 0,
      "confirmations": null,
      "from": "0x2910543Af39abA0Cd09dBb2D50200b3E800A63D2",
      "gasPrice": {
        "_hex": "0xcb814a5d8"
      },
      "gasLimit": {
        "_hex": "0x5208"
      },
      "to": "0xb4Ad43131139584E8f6F31D578E0dC4d11Df6D7b",
      "value": {
        "_hex": "0x2b5e3af16b1880000"
      },
      "nonce": 1018,
      "data": "0x",
      "r": "0xb9b7d842728f00df41f04f931afc8ad9fa87fff674e6fc79647aeb88dc70171a",
      "s": "0x17ce9b9ee453b0e8014e0cebbcceecd24545a6128c98b0c084c274c30e5d0a7a",
      "v": 27,
      "creates": null,
      "raw": "0xf86f8203fa850cb814a5d882520894b4ad43131139584e8f6f31d578e0dc4d11df6d7b8902b5e3af16b1880000801ba0b9b7d842728f00df41f04f931afc8ad9fa87fff674e6fc79647aeb88dc70171aa017ce9b9ee453b0e8014e0cebbcceecd24545a6128c98b0c084c274c30e5d0a7a",
      "networkId": 0,
      "chainId": 0
    }
  ]
}