{
  "hash": "0x4c09505f0e4af12068bccdc013ff33e33482ee59d1107e669e8b4def0fa873f0",
  "parentHash": "0xb9367a1bc9094d6275ab50f4a58ce13186e35a46de68f5053487a578abf00361",
  "number": 80241,
  "timestamp": 1439482423,
  "nonce": "0xaf1f0e7d86b0a302",
  "difficulty": 2380560233809,
  "gasLimit": {
    "_hex": "0x2fefd8"
  },
  "gasUsed": {
    "_hex": "0x546c"
  },
  "miner": "0x55bAf64fc9eAccFFd7Cc643BB61142E1C6ac093e",
  "extraData": "0x",
  "transactions": [
    {
      "hash": "0x47505e743d7b544bcd8ed6717c69f2f9eb6b4a4529d638ba9c25fcaa1bcda38b",
      "blockHash": "0x4c09505f0e4af12068bccdc013ff33e33482ee59d1107e669e8b4def0fa873f0",
      "blockNumber": 80241,
      "transactionIndex": 0,
      "confirmations": null,
      "from": "0x5338Ef70eaC9DD9af5a0503B5EfAd1039e67E725",
      "gasPrice": {
        "_hex": "0x110c8f7d8de"
      },
      "gasLimit": {
        "_hex": "0xc350"
      },
      "to": "0x2910543Af39abA0Cd09dBb2D50200b3E800A63D2",
      "value": {
        "_hex": "0x402f4cfee62e80000"
      },
      "nonce": 0,
      "data": "0x454e314843464d4652",
      "r": "0x61ddc4cb0aeb18982535de2135c4eb6c5271141ee756806044bede407b3abd52",
      "s": "0x1b37ebe652a5025849752ed68d8b5cf43d3e7e98cc5f030b892c5277d0615ff5",
      "v": 27,
      "creates": null,
      "raw": "0xf87780860110c8f7d8de82c350942910543af39aba0cd09dbb2d50200b3e800a63d2890402f4cfee62e8000089454e314843464d46521ba061ddc4cb0aeb18982535de2135c4eb6c5271141ee756806044bede407b3abd52a01b37ebe652a5025849752ed68d8b5cf43d3e7e98cc5f030b892c5277d0615ff5",
      "networkId": 0,
      "chainId": 0
    }
  ]
}