{
  "hash": "0xf20f44d1c46ece53dc015670b3562020e41c0a24eada8a08f53a15c99550211d",
  "parentHash": "0xb5353a96bf3b6236b1f6a304ffd98e0f3211aee9eb5a046b3721805718b4f326",
  "number": 79512,
  "timestamp": 1439470914,
  "nonce": "0x36692148098d0aa1",
  "difficulty": 2338141418665,
  "gasLimit": {
    "_hex": "0x2fefd8"
  },
  "gasUsed": {
    "_hex": "0x546c"
  },
  "miner": "0x02dE7d35a60bf6A216411476040ec648668769D7",
  "extraData": "0x476574682f76312e302e312f77696e646f77732f676f312e342e32",
  "transactions": [
    {
      "hash": "0x2b152dc2aaa3991b9bcbe69299b1976254d55ae33f71ea662b44c46e94802ff9",
      "blockHash": "0xf20f44d1c46ece53dc015670b3562020e41c0a24eada8a08f53a15c99550211d",
      "blockNumber": 79512,
      "transactionIndex": 0,
      "confirmations": null,
      "from": "0xa28F8098A723e4ca02E9f4512410C519a252c1a9",
      "gasPrice": {
        "_hex": "0xd95827a8c"
      },
      "gasLimit": {
        "_hex": "0x55f0"
      },
      "to": "0x2910543Af39abA0Cd09dBb2D50200b3E800A63D2",
      "value": {
        "_hex": "0x20f5b1eaad8d80000"
      },
      "nonce": 1,
      "data": "0x454e37454d30475147",
      "r": "0xa58fabcf510a3add7732b417e5c3541333f1fceefbcfceeb724108c7f9836347",
      "s": "0x54ecccbbe163a63d79e6c6c788ca7107ae6e448a65bf917efd41c74364047227",
      "v": 28,
      "creates": null,
      "raw": "0xf87601850d95827a8c8255f0942910543af39aba0cd09dbb2d50200b3e800a63d289020f5b1eaad8d8000089454e37454d304751471ca0a58fabcf510a3add7732b417e5c3541333f1fceefbcfceeb724108c7f9836347a054ecccbbe163a63d79e6c6c788ca7107ae6e448a65bf917efd41c74364047227",
      "networkId": 0,
      "chainId": 0
    }
  ]
}