{
  "hash": "0xbf4fd44949a2a694706be575b2a8b653462f7032d372817be054d8c45bbc6f51",
  "parentHash": "0xb67615197b7e88fe57203244c26aeb132286a5486988055bc48cb202b0656514",
  "number": 69336,
  "timestamp": 1439302146,
  "nonce": "0x4ab9f106bbe27fdf",
  "difficulty": 2063890615166,
  "gasLimit": {
    "_hex": "0x2fefd8"
  },
  "gasUsed": {
    "_hex": "0xf87c"
  },
  "miner": "0x88C96e25787Fd9e2746F7Ce708f2285eCC16348f",
  "extraData": "0x476574682f76312e302e312f77696e646f77732f676f312e342e32",
  "transactions": [
    {
      "hash": "0xeabcc96a41b37e57f1c6df51a36facbc90f7aa1ecfeb90b0b098d8c2b47d8628",
      "blockHash": "0xbf4fd44949a2a694706be575b2a8b653462f7032d372817be054d8c45bbc6f51",
      "blockNumber": 69336,
      "transactionIndex": 0,
      "confirmations": null,
      "from": "0x77e41B4125b7c14757e0f07fE36b2E95db757a10",
      "gasPrice": {
        "_hex": "0xd6673ff4a"
      },
      "gasLimit": {
        "_hex": "0x55f0"
      },
      "to": "0x2910543Af39abA0Cd09dBb2D50200b3E800A63D2",
      "value": {
        "_hex": "0x193d7f7d253de0000"
      },
      "nonce": 6,
      "data": "0x454e47583939505930",
      "r": "0x2438e6542ed1ab7df814998f2582f4cac6191adb3da764dba54b5ac346327735",
      "s": "0x78ecbb39b65f5e4e5f88f265a8b62a330a114baaa14d716e36153f77ca07903d",
      "v": 28,
      "creates": null,
      "raw": "0xf87606850d6673ff4a8255f0942910543af39aba0cd09dbb2d50200b3e800a63d2890193d7f7d253de000089454e475839395059301ca02438e6542ed1ab7df814998f2582f4cac6191adb3da764dba54b5ac346327735a078ecbb39b65f5e4e5f88f265a8b62a330a114baaa14d716e36153f77ca07903d",
      "networkId": 0,
      "chainId": 0
    },
    {
      "hash": "0x2d9d6f3c8aac1117f6829b4007254f9a30ce84c79f74440baaa77c15d8a89c6e",
      "blockHash": "0xbf4fd44949a2a694706be575b2a8b653462f7032d372817be054d8c45bbc6f51",
      "blockNumber": 69336,
      "transactionIndex": 1,
      "confirmations": null,
      "from": "0x097738363B1662599ad0777E19461601F5EC8dF9",
      "gasPrice": {
        "_hex": "0xd1d450444"
      },
      "gasLimit": {
        "_hex": "0x5208"
      },
      "to": "0x32Be343B94f860124dC4fEe278FDCBD38C102D88",
      "value": {
        "_hex": "0x56bc32028a4c84000"
      },
      "nonce": 13,
      "data": "0x",
      "r": "0xdf51054b398b215e386e42b698a0e0ea54f0b1271986737bbef99658f0f6bb03",
      "s": "0x52f18706bef74b3778d9986fb394a15107758ed9d335db31579db6dc8f950a36",
      "v": 27,
      "creates": null,
      "raw": "0xf86d0d850d1d4504448252089432be343b94f860124dc4fee278fdcbd38c102d8889056bc32028a4c84000801ba0df51054b398b215e386e42b698a0e0ea54f0b1271986737bbef99658f0f6bb03a052f18706bef74b3778d9986fb394a15107758ed9d335db31579db6dc8f950a36",
      "networkId": 0,
      "chainId": 0
    },
    {
      "hash": "0x87eb6fe7419239577dca50648da47b0dc18343c52a666047ccf4ee64c81ac5fe",
      "blockHash": "0xbf4fd44949a2a694706be575b2a8b653462f7032d372817be054d8c45bbc6f51",
      "blockNumber": 69336,
      "transactionIndex": 2,
      "confirmations": null,
      "from": "0x910a4aADabb3A7B3F7879118332E13Da66b68D77",
      "gasPrice": {
        "_hex": "0xd1d450444"
      },
      "gasLimit": {
        "_hex": "0x5208"
      },
      "to": "0x32Be343B94f860124dC4fEe278FDCBD38C102D88",
      "value": {
        "_hex": "0x15aeda3c1f2bd5000"
      },
      "nonce": 10,
      "data": "0x",
      "r": "0x46888b9f54b651cd1e42eda7c59c2b0b332ec538a372a0ca0c5991cdbbc5a6ab",
      "s": "0x0ae64a551af3b8662bfe25ce8212763e786997290a8577693b732d51cb7862bc",
      "v": 27,
      "creates": null,
      "raw": "0xf86d0a850d1d4504448252089432be343b94f860124dc4fee278fdcbd38c102d8889015aeda3c1f2bd5000801ba046888b9f54b651cd1e42eda7c59c2b0b332ec538a372a0ca0c5991cdbbc5a6aba00ae64a551af3b8662bfe25ce8212763e786997290a8577693b732d51cb7862bc",
      "networkId": 0,
      "chainId": 0
    }
  ]
}