{
  "hash": "0xae13ded6dee4ea0ac009f77b843698c4519537700078a87e97405eebf6350635",
  "parentHash": "0xfbe4398f5381eaf1d7856e7e7a485083f652cdc2fcaae8e52d070eccafcddd5f",
  "number": 98939,
  "timestamp": 1439781498,
  "nonce": "0x9eecd8c534368db7",
  "difficulty": 3855427574405,
  "gasLimit": {
    "_hex": "0x2fefd8"
  },
  "gasUsed": {
    "_hex": "0x5208"
  },
  "miner": "0xe6A7a1d47ff21B6321162AEA7C6CB457D5476Bca",
  "extraData": "0x476574682f76312e302e312d38326566323666362f6c696e75782f676f312e34",
  "transactions": [
    {
      "hash": "0x0778b35c72a1f1454a182790e392082c71572127d566712bab754230938f08d3",
      "blockHash": "0xae13ded6dee4ea0ac009f77b843698c4519537700078a87e97405eebf6350635",
      "blockNumber": 98939,
      "transactionIndex": 0,
      "confirmations": null,
      "from": "0x2910543Af39abA0Cd09dBb2D50200b3E800A63D2",
      "gasPrice": {
        "_hex": "0xdeca31f65"
      },
      "gasLimit": {
        "_hex": "0x5208"
      },
      "to": "0x4cec61EF7e13f0B7b87A68a2F85869f2d42f42f1",
      "value": {
        "_hex": "0xc45ff07bce0d278000"
      },
      "nonce": 936,
      "data": "0x",
      "r": "0xaecfc9d2e39cc4426ed91a31e8d76b783142c27e2372b700b9a1af33a1642942",
      "s": "0x5b1a8a09994e9b54d73aea6cbfd425ea02d13294dd9f9923ce744e837c5965f0",
      "v": 28,
      "creates": null,
      "raw": "0xf86f8203a8850deca31f65825208944cec61ef7e13f0b7b87a68a2f85869f2d42f42f189c45ff07bce0d278000801ca0aecfc9d2e39cc4426ed91a31e8d76b783142c27e2372b700b9a1af33a1642942a05b1a8a09994e9b54d73aea6cbfd425ea02d13294dd9f9923ce744e837c5965f0",
      "networkId": 0,
      "chainId": 0
    }
  ]
}