{
  "hash": "0x74340d715470cc10bdf4f1ac58e2962808f98bd1496aa4984d3a357963fa4654",
  "parentHash": "0xf3460a840e85fec637d586a3916215d7a730e7a1c50d11baa9cc79f260b08342",
  "number": 75396,
  "timestamp": 1439402617,
  "nonce": "0xb520c8f7ad25ae07",
  "difficulty": 2199705683968,
  "gasLimit": {
    "_hex": "0x2fefd8"
  },
  "gasUsed": {
    "_hex": "0x1b497"
  },
  "miner": "0x785ffdDd5cE55c6DF963f345e68d3F2024E5Acb1",
  "extraData": "0x",
  "transactions": [
    {
      "hash": "0x9f9dcbd312e9a5b9c23772cd807b16b33e0910e8a37d4a88fe3af54246d59346",
      "blockHash": "0x74340d715470cc10bdf4f1ac58e2962808f98bd1496aa4984d3a357963fa4654",
      "blockNumber": 75396,
      "transactionIndex": 0,
      "confirmations": null,
      "from": "0x0c7a4e5c8aCa4Ff0C9655EDD175f82feF48F1717",
      "gasPrice": {
        "_hex": "0x117dd57df13"
      },
      "gasLimit": {
        "_hex": "0x493e0"
      },
      "to": "0xD79B4C6791784184e2755B2fC1659eaaB0f80456",
      "value": {
        "_hex": "0xde0b6b3a7640000"
      },
      "nonce": 2,
      "data": "0x8d216186000000000000000000000000000000000000000000000000000000000000005ca87c56bae7a5412c3a238edce4f44f54f733e9f459283edd9b1277076e10238a",
      "r": "0xf6b064974565e8a0b7eb9738f225ee72b150f6318ece8d0d3b2607870955f6ce",
      "s": "0x18d3b66c31f569f04caab37d9e4e3e46b37a638c4932f2db43b0f6178e953f9e",
      "v": 27,
      "creates": null,
      "raw": "0xf8b302860117dd57df13830493e094d79b4c6791784184e2755b2fc1659eaab0f80456880de0b6b3a7640000b8448d216186000000000000000000000000000000000000000000000000000000000000005ca87c56bae7a5412c3a238edce4f44f54f733e9f459283edd9b1277076e10238a1ba0f6b064974565e8a0b7eb9738f225ee72b150f6318ece8d0d3b2607870955f6cea018d3b66c31f569f04caab37d9e4e3e46b37a638c4932f2db43b0f6178e953f9e",
      "networkId": 0,
      "chainId": 0
    }
  ]
}