{
  "hash": "0x966ea315c360da9d74caa21077d0d3a4dee81b06ce38da1a696c6c28df73a8be",
  "parentHash": "0x2145e02baea8c87bb0aca73d96aa4ec2caf25de09f90dc2027673fd8f7e4ef19",
  "number": 106727,
  "timestamp": 1439909405,
  "nonce": "0xccb861c859edf9dc",
  "difficulty": 4455152702911,
  "gasLimit": {
    "_hex": "0x2fefd8"
  },
  "gasUsed": {
    "_hex": "0x5208"
  },
  "miner": "0xe6A7a1d47ff21B6321162AEA7C6CB457D5476Bca",
  "extraData": "0x476574682f76312e302e312d38326566323666362f6c696e75782f676f312e34",
  "transactions": [
    {
      "hash": "0x90ecba31de4cd5e47ba0eb6a4adb2a29ab1c85a4c6961ca5669f82e3a0d51f49",
      "blockHash": "0x966ea315c360da9d74caa21077d0d3a4dee81b06ce38da1a696c6c28df73a8be",
      "blockNumber": 106727,
      "transactionIndex": 0,
      "confirmations": null,
      "from": "0x32Be343B94f860124dC4fEe278FDCBD38C102D88",
      "gasPrice": {
        "_hex": "0xcf051c027"
      },
      "gasLimit": {
        "_hex": "0x5208"
      },
      "to": "0x120A270bbC009644e35F0bB6ab13f95b8199c4ad",
      "value": {
        "_hex": "0x14542ba12a337c00000"
      },
      "nonce": 1191,
      "data": "0x",
      "r": "0x10bf65782e355dfb72fe5e850f9b97f135b989fd32fcd7390c481d0f69686b63",
      "s": "0x67474a191fecd809b309d4e6762d92d2e8be62fc01aa7e3bf4e9b875e8620e93",
      "v": 28,
      "creates": null,
      "raw": "0xf8708204a7850cf051c02782520894120a270bbc009644e35f0bb6ab13f95b8199c4ad8a014542ba12a337c00000801ca010bf65782e355dfb72fe5e850f9b97f135b989fd32fcd7390c481d0f69686b63a067474a191fecd809b309d4e6762d92d2e8be62fc01aa7e3bf4e9b875e8620e93",
      "networkId": 0,
      "chainId": 0
    }
  ]
}