{
  "hash": "0x34db1e1859763494a707ec25c891f8d1a23a579801a9b46dcc53017bc4af8fc4",
  "parentHash": "0x97e7dbb8e83754f4f2c84dd516b8398c589ec178aa60e4b0906515fc35a9d2e8",
  "number": 104512,
  "timestamp": 1439870925,
  "nonce": "0x65a8f6a723f19fd0",
  "difficulty": 4385098564210,
  "gasLimit": {
    "_hex": "0x2fefd8"
  },
  "gasUsed": {
    "_hex": "0x546c"
  },
  "miner": "0xbb7B8287f3F0a933474a79eAe42CBCa977791171",
  "extraData": "0x476574682f4c5649562f76312e302e312f6c696e75782f676f312e342e32",
  "transactions": [
    {
      "hash": "0xd185457a731d0b66034d4de1eecbdd8dd3643261dd25feef8a4348acedf126c3",
      "blockHash": "0x34db1e1859763494a707ec25c891f8d1a23a579801a9b46dcc53017bc4af8fc4",
      "blockNumber": 104512,
      "transactionIndex": 0,
      "confirmations": null,
      "from": "0x0B93fCA4A4f09CAC20db60e065edcCcC11e0A5B6",
      "gasPrice": {
        "_hex": "0x110c8f7d8de"
      },
      "gasLimit": {
        "_hex": "0xc350"
      },
      "to": "0x2910543Af39abA0Cd09dBb2D50200b3E800A63D2",
      "value": {
        "_hex": "0xad62b76e268960000"
      },
      "nonce": 0,
      "data": "0x454e4336354e573552",
      "r": "0x32d82e1fbfdc31437f04e5906579645947a138b7d74a13ef222e0b760685b567",
      "s": "0x39b22363c03435b4f9783bca238875baa5352d89dd949784eed278a4e84216a8",
      "v": 27,
      "creates": null,
      "raw": "0xf87780860110c8f7d8de82c350942910543af39aba0cd09dbb2d50200b3e800a63d2890ad62b76e26896000089454e4336354e5735521ba032d82e1fbfdc31437f04e5906579645947a138b7d74a13ef222e0b760685b567a039b22363c03435b4f9783bca238875baa5352d89dd949784eed278a4e84216a8",
      "networkId": 0,
      "chainId": 0
    }
  ]
}