{
  "hash": "0xe89005d208b1c8ba094695fd29cf3cf11f6944ad2f59666636723bd1e2ee7ed6",
  "parentHash": "0xa57effbf5fddff25210b1530d768d0f9c2ee71fdcf7a014d58c75089de07f19f",
  "number": 120327,
  "timestamp": 1440157941,
  "nonce": "0xada1bda2e1ce3984",
  "difficulty": 4434923661281,
  "gasLimit": {
    "_hex": "0x2fefd8"
  },
  "gasUsed": {
    "_hex": "0x5208"
  },
  "miner": "0x52bc44d5378309EE2abF1539BF71dE1b7d7bE3b5",
  "extraData": "0xd783010002844765746887676f312e342e32856c696e7578",
  "transactions": [
    {
      "hash": "0x84ede56b3acfa2b4b33e55c234bb5f1b0363a52f67c8cc6f29d12f64b6de91e5",
      "blockHash": "0xe89005d208b1c8ba094695fd29cf3cf11f6944ad2f59666636723bd1e2ee7ed6",
      "blockNumber": 120327,
      "transactionIndex": 0,
      "confirmations": null,
      "from": "0x47fe9Ce29dA03E8466a067e4321fD32312e39607",
      "gasPrice": {
        "_hex": "0xba43b7400"
      },
      "gasLimit": {
        "_hex": "0x15f90"
      },
      "to": "0x132ACC4ebA2B5039C65849368648bc19f32BEd97",
      "value": {
        "_hex": "0x17f06e5c4d8c8000"
      },
      "nonce": 9,
      "data": "0x",
      "r": "0xe7272247fee9c80c8bb71fe6234fafd07647ec8ed6cba8e7d6d2f3cb185a434e",
      "s": "0x677f7d01f82f1622b104f3b8f0e08b65ced7a5b5af5d630ed01008c74a87e551",
      "v": 27,
      "creates": null,
      "raw": "0xf86d09850ba43b740083015f9094132acc4eba2b5039c65849368648bc19f32bed978817f06e5c4d8c8000801ba0e7272247fee9c80c8bb71fe6234fafd07647ec8ed6cba8e7d6d2f3cb185a434ea0677f7d01f82f1622b104f3b8f0e08b65ced7a5b5af5d630ed01008c74a87e551",
      "networkId": 0,
      "chainId": 0
    }
  ]
}