{
  "hash": "0xd36b88f568f07935961fc9371372dc30731ee0788d5243c910597a61c0493dea",
  "parentHash": "0xb49c7903893c7dfdd0ac9680b8f84a94dff1012f141cc382fc399de028ed4e86",
  "number": 119840,
  "timestamp": 1440149573,
  "nonce": "0x260122dc747a67e4",
  "difficulty": 4411423222479,
  "gasLimit": {
    "_hex": "0x2fefd8"
  },
  "gasUsed": {
    "_hex": "0x5208"
  },
  "miner": "0x52bc44d5378309EE2abF1539BF71dE1b7d7bE3b5",
  "extraData": "0xd783010002844765746887676f312e342e32856c696e7578",
  "transactions": [
    {
      "hash": "0x69f7300418cc41ddf120a2592af5567692097a85076ae8bfd00b8aecf8606a3d",
      "blockHash": "0xd36b88f568f07935961fc9371372dc30731ee0788d5243c910597a61c0493dea",
      "blockNumber": 119840,
      "transactionIndex": 0,
      "confirmations": null,
      "from": "0x75636cDb109050E43D5D6Ec47E359e218E857ECA",
      "gasPrice": {
        "_hex": "0xba43b7400"
      },
      "gasLimit": {
        "_hex": "0x15f90"
      },
      "to": "0x6bADA45e56f1e8705AAB08bd2B2414ae5688e511",
      "value": {
        "_hex": "0x2386f26fc10000"
      },
      "nonce": 0,
      "data": "0x",
      "r": "0xe6728281246b51f4bc939e4d2088c18b4e8d9ecee5160115b79a60c7c3307601",
      "s": "0x70204a698e989b7704f632ef0431569171f658bb3011781dcf9119af79aec854",
      "v": 27,
      "creates": null,
      "raw": "0xf86c80850ba43b740083015f90946bada45e56f1e8705aab08bd2b2414ae5688e511872386f26fc10000801ba0e6728281246b51f4bc939e4d2088c18b4e8d9ecee5160115b79a60c7c3307601a070204a698e989b7704f632ef0431569171f658bb3011781dcf9119af79aec854",
      "networkId": 0,
      "chainId": 0
    }
  ]
}