{
  "hash": "0x9d722a488e2b2774ac693389b5f555b3b323427415e6b922e1d026fc05938cd4",
  "parentHash": "0x82751eca4e63cabd81ae3ba05b029dd286d19627f0fcc12438b554e10ac99620",
  "number": 93977,
  "timestamp": 1439700674,
  "nonce": "0x4e914a03e9b098e9",
  "difficulty": 3478349148016,
  "gasLimit": {
    "_hex": "0x2fefd8"
  },
  "gasUsed": {
    "_hex": "0xa410"
  },
  "miner": "0x0eDEd3DA479d0beF8eeC92A76644D3f4E3C177f7",
  "extraData": "0x476574682f76312e302e312f6c696e75782f676f312e342e32",
  "transactions": [
    {
      "hash": "0x42e683f18dd1163cbc1cdbfbec3edda4872ead2c1e3475faca2844f8e83300a4",
      "blockHash": "0x9d722a488e2b2774ac693389b5f555b3b323427415e6b922e1d026fc05938cd4",
      "blockNumber": 93977,
      "transactionIndex": 0,
      "confirmations": null,
      "from": "0x9746c7e1ef2bd21FF3997fa467593a89cb852BD0",
      "gasPrice": {
        "_hex": "0xdcce6e83a"
      },
      "gasLimit": {
        "_hex": "0x5208"
      },
      "to": "0xB0bF4A71F730782368Ef660FE6D298F432F95450",
      "value": {
        "_hex": "0x1043561a8829300000"
      },
      "nonce": 29,
      "data": "0x",
      "r": "0x06c8ccbc42ce551e400b68b1e253e4782f8dd6b58d2fa6a5a170aa54826c44a8",
      "s": "0x0a913c9eafd89492db7189c4c9ec548854fe8e4c6170add76170606818f172b7",
      "v": 27,
      "creates": null,
      "raw": "0xf86d1d850dcce6e83a82520894b0bf4a71f730782368ef660fe6d298f432f95450891043561a8829300000801ba006c8ccbc42ce551e400b68b1e253e4782f8dd6b58d2fa6a5a170aa54826c44a8a00a913c9eafd89492db7189c4c9ec548854fe8e4c6170add76170606818f172b7",
      "networkId": 0,
      "chainId": 0
    },
    {
      "hash": "0x3cf80d7c01a40b3305c7942a70e4fc21d7baca7bdb06d60e30dc20179e65ba23",
      "blockHash": "0x9d722a488e2b2774ac693389b5f555b3b323427415e6b922e1d026fc05938cd4",
      "blockNumber": 93977,
      "transactionIndex": 1,
      "confirmations": null,
      "from": "0x886e83d9133F65B9c27A946f699E88e71A888E4C",
      "gasPrice": {
        "_hex": "0xcb46117e7"
      },
      "gasLimit": {
        "_hex": "0x15f90"
      },
      "to": "0xCbbdAd70d0ff27254925AD37B5C135EEe1116615",
      "value": {
        "_hex": "0x16345785d8a0000"
      },
      "nonce": 5,
      "data": "0x",
      "r": "0x35c16fd504a1bca5c3364b17acd8a88db923dd0de7d361a533d6263f385b0876",
      "s": "0x0775b177c9f825e19de7386e4a2825aad1661f59bae7f155efd6a25c3f7a423b",
      "v": 28,
      "creates": null,
      "raw": "0xf86d05850cb46117e783015f9094cbbdad70d0ff27254925ad37b5c135eee111661588016345785d8a0000801ca035c16fd504a1bca5c3364b17acd8a88db923dd0de7d361a533d6263f385b0876a00775b177c9f825e19de7386e4a2825aad1661f59bae7f155efd6a25c3f7a423b",
      "networkId": 0,
      "chainId": 0
    }
  ]
}