{
  "hash": "0x5cd7e38fc77bead66f1f333c3685c38d857766a3e3a571ab267212f160a6c213",
  "parentHash": "0x5100b6522eae0e5a6265912871040ffa718b262a28986074c1f9ec49f7d44411",
  "number": 103694,
  "timestamp": 1439857550,
  "nonce": "0x1309b29db48e328e",
  "difficulty": 4201076756236,
  "gasLimit": {
    "_hex": "0x2fefd8"
  },
  "gasUsed": {
    "_hex": "0x5208"
  },
  "miner": "0xe6A7a1d47ff21B6321162AEA7C6CB457D5476Bca",
  "extraData": "0x476574682f76312e302e312d38326566323666362f6c696e75782f676f312e34",
  "transactions": [
    {
      "hash": "0xba9f8049d04b00c22459a36ec21fcbaab4fdb8b736fdba61adca1355cf331e28",
      "blockHash": "0x5cd7e38fc77bead66f1f333c3685c38d857766a3e3a571ab267212f160a6c213",
      "blockNumber": 103694,
      "transactionIndex": 0,
      "confirmations": null,
      "from": "0x007f7f58D3eb5b7510A301eCC749FC1fCDDBE14D",
      "gasPrice": {
        "_hex": "0xe0cfe7246"
      },
      "gasLimit": {
        "_hex": "0x15f90"
      },
      "to": "0xb1abce2918E21ddb93AA452731a12672A3d9F75a",
      "value": {
        "_hex": "0x4563918244f40000"
      },
      "nonce": 229,
      "data": "0x",
      "r": "0x01a6515f746a583565cbb3832f83102fc0fd6613ee697d500d546ded1904a374",
      "s": "0x7bb6925e1385c51200cf50199b610ed14115b7e0c13b4209a9c93b7f999cc279",
      "v": 27,
      "creates": null,
      "raw": "0xf86e81e5850e0cfe724683015f9094b1abce2918e21ddb93aa452731a12672a3d9f75a884563918244f40000801ba001a6515f746a583565cbb3832f83102fc0fd6613ee697d500d546ded1904a374a07bb6925e1385c51200cf50199b610ed14115b7e0c13b4209a9c93b7f999cc279",
      "networkId": 0,
      "chainId": 0
    }
  ]
}