{
  "hash": "0x289ce726b6d73aff834584a2857cde5bf9fa9400eedc054acc43f3bbef15275e",
  "parentHash": "0x1fa59080a3a7f51a96eaf6a705d1e99c1c85a63531f4bdcd7a51351cc8b6fe60",
  "number": 86153,
  "timestamp": 1439574237,
  "nonce": "0x436929800c1f742f",
  "difficulty": 2805747978676,
  "gasLimit": {
    "_hex": "0x2fefd8"
  },
  "gasUsed": {
    "_hex": "0xa674"
  },
  "miner": "0xbb7B8287f3F0a933474a79eAe42CBCa977791171",
  "extraData": "0x476574682f4c5649562f76312e302e312f6c696e75782f676f312e342e32",
  "transactions": [
    {
      "hash": "0x7239d359ce085064b0d155e41bfd8bd56104ea477963d91480142ae1914909c7",
      "blockHash": "0x289ce726b6d73aff834584a2857cde5bf9fa9400eedc054acc43f3bbef15275e",
      "blockNumber": 86153,
      "transactionIndex": 0,
      "confirmations": null,
      "from": "0x4b5cDb1E428c91DD7cb54a6AEd4571da054BFe52",
      "gasPrice": {
        "_hex": "0x110c8f7d8de"
      },
      "gasLimit": {
        "_hex": "0xc350"
      },
      "to": "0x2910543Af39abA0Cd09dBb2D50200b3E800A63D2",
      "value": {
        "_hex": "0x4b75e170de2fc0000"
      },
      "nonce": 0,
      "data": "0x454e354a5445523147",
      "r": "0x390ddd80d22411639fb238d0ae39966593424b4293c4c257d53602dad600ba28",
      "s": "0x98bed2753061daa33c00f7a0f16a73c30c55d47f01224f63d6de5fcaf4a7ca00",
      "v": 27,
      "creates": null,
      "raw": "0xf87780860110c8f7d8de82c350942910543af39aba0cd09dbb2d50200b3e800a63d28904b75e170de2fc000089454e354a54455231471ba0390ddd80d22411639fb238d0ae39966593424b4293c4c257d53602dad600ba28a098bed2753061daa33c00f7a0f16a73c30c55d47f01224f63d6de5fcaf4a7ca00",
      "networkId": 0,
      "chainId": 0
    },
    {
      "hash": "0x2013f0f1e03591a5ba6d3d18bab14e02edbfd776e7a66b6475330a6e04cbce4c",
      "blockHash": "0x289ce726b6d73aff834584a2857cde5bf9fa9400eedc054acc43f3bbef15275e",
      "blockNumber": 86153,
      "transactionIndex": 1,
      "confirmations": null,
      "from": "0x2f6BCe4fc330B69C9B4c2694d57C63Ec7B18feC7",
      "gasPrice": {
        "_hex": "0xdad2fa788"
      },
      "gasLimit": {
        "_hex": "0x7530"
      },
      "to": "0xa9f5E7bf6Cbf6fEc55B30850Eb492b47A376d050",
      "value": {
        "_hex": "0x83d6c7aab63600000"
      },
      "nonce": 4,
      "data": "0x",
      "r": "0x6907881691ade98bf4057f1967af899a3111108f21dffa8f98231441b1903068",
      "s": "0x1775d110e414cdaf4e9be9df02764f138906bce38bbe9e68062d08facbeaf406",
      "v": 28,
      "creates": null,
      "raw": "0xf86d04850dad2fa78882753094a9f5e7bf6cbf6fec55b30850eb492b47a376d05089083d6c7aab63600000801ca06907881691ade98bf4057f1967af899a3111108f21dffa8f98231441b1903068a01775d110e414cdaf4e9be9df02764f138906bce38bbe9e68062d08facbeaf406",
      "networkId": 0,
      "chainId": 0
    }
  ]
}