{
  "hash": "0x7be8eec7da9bbd04056937f032d85d806c5e6eac159d8e89db8d13407b9cbb66",
  "parentHash": "0x6813eeba5cc045dca4095c750dc30fc50e6b343d9705785c7e97a656a2f06606",
  "number": 108284,
  "timestamp": 1439937694,
  "nonce": "0x2479cb3af13ab1fd",
  "difficulty": 4353266607911,
  "gasLimit": {
    "_hex": "0x2fefd8"
  },
  "gasUsed": {
    "_hex": "0xa410"
  },
  "miner": "0xe6A7a1d47ff21B6321162AEA7C6CB457D5476Bca",
  "extraData": "0x476574682f76312e302e312d38326566323666362f6c696e75782f676f312e34",
  "transactions": [
    {
      "hash": "0x14c22fe73d410227f2c6512b48dbdebac7af95f8114f80e8088c5a9dbd2da523",
      "blockHash": "0x7be8eec7da9bbd04056937f032d85d806c5e6eac159d8e89db8d13407b9cbb66",
      "blockNumber": 108284,
      "transactionIndex": 0,
      "confirmations": null,
      "from": "0xee5379D0c1ca47327368027455074C26D9952628",
      "gasPrice": {
        "_hex": "0xd449d6fec"
      },
      "gasLimit": {
        "_hex": "0x15f90"
      },
      "to": "0x569dD5Eb83f3CEc4AD32BbCF28b0d07A98704105",
      "value": {
        "_hex": "0x905438e600100000"
      },
      "nonce": 20,
      "data": "0x",
      "r": "0xdf54ad4d57846e3a0d225219ea58719d66c005a9f69adab4bf77789c473a13dd",
      "s": "0x2a25e4b70eaad61861b7f868458a5e6da15ebd364ef6d88afc8ce06ba42719a6",
      "v": 28,
      "creates": null,
      "raw": "0xf86d14850d449d6fec83015f9094569dd5eb83f3cec4ad32bbcf28b0d07a9870410588905438e600100000801ca0df54ad4d57846e3a0d225219ea58719d66c005a9f69adab4bf77789c473a13dda02a25e4b70eaad61861b7f868458a5e6da15ebd364ef6d88afc8ce06ba42719a6",
      "networkId": 0,
      "chainId": 0
    },
    {
      "hash": "0x3a676918db1663b25cf82566d80770e76c83be83f728ce68521b83a223f42f5f",
      "blockHash": "0x7be8eec7da9bbd04056937f032d85d806c5e6eac159d8e89db8d13407b9cbb66",
      "blockNumber": 108284,
      "transactionIndex": 1,
      "confirmations": null,
      "from": "0xabeAc6E2183a94cf507a3b2dE48e560709450281",
      "gasPrice": {
        "_hex": "0xd0dfac3f1"
      },
      "gasLimit": {
        "_hex": "0x7a120"
      },
      "to": "0xBBDa93a81B882774e1c9b5e3F933Fa35DaC8bc88",
      "value": {
        "_hex": "0x4563918244f40000"
      },
      "nonce": 1,
      "data": "0x",
      "r": "0x7bc9e2e808b290a118ac3c9c9e6b2112f5376bbc75d150bb371d840458211c88",
      "s": "0x2d8359b5e7b0e95e8848c90884fbd906aec76a8401cc9766f36fbb00c1311711",
      "v": 27,
      "creates": null,
      "raw": "0xf86d01850d0dfac3f18307a12094bbda93a81b882774e1c9b5e3f933fa35dac8bc88884563918244f40000801ba07bc9e2e808b290a118ac3c9c9e6b2112f5376bbc75d150bb371d840458211c88a02d8359b5e7b0e95e8848c90884fbd906aec76a8401cc9766f36fbb00c1311711",
      "networkId": 0,
      "chainId": 0
    }
  ]
}