{
  "hash": "0xd1be69df4a9cd4e97d84989167137e5527bdbf43d3a92c8fc4c6d5e2b0a0767f",
  "parentHash": "0xadc4fb14ded5cd7f3b3a61a870160882e15bcfa1c6267d1746f6043caff04aec",
  "number": 51706,
  "timestamp": 1439009372,
  "nonce": "0x61450f666d045b23",
  "difficulty": 1558137756482,
  "gasLimit": {
    "_hex": "0xd2a01"
  },
  "gasUsed": {
    "_hex": "0x7a120"
  },
  "miner": "0xbb7B8287f3F0a933474a79eAe42CBCa977791171",
  "extraData": "0x476574682f4c5649562f76312e302e312f6c696e75782f676f312e342e32",
  "transactions": [
    {
      "hash": "0x673bdab535f63b4138c3a0382ef6451ae6ce5e41d6f2049b398b68471bd974af",
      "blockHash": "0xd1be69df4a9cd4e97d84989167137e5527bdbf43d3a92c8fc4c6d5e2b0a0767f",
      "blockNumber": 51706,
      "transactionIndex": 0,
      "confirmations": null,
      "from": "0xFCf9f6A78f06227522c6f948ec0119dA31680Ef7",
      "gasPrice": {
        "_hex": "0xdea6904b0"
      },
      "gasLimit": {
        "_hex": "0x7a120"
      },
      "to": "0x109C4f2CCc82C4d77Bde15F306707320294Aea3F",
      "value": {
        "_hex": "0xde0b6b3a7640000"
      },
      "nonce": 57,
      "data": "0x",
      "r": "0x64b626bada511b2d4a2aa4be5b5593ee2f4cc172c8ea543240af9a24436d07cd",
      "s": "0x28534c11744ef0b98b9ceac15a92341f6a045fa4356842831aeeb93b2106776a",
      "v": 28,
      "creates": null,
      "raw": "0xf86d39850dea6904b08307a12094109c4f2ccc82c4d77bde15f306707320294aea3f880de0b6b3a7640000801ca064b626bada511b2d4a2aa4be5b5593ee2f4cc172c8ea543240af9a24436d07cda028534c11744ef0b98b9ceac15a92341f6a045fa4356842831aeeb93b2106776a",
      "networkId": 0,
      "chainId": 0
    }
  ]
}