{
  "hash": "0x51353286e74d79855320eff49707d71e5acf87771c454edbe6f7773f34b9101f",
  "parentHash": "0x0a5836a6f0a35c620d867ab68dc63b5f1dc62ce41c30b73b6913f37c94c28132",
  "number": 101907,
  "timestamp": 1439829846,
  "nonce": "0x27a9e7b3549d59e4",
  "difficulty": 3895687960295,
  "gasLimit": {
    "_hex": "0x2fefd8"
  },
  "gasUsed": {
    "_hex": "0x5208"
  },
  "miner": "0x9D49F602b0fdb924Bd63DDE2Bd0907E4A07c63a7",
  "extraData": "0x476574682f76312e302e312f6c696e75782f676f312e342e32",
  "transactions": [
    {
      "hash": "0x840f62b1302862b3526c1da670dfc6a9297d2a6e7163c15f4909b3fb1b410d97",
      "blockHash": "0x51353286e74d79855320eff49707d71e5acf87771c454edbe6f7773f34b9101f",
      "blockNumber": 101907,
      "transactionIndex": 0,
      "confirmations": null,
      "from": "0xa7ae731fD9EbF24D5a99104a3c2a65a7240B2B04",
      "gasPrice": {
        "_hex": "0xe15813e28"
      },
      "gasLimit": {
        "_hex": "0x5208"
      },
      "to": "0x32Be343B94f860124dC4fEe278FDCBD38C102D88",
      "value": {
        "_hex": "0x1b97c6bfdf0d920000"
      },
      "nonce": 4,
      "data": "0x",
      "r": "0xbe367033d722863bc7997e4dee4c34be2cac56945de14a51af7f6eba47adcddb",
      "s": "0x59521221a81286131399c0a12b288a8008ebf8a3cd03e4d4418ad84fecbe6ac4",
      "v": 27,
      "creates": null,
      "raw": "0xf86d04850e15813e288252089432be343b94f860124dc4fee278fdcbd38c102d88891b97c6bfdf0d920000801ba0be367033d722863bc7997e4dee4c34be2cac56945de14a51af7f6eba47adcddba059521221a81286131399c0a12b288a8008ebf8a3cd03e4d4418ad84fecbe6ac4",
      "networkId": 0,
      "chainId": 0
    }
  ]
}