{
  "hash": "0x789054194147de1c2dbe62aea31a76271ad62c05cedf613f9fe1789f8f0f2995",
  "parentHash": "0x08fef85fdee06a00b4b1bddb0dd8b7db848f339d341a4f17bd6faf13a179667a",
  "number": 80798,
  "timestamp": 1439491049,
  "nonce": "0x07d9be765a199897",
  "difficulty": 2452369282554,
  "gasLimit": {
    "_hex": "0x2fefd8"
  },
  "gasUsed": {
    "_hex": "0x2409c"
  },
  "miner": "0x34f0F706648F334eDf39e555766d4EACD54D61dC",
  "extraData": "0x476574682f76312e302e312d38326566323666362f6c696e75782f676f312e34",
  "transactions": [
    {
      "hash": "0x69e467bf6efbfd8d6a5faf0264f6309d2549936d6f2c87cb1cde3e68c1d1e2c9",
      "blockHash": "0x789054194147de1c2dbe62aea31a76271ad62c05cedf613f9fe1789f8f0f2995",
      "blockNumber": 80798,
      "transactionIndex": 0,
      "confirmations": null,
      "from": "0x70Fd0931873b76DF103453dd8c0ac92dc7E17b5a",
      "gasPrice": {
        "_hex": "0xfdb1bfce7e"
      },
      "gasLimit": {
        "_hex": "0x55f0"
      },
      "to": "0x2910543Af39abA0Cd09dBb2D50200b3E800A63D2",
      "value": {
        "_hex": "0xde0b6b3a7640000"
      },
      "nonce": 0,
      "data": "0x454e31445432424d52",
      "r": "0x8478ed7ce14879e7380aa750f7f319279355ee6058e22de05e1a4f9de923c84c",
      "s": "0x7d1d3357a775c213fa732b9b1f3157381f60b71eb1b23ed5f21d97a020792d27",
      "v": 27,
      "creates": null,
      "raw": "0xf8758085fdb1bfce7e8255f0942910543af39aba0cd09dbb2d50200b3e800a63d2880de0b6b3a764000089454e31445432424d521ba08478ed7ce14879e7380aa750f7f319279355ee6058e22de05e1a4f9de923c84ca07d1d3357a775c213fa732b9b1f3157381f60b71eb1b23ed5f21d97a020792d27",
      "networkId": 0,
      "chainId": 0
    },
    {
      "hash": "0xb25ef759d1e5ae9905dfc630293c3284f5465b4fe4d80d07c14ae960b3bc1361",
      "blockHash": "0x789054194147de1c2dbe62aea31a76271ad62c05cedf613f9fe1789f8f0f2995",
      "blockNumber": 80798,
      "transactionIndex": 1,
      "confirmations": null,
      "from": "0x49DC75D11428d1D718FC7b71941B71ae6F8bfA3C",
      "gasPrice": {
        "_hex": "0xd23ee12e2"
      },
      "gasLimit": {
        "_hex": "0x55f0"
      },
      "to": "0xeF76c144553e10420Aa7FA2c205Db698AF95bed3",
      "value": {
        "_hex": "0x75f610f70ed20000"
      },
      "nonce": 4,
      "data": "0x",
      "r": "0x72a848fd8ff005241901a929183fccbfdf28db610b337a52cc0e757146feb4c1",
      "s": "0x659089cdfca95ec06f1828f91bf75b94bf48dd4e786a62044e5c80597aadb5ac",
      "v": 27,
      "creates": null,
      "raw": "0xf86c04850d23ee12e28255f094ef76c144553e10420aa7fa2c205db698af95bed38875f610f70ed20000801ba072a848fd8ff005241901a929183fccbfdf28db610b337a52cc0e757146feb4c1a0659089cdfca95ec06f1828f91bf75b94bf48dd4e786a62044e5c80597aadb5ac",
      "networkId": 0,
      "chainId": 0
    },
    {
      "hash": "0x0825049cc3e92d8c0dfd9cb8142e6f06252bcff65ddedb65b10d53ee36c9e8dd",
      "blockHash": "0x789054194147de1c2dbe62aea31a76271ad62c05cedf613f9fe1789f8f0f2995",
      "blockNumber": 80798,
      "transactionIndex": 2,
      "confirmations": null,
      "from": "0x2910543Af39abA0Cd09dBb2D50200b3E800A63D2",
      "gasPrice": {
        "_hex": "0xcd0253f16"
      },
      "gasLimit": {
        "_hex": "0x5208"
      },
      "to": "0x1E42b9c47B7EE14d8e3fCe8c867e497ca6F4FD4C",
      "value": {
        "_hex": "0x209b6b83a495958000"
      },
      "nonce": 401,
      "data": "0x",
      "r": "0x20d0a4f090e09af8093f6bf688a1e76b0caa18a2e06047a2e39d340c38387313",
      "s": "0x4c53cbaf9e87d8275cf0935551bec86fc72346fa772beeb3e95e9a2f8cc4ee28",
      "v": 27,
      "creates": null,
      "raw": "0xf86f820191850cd0253f16825208941e42b9c47b7ee14d8e3fce8c867e497ca6f4fd4c89209b6b83a495958000801ba020d0a4f090e09af8093f6bf688a1e76b0caa18a2e06047a2e39d340c38387313a04c53cbaf9e87d8275cf0935551bec86fc72346fa772beeb3e95e9a2f8cc4ee28",
      "networkId": 0,
      "chainId": 0
    },
    {
      "hash": "0x5d143c950803b344ecf670e1996472babd79b771bed971de02a5c2e0e32241a3",
      "blockHash": "0x789054194147de1c2dbe62aea31a76271ad62c05cedf613f9fe1789f8f0f2995",
      "blockNumber": 80798,
      "transactionIndex": 3,
      "confirmations": null,
      "from": "0x2910543Af39abA0Cd09dBb2D50200b3E800A63D2",
      "gasPrice": {
        "_hex": "0xcd0253f16"
      },
      "gasLimit": {
        "_hex": "0x5208"
      },
      "to": "0x3c3Ca5A5a214208bFCA6b54F57A41b10f5fbe873",
      "value": {
        "_hex": "0x89e7fb61bbf3b8000"
      },
      "nonce": 402,
      "data": "0x",
      "r": "0xca48592883514d106f826b95b80a551d64786f75f2f06d35026ab4bed9630f2f",
      "s": "0x4a32518921868e7971c4e05fc43302795c4c74d5244d317cb5fcb4421b2b8002",
      "v": 28,
      "creates": null,
      "raw": "0xf86f820192850cd0253f16825208943c3ca5a5a214208bfca6b54f57a41b10f5fbe87389089e7fb61bbf3b8000801ca0ca48592883514d106f826b95b80a551d64786f75f2f06d35026ab4bed9630f2fa04a32518921868e7971c4e05fc43302795c4c74d5244d317cb5fcb4421b2b8002",
      "networkId": 0,
      "chainId": 0
    },
    {
      "hash": "0x6fbb90ebef96567892b59838e918a34530c0ec04b3959f6d41283d2eb031733f",
      "blockHash": "0x789054194147de1c2dbe62aea31a76271ad62c05cedf613f9fe1789f8f0f2995",
      "blockNumber": 80798,
      "transactionIndex": 4,
      "confirmations": null,
      "from": "0x2910543Af39abA0Cd09dBb2D50200b3E800A63D2",
      "gasPrice": {
        "_hex": "0xcd0253f16"
      },
      "gasLimit": {
        "_hex": "0x5208"
      },
      "to": "0x0FC25Ed6019450e9B7CeC54eb986B9195F9aD7a6",
      "value": {
        "_hex": "0xf69082d38785a6000"
      },
      "nonce": 403,
      "data": "0x",
      "r": "0xa8cda636e9d0cf1153eaa33c5106ca62e85eada7163a57195b8425c5dbb15565",
      "s": "0x262369f432dfec6b581aafc159b201267c47fd3a9926fae0f7a8a4cde2951f5d",
      "v": 27,
      "creates": null,
      "raw": "0xf86f820193850cd0253f16825208940fc25ed6019450e9b7cec54eb986b9195f9ad7a6890f69082d38785a6000801ba0a8cda636e9d0cf1153eaa33c5106ca62e85eada7163a57195b8425c5dbb15565a0262369f432dfec6b581aafc159b201267c47fd3a9926fae0f7a8a4cde2951f5d",
      "networkId": 0,
      "chainId": 0
    },
    {
      "hash": "0x8170ccdd0037e51253d0dbedc61624415f750f0ec3f670866dd43d529b8d8a83",
      "blockHash": "0x789054194147de1c2dbe62aea31a76271ad62c05cedf613f9fe1789f8f0f2995",
      "blockNumber": 80798,
      "transactionIndex": 5,
      "confirmations": null,
      "from": "0x2910543Af39abA0Cd09dBb2D50200b3E800A63D2",
      "gasPrice": {
        "_hex": "0xcd0253f16"
      },
      "gasLimit": {
        "_hex": "0x5208"
      },
      "to": "0xD8383194A9b55c0031e55D647C6F67790D53c3A2",
      "value": {
        "_hex": "0xb17fa80f33a624000"
      },
      "nonce": 404,
      "data": "0x",
      "r": "0x0ad77d27481298fcb8b6a2c44791adcbbd381d3560e65863d095bdb5fccd86fc",
      "s": "0x1c70f43c712581aaedf7c818e8232e38b68094e1e9e88a7f41b637da261f9dfb",
      "v": 27,
      "creates": null,
      "raw": "0xf86f820194850cd0253f1682520894d8383194a9b55c0031e55d647c6f67790d53c3a2890b17fa80f33a624000801ba00ad77d27481298fcb8b6a2c44791adcbbd381d3560e65863d095bdb5fccd86fca01c70f43c712581aaedf7c818e8232e38b68094e1e9e88a7f41b637da261f9dfb",
      "networkId": 0,
      "chainId": 0
    },
    {
      "hash": "0xb14fdd5cb35c6d5495b1292b70dafe386577b22104f0c072550fede36f30334a",
      "blockHash": "0x789054194147de1c2dbe62aea31a76271ad62c05cedf613f9fe1789f8f0f2995",
      "blockNumber": 80798,
      "transactionIndex": 6,
      "confirmations": null,
      "from": "0x2910543Af39abA0Cd09dBb2D50200b3E800A63D2",
      "gasPrice": {
        "_hex": "0xcd0253f16"
      },
      "gasLimit": {
        "_hex": "0x5208"
      },
      "to": "0xb9504fAe32956Ef6bB546bce039f04b8cEb573e5",
      "value": {
        "_hex": "0x1dd0b6c28068f78000"
      },
      "nonce": 405,
      "data": "0x",
      "r": "0xed0465d1bfbdd55f7fc59c0ce96779da4ce5dbf0413118cc00c8692828aa8010",
      "s": "0x217d4208e1c16292ec176b15588377c3251beeac68084dfe6a591e3146396b3e",
      "v": 28,
      "creates": null,
      "raw": "0xf86f820195850cd0253f1682520894b9504fae32956ef6bb546bce039f04b8ceb573e5891dd0b6c28068f78000801ca0ed0465d1bfbdd55f7fc59c0ce96779da4ce5dbf0413118cc00c8692828aa8010a0217d4208e1c16292ec176b15588377c3251beeac68084dfe6a591e3146396b3e",
      "networkId": 0,
      "chainId": 0
    }
  ]
}