{
  "hash": "0xeededcf4e0830a49ae14eea668c2963132fb8cf319cb7d48050b80f3976eb1d4",
  "parentHash": "0xecd6803854a246f9a96c86c4ad172d349b797b6c1e762b446411d1ccd1ce4550",
  "number": 85777,
  "timestamp": 1439568696,
  "nonce": "0xb6c3be6d3d79b1f8",
  "difficulty": 2773184320852,
  "gasLimit": {
    "_hex": "0x2fefd8"
  },
  "gasUsed": {
    "_hex": "0xa410"
  },
  "miner": "0x0D4EcC7d750180EBf4A9Df728B6669B5Bceb5E40",
  "extraData": "0x",
  "transactions": [
    {
      "hash": "0xb18744df8ada479d935cdfbab3d9c07fdb448638eb77fbd7a4b6655986457477",
      "blockHash": "0xeededcf4e0830a49ae14eea668c2963132fb8cf319cb7d48050b80f3976eb1d4",
      "blockNumber": 85777,
      "transactionIndex": 0,
      "confirmations": null,
      "from": "0x661eedD93dA06499d3220aA2aDF05d6d2417e60c",
      "gasPrice": {
        "_hex": "0x100bcfeaaf6"
      },
      "gasLimit": {
        "_hex": "0x15f90"
      },
      "to": "0x71762C63678C18D1C6378ce068E666381315147e",
      "value": {
        "_hex": "0x4563918244f40000"
      },
      "nonce": 1,
      "data": "0x",
      "r": "0x05111809dd7e7afb8151bd21a340969a80c366c3da17c7bc601493dd10619104",
      "s": "0x28cb26e004172497b4ea7fc9a27041045da9aa50435fef0080f2e84f79368efc",
      "v": 28,
      "creates": null,
      "raw": "0xf86e01860100bcfeaaf683015f909471762c63678c18d1c6378ce068e666381315147e884563918244f40000801ca005111809dd7e7afb8151bd21a340969a80c366c3da17c7bc601493dd10619104a028cb26e004172497b4ea7fc9a27041045da9aa50435fef0080f2e84f79368efc",
      "networkId": 0,
      "chainId": 0
    },
    {
      "hash": "0x84fa9b4b512cc7e285ec266b2b6bcc959767b002b5d7f74fb205a0077a9d5832",
      "blockHash": "0xeededcf4e0830a49ae14eea668c2963132fb8cf319cb7d48050b80f3976eb1d4",
      "blockNumber": 85777,
      "transactionIndex": 1,
      "confirmations": null,
      "from": "0x727A42a8D67fcaa0Ab81D46f1EE66bfc9b8789AC",
      "gasPrice": {
        "_hex": "0xcd3ecc560"
      },
      "gasLimit": {
        "_hex": "0x15f90"
      },
      "to": "0x285B048CC4cB946abCF3eF11aDe982C36946AF18",
      "value": {
        "_hex": "0x4563918244f40000"
      },
      "nonce": 14,
      "data": "0x",
      "r": "0x47ec6a4dd546b3cfa8727e805b0945978fbccc81af7fd671d0071880a0bbb5fb",
      "s": "0x134687582b5f9b12a1c989d49abc120c6795898d3b12a2dedd5fc0e7626d6517",
      "v": 27,
      "creates": null,
      "raw": "0xf86d0e850cd3ecc56083015f9094285b048cc4cb946abcf3ef11ade982c36946af18884563918244f40000801ba047ec6a4dd546b3cfa8727e805b0945978fbccc81af7fd671d0071880a0bbb5fba0134687582b5f9b12a1c989d49abc120c6795898d3b12a2dedd5fc0e7626d6517",
      "networkId": 0,
      "chainId": 0
    }
  ]
}