{
  "hash": "0x7d166da2f83e7048199002037e9a3d4e285b8befdf9f85dcdaa7a4f72d60a88c",
  "parentHash": "0x5fc4e99d8ad86ac4c275714083c090698f14ec24a2ae1bd3fe4466103a1ead5e",
  "number": 73605,
  "timestamp": 1439371718,
  "nonce": "0xf8a8c014a8b8f195",
  "difficulty": 2231551832867,
  "gasLimit": {
    "_hex": "0x2fefd8"
  },
  "gasUsed": {
    "_hex": "0x5208"
  },
  "miner": "0x9746c7e1ef2bd21FF3997fa467593a89cb852BD0",
  "extraData": "0x476574682f76312e302e312f77696e646f77732f676f312e342e32",
  "transactions": [
    {
      "hash": "0x0adcdbc770b923462ee0faf315b071a2b53f6ab3da146b25bc994fccace902f1",
      "blockHash": "0x7d166da2f83e7048199002037e9a3d4e285b8befdf9f85dcdaa7a4f72d60a88c",
      "blockNumber": 73605,
      "transactionIndex": 0,
      "confirmations": null,
      "from": "0x0cA19A53a3256482A89770FC1daFC7630717F201",
      "gasPrice": {
        "_hex": "0xe0c6abee9"
      },
      "gasLimit": {
        "_hex": "0x5208"
      },
      "to": "0x32Be343B94f860124dC4fEe278FDCBD38C102D88",
      "value": {
        "_hex": "0x13b3e1a3863e800"
      },
      "nonce": 2,
      "data": "0x",
      "r": "0x982e405a980e842c1ff0f0ae6f89037293cf92cf2f8092f6b1d54c1f2888aa07",
      "s": "0x0daba7b679f2b8261dbc363935a7a57af610fc1dfcef426cc763d09df4560f6e",
      "v": 27,
      "creates": null,
      "raw": "0xf86c02850e0c6abee98252089432be343b94f860124dc4fee278fdcbd38c102d8888013b3e1a3863e800801ba0982e405a980e842c1ff0f0ae6f89037293cf92cf2f8092f6b1d54c1f2888aa07a00daba7b679f2b8261dbc363935a7a57af610fc1dfcef426cc763d09df4560f6e",
      "networkId": 0,
      "chainId": 0
    }
  ]
}