{
  "hash": "0x541fa45c3b48acfdb006d2323cd41291aa0204b9de77fd9ec7ac9a6b43a4052f",
  "parentHash": "0x2f99f7afcda8aadde0cfa5d398723ac04061a7586f754b80706a51959e75d97a",
  "number": 90112,
  "timestamp": 1439634721,
  "nonce": "0xf3c1c15d7772dc1e",
  "difficulty": 3318972534407,
  "gasLimit": {
    "_hex": "0x2fefd8"
  },
  "gasUsed": {
    "_hex": "0x5208"
  },
  "miner": "0xf927a40C8B7F6E07c5af7FA2155B4864a4112B13",
  "extraData": "0x",
  "transactions": [
    {
      "hash": "0xfd9a357c7222f1c35569a215fa516553bc4cc4c201bf79aa7f4c0d23e2b4a1d0",
      "blockHash": "0x541fa45c3b48acfdb006d2323cd41291aa0204b9de77fd9ec7ac9a6b43a4052f",
      "blockNumber": 90112,
      "transactionIndex": 0,
      "confirmations": null,
      "from": "0x89ec7E9734CE329a5ef22B060A1055144f6b72Ad",
      "gasPrice": {
        "_hex": "0xd5eddb2e4"
      },
      "gasLimit": {
        "_hex": "0x5208"
      },
      "to": "0x32Be343B94f860124dC4fEe278FDCBD38C102D88",
      "value": {
        "_hex": "0x7f5cebb1e781a400"
      },
      "nonce": 1,
      "data": "0x",
      "r": "0xc2903243114cddb15aae89ce029b63049d8a052c5be20be97fe6b1f86bc3bf69",
      "s": "0x78ddf7715b72142588896168aa1475e19f32aa9547514a5d0f8c46a0f3285d39",
      "v": 28,
      "creates": null,
      "raw": "0xf86c01850d5eddb2e48252089432be343b94f860124dc4fee278fdcbd38c102d88887f5cebb1e781a400801ca0c2903243114cddb15aae89ce029b63049d8a052c5be20be97fe6b1f86bc3bf69a078ddf7715b72142588896168aa1475e19f32aa9547514a5d0f8c46a0f3285d39",
      "networkId": 0,
      "chainId": 0
    }
  ]
}