{
  "hash": "0x1f715d6d8374232cf76ba73abd7e3ba42ed42f30377aab76c61920b193747ac1",
  "parentHash": "0x38220536e445872b8bcb822cae5d6b887b91e989b9e92abef19c6ec99c20b0d9",
  "number": 111004,
  "timestamp": 1439983170,
  "nonce": "0xd2f6a4384aea51e6",
  "difficulty": 4403153590230,
  "gasLimit": {
    "_hex": "0x2fe3db"
  },
  "gasUsed": {
    "_hex": "0x546c"
  },
  "miner": "0xe6A7a1d47ff21B6321162AEA7C6CB457D5476Bca",
  "extraData": "0x476574682f76312e302e312d38326566323666362f6c696e75782f676f312e34",
  "transactions": [
    {
      "hash": "0x733cc32771eee487fe8f9926f54c13f6a3250a2efe99b04cfeb194342fd9a16b",
      "blockHash": "0x1f715d6d8374232cf76ba73abd7e3ba42ed42f30377aab76c61920b193747ac1",
      "blockNumber": 111004,
      "transactionIndex": 0,
      "confirmations": null,
      "from": "0x5160ed612E1B48e73f3FC15bC4321B8f23B8A24b",
      "gasPrice": {
        "_hex": "0x110c8f7d8de"
      },
      "gasLimit": {
        "_hex": "0xc350"
      },
      "to": "0x2910543Af39abA0Cd09dBb2D50200b3E800A63D2",
      "value": {
        "_hex": "0xde0b6b3a7640000"
      },
      "nonce": 0,
      "data": "0x454e5259585a475738",
      "r": "0xb0c0a5538fc761c244085b8c23606e73c2b1284f6246d02b8a2d7804b088d68f",
      "s": "0x8089e819ae35a7688868600185030f4e8c4ff326fffa44403dfd1e95824c591d",
      "v": 28,
      "creates": null,
      "raw": "0xf87680860110c8f7d8de82c350942910543af39aba0cd09dbb2d50200b3e800a63d2880de0b6b3a764000089454e5259585a4757381ca0b0c0a5538fc761c244085b8c23606e73c2b1284f6246d02b8a2d7804b088d68fa08089e819ae35a7688868600185030f4e8c4ff326fffa44403dfd1e95824c591d",
      "networkId": 0,
      "chainId": 0
    }
  ]
}