{
  "hash": "0x3f12fd81074e3683d16d28970ef60131fa62f05d6d3250d4c3a5b0e07452ba17",
  "parentHash": "0xbec3cc9537fa78b3b394b17fbce63f7d7e9f2aab99764e9370ef3f5c7b3e3e38",
  "number": 100129,
  "timestamp": 1439801259,
  "nonce": "0x766a918a1ef512e7",
  "difficulty": 3836103903817,
  "gasLimit": {
    "_hex": "0x2fefd8"
  },
  "gasUsed": {
    "_hex": "0x5208"
  },
  "miner": "0xC603Ab5ef41fC61AA8b76bEddb09e3Cfcbb174BD",
  "extraData": "0x476574682f76312e302e312f77696e646f77732f676f312e342e32",
  "transactions": [
    {
      "hash": "0x6e6259cfab35bf734e149f24440db131c7b7ac866c8bda5662e33c950931d4a9",
      "blockHash": "0x3f12fd81074e3683d16d28970ef60131fa62f05d6d3250d4c3a5b0e07452ba17",
      "blockNumber": 100129,
      "transactionIndex": 0,
      "confirmations": null,
      "from": "0x50087E7383C8865C1C136b8777C4350B8ed472CE",
      "gasPrice": {
        "_hex": "0xe1255c18d"
      },
      "gasLimit": {
        "_hex": "0x15f90"
      },
      "to": "0x647fe784fb1A8380972fB6eA08D6eEd74D1a5699",
      "value": {
        "_hex": "0x27e60d44813f80000"
      },
      "nonce": 1,
      "data": "0x",
      "r": "0x16815e1036536be486dbf88cfa0324ca88c2b1076778128a5f984a5c7080c3b7",
      "s": "0x4c992b0711febf52ce75ab8de190404992c73e7f4d445987a4efeec7082d0d3f",
      "v": 28,
      "creates": null,
      "raw": "0xf86e01850e1255c18d83015f9094647fe784fb1a8380972fb6ea08d6eed74d1a569989027e60d44813f80000801ca016815e1036536be486dbf88cfa0324ca88c2b1076778128a5f984a5c7080c3b7a04c992b0711febf52ce75ab8de190404992c73e7f4d445987a4efeec7082d0d3f",
      "networkId": 0,
      "chainId": 0
    }
  ]
}