{
  "hash": "0xf356855edfbb444697e63c6cfa940feec42be82abed4625a33d01ec77591107c",
  "parentHash": "0x1d6c27f9c08b7c5bd184c385362a3f4babf0b4d37b7e71ac42b3424baf1c767c",
  "number": 46877,
  "timestamp": 1438930850,
  "nonce": "0xfd36a98831943cee",
  "difficulty": 1456732516086,
  "gasLimit": {
    "_hex": "0x814d"
  },
  "gasUsed": {
    "_hex": "0x5208"
  },
  "miner": "0x6e9E0a2aAa3c4d41aa69f4E7328095278284f7e2",
  "extraData": "0x476574682f76312e302e312f6c696e75782f676f312e342e32",
  "transactions": [
    {
      "hash": "0x581a95af32d577aaaaa46b1fea2c83dec7891c0fb4c854b750035829c5920528",
      "blockHash": "0xf356855edfbb444697e63c6cfa940feec42be82abed4625a33d01ec77591107c",
      "blockNumber": 46877,
      "transactionIndex": 0,
      "confirmations": null,
      "from": "0xe6A7a1d47ff21B6321162AEA7C6CB457D5476Bca",
      "gasPrice": {
        "_hex": "0xd4cde0d42"
      },
      "gasLimit": {
        "_hex": "0x5208"
      },
      "to": "0x26163E84886A136fC8034eB4e9F1cc00b1D345f1",
      "value": {
        "_hex": "0x1544f9d5c899aed4"
      },
      "nonce": 13,
      "data": "0x",
      "r": "0xb0676e68b6441afb05d179c9d6396536b6bb5dd61637e526508cb61a0d1d1db4",
      "s": "0x4798aba1645cd78e1752676d930c09dd6acff29581b5eb90bde6f68b7f64f2f0",
      "v": 28,
      "creates": null,
      "raw": "0xf86c0d850d4cde0d428252089426163e84886a136fc8034eb4e9f1cc00b1d345f1881544f9d5c899aed4801ca0b0676e68b6441afb05d179c9d6396536b6bb5dd61637e526508cb61a0d1d1db4a04798aba1645cd78e1752676d930c09dd6acff29581b5eb90bde6f68b7f64f2f0",
      "networkId": 0,
      "chainId": 0
    }
  ]
}