{
  "hash": "0x262c8cb2436ad538184b927bfd552eac81d07045c847e352d2c4db7f9e1c3888",
  "parentHash": "0x038be7213eed0c806094c7edd18c9c30ad4427c5c8c86793398205f69f7b0825",
  "number": 83104,
  "timestamp": 1439530253,
  "nonce": "0x7b76c89eb42e52b0",
  "difficulty": 2404275145113,
  "gasLimit": {
    "_hex": "0x2fefd8"
  },
  "gasUsed": {
    "_hex": "0x5208"
  },
  "miner": "0xEF247E639d49461D25F57e9362CadE3120910Ce0",
  "extraData": "0x476574682f76312e302e312f6c696e75782f676f312e342e32",
  "transactions": [
    {
      "hash": "0x77d78ab0b1a1f723dfc0ac1b6a1946f5a24c75b95e94ab19311f2601a06b0328",
      "blockHash": "0x262c8cb2436ad538184b927bfd552eac81d07045c847e352d2c4db7f9e1c3888",
      "blockNumber": 83104,
      "transactionIndex": 0,
      "confirmations": null,
      "from": "0x120A270bbC009644e35F0bB6ab13f95b8199c4ad",
      "gasPrice": {
        "_hex": "0xd799bb362"
      },
      "gasLimit": {
        "_hex": "0x3d090"
      },
      "to": "0x548303a76b24d477704da08a513179F39AE78C7c",
      "value": {
        "_hex": "0x8accca0be9dc2a000"
      },
      "nonce": 410,
      "data": "0x",
      "r": "0x34b05ffa5319be99b8e7c242c7bf54b081dc22f227a3a3ff82abfc15c1db892b",
      "s": "0x214a324ce76420f3f92cbb6933df2be6a40c147f44327f9252e1053f40a113de",
      "v": 27,
      "creates": null,
      "raw": "0xf87082019a850d799bb3628303d09094548303a76b24d477704da08a513179f39ae78c7c8908accca0be9dc2a000801ba034b05ffa5319be99b8e7c242c7bf54b081dc22f227a3a3ff82abfc15c1db892ba0214a324ce76420f3f92cbb6933df2be6a40c147f44327f9252e1053f40a113de",
      "networkId": 0,
      "chainId": 0
    }
  ]
}