{
  "hash": "0xd405da027831eb219a71794adadee14edb289a798e0555f1faaf90b33a77840e",
  "parentHash": "0x0b098601c872c2f968d50ba8612acfd1a83c03b8b1510887a10a51214f0cefff",
  "number": 94689,
  "timestamp": 1439712490,
  "nonce": "0xaaa96131292d7c88",
  "difficulty": 3481452124936,
  "gasLimit": {
    "_hex": "0x2fefd8"
  },
  "gasUsed": {
    "_hex": "0x1ec30"
  },
  "miner": "0x5B7970CD176308e0Ffd0358e8B14aaF4A19BA544",
  "extraData": "0xd983010001844765746887676f312e342e328777696e646f7773",
  "transactions": [
    {
      "hash": "0x49b52e1c516b9c259758d4233ff25c521c472ec2c21531cc4f43891a9751bb42",
      "blockHash": "0xd405da027831eb219a71794adadee14edb289a798e0555f1faaf90b33a77840e",
      "blockNumber": 94689,
      "transactionIndex": 0,
      "confirmations": null,
      "from": "0x1308A2e95c0160B90803ddCA9B9a5bb55E416d79",
      "gasPrice": {
        "_hex": "0xd8534d85d"
      },
      "gasLimit": {
        "_hex": "0x15f90"
      },
      "to": "0x0080e2Fd0F5C0569CAfA0cE746C0508B164ecdA0",
      "value": {
        "_hex": "0xbc605c74af7f6b400"
      },
      "nonce": 142,
      "data": "0x",
      "r": "0xaa60b389ce0a7994df98c305b84a2e754a86ca851cbe4d03f216cf07fd3e8eca",
      "s": "0x095d45f935e854ca49f28b4c80086a8fc0c8d8977082c478b94356d72c710726",
      "v": 27,
      "creates": null,
      "raw": "0xf86f818e850d8534d85d83015f90940080e2fd0f5c0569cafa0ce746c0508b164ecda0890bc605c74af7f6b400801ba0aa60b389ce0a7994df98c305b84a2e754a86ca851cbe4d03f216cf07fd3e8ecaa0095d45f935e854ca49f28b4c80086a8fc0c8d8977082c478b94356d72c710726",
      "networkId": 0,
      "chainId": 0
    },
    {
      "hash": "0x62fc11b9ddf17736275832057c2b7fcb6edb13eb56faf07441ad1869d52b53c4",
      "blockHash": "0xd405da027831eb219a71794adadee14edb289a798e0555f1faaf90b33a77840e",
      "blockNumber": 94689,
      "transactionIndex": 1,
      "confirmations": null,
      "from": "0x701aE497d3522329870Ada714AA902424EA8Da01",
      "gasPrice": {
        "_hex": "0xd40475114"
      },
      "gasLimit": {
        "_hex": "0x5208"
      },
      "to": "0x32Be343B94f860124dC4fEe278FDCBD38C102D88",
      "value": {
        "_hex": "0x1178ba19e640aa000"
      },
      "nonce": 5,
      "data": "0x",
      "r": "0x4ac1252b351602a7a0ff121a75cef35e0a1d209efbfe8322cb966508b2f0f24b",
      "s": "0x247acc43e0914a2778b993e2b8c5d93475425c3773547601d7e9100d22aff21e",
      "v": 28,
      "creates": null,
      "raw": "0xf86d05850d404751148252089432be343b94f860124dc4fee278fdcbd38c102d888901178ba19e640aa000801ca04ac1252b351602a7a0ff121a75cef35e0a1d209efbfe8322cb966508b2f0f24ba0247acc43e0914a2778b993e2b8c5d93475425c3773547601d7e9100d22aff21e",
      "networkId": 0,
      "chainId": 0
    },
    {
      "hash": "0x5842ff50c86bf4e56df17d1ad69424474fca0d752dfd1b422cf83cad57bb65bb",
      "blockHash": "0xd405da027831eb219a71794adadee14edb289a798e0555f1faaf90b33a77840e",
      "blockNumber": 94689,
      "transactionIndex": 2,
      "confirmations": null,
      "from": "0x52191276589069F70F0E46bcCc718d793d1Aa1D0",
      "gasPrice": {
        "_hex": "0xd40475114"
      },
      "gasLimit": {
        "_hex": "0x5208"
      },
      "to": "0x32Be343B94f860124dC4fEe278FDCBD38C102D88",
      "value": {
        "_hex": "0xcf1c88bce0756000"
      },
      "nonce": 7,
      "data": "0x",
      "r": "0x7f69e99cbd3ddab65862ed2c3772d98c6ec541f104fb0035dba373f9358a91b7",
      "s": "0x37ccf4da917e8eb6d46045ae14795b632fac1f910de9a353c8a46cc3820b53c7",
      "v": 28,
      "creates": null,
      "raw": "0xf86c07850d404751148252089432be343b94f860124dc4fee278fdcbd38c102d8888cf1c88bce0756000801ca07f69e99cbd3ddab65862ed2c3772d98c6ec541f104fb0035dba373f9358a91b7a037ccf4da917e8eb6d46045ae14795b632fac1f910de9a353c8a46cc3820b53c7",
      "networkId": 0,
      "chainId": 0
    },
    {
      "hash": "0xe06aff5adfaa6c4b7037d534bd443698af59b4bfad6b59205e681941b6956efb",
      "blockHash": "0xd405da027831eb219a71794adadee14edb289a798e0555f1faaf90b33a77840e",
      "blockNumber": 94689,
      "transactionIndex": 3,
      "confirmations": null,
      "from": "0x3B399fF2b96F27056Ab8a7f6e028b0dBaF386279",
      "gasPrice": {
        "_hex": "0xd40475114"
      },
      "gasLimit": {
        "_hex": "0x5208"
      },
      "to": "0x32Be343B94f860124dC4fEe278FDCBD38C102D88",
      "value": {
        "_hex": "0x150a02421a8ae3000"
      },
      "nonce": 5,
      "data": "0x",
      "r": "0x733b10e824a3caab842c2dfddd3294ebec02753a511f38defffd0f7195dbee6a",
      "s": "0x33f31775eb3ca8e566e491b833dc23796acc41c5a368b565ee99ac7b2c30526a",
      "v": 28,
      "creates": null,
      "raw": "0xf86d05850d404751148252089432be343b94f860124dc4fee278fdcbd38c102d88890150a02421a8ae3000801ca0733b10e824a3caab842c2dfddd3294ebec02753a511f38defffd0f7195dbee6aa033f31775eb3ca8e566e491b833dc23796acc41c5a368b565ee99ac7b2c30526a",
      "networkId": 0,
      "chainId": 0
    },
    {
      "hash": "0x5a9c33bd319347d25afd54f9a109d3ef92e3dc9bfae28cdfca82a711cdf4f98b",
      "blockHash": "0xd405da027831eb219a71794adadee14edb289a798e0555f1faaf90b33a77840e",
      "blockNumber": 94689,
      "transactionIndex": 4,
      "confirmations": null,
      "from": "0x61E20833179bA2eCCc2065e5F733CC8CdA7394c0",
      "gasPrice": {
        "_hex": "0xd40475114"
      },
      "gasLimit": {
        "_hex": "0x5208"
      },
      "to": "0x32Be343B94f860124dC4fEe278FDCBD38C102D88",
      "value": {
        "_hex": "0xaa7f10d3b7ee6000"
      },
      "nonce": 3,
      "data": "0x",
      "r": "0x3d65aa80b7175e1770a797731ede9bd0380f9d9f824672d230df2f6e5b184f4a",
      "s": "0x5ffaba08b3c3db89da49a9982bc10f22c016cbbf85bfff72e3f356103232d500",
      "v": 27,
      "creates": null,
      "raw": "0xf86c03850d404751148252089432be343b94f860124dc4fee278fdcbd38c102d8888aa7f10d3b7ee6000801ba03d65aa80b7175e1770a797731ede9bd0380f9d9f824672d230df2f6e5b184f4aa05ffaba08b3c3db89da49a9982bc10f22c016cbbf85bfff72e3f356103232d500",
      "networkId": 0,
      "chainId": 0
    },
    {
      "hash": "0x3c06545f3d16b31124f0cbb112cbe3fdf924986a7d8a5108ebc668b50ed0e5b8",
      "blockHash": "0xd405da027831eb219a71794adadee14edb289a798e0555f1faaf90b33a77840e",
      "blockNumber": 94689,
      "transactionIndex": 5,
      "confirmations": null,
      "from": "0xa114c802ef29776f05f9c6925cE915232e8ae102",
      "gasPrice": {
        "_hex": "0xd40475114"
      },
      "gasLimit": {
        "_hex": "0x5208"
      },
      "to": "0x32Be343B94f860124dC4fEe278FDCBD38C102D88",
      "value": {
        "_hex": "0x1b2e0f40c169bc000"
      },
      "nonce": 20,
      "data": "0x",
      "r": "0x2d1e0672881b1189093924c75aefe380fb9ddfd30d9254dabdf6546471ad3868",
      "s": "0x6471d338f304bc8af9b323f539a8a17bcb26f38d312abbfb70468069427d7670",
      "v": 27,
      "creates": null,
      "raw": "0xf86d14850d404751148252089432be343b94f860124dc4fee278fdcbd38c102d888901b2e0f40c169bc000801ba02d1e0672881b1189093924c75aefe380fb9ddfd30d9254dabdf6546471ad3868a06471d338f304bc8af9b323f539a8a17bcb26f38d312abbfb70468069427d7670",
      "networkId": 0,
      "chainId": 0
    }
  ]
}