{
  "hash": "0x9932bd6ec4f2945c56f878197924b1ab2e55f68587d0b280084dc1ed6819969f",
  "parentHash": "0x58654a0b81bc30026a165ddf86eb96c949746149dfece190d9bed0e5cc028ac2",
  "number": 70657,
  "timestamp": 1439323442,
  "nonce": "0xb76881d8c5d96262",
  "difficulty": 2140536440702,
  "gasLimit": {
    "_hex": "0x2fefd8"
  },
  "gasUsed": {
    "_hex": "0x5208"
  },
  "miner": "0xf927a40C8B7F6E07c5af7FA2155B4864a4112B13",
  "extraData": "0x",
  "transactions": [
    {
      "hash": "0x3a843ba55191b9f67955ae448c13a09d2ba2908c8c5effb68a8e290c47395433",
      "blockHash": "0x9932bd6ec4f2945c56f878197924b1ab2e55f68587d0b280084dc1ed6819969f",
      "blockNumber": 70657,
      "transactionIndex": 0,
      "confirmations": null,
      "from": "0x17dF49518D73b129F0DA36b1c9B40CB66420FDc7",
      "gasPrice": {
        "_hex": "0xd641f460d"
      },
      "gasLimit": {
        "_hex": "0x61a8"
      },
      "to": "0x4319c276D263FDd9156052Bb78B548E6ED740a86",
      "value": {
        "_hex": "0x6c6b935b8bbd400000"
      },
      "nonce": 6,
      "data": "0x",
      "r": "0x113b0353dcb08c0560b932d8468fff687f6374d0aa22f9be496cd56b106a2d9a",
      "s": "0x681244fe1a63de90bccd1193a0b3c07982a6b15d6e13acbc95c36586b1f9829a",
      "v": 28,
      "creates": null,
      "raw": "0xf86d06850d641f460d8261a8944319c276d263fdd9156052bb78b548e6ed740a86896c6b935b8bbd400000801ca0113b0353dcb08c0560b932d8468fff687f6374d0aa22f9be496cd56b106a2d9aa0681244fe1a63de90bccd1193a0b3c07982a6b15d6e13acbc95c36586b1f9829a",
      "networkId": 0,
      "chainId": 0
    }
  ]
}