{
  "hash": "0x350d666771fddfc96ff6f46a46aaa83fff4e24e3a09a92294446e7883c262798",
  "parentHash": "0x2210ab7a94dc22df1253e4688d5346c55a1bc24e3aeffb6dd35427c5aab978ec",
  "number": 84742,
  "timestamp": 1439554003,
  "nonce": "0x600b3865ab261599",
  "difficulty": 2614407723681,
  "gasLimit": {
    "_hex": "0x2fefd8"
  },
  "gasUsed": {
    "_hex": "0x546c"
  },
  "miner": "0xe6A7a1d47ff21B6321162AEA7C6CB457D5476Bca",
  "extraData": "0x476574682f76312e302e312d38326566323666362f6c696e75782f676f312e34",
  "transactions": [
    {
      "hash": "0x471c9ad41c381fe6d4781857baad5f5423efe233a7f8d1096d2eb4ba15ae201b",
      "blockHash": "0x350d666771fddfc96ff6f46a46aaa83fff4e24e3a09a92294446e7883c262798",
      "blockNumber": 84742,
      "transactionIndex": 0,
      "confirmations": null,
      "from": "0x055ab658C6F0Ed4F875eD6742e4bC7292D1abbf0",
      "gasPrice": {
        "_hex": "0x110c8f7d8de"
      },
      "gasLimit": {
        "_hex": "0xc350"
      },
      "to": "0x2910543Af39abA0Cd09dBb2D50200b3E800A63D2",
      "value": {
        "_hex": "0x478eae0e571ba0000"
      },
      "nonce": 1,
      "data": "0x454e4d4d34334d5538",
      "r": "0x3a1ec19ed493e57a2c156cbbd60ba13b1bf2d9ca0ec477ec0ef907ad4d211058",
      "s": "0x4ee2ebd8d895ece0a18bcae3e00f51dca41027f46bf52c38802ea005ad9a2d2f",
      "v": 27,
      "creates": null,
      "raw": "0xf87701860110c8f7d8de82c350942910543af39aba0cd09dbb2d50200b3e800a63d2890478eae0e571ba000089454e4d4d34334d55381ba03a1ec19ed493e57a2c156cbbd60ba13b1bf2d9ca0ec477ec0ef907ad4d211058a04ee2ebd8d895ece0a18bcae3e00f51dca41027f46bf52c38802ea005ad9a2d2f",
      "networkId": 0,
      "chainId": 0
    }
  ]
}