{
  "hash": "0x311a79444bba0fd4f7c9bc580e365b20fec0ec7c79d4da81ad10f488a0333a2e",
  "parentHash": "0xd06b3d28063827e2a521fc000c052be7e3d5ebf4286b86da707c31786f280569",
  "number": 78016,
  "timestamp": 1439446749,
  "nonce": "0xb07a4bd14b58bd9a",
  "difficulty": 2288851832561,
  "gasLimit": {
    "_hex": "0x2fefd8"
  },
  "gasUsed": {
    "_hex": "0xa410"
  },
  "miner": "0xf8E0CA3Ed80bd541b94BEdCf259e8CF2141A9523",
  "extraData": "0x476574682f76312e302e312f77696e646f77732f676f312e342e32",
  "transactions": [
    {
      "hash": "0xbbbf3cabd0d070ecde66c1d529b6b954ebf36ef360dc3b841708865e77ae530f",
      "blockHash": "0x311a79444bba0fd4f7c9bc580e365b20fec0ec7c79d4da81ad10f488a0333a2e",
      "blockNumber": 78016,
      "transactionIndex": 0,
      "confirmations": null,
      "from": "0xAd941B747c499E3ad5728C285446813783A33564",
      "gasPrice": {
        "_hex": "0xdcc1c26a0"
      },
      "gasLimit": {
        "_hex": "0x5208"
      },
      "to": "0x32Be343B94f860124dC4fEe278FDCBD38C102D88",
      "value": {
        "_hex": "0x455f23c73b022400"
      },
      "nonce": 2,
      "data": "0x",
      "r": "0x2f333b39da5769118933a395191078bd965c8b81fabbc6e59f0080ab8d24c079",
      "s": "0x7b32380b63906f3cb518348866bd7bdbdb33968da3fb13fe6e724af7ed982aba",
      "v": 28,
      "creates": null,
      "raw": "0xf86c02850dcc1c26a08252089432be343b94f860124dc4fee278fdcbd38c102d8888455f23c73b022400801ca02f333b39da5769118933a395191078bd965c8b81fabbc6e59f0080ab8d24c079a07b32380b63906f3cb518348866bd7bdbdb33968da3fb13fe6e724af7ed982aba",
      "networkId": 0,
      "chainId": 0
    },
    {
      "hash": "0xfa2a26b1c158122e45a89ed667c64a472b9a0a0edd9182dddb14a60660121a3b",
      "blockHash": "0x311a79444bba0fd4f7c9bc580e365b20fec0ec7c79d4da81ad10f488a0333a2e",
      "blockNumber": 78016,
      "transactionIndex": 1,
      "confirmations": null,
      "from": "0x47ff6576639c2e94762eA5443978D7681C0E78DC",
      "gasPrice": {
        "_hex": "0xccd7da508"
      },
      "gasLimit": {
        "_hex": "0x5208"
      },
      "to": "0x3620db64D25D412bAb4C8d93E2e0D7e64e8Cb933",
      "value": {
        "_hex": "0x3860e639d80640000"
      },
      "nonce": 22,
      "data": "0x",
      "r": "0xa3c7e9df0494d927f7234982a76a8d651e11d1bdf5a8893111ff3a3a132f026e",
      "s": "0x4f3a4ff835071571a49f1386afd4c8b3bd21122fd0d2f4cf55a57c5fbe876d7e",
      "v": 27,
      "creates": null,
      "raw": "0xf86d16850ccd7da508825208943620db64d25d412bab4c8d93e2e0d7e64e8cb9338903860e639d80640000801ba0a3c7e9df0494d927f7234982a76a8d651e11d1bdf5a8893111ff3a3a132f026ea04f3a4ff835071571a49f1386afd4c8b3bd21122fd0d2f4cf55a57c5fbe876d7e",
      "networkId": 0,
      "chainId": 0
    }
  ]
}