{
  "hash": "0x5676f2902f5299302d6f3b893f3d811d11dd506b6717d86183619e7f10eba5e0",
  "parentHash": "0xf702672d3c90291f8f558d568d0e82fa60785a01acfc71bded4b5e8a5c64227f",
  "number": 77026,
  "timestamp": 1439430242,
  "nonce": "0xdf9a5f4e21891e2f",
  "difficulty": 2231731404704,
  "gasLimit": {
    "_hex": "0x2fefd8"
  },
  "gasUsed": {
    "_hex": "0x5208"
  },
  "miner": "0xe6A7a1d47ff21B6321162AEA7C6CB457D5476Bca",
  "extraData": "0x476574682f76312e302e312d38326566323666362f6c696e75782f676f312e34",
  "transactions": [
    {
      "hash": "0xd0a29db15a8f95056ebe840151bd63eb0ee3502013bdbeddb605460c4cf5978d",
      "blockHash": "0x5676f2902f5299302d6f3b893f3d811d11dd506b6717d86183619e7f10eba5e0",
      "blockNumber": 77026,
      "transactionIndex": 0,
      "confirmations": null,
      "from": "0x2910543Af39abA0Cd09dBb2D50200b3E800A63D2",
      "gasPrice": {
        "_hex": "0xd8f02f4e4"
      },
      "gasLimit": {
        "_hex": "0x5208"
      },
      "to": "0x40DE27D548A979891f158C9D4904890456064E7E",
      "value": {
        "_hex": "0x3caa706c967c60000"
      },
      "nonce": 332,
      "data": "0x",
      "r": "0x452fdabfe6c5f5f3e0a373614ed5d3f66754f5e31c3f60f7e1ccb3bcd9a3c364",
      "s": "0x6d43f85531f5c0d3d9c267a55229353356c8e13eb88e842f562e5a3ba253b94f",
      "v": 28,
      "creates": null,
      "raw": "0xf86f82014c850d8f02f4e48252089440de27d548a979891f158c9d4904890456064e7e8903caa706c967c60000801ca0452fdabfe6c5f5f3e0a373614ed5d3f66754f5e31c3f60f7e1ccb3bcd9a3c364a06d43f85531f5c0d3d9c267a55229353356c8e13eb88e842f562e5a3ba253b94f",
      "networkId": 0,
      "chainId": 0
    }
  ]
}