{
  "hash": "0xfcb20999a51b8048c36f652f048ebb4e7a8c3668dbe68ff43b9504bc5af0cbc1",
  "parentHash": "0x392526ac1e65a4639d3018b38b63ffff723e3b0f24c40b2c4a7ecfced4b7dcab",
  "number": 79260,
  "timestamp": 1439466895,
  "nonce": "0x25837f324e8e498d",
  "difficulty": 2326822437567,
  "gasLimit": {
    "_hex": "0x2fefd8"
  },
  "gasUsed": {
    "_hex": "0x546c"
  },
  "miner": "0x019D3FA6E3cdA649b26F74395A846575c7bEA14C",
  "extraData": "0x",
  "transactions": [
    {
      "hash": "0x6636d56447a8cc88ae4f5f16aa92dfa49c46947ab886ee410962e8658ba28dd8",
      "blockHash": "0xfcb20999a51b8048c36f652f048ebb4e7a8c3668dbe68ff43b9504bc5af0cbc1",
      "blockNumber": 79260,
      "transactionIndex": 0,
      "confirmations": null,
      "from": "0x29C0024a99b44d481694cB5D98907a1343D390fD",
      "gasPrice": {
        "_hex": "0xcfb5b0ba3"
      },
      "gasLimit": {
        "_hex": "0x55f0"
      },
      "to": "0x2910543Af39abA0Cd09dBb2D50200b3E800A63D2",
      "value": {
        "_hex": "0x4563918244f40000"
      },
      "nonce": 6,
      "data": "0x454e39514154565452",
      "r": "0x68d71c91390af0434fc73a34068dc21fa8ae20f802509420c23a892ef9f44dad",
      "s": "0x04ffb684a96a9ca25d3d5215f7fbc50867321113147cb476dd0c9249ae7af9c8",
      "v": 27,
      "creates": null,
      "raw": "0xf87506850cfb5b0ba38255f0942910543af39aba0cd09dbb2d50200b3e800a63d2884563918244f4000089454e395141545654521ba068d71c91390af0434fc73a34068dc21fa8ae20f802509420c23a892ef9f44dada004ffb684a96a9ca25d3d5215f7fbc50867321113147cb476dd0c9249ae7af9c8",
      "networkId": 0,
      "chainId": 0
    }
  ]
}