{
  "hash": "0x5cd468ff3bc92f26da8cdeb8f100121cb12020f2d4b8063206e26bdedc3aeb49",
  "parentHash": "0xb9f49c5adfad5d1e412a79dce15cc9aed62094b60d6920202af4e086df5948f1",
  "number": 106888,
  "timestamp": 1439912350,
  "nonce": "0x92b614b1ab7c4be8",
  "difficulty": 4448545996912,
  "gasLimit": {
    "_hex": "0x2fefd8"
  },
  "gasUsed": {
    "_hex": "0x5208"
  },
  "miner": "0xcf00A85f3826941e7A25BFcF9Aac575d40410852",
  "extraData": "0x476574682f76312e302e312f77696e646f77732f676f312e342e32",
  "transactions": [
    {
      "hash": "0x7606520260ece1aa6cb1c7fa43b54358a089fa510e5f2b0d46f592a3149743ef",
      "blockHash": "0x5cd468ff3bc92f26da8cdeb8f100121cb12020f2d4b8063206e26bdedc3aeb49",
      "blockNumber": 106888,
      "transactionIndex": 0,
      "confirmations": null,
      "from": "0x32Be343B94f860124dC4fEe278FDCBD38C102D88",
      "gasPrice": {
        "_hex": "0xcb22c74e9"
      },
      "gasLimit": {
        "_hex": "0x5208"
      },
      "to": "0x6Ea9d172E15e969316f49CB2D5549fc3b00c1ef3",
      "value": {
        "_hex": "0xd58c5a69da61080000"
      },
      "nonce": 1193,
      "data": "0x",
      "r": "0xaf5912d055fbf6f5543381e6b318d62033628c804ebd8f3f7b58f286fd98a514",
      "s": "0x4da918ed16eac4fbde42c10c8557d2a8e092f1d88d30b34f5c5cf362abcf96f3",
      "v": 28,
      "creates": null,
      "raw": "0xf86f8204a9850cb22c74e9825208946ea9d172e15e969316f49cb2d5549fc3b00c1ef389d58c5a69da61080000801ca0af5912d055fbf6f5543381e6b318d62033628c804ebd8f3f7b58f286fd98a514a04da918ed16eac4fbde42c10c8557d2a8e092f1d88d30b34f5c5cf362abcf96f3",
      "networkId": 0,
      "chainId": 0
    }
  ]
}