{
  "hash": "0x2338eef55ba8972c4be7761a02084e17f1a160ae38823d50363914653d14d0dd",
  "parentHash": "0xb94cfaab8931e613d3deffb61f5642b7105b6dcd7f5e07ebd69d8cb4b225def3",
  "number": 89942,
  "timestamp": 1439631506,
  "nonce": "0x85b10183c9e4bd77",
  "difficulty": 3345071349817,
  "gasLimit": {
    "_hex": "0x2fefd8"
  },
  "gasUsed": {
    "_hex": "0x5208"
  },
  "miner": "0x123843545FB525C8E134c9A5F15ADA6865cc3848",
  "extraData": "0x476574682f76312e302e312f77696e646f77732f676f312e342e32",
  "transactions": [
    {
      "hash": "0x3e796fbc4f539456d271986bb8c6cdc153a2ca9d0746a469d7ae43ead673d5f3",
      "blockHash": "0x2338eef55ba8972c4be7761a02084e17f1a160ae38823d50363914653d14d0dd",
      "blockNumber": 89942,
      "transactionIndex": 0,
      "confirmations": null,
      "from": "0xE21812b7c0Bd57f6922B6A5670BDAec864beEF6b",
      "gasPrice": {
        "_hex": "0xcddaf8f48"
      },
      "gasLimit": {
        "_hex": "0x5208"
      },
      "to": "0x32Be343B94f860124dC4fEe278FDCBD38C102D88",
      "value": {
        "_hex": "0x4a9fc3c719a7d800"
      },
      "nonce": 0,
      "data": "0x",
      "r": "0x50ab4f3ee785d1fb6849a2aa9017ddfba45e0f63129d5573c6678369bd2b4c32",
      "s": "0x3c52cfdd48b65201cc9a2845fbbfc6a93713ce92dcd5d2171389624b44974885",
      "v": 27,
      "creates": null,
      "raw": "0xf86c80850cddaf8f488252089432be343b94f860124dc4fee278fdcbd38c102d88884a9fc3c719a7d800801ba050ab4f3ee785d1fb6849a2aa9017ddfba45e0f63129d5573c6678369bd2b4c32a03c52cfdd48b65201cc9a2845fbbfc6a93713ce92dcd5d2171389624b44974885",
      "networkId": 0,
      "chainId": 0
    }
  ]
}