{
  "hash": "0xc7598c642d6b96d0641e5dfcb6c93d305a41479d48ddad55cb865088d094a619",
  "parentHash": "0x0785820a60f3dc1f6ea00164b12366130354227a9195ff2b95dc1ed0eaafffda",
  "number": 103001,
  "timestamp": 1439846238,
  "nonce": "0xb098d90892f2639b",
  "difficulty": 4146397480336,
  "gasLimit": {
    "_hex": "0x2fefd8"
  },
  "gasUsed": {
    "_hex": "0x5208"
  },
  "miner": "0xe6A7a1d47ff21B6321162AEA7C6CB457D5476Bca",
  "extraData": "0x476574682f76312e302e312d38326566323666362f6c696e75782f676f312e34",
  "transactions": [
    {
      "hash": "0x1be8eb4a9fc16288b58525dfce1c9843ad3284a82ac7ff2927bf2c34a39308af",
      "blockHash": "0xc7598c642d6b96d0641e5dfcb6c93d305a41479d48ddad55cb865088d094a619",
      "blockNumber": 103001,
      "transactionIndex": 0,
      "confirmations": null,
      "from": "0x007f7f58D3eb5b7510A301eCC749FC1fCDDBE14D",
      "gasPrice": {
        "_hex": "0xe0cfe7246"
      },
      "gasLimit": {
        "_hex": "0x15f90"
      },
      "to": "0xb1abce2918E21ddb93AA452731a12672A3d9F75a",
      "value": {
        "_hex": "0x4563918244f40000"
      },
      "nonce": 217,
      "data": "0x",
      "r": "0xb5a71ce9b6147b5e4162832e5ac0a81c775ef9e9422a4612cd99c263b1fba883",
      "s": "0x3e664b911bed9f472a3196d01e9e08e52e347307bdd35cff72bf020f9e702e9f",
      "v": 27,
      "creates": null,
      "raw": "0xf86e81d9850e0cfe724683015f9094b1abce2918e21ddb93aa452731a12672a3d9f75a884563918244f40000801ba0b5a71ce9b6147b5e4162832e5ac0a81c775ef9e9422a4612cd99c263b1fba883a03e664b911bed9f472a3196d01e9e08e52e347307bdd35cff72bf020f9e702e9f",
      "networkId": 0,
      "chainId": 0
    }
  ]
}