{
  "hash": "0x6575e3a7a0fc0235ec3bd417e69103ebbf3f9f8659bd3bf7b3ea0c749fd57d36",
  "parentHash": "0x5fd75ea57d8c59a726ffdf7a518a6c2565ab5c579055c6aede95723f27d17390",
  "number": 121638,
  "timestamp": 1440180135,
  "nonce": "0x82e550ebfce52bd7",
  "difficulty": 4471191381146,
  "gasLimit": {
    "_hex": "0x2fefd8"
  },
  "gasUsed": {
    "_hex": "0x5208"
  },
  "miner": "0x608f4b86321a68453f9adf6F06F7Fc3E621739ad",
  "extraData": "0xd783010002844765746887676f312e342e32856c696e7578",
  "transactions": [
    {
      "hash": "0xbac2aaf9eb4eccea51ed8c268fdcd3e9c584758675958fa038265046b26f60eb",
      "blockHash": "0x6575e3a7a0fc0235ec3bd417e69103ebbf3f9f8659bd3bf7b3ea0c749fd57d36",
      "blockNumber": 121638,
      "transactionIndex": 0,
      "confirmations": null,
      "from": "0x2910543Af39abA0Cd09dBb2D50200b3E800A63D2",
      "gasPrice": {
        "_hex": "0xcc7034e9f"
      },
      "gasLimit": {
        "_hex": "0x5208"
      },
      "to": "0xb6450d1f229e4A9442Ff238BF4d0565B1200D0b1",
      "value": {
        "_hex": "0xd8d60a7f83fc78000"
      },
      "nonce": 1196,
      "data": "0x",
      "r": "0x5155643b070d6dbba6023a6c8021830e8abc4eab5d514b4609d02fe6cc96fca5",
      "s": "0x1d6b7415d3df0fe8eccddab94c9269ba9d42e5bfd0850c2b2e2d75fca6ae50ee",
      "v": 28,
      "creates": null,
      "raw": "0xf86f8204ac850cc7034e9f82520894b6450d1f229e4a9442ff238bf4d0565b1200d0b1890d8d60a7f83fc78000801ca05155643b070d6dbba6023a6c8021830e8abc4eab5d514b4609d02fe6cc96fca5a01d6b7415d3df0fe8eccddab94c9269ba9d42e5bfd0850c2b2e2d75fca6ae50ee",
      "networkId": 0,
      "chainId": 0
    }
  ]
}