{
  "hash": "0x5048e08933a294f791812c8cd9383e7d964b13e6c8f51cc008e2e91e7c14f76c",
  "parentHash": "0xc737b7f92e4718d04bcaca2365f7cd6f9cc8c34f2fd6a1ea9a018b2dc561c55d",
  "number": 64987,
  "timestamp": 1439229498,
  "nonce": "0xc5eec09b2b50ed36",
  "difficulty": 1914444861812,
  "gasLimit": {
    "_hex": "0x2fefd8"
  },
  "gasUsed": {
    "_hex": "0xa410"
  },
  "miner": "0x123843545FB525C8E134c9A5F15ADA6865cc3848",
  "extraData": "0x476574682f76312e302e312f77696e646f77732f676f312e342e32",
  "transactions": [
    {
      "hash": "0xecdf88d7395d08095616d540b490a96ab7c0859a7c77d196bfc18ed51fb1cea3",
      "blockHash": "0x5048e08933a294f791812c8cd9383e7d964b13e6c8f51cc008e2e91e7c14f76c",
      "blockNumber": 64987,
      "transactionIndex": 0,
      "confirmations": null,
      "from": "0x120A270bbC009644e35F0bB6ab13f95b8199c4ad",
      "gasPrice": {
        "_hex": "0xcf04edd5d"
      },
      "gasLimit": {
        "_hex": "0x15f90"
      },
      "to": "0x59b35979170d7F4372F360C175287e40FaF71f32",
      "value": {
        "_hex": "0x12f573b20b4d769400"
      },
      "nonce": 120,
      "data": "0x",
      "r": "0x29e907d34ddf23f59f2fb3b17b81734f7ce1258deee1a17528d9d97137e028ec",
      "s": "0x4e1f8ae4ff18fba9160b1664790e01c2512e7788baa13b34c47a316e282d5e3d",
      "v": 28,
      "creates": null,
      "raw": "0xf86e78850cf04edd5d83015f909459b35979170d7f4372f360c175287e40faf71f328912f573b20b4d769400801ca029e907d34ddf23f59f2fb3b17b81734f7ce1258deee1a17528d9d97137e028eca04e1f8ae4ff18fba9160b1664790e01c2512e7788baa13b34c47a316e282d5e3d",
      "networkId": 0,
      "chainId": 0
    },
    {
      "hash": "0x992b6d5249311a3bc4af14ead9c7dbac1aee934013f36afe62f38dad45a2ed8f",
      "blockHash": "0x5048e08933a294f791812c8cd9383e7d964b13e6c8f51cc008e2e91e7c14f76c",
      "blockNumber": 64987,
      "transactionIndex": 1,
      "confirmations": null,
      "from": "0x120A270bbC009644e35F0bB6ab13f95b8199c4ad",
      "gasPrice": {
        "_hex": "0xcf04edd5d"
      },
      "gasLimit": {
        "_hex": "0x15f90"
      },
      "to": "0x976349705b839e2F5719387Fb27D2519d519da03",
      "value": {
        "_hex": "0x1fb99c8e19d64800"
      },
      "nonce": 121,
      "data": "0x",
      "r": "0xc8b8fe65c7e162ff35cc9d6a7fe3f066b8b7e10b43441718140d244e484c0014",
      "s": "0x24fde0c21e67f2f2389dcc1bcb69a037c33d06e6d8d12f97f9ba4daf06315296",
      "v": 28,
      "creates": null,
      "raw": "0xf86d79850cf04edd5d83015f9094976349705b839e2f5719387fb27d2519d519da03881fb99c8e19d64800801ca0c8b8fe65c7e162ff35cc9d6a7fe3f066b8b7e10b43441718140d244e484c0014a024fde0c21e67f2f2389dcc1bcb69a037c33d06e6d8d12f97f9ba4daf06315296",
      "networkId": 0,
      "chainId": 0
    }
  ]
}