{
  "hash": "0x9c2623f32d7d2d1f111eae36c0e125fded03bb52275583a0ec6b96cdad77eafc",
  "parentHash": "0xbe24325ba4a205a4c5373a8b05f2103872b9f7c911e2e7e88fb5a8b6ac8b8f46",
  "number": 67379,
  "timestamp": 1439271054,
  "nonce": "0x47a83f263810bc7c",
  "difficulty": 1921389827902,
  "gasLimit": {
    "_hex": "0x2fefd8"
  },
  "gasUsed": {
    "_hex": "0x5208"
  },
  "miner": "0xbb7B8287f3F0a933474a79eAe42CBCa977791171",
  "extraData": "0x476574682f4c5649562f76312e302e312f6c696e75782f676f312e342e32",
  "transactions": [
    {
      "hash": "0x5cdd2349582c0fd7e6fbbf97469385038bd40bb7694b7cf5dc694a2ea5bc24cb",
      "blockHash": "0x9c2623f32d7d2d1f111eae36c0e125fded03bb52275583a0ec6b96cdad77eafc",
      "blockNumber": 67379,
      "transactionIndex": 0,
      "confirmations": null,
      "from": "0x4b0424c09BaC4Ee3f4376f1D3fA354E8Cb2D3171",
      "gasPrice": {
        "_hex": "0xdc9feadc7"
      },
      "gasLimit": {
        "_hex": "0x15f90"
      },
      "to": "0x34d34F0a638F6991e4E2536F41295DF6E934A646",
      "value": {
        "_hex": "0xd"
      },
      "nonce": 2,
      "data": "0x",
      "r": "0x281c58daf349d8ca7911d3408aef203c7de23bfb6d736f38db1bd3672c98bdf7",
      "s": "0x58dfaf4ffe8733926c93579e3965306fdba5e6944459fef953ce95947b9bc2ed",
      "v": 27,
      "creates": null,
      "raw": "0xf86502850dc9feadc783015f909434d34f0a638f6991e4e2536f41295df6e934a6460d801ba0281c58daf349d8ca7911d3408aef203c7de23bfb6d736f38db1bd3672c98bdf7a058dfaf4ffe8733926c93579e3965306fdba5e6944459fef953ce95947b9bc2ed",
      "networkId": 0,
      "chainId": 0
    }
  ]
}