{
  "hash": "0x3e14c13b2650cd768bcf5f256dd98666595f6d0556b2c64bb7a9a21526faacdc",
  "parentHash": "0x3ca6e77687c12025d7f5f7e70d344b58a3d504110c89e1c619b434ab0610e99f",
  "number": 78006,
  "timestamp": 1439446514,
  "nonce": "0x10da7d70bfbf772e",
  "difficulty": 2288854561088,
  "gasLimit": {
    "_hex": "0x2fefd8"
  },
  "gasUsed": {
    "_hex": "0xf618"
  },
  "miner": "0x157c6f2431eB1a95797EE86F7d17b3c0FD47A247",
  "extraData": "0x476574682f76312e302e312f77696e646f77732f676f312e342e32",
  "transactions": [
    {
      "hash": "0xa7dd1c3eb82020afe178bca6f605d23e9f3b0d0b2c469d9018079a04f7f8317c",
      "blockHash": "0x3e14c13b2650cd768bcf5f256dd98666595f6d0556b2c64bb7a9a21526faacdc",
      "blockNumber": 78006,
      "transactionIndex": 0,
      "confirmations": null,
      "from": "0x32Be343B94f860124dC4fEe278FDCBD38C102D88",
      "gasPrice": {
        "_hex": "0xdcbcf41e1"
      },
      "gasLimit": {
        "_hex": "0x5208"
      },
      "to": "0x5170535271F5B9eC438c0447b3daD67b3E2633f2",
      "value": {
        "_hex": "0x4563918244f40000"
      },
      "nonce": 380,
      "data": "0x",
      "r": "0xc69757d114c1df1bdb55c22efd67aece56eccb3f68d050535783db01254ed385",
      "s": "0x2f95a95b61871784edff0b2775ae58c91f83777d7a95b31420d7be645cfb9d71",
      "v": 27,
      "creates": null,
      "raw": "0xf86e82017c850dcbcf41e1825208945170535271f5b9ec438c0447b3dad67b3e2633f2884563918244f40000801ba0c69757d114c1df1bdb55c22efd67aece56eccb3f68d050535783db01254ed385a02f95a95b61871784edff0b2775ae58c91f83777d7a95b31420d7be645cfb9d71",
      "networkId": 0,
      "chainId": 0
    },
    {
      "hash": "0xa2d74b3ef8349b96c1f8d816b8eaa955b58c5ae948125b35b6cd2f31dc5f0a1d",
      "blockHash": "0x3e14c13b2650cd768bcf5f256dd98666595f6d0556b2c64bb7a9a21526faacdc",
      "blockNumber": 78006,
      "transactionIndex": 1,
      "confirmations": null,
      "from": "0x32Be343B94f860124dC4fEe278FDCBD38C102D88",
      "gasPrice": {
        "_hex": "0xdcbcf41e1"
      },
      "gasLimit": {
        "_hex": "0x5208"
      },
      "to": "0xcb101DE19B809Da93093Cb290F28393D8c639473",
      "value": {
        "_hex": "0xab3ff3afb500c00"
      },
      "nonce": 381,
      "data": "0x",
      "r": "0xc2a8db542ccbc2dc5e40a555f9a91cdf65de219c4576ee81d92ecf7fd4760ed9",
      "s": "0x48daabec8df0f204e887a8a17d7bc3a6b83ad06db2f3f9271b5f0408b8344179",
      "v": 28,
      "creates": null,
      "raw": "0xf86e82017d850dcbcf41e182520894cb101de19b809da93093cb290f28393d8c639473880ab3ff3afb500c00801ca0c2a8db542ccbc2dc5e40a555f9a91cdf65de219c4576ee81d92ecf7fd4760ed9a048daabec8df0f204e887a8a17d7bc3a6b83ad06db2f3f9271b5f0408b8344179",
      "networkId": 0,
      "chainId": 0
    },
    {
      "hash": "0x412e1589a027a773d191b08e2c8aed00bfd23b40e1295ae4c0e7fe5e92733d98",
      "blockHash": "0x3e14c13b2650cd768bcf5f256dd98666595f6d0556b2c64bb7a9a21526faacdc",
      "blockNumber": 78006,
      "transactionIndex": 2,
      "confirmations": null,
      "from": "0x7Eb9F59f9547E376188eD83EFCD1F6dbF3712eA6",
      "gasPrice": {
        "_hex": "0xd8364fc25"
      },
      "gasLimit": {
        "_hex": "0x15f90"
      },
      "to": "0xAd941B747c499E3ad5728C285446813783A33564",
      "value": {
        "_hex": "0x4563918244f40000"
      },
      "nonce": 1,
      "data": "0x",
      "r": "0x69416c953cd8c36052566401eb83416e4e4d9a03f181449eab89d1403dac4b89",
      "s": "0x70664bb302718b60407e6f2b221f7e1a578b26d26c7f17c9042b2be9ddb72016",
      "v": 27,
      "creates": null,
      "raw": "0xf86d01850d8364fc2583015f9094ad941b747c499e3ad5728c285446813783a33564884563918244f40000801ba069416c953cd8c36052566401eb83416e4e4d9a03f181449eab89d1403dac4b89a070664bb302718b60407e6f2b221f7e1a578b26d26c7f17c9042b2be9ddb72016",
      "networkId": 0,
      "chainId": 0
    }
  ]
}