{
  "hash": "0xf2f75fd7fad20896cfc538687e1d0bdfa255285e7af65e05a851d5000d6f3096",
  "parentHash": "0x2f224bc3d4776d6f036f722f33cb2863a9e8af7be4caf593e37e4fd585b5d389",
  "number": 69896,
  "timestamp": 1439311457,
  "nonce": "0xcabee9a78fe98f98",
  "difficulty": 2104456720972,
  "gasLimit": {
    "_hex": "0x2fefd8"
  },
  "gasUsed": {
    "_hex": "0x546c"
  },
  "miner": "0xe3002160DEbB2936e6ca494ed36F28056ed7aEfd",
  "extraData": "0x",
  "transactions": [
    {
      "hash": "0x454dbcbe13c74f05924c0ecc77213a6f2547b7fa065021ce4cf8ee3bfbf97c83",
      "blockHash": "0xf2f75fd7fad20896cfc538687e1d0bdfa255285e7af65e05a851d5000d6f3096",
      "blockNumber": 69896,
      "transactionIndex": 0,
      "confirmations": null,
      "from": "0xd2a781a0bBBE2c930B012aABf90b3d95A0c6D047",
      "gasPrice": {
        "_hex": "0xd8364fc25"
      },
      "gasLimit": {
        "_hex": "0x55f0"
      },
      "to": "0x2910543Af39abA0Cd09dBb2D50200b3E800A63D2",
      "value": {
        "_hex": "0x270801d946c940000"
      },
      "nonce": 1,
      "data": "0x454e51343033375047",
      "r": "0xbf1a859efcefd4eeddf2d1ca88bb0e60e34313850855484dfba4cabe527003ae",
      "s": "0x412b510f651c668480605378238a2e54c70a861f5a274c95b65f03bcb1f25201",
      "v": 27,
      "creates": null,
      "raw": "0xf87601850d8364fc258255f0942910543af39aba0cd09dbb2d50200b3e800a63d2890270801d946c94000089454e513430333750471ba0bf1a859efcefd4eeddf2d1ca88bb0e60e34313850855484dfba4cabe527003aea0412b510f651c668480605378238a2e54c70a861f5a274c95b65f03bcb1f25201",
      "networkId": 0,
      "chainId": 0
    }
  ]
}