{
  "hash": "0x97b457e40ec6d64a79d04cb6a8df9de68e71f07e2eda41a1634106e231a5b30a",
  "parentHash": "0x6cf3a9c6cf434a18592216b09ac45c899395ef37fa962bcca2a0532ac0b90961",
  "number": 82372,
  "timestamp": 1439518224,
  "nonce": "0x80fee94807c28ff6",
  "difficulty": 2376471853792,
  "gasLimit": {
    "_hex": "0x2fefd8"
  },
  "gasUsed": {
    "_hex": "0x5208"
  },
  "miner": "0xe6A7a1d47ff21B6321162AEA7C6CB457D5476Bca",
  "extraData": "0x476574682f76312e302e312d38326566323666362f6c696e75782f676f312e34",
  "transactions": [
    {
      "hash": "0x2da3415ab06336745690c5bca7c69a13a49c14e8c98d0216df3f80011f5c1952",
      "blockHash": "0x97b457e40ec6d64a79d04cb6a8df9de68e71f07e2eda41a1634106e231a5b30a",
      "blockNumber": 82372,
      "transactionIndex": 0,
      "confirmations": null,
      "from": "0xb49c181AbbC9Fb925B8252F4a31a212A41839876",
      "gasPrice": {
        "_hex": "0xba43b7400"
      },
      "gasLimit": {
        "_hex": "0x5208"
      },
      "to": "0xC47Aaa860008be6f65B58c6C6E02a84e666EfE31",
      "value": {
        "_hex": "0xdb974c90a901dc0"
      },
      "nonce": 0,
      "data": "0x",
      "r": "0xbdb26d09eff124e02fec5d904779ce126adcaecb6a922a9d16dbedc786287f65",
      "s": "0x7b01583e62fbadf433ff6030c87fa29a0c3f3f5195736260f0a578fd04d28517",
      "v": 28,
      "creates": null,
      "raw": "0xf86c80850ba43b740082520894c47aaa860008be6f65b58c6c6e02a84e666efe31880db974c90a901dc0801ca0bdb26d09eff124e02fec5d904779ce126adcaecb6a922a9d16dbedc786287f65a07b01583e62fbadf433ff6030c87fa29a0c3f3f5195736260f0a578fd04d28517",
      "networkId": 0,
      "chainId": 0
    }
  ]
}