{
  "hash": "0x912fc42da76c7c4775b73c4f8c0d5c1391466bc38d30d2bde3af717d7b033411",
  "parentHash": "0x20ee1a6bbcada15d2b84d2e5701a20edb795491c38986c7b87ae6f73dc255f26",
  "number": 70726,
  "timestamp": 1439324556,
  "nonce": "0xa87652b18828bba2",
  "difficulty": 2137385603439,
  "gasLimit": {
    "_hex": "0x2fefd8"
  },
  "gasUsed": {
    "_hex": "0x5208"
  },
  "miner": "0xe6A7a1d47ff21B6321162AEA7C6CB457D5476Bca",
  "extraData": "0x476574682f76312e302e312d38326566323666362f6c696e75782f676f312e34",
  "transactions": [
    {
      "hash": "0x9fa300734723fe2014f7d43f89150361226fe0fa0e79f377589eea8ae6e0d4be",
      "blockHash": "0x912fc42da76c7c4775b73c4f8c0d5c1391466bc38d30d2bde3af717d7b033411",
      "blockNumber": 70726,
      "transactionIndex": 0,
      "confirmations": null,
      "from": "0x120A270bbC009644e35F0bB6ab13f95b8199c4ad",
      "gasPrice": {
        "_hex": "0xdde0ff6ff"
      },
      "gasLimit": {
        "_hex": "0x15f90"
      },
      "to": "0xc9CBB4dB18605df3f84dfB719A58c9C1252cE641",
      "value": {
        "_hex": "0x796e3ea3f8ab00000"
      },
      "nonce": 210,
      "data": "0x",
      "r": "0xeb1e3e156e43b4ce1d357c82f4093716097ab0aad6b01b7ee795c10aad09ae14",
      "s": "0x7bebf68deb0130e665892fdaa6cfb902d2501ce9798938cda2880948634b323e",
      "v": 27,
      "creates": null,
      "raw": "0xf86f81d2850dde0ff6ff83015f9094c9cbb4db18605df3f84dfb719a58c9c1252ce641890796e3ea3f8ab00000801ba0eb1e3e156e43b4ce1d357c82f4093716097ab0aad6b01b7ee795c10aad09ae14a07bebf68deb0130e665892fdaa6cfb902d2501ce9798938cda2880948634b323e",
      "networkId": 0,
      "chainId": 0
    }
  ]
}