{
  "hash": "0x3cfb048392d473425bad58427ba7cbce657552adfd4920116abd68cf2ecdf3fd",
  "parentHash": "0xeeadb9ce2bd2d507fb9697c5d9dc6e55de55fd4736fe63b6e85dc3ca5c55029f",
  "number": 95911,
  "timestamp": 1439731953,
  "nonce": "0xedb7594227abe824",
  "difficulty": 3612547449621,
  "gasLimit": {
    "_hex": "0x2fefd5"
  },
  "gasUsed": {
    "_hex": "0x5208"
  },
  "miner": "0x790b8a3cE86E707ED0eD32bF89B3269692a23CC1",
  "extraData": "0xd783010001844765746887676f312e342e32856c696e7578",
  "transactions": [
    {
      "hash": "0xa321eadee1b066bc9d8d5120f5e4574d37e5c34f7d3d5650d5375988487741bd",
      "blockHash": "0x3cfb048392d473425bad58427ba7cbce657552adfd4920116abd68cf2ecdf3fd",
      "blockNumber": 95911,
      "transactionIndex": 0,
      "confirmations": null,
      "from": "0xa6BDc31c431B8F97848c9D60cbbe9660dc450eB7",
      "gasPrice": {
        "_hex": "0xe10eca7c7"
      },
      "gasLimit": {
        "_hex": "0x5208"
      },
      "to": "0x32Be343B94f860124dC4fEe278FDCBD38C102D88",
      "value": {
        "_hex": "0x455f0fa6b0383000"
      },
      "nonce": 121,
      "data": "0x",
      "r": "0xc1ba322a769c0d5dd835527bebc6fef0a41e17a9f8cd23fae01a8087e4793ea5",
      "s": "0x4be50feed17768a56556583aacb7afe6584df4b6dde0238f1f6fcaee04df7133",
      "v": 28,
      "creates": null,
      "raw": "0xf86c79850e10eca7c78252089432be343b94f860124dc4fee278fdcbd38c102d8888455f0fa6b0383000801ca0c1ba322a769c0d5dd835527bebc6fef0a41e17a9f8cd23fae01a8087e4793ea5a04be50feed17768a56556583aacb7afe6584df4b6dde0238f1f6fcaee04df7133",
      "networkId": 0,
      "chainId": 0
    }
  ]
}