{
  "hash": "0xabe3c247ef26883ceddf70f2b42e4cfc7ef7d30755c2be21f6ced86b20c444e6",
  "parentHash": "0xdf0f5efca7704ed0f6ab8f6defe310ba6bfd019503e8e05d3a7fc8f8a85fc366",
  "number": 49782,
  "timestamp": 1438979108,
  "nonce": "0xa66d932c79fb2d9f",
  "difficulty": 1488579455933,
  "gasLimit": {
    "_hex": "0x3ecc8"
  },
  "gasUsed": {
    "_hex": "0x5208"
  },
  "miner": "0xF2d2AfF1320476cb8C6b607199D23175cc595693",
  "extraData": "0x476574682f76312e302e312f77696e646f77732f676f312e342e32",
  "transactions": [
    {
      "hash": "0xba81b21ce406e878ff80a241e33ba5d7cc50620d974c8aef0f3f60829cf0ee8e",
      "blockHash": "0xabe3c247ef26883ceddf70f2b42e4cfc7ef7d30755c2be21f6ced86b20c444e6",
      "blockNumber": 49782,
      "transactionIndex": 0,
      "confirmations": null,
      "from": "0x9def82c26c0c5fc4E0e7eC2f64425314E3F7B476",
      "gasPrice": {
        "_hex": "0x2e90edd000"
      },
      "gasLimit": {
        "_hex": "0x5208"
      },
      "to": "0x42e16B3732ae6f3e38AeE7546f36149C9eCB8F26",
      "value": {
        "_hex": "0x29a2241af62c0000"
      },
      "nonce": 0,
      "data": "0x",
      "r": "0xa4e79fc74c39d8aa72babe45e6d315ba8bf1858393e0fd7d0b38db64d28d4612",
      "s": "0x32871102266ae3a6767dc31f635e449ac2c89fd8e89379521cfae01d01a46941",
      "v": 28,
      "creates": null,
      "raw": "0xf86c80852e90edd0008252089442e16b3732ae6f3e38aee7546f36149c9ecb8f268829a2241af62c0000801ca0a4e79fc74c39d8aa72babe45e6d315ba8bf1858393e0fd7d0b38db64d28d4612a032871102266ae3a6767dc31f635e449ac2c89fd8e89379521cfae01d01a46941",
      "networkId": 0,
      "chainId": 0
    }
  ]
}