{
  "hash": "0x7bae471f3f3e55e97bbb9132ee8cfd16f6848dbe60fc2cf93d5adbc52b87f94d",
  "parentHash": "0xdf5891b71816a688b8af0c839887e320b890fffa5ef46be9178f9e33a85430eb",
  "number": 73844,
  "timestamp": 1439375928,
  "nonce": "0xbdd67d950320e38b",
  "difficulty": 2228221865659,
  "gasLimit": {
    "_hex": "0x2fefd8"
  },
  "gasUsed": {
    "_hex": "0x5208"
  },
  "miner": "0xEF247E639d49461D25F57e9362CadE3120910Ce0",
  "extraData": "0x476574682f76312e302e312f6c696e75782f676f312e342e32",
  "transactions": [
    {
      "hash": "0x3993a0af07172f1f798588a762d02666145f1028e156795ae68e50b6b35751bd",
      "blockHash": "0x7bae471f3f3e55e97bbb9132ee8cfd16f6848dbe60fc2cf93d5adbc52b87f94d",
      "blockNumber": 73844,
      "transactionIndex": 0,
      "confirmations": null,
      "from": "0xECe1152682b7598FE2d1E21eC15533885435Ac85",
      "gasPrice": {
        "_hex": "0xd80950549"
      },
      "gasLimit": {
        "_hex": "0x15f90"
      },
      "to": "0xe3A29c590ae7Bf0D32A7121373bf5C94ADbeCa4a",
      "value": {
        "_hex": "0xb1a2bc2ec50000"
      },
      "nonce": 2,
      "data": "0x",
      "r": "0x3908d123ecb92143283fbc93a25a99d9052808eaf882cc780f6083b838c15ae7",
      "s": "0x527a3d2a1150318394b6a397874281c2aa275892a8b0c176f18a94698b3e6ef9",
      "v": 27,
      "creates": null,
      "raw": "0xf86c02850d8095054983015f9094e3a29c590ae7bf0d32a7121373bf5c94adbeca4a87b1a2bc2ec50000801ba03908d123ecb92143283fbc93a25a99d9052808eaf882cc780f6083b838c15ae7a0527a3d2a1150318394b6a397874281c2aa275892a8b0c176f18a94698b3e6ef9",
      "networkId": 0,
      "chainId": 0
    }
  ]
}