{
  "hash": "0xb2ed7ee606217b213e6f37fd2abb1a9a9786db8c1eadd0c07c7bddc564fd1e9f",
  "parentHash": "0xf6f97a956abb2fa8b2387a84177ce14e3411098dd7c5fe5d2cb0dc8de7921d8c",
  "number": 72439,
  "timestamp": 1439352611,
  "nonce": "0xe04f938c3dc478a4",
  "difficulty": 2208015265983,
  "gasLimit": {
    "_hex": "0x2fefd8"
  },
  "gasUsed": {
    "_hex": "0x5208"
  },
  "miner": "0x88D74a59454F6cF3B51ef6b9136AFb6b9D405A88",
  "extraData": "0x476574682f76312e302e312d38326566323666362f6c696e75782f676f312e34",
  "transactions": [
    {
      "hash": "0x341408fa82cd3a2f772364daba602daae63e19f6760a38aa9bb6485dfd6ae17b",
      "blockHash": "0xb2ed7ee606217b213e6f37fd2abb1a9a9786db8c1eadd0c07c7bddc564fd1e9f",
      "blockNumber": 72439,
      "transactionIndex": 0,
      "confirmations": null,
      "from": "0x9d93fAb6E22845f8f45A07496F11dE71530dEbC7",
      "gasPrice": {
        "_hex": "0x10c421a41c6"
      },
      "gasLimit": {
        "_hex": "0x15f90"
      },
      "to": "0x709637dC145477a8e9ab86613B3c5c10cD1c5dDC",
      "value": {
        "_hex": "0xde0b6b3a7640000"
      },
      "nonce": 0,
      "data": "0x",
      "r": "0xce1062b2e85cb09b2dcf4c075711356069fffcaee147d9f6aaa6064cc9d7a214",
      "s": "0x0ef50a2a6bc962e529393ca3056707b4ea506c55b4d278e027cce9ed5b868124",
      "v": 28,
      "creates": null,
      "raw": "0xf86e8086010c421a41c683015f9094709637dc145477a8e9ab86613b3c5c10cd1c5ddc880de0b6b3a7640000801ca0ce1062b2e85cb09b2dcf4c075711356069fffcaee147d9f6aaa6064cc9d7a214a00ef50a2a6bc962e529393ca3056707b4ea506c55b4d278e027cce9ed5b868124",
      "networkId": 0,
      "chainId": 0
    }
  ]
}