{
  "hash": "0x3e2d2016f8117482afaaeb8f57e3afdbec9a5180f3eddcb643492cb60b6ddaf5",
  "parentHash": "0x852f51ad7dcca3379091d0a504daf44d4d8469f6a5f32a65c3398e420dcc20d6",
  "number": 94796,
  "timestamp": 1439714202,
  "nonce": "0x072391082f145c48",
  "difficulty": 3503576785506,
  "gasLimit": {
    "_hex": "0x2fefd8"
  },
  "gasUsed": {
    "_hex": "0x5208"
  },
  "miner": "0xe6A7a1d47ff21B6321162AEA7C6CB457D5476Bca",
  "extraData": "0x476574682f76312e302e312d38326566323666362f6c696e75782f676f312e34",
  "transactions": [
    {
      "hash": "0x3964de4a7f44ad9c319501754d1388f5ff4ca354bed5de97460dd1a5e72207e8",
      "blockHash": "0x3e2d2016f8117482afaaeb8f57e3afdbec9a5180f3eddcb643492cb60b6ddaf5",
      "blockNumber": 94796,
      "transactionIndex": 0,
      "confirmations": null,
      "from": "0x05c75De56E6Dd252880Ea8f35695c43Bd837f16E",
      "gasPrice": {
        "_hex": "0xcb7f72c17"
      },
      "gasLimit": {
        "_hex": "0x5208"
      },
      "to": "0x32Be343B94f860124dC4fEe278FDCBD38C102D88",
      "value": {
        "_hex": "0x59d769f27176f0000"
      },
      "nonce": 0,
      "data": "0x",
      "r": "0xd0b9b85ae4741d062a78dfc5e2265df0737982793383e7ecf66e612191833510",
      "s": "0x2deb9fa8ead4c4274d7328c6abeaa3bd06f02c169ee3e079c2fc9cb92fa1914e",
      "v": 27,
      "creates": null,
      "raw": "0xf86d80850cb7f72c178252089432be343b94f860124dc4fee278fdcbd38c102d8889059d769f27176f0000801ba0d0b9b85ae4741d062a78dfc5e2265df0737982793383e7ecf66e612191833510a02deb9fa8ead4c4274d7328c6abeaa3bd06f02c169ee3e079c2fc9cb92fa1914e",
      "networkId": 0,
      "chainId": 0
    }
  ]
}