{
  "hash": "0xc5eed0973be7ab3ff811dfca012203638f522531922e8392f72d48e69b416daa",
  "parentHash": "0xa9d590d759a258e69745c96ecdc22636d8cb642347b1b289a43e6a2049a3b0c7",
  "number": 55411,
  "timestamp": 1439070299,
  "nonce": "0x3dab4b75ddb71202",
  "difficulty": 1625036316233,
  "gasLimit": {
    "_hex": "0x2fefd8"
  },
  "gasUsed": {
    "_hex": "0x546c"
  },
  "miner": "0x3F98e477a361F777DA14611a7e419A75Fd238b6b",
  "extraData": "0x476574682f76312e302e312f6c696e75782f676f312e342e32",
  "transactions": [
    {
      "hash": "0xfb3dfa8562b16c9b4b150e328c3853eef84510f682d620709079e823faf5c88b",
      "blockHash": "0xc5eed0973be7ab3ff811dfca012203638f522531922e8392f72d48e69b416daa",
      "blockNumber": 55411,
      "transactionIndex": 0,
      "confirmations": null,
      "from": "0xFEaA6f0a842422DdD202CF41d44eFf708127136e",
      "gasPrice": {
        "_hex": "0x9184e72a000"
      },
      "gasLimit": {
        "_hex": "0x9951f"
      },
      "to": "0x2910543Af39abA0Cd09dBb2D50200b3E800A63D2",
      "value": {
        "_hex": "0x7ce66c50e2840000"
      },
      "nonce": 1,
      "data": "0x454e32544635393930",
      "r": "0x50b2ee51466eec225ccf110dcb101986b280109a758e029af32220ebc391be60",
      "s": "0x88b7c1d015121747bcaac9ba5ce55042fbf054e44932183c14c6bc44ef431fe4",
      "v": 28,
      "creates": null,
      "raw": "0xf877018609184e72a0008309951f942910543af39aba0cd09dbb2d50200b3e800a63d2887ce66c50e284000089454e325446353939301ca050b2ee51466eec225ccf110dcb101986b280109a758e029af32220ebc391be60a088b7c1d015121747bcaac9ba5ce55042fbf054e44932183c14c6bc44ef431fe4",
      "networkId": 0,
      "chainId": 0
    }
  ]
}