{
  "hash": "0x787866d0fda4c50200a4f2246df01d45f872a5f107714d3d62e0bfea369c5c24",
  "parentHash": "0x1e384fc6b8e263af73ba87d891f41781d83d9de0f72b01c61811cbe0563a9edf",
  "number": 77377,
  "timestamp": 1439436139,
  "nonce": "0x90a12c9ab41d924b",
  "difficulty": 2234909422238,
  "gasLimit": {
    "_hex": "0x2fefd8"
  },
  "gasUsed": {
    "_hex": "0x5208"
  },
  "miner": "0x20c6Efe179C293690A5B3375F5bd81c2f07Ed037",
  "extraData": "0x476574682f76312e302e312d38326566323666362f6c696e75782f676f312e34",
  "transactions": [
    {
      "hash": "0x29889d994e9e0bb1047f123c58b92b99213fb0d988eb7306a3130f227de0e563",
      "blockHash": "0x787866d0fda4c50200a4f2246df01d45f872a5f107714d3d62e0bfea369c5c24",
      "blockNumber": 77377,
      "transactionIndex": 0,
      "confirmations": null,
      "from": "0x20134CBFf88bFADc466b52ECEAA79857891d831E",
      "gasPrice": {
        "_hex": "0xcb9e8387b"
      },
      "gasLimit": {
        "_hex": "0x15f90"
      },
      "to": "0xa1D62569c759769351ac0A3265519372B4a40B0f",
      "value": {
        "_hex": "0xb1a2bc2ec50000"
      },
      "nonce": 1,
      "data": "0x",
      "r": "0xdf63b48c83061833ef23946ed8a9da5d5fd7179af22fcbc51946a73973de52f1",
      "s": "0x52fdf3c59fc6e031f2ae0830fc5dfc1b4a2b9ed3f77d4905ea12e9a951107c08",
      "v": 27,
      "creates": null,
      "raw": "0xf86c01850cb9e8387b83015f9094a1d62569c759769351ac0a3265519372b4a40b0f87b1a2bc2ec50000801ba0df63b48c83061833ef23946ed8a9da5d5fd7179af22fcbc51946a73973de52f1a052fdf3c59fc6e031f2ae0830fc5dfc1b4a2b9ed3f77d4905ea12e9a951107c08",
      "networkId": 0,
      "chainId": 0
    }
  ]
}