{
  "hash": "0x056913fb4c3ebe19e571975dd2ded78bbbf64733081f782540f4c3b1424502ea",
  "parentHash": "0x2be3147d2250256e541ebc07acdfec49d493117cac2412d6f7ca5266e73d73ea",
  "number": 74470,
  "timestamp": 1439386466,
  "nonce": "0x0cb611129117680f",
  "difficulty": 2219369224521,
  "gasLimit": {
    "_hex": "0x2fefd8"
  },
  "gasUsed": {
    "_hex": "0x5208"
  },
  "miner": "0x88D74a59454F6cF3B51ef6b9136AFb6b9D405A88",
  "extraData": "0x476574682f76312e302e312d37666266393930632f6c696e75782f676f312e34",
  "transactions": [
    {
      "hash": "0x5777acc1d8c1805002e4dee9009243365726ef04279235ec20353f5b3e94dc85",
      "blockHash": "0x056913fb4c3ebe19e571975dd2ded78bbbf64733081f782540f4c3b1424502ea",
      "blockNumber": 74470,
      "transactionIndex": 0,
      "confirmations": null,
      "from": "0x120A270bbC009644e35F0bB6ab13f95b8199c4ad",
      "gasPrice": {
        "_hex": "0xce6d61e61"
      },
      "gasLimit": {
        "_hex": "0x15f90"
      },
      "to": "0xEB3090f39ca19EB8F97B5969e1F9b7Cd524fFdb7",
      "value": {
        "_hex": "0x61bc7e4481baec00"
      },
      "nonce": 280,
      "data": "0x",
      "r": "0xda0f0b9ee9643773eeca20f9d0c4bc3758011e682866e2e6990b73f0ae34f364",
      "s": "0x62dc3c5bb1e419625f19cc8fd894028e91e7d073daf7a8f9e0709c3190c5be4a",
      "v": 28,
      "creates": null,
      "raw": "0xf86f820118850ce6d61e6183015f9094eb3090f39ca19eb8f97b5969e1f9b7cd524ffdb78861bc7e4481baec00801ca0da0f0b9ee9643773eeca20f9d0c4bc3758011e682866e2e6990b73f0ae34f364a062dc3c5bb1e419625f19cc8fd894028e91e7d073daf7a8f9e0709c3190c5be4a",
      "networkId": 0,
      "chainId": 0
    }
  ]
}