{
  "hash": "0xef87d87cb1421f96f843e49072bfef47580446623bd2e13f0895c2e71bdb70d0",
  "parentHash": "0xa9e39135f9f9569378a97cd730bca97097a3ce39d4adc5ae77f47850fc7b364c",
  "number": 90266,
  "timestamp": 1439637341,
  "nonce": "0x9048b844143b841c",
  "difficulty": 3296301100458,
  "gasLimit": {
    "_hex": "0x2fefd8"
  },
  "gasUsed": {
    "_hex": "0x5208"
  },
  "miner": "0xf927a40C8B7F6E07c5af7FA2155B4864a4112B13",
  "extraData": "0x",
  "transactions": [
    {
      "hash": "0x4162ec6bc6d1ceb770a619116f6efc9a1ae619331bfcd697b199ceba1790891b",
      "blockHash": "0xef87d87cb1421f96f843e49072bfef47580446623bd2e13f0895c2e71bdb70d0",
      "blockNumber": 90266,
      "transactionIndex": 0,
      "confirmations": null,
      "from": "0x2910543Af39abA0Cd09dBb2D50200b3E800A63D2",
      "gasPrice": {
        "_hex": "0xcd866c4f9"
      },
      "gasLimit": {
        "_hex": "0x5208"
      },
      "to": "0xb68c4428193f7F71bA7351366022f0c3E81ca552",
      "value": {
        "_hex": "0x4703d527d959d78000"
      },
      "nonce": 777,
      "data": "0x",
      "r": "0xb7ef521989e87b1951e128a6878b31e199e44064437fd12986a879827b791759",
      "s": "0x2229797801057dcdf5e9ba6af1f284a0b897a9b7fa5e28011ebee9b801d8fa7d",
      "v": 27,
      "creates": null,
      "raw": "0xf86f820309850cd866c4f982520894b68c4428193f7f71ba7351366022f0c3e81ca552894703d527d959d78000801ba0b7ef521989e87b1951e128a6878b31e199e44064437fd12986a879827b791759a02229797801057dcdf5e9ba6af1f284a0b897a9b7fa5e28011ebee9b801d8fa7d",
      "networkId": 0,
      "chainId": 0
    }
  ]
}