{
  "hash": "0xd906c3c93ceda347fa8a3fd6c9e4ba824d53115fa2742e45a62c52e1f3a8dd81",
  "parentHash": "0xe173a237caf57c7f019a57f8d73932a01fdf9976cae40bc36bfeda4162ee2041",
  "number": 67973,
  "timestamp": 1439280502,
  "nonce": "0x48142cd1904c8d14",
  "difficulty": 1949604284982,
  "gasLimit": {
    "_hex": "0x2fefd5"
  },
  "gasUsed": {
    "_hex": "0x5208"
  },
  "miner": "0xe6A7a1d47ff21B6321162AEA7C6CB457D5476Bca",
  "extraData": "0x476574682f76312e302e312d38326566323666362f6c696e75782f676f312e34",
  "transactions": [
    {
      "hash": "0x5f0924e4dad3e3ff66af11c72e0edb9a885a958214546af1f17711366852bba9",
      "blockHash": "0xd906c3c93ceda347fa8a3fd6c9e4ba824d53115fa2742e45a62c52e1f3a8dd81",
      "blockNumber": 67973,
      "transactionIndex": 0,
      "confirmations": null,
      "from": "0x7590eB2dd38Bb8dDDCe3aC7c656992409Ac3E152",
      "gasPrice": {
        "_hex": "0xcc6eeb146"
      },
      "gasLimit": {
        "_hex": "0x15f90"
      },
      "to": "0x608F680cB915b87F83f3d369bBbb796D778c6162",
      "value": {
        "_hex": "0x0"
      },
      "nonce": 0,
      "data": "0x",
      "r": "0x2a4b5bec9d7d8c912d92fd167081ba0d179dc6398691405d12cb7fd98548a884",
      "s": "0x6f4bf7fc5694b7d91d1cc8fdc8085af43c38924d1aefc64dbef3a07dc0359258",
      "v": 28,
      "creates": null,
      "raw": "0xf86580850cc6eeb14683015f9094608f680cb915b87f83f3d369bbbb796d778c616280801ca02a4b5bec9d7d8c912d92fd167081ba0d179dc6398691405d12cb7fd98548a884a06f4bf7fc5694b7d91d1cc8fdc8085af43c38924d1aefc64dbef3a07dc0359258",
      "networkId": 0,
      "chainId": 0
    }
  ]
}