{
  "hash": "0x0344d71c2310913a8ca2fc2c7f08d85c7703c6340a03367bc64f097b2961d67f",
  "parentHash": "0x11c27a49df53ba15100693a723d3c2f53b4ec5013bf262597af31555708119f6",
  "number": 102676,
  "timestamp": 1439841476,
  "nonce": "0x83396ba43cb4e342",
  "difficulty": 4044574193166,
  "gasLimit": {
    "_hex": "0x2fefd8"
  },
  "gasUsed": {
    "_hex": "0xa410"
  },
  "miner": "0xe6A7a1d47ff21B6321162AEA7C6CB457D5476Bca",
  "extraData": "0x476574682f76312e302e312d38326566323666362f6c696e75782f676f312e34",
  "transactions": [
    {
      "hash": "0x14f8f05bd95ea734e802915bf65640d503374dead3e36648a4c886aebecce95a",
      "blockHash": "0x0344d71c2310913a8ca2fc2c7f08d85c7703c6340a03367bc64f097b2961d67f",
      "blockNumber": 102676,
      "transactionIndex": 0,
      "confirmations": null,
      "from": "0xFCE3a5Eaf8a61A99a9C122DbEBB744f65Bed7110",
      "gasPrice": {
        "_hex": "0xdc402266b"
      },
      "gasLimit": {
        "_hex": "0x5208"
      },
      "to": "0x32Be343B94f860124dC4fEe278FDCBD38C102D88",
      "value": {
        "_hex": "0x4b26914c913f8000"
      },
      "nonce": 0,
      "data": "0x",
      "r": "0x245350d91093cdbd00aae9ff461265daa90b63e8983cdbdd27f271be0d8ae425",
      "s": "0x02a7814df0b1b9ebec6728d9b1c4772adc01478cdc342aa3cca865726f3d5ff2",
      "v": 27,
      "creates": null,
      "raw": "0xf86c80850dc402266b8252089432be343b94f860124dc4fee278fdcbd38c102d88884b26914c913f8000801ba0245350d91093cdbd00aae9ff461265daa90b63e8983cdbdd27f271be0d8ae425a002a7814df0b1b9ebec6728d9b1c4772adc01478cdc342aa3cca865726f3d5ff2",
      "networkId": 0,
      "chainId": 0
    },
    {
      "hash": "0xe88b0593005e38bac381ee48d6c4d2e4ade7735a227e4d6f74dcd46706d908ca",
      "blockHash": "0x0344d71c2310913a8ca2fc2c7f08d85c7703c6340a03367bc64f097b2961d67f",
      "blockNumber": 102676,
      "transactionIndex": 1,
      "confirmations": null,
      "from": "0x55D1554b08a5311C5c0A0B6464162192f9D2f884",
      "gasPrice": {
        "_hex": "0xdb2816147"
      },
      "gasLimit": {
        "_hex": "0x5208"
      },
      "to": "0x96dadE6c87E483acb081E9f669B4fc029a440E8B",
      "value": {
        "_hex": "0xde0b6b3a7640000"
      },
      "nonce": 3,
      "data": "0x",
      "r": "0xb0e2524775b8c7e58c9d078d72a99d66866d0f12c797ab4856c18af3db487397",
      "s": "0x65a9e626c8a0140668f5229d3cce5f4d2103c0f52287126a5c8cd301b73869bd",
      "v": 28,
      "creates": null,
      "raw": "0xf86c03850db28161478252089496dade6c87e483acb081e9f669b4fc029a440e8b880de0b6b3a7640000801ca0b0e2524775b8c7e58c9d078d72a99d66866d0f12c797ab4856c18af3db487397a065a9e626c8a0140668f5229d3cce5f4d2103c0f52287126a5c8cd301b73869bd",
      "networkId": 0,
      "chainId": 0
    }
  ]
}