{
  "hash": "0xf32aee9235b42d510a5e37c1276d95b4e59430a65207a5ca5e9de884326b3b1a",
  "parentHash": "0x8e221e19079759384a867613a75d24d19783504937d044da062735cc507c983d",
  "number": 73160,
  "timestamp": 1439364093,
  "nonce": "0xf077953e78bf8b90",
  "difficulty": 2219715837576,
  "gasLimit": {
    "_hex": "0x2fefd5"
  },
  "gasUsed": {
    "_hex": "0xcc72"
  },
  "miner": "0xbb7B8287f3F0a933474a79eAe42CBCa977791171",
  "extraData": "0x476574682f4c5649562f76312e302e312f6c696e75782f676f312e342e32",
  "transactions": [
    {
      "hash": "0xe6dada9473972b5a63cda73babe23ac74b7991b950fe26c3e2bc3af13e57cbfd",
      "blockHash": "0xf32aee9235b42d510a5e37c1276d95b4e59430a65207a5ca5e9de884326b3b1a",
      "blockNumber": 73160,
      "transactionIndex": 0,
      "confirmations": null,
      "from": "0x1308A2e95c0160B90803ddCA9B9a5bb55E416d79",
      "gasPrice": {
        "_hex": "0x9184e72a000"
      },
      "gasLimit": {
        "_hex": "0x15f90"
      },
      "to": "0xEc9b67906b635f81B898606a3518EA3f5726b130",
      "value": {
        "_hex": "0x17fcebcd88d65a00000"
      },
      "nonce": 119,
      "data": "0x",
      "r": "0x0c387d7361f1695583296ad0a3859388878aa6f2581ad47dd24e8de471cbce78",
      "s": "0x02e7e3a2d422ef79c17ed62a23303b428c30ef1c16ae764daf3a52edc93aa67e",
      "v": 27,
      "creates": null,
      "raw": "0xf870778609184e72a00083015f9094ec9b67906b635f81b898606a3518ea3f5726b1308a017fcebcd88d65a00000801ba00c387d7361f1695583296ad0a3859388878aa6f2581ad47dd24e8de471cbce78a002e7e3a2d422ef79c17ed62a23303b428c30ef1c16ae764daf3a52edc93aa67e",
      "networkId": 0,
      "chainId": 0
    },
    {
      "hash": "0x655ff2a8f44cbf6185f56376e15e6b3a212f7baa4c9cc035fc9d47b01e35a0b5",
      "blockHash": "0xf32aee9235b42d510a5e37c1276d95b4e59430a65207a5ca5e9de884326b3b1a",
      "blockNumber": 73160,
      "transactionIndex": 1,
      "confirmations": null,
      "from": "0xD1826373C4E0938f0b4302B40324f7f9c546492C",
      "gasPrice": {
        "_hex": "0xcebbd46d5"
      },
      "gasLimit": {
        "_hex": "0x30d40"
      },
      "to": "0x3e4Bd3AEA13f59b9502073b7a03Cfb52ECecc997",
      "value": {
        "_hex": "0x71afd498d0000"
      },
      "nonce": 0,
      "data": "0x",
      "r": "0x2f202a31dc4af46c35357ffd841af5d5c2dfe39dd1b31f1ac743c2c87c4cedde",
      "s": "0x2bd2fd6d628b9bbc6fb657fc3a3a301f8c5d2184f9e07b68ccc79391b26f0a84",
      "v": 27,
      "creates": null,
      "raw": "0xf86c80850cebbd46d583030d40943e4bd3aea13f59b9502073b7a03cfb52ececc99787071afd498d0000801ba02f202a31dc4af46c35357ffd841af5d5c2dfe39dd1b31f1ac743c2c87c4ceddea02bd2fd6d628b9bbc6fb657fc3a3a301f8c5d2184f9e07b68ccc79391b26f0a84",
      "networkId": 0,
      "chainId": 0
    }
  ]
}