{
  "hash": "0xdfdb137e776487eef8543a547bd6fecc2246151e831fb21b6e10ec8c32ddffa9",
  "parentHash": "0x4fd3f7c9c5309682f593440b218ede171090b3be5cd3210c06624fdb2901bcc1",
  "number": 63324,
  "timestamp": 1439202596,
  "nonce": "0x54a5efecdf62f832",
  "difficulty": 1822682881100,
  "gasLimit": {
    "_hex": "0x2fefd8"
  },
  "gasUsed": {
    "_hex": "0x546c"
  },
  "miner": "0x688d4CACaCCc92e6914549710594BC6aa994F569",
  "extraData": "0x476574682f76312e302e312d38326566323666362f6c696e75782f676f312e34",
  "transactions": [
    {
      "hash": "0x550aa550a5481d5990925c88c951b4062ac01e0bfed8c44c5470fbc2eb4ed7a3",
      "blockHash": "0xdfdb137e776487eef8543a547bd6fecc2246151e831fb21b6e10ec8c32ddffa9",
      "blockNumber": 63324,
      "transactionIndex": 0,
      "confirmations": null,
      "from": "0xAFe1985fd7FFF4cD6c2370b2BdA170DE647c125d",
      "gasPrice": {
        "_hex": "0xd70a86b79"
      },
      "gasLimit": {
        "_hex": "0x55f0"
      },
      "to": "0x2910543Af39abA0Cd09dBb2D50200b3E800A63D2",
      "value": {
        "_hex": "0x1740b41fa4481dc0000"
      },
      "nonce": 1,
      "data": "0x454e5946594a515a30",
      "r": "0x0a169e55d37f50aeb632e7b9e753806c13aa7b717eead5891475f63b8469401b",
      "s": "0x415321de06500607cfc8820b14f8aecb6547c9c7b8123599405ad47a0f039a7b",
      "v": 28,
      "creates": null,
      "raw": "0xf87701850d70a86b798255f0942910543af39aba0cd09dbb2d50200b3e800a63d28a01740b41fa4481dc000089454e5946594a515a301ca00a169e55d37f50aeb632e7b9e753806c13aa7b717eead5891475f63b8469401ba0415321de06500607cfc8820b14f8aecb6547c9c7b8123599405ad47a0f039a7b",
      "networkId": 0,
      "chainId": 0
    }
  ]
}