{
  "hash": "0xa13176a7ac646db7599e4672469a77880504eaacb74cd7c0ca53b3f0a1d65468",
  "parentHash": "0xcf8ae6e3ee69f9dffc57a17bbe08970fb776ca681c2babebe17467c225390a4c",
  "number": 120974,
  "timestamp": 1440169293,
  "nonce": "0xd43696e5b27fe6ce",
  "difficulty": 4415136464246,
  "gasLimit": {
    "_hex": "0x2fefd8"
  },
  "gasUsed": {
    "_hex": "0x5208"
  },
  "miner": "0x608f4b86321a68453f9adf6F06F7Fc3E621739ad",
  "extraData": "0xd783010002844765746887676f312e342e32856c696e7578",
  "transactions": [
    {
      "hash": "0x9e18100c5f415d1e53627da22314f9a9ab7786552bc435e7a7be4698c4523b73",
      "blockHash": "0xa13176a7ac646db7599e4672469a77880504eaacb74cd7c0ca53b3f0a1d65468",
      "blockNumber": 120974,
      "transactionIndex": 0,
      "confirmations": null,
      "from": "0x8Bf770A8F2F4cCa135f0699F96f4FB1CEb9c44c9",
      "gasPrice": {
        "_hex": "0xd7d40ace3"
      },
      "gasLimit": {
        "_hex": "0x15f90"
      },
      "to": "0x13aE5B35f82651Ff327d41502F0Aa90DA76D777E",
      "value": {
        "_hex": "0x4563918244f40000"
      },
      "nonce": 5,
      "data": "0x",
      "r": "0x81c4c74538d6f268f7a590a45d4c283d9f5d39ae0c0e61a073cfd4ffe488029c",
      "s": "0x126f0fe957b7459a3c25f9fda365ac304b778fedd3dc1413d934eb8569e91370",
      "v": 28,
      "creates": null,
      "raw": "0xf86d05850d7d40ace383015f909413ae5b35f82651ff327d41502f0aa90da76d777e884563918244f40000801ca081c4c74538d6f268f7a590a45d4c283d9f5d39ae0c0e61a073cfd4ffe488029ca0126f0fe957b7459a3c25f9fda365ac304b778fedd3dc1413d934eb8569e91370",
      "networkId": 0,
      "chainId": 0
    }
  ]
}