{
  "hash": "0x4cbcf9ec2e1088c8c60bc37e0073455ad6bb424256ce9e41b5a73614630262f6",
  "parentHash": "0xe4afcbfb2dc4438d53cbe6c9e9488807b307c24cea148f93b7638cd4733163e7",
  "number": 52679,
  "timestamp": 1439025477,
  "nonce": "0x781549883ad3a420",
  "difficulty": 1572477995494,
  "gasLimit": {
    "_hex": "0x1793ad"
  },
  "gasUsed": {
    "_hex": "0x16e360"
  },
  "miner": "0xe6A7a1d47ff21B6321162AEA7C6CB457D5476Bca",
  "extraData": "0x657468706f6f6c2e6f7267",
  "transactions": [
    {
      "hash": "0xaab32c1bfc06350842d71f53a42c73f187516b2adfbfd515d609eed4ee19d867",
      "blockHash": "0x4cbcf9ec2e1088c8c60bc37e0073455ad6bb424256ce9e41b5a73614630262f6",
      "blockNumber": 52679,
      "transactionIndex": 0,
      "confirmations": null,
      "from": "0x54dAeb3E8a6BBC797E4aD2b0339f134b186e4637",
      "gasPrice": {
        "_hex": "0xdf4ba21f9"
      },
      "gasLimit": {
        "_hex": "0x7a120"
      },
      "to": "0xBAA54d6E90c3F4d7Ebec11bD180134C7eD8eBb52",
      "value": {
        "_hex": "0x16345785d8a0000"
      },
      "nonce": 918,
      "data": "0x",
      "r": "0x6a10440c40ac3eeecf40ccf70327b84a48299ae6bd6baad3fd4bc5b6e3607bcd",
      "s": "0x234e418c075c9f962d0b58d7494075787d3200fef1a433fbb6143584961f9750",
      "v": 27,
      "creates": null,
      "raw": "0xf86f820396850df4ba21f98307a12094baa54d6e90c3f4d7ebec11bd180134c7ed8ebb5288016345785d8a0000801ba06a10440c40ac3eeecf40ccf70327b84a48299ae6bd6baad3fd4bc5b6e3607bcda0234e418c075c9f962d0b58d7494075787d3200fef1a433fbb6143584961f9750",
      "networkId": 0,
      "chainId": 0
    },
    {
      "hash": "0xb5e9be2e8711030c98ee5eee5d4c9da9d5c0bd5aae1ee228b5fd6bea4c71277c",
      "blockHash": "0x4cbcf9ec2e1088c8c60bc37e0073455ad6bb424256ce9e41b5a73614630262f6",
      "blockNumber": 52679,
      "transactionIndex": 1,
      "confirmations": null,
      "from": "0x54dAeb3E8a6BBC797E4aD2b0339f134b186e4637",
      "gasPrice": {
        "_hex": "0xd8bd64e50"
      },
      "gasLimit": {
        "_hex": "0x7a120"
      },
      "to": "0xBAA54d6E90c3F4d7Ebec11bD180134C7eD8eBb52",
      "value": {
        "_hex": "0x16345785d8a0000"
      },
      "nonce": 919,
      "data": "0x",
      "r": "0xe47a679c285b31c49fb8aae23bb3ec55aca1e6daa26891e44c631b0d39a2b0af",
      "s": "0x0e2b4199e810d32df469f258015ef7366e6d4c2b78bf0b73d3d28a2e267cb05c",
      "v": 27,
      "creates": null,
      "raw": "0xf86f820397850d8bd64e508307a12094baa54d6e90c3f4d7ebec11bd180134c7ed8ebb5288016345785d8a0000801ba0e47a679c285b31c49fb8aae23bb3ec55aca1e6daa26891e44c631b0d39a2b0afa00e2b4199e810d32df469f258015ef7366e6d4c2b78bf0b73d3d28a2e267cb05c",
      "networkId": 0,
      "chainId": 0
    },
    {
      "hash": "0x0e236cbb552945960d805453015932b8ad6391f6f11af222c01a1b9b08e12f57",
      "blockHash": "0x4cbcf9ec2e1088c8c60bc37e0073455ad6bb424256ce9e41b5a73614630262f6",
      "blockNumber": 52679,
      "transactionIndex": 2,
      "confirmations": null,
      "from": "0x54dAeb3E8a6BBC797E4aD2b0339f134b186e4637",
      "gasPrice": {
        "_hex": "0xdada9c769"
      },
      "gasLimit": {
        "_hex": "0x7a120"
      },
      "to": "0xBAA54d6E90c3F4d7Ebec11bD180134C7eD8eBb52",
      "value": {
        "_hex": "0x16345785d8a0000"
      },
      "nonce": 920,
      "data": "0x",
      "r": "0x34d6ef128349d6662a57bc3d044600ebee2b3638861244797d7e19d2a37f1d6c",
      "s": "0x4be1c751d6e65493a4a3cd49c6810bac58092541dae16f42eaeede30126c9536",
      "v": 27,
      "creates": null,
      "raw": "0xf86f820398850dada9c7698307a12094baa54d6e90c3f4d7ebec11bd180134c7ed8ebb5288016345785d8a0000801ba034d6ef128349d6662a57bc3d044600ebee2b3638861244797d7e19d2a37f1d6ca04be1c751d6e65493a4a3cd49c6810bac58092541dae16f42eaeede30126c9536",
      "networkId": 0,
      "chainId": 0
    }
  ]
}