{
  "hash": "0x155b6a077877f283a835d5447cf5c1a4cbd2101d8fdf53b3354a120fe1279682",
  "parentHash": "0x5c31147c7cc5eba2d082292d1f4e6f5802daaeb26b85f1b349fc636a2bc90650",
  "number": 50406,
  "timestamp": 1438988742,
  "nonce": "0x21aec29439c1c5ce",
  "difficulty": 1511908703348,
  "gasLimit": {
    "_hex": "0x609ae"
  },
  "gasUsed": {
    "_hex": "0x5208"
  },
  "miner": "0x9746c7e1ef2bd21FF3997fa467593a89cb852BD0",
  "extraData": "0x476574682f76312e302e312f77696e646f77732f676f312e342e32",
  "transactions": [
    {
      "hash": "0x374285a7813401dad0c3147c943f9030dadd277fc2481069cb9de2b39f86b88b",
      "blockHash": "0x155b6a077877f283a835d5447cf5c1a4cbd2101d8fdf53b3354a120fe1279682",
      "blockNumber": 50406,
      "transactionIndex": 0,
      "confirmations": null,
      "from": "0xF10661FF94140F203E7A482572437938BEc9C3F7",
      "gasPrice": {
        "_hex": "0xd46579fca"
      },
      "gasLimit": {
        "_hex": "0x15f90"
      },
      "to": "0xa14Cf6cEC1c6aAe4b608458F6e14692863A937Aa",
      "value": {
        "_hex": "0xad78ebc5ac6200000"
      },
      "nonce": 0,
      "data": "0x",
      "r": "0x963168b7da3e9eacb16a4fecc2b536860c659d8323d798cbe32f493ed85a2b41",
      "s": "0x58d2ceda766ab72ab28f9c28d1cac6259594e25fe4494635c92ea108ef2556ef",
      "v": 27,
      "creates": null,
      "raw": "0xf86e80850d46579fca83015f9094a14cf6cec1c6aae4b608458f6e14692863a937aa890ad78ebc5ac6200000801ba0963168b7da3e9eacb16a4fecc2b536860c659d8323d798cbe32f493ed85a2b41a058d2ceda766ab72ab28f9c28d1cac6259594e25fe4494635c92ea108ef2556ef",
      "networkId": 0,
      "chainId": 0
    }
  ]
}