{
  "hash": "0x6dabb9ad0400a84b890f78ae6bf0112cc0250846b08533d5bacc2eeaa4ee72ab",
  "parentHash": "0x17f006dcdfca8752efe55ad4e7edd6ef4d9896a5b5cc59abc4c749f9afa1d484",
  "number": 97404,
  "timestamp": 1439755461,
  "nonce": "0xabfbad4be14f25a4",
  "difficulty": 3816794729403,
  "gasLimit": {
    "_hex": "0x2fefd8"
  },
  "gasUsed": {
    "_hex": "0x8d2f"
  },
  "miner": "0x3E19FcE1f1905c574a913E7484E854df61072e1b",
  "extraData": "0x476574682f76312e302e312f77696e646f77732f676f312e342e32",
  "transactions": [
    {
      "hash": "0x46f2ca2baa435c981390c55716f3fd14a3e089ef2c8b1f05d3902687e165b089",
      "blockHash": "0x6dabb9ad0400a84b890f78ae6bf0112cc0250846b08533d5bacc2eeaa4ee72ab",
      "blockNumber": 97404,
      "transactionIndex": 0,
      "confirmations": null,
      "from": "0x514B7512C9aE5Ea63cBF11715b63f21E18d296C1",
      "gasPrice": {
        "_hex": "0x110c8f7d8de"
      },
      "gasLimit": {
        "_hex": "0xc350"
      },
      "to": "0x2910543Af39abA0Cd09dBb2D50200b3E800A63D2",
      "value": {
        "_hex": "0x104280f0d98aaa0000"
      },
      "nonce": 0,
      "data": "0x454e37415555584247",
      "r": "0xbd71a6cd1567a1ea9291ac9e280a1cb587da44c8ff5aaeed980ec6a5ad31f767",
      "s": "0xa2ced113941184ab3a6017370ce7480a126b0b4aa84f2e4819562825d23b6108",
      "v": 27,
      "creates": null,
      "raw": "0xf87780860110c8f7d8de82c350942910543af39aba0cd09dbb2d50200b3e800a63d289104280f0d98aaa000089454e374155555842471ba0bd71a6cd1567a1ea9291ac9e280a1cb587da44c8ff5aaeed980ec6a5ad31f767a0a2ced113941184ab3a6017370ce7480a126b0b4aa84f2e4819562825d23b6108",
      "networkId": 0,
      "chainId": 0
    },
    {
      "hash": "0xd43f3120d6dbc52644f18df106e6b2addb60feff222424f9d7925add0509e82a",
      "blockHash": "0x6dabb9ad0400a84b890f78ae6bf0112cc0250846b08533d5bacc2eeaa4ee72ab",
      "blockNumber": 97404,
      "transactionIndex": 1,
      "confirmations": null,
      "from": "0xa14Cf6cEC1c6aAe4b608458F6e14692863A937Aa",
      "gasPrice": {
        "_hex": "0xe0dd02471"
      },
      "gasLimit": {
        "_hex": "0x15f90"
      },
      "to": "0x580E45f982a0A01cFab3B36B3Ec8Df63fcc5D290",
      "value": {
        "_hex": "0x0"
      },
      "nonce": 30,
      "data": "0x41c0e1b5",
      "r": "0x3268af9e2b639775f540837a3300177c2e6553580ad3d4bfc3592426e358536f",
      "s": "0x5971a025fad1f030476d71f2566590b4be29db50dabf8ec473c8708a27c96888",
      "v": 28,
      "creates": null,
      "raw": "0xf8691e850e0dd0247183015f9094580e45f982a0a01cfab3b36b3ec8df63fcc5d290808441c0e1b51ca03268af9e2b639775f540837a3300177c2e6553580ad3d4bfc3592426e358536fa05971a025fad1f030476d71f2566590b4be29db50dabf8ec473c8708a27c96888",
      "networkId": 0,
      "chainId": 0
    }
  ]
}