{
  "hash": "0xd04dd6433321c4dc9a8593b6dad5ed667f09b6469446c93cb5d10ba85e2441f9",
  "parentHash": "0x4a81ce1f128dfb1177d73ac8c860ec375358aeae3b4c00366ba00a19569bed10",
  "number": 53919,
  "timestamp": 1439045769,
  "nonce": "0x3db2520047597adc",
  "difficulty": 1600127035085,
  "gasLimit": {
    "_hex": "0x2fefd8"
  },
  "gasUsed": {
    "_hex": "0x19c8c"
  },
  "miner": "0xf927a40C8B7F6E07c5af7FA2155B4864a4112B13",
  "extraData": "0x476574682f76312e302e312f6c696e75782f676f312e342e32",
  "transactions": [
    {
      "hash": "0xcd60e4d8c8a208d29d46c2c002d5344a4a53b314ed415b2733584076ab86e813",
      "blockHash": "0xd04dd6433321c4dc9a8593b6dad5ed667f09b6469446c93cb5d10ba85e2441f9",
      "blockNumber": 53919,
      "transactionIndex": 0,
      "confirmations": null,
      "from": "0x64CF897D51472Dc7CfF0e6368EB15B9e2d5168E3",
      "gasPrice": {
        "_hex": "0x9184e72a000"
      },
      "gasLimit": {
        "_hex": "0x99403"
      },
      "to": "0x2910543Af39abA0Cd09dBb2D50200b3E800A63D2",
      "value": {
        "_hex": "0xde0b6b3a7640000"
      },
      "nonce": 4,
      "data": "0x454e35583543414430",
      "r": "0x074e7766dd75cf898ff7f210dfa65ff8d109f67c4a1ca0ebd6855afafbc3e357",
      "s": "0x189cb523f92b4661a74b3b042d2972af6a3cbcf0f11bc1eccd7da6b52c92c68b",
      "v": 28,
      "creates": null,
      "raw": "0xf877048609184e72a00083099403942910543af39aba0cd09dbb2d50200b3e800a63d2880de0b6b3a764000089454e355835434144301ca0074e7766dd75cf898ff7f210dfa65ff8d109f67c4a1ca0ebd6855afafbc3e357a0189cb523f92b4661a74b3b042d2972af6a3cbcf0f11bc1eccd7da6b52c92c68b",
      "networkId": 0,
      "chainId": 0
    },
    {
      "hash": "0xfd6cd5d25e662d70a39ff81eb30f866833e7bd7b6f75cc9880bbbedac05a1d8c",
      "blockHash": "0xd04dd6433321c4dc9a8593b6dad5ed667f09b6469446c93cb5d10ba85e2441f9",
      "blockNumber": 53919,
      "transactionIndex": 1,
      "confirmations": null,
      "from": "0x32Be343B94f860124dC4fEe278FDCBD38C102D88",
      "gasPrice": {
        "_hex": "0xd5bf4b539"
      },
      "gasLimit": {
        "_hex": "0x5208"
      },
      "to": "0xD6CBc00b3ECFF6E48a1106fEaf62f77C4F52E465",
      "value": {
        "_hex": "0x4b56f8d644a4000"
      },
      "nonce": 39,
      "data": "0x",
      "r": "0x6393dec7922a1bf4e0e2127b6f394ec5d684acc78190fe04e81fb313cd168a2b",
      "s": "0x6d6c9ea9eac71eb45540fe8183a0fa668a81fb8b296788e2f07d697461eb6f83",
      "v": 27,
      "creates": null,
      "raw": "0xf86c27850d5bf4b53982520894d6cbc00b3ecff6e48a1106feaf62f77c4f52e4658804b56f8d644a4000801ba06393dec7922a1bf4e0e2127b6f394ec5d684acc78190fe04e81fb313cd168a2ba06d6c9ea9eac71eb45540fe8183a0fa668a81fb8b296788e2f07d697461eb6f83",
      "networkId": 0,
      "chainId": 0
    },
    {
      "hash": "0x3dedac077013fe90e1d7e5e84207afc1ed0f5ce13ad089a47a160d8c6f43e735",
      "blockHash": "0xd04dd6433321c4dc9a8593b6dad5ed667f09b6469446c93cb5d10ba85e2441f9",
      "blockNumber": 53919,
      "transactionIndex": 2,
      "confirmations": null,
      "from": "0x32Be343B94f860124dC4fEe278FDCBD38C102D88",
      "gasPrice": {
        "_hex": "0xd5bf4b539"
      },
      "gasLimit": {
        "_hex": "0x5208"
      },
      "to": "0xD6CBc00b3ECFF6E48a1106fEaf62f77C4F52E465",
      "value": {
        "_hex": "0x1e2d1d5f8927c0000"
      },
      "nonce": 40,
      "data": "0x",
      "r": "0x7247a8b394fab236181421036d7d7d1c02f6077b2645758d08bb2857be5d0ac8",
      "s": "0x02a86516dedb226d425fd6755b843e8d0e30a443421a971a235fe848bde12174",
      "v": 28,
      "creates": null,
      "raw": "0xf86d28850d5bf4b53982520894d6cbc00b3ecff6e48a1106feaf62f77c4f52e4658901e2d1d5f8927c0000801ca07247a8b394fab236181421036d7d7d1c02f6077b2645758d08bb2857be5d0ac8a002a86516dedb226d425fd6755b843e8d0e30a443421a971a235fe848bde12174",
      "networkId": 0,
      "chainId": 0
    },
    {
      "hash": "0x8a52cce5985fbe86068a3c33ddfe631f0a152542ff40507e9d46db90888d227b",
      "blockHash": "0xd04dd6433321c4dc9a8593b6dad5ed667f09b6469446c93cb5d10ba85e2441f9",
      "blockNumber": 53919,
      "transactionIndex": 3,
      "confirmations": null,
      "from": "0xF87481A262E993a75F791E7859E71BaC36A606Eb",
      "gasPrice": {
        "_hex": "0xd5bf4b539"
      },
      "gasLimit": {
        "_hex": "0x5208"
      },
      "to": "0x32Be343B94f860124dC4fEe278FDCBD38C102D88",
      "value": {
        "_hex": "0x2c3c013d14cbc6000"
      },
      "nonce": 1,
      "data": "0x",
      "r": "0x341ba33aa5a05a34e24e9d26305dad54a608ea4218ae1b835a827dd082fea513",
      "s": "0x5a157c26109609e5979391109b905326d45b33008089a2fee424d72a0fe02c9d",
      "v": 27,
      "creates": null,
      "raw": "0xf86d01850d5bf4b5398252089432be343b94f860124dc4fee278fdcbd38c102d888902c3c013d14cbc6000801ba0341ba33aa5a05a34e24e9d26305dad54a608ea4218ae1b835a827dd082fea513a05a157c26109609e5979391109b905326d45b33008089a2fee424d72a0fe02c9d",
      "networkId": 0,
      "chainId": 0
    },
    {
      "hash": "0xe48ac02ce4452771774d32474399b5e90c4545748baeab4cf3412fd17a6b5b2a",
      "blockHash": "0xd04dd6433321c4dc9a8593b6dad5ed667f09b6469446c93cb5d10ba85e2441f9",
      "blockNumber": 53919,
      "transactionIndex": 4,
      "confirmations": null,
      "from": "0x32Be343B94f860124dC4fEe278FDCBD38C102D88",
      "gasPrice": {
        "_hex": "0xd5bf4b539"
      },
      "gasLimit": {
        "_hex": "0x5208"
      },
      "to": "0x8E1372aB42e7495276e7b0b5e785e8ed59111C0a",
      "value": {
        "_hex": "0x8aa39c121a270000"
      },
      "nonce": 41,
      "data": "0x",
      "r": "0x1cd967904a86358143f5c5ac31320a21483a422ed29e55ad1daddae5c6b85c03",
      "s": "0x34afe2d947f0c1e6ccf3d3d1f369695d47e267d06c2bc2a95a53cc0332b2b230",
      "v": 28,
      "creates": null,
      "raw": "0xf86c29850d5bf4b539825208948e1372ab42e7495276e7b0b5e785e8ed59111c0a888aa39c121a270000801ca01cd967904a86358143f5c5ac31320a21483a422ed29e55ad1daddae5c6b85c03a034afe2d947f0c1e6ccf3d3d1f369695d47e267d06c2bc2a95a53cc0332b2b230",
      "networkId": 0,
      "chainId": 0
    }
  ]
}