{
  "hash": "0x46aa2edbf81fa28554899a1dfb5ba3319f38f8dd4cb150632fcaec35a6f3434b",
  "parentHash": "0x13f0e830a6ecf7b9d19cc2eeb96749dfc698122bac426bddfe3a2c3f5cf773ea",
  "number": 121024,
  "timestamp": 1440170094,
  "nonce": "0xbc1f850f6a8a3490",
  "difficulty": 4436721022778,
  "gasLimit": {
    "_hex": "0x2fefd8"
  },
  "gasUsed": {
    "_hex": "0xa410"
  },
  "miner": "0xe6A7a1d47ff21B6321162AEA7C6CB457D5476Bca",
  "extraData": "0xd783010002844765746887676f312e342e32856c696e7578",
  "transactions": [
    {
      "hash": "0x4acdb37645d00fab02e47e649c59f1c8996c74afbba0511504732e443acbaeef",
      "blockHash": "0x46aa2edbf81fa28554899a1dfb5ba3319f38f8dd4cb150632fcaec35a6f3434b",
      "blockNumber": 121024,
      "transactionIndex": 0,
      "confirmations": null,
      "from": "0x9E1B8Bfe4062F4fA08C9fb5eD4A4Ae55425a7EB1",
      "gasPrice": {
        "_hex": "0xd4dfa5aef"
      },
      "gasLimit": {
        "_hex": "0x15f90"
      },
      "to": "0x7c6897BD0D449a5E3905a70F25FF1810E993a9Ec",
      "value": {
        "_hex": "0x2386f26fc10000"
      },
      "nonce": 0,
      "data": "0x",
      "r": "0x2d81133de877ce26ac57e862b435beead1c0cd904a4a0b21a3d17a42bb267382",
      "s": "0x145c6b31dd47d604d6ea3f86c66c18e2eb70622243580e72021d64e6cf54eaa6",
      "v": 28,
      "creates": null,
      "raw": "0xf86c80850d4dfa5aef83015f90947c6897bd0d449a5e3905a70f25ff1810e993a9ec872386f26fc10000801ca02d81133de877ce26ac57e862b435beead1c0cd904a4a0b21a3d17a42bb267382a0145c6b31dd47d604d6ea3f86c66c18e2eb70622243580e72021d64e6cf54eaa6",
      "networkId": 0,
      "chainId": 0
    },
    {
      "hash": "0x8e3577bf5c6f18a6708c09089071dbf713faaedd268ebc6ddd9c63b296e2be35",
      "blockHash": "0x46aa2edbf81fa28554899a1dfb5ba3319f38f8dd4cb150632fcaec35a6f3434b",
      "blockNumber": 121024,
      "transactionIndex": 1,
      "confirmations": null,
      "from": "0xC603Ab5ef41fC61AA8b76bEddb09e3Cfcbb174BD",
      "gasPrice": {
        "_hex": "0xba43b7400"
      },
      "gasLimit": {
        "_hex": "0x15f90"
      },
      "to": "0x8F79f76381Aad7B98C19aF55eE75fdfEeb012211",
      "value": {
        "_hex": "0x12ae49223b1f9c0000"
      },
      "nonce": 45,
      "data": "0x",
      "r": "0x509363c67b7b65a60bd1e883e594c2cced0efd6bd61106ddab3b5888a5493d76",
      "s": "0x614ab951f0588fbd841d457f24c5b240e11e38734c6b0c800c5c3f8c05dbb4bc",
      "v": 28,
      "creates": null,
      "raw": "0xf86e2d850ba43b740083015f90948f79f76381aad7b98c19af55ee75fdfeeb0122118912ae49223b1f9c0000801ca0509363c67b7b65a60bd1e883e594c2cced0efd6bd61106ddab3b5888a5493d76a0614ab951f0588fbd841d457f24c5b240e11e38734c6b0c800c5c3f8c05dbb4bc",
      "networkId": 0,
      "chainId": 0
    }
  ]
}