{
  "hash": "0x179a70f186b7b8b1eac9632888597123ce2dfb612a06f97a7be4f867204d2c9a",
  "parentHash": "0x6afc12ce5871070ada4aee37985d98b07bc25592e58bc5dd735c92164c326e31",
  "number": 51630,
  "timestamp": 1439008161,
  "nonce": "0xe19764a1f5673c9e",
  "difficulty": 1558151873129,
  "gasLimit": {
    "_hex": "0xc7b0e"
  },
  "gasUsed": {
    "_hex": "0x7a120"
  },
  "miner": "0xeB1325C8D9d3ea8D74aC11F4B00F1B2367686319",
  "extraData": "0x476574682f76312e302e312f77696e646f77732f676f312e342e32",
  "transactions": [
    {
      "hash": "0x6351c42132d5cbc349499ec5d443b4b80c436c62f05685e532cc00d25761f07a",
      "blockHash": "0x179a70f186b7b8b1eac9632888597123ce2dfb612a06f97a7be4f867204d2c9a",
      "blockNumber": 51630,
      "transactionIndex": 0,
      "confirmations": null,
      "from": "0xFCf9f6A78f06227522c6f948ec0119dA31680Ef7",
      "gasPrice": {
        "_hex": "0xdc4b653f2"
      },
      "gasLimit": {
        "_hex": "0x7a120"
      },
      "to": "0x109C4f2CCc82C4d77Bde15F306707320294Aea3F",
      "value": {
        "_hex": "0xde0b6b3a7640000"
      },
      "nonce": 38,
      "data": "0x",
      "r": "0xac04ce51338481031e85f14801a0195144025e0fc9729cc609c1c16d6409864f",
      "s": "0x2fb344f32fdd56de701cb190fb08c86683028c3b86528875dd553c76fd5d51ac",
      "v": 28,
      "creates": null,
      "raw": "0xf86d26850dc4b653f28307a12094109c4f2ccc82c4d77bde15f306707320294aea3f880de0b6b3a7640000801ca0ac04ce51338481031e85f14801a0195144025e0fc9729cc609c1c16d6409864fa02fb344f32fdd56de701cb190fb08c86683028c3b86528875dd553c76fd5d51ac",
      "networkId": 0,
      "chainId": 0
    }
  ]
}