{
  "hash": "0x9a9e7d3e39f7cb145a52d80f150487b37e145f341050a20695145b67f50a9532",
  "parentHash": "0xf25e0720f130b7b851cb69f00ba98039b2121c36bd33151bcfd6a8b4bbdf85cc",
  "number": 104718,
  "timestamp": 1439874284,
  "nonce": "0x920c713cc2295427",
  "difficulty": 4363631978370,
  "gasLimit": {
    "_hex": "0x2fefd8"
  },
  "gasUsed": {
    "_hex": "0x1bdbe"
  },
  "miner": "0x623d2411c3bb3340784155F9a688b0085251aB5c",
  "extraData": "0x",
  "transactions": [
    {
      "hash": "0x09bd454e32c8220489a4ee4ef8a77098be59e40f303fb04239892eb893201edc",
      "blockHash": "0x9a9e7d3e39f7cb145a52d80f150487b37e145f341050a20695145b67f50a9532",
      "blockNumber": 104718,
      "transactionIndex": 0,
      "confirmations": null,
      "from": "0xab265e840933431739e8BE901b21785AAb7d28bE",
      "gasPrice": {
        "_hex": "0xd641f460d"
      },
      "gasLimit": {
        "_hex": "0x249f0"
      },
      "to": "0xE28e72FCf78647ADCe1F1252F240bbfaebD63BcC",
      "value": {
        "_hex": "0x8ac7230489e80000"
      },
      "nonce": 4,
      "data": "0x45466f3a",
      "r": "0x13ace003921892b84d6cbc58fbbb67cf0fdd88ef2d19292d0047d2fb281db2e1",
      "s": "0x6f0d4a0e10fe5bb48d3c5baf8e23443a5ea3a7e519e6dffa24ecc083e93d1820",
      "v": 27,
      "creates": null,
      "raw": "0xf87104850d641f460d830249f094e28e72fcf78647adce1f1252f240bbfaebd63bcc888ac7230489e800008445466f3a1ba013ace003921892b84d6cbc58fbbb67cf0fdd88ef2d19292d0047d2fb281db2e1a06f0d4a0e10fe5bb48d3c5baf8e23443a5ea3a7e519e6dffa24ecc083e93d1820",
      "networkId": 0,
      "chainId": 0
    }
  ]
}