{
  "hash": "0xa4bc24d280bc98472340404667b8fc5245614eecce74baf67ad7afe6abfefa54",
  "parentHash": "0x2704789745163436a0a41a8024019fb83c1d6cb945a6ea211dbada0a8e0f901a",
  "number": 119320,
  "timestamp": 1440140819,
  "nonce": "0x0c58d5dd95395d62",
  "difficulty": 4411696689949,
  "gasLimit": {
    "_hex": "0x2fefd8"
  },
  "gasUsed": {
    "_hex": "0xf618"
  },
  "miner": "0xEF247E639d49461D25F57e9362CadE3120910Ce0",
  "extraData": "0x476574682f76312e302e322f6c696e75782f676f312e342e32",
  "transactions": [
    {
      "hash": "0x787dfecc06840720ec71c4098618437554058d914941e72b21f205113ce72814",
      "blockHash": "0xa4bc24d280bc98472340404667b8fc5245614eecce74baf67ad7afe6abfefa54",
      "blockNumber": 119320,
      "transactionIndex": 0,
      "confirmations": null,
      "from": "0x647fe784fb1A8380972fB6eA08D6eEd74D1a5699",
      "gasPrice": {
        "_hex": "0xd4be89f70"
      },
      "gasLimit": {
        "_hex": "0x15f90"
      },
      "to": "0x8Ad679342135277c2db3e0e469CE16c34367Ad88",
      "value": {
        "_hex": "0x4e1003b28d9280000"
      },
      "nonce": 1,
      "data": "0x",
      "r": "0x798d97bc7df1c33781fc73c0944e010d637057505d7d828335ce8ba9c016976c",
      "s": "0x44be017fcc1adf70302f1465cdc729ab98c978923867944185ba135982038ab4",
      "v": 28,
      "creates": null,
      "raw": "0xf86e01850d4be89f7083015f90948ad679342135277c2db3e0e469ce16c34367ad888904e1003b28d9280000801ca0798d97bc7df1c33781fc73c0944e010d637057505d7d828335ce8ba9c016976ca044be017fcc1adf70302f1465cdc729ab98c978923867944185ba135982038ab4",
      "networkId": 0,
      "chainId": 0
    },
    {
      "hash": "0x63392165dee09c7e0889ae065b4f7497109225f209828a59bfd240930677907c",
      "blockHash": "0xa4bc24d280bc98472340404667b8fc5245614eecce74baf67ad7afe6abfefa54",
      "blockNumber": 119320,
      "transactionIndex": 1,
      "confirmations": null,
      "from": "0x2e32A53e7972001B996D994722B1ab3dD869949d",
      "gasPrice": {
        "_hex": "0xba43b7400"
      },
      "gasLimit": {
        "_hex": "0x5208"
      },
      "to": "0x32Be343B94f860124dC4fEe278FDCBD38C102D88",
      "value": {
        "_hex": "0xddcfbbb7a606000"
      },
      "nonce": 3,
      "data": "0x",
      "r": "0xe764e34e394932cb5b45f5b7dd352241ea33ab15331a8aab2da75a1e33cb3e15",
      "s": "0x0d2a1b1559ab60f438b43cd1d072ce6ecca3ecacddfe3a1976fabd382cf2d093",
      "v": 28,
      "creates": null,
      "raw": "0xf86c03850ba43b74008252089432be343b94f860124dc4fee278fdcbd38c102d88880ddcfbbb7a606000801ca0e764e34e394932cb5b45f5b7dd352241ea33ab15331a8aab2da75a1e33cb3e15a00d2a1b1559ab60f438b43cd1d072ce6ecca3ecacddfe3a1976fabd382cf2d093",
      "networkId": 0,
      "chainId": 0
    },
    {
      "hash": "0x564da9b3b5b6ef02d1b0231c28d7529157452b283f70aa8d78912b37e9f7575f",
      "blockHash": "0xa4bc24d280bc98472340404667b8fc5245614eecce74baf67ad7afe6abfefa54",
      "blockNumber": 119320,
      "transactionIndex": 2,
      "confirmations": null,
      "from": "0xe6A7a1d47ff21B6321162AEA7C6CB457D5476Bca",
      "gasPrice": {
        "_hex": "0xba43b7400"
      },
      "gasLimit": {
        "_hex": "0x55f0"
      },
      "to": "0xE25E3A1947405a1F82dD8e3048a9cA471dc782E1",
      "value": {
        "_hex": "0xdc807dc116f20dc"
      },
      "nonce": 5899,
      "data": "0x",
      "r": "0x17f8c58f6878e8655a6959142059b304593355cf59362bf2781470faff8c164b",
      "s": "0x4dd043468db072bb5328b29070dc80bc1a8511587af0825315502d33b44386d0",
      "v": 27,
      "creates": null,
      "raw": "0xf86e82170b850ba43b74008255f094e25e3a1947405a1f82dd8e3048a9ca471dc782e1880dc807dc116f20dc801ba017f8c58f6878e8655a6959142059b304593355cf59362bf2781470faff8c164ba04dd043468db072bb5328b29070dc80bc1a8511587af0825315502d33b44386d0",
      "networkId": 0,
      "chainId": 0
    }
  ]
}