{
  "hash": "0x127a9621945cb938003fd988273046c21f3eae02e6c3e196ec0d02afa1c5c715",
  "parentHash": "0xdab1736d6d4a76fbc8fb94b1226640a2b33f00878b92cd3c3a0af68934be56be",
  "number": 115275,
  "timestamp": 1440054334,
  "nonce": "0x95c381a67b76f750",
  "difficulty": 4556158516159,
  "gasLimit": {
    "_hex": "0x2fefd8"
  },
  "gasUsed": {
    "_hex": "0x5208"
  },
  "miner": "0xe6A7a1d47ff21B6321162AEA7C6CB457D5476Bca",
  "extraData": "0x476574682f76312e302e312d38326566323666362f6c696e75782f676f312e34",
  "transactions": [
    {
      "hash": "0x43964d373ea917bd190e2d545d82ee3982365c041148819b12a2384c5a9504c1",
      "blockHash": "0x127a9621945cb938003fd988273046c21f3eae02e6c3e196ec0d02afa1c5c715",
      "blockNumber": 115275,
      "transactionIndex": 0,
      "confirmations": null,
      "from": "0x526384ca4cF099ECa3f719e8ac32dEf6eaDB1E80",
      "gasPrice": {
        "_hex": "0x108d914c084"
      },
      "gasLimit": {
        "_hex": "0x5208"
      },
      "to": "0x40B9b889A21Ff1534d018D71Dc406122EBcf3F5A",
      "value": {
        "_hex": "0xde0b6b3a7640000"
      },
      "nonce": 0,
      "data": "0x",
      "r": "0xcec1844222502b4ea0a50778a982da20aac7a9b4731b77db7f3e70945c2bb573",
      "s": "0x38916bbd7ab605f53b606abec3daededf46bfbd5915792e275a785536fdc260d",
      "v": 28,
      "creates": null,
      "raw": "0xf86d80860108d914c0848252089440b9b889a21ff1534d018d71dc406122ebcf3f5a880de0b6b3a7640000801ca0cec1844222502b4ea0a50778a982da20aac7a9b4731b77db7f3e70945c2bb573a038916bbd7ab605f53b606abec3daededf46bfbd5915792e275a785536fdc260d",
      "networkId": 0,
      "chainId": 0
    }
  ]
}