{
  "hash": "0x5f4c6b2b39a3d3fdedb23e966447fc772d48882d21b0c7e9d17a2bb88f3e70a5",
  "parentHash": "0xe600a3a26fc515448eb494acf6fc9368e4c9ed502ca54129e6d0e1ebc183c570",
  "number": 72427,
  "timestamp": 1439352447,
  "nonce": "0x50745654180cb2c6",
  "difficulty": 2203710096973,
  "gasLimit": {
    "_hex": "0x2fefd8"
  },
  "gasUsed": {
    "_hex": "0x5208"
  },
  "miner": "0x76d4a9bc9612bE738A81d0fE632b00B971E2bB9a",
  "extraData": "0x",
  "transactions": [
    {
      "hash": "0x5122e05b67e8ead1671dad4d14ced4cb715e40ba03a38e5e31b7f20cfc7c9c3f",
      "blockHash": "0x5f4c6b2b39a3d3fdedb23e966447fc772d48882d21b0c7e9d17a2bb88f3e70a5",
      "blockNumber": 72427,
      "transactionIndex": 0,
      "confirmations": null,
      "from": "0x32Be343B94f860124dC4fEe278FDCBD38C102D88",
      "gasPrice": {
        "_hex": "0xd3581de0d"
      },
      "gasLimit": {
        "_hex": "0x5208"
      },
      "to": "0x3730cb1BAFF045d7100e60ea5B1C1f93932286aa",
      "value": {
        "_hex": "0x8ac7230489e80000"
      },
      "nonce": 281,
      "data": "0x",
      "r": "0x1a1c8be9b72c5d3c6c8fee28a80eb054f010f24b3dc66712dcbd092bee5750bf",
      "s": "0x2e607e632464dcc7639a8ac2baf9ddcd76f6f390a5f176bf029c59b845226ac9",
      "v": 27,
      "creates": null,
      "raw": "0xf86e820119850d3581de0d825208943730cb1baff045d7100e60ea5b1c1f93932286aa888ac7230489e80000801ba01a1c8be9b72c5d3c6c8fee28a80eb054f010f24b3dc66712dcbd092bee5750bfa02e607e632464dcc7639a8ac2baf9ddcd76f6f390a5f176bf029c59b845226ac9",
      "networkId": 0,
      "chainId": 0
    }
  ]
}