{
  "hash": "0x697f696529c3ad446633aa04930115f77b717e2e04bcaeec00af811957a7711e",
  "parentHash": "0x4c9916f9cbe6e0e2ccb7661196a8b6a74d917630f39987d8a3d2faff2269e098",
  "number": 98795,
  "timestamp": 1439779173,
  "nonce": "0xe3bbb1c1a167bcc1",
  "difficulty": 3851730464703,
  "gasLimit": {
    "_hex": "0x2fefd8"
  },
  "gasUsed": {
    "_hex": "0xa410"
  },
  "miner": "0xe6A7a1d47ff21B6321162AEA7C6CB457D5476Bca",
  "extraData": "0x476574682f76312e302e312d38326566323666362f6c696e75782f676f312e34",
  "transactions": [
    {
      "hash": "0xe352ca094a4d5b01c3305a177f0b73b9564984dcb619b32e52321f05264474ba",
      "blockHash": "0x697f696529c3ad446633aa04930115f77b717e2e04bcaeec00af811957a7711e",
      "blockNumber": 98795,
      "transactionIndex": 0,
      "confirmations": null,
      "from": "0x007f7f58D3eb5b7510A301eCC749FC1fCDDBE14D",
      "gasPrice": {
        "_hex": "0xe0cfe7246"
      },
      "gasLimit": {
        "_hex": "0x15f90"
      },
      "to": "0xb1abce2918E21ddb93AA452731a12672A3d9F75a",
      "value": {
        "_hex": "0x4563918244f40000"
      },
      "nonce": 134,
      "data": "0x",
      "r": "0xdae3b40625441b93d74663171fb22996fb4fbb18aaa0145e0259d2c0dfba97e2",
      "s": "0x619ab2989fe52f5806a600f74928a95e0636d619e72239d6396ffab0c3147af6",
      "v": 28,
      "creates": null,
      "raw": "0xf86e8186850e0cfe724683015f9094b1abce2918e21ddb93aa452731a12672a3d9f75a884563918244f40000801ca0dae3b40625441b93d74663171fb22996fb4fbb18aaa0145e0259d2c0dfba97e2a0619ab2989fe52f5806a600f74928a95e0636d619e72239d6396ffab0c3147af6",
      "networkId": 0,
      "chainId": 0
    },
    {
      "hash": "0x2ffd729f4a57ef9b050bbfbfbc07a13e65220bd7ea332ed516332b1804a193e2",
      "blockHash": "0x697f696529c3ad446633aa04930115f77b717e2e04bcaeec00af811957a7711e",
      "blockNumber": 98795,
      "transactionIndex": 1,
      "confirmations": null,
      "from": "0x007f7f58D3eb5b7510A301eCC749FC1fCDDBE14D",
      "gasPrice": {
        "_hex": "0xe0cfe7246"
      },
      "gasLimit": {
        "_hex": "0x15f90"
      },
      "to": "0xb1abce2918E21ddb93AA452731a12672A3d9F75a",
      "value": {
        "_hex": "0x4563918244f40000"
      },
      "nonce": 135,
      "data": "0x",
      "r": "0x55fbb78b43986022784caf1edea4640f2577c41f8b27f89c6194614a3f2e9a50",
      "s": "0x5e59e3a73375978cbc6a415f18e590dbc54383edea59ef378d461284e68cc8e3",
      "v": 28,
      "creates": null,
      "raw": "0xf86e8187850e0cfe724683015f9094b1abce2918e21ddb93aa452731a12672a3d9f75a884563918244f40000801ca055fbb78b43986022784caf1edea4640f2577c41f8b27f89c6194614a3f2e9a50a05e59e3a73375978cbc6a415f18e590dbc54383edea59ef378d461284e68cc8e3",
      "networkId": 0,
      "chainId": 0
    }
  ]
}