{
  "hash": "0xc9898d66cb24b42ae170f35ed874bfd398e513fcdf91f98db155e7ea0c5c9bfe",
  "parentHash": "0x7cc58bbbcae97ac14fd6ead70ddf7802267564e2b4889528d75e4a2dcf760c6b",
  "number": 84878,
  "timestamp": 1439555719,
  "nonce": "0xd756028c2612d70a",
  "difficulty": 2663326902339,
  "gasLimit": {
    "_hex": "0x2fefd8"
  },
  "gasUsed": {
    "_hex": "0x5208"
  },
  "miner": "0xe6A7a1d47ff21B6321162AEA7C6CB457D5476Bca",
  "extraData": "0x476574682f76312e302e312d38326566323666362f6c696e75782f676f312e34",
  "transactions": [
    {
      "hash": "0x608ae805baa348bfb3917b245ad04f6946549e91a144236a68d974ca200aa901",
      "blockHash": "0xc9898d66cb24b42ae170f35ed874bfd398e513fcdf91f98db155e7ea0c5c9bfe",
      "blockNumber": 84878,
      "transactionIndex": 0,
      "confirmations": null,
      "from": "0x899870bD39d8c7B78cE1Fe1AD54d85Cf3D937795",
      "gasPrice": {
        "_hex": "0xba43b7400"
      },
      "gasLimit": {
        "_hex": "0x5208"
      },
      "to": "0xC47Aaa860008be6f65B58c6C6E02a84e666EfE31",
      "value": {
        "_hex": "0x15f8a80308638f0"
      },
      "nonce": 0,
      "data": "0x",
      "r": "0x334e1a5bba9e79267253c65023c2182bb073cf599df1c997995f8f6913ef1120",
      "s": "0x02aeb375d55895cbf466a1ecee2a6a5dfd5b3c5f781b3b7f7e9979298542a7bb",
      "v": 27,
      "creates": null,
      "raw": "0xf86c80850ba43b740082520894c47aaa860008be6f65b58c6c6e02a84e666efe3188015f8a80308638f0801ba0334e1a5bba9e79267253c65023c2182bb073cf599df1c997995f8f6913ef1120a002aeb375d55895cbf466a1ecee2a6a5dfd5b3c5f781b3b7f7e9979298542a7bb",
      "networkId": 0,
      "chainId": 0
    }
  ]
}