{
  "hash": "0x325909df57d695fd20b1193c353fc424213ccb7f598134e9b1a3f2f200d286d6",
  "parentHash": "0xa9cbdcbf86aaff461200f88335232606a725ce7bfda0a67336d15672484246a5",
  "number": 72849,
  "timestamp": 1439359022,
  "nonce": "0x4106688d2abf6bf5",
  "difficulty": 2190725277408,
  "gasLimit": {
    "_hex": "0x2fefd8"
  },
  "gasUsed": {
    "_hex": "0x522d"
  },
  "miner": "0x9D49F602b0fdb924Bd63DDE2Bd0907E4A07c63a7",
  "extraData": "0x476574682f76312e302e312f6c696e75782f676f312e342e32",
  "transactions": [
    {
      "hash": "0x1d583ac29f550ff7b2c34344cc1a79df391b65b10e8a3d9a519bc90d1885e41c",
      "blockHash": "0x325909df57d695fd20b1193c353fc424213ccb7f598134e9b1a3f2f200d286d6",
      "blockNumber": 72849,
      "transactionIndex": 0,
      "confirmations": null,
      "from": "0x326Be8F71bFb0379f989aAB1CC1fE37f0a771f60",
      "gasPrice": {
        "_hex": "0x10eb5672c0f"
      },
      "gasLimit": {
        "_hex": "0x15f90"
      },
      "to": "0x070F98b1eC27942F613A73d9e22d0ba60E211668",
      "value": {
        "_hex": "0xde0b6b3a7640000"
      },
      "nonce": 15,
      "data": "0x",
      "r": "0x9711582148481da29daaf54a69f8b6d12a0b134e8015b5fb02a0a3c69901e43f",
      "s": "0x27feec26c440ad73ed9d0518280fac440db3d704b5a6708088568c765a60ecd9",
      "v": 28,
      "creates": null,
      "raw": "0xf86e0f86010eb5672c0f83015f9094070f98b1ec27942f613a73d9e22d0ba60e211668880de0b6b3a7640000801ca09711582148481da29daaf54a69f8b6d12a0b134e8015b5fb02a0a3c69901e43fa027feec26c440ad73ed9d0518280fac440db3d704b5a6708088568c765a60ecd9",
      "networkId": 0,
      "chainId": 0
    }
  ]
}