{
  "hash": "0xcb556b7b11eb2f8930ab56c4d48e34d48126cef24c0a3414b2df1658a709137a",
  "parentHash": "0xfc4133e998d76571d8aa6bebecfd4d0a80e30e7feabae4e8f90f926432fb097b",
  "number": 108739,
  "timestamp": 1439945417,
  "nonce": "0xf5e81c42157d0a9d",
  "difficulty": 4338177366970,
  "gasLimit": {
    "_hex": "0x2fefd8"
  },
  "gasUsed": {
    "_hex": "0x5208"
  },
  "miner": "0x007f7f58D3eb5b7510A301eCC749FC1fCDDBE14D",
  "extraData": "0x476574682f76312e302e312f77696e646f77732f676f312e342e32",
  "transactions": [
    {
      "hash": "0x0cd60140be5146cfa5d18f15c678e6c68b4d50d863c7fd296b3ca4e6e2bdba06",
      "blockHash": "0xcb556b7b11eb2f8930ab56c4d48e34d48126cef24c0a3414b2df1658a709137a",
      "blockNumber": 108739,
      "transactionIndex": 0,
      "confirmations": null,
      "from": "0x5F965F10e1BD020753Ca496fee6b3E4D809aff67",
      "gasPrice": {
        "_hex": "0xd154780c6"
      },
      "gasLimit": {
        "_hex": "0x5208"
      },
      "to": "0xFBb1b73C4f0BDa4f67dcA266ce6Ef42f520fBB98",
      "value": {
        "_hex": "0x29efa03be9b0e91d0"
      },
      "nonce": 3,
      "data": "0x",
      "r": "0x9fc686b2f31dcfdd9a99858a3044008db904d24c685166ee263a7872cde4d275",
      "s": "0x1ab822a358d4e81996345c21fd7ce5777499219004257318459d725c12e93c32",
      "v": 27,
      "creates": null,
      "raw": "0xf86d03850d154780c682520894fbb1b73c4f0bda4f67dca266ce6ef42f520fbb9889029efa03be9b0e91d0801ba09fc686b2f31dcfdd9a99858a3044008db904d24c685166ee263a7872cde4d275a01ab822a358d4e81996345c21fd7ce5777499219004257318459d725c12e93c32",
      "networkId": 0,
      "chainId": 0
    }
  ]
}