{
  "hash": "0x8e0c93980ad09e06c13013d1cb0bce9b5cf67012c6fa50bf064cacd39ec4dce1",
  "parentHash": "0x804f218a8f00b314d9a65ed9e9413578df0607fc006b1769358700cd98e90cc0",
  "number": 99044,
  "timestamp": 1439783289,
  "nonce": "0xa94a0f03e2be96e7",
  "difficulty": 3827244830044,
  "gasLimit": {
    "_hex": "0x2fefd8"
  },
  "gasUsed": {
    "_hex": "0x5208"
  },
  "miner": "0xe6A7a1d47ff21B6321162AEA7C6CB457D5476Bca",
  "extraData": "0x476574682f76312e302e312d38326566323666362f6c696e75782f676f312e34",
  "transactions": [
    {
      "hash": "0x7b816ddd64f721ea7834731e08ed4548972bf8d3b5d10c12013f650c8cbcab2d",
      "blockHash": "0x8e0c93980ad09e06c13013d1cb0bce9b5cf67012c6fa50bf064cacd39ec4dce1",
      "blockNumber": 99044,
      "transactionIndex": 0,
      "confirmations": null,
      "from": "0x007f7f58D3eb5b7510A301eCC749FC1fCDDBE14D",
      "gasPrice": {
        "_hex": "0xe0cfe7246"
      },
      "gasLimit": {
        "_hex": "0x15f90"
      },
      "to": "0xb1abce2918E21ddb93AA452731a12672A3d9F75a",
      "value": {
        "_hex": "0x4563918244f40000"
      },
      "nonce": 143,
      "data": "0x",
      "r": "0x249289b4a1a8390f8576daee86ae8eb2654d8bcf7d20b0d2a2c3a7bdb267ad01",
      "s": "0x4779ac71430f506f9cded1c341ff22aed37f2c81e8a2a78a4983c8a7686c7ad4",
      "v": 27,
      "creates": null,
      "raw": "0xf86e818f850e0cfe724683015f9094b1abce2918e21ddb93aa452731a12672a3d9f75a884563918244f40000801ba0249289b4a1a8390f8576daee86ae8eb2654d8bcf7d20b0d2a2c3a7bdb267ad01a04779ac71430f506f9cded1c341ff22aed37f2c81e8a2a78a4983c8a7686c7ad4",
      "networkId": 0,
      "chainId": 0
    }
  ]
}