{
  "hash": "0x3dc7e0e2dcbdcb29faa8c9d09c414e82bb1ffec9d40748eed1b24076937117bb",
  "parentHash": "0xa69a508363ab72913491ae74e980845312aaaf873363aa4133c6780c3f062a2a",
  "number": 113928,
  "timestamp": 1440032083,
  "nonce": "0xff122ce927794973",
  "difficulty": 4423163898410,
  "gasLimit": {
    "_hex": "0x2fefd8"
  },
  "gasUsed": {
    "_hex": "0x5208"
  },
  "miner": "0x007f7f58D3eb5b7510A301eCC749FC1fCDDBE14D",
  "extraData": "0x476574682f76312e302e312f77696e646f77732f676f312e342e32",
  "transactions": [
    {
      "hash": "0x9243963149802a54fcd5327ba4f84d5403f9a8ac78439ecf87403bea92564935",
      "blockHash": "0x3dc7e0e2dcbdcb29faa8c9d09c414e82bb1ffec9d40748eed1b24076937117bb",
      "blockNumber": 113928,
      "transactionIndex": 0,
      "confirmations": null,
      "from": "0xC3fe64D1af00F0d9c324E4387EF7533f7D788e95",
      "gasPrice": {
        "_hex": "0xdec4a7b27"
      },
      "gasLimit": {
        "_hex": "0x5208"
      },
      "to": "0x32Be343B94f860124dC4fEe278FDCBD38C102D88",
      "value": {
        "_hex": "0x14d0caab7a08f2000"
      },
      "nonce": 17,
      "data": "0x",
      "r": "0x7d837a420a6a3f9f93d645f20dc5447991eb0eb37c22261f22f97faf2a1dccb5",
      "s": "0x73838cccc191d5f8895e073394428966a4800662641c12fba1f15c28441240e0",
      "v": 28,
      "creates": null,
      "raw": "0xf86d11850dec4a7b278252089432be343b94f860124dc4fee278fdcbd38c102d8889014d0caab7a08f2000801ca07d837a420a6a3f9f93d645f20dc5447991eb0eb37c22261f22f97faf2a1dccb5a073838cccc191d5f8895e073394428966a4800662641c12fba1f15c28441240e0",
      "networkId": 0,
      "chainId": 0
    }
  ]
}