{
  "hash": "0x8e5373ff4a140b96cf234064a4cb14594fd75abfbce740759f463b86ca9473e2",
  "parentHash": "0xec57607b7e536b8439e7ca9dd21256086690c2ff56d4527119262ebcce6f2ef2",
  "number": 51580,
  "timestamp": 1439007411,
  "nonce": "0x35e18bb0d526c977",
  "difficulty": 1558161160467,
  "gasLimit": {
    "_hex": "0xc1f5a"
  },
  "gasUsed": {
    "_hex": "0x5208"
  },
  "miner": "0xeB1325C8D9d3ea8D74aC11F4B00F1B2367686319",
  "extraData": "0x476574682f76312e302e312f77696e646f77732f676f312e342e32",
  "transactions": [
    {
      "hash": "0x58b71f324efb864fea1e53f78c00c9e04c371642d639a5a2b22f7d489c2f3ccc",
      "blockHash": "0x8e5373ff4a140b96cf234064a4cb14594fd75abfbce740759f463b86ca9473e2",
      "blockNumber": 51580,
      "transactionIndex": 0,
      "confirmations": null,
      "from": "0x952f389eCE021cECc7e7E00B5316925e14396B92",
      "gasPrice": {
        "_hex": "0xdf8475800"
      },
      "gasLimit": {
        "_hex": "0x5b04"
      },
      "to": "0x65C40Ee4e07E09671fF3cE2dff2AcCbE366bb5C8",
      "value": {
        "_hex": "0x50bdb02cc7390000"
      },
      "nonce": 1,
      "data": "0x",
      "r": "0x3e877ec67af4244c1ba8dfd4c1db7bc169addad91b140155ce227b59506f0c11",
      "s": "0xa8246485705192d532dde98c10aa36579f8717e1b3cba4ae3f2f7dc8d11ac349",
      "v": 27,
      "creates": null,
      "raw": "0xf86c01850df8475800825b049465c40ee4e07e09671ff3ce2dff2accbe366bb5c88850bdb02cc7390000801ba03e877ec67af4244c1ba8dfd4c1db7bc169addad91b140155ce227b59506f0c11a0a8246485705192d532dde98c10aa36579f8717e1b3cba4ae3f2f7dc8d11ac349",
      "networkId": 0,
      "chainId": 0
    }
  ]
}