{
  "hash": "0x9b9a593e7289c1faf7fb727a0c10af49ce7082346b9a8bb5ff6aae4590c5e2ab",
  "parentHash": "0x5431816676d795e8e9aeeaeb291824ab40e141fb3bcee87712ff4aa8997d7ab5",
  "number": 94530,
  "timestamp": 1439709900,
  "nonce": "0x7d2ac5c4bf64e0a5",
  "difficulty": 3493438194666,
  "gasLimit": {
    "_hex": "0x2fefd8"
  },
  "gasUsed": {
    "_hex": "0x5208"
  },
  "miner": "0xe6A7a1d47ff21B6321162AEA7C6CB457D5476Bca",
  "extraData": "0x476574682f76312e302e312d38326566323666362f6c696e75782f676f312e34",
  "transactions": [
    {
      "hash": "0x8858f5ed4fb822abf4cfb5fd015f9d20b7e82d03f703519dd730564eeab4d038",
      "blockHash": "0x9b9a593e7289c1faf7fb727a0c10af49ce7082346b9a8bb5ff6aae4590c5e2ab",
      "blockNumber": 94530,
      "transactionIndex": 0,
      "confirmations": null,
      "from": "0x09D6b0F8DE057aC9116C0f321eA4017444de0801",
      "gasPrice": {
        "_hex": "0xd3337c733"
      },
      "gasLimit": {
        "_hex": "0x5208"
      },
      "to": "0x32Be343B94f860124dC4fEe278FDCBD38C102D88",
      "value": {
        "_hex": "0x25f25d94f5a3ae0000"
      },
      "nonce": 5,
      "data": "0x",
      "r": "0x874928340a3d7ce1912122bba9d5420d0721c5fc4f32a6579227ff68fbe681ed",
      "s": "0x37350f9498499b6928ef852d7e06d74b655132181a213c913efa82f09c8311ea",
      "v": 28,
      "creates": null,
      "raw": "0xf86d05850d3337c7338252089432be343b94f860124dc4fee278fdcbd38c102d888925f25d94f5a3ae0000801ca0874928340a3d7ce1912122bba9d5420d0721c5fc4f32a6579227ff68fbe681eda037350f9498499b6928ef852d7e06d74b655132181a213c913efa82f09c8311ea",
      "networkId": 0,
      "chainId": 0
    }
  ]
}