{
  "hash": "0x0c850312dc02b0bc53b238f4db9277ac78cb05aae9e39c24c4f1c0a877d32e13",
  "parentHash": "0xd155086da1602e9976d1e97b8903fcbf788fe7aa711e946876dd6b7f5a8806be",
  "number": 98390,
  "timestamp": 1439771920,
  "nonce": "0x100107ed46e71283",
  "difficulty": 3872661096656,
  "gasLimit": {
    "_hex": "0x2fefd8"
  },
  "gasUsed": {
    "_hex": "0x5208"
  },
  "miner": "0x3D5292e9d2a2D31014717ff936A0F9375A5Cc8b7",
  "extraData": "0x476574682f76312e302e312f77696e646f77732f676f312e342e32",
  "transactions": [
    {
      "hash": "0x002fa14b945e73e6588303d58ba79c82e42680459a1c03454ddd38c6437ca022",
      "blockHash": "0x0c850312dc02b0bc53b238f4db9277ac78cb05aae9e39c24c4f1c0a877d32e13",
      "blockNumber": 98390,
      "transactionIndex": 0,
      "confirmations": null,
      "from": "0x120A270bbC009644e35F0bB6ab13f95b8199c4ad",
      "gasPrice": {
        "_hex": "0xdde50ee73"
      },
      "gasLimit": {
        "_hex": "0x3d090"
      },
      "to": "0xD0CAAD9CA5DcbD0066A46EAb5A267e8Bb7141f64",
      "value": {
        "_hex": "0x477255abb4dc4000"
      },
      "nonce": 656,
      "data": "0x",
      "r": "0x9a7ec397cb12739cc2ee2e38e46a7a4a21a1835a0ba96851069eb0a8134a9b4c",
      "s": "0x0ddd4a4f7f2b71c6ea49cb177f011fe81f62ec49f54d115ff4a735eb765d7877",
      "v": 27,
      "creates": null,
      "raw": "0xf86f820290850dde50ee738303d09094d0caad9ca5dcbd0066a46eab5a267e8bb7141f6488477255abb4dc4000801ba09a7ec397cb12739cc2ee2e38e46a7a4a21a1835a0ba96851069eb0a8134a9b4ca00ddd4a4f7f2b71c6ea49cb177f011fe81f62ec49f54d115ff4a735eb765d7877",
      "networkId": 0,
      "chainId": 0
    }
  ]
}