{
  "hash": "0x11a3f8ac4bdbb3c3b53ddaf3d9a64b918eb7ee6ca6ffadc75d0cf692140f2b41",
  "parentHash": "0xe89a6c96d07151549718e980e725b6abe35ed1a118a94e11097711140bc2c630",
  "number": 46674,
  "timestamp": 1438927226,
  "nonce": "0x74dce57e8022f903",
  "difficulty": 1461755474858,
  "gasLimit": {
    "_hex": "0x706d"
  },
  "gasUsed": {
    "_hex": "0x5208"
  },
  "miner": "0x0eDEd3DA479d0beF8eeC92A76644D3f4E3C177f7",
  "extraData": "0x476574682f76312e302e312f6c696e75782f676f312e342e32",
  "transactions": [
    {
      "hash": "0x0032b72394dbffbe23626714abab9d23f6d3fb893470da7e040523b7c26c86b2",
      "blockHash": "0x11a3f8ac4bdbb3c3b53ddaf3d9a64b918eb7ee6ca6ffadc75d0cf692140f2b41",
      "blockNumber": 46674,
      "transactionIndex": 0,
      "confirmations": null,
      "from": "0x92c27672FE65e002159Ec2597fcf8897ADBf5B29",
      "gasPrice": {
        "_hex": "0xdff3cf99c"
      },
      "gasLimit": {
        "_hex": "0x5208"
      },
      "to": "0x32Be343B94f860124dC4fEe278FDCBD38C102D88",
      "value": {
        "_hex": "0x8ac2b1b679b52000"
      },
      "nonce": 1,
      "data": "0x",
      "r": "0xb9d5998c20af7415c82b00e1a381ffd779d1a6259e85b458375de69c4d33e7d3",
      "s": "0x1bd5e4ae0e6ee1691425631f9e11f194a771f87c2645082e84918b48ee6647fc",
      "v": 28,
      "creates": null,
      "raw": "0xf86c01850dff3cf99c8252089432be343b94f860124dc4fee278fdcbd38c102d88888ac2b1b679b52000801ca0b9d5998c20af7415c82b00e1a381ffd779d1a6259e85b458375de69c4d33e7d3a01bd5e4ae0e6ee1691425631f9e11f194a771f87c2645082e84918b48ee6647fc",
      "networkId": 0,
      "chainId": 0
    }
  ]
}