{
  "hash": "0xb6c91ab4c84606983742f5bc68e69db850447ab5fb2f84c8998b472316d78783",
  "parentHash": "0x83e95a42f99a6240e3ae7e573a108599a09d78b6a1bc3e20fc08767a7b9f9f91",
  "number": 94601,
  "timestamp": 1439710879,
  "nonce": "0x01fc11b37ac2d877",
  "difficulty": 3508794303068,
  "gasLimit": {
    "_hex": "0x2fefd8"
  },
  "gasUsed": {
    "_hex": "0x5208"
  },
  "miner": "0x33b01a7fe4A1a5F774Bb73f89A4eF15a6Ffe1141",
  "extraData": "0x476574682f76312e302e312f6c696e75782f676f312e342e32",
  "transactions": [
    {
      "hash": "0xfef49086c0f9d7ed0916e7077aaf0447261100ae1592eabda5f22670472ebf25",
      "blockHash": "0xb6c91ab4c84606983742f5bc68e69db850447ab5fb2f84c8998b472316d78783",
      "blockNumber": 94601,
      "transactionIndex": 0,
      "confirmations": null,
      "from": "0x6724EFf089f9dD79c381137DF68678bD574B37e0",
      "gasPrice": {
        "_hex": "0xdf4f39c52"
      },
      "gasLimit": {
        "_hex": "0x5208"
      },
      "to": "0x32Be343B94f860124dC4fEe278FDCBD38C102D88",
      "value": {
        "_hex": "0x455f189c11f87400"
      },
      "nonce": 0,
      "data": "0x",
      "r": "0x27fab116bb90d09abe39ede0bd82d3e90efaed7abee7db31a260e043162ca9a9",
      "s": "0x2ac8d0714e71c46d3ae6d7e6102d9ec1a0dece97383674f451ddba175c7bc5db",
      "v": 27,
      "creates": null,
      "raw": "0xf86c80850df4f39c528252089432be343b94f860124dc4fee278fdcbd38c102d8888455f189c11f87400801ba027fab116bb90d09abe39ede0bd82d3e90efaed7abee7db31a260e043162ca9a9a02ac8d0714e71c46d3ae6d7e6102d9ec1a0dece97383674f451ddba175c7bc5db",
      "networkId": 0,
      "chainId": 0
    }
  ]
}