{
  "hash": "0x9f1ac71e9d0c010737c011dabeaba39c2a0e6cc97a9614bca2feb4c74c054032",
  "parentHash": "0xb1142655719cea08132a4cf98a67140ee13d2683dbf80ddee0091da2a993ec8c",
  "number": 64760,
  "timestamp": 1439225871,
  "nonce": "0xb2144065dcf6f743",
  "difficulty": 1889422367945,
  "gasLimit": {
    "_hex": "0x2fefd8"
  },
  "gasUsed": {
    "_hex": "0x5208"
  },
  "miner": "0xf8E0CA3Ed80bd541b94BEdCf259e8CF2141A9523",
  "extraData": "0x476574682f76312e302e312f77696e646f77732f676f312e342e32",
  "transactions": [
    {
      "hash": "0xbfec06fca861a2666d8f8de6862c3b6e59995bd46e809b321dda6a4f3257f213",
      "blockHash": "0x9f1ac71e9d0c010737c011dabeaba39c2a0e6cc97a9614bca2feb4c74c054032",
      "blockNumber": 64760,
      "transactionIndex": 0,
      "confirmations": null,
      "from": "0x7A4B723cB1711674FE852808411ff18a14943181",
      "gasPrice": {
        "_hex": "0xba43b7400"
      },
      "gasLimit": {
        "_hex": "0x5208"
      },
      "to": "0x49C3890417A75fD2f2733D0D4fcBc2C325ef8316",
      "value": {
        "_hex": "0x7c58ada8ff2000"
      },
      "nonce": 1,
      "data": "0x",
      "r": "0xc31feb1127daac5fb0afe3bdcb2d3bbb92f9127e374925b169ded9dfacba073c",
      "s": "0x1e941d66f0f9cd492c4b40bddbb415823ea5089ee5426cb1434b86ae4107a88c",
      "v": 28,
      "creates": null,
      "raw": "0xf86b01850ba43b74008252089449c3890417a75fd2f2733d0d4fcbc2c325ef8316877c58ada8ff2000801ca0c31feb1127daac5fb0afe3bdcb2d3bbb92f9127e374925b169ded9dfacba073ca01e941d66f0f9cd492c4b40bddbb415823ea5089ee5426cb1434b86ae4107a88c",
      "networkId": 0,
      "chainId": 0
    }
  ]
}