{
  "hash": "0x35d18f63fdf7b2e3d65c78fac2eb7b7044d532711be42ab3fcc9dcb7a20be6cc",
  "parentHash": "0x262f8310388be62184fb8b6a495e3050c3ac2ab4946d94f94fc5ae56be2b8d6d",
  "number": 93452,
  "timestamp": 1439690585,
  "nonce": "0x1e81dec47536b297",
  "difficulty": 3510988872471,
  "gasLimit": {
    "_hex": "0x2fefd8"
  },
  "gasUsed": {
    "_hex": "0x5208"
  },
  "miner": "0x007f7f58D3eb5b7510A301eCC749FC1fCDDBE14D",
  "extraData": "0x476574682f76312e302e312f77696e646f77732f676f312e342e32",
  "transactions": [
    {
      "hash": "0xa56afb12da17445784146f8f2e761a5e1d054f9b0e038835b281429b5369885b",
      "blockHash": "0x35d18f63fdf7b2e3d65c78fac2eb7b7044d532711be42ab3fcc9dcb7a20be6cc",
      "blockNumber": 93452,
      "transactionIndex": 0,
      "confirmations": null,
      "from": "0x2f86ba8019945f39edE131D38d4d8780884DA553",
      "gasPrice": {
        "_hex": "0xdc42ffc23"
      },
      "gasLimit": {
        "_hex": "0x5208"
      },
      "to": "0x32Be343B94f860124dC4fEe278FDCBD38C102D88",
      "value": {
        "_hex": "0x165c9501af427100000"
      },
      "nonce": 19,
      "data": "0x",
      "r": "0xf33e3bfb5079ac02be202dc8b552ca0d1b21cce04be30e575e0b9ea9df97ab03",
      "s": "0x7a18d1fbad600bf1028d4879401f4aa795891eaed89ed5d458275f6b793d40ed",
      "v": 28,
      "creates": null,
      "raw": "0xf86e13850dc42ffc238252089432be343b94f860124dc4fee278fdcbd38c102d888a0165c9501af427100000801ca0f33e3bfb5079ac02be202dc8b552ca0d1b21cce04be30e575e0b9ea9df97ab03a07a18d1fbad600bf1028d4879401f4aa795891eaed89ed5d458275f6b793d40ed",
      "networkId": 0,
      "chainId": 0
    }
  ]
}