{
  "hash": "0x870a816028600522d2128d0342d7a63e4f840688e8e7e47ba23371654b3144fa",
  "parentHash": "0xe126d701598cbf48a86fea3ab47cfb717dbb650b31b98264165e30800a24dfe7",
  "number": 59864,
  "timestamp": 1439145024,
  "nonce": "0x79aefede58913021",
  "difficulty": 1721342996879,
  "gasLimit": {
    "_hex": "0x2fefd8"
  },
  "gasUsed": {
    "_hex": "0x5208"
  },
  "miner": "0x0eDEd3DA479d0beF8eeC92A76644D3f4E3C177f7",
  "extraData": "0x476574682f76312e302e312f6c696e75782f676f312e342e32",
  "transactions": [
    {
      "hash": "0x4ee0823ba92a969eac7c581e53a643473b1a68fd82a58da07eab40316d245781",
      "blockHash": "0x870a816028600522d2128d0342d7a63e4f840688e8e7e47ba23371654b3144fa",
      "blockNumber": 59864,
      "transactionIndex": 0,
      "confirmations": null,
      "from": "0xc544B25bb91b87e380dda392687c6216b0260671",
      "gasPrice": {
        "_hex": "0xcad14abcf"
      },
      "gasLimit": {
        "_hex": "0x5208"
      },
      "to": "0x32Be343B94f860124dC4fEe278FDCBD38C102D88",
      "value": {
        "_hex": "0x6120ef13f950f400"
      },
      "nonce": 2,
      "data": "0x",
      "r": "0x39eb88ae3c1afbfd65e63d04500b55d242777c2614907bdc448585a9698cb3d5",
      "s": "0x0c654837fa7fe2ab37b6a13b701505aebe422bcb4a7c9723319e294816145db8",
      "v": 27,
      "creates": null,
      "raw": "0xf86c02850cad14abcf8252089432be343b94f860124dc4fee278fdcbd38c102d88886120ef13f950f400801ba039eb88ae3c1afbfd65e63d04500b55d242777c2614907bdc448585a9698cb3d5a00c654837fa7fe2ab37b6a13b701505aebe422bcb4a7c9723319e294816145db8",
      "networkId": 0,
      "chainId": 0
    }
  ]
}