{
  "hash": "0x06764b5b3356591fc9299e75a9eebec1312d9395e8255a0f31d98030520c8634",
  "parentHash": "0x1a1536f555c7f98355cd3b8328593f614ade00eca7ed5f07b491bce7a81a76ce",
  "number": 106748,
  "timestamp": 1439909834,
  "nonce": "0xb4ee9c696e849b1b",
  "difficulty": 4448620240663,
  "gasLimit": {
    "_hex": "0x2fefd8"
  },
  "gasUsed": {
    "_hex": "0x5208"
  },
  "miner": "0xe6A7a1d47ff21B6321162AEA7C6CB457D5476Bca",
  "extraData": "0x476574682f76312e302e312d38326566323666362f6c696e75782f676f312e34",
  "transactions": [
    {
      "hash": "0x658e7cdfb017dd3e1b427e2852cfba0da54fc4a4570572aad061d2dbca163c76",
      "blockHash": "0x06764b5b3356591fc9299e75a9eebec1312d9395e8255a0f31d98030520c8634",
      "blockNumber": 106748,
      "transactionIndex": 0,
      "confirmations": null,
      "from": "0x1dF99e975F2E6C2e6945cdA3A377552CB582cAf6",
      "gasPrice": {
        "_hex": "0xd092490fc"
      },
      "gasLimit": {
        "_hex": "0x5208"
      },
      "to": "0x32Be343B94f860124dC4fEe278FDCBD38C102D88",
      "value": {
        "_hex": "0x5ea154871711c400"
      },
      "nonce": 0,
      "data": "0x",
      "r": "0x214a0b5545539b1ff7ca7b10dc4d2b0c5156af4b5d35aceef544da218fb8ccd0",
      "s": "0x4edd86dfd38c2dd34a3985b47b6be623f5106d71516e8cf658436c102a2d90da",
      "v": 27,
      "creates": null,
      "raw": "0xf86c80850d092490fc8252089432be343b94f860124dc4fee278fdcbd38c102d88885ea154871711c400801ba0214a0b5545539b1ff7ca7b10dc4d2b0c5156af4b5d35aceef544da218fb8ccd0a04edd86dfd38c2dd34a3985b47b6be623f5106d71516e8cf658436c102a2d90da",
      "networkId": 0,
      "chainId": 0
    }
  ]
}