{
  "hash": "0xf3af94dabe1cb45d3307784139dfa701c1ad43c91e9c5abae7fb264e7dc67dbb",
  "parentHash": "0x72b81d746d434eb19db78fdf59aa7d5fc9d68686fb67d9f825903d2473054c3d",
  "number": 111447,
  "timestamp": 1439990360,
  "nonce": "0xe6a5da4cf310e846",
  "difficulty": 4443958547606,
  "gasLimit": {
    "_hex": "0x2fefd8"
  },
  "gasUsed": {
    "_hex": "0x5208"
  },
  "miner": "0x580992B51e3925e23280EfB93d3047C82f17E038",
  "extraData": "0x476574682f76312e302e312f6c696e75782f676f312e342e32",
  "transactions": [
    {
      "hash": "0x7a1233280289e0b9c0a63fe43a814af9f649e09d0fa5bcc8f25fdb9b6302dbec",
      "blockHash": "0xf3af94dabe1cb45d3307784139dfa701c1ad43c91e9c5abae7fb264e7dc67dbb",
      "blockNumber": 111447,
      "transactionIndex": 0,
      "confirmations": null,
      "from": "0x0D82Cd113DC35DdDA93f38166cD5CDe8b88e36A1",
      "gasPrice": {
        "_hex": "0xd5d1465f5"
      },
      "gasLimit": {
        "_hex": "0x15f90"
      },
      "to": "0x056507108FE6d30189EcCD6cd7F4Fad56eEef622",
      "value": {
        "_hex": "0x16345785d8a0000"
      },
      "nonce": 25,
      "data": "0x",
      "r": "0xc8d982d6bbb7a8b11fb9a013d90c1b5fab03dde9adece05a5757567b52a5e611",
      "s": "0x063f19c7262cd7884311933512feb1cb69726e7b181448c1467136c811e7e7df",
      "v": 28,
      "creates": null,
      "raw": "0xf86d19850d5d1465f583015f9094056507108fe6d30189eccd6cd7f4fad56eeef62288016345785d8a0000801ca0c8d982d6bbb7a8b11fb9a013d90c1b5fab03dde9adece05a5757567b52a5e611a0063f19c7262cd7884311933512feb1cb69726e7b181448c1467136c811e7e7df",
      "networkId": 0,
      "chainId": 0
    }
  ]
}