{
  "hash": "0x54f6f33c9d190f2c5039e893c3f3a9a5bb87b24af7fc7fff6f9db2fae500bca8",
  "parentHash": "0xf666a6e507b16c8aefeecff7f9a8066abea9089f0ef31f67743c182604ed3286",
  "number": 68230,
  "timestamp": 1439284571,
  "nonce": "0x3a2c9d9c326ceadf",
  "difficulty": 1983148294239,
  "gasLimit": {
    "_hex": "0x2fefd8"
  },
  "gasUsed": {
    "_hex": "0x546c"
  },
  "miner": "0x0037ce3d4B7f8729C8607D8D0248252Be68202c0",
  "extraData": "0x476574682f76312e302e312f77696e646f77732f676f312e342e32",
  "transactions": [
    {
      "hash": "0x6365744957e1fc2284256d8160dd27bcc62e008a0a898a48627783c7ae46d78c",
      "blockHash": "0x54f6f33c9d190f2c5039e893c3f3a9a5bb87b24af7fc7fff6f9db2fae500bca8",
      "blockNumber": 68230,
      "transactionIndex": 0,
      "confirmations": null,
      "from": "0x603F2FAb7aFB6e017b94766069A4b43B38964923",
      "gasPrice": {
        "_hex": "0x110c8f7d8de"
      },
      "gasLimit": {
        "_hex": "0xc350"
      },
      "to": "0x2910543Af39abA0Cd09dBb2D50200b3E800A63D2",
      "value": {
        "_hex": "0x59d169a8a1e9f50000"
      },
      "nonce": 0,
      "data": "0x454e44394b4a425a52",
      "r": "0xb82f57a05d4b5e7b65bd7067fd6abfe7fec59eb55e598994e7f4e969931baac5",
      "s": "0x4c54052faaf8050a66fc60f7903878e890a34064697fbacfd1197504f2052156",
      "v": 27,
      "creates": null,
      "raw": "0xf87780860110c8f7d8de82c350942910543af39aba0cd09dbb2d50200b3e800a63d28959d169a8a1e9f5000089454e44394b4a425a521ba0b82f57a05d4b5e7b65bd7067fd6abfe7fec59eb55e598994e7f4e969931baac5a04c54052faaf8050a66fc60f7903878e890a34064697fbacfd1197504f2052156",
      "networkId": 0,
      "chainId": 0
    }
  ]
}