{
  "hash": "0xa35befa3d2cd067c18e74fb1e02014b147ba9ded0242f6579066a66d78fd921e",
  "parentHash": "0xb1e4374af5776d646c7dee8c9272e0b5e10a384f6525b7d0d05af9c2ca120221",
  "number": 77060,
  "timestamp": 1439430861,
  "nonce": "0x1657c76980970d74",
  "difficulty": 2231722359257,
  "gasLimit": {
    "_hex": "0x2fefd8"
  },
  "gasUsed": {
    "_hex": "0x5208"
  },
  "miner": "0x7E6930B63D03e88F5928C5cd6ee3FCee4D714F7F",
  "extraData": "0x",
  "transactions": [
    {
      "hash": "0xc070d8c69d3582b144c66f81819bb3ec69f2a02772bf138e9f09f47019fd06a3",
      "blockHash": "0xa35befa3d2cd067c18e74fb1e02014b147ba9ded0242f6579066a66d78fd921e",
      "blockNumber": 77060,
      "transactionIndex": 0,
      "confirmations": null,
      "from": "0x2910543Af39abA0Cd09dBb2D50200b3E800A63D2",
      "gasPrice": {
        "_hex": "0xd7d874b15"
      },
      "gasLimit": {
        "_hex": "0x5208"
      },
      "to": "0x14101dABf1212bB2d77C70E121AA394c4293af74",
      "value": {
        "_hex": "0xc326ed06ce7038000"
      },
      "nonce": 333,
      "data": "0x",
      "r": "0x522a07680ad7760255538890003d7e826265327e4a024aaa736e9dedc910a603",
      "s": "0x629aa04471f554cdca4ea5afca6bad5871f041b8d6355ff6c5c5b642b6c73443",
      "v": 28,
      "creates": null,
      "raw": "0xf86f82014d850d7d874b158252089414101dabf1212bb2d77c70e121aa394c4293af74890c326ed06ce7038000801ca0522a07680ad7760255538890003d7e826265327e4a024aaa736e9dedc910a603a0629aa04471f554cdca4ea5afca6bad5871f041b8d6355ff6c5c5b642b6c73443",
      "networkId": 0,
      "chainId": 0
    }
  ]
}