{
  "hash": "0xc4cfd96b0425c51c979280a2d21d570959148dd5ad0cb750e3cb82187f3ed456",
  "parentHash": "0x0e76aa05c3090ee3166cb46f831dc8890b72469d87cc88cd38139e2b79954cb0",
  "number": 75905,
  "timestamp": 1439411595,
  "nonce": "0xf92889a11870d2e1",
  "difficulty": 2226587013981,
  "gasLimit": {
    "_hex": "0x2fefd8"
  },
  "gasUsed": {
    "_hex": "0x5208"
  },
  "miner": "0xC603Ab5ef41fC61AA8b76bEddb09e3Cfcbb174BD",
  "extraData": "0x476574682f76312e302e312f77696e646f77732f676f312e342e32",
  "transactions": [
    {
      "hash": "0xe89a8504176e5077ef34aec6b72d1d03640a96fc39bd0e58ddd454d699c455c2",
      "blockHash": "0xc4cfd96b0425c51c979280a2d21d570959148dd5ad0cb750e3cb82187f3ed456",
      "blockNumber": 75905,
      "transactionIndex": 0,
      "confirmations": null,
      "from": "0x120A270bbC009644e35F0bB6ab13f95b8199c4ad",
      "gasPrice": {
        "_hex": "0xdba2d6e5f"
      },
      "gasLimit": {
        "_hex": "0x3d090"
      },
      "to": "0x76Df61770A702069FE1381EAE55AD11A03dEcA93",
      "value": {
        "_hex": "0x16345785d8a0000"
      },
      "nonce": 299,
      "data": "0x",
      "r": "0xf43c1c1ca46ecfe3050029ae6638cd811a94651348bb7d3509a3bcde01c9f507",
      "s": "0x23a2b45e06c90521a65fd1bb954dfbd171ddd6662d64656c9c1940dc2dfe9515",
      "v": 28,
      "creates": null,
      "raw": "0xf86f82012b850dba2d6e5f8303d0909476df61770a702069fe1381eae55ad11a03deca9388016345785d8a0000801ca0f43c1c1ca46ecfe3050029ae6638cd811a94651348bb7d3509a3bcde01c9f507a023a2b45e06c90521a65fd1bb954dfbd171ddd6662d64656c9c1940dc2dfe9515",
      "networkId": 0,
      "chainId": 0
    }
  ]
}