{
  "hash": "0xa620fdf525397a365bf54ef565b068c9285762c2a96b18fd208c81555e2b35ab",
  "parentHash": "0x7fd2b7926e083e2258728a9ff5cdce29cb5d1f4ca74108f7c9781cd8266d98b5",
  "number": 54067,
  "timestamp": 1439048095,
  "nonce": "0x0eb05fa26b196074",
  "difficulty": 1604793467755,
  "gasLimit": {
    "_hex": "0x2fefd8"
  },
  "gasUsed": {
    "_hex": "0xc350"
  },
  "miner": "0x753562eEA69CD2D342A9c07EDD49b9753dc0F01e",
  "extraData": "0x476574682f76312e302e312f6c696e75782f676f312e342e32",
  "transactions": [
    {
      "hash": "0x195fafa7cb4eb5f72c8810866fe77a08b0fecab63d331e87affa98383a181cc2",
      "blockHash": "0xa620fdf525397a365bf54ef565b068c9285762c2a96b18fd208c81555e2b35ab",
      "blockNumber": 54067,
      "transactionIndex": 0,
      "confirmations": null,
      "from": "0xC151A0473225AE2768CF864F30ef38AC4b36C06C",
      "gasPrice": {
        "_hex": "0xd02b17e6e"
      },
      "gasLimit": {
        "_hex": "0xc350"
      },
      "to": "0x109C4f2CCc82C4d77Bde15F306707320294Aea3F",
      "value": {
        "_hex": "0xde0b6b3a7640000"
      },
      "nonce": 0,
      "data": "0x",
      "r": "0x7bd893d3cad9932add56d90ab936c85e533eab14927f83c45bd25d9d30e4bc29",
      "s": "0x7ab66e7f1f50cf82fc5bac3d67e26798855e2477367322c154ce871157146a04",
      "v": 27,
      "creates": null,
      "raw": "0xf86c80850d02b17e6e82c35094109c4f2ccc82c4d77bde15f306707320294aea3f880de0b6b3a7640000801ba07bd893d3cad9932add56d90ab936c85e533eab14927f83c45bd25d9d30e4bc29a07ab66e7f1f50cf82fc5bac3d67e26798855e2477367322c154ce871157146a04",
      "networkId": 0,
      "chainId": 0
    }
  ]
}