{
  "hash": "0xd46ca0022571e68387bcff0239f34ec8d9483c91ccca2dfbf692aab024a7f41b",
  "parentHash": "0xa32ab4bfb83d5cbe6a593641ee9ef6e3f9a6a10ef10da63e4a20a126675c68c1",
  "number": 122060,
  "timestamp": 1440187530,
  "nonce": "0xfaa6a052feef28e3",
  "difficulty": 4457887090597,
  "gasLimit": {
    "_hex": "0x2fefd8"
  },
  "gasUsed": {
    "_hex": "0x5208"
  },
  "miner": "0x52bc44d5378309EE2abF1539BF71dE1b7d7bE3b5",
  "extraData": "0xd783010002844765746887676f312e342e32856c696e7578",
  "transactions": [
    {
      "hash": "0xee31492e45161bbd834e81eea33b8278999e45ecde093f17667868be6a14e87e",
      "blockHash": "0xd46ca0022571e68387bcff0239f34ec8d9483c91ccca2dfbf692aab024a7f41b",
      "blockNumber": 122060,
      "transactionIndex": 0,
      "confirmations": null,
      "from": "0xBeEC2A78aD28d873e968C60963cD2Fdf396FB594",
      "gasPrice": {
        "_hex": "0xcad9657c9"
      },
      "gasLimit": {
        "_hex": "0x15f90"
      },
      "to": "0x9b0a028EAfDeCdE3AFc0fD00B7937098388b7C8a",
      "value": {
        "_hex": "0xcc1e7b8c964a0b5e8"
      },
      "nonce": 3,
      "data": "0x",
      "r": "0xb16f9dfde833bba563526ad38a632547b318ffe20975df365f2025a5b644f0a6",
      "s": "0x54191099572fbb4cc9869003e4271dd4fddc0e88f8a944a946a375e8890ff49a",
      "v": 28,
      "creates": null,
      "raw": "0xf86e03850cad9657c983015f90949b0a028eafdecde3afc0fd00b7937098388b7c8a890cc1e7b8c964a0b5e8801ca0b16f9dfde833bba563526ad38a632547b318ffe20975df365f2025a5b644f0a6a054191099572fbb4cc9869003e4271dd4fddc0e88f8a944a946a375e8890ff49a",
      "networkId": 0,
      "chainId": 0
    }
  ]
}