{
  "hash": "0x2831774885790119b8d08dd7fd46d036e8eb203f195faf36ed0366125c261ab8",
  "parentHash": "0x9547c3c64e4608f9d95bdb64de8114fb9d199b79e95e89d20411b1919964c874",
  "number": 91894,
  "timestamp": 1439663367,
  "nonce": "0x9fa9f767976c687f",
  "difficulty": 3474120201698,
  "gasLimit": {
    "_hex": "0x2fefd8"
  },
  "gasUsed": {
    "_hex": "0x5208"
  },
  "miner": "0xaB638742EBe3A78F2a85028350e1AADB86C0a6ed",
  "extraData": "0x",
  "transactions": [
    {
      "hash": "0x3af5923ba01ee4ec711079f8880f36b0038df7bd3f7c87a837926e2fbf37abc2",
      "blockHash": "0x2831774885790119b8d08dd7fd46d036e8eb203f195faf36ed0366125c261ab8",
      "blockNumber": 91894,
      "transactionIndex": 0,
      "confirmations": null,
      "from": "0x76d4a9bc9612bE738A81d0fE632b00B971E2bB9a",
      "gasPrice": {
        "_hex": "0xdadb59fad"
      },
      "gasLimit": {
        "_hex": "0x55f0"
      },
      "to": "0xb50405193Dc0c7077dD65252C15C39242F0aCB76",
      "value": {
        "_hex": "0x1e5b8fa8fe2ac0000"
      },
      "nonce": 7,
      "data": "0x",
      "r": "0x6be24aa5e3527e6a1692ac7176747074d35c305fc6ec4609ec4e928ab45b3e05",
      "s": "0x7c298192a81f4b5ff3770fd2b44a65b43cb3ddc63c5bfbde67a87a93a4769239",
      "v": 28,
      "creates": null,
      "raw": "0xf86d07850dadb59fad8255f094b50405193dc0c7077dd65252c15c39242f0acb768901e5b8fa8fe2ac0000801ca06be24aa5e3527e6a1692ac7176747074d35c305fc6ec4609ec4e928ab45b3e05a07c298192a81f4b5ff3770fd2b44a65b43cb3ddc63c5bfbde67a87a93a4769239",
      "networkId": 0,
      "chainId": 0
    }
  ]
}