{
  "hash": "0xfb8ca3138bb0af53379e02e9b9c92af2151a92eab8477ef08ee55e5b0b50ab6f",
  "parentHash": "0x14184684114937842d7eb835f1890ef2ddddb086f24174588ad0742e64882ea3",
  "number": 81044,
  "timestamp": 1439495180,
  "nonce": "0xb1128b172b50b848",
  "difficulty": 2430838410348,
  "gasLimit": {
    "_hex": "0x2fe3fc"
  },
  "gasUsed": {
    "_hex": "0x5208"
  },
  "miner": "0x48CD680bb700F6b7DE89Dd9FF4932CcC158c3e05",
  "extraData": "0x476574682f76312e302e302d65376634323332622f6c696e75782f676f312e34",
  "transactions": [
    {
      "hash": "0xed75f6063aee5ffe5466a1499563014d8b80497379d1129cd00697fc26bdd1c0",
      "blockHash": "0xfb8ca3138bb0af53379e02e9b9c92af2151a92eab8477ef08ee55e5b0b50ab6f",
      "blockNumber": 81044,
      "transactionIndex": 0,
      "confirmations": null,
      "from": "0x33F36DffD23cf019833E1d59cBc7138824b12289",
      "gasPrice": {
        "_hex": "0x746a528800"
      },
      "gasLimit": {
        "_hex": "0x5267"
      },
      "to": "0x117D2945355d346cE6637d6D5CC9A9E46CB43B73",
      "value": {
        "_hex": "0x2ed6689e54f180000"
      },
      "nonce": 4,
      "data": "0x",
      "r": "0xfe9d93ff00deb160af19550851ed62f2307e54977a6b0d3fb425387207fe5421",
      "s": "0xb49b5b0f3ba7834fe64363547d3fa8bd831ea5ab4b696ad5ce6c0307bcb3e02e",
      "v": 27,
      "creates": null,
      "raw": "0xf86d0485746a52880082526794117d2945355d346ce6637d6d5cc9a9e46cb43b738902ed6689e54f180000801ba0fe9d93ff00deb160af19550851ed62f2307e54977a6b0d3fb425387207fe5421a0b49b5b0f3ba7834fe64363547d3fa8bd831ea5ab4b696ad5ce6c0307bcb3e02e",
      "networkId": 0,
      "chainId": 0
    }
  ]
}