{
  "hash": "0x4b0490f8bbd85bac34b5424a10899383396eaf7e7a589e2401f4cf0050299cf6",
  "parentHash": "0x04f7c1d5aea3609cda1f5a6ee59696e47af0171659d21bf6c6125d06f8f043dc",
  "number": 80852,
  "timestamp": 1439492071,
  "nonce": "0xf92b33b8a9834667",
  "difficulty": 2445179380101,
  "gasLimit": {
    "_hex": "0x2fefd8"
  },
  "gasUsed": {
    "_hex": "0x5208"
  },
  "miner": "0xC603Ab5ef41fC61AA8b76bEddb09e3Cfcbb174BD",
  "extraData": "0x476574682f76312e302e312f77696e646f77732f676f312e342e32",
  "transactions": [
    {
      "hash": "0xf33032fb6e276fb59bed3a28a0276933383569a02c46f67213ccf7fc217e6674",
      "blockHash": "0x4b0490f8bbd85bac34b5424a10899383396eaf7e7a589e2401f4cf0050299cf6",
      "blockNumber": 80852,
      "transactionIndex": 0,
      "confirmations": null,
      "from": "0x900deD2eC098c430caD5347E6F3322932D7BB3a9",
      "gasPrice": {
        "_hex": "0xd5bfb5c73"
      },
      "gasLimit": {
        "_hex": "0x15f90"
      },
      "to": "0xaA9485EBA854ABA86Bfdd64C8f4f08Badd0f31C3",
      "value": {
        "_hex": "0x43bdaf0355e020000"
      },
      "nonce": 1,
      "data": "0x",
      "r": "0x4dd62b56f33ed0fcf6d5778b98a271075f6f94a7eea5194c149987cb50ca77cf",
      "s": "0x63964750ab778c7cf26837476d7293022342407d993fcb79f8b78a79baf220c3",
      "v": 28,
      "creates": null,
      "raw": "0xf86e01850d5bfb5c7383015f9094aa9485eba854aba86bfdd64c8f4f08badd0f31c389043bdaf0355e020000801ca04dd62b56f33ed0fcf6d5778b98a271075f6f94a7eea5194c149987cb50ca77cfa063964750ab778c7cf26837476d7293022342407d993fcb79f8b78a79baf220c3",
      "networkId": 0,
      "chainId": 0
    }
  ]
}