{
  "hash": "0x5c58f329bfe1b04725880cefe09db7d0f322229c793bda4b934045d7f6dab892",
  "parentHash": "0x82075c0e57e3d987f0a4f4300c79a981b3a01104d21af8a131456bfd18e493ef",
  "number": 79413,
  "timestamp": 1439469201,
  "nonce": "0x677d7304a391f72d",
  "difficulty": 2343884407780,
  "gasLimit": {
    "_hex": "0x2fefd8"
  },
  "gasUsed": {
    "_hex": "0xa410"
  },
  "miner": "0x4556CB03aD3E0c1104e66065A9A0C20bD13163ac",
  "extraData": "0x",
  "transactions": [
    {
      "hash": "0x5c8a8d577f4565cd1d43cf7eb0ef49e404f1f9fe5fd3df6a2c4699cfdf4c7027",
      "blockHash": "0x5c58f329bfe1b04725880cefe09db7d0f322229c793bda4b934045d7f6dab892",
      "blockNumber": 79413,
      "transactionIndex": 0,
      "confirmations": null,
      "from": "0xaC49eeb6a55aF554D86d37b4A4eA7940010866E1",
      "gasPrice": {
        "_hex": "0xd546a4c61"
      },
      "gasLimit": {
        "_hex": "0x15f90"
      },
      "to": "0xc97b6E47df229442524F8f210926557900f81574",
      "value": {
        "_hex": "0x13f306a2409fc0000"
      },
      "nonce": 4,
      "data": "0x",
      "r": "0xc2058d62e5b82d3c1f9fc32b5a8b3c1eb29e93eddafc876b1517c846d900fda2",
      "s": "0x21e2b5c2690e34921559fc6d0e498c58d45571dd6a67aac62fd34a16462d7637",
      "v": 28,
      "creates": null,
      "raw": "0xf86e04850d546a4c6183015f9094c97b6e47df229442524f8f210926557900f8157489013f306a2409fc0000801ca0c2058d62e5b82d3c1f9fc32b5a8b3c1eb29e93eddafc876b1517c846d900fda2a021e2b5c2690e34921559fc6d0e498c58d45571dd6a67aac62fd34a16462d7637",
      "networkId": 0,
      "chainId": 0
    },
    {
      "hash": "0x47a09f28b80f870bfd9ff40b3a9c4294e1a97459a78256b8f188be79d693c0dc",
      "blockHash": "0x5c58f329bfe1b04725880cefe09db7d0f322229c793bda4b934045d7f6dab892",
      "blockNumber": 79413,
      "transactionIndex": 1,
      "confirmations": null,
      "from": "0x727A42a8D67fcaa0Ab81D46f1EE66bfc9b8789AC",
      "gasPrice": {
        "_hex": "0xd123a2f95"
      },
      "gasLimit": {
        "_hex": "0x15f90"
      },
      "to": "0x285B048CC4cB946abCF3eF11aDe982C36946AF18",
      "value": {
        "_hex": "0x46c6d6faa27e0000"
      },
      "nonce": 8,
      "data": "0x",
      "r": "0xa0aa3e1f773863cdee39853539c1c27db4bd45361d5a70275b272f7867edbc20",
      "s": "0x59d5354faecd2b6ba1be3d812ea6dc14dd0e40b8066fa97db6a341f198e9163b",
      "v": 27,
      "creates": null,
      "raw": "0xf86d08850d123a2f9583015f9094285b048cc4cb946abcf3ef11ade982c36946af188846c6d6faa27e0000801ba0a0aa3e1f773863cdee39853539c1c27db4bd45361d5a70275b272f7867edbc20a059d5354faecd2b6ba1be3d812ea6dc14dd0e40b8066fa97db6a341f198e9163b",
      "networkId": 0,
      "chainId": 0
    }
  ]
}