{
  "hash": "0xf11b26ccfd11c688f3d821128adbb6f97bdecbbc6387f50e07cd3d05e4acc940",
  "parentHash": "0x4f126d948e4432be92f476454d1110a06520fe7a25123b5e746dd788ce78d4cf",
  "number": 50716,
  "timestamp": 1438993571,
  "nonce": "0x96d567a97fe6af23",
  "difficulty": 1537161453296,
  "gasLimit": {
    "_hex": "0x73ee2"
  },
  "gasUsed": {
    "_hex": "0x5208"
  },
  "miner": "0x123843545FB525C8E134c9A5F15ADA6865cc3848",
  "extraData": "0x476574682f76312e302e312f77696e646f77732f676f312e342e32",
  "transactions": [
    {
      "hash": "0x28295467b7e5a4765c4a2c0918164cb53c56b6e4cdf17d00305802320d41eb19",
      "blockHash": "0xf11b26ccfd11c688f3d821128adbb6f97bdecbbc6387f50e07cd3d05e4acc940",
      "blockNumber": 50716,
      "transactionIndex": 0,
      "confirmations": null,
      "from": "0x2ddF40905769BcC426CB2c2938ffE077e1E89D98",
      "gasPrice": {
        "_hex": "0xdf8475800"
      },
      "gasLimit": {
        "_hex": "0x5208"
      },
      "to": "0xE52F3039aE6D54885703588D0F8726596022ff9D",
      "value": {
        "_hex": "0xde0b6b3a7640000"
      },
      "nonce": 1,
      "data": "0x",
      "r": "0xfb950fc0ba9eacb0f3e21e0106223b8fc0b6d73b0ceeb9a35b1e5c6fbae50fed",
      "s": "0x72dd3cb4c856d7f95dff2239eed12eea2e60642fcd6c653188400784f9612b2d",
      "v": 27,
      "creates": null,
      "raw": "0xf86c01850df847580082520894e52f3039ae6d54885703588d0f8726596022ff9d880de0b6b3a7640000801ba0fb950fc0ba9eacb0f3e21e0106223b8fc0b6d73b0ceeb9a35b1e5c6fbae50feda072dd3cb4c856d7f95dff2239eed12eea2e60642fcd6c653188400784f9612b2d",
      "networkId": 0,
      "chainId": 0
    }
  ]
}