{
  "hash": "0x723d7102d94cd98749bde3743154f033320658af2cfe75c4c83aa4288bde3131",
  "parentHash": "0x2ccd93d8c38e5ec948ba2c100c707cbf3f5d94a3d8b0254518150cd9d19872e5",
  "number": 72202,
  "timestamp": 1439349043,
  "nonce": "0xd35d5e0e7f79f36d",
  "difficulty": 2168543810577,
  "gasLimit": {
    "_hex": "0x2fefd8"
  },
  "gasUsed": {
    "_hex": "0x64dc5"
  },
  "miner": "0xe6A7a1d47ff21B6321162AEA7C6CB457D5476Bca",
  "extraData": "0x476574682f76312e302e312d38326566323666362f6c696e75782f676f312e34",
  "transactions": [
    {
      "hash": "0xeac503c5d8d2cb8d82ef26f9b9e3d57b5dd0da1d380eaa1cad57176006f3de40",
      "blockHash": "0x723d7102d94cd98749bde3743154f033320658af2cfe75c4c83aa4288bde3131",
      "blockNumber": 72202,
      "transactionIndex": 0,
      "confirmations": null,
      "from": "0x17580B766f7453525ca4C6A88b01b50570EA088C",
      "gasPrice": {
        "_hex": "0xd73bdef89"
      },
      "gasLimit": {
        "_hex": "0x61a80"
      },
      "to": "0x5Fe5B7546D1628f7348B023A0393de1FC825A4fD",
      "value": {
        "_hex": "0x8ac7230489e80000"
      },
      "nonce": 362,
      "data": "0xb595b8b50000000000000000000000000000000000000000000000000000000000000001",
      "r": "0x384f44f913d43123b39b4c9170913c33a0d73a9e73e15ffa176c5bf2c8e7a538",
      "s": "0x67a6be46caefa30db907309861d666b7224612cf093764e0b0e4c67364bbca96",
      "v": 27,
      "creates": null,
      "raw": "0xf89382016a850d73bdef8983061a80945fe5b7546d1628f7348b023a0393de1fc825a4fd888ac7230489e80000a4b595b8b500000000000000000000000000000000000000000000000000000000000000011ba0384f44f913d43123b39b4c9170913c33a0d73a9e73e15ffa176c5bf2c8e7a538a067a6be46caefa30db907309861d666b7224612cf093764e0b0e4c67364bbca96",
      "networkId": 0,
      "chainId": 0
    },
    {
      "hash": "0x599aa4d034b295c1296ca32229b526938cc240a59d2f0b12fdeca4b1b6cf04cb",
      "blockHash": "0x723d7102d94cd98749bde3743154f033320658af2cfe75c4c83aa4288bde3131",
      "blockNumber": 72202,
      "transactionIndex": 1,
      "confirmations": null,
      "from": "0x17580B766f7453525ca4C6A88b01b50570EA088C",
      "gasPrice": {
        "_hex": "0xd73bdef89"
      },
      "gasLimit": {
        "_hex": "0x61a80"
      },
      "to": "0x5Fe5B7546D1628f7348B023A0393de1FC825A4fD",
      "value": {
        "_hex": "0x8ac7230489e80000"
      },
      "nonce": 363,
      "data": "0xb595b8b50000000000000000000000000000000000000000000000000000000000000001",
      "r": "0xec9dc878e35c38811029e7ff84c8211452f1ddf8a1f2e6b93d6c737607edba2a",
      "s": "0x6784ac507db68824d5e924a840f6e0f816044249ebbd66e4be9ba7220532ab61",
      "v": 28,
      "creates": null,
      "raw": "0xf89382016b850d73bdef8983061a80945fe5b7546d1628f7348b023a0393de1fc825a4fd888ac7230489e80000a4b595b8b500000000000000000000000000000000000000000000000000000000000000011ca0ec9dc878e35c38811029e7ff84c8211452f1ddf8a1f2e6b93d6c737607edba2aa06784ac507db68824d5e924a840f6e0f816044249ebbd66e4be9ba7220532ab61",
      "networkId": 0,
      "chainId": 0
    },
    {
      "hash": "0x4a8e99417240717cce5a395a6fa86b1c0293613c8e66921553c49c00178346bd",
      "blockHash": "0x723d7102d94cd98749bde3743154f033320658af2cfe75c4c83aa4288bde3131",
      "blockNumber": 72202,
      "transactionIndex": 2,
      "confirmations": null,
      "from": "0x17580B766f7453525ca4C6A88b01b50570EA088C",
      "gasPrice": {
        "_hex": "0xd73bdef89"
      },
      "gasLimit": {
        "_hex": "0x61a80"
      },
      "to": "0x5Fe5B7546D1628f7348B023A0393de1FC825A4fD",
      "value": {
        "_hex": "0x8ac7230489e80000"
      },
      "nonce": 364,
      "data": "0xb595b8b50000000000000000000000000000000000000000000000000000000000000001",
      "r": "0xdad6d1aeeb099d15b2516b60ec1e73105480434967f2924a5a23587c3fa254f5",
      "s": "0x56ea2e8d792d1b62cec576f8cc858101641a8d2b8ebcb388b5436ba41d160c16",
      "v": 28,
      "creates": null,
      "raw": "0xf89382016c850d73bdef8983061a80945fe5b7546d1628f7348b023a0393de1fc825a4fd888ac7230489e80000a4b595b8b500000000000000000000000000000000000000000000000000000000000000011ca0dad6d1aeeb099d15b2516b60ec1e73105480434967f2924a5a23587c3fa254f5a056ea2e8d792d1b62cec576f8cc858101641a8d2b8ebcb388b5436ba41d160c16",
      "networkId": 0,
      "chainId": 0
    },
    {
      "hash": "0x5c0c2a3495f707d8d530cd273bdc95d32473a344cbe56fa7aedec7fcd65b71e1",
      "blockHash": "0x723d7102d94cd98749bde3743154f033320658af2cfe75c4c83aa4288bde3131",
      "blockNumber": 72202,
      "transactionIndex": 3,
      "confirmations": null,
      "from": "0x17580B766f7453525ca4C6A88b01b50570EA088C",
      "gasPrice": {
        "_hex": "0xd73bdef89"
      },
      "gasLimit": {
        "_hex": "0x61a80"
      },
      "to": "0x5Fe5B7546D1628f7348B023A0393de1FC825A4fD",
      "value": {
        "_hex": "0x8ac7230489e80000"
      },
      "nonce": 365,
      "data": "0xb595b8b50000000000000000000000000000000000000000000000000000000000000001",
      "r": "0x0e536c63675f35f44107bcdfbea2aa7fd257c6f15ca7878195debe907ef0cd1c",
      "s": "0x502aa9ceab427998a2302bfe239a2a765f92e47fc3a53c3d543cb52868667303",
      "v": 27,
      "creates": null,
      "raw": "0xf89382016d850d73bdef8983061a80945fe5b7546d1628f7348b023a0393de1fc825a4fd888ac7230489e80000a4b595b8b500000000000000000000000000000000000000000000000000000000000000011ba00e536c63675f35f44107bcdfbea2aa7fd257c6f15ca7878195debe907ef0cd1ca0502aa9ceab427998a2302bfe239a2a765f92e47fc3a53c3d543cb52868667303",
      "networkId": 0,
      "chainId": 0
    },
    {
      "hash": "0x9d1e7c83bcb5fb9b710963622b15cfbdc1e2362876355d03caf54f9dba3ed474",
      "blockHash": "0x723d7102d94cd98749bde3743154f033320658af2cfe75c4c83aa4288bde3131",
      "blockNumber": 72202,
      "transactionIndex": 4,
      "confirmations": null,
      "from": "0x17580B766f7453525ca4C6A88b01b50570EA088C",
      "gasPrice": {
        "_hex": "0xd73bdef89"
      },
      "gasLimit": {
        "_hex": "0x61a80"
      },
      "to": "0x5Fe5B7546D1628f7348B023A0393de1FC825A4fD",
      "value": {
        "_hex": "0x8ac7230489e80000"
      },
      "nonce": 366,
      "data": "0xb595b8b50000000000000000000000000000000000000000000000000000000000000001",
      "r": "0x9045361ddd2978c16000554f78cf5aec46e918a7ea189da470c950144eb336c1",
      "s": "0x51c300b36909c15bf543480de79fe33b909163947315486633ace0503ec69583",
      "v": 27,
      "creates": null,
      "raw": "0xf89382016e850d73bdef8983061a80945fe5b7546d1628f7348b023a0393de1fc825a4fd888ac7230489e80000a4b595b8b500000000000000000000000000000000000000000000000000000000000000011ba09045361ddd2978c16000554f78cf5aec46e918a7ea189da470c950144eb336c1a051c300b36909c15bf543480de79fe33b909163947315486633ace0503ec69583",
      "networkId": 0,
      "chainId": 0
    },
    {
      "hash": "0x8b5813a7d333c38dcfe52f079fb66521717a02aab6a1f4ebd92b2dc34ccb58f5",
      "blockHash": "0x723d7102d94cd98749bde3743154f033320658af2cfe75c4c83aa4288bde3131",
      "blockNumber": 72202,
      "transactionIndex": 5,
      "confirmations": null,
      "from": "0x17580B766f7453525ca4C6A88b01b50570EA088C",
      "gasPrice": {
        "_hex": "0xd73bdef89"
      },
      "gasLimit": {
        "_hex": "0x61a80"
      },
      "to": "0x5Fe5B7546D1628f7348B023A0393de1FC825A4fD",
      "value": {
        "_hex": "0x8ac7230489e80000"
      },
      "nonce": 367,
      "data": "0xb595b8b50000000000000000000000000000000000000000000000000000000000000001",
      "r": "0x99c3791ea060c9c10106a495e068e888b4aaa60ff9886620ac4416ee549696aa",
      "s": "0x0cf50af1d94ffc05d7ddd9b311f3f58ce1a5e5b690c81b3d3ffcd4ae43c6341d",
      "v": 28,
      "creates": null,
      "raw": "0xf89382016f850d73bdef8983061a80945fe5b7546d1628f7348b023a0393de1fc825a4fd888ac7230489e80000a4b595b8b500000000000000000000000000000000000000000000000000000000000000011ca099c3791ea060c9c10106a495e068e888b4aaa60ff9886620ac4416ee549696aaa00cf50af1d94ffc05d7ddd9b311f3f58ce1a5e5b690c81b3d3ffcd4ae43c6341d",
      "networkId": 0,
      "chainId": 0
    },
    {
      "hash": "0x15003b518b8e0a1c0a830a2ffded9715891da9ec308a1c6862b50ce977fdf5ca",
      "blockHash": "0x723d7102d94cd98749bde3743154f033320658af2cfe75c4c83aa4288bde3131",
      "blockNumber": 72202,
      "transactionIndex": 6,
      "confirmations": null,
      "from": "0x17580B766f7453525ca4C6A88b01b50570EA088C",
      "gasPrice": {
        "_hex": "0xd73bdef89"
      },
      "gasLimit": {
        "_hex": "0x61a80"
      },
      "to": "0x5Fe5B7546D1628f7348B023A0393de1FC825A4fD",
      "value": {
        "_hex": "0x8ac7230489e80000"
      },
      "nonce": 368,
      "data": "0xb595b8b50000000000000000000000000000000000000000000000000000000000000001",
      "r": "0xec40addba16c8f01034c8b5a587f3bcc979560ac293551666ca9c67120aed719",
      "s": "0x504c08a5b329b1b97fa1713a7cc1cf1e2617bc2f19181630af70261c5d488771",
      "v": 28,
      "creates": null,
      "raw": "0xf893820170850d73bdef8983061a80945fe5b7546d1628f7348b023a0393de1fc825a4fd888ac7230489e80000a4b595b8b500000000000000000000000000000000000000000000000000000000000000011ca0ec40addba16c8f01034c8b5a587f3bcc979560ac293551666ca9c67120aed719a0504c08a5b329b1b97fa1713a7cc1cf1e2617bc2f19181630af70261c5d488771",
      "networkId": 0,
      "chainId": 0
    },
    {
      "hash": "0x4df2d1e9c717f674d1294269c6f38e75cd3f3f1443e9e05495839be05787c9c5",
      "blockHash": "0x723d7102d94cd98749bde3743154f033320658af2cfe75c4c83aa4288bde3131",
      "blockNumber": 72202,
      "transactionIndex": 7,
      "confirmations": null,
      "from": "0x17580B766f7453525ca4C6A88b01b50570EA088C",
      "gasPrice": {
        "_hex": "0xd73bdef89"
      },
      "gasLimit": {
        "_hex": "0x61a80"
      },
      "to": "0x5Fe5B7546D1628f7348B023A0393de1FC825A4fD",
      "value": {
        "_hex": "0x8ac7230489e80000"
      },
      "nonce": 369,
      "data": "0xb595b8b50000000000000000000000000000000000000000000000000000000000000001",
      "r": "0x62e2a0b67782e8518438554854536d3d2f5be6190ada7a50ef7e1663866db681",
      "s": "0x737d26131abb8592b265659a0e440bcae06b5eab182f6f85f8ec5a6fe9fca235",
      "v": 27,
      "creates": null,
      "raw": "0xf893820171850d73bdef8983061a80945fe5b7546d1628f7348b023a0393de1fc825a4fd888ac7230489e80000a4b595b8b500000000000000000000000000000000000000000000000000000000000000011ba062e2a0b67782e8518438554854536d3d2f5be6190ada7a50ef7e1663866db681a0737d26131abb8592b265659a0e440bcae06b5eab182f6f85f8ec5a6fe9fca235",
      "networkId": 0,
      "chainId": 0
    },
    {
      "hash": "0x533e7d8b206a8f52b194f5b8ed91debc018590d8912b60045a57bdfbc8f26b3b",
      "blockHash": "0x723d7102d94cd98749bde3743154f033320658af2cfe75c4c83aa4288bde3131",
      "blockNumber": 72202,
      "transactionIndex": 8,
      "confirmations": null,
      "from": "0x17580B766f7453525ca4C6A88b01b50570EA088C",
      "gasPrice": {
        "_hex": "0xd73bdef89"
      },
      "gasLimit": {
        "_hex": "0x61a80"
      },
      "to": "0x5Fe5B7546D1628f7348B023A0393de1FC825A4fD",
      "value": {
        "_hex": "0x8ac7230489e80000"
      },
      "nonce": 370,
      "data": "0xb595b8b50000000000000000000000000000000000000000000000000000000000000001",
      "r": "0xe65642e4062f87d00bd58ef4b39de83ee1acdd51ffc7a47d422714a1b0588b54",
      "s": "0x69fa7b6cc4b77c20202eba639dc101fd918aa7230c7923809c456fe15af6bf8f",
      "v": 27,
      "creates": null,
      "raw": "0xf893820172850d73bdef8983061a80945fe5b7546d1628f7348b023a0393de1fc825a4fd888ac7230489e80000a4b595b8b500000000000000000000000000000000000000000000000000000000000000011ba0e65642e4062f87d00bd58ef4b39de83ee1acdd51ffc7a47d422714a1b0588b54a069fa7b6cc4b77c20202eba639dc101fd918aa7230c7923809c456fe15af6bf8f",
      "networkId": 0,
      "chainId": 0
    },
    {
      "hash": "0x84a9416425cf365616e11a18d4756dedab20eede52676145c711364395531637",
      "blockHash": "0x723d7102d94cd98749bde3743154f033320658af2cfe75c4c83aa4288bde3131",
      "blockNumber": 72202,
      "transactionIndex": 9,
      "confirmations": null,
      "from": "0x17580B766f7453525ca4C6A88b01b50570EA088C",
      "gasPrice": {
        "_hex": "0xd73bdef89"
      },
      "gasLimit": {
        "_hex": "0x61a80"
      },
      "to": "0x5Fe5B7546D1628f7348B023A0393de1FC825A4fD",
      "value": {
        "_hex": "0x8ac7230489e80000"
      },
      "nonce": 371,
      "data": "0xb595b8b50000000000000000000000000000000000000000000000000000000000000001",
      "r": "0xce3aa56630a847500a0ccf23f1208c4c212a0553a6ad8fd954d2ab0cff0317e4",
      "s": "0x5d73661b03e022bb6925df1f7819b6f3794e0ec121510c7b88eba58e5f117f3b",
      "v": 27,
      "creates": null,
      "raw": "0xf893820173850d73bdef8983061a80945fe5b7546d1628f7348b023a0393de1fc825a4fd888ac7230489e80000a4b595b8b500000000000000000000000000000000000000000000000000000000000000011ba0ce3aa56630a847500a0ccf23f1208c4c212a0553a6ad8fd954d2ab0cff0317e4a05d73661b03e022bb6925df1f7819b6f3794e0ec121510c7b88eba58e5f117f3b",
      "networkId": 0,
      "chainId": 0
    }
  ]
}