{
  "hash": "0xea63d54c088e7039cf770a72233078d71c6b735c36831f764f18a7bf23355d2d",
  "parentHash": "0xf056940dc2f3d3a88d2ab1ec7d166f4fb1b425bcc8fe5e34214ca5cf37332bce",
  "number": 76313,
  "timestamp": 1439418337,
  "nonce": "0xffaa24000e757342",
  "difficulty": 2219965379501,
  "gasLimit": {
    "_hex": "0x2fefd8"
  },
  "gasUsed": {
    "_hex": "0x15f90"
  },
  "miner": "0xC603Ab5ef41fC61AA8b76bEddb09e3Cfcbb174BD",
  "extraData": "0x476574682f76312e302e312f77696e646f77732f676f312e342e32",
  "transactions": [
    {
      "hash": "0x3fb7625f457d0871329045995b2e1794b712b091a9ab24c7274200e9ebd7411e",
      "blockHash": "0xea63d54c088e7039cf770a72233078d71c6b735c36831f764f18a7bf23355d2d",
      "blockNumber": 76313,
      "transactionIndex": 0,
      "confirmations": null,
      "from": "0x84505745115a8C041C0c4A7F9d3Ca52a5bf375f4",
      "gasPrice": {
        "_hex": "0x10b7009adaf"
      },
      "gasLimit": {
        "_hex": "0x15f90"
      },
      "to": "0x35E57F2b08596f1946ECD9D31975eC3c2D7e1C1D",
      "value": {
        "_hex": "0x1"
      },
      "nonce": 2,
      "data": "0xe2543d1c0000000000000000000000000000000000000000000000000000000000000028",
      "r": "0xba7ab19559b102d1636edfef4d5696024eeddd5b2442e7d5e85ef016442e330e",
      "s": "0x20adc7f94a41d9469a5a138626e43116ed18dce494f9afd4c40ba0d5e25d5f0e",
      "v": 28,
      "creates": null,
      "raw": "0xf88a0286010b7009adaf83015f909435e57f2b08596f1946ecd9d31975ec3c2d7e1c1d01a4e2543d1c00000000000000000000000000000000000000000000000000000000000000281ca0ba7ab19559b102d1636edfef4d5696024eeddd5b2442e7d5e85ef016442e330ea020adc7f94a41d9469a5a138626e43116ed18dce494f9afd4c40ba0d5e25d5f0e",
      "networkId": 0,
      "chainId": 0
    }
  ]
}