{
  "hash": "0x730a83cb3aebc8d47c50fd541e608cd1b0bd1fd91a7a4967bb8df010a709c005",
  "parentHash": "0xd8c13e4fd5624b5a1a6aa9beefb5392f6a3da931bb286e9d2968cbc9df7a8c28",
  "number": 80903,
  "timestamp": 1439493038,
  "nonce": "0x37704f2be9c1c304",
  "difficulty": 2436821284264,
  "gasLimit": {
    "_hex": "0x2fefd5"
  },
  "gasUsed": {
    "_hex": "0x14820"
  },
  "miner": "0xe6A7a1d47ff21B6321162AEA7C6CB457D5476Bca",
  "extraData": "0x476574682f76312e302e312d38326566323666362f6c696e75782f676f312e34",
  "transactions": [
    {
      "hash": "0x63fd76773411cd49d3723c143f077a5612aa1c95d5ee62a847e996d4497b6d44",
      "blockHash": "0x730a83cb3aebc8d47c50fd541e608cd1b0bd1fd91a7a4967bb8df010a709c005",
      "blockNumber": 80903,
      "transactionIndex": 0,
      "confirmations": null,
      "from": "0x82226e5858223d7aac5A9b3193c8c1fd4Bb4E1F3",
      "gasPrice": {
        "_hex": "0xdfcb9562b"
      },
      "gasLimit": {
        "_hex": "0x5208"
      },
      "to": "0x32Be343B94f860124dC4fEe278FDCBD38C102D88",
      "value": {
        "_hex": "0x1bbcf20327126c00"
      },
      "nonce": 0,
      "data": "0x",
      "r": "0xfa9504f603eddb5e5d432b094932ce499c7153f4fd6562fdf08dd9b5c22a7703",
      "s": "0x7038454045b70e8e6b82c9fb8191df6db3f9557f81dbca4e309b043851472ca1",
      "v": 27,
      "creates": null,
      "raw": "0xf86c80850dfcb9562b8252089432be343b94f860124dc4fee278fdcbd38c102d88881bbcf20327126c00801ba0fa9504f603eddb5e5d432b094932ce499c7153f4fd6562fdf08dd9b5c22a7703a07038454045b70e8e6b82c9fb8191df6db3f9557f81dbca4e309b043851472ca1",
      "networkId": 0,
      "chainId": 0
    },
    {
      "hash": "0xeefdb921aacabcb81f1f1b5cbb5ede8df49074e64e45c5fdb6431b87c3abd303",
      "blockHash": "0x730a83cb3aebc8d47c50fd541e608cd1b0bd1fd91a7a4967bb8df010a709c005",
      "blockNumber": 80903,
      "transactionIndex": 1,
      "confirmations": null,
      "from": "0x0422403B43601b14BDE8c376a5396C292D090dFB",
      "gasPrice": {
        "_hex": "0xdfcb9562b"
      },
      "gasLimit": {
        "_hex": "0x5208"
      },
      "to": "0x32Be343B94f860124dC4fEe278FDCBD38C102D88",
      "value": {
        "_hex": "0x3635b36ee87f0a0000"
      },
      "nonce": 0,
      "data": "0x",
      "r": "0x20412099148bbb847aea6fa6ace6a28ea324231a9477609e27ed3a148e80137a",
      "s": "0x054ebb3658ee8a9cfbb2a93478f51d8052be684e31c220cd8e0d1dca2c837f31",
      "v": 27,
      "creates": null,
      "raw": "0xf86d80850dfcb9562b8252089432be343b94f860124dc4fee278fdcbd38c102d88893635b36ee87f0a0000801ba020412099148bbb847aea6fa6ace6a28ea324231a9477609e27ed3a148e80137aa0054ebb3658ee8a9cfbb2a93478f51d8052be684e31c220cd8e0d1dca2c837f31",
      "networkId": 0,
      "chainId": 0
    },
    {
      "hash": "0x95ff4a6866f3dad652097fe10458f95aad7bed495265870cbd828ef78a4b852d",
      "blockHash": "0x730a83cb3aebc8d47c50fd541e608cd1b0bd1fd91a7a4967bb8df010a709c005",
      "blockNumber": 80903,
      "transactionIndex": 2,
      "confirmations": null,
      "from": "0x738e836870D34d909F8De81Ae8c759cf55f4EAaF",
      "gasPrice": {
        "_hex": "0xdfcb9562b"
      },
      "gasLimit": {
        "_hex": "0x5208"
      },
      "to": "0x32Be343B94f860124dC4fEe278FDCBD38C102D88",
      "value": {
        "_hex": "0x56bc2e2c93b5a8000"
      },
      "nonce": 0,
      "data": "0x",
      "r": "0x2a0e72161878f5722d7091b237affc1137df44c4bee361f5247fdd12a7848f12",
      "s": "0x6d98911919124dd4f416ef133f916eca6670603e4e6dc7c72508eac6c2f2512f",
      "v": 28,
      "creates": null,
      "raw": "0xf86d80850dfcb9562b8252089432be343b94f860124dc4fee278fdcbd38c102d8889056bc2e2c93b5a8000801ca02a0e72161878f5722d7091b237affc1137df44c4bee361f5247fdd12a7848f12a06d98911919124dd4f416ef133f916eca6670603e4e6dc7c72508eac6c2f2512f",
      "networkId": 0,
      "chainId": 0
    },
    {
      "hash": "0xf5b2f4c804a76a16e4927e0563b4284ce6ea5e515525b0676931d891889df8bf",
      "blockHash": "0x730a83cb3aebc8d47c50fd541e608cd1b0bd1fd91a7a4967bb8df010a709c005",
      "blockNumber": 80903,
      "transactionIndex": 3,
      "confirmations": null,
      "from": "0x79d5794171E11dd5C2f0e26E1C187319db2FE6f7",
      "gasPrice": {
        "_hex": "0xcb1e2b7b1"
      },
      "gasLimit": {
        "_hex": "0x5208"
      },
      "to": "0x32Be343B94f860124dC4fEe278FDCBD38C102D88",
      "value": {
        "_hex": "0x455f8b5ea40c5c00"
      },
      "nonce": 19,
      "data": "0x",
      "r": "0xd86505aad9ae352a17b4e750872ed59fe37fb03eaff697edd800abd1da4a58e7",
      "s": "0x60e5efb285eb3ee2cc2573df6760faac84a6fd1844524b95657aefe7f113f41c",
      "v": 28,
      "creates": null,
      "raw": "0xf86c13850cb1e2b7b18252089432be343b94f860124dc4fee278fdcbd38c102d8888455f8b5ea40c5c00801ca0d86505aad9ae352a17b4e750872ed59fe37fb03eaff697edd800abd1da4a58e7a060e5efb285eb3ee2cc2573df6760faac84a6fd1844524b95657aefe7f113f41c",
      "networkId": 0,
      "chainId": 0
    }
  ]
}