{
  "hash": "0xdf1a50782f342d158b1b60510e64edc40c93d65ef1cc740db9f4806e30aaf088",
  "parentHash": "0x0abd7167c75d64608cf8936394c1066d7fc9eb6f563ccbcced68eea237e0aaf9",
  "number": 76427,
  "timestamp": 1439420445,
  "nonce": "0xf4336e17893814a8",
  "difficulty": 2222104175225,
  "gasLimit": {
    "_hex": "0x2fefd8"
  },
  "gasUsed": {
    "_hex": "0xa410"
  },
  "miner": "0xbb7B8287f3F0a933474a79eAe42CBCa977791171",
  "extraData": "0x476574682f4c5649562f76312e302e312f6c696e75782f676f312e342e32",
  "transactions": [
    {
      "hash": "0x5892b7ed47c962bb140d7f362ba9ed32514b5404a57e4414bdd9a1d4eba7a6ff",
      "blockHash": "0xdf1a50782f342d158b1b60510e64edc40c93d65ef1cc740db9f4806e30aaf088",
      "blockNumber": 76427,
      "transactionIndex": 0,
      "confirmations": null,
      "from": "0x32Be343B94f860124dC4fEe278FDCBD38C102D88",
      "gasPrice": {
        "_hex": "0xda4ef7fb2"
      },
      "gasLimit": {
        "_hex": "0x5208"
      },
      "to": "0x120A270bbC009644e35F0bB6ab13f95b8199c4ad",
      "value": {
        "_hex": "0xa2a15d09519be00000"
      },
      "nonce": 351,
      "data": "0x",
      "r": "0xd2dbdead4eb2ed3f5cbcddc794c9131fb88f8d349b2bb7b4e48a4189b0859f78",
      "s": "0x72924b3757d2aa61666ce03cea69e92e0c0e54c90847d0171352db27309386c0",
      "v": 28,
      "creates": null,
      "raw": "0xf86f82015f850da4ef7fb282520894120a270bbc009644e35f0bb6ab13f95b8199c4ad89a2a15d09519be00000801ca0d2dbdead4eb2ed3f5cbcddc794c9131fb88f8d349b2bb7b4e48a4189b0859f78a072924b3757d2aa61666ce03cea69e92e0c0e54c90847d0171352db27309386c0",
      "networkId": 0,
      "chainId": 0
    },
    {
      "hash": "0xca6455a58212cd08769cf82cfa59246a5e176ea3f1e9fd0364c7d2b1b574bb03",
      "blockHash": "0xdf1a50782f342d158b1b60510e64edc40c93d65ef1cc740db9f4806e30aaf088",
      "blockNumber": 76427,
      "transactionIndex": 1,
      "confirmations": null,
      "from": "0x4717DdA36062a4D937DF7601Bd07354806A957EA",
      "gasPrice": {
        "_hex": "0xda4ef7fb2"
      },
      "gasLimit": {
        "_hex": "0x5208"
      },
      "to": "0x32Be343B94f860124dC4fEe278FDCBD38C102D88",
      "value": {
        "_hex": "0xdca93f7bb77a000"
      },
      "nonce": 1,
      "data": "0x",
      "r": "0x97521caf95cf8c682857a8e8d563150c2b51640cd6d497db5b788cdd73d30be5",
      "s": "0x2dd2d010b70c68c51db83cc51d6885722bd046507e336e746c87991de923c11c",
      "v": 27,
      "creates": null,
      "raw": "0xf86c01850da4ef7fb28252089432be343b94f860124dc4fee278fdcbd38c102d88880dca93f7bb77a000801ba097521caf95cf8c682857a8e8d563150c2b51640cd6d497db5b788cdd73d30be5a02dd2d010b70c68c51db83cc51d6885722bd046507e336e746c87991de923c11c",
      "networkId": 0,
      "chainId": 0
    }
  ]
}