{
  "hash": "0xcdc71128ea891c3019b166a1c4d0c2c1b66b549f59eb2015700140a5eb3b15ff",
  "parentHash": "0xd50f9f66f84b6ee93fc8391a5644f25718d8ebfaa915a43998025a9cc64aaf9c",
  "number": 68089,
  "timestamp": 1439282362,
  "nonce": "0xd08cc4b6f4008e46",
  "difficulty": 1961034163220,
  "gasLimit": {
    "_hex": "0x2fefd8"
  },
  "gasUsed": {
    "_hex": "0x5208"
  },
  "miner": "0x72e3Ea8234b449531A581F05f1c1E07cceb559d2",
  "extraData": "0x476574682f76312e302e312f6c696e75782f676f312e342e32",
  "transactions": [
    {
      "hash": "0x01ba6ba7d5d1517d18eb046b4c157e45cf3f1c009a21608579e79cb4348da34f",
      "blockHash": "0xcdc71128ea891c3019b166a1c4d0c2c1b66b549f59eb2015700140a5eb3b15ff",
      "blockNumber": 68089,
      "transactionIndex": 0,
      "confirmations": null,
      "from": "0x120A270bbC009644e35F0bB6ab13f95b8199c4ad",
      "gasPrice": {
        "_hex": "0xcc96848a5"
      },
      "gasLimit": {
        "_hex": "0x15f90"
      },
      "to": "0x5d964C49AF8eBF59AF86bb5bEA4d506b371C3e4a",
      "value": {
        "_hex": "0x1454081a37c3bb0000"
      },
      "nonce": 168,
      "data": "0x",
      "r": "0xf4ba71c7f512a9c2079cae60f63fed41e06dd9d1244a1f37c092501e7c4d8efc",
      "s": "0x699b7c4bc0ae30fe35cd4592885b36fe8d3cf65bfb5332c8c6c32c52a973fb02",
      "v": 28,
      "creates": null,
      "raw": "0xf86f81a8850cc96848a583015f90945d964c49af8ebf59af86bb5bea4d506b371c3e4a891454081a37c3bb0000801ca0f4ba71c7f512a9c2079cae60f63fed41e06dd9d1244a1f37c092501e7c4d8efca0699b7c4bc0ae30fe35cd4592885b36fe8d3cf65bfb5332c8c6c32c52a973fb02",
      "networkId": 0,
      "chainId": 0
    }
  ]
}