{
  "hash": "0x410ea05c6ceb7ab7f0abdcdbe6d683a8cc03cb3b5c5647105f9c5b6823aea7c0",
  "parentHash": "0xc82b3eed9893f8900ef75cd40d4ce30bbc4261ebca6d53c7b48e32ad73972505",
  "number": 49097,
  "timestamp": 1438967924,
  "nonce": "0x5092971755848ec2",
  "difficulty": 1480726497625,
  "gasLimit": {
    "_hex": "0x25d16"
  },
  "gasUsed": {
    "_hex": "0x5208"
  },
  "miner": "0xe6A7a1d47ff21B6321162AEA7C6CB457D5476Bca",
  "extraData": "0x657468706f6f6c2e6f7267",
  "transactions": [
    {
      "hash": "0x25b521c975fc8f2326c510603ffb7105310b1a82a85605e9b730c739cd940d23",
      "blockHash": "0x410ea05c6ceb7ab7f0abdcdbe6d683a8cc03cb3b5c5647105f9c5b6823aea7c0",
      "blockNumber": 49097,
      "transactionIndex": 0,
      "confirmations": null,
      "from": "0x29E88Cb82e196cA8eDB167258F9BA302a31CB2F6",
      "gasPrice": {
        "_hex": "0xd9b582b1a"
      },
      "gasLimit": {
        "_hex": "0x15f90"
      },
      "to": "0xBef07d97C3481f9D6aee1c98F9d91a180a32442B",
      "value": {
        "_hex": "0x292b8ad6fcdd2a2c"
      },
      "nonce": 6,
      "data": "0x",
      "r": "0x7b5e4648e6d255772317d240a9ba4a0e16ca6834d53332d29a2419cb4decd320",
      "s": "0x1b80d502f103320d17ee2f277aff9804bea0613a58d99d0ea6079c8cd30849ae",
      "v": 28,
      "creates": null,
      "raw": "0xf86d06850d9b582b1a83015f9094bef07d97c3481f9d6aee1c98f9d91a180a32442b88292b8ad6fcdd2a2c801ca07b5e4648e6d255772317d240a9ba4a0e16ca6834d53332d29a2419cb4decd320a01b80d502f103320d17ee2f277aff9804bea0613a58d99d0ea6079c8cd30849ae",
      "networkId": 0,
      "chainId": 0
    }
  ]
}