{
  "hash": "0x78b66cc46cd8102adce4d35a040a88a96b39eebc0cbfac5538c599bb444424cb",
  "parentHash": "0x60914e0ce9829effda8fb567dd6eeeca22760ca59051c0af32ae68a84fc9d148",
  "number": 78983,
  "timestamp": 1439462735,
  "nonce": "0xa115d31c95f8bb89",
  "difficulty": 2287470797546,
  "gasLimit": {
    "_hex": "0x2fefd8"
  },
  "gasUsed": {
    "_hex": "0xa410"
  },
  "miner": "0x580992B51e3925e23280EfB93d3047C82f17E038",
  "extraData": "0x476574682f76312e302e312f6c696e75782f676f312e342e32",
  "transactions": [
    {
      "hash": "0x678aeb5aab03ab22c94ab8cc26b17dee4f0c741e34afb3d53db3c585c7f710e5",
      "blockHash": "0x78b66cc46cd8102adce4d35a040a88a96b39eebc0cbfac5538c599bb444424cb",
      "blockNumber": 78983,
      "transactionIndex": 0,
      "confirmations": null,
      "from": "0x01Ad0ACFf478127D9d702B1A13599D706cB759b1",
      "gasPrice": {
        "_hex": "0xdd91e7c9a"
      },
      "gasLimit": {
        "_hex": "0x5208"
      },
      "to": "0x32Be343B94f860124dC4fEe278FDCBD38C102D88",
      "value": {
        "_hex": "0x455f218823892800"
      },
      "nonce": 19,
      "data": "0x",
      "r": "0xc31027745c9b3e77255bf2c50884adc03c37d9ab7072ff75d0d32fec2e42bc6d",
      "s": "0x6646713f79aae1a0e9499da26105b3654106c2b04636b76e73054eada961e45c",
      "v": 28,
      "creates": null,
      "raw": "0xf86c13850dd91e7c9a8252089432be343b94f860124dc4fee278fdcbd38c102d8888455f218823892800801ca0c31027745c9b3e77255bf2c50884adc03c37d9ab7072ff75d0d32fec2e42bc6da06646713f79aae1a0e9499da26105b3654106c2b04636b76e73054eada961e45c",
      "networkId": 0,
      "chainId": 0
    },
    {
      "hash": "0x166a4bf5ea181066a2e8502e611ed445e12a898ed9752a81a1f01ca51d4a0b4f",
      "blockHash": "0x78b66cc46cd8102adce4d35a040a88a96b39eebc0cbfac5538c599bb444424cb",
      "blockNumber": 78983,
      "transactionIndex": 1,
      "confirmations": null,
      "from": "0xabceA603089850F8f6bB612A9031554D90A247CF",
      "gasPrice": {
        "_hex": "0xdd91e7c9a"
      },
      "gasLimit": {
        "_hex": "0x5208"
      },
      "to": "0x32Be343B94f860124dC4fEe278FDCBD38C102D88",
      "value": {
        "_hex": "0x455f218823892800"
      },
      "nonce": 17,
      "data": "0x",
      "r": "0xa016b15dbd23fceea269e1427de9920d875b3c9a3923362d31e8dbc1339531c2",
      "s": "0x083d45f23878324404f8cc5e762dcc5fbf3c54334ca34a47901fcf192815f4f2",
      "v": 28,
      "creates": null,
      "raw": "0xf86c11850dd91e7c9a8252089432be343b94f860124dc4fee278fdcbd38c102d8888455f218823892800801ca0a016b15dbd23fceea269e1427de9920d875b3c9a3923362d31e8dbc1339531c2a0083d45f23878324404f8cc5e762dcc5fbf3c54334ca34a47901fcf192815f4f2",
      "networkId": 0,
      "chainId": 0
    }
  ]
}