{
  "hash": "0x4748bb3d7f16eaa12fefe14954e5a66a32e58308875debae0f2464dec8672856",
  "parentHash": "0x483dc0a1e55502e7b1e239a15abd5c471b17bc1455046b1f1ad1b62e90554f53",
  "number": 51646,
  "timestamp": 1439008535,
  "nonce": "0x6b498811cda0ad2a",
  "difficulty": 1555108611380,
  "gasLimit": {
    "_hex": "0xca018"
  },
  "gasUsed": {
    "_hex": "0x7f328"
  },
  "miner": "0xf927a40C8B7F6E07c5af7FA2155B4864a4112B13",
  "extraData": "0x476574682f76312e302e312f6c696e75782f676f312e342e32",
  "transactions": [
    {
      "hash": "0xf20d98f6db0e1f3a84592e6507fa79b040dc9c859abb452fdd1954e07288c38b",
      "blockHash": "0x4748bb3d7f16eaa12fefe14954e5a66a32e58308875debae0f2464dec8672856",
      "blockNumber": 51646,
      "transactionIndex": 0,
      "confirmations": null,
      "from": "0xf82c9103023A8f8EE3Ce0cBf5775Bbb57A2F32F8",
      "gasPrice": {
        "_hex": "0xdd7ddbaf7"
      },
      "gasLimit": {
        "_hex": "0x15f90"
      },
      "to": "0xdFE54dA6a71D719BEA537bDf7d453dB98eD4A35c",
      "value": {
        "_hex": "0x8ac7230489e80000"
      },
      "nonce": 0,
      "data": "0x",
      "r": "0x9373b02dfa98244691f4a8d6174e3c797d5ec96b1e44c9b9c9b152e97a3ac8f6",
      "s": "0x2435645327dd18f72e3907e3270be869f407d2dce08321c2a0c45c461980e1bc",
      "v": 28,
      "creates": null,
      "raw": "0xf86d80850dd7ddbaf783015f9094dfe54da6a71d719bea537bdf7d453db98ed4a35c888ac7230489e80000801ca09373b02dfa98244691f4a8d6174e3c797d5ec96b1e44c9b9c9b152e97a3ac8f6a02435645327dd18f72e3907e3270be869f407d2dce08321c2a0c45c461980e1bc",
      "networkId": 0,
      "chainId": 0
    },
    {
      "hash": "0xe6a52cf0fef921e6a9444f17b3a5e3ee31e5d67c85c18843ed4e25cdb68d90d8",
      "blockHash": "0x4748bb3d7f16eaa12fefe14954e5a66a32e58308875debae0f2464dec8672856",
      "blockNumber": 51646,
      "transactionIndex": 1,
      "confirmations": null,
      "from": "0xFCf9f6A78f06227522c6f948ec0119dA31680Ef7",
      "gasPrice": {
        "_hex": "0xd91a96397"
      },
      "gasLimit": {
        "_hex": "0x7a120"
      },
      "to": "0x109C4f2CCc82C4d77Bde15F306707320294Aea3F",
      "value": {
        "_hex": "0xde0b6b3a7640000"
      },
      "nonce": 48,
      "data": "0x",
      "r": "0xfc75f7d88084ec05640ef921004232aa564ebdd6b961f3ef55e6fd252e5d3f7f",
      "s": "0x7a3206903440e86f6ca8ff0e0b6254b4dff90fcae84382064030d2895113aaab",
      "v": 27,
      "creates": null,
      "raw": "0xf86d30850d91a963978307a12094109c4f2ccc82c4d77bde15f306707320294aea3f880de0b6b3a7640000801ba0fc75f7d88084ec05640ef921004232aa564ebdd6b961f3ef55e6fd252e5d3f7fa07a3206903440e86f6ca8ff0e0b6254b4dff90fcae84382064030d2895113aaab",
      "networkId": 0,
      "chainId": 0
    }
  ]
}