{
  "hash": "0x7c5b324e3647ffbb3c04e3ada261c958db89d0d0f080ba265a9c17813415442a",
  "parentHash": "0xa269aa14255cf44c6879ea81316d3f577a6074d20c42b1ea938176081dba4658",
  "number": 82680,
  "timestamp": 1439523504,
  "nonce": "0x5e9ebe4c833fde9d",
  "difficulty": 2367119953473,
  "gasLimit": {
    "_hex": "0x2fefd8"
  },
  "gasUsed": {
    "_hex": "0x5208"
  },
  "miner": "0xe6A7a1d47ff21B6321162AEA7C6CB457D5476Bca",
  "extraData": "0x476574682f76312e302e312d38326566323666362f6c696e75782f676f312e34",
  "transactions": [
    {
      "hash": "0xba2abeb42ed4f19129ae637509a7ebdc8810be61a9696b78c5262d6382ed1a8a",
      "blockHash": "0x7c5b324e3647ffbb3c04e3ada261c958db89d0d0f080ba265a9c17813415442a",
      "blockNumber": 82680,
      "transactionIndex": 0,
      "confirmations": null,
      "from": "0xa6BDc31c431B8F97848c9D60cbbe9660dc450eB7",
      "gasPrice": {
        "_hex": "0xd81f01de0"
      },
      "gasLimit": {
        "_hex": "0x5208"
      },
      "to": "0x32Be343B94f860124dC4fEe278FDCBD38C102D88",
      "value": {
        "_hex": "0x34065915ccf04400"
      },
      "nonce": 53,
      "data": "0x",
      "r": "0x10537578c302db574979bbd2db537d8e9840ab72a4c8a784f4938aa338dee180",
      "s": "0x464d858f7bb5746587e3232aea4775d86f79a4f25b0579d48a32a0ff49c3ea22",
      "v": 27,
      "creates": null,
      "raw": "0xf86c35850d81f01de08252089432be343b94f860124dc4fee278fdcbd38c102d888834065915ccf04400801ba010537578c302db574979bbd2db537d8e9840ab72a4c8a784f4938aa338dee180a0464d858f7bb5746587e3232aea4775d86f79a4f25b0579d48a32a0ff49c3ea22",
      "networkId": 0,
      "chainId": 0
    }
  ]
}