{
  "hash": "0x8cea4fed52dbfed5f6d2ebf9f519c0d41239d3ef4c1f2fae1aa24933bde136f6",
  "parentHash": "0x159730b6213dc21d88463c71050c29e60713ec31ab9b4884aabff62c3f5bdbae",
  "number": 76008,
  "timestamp": 1439413412,
  "nonce": "0x2bf9a2ad064735b1",
  "difficulty": 2234183007598,
  "gasLimit": {
    "_hex": "0x2fefd8"
  },
  "gasUsed": {
    "_hex": "0x5208"
  },
  "miner": "0xee5379D0c1ca47327368027455074C26D9952628",
  "extraData": "0x476574682f76312e302e312d38326566323666362f6c696e75782f676f312e34",
  "transactions": [
    {
      "hash": "0xb53dfa90c9be4b2f291e778a4e87eadd2130479c6780999aae2fcfb13af97f95",
      "blockHash": "0x8cea4fed52dbfed5f6d2ebf9f519c0d41239d3ef4c1f2fae1aa24933bde136f6",
      "blockNumber": 76008,
      "transactionIndex": 0,
      "confirmations": null,
      "from": "0x095b0ea2b218d82e0Aea7c2889238A39C9Bf9077",
      "gasPrice": {
        "_hex": "0xd65559146"
      },
      "gasLimit": {
        "_hex": "0x15f90"
      },
      "to": "0x2536bd4b759aae0fC4Ca6bb97141922a0D56C37C",
      "value": {
        "_hex": "0x6c5db2a4d815dc0000"
      },
      "nonce": 1,
      "data": "0x",
      "r": "0x28ab34b38ee62d11e32daae447d934f7706c042eaa9d283599afe78d7a9e0601",
      "s": "0x41f52427d3d20c8e4db93b493d90de794dc13d055c7f6a052d6dc025aba17f19",
      "v": 27,
      "creates": null,
      "raw": "0xf86e01850d6555914683015f90942536bd4b759aae0fc4ca6bb97141922a0d56c37c896c5db2a4d815dc0000801ba028ab34b38ee62d11e32daae447d934f7706c042eaa9d283599afe78d7a9e0601a041f52427d3d20c8e4db93b493d90de794dc13d055c7f6a052d6dc025aba17f19",
      "networkId": 0,
      "chainId": 0
    }
  ]
}