{
  "hash": "0xa1cb08335ea4d7bcd1b4eb3df0a11cce0c4f5301a62a6177a1850298b9e19802",
  "parentHash": "0xa2db9bd54741a4c6ed1d360b049176ed2120940778774fa993fa4faf8083a187",
  "number": 115410,
  "timestamp": 1440056761,
  "nonce": "0xe5fac0772b3a0a5e",
  "difficulty": 4571684394976,
  "gasLimit": {
    "_hex": "0x2fefd8"
  },
  "gasUsed": {
    "_hex": "0x5208"
  },
  "miner": "0x5F8F73E26CdF436f19Cb24C82F90A15AFe55b592",
  "extraData": "0x476574682f76312e302e312f77696e646f77732f676f312e342e32",
  "transactions": [
    {
      "hash": "0xd6b31816d3dd2d7689ba0c3bd2e3e50e6888ff6d7f11b842c05768e2dbe12746",
      "blockHash": "0xa1cb08335ea4d7bcd1b4eb3df0a11cce0c4f5301a62a6177a1850298b9e19802",
      "blockNumber": 115410,
      "transactionIndex": 0,
      "confirmations": null,
      "from": "0x11AA265966dFdDfDC4fA42a83C305f6EcbE9588a",
      "gasPrice": {
        "_hex": "0xd492eae59"
      },
      "gasLimit": {
        "_hex": "0x5208"
      },
      "to": "0x32Be343B94f860124dC4fEe278FDCBD38C102D88",
      "value": {
        "_hex": "0x2dc7b2a8c4e88400"
      },
      "nonce": 7,
      "data": "0x",
      "r": "0x8b3ecaef3296fa3bd1853eefbb8967882201a973d44565f14268a6c1cdba9a21",
      "s": "0x1ec2646dfe53fe368c406c23b0fdee2ff1fe4163b5ddaeec3f98d2a1eb86ab27",
      "v": 28,
      "creates": null,
      "raw": "0xf86c07850d492eae598252089432be343b94f860124dc4fee278fdcbd38c102d88882dc7b2a8c4e88400801ca08b3ecaef3296fa3bd1853eefbb8967882201a973d44565f14268a6c1cdba9a21a01ec2646dfe53fe368c406c23b0fdee2ff1fe4163b5ddaeec3f98d2a1eb86ab27",
      "networkId": 0,
      "chainId": 0
    }
  ]
}