{
  "hash": "0xcd74fc68bcb49de13964904df13dc8e121972da459d0baef7db7b98ca50a8af1",
  "parentHash": "0xca3d9b3c95ae13fd66680ef11fc198cd5dc54e5d4a9c07ffd886d7b7431068bf",
  "number": 120205,
  "timestamp": 1440156025,
  "nonce": "0x659d79def8f4bc32",
  "difficulty": 4396179565415,
  "gasLimit": {
    "_hex": "0x2fefd8"
  },
  "gasUsed": {
    "_hex": "0x5208"
  },
  "miner": "0x17B719A685fC6C0002798e7f8151D0E2E83B7497",
  "extraData": "0x",
  "transactions": [
    {
      "hash": "0xb7df2fea6803f21ea483afd1e9e0cdf677010c09ac8d1f2364709d8a1e092cc9",
      "blockHash": "0xcd74fc68bcb49de13964904df13dc8e121972da459d0baef7db7b98ca50a8af1",
      "blockNumber": 120205,
      "transactionIndex": 0,
      "confirmations": null,
      "from": "0x2910543Af39abA0Cd09dBb2D50200b3E800A63D2",
      "gasPrice": {
        "_hex": "0xd7723a85e"
      },
      "gasLimit": {
        "_hex": "0x5208"
      },
      "to": "0x2f86ba8019945f39edE131D38d4d8780884DA553",
      "value": {
        "_hex": "0x10f0cdea164213f8000"
      },
      "nonce": 1175,
      "data": "0x",
      "r": "0xa151e99e26660e3808f74506e1267e22eff31ea03ebfcb9769bdbdcdfce3d214",
      "s": "0x3342799ee9500b25a133002dbb84103ee32d066f70fc5ad2a8389920d963f2be",
      "v": 28,
      "creates": null,
      "raw": "0xf870820497850d7723a85e825208942f86ba8019945f39ede131d38d4d8780884da5538a010f0cdea164213f8000801ca0a151e99e26660e3808f74506e1267e22eff31ea03ebfcb9769bdbdcdfce3d214a03342799ee9500b25a133002dbb84103ee32d066f70fc5ad2a8389920d963f2be",
      "networkId": 0,
      "chainId": 0
    }
  ]
}