{
  "hash": "0x9c3753a3859acbd90dd8ce8a4918396f8e3f99ebad15d342ebdbd862a2968446",
  "parentHash": "0x8e8b4484bb481607fe8f5a6177e8b3a84da37f1ecdf40cfb8f291000570da0ad",
  "number": 113808,
  "timestamp": 1440029953,
  "nonce": "0x25e7b129b4cfebd6",
  "difficulty": 4444877778293,
  "gasLimit": {
    "_hex": "0x2fefd8"
  },
  "gasUsed": {
    "_hex": "0x5208"
  },
  "miner": "0xe6A7a1d47ff21B6321162AEA7C6CB457D5476Bca",
  "extraData": "0x476574682f76312e302e312d38326566323666362f6c696e75782f676f312e34",
  "transactions": [
    {
      "hash": "0x8cc0461047732d19de1d86fec9760bde842ee868ff47a15150887abc2155c99a",
      "blockHash": "0x9c3753a3859acbd90dd8ce8a4918396f8e3f99ebad15d342ebdbd862a2968446",
      "blockNumber": 113808,
      "transactionIndex": 0,
      "confirmations": null,
      "from": "0xe3d915EdA3B825D6ee4AF9328D32Ac18ada35497",
      "gasPrice": {
        "_hex": "0xd641f460d"
      },
      "gasLimit": {
        "_hex": "0x15f90"
      },
      "to": "0x79204D7826f5d18687B4bB92dF98b98218Ab38B9",
      "value": {
        "_hex": "0xd8d726b7177a80000"
      },
      "nonce": 4,
      "data": "0x",
      "r": "0x2941ef7dbde2c1d27c4e50476218b7ddaff879c6af5e44f77acee4c3c3e64e60",
      "s": "0x220f4db92df2b1b2e2e516c718c7221e4efc6d52625309e6bb9dcc246dfb6505",
      "v": 27,
      "creates": null,
      "raw": "0xf86e04850d641f460d83015f909479204d7826f5d18687b4bb92df98b98218ab38b9890d8d726b7177a80000801ba02941ef7dbde2c1d27c4e50476218b7ddaff879c6af5e44f77acee4c3c3e64e60a0220f4db92df2b1b2e2e516c718c7221e4efc6d52625309e6bb9dcc246dfb6505",
      "networkId": 0,
      "chainId": 0
    }
  ]
}