{
  "hash": "0x5d87d5191493a17963008a3955462d3169597da407d1332238ebc2c557d70b13",
  "parentHash": "0x27909b1adc5507247c83491c59ba9ceaa74807edd82e3585b006da99d05adcdd",
  "number": 107134,
  "timestamp": 1439916651,
  "nonce": "0xc761efb07bfe5a8e",
  "difficulty": 4474556991428,
  "gasLimit": {
    "_hex": "0x2fefd8"
  },
  "gasUsed": {
    "_hex": "0x5208"
  },
  "miner": "0xe6A7a1d47ff21B6321162AEA7C6CB457D5476Bca",
  "extraData": "0x476574682f76312e302e312d38326566323666362f6c696e75782f676f312e34",
  "transactions": [
    {
      "hash": "0x73933a2976e57dae80a73d6ec9bbe8d21a7391d42671656a0adde3b3d7d992c4",
      "blockHash": "0x5d87d5191493a17963008a3955462d3169597da407d1332238ebc2c557d70b13",
      "blockNumber": 107134,
      "transactionIndex": 0,
      "confirmations": null,
      "from": "0x85987614170a7d08Fbae35c5bc179A0110d1fA2F",
      "gasPrice": {
        "_hex": "0xd3f6a2a49"
      },
      "gasLimit": {
        "_hex": "0x15f90"
      },
      "to": "0xDb2c60B49188a8D0C96A730C0B4b62D25866864C",
      "value": {
        "_hex": "0x470de4df820000"
      },
      "nonce": 2,
      "data": "0x",
      "r": "0x3080598f2091f467a9418724dd20f4c1977b5e106b7fa83ad7b24374096d7197",
      "s": "0x0500a19021707f66765aa9cfad30ea61c6db0949aeabc6453ee950a021c17f00",
      "v": 27,
      "creates": null,
      "raw": "0xf86c02850d3f6a2a4983015f9094db2c60b49188a8d0c96a730c0b4b62d25866864c87470de4df820000801ba03080598f2091f467a9418724dd20f4c1977b5e106b7fa83ad7b24374096d7197a00500a19021707f66765aa9cfad30ea61c6db0949aeabc6453ee950a021c17f00",
      "networkId": 0,
      "chainId": 0
    }
  ]
}