{
  "hash": "0x2b514a4664777c60923e9ac7c34096c080d3d42019469f99403e28aea4bd3a38",
  "parentHash": "0x476195c927215658d4c1cd706e4462edc3803b924c34ea084241ca20c4d068cc",
  "number": 60908,
  "timestamp": 1439163542,
  "nonce": "0x6fb3219d6e380e49",
  "difficulty": 1738019018532,
  "gasLimit": {
    "_hex": "0x2fefd8"
  },
  "gasUsed": {
    "_hex": "0x5208"
  },
  "miner": "0x5146556427FF689250ED1801a783D12138C3Dd5E",
  "extraData": "0x476574682f76312e302e312f6c696e75782f676f312e342e32",
  "transactions": [
    {
      "hash": "0xf31cf6616daea39aa012808f1d5c320d51192e7cadc9d19f05b264d5fe39d15e",
      "blockHash": "0x2b514a4664777c60923e9ac7c34096c080d3d42019469f99403e28aea4bd3a38",
      "blockNumber": 60908,
      "transactionIndex": 0,
      "confirmations": null,
      "from": "0x120A270bbC009644e35F0bB6ab13f95b8199c4ad",
      "gasPrice": {
        "_hex": "0xd533c0689"
      },
      "gasLimit": {
        "_hex": "0x15f90"
      },
      "to": "0x5804baCD8DEC367de4137ffaD580997311841369",
      "value": {
        "_hex": "0x8ac7230489e80000"
      },
      "nonce": 55,
      "data": "0x",
      "r": "0x92ded9b311e6d9766c4f792c9df87c296fd6f64e9b52ce67c64f71b6a27c8514",
      "s": "0x7ee269f741763c9ae311ab1a7adad51877063849e76bdc42ffa303a9d4acf458",
      "v": 28,
      "creates": null,
      "raw": "0xf86d37850d533c068983015f90945804bacd8dec367de4137ffad580997311841369888ac7230489e80000801ca092ded9b311e6d9766c4f792c9df87c296fd6f64e9b52ce67c64f71b6a27c8514a07ee269f741763c9ae311ab1a7adad51877063849e76bdc42ffa303a9d4acf458",
      "networkId": 0,
      "chainId": 0
    }
  ]
}