{
  "hash": "0x394568d0dc9ca1f04b6795347ac72e305dfabe18ca9c79e1625558f1c3cf1ba0",
  "parentHash": "0x5efa008188e761057a6df5e155e9f8b69d9fbeb558d17ad51997274e2e3bfd81",
  "number": 122314,
  "timestamp": 1440191986,
  "nonce": "0x2e0342ddbaa2b66f",
  "difficulty": 4470831082526,
  "gasLimit": {
    "_hex": "0x2fefd8"
  },
  "gasUsed": {
    "_hex": "0x5208"
  },
  "miner": "0xa38452C89bC6ad5Cded12A54D0F75b73472DC019",
  "extraData": "0x",
  "transactions": [
    {
      "hash": "0x97ca4e6a5868218e6f48a1fe685bbc679991ca3468e388568fbfd94da09f6493",
      "blockHash": "0x394568d0dc9ca1f04b6795347ac72e305dfabe18ca9c79e1625558f1c3cf1ba0",
      "blockNumber": 122314,
      "transactionIndex": 0,
      "confirmations": null,
      "from": "0x43B0515EE027AdDE72a01cCd428D7c684C93d70f",
      "gasPrice": {
        "_hex": "0xba43b7400"
      },
      "gasLimit": {
        "_hex": "0x15f90"
      },
      "to": "0xa83dfbE4EB8ddEc112360483a8dab6D1EAFB1D29",
      "value": {
        "_hex": "0x361f955640060000"
      },
      "nonce": 0,
      "data": "0x",
      "r": "0x1afae60dd86b70a6442bdad2bdc986df4961ab1e4097c0ff1cc4dd16a583094f",
      "s": "0x5019781c824915300f7676101f71c40e6c72938986375c2c1cadb0cfab0093d1",
      "v": 27,
      "creates": null,
      "raw": "0xf86d80850ba43b740083015f9094a83dfbe4eb8ddec112360483a8dab6d1eafb1d2988361f955640060000801ba01afae60dd86b70a6442bdad2bdc986df4961ab1e4097c0ff1cc4dd16a583094fa05019781c824915300f7676101f71c40e6c72938986375c2c1cadb0cfab0093d1",
      "networkId": 0,
      "chainId": 0
    }
  ]
}