{
  "hash": "0x83b1b5b116e244bbd4de6061c96820820a81992f3082396d1032b6df983dfb70",
  "parentHash": "0x56c47c472a334bda9e08f8d8ad048c1843f369a62273189a739fff8cd8b2d5a4",
  "number": 98622,
  "timestamp": 1439776098,
  "nonce": "0xcbd14317e48fd1c3",
  "difficulty": 3846171730987,
  "gasLimit": {
    "_hex": "0x2fefd8"
  },
  "gasUsed": {
    "_hex": "0x5208"
  },
  "miner": "0xe6A7a1d47ff21B6321162AEA7C6CB457D5476Bca",
  "extraData": "0x476574682f76312e302e312d38326566323666362f6c696e75782f676f312e34",
  "transactions": [
    {
      "hash": "0xacad744fd3ca948fdc1d502c76e3040525981de1dd4e56a2bdf6e8fadb0c88e9",
      "blockHash": "0x83b1b5b116e244bbd4de6061c96820820a81992f3082396d1032b6df983dfb70",
      "blockNumber": 98622,
      "transactionIndex": 0,
      "confirmations": null,
      "from": "0xd70c667add50d3d9989Ef58A81a698c09f415Bff",
      "gasPrice": {
        "_hex": "0xd3abe2cb0"
      },
      "gasLimit": {
        "_hex": "0x15f90"
      },
      "to": "0x52191276589069F70F0E46bcCc718d793d1Aa1D0",
      "value": {
        "_hex": "0xcc00e41db63e0000"
      },
      "nonce": 8,
      "data": "0x",
      "r": "0xbacb16568a5f5d283057c2e70bd7f196c10e3c3e36ecb9bfc1804f4a66f3f29a",
      "s": "0x0b6e7e4b1b3ffdfeb240e8f352ba694bd32873bdccc6cf282d599047ccb99aba",
      "v": 28,
      "creates": null,
      "raw": "0xf86d08850d3abe2cb083015f909452191276589069f70f0e46bccc718d793d1aa1d088cc00e41db63e0000801ca0bacb16568a5f5d283057c2e70bd7f196c10e3c3e36ecb9bfc1804f4a66f3f29aa00b6e7e4b1b3ffdfeb240e8f352ba694bd32873bdccc6cf282d599047ccb99aba",
      "networkId": 0,
      "chainId": 0
    }
  ]
}