{
  "hash": "0x6c043135a0a83949c2dc439ca61e2af3968d03a1b83c62df4e593d33a87c6d01",
  "parentHash": "0x3d5c711ea8ad90a8b94a136a3389439ed4db632d95fde676a1e09ce97c3bdc6e",
  "number": 94216,
  "timestamp": 1439704443,
  "nonce": "0xf9be144415882a80",
  "difficulty": 3483348874530,
  "gasLimit": {
    "_hex": "0x2fefd8"
  },
  "gasUsed": {
    "_hex": "0xa410"
  },
  "miner": "0xe6A7a1d47ff21B6321162AEA7C6CB457D5476Bca",
  "extraData": "0x476574682f76312e302e312d38326566323666362f6c696e75782f676f312e34",
  "transactions": [
    {
      "hash": "0x93ab0cf646f8d26120c5fb496e001f556432e307cd1f9f864617fbc10da8d431",
      "blockHash": "0x6c043135a0a83949c2dc439ca61e2af3968d03a1b83c62df4e593d33a87c6d01",
      "blockNumber": 94216,
      "transactionIndex": 0,
      "confirmations": null,
      "from": "0x120A270bbC009644e35F0bB6ab13f95b8199c4ad",
      "gasPrice": {
        "_hex": "0xd9b6f0127"
      },
      "gasLimit": {
        "_hex": "0x3d090"
      },
      "to": "0xd729FB3C410640105645fea812F5d50F1b808f4C",
      "value": {
        "_hex": "0x2086ac351052600000"
      },
      "nonce": 576,
      "data": "0x",
      "r": "0xbf2bf0f10d1f94c558d59038741df2bfe9a3a7179c5e24dd54b67fb1ef89ab13",
      "s": "0x177d198a5f00ecca6c55e29c59c1820f99949e2e02bc3d3b9250341d92b236a1",
      "v": 28,
      "creates": null,
      "raw": "0xf870820240850d9b6f01278303d09094d729fb3c410640105645fea812f5d50f1b808f4c892086ac351052600000801ca0bf2bf0f10d1f94c558d59038741df2bfe9a3a7179c5e24dd54b67fb1ef89ab13a0177d198a5f00ecca6c55e29c59c1820f99949e2e02bc3d3b9250341d92b236a1",
      "networkId": 0,
      "chainId": 0
    },
    {
      "hash": "0x568b72caacfa6ad5391b4473210b91fdbd0ab8c1ace2c46cfa7d04cd6ba9d4bd",
      "blockHash": "0x6c043135a0a83949c2dc439ca61e2af3968d03a1b83c62df4e593d33a87c6d01",
      "blockNumber": 94216,
      "transactionIndex": 1,
      "confirmations": null,
      "from": "0x007f7f58D3eb5b7510A301eCC749FC1fCDDBE14D",
      "gasPrice": {
        "_hex": "0xcd8a77067"
      },
      "gasLimit": {
        "_hex": "0x15f90"
      },
      "to": "0xb1abce2918E21ddb93AA452731a12672A3d9F75a",
      "value": {
        "_hex": "0x4563918244f40000"
      },
      "nonce": 27,
      "data": "0x",
      "r": "0x3893afbc51db1e0d5e7a3cf87b7c7a9ea03d70c6653a51a8072367591bbfa14b",
      "s": "0x6229daa76c4e93846ecdb7a13ec08ab7fd482b14072002ccd40c7eb5f85cca72",
      "v": 28,
      "creates": null,
      "raw": "0xf86d1b850cd8a7706783015f9094b1abce2918e21ddb93aa452731a12672a3d9f75a884563918244f40000801ca03893afbc51db1e0d5e7a3cf87b7c7a9ea03d70c6653a51a8072367591bbfa14ba06229daa76c4e93846ecdb7a13ec08ab7fd482b14072002ccd40c7eb5f85cca72",
      "networkId": 0,
      "chainId": 0
    }
  ]
}