{
  "hash": "0xf20277cd22580421954103a3868dc949ad545868d21eb3779f5444bccec8445a",
  "parentHash": "0x18a262b56f996abc8b991a97795e901678043b2103a5461df2c677940863c00f",
  "number": 98228,
  "timestamp": 1439769116,
  "nonce": "0x980add455d9aabee",
  "difficulty": 3876519702047,
  "gasLimit": {
    "_hex": "0x2fefd8"
  },
  "gasUsed": {
    "_hex": "0x5208"
  },
  "miner": "0x3FF679B0823a026F2378E5f5F22A6F127cC85828",
  "extraData": "0x",
  "transactions": [
    {
      "hash": "0xdde9edf4440ad848555f60be0b6eca48eeb67f88d0e91df8300e3e57070e04f6",
      "blockHash": "0xf20277cd22580421954103a3868dc949ad545868d21eb3779f5444bccec8445a",
      "blockNumber": 98228,
      "transactionIndex": 0,
      "confirmations": null,
      "from": "0x419bdE7316CC1Ed295c885aCe342C79bf7Ee33eA",
      "gasPrice": {
        "_hex": "0x107c30e9592"
      },
      "gasLimit": {
        "_hex": "0x55f0"
      },
      "to": "0x67A75F5fBBCa0974C961b43E7D62204a4093c1Bb",
      "value": {
        "_hex": "0xa25bf977cf56ec0000"
      },
      "nonce": 1,
      "data": "0x",
      "r": "0x5f9f1c729e4f27f0bf2c1cb8550c51e685218706a92f81cc92776bcf0e4ebdfb",
      "s": "0x61a2181dd761165550f36957c1a8dd9313eaa7e1646089d3ebb4de603a93b0e1",
      "v": 27,
      "creates": null,
      "raw": "0xf86e01860107c30e95928255f09467a75f5fbbca0974c961b43e7d62204a4093c1bb89a25bf977cf56ec0000801ba05f9f1c729e4f27f0bf2c1cb8550c51e685218706a92f81cc92776bcf0e4ebdfba061a2181dd761165550f36957c1a8dd9313eaa7e1646089d3ebb4de603a93b0e1",
      "networkId": 0,
      "chainId": 0
    }
  ]
}