{
  "hash": "0xe046b85f64ee4a5c7b78c79b42cebaa2c9feffa13754dd070fea4fe0347666cc",
  "parentHash": "0x87c10b0fb235e95900062ca025c23ff4bc22e7a710c8b201771c295a0e6d1a40",
  "number": 84857,
  "timestamp": 1439555393,
  "nonce": "0xd42d3ce5a3fa22ed",
  "difficulty": 2656839220869,
  "gasLimit": {
    "_hex": "0x2fefd8"
  },
  "gasUsed": {
    "_hex": "0x5208"
  },
  "miner": "0xe6A7a1d47ff21B6321162AEA7C6CB457D5476Bca",
  "extraData": "0x476574682f76312e302e312d38326566323666362f6c696e75782f676f312e34",
  "transactions": [
    {
      "hash": "0x1bb70d3b162fa6877aa8c9b5e07c90f5d086dcb1719c3c48b62e54a85d269c28",
      "blockHash": "0xe046b85f64ee4a5c7b78c79b42cebaa2c9feffa13754dd070fea4fe0347666cc",
      "blockNumber": 84857,
      "transactionIndex": 0,
      "confirmations": null,
      "from": "0x120A270bbC009644e35F0bB6ab13f95b8199c4ad",
      "gasPrice": {
        "_hex": "0xd5253ac31"
      },
      "gasLimit": {
        "_hex": "0x3d090"
      },
      "to": "0x511563384e003a0e09c93C4E08Db34AE6330721B",
      "value": {
        "_hex": "0x2a2a05813d2b78800"
      },
      "nonce": 437,
      "data": "0x",
      "r": "0x764d3f1bf27863d40a8a3f4d8814db5d9ec8cde9db7f5b759d3fb82d6bdd502b",
      "s": "0x7ab910c77504751979535cb37741848d7fbbeddcb94187012ff11e523f64d0e4",
      "v": 27,
      "creates": null,
      "raw": "0xf8708201b5850d5253ac318303d09094511563384e003a0e09c93c4e08db34ae6330721b8902a2a05813d2b78800801ba0764d3f1bf27863d40a8a3f4d8814db5d9ec8cde9db7f5b759d3fb82d6bdd502ba07ab910c77504751979535cb37741848d7fbbeddcb94187012ff11e523f64d0e4",
      "networkId": 0,
      "chainId": 0
    }
  ]
}