{
  "hash": "0x6e33202e4bc28099519fa83f8a6201e2904bad15e4c3c64c752f6ba7cc918b1e",
  "parentHash": "0x5b29322eb7734238f2ebfe512250b75d85962eee551e4c3ad30efb29c2dc99d9",
  "number": 71218,
  "timestamp": 1439332637,
  "nonce": "0x77fd88015f75e4bd",
  "difficulty": 2143530933580,
  "gasLimit": {
    "_hex": "0x2fefd8"
  },
  "gasUsed": {
    "_hex": "0xe5ba"
  },
  "miner": "0x157c6f2431eB1a95797EE86F7d17b3c0FD47A247",
  "extraData": "0x476574682f76312e302e312f77696e646f77732f676f312e342e32",
  "transactions": [
    {
      "hash": "0x1f5aff96cb0ea737f0f38119a955133c7f765a0d0a3472a1b45d7f5c9f70d02f",
      "blockHash": "0x6e33202e4bc28099519fa83f8a6201e2904bad15e4c3c64c752f6ba7cc918b1e",
      "blockNumber": 71218,
      "transactionIndex": 0,
      "confirmations": null,
      "from": "0xa04f46f1e328BF2f564313Be73e6A77Fe870e535",
      "gasPrice": {
        "_hex": "0xda94db7a7"
      },
      "gasLimit": {
        "_hex": "0x15f90"
      },
      "to": "0x740Fc79C926C4Bd3BD78DEFBE690814FF803C40c",
      "value": {
        "_hex": "0x214e8348c4f0000"
      },
      "nonce": 7,
      "data": "0x",
      "r": "0x96b507ee076b5dbd88170d63aecc91506f99b147d754337f95076754e40481fc",
      "s": "0x2e9cf26739e7bd2d62eb19b960c5fa37820ff14dfc1f77f4d4725590a40f549a",
      "v": 28,
      "creates": null,
      "raw": "0xf86d07850da94db7a783015f9094740fc79c926c4bd3bd78defbe690814ff803c40c880214e8348c4f0000801ca096b507ee076b5dbd88170d63aecc91506f99b147d754337f95076754e40481fca02e9cf26739e7bd2d62eb19b960c5fa37820ff14dfc1f77f4d4725590a40f549a",
      "networkId": 0,
      "chainId": 0
    },
    {
      "hash": "0xf59bc655eed0ca106941c110fc61fe1efbb9e101f39ed2c8896447c30eb45ff2",
      "blockHash": "0x6e33202e4bc28099519fa83f8a6201e2904bad15e4c3c64c752f6ba7cc918b1e",
      "blockNumber": 71218,
      "transactionIndex": 1,
      "confirmations": null,
      "from": "0x17580B766f7453525ca4C6A88b01b50570EA088C",
      "gasPrice": {
        "_hex": "0xd18102a8e"
      },
      "gasLimit": {
        "_hex": "0x61a80"
      },
      "to": "0x5Fe5B7546D1628f7348B023A0393de1FC825A4fD",
      "value": {
        "_hex": "0xde0b6b3a7640000"
      },
      "nonce": 121,
      "data": "0xb595b8b50000000000000000000000000000000000000000000000000000000000000000",
      "r": "0x770f425f700882ef3e2349c1a94a3be558f74a8ef3b11f6561b8f04a57eb54b5",
      "s": "0x2dddccd0932a33d56c9ac03119ef183be71200e62d259f6e7075a0e13b215ead",
      "v": 27,
      "creates": null,
      "raw": "0xf89179850d18102a8e83061a80945fe5b7546d1628f7348b023a0393de1fc825a4fd880de0b6b3a7640000a4b595b8b500000000000000000000000000000000000000000000000000000000000000001ba0770f425f700882ef3e2349c1a94a3be558f74a8ef3b11f6561b8f04a57eb54b5a02dddccd0932a33d56c9ac03119ef183be71200e62d259f6e7075a0e13b215ead",
      "networkId": 0,
      "chainId": 0
    }
  ]
}