{
  "hash": "0xac11ed60c23d214c7f6fcd6ad64b8f9a1c55722b7e29a0ca401d6fef64adeafb",
  "parentHash": "0x2edb53f75b96b385c4aafee6a7482ab9e99527d43c91c630f7c24fe7ac12d30b",
  "number": 69036,
  "timestamp": 1439297457,
  "nonce": "0x63b893faf8fa7404",
  "difficulty": 2039918511170,
  "gasLimit": {
    "_hex": "0x2fefd8"
  },
  "gasUsed": {
    "_hex": "0x14820"
  },
  "miner": "0x39A1BB80a741bF5EC39FB9BE59408Fa0F418fFBf",
  "extraData": "0x476574682f76312e302e312f77696e646f77732f676f312e342e32",
  "transactions": [
    {
      "hash": "0xf444d1c0c27e6208ec2c4ae3bc31b8b9db108021a020178ee99b1a68f3f0d1b0",
      "blockHash": "0xac11ed60c23d214c7f6fcd6ad64b8f9a1c55722b7e29a0ca401d6fef64adeafb",
      "blockNumber": 69036,
      "transactionIndex": 0,
      "confirmations": null,
      "from": "0x4B3d47490a0652225aBA8597c8F5918533f838aA",
      "gasPrice": {
        "_hex": "0xba43b7400"
      },
      "gasLimit": {
        "_hex": "0x5208"
      },
      "to": "0x7C7C7353618bA795C12aD85ca780Fb11c8977EB6",
      "value": {
        "_hex": "0x1d7684e6875b000"
      },
      "nonce": 1,
      "data": "0x",
      "r": "0xcd2e7ff14ac2d6f137ef25a081d83e5f71f633996c654af187fc74bf7684f7cc",
      "s": "0x78b262499d611cdc8a117ef32e9e1a4de7a88c8f7fb7c79585e16bba35c4fbe1",
      "v": 27,
      "creates": null,
      "raw": "0xf86c01850ba43b7400825208947c7c7353618ba795c12ad85ca780fb11c8977eb68801d7684e6875b000801ba0cd2e7ff14ac2d6f137ef25a081d83e5f71f633996c654af187fc74bf7684f7cca078b262499d611cdc8a117ef32e9e1a4de7a88c8f7fb7c79585e16bba35c4fbe1",
      "networkId": 0,
      "chainId": 0
    },
    {
      "hash": "0x27b7be70ce7789035c05c210fd4cd0815ea1c7f7456393f3194a07ab3342a968",
      "blockHash": "0xac11ed60c23d214c7f6fcd6ad64b8f9a1c55722b7e29a0ca401d6fef64adeafb",
      "blockNumber": 69036,
      "transactionIndex": 1,
      "confirmations": null,
      "from": "0x9ea9889F198FB8bAd2076Edbdc62a4cc1b3d3840",
      "gasPrice": {
        "_hex": "0xba43b7400"
      },
      "gasLimit": {
        "_hex": "0x5208"
      },
      "to": "0x7B9fe200a9d435DA2D142176A6A658050D8458B4",
      "value": {
        "_hex": "0x1d7684e6875b000"
      },
      "nonce": 1,
      "data": "0x",
      "r": "0xeacbfdd2ddb31a611db8e214c8505b1a4a6fe3a18851daec39aeb8b2f05e2ab5",
      "s": "0x494bd0ab5458098fee8facede7ee8ee3db4cb129242ee8510fe0fa5305f4deaa",
      "v": 28,
      "creates": null,
      "raw": "0xf86c01850ba43b7400825208947b9fe200a9d435da2d142176a6a658050d8458b48801d7684e6875b000801ca0eacbfdd2ddb31a611db8e214c8505b1a4a6fe3a18851daec39aeb8b2f05e2ab5a0494bd0ab5458098fee8facede7ee8ee3db4cb129242ee8510fe0fa5305f4deaa",
      "networkId": 0,
      "chainId": 0
    },
    {
      "hash": "0xfaf1995d3ef8fc40ac66fb3fe5e4c534662d607f9b2d5660f7a66fa4ce574e32",
      "blockHash": "0xac11ed60c23d214c7f6fcd6ad64b8f9a1c55722b7e29a0ca401d6fef64adeafb",
      "blockNumber": 69036,
      "transactionIndex": 2,
      "confirmations": null,
      "from": "0x53620B11F966B9c1eC93a27DF446D8cC706b50b2",
      "gasPrice": {
        "_hex": "0xba43b7400"
      },
      "gasLimit": {
        "_hex": "0x5208"
      },
      "to": "0x5Bfd4d8E64f6112e38E227FB24a28dfa24377C2B",
      "value": {
        "_hex": "0x1d7684e6875b000"
      },
      "nonce": 1,
      "data": "0x",
      "r": "0x176db2c5d971ee7ea3623ff51458cdd5d1c0167edb68b9be75ea8a4a2a323acc",
      "s": "0x651c2b8e536cf0eeec7ab611f293a69887c1548213b730cb47ca7a38bb2fc95e",
      "v": 27,
      "creates": null,
      "raw": "0xf86c01850ba43b7400825208945bfd4d8e64f6112e38e227fb24a28dfa24377c2b8801d7684e6875b000801ba0176db2c5d971ee7ea3623ff51458cdd5d1c0167edb68b9be75ea8a4a2a323acca0651c2b8e536cf0eeec7ab611f293a69887c1548213b730cb47ca7a38bb2fc95e",
      "networkId": 0,
      "chainId": 0
    },
    {
      "hash": "0x6994b0600f0f7321d1a9d703e4934230c4f7c60ddfb5f5b3652c62957f0afe9b",
      "blockHash": "0xac11ed60c23d214c7f6fcd6ad64b8f9a1c55722b7e29a0ca401d6fef64adeafb",
      "blockNumber": 69036,
      "transactionIndex": 3,
      "confirmations": null,
      "from": "0x0493806581BeC844614686B5033B6fa994ef5e2A",
      "gasPrice": {
        "_hex": "0xba43b7400"
      },
      "gasLimit": {
        "_hex": "0x5208"
      },
      "to": "0x0665f3A3CE395B579091269869b353364349031E",
      "value": {
        "_hex": "0x1d7684e6875b000"
      },
      "nonce": 1,
      "data": "0x",
      "r": "0xdde602639d4e27f649cf91983cba43baee87012967f5220089a8a4b8605b81eb",
      "s": "0x16b3b8752a4901693712e71a0ed0b317b468f6a25cbd632ebe3c2fa1caca90e9",
      "v": 27,
      "creates": null,
      "raw": "0xf86c01850ba43b7400825208940665f3a3ce395b579091269869b353364349031e8801d7684e6875b000801ba0dde602639d4e27f649cf91983cba43baee87012967f5220089a8a4b8605b81eba016b3b8752a4901693712e71a0ed0b317b468f6a25cbd632ebe3c2fa1caca90e9",
      "networkId": 0,
      "chainId": 0
    }
  ]
}