{
  "hash": "0x69b72d4313417b37f3e4760b60e447a729d80929f25e4ec30fd8822ce8c17626",
  "parentHash": "0x75b85c9addcd3a0a6cde7da4b39b8c3f165f860b0cecdd36b486e604f596461e",
  "number": 108105,
  "timestamp": 1439934150,
  "nonce": "0xafee23fb2007232c",
  "difficulty": 4381081023039,
  "gasLimit": {
    "_hex": "0x2fefd8"
  },
  "gasUsed": {
    "_hex": "0x5208"
  },
  "miner": "0xe6A7a1d47ff21B6321162AEA7C6CB457D5476Bca",
  "extraData": "0x476574682f76312e302e312d38326566323666362f6c696e75782f676f312e34",
  "transactions": [
    {
      "hash": "0x2ed0599feaee06a53ca62e686bf44c3bbd60b71417b41f596e2a4af6d98ced45",
      "blockHash": "0x69b72d4313417b37f3e4760b60e447a729d80929f25e4ec30fd8822ce8c17626",
      "blockNumber": 108105,
      "transactionIndex": 0,
      "confirmations": null,
      "from": "0x8710908977F5FaA8Ff9BC8cf3c0A928bF83AA873",
      "gasPrice": {
        "_hex": "0xd53866213"
      },
      "gasLimit": {
        "_hex": "0x5208"
      },
      "to": "0x32Be343B94f860124dC4fEe278FDCBD38C102D88",
      "value": {
        "_hex": "0x24f4b083d85d400"
      },
      "nonce": 0,
      "data": "0x",
      "r": "0xf27a6e15ae108867b5089b048cc51ca08563b68a0a3e7d50863d6ed6c5e7540f",
      "s": "0x0aae72b896147709d59cd810b4214d83c9e2de1b355673b7bb895f354a8a49c1",
      "v": 28,
      "creates": null,
      "raw": "0xf86c80850d538662138252089432be343b94f860124dc4fee278fdcbd38c102d8888024f4b083d85d400801ca0f27a6e15ae108867b5089b048cc51ca08563b68a0a3e7d50863d6ed6c5e7540fa00aae72b896147709d59cd810b4214d83c9e2de1b355673b7bb895f354a8a49c1",
      "networkId": 0,
      "chainId": 0
    }
  ]
}