{
  "hash": "0x4b58c4f3f1a07f7c75b6920000dba655049012e30d2caf5c4421f6667f4e5b0a",
  "parentHash": "0x05393cd4ad5ca2332b09750db7190552bc7b162d0893daf50fcf6b41882154d1",
  "number": 110328,
  "timestamp": 1439971807,
  "nonce": "0x5d539e7cdff6a016",
  "difficulty": 4364975304009,
  "gasLimit": {
    "_hex": "0x2fefd8"
  },
  "gasUsed": {
    "_hex": "0x75eb8"
  },
  "miner": "0x88D74a59454F6cF3B51ef6b9136AFb6b9D405A88",
  "extraData": "0x",
  "transactions": [
    {
      "hash": "0x1a9f6147b216e032c01b6f2752c3faf6713da3d0df8bf01e45e928082a128a7d",
      "blockHash": "0x4b58c4f3f1a07f7c75b6920000dba655049012e30d2caf5c4421f6667f4e5b0a",
      "blockNumber": 110328,
      "transactionIndex": 0,
      "confirmations": null,
      "from": "0xe6A7a1d47ff21B6321162AEA7C6CB457D5476Bca",
      "gasPrice": {
        "_hex": "0xd3e65021d"
      },
      "gasLimit": {
        "_hex": "0x55f0"
      },
      "to": "0x602E2B65e38bD1B0AB230B35878dF011d74f2c59",
      "value": {
        "_hex": "0x13d97c67fd1aa260"
      },
      "nonce": 4122,
      "data": "0x",
      "r": "0x8f497a4d6a3bd0372415d582b01e31378ca0a09a86bbf2715b5a4b4825074d20",
      "s": "0x08062e50fc60a44b26300b75ed8bff50e6e0d1f8df76c49e4ab3dee5ad6ba05a",
      "v": 28,
      "creates": null,
      "raw": "0xf86e82101a850d3e65021d8255f094602e2b65e38bd1b0ab230b35878df011d74f2c598813d97c67fd1aa260801ca08f497a4d6a3bd0372415d582b01e31378ca0a09a86bbf2715b5a4b4825074d20a008062e50fc60a44b26300b75ed8bff50e6e0d1f8df76c49e4ab3dee5ad6ba05a",
      "networkId": 0,
      "chainId": 0
    },
    {
      "hash": "0xf6ee8b370fd43d273e4c7d378f87a7829a02f3ae15b7e4b6433b81d6b748559c",
      "blockHash": "0x4b58c4f3f1a07f7c75b6920000dba655049012e30d2caf5c4421f6667f4e5b0a",
      "blockNumber": 110328,
      "transactionIndex": 1,
      "confirmations": null,
      "from": "0xe6A7a1d47ff21B6321162AEA7C6CB457D5476Bca",
      "gasPrice": {
        "_hex": "0xd3e65021d"
      },
      "gasLimit": {
        "_hex": "0x55f0"
      },
      "to": "0x202833e8072EDc2bcD3b718CEE181919ed39f54B",
      "value": {
        "_hex": "0x14055be50bfe7c24"
      },
      "nonce": 4123,
      "data": "0x",
      "r": "0x44cb8073b622564708a0b051486db41a86743961ff9692802ece8aafc5c63e00",
      "s": "0x5852177ff4b0285e6e5922ea8090673590a30fab1d2c30345b3684292680a21b",
      "v": 27,
      "creates": null,
      "raw": "0xf86e82101b850d3e65021d8255f094202833e8072edc2bcd3b718cee181919ed39f54b8814055be50bfe7c24801ba044cb8073b622564708a0b051486db41a86743961ff9692802ece8aafc5c63e00a05852177ff4b0285e6e5922ea8090673590a30fab1d2c30345b3684292680a21b",
      "networkId": 0,
      "chainId": 0
    },
    {
      "hash": "0x465839ce9974c226c079a2edb0e8c51c1fef340a3f81dd767b2757b77aca5a6e",
      "blockHash": "0x4b58c4f3f1a07f7c75b6920000dba655049012e30d2caf5c4421f6667f4e5b0a",
      "blockNumber": 110328,
      "transactionIndex": 2,
      "confirmations": null,
      "from": "0xe6A7a1d47ff21B6321162AEA7C6CB457D5476Bca",
      "gasPrice": {
        "_hex": "0xd3e65021d"
      },
      "gasLimit": {
        "_hex": "0x55f0"
      },
      "to": "0x7409AD0F9A56C154e2a23176962D3e111A72A9Eb",
      "value": {
        "_hex": "0x140619ca28dceb20"
      },
      "nonce": 4124,
      "data": "0x",
      "r": "0xe1dae4716b458457f6111f7209887e40e8de351064930039cc454fc498ed4914",
      "s": "0x27f45f66a7be0a129017e8e5b2160b3b2bfa58c3ca0e60aed2cc676356356725",
      "v": 28,
      "creates": null,
      "raw": "0xf86e82101c850d3e65021d8255f0947409ad0f9a56c154e2a23176962d3e111a72a9eb88140619ca28dceb20801ca0e1dae4716b458457f6111f7209887e40e8de351064930039cc454fc498ed4914a027f45f66a7be0a129017e8e5b2160b3b2bfa58c3ca0e60aed2cc676356356725",
      "networkId": 0,
      "chainId": 0
    },
    {
      "hash": "0x688019aa323530979fd4d3d9fa452cccfc8a6a0ec651f3a4a4573c94d3c6fa50",
      "blockHash": "0x4b58c4f3f1a07f7c75b6920000dba655049012e30d2caf5c4421f6667f4e5b0a",
      "blockNumber": 110328,
      "transactionIndex": 3,
      "confirmations": null,
      "from": "0xe6A7a1d47ff21B6321162AEA7C6CB457D5476Bca",
      "gasPrice": {
        "_hex": "0xd3e65021d"
      },
      "gasLimit": {
        "_hex": "0x55f0"
      },
      "to": "0x663555F143e6a4674c0FdF2e73f12fdaf5D51112",
      "value": {
        "_hex": "0x14274dc5aab18cc8"
      },
      "nonce": 4125,
      "data": "0x",
      "r": "0xc104b9c5bd3b32fe0a46b388e9d25c155637cc814c7b504e24cc7fd175cc5aa1",
      "s": "0x2bce4f7b3fb4d9631a91f5d82bc49c8ac84c1368529edd05fbc49206de356dc5",
      "v": 28,
      "creates": null,
      "raw": "0xf86e82101d850d3e65021d8255f094663555f143e6a4674c0fdf2e73f12fdaf5d511128814274dc5aab18cc8801ca0c104b9c5bd3b32fe0a46b388e9d25c155637cc814c7b504e24cc7fd175cc5aa1a02bce4f7b3fb4d9631a91f5d82bc49c8ac84c1368529edd05fbc49206de356dc5",
      "networkId": 0,
      "chainId": 0
    },
    {
      "hash": "0x24980cbb5522d1d07c2e72aeec9c1b7e5ebbdcdec911e84a18f2d2723ce12ed4",
      "blockHash": "0x4b58c4f3f1a07f7c75b6920000dba655049012e30d2caf5c4421f6667f4e5b0a",
      "blockNumber": 110328,
      "transactionIndex": 4,
      "confirmations": null,
      "from": "0xe6A7a1d47ff21B6321162AEA7C6CB457D5476Bca",
      "gasPrice": {
        "_hex": "0xd3e65021d"
      },
      "gasLimit": {
        "_hex": "0x55f0"
      },
      "to": "0x87434351D204a98354B6fd9819e91F33F1F0a91D",
      "value": {
        "_hex": "0x1444bb04501af6b8"
      },
      "nonce": 4126,
      "data": "0x",
      "r": "0xd71a94821a33ff12a65b29e97c53d1ecf01d38548bae564ee7bb3b559d91213d",
      "s": "0x5ba7fef37e6615bd6f158e4e11a89281b39d923db5738fd3ed20f288a5a24d82",
      "v": 28,
      "creates": null,
      "raw": "0xf86e82101e850d3e65021d8255f09487434351d204a98354b6fd9819e91f33f1f0a91d881444bb04501af6b8801ca0d71a94821a33ff12a65b29e97c53d1ecf01d38548bae564ee7bb3b559d91213da05ba7fef37e6615bd6f158e4e11a89281b39d923db5738fd3ed20f288a5a24d82",
      "networkId": 0,
      "chainId": 0
    },
    {
      "hash": "0x47667e114102f02ebc8984414d1e789482c02fcf7381ee5e7b804e3d0eefe52f",
      "blockHash": "0x4b58c4f3f1a07f7c75b6920000dba655049012e30d2caf5c4421f6667f4e5b0a",
      "blockNumber": 110328,
      "transactionIndex": 5,
      "confirmations": null,
      "from": "0xe6A7a1d47ff21B6321162AEA7C6CB457D5476Bca",
      "gasPrice": {
        "_hex": "0xd3e65021d"
      },
      "gasLimit": {
        "_hex": "0x55f0"
      },
      "to": "0xF8Fca9e38A8bc846BE8ea3B37bb94ea23B475D2F",
      "value": {
        "_hex": "0x1461f998831c592c"
      },
      "nonce": 4127,
      "data": "0x",
      "r": "0x32b993ce7accee7af5bcbdf3a735c01094778e77868b990f50027682a69da080",
      "s": "0x24e6307c2fac4c95256b48cfe06bb8f172aeea89a58dc5d692709e1b00ab99a7",
      "v": 27,
      "creates": null,
      "raw": "0xf86e82101f850d3e65021d8255f094f8fca9e38a8bc846be8ea3b37bb94ea23b475d2f881461f998831c592c801ba032b993ce7accee7af5bcbdf3a735c01094778e77868b990f50027682a69da080a024e6307c2fac4c95256b48cfe06bb8f172aeea89a58dc5d692709e1b00ab99a7",
      "networkId": 0,
      "chainId": 0
    },
    {
      "hash": "0x7c5c99954cdcdac22a6226291fc251cd2bdba876bb166ec319fd58f3e928feee",
      "blockHash": "0x4b58c4f3f1a07f7c75b6920000dba655049012e30d2caf5c4421f6667f4e5b0a",
      "blockNumber": 110328,
      "transactionIndex": 6,
      "confirmations": null,
      "from": "0xe6A7a1d47ff21B6321162AEA7C6CB457D5476Bca",
      "gasPrice": {
        "_hex": "0xd3e65021d"
      },
      "gasLimit": {
        "_hex": "0x55f0"
      },
      "to": "0x55d6bb729E3D6128B9032d03897D7C85cBB4e688",
      "value": {
        "_hex": "0x147d1a1dfd54a378"
      },
      "nonce": 4128,
      "data": "0x",
      "r": "0x5a272a27c15c4a5df4c9428bdb1c2481d88de48f12db2d751b483b7c84ec122d",
      "s": "0x166cdfc17928349d503991c81b2000c9f55790edfffd028841bae64621d0f2a3",
      "v": 28,
      "creates": null,
      "raw": "0xf86e821020850d3e65021d8255f09455d6bb729e3d6128b9032d03897d7c85cbb4e68888147d1a1dfd54a378801ca05a272a27c15c4a5df4c9428bdb1c2481d88de48f12db2d751b483b7c84ec122da0166cdfc17928349d503991c81b2000c9f55790edfffd028841bae64621d0f2a3",
      "networkId": 0,
      "chainId": 0
    },
    {
      "hash": "0xdcbae5f460da2e8513ea43a1268b2873c6bea656911d63034be83b0e28543195",
      "blockHash": "0x4b58c4f3f1a07f7c75b6920000dba655049012e30d2caf5c4421f6667f4e5b0a",
      "blockNumber": 110328,
      "transactionIndex": 7,
      "confirmations": null,
      "from": "0xe6A7a1d47ff21B6321162AEA7C6CB457D5476Bca",
      "gasPrice": {
        "_hex": "0xd3e65021d"
      },
      "gasLimit": {
        "_hex": "0x55f0"
      },
      "to": "0xe1d9d0792E4175fbd6FA9Ab344AE5b1F9B0D78B2",
      "value": {
        "_hex": "0x149968924afd2008"
      },
      "nonce": 4129,
      "data": "0x",
      "r": "0xc9bccfe919f7f89e93affec4a6aa39e1ada6808da061082cb872a8ae4cb2133e",
      "s": "0x5d31f1edac19efcea95f6be0ab40d27d93c2cc40cd299c72f355dbfc6693d577",
      "v": 27,
      "creates": null,
      "raw": "0xf86e821021850d3e65021d8255f094e1d9d0792e4175fbd6fa9ab344ae5b1f9b0d78b288149968924afd2008801ba0c9bccfe919f7f89e93affec4a6aa39e1ada6808da061082cb872a8ae4cb2133ea05d31f1edac19efcea95f6be0ab40d27d93c2cc40cd299c72f355dbfc6693d577",
      "networkId": 0,
      "chainId": 0
    },
    {
      "hash": "0xdaaaf684ac8ca4928df07c635ed49fd83b39f3272943821c40752900469bd2ac",
      "blockHash": "0x4b58c4f3f1a07f7c75b6920000dba655049012e30d2caf5c4421f6667f4e5b0a",
      "blockNumber": 110328,
      "transactionIndex": 8,
      "confirmations": null,
      "from": "0xe6A7a1d47ff21B6321162AEA7C6CB457D5476Bca",
      "gasPrice": {
        "_hex": "0xd3e65021d"
      },
      "gasLimit": {
        "_hex": "0x55f0"
      },
      "to": "0xd68ba7734753e2eE54103116323aBA2D94C78dC5",
      "value": {
        "_hex": "0x149a961179e5962c"
      },
      "nonce": 4130,
      "data": "0x",
      "r": "0x0753c0b0bb2c18426917bb1c726cc146ea01f087450315a702cf305eb4b618ea",
      "s": "0x4f43508000f46e0b195b6b0260bb6683d9cf95260c726dfca013e09789989b38",
      "v": 27,
      "creates": null,
      "raw": "0xf86e821022850d3e65021d8255f094d68ba7734753e2ee54103116323aba2d94c78dc588149a961179e5962c801ba00753c0b0bb2c18426917bb1c726cc146ea01f087450315a702cf305eb4b618eaa04f43508000f46e0b195b6b0260bb6683d9cf95260c726dfca013e09789989b38",
      "networkId": 0,
      "chainId": 0
    },
    {
      "hash": "0x1d0ae65ad8b4bd826141bf2fd50e91deb4102d039df95f26a34f91b5384ea95c",
      "blockHash": "0x4b58c4f3f1a07f7c75b6920000dba655049012e30d2caf5c4421f6667f4e5b0a",
      "blockNumber": 110328,
      "transactionIndex": 9,
      "confirmations": null,
      "from": "0xe6A7a1d47ff21B6321162AEA7C6CB457D5476Bca",
      "gasPrice": {
        "_hex": "0xd3e65021d"
      },
      "gasLimit": {
        "_hex": "0x55f0"
      },
      "to": "0xb82415923664590236aea1c1912955E7653B9FCa",
      "value": {
        "_hex": "0x149befade1d1cd18"
      },
      "nonce": 4131,
      "data": "0x",
      "r": "0xeaad0e54f6c4ae78b7dec49989fa88b73fb0aa2de7919fb34a0ef877bf2d9b9d",
      "s": "0x0b236c367d8e753a027bc913a65d158b601b38e961d89d2e9845527bffb1b7dd",
      "v": 28,
      "creates": null,
      "raw": "0xf86e821023850d3e65021d8255f094b82415923664590236aea1c1912955e7653b9fca88149befade1d1cd18801ca0eaad0e54f6c4ae78b7dec49989fa88b73fb0aa2de7919fb34a0ef877bf2d9b9da00b236c367d8e753a027bc913a65d158b601b38e961d89d2e9845527bffb1b7dd",
      "networkId": 0,
      "chainId": 0
    },
    {
      "hash": "0xc79e88532cf75f9cc559d0abb8683c31c0a0abc978e32811c36f9b141efdc360",
      "blockHash": "0x4b58c4f3f1a07f7c75b6920000dba655049012e30d2caf5c4421f6667f4e5b0a",
      "blockNumber": 110328,
      "transactionIndex": 10,
      "confirmations": null,
      "from": "0xe6A7a1d47ff21B6321162AEA7C6CB457D5476Bca",
      "gasPrice": {
        "_hex": "0xd3e65021d"
      },
      "gasLimit": {
        "_hex": "0x55f0"
      },
      "to": "0xB0f264dc10CE034cA560a614b1E044C1d91A3bAe",
      "value": {
        "_hex": "0x149ecbc5d087cd18"
      },
      "nonce": 4132,
      "data": "0x",
      "r": "0x94ddabe4ac57435aa26674f00a149a93934dc2dcc951bec801f05576ea263ee0",
      "s": "0x3dff42cb4d5c95603d32d23ccbae626c313caaffea76222ceaf5580b27f575f5",
      "v": 28,
      "creates": null,
      "raw": "0xf86e821024850d3e65021d8255f094b0f264dc10ce034ca560a614b1e044c1d91a3bae88149ecbc5d087cd18801ca094ddabe4ac57435aa26674f00a149a93934dc2dcc951bec801f05576ea263ee0a03dff42cb4d5c95603d32d23ccbae626c313caaffea76222ceaf5580b27f575f5",
      "networkId": 0,
      "chainId": 0
    },
    {
      "hash": "0x3495af8c50c5a1b44162f65ff40945b9beb7e6fd4bd52f09ebbb017c774924f5",
      "blockHash": "0x4b58c4f3f1a07f7c75b6920000dba655049012e30d2caf5c4421f6667f4e5b0a",
      "blockNumber": 110328,
      "transactionIndex": 11,
      "confirmations": null,
      "from": "0xe6A7a1d47ff21B6321162AEA7C6CB457D5476Bca",
      "gasPrice": {
        "_hex": "0xd3e65021d"
      },
      "gasLimit": {
        "_hex": "0x55f0"
      },
      "to": "0x42e16B3732ae6f3e38AeE7546f36149C9eCB8F26",
      "value": {
        "_hex": "0x14c25acc31b521f4"
      },
      "nonce": 4133,
      "data": "0x",
      "r": "0x1591c932ce1a3a24917893633ba46dd7ff7527fe746de2990a3eab9656fa3a74",
      "s": "0x69fdf358c2bc1b9bd625b209b319e2230c308bf91b82276c5b66dc362f64ac86",
      "v": 27,
      "creates": null,
      "raw": "0xf86e821025850d3e65021d8255f09442e16b3732ae6f3e38aee7546f36149c9ecb8f268814c25acc31b521f4801ba01591c932ce1a3a24917893633ba46dd7ff7527fe746de2990a3eab9656fa3a74a069fdf358c2bc1b9bd625b209b319e2230c308bf91b82276c5b66dc362f64ac86",
      "networkId": 0,
      "chainId": 0
    },
    {
      "hash": "0x822b2c5f48111f09fd70757b7ec92902f102d8d6c2ef486db61e985abf52210c",
      "blockHash": "0x4b58c4f3f1a07f7c75b6920000dba655049012e30d2caf5c4421f6667f4e5b0a",
      "blockNumber": 110328,
      "transactionIndex": 12,
      "confirmations": null,
      "from": "0xe6A7a1d47ff21B6321162AEA7C6CB457D5476Bca",
      "gasPrice": {
        "_hex": "0xd3e65021d"
      },
      "gasLimit": {
        "_hex": "0x55f0"
      },
      "to": "0x57C413ECd1d83c2C65B14ABE1FB48D4Fc3136844",
      "value": {
        "_hex": "0x14d11feba043c4d4"
      },
      "nonce": 4134,
      "data": "0x",
      "r": "0xef8433a621cbc643e388f8d23ee9cb1a30507df3896c3365e6d96b4c8861605b",
      "s": "0x3c48f3bb15bd41d59927e3b9f4dce9c0fa48ad7470f96359a93774402b0763af",
      "v": 28,
      "creates": null,
      "raw": "0xf86e821026850d3e65021d8255f09457c413ecd1d83c2c65b14abe1fb48d4fc31368448814d11feba043c4d4801ca0ef8433a621cbc643e388f8d23ee9cb1a30507df3896c3365e6d96b4c8861605ba03c48f3bb15bd41d59927e3b9f4dce9c0fa48ad7470f96359a93774402b0763af",
      "networkId": 0,
      "chainId": 0
    },
    {
      "hash": "0xfb5f2fcceb43b61fbcb63ac92db7ded24ec608abfc4568c75b0085cba1b3463b",
      "blockHash": "0x4b58c4f3f1a07f7c75b6920000dba655049012e30d2caf5c4421f6667f4e5b0a",
      "blockNumber": 110328,
      "transactionIndex": 13,
      "confirmations": null,
      "from": "0xe6A7a1d47ff21B6321162AEA7C6CB457D5476Bca",
      "gasPrice": {
        "_hex": "0xd3e65021d"
      },
      "gasLimit": {
        "_hex": "0x55f0"
      },
      "to": "0xe2073a029bBF0eE2A933ceeFa9b3658973320CA5",
      "value": {
        "_hex": "0x14edc01d447a6240"
      },
      "nonce": 4135,
      "data": "0x",
      "r": "0x5414ef6420810683b20ffbe403e5e436df2b8f2aa217f980390e4ae9996e9615",
      "s": "0x43d052d83e061e21a4e35bd308538f2710c7beb1913404fa5da43a71c2486941",
      "v": 27,
      "creates": null,
      "raw": "0xf86e821027850d3e65021d8255f094e2073a029bbf0ee2a933ceefa9b3658973320ca58814edc01d447a6240801ba05414ef6420810683b20ffbe403e5e436df2b8f2aa217f980390e4ae9996e9615a043d052d83e061e21a4e35bd308538f2710c7beb1913404fa5da43a71c2486941",
      "networkId": 0,
      "chainId": 0
    },
    {
      "hash": "0x2319c2e2958bfc00a48870b00bfdc60714d4b5475730bcfd48cb9fba404ffaa3",
      "blockHash": "0x4b58c4f3f1a07f7c75b6920000dba655049012e30d2caf5c4421f6667f4e5b0a",
      "blockNumber": 110328,
      "transactionIndex": 14,
      "confirmations": null,
      "from": "0xe6A7a1d47ff21B6321162AEA7C6CB457D5476Bca",
      "gasPrice": {
        "_hex": "0xd3e65021d"
      },
      "gasLimit": {
        "_hex": "0x55f0"
      },
      "to": "0x4245FB34599786Dd82dB47c0f4f2B276001a72CF",
      "value": {
        "_hex": "0x150ef534a5dbc304"
      },
      "nonce": 4136,
      "data": "0x",
      "r": "0x4a2f9b703c602faac2074db5e67f0d3d6391bbe18cc84c3474f13e370563705c",
      "s": "0x65d8d024c693524c83a472cd4709065b5d2c5d38e2c1d7879b70c1a014c97f04",
      "v": 27,
      "creates": null,
      "raw": "0xf86e821028850d3e65021d8255f0944245fb34599786dd82db47c0f4f2b276001a72cf88150ef534a5dbc304801ba04a2f9b703c602faac2074db5e67f0d3d6391bbe18cc84c3474f13e370563705ca065d8d024c693524c83a472cd4709065b5d2c5d38e2c1d7879b70c1a014c97f04",
      "networkId": 0,
      "chainId": 0
    },
    {
      "hash": "0x67107b67213afc2a9109783cc5ed946cc6f03e3b9a560032c4f722b241ee7e17",
      "blockHash": "0x4b58c4f3f1a07f7c75b6920000dba655049012e30d2caf5c4421f6667f4e5b0a",
      "blockNumber": 110328,
      "transactionIndex": 15,
      "confirmations": null,
      "from": "0xe6A7a1d47ff21B6321162AEA7C6CB457D5476Bca",
      "gasPrice": {
        "_hex": "0xd3e65021d"
      },
      "gasLimit": {
        "_hex": "0x55f0"
      },
      "to": "0x7bC11D546783d2e3b7Bb2241D5f43Fb2611C3B98",
      "value": {
        "_hex": "0x15270b1a74a46ed0"
      },
      "nonce": 4137,
      "data": "0x",
      "r": "0x866acbf6ef9ed91e5d70a137d8ec40fedb9a437c27aceef9c1c9d088ad9bba96",
      "s": "0x646b40c637cd54000fe562742b82222f8f20b1bcf594c834d36505fbdca57def",
      "v": 27,
      "creates": null,
      "raw": "0xf86e821029850d3e65021d8255f0947bc11d546783d2e3b7bb2241d5f43fb2611c3b988815270b1a74a46ed0801ba0866acbf6ef9ed91e5d70a137d8ec40fedb9a437c27aceef9c1c9d088ad9bba96a0646b40c637cd54000fe562742b82222f8f20b1bcf594c834d36505fbdca57def",
      "networkId": 0,
      "chainId": 0
    },
    {
      "hash": "0x0058ea34ccd51c7ec7a57759205031c8479cab7793a4aa1fcde71e3c589c48e7",
      "blockHash": "0x4b58c4f3f1a07f7c75b6920000dba655049012e30d2caf5c4421f6667f4e5b0a",
      "blockNumber": 110328,
      "transactionIndex": 16,
      "confirmations": null,
      "from": "0xe6A7a1d47ff21B6321162AEA7C6CB457D5476Bca",
      "gasPrice": {
        "_hex": "0xd3e65021d"
      },
      "gasLimit": {
        "_hex": "0x55f0"
      },
      "to": "0x37E0B394d41C669662b52628639E6E4c1ac3F23D",
      "value": {
        "_hex": "0x1528b54d522c91f0"
      },
      "nonce": 4138,
      "data": "0x",
      "r": "0xa97bf401c3c20f0fd86436b4a226241428f1da9fedaf080a7e31bd527dff7c93",
      "s": "0x539a89c47023d17e1a02e5098a673444b2caf43d43eedb795aa212a0ea00e651",
      "v": 28,
      "creates": null,
      "raw": "0xf86e82102a850d3e65021d8255f09437e0b394d41c669662b52628639e6e4c1ac3f23d881528b54d522c91f0801ca0a97bf401c3c20f0fd86436b4a226241428f1da9fedaf080a7e31bd527dff7c93a0539a89c47023d17e1a02e5098a673444b2caf43d43eedb795aa212a0ea00e651",
      "networkId": 0,
      "chainId": 0
    },
    {
      "hash": "0xac08a092f44ed2013b7423cc95304e3677fbf1dafa678be55cc871a0ce84eecb",
      "blockHash": "0x4b58c4f3f1a07f7c75b6920000dba655049012e30d2caf5c4421f6667f4e5b0a",
      "blockNumber": 110328,
      "transactionIndex": 17,
      "confirmations": null,
      "from": "0xe6A7a1d47ff21B6321162AEA7C6CB457D5476Bca",
      "gasPrice": {
        "_hex": "0xd3e65021d"
      },
      "gasLimit": {
        "_hex": "0x55f0"
      },
      "to": "0xcCF7110d1Bd9A74bfd1d7d7d2d9D55607E7B837d",
      "value": {
        "_hex": "0x15442ae6e2457c14"
      },
      "nonce": 4139,
      "data": "0x",
      "r": "0x053437fe0824210189aa6bc6a483531e7698aaa2a4c51271392c44b0bca8c26e",
      "s": "0x1ddbc31a1b3d6c41093b627d1089cfa8f66ad87c938ac07482002b227b4d24de",
      "v": 28,
      "creates": null,
      "raw": "0xf86e82102b850d3e65021d8255f094ccf7110d1bd9a74bfd1d7d7d2d9d55607e7b837d8815442ae6e2457c14801ca0053437fe0824210189aa6bc6a483531e7698aaa2a4c51271392c44b0bca8c26ea01ddbc31a1b3d6c41093b627d1089cfa8f66ad87c938ac07482002b227b4d24de",
      "networkId": 0,
      "chainId": 0
    },
    {
      "hash": "0x62f497e09c320b7e05101d3812e7fa7e7a96931c78f00c3dec331b580124766d",
      "blockHash": "0x4b58c4f3f1a07f7c75b6920000dba655049012e30d2caf5c4421f6667f4e5b0a",
      "blockNumber": 110328,
      "transactionIndex": 18,
      "confirmations": null,
      "from": "0xe6A7a1d47ff21B6321162AEA7C6CB457D5476Bca",
      "gasPrice": {
        "_hex": "0xd3e65021d"
      },
      "gasLimit": {
        "_hex": "0x55f0"
      },
      "to": "0xdCe26B66eabfB4dE900E4944DcC2FA2d455021fc",
      "value": {
        "_hex": "0x15948af58e3f0af8"
      },
      "nonce": 4140,
      "data": "0x",
      "r": "0x389fdc8e03a55a7a917868896238bdec44f20de7e1765b15eedc1e15babb714b",
      "s": "0x69b16e2b45a5e43ac6c5b516bc7dbb6388fad56f5f2ecd515cb6bd2cf8099c7a",
      "v": 28,
      "creates": null,
      "raw": "0xf86e82102c850d3e65021d8255f094dce26b66eabfb4de900e4944dcc2fa2d455021fc8815948af58e3f0af8801ca0389fdc8e03a55a7a917868896238bdec44f20de7e1765b15eedc1e15babb714ba069b16e2b45a5e43ac6c5b516bc7dbb6388fad56f5f2ecd515cb6bd2cf8099c7a",
      "networkId": 0,
      "chainId": 0
    },
    {
      "hash": "0x9f5921fb9d7db6db5d69ca0edb05ad9111125ed0f19bfc0d49b48267c23f8f3d",
      "blockHash": "0x4b58c4f3f1a07f7c75b6920000dba655049012e30d2caf5c4421f6667f4e5b0a",
      "blockNumber": 110328,
      "transactionIndex": 19,
      "confirmations": null,
      "from": "0xe6A7a1d47ff21B6321162AEA7C6CB457D5476Bca",
      "gasPrice": {
        "_hex": "0xd3e65021d"
      },
      "gasLimit": {
        "_hex": "0x55f0"
      },
      "to": "0x1d06b86EBBfD6bA717B6d14c0136dE1D88aa5989",
      "value": {
        "_hex": "0x15c16fdf08a97ee0"
      },
      "nonce": 4141,
      "data": "0x",
      "r": "0xfc2c40ab314d8a75e48c74a89467b8696cc073b4163da1fb753964c79e23608e",
      "s": "0x1cb04c16aaf54d2fa8163adfa714233c215394fd936b89a5203ea6feea53b755",
      "v": 28,
      "creates": null,
      "raw": "0xf86e82102d850d3e65021d8255f0941d06b86ebbfd6ba717b6d14c0136de1d88aa59898815c16fdf08a97ee0801ca0fc2c40ab314d8a75e48c74a89467b8696cc073b4163da1fb753964c79e23608ea01cb04c16aaf54d2fa8163adfa714233c215394fd936b89a5203ea6feea53b755",
      "networkId": 0,
      "chainId": 0
    },
    {
      "hash": "0x6da8c942c4efe4c49abbfe4015d9896875156c6fb6a4ba7553792d405c12dd90",
      "blockHash": "0x4b58c4f3f1a07f7c75b6920000dba655049012e30d2caf5c4421f6667f4e5b0a",
      "blockNumber": 110328,
      "transactionIndex": 20,
      "confirmations": null,
      "from": "0xe6A7a1d47ff21B6321162AEA7C6CB457D5476Bca",
      "gasPrice": {
        "_hex": "0xd1dd0185d"
      },
      "gasLimit": {
        "_hex": "0x55f0"
      },
      "to": "0x625C91D2eC2873Db4773931f7DFeF46CC594b2c9",
      "value": {
        "_hex": "0x160bde368c4ba40c"
      },
      "nonce": 4142,
      "data": "0x",
      "r": "0xb52246749b6bc0fa67ac3648b62bb56943411e5f52540197a4bb02218ef6d708",
      "s": "0x574ee4b309055f1fda869fe16ceee17e90ee73f3f7b9e69b9bc8564eb5296cae",
      "v": 27,
      "creates": null,
      "raw": "0xf86e82102e850d1dd0185d8255f094625c91d2ec2873db4773931f7dfef46cc594b2c988160bde368c4ba40c801ba0b52246749b6bc0fa67ac3648b62bb56943411e5f52540197a4bb02218ef6d708a0574ee4b309055f1fda869fe16ceee17e90ee73f3f7b9e69b9bc8564eb5296cae",
      "networkId": 0,
      "chainId": 0
    },
    {
      "hash": "0x30618bbea0d113cc3250e99d10356640bd09d2ed5be6c39a475f10d1efebcd13",
      "blockHash": "0x4b58c4f3f1a07f7c75b6920000dba655049012e30d2caf5c4421f6667f4e5b0a",
      "blockNumber": 110328,
      "transactionIndex": 21,
      "confirmations": null,
      "from": "0xe6A7a1d47ff21B6321162AEA7C6CB457D5476Bca",
      "gasPrice": {
        "_hex": "0xd1dd0185d"
      },
      "gasLimit": {
        "_hex": "0x55f0"
      },
      "to": "0x0Ca595962471f3C517a9C71150cB2F722f7298EF",
      "value": {
        "_hex": "0x16106c1953e30af4"
      },
      "nonce": 4143,
      "data": "0x",
      "r": "0xf478bb6fdb02fe5dd64edbe7c1260c9843cc30226c271c56fd16d40165ddc0c8",
      "s": "0x24a6c98521f5fdd8ea90f8e97cab210774f98b378a0053ceac30fb1c750c0be5",
      "v": 28,
      "creates": null,
      "raw": "0xf86e82102f850d1dd0185d8255f0940ca595962471f3c517a9c71150cb2f722f7298ef8816106c1953e30af4801ca0f478bb6fdb02fe5dd64edbe7c1260c9843cc30226c271c56fd16d40165ddc0c8a024a6c98521f5fdd8ea90f8e97cab210774f98b378a0053ceac30fb1c750c0be5",
      "networkId": 0,
      "chainId": 0
    },
    {
      "hash": "0x4fcd47cd7c15a733b15a2d4713b9b7ed514982e9ee4f779ec0dc0651c72628e5",
      "blockHash": "0x4b58c4f3f1a07f7c75b6920000dba655049012e30d2caf5c4421f6667f4e5b0a",
      "blockNumber": 110328,
      "transactionIndex": 22,
      "confirmations": null,
      "from": "0xe6A7a1d47ff21B6321162AEA7C6CB457D5476Bca",
      "gasPrice": {
        "_hex": "0xd1dd0185d"
      },
      "gasLimit": {
        "_hex": "0x55f0"
      },
      "to": "0x1543667B9bad3e41865C3233E1764d8dda8E1F3D",
      "value": {
        "_hex": "0x1621c83f746f21d4"
      },
      "nonce": 4144,
      "data": "0x",
      "r": "0x4e263deeacc292a7bdfe87416879a929cedb7a710e687fa84074eada67ab0e1f",
      "s": "0x1f780e962c48c21fb6c675ad3638c2675f4f1adbbb2d54629fb342a9c6bcac6f",
      "v": 28,
      "creates": null,
      "raw": "0xf86e821030850d1dd0185d8255f0941543667b9bad3e41865c3233e1764d8dda8e1f3d881621c83f746f21d4801ca04e263deeacc292a7bdfe87416879a929cedb7a710e687fa84074eada67ab0e1fa01f780e962c48c21fb6c675ad3638c2675f4f1adbbb2d54629fb342a9c6bcac6f",
      "networkId": 0,
      "chainId": 0
    }
  ]
}