{
  "hash": "0xea4105452611eb03a295311ec1389fd431d7cb70191c6d3e238b364c4da7d3fd",
  "parentHash": "0xddafd191474455e95000f1f101491ce4bffa09a19c7a947e1432c8658695750c",
  "number": 53893,
  "timestamp": 1439045323,
  "nonce": "0x500bd2277a574573",
  "difficulty": 1600131994593,
  "gasLimit": {
    "_hex": "0x2fefd8"
  },
  "gasUsed": {
    "_hex": "0x5208"
  },
  "miner": "0xbb7B8287f3F0a933474a79eAe42CBCa977791171",
  "extraData": "0x476574682f4c5649562f76312e302e312f6c696e75782f676f312e342e32",
  "transactions": [
    {
      "hash": "0x80a138de0c639d6def2e1518cd656cb4850e0646ff33228d9f3e5c8603d776b6",
      "blockHash": "0xea4105452611eb03a295311ec1389fd431d7cb70191c6d3e238b364c4da7d3fd",
      "blockNumber": 53893,
      "transactionIndex": 0,
      "confirmations": null,
      "from": "0x24bD5904059091d2f9E12d6a26A010CA22ab14E8",
      "gasPrice": {
        "_hex": "0xd7d40ace3"
      },
      "gasLimit": {
        "_hex": "0x15f90"
      },
      "to": "0xdE8b99F68A20641A07501B9f1DC2CB73251C5909",
      "value": {
        "_hex": "0xde0b6b3a7640000"
      },
      "nonce": 0,
      "data": "0x",
      "r": "0xfde7ef7aaacf53322598722cae4a376c21463054f24e6f46a8f1a1f00ba3665e",
      "s": "0x0ad2494822ea0481cab8b153db2132d7f2d5ee3733fd01ae846696e813f1e858",
      "v": 28,
      "creates": null,
      "raw": "0xf86d80850d7d40ace383015f9094de8b99f68a20641a07501b9f1dc2cb73251c5909880de0b6b3a7640000801ca0fde7ef7aaacf53322598722cae4a376c21463054f24e6f46a8f1a1f00ba3665ea00ad2494822ea0481cab8b153db2132d7f2d5ee3733fd01ae846696e813f1e858",
      "networkId": 0,
      "chainId": 0
    }
  ]
}