{
  "hash": "0x7118816b2a0ad25430ed43451b913e15bf5505ea88e15382e13bae3a1fde6aa0",
  "parentHash": "0x07c39d1db16113ef1def03b11e91766fe51e656e87c03e86464490da7f29c6ed",
  "number": 112506,
  "timestamp": 1440008571,
  "nonce": "0x22d32f99b27a572b",
  "difficulty": 4410972038362,
  "gasLimit": {
    "_hex": "0x2fefd8"
  },
  "gasUsed": {
    "_hex": "0xa410"
  },
  "miner": "0x0037ce3d4B7f8729C8607D8D0248252Be68202c0",
  "extraData": "0x476574682f76312e302e312f77696e646f77732f676f312e342e32",
  "transactions": [
    {
      "hash": "0x25a3c7aa36ec2dd6c0b6c15321f98bef67fe1b75060d4503a37222995dd35bfc",
      "blockHash": "0x7118816b2a0ad25430ed43451b913e15bf5505ea88e15382e13bae3a1fde6aa0",
      "blockNumber": 112506,
      "transactionIndex": 0,
      "confirmations": null,
      "from": "0x49f0609Ed78ee50FAa268a9Bdeb2949fa50d83eD",
      "gasPrice": {
        "_hex": "0xdf837b1c3"
      },
      "gasLimit": {
        "_hex": "0x5208"
      },
      "to": "0x32Be343B94f860124dC4fEe278FDCBD38C102D88",
      "value": {
        "_hex": "0x8a9f222025d40800"
      },
      "nonce": 2,
      "data": "0x",
      "r": "0xf65030b7f2474239c91cdc6e534b4971a254af79bd73fe53931bda0275e368be",
      "s": "0x36628c5a25ba6c7a29a56ece8dd269342d64b3ef23686fbb1527000399c76ced",
      "v": 28,
      "creates": null,
      "raw": "0xf86c02850df837b1c38252089432be343b94f860124dc4fee278fdcbd38c102d88888a9f222025d40800801ca0f65030b7f2474239c91cdc6e534b4971a254af79bd73fe53931bda0275e368bea036628c5a25ba6c7a29a56ece8dd269342d64b3ef23686fbb1527000399c76ced",
      "networkId": 0,
      "chainId": 0
    },
    {
      "hash": "0x5abcf8749f6e8e938b812c184c7bf9cbf21b8747d2c7bac604177c8e49816f95",
      "blockHash": "0x7118816b2a0ad25430ed43451b913e15bf5505ea88e15382e13bae3a1fde6aa0",
      "blockNumber": 112506,
      "transactionIndex": 1,
      "confirmations": null,
      "from": "0x4D67f4F0Db45b3B5a3424B39ed8d972F710381D5",
      "gasPrice": {
        "_hex": "0xdf837b1c3"
      },
      "gasLimit": {
        "_hex": "0x5208"
      },
      "to": "0x32Be343B94f860124dC4fEe278FDCBD38C102D88",
      "value": {
        "_hex": "0x331625bff963ae000"
      },
      "nonce": 39,
      "data": "0x",
      "r": "0x2e03c376ec2aa5d4a8de6b30a21f4f42e6ed6b1b486bcbcd88facd4a15bbae50",
      "s": "0x56ae3230cc7de5d8c0e13b82afb9a216ef35a99935d9819104ba91627a24b6f4",
      "v": 27,
      "creates": null,
      "raw": "0xf86d27850df837b1c38252089432be343b94f860124dc4fee278fdcbd38c102d88890331625bff963ae000801ba02e03c376ec2aa5d4a8de6b30a21f4f42e6ed6b1b486bcbcd88facd4a15bbae50a056ae3230cc7de5d8c0e13b82afb9a216ef35a99935d9819104ba91627a24b6f4",
      "networkId": 0,
      "chainId": 0
    }
  ]
}