{
  "hash": "0x5a51fbbb111a0cf935db5240e9ddf48b96bab7187be7201b92f646b845077480",
  "parentHash": "0x79babb6eaad6ed59cbff27b4c8614b8d65efff8dbe380a8652f68e6dd43b4488",
  "number": 60817,
  "timestamp": 1439162028,
  "nonce": "0xf1daf8f0a01604d1",
  "difficulty": 1735493782426,
  "gasLimit": {
    "_hex": "0x2fefd5"
  },
  "gasUsed": {
    "_hex": "0x5208"
  },
  "miner": "0x01d9DA08cc6Fb97c0DE1B6F4C28910A0859Ed1A1",
  "extraData": "0x476574682f76312e302e312f6c696e75782f676f312e342e32",
  "transactions": [
    {
      "hash": "0x267e912f0297f1c93627945d6cd00ffd616a7a9d3f7c1403218815123f4ce866",
      "blockHash": "0x5a51fbbb111a0cf935db5240e9ddf48b96bab7187be7201b92f646b845077480",
      "blockNumber": 60817,
      "transactionIndex": 0,
      "confirmations": null,
      "from": "0x120A270bbC009644e35F0bB6ab13f95b8199c4ad",
      "gasPrice": {
        "_hex": "0xcb390d0de"
      },
      "gasLimit": {
        "_hex": "0x15f90"
      },
      "to": "0x6aCdB36b4ba1c50356c8A71e94B1361448dDAfF9",
      "value": {
        "_hex": "0x7ce68ff7d8974000"
      },
      "nonce": 52,
      "data": "0x",
      "r": "0x38aab8a2c91d831efb7857ba89c7417235d8413b961c2a48d33251266af6cf46",
      "s": "0x55282794d2ac221f3ba580144c590eb73fc1cd2bb21ecabf6b87412c90787d04",
      "v": 27,
      "creates": null,
      "raw": "0xf86d34850cb390d0de83015f90946acdb36b4ba1c50356c8a71e94b1361448ddaff9887ce68ff7d8974000801ba038aab8a2c91d831efb7857ba89c7417235d8413b961c2a48d33251266af6cf46a055282794d2ac221f3ba580144c590eb73fc1cd2bb21ecabf6b87412c90787d04",
      "networkId": 0,
      "chainId": 0
    }
  ]
}