{
  "hash": "0x8796e75f630391e976871ffce653fcca5633395daebeb3f290ec016707a4948e",
  "parentHash": "0x3bc2a850d2919e59d17a09fe1c67cd65ed5a2c0efbecd7284b52927a744d025e",
  "number": 99753,
  "timestamp": 1439795066,
  "nonce": "0xe6124a662c78e717",
  "difficulty": 3821319628847,
  "gasLimit": {
    "_hex": "0x2fefd5"
  },
  "gasUsed": {
    "_hex": "0x5208"
  },
  "miner": "0xf01CD4c66F3633880Cbd076A2105f9c1400dD7c7",
  "extraData": "0x",
  "transactions": [
    {
      "hash": "0x18c17c0b8bf8f452d021b79a7834b63c1858c65fefc88973494416274ba41d13",
      "blockHash": "0x8796e75f630391e976871ffce653fcca5633395daebeb3f290ec016707a4948e",
      "blockNumber": 99753,
      "transactionIndex": 0,
      "confirmations": null,
      "from": "0xb1abce2918E21ddb93AA452731a12672A3d9F75a",
      "gasPrice": {
        "_hex": "0xe0329eaf0"
      },
      "gasLimit": {
        "_hex": "0x5208"
      },
      "to": "0x32Be343B94f860124dC4fEe278FDCBD38C102D88",
      "value": {
        "_hex": "0x455f140d96b34000"
      },
      "nonce": 72,
      "data": "0x",
      "r": "0x990b16ab92a39af101bb75c34f6fd11b1b6a77d4491d6b610426e3267613a143",
      "s": "0x023606e5c86941c419d24f533aae1e45680a042a7fd068dbc82d65de73a9515f",
      "v": 27,
      "creates": null,
      "raw": "0xf86c48850e0329eaf08252089432be343b94f860124dc4fee278fdcbd38c102d8888455f140d96b34000801ba0990b16ab92a39af101bb75c34f6fd11b1b6a77d4491d6b610426e3267613a143a0023606e5c86941c419d24f533aae1e45680a042a7fd068dbc82d65de73a9515f",
      "networkId": 0,
      "chainId": 0
    }
  ]
}