{
  "hash": "0x04043c6dabbf1342bedd9c093e4a00d6bf453ad82dbb0d7a4fbb4f78ba850526",
  "parentHash": "0xbcd8d451b8f3a6dacbb25e2975028c5e7af57d1d3c97870fd825f8527c91184b",
  "number": 65509,
  "timestamp": 1439238212,
  "nonce": "0x2933467d7af118ff",
  "difficulty": 1953989691605,
  "gasLimit": {
    "_hex": "0x2fefd8"
  },
  "gasUsed": {
    "_hex": "0x5208"
  },
  "miner": "0x39A1BB80a741bF5EC39FB9BE59408Fa0F418fFBf",
  "extraData": "0x476574682f76312e302e312f77696e646f77732f676f312e342e32",
  "transactions": [
    {
      "hash": "0xc1349e192a7b875f75e9518a0f83cf887a3ce4473ab73454231f4872db89395b",
      "blockHash": "0x04043c6dabbf1342bedd9c093e4a00d6bf453ad82dbb0d7a4fbb4f78ba850526",
      "blockNumber": 65509,
      "transactionIndex": 0,
      "confirmations": null,
      "from": "0x2910543Af39abA0Cd09dBb2D50200b3E800A63D2",
      "gasPrice": {
        "_hex": "0xcbd2436fd"
      },
      "gasLimit": {
        "_hex": "0x5208"
      },
      "to": "0x3B4AF94C39e87281410A3B5Cf880b4a647459363",
      "value": {
        "_hex": "0x3635b7ea4ca6bf8000"
      },
      "nonce": 180,
      "data": "0x",
      "r": "0x01f0738ee3a681c5841fa712a3098b4ea0df7a2177ca93023bb58bf9048eb013",
      "s": "0x690a58a0ace3fbe14f1c3e0d5d260f53c2435ac2d7561a0aa91fadc8e75d8dd3",
      "v": 28,
      "creates": null,
      "raw": "0xf86e81b4850cbd2436fd825208943b4af94c39e87281410a3b5cf880b4a647459363893635b7ea4ca6bf8000801ca001f0738ee3a681c5841fa712a3098b4ea0df7a2177ca93023bb58bf9048eb013a0690a58a0ace3fbe14f1c3e0d5d260f53c2435ac2d7561a0aa91fadc8e75d8dd3",
      "networkId": 0,
      "chainId": 0
    }
  ]
}