{
  "hash": "0x2c33141ac947cdf9bc8e85881481de64ee6a1ea8015fdb15ad5f1c6d5160f560",
  "parentHash": "0x200fb5588732a8d9d6358b63eb37094176b13a78238f34b50cf8a7d753f69ec5",
  "number": 105127,
  "timestamp": 1439882259,
  "nonce": "0x784c25e7203acdd1",
  "difficulty": 4306271212523,
  "gasLimit": {
    "_hex": "0x2fefd8"
  },
  "gasUsed": {
    "_hex": "0x5208"
  },
  "miner": "0xe6A7a1d47ff21B6321162AEA7C6CB457D5476Bca",
  "extraData": "0x476574682f76312e302e312d38326566323666362f6c696e75782f676f312e34",
  "transactions": [
    {
      "hash": "0xfe5062a5e4739444bb582e6927d64a3a0e15e3f16f32df07a946d73857da2174",
      "blockHash": "0x2c33141ac947cdf9bc8e85881481de64ee6a1ea8015fdb15ad5f1c6d5160f560",
      "blockNumber": 105127,
      "transactionIndex": 0,
      "confirmations": null,
      "from": "0x4D67f4F0Db45b3B5a3424B39ed8d972F710381D5",
      "gasPrice": {
        "_hex": "0xd090481ae"
      },
      "gasLimit": {
        "_hex": "0x5208"
      },
      "to": "0x32Be343B94f860124dC4fEe278FDCBD38C102D88",
      "value": {
        "_hex": "0x269794c768c2ae0000"
      },
      "nonce": 23,
      "data": "0x",
      "r": "0xe2b94d582e08a70cdeda8f1df527d4b1a50fb5d35156787feef9073a5ab9efef",
      "s": "0x33c7abf9b8147a42d90e47d7154585f130049afbc3b1a24b13596f4e9756a4d9",
      "v": 28,
      "creates": null,
      "raw": "0xf86d17850d090481ae8252089432be343b94f860124dc4fee278fdcbd38c102d8889269794c768c2ae0000801ca0e2b94d582e08a70cdeda8f1df527d4b1a50fb5d35156787feef9073a5ab9efefa033c7abf9b8147a42d90e47d7154585f130049afbc3b1a24b13596f4e9756a4d9",
      "networkId": 0,
      "chainId": 0
    }
  ]
}