{
  "hash": "0xaf8f9faf98e84fe3e73b36a79a6898eef5133afefdd948d4712e869bc0b3641c",
  "parentHash": "0xde233591e832c7f9b6a909618d4d41783c8be257933cfcab0a560e402ed6d33a",
  "number": 97266,
  "timestamp": 1439753441,
  "nonce": "0x4497ee1882500d1b",
  "difficulty": 3779764928368,
  "gasLimit": {
    "_hex": "0x2fefd8"
  },
  "gasUsed": {
    "_hex": "0x7c28"
  },
  "miner": "0xe6A7a1d47ff21B6321162AEA7C6CB457D5476Bca",
  "extraData": "0x476574682f76312e302e312d38326566323666362f6c696e75782f676f312e34",
  "transactions": [
    {
      "hash": "0xd5969849e14eef89bbc6cba31da428748366152374b5ba40dc44254f65e4a0b4",
      "blockHash": "0xaf8f9faf98e84fe3e73b36a79a6898eef5133afefdd948d4712e869bc0b3641c",
      "blockNumber": 97266,
      "transactionIndex": 0,
      "confirmations": null,
      "from": "0x4BBc2EF7E5482B88E8c9C4bc05c5A3d3FF2B03c7",
      "gasPrice": {
        "_hex": "0xd5dde7a92"
      },
      "gasLimit": {
        "_hex": "0x15f90"
      },
      "to": "0x80cA78e0Dc617C07Ab1c3384d96cd1eA8D6cfA45",
      "value": {
        "_hex": "0x0"
      },
      "nonce": 7,
      "data": "0x41c0e1b5",
      "r": "0xaa7b0a18f840eda84c50d45a6d6228daec126ee5238c2e6d183dace8546bbc7f",
      "s": "0x38508e71e013ec365010937d18d9deec4a9db2f2fe13580dedc2816d1e451719",
      "v": 27,
      "creates": null,
      "raw": "0xf86907850d5dde7a9283015f909480ca78e0dc617c07ab1c3384d96cd1ea8d6cfa45808441c0e1b51ba0aa7b0a18f840eda84c50d45a6d6228daec126ee5238c2e6d183dace8546bbc7fa038508e71e013ec365010937d18d9deec4a9db2f2fe13580dedc2816d1e451719",
      "networkId": 0,
      "chainId": 0
    },
    {
      "hash": "0xb8f5f55d0779095894220d5a429bc311775ed988504b1b4e873597718b409b79",
      "blockHash": "0xaf8f9faf98e84fe3e73b36a79a6898eef5133afefdd948d4712e869bc0b3641c",
      "blockNumber": 97266,
      "transactionIndex": 1,
      "confirmations": null,
      "from": "0xcf00A85f3826941e7A25BFcF9Aac575d40410852",
      "gasPrice": {
        "_hex": "0xcb5bea614"
      },
      "gasLimit": {
        "_hex": "0x15f90"
      },
      "to": "0xD9666150A9dA92d9108198a4072970805a8B3428",
      "value": {
        "_hex": "0x4563918244f40000"
      },
      "nonce": 8,
      "data": "0x",
      "r": "0x4b56d65a25a44ddc44546bbf50f0ffd0a2838051c4386273404c7e3230b2ab14",
      "s": "0x6a1a0dd84ceb049a2d14ec65c649885ee48ac795cd1280aa76cde86eb2c2f28d",
      "v": 27,
      "creates": null,
      "raw": "0xf86d08850cb5bea61483015f9094d9666150a9da92d9108198a4072970805a8b3428884563918244f40000801ba04b56d65a25a44ddc44546bbf50f0ffd0a2838051c4386273404c7e3230b2ab14a06a1a0dd84ceb049a2d14ec65c649885ee48ac795cd1280aa76cde86eb2c2f28d",
      "networkId": 0,
      "chainId": 0
    }
  ]
}