{
  "hash": "0xfd52d67570a370a6ac0e575830a7b570c485d8f52d8e935c3b4ea6513ccff553",
  "parentHash": "0x708b8fc02cddb88ad2ab2942eb7be1123d1205ee5951b65b36ef37906a49da12",
  "number": 76550,
  "timestamp": 1439422415,
  "nonce": "0xfa4d7d5ed3ddb054",
  "difficulty": 2231858044838,
  "gasLimit": {
    "_hex": "0x2fefd8"
  },
  "gasUsed": {
    "_hex": "0x5208"
  },
  "miner": "0xe6A7a1d47ff21B6321162AEA7C6CB457D5476Bca",
  "extraData": "0x476574682f76312e302e312d38326566323666362f6c696e75782f676f312e34",
  "transactions": [
    {
      "hash": "0xb83c86676891fb406333250a96a4a122ea48be39c4bf10c142fdb408a87e25af",
      "blockHash": "0xfd52d67570a370a6ac0e575830a7b570c485d8f52d8e935c3b4ea6513ccff553",
      "blockNumber": 76550,
      "transactionIndex": 0,
      "confirmations": null,
      "from": "0xcf684DFB8304729355B58315E8019B1aa2AD1Bac",
      "gasPrice": {
        "_hex": "0xd7d40ace3"
      },
      "gasLimit": {
        "_hex": "0x15f90"
      },
      "to": "0xA938b9DCabbB3eA3cC14eE810138c803edee9222",
      "value": {
        "_hex": "0xb1a2bc2ec50000"
      },
      "nonce": 0,
      "data": "0x",
      "r": "0xc4e8f68c0ec993443f93552e043fd7e9caebc457c432198259f7517feaebd28c",
      "s": "0x2bf660d8146dfc45e92b90866b743b9d8f98e784d11b0aecd947fdd2d37c16fb",
      "v": 28,
      "creates": null,
      "raw": "0xf86c80850d7d40ace383015f9094a938b9dcabbb3ea3cc14ee810138c803edee922287b1a2bc2ec50000801ca0c4e8f68c0ec993443f93552e043fd7e9caebc457c432198259f7517feaebd28ca02bf660d8146dfc45e92b90866b743b9d8f98e784d11b0aecd947fdd2d37c16fb",
      "networkId": 0,
      "chainId": 0
    }
  ]
}