{
  "hash": "0x0a5e6c4da3373cd8231368ef17193777fdb2255aa66598a713771b7f40bc44a4",
  "parentHash": "0x5d9dee1093d68349febb3ec9dfd9e658a86d812d44c6fcc6cae8f63720cc3fab",
  "number": 68521,
  "timestamp": 1439289429,
  "nonce": "0xc19b988189889e61",
  "difficulty": 2001562817346,
  "gasLimit": {
    "_hex": "0x2fefd8"
  },
  "gasUsed": {
    "_hex": "0x5208"
  },
  "miner": "0xbb7B8287f3F0a933474a79eAe42CBCa977791171",
  "extraData": "0x476574682f4c5649562f76312e302e312f6c696e75782f676f312e342e32",
  "transactions": [
    {
      "hash": "0x40e722b6606250f25a8fc0c6e8b6bfc59032bde3b9b54fc9c55eaea8ffb5f88f",
      "blockHash": "0x0a5e6c4da3373cd8231368ef17193777fdb2255aa66598a713771b7f40bc44a4",
      "blockNumber": 68521,
      "transactionIndex": 0,
      "confirmations": null,
      "from": "0x6747f922385c9a6F9cfDf095F34345257DD597bE",
      "gasPrice": {
        "_hex": "0xba43b7400"
      },
      "gasLimit": {
        "_hex": "0x5208"
      },
      "to": "0x64d3b2c979F9B73Ff57B67B21de07970b644Eb0c",
      "value": {
        "_hex": "0x1fcbfa42bd6000"
      },
      "nonce": 123,
      "data": "0x",
      "r": "0x17a89ce46fc328e906fb14e2a27ac19e1d63724a88b6d57764c930fd4f2b98ef",
      "s": "0x70186285b1a878e68d3062c250891e66cca95951aa357f00bb23aa2faefb4cc8",
      "v": 28,
      "creates": null,
      "raw": "0xf86b7b850ba43b74008252089464d3b2c979f9b73ff57b67b21de07970b644eb0c871fcbfa42bd6000801ca017a89ce46fc328e906fb14e2a27ac19e1d63724a88b6d57764c930fd4f2b98efa070186285b1a878e68d3062c250891e66cca95951aa357f00bb23aa2faefb4cc8",
      "networkId": 0,
      "chainId": 0
    }
  ]
}