{
  "hash": "0x7319ca13c59b7aa006bdfdfea7dba7ab60df1cf9b718b4eab4c091f3705b8f67",
  "parentHash": "0x69af7fba3b502ec4a1dd41074e70a1f1a047d5602f993cd4243eb2ce8da078d3",
  "number": 100976,
  "timestamp": 1439815461,
  "nonce": "0xc2c92902f029958d",
  "difficulty": 3863913354063,
  "gasLimit": {
    "_hex": "0x2fefd8"
  },
  "gasUsed": {
    "_hex": "0x5208"
  },
  "miner": "0x9D49F602b0fdb924Bd63DDE2Bd0907E4A07c63a7",
  "extraData": "0x476574682f76312e302e312f6c696e75782f676f312e342e32",
  "transactions": [
    {
      "hash": "0xa5db77d884d1fa607e32bd422fab5f3eb4cf3909f247d9e78de0c3fa73bbd362",
      "blockHash": "0x7319ca13c59b7aa006bdfdfea7dba7ab60df1cf9b718b4eab4c091f3705b8f67",
      "blockNumber": 100976,
      "transactionIndex": 0,
      "confirmations": null,
      "from": "0x72bb27Cb99f3E2C2CF90A98F707d30E4A201A071",
      "gasPrice": {
        "_hex": "0xd1f217cbf"
      },
      "gasLimit": {
        "_hex": "0x15f90"
      },
      "to": "0x6896e22C387dc77Eef9566aaecbf584a65130067",
      "value": {
        "_hex": "0x2b5e3af16b1880000"
      },
      "nonce": 2,
      "data": "0x",
      "r": "0x88bdeed34806c0e338bcd7ed1113aaa18baa94cda4c2adf2775d416e4cd1c0fb",
      "s": "0x203d127d8967b3c53b27a3bf2371123226646cc299e8d3969a0c03288658cb41",
      "v": 28,
      "creates": null,
      "raw": "0xf86e02850d1f217cbf83015f90946896e22c387dc77eef9566aaecbf584a651300678902b5e3af16b1880000801ca088bdeed34806c0e338bcd7ed1113aaa18baa94cda4c2adf2775d416e4cd1c0fba0203d127d8967b3c53b27a3bf2371123226646cc299e8d3969a0c03288658cb41",
      "networkId": 0,
      "chainId": 0
    }
  ]
}