{
  "hash": "0x3080881d2f6a7390cc3d4a559131811bba85af0a18a6f2b80c24cc8e0d02e343",
  "parentHash": "0xfc52a3b9e5f4aef9cafb6b7410b7214ba8a645f5a2853a52fb07d99823a0734b",
  "number": 79310,
  "timestamp": 1439467488,
  "nonce": "0xaee86b9f91980657",
  "difficulty": 2340482234144,
  "gasLimit": {
    "_hex": "0x2fefd8"
  },
  "gasUsed": {
    "_hex": "0xa410"
  },
  "miner": "0x46b92ea5c3E696bf123354DfCc564cbac1C90671",
  "extraData": "0x",
  "transactions": [
    {
      "hash": "0x7fa8bbef4bb0288fb2f5a9d720c4c5cf58548edfdfc53dc16563f191a880fcde",
      "blockHash": "0x3080881d2f6a7390cc3d4a559131811bba85af0a18a6f2b80c24cc8e0d02e343",
      "blockNumber": 79310,
      "transactionIndex": 0,
      "confirmations": null,
      "from": "0x32Be343B94f860124dC4fEe278FDCBD38C102D88",
      "gasPrice": {
        "_hex": "0xda8f72b81"
      },
      "gasLimit": {
        "_hex": "0x5208"
      },
      "to": "0xA064b7429621856eAF04FEAd77d2ADc6b63F1189",
      "value": {
        "_hex": "0x14af240607ab6400"
      },
      "nonce": 415,
      "data": "0x",
      "r": "0xc7f8f088ad7712c2e363fcc24a5d7369673089a97a7192fd80ab210dcd54f377",
      "s": "0x163de81490e3d4d4acc7d60b1c03e7a3a8c78df27232aba91a4a13c5fdbabb93",
      "v": 28,
      "creates": null,
      "raw": "0xf86e82019f850da8f72b8182520894a064b7429621856eaf04fead77d2adc6b63f11898814af240607ab6400801ca0c7f8f088ad7712c2e363fcc24a5d7369673089a97a7192fd80ab210dcd54f377a0163de81490e3d4d4acc7d60b1c03e7a3a8c78df27232aba91a4a13c5fdbabb93",
      "networkId": 0,
      "chainId": 0
    },
    {
      "hash": "0x19e80fda938826fd932be1035895a32b7105de72fcf7dd3c8accd52e5fa526ec",
      "blockHash": "0x3080881d2f6a7390cc3d4a559131811bba85af0a18a6f2b80c24cc8e0d02e343",
      "blockNumber": 79310,
      "transactionIndex": 1,
      "confirmations": null,
      "from": "0xF2d2AfF1320476cb8C6b607199D23175cc595693",
      "gasPrice": {
        "_hex": "0xcea0f9954"
      },
      "gasLimit": {
        "_hex": "0x15f90"
      },
      "to": "0xF5EeDc192aB70b08D8354384aD94efD095849E00",
      "value": {
        "_hex": "0x56bc75e2d63100000"
      },
      "nonce": 31,
      "data": "0x",
      "r": "0x80b3ffe6bdf75efcc58b652b815f6e8adcfd0977da8f63eb45bae312e64b2c74",
      "s": "0x682a95bcda14d33ea70f6147f4c50f2e69f87bedebe8cb1dfd57e4d8fae38748",
      "v": 27,
      "creates": null,
      "raw": "0xf86e1f850cea0f995483015f9094f5eedc192ab70b08d8354384ad94efd095849e0089056bc75e2d63100000801ba080b3ffe6bdf75efcc58b652b815f6e8adcfd0977da8f63eb45bae312e64b2c74a0682a95bcda14d33ea70f6147f4c50f2e69f87bedebe8cb1dfd57e4d8fae38748",
      "networkId": 0,
      "chainId": 0
    }
  ]
}