{
  "hash": "0x4a54ae0ff5a598747ac287ba38df6898605bcf1baad19173aa2098d78bbf85d9",
  "parentHash": "0xffd2e1c1d105731cb9af69456dd40447460a0a8da107c3ff7152bd091f97797f",
  "number": 51572,
  "timestamp": 1439007228,
  "nonce": "0x4c1102391a44c961",
  "difficulty": 1559685033008,
  "gasLimit": {
    "_hex": "0xc0d26"
  },
  "gasUsed": {
    "_hex": "0x5208"
  },
  "miner": "0xBb12b5a9B85D4AB8CDE6056E9c1b2a4a337D2261",
  "extraData": "0x476574682f76312e302e312d36393865393864392f6c696e75782f676f312e34",
  "transactions": [
    {
      "hash": "0xc60348a671630758bc290e11ae055416659ccc3a21241830f864bbced86fb404",
      "blockHash": "0x4a54ae0ff5a598747ac287ba38df6898605bcf1baad19173aa2098d78bbf85d9",
      "blockNumber": 51572,
      "transactionIndex": 0,
      "confirmations": null,
      "from": "0xE5F9b98aFCd58f9a652BAd30417958Bc9dD7bFba",
      "gasPrice": {
        "_hex": "0xd41aca624"
      },
      "gasLimit": {
        "_hex": "0x5208"
      },
      "to": "0x32Be343B94f860124dC4fEe278FDCBD38C102D88",
      "value": {
        "_hex": "0x1bbd2242d17a3000"
      },
      "nonce": 0,
      "data": "0x",
      "r": "0xaaff5e548c1a959aa2b344bb9c5f3551865eec0753c3a98108aee82e4a6d46fe",
      "s": "0x7b93cb3cf9ef444416730e4465542d112fc397a02c043324a789c994550bbb95",
      "v": 28,
      "creates": null,
      "raw": "0xf86c80850d41aca6248252089432be343b94f860124dc4fee278fdcbd38c102d88881bbd2242d17a3000801ca0aaff5e548c1a959aa2b344bb9c5f3551865eec0753c3a98108aee82e4a6d46fea07b93cb3cf9ef444416730e4465542d112fc397a02c043324a789c994550bbb95",
      "networkId": 0,
      "chainId": 0
    }
  ]
}