{
  "hash": "0xcc4d444ec5306d4eca71c2bb2d09c8f56e81634e356cc33c3d3a9e4af30f963d",
  "parentHash": "0x285f5dbd22074cec17dc04020ab514dcd715e22ce3933859555e1b5af5f90741",
  "number": 99391,
  "timestamp": 1439789241,
  "nonce": "0xb09de9de8863e6f3",
  "difficulty": 3795450191190,
  "gasLimit": {
    "_hex": "0x2fefd8"
  },
  "gasUsed": {
    "_hex": "0x5208"
  },
  "miner": "0xbb7B8287f3F0a933474a79eAe42CBCa977791171",
  "extraData": "0x476574682f4c5649562f76312e302e312f6c696e75782f676f312e342e32",
  "transactions": [
    {
      "hash": "0x7d17194408ee7b4771362d7e0deb5d3a1c340b6be7cea6fadb54c746573d4e9d",
      "blockHash": "0xcc4d444ec5306d4eca71c2bb2d09c8f56e81634e356cc33c3d3a9e4af30f963d",
      "blockNumber": 99391,
      "transactionIndex": 0,
      "confirmations": null,
      "from": "0x259ce58778abd156fC9084AB53322FEA6EeC550E",
      "gasPrice": {
        "_hex": "0xd5f0c0bf5"
      },
      "gasLimit": {
        "_hex": "0x15f90"
      },
      "to": "0xD3A57C79fde37eD4Ed9991638f3C0a59413a3C0F",
      "value": {
        "_hex": "0x3782dace9d900000"
      },
      "nonce": 0,
      "data": "0x",
      "r": "0x818be119a044924a976b64dbe1f11f8dec6dc79951c3c2011501b11633980c2a",
      "s": "0x5eaea0c581e56097e9f501d1b01db99d8272bace6274535531bc23e367d4bde8",
      "v": 28,
      "creates": null,
      "raw": "0xf86d80850d5f0c0bf583015f9094d3a57c79fde37ed4ed9991638f3c0a59413a3c0f883782dace9d900000801ca0818be119a044924a976b64dbe1f11f8dec6dc79951c3c2011501b11633980c2aa05eaea0c581e56097e9f501d1b01db99d8272bace6274535531bc23e367d4bde8",
      "networkId": 0,
      "chainId": 0
    }
  ]
}