{
  "hash": "0x8ab8602da891765602e306468b7079d6c4f7d497a809015045a16eaf5d4bfd14",
  "parentHash": "0x4428ff653508ac7330b8e4c0678b6ec7a034e182f60492e52ef06b55e3daf695",
  "number": 115280,
  "timestamp": 1440054423,
  "nonce": "0xb01e9e7a0c1089b6",
  "difficulty": 4558381029327,
  "gasLimit": {
    "_hex": "0x2fefd8"
  },
  "gasUsed": {
    "_hex": "0xa410"
  },
  "miner": "0x52bc44d5378309EE2abF1539BF71dE1b7d7bE3b5",
  "extraData": "0x476574682f76312e302e312d39353236303766382f6c696e75782f676f312e34",
  "transactions": [
    {
      "hash": "0x72e681acc3f05cfdd104f0b3bb44309b85a8a75f326f0642072352846a3e4f3c",
      "blockHash": "0x8ab8602da891765602e306468b7079d6c4f7d497a809015045a16eaf5d4bfd14",
      "blockNumber": 115280,
      "transactionIndex": 0,
      "confirmations": null,
      "from": "0xe6A7a1d47ff21B6321162AEA7C6CB457D5476Bca",
      "gasPrice": {
        "_hex": "0xe18288c23"
      },
      "gasLimit": {
        "_hex": "0x55f0"
      },
      "to": "0xCC0c34544f4644d80d7FCD82E0b56e9d5C7AF43c",
      "value": {
        "_hex": "0xe4f39c0ed7d6474"
      },
      "nonce": 5052,
      "data": "0x",
      "r": "0xc05ffc7c93330226eb593aa0b2f8a0f1f8873e3129a9779aba12b97a35fb2f78",
      "s": "0x201df8bbdbae72341e19b12c89ee4e88850390778bffbc85343463c82ec5bd38",
      "v": 27,
      "creates": null,
      "raw": "0xf86e8213bc850e18288c238255f094cc0c34544f4644d80d7fcd82e0b56e9d5c7af43c880e4f39c0ed7d6474801ba0c05ffc7c93330226eb593aa0b2f8a0f1f8873e3129a9779aba12b97a35fb2f78a0201df8bbdbae72341e19b12c89ee4e88850390778bffbc85343463c82ec5bd38",
      "networkId": 0,
      "chainId": 0
    },
    {
      "hash": "0x1e338db716c1aec90f71d04d12a34416ec7be2fffc7c567fab97c557097a15d1",
      "blockHash": "0x8ab8602da891765602e306468b7079d6c4f7d497a809015045a16eaf5d4bfd14",
      "blockNumber": 115280,
      "transactionIndex": 1,
      "confirmations": null,
      "from": "0xe6A7a1d47ff21B6321162AEA7C6CB457D5476Bca",
      "gasPrice": {
        "_hex": "0xe18288c23"
      },
      "gasLimit": {
        "_hex": "0x55f0"
      },
      "to": "0xDd087A46e53FdDCe3d8FF96970235ae746b77D5c",
      "value": {
        "_hex": "0xe504c7686291704"
      },
      "nonce": 5053,
      "data": "0x",
      "r": "0x7f0cadbe85057372d72240e62fcc24faf25d8e784fe6d6dc4e159920466529e2",
      "s": "0x1e77ad1605c3a060aeec3999a7c3914aecf320f665e22f903e4872cb7ae8caff",
      "v": 28,
      "creates": null,
      "raw": "0xf86e8213bd850e18288c238255f094dd087a46e53fddce3d8ff96970235ae746b77d5c880e504c7686291704801ca07f0cadbe85057372d72240e62fcc24faf25d8e784fe6d6dc4e159920466529e2a01e77ad1605c3a060aeec3999a7c3914aecf320f665e22f903e4872cb7ae8caff",
      "networkId": 0,
      "chainId": 0
    }
  ]
}