{
  "hash": "0xe92afa5a553fd0898e8e1577685374c4534a43ff64314a9870b9d9b8d4840568",
  "parentHash": "0xd98f92fc2f986a083bd3963a6a57aee019e50cb8197a5252564760f332d55af7",
  "number": 71358,
  "timestamp": 1439334647,
  "nonce": "0x4565d86c830e5d0f",
  "difficulty": 2177250299661,
  "gasLimit": {
    "_hex": "0x2fefd8"
  },
  "gasUsed": {
    "_hex": "0x100c9"
  },
  "miner": "0x0E39EAFAe2211E0f2c3f9C411D584dEE0679e0EA",
  "extraData": "0xda8098302e392e34302b2b302d524c696e75782f672b2b2f696e74",
  "transactions": [
    {
      "hash": "0xfaa36bd3a063eb299801014780a483b927a6d3f4f603a077dfb5971747d0e32f",
      "blockHash": "0xe92afa5a553fd0898e8e1577685374c4534a43ff64314a9870b9d9b8d4840568",
      "blockNumber": 71358,
      "transactionIndex": 0,
      "confirmations": null,
      "from": "0x120A270bbC009644e35F0bB6ab13f95b8199c4ad",
      "gasPrice": {
        "_hex": "0xd4aed40e5"
      },
      "gasLimit": {
        "_hex": "0x15f90"
      },
      "to": "0x59B0919d408f6c5c498E72e52f5e06B37f82f8de",
      "value": {
        "_hex": "0x4e1003b28d9280000"
      },
      "nonce": 228,
      "data": "0x",
      "r": "0x79a6bbf532389551b503beade77fe619fe6349e515799d73ebb84c47f5c8af0e",
      "s": "0x0487a12334984f3fa13e59fbc590688bb2424e927f3630c61730b9c6dfbe8943",
      "v": 28,
      "creates": null,
      "raw": "0xf86f81e4850d4aed40e583015f909459b0919d408f6c5c498e72e52f5e06b37f82f8de8904e1003b28d9280000801ca079a6bbf532389551b503beade77fe619fe6349e515799d73ebb84c47f5c8af0ea00487a12334984f3fa13e59fbc590688bb2424e927f3630c61730b9c6dfbe8943",
      "networkId": 0,
      "chainId": 0
    },
    {
      "hash": "0x32285f2e42ed276044af4e9e444bbfcdc7e22ee37f34b3083a81a2fa95c9fea6",
      "blockHash": "0xe92afa5a553fd0898e8e1577685374c4534a43ff64314a9870b9d9b8d4840568",
      "blockNumber": 71358,
      "transactionIndex": 1,
      "confirmations": null,
      "from": "0x17580B766f7453525ca4C6A88b01b50570EA088C",
      "gasPrice": {
        "_hex": "0xd7b7f4e7e"
      },
      "gasLimit": {
        "_hex": "0x61a80"
      },
      "to": "0x5Fe5B7546D1628f7348B023A0393de1FC825A4fD",
      "value": {
        "_hex": "0x53444835ec580000"
      },
      "nonce": 161,
      "data": "0xb595b8b50000000000000000000000000000000000000000000000000000000000000001",
      "r": "0x886e8dc79eb3e566e803fdc2699731e0d2a68539353a3a85e61ebd325958701b",
      "s": "0x46a18359ea52da673897d48d57bd998118997850ee04bd90ba5fdb511e25b75c",
      "v": 28,
      "creates": null,
      "raw": "0xf89281a1850d7b7f4e7e83061a80945fe5b7546d1628f7348b023a0393de1fc825a4fd8853444835ec580000a4b595b8b500000000000000000000000000000000000000000000000000000000000000011ca0886e8dc79eb3e566e803fdc2699731e0d2a68539353a3a85e61ebd325958701ba046a18359ea52da673897d48d57bd998118997850ee04bd90ba5fdb511e25b75c",
      "networkId": 0,
      "chainId": 0
    }
  ]
}