{
  "hash": "0x587732f9fb4564148e373a820776602f9de0bcef9a438835d6a53172559572f5",
  "parentHash": "0x71e1bb14429b2dba096d25725721bf55b547ffb8c29cb2e46af6f9bdfe9b22ab",
  "number": 85068,
  "timestamp": 1439558121,
  "nonce": "0x78af048c325a6544",
  "difficulty": 2715794810008,
  "gasLimit": {
    "_hex": "0x2fefd8"
  },
  "gasUsed": {
    "_hex": "0x19a28"
  },
  "miner": "0xC603Ab5ef41fC61AA8b76bEddb09e3Cfcbb174BD",
  "extraData": "0x476574682f76312e302e312f77696e646f77732f676f312e342e32",
  "transactions": [
    {
      "hash": "0x29229756a549ec5fcb73ba0d9ed37f0a049c5743cc494d10646f884c10999b52",
      "blockHash": "0x587732f9fb4564148e373a820776602f9de0bcef9a438835d6a53172559572f5",
      "blockNumber": 85068,
      "transactionIndex": 0,
      "confirmations": null,
      "from": "0x98E6F547db88e75f1f9c8Ac2C5CF1627bA580b3E",
      "gasPrice": {
        "_hex": "0xd99e2cfed"
      },
      "gasLimit": {
        "_hex": "0x15f90"
      },
      "to": "0xbd043dA9385242d0b11C5648A0e8d8B7fdbEFCFA",
      "value": {
        "_hex": "0xb1a2bc2ec50000"
      },
      "nonce": 0,
      "data": "0x",
      "r": "0xdca4dc788f8633e8f58643482173be700c3b3c03ba534b691611a17a456a07c0",
      "s": "0x030b028bdcd76cb73e5972192ea37f3d82186b56d4a582903dcb884184c6a944",
      "v": 28,
      "creates": null,
      "raw": "0xf86c80850d99e2cfed83015f9094bd043da9385242d0b11c5648a0e8d8b7fdbefcfa87b1a2bc2ec50000801ca0dca4dc788f8633e8f58643482173be700c3b3c03ba534b691611a17a456a07c0a0030b028bdcd76cb73e5972192ea37f3d82186b56d4a582903dcb884184c6a944",
      "networkId": 0,
      "chainId": 0
    },
    {
      "hash": "0x138a45ff250bcf511e9dcce8fecc3413a90bc4b3bd47fcbf26748f4364e7fe90",
      "blockHash": "0x587732f9fb4564148e373a820776602f9de0bcef9a438835d6a53172559572f5",
      "blockNumber": 85068,
      "transactionIndex": 1,
      "confirmations": null,
      "from": "0x6C822029218Ac8E98a260C1E064029348839875B",
      "gasPrice": {
        "_hex": "0xd3d37f23a"
      },
      "gasLimit": {
        "_hex": "0x61a8"
      },
      "to": "0xCA611F7B0cc18457C6bC5D0B198ECFA868E0fA31",
      "value": {
        "_hex": "0x36a4cf636319c00000"
      },
      "nonce": 1,
      "data": "0x",
      "r": "0x653d91a9a02797a468a5b7b6bdeee2d516aa6b938a6543c7e8d0656220b2121c",
      "s": "0x12f13f0ec53734c31933e11034e2bf554f1761c4a4ffffd142441a39b99e8669",
      "v": 28,
      "creates": null,
      "raw": "0xf86d01850d3d37f23a8261a894ca611f7b0cc18457c6bc5d0b198ecfa868e0fa318936a4cf636319c00000801ca0653d91a9a02797a468a5b7b6bdeee2d516aa6b938a6543c7e8d0656220b2121ca012f13f0ec53734c31933e11034e2bf554f1761c4a4ffffd142441a39b99e8669",
      "networkId": 0,
      "chainId": 0
    },
    {
      "hash": "0xa6a9ba41cc2061cefdcde27d2cbe422548c725cece0ce8a4985ee634ebc7636e",
      "blockHash": "0x587732f9fb4564148e373a820776602f9de0bcef9a438835d6a53172559572f5",
      "blockNumber": 85068,
      "transactionIndex": 2,
      "confirmations": null,
      "from": "0xcF9DD62019778E76a6B393f0ac4590f03A7429F7",
      "gasPrice": {
        "_hex": "0xba43b7400"
      },
      "gasLimit": {
        "_hex": "0x5208"
      },
      "to": "0xC47Aaa860008be6f65B58c6C6E02a84e666EfE31",
      "value": {
        "_hex": "0x87eb0ffd48af0e10"
      },
      "nonce": 1,
      "data": "0x",
      "r": "0xaa4e5e353b7445360a9aa21219a19411ec0fb8e977dab770584e869c3ef80109",
      "s": "0x6bb279e90e6d8eb0ab64105d028583a2f9447eb126399037e67151ba720c7329",
      "v": 27,
      "creates": null,
      "raw": "0xf86c01850ba43b740082520894c47aaa860008be6f65b58c6c6e02a84e666efe318887eb0ffd48af0e10801ba0aa4e5e353b7445360a9aa21219a19411ec0fb8e977dab770584e869c3ef80109a06bb279e90e6d8eb0ab64105d028583a2f9447eb126399037e67151ba720c7329",
      "networkId": 0,
      "chainId": 0
    },
    {
      "hash": "0xf144d6487dda670ef44759b36fc44ba0c262bcf5a7ac50b1b4a0b378dce2babc",
      "blockHash": "0x587732f9fb4564148e373a820776602f9de0bcef9a438835d6a53172559572f5",
      "blockNumber": 85068,
      "transactionIndex": 3,
      "confirmations": null,
      "from": "0x2C3d5c472E35947eb8Bf098e5207b0e1f3D1Ef91",
      "gasPrice": {
        "_hex": "0xba43b7400"
      },
      "gasLimit": {
        "_hex": "0x5208"
      },
      "to": "0xC47Aaa860008be6f65B58c6C6E02a84e666EfE31",
      "value": {
        "_hex": "0xa9454ea2512eb360"
      },
      "nonce": 2,
      "data": "0x",
      "r": "0x92079267e0757218f7b1994e5c7d20d70397e07644adcb25d155e81f0de15acf",
      "s": "0x07e1acbe246919ee9aae6a3542c64d83da391ef78f1bf1fe583afdaa8a51f203",
      "v": 27,
      "creates": null,
      "raw": "0xf86c02850ba43b740082520894c47aaa860008be6f65b58c6c6e02a84e666efe3188a9454ea2512eb360801ba092079267e0757218f7b1994e5c7d20d70397e07644adcb25d155e81f0de15acfa007e1acbe246919ee9aae6a3542c64d83da391ef78f1bf1fe583afdaa8a51f203",
      "networkId": 0,
      "chainId": 0
    },
    {
      "hash": "0xeb5a3c1c148c1ebec83334f6523feb6013878634ca6e617508cd195627088718",
      "blockHash": "0x587732f9fb4564148e373a820776602f9de0bcef9a438835d6a53172559572f5",
      "blockNumber": 85068,
      "transactionIndex": 4,
      "confirmations": null,
      "from": "0xD15B7A3ADE211fcCf62eb4d41557Bb7e62C7e3a0",
      "gasPrice": {
        "_hex": "0xba43b7400"
      },
      "gasLimit": {
        "_hex": "0x5208"
      },
      "to": "0xC47Aaa860008be6f65B58c6C6E02a84e666EfE31",
      "value": {
        "_hex": "0x81233075e14662d0"
      },
      "nonce": 0,
      "data": "0x",
      "r": "0x8eb44bdb38b9281de9473219b019eec35c8e6950ad3c90cb7394a914d88e93a6",
      "s": "0x1e8154d91d64d903c8b20e9e17462ed144b5a6fb91907bf266fbca67fdb669ff",
      "v": 28,
      "creates": null,
      "raw": "0xf86c80850ba43b740082520894c47aaa860008be6f65b58c6c6e02a84e666efe318881233075e14662d0801ca08eb44bdb38b9281de9473219b019eec35c8e6950ad3c90cb7394a914d88e93a6a01e8154d91d64d903c8b20e9e17462ed144b5a6fb91907bf266fbca67fdb669ff",
      "networkId": 0,
      "chainId": 0
    }
  ]
}