{
  "hash": "0x6fb3db148205bfe9728eb70c67744369cd9df39f3f9bd9bc73377598de7f715d",
  "parentHash": "0x6e96949739a698a4435e23c92f667644e2d193baf642a5ec24d8388b0d4090a6",
  "number": 48829,
  "timestamp": 1438963627,
  "nonce": "0x0a6fe2d4b5fb4bf9",
  "difficulty": 1480773804776,
  "gasLimit": {
    "_hex": "0x1ee77"
  },
  "gasUsed": {
    "_hex": "0x546c"
  },
  "miner": "0x0A63E1A8C33e351679e3581AC84ce341C32f813a",
  "extraData": "0x476574682f76312e302e312d38326566323666362f6c696e75782f676f312e34",
  "transactions": [
    {
      "hash": "0x5640ea5d1cac7b1395428e81692b89ae2ee7c439d33eaffa560fe4c89050b387",
      "blockHash": "0x6fb3db148205bfe9728eb70c67744369cd9df39f3f9bd9bc73377598de7f715d",
      "blockNumber": 48829,
      "transactionIndex": 0,
      "confirmations": null,
      "from": "0xD38fa2C4Cc147AD06AD5A2F75579281F22A7Cc1F",
      "gasPrice": {
        "_hex": "0x110c8f7d8de"
      },
      "gasLimit": {
        "_hex": "0xc350"
      },
      "to": "0x2910543Af39abA0Cd09dBb2D50200b3E800A63D2",
      "value": {
        "_hex": "0x43ba8fa7070da980000"
      },
      "nonce": 0,
      "data": "0x454e52515641593338",
      "r": "0xb3585ea09fbe5fc260f0d268b8c3c06daea218f7facd70f8f32f717f25cb23c8",
      "s": "0x517bc704167a37e366e5d1dbdc7c1740ee506ac199584b3575bb2814a9464d20",
      "v": 28,
      "creates": null,
      "raw": "0xf87880860110c8f7d8de82c350942910543af39aba0cd09dbb2d50200b3e800a63d28a043ba8fa7070da98000089454e525156415933381ca0b3585ea09fbe5fc260f0d268b8c3c06daea218f7facd70f8f32f717f25cb23c8a0517bc704167a37e366e5d1dbdc7c1740ee506ac199584b3575bb2814a9464d20",
      "networkId": 0,
      "chainId": 0
    }
  ]
}