{
  "hash": "0x6b48b69bc5aea77f4f1b4bd3c6c7625db80d9b5965c0717c5d9dc008056b853f",
  "parentHash": "0x36c758f7d22dbf426cc155bd0465e6eb6b860a5b19d3f525c10d0ed813a91ff3",
  "number": 68556,
  "timestamp": 1439289965,
  "nonce": "0xe18640e2a69b3c5d",
  "difficulty": 2010369715796,
  "gasLimit": {
    "_hex": "0x2fefd8"
  },
  "gasUsed": {
    "_hex": "0x1ec30"
  },
  "miner": "0xf927a40C8B7F6E07c5af7FA2155B4864a4112B13",
  "extraData": "0x",
  "transactions": [
    {
      "hash": "0x6aaa5d07952208d77276bfb0232d75dd7b6ca388bdffcda9d41f0d58c280b605",
      "blockHash": "0x6b48b69bc5aea77f4f1b4bd3c6c7625db80d9b5965c0717c5d9dc008056b853f",
      "blockNumber": 68556,
      "transactionIndex": 0,
      "confirmations": null,
      "from": "0x2115144F44869D7EB9e4cf506056211D82aA9e48",
      "gasPrice": {
        "_hex": "0xba43b7400"
      },
      "gasLimit": {
        "_hex": "0x5208"
      },
      "to": "0x2595B7D0df4E9b7850a4b25fBB773A684eB28E14",
      "value": {
        "_hex": "0x7c58ada8ff2000"
      },
      "nonce": 1,
      "data": "0x",
      "r": "0x730beb920dc683f170a2da52f2e31f7895390049ad8eb6bf4945ff9a468f30c7",
      "s": "0x620be93de930e6955478b7c62cf23d1b36440b91974a320900cd514bf1c27130",
      "v": 27,
      "creates": null,
      "raw": "0xf86b01850ba43b7400825208942595b7d0df4e9b7850a4b25fbb773a684eb28e14877c58ada8ff2000801ba0730beb920dc683f170a2da52f2e31f7895390049ad8eb6bf4945ff9a468f30c7a0620be93de930e6955478b7c62cf23d1b36440b91974a320900cd514bf1c27130",
      "networkId": 0,
      "chainId": 0
    },
    {
      "hash": "0x4539f7b7964bf289716ab4e51d0ede85ebeff6a25d4bbb64bfc2e08fadd9950d",
      "blockHash": "0x6b48b69bc5aea77f4f1b4bd3c6c7625db80d9b5965c0717c5d9dc008056b853f",
      "blockNumber": 68556,
      "transactionIndex": 1,
      "confirmations": null,
      "from": "0xCab28A8b659cAC6F88515900353Ead062f6d1eE0",
      "gasPrice": {
        "_hex": "0xba43b7400"
      },
      "gasLimit": {
        "_hex": "0x5208"
      },
      "to": "0xAa51Ff0434F653bE1f667b4b21a83C42B19a5E23",
      "value": {
        "_hex": "0x7c58ada8ff2000"
      },
      "nonce": 1,
      "data": "0x",
      "r": "0x436f3d09e24413a0276a9d4e8310d879438922c651ecdc6beac86b75d0b5c82a",
      "s": "0x51f65fb2aa2b9d71325b1d9a8b24ba4c670b456cb17df89db7cd6077d619f9f9",
      "v": 27,
      "creates": null,
      "raw": "0xf86b01850ba43b740082520894aa51ff0434f653be1f667b4b21a83c42b19a5e23877c58ada8ff2000801ba0436f3d09e24413a0276a9d4e8310d879438922c651ecdc6beac86b75d0b5c82aa051f65fb2aa2b9d71325b1d9a8b24ba4c670b456cb17df89db7cd6077d619f9f9",
      "networkId": 0,
      "chainId": 0
    },
    {
      "hash": "0x44866f79ce64f9ff769f2b4c813e690e42d81d9499aa6735fbfaa5d546335f2d",
      "blockHash": "0x6b48b69bc5aea77f4f1b4bd3c6c7625db80d9b5965c0717c5d9dc008056b853f",
      "blockNumber": 68556,
      "transactionIndex": 2,
      "confirmations": null,
      "from": "0x74870F56E7b59aD88C52a743b8D8d95152a49dD2",
      "gasPrice": {
        "_hex": "0xba43b7400"
      },
      "gasLimit": {
        "_hex": "0x5208"
      },
      "to": "0xFfb0220e3F2ef137a6B34196c8FB7488636183a2",
      "value": {
        "_hex": "0x7c58ada8ff2000"
      },
      "nonce": 1,
      "data": "0x",
      "r": "0x4a6347c2c194ed7eab86de7c824e8e628a4f4b2818d96f4df56b0564031c0312",
      "s": "0x7bb7529a1cf7f6a319a90fa632c21852b3a280c95fd7dee723f26855a1852f23",
      "v": 28,
      "creates": null,
      "raw": "0xf86b01850ba43b740082520894ffb0220e3f2ef137a6b34196c8fb7488636183a2877c58ada8ff2000801ca04a6347c2c194ed7eab86de7c824e8e628a4f4b2818d96f4df56b0564031c0312a07bb7529a1cf7f6a319a90fa632c21852b3a280c95fd7dee723f26855a1852f23",
      "networkId": 0,
      "chainId": 0
    },
    {
      "hash": "0x8912e846d086832e4fb226e32a456fdb146fc441c9f955f69202180cecbbfb0a",
      "blockHash": "0x6b48b69bc5aea77f4f1b4bd3c6c7625db80d9b5965c0717c5d9dc008056b853f",
      "blockNumber": 68556,
      "transactionIndex": 3,
      "confirmations": null,
      "from": "0xBAa43Ab4C3af60C3a5023D29f8F9C06453179c58",
      "gasPrice": {
        "_hex": "0xba43b7400"
      },
      "gasLimit": {
        "_hex": "0x5208"
      },
      "to": "0x48D61d7c5b9ED0767e530cbfe3960E4A0d112269",
      "value": {
        "_hex": "0x7c58ada8ff2000"
      },
      "nonce": 1,
      "data": "0x",
      "r": "0xbe6813a11a59b3b8e21b68d18dfa8ba9f8a891d3b575cedceb1fec93fbef455d",
      "s": "0x4d9802374c1c20d4aa7680739680e980de5964e18aa517f94cd5461c98080c09",
      "v": 28,
      "creates": null,
      "raw": "0xf86b01850ba43b74008252089448d61d7c5b9ed0767e530cbfe3960e4a0d112269877c58ada8ff2000801ca0be6813a11a59b3b8e21b68d18dfa8ba9f8a891d3b575cedceb1fec93fbef455da04d9802374c1c20d4aa7680739680e980de5964e18aa517f94cd5461c98080c09",
      "networkId": 0,
      "chainId": 0
    },
    {
      "hash": "0xa000c89d5a2a4a35b13daa56756fc0723c0860030efa70f0b7af380b4fcab4a2",
      "blockHash": "0x6b48b69bc5aea77f4f1b4bd3c6c7625db80d9b5965c0717c5d9dc008056b853f",
      "blockNumber": 68556,
      "transactionIndex": 4,
      "confirmations": null,
      "from": "0xb74fb78eeBD1467803f297B380dfF8da7b213F60",
      "gasPrice": {
        "_hex": "0xba43b7400"
      },
      "gasLimit": {
        "_hex": "0x5208"
      },
      "to": "0x585039e6dBf87c59C63a33050e939A4dC6ac6b30",
      "value": {
        "_hex": "0x7c58ada8ff2000"
      },
      "nonce": 1,
      "data": "0x",
      "r": "0xaa00d5f8c62ae6e9af06cdd6fd5cb9e1177db3a294f597b177518a400aafcd80",
      "s": "0x3dcd98a820a9489b58a80b069bf31dc9bbfc09dd5a2202955cf4fe45a2a8adbf",
      "v": 28,
      "creates": null,
      "raw": "0xf86b01850ba43b740082520894585039e6dbf87c59c63a33050e939a4dc6ac6b30877c58ada8ff2000801ca0aa00d5f8c62ae6e9af06cdd6fd5cb9e1177db3a294f597b177518a400aafcd80a03dcd98a820a9489b58a80b069bf31dc9bbfc09dd5a2202955cf4fe45a2a8adbf",
      "networkId": 0,
      "chainId": 0
    },
    {
      "hash": "0x69a052a072390aac341d59c2b1f59f8d5f83b7c13f1bdd3ea93e656accc8f492",
      "blockHash": "0x6b48b69bc5aea77f4f1b4bd3c6c7625db80d9b5965c0717c5d9dc008056b853f",
      "blockNumber": 68556,
      "transactionIndex": 5,
      "confirmations": null,
      "from": "0xea6f1918845868383576Eb133A93C74834Bb8b36",
      "gasPrice": {
        "_hex": "0xba43b7400"
      },
      "gasLimit": {
        "_hex": "0x5208"
      },
      "to": "0x93D9e21bC7156361Ea8FBB0104435B736BDBC49A",
      "value": {
        "_hex": "0x7c58ada8ff2000"
      },
      "nonce": 1,
      "data": "0x",
      "r": "0x8823446c7180683c0a54559c9acfee725c55dc382f90b39cfeff2e7a7486428b",
      "s": "0x3746e7068b67dffff03085707c7f1e36c282b30adf63440d4c7691f868ff4643",
      "v": 27,
      "creates": null,
      "raw": "0xf86b01850ba43b74008252089493d9e21bc7156361ea8fbb0104435b736bdbc49a877c58ada8ff2000801ba08823446c7180683c0a54559c9acfee725c55dc382f90b39cfeff2e7a7486428ba03746e7068b67dffff03085707c7f1e36c282b30adf63440d4c7691f868ff4643",
      "networkId": 0,
      "chainId": 0
    }
  ]
}