{
  "hash": "0xf8d01370e6e274f8188954fbee435b40c35b2ad3d4ab671f6d086cd559e48f04",
  "parentHash": "0xc94a523986585bcbcdf4a6faaefd00fedf00936a043f03c7389337d3a75badfe",
  "number": 68942,
  "timestamp": 1439296004,
  "nonce": "0x2f45f963978308b6",
  "difficulty": 2031988391629,
  "gasLimit": {
    "_hex": "0x2fefd8"
  },
  "gasUsed": {
    "_hex": "0x29040"
  },
  "miner": "0xe6A7a1d47ff21B6321162AEA7C6CB457D5476Bca",
  "extraData": "0x476574682f76312e302e312d38326566323666362f6c696e75782f676f312e34",
  "transactions": [
    {
      "hash": "0x0b4771df7e5f1f017873e8979469148bc0986cefbcb3ded19cdf90750411e3aa",
      "blockHash": "0xf8d01370e6e274f8188954fbee435b40c35b2ad3d4ab671f6d086cd559e48f04",
      "blockNumber": 68942,
      "transactionIndex": 0,
      "confirmations": null,
      "from": "0xB834C9D8ede9f052E17c49902Ca7f697a305C52C",
      "gasPrice": {
        "_hex": "0xba43b7400"
      },
      "gasLimit": {
        "_hex": "0x5208"
      },
      "to": "0x1A3Ce525F241FA23dDe7E8e1EdF13565bFf21FAe",
      "value": {
        "_hex": "0xaa9f075c200000"
      },
      "nonce": 1,
      "data": "0x",
      "r": "0x6ead1509b493bdddaa03d1e98711a544134da105099b3cf0b885fa7b51634dfb",
      "s": "0x542c90e4aa8a5c839b34903cd040c2800356a50dc5de5ef012c0b0cd2f4ef3c3",
      "v": 28,
      "creates": null,
      "raw": "0xf86b01850ba43b7400825208941a3ce525f241fa23dde7e8e1edf13565bff21fae87aa9f075c200000801ca06ead1509b493bdddaa03d1e98711a544134da105099b3cf0b885fa7b51634dfba0542c90e4aa8a5c839b34903cd040c2800356a50dc5de5ef012c0b0cd2f4ef3c3",
      "networkId": 0,
      "chainId": 0
    },
    {
      "hash": "0xfec1bd1e3b5bc57550168fe5981b48b3e4559a65f41de3452983f8c1f9d25a89",
      "blockHash": "0xf8d01370e6e274f8188954fbee435b40c35b2ad3d4ab671f6d086cd559e48f04",
      "blockNumber": 68942,
      "transactionIndex": 1,
      "confirmations": null,
      "from": "0x71aAecB159eeCd828Eb657Ac484138C3B4D0D8bb",
      "gasPrice": {
        "_hex": "0xba43b7400"
      },
      "gasLimit": {
        "_hex": "0x5208"
      },
      "to": "0x2BFdD4929e414Ae645784d184592AE44CCC0e0a4",
      "value": {
        "_hex": "0xaa9f075c200000"
      },
      "nonce": 1,
      "data": "0x",
      "r": "0xac8ba5b711cfe8b939508bb170f562616ac371098851c884f5a00df432f6c042",
      "s": "0x3ab112016c9d4738b99526a16332c229d651e9d3c62352aebbc338a1935bb038",
      "v": 28,
      "creates": null,
      "raw": "0xf86b01850ba43b7400825208942bfdd4929e414ae645784d184592ae44ccc0e0a487aa9f075c200000801ca0ac8ba5b711cfe8b939508bb170f562616ac371098851c884f5a00df432f6c042a03ab112016c9d4738b99526a16332c229d651e9d3c62352aebbc338a1935bb038",
      "networkId": 0,
      "chainId": 0
    },
    {
      "hash": "0x8180cd6e168e00493e3a27e890a1141dd72474b552437a46176524639e2399fb",
      "blockHash": "0xf8d01370e6e274f8188954fbee435b40c35b2ad3d4ab671f6d086cd559e48f04",
      "blockNumber": 68942,
      "transactionIndex": 2,
      "confirmations": null,
      "from": "0x0A97CdA6B56f198B7BDCB161954b4e0606589Ba6",
      "gasPrice": {
        "_hex": "0xba43b7400"
      },
      "gasLimit": {
        "_hex": "0x5208"
      },
      "to": "0x9c615806a972e71cb467B03FA71C396fd8B1158C",
      "value": {
        "_hex": "0xaa9f075c200000"
      },
      "nonce": 1,
      "data": "0x",
      "r": "0xf09057e1d594fbd8af8b0f1180016f5e62d7aadcc8b15b6712b938a3369679e6",
      "s": "0x448e132bc04f9917cacb99d9f4a09b27dc00278f8da2a680dbcf18eba1defc80",
      "v": 28,
      "creates": null,
      "raw": "0xf86b01850ba43b7400825208949c615806a972e71cb467b03fa71c396fd8b1158c87aa9f075c200000801ca0f09057e1d594fbd8af8b0f1180016f5e62d7aadcc8b15b6712b938a3369679e6a0448e132bc04f9917cacb99d9f4a09b27dc00278f8da2a680dbcf18eba1defc80",
      "networkId": 0,
      "chainId": 0
    },
    {
      "hash": "0xa6276b9fb5166b337424eb365f4d33096a452af967a69fec4f808319839be80f",
      "blockHash": "0xf8d01370e6e274f8188954fbee435b40c35b2ad3d4ab671f6d086cd559e48f04",
      "blockNumber": 68942,
      "transactionIndex": 3,
      "confirmations": null,
      "from": "0x553A2889df0eD4429dC3C10A549F0e3312740a18",
      "gasPrice": {
        "_hex": "0xba43b7400"
      },
      "gasLimit": {
        "_hex": "0x5208"
      },
      "to": "0x6ac7a0d5305606f01601B140cFFb80c88A52f18e",
      "value": {
        "_hex": "0xaa9f075c200000"
      },
      "nonce": 1,
      "data": "0x",
      "r": "0x2cee40c8901792d421871e79744c64683edf65cbc080d641c8447db46895f130",
      "s": "0x661d9a0535a8412b61a688a923ac7319962d870a4f9398b3709382a699cb519e",
      "v": 27,
      "creates": null,
      "raw": "0xf86b01850ba43b7400825208946ac7a0d5305606f01601b140cffb80c88a52f18e87aa9f075c200000801ba02cee40c8901792d421871e79744c64683edf65cbc080d641c8447db46895f130a0661d9a0535a8412b61a688a923ac7319962d870a4f9398b3709382a699cb519e",
      "networkId": 0,
      "chainId": 0
    },
    {
      "hash": "0x42e552b33aa7cadfd89a383ea25f5c60c4b63e157173df8996bf3804ec439f98",
      "blockHash": "0xf8d01370e6e274f8188954fbee435b40c35b2ad3d4ab671f6d086cd559e48f04",
      "blockNumber": 68942,
      "transactionIndex": 4,
      "confirmations": null,
      "from": "0xA0A41b56248B82df7466F7E887391A13c8bB78e2",
      "gasPrice": {
        "_hex": "0xba43b7400"
      },
      "gasLimit": {
        "_hex": "0x5208"
      },
      "to": "0x4a1b224A2AF5F0eE69a738D71fbc718154689d62",
      "value": {
        "_hex": "0xaa9f075c200000"
      },
      "nonce": 1,
      "data": "0x",
      "r": "0xb5672ca3b1946239cb1ffe9861017b84ed5e5761ee8a97fb6ebafddbfcf285eb",
      "s": "0x2cd7a31952ec90fb91f27a71b64a48e912458143e4949e98c15a9f04accddc85",
      "v": 28,
      "creates": null,
      "raw": "0xf86b01850ba43b7400825208944a1b224a2af5f0ee69a738d71fbc718154689d6287aa9f075c200000801ca0b5672ca3b1946239cb1ffe9861017b84ed5e5761ee8a97fb6ebafddbfcf285eba02cd7a31952ec90fb91f27a71b64a48e912458143e4949e98c15a9f04accddc85",
      "networkId": 0,
      "chainId": 0
    },
    {
      "hash": "0xd3d3731e5ea8a97338faeb0fb1ea7ae310e946c4819b828c0884cd9af9507bf4",
      "blockHash": "0xf8d01370e6e274f8188954fbee435b40c35b2ad3d4ab671f6d086cd559e48f04",
      "blockNumber": 68942,
      "transactionIndex": 5,
      "confirmations": null,
      "from": "0xc0210FeAf4277e21dDf3a00E0e85B32DaCbDd7aF",
      "gasPrice": {
        "_hex": "0xba43b7400"
      },
      "gasLimit": {
        "_hex": "0x5208"
      },
      "to": "0x053fe0596ECBd7283D1589BeC2b497BFCfBaa202",
      "value": {
        "_hex": "0xaa9f075c200000"
      },
      "nonce": 1,
      "data": "0x",
      "r": "0x44bd88c0fb33f23525109efe44241bf7efc5e67b0ac63fbd7597046048a6a3fe",
      "s": "0x7061902f7e3a775646d2a7c06b086a954887fef51967c61eec37c16cfcf233cc",
      "v": 28,
      "creates": null,
      "raw": "0xf86b01850ba43b740082520894053fe0596ecbd7283d1589bec2b497bfcfbaa20287aa9f075c200000801ca044bd88c0fb33f23525109efe44241bf7efc5e67b0ac63fbd7597046048a6a3fea07061902f7e3a775646d2a7c06b086a954887fef51967c61eec37c16cfcf233cc",
      "networkId": 0,
      "chainId": 0
    },
    {
      "hash": "0x61e3eea62ca4e2408c6e1bbbb3911d427efcfc30a187b4533c3419a514e128e6",
      "blockHash": "0xf8d01370e6e274f8188954fbee435b40c35b2ad3d4ab671f6d086cd559e48f04",
      "blockNumber": 68942,
      "transactionIndex": 6,
      "confirmations": null,
      "from": "0xda2e795835FC1AD6EA318986274A4cbCF2Ec3276",
      "gasPrice": {
        "_hex": "0xba43b7400"
      },
      "gasLimit": {
        "_hex": "0x5208"
      },
      "to": "0xdcF5c560049f0571C5B5B6e0489BEeF617b74391",
      "value": {
        "_hex": "0xaa9f075c200000"
      },
      "nonce": 1,
      "data": "0x",
      "r": "0x4c736029e71a11815a3b7da5d8c0ddca547ce8bf483a31f316e51211e1fe58dd",
      "s": "0x5bc5bcfd7ccbd2512fba5ec19c59680dd85389ec8d6835477b64cc7da7a67c7a",
      "v": 27,
      "creates": null,
      "raw": "0xf86b01850ba43b740082520894dcf5c560049f0571c5b5b6e0489beef617b7439187aa9f075c200000801ba04c736029e71a11815a3b7da5d8c0ddca547ce8bf483a31f316e51211e1fe58dda05bc5bcfd7ccbd2512fba5ec19c59680dd85389ec8d6835477b64cc7da7a67c7a",
      "networkId": 0,
      "chainId": 0
    },
    {
      "hash": "0x6fc4eddc2e275cf1c262b7141aac69a52219edc990a89b6a07f157610d5f9faf",
      "blockHash": "0xf8d01370e6e274f8188954fbee435b40c35b2ad3d4ab671f6d086cd559e48f04",
      "blockNumber": 68942,
      "transactionIndex": 7,
      "confirmations": null,
      "from": "0xf1f2c76068dB5A8346102241669238FBEE0fD9Da",
      "gasPrice": {
        "_hex": "0xba43b7400"
      },
      "gasLimit": {
        "_hex": "0x5208"
      },
      "to": "0x442EbF322d14521EadBdd1dEe407365230219734",
      "value": {
        "_hex": "0xaa9f075c200000"
      },
      "nonce": 1,
      "data": "0x",
      "r": "0xa64b07618704d421eef9a1917c5390db6d25004f2e069f3bd315892d81773add",
      "s": "0x74b9d784fa8193b2412319ebdb12f39cf92c38599be7b39daa24452edd48d844",
      "v": 27,
      "creates": null,
      "raw": "0xf86b01850ba43b740082520894442ebf322d14521eadbdd1dee40736523021973487aa9f075c200000801ba0a64b07618704d421eef9a1917c5390db6d25004f2e069f3bd315892d81773adda074b9d784fa8193b2412319ebdb12f39cf92c38599be7b39daa24452edd48d844",
      "networkId": 0,
      "chainId": 0
    }
  ]
}