{
  "hash": "0x21f5b19b140827df7fb1b71f0b11c99f525429eef178ca805e80772d513d78b4",
  "parentHash": "0xa52fd63f1f178c303889c9d10fbf07dba3dfbac9f44f1be5bec315e7ca7b2954",
  "number": 100973,
  "timestamp": 1439815397,
  "nonce": "0x05352645856af7fe",
  "difficulty": 3862028519179,
  "gasLimit": {
    "_hex": "0x2fefd8"
  },
  "gasUsed": {
    "_hex": "0x5208"
  },
  "miner": "0xcf00A85f3826941e7A25BFcF9Aac575d40410852",
  "extraData": "0x476574682f76312e302e312f77696e646f77732f676f312e342e32",
  "transactions": [
    {
      "hash": "0x3f36f1353a6f279bf87f98b817d6b314a243edf2e4b8e3000558e4d4296fb3d9",
      "blockHash": "0x21f5b19b140827df7fb1b71f0b11c99f525429eef178ca805e80772d513d78b4",
      "blockNumber": 100973,
      "transactionIndex": 0,
      "confirmations": null,
      "from": "0x007f7f58D3eb5b7510A301eCC749FC1fCDDBE14D",
      "gasPrice": {
        "_hex": "0xe0cfe7246"
      },
      "gasLimit": {
        "_hex": "0x15f90"
      },
      "to": "0xb1abce2918E21ddb93AA452731a12672A3d9F75a",
      "value": {
        "_hex": "0x4563918244f40000"
      },
      "nonce": 176,
      "data": "0x",
      "r": "0x29f9cf81b9977bfbb8a90c6efcdf7fbf1ff18e38e9d245e9e2e91e0f645eec29",
      "s": "0x40b42d6d722dfd35aa4fa38d03b1c9ab4e03b3a049101d35132ad31e3c91335d",
      "v": 27,
      "creates": null,
      "raw": "0xf86e81b0850e0cfe724683015f9094b1abce2918e21ddb93aa452731a12672a3d9f75a884563918244f40000801ba029f9cf81b9977bfbb8a90c6efcdf7fbf1ff18e38e9d245e9e2e91e0f645eec29a040b42d6d722dfd35aa4fa38d03b1c9ab4e03b3a049101d35132ad31e3c91335d",
      "networkId": 0,
      "chainId": 0
    }
  ]
}