{
  "hash": "0xca190defdfde8c4889788d0f0e8cf65c3c1d0c5a5a7e42eb8adb22d171be8e22",
  "parentHash": "0x995f6e2edaa7631a7acbf43f8503cb8ba53690617acb30c29be90fb787012336",
  "number": 60364,
  "timestamp": 1439154130,
  "nonce": "0x3afdecd3ab36ef7a",
  "difficulty": 1750054197484,
  "gasLimit": {
    "_hex": "0x2fefd8"
  },
  "gasUsed": {
    "_hex": "0x5208"
  },
  "miner": "0x31995C46B15C84523cDEE26f49A681b8237e43F5",
  "extraData": "0x476574682f76312e302e312f77696e646f77732f676f312e342e32",
  "transactions": [
    {
      "hash": "0xbbb9a92f34b9f1b3adc59b34cc2836dbb193b63ccaff60c99efdaa71a47a6bef",
      "blockHash": "0xca190defdfde8c4889788d0f0e8cf65c3c1d0c5a5a7e42eb8adb22d171be8e22",
      "blockNumber": 60364,
      "transactionIndex": 0,
      "confirmations": null,
      "from": "0x8155Fa6c51Eb31D808412d748aA086105018122f",
      "gasPrice": {
        "_hex": "0xd8d15d22f"
      },
      "gasLimit": {
        "_hex": "0x15f90"
      },
      "to": "0xc955d372Fe1c428D17CD86E05d26F0206F3677b1",
      "value": {
        "_hex": "0x56bc75e2d63100000"
      },
      "nonce": 21,
      "data": "0x",
      "r": "0xd2d2e6c9ab3b30f44558bfd8a679a0a911f3901db2a8c4f4b1fe885a6747b273",
      "s": "0x1069abd20c6ae7e98c11f99dd89a824454f7e5368c951e3b2e88c7d58136e34f",
      "v": 28,
      "creates": null,
      "raw": "0xf86e15850d8d15d22f83015f9094c955d372fe1c428d17cd86e05d26f0206f3677b189056bc75e2d63100000801ca0d2d2e6c9ab3b30f44558bfd8a679a0a911f3901db2a8c4f4b1fe885a6747b273a01069abd20c6ae7e98c11f99dd89a824454f7e5368c951e3b2e88c7d58136e34f",
      "networkId": 0,
      "chainId": 0
    }
  ]
}