{
  "hash": "0x6449a8c096835ad4e552ff9f0a2712704bc5cb5834394eaab43bb7a4f85c9a3e",
  "parentHash": "0x33478132382757bcc22848ae96e8797e76e4fbb7bd7dd820288fad4eae8a8120",
  "number": 46856,
  "timestamp": 1438930473,
  "nonce": "0x40b7966906a47326",
  "difficulty": 1456025039484,
  "gasLimit": {
    "_hex": "0x7fc0"
  },
  "gasUsed": {
    "_hex": "0x5208"
  },
  "miner": "0xbb7B8287f3F0a933474a79eAe42CBCa977791171",
  "extraData": "0x476574682f4c5649562f76312e302e312f6c696e75782f676f312e342e32",
  "transactions": [
    {
      "hash": "0x9024ed9814dce2ec78b3c77eb9a6cbdffcb45529684d22aa5797331b9c2cb153",
      "blockHash": "0x6449a8c096835ad4e552ff9f0a2712704bc5cb5834394eaab43bb7a4f85c9a3e",
      "blockNumber": 46856,
      "transactionIndex": 0,
      "confirmations": null,
      "from": "0x49DC75D11428d1D718FC7b71941B71ae6F8bfA3C",
      "gasPrice": {
        "_hex": "0xd7d40ace3"
      },
      "gasLimit": {
        "_hex": "0x55f0"
      },
      "to": "0xeF76c144553e10420Aa7FA2c205Db698AF95bed3",
      "value": {
        "_hex": "0x2a802f8630a240000"
      },
      "nonce": 0,
      "data": "0x",
      "r": "0x66c9f8067371090b1b492f827591201ff0e2f825f8c05627c417cc5fdd881eaa",
      "s": "0x273411c995687f3bd29a34cadfc0dfb2305a9133d2fd597da8aaa9e3d8adb619",
      "v": 28,
      "creates": null,
      "raw": "0xf86d80850d7d40ace38255f094ef76c144553e10420aa7fa2c205db698af95bed38902a802f8630a240000801ca066c9f8067371090b1b492f827591201ff0e2f825f8c05627c417cc5fdd881eaaa0273411c995687f3bd29a34cadfc0dfb2305a9133d2fd597da8aaa9e3d8adb619",
      "networkId": 0,
      "chainId": 0
    }
  ]
}