{
  "hash": "0x31aa2ce8d26763df8cb76f58fc16cee572558d82891d1372f99eb61e16b3967d",
  "parentHash": "0x61b37a83e59ad17b8a8b51ada7287b476e9e41299f959384b16981dfc2eab73e",
  "number": 80730,
  "timestamp": 1439489948,
  "nonce": "0x5e917349cd936ff5",
  "difficulty": 2435681951534,
  "gasLimit": {
    "_hex": "0x2fefd8"
  },
  "gasUsed": {
    "_hex": "0x23e38"
  },
  "miner": "0x33b01a7fe4A1a5F774Bb73f89A4eF15a6Ffe1141",
  "extraData": "0x476574682f76312e302e312f6c696e75782f676f312e342e32",
  "transactions": [
    {
      "hash": "0xd138fa8612d8f670d0f91d22aca91331701c6fdea22037b0d966d27ecc063940",
      "blockHash": "0x31aa2ce8d26763df8cb76f58fc16cee572558d82891d1372f99eb61e16b3967d",
      "blockNumber": 80730,
      "transactionIndex": 0,
      "confirmations": null,
      "from": "0xC47Aaa860008be6f65B58c6C6E02a84e666EfE31",
      "gasPrice": {
        "_hex": "0xd5ec2eeac"
      },
      "gasLimit": {
        "_hex": "0x15f90"
      },
      "to": "0x1A9cbB22dc982354ADA98BE8cC13e611eEdD7794",
      "value": {
        "_hex": "0x8ac39585e521822a"
      },
      "nonce": 1,
      "data": "0x",
      "r": "0xfbbada191157152d7e14209ee3d4ef48491a9af012e60f169979c900703d39a8",
      "s": "0x76d1514ab36983bd06ae4c3b92a4c8f1dcd94edb40f75228e6e54a2c30d61ebc",
      "v": 28,
      "creates": null,
      "raw": "0xf86d01850d5ec2eeac83015f90941a9cbb22dc982354ada98be8cc13e611eedd7794888ac39585e521822a801ca0fbbada191157152d7e14209ee3d4ef48491a9af012e60f169979c900703d39a8a076d1514ab36983bd06ae4c3b92a4c8f1dcd94edb40f75228e6e54a2c30d61ebc",
      "networkId": 0,
      "chainId": 0
    },
    {
      "hash": "0x8754b4025e38f77639fd129da0ef8cf118cb7e10e5572674624ab1f5b2333594",
      "blockHash": "0x31aa2ce8d26763df8cb76f58fc16cee572558d82891d1372f99eb61e16b3967d",
      "blockNumber": 80730,
      "transactionIndex": 1,
      "confirmations": null,
      "from": "0x7Eb9F59f9547E376188eD83EFCD1F6dbF3712eA6",
      "gasPrice": {
        "_hex": "0xcf90feb11"
      },
      "gasLimit": {
        "_hex": "0x15f90"
      },
      "to": "0xAd941B747c499E3ad5728C285446813783A33564",
      "value": {
        "_hex": "0x4563918244f40000"
      },
      "nonce": 7,
      "data": "0x",
      "r": "0xca334a26c6b214ccf505a68d79694d40b2d3991242f2b10059de05b8491d8fea",
      "s": "0x51a2deff0fdb13a4131188552c37dbb9db19fa05adbe3c47ec8ac965c54558b7",
      "v": 27,
      "creates": null,
      "raw": "0xf86d07850cf90feb1183015f9094ad941b747c499e3ad5728c285446813783a33564884563918244f40000801ba0ca334a26c6b214ccf505a68d79694d40b2d3991242f2b10059de05b8491d8feaa051a2deff0fdb13a4131188552c37dbb9db19fa05adbe3c47ec8ac965c54558b7",
      "networkId": 0,
      "chainId": 0
    },
    {
      "hash": "0xf902db858db8108dd13c7346a35bd303add292c33183ccba62e6b6ff964b3039",
      "blockHash": "0x31aa2ce8d26763df8cb76f58fc16cee572558d82891d1372f99eb61e16b3967d",
      "blockNumber": 80730,
      "transactionIndex": 2,
      "confirmations": null,
      "from": "0xcf41dDE715EF1162386575F0d21d9172Dcd1b291",
      "gasPrice": {
        "_hex": "0xba43b7400"
      },
      "gasLimit": {
        "_hex": "0x5208"
      },
      "to": "0xC47Aaa860008be6f65B58c6C6E02a84e666EfE31",
      "value": {
        "_hex": "0x15aef636caef6c1dc0"
      },
      "nonce": 2,
      "data": "0x",
      "r": "0x72cc868ce45a1ee4ca2ba84ccd0add89032aff9e907e0a4d927c9d9e172525fa",
      "s": "0x3026fd510047f7eb72e129ea7b25b00a5a282e57afd43b33804c8434f7d73adf",
      "v": 27,
      "creates": null,
      "raw": "0xf86d02850ba43b740082520894c47aaa860008be6f65b58c6c6e02a84e666efe318915aef636caef6c1dc0801ba072cc868ce45a1ee4ca2ba84ccd0add89032aff9e907e0a4d927c9d9e172525faa03026fd510047f7eb72e129ea7b25b00a5a282e57afd43b33804c8434f7d73adf",
      "networkId": 0,
      "chainId": 0
    },
    {
      "hash": "0x68ea6142e81be3027422d211b870cf1a99ca2ba30ee6279312b8f6afa76c3460",
      "blockHash": "0x31aa2ce8d26763df8cb76f58fc16cee572558d82891d1372f99eb61e16b3967d",
      "blockNumber": 80730,
      "transactionIndex": 3,
      "confirmations": null,
      "from": "0x2C3d5c472E35947eb8Bf098e5207b0e1f3D1Ef91",
      "gasPrice": {
        "_hex": "0xba43b7400"
      },
      "gasLimit": {
        "_hex": "0x5208"
      },
      "to": "0xC47Aaa860008be6f65B58c6C6E02a84e666EfE31",
      "value": {
        "_hex": "0xdb974c90a901dc0"
      },
      "nonce": 0,
      "data": "0x",
      "r": "0x30a9b26707ea04ae6ce98351c039ea7b33ac68e85385105875e34c97ac0cb1de",
      "s": "0x306c86cae92515c057642a566fd7d496ad477fab121425433a4f18d1da9bdd6f",
      "v": 27,
      "creates": null,
      "raw": "0xf86c80850ba43b740082520894c47aaa860008be6f65b58c6c6e02a84e666efe31880db974c90a901dc0801ba030a9b26707ea04ae6ce98351c039ea7b33ac68e85385105875e34c97ac0cb1dea0306c86cae92515c057642a566fd7d496ad477fab121425433a4f18d1da9bdd6f",
      "networkId": 0,
      "chainId": 0
    },
    {
      "hash": "0x264f7b9f2a86ee92129e6f1e2278e5002cab2406abf97132ce21c1241e36b3b9",
      "blockHash": "0x31aa2ce8d26763df8cb76f58fc16cee572558d82891d1372f99eb61e16b3967d",
      "blockNumber": 80730,
      "transactionIndex": 4,
      "confirmations": null,
      "from": "0x4C9560759adF54ABEdd7318d1413C4fA49240074",
      "gasPrice": {
        "_hex": "0xba43b7400"
      },
      "gasLimit": {
        "_hex": "0x5208"
      },
      "to": "0xC47Aaa860008be6f65B58c6C6E02a84e666EfE31",
      "value": {
        "_hex": "0x410ee927f7397800"
      },
      "nonce": 0,
      "data": "0x",
      "r": "0xbf912930a7ba325854c523bbb407575b289d4b21b2f95e3c6da06d5f2d16ad10",
      "s": "0x50600126ba83590146862ac82481e4ee34dfa7a2fdd6da6c082294c9e596ef58",
      "v": 28,
      "creates": null,
      "raw": "0xf86c80850ba43b740082520894c47aaa860008be6f65b58c6c6e02a84e666efe3188410ee927f7397800801ca0bf912930a7ba325854c523bbb407575b289d4b21b2f95e3c6da06d5f2d16ad10a050600126ba83590146862ac82481e4ee34dfa7a2fdd6da6c082294c9e596ef58",
      "networkId": 0,
      "chainId": 0
    },
    {
      "hash": "0x6d7091292b7f0649be79b47ecfbc5a1ae598f74454e82ba8685b68ba15b87671",
      "blockHash": "0x31aa2ce8d26763df8cb76f58fc16cee572558d82891d1372f99eb61e16b3967d",
      "blockNumber": 80730,
      "transactionIndex": 5,
      "confirmations": null,
      "from": "0x8e44de8518424bFf69916Db9B4a420B9beF5906e",
      "gasPrice": {
        "_hex": "0xba43b7400"
      },
      "gasLimit": {
        "_hex": "0x5208"
      },
      "to": "0xC47Aaa860008be6f65B58c6C6E02a84e666EfE31",
      "value": {
        "_hex": "0x65db1b44ca78ddc0"
      },
      "nonce": 0,
      "data": "0x",
      "r": "0xba08b771044087475b7bc03ec8471a097cdd7bb04d5642d6d9238fa7ffa0b9cf",
      "s": "0x5ede4e5832f3a61553600c7da1333af728bb3139ffd2b2f02a14593fcad2bcb0",
      "v": 27,
      "creates": null,
      "raw": "0xf86c80850ba43b740082520894c47aaa860008be6f65b58c6c6e02a84e666efe318865db1b44ca78ddc0801ba0ba08b771044087475b7bc03ec8471a097cdd7bb04d5642d6d9238fa7ffa0b9cfa05ede4e5832f3a61553600c7da1333af728bb3139ffd2b2f02a14593fcad2bcb0",
      "networkId": 0,
      "chainId": 0
    },
    {
      "hash": "0x210ecb482447e5b2b445aa2510c9b359f0782ee73b4f2a8abef7ce6cb9e17990",
      "blockHash": "0x31aa2ce8d26763df8cb76f58fc16cee572558d82891d1372f99eb61e16b3967d",
      "blockNumber": 80730,
      "transactionIndex": 6,
      "confirmations": null,
      "from": "0xcF9DD62019778E76a6B393f0ac4590f03A7429F7",
      "gasPrice": {
        "_hex": "0xba43b7400"
      },
      "gasLimit": {
        "_hex": "0x5208"
      },
      "to": "0xC47Aaa860008be6f65B58c6C6E02a84e666EfE31",
      "value": {
        "_hex": "0xc721dab54d4df000"
      },
      "nonce": 0,
      "data": "0x",
      "r": "0xca1d1321f84cd5a5a8c99ad708dbbf59a505bc1ccf9a35b0cd8b1c7bc3f560fc",
      "s": "0x582f43fcfadaf0ca592188d077ff47e3b8001f905cb0dc8f1fb42143c24cdd50",
      "v": 27,
      "creates": null,
      "raw": "0xf86c80850ba43b740082520894c47aaa860008be6f65b58c6c6e02a84e666efe3188c721dab54d4df000801ba0ca1d1321f84cd5a5a8c99ad708dbbf59a505bc1ccf9a35b0cd8b1c7bc3f560fca0582f43fcfadaf0ca592188d077ff47e3b8001f905cb0dc8f1fb42143c24cdd50",
      "networkId": 0,
      "chainId": 0
    }
  ]
}