{
  "hash": "0xe4ff9c3c0bb08f79ac1c5f8b05ad72968427ce4901574cefdd29c93afdb12938",
  "parentHash": "0xd445b84a55b713ce29c322a23abc4d0021d5d52b6e95ad1af99d44cf082c312d",
  "number": 107817,
  "timestamp": 1439929303,
  "nonce": "0x5f16dd4ae951f5a6",
  "difficulty": 4376954979910,
  "gasLimit": {
    "_hex": "0x2fefd8"
  },
  "gasUsed": {
    "_hex": "0x5208"
  },
  "miner": "0xe6A7a1d47ff21B6321162AEA7C6CB457D5476Bca",
  "extraData": "0x476574682f76312e302e312d38326566323666362f6c696e75782f676f312e34",
  "transactions": [
    {
      "hash": "0x54445b72b717ba6dfbca9948c10edf5e03f99bbc199663cc2166e4af345e03da",
      "blockHash": "0xe4ff9c3c0bb08f79ac1c5f8b05ad72968427ce4901574cefdd29c93afdb12938",
      "blockNumber": 107817,
      "transactionIndex": 0,
      "confirmations": null,
      "from": "0x2910543Af39abA0Cd09dBb2D50200b3E800A63D2",
      "gasPrice": {
        "_hex": "0xd0c19a8af"
      },
      "gasLimit": {
        "_hex": "0x5208"
      },
      "to": "0x3e4c04DFaFEC1413367feCf23a65b9C05AD74822",
      "value": {
        "_hex": "0x4551ce090d138000"
      },
      "nonce": 1056,
      "data": "0x",
      "r": "0x744041bf041bcb4c003ea1cc3b0ff90d4275091e341424321d48ada5c7120d84",
      "s": "0x19969ef5147e4ac8b93290bab10ff25b3950aec09d69316031981cac95ad254e",
      "v": 27,
      "creates": null,
      "raw": "0xf86e820420850d0c19a8af825208943e4c04dfafec1413367fecf23a65b9c05ad74822884551ce090d138000801ba0744041bf041bcb4c003ea1cc3b0ff90d4275091e341424321d48ada5c7120d84a019969ef5147e4ac8b93290bab10ff25b3950aec09d69316031981cac95ad254e",
      "networkId": 0,
      "chainId": 0
    }
  ]
}