{
  "hash": "0x1c8c6aca4ad60159bf0115b66982e571661c080a9390fb348937278eef86238b",
  "parentHash": "0xdc50aaae64f6a61f4bd4776e3bff3fbb5e545570a740f649e1e5dd462f464d5d",
  "number": 95345,
  "timestamp": 1439722757,
  "nonce": "0x4db527ea70a28d8d",
  "difficulty": 3560255179752,
  "gasLimit": {
    "_hex": "0x2fefd8"
  },
  "gasUsed": {
    "_hex": "0x546c"
  },
  "miner": "0xb0322e042c6d3062151184d90a8451Db8e76E6C3",
  "extraData": "0x476574682f76312e302e312f77696e646f77732f676f312e342e32",
  "transactions": [
    {
      "hash": "0xff3fbd5ac7bf323963a5f51d48beed3e94a0d64c5bc54e5c9ad071b769c70cdf",
      "blockHash": "0x1c8c6aca4ad60159bf0115b66982e571661c080a9390fb348937278eef86238b",
      "blockNumber": 95345,
      "transactionIndex": 0,
      "confirmations": null,
      "from": "0xA12E42660746c6a0484965f36D7b4d6a727BDa72",
      "gasPrice": {
        "_hex": "0x10ea58b01c5"
      },
      "gasLimit": {
        "_hex": "0x55f0"
      },
      "to": "0x2910543Af39abA0Cd09dBb2D50200b3E800A63D2",
      "value": {
        "_hex": "0xf9ccd8a1c5080000"
      },
      "nonce": 8,
      "data": "0x454e54314834395730",
      "r": "0x0a7c0a7a19ed98b4eeda2c2b0283daac57fb7c9d95adbac941c189be77284ebb",
      "s": "0x690c1f785872afca6b5f5349d1a7b6ac7598ffda888cc6876c5a04af965c9f05",
      "v": 27,
      "creates": null,
      "raw": "0xf8760886010ea58b01c58255f0942910543af39aba0cd09dbb2d50200b3e800a63d288f9ccd8a1c508000089454e543148343957301ba00a7c0a7a19ed98b4eeda2c2b0283daac57fb7c9d95adbac941c189be77284ebba0690c1f785872afca6b5f5349d1a7b6ac7598ffda888cc6876c5a04af965c9f05",
      "networkId": 0,
      "chainId": 0
    }
  ]
}