{
  "hash": "0x2cd49041585be85ac7f2349c537494c7f107d2da6c052d4f7825187f56777661",
  "parentHash": "0xf7f688130173a1d85af1f8a494a7b3e3ac1d47e646fb084c3beb2ca4d05626a9",
  "number": 86602,
  "timestamp": 1439580431,
  "nonce": "0x8b90e92f0614eae2",
  "difficulty": 2910246350595,
  "gasLimit": {
    "_hex": "0x2fefd8"
  },
  "gasUsed": {
    "_hex": "0x12bd2"
  },
  "miner": "0xbb7B8287f3F0a933474a79eAe42CBCa977791171",
  "extraData": "0x476574682f4c5649562f76312e302e312f6c696e75782f676f312e342e32",
  "transactions": [
    {
      "hash": "0xccd6e058e5248ae5a1d315d641b853cfb19333e9ffd217db1c55683d11c89617",
      "blockHash": "0x2cd49041585be85ac7f2349c537494c7f107d2da6c052d4f7825187f56777661",
      "blockNumber": 86602,
      "transactionIndex": 0,
      "confirmations": null,
      "from": "0x77b97786B0FB73e55d9E92d4B182beFBF346F979",
      "gasPrice": {
        "_hex": "0xda671bd80"
      },
      "gasLimit": {
        "_hex": "0xf4240"
      },
      "to": "0xA236078f02627205B2E3bDeA8dBA2e9D150113D3",
      "value": {
        "_hex": "0x0"
      },
      "nonce": 9,
      "data": "0xc7489441000000000000000000000008391d75f1df680814c1d8b7987f8af3caea24e306",
      "r": "0x03140b38265166b0599b5e952c0886c135ec45f54314575e9ef80609bf22e8c7",
      "s": "0x5a6226d56f0288592588a968b456b3aa48d841fcef667976cea94c4a794c2f5e",
      "v": 28,
      "creates": null,
      "raw": "0xf88909850da671bd80830f424094a236078f02627205b2e3bdea8dba2e9d150113d380a4c7489441000000000000000000000008391d75f1df680814c1d8b7987f8af3caea24e3061ca003140b38265166b0599b5e952c0886c135ec45f54314575e9ef80609bf22e8c7a05a6226d56f0288592588a968b456b3aa48d841fcef667976cea94c4a794c2f5e",
      "networkId": 0,
      "chainId": 0
    },
    {
      "hash": "0x83b074aecef19eb6ac25a575df508b3e5e5b8963495e8b5b590eb50ac9d3113c",
      "blockHash": "0x2cd49041585be85ac7f2349c537494c7f107d2da6c052d4f7825187f56777661",
      "blockNumber": 86602,
      "transactionIndex": 1,
      "confirmations": null,
      "from": "0x48a33958A96276E41c11e1359a9989BbaDfDb74A",
      "gasPrice": {
        "_hex": "0xcfa4e0863"
      },
      "gasLimit": {
        "_hex": "0x15f90"
      },
      "to": "0x4a17e8aADB151f9E220cA165C65128153951cfb9",
      "value": {
        "_hex": "0x0"
      },
      "nonce": 3,
      "data": "0x3feb1bd858585858585858585800000000000000000000000000000000000000000000000000000000000000000000004b11852b35058cbfb5a50c5a007b0c134927fd8b000000000000000000000000000000000000000000000000002386f26fc10000",
      "r": "0x6c89cd22bff14b6a9438a96f10ad87fbe78965bb000ebba33909f58bb7088d14",
      "s": "0x69a9fa75e26d26009ac08713d5123b941ee74e41489bfbd996021c27261be30c",
      "v": 28,
      "creates": null,
      "raw": "0xf8ca03850cfa4e086383015f90944a17e8aadb151f9e220ca165c65128153951cfb980b8643feb1bd858585858585858585800000000000000000000000000000000000000000000000000000000000000000000004b11852b35058cbfb5a50c5a007b0c134927fd8b000000000000000000000000000000000000000000000000002386f26fc100001ca06c89cd22bff14b6a9438a96f10ad87fbe78965bb000ebba33909f58bb7088d14a069a9fa75e26d26009ac08713d5123b941ee74e41489bfbd996021c27261be30c",
      "networkId": 0,
      "chainId": 0
    }
  ]
}