{
  "hash": "0x58005d64227a6973c715253c0501688b1fce66e64908df70aa6abcf0435bf9df",
  "parentHash": "0x77166af72d7da05a6ee9e2f18d1d9ae8d82ead6d899a54e14a929f453c2099be",
  "number": 48362,
  "timestamp": 1438955925,
  "nonce": "0x3a7e2287f21a57fe",
  "difficulty": 1455763663919,
  "gasLimit": {
    "_hex": "0x16081"
  },
  "gasUsed": {
    "_hex": "0xa8d8"
  },
  "miner": "0x9746c7e1ef2bd21FF3997fa467593a89cb852BD0",
  "extraData": "0x476574682f76312e302e312f77696e646f77732f676f312e342e32",
  "transactions": [
    {
      "hash": "0xa83e1c8391db9c3e3921de569d4db85a37193db7a21c90e7398caeaf47d22d1d",
      "blockHash": "0x58005d64227a6973c715253c0501688b1fce66e64908df70aa6abcf0435bf9df",
      "blockNumber": 48362,
      "transactionIndex": 0,
      "confirmations": null,
      "from": "0x767A03655Af360841E810D83f5e61fb40F4cd113",
      "gasPrice": {
        "_hex": "0xd8b694af9"
      },
      "gasLimit": {
        "_hex": "0x9c40"
      },
      "to": "0x2910543Af39abA0Cd09dBb2D50200b3E800A63D2",
      "value": {
        "_hex": "0x34dab44f48161b0000"
      },
      "nonce": 1,
      "data": "0x454e34433248304a30",
      "r": "0xf6649ec4a8d2cf10b43b22af53fd503c6ea003a6c4eeba8314e5c0c011b2c28c",
      "s": "0x4b8693a24b549e19b89ea511a99e24f02b1d23d0920469fb1bfc6dca997e70b7",
      "v": 28,
      "creates": null,
      "raw": "0xf87601850d8b694af9829c40942910543af39aba0cd09dbb2d50200b3e800a63d28934dab44f48161b000089454e34433248304a301ca0f6649ec4a8d2cf10b43b22af53fd503c6ea003a6c4eeba8314e5c0c011b2c28ca04b8693a24b549e19b89ea511a99e24f02b1d23d0920469fb1bfc6dca997e70b7",
      "networkId": 0,
      "chainId": 0
    },
    {
      "hash": "0x753e3590a028cf133f66f79d1a3fe8ce622b07dafb59f655c827ea1fbb2e86fd",
      "blockHash": "0x58005d64227a6973c715253c0501688b1fce66e64908df70aa6abcf0435bf9df",
      "blockNumber": 48362,
      "transactionIndex": 1,
      "confirmations": null,
      "from": "0xB7c9f12B038E73436D17E1c12FFE1aECCdb3f58c",
      "gasPrice": {
        "_hex": "0xd5887947e"
      },
      "gasLimit": {
        "_hex": "0x55f0"
      },
      "to": "0x2910543Af39abA0Cd09dBb2D50200b3E800A63D2",
      "value": {
        "_hex": "0x796c0634d1aef0000"
      },
      "nonce": 6,
      "data": "0x454e3030434e505252",
      "r": "0x5b63ae914fe0f2fb59f4d76815832bbc6263aa2c4ae648b58030a92d3718165c",
      "s": "0x627902919d934590abc3a2421ee02e7e4f972f25a86f4cf50f6f72bc90d94b72",
      "v": 28,
      "creates": null,
      "raw": "0xf87606850d5887947e8255f0942910543af39aba0cd09dbb2d50200b3e800a63d2890796c0634d1aef000089454e3030434e5052521ca05b63ae914fe0f2fb59f4d76815832bbc6263aa2c4ae648b58030a92d3718165ca0627902919d934590abc3a2421ee02e7e4f972f25a86f4cf50f6f72bc90d94b72",
      "networkId": 0,
      "chainId": 0
    }
  ]
}