{
  "hash": "0x9f1fe33a396a569360a6df7c2f9f082102313a504cf7bd6132a562f4a02ceb20",
  "parentHash": "0x04a5ce7fcbfa1e2cc79e2a7338337c9ab61fd985f1bf7f84c72dd4e3676390ff",
  "number": 51722,
  "timestamp": 1439009754,
  "nonce": "0x77d91b23cd5ec6f9",
  "difficulty": 1552060192254,
  "gasLimit": {
    "_hex": "0xd4b7c"
  },
  "gasUsed": {
    "_hex": "0x5208"
  },
  "miner": "0xbb7B8287f3F0a933474a79eAe42CBCa977791171",
  "extraData": "0x476574682f4c5649562f76312e302e312f6c696e75782f676f312e342e32",
  "transactions": [
    {
      "hash": "0x71adf4629da5806b4d543f6165283cc7e9fe9c64cf743c8b5a0148cd44a18422",
      "blockHash": "0x9f1fe33a396a569360a6df7c2f9f082102313a504cf7bd6132a562f4a02ceb20",
      "blockNumber": 51722,
      "transactionIndex": 0,
      "confirmations": null,
      "from": "0xE5F9b98aFCd58f9a652BAd30417958Bc9dD7bFba",
      "gasPrice": {
        "_hex": "0xd242137b0"
      },
      "gasLimit": {
        "_hex": "0x5208"
      },
      "to": "0x32Be343B94f860124dC4fEe278FDCBD38C102D88",
      "value": {
        "_hex": "0x458ad0eb942d80000"
      },
      "nonce": 2,
      "data": "0x",
      "r": "0xb62516ce95359fa266dcf06f716fd41bbea5bd44b875ce50eeadec5430cfdabd",
      "s": "0x5c7ff1dea6d10927c7ad5083cfa5c1d9ecb7a32f00afabe83af0d548ae83eee4",
      "v": 28,
      "creates": null,
      "raw": "0xf86d02850d242137b08252089432be343b94f860124dc4fee278fdcbd38c102d88890458ad0eb942d80000801ca0b62516ce95359fa266dcf06f716fd41bbea5bd44b875ce50eeadec5430cfdabda05c7ff1dea6d10927c7ad5083cfa5c1d9ecb7a32f00afabe83af0d548ae83eee4",
      "networkId": 0,
      "chainId": 0
    }
  ]
}