{
  "hash": "0xb9c0df2be2ac22dd4bba97f16ecc71fff4258ae0ceb4c649dba16ed12e4bf7fa",
  "parentHash": "0x7655772ab83681fd2eaa762e9dbc2ea92563deda1ee2e14433078310ad91861b",
  "number": 59401,
  "timestamp": 1439137561,
  "nonce": "0xc1797dbf0220ef9f",
  "difficulty": 1703876731535,
  "gasLimit": {
    "_hex": "0x2fefd5"
  },
  "gasUsed": {
    "_hex": "0xf618"
  },
  "miner": "0xf8E0CA3Ed80bd541b94BEdCf259e8CF2141A9523",
  "extraData": "0x476574682f76312e302e312f77696e646f77732f676f312e342e32",
  "transactions": [
    {
      "hash": "0xdfc29e6d10982e37008ac8a242694750bac01e7010a48efade2af8d50ea3e8a9",
      "blockHash": "0xb9c0df2be2ac22dd4bba97f16ecc71fff4258ae0ceb4c649dba16ed12e4bf7fa",
      "blockNumber": 59401,
      "transactionIndex": 0,
      "confirmations": null,
      "from": "0x640534BBfb5dFDA363A3Daf5ceb9B9E00cbB740E",
      "gasPrice": {
        "_hex": "0xd3f402e8d"
      },
      "gasLimit": {
        "_hex": "0x5208"
      },
      "to": "0x32Be343B94f860124dC4fEe278FDCBD38C102D88",
      "value": {
        "_hex": "0x54b40adc4a0a0000000"
      },
      "nonce": 2,
      "data": "0x",
      "r": "0x6b1518467c7ff6a95a77831c5e6d6fbeee79550efa92ba07c8b08ae5bb63327e",
      "s": "0x08281553d27473d73649bfef19bf36f3eed05d65d3ae0be3b3593b51a2f5e010",
      "v": 27,
      "creates": null,
      "raw": "0xf86e02850d3f402e8d8252089432be343b94f860124dc4fee278fdcbd38c102d888a054b40adc4a0a0000000801ba06b1518467c7ff6a95a77831c5e6d6fbeee79550efa92ba07c8b08ae5bb63327ea008281553d27473d73649bfef19bf36f3eed05d65d3ae0be3b3593b51a2f5e010",
      "networkId": 0,
      "chainId": 0
    },
    {
      "hash": "0x9bdcd37884b443b5c5676def744d9be9b8627496be0f018f53d5c71733548b12",
      "blockHash": "0xb9c0df2be2ac22dd4bba97f16ecc71fff4258ae0ceb4c649dba16ed12e4bf7fa",
      "blockNumber": 59401,
      "transactionIndex": 1,
      "confirmations": null,
      "from": "0x249502491a53b217181420Cc4A6dE23a720636CA",
      "gasPrice": {
        "_hex": "0xd1ef74c01"
      },
      "gasLimit": {
        "_hex": "0x5208"
      },
      "to": "0x32Be343B94f860124dC4fEe278FDCBD38C102D88",
      "value": {
        "_hex": "0x3635c56f197d000000"
      },
      "nonce": 1,
      "data": "0x",
      "r": "0xe76ef1802ab21bc387cb44953f0041ddeec29a853fa61bc59fb1181e7c4e7303",
      "s": "0x6a5285ae5f4641390771ebfa3a6ec39ffcf6cd6d0322ee6bf00f2e3b0803bc94",
      "v": 28,
      "creates": null,
      "raw": "0xf86d01850d1ef74c018252089432be343b94f860124dc4fee278fdcbd38c102d88893635c56f197d000000801ca0e76ef1802ab21bc387cb44953f0041ddeec29a853fa61bc59fb1181e7c4e7303a06a5285ae5f4641390771ebfa3a6ec39ffcf6cd6d0322ee6bf00f2e3b0803bc94",
      "networkId": 0,
      "chainId": 0
    },
    {
      "hash": "0x7a046d483958ef6ea4165b557e8edd051469c367c4d147faa660d516c1816d03",
      "blockHash": "0xb9c0df2be2ac22dd4bba97f16ecc71fff4258ae0ceb4c649dba16ed12e4bf7fa",
      "blockNumber": 59401,
      "transactionIndex": 2,
      "confirmations": null,
      "from": "0xf79785E5a846aCea08F94379fCCe79B1054bDB99",
      "gasPrice": {
        "_hex": "0xd1ef74c01"
      },
      "gasLimit": {
        "_hex": "0x5208"
      },
      "to": "0x32Be343B94f860124dC4fEe278FDCBD38C102D88",
      "value": {
        "_hex": "0xd0268031b60be000"
      },
      "nonce": 1,
      "data": "0x",
      "r": "0x022a9120a372d5a8cf0bf3ee77eb171d6d6c50764f61823dd0796553c2380179",
      "s": "0x469b0c7e9f2c416b1cf975c5594f5aa3a84127f96aa20c8cceeab9009357648d",
      "v": 28,
      "creates": null,
      "raw": "0xf86c01850d1ef74c018252089432be343b94f860124dc4fee278fdcbd38c102d8888d0268031b60be000801ca0022a9120a372d5a8cf0bf3ee77eb171d6d6c50764f61823dd0796553c2380179a0469b0c7e9f2c416b1cf975c5594f5aa3a84127f96aa20c8cceeab9009357648d",
      "networkId": 0,
      "chainId": 0
    }
  ]
}