{
  "hash": "0x3328775e0dee4704c4df1bb0bf18fd584a1deee795073ce7eb812c586c214b9c",
  "parentHash": "0x6fc30cabbaddf560f3e5afc7401b5a3fad0bd9a85cf104bfc1e1e3b4e342d77a",
  "number": 54248,
  "timestamp": 1439051179,
  "nonce": "0x8b69bc7b428167fd",
  "difficulty": 1603975459244,
  "gasLimit": {
    "_hex": "0x2fefd8"
  },
  "gasUsed": {
    "_hex": "0xa410"
  },
  "miner": "0x0338116f55fEd2F5ee9391C8624612Dc9744D149",
  "extraData": "0x476574682f76312e302e312f6c696e75782f676f312e342e32",
  "transactions": [
    {
      "hash": "0xab9e335280c7a9ab0b729606ea64884016a09d0612c38b09db090301dda4f9d3",
      "blockHash": "0x3328775e0dee4704c4df1bb0bf18fd584a1deee795073ce7eb812c586c214b9c",
      "blockNumber": 54248,
      "transactionIndex": 0,
      "confirmations": null,
      "from": "0xCA092A957744f6385B1aee5dC694143E8A06F805",
      "gasPrice": {
        "_hex": "0xdc7926fc1"
      },
      "gasLimit": {
        "_hex": "0x15f90"
      },
      "to": "0x3042703b60A86b8252Df4790275aAc80fB2D0530",
      "value": {
        "_hex": "0x285a20474b59800"
      },
      "nonce": 14,
      "data": "0x",
      "r": "0xa2bb9336971fbf73f828ca1cfe7c14b270ba6ce9f90430935a39915eb431ac82",
      "s": "0x760e68f39c05a83c4b5b74a3f7c5176fa70e97c7955629747edf16a9631dccfe",
      "v": 28,
      "creates": null,
      "raw": "0xf86d0e850dc7926fc183015f90943042703b60a86b8252df4790275aac80fb2d0530880285a20474b59800801ca0a2bb9336971fbf73f828ca1cfe7c14b270ba6ce9f90430935a39915eb431ac82a0760e68f39c05a83c4b5b74a3f7c5176fa70e97c7955629747edf16a9631dccfe",
      "networkId": 0,
      "chainId": 0
    },
    {
      "hash": "0x71c454e2851847f71ecbb6bc5799af5346a15a7c0d0c3bc09986785621bc72e9",
      "blockHash": "0x3328775e0dee4704c4df1bb0bf18fd584a1deee795073ce7eb812c586c214b9c",
      "blockNumber": 54248,
      "transactionIndex": 1,
      "confirmations": null,
      "from": "0xF9B37825F03073d31E249378C30c795C33F83aF2",
      "gasPrice": {
        "_hex": "0xda22414c6"
      },
      "gasLimit": {
        "_hex": "0x15f90"
      },
      "to": "0x88c7F66b99e7f9235A092a57AfAB243B0F9A6364",
      "value": {
        "_hex": "0x1"
      },
      "nonce": 0,
      "data": "0x",
      "r": "0x47f0cc5745cd51d3e3e6e48b5d25a1e383a33380d47de2a77ec0e68ba0afe692",
      "s": "0x219ac27f26fb655d4135310ee59a997020183418d4ef166e4c7510c47d187bbd",
      "v": 28,
      "creates": null,
      "raw": "0xf86580850da22414c683015f909488c7f66b99e7f9235a092a57afab243b0f9a636401801ca047f0cc5745cd51d3e3e6e48b5d25a1e383a33380d47de2a77ec0e68ba0afe692a0219ac27f26fb655d4135310ee59a997020183418d4ef166e4c7510c47d187bbd",
      "networkId": 0,
      "chainId": 0
    }
  ]
}