{
  "hash": "0xe70d54aaf78803db87bfc90f13c0cb7f9b2fdec400e58fd4e785f23430ae64dd",
  "parentHash": "0x4c8bf6f9cc9861cb515e20765c977a2bc26b48146b4303dbfa52409c96bccfb8",
  "number": 46343,
  "timestamp": 1438921572,
  "nonce": "0xfef71759f365ea5d",
  "difficulty": 1462527104651,
  "gasLimit": {
    "_hex": "0x5bcd"
  },
  "gasUsed": {
    "_hex": "0x5208"
  },
  "miner": "0x9746c7e1ef2bd21FF3997fa467593a89cb852BD0",
  "extraData": "0x476574682f76312e302e312f77696e646f77732f676f312e342e32",
  "transactions": [
    {
      "hash": "0xa95aba36e952abf414b57ee7a57df88f328d2ef2469eb2aaf6c61d67aaec6735",
      "blockHash": "0xe70d54aaf78803db87bfc90f13c0cb7f9b2fdec400e58fd4e785f23430ae64dd",
      "blockNumber": 46343,
      "transactionIndex": 0,
      "confirmations": null,
      "from": "0xBD744E3F13D79B33F6c8E1d5E32F8E9BA2866c46",
      "gasPrice": {
        "_hex": "0x6308544094"
      },
      "gasLimit": {
        "_hex": "0x5208"
      },
      "to": "0xD2e57181beE0BF25a2E7D377EaCCec854Bd65334",
      "value": {
        "_hex": "0x54915956c4096000"
      },
      "nonce": 1,
      "data": "0x",
      "r": "0x820d2048e91ead25d5d5550a33e3d5ee262cb84fb8aebd82ba90d14c2074af9d",
      "s": "0x0bdcf7f2744bc088acd2afeca29cac2d250fc053966b9fab0266a3fc64265592",
      "v": 28,
      "creates": null,
      "raw": "0xf86c0185630854409482520894d2e57181bee0bf25a2e7d377eaccec854bd653348854915956c4096000801ca0820d2048e91ead25d5d5550a33e3d5ee262cb84fb8aebd82ba90d14c2074af9da00bdcf7f2744bc088acd2afeca29cac2d250fc053966b9fab0266a3fc64265592",
      "networkId": 0,
      "chainId": 0
    }
  ]
}