{
  "hash": "0x24d2983e95fb7e1be1d6713f47fac6af222a653152f10777e3917f0eeca2f60e",
  "parentHash": "0xa048d85a4cc9118ac05ae1cc0e4a8ff3c230d00a554d11c9383cd5f041c021ba",
  "number": 90647,
  "timestamp": 1439643337,
  "nonce": "0xfbf95fc3e3c295b1",
  "difficulty": 3339894224629,
  "gasLimit": {
    "_hex": "0x2fefd8"
  },
  "gasUsed": {
    "_hex": "0x5208"
  },
  "miner": "0x123843545FB525C8E134c9A5F15ADA6865cc3848",
  "extraData": "0x476574682f76312e302e312f77696e646f77732f676f312e342e32",
  "transactions": [
    {
      "hash": "0x0e962c3c9cd9ed0693cefbfa7f64c99d4eef10110564205a2411952ac371b5bf",
      "blockHash": "0x24d2983e95fb7e1be1d6713f47fac6af222a653152f10777e3917f0eeca2f60e",
      "blockNumber": 90647,
      "transactionIndex": 0,
      "confirmations": null,
      "from": "0x513cc87Fc09c7Dedae9A780a66dc47ebeE4B5C5A",
      "gasPrice": {
        "_hex": "0xd7d40ace3"
      },
      "gasLimit": {
        "_hex": "0x5208"
      },
      "to": "0x5e1E5C470DFbE20120224C1358Bb193e5837C840",
      "value": {
        "_hex": "0x3e73362871420000"
      },
      "nonce": 1,
      "data": "0x",
      "r": "0x8f325399b5e037891c16ab774c4722a6b85e20e11bc9563abbcf7a9d29012ad4",
      "s": "0x5f657d7fc80d5de7c4f48e6fe03b32786505ab89f7af297d911cf01eb77ef3e5",
      "v": 27,
      "creates": null,
      "raw": "0xf86c01850d7d40ace3825208945e1e5c470dfbe20120224c1358bb193e5837c840883e73362871420000801ba08f325399b5e037891c16ab774c4722a6b85e20e11bc9563abbcf7a9d29012ad4a05f657d7fc80d5de7c4f48e6fe03b32786505ab89f7af297d911cf01eb77ef3e5",
      "networkId": 0,
      "chainId": 0
    }
  ]
}