{
  "hash": "0xd838230bc168113c5cdc2ab600f5563b472a36ef5750096c1e7da12b3762116d",
  "parentHash": "0xa1714e64c0756f1cd6f3f8f43074caf8fb5e3d5f101f1afbe922bc9af78fa3a3",
  "number": 89737,
  "timestamp": 1439628349,
  "nonce": "0x38579d646a1c95fc",
  "difficulty": 3336996180257,
  "gasLimit": {
    "_hex": "0x2fefd8"
  },
  "gasUsed": {
    "_hex": "0x5208"
  },
  "miner": "0xe6A7a1d47ff21B6321162AEA7C6CB457D5476Bca",
  "extraData": "0x476574682f76312e302e312d38326566323666362f6c696e75782f676f312e34",
  "transactions": [
    {
      "hash": "0x6e0d1cb8373cf67d51689ebd783c8da277d644177efc2e5a5e9b42800040f54d",
      "blockHash": "0xd838230bc168113c5cdc2ab600f5563b472a36ef5750096c1e7da12b3762116d",
      "blockNumber": 89737,
      "transactionIndex": 0,
      "confirmations": null,
      "from": "0xf01CD4c66F3633880Cbd076A2105f9c1400dD7c7",
      "gasPrice": {
        "_hex": "0xd69647be3"
      },
      "gasLimit": {
        "_hex": "0x15f90"
      },
      "to": "0xf2cC0eEAAAeD313542CB262B0B8c3972425143f0",
      "value": {
        "_hex": "0x45400a8fd5330000"
      },
      "nonce": 0,
      "data": "0x",
      "r": "0xbe9a2465a5622e600dd0613ac7cea673c648db466c921d94498747a3f3942440",
      "s": "0x285a33fb33f1a7c5f853e1501914b59ff516aade446605d1a6fa094315b76efa",
      "v": 28,
      "creates": null,
      "raw": "0xf86d80850d69647be383015f9094f2cc0eeaaaed313542cb262b0b8c3972425143f08845400a8fd5330000801ca0be9a2465a5622e600dd0613ac7cea673c648db466c921d94498747a3f3942440a0285a33fb33f1a7c5f853e1501914b59ff516aade446605d1a6fa094315b76efa",
      "networkId": 0,
      "chainId": 0
    }
  ]
}