{
  "hash": "0x852d04fdbca76fe316e7e8f2ae3f829de79db4b4c5e7d4cb9c930e0fc93882b1",
  "parentHash": "0x945d9b54bef96094bdab9179b5a9be63fa74ab197598dedfcd98c04fc7c9f21b",
  "number": 115033,
  "timestamp": 1440050551,
  "nonce": "0x1cebff42cb4d465b",
  "difficulty": 4503207567048,
  "gasLimit": {
    "_hex": "0x2fefd8"
  },
  "gasUsed": {
    "_hex": "0x5208"
  },
  "miner": "0xbb7B8287f3F0a933474a79eAe42CBCa977791171",
  "extraData": "0x476574682f4c5649562f76312e302e312f6c696e75782f676f312e342e32",
  "transactions": [
    {
      "hash": "0x0619d7e1f2fbe90352287048bbbe0062732458149d9130cf4a29b9e5d80ccd5b",
      "blockHash": "0x852d04fdbca76fe316e7e8f2ae3f829de79db4b4c5e7d4cb9c930e0fc93882b1",
      "blockNumber": 115033,
      "transactionIndex": 0,
      "confirmations": null,
      "from": "0xc597A5d92F5dC1137D847db733cfe02c6d209f13",
      "gasPrice": {
        "_hex": "0xba43b7400"
      },
      "gasLimit": {
        "_hex": "0x15f90"
      },
      "to": "0x5C25B164004F8324a8f381540901872d4ec143cb",
      "value": {
        "_hex": "0x2386f26fc10000"
      },
      "nonce": 50,
      "data": "0x",
      "r": "0xba30da99a6a2246de31b32b4ad4ccbb1897cee2a50e4af4f1206d6c87f22f80c",
      "s": "0x63f7ed44606b1ae2c9615f4015aed0d1ddad13cb3e3e93a9389e0e6cc3b2c0fb",
      "v": 28,
      "creates": null,
      "raw": "0xf86c32850ba43b740083015f90945c25b164004f8324a8f381540901872d4ec143cb872386f26fc10000801ca0ba30da99a6a2246de31b32b4ad4ccbb1897cee2a50e4af4f1206d6c87f22f80ca063f7ed44606b1ae2c9615f4015aed0d1ddad13cb3e3e93a9389e0e6cc3b2c0fb",
      "networkId": 0,
      "chainId": 0
    }
  ]
}