{
  "hash": "0x6114bfecd7ce846c39cb03d30cf3e3b4f27030df60e30b3ef673b9b841db138c",
  "parentHash": "0x76d3899a19e084bf9c34405bdfd09e54d1c7a037aabe5f29d7e5a3afd2f02955",
  "number": 62178,
  "timestamp": 1439184469,
  "nonce": "0xfbf8e290c6b6ffc4",
  "difficulty": 1772030076564,
  "gasLimit": {
    "_hex": "0x2fefd8"
  },
  "gasUsed": {
    "_hex": "0x546c"
  },
  "miner": "0xF2d2AfF1320476cb8C6b607199D23175cc595693",
  "extraData": "0x476574682f76312e302e312f77696e646f77732f676f312e342e32",
  "transactions": [
    {
      "hash": "0xe31becbbe8dd1bcd368e163ee6de6e55b6a534449b70c2c98c71c98c95332a49",
      "blockHash": "0x6114bfecd7ce846c39cb03d30cf3e3b4f27030df60e30b3ef673b9b841db138c",
      "blockNumber": 62178,
      "transactionIndex": 0,
      "confirmations": null,
      "from": "0xb4413576869c08f9512ad311fe925988A52d3414",
      "gasPrice": {
        "_hex": "0x110c8f7d8de"
      },
      "gasLimit": {
        "_hex": "0xc350"
      },
      "to": "0x2910543Af39abA0Cd09dBb2D50200b3E800A63D2",
      "value": {
        "_hex": "0x3afb087b8769000000"
      },
      "nonce": 1,
      "data": "0x454e3646314e583447",
      "r": "0x2156f8ea9e5a252df9a2d9736dc7044703d69da77d0345ca7d4925130ea21d89",
      "s": "0x0e9a1ae2f9944218d317c7d8407946044f3ac8877cc5ecfa583e421ad6d3fa8e",
      "v": 28,
      "creates": null,
      "raw": "0xf87701860110c8f7d8de82c350942910543af39aba0cd09dbb2d50200b3e800a63d2893afb087b876900000089454e3646314e5834471ca02156f8ea9e5a252df9a2d9736dc7044703d69da77d0345ca7d4925130ea21d89a00e9a1ae2f9944218d317c7d8407946044f3ac8877cc5ecfa583e421ad6d3fa8e",
      "networkId": 0,
      "chainId": 0
    }
  ]
}