{
  "hash": "0x330b72452d7d7965d0a69ea43147bfa4b3b73b7cb63a7de9948e367bbb47d847",
  "parentHash": "0x4f53e02804217335d368a6132d3d3f8e262a4d7d8caef12cd3e845a918f3d5cd",
  "number": 113665,
  "timestamp": 1440027461,
  "nonce": "0x56619094d0e4e137",
  "difficulty": 4451469484652,
  "gasLimit": {
    "_hex": "0x2fefd8"
  },
  "gasUsed": {
    "_hex": "0x5208"
  },
  "miner": "0x580992B51e3925e23280EfB93d3047C82f17E038",
  "extraData": "0x476574682f76312e302e312f6c696e75782f676f312e342e32",
  "transactions": [
    {
      "hash": "0x56c6b45a6c3965fd5c558d2c9d38eaa6eed6fdcca49716fa854c9832083b9b38",
      "blockHash": "0x330b72452d7d7965d0a69ea43147bfa4b3b73b7cb63a7de9948e367bbb47d847",
      "blockNumber": 113665,
      "transactionIndex": 0,
      "confirmations": null,
      "from": "0x0311234f736B0D56F1746250780a021BA61b9B4b",
      "gasPrice": {
        "_hex": "0xce5d5cd1f"
      },
      "gasLimit": {
        "_hex": "0x15f90"
      },
      "to": "0xD9BeAC908e0FADE105100Ae3c79b02226930c849",
      "value": {
        "_hex": "0xa11599cdc6e80"
      },
      "nonce": 1,
      "data": "0x",
      "r": "0x053b473a66a316a69fae14a01bbcd88dffb1d2ebe453a0b90556b1a0b1852721",
      "s": "0x753563eaeb4baa155bcdafac3eae23d135b4bb7a04b3729f8c5753569ffa1447",
      "v": 28,
      "creates": null,
      "raw": "0xf86c01850ce5d5cd1f83015f9094d9beac908e0fade105100ae3c79b02226930c849870a11599cdc6e80801ca0053b473a66a316a69fae14a01bbcd88dffb1d2ebe453a0b90556b1a0b1852721a0753563eaeb4baa155bcdafac3eae23d135b4bb7a04b3729f8c5753569ffa1447",
      "networkId": 0,
      "chainId": 0
    }
  ]
}