{
  "hash": "0x8ea9e478c4e4c3ccb81b31f11d4c03eb6f073193f2de18e52402d337cb8608a8",
  "parentHash": "0x4c83b8a0756838084be1e9605aaca7dde69dcb0a3037b3a626636d7d5b268e2e",
  "number": 108380,
  "timestamp": 1439939318,
  "nonce": "0x092d3e8d852f48da",
  "difficulty": 4340481886936,
  "gasLimit": {
    "_hex": "0x2fefd8"
  },
  "gasUsed": {
    "_hex": "0x5208"
  },
  "miner": "0x53824166ea5271d3425e3194c848A90CA4e97eB2",
  "extraData": "0x476574682f76312e302e312f6c696e75782f676f312e342e32",
  "transactions": [
    {
      "hash": "0x1652c3b47095fec64c4bc5dbb1211b2f36941133ae437d251568858d7de9a634",
      "blockHash": "0x8ea9e478c4e4c3ccb81b31f11d4c03eb6f073193f2de18e52402d337cb8608a8",
      "blockNumber": 108380,
      "transactionIndex": 0,
      "confirmations": null,
      "from": "0xf2711F78854D3b5CE29fA3c550a9328D7df40706",
      "gasPrice": {
        "_hex": "0xccb665677"
      },
      "gasLimit": {
        "_hex": "0x5208"
      },
      "to": "0xFBb1b73C4f0BDa4f67dcA266ce6Ef42f520fBB98",
      "value": {
        "_hex": "0x3471286be0152e48"
      },
      "nonce": 1,
      "data": "0x",
      "r": "0x6fec79cbff7f6e627a5db2aa680197d317faf4d090a9994888596301e550d4c3",
      "s": "0x606eee21ac0ccd69ea1070bdcbd5f73a61d5e1491a84d9b9210cceb9a692eded",
      "v": 27,
      "creates": null,
      "raw": "0xf86c01850ccb66567782520894fbb1b73c4f0bda4f67dca266ce6ef42f520fbb98883471286be0152e48801ba06fec79cbff7f6e627a5db2aa680197d317faf4d090a9994888596301e550d4c3a0606eee21ac0ccd69ea1070bdcbd5f73a61d5e1491a84d9b9210cceb9a692eded",
      "networkId": 0,
      "chainId": 0
    }
  ]
}