{
  "hash": "0xf2d29213df2c2b34686926852ea392a2009d6bf1e4731ed3eb404443c076ee9b",
  "parentHash": "0xd70531732cd10c9250fd2b45f447c34e8b7820d99e83de79c061ee20a1c52f7c",
  "number": 98275,
  "timestamp": 1439769957,
  "nonce": "0x262bea9dc17d7cb6",
  "difficulty": 3878391266220,
  "gasLimit": {
    "_hex": "0x2fefd8"
  },
  "gasUsed": {
    "_hex": "0x5208"
  },
  "miner": "0x007f7f58D3eb5b7510A301eCC749FC1fCDDBE14D",
  "extraData": "0x476574682f76312e302e312f77696e646f77732f676f312e342e32",
  "transactions": [
    {
      "hash": "0x180b9fbcc7953e50efd213efa16abe0a1a997e91b5ec73da41b0f70d2859f613",
      "blockHash": "0xf2d29213df2c2b34686926852ea392a2009d6bf1e4731ed3eb404443c076ee9b",
      "blockNumber": 98275,
      "transactionIndex": 0,
      "confirmations": null,
      "from": "0xafa4dbAdd4e76B6C5946DFB726E5095516A96144",
      "gasPrice": {
        "_hex": "0x10aab9aa07b"
      },
      "gasLimit": {
        "_hex": "0x15f90"
      },
      "to": "0x528419cd4425d074D168Ae82CdFc335076b09B2F",
      "value": {
        "_hex": "0x1d03645c638d10000"
      },
      "nonce": 1,
      "data": "0x",
      "r": "0x7cf0fda90529160de60f866b2ea4850fbaf3e291b89584c4c7b4a8ceb1bbd2d2",
      "s": "0x14d9e56eb6a55bc425fe13f083c5d50a2d24b4cf46d77fb40c077398f1d3cac3",
      "v": 27,
      "creates": null,
      "raw": "0xf86f0186010aab9aa07b83015f9094528419cd4425d074d168ae82cdfc335076b09b2f8901d03645c638d10000801ba07cf0fda90529160de60f866b2ea4850fbaf3e291b89584c4c7b4a8ceb1bbd2d2a014d9e56eb6a55bc425fe13f083c5d50a2d24b4cf46d77fb40c077398f1d3cac3",
      "networkId": 0,
      "chainId": 0
    }
  ]
}