{
  "hash": "0x6eb9229229cac12e68d6d1299877560f77d84e1a3f24f8f94fecd2a2472ef46c",
  "parentHash": "0xd427c156c0b80c743654af2a3d651fa4762d734cbad61dbb21b360f7f075b56f",
  "number": 95219,
  "timestamp": 1439720754,
  "nonce": "0x91d1399c50e267a4",
  "difficulty": 3546428327393,
  "gasLimit": {
    "_hex": "0x2fefd8"
  },
  "gasUsed": {
    "_hex": "0x546c"
  },
  "miner": "0xa50ec0D39fa913E62f1Bae7074E6F36caA71855b",
  "extraData": "0xd783010001844765746887676f312e342e32856c696e7578",
  "transactions": [
    {
      "hash": "0xb5bc78e53d985368c2de4269809c0a323b591a3292912764ba1aa6efadd5cffe",
      "blockHash": "0x6eb9229229cac12e68d6d1299877560f77d84e1a3f24f8f94fecd2a2472ef46c",
      "blockNumber": 95219,
      "transactionIndex": 0,
      "confirmations": null,
      "from": "0x26E3f7C9e444f2Ca9E0BE2aF841bd060cF1CbDDb",
      "gasPrice": {
        "_hex": "0xcf2a6bc57"
      },
      "gasLimit": {
        "_hex": "0x55f0"
      },
      "to": "0x2910543Af39abA0Cd09dBb2D50200b3E800A63D2",
      "value": {
        "_hex": "0x5b1dc926bd6c90000"
      },
      "nonce": 4,
      "data": "0x454e423451384a3252",
      "r": "0xb4fbebbafe28ab39913d149ca86aace6d1836efd2b3ae5ef144ac0e2d12f8d48",
      "s": "0x73cbd9ed1307654999ad60da8c3936b70fe2bfc6026354c088594f40d4ac97da",
      "v": 28,
      "creates": null,
      "raw": "0xf87604850cf2a6bc578255f0942910543af39aba0cd09dbb2d50200b3e800a63d28905b1dc926bd6c9000089454e423451384a32521ca0b4fbebbafe28ab39913d149ca86aace6d1836efd2b3ae5ef144ac0e2d12f8d48a073cbd9ed1307654999ad60da8c3936b70fe2bfc6026354c088594f40d4ac97da",
      "networkId": 0,
      "chainId": 0
    }
  ]
}