{
  "hash": "0xac63d3d3b5ef436cfe67e8148c7a7181590dfdb50f5c593ffd16f420b2ae997a",
  "parentHash": "0xa11e5d8a76f1eadce35252f3284f40e5431539cfb4375d9f421ac4d08e161d2b",
  "number": 68519,
  "timestamp": 1439289372,
  "nonce": "0xacd2256639fdf488",
  "difficulty": 2001563294556,
  "gasLimit": {
    "_hex": "0x2fefd8"
  },
  "gasUsed": {
    "_hex": "0xa410"
  },
  "miner": "0xe6A7a1d47ff21B6321162AEA7C6CB457D5476Bca",
  "extraData": "0x476574682f76312e302e312d38326566323666362f6c696e75782f676f312e34",
  "transactions": [
    {
      "hash": "0xf21a00a35f1f09dfc1d9dff7476d1f1fdf7f956503be889c9dd69febcd350fde",
      "blockHash": "0xac63d3d3b5ef436cfe67e8148c7a7181590dfdb50f5c593ffd16f420b2ae997a",
      "blockNumber": 68519,
      "transactionIndex": 0,
      "confirmations": null,
      "from": "0x32Be343B94f860124dC4fEe278FDCBD38C102D88",
      "gasPrice": {
        "_hex": "0xd43623a71"
      },
      "gasLimit": {
        "_hex": "0x5208"
      },
      "to": "0xF32124626031dC61D64D3bC92A7Dece6A4B46a37",
      "value": {
        "_hex": "0x146fbb51a47f690000"
      },
      "nonce": 226,
      "data": "0x",
      "r": "0x83f5b9c931b02236e264a5b0392117a2ebbaa10fa5acd75fddf0f2751932c892",
      "s": "0x1af68de2b3e6820e365963f994387380a2847e5bd8cccd20146d97bf143030db",
      "v": 27,
      "creates": null,
      "raw": "0xf86e81e2850d43623a7182520894f32124626031dc61d64d3bc92a7dece6a4b46a3789146fbb51a47f690000801ba083f5b9c931b02236e264a5b0392117a2ebbaa10fa5acd75fddf0f2751932c892a01af68de2b3e6820e365963f994387380a2847e5bd8cccd20146d97bf143030db",
      "networkId": 0,
      "chainId": 0
    },
    {
      "hash": "0x119f4566e667346bcaf9bc08ed58095acaf39eba445a6d78ebbd57468c288edd",
      "blockHash": "0xac63d3d3b5ef436cfe67e8148c7a7181590dfdb50f5c593ffd16f420b2ae997a",
      "blockNumber": 68519,
      "transactionIndex": 1,
      "confirmations": null,
      "from": "0x6747f922385c9a6F9cfDf095F34345257DD597bE",
      "gasPrice": {
        "_hex": "0xba43b7400"
      },
      "gasLimit": {
        "_hex": "0x5208"
      },
      "to": "0x831E01aEaFd16A550cc48496451c853EF83ced06",
      "value": {
        "_hex": "0x1fcbfa42bd6000"
      },
      "nonce": 122,
      "data": "0x",
      "r": "0x039e581c5c4d12f18c8d13d9bdf00de3cc9e0064c74b44d6354b8032dd16c820",
      "s": "0x0f9a4ab2bcba28c7ca45f1aaa91199048ee145d1577a2218350a795ac579dd1f",
      "v": 27,
      "creates": null,
      "raw": "0xf86b7a850ba43b740082520894831e01aeafd16a550cc48496451c853ef83ced06871fcbfa42bd6000801ba0039e581c5c4d12f18c8d13d9bdf00de3cc9e0064c74b44d6354b8032dd16c820a00f9a4ab2bcba28c7ca45f1aaa91199048ee145d1577a2218350a795ac579dd1f",
      "networkId": 0,
      "chainId": 0
    }
  ]
}