{
  "hash": "0x2e012bb2f56905020cabed7cd9e9acabb3bb7a6352f84cc930b21eb6eae01528",
  "parentHash": "0x40838b115cd892a8f1c60dc3fa744be293a0ac1345d9f356079cfa1881c0a429",
  "number": 69244,
  "timestamp": 1439300515,
  "nonce": "0x67b0eb5e88b632cf",
  "difficulty": 2065929775421,
  "gasLimit": {
    "_hex": "0x2fefd8"
  },
  "gasUsed": {
    "_hex": "0x53e4"
  },
  "miner": "0x88D74a59454F6cF3B51ef6b9136AFb6b9D405A88",
  "extraData": "0x476574682f76312e302e312d37666266393930632f6c696e75782f676f312e34",
  "transactions": [
    {
      "hash": "0x171e251878e78732077558d6acdc3f2e914f905249f9c6ab128f700c0c1f5f73",
      "blockHash": "0x2e012bb2f56905020cabed7cd9e9acabb3bb7a6352f84cc930b21eb6eae01528",
      "blockNumber": 69244,
      "transactionIndex": 0,
      "confirmations": null,
      "from": "0x0a3DE155d5Ecd8E81C1Ff9BBF0378301f8d4C623",
      "gasPrice": {
        "_hex": "0xddf77f773"
      },
      "gasLimit": {
        "_hex": "0x55f0"
      },
      "to": "0xB2423E4Aeca605283fA6a9CAab01325d1C71CA7D",
      "value": {
        "_hex": "0x16345785d8a0000"
      },
      "nonce": 6,
      "data": "0x676f617447656e",
      "r": "0xb4ecd0082ddff1b3c79cc103398a0838bd338e3cb7df56be7ece24d2b599586d",
      "s": "0x765cabacd32c3e0b7d2d96559c8e0d780ca006792fe8769eabdab3689a35980e",
      "v": 27,
      "creates": null,
      "raw": "0xf87306850ddf77f7738255f094b2423e4aeca605283fa6a9caab01325d1c71ca7d88016345785d8a000087676f617447656e1ba0b4ecd0082ddff1b3c79cc103398a0838bd338e3cb7df56be7ece24d2b599586da0765cabacd32c3e0b7d2d96559c8e0d780ca006792fe8769eabdab3689a35980e",
      "networkId": 0,
      "chainId": 0
    }
  ]
}