{
  "hash": "0xea25c533c113ded671b43fc4766540cdd8f489206281a33187a161e6e4f9da90",
  "parentHash": "0xb843842e2feb79700f0a7f66e9eb9765d3d803f434cbc35167cd9b2e2574eec2",
  "number": 107068,
  "timestamp": 1439915350,
  "nonce": "0xabacca20d2e74c5a",
  "difficulty": 4465861287022,
  "gasLimit": {
    "_hex": "0x2fefd8"
  },
  "gasUsed": {
    "_hex": "0xf618"
  },
  "miner": "0xe6A7a1d47ff21B6321162AEA7C6CB457D5476Bca",
  "extraData": "0x476574682f76312e302e312d38326566323666362f6c696e75782f676f312e34",
  "transactions": [
    {
      "hash": "0xdf8b14f75437cabd98d00510911f0a1bcf4692165962a6ed3e3342e3b9d3d908",
      "blockHash": "0xea25c533c113ded671b43fc4766540cdd8f489206281a33187a161e6e4f9da90",
      "blockNumber": 107068,
      "transactionIndex": 0,
      "confirmations": null,
      "from": "0xE3A4CD0E7193d90A4e94EAb73d2a546a34130170",
      "gasPrice": {
        "_hex": "0xdef748fd3"
      },
      "gasLimit": {
        "_hex": "0x5208"
      },
      "to": "0x32Be343B94f860124dC4fEe278FDCBD38C102D88",
      "value": {
        "_hex": "0x1e59107e4f73d0000"
      },
      "nonce": 3,
      "data": "0x",
      "r": "0xaa6276d4f2039ac1b64256b79ffa113edda110e7375b3d929e5b1b5c455b4bbc",
      "s": "0x131eca450a09c40d704293d5b8d78143d3f4fc7422354ae78b0f141d6444ee08",
      "v": 28,
      "creates": null,
      "raw": "0xf86d03850def748fd38252089432be343b94f860124dc4fee278fdcbd38c102d888901e59107e4f73d0000801ca0aa6276d4f2039ac1b64256b79ffa113edda110e7375b3d929e5b1b5c455b4bbca0131eca450a09c40d704293d5b8d78143d3f4fc7422354ae78b0f141d6444ee08",
      "networkId": 0,
      "chainId": 0
    },
    {
      "hash": "0x53d152b21bf84e960dee8f13375782cb85981486917faf21b710e331a62ad1b5",
      "blockHash": "0xea25c533c113ded671b43fc4766540cdd8f489206281a33187a161e6e4f9da90",
      "blockNumber": 107068,
      "transactionIndex": 1,
      "confirmations": null,
      "from": "0x4c225a03584D0D8E46DBa7F48ea5dBd7642011DB",
      "gasPrice": {
        "_hex": "0xd829211eb"
      },
      "gasLimit": {
        "_hex": "0x55f0"
      },
      "to": "0x415655297A0F299D13ACcE68195890200c5d4A8B",
      "value": {
        "_hex": "0x4563918244f40000"
      },
      "nonce": 0,
      "data": "0x",
      "r": "0x92111d992e0f1412952d258d230e6fd39ec9296cd780a9af86b90fb6ee5ad3c4",
      "s": "0x7e9af986e74894494540a874513288f9a0c552e61c0ef8650a1cde4366f4c610",
      "v": 27,
      "creates": null,
      "raw": "0xf86c80850d829211eb8255f094415655297a0f299d13acce68195890200c5d4a8b884563918244f40000801ba092111d992e0f1412952d258d230e6fd39ec9296cd780a9af86b90fb6ee5ad3c4a07e9af986e74894494540a874513288f9a0c552e61c0ef8650a1cde4366f4c610",
      "networkId": 0,
      "chainId": 0
    },
    {
      "hash": "0x57311d092820bc1f26215e92ecf000e751fd8a5478e3194c7aec2c0a8b14f09a",
      "blockHash": "0xea25c533c113ded671b43fc4766540cdd8f489206281a33187a161e6e4f9da90",
      "blockNumber": 107068,
      "transactionIndex": 2,
      "confirmations": null,
      "from": "0x790b8a3cE86E707ED0eD32bF89B3269692a23CC1",
      "gasPrice": {
        "_hex": "0xd6efe3879"
      },
      "gasLimit": {
        "_hex": "0x15f90"
      },
      "to": "0x4D67f4F0Db45b3B5a3424B39ed8d972F710381D5",
      "value": {
        "_hex": "0x315a56887e7ba0000"
      },
      "nonce": 38,
      "data": "0x",
      "r": "0x8520e2bfdafebda24b6e990892733cee55b193dc83eea56f2d33144182e4ea39",
      "s": "0x2f7436162bf3b8ca1d7ee6d9c6e350955bc73aee3cc58dace0474cbbb6540103",
      "v": 27,
      "creates": null,
      "raw": "0xf86e26850d6efe387983015f90944d67f4f0db45b3b5a3424b39ed8d972f710381d5890315a56887e7ba0000801ba08520e2bfdafebda24b6e990892733cee55b193dc83eea56f2d33144182e4ea39a02f7436162bf3b8ca1d7ee6d9c6e350955bc73aee3cc58dace0474cbbb6540103",
      "networkId": 0,
      "chainId": 0
    }
  ]
}