{
  "hash": "0xa9d3151b43b86bc15c4ff118d11db3982137604deb878047e475cbd836ed285a",
  "parentHash": "0x1220381fd7a24d7e2f41a58463902cc51a8a3724c9504ae76ff5b22ea1f5d4dd",
  "number": 50355,
  "timestamp": 1438987828,
  "nonce": "0xc9ecb73f9849e7d0",
  "difficulty": 1512656316767,
  "gasLimit": {
    "_hex": "0x5deb8"
  },
  "gasUsed": {
    "_hex": "0xa674"
  },
  "miner": "0xE81c9A6Ebe623E5d483110e0eaF2b10c769b1212",
  "extraData": "0x476574682f76312e302e312f6c696e75782f676f312e342e32",
  "transactions": [
    {
      "hash": "0x0f52fbf073530c57c1a5b47b8ccd7ab2e8ad71791a1d9a7db6cc686b68061675",
      "blockHash": "0xa9d3151b43b86bc15c4ff118d11db3982137604deb878047e475cbd836ed285a",
      "blockNumber": 50355,
      "transactionIndex": 0,
      "confirmations": null,
      "from": "0x6e5c2D9B1c546a86Eefd5d0A5120c9e4e730190e",
      "gasPrice": {
        "_hex": "0x110c8f7d8de"
      },
      "gasLimit": {
        "_hex": "0xc350"
      },
      "to": "0x2910543Af39abA0Cd09dBb2D50200b3E800A63D2",
      "value": {
        "_hex": "0xac9ae05a71ebc0000"
      },
      "nonce": 0,
      "data": "0x454e52575045483838",
      "r": "0x15282bbbb2e69cc27afd645783bc5998bdf46d56e8ea104eeaacf292a87a405e",
      "s": "0xdadc07ea1474884df2297ae52a28d5b436e4d085ff4274bd8f483b718a93c5b0",
      "v": 27,
      "creates": null,
      "raw": "0xf87780860110c8f7d8de82c350942910543af39aba0cd09dbb2d50200b3e800a63d2890ac9ae05a71ebc000089454e525750454838381ba015282bbbb2e69cc27afd645783bc5998bdf46d56e8ea104eeaacf292a87a405ea0dadc07ea1474884df2297ae52a28d5b436e4d085ff4274bd8f483b718a93c5b0",
      "networkId": 0,
      "chainId": 0
    },
    {
      "hash": "0x33116ad0ac39a2c44a9a647212dd8efcac4c75c993eaf62d46a87936a3590ff8",
      "blockHash": "0xa9d3151b43b86bc15c4ff118d11db3982137604deb878047e475cbd836ed285a",
      "blockNumber": 50355,
      "transactionIndex": 1,
      "confirmations": null,
      "from": "0xf64EE50154E0D74461966B4bB90139C010BCA68B",
      "gasPrice": {
        "_hex": "0xd651435ca"
      },
      "gasLimit": {
        "_hex": "0x15f90"
      },
      "to": "0xc97b6E47df229442524F8f210926557900f81574",
      "value": {
        "_hex": "0xde0b6b3a7640000"
      },
      "nonce": 0,
      "data": "0x",
      "r": "0x9646f0a66a73e87f8068d11e4738ebaee00231560deb6b12768f568c5d751469",
      "s": "0x5f363308c72f1aad731310eedea22a68e222626214888e9e4f68c9c6dc690dfa",
      "v": 27,
      "creates": null,
      "raw": "0xf86d80850d651435ca83015f9094c97b6e47df229442524f8f210926557900f81574880de0b6b3a7640000801ba09646f0a66a73e87f8068d11e4738ebaee00231560deb6b12768f568c5d751469a05f363308c72f1aad731310eedea22a68e222626214888e9e4f68c9c6dc690dfa",
      "networkId": 0,
      "chainId": 0
    }
  ]
}