{
  "hash": "0x99c00e945681b8ef18e7a254665d28e1a083afebaa4baeef36b1e0e54d2a72e8",
  "parentHash": "0x8cae8e8d93eaac95a139433a3389b277f763a5204f8f594130ae0fab390af8e2",
  "number": 77612,
  "timestamp": 1439440081,
  "nonce": "0x227989484b65308e",
  "difficulty": 2262294849681,
  "gasLimit": {
    "_hex": "0x2fe3de"
  },
  "gasUsed": {
    "_hex": "0x546c"
  },
  "miner": "0xF78645Ea06d743C6B52a11EB3f3d486bbb4Cf01F",
  "extraData": "0x476574682f76312e302e302f77696e646f77732f676f312e342e32",
  "transactions": [
    {
      "hash": "0x77820bb21eea129749a1c435da629d95dfb91c3b1a6efc25aa18896044f678b5",
      "blockHash": "0x99c00e945681b8ef18e7a254665d28e1a083afebaa4baeef36b1e0e54d2a72e8",
      "blockNumber": 77612,
      "transactionIndex": 0,
      "confirmations": null,
      "from": "0x211B29cefC79aE976744FDEbcebd3cbB32c51303",
      "gasPrice": {
        "_hex": "0x110c8f7d8de"
      },
      "gasLimit": {
        "_hex": "0xc350"
      },
      "to": "0x2910543Af39abA0Cd09dBb2D50200b3E800A63D2",
      "value": {
        "_hex": "0x3635c9adc5dea00000"
      },
      "nonce": 0,
      "data": "0x454e4e5a395a475052",
      "r": "0xa27db4fecc4bd8eb2d1616c55ff49bf39f0aaac326af5cd9c4642b7705014cef",
      "s": "0x4187569da72b27c7c7ffb385aef1838a184cdf4703d0f3524e654598c14501e2",
      "v": 28,
      "creates": null,
      "raw": "0xf87780860110c8f7d8de82c350942910543af39aba0cd09dbb2d50200b3e800a63d2893635c9adc5dea0000089454e4e5a395a4750521ca0a27db4fecc4bd8eb2d1616c55ff49bf39f0aaac326af5cd9c4642b7705014cefa04187569da72b27c7c7ffb385aef1838a184cdf4703d0f3524e654598c14501e2",
      "networkId": 0,
      "chainId": 0
    }
  ]
}