{
  "hash": "0x92d5db380289750ecd8b8b159c891ef2fd92fb05aff77e7c030c07cb06ae2a95",
  "parentHash": "0x5506bf00aad03325d2aea0b880d59c552f469b83426d85a1e7993d799c4aa72a",
  "number": 55321,
  "timestamp": 1439068713,
  "nonce": "0xd9f4cc168be50869",
  "difficulty": 1636200573916,
  "gasLimit": {
    "_hex": "0x2fefd5"
  },
  "gasUsed": {
    "_hex": "0x546c"
  },
  "miner": "0x785ffdDd5cE55c6DF963f345e68d3F2024E5Acb1",
  "extraData": "0x476574682f4d69676e6f7474652f76312e302e312f6c696e75782f676f312e34",
  "transactions": [
    {
      "hash": "0x6745aec3ca1abbbd100a17a1c2ed2455753bc163a212084518e7d2b9d734e9ca",
      "blockHash": "0x92d5db380289750ecd8b8b159c891ef2fd92fb05aff77e7c030c07cb06ae2a95",
      "blockNumber": 55321,
      "transactionIndex": 0,
      "confirmations": null,
      "from": "0x204F9117A8348a64a82C3B2324eA406D0867d6A8",
      "gasPrice": {
        "_hex": "0xd3a57fb48"
      },
      "gasLimit": {
        "_hex": "0x15f90"
      },
      "to": "0x2910543Af39abA0Cd09dBb2D50200b3E800A63D2",
      "value": {
        "_hex": "0x1bc16d674ec80000"
      },
      "nonce": 3,
      "data": "0x454e445041504a5947",
      "r": "0x371f1cc2cb1e6cd2630924db6b92b2ca1775aca97f51b67a1fc94185a5ff4ce5",
      "s": "0x09eac74fe1018d5b7fc6559c10aa0c1a9a1498a0358006f5976ff6b900adbcfe",
      "v": 27,
      "creates": null,
      "raw": "0xf87603850d3a57fb4883015f90942910543af39aba0cd09dbb2d50200b3e800a63d2881bc16d674ec8000089454e445041504a59471ba0371f1cc2cb1e6cd2630924db6b92b2ca1775aca97f51b67a1fc94185a5ff4ce5a009eac74fe1018d5b7fc6559c10aa0c1a9a1498a0358006f5976ff6b900adbcfe",
      "networkId": 0,
      "chainId": 0
    }
  ]
}