{
  "hash": "0xf29adcb957e435b47a9d412b49c2273e4086f88fe02c42926fc68d6f37167af9",
  "parentHash": "0xd0c78ff98fbe5c69f5aaa734f65ddd753ac67e7802c51920aaf103b0a0187658",
  "number": 49316,
  "timestamp": 1438971684,
  "nonce": "0x01ded5c78c33e21c",
  "difficulty": 1475635535117,
  "gasLimit": {
    "_hex": "0x2ca38"
  },
  "gasUsed": {
    "_hex": "0x546c"
  },
  "miner": "0xf927a40C8B7F6E07c5af7FA2155B4864a4112B13",
  "extraData": "0x476574682f76312e302e312f6c696e75782f676f312e342e32",
  "transactions": [
    {
      "hash": "0x4b3d9e1cf17863a676211766e2b8879c63dc7141489fe2cb542ff7dfca13b682",
      "blockHash": "0xf29adcb957e435b47a9d412b49c2273e4086f88fe02c42926fc68d6f37167af9",
      "blockNumber": 49316,
      "transactionIndex": 0,
      "confirmations": null,
      "from": "0x24B8B446debD1947955dd084F2C544933346d3ad",
      "gasPrice": {
        "_hex": "0xcff298751"
      },
      "gasLimit": {
        "_hex": "0x61a8"
      },
      "to": "0x2910543Af39abA0Cd09dBb2D50200b3E800A63D2",
      "value": {
        "_hex": "0xea59ad3bc3adac0000"
      },
      "nonce": 1,
      "data": "0x454e39473658393538",
      "r": "0x33b51b9603e91d1b515b5b2f7942d156245a48d261e3ec9b9e210c58fb121782",
      "s": "0x2f50989763aa16cc7adbf736e4795b496ef61e3a944e3da0236767f517ac5729",
      "v": 28,
      "creates": null,
      "raw": "0xf87601850cff2987518261a8942910543af39aba0cd09dbb2d50200b3e800a63d289ea59ad3bc3adac000089454e394736583935381ca033b51b9603e91d1b515b5b2f7942d156245a48d261e3ec9b9e210c58fb121782a02f50989763aa16cc7adbf736e4795b496ef61e3a944e3da0236767f517ac5729",
      "networkId": 0,
      "chainId": 0
    }
  ]
}