{
  "hash": "0x17a1fcfbb0089105e5e4d3b4f3bcb70261000c2f4e184679266dda4ef3ee4311",
  "parentHash": "0xcb5e8973833762a296d593999bac719e763c7f46c8d79128876898389be3433f",
  "number": 95054,
  "timestamp": 1439718252,
  "nonce": "0x2ecdcb90243bf8c3",
  "difficulty": 3500049344435,
  "gasLimit": {
    "_hex": "0x2fefd8"
  },
  "gasUsed": {
    "_hex": "0x5208"
  },
  "miner": "0xe6A7a1d47ff21B6321162AEA7C6CB457D5476Bca",
  "extraData": "0x476574682f76312e302e312d38326566323666362f6c696e75782f676f312e34",
  "transactions": [
    {
      "hash": "0x135d6580b3e549463a198b53ef6165b55585cb9698ebf28c69dc0a96a9ca6c16",
      "blockHash": "0x17a1fcfbb0089105e5e4d3b4f3bcb70261000c2f4e184679266dda4ef3ee4311",
      "blockNumber": 95054,
      "transactionIndex": 0,
      "confirmations": null,
      "from": "0x120A270bbC009644e35F0bB6ab13f95b8199c4ad",
      "gasPrice": {
        "_hex": "0xdfc139850"
      },
      "gasLimit": {
        "_hex": "0x3d090"
      },
      "to": "0xA69225e45053038b9B08790bE2646D358b79D4f4",
      "value": {
        "_hex": "0xbc77d34892061c000"
      },
      "nonce": 590,
      "data": "0x",
      "r": "0xf1e828c9a900aa997f1b48d1371881cd64abb2f0e29500524b9483d4ba720e5b",
      "s": "0x64fd48ecab23a20a5c8a2e81ea261f3ac8dc0d2205fa7eb5dcc235fba9f91fc6",
      "v": 28,
      "creates": null,
      "raw": "0xf87082024e850dfc1398508303d09094a69225e45053038b9b08790be2646d358b79d4f4890bc77d34892061c000801ca0f1e828c9a900aa997f1b48d1371881cd64abb2f0e29500524b9483d4ba720e5ba064fd48ecab23a20a5c8a2e81ea261f3ac8dc0d2205fa7eb5dcc235fba9f91fc6",
      "networkId": 0,
      "chainId": 0
    }
  ]
}