{
  "hash": "0x659eddda0eaf5514ee24fdbdbb61fa9715ed986241ebc0dfae0a37bbda1337b6",
  "parentHash": "0xb41a567b36932f3a3600742bfdf52203ee5b3a5ab430ddf8e443a810e7880798",
  "number": 103807,
  "timestamp": 1439859200,
  "nonce": "0x32fd0d1c87184f35",
  "difficulty": 4236037050254,
  "gasLimit": {
    "_hex": "0x2fefd8"
  },
  "gasUsed": {
    "_hex": "0x5208"
  },
  "miner": "0x580992B51e3925e23280EfB93d3047C82f17E038",
  "extraData": "0x476574682f76312e302e312f6c696e75782f676f312e342e32",
  "transactions": [
    {
      "hash": "0x443f1a4bc61876832d81aa841976c90bcde4a42ec2bc1d4e8afffd1dd2d4dd60",
      "blockHash": "0x659eddda0eaf5514ee24fdbdbb61fa9715ed986241ebc0dfae0a37bbda1337b6",
      "blockNumber": 103807,
      "transactionIndex": 0,
      "confirmations": null,
      "from": "0xa6BDc31c431B8F97848c9D60cbbe9660dc450eB7",
      "gasPrice": {
        "_hex": "0xe0733cbfa"
      },
      "gasLimit": {
        "_hex": "0x5208"
      },
      "to": "0x32Be343B94f860124dC4fEe278FDCBD38C102D88",
      "value": {
        "_hex": "0x455f12c2f81ac800"
      },
      "nonce": 163,
      "data": "0x",
      "r": "0x5f880a4cb914b2caadea1ca0a79aedccad466cce08bb4ec4ca862e1d9c726d34",
      "s": "0x7b5fc357f46be9b28916c33e266d340488382adc9c728351e64d4dc0235503db",
      "v": 27,
      "creates": null,
      "raw": "0xf86d81a3850e0733cbfa8252089432be343b94f860124dc4fee278fdcbd38c102d8888455f12c2f81ac800801ba05f880a4cb914b2caadea1ca0a79aedccad466cce08bb4ec4ca862e1d9c726d34a07b5fc357f46be9b28916c33e266d340488382adc9c728351e64d4dc0235503db",
      "networkId": 0,
      "chainId": 0
    }
  ]
}