{
  "hash": "0x80a35eb38e2775a7a3c2f8488f5447d3de0731171a9f096028c31ba2c30beebd",
  "parentHash": "0x735084d5598fa767836542a46d427e7c1e61bfd2d96aaf3a430ef06c8a7378e1",
  "number": 65162,
  "timestamp": 1439232264,
  "nonce": "0xfdb01893a1aae307",
  "difficulty": 1934136041596,
  "gasLimit": {
    "_hex": "0x2fefd8"
  },
  "gasUsed": {
    "_hex": "0xa410"
  },
  "miner": "0xf927a40C8B7F6E07c5af7FA2155B4864a4112B13",
  "extraData": "0x",
  "transactions": [
    {
      "hash": "0x447bc6a8d520fe1e20e618d5fd15cc70ab64a1916915a20aec3bf7ac216c32d6",
      "blockHash": "0x80a35eb38e2775a7a3c2f8488f5447d3de0731171a9f096028c31ba2c30beebd",
      "blockNumber": 65162,
      "transactionIndex": 0,
      "confirmations": null,
      "from": "0xF1B1Ad54f2924Fd3620ABb28b864683429DEBcBD",
      "gasPrice": {
        "_hex": "0xba43b7400"
      },
      "gasLimit": {
        "_hex": "0x5208"
      },
      "to": "0xBF194c8C2A83046FbDEE53bbf77451673923EA14",
      "value": {
        "_hex": "0x5ffba5d8069d000"
      },
      "nonce": 1,
      "data": "0x",
      "r": "0xd0df3b15c1040db615a2f768dbcf116ffc0f9f3ea31ef73404e8af010e6189be",
      "s": "0x55c7a4b0bd0b867f405edf13cfd0bc0062d4fc9ae75ebbc5b5c94f54d2d2cc33",
      "v": 27,
      "creates": null,
      "raw": "0xf86c01850ba43b740082520894bf194c8c2a83046fbdee53bbf77451673923ea148805ffba5d8069d000801ba0d0df3b15c1040db615a2f768dbcf116ffc0f9f3ea31ef73404e8af010e6189bea055c7a4b0bd0b867f405edf13cfd0bc0062d4fc9ae75ebbc5b5c94f54d2d2cc33",
      "networkId": 0,
      "chainId": 0
    },
    {
      "hash": "0x458a609dd02ab1a92b7587626f674778317e493e399c41e0eb52bc9f3ed17edf",
      "blockHash": "0x80a35eb38e2775a7a3c2f8488f5447d3de0731171a9f096028c31ba2c30beebd",
      "blockNumber": 65162,
      "transactionIndex": 1,
      "confirmations": null,
      "from": "0x86724AF49038eb699DA1Aec60C8814626C1866FF",
      "gasPrice": {
        "_hex": "0xba43b7400"
      },
      "gasLimit": {
        "_hex": "0x5208"
      },
      "to": "0x73B6B971370aE35d2bc42EB49d170018c020FF7b",
      "value": {
        "_hex": "0x5a32daa1a281000"
      },
      "nonce": 1,
      "data": "0x",
      "r": "0x07aa3312380eb1a5b4c12dbadb971123940d671fa50b9c00c2a983a098d23108",
      "s": "0x38e3a372b5732a6ddbd0951d35a4227967637b903fc8a9fd6718608bc44f9d49",
      "v": 28,
      "creates": null,
      "raw": "0xf86c01850ba43b74008252089473b6b971370ae35d2bc42eb49d170018c020ff7b8805a32daa1a281000801ca007aa3312380eb1a5b4c12dbadb971123940d671fa50b9c00c2a983a098d23108a038e3a372b5732a6ddbd0951d35a4227967637b903fc8a9fd6718608bc44f9d49",
      "networkId": 0,
      "chainId": 0
    }
  ]
}