{
  "hash": "0x142f58f78a5c00fc8d5f7bccfd9bc2ebf0aecdb8d0cd058a78fad6714d756449",
  "parentHash": "0x7941c35e8de27d0fb621081d1dedc248f104139cf0b1c8e17370c77a571c47df",
  "number": 65183,
  "timestamp": 1439232511,
  "nonce": "0xaf6d8894de005360",
  "difficulty": 1946447448969,
  "gasLimit": {
    "_hex": "0x2fefd8"
  },
  "gasUsed": {
    "_hex": "0xa410"
  },
  "miner": "0x580992B51e3925e23280EfB93d3047C82f17E038",
  "extraData": "0x476574682f76312e302e312f6c696e75782f676f312e342e32",
  "transactions": [
    {
      "hash": "0x3fd17b8a514413c02331e15f0b1e79fea3f56d36af3b1a8efce5491f6dbc5b89",
      "blockHash": "0x142f58f78a5c00fc8d5f7bccfd9bc2ebf0aecdb8d0cd058a78fad6714d756449",
      "blockNumber": 65183,
      "transactionIndex": 0,
      "confirmations": null,
      "from": "0x1A7c36e0787d99b10651C5f5dEB384D484A86760",
      "gasPrice": {
        "_hex": "0xba43b7400"
      },
      "gasLimit": {
        "_hex": "0x5208"
      },
      "to": "0x6772fA6FBfbCf8aB159AA30b66F6f9Dc7872160b",
      "value": {
        "_hex": "0x64523e40d1b2000"
      },
      "nonce": 1,
      "data": "0x",
      "r": "0x01203e2951959f2276e87ea131d4b6cc387b17c37215df347912c2ef10c26456",
      "s": "0x025ed3a053116a3ad233f0b603d43ddca2acefb127dac4ec5b3c60ac3a1cb123",
      "v": 28,
      "creates": null,
      "raw": "0xf86c01850ba43b7400825208946772fa6fbfbcf8ab159aa30b66f6f9dc7872160b88064523e40d1b2000801ca001203e2951959f2276e87ea131d4b6cc387b17c37215df347912c2ef10c26456a0025ed3a053116a3ad233f0b603d43ddca2acefb127dac4ec5b3c60ac3a1cb123",
      "networkId": 0,
      "chainId": 0
    },
    {
      "hash": "0xa234e416b5133f3597376624cd6d36e3c9b20c826f802ae3ebaf8665ab37482c",
      "blockHash": "0x142f58f78a5c00fc8d5f7bccfd9bc2ebf0aecdb8d0cd058a78fad6714d756449",
      "blockNumber": 65183,
      "transactionIndex": 1,
      "confirmations": null,
      "from": "0xab894Bf7393f489a69bAF52A0AdD4f93632BA8C1",
      "gasPrice": {
        "_hex": "0xba43b7400"
      },
      "gasLimit": {
        "_hex": "0x5208"
      },
      "to": "0x05699797467BEc9D074EDd37374846bE3508221e",
      "value": {
        "_hex": "0x5e89730a6d96000"
      },
      "nonce": 1,
      "data": "0x",
      "r": "0xea92a6e529426e3669be2f738a93e6b2dbdabdacfdbfe6f42f90cfef4d98ed39",
      "s": "0x30e9e5b69bfb816e99bf1df506263f3ee5439d242e078822a1288950c732cd0b",
      "v": 27,
      "creates": null,
      "raw": "0xf86c01850ba43b74008252089405699797467bec9d074edd37374846be3508221e8805e89730a6d96000801ba0ea92a6e529426e3669be2f738a93e6b2dbdabdacfdbfe6f42f90cfef4d98ed39a030e9e5b69bfb816e99bf1df506263f3ee5439d242e078822a1288950c732cd0b",
      "networkId": 0,
      "chainId": 0
    }
  ]
}