{
  "hash": "0xafaaaf094c0ce879d5d923d5be4c48f0ac46b35a6430cf321fe9f57e571d888e",
  "parentHash": "0x60c54349f7c5d6979a0b0d72c913cfc4f45905bece584d831323ea873dc75014",
  "number": 54289,
  "timestamp": 1439051762,
  "nonce": "0x9cfe88c2192b8c40",
  "difficulty": 1606318903539,
  "gasLimit": {
    "_hex": "0x2fefd8"
  },
  "gasUsed": {
    "_hex": "0x5208"
  },
  "miner": "0xeB1325C8D9d3ea8D74aC11F4B00F1B2367686319",
  "extraData": "0x476574682f76312e302e312f77696e646f77732f676f312e342e32",
  "transactions": [
    {
      "hash": "0x6e17485991dfdf2a3943ab7f2762bb66b664977dfec3e45d30595c0965c1d50e",
      "blockHash": "0xafaaaf094c0ce879d5d923d5be4c48f0ac46b35a6430cf321fe9f57e571d888e",
      "blockNumber": 54289,
      "transactionIndex": 0,
      "confirmations": null,
      "from": "0x30FbE5885F9fCcE9Ea5EdB82Ed4a1196dd259aEd",
      "gasPrice": {
        "_hex": "0xd6f9eab27"
      },
      "gasLimit": {
        "_hex": "0x15f90"
      },
      "to": "0xf85787F98B727466F7A58c9424AbD404baBE6ede",
      "value": {
        "_hex": "0x3"
      },
      "nonce": 0,
      "data": "0x",
      "r": "0xb9161efadcdd20e7f5cfe02a7f827ec14663ccf92ff2a03d7ded925b4ebd4d05",
      "s": "0x6cb45e2aa551caf4b3cdcd3c8144509713bebfc5eb947d298b24d9e31e8082db",
      "v": 28,
      "creates": null,
      "raw": "0xf86580850d6f9eab2783015f9094f85787f98b727466f7a58c9424abd404babe6ede03801ca0b9161efadcdd20e7f5cfe02a7f827ec14663ccf92ff2a03d7ded925b4ebd4d05a06cb45e2aa551caf4b3cdcd3c8144509713bebfc5eb947d298b24d9e31e8082db",
      "networkId": 0,
      "chainId": 0
    }
  ]
}