{
  "hash": "0x8e03ae19bb12758f2bcc7f7cc78554e38ffcc4e0bea4120f2e15faddbc1b33cd",
  "parentHash": "0xf169cecc3275aa00a8ad655b6a72f8536d370dcce05827c65a3d85adf68f2ebf",
  "number": 87258,
  "timestamp": 1439589533,
  "nonce": "0xf5b4f83339afdcb7",
  "difficulty": 3079601367098,
  "gasLimit": {
    "_hex": "0x2fefd8"
  },
  "gasUsed": {
    "_hex": "0x5208"
  },
  "miner": "0xd8F5f0458bDA93A6d2ffA08cee7c1A0CbeA410aE",
  "extraData": "0x476574682f76312e302e312f77696e646f77732f676f312e342e32",
  "transactions": [
    {
      "hash": "0x580f94274b7f11645d430e38161c75dfc407e09dcd29c5c44f96c8f36db392ee",
      "blockHash": "0x8e03ae19bb12758f2bcc7f7cc78554e38ffcc4e0bea4120f2e15faddbc1b33cd",
      "blockNumber": 87258,
      "transactionIndex": 0,
      "confirmations": null,
      "from": "0xB5EDD17d2582A94610ebf0C6832c1652EBBBe210",
      "gasPrice": {
        "_hex": "0xcf69babbc"
      },
      "gasLimit": {
        "_hex": "0x5208"
      },
      "to": "0x98077F47f89BEd877C8877Bf95753f6cE0CE4fcF",
      "value": {
        "_hex": "0x5d1aef1c5bcc18000"
      },
      "nonce": 4,
      "data": "0x",
      "r": "0xdaa99cf61f5d232638ba4585fdc0ed3efad112a0c779d0a0f735817c0e3ef580",
      "s": "0x055ffe0e9b25525354048b1e39591fa763f595ad2cff3e973cd58aaf7034513e",
      "v": 28,
      "creates": null,
      "raw": "0xf86d04850cf69babbc8252089498077f47f89bed877c8877bf95753f6ce0ce4fcf8905d1aef1c5bcc18000801ca0daa99cf61f5d232638ba4585fdc0ed3efad112a0c779d0a0f735817c0e3ef580a0055ffe0e9b25525354048b1e39591fa763f595ad2cff3e973cd58aaf7034513e",
      "networkId": 0,
      "chainId": 0
    }
  ]
}