{
  "hash": "0xa7550080cc5759085990f70a731c6f19b04449db8676261cecc343cd0937b8cf",
  "parentHash": "0x1ab23335edb4157df2705d79acf92de78d2fa86409390afd2054692f11efe152",
  "number": 95763,
  "timestamp": 1439729201,
  "nonce": "0x5c3fe0783d768611",
  "difficulty": 3630294026605,
  "gasLimit": {
    "_hex": "0x2fefd8"
  },
  "gasUsed": {
    "_hex": "0x546c"
  },
  "miner": "0x157c6f2431eB1a95797EE86F7d17b3c0FD47A247",
  "extraData": "0x476574682f76312e302e312f77696e646f77732f676f312e342e32",
  "transactions": [
    {
      "hash": "0xad32c1659380b167b7b26d4f80c6b0c4fc0a91be5aa0d45c00b5bde3b5e7ffc3",
      "blockHash": "0xa7550080cc5759085990f70a731c6f19b04449db8676261cecc343cd0937b8cf",
      "blockNumber": 95763,
      "transactionIndex": 0,
      "confirmations": null,
      "from": "0xE35453eef2cC3C7A044D0aC134ba615908FA82EE",
      "gasPrice": {
        "_hex": "0x105cd3647af"
      },
      "gasLimit": {
        "_hex": "0x55f0"
      },
      "to": "0x2910543Af39abA0Cd09dBb2D50200b3E800A63D2",
      "value": {
        "_hex": "0x5dacd13ca9e300000"
      },
      "nonce": 2,
      "data": "0x454e594b5237415252",
      "r": "0xd17f1a52bb246da5a9b06004e673ea86b32802aafa1e58a3e2c9a710d3b9ed5e",
      "s": "0x09cb35197bfe1fdeebd9f125dcee27415c2144d27213fdc198df3689d6ae079e",
      "v": 28,
      "creates": null,
      "raw": "0xf87702860105cd3647af8255f0942910543af39aba0cd09dbb2d50200b3e800a63d28905dacd13ca9e30000089454e594b52374152521ca0d17f1a52bb246da5a9b06004e673ea86b32802aafa1e58a3e2c9a710d3b9ed5ea009cb35197bfe1fdeebd9f125dcee27415c2144d27213fdc198df3689d6ae079e",
      "networkId": 0,
      "chainId": 0
    }
  ]
}