{
  "hash": "0xa60eb22fe922740e7ed6ff62c47d6e4ad9bdd09f6dc8ff0780a663bf57dbdcb2",
  "parentHash": "0x1376c61af1d9d9c3ab36a0d60068919caf857f6f523f7f8d1ebfdb7c3d08f03b",
  "number": 101495,
  "timestamp": 1439823856,
  "nonce": "0x36fc1cf371f659e8",
  "difficulty": 3854253008511,
  "gasLimit": {
    "_hex": "0x2fefd8"
  },
  "gasUsed": {
    "_hex": "0x5208"
  },
  "miner": "0xe6A7a1d47ff21B6321162AEA7C6CB457D5476Bca",
  "extraData": "0x476574682f76312e302e312d38326566323666362f6c696e75782f676f312e34",
  "transactions": [
    {
      "hash": "0x5069c8567c88b96e0a9af61ae67fc863cfe336d98e41da61719ee752fdb1bac3",
      "blockHash": "0xa60eb22fe922740e7ed6ff62c47d6e4ad9bdd09f6dc8ff0780a663bf57dbdcb2",
      "blockNumber": 101495,
      "transactionIndex": 0,
      "confirmations": null,
      "from": "0xcf00A85f3826941e7A25BFcF9Aac575d40410852",
      "gasPrice": {
        "_hex": "0xcb5bea614"
      },
      "gasLimit": {
        "_hex": "0x15f90"
      },
      "to": "0xD9666150A9dA92d9108198a4072970805a8B3428",
      "value": {
        "_hex": "0x4563918244f40000"
      },
      "nonce": 36,
      "data": "0x",
      "r": "0x4ca06087dab307498b476047f4f0cc981150316d82c913bec72688560e6fc667",
      "s": "0x41b66a35225b96e7cc99e0043ef6c19d6e3fa6ef059bc8cfc6cf8c3952ef09bf",
      "v": 28,
      "creates": null,
      "raw": "0xf86d24850cb5bea61483015f9094d9666150a9da92d9108198a4072970805a8b3428884563918244f40000801ca04ca06087dab307498b476047f4f0cc981150316d82c913bec72688560e6fc667a041b66a35225b96e7cc99e0043ef6c19d6e3fa6ef059bc8cfc6cf8c3952ef09bf",
      "networkId": 0,
      "chainId": 0
    }
  ]
}