{
  "hash": "0x910f237e79f52d2ec46be8f33060e86e88fdeb485e00f05499e83004546ec92e",
  "parentHash": "0x9269f8c2362b43023239038ea73740970bd8c1bc6aedf1ba0233bbe13ec69e80",
  "number": 49378,
  "timestamp": 1438972655,
  "nonce": "0x5c9b641e0b25170a",
  "difficulty": 1475624628770,
  "gasLimit": {
    "_hex": "0x2ef92"
  },
  "gasUsed": {
    "_hex": "0x546c"
  },
  "miner": "0x88D74a59454F6cF3B51ef6b9136AFb6b9D405A88",
  "extraData": "0x476574682f76312e302e302d66633739643332642f6c696e75782f676f312e34",
  "transactions": [
    {
      "hash": "0xd76ff89a59255166dcd37275242d2da640714350ee9861af3c0284047595a67c",
      "blockHash": "0x910f237e79f52d2ec46be8f33060e86e88fdeb485e00f05499e83004546ec92e",
      "blockNumber": 49378,
      "transactionIndex": 0,
      "confirmations": null,
      "from": "0xdE30E49E5Ab313214D2F01dCABCe8940B81B1c76",
      "gasPrice": {
        "_hex": "0x110c8f7d8de"
      },
      "gasLimit": {
        "_hex": "0xc350"
      },
      "to": "0x2910543Af39abA0Cd09dBb2D50200b3E800A63D2",
      "value": {
        "_hex": "0xaa00be18c28900000"
      },
      "nonce": 0,
      "data": "0x454e38545230593138",
      "r": "0x66c42d2f536711e07dd72c70e0d98446647356aa24346bceab0f5dea92167d74",
      "s": "0x50fe623f73a7439297967f8f6c894282cab4939ac5adbf0c06c3f7ef04c99ac3",
      "v": 28,
      "creates": null,
      "raw": "0xf87780860110c8f7d8de82c350942910543af39aba0cd09dbb2d50200b3e800a63d2890aa00be18c2890000089454e385452305931381ca066c42d2f536711e07dd72c70e0d98446647356aa24346bceab0f5dea92167d74a050fe623f73a7439297967f8f6c894282cab4939ac5adbf0c06c3f7ef04c99ac3",
      "networkId": 0,
      "chainId": 0
    }
  ]
}