{
  "hash": "0xd3bd30a20ea17c51d3d810417f607525bfc22cbe2517037603511eb3531bc254",
  "parentHash": "0xa28ea31c232feeeb6966b874e018551f1e6228134028cf299805a6e579c30fae",
  "number": 103587,
  "timestamp": 1439855691,
  "nonce": "0xcfeb7c2b3c031d89",
  "difficulty": 4203182177208,
  "gasLimit": {
    "_hex": "0x2fefd8"
  },
  "gasUsed": {
    "_hex": "0x5208"
  },
  "miner": "0xa6BDc31c431B8F97848c9D60cbbe9660dc450eB7",
  "extraData": "0x",
  "transactions": [
    {
      "hash": "0x3896e2de045f0586baa8882a7c8c3ea8266f02b584eeaeebf92b7ee3bb4fbb22",
      "blockHash": "0xd3bd30a20ea17c51d3d810417f607525bfc22cbe2517037603511eb3531bc254",
      "blockNumber": 103587,
      "transactionIndex": 0,
      "confirmations": null,
      "from": "0xa6BDc31c431B8F97848c9D60cbbe9660dc450eB7",
      "gasPrice": {
        "_hex": "0xdcb123cbe"
      },
      "gasLimit": {
        "_hex": "0x5208"
      },
      "to": "0x32Be343B94f860124dC4fEe278FDCBD38C102D88",
      "value": {
        "_hex": "0x4563703fa717fc00"
      },
      "nonce": 158,
      "data": "0x",
      "r": "0x731f708a02956b6f7e02a080a2a96e69803ed0232933481ab3a2af53aa3f33f7",
      "s": "0x4384e81f75735df466b360215e936aa6ea39a62d859e4cf42b7c0383ad4e5067",
      "v": 27,
      "creates": null,
      "raw": "0xf86d819e850dcb123cbe8252089432be343b94f860124dc4fee278fdcbd38c102d88884563703fa717fc00801ba0731f708a02956b6f7e02a080a2a96e69803ed0232933481ab3a2af53aa3f33f7a04384e81f75735df466b360215e936aa6ea39a62d859e4cf42b7c0383ad4e5067",
      "networkId": 0,
      "chainId": 0
    }
  ]
}