{
  "hash": "0x01e9271212452bf5e5231a755a6a7a4a0bac4156be3d1638b8a273c8a53b05cc",
  "parentHash": "0x075288b9b26b1e25c2f712146ac6df36a21a685c99b1bb8b085d04246f37c756",
  "number": 47958,
  "timestamp": 1438948963,
  "nonce": "0xf28c10103fddd59a",
  "difficulty": 1460105168218,
  "gasLimit": {
    "_hex": "0x10d90"
  },
  "gasUsed": {
    "_hex": "0xa8d8"
  },
  "miner": "0x5B40711F65053004dc86F296Dd8F09862E00998F",
  "extraData": "0x476574682f76312e302e312d38326566323666362f6c696e75782f676f312e34",
  "transactions": [
    {
      "hash": "0x407ec724a47dbed2ef0c4cd41e7819df8e82019682a677cd43ee8fa68e995fa9",
      "blockHash": "0x01e9271212452bf5e5231a755a6a7a4a0bac4156be3d1638b8a273c8a53b05cc",
      "blockNumber": 47958,
      "transactionIndex": 0,
      "confirmations": null,
      "from": "0x5102A4a42077e11C58df4773e3Ac944623A66d9f",
      "gasPrice": {
        "_hex": "0x118c7988c56"
      },
      "gasLimit": {
        "_hex": "0x59d8"
      },
      "to": "0x2910543Af39abA0Cd09dBb2D50200b3E800A63D2",
      "value": {
        "_hex": "0x56bc75e2d63100000"
      },
      "nonce": 7,
      "data": "0x454e3543484a4a3738",
      "r": "0x177dcfe58b13cd3e9329bb0bcf6471af990fe4f221fe5668ee7af62841a86fbe",
      "s": "0x01c035dc659c6897ed5ad50430a491b00af48a6d9c12a3ae10afa49a588f91e5",
      "v": 27,
      "creates": null,
      "raw": "0xf87707860118c7988c568259d8942910543af39aba0cd09dbb2d50200b3e800a63d289056bc75e2d6310000089454e3543484a4a37381ba0177dcfe58b13cd3e9329bb0bcf6471af990fe4f221fe5668ee7af62841a86fbea001c035dc659c6897ed5ad50430a491b00af48a6d9c12a3ae10afa49a588f91e5",
      "networkId": 0,
      "chainId": 0
    },
    {
      "hash": "0x0ee95655fc844fdfebf73850c27b3dd15c8081b5f63772d7f9974c6a7358979b",
      "blockHash": "0x01e9271212452bf5e5231a755a6a7a4a0bac4156be3d1638b8a273c8a53b05cc",
      "blockNumber": 47958,
      "transactionIndex": 1,
      "confirmations": null,
      "from": "0x5102A4a42077e11C58df4773e3Ac944623A66d9f",
      "gasPrice": {
        "_hex": "0x118c7988c56"
      },
      "gasLimit": {
        "_hex": "0x59d8"
      },
      "to": "0x2910543Af39abA0Cd09dBb2D50200b3E800A63D2",
      "value": {
        "_hex": "0x3635c9adc5dea00000"
      },
      "nonce": 8,
      "data": "0x454e3543484a4a3738",
      "r": "0xb8942b8ff7af6cbc983e03de602586d198e40ef9d9b97726059492fc2c6f8851",
      "s": "0x58e5fa261e5a8cdab8e14e369b45ca780fe05eb7e0fce7682c39853496a54f23",
      "v": 28,
      "creates": null,
      "raw": "0xf87708860118c7988c568259d8942910543af39aba0cd09dbb2d50200b3e800a63d2893635c9adc5dea0000089454e3543484a4a37381ca0b8942b8ff7af6cbc983e03de602586d198e40ef9d9b97726059492fc2c6f8851a058e5fa261e5a8cdab8e14e369b45ca780fe05eb7e0fce7682c39853496a54f23",
      "networkId": 0,
      "chainId": 0
    }
  ]
}