{
  "hash": "0x1b854a281fc08fafe9ce2dfbe12dc0d9c1b01f2c75bc2dc7daa9b2ec6e1b6d8a",
  "parentHash": "0x43b8236bb21b04477cbcae6e019867fe9710e1d6f3d1e9b96aec8f825940d11c",
  "number": 78270,
  "timestamp": 1439451231,
  "nonce": "0x715f0f2d0a739a2e",
  "difficulty": 2282086923808,
  "gasLimit": {
    "_hex": "0x2fefd8"
  },
  "gasUsed": {
    "_hex": "0x5208"
  },
  "miner": "0x31995C46B15C84523cDEE26f49A681b8237e43F5",
  "extraData": "0x476574682f76312e302e312f77696e646f77732f676f312e342e32",
  "transactions": [
    {
      "hash": "0x70551c53b13711f60d0ee0f2bb44f4fdde0ced0ca4c5422ce397a5e017b249d1",
      "blockHash": "0x1b854a281fc08fafe9ce2dfbe12dc0d9c1b01f2c75bc2dc7daa9b2ec6e1b6d8a",
      "blockNumber": 78270,
      "transactionIndex": 0,
      "confirmations": null,
      "from": "0x32Be343B94f860124dC4fEe278FDCBD38C102D88",
      "gasPrice": {
        "_hex": "0xd51ba0fc0"
      },
      "gasLimit": {
        "_hex": "0x5208"
      },
      "to": "0x1EB98B9942B97f707601889Ea96904651A28de2B",
      "value": {
        "_hex": "0x37c7ae500a9af0000"
      },
      "nonce": 390,
      "data": "0x",
      "r": "0xa4fdaf8aadcbf36d7d83d9cc9afa285d71af5dd2caacb3d25f7170977cb76f63",
      "s": "0x4318eec6ca4114b7e7faf2aeb05efecc340d914f21b36f4d1cf9faf9f4d04ef2",
      "v": 28,
      "creates": null,
      "raw": "0xf86f820186850d51ba0fc0825208941eb98b9942b97f707601889ea96904651a28de2b89037c7ae500a9af0000801ca0a4fdaf8aadcbf36d7d83d9cc9afa285d71af5dd2caacb3d25f7170977cb76f63a04318eec6ca4114b7e7faf2aeb05efecc340d914f21b36f4d1cf9faf9f4d04ef2",
      "networkId": 0,
      "chainId": 0
    }
  ]
}