{
  "hash": "0x1dd69c80705f66e52f0731f50ed5c24b87e811989573cf385f8df0f8d257de94",
  "parentHash": "0xdfe71825001085c5b1bccf84a6e5c1c2ef2c82cefb1a1ca5f6d23559fd8b8a23",
  "number": 89297,
  "timestamp": 1439621176,
  "nonce": "0xf9f8aebcdaec2e77",
  "difficulty": 3311201142781,
  "gasLimit": {
    "_hex": "0x2fefd8"
  },
  "gasUsed": {
    "_hex": "0xa674"
  },
  "miner": "0xE8CfAf09a32020eF1C065904a244b4dD6E7C69c6",
  "extraData": "0x",
  "transactions": [
    {
      "hash": "0xcb4f14408fdfec7f69abbb92f4aa847cf206ff15e87215ff704416d956646b8d",
      "blockHash": "0x1dd69c80705f66e52f0731f50ed5c24b87e811989573cf385f8df0f8d257de94",
      "blockNumber": 89297,
      "transactionIndex": 0,
      "confirmations": null,
      "from": "0x91AC5cfe67c54AA7EBfBa448666c461A3B1fE2E1",
      "gasPrice": {
        "_hex": "0x110c8f7d8de"
      },
      "gasLimit": {
        "_hex": "0xc350"
      },
      "to": "0x2910543Af39abA0Cd09dBb2D50200b3E800A63D2",
      "value": {
        "_hex": "0xae35a8ad9e1350000"
      },
      "nonce": 1,
      "data": "0x454e454d4239315a30",
      "r": "0x6b015912b83db4479acb400ff1fb9f4a1ddcd53d64243d723d26d34078820bd7",
      "s": "0xda6bb51cf00a0939daf432ea867ecdace06b1ef45fce60a4bca5582a9d99080d",
      "v": 28,
      "creates": null,
      "raw": "0xf87701860110c8f7d8de82c350942910543af39aba0cd09dbb2d50200b3e800a63d2890ae35a8ad9e135000089454e454d4239315a301ca06b015912b83db4479acb400ff1fb9f4a1ddcd53d64243d723d26d34078820bd7a0da6bb51cf00a0939daf432ea867ecdace06b1ef45fce60a4bca5582a9d99080d",
      "networkId": 0,
      "chainId": 0
    },
    {
      "hash": "0xb33afb395e31e22185597849d1e1b24a4f4f3a92207863eed6990cb8ed9abcd9",
      "blockHash": "0x1dd69c80705f66e52f0731f50ed5c24b87e811989573cf385f8df0f8d257de94",
      "blockNumber": 89297,
      "transactionIndex": 1,
      "confirmations": null,
      "from": "0x2910543Af39abA0Cd09dBb2D50200b3E800A63D2",
      "gasPrice": {
        "_hex": "0xcd2a76b0c"
      },
      "gasLimit": {
        "_hex": "0x5208"
      },
      "to": "0x2f86ba8019945f39edE131D38d4d8780884DA553",
      "value": {
        "_hex": "0x533284bcb4778000"
      },
      "nonce": 749,
      "data": "0x",
      "r": "0x7bc2fb27fa8e2d1de58203c7456aaad1267ee335a67387cf5b17ee3fb5e478c0",
      "s": "0x3793ac4b32c7ce5990e2749c40695e50ba6708ed6c9fc76b0e8cfd6e6beaf498",
      "v": 28,
      "creates": null,
      "raw": "0xf86e8202ed850cd2a76b0c825208942f86ba8019945f39ede131d38d4d8780884da55388533284bcb4778000801ca07bc2fb27fa8e2d1de58203c7456aaad1267ee335a67387cf5b17ee3fb5e478c0a03793ac4b32c7ce5990e2749c40695e50ba6708ed6c9fc76b0e8cfd6e6beaf498",
      "networkId": 0,
      "chainId": 0
    }
  ]
}