{
  "hash": "0x14831a4ab14855aedff5c80c9e30d4753c3c079bcca0b99b08c4a9938011003b",
  "parentHash": "0x400a7c3af45700805f672c837c3ce2e9d7d9c513f73cfb6a4be026e79cab1173",
  "number": 66901,
  "timestamp": 1439262292,
  "nonce": "0xe709b8c35eb2b71e",
  "difficulty": 1953665474743,
  "gasLimit": {
    "_hex": "0x2fefd8"
  },
  "gasUsed": {
    "_hex": "0x5208"
  },
  "miner": "0x0085Ab1b23d791e6cCB2220588314681efD74C0c",
  "extraData": "0xdd809b302e392e33382b2b333665612d5257696e646f2f6d73762f4a4954",
  "transactions": [
    {
      "hash": "0xb83e4d4fdeff2a1e8322d2201e44e1f6305eb85ca38f7c5dbea37ee38a897365",
      "blockHash": "0x14831a4ab14855aedff5c80c9e30d4753c3c079bcca0b99b08c4a9938011003b",
      "blockNumber": 66901,
      "transactionIndex": 0,
      "confirmations": null,
      "from": "0xB0bF4A71F730782368Ef660FE6D298F432F95450",
      "gasPrice": {
        "_hex": "0xd9500f6a1"
      },
      "gasLimit": {
        "_hex": "0x5208"
      },
      "to": "0x32Be343B94f860124dC4fEe278FDCBD38C102D88",
      "value": {
        "_hex": "0x1b1ae071afd8f00000"
      },
      "nonce": 11,
      "data": "0x",
      "r": "0xcad8d0c7240f4d221cb42a68abfa6d97ac2fb107d55385e9d5f85ae649a9d552",
      "s": "0x580b10bc7c4b331c65f8534fd96b41c9154680ddea06092f40a198ca3c6e4584",
      "v": 27,
      "creates": null,
      "raw": "0xf86d0b850d9500f6a18252089432be343b94f860124dc4fee278fdcbd38c102d88891b1ae071afd8f00000801ba0cad8d0c7240f4d221cb42a68abfa6d97ac2fb107d55385e9d5f85ae649a9d552a0580b10bc7c4b331c65f8534fd96b41c9154680ddea06092f40a198ca3c6e4584",
      "networkId": 0,
      "chainId": 0
    }
  ]
}