{
  "hash": "0x7ad1f3acaf1effdbab8025f93c2566d8b87b85955f79a910e9358f8897c73b32",
  "parentHash": "0x78d805d46cc3067554cb441b413f3ec43220acec788de408db2fd04fc3b71512",
  "number": 90145,
  "timestamp": 1439635321,
  "nonce": "0xd2b80d0b85ff81fe",
  "difficulty": 3310866432078,
  "gasLimit": {
    "_hex": "0x2fefd8"
  },
  "gasUsed": {
    "_hex": "0x5208"
  },
  "miner": "0xEcbbFE46500E669149DD031fcdbeb3ed9be638Fb",
  "extraData": "0x476574682f76312e302e312f6c696e75782f676f312e342e32",
  "transactions": [
    {
      "hash": "0xa0aea148c6e9ebea97f9057c03c2b4728029bf52d96d8ccecc3d44d03ca2ddd7",
      "blockHash": "0x7ad1f3acaf1effdbab8025f93c2566d8b87b85955f79a910e9358f8897c73b32",
      "blockNumber": 90145,
      "transactionIndex": 0,
      "confirmations": null,
      "from": "0xa16E760E170A19a36e1b42357a1e6A1A206B9F39",
      "gasPrice": {
        "_hex": "0xd2ae0e028"
      },
      "gasLimit": {
        "_hex": "0x15f90"
      },
      "to": "0x1151790FE5F7C3113dfb07Dc3914B1916EcC8a7A",
      "value": {
        "_hex": "0x346e26fbb96d0000"
      },
      "nonce": 1,
      "data": "0x",
      "r": "0x5cacc30f524f200ed005b92d4dc8955cfa1e8fcd01ba3ca36b31b426fda0b397",
      "s": "0x76141c8b31ae3ce05948d3bd1fe48a0cb8441369b57b4644d44784a8dcea1442",
      "v": 27,
      "creates": null,
      "raw": "0xf86d01850d2ae0e02883015f90941151790fe5f7c3113dfb07dc3914b1916ecc8a7a88346e26fbb96d0000801ba05cacc30f524f200ed005b92d4dc8955cfa1e8fcd01ba3ca36b31b426fda0b397a076141c8b31ae3ce05948d3bd1fe48a0cb8441369b57b4644d44784a8dcea1442",
      "networkId": 0,
      "chainId": 0
    }
  ]
}