{
  "hash": "0x825bc70f67b4024b8ed35df5ff7e47b9fcdd8fd9e9054019737bd798dcb56c83",
  "parentHash": "0x5b05d259e3402ee3b5e605010d5724838006684d73087d6f94a82f88eadc2be2",
  "number": 99952,
  "timestamp": 1439798278,
  "nonce": "0x23e1f8b541006447",
  "difficulty": 3853080178512,
  "gasLimit": {
    "_hex": "0x2fefd8"
  },
  "gasUsed": {
    "_hex": "0x42a68"
  },
  "miner": "0x710c5fEBe84c40b3C12BE2cB2378B863f67235df",
  "extraData": "0x476574682f76312e302e312f6c696e75782f676f312e342e32",
  "transactions": [
    {
      "hash": "0x617017de1e5ba6202d0e7330aa46628badeddde345f5922e5b6e3edf427e0340",
      "blockHash": "0x825bc70f67b4024b8ed35df5ff7e47b9fcdd8fd9e9054019737bd798dcb56c83",
      "blockNumber": 99952,
      "transactionIndex": 0,
      "confirmations": null,
      "from": "0xe6A7a1d47ff21B6321162AEA7C6CB457D5476Bca",
      "gasPrice": {
        "_hex": "0xd86b68f84"
      },
      "gasLimit": {
        "_hex": "0x55f0"
      },
      "to": "0x9900467341E2d122D382794f203a0Fa60f42e508",
      "value": {
        "_hex": "0x2274067168a295ec"
      },
      "nonce": 3139,
      "data": "0x",
      "r": "0x9d6a0f599ba494435927019705e9a9927493642846623fe65e36f8a371ccb56a",
      "s": "0x2b7be67292a212dfb86e7f4bb4cc9d1e1bde9b045d2a670f5c667fdb4be7e8c1",
      "v": 27,
      "creates": null,
      "raw": "0xf86e820c43850d86b68f848255f0949900467341e2d122d382794f203a0fa60f42e508882274067168a295ec801ba09d6a0f599ba494435927019705e9a9927493642846623fe65e36f8a371ccb56aa02b7be67292a212dfb86e7f4bb4cc9d1e1bde9b045d2a670f5c667fdb4be7e8c1",
      "networkId": 0,
      "chainId": 0
    },
    {
      "hash": "0x3252a6e017eeb5f131f4384e01badc126362b2dffbc2dc3e91b2d21ca0eafac9",
      "blockHash": "0x825bc70f67b4024b8ed35df5ff7e47b9fcdd8fd9e9054019737bd798dcb56c83",
      "blockNumber": 99952,
      "transactionIndex": 1,
      "confirmations": null,
      "from": "0xe6A7a1d47ff21B6321162AEA7C6CB457D5476Bca",
      "gasPrice": {
        "_hex": "0xd659c0e15"
      },
      "gasLimit": {
        "_hex": "0x55f0"
      },
      "to": "0xe2F27cFd700a6d294Ac1BaFFa42c24bA0968631D",
      "value": {
        "_hex": "0x22bf08a06152e61c"
      },
      "nonce": 3140,
      "data": "0x",
      "r": "0x522c71d8acfe6b8d712c1df036d27201df537b213491c377d42587d50dcf01b2",
      "s": "0x17e92cc014f4570866a43cf9267942d0ab6d03a2018133362a66042c79a31940",
      "v": 28,
      "creates": null,
      "raw": "0xf86e820c44850d659c0e158255f094e2f27cfd700a6d294ac1baffa42c24ba0968631d8822bf08a06152e61c801ca0522c71d8acfe6b8d712c1df036d27201df537b213491c377d42587d50dcf01b2a017e92cc014f4570866a43cf9267942d0ab6d03a2018133362a66042c79a31940",
      "networkId": 0,
      "chainId": 0
    },
    {
      "hash": "0x8990122aa97932b22a0ae2004713be80b54df565d3ffd90a10e844b8b2b26ab8",
      "blockHash": "0x825bc70f67b4024b8ed35df5ff7e47b9fcdd8fd9e9054019737bd798dcb56c83",
      "blockNumber": 99952,
      "transactionIndex": 2,
      "confirmations": null,
      "from": "0xe6A7a1d47ff21B6321162AEA7C6CB457D5476Bca",
      "gasPrice": {
        "_hex": "0xd659c0e15"
      },
      "gasLimit": {
        "_hex": "0x55f0"
      },
      "to": "0xB0f264dc10CE034cA560a614b1E044C1d91A3bAe",
      "value": {
        "_hex": "0x22d1d56b8983dde4"
      },
      "nonce": 3141,
      "data": "0x",
      "r": "0xd5abe1dea94e737e92d9da2b452021dd90c84e688ecad943f8cf907c3e4b6503",
      "s": "0x4d75afea4e0b26cea2acc4465f38d656ecaa15e90a636cd96d5777371f6ced9c",
      "v": 28,
      "creates": null,
      "raw": "0xf86e820c45850d659c0e158255f094b0f264dc10ce034ca560a614b1e044c1d91a3bae8822d1d56b8983dde4801ca0d5abe1dea94e737e92d9da2b452021dd90c84e688ecad943f8cf907c3e4b6503a04d75afea4e0b26cea2acc4465f38d656ecaa15e90a636cd96d5777371f6ced9c",
      "networkId": 0,
      "chainId": 0
    },
    {
      "hash": "0xf80af9ff3dad29a7cd8eb55b48b677249375053c99892b82c07c3d8c039cb892",
      "blockHash": "0x825bc70f67b4024b8ed35df5ff7e47b9fcdd8fd9e9054019737bd798dcb56c83",
      "blockNumber": 99952,
      "transactionIndex": 3,
      "confirmations": null,
      "from": "0xe6A7a1d47ff21B6321162AEA7C6CB457D5476Bca",
      "gasPrice": {
        "_hex": "0xd659c0e15"
      },
      "gasLimit": {
        "_hex": "0x55f0"
      },
      "to": "0x833ef381A23744E510a302c665a63D41ba0E28DB",
      "value": {
        "_hex": "0x22d8d74fcee8ebf8"
      },
      "nonce": 3142,
      "data": "0x",
      "r": "0x53113b8bbe3fff089773382417752cc14c0c36a87dcbf5df87a5834ecfd21190",
      "s": "0x162330168597e7a414af4807c2f1e50253c2fe8fef8e90ae9108e3c390fc1c9d",
      "v": 28,
      "creates": null,
      "raw": "0xf86e820c46850d659c0e158255f094833ef381a23744e510a302c665a63d41ba0e28db8822d8d74fcee8ebf8801ca053113b8bbe3fff089773382417752cc14c0c36a87dcbf5df87a5834ecfd21190a0162330168597e7a414af4807c2f1e50253c2fe8fef8e90ae9108e3c390fc1c9d",
      "networkId": 0,
      "chainId": 0
    },
    {
      "hash": "0x836e92b717e53789e2954ff76b341e77e1bb4ae3540d8cbc952f3b44e345962f",
      "blockHash": "0x825bc70f67b4024b8ed35df5ff7e47b9fcdd8fd9e9054019737bd798dcb56c83",
      "blockNumber": 99952,
      "transactionIndex": 4,
      "confirmations": null,
      "from": "0xe6A7a1d47ff21B6321162AEA7C6CB457D5476Bca",
      "gasPrice": {
        "_hex": "0xd659c0e15"
      },
      "gasLimit": {
        "_hex": "0x55f0"
      },
      "to": "0x139961171236F8260f7D28B94b5a7352Bb114F80",
      "value": {
        "_hex": "0x22da270fd9738630"
      },
      "nonce": 3143,
      "data": "0x",
      "r": "0xf85f8147724dcb1642428055e5d3fbe7afe2dcfaf4e448c207973cc09ee294c3",
      "s": "0x2bb2a501a275f365508e37ee766772e43c0abd91e38dbeb9c0b366f14c3d2e29",
      "v": 28,
      "creates": null,
      "raw": "0xf86e820c47850d659c0e158255f094139961171236f8260f7d28b94b5a7352bb114f808822da270fd9738630801ca0f85f8147724dcb1642428055e5d3fbe7afe2dcfaf4e448c207973cc09ee294c3a02bb2a501a275f365508e37ee766772e43c0abd91e38dbeb9c0b366f14c3d2e29",
      "networkId": 0,
      "chainId": 0
    },
    {
      "hash": "0x1e89c2744dd2e44b3867d121d8e955ed7116d0424848fd0e18a93c230049b199",
      "blockHash": "0x825bc70f67b4024b8ed35df5ff7e47b9fcdd8fd9e9054019737bd798dcb56c83",
      "blockNumber": 99952,
      "transactionIndex": 5,
      "confirmations": null,
      "from": "0xe6A7a1d47ff21B6321162AEA7C6CB457D5476Bca",
      "gasPrice": {
        "_hex": "0xd42633328"
      },
      "gasLimit": {
        "_hex": "0x55f0"
      },
      "to": "0x799Ac9F93b43E63D97F25A436C440470FEF05037",
      "value": {
        "_hex": "0x22e2d3f91353b9e4"
      },
      "nonce": 3144,
      "data": "0x",
      "r": "0x52a659d9aa1f888039117ab41a6d8506bbe168da1089c3afb775ea49e149d220",
      "s": "0x791b01de1c216c3a6c176aaad717c763156abc3f31678931fc387e9356ef2dbf",
      "v": 27,
      "creates": null,
      "raw": "0xf86e820c48850d426333288255f094799ac9f93b43e63d97f25a436c440470fef050378822e2d3f91353b9e4801ba052a659d9aa1f888039117ab41a6d8506bbe168da1089c3afb775ea49e149d220a0791b01de1c216c3a6c176aaad717c763156abc3f31678931fc387e9356ef2dbf",
      "networkId": 0,
      "chainId": 0
    },
    {
      "hash": "0xda2465a0b7f370524751f2a5e9af9feb5adb89c327d03b440c4860ab461d8646",
      "blockHash": "0x825bc70f67b4024b8ed35df5ff7e47b9fcdd8fd9e9054019737bd798dcb56c83",
      "blockNumber": 99952,
      "transactionIndex": 6,
      "confirmations": null,
      "from": "0xe6A7a1d47ff21B6321162AEA7C6CB457D5476Bca",
      "gasPrice": {
        "_hex": "0xd42633328"
      },
      "gasLimit": {
        "_hex": "0x55f0"
      },
      "to": "0x5175f107219871c88e0C4202F14A5f34088b54c8",
      "value": {
        "_hex": "0x22fd91bd80864378"
      },
      "nonce": 3145,
      "data": "0x",
      "r": "0x104c37c01f843f5d0913896b159803013fcfff78aacdc675a7312b10d93b7995",
      "s": "0x288985b88b0faf2b1262b228909a2f2177ca61c2d8534cf8523fe7d7e193358c",
      "v": 28,
      "creates": null,
      "raw": "0xf86e820c49850d426333288255f0945175f107219871c88e0c4202f14a5f34088b54c88822fd91bd80864378801ca0104c37c01f843f5d0913896b159803013fcfff78aacdc675a7312b10d93b7995a0288985b88b0faf2b1262b228909a2f2177ca61c2d8534cf8523fe7d7e193358c",
      "networkId": 0,
      "chainId": 0
    },
    {
      "hash": "0xf71c7800b9a1da6fd8258c9bd3da6495481b6af903acb68e831225a2fadba2ea",
      "blockHash": "0x825bc70f67b4024b8ed35df5ff7e47b9fcdd8fd9e9054019737bd798dcb56c83",
      "blockNumber": 99952,
      "transactionIndex": 7,
      "confirmations": null,
      "from": "0xe6A7a1d47ff21B6321162AEA7C6CB457D5476Bca",
      "gasPrice": {
        "_hex": "0xd42633328"
      },
      "gasLimit": {
        "_hex": "0x55f0"
      },
      "to": "0xA10DcDc99cF571e66c6Af1F1175a15686C4C6800",
      "value": {
        "_hex": "0x231308d0cd54f9fc"
      },
      "nonce": 3146,
      "data": "0x",
      "r": "0xd20919ddc7e63757e04beaea0c2e836ec5bdc2ec8bf9cb1c5f89505b31f0cc47",
      "s": "0x6de20b3006b4ad58642b31f35ad8d1c46a0cf554bf86431349699fa4d8b16dc3",
      "v": 28,
      "creates": null,
      "raw": "0xf86e820c4a850d426333288255f094a10dcdc99cf571e66c6af1f1175a15686c4c680088231308d0cd54f9fc801ca0d20919ddc7e63757e04beaea0c2e836ec5bdc2ec8bf9cb1c5f89505b31f0cc47a06de20b3006b4ad58642b31f35ad8d1c46a0cf554bf86431349699fa4d8b16dc3",
      "networkId": 0,
      "chainId": 0
    },
    {
      "hash": "0x967cc5ddc6e06e401ccaa45febca264484234be476ebbe9cca9774d2600f2f51",
      "blockHash": "0x825bc70f67b4024b8ed35df5ff7e47b9fcdd8fd9e9054019737bd798dcb56c83",
      "blockNumber": 99952,
      "transactionIndex": 8,
      "confirmations": null,
      "from": "0xe6A7a1d47ff21B6321162AEA7C6CB457D5476Bca",
      "gasPrice": {
        "_hex": "0xd42633328"
      },
      "gasLimit": {
        "_hex": "0x55f0"
      },
      "to": "0xc08E05f51581aDA37f9DD2edbF7a68fE7E199D55",
      "value": {
        "_hex": "0x237a0d6ec2d4a1d0"
      },
      "nonce": 3147,
      "data": "0x",
      "r": "0xc6fa3d6ffdc9fe3b2b8425368b7766603fd866ec139d09548af58d27913fa686",
      "s": "0x528bdeb424ca1b7c15df5bd2555a38ee8a11f5e5fb005d42e9804e894dbf8a96",
      "v": 28,
      "creates": null,
      "raw": "0xf86e820c4b850d426333288255f094c08e05f51581ada37f9dd2edbf7a68fe7e199d5588237a0d6ec2d4a1d0801ca0c6fa3d6ffdc9fe3b2b8425368b7766603fd866ec139d09548af58d27913fa686a0528bdeb424ca1b7c15df5bd2555a38ee8a11f5e5fb005d42e9804e894dbf8a96",
      "networkId": 0,
      "chainId": 0
    },
    {
      "hash": "0xf7c91ebb4c41cdc5a2d1f3e9607e55ee491ff36fa24f58cbf788759f8687345c",
      "blockHash": "0x825bc70f67b4024b8ed35df5ff7e47b9fcdd8fd9e9054019737bd798dcb56c83",
      "blockNumber": 99952,
      "transactionIndex": 9,
      "confirmations": null,
      "from": "0xe6A7a1d47ff21B6321162AEA7C6CB457D5476Bca",
      "gasPrice": {
        "_hex": "0xd42633328"
      },
      "gasLimit": {
        "_hex": "0x55f0"
      },
      "to": "0x9aB9F7a4B85412bfbe2f4F63b1C98808851C4F32",
      "value": {
        "_hex": "0x2383f15ede2f19dc"
      },
      "nonce": 3148,
      "data": "0x",
      "r": "0xfb5a361fde6c330a72fec24518a602d2c6bf2671f1ad15caa990085aa35737c6",
      "s": "0x7d2677dd6d2f25ed8ad4ef474d9afe7746417eb8740bda35617cc91a6a3e913b",
      "v": 28,
      "creates": null,
      "raw": "0xf86e820c4c850d426333288255f0949ab9f7a4b85412bfbe2f4f63b1c98808851c4f32882383f15ede2f19dc801ca0fb5a361fde6c330a72fec24518a602d2c6bf2671f1ad15caa990085aa35737c6a07d2677dd6d2f25ed8ad4ef474d9afe7746417eb8740bda35617cc91a6a3e913b",
      "networkId": 0,
      "chainId": 0
    },
    {
      "hash": "0xc9a82e4f7eccabe9e7f032f8ad553983d3e04007f573940ddb3d1d94c7cf4110",
      "blockHash": "0x825bc70f67b4024b8ed35df5ff7e47b9fcdd8fd9e9054019737bd798dcb56c83",
      "blockNumber": 99952,
      "transactionIndex": 10,
      "confirmations": null,
      "from": "0xe6A7a1d47ff21B6321162AEA7C6CB457D5476Bca",
      "gasPrice": {
        "_hex": "0xd42633328"
      },
      "gasLimit": {
        "_hex": "0x55f0"
      },
      "to": "0xdCe26B66eabfB4dE900E4944DcC2FA2d455021fc",
      "value": {
        "_hex": "0x239ecd0f9b800a18"
      },
      "nonce": 3149,
      "data": "0x",
      "r": "0x9cbabe25511e43681a9737ff8ff8d33d98fda0bc4b067bd420f9e9f59b6cbc2f",
      "s": "0x5d2453da80d26b8c1aaf4ffb06db355120091a220893b172e49a8fdabd1f4221",
      "v": 27,
      "creates": null,
      "raw": "0xf86e820c4d850d426333288255f094dce26b66eabfb4de900e4944dcc2fa2d455021fc88239ecd0f9b800a18801ba09cbabe25511e43681a9737ff8ff8d33d98fda0bc4b067bd420f9e9f59b6cbc2fa05d2453da80d26b8c1aaf4ffb06db355120091a220893b172e49a8fdabd1f4221",
      "networkId": 0,
      "chainId": 0
    },
    {
      "hash": "0xfb8709bfad8588467e0466223e503f54594d6437ac9338e68a3e25e210871988",
      "blockHash": "0x825bc70f67b4024b8ed35df5ff7e47b9fcdd8fd9e9054019737bd798dcb56c83",
      "blockNumber": 99952,
      "transactionIndex": 11,
      "confirmations": null,
      "from": "0xe6A7a1d47ff21B6321162AEA7C6CB457D5476Bca",
      "gasPrice": {
        "_hex": "0xd42633328"
      },
      "gasLimit": {
        "_hex": "0x55f0"
      },
      "to": "0x83B72f566f6ef3fd4a25C58119809f846602292C",
      "value": {
        "_hex": "0x23a64becde95d8b0"
      },
      "nonce": 3150,
      "data": "0x",
      "r": "0x273e89b839d2095a29317889ecee596d9bb1fbc9a168e0e56ee7672aa07cbab1",
      "s": "0x19f3d4db9547d545ae21d7bf49fcadde4a2fcca924517e2e980bd9b326f7e9dc",
      "v": 27,
      "creates": null,
      "raw": "0xf86e820c4e850d426333288255f09483b72f566f6ef3fd4a25c58119809f846602292c8823a64becde95d8b0801ba0273e89b839d2095a29317889ecee596d9bb1fbc9a168e0e56ee7672aa07cbab1a019f3d4db9547d545ae21d7bf49fcadde4a2fcca924517e2e980bd9b326f7e9dc",
      "networkId": 0,
      "chainId": 0
    },
    {
      "hash": "0x3ca0bfcdf2d3a21ffd486da2e2dfbc8b8cc009584876dd5f5b9d7c8267c44c65",
      "blockHash": "0x825bc70f67b4024b8ed35df5ff7e47b9fcdd8fd9e9054019737bd798dcb56c83",
      "blockNumber": 99952,
      "transactionIndex": 12,
      "confirmations": null,
      "from": "0xe6A7a1d47ff21B6321162AEA7C6CB457D5476Bca",
      "gasPrice": {
        "_hex": "0xd42633328"
      },
      "gasLimit": {
        "_hex": "0x55f0"
      },
      "to": "0x3Fef71cB8Ac8711ECa473049D813b003A76D1eaA",
      "value": {
        "_hex": "0x23b6066cadb4900c"
      },
      "nonce": 3151,
      "data": "0x",
      "r": "0x720b415f41f57f9aa7406d41d9208369d86cec85e17a4efc8b881e4e42a5e890",
      "s": "0x273d302c5c0838b8bb755de53983ede5eb6e86f101d14f686ad5884ba18b6135",
      "v": 28,
      "creates": null,
      "raw": "0xf86e820c4f850d426333288255f0943fef71cb8ac8711eca473049d813b003a76d1eaa8823b6066cadb4900c801ca0720b415f41f57f9aa7406d41d9208369d86cec85e17a4efc8b881e4e42a5e890a0273d302c5c0838b8bb755de53983ede5eb6e86f101d14f686ad5884ba18b6135",
      "networkId": 0,
      "chainId": 0
    }
  ]
}