{
  "hash": "0x148a3a6aeb7274c984e2f94235bdd433703fe65e69521e078419bf8d28dd4f20",
  "parentHash": "0x432aa265be26dba978a622600f35329e088654c9d8984b3e135646bf708542a9",
  "number": 111328,
  "timestamp": 1439988304,
  "nonce": "0x70dada441615dcd6",
  "difficulty": 4433185160142,
  "gasLimit": {
    "_hex": "0x2fefd8"
  },
  "gasUsed": {
    "_hex": "0xf618"
  },
  "miner": "0xf927a40C8B7F6E07c5af7FA2155B4864a4112B13",
  "extraData": "0x",
  "transactions": [
    {
      "hash": "0x4741c383fdf12b14b87a80dfa4f1f91d598c0fdac69fe6fcbe14872ba3403da1",
      "blockHash": "0x148a3a6aeb7274c984e2f94235bdd433703fe65e69521e078419bf8d28dd4f20",
      "blockNumber": 111328,
      "transactionIndex": 0,
      "confirmations": null,
      "from": "0x8F6864Db2057a8A1C2b2c16D39f64CE4F929F3D9",
      "gasPrice": {
        "_hex": "0xde1fa2425"
      },
      "gasLimit": {
        "_hex": "0x5208"
      },
      "to": "0x32Be343B94f860124dC4fEe278FDCBD38C102D88",
      "value": {
        "_hex": "0x821a69a7384af8000"
      },
      "nonce": 4,
      "data": "0x",
      "r": "0x9dbe8779bc4dbd7ff2c4b1acd0e917278dc76512854fb4cbd10567e7d11cb764",
      "s": "0x08538f3fc93909bfafffe6f46287622f6b8e59fedd864d4edfdcb2917e772dd9",
      "v": 28,
      "creates": null,
      "raw": "0xf86d04850de1fa24258252089432be343b94f860124dc4fee278fdcbd38c102d88890821a69a7384af8000801ca09dbe8779bc4dbd7ff2c4b1acd0e917278dc76512854fb4cbd10567e7d11cb764a008538f3fc93909bfafffe6f46287622f6b8e59fedd864d4edfdcb2917e772dd9",
      "networkId": 0,
      "chainId": 0
    },
    {
      "hash": "0x10f01c87de00624fadc7ec69be758cc01e984969262bf942edb7b0b35e2f6fce",
      "blockHash": "0x148a3a6aeb7274c984e2f94235bdd433703fe65e69521e078419bf8d28dd4f20",
      "blockNumber": 111328,
      "transactionIndex": 1,
      "confirmations": null,
      "from": "0xb1abce2918E21ddb93AA452731a12672A3d9F75a",
      "gasPrice": {
        "_hex": "0xde1fa2425"
      },
      "gasLimit": {
        "_hex": "0x5208"
      },
      "to": "0x32Be343B94f860124dC4fEe278FDCBD38C102D88",
      "value": {
        "_hex": "0x455f126382334400"
      },
      "nonce": 182,
      "data": "0x",
      "r": "0x09ed3b4ee1ec9e7bdf13deebc8683aa099511fcfcfec357241f09c819f91e2a4",
      "s": "0x5fbb1dfe47f9861e074d33f4a7cb4b2826393081148a3fc1378c603d59ffe55a",
      "v": 27,
      "creates": null,
      "raw": "0xf86d81b6850de1fa24258252089432be343b94f860124dc4fee278fdcbd38c102d8888455f126382334400801ba009ed3b4ee1ec9e7bdf13deebc8683aa099511fcfcfec357241f09c819f91e2a4a05fbb1dfe47f9861e074d33f4a7cb4b2826393081148a3fc1378c603d59ffe55a",
      "networkId": 0,
      "chainId": 0
    },
    {
      "hash": "0x868ed487b79c106c4db230b3a18403cd3a2b4cefee30e0b878fdb19c16033baa",
      "blockHash": "0x148a3a6aeb7274c984e2f94235bdd433703fe65e69521e078419bf8d28dd4f20",
      "blockNumber": 111328,
      "transactionIndex": 2,
      "confirmations": null,
      "from": "0xfbB5F5B2Dd4e470E131C6F275bEAE4fbE36cf104",
      "gasPrice": {
        "_hex": "0xde1fa2425"
      },
      "gasLimit": {
        "_hex": "0x5208"
      },
      "to": "0x32Be343B94f860124dC4fEe278FDCBD38C102D88",
      "value": {
        "_hex": "0xa1de83ad86c808000"
      },
      "nonce": 2,
      "data": "0x",
      "r": "0xa479b0cfa3f19905a5f36e38fc4b9d0aaf0243a08f5e8f352b9d2b87cb1acf37",
      "s": "0x496ce44a0057297a232371e662f050246f37b3c2e8b702e15fbc5abb23e9caf8",
      "v": 28,
      "creates": null,
      "raw": "0xf86d02850de1fa24258252089432be343b94f860124dc4fee278fdcbd38c102d88890a1de83ad86c808000801ca0a479b0cfa3f19905a5f36e38fc4b9d0aaf0243a08f5e8f352b9d2b87cb1acf37a0496ce44a0057297a232371e662f050246f37b3c2e8b702e15fbc5abb23e9caf8",
      "networkId": 0,
      "chainId": 0
    }
  ]
}