{
  "hash": "0x114763f120ad96ea3bdbc70868a346063b68e1251aac47649fd2837b1880bd72",
  "parentHash": "0x98130f0443fc55c4b2a7dfd871d084d773fb8e9049c390d67b3ba21bb356dc72",
  "number": 99864,
  "timestamp": 1439796837,
  "nonce": "0x48a37358fc37532c",
  "difficulty": 3834352390345,
  "gasLimit": {
    "_hex": "0x2fefd5"
  },
  "gasUsed": {
    "_hex": "0xa410"
  },
  "miner": "0x7366ADF97960d404c38D975e1A8786bEb14B6507",
  "extraData": "0x476574682f76312e302e312f77696e646f77732f676f312e342e32",
  "transactions": [
    {
      "hash": "0x2efe5a36e12406df826080d8e4ec5f7b4eb11734411042b8233583cdb750ee94",
      "blockHash": "0x114763f120ad96ea3bdbc70868a346063b68e1251aac47649fd2837b1880bd72",
      "blockNumber": 99864,
      "transactionIndex": 0,
      "confirmations": null,
      "from": "0xb1abce2918E21ddb93AA452731a12672A3d9F75a",
      "gasPrice": {
        "_hex": "0xccaaf025e"
      },
      "gasLimit": {
        "_hex": "0x5208"
      },
      "to": "0x32Be343B94f860124dC4fEe278FDCBD38C102D88",
      "value": {
        "_hex": "0x455f78303e170800"
      },
      "nonce": 73,
      "data": "0x",
      "r": "0x1d47cb21bed2fbafc72c4e36b12016784a6781cb8cdc0ba37df1770825e1ab50",
      "s": "0x3e78ae76bcb745571edb95b690a71df1f76b252f98a2daf32316b9a472abba33",
      "v": 27,
      "creates": null,
      "raw": "0xf86c49850ccaaf025e8252089432be343b94f860124dc4fee278fdcbd38c102d8888455f78303e170800801ba01d47cb21bed2fbafc72c4e36b12016784a6781cb8cdc0ba37df1770825e1ab50a03e78ae76bcb745571edb95b690a71df1f76b252f98a2daf32316b9a472abba33",
      "networkId": 0,
      "chainId": 0
    },
    {
      "hash": "0xc910ded8f3c63c3470c6e7e5d9b6f2b4efbbcba8fb4d164f0b76e738c879f934",
      "blockHash": "0x114763f120ad96ea3bdbc70868a346063b68e1251aac47649fd2837b1880bd72",
      "blockNumber": 99864,
      "transactionIndex": 1,
      "confirmations": null,
      "from": "0x4D67f4F0Db45b3B5a3424B39ed8d972F710381D5",
      "gasPrice": {
        "_hex": "0xccaaf025e"
      },
      "gasLimit": {
        "_hex": "0x5208"
      },
      "to": "0x32Be343B94f860124dC4fEe278FDCBD38C102D88",
      "value": {
        "_hex": "0x2f9dfe1ce92150000"
      },
      "nonce": 21,
      "data": "0x",
      "r": "0x8feea7e0535cd0e652269b74402f657c205cfe0a035d610977f1d99a65d3e1c1",
      "s": "0x02741b56ef7bdc9b8eb35d929474637ed292c7ba3115224d7cd66d1c101c77e1",
      "v": 27,
      "creates": null,
      "raw": "0xf86d15850ccaaf025e8252089432be343b94f860124dc4fee278fdcbd38c102d888902f9dfe1ce92150000801ba08feea7e0535cd0e652269b74402f657c205cfe0a035d610977f1d99a65d3e1c1a002741b56ef7bdc9b8eb35d929474637ed292c7ba3115224d7cd66d1c101c77e1",
      "networkId": 0,
      "chainId": 0
    }
  ]
}