{
  "hash": "0x5933fdcd3e0a3fb10654348ba5aa7e9ca32b6777efbcf92a7c973e84c0591dda",
  "parentHash": "0x5c71369be2e91c2108e6b00d23ab5f1817b3f047c843642a61770ce151e6a660",
  "number": 121176,
  "timestamp": 1440172772,
  "nonce": "0x5e57b3f9ff63d358",
  "difficulty": 4397817575118,
  "gasLimit": {
    "_hex": "0x2fefd8"
  },
  "gasUsed": {
    "_hex": "0x5208"
  },
  "miner": "0x790b8a3cE86E707ED0eD32bF89B3269692a23CC1",
  "extraData": "0xd783010002844765746887676f312e342e32856c696e7578",
  "transactions": [
    {
      "hash": "0x0541288b79dac74c2b851af631080cb8baea5b3e23a5d594595b40e2ae9affc9",
      "blockHash": "0x5933fdcd3e0a3fb10654348ba5aa7e9ca32b6777efbcf92a7c973e84c0591dda",
      "blockNumber": 121176,
      "transactionIndex": 0,
      "confirmations": null,
      "from": "0xFBb1b73C4f0BDa4f67dcA266ce6Ef42f520fBB98",
      "gasPrice": {
        "_hex": "0xba43b7400"
      },
      "gasLimit": {
        "_hex": "0x5208"
      },
      "to": "0xA72C26b594556DAD30fc52ED63fE992ec7FC6e46",
      "value": {
        "_hex": "0x9011e23b35d8000"
      },
      "nonce": 261,
      "data": "0x",
      "r": "0xb22993089b2a9bbe67a6ee5c60367e98ef8f4cd7a7a392f929bcbe651dabc85a",
      "s": "0x588c6d01063ea114f2d7a5e01175ec917c2a18e741f4d04fa2fa6bb434f16152",
      "v": 28,
      "creates": null,
      "raw": "0xf86e820105850ba43b740082520894a72c26b594556dad30fc52ed63fe992ec7fc6e468809011e23b35d8000801ca0b22993089b2a9bbe67a6ee5c60367e98ef8f4cd7a7a392f929bcbe651dabc85aa0588c6d01063ea114f2d7a5e01175ec917c2a18e741f4d04fa2fa6bb434f16152",
      "networkId": 0,
      "chainId": 0
    }
  ]
}