{
  "hash": "0x56c1362509943c8b697bf1faf81be4a42ec4201aa8cf669672054eb98c23ae44",
  "parentHash": "0xc720490e721afcefdbe573621066910215fb20aeade8e2169851df5451cfc917",
  "number": 89897,
  "timestamp": 1439630846,
  "nonce": "0x7de9a0eeb7545740",
  "difficulty": 3343456348416,
  "gasLimit": {
    "_hex": "0x2fefd8"
  },
  "gasUsed": {
    "_hex": "0x5208"
  },
  "miner": "0xe6A7a1d47ff21B6321162AEA7C6CB457D5476Bca",
  "extraData": "0x476574682f76312e302e312d38326566323666362f6c696e75782f676f312e34",
  "transactions": [
    {
      "hash": "0x4ee88a664e63618c22316c815b840f4252f2d8a75e878d26e75bccbe70a6ebc7",
      "blockHash": "0x56c1362509943c8b697bf1faf81be4a42ec4201aa8cf669672054eb98c23ae44",
      "blockNumber": 89897,
      "transactionIndex": 0,
      "confirmations": null,
      "from": "0xe6F63A7e7F8dc774F8E3504c9b0c5458D7E28ED8",
      "gasPrice": {
        "_hex": "0xd828f3d76"
      },
      "gasLimit": {
        "_hex": "0x5208"
      },
      "to": "0x32Be343B94f860124dC4fEe278FDCBD38C102D88",
      "value": {
        "_hex": "0x5346ba24a0f89800"
      },
      "nonce": 0,
      "data": "0x",
      "r": "0x39c02249a925606bd4b6a4a103221267ac83d0d08fe21e6fbaf5bc274bef5009",
      "s": "0x061b88f349fcd703e985b34eb84a0d34857194c74636eda164f3af9389a6d658",
      "v": 27,
      "creates": null,
      "raw": "0xf86c80850d828f3d768252089432be343b94f860124dc4fee278fdcbd38c102d88885346ba24a0f89800801ba039c02249a925606bd4b6a4a103221267ac83d0d08fe21e6fbaf5bc274bef5009a0061b88f349fcd703e985b34eb84a0d34857194c74636eda164f3af9389a6d658",
      "networkId": 0,
      "chainId": 0
    }
  ]
}