{
  "hash": "0x417bc3fe2f3de8e5bb22c02b0bb96afe0186c884021772caf54a085028541277",
  "parentHash": "0x4dd139a9655987506fd27094d6144845cf7ada89133665b2469ac85480b9343d",
  "number": 80130,
  "timestamp": 1439480713,
  "nonce": "0x40ac0ae7cb72d572",
  "difficulty": 2347119724314,
  "gasLimit": {
    "_hex": "0x2fefd5"
  },
  "gasUsed": {
    "_hex": "0x5208"
  },
  "miner": "0x9746c7e1ef2bd21FF3997fa467593a89cb852BD0",
  "extraData": "0x476574682f76312e302e312f77696e646f77732f676f312e342e32",
  "transactions": [
    {
      "hash": "0xdb87a2191d80523cabf9de7bc8a39d1fcadd1fdda110d98bccbdd62bf478af07",
      "blockHash": "0x417bc3fe2f3de8e5bb22c02b0bb96afe0186c884021772caf54a085028541277",
      "blockNumber": 80130,
      "transactionIndex": 0,
      "confirmations": null,
      "from": "0xF5EeDc192aB70b08D8354384aD94efD095849E00",
      "gasPrice": {
        "_hex": "0xd76074aed"
      },
      "gasLimit": {
        "_hex": "0x5208"
      },
      "to": "0x32Be343B94f860124dC4fEe278FDCBD38C102D88",
      "value": {
        "_hex": "0x4b759c6d633c34000"
      },
      "nonce": 32,
      "data": "0x",
      "r": "0xe5af8fb04683c86be5c2508b8b39328160b173aca8b038d91a4081f6ace362e8",
      "s": "0x4e143b1152e7655a1bce5cf28ac1f09ddbbb545c6e079f01a8972a5ab2c7ee23",
      "v": 27,
      "creates": null,
      "raw": "0xf86d20850d76074aed8252089432be343b94f860124dc4fee278fdcbd38c102d888904b759c6d633c34000801ba0e5af8fb04683c86be5c2508b8b39328160b173aca8b038d91a4081f6ace362e8a04e143b1152e7655a1bce5cf28ac1f09ddbbb545c6e079f01a8972a5ab2c7ee23",
      "networkId": 0,
      "chainId": 0
    }
  ]
}