{
  "hash": "0x7d67b684126d70f9841bb81dfb6fda209abc65e085b18a0986b41933391856c8",
  "parentHash": "0x206e4a04a938608ad119f9e526a7a83965d5575b66099f9b89d019b3e0f59b48",
  "number": 113248,
  "timestamp": 1440020067,
  "nonce": "0xc3515fa79d4f2087",
  "difficulty": 4519587339770,
  "gasLimit": {
    "_hex": "0x2fefd8"
  },
  "gasUsed": {
    "_hex": "0x5208"
  },
  "miner": "0x9D49F602b0fdb924Bd63DDE2Bd0907E4A07c63a7",
  "extraData": "0x476574682f76312e302e312f6c696e75782f676f312e342e32",
  "transactions": [
    {
      "hash": "0xdbaf73960ddb0750479aa1f71a92509dc87ecf8e80fcef04e4d5c8d0a9b1fc5d",
      "blockHash": "0x7d67b684126d70f9841bb81dfb6fda209abc65e085b18a0986b41933391856c8",
      "blockNumber": 113248,
      "transactionIndex": 0,
      "confirmations": null,
      "from": "0x32Be343B94f860124dC4fEe278FDCBD38C102D88",
      "gasPrice": {
        "_hex": "0xdcbe9f9bc"
      },
      "gasLimit": {
        "_hex": "0x5208"
      },
      "to": "0x36B113901a68E562ce082b2da82Eb6027af3b375",
      "value": {
        "_hex": "0x8a5c8e2d3aa50000"
      },
      "nonce": 1356,
      "data": "0x",
      "r": "0x1caea441ecc99d0abb2e1428d64b6c8d93bf732d619eba824085b1f0b1176550",
      "s": "0x76f0b7a2dad649148988af07960f380a37da58392714a3ffbb4e807a79b02afa",
      "v": 27,
      "creates": null,
      "raw": "0xf86e82054c850dcbe9f9bc8252089436b113901a68e562ce082b2da82eb6027af3b375888a5c8e2d3aa50000801ba01caea441ecc99d0abb2e1428d64b6c8d93bf732d619eba824085b1f0b1176550a076f0b7a2dad649148988af07960f380a37da58392714a3ffbb4e807a79b02afa",
      "networkId": 0,
      "chainId": 0
    }
  ]
}