{
  "hash": "0x94c8925712ad365e6bd966f91edcd3871e5f7b7ae1b4befdbcb52a4fab28ee86",
  "parentHash": "0xdae0d89d1ae41602c2d7b61c003feacd89a6c0ad010349cca579c031e828310d",
  "number": 110364,
  "timestamp": 1439972554,
  "nonce": "0x4adba1b8b487db4c",
  "difficulty": 4364956571603,
  "gasLimit": {
    "_hex": "0x2fefd8"
  },
  "gasUsed": {
    "_hex": "0x14820"
  },
  "miner": "0xA1623430350C5df1b52B0b57483A5bb45d1796Da",
  "extraData": "0x476574682f76312e302e312d38326566323666362f6c696e75782f676f312e34",
  "transactions": [
    {
      "hash": "0x319edb6b9f79a882718caa6681a5ff5333dcd0493fb8ea9611cfda619ca14d24",
      "blockHash": "0x94c8925712ad365e6bd966f91edcd3871e5f7b7ae1b4befdbcb52a4fab28ee86",
      "blockNumber": 110364,
      "transactionIndex": 0,
      "confirmations": null,
      "from": "0xabceA603089850F8f6bB612A9031554D90A247CF",
      "gasPrice": {
        "_hex": "0xd6a732d25"
      },
      "gasLimit": {
        "_hex": "0x5208"
      },
      "to": "0x32Be343B94f860124dC4fEe278FDCBD38C102D88",
      "value": {
        "_hex": "0x1bb6ed94cc5d41000"
      },
      "nonce": 33,
      "data": "0x",
      "r": "0xd82326af0d0646ffc90d34c547aa6ca67807d7e5d5573c854b1515d16f9e8017",
      "s": "0x33d7d65a50b9cbfaf43ba39b63e5d1c94fb3632bc3a2f3228311d24de3acfa9e",
      "v": 27,
      "creates": null,
      "raw": "0xf86d21850d6a732d258252089432be343b94f860124dc4fee278fdcbd38c102d888901bb6ed94cc5d41000801ba0d82326af0d0646ffc90d34c547aa6ca67807d7e5d5573c854b1515d16f9e8017a033d7d65a50b9cbfaf43ba39b63e5d1c94fb3632bc3a2f3228311d24de3acfa9e",
      "networkId": 0,
      "chainId": 0
    },
    {
      "hash": "0x7bf45091118952e6a87b4e4093087a8c342a6287f9bae43801ab60864e191a66",
      "blockHash": "0x94c8925712ad365e6bd966f91edcd3871e5f7b7ae1b4befdbcb52a4fab28ee86",
      "blockNumber": 110364,
      "transactionIndex": 1,
      "confirmations": null,
      "from": "0xc0920452d99591a4e8b190632c52754c72F73328",
      "gasPrice": {
        "_hex": "0xd6a732d25"
      },
      "gasLimit": {
        "_hex": "0x5208"
      },
      "to": "0x32Be343B94f860124dC4fEe278FDCBD38C102D88",
      "value": {
        "_hex": "0x284c8930ab72f2000"
      },
      "nonce": 10,
      "data": "0x",
      "r": "0x7cf7ae52d6b8e6065c491d8a9aec9c76d7ee1c93f027bd51f8ace3a273bfaf55",
      "s": "0x3ce4bdfca2f3d384334899d9895c56576c773219fc82e25fee2b919581581f62",
      "v": 27,
      "creates": null,
      "raw": "0xf86d0a850d6a732d258252089432be343b94f860124dc4fee278fdcbd38c102d88890284c8930ab72f2000801ba07cf7ae52d6b8e6065c491d8a9aec9c76d7ee1c93f027bd51f8ace3a273bfaf55a03ce4bdfca2f3d384334899d9895c56576c773219fc82e25fee2b919581581f62",
      "networkId": 0,
      "chainId": 0
    },
    {
      "hash": "0x93a66beb12bf809513ffe2a933091187c3de6228309b1e565b7944640ce1c2a1",
      "blockHash": "0x94c8925712ad365e6bd966f91edcd3871e5f7b7ae1b4befdbcb52a4fab28ee86",
      "blockNumber": 110364,
      "transactionIndex": 2,
      "confirmations": null,
      "from": "0xe7523F78ae9eDb81dC7B2A9ca718Ba3776C14f2e",
      "gasPrice": {
        "_hex": "0xd6a732d25"
      },
      "gasLimit": {
        "_hex": "0x5208"
      },
      "to": "0x32Be343B94f860124dC4fEe278FDCBD38C102D88",
      "value": {
        "_hex": "0x11c346c716e698000"
      },
      "nonce": 8,
      "data": "0x",
      "r": "0x1bd7d317414d0d742ecd28d57e70c9a464da8a1c69479aad30c96cb7da1bc172",
      "s": "0x1bd8085f003e9ef6063054449e857d5225238bc43e7f3db684fd1e2b6ab28db0",
      "v": 27,
      "creates": null,
      "raw": "0xf86d08850d6a732d258252089432be343b94f860124dc4fee278fdcbd38c102d8889011c346c716e698000801ba01bd7d317414d0d742ecd28d57e70c9a464da8a1c69479aad30c96cb7da1bc172a01bd8085f003e9ef6063054449e857d5225238bc43e7f3db684fd1e2b6ab28db0",
      "networkId": 0,
      "chainId": 0
    },
    {
      "hash": "0x1be1b1e1754f24bf938a48fe0ffbb44bf8c2a929e4b0107c8ce78ec8927824a0",
      "blockHash": "0x94c8925712ad365e6bd966f91edcd3871e5f7b7ae1b4befdbcb52a4fab28ee86",
      "blockNumber": 110364,
      "transactionIndex": 3,
      "confirmations": null,
      "from": "0xD924AAC0bCB65C13bE4044f6BeA8aAe34D7a7126",
      "gasPrice": {
        "_hex": "0xd6a732d25"
      },
      "gasLimit": {
        "_hex": "0x5208"
      },
      "to": "0x32Be343B94f860124dC4fEe278FDCBD38C102D88",
      "value": {
        "_hex": "0xbcb1a422f1c06800"
      },
      "nonce": 9,
      "data": "0x",
      "r": "0x9c6de048bc8c5898fb2425bc6d336b96b72eba3513e3af7b24c8567a82889e92",
      "s": "0x75828451e136993693526660a515a95100722e5565fa87de53ff7b1413b153a1",
      "v": 27,
      "creates": null,
      "raw": "0xf86c09850d6a732d258252089432be343b94f860124dc4fee278fdcbd38c102d8888bcb1a422f1c06800801ba09c6de048bc8c5898fb2425bc6d336b96b72eba3513e3af7b24c8567a82889e92a075828451e136993693526660a515a95100722e5565fa87de53ff7b1413b153a1",
      "networkId": 0,
      "chainId": 0
    }
  ]
}