{
  "hash": "0xc6ab389c6cfa4363dc6c56e5aa782e007348e51d51a3157ec8f7c1ae8cf204d9",
  "parentHash": "0x0460cff5b9f81ad195d31d629b0c23f433b0c63b2a00133a679aeb2916edb119",
  "number": 73942,
  "timestamp": 1439377858,
  "nonce": "0x7b25ca2c8e19079f",
  "difficulty": 2223848136430,
  "gasLimit": {
    "_hex": "0x2fefd8"
  },
  "gasUsed": {
    "_hex": "0x5208"
  },
  "miner": "0xa50ec0D39fa913E62f1Bae7074E6F36caA71855b",
  "extraData": "0x",
  "transactions": [
    {
      "hash": "0xcc289d3f077879c61b9041d17dafb7383ab13fdab165d28d652e390623e62bc9",
      "blockHash": "0xc6ab389c6cfa4363dc6c56e5aa782e007348e51d51a3157ec8f7c1ae8cf204d9",
      "blockNumber": 73942,
      "transactionIndex": 0,
      "confirmations": null,
      "from": "0x83816f103117f26a382c0ED30c21D0CF23f1D687",
      "gasPrice": {
        "_hex": "0x11b3297c415"
      },
      "gasLimit": {
        "_hex": "0x15f90"
      },
      "to": "0x33A095c66C480D7ceEFafD38b12919632854784F",
      "value": {
        "_hex": "0x1"
      },
      "nonce": 0,
      "data": "0x",
      "r": "0xbac213a6c302e1af164ef1e4386a7f520da664cd5527c758d126f18d957910f5",
      "s": "0x13ce387d6be8e554d3de4711d619130987cfe569da720d2f2a21bad395233cac",
      "v": 27,
      "creates": null,
      "raw": "0xf8668086011b3297c41583015f909433a095c66c480d7ceefafd38b12919632854784f01801ba0bac213a6c302e1af164ef1e4386a7f520da664cd5527c758d126f18d957910f5a013ce387d6be8e554d3de4711d619130987cfe569da720d2f2a21bad395233cac",
      "networkId": 0,
      "chainId": 0
    }
  ]
}