{
  "hash": "0x430cba909c12abdbb943549f80d6b9c98ce431c2fab5b897c312fd9f4c28c9a2",
  "parentHash": "0xbc4204655f6239f60fab312322a00d031653eb8f49b8aadc32b979721b95b261",
  "number": 64949,
  "timestamp": 1439228848,
  "nonce": "0x184c1966903e8e6f",
  "difficulty": 1914453534175,
  "gasLimit": {
    "_hex": "0x2fefd8"
  },
  "gasUsed": {
    "_hex": "0xa410"
  },
  "miner": "0x47ff6576639c2e94762eA5443978D7681C0E78DC",
  "extraData": "0x476574682f76312e302e312f6c696e75782f676f312e342e32",
  "transactions": [
    {
      "hash": "0xc632099f713103d6223682de8b42fa13900a5ea9cd63eede80ac008f6059f610",
      "blockHash": "0x430cba909c12abdbb943549f80d6b9c98ce431c2fab5b897c312fd9f4c28c9a2",
      "blockNumber": 64949,
      "transactionIndex": 0,
      "confirmations": null,
      "from": "0x4f76e660328594DC773d325cb594e6DA3C26F91F",
      "gasPrice": {
        "_hex": "0xba43b7400"
      },
      "gasLimit": {
        "_hex": "0x5208"
      },
      "to": "0x12e4342f7DDA76C35f95f3bc3B38962aF11eABF7",
      "value": {
        "_hex": "0x13572147582a000"
      },
      "nonce": 1,
      "data": "0x",
      "r": "0x65f4c8f64f050bfed805d597002aaa7caaf19fd434245fc7e93608fd5d97cc9e",
      "s": "0x4676bf52b202ad1ff86d55af7d4499ac50e1159535e9767357f287f7b1e009c0",
      "v": 27,
      "creates": null,
      "raw": "0xf86c01850ba43b74008252089412e4342f7dda76c35f95f3bc3b38962af11eabf788013572147582a000801ba065f4c8f64f050bfed805d597002aaa7caaf19fd434245fc7e93608fd5d97cc9ea04676bf52b202ad1ff86d55af7d4499ac50e1159535e9767357f287f7b1e009c0",
      "networkId": 0,
      "chainId": 0
    },
    {
      "hash": "0x33dd22384cda22d8928da96c4d5a288d5ca8f17bb4b804a6a490c2a8278391f1",
      "blockHash": "0x430cba909c12abdbb943549f80d6b9c98ce431c2fab5b897c312fd9f4c28c9a2",
      "blockNumber": 64949,
      "transactionIndex": 1,
      "confirmations": null,
      "from": "0xDEF560844D1D832517417AaeD10B0753Ce21EB46",
      "gasPrice": {
        "_hex": "0xba43b7400"
      },
      "gasLimit": {
        "_hex": "0x5208"
      },
      "to": "0x74cCE2aC834cF71B3B73e62e5Ec11BF94bb267F1",
      "value": {
        "_hex": "0x191fec7dbc46000"
      },
      "nonce": 1,
      "data": "0x",
      "r": "0xd9e4855847e76439a3400a8532345f81d85dc0613b9be13a5144d3d7ece6bae1",
      "s": "0x250db0be5cc6c6fa545bdff54561d3126e72543d9a1fc90cfba16a0b1129e8ae",
      "v": 28,
      "creates": null,
      "raw": "0xf86c01850ba43b74008252089474cce2ac834cf71b3b73e62e5ec11bf94bb267f1880191fec7dbc46000801ca0d9e4855847e76439a3400a8532345f81d85dc0613b9be13a5144d3d7ece6bae1a0250db0be5cc6c6fa545bdff54561d3126e72543d9a1fc90cfba16a0b1129e8ae",
      "networkId": 0,
      "chainId": 0
    }
  ]
}