{
  "hash": "0xbf4e9257f157eb386c35ec452d0f607340d352b82442e69dc2dd2247298116b7",
  "parentHash": "0xa6537378c4465fe086354657905a7cd388f63d767180a235a70aa349db291d74",
  "number": 121791,
  "timestamp": 1440182531,
  "nonce": "0x4b8f1def534149fe",
  "difficulty": 4508378002815,
  "gasLimit": {
    "_hex": "0x2fefd8"
  },
  "gasUsed": {
    "_hex": "0x5208"
  },
  "miner": "0xe6A7a1d47ff21B6321162AEA7C6CB457D5476Bca",
  "extraData": "0xd783010002844765746887676f312e342e32856c696e7578",
  "transactions": [
    {
      "hash": "0xb25800c6fa948f9b0fb080a12845c7ace35b7bc352c15870e7a5787b7be4522f",
      "blockHash": "0xbf4e9257f157eb386c35ec452d0f607340d352b82442e69dc2dd2247298116b7",
      "blockNumber": 121791,
      "transactionIndex": 0,
      "confirmations": null,
      "from": "0x1A22137e525478043F6E1394849e6C23932786C9",
      "gasPrice": {
        "_hex": "0xd1842e7a6"
      },
      "gasLimit": {
        "_hex": "0x5208"
      },
      "to": "0x0a41Be86378F36BA0823db204723693c0836a3E9",
      "value": {
        "_hex": "0x455f5f5414a996d0"
      },
      "nonce": 12,
      "data": "0x",
      "r": "0x45e0f155e0dc6ee6a93f6a4a4a9dea6786fc0dd9bab89a9f80d63a62148f9e49",
      "s": "0x4257fd50c914689cde93b419e59b4094dda17ab45fcbf7aeb4da44ee386f142a",
      "v": 27,
      "creates": null,
      "raw": "0xf86c0c850d1842e7a6825208940a41be86378f36ba0823db204723693c0836a3e988455f5f5414a996d0801ba045e0f155e0dc6ee6a93f6a4a4a9dea6786fc0dd9bab89a9f80d63a62148f9e49a04257fd50c914689cde93b419e59b4094dda17ab45fcbf7aeb4da44ee386f142a",
      "networkId": 0,
      "chainId": 0
    }
  ]
}