{
  "hash": "0x5c5b91c02c1e2324c9089d94c367211c58215db63fb678bc0c3fae4050eed567",
  "parentHash": "0x5aefaabae0f3b1c8bfa95450aa1271bffc7709e89f4d0416ec9efc5e79dce75f",
  "number": 98066,
  "timestamp": 1439766526,
  "nonce": "0x9ab5e4b89b16350f",
  "difficulty": 3869030480605,
  "gasLimit": {
    "_hex": "0x2fefd8"
  },
  "gasUsed": {
    "_hex": "0x5208"
  },
  "miner": "0xe6A7a1d47ff21B6321162AEA7C6CB457D5476Bca",
  "extraData": "0x476574682f76312e302e312d38326566323666362f6c696e75782f676f312e34",
  "transactions": [
    {
      "hash": "0xde4bfbeb469a348d015fbcaf952c99f8d87ac1db4179f3d5ba3d095bdec5cf64",
      "blockHash": "0x5c5b91c02c1e2324c9089d94c367211c58215db63fb678bc0c3fae4050eed567",
      "blockNumber": 98066,
      "transactionIndex": 0,
      "confirmations": null,
      "from": "0x4D67f4F0Db45b3B5a3424B39ed8d972F710381D5",
      "gasPrice": {
        "_hex": "0xd2859b176"
      },
      "gasLimit": {
        "_hex": "0x5208"
      },
      "to": "0x32Be343B94f860124dC4fEe278FDCBD38C102D88",
      "value": {
        "_hex": "0x33162a98aba3e6000"
      },
      "nonce": 16,
      "data": "0x",
      "r": "0xd46bfc54d95dec9c76a267aa26bd97567f5df06d0a6f209bc6af0ba2815dfade",
      "s": "0x0869dd71b5aa02423af9052e22109085bab9302f96bad7f68e5326b078410c05",
      "v": 28,
      "creates": null,
      "raw": "0xf86d10850d2859b1768252089432be343b94f860124dc4fee278fdcbd38c102d8889033162a98aba3e6000801ca0d46bfc54d95dec9c76a267aa26bd97567f5df06d0a6f209bc6af0ba2815dfadea00869dd71b5aa02423af9052e22109085bab9302f96bad7f68e5326b078410c05",
      "networkId": 0,
      "chainId": 0
    }
  ]
}