{
  "hash": "0x7827165d0d057fc9ef3f228a6b8f6827763c76225057a490fac042e1f2d30939",
  "parentHash": "0x55266f60c0f43bd1f0d00b3cbedd718be277714c263cbadacef6a16c2fd5beee",
  "number": 119821,
  "timestamp": 1440149251,
  "nonce": "0xefa95e7aef01bd15",
  "difficulty": 4404975884021,
  "gasLimit": {
    "_hex": "0x2fefd8"
  },
  "gasUsed": {
    "_hex": "0x5208"
  },
  "miner": "0x8df03bD37602d97980327B58D940258dC57007B3",
  "extraData": "0x",
  "transactions": [
    {
      "hash": "0x31242720d3f4dced1c77f5eb1691c71eea8dbf8225621a3de6a66580b2a9ed33",
      "blockHash": "0x7827165d0d057fc9ef3f228a6b8f6827763c76225057a490fac042e1f2d30939",
      "blockNumber": 119821,
      "transactionIndex": 0,
      "confirmations": null,
      "from": "0x007f7f58D3eb5b7510A301eCC749FC1fCDDBE14D",
      "gasPrice": {
        "_hex": "0xba43b7400"
      },
      "gasLimit": {
        "_hex": "0x15f90"
      },
      "to": "0xb1abce2918E21ddb93AA452731a12672A3d9F75a",
      "value": {
        "_hex": "0x4563918244f40000"
      },
      "nonce": 365,
      "data": "0x",
      "r": "0xbce0e0e0967f1b070e7339336fdf68d337f86ac7e3bb106386002dc162e821a3",
      "s": "0x1c18ffacd1f8d5de7e8e693b06d92d6d0f8f45db13032e3746998d604ac78565",
      "v": 28,
      "creates": null,
      "raw": "0xf86f82016d850ba43b740083015f9094b1abce2918e21ddb93aa452731a12672a3d9f75a884563918244f40000801ca0bce0e0e0967f1b070e7339336fdf68d337f86ac7e3bb106386002dc162e821a3a01c18ffacd1f8d5de7e8e693b06d92d6d0f8f45db13032e3746998d604ac78565",
      "networkId": 0,
      "chainId": 0
    }
  ]
}