{
  "hash": "0x96a94aecad32ac9be203c749e6796499ac72ed4779e5ee1be927e593fe288270",
  "parentHash": "0xd63e8e984d1d4e8ab2d15eef7d6effe0a4666713fed33fbf9a4a5973633a8b43",
  "number": 48922,
  "timestamp": 1438965101,
  "nonce": "0xe7a4642dd62cc5c9",
  "difficulty": 1480034538686,
  "gasLimit": {
    "_hex": "0x2133f"
  },
  "gasUsed": {
    "_hex": "0xa674"
  },
  "miner": "0xf927a40C8B7F6E07c5af7FA2155B4864a4112B13",
  "extraData": "0x476574682f76312e302e312f6c696e75782f676f312e342e32",
  "transactions": [
    {
      "hash": "0xbff0b159f7d2589c753952169c738d5ed8ade26a30df2585ad03f45c3303b38f",
      "blockHash": "0x96a94aecad32ac9be203c749e6796499ac72ed4779e5ee1be927e593fe288270",
      "blockNumber": 48922,
      "transactionIndex": 0,
      "confirmations": null,
      "from": "0x8aE9Ef8c8A8AdFA6AB798Ab2cdc405082A1bbb70",
      "gasPrice": {
        "_hex": "0x110c8f7d8de"
      },
      "gasLimit": {
        "_hex": "0xc350"
      },
      "to": "0x2910543Af39abA0Cd09dBb2D50200b3E800A63D2",
      "value": {
        "_hex": "0xde0b6b3a7640000"
      },
      "nonce": 0,
      "data": "0x454e44355738335a30",
      "r": "0x43a4990dda229c9731fc17df2a9b8843f89cbf24301ebb7d9149e87683ffefae",
      "s": "0x95e75ed3dd372cb5c2bce6fdcddb3541f357488bf21b3619f072d71bcc672168",
      "v": 27,
      "creates": null,
      "raw": "0xf87680860110c8f7d8de82c350942910543af39aba0cd09dbb2d50200b3e800a63d2880de0b6b3a764000089454e44355738335a301ba043a4990dda229c9731fc17df2a9b8843f89cbf24301ebb7d9149e87683ffefaea095e75ed3dd372cb5c2bce6fdcddb3541f357488bf21b3619f072d71bcc672168",
      "networkId": 0,
      "chainId": 0
    },
    {
      "hash": "0xb53f9b30c92e160a167c00faf1531c6efe8bc93396627f401dbc65e69eb1b67b",
      "blockHash": "0x96a94aecad32ac9be203c749e6796499ac72ed4779e5ee1be927e593fe288270",
      "blockNumber": 48922,
      "transactionIndex": 1,
      "confirmations": null,
      "from": "0x07BC2CC8eeDC01970700efC9c4Fb36735e98CD71",
      "gasPrice": {
        "_hex": "0xdcd97261a"
      },
      "gasLimit": {
        "_hex": "0x5208"
      },
      "to": "0x985D744C50fdcB355d105EE00565A8b32BF0B08f",
      "value": {
        "_hex": "0xde0b6b3a7640000"
      },
      "nonce": 3,
      "data": "0x",
      "r": "0xe5a8dbb61a6cd405a57d2afdcd969b3378d6b57d2f5b8b1bd6d3701d799f3a09",
      "s": "0x376e07f1be422ca20ccc83dfe0ecb26330b9739bf4706f34d02c0227afd0d865",
      "v": 27,
      "creates": null,
      "raw": "0xf86c03850dcd97261a82520894985d744c50fdcb355d105ee00565a8b32bf0b08f880de0b6b3a7640000801ba0e5a8dbb61a6cd405a57d2afdcd969b3378d6b57d2f5b8b1bd6d3701d799f3a09a0376e07f1be422ca20ccc83dfe0ecb26330b9739bf4706f34d02c0227afd0d865",
      "networkId": 0,
      "chainId": 0
    }
  ]
}