{
  "hash": "0x48c7ae8ba18335132124278f9bd400e3f1afd42529f65752fba50565ca1ce825",
  "parentHash": "0x42b2ce6cf2aa5dc9ea5df29d45015940d283e5142fa5aa962f454cffa5478225",
  "number": 59835,
  "timestamp": 1439144536,
  "nonce": "0xb5b14b0a698ff0c8",
  "difficulty": 1717151561127,
  "gasLimit": {
    "_hex": "0x2fefd5"
  },
  "gasUsed": {
    "_hex": "0x5208"
  },
  "miner": "0xbb7B8287f3F0a933474a79eAe42CBCa977791171",
  "extraData": "0x476574682f4c5649562f76312e302e312f6c696e75782f676f312e342e32",
  "transactions": [
    {
      "hash": "0xf47c50d9fd877c69a20bf3adf6c701ec34482cc70bfc66b994d7b07d8ea1298a",
      "blockHash": "0x48c7ae8ba18335132124278f9bd400e3f1afd42529f65752fba50565ca1ce825",
      "blockNumber": 59835,
      "transactionIndex": 0,
      "confirmations": null,
      "from": "0x32Be343B94f860124dC4fEe278FDCBD38C102D88",
      "gasPrice": {
        "_hex": "0xde0d936f9"
      },
      "gasLimit": {
        "_hex": "0x5208"
      },
      "to": "0xF8CDdB4300504E2827E28101BF15c9215658296c",
      "value": {
        "_hex": "0x8aa39c121a270000"
      },
      "nonce": 110,
      "data": "0x",
      "r": "0xdc19f1bd2f77f7258a145e728ba7064145bc038c130f240388f06f76fb340909",
      "s": "0x2f4cc6b68e9ecec4317bf19ed98fa84d4966fae97bdfed3b43af790caf7afdd0",
      "v": 27,
      "creates": null,
      "raw": "0xf86c6e850de0d936f982520894f8cddb4300504e2827e28101bf15c9215658296c888aa39c121a270000801ba0dc19f1bd2f77f7258a145e728ba7064145bc038c130f240388f06f76fb340909a02f4cc6b68e9ecec4317bf19ed98fa84d4966fae97bdfed3b43af790caf7afdd0",
      "networkId": 0,
      "chainId": 0
    }
  ]
}