{
  "hash": "0x82276ec9ee2f20106e7eeebfaab49934e62f539622dc1d76bcf84bb9ee41634c",
  "parentHash": "0xf539ec88ff9c76439fc8d8355a79e48ee3fb46219175a4613c90b2a4f58e02aa",
  "number": 48873,
  "timestamp": 1438964498,
  "nonce": "0x7468f984d01d540d",
  "difficulty": 1473553357752,
  "gasLimit": {
    "_hex": "0x2007f"
  },
  "gasUsed": {
    "_hex": "0xa8d8"
  },
  "miner": "0xdd2F1e6e498202e86D8f5442Af596580A4f03c2C",
  "extraData": "0x476574682f76312e302e312d38326566323666362f6c696e75782f676f312e34",
  "transactions": [
    {
      "hash": "0x500e68218353d52286a0885ecac62cd9e2d45ea34d12fea7404cf1602dcb8d2b",
      "blockHash": "0x82276ec9ee2f20106e7eeebfaab49934e62f539622dc1d76bcf84bb9ee41634c",
      "blockNumber": 48873,
      "transactionIndex": 0,
      "confirmations": null,
      "from": "0xbB4B4A4b548070fF41432C9e08a0ca6fa7BC9f76",
      "gasPrice": {
        "_hex": "0x10dc90d85e7"
      },
      "gasLimit": {
        "_hex": "0x15f90"
      },
      "to": "0x2910543Af39abA0Cd09dBb2D50200b3E800A63D2",
      "value": {
        "_hex": "0xde0b6b3a7640000"
      },
      "nonce": 0,
      "data": "0x454e44335155464830",
      "r": "0x35ee191b567e9f0d95d6548599c7df53c5eedf455556e17f854a330c40dfa033",
      "s": "0x32c8d714a7a1d90cec1d829d1e459107487e795cb1cf8dc5a54adfc7612a2db1",
      "v": 27,
      "creates": null,
      "raw": "0xf8778086010dc90d85e783015f90942910543af39aba0cd09dbb2d50200b3e800a63d2880de0b6b3a764000089454e443351554648301ba035ee191b567e9f0d95d6548599c7df53c5eedf455556e17f854a330c40dfa033a032c8d714a7a1d90cec1d829d1e459107487e795cb1cf8dc5a54adfc7612a2db1",
      "networkId": 0,
      "chainId": 0
    },
    {
      "hash": "0xf1737b241972eb4dc803a3b420632747418afa7c0eb6aa80fc62ce1c6f36b336",
      "blockHash": "0x82276ec9ee2f20106e7eeebfaab49934e62f539622dc1d76bcf84bb9ee41634c",
      "blockNumber": 48873,
      "transactionIndex": 1,
      "confirmations": null,
      "from": "0xd2a030ac8952325f9E1DB378A71485a24E1B07B2",
      "gasPrice": {
        "_hex": "0xd889db95f"
      },
      "gasLimit": {
        "_hex": "0x15f90"
      },
      "to": "0x2910543Af39abA0Cd09dBb2D50200b3E800A63D2",
      "value": {
        "_hex": "0x4563918244f40000"
      },
      "nonce": 0,
      "data": "0x454e514b454b313830",
      "r": "0x7788194c444780d77036ae8e8626f3b4f7ffa12e0ddeb690aeb8754e87da3e1f",
      "s": "0x3e8d606ad8595ed8e9623804b68d4325e8257ca96ab547728e201a14e29f3571",
      "v": 28,
      "creates": null,
      "raw": "0xf87680850d889db95f83015f90942910543af39aba0cd09dbb2d50200b3e800a63d2884563918244f4000089454e514b454b3138301ca07788194c444780d77036ae8e8626f3b4f7ffa12e0ddeb690aeb8754e87da3e1fa03e8d606ad8595ed8e9623804b68d4325e8257ca96ab547728e201a14e29f3571",
      "networkId": 0,
      "chainId": 0
    }
  ]
}