{
  "hash": "0x62d0f6b4cbf4d60b1c9150738217753698868aa5aaacf67d515ad3c894a69684",
  "parentHash": "0xdfd162fc42d3180f9225f3dd8276063123ff1e5aa82e51b670a2f344322c2bb1",
  "number": 75885,
  "timestamp": 1439411150,
  "nonce": "0x7f0ef10e2bd865f4",
  "difficulty": 2228767791390,
  "gasLimit": {
    "_hex": "0x2fefd8"
  },
  "gasUsed": {
    "_hex": "0xff7f"
  },
  "miner": "0xe6A7a1d47ff21B6321162AEA7C6CB457D5476Bca",
  "extraData": "0x476574682f76312e302e312d38326566323666362f6c696e75782f676f312e34",
  "transactions": [
    {
      "hash": "0x4097e14e67225620bc7657600eec23156750d61934f4728e02aa2d2ee780cf8e",
      "blockHash": "0x62d0f6b4cbf4d60b1c9150738217753698868aa5aaacf67d515ad3c894a69684",
      "blockNumber": 75885,
      "transactionIndex": 0,
      "confirmations": null,
      "from": "0x87C5B5874A18B4306DF8a752a6C8cc3E82daFc19",
      "gasPrice": {
        "_hex": "0x1169618a0d1"
      },
      "gasLimit": {
        "_hex": "0x493e0"
      },
      "to": "0xD79B4C6791784184e2755B2fC1659eaaB0f80456",
      "value": {
        "_hex": "0x0"
      },
      "nonce": 72,
      "data": "0x03750d940000000000000000000000009724ac4dc56e03379eba5d157d1513ecc32cbd8f3064303032633931333066373962356600000000000000000000000000000000",
      "r": "0xb3f09881b81d8fb97dfa6096b49116ea87917bf4a4128e9a46c58cf1fcec31c0",
      "s": "0x612d2f59b4fce35b7502ac0b6f3d163149f15bf964cc3e5ec2d03d74f8984b96",
      "v": 28,
      "creates": null,
      "raw": "0xf8ab488601169618a0d1830493e094d79b4c6791784184e2755b2fc1659eaab0f8045680b84403750d940000000000000000000000009724ac4dc56e03379eba5d157d1513ecc32cbd8f30643030326339313330663739623566000000000000000000000000000000001ca0b3f09881b81d8fb97dfa6096b49116ea87917bf4a4128e9a46c58cf1fcec31c0a0612d2f59b4fce35b7502ac0b6f3d163149f15bf964cc3e5ec2d03d74f8984b96",
      "networkId": 0,
      "chainId": 0
    },
    {
      "hash": "0xee5e71df0a4976281dd0f0130f46740fab4263f3b7c5ccc12c0a8e753aad5c31",
      "blockHash": "0x62d0f6b4cbf4d60b1c9150738217753698868aa5aaacf67d515ad3c894a69684",
      "blockNumber": 75885,
      "transactionIndex": 1,
      "confirmations": null,
      "from": "0x120A270bbC009644e35F0bB6ab13f95b8199c4ad",
      "gasPrice": {
        "_hex": "0xdbad2563f"
      },
      "gasLimit": {
        "_hex": "0x3d090"
      },
      "to": "0x0C834b0a01810533a5417Ee59c7bB6b5D3956A82",
      "value": {
        "_hex": "0x237c390632ecbfc400"
      },
      "nonce": 298,
      "data": "0x",
      "r": "0xba1cf666fa70bc80861f6d0bd21e354c57d659073a44902ca0006fbfae6b386f",
      "s": "0x3e15533b194ebe8f19b3ac95fab3b1237e83866d334eba90588e6631147a646e",
      "v": 28,
      "creates": null,
      "raw": "0xf87082012a850dbad2563f8303d090940c834b0a01810533a5417ee59c7bb6b5d3956a8289237c390632ecbfc400801ca0ba1cf666fa70bc80861f6d0bd21e354c57d659073a44902ca0006fbfae6b386fa03e15533b194ebe8f19b3ac95fab3b1237e83866d334eba90588e6631147a646e",
      "networkId": 0,
      "chainId": 0
    }
  ]
}