{
  "hash": "0x52d412229c925b26a01bd76a314be7b1822d795db95e97d27e50a0fd15dac7d1",
  "parentHash": "0x747ba5940e1728686b8f9de5a34e389908ed5c0df5ea0e2af8c50a403e15bc05",
  "number": 73706,
  "timestamp": 1439373442,
  "nonce": "0x6f7e822eab45fd43",
  "difficulty": 2226083550463,
  "gasLimit": {
    "_hex": "0x2fefd8"
  },
  "gasUsed": {
    "_hex": "0x5208"
  },
  "miner": "0x93641e54c9aA6F9038FE7Adb03629a1747326Cd6",
  "extraData": "0x476574682f76312e302e312f77696e646f77732f676f312e342e32",
  "transactions": [
    {
      "hash": "0x833cb14b62c4f1c49178cd63d67ffd03d6c8f08b0fedca7c76489b47889404be",
      "blockHash": "0x52d412229c925b26a01bd76a314be7b1822d795db95e97d27e50a0fd15dac7d1",
      "blockNumber": 73706,
      "transactionIndex": 0,
      "confirmations": null,
      "from": "0x120A270bbC009644e35F0bB6ab13f95b8199c4ad",
      "gasPrice": {
        "_hex": "0xd88001de2"
      },
      "gasLimit": {
        "_hex": "0x15f90"
      },
      "to": "0x7820DF13eFDFc7577598e844ae5eb3D2837bbA26",
      "value": {
        "_hex": "0x8ac7230489e80000"
      },
      "nonce": 259,
      "data": "0x",
      "r": "0x6ed8ea37abcf4115eadfe086e68b00a5dd27037769094f1fdbaff6cd45b8fd67",
      "s": "0x5e8613ebf3ffca09d1f49b4c805e1137c63c75e60fad29021b563529fff2da40",
      "v": 27,
      "creates": null,
      "raw": "0xf86f820103850d88001de283015f90947820df13efdfc7577598e844ae5eb3d2837bba26888ac7230489e80000801ba06ed8ea37abcf4115eadfe086e68b00a5dd27037769094f1fdbaff6cd45b8fd67a05e8613ebf3ffca09d1f49b4c805e1137c63c75e60fad29021b563529fff2da40",
      "networkId": 0,
      "chainId": 0
    }
  ]
}