{
  "hash": "0x21a24c2e6daf89d9c2365ae7baa8f3a3fe7858b994c720ae7594e8afa845d113",
  "parentHash": "0x5f1be67ddce18d606e329a079e8e0a6d0215b377fb3736ea41d6fbbd2bbbd15d",
  "number": 104815,
  "timestamp": 1439876292,
  "nonce": "0x2b22854bac43906e",
  "difficulty": 4344447696682,
  "gasLimit": {
    "_hex": "0x2fefd8"
  },
  "gasUsed": {
    "_hex": "0x5208"
  },
  "miner": "0xe6A7a1d47ff21B6321162AEA7C6CB457D5476Bca",
  "extraData": "0x476574682f76312e302e312d38326566323666362f6c696e75782f676f312e34",
  "transactions": [
    {
      "hash": "0x23226e4d9ea445f7beed8f57523d6c352078a3214b12f50e54c43579fed713aa",
      "blockHash": "0x21a24c2e6daf89d9c2365ae7baa8f3a3fe7858b994c720ae7594e8afa845d113",
      "blockNumber": 104815,
      "transactionIndex": 0,
      "confirmations": null,
      "from": "0x32Be343B94f860124dC4fEe278FDCBD38C102D88",
      "gasPrice": {
        "_hex": "0xd982b364d"
      },
      "gasLimit": {
        "_hex": "0x5208"
      },
      "to": "0x8f2b9132d3e24E492eA9521f4CE1A7F3b61ade37",
      "value": {
        "_hex": "0x1b87c8dc7158d400"
      },
      "nonce": 1156,
      "data": "0x",
      "r": "0x6afa3df5df7e973d270a928b62c4944369f875f46a70379d29d22cdad09daf91",
      "s": "0x0b6cdd1d13b0d190badf9e295ed9b5607a8927361b052d6c9583f34f9b31ead9",
      "v": 28,
      "creates": null,
      "raw": "0xf86e820484850d982b364d825208948f2b9132d3e24e492ea9521f4ce1a7f3b61ade37881b87c8dc7158d400801ca06afa3df5df7e973d270a928b62c4944369f875f46a70379d29d22cdad09daf91a00b6cdd1d13b0d190badf9e295ed9b5607a8927361b052d6c9583f34f9b31ead9",
      "networkId": 0,
      "chainId": 0
    }
  ]
}