{
  "hash": "0xf8b19c786c558cf2079336c68900c6a446772c5f1cad39f31576126aba43c106",
  "parentHash": "0x99c520ce19836bc1496a50b328e5802b8006400ece6ecfbd99b827621a4ae0d0",
  "number": 54904,
  "timestamp": 1439061974,
  "nonce": "0xb2de3a6c337309cf",
  "difficulty": 1616429183876,
  "gasLimit": {
    "_hex": "0x2fefd8"
  },
  "gasUsed": {
    "_hex": "0x5208"
  },
  "miner": "0x3f113041D56Dda809a245Fe338832c2D373e7c80",
  "extraData": "0x476574682f76312e302e312f77696e646f77732f676f312e342e32",
  "transactions": [
    {
      "hash": "0x9d5fe9894a73145147d1d8982e9c4e5e55aaba17055ed91a085b2a100be92d84",
      "blockHash": "0xf8b19c786c558cf2079336c68900c6a446772c5f1cad39f31576126aba43c106",
      "blockNumber": 54904,
      "transactionIndex": 0,
      "confirmations": null,
      "from": "0x1308A2e95c0160B90803ddCA9B9a5bb55E416d79",
      "gasPrice": {
        "_hex": "0xe8d4a51000"
      },
      "gasLimit": {
        "_hex": "0x15f90"
      },
      "to": "0x8C0289BE956871067742EcFCd1E7797f313eC7D4",
      "value": {
        "_hex": "0x1604d38696c79d800"
      },
      "nonce": 14,
      "data": "0x",
      "r": "0xad9b45964c40c15a193b858d339453c875433cbb29a6b7318e40ec89747000f5",
      "s": "0x7ed371e1b9e08d5f54a730d9db927b747092a6c7c2ad301b260484a8c6bc0f1e",
      "v": 28,
      "creates": null,
      "raw": "0xf86e0e85e8d4a5100083015f90948c0289be956871067742ecfcd1e7797f313ec7d48901604d38696c79d800801ca0ad9b45964c40c15a193b858d339453c875433cbb29a6b7318e40ec89747000f5a07ed371e1b9e08d5f54a730d9db927b747092a6c7c2ad301b260484a8c6bc0f1e",
      "networkId": 0,
      "chainId": 0
    }
  ]
}