{
  "hash": "0x5bc8c23af7b1d054256a3527eab8b87050df9347d73a02686e6c9400672bfb95",
  "parentHash": "0x15ad29781e7553c7f8f37659a847ed9b3e8d5cf7aefd963ae989c5d2439de946",
  "number": 46972,
  "timestamp": 1438932491,
  "nonce": "0xaf661f989dacd9f1",
  "difficulty": 1454583719453,
  "gasLimit": {
    "_hex": "0x8a9f"
  },
  "gasUsed": {
    "_hex": "0x5208"
  },
  "miner": "0xa50ec0D39fa913E62f1Bae7074E6F36caA71855b",
  "extraData": "0x476574682f76312e302e302f6c696e75782f676f312e342e32",
  "transactions": [
    {
      "hash": "0x689b37a23ecb90cc8252023feb71ec756c9ff0ad63ce7d2ecc7d21f0bce41141",
      "blockHash": "0x5bc8c23af7b1d054256a3527eab8b87050df9347d73a02686e6c9400672bfb95",
      "blockNumber": 46972,
      "transactionIndex": 0,
      "confirmations": null,
      "from": "0xe6A7a1d47ff21B6321162AEA7C6CB457D5476Bca",
      "gasPrice": {
        "_hex": "0xd7084f8b3"
      },
      "gasLimit": {
        "_hex": "0x5208"
      },
      "to": "0xD65B98DBBE8F63FA14139a10041Bba7E3A0d377D",
      "value": {
        "_hex": "0x1a41902a0e498850"
      },
      "nonce": 25,
      "data": "0x",
      "r": "0x3ad8f31acff66756ed8af17c6f7a60e8d1595b2944e11b2b77ba0e9a14a5eda2",
      "s": "0x07d01ea0c3f8397c2b205c514ee6f38c8f087f6597e90d041a61ee5e5553495f",
      "v": 28,
      "creates": null,
      "raw": "0xf86c19850d7084f8b382520894d65b98dbbe8f63fa14139a10041bba7e3a0d377d881a41902a0e498850801ca03ad8f31acff66756ed8af17c6f7a60e8d1595b2944e11b2b77ba0e9a14a5eda2a007d01ea0c3f8397c2b205c514ee6f38c8f087f6597e90d041a61ee5e5553495f",
      "networkId": 0,
      "chainId": 0
    }
  ]
}