{
  "hash": "0x3128cb6a56269979555ce5e14b086fa41c3be31274499362b30ef6c10f74b7cc",
  "parentHash": "0x293ae1e9ead6ae26ea7bb3c0efcccec133e43bef654eb283cf2fb33b6fa582c5",
  "number": 115862,
  "timestamp": 1440064648,
  "nonce": "0x893de627e1729a7e",
  "difficulty": 4549170997839,
  "gasLimit": {
    "_hex": "0x2fefd8"
  },
  "gasUsed": {
    "_hex": "0x5208"
  },
  "miner": "0x007f7f58D3eb5b7510A301eCC749FC1fCDDBE14D",
  "extraData": "0x476574682f76312e302e312f77696e646f77732f676f312e342e32",
  "transactions": [
    {
      "hash": "0x5cbb8016dee8ab2547de59693cf5ed93a7955902b7bd844365c99db1a6da2748",
      "blockHash": "0x3128cb6a56269979555ce5e14b086fa41c3be31274499362b30ef6c10f74b7cc",
      "blockNumber": 115862,
      "transactionIndex": 0,
      "confirmations": null,
      "from": "0xc597A5d92F5dC1137D847db733cfe02c6d209f13",
      "gasPrice": {
        "_hex": "0xba43b7400"
      },
      "gasLimit": {
        "_hex": "0x15f90"
      },
      "to": "0x4A2D52D0898f560E53cdf4585A034517c06d0544",
      "value": {
        "_hex": "0x26b768a92d6a1400"
      },
      "nonce": 51,
      "data": "0x",
      "r": "0xb624587d51936f1886ea4b19e13bdbb5ad58443e6ddb416fa9871842dc7ce900",
      "s": "0x0b75b03f4f9e8381690f37e7d7839aec87d6ec4f799ab4e0848ce9a421667ba3",
      "v": 28,
      "creates": null,
      "raw": "0xf86d33850ba43b740083015f90944a2d52d0898f560e53cdf4585a034517c06d05448826b768a92d6a1400801ca0b624587d51936f1886ea4b19e13bdbb5ad58443e6ddb416fa9871842dc7ce900a00b75b03f4f9e8381690f37e7d7839aec87d6ec4f799ab4e0848ce9a421667ba3",
      "networkId": 0,
      "chainId": 0
    }
  ]
}