{
  "hash": "0xb285eac21820b6cb9e0fa481b2b544aa10e703383e2055a367d0f69f267ed0d6",
  "parentHash": "0x9be132885b003030957cc41200a500e566333039c595d8809ff831e1702daa14",
  "number": 63465,
  "timestamp": 1439204855,
  "nonce": "0x72236747b28c4499",
  "difficulty": 1837844650731,
  "gasLimit": {
    "_hex": "0x2fefd8"
  },
  "gasUsed": {
    "_hex": "0x546c"
  },
  "miner": "0xbb7B8287f3F0a933474a79eAe42CBCa977791171",
  "extraData": "0x476574682f4c5649562f76312e302e312f6c696e75782f676f312e342e32",
  "transactions": [
    {
      "hash": "0x07792135edcd367186443736c98bd5644a29f2109ded146655202879e4874057",
      "blockHash": "0xb285eac21820b6cb9e0fa481b2b544aa10e703383e2055a367d0f69f267ed0d6",
      "blockNumber": 63465,
      "transactionIndex": 0,
      "confirmations": null,
      "from": "0xd78EcD25adC86bc2051D96f65364866B42A426B7",
      "gasPrice": {
        "_hex": "0x110c8f7d8de"
      },
      "gasLimit": {
        "_hex": "0xc350"
      },
      "to": "0x2910543Af39abA0Cd09dBb2D50200b3E800A63D2",
      "value": {
        "_hex": "0xd22c2eeec60d740000"
      },
      "nonce": 1,
      "data": "0x454e3359304d354538",
      "r": "0xbc0b301cce1e465952dcbc36d95e9f3b699713d39f2f23ac41c95e2f44e9aa42",
      "s": "0xe6422b93f6b217b6b346cd63dadffdfbccf816f349005a768e89e604f30dce0d",
      "v": 28,
      "creates": null,
      "raw": "0xf87701860110c8f7d8de82c350942910543af39aba0cd09dbb2d50200b3e800a63d289d22c2eeec60d74000089454e3359304d3545381ca0bc0b301cce1e465952dcbc36d95e9f3b699713d39f2f23ac41c95e2f44e9aa42a0e6422b93f6b217b6b346cd63dadffdfbccf816f349005a768e89e604f30dce0d",
      "networkId": 0,
      "chainId": 0
    }
  ]
}