{
  "hash": "0x885af9768fd681ab1b51795171a00fab261abecb8f0009ae66d57e521d2b453e",
  "parentHash": "0xd5f7ac5fb2c5043ea35e1dbef0ff83dbf8779ecb7e0fa752022d44f264c3af40",
  "number": 68980,
  "timestamp": 1439296644,
  "nonce": "0x7416c61d74dd7f91",
  "difficulty": 2031979186837,
  "gasLimit": {
    "_hex": "0x2fefd8"
  },
  "gasUsed": {
    "_hex": "0x12988c"
  },
  "miner": "0xbb7B8287f3F0a933474a79eAe42CBCa977791171",
  "extraData": "0x476574682f4c5649562f76312e302e312f6c696e75782f676f312e342e32",
  "transactions": [
    {
      "hash": "0x5090be591f334953c8535bcfa22d093b0d4d920e832b8d2557363ed6801f1e0b",
      "blockHash": "0x885af9768fd681ab1b51795171a00fab261abecb8f0009ae66d57e521d2b453e",
      "blockNumber": 68980,
      "transactionIndex": 0,
      "confirmations": null,
      "from": "0x2A944303d88Dd540AF3D420930321a12da1768cD",
      "gasPrice": {
        "_hex": "0xba43b7400"
      },
      "gasLimit": {
        "_hex": "0x15f90"
      },
      "to": "0x793AE8C1b1a160BFc07BFB0d04F85eab1A71F4f2",
      "value": {
        "_hex": "0x0"
      },
      "nonce": 0,
      "data": "0x3ba15036",
      "r": "0x15c9b22b47cd128b72c17c804fe707ec5d31d0bb46d7ddd3843f3cb45580b2d6",
      "s": "0x6fbebe0ba849f06a832a4bdb30600a0e17ac749ef3f0a3d1b9bc9722bc7e6eab",
      "v": 27,
      "creates": null,
      "raw": "0xf86980850ba43b740083015f9094793ae8c1b1a160bfc07bfb0d04f85eab1a71f4f280843ba150361ba015c9b22b47cd128b72c17c804fe707ec5d31d0bb46d7ddd3843f3cb45580b2d6a06fbebe0ba849f06a832a4bdb30600a0e17ac749ef3f0a3d1b9bc9722bc7e6eab",
      "networkId": 0,
      "chainId": 0
    },
    {
      "hash": "0xe84de8ac13e6a483e40e28bb1c03d06a2de583232015ead8e5486cccb0df7363",
      "blockHash": "0x885af9768fd681ab1b51795171a00fab261abecb8f0009ae66d57e521d2b453e",
      "blockNumber": 68980,
      "transactionIndex": 1,
      "confirmations": null,
      "from": "0xe77E4Cd54ac52c54ac0044110A74E5e6F0f5D866",
      "gasPrice": {
        "_hex": "0xba43b7400"
      },
      "gasLimit": {
        "_hex": "0x15f90"
      },
      "to": "0x793AE8C1b1a160BFc07BFB0d04F85eab1A71F4f2",
      "value": {
        "_hex": "0x0"
      },
      "nonce": 0,
      "data": "0x3ba15036",
      "r": "0xb41eeb631be0eeca2ff37819b6c162105f38ba88b67ee743ae2b6a4536527e7e",
      "s": "0x0da19d3fc0293725a9c7a0d276410f7fe57baed0fb4a6a6b3d8c65703ff2b1de",
      "v": 28,
      "creates": null,
      "raw": "0xf86980850ba43b740083015f9094793ae8c1b1a160bfc07bfb0d04f85eab1a71f4f280843ba150361ca0b41eeb631be0eeca2ff37819b6c162105f38ba88b67ee743ae2b6a4536527e7ea00da19d3fc0293725a9c7a0d276410f7fe57baed0fb4a6a6b3d8c65703ff2b1de",
      "networkId": 0,
      "chainId": 0
    },
    {
      "hash": "0x2a5f6bbab8273dca7c2881aeae3404c61e1ee1afeb9b43bcfe8caf98c1fb9b54",
      "blockHash": "0x885af9768fd681ab1b51795171a00fab261abecb8f0009ae66d57e521d2b453e",
      "blockNumber": 68980,
      "transactionIndex": 2,
      "confirmations": null,
      "from": "0xce9F1bdFe4fd7645C0f12b04027585C961771C43",
      "gasPrice": {
        "_hex": "0xba43b7400"
      },
      "gasLimit": {
        "_hex": "0x15f90"
      },
      "to": "0x793AE8C1b1a160BFc07BFB0d04F85eab1A71F4f2",
      "value": {
        "_hex": "0x0"
      },
      "nonce": 0,
      "data": "0x3ba15036",
      "r": "0x5315b0c430a1fcd1cafb883b5df1e0e9a3ecace6cc633ef55167b6dfd1bfdbb6",
      "s": "0x0e198af2604328e02670dc0a76769c3e7ee1cc504884d5f9dbb96a578a830786",
      "v": 27,
      "creates": null,
      "raw": "0xf86980850ba43b740083015f9094793ae8c1b1a160bfc07bfb0d04f85eab1a71f4f280843ba150361ba05315b0c430a1fcd1cafb883b5df1e0e9a3ecace6cc633ef55167b6dfd1bfdbb6a00e198af2604328e02670dc0a76769c3e7ee1cc504884d5f9dbb96a578a830786",
      "networkId": 0,
      "chainId": 0
    },
    {
      "hash": "0x7794dc5c4945e834401378b6ac80dd207b94e62526dec48ce9c1066f50c9bffd",
      "blockHash": "0x885af9768fd681ab1b51795171a00fab261abecb8f0009ae66d57e521d2b453e",
      "blockNumber": 68980,
      "transactionIndex": 3,
      "confirmations": null,
      "from": "0x6838c651d12C4f480EE8265D301c5a0e28Dc094E",
      "gasPrice": {
        "_hex": "0xba43b7400"
      },
      "gasLimit": {
        "_hex": "0x15f90"
      },
      "to": "0x793AE8C1b1a160BFc07BFB0d04F85eab1A71F4f2",
      "value": {
        "_hex": "0x0"
      },
      "nonce": 0,
      "data": "0x3ba15036",
      "r": "0x5705673f97b64584a0297856e335d9c00e5b106dde4d888ae5345a33a98f7704",
      "s": "0x4f72e179bee5834de3b96112a7ca7bb89802fcd3ed7ca72ed8532fcba691be43",
      "v": 27,
      "creates": null,
      "raw": "0xf86980850ba43b740083015f9094793ae8c1b1a160bfc07bfb0d04f85eab1a71f4f280843ba150361ba05705673f97b64584a0297856e335d9c00e5b106dde4d888ae5345a33a98f7704a04f72e179bee5834de3b96112a7ca7bb89802fcd3ed7ca72ed8532fcba691be43",
      "networkId": 0,
      "chainId": 0
    },
    {
      "hash": "0xc831a1c926b48628ec58b87906ac20eb834e1620e09637ede63309f714662a74",
      "blockHash": "0x885af9768fd681ab1b51795171a00fab261abecb8f0009ae66d57e521d2b453e",
      "blockNumber": 68980,
      "transactionIndex": 4,
      "confirmations": null,
      "from": "0x0b05926d0C7bb126d9e887225F540966Bc3Ad15e",
      "gasPrice": {
        "_hex": "0xba43b7400"
      },
      "gasLimit": {
        "_hex": "0x15f90"
      },
      "to": "0x793AE8C1b1a160BFc07BFB0d04F85eab1A71F4f2",
      "value": {
        "_hex": "0x0"
      },
      "nonce": 0,
      "data": "0x3ba15036",
      "r": "0x99994c9b254db3be74cb500d415f3815b6a6e683e4bf8e721df2d2fba3b2593e",
      "s": "0x01532d24ea41c6af3522e9808dc9f68bebcaf3bf587235112ab086acc9c26240",
      "v": 27,
      "creates": null,
      "raw": "0xf86980850ba43b740083015f9094793ae8c1b1a160bfc07bfb0d04f85eab1a71f4f280843ba150361ba099994c9b254db3be74cb500d415f3815b6a6e683e4bf8e721df2d2fba3b2593ea001532d24ea41c6af3522e9808dc9f68bebcaf3bf587235112ab086acc9c26240",
      "networkId": 0,
      "chainId": 0
    },
    {
      "hash": "0xda6b7c0069462f287bb7c76be8a9e8ea3d2d376aabaedb388440e214dcbdd7b3",
      "blockHash": "0x885af9768fd681ab1b51795171a00fab261abecb8f0009ae66d57e521d2b453e",
      "blockNumber": 68980,
      "transactionIndex": 5,
      "confirmations": null,
      "from": "0xc7065529F5241E275691A8B2668Ce69Ed85e81C6",
      "gasPrice": {
        "_hex": "0xba43b7400"
      },
      "gasLimit": {
        "_hex": "0x15f90"
      },
      "to": "0x793AE8C1b1a160BFc07BFB0d04F85eab1A71F4f2",
      "value": {
        "_hex": "0x0"
      },
      "nonce": 0,
      "data": "0x3ba15036",
      "r": "0xc47495021ccd4870f40b8e831bea9d185e87c203a59ffbc3d2c825878e394362",
      "s": "0x77b31123071d80040ed2703df9a20a32ea4a76782f6aff9b15ecec5bfe1b705a",
      "v": 27,
      "creates": null,
      "raw": "0xf86980850ba43b740083015f9094793ae8c1b1a160bfc07bfb0d04f85eab1a71f4f280843ba150361ba0c47495021ccd4870f40b8e831bea9d185e87c203a59ffbc3d2c825878e394362a077b31123071d80040ed2703df9a20a32ea4a76782f6aff9b15ecec5bfe1b705a",
      "networkId": 0,
      "chainId": 0
    },
    {
      "hash": "0x3083d26ea0b7e2b4460c917c910738ce0b86d2e5da5d919181330e8ba2c39787",
      "blockHash": "0x885af9768fd681ab1b51795171a00fab261abecb8f0009ae66d57e521d2b453e",
      "blockNumber": 68980,
      "transactionIndex": 6,
      "confirmations": null,
      "from": "0x945b8bB577b63D6E90Db177435dF44E695d447a4",
      "gasPrice": {
        "_hex": "0xba43b7400"
      },
      "gasLimit": {
        "_hex": "0x15f90"
      },
      "to": "0x793AE8C1b1a160BFc07BFB0d04F85eab1A71F4f2",
      "value": {
        "_hex": "0x0"
      },
      "nonce": 0,
      "data": "0x3ba15036",
      "r": "0x207b5d0c15c5e3bed0c851af94dee2de265412ada0da7e7cad72b6e1cf1ba806",
      "s": "0x12ed4824271c63c7bff0579c12122eb03ce53c59cac626745c1fae0d7093a0c9",
      "v": 27,
      "creates": null,
      "raw": "0xf86980850ba43b740083015f9094793ae8c1b1a160bfc07bfb0d04f85eab1a71f4f280843ba150361ba0207b5d0c15c5e3bed0c851af94dee2de265412ada0da7e7cad72b6e1cf1ba806a012ed4824271c63c7bff0579c12122eb03ce53c59cac626745c1fae0d7093a0c9",
      "networkId": 0,
      "chainId": 0
    },
    {
      "hash": "0xd8bd9d8506a48db88b7baf2574ec77d9bfb4a8bf5c3b7e0452bfb70ec75d9d93",
      "blockHash": "0x885af9768fd681ab1b51795171a00fab261abecb8f0009ae66d57e521d2b453e",
      "blockNumber": 68980,
      "transactionIndex": 7,
      "confirmations": null,
      "from": "0x4631231db5eE40CbFDA9C53cdC004De42078C60F",
      "gasPrice": {
        "_hex": "0xba43b7400"
      },
      "gasLimit": {
        "_hex": "0x15f90"
      },
      "to": "0x793AE8C1b1a160BFc07BFB0d04F85eab1A71F4f2",
      "value": {
        "_hex": "0x0"
      },
      "nonce": 0,
      "data": "0x3ba15036",
      "r": "0x98c74cedbf69461568c859e31b554f723ac00ffc60a788b48a1aac084150b6b2",
      "s": "0x776e459b6b006a3e80b4545c1ac3219d24559ad6031d63548c41744e57ad123d",
      "v": 28,
      "creates": null,
      "raw": "0xf86980850ba43b740083015f9094793ae8c1b1a160bfc07bfb0d04f85eab1a71f4f280843ba150361ca098c74cedbf69461568c859e31b554f723ac00ffc60a788b48a1aac084150b6b2a0776e459b6b006a3e80b4545c1ac3219d24559ad6031d63548c41744e57ad123d",
      "networkId": 0,
      "chainId": 0
    },
    {
      "hash": "0x92e1711187b29ecc2736ef669d0f4878d41b7c62ac384424d81e323a067103a8",
      "blockHash": "0x885af9768fd681ab1b51795171a00fab261abecb8f0009ae66d57e521d2b453e",
      "blockNumber": 68980,
      "transactionIndex": 8,
      "confirmations": null,
      "from": "0x35135686EdeEEff7fcFa274625b5A0d192389BF5",
      "gasPrice": {
        "_hex": "0xba43b7400"
      },
      "gasLimit": {
        "_hex": "0x15f90"
      },
      "to": "0x793AE8C1b1a160BFc07BFB0d04F85eab1A71F4f2",
      "value": {
        "_hex": "0x0"
      },
      "nonce": 0,
      "data": "0x3ba15036",
      "r": "0x9eb219f14eefc3cf4645e757d28de4979ae5a24b1eee717831e543f9b852dbbc",
      "s": "0x1cd7afd6cc0f23344b2b33e81957d41ce373607b751a559e74acc091099644b6",
      "v": 27,
      "creates": null,
      "raw": "0xf86980850ba43b740083015f9094793ae8c1b1a160bfc07bfb0d04f85eab1a71f4f280843ba150361ba09eb219f14eefc3cf4645e757d28de4979ae5a24b1eee717831e543f9b852dbbca01cd7afd6cc0f23344b2b33e81957d41ce373607b751a559e74acc091099644b6",
      "networkId": 0,
      "chainId": 0
    },
    {
      "hash": "0xbd36344d22ff8e2b24c4bff03e9e78a5c23bf0ee022ab72e852e501f61d39cd4",
      "blockHash": "0x885af9768fd681ab1b51795171a00fab261abecb8f0009ae66d57e521d2b453e",
      "blockNumber": 68980,
      "transactionIndex": 9,
      "confirmations": null,
      "from": "0x5eC11323AAd8ff77ad0B217675dD9ce22d5cD6C7",
      "gasPrice": {
        "_hex": "0xba43b7400"
      },
      "gasLimit": {
        "_hex": "0x15f90"
      },
      "to": "0x793AE8C1b1a160BFc07BFB0d04F85eab1A71F4f2",
      "value": {
        "_hex": "0x0"
      },
      "nonce": 0,
      "data": "0x3ba15036",
      "r": "0xebe136552872cb90b7cdc536b811347d966475fced8043e7d9bc268a2a5eaffa",
      "s": "0x56c7d0f7609df9223752f9b714d4480a413e2c5a42c27e92240171995187e277",
      "v": 28,
      "creates": null,
      "raw": "0xf86980850ba43b740083015f9094793ae8c1b1a160bfc07bfb0d04f85eab1a71f4f280843ba150361ca0ebe136552872cb90b7cdc536b811347d966475fced8043e7d9bc268a2a5eaffaa056c7d0f7609df9223752f9b714d4480a413e2c5a42c27e92240171995187e277",
      "networkId": 0,
      "chainId": 0
    },
    {
      "hash": "0xa82eed76765a2de6eae9b7143cfe9b38b801faec7273df9ffd70b308667bc8c5",
      "blockHash": "0x885af9768fd681ab1b51795171a00fab261abecb8f0009ae66d57e521d2b453e",
      "blockNumber": 68980,
      "transactionIndex": 10,
      "confirmations": null,
      "from": "0x12ac39dD0296A50E0A1CdFcCe5EE39044c7A4c09",
      "gasPrice": {
        "_hex": "0xba43b7400"
      },
      "gasLimit": {
        "_hex": "0x15f90"
      },
      "to": "0x793AE8C1b1a160BFc07BFB0d04F85eab1A71F4f2",
      "value": {
        "_hex": "0x0"
      },
      "nonce": 0,
      "data": "0x3ba15036",
      "r": "0xf09a3d48cb1715e18967d7e3e76685cc757c4242454fddb074c96422aee3ab16",
      "s": "0x243666803b99796d4d6ac819aa614ac04504723da2a4509af0758a2597c6d228",
      "v": 28,
      "creates": null,
      "raw": "0xf86980850ba43b740083015f9094793ae8c1b1a160bfc07bfb0d04f85eab1a71f4f280843ba150361ca0f09a3d48cb1715e18967d7e3e76685cc757c4242454fddb074c96422aee3ab16a0243666803b99796d4d6ac819aa614ac04504723da2a4509af0758a2597c6d228",
      "networkId": 0,
      "chainId": 0
    },
    {
      "hash": "0xd1c6130a61e74604cf747fed50188d269accd0162e65de5caccd82a5326098ac",
      "blockHash": "0x885af9768fd681ab1b51795171a00fab261abecb8f0009ae66d57e521d2b453e",
      "blockNumber": 68980,
      "transactionIndex": 11,
      "confirmations": null,
      "from": "0xEE9b9C61e19B593Ee27b93d29fBE82E9EC0B0DF4",
      "gasPrice": {
        "_hex": "0xba43b7400"
      },
      "gasLimit": {
        "_hex": "0x15f90"
      },
      "to": "0x793AE8C1b1a160BFc07BFB0d04F85eab1A71F4f2",
      "value": {
        "_hex": "0x0"
      },
      "nonce": 0,
      "data": "0x3ba15036",
      "r": "0x8fc79d2f9f2e82a0a0e1c4183b206d11b5d4c3c98dcaca1daab280d55ac819ca",
      "s": "0x3678a05b0b9c5da3e530b0d96819aff3831fceeab7ca11aa3b077efeee4b1c4b",
      "v": 28,
      "creates": null,
      "raw": "0xf86980850ba43b740083015f9094793ae8c1b1a160bfc07bfb0d04f85eab1a71f4f280843ba150361ca08fc79d2f9f2e82a0a0e1c4183b206d11b5d4c3c98dcaca1daab280d55ac819caa03678a05b0b9c5da3e530b0d96819aff3831fceeab7ca11aa3b077efeee4b1c4b",
      "networkId": 0,
      "chainId": 0
    },
    {
      "hash": "0xe5cb91a7aaf9bb1a226dcf651e7803472c2a11e5c94fca14e824b5da6246a718",
      "blockHash": "0x885af9768fd681ab1b51795171a00fab261abecb8f0009ae66d57e521d2b453e",
      "blockNumber": 68980,
      "transactionIndex": 12,
      "confirmations": null,
      "from": "0xB77BEA7F1926D55dAB9eeEADD72b490c90eBCCc9",
      "gasPrice": {
        "_hex": "0xba43b7400"
      },
      "gasLimit": {
        "_hex": "0x15f90"
      },
      "to": "0x793AE8C1b1a160BFc07BFB0d04F85eab1A71F4f2",
      "value": {
        "_hex": "0x0"
      },
      "nonce": 0,
      "data": "0x3ba15036",
      "r": "0x20d07618fbaf07b28d3698b34e81384da4d329761275ae7ed6aa22c8d242b753",
      "s": "0x5ee1c0177194ee3d2fe85f26511783f3c11dce3d51119683d33ad620581d3dca",
      "v": 27,
      "creates": null,
      "raw": "0xf86980850ba43b740083015f9094793ae8c1b1a160bfc07bfb0d04f85eab1a71f4f280843ba150361ba020d07618fbaf07b28d3698b34e81384da4d329761275ae7ed6aa22c8d242b753a05ee1c0177194ee3d2fe85f26511783f3c11dce3d51119683d33ad620581d3dca",
      "networkId": 0,
      "chainId": 0
    },
    {
      "hash": "0x66dc8204f7dc22d605b6b5aacaa527f8523468af3ed7b700c0b01099ad4dbee1",
      "blockHash": "0x885af9768fd681ab1b51795171a00fab261abecb8f0009ae66d57e521d2b453e",
      "blockNumber": 68980,
      "transactionIndex": 13,
      "confirmations": null,
      "from": "0x32D6e7c7F78B3E2B7dA62bEac24Ff0691113ad31",
      "gasPrice": {
        "_hex": "0xba43b7400"
      },
      "gasLimit": {
        "_hex": "0x15f90"
      },
      "to": "0x793AE8C1b1a160BFc07BFB0d04F85eab1A71F4f2",
      "value": {
        "_hex": "0x0"
      },
      "nonce": 0,
      "data": "0x3ba15036",
      "r": "0xa47ce969b6cb9f64b5fa6d43a4cdcf655367070ed6f8736616a6b02406162c67",
      "s": "0x6db040409b3a471742195973afe18492adc20066a6ac8c2a7add25f65e30bdda",
      "v": 27,
      "creates": null,
      "raw": "0xf86980850ba43b740083015f9094793ae8c1b1a160bfc07bfb0d04f85eab1a71f4f280843ba150361ba0a47ce969b6cb9f64b5fa6d43a4cdcf655367070ed6f8736616a6b02406162c67a06db040409b3a471742195973afe18492adc20066a6ac8c2a7add25f65e30bdda",
      "networkId": 0,
      "chainId": 0
    },
    {
      "hash": "0xb40999e7775061b25206dc2f250b09ba404bcb2b29a3efe167cb99507da107ec",
      "blockHash": "0x885af9768fd681ab1b51795171a00fab261abecb8f0009ae66d57e521d2b453e",
      "blockNumber": 68980,
      "transactionIndex": 14,
      "confirmations": null,
      "from": "0x7b1265a639f62aB2e429ff09E5C0B61FE12258A9",
      "gasPrice": {
        "_hex": "0xba43b7400"
      },
      "gasLimit": {
        "_hex": "0x15f90"
      },
      "to": "0x793AE8C1b1a160BFc07BFB0d04F85eab1A71F4f2",
      "value": {
        "_hex": "0x0"
      },
      "nonce": 0,
      "data": "0x3ba15036",
      "r": "0xb805b5c1cfe1246045018d33d8fbf5cff9eadbda7c77e340d236f0adba708cb8",
      "s": "0x7d9f7c4843215d92c4d9549c21912feaeaa60e2590e94666ad656ecb881f0252",
      "v": 27,
      "creates": null,
      "raw": "0xf86980850ba43b740083015f9094793ae8c1b1a160bfc07bfb0d04f85eab1a71f4f280843ba150361ba0b805b5c1cfe1246045018d33d8fbf5cff9eadbda7c77e340d236f0adba708cb8a07d9f7c4843215d92c4d9549c21912feaeaa60e2590e94666ad656ecb881f0252",
      "networkId": 0,
      "chainId": 0
    },
    {
      "hash": "0xddc7a54d37e0d188008e6f09a0c12c32c3c2b2853610c0fb77b3159cc27ebeed",
      "blockHash": "0x885af9768fd681ab1b51795171a00fab261abecb8f0009ae66d57e521d2b453e",
      "blockNumber": 68980,
      "transactionIndex": 15,
      "confirmations": null,
      "from": "0x08bb20cC013f31D2de9dD4AF72e0F38433587b48",
      "gasPrice": {
        "_hex": "0xba43b7400"
      },
      "gasLimit": {
        "_hex": "0x15f90"
      },
      "to": "0x793AE8C1b1a160BFc07BFB0d04F85eab1A71F4f2",
      "value": {
        "_hex": "0x0"
      },
      "nonce": 0,
      "data": "0x3ba15036",
      "r": "0x04ca3fa8a36ff5cbb452b755367478eb19b84f08f47a83a5647c0debd3222175",
      "s": "0x6af16022810b23e05bd8c9b057d71dda2607233e5ec3efbe4814b459d23fb88e",
      "v": 27,
      "creates": null,
      "raw": "0xf86980850ba43b740083015f9094793ae8c1b1a160bfc07bfb0d04f85eab1a71f4f280843ba150361ba004ca3fa8a36ff5cbb452b755367478eb19b84f08f47a83a5647c0debd3222175a06af16022810b23e05bd8c9b057d71dda2607233e5ec3efbe4814b459d23fb88e",
      "networkId": 0,
      "chainId": 0
    },
    {
      "hash": "0x68ce3990ec0fb3a4f2f347b28e00cb34b570702e506d2054b82c1b0e4289912f",
      "blockHash": "0x885af9768fd681ab1b51795171a00fab261abecb8f0009ae66d57e521d2b453e",
      "blockNumber": 68980,
      "transactionIndex": 16,
      "confirmations": null,
      "from": "0x89e99e52cdb7f1270C9079b4eAa7CA7851aa1917",
      "gasPrice": {
        "_hex": "0xba43b7400"
      },
      "gasLimit": {
        "_hex": "0x15f90"
      },
      "to": "0x793AE8C1b1a160BFc07BFB0d04F85eab1A71F4f2",
      "value": {
        "_hex": "0x0"
      },
      "nonce": 0,
      "data": "0x3ba15036",
      "r": "0xe64fcd48b6a023979241b7233d53a0757d12486c1634e0d1f4457a1eeda3b80a",
      "s": "0x3226c7018c77bc40dc65a8499f4aa82561ca4d3865403c58d3f218658af66953",
      "v": 27,
      "creates": null,
      "raw": "0xf86980850ba43b740083015f9094793ae8c1b1a160bfc07bfb0d04f85eab1a71f4f280843ba150361ba0e64fcd48b6a023979241b7233d53a0757d12486c1634e0d1f4457a1eeda3b80aa03226c7018c77bc40dc65a8499f4aa82561ca4d3865403c58d3f218658af66953",
      "networkId": 0,
      "chainId": 0
    },
    {
      "hash": "0xc04ca6b63810178255158637b2a0b4d7e4ebc0ed224842520d7ad31973d55534",
      "blockHash": "0x885af9768fd681ab1b51795171a00fab261abecb8f0009ae66d57e521d2b453e",
      "blockNumber": 68980,
      "transactionIndex": 17,
      "confirmations": null,
      "from": "0x0Fc5AC27128A1437b3E17FE25B1797EeF18cf7Fc",
      "gasPrice": {
        "_hex": "0xba43b7400"
      },
      "gasLimit": {
        "_hex": "0x15f90"
      },
      "to": "0x793AE8C1b1a160BFc07BFB0d04F85eab1A71F4f2",
      "value": {
        "_hex": "0x0"
      },
      "nonce": 0,
      "data": "0x3ba15036",
      "r": "0xb4e9be9d46dc419b742abf99d129ca6ac902a35a5dae847859e9a37a564329bf",
      "s": "0x1265a076a283cb397095a4ccdbed9b957f9105fa29e4fec0017252e4f24b6bf5",
      "v": 27,
      "creates": null,
      "raw": "0xf86980850ba43b740083015f9094793ae8c1b1a160bfc07bfb0d04f85eab1a71f4f280843ba150361ba0b4e9be9d46dc419b742abf99d129ca6ac902a35a5dae847859e9a37a564329bfa01265a076a283cb397095a4ccdbed9b957f9105fa29e4fec0017252e4f24b6bf5",
      "networkId": 0,
      "chainId": 0
    },
    {
      "hash": "0x99d43196918fe3b6cfa3ccf8053fbc641cf1da353719b5d51f485a24a1816f08",
      "blockHash": "0x885af9768fd681ab1b51795171a00fab261abecb8f0009ae66d57e521d2b453e",
      "blockNumber": 68980,
      "transactionIndex": 18,
      "confirmations": null,
      "from": "0xADDC448f8813e079fAC7D443B95143DF05DEEa17",
      "gasPrice": {
        "_hex": "0xba43b7400"
      },
      "gasLimit": {
        "_hex": "0x15f90"
      },
      "to": "0x793AE8C1b1a160BFc07BFB0d04F85eab1A71F4f2",
      "value": {
        "_hex": "0x0"
      },
      "nonce": 0,
      "data": "0x3ba15036",
      "r": "0x6e3883cec526961671bfac62e1979dbfeefd3cde380e0460d9750fae168637fd",
      "s": "0x3b69d8c46e6cd59407b161123db5bf05ea40622a81f572cd30b9e7e28dcb4792",
      "v": 28,
      "creates": null,
      "raw": "0xf86980850ba43b740083015f9094793ae8c1b1a160bfc07bfb0d04f85eab1a71f4f280843ba150361ca06e3883cec526961671bfac62e1979dbfeefd3cde380e0460d9750fae168637fda03b69d8c46e6cd59407b161123db5bf05ea40622a81f572cd30b9e7e28dcb4792",
      "networkId": 0,
      "chainId": 0
    },
    {
      "hash": "0x892aa1b2534929205992f2da6a736accb0321de29604bf1f0352bb22d71dc0c0",
      "blockHash": "0x885af9768fd681ab1b51795171a00fab261abecb8f0009ae66d57e521d2b453e",
      "blockNumber": 68980,
      "transactionIndex": 19,
      "confirmations": null,
      "from": "0x2FE7011213574dDFF4EecCDdBF6154815b34D475",
      "gasPrice": {
        "_hex": "0xba43b7400"
      },
      "gasLimit": {
        "_hex": "0x15f90"
      },
      "to": "0x793AE8C1b1a160BFc07BFB0d04F85eab1A71F4f2",
      "value": {
        "_hex": "0x0"
      },
      "nonce": 0,
      "data": "0x3ba15036",
      "r": "0xf8e63e481dcf8d0c8c19edd812072138e330c71bc4162c38d87d8021d852e98a",
      "s": "0x6c9b686a8c9b255fab744e2be4fc2ce819d44f9ed6d5d1e259c4fd9a5ccd96df",
      "v": 28,
      "creates": null,
      "raw": "0xf86980850ba43b740083015f9094793ae8c1b1a160bfc07bfb0d04f85eab1a71f4f280843ba150361ca0f8e63e481dcf8d0c8c19edd812072138e330c71bc4162c38d87d8021d852e98aa06c9b686a8c9b255fab744e2be4fc2ce819d44f9ed6d5d1e259c4fd9a5ccd96df",
      "networkId": 0,
      "chainId": 0
    },
    {
      "hash": "0x5503eca8fe40625e5323eb799ea87e81262f0be88c00cde9fa964b9a4168a166",
      "blockHash": "0x885af9768fd681ab1b51795171a00fab261abecb8f0009ae66d57e521d2b453e",
      "blockNumber": 68980,
      "transactionIndex": 20,
      "confirmations": null,
      "from": "0x4DEd26f6128464a4463e60daD9d5777dc256113D",
      "gasPrice": {
        "_hex": "0xba43b7400"
      },
      "gasLimit": {
        "_hex": "0x15f90"
      },
      "to": "0x793AE8C1b1a160BFc07BFB0d04F85eab1A71F4f2",
      "value": {
        "_hex": "0x0"
      },
      "nonce": 0,
      "data": "0x3ba15036",
      "r": "0x8d82eb94339f71ecb23e04da635acb981d154bb10ac0abec1a8157f95cdaadde",
      "s": "0x54bd25d9619e17890c0a3bb0bbe53ab889465aed3f38be84c1abb799a9628a20",
      "v": 27,
      "creates": null,
      "raw": "0xf86980850ba43b740083015f9094793ae8c1b1a160bfc07bfb0d04f85eab1a71f4f280843ba150361ba08d82eb94339f71ecb23e04da635acb981d154bb10ac0abec1a8157f95cdaaddea054bd25d9619e17890c0a3bb0bbe53ab889465aed3f38be84c1abb799a9628a20",
      "networkId": 0,
      "chainId": 0
    },
    {
      "hash": "0x8e5cee17ea0781dcabf7739068226c4bc0bbb209c65b855dbdb66a4278708958",
      "blockHash": "0x885af9768fd681ab1b51795171a00fab261abecb8f0009ae66d57e521d2b453e",
      "blockNumber": 68980,
      "transactionIndex": 21,
      "confirmations": null,
      "from": "0x87fF35159949ce8F983Ad1730724F174f763a60C",
      "gasPrice": {
        "_hex": "0xba43b7400"
      },
      "gasLimit": {
        "_hex": "0x15f90"
      },
      "to": "0x793AE8C1b1a160BFc07BFB0d04F85eab1A71F4f2",
      "value": {
        "_hex": "0x0"
      },
      "nonce": 0,
      "data": "0x3ba15036",
      "r": "0xe4dbe4fa27179d398d6027bb89fa456a96486a6a6fc45a9c08621d353375560b",
      "s": "0x26dd781ad092eb030d8800ea0bec72be4472d564b29224485d37416c236e6b0e",
      "v": 28,
      "creates": null,
      "raw": "0xf86980850ba43b740083015f9094793ae8c1b1a160bfc07bfb0d04f85eab1a71f4f280843ba150361ca0e4dbe4fa27179d398d6027bb89fa456a96486a6a6fc45a9c08621d353375560ba026dd781ad092eb030d8800ea0bec72be4472d564b29224485d37416c236e6b0e",
      "networkId": 0,
      "chainId": 0
    },
    {
      "hash": "0xa1d096582e3deefb393bda3bfc4dd01d495f9faa0aa1d608390ceb700b2860d3",
      "blockHash": "0x885af9768fd681ab1b51795171a00fab261abecb8f0009ae66d57e521d2b453e",
      "blockNumber": 68980,
      "transactionIndex": 22,
      "confirmations": null,
      "from": "0x34be093Ff4157023B3Fe77a6cD5b00333f2D58CF",
      "gasPrice": {
        "_hex": "0xba43b7400"
      },
      "gasLimit": {
        "_hex": "0x15f90"
      },
      "to": "0x793AE8C1b1a160BFc07BFB0d04F85eab1A71F4f2",
      "value": {
        "_hex": "0x0"
      },
      "nonce": 0,
      "data": "0x3ba15036",
      "r": "0x2c13cfa3082b58ae9a279651853a1a12e16c5f9821095cd89c814240ed23ed77",
      "s": "0x57d5373659c7dbba3121460d8bc7bcb0449fc54769adda1029e75ed24344cf56",
      "v": 28,
      "creates": null,
      "raw": "0xf86980850ba43b740083015f9094793ae8c1b1a160bfc07bfb0d04f85eab1a71f4f280843ba150361ca02c13cfa3082b58ae9a279651853a1a12e16c5f9821095cd89c814240ed23ed77a057d5373659c7dbba3121460d8bc7bcb0449fc54769adda1029e75ed24344cf56",
      "networkId": 0,
      "chainId": 0
    },
    {
      "hash": "0x6b467e19fde7222a3c0992084d996e5a6b1144c9578f521c805269de43a08297",
      "blockHash": "0x885af9768fd681ab1b51795171a00fab261abecb8f0009ae66d57e521d2b453e",
      "blockNumber": 68980,
      "transactionIndex": 23,
      "confirmations": null,
      "from": "0xD71833f71aD55C22F56B57E018c34F1001737d71",
      "gasPrice": {
        "_hex": "0xba43b7400"
      },
      "gasLimit": {
        "_hex": "0x15f90"
      },
      "to": "0x793AE8C1b1a160BFc07BFB0d04F85eab1A71F4f2",
      "value": {
        "_hex": "0x0"
      },
      "nonce": 0,
      "data": "0x3ba15036",
      "r": "0x03a9cad9302d9f3e81864f8a0afa6358dec976a19b442b1abbb86f874ad70a46",
      "s": "0x5f1a9ce34e9e1b7095984c36037cea0768f0dc2a5631bd5a996f1fcf924d9ab0",
      "v": 27,
      "creates": null,
      "raw": "0xf86980850ba43b740083015f9094793ae8c1b1a160bfc07bfb0d04f85eab1a71f4f280843ba150361ba003a9cad9302d9f3e81864f8a0afa6358dec976a19b442b1abbb86f874ad70a46a05f1a9ce34e9e1b7095984c36037cea0768f0dc2a5631bd5a996f1fcf924d9ab0",
      "networkId": 0,
      "chainId": 0
    },
    {
      "hash": "0x3ac61705704b5f2eb8ecdef55a20f4ed4d3d619d2a710eb1fe45417fb6dab154",
      "blockHash": "0x885af9768fd681ab1b51795171a00fab261abecb8f0009ae66d57e521d2b453e",
      "blockNumber": 68980,
      "transactionIndex": 24,
      "confirmations": null,
      "from": "0xb3E51e00C9E5BB0C020D2d0Ef7e56699BF4d9D67",
      "gasPrice": {
        "_hex": "0xba43b7400"
      },
      "gasLimit": {
        "_hex": "0x15f90"
      },
      "to": "0x793AE8C1b1a160BFc07BFB0d04F85eab1A71F4f2",
      "value": {
        "_hex": "0x0"
      },
      "nonce": 0,
      "data": "0x3ba15036",
      "r": "0x973f0ae124e95460e9c85595d6552851f1f14ffdf724d775edf6fb20375cea84",
      "s": "0x1d2ac0a383dd19c6087c9190ca9ff619a9c76ccf90059118423aa853ef342d0a",
      "v": 27,
      "creates": null,
      "raw": "0xf86980850ba43b740083015f9094793ae8c1b1a160bfc07bfb0d04f85eab1a71f4f280843ba150361ba0973f0ae124e95460e9c85595d6552851f1f14ffdf724d775edf6fb20375cea84a01d2ac0a383dd19c6087c9190ca9ff619a9c76ccf90059118423aa853ef342d0a",
      "networkId": 0,
      "chainId": 0
    }
  ]
}