{
  "hash": "0x8323863648ba667f260a6ebde0c4df82b9508c3854d05451081947533991d22f",
  "parentHash": "0x17a1fcfbb0089105e5e4d3b4f3bcb70261000c2f4e184679266dda4ef3ee4311",
  "number": 95055,
  "timestamp": 1439718272,
  "nonce": "0xea8fed26cdb4754b",
  "difficulty": 3498340335967,
  "gasLimit": {
    "_hex": "0x2fefd8"
  },
  "gasUsed": {
    "_hex": "0x5208"
  },
  "miner": "0xf8E0CA3Ed80bd541b94BEdCf259e8CF2141A9523",
  "extraData": "0x476574682f76312e302e312f77696e646f77732f676f312e342e32",
  "transactions": [
    {
      "hash": "0x126c467c269bd92b770f88aef0c9b343dc5a652b593d9d2a09ce7d7de1169576",
      "blockHash": "0x8323863648ba667f260a6ebde0c4df82b9508c3854d05451081947533991d22f",
      "blockNumber": 95055,
      "transactionIndex": 0,
      "confirmations": null,
      "from": "0x4C4C15a7B34323D7C2E9B9559E534759Dfb67062",
      "gasPrice": {
        "_hex": "0xba43b7400"
      },
      "gasLimit": {
        "_hex": "0x5266"
      },
      "to": "0x863F003192ee81aC9ED112bD609Cbf06984B60Ad",
      "value": {
        "_hex": "0x71afd498d0000"
      },
      "nonce": 0,
      "data": "0x",
      "r": "0xf4939b80976815c0294eb67ca2a00784c48a61f7a844606952ee4488cc189f8c",
      "s": "0xbf78ac11106d22cf4a5b4509f81242fd8b89f51e3db64079b770ef4d1d2eba9f",
      "v": 28,
      "creates": null,
      "raw": "0xf86b80850ba43b740082526694863f003192ee81ac9ed112bd609cbf06984b60ad87071afd498d0000801ca0f4939b80976815c0294eb67ca2a00784c48a61f7a844606952ee4488cc189f8ca0bf78ac11106d22cf4a5b4509f81242fd8b89f51e3db64079b770ef4d1d2eba9f",
      "networkId": 0,
      "chainId": 0
    }
  ]
}