{
  "hash": "0xb95ba81a1698846abf2d7bd84853d6d72314d54e9fa2181b7328b4daa11eeec5",
  "parentHash": "0x46c8ae247338e5cb454f1616277df90cb4d67e4b59dce0621c2f58201bbdda4e",
  "number": 113115,
  "timestamp": 1440018112,
  "nonce": "0xcbc9b44787dba754",
  "difficulty": 4473551628668,
  "gasLimit": {
    "_hex": "0x2fefd8"
  },
  "gasUsed": {
    "_hex": "0x5208"
  },
  "miner": "0xe6A7a1d47ff21B6321162AEA7C6CB457D5476Bca",
  "extraData": "0x476574682f76312e302e312d38326566323666362f6c696e75782f676f312e34",
  "transactions": [
    {
      "hash": "0x4cbc610e8aca137f226e8f821f5a773ebade732cef268d5b621ac25dfc0dd2ec",
      "blockHash": "0xb95ba81a1698846abf2d7bd84853d6d72314d54e9fa2181b7328b4daa11eeec5",
      "blockNumber": 113115,
      "transactionIndex": 0,
      "confirmations": null,
      "from": "0xFBb1b73C4f0BDa4f67dcA266ce6Ef42f520fBB98",
      "gasPrice": {
        "_hex": "0xe029be6b8"
      },
      "gasLimit": {
        "_hex": "0x5208"
      },
      "to": "0x3F5cD2B711eAF2131237650C2Eb03732f1Bea2cd",
      "value": {
        "_hex": "0x114720e7595c8000"
      },
      "nonce": 224,
      "data": "0x",
      "r": "0xd63f9b27f60a1a5703ed43a7675d4b1cbcc695efc103184d17d478794b4c6787",
      "s": "0x1b868b327116bf87f59914018771580bd9c6cac72d51526d68ebb867bf87a30b",
      "v": 27,
      "creates": null,
      "raw": "0xf86d81e0850e029be6b8825208943f5cd2b711eaf2131237650c2eb03732f1bea2cd88114720e7595c8000801ba0d63f9b27f60a1a5703ed43a7675d4b1cbcc695efc103184d17d478794b4c6787a01b868b327116bf87f59914018771580bd9c6cac72d51526d68ebb867bf87a30b",
      "networkId": 0,
      "chainId": 0
    }
  ]
}