{
  "hash": "0x95f7393b66cbe90ae56cb3c3b5a1b79a0f7eaabb477b296ce8656388ce40ba65",
  "parentHash": "0x4f1338ba2a9d5c6a8a76ba8cd9e9ffe5f3e158d2df3ecce93965a28d14c842de",
  "number": 61183,
  "timestamp": 1439168259,
  "nonce": "0x2775a85248a69897",
  "difficulty": 1726964995928,
  "gasLimit": {
    "_hex": "0x2fe3de"
  },
  "gasUsed": {
    "_hex": "0x5208"
  },
  "miner": "0xA10C59651885FeAaac91F871082a23BBbaBeDfCf",
  "extraData": "0x476574682f76312e302e302f77696e646f77732f676f312e342e32",
  "transactions": [
    {
      "hash": "0x0267ce2a8a1e3c55a703b5de52eeae06678e7aad0ad9942f1c6a1c3415ce9f06",
      "blockHash": "0x95f7393b66cbe90ae56cb3c3b5a1b79a0f7eaabb477b296ce8656388ce40ba65",
      "blockNumber": 61183,
      "transactionIndex": 0,
      "confirmations": null,
      "from": "0xF9B617f752edECAE3e909fBB911d2f8192f84209",
      "gasPrice": {
        "_hex": "0x113f6b778e5"
      },
      "gasLimit": {
        "_hex": "0x15f90"
      },
      "to": "0x6800E12aFd6CAa35c8482E7757119ccf6b576FD0",
      "value": {
        "_hex": "0x2b5e3af16b1880000"
      },
      "nonce": 3,
      "data": "0x",
      "r": "0x070cc4540cf926ded5f9ab4e68197f25c1fd0c5da9f55c2040dbcc124c35dab5",
      "s": "0x13898aef3555f5f9ee0049c53fec68caaca172240daa914eaa5934e4ddb2941a",
      "v": 28,
      "creates": null,
      "raw": "0xf86f03860113f6b778e583015f90946800e12afd6caa35c8482e7757119ccf6b576fd08902b5e3af16b1880000801ca0070cc4540cf926ded5f9ab4e68197f25c1fd0c5da9f55c2040dbcc124c35dab5a013898aef3555f5f9ee0049c53fec68caaca172240daa914eaa5934e4ddb2941a",
      "networkId": 0,
      "chainId": 0
    }
  ]
}