{
  "hash": "0xf805d5e5b645960beb7c930b2c8d848bb419210d38cde81afedf3ccefc302a64",
  "parentHash": "0x8cb69e7d2fd04fe285364a29841192d8587bfda32eaf15ffd3ab6e97c24b5c16",
  "number": 91877,
  "timestamp": 1439663024,
  "nonce": "0x6dbe64084edbaea2",
  "difficulty": 3482619360984,
  "gasLimit": {
    "_hex": "0x2fefd8"
  },
  "gasUsed": {
    "_hex": "0x5208"
  },
  "miner": "0xe6A7a1d47ff21B6321162AEA7C6CB457D5476Bca",
  "extraData": "0x476574682f76312e302e312d38326566323666362f6c696e75782f676f312e34",
  "transactions": [
    {
      "hash": "0xe82e76105d119f02546cbf1afd4a1363ab2aebc1fdd53136c718e505db227786",
      "blockHash": "0xf805d5e5b645960beb7c930b2c8d848bb419210d38cde81afedf3ccefc302a64",
      "blockNumber": 91877,
      "transactionIndex": 0,
      "confirmations": null,
      "from": "0x43279854AaF8825a6d1fcCf056caF190Ab8a7b76",
      "gasPrice": {
        "_hex": "0xdd2ea9754"
      },
      "gasLimit": {
        "_hex": "0x5208"
      },
      "to": "0x32Be343B94f860124dC4fEe278FDCBD38C102D88",
      "value": {
        "_hex": "0x878673c4701d480000"
      },
      "nonce": 12,
      "data": "0x",
      "r": "0x2a9a85fb102587d7a2f5561d250da97256624c4def9e5c9009dc63800b83a72a",
      "s": "0x72095861f7cfddd0a48fabe6f5f1bbf38cc2e45bae89c600a3c5965caaff6ec9",
      "v": 27,
      "creates": null,
      "raw": "0xf86d0c850dd2ea97548252089432be343b94f860124dc4fee278fdcbd38c102d8889878673c4701d480000801ba02a9a85fb102587d7a2f5561d250da97256624c4def9e5c9009dc63800b83a72aa072095861f7cfddd0a48fabe6f5f1bbf38cc2e45bae89c600a3c5965caaff6ec9",
      "networkId": 0,
      "chainId": 0
    }
  ]
}