{
  "hash": "0xf0e11025c640b813387920cd1a3bb2cbbd83dce3ddb8671ad37400805e5e1947",
  "parentHash": "0xb6a4ab056d3a139659306971a724f99b5b4ee40ce42e36cfa9b1f313afea48fa",
  "number": 60022,
  "timestamp": 1439147739,
  "nonce": "0xa33d3f62ef219859",
  "difficulty": 1729735966090,
  "gasLimit": {
    "_hex": "0x2fefd8"
  },
  "gasUsed": {
    "_hex": "0x5208"
  },
  "miner": "0x785ffdDd5cE55c6DF963f345e68d3F2024E5Acb1",
  "extraData": "0x457468657265756d20474f212121212121",
  "transactions": [
    {
      "hash": "0xe0a732aadb05d6cb4644be80e7652c8c8fdc1f78e5de7c295f468385b2567258",
      "blockHash": "0xf0e11025c640b813387920cd1a3bb2cbbd83dce3ddb8671ad37400805e5e1947",
      "blockNumber": 60022,
      "transactionIndex": 0,
      "confirmations": null,
      "from": "0x17CCeb5416303CC5b49303348eA8b6914ca47A62",
      "gasPrice": {
        "_hex": "0xd7d40ace3"
      },
      "gasLimit": {
        "_hex": "0x15f90"
      },
      "to": "0xd223eD5b348a82910987CbBc7875a7AE62E1Ba53",
      "value": {
        "_hex": "0xde0b6b3a7640000"
      },
      "nonce": 0,
      "data": "0x",
      "r": "0xa3009adf72c91babc5d7c060b8205de16c58a2bf87006e41bf69182ad91049e8",
      "s": "0x55ab90a2ddbda411f6516b48e20d40ca3fbde7acee93052f6f08d35dd4ddf707",
      "v": 27,
      "creates": null,
      "raw": "0xf86d80850d7d40ace383015f9094d223ed5b348a82910987cbbc7875a7ae62e1ba53880de0b6b3a7640000801ba0a3009adf72c91babc5d7c060b8205de16c58a2bf87006e41bf69182ad91049e8a055ab90a2ddbda411f6516b48e20d40ca3fbde7acee93052f6f08d35dd4ddf707",
      "networkId": 0,
      "chainId": 0
    }
  ]
}