{
  "hash": "0xed546a57052f9b518370a9a78856232fed12d1998b1288080ad5f2c109e9ff08",
  "parentHash": "0xb7417f1e886f1b947aad0fbe59e6a1ab84767c68d04152b442aa5a419a2e2bdf",
  "number": 89900,
  "timestamp": 1439630876,
  "nonce": "0x859f62ad4a714c0f",
  "difficulty": 3345088097930,
  "gasLimit": {
    "_hex": "0x2fefd8"
  },
  "gasUsed": {
    "_hex": "0xf618"
  },
  "miner": "0x5B40711F65053004dc86F296Dd8F09862E00998F",
  "extraData": "0x476574682f76312e302e312d38326566323666362f6c696e75782f676f312e34",
  "transactions": [
    {
      "hash": "0x3d4046a03d8d9a91b277353f6e8e9e5e23c03b5b675ee6bc83ff65e87611b311",
      "blockHash": "0xed546a57052f9b518370a9a78856232fed12d1998b1288080ad5f2c109e9ff08",
      "blockNumber": 89900,
      "transactionIndex": 0,
      "confirmations": null,
      "from": "0xe33977E292cceF99Ea8828733e97562F3690a8ad",
      "gasPrice": {
        "_hex": "0xd18a69fd0"
      },
      "gasLimit": {
        "_hex": "0x5208"
      },
      "to": "0x32Be343B94f860124dC4fEe278FDCBD38C102D88",
      "value": {
        "_hex": "0x98d82645cee10000"
      },
      "nonce": 1,
      "data": "0x",
      "r": "0x6956e04909147cce44c79feebcc52afb5bcc87d943d8907dc8e003ed3569a972",
      "s": "0x0f2e0c6fecd4be02762002f0c68b074222b9dc1751feaf8ac915af798e3e83f8",
      "v": 28,
      "creates": null,
      "raw": "0xf86c01850d18a69fd08252089432be343b94f860124dc4fee278fdcbd38c102d888898d82645cee10000801ca06956e04909147cce44c79feebcc52afb5bcc87d943d8907dc8e003ed3569a972a00f2e0c6fecd4be02762002f0c68b074222b9dc1751feaf8ac915af798e3e83f8",
      "networkId": 0,
      "chainId": 0
    },
    {
      "hash": "0xebb458a9daa5e521bcbb8a89adf1b2b9b84560732f4a8dc387a9c1e12f6e31c6",
      "blockHash": "0xed546a57052f9b518370a9a78856232fed12d1998b1288080ad5f2c109e9ff08",
      "blockNumber": 89900,
      "transactionIndex": 1,
      "confirmations": null,
      "from": "0x5BeBc02e4CDF3e92B5a2947CfD1430c4EBBa4039",
      "gasPrice": {
        "_hex": "0xd18a69fd0"
      },
      "gasLimit": {
        "_hex": "0x5208"
      },
      "to": "0x32Be343B94f860124dC4fEe278FDCBD38C102D88",
      "value": {
        "_hex": "0xa4f3639697915800"
      },
      "nonce": 1,
      "data": "0x",
      "r": "0x545dc7fa9616265653d1bb6e1ae17b2ec3a07fd317e8404f99bc3bfecb060cd7",
      "s": "0x64fd55cd1034e54a1bfeff89c010bc43a57ef3b1b123d20a6e4efa82e7ad9e98",
      "v": 28,
      "creates": null,
      "raw": "0xf86c01850d18a69fd08252089432be343b94f860124dc4fee278fdcbd38c102d8888a4f3639697915800801ca0545dc7fa9616265653d1bb6e1ae17b2ec3a07fd317e8404f99bc3bfecb060cd7a064fd55cd1034e54a1bfeff89c010bc43a57ef3b1b123d20a6e4efa82e7ad9e98",
      "networkId": 0,
      "chainId": 0
    },
    {
      "hash": "0x5447a5ce07d8f74bc2a45040133981d6c402c781e5ddfba384fb48a4248bb21f",
      "blockHash": "0xed546a57052f9b518370a9a78856232fed12d1998b1288080ad5f2c109e9ff08",
      "blockNumber": 89900,
      "transactionIndex": 2,
      "confirmations": null,
      "from": "0x037658E13e294088Cfd16A534b9C1F3B37282eB2",
      "gasPrice": {
        "_hex": "0xd18a69fd0"
      },
      "gasLimit": {
        "_hex": "0x5208"
      },
      "to": "0x32Be343B94f860124dC4fEe278FDCBD38C102D88",
      "value": {
        "_hex": "0x84d054fc1f8b0000"
      },
      "nonce": 0,
      "data": "0x",
      "r": "0x4c75a5f0ccafd4d924a05f4e9333fb373123cfcdd9072d07cae3910e8420e7dd",
      "s": "0x613cb37bc14923e26a108b97237368f52cf3b6c397108fed33f669579d0b1a02",
      "v": 27,
      "creates": null,
      "raw": "0xf86c80850d18a69fd08252089432be343b94f860124dc4fee278fdcbd38c102d888884d054fc1f8b0000801ba04c75a5f0ccafd4d924a05f4e9333fb373123cfcdd9072d07cae3910e8420e7dda0613cb37bc14923e26a108b97237368f52cf3b6c397108fed33f669579d0b1a02",
      "networkId": 0,
      "chainId": 0
    }
  ]
}