{
  "hash": "0x39c9dc32deddf90e61db4e35a3169e75d1e73746b85acc1ce059be2ca09cbc4d",
  "parentHash": "0x41e98cdd2f073135081fe3c00f52864e33ed39de165ba5d624759a4d0c177352",
  "number": 113182,
  "timestamp": 1440019033,
  "nonce": "0x9b8d13e130dd2ed0",
  "difficulty": 4519622899183,
  "gasLimit": {
    "_hex": "0x2fefd8"
  },
  "gasUsed": {
    "_hex": "0x5208"
  },
  "miner": "0x52bc44d5378309EE2abF1539BF71dE1b7d7bE3b5",
  "extraData": "0x476574682f76312e302e312d39353236303766382f6c696e75782f676f312e34",
  "transactions": [
    {
      "hash": "0x9154ddc9a05ba54d4043010b80ca2df2dfa5fa28fca34388b01838ecf22905b4",
      "blockHash": "0x39c9dc32deddf90e61db4e35a3169e75d1e73746b85acc1ce059be2ca09cbc4d",
      "blockNumber": 113182,
      "transactionIndex": 0,
      "confirmations": null,
      "from": "0xA21Ba94e45f0E168dA824fC67aC9cb5Cb577a8aF",
      "gasPrice": {
        "_hex": "0x45d964b800"
      },
      "gasLimit": {
        "_hex": "0x5208"
      },
      "to": "0x16C9b930E32c92004105d7F66801C75c61E3408D",
      "value": {
        "_hex": "0x410d586a20a4c0000"
      },
      "nonce": 15,
      "data": "0x",
      "r": "0x71b20f949544f4b3fa049524a6f09c1d4cb48c719922eed59d12c2acd7e063a1",
      "s": "0x51ae09320ebba8c7915269bedc244f1f4acb40a968353eab1ed59d79ec92c51f",
      "v": 27,
      "creates": null,
      "raw": "0xf86d0f8545d964b8008252089416c9b930e32c92004105d7f66801c75c61e3408d890410d586a20a4c0000801ba071b20f949544f4b3fa049524a6f09c1d4cb48c719922eed59d12c2acd7e063a1a051ae09320ebba8c7915269bedc244f1f4acb40a968353eab1ed59d79ec92c51f",
      "networkId": 0,
      "chainId": 0
    }
  ]
}