{
  "hash": "0x8c2120cf012a29e31b39f5fb338587d5b354f8bb3fc8691d9359e3d6a79a87c8",
  "parentHash": "0xc905d1eae2f1a1d21cec5bfea14b134857329affb522a1a7b7d30d45241a565b",
  "number": 80365,
  "timestamp": 1439484627,
  "nonce": "0x05040e53c76edde1",
  "difficulty": 2380525044741,
  "gasLimit": {
    "_hex": "0x2fefd8"
  },
  "gasUsed": {
    "_hex": "0xa410"
  },
  "miner": "0x02dE7d35a60bf6A216411476040ec648668769D7",
  "extraData": "0x476574682f76312e302e312f77696e646f77732f676f312e342e32",
  "transactions": [
    {
      "hash": "0xc627392bf0b2d93a9f643fc21daebcaf121363a8153363ef179e3c8cd395ae62",
      "blockHash": "0x8c2120cf012a29e31b39f5fb338587d5b354f8bb3fc8691d9359e3d6a79a87c8",
      "blockNumber": 80365,
      "transactionIndex": 0,
      "confirmations": null,
      "from": "0xF78645Ea06d743C6B52a11EB3f3d486bbb4Cf01F",
      "gasPrice": {
        "_hex": "0x103078a8722"
      },
      "gasLimit": {
        "_hex": "0x15f90"
      },
      "to": "0x41d38070FDD7962bfe615F6831B68617B165b8FB",
      "value": {
        "_hex": "0xc249fdd327780000"
      },
      "nonce": 5,
      "data": "0x",
      "r": "0xa9f4a15f5847fd9b820c8381fb4c183fe5316444aa4e65ce174ecc70d05092e9",
      "s": "0x51f46e6880f85649c7acec5434e4ce76442883a42f74ff191ec448be75f648d8",
      "v": 27,
      "creates": null,
      "raw": "0xf86e05860103078a872283015f909441d38070fdd7962bfe615f6831b68617b165b8fb88c249fdd327780000801ba0a9f4a15f5847fd9b820c8381fb4c183fe5316444aa4e65ce174ecc70d05092e9a051f46e6880f85649c7acec5434e4ce76442883a42f74ff191ec448be75f648d8",
      "networkId": 0,
      "chainId": 0
    },
    {
      "hash": "0x7784434f3d348cf49656c6ccfe8faffbff0ebc1a5996e62ae3e4aa6a64bb5527",
      "blockHash": "0x8c2120cf012a29e31b39f5fb338587d5b354f8bb3fc8691d9359e3d6a79a87c8",
      "blockNumber": 80365,
      "transactionIndex": 1,
      "confirmations": null,
      "from": "0xc597A5d92F5dC1137D847db733cfe02c6d209f13",
      "gasPrice": {
        "_hex": "0xd6d5b3a5a"
      },
      "gasLimit": {
        "_hex": "0x15f90"
      },
      "to": "0x95D26518548e038C30909c1B24E95c7Cb9CDbFd9",
      "value": {
        "_hex": "0x1a055690d9db80000"
      },
      "nonce": 21,
      "data": "0x",
      "r": "0x45e94db36e3b9bae511acfddfe7b8a40dbd9beb23358aa9c462443766a1fe722",
      "s": "0x5085e82fb71724ee3898e2591e1615d3ea4a65a406b3fd02c2f180f5aa88bbff",
      "v": 28,
      "creates": null,
      "raw": "0xf86e15850d6d5b3a5a83015f909495d26518548e038c30909c1b24e95c7cb9cdbfd98901a055690d9db80000801ca045e94db36e3b9bae511acfddfe7b8a40dbd9beb23358aa9c462443766a1fe722a05085e82fb71724ee3898e2591e1615d3ea4a65a406b3fd02c2f180f5aa88bbff",
      "networkId": 0,
      "chainId": 0
    }
  ]
}