{
  "hash": "0x822af008fb92c02c19b5a09fbafc77819fdde6a8029b0b3d318129692b412d39",
  "parentHash": "0xd2c3cf238073d7d3763ceee48c18c14dcac3be43a28f6184555a542aaa9d56db",
  "number": 77016,
  "timestamp": 1439430028,
  "nonce": "0x6c7747da0db62883",
  "difficulty": 2233914557628,
  "gasLimit": {
    "_hex": "0x2fefd8"
  },
  "gasUsed": {
    "_hex": "0xa410"
  },
  "miner": "0x02dE7d35a60bf6A216411476040ec648668769D7",
  "extraData": "0x476574682f76312e302e312f77696e646f77732f676f312e342e32",
  "transactions": [
    {
      "hash": "0x7726eb1fda045cc9d8fb38b2b753dc8530f5fa09c05029b1fe5f9fd8438914b1",
      "blockHash": "0x822af008fb92c02c19b5a09fbafc77819fdde6a8029b0b3d318129692b412d39",
      "blockNumber": 77016,
      "transactionIndex": 0,
      "confirmations": null,
      "from": "0x3A06E3bB1EDcFd0C44c3074dE0bB606b049894A2",
      "gasPrice": {
        "_hex": "0xd055c3e39"
      },
      "gasLimit": {
        "_hex": "0x15f90"
      },
      "to": "0x372FaE4b73482aa4B5E5200b846384Dc11284500",
      "value": {
        "_hex": "0x1b1ae29e73c853f0000"
      },
      "nonce": 1,
      "data": "0x",
      "r": "0xfb2b8f3e7da6f90130e430d493cee9cf522decadd4f017f85d3bbf70d4aa9c9b",
      "s": "0x24f80b724e1c245f6ffa9f3dca07ecffb60456783a097307e5c7d0f8261b0450",
      "v": 28,
      "creates": null,
      "raw": "0xf86f01850d055c3e3983015f9094372fae4b73482aa4b5e5200b846384dc112845008a01b1ae29e73c853f0000801ca0fb2b8f3e7da6f90130e430d493cee9cf522decadd4f017f85d3bbf70d4aa9c9ba024f80b724e1c245f6ffa9f3dca07ecffb60456783a097307e5c7d0f8261b0450",
      "networkId": 0,
      "chainId": 0
    },
    {
      "hash": "0x0aa6e3f6652789e3bc3d4c4a320b5597839875823b03704a86bf477d8ef5a864",
      "blockHash": "0x822af008fb92c02c19b5a09fbafc77819fdde6a8029b0b3d318129692b412d39",
      "blockNumber": 77016,
      "transactionIndex": 1,
      "confirmations": null,
      "from": "0x120A270bbC009644e35F0bB6ab13f95b8199c4ad",
      "gasPrice": {
        "_hex": "0xcbbadbcd1"
      },
      "gasLimit": {
        "_hex": "0x3d090"
      },
      "to": "0x548303a76b24d477704da08a513179F39AE78C7c",
      "value": {
        "_hex": "0x1bae0ff9ad459400"
      },
      "nonce": 317,
      "data": "0x",
      "r": "0x77842dc8aafe5c4a921bf513f9adc45b69e084f570ca591d0c0791fec06c7e39",
      "s": "0x261af901d63603377e87dfbf9d7b2dbf1b2b7f3c9aff3c18a8a7f99a4a85ea6f",
      "v": 27,
      "creates": null,
      "raw": "0xf86f82013d850cbbadbcd18303d09094548303a76b24d477704da08a513179f39ae78c7c881bae0ff9ad459400801ba077842dc8aafe5c4a921bf513f9adc45b69e084f570ca591d0c0791fec06c7e39a0261af901d63603377e87dfbf9d7b2dbf1b2b7f3c9aff3c18a8a7f99a4a85ea6f",
      "networkId": 0,
      "chainId": 0
    }
  ]
}