{
  "hash": "0xa8819087a15c233b051a61effb90f2566a4053b395ffc45c4f6d8865d84ae7ca",
  "parentHash": "0x7aa4a3a094bf00f1fc784762af804a5fbbdbc4e01a7fff4399d5ddf845207b62",
  "number": 67261,
  "timestamp": 1439268925,
  "nonce": "0x0d8a6f21210d824f",
  "difficulty": 1925173290488,
  "gasLimit": {
    "_hex": "0x2fefd8"
  },
  "gasUsed": {
    "_hex": "0x5208"
  },
  "miner": "0x3FF679B0823a026F2378E5f5F22A6F127cC85828",
  "extraData": "0x",
  "transactions": [
    {
      "hash": "0xd913097addfaf126548c7dc35748ac97ca7738f8915273407ef46e28c5ebb675",
      "blockHash": "0xa8819087a15c233b051a61effb90f2566a4053b395ffc45c4f6d8865d84ae7ca",
      "blockNumber": 67261,
      "transactionIndex": 0,
      "confirmations": null,
      "from": "0x120A270bbC009644e35F0bB6ab13f95b8199c4ad",
      "gasPrice": {
        "_hex": "0xd217bdc93"
      },
      "gasLimit": {
        "_hex": "0x15f90"
      },
      "to": "0x7244C460dEA1e5835772469AbBF5426D4ad14d59",
      "value": {
        "_hex": "0x478eae0e571ba00000"
      },
      "nonce": 159,
      "data": "0x",
      "r": "0x996a6027cc023efadb49e7981ccaccf15e49f92df776e54ca5385c637f483b7b",
      "s": "0x369f3fbae2326928765fd1c64efb3ef504de11474502e765d353f42dbdbe7363",
      "v": 27,
      "creates": null,
      "raw": "0xf86f819f850d217bdc9383015f90947244c460dea1e5835772469abbf5426d4ad14d5989478eae0e571ba00000801ba0996a6027cc023efadb49e7981ccaccf15e49f92df776e54ca5385c637f483b7ba0369f3fbae2326928765fd1c64efb3ef504de11474502e765d353f42dbdbe7363",
      "networkId": 0,
      "chainId": 0
    }
  ]
}