{
  "hash": "0x5646d6af46bf8d6fef42c30acbfdf7c3d060e72d7cca6cf96556249a472de2d6",
  "parentHash": "0xc0e63ca95fa72063a35e7a896dbdef8dd2f4594234865209c41286b2f7ca45b7",
  "number": 101567,
  "timestamp": 1439824720,
  "nonce": "0xcb621e2c3ddb1fe3",
  "difficulty": 3888244211612,
  "gasLimit": {
    "_hex": "0x2fefd8"
  },
  "gasUsed": {
    "_hex": "0x5208"
  },
  "miner": "0xe6A7a1d47ff21B6321162AEA7C6CB457D5476Bca",
  "extraData": "0x476574682f76312e302e312d38326566323666362f6c696e75782f676f312e34",
  "transactions": [
    {
      "hash": "0xcef1305fca034e2b84d3db8ddf093ffc96aea67bbf1ef5498fd70dd75d1ea4c0",
      "blockHash": "0x5646d6af46bf8d6fef42c30acbfdf7c3d060e72d7cca6cf96556249a472de2d6",
      "blockNumber": 101567,
      "transactionIndex": 0,
      "confirmations": null,
      "from": "0x7884D470204862a0d1A21122F41ee77430396Ee5",
      "gasPrice": {
        "_hex": "0xcca33e559"
      },
      "gasLimit": {
        "_hex": "0x15f90"
      },
      "to": "0x1717db4B4afff7371323a50fB90f11703446bE08",
      "value": {
        "_hex": "0x11fc51222ce8000"
      },
      "nonce": 88,
      "data": "0x",
      "r": "0x954d6697c993647cc61babad26e8ff90cf6b055381a444d13efbab633a5f9c74",
      "s": "0x7f9f4280e8f08df313354d8ff6426fc48478c39ac19b64cfd58c0be49168963b",
      "v": 28,
      "creates": null,
      "raw": "0xf86d58850cca33e55983015f90941717db4b4afff7371323a50fb90f11703446be0888011fc51222ce8000801ca0954d6697c993647cc61babad26e8ff90cf6b055381a444d13efbab633a5f9c74a07f9f4280e8f08df313354d8ff6426fc48478c39ac19b64cfd58c0be49168963b",
      "networkId": 0,
      "chainId": 0
    }
  ]
}