{
  "hash": "0xe01fd3de8866aacd93f3a31024e1f02d027418b55f4b62e811f3f7c9972a09f4",
  "parentHash": "0xbf69854f40b6d4a927a6bec30c1f2ea9f17621be8554c68bc7e311ece343dec7",
  "number": 64864,
  "timestamp": 1439227343,
  "nonce": "0x45a2f05da80d7359",
  "difficulty": 1911670582103,
  "gasLimit": {
    "_hex": "0x2fefd8"
  },
  "gasUsed": {
    "_hex": "0x5208"
  },
  "miner": "0x9746c7e1ef2bd21FF3997fa467593a89cb852BD0",
  "extraData": "0x476574682f76312e302e312f77696e646f77732f676f312e342e32",
  "transactions": [
    {
      "hash": "0xcd387bbdf0fb4058be57224b89400c752652abfc658e07163453fe16f6b71176",
      "blockHash": "0xe01fd3de8866aacd93f3a31024e1f02d027418b55f4b62e811f3f7c9972a09f4",
      "blockNumber": 64864,
      "transactionIndex": 0,
      "confirmations": null,
      "from": "0x4e82D428Cec719e7f3A9eDC12C297d6Dd769C35c",
      "gasPrice": {
        "_hex": "0xba43b7400"
      },
      "gasLimit": {
        "_hex": "0x5208"
      },
      "to": "0x6747f922385c9a6F9cfDf095F34345257DD597bE",
      "value": {
        "_hex": "0x28cc6bd07f59000"
      },
      "nonce": 0,
      "data": "0x",
      "r": "0xa158743730d7d1cb005a774130032f253a45b1af31195ab56a0c48777f074db5",
      "s": "0x7d4b8f1453287fdc93d2d488d3f587be172d1842afc0cf20cad66fd1635b21a8",
      "v": 28,
      "creates": null,
      "raw": "0xf86c80850ba43b7400825208946747f922385c9a6f9cfdf095f34345257dd597be88028cc6bd07f59000801ca0a158743730d7d1cb005a774130032f253a45b1af31195ab56a0c48777f074db5a07d4b8f1453287fdc93d2d488d3f587be172d1842afc0cf20cad66fd1635b21a8",
      "networkId": 0,
      "chainId": 0
    }
  ]
}