{
  "hash": "0x1b65241f271561356200004872ec00646ebf3d520a236992d614e9039a6bd31c",
  "parentHash": "0x61233da2fe606bb9737242db86424ae6e9ed819f39ac50c0aa83f12cf5b5733e",
  "number": 52304,
  "timestamp": 1439019567,
  "nonce": "0x07f517b26e1e74af",
  "difficulty": 1556505917356,
  "gasLimit": {
    "_hex": "0x124c26"
  },
  "gasUsed": {
    "_hex": "0x52d4"
  },
  "miner": "0x24339341F29d2aaD7d3c591c0f9931e7D4bFEd6e",
  "extraData": "0x476574682f76312e302e312f6c696e75782f676f312e342e32",
  "transactions": [
    {
      "hash": "0xbfadaab549bdcbc2b93646d261c583488f61bbbd3e021db3acacf678f3ddd236",
      "blockHash": "0x1b65241f271561356200004872ec00646ebf3d520a236992d614e9039a6bd31c",
      "blockNumber": 52304,
      "transactionIndex": 0,
      "confirmations": null,
      "from": "0x6cf94E97b229262AF23908265c2cf7e810686fa7",
      "gasPrice": {
        "_hex": "0xcda49433a"
      },
      "gasLimit": {
        "_hex": "0x15f90"
      },
      "to": "0x2910543Af39abA0Cd09dBb2D50200b3E800A63D2",
      "value": {
        "_hex": "0xd02ab486cedc0000"
      },
      "nonce": 2,
      "data": "0x0613aa",
      "r": "0x79409bdd60b4fcb9ae9d2720b3ba0c3464705e093b1ab45b66d3a04a3dc94f1d",
      "s": "0x7cd53aeb9a8b6b39b5e96515fb15e8f19a09076422d04982d93d9399a25e8629",
      "v": 27,
      "creates": null,
      "raw": "0xf87002850cda49433a83015f90942910543af39aba0cd09dbb2d50200b3e800a63d288d02ab486cedc0000830613aa1ba079409bdd60b4fcb9ae9d2720b3ba0c3464705e093b1ab45b66d3a04a3dc94f1da07cd53aeb9a8b6b39b5e96515fb15e8f19a09076422d04982d93d9399a25e8629",
      "networkId": 0,
      "chainId": 0
    }
  ]
}