{
  "hash": "0xbbeba1e620b6bc7b72c04a075bd8a112005f52e9df284ccf406a7d3a793e489e",
  "parentHash": "0x9f24bafba86b9497a43c4f0f5128bca7f30ce516cd6dbbd767c5c6d31b2b2e33",
  "number": 68526,
  "timestamp": 1439289513,
  "nonce": "0x47e09396f240076a",
  "difficulty": 2002539188054,
  "gasLimit": {
    "_hex": "0x2fefd8"
  },
  "gasUsed": {
    "_hex": "0x12ea94"
  },
  "miner": "0xf927a40C8B7F6E07c5af7FA2155B4864a4112B13",
  "extraData": "0x",
  "transactions": [
    {
      "hash": "0xe668eeeac2ac5c4d4acf5d4f5a4b2684bdac21d1729c1cbc8287b8a170665dd5",
      "blockHash": "0xbbeba1e620b6bc7b72c04a075bd8a112005f52e9df284ccf406a7d3a793e489e",
      "blockNumber": 68526,
      "transactionIndex": 0,
      "confirmations": null,
      "from": "0x30fA4024a464a11BC60fB370A3ace5Ff8BF8e991",
      "gasPrice": {
        "_hex": "0xba43b7400"
      },
      "gasLimit": {
        "_hex": "0x15f90"
      },
      "to": "0x793AE8C1b1a160BFc07BFB0d04F85eab1A71F4f2",
      "value": {
        "_hex": "0x0"
      },
      "nonce": 0,
      "data": "0x3ba15036",
      "r": "0x1f7d86a8e82022dfa459d405d77bc11718408069def1f040e68a674db401e8aa",
      "s": "0x6ada274a09e4df2f622908ca8be5835d948c4daa40613e374294e7d4c58dffc4",
      "v": 27,
      "creates": null,
      "raw": "0xf86980850ba43b740083015f9094793ae8c1b1a160bfc07bfb0d04f85eab1a71f4f280843ba150361ba01f7d86a8e82022dfa459d405d77bc11718408069def1f040e68a674db401e8aaa06ada274a09e4df2f622908ca8be5835d948c4daa40613e374294e7d4c58dffc4",
      "networkId": 0,
      "chainId": 0
    },
    {
      "hash": "0x0f2ccfba5b917102812cf2ed290d5024d596489dd99b739f33eaa180e6962462",
      "blockHash": "0xbbeba1e620b6bc7b72c04a075bd8a112005f52e9df284ccf406a7d3a793e489e",
      "blockNumber": 68526,
      "transactionIndex": 1,
      "confirmations": null,
      "from": "0x1aA050AF65d5F057C76a3473986455D269782Ef6",
      "gasPrice": {
        "_hex": "0xba43b7400"
      },
      "gasLimit": {
        "_hex": "0x15f90"
      },
      "to": "0x793AE8C1b1a160BFc07BFB0d04F85eab1A71F4f2",
      "value": {
        "_hex": "0x0"
      },
      "nonce": 0,
      "data": "0x3ba15036",
      "r": "0x56608ca47a4ec69555008195a8581aeaf4410aad730f00f0bef09d144002601e",
      "s": "0x51f75a8f4b0ffe25dd8fdc729278124c26a24bab9a566016574d4f1bbde4658f",
      "v": 28,
      "creates": null,
      "raw": "0xf86980850ba43b740083015f9094793ae8c1b1a160bfc07bfb0d04f85eab1a71f4f280843ba150361ca056608ca47a4ec69555008195a8581aeaf4410aad730f00f0bef09d144002601ea051f75a8f4b0ffe25dd8fdc729278124c26a24bab9a566016574d4f1bbde4658f",
      "networkId": 0,
      "chainId": 0
    },
    {
      "hash": "0x6e90ae57bd7b4e86615d8a1c64aad46f8d212b349e94ebe0a96ba0e83facfb93",
      "blockHash": "0xbbeba1e620b6bc7b72c04a075bd8a112005f52e9df284ccf406a7d3a793e489e",
      "blockNumber": 68526,
      "transactionIndex": 2,
      "confirmations": null,
      "from": "0xCD58f878B956773Cf3336a981b1c6A087F66769f",
      "gasPrice": {
        "_hex": "0xba43b7400"
      },
      "gasLimit": {
        "_hex": "0x15f90"
      },
      "to": "0x793AE8C1b1a160BFc07BFB0d04F85eab1A71F4f2",
      "value": {
        "_hex": "0x0"
      },
      "nonce": 0,
      "data": "0x3ba15036",
      "r": "0x14fed33c31639150fc027d07b95e670601f645a2b1f39f6246f9052cd2030844",
      "s": "0x54507ae18f0c898137388ad3261521666481677b8551230534aa5e69cc359e51",
      "v": 28,
      "creates": null,
      "raw": "0xf86980850ba43b740083015f9094793ae8c1b1a160bfc07bfb0d04f85eab1a71f4f280843ba150361ca014fed33c31639150fc027d07b95e670601f645a2b1f39f6246f9052cd2030844a054507ae18f0c898137388ad3261521666481677b8551230534aa5e69cc359e51",
      "networkId": 0,
      "chainId": 0
    },
    {
      "hash": "0xcc519432438b84ed9ec14ff800d87fb060f7c94c11a8e3e86e643ff197398a43",
      "blockHash": "0xbbeba1e620b6bc7b72c04a075bd8a112005f52e9df284ccf406a7d3a793e489e",
      "blockNumber": 68526,
      "transactionIndex": 3,
      "confirmations": null,
      "from": "0xBEA5c0813196BCbA7bB0e1666F76394e6cff0E9c",
      "gasPrice": {
        "_hex": "0xba43b7400"
      },
      "gasLimit": {
        "_hex": "0x15f90"
      },
      "to": "0x793AE8C1b1a160BFc07BFB0d04F85eab1A71F4f2",
      "value": {
        "_hex": "0x0"
      },
      "nonce": 0,
      "data": "0x3ba15036",
      "r": "0x0642bd8292f0db5d7123f6a2ea39f6355fa032838fa6dcc9f054c1be99c9d570",
      "s": "0x5b758da567b167f67a8348430740722d58c74248e80598493d5fe5c441fe6126",
      "v": 27,
      "creates": null,
      "raw": "0xf86980850ba43b740083015f9094793ae8c1b1a160bfc07bfb0d04f85eab1a71f4f280843ba150361ba00642bd8292f0db5d7123f6a2ea39f6355fa032838fa6dcc9f054c1be99c9d570a05b758da567b167f67a8348430740722d58c74248e80598493d5fe5c441fe6126",
      "networkId": 0,
      "chainId": 0
    },
    {
      "hash": "0xe189f6dad7f0d06ab12032d796567d3614f46d78999d2a7bcea2bc4b5766699e",
      "blockHash": "0xbbeba1e620b6bc7b72c04a075bd8a112005f52e9df284ccf406a7d3a793e489e",
      "blockNumber": 68526,
      "transactionIndex": 4,
      "confirmations": null,
      "from": "0x1bD9348BdAC39f12fEE38Fc9416D618d96378eb0",
      "gasPrice": {
        "_hex": "0xba43b7400"
      },
      "gasLimit": {
        "_hex": "0x15f90"
      },
      "to": "0x793AE8C1b1a160BFc07BFB0d04F85eab1A71F4f2",
      "value": {
        "_hex": "0x0"
      },
      "nonce": 0,
      "data": "0x3ba15036",
      "r": "0xb22daae02c0dec13fed80a6f8d5618b6373f67c479535b24e995cc66c36aa701",
      "s": "0x7197ac25fc987585ad10bf75e3e4dd46e82df96d4b90905d8523c45558493ec2",
      "v": 27,
      "creates": null,
      "raw": "0xf86980850ba43b740083015f9094793ae8c1b1a160bfc07bfb0d04f85eab1a71f4f280843ba150361ba0b22daae02c0dec13fed80a6f8d5618b6373f67c479535b24e995cc66c36aa701a07197ac25fc987585ad10bf75e3e4dd46e82df96d4b90905d8523c45558493ec2",
      "networkId": 0,
      "chainId": 0
    },
    {
      "hash": "0x6aab1c691cff9ddc1b537e90cf981fb346457ef9443413fa10b8f472ed3c4eb8",
      "blockHash": "0xbbeba1e620b6bc7b72c04a075bd8a112005f52e9df284ccf406a7d3a793e489e",
      "blockNumber": 68526,
      "transactionIndex": 5,
      "confirmations": null,
      "from": "0x1c2122a550775285d46386c8292C1353F846C33c",
      "gasPrice": {
        "_hex": "0xba43b7400"
      },
      "gasLimit": {
        "_hex": "0x15f90"
      },
      "to": "0x793AE8C1b1a160BFc07BFB0d04F85eab1A71F4f2",
      "value": {
        "_hex": "0x0"
      },
      "nonce": 0,
      "data": "0x3ba15036",
      "r": "0xe2d9a4e3cd0e4e842b39483434b0075be1d0d5d00647f6abe7a5a45b573a8708",
      "s": "0x4af94184c5e632dad8c33f34c5f2d5dd462fc7881d9915b1faf48bee3f748130",
      "v": 28,
      "creates": null,
      "raw": "0xf86980850ba43b740083015f9094793ae8c1b1a160bfc07bfb0d04f85eab1a71f4f280843ba150361ca0e2d9a4e3cd0e4e842b39483434b0075be1d0d5d00647f6abe7a5a45b573a8708a04af94184c5e632dad8c33f34c5f2d5dd462fc7881d9915b1faf48bee3f748130",
      "networkId": 0,
      "chainId": 0
    },
    {
      "hash": "0x783c49438242abd875c54f1ca1aad93b2c5199373070099c01c7ca10c2c86569",
      "blockHash": "0xbbeba1e620b6bc7b72c04a075bd8a112005f52e9df284ccf406a7d3a793e489e",
      "blockNumber": 68526,
      "transactionIndex": 6,
      "confirmations": null,
      "from": "0xE58C2dCd1694f10737Df78d8f2d85Af64aDC62Ab",
      "gasPrice": {
        "_hex": "0xba43b7400"
      },
      "gasLimit": {
        "_hex": "0x15f90"
      },
      "to": "0x793AE8C1b1a160BFc07BFB0d04F85eab1A71F4f2",
      "value": {
        "_hex": "0x0"
      },
      "nonce": 0,
      "data": "0x3ba15036",
      "r": "0x64649448e834518fe511d9c253cdd94c1caf315d27e4b2777f66f298f9447c72",
      "s": "0x483d24711595f890aa141b9b7e6d8d73cd1c608c0334b49f27837fb77349a085",
      "v": 28,
      "creates": null,
      "raw": "0xf86980850ba43b740083015f9094793ae8c1b1a160bfc07bfb0d04f85eab1a71f4f280843ba150361ca064649448e834518fe511d9c253cdd94c1caf315d27e4b2777f66f298f9447c72a0483d24711595f890aa141b9b7e6d8d73cd1c608c0334b49f27837fb77349a085",
      "networkId": 0,
      "chainId": 0
    },
    {
      "hash": "0xdd56acc454eb58aad503d505eeaf48353e177bb1af94cb0fb74c941b833d97fb",
      "blockHash": "0xbbeba1e620b6bc7b72c04a075bd8a112005f52e9df284ccf406a7d3a793e489e",
      "blockNumber": 68526,
      "transactionIndex": 7,
      "confirmations": null,
      "from": "0x75650B2766Cdb68cc82F525F16E0fB638c165C9e",
      "gasPrice": {
        "_hex": "0xba43b7400"
      },
      "gasLimit": {
        "_hex": "0x15f90"
      },
      "to": "0x793AE8C1b1a160BFc07BFB0d04F85eab1A71F4f2",
      "value": {
        "_hex": "0x0"
      },
      "nonce": 0,
      "data": "0x3ba15036",
      "r": "0x329889328896a1a0761f65b780a6414b766b8c2980e6c8871169d6514fcbc1bf",
      "s": "0x390ceb98f3b8be9ccf71e8577f2ecc0c086051433e8fd3a880fa21024ec677ff",
      "v": 28,
      "creates": null,
      "raw": "0xf86980850ba43b740083015f9094793ae8c1b1a160bfc07bfb0d04f85eab1a71f4f280843ba150361ca0329889328896a1a0761f65b780a6414b766b8c2980e6c8871169d6514fcbc1bfa0390ceb98f3b8be9ccf71e8577f2ecc0c086051433e8fd3a880fa21024ec677ff",
      "networkId": 0,
      "chainId": 0
    },
    {
      "hash": "0xbf74f5b59483b8f47579e0bd781058f99cc841d42a7b192c241b8156de988a48",
      "blockHash": "0xbbeba1e620b6bc7b72c04a075bd8a112005f52e9df284ccf406a7d3a793e489e",
      "blockNumber": 68526,
      "transactionIndex": 8,
      "confirmations": null,
      "from": "0x49356735441BDF2E8Aef2CD354483502b28FC658",
      "gasPrice": {
        "_hex": "0xba43b7400"
      },
      "gasLimit": {
        "_hex": "0x15f90"
      },
      "to": "0x793AE8C1b1a160BFc07BFB0d04F85eab1A71F4f2",
      "value": {
        "_hex": "0x0"
      },
      "nonce": 0,
      "data": "0x3ba15036",
      "r": "0xbb7b500336e320c026314e9f029327e3e47ae45f4768c7d6acb1b8c9e7ecbd0c",
      "s": "0x1f03d6c772f7185dcc3c25c10827a4f0fb24666433fe37c7269dc6ed49998454",
      "v": 28,
      "creates": null,
      "raw": "0xf86980850ba43b740083015f9094793ae8c1b1a160bfc07bfb0d04f85eab1a71f4f280843ba150361ca0bb7b500336e320c026314e9f029327e3e47ae45f4768c7d6acb1b8c9e7ecbd0ca01f03d6c772f7185dcc3c25c10827a4f0fb24666433fe37c7269dc6ed49998454",
      "networkId": 0,
      "chainId": 0
    },
    {
      "hash": "0xbb8142e16ea03b83f25db0b64e7056e64e79bf2996ce835fa43136cd2653405e",
      "blockHash": "0xbbeba1e620b6bc7b72c04a075bd8a112005f52e9df284ccf406a7d3a793e489e",
      "blockNumber": 68526,
      "transactionIndex": 9,
      "confirmations": null,
      "from": "0x6812681BCA92D406f490e4ABAd068c530e626F1F",
      "gasPrice": {
        "_hex": "0xba43b7400"
      },
      "gasLimit": {
        "_hex": "0x15f90"
      },
      "to": "0x793AE8C1b1a160BFc07BFB0d04F85eab1A71F4f2",
      "value": {
        "_hex": "0x0"
      },
      "nonce": 0,
      "data": "0x3ba15036",
      "r": "0x0d12830db40074ee71f1990ace57153dc63da7e6fd6ece982c6d06e77735eb93",
      "s": "0x22af871558d301b2bb723e33fe8990146523eef33dd6867558f06b5cb80a8cc7",
      "v": 27,
      "creates": null,
      "raw": "0xf86980850ba43b740083015f9094793ae8c1b1a160bfc07bfb0d04f85eab1a71f4f280843ba150361ba00d12830db40074ee71f1990ace57153dc63da7e6fd6ece982c6d06e77735eb93a022af871558d301b2bb723e33fe8990146523eef33dd6867558f06b5cb80a8cc7",
      "networkId": 0,
      "chainId": 0
    },
    {
      "hash": "0x2382f7217686a39bc24ba1d03bc8ba6ec9394bc8c7dc7a10a73fb16256298f6e",
      "blockHash": "0xbbeba1e620b6bc7b72c04a075bd8a112005f52e9df284ccf406a7d3a793e489e",
      "blockNumber": 68526,
      "transactionIndex": 10,
      "confirmations": null,
      "from": "0x6747f922385c9a6F9cfDf095F34345257DD597bE",
      "gasPrice": {
        "_hex": "0xba43b7400"
      },
      "gasLimit": {
        "_hex": "0x5208"
      },
      "to": "0x89Af4D4E8063175998B36830F43FC73c67A2b9a8",
      "value": {
        "_hex": "0x1fcbfa42bd6000"
      },
      "nonce": 125,
      "data": "0x",
      "r": "0x0ca7280b02c7e98f246e6d6f42faa23e9f47f1c6f6e8ebd038f1dfddfde89287",
      "s": "0x4386d190e8ccbff2c0ecd135f4426634ad3aab9fc3dd64438eb2a8792c6770df",
      "v": 28,
      "creates": null,
      "raw": "0xf86b7d850ba43b74008252089489af4d4e8063175998b36830f43fc73c67a2b9a8871fcbfa42bd6000801ca00ca7280b02c7e98f246e6d6f42faa23e9f47f1c6f6e8ebd038f1dfddfde89287a04386d190e8ccbff2c0ecd135f4426634ad3aab9fc3dd64438eb2a8792c6770df",
      "networkId": 0,
      "chainId": 0
    },
    {
      "hash": "0x9aca878059e25eaac60c4ca2477418c27ac4c73e29143da5b6792f2fb89344a0",
      "blockHash": "0xbbeba1e620b6bc7b72c04a075bd8a112005f52e9df284ccf406a7d3a793e489e",
      "blockNumber": 68526,
      "transactionIndex": 11,
      "confirmations": null,
      "from": "0xbC7eE8a66C89DEe4EF4bf787C713Efa14Ef43522",
      "gasPrice": {
        "_hex": "0xba43b7400"
      },
      "gasLimit": {
        "_hex": "0x15f90"
      },
      "to": "0x793AE8C1b1a160BFc07BFB0d04F85eab1A71F4f2",
      "value": {
        "_hex": "0x0"
      },
      "nonce": 0,
      "data": "0x3ba15036",
      "r": "0x08a223f0f660484a1ee4b50990f5eb112318623741f97492e846456b32bacc47",
      "s": "0x1e6c2ce78d1cb892900e669598e24b1586448aec9c43c8c28675ed8bbcd8a084",
      "v": 27,
      "creates": null,
      "raw": "0xf86980850ba43b740083015f9094793ae8c1b1a160bfc07bfb0d04f85eab1a71f4f280843ba150361ba008a223f0f660484a1ee4b50990f5eb112318623741f97492e846456b32bacc47a01e6c2ce78d1cb892900e669598e24b1586448aec9c43c8c28675ed8bbcd8a084",
      "networkId": 0,
      "chainId": 0
    },
    {
      "hash": "0x2d4093cc7ab7de417de9c3c7ebd88bd990c4a9d07f3d19d89408274848c24512",
      "blockHash": "0xbbeba1e620b6bc7b72c04a075bd8a112005f52e9df284ccf406a7d3a793e489e",
      "blockNumber": 68526,
      "transactionIndex": 12,
      "confirmations": null,
      "from": "0x61c9d63697b8eA3C387CcB3e693f02D4f597B763",
      "gasPrice": {
        "_hex": "0xba43b7400"
      },
      "gasLimit": {
        "_hex": "0x15f90"
      },
      "to": "0x793AE8C1b1a160BFc07BFB0d04F85eab1A71F4f2",
      "value": {
        "_hex": "0x0"
      },
      "nonce": 0,
      "data": "0x3ba15036",
      "r": "0x97e80a83e88900bfd76b4dae839d61f49355732060e5ff2d1b74e5f90e86e3ea",
      "s": "0x45a40afc656ff534ef19e22fb9ba4063b7b426bf5feba4317e1cb36d56fc6090",
      "v": 27,
      "creates": null,
      "raw": "0xf86980850ba43b740083015f9094793ae8c1b1a160bfc07bfb0d04f85eab1a71f4f280843ba150361ba097e80a83e88900bfd76b4dae839d61f49355732060e5ff2d1b74e5f90e86e3eaa045a40afc656ff534ef19e22fb9ba4063b7b426bf5feba4317e1cb36d56fc6090",
      "networkId": 0,
      "chainId": 0
    },
    {
      "hash": "0xab130fde672da483cee0e607163a437713ab399994a4d870e9d5be158f245eb6",
      "blockHash": "0xbbeba1e620b6bc7b72c04a075bd8a112005f52e9df284ccf406a7d3a793e489e",
      "blockNumber": 68526,
      "transactionIndex": 13,
      "confirmations": null,
      "from": "0x0B6dbF220dF5b51F126e8053dFB6573836Eb93EF",
      "gasPrice": {
        "_hex": "0xba43b7400"
      },
      "gasLimit": {
        "_hex": "0x15f90"
      },
      "to": "0x793AE8C1b1a160BFc07BFB0d04F85eab1A71F4f2",
      "value": {
        "_hex": "0x0"
      },
      "nonce": 0,
      "data": "0x3ba15036",
      "r": "0xaa0047d58a588d8741ec81c2be2894ae94bfd046fe82944938853bb2a2849306",
      "s": "0x69efb2ee256fc02da6921701e5f5cf9be676f5c2b7f2870dfe45b72c8492368a",
      "v": 27,
      "creates": null,
      "raw": "0xf86980850ba43b740083015f9094793ae8c1b1a160bfc07bfb0d04f85eab1a71f4f280843ba150361ba0aa0047d58a588d8741ec81c2be2894ae94bfd046fe82944938853bb2a2849306a069efb2ee256fc02da6921701e5f5cf9be676f5c2b7f2870dfe45b72c8492368a",
      "networkId": 0,
      "chainId": 0
    },
    {
      "hash": "0x7997d856f5b7ed7420b31fdf28f1d1e788968ee286bb1a8af724a91a749d6e4a",
      "blockHash": "0xbbeba1e620b6bc7b72c04a075bd8a112005f52e9df284ccf406a7d3a793e489e",
      "blockNumber": 68526,
      "transactionIndex": 14,
      "confirmations": null,
      "from": "0xC4427ED360Cb4995D1Ecf37D8DdB4EBa8a80ac7A",
      "gasPrice": {
        "_hex": "0xba43b7400"
      },
      "gasLimit": {
        "_hex": "0x15f90"
      },
      "to": "0x793AE8C1b1a160BFc07BFB0d04F85eab1A71F4f2",
      "value": {
        "_hex": "0x0"
      },
      "nonce": 0,
      "data": "0x3ba15036",
      "r": "0x142a5c1be959aa1d1d398dd510770c0d0c56655f09e27e70eebea35f7184b0b9",
      "s": "0x0d866c985320a42fade597f26392ffc7e88a2e35ad4d556e39bd807822b2a222",
      "v": 27,
      "creates": null,
      "raw": "0xf86980850ba43b740083015f9094793ae8c1b1a160bfc07bfb0d04f85eab1a71f4f280843ba150361ba0142a5c1be959aa1d1d398dd510770c0d0c56655f09e27e70eebea35f7184b0b9a00d866c985320a42fade597f26392ffc7e88a2e35ad4d556e39bd807822b2a222",
      "networkId": 0,
      "chainId": 0
    },
    {
      "hash": "0x1d8e8b5f6c310f6aff1f8840a08e31ff25310028dbd79e649524ba2e49943075",
      "blockHash": "0xbbeba1e620b6bc7b72c04a075bd8a112005f52e9df284ccf406a7d3a793e489e",
      "blockNumber": 68526,
      "transactionIndex": 15,
      "confirmations": null,
      "from": "0x860c5a079DF68698B57692c63e71D661204fdCFA",
      "gasPrice": {
        "_hex": "0xba43b7400"
      },
      "gasLimit": {
        "_hex": "0x15f90"
      },
      "to": "0x793AE8C1b1a160BFc07BFB0d04F85eab1A71F4f2",
      "value": {
        "_hex": "0x0"
      },
      "nonce": 0,
      "data": "0x3ba15036",
      "r": "0xefa3b80d5c63db7b3e32c598e47f17fd267fefce06c1c56c4ba844399b20d55f",
      "s": "0x622aa110a0a313705291e28b479b257095c5e86b1cc6b30e64505315173d8c79",
      "v": 27,
      "creates": null,
      "raw": "0xf86980850ba43b740083015f9094793ae8c1b1a160bfc07bfb0d04f85eab1a71f4f280843ba150361ba0efa3b80d5c63db7b3e32c598e47f17fd267fefce06c1c56c4ba844399b20d55fa0622aa110a0a313705291e28b479b257095c5e86b1cc6b30e64505315173d8c79",
      "networkId": 0,
      "chainId": 0
    },
    {
      "hash": "0x7ecd7b423fd1358068f404f5d80f05698ce77c14d9aa3feced18246f2de0dc4d",
      "blockHash": "0xbbeba1e620b6bc7b72c04a075bd8a112005f52e9df284ccf406a7d3a793e489e",
      "blockNumber": 68526,
      "transactionIndex": 16,
      "confirmations": null,
      "from": "0x1c0260B07e22F754419958587c6B195aa6BB465d",
      "gasPrice": {
        "_hex": "0xba43b7400"
      },
      "gasLimit": {
        "_hex": "0x15f90"
      },
      "to": "0x793AE8C1b1a160BFc07BFB0d04F85eab1A71F4f2",
      "value": {
        "_hex": "0x0"
      },
      "nonce": 0,
      "data": "0x3ba15036",
      "r": "0x8a617d26d9d37e652fe47ac2db6e183b94f2b7a9f447195476b07b3104ebf56f",
      "s": "0x26e46fe5c1d79bfdd0e525a5ee7e40a30bd06fb72fec46be5ab3aa2f9f7517de",
      "v": 28,
      "creates": null,
      "raw": "0xf86980850ba43b740083015f9094793ae8c1b1a160bfc07bfb0d04f85eab1a71f4f280843ba150361ca08a617d26d9d37e652fe47ac2db6e183b94f2b7a9f447195476b07b3104ebf56fa026e46fe5c1d79bfdd0e525a5ee7e40a30bd06fb72fec46be5ab3aa2f9f7517de",
      "networkId": 0,
      "chainId": 0
    },
    {
      "hash": "0x9e0ac666e0ea3b20461bd084e76e60819089b075b5278c545fe8fe09f08ff6cd",
      "blockHash": "0xbbeba1e620b6bc7b72c04a075bd8a112005f52e9df284ccf406a7d3a793e489e",
      "blockNumber": 68526,
      "transactionIndex": 17,
      "confirmations": null,
      "from": "0xD9704dDFa2e7fc404513bbC6ED387569e42ca788",
      "gasPrice": {
        "_hex": "0xba43b7400"
      },
      "gasLimit": {
        "_hex": "0x15f90"
      },
      "to": "0x793AE8C1b1a160BFc07BFB0d04F85eab1A71F4f2",
      "value": {
        "_hex": "0x0"
      },
      "nonce": 0,
      "data": "0x3ba15036",
      "r": "0x4d51d2ebbc925d1b76a63e0313e7345baa47b2bd22c32a58083304af71b1e8d0",
      "s": "0x531c518f8182b52549555f01a22dbfe79a327479ac452e80b09feefb1e928253",
      "v": 27,
      "creates": null,
      "raw": "0xf86980850ba43b740083015f9094793ae8c1b1a160bfc07bfb0d04f85eab1a71f4f280843ba150361ba04d51d2ebbc925d1b76a63e0313e7345baa47b2bd22c32a58083304af71b1e8d0a0531c518f8182b52549555f01a22dbfe79a327479ac452e80b09feefb1e928253",
      "networkId": 0,
      "chainId": 0
    },
    {
      "hash": "0xaa708e5ae539de71fd7e031bb8a668a7c0f3613e9f24d81a354e3f214b4019a5",
      "blockHash": "0xbbeba1e620b6bc7b72c04a075bd8a112005f52e9df284ccf406a7d3a793e489e",
      "blockNumber": 68526,
      "transactionIndex": 18,
      "confirmations": null,
      "from": "0x3f4dF11E066CB6AEEB1d14C03826f8D157F06D04",
      "gasPrice": {
        "_hex": "0xba43b7400"
      },
      "gasLimit": {
        "_hex": "0x15f90"
      },
      "to": "0x793AE8C1b1a160BFc07BFB0d04F85eab1A71F4f2",
      "value": {
        "_hex": "0x0"
      },
      "nonce": 0,
      "data": "0x3ba15036",
      "r": "0xf6ae037bdc755169c6b868dda22d28755c5961c4992934d4147c689937be3564",
      "s": "0x0a7920fff12f4993b6e7fd95d41c430ccff710990b2eeec8924b0a79b85d1614",
      "v": 27,
      "creates": null,
      "raw": "0xf86980850ba43b740083015f9094793ae8c1b1a160bfc07bfb0d04f85eab1a71f4f280843ba150361ba0f6ae037bdc755169c6b868dda22d28755c5961c4992934d4147c689937be3564a00a7920fff12f4993b6e7fd95d41c430ccff710990b2eeec8924b0a79b85d1614",
      "networkId": 0,
      "chainId": 0
    },
    {
      "hash": "0x42ff9203ed9997b09869270398ba031e3069163c402bb1177dde2e7dc343192c",
      "blockHash": "0xbbeba1e620b6bc7b72c04a075bd8a112005f52e9df284ccf406a7d3a793e489e",
      "blockNumber": 68526,
      "transactionIndex": 19,
      "confirmations": null,
      "from": "0x65C03917E7f81DeBC8bB93Cce18ca5a0fD86cd3C",
      "gasPrice": {
        "_hex": "0xba43b7400"
      },
      "gasLimit": {
        "_hex": "0x15f90"
      },
      "to": "0x793AE8C1b1a160BFc07BFB0d04F85eab1A71F4f2",
      "value": {
        "_hex": "0x0"
      },
      "nonce": 0,
      "data": "0x3ba15036",
      "r": "0x74ec31e55a9107b0fd88602c61f45d1429b501a07c19f25dcc5551d4e0b1b54a",
      "s": "0x1f35526fa6489cc08c2ddc0de47d9a9d3bdcfe1d01c80e706aaf8c74804b0dbb",
      "v": 28,
      "creates": null,
      "raw": "0xf86980850ba43b740083015f9094793ae8c1b1a160bfc07bfb0d04f85eab1a71f4f280843ba150361ca074ec31e55a9107b0fd88602c61f45d1429b501a07c19f25dcc5551d4e0b1b54aa01f35526fa6489cc08c2ddc0de47d9a9d3bdcfe1d01c80e706aaf8c74804b0dbb",
      "networkId": 0,
      "chainId": 0
    },
    {
      "hash": "0x394814fbcfcc4d288674998773f7e1fca85b24dbf7bf87f19f6f4b61521e0e9b",
      "blockHash": "0xbbeba1e620b6bc7b72c04a075bd8a112005f52e9df284ccf406a7d3a793e489e",
      "blockNumber": 68526,
      "transactionIndex": 20,
      "confirmations": null,
      "from": "0x96F300115aaAE54ca824ee738600d488660b0BE8",
      "gasPrice": {
        "_hex": "0xba43b7400"
      },
      "gasLimit": {
        "_hex": "0x15f90"
      },
      "to": "0x793AE8C1b1a160BFc07BFB0d04F85eab1A71F4f2",
      "value": {
        "_hex": "0x0"
      },
      "nonce": 0,
      "data": "0x3ba15036",
      "r": "0x8783052fd3ab02871d4703fee17f236196b9c329d77f8b26135c06f709857ce4",
      "s": "0x0631ee52c602fef5028809b70b704036487ab1601d075fe8e6bca31335b889cb",
      "v": 27,
      "creates": null,
      "raw": "0xf86980850ba43b740083015f9094793ae8c1b1a160bfc07bfb0d04f85eab1a71f4f280843ba150361ba08783052fd3ab02871d4703fee17f236196b9c329d77f8b26135c06f709857ce4a00631ee52c602fef5028809b70b704036487ab1601d075fe8e6bca31335b889cb",
      "networkId": 0,
      "chainId": 0
    },
    {
      "hash": "0xf1f8a4ff494f89cd169b53eddc7a0d95aab345d900d45b1d022506b76c5233db",
      "blockHash": "0xbbeba1e620b6bc7b72c04a075bd8a112005f52e9df284ccf406a7d3a793e489e",
      "blockNumber": 68526,
      "transactionIndex": 21,
      "confirmations": null,
      "from": "0x0E874D30c41dCBCC3bF2A9AfDd8cBc79E6e8EFb1",
      "gasPrice": {
        "_hex": "0xba43b7400"
      },
      "gasLimit": {
        "_hex": "0x15f90"
      },
      "to": "0x793AE8C1b1a160BFc07BFB0d04F85eab1A71F4f2",
      "value": {
        "_hex": "0x0"
      },
      "nonce": 0,
      "data": "0x3ba15036",
      "r": "0x84269993d4cd85eaae7a5aa2ef9cc2e8a51ab1dc5203b908323f365b6560e1ea",
      "s": "0x7f0032c105274d1c789a839f4dde1b42abb60ee65e37caab75e7f70b829becb4",
      "v": 27,
      "creates": null,
      "raw": "0xf86980850ba43b740083015f9094793ae8c1b1a160bfc07bfb0d04f85eab1a71f4f280843ba150361ba084269993d4cd85eaae7a5aa2ef9cc2e8a51ab1dc5203b908323f365b6560e1eaa07f0032c105274d1c789a839f4dde1b42abb60ee65e37caab75e7f70b829becb4",
      "networkId": 0,
      "chainId": 0
    },
    {
      "hash": "0x794c9da306a2486dda8c468b86eaf8e136f516bdba36049047decf5e1d1a3314",
      "blockHash": "0xbbeba1e620b6bc7b72c04a075bd8a112005f52e9df284ccf406a7d3a793e489e",
      "blockNumber": 68526,
      "transactionIndex": 22,
      "confirmations": null,
      "from": "0x272d18E1A1B4C732e89F9Ece1D6C3d79ca374693",
      "gasPrice": {
        "_hex": "0xba43b7400"
      },
      "gasLimit": {
        "_hex": "0x15f90"
      },
      "to": "0x793AE8C1b1a160BFc07BFB0d04F85eab1A71F4f2",
      "value": {
        "_hex": "0x0"
      },
      "nonce": 0,
      "data": "0x3ba15036",
      "r": "0x7a712871fb0f767348a3c8aa9517568d2f2c517a1063353a166e8bf10340c4b8",
      "s": "0x6e900a7096db60b72495839d2418614ccaa432c00db556afa7ca01929e59ebb8",
      "v": 28,
      "creates": null,
      "raw": "0xf86980850ba43b740083015f9094793ae8c1b1a160bfc07bfb0d04f85eab1a71f4f280843ba150361ca07a712871fb0f767348a3c8aa9517568d2f2c517a1063353a166e8bf10340c4b8a06e900a7096db60b72495839d2418614ccaa432c00db556afa7ca01929e59ebb8",
      "networkId": 0,
      "chainId": 0
    },
    {
      "hash": "0x0a0b61acd7c98cc9ac93d9414cff8a2a04229c8f109eb2ed1a9201b9253db0b1",
      "blockHash": "0xbbeba1e620b6bc7b72c04a075bd8a112005f52e9df284ccf406a7d3a793e489e",
      "blockNumber": 68526,
      "transactionIndex": 23,
      "confirmations": null,
      "from": "0x74Ff8E65Ef544caeF1a31357Dc42bbb22AE4D1fE",
      "gasPrice": {
        "_hex": "0xba43b7400"
      },
      "gasLimit": {
        "_hex": "0x15f90"
      },
      "to": "0x793AE8C1b1a160BFc07BFB0d04F85eab1A71F4f2",
      "value": {
        "_hex": "0x0"
      },
      "nonce": 0,
      "data": "0x3ba15036",
      "r": "0xb15f0c36364099a0381a84027056e112b925e3574ec89aae690787faa90949c7",
      "s": "0x107efa90934232781749f2477674947b6db1057bc60c8bbc27a1bc58286dd0ce",
      "v": 28,
      "creates": null,
      "raw": "0xf86980850ba43b740083015f9094793ae8c1b1a160bfc07bfb0d04f85eab1a71f4f280843ba150361ca0b15f0c36364099a0381a84027056e112b925e3574ec89aae690787faa90949c7a0107efa90934232781749f2477674947b6db1057bc60c8bbc27a1bc58286dd0ce",
      "networkId": 0,
      "chainId": 0
    },
    {
      "hash": "0x31899e652b6ddb1006db12ee8f000372ffb78eeee8a425ae80261466b68081d4",
      "blockHash": "0xbbeba1e620b6bc7b72c04a075bd8a112005f52e9df284ccf406a7d3a793e489e",
      "blockNumber": 68526,
      "transactionIndex": 24,
      "confirmations": null,
      "from": "0x0684FE816ADE3B123abcc9D6d46Da8e685b97fC0",
      "gasPrice": {
        "_hex": "0xba43b7400"
      },
      "gasLimit": {
        "_hex": "0x15f90"
      },
      "to": "0x793AE8C1b1a160BFc07BFB0d04F85eab1A71F4f2",
      "value": {
        "_hex": "0x0"
      },
      "nonce": 0,
      "data": "0x3ba15036",
      "r": "0xb9ee12171054a29dcb1fae852888f4872e485702aff564fb9dba5a0841a63c70",
      "s": "0x0f990337e10e944afb0b0efbc2c0b11fc4db7c0b902a9b1f1bf9d65e4d9b1a57",
      "v": 27,
      "creates": null,
      "raw": "0xf86980850ba43b740083015f9094793ae8c1b1a160bfc07bfb0d04f85eab1a71f4f280843ba150361ba0b9ee12171054a29dcb1fae852888f4872e485702aff564fb9dba5a0841a63c70a00f990337e10e944afb0b0efbc2c0b11fc4db7c0b902a9b1f1bf9d65e4d9b1a57",
      "networkId": 0,
      "chainId": 0
    },
    {
      "hash": "0x918042a4305eb42f068042577c48940d52b8999b0fec2d2c5617133f8f9867a3",
      "blockHash": "0xbbeba1e620b6bc7b72c04a075bd8a112005f52e9df284ccf406a7d3a793e489e",
      "blockNumber": 68526,
      "transactionIndex": 25,
      "confirmations": null,
      "from": "0x6903D5FeB1A77f078fE6E919AdA5094DD86e3bcA",
      "gasPrice": {
        "_hex": "0xba43b7400"
      },
      "gasLimit": {
        "_hex": "0x15f90"
      },
      "to": "0x793AE8C1b1a160BFc07BFB0d04F85eab1A71F4f2",
      "value": {
        "_hex": "0x0"
      },
      "nonce": 0,
      "data": "0x3ba15036",
      "r": "0xebc718d7ee7165feb3d588e4ba163872777edc69ea782a2c6cde6c3971a33b1d",
      "s": "0x7ab3fa35e16ea6ecd3dc9e30ff439f76c72d6b1c5e2d4ac37094a4a9cd3273f7",
      "v": 27,
      "creates": null,
      "raw": "0xf86980850ba43b740083015f9094793ae8c1b1a160bfc07bfb0d04f85eab1a71f4f280843ba150361ba0ebc718d7ee7165feb3d588e4ba163872777edc69ea782a2c6cde6c3971a33b1da07ab3fa35e16ea6ecd3dc9e30ff439f76c72d6b1c5e2d4ac37094a4a9cd3273f7",
      "networkId": 0,
      "chainId": 0
    }
  ]
}