{
  "hash": "0x547283076e8b5dc3d1278e4a4b84c2cec2bf89e73a1f9277e1031033016f2bfd",
  "parentHash": "0xe10f39192a542438ea14230e4e1e55e2913af8baadb7291ab2b6f8f88de36fa6",
  "number": 55405,
  "timestamp": 1439070199,
  "nonce": "0x0eb867c34d23d539",
  "difficulty": 1623451302387,
  "gasLimit": {
    "_hex": "0x2fefd8"
  },
  "gasUsed": {
    "_hex": "0x5208"
  },
  "miner": "0xbe4532E1B1Db5c913Cf553be76180c1777055403",
  "extraData": "0x476574682f686261722f76312e302e312f6c696e75782f676f312e342e32",
  "transactions": [
    {
      "hash": "0x36b466e69b3c5f6382faae7f605f5e3fcb59bb5ffb07de9d9befcfa018870a8c",
      "blockHash": "0x547283076e8b5dc3d1278e4a4b84c2cec2bf89e73a1f9277e1031033016f2bfd",
      "blockNumber": 55405,
      "transactionIndex": 0,
      "confirmations": null,
      "from": "0x0cDA12BF72d461BBc479eB92e6491d057e6B5Ad1",
      "gasPrice": {
        "_hex": "0x68c6171400"
      },
      "gasLimit": {
        "_hex": "0x55f0"
      },
      "to": "0x865d4c0cbD0C4D7580AAB16CE346127177162FFA",
      "value": {
        "_hex": "0xde0b6b3a7640000"
      },
      "nonce": 15,
      "data": "0x",
      "r": "0xdf53bfb11d1340fdc2a12a46b30854f0b784b23d2c6c4bd80bdf40446774376a",
      "s": "0x138a2e81db8b9448429dd2e76830c87baef5fe289d4fce3cdedd889689911eb9",
      "v": 28,
      "creates": null,
      "raw": "0xf86c0f8568c61714008255f094865d4c0cbd0c4d7580aab16ce346127177162ffa880de0b6b3a7640000801ca0df53bfb11d1340fdc2a12a46b30854f0b784b23d2c6c4bd80bdf40446774376aa0138a2e81db8b9448429dd2e76830c87baef5fe289d4fce3cdedd889689911eb9",
      "networkId": 0,
      "chainId": 0
    }
  ]
}