{
  "hash": "0xafba1a9ec0192cf031a2a0b593bcbbeeee6393e088a8664fde62312912a7fdd5",
  "parentHash": "0xe5174570ef10e17b9a061be7e13d230e0a19c9013bb27d54adbf59a43b54bb21",
  "number": 120060,
  "timestamp": 1440153370,
  "nonce": "0x99e7f5be23f4301d",
  "difficulty": 4407001714747,
  "gasLimit": {
    "_hex": "0x2fefd8"
  },
  "gasUsed": {
    "_hex": "0xa410"
  },
  "miner": "0x88D74a59454F6cF3B51ef6b9136AFb6b9D405A88",
  "extraData": "0x",
  "transactions": [
    {
      "hash": "0xaf48fa432d0b40f1701b7317b9e23d740d2a6191563e87a09d518236520fd89e",
      "blockHash": "0xafba1a9ec0192cf031a2a0b593bcbbeeee6393e088a8664fde62312912a7fdd5",
      "blockNumber": 120060,
      "transactionIndex": 0,
      "confirmations": null,
      "from": "0x2910543Af39abA0Cd09dBb2D50200b3E800A63D2",
      "gasPrice": {
        "_hex": "0xd7daa5e64"
      },
      "gasLimit": {
        "_hex": "0x5208"
      },
      "to": "0x42C58C6e5E910296677b986Bc6Da00a7eD807cA4",
      "value": {
        "_hex": "0x14542a84f29ffdf8000"
      },
      "nonce": 1169,
      "data": "0x",
      "r": "0xd61b1385f7e4efc088903ec6ccc8b573adfdc8184ae76be266084b36e17c26ae",
      "s": "0x07fdb201f559151f5f632f9ed1e98029c0847d317374a29675d45a31aba681e4",
      "v": 27,
      "creates": null,
      "raw": "0xf870820491850d7daa5e648252089442c58c6e5e910296677b986bc6da00a7ed807ca48a014542a84f29ffdf8000801ba0d61b1385f7e4efc088903ec6ccc8b573adfdc8184ae76be266084b36e17c26aea007fdb201f559151f5f632f9ed1e98029c0847d317374a29675d45a31aba681e4",
      "networkId": 0,
      "chainId": 0
    },
    {
      "hash": "0xf7076b86dbbafe018e323698460e5eb03eebcd60a1a6ad08dc68b263c5c7c616",
      "blockHash": "0xafba1a9ec0192cf031a2a0b593bcbbeeee6393e088a8664fde62312912a7fdd5",
      "blockNumber": 120060,
      "transactionIndex": 1,
      "confirmations": null,
      "from": "0x92fe746bA4159EE3Ba1E83067aA7cf79cc4CC0d9",
      "gasPrice": {
        "_hex": "0xba43b7400"
      },
      "gasLimit": {
        "_hex": "0x5208"
      },
      "to": "0x32Be343B94f860124dC4fEe278FDCBD38C102D88",
      "value": {
        "_hex": "0x2b8089509e88800"
      },
      "nonce": 0,
      "data": "0x",
      "r": "0x8c7646f06423aef1caceb3cafea46ec956a4e9399767d09835f7b4d2ace32b88",
      "s": "0x5350a5b1ad5746d56fbb4e92ec05316bbdef5a2497c8c216fd3814fecb7157f0",
      "v": 28,
      "creates": null,
      "raw": "0xf86c80850ba43b74008252089432be343b94f860124dc4fee278fdcbd38c102d888802b8089509e88800801ca08c7646f06423aef1caceb3cafea46ec956a4e9399767d09835f7b4d2ace32b88a05350a5b1ad5746d56fbb4e92ec05316bbdef5a2497c8c216fd3814fecb7157f0",
      "networkId": 0,
      "chainId": 0
    }
  ]
}