{
  "hash": "0x1eefde0c4e0fa2f6bca4a353f785953afd42a6496ac75764bbe41e0fb65dff0c",
  "parentHash": "0xf370b992e4cab793a84a90162fb6c175c7c930074d5e9df3ef5945a45a0d9bff",
  "number": 72397,
  "timestamp": 1439352035,
  "nonce": "0xa80ff88c67cbf4ae",
  "difficulty": 2190843322576,
  "gasLimit": {
    "_hex": "0x2fefd8"
  },
  "gasUsed": {
    "_hex": "0x546c"
  },
  "miner": "0x5B3e850E39e6f2C7dD38707b649e2B3536F14C0b",
  "extraData": "0x476574682f76312e302e312f64617277696e2f676f312e342e32",
  "transactions": [
    {
      "hash": "0x3f7e86c8ff0f68558831a210a0cab98264aebd3c9f58034559f28f34b670a101",
      "blockHash": "0x1eefde0c4e0fa2f6bca4a353f785953afd42a6496ac75764bbe41e0fb65dff0c",
      "blockNumber": 72397,
      "transactionIndex": 0,
      "confirmations": null,
      "from": "0x259eC4d265F3AB536B7c70FA97aCa142692c13fC",
      "gasPrice": {
        "_hex": "0x110c8f7d8de"
      },
      "gasLimit": {
        "_hex": "0xc350"
      },
      "to": "0x2910543Af39abA0Cd09dBb2D50200b3E800A63D2",
      "value": {
        "_hex": "0x10bb3d8cc15490000"
      },
      "nonce": 1,
      "data": "0x454e41364a42565947",
      "r": "0x4da84deba9b28f630e31814b4320060375aa7dea8053cde8d4dd88d3f81d19a7",
      "s": "0xd795ec13409d78b2a29e0aff326a90998ba141d9dc4b0cf09e165a37841cf7b6",
      "v": 28,
      "creates": null,
      "raw": "0xf87701860110c8f7d8de82c350942910543af39aba0cd09dbb2d50200b3e800a63d289010bb3d8cc1549000089454e41364a425659471ca04da84deba9b28f630e31814b4320060375aa7dea8053cde8d4dd88d3f81d19a7a0d795ec13409d78b2a29e0aff326a90998ba141d9dc4b0cf09e165a37841cf7b6",
      "networkId": 0,
      "chainId": 0
    }
  ]
}