{
  "hash": "0xe2c4d80319b00bae15058bec9199fd8117d9d036c9c7a2a2fed3d515a7d1b2d8",
  "parentHash": "0x8a3e787350ec38bf216b74cd71e2ba7ba0a55c371a7cf539fbe0e865a63ecea9",
  "number": 91293,
  "timestamp": 1439653365,
  "nonce": "0x60f0a4ccdba7f9ef",
  "difficulty": 3455757975358,
  "gasLimit": {
    "_hex": "0x2fefd8"
  },
  "gasUsed": {
    "_hex": "0x5208"
  },
  "miner": "0xf927a40C8B7F6E07c5af7FA2155B4864a4112B13",
  "extraData": "0x",
  "transactions": [
    {
      "hash": "0x0a53d361301e83a5058d5442e6eb062aae8a89c422b0fdb459134f0a91420894",
      "blockHash": "0xe2c4d80319b00bae15058bec9199fd8117d9d036c9c7a2a2fed3d515a7d1b2d8",
      "blockNumber": 91293,
      "transactionIndex": 0,
      "confirmations": null,
      "from": "0xcEf2F9eDE909391e2b692bb5001b8242F79f812b",
      "gasPrice": {
        "_hex": "0xba43b7400"
      },
      "gasLimit": {
        "_hex": "0x5264"
      },
      "to": "0x8Ba74c19d14CC77E53A2B1DA67e92F2454E56634",
      "value": {
        "_hex": "0x35ab028ac154b80000"
      },
      "nonce": 1,
      "data": "0x",
      "r": "0x6e592200b453a8b68dc24ae8333d2724f7f1c377c189c5810bd04ddc722e7b80",
      "s": "0xe0033a250107fabc33c277cd7294bf45cacb8662303b573d0cc450f3fb1135c9",
      "v": 27,
      "creates": null,
      "raw": "0xf86d01850ba43b7400825264948ba74c19d14cc77e53a2b1da67e92f2454e566348935ab028ac154b80000801ba06e592200b453a8b68dc24ae8333d2724f7f1c377c189c5810bd04ddc722e7b80a0e0033a250107fabc33c277cd7294bf45cacb8662303b573d0cc450f3fb1135c9",
      "networkId": 0,
      "chainId": 0
    }
  ]
}