{
  "hash": "0xc3f9c9f083d21efc418ddade7ccb97267d950afd86dd8d1c7d41107d57adec22",
  "parentHash": "0x636bffbe01de3dfc274110c82ffa243d4503f72f19d035b231798b01a67550ac",
  "number": 93129,
  "timestamp": 1439683200,
  "nonce": "0xec87e8081a1cb296",
  "difficulty": 3634982162962,
  "gasLimit": {
    "_hex": "0x2fefd5"
  },
  "gasUsed": {
    "_hex": "0x520c"
  },
  "miner": "0x790b8a3cE86E707ED0eD32bF89B3269692a23CC1",
  "extraData": "0xd783010001844765746887676f312e342e32856c696e7578",
  "transactions": [
    {
      "hash": "0xa79422f045fa0207e972f86a3b376a59ae32e878a9b6f4fea5681ae7a744c031",
      "blockHash": "0xc3f9c9f083d21efc418ddade7ccb97267d950afd86dd8d1c7d41107d57adec22",
      "blockNumber": 93129,
      "transactionIndex": 0,
      "confirmations": null,
      "from": "0x8375eA550366a24550ec93283600485F4Ba8CFE5",
      "gasPrice": {
        "_hex": "0xe2692fad7"
      },
      "gasLimit": {
        "_hex": "0x7530"
      },
      "to": "0xb9836ec1f42Bd48331bceaedb74a6Bcdc22832bD",
      "value": {
        "_hex": "0x71afd498d0000"
      },
      "nonce": 9,
      "data": "0x00",
      "r": "0xe45527feda7bec6c3ae95882f1b4d9353bb08bcbfcd2ea8b43021ea83b215d7b",
      "s": "0x261597e12918e2d12758166270df02f80f00a92ea4acc8afa506366cf7b134c9",
      "v": 28,
      "creates": null,
      "raw": "0xf86b09850e2692fad782753094b9836ec1f42bd48331bceaedb74a6bcdc22832bd87071afd498d0000001ca0e45527feda7bec6c3ae95882f1b4d9353bb08bcbfcd2ea8b43021ea83b215d7ba0261597e12918e2d12758166270df02f80f00a92ea4acc8afa506366cf7b134c9",
      "networkId": 0,
      "chainId": 0
    }
  ]
}