{
  "hash": "0xe4b27e53e922ebd3803355204078b1770cf3e98ea24dd6858b69abce47db8cb2",
  "parentHash": "0x2d7dc9c1a03d6ea90a0d85f89909fba96157ccb9295c2ee4b21971a707fa243d",
  "number": 115552,
  "timestamp": 1440059110,
  "nonce": "0x7e5801f3f8fde648",
  "difficulty": 4611964241676,
  "gasLimit": {
    "_hex": "0x2fefd8"
  },
  "gasUsed": {
    "_hex": "0x5208"
  },
  "miner": "0x007f7f58D3eb5b7510A301eCC749FC1fCDDBE14D",
  "extraData": "0x476574682f76312e302e312f77696e646f77732f676f312e342e32",
  "transactions": [
    {
      "hash": "0x261603fab28fa6f7a1d78bf09d31f9fb0b850fb7d8f9bb43f330119864946d20",
      "blockHash": "0xe4b27e53e922ebd3803355204078b1770cf3e98ea24dd6858b69abce47db8cb2",
      "blockNumber": 115552,
      "transactionIndex": 0,
      "confirmations": null,
      "from": "0xed433C980AaED4E749B3229F3993BfB2840f2433",
      "gasPrice": {
        "_hex": "0xba43b7400"
      },
      "gasLimit": {
        "_hex": "0x5208"
      },
      "to": "0xC47Aaa860008be6f65B58c6C6E02a84e666EfE31",
      "value": {
        "_hex": "0x2c39d23dfbc276000"
      },
      "nonce": 3,
      "data": "0x",
      "r": "0x780143924021faf2ca2c8b26054c4c2596e14d1b645dfe38dc457a6aa4c7eff8",
      "s": "0x6aa89fb5cd3f02548225fa9d7f00f9b64f9a113a7ed63d05878afa8c6dc34525",
      "v": 28,
      "creates": null,
      "raw": "0xf86d03850ba43b740082520894c47aaa860008be6f65b58c6c6e02a84e666efe318902c39d23dfbc276000801ca0780143924021faf2ca2c8b26054c4c2596e14d1b645dfe38dc457a6aa4c7eff8a06aa89fb5cd3f02548225fa9d7f00f9b64f9a113a7ed63d05878afa8c6dc34525",
      "networkId": 0,
      "chainId": 0
    }
  ]
}