{
  "hash": "0x3e11c4bd55bbd9c84c0ac0c5d580df0a895fdf01d488924eb81232f7129dca74",
  "parentHash": "0x9b25088b2ffd5ef213fd334e025981905e70a982b2ee2064a83a9d11221671ee",
  "number": 86669,
  "timestamp": 1439581211,
  "nonce": "0xdb9b715b5edfa5b6",
  "difficulty": 2943090491362,
  "gasLimit": {
    "_hex": "0x2fefd8"
  },
  "gasUsed": {
    "_hex": "0x5208"
  },
  "miner": "0x33bC13fDF135073277971B4D9F4f72082e907996",
  "extraData": "0x476574682f76312e302e312d38326566323666362f6c696e75782f676f312e34",
  "transactions": [
    {
      "hash": "0x2266363105e15099d5ea068e439b0f945a9cbd99f883103856f666dbe1205e01",
      "blockHash": "0x3e11c4bd55bbd9c84c0ac0c5d580df0a895fdf01d488924eb81232f7129dca74",
      "blockNumber": 86669,
      "transactionIndex": 0,
      "confirmations": null,
      "from": "0x8C93d2F70d641AC1F4cCc3287E2A1376Ce3c7DCC",
      "gasPrice": {
        "_hex": "0xcb2528f10"
      },
      "gasLimit": {
        "_hex": "0x15f90"
      },
      "to": "0xF5B20ca0d57DFaB96f1695100df93BFF1B7EEe96",
      "value": {
        "_hex": "0xde0b6b3a7640000"
      },
      "nonce": 2,
      "data": "0x",
      "r": "0xa835c3424b9a7e404e375da53770159e7f7b5b7a8632051cd7cde9f379a96adb",
      "s": "0x23c32d72fe4bb0c873e53ff4f67de7e8a3deb7d250e7c959878a2e384e906a90",
      "v": 27,
      "creates": null,
      "raw": "0xf86d02850cb2528f1083015f9094f5b20ca0d57dfab96f1695100df93bff1b7eee96880de0b6b3a7640000801ba0a835c3424b9a7e404e375da53770159e7f7b5b7a8632051cd7cde9f379a96adba023c32d72fe4bb0c873e53ff4f67de7e8a3deb7d250e7c959878a2e384e906a90",
      "networkId": 0,
      "chainId": 0
    }
  ]
}