{
  "hash": "0xc587d656f20b8d3f3a8b15901b74c76bfbb293f6e1ca85eccefd12deb93d32a3",
  "parentHash": "0x2d260e1841954a03b7853a06832212ee2195206a5119c1cb045e41eaea01d550",
  "number": 104793,
  "timestamp": 1439875750,
  "nonce": "0x0626bba2aa18ed4e",
  "difficulty": 4357205661587,
  "gasLimit": {
    "_hex": "0x2fefd8"
  },
  "gasUsed": {
    "_hex": "0x5208"
  },
  "miner": "0xcf00A85f3826941e7A25BFcF9Aac575d40410852",
  "extraData": "0x476574682f76312e302e312f77696e646f77732f676f312e342e32",
  "transactions": [
    {
      "hash": "0x7aa1974f8b1b1d32617756a7b8569dcd5f8f628989d98f41fb572fbc84b201fa",
      "blockHash": "0xc587d656f20b8d3f3a8b15901b74c76bfbb293f6e1ca85eccefd12deb93d32a3",
      "blockNumber": 104793,
      "transactionIndex": 0,
      "confirmations": null,
      "from": "0x06EC48800B2DB3eEfa052e98A9b5Fc2Bf783Ee74",
      "gasPrice": {
        "_hex": "0xdc20e7afc"
      },
      "gasLimit": {
        "_hex": "0x5208"
      },
      "to": "0x32Be343B94f860124dC4fEe278FDCBD38C102D88",
      "value": {
        "_hex": "0x455f28eab9405800"
      },
      "nonce": 19,
      "data": "0x",
      "r": "0x6cf6c338210012cec786c10152fc9a37b697fb8e29eb32f0aa87abc799d6ad1a",
      "s": "0x0e151e653fbf428e0b3ad1222691b8bd91298c7fec08c748c5fc1f546541f7e4",
      "v": 27,
      "creates": null,
      "raw": "0xf86c13850dc20e7afc8252089432be343b94f860124dc4fee278fdcbd38c102d8888455f28eab9405800801ba06cf6c338210012cec786c10152fc9a37b697fb8e29eb32f0aa87abc799d6ad1aa00e151e653fbf428e0b3ad1222691b8bd91298c7fec08c748c5fc1f546541f7e4",
      "networkId": 0,
      "chainId": 0
    }
  ]
}