{
  "hash": "0xdadc1fa9d89cd7749712ceb90a400c6face3f52f7e7fb807cee5fa3ee2caddf9",
  "parentHash": "0x141ba455f98b1ed398d27a854d2b21a6df8864920e2eee6531224335b9903e24",
  "number": 111856,
  "timestamp": 1439997379,
  "nonce": "0x50083682053c1cab",
  "difficulty": 4424256562234,
  "gasLimit": {
    "_hex": "0x2fefd8"
  },
  "gasUsed": {
    "_hex": "0x25b1c"
  },
  "miner": "0xe6A7a1d47ff21B6321162AEA7C6CB457D5476Bca",
  "extraData": "0x476574682f76312e302e312d38326566323666362f6c696e75782f676f312e34",
  "transactions": [
    {
      "hash": "0xa55503f27a79f50328325b77bbe97ba697663234ea8ffe96c17a97ce6ff41352",
      "blockHash": "0xdadc1fa9d89cd7749712ceb90a400c6face3f52f7e7fb807cee5fa3ee2caddf9",
      "blockNumber": 111856,
      "transactionIndex": 0,
      "confirmations": null,
      "from": "0x16893e10b99A59afd2C60331E0B49241d4d4d7cC",
      "gasPrice": {
        "_hex": "0xcb55c80d1"
      },
      "gasLimit": {
        "_hex": "0x493e0"
      },
      "to": "0x6e38A457C722C6011B2dfa06d49240e797844d66",
      "value": {
        "_hex": "0x0"
      },
      "nonce": 9,
      "data": "0xf3fe12c90000000000000000000000000000000000000000000000000000000000000020000000000000000000000000000000000000000000000000000000000000005941204c657474657220546f2050617420416e64204172613a206536326238623238313863656639633866343965316366336437306361393237313634336233383436663563633637333038663038326439636263613766613000000000000000",
      "r": "0x7b21ae0f7913f3a2e66a380d652f73251484db9f43b7ceb86ecc21f2696731f4",
      "s": "0x7cadce3b39816f27241b81fad8747257581b597c50dbf7776e7710508d53b856",
      "v": 27,
      "creates": null,
      "raw": "0xf9010a09850cb55c80d1830493e0946e38a457c722c6011b2dfa06d49240e797844d6680b8a4f3fe12c90000000000000000000000000000000000000000000000000000000000000020000000000000000000000000000000000000000000000000000000000000005941204c657474657220546f2050617420416e64204172613a2065363262386232383138636566396338663439653163663364373063613932373136343362333834366635636336373330386630383264396362636137666130000000000000001ba07b21ae0f7913f3a2e66a380d652f73251484db9f43b7ceb86ecc21f2696731f4a07cadce3b39816f27241b81fad8747257581b597c50dbf7776e7710508d53b856",
      "networkId": 0,
      "chainId": 0
    }
  ]
}