{
  "hash": "0xdffff74bce3d7e20a5f30322e6d49d1298db10c23b667ffee2f8ff29ac6186d4",
  "parentHash": "0xece64423944c7da7f7c9bf05a2fa9c766b181bd7150b01893f2b49a4c8ca25f5",
  "number": 71027,
  "timestamp": 1439329304,
  "nonce": "0x6a30635971b4630b",
  "difficulty": 2155124083923,
  "gasLimit": {
    "_hex": "0x2fefd8"
  },
  "gasUsed": {
    "_hex": "0x12800"
  },
  "miner": "0x39A1BB80a741bF5EC39FB9BE59408Fa0F418fFBf",
  "extraData": "0x476574682f76312e302e312f77696e646f77732f676f312e342e32",
  "transactions": [
    {
      "hash": "0x4b55a80ca7154ce56348d9293bda0e7c55cf51dc3c9b413529b513c926f6e9ac",
      "blockHash": "0xdffff74bce3d7e20a5f30322e6d49d1298db10c23b667ffee2f8ff29ac6186d4",
      "blockNumber": 71027,
      "transactionIndex": 0,
      "confirmations": null,
      "from": "0x17580B766f7453525ca4C6A88b01b50570EA088C",
      "gasPrice": {
        "_hex": "0xd1b363395"
      },
      "gasLimit": {
        "_hex": "0x61a80"
      },
      "to": "0x5Fe5B7546D1628f7348B023A0393de1FC825A4fD",
      "value": {
        "_hex": "0x8ac7230489e80000"
      },
      "nonce": 82,
      "data": "0xb595b8b50000000000000000000000000000000000000000000000000000000000000001",
      "r": "0x0172606d884a556c57fb4cd47d1fc916165ee5e1bbad716db02be415ee4725cc",
      "s": "0x7edcd17b013bf5cfcc820a6ffadd77c45c1ab0d9f0cf1f46127cd4291c2b33b8",
      "v": 28,
      "creates": null,
      "raw": "0xf89152850d1b36339583061a80945fe5b7546d1628f7348b023a0393de1fc825a4fd888ac7230489e80000a4b595b8b500000000000000000000000000000000000000000000000000000000000000011ca00172606d884a556c57fb4cd47d1fc916165ee5e1bbad716db02be415ee4725cca07edcd17b013bf5cfcc820a6ffadd77c45c1ab0d9f0cf1f46127cd4291c2b33b8",
      "networkId": 0,
      "chainId": 0
    },
    {
      "hash": "0xe171fe5f066423d8c062d6abacf911a09ad43347e624361213cd7a4e2ae19a93",
      "blockHash": "0xdffff74bce3d7e20a5f30322e6d49d1298db10c23b667ffee2f8ff29ac6186d4",
      "blockNumber": 71027,
      "transactionIndex": 1,
      "confirmations": null,
      "from": "0x17580B766f7453525ca4C6A88b01b50570EA088C",
      "gasPrice": {
        "_hex": "0xd1b363395"
      },
      "gasLimit": {
        "_hex": "0x61a80"
      },
      "to": "0x5Fe5B7546D1628f7348B023A0393de1FC825A4fD",
      "value": {
        "_hex": "0x8ac7230489e80000"
      },
      "nonce": 83,
      "data": "0xb595b8b50000000000000000000000000000000000000000000000000000000000000001",
      "r": "0x4e6d4446c89b23b8f5128ed5d703823fbacc3f597ec545b6b0a908a202268c20",
      "s": "0x4bee019352ee7710536efc8a607f7d952fbc0555c57196a9d9d58eeaa7048a44",
      "v": 27,
      "creates": null,
      "raw": "0xf89153850d1b36339583061a80945fe5b7546d1628f7348b023a0393de1fc825a4fd888ac7230489e80000a4b595b8b500000000000000000000000000000000000000000000000000000000000000011ba04e6d4446c89b23b8f5128ed5d703823fbacc3f597ec545b6b0a908a202268c20a04bee019352ee7710536efc8a607f7d952fbc0555c57196a9d9d58eeaa7048a44",
      "networkId": 0,
      "chainId": 0
    }
  ]
}