{
  "hash": "0x61c83dcf2761b88d31879ceb66941b9ce3c1b28a7bae4c808c6bedfb346ec6e5",
  "parentHash": "0x21189c9edd57a186175a9d8e2a1e3a7a975e47ef92a1512a459e84b002fcc014",
  "number": 65122,
  "timestamp": 1439231766,
  "nonce": "0x700633c0d03fb8af",
  "difficulty": 1926604745927,
  "gasLimit": {
    "_hex": "0x2fefd8"
  },
  "gasUsed": {
    "_hex": "0x17cd8"
  },
  "miner": "0xf8E0CA3Ed80bd541b94BEdCf259e8CF2141A9523",
  "extraData": "0x476574682f76312e302e312f77696e646f77732f676f312e342e32",
  "transactions": [
    {
      "hash": "0x6a9410251abf22224123ba670ead46edf9cb7413497810f6c58a50c381b78fd3",
      "blockHash": "0x61c83dcf2761b88d31879ceb66941b9ce3c1b28a7bae4c808c6bedfb346ec6e5",
      "blockNumber": 65122,
      "transactionIndex": 0,
      "confirmations": null,
      "from": "0x54b110D18f2B85b63f06837bb6B79432A11118D8",
      "gasPrice": {
        "_hex": "0xba43b7400"
      },
      "gasLimit": {
        "_hex": "0x15f90"
      },
      "to": "0x793AE8C1b1a160BFc07BFB0d04F85eab1A71F4f2",
      "value": {
        "_hex": "0x0"
      },
      "nonce": 0,
      "data": "0x3ba15036",
      "r": "0x51b6b8c9b7c4d3d8dffffe2c58471bfdeb761cc3281a6829c187d61c429aeab1",
      "s": "0x0eb6814a7b095777bb10f224cf8006420040ad642f99b2674f12852641439d89",
      "v": 28,
      "creates": null,
      "raw": "0xf86980850ba43b740083015f9094793ae8c1b1a160bfc07bfb0d04f85eab1a71f4f280843ba150361ca051b6b8c9b7c4d3d8dffffe2c58471bfdeb761cc3281a6829c187d61c429aeab1a00eb6814a7b095777bb10f224cf8006420040ad642f99b2674f12852641439d89",
      "networkId": 0,
      "chainId": 0
    },
    {
      "hash": "0xf20f30a6560ea94918e6d13e30af6d4ebc4e7a5116ea39e658e8015ab2a28940",
      "blockHash": "0x61c83dcf2761b88d31879ceb66941b9ce3c1b28a7bae4c808c6bedfb346ec6e5",
      "blockNumber": 65122,
      "transactionIndex": 1,
      "confirmations": null,
      "from": "0x9A147fb9a98243cBDAD78EF6F7976D190F5F88e7",
      "gasPrice": {
        "_hex": "0xba43b7400"
      },
      "gasLimit": {
        "_hex": "0x15f90"
      },
      "to": "0x793AE8C1b1a160BFc07BFB0d04F85eab1A71F4f2",
      "value": {
        "_hex": "0x0"
      },
      "nonce": 0,
      "data": "0x3ba15036",
      "r": "0x83c27fb4a7a33783f88d2963d60e9c3795060e714b90d410f5c80b8dea35093f",
      "s": "0x08c8e2edb544a64e4fcf37dc94702d3af7d178790c3b0c191fa457086cb60976",
      "v": 27,
      "creates": null,
      "raw": "0xf86980850ba43b740083015f9094793ae8c1b1a160bfc07bfb0d04f85eab1a71f4f280843ba150361ba083c27fb4a7a33783f88d2963d60e9c3795060e714b90d410f5c80b8dea35093fa008c8e2edb544a64e4fcf37dc94702d3af7d178790c3b0c191fa457086cb60976",
      "networkId": 0,
      "chainId": 0
    }
  ]
}