{
  "hash": "0x833ee7ad3dfe5b737eaba5a8e0cd51496bff141558d7a343bb9d936f91970aef",
  "parentHash": "0xd1c20d9b6990e241dc8e371a5b96097e10d0e17f6c91503e82ccff358e19873b",
  "number": 71602,
  "timestamp": 1439338955,
  "nonce": "0x6849a6d84c94b0f6",
  "difficulty": 2170817827151,
  "gasLimit": {
    "_hex": "0x2fefd8"
  },
  "gasUsed": {
    "_hex": "0x93b2"
  },
  "miner": "0x157c6f2431eB1a95797EE86F7d17b3c0FD47A247",
  "extraData": "0x476574682f76312e302e312f77696e646f77732f676f312e342e32",
  "transactions": [
    {
      "hash": "0xdde0313fa08648a818a4e3af64b40fd78d54984693419ae377d36626ec834966",
      "blockHash": "0x833ee7ad3dfe5b737eaba5a8e0cd51496bff141558d7a343bb9d936f91970aef",
      "blockNumber": 71602,
      "transactionIndex": 0,
      "confirmations": null,
      "from": "0x17580B766f7453525ca4C6A88b01b50570EA088C",
      "gasPrice": {
        "_hex": "0xd14df8dd4"
      },
      "gasLimit": {
        "_hex": "0x61a80"
      },
      "to": "0x5Fe5B7546D1628f7348B023A0393de1FC825A4fD",
      "value": {
        "_hex": "0x8ac7230489e80000"
      },
      "nonce": 231,
      "data": "0xb595b8b50000000000000000000000000000000000000000000000000000000000000000",
      "r": "0x3050a9f7505d88e3dd9cb7a7a1fc91ae5b916d470180bf315df4661153670be2",
      "s": "0x49dc8031a4cada58351d9dd1e431b31655ba634a5010f11e547018ee190b0c3b",
      "v": 27,
      "creates": null,
      "raw": "0xf89281e7850d14df8dd483061a80945fe5b7546d1628f7348b023a0393de1fc825a4fd888ac7230489e80000a4b595b8b500000000000000000000000000000000000000000000000000000000000000001ba03050a9f7505d88e3dd9cb7a7a1fc91ae5b916d470180bf315df4661153670be2a049dc8031a4cada58351d9dd1e431b31655ba634a5010f11e547018ee190b0c3b",
      "networkId": 0,
      "chainId": 0
    }
  ]
}