{
  "hash": "0x4676e734d41655b85f1f0924cd9df15cf61a237d02be79115b6f39236c0e4088",
  "parentHash": "0x7b3a90c140ec24b06a05a5137162db1b8467fd835e7d88740404f876a8699046",
  "number": 99310,
  "timestamp": 1439787865,
  "nonce": "0xfb5198bbd6624cb4",
  "difficulty": 3793634027233,
  "gasLimit": {
    "_hex": "0x2fefd8"
  },
  "gasUsed": {
    "_hex": "0x5208"
  },
  "miner": "0xe6A7a1d47ff21B6321162AEA7C6CB457D5476Bca",
  "extraData": "0x476574682f76312e302e312d38326566323666362f6c696e75782f676f312e34",
  "transactions": [
    {
      "hash": "0x09463d63ccd091872c158bc17c6c76e28d38f98e97a898d0797a3173c56240ef",
      "blockHash": "0x4676e734d41655b85f1f0924cd9df15cf61a237d02be79115b6f39236c0e4088",
      "blockNumber": 99310,
      "transactionIndex": 0,
      "confirmations": null,
      "from": "0xFBb1b73C4f0BDa4f67dcA266ce6Ef42f520fBB98",
      "gasPrice": {
        "_hex": "0xd51c8a1c3"
      },
      "gasLimit": {
        "_hex": "0x15f90"
      },
      "to": "0x1a88c57A263f87c39AB07f02045f7bBe559d93bc",
      "value": {
        "_hex": "0x1111d67bb1bb0000"
      },
      "nonce": 81,
      "data": "0x",
      "r": "0xf0903fdd38da42e7f1f53bb489df04cdff171053f126979c42b1f16516fed981",
      "s": "0x2eb87d92f75bdc2f38a23ba40a656668e3a63b81774355f1dd36c13bf39f4782",
      "v": 28,
      "creates": null,
      "raw": "0xf86d51850d51c8a1c383015f90941a88c57a263f87c39ab07f02045f7bbe559d93bc881111d67bb1bb0000801ca0f0903fdd38da42e7f1f53bb489df04cdff171053f126979c42b1f16516fed981a02eb87d92f75bdc2f38a23ba40a656668e3a63b81774355f1dd36c13bf39f4782",
      "networkId": 0,
      "chainId": 0
    }
  ]
}