{
  "hash": "0xe6340f9ce78c3a10695259d06552e68030db0886f9339760cd75f62f5b69c0c6",
  "parentHash": "0x7165cafddbe1472eae015be084c068bf5f18223c53d78fbb6930ac67de573ab1",
  "number": 81771,
  "timestamp": 1439507715,
  "nonce": "0x205d2828f33bd657",
  "difficulty": 2412890335372,
  "gasLimit": {
    "_hex": "0x2fefd8"
  },
  "gasUsed": {
    "_hex": "0x5208"
  },
  "miner": "0xbb7B8287f3F0a933474a79eAe42CBCa977791171",
  "extraData": "0x476574682f4c5649562f76312e302e312f6c696e75782f676f312e342e32",
  "transactions": [
    {
      "hash": "0x5d98184414a4e0a130d71ffc355e56280bd28e6e328059792258b23c8cef306b",
      "blockHash": "0xe6340f9ce78c3a10695259d06552e68030db0886f9339760cd75f62f5b69c0c6",
      "blockNumber": 81771,
      "transactionIndex": 0,
      "confirmations": null,
      "from": "0x077BC4363eBf116c408C421b293cB018d22779fc",
      "gasPrice": {
        "_hex": "0xba43b7400"
      },
      "gasLimit": {
        "_hex": "0x5208"
      },
      "to": "0xC47Aaa860008be6f65B58c6C6E02a84e666EfE31",
      "value": {
        "_hex": "0x1b1ae11beac23d1dc0"
      },
      "nonce": 2,
      "data": "0x",
      "r": "0xa67f95d2aef80303abe4affd124ca0b897246c089d63be063a1c0cceccff0942",
      "s": "0x08c31d12176ec4dbdc9a930504cc603a4850e301f9a9fb03aaf8a8d130307a38",
      "v": 27,
      "creates": null,
      "raw": "0xf86d02850ba43b740082520894c47aaa860008be6f65b58c6c6e02a84e666efe31891b1ae11beac23d1dc0801ba0a67f95d2aef80303abe4affd124ca0b897246c089d63be063a1c0cceccff0942a008c31d12176ec4dbdc9a930504cc603a4850e301f9a9fb03aaf8a8d130307a38",
      "networkId": 0,
      "chainId": 0
    }
  ]
}