{
  "hash": "0xaab7694862a2f5945ed3af23986fd6ab3042b36bef307b98a024a0174594d5e1",
  "parentHash": "0x588d9b689a2273d4b4862eda3a1c2540e5010be6b7ec8868b1e074a0246769f4",
  "number": 100193,
  "timestamp": 1439802431,
  "nonce": "0xa253b739afc0b140",
  "difficulty": 3828589614880,
  "gasLimit": {
    "_hex": "0x2fefd5"
  },
  "gasUsed": {
    "_hex": "0x5208"
  },
  "miner": "0x9746c7e1ef2bd21FF3997fa467593a89cb852BD0",
  "extraData": "0x476574682f76312e302e312f77696e646f77732f676f312e342e32",
  "transactions": [
    {
      "hash": "0x178b1e6d97ecb919e9e31f4e503051ba68ed6cc9ef6c40f4ab39543fc7ef929d",
      "blockHash": "0xaab7694862a2f5945ed3af23986fd6ab3042b36bef307b98a024a0174594d5e1",
      "blockNumber": 100193,
      "transactionIndex": 0,
      "confirmations": null,
      "from": "0xDBEF8f3B35c7470d28c096aAD2C080f95198Bd09",
      "gasPrice": {
        "_hex": "0xd7d40ace3"
      },
      "gasLimit": {
        "_hex": "0x15f90"
      },
      "to": "0xb1A2a1e9b8AC33fdcB2118b73A875b096AEd24aD",
      "value": {
        "_hex": "0x8aa39c121a270000"
      },
      "nonce": 0,
      "data": "0x",
      "r": "0xe8f86bbd34540ba3311ea42545a9ac28a40b5debac42b869bcf9249ebd20528e",
      "s": "0x13af01a8794c0c5f9bd60d5736c95843596fb678d28989a29476f8ed2e69230b",
      "v": 27,
      "creates": null,
      "raw": "0xf86d80850d7d40ace383015f9094b1a2a1e9b8ac33fdcb2118b73a875b096aed24ad888aa39c121a270000801ba0e8f86bbd34540ba3311ea42545a9ac28a40b5debac42b869bcf9249ebd20528ea013af01a8794c0c5f9bd60d5736c95843596fb678d28989a29476f8ed2e69230b",
      "networkId": 0,
      "chainId": 0
    }
  ]
}