{
  "hash": "0xbca8b4a776cff1a4d3290abd98e84ca0869b57b3d3e1b50214a106b7be340ce3",
  "parentHash": "0x26e8eb9399c66ec209e83ae9f9f4f00c54a6b3e8d2f0eddb07f376d41bab8f4d",
  "number": 96392,
  "timestamp": 1439739666,
  "nonce": "0x0dc7e27b1a632e95",
  "difficulty": 3660279253652,
  "gasLimit": {
    "_hex": "0x2fefd8"
  },
  "gasUsed": {
    "_hex": "0x520c"
  },
  "miner": "0x157c6f2431eB1a95797EE86F7d17b3c0FD47A247",
  "extraData": "0x476574682f76312e302e312f77696e646f77732f676f312e342e32",
  "transactions": [
    {
      "hash": "0x0bfa8e7b14bb9f9fe3bb8773afb8a0f510a8217c38b787a78c5957e2b27a1489",
      "blockHash": "0xbca8b4a776cff1a4d3290abd98e84ca0869b57b3d3e1b50214a106b7be340ce3",
      "blockNumber": 96392,
      "transactionIndex": 0,
      "confirmations": null,
      "from": "0x9835c2d4f081a497739C2D75E4F00ecAfCB9ebd6",
      "gasPrice": {
        "_hex": "0xd4af6c0fd"
      },
      "gasLimit": {
        "_hex": "0x7530"
      },
      "to": "0x68E1B6FbAB2C4f9572Ffda08139D815A9192FA92",
      "value": {
        "_hex": "0x1a9e9908ef4c10000"
      },
      "nonce": 0,
      "data": "0x00",
      "r": "0xc83cc9677f82390686b87a86166ea2ace7fe7e5599d3f68b1e7669440a971e04",
      "s": "0xa69913568e26f55ceb65bfae578b9bf3fe0fd6b78408c2de1fb5b7894af763e1",
      "v": 27,
      "creates": null,
      "raw": "0xf86d80850d4af6c0fd8275309468e1b6fbab2c4f9572ffda08139d815a9192fa928901a9e9908ef4c10000001ba0c83cc9677f82390686b87a86166ea2ace7fe7e5599d3f68b1e7669440a971e04a0a69913568e26f55ceb65bfae578b9bf3fe0fd6b78408c2de1fb5b7894af763e1",
      "networkId": 0,
      "chainId": 0
    }
  ]
}