{
  "hash": "0x9587a2d85a5dd93a3815983e437e9e40edc9e6c6fffc545630e3fe371d5684aa",
  "parentHash": "0xa5c091ae3e397e6818a5c56b842a3476739578df22ae9857833f4c3fb65ff98e",
  "number": 59967,
  "timestamp": 1439146781,
  "nonce": "0x08ebe655cdcf1ac5",
  "difficulty": 1728902910085,
  "gasLimit": {
    "_hex": "0x2fefd8"
  },
  "gasUsed": {
    "_hex": "0x5208"
  },
  "miner": "0xEF247E639d49461D25F57e9362CadE3120910Ce0",
  "extraData": "0x476574682f76312e302e312f6c696e75782f676f312e342e32",
  "transactions": [
    {
      "hash": "0x13dc5db8a7c19d99d17795a59c4f9a8fb899ecff2910b2158343f6509345fd9b",
      "blockHash": "0x9587a2d85a5dd93a3815983e437e9e40edc9e6c6fffc545630e3fe371d5684aa",
      "blockNumber": 59967,
      "transactionIndex": 0,
      "confirmations": null,
      "from": "0xc955d372Fe1c428D17CD86E05d26F0206F3677b1",
      "gasPrice": {
        "_hex": "0xcf0ad883b"
      },
      "gasLimit": {
        "_hex": "0x5208"
      },
      "to": "0x32Be343B94f860124dC4fEe278FDCBD38C102D88",
      "value": {
        "_hex": "0xddc8704524ffc00"
      },
      "nonce": 0,
      "data": "0x",
      "r": "0x83666f0920c4578c7528f2cca08b148ca045bb422b23513ba51f8c1c1e2c4361",
      "s": "0x45f78a7e93fb855ea9451b06429b1695f6e3a512f1ef19cd1523091de604bbb7",
      "v": 27,
      "creates": null,
      "raw": "0xf86c80850cf0ad883b8252089432be343b94f860124dc4fee278fdcbd38c102d88880ddc8704524ffc00801ba083666f0920c4578c7528f2cca08b148ca045bb422b23513ba51f8c1c1e2c4361a045f78a7e93fb855ea9451b06429b1695f6e3a512f1ef19cd1523091de604bbb7",
      "networkId": 0,
      "chainId": 0
    }
  ]
}