{
  "hash": "0x8a760318bad7d42b80a7657ba723af159384ed1070246927368284336945dc83",
  "parentHash": "0xa174579cacbd404c1376d1fc9a19fe7e43f29e74733276d84109a66ab5e1515b",
  "number": 87782,
  "timestamp": 1439597414,
  "nonce": "0x76c5dc7e75c836b6",
  "difficulty": 3174058765435,
  "gasLimit": {
    "_hex": "0x2fefd8"
  },
  "gasUsed": {
    "_hex": "0x5208"
  },
  "miner": "0xe6A7a1d47ff21B6321162AEA7C6CB457D5476Bca",
  "extraData": "0x476574682f76312e302e312d38326566323666362f6c696e75782f676f312e34",
  "transactions": [
    {
      "hash": "0xd77a6d08d53d9d1d79da33420be944fe25163734bf8bb8aaa2d2e273144d5ecd",
      "blockHash": "0x8a760318bad7d42b80a7657ba723af159384ed1070246927368284336945dc83",
      "blockNumber": 87782,
      "transactionIndex": 0,
      "confirmations": null,
      "from": "0xC47Aaa860008be6f65B58c6C6E02a84e666EfE31",
      "gasPrice": {
        "_hex": "0xda52da9d1"
      },
      "gasLimit": {
        "_hex": "0x15f90"
      },
      "to": "0x8b558bcC006CCa1b6D3040AF38919733DC735389",
      "value": {
        "_hex": "0xa97ec9995cd4e4a0"
      },
      "nonce": 24,
      "data": "0x",
      "r": "0xbc053c818b5866b0135bf78c282a301657a596278c70b59c603bd1292e7d7865",
      "s": "0x5461fa2908273e55ddf0979458397322d9f05738be1a42c8b49c348ac80ef1a4",
      "v": 28,
      "creates": null,
      "raw": "0xf86d18850da52da9d183015f90948b558bcc006cca1b6d3040af38919733dc73538988a97ec9995cd4e4a0801ca0bc053c818b5866b0135bf78c282a301657a596278c70b59c603bd1292e7d7865a05461fa2908273e55ddf0979458397322d9f05738be1a42c8b49c348ac80ef1a4",
      "networkId": 0,
      "chainId": 0
    }
  ]
}