{
  "hash": "0xb94108969c6b634f770fa6154e28a8622e2710425f5e924927c7e982818ace1d",
  "parentHash": "0x22f56125d7148148b4ddbbb3f4cd56aa67ee67fe4909c03cc4dd8a31e2dd757c",
  "number": 119402,
  "timestamp": 1440142178,
  "nonce": "0xdbd544953f3be9f6",
  "difficulty": 4415963925203,
  "gasLimit": {
    "_hex": "0x2fefd8"
  },
  "gasUsed": {
    "_hex": "0x5208"
  },
  "miner": "0x52bc44d5378309EE2abF1539BF71dE1b7d7bE3b5",
  "extraData": "0xd783010002844765746887676f312e342e32856c696e7578",
  "transactions": [
    {
      "hash": "0x15b6dff2ff1680c59433f5ab2ffb3b52276c30fbd0d3044b26465f5c26fcd1c4",
      "blockHash": "0xb94108969c6b634f770fa6154e28a8622e2710425f5e924927c7e982818ace1d",
      "blockNumber": 119402,
      "transactionIndex": 0,
      "confirmations": null,
      "from": "0xe6A7a1d47ff21B6321162AEA7C6CB457D5476Bca",
      "gasPrice": {
        "_hex": "0xba43b7400"
      },
      "gasLimit": {
        "_hex": "0x55f0"
      },
      "to": "0xA10DcDc99cF571e66c6Af1F1175a15686C4C6800",
      "value": {
        "_hex": "0x1961333543be0958"
      },
      "nonce": 6360,
      "data": "0x",
      "r": "0xa68b3e926c2efb422ebd0fe6322cecdd960bf4b414266174ee236ff839204ff0",
      "s": "0x3fc0819f40a38a767a981a48d02a4c378d989246a8f76558c4d3158edaf071dc",
      "v": 28,
      "creates": null,
      "raw": "0xf86e8218d8850ba43b74008255f094a10dcdc99cf571e66c6af1f1175a15686c4c6800881961333543be0958801ca0a68b3e926c2efb422ebd0fe6322cecdd960bf4b414266174ee236ff839204ff0a03fc0819f40a38a767a981a48d02a4c378d989246a8f76558c4d3158edaf071dc",
      "networkId": 0,
      "chainId": 0
    }
  ]
}