{
  "hash": "0x2b7dce2673006941236d629ab8e50903361771195ef7a19500e6bdee08438eff",
  "parentHash": "0x304eb8798cd93f2028a4f8505facf9fbb907d3eaf176ffd2135bd19ae24a675e",
  "number": 79504,
  "timestamp": 1439470770,
  "nonce": "0xbd3eff85a0d0370c",
  "difficulty": 2338143648493,
  "gasLimit": {
    "_hex": "0x2fefd8"
  },
  "gasUsed": {
    "_hex": "0x5208"
  },
  "miner": "0xf8E0CA3Ed80bd541b94BEdCf259e8CF2141A9523",
  "extraData": "0x476574682f76312e302e312f77696e646f77732f676f312e342e32",
  "transactions": [
    {
      "hash": "0xeb6c28fdfd11dc057aad845e6d47ca26b9a8fc12c1153c89207b2935a83fc31d",
      "blockHash": "0x2b7dce2673006941236d629ab8e50903361771195ef7a19500e6bdee08438eff",
      "blockNumber": 79504,
      "transactionIndex": 0,
      "confirmations": null,
      "from": "0x8156360BBd370961ceCa6B6691D75006Ad204Cf2",
      "gasPrice": {
        "_hex": "0xcb00a7779"
      },
      "gasLimit": {
        "_hex": "0x15f90"
      },
      "to": "0x123843545FB525C8E134c9A5F15ADA6865cc3848",
      "value": {
        "_hex": "0x1"
      },
      "nonce": 0,
      "data": "0x",
      "r": "0x19dfb34da5e95a348bb1334aea7e9eda627b5f7442c4a53e826eb056462c07e8",
      "s": "0x30b3d48f9cb3eb84c5b53f636aebd98d70c5d8e98e3e0679dc9d8f0a0700c9a0",
      "v": 28,
      "creates": null,
      "raw": "0xf86580850cb00a777983015f9094123843545fb525c8e134c9a5f15ada6865cc384801801ca019dfb34da5e95a348bb1334aea7e9eda627b5f7442c4a53e826eb056462c07e8a030b3d48f9cb3eb84c5b53f636aebd98d70c5d8e98e3e0679dc9d8f0a0700c9a0",
      "networkId": 0,
      "chainId": 0
    }
  ]
}