{
  "hash": "0x35fc10dfddebb099dc29cd981c7aee755c51b951caa6231a29505bf169893083",
  "parentHash": "0x0f84d610c2e82e481c9f9bc3c7203628b16aec0c514c6f890f6057011dcda4c4",
  "number": 85451,
  "timestamp": 1439563812,
  "nonce": "0x13adf831015658bc",
  "difficulty": 2751710163075,
  "gasLimit": {
    "_hex": "0x2fefd8"
  },
  "gasUsed": {
    "_hex": "0x5208"
  },
  "miner": "0xbb7B8287f3F0a933474a79eAe42CBCa977791171",
  "extraData": "0x476574682f4c5649562f76312e302e312f6c696e75782f676f312e342e32",
  "transactions": [
    {
      "hash": "0xb5874f6c0ea50d7c69b271574b2a013f00c9951e5310b54e22fe64866ba98f02",
      "blockHash": "0x35fc10dfddebb099dc29cd981c7aee755c51b951caa6231a29505bf169893083",
      "blockNumber": 85451,
      "transactionIndex": 0,
      "confirmations": null,
      "from": "0x141d08EDaDA2C1bA62A2940184Ba03d62d3fFF22",
      "gasPrice": {
        "_hex": "0xba43b7400"
      },
      "gasLimit": {
        "_hex": "0x5208"
      },
      "to": "0xC47Aaa860008be6f65B58c6C6E02a84e666EfE31",
      "value": {
        "_hex": "0x93054565563fb8f0"
      },
      "nonce": 3,
      "data": "0x",
      "r": "0x653549769af375a04c46a4d5c578d182fa9d88e743dec613f8b4bf4317847e45",
      "s": "0x32ff510f4ce94f91c067f6150ece50f606b26de28bfeb7296f7e054b81992a4f",
      "v": 27,
      "creates": null,
      "raw": "0xf86c03850ba43b740082520894c47aaa860008be6f65b58c6c6e02a84e666efe318893054565563fb8f0801ba0653549769af375a04c46a4d5c578d182fa9d88e743dec613f8b4bf4317847e45a032ff510f4ce94f91c067f6150ece50f606b26de28bfeb7296f7e054b81992a4f",
      "networkId": 0,
      "chainId": 0
    }
  ]
}