{
  "hash": "0xfef15b6a0b8316cdd99e5a0d0f24368a8be94ea5a43d436bbdaa8bdb69c7ffc0",
  "parentHash": "0x17e416d3b3eecb6a7793b1ca80273f17c995c7a63e476d55858fc83962085617",
  "number": 93009,
  "timestamp": 1439680806,
  "nonce": "0x0ac2496f32ddb968",
  "difficulty": 3645699292287,
  "gasLimit": {
    "_hex": "0x2fefd8"
  },
  "gasUsed": {
    "_hex": "0x5208"
  },
  "miner": "0xeB1325C8D9d3ea8D74aC11F4B00F1B2367686319",
  "extraData": "0x476574682f76312e302e312f77696e646f77732f676f312e342e32",
  "transactions": [
    {
      "hash": "0xf7321d8a2623a139a9ba39cd5f959d2c40560b20b1d02f2a41fffd624b9a1fa5",
      "blockHash": "0xfef15b6a0b8316cdd99e5a0d0f24368a8be94ea5a43d436bbdaa8bdb69c7ffc0",
      "blockNumber": 93009,
      "transactionIndex": 0,
      "confirmations": null,
      "from": "0x1D3ffA437e5bce40fCC134f4E0ac62841E4A9E81",
      "gasPrice": {
        "_hex": "0xba43b7400"
      },
      "gasLimit": {
        "_hex": "0x5208"
      },
      "to": "0xC47Aaa860008be6f65B58c6C6E02a84e666EfE31",
      "value": {
        "_hex": "0x810c81c1ce1e38f0"
      },
      "nonce": 8,
      "data": "0x",
      "r": "0x4101c6b487ee19546446b49a8ca5b0698bcec78807fbd9296d7c32f2337bef53",
      "s": "0x0e5590dfa09f2e0a641e0c75e105f7f77bae6f3926a879fbb3514dcab12d4129",
      "v": 28,
      "creates": null,
      "raw": "0xf86c08850ba43b740082520894c47aaa860008be6f65b58c6c6e02a84e666efe3188810c81c1ce1e38f0801ca04101c6b487ee19546446b49a8ca5b0698bcec78807fbd9296d7c32f2337bef53a00e5590dfa09f2e0a641e0c75e105f7f77bae6f3926a879fbb3514dcab12d4129",
      "networkId": 0,
      "chainId": 0
    }
  ]
}