{
  "hash": "0x53b69d019e34d81bc34273257e727ac3ee3929f2753804eec56f95061e08d07d",
  "parentHash": "0x484281597293681af6f15565f7dfd215a6e2c681b61c820eef404103c6bf9aa2",
  "number": 48618,
  "timestamp": 1438959897,
  "nonce": "0x63db647daddf9711",
  "difficulty": 1470004888139,
  "gasLimit": {
    "_hex": "0x1ab15"
  },
  "gasUsed": {
    "_hex": "0x546c"
  },
  "miner": "0xe6A7a1d47ff21B6321162AEA7C6CB457D5476Bca",
  "extraData": "0x657468706f6f6c2e6f7267",
  "transactions": [
    {
      "hash": "0x45ed7ffe4373282eabc1f9285643b7aee3b228c294010c5b4e38feebedd3e603",
      "blockHash": "0x53b69d019e34d81bc34273257e727ac3ee3929f2753804eec56f95061e08d07d",
      "blockNumber": 48618,
      "transactionIndex": 0,
      "confirmations": null,
      "from": "0xD2a5A024230a57Ccc666760b89b0e26CAFd189C7",
      "gasPrice": {
        "_hex": "0x107e307043d"
      },
      "gasLimit": {
        "_hex": "0x15f90"
      },
      "to": "0x2910543Af39abA0Cd09dBb2D50200b3E800A63D2",
      "value": {
        "_hex": "0x84231b97924ea600000"
      },
      "nonce": 1,
      "data": "0x454e33444537353247",
      "r": "0xc19dc32d8094408acbd9bc592692d78a60cdaf819fb5fc775201bb7fea6729ca",
      "s": "0x53bed8060d8a76e77964b081a587b64736c9285165904bf3bf9b3eb97773086d",
      "v": 27,
      "creates": null,
      "raw": "0xf87901860107e307043d83015f90942910543af39aba0cd09dbb2d50200b3e800a63d28a084231b97924ea60000089454e334445373532471ba0c19dc32d8094408acbd9bc592692d78a60cdaf819fb5fc775201bb7fea6729caa053bed8060d8a76e77964b081a587b64736c9285165904bf3bf9b3eb97773086d",
      "networkId": 0,
      "chainId": 0
    }
  ]
}