{
  "hash": "0xbe15cabe8d0e356ea35c8740dfea433c53fc57b1d9b59eacffcb94a069f410f8",
  "parentHash": "0x901d41064908bad3d4cef5acd28f0eb32439c044a659605cf2b803b95152dfef",
  "number": 58680,
  "timestamp": 1439124905,
  "nonce": "0x0104d47242b23e26",
  "difficulty": 1709857449324,
  "gasLimit": {
    "_hex": "0x2fefd8"
  },
  "gasUsed": {
    "_hex": "0x5208"
  },
  "miner": "0xa50ec0D39fa913E62f1Bae7074E6F36caA71855b",
  "extraData": "0x",
  "transactions": [
    {
      "hash": "0x2cb35a985594b705ee960c57a9943c56ccb3d11d63357c6ec8d490980834cf85",
      "blockHash": "0xbe15cabe8d0e356ea35c8740dfea433c53fc57b1d9b59eacffcb94a069f410f8",
      "blockNumber": 58680,
      "transactionIndex": 0,
      "confirmations": null,
      "from": "0x0eDEd3DA479d0beF8eeC92A76644D3f4E3C177f7",
      "gasPrice": {
        "_hex": "0xd829211eb"
      },
      "gasLimit": {
        "_hex": "0x15f90"
      },
      "to": "0x3f0073d6bBE51612013aA09BC970e08E84D7BA23",
      "value": {
        "_hex": "0xde0b6b3a7640000"
      },
      "nonce": 4,
      "data": "0x",
      "r": "0x136a853076d7fd2c95d3f75be2b1525a01fdc7e5675ed368c67774c2557c086a",
      "s": "0x5631b6d2a6643d9e3b46c3b061e274e41fa28b8940c46f448b5d8c82d9cc8168",
      "v": 28,
      "creates": null,
      "raw": "0xf86d04850d829211eb83015f90943f0073d6bbe51612013aa09bc970e08e84d7ba23880de0b6b3a7640000801ca0136a853076d7fd2c95d3f75be2b1525a01fdc7e5675ed368c67774c2557c086aa05631b6d2a6643d9e3b46c3b061e274e41fa28b8940c46f448b5d8c82d9cc8168",
      "networkId": 0,
      "chainId": 0
    }
  ]
}