{
  "hash": "0xf325eab2c419a9cd20f4d4d5f4f6745099cb19a4599bd16bf5f1fe1a6fda0916",
  "parentHash": "0x7d7e97ee4e98184384b1a292d9e61ba6273c9bcba47a152e4faf82e1ebd79c89",
  "number": 82473,
  "timestamp": 1439519886,
  "nonce": "0x012ea1466faeaffa",
  "difficulty": 2379926910110,
  "gasLimit": {
    "_hex": "0x2fefd8"
  },
  "gasUsed": {
    "_hex": "0xf618"
  },
  "miner": "0x007f7f58D3eb5b7510A301eCC749FC1fCDDBE14D",
  "extraData": "0x476574682f76312e302e312f77696e646f77732f676f312e342e32",
  "transactions": [
    {
      "hash": "0xf60268d7ee119d07e2dc51e043d12fdd84ef53f15e018e2502d92c46c81ed7e1",
      "blockHash": "0xf325eab2c419a9cd20f4d4d5f4f6745099cb19a4599bd16bf5f1fe1a6fda0916",
      "blockNumber": 82473,
      "transactionIndex": 0,
      "confirmations": null,
      "from": "0x120A270bbC009644e35F0bB6ab13f95b8199c4ad",
      "gasPrice": {
        "_hex": "0xd43f4dc3b"
      },
      "gasLimit": {
        "_hex": "0x3d090"
      },
      "to": "0xFbc92cE518a6CA6341B08b4468880Cc9Dd61a027",
      "value": {
        "_hex": "0x18d452352f33430400"
      },
      "nonce": 399,
      "data": "0x",
      "r": "0xa8b8f59b6a07af3f930eb687d3e036b655ef6e85bd7f1b714ab453ed2f733b37",
      "s": "0x69972af21bb90e105cfb639afe97a44c91925a02f88010931604ad7282464e83",
      "v": 28,
      "creates": null,
      "raw": "0xf87082018f850d43f4dc3b8303d09094fbc92ce518a6ca6341b08b4468880cc9dd61a0278918d452352f33430400801ca0a8b8f59b6a07af3f930eb687d3e036b655ef6e85bd7f1b714ab453ed2f733b37a069972af21bb90e105cfb639afe97a44c91925a02f88010931604ad7282464e83",
      "networkId": 0,
      "chainId": 0
    },
    {
      "hash": "0x9b501a3b685ab1dcdf3a976da0db0771a7aa4c02a44884fb0d6aff3eba93ae7f",
      "blockHash": "0xf325eab2c419a9cd20f4d4d5f4f6745099cb19a4599bd16bf5f1fe1a6fda0916",
      "blockNumber": 82473,
      "transactionIndex": 1,
      "confirmations": null,
      "from": "0x120A270bbC009644e35F0bB6ab13f95b8199c4ad",
      "gasPrice": {
        "_hex": "0xd43f4dc3b"
      },
      "gasLimit": {
        "_hex": "0x3d090"
      },
      "to": "0x3F2958BE30c06420de95eF82d1c3C8465C5750e1",
      "value": {
        "_hex": "0x5349e068fe908000"
      },
      "nonce": 400,
      "data": "0x",
      "r": "0xd44285a82537117e00d5af90163427590394677ba2c502bf2bba5e8f1a662e91",
      "s": "0x780f19194ef55d7bd422e5f1649d496434513a0b432222e264b6c0aae1f725d8",
      "v": 28,
      "creates": null,
      "raw": "0xf86f820190850d43f4dc3b8303d090943f2958be30c06420de95ef82d1c3c8465c5750e1885349e068fe908000801ca0d44285a82537117e00d5af90163427590394677ba2c502bf2bba5e8f1a662e91a0780f19194ef55d7bd422e5f1649d496434513a0b432222e264b6c0aae1f725d8",
      "networkId": 0,
      "chainId": 0
    },
    {
      "hash": "0xa15dbd607fe1827f93c0f28da128c7f48d13cc545bca486e6b9f84b62026dc49",
      "blockHash": "0xf325eab2c419a9cd20f4d4d5f4f6745099cb19a4599bd16bf5f1fe1a6fda0916",
      "blockNumber": 82473,
      "transactionIndex": 2,
      "confirmations": null,
      "from": "0x7D45E10A0d63eCCA0694a7cbfF030f4dD87DA0dC",
      "gasPrice": {
        "_hex": "0xce9e4e40c"
      },
      "gasLimit": {
        "_hex": "0x15f90"
      },
      "to": "0x6d921977dEFE5f4e0682CA512De1D07b1f4802E1",
      "value": {
        "_hex": "0x8ac7230489e80000"
      },
      "nonce": 9,
      "data": "0x",
      "r": "0x601b33b27428aad3ade2990116684dfa9ab14d56f598239aa007c3462035efa7",
      "s": "0x669995c16dd1d8469450fec9fb322224371e60a078365d8f527fe8c14553ded4",
      "v": 27,
      "creates": null,
      "raw": "0xf86d09850ce9e4e40c83015f90946d921977defe5f4e0682ca512de1d07b1f4802e1888ac7230489e80000801ba0601b33b27428aad3ade2990116684dfa9ab14d56f598239aa007c3462035efa7a0669995c16dd1d8469450fec9fb322224371e60a078365d8f527fe8c14553ded4",
      "networkId": 0,
      "chainId": 0
    }
  ]
}