{
  "hash": "0xa8838eb94a64c4e00443571ec19c301d0dca46c2ab7ca15db21fabdfa9fc60cf",
  "parentHash": "0xc812804f2691f3a1866e244af5a614909a720429d143db39dd0efbc91964c2dc",
  "number": 62438,
  "timestamp": 1439188694,
  "nonce": "0x07c4242e37e3cddd",
  "difficulty": 1765066877401,
  "gasLimit": {
    "_hex": "0x2fefd8"
  },
  "gasUsed": {
    "_hex": "0x5558"
  },
  "miner": "0x8c6e4B005B8b30B027f9fFB8FA9BE1dFF6E72ABB",
  "extraData": "0x476574682f76312e302e312f6c696e75782f676f312e342e32",
  "transactions": [
    {
      "hash": "0x246194f201573db931cb0b6643049fa8b894e639fe665ff968c20fc51d0680c1",
      "blockHash": "0xa8838eb94a64c4e00443571ec19c301d0dca46c2ab7ca15db21fabdfa9fc60cf",
      "blockNumber": 62438,
      "transactionIndex": 0,
      "confirmations": null,
      "from": "0x7284B4a57e3793fAAaAa90aee336dd7B4A531Df0",
      "gasPrice": {
        "_hex": "0xdbbaf58a3"
      },
      "gasLimit": {
        "_hex": "0x15f90"
      },
      "to": "0xc6d9d2cD449A754c494264e1809c50e34D64562b",
      "value": {
        "_hex": "0x0"
      },
      "nonce": 0,
      "data": "0x432ced04706f6b656d6f6f00000000000000000000000000000000000000000000000000",
      "r": "0xc9f348179b3102d8afddb5ae4861a56482b82e372fbb7317d51c70f0084f6998",
      "s": "0x6b3129a6b6c44754d6d78fc0619700306d6259cb51dc1ac857c9a00bd3d389a0",
      "v": 28,
      "creates": null,
      "raw": "0xf88980850dbbaf58a383015f9094c6d9d2cd449a754c494264e1809c50e34d64562b80a4432ced04706f6b656d6f6f000000000000000000000000000000000000000000000000001ca0c9f348179b3102d8afddb5ae4861a56482b82e372fbb7317d51c70f0084f6998a06b3129a6b6c44754d6d78fc0619700306d6259cb51dc1ac857c9a00bd3d389a0",
      "networkId": 0,
      "chainId": 0
    }
  ]
}