{
  "hash": "0x907d38f8ba4255dce1af29f25af16d4748758798bdfbd54371b1991332dca390",
  "parentHash": "0x4b4bdce4fccec01bf49d0b7f376b00733e0f6b53455bc8ffa29c25a7b0bc319a",
  "number": 104926,
  "timestamp": 1439878493,
  "nonce": "0x513f74af6fd72331",
  "difficulty": 4329566566973,
  "gasLimit": {
    "_hex": "0x2fefd8"
  },
  "gasUsed": {
    "_hex": "0x5208"
  },
  "miner": "0xe6A7a1d47ff21B6321162AEA7C6CB457D5476Bca",
  "extraData": "0x476574682f76312e302e312d38326566323666362f6c696e75782f676f312e34",
  "transactions": [
    {
      "hash": "0xca4ec530e5a99b96b1998ed5706404bab9393cc5b3f971ce97377e7e7baecdb8",
      "blockHash": "0x907d38f8ba4255dce1af29f25af16d4748758798bdfbd54371b1991332dca390",
      "blockNumber": 104926,
      "transactionIndex": 0,
      "confirmations": null,
      "from": "0x58850Ab9442C06379DfFBf52e3EAA035f5D5E092",
      "gasPrice": {
        "_hex": "0x1139796a9d1"
      },
      "gasLimit": {
        "_hex": "0x15f90"
      },
      "to": "0x576F13DdEd1f2AD6B9D55EE8A1B67815ee7C92d9",
      "value": {
        "_hex": "0x8f1d5c1cae3740000"
      },
      "nonce": 1,
      "data": "0x",
      "r": "0xc1b72ecb0e8dc9421038a23188bcfacefd04c4b0d82570ea193ea9a543dc9019",
      "s": "0x3b90132fb228b6a3ca1ed38a3f739b6f714b6931c90400e6d4de7059efb9b083",
      "v": 27,
      "creates": null,
      "raw": "0xf86f018601139796a9d183015f9094576f13dded1f2ad6b9d55ee8a1b67815ee7c92d98908f1d5c1cae3740000801ba0c1b72ecb0e8dc9421038a23188bcfacefd04c4b0d82570ea193ea9a543dc9019a03b90132fb228b6a3ca1ed38a3f739b6f714b6931c90400e6d4de7059efb9b083",
      "networkId": 0,
      "chainId": 0
    }
  ]
}