{
  "hash": "0x0918b7557931974f674514eeec649044e7d078a33fbd24dc927e916742eac4f6",
  "parentHash": "0x379a8efe24e30f3b22239e18201aca47a3e8200314b1ffa165ffaf6b54b05034",
  "number": 94722,
  "timestamp": 1439713077,
  "nonce": "0x2fd3350b22b573ff",
  "difficulty": 3483138765585,
  "gasLimit": {
    "_hex": "0x2fefd8"
  },
  "gasUsed": {
    "_hex": "0x5208"
  },
  "miner": "0x7E6930B63D03e88F5928C5cd6ee3FCee4D714F7F",
  "extraData": "0x",
  "transactions": [
    {
      "hash": "0x21652e294767045439b3f6433b6786e6ccc78ff300d7a143be74cf2e6ef077ed",
      "blockHash": "0x0918b7557931974f674514eeec649044e7d078a33fbd24dc927e916742eac4f6",
      "blockNumber": 94722,
      "transactionIndex": 0,
      "confirmations": null,
      "from": "0xb1abce2918E21ddb93AA452731a12672A3d9F75a",
      "gasPrice": {
        "_hex": "0xd096e63e2"
      },
      "gasLimit": {
        "_hex": "0x5208"
      },
      "to": "0x32Be343B94f860124dC4fEe278FDCBD38C102D88",
      "value": {
        "_hex": "0xd026886f2820c800"
      },
      "nonce": 23,
      "data": "0x",
      "r": "0x7a8c76ea0c94cafb3d05196e5ac4754ca2e7870384d193432784b6f835d4f9ba",
      "s": "0x610ca6cd24c2b58b7ae1b54c3b1afed178eebf37b25f0983e519084c1a99f20b",
      "v": 27,
      "creates": null,
      "raw": "0xf86c17850d096e63e28252089432be343b94f860124dc4fee278fdcbd38c102d8888d026886f2820c800801ba07a8c76ea0c94cafb3d05196e5ac4754ca2e7870384d193432784b6f835d4f9baa0610ca6cd24c2b58b7ae1b54c3b1afed178eebf37b25f0983e519084c1a99f20b",
      "networkId": 0,
      "chainId": 0
    }
  ]
}