{
  "hash": "0x141f6275b586dccf5fecc95bc4e4166cbcb0e8741381f0729e250cf711748b2e",
  "parentHash": "0xccf516a34f8099ecba196ece3d1e40b5f6bda3ca0b6a3b21d2bc0f94ec1fd2a1",
  "number": 112543,
  "timestamp": 1440009064,
  "nonce": "0x6561bcb9673eb25d",
  "difficulty": 4426054876902,
  "gasLimit": {
    "_hex": "0x2fefd8"
  },
  "gasUsed": {
    "_hex": "0x5208"
  },
  "miner": "0xe6A7a1d47ff21B6321162AEA7C6CB457D5476Bca",
  "extraData": "0x476574682f76312e302e312d38326566323666362f6c696e75782f676f312e34",
  "transactions": [
    {
      "hash": "0x8dae13e32fa292d636da39186338ac7d997365aefa13361c8dfdb67d6fdae14b",
      "blockHash": "0x141f6275b586dccf5fecc95bc4e4166cbcb0e8741381f0729e250cf711748b2e",
      "blockNumber": 112543,
      "transactionIndex": 0,
      "confirmations": null,
      "from": "0xa9f5E7bf6Cbf6fEc55B30850Eb492b47A376d050",
      "gasPrice": {
        "_hex": "0xd3cc5ab25"
      },
      "gasLimit": {
        "_hex": "0x5208"
      },
      "to": "0x32Be343B94f860124dC4fEe278FDCBD38C102D88",
      "value": {
        "_hex": "0x20f56d6d388668000"
      },
      "nonce": 29,
      "data": "0x",
      "r": "0xfaa1be990b6fd65c9e00516b80aa66bc1d2d455953b2851fe51fb286b4775b14",
      "s": "0x21d734dd894eb6b3061874db1b0639a18bf7b7cea786a408eef5ff43cf5176c2",
      "v": 28,
      "creates": null,
      "raw": "0xf86d1d850d3cc5ab258252089432be343b94f860124dc4fee278fdcbd38c102d8889020f56d6d388668000801ca0faa1be990b6fd65c9e00516b80aa66bc1d2d455953b2851fe51fb286b4775b14a021d734dd894eb6b3061874db1b0639a18bf7b7cea786a408eef5ff43cf5176c2",
      "networkId": 0,
      "chainId": 0
    }
  ]
}