{
  "hash": "0xfe4ee62eaa14934bab6dc67a37cdf8471354499004d3c503b249a0c9f1e111d5",
  "parentHash": "0x13d2c6ffe5c4d2ad5358b9b5f41a394386a7b810d015611df6e4a46751d451f3",
  "number": 85053,
  "timestamp": 1439557865,
  "nonce": "0xd2a2fc5aa170701a",
  "difficulty": 2719780803874,
  "gasLimit": {
    "_hex": "0x2fefd8"
  },
  "gasUsed": {
    "_hex": "0x5208"
  },
  "miner": "0xe6A7a1d47ff21B6321162AEA7C6CB457D5476Bca",
  "extraData": "0x476574682f76312e302e312d38326566323666362f6c696e75782f676f312e34",
  "transactions": [
    {
      "hash": "0xc8c6f7404d2760ac35ba03e4e00b7653886deeb5a5bd38aa83f92472d2958dea",
      "blockHash": "0xfe4ee62eaa14934bab6dc67a37cdf8471354499004d3c503b249a0c9f1e111d5",
      "blockNumber": 85053,
      "transactionIndex": 0,
      "confirmations": null,
      "from": "0x02f4c7248513B56356B261cB797fBC618c410569",
      "gasPrice": {
        "_hex": "0xba43b7400"
      },
      "gasLimit": {
        "_hex": "0x5208"
      },
      "to": "0xC47Aaa860008be6f65B58c6C6E02a84e666EfE31",
      "value": {
        "_hex": "0x32664baaf8753c80"
      },
      "nonce": 0,
      "data": "0x",
      "r": "0x04bc78fff1d2c98ced56319094291810f089bf80de5925bafeb56a13f7eb17c6",
      "s": "0x3c6ee5e20a53e6d2ec56283f0d9434170d6759334b0e8dfcf228cba244a6c772",
      "v": 27,
      "creates": null,
      "raw": "0xf86c80850ba43b740082520894c47aaa860008be6f65b58c6c6e02a84e666efe318832664baaf8753c80801ba004bc78fff1d2c98ced56319094291810f089bf80de5925bafeb56a13f7eb17c6a03c6ee5e20a53e6d2ec56283f0d9434170d6759334b0e8dfcf228cba244a6c772",
      "networkId": 0,
      "chainId": 0
    }
  ]
}