{
  "hash": "0xd32e0ba66d7b3e63824bfc386dab35bad30d692a7f0bac0e4356e1804386d178",
  "parentHash": "0x18d7121971ea7232b30649ee64371e4a13ac576bd7457029fbabec1633853330",
  "number": 70681,
  "timestamp": 1439323762,
  "nonce": "0x371961a9d9ebd2f8",
  "difficulty": 2142621699406,
  "gasLimit": {
    "_hex": "0x2fefd8"
  },
  "gasUsed": {
    "_hex": "0xa410"
  },
  "miner": "0x5214803C763281b785cDC039b80605fd088D42Ca",
  "extraData": "0x",
  "transactions": [
    {
      "hash": "0x55f5e46050adc0983624f11d06749c9565787363c905e230e9eadf8046e99a6e",
      "blockHash": "0xd32e0ba66d7b3e63824bfc386dab35bad30d692a7f0bac0e4356e1804386d178",
      "blockNumber": 70681,
      "transactionIndex": 0,
      "confirmations": null,
      "from": "0x2910543Af39abA0Cd09dBb2D50200b3E800A63D2",
      "gasPrice": {
        "_hex": "0xd0d67e2f4"
      },
      "gasLimit": {
        "_hex": "0x5208"
      },
      "to": "0x80459F7950368e582175a9AC45E2d9a1B76932EF",
      "value": {
        "_hex": "0x4b5a0e3ffda9178000"
      },
      "nonce": 250,
      "data": "0x",
      "r": "0x24e69124c18e21921ed6a9ba2ab9bb4e2f98ccba03730664191598cad67fb0e0",
      "s": "0x5bd35329d26f94a5adcfc111b20035e4284728d0362a2b6580e59664b2047205",
      "v": 27,
      "creates": null,
      "raw": "0xf86e81fa850d0d67e2f48252089480459f7950368e582175a9ac45e2d9a1b76932ef894b5a0e3ffda9178000801ba024e69124c18e21921ed6a9ba2ab9bb4e2f98ccba03730664191598cad67fb0e0a05bd35329d26f94a5adcfc111b20035e4284728d0362a2b6580e59664b2047205",
      "networkId": 0,
      "chainId": 0
    },
    {
      "hash": "0x3ea7124d461807091ff1ab56d43c19124bbfbb8d4ae65739fe09a8c7f7078d9a",
      "blockHash": "0xd32e0ba66d7b3e63824bfc386dab35bad30d692a7f0bac0e4356e1804386d178",
      "blockNumber": 70681,
      "transactionIndex": 1,
      "confirmations": null,
      "from": "0x2910543Af39abA0Cd09dBb2D50200b3E800A63D2",
      "gasPrice": {
        "_hex": "0xd0d67e2f4"
      },
      "gasLimit": {
        "_hex": "0x5208"
      },
      "to": "0x4717DdA36062a4D937DF7601Bd07354806A957EA",
      "value": {
        "_hex": "0xdcef33a6f838000"
      },
      "nonce": 251,
      "data": "0x",
      "r": "0x4bc2a03f6abd4addc2af1fbbbf645694072ada3d1129734f4f8e15aedce157a5",
      "s": "0x2c870dae4cac8054730bc6113414e8aa9c2d20f62639575f13464e8b2dfa7946",
      "v": 28,
      "creates": null,
      "raw": "0xf86d81fb850d0d67e2f4825208944717dda36062a4d937df7601bd07354806a957ea880dcef33a6f838000801ca04bc2a03f6abd4addc2af1fbbbf645694072ada3d1129734f4f8e15aedce157a5a02c870dae4cac8054730bc6113414e8aa9c2d20f62639575f13464e8b2dfa7946",
      "networkId": 0,
      "chainId": 0
    }
  ]
}