{
  "hash": "0x8606e3f4e961724a9dd7842141b475a9c6ac4426ea7b6c9bd72e582bd56987a2",
  "parentHash": "0x7fcb1cee1a71cff5d9ad5bd3d124ce1c3f00833cc28bf5eb42c57176ef598ca7",
  "number": 92734,
  "timestamp": 1439676294,
  "nonce": "0xfb4a3c8a2256ece9",
  "difficulty": 3608625934375,
  "gasLimit": {
    "_hex": "0x2fefd8"
  },
  "gasUsed": {
    "_hex": "0x5208"
  },
  "miner": "0x007f7f58D3eb5b7510A301eCC749FC1fCDDBE14D",
  "extraData": "0x476574682f76312e302e312f77696e646f77732f676f312e342e32",
  "transactions": [
    {
      "hash": "0x6aadf0470cf493457cedc016b9c628ccea37afb880e23614b05c19d4decb6d29",
      "blockHash": "0x8606e3f4e961724a9dd7842141b475a9c6ac4426ea7b6c9bd72e582bd56987a2",
      "blockNumber": 92734,
      "transactionIndex": 0,
      "confirmations": null,
      "from": "0x2AeDF47e935C75601e9D779453F1a5F8c616bd6E",
      "gasPrice": {
        "_hex": "0xdb2816147"
      },
      "gasLimit": {
        "_hex": "0x15f90"
      },
      "to": "0xeDb63085aAC5CF2eDbc0C9AD9c274076201da37E",
      "value": {
        "_hex": "0xde0b6b3a7640000"
      },
      "nonce": 0,
      "data": "0x",
      "r": "0xa46d6f7ce0810d33a7f19884926853f59e5434590fe4701e3f8869bc45f7cef9",
      "s": "0x4b49cc135c69393b27ce75aa87635f25ab99e712d2cd1a1cdb418c18d4186c31",
      "v": 28,
      "creates": null,
      "raw": "0xf86d80850db281614783015f9094edb63085aac5cf2edbc0c9ad9c274076201da37e880de0b6b3a7640000801ca0a46d6f7ce0810d33a7f19884926853f59e5434590fe4701e3f8869bc45f7cef9a04b49cc135c69393b27ce75aa87635f25ab99e712d2cd1a1cdb418c18d4186c31",
      "networkId": 0,
      "chainId": 0
    }
  ]
}