{
  "hash": "0x7727cec8043e550097d0c7218f987c7f8eaddba5aa24f61d5ed21fa93e8f45e7",
  "parentHash": "0x8028935bc8857d7032c51749de43b183e8d6acc03cb87526bca47e3958746959",
  "number": 98258,
  "timestamp": 1439769505,
  "nonce": "0xd20859cc362bace4",
  "difficulty": 3887879442574,
  "gasLimit": {
    "_hex": "0x2fefd8"
  },
  "gasUsed": {
    "_hex": "0x5208"
  },
  "miner": "0x5F8F73E26CdF436f19Cb24C82F90A15AFe55b592",
  "extraData": "0x476574682f76312e302e312f77696e646f77732f676f312e342e32",
  "transactions": [
    {
      "hash": "0x8440c05f0f660fb46f8d3bee5ae59ff7b97733778a9d5ea16f0afe0751cd240e",
      "blockHash": "0x7727cec8043e550097d0c7218f987c7f8eaddba5aa24f61d5ed21fa93e8f45e7",
      "blockNumber": 98258,
      "transactionIndex": 0,
      "confirmations": null,
      "from": "0xE5218078310e2faf46454929401f9B7f2603297E",
      "gasPrice": {
        "_hex": "0xde83bafd1"
      },
      "gasLimit": {
        "_hex": "0x5208"
      },
      "to": "0x32Be343B94f860124dC4fEe278FDCBD38C102D88",
      "value": {
        "_hex": "0x22af4904c99b28000"
      },
      "nonce": 0,
      "data": "0x",
      "r": "0x148819e46437fa806060dd4c3e603cb47543f592ea6b94f7acbc5d3e6c6f1d94",
      "s": "0x49b78d2333f0ab09978c8741695d3063ee17830052aaa2b638dd2f0d98bc61ef",
      "v": 28,
      "creates": null,
      "raw": "0xf86d80850de83bafd18252089432be343b94f860124dc4fee278fdcbd38c102d8889022af4904c99b28000801ca0148819e46437fa806060dd4c3e603cb47543f592ea6b94f7acbc5d3e6c6f1d94a049b78d2333f0ab09978c8741695d3063ee17830052aaa2b638dd2f0d98bc61ef",
      "networkId": 0,
      "chainId": 0
    }
  ]
}