{
  "hash": "0x05f4a21f717f0d13529322bc07336e6eeeb39693b507f61db79a6c690335206a",
  "parentHash": "0x0bf8abc1fd03ad05ec345c8a96f589d861436041bbb79bff2fe12ae380c48eef",
  "number": 89774,
  "timestamp": 1439628803,
  "nonce": "0xd9efd317c3ad28d5",
  "difficulty": 3345138342775,
  "gasLimit": {
    "_hex": "0x2fefd8"
  },
  "gasUsed": {
    "_hex": "0x5208"
  },
  "miner": "0xe6A7a1d47ff21B6321162AEA7C6CB457D5476Bca",
  "extraData": "0x476574682f76312e302e312d38326566323666362f6c696e75782f676f312e34",
  "transactions": [
    {
      "hash": "0x20da77a90ea290dc80de0bcee2b0cec318623d864a947d247470513dcca3fcfa",
      "blockHash": "0x05f4a21f717f0d13529322bc07336e6eeeb39693b507f61db79a6c690335206a",
      "blockNumber": 89774,
      "transactionIndex": 0,
      "confirmations": null,
      "from": "0xe6A7a1d47ff21B6321162AEA7C6CB457D5476Bca",
      "gasPrice": {
        "_hex": "0xcc559c12d"
      },
      "gasLimit": {
        "_hex": "0x55f0"
      },
      "to": "0x57C413ECd1d83c2C65B14ABE1FB48D4Fc3136844",
      "value": {
        "_hex": "0x20c68aff62bbfbec"
      },
      "nonce": 2041,
      "data": "0x",
      "r": "0x7fe45ea8c8bc07fd709d270cf6e1b210fe23ef67b126aba7d61b555705fa30c5",
      "s": "0x7420aff7469537276f6f3e73a8434e290aba60cabc604f7c8262513108a4abc7",
      "v": 27,
      "creates": null,
      "raw": "0xf86e8207f9850cc559c12d8255f09457c413ecd1d83c2c65b14abe1fb48d4fc31368448820c68aff62bbfbec801ba07fe45ea8c8bc07fd709d270cf6e1b210fe23ef67b126aba7d61b555705fa30c5a07420aff7469537276f6f3e73a8434e290aba60cabc604f7c8262513108a4abc7",
      "networkId": 0,
      "chainId": 0
    }
  ]
}