{
  "hash": "0xde00e1bb506ae8077d3ba71e0f5f80688f702216ff1916421d209ce15cbae6e6",
  "parentHash": "0xb9c6e03f09289f005c7c93387c739c6134ecb09367edd350529cde4ae3cc28a2",
  "number": 64505,
  "timestamp": 1439221904,
  "nonce": "0x2d9179a6845f4b35",
  "difficulty": 1875691395993,
  "gasLimit": {
    "_hex": "0x2fefd5"
  },
  "gasUsed": {
    "_hex": "0xf618"
  },
  "miner": "0x39A1BB80a741bF5EC39FB9BE59408Fa0F418fFBf",
  "extraData": "0x476574682f76312e302e312f77696e646f77732f676f312e342e32",
  "transactions": [
    {
      "hash": "0x6c4f740bfb395a4297c91594edfab1416db5b7ddb1cc3f4a95a68daa0592ede0",
      "blockHash": "0xde00e1bb506ae8077d3ba71e0f5f80688f702216ff1916421d209ce15cbae6e6",
      "blockNumber": 64505,
      "transactionIndex": 0,
      "confirmations": null,
      "from": "0xF02EcdA518fa17D355C26Ff17679B7aDC90B5DE1",
      "gasPrice": {
        "_hex": "0xd09a96611"
      },
      "gasLimit": {
        "_hex": "0x15f90"
      },
      "to": "0x120A270bbC009644e35F0bB6ab13f95b8199c4ad",
      "value": {
        "_hex": "0x104fa97cc3d824f000"
      },
      "nonce": 0,
      "data": "0x",
      "r": "0x18ee84ab36166bfac0c9f7dcfad29b07bd49c83fd9958932771c7150d8669624",
      "s": "0x75c1960afcddc1051c2b7a7fe8b86d96a77b0a87cc19635829be71496ffd6e04",
      "v": 28,
      "creates": null,
      "raw": "0xf86e80850d09a9661183015f9094120a270bbc009644e35f0bb6ab13f95b8199c4ad89104fa97cc3d824f000801ca018ee84ab36166bfac0c9f7dcfad29b07bd49c83fd9958932771c7150d8669624a075c1960afcddc1051c2b7a7fe8b86d96a77b0a87cc19635829be71496ffd6e04",
      "networkId": 0,
      "chainId": 0
    },
    {
      "hash": "0x2e6f0cfb8c34683b0310a711b0e12a4e585fe3c79c7b22a5f3b6c5e77b4ca17e",
      "blockHash": "0xde00e1bb506ae8077d3ba71e0f5f80688f702216ff1916421d209ce15cbae6e6",
      "blockNumber": 64505,
      "transactionIndex": 1,
      "confirmations": null,
      "from": "0x2910543Af39abA0Cd09dBb2D50200b3E800A63D2",
      "gasPrice": {
        "_hex": "0xcf815de07"
      },
      "gasLimit": {
        "_hex": "0x5208"
      },
      "to": "0x8F68fbE2DCFf038C24F650C9e05Ee478038171cd",
      "value": {
        "_hex": "0x4551ce090d138000"
      },
      "nonce": 145,
      "data": "0x",
      "r": "0x54222316674ce9f03c46f14978aa4048d0bd92a39b0eddd534e23c8c5b5cac0e",
      "s": "0x22d1ed2d32582969b6744718bb95e6b20005b68bb5699c09036b29bf6f85fa96",
      "v": 28,
      "creates": null,
      "raw": "0xf86d8191850cf815de07825208948f68fbe2dcff038c24f650c9e05ee478038171cd884551ce090d138000801ca054222316674ce9f03c46f14978aa4048d0bd92a39b0eddd534e23c8c5b5cac0ea022d1ed2d32582969b6744718bb95e6b20005b68bb5699c09036b29bf6f85fa96",
      "networkId": 0,
      "chainId": 0
    },
    {
      "hash": "0x46966f7238cda3983430b912534670b6114ceb2d36c270462dcfa8384fdf6d0f",
      "blockHash": "0xde00e1bb506ae8077d3ba71e0f5f80688f702216ff1916421d209ce15cbae6e6",
      "blockNumber": 64505,
      "transactionIndex": 2,
      "confirmations": null,
      "from": "0x853Dd95A31e99D0c743206A703a883198f8efBC4",
      "gasPrice": {
        "_hex": "0xba43b7400"
      },
      "gasLimit": {
        "_hex": "0x5208"
      },
      "to": "0x6747f922385c9a6F9cfDf095F34345257DD597bE",
      "value": {
        "_hex": "0x4e1253f5de4000"
      },
      "nonce": 1,
      "data": "0x",
      "r": "0xcbf65b8eec3e3d562b5bb9cb6545439cbd14311d797387d97c28e39a37ca2679",
      "s": "0x7375d0556cbdb2a7306e6a6284c0185b52d4e1356ded7146056d72c9f0901e05",
      "v": 27,
      "creates": null,
      "raw": "0xf86b01850ba43b7400825208946747f922385c9a6f9cfdf095f34345257dd597be874e1253f5de4000801ba0cbf65b8eec3e3d562b5bb9cb6545439cbd14311d797387d97c28e39a37ca2679a07375d0556cbdb2a7306e6a6284c0185b52d4e1356ded7146056d72c9f0901e05",
      "networkId": 0,
      "chainId": 0
    }
  ]
}