{
  "hash": "0x14d5f152f2d85eb4bfa49e6a87e6e82e561a3815b1487730d3aafa82b1432026",
  "parentHash": "0xb5417eb237b80fa5adccd70995bc9d476511d6423e9ca27fa1472e45772466fe",
  "number": 93207,
  "timestamp": 1439685063,
  "nonce": "0x6de691973337f12f",
  "difficulty": 3599623583476,
  "gasLimit": {
    "_hex": "0x2fefd8"
  },
  "gasUsed": {
    "_hex": "0x5208"
  },
  "miner": "0xC603Ab5ef41fC61AA8b76bEddb09e3Cfcbb174BD",
  "extraData": "0x476574682f76312e302e312f77696e646f77732f676f312e342e32",
  "transactions": [
    {
      "hash": "0x5a01f85755fab75ba7898be6d7b185643757319d80c12f72c94b89388843470e",
      "blockHash": "0x14d5f152f2d85eb4bfa49e6a87e6e82e561a3815b1487730d3aafa82b1432026",
      "blockNumber": 93207,
      "transactionIndex": 0,
      "confirmations": null,
      "from": "0xa6BDc31c431B8F97848c9D60cbbe9660dc450eB7",
      "gasPrice": {
        "_hex": "0xdca145641"
      },
      "gasLimit": {
        "_hex": "0x5208"
      },
      "to": "0x32Be343B94f860124dC4fEe278FDCBD38C102D88",
      "value": {
        "_hex": "0x455f265a24273000"
      },
      "nonce": 102,
      "data": "0x",
      "r": "0x78a1793d55dbd8296a445a94c7cbc75307204d307349caf7bf4d5cbf792cb9d8",
      "s": "0x428ef4331676f8aaeccbcd661348200753cd075d944600da9022bf04ed5979ee",
      "v": 27,
      "creates": null,
      "raw": "0xf86c66850dca1456418252089432be343b94f860124dc4fee278fdcbd38c102d8888455f265a24273000801ba078a1793d55dbd8296a445a94c7cbc75307204d307349caf7bf4d5cbf792cb9d8a0428ef4331676f8aaeccbcd661348200753cd075d944600da9022bf04ed5979ee",
      "networkId": 0,
      "chainId": 0
    }
  ]
}