{
  "hash": "0x9fb964a81c58a1cc778f5f388934d121eab6a1bbce706c8a1f4298aa549dc272",
  "parentHash": "0x1ee9c90a7a191742a54c7086ff37cc49abf384110ff9c6d69220318c129a3f87",
  "number": 49624,
  "timestamp": 1438976479,
  "nonce": "0xc963f1cb6fcbfe7f",
  "difficulty": 1481356618586,
  "gasLimit": {
    "_hex": "0x37e8b"
  },
  "gasUsed": {
    "_hex": "0x546c"
  },
  "miner": "0x0037ce3d4B7f8729C8607D8D0248252Be68202c0",
  "extraData": "0x476574682f76312e302e312f77696e646f77732f676f312e342e32",
  "transactions": [
    {
      "hash": "0xb44c190bf9612cb4c7f07cd496f02a4af4d13877999b56c44738c590d4d3990d",
      "blockHash": "0x9fb964a81c58a1cc778f5f388934d121eab6a1bbce706c8a1f4298aa549dc272",
      "blockNumber": 49624,
      "transactionIndex": 0,
      "confirmations": null,
      "from": "0x281250a29121270A4EE5d78d24FEAFe82C70bA3A",
      "gasPrice": {
        "_hex": "0x1156e857726"
      },
      "gasLimit": {
        "_hex": "0x15f90"
      },
      "to": "0x2910543Af39abA0Cd09dBb2D50200b3E800A63D2",
      "value": {
        "_hex": "0x363442e15b11550000"
      },
      "nonce": 0,
      "data": "0x454e42304a42363352",
      "r": "0x086cc2b87e34d91fdafe9049228f6944249ba153556d05be5cc7f5794d5f69ad",
      "s": "0x70608bc74a09ee2036d67606dc3d53d3da057cad12df3f2197fd637ee8f9a8bd",
      "v": 28,
      "creates": null,
      "raw": "0xf878808601156e85772683015f90942910543af39aba0cd09dbb2d50200b3e800a63d289363442e15b1155000089454e42304a423633521ca0086cc2b87e34d91fdafe9049228f6944249ba153556d05be5cc7f5794d5f69ada070608bc74a09ee2036d67606dc3d53d3da057cad12df3f2197fd637ee8f9a8bd",
      "networkId": 0,
      "chainId": 0
    }
  ]
}