{
  "hash": "0x254592b108354570b737b74bfb975e050b40a47ad948882fe2513d9b5c69dd3e",
  "parentHash": "0xc51dccda2428f175fca1cd63d42d41b4bcf4407f4f1ccdc226fc8977e8e4d672",
  "number": 49142,
  "timestamp": 1438968772,
  "nonce": "0x05a4559e771f8826",
  "difficulty": 1475666143679,
  "gasLimit": {
    "_hex": "0x2709b"
  },
  "gasUsed": {
    "_hex": "0xa674"
  },
  "miner": "0xbb7B8287f3F0a933474a79eAe42CBCa977791171",
  "extraData": "0x476574682f4c5649562f76312e302e312f6c696e75782f676f312e342e32",
  "transactions": [
    {
      "hash": "0x1e01867c93ba67670c9b6e3eea72a196ca76e192e8ad0aed622551f287a02808",
      "blockHash": "0x254592b108354570b737b74bfb975e050b40a47ad948882fe2513d9b5c69dd3e",
      "blockNumber": 49142,
      "transactionIndex": 0,
      "confirmations": null,
      "from": "0x93868ddb2a794d02eBDA2FA4807c76E3609858Dc",
      "gasPrice": {
        "_hex": "0x10a6a125757"
      },
      "gasLimit": {
        "_hex": "0x5208"
      },
      "to": "0x7c3f4907164F65CcA6ec853aC340ef1e71B1f5C9",
      "value": {
        "_hex": "0x36ea32f4e55eb40000"
      },
      "nonce": 2,
      "data": "0x",
      "r": "0x1cf0f61670cf8d539ad3b4223d64f0d2891fd3de3295ec154d59a710214f1f86",
      "s": "0x424890258754ab68d831043ef8773fcb420bb7a6c8a600c34f33c946ee286316",
      "v": 27,
      "creates": null,
      "raw": "0xf86e0286010a6a125757825208947c3f4907164f65cca6ec853ac340ef1e71b1f5c98936ea32f4e55eb40000801ba01cf0f61670cf8d539ad3b4223d64f0d2891fd3de3295ec154d59a710214f1f86a0424890258754ab68d831043ef8773fcb420bb7a6c8a600c34f33c946ee286316",
      "networkId": 0,
      "chainId": 0
    },
    {
      "hash": "0x30888c6358b79ab4fc50985be2d2d4b30c4b55dbf9050a825ae816a4dd4b7304",
      "blockHash": "0x254592b108354570b737b74bfb975e050b40a47ad948882fe2513d9b5c69dd3e",
      "blockNumber": 49142,
      "transactionIndex": 1,
      "confirmations": null,
      "from": "0x0BB549C68C4992BAc6a19C97d97178f60b36998E",
      "gasPrice": {
        "_hex": "0xce9fc09d4"
      },
      "gasLimit": {
        "_hex": "0x15f90"
      },
      "to": "0x2910543Af39abA0Cd09dBb2D50200b3E800A63D2",
      "value": {
        "_hex": "0x1158e460913d00000"
      },
      "nonce": 0,
      "data": "0x454e35354846444838",
      "r": "0x4854c31a8e3aa6f83d9535a45fa27b49e144c2c809e5fed56a7b2046168a02d6",
      "s": "0x0b70279ee30d2aed20af28b2bb4744cfebf32c8dd7e8ebed080de99b14e66ca9",
      "v": 27,
      "creates": null,
      "raw": "0xf87780850ce9fc09d483015f90942910543af39aba0cd09dbb2d50200b3e800a63d28901158e460913d0000089454e353548464448381ba04854c31a8e3aa6f83d9535a45fa27b49e144c2c809e5fed56a7b2046168a02d6a00b70279ee30d2aed20af28b2bb4744cfebf32c8dd7e8ebed080de99b14e66ca9",
      "networkId": 0,
      "chainId": 0
    }
  ]
}