{
  "hash": "0x924cfada2262fabe1f3968a2cf49eace1e06753acfdce34040fe53684a4e6c8f",
  "parentHash": "0x81122f3cddc1b685a752eac272bffb1cf744e02c9f8e334ddd89c23a69c4c3a8",
  "number": 84692,
  "timestamp": 1439553245,
  "nonce": "0x4e377b8a2cf0f4fc",
  "difficulty": 2614423306813,
  "gasLimit": {
    "_hex": "0x2fefd8"
  },
  "gasUsed": {
    "_hex": "0x546c"
  },
  "miner": "0xf927a40C8B7F6E07c5af7FA2155B4864a4112B13",
  "extraData": "0x",
  "transactions": [
    {
      "hash": "0x0ea2b526248ab2cb97b95e67c07717ec5d35f9ee57850e719a0842d6715490e1",
      "blockHash": "0x924cfada2262fabe1f3968a2cf49eace1e06753acfdce34040fe53684a4e6c8f",
      "blockNumber": 84692,
      "transactionIndex": 0,
      "confirmations": null,
      "from": "0xC5d30A49174e1a78D4b8a71824e78563cB041e94",
      "gasPrice": {
        "_hex": "0xd7d40ace3"
      },
      "gasLimit": {
        "_hex": "0x15f90"
      },
      "to": "0x7548566f611b89EBfb57C547FeA0c293A2830aD2",
      "value": {
        "_hex": "0x8ac7230489e80000"
      },
      "nonce": 1,
      "data": "0x706f6c6f6e69657833",
      "r": "0xf0abe2b7da39ecd982a8d5c89a51dad24cda957e18790f69a16ef8859910b9c3",
      "s": "0x2c1ace68ad4d92de2608581e78d039d4868c2a28ec5fbd2d1b24cd354e034f6e",
      "v": 27,
      "creates": null,
      "raw": "0xf87601850d7d40ace383015f90947548566f611b89ebfb57c547fea0c293a2830ad2888ac7230489e8000089706f6c6f6e696578331ba0f0abe2b7da39ecd982a8d5c89a51dad24cda957e18790f69a16ef8859910b9c3a02c1ace68ad4d92de2608581e78d039d4868c2a28ec5fbd2d1b24cd354e034f6e",
      "networkId": 0,
      "chainId": 0
    }
  ]
}