{
  "hash": "0xbd291bd92141a3f0e9ba56aacbba39b05acab877bb2c2a77317831a8c0e87577",
  "parentHash": "0xe69f5b764ea29068eb9f08be83c8e1509703f4f217c1d655741accfad2acb2b6",
  "number": 74897,
  "timestamp": 1439394322,
  "nonce": "0x93bf8c39b24d64e6",
  "difficulty": 2192330400380,
  "gasLimit": {
    "_hex": "0x2fefd8"
  },
  "gasUsed": {
    "_hex": "0xaee0"
  },
  "miner": "0xEF247E639d49461D25F57e9362CadE3120910Ce0",
  "extraData": "0x476574682f76312e302e312f6c696e75782f676f312e342e32",
  "transactions": [
    {
      "hash": "0x45184d4eb0cbd74b50cd8107749ab1cae13ff0b96734afdf61d51b8f397c7ac7",
      "blockHash": "0xbd291bd92141a3f0e9ba56aacbba39b05acab877bb2c2a77317831a8c0e87577",
      "blockNumber": 74897,
      "transactionIndex": 0,
      "confirmations": null,
      "from": "0xAcE365e4cD93314Ccf1C389F17216FFC5966BB1F",
      "gasPrice": {
        "_hex": "0x1082e414420"
      },
      "gasLimit": {
        "_hex": "0x15f90"
      },
      "to": "0x0000000000000000000000000000000000000000",
      "value": {
        "_hex": "0x0"
      },
      "nonce": 2,
      "data": "0xbe99a980456172746820446f6c6c61720000000000000000000000000000000000000000000000000000000000000000ace365e4cd93314ccf1c389f17216ffc5966bb1f0000000000000000000000000000000000000000000000000000000000000001",
      "r": "0xac257f35c541802db8a6e725642509a9ee64e6e625827bce629a04df99e3b6da",
      "s": "0x73413585227545ae79910236af7f2632b8cbb782592d4441669dd884ca5eb0c5",
      "v": 28,
      "creates": null,
      "raw": "0xf8cb028601082e41442083015f9094000000000000000000000000000000000000000080b864be99a980456172746820446f6c6c61720000000000000000000000000000000000000000000000000000000000000000ace365e4cd93314ccf1c389f17216ffc5966bb1f00000000000000000000000000000000000000000000000000000000000000011ca0ac257f35c541802db8a6e725642509a9ee64e6e625827bce629a04df99e3b6daa073413585227545ae79910236af7f2632b8cbb782592d4441669dd884ca5eb0c5",
      "networkId": 0,
      "chainId": 0
    },
    {
      "hash": "0xac88d4ece3eebd419be2f4a3748875aa9dcb8bdd7195de4688414ce2db2dd966",
      "blockHash": "0xbd291bd92141a3f0e9ba56aacbba39b05acab877bb2c2a77317831a8c0e87577",
      "blockNumber": 74897,
      "transactionIndex": 1,
      "confirmations": null,
      "from": "0x120A270bbC009644e35F0bB6ab13f95b8199c4ad",
      "gasPrice": {
        "_hex": "0xd52f994b8"
      },
      "gasLimit": {
        "_hex": "0x15f90"
      },
      "to": "0xEB3090f39ca19EB8F97B5969e1F9b7Cd524fFdb7",
      "value": {
        "_hex": "0x1ce3633a4e08be7000"
      },
      "nonce": 286,
      "data": "0x",
      "r": "0xff1c907bf13f570d8ab604259fc5a502bad5dbda7c58325743de610ed9924174",
      "s": "0x1f5f668a2d840283f4f93c99dcaa7d3ace126aa0696104fe5fb3e6fcd9620ad8",
      "v": 27,
      "creates": null,
      "raw": "0xf87082011e850d52f994b883015f9094eb3090f39ca19eb8f97b5969e1f9b7cd524ffdb7891ce3633a4e08be7000801ba0ff1c907bf13f570d8ab604259fc5a502bad5dbda7c58325743de610ed9924174a01f5f668a2d840283f4f93c99dcaa7d3ace126aa0696104fe5fb3e6fcd9620ad8",
      "networkId": 0,
      "chainId": 0
    }
  ]
}