{
  "hash": "0xb5179bc89d5a4528c17c862952571b3751b2427ab6a378c1fde6e02517139b75",
  "parentHash": "0x5d6fa80c54cf16916bf98c6791daa852fccaa15bdc6280067e181101f9d58ea1",
  "number": 111974,
  "timestamp": 1439999779,
  "nonce": "0x4090ac36dc69733f",
  "difficulty": 4381199578846,
  "gasLimit": {
    "_hex": "0x2fefd8"
  },
  "gasUsed": {
    "_hex": "0x5208"
  },
  "miner": "0xbb7B8287f3F0a933474a79eAe42CBCa977791171",
  "extraData": "0x476574682f4c5649562f76312e302e312f6c696e75782f676f312e342e32",
  "transactions": [
    {
      "hash": "0xf53db7e477c21ed78da71761d4d860eb60281a3ad53576ac10cd8302ae44c7e0",
      "blockHash": "0xb5179bc89d5a4528c17c862952571b3751b2427ab6a378c1fde6e02517139b75",
      "blockNumber": 111974,
      "transactionIndex": 0,
      "confirmations": null,
      "from": "0x32Be343B94f860124dC4fEe278FDCBD38C102D88",
      "gasPrice": {
        "_hex": "0xd980decb7"
      },
      "gasLimit": {
        "_hex": "0x5208"
      },
      "to": "0xeAb0996CA4a4404Da885Bc41d513f501ABf746A0",
      "value": {
        "_hex": "0xde0b6b3a7640000"
      },
      "nonce": 1323,
      "data": "0x",
      "r": "0x71c642f35fd16779e44f08e16077963ff219606b7f174d68fc1043c107d10911",
      "s": "0x47fa6470f9027fc43dd6ab4faaaf59168677076d37c28e07922fabf44e7f6a0a",
      "v": 27,
      "creates": null,
      "raw": "0xf86e82052b850d980decb782520894eab0996ca4a4404da885bc41d513f501abf746a0880de0b6b3a7640000801ba071c642f35fd16779e44f08e16077963ff219606b7f174d68fc1043c107d10911a047fa6470f9027fc43dd6ab4faaaf59168677076d37c28e07922fabf44e7f6a0a",
      "networkId": 0,
      "chainId": 0
    }
  ]
}