{
  "hash": "0x0dd7789f35c2d914f784da4e8c2ff9917db358973f9f950f094262c96bddbe02",
  "parentHash": "0xf581a635887e2c1df5c6771509387d02d8afe476572ec16150e72e500d08c44c",
  "number": 111179,
  "timestamp": 1439986031,
  "nonce": "0x7998800449da2c1d",
  "difficulty": 4409516258488,
  "gasLimit": {
    "_hex": "0x2fefd8"
  },
  "gasUsed": {
    "_hex": "0x546c"
  },
  "miner": "0xCeA4Da6564B683a6DBf3cd0180FD03395999072d",
  "extraData": "0x476574682f76312e302e312f6c696e75782f676f312e342e32",
  "transactions": [
    {
      "hash": "0x7943c244c20a0344c893cfd1a1326977642754db782dac8ccb0dbfdbea51b3b4",
      "blockHash": "0x0dd7789f35c2d914f784da4e8c2ff9917db358973f9f950f094262c96bddbe02",
      "blockNumber": 111179,
      "transactionIndex": 0,
      "confirmations": null,
      "from": "0xd0DF24FD0DfcDc3850D1590dAA1D03ca7706b11B",
      "gasPrice": {
        "_hex": "0x109ee2c7909"
      },
      "gasLimit": {
        "_hex": "0x55f0"
      },
      "to": "0x2910543Af39abA0Cd09dBb2D50200b3E800A63D2",
      "value": {
        "_hex": "0x7a4c4a0f332140000"
      },
      "nonce": 11,
      "data": "0x454e364832354d3230",
      "r": "0xab500c520b6a746bd094b53d6f80e269c9bed1892e500daa4637a60e33e4a76c",
      "s": "0x0bf6ecf02088c75577f459143a9ba1f2049822d77c5db8fd60ad141bb5457e44",
      "v": 27,
      "creates": null,
      "raw": "0xf8770b860109ee2c79098255f0942910543af39aba0cd09dbb2d50200b3e800a63d28907a4c4a0f33214000089454e364832354d32301ba0ab500c520b6a746bd094b53d6f80e269c9bed1892e500daa4637a60e33e4a76ca00bf6ecf02088c75577f459143a9ba1f2049822d77c5db8fd60ad141bb5457e44",
      "networkId": 0,
      "chainId": 0
    }
  ]
}