{
  "hash": "0x84b6dfbd8b50402f856c1313a6f99d597bb19eb93ab539cf6b40e190faf9e463",
  "parentHash": "0x1064e3fd7e4fbce34d068450545fdb77b56ae8c80719e7aba9f8ed3ffbaaa489",
  "number": 48128,
  "timestamp": 1438951923,
  "nonce": "0x09ae02cc0d95ff2b",
  "difficulty": 1467222288308,
  "gasLimit": {
    "_hex": "0x12ce7"
  },
  "gasUsed": {
    "_hex": "0xa674"
  },
  "miner": "0x0037ce3d4B7f8729C8607D8D0248252Be68202c0",
  "extraData": "0x476574682f76312e302e312f77696e646f77732f676f312e342e32",
  "transactions": [
    {
      "hash": "0xe0d8af9347d5b3175bacbeef3cb4a91603c451cf4164bb39c779db163b8fac74",
      "blockHash": "0x84b6dfbd8b50402f856c1313a6f99d597bb19eb93ab539cf6b40e190faf9e463",
      "blockNumber": 48128,
      "transactionIndex": 0,
      "confirmations": null,
      "from": "0x00ea19cfD3764efF21016a4e038850Ac06f98D37",
      "gasPrice": {
        "_hex": "0xd34f0f4b0"
      },
      "gasLimit": {
        "_hex": "0x7530"
      },
      "to": "0x2910543Af39abA0Cd09dBb2D50200b3E800A63D2",
      "value": {
        "_hex": "0x68155a43676e00000"
      },
      "nonce": 0,
      "data": "0x454e3651304d384252",
      "r": "0x2661e2cbab7aa097408af8db6cedf3f8382f0496b2aefb526d15932ed83ecf82",
      "s": "0x05f904d165a8786fbb63c55b49a22130be4fab087d7a1cbc2090fdca35566e44",
      "v": 28,
      "creates": null,
      "raw": "0xf87680850d34f0f4b0827530942910543af39aba0cd09dbb2d50200b3e800a63d289068155a43676e0000089454e3651304d3842521ca02661e2cbab7aa097408af8db6cedf3f8382f0496b2aefb526d15932ed83ecf82a005f904d165a8786fbb63c55b49a22130be4fab087d7a1cbc2090fdca35566e44",
      "networkId": 0,
      "chainId": 0
    },
    {
      "hash": "0xa3b0f854b9b6da367b18187ce395c0318f12e1a0ba891ede366504c0414f678c",
      "blockHash": "0x84b6dfbd8b50402f856c1313a6f99d597bb19eb93ab539cf6b40e190faf9e463",
      "blockNumber": 48128,
      "transactionIndex": 1,
      "confirmations": null,
      "from": "0x009560a3dE627868f91FA8Bfe1c1b7afaf08186B",
      "gasPrice": {
        "_hex": "0xcf7b7bc0d"
      },
      "gasLimit": {
        "_hex": "0x5208"
      },
      "to": "0xc00396Ad303d05D47a56450Eb5aF03EebC2d99C4",
      "value": {
        "_hex": "0x1c5a154106f94c0000"
      },
      "nonce": 0,
      "data": "0x",
      "r": "0x676bb7bcfbe122839208ccb766dfba1583bac1ffbe5c9765f85482c83052079f",
      "s": "0x15c852cbe67c9d138d3ee5b704a82ca9cd7bfb40f5978b6e5fdbe5b6a360904e",
      "v": 27,
      "creates": null,
      "raw": "0xf86d80850cf7b7bc0d82520894c00396ad303d05d47a56450eb5af03eebc2d99c4891c5a154106f94c0000801ba0676bb7bcfbe122839208ccb766dfba1583bac1ffbe5c9765f85482c83052079fa015c852cbe67c9d138d3ee5b704a82ca9cd7bfb40f5978b6e5fdbe5b6a360904e",
      "networkId": 0,
      "chainId": 0
    }
  ]
}