{
  "hash": "0xfd1c4d830872d46d627adf12332e952463025e7495b79b5d281098aa81a2aa22",
  "parentHash": "0x7fce736d827134b692293370696e5e51eabbcd62693ce5b7dcd80dd8ae34fbc7",
  "number": 53146,
  "timestamp": 1439033238,
  "nonce": "0x72d7c22984865aca",
  "difficulty": 1573158413226,
  "gasLimit": {
    "_hex": "0x20aa53"
  },
  "gasUsed": {
    "_hex": "0x546c"
  },
  "miner": "0x9746c7e1ef2bd21FF3997fa467593a89cb852BD0",
  "extraData": "0x476574682f76312e302e312f77696e646f77732f676f312e342e32",
  "transactions": [
    {
      "hash": "0x440c83d615b58f8d5748da20c4e1b61d38474ca89566a8e016bd602392d5c768",
      "blockHash": "0xfd1c4d830872d46d627adf12332e952463025e7495b79b5d281098aa81a2aa22",
      "blockNumber": 53146,
      "transactionIndex": 0,
      "confirmations": null,
      "from": "0x3D4e0cCd5BeefBa5131A2DAb7E019c6A7928F32e",
      "gasPrice": {
        "_hex": "0xd641f460d"
      },
      "gasLimit": {
        "_hex": "0x15f90"
      },
      "to": "0x2910543Af39abA0Cd09dBb2D50200b3E800A63D2",
      "value": {
        "_hex": "0x4563918244f40000"
      },
      "nonce": 0,
      "data": "0x454e4d3838424b4a47",
      "r": "0xbe3384994e4b0da4ec8d5cdefe3d5c47e83feaf4842c6873c58e4094cdc0bfa3",
      "s": "0x193a663c0a79bfa283cddbf959a1f9aedfaf8314574246f192c59f30edd4e59f",
      "v": 27,
      "creates": null,
      "raw": "0xf87680850d641f460d83015f90942910543af39aba0cd09dbb2d50200b3e800a63d2884563918244f4000089454e4d3838424b4a471ba0be3384994e4b0da4ec8d5cdefe3d5c47e83feaf4842c6873c58e4094cdc0bfa3a0193a663c0a79bfa283cddbf959a1f9aedfaf8314574246f192c59f30edd4e59f",
      "networkId": 0,
      "chainId": 0
    }
  ]
}