{
  "hash": "0x3a97e24779f7d96b0062363d4785bf3402e9db652a7e4e85f8dd55ac2ee6d11d",
  "parentHash": "0xa23a1032e0d1bc23001a589a9cd8361233d3a97c0cc635bad4f52e940ef4cc0b",
  "number": 48891,
  "timestamp": 1438964722,
  "nonce": "0xc5a0202cdc32cb51",
  "difficulty": 1476431036211,
  "gasLimit": {
    "_hex": "0x20676"
  },
  "gasUsed": {
    "_hex": "0x546c"
  },
  "miner": "0x157c6f2431eB1a95797EE86F7d17b3c0FD47A247",
  "extraData": "0x476574682f76312e302e312f77696e646f77732f676f312e342e32",
  "transactions": [
    {
      "hash": "0x46f6dfc82f3f5da35ec6e926612ac7baa1cf9e9d4ea0c803a36d54f10b03a0fd",
      "blockHash": "0x3a97e24779f7d96b0062363d4785bf3402e9db652a7e4e85f8dd55ac2ee6d11d",
      "blockNumber": 48891,
      "transactionIndex": 0,
      "confirmations": null,
      "from": "0xD38fa2C4Cc147AD06AD5A2F75579281F22A7Cc1F",
      "gasPrice": {
        "_hex": "0x110c8f7d8de"
      },
      "gasLimit": {
        "_hex": "0xc350"
      },
      "to": "0x2910543Af39abA0Cd09dBb2D50200b3E800A63D2",
      "value": {
        "_hex": "0x8963dd8c2c5e0000"
      },
      "nonce": 1,
      "data": "0x454e52515641593338",
      "r": "0xcb86f4b16c762f8213b12ae0a166dbb1b35bc90c6971ac61d7be125a9d8879b6",
      "s": "0xef67e65a258fce66be5d807ff442f0b719a4e5f82d03951bbfa712fabc683ed1",
      "v": 27,
      "creates": null,
      "raw": "0xf87601860110c8f7d8de82c350942910543af39aba0cd09dbb2d50200b3e800a63d2888963dd8c2c5e000089454e525156415933381ba0cb86f4b16c762f8213b12ae0a166dbb1b35bc90c6971ac61d7be125a9d8879b6a0ef67e65a258fce66be5d807ff442f0b719a4e5f82d03951bbfa712fabc683ed1",
      "networkId": 0,
      "chainId": 0
    }
  ]
}