{
  "hash": "0xf828e53f34934abe8350e427a23fc4f2a9fda7583febf7590b2bdc600384de12",
  "parentHash": "0x4b4cfd5adc3c2ce14760934658916036e9e317ba5fa6114b18617209e7dfd168",
  "number": 63888,
  "timestamp": 1439211926,
  "nonce": "0x511b87001acac842",
  "difficulty": 1851261490250,
  "gasLimit": {
    "_hex": "0x2fefd8"
  },
  "gasUsed": {
    "_hex": "0x5208"
  },
  "miner": "0xbb7B8287f3F0a933474a79eAe42CBCa977791171",
  "extraData": "0x476574682f4c5649562f76312e302e312f6c696e75782f676f312e342e32",
  "transactions": [
    {
      "hash": "0xdf5100fa462ac011eb78a9d16281f7c63e91afa4df879e2edd56f645de4c6c16",
      "blockHash": "0xf828e53f34934abe8350e427a23fc4f2a9fda7583febf7590b2bdc600384de12",
      "blockNumber": 63888,
      "transactionIndex": 0,
      "confirmations": null,
      "from": "0x237b555850BE6BFf53a0698146371a2F5890A030",
      "gasPrice": {
        "_hex": "0xd0895e95b"
      },
      "gasLimit": {
        "_hex": "0x5208"
      },
      "to": "0x32Be343B94f860124dC4fEe278FDCBD38C102D88",
      "value": {
        "_hex": "0x3354dd3d74c79400"
      },
      "nonce": 3,
      "data": "0x",
      "r": "0x6681933f767eb3c54dd98c977c4ff8f21f1d35e68c11d68c7f39b59e70fffdc1",
      "s": "0x31e5a6c566a5e51ae6177eebce622dbb7d6917aee10358c4729e30e5479f6491",
      "v": 28,
      "creates": null,
      "raw": "0xf86c03850d0895e95b8252089432be343b94f860124dc4fee278fdcbd38c102d88883354dd3d74c79400801ca06681933f767eb3c54dd98c977c4ff8f21f1d35e68c11d68c7f39b59e70fffdc1a031e5a6c566a5e51ae6177eebce622dbb7d6917aee10358c4729e30e5479f6491",
      "networkId": 0,
      "chainId": 0
    }
  ]
}