{
  "hash": "0xd445b84a55b713ce29c322a23abc4d0021d5d52b6e95ad1af99d44cf082c312d",
  "parentHash": "0xfef778ef814d6f983cb2e1215b34bddfad4e9357ed4766c1cbd0b3306bc33865",
  "number": 107816,
  "timestamp": 1439929283,
  "nonce": "0x758c44bc8835e65d",
  "difficulty": 4379093209015,
  "gasLimit": {
    "_hex": "0x2fefd8"
  },
  "gasUsed": {
    "_hex": "0x1b497"
  },
  "miner": "0x7366ADF97960d404c38D975e1A8786bEb14B6507",
  "extraData": "0x476574682f76312e302e312f77696e646f77732f676f312e342e32",
  "transactions": [
    {
      "hash": "0x3776cc7b576bbd3d5041b53d110206b551215a968307e7029fa287710e2f22e3",
      "blockHash": "0xd445b84a55b713ce29c322a23abc4d0021d5d52b6e95ad1af99d44cf082c312d",
      "blockNumber": 107816,
      "transactionIndex": 0,
      "confirmations": null,
      "from": "0xE11bC3E5E6285CC7e065efC6A8CA3937222351FF",
      "gasPrice": {
        "_hex": "0xcfc5f3ab4"
      },
      "gasLimit": {
        "_hex": "0x493e0"
      },
      "to": "0xD79B4C6791784184e2755B2fC1659eaaB0f80456",
      "value": {
        "_hex": "0xde0b6b3a7640000"
      },
      "nonce": 1,
      "data": "0x8d2161860000000000000000000000000000000000000000000000000000000000000080a750f856176592a464fcdbec93f29ae3ae95709c560fa307ede6d316161260f9",
      "r": "0xc468648014befdcd27effc79b53a88da4a688779f62304da3f267b8621220bbc",
      "s": "0x511354e2c12930fa259e4326fb44bbb5f965ecbf4a67197521ce8b2b3c9c94b0",
      "v": 28,
      "creates": null,
      "raw": "0xf8b201850cfc5f3ab4830493e094d79b4c6791784184e2755b2fc1659eaab0f80456880de0b6b3a7640000b8448d2161860000000000000000000000000000000000000000000000000000000000000080a750f856176592a464fcdbec93f29ae3ae95709c560fa307ede6d316161260f91ca0c468648014befdcd27effc79b53a88da4a688779f62304da3f267b8621220bbca0511354e2c12930fa259e4326fb44bbb5f965ecbf4a67197521ce8b2b3c9c94b0",
      "networkId": 0,
      "chainId": 0
    }
  ]
}