{
  "hash": "0xf2776562b13109b2799a5cfee14b38aa5494ee1f39bd61f98b22cc9e7e4b5620",
  "parentHash": "0x9c378e46a80d8237c5ffc59e02e844c9f4694b3a1ea27649a12d7e5dee4a7a89",
  "number": 81038,
  "timestamp": 1439494991,
  "nonce": "0xd208c381543105ed",
  "difficulty": 2437972193813,
  "gasLimit": {
    "_hex": "0x2fefd8"
  },
  "gasUsed": {
    "_hex": "0x5208"
  },
  "miner": "0xa50ec0D39fa913E62f1Bae7074E6F36caA71855b",
  "extraData": "0xd783010001844765746887676f312e342e32856c696e7578",
  "transactions": [
    {
      "hash": "0x7dfc5cd55e51813f420a7da78f9077b3aea32dae425890f37c779d9eab1b3e82",
      "blockHash": "0xf2776562b13109b2799a5cfee14b38aa5494ee1f39bd61f98b22cc9e7e4b5620",
      "blockNumber": 81038,
      "transactionIndex": 0,
      "confirmations": null,
      "from": "0x1d5886c94A247eCaf060Ce8bBDD258B8521E7359",
      "gasPrice": {
        "_hex": "0xcdba9440c"
      },
      "gasLimit": {
        "_hex": "0x5208"
      },
      "to": "0x32Be343B94f860124dC4fEe278FDCBD38C102D88",
      "value": {
        "_hex": "0xa2a158ea8f41400000"
      },
      "nonce": 2,
      "data": "0x",
      "r": "0x3750fd950c10364239419e3f24474006a0722fcf75e661008df83251b7190768",
      "s": "0x1b01997b63c6853eb8bfbd83823422dfcfd8ba6949bde60f84da241fd86ec60c",
      "v": 28,
      "creates": null,
      "raw": "0xf86d02850cdba9440c8252089432be343b94f860124dc4fee278fdcbd38c102d8889a2a158ea8f41400000801ca03750fd950c10364239419e3f24474006a0722fcf75e661008df83251b7190768a01b01997b63c6853eb8bfbd83823422dfcfd8ba6949bde60f84da241fd86ec60c",
      "networkId": 0,
      "chainId": 0
    }
  ]
}