{
  "hash": "0x46abe36dc019d0f1be87469851f015b4bf1cc19b733cf20ea8d69cfcf0fbdba7",
  "parentHash": "0x2c504b1df9b645408b7b3202d5692fafec8c51bd2d10e19768d41092d7f54573",
  "number": 53573,
  "timestamp": 1439039824,
  "nonce": "0xcf1055227284504f",
  "difficulty": 1597070708826,
  "gasLimit": {
    "_hex": "0x2c2fd1"
  },
  "gasUsed": {
    "_hex": "0x2709f"
  },
  "miner": "0x01d9DA08cc6Fb97c0DE1B6F4C28910A0859Ed1A1",
  "extraData": "0x476574682f76312e302e312f6c696e75782f676f312e342e32",
  "transactions": [
    {
      "hash": "0xb965ed7d299a6ec95098a43e99307d0cb7453f1c50d0094bbbe810a532592f80",
      "blockHash": "0x46abe36dc019d0f1be87469851f015b4bf1cc19b733cf20ea8d69cfcf0fbdba7",
      "blockNumber": 53573,
      "transactionIndex": 0,
      "confirmations": null,
      "from": "0x00bD7514616c0E4Dd28F5B351090ABAD03F104C8",
      "gasPrice": {
        "_hex": "0x1012e9573a2"
      },
      "gasLimit": {
        "_hex": "0x15f90"
      },
      "to": "0x00bD7514616c0E4Dd28F5B351090ABAD03F104C8",
      "value": {
        "_hex": "0xb1a2bc2ec50000"
      },
      "nonce": 2,
      "data": "0x",
      "r": "0x8b67f4a5e37d70a7ec04fdcbbac80c3ce625f1eff4a5adb1279991e15b2c2671",
      "s": "0x7fd4db2d95c78400e40dc11b24e72bbd3b5cc054fbb9f2980e32eecc6268ee74",
      "v": 27,
      "creates": null,
      "raw": "0xf86d028601012e9573a283015f909400bd7514616c0e4dd28f5b351090abad03f104c887b1a2bc2ec50000801ba08b67f4a5e37d70a7ec04fdcbbac80c3ce625f1eff4a5adb1279991e15b2c2671a07fd4db2d95c78400e40dc11b24e72bbd3b5cc054fbb9f2980e32eecc6268ee74",
      "networkId": 0,
      "chainId": 0
    },
    {
      "hash": "0xa13705d6ea905431caeb62c33d9a08ec83cc8557a33316a9612f6cf523dabfcb",
      "blockHash": "0x46abe36dc019d0f1be87469851f015b4bf1cc19b733cf20ea8d69cfcf0fbdba7",
      "blockNumber": 53573,
      "transactionIndex": 1,
      "confirmations": null,
      "from": "0x8674c218F0351a62C3BA78C34FD2182A93Da94E2",
      "gasPrice": {
        "_hex": "0xd39ab600a"
      },
      "gasLimit": {
        "_hex": "0xf4240"
      },
      "to": null,
      "value": {
        "_hex": "0x0"
      },
      "nonce": 11,
      "data": "0x60606040526101b7806100136000396000f300606060405260e060020a60003504634ed3885e8114610026578063e21f37ce146100ca575b005b60206004803590810135601f8101839004909202608090810160405260608381526100249360249391929184019181908382808284375050845160008054828255818052969750956020601f91909101047f290decd9548b62a8d60345a988386fc84ba6bc95484008f6362f93160ef3e563908101955090935091508215610193579182015b828111156101935782518260005055916020019190600101906100ac565b6101256000805460806020601f830181900402810160405260608281529291908282801561011d57820191906000526020600020905b81548152906001019060200180831161010057829003601f168201915b505050505081565b60405180806020018281038252838181518152602001915080519060200190808383829060006004602084601f0104600302600f01f150905090810190601f1680156101855780820380516001836020036101000a031916815260200191505b509250505060405180910390f35b506101ae9291505b808211156101b35783815560010161019b565b505050565b509056",
      "r": "0xbcb5af8cf06a9b2f8867d6dcb3ac618debfcdd86e0486c19118c18d844f837b6",
      "s": "0x7d6cb94dc36a0bec38355c033e6fdedd4025c94090598c2f56565291d47418c2",
      "v": 27,
      "creates": "0xD2ECCDe805e888ae37646544d60185b842ff3D6b",
      "raw": "0xf9021d0b850d39ab600a830f42408080b901ca60606040526101b7806100136000396000f300606060405260e060020a60003504634ed3885e8114610026578063e21f37ce146100ca575b005b60206004803590810135601f8101839004909202608090810160405260608381526100249360249391929184019181908382808284375050845160008054828255818052969750956020601f91909101047f290decd9548b62a8d60345a988386fc84ba6bc95484008f6362f93160ef3e563908101955090935091508215610193579182015b828111156101935782518260005055916020019190600101906100ac565b6101256000805460806020601f830181900402810160405260608281529291908282801561011d57820191906000526020600020905b81548152906001019060200180831161010057829003601f168201915b505050505081565b60405180806020018281038252838181518152602001915080519060200190808383829060006004602084601f0104600302600f01f150905090810190601f1680156101855780820380516001836020036101000a031916815260200191505b509250505060405180910390f35b506101ae9291505b808211156101b35783815560010161019b565b505050565b5090561ba0bcb5af8cf06a9b2f8867d6dcb3ac618debfcdd86e0486c19118c18d844f837b6a07d6cb94dc36a0bec38355c033e6fdedd4025c94090598c2f56565291d47418c2",
      "networkId": 0,
      "chainId": 0
    }
  ]
}