{
  "hash": "0x1e1231f6f48f78ebcd1fb66ac5c4313e72769f968d58610db55d14ad5a46b670",
  "parentHash": "0x96132ad1a5ba67ca12172c010302f426e915a4bb8f073f02e7d5b3760eae69ff",
  "number": 111830,
  "timestamp": 1439996917,
  "nonce": "0xa0e0cf753b2f2c0f",
  "difficulty": 4424270274982,
  "gasLimit": {
    "_hex": "0x2fefd8"
  },
  "gasUsed": {
    "_hex": "0x5208"
  },
  "miner": "0xa50ec0D39fa913E62f1Bae7074E6F36caA71855b",
  "extraData": "0xd783010001844765746887676f312e342e32856c696e7578",
  "transactions": [
    {
      "hash": "0x2d007fe1353c0fd0b8b5684755b059d68b768ccc73f3c3e78ed64789b338a25f",
      "blockHash": "0x1e1231f6f48f78ebcd1fb66ac5c4313e72769f968d58610db55d14ad5a46b670",
      "blockNumber": 111830,
      "transactionIndex": 0,
      "confirmations": null,
      "from": "0xeeb66aFe554366d685C7832C6c93727Ba577378D",
      "gasPrice": {
        "_hex": "0xcd8109175"
      },
      "gasLimit": {
        "_hex": "0x5208"
      },
      "to": "0xFBb1b73C4f0BDa4f67dcA266ce6Ef42f520fBB98",
      "value": {
        "_hex": "0x6b9fcc105bd5b658"
      },
      "nonce": 5,
      "data": "0x",
      "r": "0xf6a048eb6178203920c5f3bf915d2987369419f7bad606a6dd3b2779e3ad10b4",
      "s": "0x24bf6b4ef3c51b6cbc8f0fe51e8a45c3e1a15e56f7d5f8908e0f37b9bcec2705",
      "v": 28,
      "creates": null,
      "raw": "0xf86c05850cd810917582520894fbb1b73c4f0bda4f67dca266ce6ef42f520fbb98886b9fcc105bd5b658801ca0f6a048eb6178203920c5f3bf915d2987369419f7bad606a6dd3b2779e3ad10b4a024bf6b4ef3c51b6cbc8f0fe51e8a45c3e1a15e56f7d5f8908e0f37b9bcec2705",
      "networkId": 0,
      "chainId": 0
    }
  ]
}