{
  "hash": "0xa9496d8999d4b9e01816401baf0ef95439f8e647c9f7f9627da20bce796e0bb1",
  "parentHash": "0x4e804aaf920baaac49465ca07144d3ce46f83f8671291ae35453241980630f2f",
  "number": 110034,
  "timestamp": 1439966982,
  "nonce": "0x7af7c90f8bb115e8",
  "difficulty": 4390780292882,
  "gasLimit": {
    "_hex": "0x2fefd8"
  },
  "gasUsed": {
    "_hex": "0x5208"
  },
  "miner": "0xe6A7a1d47ff21B6321162AEA7C6CB457D5476Bca",
  "extraData": "0x476574682f76312e302e312d38326566323666362f6c696e75782f676f312e34",
  "transactions": [
    {
      "hash": "0xb1c6a3dee4b50f50bc78ca8dd25d27bdd6ff30203057c2bce9e44def99c8d481",
      "blockHash": "0xa9496d8999d4b9e01816401baf0ef95439f8e647c9f7f9627da20bce796e0bb1",
      "blockNumber": 110034,
      "transactionIndex": 0,
      "confirmations": null,
      "from": "0xFBb1b73C4f0BDa4f67dcA266ce6Ef42f520fBB98",
      "gasPrice": {
        "_hex": "0xd8d63c80d"
      },
      "gasLimit": {
        "_hex": "0x5208"
      },
      "to": "0xC89CD9e30AB1C57c9B7FdF8E51B59a86048d08Fa",
      "value": {
        "_hex": "0x375f53dc2dcf0000"
      },
      "nonce": 215,
      "data": "0x",
      "r": "0xdd8c6d454f92bd26fec0ceed735d47b9a1347d97a25e6fc2a512c3257408e432",
      "s": "0x0f3d9fd60f6fff3ec9b78c4064162281ab703acadab66aab2fe5545b48463d6d",
      "v": 27,
      "creates": null,
      "raw": "0xf86d81d7850d8d63c80d82520894c89cd9e30ab1c57c9b7fdf8e51b59a86048d08fa88375f53dc2dcf0000801ba0dd8c6d454f92bd26fec0ceed735d47b9a1347d97a25e6fc2a512c3257408e432a00f3d9fd60f6fff3ec9b78c4064162281ab703acadab66aab2fe5545b48463d6d",
      "networkId": 0,
      "chainId": 0
    }
  ]
}