{
  "hash": "0x67207119a911d7496cdac82394f1470aa65f27e7096bbc7091d4898568bc5901",
  "parentHash": "0x1fea74deaec5f78bf689e9a7a23f2d6185ab7b91f3082cb72b1b83704a2726ee",
  "number": 105461,
  "timestamp": 1439887974,
  "nonce": "0xc39c96863007de18",
  "difficulty": 4399614584027,
  "gasLimit": {
    "_hex": "0x2fefd8"
  },
  "gasUsed": {
    "_hex": "0x5208"
  },
  "miner": "0x7e8504a5e26df87f6D26fA1ba148BE146F42775A",
  "extraData": "0x476574682f76312e302e312f77696e646f77732f676f312e342e32",
  "transactions": [
    {
      "hash": "0xbbc5b858f9086ab0925dd737d7ccf19c46d5a0b1a456c99bf0126f01c4a237e1",
      "blockHash": "0x67207119a911d7496cdac82394f1470aa65f27e7096bbc7091d4898568bc5901",
      "blockNumber": 105461,
      "transactionIndex": 0,
      "confirmations": null,
      "from": "0xc08E05f51581aDA37f9DD2edbF7a68fE7E199D55",
      "gasPrice": {
        "_hex": "0xcc832b719"
      },
      "gasLimit": {
        "_hex": "0x5208"
      },
      "to": "0x32Be343B94f860124dC4fEe278FDCBD38C102D88",
      "value": {
        "_hex": "0x5c85dc7c57dc5400"
      },
      "nonce": 3,
      "data": "0x",
      "r": "0x61d6eb9f8c3c0fb736cf71e1c517839a2b838834bdd721f197197ec1ac1b36a4",
      "s": "0x2d8dd2ee838b155f860fa16031def04e5a7f6fd159001c9fe71cb953bdb779fa",
      "v": 28,
      "creates": null,
      "raw": "0xf86c03850cc832b7198252089432be343b94f860124dc4fee278fdcbd38c102d88885c85dc7c57dc5400801ca061d6eb9f8c3c0fb736cf71e1c517839a2b838834bdd721f197197ec1ac1b36a4a02d8dd2ee838b155f860fa16031def04e5a7f6fd159001c9fe71cb953bdb779fa",
      "networkId": 0,
      "chainId": 0
    }
  ]
}