{
  "hash": "0xdaf615bb34ff33f9935a41c0a9886b021ebf5ad0e0c0bbb05c988443ce470ea3",
  "parentHash": "0x900aaa239ea7b1cc0facb4b44b2fc58214c7c9033c604064641be8cfdfc915d6",
  "number": 83865,
  "timestamp": 1439541946,
  "nonce": "0xf45e7e9f72a3d914",
  "difficulty": 2455066479963,
  "gasLimit": {
    "_hex": "0x2fefd8"
  },
  "gasUsed": {
    "_hex": "0x5208"
  },
  "miner": "0xe6A7a1d47ff21B6321162AEA7C6CB457D5476Bca",
  "extraData": "0x476574682f76312e302e312d38326566323666362f6c696e75782f676f312e34",
  "transactions": [
    {
      "hash": "0xba1d03417757670649bd8cd209720cce1f694acfc9ae8ea2b92f09ee13098f0d",
      "blockHash": "0xdaf615bb34ff33f9935a41c0a9886b021ebf5ad0e0c0bbb05c988443ce470ea3",
      "blockNumber": 83865,
      "transactionIndex": 0,
      "confirmations": null,
      "from": "0xcd0Af3474e22F069EC3407870DD770443d5b12B0",
      "gasPrice": {
        "_hex": "0xd3fc63050"
      },
      "gasLimit": {
        "_hex": "0x7a120"
      },
      "to": "0x0bCa038BF4ACAd3Cbf73463EccC7717dDCDc3D83",
      "value": {
        "_hex": "0x56bc75e2d63100000"
      },
      "nonce": 7,
      "data": "0x",
      "r": "0xe0e0f62ee7b6893fa0ff6a75d305f424dd355abc1b802ca8f9f7f9c7fea3023c",
      "s": "0x6d36e320b324d100a52d79bf3b0329d16004eb92aa1104c23c1cae3e469d65a0",
      "v": 28,
      "creates": null,
      "raw": "0xf86e07850d3fc630508307a120940bca038bf4acad3cbf73463eccc7717ddcdc3d8389056bc75e2d63100000801ca0e0e0f62ee7b6893fa0ff6a75d305f424dd355abc1b802ca8f9f7f9c7fea3023ca06d36e320b324d100a52d79bf3b0329d16004eb92aa1104c23c1cae3e469d65a0",
      "networkId": 0,
      "chainId": 0
    }
  ]
}