{
  "hash": "0xf6e0c5cb14d025d5f522d26e06a684b60a3c7e0244aa1308bcf3f138813f00f6",
  "parentHash": "0x57e0465e5a2015468e8bb0de84d3c9a931a6fb8a6a4523043c2e42bf098511eb",
  "number": 97384,
  "timestamp": 1439755139,
  "nonce": "0x87626c664c996f0f",
  "difficulty": 3820532997734,
  "gasLimit": {
    "_hex": "0x2fefd8"
  },
  "gasUsed": {
    "_hex": "0x5208"
  },
  "miner": "0xe6A7a1d47ff21B6321162AEA7C6CB457D5476Bca",
  "extraData": "0x476574682f76312e302e312d38326566323666362f6c696e75782f676f312e34",
  "transactions": [
    {
      "hash": "0x697698cc584930210d3a8ce335c815cfe7d6ab61fa4300f93fbe111729690ecd",
      "blockHash": "0xf6e0c5cb14d025d5f522d26e06a684b60a3c7e0244aa1308bcf3f138813f00f6",
      "blockNumber": 97384,
      "transactionIndex": 0,
      "confirmations": null,
      "from": "0x162dA3315AB5Bd741b603831ff0eD69656eF1409",
      "gasPrice": {
        "_hex": "0xd70ede567"
      },
      "gasLimit": {
        "_hex": "0x5208"
      },
      "to": "0x7e328d1Ecfc12Cc0149316e313F43962f58784d6",
      "value": {
        "_hex": "0x16345785d8a0000"
      },
      "nonce": 1,
      "data": "0x",
      "r": "0x5762b698db79894c85451405a99da4915d9768d4146b4cc32794c38b0c301797",
      "s": "0x4089fd5d54858be4817e0ab264c484f4b3d5d0b323e60ac40628ec969fa345b6",
      "v": 27,
      "creates": null,
      "raw": "0xf86c01850d70ede567825208947e328d1ecfc12cc0149316e313f43962f58784d688016345785d8a0000801ba05762b698db79894c85451405a99da4915d9768d4146b4cc32794c38b0c301797a04089fd5d54858be4817e0ab264c484f4b3d5d0b323e60ac40628ec969fa345b6",
      "networkId": 0,
      "chainId": 0
    }
  ]
}