{
  "hash": "0x7a98b2a60cfe0b236ceef1e78ee12c25df1f7d0515c3d7ddc10152028e1916cf",
  "parentHash": "0x17d2ca11a70fd9ec6165fc69f1c356adc63a4894998836ee2a87994e727c19db",
  "number": 81808,
  "timestamp": 1439508155,
  "nonce": "0x4db723da008149a6",
  "difficulty": 2430617029618,
  "gasLimit": {
    "_hex": "0x2fefd8"
  },
  "gasUsed": {
    "_hex": "0x5208"
  },
  "miner": "0x580992B51e3925e23280EfB93d3047C82f17E038",
  "extraData": "0x476574682f76312e302e312f6c696e75782f676f312e342e32",
  "transactions": [
    {
      "hash": "0x0a8ec02d335e4c1be8a7eed9cf04db3a087156dcecf89626b6b423609acf97c9",
      "blockHash": "0x7a98b2a60cfe0b236ceef1e78ee12c25df1f7d0515c3d7ddc10152028e1916cf",
      "blockNumber": 81808,
      "transactionIndex": 0,
      "confirmations": null,
      "from": "0x80459F7950368e582175a9AC45E2d9a1B76932EF",
      "gasPrice": {
        "_hex": "0xd829211eb"
      },
      "gasLimit": {
        "_hex": "0x15f90"
      },
      "to": "0x15ce449d4c7f47a4Ea1d1C8Ab5E15F10D8BdFEce",
      "value": {
        "_hex": "0x21cd1408730f90000"
      },
      "nonce": 2,
      "data": "0x",
      "r": "0x112754447bba4a62b4623420bd562af7316515c1fdbf0d02b5ba778354c056a8",
      "s": "0x703e582fc0c922fb012de0c5f2e0b08d8a40b3dc90596cd506998fdffff8580f",
      "v": 28,
      "creates": null,
      "raw": "0xf86e02850d829211eb83015f909415ce449d4c7f47a4ea1d1c8ab5e15f10d8bdfece89021cd1408730f90000801ca0112754447bba4a62b4623420bd562af7316515c1fdbf0d02b5ba778354c056a8a0703e582fc0c922fb012de0c5f2e0b08d8a40b3dc90596cd506998fdffff8580f",
      "networkId": 0,
      "chainId": 0
    }
  ]
}