{
  "hash": "0x1dc99aeb842de462c836f38dc0d6d2313214ca3f9acf638e470afc1a25e65d32",
  "parentHash": "0x847f60b9e0b61574fcda6a8f303e92e7969108e77532269faad16df8f7ffd19c",
  "number": 109885,
  "timestamp": 1439964260,
  "nonce": "0xdce7eb36450f9cf2",
  "difficulty": 4405891778397,
  "gasLimit": {
    "_hex": "0x2fefd8"
  },
  "gasUsed": {
    "_hex": "0x5208"
  },
  "miner": "0x8df03bD37602d97980327B58D940258dC57007B3",
  "extraData": "0x",
  "transactions": [
    {
      "hash": "0x05d399f9451b03ff95894f907e6ae1757a4ddd26d9ce78cb09582a2f9687e8cf",
      "blockHash": "0x1dc99aeb842de462c836f38dc0d6d2313214ca3f9acf638e470afc1a25e65d32",
      "blockNumber": 109885,
      "transactionIndex": 0,
      "confirmations": null,
      "from": "0x007f7f58D3eb5b7510A301eCC749FC1fCDDBE14D",
      "gasPrice": {
        "_hex": "0xd382b0b9c"
      },
      "gasLimit": {
        "_hex": "0x15f90"
      },
      "to": "0xb1abce2918E21ddb93AA452731a12672A3d9F75a",
      "value": {
        "_hex": "0x4563918244f40000"
      },
      "nonce": 278,
      "data": "0x",
      "r": "0x9aec6bea50b27fdf7e231515a8746cb9d74aa39f2793704cf9e273567fa8fd96",
      "s": "0x0dfd8bbae89b8da9024e7e9a598909e220dd525f7caafaf784fcf758af6baeb6",
      "v": 28,
      "creates": null,
      "raw": "0xf86f820116850d382b0b9c83015f9094b1abce2918e21ddb93aa452731a12672a3d9f75a884563918244f40000801ca09aec6bea50b27fdf7e231515a8746cb9d74aa39f2793704cf9e273567fa8fd96a00dfd8bbae89b8da9024e7e9a598909e220dd525f7caafaf784fcf758af6baeb6",
      "networkId": 0,
      "chainId": 0
    }
  ]
}