{
  "hash": "0x5b26f94c1e2bd1a30ef1f704bcb9ff85e3f7f5e3759c46a0f3c8b86c173d0758",
  "parentHash": "0xe6ed30cd147c5f4c585f15fef78fb133631d3b8d6ddf91cdc0e9ce0fbeba41fa",
  "number": 51428,
  "timestamp": 1439004757,
  "nonce": "0xf5e76ad38d005792",
  "difficulty": 1564287975652,
  "gasLimit": {
    "_hex": "0xafb8a"
  },
  "gasUsed": {
    "_hex": "0x2600a"
  },
  "miner": "0xbb7B8287f3F0a933474a79eAe42CBCa977791171",
  "extraData": "0x476574682f4c5649562f76312e302e312f6c696e75782f676f312e342e32",
  "transactions": [
    {
      "hash": "0x373905c41d3fa35e6f55805576fac5e257ea187d3d304e40d2f1c30b01ff868c",
      "blockHash": "0x5b26f94c1e2bd1a30ef1f704bcb9ff85e3f7f5e3759c46a0f3c8b86c173d0758",
      "blockNumber": 51428,
      "transactionIndex": 0,
      "confirmations": null,
      "from": "0xf88a65846C19D8fc76fFf545fEAa7bbc7114F667",
      "gasPrice": {
        "_hex": "0xe0384b04e"
      },
      "gasLimit": {
        "_hex": "0x7a120"
      },
      "to": "0xBAA54d6E90c3F4d7Ebec11bD180134C7eD8eBb52",
      "value": {
        "_hex": "0x16345785d8a0000"
      },
      "nonce": 20,
      "data": "0x",
      "r": "0x9d23b780dfa155ad931dd35c04a2af4b0ec26ec3ca2a2749f049577c7e0abd99",
      "s": "0x68552912cd2505e1c489f70c6cee8e1a802644e016d706fffefeac495994d659",
      "v": 27,
      "creates": null,
      "raw": "0xf86d14850e0384b04e8307a12094baa54d6e90c3f4d7ebec11bd180134c7ed8ebb5288016345785d8a0000801ba09d23b780dfa155ad931dd35c04a2af4b0ec26ec3ca2a2749f049577c7e0abd99a068552912cd2505e1c489f70c6cee8e1a802644e016d706fffefeac495994d659",
      "networkId": 0,
      "chainId": 0
    },
    {
      "hash": "0xcf3838ee4d3795c211fa0dfdb0ba74e22eed807e2b509a5d9088d98ed81dcf92",
      "blockHash": "0x5b26f94c1e2bd1a30ef1f704bcb9ff85e3f7f5e3759c46a0f3c8b86c173d0758",
      "blockNumber": 51428,
      "transactionIndex": 1,
      "confirmations": null,
      "from": "0x8dd1564B9F5de977842650A81926AF713963C070",
      "gasPrice": {
        "_hex": "0xd77caa219"
      },
      "gasLimit": {
        "_hex": "0x15f90"
      },
      "to": "0xA327075af2a223A1C83a36aDa1126afE7430f955",
      "value": {
        "_hex": "0x8ac7230489e80000"
      },
      "nonce": 3,
      "data": "0x",
      "r": "0xbee47a1222f55e17579d3530a63d902d5ec995b4264d31977a3ccf304cd21a48",
      "s": "0x7faec4308558d2c05cd17f7a4b99f29ad96256bb5a5544bc6fb685dc02598c71",
      "v": 27,
      "creates": null,
      "raw": "0xf86d03850d77caa21983015f9094a327075af2a223a1c83a36ada1126afe7430f955888ac7230489e80000801ba0bee47a1222f55e17579d3530a63d902d5ec995b4264d31977a3ccf304cd21a48a07faec4308558d2c05cd17f7a4b99f29ad96256bb5a5544bc6fb685dc02598c71",
      "networkId": 0,
      "chainId": 0
    },
    {
      "hash": "0x34858c23c7e99a8092e61ebd53b8a5f6424d2ab59d0425cee0a8bb95dd065fc7",
      "blockHash": "0x5b26f94c1e2bd1a30ef1f704bcb9ff85e3f7f5e3759c46a0f3c8b86c173d0758",
      "blockNumber": 51428,
      "transactionIndex": 2,
      "confirmations": null,
      "from": "0xD2f56EeB7111655F1709413CE0f7D2c60F7b1846",
      "gasPrice": {
        "_hex": "0xcc4958169"
      },
      "gasLimit": {
        "_hex": "0x15f90"
      },
      "to": "0xA0d6bEEf41e5c2DcAbf47D035D582C252e906Aa2",
      "value": {
        "_hex": "0xde0b6b3a7640000"
      },
      "nonce": 2,
      "data": "0x",
      "r": "0xcc1b7a8cc6c23f72ca1c8e16b10229e485c99eb2ff8f4d9e581efdca1a41e623",
      "s": "0x3b77865399c1a99f242addd822e29c9ae21b37542d95f36c8b8ae1dfd20b51e2",
      "v": 28,
      "creates": null,
      "raw": "0xf86d02850cc495816983015f9094a0d6beef41e5c2dcabf47d035d582c252e906aa2880de0b6b3a7640000801ca0cc1b7a8cc6c23f72ca1c8e16b10229e485c99eb2ff8f4d9e581efdca1a41e623a03b77865399c1a99f242addd822e29c9ae21b37542d95f36c8b8ae1dfd20b51e2",
      "networkId": 0,
      "chainId": 0
    },
    {
      "hash": "0x47985a01734f9b4aca8cdba807609c1c884bf76b1a43cff3d154f73b0b5650ba",
      "blockHash": "0x5b26f94c1e2bd1a30ef1f704bcb9ff85e3f7f5e3759c46a0f3c8b86c173d0758",
      "blockNumber": 51428,
      "transactionIndex": 3,
      "confirmations": null,
      "from": "0x3e8c40498098dd81D00F8bCA8744a0053c82079A",
      "gasPrice": {
        "_hex": "0xba43b7400"
      },
      "gasLimit": {
        "_hex": "0x5b04"
      },
      "to": "0xe5113BcffaDB209830e48BF545404dB707EdE837",
      "value": {
        "_hex": "0xb2e4b323d9c5100000"
      },
      "nonce": 2,
      "data": "0x",
      "r": "0xb39cf6822d053ab22c21d6fea07c7c75cef948e70551296036b589484770c58c",
      "s": "0x3a2fb362d9b034dd287813746426fea1e6af4f1b00cacc5613547144d836ea26",
      "v": 27,
      "creates": null,
      "raw": "0xf86d02850ba43b7400825b0494e5113bcffadb209830e48bf545404db707ede83789b2e4b323d9c5100000801ba0b39cf6822d053ab22c21d6fea07c7c75cef948e70551296036b589484770c58ca03a2fb362d9b034dd287813746426fea1e6af4f1b00cacc5613547144d836ea26",
      "networkId": 0,
      "chainId": 0
    }
  ]
}