{
  "hash": "0x84aae4db09bf3ba817871a65d7b06115533af48e2c61751104ccce34aab460f3",
  "parentHash": "0x5c71963454a78778e43cd7f71d56065d49fba7a71811de507db35a65f511b3d1",
  "number": 51764,
  "timestamp": 1439010487,
  "nonce": "0xba58ed831817ac6c",
  "difficulty": 1552052421432,
  "gasLimit": {
    "_hex": "0xd9c39"
  },
  "gasUsed": {
    "_hex": "0x546c"
  },
  "miner": "0xa50ec0D39fa913E62f1Bae7074E6F36caA71855b",
  "extraData": "0x",
  "transactions": [
    {
      "hash": "0x78a3c78c1bfd4c214433db90f7889b49422d5871a5933646dd4d5aaad12f4443",
      "blockHash": "0x84aae4db09bf3ba817871a65d7b06115533af48e2c61751104ccce34aab460f3",
      "blockNumber": 51764,
      "transactionIndex": 0,
      "confirmations": null,
      "from": "0x906886208f866F20Da292360Bd6e5f93adaA69EC",
      "gasPrice": {
        "_hex": "0xd641f460d"
      },
      "gasLimit": {
        "_hex": "0x15f90"
      },
      "to": "0xf8E0CA3Ed80bd541b94BEdCf259e8CF2141A9523",
      "value": {
        "_hex": "0xef0b7e3cf01a80000"
      },
      "nonce": 0,
      "data": "0x454e433933464b3330",
      "r": "0x36a33ad497a40a81365bfb0635f6c2871b4d30be33d8b36a5d0b367b2887533b",
      "s": "0x12e71298ad05b3959507cadb93944c3d3dab9490cf6ec29e19efe04a71d3278c",
      "v": 28,
      "creates": null,
      "raw": "0xf87780850d641f460d83015f9094f8e0ca3ed80bd541b94bedcf259e8cf2141a9523890ef0b7e3cf01a8000089454e433933464b33301ca036a33ad497a40a81365bfb0635f6c2871b4d30be33d8b36a5d0b367b2887533ba012e71298ad05b3959507cadb93944c3d3dab9490cf6ec29e19efe04a71d3278c",
      "networkId": 0,
      "chainId": 0
    }
  ]
}