{
  "hash": "0x29f38d3e0b76d14d48b0e21cbf5c094f8f721f2908eb492de610b9f907dff3f1",
  "parentHash": "0xa9d4c5da90aea932f34eca009e7070d5bab4510ec7f579de2e73a3591fe6daec",
  "number": 79589,
  "timestamp": 1439472123,
  "nonce": "0x173fb4e82f7c8333",
  "difficulty": 2341547447124,
  "gasLimit": {
    "_hex": "0x2fefd8"
  },
  "gasUsed": {
    "_hex": "0x1452f"
  },
  "miner": "0x55bAf64fc9eAccFFd7Cc643BB61142E1C6ac093e",
  "extraData": "0x",
  "transactions": [
    {
      "hash": "0xe18b4c8e1b1777c865deeed6ec9418aa52d2ec3567f7e2192d7041630daa41fa",
      "blockHash": "0x29f38d3e0b76d14d48b0e21cbf5c094f8f721f2908eb492de610b9f907dff3f1",
      "blockNumber": 79589,
      "transactionIndex": 0,
      "confirmations": null,
      "from": "0x2910543Af39abA0Cd09dBb2D50200b3E800A63D2",
      "gasPrice": {
        "_hex": "0xdc20724c7"
      },
      "gasLimit": {
        "_hex": "0x5208"
      },
      "to": "0x959C29f8182718575D9A58fa3EF8fF8A5f9D79e8",
      "value": {
        "_hex": "0xac99c422de6db8000"
      },
      "nonce": 363,
      "data": "0x",
      "r": "0x4ca8b3b7bcd5d4e57dcf0aaef54eb70743a2a5e2ca6c51e066cdf09a6852dab0",
      "s": "0x70f6eb83db08bbb247a3503d35321df6708efdd5195392b590722f0ea57cc107",
      "v": 28,
      "creates": null,
      "raw": "0xf86f82016b850dc20724c782520894959c29f8182718575d9a58fa3ef8ff8a5f9d79e8890ac99c422de6db8000801ca04ca8b3b7bcd5d4e57dcf0aaef54eb70743a2a5e2ca6c51e066cdf09a6852dab0a070f6eb83db08bbb247a3503d35321df6708efdd5195392b590722f0ea57cc107",
      "networkId": 0,
      "chainId": 0
    },
    {
      "hash": "0x12c1e8c0d3a9d53600bdd7497bf63d44d449c5253ab1e8eb03fcc080ee05a4bd",
      "blockHash": "0x29f38d3e0b76d14d48b0e21cbf5c094f8f721f2908eb492de610b9f907dff3f1",
      "blockNumber": 79589,
      "transactionIndex": 1,
      "confirmations": null,
      "from": "0x008FC7CBAdFFbD0D7fe44F8DFD60a79d721a1c9C",
      "gasPrice": {
        "_hex": "0xce46030bc"
      },
      "gasLimit": {
        "_hex": "0x30d40"
      },
      "to": "0x67DE0f2F71e29b8003D957fbcDE9C9AE393CbE94",
      "value": {
        "_hex": "0x16345785d8a0000"
      },
      "nonce": 39,
      "data": "0x",
      "r": "0xdce9b8106d1c097ea7a5d63a9b69436b7b0b3c716751d2767b80efa0661c2b51",
      "s": "0x52679d65e961aee14572798f30bdaaf4fa5710d6bf7e5a96adb6025c47430317",
      "v": 27,
      "creates": null,
      "raw": "0xf86d27850ce46030bc83030d409467de0f2f71e29b8003d957fbcde9c9ae393cbe9488016345785d8a0000801ba0dce9b8106d1c097ea7a5d63a9b69436b7b0b3c716751d2767b80efa0661c2b51a052679d65e961aee14572798f30bdaaf4fa5710d6bf7e5a96adb6025c47430317",
      "networkId": 0,
      "chainId": 0
    }
  ]
}