{
  "hash": "0xa673669fbb397d4d51134aa7553251cf7eb08841f83a908a90bae236a12fcf0d",
  "parentHash": "0x158071a0bd65bcbc005d5fcb767eef9b8495303bead148b7f6b1655df2cafc2a",
  "number": 84199,
  "timestamp": 1439546256,
  "nonce": "0xf752b0578c950126",
  "difficulty": 2525488070065,
  "gasLimit": {
    "_hex": "0x2fefd8"
  },
  "gasUsed": {
    "_hex": "0x5208"
  },
  "miner": "0xe6A7a1d47ff21B6321162AEA7C6CB457D5476Bca",
  "extraData": "0x476574682f76312e302e312d38326566323666362f6c696e75782f676f312e34",
  "transactions": [
    {
      "hash": "0x858a72018de60839db5f8fca7ad434545221371c732063b19308f6ceb0a93af6",
      "blockHash": "0xa673669fbb397d4d51134aa7553251cf7eb08841f83a908a90bae236a12fcf0d",
      "blockNumber": 84199,
      "transactionIndex": 0,
      "confirmations": null,
      "from": "0x2910543Af39abA0Cd09dBb2D50200b3E800A63D2",
      "gasPrice": {
        "_hex": "0xcb7b68063"
      },
      "gasLimit": {
        "_hex": "0x5208"
      },
      "to": "0x289B9bA6dC9c12D3130F1115180397C20cCBF220",
      "value": {
        "_hex": "0xbe0cd160f2f4548000"
      },
      "nonce": 541,
      "data": "0x",
      "r": "0xe27909f0e7b75074266162088b6b062fe91bfe93385d0b76da623db77bc71826",
      "s": "0x4377a3a2c1126b15e3343954e98fb923999ceb6b4503e113e11cbde135661c25",
      "v": 28,
      "creates": null,
      "raw": "0xf86f82021d850cb7b6806382520894289b9ba6dc9c12d3130f1115180397c20ccbf22089be0cd160f2f4548000801ca0e27909f0e7b75074266162088b6b062fe91bfe93385d0b76da623db77bc71826a04377a3a2c1126b15e3343954e98fb923999ceb6b4503e113e11cbde135661c25",
      "networkId": 0,
      "chainId": 0
    }
  ]
}