{
  "hash": "0x969e62f22ab7959681a61c735cdd39ca417059d518511c120992a5d33cdd98fb",
  "parentHash": "0x4006d942099ca1232919bc3380562f86e7b6717ed947c13a09e3d48340659274",
  "number": 121719,
  "timestamp": 1440181453,
  "nonce": "0x08e87e80e25f7e3a",
  "difficulty": 4486456600700,
  "gasLimit": {
    "_hex": "0x2fefd8"
  },
  "gasUsed": {
    "_hex": "0x5208"
  },
  "miner": "0x580992B51e3925e23280EfB93d3047C82f17E038",
  "extraData": "0x",
  "transactions": [
    {
      "hash": "0xd1a488d27e752cb250b1ff723d266668d654fec6c03a74feac22f9a4de6978a8",
      "blockHash": "0x969e62f22ab7959681a61c735cdd39ca417059d518511c120992a5d33cdd98fb",
      "blockNumber": 121719,
      "transactionIndex": 0,
      "confirmations": null,
      "from": "0x22F62443F9aF687F0ee0c193054e9C8adDd2C6a3",
      "gasPrice": {
        "_hex": "0xda56ad6ef"
      },
      "gasLimit": {
        "_hex": "0x5208"
      },
      "to": "0x32Be343B94f860124dC4fEe278FDCBD38C102D88",
      "value": {
        "_hex": "0xac997e2c39e058000"
      },
      "nonce": 0,
      "data": "0x",
      "r": "0x6ce658eab331e080f85a3c4947c16e4e3ea3247c40b884684ea71333a640f63d",
      "s": "0x6c2e6c372a64007e607f45b4b8214da27d1fbab29d2a641dd9c259cd804aed87",
      "v": 27,
      "creates": null,
      "raw": "0xf86d80850da56ad6ef8252089432be343b94f860124dc4fee278fdcbd38c102d88890ac997e2c39e058000801ba06ce658eab331e080f85a3c4947c16e4e3ea3247c40b884684ea71333a640f63da06c2e6c372a64007e607f45b4b8214da27d1fbab29d2a641dd9c259cd804aed87",
      "networkId": 0,
      "chainId": 0
    }
  ]
}