{
  "hash": "0x430def6eb9b0754bb440c22859413c77f00819c77f7ea9e26715ae6beab1f187",
  "parentHash": "0x5152647d380dae05e98f398a8aee3c1fb2ebb377fe7a4bf387ec932d1bee8c77",
  "number": 114978,
  "timestamp": 1440049698,
  "nonce": "0x8805f34dcb25a3bf",
  "difficulty": 4496645382339,
  "gasLimit": {
    "_hex": "0x2fefd8"
  },
  "gasUsed": {
    "_hex": "0x1bdbe"
  },
  "miner": "0x157c6f2431eB1a95797EE86F7d17b3c0FD47A247",
  "extraData": "0x476574682f76312e302e312f77696e646f77732f676f312e342e32",
  "transactions": [
    {
      "hash": "0x42eac5a60a1e2b05d3d41d8532efe0fd95770249c73e54728dc36c3761382da8",
      "blockHash": "0x430def6eb9b0754bb440c22859413c77f00819c77f7ea9e26715ae6beab1f187",
      "blockNumber": 114978,
      "transactionIndex": 0,
      "confirmations": null,
      "from": "0x13622631B6851Af989c6B6a73bbB106227Ec3C16",
      "gasPrice": {
        "_hex": "0xd946684ce"
      },
      "gasLimit": {
        "_hex": "0x249f0"
      },
      "to": "0xE28e72FCf78647ADCe1F1252F240bbfaebD63BcC",
      "value": {
        "_hex": "0x1853cbca5e1c4c0000"
      },
      "nonce": 0,
      "data": "0x45466f3a",
      "r": "0x057b2c2444ec965a6bbee87c7e5d750d3ae1e4ca4f902731eddaca6cece37d57",
      "s": "0x479ecc0616b60ed8b47f2df28bacbaa4e0a868ef47429308474e0f0d5f6cf42d",
      "v": 28,
      "creates": null,
      "raw": "0xf87280850d946684ce830249f094e28e72fcf78647adce1f1252f240bbfaebd63bcc891853cbca5e1c4c00008445466f3a1ca0057b2c2444ec965a6bbee87c7e5d750d3ae1e4ca4f902731eddaca6cece37d57a0479ecc0616b60ed8b47f2df28bacbaa4e0a868ef47429308474e0f0d5f6cf42d",
      "networkId": 0,
      "chainId": 0
    }
  ]
}