{
  "hash": "0x6809c45b4a9809decd98e1497b9728997d445fd67f8599f696ba526e5db681c5",
  "parentHash": "0x720a9fa3734e3d2e6689f135ff29dc0b81e4470444f1f44d46e94ebef927efa9",
  "number": 110672,
  "timestamp": 1439977589,
  "nonce": "0x3f9ace0d51833d66",
  "difficulty": 4377602548945,
  "gasLimit": {
    "_hex": "0x2fefd8"
  },
  "gasUsed": {
    "_hex": "0x29040"
  },
  "miner": "0x623d2411c3bb3340784155F9a688b0085251aB5c",
  "extraData": "0x",
  "transactions": [
    {
      "hash": "0xf371d46b0f94e89a5d965204587291b1e50296001d2e7d69ae002b36d6a2a0fe",
      "blockHash": "0x6809c45b4a9809decd98e1497b9728997d445fd67f8599f696ba526e5db681c5",
      "blockNumber": 110672,
      "transactionIndex": 0,
      "confirmations": null,
      "from": "0xF2C14aDd753869D4EEdfefdCdFBA341Abfa1D702",
      "gasPrice": {
        "_hex": "0xd9c308c04"
      },
      "gasLimit": {
        "_hex": "0x5208"
      },
      "to": "0x32Be343B94f860124dC4fEe278FDCBD38C102D88",
      "value": {
        "_hex": "0x7d6c91fd74ea2c00"
      },
      "nonce": 8,
      "data": "0x",
      "r": "0x4ce575bfc394f2951e60e5b5faba399ee7cba6f5bd8ac2033382c04b46d2e269",
      "s": "0x7b14662aacbe981599d3016705ad1beb4b5fd2371c65ace6eaa7fc3b78789d2c",
      "v": 28,
      "creates": null,
      "raw": "0xf86c08850d9c308c048252089432be343b94f860124dc4fee278fdcbd38c102d88887d6c91fd74ea2c00801ca04ce575bfc394f2951e60e5b5faba399ee7cba6f5bd8ac2033382c04b46d2e269a07b14662aacbe981599d3016705ad1beb4b5fd2371c65ace6eaa7fc3b78789d2c",
      "networkId": 0,
      "chainId": 0
    },
    {
      "hash": "0x15ca7efd46d568391b8df194ca4a4ef60aabcf47ae260f43f8077b83820490bf",
      "blockHash": "0x6809c45b4a9809decd98e1497b9728997d445fd67f8599f696ba526e5db681c5",
      "blockNumber": 110672,
      "transactionIndex": 1,
      "confirmations": null,
      "from": "0xc517a1ceF7630dc7FeBd59e9f7fb80F56EaCB21E",
      "gasPrice": {
        "_hex": "0xd9c308c04"
      },
      "gasLimit": {
        "_hex": "0x5208"
      },
      "to": "0x32Be343B94f860124dC4fEe278FDCBD38C102D88",
      "value": {
        "_hex": "0xecf461dae28c400"
      },
      "nonce": 1,
      "data": "0x",
      "r": "0x95fd6becfa74183222af9bbd64c4d5108dcf4d5c5a6473a5115fa3d835cc4372",
      "s": "0x7a1b5cb751bdd5319a971f7fa61076840ead19a1d9e90e29bf0a0608b0b58d19",
      "v": 28,
      "creates": null,
      "raw": "0xf86c01850d9c308c048252089432be343b94f860124dc4fee278fdcbd38c102d88880ecf461dae28c400801ca095fd6becfa74183222af9bbd64c4d5108dcf4d5c5a6473a5115fa3d835cc4372a07a1b5cb751bdd5319a971f7fa61076840ead19a1d9e90e29bf0a0608b0b58d19",
      "networkId": 0,
      "chainId": 0
    },
    {
      "hash": "0x6234dfabf823ee379f6be0f864cce77182aa40e1bf93d04b2b3f6541c578cac4",
      "blockHash": "0x6809c45b4a9809decd98e1497b9728997d445fd67f8599f696ba526e5db681c5",
      "blockNumber": 110672,
      "transactionIndex": 2,
      "confirmations": null,
      "from": "0x563e085b6739fd86ac81775dd9867Bac0c489b6A",
      "gasPrice": {
        "_hex": "0xd9c308c04"
      },
      "gasLimit": {
        "_hex": "0x5208"
      },
      "to": "0x32Be343B94f860124dC4fEe278FDCBD38C102D88",
      "value": {
        "_hex": "0xc0449dc8ed6000"
      },
      "nonce": 2,
      "data": "0x",
      "r": "0x2d8bdc3bd3eacd3d80318ff75cdbf6c29086f3824fc3351f297c8d70d73b8c09",
      "s": "0x5c4fa79743f90b86887918c9fec9169b67bbb678879d6d33cb94b045b0932434",
      "v": 27,
      "creates": null,
      "raw": "0xf86b02850d9c308c048252089432be343b94f860124dc4fee278fdcbd38c102d8887c0449dc8ed6000801ba02d8bdc3bd3eacd3d80318ff75cdbf6c29086f3824fc3351f297c8d70d73b8c09a05c4fa79743f90b86887918c9fec9169b67bbb678879d6d33cb94b045b0932434",
      "networkId": 0,
      "chainId": 0
    },
    {
      "hash": "0xe6ee8bb3200c50919335e75eb1488cfb475aa2fa18c9b8def33d9e0628c1d60c",
      "blockHash": "0x6809c45b4a9809decd98e1497b9728997d445fd67f8599f696ba526e5db681c5",
      "blockNumber": 110672,
      "transactionIndex": 3,
      "confirmations": null,
      "from": "0xBaA949Dbf5dbaE91Bf1cf03fC3bD9E30d0237Fd6",
      "gasPrice": {
        "_hex": "0xd9c308c04"
      },
      "gasLimit": {
        "_hex": "0x5208"
      },
      "to": "0x32Be343B94f860124dC4fEe278FDCBD38C102D88",
      "value": {
        "_hex": "0xcf068f8ae05c480000"
      },
      "nonce": 1,
      "data": "0x",
      "r": "0x7a2bb3f41549b465d2a1befd759803291fd9c7fb5e5f342548c8bae504fe261a",
      "s": "0x3a2d2344c0e95eca9a78d4de4033fe82c6044870a006b55c7bc68a7a5ffe8398",
      "v": 27,
      "creates": null,
      "raw": "0xf86d01850d9c308c048252089432be343b94f860124dc4fee278fdcbd38c102d8889cf068f8ae05c480000801ba07a2bb3f41549b465d2a1befd759803291fd9c7fb5e5f342548c8bae504fe261aa03a2d2344c0e95eca9a78d4de4033fe82c6044870a006b55c7bc68a7a5ffe8398",
      "networkId": 0,
      "chainId": 0
    },
    {
      "hash": "0xefe708b823928f0c0f85b0264428a27ed4576dd0891f2133b3dfda25a57d4a5f",
      "blockHash": "0x6809c45b4a9809decd98e1497b9728997d445fd67f8599f696ba526e5db681c5",
      "blockNumber": 110672,
      "transactionIndex": 4,
      "confirmations": null,
      "from": "0xE9820EfC74A9fe5fb68bf1e0FBf9945c1302bC0B",
      "gasPrice": {
        "_hex": "0xd9c308c04"
      },
      "gasLimit": {
        "_hex": "0x5208"
      },
      "to": "0x32Be343B94f860124dC4fEe278FDCBD38C102D88",
      "value": {
        "_hex": "0x4fcbd4c1a92328000"
      },
      "nonce": 8,
      "data": "0x",
      "r": "0xd29589b52c8571164063bf018d743785a89102e54782fd632b9a46a64a544a49",
      "s": "0x60f890e93a11b1433df6881d7cd3cadf712f348860067c5b93df02d8d318544e",
      "v": 28,
      "creates": null,
      "raw": "0xf86d08850d9c308c048252089432be343b94f860124dc4fee278fdcbd38c102d888904fcbd4c1a92328000801ca0d29589b52c8571164063bf018d743785a89102e54782fd632b9a46a64a544a49a060f890e93a11b1433df6881d7cd3cadf712f348860067c5b93df02d8d318544e",
      "networkId": 0,
      "chainId": 0
    },
    {
      "hash": "0x850965f35e27fbcbf4238f199c343f70d6b1c6ff9280ec813c7e46148e8cfce5",
      "blockHash": "0x6809c45b4a9809decd98e1497b9728997d445fd67f8599f696ba526e5db681c5",
      "blockNumber": 110672,
      "transactionIndex": 5,
      "confirmations": null,
      "from": "0x5bBc8885Cd987500BEba7842e7dD88c4b1dFBEDc",
      "gasPrice": {
        "_hex": "0xd9c308c04"
      },
      "gasLimit": {
        "_hex": "0x5208"
      },
      "to": "0x32Be343B94f860124dC4fEe278FDCBD38C102D88",
      "value": {
        "_hex": "0x530961145b74400"
      },
      "nonce": 1,
      "data": "0x",
      "r": "0xd7cac0ac454ffda753aa4370379348d94b0995ba177a0b4eee6ed859a7f5c58f",
      "s": "0x06ba4e30cbb3a2b229bc83890ff53dcf783a161ff8950b8593f85a625cdbe91a",
      "v": 28,
      "creates": null,
      "raw": "0xf86c01850d9c308c048252089432be343b94f860124dc4fee278fdcbd38c102d88880530961145b74400801ca0d7cac0ac454ffda753aa4370379348d94b0995ba177a0b4eee6ed859a7f5c58fa006ba4e30cbb3a2b229bc83890ff53dcf783a161ff8950b8593f85a625cdbe91a",
      "networkId": 0,
      "chainId": 0
    },
    {
      "hash": "0x5fd44d5a21b2b5d8c3b38558482b0fdb0ba73f4c613d3c02e69aba3b3eb91df9",
      "blockHash": "0x6809c45b4a9809decd98e1497b9728997d445fd67f8599f696ba526e5db681c5",
      "blockNumber": 110672,
      "transactionIndex": 6,
      "confirmations": null,
      "from": "0xF4f2C15602B084Cae84Ea603f75527DE19705aA1",
      "gasPrice": {
        "_hex": "0xd9c308c04"
      },
      "gasLimit": {
        "_hex": "0x5208"
      },
      "to": "0x32Be343B94f860124dC4fEe278FDCBD38C102D88",
      "value": {
        "_hex": "0x19ddff7c45016400"
      },
      "nonce": 6,
      "data": "0x",
      "r": "0x6271ed92715e469f4f0ceee6289227c4af4914ec5a3e503cd928af21f7f00544",
      "s": "0x6177536bf635544062a9cbded0fb6413f11eb9e22048dd5198e66ccf4dce2e63",
      "v": 28,
      "creates": null,
      "raw": "0xf86c06850d9c308c048252089432be343b94f860124dc4fee278fdcbd38c102d888819ddff7c45016400801ca06271ed92715e469f4f0ceee6289227c4af4914ec5a3e503cd928af21f7f00544a06177536bf635544062a9cbded0fb6413f11eb9e22048dd5198e66ccf4dce2e63",
      "networkId": 0,
      "chainId": 0
    },
    {
      "hash": "0xdd4c7bf2e5d4649d865fc02b7b936388c0bf872bc47c7e9963a37e59eb3b9c49",
      "blockHash": "0x6809c45b4a9809decd98e1497b9728997d445fd67f8599f696ba526e5db681c5",
      "blockNumber": 110672,
      "transactionIndex": 7,
      "confirmations": null,
      "from": "0xBe750c24427887537FBc1E67Ed096a59dF3a4cC4",
      "gasPrice": {
        "_hex": "0xd7d40ace3"
      },
      "gasLimit": {
        "_hex": "0x15f90"
      },
      "to": "0x8C37447a7930187595EC51FEA6f749C4F8a96cD4",
      "value": {
        "_hex": "0x168d28e3f00280000"
      },
      "nonce": 3,
      "data": "0x",
      "r": "0xdb81de99d22cef71b43c270a105c5a24254a9b5add33bd020c48905207400693",
      "s": "0x242512775621a474f4bbb82c3ee22ba1f232bd85e6e6dc88c85f6b21e058ef19",
      "v": 27,
      "creates": null,
      "raw": "0xf86e03850d7d40ace383015f90948c37447a7930187595ec51fea6f749c4f8a96cd4890168d28e3f00280000801ba0db81de99d22cef71b43c270a105c5a24254a9b5add33bd020c48905207400693a0242512775621a474f4bbb82c3ee22ba1f232bd85e6e6dc88c85f6b21e058ef19",
      "networkId": 0,
      "chainId": 0
    }
  ]
}