{
  "hash": "0x2bd9e58d4e68606f35d34d85dd23eccbe29583766f527d25899493ffb073149a",
  "parentHash": "0x398fd53385bb4ae81f5ace0bc476224d64cfa7e480b64284a9fa5fb1af427e9a",
  "number": 60851,
  "timestamp": 1439162711,
  "nonce": "0xb5071b53511b0638",
  "difficulty": 1730409754684,
  "gasLimit": {
    "_hex": "0x2fefd8"
  },
  "gasUsed": {
    "_hex": "0x5208"
  },
  "miner": "0xbb7B8287f3F0a933474a79eAe42CBCa977791171",
  "extraData": "0x476574682f4c5649562f76312e302e312f6c696e75782f676f312e342e32",
  "transactions": [
    {
      "hash": "0x66925eeb3af5268015575f3f81a512c176c23d4c0c61fbaa1137b8df758fb7a9",
      "blockHash": "0x2bd9e58d4e68606f35d34d85dd23eccbe29583766f527d25899493ffb073149a",
      "blockNumber": 60851,
      "transactionIndex": 0,
      "confirmations": null,
      "from": "0xa8E7201ff619fAFFc332E6aD37Ed41e301bf014a",
      "gasPrice": {
        "_hex": "0xdb2816147"
      },
      "gasLimit": {
        "_hex": "0x15f90"
      },
      "to": "0x00C865a16eD3c930DD70B642507639D199C62180",
      "value": {
        "_hex": "0x10b25bd02564500000"
      },
      "nonce": 1,
      "data": "0x",
      "r": "0xa3d90d908ef07807b47c9c1fc0d205c2672e158a959e58fdb0b0acdd294e3073",
      "s": "0x1f820e0935447e7b2eb6d24bf0c42910e91deb05cc2209672b4b86f3d82d3e19",
      "v": 27,
      "creates": null,
      "raw": "0xf86e01850db281614783015f909400c865a16ed3c930dd70b642507639d199c621808910b25bd02564500000801ba0a3d90d908ef07807b47c9c1fc0d205c2672e158a959e58fdb0b0acdd294e3073a01f820e0935447e7b2eb6d24bf0c42910e91deb05cc2209672b4b86f3d82d3e19",
      "networkId": 0,
      "chainId": 0
    }
  ]
}