{
  "hash": "0x3354e8529e87bf770b30c58163c5beb314be76a9f4367ae0cc7897bbc4bef0f7",
  "parentHash": "0xed1eaf312742b460f3c04aa3560512b23041d0a83c6436f1442a550391ed39ce",
  "number": 81276,
  "timestamp": 1439499008,
  "nonce": "0x7c6a389747e98959",
  "difficulty": 2452229545508,
  "gasLimit": {
    "_hex": "0x2fefd8"
  },
  "gasUsed": {
    "_hex": "0xa410"
  },
  "miner": "0xe6A7a1d47ff21B6321162AEA7C6CB457D5476Bca",
  "extraData": "0x476574682f76312e302e312d38326566323666362f6c696e75782f676f312e34",
  "transactions": [
    {
      "hash": "0xcdc12f38bb5a1652e86c550d340acefac048685f7d94b558a16ebb44c7a5a351",
      "blockHash": "0x3354e8529e87bf770b30c58163c5beb314be76a9f4367ae0cc7897bbc4bef0f7",
      "blockNumber": 81276,
      "transactionIndex": 0,
      "confirmations": null,
      "from": "0x6eBEEa825E149acDc0ca02eA5B51699EDDb9Cde3",
      "gasPrice": {
        "_hex": "0xdc4ad83e8"
      },
      "gasLimit": {
        "_hex": "0x5208"
      },
      "to": "0x32Be343B94f860124dC4fEe278FDCBD38C102D88",
      "value": {
        "_hex": "0x30bc0b615769ee0000"
      },
      "nonce": 0,
      "data": "0x",
      "r": "0xedce55e5bcce35feade30b84f2fbd5f649a764617a599e1aebdf0a53df8c2716",
      "s": "0x5a63e519014bee3b19ab790a7f8d4a29669ca542d6d41dba79656ec718a33ac3",
      "v": 27,
      "creates": null,
      "raw": "0xf86d80850dc4ad83e88252089432be343b94f860124dc4fee278fdcbd38c102d888930bc0b615769ee0000801ba0edce55e5bcce35feade30b84f2fbd5f649a764617a599e1aebdf0a53df8c2716a05a63e519014bee3b19ab790a7f8d4a29669ca542d6d41dba79656ec718a33ac3",
      "networkId": 0,
      "chainId": 0
    },
    {
      "hash": "0xd017610cc3fd3bd3639babaac87e855c6f6062d71e76153f94e4aae4d92beb66",
      "blockHash": "0x3354e8529e87bf770b30c58163c5beb314be76a9f4367ae0cc7897bbc4bef0f7",
      "blockNumber": 81276,
      "transactionIndex": 1,
      "confirmations": null,
      "from": "0x2910543Af39abA0Cd09dBb2D50200b3E800A63D2",
      "gasPrice": {
        "_hex": "0xdc4783867"
      },
      "gasLimit": {
        "_hex": "0x5208"
      },
      "to": "0xC887EBd9F4498FeE41153EbCAe11Bc2EfB8d7150",
      "value": {
        "_hex": "0x37f5a59c77245c2000"
      },
      "nonce": 462,
      "data": "0x",
      "r": "0x0d4e661642c833c774862ca31553a6c36c31ef253cf697c8be9d24d0c8d9992f",
      "s": "0x74ef405ed0a978b4ba0ca91b035abca763a6a77d63278e839f8047ac4b9debdd",
      "v": 28,
      "creates": null,
      "raw": "0xf86f8201ce850dc478386782520894c887ebd9f4498fee41153ebcae11bc2efb8d71508937f5a59c77245c2000801ca00d4e661642c833c774862ca31553a6c36c31ef253cf697c8be9d24d0c8d9992fa074ef405ed0a978b4ba0ca91b035abca763a6a77d63278e839f8047ac4b9debdd",
      "networkId": 0,
      "chainId": 0
    }
  ]
}