{
  "hash": "0x38b89e90342a6c035b4e8a89989593c6b035e3852b4321f066123382695d3609",
  "parentHash": "0x6db405921e558760285550d230dd359a89a26e55976cefad7f1c38bd1d961dd4",
  "number": 80628,
  "timestamp": 1439488265,
  "nonce": "0x01db470a2aba226a",
  "difficulty": 2430958961214,
  "gasLimit": {
    "_hex": "0x2fefd8"
  },
  "gasUsed": {
    "_hex": "0x5208"
  },
  "miner": "0xf8E0CA3Ed80bd541b94BEdCf259e8CF2141A9523",
  "extraData": "0x476574682f76312e302e312f77696e646f77732f676f312e342e32",
  "transactions": [
    {
      "hash": "0xbf62436926e977f62b1166cb74d4919f755696dc89dc5d342646e56fbcfc2aab",
      "blockHash": "0x38b89e90342a6c035b4e8a89989593c6b035e3852b4321f066123382695d3609",
      "blockNumber": 80628,
      "transactionIndex": 0,
      "confirmations": null,
      "from": "0x32Be343B94f860124dC4fEe278FDCBD38C102D88",
      "gasPrice": {
        "_hex": "0xe1bc386fc"
      },
      "gasLimit": {
        "_hex": "0x5208"
      },
      "to": "0x8BdB732318A05BCf3B490c142c90beC03836Fe57",
      "value": {
        "_hex": "0xdbd2fc137a30000"
      },
      "nonce": 545,
      "data": "0x",
      "r": "0xf387d9e7042bbf8b5c9422b6c55096536bfe3d3053ac19a087694485be3a4267",
      "s": "0x3723e38ea0eb71ab7028cfe6189ae30417ffeeffc8ee013920fca11ddca78cd3",
      "v": 28,
      "creates": null,
      "raw": "0xf86e820221850e1bc386fc825208948bdb732318a05bcf3b490c142c90bec03836fe57880dbd2fc137a30000801ca0f387d9e7042bbf8b5c9422b6c55096536bfe3d3053ac19a087694485be3a4267a03723e38ea0eb71ab7028cfe6189ae30417ffeeffc8ee013920fca11ddca78cd3",
      "networkId": 0,
      "chainId": 0
    }
  ]
}