{
  "hash": "0x103c414dd7dcec6d83a9411efc4dac1e3c380e8aa8fb37752fb56c1ac302e412",
  "parentHash": "0x613903866d82386ad38717d36b57f0004f860e52b07d88a0ee563904029fa45f",
  "number": 94239,
  "timestamp": 1439704885,
  "nonce": "0x066cdc33878a5469",
  "difficulty": 3471453701865,
  "gasLimit": {
    "_hex": "0x2fefd8"
  },
  "gasUsed": {
    "_hex": "0x5208"
  },
  "miner": "0x157c6f2431eB1a95797EE86F7d17b3c0FD47A247",
  "extraData": "0x476574682f76312e302e312f77696e646f77732f676f312e342e32",
  "transactions": [
    {
      "hash": "0x775e5acf13698e0a8cf791831a4135a32d5196c0cdf250baa4c60d4f3f073095",
      "blockHash": "0x103c414dd7dcec6d83a9411efc4dac1e3c380e8aa8fb37752fb56c1ac302e412",
      "blockNumber": 94239,
      "transactionIndex": 0,
      "confirmations": null,
      "from": "0x32Be343B94f860124dC4fEe278FDCBD38C102D88",
      "gasPrice": {
        "_hex": "0xcfb02298e"
      },
      "gasLimit": {
        "_hex": "0x5208"
      },
      "to": "0xed433C980AaED4E749B3229F3993BfB2840f2433",
      "value": {
        "_hex": "0x22af9051fb7df0000"
      },
      "nonce": 948,
      "data": "0x",
      "r": "0xc9aaf7f1c96042dac8734be986d96a977cd5cafee409f4385ad10b0916a490b7",
      "s": "0x199ce9ed60d08b7ef4fce2fef9621b0f6143653026f579b274cf755044a50019",
      "v": 27,
      "creates": null,
      "raw": "0xf86f8203b4850cfb02298e82520894ed433c980aaed4e749b3229f3993bfb2840f243389022af9051fb7df0000801ba0c9aaf7f1c96042dac8734be986d96a977cd5cafee409f4385ad10b0916a490b7a0199ce9ed60d08b7ef4fce2fef9621b0f6143653026f579b274cf755044a50019",
      "networkId": 0,
      "chainId": 0
    }
  ]
}