{
  "hash": "0x43cf925f00f980e915c85c210054f490add18ae23821a87f5c398d21eb6462cf",
  "parentHash": "0x2177dbfb54b92c6cbd8e0daca8996ece733012739545c71894fd4af1156389a0",
  "number": 85206,
  "timestamp": 1439560026,
  "nonce": "0xa2261d81f063e430",
  "difficulty": 2747762538891,
  "gasLimit": {
    "_hex": "0x2fefd8"
  },
  "gasUsed": {
    "_hex": "0xa410"
  },
  "miner": "0xbb7B8287f3F0a933474a79eAe42CBCa977791171",
  "extraData": "0x476574682f4c5649562f76312e302e312f6c696e75782f676f312e342e32",
  "transactions": [
    {
      "hash": "0x7274c5f0c02174660a8ad102532a122143e2e5555673d528a60ecf5d3afb2d72",
      "blockHash": "0x43cf925f00f980e915c85c210054f490add18ae23821a87f5c398d21eb6462cf",
      "blockNumber": 85206,
      "transactionIndex": 0,
      "confirmations": null,
      "from": "0x2cb5495a505336c2465410d1cae095b8e1Ba5CDd",
      "gasPrice": {
        "_hex": "0x10636d5fab3"
      },
      "gasLimit": {
        "_hex": "0x15f90"
      },
      "to": "0x7Fe1431454CeFEb2c76098586817aF697748fcE1",
      "value": {
        "_hex": "0x3635c9adc5dea00000"
      },
      "nonce": 5,
      "data": "0x",
      "r": "0x4372f4a8de28434c101bcaf4aa653ba7c6ef7e4eac395868d70fdaf40fee686d",
      "s": "0x72a1c765da95cab2075151182160f5a0a2218cab24555b6b4aec79a013a8a775",
      "v": 27,
      "creates": null,
      "raw": "0xf86f0586010636d5fab383015f90947fe1431454cefeb2c76098586817af697748fce1893635c9adc5dea00000801ba04372f4a8de28434c101bcaf4aa653ba7c6ef7e4eac395868d70fdaf40fee686da072a1c765da95cab2075151182160f5a0a2218cab24555b6b4aec79a013a8a775",
      "networkId": 0,
      "chainId": 0
    },
    {
      "hash": "0xbb5f79f18666944961e45150ca1336926954c798622170d2fa7cf07717bcc73b",
      "blockHash": "0x43cf925f00f980e915c85c210054f490add18ae23821a87f5c398d21eb6462cf",
      "blockNumber": 85206,
      "transactionIndex": 1,
      "confirmations": null,
      "from": "0x2910543Af39abA0Cd09dBb2D50200b3E800A63D2",
      "gasPrice": {
        "_hex": "0xd6dcb53e2"
      },
      "gasLimit": {
        "_hex": "0x5208"
      },
      "to": "0x2f86ba8019945f39edE131D38d4d8780884DA553",
      "value": {
        "_hex": "0x3635b7ea4ca6bf8000"
      },
      "nonce": 594,
      "data": "0x",
      "r": "0x25b369678e026cc0d23d4e0f9dbadd4ccd639fa7cd837cb24ced93d3f02ec26e",
      "s": "0x4e3043247faf811a9393fb1e72a913dac1e07e8633c5dbdf5f01e0ce0dd075ac",
      "v": 27,
      "creates": null,
      "raw": "0xf86f820252850d6dcb53e2825208942f86ba8019945f39ede131d38d4d8780884da553893635b7ea4ca6bf8000801ba025b369678e026cc0d23d4e0f9dbadd4ccd639fa7cd837cb24ced93d3f02ec26ea04e3043247faf811a9393fb1e72a913dac1e07e8633c5dbdf5f01e0ce0dd075ac",
      "networkId": 0,
      "chainId": 0
    }
  ]
}