{
  "hash": "0x3d3d0ec5cefdb4d11ad7be1806bc9577c932d825abd4b375a3a9b8ec47e6e95c",
  "parentHash": "0x45d5257f29bb63b794b225ca3c80759e9b6973d178a765ca3c89e881de28ce61",
  "number": 71321,
  "timestamp": 1439334174,
  "nonce": "0x46fda0b0fde6b7ff",
  "difficulty": 2165596984349,
  "gasLimit": {
    "_hex": "0x2fefd8"
  },
  "gasUsed": {
    "_hex": "0xa410"
  },
  "miner": "0xe6A7a1d47ff21B6321162AEA7C6CB457D5476Bca",
  "extraData": "0x476574682f76312e302e312d38326566323666362f6c696e75782f676f312e34",
  "transactions": [
    {
      "hash": "0xb5c169e6e6080011138cf63c637219dc4a6bdb8068c0abca9c94ca033b65bf62",
      "blockHash": "0x3d3d0ec5cefdb4d11ad7be1806bc9577c932d825abd4b375a3a9b8ec47e6e95c",
      "blockNumber": 71321,
      "transactionIndex": 0,
      "confirmations": null,
      "from": "0x72907bC54bB4C0797c238CDD6DA2A2522A8A63f4",
      "gasPrice": {
        "_hex": "0xd81076b43"
      },
      "gasLimit": {
        "_hex": "0x5208"
      },
      "to": "0x32Be343B94f860124dC4fEe278FDCBD38C102D88",
      "value": {
        "_hex": "0xddc62f24219c400"
      },
      "nonce": 0,
      "data": "0x",
      "r": "0x71d73bacf87c19c70034f9676edf4d935aa009145f8c96febd2f1a9578db14fa",
      "s": "0x2951d59a734cb394404e036fcd3b1e11b09ea0360f2f28efba46b6c91a93927d",
      "v": 28,
      "creates": null,
      "raw": "0xf86c80850d81076b438252089432be343b94f860124dc4fee278fdcbd38c102d88880ddc62f24219c400801ca071d73bacf87c19c70034f9676edf4d935aa009145f8c96febd2f1a9578db14faa02951d59a734cb394404e036fcd3b1e11b09ea0360f2f28efba46b6c91a93927d",
      "networkId": 0,
      "chainId": 0
    },
    {
      "hash": "0xca3870221cd6e81af3ea7763ccf1b038de4941598c8b426c9936c074b1e9be88",
      "blockHash": "0x3d3d0ec5cefdb4d11ad7be1806bc9577c932d825abd4b375a3a9b8ec47e6e95c",
      "blockNumber": 71321,
      "transactionIndex": 1,
      "confirmations": null,
      "from": "0x4c74B6F32c9680aCB5Fe0e72B7Aa95C612540A04",
      "gasPrice": {
        "_hex": "0xd81076b43"
      },
      "gasLimit": {
        "_hex": "0x5208"
      },
      "to": "0x32Be343B94f860124dC4fEe278FDCBD38C102D88",
      "value": {
        "_hex": "0x56bc2ffc7df6dc000"
      },
      "nonce": 16,
      "data": "0x",
      "r": "0x6a5be755b0ec4647ea21757bd951e83ea13aba42b6c2254c06440da898aa26c4",
      "s": "0x78aa48b000901935041d95ce628c0906d4ab640c7ca1164aedae7705d2241a2a",
      "v": 28,
      "creates": null,
      "raw": "0xf86d10850d81076b438252089432be343b94f860124dc4fee278fdcbd38c102d8889056bc2ffc7df6dc000801ca06a5be755b0ec4647ea21757bd951e83ea13aba42b6c2254c06440da898aa26c4a078aa48b000901935041d95ce628c0906d4ab640c7ca1164aedae7705d2241a2a",
      "networkId": 0,
      "chainId": 0
    }
  ]
}