{
  "hash": "0x4e320974165daf242b14dc472fe50864b62853838e6a21e4729b694a2705c12a",
  "parentHash": "0x1de57bdc722595c21a53898ab5eb710eff51e11a91905c2b61db86562afc5277",
  "number": 95197,
  "timestamp": 1439720432,
  "nonce": "0xfc2f0199248465a7",
  "difficulty": 3532611377184,
  "gasLimit": {
    "_hex": "0x2fefd8"
  },
  "gasUsed": {
    "_hex": "0x5208"
  },
  "miner": "0x64DcD9c2733262031AbFE744614d9Ed5AEDb0EFB",
  "extraData": "0x476574682f76312e302e312f6c696e75782f676f312e342e32",
  "transactions": [
    {
      "hash": "0x4974738009426874c421d769e0d9a2e1af078cd7d8762c07e3cb6d6717a16a37",
      "blockHash": "0x4e320974165daf242b14dc472fe50864b62853838e6a21e4729b694a2705c12a",
      "blockNumber": 95197,
      "transactionIndex": 0,
      "confirmations": null,
      "from": "0x32Be343B94f860124dC4fEe278FDCBD38C102D88",
      "gasPrice": {
        "_hex": "0xd143aac92"
      },
      "gasLimit": {
        "_hex": "0x5208"
      },
      "to": "0x4320e8dCA0a42083Ab538B27fA9A1dd174b2dCE8",
      "value": {
        "_hex": "0x579848dee9ab30000"
      },
      "nonce": 977,
      "data": "0x",
      "r": "0xe1389b23b7df7f382f1fcb320e68cf1bd9de913dc21b1ef3692ec1f2ef231133",
      "s": "0x4417bcacde08b60e60821d19ca9eee152908a86bee19c19fe18d83a7593ac972",
      "v": 28,
      "creates": null,
      "raw": "0xf86f8203d1850d143aac92825208944320e8dca0a42083ab538b27fa9a1dd174b2dce8890579848dee9ab30000801ca0e1389b23b7df7f382f1fcb320e68cf1bd9de913dc21b1ef3692ec1f2ef231133a04417bcacde08b60e60821d19ca9eee152908a86bee19c19fe18d83a7593ac972",
      "networkId": 0,
      "chainId": 0
    }
  ]
}