{
  "hash": "0x7bf4fed9398879005242c2e5c431fca0a17a3d004b7fdb3cd4f54efe36d5a693",
  "parentHash": "0x826bd8855e0046623a3252fba9bf6a0fcfb42762c517d2954c10577b7dc2f710",
  "number": 90006,
  "timestamp": 1439632478,
  "nonce": "0xc15e61336737d584",
  "difficulty": 3354860138181,
  "gasLimit": {
    "_hex": "0x2fefd8"
  },
  "gasUsed": {
    "_hex": "0x14820"
  },
  "miner": "0xe6A7a1d47ff21B6321162AEA7C6CB457D5476Bca",
  "extraData": "0x476574682f76312e302e312d38326566323666362f6c696e75782f676f312e34",
  "transactions": [
    {
      "hash": "0x8b7ad9f8f1775b8108492110e03129d46f07a7d2cba97865a13fb90351928054",
      "blockHash": "0x7bf4fed9398879005242c2e5c431fca0a17a3d004b7fdb3cd4f54efe36d5a693",
      "blockNumber": 90006,
      "transactionIndex": 0,
      "confirmations": null,
      "from": "0x2910543Af39abA0Cd09dBb2D50200b3E800A63D2",
      "gasPrice": {
        "_hex": "0xda305e201"
      },
      "gasLimit": {
        "_hex": "0x5208"
      },
      "to": "0x5a0f0935E8E5591B2f9f2d55f29C626B50292088",
      "value": {
        "_hex": "0x2b5d1eb9d79a78000"
      },
      "nonce": 772,
      "data": "0x",
      "r": "0xa8f7237632eefaab3e78bcf445e9124619437d2e7355c9059708411de2e5a9cd",
      "s": "0x3b7d82d184b1daa910f9462b34d63be39b4e46e6d7c5953210b00adbaee065cf",
      "v": 27,
      "creates": null,
      "raw": "0xf86f820304850da305e201825208945a0f0935e8e5591b2f9f2d55f29c626b502920888902b5d1eb9d79a78000801ba0a8f7237632eefaab3e78bcf445e9124619437d2e7355c9059708411de2e5a9cda03b7d82d184b1daa910f9462b34d63be39b4e46e6d7c5953210b00adbaee065cf",
      "networkId": 0,
      "chainId": 0
    },
    {
      "hash": "0xafdc53e8e3e6f04e27ce3f4ee1d61f596dd0e9b83e87a4e92a6cce958ff097cb",
      "blockHash": "0x7bf4fed9398879005242c2e5c431fca0a17a3d004b7fdb3cd4f54efe36d5a693",
      "blockNumber": 90006,
      "transactionIndex": 1,
      "confirmations": null,
      "from": "0x9943C02b44B13e025fc0B938790F5d336BD920f9",
      "gasPrice": {
        "_hex": "0xcd01555c5"
      },
      "gasLimit": {
        "_hex": "0x15f90"
      },
      "to": "0x23f2D0fd3B4C98Fb1698564deB4898275E2e831f",
      "value": {
        "_hex": "0x45400a8fd5330000"
      },
      "nonce": 3,
      "data": "0x",
      "r": "0xc758663549669c84f38a1a13d5aaee562342a7c76ae97d8ede0ed579ffb2d569",
      "s": "0x557cad40902c155e958732e0c77b5e7414957ae54ef48e2a149ccf8e1dcf8c7f",
      "v": 28,
      "creates": null,
      "raw": "0xf86d03850cd01555c583015f909423f2d0fd3b4c98fb1698564deb4898275e2e831f8845400a8fd5330000801ca0c758663549669c84f38a1a13d5aaee562342a7c76ae97d8ede0ed579ffb2d569a0557cad40902c155e958732e0c77b5e7414957ae54ef48e2a149ccf8e1dcf8c7f",
      "networkId": 0,
      "chainId": 0
    },
    {
      "hash": "0x1dcabf8fedc8f57117b5f6782542c94b3c1ba15ca4ff5f1a963c2008314be539",
      "blockHash": "0x7bf4fed9398879005242c2e5c431fca0a17a3d004b7fdb3cd4f54efe36d5a693",
      "blockNumber": 90006,
      "transactionIndex": 2,
      "confirmations": null,
      "from": "0x108feDb097c1DCfED441480170144D8e19BB217f",
      "gasPrice": {
        "_hex": "0xcbecc8669"
      },
      "gasLimit": {
        "_hex": "0x5208"
      },
      "to": "0x32Be343B94f860124dC4fEe278FDCBD38C102D88",
      "value": {
        "_hex": "0x298334b075d62c00"
      },
      "nonce": 2,
      "data": "0x",
      "r": "0x0da7a10eff7a9dd1be7dfc9493bd4f9c537bcd74c2cc5b30c3673975fe64b2c9",
      "s": "0x57d6bedd29ef22db24b5785628af6214b51c431299edbe1de88a11dd027a75b4",
      "v": 27,
      "creates": null,
      "raw": "0xf86c02850cbecc86698252089432be343b94f860124dc4fee278fdcbd38c102d8888298334b075d62c00801ba00da7a10eff7a9dd1be7dfc9493bd4f9c537bcd74c2cc5b30c3673975fe64b2c9a057d6bedd29ef22db24b5785628af6214b51c431299edbe1de88a11dd027a75b4",
      "networkId": 0,
      "chainId": 0
    },
    {
      "hash": "0x1d4f8743157c873d68ffe8be27d899dcbdd55d5e81bef133918fa9f75e2b40f6",
      "blockHash": "0x7bf4fed9398879005242c2e5c431fca0a17a3d004b7fdb3cd4f54efe36d5a693",
      "blockNumber": 90006,
      "transactionIndex": 3,
      "confirmations": null,
      "from": "0xFD7c9117BbEB649d9b37B3D3C9917f7c12f526B3",
      "gasPrice": {
        "_hex": "0xcbecc8669"
      },
      "gasLimit": {
        "_hex": "0x5208"
      },
      "to": "0x32Be343B94f860124dC4fEe278FDCBD38C102D88",
      "value": {
        "_hex": "0x2b6d924d462a760000"
      },
      "nonce": 21,
      "data": "0x",
      "r": "0x541d01d4ac934da709e359817677d4c82ca1d25736fa06b2fcc8d43c5dec694c",
      "s": "0x028a543899b17c0f2be054794b04a45a0b1e4fc18ce81c8ca1b931c26cc5d6e5",
      "v": 28,
      "creates": null,
      "raw": "0xf86d15850cbecc86698252089432be343b94f860124dc4fee278fdcbd38c102d88892b6d924d462a760000801ca0541d01d4ac934da709e359817677d4c82ca1d25736fa06b2fcc8d43c5dec694ca0028a543899b17c0f2be054794b04a45a0b1e4fc18ce81c8ca1b931c26cc5d6e5",
      "networkId": 0,
      "chainId": 0
    }
  ]
}