{
  "hash": "0x5d60ad8f8491a29c0c4ff0a67afad1a834b776f693f969de125e9bd74f530cd1",
  "parentHash": "0x953d67e438993d013babcac1af29cb6af25f2f1d7520607a26c97066b8ad0c18",
  "number": 83764,
  "timestamp": 1439540531,
  "nonce": "0x8d5023b879bc25d2",
  "difficulty": 2441944837239,
  "gasLimit": {
    "_hex": "0x2fefd8"
  },
  "gasUsed": {
    "_hex": "0xa410"
  },
  "miner": "0xF9df7dCaA26C039BD675B008D4991b34717E0703",
  "extraData": "0x",
  "transactions": [
    {
      "hash": "0xce6df9682ab978dca5a9944043282744fff10c59c0bd68e6cf6d4cbf5aef6675",
      "blockHash": "0x5d60ad8f8491a29c0c4ff0a67afad1a834b776f693f969de125e9bd74f530cd1",
      "blockNumber": 83764,
      "transactionIndex": 0,
      "confirmations": null,
      "from": "0xd97FDBc4B51136F7381A02c672E73247F5D6927c",
      "gasPrice": {
        "_hex": "0xde43d34f4"
      },
      "gasLimit": {
        "_hex": "0x5208"
      },
      "to": "0x32Be343B94f860124dC4fEe278FDCBD38C102D88",
      "value": {
        "_hex": "0xddc4328d3c40800"
      },
      "nonce": 1,
      "data": "0x",
      "r": "0x2ba6ed92d40c0d18830eebe6ad21ecef12a8fe0c866a810eb984d7b55f2a1f19",
      "s": "0x1f673be8080573eaadd802b0a03946f4fc892306e13379ed6f63ab653c5b336e",
      "v": 27,
      "creates": null,
      "raw": "0xf86c01850de43d34f48252089432be343b94f860124dc4fee278fdcbd38c102d88880ddc4328d3c40800801ba02ba6ed92d40c0d18830eebe6ad21ecef12a8fe0c866a810eb984d7b55f2a1f19a01f673be8080573eaadd802b0a03946f4fc892306e13379ed6f63ab653c5b336e",
      "networkId": 0,
      "chainId": 0
    },
    {
      "hash": "0xf9d49e0ef634da0a36fd9493d75047199af7d27b1d131c6d4dadadcfefe951b4",
      "blockHash": "0x5d60ad8f8491a29c0c4ff0a67afad1a834b776f693f969de125e9bd74f530cd1",
      "blockNumber": 83764,
      "transactionIndex": 1,
      "confirmations": null,
      "from": "0x6d921977dEFE5f4e0682CA512De1D07b1f4802E1",
      "gasPrice": {
        "_hex": "0xde43d34f4"
      },
      "gasLimit": {
        "_hex": "0x5208"
      },
      "to": "0x32Be343B94f860124dC4fEe278FDCBD38C102D88",
      "value": {
        "_hex": "0x8ac2af79b6480800"
      },
      "nonce": 15,
      "data": "0x",
      "r": "0x7c3fe77077740c3624f02b7c98a5096ba09f3eac0a834c04ea7be7743d78cb32",
      "s": "0x436cc065ba863b69b6ba5fbb71a8d260171f634624a8611cc86632ad780cb347",
      "v": 28,
      "creates": null,
      "raw": "0xf86c0f850de43d34f48252089432be343b94f860124dc4fee278fdcbd38c102d88888ac2af79b6480800801ca07c3fe77077740c3624f02b7c98a5096ba09f3eac0a834c04ea7be7743d78cb32a0436cc065ba863b69b6ba5fbb71a8d260171f634624a8611cc86632ad780cb347",
      "networkId": 0,
      "chainId": 0
    }
  ]
}