{
  "hash": "0xaea788e42b302cb5f59676d77b2b592600265792768c3136c4566bd87098ed2e",
  "parentHash": "0xdd4cae7bd317f3f5e0d7230b6624cd9e87f86e7137dbe9a1102a7e3a4dfa5db7",
  "number": 48703,
  "timestamp": 1438961424,
  "nonce": "0xf45de224b93c0fb8",
  "difficulty": 1475022969595,
  "gasLimit": {
    "_hex": "0x1c669"
  },
  "gasUsed": {
    "_hex": "0x546c"
  },
  "miner": "0xC6Bf5B6558f2eE21F2E43d9fF9B5408A0Cb89413",
  "extraData": "0x476574682f76312e302e312f6c696e75782f676f312e342e32",
  "transactions": [
    {
      "hash": "0x387fc483e6d0c2711b42391922916c18551257e7e4bd3346dbfb26806218de6b",
      "blockHash": "0xaea788e42b302cb5f59676d77b2b592600265792768c3136c4566bd87098ed2e",
      "blockNumber": 48703,
      "transactionIndex": 0,
      "confirmations": null,
      "from": "0x51d8782D82258441078E57141Daa8FFdDAf8f57D",
      "gasPrice": {
        "_hex": "0xe854c24fa"
      },
      "gasLimit": {
        "_hex": "0x15f90"
      },
      "to": "0x2910543Af39abA0Cd09dBb2D50200b3E800A63D2",
      "value": {
        "_hex": "0x15af1d78b58c40000"
      },
      "nonce": 1,
      "data": "0x454e3343585a563847",
      "r": "0x6f1a931bdb37b18e607022f4f02dfe469072d215d7959a903ef49459d90c2ad4",
      "s": "0x0b82198cc1603ea93256af5ba4d9494d06bf2e5eb962ceb795530514d1071059",
      "v": 28,
      "creates": null,
      "raw": "0xf87701850e854c24fa83015f90942910543af39aba0cd09dbb2d50200b3e800a63d289015af1d78b58c4000089454e3343585a5638471ca06f1a931bdb37b18e607022f4f02dfe469072d215d7959a903ef49459d90c2ad4a00b82198cc1603ea93256af5ba4d9494d06bf2e5eb962ceb795530514d1071059",
      "networkId": 0,
      "chainId": 0
    }
  ]
}