{
  "hash": "0x19d85131270e3a15ae53e2dd335d6af358b9fc43b26e86dfc7716dc1a2c3e5c1",
  "parentHash": "0x763d6f98ad711683bd5766654483d8728327df50b35090fc462a0b7c8af81a42",
  "number": 63984,
  "timestamp": 1439213525,
  "nonce": "0xe43a2f7d0fbf0e48",
  "difficulty": 1845824685264,
  "gasLimit": {
    "_hex": "0x2fefd8"
  },
  "gasUsed": {
    "_hex": "0x10bd6"
  },
  "miner": "0xa50ec0D39fa913E62f1Bae7074E6F36caA71855b",
  "extraData": "0x",
  "transactions": [
    {
      "hash": "0xe136c82cb01b213d93b49d4d897958819750f82d3b26a2b05e1d6ccddc094b41",
      "blockHash": "0x19d85131270e3a15ae53e2dd335d6af358b9fc43b26e86dfc7716dc1a2c3e5c1",
      "blockNumber": 63984,
      "transactionIndex": 0,
      "confirmations": null,
      "from": "0xc70bA22fe446A85A247bf85BaD1AdDf3ddaF62E9",
      "gasPrice": {
        "_hex": "0xd591d7f02"
      },
      "gasLimit": {
        "_hex": "0x15f90"
      },
      "to": "0x7320f8461BbC8104c677FeC0429cC0d963a5Ac40",
      "value": {
        "_hex": "0x0"
      },
      "nonce": 23,
      "data": "0x0a3b0a4f00000000000000000000000073c8b87d1cd7f1fc41d33096d1a150b2d457bfeb",
      "r": "0xf5d43ccdecd293041ad412a48ed2cb00c084031247c00eaee59fda095e35a020",
      "s": "0x4ad8ab673bed8cfa85e9eaa8f020ac97d6965df13beb49666eb6109a28ea464b",
      "v": 28,
      "creates": null,
      "raw": "0xf88917850d591d7f0283015f90947320f8461bbc8104c677fec0429cc0d963a5ac4080a40a3b0a4f00000000000000000000000073c8b87d1cd7f1fc41d33096d1a150b2d457bfeb1ca0f5d43ccdecd293041ad412a48ed2cb00c084031247c00eaee59fda095e35a020a04ad8ab673bed8cfa85e9eaa8f020ac97d6965df13beb49666eb6109a28ea464b",
      "networkId": 0,
      "chainId": 0
    }
  ]
}