{
  "hash": "0xc84d55db48049b4f71d9abd4c9556927e33bed4dc73f320ac9c7702c7f22c878",
  "parentHash": "0xb3dd3c2d1fb48ebae7f229f6d409762a8dc7fa8bc7915e178601c7b2ceaa99cd",
  "number": 84354,
  "timestamp": 1439548575,
  "nonce": "0xffe834a7916b535a",
  "difficulty": 2536563959300,
  "gasLimit": {
    "_hex": "0x2fefd8"
  },
  "gasUsed": {
    "_hex": "0x5208"
  },
  "miner": "0x9D49F602b0fdb924Bd63DDE2Bd0907E4A07c63a7",
  "extraData": "0x476574682f76312e302e312f6c696e75782f676f312e342e32",
  "transactions": [
    {
      "hash": "0xb68c9ccb3888a9cc273cd07f00db28170066e74beca44c6b820602e65a05e97a",
      "blockHash": "0xc84d55db48049b4f71d9abd4c9556927e33bed4dc73f320ac9c7702c7f22c878",
      "blockNumber": 84354,
      "transactionIndex": 0,
      "confirmations": null,
      "from": "0xF9634a7Ee627EeF74f4d803113CD4F87E5162079",
      "gasPrice": {
        "_hex": "0xba43b7400"
      },
      "gasLimit": {
        "_hex": "0x5b04"
      },
      "to": "0x9f78552704fe7e52cC7C3853534aA2C3cf580D54",
      "value": {
        "_hex": "0xcd64299613c80000"
      },
      "nonce": 4,
      "data": "0x",
      "r": "0x7fba85f4016746df71e64314f81e94f648eec5d0769785ff01bd08d5ef613bad",
      "s": "0x9d1288fa03eeb9dc57ad95730b50ad8f70ec4f44c857ac7a303b6fcfaca55551",
      "v": 28,
      "creates": null,
      "raw": "0xf86c04850ba43b7400825b04949f78552704fe7e52cc7c3853534aa2c3cf580d5488cd64299613c80000801ca07fba85f4016746df71e64314f81e94f648eec5d0769785ff01bd08d5ef613bada09d1288fa03eeb9dc57ad95730b50ad8f70ec4f44c857ac7a303b6fcfaca55551",
      "networkId": 0,
      "chainId": 0
    }
  ]
}