{
  "hash": "0x99106c12ad22f2dd15ca7a09257eb9ebae4b97480fa4543f5ef4541ed026d0fe",
  "parentHash": "0x70f10775811fbc058c05a3e97dc737521aec580090629a681f69e77180293f99",
  "number": 71075,
  "timestamp": 1439330199,
  "nonce": "0x4068ceb7cf6e5652",
  "difficulty": 2153008178054,
  "gasLimit": {
    "_hex": "0x2fefd8"
  },
  "gasUsed": {
    "_hex": "0x28ceb"
  },
  "miner": "0xf8E0CA3Ed80bd541b94BEdCf259e8CF2141A9523",
  "extraData": "0x476574682f76312e302e312f77696e646f77732f676f312e342e32",
  "transactions": [
    {
      "hash": "0x2bcc277105733458cb7dcdb25871cd441a62fd39cf78e1a830c996604ba107d7",
      "blockHash": "0x99106c12ad22f2dd15ca7a09257eb9ebae4b97480fa4543f5ef4541ed026d0fe",
      "blockNumber": 71075,
      "transactionIndex": 0,
      "confirmations": null,
      "from": "0x17580B766f7453525ca4C6A88b01b50570EA088C",
      "gasPrice": {
        "_hex": "0xd9a84136c"
      },
      "gasLimit": {
        "_hex": "0x61a80"
      },
      "to": "0x5Fe5B7546D1628f7348B023A0393de1FC825A4fD",
      "value": {
        "_hex": "0x8ac7230489e80000"
      },
      "nonce": 109,
      "data": "0xb595b8b50000000000000000000000000000000000000000000000000000000000000000",
      "r": "0xe9e32566c27a35aa8fb83c6c298241ec4a599c6092f721ff3b0b67851de41566",
      "s": "0x1561a6e3c46aad6a7c0119b3929314555c511b8249c37efb01f06f6133ae2746",
      "v": 27,
      "creates": null,
      "raw": "0xf8916d850d9a84136c83061a80945fe5b7546d1628f7348b023a0393de1fc825a4fd888ac7230489e80000a4b595b8b500000000000000000000000000000000000000000000000000000000000000001ba0e9e32566c27a35aa8fb83c6c298241ec4a599c6092f721ff3b0b67851de41566a01561a6e3c46aad6a7c0119b3929314555c511b8249c37efb01f06f6133ae2746",
      "networkId": 0,
      "chainId": 0
    },
    {
      "hash": "0x37d1bf23a764be472637450667ba55a6e3fe64f9f13c20a5a99914435ee2ee8b",
      "blockHash": "0x99106c12ad22f2dd15ca7a09257eb9ebae4b97480fa4543f5ef4541ed026d0fe",
      "blockNumber": 71075,
      "transactionIndex": 1,
      "confirmations": null,
      "from": "0x17580B766f7453525ca4C6A88b01b50570EA088C",
      "gasPrice": {
        "_hex": "0xd9a84136c"
      },
      "gasLimit": {
        "_hex": "0x61a80"
      },
      "to": "0x5Fe5B7546D1628f7348B023A0393de1FC825A4fD",
      "value": {
        "_hex": "0x8ac7230489e80000"
      },
      "nonce": 110,
      "data": "0xb595b8b50000000000000000000000000000000000000000000000000000000000000000",
      "r": "0x2a19fd8544ac44add283b5e7bea306543ea1eac1d1424fd2f9ae5439dd1f54a1",
      "s": "0x5f992caa33304ed0b3e75a9eae4c657d7eb52cb810bd46fb7dfa78e5b19fbc93",
      "v": 27,
      "creates": null,
      "raw": "0xf8916e850d9a84136c83061a80945fe5b7546d1628f7348b023a0393de1fc825a4fd888ac7230489e80000a4b595b8b500000000000000000000000000000000000000000000000000000000000000001ba02a19fd8544ac44add283b5e7bea306543ea1eac1d1424fd2f9ae5439dd1f54a1a05f992caa33304ed0b3e75a9eae4c657d7eb52cb810bd46fb7dfa78e5b19fbc93",
      "networkId": 0,
      "chainId": 0
    },
    {
      "hash": "0x1ce6783b42d725022ff3f2a745d4055d73a65b5309819fc3b85b442ad3529922",
      "blockHash": "0x99106c12ad22f2dd15ca7a09257eb9ebae4b97480fa4543f5ef4541ed026d0fe",
      "blockNumber": 71075,
      "transactionIndex": 2,
      "confirmations": null,
      "from": "0x7C4401aE98F12eF6de39aE24cf9fc51f80EBa16B",
      "gasPrice": {
        "_hex": "0xd7d40ace3"
      },
      "gasLimit": {
        "_hex": "0x15f90"
      },
      "to": "0xc31eE385ddbbD9D6BA7ffDbbc42B8E34648f8302",
      "value": {
        "_hex": "0xde0b6b3a7640000"
      },
      "nonce": 7,
      "data": "0x",
      "r": "0x815af7fd272c56c6fe46f1c3cab751177989ad32877ee45cad805d3e0019528e",
      "s": "0x22f7d92430082ee6589676c9c8cbe6785ffccaa559fe47a9a7c5eca1dca6e650",
      "v": 27,
      "creates": null,
      "raw": "0xf86d07850d7d40ace383015f9094c31ee385ddbbd9d6ba7ffdbbc42b8e34648f8302880de0b6b3a7640000801ba0815af7fd272c56c6fe46f1c3cab751177989ad32877ee45cad805d3e0019528ea022f7d92430082ee6589676c9c8cbe6785ffccaa559fe47a9a7c5eca1dca6e650",
      "networkId": 0,
      "chainId": 0
    },
    {
      "hash": "0x064e663f34492f4ee3960e324e25bf68754ee8564cf549a0495b2387d478b5a5",
      "blockHash": "0x99106c12ad22f2dd15ca7a09257eb9ebae4b97480fa4543f5ef4541ed026d0fe",
      "blockNumber": 71075,
      "transactionIndex": 3,
      "confirmations": null,
      "from": "0xa04f46f1e328BF2f564313Be73e6A77Fe870e535",
      "gasPrice": {
        "_hex": "0xd3710221b"
      },
      "gasLimit": {
        "_hex": "0x7a120"
      },
      "to": "0xBAA54d6E90c3F4d7Ebec11bD180134C7eD8eBb52",
      "value": {
        "_hex": "0x16345785d8a0000"
      },
      "nonce": 0,
      "data": "0x",
      "r": "0x42ed5f4c3c61de332b85d6629051da6d26951c53e25646d543d221b182b8014b",
      "s": "0x7da28c7de82003778c0a423c47f0036f56e7d5b4f984241b179100e41e0ef97d",
      "v": 27,
      "creates": null,
      "raw": "0xf86d80850d3710221b8307a12094baa54d6e90c3f4d7ebec11bd180134c7ed8ebb5288016345785d8a0000801ba042ed5f4c3c61de332b85d6629051da6d26951c53e25646d543d221b182b8014ba07da28c7de82003778c0a423c47f0036f56e7d5b4f984241b179100e41e0ef97d",
      "networkId": 0,
      "chainId": 0
    }
  ]
}