{
  "hash": "0x114587e56733626fb823c6fae4db826b2315c9f731f2bb5eab5366b69093def9",
  "parentHash": "0xe2907af5cb5fbfa30d4021be53645819e334709dc88b333fa6c739cfd1bb969e",
  "number": 98128,
  "timestamp": 1439767389,
  "nonce": "0xf2665c29832d2112",
  "difficulty": 3887939694322,
  "gasLimit": {
    "_hex": "0x2fefd5"
  },
  "gasUsed": {
    "_hex": "0x5208"
  },
  "miner": "0x33F36DffD23cf019833E1d59cBc7138824b12289",
  "extraData": "0xda8098302e392e34312b2b302d524c696e75782f672b2b2f696e74",
  "transactions": [
    {
      "hash": "0x7032cb68affbd719d69079c896fad65de403efd1617eded65b71f9f514129d15",
      "blockHash": "0x114587e56733626fb823c6fae4db826b2315c9f731f2bb5eab5366b69093def9",
      "blockNumber": 98128,
      "transactionIndex": 0,
      "confirmations": null,
      "from": "0x54310b3aA88703a725dfa57DE6e646935164802C",
      "gasPrice": {
        "_hex": "0xd7d40ace3"
      },
      "gasLimit": {
        "_hex": "0x15f90"
      },
      "to": "0xa7ae731fD9EbF24D5a99104a3c2a65a7240B2B04",
      "value": {
        "_hex": "0x56bc75e2d63100000"
      },
      "nonce": 0,
      "data": "0x",
      "r": "0xa62a8ac718c4b5b9b48b25b3c7dfddfe68f2bc2cb8dee29f11e828c18f6ebdf1",
      "s": "0x6262ed95675e3fd84a0d783c58ffc02dc3089c8749d17cd693271344a1663e33",
      "v": 27,
      "creates": null,
      "raw": "0xf86e80850d7d40ace383015f9094a7ae731fd9ebf24d5a99104a3c2a65a7240b2b0489056bc75e2d63100000801ba0a62a8ac718c4b5b9b48b25b3c7dfddfe68f2bc2cb8dee29f11e828c18f6ebdf1a06262ed95675e3fd84a0d783c58ffc02dc3089c8749d17cd693271344a1663e33",
      "networkId": 0,
      "chainId": 0
    }
  ]
}