{
  "hash": "0x796e63f3b91475256c28b1292feaa4f3fae850231fabba4c8ca231f1c8cb869a",
  "parentHash": "0xb5a7b6d18edb86c2693d3dbd3faf114e4bc16e7f88e3665e66eaa8ea9af7ac0a",
  "number": 93674,
  "timestamp": 1439695678,
  "nonce": "0x42824468f28fb15d",
  "difficulty": 3432916955460,
  "gasLimit": {
    "_hex": "0x2fefd8"
  },
  "gasUsed": {
    "_hex": "0x5208"
  },
  "miner": "0x3251cce70191B7c0625Addd94Af1e95C87A3D848",
  "extraData": "0x476574682f76312e302e312f6c696e75782f676f312e342e32",
  "transactions": [
    {
      "hash": "0x7055c74b5db4a6bf4c3465b5e8db2f8e8f4417dbec114c39eb62642d485ea3aa",
      "blockHash": "0x796e63f3b91475256c28b1292feaa4f3fae850231fabba4c8ca231f1c8cb869a",
      "blockNumber": 93674,
      "transactionIndex": 0,
      "confirmations": null,
      "from": "0x32Be343B94f860124dC4fEe278FDCBD38C102D88",
      "gasPrice": {
        "_hex": "0xd3b348785"
      },
      "gasLimit": {
        "_hex": "0x5208"
      },
      "to": "0x02020D22dCF88f5eDd66B382D7da019F161fB7e3",
      "value": {
        "_hex": "0x56bc75e2d631000000"
      },
      "nonce": 931,
      "data": "0x",
      "r": "0x55a84130ab16322a647834325caff9aeebcc444a7c67062fc0fb3992b5830774",
      "s": "0x15fc40438f22893630752023284fdee0e39e380183e1625dc2a5d263879020c3",
      "v": 27,
      "creates": null,
      "raw": "0xf86f8203a3850d3b3487858252089402020d22dcf88f5edd66b382d7da019f161fb7e38956bc75e2d631000000801ba055a84130ab16322a647834325caff9aeebcc444a7c67062fc0fb3992b5830774a015fc40438f22893630752023284fdee0e39e380183e1625dc2a5d263879020c3",
      "networkId": 0,
      "chainId": 0
    }
  ]
}