{
  "hash": "0x158aa83a972b7ece85697d11ff4f29389a34eb46105a6b10ea7a075f12235174",
  "parentHash": "0x1694b97d26146a6f7435d08b114b607a90f986a744fc065bee787b5826cdf33b",
  "number": 115406,
  "timestamp": 1440056674,
  "nonce": "0x007ad37ec09348a2",
  "difficulty": 4571686574926,
  "gasLimit": {
    "_hex": "0x2fefd8"
  },
  "gasUsed": {
    "_hex": "0x23e38"
  },
  "miner": "0xe6A7a1d47ff21B6321162AEA7C6CB457D5476Bca",
  "extraData": "0x476574682f76312e302e312d38326566323666362f6c696e75782f676f312e34",
  "transactions": [
    {
      "hash": "0xd240100022bb72c64bdce6a117778aaf76f4d3a60f33caf13a7172cf02b2aa59",
      "blockHash": "0x158aa83a972b7ece85697d11ff4f29389a34eb46105a6b10ea7a075f12235174",
      "blockNumber": 115406,
      "transactionIndex": 0,
      "confirmations": null,
      "from": "0x7C197542A77e913547d2E58e8d3c6F224f6f0f98",
      "gasPrice": {
        "_hex": "0xdd2e14398"
      },
      "gasLimit": {
        "_hex": "0x5208"
      },
      "to": "0x32Be343B94f860124dC4fEe278FDCBD38C102D88",
      "value": {
        "_hex": "0x5d2fae9f9d9c5400"
      },
      "nonce": 6,
      "data": "0x",
      "r": "0xb5074f2901676525ab65db82b5f956ef90acb6b24c80263038898231d912e5d2",
      "s": "0x2db4e596f0efeb6e14105dcd8f86ed8cbdd01c2ed7f759aa602fc126fe69bff3",
      "v": 28,
      "creates": null,
      "raw": "0xf86c06850dd2e143988252089432be343b94f860124dc4fee278fdcbd38c102d88885d2fae9f9d9c5400801ca0b5074f2901676525ab65db82b5f956ef90acb6b24c80263038898231d912e5d2a02db4e596f0efeb6e14105dcd8f86ed8cbdd01c2ed7f759aa602fc126fe69bff3",
      "networkId": 0,
      "chainId": 0
    },
    {
      "hash": "0xeef9fa50dd703b7e68539bc290f4e7cbb591edd1a4e1594865eda86f064698b1",
      "blockHash": "0x158aa83a972b7ece85697d11ff4f29389a34eb46105a6b10ea7a075f12235174",
      "blockNumber": 115406,
      "transactionIndex": 1,
      "confirmations": null,
      "from": "0x285B048CC4cB946abCF3eF11aDe982C36946AF18",
      "gasPrice": {
        "_hex": "0xdd2e14398"
      },
      "gasLimit": {
        "_hex": "0x5208"
      },
      "to": "0x32Be343B94f860124dC4fEe278FDCBD38C102D88",
      "value": {
        "_hex": "0xa6842271f17d1800"
      },
      "nonce": 18,
      "data": "0x",
      "r": "0x70fb73e739870b89713a17981137635474a99f104f074c134de471c8ceec94a4",
      "s": "0x0005db2da49d3d95372c82f8f567083d9964fb9650df975ff66238c04c167bc2",
      "v": 27,
      "creates": null,
      "raw": "0xf86b12850dd2e143988252089432be343b94f860124dc4fee278fdcbd38c102d8888a6842271f17d1800801ba070fb73e739870b89713a17981137635474a99f104f074c134de471c8ceec94a49f05db2da49d3d95372c82f8f567083d9964fb9650df975ff66238c04c167bc2",
      "networkId": 0,
      "chainId": 0
    },
    {
      "hash": "0x497ef619e16f0deccb2361e46bccdd17565e880f54c5a492766d38f14079802e",
      "blockHash": "0x158aa83a972b7ece85697d11ff4f29389a34eb46105a6b10ea7a075f12235174",
      "blockNumber": 115406,
      "transactionIndex": 2,
      "confirmations": null,
      "from": "0xc08E05f51581aDA37f9DD2edbF7a68fE7E199D55",
      "gasPrice": {
        "_hex": "0xdd2e14398"
      },
      "gasLimit": {
        "_hex": "0x5208"
      },
      "to": "0x32Be343B94f860124dC4fEe278FDCBD38C102D88",
      "value": {
        "_hex": "0x73864f7f7008b400"
      },
      "nonce": 6,
      "data": "0x",
      "r": "0x288dac45f46a2d52a9e866266e1d70b4b3e4b8fd6fc1fb13b2b36668bbd7ce5e",
      "s": "0x597c42222f4c80ae3ab8697d3e3dcdaa03598af4455a023bf38a81ad490bd732",
      "v": 28,
      "creates": null,
      "raw": "0xf86c06850dd2e143988252089432be343b94f860124dc4fee278fdcbd38c102d888873864f7f7008b400801ca0288dac45f46a2d52a9e866266e1d70b4b3e4b8fd6fc1fb13b2b36668bbd7ce5ea0597c42222f4c80ae3ab8697d3e3dcdaa03598af4455a023bf38a81ad490bd732",
      "networkId": 0,
      "chainId": 0
    },
    {
      "hash": "0x4c3541de6103e5e45aa2e853bd28d54f682a2ecf3e4decedbb0853ed83d6a921",
      "blockHash": "0x158aa83a972b7ece85697d11ff4f29389a34eb46105a6b10ea7a075f12235174",
      "blockNumber": 115406,
      "transactionIndex": 3,
      "confirmations": null,
      "from": "0xb2e4017063376d7eb1a72d91EC8Ff38712ffebdF",
      "gasPrice": {
        "_hex": "0xdd2e14398"
      },
      "gasLimit": {
        "_hex": "0x5208"
      },
      "to": "0x32Be343B94f860124dC4fEe278FDCBD38C102D88",
      "value": {
        "_hex": "0x85d3d6cc48001000"
      },
      "nonce": 3,
      "data": "0x",
      "r": "0x6b6c01574a225b7a140524708d874f69c60909a080bd9441a98c0ae284987a33",
      "s": "0x6fa0ec057a3e2fc155605060054075e5de59debbaae1292033615fee7818496e",
      "v": 27,
      "creates": null,
      "raw": "0xf86c03850dd2e143988252089432be343b94f860124dc4fee278fdcbd38c102d888885d3d6cc48001000801ba06b6c01574a225b7a140524708d874f69c60909a080bd9441a98c0ae284987a33a06fa0ec057a3e2fc155605060054075e5de59debbaae1292033615fee7818496e",
      "networkId": 0,
      "chainId": 0
    },
    {
      "hash": "0x49a61f4bac8cdcabee44887a2bace66c7ffe41bf379535b6446ad82a80eadfab",
      "blockHash": "0x158aa83a972b7ece85697d11ff4f29389a34eb46105a6b10ea7a075f12235174",
      "blockNumber": 115406,
      "transactionIndex": 4,
      "confirmations": null,
      "from": "0xe6F63A7e7F8dc774F8E3504c9b0c5458D7E28ED8",
      "gasPrice": {
        "_hex": "0xdd2e14398"
      },
      "gasLimit": {
        "_hex": "0x5208"
      },
      "to": "0x32Be343B94f860124dC4fEe278FDCBD38C102D88",
      "value": {
        "_hex": "0x68334c832ad86400"
      },
      "nonce": 6,
      "data": "0x",
      "r": "0xbf5355f0fad8e1c073a301b58033439ff646a19b7dcbd49e1b505634660c74e6",
      "s": "0x0387edf2773c77e269d13bd55fb0d7cfd85ce5bfcdb7dd2d04781a591c573ab5",
      "v": 28,
      "creates": null,
      "raw": "0xf86c06850dd2e143988252089432be343b94f860124dc4fee278fdcbd38c102d888868334c832ad86400801ca0bf5355f0fad8e1c073a301b58033439ff646a19b7dcbd49e1b505634660c74e6a00387edf2773c77e269d13bd55fb0d7cfd85ce5bfcdb7dd2d04781a591c573ab5",
      "networkId": 0,
      "chainId": 0
    },
    {
      "hash": "0xa66a5ccf37280350300e6c5c547932d88664d3f35757570c2dd3e2fbbeec8534",
      "blockHash": "0x158aa83a972b7ece85697d11ff4f29389a34eb46105a6b10ea7a075f12235174",
      "blockNumber": 115406,
      "transactionIndex": 5,
      "confirmations": null,
      "from": "0xaA35779Ef4dfBEd0B3D6F46F5f11cb86261B17A5",
      "gasPrice": {
        "_hex": "0xd7d40ace3"
      },
      "gasLimit": {
        "_hex": "0x61a8"
      },
      "to": "0x30beD8049947963394D93412326225E4e3123601",
      "value": {
        "_hex": "0xe398811bec680000"
      },
      "nonce": 18,
      "data": "0x",
      "r": "0xd17fd253f5a29c1e83f8a0a828a422e643c7e342e8960df441ce8ecccacd5749",
      "s": "0x35995b7625caa31af0403473f4c2632ddf8384d451585377bffed707ba13aca3",
      "v": 28,
      "creates": null,
      "raw": "0xf86c12850d7d40ace38261a89430bed8049947963394d93412326225e4e312360188e398811bec680000801ca0d17fd253f5a29c1e83f8a0a828a422e643c7e342e8960df441ce8ecccacd5749a035995b7625caa31af0403473f4c2632ddf8384d451585377bffed707ba13aca3",
      "networkId": 0,
      "chainId": 0
    },
    {
      "hash": "0x700689863e4b327b7041f64c0c19020206f01be9ba264c86e4f67b60a492820f",
      "blockHash": "0x158aa83a972b7ece85697d11ff4f29389a34eb46105a6b10ea7a075f12235174",
      "blockNumber": 115406,
      "transactionIndex": 6,
      "confirmations": null,
      "from": "0x3fc4eAB8A8df5a124043b29146709935c65F1f7d",
      "gasPrice": {
        "_hex": "0xd3d37f23a"
      },
      "gasLimit": {
        "_hex": "0x15f90"
      },
      "to": "0x051B69BB7073F7385370C5751F988b31A7567a63",
      "value": {
        "_hex": "0x1feb3dd067660000"
      },
      "nonce": 8,
      "data": "0x",
      "r": "0x44ce88e7501da9de225ebe06e0e442220c1ae39611bf9cd2ca0ace475766faca",
      "s": "0x79a5f16a5f3c0535b4271b903aef7686751fa9b7f4b5f438895198fd37bf06b7",
      "v": 28,
      "creates": null,
      "raw": "0xf86d08850d3d37f23a83015f9094051b69bb7073f7385370c5751f988b31a7567a63881feb3dd067660000801ca044ce88e7501da9de225ebe06e0e442220c1ae39611bf9cd2ca0ace475766facaa079a5f16a5f3c0535b4271b903aef7686751fa9b7f4b5f438895198fd37bf06b7",
      "networkId": 0,
      "chainId": 0
    }
  ]
}