{
  "hash": "0xd10710be4a0f744f2e82d162da8e2378e1dc9e2a4a9c4ccc467ff58245e049e3",
  "parentHash": "0x10850a9558c7f970d7b176ce533159d106b481fe810cbf4700383e45e5030d50",
  "number": 71460,
  "timestamp": 1439336401,
  "nonce": "0x6a880a883e0bb962",
  "difficulty": 2179351059707,
  "gasLimit": {
    "_hex": "0x2fefd8"
  },
  "gasUsed": {
    "_hex": "0xae73"
  },
  "miner": "0x31995C46B15C84523cDEE26f49A681b8237e43F5",
  "extraData": "0x476574682f76312e302e312f77696e646f77732f676f312e342e32",
  "transactions": [
    {
      "hash": "0xe7adf0d8443305407ee57978dc02731c95ca9e85cff9eef0a4046843ec8a56df",
      "blockHash": "0xd10710be4a0f744f2e82d162da8e2378e1dc9e2a4a9c4ccc467ff58245e049e3",
      "blockNumber": 71460,
      "transactionIndex": 0,
      "confirmations": null,
      "from": "0x17580B766f7453525ca4C6A88b01b50570EA088C",
      "gasPrice": {
        "_hex": "0xdd8553aab"
      },
      "gasLimit": {
        "_hex": "0x61a80"
      },
      "to": "0x5Fe5B7546D1628f7348B023A0393de1FC825A4fD",
      "value": {
        "_hex": "0x29a2241af62c0000"
      },
      "nonce": 197,
      "data": "0xb595b8b50000000000000000000000000000000000000000000000000000000000000000",
      "r": "0x15987ba601c5b03f48ba4038218d7b22882192f5739ce192a8fa27fd192e944d",
      "s": "0x3315cfd2c236d872814723f6e0d07d1f162f639c930bd3516827e3cc62c53331",
      "v": 28,
      "creates": null,
      "raw": "0xf89281c5850dd8553aab83061a80945fe5b7546d1628f7348b023a0393de1fc825a4fd8829a2241af62c0000a4b595b8b500000000000000000000000000000000000000000000000000000000000000001ca015987ba601c5b03f48ba4038218d7b22882192f5739ce192a8fa27fd192e944da03315cfd2c236d872814723f6e0d07d1f162f639c930bd3516827e3cc62c53331",
      "networkId": 0,
      "chainId": 0
    }
  ]
}