{
  "hash": "0xe6c790dabb170446f1f58bbaffac30b49ab05415c577641107e3f9096b872be8",
  "parentHash": "0xeb72d4ba40a4774203a1b9a111886d7329e600bfd39dd79ea38ce96dd27e8c4b",
  "number": 80474,
  "timestamp": 1439486002,
  "nonce": "0x43ca01681c639720",
  "difficulty": 2419162386793,
  "gasLimit": {
    "_hex": "0x2fefd8"
  },
  "gasUsed": {
    "_hex": "0xc343"
  },
  "miner": "0xe6A7a1d47ff21B6321162AEA7C6CB457D5476Bca",
  "extraData": "0x476574682f76312e302e312d38326566323666362f6c696e75782f676f312e34",
  "transactions": [
    {
      "hash": "0xcca1803b5fca57f49fe1eaee71343ffb29cf9bf8376c82b23302b680fe47fffa",
      "blockHash": "0xe6c790dabb170446f1f58bbaffac30b49ab05415c577641107e3f9096b872be8",
      "blockNumber": 80474,
      "transactionIndex": 0,
      "confirmations": null,
      "from": "0x87C5B5874A18B4306DF8a752a6C8cc3E82daFc19",
      "gasPrice": {
        "_hex": "0x10995f55298"
      },
      "gasLimit": {
        "_hex": "0x493e0"
      },
      "to": "0xC4c51de1AbF5D60DBd329eC0F999Fd8f021ae9fC",
      "value": {
        "_hex": "0x0"
      },
      "nonce": 218,
      "data": "0xbd66528a6b6b6b0000000000000000000000000000000000000000000000000000000000",
      "r": "0x2aaf6f2d71bb7f2193cf760ac0750a7a6e2caf69d5502d7923b3e51fb4bf8a4a",
      "s": "0x10dfe0b587b83a2a9ad092942ecfb6a5d93191d060613456b85ac46e59767e85",
      "v": 28,
      "creates": null,
      "raw": "0xf88b81da86010995f55298830493e094c4c51de1abf5d60dbd329ec0f999fd8f021ae9fc80a4bd66528a6b6b6b00000000000000000000000000000000000000000000000000000000001ca02aaf6f2d71bb7f2193cf760ac0750a7a6e2caf69d5502d7923b3e51fb4bf8a4aa010dfe0b587b83a2a9ad092942ecfb6a5d93191d060613456b85ac46e59767e85",
      "networkId": 0,
      "chainId": 0
    },
    {
      "hash": "0xb12d73284f0efd8032d33698ca442e8140d511876762a4168bc8caa854651f50",
      "blockHash": "0xe6c790dabb170446f1f58bbaffac30b49ab05415c577641107e3f9096b872be8",
      "blockNumber": 80474,
      "transactionIndex": 1,
      "confirmations": null,
      "from": "0x3E3161F1EA2fBf126E79DA1801da9512B37988C9",
      "gasPrice": {
        "_hex": "0x108d914c084"
      },
      "gasLimit": {
        "_hex": "0x55f0"
      },
      "to": "0x2910543Af39abA0Cd09dBb2D50200b3E800A63D2",
      "value": {
        "_hex": "0xde0b6b3a7640000"
      },
      "nonce": 0,
      "data": "0x454e47304e52564338",
      "r": "0x7a0c2e4fbcb8855c0a68c38d0cdde47830354e30542f7b4cd3412bfbeb40c4a1",
      "s": "0x4a00681d8b64dd642433f8894f76aa7e94a48c0005d25d99cacbc2304032b594",
      "v": 27,
      "creates": null,
      "raw": "0xf87680860108d914c0848255f0942910543af39aba0cd09dbb2d50200b3e800a63d2880de0b6b3a764000089454e47304e525643381ba07a0c2e4fbcb8855c0a68c38d0cdde47830354e30542f7b4cd3412bfbeb40c4a1a04a00681d8b64dd642433f8894f76aa7e94a48c0005d25d99cacbc2304032b594",
      "networkId": 0,
      "chainId": 0
    }
  ]
}