{
  "hash": "0xeb46a14d1f5e5f66ae468c30a45cd76fc022ca3f2f683306eb869bef725ba887",
  "parentHash": "0xd00292895ccfbb794dd869a9e56e08dab90d1983f9d996735d88409834724b99",
  "number": 76042,
  "timestamp": 1439413852,
  "nonce": "0xef542d9dada49703",
  "difficulty": 2247303243408,
  "gasLimit": {
    "_hex": "0x2fefd8"
  },
  "gasUsed": {
    "_hex": "0xf274"
  },
  "miner": "0x02020D22dCF88f5eDd66B382D7da019F161fB7e3",
  "extraData": "0x",
  "transactions": [
    {
      "hash": "0x61a4c31f2a0cae780ccdee15f9de9c933798d64840421c2514a9ab7a6135a95d",
      "blockHash": "0xeb46a14d1f5e5f66ae468c30a45cd76fc022ca3f2f683306eb869bef725ba887",
      "blockNumber": 76042,
      "transactionIndex": 0,
      "confirmations": null,
      "from": "0x0e320219838E859b2F9f18B72e3d4073cA50B37D",
      "gasPrice": {
        "_hex": "0xe00d14ccc"
      },
      "gasLimit": {
        "_hex": "0x2dc6c0"
      },
      "to": "0x35E57F2b08596f1946ECD9D31975eC3c2D7e1C1D",
      "value": {
        "_hex": "0x0"
      },
      "nonce": 6,
      "data": "0xc0336629",
      "r": "0x38a245eaf84ba07328a140766f65996ee2412aa38f536e6bfc1554289d282b78",
      "s": "0x0e3818407b0cb29ded8c2b33064c40b6e1f60461e56a875e6bdddfcc0be25b91",
      "v": 28,
      "creates": null,
      "raw": "0xf86906850e00d14ccc832dc6c09435e57f2b08596f1946ecd9d31975ec3c2d7e1c1d8084c03366291ca038a245eaf84ba07328a140766f65996ee2412aa38f536e6bfc1554289d282b78a00e3818407b0cb29ded8c2b33064c40b6e1f60461e56a875e6bdddfcc0be25b91",
      "networkId": 0,
      "chainId": 0
    }
  ]
}