{
  "hash": "0x103d0e2fa32d97c51e02e08131d6e0f47de668ec2f7d8de14168b3b9c642bb2a",
  "parentHash": "0xec9a08703d7b332d84a7e7b4b70b84294cab44bbb7800067fc04e79d3579bcea",
  "number": 62636,
  "timestamp": 1439191915,
  "nonce": "0x00b1ede743394441",
  "difficulty": 1771933330158,
  "gasLimit": {
    "_hex": "0x2fefd8"
  },
  "gasUsed": {
    "_hex": "0x17245"
  },
  "miner": "0x47ff6576639c2e94762eA5443978D7681C0E78DC",
  "extraData": "0x476574682f76312e302e312f6c696e75782f676f312e342e32",
  "transactions": [
    {
      "hash": "0x8b83e0709ddfbd592a7978dfccfdb57affeb5176ccc4d08f0c657287a7432d98",
      "blockHash": "0x103d0e2fa32d97c51e02e08131d6e0f47de668ec2f7d8de14168b3b9c642bb2a",
      "blockNumber": 62636,
      "transactionIndex": 0,
      "confirmations": null,
      "from": "0x8F8741b77dd1833BC0Ee23D94Ef14920Cb9882B3",
      "gasPrice": {
        "_hex": "0xdc8c2b439"
      },
      "gasLimit": {
        "_hex": "0x5208"
      },
      "to": "0x32Be343B94f860124dC4fEe278FDCBD38C102D88",
      "value": {
        "_hex": "0x1b1ae06c25e8a60000"
      },
      "nonce": 2,
      "data": "0x",
      "r": "0x97cf2df9b23125505d65985bf5a765fcab589e79aff0af4d8287a017a1e9009c",
      "s": "0x6cd7b53cac72ec6fbb7e153b400bb741bf15d53dfbea62c02376fa226c856a37",
      "v": 27,
      "creates": null,
      "raw": "0xf86d02850dc8c2b4398252089432be343b94f860124dc4fee278fdcbd38c102d88891b1ae06c25e8a60000801ba097cf2df9b23125505d65985bf5a765fcab589e79aff0af4d8287a017a1e9009ca06cd7b53cac72ec6fbb7e153b400bb741bf15d53dfbea62c02376fa226c856a37",
      "networkId": 0,
      "chainId": 0
    },
    {
      "hash": "0xd9aad4bb454ebf95ee72319fd1e0573940faca242016d33419872368b6c4d090",
      "blockHash": "0x103d0e2fa32d97c51e02e08131d6e0f47de668ec2f7d8de14168b3b9c642bb2a",
      "blockNumber": 62636,
      "transactionIndex": 1,
      "confirmations": null,
      "from": "0x01Ad0ACFf478127D9d702B1A13599D706cB759b1",
      "gasPrice": {
        "_hex": "0xdc8c2b439"
      },
      "gasLimit": {
        "_hex": "0x5208"
      },
      "to": "0x32Be343B94f860124dC4fEe278FDCBD38C102D88",
      "value": {
        "_hex": "0x70882124900eb400"
      },
      "nonce": 3,
      "data": "0x",
      "r": "0xdc745e738a6017fd4b99f0e8f868f569669bc10342c8d0f864818f28d81087e1",
      "s": "0x1c136f04ac9a9b3f0e0b66e1eeb92aec084ad6b62727ba5e5e81084dfce5e469",
      "v": 27,
      "creates": null,
      "raw": "0xf86c03850dc8c2b4398252089432be343b94f860124dc4fee278fdcbd38c102d888870882124900eb400801ba0dc745e738a6017fd4b99f0e8f868f569669bc10342c8d0f864818f28d81087e1a01c136f04ac9a9b3f0e0b66e1eeb92aec084ad6b62727ba5e5e81084dfce5e469",
      "networkId": 0,
      "chainId": 0
    },
    {
      "hash": "0x6cce404e4efb9b5c96c470029cbf73961f38615370403926b38ce8074efa6ed5",
      "blockHash": "0x103d0e2fa32d97c51e02e08131d6e0f47de668ec2f7d8de14168b3b9c642bb2a",
      "blockNumber": 62636,
      "transactionIndex": 2,
      "confirmations": null,
      "from": "0x117D2945355d346cE6637d6D5CC9A9E46CB43B73",
      "gasPrice": {
        "_hex": "0xdc8c2b439"
      },
      "gasLimit": {
        "_hex": "0x5208"
      },
      "to": "0x32Be343B94f860124dC4fEe278FDCBD38C102D88",
      "value": {
        "_hex": "0x455f26c53e4a2800"
      },
      "nonce": 1,
      "data": "0x",
      "r": "0x3c59b11bc6eac49dcc191696555419d7bc64d129dd5be78f202799bb295fff4d",
      "s": "0x14ddfbaafb526b839afffd52789b80d6dd5bc0ae79e70006a59345a7148e4eb2",
      "v": 28,
      "creates": null,
      "raw": "0xf86c01850dc8c2b4398252089432be343b94f860124dc4fee278fdcbd38c102d8888455f26c53e4a2800801ca03c59b11bc6eac49dcc191696555419d7bc64d129dd5be78f202799bb295fff4da014ddfbaafb526b839afffd52789b80d6dd5bc0ae79e70006a59345a7148e4eb2",
      "networkId": 0,
      "chainId": 0
    },
    {
      "hash": "0x09dd99eb96f8709ef89cf9b3961862383c2035b46593b416af9edf1d92c61b1c",
      "blockHash": "0x103d0e2fa32d97c51e02e08131d6e0f47de668ec2f7d8de14168b3b9c642bb2a",
      "blockNumber": 62636,
      "transactionIndex": 3,
      "confirmations": null,
      "from": "0x8391813c10b72507819251bd4d2b96696afd9495",
      "gasPrice": {
        "_hex": "0xd96b7b052"
      },
      "gasLimit": {
        "_hex": "0x15f90"
      },
      "to": "0x125B606C67E8066Da65069652b656c19717745Fa",
      "value": {
        "_hex": "0x8ac7230489e80000"
      },
      "nonce": 1,
      "data": "0xa55526db",
      "r": "0x7a43cefa59d5ca3085cf2eb210127b86b91f27a740645b5b741978f9ad0d417a",
      "s": "0x150fc76baddad35959fd35d27cba2a37cd20937cc108eaf30383a20cb4dc39c5",
      "v": 27,
      "creates": null,
      "raw": "0xf87101850d96b7b05283015f9094125b606c67e8066da65069652b656c19717745fa888ac7230489e8000084a55526db1ba07a43cefa59d5ca3085cf2eb210127b86b91f27a740645b5b741978f9ad0d417aa0150fc76baddad35959fd35d27cba2a37cd20937cc108eaf30383a20cb4dc39c5",
      "networkId": 0,
      "chainId": 0
    }
  ]
}