{
  "hash": "0x3698f168a36ddff14369fdb1f762052f2eebf2ff90e8ba11406ebd6aca00f35c",
  "parentHash": "0x979c3f0ccbd9128242cc5d5f35b9e191e4237acbea88c36b8e2ba0df078777b3",
  "number": 115340,
  "timestamp": 1440055539,
  "nonce": "0xb691aca8a62ea7df",
  "difficulty": 4549454089086,
  "gasLimit": {
    "_hex": "0x2fefd8"
  },
  "gasUsed": {
    "_hex": "0xa410"
  },
  "miner": "0x52bc44d5378309EE2abF1539BF71dE1b7d7bE3b5",
  "extraData": "0x476574682f76312e302e312d65626434373230372f6c696e75782f676f312e34",
  "transactions": [
    {
      "hash": "0x756895fe1418a8d6c5a95af873ce20cd97f431226e8f5b83359509479f7d42e8",
      "blockHash": "0x3698f168a36ddff14369fdb1f762052f2eebf2ff90e8ba11406ebd6aca00f35c",
      "blockNumber": 115340,
      "transactionIndex": 0,
      "confirmations": null,
      "from": "0x3629B45bBf972aDc23C064D31B7d7c6ce17415D5",
      "gasPrice": {
        "_hex": "0xcea52a9d2"
      },
      "gasLimit": {
        "_hex": "0x5208"
      },
      "to": "0x32Be343B94f860124dC4fEe278FDCBD38C102D88",
      "value": {
        "_hex": "0x1ea72873edd496000"
      },
      "nonce": 7,
      "data": "0x",
      "r": "0xce607bc0f931ce9051637034522e90dfd6602ea05ef8806684d106bf713d9904",
      "s": "0x7af2addfcc5fa45b39c967cc72d47706e8ce9d8100e0b899e4be39b8bbe441b8",
      "v": 28,
      "creates": null,
      "raw": "0xf86d07850cea52a9d28252089432be343b94f860124dc4fee278fdcbd38c102d888901ea72873edd496000801ca0ce607bc0f931ce9051637034522e90dfd6602ea05ef8806684d106bf713d9904a07af2addfcc5fa45b39c967cc72d47706e8ce9d8100e0b899e4be39b8bbe441b8",
      "networkId": 0,
      "chainId": 0
    },
    {
      "hash": "0x8b5a15646e4b307843c023ccb928cfe54043ae3c0faf8357a6147a3c20a749bd",
      "blockHash": "0x3698f168a36ddff14369fdb1f762052f2eebf2ff90e8ba11406ebd6aca00f35c",
      "blockNumber": 115340,
      "transactionIndex": 1,
      "confirmations": null,
      "from": "0x9FA0960220d2d51D54f755501E391Da140c2EF63",
      "gasPrice": {
        "_hex": "0xcea52a9d2"
      },
      "gasLimit": {
        "_hex": "0x5208"
      },
      "to": "0x32Be343B94f860124dC4fEe278FDCBD38C102D88",
      "value": {
        "_hex": "0x3bc57440ba2d3000"
      },
      "nonce": 8,
      "data": "0x",
      "r": "0xdddc88de144944ba1f6f23a1a7e963f1b4eb1b0cc947ffc45b902c9ec9a6cbea",
      "s": "0x05b33f1f79fbb836ca94809c80bd0424fcc646616802d23f5b777ee6878218be",
      "v": 28,
      "creates": null,
      "raw": "0xf86c08850cea52a9d28252089432be343b94f860124dc4fee278fdcbd38c102d88883bc57440ba2d3000801ca0dddc88de144944ba1f6f23a1a7e963f1b4eb1b0cc947ffc45b902c9ec9a6cbeaa005b33f1f79fbb836ca94809c80bd0424fcc646616802d23f5b777ee6878218be",
      "networkId": 0,
      "chainId": 0
    }
  ]
}