{
  "hash": "0x04f92f5e216f85aa13810d2ed3e6a3595fbb52b73e48dc7041555bccdb18505e",
  "parentHash": "0x48efba6596e413807cb3c1810567c12cc35786aafe8aba51f8be6742955ee152",
  "number": 50570,
  "timestamp": 1438991381,
  "nonce": "0x7adac7cf04c42602",
  "difficulty": 1523736961366,
  "gasLimit": {
    "_hex": "0x6b69a"
  },
  "gasUsed": {
    "_hex": "0xddfd"
  },
  "miner": "0x123843545FB525C8E134c9A5F15ADA6865cc3848",
  "extraData": "0x476574682f76312e302e312f77696e646f77732f676f312e342e32",
  "transactions": [
    {
      "hash": "0x1318769ee9f3c32f1e6fdef1898133910c4ebd2a63e3248ff80a338d1ffa91ff",
      "blockHash": "0x04f92f5e216f85aa13810d2ed3e6a3595fbb52b73e48dc7041555bccdb18505e",
      "blockNumber": 50570,
      "transactionIndex": 0,
      "confirmations": null,
      "from": "0x475351efe1D9cf36276Ff2b7aE1D38bDB072E22c",
      "gasPrice": {
        "_hex": "0xcc6783c5e"
      },
      "gasLimit": {
        "_hex": "0x15f90"
      },
      "to": "0xA327075af2a223A1C83a36aDa1126afE7430f955",
      "value": {
        "_hex": "0x8ac7230489e80000"
      },
      "nonce": 1,
      "data": "0x",
      "r": "0x181e15af956a92b518f3a5c6414649f26b90c4f3ae673a5be4f74ee311d74d5d",
      "s": "0x2556317a35d2b306cf4f679c867c183c34df5327ce7e0052df8e2c188cd2d9f8",
      "v": 28,
      "creates": null,
      "raw": "0xf86d01850cc6783c5e83015f9094a327075af2a223a1c83a36ada1126afe7430f955888ac7230489e80000801ca0181e15af956a92b518f3a5c6414649f26b90c4f3ae673a5be4f74ee311d74d5da02556317a35d2b306cf4f679c867c183c34df5327ce7e0052df8e2c188cd2d9f8",
      "networkId": 0,
      "chainId": 0
    }
  ]
}