{
  "hash": "0xdb239320fa9145bee112ab38bd3f775deabddabc0be8abb6134a9eff3ee35ae6",
  "parentHash": "0x7d2a9868d8a1ec26e55d3f3830329c96731b23dd1cb9d9f9d744f44c224cacef",
  "number": 64536,
  "timestamp": 1439222452,
  "nonce": "0x4204496c170b5e83",
  "difficulty": 1878434062665,
  "gasLimit": {
    "_hex": "0x2fefd8"
  },
  "gasUsed": {
    "_hex": "0x14820"
  },
  "miner": "0x9746c7e1ef2bd21FF3997fa467593a89cb852BD0",
  "extraData": "0x476574682f76312e302e312f77696e646f77732f676f312e342e32",
  "transactions": [
    {
      "hash": "0xf9e22d42c690f5d93ace7608441b76f2e3845d64fdebcd1cc3ba82f28d0d8bde",
      "blockHash": "0xdb239320fa9145bee112ab38bd3f775deabddabc0be8abb6134a9eff3ee35ae6",
      "blockNumber": 64536,
      "transactionIndex": 0,
      "confirmations": null,
      "from": "0x5d964C49AF8eBF59AF86bb5bEA4d506b371C3e4a",
      "gasPrice": {
        "_hex": "0xd7d40ace3"
      },
      "gasLimit": {
        "_hex": "0x15f90"
      },
      "to": "0x59b35979170d7F4372F360C175287e40FaF71f32",
      "value": {
        "_hex": "0xde0b6b3a7640000"
      },
      "nonce": 0,
      "data": "0x",
      "r": "0x6821e581656a5bbfce2977d5e9109817722000d38028e59997a08b10a8010d64",
      "s": "0x79f4b468e0965f2c61a33ceb717974bdfda10a90f9bb24249634b0f890ee7306",
      "v": 28,
      "creates": null,
      "raw": "0xf86d80850d7d40ace383015f909459b35979170d7f4372f360c175287e40faf71f32880de0b6b3a7640000801ca06821e581656a5bbfce2977d5e9109817722000d38028e59997a08b10a8010d64a079f4b468e0965f2c61a33ceb717974bdfda10a90f9bb24249634b0f890ee7306",
      "networkId": 0,
      "chainId": 0
    },
    {
      "hash": "0xa7df16c6e86444ffe40582d05c8fd60b96e2f24cdd47be73512dcee6348b8ade",
      "blockHash": "0xdb239320fa9145bee112ab38bd3f775deabddabc0be8abb6134a9eff3ee35ae6",
      "blockNumber": 64536,
      "transactionIndex": 1,
      "confirmations": null,
      "from": "0xD1B2c3Be83ae9fF32e366E3A0B01Ed930700CE04",
      "gasPrice": {
        "_hex": "0xba43b7400"
      },
      "gasLimit": {
        "_hex": "0x5208"
      },
      "to": "0x09eCbF063986166fC2D804fF501496C96569E86c",
      "value": {
        "_hex": "0x7c58ada8ff2000"
      },
      "nonce": 1,
      "data": "0x",
      "r": "0x6aacc4e2c1b896a549776233392e6fe95921177fcb483019b6680f42da9b6931",
      "s": "0x37374443ae70f38e2e8127099cbc2d85016fd4b8a5ed2a2f8968f16721c317b0",
      "v": 28,
      "creates": null,
      "raw": "0xf86b01850ba43b74008252089409ecbf063986166fc2d804ff501496c96569e86c877c58ada8ff2000801ca06aacc4e2c1b896a549776233392e6fe95921177fcb483019b6680f42da9b6931a037374443ae70f38e2e8127099cbc2d85016fd4b8a5ed2a2f8968f16721c317b0",
      "networkId": 0,
      "chainId": 0
    },
    {
      "hash": "0x37299d78ac9095ba763a52c72916cab6359db0c04b3c67d2ce2e09ecf1036aa6",
      "blockHash": "0xdb239320fa9145bee112ab38bd3f775deabddabc0be8abb6134a9eff3ee35ae6",
      "blockNumber": 64536,
      "transactionIndex": 2,
      "confirmations": null,
      "from": "0x255A59Ec7Cffe5fCF068fc198eA3A507CdFbF641",
      "gasPrice": {
        "_hex": "0xba43b7400"
      },
      "gasLimit": {
        "_hex": "0x5208"
      },
      "to": "0xB106ad951726Ba2D8685A22eDc6Fb37e7483622F",
      "value": {
        "_hex": "0x7c58ada8ff2000"
      },
      "nonce": 1,
      "data": "0x",
      "r": "0x768350b8c868f5437fbefa9110bb841ee93cb26b5803feafbc51948a8c3c02a3",
      "s": "0x4c096a47fef8b1e79302ec466c55540b268eba948b8f58d861e03e2bb35c86e6",
      "v": 27,
      "creates": null,
      "raw": "0xf86b01850ba43b740082520894b106ad951726ba2d8685a22edc6fb37e7483622f877c58ada8ff2000801ba0768350b8c868f5437fbefa9110bb841ee93cb26b5803feafbc51948a8c3c02a3a04c096a47fef8b1e79302ec466c55540b268eba948b8f58d861e03e2bb35c86e6",
      "networkId": 0,
      "chainId": 0
    },
    {
      "hash": "0x882fa19f88c7efda519b917a8cf592b56907a9eeb01d77f28a65221668fb02be",
      "blockHash": "0xdb239320fa9145bee112ab38bd3f775deabddabc0be8abb6134a9eff3ee35ae6",
      "blockNumber": 64536,
      "transactionIndex": 3,
      "confirmations": null,
      "from": "0x50fa732a1Ae48d282Aa68468f95Ada1DB6CdC052",
      "gasPrice": {
        "_hex": "0xba43b7400"
      },
      "gasLimit": {
        "_hex": "0x5208"
      },
      "to": "0x694724A9FDa93362A9046F959e129756607fb499",
      "value": {
        "_hex": "0x937bda828f9000"
      },
      "nonce": 1,
      "data": "0x",
      "r": "0xbab658a7bc97b0a26a225c20240257cb1c6b3eab209880a4380449342cd6a9fb",
      "s": "0x1beedc8ca894e82d4cedb6b9c3970ab2925139537e98349a71a3eb227822058d",
      "v": 27,
      "creates": null,
      "raw": "0xf86b01850ba43b740082520894694724a9fda93362a9046f959e129756607fb49987937bda828f9000801ba0bab658a7bc97b0a26a225c20240257cb1c6b3eab209880a4380449342cd6a9fba01beedc8ca894e82d4cedb6b9c3970ab2925139537e98349a71a3eb227822058d",
      "networkId": 0,
      "chainId": 0
    }
  ]
}