{
  "hash": "0x453e7bd06080727aa17831aa2a23c200c8a91f5461cafe6a1c6efb6ceb26c363",
  "parentHash": "0xce763b616d4e4ce907c995a3128e5617e90a541893c4f4debafe3dfe4739afda",
  "number": 48482,
  "timestamp": 1438957810,
  "nonce": "0x5a470a262f840083",
  "difficulty": 1464297621435,
  "gasLimit": {
    "_hex": "0x17e9f"
  },
  "gasUsed": {
    "_hex": "0xa674"
  },
  "miner": "0xe6A7a1d47ff21B6321162AEA7C6CB457D5476Bca",
  "extraData": "0x657468706f6f6c2e6f7267",
  "transactions": [
    {
      "hash": "0x7f0a78c711a4eb0c9b2c312149c2d831e6de271fa4b72f61d5744b9f10ba1d17",
      "blockHash": "0x453e7bd06080727aa17831aa2a23c200c8a91f5461cafe6a1c6efb6ceb26c363",
      "blockNumber": 48482,
      "transactionIndex": 0,
      "confirmations": null,
      "from": "0x25A0be9f6fCbDE4F61024B86a33dd80F7cbB3cEc",
      "gasPrice": {
        "_hex": "0xd0a4f3320"
      },
      "gasLimit": {
        "_hex": "0x15f90"
      },
      "to": "0x2910543Af39abA0Cd09dBb2D50200b3E800A63D2",
      "value": {
        "_hex": "0x1794d673456eec0000"
      },
      "nonce": 0,
      "data": "0x454e51343033375047",
      "r": "0x3fb0890a24e4a709562fa22c14c42dcb65b722063967183c48783b751160354d",
      "s": "0x732f03443302ce508a9c3bad2ed9e95595fb8c034e7e5ccd448ee5782a9ca974",
      "v": 27,
      "creates": null,
      "raw": "0xf87780850d0a4f332083015f90942910543af39aba0cd09dbb2d50200b3e800a63d2891794d673456eec000089454e513430333750471ba03fb0890a24e4a709562fa22c14c42dcb65b722063967183c48783b751160354da0732f03443302ce508a9c3bad2ed9e95595fb8c034e7e5ccd448ee5782a9ca974",
      "networkId": 0,
      "chainId": 0
    },
    {
      "hash": "0xf0d5971c32e1d32c944874847be7ae28a6d0f42588210eb798200b16880934b9",
      "blockHash": "0x453e7bd06080727aa17831aa2a23c200c8a91f5461cafe6a1c6efb6ceb26c363",
      "blockNumber": 48482,
      "transactionIndex": 1,
      "confirmations": null,
      "from": "0xDE06D5EA777a4eb1475e605dbcBf43444e8037ea",
      "gasPrice": {
        "_hex": "0x10e43e3b6f8"
      },
      "gasLimit": {
        "_hex": "0x55f0"
      },
      "to": "0x81B0E1aC46A7dfED98187796D0E55Ac64b01F60C",
      "value": {
        "_hex": "0xa9665a2833e2c780000"
      },
      "nonce": 2,
      "data": "0x",
      "r": "0x567600754b216b8bd0774eadebbcf34e92dab0014f52374d3abb73cef164397a",
      "s": "0x2f427aa9151a64a36ec0a4c1ccdfa491f7925db74e2214a9eca7321d8e67b532",
      "v": 28,
      "creates": null,
      "raw": "0xf86f0286010e43e3b6f88255f09481b0e1ac46a7dfed98187796d0e55ac64b01f60c8a0a9665a2833e2c780000801ca0567600754b216b8bd0774eadebbcf34e92dab0014f52374d3abb73cef164397aa02f427aa9151a64a36ec0a4c1ccdfa491f7925db74e2214a9eca7321d8e67b532",
      "networkId": 0,
      "chainId": 0
    }
  ]
}