{
  "hash": "0x750390af2f0c60e4e6f8c62500397fe93dc40dc01875139f4bab3986f608b882",
  "parentHash": "0xfa9e79c70660abdeb6de8d170f7bd911df615189db471232e4dc84ade2fac3fe",
  "number": 115759,
  "timestamp": 1440062935,
  "nonce": "0x8f7745205c928105",
  "difficulty": 4560346936000,
  "gasLimit": {
    "_hex": "0x2fefd8"
  },
  "gasUsed": {
    "_hex": "0xa410"
  },
  "miner": "0xe6A7a1d47ff21B6321162AEA7C6CB457D5476Bca",
  "extraData": "0x476574682f76312e302e312d38326566323666362f6c696e75782f676f312e34",
  "transactions": [
    {
      "hash": "0xde1444965e634c2071a308eace2089fcb4772760abb1b845ff46f27716fb5791",
      "blockHash": "0x750390af2f0c60e4e6f8c62500397fe93dc40dc01875139f4bab3986f608b882",
      "blockNumber": 115759,
      "transactionIndex": 0,
      "confirmations": null,
      "from": "0x32Be343B94f860124dC4fEe278FDCBD38C102D88",
      "gasPrice": {
        "_hex": "0xcedaf49eb"
      },
      "gasLimit": {
        "_hex": "0x5208"
      },
      "to": "0xddD31eb39D56D51B50172884Bd2b88e1f6264F95",
      "value": {
        "_hex": "0xdbd2fc137a30000"
      },
      "nonce": 1445,
      "data": "0x",
      "r": "0xbd126b022e17dcc703a6f97f7d68380407c7d0d7c0f283e00d668aed90cbd62c",
      "s": "0x7674f9c62f2f25bbf82e1e5303df1aeebfdf519cf04b7a06ca122718f4eaa72e",
      "v": 28,
      "creates": null,
      "raw": "0xf86e8205a5850cedaf49eb82520894ddd31eb39d56d51b50172884bd2b88e1f6264f95880dbd2fc137a30000801ca0bd126b022e17dcc703a6f97f7d68380407c7d0d7c0f283e00d668aed90cbd62ca07674f9c62f2f25bbf82e1e5303df1aeebfdf519cf04b7a06ca122718f4eaa72e",
      "networkId": 0,
      "chainId": 0
    },
    {
      "hash": "0x09df623757c14dabbf675f0cf1d5e5b70dd910626a0b597ab12c38726e788b35",
      "blockHash": "0x750390af2f0c60e4e6f8c62500397fe93dc40dc01875139f4bab3986f608b882",
      "blockNumber": 115759,
      "transactionIndex": 1,
      "confirmations": null,
      "from": "0x32Be343B94f860124dC4fEe278FDCBD38C102D88",
      "gasPrice": {
        "_hex": "0xcedaf49eb"
      },
      "gasLimit": {
        "_hex": "0x5208"
      },
      "to": "0x08c0b6B4f8d0E1b81CB6C0675304F07324B26C59",
      "value": {
        "_hex": "0x6ccd46763f10000"
      },
      "nonce": 1446,
      "data": "0x",
      "r": "0xb3ed539a2c2a7a14026f1dc12137045620588a7e6b0b347c06045a663db2053a",
      "s": "0x21520e21edf6b899e31fe3bc6b31d2bd35d2a015d8241719c6441038dc9ac22e",
      "v": 27,
      "creates": null,
      "raw": "0xf86e8205a6850cedaf49eb8252089408c0b6b4f8d0e1b81cb6c0675304f07324b26c598806ccd46763f10000801ba0b3ed539a2c2a7a14026f1dc12137045620588a7e6b0b347c06045a663db2053aa021520e21edf6b899e31fe3bc6b31d2bd35d2a015d8241719c6441038dc9ac22e",
      "networkId": 0,
      "chainId": 0
    }
  ]
}