{
  "hash": "0x5212e7825094953a377c57f960744f308f6be3039ad7163e45f3e778715460d5",
  "parentHash": "0x17c54ccb8705a45f46d1bc9ded4d7a8bf48abccfd7bce317a0bf289f30a7d07f",
  "number": 89177,
  "timestamp": 1439619305,
  "nonce": "0xa96a91d1fb1efc9f",
  "difficulty": 3285480167863,
  "gasLimit": {
    "_hex": "0x2fefd5"
  },
  "gasUsed": {
    "_hex": "0x5208"
  },
  "miner": "0x55bAf64fc9eAccFFd7Cc643BB61142E1C6ac093e",
  "extraData": "0x",
  "transactions": [
    {
      "hash": "0x255ab00643795e7e44299413844d858f87746cb295b49d08c6d10556b939a847",
      "blockHash": "0x5212e7825094953a377c57f960744f308f6be3039ad7163e45f3e778715460d5",
      "blockNumber": 89177,
      "transactionIndex": 0,
      "confirmations": null,
      "from": "0xB01B182cE2e2d17c736b9e7Bcf28cF3871Fc67aC",
      "gasPrice": {
        "_hex": "0xba43b7400"
      },
      "gasLimit": {
        "_hex": "0x5208"
      },
      "to": "0xC47Aaa860008be6f65B58c6C6E02a84e666EfE31",
      "value": {
        "_hex": "0xa8cbd12164d568f0"
      },
      "nonce": 0,
      "data": "0x",
      "r": "0xb0418be9fd5530adb455585226194300e99feefe3f4658ea5d87e30ddc77c314",
      "s": "0x0ffe8f12ba5be0e69e30ae96620b12a985b92f2a5fbd9336afd24aefdbe2cc18",
      "v": 27,
      "creates": null,
      "raw": "0xf86c80850ba43b740082520894c47aaa860008be6f65b58c6c6e02a84e666efe3188a8cbd12164d568f0801ba0b0418be9fd5530adb455585226194300e99feefe3f4658ea5d87e30ddc77c314a00ffe8f12ba5be0e69e30ae96620b12a985b92f2a5fbd9336afd24aefdbe2cc18",
      "networkId": 0,
      "chainId": 0
    }
  ]
}