{
  "hash": "0x28c40fc395bafe10e7cd6954e3a85d2f84397673d59eb9ed43f6f06552008285",
  "parentHash": "0x5e68e18960963efbea41250156198185a5b4976277904ad1979c5a50f08b18a5",
  "number": 84258,
  "timestamp": 1439547109,
  "nonce": "0x80895b06b99ccde2",
  "difficulty": 2531643539586,
  "gasLimit": {
    "_hex": "0x2fefd8"
  },
  "gasUsed": {
    "_hex": "0x61698"
  },
  "miner": "0xe6A7a1d47ff21B6321162AEA7C6CB457D5476Bca",
  "extraData": "0x476574682f76312e302e312d38326566323666362f6c696e75782f676f312e34",
  "transactions": [
    {
      "hash": "0x7474d562ccbcf9e30508a5001ea5b7a1d3bc1584031df0a7f92ccf65d6623e62",
      "blockHash": "0x28c40fc395bafe10e7cd6954e3a85d2f84397673d59eb9ed43f6f06552008285",
      "blockNumber": 84258,
      "transactionIndex": 0,
      "confirmations": null,
      "from": "0x4b0424c09BaC4Ee3f4376f1D3fA354E8Cb2D3171",
      "gasPrice": {
        "_hex": "0xdf345b059"
      },
      "gasLimit": {
        "_hex": "0x15f90"
      },
      "to": "0x34d34F0a638F6991e4E2536F41295DF6E934A646",
      "value": {
        "_hex": "0x375f53dc2dcf0000"
      },
      "nonce": 9,
      "data": "0x",
      "r": "0x5970da7ff428d049e27f7071c3e719548217030ebc1a1fe503c226f586fd400b",
      "s": "0x23ee2b5512e76b18f5a6f212cdd10f96c1987dbaaf951ad45949d599a26c0d58",
      "v": 28,
      "creates": null,
      "raw": "0xf86d09850df345b05983015f909434d34f0a638f6991e4e2536f41295df6e934a64688375f53dc2dcf0000801ca05970da7ff428d049e27f7071c3e719548217030ebc1a1fe503c226f586fd400ba023ee2b5512e76b18f5a6f212cdd10f96c1987dbaaf951ad45949d599a26c0d58",
      "networkId": 0,
      "chainId": 0
    },
    {
      "hash": "0x546fc317672479c9091571e3f99193018bfca7829d6edee9eab76fad65a30bc7",
      "blockHash": "0x28c40fc395bafe10e7cd6954e3a85d2f84397673d59eb9ed43f6f06552008285",
      "blockNumber": 84258,
      "transactionIndex": 1,
      "confirmations": null,
      "from": "0xe6A7a1d47ff21B6321162AEA7C6CB457D5476Bca",
      "gasPrice": {
        "_hex": "0xd668e0c33"
      },
      "gasLimit": {
        "_hex": "0x55f0"
      },
      "to": "0x8f30e76a8Ddf9FaEf40fd58197421716764B72D8",
      "value": {
        "_hex": "0x131425c975908fe0"
      },
      "nonce": 1442,
      "data": "0x",
      "r": "0xe42d27bc70e7eb6b042bb5ab8c998cbca60123d5cd7767ef9a5a8df71fc2f492",
      "s": "0x2f77b52fa4615b76547ac8e76237cbea6948f18c3aff377bfc8b406a9e8eb648",
      "v": 27,
      "creates": null,
      "raw": "0xf86e8205a2850d668e0c338255f0948f30e76a8ddf9faef40fd58197421716764b72d888131425c975908fe0801ba0e42d27bc70e7eb6b042bb5ab8c998cbca60123d5cd7767ef9a5a8df71fc2f492a02f77b52fa4615b76547ac8e76237cbea6948f18c3aff377bfc8b406a9e8eb648",
      "networkId": 0,
      "chainId": 0
    },
    {
      "hash": "0xe00f2ffa9866c6fa0fb413cd984c63393d27e1a73a97aff39a47220e7b2124ca",
      "blockHash": "0x28c40fc395bafe10e7cd6954e3a85d2f84397673d59eb9ed43f6f06552008285",
      "blockNumber": 84258,
      "transactionIndex": 2,
      "confirmations": null,
      "from": "0xe6A7a1d47ff21B6321162AEA7C6CB457D5476Bca",
      "gasPrice": {
        "_hex": "0xd668e0c33"
      },
      "gasLimit": {
        "_hex": "0x55f0"
      },
      "to": "0xaEcF258f8242D3806087bE4a8F10Bc00093876b1",
      "value": {
        "_hex": "0x13663bb3a4bfdff8"
      },
      "nonce": 1443,
      "data": "0x",
      "r": "0x93a92007588fec08122961711ec2daef93a24c8430f8168780c5b6771b107302",
      "s": "0x0a2de854cd51d6be28c4bcc31e369ea6546b55f654cdec06fff413437efc2310",
      "v": 27,
      "creates": null,
      "raw": "0xf86e8205a3850d668e0c338255f094aecf258f8242d3806087be4a8f10bc00093876b18813663bb3a4bfdff8801ba093a92007588fec08122961711ec2daef93a24c8430f8168780c5b6771b107302a00a2de854cd51d6be28c4bcc31e369ea6546b55f654cdec06fff413437efc2310",
      "networkId": 0,
      "chainId": 0
    },
    {
      "hash": "0xbbf2d17960bd2a1b1a6966ab1802939a05d3402a6963a009667feeb214b21f80",
      "blockHash": "0x28c40fc395bafe10e7cd6954e3a85d2f84397673d59eb9ed43f6f06552008285",
      "blockNumber": 84258,
      "transactionIndex": 3,
      "confirmations": null,
      "from": "0xe6A7a1d47ff21B6321162AEA7C6CB457D5476Bca",
      "gasPrice": {
        "_hex": "0xd668e0c33"
      },
      "gasLimit": {
        "_hex": "0x55f0"
      },
      "to": "0x0A45ad2348efF97fe7C25C87d65464aB3dEbF94F",
      "value": {
        "_hex": "0x1389fcf703325610"
      },
      "nonce": 1444,
      "data": "0x",
      "r": "0x3fc408b749d54030fed400c9d2632b7a812dc2754e76c8e2f3b9fd3bad29cfc2",
      "s": "0x1d1f0e97f9c8a177752fd24e785234fca46f6e48eb00d6e674f2d5f62c29ae9d",
      "v": 27,
      "creates": null,
      "raw": "0xf86e8205a4850d668e0c338255f0940a45ad2348eff97fe7c25c87d65464ab3debf94f881389fcf703325610801ba03fc408b749d54030fed400c9d2632b7a812dc2754e76c8e2f3b9fd3bad29cfc2a01d1f0e97f9c8a177752fd24e785234fca46f6e48eb00d6e674f2d5f62c29ae9d",
      "networkId": 0,
      "chainId": 0
    },
    {
      "hash": "0x277ccb1fd0a8df735c50497951a60706eb7eabf9d6f8ae9a02dacadbcd5b7178",
      "blockHash": "0x28c40fc395bafe10e7cd6954e3a85d2f84397673d59eb9ed43f6f06552008285",
      "blockNumber": 84258,
      "transactionIndex": 4,
      "confirmations": null,
      "from": "0xe6A7a1d47ff21B6321162AEA7C6CB457D5476Bca",
      "gasPrice": {
        "_hex": "0xd668e0c33"
      },
      "gasLimit": {
        "_hex": "0x55f0"
      },
      "to": "0x58A17909eDC491750161050e0F3E4f0eE68Fe669",
      "value": {
        "_hex": "0x138b7118bc85a180"
      },
      "nonce": 1445,
      "data": "0x",
      "r": "0x00e1271620dcc19799f39edcf07b0cd37d4efa98682a6138aaafbb7241ac312b",
      "s": "0x02f75c3a83ddabdcd77efdc0d8ba4480b9b7113da62517acc76f9ff05ea0fb76",
      "v": 27,
      "creates": null,
      "raw": "0xf86d8205a5850d668e0c338255f09458a17909edc491750161050e0f3e4f0ee68fe66988138b7118bc85a180801b9fe1271620dcc19799f39edcf07b0cd37d4efa98682a6138aaafbb7241ac312ba002f75c3a83ddabdcd77efdc0d8ba4480b9b7113da62517acc76f9ff05ea0fb76",
      "networkId": 0,
      "chainId": 0
    },
    {
      "hash": "0xf04f665d4628188d219696abcfc281786fac6b21f054ea5968eaf78ffa414501",
      "blockHash": "0x28c40fc395bafe10e7cd6954e3a85d2f84397673d59eb9ed43f6f06552008285",
      "blockNumber": 84258,
      "transactionIndex": 5,
      "confirmations": null,
      "from": "0xe6A7a1d47ff21B6321162AEA7C6CB457D5476Bca",
      "gasPrice": {
        "_hex": "0xd668e0c33"
      },
      "gasLimit": {
        "_hex": "0x55f0"
      },
      "to": "0x2D529425EDf49CF53e8b7E52b10177D9160f715e",
      "value": {
        "_hex": "0x13d6e2431f436f00"
      },
      "nonce": 1446,
      "data": "0x",
      "r": "0x6a9c4e8b7da60223c67cd87022ce1515c98981c462bf3fc211fd7fe68af4c874",
      "s": "0x634433b8ac8d371e54c34fff67cb4285f930a30c8e380aeedf0833b0d4db8098",
      "v": 28,
      "creates": null,
      "raw": "0xf86e8205a6850d668e0c338255f0942d529425edf49cf53e8b7e52b10177d9160f715e8813d6e2431f436f00801ca06a9c4e8b7da60223c67cd87022ce1515c98981c462bf3fc211fd7fe68af4c874a0634433b8ac8d371e54c34fff67cb4285f930a30c8e380aeedf0833b0d4db8098",
      "networkId": 0,
      "chainId": 0
    },
    {
      "hash": "0x32f2ef624092d47e5c3c45ce3b14fb42c5d22bda221ff92e1b3f22847a3a60ae",
      "blockHash": "0x28c40fc395bafe10e7cd6954e3a85d2f84397673d59eb9ed43f6f06552008285",
      "blockNumber": 84258,
      "transactionIndex": 6,
      "confirmations": null,
      "from": "0xe6A7a1d47ff21B6321162AEA7C6CB457D5476Bca",
      "gasPrice": {
        "_hex": "0xd668e0c33"
      },
      "gasLimit": {
        "_hex": "0x55f0"
      },
      "to": "0x3Fef71cB8Ac8711ECa473049D813b003A76D1eaA",
      "value": {
        "_hex": "0x13ee1f03efb1e130"
      },
      "nonce": 1447,
      "data": "0x",
      "r": "0x005b27c6013d486709883491b4c2679207d3376786a474de2762e8c7466a7c66",
      "s": "0x26d84c98b7aa997a7b9e1dd73c3b5ba9aa3f4bfea24ca856c21a9af124bc57e6",
      "v": 27,
      "creates": null,
      "raw": "0xf86d8205a7850d668e0c338255f0943fef71cb8ac8711eca473049d813b003a76d1eaa8813ee1f03efb1e130801b9f5b27c6013d486709883491b4c2679207d3376786a474de2762e8c7466a7c66a026d84c98b7aa997a7b9e1dd73c3b5ba9aa3f4bfea24ca856c21a9af124bc57e6",
      "networkId": 0,
      "chainId": 0
    },
    {
      "hash": "0x603341aa830186f5d69ebfc8de837c876457eb5fb16d44f3540b7939accca921",
      "blockHash": "0x28c40fc395bafe10e7cd6954e3a85d2f84397673d59eb9ed43f6f06552008285",
      "blockNumber": 84258,
      "transactionIndex": 7,
      "confirmations": null,
      "from": "0xe6A7a1d47ff21B6321162AEA7C6CB457D5476Bca",
      "gasPrice": {
        "_hex": "0xd668e0c33"
      },
      "gasLimit": {
        "_hex": "0x55f0"
      },
      "to": "0x2AC36246B388F762Fdc3CA30E749A1494fDA99Ee",
      "value": {
        "_hex": "0x13f75c144124bcd0"
      },
      "nonce": 1448,
      "data": "0x",
      "r": "0xd95ba105bebac91df0690f4be054633f24007d5ef94e11236cc6b6db23709cbe",
      "s": "0x64860894ffdfab47b36507796aad22c44b8d0641734983af83b5a5a91ab70a96",
      "v": 27,
      "creates": null,
      "raw": "0xf86e8205a8850d668e0c338255f0942ac36246b388f762fdc3ca30e749a1494fda99ee8813f75c144124bcd0801ba0d95ba105bebac91df0690f4be054633f24007d5ef94e11236cc6b6db23709cbea064860894ffdfab47b36507796aad22c44b8d0641734983af83b5a5a91ab70a96",
      "networkId": 0,
      "chainId": 0
    },
    {
      "hash": "0x5617d7f966bccafe260fe48b43efe57dc05813e7752b5590dd9cd2333856d973",
      "blockHash": "0x28c40fc395bafe10e7cd6954e3a85d2f84397673d59eb9ed43f6f06552008285",
      "blockNumber": 84258,
      "transactionIndex": 8,
      "confirmations": null,
      "from": "0xe6A7a1d47ff21B6321162AEA7C6CB457D5476Bca",
      "gasPrice": {
        "_hex": "0xd668e0c33"
      },
      "gasLimit": {
        "_hex": "0x55f0"
      },
      "to": "0x0C86a1460618c5186d7514aADAB51815368c5c61",
      "value": {
        "_hex": "0x1453c17a3d00531c"
      },
      "nonce": 1449,
      "data": "0x",
      "r": "0xba6367767fc8283ae601b9f1de3a472be0e88281b6b0aa9b6bdc5fff0fdc28e4",
      "s": "0x5d44e72e7ac8bac96e62fe426d9d4c48c8ea8e23c7d013617016a96455eb1ee9",
      "v": 27,
      "creates": null,
      "raw": "0xf86e8205a9850d668e0c338255f0940c86a1460618c5186d7514aadab51815368c5c61881453c17a3d00531c801ba0ba6367767fc8283ae601b9f1de3a472be0e88281b6b0aa9b6bdc5fff0fdc28e4a05d44e72e7ac8bac96e62fe426d9d4c48c8ea8e23c7d013617016a96455eb1ee9",
      "networkId": 0,
      "chainId": 0
    },
    {
      "hash": "0x32dde2b23f5e2e8c2d0c1163eba82b8216cfd1c59974403e51ad9bd3de146541",
      "blockHash": "0x28c40fc395bafe10e7cd6954e3a85d2f84397673d59eb9ed43f6f06552008285",
      "blockNumber": 84258,
      "transactionIndex": 9,
      "confirmations": null,
      "from": "0xe6A7a1d47ff21B6321162AEA7C6CB457D5476Bca",
      "gasPrice": {
        "_hex": "0xd668e0c33"
      },
      "gasLimit": {
        "_hex": "0x55f0"
      },
      "to": "0x923707da8Dd7Ff41a0bDD87b62c9E5DfA9c420a5",
      "value": {
        "_hex": "0x1460cef1d4fe68fc"
      },
      "nonce": 1450,
      "data": "0x",
      "r": "0x403d79217ec6f1af5b11e87fa5c6e03680c34280601e5e524a3acf404c7cc81f",
      "s": "0x2f91ea284965e107141fd84b97ce92f9c82c39e879791bf7609323f236556261",
      "v": 28,
      "creates": null,
      "raw": "0xf86e8205aa850d668e0c338255f094923707da8dd7ff41a0bdd87b62c9e5dfa9c420a5881460cef1d4fe68fc801ca0403d79217ec6f1af5b11e87fa5c6e03680c34280601e5e524a3acf404c7cc81fa02f91ea284965e107141fd84b97ce92f9c82c39e879791bf7609323f236556261",
      "networkId": 0,
      "chainId": 0
    },
    {
      "hash": "0xe2089a08a652490d97d20482d8a6dbd3cc940f06115c1017020b47f1a735af4f",
      "blockHash": "0x28c40fc395bafe10e7cd6954e3a85d2f84397673d59eb9ed43f6f06552008285",
      "blockNumber": 84258,
      "transactionIndex": 10,
      "confirmations": null,
      "from": "0xe6A7a1d47ff21B6321162AEA7C6CB457D5476Bca",
      "gasPrice": {
        "_hex": "0xd668e0c33"
      },
      "gasLimit": {
        "_hex": "0x55f0"
      },
      "to": "0x090d50347263c6E24312c2A4f42C456f4AcC40Ca",
      "value": {
        "_hex": "0x149687567bf5c914"
      },
      "nonce": 1451,
      "data": "0x",
      "r": "0xd90c3a9023b2507b8ee9a245c21e487b02fd160d4b5722608f652e55a6db28ec",
      "s": "0x5e8affc1d5ed296e12a686de5d6018fd601f735aeab470f43dcde6d9a409b95b",
      "v": 27,
      "creates": null,
      "raw": "0xf86e8205ab850d668e0c338255f094090d50347263c6e24312c2a4f42c456f4acc40ca88149687567bf5c914801ba0d90c3a9023b2507b8ee9a245c21e487b02fd160d4b5722608f652e55a6db28eca05e8affc1d5ed296e12a686de5d6018fd601f735aeab470f43dcde6d9a409b95b",
      "networkId": 0,
      "chainId": 0
    },
    {
      "hash": "0xfdadbb2b769dfd928a8f61678c57f6610b4d7f4e9fb85323a2dcaf4f816b70b6",
      "blockHash": "0x28c40fc395bafe10e7cd6954e3a85d2f84397673d59eb9ed43f6f06552008285",
      "blockNumber": 84258,
      "transactionIndex": 11,
      "confirmations": null,
      "from": "0xe6A7a1d47ff21B6321162AEA7C6CB457D5476Bca",
      "gasPrice": {
        "_hex": "0xd668e0c33"
      },
      "gasLimit": {
        "_hex": "0x55f0"
      },
      "to": "0x3125489a20C268f9Bc735f8e0909d21aa7c098fD",
      "value": {
        "_hex": "0x14d0ec2431e3f9f0"
      },
      "nonce": 1452,
      "data": "0x",
      "r": "0x5f9cfdfdd7bd7c23e770e899e87443505c708f213a19a8f25e2014e4a309150d",
      "s": "0x3cee745ec42b8796e17bc1a0121b7caae96dfa0938c77c5c08fd52a941532496",
      "v": 28,
      "creates": null,
      "raw": "0xf86e8205ac850d668e0c338255f0943125489a20c268f9bc735f8e0909d21aa7c098fd8814d0ec2431e3f9f0801ca05f9cfdfdd7bd7c23e770e899e87443505c708f213a19a8f25e2014e4a309150da03cee745ec42b8796e17bc1a0121b7caae96dfa0938c77c5c08fd52a941532496",
      "networkId": 0,
      "chainId": 0
    },
    {
      "hash": "0xfdd1a191164d872ec2bccb7b058ea4229d5b57a60f43a6552046f8b85f42135d",
      "blockHash": "0x28c40fc395bafe10e7cd6954e3a85d2f84397673d59eb9ed43f6f06552008285",
      "blockNumber": 84258,
      "transactionIndex": 12,
      "confirmations": null,
      "from": "0xe6A7a1d47ff21B6321162AEA7C6CB457D5476Bca",
      "gasPrice": {
        "_hex": "0xd668e0c33"
      },
      "gasLimit": {
        "_hex": "0x55f0"
      },
      "to": "0xE4CD55088b8B0dBFeC3eE73d554Be6592a197D39",
      "value": {
        "_hex": "0x15217353b5d17448"
      },
      "nonce": 1453,
      "data": "0x",
      "r": "0x9ad54a379bd4abf2d05ebea72895b64a6e66ab84121e216de6703f18b5e96286",
      "s": "0x7876144fe5567d16eaf85ff4bcd6698ba207b3daa302646198f3abbb385125e9",
      "v": 28,
      "creates": null,
      "raw": "0xf86e8205ad850d668e0c338255f094e4cd55088b8b0dbfec3ee73d554be6592a197d398815217353b5d17448801ca09ad54a379bd4abf2d05ebea72895b64a6e66ab84121e216de6703f18b5e96286a07876144fe5567d16eaf85ff4bcd6698ba207b3daa302646198f3abbb385125e9",
      "networkId": 0,
      "chainId": 0
    },
    {
      "hash": "0x9d72413cd0d1fe999cac51d2acfc6d5060e3843a102df8ec09d3e978294d37a2",
      "blockHash": "0x28c40fc395bafe10e7cd6954e3a85d2f84397673d59eb9ed43f6f06552008285",
      "blockNumber": 84258,
      "transactionIndex": 13,
      "confirmations": null,
      "from": "0xe6A7a1d47ff21B6321162AEA7C6CB457D5476Bca",
      "gasPrice": {
        "_hex": "0xd668e0c33"
      },
      "gasLimit": {
        "_hex": "0x55f0"
      },
      "to": "0xE25E3A1947405a1F82dD8e3048a9cA471dc782E1",
      "value": {
        "_hex": "0x152d1af973a80420"
      },
      "nonce": 1454,
      "data": "0x",
      "r": "0x11940106c29bb5b5f9baa4012a710fb1d44f40726815e8cd0e515e8a8c0dec6d",
      "s": "0x1d3dca4b5ec0b053d3bc692699cc4e68d6168bb99a2e0d11e15af87a5d689df6",
      "v": 28,
      "creates": null,
      "raw": "0xf86e8205ae850d668e0c338255f094e25e3a1947405a1f82dd8e3048a9ca471dc782e188152d1af973a80420801ca011940106c29bb5b5f9baa4012a710fb1d44f40726815e8cd0e515e8a8c0dec6da01d3dca4b5ec0b053d3bc692699cc4e68d6168bb99a2e0d11e15af87a5d689df6",
      "networkId": 0,
      "chainId": 0
    },
    {
      "hash": "0x07b5f1aea8a604c9835637e523e305520db37c7c8458d43f26dcee6609499c73",
      "blockHash": "0x28c40fc395bafe10e7cd6954e3a85d2f84397673d59eb9ed43f6f06552008285",
      "blockNumber": 84258,
      "transactionIndex": 14,
      "confirmations": null,
      "from": "0xe6A7a1d47ff21B6321162AEA7C6CB457D5476Bca",
      "gasPrice": {
        "_hex": "0xd668e0c33"
      },
      "gasLimit": {
        "_hex": "0x55f0"
      },
      "to": "0x55d6bb729E3D6128B9032d03897D7C85cBB4e688",
      "value": {
        "_hex": "0x1549299cedb1ed1c"
      },
      "nonce": 1455,
      "data": "0x",
      "r": "0x5e91cfec27e50856c0f9d5a591f6635f5e4014ff7ea5109da462763b6f1f9c95",
      "s": "0x4bffa61083f6ad4cda25b8523c711846d053b37ebabadc40e75d7fb7c1302b11",
      "v": 27,
      "creates": null,
      "raw": "0xf86e8205af850d668e0c338255f09455d6bb729e3d6128b9032d03897d7c85cbb4e688881549299cedb1ed1c801ba05e91cfec27e50856c0f9d5a591f6635f5e4014ff7ea5109da462763b6f1f9c95a04bffa61083f6ad4cda25b8523c711846d053b37ebabadc40e75d7fb7c1302b11",
      "networkId": 0,
      "chainId": 0
    },
    {
      "hash": "0x1a9d4545027604cd4352785dc041fb8be40f3d486841b5df487fe97e28259d64",
      "blockHash": "0x28c40fc395bafe10e7cd6954e3a85d2f84397673d59eb9ed43f6f06552008285",
      "blockNumber": 84258,
      "transactionIndex": 15,
      "confirmations": null,
      "from": "0xe6A7a1d47ff21B6321162AEA7C6CB457D5476Bca",
      "gasPrice": {
        "_hex": "0xd668e0c33"
      },
      "gasLimit": {
        "_hex": "0x55f0"
      },
      "to": "0x10c4712a317A10F60fE9347b199400d6BaA89558",
      "value": {
        "_hex": "0x15778a200100a414"
      },
      "nonce": 1456,
      "data": "0x",
      "r": "0x232f6d8b4311207d16040322d6f0d78c00a1d83a4dd9feb93824cf84f9510bdc",
      "s": "0x5953e91e1547339986880367a12ff1c30626a7fcf45417d8980cd0d931c35250",
      "v": 28,
      "creates": null,
      "raw": "0xf86e8205b0850d668e0c338255f09410c4712a317a10f60fe9347b199400d6baa895588815778a200100a414801ca0232f6d8b4311207d16040322d6f0d78c00a1d83a4dd9feb93824cf84f9510bdca05953e91e1547339986880367a12ff1c30626a7fcf45417d8980cd0d931c35250",
      "networkId": 0,
      "chainId": 0
    },
    {
      "hash": "0x6136179d4ec2dacb50316722102256235d50168188b0c01f1e3daa58bbe1619e",
      "blockHash": "0x28c40fc395bafe10e7cd6954e3a85d2f84397673d59eb9ed43f6f06552008285",
      "blockNumber": 84258,
      "transactionIndex": 16,
      "confirmations": null,
      "from": "0xe6A7a1d47ff21B6321162AEA7C6CB457D5476Bca",
      "gasPrice": {
        "_hex": "0xd668e0c33"
      },
      "gasLimit": {
        "_hex": "0x55f0"
      },
      "to": "0x9FA0960220d2d51D54f755501E391Da140c2EF63",
      "value": {
        "_hex": "0x1588399b9aa5271c"
      },
      "nonce": 1457,
      "data": "0x",
      "r": "0x409022caad860e8cd7938e23912359eaf157acb05e7be9bade4ad80d37169835",
      "s": "0x0b702fea29cd7335b68ff56aa889d41c26003e91b8e89a35a808f4804e34ea17",
      "v": 27,
      "creates": null,
      "raw": "0xf86e8205b1850d668e0c338255f0949fa0960220d2d51d54f755501e391da140c2ef63881588399b9aa5271c801ba0409022caad860e8cd7938e23912359eaf157acb05e7be9bade4ad80d37169835a00b702fea29cd7335b68ff56aa889d41c26003e91b8e89a35a808f4804e34ea17",
      "networkId": 0,
      "chainId": 0
    },
    {
      "hash": "0x236594db507eef846e03f5fe8167e0ea1e22a7f895e7fc07830d546d518976c1",
      "blockHash": "0x28c40fc395bafe10e7cd6954e3a85d2f84397673d59eb9ed43f6f06552008285",
      "blockNumber": 84258,
      "transactionIndex": 17,
      "confirmations": null,
      "from": "0xe6A7a1d47ff21B6321162AEA7C6CB457D5476Bca",
      "gasPrice": {
        "_hex": "0xd668e0c33"
      },
      "gasLimit": {
        "_hex": "0x55f0"
      },
      "to": "0x45fe0E379195681d4C1002eA4Def348C19a320df",
      "value": {
        "_hex": "0x15aa1680e8475e20"
      },
      "nonce": 1458,
      "data": "0x",
      "r": "0x60f65fa024fd09fd8b9a862061269a8ad317fad8fbb618482c62709bff73fbe0",
      "s": "0x6ec56d92abc3ed3d176c37b10c8909635940f7b2e92e8fd91903124f4e88fb88",
      "v": 28,
      "creates": null,
      "raw": "0xf86e8205b2850d668e0c338255f09445fe0e379195681d4c1002ea4def348c19a320df8815aa1680e8475e20801ca060f65fa024fd09fd8b9a862061269a8ad317fad8fbb618482c62709bff73fbe0a06ec56d92abc3ed3d176c37b10c8909635940f7b2e92e8fd91903124f4e88fb88",
      "networkId": 0,
      "chainId": 0
    },
    {
      "hash": "0xb7f656583b4607f00c7c42f53f871803268a8079c5b68faed62ab6d2fb9db870",
      "blockHash": "0x28c40fc395bafe10e7cd6954e3a85d2f84397673d59eb9ed43f6f06552008285",
      "blockNumber": 84258,
      "transactionIndex": 18,
      "confirmations": null,
      "from": "0x80bdc955a46D4a80d5EE36Bd4ae88cDE91aCaE41",
      "gasPrice": {
        "_hex": "0xcdc9612c3"
      },
      "gasLimit": {
        "_hex": "0x55f0"
      },
      "to": "0x5248EfBC7319bd65d436374266765D9727253F12",
      "value": {
        "_hex": "0x7ce66c50e2840000"
      },
      "nonce": 1,
      "data": "0x",
      "r": "0x67ffbcc6e8553925aea4c79cc6cba4dc530ef5249adcc07c6900853159f42d1e",
      "s": "0x6436b341c3b7e3f354124b9ec322792026c5a8b31c9cc55d098d00b344d3f854",
      "v": 28,
      "creates": null,
      "raw": "0xf86c01850cdc9612c38255f0945248efbc7319bd65d436374266765d9727253f12887ce66c50e2840000801ca067ffbcc6e8553925aea4c79cc6cba4dc530ef5249adcc07c6900853159f42d1ea06436b341c3b7e3f354124b9ec322792026c5a8b31c9cc55d098d00b344d3f854",
      "networkId": 0,
      "chainId": 0
    }
  ]
}