{
  "hash": "0xfbe8691e16a1c29b03c896f40516bcb0be0936d706e92d52a919c6e1c10c995c",
  "parentHash": "0x3871f6844571fd2da87172f263ea72aec046d00a210743d80903b575c2b9748b",
  "number": 108074,
  "timestamp": 1439933515,
  "nonce": "0xf8a9623e95ea70b5",
  "difficulty": 4387519539385,
  "gasLimit": {
    "_hex": "0x2fefd8"
  },
  "gasUsed": {
    "_hex": "0x5208"
  },
  "miner": "0xe6A7a1d47ff21B6321162AEA7C6CB457D5476Bca",
  "extraData": "0x476574682f76312e302e312d38326566323666362f6c696e75782f676f312e34",
  "transactions": [
    {
      "hash": "0xe14ab83e7ffef9bcff125b129ab1232eb9e5b1f7a6abe0a1eca2feff569a6565",
      "blockHash": "0xfbe8691e16a1c29b03c896f40516bcb0be0936d706e92d52a919c6e1c10c995c",
      "blockNumber": 108074,
      "transactionIndex": 0,
      "confirmations": null,
      "from": "0x120A270bbC009644e35F0bB6ab13f95b8199c4ad",
      "gasPrice": {
        "_hex": "0xcde70f51a"
      },
      "gasLimit": {
        "_hex": "0x3d090"
      },
      "to": "0xb42D03A56826959eFF8FCe23096dd8e2409B2ea8",
      "value": {
        "_hex": "0x16cafa19231a000"
      },
      "nonce": 824,
      "data": "0x",
      "r": "0x1ba07db2f20038e9cfaae3a4cb253b308283374a12e490369116b6548edb4647",
      "s": "0x1d13e72de1e9feac3e9395461957707e98cec85ad1b97b833ab737c84477237f",
      "v": 27,
      "creates": null,
      "raw": "0xf86f820338850cde70f51a8303d09094b42d03a56826959eff8fce23096dd8e2409b2ea888016cafa19231a000801ba01ba07db2f20038e9cfaae3a4cb253b308283374a12e490369116b6548edb4647a01d13e72de1e9feac3e9395461957707e98cec85ad1b97b833ab737c84477237f",
      "networkId": 0,
      "chainId": 0
    }
  ]
}