{
  "hash": "0x784ff2681d8f9e5cb7e40b876c726c00bb6630558d3d01c616ef64a0e86df030",
  "parentHash": "0x9b74f3f1c5584b8e0a0a931087d79fb98434822c9c78db20ed88aebcbca9de8e",
  "number": 87040,
  "timestamp": 1439586375,
  "nonce": "0x6a46682c1012babf",
  "difficulty": 3023065736469,
  "gasLimit": {
    "_hex": "0x2fefd8"
  },
  "gasUsed": {
    "_hex": "0xa630"
  },
  "miner": "0xe6A7a1d47ff21B6321162AEA7C6CB457D5476Bca",
  "extraData": "0x476574682f76312e302e312d38326566323666362f6c696e75782f676f312e34",
  "transactions": [
    {
      "hash": "0xd6b9aba168926e63176e69ce773e1273e92fcc567cf80a6e8e32008e67b69db9",
      "blockHash": "0x784ff2681d8f9e5cb7e40b876c726c00bb6630558d3d01c616ef64a0e86df030",
      "blockNumber": 87040,
      "transactionIndex": 0,
      "confirmations": null,
      "from": "0xa61e151af0007B7406d969Dce51740caf0D69088",
      "gasPrice": {
        "_hex": "0x1111b920ed6"
      },
      "gasLimit": {
        "_hex": "0x55f0"
      },
      "to": "0x237de148D40353D41e6fC20c58a24e4515888d6d",
      "value": {
        "_hex": "0x9c2007651b2500000"
      },
      "nonce": 6,
      "data": "0x454e374242585858",
      "r": "0x34f02356b108ec80ee5ce93633377375db699a63e5af3940c158e4325f0da84c",
      "s": "0x37f9349d9fa0e0f6a6e8e04e2119ed4a13590a9af705f3df9892359c801a2cae",
      "v": 27,
      "creates": null,
      "raw": "0xf876068601111b920ed68255f094237de148d40353d41e6fc20c58a24e4515888d6d8909c2007651b250000088454e3742425858581ba034f02356b108ec80ee5ce93633377375db699a63e5af3940c158e4325f0da84ca037f9349d9fa0e0f6a6e8e04e2119ed4a13590a9af705f3df9892359c801a2cae",
      "networkId": 0,
      "chainId": 0
    },
    {
      "hash": "0xcad654b7277e1bba3b631425aa0356ca0d5fcb10eb22eb0e23afad7f69ccd7fd",
      "blockHash": "0x784ff2681d8f9e5cb7e40b876c726c00bb6630558d3d01c616ef64a0e86df030",
      "blockNumber": 87040,
      "transactionIndex": 1,
      "confirmations": null,
      "from": "0x704d5de4846d39b53Cd21d1C49f096dB5C19Ba29",
      "gasPrice": {
        "_hex": "0xd9c633feb"
      },
      "gasLimit": {
        "_hex": "0x15f90"
      },
      "to": "0x2856c3180459583cD8492b62c180A9D7E11E1C2E",
      "value": {
        "_hex": "0x2386f26fc10000"
      },
      "nonce": 0,
      "data": "0x",
      "r": "0x3ea3f507a1e11735878a5224f80980399f1e4da9b4f09b35e231edfe5aa81c54",
      "s": "0x315f5e4b92bcdb643614501f4f289a52066131630ddf3a7df9faf4bf5da4aa62",
      "v": 28,
      "creates": null,
      "raw": "0xf86c80850d9c633feb83015f90942856c3180459583cd8492b62c180a9d7e11e1c2e872386f26fc10000801ca03ea3f507a1e11735878a5224f80980399f1e4da9b4f09b35e231edfe5aa81c54a0315f5e4b92bcdb643614501f4f289a52066131630ddf3a7df9faf4bf5da4aa62",
      "networkId": 0,
      "chainId": 0
    }
  ]
}