{
  "hash": "0x4fa61e0f129ddf9f57af875d5232e4aac313b2d490aaad52ef4ec7314795f1cf",
  "parentHash": "0x00960c2550f93daa9a57e3611144a61113dc645d7cbf7a3c865e5539faed8c8d",
  "number": 107425,
  "timestamp": 1439922224,
  "nonce": "0x2b15baba3d1686b9",
  "difficulty": 4407184017160,
  "gasLimit": {
    "_hex": "0x2fefd8"
  },
  "gasUsed": {
    "_hex": "0x5208"
  },
  "miner": "0x55bAf64fc9eAccFFd7Cc643BB61142E1C6ac093e",
  "extraData": "0x",
  "transactions": [
    {
      "hash": "0x5d8afc8e89d0f2a15cbd5f8066a8c888c4161c6e2b333ce42f3f76859cb3fbeb",
      "blockHash": "0x4fa61e0f129ddf9f57af875d5232e4aac313b2d490aaad52ef4ec7314795f1cf",
      "blockNumber": 107425,
      "transactionIndex": 0,
      "confirmations": null,
      "from": "0x7B60F3f033e6D7808428C9f2dBC81682ff24984F",
      "gasPrice": {
        "_hex": "0xd5ea6199d"
      },
      "gasLimit": {
        "_hex": "0x5208"
      },
      "to": "0xFBb1b73C4f0BDa4f67dcA266ce6Ef42f520fBB98",
      "value": {
        "_hex": "0x373e4f0c073e918"
      },
      "nonce": 0,
      "data": "0x",
      "r": "0x7310ff5ada6974b3dc7c10caced0e2630de27c2c40120213282d8d46c20587e0",
      "s": "0x6d20a31a5e9f187665198c11a712074623a9747fcc586e6e61e7285779db3ea3",
      "v": 27,
      "creates": null,
      "raw": "0xf86c80850d5ea6199d82520894fbb1b73c4f0bda4f67dca266ce6ef42f520fbb98880373e4f0c073e918801ba07310ff5ada6974b3dc7c10caced0e2630de27c2c40120213282d8d46c20587e0a06d20a31a5e9f187665198c11a712074623a9747fcc586e6e61e7285779db3ea3",
      "networkId": 0,
      "chainId": 0
    }
  ]
}