{
  "hash": "0x02a8091fb4d37f10946362344d4cd351972f9db49d23b68d6fb37c22df085b0e",
  "parentHash": "0x8796e75f630391e976871ffce653fcca5633395daebeb3f290ec016707a4948e",
  "number": 99754,
  "timestamp": 1439795077,
  "nonce": "0x2e198c637276ad13",
  "difficulty": 3823185507572,
  "gasLimit": {
    "_hex": "0x2fefd8"
  },
  "gasUsed": {
    "_hex": "0x5208"
  },
  "miner": "0xEF247E639d49461D25F57e9362CadE3120910Ce0",
  "extraData": "0x476574682f76312e302e312f6c696e75782f676f312e342e32",
  "transactions": [
    {
      "hash": "0x85482307059d8f9d716c0fa6ec44424efbd7c9c20b61a534a2982ff3cf36147b",
      "blockHash": "0x02a8091fb4d37f10946362344d4cd351972f9db49d23b68d6fb37c22df085b0e",
      "blockNumber": 99754,
      "transactionIndex": 0,
      "confirmations": null,
      "from": "0x0D4EcC7d750180EBf4A9Df728B6669B5Bceb5E40",
      "gasPrice": {
        "_hex": "0xde13aab06"
      },
      "gasLimit": {
        "_hex": "0x5208"
      },
      "to": "0x32Be343B94f860124dC4fEe278FDCBD38C102D88",
      "value": {
        "_hex": "0x455f1eee3e407000"
      },
      "nonce": 60,
      "data": "0x",
      "r": "0xf7458bf9ccf681136c71a6e39d91fae2f253ddbbcc489291b7682460cf3162ac",
      "s": "0x2ef1a76b85a6657fb43016bc63c1583ea319aca4100503b3f43d474c77057560",
      "v": 28,
      "creates": null,
      "raw": "0xf86c3c850de13aab068252089432be343b94f860124dc4fee278fdcbd38c102d8888455f1eee3e407000801ca0f7458bf9ccf681136c71a6e39d91fae2f253ddbbcc489291b7682460cf3162aca02ef1a76b85a6657fb43016bc63c1583ea319aca4100503b3f43d474c77057560",
      "networkId": 0,
      "chainId": 0
    }
  ]
}