{
  "hash": "0x5c32dea63a2da77fd61cf83d362e7b395b608432869c71bd99b1c62d107a0e1c",
  "parentHash": "0xc9dcd12c5db56ab1ff95e6f9e6e07ab4f03956cc4fa6993106ac4ed07cb0d491",
  "number": 116403,
  "timestamp": 1440073686,
  "nonce": "0x34e8ea4779af0ae6",
  "difficulty": 4577844172457,
  "gasLimit": {
    "_hex": "0x2fefd8"
  },
  "gasUsed": {
    "_hex": "0x5208"
  },
  "miner": "0xe6A7a1d47ff21B6321162AEA7C6CB457D5476Bca",
  "extraData": "0x476574682f76312e302e312d38326566323666362f6c696e75782f676f312e34",
  "transactions": [
    {
      "hash": "0xebe8bf5821dd0497cf900207aa9a8a5f0752fa55ff0e913daa34f1665784f308",
      "blockHash": "0x5c32dea63a2da77fd61cf83d362e7b395b608432869c71bd99b1c62d107a0e1c",
      "blockNumber": 116403,
      "transactionIndex": 0,
      "confirmations": null,
      "from": "0x910a4aADabb3A7B3F7879118332E13Da66b68D77",
      "gasPrice": {
        "_hex": "0xd81d21fe4"
      },
      "gasLimit": {
        "_hex": "0x5208"
      },
      "to": "0x32Be343B94f860124dC4fEe278FDCBD38C102D88",
      "value": {
        "_hex": "0xd02660868c50b800"
      },
      "nonce": 20,
      "data": "0x",
      "r": "0x68d6d0386ce25f5204d1c527f30823a0a6730c471a9337bcaf46bac1c351b149",
      "s": "0x3394f606ccffbccaca8d15d54b0b9926c7a25f4a028c88b94ddb73c42e20adb3",
      "v": 28,
      "creates": null,
      "raw": "0xf86c14850d81d21fe48252089432be343b94f860124dc4fee278fdcbd38c102d8888d02660868c50b800801ca068d6d0386ce25f5204d1c527f30823a0a6730c471a9337bcaf46bac1c351b149a03394f606ccffbccaca8d15d54b0b9926c7a25f4a028c88b94ddb73c42e20adb3",
      "networkId": 0,
      "chainId": 0
    }
  ]
}