{
  "hash": "0xe84307c46232a884798a0d27d5945586e740209c55bce236061d3b01fad41df7",
  "parentHash": "0x9d951c8ddb0da72131909e4c89896542d336b89019e3f89c3fb5201b581557b0",
  "number": 55696,
  "timestamp": 1439075311,
  "nonce": "0xb1413f589d276031",
  "difficulty": 1608403838019,
  "gasLimit": {
    "_hex": "0x2fefd8"
  },
  "gasUsed": {
    "_hex": "0x5208"
  },
  "miner": "0xf927a40C8B7F6E07c5af7FA2155B4864a4112B13",
  "extraData": "0x476574682f76312e302e312f6c696e75782f676f312e342e32",
  "transactions": [
    {
      "hash": "0x55b901a3303f04765cafba3412bfe46d599e69fa1e6efb3890c11ae3bea04af9",
      "blockHash": "0xe84307c46232a884798a0d27d5945586e740209c55bce236061d3b01fad41df7",
      "blockNumber": 55696,
      "transactionIndex": 0,
      "confirmations": null,
      "from": "0xCC043c4388D345f884c6855e71142a9F41FD6935",
      "gasPrice": {
        "_hex": "0x109cfe72101"
      },
      "gasLimit": {
        "_hex": "0x15f90"
      },
      "to": "0xE288a1BF9A3Fc6E96C30ad0cEbAdd690134c3a65",
      "value": {
        "_hex": "0xde0b6b3a7640000"
      },
      "nonce": 0,
      "data": "0x",
      "r": "0x41330854f73dc7d715fc090bda8eb16084e9fa41a86fe3a3026c6abbd2ade54f",
      "s": "0x6cdf836971918909da847f513ab02a47e9cdbde4cd921854956b4ac457ba6d83",
      "v": 28,
      "creates": null,
      "raw": "0xf86e80860109cfe7210183015f9094e288a1bf9a3fc6e96c30ad0cebadd690134c3a65880de0b6b3a7640000801ca041330854f73dc7d715fc090bda8eb16084e9fa41a86fe3a3026c6abbd2ade54fa06cdf836971918909da847f513ab02a47e9cdbde4cd921854956b4ac457ba6d83",
      "networkId": 0,
      "chainId": 0
    }
  ]
}