{
  "hash": "0x0d173cd478b0e6ed44a5fdb108911a357234131a665a1b86ef506e7bb0c7b46b",
  "parentHash": "0xd08e18df603ba261a16172da7e84e60b507cc83977770ee582df31e5e10464da",
  "number": 94999,
  "timestamp": 1439717394,
  "nonce": "0xa5ca0e66a924449a",
  "difficulty": 3518922087227,
  "gasLimit": {
    "_hex": "0x2fefd8"
  },
  "gasUsed": {
    "_hex": "0x5208"
  },
  "miner": "0x306e6267d94f23a9b37Cb110f20852208Fbbf1aA",
  "extraData": "0x",
  "transactions": [
    {
      "hash": "0x55b2b7d32f429ebe837e56d81294e74c2adaf8369c8154d7813dc831c56fa4fe",
      "blockHash": "0x0d173cd478b0e6ed44a5fdb108911a357234131a665a1b86ef506e7bb0c7b46b",
      "blockNumber": 94999,
      "transactionIndex": 0,
      "confirmations": null,
      "from": "0x79d5794171E11dd5C2f0e26E1C187319db2FE6f7",
      "gasPrice": {
        "_hex": "0xd479e9b78"
      },
      "gasLimit": {
        "_hex": "0x5208"
      },
      "to": "0x32Be343B94f860124dC4fEe278FDCBD38C102D88",
      "value": {
        "_hex": "0x455f50295dac6400"
      },
      "nonce": 34,
      "data": "0x",
      "r": "0xc6fc4daed5b617ad105a04a28bfc4f4f693f8f128e8e09b99a810c77ef8eee4a",
      "s": "0x782a352dbdaf63ec3a419a6b812e0c9fb99f828d503760812187c011ea02345e",
      "v": 27,
      "creates": null,
      "raw": "0xf86c22850d479e9b788252089432be343b94f860124dc4fee278fdcbd38c102d8888455f50295dac6400801ba0c6fc4daed5b617ad105a04a28bfc4f4f693f8f128e8e09b99a810c77ef8eee4aa0782a352dbdaf63ec3a419a6b812e0c9fb99f828d503760812187c011ea02345e",
      "networkId": 0,
      "chainId": 0
    }
  ]
}