{
  "hash": "0x95faa62b2c7fbbc5f97de75cd735279e2920486b51a6f51bb753ad02769ac8e6",
  "parentHash": "0x472f5bd7db29ebddcbad4e34713b9fbdafd7aeefce15cfe0a2da5fa041850a04",
  "number": 100630,
  "timestamp": 1439809568,
  "nonce": "0x1bd33a8a609d4fe3",
  "difficulty": 3834002275024,
  "gasLimit": {
    "_hex": "0x2fefd8"
  },
  "gasUsed": {
    "_hex": "0x5208"
  },
  "miner": "0x55bAf64fc9eAccFFd7Cc643BB61142E1C6ac093e",
  "extraData": "0x",
  "transactions": [
    {
      "hash": "0xeec48a29967fa368236f7cfc386bb1a23be92c981569ca4339954cd36a40d548",
      "blockHash": "0x95faa62b2c7fbbc5f97de75cd735279e2920486b51a6f51bb753ad02769ac8e6",
      "blockNumber": 100630,
      "transactionIndex": 0,
      "confirmations": null,
      "from": "0x7884D470204862a0d1A21122F41ee77430396Ee5",
      "gasPrice": {
        "_hex": "0xd7546c284"
      },
      "gasLimit": {
        "_hex": "0x15f90"
      },
      "to": "0x793d023CA82d977dAd23B85B4E6357E4E53eaC60",
      "value": {
        "_hex": "0x44d575b885f0000"
      },
      "nonce": 63,
      "data": "0x",
      "r": "0xda84b2ad2cde5f3c0da007ebc5a1948746246e7f2a9a3ad4037ccc06811fc7b3",
      "s": "0x2c831f8db258a032b3810b92a389755f3905a5e21a577ddeeeeb6f065a853d17",
      "v": 28,
      "creates": null,
      "raw": "0xf86d3f850d7546c28483015f9094793d023ca82d977dad23b85b4e6357e4e53eac6088044d575b885f0000801ca0da84b2ad2cde5f3c0da007ebc5a1948746246e7f2a9a3ad4037ccc06811fc7b3a02c831f8db258a032b3810b92a389755f3905a5e21a577ddeeeeb6f065a853d17",
      "networkId": 0,
      "chainId": 0
    }
  ]
}