{
  "hash": "0xa4230b296a6ca9e33e79f4bed1367e9cbd5407a0bf0e03d816fce84f7a9b274e",
  "parentHash": "0x7d1c143297e5e7e7fbd35875a719dbefa790fe9496a760c023ababce77355d7a",
  "number": 101892,
  "timestamp": 1439829656,
  "nonce": "0xe6863a811cca5d6e",
  "difficulty": 3889992519104,
  "gasLimit": {
    "_hex": "0x2fefd8"
  },
  "gasUsed": {
    "_hex": "0x5208"
  },
  "miner": "0xaB638742EBe3A78F2a85028350e1AADB86C0a6ed",
  "extraData": "0x",
  "transactions": [
    {
      "hash": "0xf78065a8a7d267badf10e5e22064a8acba488df17c4408dd5e56878ce575bffc",
      "blockHash": "0xa4230b296a6ca9e33e79f4bed1367e9cbd5407a0bf0e03d816fce84f7a9b274e",
      "blockNumber": 101892,
      "transactionIndex": 0,
      "confirmations": null,
      "from": "0x5465B1c380c9D2446965E503EB731F08A30ecD25",
      "gasPrice": {
        "_hex": "0xd72d74c1f"
      },
      "gasLimit": {
        "_hex": "0x5208"
      },
      "to": "0x32Be343B94f860124dC4fEe278FDCBD38C102D88",
      "value": {
        "_hex": "0x75f1c1c1d0c11400"
      },
      "nonce": 3,
      "data": "0x",
      "r": "0x5e4aab42c2c80ce109cb5875dbf06a6ca1fa492ec17fa321dc7c5154899c85cf",
      "s": "0x060d17f0369aa4624f5b91e2fc6bb31bba2c6c8a0f6f8d0988c241d9ac835c8c",
      "v": 27,
      "creates": null,
      "raw": "0xf86c03850d72d74c1f8252089432be343b94f860124dc4fee278fdcbd38c102d888875f1c1c1d0c11400801ba05e4aab42c2c80ce109cb5875dbf06a6ca1fa492ec17fa321dc7c5154899c85cfa0060d17f0369aa4624f5b91e2fc6bb31bba2c6c8a0f6f8d0988c241d9ac835c8c",
      "networkId": 0,
      "chainId": 0
    }
  ]
}