{
  "hash": "0x786bd101398a897d7f934d07b8c0c24f2d2d2c6c432bd93396e1bd162f9d0827",
  "parentHash": "0x1f6ea2535b0d931f33344e9cbe5f4fa4f519dff68cf0676cec257eefb6706f9a",
  "number": 59397,
  "timestamp": 1439137508,
  "nonce": "0xa7648fcb07859c42",
  "difficulty": 1702214413170,
  "gasLimit": {
    "_hex": "0x2fefd5"
  },
  "gasUsed": {
    "_hex": "0x15f90"
  },
  "miner": "0x9746c7e1ef2bd21FF3997fa467593a89cb852BD0",
  "extraData": "0x476574682f76312e302e312f77696e646f77732f676f312e342e32",
  "transactions": [
    {
      "hash": "0xa991a04c6f6ac75f919326407e3e459a54df77c2a1e0497aa6db5dfd71f47850",
      "blockHash": "0x786bd101398a897d7f934d07b8c0c24f2d2d2c6c432bd93396e1bd162f9d0827",
      "blockNumber": 59397,
      "transactionIndex": 0,
      "confirmations": null,
      "from": "0xFD2605a2bF58fDbB90db1Da55dF61628B47F9e8c",
      "gasPrice": {
        "_hex": "0xd02cbba60"
      },
      "gasLimit": {
        "_hex": "0x15f90"
      },
      "to": "0x05FE1822845381c20abf02FF0621D35a07570472",
      "value": {
        "_hex": "0x0"
      },
      "nonce": 49,
      "data": "0x67dd74ca000000000000000000000000000000000000000000000000000000000000007b",
      "r": "0x6bd42f77e1aee5246010e874eeafb919f640e9c1578762cf1aafa780f7103b78",
      "s": "0x21ab9f37fddc53325260516a12cae22c0461953c5f78b8b18c58a35efd6e9796",
      "v": 27,
      "creates": null,
      "raw": "0xf88931850d02cbba6083015f909405fe1822845381c20abf02ff0621d35a0757047280a467dd74ca000000000000000000000000000000000000000000000000000000000000007b1ba06bd42f77e1aee5246010e874eeafb919f640e9c1578762cf1aafa780f7103b78a021ab9f37fddc53325260516a12cae22c0461953c5f78b8b18c58a35efd6e9796",
      "networkId": 0,
      "chainId": 0
    }
  ]
}