{
  "hash": "0x5cd804fc2d003ab88666ff7a9dfd35b0c5ec8ad8c166248c4a27a3d12aa01592",
  "parentHash": "0x19ef01bb2901a99947903169b35144f4054d3aec62e5cd3d59385317b78d7829",
  "number": 54908,
  "timestamp": 1439062101,
  "nonce": "0x4ba8a5b4c2e8ea22",
  "difficulty": 1614850640128,
  "gasLimit": {
    "_hex": "0x2fefd8"
  },
  "gasUsed": {
    "_hex": "0x5208"
  },
  "miner": "0x559EbD64C915Ca65b2F829D9DA8773d585d70a55",
  "extraData": "0x",
  "transactions": [
    {
      "hash": "0xfbeaf41647e1308ce04b83e2509d0bccb0eba76a451550cbd973a2938ad46cd2",
      "blockHash": "0x5cd804fc2d003ab88666ff7a9dfd35b0c5ec8ad8c166248c4a27a3d12aa01592",
      "blockNumber": 54908,
      "transactionIndex": 0,
      "confirmations": null,
      "from": "0xA9634393AFaCf497F51723fdf76c7e5d8c8ACacd",
      "gasPrice": {
        "_hex": "0xdddfe7ba6"
      },
      "gasLimit": {
        "_hex": "0x5208"
      },
      "to": "0x32Be343B94f860124dC4fEe278FDCBD38C102D88",
      "value": {
        "_hex": "0x8ac2b179f07ff800"
      },
      "nonce": 0,
      "data": "0x",
      "r": "0xa2091ac06c39a964a7368b313ae352d0850edf579c4e641adc3dd3928b70a19c",
      "s": "0x470bbea6d4f715428e1683d2104cb804c2bd76d01ac948b9b83034b916bffb66",
      "v": 28,
      "creates": null,
      "raw": "0xf86c80850dddfe7ba68252089432be343b94f860124dc4fee278fdcbd38c102d88888ac2b179f07ff800801ca0a2091ac06c39a964a7368b313ae352d0850edf579c4e641adc3dd3928b70a19ca0470bbea6d4f715428e1683d2104cb804c2bd76d01ac948b9b83034b916bffb66",
      "networkId": 0,
      "chainId": 0
    }
  ]
}