{
  "hash": "0x84997932e8169385bb6bc20bc671e422b7e7ed68dd90743be921b5997638a4b5",
  "parentHash": "0x2fa6f03c71ea403da29c835c5ab6001d95d9768ca99e2b6ab26917a7a593ca42",
  "number": 53052,
  "timestamp": 1439031674,
  "nonce": "0xa3b0784b3d1dc7f4",
  "difficulty": 1577791714113,
  "gasLimit": {
    "_hex": "0x1e912e"
  },
  "gasUsed": {
    "_hex": "0x5208"
  },
  "miner": "0x47ff6576639c2e94762eA5443978D7681C0E78DC",
  "extraData": "0x476574682f76312e302e312f6c696e75782f676f312e342e32",
  "transactions": [
    {
      "hash": "0x242a15349ad0a7070afb73df92e8e569fd196c88c7f589a467f24e6028a07c69",
      "blockHash": "0x84997932e8169385bb6bc20bc671e422b7e7ed68dd90743be921b5997638a4b5",
      "blockNumber": 53052,
      "transactionIndex": 0,
      "confirmations": null,
      "from": "0x3F98e477a361F777DA14611a7e419A75Fd238b6b",
      "gasPrice": {
        "_hex": "0xd74813182"
      },
      "gasLimit": {
        "_hex": "0x5208"
      },
      "to": "0x0000000000000000000000000000000000000000",
      "value": {
        "_hex": "0x6c6b935b8bbd400000"
      },
      "nonce": 5,
      "data": "0x",
      "r": "0x3c2b8b251b6278a82ffd5177dbec25e6df870e997eb83d788c7fb9bb72af2208",
      "s": "0x51f00f8d766af7ac691063f7840c2b132e33e850960c93b262ad47abd59b2336",
      "v": 27,
      "creates": null,
      "raw": "0xf86d05850d74813182825208940000000000000000000000000000000000000000896c6b935b8bbd400000801ba03c2b8b251b6278a82ffd5177dbec25e6df870e997eb83d788c7fb9bb72af2208a051f00f8d766af7ac691063f7840c2b132e33e850960c93b262ad47abd59b2336",
      "networkId": 0,
      "chainId": 0
    }
  ]
}