{
  "hash": "0xf1f7e6be8313fb42614fd8c82e0b4bef3a11db7bd5b9b75fc860b33962ba42c2",
  "parentHash": "0x7701eb7c147feaf3663412f4e2b0ed1815a3567fb46ffdcc33f5bf9478ab58ac",
  "number": 81594,
  "timestamp": 1439504438,
  "nonce": "0x51e06d0032578024",
  "difficulty": 2444963105470,
  "gasLimit": {
    "_hex": "0x2fefd2"
  },
  "gasUsed": {
    "_hex": "0x5208"
  },
  "miner": "0x9192Ca96DE0B90f2A67A2D81f4A1325CFA3Cc685",
  "extraData": "0x",
  "transactions": [
    {
      "hash": "0x3bc22b8122eda20024b2f3a94a4485d5066543a7912dd64acd3e8d387996d735",
      "blockHash": "0xf1f7e6be8313fb42614fd8c82e0b4bef3a11db7bd5b9b75fc860b33962ba42c2",
      "blockNumber": 81594,
      "transactionIndex": 0,
      "confirmations": null,
      "from": "0x120A270bbC009644e35F0bB6ab13f95b8199c4ad",
      "gasPrice": {
        "_hex": "0xe2bf097dc"
      },
      "gasLimit": {
        "_hex": "0x3d090"
      },
      "to": "0xE1eeE295f21bcc97b8A0396Bee0114881B2ED2C5",
      "value": {
        "_hex": "0x56bc75e2d63100000"
      },
      "nonce": 384,
      "data": "0x",
      "r": "0x40de9e5f0bba298858a037dcf43f2375c8ec4cb75dc94117265ef18b9a1005d0",
      "s": "0x3a2c69bf75be6015b1f44fb32599832326351badc69d8323178d7c0e60143a83",
      "v": 28,
      "creates": null,
      "raw": "0xf870820180850e2bf097dc8303d09094e1eee295f21bcc97b8a0396bee0114881b2ed2c589056bc75e2d63100000801ca040de9e5f0bba298858a037dcf43f2375c8ec4cb75dc94117265ef18b9a1005d0a03a2c69bf75be6015b1f44fb32599832326351badc69d8323178d7c0e60143a83",
      "networkId": 0,
      "chainId": 0
    }
  ]
}