{
  "hash": "0x72301e4bbeff66278f911645ab0255f1fc693c3b0af8701ca06d090c0438d361",
  "parentHash": "0x1d7d3d94b996b16c01100c1d518e67e6f8307f7061bf13302b81ce4e176cc5ae",
  "number": 89115,
  "timestamp": 1439618431,
  "nonce": "0x36757e043dbf1035",
  "difficulty": 3263121537272,
  "gasLimit": {
    "_hex": "0x2fefd8"
  },
  "gasUsed": {
    "_hex": "0x5208"
  },
  "miner": "0xC603Ab5ef41fC61AA8b76bEddb09e3Cfcbb174BD",
  "extraData": "0x476574682f76312e302e312f77696e646f77732f676f312e342e32",
  "transactions": [
    {
      "hash": "0x305ab610ffa33f9f4714677c619ded9b5393ce1e472f1e646e4f988e0813c885",
      "blockHash": "0x72301e4bbeff66278f911645ab0255f1fc693c3b0af8701ca06d090c0438d361",
      "blockNumber": 89115,
      "transactionIndex": 0,
      "confirmations": null,
      "from": "0x6d84df1cFAD609EAc476cBC2553390bFC23Cf6Fc",
      "gasPrice": {
        "_hex": "0xd9b17b03e"
      },
      "gasLimit": {
        "_hex": "0x5208"
      },
      "to": "0x32Be343B94f860124dC4fEe278FDCBD38C102D88",
      "value": {
        "_hex": "0xddc5a98df762c00"
      },
      "nonce": 1,
      "data": "0x",
      "r": "0xf665e8ede6ff757d7b105d9731c06c67ff3ebed421bfa553520c5a27af8b71a5",
      "s": "0x18dbe6e0f5d1ef5c2915c81bbe0a9d89d1295e8fd9896ebd3b6fc02e1c44c6c6",
      "v": 28,
      "creates": null,
      "raw": "0xf86c01850d9b17b03e8252089432be343b94f860124dc4fee278fdcbd38c102d88880ddc5a98df762c00801ca0f665e8ede6ff757d7b105d9731c06c67ff3ebed421bfa553520c5a27af8b71a5a018dbe6e0f5d1ef5c2915c81bbe0a9d89d1295e8fd9896ebd3b6fc02e1c44c6c6",
      "networkId": 0,
      "chainId": 0
    }
  ]
}