{
  "hash": "0x28f073c4b7c881779d9e1f6ad5382f627fd6569e286a0fa80857d3d36bbf4fa0",
  "parentHash": "0x6a376034962daf719fb90c181951a3f24cae0639af2ddf9ce1700956ae8b4c78",
  "number": 49983,
  "timestamp": 1438982310,
  "nonce": "0x2201f504492f2ebd",
  "difficulty": 1495099635508,
  "gasLimit": {
    "_hex": "0x497c0"
  },
  "gasUsed": {
    "_hex": "0x546c"
  },
  "miner": "0xF2d2AfF1320476cb8C6b607199D23175cc595693",
  "extraData": "0x476574682f76312e302e312f77696e646f77732f676f312e342e32",
  "transactions": [
    {
      "hash": "0x90a6b289b32987cd5de692bb8bd9d6d7f3316fae6213dbb10d05671a5c693ec4",
      "blockHash": "0x28f073c4b7c881779d9e1f6ad5382f627fd6569e286a0fa80857d3d36bbf4fa0",
      "blockNumber": 49983,
      "transactionIndex": 0,
      "confirmations": null,
      "from": "0x83908AA7478a6D1c9B9B0281148F8F9F242b9fDC",
      "gasPrice": {
        "_hex": "0xceba5c6e0"
      },
      "gasLimit": {
        "_hex": "0x15f90"
      },
      "to": "0x2910543Af39abA0Cd09dBb2D50200b3E800A63D2",
      "value": {
        "_hex": "0x6c68a949a8926b0000"
      },
      "nonce": 2,
      "data": "0x454e46384139353638",
      "r": "0xa2241ad79a08874077fae3c686e85d9d2be9e33d85b4600c2524246e7766840f",
      "s": "0x666baa5ce917185d88fc8e4a75d1e66e9ada0c3eb04ff3c2bb40b446f90db169",
      "v": 28,
      "creates": null,
      "raw": "0xf87702850ceba5c6e083015f90942910543af39aba0cd09dbb2d50200b3e800a63d2896c68a949a8926b000089454e463841393536381ca0a2241ad79a08874077fae3c686e85d9d2be9e33d85b4600c2524246e7766840fa0666baa5ce917185d88fc8e4a75d1e66e9ada0c3eb04ff3c2bb40b446f90db169",
      "networkId": 0,
      "chainId": 0
    }
  ]
}