{
  "hash": "0xcf4b5c18660066a9b75f07e0d6974492fe59112043d2f902bedf7cd7e72f4883",
  "parentHash": "0x63a7cee879b834091b85f9c8c1af85b969f35802afbdce21ea8308eab260e9ec",
  "number": 81655,
  "timestamp": 1439505421,
  "nonce": "0x7d4d8331c54f755e",
  "difficulty": 2436602844246,
  "gasLimit": {
    "_hex": "0x2fefd8"
  },
  "gasUsed": {
    "_hex": "0xa410"
  },
  "miner": "0xf8E0CA3Ed80bd541b94BEdCf259e8CF2141A9523",
  "extraData": "0x476574682f76312e302e312f77696e646f77732f676f312e342e32",
  "transactions": [
    {
      "hash": "0x277c52349a4ec5a372f91a78214ea778e352a071909108cd3b8e2d83a64b7a57",
      "blockHash": "0xcf4b5c18660066a9b75f07e0d6974492fe59112043d2f902bedf7cd7e72f4883",
      "blockNumber": 81655,
      "transactionIndex": 0,
      "confirmations": null,
      "from": "0x297d128041190ec4D477Cd476D194eFcA4E9cf67",
      "gasPrice": {
        "_hex": "0x746a528800"
      },
      "gasLimit": {
        "_hex": "0x13880"
      },
      "to": null,
      "value": {
        "_hex": "0x0"
      },
      "nonce": 1,
      "data": "0x",
      "r": "0x53dcce44e908b642a878332c6b2eccd796f3cbd974a711690a158dd70aa19a74",
      "s": "0xcadb6259e9d3f2d3240422fa16c2800ba311e5a0bd662c43d3b36dee7788c7b2",
      "v": 28,
      "creates": "0x0cc09bcC3f3d73304f4EEF5eb29082e4181484E8",
      "raw": "0xf8510185746a528800830138808080801ca053dcce44e908b642a878332c6b2eccd796f3cbd974a711690a158dd70aa19a74a0cadb6259e9d3f2d3240422fa16c2800ba311e5a0bd662c43d3b36dee7788c7b2",
      "networkId": 0,
      "chainId": 0
    },
    {
      "hash": "0x9402e62521063b8167dd988da243b37fb95994b511067c9b3896f642f91b0513",
      "blockHash": "0xcf4b5c18660066a9b75f07e0d6974492fe59112043d2f902bedf7cd7e72f4883",
      "blockNumber": 81655,
      "transactionIndex": 1,
      "confirmations": null,
      "from": "0xF11940EA05aA9CC3F13aCF5C5cA6EDCF312E3Aec",
      "gasPrice": {
        "_hex": "0xde6fd1f9d"
      },
      "gasLimit": {
        "_hex": "0x15f90"
      },
      "to": "0x59C62d3D43f9EA1c4118d98c188AA5d028b8bB8E",
      "value": {
        "_hex": "0x15af1d78b58c40000"
      },
      "nonce": 5,
      "data": "0x",
      "r": "0x6adf02b36e35685c3d8ccbd57afc1c12bcbc108be96b88616aeae566318ea3b9",
      "s": "0x5d466cd2c8791341fafa63aa856af262edd8d60942642508e5a143555a8a1872",
      "v": 27,
      "creates": null,
      "raw": "0xf86e05850de6fd1f9d83015f909459c62d3d43f9ea1c4118d98c188aa5d028b8bb8e89015af1d78b58c40000801ba06adf02b36e35685c3d8ccbd57afc1c12bcbc108be96b88616aeae566318ea3b9a05d466cd2c8791341fafa63aa856af262edd8d60942642508e5a143555a8a1872",
      "networkId": 0,
      "chainId": 0
    }
  ]
}