{
  "hash": "0xc58bfb625764e6f6e55bcaacf3de079d32eb44650986eba9a4b2dd620b88dcc9",
  "parentHash": "0xd1427dd0caae7ce8714f509a2895923924474fab1547c3feb044ddf406c455f7",
  "number": 109041,
  "timestamp": 1439950161,
  "nonce": "0xa4e758b57e124ead",
  "difficulty": 4410640252890,
  "gasLimit": {
    "_hex": "0x2fefd8"
  },
  "gasUsed": {
    "_hex": "0xa410"
  },
  "miner": "0xa8E7201ff619fAFFc332E6aD37Ed41e301bf014a",
  "extraData": "0x476574682f76312e302e312f77696e646f77732f676f312e342e32",
  "transactions": [
    {
      "hash": "0x88cc2bee9706b8a822295d5d296c7c5e9c4de782a460b04474ad72ebf3e75b96",
      "blockHash": "0xc58bfb625764e6f6e55bcaacf3de079d32eb44650986eba9a4b2dd620b88dcc9",
      "blockNumber": 109041,
      "transactionIndex": 0,
      "confirmations": null,
      "from": "0x4c74B6F32c9680aCB5Fe0e72B7Aa95C612540A04",
      "gasPrice": {
        "_hex": "0xcb4fe9200"
      },
      "gasLimit": {
        "_hex": "0x5208"
      },
      "to": "0x32Be343B94f860124dC4fEe278FDCBD38C102D88",
      "value": {
        "_hex": "0x455f7f2311937800"
      },
      "nonce": 42,
      "data": "0x",
      "r": "0x3819d75a56318a4f389d5b334a4ce967d4c435ca5d47edda0641ec63528a5120",
      "s": "0x60645dc49d8e2dfadc1d8e10d2ed7de4b38b795b53d4c784f2e1455ec5b4b8f8",
      "v": 28,
      "creates": null,
      "raw": "0xf86c2a850cb4fe92008252089432be343b94f860124dc4fee278fdcbd38c102d8888455f7f2311937800801ca03819d75a56318a4f389d5b334a4ce967d4c435ca5d47edda0641ec63528a5120a060645dc49d8e2dfadc1d8e10d2ed7de4b38b795b53d4c784f2e1455ec5b4b8f8",
      "networkId": 0,
      "chainId": 0
    },
    {
      "hash": "0xad8e4281d557ff28b3b24d9c7acc5d3b6f1c881577ae73a8c372b125c30688e3",
      "blockHash": "0xc58bfb625764e6f6e55bcaacf3de079d32eb44650986eba9a4b2dd620b88dcc9",
      "blockNumber": 109041,
      "transactionIndex": 1,
      "confirmations": null,
      "from": "0x193bB9b5E9b6099FB6c33DBb5CcDA4AC18ed14D7",
      "gasPrice": {
        "_hex": "0xcb4fe9200"
      },
      "gasLimit": {
        "_hex": "0x5208"
      },
      "to": "0x32Be343B94f860124dC4fEe278FDCBD38C102D88",
      "value": {
        "_hex": "0x821a6fae4e1378000"
      },
      "nonce": 4,
      "data": "0x",
      "r": "0x4fc50be33a32eed920ccd28252894c8f331d803606f6b9161a5a95f0db1ab773",
      "s": "0x65234da1f331c2ab40cfb0957053acb1986bd139915c2bbc1bea1084208efb4b",
      "v": 28,
      "creates": null,
      "raw": "0xf86d04850cb4fe92008252089432be343b94f860124dc4fee278fdcbd38c102d88890821a6fae4e1378000801ca04fc50be33a32eed920ccd28252894c8f331d803606f6b9161a5a95f0db1ab773a065234da1f331c2ab40cfb0957053acb1986bd139915c2bbc1bea1084208efb4b",
      "networkId": 0,
      "chainId": 0
    }
  ]
}