{
  "hash": "0x184b9ee75ff2ecdfd3c314f94fc1f9a4439f2bf003c364be47fc7d0e5645391d",
  "parentHash": "0x73f870313053f0d2481091f5002f3facac1ea915d2db3038164d2dd33061fb3b",
  "number": 79904,
  "timestamp": 1439477071,
  "nonce": "0x0130e8cf75292c71",
  "difficulty": 2349476250259,
  "gasLimit": {
    "_hex": "0x2fefd8"
  },
  "gasUsed": {
    "_hex": "0x33450"
  },
  "miner": "0xbb7B8287f3F0a933474a79eAe42CBCa977791171",
  "extraData": "0x476574682f4c5649562f76312e302e312f6c696e75782f676f312e342e32",
  "transactions": [
    {
      "hash": "0x3afd35d1797b52484759801fd580003e6069ce3d84f05f94461e6495d5a0c484",
      "blockHash": "0x184b9ee75ff2ecdfd3c314f94fc1f9a4439f2bf003c364be47fc7d0e5645391d",
      "blockNumber": 79904,
      "transactionIndex": 0,
      "confirmations": null,
      "from": "0x32Be343B94f860124dC4fEe278FDCBD38C102D88",
      "gasPrice": {
        "_hex": "0xcff595170"
      },
      "gasLimit": {
        "_hex": "0x5208"
      },
      "to": "0x8FE9CA74aD04f35577E62bB0D660E5eeB85D8ed4",
      "value": {
        "_hex": "0x2da86d919f090000"
      },
      "nonce": 472,
      "data": "0x",
      "r": "0x6d50d3aac57091772ddb6bd0038a3f899fc46b348340ec6a19f46b1a8e065087",
      "s": "0x3117bdce40be0d691fb15bbf3a7b67d36115baa52e8cda20e2841d18ecdcd339",
      "v": 27,
      "creates": null,
      "raw": "0xf86e8201d8850cff595170825208948fe9ca74ad04f35577e62bb0d660e5eeb85d8ed4882da86d919f090000801ba06d50d3aac57091772ddb6bd0038a3f899fc46b348340ec6a19f46b1a8e065087a03117bdce40be0d691fb15bbf3a7b67d36115baa52e8cda20e2841d18ecdcd339",
      "networkId": 0,
      "chainId": 0
    },
    {
      "hash": "0x846ad996853594a2a7566d7d17ec04049264450eca903713e04e96fb1ec00604",
      "blockHash": "0x184b9ee75ff2ecdfd3c314f94fc1f9a4439f2bf003c364be47fc7d0e5645391d",
      "blockNumber": 79904,
      "transactionIndex": 1,
      "confirmations": null,
      "from": "0x32Be343B94f860124dC4fEe278FDCBD38C102D88",
      "gasPrice": {
        "_hex": "0xcff595170"
      },
      "gasLimit": {
        "_hex": "0x5208"
      },
      "to": "0x28d29032c771EB357D52FA3F510824EF8E8E2513",
      "value": {
        "_hex": "0x8aa39c121a270000"
      },
      "nonce": 473,
      "data": "0x",
      "r": "0x3f7391997c7d969db90a06937d7e01fc6e63668a5f5c114ad9a9b5ebc2f22b27",
      "s": "0x126123476f966698cb4a899b8889a84dfd549b071ab729eae0d4cd830e6c959a",
      "v": 28,
      "creates": null,
      "raw": "0xf86e8201d9850cff5951708252089428d29032c771eb357d52fa3f510824ef8e8e2513888aa39c121a270000801ca03f7391997c7d969db90a06937d7e01fc6e63668a5f5c114ad9a9b5ebc2f22b27a0126123476f966698cb4a899b8889a84dfd549b071ab729eae0d4cd830e6c959a",
      "networkId": 0,
      "chainId": 0
    },
    {
      "hash": "0x50e6fec9fed7ab26a745f679431709fcc248781e5229a3f428c8ff7158e6deb1",
      "blockHash": "0x184b9ee75ff2ecdfd3c314f94fc1f9a4439f2bf003c364be47fc7d0e5645391d",
      "blockNumber": 79904,
      "transactionIndex": 2,
      "confirmations": null,
      "from": "0x32Be343B94f860124dC4fEe278FDCBD38C102D88",
      "gasPrice": {
        "_hex": "0xcff595170"
      },
      "gasLimit": {
        "_hex": "0x5208"
      },
      "to": "0x72bb27Cb99f3E2C2CF90A98F707d30E4A201A071",
      "value": {
        "_hex": "0x11057c9168e0e70000"
      },
      "nonce": 474,
      "data": "0x",
      "r": "0x2c9e4be2f89e11569453d572148394ccf11e17fa68f189003030bdb450285ba5",
      "s": "0x6eb7ef26c7edc35d7f3be377a30b1ae9ddf811e8ced364b9dd5baebd1ee6fec7",
      "v": 28,
      "creates": null,
      "raw": "0xf86f8201da850cff5951708252089472bb27cb99f3e2c2cf90a98f707d30e4a201a0718911057c9168e0e70000801ca02c9e4be2f89e11569453d572148394ccf11e17fa68f189003030bdb450285ba5a06eb7ef26c7edc35d7f3be377a30b1ae9ddf811e8ced364b9dd5baebd1ee6fec7",
      "networkId": 0,
      "chainId": 0
    },
    {
      "hash": "0xae8958894dcb17458e759ab163a5829cbf0008a1fd58784db30dff2038363a3c",
      "blockHash": "0x184b9ee75ff2ecdfd3c314f94fc1f9a4439f2bf003c364be47fc7d0e5645391d",
      "blockNumber": 79904,
      "transactionIndex": 3,
      "confirmations": null,
      "from": "0x32Be343B94f860124dC4fEe278FDCBD38C102D88",
      "gasPrice": {
        "_hex": "0xcff595170"
      },
      "gasLimit": {
        "_hex": "0x5208"
      },
      "to": "0x5B31A3686c75dcFb8DcC9c7FeDa726e9B008fF35",
      "value": {
        "_hex": "0xad76b3568565f0000"
      },
      "nonce": 475,
      "data": "0x",
      "r": "0x21adda172f5d79e2c07475b8aa72924ba2ae6a2773c0e67d25c56fa962017ef5",
      "s": "0x5581e50f29ff6accf3dde06c4538d8bdb4e5a36748919c183528b23f4cea9627",
      "v": 28,
      "creates": null,
      "raw": "0xf86f8201db850cff595170825208945b31a3686c75dcfb8dcc9c7feda726e9b008ff35890ad76b3568565f0000801ca021adda172f5d79e2c07475b8aa72924ba2ae6a2773c0e67d25c56fa962017ef5a05581e50f29ff6accf3dde06c4538d8bdb4e5a36748919c183528b23f4cea9627",
      "networkId": 0,
      "chainId": 0
    },
    {
      "hash": "0x063b4c892c91771068a586999a7e8e7aeb000e1379da77441d97188b710dad50",
      "blockHash": "0x184b9ee75ff2ecdfd3c314f94fc1f9a4439f2bf003c364be47fc7d0e5645391d",
      "blockNumber": 79904,
      "transactionIndex": 4,
      "confirmations": null,
      "from": "0x32Be343B94f860124dC4fEe278FDCBD38C102D88",
      "gasPrice": {
        "_hex": "0xcff595170"
      },
      "gasLimit": {
        "_hex": "0x5208"
      },
      "to": "0xC8ca597c8D121B2C4A04b998f5aCCEE93c5a8aD7",
      "value": {
        "_hex": "0x2b5c0282441c70000"
      },
      "nonce": 476,
      "data": "0x",
      "r": "0xecb405e37a673270d33fac7e8e63eca6e89ecb7ce76441cf5dd97799f3689b4b",
      "s": "0x1d8a5264fc4e42ac3a22bacc739bf3eba418a97fcb9783c7a0b572b32c1f7058",
      "v": 28,
      "creates": null,
      "raw": "0xf86f8201dc850cff59517082520894c8ca597c8d121b2c4a04b998f5accee93c5a8ad78902b5c0282441c70000801ca0ecb405e37a673270d33fac7e8e63eca6e89ecb7ce76441cf5dd97799f3689b4ba01d8a5264fc4e42ac3a22bacc739bf3eba418a97fcb9783c7a0b572b32c1f7058",
      "networkId": 0,
      "chainId": 0
    },
    {
      "hash": "0x0a219638520f92c898165b0e14a6f90ede57ff9ae1e69de582b4ad2842fecbf0",
      "blockHash": "0x184b9ee75ff2ecdfd3c314f94fc1f9a4439f2bf003c364be47fc7d0e5645391d",
      "blockNumber": 79904,
      "transactionIndex": 5,
      "confirmations": null,
      "from": "0x32Be343B94f860124dC4fEe278FDCBD38C102D88",
      "gasPrice": {
        "_hex": "0xcff595170"
      },
      "gasLimit": {
        "_hex": "0x5208"
      },
      "to": "0x28d29032c771EB357D52FA3F510824EF8E8E2513",
      "value": {
        "_hex": "0x8aa39c121a270000"
      },
      "nonce": 477,
      "data": "0x",
      "r": "0xd7c7fbcd7d51185904968e245ab606bc1f6c4eab22f95029495161810e1ded4a",
      "s": "0x17e449ce7de5aaa654a86badcbb103f2f360cf61886ed7d2d9edc4d887b64970",
      "v": 27,
      "creates": null,
      "raw": "0xf86e8201dd850cff5951708252089428d29032c771eb357d52fa3f510824ef8e8e2513888aa39c121a270000801ba0d7c7fbcd7d51185904968e245ab606bc1f6c4eab22f95029495161810e1ded4aa017e449ce7de5aaa654a86badcbb103f2f360cf61886ed7d2d9edc4d887b64970",
      "networkId": 0,
      "chainId": 0
    },
    {
      "hash": "0x7fade0f0aac51babf3d0c57d958aa36be776b600ee0aad14a352f17d5498b5b9",
      "blockHash": "0x184b9ee75ff2ecdfd3c314f94fc1f9a4439f2bf003c364be47fc7d0e5645391d",
      "blockNumber": 79904,
      "transactionIndex": 6,
      "confirmations": null,
      "from": "0x32Be343B94f860124dC4fEe278FDCBD38C102D88",
      "gasPrice": {
        "_hex": "0xcff595170"
      },
      "gasLimit": {
        "_hex": "0x5208"
      },
      "to": "0x6dba98d348Bb505Dae50fE2c5bEa1634a6409457",
      "value": {
        "_hex": "0x375f53dc2dcf0000"
      },
      "nonce": 478,
      "data": "0x",
      "r": "0xe95314a6db60c003fa9018bd2310536502cef910ee146f4f9b69d72f6cadef24",
      "s": "0x65397c5fe92b37204edb3d09e90d0b89c3dc9efc8cd6d13be503d117d0810e86",
      "v": 27,
      "creates": null,
      "raw": "0xf86e8201de850cff595170825208946dba98d348bb505dae50fe2c5bea1634a640945788375f53dc2dcf0000801ba0e95314a6db60c003fa9018bd2310536502cef910ee146f4f9b69d72f6cadef24a065397c5fe92b37204edb3d09e90d0b89c3dc9efc8cd6d13be503d117d0810e86",
      "networkId": 0,
      "chainId": 0
    },
    {
      "hash": "0x24bfd11bcf7bd85b00cc7596516db0d74650154c7819c49a20836be84c299ea1",
      "blockHash": "0x184b9ee75ff2ecdfd3c314f94fc1f9a4439f2bf003c364be47fc7d0e5645391d",
      "blockNumber": 79904,
      "transactionIndex": 7,
      "confirmations": null,
      "from": "0x32Be343B94f860124dC4fEe278FDCBD38C102D88",
      "gasPrice": {
        "_hex": "0xcff595170"
      },
      "gasLimit": {
        "_hex": "0x5208"
      },
      "to": "0x72bb27Cb99f3E2C2CF90A98F707d30E4A201A071",
      "value": {
        "_hex": "0x1156abf16a40f0000"
      },
      "nonce": 479,
      "data": "0x",
      "r": "0x77af9e94578b21feec46a96204a6c498223d6ce45e431fa6bd06712fa9c84c8a",
      "s": "0x27627016052820ea77ac95b5c78083856c1e97b0711565a78e06730e70c3dbf8",
      "v": 27,
      "creates": null,
      "raw": "0xf86f8201df850cff5951708252089472bb27cb99f3e2c2cf90a98f707d30e4a201a0718901156abf16a40f0000801ba077af9e94578b21feec46a96204a6c498223d6ce45e431fa6bd06712fa9c84c8aa027627016052820ea77ac95b5c78083856c1e97b0711565a78e06730e70c3dbf8",
      "networkId": 0,
      "chainId": 0
    },
    {
      "hash": "0x4ee1d72c75864ca495a4a51a6c57a35e487d1539058bfb8a731bfca232996419",
      "blockHash": "0x184b9ee75ff2ecdfd3c314f94fc1f9a4439f2bf003c364be47fc7d0e5645391d",
      "blockNumber": 79904,
      "transactionIndex": 8,
      "confirmations": null,
      "from": "0x32Be343B94f860124dC4fEe278FDCBD38C102D88",
      "gasPrice": {
        "_hex": "0xcff595170"
      },
      "gasLimit": {
        "_hex": "0x5208"
      },
      "to": "0xE54C51118A2Cc163BC4BDb7C653Ab45Fc179d928",
      "value": {
        "_hex": "0x56ba3d73af34f0000"
      },
      "nonce": 480,
      "data": "0x",
      "r": "0x8ceece450aaa230d40db1f8ae98788a75dac5d5b965e66e27059b81b0b26bd13",
      "s": "0x561eb6c0ee9b4c664b80d3356df76f378737cc52376155f5d752e91cf44e42d7",
      "v": 27,
      "creates": null,
      "raw": "0xf86f8201e0850cff59517082520894e54c51118a2cc163bc4bdb7c653ab45fc179d92889056ba3d73af34f0000801ba08ceece450aaa230d40db1f8ae98788a75dac5d5b965e66e27059b81b0b26bd13a0561eb6c0ee9b4c664b80d3356df76f378737cc52376155f5d752e91cf44e42d7",
      "networkId": 0,
      "chainId": 0
    },
    {
      "hash": "0x0b6a15c1ec7e02eb9c31cb28b189dc7b504e5da1c3bd7c0a4fa04cec667d6af3",
      "blockHash": "0x184b9ee75ff2ecdfd3c314f94fc1f9a4439f2bf003c364be47fc7d0e5645391d",
      "blockNumber": 79904,
      "transactionIndex": 9,
      "confirmations": null,
      "from": "0x32Be343B94f860124dC4fEe278FDCBD38C102D88",
      "gasPrice": {
        "_hex": "0xcff595170"
      },
      "gasLimit": {
        "_hex": "0x5208"
      },
      "to": "0x8FE9CA74aD04f35577E62bB0D660E5eeB85D8ed4",
      "value": {
        "_hex": "0x2da86d919f090000"
      },
      "nonce": 481,
      "data": "0x",
      "r": "0xa41b5c9964ce43afe3886d6a4aec158d3d04e1a6c268059eb5851ea6a9899273",
      "s": "0x39fc50748728547fdf8eb2fb7b8c87fcb4e32cff0e3cebb15d836bc966d08629",
      "v": 27,
      "creates": null,
      "raw": "0xf86e8201e1850cff595170825208948fe9ca74ad04f35577e62bb0d660e5eeb85d8ed4882da86d919f090000801ba0a41b5c9964ce43afe3886d6a4aec158d3d04e1a6c268059eb5851ea6a9899273a039fc50748728547fdf8eb2fb7b8c87fcb4e32cff0e3cebb15d836bc966d08629",
      "networkId": 0,
      "chainId": 0
    }
  ]
}