{
  "hash": "0x2f997f67e4b8025066c4dfa7ec63edb9f1baadcd7925bd6a6089c5eb71076f17",
  "parentHash": "0x71d787a868175dc16d9a1c6f0875696aa1923f580929b07c403f8f79cf22bcf3",
  "number": 115716,
  "timestamp": 1440062122,
  "nonce": "0xd343bb526bd41983",
  "difficulty": 4580455103137,
  "gasLimit": {
    "_hex": "0x2fefd8"
  },
  "gasUsed": {
    "_hex": "0xa410"
  },
  "miner": "0x1A22137e525478043F6E1394849e6C23932786C9",
  "extraData": "0x476574682f76312e302e312f6c696e75782f676f312e342e32",
  "transactions": [
    {
      "hash": "0x7bb47293f9367cd4f4e56644cac9873e469aae0c2f0bd23d206aead9ffaf9192",
      "blockHash": "0x2f997f67e4b8025066c4dfa7ec63edb9f1baadcd7925bd6a6089c5eb71076f17",
      "blockNumber": 115716,
      "transactionIndex": 0,
      "confirmations": null,
      "from": "0xdd26b429Fd43D84EC179825324BaD5bfb916B360",
      "gasPrice": {
        "_hex": "0xd3d37f23a"
      },
      "gasLimit": {
        "_hex": "0x15f90"
      },
      "to": "0x511718C3df5E7De7e63544aD29d2dDfacF0ada1e",
      "value": {
        "_hex": "0xde0b6b3a7640000"
      },
      "nonce": 0,
      "data": "0x",
      "r": "0xf9e4c23e90276225665975113f346ce6688b5e6e2cadbdce4652d0e693c19086",
      "s": "0x7090799e10b9c9b5fdb0761551ae5210acf19eed9b51d019c3a3d99bb7d56b7c",
      "v": 28,
      "creates": null,
      "raw": "0xf86d80850d3d37f23a83015f9094511718c3df5e7de7e63544ad29d2ddfacf0ada1e880de0b6b3a7640000801ca0f9e4c23e90276225665975113f346ce6688b5e6e2cadbdce4652d0e693c19086a07090799e10b9c9b5fdb0761551ae5210acf19eed9b51d019c3a3d99bb7d56b7c",
      "networkId": 0,
      "chainId": 0
    },
    {
      "hash": "0x36233e94554f95e17f98ece70943b2c58a22ec7a73c58e57fb3616f3e02e689e",
      "blockHash": "0x2f997f67e4b8025066c4dfa7ec63edb9f1baadcd7925bd6a6089c5eb71076f17",
      "blockNumber": 115716,
      "transactionIndex": 1,
      "confirmations": null,
      "from": "0x67a8Acb3621e0683EC4eeb0be82BE8cf344d97c6",
      "gasPrice": {
        "_hex": "0xba43b7400"
      },
      "gasLimit": {
        "_hex": "0x5208"
      },
      "to": "0xC47Aaa860008be6f65B58c6C6E02a84e666EfE31",
      "value": {
        "_hex": "0x8ac3680c5ce46000"
      },
      "nonce": 5,
      "data": "0x",
      "r": "0x786351dc48c2b1aeb8f3eb40f252ae0df6bebd7a5a272e352bdc05a66bedd1bf",
      "s": "0x43dc805b2bbd849a5e296bacadf92bb06abf2a032e114934b09239c93bb1474f",
      "v": 28,
      "creates": null,
      "raw": "0xf86c05850ba43b740082520894c47aaa860008be6f65b58c6c6e02a84e666efe31888ac3680c5ce46000801ca0786351dc48c2b1aeb8f3eb40f252ae0df6bebd7a5a272e352bdc05a66bedd1bfa043dc805b2bbd849a5e296bacadf92bb06abf2a032e114934b09239c93bb1474f",
      "networkId": 0,
      "chainId": 0
    }
  ]
}