{
  "hash": "0x99f8793a3e5e3558b8a950485ea3e42a4067c9b46ff4e016e91bb6f81561962f",
  "parentHash": "0x5938dbaa6d74f407daa123639817bbe4f91eea36d23d722890121f7730e70473",
  "number": 100148,
  "timestamp": 1439801553,
  "nonce": "0x8e99225e6a1d00d4",
  "difficulty": 3834222578848,
  "gasLimit": {
    "_hex": "0x2fefd8"
  },
  "gasUsed": {
    "_hex": "0x5208"
  },
  "miner": "0xe6A7a1d47ff21B6321162AEA7C6CB457D5476Bca",
  "extraData": "0x476574682f76312e302e312d38326566323666362f6c696e75782f676f312e34",
  "transactions": [
    {
      "hash": "0xeb9f89fda842be8fc9a5fbeb999fb7b8a0b115533cbfb94b8bf9746ac9227a55",
      "blockHash": "0x99f8793a3e5e3558b8a950485ea3e42a4067c9b46ff4e016e91bb6f81561962f",
      "blockNumber": 100148,
      "transactionIndex": 0,
      "confirmations": null,
      "from": "0xC603Ab5ef41fC61AA8b76bEddb09e3Cfcbb174BD",
      "gasPrice": {
        "_hex": "0xd2bcca8ef"
      },
      "gasLimit": {
        "_hex": "0x15f90"
      },
      "to": "0x8F79f76381Aad7B98C19aF55eE75fdfEeb012211",
      "value": {
        "_hex": "0x56bc75e2d63100000"
      },
      "nonce": 31,
      "data": "0x",
      "r": "0x73862243ffbcf043d3f3ca7a5d76b2026f3ebe11f8aad5505dd6f384c6c5b92a",
      "s": "0x29456dd80c77def85c7f04fec88058a878be9e03bf10cf4d8d36ac6a5d821422",
      "v": 27,
      "creates": null,
      "raw": "0xf86e1f850d2bcca8ef83015f90948f79f76381aad7b98c19af55ee75fdfeeb01221189056bc75e2d63100000801ba073862243ffbcf043d3f3ca7a5d76b2026f3ebe11f8aad5505dd6f384c6c5b92aa029456dd80c77def85c7f04fec88058a878be9e03bf10cf4d8d36ac6a5d821422",
      "networkId": 0,
      "chainId": 0
    }
  ]
}