{
  "hash": "0x6d011560fec3af12ab266bcd6c91f7a0e513f07ad9e929371316cb9842fd86b6",
  "parentHash": "0xb53aa5f8f10effea3d5a09eb613d6f90e6ce3b377388f0b72272d4885078fb3c",
  "number": 90447,
  "timestamp": 1439640151,
  "nonce": "0x4675d60ce804d4c5",
  "difficulty": 3333456834276,
  "gasLimit": {
    "_hex": "0x2fefd8"
  },
  "gasUsed": {
    "_hex": "0x5208"
  },
  "miner": "0xe6A7a1d47ff21B6321162AEA7C6CB457D5476Bca",
  "extraData": "0x476574682f76312e302e312d38326566323666362f6c696e75782f676f312e34",
  "transactions": [
    {
      "hash": "0x01851ee6bd03356f79eef9936f9011b4e197c1338b92238edf3373a7b301cc22",
      "blockHash": "0x6d011560fec3af12ab266bcd6c91f7a0e513f07ad9e929371316cb9842fd86b6",
      "blockNumber": 90447,
      "transactionIndex": 0,
      "confirmations": null,
      "from": "0xb553EA87675eF890a0318b068C2272d76c1c672C",
      "gasPrice": {
        "_hex": "0xd03b5b200"
      },
      "gasLimit": {
        "_hex": "0x55f0"
      },
      "to": "0x0c14C4F9C34AA06e66dDa6AEa1419753d96092DC",
      "value": {
        "_hex": "0x36a4cf636319c0000"
      },
      "nonce": 0,
      "data": "0x",
      "r": "0x431073be0773ba5436c6080eafcabe9e1c4bdd2307a6e50aac9daa9dca9a6ba5",
      "s": "0x3335109dad322af6100c7dda12d1b37459c193a6e2dc0aa4891ae362709bd85d",
      "v": 28,
      "creates": null,
      "raw": "0xf86d80850d03b5b2008255f0940c14c4f9c34aa06e66dda6aea1419753d96092dc89036a4cf636319c0000801ca0431073be0773ba5436c6080eafcabe9e1c4bdd2307a6e50aac9daa9dca9a6ba5a03335109dad322af6100c7dda12d1b37459c193a6e2dc0aa4891ae362709bd85d",
      "networkId": 0,
      "chainId": 0
    }
  ]
}