{
  "hash": "0x75e539e4b3e1aa4ccaf85817418127940dbe43b551df5d0084293bb13851e79c",
  "parentHash": "0xee7e65df8d3d4a86b514be8c716e17b671617520b7ce45387d166c66cc0f9721",
  "number": 104653,
  "timestamp": 1439873149,
  "nonce": "0x52016852d653ce4e",
  "difficulty": 4382884254910,
  "gasLimit": {
    "_hex": "0x2fefd8"
  },
  "gasUsed": {
    "_hex": "0x5208"
  },
  "miner": "0xe6A7a1d47ff21B6321162AEA7C6CB457D5476Bca",
  "extraData": "0x476574682f76312e302e312d38326566323666362f6c696e75782f676f312e34",
  "transactions": [
    {
      "hash": "0xd6c0bf28ee7292021b04f3da665de33f8c733969ab0f893bb60cfbac4b91ea8d",
      "blockHash": "0x75e539e4b3e1aa4ccaf85817418127940dbe43b551df5d0084293bb13851e79c",
      "blockNumber": 104653,
      "transactionIndex": 0,
      "confirmations": null,
      "from": "0x3f6da2f18Ce077B065ac7bcae884bF439a222B35",
      "gasPrice": {
        "_hex": "0xd876b58bd"
      },
      "gasLimit": {
        "_hex": "0x5208"
      },
      "to": "0xFBb1b73C4f0BDa4f67dcA266ce6Ef42f520fBB98",
      "value": {
        "_hex": "0x45634c257b178b018"
      },
      "nonce": 2,
      "data": "0x",
      "r": "0x62d5c73ff7227dfdef75d6a3a0370dbb018c985c294b23d887ed937df1f871c4",
      "s": "0x7cf24b0cd7f5a67899dca54b6316c59a7a791bdee8f15b6dfa9530ad212590dc",
      "v": 28,
      "creates": null,
      "raw": "0xf86d02850d876b58bd82520894fbb1b73c4f0bda4f67dca266ce6ef42f520fbb9889045634c257b178b018801ca062d5c73ff7227dfdef75d6a3a0370dbb018c985c294b23d887ed937df1f871c4a07cf24b0cd7f5a67899dca54b6316c59a7a791bdee8f15b6dfa9530ad212590dc",
      "networkId": 0,
      "chainId": 0
    }
  ]
}