{
  "hash": "0xb22347acd92fc0713cc0ad2f48341bc82fdfca62000d055525af2f0b70db9f92",
  "parentHash": "0x03b9b22b899a2fe13010d5ead6f0b4eec5885db77f89648befd8760b81babbed",
  "number": 48034,
  "timestamp": 1438950174,
  "nonce": "0x235ff21b067d40eb",
  "difficulty": 1465806578586,
  "gasLimit": {
    "_hex": "0x11dab"
  },
  "gasUsed": {
    "_hex": "0x5208"
  },
  "miner": "0xf927a40C8B7F6E07c5af7FA2155B4864a4112B13",
  "extraData": "0x476574682f76312e302e312f6c696e75782f676f312e342e32",
  "transactions": [
    {
      "hash": "0xdee1f41ba7e58c94927a2e1fd5ffd1f171bb598df72e794757fba820387767e8",
      "blockHash": "0xb22347acd92fc0713cc0ad2f48341bc82fdfca62000d055525af2f0b70db9f92",
      "blockNumber": 48034,
      "transactionIndex": 0,
      "confirmations": null,
      "from": "0x8063ee6AE2998aF5001051312036f989D606638F",
      "gasPrice": {
        "_hex": "0xdbc123f97"
      },
      "gasLimit": {
        "_hex": "0x5208"
      },
      "to": "0x3C4EaE3D92454e31e3E8f9F088A258759B4C3b5d",
      "value": {
        "_hex": "0xb469471f80140000"
      },
      "nonce": 0,
      "data": "0x",
      "r": "0x43c1b9adf662210872205df8317aa88aec2868aef310fad38991d2dde7b69b0d",
      "s": "0x306949e6b5aed3abd2fbba941aaed9ddbee64c45f1fd2c18cb5e77f5f00573ab",
      "v": 28,
      "creates": null,
      "raw": "0xf86c80850dbc123f97825208943c4eae3d92454e31e3e8f9f088a258759b4c3b5d88b469471f80140000801ca043c1b9adf662210872205df8317aa88aec2868aef310fad38991d2dde7b69b0da0306949e6b5aed3abd2fbba941aaed9ddbee64c45f1fd2c18cb5e77f5f00573ab",
      "networkId": 0,
      "chainId": 0
    }
  ]
}