{
  "hash": "0x2ce77c2405985fc0ce53cd4f417a862e1cab8cb1de8976c61a0eb1f985b52aa6",
  "parentHash": "0x190949cf97ee331994997382ce793720b91a3af7879bbe51d7a2e3980b0032ec",
  "number": 54378,
  "timestamp": 1439053236,
  "nonce": "0x6d35c90900ba0856",
  "difficulty": 1613376338590,
  "gasLimit": {
    "_hex": "0x2fefd8"
  },
  "gasUsed": {
    "_hex": "0x546c"
  },
  "miner": "0x01d9DA08cc6Fb97c0DE1B6F4C28910A0859Ed1A1",
  "extraData": "0x476574682f76312e302e312f6c696e75782f676f312e342e32",
  "transactions": [
    {
      "hash": "0xaff7a550e65ea7adc10b302b8767bd300da08cc612493b974e52888d0e543e3e",
      "blockHash": "0x2ce77c2405985fc0ce53cd4f417a862e1cab8cb1de8976c61a0eb1f985b52aa6",
      "blockNumber": 54378,
      "transactionIndex": 0,
      "confirmations": null,
      "from": "0x94E1f5cb9b8abaCE03a1A6428256553b690C2355",
      "gasPrice": {
        "_hex": "0x101e42230be"
      },
      "gasLimit": {
        "_hex": "0x15f90"
      },
      "to": "0x2910543Af39abA0Cd09dBb2D50200b3E800A63D2",
      "value": {
        "_hex": "0xde0b6b3a7640000"
      },
      "nonce": 1,
      "data": "0x454e30593350355052",
      "r": "0x5e584b9dbf5f883b75959f48a836269bae3c89f9db71be2ea45d3b67cd9bdd95",
      "s": "0x1c80f76f7038bd105b80c9051180d352836dcc04e6c3d4de98bef16a3ec470c3",
      "v": 27,
      "creates": null,
      "raw": "0xf87701860101e42230be83015f90942910543af39aba0cd09dbb2d50200b3e800a63d2880de0b6b3a764000089454e305933503550521ba05e584b9dbf5f883b75959f48a836269bae3c89f9db71be2ea45d3b67cd9bdd95a01c80f76f7038bd105b80c9051180d352836dcc04e6c3d4de98bef16a3ec470c3",
      "networkId": 0,
      "chainId": 0
    }
  ]
}