{
  "hash": "0x45878f415143d4a1c52e2433b24282e386f3af8f7ffaa59667657ddd9d83af11",
  "parentHash": "0x665b0ee7299e26ab1df56ccb931097292731cab89e8a3ed0fd6e4b906758813b",
  "number": 99397,
  "timestamp": 1439789362,
  "nonce": "0xdc7f46fb840894fc",
  "difficulty": 3795447476474,
  "gasLimit": {
    "_hex": "0x2fefd8"
  },
  "gasUsed": {
    "_hex": "0xf618"
  },
  "miner": "0xe6A7a1d47ff21B6321162AEA7C6CB457D5476Bca",
  "extraData": "0x476574682f76312e302e312d38326566323666362f6c696e75782f676f312e34",
  "transactions": [
    {
      "hash": "0xaf2b78fc1c2dbf91327fed75fefbeba20287b217d12ecaa690d0f00a915ea135",
      "blockHash": "0x45878f415143d4a1c52e2433b24282e386f3af8f7ffaa59667657ddd9d83af11",
      "blockNumber": 99397,
      "transactionIndex": 0,
      "confirmations": null,
      "from": "0xaB638742EBe3A78F2a85028350e1AADB86C0a6ed",
      "gasPrice": {
        "_hex": "0xd641f460d"
      },
      "gasLimit": {
        "_hex": "0x15f90"
      },
      "to": "0xD5bf64B3B17Fb895536953EfE17578a8b7b16880",
      "value": {
        "_hex": "0x56bc75e2d63100000"
      },
      "nonce": 2,
      "data": "0x",
      "r": "0xf2aad73d55aeed7291f7e42526eeae26cf784c29fc05a5e76eaafbf4f8f24d48",
      "s": "0x00f089f994b0434563b8af0753aac6468ae0cec7c2b29f9730679c93a4e8f51e",
      "v": 27,
      "creates": null,
      "raw": "0xf86d02850d641f460d83015f9094d5bf64b3b17fb895536953efe17578a8b7b1688089056bc75e2d63100000801ba0f2aad73d55aeed7291f7e42526eeae26cf784c29fc05a5e76eaafbf4f8f24d489ff089f994b0434563b8af0753aac6468ae0cec7c2b29f9730679c93a4e8f51e",
      "networkId": 0,
      "chainId": 0
    },
    {
      "hash": "0xd22e58d1b8f98f98e1b2b7f9845652e4b87dc56030e45baf28929199227c1940",
      "blockHash": "0x45878f415143d4a1c52e2433b24282e386f3af8f7ffaa59667657ddd9d83af11",
      "blockNumber": 99397,
      "transactionIndex": 1,
      "confirmations": null,
      "from": "0xD3A57C79fde37eD4Ed9991638f3C0a59413a3C0F",
      "gasPrice": {
        "_hex": "0xcb22c3e7f"
      },
      "gasLimit": {
        "_hex": "0x5208"
      },
      "to": "0x32Be343B94f860124dC4fEe278FDCBD38C102D88",
      "value": {
        "_hex": "0x377ebe699f000000"
      },
      "nonce": 0,
      "data": "0x",
      "r": "0x14666c22079b02c2666f5d575793f54ebcfc944f482bf64f1260fdfa1bc8f644",
      "s": "0x400ffda318255f7570eec2be38a50bd78fdf7c04745d42fe79f2762dbc796f3b",
      "v": 28,
      "creates": null,
      "raw": "0xf86c80850cb22c3e7f8252089432be343b94f860124dc4fee278fdcbd38c102d8888377ebe699f000000801ca014666c22079b02c2666f5d575793f54ebcfc944f482bf64f1260fdfa1bc8f644a0400ffda318255f7570eec2be38a50bd78fdf7c04745d42fe79f2762dbc796f3b",
      "networkId": 0,
      "chainId": 0
    },
    {
      "hash": "0xdac226f169c3fc23822cb3cd83c394161defb915420e2e4ee79136962123c9ca",
      "blockHash": "0x45878f415143d4a1c52e2433b24282e386f3af8f7ffaa59667657ddd9d83af11",
      "blockNumber": 99397,
      "transactionIndex": 2,
      "confirmations": null,
      "from": "0x32Be343B94f860124dC4fEe278FDCBD38C102D88",
      "gasPrice": {
        "_hex": "0xcb22c3e7f"
      },
      "gasLimit": {
        "_hex": "0x5208"
      },
      "to": "0xd6Bb39DA0858E6AEddcaa12a509327b2D05f5B51",
      "value": {
        "_hex": "0xf3f1e80707fa100000"
      },
      "nonce": 1060,
      "data": "0x",
      "r": "0x2f4bca1ba0183e692bcd90586d498e3e1de049295294103f8dfd69d4429a46bb",
      "s": "0x3a91ba75c0ffeefcc3c201c9a46ec3f7cc8330332071f0ed63630571f388b4c3",
      "v": 27,
      "creates": null,
      "raw": "0xf86f820424850cb22c3e7f82520894d6bb39da0858e6aeddcaa12a509327b2d05f5b5189f3f1e80707fa100000801ba02f4bca1ba0183e692bcd90586d498e3e1de049295294103f8dfd69d4429a46bba03a91ba75c0ffeefcc3c201c9a46ec3f7cc8330332071f0ed63630571f388b4c3",
      "networkId": 0,
      "chainId": 0
    }
  ]
}