{
  "hash": "0x8ed29e7735502af293ea06cdf4ac02697412c787b0daa12cceee1367b68f11c0",
  "parentHash": "0x976b876c7cb326a7dcae981780123babe3f65bd3abcc7a1738f8a92f3c92193f",
  "number": 56756,
  "timestamp": 1439091968,
  "nonce": "0x924a51d57db1d678",
  "difficulty": 1691976165353,
  "gasLimit": {
    "_hex": "0x2fefd8"
  },
  "gasUsed": {
    "_hex": "0x546c"
  },
  "miner": "0x9D49F602b0fdb924Bd63DDE2Bd0907E4A07c63a7",
  "extraData": "0x476574682f76312e302e312f6c696e75782f676f312e342e32",
  "transactions": [
    {
      "hash": "0xb04c3142b49d2ab194fdcc6dacf6557e1e9e688f15fb9f08e96145bcf990b838",
      "blockHash": "0x8ed29e7735502af293ea06cdf4ac02697412c787b0daa12cceee1367b68f11c0",
      "blockNumber": 56756,
      "transactionIndex": 0,
      "confirmations": null,
      "from": "0x823219A25976Bb2aa4af8bAD41ac3526b493361f",
      "gasPrice": {
        "_hex": "0x110c8f7d8de"
      },
      "gasLimit": {
        "_hex": "0xc350"
      },
      "to": "0x2910543Af39abA0Cd09dBb2D50200b3E800A63D2",
      "value": {
        "_hex": "0x6c6a3016135fb60000"
      },
      "nonce": 0,
      "data": "0x454e43544254383038",
      "r": "0x38af7894e6e2c258bb70af18469edc410a4bf6aa1a49ea0e46c7222bbd5ceac8",
      "s": "0x0d5948dbcae1b75c5f236b784a1b703d07ab5158ca251fa60d1f554f97014ea3",
      "v": 28,
      "creates": null,
      "raw": "0xf87780860110c8f7d8de82c350942910543af39aba0cd09dbb2d50200b3e800a63d2896c6a3016135fb6000089454e435442543830381ca038af7894e6e2c258bb70af18469edc410a4bf6aa1a49ea0e46c7222bbd5ceac8a00d5948dbcae1b75c5f236b784a1b703d07ab5158ca251fa60d1f554f97014ea3",
      "networkId": 0,
      "chainId": 0
    }
  ]
}