{
  "hash": "0x2a9ceb0feec77410e4942d771e5936ccb5453324acbfb4af4b047e6556f9afd2",
  "parentHash": "0x6019f5ce32991a99438ec6467cdbbef96fac9677a8f3b578f307a0f91540f8f8",
  "number": 112079,
  "timestamp": 1440001454,
  "nonce": "0x907f3af987e1e487",
  "difficulty": 4387567135573,
  "gasLimit": {
    "_hex": "0x2fefd8"
  },
  "gasUsed": {
    "_hex": "0x54b0"
  },
  "miner": "0xe6A7a1d47ff21B6321162AEA7C6CB457D5476Bca",
  "extraData": "0x476574682f76312e302e312d38326566323666362f6c696e75782f676f312e34",
  "transactions": [
    {
      "hash": "0xd69ea98a7ab317d379c368a826b3581970b421c424bfbfb946d14d934d930590",
      "blockHash": "0x2a9ceb0feec77410e4942d771e5936ccb5453324acbfb4af4b047e6556f9afd2",
      "blockNumber": 112079,
      "transactionIndex": 0,
      "confirmations": null,
      "from": "0x8F68fbE2DCFf038C24F650C9e05Ee478038171cd",
      "gasPrice": {
        "_hex": "0xcf597fea0"
      },
      "gasLimit": {
        "_hex": "0x55f0"
      },
      "to": "0x40B9b889A21Ff1534d018D71Dc406122EBcf3F5A",
      "value": {
        "_hex": "0x6c5db2a4d815dc0000"
      },
      "nonce": 24,
      "data": "0x4a465343433732393935",
      "r": "0x21af9945dcbe1af20962eccde42ea8e463937f4b4247fcd519efe9b07ae84e87",
      "s": "0x5eacb196ec08b0bbe52b48a002891306db1aa1490ae59ad63f0a9aa08c9c3f76",
      "v": 28,
      "creates": null,
      "raw": "0xf87718850cf597fea08255f09440b9b889a21ff1534d018d71dc406122ebcf3f5a896c5db2a4d815dc00008a4a4653434337323939351ca021af9945dcbe1af20962eccde42ea8e463937f4b4247fcd519efe9b07ae84e87a05eacb196ec08b0bbe52b48a002891306db1aa1490ae59ad63f0a9aa08c9c3f76",
      "networkId": 0,
      "chainId": 0
    }
  ]
}