{
  "hash": "0x5142c9bd332f9c3da9b064ff3df06c8fdc490b22c9ef3edb226cf219ed284319",
  "parentHash": "0x49fbe828edcf6c5e4ed2a3147ec980b209450827ab03174e205867ab41369609",
  "number": 112763,
  "timestamp": 1440012803,
  "nonce": "0x9d5e48ce9a2083a0",
  "difficulty": 4443261436561,
  "gasLimit": {
    "_hex": "0x2fefd8"
  },
  "gasUsed": {
    "_hex": "0xf618"
  },
  "miner": "0xe6A7a1d47ff21B6321162AEA7C6CB457D5476Bca",
  "extraData": "0x476574682f76312e302e312d38326566323666362f6c696e75782f676f312e34",
  "transactions": [
    {
      "hash": "0x297083ccebe1ccf527c4121d56b4f7d9d686d8a74896bcf1bdf3a8c1e29a8042",
      "blockHash": "0x5142c9bd332f9c3da9b064ff3df06c8fdc490b22c9ef3edb226cf219ed284319",
      "blockNumber": 112763,
      "transactionIndex": 0,
      "confirmations": null,
      "from": "0xce8ff6d2027CA9837abb85FD515752151b6C7d0A",
      "gasPrice": {
        "_hex": "0xd65ade387"
      },
      "gasLimit": {
        "_hex": "0x5208"
      },
      "to": "0x32Be343B94f860124dC4fEe278FDCBD38C102D88",
      "value": {
        "_hex": "0x2e4a624216228c00"
      },
      "nonce": 8,
      "data": "0x",
      "r": "0x98368836e7aed3142b12bd77e0d82d649d80dd03211d8f7c560639ac2ed554fc",
      "s": "0x56e3f4d1b66c7f5cb5120f2cd93aa9da7ff92556ee4ef279350debb7b4e461d1",
      "v": 27,
      "creates": null,
      "raw": "0xf86c08850d65ade3878252089432be343b94f860124dc4fee278fdcbd38c102d88882e4a624216228c00801ba098368836e7aed3142b12bd77e0d82d649d80dd03211d8f7c560639ac2ed554fca056e3f4d1b66c7f5cb5120f2cd93aa9da7ff92556ee4ef279350debb7b4e461d1",
      "networkId": 0,
      "chainId": 0
    },
    {
      "hash": "0x53c97ebd685482d934ebde2de566afe2ebc9c1936f18d5d09c721297e6721a69",
      "blockHash": "0x5142c9bd332f9c3da9b064ff3df06c8fdc490b22c9ef3edb226cf219ed284319",
      "blockNumber": 112763,
      "transactionIndex": 1,
      "confirmations": null,
      "from": "0x910a4aADabb3A7B3F7879118332E13Da66b68D77",
      "gasPrice": {
        "_hex": "0xd65ade387"
      },
      "gasLimit": {
        "_hex": "0x5208"
      },
      "to": "0x32Be343B94f860124dC4fEe278FDCBD38C102D88",
      "value": {
        "_hex": "0xd0266989e6585000"
      },
      "nonce": 19,
      "data": "0x",
      "r": "0x12df4abb218d1aa346fd0c672ec341bcb18a8ab054f0a0481e7e6eaf50b7f20e",
      "s": "0x397b4845726a7536852db1235dfd73ee6ce246110b689bad91b7a842f295a613",
      "v": 27,
      "creates": null,
      "raw": "0xf86c13850d65ade3878252089432be343b94f860124dc4fee278fdcbd38c102d8888d0266989e6585000801ba012df4abb218d1aa346fd0c672ec341bcb18a8ab054f0a0481e7e6eaf50b7f20ea0397b4845726a7536852db1235dfd73ee6ce246110b689bad91b7a842f295a613",
      "networkId": 0,
      "chainId": 0
    },
    {
      "hash": "0xe3cf54fc1c5439ee50c57135ef131d78cff3c6fb76264d1a01e4dee7b8ac7caa",
      "blockHash": "0x5142c9bd332f9c3da9b064ff3df06c8fdc490b22c9ef3edb226cf219ed284319",
      "blockNumber": 112763,
      "transactionIndex": 2,
      "confirmations": null,
      "from": "0x93b3437645A67059E280a3317a93c57e2f4788EA",
      "gasPrice": {
        "_hex": "0xd65ade387"
      },
      "gasLimit": {
        "_hex": "0x5208"
      },
      "to": "0x32Be343B94f860124dC4fEe278FDCBD38C102D88",
      "value": {
        "_hex": "0xba26241daa55c000"
      },
      "nonce": 8,
      "data": "0x",
      "r": "0xbe19fc55c2fa3841108183ecd3bf471f0686f690f5d40d131b95bba69492467d",
      "s": "0x4d91edcafa9ee4cf173eeba060a355032b818dc4d92efd2d53ee04a74e5a6e33",
      "v": 27,
      "creates": null,
      "raw": "0xf86c08850d65ade3878252089432be343b94f860124dc4fee278fdcbd38c102d8888ba26241daa55c000801ba0be19fc55c2fa3841108183ecd3bf471f0686f690f5d40d131b95bba69492467da04d91edcafa9ee4cf173eeba060a355032b818dc4d92efd2d53ee04a74e5a6e33",
      "networkId": 0,
      "chainId": 0
    }
  ]
}