{
  "hash": "0x10a781107ff5b2cf4ab8486d37877a57986646c91bcaa57073f46632e6614c65",
  "parentHash": "0x35f1f503c40b61e8302089004f8b215cceec983c9790c90d97b06448e59df75a",
  "number": 112826,
  "timestamp": 1440013892,
  "nonce": "0xff371cce2b6e42e6",
  "difficulty": 4423745001652,
  "gasLimit": {
    "_hex": "0x2fefd8"
  },
  "gasUsed": {
    "_hex": "0x5208"
  },
  "miner": "0x4197AAB12B9F602257C187FB63Ea77eF9036e2F8",
  "extraData": "0x476574682f76312e302e312f6c696e75782f676f312e342e32",
  "transactions": [
    {
      "hash": "0xbeea1844f348ea42f6836ac760d03810887189e7cf5b0476b230260c9db862fa",
      "blockHash": "0x10a781107ff5b2cf4ab8486d37877a57986646c91bcaa57073f46632e6614c65",
      "blockNumber": 112826,
      "transactionIndex": 0,
      "confirmations": null,
      "from": "0x2533B90f7afF15196EaA7e4719E057c85dEF3A47",
      "gasPrice": {
        "_hex": "0xd4c4a9a95"
      },
      "gasLimit": {
        "_hex": "0x5208"
      },
      "to": "0x32Be343B94f860124dC4fEe278FDCBD38C102D88",
      "value": {
        "_hex": "0x1263144d20f4a9000"
      },
      "nonce": 5,
      "data": "0x",
      "r": "0xb70b1c03ad39500b531310cf55e5d8cca33a6684397ea56f0f4266f46c2f86fb",
      "s": "0x5a830195b413fbacd5dad0921f4ac3f48fc14f44fad8a5df2d737d79a97b1e53",
      "v": 28,
      "creates": null,
      "raw": "0xf86d05850d4c4a9a958252089432be343b94f860124dc4fee278fdcbd38c102d888901263144d20f4a9000801ca0b70b1c03ad39500b531310cf55e5d8cca33a6684397ea56f0f4266f46c2f86fba05a830195b413fbacd5dad0921f4ac3f48fc14f44fad8a5df2d737d79a97b1e53",
      "networkId": 0,
      "chainId": 0
    }
  ]
}