{
  "hash": "0x8d110bcf9f4018a1d629293f73c8afe27abcc6c7a10fc6cda4cf8b521765f486",
  "parentHash": "0xccee0ad37dfefd4d95a6417a190ccdd77af624bf40af11c470a031cfaafc4768",
  "number": 81728,
  "timestamp": 1439506757,
  "nonce": "0x96a5582490d77d92",
  "difficulty": 2425897498427,
  "gasLimit": {
    "_hex": "0x2fefd8"
  },
  "gasUsed": {
    "_hex": "0xf87c"
  },
  "miner": "0xe6A7a1d47ff21B6321162AEA7C6CB457D5476Bca",
  "extraData": "0x476574682f76312e302e312d38326566323666362f6c696e75782f676f312e34",
  "transactions": [
    {
      "hash": "0x2f42a14dd7c5eb8d0d69d67155a6ad3098aa02be41fd5eb50fbe9015754f7601",
      "blockHash": "0x8d110bcf9f4018a1d629293f73c8afe27abcc6c7a10fc6cda4cf8b521765f486",
      "blockNumber": 81728,
      "transactionIndex": 0,
      "confirmations": null,
      "from": "0x77e41B4125b7c14757e0f07fE36b2E95db757a10",
      "gasPrice": {
        "_hex": "0xd1a9d57a4"
      },
      "gasLimit": {
        "_hex": "0x55f0"
      },
      "to": "0x2910543Af39abA0Cd09dBb2D50200b3E800A63D2",
      "value": {
        "_hex": "0x9f98351204fe0000"
      },
      "nonce": 9,
      "data": "0x454e47583939505930",
      "r": "0x041d5f33bb6d776c1f8a348c40fd2cc7ea2c942853831df9290baa2a4ba3f95e",
      "s": "0x1070952ab15f48c2bd8cf7f0063be5a294d1c0b18cccdf8f9af01766da1343d9",
      "v": 27,
      "creates": null,
      "raw": "0xf87509850d1a9d57a48255f0942910543af39aba0cd09dbb2d50200b3e800a63d2889f98351204fe000089454e475839395059301ba0041d5f33bb6d776c1f8a348c40fd2cc7ea2c942853831df9290baa2a4ba3f95ea01070952ab15f48c2bd8cf7f0063be5a294d1c0b18cccdf8f9af01766da1343d9",
      "networkId": 0,
      "chainId": 0
    },
    {
      "hash": "0x36758303bcfaa11d707741e23f78574e8b239a981236caf4cd3a1466306bb1a1",
      "blockHash": "0x8d110bcf9f4018a1d629293f73c8afe27abcc6c7a10fc6cda4cf8b521765f486",
      "blockNumber": 81728,
      "transactionIndex": 1,
      "confirmations": null,
      "from": "0x0691f11e1B4005E0b7B2562d1F30cBF287f6f37B",
      "gasPrice": {
        "_hex": "0xcb6b15df3"
      },
      "gasLimit": {
        "_hex": "0x5208"
      },
      "to": "0x32Be343B94f860124dC4fEe278FDCBD38C102D88",
      "value": {
        "_hex": "0x1041eec224e57c0000"
      },
      "nonce": 0,
      "data": "0x",
      "r": "0xbeda6acc2f28a0255b894d520770ef612b804205523b1dbaa3b24bf6e5639bc9",
      "s": "0x0047593d4138940ff35d5fecda678b657bd5e4371de6a515cd979ec807e3a34c",
      "v": 27,
      "creates": null,
      "raw": "0xf86c80850cb6b15df38252089432be343b94f860124dc4fee278fdcbd38c102d88891041eec224e57c0000801ba0beda6acc2f28a0255b894d520770ef612b804205523b1dbaa3b24bf6e5639bc99f47593d4138940ff35d5fecda678b657bd5e4371de6a515cd979ec807e3a34c",
      "networkId": 0,
      "chainId": 0
    },
    {
      "hash": "0x9c80c06bd7137405a13ae968744ecb88bcc13bfdc0d5a1fdfa551e100f89a1ef",
      "blockHash": "0x8d110bcf9f4018a1d629293f73c8afe27abcc6c7a10fc6cda4cf8b521765f486",
      "blockNumber": 81728,
      "transactionIndex": 2,
      "confirmations": null,
      "from": "0x5c59E28366c83f1d262567c1c529185146e68b16",
      "gasPrice": {
        "_hex": "0xcb6b15df3"
      },
      "gasLimit": {
        "_hex": "0x5208"
      },
      "to": "0x32Be343B94f860124dC4fEe278FDCBD38C102D88",
      "value": {
        "_hex": "0x3635b3d76414a20000"
      },
      "nonce": 4,
      "data": "0x",
      "r": "0x0df6504f2c7d8c3dd408578d69d67a2eee9048e390523afe7cbeb315b45160fd",
      "s": "0x6b6d42e433d8e8b07044f155a8c075ebf70b89ae555cf3cdb619b09a27366a3f",
      "v": 27,
      "creates": null,
      "raw": "0xf86d04850cb6b15df38252089432be343b94f860124dc4fee278fdcbd38c102d88893635b3d76414a20000801ba00df6504f2c7d8c3dd408578d69d67a2eee9048e390523afe7cbeb315b45160fda06b6d42e433d8e8b07044f155a8c075ebf70b89ae555cf3cdb619b09a27366a3f",
      "networkId": 0,
      "chainId": 0
    }
  ]
}