{
  "hash": "0x5a45d76e156efd657d77213e2ce3e55255c5461fe2d46ec0096f0997068c7579",
  "parentHash": "0xb778100a25465ed6ff35d336b45ae7d786b021d4ba1cd3f22ef2f44ce95cd17e",
  "number": 121910,
  "timestamp": 1440184776,
  "nonce": "0x35fb573d7d201d00",
  "difficulty": 4479787452031,
  "gasLimit": {
    "_hex": "0x2fefd8"
  },
  "gasUsed": {
    "_hex": "0x3d860"
  },
  "miner": "0xe6A7a1d47ff21B6321162AEA7C6CB457D5476Bca",
  "extraData": "0xd783010002844765746887676f312e342e32856c696e7578",
  "transactions": [
    {
      "hash": "0x8b287e58aba864fa88036accb571ecb2c2ea1f8f3207f0fcb349860c3c7d9067",
      "blockHash": "0x5a45d76e156efd657d77213e2ce3e55255c5461fe2d46ec0096f0997068c7579",
      "blockNumber": 121910,
      "transactionIndex": 0,
      "confirmations": null,
      "from": "0x2cf4364bc4C7C3333aB9963C4B3473664f42D83A",
      "gasPrice": {
        "_hex": "0xd526bf68f"
      },
      "gasLimit": {
        "_hex": "0x5208"
      },
      "to": "0x32Be343B94f860124dC4fEe278FDCBD38C102D88",
      "value": {
        "_hex": "0xa7051eb48b727800"
      },
      "nonce": 10,
      "data": "0x",
      "r": "0x097402de600acd16fdd660a131d57f2bc9096ceba589ed3917479161af95c490",
      "s": "0x004fe5fe68b82a35452bc824356cf58a39bac81417bf2e46e88001e4c5c5bbfc",
      "v": 28,
      "creates": null,
      "raw": "0xf86b0a850d526bf68f8252089432be343b94f860124dc4fee278fdcbd38c102d8888a7051eb48b727800801ca0097402de600acd16fdd660a131d57f2bc9096ceba589ed3917479161af95c4909f4fe5fe68b82a35452bc824356cf58a39bac81417bf2e46e88001e4c5c5bbfc",
      "networkId": 0,
      "chainId": 0
    },
    {
      "hash": "0x11062a62212161bfd4891129a1ac52ef9f4ac3052177f695d7ae636640030504",
      "blockHash": "0x5a45d76e156efd657d77213e2ce3e55255c5461fe2d46ec0096f0997068c7579",
      "blockNumber": 121910,
      "transactionIndex": 1,
      "confirmations": null,
      "from": "0x6d84df1cFAD609EAc476cBC2553390bFC23Cf6Fc",
      "gasPrice": {
        "_hex": "0xd526bf68f"
      },
      "gasLimit": {
        "_hex": "0x5208"
      },
      "to": "0x32Be343B94f860124dC4fEe278FDCBD38C102D88",
      "value": {
        "_hex": "0x8f2dd2c2d59d08000"
      },
      "nonce": 11,
      "data": "0x",
      "r": "0x43ddc4d18cc0790af961e42a20e858dbbec8a0944ff89211c98df509907b5c4a",
      "s": "0x570b254f46537338840a958141fc0869b770d563746996099abf4efb24284ebb",
      "v": 27,
      "creates": null,
      "raw": "0xf86d0b850d526bf68f8252089432be343b94f860124dc4fee278fdcbd38c102d888908f2dd2c2d59d08000801ba043ddc4d18cc0790af961e42a20e858dbbec8a0944ff89211c98df509907b5c4aa0570b254f46537338840a958141fc0869b770d563746996099abf4efb24284ebb",
      "networkId": 0,
      "chainId": 0
    },
    {
      "hash": "0x00783b218296143fa333fe8b91bbd109e1f20bcfd3fa5d55493a835d66f1b2de",
      "blockHash": "0x5a45d76e156efd657d77213e2ce3e55255c5461fe2d46ec0096f0997068c7579",
      "blockNumber": 121910,
      "transactionIndex": 2,
      "confirmations": null,
      "from": "0x608f4b86321a68453f9adf6F06F7Fc3E621739ad",
      "gasPrice": {
        "_hex": "0xd526bf68f"
      },
      "gasLimit": {
        "_hex": "0x5208"
      },
      "to": "0x32Be343B94f860124dC4fEe278FDCBD38C102D88",
      "value": {
        "_hex": "0x7372ab194dd404000"
      },
      "nonce": 116,
      "data": "0x",
      "r": "0x400219fb6177463953a51770ebcc073ddbd15da8f07b9bf9d13d205176423fe3",
      "s": "0x6a5c134fe61819526269f268fddec676cceea83e1863b2829a5d5e323714a0ba",
      "v": 27,
      "creates": null,
      "raw": "0xf86d74850d526bf68f8252089432be343b94f860124dc4fee278fdcbd38c102d888907372ab194dd404000801ba0400219fb6177463953a51770ebcc073ddbd15da8f07b9bf9d13d205176423fe3a06a5c134fe61819526269f268fddec676cceea83e1863b2829a5d5e323714a0ba",
      "networkId": 0,
      "chainId": 0
    },
    {
      "hash": "0x53b9f8c763ca984041000448dd32ba30046b42317d6317f653f5e563afa3f87d",
      "blockHash": "0x5a45d76e156efd657d77213e2ce3e55255c5461fe2d46ec0096f0997068c7579",
      "blockNumber": 121910,
      "transactionIndex": 3,
      "confirmations": null,
      "from": "0x59cC965F1643a68ad7a4272ff1654d4af4343ea7",
      "gasPrice": {
        "_hex": "0xd526bf68f"
      },
      "gasLimit": {
        "_hex": "0x5208"
      },
      "to": "0x32Be343B94f860124dC4fEe278FDCBD38C102D88",
      "value": {
        "_hex": "0x44683256178250000"
      },
      "nonce": 10,
      "data": "0x",
      "r": "0x132f79bfc92491938c616c237a3bbbebd1c23137d7747e8b2a6553f408d0934e",
      "s": "0x5a3be3b771da8db98de38d436c40a7702b5dbed290c6ade83f21f03134b1c24e",
      "v": 27,
      "creates": null,
      "raw": "0xf86d0a850d526bf68f8252089432be343b94f860124dc4fee278fdcbd38c102d8889044683256178250000801ba0132f79bfc92491938c616c237a3bbbebd1c23137d7747e8b2a6553f408d0934ea05a3be3b771da8db98de38d436c40a7702b5dbed290c6ade83f21f03134b1c24e",
      "networkId": 0,
      "chainId": 0
    },
    {
      "hash": "0x0f81c32ea7d77874026c6b2a84df516f97ebe4e949d917600b5d62e9775cd2e1",
      "blockHash": "0x5a45d76e156efd657d77213e2ce3e55255c5461fe2d46ec0096f0997068c7579",
      "blockNumber": 121910,
      "transactionIndex": 4,
      "confirmations": null,
      "from": "0xf0c896DB24137eDA6Ec88cF1a95217F8604aE55e",
      "gasPrice": {
        "_hex": "0xd526bf68f"
      },
      "gasLimit": {
        "_hex": "0x5208"
      },
      "to": "0x32Be343B94f860124dC4fEe278FDCBD38C102D88",
      "value": {
        "_hex": "0xcedd27ef34a36000"
      },
      "nonce": 10,
      "data": "0x",
      "r": "0xf9abf2df9b7b26320d1a22840a8373e93cbc6c14944c78f7886378b87d5c545b",
      "s": "0x6bb37d64167f71a445ed3656933de002614450fcbac80bd3aba3c54453459795",
      "v": 27,
      "creates": null,
      "raw": "0xf86c0a850d526bf68f8252089432be343b94f860124dc4fee278fdcbd38c102d8888cedd27ef34a36000801ba0f9abf2df9b7b26320d1a22840a8373e93cbc6c14944c78f7886378b87d5c545ba06bb37d64167f71a445ed3656933de002614450fcbac80bd3aba3c54453459795",
      "networkId": 0,
      "chainId": 0
    },
    {
      "hash": "0xc25f366be7ab662753b295e424fca687cadccc3c2cb359622c54bb4213750091",
      "blockHash": "0x5a45d76e156efd657d77213e2ce3e55255c5461fe2d46ec0096f0997068c7579",
      "blockNumber": 121910,
      "transactionIndex": 5,
      "confirmations": null,
      "from": "0x4a900C6a7785648E677cd96E39603466c0C7744A",
      "gasPrice": {
        "_hex": "0xd526bf68f"
      },
      "gasLimit": {
        "_hex": "0x5208"
      },
      "to": "0x32Be343B94f860124dC4fEe278FDCBD38C102D88",
      "value": {
        "_hex": "0x269104715cdb5400"
      },
      "nonce": 11,
      "data": "0x",
      "r": "0x0cbda86dc19b893763a1974570a814be1a77bf4a059e73f29f784a40d5e6b3e8",
      "s": "0x5df824dd81a55d94c19297723c82021056ab8728bbb1a565920beeaa924912b4",
      "v": 28,
      "creates": null,
      "raw": "0xf86c0b850d526bf68f8252089432be343b94f860124dc4fee278fdcbd38c102d8888269104715cdb5400801ca00cbda86dc19b893763a1974570a814be1a77bf4a059e73f29f784a40d5e6b3e8a05df824dd81a55d94c19297723c82021056ab8728bbb1a565920beeaa924912b4",
      "networkId": 0,
      "chainId": 0
    },
    {
      "hash": "0x34fb192f1412361bb05ba000bfa315a9c45bf3f5e3e997d134d9552266e0ee42",
      "blockHash": "0x5a45d76e156efd657d77213e2ce3e55255c5461fe2d46ec0096f0997068c7579",
      "blockNumber": 121910,
      "transactionIndex": 6,
      "confirmations": null,
      "from": "0x10a3287DC19D160c0EF7dAE4e51670b0394ef951",
      "gasPrice": {
        "_hex": "0xd526bf68f"
      },
      "gasLimit": {
        "_hex": "0x5208"
      },
      "to": "0x32Be343B94f860124dC4fEe278FDCBD38C102D88",
      "value": {
        "_hex": "0xd5ab7405f3327000"
      },
      "nonce": 8,
      "data": "0x",
      "r": "0xcc1574581f1de27d1e1d2b3dcfc0b2c80f4ed5d526163e1c40375c11b066b757",
      "s": "0x355793fc48ec3f0894be851a1138d294b60af5f3aec76819df2386192f5d27cf",
      "v": 27,
      "creates": null,
      "raw": "0xf86c08850d526bf68f8252089432be343b94f860124dc4fee278fdcbd38c102d8888d5ab7405f3327000801ba0cc1574581f1de27d1e1d2b3dcfc0b2c80f4ed5d526163e1c40375c11b066b757a0355793fc48ec3f0894be851a1138d294b60af5f3aec76819df2386192f5d27cf",
      "networkId": 0,
      "chainId": 0
    },
    {
      "hash": "0x076f72b4f1a2ec01f7b604186919b7a0e675338d22380e545725000aed0a0e36",
      "blockHash": "0x5a45d76e156efd657d77213e2ce3e55255c5461fe2d46ec0096f0997068c7579",
      "blockNumber": 121910,
      "transactionIndex": 7,
      "confirmations": null,
      "from": "0x4A29dF8a7967b36664f256F18dAcf2e58E9f1E7E",
      "gasPrice": {
        "_hex": "0xd526bf68f"
      },
      "gasLimit": {
        "_hex": "0x5208"
      },
      "to": "0x32Be343B94f860124dC4fEe278FDCBD38C102D88",
      "value": {
        "_hex": "0x5cfd7d1a01cd00000"
      },
      "nonce": 11,
      "data": "0x",
      "r": "0xd4e7e817a3da0d8bf14bc3fa0a36da80b2c66af843c506f1a96b1cd8b965a89e",
      "s": "0x6b87f80f03e3cbf8b07cd8844501ffdb74b4ecd0bce77b808babfd3207c27144",
      "v": 28,
      "creates": null,
      "raw": "0xf86d0b850d526bf68f8252089432be343b94f860124dc4fee278fdcbd38c102d888905cfd7d1a01cd00000801ca0d4e7e817a3da0d8bf14bc3fa0a36da80b2c66af843c506f1a96b1cd8b965a89ea06b87f80f03e3cbf8b07cd8844501ffdb74b4ecd0bce77b808babfd3207c27144",
      "networkId": 0,
      "chainId": 0
    },
    {
      "hash": "0x7c4774063689b5157b2ac79b6f75eff9808e22be48bf059115697dfba666c6b1",
      "blockHash": "0x5a45d76e156efd657d77213e2ce3e55255c5461fe2d46ec0096f0997068c7579",
      "blockNumber": 121910,
      "transactionIndex": 8,
      "confirmations": null,
      "from": "0xe6F63A7e7F8dc774F8E3504c9b0c5458D7E28ED8",
      "gasPrice": {
        "_hex": "0xd526bf68f"
      },
      "gasLimit": {
        "_hex": "0x5208"
      },
      "to": "0x32Be343B94f860124dC4fEe278FDCBD38C102D88",
      "value": {
        "_hex": "0x4ef159d5ffca4800"
      },
      "nonce": 9,
      "data": "0x",
      "r": "0xacde5da1d2bc3195c487c85b11bbfbd1eaede924f70f1b1618ab3eb6289ad24b",
      "s": "0x6e9ae9d6a1635b9fe5d49e2d942bb43e6e94e5ed62ff927d892a26a8fbe1d9ec",
      "v": 28,
      "creates": null,
      "raw": "0xf86c09850d526bf68f8252089432be343b94f860124dc4fee278fdcbd38c102d88884ef159d5ffca4800801ca0acde5da1d2bc3195c487c85b11bbfbd1eaede924f70f1b1618ab3eb6289ad24ba06e9ae9d6a1635b9fe5d49e2d942bb43e6e94e5ed62ff927d892a26a8fbe1d9ec",
      "networkId": 0,
      "chainId": 0
    },
    {
      "hash": "0x38def73336d8084c4b047cb86deddb5187b008226efad4e56c80859e236e10a8",
      "blockHash": "0x5a45d76e156efd657d77213e2ce3e55255c5461fe2d46ec0096f0997068c7579",
      "blockNumber": 121910,
      "transactionIndex": 9,
      "confirmations": null,
      "from": "0x665646727edaAEbB32B5F1A9b4e4F3BD867AA8fB",
      "gasPrice": {
        "_hex": "0xd526bf68f"
      },
      "gasLimit": {
        "_hex": "0x5208"
      },
      "to": "0x32Be343B94f860124dC4fEe278FDCBD38C102D88",
      "value": {
        "_hex": "0x1cb7ee8aa9ff23000"
      },
      "nonce": 11,
      "data": "0x",
      "r": "0x831db460aee9bd5456cec237648a003eafe78c19fca289272d65e5de89a7e96d",
      "s": "0x1d59725862b17232edd9377c57d0d5beb2a1d9e73724486d8429a3fdd8f50f25",
      "v": 28,
      "creates": null,
      "raw": "0xf86d0b850d526bf68f8252089432be343b94f860124dc4fee278fdcbd38c102d888901cb7ee8aa9ff23000801ca0831db460aee9bd5456cec237648a003eafe78c19fca289272d65e5de89a7e96da01d59725862b17232edd9377c57d0d5beb2a1d9e73724486d8429a3fdd8f50f25",
      "networkId": 0,
      "chainId": 0
    },
    {
      "hash": "0x9c3886dae564ff63187b1685b5a2791e08bae4bb9bc7a491b5ef0b238af6245e",
      "blockHash": "0x5a45d76e156efd657d77213e2ce3e55255c5461fe2d46ec0096f0997068c7579",
      "blockNumber": 121910,
      "transactionIndex": 10,
      "confirmations": null,
      "from": "0x383Ad663AFd1716301FC92d469d9985b97cfBCB0",
      "gasPrice": {
        "_hex": "0xd526bf68f"
      },
      "gasLimit": {
        "_hex": "0x5208"
      },
      "to": "0x32Be343B94f860124dC4fEe278FDCBD38C102D88",
      "value": {
        "_hex": "0xd7130ae7020ae000"
      },
      "nonce": 10,
      "data": "0x",
      "r": "0x2fcf74a487b75bcafcdf6b31b200c31b1da899b87a432bb9f2d64d8342302caf",
      "s": "0x1739a81402078b4a0beb0ca4901f9c587a05b52b5125573caebe83600efc2062",
      "v": 27,
      "creates": null,
      "raw": "0xf86c0a850d526bf68f8252089432be343b94f860124dc4fee278fdcbd38c102d8888d7130ae7020ae000801ba02fcf74a487b75bcafcdf6b31b200c31b1da899b87a432bb9f2d64d8342302cafa01739a81402078b4a0beb0ca4901f9c587a05b52b5125573caebe83600efc2062",
      "networkId": 0,
      "chainId": 0
    },
    {
      "hash": "0x0a2c0cd2e4bba93487968f149d4a5b142f3a0d0ff33093f7ce1761fc8e9279e2",
      "blockHash": "0x5a45d76e156efd657d77213e2ce3e55255c5461fe2d46ec0096f0997068c7579",
      "blockNumber": 121910,
      "transactionIndex": 11,
      "confirmations": null,
      "from": "0x19d1f826fce0c97733e0202eFCCc4A5608e8Eb6d",
      "gasPrice": {
        "_hex": "0xd526bf68f"
      },
      "gasLimit": {
        "_hex": "0x5208"
      },
      "to": "0x32Be343B94f860124dC4fEe278FDCBD38C102D88",
      "value": {
        "_hex": "0xf2c8c5e508696800"
      },
      "nonce": 10,
      "data": "0x",
      "r": "0x60bd857035fd42ea08d0288b72c5b20a2909409a35bc592ccd5914f0ac325ae5",
      "s": "0x63f62d7e75ec527cb67199572bbf9ccdec081e3209e840677f197b0c70411ea5",
      "v": 27,
      "creates": null,
      "raw": "0xf86c0a850d526bf68f8252089432be343b94f860124dc4fee278fdcbd38c102d8888f2c8c5e508696800801ba060bd857035fd42ea08d0288b72c5b20a2909409a35bc592ccd5914f0ac325ae5a063f62d7e75ec527cb67199572bbf9ccdec081e3209e840677f197b0c70411ea5",
      "networkId": 0,
      "chainId": 0
    }
  ]
}