{
  "hash": "0x13e915bf6293cb6ca3780058ed840774f8167cf3724fba92a6d191b954ff1dc0",
  "parentHash": "0x2de4725b825d8e4cea815850daff8614dadd3f6a6d9f1a7d94d5f2a96906c813",
  "number": 79028,
  "timestamp": 1439463363,
  "nonce": "0x5a7cdf64522bf93b",
  "difficulty": 2302024709847,
  "gasLimit": {
    "_hex": "0x2fefd5"
  },
  "gasUsed": {
    "_hex": "0x5208"
  },
  "miner": "0xa50ec0D39fa913E62f1Bae7074E6F36caA71855b",
  "extraData": "0xd783010001844765746887676f312e342e32856c696e7578",
  "transactions": [
    {
      "hash": "0xab1742ff58c7f05336ecc4e070dd40b99a1e09e31591c9da145fd759d3ea05b9",
      "blockHash": "0x13e915bf6293cb6ca3780058ed840774f8167cf3724fba92a6d191b954ff1dc0",
      "blockNumber": 79028,
      "transactionIndex": 0,
      "confirmations": null,
      "from": "0x723E05fF30e4ba7A87b4D7D459eE5B488A9c36d1",
      "gasPrice": {
        "_hex": "0xce9423e3a"
      },
      "gasLimit": {
        "_hex": "0x15f90"
      },
      "to": "0xabceA603089850F8f6bB612A9031554D90A247CF",
      "value": {
        "_hex": "0x4563918244f40000"
      },
      "nonce": 15,
      "data": "0x",
      "r": "0x09dcc4b84a738f7aa177d898cf48a5c2d626ee47e96f71f01706c32a84905f8b",
      "s": "0x39f99bd2d229301b9f68866043c6d99eba150600853f0b8cf6cb036f57f78b27",
      "v": 28,
      "creates": null,
      "raw": "0xf86d0f850ce9423e3a83015f9094abcea603089850f8f6bb612a9031554d90a247cf884563918244f40000801ca009dcc4b84a738f7aa177d898cf48a5c2d626ee47e96f71f01706c32a84905f8ba039f99bd2d229301b9f68866043c6d99eba150600853f0b8cf6cb036f57f78b27",
      "networkId": 0,
      "chainId": 0
    }
  ]
}