{
  "hash": "0xe0f5a0654b4fe1d2b9fe5735a80136913ae2453dac558b25ddeaaa9acac4a8aa",
  "parentHash": "0x37795262d068f3122bcdbdadec7f84e4c67f3b689397e35e73d82b32aa093844",
  "number": 74299,
  "timestamp": 1439383943,
  "nonce": "0x7732ba916d82b8a3",
  "difficulty": 2205371003832,
  "gasLimit": {
    "_hex": "0x2fefd8"
  },
  "gasUsed": {
    "_hex": "0x23e38"
  },
  "miner": "0xbb7B8287f3F0a933474a79eAe42CBCa977791171",
  "extraData": "0x476574682f4c5649562f76312e302e312f6c696e75782f676f312e342e32",
  "transactions": [
    {
      "hash": "0x60b3f3f783b68e26da64319d853fba7d95bb326374ca5592bcfdd3450503f504",
      "blockHash": "0xe0f5a0654b4fe1d2b9fe5735a80136913ae2453dac558b25ddeaaa9acac4a8aa",
      "blockNumber": 74299,
      "transactionIndex": 0,
      "confirmations": null,
      "from": "0xe6A7a1d47ff21B6321162AEA7C6CB457D5476Bca",
      "gasPrice": {
        "_hex": "0xd3ee0f149"
      },
      "gasLimit": {
        "_hex": "0x55f0"
      },
      "to": "0x796C24bD0325fc7d33BE618526173a8f4D5083Ce",
      "value": {
        "_hex": "0x77c3526445eb3cf0"
      },
      "nonce": 989,
      "data": "0x",
      "r": "0x189c9e3230d5ab48c180d374f3019df14eff34550ee8286b845c08f69eb7cc75",
      "s": "0x119732d2d5cc0b774d1ce88a779aaba86ed6bfcca0560898b91828a3db94a2da",
      "v": 27,
      "creates": null,
      "raw": "0xf86e8203dd850d3ee0f1498255f094796c24bd0325fc7d33be618526173a8f4d5083ce8877c3526445eb3cf0801ba0189c9e3230d5ab48c180d374f3019df14eff34550ee8286b845c08f69eb7cc75a0119732d2d5cc0b774d1ce88a779aaba86ed6bfcca0560898b91828a3db94a2da",
      "networkId": 0,
      "chainId": 0
    },
    {
      "hash": "0xde441bccb05f5781c1c5de9f7e1893f2bca4fbe3f116e917e9cabb89d5c9e624",
      "blockHash": "0xe0f5a0654b4fe1d2b9fe5735a80136913ae2453dac558b25ddeaaa9acac4a8aa",
      "blockNumber": 74299,
      "transactionIndex": 1,
      "confirmations": null,
      "from": "0xe6A7a1d47ff21B6321162AEA7C6CB457D5476Bca",
      "gasPrice": {
        "_hex": "0xd3ee0f149"
      },
      "gasLimit": {
        "_hex": "0x55f0"
      },
      "to": "0xAdCa16b4654a92cb67666C0cF61976cEEE81cEEB",
      "value": {
        "_hex": "0x881050fab8899440"
      },
      "nonce": 990,
      "data": "0x",
      "r": "0x526e5b109e7a2d759869db91032930ffa16628e2df2a7afa99c7b81b67a1d377",
      "s": "0x3f6b993a6d45a40e0c2c591367ead0ec9ea6c00ad8c3dd8793b97b4c47dc1e17",
      "v": 27,
      "creates": null,
      "raw": "0xf86e8203de850d3ee0f1498255f094adca16b4654a92cb67666c0cf61976ceee81ceeb88881050fab8899440801ba0526e5b109e7a2d759869db91032930ffa16628e2df2a7afa99c7b81b67a1d377a03f6b993a6d45a40e0c2c591367ead0ec9ea6c00ad8c3dd8793b97b4c47dc1e17",
      "networkId": 0,
      "chainId": 0
    },
    {
      "hash": "0x45a27fb7b96b69242496521edefabfa8528d7583c3dd21e45a96124ca567122d",
      "blockHash": "0xe0f5a0654b4fe1d2b9fe5735a80136913ae2453dac558b25ddeaaa9acac4a8aa",
      "blockNumber": 74299,
      "transactionIndex": 2,
      "confirmations": null,
      "from": "0xe6A7a1d47ff21B6321162AEA7C6CB457D5476Bca",
      "gasPrice": {
        "_hex": "0xd3ee0f149"
      },
      "gasLimit": {
        "_hex": "0x55f0"
      },
      "to": "0xbc681E36E2BC0d9Cb397811ce7a5821da2D66059",
      "value": {
        "_hex": "0xb4b0db985bc3e260"
      },
      "nonce": 991,
      "data": "0x",
      "r": "0x8d8690ce8d01b39f51cba0b898063aceeb112e7588a00cecb9ff2b72632198b6",
      "s": "0x2003f1aea17145cd4867a9be87491b88a068e4a01ce8f53d322fa4e8087d9d7e",
      "v": 28,
      "creates": null,
      "raw": "0xf86e8203df850d3ee0f1498255f094bc681e36e2bc0d9cb397811ce7a5821da2d6605988b4b0db985bc3e260801ca08d8690ce8d01b39f51cba0b898063aceeb112e7588a00cecb9ff2b72632198b6a02003f1aea17145cd4867a9be87491b88a068e4a01ce8f53d322fa4e8087d9d7e",
      "networkId": 0,
      "chainId": 0
    },
    {
      "hash": "0xc4306e123c2c61c97bd5dfb9a00c33fc6d38ebcd30604049c33fb8debc87efa9",
      "blockHash": "0xe0f5a0654b4fe1d2b9fe5735a80136913ae2453dac558b25ddeaaa9acac4a8aa",
      "blockNumber": 74299,
      "transactionIndex": 3,
      "confirmations": null,
      "from": "0xe6A7a1d47ff21B6321162AEA7C6CB457D5476Bca",
      "gasPrice": {
        "_hex": "0xd3ee0f149"
      },
      "gasLimit": {
        "_hex": "0x55f0"
      },
      "to": "0xC8E61bFB4846B622B084B98Bc586388aFCb70d5F",
      "value": {
        "_hex": "0x12faf297c6c62ef20"
      },
      "nonce": 992,
      "data": "0x",
      "r": "0x11dfffbccc6156fee6c6184a713a22bd9042f41fa82bf2c343c7881e21febe18",
      "s": "0x4a26b93d3873b1fa0f5a3ae873bfda1da060450fcd1581c91eb31d9f0e9913bd",
      "v": 28,
      "creates": null,
      "raw": "0xf86f8203e0850d3ee0f1498255f094c8e61bfb4846b622b084b98bc586388afcb70d5f89012faf297c6c62ef20801ca011dfffbccc6156fee6c6184a713a22bd9042f41fa82bf2c343c7881e21febe18a04a26b93d3873b1fa0f5a3ae873bfda1da060450fcd1581c91eb31d9f0e9913bd",
      "networkId": 0,
      "chainId": 0
    },
    {
      "hash": "0xc50f6c59d819bfe3ec4e9651c01c3d96013da01ece2588495c0ee0015088c996",
      "blockHash": "0xe0f5a0654b4fe1d2b9fe5735a80136913ae2453dac558b25ddeaaa9acac4a8aa",
      "blockNumber": 74299,
      "transactionIndex": 4,
      "confirmations": null,
      "from": "0xe6A7a1d47ff21B6321162AEA7C6CB457D5476Bca",
      "gasPrice": {
        "_hex": "0xd3ee0f149"
      },
      "gasLimit": {
        "_hex": "0x55f0"
      },
      "to": "0xD924AAC0bCB65C13bE4044f6BeA8aAe34D7a7126",
      "value": {
        "_hex": "0x14124c4f0d9d04fd0"
      },
      "nonce": 993,
      "data": "0x",
      "r": "0x785679f0762a1b54015c3bf28d3b8b7a8518d211bca17d353bdbe76b4f1350cd",
      "s": "0x26d4c754024a8d6b01dd1f8a358172de31282bde0aaa30ce60d619e03dac62b8",
      "v": 28,
      "creates": null,
      "raw": "0xf86f8203e1850d3ee0f1498255f094d924aac0bcb65c13be4044f6bea8aae34d7a712689014124c4f0d9d04fd0801ca0785679f0762a1b54015c3bf28d3b8b7a8518d211bca17d353bdbe76b4f1350cda026d4c754024a8d6b01dd1f8a358172de31282bde0aaa30ce60d619e03dac62b8",
      "networkId": 0,
      "chainId": 0
    },
    {
      "hash": "0x5738ccef2ca15a8e229260faf12360a97c38d1781c1dec0b922d1dd38504b43b",
      "blockHash": "0xe0f5a0654b4fe1d2b9fe5735a80136913ae2453dac558b25ddeaaa9acac4a8aa",
      "blockNumber": 74299,
      "transactionIndex": 5,
      "confirmations": null,
      "from": "0xe6A7a1d47ff21B6321162AEA7C6CB457D5476Bca",
      "gasPrice": {
        "_hex": "0xd3ee0f149"
      },
      "gasLimit": {
        "_hex": "0x55f0"
      },
      "to": "0x3A652ae439FFB94328afa58E11F544aFB5B85f7A",
      "value": {
        "_hex": "0x1afc503e33c9d4920"
      },
      "nonce": 994,
      "data": "0x",
      "r": "0x0ce539c95a82581f863f2fb466cf0701e9722befe610da3b14c77a9538ceba88",
      "s": "0x5def830bb18e87f75bc7bec4bfac8dc3502c42a7f42bc663cb282fb0f3d5f30c",
      "v": 28,
      "creates": null,
      "raw": "0xf86f8203e2850d3ee0f1498255f0943a652ae439ffb94328afa58e11f544afb5b85f7a8901afc503e33c9d4920801ca00ce539c95a82581f863f2fb466cf0701e9722befe610da3b14c77a9538ceba88a05def830bb18e87f75bc7bec4bfac8dc3502c42a7f42bc663cb282fb0f3d5f30c",
      "networkId": 0,
      "chainId": 0
    },
    {
      "hash": "0xad24785992710e63f27c19d69d8313f981f1070a5c33bec1bb5006943611dff2",
      "blockHash": "0xe0f5a0654b4fe1d2b9fe5735a80136913ae2453dac558b25ddeaaa9acac4a8aa",
      "blockNumber": 74299,
      "transactionIndex": 6,
      "confirmations": null,
      "from": "0xe6A7a1d47ff21B6321162AEA7C6CB457D5476Bca",
      "gasPrice": {
        "_hex": "0xd3ee0f149"
      },
      "gasLimit": {
        "_hex": "0x55f0"
      },
      "to": "0x25A0be9f6fCbDE4F61024B86a33dd80F7cbB3cEc",
      "value": {
        "_hex": "0x1cc0bcd0f3097a1b8"
      },
      "nonce": 995,
      "data": "0x",
      "r": "0x8f4332e0dc86abe25f72c665d33f0875cfac5ea6cba6f6b8b98f554a2a0b440b",
      "s": "0x0c23d5989eed7670715be804213d0b29da6f86a483c2d15c50e3a9872b1ca7b3",
      "v": 28,
      "creates": null,
      "raw": "0xf86f8203e3850d3ee0f1498255f09425a0be9f6fcbde4f61024b86a33dd80f7cbb3cec8901cc0bcd0f3097a1b8801ca08f4332e0dc86abe25f72c665d33f0875cfac5ea6cba6f6b8b98f554a2a0b440ba00c23d5989eed7670715be804213d0b29da6f86a483c2d15c50e3a9872b1ca7b3",
      "networkId": 0,
      "chainId": 0
    }
  ]
}