{
  "hash": "0xae7ee8e0b9978159f67649baf46b1096ad4f26b04904b73e92af9cab8b3a7fd8",
  "parentHash": "0xf56b4e62d5b26cdf5df7e602f23bf9e591ef7cf42a596023ad6b2c6cf3b67a2b",
  "number": 72236,
  "timestamp": 1439349534,
  "nonce": "0xe629e9794b3b3b98",
  "difficulty": 2177022428007,
  "gasLimit": {
    "_hex": "0x2fefd8"
  },
  "gasUsed": {
    "_hex": "0x93b2"
  },
  "miner": "0x01d9DA08cc6Fb97c0DE1B6F4C28910A0859Ed1A1",
  "extraData": "0x476574682f76312e302e312f6c696e75782f676f312e342e32",
  "transactions": [
    {
      "hash": "0xd3a32d0db23e52d7eb9ae6fa3cac89b6811a1dc3ac3a2ec7e66b68f024c73e72",
      "blockHash": "0xae7ee8e0b9978159f67649baf46b1096ad4f26b04904b73e92af9cab8b3a7fd8",
      "blockNumber": 72236,
      "transactionIndex": 0,
      "confirmations": null,
      "from": "0x17580B766f7453525ca4C6A88b01b50570EA088C",
      "gasPrice": {
        "_hex": "0xd10febf76"
      },
      "gasLimit": {
        "_hex": "0x61a80"
      },
      "to": "0x5Fe5B7546D1628f7348B023A0393de1FC825A4fD",
      "value": {
        "_hex": "0x8ac7230489e80000"
      },
      "nonce": 404,
      "data": "0xb595b8b50000000000000000000000000000000000000000000000000000000000000000",
      "r": "0x4360e42fc45ac4e63c54deee2ece5539ff8949cbc57b880e085d9f9ce5f89465",
      "s": "0x0e7ccdd07d783b52ea31eed5d80e7efe458df28ead8a0d21a53a01ae8322b7ee",
      "v": 28,
      "creates": null,
      "raw": "0xf893820194850d10febf7683061a80945fe5b7546d1628f7348b023a0393de1fc825a4fd888ac7230489e80000a4b595b8b500000000000000000000000000000000000000000000000000000000000000001ca04360e42fc45ac4e63c54deee2ece5539ff8949cbc57b880e085d9f9ce5f89465a00e7ccdd07d783b52ea31eed5d80e7efe458df28ead8a0d21a53a01ae8322b7ee",
      "networkId": 0,
      "chainId": 0
    }
  ]
}