{
  "hash": "0xa037bdc3f9a768800b21743ad1af89a7ac468fe4390cdc0365fb455f6a6e94c3",
  "parentHash": "0x5f5b20c558b9df1b9d406c33c15452502bc3d03f4f833394423fcaa36e1173a3",
  "number": 75478,
  "timestamp": 1439404039,
  "nonce": "0xd39c9d3d2ae00379",
  "difficulty": 2210451092872,
  "gasLimit": {
    "_hex": "0x2fefd8"
  },
  "gasUsed": {
    "_hex": "0x5208"
  },
  "miner": "0xFf9a46E0358502f3Ae5D7faBF50E71A067259A9A",
  "extraData": "0x476574682f76312e302e312f77696e646f77732f676f312e342e32",
  "transactions": [
    {
      "hash": "0x39afc23851a8281603779590726416ac8054b636810804e27084381ae9d65e7a",
      "blockHash": "0xa037bdc3f9a768800b21743ad1af89a7ac468fe4390cdc0365fb455f6a6e94c3",
      "blockNumber": 75478,
      "transactionIndex": 0,
      "confirmations": null,
      "from": "0x26163E84886A136fC8034eB4e9F1cc00b1D345f1",
      "gasPrice": {
        "_hex": "0xd86e9483d"
      },
      "gasLimit": {
        "_hex": "0x15f90"
      },
      "to": "0x6d921977dEFE5f4e0682CA512De1D07b1f4802E1",
      "value": {
        "_hex": "0x29a2241af62c00000"
      },
      "nonce": 3,
      "data": "0x",
      "r": "0xeec8b5059075127010a580f2160a2384b4e00190cd891c1431e443381633d092",
      "s": "0x24b48ed2390f509588f045254b99bd417d64febebe8d002429a62b3fc2ffc58e",
      "v": 27,
      "creates": null,
      "raw": "0xf86e03850d86e9483d83015f90946d921977defe5f4e0682ca512de1d07b1f4802e189029a2241af62c00000801ba0eec8b5059075127010a580f2160a2384b4e00190cd891c1431e443381633d092a024b48ed2390f509588f045254b99bd417d64febebe8d002429a62b3fc2ffc58e",
      "networkId": 0,
      "chainId": 0
    }
  ]
}