{
  "hash": "0x3344f7489cda633915d559720ee1318a3072c552ae7e10892edd3687ec91e3f4",
  "parentHash": "0x0a876b2d5c2713b9abfa910a7930be921ba31ed2d21261a64f1fc3edd4c65df3",
  "number": 64769,
  "timestamp": 1439225950,
  "nonce": "0x46fdf5740f8e3954",
  "difficulty": 1894038819306,
  "gasLimit": {
    "_hex": "0x2fefd8"
  },
  "gasUsed": {
    "_hex": "0x5208"
  },
  "miner": "0x785ffdDd5cE55c6DF963f345e68d3F2024E5Acb1",
  "extraData": "0x457468657265756d20474f212121212121",
  "transactions": [
    {
      "hash": "0xdd1e07a31c774bb77a0265b7fc76335f625dd5db5e89ae4d4200fa3d78919bfa",
      "blockHash": "0x3344f7489cda633915d559720ee1318a3072c552ae7e10892edd3687ec91e3f4",
      "blockNumber": 64769,
      "transactionIndex": 0,
      "confirmations": null,
      "from": "0xD96719eF8eFF64F6e84Fd03120014834F4E76c40",
      "gasPrice": {
        "_hex": "0xccb0d699e"
      },
      "gasLimit": {
        "_hex": "0x5208"
      },
      "to": "0x32Be343B94f860124dC4fEe278FDCBD38C102D88",
      "value": {
        "_hex": "0xa2a1239a92ad300000"
      },
      "nonce": 1,
      "data": "0x",
      "r": "0x0883672898cad0d3bb2f2b194532c13dee4880f321e53c1506ae843890b3451e",
      "s": "0x701b7dc27e1e159401c3b18d49649aa45f3596073f9f8597aa2f8038eb15d176",
      "v": 28,
      "creates": null,
      "raw": "0xf86d01850ccb0d699e8252089432be343b94f860124dc4fee278fdcbd38c102d8889a2a1239a92ad300000801ca00883672898cad0d3bb2f2b194532c13dee4880f321e53c1506ae843890b3451ea0701b7dc27e1e159401c3b18d49649aa45f3596073f9f8597aa2f8038eb15d176",
      "networkId": 0,
      "chainId": 0
    }
  ]
}