{
  "hash": "0xe81984d115ffeffcb4c3ff097caebbc0e1b53cf204307c7533ab10f76b6a1cb7",
  "parentHash": "0x1607fe31348c004f7ecb4c28cb6c8f47f74e68fb967f062cebdd535e46472ce3",
  "number": 52592,
  "timestamp": 1439024040,
  "nonce": "0xb11118538e9458ba",
  "difficulty": 1567128742148,
  "gasLimit": {
    "_hex": "0x15f6ff"
  },
  "gasUsed": {
    "_hex": "0xf4240"
  },
  "miner": "0xF2d2AfF1320476cb8C6b607199D23175cc595693",
  "extraData": "0x476574682f76312e302e312f77696e646f77732f676f312e342e32",
  "transactions": [
    {
      "hash": "0x300e5d60f0c41ae128b8992caa47a640334739d6a5fb84ad0254b4ce6f3a7439",
      "blockHash": "0xe81984d115ffeffcb4c3ff097caebbc0e1b53cf204307c7533ab10f76b6a1cb7",
      "blockNumber": 52592,
      "transactionIndex": 0,
      "confirmations": null,
      "from": "0x54dAeb3E8a6BBC797E4aD2b0339f134b186e4637",
      "gasPrice": {
        "_hex": "0xe1780dfbb"
      },
      "gasLimit": {
        "_hex": "0x7a120"
      },
      "to": "0xBAA54d6E90c3F4d7Ebec11bD180134C7eD8eBb52",
      "value": {
        "_hex": "0x16345785d8a0000"
      },
      "nonce": 771,
      "data": "0x",
      "r": "0x878e36183cdf849d1b5445bc0774396d6255222aa6179504ddf48f200a8fda94",
      "s": "0x56220e828d590c5e3d08259fd2cfa9e306656b1b2033751c0f88747917d90fca",
      "v": 28,
      "creates": null,
      "raw": "0xf86f820303850e1780dfbb8307a12094baa54d6e90c3f4d7ebec11bd180134c7ed8ebb5288016345785d8a0000801ca0878e36183cdf849d1b5445bc0774396d6255222aa6179504ddf48f200a8fda94a056220e828d590c5e3d08259fd2cfa9e306656b1b2033751c0f88747917d90fca",
      "networkId": 0,
      "chainId": 0
    },
    {
      "hash": "0x1c8655f3ebe6bf2e5a1f99e18c2cc82abd9627cc48b5c0c9efe22178b7828122",
      "blockHash": "0xe81984d115ffeffcb4c3ff097caebbc0e1b53cf204307c7533ab10f76b6a1cb7",
      "blockNumber": 52592,
      "transactionIndex": 1,
      "confirmations": null,
      "from": "0x54dAeb3E8a6BBC797E4aD2b0339f134b186e4637",
      "gasPrice": {
        "_hex": "0xdce5b224a"
      },
      "gasLimit": {
        "_hex": "0x7a120"
      },
      "to": "0xBAA54d6E90c3F4d7Ebec11bD180134C7eD8eBb52",
      "value": {
        "_hex": "0x16345785d8a0000"
      },
      "nonce": 772,
      "data": "0x",
      "r": "0xe9a4fff2b384a4ba0e633bec04346cd6a87370754d015717ef3a06a6c036304d",
      "s": "0x52e932eb302c235ab8c8b5be18758f41296860a0de3ababeaf1624299099d32f",
      "v": 27,
      "creates": null,
      "raw": "0xf86f820304850dce5b224a8307a12094baa54d6e90c3f4d7ebec11bd180134c7ed8ebb5288016345785d8a0000801ba0e9a4fff2b384a4ba0e633bec04346cd6a87370754d015717ef3a06a6c036304da052e932eb302c235ab8c8b5be18758f41296860a0de3ababeaf1624299099d32f",
      "networkId": 0,
      "chainId": 0
    }
  ]
}