{
  "hash": "0xbce1e215b2fc565c21d1389a1422ab920165c33fc14a331ad000573b6dabc3b6",
  "parentHash": "0x446991abc3b710b4109d8f251e8e76d4d4c1c8b3765a193bfa55655ed291a691",
  "number": 122154,
  "timestamp": 1440189164,
  "nonce": "0x886ed335fff636d6",
  "difficulty": 4470916357683,
  "gasLimit": {
    "_hex": "0x2fefd8"
  },
  "gasUsed": {
    "_hex": "0x5208"
  },
  "miner": "0x17B719A685fC6C0002798e7f8151D0E2E83B7497",
  "extraData": "0x",
  "transactions": [
    {
      "hash": "0xbaa9ac38b5ef6ad995aef119ecc7eae93e5a9b3d7e0924f31ba9a2c8e017223b",
      "blockHash": "0xbce1e215b2fc565c21d1389a1422ab920165c33fc14a331ad000573b6dabc3b6",
      "blockNumber": 122154,
      "transactionIndex": 0,
      "confirmations": null,
      "from": "0x0c6845bf41D5ee273c3Ee6b5b0D69F6fD5EabBF7",
      "gasPrice": {
        "_hex": "0xd5469e5ae"
      },
      "gasLimit": {
        "_hex": "0x15f90"
      },
      "to": "0x21a26E492A25feE7465cdcbF808d1518993cba3C",
      "value": {
        "_hex": "0xb1a2bc2ec50000"
      },
      "nonce": 1,
      "data": "0x",
      "r": "0xac7f12927037931115af1f0f424e900c9d73ef49008531942c942a729f9bc9fb",
      "s": "0x2d51562c25450fb08f7a5cdf20613361731321be4a4b8955531723ad48408938",
      "v": 27,
      "creates": null,
      "raw": "0xf86c01850d5469e5ae83015f909421a26e492a25fee7465cdcbf808d1518993cba3c87b1a2bc2ec50000801ba0ac7f12927037931115af1f0f424e900c9d73ef49008531942c942a729f9bc9fba02d51562c25450fb08f7a5cdf20613361731321be4a4b8955531723ad48408938",
      "networkId": 0,
      "chainId": 0
    }
  ]
}