{
  "hash": "0xa78de2e013c80347c0a1f857fd77a959ba193f1be0e2003c1c2daaf976640d9f",
  "parentHash": "0x97cc58908e9fbafe4b4864ade9596be12d3d14db73cc9e604d4069575766ad28",
  "number": 52134,
  "timestamp": 1439016694,
  "nonce": "0x5fca7a09e72808af",
  "difficulty": 1556537461168,
  "gasLimit": {
    "_hex": "0x107ceb"
  },
  "gasUsed": {
    "_hex": "0x5208"
  },
  "miner": "0x47ff6576639c2e94762eA5443978D7681C0E78DC",
  "extraData": "0x476574682f76312e302e312f6c696e75782f676f312e342e32",
  "transactions": [
    {
      "hash": "0x98f73be4ba13302ba00cb8809e82766213e7dba8e3cd1c35756ca2aceeced822",
      "blockHash": "0xa78de2e013c80347c0a1f857fd77a959ba193f1be0e2003c1c2daaf976640d9f",
      "blockNumber": 52134,
      "transactionIndex": 0,
      "confirmations": null,
      "from": "0xa0A0e65204541Fca9b2fB282cd95138FAE16f809",
      "gasPrice": {
        "_hex": "0xd8eb0726f"
      },
      "gasLimit": {
        "_hex": "0x5208"
      },
      "to": "0x3B4AF94C39e87281410A3B5Cf880b4a647459363",
      "value": {
        "_hex": "0xde0b6b3a7640000"
      },
      "nonce": 4,
      "data": "0x",
      "r": "0x075adcdf224563541049b38baec99277ec3037ff7106555864ea80512aed564f",
      "s": "0x39ad85aef5464fe44e0e254cbcecc5b1d533e778adc982f440bd130ee2d81939",
      "v": 28,
      "creates": null,
      "raw": "0xf86c04850d8eb0726f825208943b4af94c39e87281410a3b5cf880b4a647459363880de0b6b3a7640000801ca0075adcdf224563541049b38baec99277ec3037ff7106555864ea80512aed564fa039ad85aef5464fe44e0e254cbcecc5b1d533e778adc982f440bd130ee2d81939",
      "networkId": 0,
      "chainId": 0
    }
  ]
}