{
  "hash": "0xc1443542d3241e3765ee47cf1d5c975afa215b06bcd2b21e4b8aa50837a92566",
  "parentHash": "0xf1f392fd197a149afe9f8843d7ba759d1a9f79d1ef620563957b486662af27fa",
  "number": 49939,
  "timestamp": 1438981590,
  "nonce": "0xc6e7463d15b934a1",
  "difficulty": 1498030463206,
  "gasLimit": {
    "_hex": "0x46f1f"
  },
  "gasUsed": {
    "_hex": "0x5208"
  },
  "miner": "0xbb7B8287f3F0a933474a79eAe42CBCa977791171",
  "extraData": "0x476574682f4c5649562f76312e302e312f6c696e75782f676f312e342e32",
  "transactions": [
    {
      "hash": "0xd25081df1e15eded98c5b6bd14ef1b0b764992b31b0884057f865aba2ca46af0",
      "blockHash": "0xc1443542d3241e3765ee47cf1d5c975afa215b06bcd2b21e4b8aa50837a92566",
      "blockNumber": 49939,
      "transactionIndex": 0,
      "confirmations": null,
      "from": "0xFC700aC19c00bcBE58f37458e6e738de57FDaa34",
      "gasPrice": {
        "_hex": "0x102e9df0b4"
      },
      "gasLimit": {
        "_hex": "0x15f90"
      },
      "to": "0x3175a28CF6105466923f11bFFabD279F162aa2f8",
      "value": {
        "_hex": "0x1dec89f360efa0000"
      },
      "nonce": 0,
      "data": "0x",
      "r": "0x2e5e9c0df24803b6f0a624b6802cd5583908125634c8e06ca235cee950922169",
      "s": "0x29c4b6e526a85afb817188fd4108d8ffa91ef35504b7b4d4b85f9ebd5f969bea",
      "v": 27,
      "creates": null,
      "raw": "0xf86e8085102e9df0b483015f90943175a28cf6105466923f11bffabd279f162aa2f88901dec89f360efa0000801ba02e5e9c0df24803b6f0a624b6802cd5583908125634c8e06ca235cee950922169a029c4b6e526a85afb817188fd4108d8ffa91ef35504b7b4d4b85f9ebd5f969bea",
      "networkId": 0,
      "chainId": 0
    }
  ]
}