{
  "hash": "0x519cc634d5faa321ed4bc2455956e4f476868ae9cb797d4e1936cb623a99a70c",
  "parentHash": "0xa496a364df8eea163c88318c61683e3d66ddab7ac3954dbbe2abb187aaebaecd",
  "number": 70493,
  "timestamp": 1439320531,
  "nonce": "0x80920d1910749726",
  "difficulty": 2151055891823,
  "gasLimit": {
    "_hex": "0x2fefd8"
  },
  "gasUsed": {
    "_hex": "0x546c"
  },
  "miner": "0xeB1325C8D9d3ea8D74aC11F4B00F1B2367686319",
  "extraData": "0x476574682f76312e302e312f77696e646f77732f676f312e342e32",
  "transactions": [
    {
      "hash": "0xcbfd8cf85253921ae3dcd2d14e8496a6b4f9ccb821359d4c5a79b511ea402f2d",
      "blockHash": "0x519cc634d5faa321ed4bc2455956e4f476868ae9cb797d4e1936cb623a99a70c",
      "blockNumber": 70493,
      "transactionIndex": 0,
      "confirmations": null,
      "from": "0xe6282e5294D064DD01851808dE43b9be32066E72",
      "gasPrice": {
        "_hex": "0x10d3d6cb25c"
      },
      "gasLimit": {
        "_hex": "0x15f90"
      },
      "to": "0x2910543Af39abA0Cd09dBb2D50200b3E800A63D2",
      "value": {
        "_hex": "0x2920096a21eab680000"
      },
      "nonce": 8,
      "data": "0x454e39595456545230",
      "r": "0x886f484a0e9000522382b026b267f1b0ed007fee2a075ca5e3be3bc1db32f91b",
      "s": "0x5e8de1394410637bd051a851f531a59e299f102e8a636a3831f91b26917cecfb",
      "v": 28,
      "creates": null,
      "raw": "0xf8790886010d3d6cb25c83015f90942910543af39aba0cd09dbb2d50200b3e800a63d28a02920096a21eab68000089454e395954565452301ca0886f484a0e9000522382b026b267f1b0ed007fee2a075ca5e3be3bc1db32f91ba05e8de1394410637bd051a851f531a59e299f102e8a636a3831f91b26917cecfb",
      "networkId": 0,
      "chainId": 0
    }
  ]
}