{
  "hash": "0x861dda916dbb8b5f55627a3b9a65e66e1fe9409f0f5e11a3c4ed07fd1d2a7b89",
  "parentHash": "0xe40e5530880aa27bb8dbf1c24d11a05ce5a090367a09347df8cd6b0b65fd07b5",
  "number": 68769,
  "timestamp": 1439293470,
  "nonce": "0x262946fcfe83e022",
  "difficulty": 2017201633087,
  "gasLimit": {
    "_hex": "0x2fefd8"
  },
  "gasUsed": {
    "_hex": "0xaec1"
  },
  "miner": "0x88D74a59454F6cF3B51ef6b9136AFb6b9D405A88",
  "extraData": "0x476574682f76312e302e312d37666266393930632f6c696e75782f676f312e34",
  "transactions": [
    {
      "hash": "0x82bca3202ac561b587ec43ad73937e433dba5f9d05b04a1e78dbf392d529ba9d",
      "blockHash": "0x861dda916dbb8b5f55627a3b9a65e66e1fe9409f0f5e11a3c4ed07fd1d2a7b89",
      "blockNumber": 68769,
      "transactionIndex": 0,
      "confirmations": null,
      "from": "0xc8ebccC5F5689Fa8659d83713341e5aD19349448",
      "gasPrice": {
        "_hex": "0xd3a2135de"
      },
      "gasLimit": {
        "_hex": "0x61a80"
      },
      "to": "0x5Fe5B7546D1628f7348B023A0393de1FC825A4fD",
      "value": {
        "_hex": "0x6f05b59d3b200000"
      },
      "nonce": 47,
      "data": "0xb595b8b50000000000000000000000000000000000000000000000000000000000000001",
      "r": "0x6d7131269041e1caae6d538cf2e79fe572ae6088ad22ac49931b89512d11481c",
      "s": "0x5bb36f8c1a87c16afdfce41b9e113d05cad07069f145cbe209f0084043a67340",
      "v": 27,
      "creates": null,
      "raw": "0xf8912f850d3a2135de83061a80945fe5b7546d1628f7348b023a0393de1fc825a4fd886f05b59d3b200000a4b595b8b500000000000000000000000000000000000000000000000000000000000000011ba06d7131269041e1caae6d538cf2e79fe572ae6088ad22ac49931b89512d11481ca05bb36f8c1a87c16afdfce41b9e113d05cad07069f145cbe209f0084043a67340",
      "networkId": 0,
      "chainId": 0
    }
  ]
}