{
  "hash": "0x7a7c9b93559b9ad5e789e7bb0a5864a2410ca60d6c5184cf5087cb4d067333d3",
  "parentHash": "0x531835611daf458d7d16f5e0f82d13a70efac9228d2599aabf95f0a91ef2ee19",
  "number": 119332,
  "timestamp": 1440140968,
  "nonce": "0xdbc7fba35c971250",
  "difficulty": 4411690378969,
  "gasLimit": {
    "_hex": "0x2fefd8"
  },
  "gasUsed": {
    "_hex": "0xa410"
  },
  "miner": "0x580992B51e3925e23280EfB93d3047C82f17E038",
  "extraData": "0x",
  "transactions": [
    {
      "hash": "0x0a977ee491e2ff06a4fdc7ce35c516548076c5fb2b409b547701ba1cd3940d0c",
      "blockHash": "0x7a7c9b93559b9ad5e789e7bb0a5864a2410ca60d6c5184cf5087cb4d067333d3",
      "blockNumber": 119332,
      "transactionIndex": 0,
      "confirmations": null,
      "from": "0xe6A7a1d47ff21B6321162AEA7C6CB457D5476Bca",
      "gasPrice": {
        "_hex": "0xba43b7400"
      },
      "gasLimit": {
        "_hex": "0x55f0"
      },
      "to": "0x3fc4eAB8A8df5a124043b29146709935c65F1f7d",
      "value": {
        "_hex": "0x1de31d04d4ad9d2c"
      },
      "nonce": 6032,
      "data": "0x",
      "r": "0x54f80a3119c5e8e4b0b1be198cc601c3bd869de7062abc49d59e494d1ca84d93",
      "s": "0x4623a85ea615f8899a2e0e4d8a9139c04d3d4e82be00d7086572b91e857cc108",
      "v": 28,
      "creates": null,
      "raw": "0xf86e821790850ba43b74008255f0943fc4eab8a8df5a124043b29146709935c65f1f7d881de31d04d4ad9d2c801ca054f80a3119c5e8e4b0b1be198cc601c3bd869de7062abc49d59e494d1ca84d93a04623a85ea615f8899a2e0e4d8a9139c04d3d4e82be00d7086572b91e857cc108",
      "networkId": 0,
      "chainId": 0
    },
    {
      "hash": "0x4ddb397cd15c22e8d2b54ac3ebfe3230abeadcf83c856c10831e872f54106612",
      "blockHash": "0x7a7c9b93559b9ad5e789e7bb0a5864a2410ca60d6c5184cf5087cb4d067333d3",
      "blockNumber": 119332,
      "transactionIndex": 1,
      "confirmations": null,
      "from": "0xe6A7a1d47ff21B6321162AEA7C6CB457D5476Bca",
      "gasPrice": {
        "_hex": "0xba43b7400"
      },
      "gasLimit": {
        "_hex": "0x55f0"
      },
      "to": "0x58A17909eDC491750161050e0F3E4f0eE68Fe669",
      "value": {
        "_hex": "0x1dec7dfe80fd33f4"
      },
      "nonce": 6033,
      "data": "0x",
      "r": "0x2e9663e74741f6a1edfbaf8d2dbf0cd6b43270a3ab14ac2c46913782267efbae",
      "s": "0x6e32a279893214c05408865d15f230a8b2d38bb85f84016730215f5aefba4d82",
      "v": 28,
      "creates": null,
      "raw": "0xf86e821791850ba43b74008255f09458a17909edc491750161050e0f3e4f0ee68fe669881dec7dfe80fd33f4801ca02e9663e74741f6a1edfbaf8d2dbf0cd6b43270a3ab14ac2c46913782267efbaea06e32a279893214c05408865d15f230a8b2d38bb85f84016730215f5aefba4d82",
      "networkId": 0,
      "chainId": 0
    }
  ]
}