{
  "hash": "0x11613c7bb9d35f521ae748a1e71a56cb0a9a488de192dbdbfd137450aba9d411",
  "parentHash": "0x0f8592a1f2391ff7e29a6a60def9e375befc2d278416bfe7b4172010ee6ab3c4",
  "number": 86313,
  "timestamp": 1439576603,
  "nonce": "0x4be008b980ceb3ba",
  "difficulty": 2849877726105,
  "gasLimit": {
    "_hex": "0x2fefd8"
  },
  "gasUsed": {
    "_hex": "0xfb82"
  },
  "miner": "0xe6A7a1d47ff21B6321162AEA7C6CB457D5476Bca",
  "extraData": "0x476574682f76312e302e312d38326566323666362f6c696e75782f676f312e34",
  "transactions": [
    {
      "hash": "0x28f9384471eef6208032f390c323e58c32589e133c0b0b732f8ced3a51c784e3",
      "blockHash": "0x11613c7bb9d35f521ae748a1e71a56cb0a9a488de192dbdbfd137450aba9d411",
      "blockNumber": 86313,
      "transactionIndex": 0,
      "confirmations": null,
      "from": "0x48a33958A96276E41c11e1359a9989BbaDfDb74A",
      "gasPrice": {
        "_hex": "0xd49ff60b1"
      },
      "gasLimit": {
        "_hex": "0x15f90"
      },
      "to": "0xa1A111bc074c9cfa781F0C38e63bD51c91b8af00",
      "value": {
        "_hex": "0x3bd913e6c1df40000"
      },
      "nonce": 0,
      "data": "0x432ced045445535400000000000000000000000000000000000000000000000000000000",
      "r": "0xc73c439a39ab162d006b257ffaf0eb460b51b89f06dc93b28c59f7e14af1b9d5",
      "s": "0x3f05b14d3cb492b51d39b69c7c4379c0ca1e8cf275a6c0771f269f96e451b612",
      "v": 27,
      "creates": null,
      "raw": "0xf89280850d49ff60b183015f9094a1a111bc074c9cfa781f0c38e63bd51c91b8af008903bd913e6c1df40000a4432ced0454455354000000000000000000000000000000000000000000000000000000001ba0c73c439a39ab162d006b257ffaf0eb460b51b89f06dc93b28c59f7e14af1b9d5a03f05b14d3cb492b51d39b69c7c4379c0ca1e8cf275a6c0771f269f96e451b612",
      "networkId": 0,
      "chainId": 0
    },
    {
      "hash": "0x1a401a058f3a039bef45330c2f76168432650314f8eabb2b61b2b9448f3aeb9f",
      "blockHash": "0x11613c7bb9d35f521ae748a1e71a56cb0a9a488de192dbdbfd137450aba9d411",
      "blockNumber": 86313,
      "transactionIndex": 1,
      "confirmations": null,
      "from": "0x1467bcfA961fE8067c779935a78B4a73E7393BD8",
      "gasPrice": {
        "_hex": "0xd42b4f46f"
      },
      "gasLimit": {
        "_hex": "0x5208"
      },
      "to": "0x32Be343B94f860124dC4fEe278FDCBD38C102D88",
      "value": {
        "_hex": "0x22ad92a6049b3400"
      },
      "nonce": 4,
      "data": "0x",
      "r": "0x442968c550fb6b632e56218bc96580f9f7d8667c0151ab527426777f06226c88",
      "s": "0x7b7e7652f7d5e5df4855952f284adbb2f7d0c60a0d6f005b28f5d5ee2c542a89",
      "v": 28,
      "creates": null,
      "raw": "0xf86c04850d42b4f46f8252089432be343b94f860124dc4fee278fdcbd38c102d888822ad92a6049b3400801ca0442968c550fb6b632e56218bc96580f9f7d8667c0151ab527426777f06226c88a07b7e7652f7d5e5df4855952f284adbb2f7d0c60a0d6f005b28f5d5ee2c542a89",
      "networkId": 0,
      "chainId": 0
    }
  ]
}