{
  "hash": "0x122ef4adb09016994e7a9330b10e4272394f22e030116e35debb08f39730a5ad",
  "parentHash": "0xbf2e6ba1c01dffe9502118a12e30346556e81b1012098515f40ce890450ffa5e",
  "number": 74826,
  "timestamp": 1439393095,
  "nonce": "0x13e4efc1dcbeb8bb",
  "difficulty": 2189139858104,
  "gasLimit": {
    "_hex": "0x2fefd8"
  },
  "gasUsed": {
    "_hex": "0x522d"
  },
  "miner": "0x53824166ea5271d3425e3194c848A90CA4e97eB2",
  "extraData": "0x476574682f76312e302e312f6c696e75782f676f312e342e32",
  "transactions": [
    {
      "hash": "0xdca64488cd276e8be08596bc7e9fe7609b3005d83ec623e71ee5a529a6170e51",
      "blockHash": "0x122ef4adb09016994e7a9330b10e4272394f22e030116e35debb08f39730a5ad",
      "blockNumber": 74826,
      "transactionIndex": 0,
      "confirmations": null,
      "from": "0x87C5B5874A18B4306DF8a752a6C8cc3E82daFc19",
      "gasPrice": {
        "_hex": "0x104a1e299e1"
      },
      "gasLimit": {
        "_hex": "0x15f90"
      },
      "to": "0xC4c51de1AbF5D60DBd329eC0F999Fd8f021ae9fC",
      "value": {
        "_hex": "0x3635c9adc5dea00000"
      },
      "nonce": 22,
      "data": "0x",
      "r": "0x56aa1f8ffe79aad88c7313ea9be6cd875c8b2aafb639d20c43b2c319aa8f1d8f",
      "s": "0x448ed5e1043b1591c478be3e2af2c408a67bc9b345d6966a25746559801d881c",
      "v": 28,
      "creates": null,
      "raw": "0xf86f16860104a1e299e183015f9094c4c51de1abf5d60dbd329ec0f999fd8f021ae9fc893635c9adc5dea00000801ca056aa1f8ffe79aad88c7313ea9be6cd875c8b2aafb639d20c43b2c319aa8f1d8fa0448ed5e1043b1591c478be3e2af2c408a67bc9b345d6966a25746559801d881c",
      "networkId": 0,
      "chainId": 0
    }
  ]
}