{
  "hash": "0x5cc6d8bf2925c24417495139644a85a73ff382165e9af0239fc6be5ef5f2ce2b",
  "parentHash": "0x33ec8adc5a025198836d94f2b8744ea6e96d323166c7d768708a0e04efbbb44e",
  "number": 96884,
  "timestamp": 1439747460,
  "nonce": "0x3ba304842b6428bb",
  "difficulty": 3728609892839,
  "gasLimit": {
    "_hex": "0x2fefd8"
  },
  "gasUsed": {
    "_hex": "0xa410"
  },
  "miner": "0x55bAf64fc9eAccFFd7Cc643BB61142E1C6ac093e",
  "extraData": "0x",
  "transactions": [
    {
      "hash": "0x7bcc64854ba95af8f9d2451d5a5d39b17620868dff07e3696a429d110381c775",
      "blockHash": "0x5cc6d8bf2925c24417495139644a85a73ff382165e9af0239fc6be5ef5f2ce2b",
      "blockNumber": 96884,
      "transactionIndex": 0,
      "confirmations": null,
      "from": "0x32Be343B94f860124dC4fEe278FDCBD38C102D88",
      "gasPrice": {
        "_hex": "0xd6156fed9"
      },
      "gasLimit": {
        "_hex": "0x5208"
      },
      "to": "0xfE284479d83D913ce62BAe7f7D5D591b66D972e8",
      "value": {
        "_hex": "0xdbd2fc137a30000"
      },
      "nonce": 1015,
      "data": "0x",
      "r": "0x2f314c465b86a4ca9dbe0765d8a8ff647d19865748c1f602bba198791528ab78",
      "s": "0x1418a9316f56254ba05541b210e744a0b659f021976b34df379b13c585e694d0",
      "v": 28,
      "creates": null,
      "raw": "0xf86e8203f7850d6156fed982520894fe284479d83d913ce62bae7f7d5d591b66d972e8880dbd2fc137a30000801ca02f314c465b86a4ca9dbe0765d8a8ff647d19865748c1f602bba198791528ab78a01418a9316f56254ba05541b210e744a0b659f021976b34df379b13c585e694d0",
      "networkId": 0,
      "chainId": 0
    },
    {
      "hash": "0x5d0735be9bda3ea35acbc4cba58fe783b7ec06d436a98fb932e53f2747c73c8c",
      "blockHash": "0x5cc6d8bf2925c24417495139644a85a73ff382165e9af0239fc6be5ef5f2ce2b",
      "blockNumber": 96884,
      "transactionIndex": 1,
      "confirmations": null,
      "from": "0x32Be343B94f860124dC4fEe278FDCBD38C102D88",
      "gasPrice": {
        "_hex": "0xd6156fed9"
      },
      "gasLimit": {
        "_hex": "0x5208"
      },
      "to": "0xCE0B181265D6F609920a9AA65547C2a1e1F26FcB",
      "value": {
        "_hex": "0xdbd2fc137a30000"
      },
      "nonce": 1016,
      "data": "0x",
      "r": "0x7ad0ba46e392099b35a59a32ebe5d862ddd31722e010c16ee7e166b033ba0738",
      "s": "0x1b83e39524a6dbacae177e83014535f44e9c3114944a64bd015418a6e4491479",
      "v": 28,
      "creates": null,
      "raw": "0xf86e8203f8850d6156fed982520894ce0b181265d6f609920a9aa65547c2a1e1f26fcb880dbd2fc137a30000801ca07ad0ba46e392099b35a59a32ebe5d862ddd31722e010c16ee7e166b033ba0738a01b83e39524a6dbacae177e83014535f44e9c3114944a64bd015418a6e4491479",
      "networkId": 0,
      "chainId": 0
    }
  ]
}