{
  "hash": "0xded43a0e8ddb8f6613a48f667fdaa53285965db0f5f70508d145643897d5546b",
  "parentHash": "0x64ccec4088c5ad41c2fa5119960e6fcf0b58323768b9b1250f55f512a0d1edd3",
  "number": 110279,
  "timestamp": 1439971008,
  "nonce": "0x97f9875f4614e400",
  "difficulty": 4367132669671,
  "gasLimit": {
    "_hex": "0x2fefd8"
  },
  "gasUsed": {
    "_hex": "0x5208"
  },
  "miner": "0xe6A7a1d47ff21B6321162AEA7C6CB457D5476Bca",
  "extraData": "0x476574682f76312e302e312d38326566323666362f6c696e75782f676f312e34",
  "transactions": [
    {
      "hash": "0xaea1b59405988889b160633669d2a2fff15bad1fa8c7c6c406087a70d890c764",
      "blockHash": "0xded43a0e8ddb8f6613a48f667fdaa53285965db0f5f70508d145643897d5546b",
      "blockNumber": 110279,
      "transactionIndex": 0,
      "confirmations": null,
      "from": "0x007f7f58D3eb5b7510A301eCC749FC1fCDDBE14D",
      "gasPrice": {
        "_hex": "0xd382b0b9c"
      },
      "gasLimit": {
        "_hex": "0x15f90"
      },
      "to": "0xb1abce2918E21ddb93AA452731a12672A3d9F75a",
      "value": {
        "_hex": "0x4563918244f40000"
      },
      "nonce": 285,
      "data": "0x",
      "r": "0x7e217713ddf2e50020518184ee476fe1c79c1a35afdb74a2b36a26c33a9a1df0",
      "s": "0x3919ac54838657be9077f8a72c784d46356b752c614501af496238366a5ea682",
      "v": 28,
      "creates": null,
      "raw": "0xf86f82011d850d382b0b9c83015f9094b1abce2918e21ddb93aa452731a12672a3d9f75a884563918244f40000801ca07e217713ddf2e50020518184ee476fe1c79c1a35afdb74a2b36a26c33a9a1df0a03919ac54838657be9077f8a72c784d46356b752c614501af496238366a5ea682",
      "networkId": 0,
      "chainId": 0
    }
  ]
}