{
  "hash": "0x96eab6300e8be062a3967282dc23d188eddebebca6207bfadeaac3c605261254",
  "parentHash": "0x0274e870311732d8dc0c5d1a31055eb8c07b787a6746e1d330d97dd34521114f",
  "number": 89193,
  "timestamp": 1439619645,
  "nonce": "0x2949e619f8b2cdcd",
  "difficulty": 3279063222056,
  "gasLimit": {
    "_hex": "0x2fefd8"
  },
  "gasUsed": {
    "_hex": "0xbb3e"
  },
  "miner": "0x790b8a3cE86E707ED0eD32bF89B3269692a23CC1",
  "extraData": "0xd783010001844765746887676f312e342e32856c696e7578",
  "transactions": [
    {
      "hash": "0xbff0049280093596dd5aab7604e67b408d79fccbc28f0dbe0ab41f28b1931f42",
      "blockHash": "0x96eab6300e8be062a3967282dc23d188eddebebca6207bfadeaac3c605261254",
      "blockNumber": 89193,
      "transactionIndex": 0,
      "confirmations": null,
      "from": "0xd84b922F7841FC5774f00e14604Ae0dF42c8551e",
      "gasPrice": {
        "_hex": "0xd9c63f425"
      },
      "gasLimit": {
        "_hex": "0x15f90"
      },
      "to": "0xAd8d3a5d2d92EB14bB56CA9f380be35b8EFE0c04",
      "value": {
        "_hex": "0xde0b6b3a7640000"
      },
      "nonce": 1,
      "data": "0xb214faa541414141414645414a0000000000000000000000000000000000000000000000",
      "r": "0x3b0b56c25ca72820c942ce827e3048fa058ebf0d9b34f9e76104c71213508125",
      "s": "0x6be5f3bc94b20ca8ab28977d02d5362ba2a6bce683b83d5291d5a3a21565195c",
      "v": 27,
      "creates": null,
      "raw": "0xf89101850d9c63f42583015f9094ad8d3a5d2d92eb14bb56ca9f380be35b8efe0c04880de0b6b3a7640000a4b214faa541414141414645414a00000000000000000000000000000000000000000000001ba03b0b56c25ca72820c942ce827e3048fa058ebf0d9b34f9e76104c71213508125a06be5f3bc94b20ca8ab28977d02d5362ba2a6bce683b83d5291d5a3a21565195c",
      "networkId": 0,
      "chainId": 0
    },
    {
      "hash": "0xc4c82058382963aa759a192bbce367a679ab1a2df96b356e9cfb31c0cd5e8f8c",
      "blockHash": "0x96eab6300e8be062a3967282dc23d188eddebebca6207bfadeaac3c605261254",
      "blockNumber": 89193,
      "transactionIndex": 1,
      "confirmations": null,
      "from": "0xd84b922F7841FC5774f00e14604Ae0dF42c8551e",
      "gasPrice": {
        "_hex": "0xd9c63f425"
      },
      "gasLimit": {
        "_hex": "0x15f90"
      },
      "to": "0xAd8d3a5d2d92EB14bB56CA9f380be35b8EFE0c04",
      "value": {
        "_hex": "0xde0b6b3a7640000"
      },
      "nonce": 2,
      "data": "0xb214faa541414141414645414a0000000000000000000000000000000000000000000000",
      "r": "0xaaf7608fc52e09e68f46b5503d09eb15ec5419768051d87af67e2c2701877671",
      "s": "0x614afb6087eead00ee659790d630be53a6fa88c68eab7c67dfb132df8a86817e",
      "v": 28,
      "creates": null,
      "raw": "0xf89102850d9c63f42583015f9094ad8d3a5d2d92eb14bb56ca9f380be35b8efe0c04880de0b6b3a7640000a4b214faa541414141414645414a00000000000000000000000000000000000000000000001ca0aaf7608fc52e09e68f46b5503d09eb15ec5419768051d87af67e2c2701877671a0614afb6087eead00ee659790d630be53a6fa88c68eab7c67dfb132df8a86817e",
      "networkId": 0,
      "chainId": 0
    }
  ]
}