{
  "hash": "0xef585ce67eb076f7687b3d359a90715a7fe814a20da5942ece8dafb15b9a2fbb",
  "parentHash": "0x7a2a3b5d83fe83f8290b37d390d17837ce49378dac50a665c422490dfdbf9115",
  "number": 66079,
  "timestamp": 1439248224,
  "nonce": "0xb4730e9a3aacc9f1",
  "difficulty": 1950044521041,
  "gasLimit": {
    "_hex": "0x2fefd8"
  },
  "gasUsed": {
    "_hex": "0x5208"
  },
  "miner": "0xf927a40C8B7F6E07c5af7FA2155B4864a4112B13",
  "extraData": "0x",
  "transactions": [
    {
      "hash": "0xe12361126a92fb4b0e13e679ecec0609be82067396fa9705a918c640f759fead",
      "blockHash": "0xef585ce67eb076f7687b3d359a90715a7fe814a20da5942ece8dafb15b9a2fbb",
      "blockNumber": 66079,
      "transactionIndex": 0,
      "confirmations": null,
      "from": "0x0BB549C68C4992BAc6a19C97d97178f60b36998E",
      "gasPrice": {
        "_hex": "0xd4395cf4f"
      },
      "gasLimit": {
        "_hex": "0x15f90"
      },
      "to": "0xcB495D8e4F272a89123F91beaB031ba380E2Cc34",
      "value": {
        "_hex": "0xde0b6b3a7640000"
      },
      "nonce": 4,
      "data": "0x",
      "r": "0x3ca753d442220aa208dc019cdcf6458bb42604ee2a2133adbfdcba58c00bf498",
      "s": "0x716f6d4858de39c5e6621a79f189715cad9b885feabe4c52b2cf25453187703d",
      "v": 28,
      "creates": null,
      "raw": "0xf86d04850d4395cf4f83015f9094cb495d8e4f272a89123f91beab031ba380e2cc34880de0b6b3a7640000801ca03ca753d442220aa208dc019cdcf6458bb42604ee2a2133adbfdcba58c00bf498a0716f6d4858de39c5e6621a79f189715cad9b885feabe4c52b2cf25453187703d",
      "networkId": 0,
      "chainId": 0
    }
  ]
}