{
  "hash": "0xffda1eb0952c620bf1c037409284db10fca89e0cf0ea867d555238c85b29b0ab",
  "parentHash": "0xcf9b8d400b04b83dbbbc8d82cdfaf4d15f934c55ab62e584eb76c4c13202ad9e",
  "number": 96288,
  "timestamp": 1439737938,
  "nonce": "0x09fc1a4df3f8c150",
  "difficulty": 3681834806121,
  "gasLimit": {
    "_hex": "0x2fefd8"
  },
  "gasUsed": {
    "_hex": "0x5208"
  },
  "miner": "0xf8E0CA3Ed80bd541b94BEdCf259e8CF2141A9523",
  "extraData": "0x476574682f76312e302e312f77696e646f77732f676f312e342e32",
  "transactions": [
    {
      "hash": "0x8a9bb1c5e6ae33f8e5400ca9068556c7b8169d8c2444a174f1c644f3bc141890",
      "blockHash": "0xffda1eb0952c620bf1c037409284db10fca89e0cf0ea867d555238c85b29b0ab",
      "blockNumber": 96288,
      "transactionIndex": 0,
      "confirmations": null,
      "from": "0x32Be343B94f860124dC4fEe278FDCBD38C102D88",
      "gasPrice": {
        "_hex": "0xcd8647586"
      },
      "gasLimit": {
        "_hex": "0x5208"
      },
      "to": "0x80bA7fe0Fc041a04C13C6Fdc9616aEd480A8782B",
      "value": {
        "_hex": "0x20f3797b869170000"
      },
      "nonce": 1000,
      "data": "0x",
      "r": "0xe5460a1796a8cddfcd5fc35ffaf2daa05c91dde75271a990caa814db805a9a17",
      "s": "0x0bee154ab6382387de156ed57b837b3317573ba5264e1030123f1950b61edb50",
      "v": 27,
      "creates": null,
      "raw": "0xf86f8203e8850cd86475868252089480ba7fe0fc041a04c13c6fdc9616aed480a8782b89020f3797b869170000801ba0e5460a1796a8cddfcd5fc35ffaf2daa05c91dde75271a990caa814db805a9a17a00bee154ab6382387de156ed57b837b3317573ba5264e1030123f1950b61edb50",
      "networkId": 0,
      "chainId": 0
    }
  ]
}