{
  "hash": "0x7de6c2eeef21b3d596bedfd748c3464a449d788c73f810c0b5c7450a36c4ca24",
  "parentHash": "0x8239fd081ccf1047e43cdf79d07fe18d81767df511d38be979d1b1adf48a3730",
  "number": 79139,
  "timestamp": 1439465179,
  "nonce": "0x482bc39ac9d79c8d",
  "difficulty": 2309875856021,
  "gasLimit": {
    "_hex": "0x2fefd8"
  },
  "gasUsed": {
    "_hex": "0x5208"
  },
  "miner": "0xa6BDc31c431B8F97848c9D60cbbe9660dc450eB7",
  "extraData": "0x",
  "transactions": [
    {
      "hash": "0x5af0e850d256998780b69ae0cdbda9f04fb91d818023f584b28e0ebf70f27b7c",
      "blockHash": "0x7de6c2eeef21b3d596bedfd748c3464a449d788c73f810c0b5c7450a36c4ca24",
      "blockNumber": 79139,
      "transactionIndex": 0,
      "confirmations": null,
      "from": "0x569097B307296376A23e9Cd84DDB966C079D7de5",
      "gasPrice": {
        "_hex": "0xba43b7400"
      },
      "gasLimit": {
        "_hex": "0x5208"
      },
      "to": "0xC47Aaa860008be6f65B58c6C6E02a84e666EfE31",
      "value": {
        "_hex": "0xdcb3842427fe000"
      },
      "nonce": 0,
      "data": "0x",
      "r": "0xcb93705a86329ef6dee41a2877bb8eb64109258f441fb5e69135600c1f32ef25",
      "s": "0x4e177c5e9ef1f289ab97bde0e6cf411d2ceb0e448c049be89304e3ff442b4c80",
      "v": 28,
      "creates": null,
      "raw": "0xf86c80850ba43b740082520894c47aaa860008be6f65b58c6c6e02a84e666efe31880dcb3842427fe000801ca0cb93705a86329ef6dee41a2877bb8eb64109258f441fb5e69135600c1f32ef25a04e177c5e9ef1f289ab97bde0e6cf411d2ceb0e448c049be89304e3ff442b4c80",
      "networkId": 0,
      "chainId": 0
    }
  ]
}