{
  "hash": "0xd7ab5c9b2de4df13aa83d098969b3e9ec903b9dd36511c2a8357d94848352aec",
  "parentHash": "0x56cd96d8f3fc36a4537e5b50a2ca3e219053cc04f8eff6e4c45af6aed381d856",
  "number": 114691,
  "timestamp": 1440044623,
  "nonce": "0xaf1e3ccd6c36dbbd",
  "difficulty": 4490216942432,
  "gasLimit": {
    "_hex": "0x2fefd8"
  },
  "gasUsed": {
    "_hex": "0x5208"
  },
  "miner": "0x1A22137e525478043F6E1394849e6C23932786C9",
  "extraData": "0x476574682f76312e302e312f6c696e75782f676f312e342e32",
  "transactions": [
    {
      "hash": "0x018f91ed9bb74e3f42416c2283db32c32e125e87ab958619837e1e9bb0e44183",
      "blockHash": "0xd7ab5c9b2de4df13aa83d098969b3e9ec903b9dd36511c2a8357d94848352aec",
      "blockNumber": 114691,
      "transactionIndex": 0,
      "confirmations": null,
      "from": "0x32Be343B94f860124dC4fEe278FDCBD38C102D88",
      "gasPrice": {
        "_hex": "0xd39e4fcc0"
      },
      "gasLimit": {
        "_hex": "0x5208"
      },
      "to": "0x41c043029b0D13183C40Ffaafb3951Dc79eCA200",
      "value": {
        "_hex": "0xdbd2fc137a30000"
      },
      "nonce": 1397,
      "data": "0x",
      "r": "0x31b5c13fb13ec2297477534fd0be90f52cfd66c95b335d87b6a64c16dca313c0",
      "s": "0x0572e8ddc67a1376ba796e63f8807d3806f3de97780c1c26987b5368a036aaa9",
      "v": 27,
      "creates": null,
      "raw": "0xf86e820575850d39e4fcc08252089441c043029b0d13183c40ffaafb3951dc79eca200880dbd2fc137a30000801ba031b5c13fb13ec2297477534fd0be90f52cfd66c95b335d87b6a64c16dca313c0a00572e8ddc67a1376ba796e63f8807d3806f3de97780c1c26987b5368a036aaa9",
      "networkId": 0,
      "chainId": 0
    }
  ]
}