{
  "hash": "0x05ab0cc7ff25c010d92323aceffa932aac46a214788233d0f95f317b3cfb1196",
  "parentHash": "0x5bc0d6160765872acf81a5d93e966ad4842d48a6ba5d8f8b78a1b290b3254206",
  "number": 93433,
  "timestamp": 1439690268,
  "nonce": "0xad522b8e8fa19340",
  "difficulty": 3499016831695,
  "gasLimit": {
    "_hex": "0x2fefd8"
  },
  "gasUsed": {
    "_hex": "0xa674"
  },
  "miner": "0xe6A7a1d47ff21B6321162AEA7C6CB457D5476Bca",
  "extraData": "0x476574682f76312e302e312d38326566323666362f6c696e75782f676f312e34",
  "transactions": [
    {
      "hash": "0x32c84de7981a89d4bd13306744f31170452ca83c205c6a67bd4565802a9265ca",
      "blockHash": "0x05ab0cc7ff25c010d92323aceffa932aac46a214788233d0f95f317b3cfb1196",
      "blockNumber": 93433,
      "transactionIndex": 0,
      "confirmations": null,
      "from": "0x090cebef292c3EB081a05fd8aAF7d39bf07B89d4",
      "gasPrice": {
        "_hex": "0x110c8f7d8de"
      },
      "gasLimit": {
        "_hex": "0xc350"
      },
      "to": "0x2910543Af39abA0Cd09dBb2D50200b3E800A63D2",
      "value": {
        "_hex": "0x878678326eac900000"
      },
      "nonce": 3,
      "data": "0x454e4a4b4859365638",
      "r": "0x95b25025ac9346bd5413b28c92590c5aaccb6be1d4d6b42050d8bafadfe06550",
      "s": "0xe28c5c1b1ef9fd47363531e59216afe3f46af27e58480223ebebc038eee2302d",
      "v": 28,
      "creates": null,
      "raw": "0xf87703860110c8f7d8de82c350942910543af39aba0cd09dbb2d50200b3e800a63d289878678326eac90000089454e4a4b48593656381ca095b25025ac9346bd5413b28c92590c5aaccb6be1d4d6b42050d8bafadfe06550a0e28c5c1b1ef9fd47363531e59216afe3f46af27e58480223ebebc038eee2302d",
      "networkId": 0,
      "chainId": 0
    },
    {
      "hash": "0x11a76f87d7c45cce32cfd8fa1b5128f022f7a0f8a8eaa9116b1908040cf86a33",
      "blockHash": "0x05ab0cc7ff25c010d92323aceffa932aac46a214788233d0f95f317b3cfb1196",
      "blockNumber": 93433,
      "transactionIndex": 1,
      "confirmations": null,
      "from": "0xA10C59651885FeAaac91F871082a23BBbaBeDfCf",
      "gasPrice": {
        "_hex": "0xfed14645ee"
      },
      "gasLimit": {
        "_hex": "0x5208"
      },
      "to": "0x4c74B6F32c9680aCB5Fe0e72B7Aa95C612540A04",
      "value": {
        "_hex": "0xa31062beeed700000"
      },
      "nonce": 31,
      "data": "0x",
      "r": "0x416be4296867c91b1271cbb8fde3a904f9217cce57c940cb4844357a557f428d",
      "s": "0x4ad3b632dc9e08752d1ef4184f03e412f0707ed172325d47cd3ac0262851b4c0",
      "v": 28,
      "creates": null,
      "raw": "0xf86d1f85fed14645ee825208944c74b6f32c9680acb5fe0e72b7aa95c612540a04890a31062beeed700000801ca0416be4296867c91b1271cbb8fde3a904f9217cce57c940cb4844357a557f428da04ad3b632dc9e08752d1ef4184f03e412f0707ed172325d47cd3ac0262851b4c0",
      "networkId": 0,
      "chainId": 0
    }
  ]
}