{
  "hash": "0x6dba199d9c370ca83b3822bdbd96fa625721630921db5460da6791f8a605e5e6",
  "parentHash": "0x734f55daec37bd25031b6aeadea569855c7542cc45a412d0dcdf8c26bf970dbc",
  "number": 48228,
  "timestamp": 1438953785,
  "nonce": "0x83c8cd8ad1188a02",
  "difficulty": 1454365945461,
  "gasLimit": {
    "_hex": "0x14018"
  },
  "gasUsed": {
    "_hex": "0x546c"
  },
  "miner": "0x688d4CACaCCc92e6914549710594BC6aa994F569",
  "extraData": "0x476574682f76312e302e312d38326566323666362f6c696e75782f676f312e34",
  "transactions": [
    {
      "hash": "0x66278f82c7bec5827a3bb82795da11571ecafec451b6389929a17db3c88c3228",
      "blockHash": "0x6dba199d9c370ca83b3822bdbd96fa625721630921db5460da6791f8a605e5e6",
      "blockNumber": 48228,
      "transactionIndex": 0,
      "confirmations": null,
      "from": "0xdCd8Aa0E6fD68B057C5AC5e362619808A175CE87",
      "gasPrice": {
        "_hex": "0x8bb2c97000"
      },
      "gasLimit": {
        "_hex": "0xa028"
      },
      "to": "0x2910543Af39abA0Cd09dBb2D50200b3E800A63D2",
      "value": {
        "_hex": "0x16345785d8a0000"
      },
      "nonce": 3,
      "data": "0x454e30373557365a38",
      "r": "0x2ef14fddfd6e79bc483afa2616e98e8c7cf6b7bc21b40d8dca9f0bed063d3c57",
      "s": "0x254c36115231ea4cbeb109201fcddb31c4e1872dfc0783cc9638114485835b3a",
      "v": 27,
      "creates": null,
      "raw": "0xf87503858bb2c9700082a028942910543af39aba0cd09dbb2d50200b3e800a63d288016345785d8a000089454e30373557365a381ba02ef14fddfd6e79bc483afa2616e98e8c7cf6b7bc21b40d8dca9f0bed063d3c57a0254c36115231ea4cbeb109201fcddb31c4e1872dfc0783cc9638114485835b3a",
      "networkId": 0,
      "chainId": 0
    }
  ]
}