{
  "hash": "0xd91252cf1931f0dafb952eed9e693a5ea2a4ecc85278f56eb08cdc150f3ca694",
  "parentHash": "0xbd50f7178dab79c5224d03e5299b69032dad325e4b24d97476750e0d93be0280",
  "number": 81287,
  "timestamp": 1439499293,
  "nonce": "0xd911bda0f9aa4e7a",
  "difficulty": 2446246750997,
  "gasLimit": {
    "_hex": "0x2fefd8"
  },
  "gasUsed": {
    "_hex": "0xa410"
  },
  "miner": "0xDdf735543837695220A5fF5920f5756696840A5D",
  "extraData": "0x476574682f76312e302e312f6c696e75782f676f312e342e32",
  "transactions": [
    {
      "hash": "0x824e8ced3684321c80116b324f6d6cc47ffc32307d53424518c17fd4f7e050be",
      "blockHash": "0xd91252cf1931f0dafb952eed9e693a5ea2a4ecc85278f56eb08cdc150f3ca694",
      "blockNumber": 81287,
      "transactionIndex": 0,
      "confirmations": null,
      "from": "0x32Be343B94f860124dC4fEe278FDCBD38C102D88",
      "gasPrice": {
        "_hex": "0xdac496c90"
      },
      "gasLimit": {
        "_hex": "0x5208"
      },
      "to": "0xcC09BaD7e80b523e8fEb3023E772491AD1Bc2e7E",
      "value": {
        "_hex": "0x332a69475244b0000"
      },
      "nonce": 588,
      "data": "0x",
      "r": "0x3794a317117a6339b17140bbdc8c4e19a35713ae313e5b932459a9789eb13f4d",
      "s": "0x3e3e315e57497a61d25cfe0c938c001d3f35502b297b3a2a393520ebc2a5d0ab",
      "v": 28,
      "creates": null,
      "raw": "0xf86f82024c850dac496c9082520894cc09bad7e80b523e8feb3023e772491ad1bc2e7e890332a69475244b0000801ca03794a317117a6339b17140bbdc8c4e19a35713ae313e5b932459a9789eb13f4da03e3e315e57497a61d25cfe0c938c001d3f35502b297b3a2a393520ebc2a5d0ab",
      "networkId": 0,
      "chainId": 0
    },
    {
      "hash": "0x4befa5e7ef4390469a1bea16195f64288bce466291fbc88a54164c714a34a0f5",
      "blockHash": "0xd91252cf1931f0dafb952eed9e693a5ea2a4ecc85278f56eb08cdc150f3ca694",
      "blockNumber": 81287,
      "transactionIndex": 1,
      "confirmations": null,
      "from": "0x32Be343B94f860124dC4fEe278FDCBD38C102D88",
      "gasPrice": {
        "_hex": "0xdac496c90"
      },
      "gasLimit": {
        "_hex": "0x5208"
      },
      "to": "0x5F28bcc5faFC8982536A9e4be559657998CdE1E3",
      "value": {
        "_hex": "0x11be651136ce170000"
      },
      "nonce": 589,
      "data": "0x",
      "r": "0xfea81d746383f35d5bf54defd5bad8c86afd52b3c0e63344c226165182636086",
      "s": "0x4972196b4bdd4171836e69becb254571663db72b3dd823f2476b5c803a6cdc2d",
      "v": 27,
      "creates": null,
      "raw": "0xf86f82024d850dac496c90825208945f28bcc5fafc8982536a9e4be559657998cde1e38911be651136ce170000801ba0fea81d746383f35d5bf54defd5bad8c86afd52b3c0e63344c226165182636086a04972196b4bdd4171836e69becb254571663db72b3dd823f2476b5c803a6cdc2d",
      "networkId": 0,
      "chainId": 0
    }
  ]
}