{
  "hash": "0xe15d81a98c8a02f7717aa29120fb8d703ccedd9b2f9cf41da6cd878fbcf169a4",
  "parentHash": "0x1afda40d77c3c9c0ace46670f2fd6e85f33cd029fa888a1ac53dcb7836718940",
  "number": 74375,
  "timestamp": 1439385127,
  "nonce": "0xe5147e945faabf30",
  "difficulty": 2209662559139,
  "gasLimit": {
    "_hex": "0x2fefd8"
  },
  "gasUsed": {
    "_hex": "0x5208"
  },
  "miner": "0xa6BDc31c431B8F97848c9D60cbbe9660dc450eB7",
  "extraData": "0x",
  "transactions": [
    {
      "hash": "0xa00ef0db3f2aa9d19ade79fb47d93ab68e305c330dbce46099f0d78041e8f034",
      "blockHash": "0xe15d81a98c8a02f7717aa29120fb8d703ccedd9b2f9cf41da6cd878fbcf169a4",
      "blockNumber": 74375,
      "transactionIndex": 0,
      "confirmations": null,
      "from": "0xC2c2c26961e5560081003Bb157549916B21744Db",
      "gasPrice": {
        "_hex": "0xba43b7400"
      },
      "gasLimit": {
        "_hex": "0x5265"
      },
      "to": "0x8bae48F227d978d084B009b775222BAaF61ed9fe",
      "value": {
        "_hex": "0xb1a2bc2ec50000"
      },
      "nonce": 0,
      "data": "0x",
      "r": "0x269648bd0d3fe320fcd6d23acb72959278a58e330d6bcc594121c7b3cb288325",
      "s": "0x3f21345cf310dfb16f4f7342efc695a2acc43f24377699179ab5d6475af034bc",
      "v": 27,
      "creates": null,
      "raw": "0xf86b80850ba43b7400825265948bae48f227d978d084b009b775222baaf61ed9fe87b1a2bc2ec50000801ba0269648bd0d3fe320fcd6d23acb72959278a58e330d6bcc594121c7b3cb288325a03f21345cf310dfb16f4f7342efc695a2acc43f24377699179ab5d6475af034bc",
      "networkId": 0,
      "chainId": 0
    }
  ]
}