{
  "hash": "0x61bed97920edc75838cae62eb9a253218cd9de28e083b88cdc0f9ffa253d41b2",
  "parentHash": "0x840e78b31b6187591be4aa6344e2572becc4b59f43167e9d0aed0538fce37efc",
  "number": 67614,
  "timestamp": 1439274732,
  "nonce": "0x30d806aab2744b82",
  "difficulty": 1931683442757,
  "gasLimit": {
    "_hex": "0x2fefd8"
  },
  "gasUsed": {
    "_hex": "0x5208"
  },
  "miner": "0xf927a40C8B7F6E07c5af7FA2155B4864a4112B13",
  "extraData": "0x",
  "transactions": [
    {
      "hash": "0x6d1ee594622ca9a636ceac8e371b3dd34e139fe30772bff0612bc91e62601fdc",
      "blockHash": "0x61bed97920edc75838cae62eb9a253218cd9de28e083b88cdc0f9ffa253d41b2",
      "blockNumber": 67614,
      "transactionIndex": 0,
      "confirmations": null,
      "from": "0x6866e5e1FaBB4AbceF3EEb9Ea0d8CD6b52dfC9FF",
      "gasPrice": {
        "_hex": "0xd9ee4df2a"
      },
      "gasLimit": {
        "_hex": "0x15f90"
      },
      "to": "0x01Ad0ACFf478127D9d702B1A13599D706cB759b1",
      "value": {
        "_hex": "0x4563918244f40000"
      },
      "nonce": 6,
      "data": "0x",
      "r": "0xc8466d207931f101903175eb0b4e0da3a4f9b8c1ce92cb1b563d9dc24e77022c",
      "s": "0x6faec594f06d90b2edc5a8224ce0e3265c011470d65b17419c7c717eca12d15c",
      "v": 28,
      "creates": null,
      "raw": "0xf86d06850d9ee4df2a83015f909401ad0acff478127d9d702b1a13599d706cb759b1884563918244f40000801ca0c8466d207931f101903175eb0b4e0da3a4f9b8c1ce92cb1b563d9dc24e77022ca06faec594f06d90b2edc5a8224ce0e3265c011470d65b17419c7c717eca12d15c",
      "networkId": 0,
      "chainId": 0
    }
  ]
}