{
  "hash": "0xb7c2b79a2cd4e5eb8d5acd0a2d75e6660420e3437de05f336407f149c3914079",
  "parentHash": "0xe24efcd0418d74b531b0d47fdd5f8933ad4ef3ec69103368ea00f857cb9da122",
  "number": 122279,
  "timestamp": 1440191522,
  "nonce": "0x66f57725f2db1dce",
  "difficulty": 4446900755040,
  "gasLimit": {
    "_hex": "0x2fefd8"
  },
  "gasUsed": {
    "_hex": "0x4666b"
  },
  "miner": "0x52bc44d5378309EE2abF1539BF71dE1b7d7bE3b5",
  "extraData": "0xd783010002844765746887676f312e342e32856c696e7578",
  "transactions": [
    {
      "hash": "0x0a54453e00520905c16e7db400112bea99a2e481fb3589b30c0be671d637054d",
      "blockHash": "0xb7c2b79a2cd4e5eb8d5acd0a2d75e6660420e3437de05f336407f149c3914079",
      "blockNumber": 122279,
      "transactionIndex": 0,
      "confirmations": null,
      "from": "0x60a175bB691fEE8557a7b6D8eFC9E49889486f41",
      "gasPrice": {
        "_hex": "0xba43b7400"
      },
      "gasLimit": {
        "_hex": "0x15f90"
      },
      "to": "0xBb7f43EDfd8bf08B022fEd5BD91e3f9dE7e74D09",
      "value": {
        "_hex": "0x1a055690d9db80000"
      },
      "nonce": 22,
      "data": "0x",
      "r": "0x7d26a82964b97f9890cecb29fc1598aaefc3d2ef4a8dd5069862a88f6cc362a2",
      "s": "0x31e43d2d9124caaf7c7723e7ac0ad0d93d5d833ab0dc88e928725eebde02e488",
      "v": 28,
      "creates": null,
      "raw": "0xf86e16850ba43b740083015f9094bb7f43edfd8bf08b022fed5bd91e3f9de7e74d098901a055690d9db80000801ca07d26a82964b97f9890cecb29fc1598aaefc3d2ef4a8dd5069862a88f6cc362a2a031e43d2d9124caaf7c7723e7ac0ad0d93d5d833ab0dc88e928725eebde02e488",
      "networkId": 0,
      "chainId": 0
    },
    {
      "hash": "0x5b8b55510d673717aefd5aab0e95d92788d6faf3d7c2132c26922b77d50a82f0",
      "blockHash": "0xb7c2b79a2cd4e5eb8d5acd0a2d75e6660420e3437de05f336407f149c3914079",
      "blockNumber": 122279,
      "transactionIndex": 1,
      "confirmations": null,
      "from": "0x120A270bbC009644e35F0bB6ab13f95b8199c4ad",
      "gasPrice": {
        "_hex": "0xba43b7400"
      },
      "gasLimit": {
        "_hex": "0x3d090"
      },
      "to": "0x96AA9d72B4606B440Ef85352439AEC5Db106ddAD",
      "value": {
        "_hex": "0x11e3ab8395c6e80000"
      },
      "nonce": 993,
      "data": "0x",
      "r": "0x5fb5a5a16a64bea854f2006d026162422ba0855bb116775471104eb5e4bc8306",
      "s": "0x00a2f7a0373f2ecf30b5edfddf325e720bc20cbc2e5f5eac721bbf2d4a982352",
      "v": 27,
      "creates": null,
      "raw": "0xf86f8203e1850ba43b74008303d0909496aa9d72b4606b440ef85352439aec5db106ddad8911e3ab8395c6e80000801ba05fb5a5a16a64bea854f2006d026162422ba0855bb116775471104eb5e4bc83069fa2f7a0373f2ecf30b5edfddf325e720bc20cbc2e5f5eac721bbf2d4a982352",
      "networkId": 0,
      "chainId": 0
    },
    {
      "hash": "0x15a601d2b279d24ac2329ad81145720d350059a9de9abcfd70d88b65e766022b",
      "blockHash": "0xb7c2b79a2cd4e5eb8d5acd0a2d75e6660420e3437de05f336407f149c3914079",
      "blockNumber": 122279,
      "transactionIndex": 2,
      "confirmations": null,
      "from": "0xD007C3Ce0bFCFE50559e15a3737C236f8Fa15BbE",
      "gasPrice": {
        "_hex": "0xba43b7400"
      },
      "gasLimit": {
        "_hex": "0xf4240"
      },
      "to": null,
      "value": {
        "_hex": "0x0"
      },
      "nonce": 12,
      "data": "0x60606040525b5b33600060006101000a81548173ffffffffffffffffffffffffffffffffffffffff021916908302179055505b33600160006101000a81548173ffffffffffffffffffffffffffffffffffffffff021916908302179055505b6102a88061006d6000396000f30060606040526000357c01000000000000000000000000000000000000000000000000000000009004806309e2d1a61461005a57806341c0e1b51461007b578063884bf67c14610088578063bcaec98a146100a957610058565b005b610065600450610288565b6040518082815260200191505060405180910390f35b610086600450610104565b005b610093600450610298565b6040518082815260200191505060405180910390f35b610102600480359060200190600401803590602001919190808060200260200160405190810160405280939291908181526020018383602002808284378201915050505050509080359060200180359060200150610198565b005b600060009054906101000a900473ffffffffffffffffffffffffffffffffffffffff1673ffffffffffffffffffffffffffffffffffffffff163373ffffffffffffffffffffffffffffffffffffffff16141561019557600060009054906101000a900473ffffffffffffffffffffffffffffffffffffffff1673ffffffffffffffffffffffffffffffffffffffff16ff5b5b565b6040604051908101604052803381526020013481526020015060056000506000600460005054815260200190815260200160002060005060008201518160000160006101000a81548173ffffffffffffffffffffffffffffffffffffffff02191690830217905550602082015181600101600050559050506001600460005054016004600050819055508160026000505401600260005081905550823373ffffffffffffffffffffffffffffffffffffffff167f838c8ba398b7651cb11f25aa091c7cc0659a3b156d65c358d08f1d9019f354ea846040518082815260200191505060405180910390a35b505050565b6000600460005054905080505b90565b6000600260005054905080505b9056",
      "r": "0xa063ba2f09b4f9f0ff65daaca1a30c95376296612a5b7f46ff42bd0430d4cb8e",
      "s": "0x339cce8e2fc72f25794e577de206e9ef6eaf212f3d20fa2d9366b97ced2ed2ad",
      "v": 28,
      "creates": "0x0360977F2A812174149Db52a89448Bc85629D3bD",
      "raw": "0xf903680c850ba43b7400830f42408080b9031560606040525b5b33600060006101000a81548173ffffffffffffffffffffffffffffffffffffffff021916908302179055505b33600160006101000a81548173ffffffffffffffffffffffffffffffffffffffff021916908302179055505b6102a88061006d6000396000f30060606040526000357c01000000000000000000000000000000000000000000000000000000009004806309e2d1a61461005a57806341c0e1b51461007b578063884bf67c14610088578063bcaec98a146100a957610058565b005b610065600450610288565b6040518082815260200191505060405180910390f35b610086600450610104565b005b610093600450610298565b6040518082815260200191505060405180910390f35b610102600480359060200190600401803590602001919190808060200260200160405190810160405280939291908181526020018383602002808284378201915050505050509080359060200180359060200150610198565b005b600060009054906101000a900473ffffffffffffffffffffffffffffffffffffffff1673ffffffffffffffffffffffffffffffffffffffff163373ffffffffffffffffffffffffffffffffffffffff16141561019557600060009054906101000a900473ffffffffffffffffffffffffffffffffffffffff1673ffffffffffffffffffffffffffffffffffffffff16ff5b5b565b6040604051908101604052803381526020013481526020015060056000506000600460005054815260200190815260200160002060005060008201518160000160006101000a81548173ffffffffffffffffffffffffffffffffffffffff02191690830217905550602082015181600101600050559050506001600460005054016004600050819055508160026000505401600260005081905550823373ffffffffffffffffffffffffffffffffffffffff167f838c8ba398b7651cb11f25aa091c7cc0659a3b156d65c358d08f1d9019f354ea846040518082815260200191505060405180910390a35b505050565b6000600460005054905080505b90565b6000600260005054905080505b90561ca0a063ba2f09b4f9f0ff65daaca1a30c95376296612a5b7f46ff42bd0430d4cb8ea0339cce8e2fc72f25794e577de206e9ef6eaf212f3d20fa2d9366b97ced2ed2ad",
      "networkId": 0,
      "chainId": 0
    }
  ]
}