{
  "hash": "0x1c767e62f89286bf48c7478ca58b040f058f8ca81593a7f10e705eb48c6233a1",
  "parentHash": "0x2eae1125403110cc5932fb10af546855b7e239938e4346854ac8455f884b85a5",
  "number": 105164,
  "timestamp": 1439882899,
  "nonce": "0x70f803b6bdc68e9c",
  "difficulty": 4308355394517,
  "gasLimit": {
    "_hex": "0x2fefd8"
  },
  "gasUsed": {
    "_hex": "0x5208"
  },
  "miner": "0x9D49F602b0fdb924Bd63DDE2Bd0907E4A07c63a7",
  "extraData": "0x476574682f76312e302e312f6c696e75782f676f312e342e32",
  "transactions": [
    {
      "hash": "0x21bff7f90efc49a6c2ca67f9ac39770fa05417ded72caac481bef48d096bdc09",
      "blockHash": "0x1c767e62f89286bf48c7478ca58b040f058f8ca81593a7f10e705eb48c6233a1",
      "blockNumber": 105164,
      "transactionIndex": 0,
      "confirmations": null,
      "from": "0x007f7f58D3eb5b7510A301eCC749FC1fCDDBE14D",
      "gasPrice": {
        "_hex": "0xde90f59a8"
      },
      "gasLimit": {
        "_hex": "0x15f90"
      },
      "to": "0xb1abce2918E21ddb93AA452731a12672A3d9F75a",
      "value": {
        "_hex": "0x4563918244f40000"
      },
      "nonce": 246,
      "data": "0x",
      "r": "0x9b885f4ad5a593e74ccbf9ca71e76917f02c4c7caff64987c14336f685a1909a",
      "s": "0x57b50a85e7f8fd55ef6204c7bd50b95a02daee983773f60b85f67f1b3d1a8dce",
      "v": 27,
      "creates": null,
      "raw": "0xf86e81f6850de90f59a883015f9094b1abce2918e21ddb93aa452731a12672a3d9f75a884563918244f40000801ba09b885f4ad5a593e74ccbf9ca71e76917f02c4c7caff64987c14336f685a1909aa057b50a85e7f8fd55ef6204c7bd50b95a02daee983773f60b85f67f1b3d1a8dce",
      "networkId": 0,
      "chainId": 0
    }
  ]
}