{
  "hash": "0x5c9783243e66dac44707eb824a1304f91d646ba3528af44a585039ad7e7971d3",
  "parentHash": "0xc939c87b95ce811746a5578a3d7b996836c9cd119e157fc85a9a4cfce388e383",
  "number": 83861,
  "timestamp": 1439541908,
  "nonce": "0xf9a5132d7de699aa",
  "difficulty": 2452671293726,
  "gasLimit": {
    "_hex": "0x2fefd8"
  },
  "gasUsed": {
    "_hex": "0xa410"
  },
  "miner": "0x9746c7e1ef2bd21FF3997fa467593a89cb852BD0",
  "extraData": "0x476574682f76312e302e312f77696e646f77732f676f312e342e32",
  "transactions": [
    {
      "hash": "0x56ef6e577d0f24ebd207269af4794c875290cbef4c1bf9936d1205eab6d8e3fd",
      "blockHash": "0x5c9783243e66dac44707eb824a1304f91d646ba3528af44a585039ad7e7971d3",
      "blockNumber": 83861,
      "transactionIndex": 0,
      "confirmations": null,
      "from": "0xcd0Af3474e22F069EC3407870DD770443d5b12B0",
      "gasPrice": {
        "_hex": "0xdaa755fdb"
      },
      "gasLimit": {
        "_hex": "0x7a120"
      },
      "to": "0x0bCa038BF4ACAd3Cbf73463EccC7717dDCDc3D83",
      "value": {
        "_hex": "0x56bc75e2d63100000"
      },
      "nonce": 5,
      "data": "0x",
      "r": "0xfbbaaa695006b7ed0bddb864035c3a435877bd6628b6dcd2b4d43b800b502490",
      "s": "0x21160f88702ceaa286e8c098ad6ec6bbd0a620f17953f8333632b73311d0d975",
      "v": 28,
      "creates": null,
      "raw": "0xf86e05850daa755fdb8307a120940bca038bf4acad3cbf73463eccc7717ddcdc3d8389056bc75e2d63100000801ca0fbbaaa695006b7ed0bddb864035c3a435877bd6628b6dcd2b4d43b800b502490a021160f88702ceaa286e8c098ad6ec6bbd0a620f17953f8333632b73311d0d975",
      "networkId": 0,
      "chainId": 0
    },
    {
      "hash": "0x38556e80cc32109afd7d20d1a3d5878f601e33e4b1d6b5d0aacf3c258ff5fd3e",
      "blockHash": "0x5c9783243e66dac44707eb824a1304f91d646ba3528af44a585039ad7e7971d3",
      "blockNumber": 83861,
      "transactionIndex": 1,
      "confirmations": null,
      "from": "0x2910543Af39abA0Cd09dBb2D50200b3E800A63D2",
      "gasPrice": {
        "_hex": "0xcd9b72cb5"
      },
      "gasLimit": {
        "_hex": "0x5208"
      },
      "to": "0xdb49193CE6f62833b2080DC8759acB57d519967F",
      "value": {
        "_hex": "0xad77cf8e18e3f8000"
      },
      "nonce": 535,
      "data": "0x",
      "r": "0x4d43e837b710606f4df21ffe0ef476950b5248fd82b13694d1cee5c593b8b60f",
      "s": "0x3239ab487f433efca2ae05e81a431bb7031b057c5d5a6b179946f111840ad3a7",
      "v": 27,
      "creates": null,
      "raw": "0xf86f820217850cd9b72cb582520894db49193ce6f62833b2080dc8759acb57d519967f890ad77cf8e18e3f8000801ba04d43e837b710606f4df21ffe0ef476950b5248fd82b13694d1cee5c593b8b60fa03239ab487f433efca2ae05e81a431bb7031b057c5d5a6b179946f111840ad3a7",
      "networkId": 0,
      "chainId": 0
    }
  ]
}