{
  "hash": "0x0a2023b9507660f6458a2f5cd978b34fcd8d489fdf50cfb32daf1dab6ce19b41",
  "parentHash": "0xcbaa9905375292632eb830b7bf44d4b71e8c0ea07bd1008220588dfd042d8d28",
  "number": 81245,
  "timestamp": 1439498439,
  "nonce": "0x23c7af4c55422e0d",
  "difficulty": 2458232833039,
  "gasLimit": {
    "_hex": "0x2fefd8"
  },
  "gasUsed": {
    "_hex": "0x5208"
  },
  "miner": "0xe6A7a1d47ff21B6321162AEA7C6CB457D5476Bca",
  "extraData": "0x476574682f76312e302e312d38326566323666362f6c696e75782f676f312e34",
  "transactions": [
    {
      "hash": "0xf16f13d68a19099ae3d551d12254931ce529b3ea5a7d5262cde138d5f93fbef7",
      "blockHash": "0x0a2023b9507660f6458a2f5cd978b34fcd8d489fdf50cfb32daf1dab6ce19b41",
      "blockNumber": 81245,
      "transactionIndex": 0,
      "confirmations": null,
      "from": "0xa91E1708ee25C1a6653EfE5ABb1A4Ba654285644",
      "gasPrice": {
        "_hex": "0x116f0bdd708"
      },
      "gasLimit": {
        "_hex": "0x5208"
      },
      "to": "0xAD063CE182014Fa78C3932981fE402a6Af48235B",
      "value": {
        "_hex": "0xf9ccd8a1c5080000"
      },
      "nonce": 0,
      "data": "0x",
      "r": "0xca4596a24438bfbea9cfb311092e858b87e5b35ae913466b20a11f788085f31e",
      "s": "0x7a237357fde373ed2100ea153250ff05938585b05bc9628fee829d12e14174ed",
      "v": 27,
      "creates": null,
      "raw": "0xf86d80860116f0bdd70882520894ad063ce182014fa78c3932981fe402a6af48235b88f9ccd8a1c5080000801ba0ca4596a24438bfbea9cfb311092e858b87e5b35ae913466b20a11f788085f31ea07a237357fde373ed2100ea153250ff05938585b05bc9628fee829d12e14174ed",
      "networkId": 0,
      "chainId": 0
    }
  ]
}