{
  "hash": "0x343f8d17e17c5fe5d402940c6d2d858dbdfa16df84ee36f7e5497911f649d650",
  "parentHash": "0x8bc4b13c52cbaa254a2719fa5aeb37db80fd77181d6be744b5b571942d1109a4",
  "number": 109304,
  "timestamp": 1439954437,
  "nonce": "0x12f798cf74210b01",
  "difficulty": 4442924044510,
  "gasLimit": {
    "_hex": "0x2fefd8"
  },
  "gasUsed": {
    "_hex": "0x5208"
  },
  "miner": "0x52bc44d5378309EE2abF1539BF71dE1b7d7bE3b5",
  "extraData": "0x476574682f76312e302e312d63303261396266632f6c696e75782f676f312e34",
  "transactions": [
    {
      "hash": "0x5965ae3defd6c10d6b2b172edce182c90392b3cb57d5dea1d73c3eece7c1df23",
      "blockHash": "0x343f8d17e17c5fe5d402940c6d2d858dbdfa16df84ee36f7e5497911f649d650",
      "blockNumber": 109304,
      "transactionIndex": 0,
      "confirmations": null,
      "from": "0x7e8504a5e26df87f6D26fA1ba148BE146F42775A",
      "gasPrice": {
        "_hex": "0xcb9dd0233"
      },
      "gasLimit": {
        "_hex": "0x15f90"
      },
      "to": "0x9f78552704fe7e52cC7C3853534aA2C3cf580D54",
      "value": {
        "_hex": "0x62e115c008a880000"
      },
      "nonce": 4,
      "data": "0x",
      "r": "0xf07fa1eefbbabfdfd11d2935953ef2e620f70388da6d0074358eada69b8fab3f",
      "s": "0x2709f3ddfd197b5d38968d338081bfe934dd054d76d2c0c4ddfab1ea85e11f13",
      "v": 28,
      "creates": null,
      "raw": "0xf86e04850cb9dd023383015f90949f78552704fe7e52cc7c3853534aa2c3cf580d5489062e115c008a880000801ca0f07fa1eefbbabfdfd11d2935953ef2e620f70388da6d0074358eada69b8fab3fa02709f3ddfd197b5d38968d338081bfe934dd054d76d2c0c4ddfab1ea85e11f13",
      "networkId": 0,
      "chainId": 0
    }
  ]
}