{
  "hash": "0x19ce207b7722a89176f17185153293d12b6674522cf44a58bd2edf2f6eb9d7f1",
  "parentHash": "0x795a98b0054993ff6ba131602af690ffa0a3b51a03bb630cb0a847943c201047",
  "number": 60703,
  "timestamp": 1439160221,
  "nonce": "0x6b1f15acd88252b3",
  "difficulty": 1730440284530,
  "gasLimit": {
    "_hex": "0x2fefd5"
  },
  "gasUsed": {
    "_hex": "0x5208"
  },
  "miner": "0xdd2F1e6e498202e86D8f5442Af596580A4f03c2C",
  "extraData": "0x476574682f76312e302e312d38326566323666362f6c696e75782f676f312e34",
  "transactions": [
    {
      "hash": "0x1cf8ec368953befb739129b947c58d2f07d51b841cc79ea35398b7a5fd7ac3f4",
      "blockHash": "0x19ce207b7722a89176f17185153293d12b6674522cf44a58bd2edf2f6eb9d7f1",
      "blockNumber": 60703,
      "transactionIndex": 0,
      "confirmations": null,
      "from": "0x0193d941b50d91BE6567c7eE1C0Fe7AF498b4137",
      "gasPrice": {
        "_hex": "0xce8ebe06d"
      },
      "gasLimit": {
        "_hex": "0x5208"
      },
      "to": "0xf48313D6892f75dCb41dFdf48901C9cb9B146ac8",
      "value": {
        "_hex": "0x579a814e10a740000"
      },
      "nonce": 0,
      "data": "0x",
      "r": "0x0005f09fdd3bff39c3c71e679c3e6c1b9c62a673a48d333943c82b897fdd14ec",
      "s": "0x2e57bd85f105428a386a6053c9abc912dc226e135876c8d5b0832996ae642489",
      "v": 27,
      "creates": null,
      "raw": "0xf86c80850ce8ebe06d82520894f48313d6892f75dcb41dfdf48901c9cb9b146ac8890579a814e10a740000801b9f05f09fdd3bff39c3c71e679c3e6c1b9c62a673a48d333943c82b897fdd14eca02e57bd85f105428a386a6053c9abc912dc226e135876c8d5b0832996ae642489",
      "networkId": 0,
      "chainId": 0
    }
  ]
}