{
  "hash": "0x7a109863d8faa01a06e3c0277082a860a903e02395db29d9adf7df16ec860b31",
  "parentHash": "0xdb3bb858f2c38ce6ec42cc88bbb87e0afe5e303bcb2c47ae1a9ce896648bdb0d",
  "number": 91978,
  "timestamp": 1439664778,
  "nonce": "0x547567143e0ffd30",
  "difficulty": 3480877367705,
  "gasLimit": {
    "_hex": "0x2fefd8"
  },
  "gasUsed": {
    "_hex": "0x5208"
  },
  "miner": "0xe6A7a1d47ff21B6321162AEA7C6CB457D5476Bca",
  "extraData": "0x476574682f76312e302e312d38326566323666362f6c696e75782f676f312e34",
  "transactions": [
    {
      "hash": "0xa53e58345668d1e3dce16639f2cf47bc2df46c1ecff01a49e0a0e8b2509eba7c",
      "blockHash": "0x7a109863d8faa01a06e3c0277082a860a903e02395db29d9adf7df16ec860b31",
      "blockNumber": 91978,
      "transactionIndex": 0,
      "confirmations": null,
      "from": "0xa70a9a7040d542C632D8e0bE7c5513A8a5Bbc752",
      "gasPrice": {
        "_hex": "0xd262f7023"
      },
      "gasLimit": {
        "_hex": "0x5208"
      },
      "to": "0x32Be343B94f860124dC4fEe278FDCBD38C102D88",
      "value": {
        "_hex": "0x455f5addc857a800"
      },
      "nonce": 123,
      "data": "0x",
      "r": "0xc6032700f3993056d19b0373f5002d41fe86ea2f1150f609286b12d4cf26cc8e",
      "s": "0x690dd5bd5dd09f87815f45d401d0ea10cda0629dbee7fab7e9565f1188594104",
      "v": 27,
      "creates": null,
      "raw": "0xf86c7b850d262f70238252089432be343b94f860124dc4fee278fdcbd38c102d8888455f5addc857a800801ba0c6032700f3993056d19b0373f5002d41fe86ea2f1150f609286b12d4cf26cc8ea0690dd5bd5dd09f87815f45d401d0ea10cda0629dbee7fab7e9565f1188594104",
      "networkId": 0,
      "chainId": 0
    }
  ]
}