{
  "hash": "0x42747afa209546d2526f663d3a01768e98f0e5838b99edd7f95dd43529df791e",
  "parentHash": "0x120b8df6f59660ddfcbd5f6427d40a808729e6bb0337c0b85990000fa1144445",
  "number": 106685,
  "timestamp": 1439908721,
  "nonce": "0x7c37a2e521f0e160",
  "difficulty": 4446481986650,
  "gasLimit": {
    "_hex": "0x2fefd5"
  },
  "gasUsed": {
    "_hex": "0x5208"
  },
  "miner": "0xEF247E639d49461D25F57e9362CadE3120910Ce0",
  "extraData": "0x476574682f76312e302e312f6c696e75782f676f312e342e32",
  "transactions": [
    {
      "hash": "0x448a6f2266c3a8124833d84b878916d6b32c92bb19a8b6b5904fb786757eeadd",
      "blockHash": "0x42747afa209546d2526f663d3a01768e98f0e5838b99edd7f95dd43529df791e",
      "blockNumber": 106685,
      "transactionIndex": 0,
      "confirmations": null,
      "from": "0xB1A4B41b8e75a153841c99c62d18588d45e7b406",
      "gasPrice": {
        "_hex": "0xe1954e98b"
      },
      "gasLimit": {
        "_hex": "0x15f90"
      },
      "to": "0x9d0D51Aa42b97151aaCa5876a743172C8c04f09E",
      "value": {
        "_hex": "0x2b5e3af16b1880000"
      },
      "nonce": 9,
      "data": "0x",
      "r": "0xc1f78526d9222bfc857c362cbef17f293edf54b2f0bcdeadb36c613941476326",
      "s": "0x14d2f91bd5a4198485f6c2f5ea56c7a7ea81451fb7a4c92f0f199124e54431a1",
      "v": 27,
      "creates": null,
      "raw": "0xf86e09850e1954e98b83015f90949d0d51aa42b97151aaca5876a743172c8c04f09e8902b5e3af16b1880000801ba0c1f78526d9222bfc857c362cbef17f293edf54b2f0bcdeadb36c613941476326a014d2f91bd5a4198485f6c2f5ea56c7a7ea81451fb7a4c92f0f199124e54431a1",
      "networkId": 0,
      "chainId": 0
    }
  ]
}