{
  "hash": "0x094e171135e452428897957c303bd9466efb0d349e2ab826d5600f6302cb9e05",
  "parentHash": "0x998644724c227aac8292e7137aa3704540dfbe11ce473dfe0b407435eeb68779",
  "number": 117213,
  "timestamp": 1440105422,
  "nonce": "0x7a8752bdd9a018ee",
  "difficulty": 4325341053511,
  "gasLimit": {
    "_hex": "0x2fefd8"
  },
  "gasUsed": {
    "_hex": "0x5208"
  },
  "miner": "0x35e8e5dC5FBd97c5b421A80B596C030a2Be2A04D",
  "extraData": "0x",
  "transactions": [
    {
      "hash": "0xb02b90282070c1a204896f95d3fcb2e83000c336c0abd5f3197b4329e0b66503",
      "blockHash": "0x094e171135e452428897957c303bd9466efb0d349e2ab826d5600f6302cb9e05",
      "blockNumber": 117213,
      "transactionIndex": 0,
      "confirmations": null,
      "from": "0x007f7f58D3eb5b7510A301eCC749FC1fCDDBE14D",
      "gasPrice": {
        "_hex": "0xba43b7400"
      },
      "gasLimit": {
        "_hex": "0x15f90"
      },
      "to": "0xb1abce2918E21ddb93AA452731a12672A3d9F75a",
      "value": {
        "_hex": "0x4563918244f40000"
      },
      "nonce": 319,
      "data": "0x",
      "r": "0x1c91cda9888cd5fc38e2fd4600dc34a77f70b082cfa889786c905a5195d34bca",
      "s": "0x3639aaa1e63c3f8d9523491a45566fe50a950c0ec836ae6d427b70fac7ef4b74",
      "v": 27,
      "creates": null,
      "raw": "0xf86f82013f850ba43b740083015f9094b1abce2918e21ddb93aa452731a12672a3d9f75a884563918244f40000801ba01c91cda9888cd5fc38e2fd4600dc34a77f70b082cfa889786c905a5195d34bcaa03639aaa1e63c3f8d9523491a45566fe50a950c0ec836ae6d427b70fac7ef4b74",
      "networkId": 0,
      "chainId": 0
    }
  ]
}