{
  "hash": "0xd453f15dc434769046e4848fc728ee30d2014578c88854950bfe3938520b221a",
  "parentHash": "0x44b8fcc906f27f1c97769f04d3c00afd4482d7953e364f6263df8111ed548ba4",
  "number": 121147,
  "timestamp": 1440172266,
  "nonce": "0xc378bd08dd0e6ac9",
  "difficulty": 4404279637748,
  "gasLimit": {
    "_hex": "0x2fefd8"
  },
  "gasUsed": {
    "_hex": "0x47c70"
  },
  "miner": "0x9D551f41feD6FC27B719777c224DfeCcE170004d",
  "extraData": "0x476574682f76312e302e322d61303330336666342f6c696e75782f676f312e34",
  "transactions": [
    {
      "hash": "0xb9c9e83a2dc369885bbcebfa70fe2eb652bfde8497441cc3ea590fc6b82f65df",
      "blockHash": "0xd453f15dc434769046e4848fc728ee30d2014578c88854950bfe3938520b221a",
      "blockNumber": 121147,
      "transactionIndex": 0,
      "confirmations": null,
      "from": "0xF1f28071e62F32e245B54A4e88975c1eecEce681",
      "gasPrice": {
        "_hex": "0xba43b7400"
      },
      "gasLimit": {
        "_hex": "0x5208"
      },
      "to": "0xC47Aaa860008be6f65B58c6C6E02a84e666EfE31",
      "value": {
        "_hex": "0x4eafa6296196170"
      },
      "nonce": 0,
      "data": "0x",
      "r": "0x198406bdb9c55e55b2e94b5b0351d029c3bf0dfcb4666abf0e5892f103b298a9",
      "s": "0x43ab3ad32f94cc0f96d0b4346df94f9fd5ef3b8180f8403c36f28dba96e395ea",
      "v": 27,
      "creates": null,
      "raw": "0xf86c80850ba43b740082520894c47aaa860008be6f65b58c6c6e02a84e666efe318804eafa6296196170801ba0198406bdb9c55e55b2e94b5b0351d029c3bf0dfcb4666abf0e5892f103b298a9a043ab3ad32f94cc0f96d0b4346df94f9fd5ef3b8180f8403c36f28dba96e395ea",
      "networkId": 0,
      "chainId": 0
    },
    {
      "hash": "0xf1afbc5542febc5da4e2b80961196e31aac6c1f784604df2af24c2c3f28ff92a",
      "blockHash": "0xd453f15dc434769046e4848fc728ee30d2014578c88854950bfe3938520b221a",
      "blockNumber": 121147,
      "transactionIndex": 1,
      "confirmations": null,
      "from": "0x8Da49A9554B48f282215711581D6500B3045020F",
      "gasPrice": {
        "_hex": "0xba43b7400"
      },
      "gasLimit": {
        "_hex": "0x5208"
      },
      "to": "0xC47Aaa860008be6f65B58c6C6E02a84e666EfE31",
      "value": {
        "_hex": "0xb610d321db3f600"
      },
      "nonce": 1,
      "data": "0x",
      "r": "0xea2447d05f6574e5e55dfc977a71f6b911f3e9430f735fb071763c774f4ef334",
      "s": "0x441190196ec98e9e9a2b75a577e473351fd3f6cbfe05a7162d0a0847613c91c7",
      "v": 28,
      "creates": null,
      "raw": "0xf86c01850ba43b740082520894c47aaa860008be6f65b58c6c6e02a84e666efe31880b610d321db3f600801ca0ea2447d05f6574e5e55dfc977a71f6b911f3e9430f735fb071763c774f4ef334a0441190196ec98e9e9a2b75a577e473351fd3f6cbfe05a7162d0a0847613c91c7",
      "networkId": 0,
      "chainId": 0
    },
    {
      "hash": "0xc29d61cf4d4e9b38d071529bf8195f899311eb505f1e00adba4a330e7e6775af",
      "blockHash": "0xd453f15dc434769046e4848fc728ee30d2014578c88854950bfe3938520b221a",
      "blockNumber": 121147,
      "transactionIndex": 2,
      "confirmations": null,
      "from": "0x1332996a46dcBBE02f9cF164Dfc153aB976a9766",
      "gasPrice": {
        "_hex": "0xba43b7400"
      },
      "gasLimit": {
        "_hex": "0x5208"
      },
      "to": "0xC47Aaa860008be6f65B58c6C6E02a84e666EfE31",
      "value": {
        "_hex": "0xa496563b60eca2c0"
      },
      "nonce": 15,
      "data": "0x",
      "r": "0xe8647d883fd599e84a7907655ccced6d4131dc19d62ae1bc3e6c3ac258dfc3c6",
      "s": "0x33558b964b096d4417e8222731538e34ca1d3cff65f737b2522b5da8d4b2d104",
      "v": 27,
      "creates": null,
      "raw": "0xf86c0f850ba43b740082520894c47aaa860008be6f65b58c6c6e02a84e666efe3188a496563b60eca2c0801ba0e8647d883fd599e84a7907655ccced6d4131dc19d62ae1bc3e6c3ac258dfc3c6a033558b964b096d4417e8222731538e34ca1d3cff65f737b2522b5da8d4b2d104",
      "networkId": 0,
      "chainId": 0
    },
    {
      "hash": "0x18e0a6701995cfa42a0a3339a265874183e1a9b246bc30bfa669ae322764a34d",
      "blockHash": "0xd453f15dc434769046e4848fc728ee30d2014578c88854950bfe3938520b221a",
      "blockNumber": 121147,
      "transactionIndex": 3,
      "confirmations": null,
      "from": "0xc9450a30B259ebB8631b9bC49c64dBAeC472D6Af",
      "gasPrice": {
        "_hex": "0xba43b7400"
      },
      "gasLimit": {
        "_hex": "0x5208"
      },
      "to": "0xC47Aaa860008be6f65B58c6C6E02a84e666EfE31",
      "value": {
        "_hex": "0x1ba9c3193613a150"
      },
      "nonce": 7,
      "data": "0x",
      "r": "0x817f2afd5e6c01c7ba3ebaae9b5b8ffdc618d6c24e6e4fcc1edb18269957e513",
      "s": "0x0fb2ac3fde4c298eafa514c29eb492f8f33dcd560d3d9d04792fb01a9c9ed4c9",
      "v": 28,
      "creates": null,
      "raw": "0xf86c07850ba43b740082520894c47aaa860008be6f65b58c6c6e02a84e666efe31881ba9c3193613a150801ca0817f2afd5e6c01c7ba3ebaae9b5b8ffdc618d6c24e6e4fcc1edb18269957e513a00fb2ac3fde4c298eafa514c29eb492f8f33dcd560d3d9d04792fb01a9c9ed4c9",
      "networkId": 0,
      "chainId": 0
    },
    {
      "hash": "0x7b5fc859d7dcd74b1cd1e25d74feb5f501807c8fb99fcafa4417b55e1b9ca96a",
      "blockHash": "0xd453f15dc434769046e4848fc728ee30d2014578c88854950bfe3938520b221a",
      "blockNumber": 121147,
      "transactionIndex": 4,
      "confirmations": null,
      "from": "0xC96Bd2Aa7AcB234ecA4E38E33bF2C080e7680FA5",
      "gasPrice": {
        "_hex": "0xba43b7400"
      },
      "gasLimit": {
        "_hex": "0x5208"
      },
      "to": "0xC47Aaa860008be6f65B58c6C6E02a84e666EfE31",
      "value": {
        "_hex": "0x64bec80e6abb10c0"
      },
      "nonce": 8,
      "data": "0x",
      "r": "0xa764d6dfe5ccb135e4c8b1fa2e23b06ea87bfbc345cf0da94a9b83ce1196114b",
      "s": "0x523c9149279bdd6b0e0caebb6ff6d5160906ae649ad750fe3d4da1887e4cd829",
      "v": 28,
      "creates": null,
      "raw": "0xf86c08850ba43b740082520894c47aaa860008be6f65b58c6c6e02a84e666efe318864bec80e6abb10c0801ca0a764d6dfe5ccb135e4c8b1fa2e23b06ea87bfbc345cf0da94a9b83ce1196114ba0523c9149279bdd6b0e0caebb6ff6d5160906ae649ad750fe3d4da1887e4cd829",
      "networkId": 0,
      "chainId": 0
    },
    {
      "hash": "0x2997baad9b499a36acd953bd9c52947439537ba03c736cd620614bc4830079c6",
      "blockHash": "0xd453f15dc434769046e4848fc728ee30d2014578c88854950bfe3938520b221a",
      "blockNumber": 121147,
      "transactionIndex": 5,
      "confirmations": null,
      "from": "0x8132d5ae06e2b76cbF52673A79AA2766b0Ad8437",
      "gasPrice": {
        "_hex": "0xba43b7400"
      },
      "gasLimit": {
        "_hex": "0x5208"
      },
      "to": "0xC47Aaa860008be6f65B58c6C6E02a84e666EfE31",
      "value": {
        "_hex": "0xd73adbdae54b6000"
      },
      "nonce": 2,
      "data": "0x",
      "r": "0x95b12718586069d114113f7e381a93d6a7928c8d049663527aecee7889f484e5",
      "s": "0x0df9a83347ff99c77ddaab89ce012cc507f2562ccbbbe06d94670baf8a90c671",
      "v": 27,
      "creates": null,
      "raw": "0xf86c02850ba43b740082520894c47aaa860008be6f65b58c6c6e02a84e666efe3188d73adbdae54b6000801ba095b12718586069d114113f7e381a93d6a7928c8d049663527aecee7889f484e5a00df9a83347ff99c77ddaab89ce012cc507f2562ccbbbe06d94670baf8a90c671",
      "networkId": 0,
      "chainId": 0
    },
    {
      "hash": "0x0acc32738569320a03aa7336fe3ea1f4fe30b11004d17cf57e951262b749f91b",
      "blockHash": "0xd453f15dc434769046e4848fc728ee30d2014578c88854950bfe3938520b221a",
      "blockNumber": 121147,
      "transactionIndex": 6,
      "confirmations": null,
      "from": "0x63d25FB5edc318Aae1DEc4F3aBd7c645f921cff8",
      "gasPrice": {
        "_hex": "0xba43b7400"
      },
      "gasLimit": {
        "_hex": "0x5208"
      },
      "to": "0xC47Aaa860008be6f65B58c6C6E02a84e666EfE31",
      "value": {
        "_hex": "0x24deb70ef21970b0"
      },
      "nonce": 9,
      "data": "0x",
      "r": "0x3b6729c7235b196ba03d53347d36fb1cc82c64e4ed115021c74de8a03b444369",
      "s": "0x2f3b7a3f36444c0d295dea94fe9d1813417500c9289706b54f5a3931fb480d46",
      "v": 27,
      "creates": null,
      "raw": "0xf86c09850ba43b740082520894c47aaa860008be6f65b58c6c6e02a84e666efe318824deb70ef21970b0801ba03b6729c7235b196ba03d53347d36fb1cc82c64e4ed115021c74de8a03b444369a02f3b7a3f36444c0d295dea94fe9d1813417500c9289706b54f5a3931fb480d46",
      "networkId": 0,
      "chainId": 0
    },
    {
      "hash": "0x0b2c3131454151cc3795861bd4cbe7123580ab22a6e39ce295930e38a9ad6fb3",
      "blockHash": "0xd453f15dc434769046e4848fc728ee30d2014578c88854950bfe3938520b221a",
      "blockNumber": 121147,
      "transactionIndex": 7,
      "confirmations": null,
      "from": "0xc9f1625E65Cda7A2aE5ea1EdF0107872A1baAC99",
      "gasPrice": {
        "_hex": "0xba43b7400"
      },
      "gasLimit": {
        "_hex": "0x5208"
      },
      "to": "0xC47Aaa860008be6f65B58c6C6E02a84e666EfE31",
      "value": {
        "_hex": "0x6b26e4b827262220"
      },
      "nonce": 4,
      "data": "0x",
      "r": "0x5ac229515d09d810750003c1272f35e11392abde26cdcf78950bffea0a56580b",
      "s": "0x5c1c14418247cbb0bd145fa04ee0458dbe4ba445e08e46096f8e07d9e559ac98",
      "v": 27,
      "creates": null,
      "raw": "0xf86c04850ba43b740082520894c47aaa860008be6f65b58c6c6e02a84e666efe31886b26e4b827262220801ba05ac229515d09d810750003c1272f35e11392abde26cdcf78950bffea0a56580ba05c1c14418247cbb0bd145fa04ee0458dbe4ba445e08e46096f8e07d9e559ac98",
      "networkId": 0,
      "chainId": 0
    },
    {
      "hash": "0xf740ee89da1094c7fefc4e66e5ec995422945a4840838ebf7afbac38175e72a1",
      "blockHash": "0xd453f15dc434769046e4848fc728ee30d2014578c88854950bfe3938520b221a",
      "blockNumber": 121147,
      "transactionIndex": 8,
      "confirmations": null,
      "from": "0x07Ccb8e7Bc2978ec58e7a633c6894f460883a510",
      "gasPrice": {
        "_hex": "0xba43b7400"
      },
      "gasLimit": {
        "_hex": "0x5208"
      },
      "to": "0xC47Aaa860008be6f65B58c6C6E02a84e666EfE31",
      "value": {
        "_hex": "0x110fec4ddc0a87ff0"
      },
      "nonce": 4,
      "data": "0x",
      "r": "0x7b94e4c6bee35ec90b67151e647da215485f39a5991234c6c39dae8d554eb95b",
      "s": "0x4b348cb01d5c25ce3dda2304a65453ac748d898b3e72c0259eb84a480217c961",
      "v": 27,
      "creates": null,
      "raw": "0xf86d04850ba43b740082520894c47aaa860008be6f65b58c6c6e02a84e666efe31890110fec4ddc0a87ff0801ba07b94e4c6bee35ec90b67151e647da215485f39a5991234c6c39dae8d554eb95ba04b348cb01d5c25ce3dda2304a65453ac748d898b3e72c0259eb84a480217c961",
      "networkId": 0,
      "chainId": 0
    },
    {
      "hash": "0xc40e8d95f57bf0f6cd1290434a2de94d6a901e0535ffa23b871295ad59786954",
      "blockHash": "0xd453f15dc434769046e4848fc728ee30d2014578c88854950bfe3938520b221a",
      "blockNumber": 121147,
      "transactionIndex": 9,
      "confirmations": null,
      "from": "0xda4018EC8389397D5137De84129c185b705Cfc5C",
      "gasPrice": {
        "_hex": "0xba43b7400"
      },
      "gasLimit": {
        "_hex": "0x5208"
      },
      "to": "0xC47Aaa860008be6f65B58c6C6E02a84e666EfE31",
      "value": {
        "_hex": "0xd026f98ea1d86000"
      },
      "nonce": 3,
      "data": "0x",
      "r": "0x8f606f8894dc2a0a3ec158798372833c95f515c4ea7d568bf4b34c14528f634c",
      "s": "0x55fc04e35fcc9191f8fbc2d7a63ec50cbaf98763b497c73bad6567dd722f6f09",
      "v": 27,
      "creates": null,
      "raw": "0xf86c03850ba43b740082520894c47aaa860008be6f65b58c6c6e02a84e666efe3188d026f98ea1d86000801ba08f606f8894dc2a0a3ec158798372833c95f515c4ea7d568bf4b34c14528f634ca055fc04e35fcc9191f8fbc2d7a63ec50cbaf98763b497c73bad6567dd722f6f09",
      "networkId": 0,
      "chainId": 0
    },
    {
      "hash": "0x319507d0bda42e22efb72d78eb3239d2a102422ff77947f16ae41a50defc07b9",
      "blockHash": "0xd453f15dc434769046e4848fc728ee30d2014578c88854950bfe3938520b221a",
      "blockNumber": 121147,
      "transactionIndex": 10,
      "confirmations": null,
      "from": "0x6Ca7109e3020A822bc419d4F8d35F6b929398407",
      "gasPrice": {
        "_hex": "0xba43b7400"
      },
      "gasLimit": {
        "_hex": "0x5208"
      },
      "to": "0xC47Aaa860008be6f65B58c6C6E02a84e666EfE31",
      "value": {
        "_hex": "0x1d63f7a599db3690"
      },
      "nonce": 8,
      "data": "0x",
      "r": "0x0baf3b22eb2ac85e54f7899f7a9ac09b04278fcdb09e11cff584c1ea462ba3e9",
      "s": "0x516f4fb1327ae661ca64e2034ca7e98b595c5760738a4399d926ccbc926fe041",
      "v": 28,
      "creates": null,
      "raw": "0xf86c08850ba43b740082520894c47aaa860008be6f65b58c6c6e02a84e666efe31881d63f7a599db3690801ca00baf3b22eb2ac85e54f7899f7a9ac09b04278fcdb09e11cff584c1ea462ba3e9a0516f4fb1327ae661ca64e2034ca7e98b595c5760738a4399d926ccbc926fe041",
      "networkId": 0,
      "chainId": 0
    },
    {
      "hash": "0x58e21beba78652fd8dad3eb9c75905a1283578641edc66a4ec1d8b2f1cca00a2",
      "blockHash": "0xd453f15dc434769046e4848fc728ee30d2014578c88854950bfe3938520b221a",
      "blockNumber": 121147,
      "transactionIndex": 11,
      "confirmations": null,
      "from": "0x0B17D5aA69F88b74E898c983f5427A3767a45b7A",
      "gasPrice": {
        "_hex": "0xba43b7400"
      },
      "gasLimit": {
        "_hex": "0x5208"
      },
      "to": "0xC47Aaa860008be6f65B58c6C6E02a84e666EfE31",
      "value": {
        "_hex": "0x33554f6d57ee38f0"
      },
      "nonce": 0,
      "data": "0x",
      "r": "0x8d733eac18b6aa5fd821a2cac43e15e59a0b52a3874ca9c707ff97f0bb1c8b48",
      "s": "0x08b741cd637a73510cab93457e5d8d832eb793bbaba824a951ec80527293186e",
      "v": 28,
      "creates": null,
      "raw": "0xf86c80850ba43b740082520894c47aaa860008be6f65b58c6c6e02a84e666efe318833554f6d57ee38f0801ca08d733eac18b6aa5fd821a2cac43e15e59a0b52a3874ca9c707ff97f0bb1c8b48a008b741cd637a73510cab93457e5d8d832eb793bbaba824a951ec80527293186e",
      "networkId": 0,
      "chainId": 0
    },
    {
      "hash": "0x84d85b0b9528cb6e8c4a1dbe6fd54b92e3cc62ae4890a5bd2715002ab1cd1e40",
      "blockHash": "0xd453f15dc434769046e4848fc728ee30d2014578c88854950bfe3938520b221a",
      "blockNumber": 121147,
      "transactionIndex": 12,
      "confirmations": null,
      "from": "0xcF9DD62019778E76a6B393f0ac4590f03A7429F7",
      "gasPrice": {
        "_hex": "0xba43b7400"
      },
      "gasLimit": {
        "_hex": "0x5208"
      },
      "to": "0xC47Aaa860008be6f65B58c6C6E02a84e666EfE31",
      "value": {
        "_hex": "0x3999045d5a319050"
      },
      "nonce": 9,
      "data": "0x",
      "r": "0xd5d03de9eaf53223912b1d56d9356d869cc9c6dc606c54a7240c9c5b8f66902c",
      "s": "0x720bb9d74340eaaca7fb517be70ee0e759bd838d9251c6cc00c7f3952a07d3d2",
      "v": 28,
      "creates": null,
      "raw": "0xf86c09850ba43b740082520894c47aaa860008be6f65b58c6c6e02a84e666efe31883999045d5a319050801ca0d5d03de9eaf53223912b1d56d9356d869cc9c6dc606c54a7240c9c5b8f66902ca0720bb9d74340eaaca7fb517be70ee0e759bd838d9251c6cc00c7f3952a07d3d2",
      "networkId": 0,
      "chainId": 0
    },
    {
      "hash": "0xa664a627d2e0021c159194860eb7536b8a3e733957bc20cf11fc867d51aec12f",
      "blockHash": "0xd453f15dc434769046e4848fc728ee30d2014578c88854950bfe3938520b221a",
      "blockNumber": 121147,
      "transactionIndex": 13,
      "confirmations": null,
      "from": "0xf3674DBDf2E25358E921Af31810Da3aC998e8426",
      "gasPrice": {
        "_hex": "0xba43b7400"
      },
      "gasLimit": {
        "_hex": "0x5208"
      },
      "to": "0xC47Aaa860008be6f65B58c6C6E02a84e666EfE31",
      "value": {
        "_hex": "0x35580be75c068380"
      },
      "nonce": 0,
      "data": "0x",
      "r": "0x53c64f52e597b8dd50bd179d48199b9de59853a2982a88c9c1725a73959a682b",
      "s": "0x618940b4df61fea4c68a7217387f5ccc741362a547996f828c02830c2c44bfa2",
      "v": 28,
      "creates": null,
      "raw": "0xf86c80850ba43b740082520894c47aaa860008be6f65b58c6c6e02a84e666efe318835580be75c068380801ca053c64f52e597b8dd50bd179d48199b9de59853a2982a88c9c1725a73959a682ba0618940b4df61fea4c68a7217387f5ccc741362a547996f828c02830c2c44bfa2",
      "networkId": 0,
      "chainId": 0
    }
  ]
}