{
  "hash": "0x0fbd944377ef95705dbc008824fb41de2d8e5f77ee2e0f978b8ec539b3f1e743",
  "parentHash": "0xdfeab6077eb9e6e45caa8c4248a798ed6f20fdac5fc42ca9a9e29f1d7d805be0",
  "number": 49523,
  "timestamp": 1438974874,
  "nonce": "0xcc024b026c070fd7",
  "difficulty": 1474878790744,
  "gasLimit": {
    "_hex": "0x34311"
  },
  "gasUsed": {
    "_hex": "0xfae0"
  },
  "miner": "0xeB1325C8D9d3ea8D74aC11F4B00F1B2367686319",
  "extraData": "0x476574682f76312e302e312f77696e646f77732f676f312e342e32",
  "transactions": [
    {
      "hash": "0x0df61e8bef2207fe5c51ac8360ba08f20e2b3579404ac57776365cb5ac33f6e8",
      "blockHash": "0x0fbd944377ef95705dbc008824fb41de2d8e5f77ee2e0f978b8ec539b3f1e743",
      "blockNumber": 49523,
      "transactionIndex": 0,
      "confirmations": null,
      "from": "0x7d445267C59aB8D2A2d9E709990E09682580c49f",
      "gasPrice": {
        "_hex": "0x110c8f7d8de"
      },
      "gasLimit": {
        "_hex": "0xc350"
      },
      "to": "0x2910543Af39abA0Cd09dBb2D50200b3E800A63D2",
      "value": {
        "_hex": "0x362ed9526c0aee0000"
      },
      "nonce": 0,
      "data": "0x454e553057344a3830",
      "r": "0xf7df755573f4c59177295dff64c4e143b80b24166206249b6f5fc65f78f58bca",
      "s": "0xe33dadd842ba941369fb4b0e5609235a822e6db980765637244a4fb157427f3c",
      "v": 27,
      "creates": null,
      "raw": "0xf87780860110c8f7d8de82c350942910543af39aba0cd09dbb2d50200b3e800a63d289362ed9526c0aee000089454e553057344a38301ba0f7df755573f4c59177295dff64c4e143b80b24166206249b6f5fc65f78f58bcaa0e33dadd842ba941369fb4b0e5609235a822e6db980765637244a4fb157427f3c",
      "networkId": 0,
      "chainId": 0
    },
    {
      "hash": "0xae1f1ffdf5e4eb04916a60e439a9ed8e403c88e010a4d6ef2a058b91b25fc7c2",
      "blockHash": "0x0fbd944377ef95705dbc008824fb41de2d8e5f77ee2e0f978b8ec539b3f1e743",
      "blockNumber": 49523,
      "transactionIndex": 1,
      "confirmations": null,
      "from": "0xc440C7Ca2F964B6972ef664a2261DdE892619d9C",
      "gasPrice": {
        "_hex": "0x10d0592e61a"
      },
      "gasLimit": {
        "_hex": "0x55f0"
      },
      "to": "0x8bb807c77969259B4Bb4fB3522e1720f4f6bebed",
      "value": {
        "_hex": "0x6be0cc388733580000"
      },
      "nonce": 1,
      "data": "0x",
      "r": "0xa4902ff9b2ee4bc93b1481a25d7d6e200ce3443671fa6853698d9280851455f0",
      "s": "0x1d503ed669d0b4716f612db8290ed3f5be5b9ce7d644305dd79b31e193fd659a",
      "v": 28,
      "creates": null,
      "raw": "0xf86e0186010d0592e61a8255f0948bb807c77969259b4bb4fb3522e1720f4f6bebed896be0cc388733580000801ca0a4902ff9b2ee4bc93b1481a25d7d6e200ce3443671fa6853698d9280851455f0a01d503ed669d0b4716f612db8290ed3f5be5b9ce7d644305dd79b31e193fd659a",
      "networkId": 0,
      "chainId": 0
    },
    {
      "hash": "0xcb3b7a5f84ad5fdf72325781a735cac191225b46fbc566f1de7be9ebf7ead93e",
      "blockHash": "0x0fbd944377ef95705dbc008824fb41de2d8e5f77ee2e0f978b8ec539b3f1e743",
      "blockNumber": 49523,
      "transactionIndex": 2,
      "confirmations": null,
      "from": "0xc71b2A3d7135d2a85Fb5A571DCBE695E13Fc43cd",
      "gasPrice": {
        "_hex": "0x10c915a16eb"
      },
      "gasLimit": {
        "_hex": "0x15f90"
      },
      "to": "0x2910543Af39abA0Cd09dBb2D50200b3E800A63D2",
      "value": {
        "_hex": "0x36341f5a68a1940000"
      },
      "nonce": 0,
      "data": "0x454e42304a42363352",
      "r": "0xf7e8bed8c67d5a2eb0bf9ada788dd249df619422ae8c727f50aaab6783602998",
      "s": "0x7b96b3e07fdd8c04cde16d2d90458a3595db526b3228a15bc4921c0d4457f271",
      "v": 28,
      "creates": null,
      "raw": "0xf8788086010c915a16eb83015f90942910543af39aba0cd09dbb2d50200b3e800a63d28936341f5a68a194000089454e42304a423633521ca0f7e8bed8c67d5a2eb0bf9ada788dd249df619422ae8c727f50aaab6783602998a07b96b3e07fdd8c04cde16d2d90458a3595db526b3228a15bc4921c0d4457f271",
      "networkId": 0,
      "chainId": 0
    }
  ]
}