{
  "hash": "0x8c6f5ec34728f65ab60fed9618a5420d2dc0d4dd1d8b96faf99da8059f87b25c",
  "parentHash": "0xca6ab0646d1521680e01077507b0bbb357af518f82a76f67c5ddf1c31f0e6ca3",
  "number": 72896,
  "timestamp": 1439359961,
  "nonce": "0x79091dcfa20753a1",
  "difficulty": 2193924407201,
  "gasLimit": {
    "_hex": "0x2fefd8"
  },
  "gasUsed": {
    "_hex": "0xa410"
  },
  "miner": "0x88D74a59454F6cF3B51ef6b9136AFb6b9D405A88",
  "extraData": "0x476574682f76312e302e312d37666266393930632f6c696e75782f676f312e34",
  "transactions": [
    {
      "hash": "0x6c4009895ed0b851f954afa36fa0f40e86c7e3ca20ffb99c260e0da622a28c51",
      "blockHash": "0x8c6f5ec34728f65ab60fed9618a5420d2dc0d4dd1d8b96faf99da8059f87b25c",
      "blockNumber": 72896,
      "transactionIndex": 0,
      "confirmations": null,
      "from": "0x441ACa82631324aCbFa2468bda325bBD78477bBF",
      "gasPrice": {
        "_hex": "0xd1f217cbf"
      },
      "gasLimit": {
        "_hex": "0x15f90"
      },
      "to": "0xcaEFdC9e1FA8EBB611f06963088428cae1Ecac1A",
      "value": {
        "_hex": "0x14534b5d4fd209b0000"
      },
      "nonce": 1,
      "data": "0x",
      "r": "0xe613dded1776350cad49ca2c52bd9f95e02523b0ec62f1c6ee138796580b2dd6",
      "s": "0x26b37c5ffbf4676228b7be30b6e30afe81f5c307c826a6bea9ab8bfc993022ba",
      "v": 28,
      "creates": null,
      "raw": "0xf86f01850d1f217cbf83015f9094caefdc9e1fa8ebb611f06963088428cae1ecac1a8a014534b5d4fd209b0000801ca0e613dded1776350cad49ca2c52bd9f95e02523b0ec62f1c6ee138796580b2dd6a026b37c5ffbf4676228b7be30b6e30afe81f5c307c826a6bea9ab8bfc993022ba",
      "networkId": 0,
      "chainId": 0
    },
    {
      "hash": "0x38b150f6a773e8c9d09f9a13b9b4a7761590ef68bbe36d163ab8afe942dc413e",
      "blockHash": "0x8c6f5ec34728f65ab60fed9618a5420d2dc0d4dd1d8b96faf99da8059f87b25c",
      "blockNumber": 72896,
      "transactionIndex": 1,
      "confirmations": null,
      "from": "0xabceA603089850F8f6bB612A9031554D90A247CF",
      "gasPrice": {
        "_hex": "0xd18f1e0cc"
      },
      "gasLimit": {
        "_hex": "0x5208"
      },
      "to": "0x32Be343B94f860124dC4fEe278FDCBD38C102D88",
      "value": {
        "_hex": "0x455f5f1d1a089400"
      },
      "nonce": 7,
      "data": "0x",
      "r": "0x672a182c5e8311b27850ed137e1247dbb5075c8868e9c2dd5f9ab225256b477c",
      "s": "0x4e50b7a7aa45a20100389875d51f205754ed289ec04fe1a0d5495ee9b002f03c",
      "v": 27,
      "creates": null,
      "raw": "0xf86c07850d18f1e0cc8252089432be343b94f860124dc4fee278fdcbd38c102d8888455f5f1d1a089400801ba0672a182c5e8311b27850ed137e1247dbb5075c8868e9c2dd5f9ab225256b477ca04e50b7a7aa45a20100389875d51f205754ed289ec04fe1a0d5495ee9b002f03c",
      "networkId": 0,
      "chainId": 0
    }
  ]
}