{
  "hash": "0x6f266c98def126380b7cb481f616a70ed6b19ff72ad32132b7c53dc10da311c1",
  "parentHash": "0xdf4b033707bd286e262d74a0e42b1a7f0b135e54eefe9b766d2714bd56ce19b0",
  "number": 52481,
  "timestamp": 1439022276,
  "nonce": "0xad450e21a82cd2d3",
  "difficulty": 1570980202006,
  "gasLimit": {
    "_hex": "0x144a89"
  },
  "gasUsed": {
    "_hex": "0x1229c"
  },
  "miner": "0xbb7B8287f3F0a933474a79eAe42CBCa977791171",
  "extraData": "0x476574682f4c5649562f76312e302e312f6c696e75782f676f312e342e32",
  "transactions": [
    {
      "hash": "0xe60347cdb521affd8cdf5577eb0e9284f0ebd44af2d40a6f2eb90931c3cbd9cc",
      "blockHash": "0x6f266c98def126380b7cb481f616a70ed6b19ff72ad32132b7c53dc10da311c1",
      "blockNumber": 52481,
      "transactionIndex": 0,
      "confirmations": null,
      "from": "0xC1CdC601f89c0428b31302D187e0dc08ad7D1C57",
      "gasPrice": {
        "_hex": "0xd78c757e6"
      },
      "gasLimit": {
        "_hex": "0x54c4"
      },
      "to": "0x2910543Af39abA0Cd09dBb2D50200b3E800A63D2",
      "value": {
        "_hex": "0x25f273933db5700000"
      },
      "nonce": 6,
      "data": "0x454e43503958565952",
      "r": "0x9f4da9c71943c317fb0b0424f7d04011605f0ba6729d0bca14104471786b2797",
      "s": "0x2edf8e334787f5d8622dc652bec98803978c745da9c47e7151902a53f1acd429",
      "v": 27,
      "creates": null,
      "raw": "0xf87606850d78c757e68254c4942910543af39aba0cd09dbb2d50200b3e800a63d28925f273933db570000089454e435039585659521ba09f4da9c71943c317fb0b0424f7d04011605f0ba6729d0bca14104471786b2797a02edf8e334787f5d8622dc652bec98803978c745da9c47e7151902a53f1acd429",
      "networkId": 0,
      "chainId": 0
    },
    {
      "hash": "0x78088068384b45c1644a8a4bac28c31bf6fa0cf83583e439bcdd4c0b4c03b04b",
      "blockHash": "0x6f266c98def126380b7cb481f616a70ed6b19ff72ad32132b7c53dc10da311c1",
      "blockNumber": 52481,
      "transactionIndex": 1,
      "confirmations": null,
      "from": "0xc8ebccC5F5689Fa8659d83713341e5aD19349448",
      "gasPrice": {
        "_hex": "0xd09dac1e2"
      },
      "gasLimit": {
        "_hex": "0x15f90"
      },
      "to": "0x0617194e49BaAD419B57FB8EBba265E417362835",
      "value": {
        "_hex": "0x8ac7230489e80000"
      },
      "nonce": 13,
      "data": "0x",
      "r": "0x9f6164d4ac99ee1b6b1edd63cee8695d98ddaf501b903de0fab727c6643bb6c2",
      "s": "0x3fd9beb8d81ac7d0d97d1178e93c4fc0d2811e8dc17aa013417d952decbb41a3",
      "v": 28,
      "creates": null,
      "raw": "0xf86d0d850d09dac1e283015f90940617194e49baad419b57fb8ebba265e417362835888ac7230489e80000801ca09f6164d4ac99ee1b6b1edd63cee8695d98ddaf501b903de0fab727c6643bb6c2a03fd9beb8d81ac7d0d97d1178e93c4fc0d2811e8dc17aa013417d952decbb41a3",
      "networkId": 0,
      "chainId": 0
    },
    {
      "hash": "0x844436bcc4c7d70f8cc010a794840985b49bf1a0800ffff6532aaf872622c02d",
      "blockHash": "0x6f266c98def126380b7cb481f616a70ed6b19ff72ad32132b7c53dc10da311c1",
      "blockNumber": 52481,
      "transactionIndex": 2,
      "confirmations": null,
      "from": "0xd12e0ECc7D872f9075690D7599324656456bDB39",
      "gasPrice": {
        "_hex": "0xce75ff1be"
      },
      "gasLimit": {
        "_hex": "0x15f90"
      },
      "to": "0xda0C1c188213f92dD32B44796b4313ae267A68eB",
      "value": {
        "_hex": "0x0"
      },
      "nonce": 2,
      "data": "0x41c0e1b5",
      "r": "0xa33aaebc885428869ccc424b5df9c3b4dc637284d2d0eae54d2bf644180adc99",
      "s": "0x79c196b6a43f6c1aea6da0c02b22c9fd18353345176bcef8da4a2fc57c70d1c7",
      "v": 28,
      "creates": null,
      "raw": "0xf86902850ce75ff1be83015f9094da0c1c188213f92dd32b44796b4313ae267a68eb808441c0e1b51ca0a33aaebc885428869ccc424b5df9c3b4dc637284d2d0eae54d2bf644180adc99a079c196b6a43f6c1aea6da0c02b22c9fd18353345176bcef8da4a2fc57c70d1c7",
      "networkId": 0,
      "chainId": 0
    },
    {
      "hash": "0x866b38e95730993cbcdb036d5c5339fc6f125c5f4585e8e5d84d74c5dc3c31b4",
      "blockHash": "0x6f266c98def126380b7cb481f616a70ed6b19ff72ad32132b7c53dc10da311c1",
      "blockNumber": 52481,
      "transactionIndex": 3,
      "confirmations": null,
      "from": "0x3234d29E2390E0Ac637B3ad0ACA3dF88aC82dC5d",
      "gasPrice": {
        "_hex": "0xcae0293b1"
      },
      "gasLimit": {
        "_hex": "0x5208"
      },
      "to": "0x32Be343B94f860124dC4fEe278FDCBD38C102D88",
      "value": {
        "_hex": "0x455f815fd5009000"
      },
      "nonce": 0,
      "data": "0x",
      "r": "0x56eb5f15771eba25f0fc1b8792e0855897767f65db1b52dcaa109c4bc036a607",
      "s": "0x1ce1ab23eb3b07e7938b9655470e73a3242a118808cb5da5c75540a038da106b",
      "v": 27,
      "creates": null,
      "raw": "0xf86c80850cae0293b18252089432be343b94f860124dc4fee278fdcbd38c102d8888455f815fd5009000801ba056eb5f15771eba25f0fc1b8792e0855897767f65db1b52dcaa109c4bc036a607a01ce1ab23eb3b07e7938b9655470e73a3242a118808cb5da5c75540a038da106b",
      "networkId": 0,
      "chainId": 0
    }
  ]
}