{
  "hash": "0x4f9a299fc6af5f8051f94a877b177f3e7d1459aec3929b0fff4b452092253103",
  "parentHash": "0x4ab23251908fcd386efb83865500dcf13630ad955194c9fa7fb0e653584d0d84",
  "number": 103790,
  "timestamp": 1439858993,
  "nonce": "0xe4e20e8d565e6445",
  "difficulty": 4225716339866,
  "gasLimit": {
    "_hex": "0x2fefd8"
  },
  "gasUsed": {
    "_hex": "0xf618"
  },
  "miner": "0xEF247E639d49461D25F57e9362CadE3120910Ce0",
  "extraData": "0x476574682f76312e302e312f6c696e75782f676f312e342e32",
  "transactions": [
    {
      "hash": "0x02d7423bb03efb9fb4fe7e2b3fe6038696afe979e0f05fe8571000cbe21b0080",
      "blockHash": "0x4f9a299fc6af5f8051f94a877b177f3e7d1459aec3929b0fff4b452092253103",
      "blockNumber": 103790,
      "transactionIndex": 0,
      "confirmations": null,
      "from": "0xb1abce2918E21ddb93AA452731a12672A3d9F75a",
      "gasPrice": {
        "_hex": "0xd5bbb86dc"
      },
      "gasLimit": {
        "_hex": "0x5208"
      },
      "to": "0x32Be343B94f860124dC4fEe278FDCBD38C102D88",
      "value": {
        "_hex": "0x455f547b4fbc7000"
      },
      "nonce": 124,
      "data": "0x",
      "r": "0x2e9fc1c4b4b7453084c8a1a0409bb614b40cb5feaeda48bdd592ce9d8834474c",
      "s": "0x1c67e4310fe45767d41ebe857cf2ebc5301758eec107a7e789d70687355fbe0b",
      "v": 28,
      "creates": null,
      "raw": "0xf86c7c850d5bbb86dc8252089432be343b94f860124dc4fee278fdcbd38c102d8888455f547b4fbc7000801ca02e9fc1c4b4b7453084c8a1a0409bb614b40cb5feaeda48bdd592ce9d8834474ca01c67e4310fe45767d41ebe857cf2ebc5301758eec107a7e789d70687355fbe0b",
      "networkId": 0,
      "chainId": 0
    },
    {
      "hash": "0x78f356383b1db76280e083749bb556f886b44d9ce884807773efd8697be17461",
      "blockHash": "0x4f9a299fc6af5f8051f94a877b177f3e7d1459aec3929b0fff4b452092253103",
      "blockNumber": 103790,
      "transactionIndex": 1,
      "confirmations": null,
      "from": "0x7313946aA53dCDd777C90905D75A9B41e17Ca2c9",
      "gasPrice": {
        "_hex": "0xd5bbb86dc"
      },
      "gasLimit": {
        "_hex": "0x5208"
      },
      "to": "0x32Be343B94f860124dC4fEe278FDCBD38C102D88",
      "value": {
        "_hex": "0x4c4fa50e18640c00"
      },
      "nonce": 6,
      "data": "0x",
      "r": "0x52d5c48d8260d215d1a9cf618b674c40fac7af09121a08d9d17ebaa4c182bf28",
      "s": "0x35aa5c698920c607ab6572fb742d10154dfb73eb0ff707eaaa51f1888d8127c4",
      "v": 27,
      "creates": null,
      "raw": "0xf86c06850d5bbb86dc8252089432be343b94f860124dc4fee278fdcbd38c102d88884c4fa50e18640c00801ba052d5c48d8260d215d1a9cf618b674c40fac7af09121a08d9d17ebaa4c182bf28a035aa5c698920c607ab6572fb742d10154dfb73eb0ff707eaaa51f1888d8127c4",
      "networkId": 0,
      "chainId": 0
    },
    {
      "hash": "0x5d7c16f884254fcd72cce1a52fc6206322c21ddf9c51a97f6369805f8f386ec0",
      "blockHash": "0x4f9a299fc6af5f8051f94a877b177f3e7d1459aec3929b0fff4b452092253103",
      "blockNumber": 103790,
      "transactionIndex": 2,
      "confirmations": null,
      "from": "0xe63a1879EC438Fd87bc623f66301B703087d3C4c",
      "gasPrice": {
        "_hex": "0xcd4ec5da4"
      },
      "gasLimit": {
        "_hex": "0x5208"
      },
      "to": "0x656Ed7fF71A6cFf2CF368297896634F9E6955e0a",
      "value": {
        "_hex": "0x1b1a06cb77b4d9c0000"
      },
      "nonce": 3,
      "data": "0x",
      "r": "0xa0c4fb912a8a5e86f7cdb8b8800a1e987b349e5000876dd25e0238cf7e232d29",
      "s": "0x39535ecbdab05cdb304046003d149f482506d8eb6750895c28e116ac2f74978c",
      "v": 28,
      "creates": null,
      "raw": "0xf86e03850cd4ec5da482520894656ed7ff71a6cff2cf368297896634f9e6955e0a8a01b1a06cb77b4d9c0000801ca0a0c4fb912a8a5e86f7cdb8b8800a1e987b349e5000876dd25e0238cf7e232d29a039535ecbdab05cdb304046003d149f482506d8eb6750895c28e116ac2f74978c",
      "networkId": 0,
      "chainId": 0
    }
  ]
}