{
  "hash": "0x831d482619bee16e1cee299922e46045fd25734b0569b856ea42e6260fd350f1",
  "parentHash": "0x7ca8bc465d45ae12c53a10656c73d674802c0171feb66ebb6425ef9465328bf2",
  "number": 59961,
  "timestamp": 1439146690,
  "nonce": "0x02c5b72bbc766dab",
  "difficulty": 1730593354456,
  "gasLimit": {
    "_hex": "0x2fefd8"
  },
  "gasUsed": {
    "_hex": "0x546c"
  },
  "miner": "0x0eDEd3DA479d0beF8eeC92A76644D3f4E3C177f7",
  "extraData": "0x476574682f76312e302e312f6c696e75782f676f312e342e32",
  "transactions": [
    {
      "hash": "0xde15b5060282d00bf223b448159d64f93387058204a0db7fb18c61b36787fb6a",
      "blockHash": "0x831d482619bee16e1cee299922e46045fd25734b0569b856ea42e6260fd350f1",
      "blockNumber": 59961,
      "transactionIndex": 0,
      "confirmations": null,
      "from": "0x69bd25ADe1A3346c59c4e930db2A9d715EF0A27a",
      "gasPrice": {
        "_hex": "0x110c8f7d8de"
      },
      "gasLimit": {
        "_hex": "0xc350"
      },
      "to": "0x2910543Af39abA0Cd09dBb2D50200b3E800A63D2",
      "value": {
        "_hex": "0x16345785d8a0000"
      },
      "nonce": 0,
      "data": "0x454e5a5232354e3330",
      "r": "0xa37125a1bfee9c2ca499740ec07eb458cc3016cf873302c6974bdc318c1f682b",
      "s": "0x982b54742c8b6cbfa55201217ac3207cc4090f56d1455252be7988ab285c7db7",
      "v": 28,
      "creates": null,
      "raw": "0xf87680860110c8f7d8de82c350942910543af39aba0cd09dbb2d50200b3e800a63d288016345785d8a000089454e5a5232354e33301ca0a37125a1bfee9c2ca499740ec07eb458cc3016cf873302c6974bdc318c1f682ba0982b54742c8b6cbfa55201217ac3207cc4090f56d1455252be7988ab285c7db7",
      "networkId": 0,
      "chainId": 0
    }
  ]
}