{
  "hash": "0xbcdcc4466e86f4b8fb040511e34360b0ce0f202f0d1bb5b97a6f712643cbc94b",
  "parentHash": "0x346f5e6a9b50b7120fe8133d58792a655aa12d28e32cf84ee1b8d4b0033a1a19",
  "number": 122232,
  "timestamp": 1440190548,
  "nonce": "0xa06101b2f6bae52f",
  "difficulty": 4470874785840,
  "gasLimit": {
    "_hex": "0x2fefd8"
  },
  "gasUsed": {
    "_hex": "0x1bdbe"
  },
  "miner": "0x52bc44d5378309EE2abF1539BF71dE1b7d7bE3b5",
  "extraData": "0xd783010002844765746887676f312e342e32856c696e7578",
  "transactions": [
    {
      "hash": "0x85df60275ae8b8afe49f4438350f983afcb6a1b8929e84d79857fa08d466387f",
      "blockHash": "0xbcdcc4466e86f4b8fb040511e34360b0ce0f202f0d1bb5b97a6f712643cbc94b",
      "blockNumber": 122232,
      "transactionIndex": 0,
      "confirmations": null,
      "from": "0x107C98584d4B18bC54E1D74F4d7a0bF505Ca466f",
      "gasPrice": {
        "_hex": "0xba43b7400"
      },
      "gasLimit": {
        "_hex": "0x249f0"
      },
      "to": "0xE28e72FCf78647ADCe1F1252F240bbfaebD63BcC",
      "value": {
        "_hex": "0x8f1d5c1cae3740000"
      },
      "nonce": 0,
      "data": "0x45466f3a",
      "r": "0xb74a9905c0d7e9eb93aadffd4dde96fce5e9d422b04a8f47c01cca05920c9ab3",
      "s": "0x3fe6f7f67e2b8525f596a4a914c9625824fca214e7a5861498f3458f87429421",
      "v": 27,
      "creates": null,
      "raw": "0xf87280850ba43b7400830249f094e28e72fcf78647adce1f1252f240bbfaebd63bcc8908f1d5c1cae37400008445466f3a1ba0b74a9905c0d7e9eb93aadffd4dde96fce5e9d422b04a8f47c01cca05920c9ab3a03fe6f7f67e2b8525f596a4a914c9625824fca214e7a5861498f3458f87429421",
      "networkId": 0,
      "chainId": 0
    }
  ]
}