{
  "hash": "0x71447e7aebf96e85c650df5d1f133304565158e392e002c4ecbfea366879802f",
  "parentHash": "0xae64fbab474322a9ed967542d395abc8ad1a68929bfa3e34791b270d9e051840",
  "number": 51444,
  "timestamp": 1439004986,
  "nonce": "0xc7483e1078575ff2",
  "difficulty": 1565813360350,
  "gasLimit": {
    "_hex": "0xb1770"
  },
  "gasUsed": {
    "_hex": "0x546c"
  },
  "miner": "0xf927a40C8B7F6E07c5af7FA2155B4864a4112B13",
  "extraData": "0x476574682f76312e302e312f6c696e75782f676f312e342e32",
  "transactions": [
    {
      "hash": "0x5d4596a95b4f2f77480bbbeb42668211dc82c9d32eeb7bcb82a4429a32f3846b",
      "blockHash": "0x71447e7aebf96e85c650df5d1f133304565158e392e002c4ecbfea366879802f",
      "blockNumber": 51444,
      "transactionIndex": 0,
      "confirmations": null,
      "from": "0xBe5Cba8D37427986E8ca2600e858bB03c359520f",
      "gasPrice": {
        "_hex": "0x110c8f7d8de"
      },
      "gasLimit": {
        "_hex": "0xc350"
      },
      "to": "0x2910543Af39abA0Cd09dBb2D50200b3E800A63D2",
      "value": {
        "_hex": "0x4563918244f40000"
      },
      "nonce": 0,
      "data": "0x454e4543364a584130",
      "r": "0xb5c195603c49f52025b3f20de75b510001b9f570b663fc3b2bbdc11773f6306f",
      "s": "0xaef3924e95ff36776a94b8ed059b64ecef94378b52842bad8660e0e73524f314",
      "v": 27,
      "creates": null,
      "raw": "0xf87680860110c8f7d8de82c350942910543af39aba0cd09dbb2d50200b3e800a63d2884563918244f4000089454e4543364a5841301ba0b5c195603c49f52025b3f20de75b510001b9f570b663fc3b2bbdc11773f6306fa0aef3924e95ff36776a94b8ed059b64ecef94378b52842bad8660e0e73524f314",
      "networkId": 0,
      "chainId": 0
    }
  ]
}