{
  "hash": "0x90066a1fe1bf0ee1c700b4db9d23bca472fd9a6d8b647ebfcae41e6414b0e8eb",
  "parentHash": "0x847e4fba6d2484d2f6a9e9fb16d89ac696b7a4666abb2c86b077b923c7af04c3",
  "number": 88683,
  "timestamp": 1439611816,
  "nonce": "0xd5ae09e643ad1bf7",
  "difficulty": 3231576622804,
  "gasLimit": {
    "_hex": "0x2fefd8"
  },
  "gasUsed": {
    "_hex": "0x5208"
  },
  "miner": "0xA21Ba94e45f0E168dA824fC67aC9cb5Cb577a8aF",
  "extraData": "0x",
  "transactions": [
    {
      "hash": "0xe9c6eb5bab50f74b4d8bc99b152756ec43a86d19e5198f0f8ad288e026bc1971",
      "blockHash": "0x90066a1fe1bf0ee1c700b4db9d23bca472fd9a6d8b647ebfcae41e6414b0e8eb",
      "blockNumber": 88683,
      "transactionIndex": 0,
      "confirmations": null,
      "from": "0xcd0Af3474e22F069EC3407870DD770443d5b12B0",
      "gasPrice": {
        "_hex": "0xd6ea8baba"
      },
      "gasLimit": {
        "_hex": "0x7a120"
      },
      "to": "0x0bCa038BF4ACAd3Cbf73463EccC7717dDCDc3D83",
      "value": {
        "_hex": "0x3635c9adc5dea00000"
      },
      "nonce": 17,
      "data": "0x",
      "r": "0x6b8e6f38aa67d42d498afb9033993fa120b889c3dd17b2fdc5acd0bac25f2b9a",
      "s": "0x3492f6de09363fbfa09037684526cbbec4773618e047a2132971454a18ba23c0",
      "v": 28,
      "creates": null,
      "raw": "0xf86e11850d6ea8baba8307a120940bca038bf4acad3cbf73463eccc7717ddcdc3d83893635c9adc5dea00000801ca06b8e6f38aa67d42d498afb9033993fa120b889c3dd17b2fdc5acd0bac25f2b9aa03492f6de09363fbfa09037684526cbbec4773618e047a2132971454a18ba23c0",
      "networkId": 0,
      "chainId": 0
    }
  ]
}