{
  "hash": "0x406fc7e1d5a85182388f090adc8067a352e6d1dc6377da5439b587fc205461d2",
  "parentHash": "0x664007ceffd3c9f78f05bb5e525e76879171e4117edfd19174bb2027e5f95ef4",
  "number": 122071,
  "timestamp": 1440187661,
  "nonce": "0x541ceab60d0220b5",
  "difficulty": 4464416130085,
  "gasLimit": {
    "_hex": "0x2fefd8"
  },
  "gasUsed": {
    "_hex": "0x5208"
  },
  "miner": "0x580992B51e3925e23280EfB93d3047C82f17E038",
  "extraData": "0x",
  "transactions": [
    {
      "hash": "0x49663d053b406f3bcf1592f9ffb649c3fc487246b7a0ac81c6f8be4611d84c87",
      "blockHash": "0x406fc7e1d5a85182388f090adc8067a352e6d1dc6377da5439b587fc205461d2",
      "blockNumber": 122071,
      "transactionIndex": 0,
      "confirmations": null,
      "from": "0x608f4b86321a68453f9adf6F06F7Fc3E621739ad",
      "gasPrice": {
        "_hex": "0xdff772d44"
      },
      "gasLimit": {
        "_hex": "0x5208"
      },
      "to": "0x32Be343B94f860124dC4fEe278FDCBD38C102D88",
      "value": {
        "_hex": "0x4563620d2a96b800"
      },
      "nonce": 121,
      "data": "0x",
      "r": "0x9138ce4b15fbbc70b9e3f4146602498bc45fed13b26aed3c3bd0ef3816012716",
      "s": "0x09abe85cb76f0e923025701721fbfa5158cb054220ebf1cca51333d2f4c11747",
      "v": 28,
      "creates": null,
      "raw": "0xf86c79850dff772d448252089432be343b94f860124dc4fee278fdcbd38c102d88884563620d2a96b800801ca09138ce4b15fbbc70b9e3f4146602498bc45fed13b26aed3c3bd0ef3816012716a009abe85cb76f0e923025701721fbfa5158cb054220ebf1cca51333d2f4c11747",
      "networkId": 0,
      "chainId": 0
    }
  ]
}