{
  "hash": "0xc5ea2e0113572c7c3af2459d64647f6788eca75392104cbd1c08af6988bcb824",
  "parentHash": "0x9850267d78a814120b7ae0894283bbabef10466cfd2645782a4118623d3b453b",
  "number": 90723,
  "timestamp": 1439644545,
  "nonce": "0x794b8624f73c74c6",
  "difficulty": 3369347618143,
  "gasLimit": {
    "_hex": "0x2fefd8"
  },
  "gasUsed": {
    "_hex": "0x5208"
  },
  "miner": "0xe6A7a1d47ff21B6321162AEA7C6CB457D5476Bca",
  "extraData": "0x476574682f76312e302e312d38326566323666362f6c696e75782f676f312e34",
  "transactions": [
    {
      "hash": "0x6da34ab6db7fd2c1e02d4d6f0b58a426b95be6cd6c5891ea46290a0f8f190883",
      "blockHash": "0xc5ea2e0113572c7c3af2459d64647f6788eca75392104cbd1c08af6988bcb824",
      "blockNumber": 90723,
      "transactionIndex": 0,
      "confirmations": null,
      "from": "0xEa5b801969342B44467C9dE87fEfE2C1dB740bd4",
      "gasPrice": {
        "_hex": "0x10a2c9180ea"
      },
      "gasLimit": {
        "_hex": "0x15f90"
      },
      "to": "0x211D45933Ef88c3D7aD0120942CF50ab506e618F",
      "value": {
        "_hex": "0xebec21ee1da40000"
      },
      "nonce": 3,
      "data": "0x",
      "r": "0x02f2bc7c8fc0f59c481d80c711494acea14d0173def0f1de5f6ae53f797888c3",
      "s": "0x598500b61cb9fd9b69252a890551054135dd98717cb51c61e41056b66018562d",
      "v": 27,
      "creates": null,
      "raw": "0xf86e0386010a2c9180ea83015f9094211d45933ef88c3d7ad0120942cf50ab506e618f88ebec21ee1da40000801ba002f2bc7c8fc0f59c481d80c711494acea14d0173def0f1de5f6ae53f797888c3a0598500b61cb9fd9b69252a890551054135dd98717cb51c61e41056b66018562d",
      "networkId": 0,
      "chainId": 0
    }
  ]
}