{
  "hash": "0xa68364d561be21ec5d6a913da7521795c10e9ee2b1c0377a59b98a2c43b43c63",
  "parentHash": "0x4d947a90e6842fe7e67fc2fdf36537742fe41016147dc459f372d3e8b79ab7f7",
  "number": 55939,
  "timestamp": 1439079466,
  "nonce": "0x305fcc2974b2f940",
  "difficulty": 1615440776406,
  "gasLimit": {
    "_hex": "0x2fefd8"
  },
  "gasUsed": {
    "_hex": "0x42a68"
  },
  "miner": "0x400fb5A6482E54E44b2250E75251707514c605C1",
  "extraData": "0x476574682f76312e302e312f77696e646f77732f676f312e342e32",
  "transactions": [
    {
      "hash": "0x3029aa414e6a721af15a02ba96804dbf71eff02348687538c3eaa7e6893f95b3",
      "blockHash": "0xa68364d561be21ec5d6a913da7521795c10e9ee2b1c0377a59b98a2c43b43c63",
      "blockNumber": 55939,
      "transactionIndex": 0,
      "confirmations": null,
      "from": "0xe6A7a1d47ff21B6321162AEA7C6CB457D5476Bca",
      "gasPrice": {
        "_hex": "0xdd65815d5"
      },
      "gasLimit": {
        "_hex": "0x55f0"
      },
      "to": "0xb9b373b3776bAcfE434e7c2dc66D4Ee715d91C0E",
      "value": {
        "_hex": "0xf580c6a37ec556c"
      },
      "nonce": 490,
      "data": "0x",
      "r": "0x9d55dc1e45a5d996560105dda1ce03cf1d609d363aaf9aa3fc2a8d0087c1efdb",
      "s": "0x0a4627a8c74d970b0208006e6a6d69610ceb9363695f89d299bad93412eb4c5c",
      "v": 28,
      "creates": null,
      "raw": "0xf86e8201ea850dd65815d58255f094b9b373b3776bacfe434e7c2dc66d4ee715d91c0e880f580c6a37ec556c801ca09d55dc1e45a5d996560105dda1ce03cf1d609d363aaf9aa3fc2a8d0087c1efdba00a4627a8c74d970b0208006e6a6d69610ceb9363695f89d299bad93412eb4c5c",
      "networkId": 0,
      "chainId": 0
    },
    {
      "hash": "0x1fdca76410ad7c894920959497129fd8fb6d9b63c6175ab113f35cac9c5f2f50",
      "blockHash": "0xa68364d561be21ec5d6a913da7521795c10e9ee2b1c0377a59b98a2c43b43c63",
      "blockNumber": 55939,
      "transactionIndex": 1,
      "confirmations": null,
      "from": "0xe6A7a1d47ff21B6321162AEA7C6CB457D5476Bca",
      "gasPrice": {
        "_hex": "0xdd65815d5"
      },
      "gasLimit": {
        "_hex": "0x55f0"
      },
      "to": "0x743d4BEc153584BfA955305c168A1435Ec883049",
      "value": {
        "_hex": "0x13f7ecde286bc1ec"
      },
      "nonce": 491,
      "data": "0x",
      "r": "0xf7fee029e772de720a05ccd3be40284c887acb7e3886f2fda136dd92083205a6",
      "s": "0x645ece0dde40b255a1857da1f86ac8485acd5d14ab39373cafc7cd4abc4d3090",
      "v": 28,
      "creates": null,
      "raw": "0xf86e8201eb850dd65815d58255f094743d4bec153584bfa955305c168a1435ec8830498813f7ecde286bc1ec801ca0f7fee029e772de720a05ccd3be40284c887acb7e3886f2fda136dd92083205a6a0645ece0dde40b255a1857da1f86ac8485acd5d14ab39373cafc7cd4abc4d3090",
      "networkId": 0,
      "chainId": 0
    },
    {
      "hash": "0x552f4bf5cb4d8856bc445482744c33980af93c41c525b4cd6a0060a5d37ca194",
      "blockHash": "0xa68364d561be21ec5d6a913da7521795c10e9ee2b1c0377a59b98a2c43b43c63",
      "blockNumber": 55939,
      "transactionIndex": 2,
      "confirmations": null,
      "from": "0xe6A7a1d47ff21B6321162AEA7C6CB457D5476Bca",
      "gasPrice": {
        "_hex": "0xdd65815d5"
      },
      "gasLimit": {
        "_hex": "0x55f0"
      },
      "to": "0x3A652ae439FFB94328afa58E11F544aFB5B85f7A",
      "value": {
        "_hex": "0x194ffd95890dddd0"
      },
      "nonce": 492,
      "data": "0x",
      "r": "0x592a762dce27656b6fa5c0cb53efbb7d1ae8a838a6683be53a96c034826321e0",
      "s": "0x584451a2e2990d3cc9ef211a89e8b5cee9370dd56c01ada32a1534b1c17937ed",
      "v": 27,
      "creates": null,
      "raw": "0xf86e8201ec850dd65815d58255f0943a652ae439ffb94328afa58e11f544afb5b85f7a88194ffd95890dddd0801ba0592a762dce27656b6fa5c0cb53efbb7d1ae8a838a6683be53a96c034826321e0a0584451a2e2990d3cc9ef211a89e8b5cee9370dd56c01ada32a1534b1c17937ed",
      "networkId": 0,
      "chainId": 0
    },
    {
      "hash": "0x3b223547f4e65ad8a5dd0193f36ccd2364d88303bb70fe381367ad8c286c7244",
      "blockHash": "0xa68364d561be21ec5d6a913da7521795c10e9ee2b1c0377a59b98a2c43b43c63",
      "blockNumber": 55939,
      "transactionIndex": 3,
      "confirmations": null,
      "from": "0xe6A7a1d47ff21B6321162AEA7C6CB457D5476Bca",
      "gasPrice": {
        "_hex": "0xdd65815d5"
      },
      "gasLimit": {
        "_hex": "0x55f0"
      },
      "to": "0xE5cd922132641CF77d8a95dE3F3B335Ee6D54d71",
      "value": {
        "_hex": "0x1af47e3ec2d15810"
      },
      "nonce": 493,
      "data": "0x",
      "r": "0xc144f64eafae92b2aae62d1f41593f685d88426ecac1bcb5a500ea82cb07b292",
      "s": "0x284c097403bb4036f0479eef2ed027ff3d636fbe1e2f3b2ac03be53fdd2ce6d5",
      "v": 28,
      "creates": null,
      "raw": "0xf86e8201ed850dd65815d58255f094e5cd922132641cf77d8a95de3f3b335ee6d54d71881af47e3ec2d15810801ca0c144f64eafae92b2aae62d1f41593f685d88426ecac1bcb5a500ea82cb07b292a0284c097403bb4036f0479eef2ed027ff3d636fbe1e2f3b2ac03be53fdd2ce6d5",
      "networkId": 0,
      "chainId": 0
    },
    {
      "hash": "0xb266268ad9677aa1cb9746e30a1c789c8d5deb557b5d74eb4002cc3c409689bf",
      "blockHash": "0xa68364d561be21ec5d6a913da7521795c10e9ee2b1c0377a59b98a2c43b43c63",
      "blockNumber": 55939,
      "transactionIndex": 4,
      "confirmations": null,
      "from": "0xe6A7a1d47ff21B6321162AEA7C6CB457D5476Bca",
      "gasPrice": {
        "_hex": "0xdd65815d5"
      },
      "gasLimit": {
        "_hex": "0x55f0"
      },
      "to": "0xbA0577E1419237fd4B8c14A6f49984F6466b5996",
      "value": {
        "_hex": "0x1c831261f4af9e18"
      },
      "nonce": 494,
      "data": "0x",
      "r": "0xcba801d4579721e8785f13a13fb16d1c4b7ab1eeb90dbcc068aa7c64ac1fe6cd",
      "s": "0x1684592143232ea36a80ba5ea585d855b8be5638e9656167b39d84088d5f5ccf",
      "v": 28,
      "creates": null,
      "raw": "0xf86e8201ee850dd65815d58255f094ba0577e1419237fd4b8c14a6f49984f6466b5996881c831261f4af9e18801ca0cba801d4579721e8785f13a13fb16d1c4b7ab1eeb90dbcc068aa7c64ac1fe6cda01684592143232ea36a80ba5ea585d855b8be5638e9656167b39d84088d5f5ccf",
      "networkId": 0,
      "chainId": 0
    },
    {
      "hash": "0xed1f83c369d55bb9216de03ad19a056532e9198fb2c50fde5204d1b31025b6e5",
      "blockHash": "0xa68364d561be21ec5d6a913da7521795c10e9ee2b1c0377a59b98a2c43b43c63",
      "blockNumber": 55939,
      "transactionIndex": 5,
      "confirmations": null,
      "from": "0xe6A7a1d47ff21B6321162AEA7C6CB457D5476Bca",
      "gasPrice": {
        "_hex": "0xdd65815d5"
      },
      "gasLimit": {
        "_hex": "0x55f0"
      },
      "to": "0x1cB4D87C5e67d158aF4c3A754a010Dfa64d78cE8",
      "value": {
        "_hex": "0x1f077fed388f74f8"
      },
      "nonce": 495,
      "data": "0x",
      "r": "0x160417759f1433d4443ff08a27531a957e39173d8d8b5d955d4b963ff06f5729",
      "s": "0x0c33984f03728acb6bf43448eb72d6a67fc9c0e3d02cb5a502f8919c0d7ad49b",
      "v": 27,
      "creates": null,
      "raw": "0xf86e8201ef850dd65815d58255f0941cb4d87c5e67d158af4c3a754a010dfa64d78ce8881f077fed388f74f8801ba0160417759f1433d4443ff08a27531a957e39173d8d8b5d955d4b963ff06f5729a00c33984f03728acb6bf43448eb72d6a67fc9c0e3d02cb5a502f8919c0d7ad49b",
      "networkId": 0,
      "chainId": 0
    },
    {
      "hash": "0x0e2562011e889424eea646a1a733fbaea3b2d1334a9f9810353c51365a407c61",
      "blockHash": "0xa68364d561be21ec5d6a913da7521795c10e9ee2b1c0377a59b98a2c43b43c63",
      "blockNumber": 55939,
      "transactionIndex": 6,
      "confirmations": null,
      "from": "0xe6A7a1d47ff21B6321162AEA7C6CB457D5476Bca",
      "gasPrice": {
        "_hex": "0xdd65815d5"
      },
      "gasLimit": {
        "_hex": "0x55f0"
      },
      "to": "0x86889b1CeA13d370E827e099e3778b17d488B3Dd",
      "value": {
        "_hex": "0x22c93da5a4c32fa8"
      },
      "nonce": 496,
      "data": "0x",
      "r": "0xef16ff7d06392b43f8c5e7dc78928e6c8c17f1dbb3993864447bdfc5bd4861b6",
      "s": "0x12a3b2518b27fd58467a982e141f451d606e9ec56519a35bcec3764bd51f6772",
      "v": 27,
      "creates": null,
      "raw": "0xf86e8201f0850dd65815d58255f09486889b1cea13d370e827e099e3778b17d488b3dd8822c93da5a4c32fa8801ba0ef16ff7d06392b43f8c5e7dc78928e6c8c17f1dbb3993864447bdfc5bd4861b6a012a3b2518b27fd58467a982e141f451d606e9ec56519a35bcec3764bd51f6772",
      "networkId": 0,
      "chainId": 0
    },
    {
      "hash": "0x48d289b51a2eacac3ccebd6b6eaf860c7303b7284d257b36bef31394f1ca5483",
      "blockHash": "0xa68364d561be21ec5d6a913da7521795c10e9ee2b1c0377a59b98a2c43b43c63",
      "blockNumber": 55939,
      "transactionIndex": 7,
      "confirmations": null,
      "from": "0xe6A7a1d47ff21B6321162AEA7C6CB457D5476Bca",
      "gasPrice": {
        "_hex": "0xdd65815d5"
      },
      "gasLimit": {
        "_hex": "0x55f0"
      },
      "to": "0x3D4e0cCd5BeefBa5131A2DAb7E019c6A7928F32e",
      "value": {
        "_hex": "0x241a5ae84274a02c"
      },
      "nonce": 497,
      "data": "0x",
      "r": "0xa43e2488897228bc39d826ca1aac7f1544545fefce671beb245b42c2bf1db55e",
      "s": "0x61c21aad7d5ea5f5503c73bef67f32a66a047aa79edce03b841b28e596e9dc5f",
      "v": 27,
      "creates": null,
      "raw": "0xf86e8201f1850dd65815d58255f0943d4e0ccd5beefba5131a2dab7e019c6a7928f32e88241a5ae84274a02c801ba0a43e2488897228bc39d826ca1aac7f1544545fefce671beb245b42c2bf1db55ea061c21aad7d5ea5f5503c73bef67f32a66a047aa79edce03b841b28e596e9dc5f",
      "networkId": 0,
      "chainId": 0
    },
    {
      "hash": "0xa34d5076325385a662599673a37f3cd0e7d0590f1ead780a13b43f02f58731df",
      "blockHash": "0xa68364d561be21ec5d6a913da7521795c10e9ee2b1c0377a59b98a2c43b43c63",
      "blockNumber": 55939,
      "transactionIndex": 8,
      "confirmations": null,
      "from": "0xe6A7a1d47ff21B6321162AEA7C6CB457D5476Bca",
      "gasPrice": {
        "_hex": "0xdd65815d5"
      },
      "gasLimit": {
        "_hex": "0x55f0"
      },
      "to": "0xb6f15735Af04ae6d37B89592E406311A94e4F5f2",
      "value": {
        "_hex": "0x2c2cbc3b25db49ec"
      },
      "nonce": 498,
      "data": "0x",
      "r": "0x23ae40b0146b8f539e43005d5fde042d1258e754604f5c3d346f68189283ca09",
      "s": "0x0e7aa1faf3072472818605c28f362557803fac8505149ad2cd8ac2adde31c7d7",
      "v": 27,
      "creates": null,
      "raw": "0xf86e8201f2850dd65815d58255f094b6f15735af04ae6d37b89592e406311a94e4f5f2882c2cbc3b25db49ec801ba023ae40b0146b8f539e43005d5fde042d1258e754604f5c3d346f68189283ca09a00e7aa1faf3072472818605c28f362557803fac8505149ad2cd8ac2adde31c7d7",
      "networkId": 0,
      "chainId": 0
    },
    {
      "hash": "0x80467bdfc68285e312525a7d97c3883a0a7dd39e3b3e2c9680d9e18103c157b1",
      "blockHash": "0xa68364d561be21ec5d6a913da7521795c10e9ee2b1c0377a59b98a2c43b43c63",
      "blockNumber": 55939,
      "transactionIndex": 9,
      "confirmations": null,
      "from": "0xe6A7a1d47ff21B6321162AEA7C6CB457D5476Bca",
      "gasPrice": {
        "_hex": "0xdd65815d5"
      },
      "gasLimit": {
        "_hex": "0x55f0"
      },
      "to": "0x3aAE6435730f753ecF6214996ae2a55A1503F97c",
      "value": {
        "_hex": "0x2d12187764fbf670"
      },
      "nonce": 499,
      "data": "0x",
      "r": "0x6006a2f6ad3bd570e60f9df30668864570f155ca38290c4f44ff694a62d7ebd3",
      "s": "0x39cd2e74d3428d3606049c6de700b0d27080f6cfbbe78f7add2ae5b76e11641e",
      "v": 28,
      "creates": null,
      "raw": "0xf86e8201f3850dd65815d58255f0943aae6435730f753ecf6214996ae2a55a1503f97c882d12187764fbf670801ca06006a2f6ad3bd570e60f9df30668864570f155ca38290c4f44ff694a62d7ebd3a039cd2e74d3428d3606049c6de700b0d27080f6cfbbe78f7add2ae5b76e11641e",
      "networkId": 0,
      "chainId": 0
    },
    {
      "hash": "0x5982fa0b35fa0916fb95e3cafb30472d0ce083c0c55fed3a2b6fa3a6848ae511",
      "blockHash": "0xa68364d561be21ec5d6a913da7521795c10e9ee2b1c0377a59b98a2c43b43c63",
      "blockNumber": 55939,
      "transactionIndex": 10,
      "confirmations": null,
      "from": "0xe6A7a1d47ff21B6321162AEA7C6CB457D5476Bca",
      "gasPrice": {
        "_hex": "0xdd65815d5"
      },
      "gasLimit": {
        "_hex": "0x55f0"
      },
      "to": "0x9c1478134D61258dD2c35DE561BD0Ff94678ab5e",
      "value": {
        "_hex": "0x395e75b7fafd5b78"
      },
      "nonce": 500,
      "data": "0x",
      "r": "0xc25fd804755e8c2ee85f91bee0c0f73cb9aaca8a0cd58d50aa99dad6db0baab8",
      "s": "0x200a893519d4fab588c78b46d38d55e374eed4b63d3933253aa1159a25c060ab",
      "v": 27,
      "creates": null,
      "raw": "0xf86e8201f4850dd65815d58255f0949c1478134d61258dd2c35de561bd0ff94678ab5e88395e75b7fafd5b78801ba0c25fd804755e8c2ee85f91bee0c0f73cb9aaca8a0cd58d50aa99dad6db0baab8a0200a893519d4fab588c78b46d38d55e374eed4b63d3933253aa1159a25c060ab",
      "networkId": 0,
      "chainId": 0
    },
    {
      "hash": "0xb857d7e37af7d6759436a153e9e02cef8d0a9c35ca5dce1f1349eaff6ce09a10",
      "blockHash": "0xa68364d561be21ec5d6a913da7521795c10e9ee2b1c0377a59b98a2c43b43c63",
      "blockNumber": 55939,
      "transactionIndex": 11,
      "confirmations": null,
      "from": "0xe6A7a1d47ff21B6321162AEA7C6CB457D5476Bca",
      "gasPrice": {
        "_hex": "0xdd65815d5"
      },
      "gasLimit": {
        "_hex": "0x55f0"
      },
      "to": "0xCe266fafD0c5b4fA61Ac52879Cbc1574570Aca16",
      "value": {
        "_hex": "0x6e94823100d44610"
      },
      "nonce": 501,
      "data": "0x",
      "r": "0x698a180f52cf002984282f22d2a21cca7723e939c2fb2316c8509f23136966d2",
      "s": "0x422d261121b25f9b1fdd8f0a9df32a24f6afa36b7acbf6b19f8427f7ba3890b0",
      "v": 27,
      "creates": null,
      "raw": "0xf86e8201f5850dd65815d58255f094ce266fafd0c5b4fa61ac52879cbc1574570aca16886e94823100d44610801ba0698a180f52cf002984282f22d2a21cca7723e939c2fb2316c8509f23136966d2a0422d261121b25f9b1fdd8f0a9df32a24f6afa36b7acbf6b19f8427f7ba3890b0",
      "networkId": 0,
      "chainId": 0
    },
    {
      "hash": "0x9b81de15074759cb9439ce23bcc79df781b41a7e8b6f1e4105bf06aaf71d5e36",
      "blockHash": "0xa68364d561be21ec5d6a913da7521795c10e9ee2b1c0377a59b98a2c43b43c63",
      "blockNumber": 55939,
      "transactionIndex": 12,
      "confirmations": null,
      "from": "0xe6A7a1d47ff21B6321162AEA7C6CB457D5476Bca",
      "gasPrice": {
        "_hex": "0xdb48cd4b3"
      },
      "gasLimit": {
        "_hex": "0x55f0"
      },
      "to": "0xCE09fD3E23b65BaD12809190a19b6BFCFfD48c35",
      "value": {
        "_hex": "0x820086f73b841660"
      },
      "nonce": 502,
      "data": "0x",
      "r": "0x309c8db238c00a13302bf852808864fa53f51658ff2f354778384cb0028426f4",
      "s": "0x29d47a3f442a04d1b740cc9374f2c9392b3531811dbfd2178d14bc35113b3a12",
      "v": 28,
      "creates": null,
      "raw": "0xf86e8201f6850db48cd4b38255f094ce09fd3e23b65bad12809190a19b6bfcffd48c3588820086f73b841660801ca0309c8db238c00a13302bf852808864fa53f51658ff2f354778384cb0028426f4a029d47a3f442a04d1b740cc9374f2c9392b3531811dbfd2178d14bc35113b3a12",
      "networkId": 0,
      "chainId": 0
    }
  ]
}