{
  "hash": "0xb10f7b5d37c51bcc0316f9f709b1e5821a169ac7487123ff599f87ed8df76b28",
  "parentHash": "0xc27cdde6c1df09efa11647a6aa9a3d047fedfaae09207ed2a667d1846afe9467",
  "number": 54523,
  "timestamp": 1439055481,
  "nonce": "0x380de5c279cec758",
  "difficulty": 1618872260809,
  "gasLimit": {
    "_hex": "0x2fefd8"
  },
  "gasUsed": {
    "_hex": "0x5208"
  },
  "miner": "0xbb7B8287f3F0a933474a79eAe42CBCa977791171",
  "extraData": "0x476574682f4c5649562f76312e302e312f6c696e75782f676f312e342e32",
  "transactions": [
    {
      "hash": "0x767b466127c02f85fa719ae8a4bfb0290e84e13bd3d70c0a674f3d636f42c26c",
      "blockHash": "0xb10f7b5d37c51bcc0316f9f709b1e5821a169ac7487123ff599f87ed8df76b28",
      "blockNumber": 54523,
      "transactionIndex": 0,
      "confirmations": null,
      "from": "0x562f16d79AbfCec3943E34b20F05F97BdfcDa605",
      "gasPrice": {
        "_hex": "0xd3c1082d3"
      },
      "gasLimit": {
        "_hex": "0x15f90"
      },
      "to": "0x60780933D9a5A8e8E3ab20CB6382cd314f04065F",
      "value": {
        "_hex": "0xdb4447a313f38b8"
      },
      "nonce": 2,
      "data": "0x",
      "r": "0xc2f4b93f89c5cdd4889ad6a9c3b1e3996222fa40d2b12674fe7f056febaaa5b6",
      "s": "0x0372ca969462da66d50f0f1b3125a5968d44ad5a149b75eaf342585d8125fa51",
      "v": 28,
      "creates": null,
      "raw": "0xf86d02850d3c1082d383015f909460780933d9a5a8e8e3ab20cb6382cd314f04065f880db4447a313f38b8801ca0c2f4b93f89c5cdd4889ad6a9c3b1e3996222fa40d2b12674fe7f056febaaa5b6a00372ca969462da66d50f0f1b3125a5968d44ad5a149b75eaf342585d8125fa51",
      "networkId": 0,
      "chainId": 0
    }
  ]
}