{
  "hash": "0x14e9f20c4eea2eeb41874d73c373b2ad7fa76fa42a603a24cd9278ed352efcc3",
  "parentHash": "0x912b9e2956830078a17483161650fa777de82bde9eabd370ce99fc7fe2acec18",
  "number": 57240,
  "timestamp": 1439099946,
  "nonce": "0x1119a5c28c722ab6",
  "difficulty": 1737081952615,
  "gasLimit": {
    "_hex": "0x2fefd8"
  },
  "gasUsed": {
    "_hex": "0x5208"
  },
  "miner": "0x1217627fe41A00f0b828317F43E6d58F47dBfc43",
  "extraData": "0x476574682f76312e302e302d66313265303136312f6c696e75782f676f312e34",
  "transactions": [
    {
      "hash": "0xe494099474ee98563d034b549dbb35adea5598803b9ef962994bd085e6b3530d",
      "blockHash": "0x14e9f20c4eea2eeb41874d73c373b2ad7fa76fa42a603a24cd9278ed352efcc3",
      "blockNumber": 57240,
      "transactionIndex": 0,
      "confirmations": null,
      "from": "0xc97b6E47df229442524F8f210926557900f81574",
      "gasPrice": {
        "_hex": "0xd1ec288df"
      },
      "gasLimit": {
        "_hex": "0x5208"
      },
      "to": "0x32Be343B94f860124dC4fEe278FDCBD38C102D88",
      "value": {
        "_hex": "0x455f5d3fcc830000"
      },
      "nonce": 3,
      "data": "0x",
      "r": "0x5b3d769b9243170293b56e1fe4520b5f653c3d0baccf5a6a8a539a37aee3ecb4",
      "s": "0x5b53b237674590b52d50c44ca9c67b541349d7bbe24d0b44d23ddd98ddce2b2a",
      "v": 27,
      "creates": null,
      "raw": "0xf86c03850d1ec288df8252089432be343b94f860124dc4fee278fdcbd38c102d8888455f5d3fcc830000801ba05b3d769b9243170293b56e1fe4520b5f653c3d0baccf5a6a8a539a37aee3ecb4a05b53b237674590b52d50c44ca9c67b541349d7bbe24d0b44d23ddd98ddce2b2a",
      "networkId": 0,
      "chainId": 0
    }
  ]
}