{
  "hash": "0xb096b4ba73e06612855a95bcecedc8ba81b1c63af5e83e3b766149bef89edad7",
  "parentHash": "0x4154f5579c23851efd4f9dd80bff4e997eedebb312a1ebba2192b1bdc7a9801e",
  "number": 82374,
  "timestamp": 1439518309,
  "nonce": "0x2ccacf18bec42538",
  "difficulty": 2376471287197,
  "gasLimit": {
    "_hex": "0x2fefd8"
  },
  "gasUsed": {
    "_hex": "0x19a28"
  },
  "miner": "0xbb7B8287f3F0a933474a79eAe42CBCa977791171",
  "extraData": "0x476574682f4c5649562f76312e302e312f6c696e75782f676f312e342e32",
  "transactions": [
    {
      "hash": "0x73bfce17e54bc75f534070050b77e565e48a45f58905c1790fa0d9551a15745f",
      "blockHash": "0xb096b4ba73e06612855a95bcecedc8ba81b1c63af5e83e3b766149bef89edad7",
      "blockNumber": 82374,
      "transactionIndex": 0,
      "confirmations": null,
      "from": "0x22557c67370Abf56E2F3ad5585Ca274470aD61ec",
      "gasPrice": {
        "_hex": "0x746a528800"
      },
      "gasLimit": {
        "_hex": "0x5b04"
      },
      "to": "0x48959D26C26D75703c575744DB202f227Ec1ebE3",
      "value": {
        "_hex": "0x3487938e0499840000"
      },
      "nonce": 0,
      "data": "0x",
      "r": "0x37c8d9eb32c98d4c80c9fbe6fb00dc1e93398fc854a39348824b27e2653c7004",
      "s": "0xe00fdddbf908d20122c455798f915bde555f7b77ef1ea6079ce296452c7c2a63",
      "v": 27,
      "creates": null,
      "raw": "0xf86d8085746a528800825b049448959d26c26d75703c575744db202f227ec1ebe3893487938e0499840000801ba037c8d9eb32c98d4c80c9fbe6fb00dc1e93398fc854a39348824b27e2653c7004a0e00fdddbf908d20122c455798f915bde555f7b77ef1ea6079ce296452c7c2a63",
      "networkId": 0,
      "chainId": 0
    },
    {
      "hash": "0x8554012baab303fd1898800fef27ec2f89a5ead097006724e665b3799ab543e3",
      "blockHash": "0xb096b4ba73e06612855a95bcecedc8ba81b1c63af5e83e3b766149bef89edad7",
      "blockNumber": 82374,
      "transactionIndex": 1,
      "confirmations": null,
      "from": "0x014e478251F22a79fA7014f285647d91462A9669",
      "gasPrice": {
        "_hex": "0xd1958c16e"
      },
      "gasLimit": {
        "_hex": "0x5208"
      },
      "to": "0x32Be343B94f860124dC4fEe278FDCBD38C102D88",
      "value": {
        "_hex": "0x1167b4e31b0720000"
      },
      "nonce": 1,
      "data": "0x",
      "r": "0xcfbc6a7568853405f6f51d0b6a4f650edb31cc8d776cf9b27ae997b4cff89742",
      "s": "0x7b3a4fe22593eef52d7e542404d16556b64fbbd8184f8c4a0b38f9d3de0282a6",
      "v": 27,
      "creates": null,
      "raw": "0xf86d01850d1958c16e8252089432be343b94f860124dc4fee278fdcbd38c102d888901167b4e31b0720000801ba0cfbc6a7568853405f6f51d0b6a4f650edb31cc8d776cf9b27ae997b4cff89742a07b3a4fe22593eef52d7e542404d16556b64fbbd8184f8c4a0b38f9d3de0282a6",
      "networkId": 0,
      "chainId": 0
    },
    {
      "hash": "0x877bcd4a4cc3006835a4f011f6e0f107cf12aafa24547c24c212bbd9cf011029",
      "blockHash": "0xb096b4ba73e06612855a95bcecedc8ba81b1c63af5e83e3b766149bef89edad7",
      "blockNumber": 82374,
      "transactionIndex": 2,
      "confirmations": null,
      "from": "0xe3A29c590ae7Bf0D32A7121373bf5C94ADbeCa4a",
      "gasPrice": {
        "_hex": "0xd1958c16e"
      },
      "gasLimit": {
        "_hex": "0x5208"
      },
      "to": "0x32Be343B94f860124dC4fEe278FDCBD38C102D88",
      "value": {
        "_hex": "0x1369fdfd0904e000000"
      },
      "nonce": 5,
      "data": "0x",
      "r": "0x7a682c3d5e50c39fd7add3ebb1cfb88fd1e0a02d4980999b155d9812b0e9af0b",
      "s": "0x1a7cba86a804cbd1e80ee48ad2068328d569a81743b08948677a862077c4f054",
      "v": 28,
      "creates": null,
      "raw": "0xf86e05850d1958c16e8252089432be343b94f860124dc4fee278fdcbd38c102d888a01369fdfd0904e000000801ca07a682c3d5e50c39fd7add3ebb1cfb88fd1e0a02d4980999b155d9812b0e9af0ba01a7cba86a804cbd1e80ee48ad2068328d569a81743b08948677a862077c4f054",
      "networkId": 0,
      "chainId": 0
    },
    {
      "hash": "0x1445afa2ed0e75484c777b4dc05dd9d4e6e3e7eb40d2f508c03d00f625a10386",
      "blockHash": "0xb096b4ba73e06612855a95bcecedc8ba81b1c63af5e83e3b766149bef89edad7",
      "blockNumber": 82374,
      "transactionIndex": 3,
      "confirmations": null,
      "from": "0x7548566f611b89EBfb57C547FeA0c293A2830aD2",
      "gasPrice": {
        "_hex": "0xd1958c16e"
      },
      "gasLimit": {
        "_hex": "0x5208"
      },
      "to": "0x32Be343B94f860124dC4fEe278FDCBD38C102D88",
      "value": {
        "_hex": "0xddc842b8fc63800"
      },
      "nonce": 0,
      "data": "0x",
      "r": "0xb993ba34c3f65fbb5060273874a48367745f67d96efc14ce5bd8f77a58824ad5",
      "s": "0x057fe3f82175f7b9c1ffd4c5b5f5975ae3af153de78eb036f4e434232fa44163",
      "v": 28,
      "creates": null,
      "raw": "0xf86c80850d1958c16e8252089432be343b94f860124dc4fee278fdcbd38c102d88880ddc842b8fc63800801ca0b993ba34c3f65fbb5060273874a48367745f67d96efc14ce5bd8f77a58824ad5a0057fe3f82175f7b9c1ffd4c5b5f5975ae3af153de78eb036f4e434232fa44163",
      "networkId": 0,
      "chainId": 0
    },
    {
      "hash": "0xb3698cfa0d555a4f38f7df56eb8ce631eaeaff21dd4181ae4dd5ada2b744d23d",
      "blockHash": "0xb096b4ba73e06612855a95bcecedc8ba81b1c63af5e83e3b766149bef89edad7",
      "blockNumber": 82374,
      "transactionIndex": 4,
      "confirmations": null,
      "from": "0x151e1b655BC131b5aCf57Df4C4193029a2Af43bE",
      "gasPrice": {
        "_hex": "0xd1958c16e"
      },
      "gasLimit": {
        "_hex": "0x5208"
      },
      "to": "0x32Be343B94f860124dC4fEe278FDCBD38C102D88",
      "value": {
        "_hex": "0xd55eb5e1ac27a0000"
      },
      "nonce": 2,
      "data": "0x",
      "r": "0x0b40ede7228cecd45d58286f9d80707ecab13da0fd570d0403ff406a444af65c",
      "s": "0x1e31937e4839c5200035f8c2788d9a2b9c2dddadd78c2d57bf89306e872dbf30",
      "v": 28,
      "creates": null,
      "raw": "0xf86d02850d1958c16e8252089432be343b94f860124dc4fee278fdcbd38c102d88890d55eb5e1ac27a0000801ca00b40ede7228cecd45d58286f9d80707ecab13da0fd570d0403ff406a444af65ca01e31937e4839c5200035f8c2788d9a2b9c2dddadd78c2d57bf89306e872dbf30",
      "networkId": 0,
      "chainId": 0
    }
  ]
}