{
  "hash": "0x99b3d0bd2a85642d7f9838af357d6c64b7eba00990ec4f7d593d62da67fd7a5c",
  "parentHash": "0x6719835bf58a4149999f2ec833330222be8166a511156cf1feb547112b2de192",
  "number": 63975,
  "timestamp": 1439213425,
  "nonce": "0x6ed7886cc714e442",
  "difficulty": 1843124797143,
  "gasLimit": {
    "_hex": "0x2fefd8"
  },
  "gasUsed": {
    "_hex": "0xa410"
  },
  "miner": "0xee5379D0c1ca47327368027455074C26D9952628",
  "extraData": "0x476574682f76312e302e312d38326566323666362f6c696e75782f676f312e34",
  "transactions": [
    {
      "hash": "0x328176ed2c5e161ec929c2ba66d470b11c54f16d1eeb36fe7a24e2c6203225a9",
      "blockHash": "0x99b3d0bd2a85642d7f9838af357d6c64b7eba00990ec4f7d593d62da67fd7a5c",
      "blockNumber": 63975,
      "transactionIndex": 0,
      "confirmations": null,
      "from": "0x3175a28CF6105466923f11bFFabD279F162aa2f8",
      "gasPrice": {
        "_hex": "0xdf511cd24"
      },
      "gasLimit": {
        "_hex": "0x5208"
      },
      "to": "0x32Be343B94f860124dC4fEe278FDCBD38C102D88",
      "value": {
        "_hex": "0x14cca4b43b178c00"
      },
      "nonce": 3,
      "data": "0x",
      "r": "0x296d3e78a0197edc0e5b5eaf85f244945ac6f0be059d3bd858446847a4e603b6",
      "s": "0x29745aea4465c4144c959cc52c7385ae9f29d252afddbbd9bd97f7cbe893258b",
      "v": 27,
      "creates": null,
      "raw": "0xf86c03850df511cd248252089432be343b94f860124dc4fee278fdcbd38c102d888814cca4b43b178c00801ba0296d3e78a0197edc0e5b5eaf85f244945ac6f0be059d3bd858446847a4e603b6a029745aea4465c4144c959cc52c7385ae9f29d252afddbbd9bd97f7cbe893258b",
      "networkId": 0,
      "chainId": 0
    },
    {
      "hash": "0xaef70ec23619f67b2ece9e9e30fcfb9f3293882e30a934d9c9c4934f3e3f8c9a",
      "blockHash": "0x99b3d0bd2a85642d7f9838af357d6c64b7eba00990ec4f7d593d62da67fd7a5c",
      "blockNumber": 63975,
      "transactionIndex": 1,
      "confirmations": null,
      "from": "0x5a09fCD65081Be9d1baFa0493697d85AeCBb22AE",
      "gasPrice": {
        "_hex": "0xba43b7400"
      },
      "gasLimit": {
        "_hex": "0x5266"
      },
      "to": "0x1527fcd698B3A8707bb745F80ab114FfF3Db35E2",
      "value": {
        "_hex": "0x1388"
      },
      "nonce": 1,
      "data": "0x",
      "r": "0x2a1e27b0eba0a73636cb0d064fe904682f0200c2087cd4555acee57ff0989e90",
      "s": "0xd899b8d362d9ea17d912793e4cbd3226026fed33df5cd3265dae383bb45e2ab6",
      "v": 28,
      "creates": null,
      "raw": "0xf86601850ba43b7400825266941527fcd698b3a8707bb745f80ab114fff3db35e2821388801ca02a1e27b0eba0a73636cb0d064fe904682f0200c2087cd4555acee57ff0989e90a0d899b8d362d9ea17d912793e4cbd3226026fed33df5cd3265dae383bb45e2ab6",
      "networkId": 0,
      "chainId": 0
    }
  ]
}