{
  "hash": "0x8a303a7773843658eecedec850f6da49f0702548b2424e232fee698811c74d82",
  "parentHash": "0x36814dbe26e6aca532eebf5009ce456e3b672886ddbe62afdadba86027e99565",
  "number": 61179,
  "timestamp": 1439168107,
  "nonce": "0x1f51df60a82fec38",
  "difficulty": 1730342095863,
  "gasLimit": {
    "_hex": "0x2fefd8"
  },
  "gasUsed": {
    "_hex": "0x5208"
  },
  "miner": "0x93641e54c9aA6F9038FE7Adb03629a1747326Cd6",
  "extraData": "0x476574682f76312e302e312f77696e646f77732f676f312e342e32",
  "transactions": [
    {
      "hash": "0xf462262a2975614a45b9f2f8015e7d12ac279c8165efae56480001bb9eb5e8f8",
      "blockHash": "0x8a303a7773843658eecedec850f6da49f0702548b2424e232fee698811c74d82",
      "blockNumber": 61179,
      "transactionIndex": 0,
      "confirmations": null,
      "from": "0x32Be343B94f860124dC4fEe278FDCBD38C102D88",
      "gasPrice": {
        "_hex": "0xda74543c2"
      },
      "gasLimit": {
        "_hex": "0x5208"
      },
      "to": "0x3cb561Ce86424b359891E364eC925FfEFf277DF7",
      "value": {
        "_hex": "0x156bf20d5b46920000"
      },
      "nonce": 131,
      "data": "0x",
      "r": "0x4be4df552a39b5c70fa702f99897a8d53934640b9f3dbcf39d658cc6a7536b5c",
      "s": "0x56fce8d6de5727bf5d676368b99f22553f13686c2d67335156aa31fdbcd760de",
      "v": 28,
      "creates": null,
      "raw": "0xf86e8183850da74543c2825208943cb561ce86424b359891e364ec925ffeff277df789156bf20d5b46920000801ca04be4df552a39b5c70fa702f99897a8d53934640b9f3dbcf39d658cc6a7536b5ca056fce8d6de5727bf5d676368b99f22553f13686c2d67335156aa31fdbcd760de",
      "networkId": 0,
      "chainId": 0
    }
  ]
}