{
  "hash": "0xec2a03b7ba7e4f5d5e75b8463ccc9bf65710ab6574003bc2bb0bdffe4ac3f57c",
  "parentHash": "0x6b77c70d569401d63aaa60f9f6174aab4a06023215eebd7104a213d224d12c07",
  "number": 49342,
  "timestamp": 1438972116,
  "nonce": "0xdc600356216cf8ee",
  "difficulty": 1477072711317,
  "gasLimit": {
    "_hex": "0x2db01"
  },
  "gasUsed": {
    "_hex": "0x5208"
  },
  "miner": "0xf927a40C8B7F6E07c5af7FA2155B4864a4112B13",
  "extraData": "0x476574682f76312e302e312f6c696e75782f676f312e342e32",
  "transactions": [
    {
      "hash": "0x23ffba87bf1d8b49f146fe6d319b66059849e94a0f8d4a359cc523a198d480b2",
      "blockHash": "0xec2a03b7ba7e4f5d5e75b8463ccc9bf65710ab6574003bc2bb0bdffe4ac3f57c",
      "blockNumber": 49342,
      "transactionIndex": 0,
      "confirmations": null,
      "from": "0x61264E7C3EFE9bF95076404CD19b26D309111c77",
      "gasPrice": {
        "_hex": "0x1147ff89792"
      },
      "gasLimit": {
        "_hex": "0x15f90"
      },
      "to": "0xB2Ee3409b1f48d7d8D75B40568D7b5E68A4fb284",
      "value": {
        "_hex": "0x88009813ced40000"
      },
      "nonce": 0,
      "data": "0x",
      "r": "0x8ebc57887e2db6598d527bba87e3bc9ee158ffcf935608f9292317f913cb1355",
      "s": "0x0b367bffb630f4e5f8e5fccfe3b4c6d9c78b4735ab2000c71e7b46d31cf6d3d7",
      "v": 27,
      "creates": null,
      "raw": "0xf86e808601147ff8979283015f9094b2ee3409b1f48d7d8d75b40568d7b5e68a4fb2848888009813ced40000801ba08ebc57887e2db6598d527bba87e3bc9ee158ffcf935608f9292317f913cb1355a00b367bffb630f4e5f8e5fccfe3b4c6d9c78b4735ab2000c71e7b46d31cf6d3d7",
      "networkId": 0,
      "chainId": 0
    }
  ]
}