{
  "hash": "0x0d68b0c960eee869735c1f71eeb095f0f849d0fa213b49847f98d5ccb76c3210",
  "parentHash": "0x775e78a3c16caf24668b163df72337fe763c92bfc77648e1fb6e3614be2adc7f",
  "number": 94706,
  "timestamp": 1439712775,
  "nonce": "0x85a736d48591fde5",
  "difficulty": 3483145409151,
  "gasLimit": {
    "_hex": "0x2fefd8"
  },
  "gasUsed": {
    "_hex": "0x5208"
  },
  "miner": "0x9D49F602b0fdb924Bd63DDE2Bd0907E4A07c63a7",
  "extraData": "0x476574682f76312e302e312f6c696e75782f676f312e342e32",
  "transactions": [
    {
      "hash": "0xbb03b3c0be2524cf6c17359c29005bc10cf364faaf1b1faa9ad7e11b7529132c",
      "blockHash": "0x0d68b0c960eee869735c1f71eeb095f0f849d0fa213b49847f98d5ccb76c3210",
      "blockNumber": 94706,
      "transactionIndex": 0,
      "confirmations": null,
      "from": "0xa61ff394e3846F8bfbBF8801afb051730B04Ee75",
      "gasPrice": {
        "_hex": "0xdbf91d452"
      },
      "gasLimit": {
        "_hex": "0x5208"
      },
      "to": "0x32Be343B94f860124dC4fEe278FDCBD38C102D88",
      "value": {
        "_hex": "0x1ac7b0e2dbe71a000"
      },
      "nonce": 4,
      "data": "0x",
      "r": "0xee3c6d9bd0d2092c2f4f8beae43302b4bf41b4181c395eb89b1e6be20f037d41",
      "s": "0x4466bd906c56fd0e31b23fa6703c7faa45f40f6cf84712b9e539ec96e9f15a8c",
      "v": 28,
      "creates": null,
      "raw": "0xf86d04850dbf91d4528252089432be343b94f860124dc4fee278fdcbd38c102d888901ac7b0e2dbe71a000801ca0ee3c6d9bd0d2092c2f4f8beae43302b4bf41b4181c395eb89b1e6be20f037d41a04466bd906c56fd0e31b23fa6703c7faa45f40f6cf84712b9e539ec96e9f15a8c",
      "networkId": 0,
      "chainId": 0
    }
  ]
}