{
  "hash": "0x4043da694af63d02bcdc1ab52225ea6d73819adf85b7c8d2224fd5cf8659a2de",
  "parentHash": "0x98e3179235d1c394708338b3e268000e8cd833ba4e01965f712bddca00f82d9a",
  "number": 62478,
  "timestamp": 1439189508,
  "nonce": "0xdb25ccc420593acd",
  "difficulty": 1759894958227,
  "gasLimit": {
    "_hex": "0x2fefd5"
  },
  "gasUsed": {
    "_hex": "0xa674"
  },
  "miner": "0x306e6267d94f23a9b37Cb110f20852208Fbbf1aA",
  "extraData": "0x476574682f76312e302e312f77696e646f77732f676f312e342e32",
  "transactions": [
    {
      "hash": "0x61e5bdbfa76d0e85d54435f08395cba9167d8154c87653521a3342f0ce984e84",
      "blockHash": "0x4043da694af63d02bcdc1ab52225ea6d73819adf85b7c8d2224fd5cf8659a2de",
      "blockNumber": 62478,
      "transactionIndex": 0,
      "confirmations": null,
      "from": "0xD913f0771949753c4726ACAA2bD3619C5C20FF77",
      "gasPrice": {
        "_hex": "0xd167330d4"
      },
      "gasLimit": {
        "_hex": "0x15f90"
      },
      "to": "0x2910543Af39abA0Cd09dBb2D50200b3E800A63D2",
      "value": {
        "_hex": "0x1b1ae4d6e2ef500000"
      },
      "nonce": 4,
      "data": "0x454e3139574a515047",
      "r": "0xdb40f6098085ff60bae15c2e2b2117a4bee70e010cfe8123c233ec94efcc8192",
      "s": "0x5261ff3b5e4fe5f92c1dad20fc88185cd29b7f08153093c3cd2db3b2c67f83de",
      "v": 27,
      "creates": null,
      "raw": "0xf87704850d167330d483015f90942910543af39aba0cd09dbb2d50200b3e800a63d2891b1ae4d6e2ef50000089454e3139574a5150471ba0db40f6098085ff60bae15c2e2b2117a4bee70e010cfe8123c233ec94efcc8192a05261ff3b5e4fe5f92c1dad20fc88185cd29b7f08153093c3cd2db3b2c67f83de",
      "networkId": 0,
      "chainId": 0
    },
    {
      "hash": "0xd44383b6caf214c9afa1e6a008833b1fc94200b53a8f8b0a5016d329766645c5",
      "blockHash": "0x4043da694af63d02bcdc1ab52225ea6d73819adf85b7c8d2224fd5cf8659a2de",
      "blockNumber": 62478,
      "transactionIndex": 1,
      "confirmations": null,
      "from": "0x120A270bbC009644e35F0bB6ab13f95b8199c4ad",
      "gasPrice": {
        "_hex": "0xcb02011f5"
      },
      "gasLimit": {
        "_hex": "0x15f90"
      },
      "to": "0x59B0919d408f6c5c498E72e52f5e06B37f82f8de",
      "value": {
        "_hex": "0x56bc75e2d63100000"
      },
      "nonce": 90,
      "data": "0x",
      "r": "0x3c38fa9fcdde485b4fb0805287de96e56932dd96ab27a1eb104df674f51da2cc",
      "s": "0x7249df0331e54df576dd05d19d28892daffae7517b8c6eaf9784235d91209eb9",
      "v": 28,
      "creates": null,
      "raw": "0xf86e5a850cb02011f583015f909459b0919d408f6c5c498e72e52f5e06b37f82f8de89056bc75e2d63100000801ca03c38fa9fcdde485b4fb0805287de96e56932dd96ab27a1eb104df674f51da2cca07249df0331e54df576dd05d19d28892daffae7517b8c6eaf9784235d91209eb9",
      "networkId": 0,
      "chainId": 0
    }
  ]
}