{
  "hash": "0xb2db208cdc73cb313fa5ac5a65d716318bc805b67d97a4466489b3c3e250c58b",
  "parentHash": "0x7b61ffe05aaa97731dfb6589636ccb3a785d0b8b8c854c70bc823e2723de0ff3",
  "number": 67132,
  "timestamp": 1439266503,
  "nonce": "0xacefd3b753855cec",
  "difficulty": 1928025084209,
  "gasLimit": {
    "_hex": "0x2fefd8"
  },
  "gasUsed": {
    "_hex": "0xa410"
  },
  "miner": "0x76d4a9bc9612bE738A81d0fE632b00B971E2bB9a",
  "extraData": "0x",
  "transactions": [
    {
      "hash": "0x5f492b313ed5e786978691c2a272d5c5d4b15d8fcdf81901d58d70c3cdb88ef9",
      "blockHash": "0xb2db208cdc73cb313fa5ac5a65d716318bc805b67d97a4466489b3c3e250c58b",
      "blockNumber": 67132,
      "transactionIndex": 0,
      "confirmations": null,
      "from": "0x120A270bbC009644e35F0bB6ab13f95b8199c4ad",
      "gasPrice": {
        "_hex": "0xe069a6903"
      },
      "gasLimit": {
        "_hex": "0x15f90"
      },
      "to": "0x7244C460dEA1e5835772469AbBF5426D4ad14d59",
      "value": {
        "_hex": "0x46da44c7379b8c0000"
      },
      "nonce": 156,
      "data": "0x",
      "r": "0x00ab8b78d77ee3f864375317123fbeaea3a3d94a0148bd421fb4a26f031a9888",
      "s": "0x425ef44d708049b3f1022f78c2a90ae43fad5b5ecb894c1886e2c7bc97d89f18",
      "v": 27,
      "creates": null,
      "raw": "0xf86e819c850e069a690383015f90947244c460dea1e5835772469abbf5426d4ad14d598946da44c7379b8c0000801b9fab8b78d77ee3f864375317123fbeaea3a3d94a0148bd421fb4a26f031a9888a0425ef44d708049b3f1022f78c2a90ae43fad5b5ecb894c1886e2c7bc97d89f18",
      "networkId": 0,
      "chainId": 0
    },
    {
      "hash": "0xc119923e224f6595f8b93c1ad4f3fa4ab8c5afc709e2d0518e58a2d867054cc5",
      "blockHash": "0xb2db208cdc73cb313fa5ac5a65d716318bc805b67d97a4466489b3c3e250c58b",
      "blockNumber": 67132,
      "transactionIndex": 1,
      "confirmations": null,
      "from": "0x120A270bbC009644e35F0bB6ab13f95b8199c4ad",
      "gasPrice": {
        "_hex": "0xe069a6903"
      },
      "gasLimit": {
        "_hex": "0x15f90"
      },
      "to": "0xF6F1A44309051c6B25e47dff909B179Bb9aB591C",
      "value": {
        "_hex": "0x1b1ae4d6e2ef500000"
      },
      "nonce": 157,
      "data": "0x",
      "r": "0xc944b8765fed66a6b78a2958ddfc2dc9e366732f93d646103c54924c98877173",
      "s": "0x1cb8e64dc8a8d111da12b798769fe6cda66acb0ce91aa796771c01def8f6a39f",
      "v": 27,
      "creates": null,
      "raw": "0xf86f819d850e069a690383015f9094f6f1a44309051c6b25e47dff909b179bb9ab591c891b1ae4d6e2ef500000801ba0c944b8765fed66a6b78a2958ddfc2dc9e366732f93d646103c54924c98877173a01cb8e64dc8a8d111da12b798769fe6cda66acb0ce91aa796771c01def8f6a39f",
      "networkId": 0,
      "chainId": 0
    }
  ]
}