{
  "hash": "0xf6c0d35fcee9d2777a3352bf035ea346aaf5ea474c578092d88c89a1929bef93",
  "parentHash": "0x72c0187cc57a71c073070826652124233ff949d82da7ebb7c6eed9794eddd77b",
  "number": 112906,
  "timestamp": 1440015104,
  "nonce": "0x16af5e4e1d33bbb3",
  "difficulty": 4454046567927,
  "gasLimit": {
    "_hex": "0x2fefd8"
  },
  "gasUsed": {
    "_hex": "0xa410"
  },
  "miner": "0xe6A7a1d47ff21B6321162AEA7C6CB457D5476Bca",
  "extraData": "0x476574682f76312e302e312d38326566323666362f6c696e75782f676f312e34",
  "transactions": [
    {
      "hash": "0xf1cdf5fd9446014b101c599be1726a6d0857cada31b973415e1df59cf62c928f",
      "blockHash": "0xf6c0d35fcee9d2777a3352bf035ea346aaf5ea474c578092d88c89a1929bef93",
      "blockNumber": 112906,
      "transactionIndex": 0,
      "confirmations": null,
      "from": "0x120A270bbC009644e35F0bB6ab13f95b8199c4ad",
      "gasPrice": {
        "_hex": "0xdaed5b3aa"
      },
      "gasLimit": {
        "_hex": "0x3d090"
      },
      "to": "0xD3c6b518F1631509963232bA8e1882D3474a5838",
      "value": {
        "_hex": "0x22503bb60f63cc0c00"
      },
      "nonce": 903,
      "data": "0x",
      "r": "0x9f6e215a0c51b69ac45028868fbafda6a22d1bab3a29f6e99aebad0d0fd88db0",
      "s": "0x0028af8d77ad311254598b98e0dbba05d3c77b1f7553e7251380956042d29267",
      "v": 27,
      "creates": null,
      "raw": "0xf86f820387850daed5b3aa8303d09094d3c6b518f1631509963232ba8e1882d3474a58388922503bb60f63cc0c00801ba09f6e215a0c51b69ac45028868fbafda6a22d1bab3a29f6e99aebad0d0fd88db09f28af8d77ad311254598b98e0dbba05d3c77b1f7553e7251380956042d29267",
      "networkId": 0,
      "chainId": 0
    },
    {
      "hash": "0x985ddd55fe64c694c215400db1838b0bb17ee06af2bd86f0b77b81452466f4e3",
      "blockHash": "0xf6c0d35fcee9d2777a3352bf035ea346aaf5ea474c578092d88c89a1929bef93",
      "blockNumber": 112906,
      "transactionIndex": 1,
      "confirmations": null,
      "from": "0x32Be343B94f860124dC4fEe278FDCBD38C102D88",
      "gasPrice": {
        "_hex": "0xccdc5290d"
      },
      "gasLimit": {
        "_hex": "0x5208"
      },
      "to": "0x8c0A6b62918D317e3B431EfB67E3fB5eff333b1c",
      "value": {
        "_hex": "0x2b5c0282441c70000"
      },
      "nonce": 1350,
      "data": "0x",
      "r": "0x6f84b9a9b9bcbd29d76eb62e593b0e6d936e9007bdb631d542a857d6dd05e844",
      "s": "0x591564c03b73131098011a48dfde3c345a28648b88d410ca508516b5f636fa70",
      "v": 28,
      "creates": null,
      "raw": "0xf86f820546850ccdc5290d825208948c0a6b62918d317e3b431efb67e3fb5eff333b1c8902b5c0282441c70000801ca06f84b9a9b9bcbd29d76eb62e593b0e6d936e9007bdb631d542a857d6dd05e844a0591564c03b73131098011a48dfde3c345a28648b88d410ca508516b5f636fa70",
      "networkId": 0,
      "chainId": 0
    }
  ]
}