{
  "hash": "0xa2cf5c0d5ab7b84718c48c6e5ca0aa7e8cefcc2b2957d30639face1d39848471",
  "parentHash": "0x261d6340a520686b8b9c55510044b793d8bc2db70501d4f95caa45321dcfea8c",
  "number": 122078,
  "timestamp": 1440187835,
  "nonce": "0x27beca66ae462014",
  "difficulty": 4453526253642,
  "gasLimit": {
    "_hex": "0x2fefd8"
  },
  "gasUsed": {
    "_hex": "0x5208"
  },
  "miner": "0x52bc44d5378309EE2abF1539BF71dE1b7d7bE3b5",
  "extraData": "0xd783010002844765746887676f312e342e32856c696e7578",
  "transactions": [
    {
      "hash": "0x419a2b5fe73d422e9dc2f8a7f3bdd93a608dadbbb54205f37bee29db59e5b06b",
      "blockHash": "0xa2cf5c0d5ab7b84718c48c6e5ca0aa7e8cefcc2b2957d30639face1d39848471",
      "blockNumber": 122078,
      "transactionIndex": 0,
      "confirmations": null,
      "from": "0x2910543Af39abA0Cd09dBb2D50200b3E800A63D2",
      "gasPrice": {
        "_hex": "0xd288b186a"
      },
      "gasLimit": {
        "_hex": "0x5208"
      },
      "to": "0x48C2140d5d4E39F74e8746c405fdb73F63573c8d",
      "value": {
        "_hex": "0x2f6f0f5bd58f4df8000"
      },
      "nonce": 1215,
      "data": "0x",
      "r": "0x3be61b8e022755c2974a1316a08a65d40c73ca69dc2acced5b3a4086dde02563",
      "s": "0x3ea540e4bccb1ffc4ff999ab474dd523bd97833049253e3e6e0a303e81217507",
      "v": 28,
      "creates": null,
      "raw": "0xf8708204bf850d288b186a8252089448c2140d5d4e39f74e8746c405fdb73f63573c8d8a02f6f0f5bd58f4df8000801ca03be61b8e022755c2974a1316a08a65d40c73ca69dc2acced5b3a4086dde02563a03ea540e4bccb1ffc4ff999ab474dd523bd97833049253e3e6e0a303e81217507",
      "networkId": 0,
      "chainId": 0
    }
  ]
}