{
  "hash": "0x6fa94a5f7fc769db6927ad0fddae6e95d41b7bac763207fd498d7f280b0662a1",
  "parentHash": "0x8f0c821fc82af10a43e1c3dbedbc1ead788fef154514f1d6fa0b1d9dd3ef0765",
  "number": 47346,
  "timestamp": 1438938708,
  "nonce": "0x3946401f13772d21",
  "difficulty": 1450263819267,
  "gasLimit": {
    "_hex": "0xb284"
  },
  "gasUsed": {
    "_hex": "0xa410"
  },
  "miner": "0xa50ec0D39fa913E62f1Bae7074E6F36caA71855b",
  "extraData": "0x476574682f76312e302e302f6c696e75782f676f312e342e32",
  "transactions": [
    {
      "hash": "0x8d81cfaeace18e334dc48051dbc651b7eacc990c8cfd5c64a17ce33f5e45dd6b",
      "blockHash": "0x6fa94a5f7fc769db6927ad0fddae6e95d41b7bac763207fd498d7f280b0662a1",
      "blockNumber": 47346,
      "transactionIndex": 0,
      "confirmations": null,
      "from": "0x7aBb10F5bd9BC33B8Ec1A82d64b55b6B18777541",
      "gasPrice": {
        "_hex": "0x174876e800"
      },
      "gasLimit": {
        "_hex": "0x5208"
      },
      "to": "0x34bB6978C5A1aD68777AD388c6787dF53903430c",
      "value": {
        "_hex": "0xd8d726b7177a800000"
      },
      "nonce": 2,
      "data": "0x",
      "r": "0x0efa1a7eb256c1732a10a69c2903750c62cd86ed156798eb30bf897030790268",
      "s": "0x386a8c8f59d5569946620cba88e71df49cfcf3494443534028c8925bc0132c27",
      "v": 28,
      "creates": null,
      "raw": "0xf86d0285174876e8008252089434bb6978c5a1ad68777ad388c6787df53903430c89d8d726b7177a800000801ca00efa1a7eb256c1732a10a69c2903750c62cd86ed156798eb30bf897030790268a0386a8c8f59d5569946620cba88e71df49cfcf3494443534028c8925bc0132c27",
      "networkId": 0,
      "chainId": 0
    },
    {
      "hash": "0x75b9c9f6c0d4b99a26b1e4ab22bf804e996a583848e6a6d6480eeb6b6c178c89",
      "blockHash": "0x6fa94a5f7fc769db6927ad0fddae6e95d41b7bac763207fd498d7f280b0662a1",
      "blockNumber": 47346,
      "transactionIndex": 1,
      "confirmations": null,
      "from": "0x15dE68788d01B2504DF8621cB4721c54eD543305",
      "gasPrice": {
        "_hex": "0x11715c13e4"
      },
      "gasLimit": {
        "_hex": "0x5208"
      },
      "to": "0x42E6723A0c884E922240e56D7B618BeC96F35800",
      "value": {
        "_hex": "0xde0b6b3a7640000"
      },
      "nonce": 0,
      "data": "0x",
      "r": "0xa09a9e1f49f2e41856523811f4f7a6b889ad641bf6f74283d542e243b24293a7",
      "s": "0x38a4cd5cb8820745898ea5efbcd90e2a4bdde8ec895c1df98ed30dd37a7e5b09",
      "v": 27,
      "creates": null,
      "raw": "0xf86c808511715c13e48252089442e6723a0c884e922240e56d7b618bec96f35800880de0b6b3a7640000801ba0a09a9e1f49f2e41856523811f4f7a6b889ad641bf6f74283d542e243b24293a7a038a4cd5cb8820745898ea5efbcd90e2a4bdde8ec895c1df98ed30dd37a7e5b09",
      "networkId": 0,
      "chainId": 0
    }
  ]
}