{
  "hash": "0xa44ed608e5ecfddfc27b0bda1d375a6c97bd44de7f306a74c5b11e076b366881",
  "parentHash": "0x576fde77d2e2fe6c9c85601a1328737d18c538081b47a58ab8dbd0b0ec0fe1b2",
  "number": 119962,
  "timestamp": 1440151444,
  "nonce": "0x835b7980fa86903e",
  "difficulty": 4432951579354,
  "gasLimit": {
    "_hex": "0x2fefd8"
  },
  "gasUsed": {
    "_hex": "0x5208"
  },
  "miner": "0x7E6930B63D03e88F5928C5cd6ee3FCee4D714F7F",
  "extraData": "0xd783010003844765746887676f312e342e32856c696e7578",
  "transactions": [
    {
      "hash": "0x719207a0fbd9dbda36c87b38abcdfbd523f7ae7c8183bd68d48852e788b90fe0",
      "blockHash": "0xa44ed608e5ecfddfc27b0bda1d375a6c97bd44de7f306a74c5b11e076b366881",
      "blockNumber": 119962,
      "transactionIndex": 0,
      "confirmations": null,
      "from": "0x4245271A2F40593fb9F66A98202b3Dc1a8593cD2",
      "gasPrice": {
        "_hex": "0xbd4f15b9c"
      },
      "gasLimit": {
        "_hex": "0x15f90"
      },
      "to": "0x976349705b839e2F5719387Fb27D2519d519da03",
      "value": {
        "_hex": "0x470de4df820000"
      },
      "nonce": 4,
      "data": "0x",
      "r": "0xe753d89a0c36c1ac4e4ef8833f81cdd10d954e385975b2689a794cae7ef20d6e",
      "s": "0x789e29a5f662c87efdd2960822ecb31540aac7954876acd0956f83efc07d9f77",
      "v": 27,
      "creates": null,
      "raw": "0xf86c04850bd4f15b9c83015f9094976349705b839e2f5719387fb27d2519d519da0387470de4df820000801ba0e753d89a0c36c1ac4e4ef8833f81cdd10d954e385975b2689a794cae7ef20d6ea0789e29a5f662c87efdd2960822ecb31540aac7954876acd0956f83efc07d9f77",
      "networkId": 0,
      "chainId": 0
    }
  ]
}