{
  "hash": "0xb5eec3dfbea012ae9c4acfe00be82220716860c5845a442dcc42c83738459e49",
  "parentHash": "0xef4613223a5579c3627e790d5edda2fc65ca5a13f53f7b7aec42ace796a5cb86",
  "number": 64821,
  "timestamp": 1439226786,
  "nonce": "0xf810c18da9cb85ed",
  "difficulty": 1899584122535,
  "gasLimit": {
    "_hex": "0x2fefd8"
  },
  "gasUsed": {
    "_hex": "0x17cd8"
  },
  "miner": "0xe997A23B159E2E2a5Ce72333262972374B15425c",
  "extraData": "0x",
  "transactions": [
    {
      "hash": "0x5dcdbf41f4580a559494188e23a42b7235253dea8250f55e6053853b86f2e81c",
      "blockHash": "0xb5eec3dfbea012ae9c4acfe00be82220716860c5845a442dcc42c83738459e49",
      "blockNumber": 64821,
      "transactionIndex": 0,
      "confirmations": null,
      "from": "0x52689EcF4dBEa4Aa134Cf9D72085BceE7B14e08E",
      "gasPrice": {
        "_hex": "0xba43b7400"
      },
      "gasLimit": {
        "_hex": "0x15f90"
      },
      "to": "0x793AE8C1b1a160BFc07BFB0d04F85eab1A71F4f2",
      "value": {
        "_hex": "0x0"
      },
      "nonce": 0,
      "data": "0x3ba15036",
      "r": "0x08dd1dbea34704745eaac6c3e2d961874404733458aa8fa271d191a9ed74ab75",
      "s": "0x0eed4b5492b92d7b6532ea185217e4911d109a1449ad70b05bceb7fafe182bca",
      "v": 28,
      "creates": null,
      "raw": "0xf86980850ba43b740083015f9094793ae8c1b1a160bfc07bfb0d04f85eab1a71f4f280843ba150361ca008dd1dbea34704745eaac6c3e2d961874404733458aa8fa271d191a9ed74ab75a00eed4b5492b92d7b6532ea185217e4911d109a1449ad70b05bceb7fafe182bca",
      "networkId": 0,
      "chainId": 0
    },
    {
      "hash": "0x3ac592316e953a09ae1ae99e7b6ea127132e13668f9be09e121474e0f3b077e6",
      "blockHash": "0xb5eec3dfbea012ae9c4acfe00be82220716860c5845a442dcc42c83738459e49",
      "blockNumber": 64821,
      "transactionIndex": 1,
      "confirmations": null,
      "from": "0xe6e41587F259c8aC862F6276aF333DdfB03FAA37",
      "gasPrice": {
        "_hex": "0xba43b7400"
      },
      "gasLimit": {
        "_hex": "0x15f90"
      },
      "to": "0x793AE8C1b1a160BFc07BFB0d04F85eab1A71F4f2",
      "value": {
        "_hex": "0x0"
      },
      "nonce": 0,
      "data": "0x3ba15036",
      "r": "0x0129a27943136ecfcc10984d44741c7801b1efd110980149954e31d508d75c1e",
      "s": "0x40f769c7b71db1b4f612f29f6edb08118c1ceb87ce96cf40efe0f65474afb920",
      "v": 27,
      "creates": null,
      "raw": "0xf86980850ba43b740083015f9094793ae8c1b1a160bfc07bfb0d04f85eab1a71f4f280843ba150361ba00129a27943136ecfcc10984d44741c7801b1efd110980149954e31d508d75c1ea040f769c7b71db1b4f612f29f6edb08118c1ceb87ce96cf40efe0f65474afb920",
      "networkId": 0,
      "chainId": 0
    }
  ]
}