{
  "hash": "0x2b273e42bf98dce450bd6312f936c32ef31c9c5254ae902e8d5bc17e42bb9b25",
  "parentHash": "0xf85a68c75c4609381f385956db469f380e0cb8ca17f8fb602133404b2156e351",
  "number": 82056,
  "timestamp": 1439512750,
  "nonce": "0x4f90f3546ac2c443",
  "difficulty": 2395200980887,
  "gasLimit": {
    "_hex": "0x2fefd8"
  },
  "gasUsed": {
    "_hex": "0x5208"
  },
  "miner": "0xF2d2AfF1320476cb8C6b607199D23175cc595693",
  "extraData": "0x476574682f76312e302e312f77696e646f77732f676f312e342e32",
  "transactions": [
    {
      "hash": "0xe20c5ad1f2bdeb8df946033cc51cda21128cfdd775793da23e53b5510c51d620",
      "blockHash": "0x2b273e42bf98dce450bd6312f936c32ef31c9c5254ae902e8d5bc17e42bb9b25",
      "blockNumber": 82056,
      "transactionIndex": 0,
      "confirmations": null,
      "from": "0xd5d9a0033e6B0A3ba7634d0e1a9055ad5f452C3D",
      "gasPrice": {
        "_hex": "0xd5e777100"
      },
      "gasLimit": {
        "_hex": "0x5208"
      },
      "to": "0x32Be343B94f860124dC4fEe278FDCBD38C102D88",
      "value": {
        "_hex": "0xddc6e0622ac8c00"
      },
      "nonce": 6,
      "data": "0x",
      "r": "0xf9b6410f4908de21057a22b49bc5070df8a8721e29e28178683ea41e54f120e5",
      "s": "0x3e1036c44cd6979c418e88ae29a46e078ab247baa40f26f69aa36dc7981fdf97",
      "v": 28,
      "creates": null,
      "raw": "0xf86c06850d5e7771008252089432be343b94f860124dc4fee278fdcbd38c102d88880ddc6e0622ac8c00801ca0f9b6410f4908de21057a22b49bc5070df8a8721e29e28178683ea41e54f120e5a03e1036c44cd6979c418e88ae29a46e078ab247baa40f26f69aa36dc7981fdf97",
      "networkId": 0,
      "chainId": 0
    }
  ]
}