{
  "hash": "0x7d18ac3bd14c303382b75dd7659f7c521d9a853f369e74885365360f032916af",
  "parentHash": "0x3a2b1e9f9f551a95c0a56dc58e1be29cc4dd845143ac87fc8f13af6bece0d9ad",
  "number": 98015,
  "timestamp": 1439765679,
  "nonce": "0xeb84db731cc3d495",
  "difficulty": 3859619591052,
  "gasLimit": {
    "_hex": "0x2fefd8"
  },
  "gasUsed": {
    "_hex": "0x520c"
  },
  "miner": "0xfC25864D8326b4CB335C6942218e5F4Ee8D1E1EF",
  "extraData": "0x476574682f76312e302e312f77696e646f77732f676f312e342e32",
  "transactions": [
    {
      "hash": "0x5e4063be6922785d098418a5786a15b8e7277bd40bff8061950a0e1a8a8a760d",
      "blockHash": "0x7d18ac3bd14c303382b75dd7659f7c521d9a853f369e74885365360f032916af",
      "blockNumber": 98015,
      "transactionIndex": 0,
      "confirmations": null,
      "from": "0xEaB8D56D25517E84113A10b3b69C242A3E000Dd9",
      "gasPrice": {
        "_hex": "0xd47664797"
      },
      "gasLimit": {
        "_hex": "0x7530"
      },
      "to": "0x97a0BD8D5FA29F234F5804b23f1AD0f416302742",
      "value": {
        "_hex": "0xde0b6b3a7640000"
      },
      "nonce": 0,
      "data": "0x00",
      "r": "0xce66766b7a7691d612bc31502ed95be2502f05ea66b57190a499b548dee1a61b",
      "s": "0xfd610feef3e25ff9040278e3840617b0201c9a112217cb8fcf126f05dbcb5b32",
      "v": 28,
      "creates": null,
      "raw": "0xf86c80850d476647978275309497a0bd8d5fa29f234f5804b23f1ad0f416302742880de0b6b3a7640000001ca0ce66766b7a7691d612bc31502ed95be2502f05ea66b57190a499b548dee1a61ba0fd610feef3e25ff9040278e3840617b0201c9a112217cb8fcf126f05dbcb5b32",
      "networkId": 0,
      "chainId": 0
    }
  ]
}