{
  "hash": "0xb7748b1202305f06500c1378324cda1230e9010f525abcb78a83cef27d3f0a91",
  "parentHash": "0x921cfe46aae0edc98a3dcd0a782eeeaefb9cdcc69748134674cdc988fc597299",
  "number": 67039,
  "timestamp": 1439264816,
  "nonce": "0xf1912c4d2f57e3c9",
  "difficulty": 1934647737435,
  "gasLimit": {
    "_hex": "0x2fefd8"
  },
  "gasUsed": {
    "_hex": "0xf618"
  },
  "miner": "0xEF247E639d49461D25F57e9362CadE3120910Ce0",
  "extraData": "0x476574682f76312e302e312f6c696e75782f676f312e342e32",
  "transactions": [
    {
      "hash": "0xab62ba42e9ecd41ec1120a5f7e64047a3feae71e7dfbac4e5581ffdccb4b4af1",
      "blockHash": "0xb7748b1202305f06500c1378324cda1230e9010f525abcb78a83cef27d3f0a91",
      "blockNumber": 67039,
      "transactionIndex": 0,
      "confirmations": null,
      "from": "0xF7e66D2622220807d8696064E94ca24b1dC6e7Da",
      "gasPrice": {
        "_hex": "0xdd40df608"
      },
      "gasLimit": {
        "_hex": "0x5208"
      },
      "to": "0x32Be343B94f860124dC4fEe278FDCBD38C102D88",
      "value": {
        "_hex": "0x455f2328e7d99400"
      },
      "nonce": 5,
      "data": "0x",
      "r": "0x6d20844498cdeb833262f08d8317a95943d39f8e3c5ed9cf4fdade22e64d9de0",
      "s": "0x6888c8bd77b0eee630c9b9b61254d7af79fd68c86b8d79bce6e54016041cb068",
      "v": 27,
      "creates": null,
      "raw": "0xf86c05850dd40df6088252089432be343b94f860124dc4fee278fdcbd38c102d8888455f2328e7d99400801ba06d20844498cdeb833262f08d8317a95943d39f8e3c5ed9cf4fdade22e64d9de0a06888c8bd77b0eee630c9b9b61254d7af79fd68c86b8d79bce6e54016041cb068",
      "networkId": 0,
      "chainId": 0
    },
    {
      "hash": "0x4c1a0c0d5a9a6067f7d1745cf58c54e85f55987aacac74402d1e5dead4dae6d6",
      "blockHash": "0xb7748b1202305f06500c1378324cda1230e9010f525abcb78a83cef27d3f0a91",
      "blockNumber": 67039,
      "transactionIndex": 1,
      "confirmations": null,
      "from": "0x27e806e70622d2864e1B1f4426D72FFb0457C83a",
      "gasPrice": {
        "_hex": "0xdd40df608"
      },
      "gasLimit": {
        "_hex": "0x5208"
      },
      "to": "0x32Be343B94f860124dC4fEe278FDCBD38C102D88",
      "value": {
        "_hex": "0x3402b1475dca3000"
      },
      "nonce": 7,
      "data": "0x",
      "r": "0x64366e20d681392ea3b1a30d27ddc75fcc1946d2043cd32cd4927042d3ca300d",
      "s": "0x64905db390a91d0b227a89aa461935152c70db55521ce58ab85cf24bc194d09b",
      "v": 28,
      "creates": null,
      "raw": "0xf86c07850dd40df6088252089432be343b94f860124dc4fee278fdcbd38c102d88883402b1475dca3000801ca064366e20d681392ea3b1a30d27ddc75fcc1946d2043cd32cd4927042d3ca300da064905db390a91d0b227a89aa461935152c70db55521ce58ab85cf24bc194d09b",
      "networkId": 0,
      "chainId": 0
    },
    {
      "hash": "0x76ffbed0ebf0174caac3c6abf910a46aebcbc5c2c16f0e9312097c735066438e",
      "blockHash": "0xb7748b1202305f06500c1378324cda1230e9010f525abcb78a83cef27d3f0a91",
      "blockNumber": 67039,
      "transactionIndex": 2,
      "confirmations": null,
      "from": "0x43279854AaF8825a6d1fcCf056caF190Ab8a7b76",
      "gasPrice": {
        "_hex": "0xdd40df608"
      },
      "gasLimit": {
        "_hex": "0x5208"
      },
      "to": "0x32Be343B94f860124dC4fEe278FDCBD38C102D88",
      "value": {
        "_hex": "0x6c6b8eed300c180000"
      },
      "nonce": 1,
      "data": "0x",
      "r": "0xa2eb540d54168f76588b4d1e242fd9fe50fc552b993b2627faa1604bbbf30fab",
      "s": "0x152e0aa4f2fac9f9c2125b82d459d1966c36c579ed8f0e3f796dbb33d7ffb1e9",
      "v": 27,
      "creates": null,
      "raw": "0xf86d01850dd40df6088252089432be343b94f860124dc4fee278fdcbd38c102d88896c6b8eed300c180000801ba0a2eb540d54168f76588b4d1e242fd9fe50fc552b993b2627faa1604bbbf30faba0152e0aa4f2fac9f9c2125b82d459d1966c36c579ed8f0e3f796dbb33d7ffb1e9",
      "networkId": 0,
      "chainId": 0
    }
  ]
}