{
  "hash": "0x602680c32b6b0d97e8d9d7db5e668a1dbb78fa4f3822e77a5bbf9e9ee3521024",
  "parentHash": "0x7d390ce27f5a9082140e30d9b86021b6f110401b0ed62298c55a167cd38b3f5b",
  "number": 47261,
  "timestamp": 1438937029,
  "nonce": "0xa209561cc71dc721",
  "difficulty": 1462367063005,
  "gasLimit": {
    "_hex": "0xa9a0"
  },
  "gasUsed": {
    "_hex": "0x5208"
  },
  "miner": "0x1B7047b4338ACf65bE94C1A3e8c5c9338ad7d67C",
  "extraData": "0x476574682f76312e302e312d38326566323666362f6c696e75782f676f312e34",
  "transactions": [
    {
      "hash": "0x6b7be74d59a16f533c69e2d90894045a66c2a4f9fda10109c83d8208689c5e21",
      "blockHash": "0x602680c32b6b0d97e8d9d7db5e668a1dbb78fa4f3822e77a5bbf9e9ee3521024",
      "blockNumber": 47261,
      "transactionIndex": 0,
      "confirmations": null,
      "from": "0xF0a3af9e925b07D1FAA4ddF8beBfAA86B7B95e33",
      "gasPrice": {
        "_hex": "0xdf8475800"
      },
      "gasLimit": {
        "_hex": "0x5208"
      },
      "to": "0x537fbDe14cF29Bb12e0b2561e3f75Bc8ab73bC04",
      "value": {
        "_hex": "0x5f5e100"
      },
      "nonce": 0,
      "data": "0x",
      "r": "0x9966508a8954b1375fab65b5ffe4d39cd797c0129374d559f2c81387b80816e8",
      "s": "0x047c646380658f6a5c74b595a91bc49d38a6d8572d08e33ae820109ae37c2052",
      "v": 27,
      "creates": null,
      "raw": "0xf86880850df847580082520894537fbde14cf29bb12e0b2561e3f75bc8ab73bc048405f5e100801ba09966508a8954b1375fab65b5ffe4d39cd797c0129374d559f2c81387b80816e8a0047c646380658f6a5c74b595a91bc49d38a6d8572d08e33ae820109ae37c2052",
      "networkId": 0,
      "chainId": 0
    }
  ]
}