{
  "hash": "0xbb159fc0ecc215152921daed9f20462b0316181d8f0c377f3e5f130c3227cdbf",
  "parentHash": "0x24d5fb00c55e7a44480246e80a1ff2bd214c223740476daad42259cf30704292",
  "number": 110239,
  "timestamp": 1439970368,
  "nonce": "0x16fb77368fb737df",
  "difficulty": 4371420375608,
  "gasLimit": {
    "_hex": "0x2fefd8"
  },
  "gasUsed": {
    "_hex": "0x520c"
  },
  "miner": "0xe6A7a1d47ff21B6321162AEA7C6CB457D5476Bca",
  "extraData": "0x476574682f76312e302e312d38326566323666362f6c696e75782f676f312e34",
  "transactions": [
    {
      "hash": "0x7a4e8b3b0af30dea332cc2f32eec0bc7db846c2dd540ee75bd5335815696612a",
      "blockHash": "0xbb159fc0ecc215152921daed9f20462b0316181d8f0c377f3e5f130c3227cdbf",
      "blockNumber": 110239,
      "transactionIndex": 0,
      "confirmations": null,
      "from": "0xb9836ec1f42Bd48331bceaedb74a6Bcdc22832bD",
      "gasPrice": {
        "_hex": "0xcf91dda86"
      },
      "gasLimit": {
        "_hex": "0x7530"
      },
      "to": "0x7cB57B5A97eAbe94205C07890BE4c1aD31E486A8",
      "value": {
        "_hex": "0x38d7ea4c68000"
      },
      "nonce": 16,
      "data": "0x00",
      "r": "0x75bddef3f82c57f18ab38e94405506ef8a6a2b84b34c4e8588c92b13bf744b63",
      "s": "0xc6a1406474375749ec23578138c9d1a76dfd7f804d4a4179520519f2ae5e54f0",
      "v": 27,
      "creates": null,
      "raw": "0xf86b10850cf91dda86827530947cb57b5a97eabe94205c07890be4c1ad31e486a887038d7ea4c68000001ba075bddef3f82c57f18ab38e94405506ef8a6a2b84b34c4e8588c92b13bf744b63a0c6a1406474375749ec23578138c9d1a76dfd7f804d4a4179520519f2ae5e54f0",
      "networkId": 0,
      "chainId": 0
    }
  ]
}