{
  "hash": "0x9801f3631b501aed21365c1bbc78fc4b1fc4d170d6b545fbba01032e40fd59cd",
  "parentHash": "0x8f85f7b4f0fc745eca523945d4803b234a08bc64de355d57d2f8c10dffbda2d5",
  "number": 55998,
  "timestamp": 1439080607,
  "nonce": "0xf1a0646a38e4b886",
  "difficulty": 1613064794943,
  "gasLimit": {
    "_hex": "0x2fefd8"
  },
  "gasUsed": {
    "_hex": "0x5208"
  },
  "miner": "0x02020D22dCF88f5eDd66B382D7da019F161fB7e3",
  "extraData": "0x",
  "transactions": [
    {
      "hash": "0x4bf1555a6254eeaa103e455c603fd1993b000dab5e813ecc17974dff37c4f3c8",
      "blockHash": "0x9801f3631b501aed21365c1bbc78fc4b1fc4d170d6b545fbba01032e40fd59cd",
      "blockNumber": 55998,
      "transactionIndex": 0,
      "confirmations": null,
      "from": "0x120A270bbC009644e35F0bB6ab13f95b8199c4ad",
      "gasPrice": {
        "_hex": "0xdc4fd2207"
      },
      "gasLimit": {
        "_hex": "0x15f90"
      },
      "to": "0xA1eEc0a9b7C50B8e79A0D9B8760bC5681fb199EC",
      "value": {
        "_hex": "0x473cd4431c680800"
      },
      "nonce": 26,
      "data": "0x",
      "r": "0xbdebfe0ce2b1639bbcd4e3249025228bec71095b8d23aebc4cd987343705e9f0",
      "s": "0x3f53d360c3a6a4ad464aaa69d0b6780c1201e3e66608bb599f8bb691ab0551aa",
      "v": 27,
      "creates": null,
      "raw": "0xf86d1a850dc4fd220783015f9094a1eec0a9b7c50b8e79a0d9b8760bc5681fb199ec88473cd4431c680800801ba0bdebfe0ce2b1639bbcd4e3249025228bec71095b8d23aebc4cd987343705e9f0a03f53d360c3a6a4ad464aaa69d0b6780c1201e3e66608bb599f8bb691ab0551aa",
      "networkId": 0,
      "chainId": 0
    }
  ]
}