{
  "hash": "0xa9c50e848ef51d8767782f1af4d3518efa9b43455bdf086d71921e61b9c5e55c",
  "parentHash": "0x7e256b93c9feaab56bfee90a1f4e53c98368a9f814d15571c797d67ec41f8cc1",
  "number": 122244,
  "timestamp": 1440190674,
  "nonce": "0x9eee70970874b189",
  "difficulty": 4479609088784,
  "gasLimit": {
    "_hex": "0x2fefd8"
  },
  "gasUsed": {
    "_hex": "0xa410"
  },
  "miner": "0x790b8a3cE86E707ED0eD32bF89B3269692a23CC1",
  "extraData": "0xd783010002844765746887676f312e342e32856c696e7578",
  "transactions": [
    {
      "hash": "0x37b84426eb3a0890051a407e8735201b138726f57f51e9b0c2b4e7b1dc833c6b",
      "blockHash": "0xa9c50e848ef51d8767782f1af4d3518efa9b43455bdf086d71921e61b9c5e55c",
      "blockNumber": 122244,
      "transactionIndex": 0,
      "confirmations": null,
      "from": "0x608f4b86321a68453f9adf6F06F7Fc3E621739ad",
      "gasPrice": {
        "_hex": "0xdc88a14ae"
      },
      "gasLimit": {
        "_hex": "0x5208"
      },
      "to": "0x32Be343B94f860124dC4fEe278FDCBD38C102D88",
      "value": {
        "_hex": "0xd02649dc68914800"
      },
      "nonce": 125,
      "data": "0x",
      "r": "0xbd26e4d03a163e505d9079fdcbc169f05e725115064ed53c7fdb0188f379622a",
      "s": "0x4349b811b8fd6536c0e06249be7f4866e58b973f382fd8894c97f90ab246d201",
      "v": 28,
      "creates": null,
      "raw": "0xf86c7d850dc88a14ae8252089432be343b94f860124dc4fee278fdcbd38c102d8888d02649dc68914800801ca0bd26e4d03a163e505d9079fdcbc169f05e725115064ed53c7fdb0188f379622aa04349b811b8fd6536c0e06249be7f4866e58b973f382fd8894c97f90ab246d201",
      "networkId": 0,
      "chainId": 0
    },
    {
      "hash": "0x3194d8f8b799194d5db9f5c2e7995db94ca8032dfeaa5db5dfe890d4bd505157",
      "blockHash": "0xa9c50e848ef51d8767782f1af4d3518efa9b43455bdf086d71921e61b9c5e55c",
      "blockNumber": 122244,
      "transactionIndex": 1,
      "confirmations": null,
      "from": "0x2b5535C9F9edf3eBCb6Bc22699960A7067D2Ef0B",
      "gasPrice": {
        "_hex": "0xba43b7400"
      },
      "gasLimit": {
        "_hex": "0x15f90"
      },
      "to": "0x79d5794171E11dd5C2f0e26E1C187319db2FE6f7",
      "value": {
        "_hex": "0x16345785d8a0000"
      },
      "nonce": 0,
      "data": "0x",
      "r": "0xd34c922d5d25513e18717171c5f5dc5ec01f5859c5b672dab8079a5ea1226b1a",
      "s": "0x27a86ec15ab887680c87689280951d8861b88883231d65d5a556278b943df1b7",
      "v": 28,
      "creates": null,
      "raw": "0xf86d80850ba43b740083015f909479d5794171e11dd5c2f0e26e1c187319db2fe6f788016345785d8a0000801ca0d34c922d5d25513e18717171c5f5dc5ec01f5859c5b672dab8079a5ea1226b1aa027a86ec15ab887680c87689280951d8861b88883231d65d5a556278b943df1b7",
      "networkId": 0,
      "chainId": 0
    }
  ]
}