{
  "hash": "0xfab0d36c88f8abb3846e6b857f46c7e00d5cf5c47e32f537185f56ab9be05721",
  "parentHash": "0x1d06427939b4797c06c19d9d81690f3c16feaee4658f7e576ecbe3b27367b226",
  "number": 89521,
  "timestamp": 1439624699,
  "nonce": "0x8fdb7bcf323ac10e",
  "difficulty": 3333824827599,
  "gasLimit": {
    "_hex": "0x2fefd8"
  },
  "gasUsed": {
    "_hex": "0x5208"
  },
  "miner": "0xeB1325C8D9d3ea8D74aC11F4B00F1B2367686319",
  "extraData": "0x476574682f76312e302e312f77696e646f77732f676f312e342e32",
  "transactions": [
    {
      "hash": "0x3e7160a3849d6f717fe2b1b9d34a8b30bd25e92a3e9c4dd98573ac75bceb66d7",
      "blockHash": "0xfab0d36c88f8abb3846e6b857f46c7e00d5cf5c47e32f537185f56ab9be05721",
      "blockNumber": 89521,
      "transactionIndex": 0,
      "confirmations": null,
      "from": "0xdeE4977F74E6Aef6D627191c9A45D2627e331150",
      "gasPrice": {
        "_hex": "0xdaa292549"
      },
      "gasLimit": {
        "_hex": "0x5208"
      },
      "to": "0x32Be343B94f860124dC4fEe278FDCBD38C102D88",
      "value": {
        "_hex": "0xd0265397b2444000"
      },
      "nonce": 7,
      "data": "0x",
      "r": "0x7aac6c464264136026884ae69844642d965d9279d3c5cd8af5bb8f1b0489a78e",
      "s": "0x4619582c6866b237fdba02413abf9f41d2dcbd1f7185de4a56c8e3033e0b728a",
      "v": 27,
      "creates": null,
      "raw": "0xf86c07850daa2925498252089432be343b94f860124dc4fee278fdcbd38c102d8888d0265397b2444000801ba07aac6c464264136026884ae69844642d965d9279d3c5cd8af5bb8f1b0489a78ea04619582c6866b237fdba02413abf9f41d2dcbd1f7185de4a56c8e3033e0b728a",
      "networkId": 0,
      "chainId": 0
    }
  ]
}