{
  "hash": "0xb442ea920040fc07e1b55cff4ffbbeab3f469edcf4cb2a0cd7563868637ca49a",
  "parentHash": "0xfe545d181adb03b372539434bf088aaf9dd8c6e7a07181c49ac01fbbb512fef9",
  "number": 93787,
  "timestamp": 1439697690,
  "nonce": "0xa284ca95293b9c3c",
  "difficulty": 3434547327972,
  "gasLimit": {
    "_hex": "0x2fefd8"
  },
  "gasUsed": {
    "_hex": "0xa414"
  },
  "miner": "0xC603Ab5ef41fC61AA8b76bEddb09e3Cfcbb174BD",
  "extraData": "0x476574682f76312e302e312f77696e646f77732f676f312e342e32",
  "transactions": [
    {
      "hash": "0x396e6faedbc240536eda385b416ff08d5cc1e7ed4793b4a5360d7a60e2bb55cb",
      "blockHash": "0xb442ea920040fc07e1b55cff4ffbbeab3f469edcf4cb2a0cd7563868637ca49a",
      "blockNumber": 93787,
      "transactionIndex": 0,
      "confirmations": null,
      "from": "0x8375eA550366a24550ec93283600485F4Ba8CFE5",
      "gasPrice": {
        "_hex": "0xe05377934"
      },
      "gasLimit": {
        "_hex": "0x7530"
      },
      "to": "0xb9836ec1f42Bd48331bceaedb74a6Bcdc22832bD",
      "value": {
        "_hex": "0x71afd498d0000"
      },
      "nonce": 13,
      "data": "0x00",
      "r": "0xc748ef06cb8496668dfc62eb0ba3d05e7bc38fec7a41d4cf14b4b39a12f8d2b9",
      "s": "0x0d7892e73f5901c9afef3c5370334802ccc1e0781743daefb9bef256887ada35",
      "v": 28,
      "creates": null,
      "raw": "0xf86b0d850e0537793482753094b9836ec1f42bd48331bceaedb74a6bcdc22832bd87071afd498d0000001ca0c748ef06cb8496668dfc62eb0ba3d05e7bc38fec7a41d4cf14b4b39a12f8d2b9a00d7892e73f5901c9afef3c5370334802ccc1e0781743daefb9bef256887ada35",
      "networkId": 0,
      "chainId": 0
    },
    {
      "hash": "0xf6ec98c71cf07ce66c706880bb40ab812d3a548871b47e91c40783d6a5e1e3be",
      "blockHash": "0xb442ea920040fc07e1b55cff4ffbbeab3f469edcf4cb2a0cd7563868637ca49a",
      "blockNumber": 93787,
      "transactionIndex": 1,
      "confirmations": null,
      "from": "0x7D45E10A0d63eCCA0694a7cbfF030f4dD87DA0dC",
      "gasPrice": {
        "_hex": "0xcb3cfebe6"
      },
      "gasLimit": {
        "_hex": "0x15f90"
      },
      "to": "0x6d921977dEFE5f4e0682CA512De1D07b1f4802E1",
      "value": {
        "_hex": "0x8ac7230489e80000"
      },
      "nonce": 19,
      "data": "0x",
      "r": "0xe7274c06cb72e9b579cf9552eac445f22e00bd44f957fb0e30134eab815f3385",
      "s": "0x52595879bd1d9d532e9aefca9e8500078820b8d401861f9205aad0066b0c3585",
      "v": 27,
      "creates": null,
      "raw": "0xf86d13850cb3cfebe683015f90946d921977defe5f4e0682ca512de1d07b1f4802e1888ac7230489e80000801ba0e7274c06cb72e9b579cf9552eac445f22e00bd44f957fb0e30134eab815f3385a052595879bd1d9d532e9aefca9e8500078820b8d401861f9205aad0066b0c3585",
      "networkId": 0,
      "chainId": 0
    }
  ]
}