{
  "hash": "0x6886d6fdc7b565d1219367697aeb8d98314e1855b93891de0912d0c91531cfdc",
  "parentHash": "0xa9cd6773b19fc34213803c90293288984623a294166a53727bd6000877a2a43b",
  "number": 100213,
  "timestamp": 1439802844,
  "nonce": "0xc650ee4bee8aaa23",
  "difficulty": 3817380355993,
  "gasLimit": {
    "_hex": "0x2fefd8"
  },
  "gasUsed": {
    "_hex": "0xa410"
  },
  "miner": "0xe6A7a1d47ff21B6321162AEA7C6CB457D5476Bca",
  "extraData": "0x476574682f76312e302e312d38326566323666362f6c696e75782f676f312e34",
  "transactions": [
    {
      "hash": "0x653c3fe550a2d6cacd7fbbc5cfd8a8c75d6febfc4984a4637220379ab755ab6f",
      "blockHash": "0x6886d6fdc7b565d1219367697aeb8d98314e1855b93891de0912d0c91531cfdc",
      "blockNumber": 100213,
      "transactionIndex": 0,
      "confirmations": null,
      "from": "0xD9666150A9dA92d9108198a4072970805a8B3428",
      "gasPrice": {
        "_hex": "0xda60e9654"
      },
      "gasLimit": {
        "_hex": "0x5208"
      },
      "to": "0x32Be343B94f860124dC4fEe278FDCBD38C102D88",
      "value": {
        "_hex": "0x455f31e4c3186400"
      },
      "nonce": 41,
      "data": "0x",
      "r": "0x749edf5d8c473e459a8cb9172322cca9f4f18dd6ef653c04b2a67e146df0b134",
      "s": "0x716d23fe85c359d2e6151115bdced342ce5fbd43103d874770ca6f492ef5a27c",
      "v": 28,
      "creates": null,
      "raw": "0xf86c29850da60e96548252089432be343b94f860124dc4fee278fdcbd38c102d8888455f31e4c3186400801ca0749edf5d8c473e459a8cb9172322cca9f4f18dd6ef653c04b2a67e146df0b134a0716d23fe85c359d2e6151115bdced342ce5fbd43103d874770ca6f492ef5a27c",
      "networkId": 0,
      "chainId": 0
    },
    {
      "hash": "0x3fb25a81cfe81687b7a6a4b292500d2d46e9e88580f5f59e442d444366d737ab",
      "blockHash": "0x6886d6fdc7b565d1219367697aeb8d98314e1855b93891de0912d0c91531cfdc",
      "blockNumber": 100213,
      "transactionIndex": 1,
      "confirmations": null,
      "from": "0xBB33a4b72d92FA335a3b591Ce7eE217f7a7338C1",
      "gasPrice": {
        "_hex": "0xda60e9654"
      },
      "gasLimit": {
        "_hex": "0x5208"
      },
      "to": "0x32Be343B94f860124dC4fEe278FDCBD38C102D88",
      "value": {
        "_hex": "0xf9c87904432c6000"
      },
      "nonce": 8,
      "data": "0x",
      "r": "0x703a5664bd0058a19f06145939c500f7bcd09aade7e569ff5869a1d89a6f2f42",
      "s": "0x32edf004fd6a965c622c5a19f5e1be2da330764e6cf60c79c16e22e562fcb701",
      "v": 27,
      "creates": null,
      "raw": "0xf86c08850da60e96548252089432be343b94f860124dc4fee278fdcbd38c102d8888f9c87904432c6000801ba0703a5664bd0058a19f06145939c500f7bcd09aade7e569ff5869a1d89a6f2f42a032edf004fd6a965c622c5a19f5e1be2da330764e6cf60c79c16e22e562fcb701",
      "networkId": 0,
      "chainId": 0
    }
  ]
}