{
  "hash": "0x22194d0a4d27c6a2c471b17bd745669d73a8975417ffb48d94bcd93bed1a3594",
  "parentHash": "0x951241e60e690e5b20c51b686da43080259e0dfaae4a035adffcc78fc6782af4",
  "number": 118694,
  "timestamp": 1440130047,
  "nonce": "0xe9c1b7464396952f",
  "difficulty": 4347867690284,
  "gasLimit": {
    "_hex": "0x2fefd8"
  },
  "gasUsed": {
    "_hex": "0x5208"
  },
  "miner": "0x52bc44d5378309EE2abF1539BF71dE1b7d7bE3b5",
  "extraData": "0xd783010002844765746887676f312e342e32856c696e7578",
  "transactions": [
    {
      "hash": "0x6490feab82d7731b32e58ee9aa66ea90873dd87f04d415df5b9173403bad5320",
      "blockHash": "0x22194d0a4d27c6a2c471b17bd745669d73a8975417ffb48d94bcd93bed1a3594",
      "blockNumber": 118694,
      "transactionIndex": 0,
      "confirmations": null,
      "from": "0x61f00372b59fFEf810d5657A2f2bBEbcE404A31A",
      "gasPrice": {
        "_hex": "0xdf71c3936"
      },
      "gasLimit": {
        "_hex": "0x15f90"
      },
      "to": "0x9d6F31567576812E0Fbb7a44398e3Abe1A7fAD7f",
      "value": {
        "_hex": "0x2d2604981673f40"
      },
      "nonce": 0,
      "data": "0x",
      "r": "0xb7b0d298a8bb1de63ceeaeb49e3f158cbf73feef899656953f405ffb4f35e831",
      "s": "0x6026505002749038724bf7d6f549012489d7ec6ee7ffe54436923649abf7abbd",
      "v": 27,
      "creates": null,
      "raw": "0xf86d80850df71c393683015f90949d6f31567576812e0fbb7a44398e3abe1a7fad7f8802d2604981673f40801ba0b7b0d298a8bb1de63ceeaeb49e3f158cbf73feef899656953f405ffb4f35e831a06026505002749038724bf7d6f549012489d7ec6ee7ffe54436923649abf7abbd",
      "networkId": 0,
      "chainId": 0
    }
  ]
}