{
  "hash": "0x4fb17ef4e7b7e6047cd44e5064eaf1e41963525348ee7399d329e0525c8ea065",
  "parentHash": "0x8991b6fade79ff7435bd47f0d7efddb3879cd41ebddff75f5d53e169158b5ad8",
  "number": 120321,
  "timestamp": 1440157863,
  "nonce": "0x2d05873858dcfa82",
  "difficulty": 4430597963859,
  "gasLimit": {
    "_hex": "0x2fefd8"
  },
  "gasUsed": {
    "_hex": "0x5208"
  },
  "miner": "0x608f4b86321a68453f9adf6F06F7Fc3E621739ad",
  "extraData": "0xd783010002844765746887676f312e342e32856c696e7578",
  "transactions": [
    {
      "hash": "0x67b139d741f6092426677ca1ae4004a911a2ee668d3dae44102c5715d1b884f2",
      "blockHash": "0x4fb17ef4e7b7e6047cd44e5064eaf1e41963525348ee7399d329e0525c8ea065",
      "blockNumber": 120321,
      "transactionIndex": 0,
      "confirmations": null,
      "from": "0xaed5c6263d084cFFc0a3fAD197702CecE3e9c3E3",
      "gasPrice": {
        "_hex": "0xba43b7400"
      },
      "gasLimit": {
        "_hex": "0x5208"
      },
      "to": "0x32Be343B94f860124dC4fEe278FDCBD38C102D88",
      "value": {
        "_hex": "0x1aa17adba3bc6000"
      },
      "nonce": 3,
      "data": "0x",
      "r": "0x02d2a9439fbce07460e0c6cc1d58af6775e4268d75c1e29adc711811e5560607",
      "s": "0x5a162eac108ece2b28adebf39ee70a1668c8e8957d3e67f9a491d65182c336ff",
      "v": 27,
      "creates": null,
      "raw": "0xf86c03850ba43b74008252089432be343b94f860124dc4fee278fdcbd38c102d88881aa17adba3bc6000801ba002d2a9439fbce07460e0c6cc1d58af6775e4268d75c1e29adc711811e5560607a05a162eac108ece2b28adebf39ee70a1668c8e8957d3e67f9a491d65182c336ff",
      "networkId": 0,
      "chainId": 0
    }
  ]
}