{
  "hash": "0x80e19d0f17567e0e38769a208d3859ff7a5c69ef739ba85fa0f0e87b4ec85625",
  "parentHash": "0x948fdcd9e1d70a8b0dfab7afd6c022faea2e5d325e94fa71a479f19a41b66cfc",
  "number": 81533,
  "timestamp": 1439503392,
  "nonce": "0x2a566e80f76739c7",
  "difficulty": 2446175014669,
  "gasLimit": {
    "_hex": "0x2fefd8"
  },
  "gasUsed": {
    "_hex": "0xa410"
  },
  "miner": "0x0089508679abF8c71BF6781687120e3E6a84584D",
  "extraData": "0x",
  "transactions": [
    {
      "hash": "0x0da274231961f0b31f7065ea14c9c9ce8415aae29649f65f5273761791c84b8c",
      "blockHash": "0x80e19d0f17567e0e38769a208d3859ff7a5c69ef739ba85fa0f0e87b4ec85625",
      "blockNumber": 81533,
      "transactionIndex": 0,
      "confirmations": null,
      "from": "0x1e7B5e4d1F572BEcf2c00fC90cB4767b4A6E33D4",
      "gasPrice": {
        "_hex": "0xd69b48315"
      },
      "gasLimit": {
        "_hex": "0x15f90"
      },
      "to": "0x2fd8Ad8C541bc201DD24a3C7b60FCBBB6429A4E2",
      "value": {
        "_hex": "0x2b5e3af16b1880000"
      },
      "nonce": 5,
      "data": "0x",
      "r": "0x2b28a059818d168361e3a228d72fdc6aa76f683128b45f3ab07b2633833838e1",
      "s": "0x5e241c250f838d8442d83da0b9bc9c5ca007efe2d00ba71f2aa7a489ff210167",
      "v": 28,
      "creates": null,
      "raw": "0xf86e05850d69b4831583015f90942fd8ad8c541bc201dd24a3c7b60fcbbb6429a4e28902b5e3af16b1880000801ca02b28a059818d168361e3a228d72fdc6aa76f683128b45f3ab07b2633833838e1a05e241c250f838d8442d83da0b9bc9c5ca007efe2d00ba71f2aa7a489ff210167",
      "networkId": 0,
      "chainId": 0
    },
    {
      "hash": "0xda1dbc78db8176a29adfdfd03859cd7b85a4ad6ebe7f46433018c06f6ef0d1be",
      "blockHash": "0x80e19d0f17567e0e38769a208d3859ff7a5c69ef739ba85fa0f0e87b4ec85625",
      "blockNumber": 81533,
      "transactionIndex": 1,
      "confirmations": null,
      "from": "0x4fD672C55a27A15a5fe413b577fD0dd45f3B2D2A",
      "gasPrice": {
        "_hex": "0xba43b7400"
      },
      "gasLimit": {
        "_hex": "0x5267"
      },
      "to": "0x423F06030a6c726925816243446a11Ed6d40Ab99",
      "value": {
        "_hex": "0x146a0ab4d0998000"
      },
      "nonce": 0,
      "data": "0x",
      "r": "0x1670d3743693e73f4b222b1070f007a3c51edefdfa5da3ef51c8508f3acb0241",
      "s": "0x23e6ae845958f2053929de781ae6bf5ad8904411178858782377ab7b302287bd",
      "v": 28,
      "creates": null,
      "raw": "0xf86c80850ba43b740082526794423f06030a6c726925816243446a11ed6d40ab9988146a0ab4d0998000801ca01670d3743693e73f4b222b1070f007a3c51edefdfa5da3ef51c8508f3acb0241a023e6ae845958f2053929de781ae6bf5ad8904411178858782377ab7b302287bd",
      "networkId": 0,
      "chainId": 0
    }
  ]
}