{
  "hash": "0xd451c742d06dc1621d6d6c0764e25bbd65a81e68fd4cf6516b2a9a21b0d7f11a",
  "parentHash": "0xf64af818c8fe3c03ae2fa4431b4e8499fb20a5ef4926220d31b5b1bf3521b815",
  "number": 85561,
  "timestamp": 1439565520,
  "nonce": "0x01e49f078f788977",
  "difficulty": 2759747446309,
  "gasLimit": {
    "_hex": "0x2fefd8"
  },
  "gasUsed": {
    "_hex": "0x546c"
  },
  "miner": "0xbb7B8287f3F0a933474a79eAe42CBCa977791171",
  "extraData": "0x476574682f4c5649562f76312e302e312f6c696e75782f676f312e342e32",
  "transactions": [
    {
      "hash": "0x42e57b1d328ab700a2320388c43119095596600c552294b4eadb1d867d063f59",
      "blockHash": "0xd451c742d06dc1621d6d6c0764e25bbd65a81e68fd4cf6516b2a9a21b0d7f11a",
      "blockNumber": 85561,
      "transactionIndex": 0,
      "confirmations": null,
      "from": "0xAcEc91Ef6941cf630BA9a3e787a012f4A2d91DD4",
      "gasPrice": {
        "_hex": "0x110c8f7d8de"
      },
      "gasLimit": {
        "_hex": "0xc350"
      },
      "to": "0x2910543Af39abA0Cd09dBb2D50200b3E800A63D2",
      "value": {
        "_hex": "0xa968163f0a57b400000"
      },
      "nonce": 0,
      "data": "0x454e52353639435830",
      "r": "0x0a9055710d92d414e20f62fbf722ed2efceeff1903fe79618e930dbca2ec409c",
      "s": "0x9c8f6e299f7d540994baea548a29db5c0577d5e9f04c8dc34e0db7f4bdac09db",
      "v": 28,
      "creates": null,
      "raw": "0xf87880860110c8f7d8de82c350942910543af39aba0cd09dbb2d50200b3e800a63d28a0a968163f0a57b40000089454e523536394358301ca00a9055710d92d414e20f62fbf722ed2efceeff1903fe79618e930dbca2ec409ca09c8f6e299f7d540994baea548a29db5c0577d5e9f04c8dc34e0db7f4bdac09db",
      "networkId": 0,
      "chainId": 0
    }
  ]
}