{
  "hash": "0x86c0acde2d38aa2bf587a5ce8bfc4ecd35cde83dc522475609017fadcbb8d9aa",
  "parentHash": "0xe25716410c84798442d035f57aa3291abb55cd98229d33fd342b54c9c641db18",
  "number": 81966,
  "timestamp": 1439510960,
  "nonce": "0x83a3875489e9be71",
  "difficulty": 2409302408398,
  "gasLimit": {
    "_hex": "0x2fefd8"
  },
  "gasUsed": {
    "_hex": "0x546c"
  },
  "miner": "0x76d4a9bc9612bE738A81d0fE632b00B971E2bB9a",
  "extraData": "0x",
  "transactions": [
    {
      "hash": "0x2d170dce0eb5e25d2d3d84995e59dfee27e1a3d56b7acc8f83b45e2c1bcac30d",
      "blockHash": "0x86c0acde2d38aa2bf587a5ce8bfc4ecd35cde83dc522475609017fadcbb8d9aa",
      "blockNumber": 81966,
      "transactionIndex": 0,
      "confirmations": null,
      "from": "0x21408b4D7A2C0E6ecA4143f2CACdbbccbA121bD8",
      "gasPrice": {
        "_hex": "0x110c8f7d8de"
      },
      "gasLimit": {
        "_hex": "0xc350"
      },
      "to": "0x2910543Af39abA0Cd09dBb2D50200b3E800A63D2",
      "value": {
        "_hex": "0xde0b6b3a7640000"
      },
      "nonce": 0,
      "data": "0x454e35444748554347",
      "r": "0x9991e8d7051645409c8f7676ff42059e57309f13462798b1134af9ea5e2d8159",
      "s": "0xeb1e072a68c893d6f96c51dfb7ea0d0bad3c957553c399c7649f890a8b71804f",
      "v": 28,
      "creates": null,
      "raw": "0xf87680860110c8f7d8de82c350942910543af39aba0cd09dbb2d50200b3e800a63d2880de0b6b3a764000089454e354447485543471ca09991e8d7051645409c8f7676ff42059e57309f13462798b1134af9ea5e2d8159a0eb1e072a68c893d6f96c51dfb7ea0d0bad3c957553c399c7649f890a8b71804f",
      "networkId": 0,
      "chainId": 0
    }
  ]
}