{
  "hash": "0x7b94e1e06d45e94b10925f11dd2ec7ab69d64bbd9b97d4047e6e1ba455304a22",
  "parentHash": "0xd61a3770f6d11db3f1f901099e1f56a86aa83f2dec80f0bf07639c4cec00671b",
  "number": 80356,
  "timestamp": 1439484512,
  "nonce": "0x1226c8f80ab49e87",
  "difficulty": 2381690249678,
  "gasLimit": {
    "_hex": "0x2fefd8"
  },
  "gasUsed": {
    "_hex": "0x1f257"
  },
  "miner": "0x7Eb9F59f9547E376188eD83EFCD1F6dbF3712eA6",
  "extraData": "0x476574682f76312e302e312f77696e646f77732f676f312e342e32",
  "transactions": [
    {
      "hash": "0x777b46ff499399a3420d2e4643b40291c10886bdecb4483772f5aafa97f78482",
      "blockHash": "0x7b94e1e06d45e94b10925f11dd2ec7ab69d64bbd9b97d4047e6e1ba455304a22",
      "blockNumber": 80356,
      "transactionIndex": 0,
      "confirmations": null,
      "from": "0x87C5B5874A18B4306DF8a752a6C8cc3E82daFc19",
      "gasPrice": {
        "_hex": "0x11710029ac3"
      },
      "gasLimit": {
        "_hex": "0x493e0"
      },
      "to": "0xC4c51de1AbF5D60DBd329eC0F999Fd8f021ae9fC",
      "value": {
        "_hex": "0x0"
      },
      "nonce": 184,
      "data": "0x03750d9400000000000000000000000087c5b5874a18b4306df8a752a6c8cc3e82dafc196b6b6b0000000000000000000000000000000000000000000000000000000000",
      "r": "0x46e1d256fe6881d1156d591c23066b89b5818e018c6f1e89f92b7287497193eb",
      "s": "0x38b10f4fbeb0753c68a4efeb8b82de138e1fdc14733566d7610a7a7a47d6e992",
      "v": 28,
      "creates": null,
      "raw": "0xf8ac81b886011710029ac3830493e094c4c51de1abf5d60dbd329ec0f999fd8f021ae9fc80b84403750d9400000000000000000000000087c5b5874a18b4306df8a752a6c8cc3e82dafc196b6b6b00000000000000000000000000000000000000000000000000000000001ca046e1d256fe6881d1156d591c23066b89b5818e018c6f1e89f92b7287497193eba038b10f4fbeb0753c68a4efeb8b82de138e1fdc14733566d7610a7a7a47d6e992",
      "networkId": 0,
      "chainId": 0
    },
    {
      "hash": "0x8d725203cf0c4ad12a564af24c80a0667c77e3bbfd5de9ad9400f5fb667e6324",
      "blockHash": "0x7b94e1e06d45e94b10925f11dd2ec7ab69d64bbd9b97d4047e6e1ba455304a22",
      "blockNumber": 80356,
      "transactionIndex": 1,
      "confirmations": null,
      "from": "0x8F79f76381Aad7B98C19aF55eE75fdfEeb012211",
      "gasPrice": {
        "_hex": "0xd9f090fe7"
      },
      "gasLimit": {
        "_hex": "0x5208"
      },
      "to": "0x32Be343B94f860124dC4fEe278FDCBD38C102D88",
      "value": {
        "_hex": "0x3860a063f16016000"
      },
      "nonce": 17,
      "data": "0x",
      "r": "0x2a0a61c7347c57a81dc7a2db79f426d3f5e15494c71f103aa106049f8989d4c1",
      "s": "0x06120efeb61d74bb4df90b1efedb5286c4b3fed807e4734bbd0b33a99e9e1c0b",
      "v": 28,
      "creates": null,
      "raw": "0xf86d11850d9f090fe78252089432be343b94f860124dc4fee278fdcbd38c102d888903860a063f16016000801ca02a0a61c7347c57a81dc7a2db79f426d3f5e15494c71f103aa106049f8989d4c1a006120efeb61d74bb4df90b1efedb5286c4b3fed807e4734bbd0b33a99e9e1c0b",
      "networkId": 0,
      "chainId": 0
    },
    {
      "hash": "0xda05df748d62bdf01a6eaaf4c52882038548750e120113da44eea315a4632af5",
      "blockHash": "0x7b94e1e06d45e94b10925f11dd2ec7ab69d64bbd9b97d4047e6e1ba455304a22",
      "blockNumber": 80356,
      "transactionIndex": 2,
      "confirmations": null,
      "from": "0x32Be343B94f860124dC4fEe278FDCBD38C102D88",
      "gasPrice": {
        "_hex": "0xd9f090fe7"
      },
      "gasLimit": {
        "_hex": "0x5208"
      },
      "to": "0xB818B6Ac9290F3dC125E077eCCFCf471516D1c62",
      "value": {
        "_hex": "0xb469471f80140000"
      },
      "nonce": 533,
      "data": "0x",
      "r": "0x97deb8b1fba6ab48d76698b2632bff0cebcc204849fe318e796959d7eb887090",
      "s": "0x25ff885dc997a52576d1030fddf3bbfa1c61e950613bf3abba9cdb0b0fa35283",
      "v": 28,
      "creates": null,
      "raw": "0xf86e820215850d9f090fe782520894b818b6ac9290f3dc125e077eccfcf471516d1c6288b469471f80140000801ca097deb8b1fba6ab48d76698b2632bff0cebcc204849fe318e796959d7eb887090a025ff885dc997a52576d1030fddf3bbfa1c61e950613bf3abba9cdb0b0fa35283",
      "networkId": 0,
      "chainId": 0
    },
    {
      "hash": "0xd65b831ad7099fa9c7bf67ef806b2f45a125637f710a54ddaa0184098bc05858",
      "blockHash": "0x7b94e1e06d45e94b10925f11dd2ec7ab69d64bbd9b97d4047e6e1ba455304a22",
      "blockNumber": 80356,
      "transactionIndex": 3,
      "confirmations": null,
      "from": "0x59C62d3D43f9EA1c4118d98c188AA5d028b8bB8E",
      "gasPrice": {
        "_hex": "0xd9f090fe7"
      },
      "gasLimit": {
        "_hex": "0x5208"
      },
      "to": "0x32Be343B94f860124dC4fEe278FDCBD38C102D88",
      "value": {
        "_hex": "0x455f3423da916000"
      },
      "nonce": 5,
      "data": "0x",
      "r": "0x53aaa5b7dc84a87eeba16a9f023722bf3b92b6fa1162c1cfb886044de49505bf",
      "s": "0x13274ad443a150c141f742371b60d0fd1aae0f14897b7d288e0dd2df998e51df",
      "v": 28,
      "creates": null,
      "raw": "0xf86c05850d9f090fe78252089432be343b94f860124dc4fee278fdcbd38c102d8888455f3423da916000801ca053aaa5b7dc84a87eeba16a9f023722bf3b92b6fa1162c1cfb886044de49505bfa013274ad443a150c141f742371b60d0fd1aae0f14897b7d288e0dd2df998e51df",
      "networkId": 0,
      "chainId": 0
    },
    {
      "hash": "0x761d71ad531824ca86d7ad12ffc0a7b47a562c46752b77fc3dbe7d7713c24d0f",
      "blockHash": "0x7b94e1e06d45e94b10925f11dd2ec7ab69d64bbd9b97d4047e6e1ba455304a22",
      "blockNumber": 80356,
      "transactionIndex": 4,
      "confirmations": null,
      "from": "0x9C1D8e44C8B6F72c792f818a9EC5Ae4D396A950c",
      "gasPrice": {
        "_hex": "0xd9f090fe7"
      },
      "gasLimit": {
        "_hex": "0x5208"
      },
      "to": "0x32Be343B94f860124dC4fEe278FDCBD38C102D88",
      "value": {
        "_hex": "0x1e35aec4c24aae000"
      },
      "nonce": 0,
      "data": "0x",
      "r": "0x7e5a5552a0d5c72e77b3a03223e0e74925965eccf1680b63ac6c79ddcb0527e1",
      "s": "0x50106d52d5e126a2c2d31a36f59b4d05b1adb98af5f074a6969df7a4eae2c5f8",
      "v": 27,
      "creates": null,
      "raw": "0xf86d80850d9f090fe78252089432be343b94f860124dc4fee278fdcbd38c102d888901e35aec4c24aae000801ba07e5a5552a0d5c72e77b3a03223e0e74925965eccf1680b63ac6c79ddcb0527e1a050106d52d5e126a2c2d31a36f59b4d05b1adb98af5f074a6969df7a4eae2c5f8",
      "networkId": 0,
      "chainId": 0
    }
  ]
}