{
  "hash": "0x3e666b48c05a1da51d7d500a0de662a1a30eea959b46161d16763f6395b7effd",
  "parentHash": "0xe541a9e5f358451dbba56c287b562d128fbdee7334742a0524b8a8c577c39e74",
  "number": 53957,
  "timestamp": 1439046281,
  "nonce": "0x89a5338bff0231bd",
  "difficulty": 1607951978114,
  "gasLimit": {
    "_hex": "0x2fefd8"
  },
  "gasUsed": {
    "_hex": "0x546c"
  },
  "miner": "0xbb7B8287f3F0a933474a79eAe42CBCa977791171",
  "extraData": "0x476574682f4c5649562f76312e302e312f6c696e75782f676f312e342e32",
  "transactions": [
    {
      "hash": "0xa95d42daf98972787777965fdd675258b74b9eef9c98a4d1003a98aae4d29ef1",
      "blockHash": "0x3e666b48c05a1da51d7d500a0de662a1a30eea959b46161d16763f6395b7effd",
      "blockNumber": 53957,
      "transactionIndex": 0,
      "confirmations": null,
      "from": "0x5778FFDC9B94c5a59e224eb965b6dE90f222D170",
      "gasPrice": {
        "_hex": "0x110c8f7d8de"
      },
      "gasLimit": {
        "_hex": "0xc350"
      },
      "to": "0x2910543Af39abA0Cd09dBb2D50200b3E800A63D2",
      "value": {
        "_hex": "0x12290f15180bdc0000"
      },
      "nonce": 0,
      "data": "0x454e464b45584b4652",
      "r": "0x98ed06b6c9b8492a79cb24661838685c63855969fdace490faa7eb7a9e4a59f0",
      "s": "0xc9534d010a4f0f57c4d8849048482ffc8fc4fa34433a513b3c3cdd7f54b20e3a",
      "v": 28,
      "creates": null,
      "raw": "0xf87780860110c8f7d8de82c350942910543af39aba0cd09dbb2d50200b3e800a63d28912290f15180bdc000089454e464b45584b46521ca098ed06b6c9b8492a79cb24661838685c63855969fdace490faa7eb7a9e4a59f0a0c9534d010a4f0f57c4d8849048482ffc8fc4fa34433a513b3c3cdd7f54b20e3a",
      "networkId": 0,
      "chainId": 0
    }
  ]
}