{
  "hash": "0x36f521b3814d3f25ec4623ae3d2e3080580e9b50459f90952bcd392f416c55f4",
  "parentHash": "0xb4dfff8dd4975e7314eef57b4a92a9d899bb818363f2538a0d9e682291c557ad",
  "number": 79472,
  "timestamp": 1439470245,
  "nonce": "0x829370d1f61cf71c",
  "difficulty": 2335870330079,
  "gasLimit": {
    "_hex": "0x2fefd8"
  },
  "gasUsed": {
    "_hex": "0xf618"
  },
  "miner": "0xe6A7a1d47ff21B6321162AEA7C6CB457D5476Bca",
  "extraData": "0x476574682f76312e302e312d38326566323666362f6c696e75782f676f312e34",
  "transactions": [
    {
      "hash": "0x9a84d6a1aad94b7ae6909eef8cb8f899e932e3e4bc99f05f2c8a1eb7220d169a",
      "blockHash": "0x36f521b3814d3f25ec4623ae3d2e3080580e9b50459f90952bcd392f416c55f4",
      "blockNumber": 79472,
      "transactionIndex": 0,
      "confirmations": null,
      "from": "0x582856B747Aa3C8aEC81e3Ee2667560f419Fe0f5",
      "gasPrice": {
        "_hex": "0xcf7a7fee8"
      },
      "gasLimit": {
        "_hex": "0x5208"
      },
      "to": "0x32Be343B94f860124dC4fEe278FDCBD38C102D88",
      "value": {
        "_hex": "0x168d24bc339e040000"
      },
      "nonce": 0,
      "data": "0x",
      "r": "0x4e751ba15f6ec002cf92c58ac9d66d1fc6a9cf63ba9a08fa873d8929dad20481",
      "s": "0x4b380988b80e66cccef9d8853edfb9bc59fe2527a9ca01eb55a58a09b765da55",
      "v": 27,
      "creates": null,
      "raw": "0xf86d80850cf7a7fee88252089432be343b94f860124dc4fee278fdcbd38c102d8889168d24bc339e040000801ba04e751ba15f6ec002cf92c58ac9d66d1fc6a9cf63ba9a08fa873d8929dad20481a04b380988b80e66cccef9d8853edfb9bc59fe2527a9ca01eb55a58a09b765da55",
      "networkId": 0,
      "chainId": 0
    },
    {
      "hash": "0xa69c976245efc0face910d53db09992c723345b8ffe7a32a4d406ff56d94adc8",
      "blockHash": "0x36f521b3814d3f25ec4623ae3d2e3080580e9b50459f90952bcd392f416c55f4",
      "blockNumber": 79472,
      "transactionIndex": 1,
      "confirmations": null,
      "from": "0xeC210EC3715d5918B37CFa4D344a45d177eD849f",
      "gasPrice": {
        "_hex": "0xcf7a7fee8"
      },
      "gasLimit": {
        "_hex": "0x5208"
      },
      "to": "0x32Be343B94f860124dC4fEe278FDCBD38C102D88",
      "value": {
        "_hex": "0x27e5cac8e03884000"
      },
      "nonce": 5,
      "data": "0x",
      "r": "0x6c06cfba7406b5629e5f3b907aa0ead9f3890e08efc222789b9de9a0dc9ce980",
      "s": "0x1e7a6f05dc63c6b36cb7c35396813aae41adc86c7d1d48bae21e312974032791",
      "v": 27,
      "creates": null,
      "raw": "0xf86d05850cf7a7fee88252089432be343b94f860124dc4fee278fdcbd38c102d8889027e5cac8e03884000801ba06c06cfba7406b5629e5f3b907aa0ead9f3890e08efc222789b9de9a0dc9ce980a01e7a6f05dc63c6b36cb7c35396813aae41adc86c7d1d48bae21e312974032791",
      "networkId": 0,
      "chainId": 0
    },
    {
      "hash": "0x895e6ee110bff9167b149bcd7b79fe666ec95500b620f2e8ff22acac20fce141",
      "blockHash": "0x36f521b3814d3f25ec4623ae3d2e3080580e9b50459f90952bcd392f416c55f4",
      "blockNumber": 79472,
      "transactionIndex": 2,
      "confirmations": null,
      "from": "0xBFdD9820a04283b289957956353b5F3C1F665EcF",
      "gasPrice": {
        "_hex": "0xcf7a7fee8"
      },
      "gasLimit": {
        "_hex": "0x5208"
      },
      "to": "0x32Be343B94f860124dC4fEe278FDCBD38C102D88",
      "value": {
        "_hex": "0x8ac2fb48256c6000"
      },
      "nonce": 31,
      "data": "0x",
      "r": "0x195963c2c095d821360f6e2df66fdf11aa355629737d401aaac0c8a7f3233d91",
      "s": "0x2643cbb346658f8aac666e38d64d9c8be670c6fd4e8515b5c6a49814f6082035",
      "v": 27,
      "creates": null,
      "raw": "0xf86c1f850cf7a7fee88252089432be343b94f860124dc4fee278fdcbd38c102d88888ac2fb48256c6000801ba0195963c2c095d821360f6e2df66fdf11aa355629737d401aaac0c8a7f3233d91a02643cbb346658f8aac666e38d64d9c8be670c6fd4e8515b5c6a49814f6082035",
      "networkId": 0,
      "chainId": 0
    }
  ]
}