{
  "hash": "0x10788333685498d107d7d3e8d3018cd703ac4253f6411898cfa57dad63acf8cf",
  "parentHash": "0x4e074aef876291a2b7db15dc0c77604a8c4f2660750f91d7e512f42dcbd6e073",
  "number": 78344,
  "timestamp": 1439452356,
  "nonce": "0xdc607c34d134fac1",
  "difficulty": 2277613980300,
  "gasLimit": {
    "_hex": "0x2fefd8"
  },
  "gasUsed": {
    "_hex": "0x6a21"
  },
  "miner": "0xe6A7a1d47ff21B6321162AEA7C6CB457D5476Bca",
  "extraData": "0x476574682f76312e302e312d38326566323666362f6c696e75782f676f312e34",
  "transactions": [
    {
      "hash": "0xc00a30be851169d52c8b518013552bc675dbbde58c850c9864cc704500cad416",
      "blockHash": "0x10788333685498d107d7d3e8d3018cd703ac4253f6411898cfa57dad63acf8cf",
      "blockNumber": 78344,
      "transactionIndex": 0,
      "confirmations": null,
      "from": "0x008FC7CBAdFFbD0D7fe44F8DFD60a79d721a1c9C",
      "gasPrice": {
        "_hex": "0xdec148c28"
      },
      "gasLimit": {
        "_hex": "0x15f90"
      },
      "to": "0x9611d9Df6A56E3708F2093f08095F33922b59c4A",
      "value": {
        "_hex": "0x0"
      },
      "nonce": 24,
      "data": "0x4e71d92d",
      "r": "0xa0107b802b43f9f99994fd71737db9e4998b28f9dd2cce98b49a7613840f6f25",
      "s": "0x5cb9718fa3535cba5165fd2f84c8c48d510da47e125c2832e75ac156a6302ef2",
      "v": 27,
      "creates": null,
      "raw": "0xf86918850dec148c2883015f90949611d9df6a56e3708f2093f08095f33922b59c4a80844e71d92d1ba0a0107b802b43f9f99994fd71737db9e4998b28f9dd2cce98b49a7613840f6f25a05cb9718fa3535cba5165fd2f84c8c48d510da47e125c2832e75ac156a6302ef2",
      "networkId": 0,
      "chainId": 0
    }
  ]
}