{
  "hash": "0x94d4fdea387b8fd1f3b6dbb4c340bf28f185218d6ba2572d10f47c6677d943f4",
  "parentHash": "0x53405f86b79616f2faabb364f8b5a3e2884c07f3a17f038dd06aa2b435a0603a",
  "number": 94727,
  "timestamp": 1439713216,
  "nonce": "0xa10e9fe72a271819",
  "difficulty": 3478038173236,
  "gasLimit": {
    "_hex": "0x2fefd8"
  },
  "gasUsed": {
    "_hex": "0xf618"
  },
  "miner": "0x9746c7e1ef2bd21FF3997fa467593a89cb852BD0",
  "extraData": "0x476574682f76312e302e312f77696e646f77732f676f312e342e32",
  "transactions": [
    {
      "hash": "0xf34e626359ad713d1be3cc6c5705e4be2e27cc69afe6c23e9e513370617900b5",
      "blockHash": "0x94d4fdea387b8fd1f3b6dbb4c340bf28f185218d6ba2572d10f47c6677d943f4",
      "blockNumber": 94727,
      "transactionIndex": 0,
      "confirmations": null,
      "from": "0x7550E0d09f273C690454B44F794D7D381B2E55EA",
      "gasPrice": {
        "_hex": "0xdd355398f"
      },
      "gasLimit": {
        "_hex": "0x5208"
      },
      "to": "0x32Be343B94f860124dC4fEe278FDCBD38C102D88",
      "value": {
        "_hex": "0x71975dbc0ba89c00"
      },
      "nonce": 4,
      "data": "0x",
      "r": "0x84d63d419619c069bada8bd5e8a48d845fc6d34d62d794847d9720e183a3f689",
      "s": "0x3d466fbe2f0bcbe812eb821dd14ff7b75f14ad39f1ec99205a62aa7b5b62247a",
      "v": 28,
      "creates": null,
      "raw": "0xf86c04850dd355398f8252089432be343b94f860124dc4fee278fdcbd38c102d888871975dbc0ba89c00801ca084d63d419619c069bada8bd5e8a48d845fc6d34d62d794847d9720e183a3f689a03d466fbe2f0bcbe812eb821dd14ff7b75f14ad39f1ec99205a62aa7b5b62247a",
      "networkId": 0,
      "chainId": 0
    },
    {
      "hash": "0xc842980d032dfc249f9b81ac310b40868ad74b92b1e93372648d1cebde0dc1cc",
      "blockHash": "0x94d4fdea387b8fd1f3b6dbb4c340bf28f185218d6ba2572d10f47c6677d943f4",
      "blockNumber": 94727,
      "transactionIndex": 1,
      "confirmations": null,
      "from": "0x790b8a3cE86E707ED0eD32bF89B3269692a23CC1",
      "gasPrice": {
        "_hex": "0xd01198da9"
      },
      "gasLimit": {
        "_hex": "0x15f90"
      },
      "to": "0x4D67f4F0Db45b3B5a3424B39ed8d972F710381D5",
      "value": {
        "_hex": "0x3fce27fffc9ac40000"
      },
      "nonce": 5,
      "data": "0x",
      "r": "0xe4acea20698511752bcc56575f1f41831f4b0a1f5a5505b45d601dfd7b923ae3",
      "s": "0x6f0b2a6938ff72ceb78aca9dee52b90c4658960c3de893b252d93cae7923dad2",
      "v": 27,
      "creates": null,
      "raw": "0xf86e05850d01198da983015f90944d67f4f0db45b3b5a3424b39ed8d972f710381d5893fce27fffc9ac40000801ba0e4acea20698511752bcc56575f1f41831f4b0a1f5a5505b45d601dfd7b923ae3a06f0b2a6938ff72ceb78aca9dee52b90c4658960c3de893b252d93cae7923dad2",
      "networkId": 0,
      "chainId": 0
    },
    {
      "hash": "0xa67c40efa1088c4e89417329e2e1b92ff9aa81266f9daf591ea131c30f8b5aeb",
      "blockHash": "0x94d4fdea387b8fd1f3b6dbb4c340bf28f185218d6ba2572d10f47c6677d943f4",
      "blockNumber": 94727,
      "transactionIndex": 2,
      "confirmations": null,
      "from": "0x4FCD326ae0739D0DA0fC71020adb6aBf9abf3BdA",
      "gasPrice": {
        "_hex": "0xba43b7400"
      },
      "gasLimit": {
        "_hex": "0x5208"
      },
      "to": "0xC47Aaa860008be6f65B58c6C6E02a84e666EfE31",
      "value": {
        "_hex": "0x2db2f5e6a009472780"
      },
      "nonce": 7,
      "data": "0x",
      "r": "0xfd998e51acab5727b2b68899cc740d9d5c52197fba7398468181cdc3a89391b1",
      "s": "0x25cf2f655433792e25dd1161d519ee4d8cbc334e0f20eccd016f26b03013682a",
      "v": 28,
      "creates": null,
      "raw": "0xf86d07850ba43b740082520894c47aaa860008be6f65b58c6c6e02a84e666efe31892db2f5e6a009472780801ca0fd998e51acab5727b2b68899cc740d9d5c52197fba7398468181cdc3a89391b1a025cf2f655433792e25dd1161d519ee4d8cbc334e0f20eccd016f26b03013682a",
      "networkId": 0,
      "chainId": 0
    }
  ]
}