{
  "hash": "0x9d0ac146a4634ff2cd183d1a4ada727780a1b133389976974b11b808314eedff",
  "parentHash": "0xa5b60a1675f2906df5ea40fdd3db2fbfde4c881c57710f07c722d8bdfa1e630c",
  "number": 71598,
  "timestamp": 1439338864,
  "nonce": "0xbe27108684dca0ae",
  "difficulty": 2170818862278,
  "gasLimit": {
    "_hex": "0x2fefd8"
  },
  "gasUsed": {
    "_hex": "0x9400"
  },
  "miner": "0x9271AB1be3177bF3E3B684a8783698F1B9D600a2",
  "extraData": "0x476574682f76312e302e312f77696e646f77732f676f312e342e32",
  "transactions": [
    {
      "hash": "0x449eb4cd00f3a826c50420e07d0023840c4fba2c42ce6f7fe81753c949a60ebe",
      "blockHash": "0x9d0ac146a4634ff2cd183d1a4ada727780a1b133389976974b11b808314eedff",
      "blockNumber": 71598,
      "transactionIndex": 0,
      "confirmations": null,
      "from": "0x17580B766f7453525ca4C6A88b01b50570EA088C",
      "gasPrice": {
        "_hex": "0xd99a33b3a"
      },
      "gasLimit": {
        "_hex": "0x61a80"
      },
      "to": "0x5Fe5B7546D1628f7348B023A0393de1FC825A4fD",
      "value": {
        "_hex": "0x4563918244f40000"
      },
      "nonce": 229,
      "data": "0xb595b8b50000000000000000000000000000000000000000000000000000000000000001",
      "r": "0xa11104d20e8e0b2107bdec6e0bf5880c17a2893601c34a2dae3310638702111d",
      "s": "0x4799499646e8e8a0c6df3d602e00c89d43cf65abd9adefc906725e38984f698b",
      "v": 28,
      "creates": null,
      "raw": "0xf89281e5850d99a33b3a83061a80945fe5b7546d1628f7348b023a0393de1fc825a4fd884563918244f40000a4b595b8b500000000000000000000000000000000000000000000000000000000000000011ca0a11104d20e8e0b2107bdec6e0bf5880c17a2893601c34a2dae3310638702111da04799499646e8e8a0c6df3d602e00c89d43cf65abd9adefc906725e38984f698b",
      "networkId": 0,
      "chainId": 0
    }
  ]
}