{
  "hash": "0xa2b5f3935b2c9926c1cfbcd2ef328370c68af58db871bb1d2f4ddb67e57fc453",
  "parentHash": "0xa9969278cf13d44d3dd5397d850b33e9a8ca677cefc56dca796f7a62b7cb90b7",
  "number": 115652,
  "timestamp": 1440060955,
  "nonce": "0x43ee9e990ea9572a",
  "difficulty": 4584965369403,
  "gasLimit": {
    "_hex": "0x2fefd8"
  },
  "gasUsed": {
    "_hex": "0xf618"
  },
  "miner": "0xe6A7a1d47ff21B6321162AEA7C6CB457D5476Bca",
  "extraData": "0x476574682f76312e302e312d38326566323666362f6c696e75782f676f312e34",
  "transactions": [
    {
      "hash": "0x60c4da9547fb51ed188aab68884dc9d88669868ad9951f8b896852b10b61f353",
      "blockHash": "0xa2b5f3935b2c9926c1cfbcd2ef328370c68af58db871bb1d2f4ddb67e57fc453",
      "blockNumber": 115652,
      "transactionIndex": 0,
      "confirmations": null,
      "from": "0x849528654b2c401b9c792B9670bBef4470Ad8cFf",
      "gasPrice": {
        "_hex": "0xcd9c6971b"
      },
      "gasLimit": {
        "_hex": "0x5208"
      },
      "to": "0x32Be343B94f860124dC4fEe278FDCBD38C102D88",
      "value": {
        "_hex": "0x182a2c0cef69400"
      },
      "nonce": 0,
      "data": "0x",
      "r": "0x07dcef4a961b876f51ffbf735de28d73dd97cf5d0dd5bf618702c1d6ab2cb042",
      "s": "0x1baeefa54856fd98e2fae09108e20b833ab9430082938c0461eab0e03b6378a7",
      "v": 27,
      "creates": null,
      "raw": "0xf86c80850cd9c6971b8252089432be343b94f860124dc4fee278fdcbd38c102d88880182a2c0cef69400801ba007dcef4a961b876f51ffbf735de28d73dd97cf5d0dd5bf618702c1d6ab2cb042a01baeefa54856fd98e2fae09108e20b833ab9430082938c0461eab0e03b6378a7",
      "networkId": 0,
      "chainId": 0
    },
    {
      "hash": "0xb2e6858fdf8eb5d50e166270e9280c8ce70b8a3509dbd72e69cea0e8fc500d1e",
      "blockHash": "0xa2b5f3935b2c9926c1cfbcd2ef328370c68af58db871bb1d2f4ddb67e57fc453",
      "blockNumber": 115652,
      "transactionIndex": 1,
      "confirmations": null,
      "from": "0x379965B927911bcF18D2d4F062Edf10c45847069",
      "gasPrice": {
        "_hex": "0xba43b7400"
      },
      "gasLimit": {
        "_hex": "0x5265"
      },
      "to": "0xE9820EfC74A9fe5fb68bf1e0FBf9945c1302bC0B",
      "value": {
        "_hex": "0xde0b6b3a7640000"
      },
      "nonce": 10,
      "data": "0x",
      "r": "0x69d91a4d4b7ec1101582b7f6b5ca07b714dbf4d5aa6f8918f03e98858e5847c1",
      "s": "0x55b40131923c5da49f6b3f0dfaeea56fc816398b83e9562b475bb21dbffd5330",
      "v": 28,
      "creates": null,
      "raw": "0xf86c0a850ba43b740082526594e9820efc74a9fe5fb68bf1e0fbf9945c1302bc0b880de0b6b3a7640000801ca069d91a4d4b7ec1101582b7f6b5ca07b714dbf4d5aa6f8918f03e98858e5847c1a055b40131923c5da49f6b3f0dfaeea56fc816398b83e9562b475bb21dbffd5330",
      "networkId": 0,
      "chainId": 0
    },
    {
      "hash": "0x9ff48ea5bfcd52ce8f02bb177237bb6527fc6b5d0bfd974f7def79b5c3064b08",
      "blockHash": "0xa2b5f3935b2c9926c1cfbcd2ef328370c68af58db871bb1d2f4ddb67e57fc453",
      "blockNumber": 115652,
      "transactionIndex": 2,
      "confirmations": null,
      "from": "0xCaf1C12c783fCcC4066e87a376F94518141dEF80",
      "gasPrice": {
        "_hex": "0xba43b7400"
      },
      "gasLimit": {
        "_hex": "0x5208"
      },
      "to": "0xC47Aaa860008be6f65B58c6C6E02a84e666EfE31",
      "value": {
        "_hex": "0xcf98ddc4e2d438f0"
      },
      "nonce": 4,
      "data": "0x",
      "r": "0x41744e7340e2f3cebe129e246c38b94c0db5ba519179babbe5e29c74ededd2d2",
      "s": "0x6ec69574adcd13cfb53a59c6f0b99d7c3362ca145c36e4e52a98d532a1174b1e",
      "v": 27,
      "creates": null,
      "raw": "0xf86c04850ba43b740082520894c47aaa860008be6f65b58c6c6e02a84e666efe3188cf98ddc4e2d438f0801ba041744e7340e2f3cebe129e246c38b94c0db5ba519179babbe5e29c74ededd2d2a06ec69574adcd13cfb53a59c6f0b99d7c3362ca145c36e4e52a98d532a1174b1e",
      "networkId": 0,
      "chainId": 0
    }
  ]
}