{
  "hash": "0xfb2a341cd71f940a08b3ac4590e24f426a6ec2ab814f2259d8f9d7fdd87b1fba",
  "parentHash": "0x6a5e966b560ae3cd316eb689055d7a4524f2cd13a134cb9b96856375aa4f7eec",
  "number": 95721,
  "timestamp": 1439728557,
  "nonce": "0x7a14eab2ec7ce40e",
  "difficulty": 3630312202772,
  "gasLimit": {
    "_hex": "0x2fefd8"
  },
  "gasUsed": {
    "_hex": "0x546c"
  },
  "miner": "0xc18e792d3002202d60C3A8820fbccc2EBA1b0C2b",
  "extraData": "0x",
  "transactions": [
    {
      "hash": "0x53161f406b5b664a5eee8b805c0d70cd5bb2db8a20b389ca5dcce1afc40b95c0",
      "blockHash": "0xfb2a341cd71f940a08b3ac4590e24f426a6ec2ab814f2259d8f9d7fdd87b1fba",
      "blockNumber": 95721,
      "transactionIndex": 0,
      "confirmations": null,
      "from": "0xd0DF24FD0DfcDc3850D1590dAA1D03ca7706b11B",
      "gasPrice": {
        "_hex": "0x10c421a41c6"
      },
      "gasLimit": {
        "_hex": "0x55f0"
      },
      "to": "0x2910543Af39abA0Cd09dBb2D50200b3E800A63D2",
      "value": {
        "_hex": "0xad78ebc5ac6200000"
      },
      "nonce": 8,
      "data": "0x454e364832354d3230",
      "r": "0x3aa6ce43c81f08ad4d4d35987dfd6f7b2e36b884330e29898c26af751ed5e40c",
      "s": "0x2813f631b50f3aab59be2a4409051cc93f9e19f3b40b93cec4c035e815249d0c",
      "v": 28,
      "creates": null,
      "raw": "0xf8770886010c421a41c68255f0942910543af39aba0cd09dbb2d50200b3e800a63d2890ad78ebc5ac620000089454e364832354d32301ca03aa6ce43c81f08ad4d4d35987dfd6f7b2e36b884330e29898c26af751ed5e40ca02813f631b50f3aab59be2a4409051cc93f9e19f3b40b93cec4c035e815249d0c",
      "networkId": 0,
      "chainId": 0
    }
  ]
}