{
  "hash": "0x0e25ea9b13b0d37418f7e6252d7fcd3f396c9ad9378bfb2345b9d21aa7dc1854",
  "parentHash": "0xb8d13e8b9c39eda92d295a541eae0a48ae8feaac54565a0eb831b111ab170e17",
  "number": 76512,
  "timestamp": 1439421821,
  "nonce": "0xc6e4c641d1715a0d",
  "difficulty": 2225339047113,
  "gasLimit": {
    "_hex": "0x2fefd8"
  },
  "gasUsed": {
    "_hex": "0x5208"
  },
  "miner": "0xB7268c7705A1866b2A78e882fdfDc8E2a4e1428E",
  "extraData": "0x476574682f76312e302e312f77696e646f77732f676f312e342e32",
  "transactions": [
    {
      "hash": "0xcb4b2a42672b73a9ff016e6f07436f448092b3aaac76b7f3fa0a9779ea489ef7",
      "blockHash": "0x0e25ea9b13b0d37418f7e6252d7fcd3f396c9ad9378bfb2345b9d21aa7dc1854",
      "blockNumber": 76512,
      "transactionIndex": 0,
      "confirmations": null,
      "from": "0x2910543Af39abA0Cd09dBb2D50200b3E800A63D2",
      "gasPrice": {
        "_hex": "0xd5cb119b3"
      },
      "gasLimit": {
        "_hex": "0x5208"
      },
      "to": "0xc38185BE927092366De6B1976dC3b460D6ADf241",
      "value": {
        "_hex": "0xdcef33a6f838000"
      },
      "nonce": 327,
      "data": "0x",
      "r": "0x043c75173bbb051661257cbdefaf1c9b2093ec5657335c2799f58719731fd3b5",
      "s": "0x4238b8c32a51162b16ff83547d90b82f5e62eea406d363c71791aa4d72ebc663",
      "v": 28,
      "creates": null,
      "raw": "0xf86e820147850d5cb119b382520894c38185be927092366de6b1976dc3b460d6adf241880dcef33a6f838000801ca0043c75173bbb051661257cbdefaf1c9b2093ec5657335c2799f58719731fd3b5a04238b8c32a51162b16ff83547d90b82f5e62eea406d363c71791aa4d72ebc663",
      "networkId": 0,
      "chainId": 0
    }
  ]
}