{
  "hash": "0x5b379343118fcf4c36d617a8ad91c71bc65839cf5ebb2abfb9863e2b60e84c35",
  "parentHash": "0x7195c9cd6334095b1edf7c75afee7e304bf78a155b0a295ea48ec9893d910d5b",
  "number": 97653,
  "timestamp": 1439759608,
  "nonce": "0x86912b3c6795646c",
  "difficulty": 3833490871643,
  "gasLimit": {
    "_hex": "0x2fefd8"
  },
  "gasUsed": {
    "_hex": "0x520c"
  },
  "miner": "0xe6A7a1d47ff21B6321162AEA7C6CB457D5476Bca",
  "extraData": "0x476574682f76312e302e312d38326566323666362f6c696e75782f676f312e34",
  "transactions": [
    {
      "hash": "0xb39393abdc2d0a4addaaea70ab519accb5a9422b4595a774ff032b8939b80139",
      "blockHash": "0x5b379343118fcf4c36d617a8ad91c71bc65839cf5ebb2abfb9863e2b60e84c35",
      "blockNumber": 97653,
      "transactionIndex": 0,
      "confirmations": null,
      "from": "0x85Ca1E727E9d1A87991CC2C41840ebB9edF21d1B",
      "gasPrice": {
        "_hex": "0xd4c9be61f"
      },
      "gasLimit": {
        "_hex": "0x7530"
      },
      "to": "0x1B95B22FaDbf1abBFb05197526D2485a204f9961",
      "value": {
        "_hex": "0xb469471f80140000"
      },
      "nonce": 0,
      "data": "0x00",
      "r": "0x67c302cfd9a418334962d75c094bb7b78e6fd62660d236478f274e04d2e067ad",
      "s": "0x22054664d4a7e738c952e4b59c328158e83948104c209909eb701201b53bafb4",
      "v": 28,
      "creates": null,
      "raw": "0xf86c80850d4c9be61f827530941b95b22fadbf1abbfb05197526d2485a204f996188b469471f80140000001ca067c302cfd9a418334962d75c094bb7b78e6fd62660d236478f274e04d2e067ada022054664d4a7e738c952e4b59c328158e83948104c209909eb701201b53bafb4",
      "networkId": 0,
      "chainId": 0
    }
  ]
}