{
  "hash": "0xa813f9bff619bc223966d7b5ebe6101b9c536e7e97907b9bfa33a9e8acba8036",
  "parentHash": "0x3f750ddeff3a180e8ee541c9d61a86d4a28e3a430f559626f2ace8e4b73be3ad",
  "number": 103895,
  "timestamp": 1439860660,
  "nonce": "0x58b61258c22995db",
  "difficulty": 4248420944952,
  "gasLimit": {
    "_hex": "0x2fefd8"
  },
  "gasUsed": {
    "_hex": "0x5208"
  },
  "miner": "0x47ff6576639c2e94762eA5443978D7681C0E78DC",
  "extraData": "0x476574682f76312e302e312f6c696e75782f676f312e342e32",
  "transactions": [
    {
      "hash": "0xb82abcc27a39540162dc260b07a61bf49c2b0361aff48b4bc735a77de728d3ec",
      "blockHash": "0xa813f9bff619bc223966d7b5ebe6101b9c536e7e97907b9bfa33a9e8acba8036",
      "blockNumber": 103895,
      "transactionIndex": 0,
      "confirmations": null,
      "from": "0xC6Bf5B6558f2eE21F2E43d9fF9B5408A0Cb89413",
      "gasPrice": {
        "_hex": "0xed90037c0"
      },
      "gasLimit": {
        "_hex": "0x15f90"
      },
      "to": "0x1D3ffA437e5bce40fCC134f4E0ac62841E4A9E81",
      "value": {
        "_hex": "0x1bc16d674ec80000"
      },
      "nonce": 13,
      "data": "0x",
      "r": "0x49c63968b5cf8d41eb06f6b0f8fd15c6cb166b4357edbf9d418905645484f766",
      "s": "0x2a47704d4620ea9a6abc727cdb9cf892b6365d2e73482053e7280ed5b84c4dca",
      "v": 28,
      "creates": null,
      "raw": "0xf86d0d850ed90037c083015f90941d3ffa437e5bce40fcc134f4e0ac62841e4a9e81881bc16d674ec80000801ca049c63968b5cf8d41eb06f6b0f8fd15c6cb166b4357edbf9d418905645484f766a02a47704d4620ea9a6abc727cdb9cf892b6365d2e73482053e7280ed5b84c4dca",
      "networkId": 0,
      "chainId": 0
    }
  ]
}