{
  "hash": "0xc2e004a3b969eb1c17b0bb95bc2af2d7088740b2b515f711769a01d72561e2ae",
  "parentHash": "0x56d80d829fa9e9a3130255bc24ff67ba8ea789d75d2443702708bdb978b09d8d",
  "number": 60356,
  "timestamp": 1439154054,
  "nonce": "0x2c7d0a8a7c24783f",
  "difficulty": 1746641124127,
  "gasLimit": {
    "_hex": "0x2fefd8"
  },
  "gasUsed": {
    "_hex": "0x5208"
  },
  "miner": "0x4245FB34599786Dd82dB47c0f4f2B276001a72CF",
  "extraData": "0x476574682f76312e302e312f77696e646f77732f676f312e342e32",
  "transactions": [
    {
      "hash": "0x498756ae5419719b0bd1ffa7117a995d7d0c6d4d474165f40da579e28628f4f1",
      "blockHash": "0xc2e004a3b969eb1c17b0bb95bc2af2d7088740b2b515f711769a01d72561e2ae",
      "blockNumber": 60356,
      "transactionIndex": 0,
      "confirmations": null,
      "from": "0x32Be343B94f860124dC4fEe278FDCBD38C102D88",
      "gasPrice": {
        "_hex": "0xcee8dc849"
      },
      "gasLimit": {
        "_hex": "0x5208"
      },
      "to": "0x8eB3FbB4A0Cc2366e88FB476df63D3Ad6907907b",
      "value": {
        "_hex": "0x4991d2c9ab8a20000"
      },
      "nonce": 117,
      "data": "0x",
      "r": "0xc94634c339215bfea479ae3ec011fa6dc9d5ded68f543a459e71177fc55c2e0e",
      "s": "0x6d7b09b09d90a626f2c2108b074b6ef356adae673224840f7c86dde3a7c0df5a",
      "v": 27,
      "creates": null,
      "raw": "0xf86d75850cee8dc849825208948eb3fbb4a0cc2366e88fb476df63d3ad6907907b8904991d2c9ab8a20000801ba0c94634c339215bfea479ae3ec011fa6dc9d5ded68f543a459e71177fc55c2e0ea06d7b09b09d90a626f2c2108b074b6ef356adae673224840f7c86dde3a7c0df5a",
      "networkId": 0,
      "chainId": 0
    }
  ]
}