{
  "hash": "0x462b4b99f802beea63c924ee1f4c53d3dcf495b412a99f4370dfef2715409324",
  "parentHash": "0x3b0f880df91a7f10db6bb9bd1e945b454c5faa54d5e9ae676f665c89025c84dc",
  "number": 79729,
  "timestamp": 1439474272,
  "nonce": "0x110de423d2fa46b4",
  "difficulty": 2343796114984,
  "gasLimit": {
    "_hex": "0x2fefd8"
  },
  "gasUsed": {
    "_hex": "0x3b46c"
  },
  "miner": "0xbb7B8287f3F0a933474a79eAe42CBCa977791171",
  "extraData": "0x476574682f4c5649562f76312e302e312f6c696e75782f676f312e342e32",
  "transactions": [
    {
      "hash": "0x243c3e6181f88603e5aff5c0f14b94d43a0b44da1c6a73ca40273cee4fbfc387",
      "blockHash": "0x462b4b99f802beea63c924ee1f4c53d3dcf495b412a99f4370dfef2715409324",
      "blockNumber": 79729,
      "transactionIndex": 0,
      "confirmations": null,
      "from": "0x8156360BBd370961ceCa6B6691D75006Ad204Cf2",
      "gasPrice": {
        "_hex": "0xce0872b8e"
      },
      "gasLimit": {
        "_hex": "0x55f0"
      },
      "to": "0x2910543Af39abA0Cd09dBb2D50200b3E800A63D2",
      "value": {
        "_hex": "0xa2a15d09519be00000"
      },
      "nonce": 4,
      "data": "0x454e50393935473647",
      "r": "0xa94ed367f7276379242d215a473eee91790e77b4b8ccc4063ecbf58a9f929989",
      "s": "0x45e9625b3c016dbf73dabaf031756a3cbac680c433cbe0e76377206de39b1a2f",
      "v": 28,
      "creates": null,
      "raw": "0xf87604850ce0872b8e8255f0942910543af39aba0cd09dbb2d50200b3e800a63d289a2a15d09519be0000089454e503939354736471ca0a94ed367f7276379242d215a473eee91790e77b4b8ccc4063ecbf58a9f929989a045e9625b3c016dbf73dabaf031756a3cbac680c433cbe0e76377206de39b1a2f",
      "networkId": 0,
      "chainId": 0
    },
    {
      "hash": "0x750f03159130ff12d88475a06c16b0655c5450e64789bd1007d762e504310c92",
      "blockHash": "0x462b4b99f802beea63c924ee1f4c53d3dcf495b412a99f4370dfef2715409324",
      "blockNumber": 79729,
      "transactionIndex": 1,
      "confirmations": null,
      "from": "0x34C57A97dF78772fAc54FF75CeF9590457feE4D9",
      "gasPrice": {
        "_hex": "0xcb5f3e6ea"
      },
      "gasLimit": {
        "_hex": "0xf4240"
      },
      "to": null,
      "value": {
        "_hex": "0x0"
      },
      "nonce": 0,
      "data": "0x60606040526040516102b43803806102b48339016040526060805160600190602001505b5b33600060006101000a81548173ffffffffffffffffffffffffffffffffffffffff021916908302179055505b806001600050908051906020019082805482825590600052602060002090601f01602090048101928215609e579182015b82811115609d5782518260005055916020019190600101906081565b5b50905060c5919060a9565b8082111560c1576000818150600090555060010160a9565b5090565b50505b506101dc806100d86000396000f30060606040526000357c01000000000000000000000000000000000000000000000000000000009004806341c0e1b514610044578063cfae32171461005157610042565b005b61004f6004506100ca565b005b61005c60045061015e565b60405180806020018281038252838181518152602001915080519060200190808383829060006004602084601f0104600302600f01f150905090810190601f1680156100bc5780820380516001836020036101000a031916815260200191505b509250505060405180910390f35b600060009054906101000a900473ffffffffffffffffffffffffffffffffffffffff1673ffffffffffffffffffffffffffffffffffffffff163373ffffffffffffffffffffffffffffffffffffffff16141561015b57600060009054906101000a900473ffffffffffffffffffffffffffffffffffffffff1673ffffffffffffffffffffffffffffffffffffffff16ff5b5b565b60206040519081016040528060008152602001506001600050805480601f016020809104026020016040519081016040528092919081815260200182805480156101cd57820191906000526020600020905b8154815290600101906020018083116101b057829003601f168201915b505050505090506101d9565b90560000000000000000000000000000000000000000000000000000000000000020000000000000000000000000000000000000000000000000000000000000000c48656c6c6f204461766964210000000000000000000000000000000000000000",
      "r": "0x8faf8dea7feb20bf5270e315cae9ceaea39d57c06fc6725bd925404bd40a659b",
      "s": "0x1b7e69844ef12b49db20b79d3e11780ff49e876ec57e3a1d818eb46be8a2e274",
      "v": 27,
      "creates": "0x9AA0F92cd89F8f2BF77D13Eb0415B3504CA0dC9A",
      "raw": "0xf9036780850cb5f3e6ea830f42408080b9031460606040526040516102b43803806102b48339016040526060805160600190602001505b5b33600060006101000a81548173ffffffffffffffffffffffffffffffffffffffff021916908302179055505b806001600050908051906020019082805482825590600052602060002090601f01602090048101928215609e579182015b82811115609d5782518260005055916020019190600101906081565b5b50905060c5919060a9565b8082111560c1576000818150600090555060010160a9565b5090565b50505b506101dc806100d86000396000f30060606040526000357c01000000000000000000000000000000000000000000000000000000009004806341c0e1b514610044578063cfae32171461005157610042565b005b61004f6004506100ca565b005b61005c60045061015e565b60405180806020018281038252838181518152602001915080519060200190808383829060006004602084601f0104600302600f01f150905090810190601f1680156100bc5780820380516001836020036101000a031916815260200191505b509250505060405180910390f35b600060009054906101000a900473ffffffffffffffffffffffffffffffffffffffff1673ffffffffffffffffffffffffffffffffffffffff163373ffffffffffffffffffffffffffffffffffffffff16141561015b57600060009054906101000a900473ffffffffffffffffffffffffffffffffffffffff1673ffffffffffffffffffffffffffffffffffffffff16ff5b5b565b60206040519081016040528060008152602001506001600050805480601f016020809104026020016040519081016040528092919081815260200182805480156101cd57820191906000526020600020905b8154815290600101906020018083116101b057829003601f168201915b505050505090506101d9565b90560000000000000000000000000000000000000000000000000000000000000020000000000000000000000000000000000000000000000000000000000000000c48656c6c6f2044617669642100000000000000000000000000000000000000001ba08faf8dea7feb20bf5270e315cae9ceaea39d57c06fc6725bd925404bd40a659ba01b7e69844ef12b49db20b79d3e11780ff49e876ec57e3a1d818eb46be8a2e274",
      "networkId": 0,
      "chainId": 0
    }
  ]
}