{
  "hash": "0xb468b62240369d776d7e78e3f9e5053f3d756bf95f093cadb137ebeb5fbbe1fd",
  "parentHash": "0x579c36838c63cf7bbd94a30aa4b3012fedb8f9b21eb3ca90c2cdae7ef34c6628",
  "number": 108267,
  "timestamp": 1439937386,
  "nonce": "0x375a3f95cce7cdaa",
  "difficulty": 4351150325997,
  "gasLimit": {
    "_hex": "0x2fefd8"
  },
  "gasUsed": {
    "_hex": "0xa410"
  },
  "miner": "0x580992B51e3925e23280EfB93d3047C82f17E038",
  "extraData": "0x476574682f76312e302e312f6c696e75782f676f312e342e32",
  "transactions": [
    {
      "hash": "0x0f25fc43e93a301e024aded0adf47e70d32eb5e1601e76f8750866260da9b657",
      "blockHash": "0xb468b62240369d776d7e78e3f9e5053f3d756bf95f093cadb137ebeb5fbbe1fd",
      "blockNumber": 108267,
      "transactionIndex": 0,
      "confirmations": null,
      "from": "0x0D4EcC7d750180EBf4A9Df728B6669B5Bceb5E40",
      "gasPrice": {
        "_hex": "0xd1f8374b2"
      },
      "gasLimit": {
        "_hex": "0x5208"
      },
      "to": "0x32Be343B94f860124dC4fEe278FDCBD38C102D88",
      "value": {
        "_hex": "0x4568056c8e7b7c00"
      },
      "nonce": 89,
      "data": "0x",
      "r": "0x31f38f6f16997902d5d8a27eb50d872b109e7640e3b6000aa0c113476deed6da",
      "s": "0x378f7b210247e9804c83bc26cf8e039c769e53b0073bb67fd08dfa6d5775fed8",
      "v": 28,
      "creates": null,
      "raw": "0xf86c59850d1f8374b28252089432be343b94f860124dc4fee278fdcbd38c102d88884568056c8e7b7c00801ca031f38f6f16997902d5d8a27eb50d872b109e7640e3b6000aa0c113476deed6daa0378f7b210247e9804c83bc26cf8e039c769e53b0073bb67fd08dfa6d5775fed8",
      "networkId": 0,
      "chainId": 0
    },
    {
      "hash": "0x2b61475bf8cc7503edf17dee6fa8c7061280c566a2a51675af44a63eb9605e0d",
      "blockHash": "0xb468b62240369d776d7e78e3f9e5053f3d756bf95f093cadb137ebeb5fbbe1fd",
      "blockNumber": 108267,
      "transactionIndex": 1,
      "confirmations": null,
      "from": "0xee5379D0c1ca47327368027455074C26D9952628",
      "gasPrice": {
        "_hex": "0xcc4d71e65"
      },
      "gasLimit": {
        "_hex": "0x15f90"
      },
      "to": "0xB8796061FcCcC0c40BD2060d95d6cff928bD1C1B",
      "value": {
        "_hex": "0x144bd800580240000"
      },
      "nonce": 18,
      "data": "0x",
      "r": "0x193a54077187b55adcac075368f50e1ccea168aa07dda42732ade6ea740588be",
      "s": "0x5f60356dc1c8bae7b087623ee53d3f691924ac170e09a45c24440bdae1105393",
      "v": 27,
      "creates": null,
      "raw": "0xf86e12850cc4d71e6583015f9094b8796061fcccc0c40bd2060d95d6cff928bd1c1b890144bd800580240000801ba0193a54077187b55adcac075368f50e1ccea168aa07dda42732ade6ea740588bea05f60356dc1c8bae7b087623ee53d3f691924ac170e09a45c24440bdae1105393",
      "networkId": 0,
      "chainId": 0
    }
  ]
}