{
  "hash": "0xa11ef906de001f57407a59deb1548c3b94e7e60e54c920fd5de9a11bbb9dafb5",
  "parentHash": "0x3070c4f8b662a28bab0ccd2d6a67716dc78f38816dccca7ec14a5c63b485ff5f",
  "number": 61105,
  "timestamp": 1439166809,
  "nonce": "0x7fecce7fdf73f400",
  "difficulty": 1728668382708,
  "gasLimit": {
    "_hex": "0x2fefd8"
  },
  "gasUsed": {
    "_hex": "0x5208"
  },
  "miner": "0xC49418429e58989172a4ACE0bab0cB8D3F00F97f",
  "extraData": "0x476574682f76312e302e312f6c696e75782f676f312e342e32",
  "transactions": [
    {
      "hash": "0x3db122d1634b3313423c69276ec67ca9212343f19b3af92de555213818544330",
      "blockHash": "0xa11ef906de001f57407a59deb1548c3b94e7e60e54c920fd5de9a11bbb9dafb5",
      "blockNumber": 61105,
      "transactionIndex": 0,
      "confirmations": null,
      "from": "0x4c74B6F32c9680aCB5Fe0e72B7Aa95C612540A04",
      "gasPrice": {
        "_hex": "0xd8e62c1c0"
      },
      "gasLimit": {
        "_hex": "0x5208"
      },
      "to": "0x32Be343B94f860124dC4fEe278FDCBD38C102D88",
      "value": {
        "_hex": "0x56bc30625aff14000"
      },
      "nonce": 5,
      "data": "0x",
      "r": "0xd669d044f3b344dde37b3cf924233c52c7a480594edc3b68cda5559877b1cddc",
      "s": "0x19d902dba786cd52cc6e3f4dfe70e60c3df4c966e02ad14fc0d6329ada0fcfe1",
      "v": 27,
      "creates": null,
      "raw": "0xf86d05850d8e62c1c08252089432be343b94f860124dc4fee278fdcbd38c102d8889056bc30625aff14000801ba0d669d044f3b344dde37b3cf924233c52c7a480594edc3b68cda5559877b1cddca019d902dba786cd52cc6e3f4dfe70e60c3df4c966e02ad14fc0d6329ada0fcfe1",
      "networkId": 0,
      "chainId": 0
    }
  ]
}