{
  "hash": "0x53cff0491f8768992cfea956c938146b6bb416b5ed861025d6b80a97d22498ea",
  "parentHash": "0x52dc6689fa25b1eb10441a4a474ff21090ff23c1b19d643b7d06183ba3fe6823",
  "number": 94866,
  "timestamp": 1439715172,
  "nonce": "0x39d9c429aa27bd87",
  "difficulty": 3531026215676,
  "gasLimit": {
    "_hex": "0x2fefd8"
  },
  "gasUsed": {
    "_hex": "0x5208"
  },
  "miner": "0xe6A7a1d47ff21B6321162AEA7C6CB457D5476Bca",
  "extraData": "0x476574682f76312e302e312d38326566323666362f6c696e75782f676f312e34",
  "transactions": [
    {
      "hash": "0x4af9758cf1a646ea27885ade34d80ec4ab004ba9504e2feccc2926153525b51c",
      "blockHash": "0x53cff0491f8768992cfea956c938146b6bb416b5ed861025d6b80a97d22498ea",
      "blockNumber": 94866,
      "transactionIndex": 0,
      "confirmations": null,
      "from": "0x32Be343B94f860124dC4fEe278FDCBD38C102D88",
      "gasPrice": {
        "_hex": "0xcdefb15b3"
      },
      "gasLimit": {
        "_hex": "0x5208"
      },
      "to": "0x993C1e942e3272A16Abcb65471e5C3eb6430a44d",
      "value": {
        "_hex": "0xdbd2fc137a30000"
      },
      "nonce": 964,
      "data": "0x",
      "r": "0xdd147ac25ad5e461ee3ba52697f16c3779fb5c2852206bfb9c64d3c79151bb02",
      "s": "0x67f460b7146a367161f1710fa2b29555f2e55237ef44324dbd9552710e84b77c",
      "v": 28,
      "creates": null,
      "raw": "0xf86e8203c4850cdefb15b382520894993c1e942e3272a16abcb65471e5c3eb6430a44d880dbd2fc137a30000801ca0dd147ac25ad5e461ee3ba52697f16c3779fb5c2852206bfb9c64d3c79151bb02a067f460b7146a367161f1710fa2b29555f2e55237ef44324dbd9552710e84b77c",
      "networkId": 0,
      "chainId": 0
    }
  ]
}