{
  "hash": "0xba118e3734345e523e6a585a3038367f0e9d95ac97fed93d08f81aa7aa5a8e9f",
  "parentHash": "0xf214e4eb56e60b5c09537ae75494db9f73ee74823b70d8beb70272197332dde6",
  "number": 101837,
  "timestamp": 1439828800,
  "nonce": "0x6c32d426f78c9a55",
  "difficulty": 3884323926429,
  "gasLimit": {
    "_hex": "0x2fefd8"
  },
  "gasUsed": {
    "_hex": "0x5208"
  },
  "miner": "0xe6A7a1d47ff21B6321162AEA7C6CB457D5476Bca",
  "extraData": "0x476574682f76312e302e312d38326566323666362f6c696e75782f676f312e34",
  "transactions": [
    {
      "hash": "0x2e910146aa64d50f5255e86ae482f5b35a51f20c075be428b2ee73ff5e10de8c",
      "blockHash": "0xba118e3734345e523e6a585a3038367f0e9d95ac97fed93d08f81aa7aa5a8e9f",
      "blockNumber": 101837,
      "transactionIndex": 0,
      "confirmations": null,
      "from": "0x15D8B2E0f97030dE1a38698C07307C38B2A55037",
      "gasPrice": {
        "_hex": "0xd9fe2257f"
      },
      "gasLimit": {
        "_hex": "0x15f90"
      },
      "to": "0x2D1d94521E896625F8Ec3f65171Fa82262Da6BCF",
      "value": {
        "_hex": "0x7759566f6c5c0000"
      },
      "nonce": 1,
      "data": "0x",
      "r": "0xd11797128e0c0e760b51b31f154202774e957fd718487defe3879a1a1ab871c3",
      "s": "0x1825a4d90261fee4a970a7af635d732c35fffc9011cda73d23dbb3f6718a5930",
      "v": 27,
      "creates": null,
      "raw": "0xf86d01850d9fe2257f83015f90942d1d94521e896625f8ec3f65171fa82262da6bcf887759566f6c5c0000801ba0d11797128e0c0e760b51b31f154202774e957fd718487defe3879a1a1ab871c3a01825a4d90261fee4a970a7af635d732c35fffc9011cda73d23dbb3f6718a5930",
      "networkId": 0,
      "chainId": 0
    }
  ]
}