{
  "hash": "0x0d5d8a5b4acff6e1e5addea63c4b87e9689a01e2781061253e3ea0b27698e21f",
  "parentHash": "0x36e74ecd6a1255a2013a489c91115294d5d1f88acf3cc41eef5a55b684fb4975",
  "number": 94631,
  "timestamp": 1439711352,
  "nonce": "0xa423771fb4a30731",
  "difficulty": 3505356882284,
  "gasLimit": {
    "_hex": "0x2fefd8"
  },
  "gasUsed": {
    "_hex": "0x5208"
  },
  "miner": "0xe6A7a1d47ff21B6321162AEA7C6CB457D5476Bca",
  "extraData": "0x476574682f76312e302e312d38326566323666362f6c696e75782f676f312e34",
  "transactions": [
    {
      "hash": "0x57a8b5bf900ef195a7435c1eac1cab3ccdd397ce8a6c9d0712b2dd650f60db10",
      "blockHash": "0x0d5d8a5b4acff6e1e5addea63c4b87e9689a01e2781061253e3ea0b27698e21f",
      "blockNumber": 94631,
      "transactionIndex": 0,
      "confirmations": null,
      "from": "0x007f7f58D3eb5b7510A301eCC749FC1fCDDBE14D",
      "gasPrice": {
        "_hex": "0xcc8ddf695"
      },
      "gasLimit": {
        "_hex": "0x15f90"
      },
      "to": "0xb1abce2918E21ddb93AA452731a12672A3d9F75a",
      "value": {
        "_hex": "0x4563918244f40000"
      },
      "nonce": 37,
      "data": "0x",
      "r": "0xaf37eacdff8ac5d01e1cf4cff666d5a2ba664110cb7f75830f011522108bdb1f",
      "s": "0x6fdf9a38d76df79b176af082a79b8e34abb84aec354d51210d8c5e2e6c9373c6",
      "v": 27,
      "creates": null,
      "raw": "0xf86d25850cc8ddf69583015f9094b1abce2918e21ddb93aa452731a12672a3d9f75a884563918244f40000801ba0af37eacdff8ac5d01e1cf4cff666d5a2ba664110cb7f75830f011522108bdb1fa06fdf9a38d76df79b176af082a79b8e34abb84aec354d51210d8c5e2e6c9373c6",
      "networkId": 0,
      "chainId": 0
    }
  ]
}