{
  "hash": "0xee1fe84c27b3adda0756a1460d8b472e3ca934627777cf4e3b321267cd82021d",
  "parentHash": "0xf91e4da9764eeca0b1c877ecde5b58d16ebf31731a7e1a47584467415db87659",
  "number": 74372,
  "timestamp": 1439385022,
  "nonce": "0x8f75ef8de67a40d8",
  "difficulty": 2212902533048,
  "gasLimit": {
    "_hex": "0x2fefd8"
  },
  "gasUsed": {
    "_hex": "0x5208"
  },
  "miner": "0x785ffdDd5cE55c6DF963f345e68d3F2024E5Acb1",
  "extraData": "0x",
  "transactions": [
    {
      "hash": "0xa6e74c1af5a7196a838e17f472818289ee42cf7d0d2666be271c905b649d1f2f",
      "blockHash": "0xee1fe84c27b3adda0756a1460d8b472e3ca934627777cf4e3b321267cd82021d",
      "blockNumber": 74372,
      "transactionIndex": 0,
      "confirmations": null,
      "from": "0x8bae48F227d978d084B009b775222BAaF61ed9fe",
      "gasPrice": {
        "_hex": "0xba43b7400"
      },
      "gasLimit": {
        "_hex": "0x5265"
      },
      "to": "0xC2c2c26961e5560081003Bb157549916B21744Db",
      "value": {
        "_hex": "0x16345785d8a0000"
      },
      "nonce": 19,
      "data": "0x",
      "r": "0xf109cc435e60be89defc117d2e1ef78585cf30d70758135da721ab4b620a6aa2",
      "s": "0x14ee21e7f27595fbae28c83077faa31cb9205c0ba325a499ca19b8c78583c564",
      "v": 28,
      "creates": null,
      "raw": "0xf86c13850ba43b740082526594c2c2c26961e5560081003bb157549916b21744db88016345785d8a0000801ca0f109cc435e60be89defc117d2e1ef78585cf30d70758135da721ab4b620a6aa2a014ee21e7f27595fbae28c83077faa31cb9205c0ba325a499ca19b8c78583c564",
      "networkId": 0,
      "chainId": 0
    }
  ]
}