{
  "hash": "0xa1dac13b9a9000e2e5e92a61f7771f2177885ec0b7ed6212a1ead702d39b85ab",
  "parentHash": "0xc215c8b4c44cd508d11d3eeb3bf1f20ab11bd3f7f26e3ab981487f0c7a1ac0b7",
  "number": 61996,
  "timestamp": 1439181597,
  "nonce": "0xc830af4f78f0f6de",
  "difficulty": 1748005887360,
  "gasLimit": {
    "_hex": "0x2fefd8"
  },
  "gasUsed": {
    "_hex": "0x546c"
  },
  "miner": "0x5e1a72dde3Ffc20B77eA8382E916EF04C89ff2Bd",
  "extraData": "0x476574682f76312e302e302f77696e646f77732f676f312e342e32",
  "transactions": [
    {
      "hash": "0x6bb6aee3aced776b5a13e0b20df4352a3966a17754559cd29e2a2143953cca0f",
      "blockHash": "0xa1dac13b9a9000e2e5e92a61f7771f2177885ec0b7ed6212a1ead702d39b85ab",
      "blockNumber": 61996,
      "transactionIndex": 0,
      "confirmations": null,
      "from": "0xd0DF24FD0DfcDc3850D1590dAA1D03ca7706b11B",
      "gasPrice": {
        "_hex": "0x10e43e3b6f8"
      },
      "gasLimit": {
        "_hex": "0x61a8"
      },
      "to": "0x2910543Af39abA0Cd09dBb2D50200b3E800A63D2",
      "value": {
        "_hex": "0x5b12aefafa8040000"
      },
      "nonce": 1,
      "data": "0x454e364832354d3230",
      "r": "0x26ac586c2364863fb705a297fd6892a0eb8f36e54fc476507e6d38c815d37a63",
      "s": "0x48e945c1c0774caca28b3e5aa03bce19396ca4f672d0e2ec2565d22affe473e4",
      "v": 28,
      "creates": null,
      "raw": "0xf8770186010e43e3b6f88261a8942910543af39aba0cd09dbb2d50200b3e800a63d28905b12aefafa804000089454e364832354d32301ca026ac586c2364863fb705a297fd6892a0eb8f36e54fc476507e6d38c815d37a63a048e945c1c0774caca28b3e5aa03bce19396ca4f672d0e2ec2565d22affe473e4",
      "networkId": 0,
      "chainId": 0
    }
  ]
}