{
  "hash": "0x28b01ec99b50be75f0feb8c9ed18ad2af0a74113ce3c3b4ef8e8e8d0e0274c81",
  "parentHash": "0xd53f2491edd0dc2102e540e1d785c5757a2bc842f4b727092caff91883869ae0",
  "number": 94576,
  "timestamp": 1439710549,
  "nonce": "0x5fd3832db5f833ff",
  "difficulty": 3496832246634,
  "gasLimit": {
    "_hex": "0x2fefd8"
  },
  "gasUsed": {
    "_hex": "0x5208"
  },
  "miner": "0x8E61bF5A2e46D15774172781Cf100ED0962cBb63",
  "extraData": "0x476574682f76312e302e312d37666266393930632f6c696e75782f676f312e34",
  "transactions": [
    {
      "hash": "0x03f24678e0c5a385f7953b696ffff658fa5d8be0397febd20629cb6fc152f0fa",
      "blockHash": "0x28b01ec99b50be75f0feb8c9ed18ad2af0a74113ce3c3b4ef8e8e8d0e0274c81",
      "blockNumber": 94576,
      "transactionIndex": 0,
      "confirmations": null,
      "from": "0x54A6ae0918896330899e0999038D20D94031c6fe",
      "gasPrice": {
        "_hex": "0xba43b7400"
      },
      "gasLimit": {
        "_hex": "0x5208"
      },
      "to": "0xC47Aaa860008be6f65B58c6C6E02a84e666EfE31",
      "value": {
        "_hex": "0x56ba01c42c64b6000"
      },
      "nonce": 2,
      "data": "0x",
      "r": "0xb52663a27476889b45467817233a2fce355beb8fc565905c5e10cb121eb7e441",
      "s": "0x61f30efced1c7f896ec502e78b9c429eb6d41beea3c56b1bfa8f6d5a4382afdd",
      "v": 27,
      "creates": null,
      "raw": "0xf86d02850ba43b740082520894c47aaa860008be6f65b58c6c6e02a84e666efe3189056ba01c42c64b6000801ba0b52663a27476889b45467817233a2fce355beb8fc565905c5e10cb121eb7e441a061f30efced1c7f896ec502e78b9c429eb6d41beea3c56b1bfa8f6d5a4382afdd",
      "networkId": 0,
      "chainId": 0
    }
  ]
}