{
  "hash": "0x0198291ab13e3e5466697ba9bf7e47560c5e6f673ea71b8f1bd7b411e22946c9",
  "parentHash": "0xbfa3b43af64ba5fc67f278590cb4624719e8ac9c784a8095b272f089fea843d8",
  "number": 113425,
  "timestamp": 1440023352,
  "nonce": "0x66bfd21272cc53da",
  "difficulty": 4464657755563,
  "gasLimit": {
    "_hex": "0x2fefd8"
  },
  "gasUsed": {
    "_hex": "0x5208"
  },
  "miner": "0xe6A7a1d47ff21B6321162AEA7C6CB457D5476Bca",
  "extraData": "0x476574682f76312e302e312d38326566323666362f6c696e75782f676f312e34",
  "transactions": [
    {
      "hash": "0xa53fe8ef805f552b61b69bf969987d470edfb543bf282ea4423bded5c976e48b",
      "blockHash": "0x0198291ab13e3e5466697ba9bf7e47560c5e6f673ea71b8f1bd7b411e22946c9",
      "blockNumber": 113425,
      "transactionIndex": 0,
      "confirmations": null,
      "from": "0xee5379D0c1ca47327368027455074C26D9952628",
      "gasPrice": {
        "_hex": "0xda1ef38ca"
      },
      "gasLimit": {
        "_hex": "0x15f90"
      },
      "to": "0x029b539130345336FA435C807F08B86a344A1BFe",
      "value": {
        "_hex": "0x8644813d59e78000"
      },
      "nonce": 24,
      "data": "0x",
      "r": "0xd0a68e86538879892467d3ca13d9aadec60afc366cc902a6c14ede4fda6660e8",
      "s": "0x2b92e0ee197c614831cb5933f03ceb412f823163a2d8d336c8ed1f6b95cd4c4a",
      "v": 28,
      "creates": null,
      "raw": "0xf86d18850da1ef38ca83015f9094029b539130345336fa435c807f08b86a344a1bfe888644813d59e78000801ca0d0a68e86538879892467d3ca13d9aadec60afc366cc902a6c14ede4fda6660e8a02b92e0ee197c614831cb5933f03ceb412f823163a2d8d336c8ed1f6b95cd4c4a",
      "networkId": 0,
      "chainId": 0
    }
  ]
}