{
  "hash": "0x5e5dd1599457f90ea3b840fd1ef7154254cde936825fd949b71dc1eacb73d7b2",
  "parentHash": "0x216bb062b3ffcae3d3b70cd9e22d8b637ce9998d6e8b92c8f6cae5a50d36a24d",
  "number": 80685,
  "timestamp": 1439489205,
  "nonce": "0x15f684807330b51b",
  "difficulty": 2439265544987,
  "gasLimit": {
    "_hex": "0x2fefd8"
  },
  "gasUsed": {
    "_hex": "0x546c"
  },
  "miner": "0x3cdA97032227293AaeAEF72f44C1AdCfC3daF366",
  "extraData": "0x476574682f76312e302e312d38326566323666362f6c696e75782f676f312e34",
  "transactions": [
    {
      "hash": "0xc8b94c2d480c2b14a26b606133ba037d41ba40466441cacc63bb1cf952673098",
      "blockHash": "0x5e5dd1599457f90ea3b840fd1ef7154254cde936825fd949b71dc1eacb73d7b2",
      "blockNumber": 80685,
      "transactionIndex": 0,
      "confirmations": null,
      "from": "0x3F75AE61Cc1d8042653B5bAec4443E051c5e7AbD",
      "gasPrice": {
        "_hex": "0x110c8f7d8de"
      },
      "gasLimit": {
        "_hex": "0xc350"
      },
      "to": "0x2910543Af39abA0Cd09dBb2D50200b3E800A63D2",
      "value": {
        "_hex": "0x52663ccab1e1c0000"
      },
      "nonce": 0,
      "data": "0x454e33385632573152",
      "r": "0x89968be211980077cc553806d6fb38a9f976634c6dc37e3f6978541a9fef901a",
      "s": "0xd90867b8ce52cd8a5ac874a732cd65df5ce3007f70af97394ccc05470a30117c",
      "v": 27,
      "creates": null,
      "raw": "0xf87780860110c8f7d8de82c350942910543af39aba0cd09dbb2d50200b3e800a63d289052663ccab1e1c000089454e333856325731521ba089968be211980077cc553806d6fb38a9f976634c6dc37e3f6978541a9fef901aa0d90867b8ce52cd8a5ac874a732cd65df5ce3007f70af97394ccc05470a30117c",
      "networkId": 0,
      "chainId": 0
    }
  ]
}