{
  "hash": "0x7e36e1f1e3fc1e53814c4549fa2574904a20881d2be9c3e4935e3432bf9df52f",
  "parentHash": "0x5cf4a624e457b0087f4412f3e3815093a134da78b93521d092cc23dc4f407af7",
  "number": 112686,
  "timestamp": 1440011426,
  "nonce": "0x16fa272891999e62",
  "difficulty": 4428141077534,
  "gasLimit": {
    "_hex": "0x2fefd8"
  },
  "gasUsed": {
    "_hex": "0x14820"
  },
  "miner": "0xe6A7a1d47ff21B6321162AEA7C6CB457D5476Bca",
  "extraData": "0x476574682f76312e302e312d38326566323666362f6c696e75782f676f312e34",
  "transactions": [
    {
      "hash": "0x1fbab1a708f55819e0c0d52f27c3a67a0683d043bd7a750807edd3f4331d1f65",
      "blockHash": "0x7e36e1f1e3fc1e53814c4549fa2574904a20881d2be9c3e4935e3432bf9df52f",
      "blockNumber": 112686,
      "transactionIndex": 0,
      "confirmations": null,
      "from": "0xe6A7a1d47ff21B6321162AEA7C6CB457D5476Bca",
      "gasPrice": {
        "_hex": "0xcca080e08"
      },
      "gasLimit": {
        "_hex": "0x55f0"
      },
      "to": "0xabF56d5ca441eCAD5979023Ec368b74a8d662d95",
      "value": {
        "_hex": "0x2cb65d13aeb59490"
      },
      "nonce": 4788,
      "data": "0x",
      "r": "0x7f9d8bfc9dd790f62b1debe4db51e033b9b2ac0e71c08e5f4192da1de40521a5",
      "s": "0x7965ba224541a6261e73652c472c832d8be6c69b443b72e28cade155ec1cf48e",
      "v": 28,
      "creates": null,
      "raw": "0xf86e8212b4850cca080e088255f094abf56d5ca441ecad5979023ec368b74a8d662d95882cb65d13aeb59490801ca07f9d8bfc9dd790f62b1debe4db51e033b9b2ac0e71c08e5f4192da1de40521a5a07965ba224541a6261e73652c472c832d8be6c69b443b72e28cade155ec1cf48e",
      "networkId": 0,
      "chainId": 0
    },
    {
      "hash": "0xc66031c054fc784afb29357ec396782e7bbbd099418d47b3b09a7f787435cef4",
      "blockHash": "0x7e36e1f1e3fc1e53814c4549fa2574904a20881d2be9c3e4935e3432bf9df52f",
      "blockNumber": 112686,
      "transactionIndex": 1,
      "confirmations": null,
      "from": "0xe6A7a1d47ff21B6321162AEA7C6CB457D5476Bca",
      "gasPrice": {
        "_hex": "0xcca080e08"
      },
      "gasLimit": {
        "_hex": "0x55f0"
      },
      "to": "0x46532c79E7F23Aa3520221582D7AC182fb98C56B",
      "value": {
        "_hex": "0x2d4d08f338bc0fe4"
      },
      "nonce": 4789,
      "data": "0x",
      "r": "0x9c8832b9b4d59c746cb8c37d42a5d090d2800056c7a35c3aeb99dbd078f34a18",
      "s": "0x37bbcd45582650539def39a6fe8ee054879cac1e673e14f099d88afa9b0a2dd9",
      "v": 27,
      "creates": null,
      "raw": "0xf86e8212b5850cca080e088255f09446532c79e7f23aa3520221582d7ac182fb98c56b882d4d08f338bc0fe4801ba09c8832b9b4d59c746cb8c37d42a5d090d2800056c7a35c3aeb99dbd078f34a18a037bbcd45582650539def39a6fe8ee054879cac1e673e14f099d88afa9b0a2dd9",
      "networkId": 0,
      "chainId": 0
    },
    {
      "hash": "0x8073d42d1ed4a25e528d2a6bdbbe9f41e294b2109c2fd94762f8625bd77741a8",
      "blockHash": "0x7e36e1f1e3fc1e53814c4549fa2574904a20881d2be9c3e4935e3432bf9df52f",
      "blockNumber": 112686,
      "transactionIndex": 2,
      "confirmations": null,
      "from": "0xe6A7a1d47ff21B6321162AEA7C6CB457D5476Bca",
      "gasPrice": {
        "_hex": "0xcca080e08"
      },
      "gasLimit": {
        "_hex": "0x55f0"
      },
      "to": "0x2435CaC661de90FF84BF79A55629C5bc30B40a0d",
      "value": {
        "_hex": "0x2d746cae4c7df010"
      },
      "nonce": 4790,
      "data": "0x",
      "r": "0x642e49079fec3355fef2a934757e4d8b389caaee91acc519fc60d0ba33f1d9f2",
      "s": "0x270676d5afe1586ca398c2a4b725cca793afce53f21e988c83b8abdfe7c3d4d3",
      "v": 27,
      "creates": null,
      "raw": "0xf86e8212b6850cca080e088255f0942435cac661de90ff84bf79a55629c5bc30b40a0d882d746cae4c7df010801ba0642e49079fec3355fef2a934757e4d8b389caaee91acc519fc60d0ba33f1d9f2a0270676d5afe1586ca398c2a4b725cca793afce53f21e988c83b8abdfe7c3d4d3",
      "networkId": 0,
      "chainId": 0
    },
    {
      "hash": "0x6d6b484f600cf88f395184c30c70b14cf3035a8226e7faefd006625a9b647c59",
      "blockHash": "0x7e36e1f1e3fc1e53814c4549fa2574904a20881d2be9c3e4935e3432bf9df52f",
      "blockNumber": 112686,
      "transactionIndex": 3,
      "confirmations": null,
      "from": "0xe6A7a1d47ff21B6321162AEA7C6CB457D5476Bca",
      "gasPrice": {
        "_hex": "0xcca080e08"
      },
      "gasLimit": {
        "_hex": "0x55f0"
      },
      "to": "0xce8ff6d2027CA9837abb85FD515752151b6C7d0A",
      "value": {
        "_hex": "0x2e4ead3d5094381c"
      },
      "nonce": 4791,
      "data": "0x",
      "r": "0x09c51517840e9a92d82dc256b9463fba2dbbdfa80d3c3784e8706e464eb36dd4",
      "s": "0x417b14e99b48ad2f7825daf72d623a552462cc279d78de67cfcee9ee43ae41d5",
      "v": 27,
      "creates": null,
      "raw": "0xf86e8212b7850cca080e088255f094ce8ff6d2027ca9837abb85fd515752151b6c7d0a882e4ead3d5094381c801ba009c51517840e9a92d82dc256b9463fba2dbbdfa80d3c3784e8706e464eb36dd4a0417b14e99b48ad2f7825daf72d623a552462cc279d78de67cfcee9ee43ae41d5",
      "networkId": 0,
      "chainId": 0
    }
  ]
}