{
  "hash": "0x500ad256f5490e4cdcfa362e396759aff2b9c901cbb38670d31af2a6ee456a81",
  "parentHash": "0x582a0792a811f2e1d5825e1778f4e9da111dc6a9d7423d7a37b63611f1eab37f",
  "number": 100398,
  "timestamp": 1439805926,
  "nonce": "0xcd34c5ea705c5189",
  "difficulty": 3804271041849,
  "gasLimit": {
    "_hex": "0x2fefd8"
  },
  "gasUsed": {
    "_hex": "0x546c"
  },
  "miner": "0x3D2eC5EAdE7b36A500daF6dC7941BE12C0063343",
  "extraData": "0xd983010001844765746887676f312e342e328777696e646f7773",
  "transactions": [
    {
      "hash": "0xc155dc8db1ffea09435447610bea9e30e31cd78a231cd3f057c13723e3dc19cf",
      "blockHash": "0x500ad256f5490e4cdcfa362e396759aff2b9c901cbb38670d31af2a6ee456a81",
      "blockNumber": 100398,
      "transactionIndex": 0,
      "confirmations": null,
      "from": "0xEE7c3DeD7c28F459C92FE13B4d95bAFbaB02367D",
      "gasPrice": {
        "_hex": "0x110c8f7d8de"
      },
      "gasLimit": {
        "_hex": "0xc350"
      },
      "to": "0x2910543Af39abA0Cd09dBb2D50200b3E800A63D2",
      "value": {
        "_hex": "0x12f939c99edab80000"
      },
      "nonce": 1,
      "data": "0x454e37465444353730",
      "r": "0x2e4dfab8c5c15e665f06b521bb4b7454b9667a8311b2139c0edd446aa60438e2",
      "s": "0xd7c6ea537ffd744141374126fd80d4c6ad049c0355bbd9199bebfe1b5e43a75a",
      "v": 28,
      "creates": null,
      "raw": "0xf87701860110c8f7d8de82c350942910543af39aba0cd09dbb2d50200b3e800a63d28912f939c99edab8000089454e374654443537301ca02e4dfab8c5c15e665f06b521bb4b7454b9667a8311b2139c0edd446aa60438e2a0d7c6ea537ffd744141374126fd80d4c6ad049c0355bbd9199bebfe1b5e43a75a",
      "networkId": 0,
      "chainId": 0
    }
  ]
}