{
  "hash": "0xf1f7e5f0e7f10c569e0f264672de8d881642c7c052078fc8aaa2d0df55c67131",
  "parentHash": "0x4abba832ad7504abdf2dfb490b465972f9daf3963edd2b31eb40296c08d7d975",
  "number": 86570,
  "timestamp": 1439579967,
  "nonce": "0xc2b20b04cb9a2aeb",
  "difficulty": 2910257452326,
  "gasLimit": {
    "_hex": "0x2fefd8"
  },
  "gasUsed": {
    "_hex": "0x546c"
  },
  "miner": "0xfC97c2C87E3Cc03BeB5fA2fACaa10bbd0D0dA1AF",
  "extraData": "0x476574682f76312e302e312d38326566323666362f6c696e75782f676f312e34",
  "transactions": [
    {
      "hash": "0x8ec545e2ca008b09727f7467ff0784c84d94c86dbf06f1e49729ba877f0e0c9f",
      "blockHash": "0xf1f7e5f0e7f10c569e0f264672de8d881642c7c052078fc8aaa2d0df55c67131",
      "blockNumber": 86570,
      "transactionIndex": 0,
      "confirmations": null,
      "from": "0xED327a14D5cFaDD98103FC0999718D7eD70528eA",
      "gasPrice": {
        "_hex": "0x110c8f7d8de"
      },
      "gasLimit": {
        "_hex": "0xc350"
      },
      "to": "0x2910543Af39abA0Cd09dBb2D50200b3E800A63D2",
      "value": {
        "_hex": "0x15a13cc201e4dc0000"
      },
      "nonce": 1,
      "data": "0x454e3838414d314e38",
      "r": "0x5c17f636ce537d15978e9cac205def99cfb92b3681075a390710d60dd2dc3348",
      "s": "0x4c395531c2823539fc782c02f06cac5ad0aa5846e4e3bd743e720c3838cff1d9",
      "v": 27,
      "creates": null,
      "raw": "0xf87701860110c8f7d8de82c350942910543af39aba0cd09dbb2d50200b3e800a63d28915a13cc201e4dc000089454e3838414d314e381ba05c17f636ce537d15978e9cac205def99cfb92b3681075a390710d60dd2dc3348a04c395531c2823539fc782c02f06cac5ad0aa5846e4e3bd743e720c3838cff1d9",
      "networkId": 0,
      "chainId": 0
    }
  ]
}