{
  "hash": "0x0002939e9add6be8a921cfc208cf61b70bce26c9df214244cc7e59310115bc66",
  "parentHash": "0xe955cbc3ba397607c1dba70030afd54e6538be74ea433c10c7e4b0456ecf39f6",
  "number": 68697,
  "timestamp": 1439292275,
  "nonce": "0x1d92f493b1fa330b",
  "difficulty": 2015249967981,
  "gasLimit": {
    "_hex": "0x2fefd8"
  },
  "gasUsed": {
    "_hex": "0x6c88"
  },
  "miner": "0x55bAf64fc9eAccFFd7Cc643BB61142E1C6ac093e",
  "extraData": "0x",
  "transactions": [
    {
      "hash": "0x34fa33dc6bda79274156ea4ad54f8b767bdc16367f077fb6aaee7b8d3b387d5c",
      "blockHash": "0x0002939e9add6be8a921cfc208cf61b70bce26c9df214244cc7e59310115bc66",
      "blockNumber": 68697,
      "transactionIndex": 0,
      "confirmations": null,
      "from": "0xd268fB48FA174088a25a120aFF0fd8eb0C2d4c87",
      "gasPrice": {
        "_hex": "0xce9a98e67"
      },
      "gasLimit": {
        "_hex": "0x1f328"
      },
      "to": "0x45f4054E7384d9c4B5be63D3927d9b7D18781FdC",
      "value": {
        "_hex": "0x16345785d8a0000"
      },
      "nonce": 9,
      "data": "0x",
      "r": "0x2cea2e9ec9e836da903d53bfc5340113c405cdd6c414474ae82cbc4e7e5cd7d5",
      "s": "0x6cf7225509e568c585121ac18a713fd32fcab145068ed44a48ded5683fe95b83",
      "v": 28,
      "creates": null,
      "raw": "0xf86d09850ce9a98e678301f3289445f4054e7384d9c4b5be63d3927d9b7d18781fdc88016345785d8a0000801ca02cea2e9ec9e836da903d53bfc5340113c405cdd6c414474ae82cbc4e7e5cd7d5a06cf7225509e568c585121ac18a713fd32fcab145068ed44a48ded5683fe95b83",
      "networkId": 0,
      "chainId": 0
    }
  ]
}