{
  "hash": "0x6ce8fe30bb2ac99a37ea69b8c090630ed33bdaa4d5a5c4f0443c5fcc75356910",
  "parentHash": "0xa78b9d6307787e2be29ec9e1e086cbe14c08ed2445060cc4d270ebd71395d4cf",
  "number": 79475,
  "timestamp": 1439470288,
  "nonce": "0x5cbd4492c250e16c",
  "difficulty": 2337010334576,
  "gasLimit": {
    "_hex": "0x2fefd8"
  },
  "gasUsed": {
    "_hex": "0x5208"
  },
  "miner": "0xa6BDc31c431B8F97848c9D60cbbe9660dc450eB7",
  "extraData": "0x",
  "transactions": [
    {
      "hash": "0x1292a2b3351f2a6185c29a79905071a06f2fa0971973cd59b56de9c512662353",
      "blockHash": "0x6ce8fe30bb2ac99a37ea69b8c090630ed33bdaa4d5a5c4f0443c5fcc75356910",
      "blockNumber": 79475,
      "transactionIndex": 0,
      "confirmations": null,
      "from": "0xB7268c7705A1866b2A78e882fdfDc8E2a4e1428E",
      "gasPrice": {
        "_hex": "0xcd01555c5"
      },
      "gasLimit": {
        "_hex": "0x15f90"
      },
      "to": "0x96811Ad897894eC178872117C8BF2f03971A393B",
      "value": {
        "_hex": "0x8ac7230489e80000"
      },
      "nonce": 21,
      "data": "0x",
      "r": "0x70af7d078236d117c4eee0851dc38907764c7f2fe2fa2805745451eb17b2bd86",
      "s": "0x335e84fa5409e400633891a0d0d7c8e1798357f643c350f6506fe540684be56f",
      "v": 28,
      "creates": null,
      "raw": "0xf86d15850cd01555c583015f909496811ad897894ec178872117c8bf2f03971a393b888ac7230489e80000801ca070af7d078236d117c4eee0851dc38907764c7f2fe2fa2805745451eb17b2bd86a0335e84fa5409e400633891a0d0d7c8e1798357f643c350f6506fe540684be56f",
      "networkId": 0,
      "chainId": 0
    }
  ]
}