{
  "hash": "0xa11e36901b51c27fa746cfff17ac7b8d4c47bc56a77a3a5f38ef4d9561f55697",
  "parentHash": "0x3c8ecce19d1f130799cf5aaf6d4fb0b9717c0d44d537e26424f811757b9b84b7",
  "number": 110362,
  "timestamp": 1439972524,
  "nonce": "0xe43c982ead203200",
  "difficulty": 4364957612290,
  "gasLimit": {
    "_hex": "0x2fefd8"
  },
  "gasUsed": {
    "_hex": "0xa410"
  },
  "miner": "0xf927a40C8B7F6E07c5af7FA2155B4864a4112B13",
  "extraData": "0x",
  "transactions": [
    {
      "hash": "0xb674bcd8895a05fafe1d91fbe5878606827a0b80b0ccc853631d98763c8484e4",
      "blockHash": "0xa11e36901b51c27fa746cfff17ac7b8d4c47bc56a77a3a5f38ef4d9561f55697",
      "blockNumber": 110362,
      "transactionIndex": 0,
      "confirmations": null,
      "from": "0xAD8c7FBFaBC46C35aDb03F7b3A67e731E5793899",
      "gasPrice": {
        "_hex": "0xdae8e36f7"
      },
      "gasLimit": {
        "_hex": "0x5208"
      },
      "to": "0x32Be343B94f860124dC4fEe278FDCBD38C102D88",
      "value": {
        "_hex": "0x51448b74f9172c00"
      },
      "nonce": 10,
      "data": "0x",
      "r": "0x333590d6bfc6f187a61408de0b070d8911b555b2f684612e6277d194ed1165e4",
      "s": "0x6d07513cd1b2e99349bb69c05b441aec73881294a9e2c96f1920f7ffaa49b8a8",
      "v": 28,
      "creates": null,
      "raw": "0xf86c0a850dae8e36f78252089432be343b94f860124dc4fee278fdcbd38c102d888851448b74f9172c00801ca0333590d6bfc6f187a61408de0b070d8911b555b2f684612e6277d194ed1165e4a06d07513cd1b2e99349bb69c05b441aec73881294a9e2c96f1920f7ffaa49b8a8",
      "networkId": 0,
      "chainId": 0
    },
    {
      "hash": "0xea9bcc5aee0cf9d0eff0d7732724890b6c2514fbd8b1db6e2f6d67f46c04ae8a",
      "blockHash": "0xa11e36901b51c27fa746cfff17ac7b8d4c47bc56a77a3a5f38ef4d9561f55697",
      "blockNumber": 110362,
      "transactionIndex": 1,
      "confirmations": null,
      "from": "0xb3395f0a13448d9A660aC4aB2aBBC61F555f3656",
      "gasPrice": {
        "_hex": "0xcfcea7620"
      },
      "gasLimit": {
        "_hex": "0x7530"
      },
      "to": "0x6De181Fc4C140FA31F196e5393516c49EEeBdAd3",
      "value": {
        "_hex": "0x2cab4c1242c9e0000"
      },
      "nonce": 6,
      "data": "0x",
      "r": "0x5ab251efa0db01e173116054656e1ecba7fef67e92db168c9e450e84c11689e3",
      "s": "0x3e29e2ae31f5c841b2d99a40e655968f24c951b9e61f4128d92342a8fba6ae36",
      "v": 28,
      "creates": null,
      "raw": "0xf86d06850cfcea7620827530946de181fc4c140fa31f196e5393516c49eeebdad38902cab4c1242c9e0000801ca05ab251efa0db01e173116054656e1ecba7fef67e92db168c9e450e84c11689e3a03e29e2ae31f5c841b2d99a40e655968f24c951b9e61f4128d92342a8fba6ae36",
      "networkId": 0,
      "chainId": 0
    }
  ]
}