{
  "hash": "0x1110d31c7d7dfb4bc5e9dd47c21ec9538c4e962603cca034d07cc312c9c09d64",
  "parentHash": "0x6bd3506db49e79225e192ce757d09d7c0b81673ab2ba6523571c1f1926d02a51",
  "number": 105052,
  "timestamp": 1439880777,
  "nonce": "0xe9b418d6ddafdfd7",
  "difficulty": 4304207536579,
  "gasLimit": {
    "_hex": "0x2fefd8"
  },
  "gasUsed": {
    "_hex": "0x5208"
  },
  "miner": "0xe6A7a1d47ff21B6321162AEA7C6CB457D5476Bca",
  "extraData": "0x476574682f76312e302e312d38326566323666362f6c696e75782f676f312e34",
  "transactions": [
    {
      "hash": "0x3116c059a48434589d1db3fbd76d4efa601daa2b165438b17c39995df4b86922",
      "blockHash": "0x1110d31c7d7dfb4bc5e9dd47c21ec9538c4e962603cca034d07cc312c9c09d64",
      "blockNumber": 105052,
      "transactionIndex": 0,
      "confirmations": null,
      "from": "0xc07082b0caEF1afaAA062CDae1c592c110B82aa5",
      "gasPrice": {
        "_hex": "0xd6739e0d9"
      },
      "gasLimit": {
        "_hex": "0x5208"
      },
      "to": "0x32Be343B94f860124dC4fEe278FDCBD38C102D88",
      "value": {
        "_hex": "0x1a59d0c21a7ce400"
      },
      "nonce": 4,
      "data": "0x",
      "r": "0x6a52ea9381c66f446e8ceda4804f479c5419f2cddd15602f632cb0b3831a0a81",
      "s": "0x5fc93aeb930f50395f57f6e07ddcd1af4769dfa278f2ed3702475208d739ef34",
      "v": 27,
      "creates": null,
      "raw": "0xf86c04850d6739e0d98252089432be343b94f860124dc4fee278fdcbd38c102d88881a59d0c21a7ce400801ba06a52ea9381c66f446e8ceda4804f479c5419f2cddd15602f632cb0b3831a0a81a05fc93aeb930f50395f57f6e07ddcd1af4769dfa278f2ed3702475208d739ef34",
      "networkId": 0,
      "chainId": 0
    }
  ]
}