{
  "hash": "0x65d8c65361c9ad1b36a0404ff3edbc1335b5344fe3e8767fd08cf15aa3518dc5",
  "parentHash": "0xd8562a70bf0e797bfb251b54aa05683177060f6494af516b08a9257b0f78e4ab",
  "number": 105399,
  "timestamp": 1439886959,
  "nonce": "0xd7c30d304c59b711",
  "difficulty": 4369673950624,
  "gasLimit": {
    "_hex": "0x2fefd8"
  },
  "gasUsed": {
    "_hex": "0x5208"
  },
  "miner": "0x018641f373e6a174BD0314099a9E05599d33fa06",
  "extraData": "0x476574682f76312e302e312f6c696e75782f676f312e342e32",
  "transactions": [
    {
      "hash": "0x181180ac387fb216b28f1e02b1a425ef6fd0c7e71efac598220658153d67516f",
      "blockHash": "0x65d8c65361c9ad1b36a0404ff3edbc1335b5344fe3e8767fd08cf15aa3518dc5",
      "blockNumber": 105399,
      "transactionIndex": 0,
      "confirmations": null,
      "from": "0xdc41BFACFAaF8B0F0949aB5A3f18f47063Ae62fB",
      "gasPrice": {
        "_hex": "0xcdd8fd414"
      },
      "gasLimit": {
        "_hex": "0x5208"
      },
      "to": "0x32Be343B94f860124dC4fEe278FDCBD38C102D88",
      "value": {
        "_hex": "0x4c3b98ff3c0cb4000"
      },
      "nonce": 6,
      "data": "0x",
      "r": "0xdf29d21aab70afc802ebbec7d089899766fbb52fdcdaf075c60cf856ef6a0c33",
      "s": "0x6285ef7e4445ee2af2f58925fa35b09bcd6c49e340eceafa4079611510043e35",
      "v": 28,
      "creates": null,
      "raw": "0xf86d06850cdd8fd4148252089432be343b94f860124dc4fee278fdcbd38c102d888904c3b98ff3c0cb4000801ca0df29d21aab70afc802ebbec7d089899766fbb52fdcdaf075c60cf856ef6a0c33a06285ef7e4445ee2af2f58925fa35b09bcd6c49e340eceafa4079611510043e35",
      "networkId": 0,
      "chainId": 0
    }
  ]
}