{
  "hash": "0x2daa4b965764da074b26f90d2902aa8ad884502204c082a7b0ffa89451b0a991",
  "parentHash": "0x36c66bc4289c1f7805b4c6c05d6cb4fcb359c2312351e5fcc2f4903cbd02962d",
  "number": 74153,
  "timestamp": 1439381311,
  "nonce": "0xb20b9e603c4c086a",
  "difficulty": 2231406057719,
  "gasLimit": {
    "_hex": "0x2fefd8"
  },
  "gasUsed": {
    "_hex": "0xa410"
  },
  "miner": "0x88D74a59454F6cF3B51ef6b9136AFb6b9D405A88",
  "extraData": "0x476574682f76312e302e312d38326566323666362f6c696e75782f676f312e34",
  "transactions": [
    {
      "hash": "0xc06176429cf4d31e430b24eca37d7a875de137d6feddbdbabd934338491d8b17",
      "blockHash": "0x2daa4b965764da074b26f90d2902aa8ad884502204c082a7b0ffa89451b0a991",
      "blockNumber": 74153,
      "transactionIndex": 0,
      "confirmations": null,
      "from": "0x32Be343B94f860124dC4fEe278FDCBD38C102D88",
      "gasPrice": {
        "_hex": "0xdb85af406"
      },
      "gasLimit": {
        "_hex": "0x5208"
      },
      "to": "0x139961171236F8260f7D28B94b5a7352Bb114F80",
      "value": {
        "_hex": "0xad76b3568565f0000"
      },
      "nonce": 315,
      "data": "0x",
      "r": "0x5a5726a4f78cf751fa12512563e6666db79b1cfdd02993d3494c83e1d2367861",
      "s": "0x5129eba2c06fb3c5ca3f71775f73add1a31dd2d82749cbba46ec7742e1ed0136",
      "v": 28,
      "creates": null,
      "raw": "0xf86f82013b850db85af40682520894139961171236f8260f7d28b94b5a7352bb114f80890ad76b3568565f0000801ca05a5726a4f78cf751fa12512563e6666db79b1cfdd02993d3494c83e1d2367861a05129eba2c06fb3c5ca3f71775f73add1a31dd2d82749cbba46ec7742e1ed0136",
      "networkId": 0,
      "chainId": 0
    },
    {
      "hash": "0x7fe6c86aa267e52d7912c571ddd5a59dc492289954d865afd2b481f205d48b60",
      "blockHash": "0x2daa4b965764da074b26f90d2902aa8ad884502204c082a7b0ffa89451b0a991",
      "blockNumber": 74153,
      "transactionIndex": 1,
      "confirmations": null,
      "from": "0x120A270bbC009644e35F0bB6ab13f95b8199c4ad",
      "gasPrice": {
        "_hex": "0xd41434d91"
      },
      "gasLimit": {
        "_hex": "0x15f90"
      },
      "to": "0x83816f103117f26a382c0ED30c21D0CF23f1D687",
      "value": {
        "_hex": "0xa2fc81bdb15ee800"
      },
      "nonce": 267,
      "data": "0x",
      "r": "0x4f648e55110dfc92453c822db62676c108e09de4f4a2ca0e6d00087dd4c75d12",
      "s": "0x25da476b7e9aae0ba296424a5cc1662c4036782a086bf6df416ab0f5947c4927",
      "v": 27,
      "creates": null,
      "raw": "0xf86f82010b850d41434d9183015f909483816f103117f26a382c0ed30c21d0cf23f1d68788a2fc81bdb15ee800801ba04f648e55110dfc92453c822db62676c108e09de4f4a2ca0e6d00087dd4c75d12a025da476b7e9aae0ba296424a5cc1662c4036782a086bf6df416ab0f5947c4927",
      "networkId": 0,
      "chainId": 0
    }
  ]
}