{
  "hash": "0x901b6167b37f09f155349f03183765fdd973ad41b11eebabb13e2cffa4d712bd",
  "parentHash": "0x2ff48668571eef877416e53788b5c38d7bc6330cc8aa0e2b40e62b818d25fe53",
  "number": 93190,
  "timestamp": 1439684766,
  "nonce": "0xa879b2e81723dadb",
  "difficulty": 3594361841219,
  "gasLimit": {
    "_hex": "0x2fefd8"
  },
  "gasUsed": {
    "_hex": "0x5208"
  },
  "miner": "0x6DE55b563cE6E319cCB403032Da3BE5Ad4ec4FcF",
  "extraData": "0x",
  "transactions": [
    {
      "hash": "0xceaa5067759472e4879e958a0c88c4f1a46981ead79ee1e8e404072993f93907",
      "blockHash": "0x901b6167b37f09f155349f03183765fdd973ad41b11eebabb13e2cffa4d712bd",
      "blockNumber": 93190,
      "transactionIndex": 0,
      "confirmations": null,
      "from": "0x9827C93917a0c59899BEfBa58d104A788782e1d4",
      "gasPrice": {
        "_hex": "0xd3d37f23a"
      },
      "gasLimit": {
        "_hex": "0x15f90"
      },
      "to": "0x61F642543d22bAf5382908a714E675Cc0b51ea45",
      "value": {
        "_hex": "0x8ac7230489e80000"
      },
      "nonce": 1,
      "data": "0x",
      "r": "0x48590a431208ef4c91eea5bc09437b6056c8da36b9aa1961b367fc779e18bede",
      "s": "0x197be1601bf77f505468125a9e622743ff5be0bd45f32fc13076f35cd7143287",
      "v": 27,
      "creates": null,
      "raw": "0xf86d01850d3d37f23a83015f909461f642543d22baf5382908a714e675cc0b51ea45888ac7230489e80000801ba048590a431208ef4c91eea5bc09437b6056c8da36b9aa1961b367fc779e18bedea0197be1601bf77f505468125a9e622743ff5be0bd45f32fc13076f35cd7143287",
      "networkId": 0,
      "chainId": 0
    }
  ]
}