{
  "hash": "0x9a804f6c53b60f083eda99865fe62911e2da412049188d5fc7ee3acd4b7a1089",
  "parentHash": "0x34869f1273371d28e1e165f4b21837b49c40ea885d7e65b28224803dbaa0ecbb",
  "number": 119517,
  "timestamp": 1440144268,
  "nonce": "0x7e4d10014182239e",
  "difficulty": 4392248736449,
  "gasLimit": {
    "_hex": "0x2fefd8"
  },
  "gasUsed": {
    "_hex": "0x5208"
  },
  "miner": "0x52bc44d5378309EE2abF1539BF71dE1b7d7bE3b5",
  "extraData": "0xd783010002844765746887676f312e342e32856c696e7578",
  "transactions": [
    {
      "hash": "0xb8a91880b583fff1f0c4e2dd03ae89ce650f496b4aab08a21dce044fc666de3f",
      "blockHash": "0x9a804f6c53b60f083eda99865fe62911e2da412049188d5fc7ee3acd4b7a1089",
      "blockNumber": 119517,
      "transactionIndex": 0,
      "confirmations": null,
      "from": "0x007f7f58D3eb5b7510A301eCC749FC1fCDDBE14D",
      "gasPrice": {
        "_hex": "0xba43b7400"
      },
      "gasLimit": {
        "_hex": "0x15f90"
      },
      "to": "0xb1abce2918E21ddb93AA452731a12672A3d9F75a",
      "value": {
        "_hex": "0x4563918244f40000"
      },
      "nonce": 359,
      "data": "0x",
      "r": "0x209227aecc90f5c74451445d492ce89b15e5fa279fe57d4e72f8262c1adf0a3a",
      "s": "0x2157ba08277b2399b6f6336154b6efc03d3d433ee3bc6c34ffac271122ff7ee6",
      "v": 27,
      "creates": null,
      "raw": "0xf86f820167850ba43b740083015f9094b1abce2918e21ddb93aa452731a12672a3d9f75a884563918244f40000801ba0209227aecc90f5c74451445d492ce89b15e5fa279fe57d4e72f8262c1adf0a3aa02157ba08277b2399b6f6336154b6efc03d3d433ee3bc6c34ffac271122ff7ee6",
      "networkId": 0,
      "chainId": 0
    }
  ]
}