{
  "hash": "0xf0cfd2e199b6cd46ab1d27028ef75e18380a2cabf3c4d77aacd9d2fcc1a1e77d",
  "parentHash": "0x33110504f35de84ad9947b31fa71e0c1afa68d9c0a3172c3c87d7cad46da3939",
  "number": 61528,
  "timestamp": 1439173798,
  "nonce": "0x27ac6adedf5411eb",
  "difficulty": 1742989508868,
  "gasLimit": {
    "_hex": "0x2fefd8"
  },
  "gasUsed": {
    "_hex": "0x5208"
  },
  "miner": "0x55bAf64fc9eAccFFd7Cc643BB61142E1C6ac093e",
  "extraData": "0x",
  "transactions": [
    {
      "hash": "0xe6dbaa06dafe3919b0704761157a0710929edf5741b706ffe275c48e2103f7d2",
      "blockHash": "0xf0cfd2e199b6cd46ab1d27028ef75e18380a2cabf3c4d77aacd9d2fcc1a1e77d",
      "blockNumber": 61528,
      "transactionIndex": 0,
      "confirmations": null,
      "from": "0xcFc4E6f7f8b011414BfBa42F23AdFAA78d4ecc5E",
      "gasPrice": {
        "_hex": "0xd17d8c6bc"
      },
      "gasLimit": {
        "_hex": "0x15f90"
      },
      "to": "0xA25efBD8dc1f8A6c4F24afD67AeEf72498fa9cC7",
      "value": {
        "_hex": "0x22b1c8c1227a00000"
      },
      "nonce": 1,
      "data": "0x",
      "r": "0x011c9bcf28f3df5961df1f8fcdac0fef4ce4e2f3bb5ebd6bc7450c0920e939ce",
      "s": "0x380aca4733d86fc8a0953666275432892d9d5527169ac0d6c8db2cb40b0c0673",
      "v": 28,
      "creates": null,
      "raw": "0xf86e01850d17d8c6bc83015f9094a25efbd8dc1f8a6c4f24afd67aeef72498fa9cc789022b1c8c1227a00000801ca0011c9bcf28f3df5961df1f8fcdac0fef4ce4e2f3bb5ebd6bc7450c0920e939cea0380aca4733d86fc8a0953666275432892d9d5527169ac0d6c8db2cb40b0c0673",
      "networkId": 0,
      "chainId": 0
    }
  ]
}