{
  "hash": "0x0684a61ef73c4827d1808383c684cfdb85768fc0a362e5ca85b9674b843f14bc",
  "parentHash": "0xbd35acfc25b127134b7f15b5184b3f51ff5634d15838c55a0954d3957ee71319",
  "number": 115530,
  "timestamp": 1440058681,
  "nonce": "0x920653c56ae78996",
  "difficulty": 4607474652000,
  "gasLimit": {
    "_hex": "0x2fefd8"
  },
  "gasUsed": {
    "_hex": "0x5208"
  },
  "miner": "0xbb7B8287f3F0a933474a79eAe42CBCa977791171",
  "extraData": "0x476574682f4c5649562f76312e302e312f6c696e75782f676f312e342e32",
  "transactions": [
    {
      "hash": "0xd8010efb42cae662a28d39d687d9d73619ac29d886342cfa677cccb12f33e064",
      "blockHash": "0x0684a61ef73c4827d1808383c684cfdb85768fc0a362e5ca85b9674b843f14bc",
      "blockNumber": 115530,
      "transactionIndex": 0,
      "confirmations": null,
      "from": "0x32Be343B94f860124dC4fEe278FDCBD38C102D88",
      "gasPrice": {
        "_hex": "0xce7ab2b3d"
      },
      "gasLimit": {
        "_hex": "0x5208"
      },
      "to": "0xf747F959535B01d4BfDAB64A40DB48D0D6c68edb",
      "value": {
        "_hex": "0x64f5fdf494f78000"
      },
      "nonce": 1434,
      "data": "0x",
      "r": "0xd3bff4f602fd0c63fdd996ee5709e58b241e5641b4b899bf6524044d542ae75d",
      "s": "0x787b8a8bdebd4111f4a95ac4a117d1e04a824fdcb12910750536ce9d6b301f63",
      "v": 27,
      "creates": null,
      "raw": "0xf86e82059a850ce7ab2b3d82520894f747f959535b01d4bfdab64a40db48d0d6c68edb8864f5fdf494f78000801ba0d3bff4f602fd0c63fdd996ee5709e58b241e5641b4b899bf6524044d542ae75da0787b8a8bdebd4111f4a95ac4a117d1e04a824fdcb12910750536ce9d6b301f63",
      "networkId": 0,
      "chainId": 0
    }
  ]
}