{
  "hash": "0x48eaa0d79364730ad3d85af4bcee59d83dd01e99dc68aa8ffa6e5bae51a6cf7a",
  "parentHash": "0xcf2c0b1b8d1ba7fa78f78063433c7d42adfa7a8119360f74551fb1bb25035d79",
  "number": 80233,
  "timestamp": 1439482333,
  "nonce": "0xe1be5b22ade53d0e",
  "difficulty": 2375917505191,
  "gasLimit": {
    "_hex": "0x2fefd5"
  },
  "gasUsed": {
    "_hex": "0x250de"
  },
  "miner": "0xBD744E3F13D79B33F6c8E1d5E32F8E9BA2866c46",
  "extraData": "0x476574682f76312e302e312d39613032663533372f6c696e75782f676f312e34",
  "transactions": [
    {
      "hash": "0xea00c8eab66c807811ae216eb920f89d3c2a406c61e334fde8dbc72efaefcab5",
      "blockHash": "0x48eaa0d79364730ad3d85af4bcee59d83dd01e99dc68aa8ffa6e5bae51a6cf7a",
      "blockNumber": 80233,
      "transactionIndex": 0,
      "confirmations": null,
      "from": "0xC5a96Db085dDA36FfBE390f455315D30D6D3DC52",
      "gasPrice": {
        "_hex": "0x746a528800"
      },
      "gasLimit": {
        "_hex": "0x2b5ce"
      },
      "to": "0xde0B295669a9FD93d5F28D9Ec85E40f4cb697BAe",
      "value": {
        "_hex": "0x0"
      },
      "nonce": 1,
      "data": "0xf00d4b5d0000000000000000000000003fb1cd2cd96c6d5c0b5eb3322d807b34482481d4000000000000000000000000c2c2c26961e5560081003bb157549916b21744db",
      "r": "0x6b923bd218955652bfdf8164d6e429fd1bfa57c6049e61960f9aad7d25dd307f",
      "s": "0x35570066da32388bd72e3ac9ec5005ffdcbd84912faf3adc41f90aef231df82e",
      "v": 27,
      "creates": null,
      "raw": "0xf8aa0185746a5288008302b5ce94de0b295669a9fd93d5f28d9ec85e40f4cb697bae80b844f00d4b5d0000000000000000000000003fb1cd2cd96c6d5c0b5eb3322d807b34482481d4000000000000000000000000c2c2c26961e5560081003bb157549916b21744db1ba06b923bd218955652bfdf8164d6e429fd1bfa57c6049e61960f9aad7d25dd307fa035570066da32388bd72e3ac9ec5005ffdcbd84912faf3adc41f90aef231df82e",
      "networkId": 0,
      "chainId": 0
    },
    {
      "hash": "0x653611a3d8056ef0ee728406275bb23e2a82f49121a353790e7bdbd35f7dd8c4",
      "blockHash": "0x48eaa0d79364730ad3d85af4bcee59d83dd01e99dc68aa8ffa6e5bae51a6cf7a",
      "blockNumber": 80233,
      "transactionIndex": 1,
      "confirmations": null,
      "from": "0x2C6dA0AeEF23c6a9eA4a8f19c0810e505FDEb231",
      "gasPrice": {
        "_hex": "0xba43b7400"
      },
      "gasLimit": {
        "_hex": "0x5208"
      },
      "to": "0xC47Aaa860008be6f65B58c6C6E02a84e666EfE31",
      "value": {
        "_hex": "0x56bb1dfbbfe2c0710"
      },
      "nonce": 1,
      "data": "0x",
      "r": "0xb173f26535648c00a02e61d903393c318dafba24a68c98c50fc97ff55caf746c",
      "s": "0x23590db6aec41d7f478ab0f1b9dcef159b89627d6af11ee6490e4fb7ca6f733f",
      "v": 27,
      "creates": null,
      "raw": "0xf86d01850ba43b740082520894c47aaa860008be6f65b58c6c6e02a84e666efe3189056bb1dfbbfe2c0710801ba0b173f26535648c00a02e61d903393c318dafba24a68c98c50fc97ff55caf746ca023590db6aec41d7f478ab0f1b9dcef159b89627d6af11ee6490e4fb7ca6f733f",
      "networkId": 0,
      "chainId": 0
    },
    {
      "hash": "0xa5a6fc46123d5f3849dfb028a35c5b63199fef4836857bf509686bd7973aab26",
      "blockHash": "0x48eaa0d79364730ad3d85af4bcee59d83dd01e99dc68aa8ffa6e5bae51a6cf7a",
      "blockNumber": 80233,
      "transactionIndex": 2,
      "confirmations": null,
      "from": "0x292D4fe90093af505D6073477Ed402B022f9b8f9",
      "gasPrice": {
        "_hex": "0xba43b7400"
      },
      "gasLimit": {
        "_hex": "0x5208"
      },
      "to": "0xC47Aaa860008be6f65B58c6C6E02a84e666EfE31",
      "value": {
        "_hex": "0x20ac5e746ebc9f4f0"
      },
      "nonce": 0,
      "data": "0x",
      "r": "0x758efd2097cd81b48bd0213005e770deb6d320ad972b335ed73ccef0516fb91a",
      "s": "0x7acfc603aefc2bc6f33e33e8e3c8faaf769f64c65068c62daa402b00abe91903",
      "v": 27,
      "creates": null,
      "raw": "0xf86d80850ba43b740082520894c47aaa860008be6f65b58c6c6e02a84e666efe3189020ac5e746ebc9f4f0801ba0758efd2097cd81b48bd0213005e770deb6d320ad972b335ed73ccef0516fb91aa07acfc603aefc2bc6f33e33e8e3c8faaf769f64c65068c62daa402b00abe91903",
      "networkId": 0,
      "chainId": 0
    },
    {
      "hash": "0x0ae5cd5b2038f896945dba07fc79a82774c40343383a564918435e4a3f466cea",
      "blockHash": "0x48eaa0d79364730ad3d85af4bcee59d83dd01e99dc68aa8ffa6e5bae51a6cf7a",
      "blockNumber": 80233,
      "transactionIndex": 3,
      "confirmations": null,
      "from": "0xd63d66704099F24ED9DD6a45BD57b13B872ad515",
      "gasPrice": {
        "_hex": "0xba43b7400"
      },
      "gasLimit": {
        "_hex": "0x5208"
      },
      "to": "0xC47Aaa860008be6f65B58c6C6E02a84e666EfE31",
      "value": {
        "_hex": "0x443a61ecff32970f0"
      },
      "nonce": 1,
      "data": "0x",
      "r": "0xddbfa36931fa4827465c4d75a32c0bf3cf84c8005656c60f26f09d5f2914630c",
      "s": "0x4c498c78a1f6aebc3fc5e14c784849eceb222282f0857bee9cfab1272cbea104",
      "v": 28,
      "creates": null,
      "raw": "0xf86d01850ba43b740082520894c47aaa860008be6f65b58c6c6e02a84e666efe31890443a61ecff32970f0801ca0ddbfa36931fa4827465c4d75a32c0bf3cf84c8005656c60f26f09d5f2914630ca04c498c78a1f6aebc3fc5e14c784849eceb222282f0857bee9cfab1272cbea104",
      "networkId": 0,
      "chainId": 0
    }
  ]
}