{
  "hash": "0xa34e6c01f386eec7dcc6039c53aa33b74fe82cdc7418f7881db0c9d6f899a071",
  "parentHash": "0x9c3753a3859acbd90dd8ce8a4918396f8e3f99ebad15d342ebdbd862a2968446",
  "number": 113809,
  "timestamp": 1440029970,
  "nonce": "0x2abe55512ef19978",
  "difficulty": 4442707427816,
  "gasLimit": {
    "_hex": "0x2fefd8"
  },
  "gasUsed": {
    "_hex": "0xc970"
  },
  "miner": "0xe6A7a1d47ff21B6321162AEA7C6CB457D5476Bca",
  "extraData": "0x476574682f76312e302e312d38326566323666362f6c696e75782f676f312e34",
  "transactions": [
    {
      "hash": "0xbf38c08f9fcf8d28c8b1b3633cc825179682d5c16baa541f8c6c54604277161a",
      "blockHash": "0xa34e6c01f386eec7dcc6039c53aa33b74fe82cdc7418f7881db0c9d6f899a071",
      "blockNumber": 113809,
      "transactionIndex": 0,
      "confirmations": null,
      "from": "0x77b97786B0FB73e55d9E92d4B182beFBF346F979",
      "gasPrice": {
        "_hex": "0xd601fcbbe"
      },
      "gasLimit": {
        "_hex": "0x2dc6c0"
      },
      "to": "0xcf2405263b7E0D11EEC326b2Da9d4b0d5463246b",
      "value": {
        "_hex": "0x0"
      },
      "nonce": 23,
      "data": "0xc74894410000000000000000000000015b2feb2fc83a53b8bcc48289455ff2ac1b92fb72",
      "r": "0x0565c1d802ec1a62e4c0bb9c48497e2344d8a7da531271de37f30aa12224e666",
      "s": "0x4c7b1275d50d2ff8f2c859af09a47c2265b9d1c2c6bbdb5c908e54dc4ea915b1",
      "v": 28,
      "creates": null,
      "raw": "0xf88917850d601fcbbe832dc6c094cf2405263b7e0d11eec326b2da9d4b0d5463246b80a4c74894410000000000000000000000015b2feb2fc83a53b8bcc48289455ff2ac1b92fb721ca00565c1d802ec1a62e4c0bb9c48497e2344d8a7da531271de37f30aa12224e666a04c7b1275d50d2ff8f2c859af09a47c2265b9d1c2c6bbdb5c908e54dc4ea915b1",
      "networkId": 0,
      "chainId": 0
    }
  ]
}