{
  "hash": "0x3afbc47c0cceac7558ba656ed7fbb14eea64080db9b0a55fe1f46802259f0e20",
  "parentHash": "0xa35a91e4dfc6194f6bec49c8cc29cd72adf8a4fb43a61cf77c23deb791e90a84",
  "number": 51995,
  "timestamp": 1439014439,
  "nonce": "0x6068f0d391ef321a",
  "difficulty": 1560368099602,
  "gasLimit": {
    "_hex": "0xf9504"
  },
  "gasUsed": {
    "_hex": "0x5208"
  },
  "miner": "0xbb7B8287f3F0a933474a79eAe42CBCa977791171",
  "extraData": "0x476574682f4c5649562f76312e302e312f6c696e75782f676f312e342e32",
  "transactions": [
    {
      "hash": "0x6c704d2a2fa5cf83f738704b90222cb4f8bec5f4a686cfe0db49cf3005722f6e",
      "blockHash": "0x3afbc47c0cceac7558ba656ed7fbb14eea64080db9b0a55fe1f46802259f0e20",
      "blockNumber": 51995,
      "transactionIndex": 0,
      "confirmations": null,
      "from": "0xAE239ACffD4EbE2E1BA5b4170572DC79CC6533Ec",
      "gasPrice": {
        "_hex": "0x10a23ec8f7d"
      },
      "gasLimit": {
        "_hex": "0x15f90"
      },
      "to": "0x60D9C8bDDD1014deb66B2AC1F7f703dFD3c2D204",
      "value": {
        "_hex": "0x8e1bc9bf040000"
      },
      "nonce": 2,
      "data": "0x",
      "r": "0x54364b3526a5bf1494f749c61e8f087381679981afb2cfe9b28d0aba59c8241d",
      "s": "0x55c16ad64720c88a04115ccf9edcd4056f2d3d1be81cf35188634662c4bb6c92",
      "v": 27,
      "creates": null,
      "raw": "0xf86d0286010a23ec8f7d83015f909460d9c8bddd1014deb66b2ac1f7f703dfd3c2d204878e1bc9bf040000801ba054364b3526a5bf1494f749c61e8f087381679981afb2cfe9b28d0aba59c8241da055c16ad64720c88a04115ccf9edcd4056f2d3d1be81cf35188634662c4bb6c92",
      "networkId": 0,
      "chainId": 0
    }
  ]
}