{
  "hash": "0xbb45f5aead7c0d9b3a0955b425d942788ebb95329db126eabe80e60f29a2ffae",
  "parentHash": "0xfab6882b59ba9d44d621c3dbda5e5bdbc0422407d7a52f72ee4658249e29f3cf",
  "number": 67585,
  "timestamp": 1439274330,
  "nonce": "0xcabf2254a5eeb46d",
  "difficulty": 1925098934398,
  "gasLimit": {
    "_hex": "0x2fefd8"
  },
  "gasUsed": {
    "_hex": "0xa410"
  },
  "miner": "0x3D1C1B034ed3495E962CaADCB322E0CEfB2D24cB",
  "extraData": "0x476574682f5661726168612f76312e302e312f6c696e75782f676f312e342e32",
  "transactions": [
    {
      "hash": "0x2387d5bd114a3f4f21a872bd40cb954a6edc6100e24f7fa07179c761430f8a5b",
      "blockHash": "0xbb45f5aead7c0d9b3a0955b425d942788ebb95329db126eabe80e60f29a2ffae",
      "blockNumber": 67585,
      "transactionIndex": 0,
      "confirmations": null,
      "from": "0x32Be343B94f860124dC4fEe278FDCBD38C102D88",
      "gasPrice": {
        "_hex": "0xe02e4c377"
      },
      "gasLimit": {
        "_hex": "0x5208"
      },
      "to": "0x58c444CC2658bB485F7985d5889b1d5857614F31",
      "value": {
        "_hex": "0x1634ae1ec7906600000"
      },
      "nonce": 213,
      "data": "0x",
      "r": "0x353dd2ac7a1dcc73fbeeab934b9b6208850aaeb11d2de1e40b7774769e6f1836",
      "s": "0x610b0242795931383ee6dd469c97784eb0835b2f0320ebc108a9df27a0b13f30",
      "v": 28,
      "creates": null,
      "raw": "0xf86f81d5850e02e4c3778252089458c444cc2658bb485f7985d5889b1d5857614f318a01634ae1ec7906600000801ca0353dd2ac7a1dcc73fbeeab934b9b6208850aaeb11d2de1e40b7774769e6f1836a0610b0242795931383ee6dd469c97784eb0835b2f0320ebc108a9df27a0b13f30",
      "networkId": 0,
      "chainId": 0
    },
    {
      "hash": "0xdbf44d0bf51afc93a63662ed486edac6f3b59229f34a0cec84d2db33282460d0",
      "blockHash": "0xbb45f5aead7c0d9b3a0955b425d942788ebb95329db126eabe80e60f29a2ffae",
      "blockNumber": 67585,
      "transactionIndex": 1,
      "confirmations": null,
      "from": "0x2910543Af39abA0Cd09dBb2D50200b3E800A63D2",
      "gasPrice": {
        "_hex": "0xde2556fe1"
      },
      "gasLimit": {
        "_hex": "0x5208"
      },
      "to": "0x6f757390a63E8F66Bfb06EE21BF56e67F98c0F6A",
      "value": {
        "_hex": "0x57472b426183078000"
      },
      "nonce": 213,
      "data": "0x",
      "r": "0xc31abc5356cec3761e6b8f33ccb7d85f251ff31e2847da58257d572fa5af9aa6",
      "s": "0x20f030dc510dfd464f26f16413bf8b3789fbc20b108876eb40a72c5ebab45db1",
      "v": 27,
      "creates": null,
      "raw": "0xf86e81d5850de2556fe1825208946f757390a63e8f66bfb06ee21bf56e67f98c0f6a8957472b426183078000801ba0c31abc5356cec3761e6b8f33ccb7d85f251ff31e2847da58257d572fa5af9aa6a020f030dc510dfd464f26f16413bf8b3789fbc20b108876eb40a72c5ebab45db1",
      "networkId": 0,
      "chainId": 0
    }
  ]
}