{
  "hash": "0x6fdf67d086f5fd19e371a60f406d862d3116b2b7cd03315d225d5c9bd076861c",
  "parentHash": "0x3eb5400365412b7ba45b5ee0173159227e25e9be2481232edab5a3b87c14ce25",
  "number": 89651,
  "timestamp": 1439627073,
  "nonce": "0xf077ae54352fac73",
  "difficulty": 3311061412735,
  "gasLimit": {
    "_hex": "0x2fefd8"
  },
  "gasUsed": {
    "_hex": "0x5208"
  },
  "miner": "0xeB1325C8D9d3ea8D74aC11F4B00F1B2367686319",
  "extraData": "0x476574682f76312e302e312f77696e646f77732f676f312e342e32",
  "transactions": [
    {
      "hash": "0x11ed337328f94881761d830700189f25bf4e8f453676fbd58203ffd3c161bb08",
      "blockHash": "0x6fdf67d086f5fd19e371a60f406d862d3116b2b7cd03315d225d5c9bd076861c",
      "blockNumber": 89651,
      "transactionIndex": 0,
      "confirmations": null,
      "from": "0x2e29Ce99617fa737a66E4e9aF7595496b9448822",
      "gasPrice": {
        "_hex": "0xd28349fae"
      },
      "gasLimit": {
        "_hex": "0x15f90"
      },
      "to": "0xF4f2C15602B084Cae84Ea603f75527DE19705aA1",
      "value": {
        "_hex": "0x1b7a5f826f460000"
      },
      "nonce": 4,
      "data": "0x",
      "r": "0xe5051bcf45367be10b23a3d632e4f22467fdf7cca7c02332df7b2f2eafad1493",
      "s": "0x406c994d13ada54501c35b12613ecc725e83dca8bfbac8e21523293c52e161ad",
      "v": 28,
      "creates": null,
      "raw": "0xf86d04850d28349fae83015f9094f4f2c15602b084cae84ea603f75527de19705aa1881b7a5f826f460000801ca0e5051bcf45367be10b23a3d632e4f22467fdf7cca7c02332df7b2f2eafad1493a0406c994d13ada54501c35b12613ecc725e83dca8bfbac8e21523293c52e161ad",
      "networkId": 0,
      "chainId": 0
    }
  ]
}