{
  "hash": "0x8ab2c08f66b12b3332794630096e5a5343da0e3da0e13f0c0496bb9f594faff1",
  "parentHash": "0x312c0e1bee27110d963121cbf01364934b8c7e13d05523f05e2a6e7bd6e2735e",
  "number": 47035,
  "timestamp": 1438933438,
  "nonce": "0x2e7a42dc96780e7d",
  "difficulty": 1451025923343,
  "gasLimit": {
    "_hex": "0x91de"
  },
  "gasUsed": {
    "_hex": "0x5208"
  },
  "miner": "0x3F98e477a361F777DA14611a7e419A75Fd238b6b",
  "extraData": "0x476574682f76312e302e312f6c696e75782f676f312e342e32",
  "transactions": [
    {
      "hash": "0x94e42c8dbf5b66f5ecc3a26a7dad40ce54d1ac21234cf8e66a24e611832fbc4e",
      "blockHash": "0x8ab2c08f66b12b3332794630096e5a5343da0e3da0e13f0c0496bb9f594faff1",
      "blockNumber": 47035,
      "transactionIndex": 0,
      "confirmations": null,
      "from": "0xe6A7a1d47ff21B6321162AEA7C6CB457D5476Bca",
      "gasPrice": {
        "_hex": "0xd648052d3"
      },
      "gasLimit": {
        "_hex": "0x5208"
      },
      "to": "0x1ac6f55655Ac5bd17536F1F7a81de751949d13Da",
      "value": {
        "_hex": "0x1ea9ef6fbe91ae84"
      },
      "nonce": 33,
      "data": "0x",
      "r": "0xa62375cda19003d42dc6686275b5ac077166054076dfc4d9e44798def2d470e9",
      "s": "0x1f6fd1bb1a73efe3196fc18ea8e777b4c0b02a67f6c65c92646080275facf13b",
      "v": 28,
      "creates": null,
      "raw": "0xf86c21850d648052d3825208941ac6f55655ac5bd17536f1f7a81de751949d13da881ea9ef6fbe91ae84801ca0a62375cda19003d42dc6686275b5ac077166054076dfc4d9e44798def2d470e9a01f6fd1bb1a73efe3196fc18ea8e777b4c0b02a67f6c65c92646080275facf13b",
      "networkId": 0,
      "chainId": 0
    }
  ]
}