{
  "hash": "0xb8e8df1eda6d7478e06311bd3e79c2d0c1d3b00af9b6d730f25830cc2f333187",
  "parentHash": "0x9b3b822b5fe9970edd6c6dfe2805f3c7fc96e2d75b0cfeece03d388e885fc52c",
  "number": 110426,
  "timestamp": 1439973573,
  "nonce": "0x7b32100bd9a5fb5a",
  "difficulty": 4377730926164,
  "gasLimit": {
    "_hex": "0x2fefd8"
  },
  "gasUsed": {
    "_hex": "0x5208"
  },
  "miner": "0xe6A7a1d47ff21B6321162AEA7C6CB457D5476Bca",
  "extraData": "0x476574682f76312e302e312d38326566323666362f6c696e75782f676f312e34",
  "transactions": [
    {
      "hash": "0xed7b7844c2e25e349e77e29d9691ccfac9daa333aee82f0252feee688c2981d4",
      "blockHash": "0xb8e8df1eda6d7478e06311bd3e79c2d0c1d3b00af9b6d730f25830cc2f333187",
      "blockNumber": 110426,
      "transactionIndex": 0,
      "confirmations": null,
      "from": "0xCCe96724c29e042F35bCe1c2405feB0e8E30082b",
      "gasPrice": {
        "_hex": "0xe0604d77c"
      },
      "gasLimit": {
        "_hex": "0x5208"
      },
      "to": "0x32Be343B94f860124dC4fEe278FDCBD38C102D88",
      "value": {
        "_hex": "0x146f64c26c309e000"
      },
      "nonce": 7,
      "data": "0x",
      "r": "0x6c7494205d06f24f0a1cad0ac6298302675039226078b4e4bd99b9018766c392",
      "s": "0x715f81c3b1b7f6ef3aa7620a84e2b68ca04102f7aca7fad6e4a15140dee0ec2d",
      "v": 28,
      "creates": null,
      "raw": "0xf86d07850e0604d77c8252089432be343b94f860124dc4fee278fdcbd38c102d88890146f64c26c309e000801ca06c7494205d06f24f0a1cad0ac6298302675039226078b4e4bd99b9018766c392a0715f81c3b1b7f6ef3aa7620a84e2b68ca04102f7aca7fad6e4a15140dee0ec2d",
      "networkId": 0,
      "chainId": 0
    }
  ]
}