{
  "hash": "0x4cd3634dc5401dcae015865f6343c2e0b5c840e2276756a6d58e1e0484672162",
  "parentHash": "0x04f6de3f0b38eef79a554a03380e42f9fb0e389bfafdea2e0a1aceb6696801ae",
  "number": 47684,
  "timestamp": 1438944705,
  "nonce": "0x73ea4ff557e7ba72",
  "difficulty": 1445962953945,
  "gasLimit": {
    "_hex": "0xe3c4"
  },
  "gasUsed": {
    "_hex": "0x5208"
  },
  "miner": "0xab84940B570d6358ed6A9Dbf7e0bc8Ec8F5A6E89",
  "extraData": "0x322831652933",
  "transactions": [
    {
      "hash": "0xe8f1b301549133f7c99c4d78fa4cf7a893dbc7cc01c9bb586a4801cdfe8d8c8a",
      "blockHash": "0x4cd3634dc5401dcae015865f6343c2e0b5c840e2276756a6d58e1e0484672162",
      "blockNumber": 47684,
      "transactionIndex": 0,
      "confirmations": null,
      "from": "0xe6A7a1d47ff21B6321162AEA7C6CB457D5476Bca",
      "gasPrice": {
        "_hex": "0xd3d866126"
      },
      "gasLimit": {
        "_hex": "0x55f0"
      },
      "to": "0x3737216EE91f177732Fb58fA4097267207E2cF55",
      "value": {
        "_hex": "0x6eecace5be5e7368"
      },
      "nonce": 199,
      "data": "0x",
      "r": "0xf6435a2ab0884ca49af6aad52c82c2d7cf48f9c064432f72330e6b5768adbc40",
      "s": "0x3a10d3f2a4a0a2d97530de8daaf58ec8e4382e5967e0fff171fcf188f44deb94",
      "v": 27,
      "creates": null,
      "raw": "0xf86d81c7850d3d8661268255f0943737216ee91f177732fb58fa4097267207e2cf55886eecace5be5e7368801ba0f6435a2ab0884ca49af6aad52c82c2d7cf48f9c064432f72330e6b5768adbc40a03a10d3f2a4a0a2d97530de8daaf58ec8e4382e5967e0fff171fcf188f44deb94",
      "networkId": 0,
      "chainId": 0
    }
  ]
}