{
  "hash": "0x93f6f5350a916e08c3bc799f6fabb3e2598441cad4eb54795a9b53a5081df080",
  "parentHash": "0x489cc9dc6aa64aca4b88b17ca92f104cca08539fa13ed393e06e7b9e9b0e8598",
  "number": 73533,
  "timestamp": 1439370677,
  "nonce": "0x9bd6ccb79137a35e",
  "difficulty": 2222870915052,
  "gasLimit": {
    "_hex": "0x2fefd8"
  },
  "gasUsed": {
    "_hex": "0x7a83"
  },
  "miner": "0xe6A7a1d47ff21B6321162AEA7C6CB457D5476Bca",
  "extraData": "0x476574682f76312e302e312d38326566323666362f6c696e75782f676f312e34",
  "transactions": [
    {
      "hash": "0x6e8a595e472d404594b519aa8fd39f93f4414568ef3b55cd2fe3b5209e9bbb1a",
      "blockHash": "0x93f6f5350a916e08c3bc799f6fabb3e2598441cad4eb54795a9b53a5081df080",
      "blockNumber": 73533,
      "transactionIndex": 0,
      "confirmations": null,
      "from": "0xD1826373C4E0938f0b4302B40324f7f9c546492C",
      "gasPrice": {
        "_hex": "0xcc5ef1e7d"
      },
      "gasLimit": {
        "_hex": "0x30d40"
      },
      "to": "0x91601CBAb0bD60A0BC314a409da5070f135BeC6E",
      "value": {
        "_hex": "0x38d7ea4c68000"
      },
      "nonce": 4,
      "data": "0x",
      "r": "0x0de67ea080b30fa6eef52b9de34a096a6117ccd1403ac935c94d1cc9d64e3031",
      "s": "0x3a2b8b4beb6a52c7e7b2b8287d70d83e1c74a0b840ad76190af401ddd783be0d",
      "v": 28,
      "creates": null,
      "raw": "0xf86c04850cc5ef1e7d83030d409491601cbab0bd60a0bc314a409da5070f135bec6e87038d7ea4c68000801ca00de67ea080b30fa6eef52b9de34a096a6117ccd1403ac935c94d1cc9d64e3031a03a2b8b4beb6a52c7e7b2b8287d70d83e1c74a0b840ad76190af401ddd783be0d",
      "networkId": 0,
      "chainId": 0
    }
  ]
}