{
  "hash": "0xa73738dbfb754a19b1b599b4e15c57a79224dc65e6caba8f3d8eb41dea563df7",
  "parentHash": "0x75fe4505f4516645b15e1b986ee8469d94b232ab77c34d86aad46dea0dae51e4",
  "number": 84498,
  "timestamp": 1439550544,
  "nonce": "0x3af687de5dddfcf6",
  "difficulty": 2566420119051,
  "gasLimit": {
    "_hex": "0x2fefd8"
  },
  "gasUsed": {
    "_hex": "0x5208"
  },
  "miner": "0x55D1554b08a5311C5c0A0B6464162192f9D2f884",
  "extraData": "0x",
  "transactions": [
    {
      "hash": "0x250e949d17766f4b219a29362df1a0f50f5b4681cddc51bf41dd965de5003a35",
      "blockHash": "0xa73738dbfb754a19b1b599b4e15c57a79224dc65e6caba8f3d8eb41dea563df7",
      "blockNumber": 84498,
      "transactionIndex": 0,
      "confirmations": null,
      "from": "0xeC06c233d618b41076FbfF739Efb85a4999F89Da",
      "gasPrice": {
        "_hex": "0xdb6dc7d4f"
      },
      "gasLimit": {
        "_hex": "0x5208"
      },
      "to": "0x32Be343B94f860124dC4fEe278FDCBD38C102D88",
      "value": {
        "_hex": "0x19848ee48475b800"
      },
      "nonce": 0,
      "data": "0x",
      "r": "0x6289509124ceb6ca5bd6381164d960bdce1d170bbe033ed84266756ff3be9e56",
      "s": "0x45026fa9d98160e77f83a2eec4df5ca4b40ea8d2a6052d178b51d87e1d888d74",
      "v": 28,
      "creates": null,
      "raw": "0xf86c80850db6dc7d4f8252089432be343b94f860124dc4fee278fdcbd38c102d888819848ee48475b800801ca06289509124ceb6ca5bd6381164d960bdce1d170bbe033ed84266756ff3be9e56a045026fa9d98160e77f83a2eec4df5ca4b40ea8d2a6052d178b51d87e1d888d74",
      "networkId": 0,
      "chainId": 0
    }
  ]
}