{
  "hash": "0xfde9b1a00223cf85c194d60d1e5a8efb46e4fde2754ee00d7ed2af8e9810defe",
  "parentHash": "0xc87da4700e2be3165c034867241a2f403c26d81e6ef1e75d43795c4dd745d268",
  "number": 80516,
  "timestamp": 1439486626,
  "nonce": "0x132338eb7a29d367",
  "difficulty": 2419150274585,
  "gasLimit": {
    "_hex": "0x2fefd8"
  },
  "gasUsed": {
    "_hex": "0x5208"
  },
  "miner": "0x0D4EcC7d750180EBf4A9Df728B6669B5Bceb5E40",
  "extraData": "0x",
  "transactions": [
    {
      "hash": "0x0aea2e695d8acbe9997c7308b3e32ee7d3d047d929d0874167bc49d5398a4b68",
      "blockHash": "0xfde9b1a00223cf85c194d60d1e5a8efb46e4fde2754ee00d7ed2af8e9810defe",
      "blockNumber": 80516,
      "transactionIndex": 0,
      "confirmations": null,
      "from": "0xE87470b43FA5904a32866396B2f798D898c13978",
      "gasPrice": {
        "_hex": "0xd3d37f23a"
      },
      "gasLimit": {
        "_hex": "0x15f90"
      },
      "to": "0x972ad000397A3c903299F1353d6d4b85eE4E4e2A",
      "value": {
        "_hex": "0x15af1d78b58c40000"
      },
      "nonce": 4,
      "data": "0x",
      "r": "0xb2545604967bc0c346726b6318a38a1025b7818fd61888119f32039ace1d861d",
      "s": "0x6b43f93316b1cbfbaa578958b257504c40a61227aa307a69309d0ba3d3d2ac35",
      "v": 28,
      "creates": null,
      "raw": "0xf86e04850d3d37f23a83015f9094972ad000397a3c903299f1353d6d4b85ee4e4e2a89015af1d78b58c40000801ca0b2545604967bc0c346726b6318a38a1025b7818fd61888119f32039ace1d861da06b43f93316b1cbfbaa578958b257504c40a61227aa307a69309d0ba3d3d2ac35",
      "networkId": 0,
      "chainId": 0
    }
  ]
}