{
  "hash": "0x544a450898019323d350c42655171c69867007940601d7f5db62b58f08d44f7b",
  "parentHash": "0x23e7aa270739fd3c0fb2b5f8b8b9db423115696c02405dfd5f59e028de6242ff",
  "number": 62170,
  "timestamp": 1439184343,
  "nonce": "0x5cdd954a654a32d7",
  "difficulty": 1770302111292,
  "gasLimit": {
    "_hex": "0x2fefd5"
  },
  "gasUsed": {
    "_hex": "0x5208"
  },
  "miner": "0xf927a40C8B7F6E07c5af7FA2155B4864a4112B13",
  "extraData": "0x476574682f76312e302e302f6c696e75782f676f312e342e32",
  "transactions": [
    {
      "hash": "0xfcd0244a2e0cf25a788d6084afe71bfc7eb1b39b44af92ebe289a5458a2d41d2",
      "blockHash": "0x544a450898019323d350c42655171c69867007940601d7f5db62b58f08d44f7b",
      "blockNumber": 62170,
      "transactionIndex": 0,
      "confirmations": null,
      "from": "0xa8E7201ff619fAFFc332E6aD37Ed41e301bf014a",
      "gasPrice": {
        "_hex": "0xdf7190f5d"
      },
      "gasLimit": {
        "_hex": "0x15f90"
      },
      "to": "0x00C865a16eD3c930DD70B642507639D199C62180",
      "value": {
        "_hex": "0x1043561a8829300000"
      },
      "nonce": 2,
      "data": "0x",
      "r": "0x37fbf3f0046b9362f9b7982d946aba87464a97fd2a3fc32ca0a5ebf8fc5886fd",
      "s": "0x2c7e58cab60b88414dc7ff20a8b9f6dda4b1b81fac86e8a05744ace4a71245e5",
      "v": 28,
      "creates": null,
      "raw": "0xf86e02850df7190f5d83015f909400c865a16ed3c930dd70b642507639d199c62180891043561a8829300000801ca037fbf3f0046b9362f9b7982d946aba87464a97fd2a3fc32ca0a5ebf8fc5886fda02c7e58cab60b88414dc7ff20a8b9f6dda4b1b81fac86e8a05744ace4a71245e5",
      "networkId": 0,
      "chainId": 0
    }
  ]
}