{
  "hash": "0x2f17fe4aff1ad9920d0181971d6f08142f9764570a653ff4a9e691fa3f42ed6d",
  "parentHash": "0x8acf0124655a7856ee128c50fbb7c807dec8960b685e86e758d1cfa109527723",
  "number": 76261,
  "timestamp": 1439417461,
  "nonce": "0x763fb2292d402330",
  "difficulty": 2237390654433,
  "gasLimit": {
    "_hex": "0x2fefd8"
  },
  "gasUsed": {
    "_hex": "0x14820"
  },
  "miner": "0xbb7B8287f3F0a933474a79eAe42CBCa977791171",
  "extraData": "0x476574682f4c5649562f76312e302e312f6c696e75782f676f312e342e32",
  "transactions": [
    {
      "hash": "0x209aba6ebd9113927b4bcaadd00d30018cb5d9286fa9ac62cf9140de69a45eaa",
      "blockHash": "0x2f17fe4aff1ad9920d0181971d6f08142f9764570a653ff4a9e691fa3f42ed6d",
      "blockNumber": 76261,
      "transactionIndex": 0,
      "confirmations": null,
      "from": "0x7A3F5314eFB62CDe77750d52dD2bf12eF74a5D2a",
      "gasPrice": {
        "_hex": "0xe1f858d0a"
      },
      "gasLimit": {
        "_hex": "0x5208"
      },
      "to": "0x32Be343B94f860124dC4fEe278FDCBD38C102D88",
      "value": {
        "_hex": "0xb58f4ed9de409000000"
      },
      "nonce": 4,
      "data": "0x",
      "r": "0x987f63a999038d1d1ddddf59867b142f4a5db47a79cd4072c12e078347676448",
      "s": "0x7b1e9fc72d367e5ac202b0218ae6b9f5070d0916ea619d6984d550a95c85cced",
      "v": 28,
      "creates": null,
      "raw": "0xf86e04850e1f858d0a8252089432be343b94f860124dc4fee278fdcbd38c102d888a0b58f4ed9de409000000801ca0987f63a999038d1d1ddddf59867b142f4a5db47a79cd4072c12e078347676448a07b1e9fc72d367e5ac202b0218ae6b9f5070d0916ea619d6984d550a95c85cced",
      "networkId": 0,
      "chainId": 0
    },
    {
      "hash": "0xe05cf59067b3f272c01278094cf4f892a9b0daa587e54fe6f7ad9c5b1b22a851",
      "blockHash": "0x2f17fe4aff1ad9920d0181971d6f08142f9764570a653ff4a9e691fa3f42ed6d",
      "blockNumber": 76261,
      "transactionIndex": 1,
      "confirmations": null,
      "from": "0x19aF4b2766b8115B49E1fd31Ae71CaA12E706A96",
      "gasPrice": {
        "_hex": "0xe1f858d0a"
      },
      "gasLimit": {
        "_hex": "0x5208"
      },
      "to": "0x32Be343B94f860124dC4fEe278FDCBD38C102D88",
      "value": {
        "_hex": "0xde06f0724da71800"
      },
      "nonce": 2,
      "data": "0x",
      "r": "0x8592a48867819e5cd20809a13d29fbe28062622a0aa56cf71c749f0cef3f36ce",
      "s": "0x26f9fce0fdb27e58409145c7c02fae0315102f1875399d73026b3095ecac1aaf",
      "v": 28,
      "creates": null,
      "raw": "0xf86c02850e1f858d0a8252089432be343b94f860124dc4fee278fdcbd38c102d8888de06f0724da71800801ca08592a48867819e5cd20809a13d29fbe28062622a0aa56cf71c749f0cef3f36cea026f9fce0fdb27e58409145c7c02fae0315102f1875399d73026b3095ecac1aaf",
      "networkId": 0,
      "chainId": 0
    },
    {
      "hash": "0x938bc54703ede5cc2ae241ed2ec3958d462a1bcc644fd4ea58d94dbf60c6d7c7",
      "blockHash": "0x2f17fe4aff1ad9920d0181971d6f08142f9764570a653ff4a9e691fa3f42ed6d",
      "blockNumber": 76261,
      "transactionIndex": 2,
      "confirmations": null,
      "from": "0x32Be343B94f860124dC4fEe278FDCBD38C102D88",
      "gasPrice": {
        "_hex": "0xe1f858d0a"
      },
      "gasLimit": {
        "_hex": "0x5208"
      },
      "to": "0xB48CB04D046210A9F58175Ad35FCe298428e0969",
      "value": {
        "_hex": "0x15a1caddcba3e0000"
      },
      "nonce": 350,
      "data": "0x",
      "r": "0x7d9761c1be2832da9a296bfedf24cff4690e347e82b93459cdd6309edac9f99e",
      "s": "0x2108824765705793c95cd03ae48178db0228b78e52d5c786eb119d768e89ee7d",
      "v": 27,
      "creates": null,
      "raw": "0xf86f82015e850e1f858d0a82520894b48cb04d046210a9f58175ad35fce298428e096989015a1caddcba3e0000801ba07d9761c1be2832da9a296bfedf24cff4690e347e82b93459cdd6309edac9f99ea02108824765705793c95cd03ae48178db0228b78e52d5c786eb119d768e89ee7d",
      "networkId": 0,
      "chainId": 0
    },
    {
      "hash": "0x6562f0490b07df37d1a02bf92614ff0abf2eaf4b2be8759cb3eaaaef8ce98813",
      "blockHash": "0x2f17fe4aff1ad9920d0181971d6f08142f9764570a653ff4a9e691fa3f42ed6d",
      "blockNumber": 76261,
      "transactionIndex": 3,
      "confirmations": null,
      "from": "0xa70a9a7040d542C632D8e0bE7c5513A8a5Bbc752",
      "gasPrice": {
        "_hex": "0xe1f858d0a"
      },
      "gasLimit": {
        "_hex": "0x5208"
      },
      "to": "0x32Be343B94f860124dC4fEe278FDCBD38C102D88",
      "value": {
        "_hex": "0x2b59b466c2710400"
      },
      "nonce": 43,
      "data": "0x",
      "r": "0x5057e02e934469ca269721e169a68973999bf048c1b1d13f5f5980a4c3ae8fe0",
      "s": "0x0fd8f8a763ac32c062560ad2e07b9828fe270b2d661783a1ca7532498ac3221f",
      "v": 28,
      "creates": null,
      "raw": "0xf86c2b850e1f858d0a8252089432be343b94f860124dc4fee278fdcbd38c102d88882b59b466c2710400801ca05057e02e934469ca269721e169a68973999bf048c1b1d13f5f5980a4c3ae8fe0a00fd8f8a763ac32c062560ad2e07b9828fe270b2d661783a1ca7532498ac3221f",
      "networkId": 0,
      "chainId": 0
    }
  ]
}