{
  "hash": "0x9cefad2d1f437e1900a7ce48e295efbd0a85a8806c71bdbc7fcfbf27a0f0e73b",
  "parentHash": "0x9019474a96bb463e87360071231c0e72f638fb65f0120d23633b9d4c9507881d",
  "number": 117867,
  "timestamp": 1440116691,
  "nonce": "0x2b33ed7a61c02359",
  "difficulty": 4329229550502,
  "gasLimit": {
    "_hex": "0x2fefd8"
  },
  "gasUsed": {
    "_hex": "0x14820"
  },
  "miner": "0x52bc44d5378309EE2abF1539BF71dE1b7d7bE3b5",
  "extraData": "0xd783010002844765746887676f312e342e32856c696e7578",
  "transactions": [
    {
      "hash": "0x182980298e75d12d3764236308d8358571b838dd2ca56d51d519de541170d8f3",
      "blockHash": "0x9cefad2d1f437e1900a7ce48e295efbd0a85a8806c71bdbc7fcfbf27a0f0e73b",
      "blockNumber": 117867,
      "transactionIndex": 0,
      "confirmations": null,
      "from": "0xAdCa16b4654a92cb67666C0cF61976cEEE81cEEB",
      "gasPrice": {
        "_hex": "0xba43b7400"
      },
      "gasLimit": {
        "_hex": "0x5208"
      },
      "to": "0x32Be343B94f860124dC4fEe278FDCBD38C102D88",
      "value": {
        "_hex": "0x461b9711dcc0bc00"
      },
      "nonce": 10,
      "data": "0x",
      "r": "0x76bdacc8e575ec7e8c01df36865978c3e396cf530e80023ccece65bd1896d7ca",
      "s": "0x0a3c0546c66999eb7ec182942439789c7c006b09bb6064e337f111f91056a4bf",
      "v": 28,
      "creates": null,
      "raw": "0xf86c0a850ba43b74008252089432be343b94f860124dc4fee278fdcbd38c102d8888461b9711dcc0bc00801ca076bdacc8e575ec7e8c01df36865978c3e396cf530e80023ccece65bd1896d7caa00a3c0546c66999eb7ec182942439789c7c006b09bb6064e337f111f91056a4bf",
      "networkId": 0,
      "chainId": 0
    },
    {
      "hash": "0xd8e829699e09cbe70e9e71d727ca4835f2f3b68d5d1346b8247c34a56bf84a4a",
      "blockHash": "0x9cefad2d1f437e1900a7ce48e295efbd0a85a8806c71bdbc7fcfbf27a0f0e73b",
      "blockNumber": 117867,
      "transactionIndex": 1,
      "confirmations": null,
      "from": "0xFc8bc4ed86dF73001ce6082F3dB914d7c7A9a6cC",
      "gasPrice": {
        "_hex": "0xba43b7400"
      },
      "gasLimit": {
        "_hex": "0x5208"
      },
      "to": "0x32Be343B94f860124dC4fEe278FDCBD38C102D88",
      "value": {
        "_hex": "0x4974d8b1bf737000"
      },
      "nonce": 9,
      "data": "0x",
      "r": "0x7a567df1dd728aa0303636a8dc6fb51b375bbf3be1c490ce5a677f75ad4aec58",
      "s": "0x30046c0cace64465a7d6440df240de1f6f471ed66f064cd3d6a66b9648aae552",
      "v": 27,
      "creates": null,
      "raw": "0xf86c09850ba43b74008252089432be343b94f860124dc4fee278fdcbd38c102d88884974d8b1bf737000801ba07a567df1dd728aa0303636a8dc6fb51b375bbf3be1c490ce5a677f75ad4aec58a030046c0cace64465a7d6440df240de1f6f471ed66f064cd3d6a66b9648aae552",
      "networkId": 0,
      "chainId": 0
    },
    {
      "hash": "0xeb824a6338a40b220eb5666ae1ca2afcdb013186a423916de1f95de15671227a",
      "blockHash": "0x9cefad2d1f437e1900a7ce48e295efbd0a85a8806c71bdbc7fcfbf27a0f0e73b",
      "blockNumber": 117867,
      "transactionIndex": 2,
      "confirmations": null,
      "from": "0xaa71fa80d26F718E6A3c87e41D817b8D10944a63",
      "gasPrice": {
        "_hex": "0xba43b7400"
      },
      "gasLimit": {
        "_hex": "0x5208"
      },
      "to": "0x32Be343B94f860124dC4fEe278FDCBD38C102D88",
      "value": {
        "_hex": "0x28487aae900db400"
      },
      "nonce": 10,
      "data": "0x",
      "r": "0xaf0caa8ee82cfcd4b62db452b746f70de977c292d2cec50b9304f7d8233200aa",
      "s": "0x4896d28fcd7fb81a86b4873117e03571f7091e1cc52a914dee934ee5b90fd18e",
      "v": 28,
      "creates": null,
      "raw": "0xf86c0a850ba43b74008252089432be343b94f860124dc4fee278fdcbd38c102d888828487aae900db400801ca0af0caa8ee82cfcd4b62db452b746f70de977c292d2cec50b9304f7d8233200aaa04896d28fcd7fb81a86b4873117e03571f7091e1cc52a914dee934ee5b90fd18e",
      "networkId": 0,
      "chainId": 0
    },
    {
      "hash": "0xc7d07dc2fe0960f3e9eaa6c709d34c7462a515727ff617b4698aea6faaf19876",
      "blockHash": "0x9cefad2d1f437e1900a7ce48e295efbd0a85a8806c71bdbc7fcfbf27a0f0e73b",
      "blockNumber": 117867,
      "transactionIndex": 3,
      "confirmations": null,
      "from": "0xe70361D11B44B2fBA997417D7AAa26eb69EBfef0",
      "gasPrice": {
        "_hex": "0xba43b7400"
      },
      "gasLimit": {
        "_hex": "0x5208"
      },
      "to": "0x32Be343B94f860124dC4fEe278FDCBD38C102D88",
      "value": {
        "_hex": "0x6e6963d8e9020000"
      },
      "nonce": 10,
      "data": "0x",
      "r": "0xbf51c7c9f6a68bcbb0773093dcb24f657b31ad4237c6f7f797b9d0e5ce9ced2d",
      "s": "0x05bc3f3a07183b2858329eb8f00dd94beeadcb4043abaa09f0d1da4bc597acf2",
      "v": 27,
      "creates": null,
      "raw": "0xf86c0a850ba43b74008252089432be343b94f860124dc4fee278fdcbd38c102d88886e6963d8e9020000801ba0bf51c7c9f6a68bcbb0773093dcb24f657b31ad4237c6f7f797b9d0e5ce9ced2da005bc3f3a07183b2858329eb8f00dd94beeadcb4043abaa09f0d1da4bc597acf2",
      "networkId": 0,
      "chainId": 0
    }
  ]
}