{
  "hash": "0x7fedc8d317bd6a1fe5e1881d867e2b9526acd84d635307bc02f469cb493c4bf0",
  "parentHash": "0xf2713ea690463594e68066f556f09a4a1b5fce4db8f6b4cf48414bb79746dad9",
  "number": 94787,
  "timestamp": 1439714107,
  "nonce": "0x14e99284f634374f",
  "difficulty": 3498452103070,
  "gasLimit": {
    "_hex": "0x2fefd8"
  },
  "gasUsed": {
    "_hex": "0x1ec30"
  },
  "miner": "0xe6A7a1d47ff21B6321162AEA7C6CB457D5476Bca",
  "extraData": "0x476574682f76312e302e312d38326566323666362f6c696e75782f676f312e34",
  "transactions": [
    {
      "hash": "0xf027bd4e2aa5daaad4a8c299c8a8a0add4b46d95367aa2da48cf380fd54df024",
      "blockHash": "0x7fedc8d317bd6a1fe5e1881d867e2b9526acd84d635307bc02f469cb493c4bf0",
      "blockNumber": 94787,
      "transactionIndex": 0,
      "confirmations": null,
      "from": "0x95A466C2ba3A392003E9ef63F4442236C6E1B40E",
      "gasPrice": {
        "_hex": "0xde7088f99"
      },
      "gasLimit": {
        "_hex": "0x5208"
      },
      "to": "0x32Be343B94f860124dC4fEe278FDCBD38C102D88",
      "value": {
        "_hex": "0x5e59ff89d87ac000"
      },
      "nonce": 2,
      "data": "0x",
      "r": "0x7b52ef37dfac88073b26fe9bff5f717b2b70115a4ad1d18eb4035c3d68c504e8",
      "s": "0x28587bcf117c53e1b59b5781b692b4b315eb34b1282c82247c3f1fde69eecd12",
      "v": 28,
      "creates": null,
      "raw": "0xf86c02850de7088f998252089432be343b94f860124dc4fee278fdcbd38c102d88885e59ff89d87ac000801ca07b52ef37dfac88073b26fe9bff5f717b2b70115a4ad1d18eb4035c3d68c504e8a028587bcf117c53e1b59b5781b692b4b315eb34b1282c82247c3f1fde69eecd12",
      "networkId": 0,
      "chainId": 0
    },
    {
      "hash": "0x76acd701648ef4360c628499632024abe88bf4952535aa8ee04ce9b87cb7473a",
      "blockHash": "0x7fedc8d317bd6a1fe5e1881d867e2b9526acd84d635307bc02f469cb493c4bf0",
      "blockNumber": 94787,
      "transactionIndex": 1,
      "confirmations": null,
      "from": "0xA270859a7dD7bEF18258BDE4b85Dd3691FdE277D",
      "gasPrice": {
        "_hex": "0xde7088f99"
      },
      "gasLimit": {
        "_hex": "0x5208"
      },
      "to": "0x32Be343B94f860124dC4fEe278FDCBD38C102D88",
      "value": {
        "_hex": "0x81d00fb393b20000"
      },
      "nonce": 1,
      "data": "0x",
      "r": "0x41c76ad7875ae782bf0fb9ba83e94547e1e198187c3e8fdfc5d3ab16b5c76be2",
      "s": "0x6afbd58430d05dba638e198ac5a73c511178b6c14a6ad97e5b6bb182c70b56e3",
      "v": 28,
      "creates": null,
      "raw": "0xf86c01850de7088f998252089432be343b94f860124dc4fee278fdcbd38c102d888881d00fb393b20000801ca041c76ad7875ae782bf0fb9ba83e94547e1e198187c3e8fdfc5d3ab16b5c76be2a06afbd58430d05dba638e198ac5a73c511178b6c14a6ad97e5b6bb182c70b56e3",
      "networkId": 0,
      "chainId": 0
    },
    {
      "hash": "0x9cdeee4a02a805d71efd30f9e8f6d3f37ee6118ec86e14331c4f1041ef74dec7",
      "blockHash": "0x7fedc8d317bd6a1fe5e1881d867e2b9526acd84d635307bc02f469cb493c4bf0",
      "blockNumber": 94787,
      "transactionIndex": 2,
      "confirmations": null,
      "from": "0x4D67f4F0Db45b3B5a3424B39ed8d972F710381D5",
      "gasPrice": {
        "_hex": "0xde7088f99"
      },
      "gasLimit": {
        "_hex": "0x5208"
      },
      "to": "0x32Be343B94f860124dC4fEe278FDCBD38C102D88",
      "value": {
        "_hex": "0x3fce238b8d9a960000"
      },
      "nonce": 4,
      "data": "0x",
      "r": "0xaaa75913c5971b9f74946b7a83da396fb09a687314c4dd9f759dcbc55a71b06a",
      "s": "0x530f37690eedac2057b3f9e10b3c7fff07b743d9946266f0f07c61ad0cb0cadd",
      "v": 28,
      "creates": null,
      "raw": "0xf86d04850de7088f998252089432be343b94f860124dc4fee278fdcbd38c102d88893fce238b8d9a960000801ca0aaa75913c5971b9f74946b7a83da396fb09a687314c4dd9f759dcbc55a71b06aa0530f37690eedac2057b3f9e10b3c7fff07b743d9946266f0f07c61ad0cb0cadd",
      "networkId": 0,
      "chainId": 0
    },
    {
      "hash": "0x80bb66703d359a93cef7be95337104b6963f8615478bf8943909f55257074239",
      "blockHash": "0x7fedc8d317bd6a1fe5e1881d867e2b9526acd84d635307bc02f469cb493c4bf0",
      "blockNumber": 94787,
      "transactionIndex": 3,
      "confirmations": null,
      "from": "0xeC06c233d618b41076FbfF739Efb85a4999F89Da",
      "gasPrice": {
        "_hex": "0xde7088f99"
      },
      "gasLimit": {
        "_hex": "0x5208"
      },
      "to": "0x32Be343B94f860124dC4fEe278FDCBD38C102D88",
      "value": {
        "_hex": "0x12fec34ece1bc000"
      },
      "nonce": 3,
      "data": "0x",
      "r": "0x4508a9e8eb721c55aa4a244607efc367689a652e246a0679b7ca3b097de5e053",
      "s": "0x735ab9f8b5ed87d69a5ee6d3dafca9da3ee130aba929f8ee4d03db7528542d9e",
      "v": 28,
      "creates": null,
      "raw": "0xf86c03850de7088f998252089432be343b94f860124dc4fee278fdcbd38c102d888812fec34ece1bc000801ca04508a9e8eb721c55aa4a244607efc367689a652e246a0679b7ca3b097de5e053a0735ab9f8b5ed87d69a5ee6d3dafca9da3ee130aba929f8ee4d03db7528542d9e",
      "networkId": 0,
      "chainId": 0
    },
    {
      "hash": "0x46d34764ef7e7a711ead5b0d0deaa99e621122fefff434a01b803e96ae819c9a",
      "blockHash": "0x7fedc8d317bd6a1fe5e1881d867e2b9526acd84d635307bc02f469cb493c4bf0",
      "blockNumber": 94787,
      "transactionIndex": 4,
      "confirmations": null,
      "from": "0x2aBAA2b360f586C7B4997E0532C4BD76bCFb20fF",
      "gasPrice": {
        "_hex": "0xde7088f99"
      },
      "gasLimit": {
        "_hex": "0x5208"
      },
      "to": "0x32Be343B94f860124dC4fEe278FDCBD38C102D88",
      "value": {
        "_hex": "0x1b1ae48f9bff4d00000"
      },
      "nonce": 2,
      "data": "0x",
      "r": "0xb13782e211fc355a85b56ddf89244d54f29abb5b4ced3f883e50bb1372386bc2",
      "s": "0x01f72c365fe8d03c0482712f3ac0528bed4f1799e13a07cf535a37b19b30a91b",
      "v": 27,
      "creates": null,
      "raw": "0xf86e02850de7088f998252089432be343b94f860124dc4fee278fdcbd38c102d888a01b1ae48f9bff4d00000801ba0b13782e211fc355a85b56ddf89244d54f29abb5b4ced3f883e50bb1372386bc2a001f72c365fe8d03c0482712f3ac0528bed4f1799e13a07cf535a37b19b30a91b",
      "networkId": 0,
      "chainId": 0
    },
    {
      "hash": "0xa3c9d31ed29815a9081e74380f74a6ecba7c0763479b2dde9f02853f55f3f7db",
      "blockHash": "0x7fedc8d317bd6a1fe5e1881d867e2b9526acd84d635307bc02f469cb493c4bf0",
      "blockNumber": 94787,
      "transactionIndex": 5,
      "confirmations": null,
      "from": "0x859337F6BeF10dEE917c9F7086B47Fc9B019d45b",
      "gasPrice": {
        "_hex": "0xba43b7400"
      },
      "gasLimit": {
        "_hex": "0x5208"
      },
      "to": "0xC47Aaa860008be6f65B58c6C6E02a84e666EfE31",
      "value": {
        "_hex": "0x3bbebe76a6b3e55e0"
      },
      "nonce": 3,
      "data": "0x",
      "r": "0x29504494b84761a947ef90e9bf2666f754846cefd485b2f0e3d264ef4230d0f3",
      "s": "0x1ab3089f0ad7baeba7b40510dedeb794f28a3d205b3c49f3b4e127b8a2bc66e4",
      "v": 27,
      "creates": null,
      "raw": "0xf86d03850ba43b740082520894c47aaa860008be6f65b58c6c6e02a84e666efe318903bbebe76a6b3e55e0801ba029504494b84761a947ef90e9bf2666f754846cefd485b2f0e3d264ef4230d0f3a01ab3089f0ad7baeba7b40510dedeb794f28a3d205b3c49f3b4e127b8a2bc66e4",
      "networkId": 0,
      "chainId": 0
    }
  ]
}