{
  "hash": "0xaedbee063fd846ad31ba9935c4bf19ef7ccb07410ecc02ccbe79e359b59fee87",
  "parentHash": "0x0b855f3432d97a3813e5ba931c983e1c49d31e923727ea3e29c5ecfd49269643",
  "number": 77702,
  "timestamp": 1439441472,
  "nonce": "0xe799b40bbd4f4593",
  "difficulty": 2268908042478,
  "gasLimit": {
    "_hex": "0x2fefd5"
  },
  "gasUsed": {
    "_hex": "0x5208"
  },
  "miner": "0xC603Ab5ef41fC61AA8b76bEddb09e3Cfcbb174BD",
  "extraData": "0x476574682f76312e302e312f77696e646f77732f676f312e342e32",
  "transactions": [
    {
      "hash": "0xdc64b9b819b842ba566802512de4b97b241c1d86bd39ae65c6e7ae505efc6706",
      "blockHash": "0xaedbee063fd846ad31ba9935c4bf19ef7ccb07410ecc02ccbe79e359b59fee87",
      "blockNumber": 77702,
      "transactionIndex": 0,
      "confirmations": null,
      "from": "0x32Be343B94f860124dC4fEe278FDCBD38C102D88",
      "gasPrice": {
        "_hex": "0xd74cf29df"
      },
      "gasLimit": {
        "_hex": "0x5208"
      },
      "to": "0x28a9D631e5C22Ee57312DDdc75936822a2243A05",
      "value": {
        "_hex": "0x45400a8fd5330000"
      },
      "nonce": 373,
      "data": "0x",
      "r": "0x48e311c1b7c6ed90c806ac8647c7bc29e22e4b40c5cbdd350008377bbad21808",
      "s": "0x28de428b08b2f017bc775538de7c820f6af94f6efebfaa82930ebddb92159f74",
      "v": 27,
      "creates": null,
      "raw": "0xf86e820175850d74cf29df8252089428a9d631e5c22ee57312dddc75936822a2243a058845400a8fd5330000801ba048e311c1b7c6ed90c806ac8647c7bc29e22e4b40c5cbdd350008377bbad21808a028de428b08b2f017bc775538de7c820f6af94f6efebfaa82930ebddb92159f74",
      "networkId": 0,
      "chainId": 0
    }
  ]
}