{
  "hash": "0xea010c5bdb854db93db53de3552a0d9f9f18b687a3a8f82d20d7bbbd34cfe468",
  "parentHash": "0xe09967f5aebcdbdfac6a89cd2782e9e7ff1004ea5b333e696248c8ad6a61bde5",
  "number": 90956,
  "timestamp": 1439647993,
  "nonce": "0x9096ad227f1d7d02",
  "difficulty": 3423983527113,
  "gasLimit": {
    "_hex": "0x2fefd8"
  },
  "gasUsed": {
    "_hex": "0x5208"
  },
  "miner": "0xe6A7a1d47ff21B6321162AEA7C6CB457D5476Bca",
  "extraData": "0x476574682f76312e302e312d38326566323666362f6c696e75782f676f312e34",
  "transactions": [
    {
      "hash": "0xf65b8283d4b448aa401e62ccaa4a795244e1578748382d9cfae859f2007d0d8b",
      "blockHash": "0xea010c5bdb854db93db53de3552a0d9f9f18b687a3a8f82d20d7bbbd34cfe468",
      "blockNumber": 90956,
      "transactionIndex": 0,
      "confirmations": null,
      "from": "0x8293b65bD915B9FF87F6aDAb479da2e5b6633fDB",
      "gasPrice": {
        "_hex": "0xdf6f14b1c"
      },
      "gasLimit": {
        "_hex": "0x15f90"
      },
      "to": "0x9f78552704fe7e52cC7C3853534aA2C3cf580D54",
      "value": {
        "_hex": "0x4563918244f40000"
      },
      "nonce": 12,
      "data": "0x",
      "r": "0x56051bfa7d9e80c6abfd07310124e783bb228152b43227a84f4c1eb970264b3b",
      "s": "0x25160861409e75db93de5f6298ab3ee17e36af461eae87b7a247d8abf365fe29",
      "v": 27,
      "creates": null,
      "raw": "0xf86d0c850df6f14b1c83015f90949f78552704fe7e52cc7c3853534aa2c3cf580d54884563918244f40000801ba056051bfa7d9e80c6abfd07310124e783bb228152b43227a84f4c1eb970264b3ba025160861409e75db93de5f6298ab3ee17e36af461eae87b7a247d8abf365fe29",
      "networkId": 0,
      "chainId": 0
    }
  ]
}