{
  "hash": "0x21e8ba50817b7d97e6002530360ad6ab578e7cf62ae5d7b45430fcceb2e7d587",
  "parentHash": "0xa870a05a04f56389c42defa8f03cd299dca1e724b300434c26bd9e91dd029577",
  "number": 54429,
  "timestamp": 1439054216,
  "nonce": "0xa89b5b04afb679b7",
  "difficulty": 1606292095423,
  "gasLimit": {
    "_hex": "0x2fefd5"
  },
  "gasUsed": {
    "_hex": "0x5208"
  },
  "miner": "0x94b7fDF01f4E5d76b2C31eEb846f91F427606C98",
  "extraData": "0x476574682f76312e302e312d38326566323666362f6c696e75782f676f312e34",
  "transactions": [
    {
      "hash": "0x69014cd61e0588eb14d9362700bab3ccd9aa0c01f8d944bd27af3ea4f2b5fcb7",
      "blockHash": "0x21e8ba50817b7d97e6002530360ad6ab578e7cf62ae5d7b45430fcceb2e7d587",
      "blockNumber": 54429,
      "transactionIndex": 0,
      "confirmations": null,
      "from": "0x255BdD6474cC8262f26a22C38f45940e1Ceea69B",
      "gasPrice": {
        "_hex": "0xdc3ea3453"
      },
      "gasLimit": {
        "_hex": "0x15f90"
      },
      "to": "0x60780933D9a5A8e8E3ab20CB6382cd314f04065F",
      "value": {
        "_hex": "0x0"
      },
      "nonce": 0,
      "data": "0x",
      "r": "0x01d81806a99eac3c5f110fefdccf3681b5d36a9c0ea3d4e40c83d1444718d5e0",
      "s": "0x0d8dfa0082a753c236d5999b8cb9f0837c8f489605ebc780c7eb6c7912509c5a",
      "v": 28,
      "creates": null,
      "raw": "0xf86580850dc3ea345383015f909460780933d9a5a8e8e3ab20cb6382cd314f04065f80801ca001d81806a99eac3c5f110fefdccf3681b5d36a9c0ea3d4e40c83d1444718d5e0a00d8dfa0082a753c236d5999b8cb9f0837c8f489605ebc780c7eb6c7912509c5a",
      "networkId": 0,
      "chainId": 0
    }
  ]
}