{
  "hash": "0x0e99e2961021bc358ecce076ba0dc13f848d17189ce9e5170d56c4fb726e0588",
  "parentHash": "0x831d482619bee16e1cee299922e46045fd25734b0569b856ea42e6260fd350f1",
  "number": 59962,
  "timestamp": 1439146715,
  "nonce": "0x044360bfc93c0daf",
  "difficulty": 1729748338170,
  "gasLimit": {
    "_hex": "0x2fefd8"
  },
  "gasUsed": {
    "_hex": "0x5208"
  },
  "miner": "0xd5A85B42F59351D806582F791600EA3e99811121",
  "extraData": "0x476574682f76312e302e312f6c696e75782f676f312e342e32",
  "transactions": [
    {
      "hash": "0x1651f2eb303759d6efa844c67df1af506a0409ba4ad0788be25a7f766f11d381",
      "blockHash": "0x0e99e2961021bc358ecce076ba0dc13f848d17189ce9e5170d56c4fb726e0588",
      "blockNumber": 59962,
      "transactionIndex": 0,
      "confirmations": null,
      "from": "0x0927220492194B2edA9fc4BBe38f25d681dfD36C",
      "gasPrice": {
        "_hex": "0x10752b35694"
      },
      "gasLimit": {
        "_hex": "0x15f90"
      },
      "to": "0x739f8ab33a41B67952f16778e3CC6D2dEcC3a2d5",
      "value": {
        "_hex": "0xd8c9460063d31c0000"
      },
      "nonce": 4,
      "data": "0x",
      "r": "0xb57aa5c728cbd05c7e5c164b2046b2f5c0501a7a227c3b9e8d5a3219b09b9fd2",
      "s": "0x3f3d6e3b34ecfede96dc1773b6df93ed04500b2314b2e59de8948fd008878374",
      "v": 27,
      "creates": null,
      "raw": "0xf86f0486010752b3569483015f9094739f8ab33a41b67952f16778e3cc6d2decc3a2d589d8c9460063d31c0000801ba0b57aa5c728cbd05c7e5c164b2046b2f5c0501a7a227c3b9e8d5a3219b09b9fd2a03f3d6e3b34ecfede96dc1773b6df93ed04500b2314b2e59de8948fd008878374",
      "networkId": 0,
      "chainId": 0
    }
  ]
}