{
  "hash": "0x4c716fece15faea1c2c8a55ddf0722db5194a2ce2fddb7f76ad6d27cb61e3d1c",
  "parentHash": "0x56e107d04642f761bf13ac447acb85bf2ce048b7988b12f0ed29473304b3917a",
  "number": 72446,
  "timestamp": 1439352765,
  "nonce": "0x5b382c72f1873efa",
  "difficulty": 2206935555006,
  "gasLimit": {
    "_hex": "0x2fefd8"
  },
  "gasUsed": {
    "_hex": "0x72e4d"
  },
  "miner": "0xf927a40C8B7F6E07c5af7FA2155B4864a4112B13",
  "extraData": "0x",
  "transactions": [
    {
      "hash": "0xb7ebbe7e3bad05953c765e628ccf9bbe4fb566930caaceb2ba9454b7269b8396",
      "blockHash": "0x4c716fece15faea1c2c8a55ddf0722db5194a2ce2fddb7f76ad6d27cb61e3d1c",
      "blockNumber": 72446,
      "transactionIndex": 0,
      "confirmations": null,
      "from": "0x1308A2e95c0160B90803ddCA9B9a5bb55E416d79",
      "gasPrice": {
        "_hex": "0x9184e72a000"
      },
      "gasLimit": {
        "_hex": "0x15f90"
      },
      "to": "0xCbb61EDf3E9e77dFE1b5280Be4A7Cf8a5d271c8B",
      "value": {
        "_hex": "0xabece59d97468800"
      },
      "nonce": 111,
      "data": "0x",
      "r": "0xd4b033afcb8db084a24a0a79f8e7a58c2422abd34b8071bb653a0cc3d1d7f593",
      "s": "0x2550f527883d09f993b8a848d597a3194174f1589d6e672596ddc5d003ed7234",
      "v": 28,
      "creates": null,
      "raw": "0xf86e6f8609184e72a00083015f9094cbb61edf3e9e77dfe1b5280be4a7cf8a5d271c8b88abece59d97468800801ca0d4b033afcb8db084a24a0a79f8e7a58c2422abd34b8071bb653a0cc3d1d7f593a02550f527883d09f993b8a848d597a3194174f1589d6e672596ddc5d003ed7234",
      "networkId": 0,
      "chainId": 0
    },
    {
      "hash": "0x7fbd9bd9c3389a1d5bae886746c7e2101820574ee9330bb5962da7185a102ae1",
      "blockHash": "0x4c716fece15faea1c2c8a55ddf0722db5194a2ce2fddb7f76ad6d27cb61e3d1c",
      "blockNumber": 72446,
      "transactionIndex": 1,
      "confirmations": null,
      "from": "0x326Be8F71bFb0379f989aAB1CC1fE37f0a771f60",
      "gasPrice": {
        "_hex": "0x1085e027698"
      },
      "gasLimit": {
        "_hex": "0x7a120"
      },
      "to": null,
      "value": {
        "_hex": "0x0"
      },
      "nonce": 4,
      "data": "0x606060405260008054600160a060020a031916331790556105f3806100256000396000f300606060405236156100a35760e060020a600035046303750d9481146100a557806306b5f02d146100cb5780630e1da6c3146100e85780630f06670a146101135780632d9a37d3146101425780632e1a7d4d1461015b578063839930ba1461017e5780638d2161861461018f578063a094a031146101b5578063add4c784146101e1578063bd66528a14610210578063cb96012e14610240578063d8389dc514610251575b005b6100a3600435602435600054600160a060020a0390811633919091161461035b57610320565b61026e6004356024355b6064610100919091049091026062020490565b33600160a060020a0316600090815260016020526040812060048101546100a392146105a9576105a6565b61026e600435600160a060020a033316600090815260016020526040812060048101548214156103f9576103ad565b61026e5b606430600160a060020a031631600502045b90565b6100a3600435600054600160a060020a039081163391909116146105cc576105a6565b61026e678ac7230489e80000610158565b6100a360043560243560018210806101a7575060ff82115b806103265750610351610146565b61026e600160a060020a033316600090815260016020526040812060048101548214156103a1576103a6565b61026e600435600160a060020a033316600090815260016020526040812060048101548214156103b3576103ad565b6100a3600435600160a060020a033316600090815260016020526040812060048101549091141561045c57610320565b61026e6004355b60ff81165b919050565b61026e60043560408051828152905190819003602001902061024c565b60408051918252519081900360200190f35b6040805160a0810182523480825260208281018681524384860190815260608501878152600060808701818152600160a060020a0333168083526001808852928a90209851895594519188019190915591516002870155516003860155516004949094019390935583519182528101859052825191927ff41b7910e085d0992d604fd470931728fd77cc8eb504d99e50e51a0a30fcfd1a92918290030190a25b5050565b115b1561028057604051600160a060020a03331690600090349082818181858883f1935050505050610320565b61032434846100d5565b600160a060020a0382166000908152600160205260408120600401541461038157610320565b600160a060020a0391909116600090815260016020526040902060040155565b600191505b5090565b91505b50919050565b6040805160038301548582529151908190036020019020146103d4576103ad565b604080516004830154858252602082015281519081900390910190206103aa90610247565b60408051600383015485825291519081900360200190201461041a576103ad565b60408051600183015460048401548683526020830152825191829003909201902061044490610247565b101561045357600191506103ad565b600091506103ad565b60408051600383015484825291519081900360200190201461047d57610320565b6040805160018301546004840154858352602083015282519182900390920190206104a790610247565b10156105245780546001820154600160a060020a033316916000916104cc91906100d5565b6040516000818181858888f15084546001860154908252602082015260408051600160a060020a03331695507ffdc49939175858b2bb557093a7d52fa6b6f3aad917d282d61758fab4805f102a945091829003019150a25b600160a060020a033316600090815260016020819052604082208281559081018290556002810182905560038101829055600401555050565b6040518154600160a060020a033316916000919082818181858883f150505090815260016020819052604082208281559081018290556002810182905560038101829055600401555b50565b8054600090116105b8576105a6565b600281015460140143101561055d576105a6565b60008054604051600160a060020a03919091169190839082818181858883f150505050505056",
      "r": "0x7cb75c744b78a5ac6604e276c2ccc11f5599f0160e840189c0d0c2741b5d70ab",
      "s": "0x5d0d373470442ec0415790f2ae6b7d7c9944adf24ff88b7c6db466a37829cd5e",
      "v": 27,
      "creates": "0x8dD3Da3fAB45051Ed2Cd677c0e53c9dE0011944c",
      "raw": "0xf9066c048601085e0276988307a1208080b90618606060405260008054600160a060020a031916331790556105f3806100256000396000f300606060405236156100a35760e060020a600035046303750d9481146100a557806306b5f02d146100cb5780630e1da6c3146100e85780630f06670a146101135780632d9a37d3146101425780632e1a7d4d1461015b578063839930ba1461017e5780638d2161861461018f578063a094a031146101b5578063add4c784146101e1578063bd66528a14610210578063cb96012e14610240578063d8389dc514610251575b005b6100a3600435602435600054600160a060020a0390811633919091161461035b57610320565b61026e6004356024355b6064610100919091049091026062020490565b33600160a060020a0316600090815260016020526040812060048101546100a392146105a9576105a6565b61026e600435600160a060020a033316600090815260016020526040812060048101548214156103f9576103ad565b61026e5b606430600160a060020a031631600502045b90565b6100a3600435600054600160a060020a039081163391909116146105cc576105a6565b61026e678ac7230489e80000610158565b6100a360043560243560018210806101a7575060ff82115b806103265750610351610146565b61026e600160a060020a033316600090815260016020526040812060048101548214156103a1576103a6565b61026e600435600160a060020a033316600090815260016020526040812060048101548214156103b3576103ad565b6100a3600435600160a060020a033316600090815260016020526040812060048101549091141561045c57610320565b61026e6004355b60ff81165b919050565b61026e60043560408051828152905190819003602001902061024c565b60408051918252519081900360200190f35b6040805160a0810182523480825260208281018681524384860190815260608501878152600060808701818152600160a060020a0333168083526001808852928a90209851895594519188019190915591516002870155516003860155516004949094019390935583519182528101859052825191927ff41b7910e085d0992d604fd470931728fd77cc8eb504d99e50e51a0a30fcfd1a92918290030190a25b5050565b115b1561028057604051600160a060020a03331690600090349082818181858883f1935050505050610320565b61032434846100d5565b600160a060020a0382166000908152600160205260408120600401541461038157610320565b600160a060020a0391909116600090815260016020526040902060040155565b600191505b5090565b91505b50919050565b6040805160038301548582529151908190036020019020146103d4576103ad565b604080516004830154858252602082015281519081900390910190206103aa90610247565b60408051600383015485825291519081900360200190201461041a576103ad565b60408051600183015460048401548683526020830152825191829003909201902061044490610247565b101561045357600191506103ad565b600091506103ad565b60408051600383015484825291519081900360200190201461047d57610320565b6040805160018301546004840154858352602083015282519182900390920190206104a790610247565b10156105245780546001820154600160a060020a033316916000916104cc91906100d5565b6040516000818181858888f15084546001860154908252602082015260408051600160a060020a03331695507ffdc49939175858b2bb557093a7d52fa6b6f3aad917d282d61758fab4805f102a945091829003019150a25b600160a060020a033316600090815260016020819052604082208281559081018290556002810182905560038101829055600401555050565b6040518154600160a060020a033316916000919082818181858883f150505090815260016020819052604082208281559081018290556002810182905560038101829055600401555b50565b8054600090116105b8576105a6565b600281015460140143101561055d576105a6565b60008054604051600160a060020a03919091169190839082818181858883f1505050505050561ba07cb75c744b78a5ac6604e276c2ccc11f5599f0160e840189c0d0c2741b5d70aba05d0d373470442ec0415790f2ae6b7d7c9944adf24ff88b7c6db466a37829cd5e",
      "networkId": 0,
      "chainId": 0
    }
  ]
}