{
  "hash": "0xe46f2504f286cbcb9ea008df1411efe6acf07efe48e298f5d038f05e0060ca14",
  "parentHash": "0x7d336a0f951d44cd59595243c6efc134f11860711bb75293d13352887ebc9d63",
  "number": 103010,
  "timestamp": 1439846425,
  "nonce": "0x563cc25e67c3e403",
  "difficulty": 4148418132236,
  "gasLimit": {
    "_hex": "0x2fefd8"
  },
  "gasUsed": {
    "_hex": "0x5208"
  },
  "miner": "0xe6A7a1d47ff21B6321162AEA7C6CB457D5476Bca",
  "extraData": "0x476574682f76312e302e312d38326566323666362f6c696e75782f676f312e34",
  "transactions": [
    {
      "hash": "0x0f360130bdc609a910c895f19dafb8ce72146f9a1bbedb2e56aaa54bfb49aea0",
      "blockHash": "0xe46f2504f286cbcb9ea008df1411efe6acf07efe48e298f5d038f05e0060ca14",
      "blockNumber": 103010,
      "transactionIndex": 0,
      "confirmations": null,
      "from": "0xb1abce2918E21ddb93AA452731a12672A3d9F75a",
      "gasPrice": {
        "_hex": "0xe004c51b5"
      },
      "gasLimit": {
        "_hex": "0x5208"
      },
      "to": "0x32Be343B94f860124dC4fEe278FDCBD38C102D88",
      "value": {
        "_hex": "0x455f14f8bf643400"
      },
      "nonce": 112,
      "data": "0x",
      "r": "0x156c6581a5000a9860c4760ab3e13504120d66e1087a299bc587f8356ba85af5",
      "s": "0x7e4c1f4795452432beac7c84257493ad30996a898c32a4d4825571be47e147a4",
      "v": 27,
      "creates": null,
      "raw": "0xf86c70850e004c51b58252089432be343b94f860124dc4fee278fdcbd38c102d8888455f14f8bf643400801ba0156c6581a5000a9860c4760ab3e13504120d66e1087a299bc587f8356ba85af5a07e4c1f4795452432beac7c84257493ad30996a898c32a4d4825571be47e147a4",
      "networkId": 0,
      "chainId": 0
    }
  ]
}