{
  "hash": "0x50eb924735c51423fe27b23c233c9878b18b7e38776100a4de0a9ddd736b8782",
  "parentHash": "0xf4c3d955cbdd10913ebd9cc1477d5873c72428815a2a785294fb341fb938bbf0",
  "number": 52671,
  "timestamp": 1439025401,
  "nonce": "0xa392ad4baa7c137f",
  "difficulty": 1569411243185,
  "gasLimit": {
    "_hex": "0x1764c6"
  },
  "gasUsed": {
    "_hex": "0x16e360"
  },
  "miner": "0x123843545FB525C8E134c9A5F15ADA6865cc3848",
  "extraData": "0x476574682f76312e302e312f77696e646f77732f676f312e342e32",
  "transactions": [
    {
      "hash": "0x23d80156c510163d83397181cb28e5b149a84bce339bef66e5db956a5680f54d",
      "blockHash": "0x50eb924735c51423fe27b23c233c9878b18b7e38776100a4de0a9ddd736b8782",
      "blockNumber": 52671,
      "transactionIndex": 0,
      "confirmations": null,
      "from": "0x54dAeb3E8a6BBC797E4aD2b0339f134b186e4637",
      "gasPrice": {
        "_hex": "0xd8bd64e50"
      },
      "gasLimit": {
        "_hex": "0x7a120"
      },
      "to": "0xBAA54d6E90c3F4d7Ebec11bD180134C7eD8eBb52",
      "value": {
        "_hex": "0x16345785d8a0000"
      },
      "nonce": 895,
      "data": "0x",
      "r": "0xa7efc18dce1b529419c8e5327d3f59607ff3aa1528c7017ffc342c394a708e8b",
      "s": "0x18eb7dd58941edbe4d6d7618a8879d465c5881ec7547a29fd83f4ac302dad49a",
      "v": 28,
      "creates": null,
      "raw": "0xf86f82037f850d8bd64e508307a12094baa54d6e90c3f4d7ebec11bd180134c7ed8ebb5288016345785d8a0000801ca0a7efc18dce1b529419c8e5327d3f59607ff3aa1528c7017ffc342c394a708e8ba018eb7dd58941edbe4d6d7618a8879d465c5881ec7547a29fd83f4ac302dad49a",
      "networkId": 0,
      "chainId": 0
    },
    {
      "hash": "0xf293c46cd400bd9388b69bf89ae3626f092d2f588bfe182d3cab22229a7f9beb",
      "blockHash": "0x50eb924735c51423fe27b23c233c9878b18b7e38776100a4de0a9ddd736b8782",
      "blockNumber": 52671,
      "transactionIndex": 1,
      "confirmations": null,
      "from": "0x54dAeb3E8a6BBC797E4aD2b0339f134b186e4637",
      "gasPrice": {
        "_hex": "0xd8bd64e50"
      },
      "gasLimit": {
        "_hex": "0x7a120"
      },
      "to": "0xBAA54d6E90c3F4d7Ebec11bD180134C7eD8eBb52",
      "value": {
        "_hex": "0x16345785d8a0000"
      },
      "nonce": 896,
      "data": "0x",
      "r": "0xe96863e6c8a696cc4b47f7a534f75c909daae2221964f72ff7e87527cd37025d",
      "s": "0x59f807c5c533f452fc17b0dbdf8c0bbb01e03d3748e0fbf52e1ccfdafb49cabf",
      "v": 28,
      "creates": null,
      "raw": "0xf86f820380850d8bd64e508307a12094baa54d6e90c3f4d7ebec11bd180134c7ed8ebb5288016345785d8a0000801ca0e96863e6c8a696cc4b47f7a534f75c909daae2221964f72ff7e87527cd37025da059f807c5c533f452fc17b0dbdf8c0bbb01e03d3748e0fbf52e1ccfdafb49cabf",
      "networkId": 0,
      "chainId": 0
    },
    {
      "hash": "0xf2a3713cfa3c2516b6bb21079b84229cb7120fcff2808cb8aed871ba6ecb4565",
      "blockHash": "0x50eb924735c51423fe27b23c233c9878b18b7e38776100a4de0a9ddd736b8782",
      "blockNumber": 52671,
      "transactionIndex": 2,
      "confirmations": null,
      "from": "0x54dAeb3E8a6BBC797E4aD2b0339f134b186e4637",
      "gasPrice": {
        "_hex": "0xe1780dfbb"
      },
      "gasLimit": {
        "_hex": "0x7a120"
      },
      "to": "0xBAA54d6E90c3F4d7Ebec11bD180134C7eD8eBb52",
      "value": {
        "_hex": "0x16345785d8a0000"
      },
      "nonce": 897,
      "data": "0x",
      "r": "0xe0d0b3355231e044064ac94365b48db3296fe0da1c0047b1a1211837d49b5297",
      "s": "0x6bb6f533d00d8760a2f97c777f2db94881cf1accc436db6450a7f25595f6f062",
      "v": 27,
      "creates": null,
      "raw": "0xf86f820381850e1780dfbb8307a12094baa54d6e90c3f4d7ebec11bd180134c7ed8ebb5288016345785d8a0000801ba0e0d0b3355231e044064ac94365b48db3296fe0da1c0047b1a1211837d49b5297a06bb6f533d00d8760a2f97c777f2db94881cf1accc436db6450a7f25595f6f062",
      "networkId": 0,
      "chainId": 0
    }
  ]
}