{
  "hash": "0xb68cc4446cc6451f36ed6355080f83942e471f6c76d76e83758ed5e22e95901e",
  "parentHash": "0x771449ae1ff2d7f771c92f33dfe50db248083a0ab815d7cc578dc437876b98cb",
  "number": 81993,
  "timestamp": 1439511475,
  "nonce": "0xb03af009ea15e593",
  "difficulty": 2405767996844,
  "gasLimit": {
    "_hex": "0x2fefd8"
  },
  "gasUsed": {
    "_hex": "0x5208"
  },
  "miner": "0xa50ec0D39fa913E62f1Bae7074E6F36caA71855b",
  "extraData": "0xd783010001844765746887676f312e342e32856c696e7578",
  "transactions": [
    {
      "hash": "0xe09538f0759bdb7c52d9d58695f00c795bcb6ee7bb1427dcea82b3d852e6eac7",
      "blockHash": "0xb68cc4446cc6451f36ed6355080f83942e471f6c76d76e83758ed5e22e95901e",
      "blockNumber": 81993,
      "transactionIndex": 0,
      "confirmations": null,
      "from": "0x7Eb9F59f9547E376188eD83EFCD1F6dbF3712eA6",
      "gasPrice": {
        "_hex": "0xdf46728e4"
      },
      "gasLimit": {
        "_hex": "0x15f90"
      },
      "to": "0xAd941B747c499E3ad5728C285446813783A33564",
      "value": {
        "_hex": "0x8ac7230489e80000"
      },
      "nonce": 10,
      "data": "0x",
      "r": "0xeecfc7cf205317038b246ddc517a2f51871b674c606f2b6490f63bdf9b644c7a",
      "s": "0x7b2d6b3423adc02a2c09534e02b4e3a4518a189c725a9317601a6d0a41b5d73b",
      "v": 27,
      "creates": null,
      "raw": "0xf86d0a850df46728e483015f9094ad941b747c499e3ad5728c285446813783a33564888ac7230489e80000801ba0eecfc7cf205317038b246ddc517a2f51871b674c606f2b6490f63bdf9b644c7aa07b2d6b3423adc02a2c09534e02b4e3a4518a189c725a9317601a6d0a41b5d73b",
      "networkId": 0,
      "chainId": 0
    }
  ]
}