{
  "hash": "0xf9843c9471912ce37f0425b456ab4313945b1e452b79a4eec251116a16cb3156",
  "parentHash": "0x8c06abf359612fc985154c0ed9d4f6500e7d263be52728bf6926445a9a87e1d7",
  "number": 70104,
  "timestamp": 1439314704,
  "nonce": "0x9c4ba16265b5543c",
  "difficulty": 2114705081438,
  "gasLimit": {
    "_hex": "0x2fefd8"
  },
  "gasUsed": {
    "_hex": "0x5208"
  },
  "miner": "0x47ff6576639c2e94762eA5443978D7681C0E78DC",
  "extraData": "0x476574682f76312e302e312f6c696e75782f676f312e342e32",
  "transactions": [
    {
      "hash": "0xf9c717f095f874ef6c9f3d33805cf0943cd5bdfd390aebeb9cfcbf5ea2ce34af",
      "blockHash": "0xf9843c9471912ce37f0425b456ab4313945b1e452b79a4eec251116a16cb3156",
      "blockNumber": 70104,
      "transactionIndex": 0,
      "confirmations": null,
      "from": "0xa88eFC608a8ae7fBB5b5F785A0eefC5c41940a21",
      "gasPrice": {
        "_hex": "0xba43b7400"
      },
      "gasLimit": {
        "_hex": "0x5208"
      },
      "to": "0x608F680cB915b87F83f3d369bBbb796D778c6162",
      "value": {
        "_hex": "0x8"
      },
      "nonce": 0,
      "data": "0x",
      "r": "0xcfc1f299fab8b6fbeb8acbab802c57bac12ce4f94852f383813c7996f7c639fc",
      "s": "0x1add60385e06036eb69afb1abec5ce3e940f987b93fd35a095324e621ec665fd",
      "v": 28,
      "creates": null,
      "raw": "0xf86480850ba43b740082520894608f680cb915b87f83f3d369bbbb796d778c616208801ca0cfc1f299fab8b6fbeb8acbab802c57bac12ce4f94852f383813c7996f7c639fca01add60385e06036eb69afb1abec5ce3e940f987b93fd35a095324e621ec665fd",
      "networkId": 0,
      "chainId": 0
    }
  ]
}