{
  "hash": "0x106199662a9405977ec70ffc694c7fdb4893161dbe8c6251b8226bf86a606f75",
  "parentHash": "0xfc801aacd6ec6632faab33758894915fb8a506a22efbfa763a865047709a105b",
  "number": 65070,
  "timestamp": 1439230728,
  "nonce": "0xb1f806234efef8ee",
  "difficulty": 1930383289407,
  "gasLimit": {
    "_hex": "0x2fefd8"
  },
  "gasUsed": {
    "_hex": "0x17cd8"
  },
  "miner": "0xf927a40C8B7F6E07c5af7FA2155B4864a4112B13",
  "extraData": "0x",
  "transactions": [
    {
      "hash": "0x96f388993dc030f74d1b39782ff85a9ea3ca81564c50be4d7ed34bca457e36df",
      "blockHash": "0x106199662a9405977ec70ffc694c7fdb4893161dbe8c6251b8226bf86a606f75",
      "blockNumber": 65070,
      "transactionIndex": 0,
      "confirmations": null,
      "from": "0xa35BFd21Ed7630EAF5a59CEC266842bF4949770a",
      "gasPrice": {
        "_hex": "0xba43b7400"
      },
      "gasLimit": {
        "_hex": "0x15f90"
      },
      "to": "0x793AE8C1b1a160BFc07BFB0d04F85eab1A71F4f2",
      "value": {
        "_hex": "0x0"
      },
      "nonce": 0,
      "data": "0x3ba15036",
      "r": "0xccd606bed3e918f607e3744af437cb63ab1c9f542486b8c089ef6afb1a44a6ab",
      "s": "0x345f8017a4b55a055491c4bdfd72422a3a4f08bb8d12efa7384388a7e4237fe3",
      "v": 28,
      "creates": null,
      "raw": "0xf86980850ba43b740083015f9094793ae8c1b1a160bfc07bfb0d04f85eab1a71f4f280843ba150361ca0ccd606bed3e918f607e3744af437cb63ab1c9f542486b8c089ef6afb1a44a6aba0345f8017a4b55a055491c4bdfd72422a3a4f08bb8d12efa7384388a7e4237fe3",
      "networkId": 0,
      "chainId": 0
    },
    {
      "hash": "0x818f93441b2d1e80bfb5d337861c8cb269f59b861aa35d8fa939c56836cea2c9",
      "blockHash": "0x106199662a9405977ec70ffc694c7fdb4893161dbe8c6251b8226bf86a606f75",
      "blockNumber": 65070,
      "transactionIndex": 1,
      "confirmations": null,
      "from": "0xa663b8C11a69AF9D8B102947153c79B178211881",
      "gasPrice": {
        "_hex": "0xba43b7400"
      },
      "gasLimit": {
        "_hex": "0x15f90"
      },
      "to": "0x793AE8C1b1a160BFc07BFB0d04F85eab1A71F4f2",
      "value": {
        "_hex": "0x0"
      },
      "nonce": 0,
      "data": "0x3ba15036",
      "r": "0x5a5791eda5b75f21a7094dc527c2574a2f59f4205132d471ccaae7c8d9cf1758",
      "s": "0x543a766b0c3dfe33474b23d6eb72c857699b344a5d80a7ee5fa1516f2456bdfd",
      "v": 28,
      "creates": null,
      "raw": "0xf86980850ba43b740083015f9094793ae8c1b1a160bfc07bfb0d04f85eab1a71f4f280843ba150361ca05a5791eda5b75f21a7094dc527c2574a2f59f4205132d471ccaae7c8d9cf1758a0543a766b0c3dfe33474b23d6eb72c857699b344a5d80a7ee5fa1516f2456bdfd",
      "networkId": 0,
      "chainId": 0
    }
  ]
}