{
  "hash": "0x75ae0d71d7afc15da6410edf9bdb752e21563af473cc5c6ab7270fe1cee96ce3",
  "parentHash": "0x6bb864def93bc7f447c92450f78491cd7d19df02b3748b562ae484d917ea698c",
  "number": 71660,
  "timestamp": 1439339715,
  "nonce": "0x7202750ff697a6c8",
  "difficulty": 2183559703827,
  "gasLimit": {
    "_hex": "0x2fefd8"
  },
  "gasUsed": {
    "_hex": "0x546c"
  },
  "miner": "0xe6A7a1d47ff21B6321162AEA7C6CB457D5476Bca",
  "extraData": "0x476574682f76312e302e312d38326566323666362f6c696e75782f676f312e34",
  "transactions": [
    {
      "hash": "0x3a3381d2d382d83fc82a2ff944b948b9b4f6df04efce3aa9afef7e89e8cba931",
      "blockHash": "0x75ae0d71d7afc15da6410edf9bdb752e21563af473cc5c6ab7270fe1cee96ce3",
      "blockNumber": 71660,
      "transactionIndex": 0,
      "confirmations": null,
      "from": "0x335e22025B7A77c3A074c78b8E3dFE071341946E",
      "gasPrice": {
        "_hex": "0x110c8f7d8de"
      },
      "gasLimit": {
        "_hex": "0xc350"
      },
      "to": "0x2910543Af39abA0Cd09dBb2D50200b3E800A63D2",
      "value": {
        "_hex": "0x9a63f08ea63880000"
      },
      "nonce": 1,
      "data": "0x454e34324658504147",
      "r": "0x8904f68289275e5d13e238e96df8f33822f3146655020ffe4e800a7268cf2c54",
      "s": "0x6e1cca13ca00aa8b7a50409f8f9cb6e4f8ab57ac5b1165eba462117cd4447069",
      "v": 28,
      "creates": null,
      "raw": "0xf87701860110c8f7d8de82c350942910543af39aba0cd09dbb2d50200b3e800a63d28909a63f08ea6388000089454e343246585041471ca08904f68289275e5d13e238e96df8f33822f3146655020ffe4e800a7268cf2c54a06e1cca13ca00aa8b7a50409f8f9cb6e4f8ab57ac5b1165eba462117cd4447069",
      "networkId": 0,
      "chainId": 0
    }
  ]
}