{
  "hash": "0x2288c3a91e65b81e91248fa57b13efcd6c2971290cb224003dea515a437b183c",
  "parentHash": "0xc94080d28dd1a04f6c85a9381a2637ae4f22eb08237a2368be6123be6d53ba67",
  "number": 68650,
  "timestamp": 1439291358,
  "nonce": "0xee731cda07fab57c",
  "difficulty": 2022161144760,
  "gasLimit": {
    "_hex": "0x2fefd8"
  },
  "gasUsed": {
    "_hex": "0xae73"
  },
  "miner": "0xe6A7a1d47ff21B6321162AEA7C6CB457D5476Bca",
  "extraData": "0x476574682f76312e302e312d38326566323666362f6c696e75782f676f312e34",
  "transactions": [
    {
      "hash": "0xdb4d173aa436a55fcbb20f892c08fd6751011a7015a74e2668abeaec69c0bec4",
      "blockHash": "0x2288c3a91e65b81e91248fa57b13efcd6c2971290cb224003dea515a437b183c",
      "blockNumber": 68650,
      "transactionIndex": 0,
      "confirmations": null,
      "from": "0x17580B766f7453525ca4C6A88b01b50570EA088C",
      "gasPrice": {
        "_hex": "0xd851ba1a0"
      },
      "gasLimit": {
        "_hex": "0x61a80"
      },
      "to": "0x5Fe5B7546D1628f7348B023A0393de1FC825A4fD",
      "value": {
        "_hex": "0x1bc16d674ec80000"
      },
      "nonce": 54,
      "data": "0xb595b8b50000000000000000000000000000000000000000000000000000000000000000",
      "r": "0x6a6114030d1682e010f05ae3d09c86756e032532ee6d10950d1d65f7e594457f",
      "s": "0x560a7984c8f2faec8415b91d2f95fe45a94c36cd4b38539d6dc197a60c6ae20e",
      "v": 28,
      "creates": null,
      "raw": "0xf89136850d851ba1a083061a80945fe5b7546d1628f7348b023a0393de1fc825a4fd881bc16d674ec80000a4b595b8b500000000000000000000000000000000000000000000000000000000000000001ca06a6114030d1682e010f05ae3d09c86756e032532ee6d10950d1d65f7e594457fa0560a7984c8f2faec8415b91d2f95fe45a94c36cd4b38539d6dc197a60c6ae20e",
      "networkId": 0,
      "chainId": 0
    }
  ]
}