{
  "hash": "0x61e4a6f180a00e72c3e240af68e7ed6dceda79fd7566f4ce8adc67b5c57aebdd",
  "parentHash": "0xe03998e3cc517a3bd485d65509075a198b6b2f1c11344f6c90de10209aa6d077",
  "number": 93582,
  "timestamp": 1439693694,
  "nonce": "0xd671237c3803e293",
  "difficulty": 3463260043443,
  "gasLimit": {
    "_hex": "0x2fefd8"
  },
  "gasUsed": {
    "_hex": "0xf618"
  },
  "miner": "0xEF247E639d49461D25F57e9362CadE3120910Ce0",
  "extraData": "0x476574682f76312e302e312f6c696e75782f676f312e342e32",
  "transactions": [
    {
      "hash": "0x026aa22d139f8f2c157c7931b9f7845514b5bd410346f7cc843a95c47b9eefe6",
      "blockHash": "0x61e4a6f180a00e72c3e240af68e7ed6dceda79fd7566f4ce8adc67b5c57aebdd",
      "blockNumber": 93582,
      "transactionIndex": 0,
      "confirmations": null,
      "from": "0x0D123Cb78ef69F3189d4b5bD0b091e79EF0Ce877",
      "gasPrice": {
        "_hex": "0xd2a01867d"
      },
      "gasLimit": {
        "_hex": "0x5208"
      },
      "to": "0x32Be343B94f860124dC4fEe278FDCBD38C102D88",
      "value": {
        "_hex": "0xc4e976cc1aa6c00"
      },
      "nonce": 0,
      "data": "0x",
      "r": "0xac5871f483584c53ec17de8e5521900479a92b485f3327e2d8e4d74d7d20d682",
      "s": "0x47cd88fb3d3130abd20c8596c0844ec6c30e48189337763dd81e25bef4708acd",
      "v": 28,
      "creates": null,
      "raw": "0xf86c80850d2a01867d8252089432be343b94f860124dc4fee278fdcbd38c102d88880c4e976cc1aa6c00801ca0ac5871f483584c53ec17de8e5521900479a92b485f3327e2d8e4d74d7d20d682a047cd88fb3d3130abd20c8596c0844ec6c30e48189337763dd81e25bef4708acd",
      "networkId": 0,
      "chainId": 0
    },
    {
      "hash": "0x2d1c41a9f673706ca757a53c2ae7b9c2bf2619c3ac5a4ffbe6f3628c7f18193f",
      "blockHash": "0x61e4a6f180a00e72c3e240af68e7ed6dceda79fd7566f4ce8adc67b5c57aebdd",
      "blockNumber": 93582,
      "transactionIndex": 1,
      "confirmations": null,
      "from": "0x32Be343B94f860124dC4fEe278FDCBD38C102D88",
      "gasPrice": {
        "_hex": "0xd2a01867d"
      },
      "gasLimit": {
        "_hex": "0x5208"
      },
      "to": "0xc93a69dFC0fb3E867D9207599f7fe87d51619635",
      "value": {
        "_hex": "0x56ba3d73af34f0000"
      },
      "nonce": 927,
      "data": "0x",
      "r": "0x3f68887594c4cc1bf590fe6fe5942d231f04cc7e0fbb8ce04a42a25a2daccc9e",
      "s": "0x17b2843e70373c7af2d17dc23c36c175aef061f8d4e869716a6fc142a6a62239",
      "v": 28,
      "creates": null,
      "raw": "0xf86f82039f850d2a01867d82520894c93a69dfc0fb3e867d9207599f7fe87d5161963589056ba3d73af34f0000801ca03f68887594c4cc1bf590fe6fe5942d231f04cc7e0fbb8ce04a42a25a2daccc9ea017b2843e70373c7af2d17dc23c36c175aef061f8d4e869716a6fc142a6a62239",
      "networkId": 0,
      "chainId": 0
    },
    {
      "hash": "0x3743a36a7bf3749c8c51522628bc6c9018ea8534995f9bc6718221146742b1f0",
      "blockHash": "0x61e4a6f180a00e72c3e240af68e7ed6dceda79fd7566f4ce8adc67b5c57aebdd",
      "blockNumber": 93582,
      "transactionIndex": 2,
      "confirmations": null,
      "from": "0xE12517204a15E890f12755207271102F4800A0c4",
      "gasPrice": {
        "_hex": "0xd2a01867d"
      },
      "gasLimit": {
        "_hex": "0x5208"
      },
      "to": "0x32Be343B94f860124dC4fEe278FDCBD38C102D88",
      "value": {
        "_hex": "0x56bc3264e942e8000"
      },
      "nonce": 12,
      "data": "0x",
      "r": "0x18ab73ccea0a7f83cff340abe92325b4af80c7ed3f54a43af84458c083333050",
      "s": "0x1d228ca5e78aedb65b2c29ebe9d4af461b03b98ccc651beab87f315684fe6edf",
      "v": 27,
      "creates": null,
      "raw": "0xf86d0c850d2a01867d8252089432be343b94f860124dc4fee278fdcbd38c102d8889056bc3264e942e8000801ba018ab73ccea0a7f83cff340abe92325b4af80c7ed3f54a43af84458c083333050a01d228ca5e78aedb65b2c29ebe9d4af461b03b98ccc651beab87f315684fe6edf",
      "networkId": 0,
      "chainId": 0
    }
  ]
}