{
  "hash": "0x4e550817a7ca8a0af8a05bce04b5a45a539e7e5451677d49f1c0b1ac6d012f79",
  "parentHash": "0xff21907a90803cdb4d50270c34d19fe15c9cc8b013be00639bafa050711075e0",
  "number": 104264,
  "timestamp": 1439866998,
  "nonce": "0xff68589217a7819a",
  "difficulty": 4266944148288,
  "gasLimit": {
    "_hex": "0x2fefd8"
  },
  "gasUsed": {
    "_hex": "0x5208"
  },
  "miner": "0x443A9e9efD2aD22b1055BB06d1a6B45C400D5A45",
  "extraData": "0x",
  "transactions": [
    {
      "hash": "0x3fb22871571a37b9359a71902bfafcc1c97b6eca3e162e5dd2fd716356d7b838",
      "blockHash": "0x4e550817a7ca8a0af8a05bce04b5a45a539e7e5451677d49f1c0b1ac6d012f79",
      "blockNumber": 104264,
      "transactionIndex": 0,
      "confirmations": null,
      "from": "0xfCCD0D1eCEE27ADDEa95f6857aeeC8c7A04b28ee",
      "gasPrice": {
        "_hex": "0xd8903a2ca"
      },
      "gasLimit": {
        "_hex": "0x15f90"
      },
      "to": "0xc77C9c7861CafaAb94ecb5Ea05f8AEf6216Da4d2",
      "value": {
        "_hex": "0x10f0cf064dd59200000"
      },
      "nonce": 1,
      "data": "0x",
      "r": "0x7b8dd175a01f47eec1d92bcfc18bcf1b7b23a29faa183b2af01cbcd661f7a7a8",
      "s": "0x5eef30aed8040d06b19bc905fb1aca635b9265fc170886ba5fd50456a30ac07b",
      "v": 28,
      "creates": null,
      "raw": "0xf86f01850d8903a2ca83015f9094c77c9c7861cafaab94ecb5ea05f8aef6216da4d28a010f0cf064dd59200000801ca07b8dd175a01f47eec1d92bcfc18bcf1b7b23a29faa183b2af01cbcd661f7a7a8a05eef30aed8040d06b19bc905fb1aca635b9265fc170886ba5fd50456a30ac07b",
      "networkId": 0,
      "chainId": 0
    }
  ]
}