{
  "hash": "0xdcd95b90ce6997c727857996db9a83f7c912f883a740d54ebd059282cfe4af7f",
  "parentHash": "0x6779b7655c701e34c223666de66e8e851acfde3f2443cf4e9579f49797b2c7ec",
  "number": 48575,
  "timestamp": 1438959225,
  "nonce": "0x05a18d8c84fa37cf",
  "difficulty": 1469294819057,
  "gasLimit": {
    "_hex": "0x19bca"
  },
  "gasUsed": {
    "_hex": "0x5208"
  },
  "miner": "0xeB1325C8D9d3ea8D74aC11F4B00F1B2367686319",
  "extraData": "0x476574682f76312e302e312f77696e646f77732f676f312e342e32",
  "transactions": [
    {
      "hash": "0x0b78ba41214894f23e63265316f28e6fc7c1b375e4fee63e2f036ca13dfd499e",
      "blockHash": "0xdcd95b90ce6997c727857996db9a83f7c912f883a740d54ebd059282cfe4af7f",
      "blockNumber": 48575,
      "transactionIndex": 0,
      "confirmations": null,
      "from": "0x5b287c7E734299e727626F93FB1187A60d5057fE",
      "gasPrice": {
        "_hex": "0x1142f703db0"
      },
      "gasLimit": {
        "_hex": "0x15f90"
      },
      "to": "0xca27A415D8B5B925BdB0e27FA1448B3b20F273aB",
      "value": {
        "_hex": "0x4563918244f40000"
      },
      "nonce": 1,
      "data": "0x",
      "r": "0x48ff6e8d8aa6e68bd00924cc8a227396b54f4da92b518bcc303d5ec223997b8d",
      "s": "0x7b60173aa2258c8e5a1ab45f8066a79b1917072ad9afc0c0f51dd3943c103887",
      "v": 28,
      "creates": null,
      "raw": "0xf86e018601142f703db083015f9094ca27a415d8b5b925bdb0e27fa1448b3b20f273ab884563918244f40000801ca048ff6e8d8aa6e68bd00924cc8a227396b54f4da92b518bcc303d5ec223997b8da07b60173aa2258c8e5a1ab45f8066a79b1917072ad9afc0c0f51dd3943c103887",
      "networkId": 0,
      "chainId": 0
    }
  ]
}