{
  "hash": "0x1bc5932da2a15bd38c6a29e00d845a866e96e4a8ef6c189ce65ec534131b810d",
  "parentHash": "0x8964127272c05a05bf7e14eb0dd307d1704e2b295c95e971be85b69c853b5c1d",
  "number": 67449,
  "timestamp": 1439272323,
  "nonce": "0xbcef1f6c8c09e337",
  "difficulty": 1919498368782,
  "gasLimit": {
    "_hex": "0x2fefd8"
  },
  "gasUsed": {
    "_hex": "0xa410"
  },
  "miner": "0x66c564ACCCfd1470EE32bE2aCaE1696558C18fE1",
  "extraData": "0x476574682f76312e302e312f6c696e75782f676f312e34",
  "transactions": [
    {
      "hash": "0x58664e1bda7bd39451dfb29843ca095f6f3926ae406d91096a2cf88d09b1165f",
      "blockHash": "0x1bc5932da2a15bd38c6a29e00d845a866e96e4a8ef6c189ce65ec534131b810d",
      "blockNumber": 67449,
      "transactionIndex": 0,
      "confirmations": null,
      "from": "0xF7e66D2622220807d8696064E94ca24b1dC6e7Da",
      "gasPrice": {
        "_hex": "0xe14aeee78"
      },
      "gasLimit": {
        "_hex": "0x5208"
      },
      "to": "0x32Be343B94f860124dC4fEe278FDCBD38C102D88",
      "value": {
        "_hex": "0x455f0e71060abc00"
      },
      "nonce": 8,
      "data": "0x",
      "r": "0x67b13a2849512aca42960127d4066e9774c3b5311cce24a1e0dcc442fd3d6b68",
      "s": "0x3f4ec1353a6cb46b7c89084ff7cd6c2e44fcdff12df5cc13d049fb599b04745f",
      "v": 28,
      "creates": null,
      "raw": "0xf86c08850e14aeee788252089432be343b94f860124dc4fee278fdcbd38c102d8888455f0e71060abc00801ca067b13a2849512aca42960127d4066e9774c3b5311cce24a1e0dcc442fd3d6b68a03f4ec1353a6cb46b7c89084ff7cd6c2e44fcdff12df5cc13d049fb599b04745f",
      "networkId": 0,
      "chainId": 0
    },
    {
      "hash": "0xc4d3c9620abbde52144043180bd913a05fd4db552ee988470c690541b64cdd15",
      "blockHash": "0x1bc5932da2a15bd38c6a29e00d845a866e96e4a8ef6c189ce65ec534131b810d",
      "blockNumber": 67449,
      "transactionIndex": 1,
      "confirmations": null,
      "from": "0xAD063CE182014Fa78C3932981fE402a6Af48235B",
      "gasPrice": {
        "_hex": "0xdf30d37ad"
      },
      "gasLimit": {
        "_hex": "0x5208"
      },
      "to": "0x32Be343B94f860124dC4fEe278FDCBD38C102D88",
      "value": {
        "_hex": "0x45a8961dee42f000"
      },
      "nonce": 3,
      "data": "0x",
      "r": "0xdedff36a5f76bdb59792b5af047e78659f82028ee8927c4d0c397b5cef0d1bab",
      "s": "0x4c37222c8c0e0effa1e452d5263e3145dd854ff1dfcc2a22a36e6890af076c61",
      "v": 27,
      "creates": null,
      "raw": "0xf86c03850df30d37ad8252089432be343b94f860124dc4fee278fdcbd38c102d888845a8961dee42f000801ba0dedff36a5f76bdb59792b5af047e78659f82028ee8927c4d0c397b5cef0d1baba04c37222c8c0e0effa1e452d5263e3145dd854ff1dfcc2a22a36e6890af076c61",
      "networkId": 0,
      "chainId": 0
    }
  ]
}