{
  "hash": "0xfaf7ee0862dc0766456c817d2e0bb90a84bc85274fe85c8a0207bb7a183870f2",
  "parentHash": "0x8d47b6dfdb257a8951797291f76923f8da98c180ebff164b9ca624672dae3a74",
  "number": 84762,
  "timestamp": 1439554248,
  "nonce": "0xe77105eeed4776f7",
  "difficulty": 2624633969383,
  "gasLimit": {
    "_hex": "0x2fefd8"
  },
  "gasUsed": {
    "_hex": "0x6819"
  },
  "miner": "0xf927a40C8B7F6E07c5af7FA2155B4864a4112B13",
  "extraData": "0x",
  "transactions": [
    {
      "hash": "0xca3108565e219ccaf18cdc61844bda2bac25c1a164af79d5fe7a31abd3b06cf7",
      "blockHash": "0xfaf7ee0862dc0766456c817d2e0bb90a84bc85274fe85c8a0207bb7a183870f2",
      "blockNumber": 84762,
      "transactionIndex": 0,
      "confirmations": null,
      "from": "0xC4c6bAF00209a0f33331e4B7cb1c7B680A3d2F79",
      "gasPrice": {
        "_hex": "0xd84579552"
      },
      "gasLimit": {
        "_hex": "0x15f90"
      },
      "to": "0xa1A111bc074c9cfa781F0C38e63bD51c91b8af00",
      "value": {
        "_hex": "0x0"
      },
      "nonce": 6,
      "data": "0x201745d559554e4200000000000000000000000000000000000000000000000000000000000000000000000000000000c4c6baf00209a0f33331e4b7cb1c7b680a3d2f79",
      "r": "0x6d411211b6869df3402d965bb641d67449a89809a28371462fe78928a0c175de",
      "s": "0x371eec43c91dc951af19f37b15583013d521070788aea8c20ef413041ca6de87",
      "v": 28,
      "creates": null,
      "raw": "0xf8aa06850d8457955283015f9094a1a111bc074c9cfa781f0c38e63bd51c91b8af0080b844201745d559554e4200000000000000000000000000000000000000000000000000000000000000000000000000000000c4c6baf00209a0f33331e4b7cb1c7b680a3d2f791ca06d411211b6869df3402d965bb641d67449a89809a28371462fe78928a0c175dea0371eec43c91dc951af19f37b15583013d521070788aea8c20ef413041ca6de87",
      "networkId": 0,
      "chainId": 0
    }
  ]
}