{
  "hash": "0xe0dd62a8d37650d038cc51ba0e322fd78894dfb60a451500845792fdffc77b34",
  "parentHash": "0x2fc85117b7b96e79996a5cfce3d356beedc0f015d9fa6a0600311e0ade4f613d",
  "number": 52567,
  "timestamp": 1439023695,
  "nonce": "0x8b99b4c73b72fa11",
  "difficulty": 1566368397429,
  "gasLimit": {
    "_hex": "0x158e75"
  },
  "gasUsed": {
    "_hex": "0xf9448"
  },
  "miner": "0xEF247E639d49461D25F57e9362CadE3120910Ce0",
  "extraData": "0x476574682f76312e302e312f6c696e75782f676f312e342e32",
  "transactions": [
    {
      "hash": "0x88e637b03ed1ec3018c732acc4864ef7bbfa92e33288f12a760739ec65ed8017",
      "blockHash": "0xe0dd62a8d37650d038cc51ba0e322fd78894dfb60a451500845792fdffc77b34",
      "blockNumber": 52567,
      "transactionIndex": 0,
      "confirmations": null,
      "from": "0x1908dA5B6FA3132dEc867Ec6A74DdB252292107D",
      "gasPrice": {
        "_hex": "0x746a528800"
      },
      "gasLimit": {
        "_hex": "0x5b04"
      },
      "to": "0x3234d29E2390E0Ac637B3ad0ACA3dF88aC82dC5d",
      "value": {
        "_hex": "0x4328e9ec21e7f0000"
      },
      "nonce": 2,
      "data": "0x",
      "r": "0xcb5e92c091d2ac41ca12f5c15b79f1d949278be3ecf0af9285c1b47abf1ca104",
      "s": "0x2e4d0e6c68bf54c14a576783e85292018504b64ccd2847f1bdff825619825658",
      "v": 28,
      "creates": null,
      "raw": "0xf86d0285746a528800825b04943234d29e2390e0ac637b3ad0aca3df88ac82dc5d8904328e9ec21e7f0000801ca0cb5e92c091d2ac41ca12f5c15b79f1d949278be3ecf0af9285c1b47abf1ca104a02e4d0e6c68bf54c14a576783e85292018504b64ccd2847f1bdff825619825658",
      "networkId": 0,
      "chainId": 0
    },
    {
      "hash": "0x586f94b91f625e9da1789daf480023a9e8352f9156e69ede61aea16a86343205",
      "blockHash": "0xe0dd62a8d37650d038cc51ba0e322fd78894dfb60a451500845792fdffc77b34",
      "blockNumber": 52567,
      "transactionIndex": 1,
      "confirmations": null,
      "from": "0x54dAeb3E8a6BBC797E4aD2b0339f134b186e4637",
      "gasPrice": {
        "_hex": "0xe7d27df17"
      },
      "gasLimit": {
        "_hex": "0x7a120"
      },
      "to": "0xBAA54d6E90c3F4d7Ebec11bD180134C7eD8eBb52",
      "value": {
        "_hex": "0x16345785d8a0000"
      },
      "nonce": 732,
      "data": "0x",
      "r": "0xcef76d650772fc717ce5a489f10c57552a41f098f96f4b2dcdffca617ac44920",
      "s": "0x7edb3d3ff57410034e255783a91d0d3c004d0de8d488b2ab70d13cb25ffd3b63",
      "v": 28,
      "creates": null,
      "raw": "0xf86f8202dc850e7d27df178307a12094baa54d6e90c3f4d7ebec11bd180134c7ed8ebb5288016345785d8a0000801ca0cef76d650772fc717ce5a489f10c57552a41f098f96f4b2dcdffca617ac44920a07edb3d3ff57410034e255783a91d0d3c004d0de8d488b2ab70d13cb25ffd3b63",
      "networkId": 0,
      "chainId": 0
    },
    {
      "hash": "0xfb890fd7ec363441d5a4a456395d1008c7a2f339b7a38a44b12ea80a0a3e115d",
      "blockHash": "0xe0dd62a8d37650d038cc51ba0e322fd78894dfb60a451500845792fdffc77b34",
      "blockNumber": 52567,
      "transactionIndex": 2,
      "confirmations": null,
      "from": "0x54dAeb3E8a6BBC797E4aD2b0339f134b186e4637",
      "gasPrice": {
        "_hex": "0xe7d27df17"
      },
      "gasLimit": {
        "_hex": "0x7a120"
      },
      "to": "0xBAA54d6E90c3F4d7Ebec11bD180134C7eD8eBb52",
      "value": {
        "_hex": "0x16345785d8a0000"
      },
      "nonce": 733,
      "data": "0x",
      "r": "0xd3ab6bc74b02d93fc3de9692021f95d65b1509f5f657b7319c80a27ea1d75f90",
      "s": "0x6ffcf18f5d62ac48988f2432ab4b0d5716ecd6290fad6edc680cd4a9add7c4b0",
      "v": 27,
      "creates": null,
      "raw": "0xf86f8202dd850e7d27df178307a12094baa54d6e90c3f4d7ebec11bd180134c7ed8ebb5288016345785d8a0000801ba0d3ab6bc74b02d93fc3de9692021f95d65b1509f5f657b7319c80a27ea1d75f90a06ffcf18f5d62ac48988f2432ab4b0d5716ecd6290fad6edc680cd4a9add7c4b0",
      "networkId": 0,
      "chainId": 0
    }
  ]
}