{
  "hash": "0xe4f2d755045b7bb725fcc9d2a7ec98ff1d97841fd576922c5f8b2dd2dee01889",
  "parentHash": "0x4c8004cc37046967153c0171352138bc1c85ec789233af64eea9b48a499359e1",
  "number": 113037,
  "timestamp": 1440016990,
  "nonce": "0x4dc0fce10abfcc42",
  "difficulty": 4469226614155,
  "gasLimit": {
    "_hex": "0x2fefd8"
  },
  "gasUsed": {
    "_hex": "0x5208"
  },
  "miner": "0x7eD2359220bC2A40b70C40350EcAb732B39c0eF4",
  "extraData": "0x",
  "transactions": [
    {
      "hash": "0x8d44258188106735554f31fa10134e297d0955243959e531cb0276649c4a8fc1",
      "blockHash": "0xe4f2d755045b7bb725fcc9d2a7ec98ff1d97841fd576922c5f8b2dd2dee01889",
      "blockNumber": 113037,
      "transactionIndex": 0,
      "confirmations": null,
      "from": "0x8fF999b381882De74E57Eea693a64a3C678c29A0",
      "gasPrice": {
        "_hex": "0xba43b7400"
      },
      "gasLimit": {
        "_hex": "0x9965e"
      },
      "to": "0x6810E965Ce6adBe4f06A126b5e809C3593219c61",
      "value": {
        "_hex": "0x3782dace9d900000"
      },
      "nonce": 0,
      "data": "0x",
      "r": "0xe464b386d2a5292c249cfd89bc6e0905b2949effee782a88465bfadbaf9909d2",
      "s": "0x2c05574ebcc8fb7848d2d973c26162393d80ec5fdbcf2e038453efb2a02ad362",
      "v": 28,
      "creates": null,
      "raw": "0xf86d80850ba43b74008309965e946810e965ce6adbe4f06a126b5e809c3593219c61883782dace9d900000801ca0e464b386d2a5292c249cfd89bc6e0905b2949effee782a88465bfadbaf9909d2a02c05574ebcc8fb7848d2d973c26162393d80ec5fdbcf2e038453efb2a02ad362",
      "networkId": 0,
      "chainId": 0
    }
  ]
}