{
  "hash": "0x644f32f790a1702dc71f20a4258d9f3ae98a38c1f3ce54f775454fe5f1ab1ae0",
  "parentHash": "0xfc786f151da17d6bbd2d364b8553d23fbeb5f2280176d86b9217661d8f0a8450",
  "number": 48247,
  "timestamp": 1438954123,
  "nonce": "0x6db56c8c7ad75545",
  "difficulty": 1455072962831,
  "gasLimit": {
    "_hex": "0x14478"
  },
  "gasUsed": {
    "_hex": "0xf87c"
  },
  "miner": "0x74016F15e9262E1fAb078146a4002ACc513AfEf0",
  "extraData": "0x476574682f76312e302e312f6c696e75782f676f312e342e32",
  "transactions": [
    {
      "hash": "0x3e427b29491d16e16af5d6bdaba584a52840d6f087a3bd19822fba7cf56e6a1e",
      "blockHash": "0x644f32f790a1702dc71f20a4258d9f3ae98a38c1f3ce54f775454fe5f1ab1ae0",
      "blockNumber": 48247,
      "transactionIndex": 0,
      "confirmations": null,
      "from": "0x1b8BD6d2eCa20185A78E7d98E8e185678DAc4830",
      "gasPrice": {
        "_hex": "0xdcdfce267"
      },
      "gasLimit": {
        "_hex": "0x61a8"
      },
      "to": "0x2910543Af39abA0Cd09dBb2D50200b3E800A63D2",
      "value": {
        "_hex": "0xde0b6b3a7640000"
      },
      "nonce": 0,
      "data": "0x454e34425732313538",
      "r": "0xa58aff2ab36a69066537295f051b6c384ac511b3ca60874824c2e79ba988aece",
      "s": "0x04c6ac41bd778eb70bbcf0f8fbd4b569ac0ae5a5ad87cc9b7ae09eec9f9b64e4",
      "v": 27,
      "creates": null,
      "raw": "0xf87580850dcdfce2678261a8942910543af39aba0cd09dbb2d50200b3e800a63d2880de0b6b3a764000089454e344257323135381ba0a58aff2ab36a69066537295f051b6c384ac511b3ca60874824c2e79ba988aecea004c6ac41bd778eb70bbcf0f8fbd4b569ac0ae5a5ad87cc9b7ae09eec9f9b64e4",
      "networkId": 0,
      "chainId": 0
    },
    {
      "hash": "0x8414ddc9d08b4d487f6f829b5f02b1eaed45bf96ca7c0fba4d35d078f3129b38",
      "blockHash": "0x644f32f790a1702dc71f20a4258d9f3ae98a38c1f3ce54f775454fe5f1ab1ae0",
      "blockNumber": 48247,
      "transactionIndex": 1,
      "confirmations": null,
      "from": "0xD2c15be6348756F691bb98F60dFebE61E6bE3B56",
      "gasPrice": {
        "_hex": "0xd0b976a58"
      },
      "gasLimit": {
        "_hex": "0x5208"
      },
      "to": "0x32Be343B94f860124dC4fEe278FDCBD38C102D88",
      "value": {
        "_hex": "0x1b1ae0a8c412390000"
      },
      "nonce": 1,
      "data": "0x",
      "r": "0xf133875bca8ee91a3adda63d229dd5674a0c9ff00103464d744498b4ea3a191f",
      "s": "0x17931207af3ec2006323ddea42b6b0effcd766b1be7ee8e56a9145d24d689882",
      "v": 27,
      "creates": null,
      "raw": "0xf86d01850d0b976a588252089432be343b94f860124dc4fee278fdcbd38c102d88891b1ae0a8c412390000801ba0f133875bca8ee91a3adda63d229dd5674a0c9ff00103464d744498b4ea3a191fa017931207af3ec2006323ddea42b6b0effcd766b1be7ee8e56a9145d24d689882",
      "networkId": 0,
      "chainId": 0
    },
    {
      "hash": "0xa40997def566552b54e960ffd7fe5aaf61bd91323519a96fc15bd2aa06754347",
      "blockHash": "0x644f32f790a1702dc71f20a4258d9f3ae98a38c1f3ce54f775454fe5f1ab1ae0",
      "blockNumber": 48247,
      "transactionIndex": 2,
      "confirmations": null,
      "from": "0x6De181Fc4C140FA31F196e5393516c49EEeBdAd3",
      "gasPrice": {
        "_hex": "0xd0b976a58"
      },
      "gasLimit": {
        "_hex": "0x5208"
      },
      "to": "0x32Be343B94f860124dC4fEe278FDCBD38C102D88",
      "value": {
        "_hex": "0xddc8894ca4d2c00"
      },
      "nonce": 0,
      "data": "0x",
      "r": "0xb8a04800c6ef8624919fd4d9834d4f66bc5282781bb2431980b5b57393d1a2e1",
      "s": "0x53a1d5fc48f9de748c9400f1bfb9daeeed8f8e8c4a9689d66cd5f411d7838d4f",
      "v": 27,
      "creates": null,
      "raw": "0xf86c80850d0b976a588252089432be343b94f860124dc4fee278fdcbd38c102d88880ddc8894ca4d2c00801ba0b8a04800c6ef8624919fd4d9834d4f66bc5282781bb2431980b5b57393d1a2e1a053a1d5fc48f9de748c9400f1bfb9daeeed8f8e8c4a9689d66cd5f411d7838d4f",
      "networkId": 0,
      "chainId": 0
    }
  ]
}