{
  "hash": "0xe66c0ae73112c12192b023697be62c9e5d879fb2fd4c963e73c3ec143e16558b",
  "parentHash": "0x3eee2d3f8d623a02ac3fd1aadcd1ef421570d56c5e6b8f8561cfbbfa8791bd38",
  "number": 77478,
  "timestamp": 1439437965,
  "nonce": "0x2b36b8829c82c757",
  "difficulty": 2235974031548,
  "gasLimit": {
    "_hex": "0x2fefd8"
  },
  "gasUsed": {
    "_hex": "0x5208"
  },
  "miner": "0xF96ffEd8e5116236F560026Ae3658EE0f4eBd622",
  "extraData": "0x476574682f76312e302e312f77696e646f77732f676f312e342e32",
  "transactions": [
    {
      "hash": "0xeedfd5a0c256aa12539c9183d3dabf6ddfe59861892551b5a06359efe37527af",
      "blockHash": "0xe66c0ae73112c12192b023697be62c9e5d879fb2fd4c963e73c3ec143e16558b",
      "blockNumber": 77478,
      "transactionIndex": 0,
      "confirmations": null,
      "from": "0x24C0B9E42a508F3cB1A66c03dEf2Baf4c4555a89",
      "gasPrice": {
        "_hex": "0xdb1c53529"
      },
      "gasLimit": {
        "_hex": "0x5208"
      },
      "to": "0x32Be343B94f860124dC4fEe278FDCBD38C102D88",
      "value": {
        "_hex": "0x6927fa143091fc0000"
      },
      "nonce": 3,
      "data": "0x",
      "r": "0xf092d67b32030535f10d3f941a75b30787dd2c21c347c26dc330abffb81773ac",
      "s": "0x35631022aebaed3d526c25e3c036723107b6dfdd6d0321fb9761a1b794feccf1",
      "v": 27,
      "creates": null,
      "raw": "0xf86d03850db1c535298252089432be343b94f860124dc4fee278fdcbd38c102d88896927fa143091fc0000801ba0f092d67b32030535f10d3f941a75b30787dd2c21c347c26dc330abffb81773aca035631022aebaed3d526c25e3c036723107b6dfdd6d0321fb9761a1b794feccf1",
      "networkId": 0,
      "chainId": 0
    }
  ]
}