{
  "hash": "0x2dbae8c1d8a43199b08e15c3f8c3e66b283a06a177ff52d90d3b7c03014a23c6",
  "parentHash": "0xd5dd4e4dfca229280e5cf21b7f7a289f99aa4e9b1ce8856f6efdff970a9e279f",
  "number": 108312,
  "timestamp": 1439938138,
  "nonce": "0x14dee15838f614dc",
  "difficulty": 4357505376876,
  "gasLimit": {
    "_hex": "0x2fefd8"
  },
  "gasUsed": {
    "_hex": "0x22736"
  },
  "miner": "0xf8E0CA3Ed80bd541b94BEdCf259e8CF2141A9523",
  "extraData": "0x476574682f76312e302e312f77696e646f77732f676f312e342e32",
  "transactions": [
    {
      "hash": "0xff9ef224f95611318850d9bb633a3a4629d601bbc7af93e2ffa1f079be2c64e3",
      "blockHash": "0x2dbae8c1d8a43199b08e15c3f8c3e66b283a06a177ff52d90d3b7c03014a23c6",
      "blockNumber": 108312,
      "transactionIndex": 0,
      "confirmations": null,
      "from": "0xf32866D5cE9a9b5673e076be48AbCd6ED48ADe78",
      "gasPrice": {
        "_hex": "0xcbde51680"
      },
      "gasLimit": {
        "_hex": "0x249f0"
      },
      "to": "0xE28e72FCf78647ADCe1F1252F240bbfaebD63BcC",
      "value": {
        "_hex": "0x6c6b935b8bbd400000"
      },
      "nonce": 2,
      "data": "0x45466f3a",
      "r": "0x225174389dd8141a9809af98aa4799a71614cd54d25191c589bf8e55c5827b99",
      "s": "0x436c2f86a27581c10b18b31a18f52295fa3d3501ed8bc26f3d83136f5b001b93",
      "v": 27,
      "creates": null,
      "raw": "0xf87202850cbde51680830249f094e28e72fcf78647adce1f1252f240bbfaebd63bcc896c6b935b8bbd4000008445466f3a1ba0225174389dd8141a9809af98aa4799a71614cd54d25191c589bf8e55c5827b99a0436c2f86a27581c10b18b31a18f52295fa3d3501ed8bc26f3d83136f5b001b93",
      "networkId": 0,
      "chainId": 0
    },
    {
      "hash": "0x1fab2c0a3f4376fff7fec85bec3de2af138b8e69a5bb7ae8090bb49048ad5247",
      "blockHash": "0x2dbae8c1d8a43199b08e15c3f8c3e66b283a06a177ff52d90d3b7c03014a23c6",
      "blockNumber": 108312,
      "transactionIndex": 1,
      "confirmations": null,
      "from": "0x569dD5Eb83f3CEc4AD32BbCF28b0d07A98704105",
      "gasPrice": {
        "_hex": "0xcb6873017"
      },
      "gasLimit": {
        "_hex": "0x5208"
      },
      "to": "0x32Be343B94f860124dC4fEe278FDCBD38C102D88",
      "value": {
        "_hex": "0x9050319aad424000"
      },
      "nonce": 1,
      "data": "0x",
      "r": "0x1a6ce3e40b7069272bc8e5f2bf6560a78b1e43a7dccfd357328c3a3525a41a4c",
      "s": "0x0e75b323e741fde8ed80900e028655982a5c4d8b117685c63a342b80d55c3fdb",
      "v": 28,
      "creates": null,
      "raw": "0xf86c01850cb68730178252089432be343b94f860124dc4fee278fdcbd38c102d88889050319aad424000801ca01a6ce3e40b7069272bc8e5f2bf6560a78b1e43a7dccfd357328c3a3525a41a4ca00e75b323e741fde8ed80900e028655982a5c4d8b117685c63a342b80d55c3fdb",
      "networkId": 0,
      "chainId": 0
    },
    {
      "hash": "0xe8a93d6cdfa7c6545ef1a1e2cdcc047c162d91e10033f9938fcfcecb7e855075",
      "blockHash": "0x2dbae8c1d8a43199b08e15c3f8c3e66b283a06a177ff52d90d3b7c03014a23c6",
      "blockNumber": 108312,
      "transactionIndex": 2,
      "confirmations": null,
      "from": "0x6De181Fc4C140FA31F196e5393516c49EEeBdAd3",
      "gasPrice": {
        "_hex": "0xcb6873017"
      },
      "gasLimit": {
        "_hex": "0x5208"
      },
      "to": "0x32Be343B94f860124dC4fEe278FDCBD38C102D88",
      "value": {
        "_hex": "0x171d3ca661ccc9000"
      },
      "nonce": 22,
      "data": "0x",
      "r": "0x849e6c4868aafa88c443056da00218b70f261d02da0620d773cb87066c639d7a",
      "s": "0x70a3a4e65e917abe4673fb354eef1853e6af5509efb1209f968f3dd6d4a3f174",
      "v": 27,
      "creates": null,
      "raw": "0xf86d16850cb68730178252089432be343b94f860124dc4fee278fdcbd38c102d88890171d3ca661ccc9000801ba0849e6c4868aafa88c443056da00218b70f261d02da0620d773cb87066c639d7aa070a3a4e65e917abe4673fb354eef1853e6af5509efb1209f968f3dd6d4a3f174",
      "networkId": 0,
      "chainId": 0
    }
  ]
}