{
  "hash": "0x8864a0b9c7fbcee9a4e1b8e83e7d9599397fbd477dc8f41fa222fc38317067a6",
  "parentHash": "0x3b129fc2bd89013a6bd29f59b3f09f90dbe8bfc64a7309e4b0c0e279ae817071",
  "number": 63784,
  "timestamp": 1439209975,
  "nonce": "0x613b7ab6ae6b6796",
  "difficulty": 1851284441904,
  "gasLimit": {
    "_hex": "0x2fefd8"
  },
  "gasUsed": {
    "_hex": "0x546c"
  },
  "miner": "0xC0EdE9a639d107851462c15f2fb729c7c61bBf62",
  "extraData": "0x",
  "transactions": [
    {
      "hash": "0x0835f11e28c1094159b55fa6b14bae2e4538b6b3d87639626dc969f19ad82ada",
      "blockHash": "0x8864a0b9c7fbcee9a4e1b8e83e7d9599397fbd477dc8f41fa222fc38317067a6",
      "blockNumber": 63784,
      "transactionIndex": 0,
      "confirmations": null,
      "from": "0x0B5e2011eBc25a007f21362960498AFb8Af280fb",
      "gasPrice": {
        "_hex": "0xd7d40ace3"
      },
      "gasLimit": {
        "_hex": "0x55f0"
      },
      "to": "0x2910543Af39abA0Cd09dBb2D50200b3E800A63D2",
      "value": {
        "_hex": "0xf8b0a10e4700000"
      },
      "nonce": 0,
      "data": "0x454e58395059555538",
      "r": "0xa7154a6a91e70b1b5009e801f1a0a723d79e269a1a0dd6df125801888df3347f",
      "s": "0x0bfb0b927f3b69561f45f2a50e24127510ca6bee19a3180a63499c69e23b21bd",
      "v": 28,
      "creates": null,
      "raw": "0xf87580850d7d40ace38255f0942910543af39aba0cd09dbb2d50200b3e800a63d2880f8b0a10e470000089454e583950595555381ca0a7154a6a91e70b1b5009e801f1a0a723d79e269a1a0dd6df125801888df3347fa00bfb0b927f3b69561f45f2a50e24127510ca6bee19a3180a63499c69e23b21bd",
      "networkId": 0,
      "chainId": 0
    }
  ]
}