{
  "hash": "0x3d119f7c4e1c287ae901b92aa3be873b598e1a27a7646c037004947ab195b8e3",
  "parentHash": "0x5eddc3debca674a7a3a8dd9c3e9214a5fd8d723c4060bbcecdad494dd8a52f0c",
  "number": 87956,
  "timestamp": 1439600231,
  "nonce": "0x91fa81b5b3e46bff",
  "difficulty": 3183305371220,
  "gasLimit": {
    "_hex": "0x2fefd8"
  },
  "gasUsed": {
    "_hex": "0x5208"
  },
  "miner": "0x580992B51e3925e23280EfB93d3047C82f17E038",
  "extraData": "0x476574682f76312e302e312f6c696e75782f676f312e342e32",
  "transactions": [
    {
      "hash": "0xad208097e2c7176fad30d9c9612106ed14975d46aebd7fab9695f5ffe9b556d9",
      "blockHash": "0x3d119f7c4e1c287ae901b92aa3be873b598e1a27a7646c037004947ab195b8e3",
      "blockNumber": 87956,
      "transactionIndex": 0,
      "confirmations": null,
      "from": "0x014E80bf9285a2365397294404337d9D341a50Bd",
      "gasPrice": {
        "_hex": "0xda9519528"
      },
      "gasLimit": {
        "_hex": "0x15f90"
      },
      "to": "0xb9b3Fb6f39Aa2067ee6E7130601bd8aCB235735A",
      "value": {
        "_hex": "0x16345785d8a0000"
      },
      "nonce": 0,
      "data": "0x",
      "r": "0xe947e129970b782def0a0fff669998e3a2a44302855b009049b4849fc4c8ad3e",
      "s": "0x209250f719409c1aa882171ad1fd827b0cc110c6a258d33f775ddb10aa3698ff",
      "v": 27,
      "creates": null,
      "raw": "0xf86d80850da951952883015f9094b9b3fb6f39aa2067ee6e7130601bd8acb235735a88016345785d8a0000801ba0e947e129970b782def0a0fff669998e3a2a44302855b009049b4849fc4c8ad3ea0209250f719409c1aa882171ad1fd827b0cc110c6a258d33f775ddb10aa3698ff",
      "networkId": 0,
      "chainId": 0
    }
  ]
}