{
  "hash": "0xabdbe1e264452b3debe857d55b02ad08110e293e7bc16e07a5bc1ab59e662249",
  "parentHash": "0x5259f5274577586261ded4ea41ab96d926a91302a516296a86a46c177baf1943",
  "number": 51526,
  "timestamp": 1439006346,
  "nonce": "0x5d9a76982f7e65c1",
  "difficulty": 1565798054341,
  "gasLimit": {
    "_hex": "0xbb729"
  },
  "gasUsed": {
    "_hex": "0x546c"
  },
  "miner": "0xbb7B8287f3F0a933474a79eAe42CBCa977791171",
  "extraData": "0x476574682f4c5649562f76312e302e312f6c696e75782f676f312e342e32",
  "transactions": [
    {
      "hash": "0xe6e799aef71297a31aec05ca8ec33c3d518a386c869e80a3b7db681e8dcf015b",
      "blockHash": "0xabdbe1e264452b3debe857d55b02ad08110e293e7bc16e07a5bc1ab59e662249",
      "blockNumber": 51526,
      "transactionIndex": 0,
      "confirmations": null,
      "from": "0x1D889aFF5D57138c9819412d63b5d877567B5936",
      "gasPrice": {
        "_hex": "0xd2e72b4ff"
      },
      "gasLimit": {
        "_hex": "0x7530"
      },
      "to": "0x2910543Af39abA0Cd09dBb2D50200b3E800A63D2",
      "value": {
        "_hex": "0x53444835ec5800000"
      },
      "nonce": 5,
      "data": "0x454e3651304d384252",
      "r": "0x822b6676739e0f0e7d5b0bbf7bacce38a43456d4b1a57625432348d754d0824e",
      "s": "0x4ebaf9df3077a3952fca88c60071260aeeca74b12b5e2c8439a32962dbf52c68",
      "v": 27,
      "creates": null,
      "raw": "0xf87605850d2e72b4ff827530942910543af39aba0cd09dbb2d50200b3e800a63d289053444835ec580000089454e3651304d3842521ba0822b6676739e0f0e7d5b0bbf7bacce38a43456d4b1a57625432348d754d0824ea04ebaf9df3077a3952fca88c60071260aeeca74b12b5e2c8439a32962dbf52c68",
      "networkId": 0,
      "chainId": 0
    }
  ]
}