{
  "hash": "0x0c5bbb2971289e16f03a9be1434f7ec22bb802e32e8a7414189c0a6fb71fc379",
  "parentHash": "0x5312fa22a5790b84e677be0e3668b07557a2212b74cb4bc429dd175c6825ca63",
  "number": 63514,
  "timestamp": 1439205762,
  "nonce": "0x0000000005d1ec7e",
  "difficulty": 1831562979096,
  "gasLimit": {
    "_hex": "0x2fefd8"
  },
  "gasUsed": {
    "_hex": "0x5208"
  },
  "miner": "0x408e45b501976ea5715d90b1BA57B2b969645f05",
  "extraData": "0x476574682f76312e302e312f77696e646f77732f676f312e342e32",
  "transactions": [
    {
      "hash": "0xe29a9e4f3fdd023bcfaf1111edfe3ac3a7a5d6718b29ef05685e42733d5b84b6",
      "blockHash": "0x0c5bbb2971289e16f03a9be1434f7ec22bb802e32e8a7414189c0a6fb71fc379",
      "blockNumber": 63514,
      "transactionIndex": 0,
      "confirmations": null,
      "from": "0x0976e5160161889e5c91D626BbFb53E7E62Fd0c3",
      "gasPrice": {
        "_hex": "0xd7c4356ef"
      },
      "gasLimit": {
        "_hex": "0x15f90"
      },
      "to": "0x120A270bbC009644e35F0bB6ab13f95b8199c4ad",
      "value": {
        "_hex": "0xdbd2fc137a30000"
      },
      "nonce": 0,
      "data": "0x",
      "r": "0x96fda82acbbc81c5a361cd4a02d3bb626745c764ee421c0000e7c5094bf338d8",
      "s": "0x1521c6ae04a9b17e4d530650e5b79a574787788b715ce1b7ba8ed2614027c562",
      "v": 28,
      "creates": null,
      "raw": "0xf86d80850d7c4356ef83015f9094120a270bbc009644e35f0bb6ab13f95b8199c4ad880dbd2fc137a30000801ca096fda82acbbc81c5a361cd4a02d3bb626745c764ee421c0000e7c5094bf338d8a01521c6ae04a9b17e4d530650e5b79a574787788b715ce1b7ba8ed2614027c562",
      "networkId": 0,
      "chainId": 0
    }
  ]
}