{
  "hash": "0x701a1dfb176b3b95edc7ddb0478f74e8b81bc3aa29978c624673624dbe0f28d2",
  "parentHash": "0x07f045bebfd2f9bc744d2484d90f6ff396731a116aaf29c7d5621aec6d3a35f5",
  "number": 55669,
  "timestamp": 1439074755,
  "nonce": "0xa7debf6b74769c83",
  "difficulty": 1615492772653,
  "gasLimit": {
    "_hex": "0x2fefd5"
  },
  "gasUsed": {
    "_hex": "0xfa02"
  },
  "miner": "0xf927a40C8B7F6E07c5af7FA2155B4864a4112B13",
  "extraData": "0x476574682f76312e302e312f6c696e75782f676f312e342e32",
  "transactions": [
    {
      "hash": "0x856241ce448ace3563d6c6631d562c46be34da0cfcec6ac557828a9bb9aeb845",
      "blockHash": "0x701a1dfb176b3b95edc7ddb0478f74e8b81bc3aa29978c624673624dbe0f28d2",
      "blockNumber": 55669,
      "transactionIndex": 0,
      "confirmations": null,
      "from": "0x4FcE8429bA49cAa0369d1E494Db57E89Eab2AD39",
      "gasPrice": {
        "_hex": "0xdeaa670c1"
      },
      "gasLimit": {
        "_hex": "0x15f90"
      },
      "to": "0x2910543Af39abA0Cd09dBb2D50200b3E800A63D2",
      "value": {
        "_hex": "0x4563918244f40000"
      },
      "nonce": 0,
      "data": "0x454e51525259523352",
      "r": "0x4889855e8254d6b817c4e1472c524c035fa5081b7a9aa9a838900c1e46e8386e",
      "s": "0x4184133322e4da47668055bc10e53f4cf40445925514704ac60a7e28dfcdb7ea",
      "v": 28,
      "creates": null,
      "raw": "0xf87680850deaa670c183015f90942910543af39aba0cd09dbb2d50200b3e800a63d2884563918244f4000089454e515252595233521ca04889855e8254d6b817c4e1472c524c035fa5081b7a9aa9a838900c1e46e8386ea04184133322e4da47668055bc10e53f4cf40445925514704ac60a7e28dfcdb7ea",
      "networkId": 0,
      "chainId": 0
    },
    {
      "hash": "0x780baca011227d2c6d1fd43a61c231a016b97668f012494ec81ab5adc28acca8",
      "blockHash": "0x701a1dfb176b3b95edc7ddb0478f74e8b81bc3aa29978c624673624dbe0f28d2",
      "blockNumber": 55669,
      "transactionIndex": 1,
      "confirmations": null,
      "from": "0xc70bA22fe446A85A247bf85BaD1AdDf3ddaF62E9",
      "gasPrice": {
        "_hex": "0xd6605669d"
      },
      "gasLimit": {
        "_hex": "0x15f90"
      },
      "to": "0xb87824547dB80F1fb37D0225B99F1A602f8642AD",
      "value": {
        "_hex": "0x3e8"
      },
      "nonce": 10,
      "data": "0xed88c68e",
      "r": "0xb8de80cb0d8a304d3d27450e2d2e02d08f3366a7664a2f047fad04511f237f32",
      "s": "0x3a3a0b36c325e496cd8187c058ec70cd1543c6ce1509e07d4a52ce7c86f6c4e6",
      "v": 27,
      "creates": null,
      "raw": "0xf86b0a850d6605669d83015f9094b87824547db80f1fb37d0225b99f1a602f8642ad8203e884ed88c68e1ba0b8de80cb0d8a304d3d27450e2d2e02d08f3366a7664a2f047fad04511f237f32a03a3a0b36c325e496cd8187c058ec70cd1543c6ce1509e07d4a52ce7c86f6c4e6",
      "networkId": 0,
      "chainId": 0
    },
    {
      "hash": "0xa7b8ee0801204e270e1e1b6a8c6b77a285480f456d5aa262e38b3df529be1f10",
      "blockHash": "0x701a1dfb176b3b95edc7ddb0478f74e8b81bc3aa29978c624673624dbe0f28d2",
      "blockNumber": 55669,
      "transactionIndex": 2,
      "confirmations": null,
      "from": "0x32Be343B94f860124dC4fEe278FDCBD38C102D88",
      "gasPrice": {
        "_hex": "0xcbc471ded"
      },
      "gasLimit": {
        "_hex": "0x5208"
      },
      "to": "0xb794F5eA0ba39494cE839613fffBA74279579268",
      "value": {
        "_hex": "0x1e7e4171bf4d3a00000"
      },
      "nonce": 71,
      "data": "0x",
      "r": "0x318213520eedb4fff4759b0d576ccf1bfa8a4fcebc5d88972c3f526696442339",
      "s": "0x08631cc8f94857fce0cf2f7cf968c14c423b72429ca80fe612269bc546d9ffb2",
      "v": 28,
      "creates": null,
      "raw": "0xf86e47850cbc471ded82520894b794f5ea0ba39494ce839613fffba742795792688a01e7e4171bf4d3a00000801ca0318213520eedb4fff4759b0d576ccf1bfa8a4fcebc5d88972c3f526696442339a008631cc8f94857fce0cf2f7cf968c14c423b72429ca80fe612269bc546d9ffb2",
      "networkId": 0,
      "chainId": 0
    }
  ]
}