{
  "hash": "0xa12f7697dc0decc97596a70c6858a32569c0e44601d1f9bc74e75d6dd8ff601b",
  "parentHash": "0xf0f5d46d677ec252ccfd9e27a60a6630c324ac4b2771e96df46701991e6d6cc8",
  "number": 106842,
  "timestamp": 1439911618,
  "nonce": "0x19615811d81330e4",
  "difficulty": 4422580762802,
  "gasLimit": {
    "_hex": "0x2fefd8"
  },
  "gasUsed": {
    "_hex": "0x19a28"
  },
  "miner": "0x580992B51e3925e23280EfB93d3047C82f17E038",
  "extraData": "0x476574682f76312e302e312f6c696e75782f676f312e342e32",
  "transactions": [
    {
      "hash": "0xf55c97a9136860e05c81c70b3e693059b7bcdccd2457d86648d148a23a01a9d2",
      "blockHash": "0xa12f7697dc0decc97596a70c6858a32569c0e44601d1f9bc74e75d6dd8ff601b",
      "blockNumber": 106842,
      "transactionIndex": 0,
      "confirmations": null,
      "from": "0xb50405193Dc0c7077dD65252C15C39242F0aCB76",
      "gasPrice": {
        "_hex": "0xd21fd0d62"
      },
      "gasLimit": {
        "_hex": "0x5208"
      },
      "to": "0x32Be343B94f860124dC4fEe278FDCBD38C102D88",
      "value": {
        "_hex": "0x1158a10bd2e138000"
      },
      "nonce": 9,
      "data": "0x",
      "r": "0x303a7e590637a8ed0892870b03f095cce0e1ae631224a4d0709e935faa0c53df",
      "s": "0x160b8b165bf433ad6114a6d9786febae76cd00f62a24f81ee2337be31a3ac62c",
      "v": 27,
      "creates": null,
      "raw": "0xf86d09850d21fd0d628252089432be343b94f860124dc4fee278fdcbd38c102d888901158a10bd2e138000801ba0303a7e590637a8ed0892870b03f095cce0e1ae631224a4d0709e935faa0c53dfa0160b8b165bf433ad6114a6d9786febae76cd00f62a24f81ee2337be31a3ac62c",
      "networkId": 0,
      "chainId": 0
    },
    {
      "hash": "0x0262e64ea0d7d30b0abbdc8c31d59bda3bb8b7d36f7e0005cea41344bf70d00b",
      "blockHash": "0xa12f7697dc0decc97596a70c6858a32569c0e44601d1f9bc74e75d6dd8ff601b",
      "blockNumber": 106842,
      "transactionIndex": 1,
      "confirmations": null,
      "from": "0xd5d9a0033e6B0A3ba7634d0e1a9055ad5f452C3D",
      "gasPrice": {
        "_hex": "0xd21fd0d62"
      },
      "gasLimit": {
        "_hex": "0x5208"
      },
      "to": "0x32Be343B94f860124dC4fEe278FDCBD38C102D88",
      "value": {
        "_hex": "0x3cb6db42d501ba000"
      },
      "nonce": 10,
      "data": "0x",
      "r": "0xb192c9242bd21364c797b90039bfa9a2f6cec833bf423daaf46ef702a0c90abf",
      "s": "0x2cdd43de1959ff60132e78f056ddda93989e38fc37342cdfdd03b4482a1ff36d",
      "v": 28,
      "creates": null,
      "raw": "0xf86d0a850d21fd0d628252089432be343b94f860124dc4fee278fdcbd38c102d888903cb6db42d501ba000801ca0b192c9242bd21364c797b90039bfa9a2f6cec833bf423daaf46ef702a0c90abfa02cdd43de1959ff60132e78f056ddda93989e38fc37342cdfdd03b4482a1ff36d",
      "networkId": 0,
      "chainId": 0
    },
    {
      "hash": "0x5a410c89dc4b9871a37cb7d14a0522222bd3776a4c099339623da2773080c169",
      "blockHash": "0xa12f7697dc0decc97596a70c6858a32569c0e44601d1f9bc74e75d6dd8ff601b",
      "blockNumber": 106842,
      "transactionIndex": 2,
      "confirmations": null,
      "from": "0x4c74B6F32c9680aCB5Fe0e72B7Aa95C612540A04",
      "gasPrice": {
        "_hex": "0xd21fd0d62"
      },
      "gasLimit": {
        "_hex": "0x5208"
      },
      "to": "0x32Be343B94f860124dC4fEe278FDCBD38C102D88",
      "value": {
        "_hex": "0xd0267f3ae91f7800"
      },
      "nonce": 41,
      "data": "0x",
      "r": "0x7140d840554ada69ca5654d589670e308af376329994d1e4dcd9e4f849c01e52",
      "s": "0x120d29ab63a1892c2cdd5b33b24991967f878d2a239f3568f34b8f0ed4db7024",
      "v": 27,
      "creates": null,
      "raw": "0xf86c29850d21fd0d628252089432be343b94f860124dc4fee278fdcbd38c102d8888d0267f3ae91f7800801ba07140d840554ada69ca5654d589670e308af376329994d1e4dcd9e4f849c01e52a0120d29ab63a1892c2cdd5b33b24991967f878d2a239f3568f34b8f0ed4db7024",
      "networkId": 0,
      "chainId": 0
    },
    {
      "hash": "0x0a4294e08942b1e4860e4bd5e298ac055504d58d1003f770088995237df1ab40",
      "blockHash": "0xa12f7697dc0decc97596a70c6858a32569c0e44601d1f9bc74e75d6dd8ff601b",
      "blockNumber": 106842,
      "transactionIndex": 3,
      "confirmations": null,
      "from": "0xa70a9a7040d542C632D8e0bE7c5513A8a5Bbc752",
      "gasPrice": {
        "_hex": "0xd21fd0d62"
      },
      "gasLimit": {
        "_hex": "0x5208"
      },
      "to": "0x32Be343B94f860124dC4fEe278FDCBD38C102D88",
      "value": {
        "_hex": "0x455f5c365f377800"
      },
      "nonce": 252,
      "data": "0x",
      "r": "0x068410145bcb3c3048673cab5e1e9100f965582b176a4b239a182dd906821146",
      "s": "0x351d331b22b82f7f18842c77f2195f900185f5cb7da8527d009aac416cb57529",
      "v": 28,
      "creates": null,
      "raw": "0xf86d81fc850d21fd0d628252089432be343b94f860124dc4fee278fdcbd38c102d8888455f5c365f377800801ca0068410145bcb3c3048673cab5e1e9100f965582b176a4b239a182dd906821146a0351d331b22b82f7f18842c77f2195f900185f5cb7da8527d009aac416cb57529",
      "networkId": 0,
      "chainId": 0
    },
    {
      "hash": "0xaf444e8960613222587534ecc70deb9811061224bcb1a7d2ee124732666c88bb",
      "blockHash": "0xa12f7697dc0decc97596a70c6858a32569c0e44601d1f9bc74e75d6dd8ff601b",
      "blockNumber": 106842,
      "transactionIndex": 4,
      "confirmations": null,
      "from": "0xf00955cEDD33a99B4a993aABeb4239e268aaD294",
      "gasPrice": {
        "_hex": "0xd21fd0d62"
      },
      "gasLimit": {
        "_hex": "0x5208"
      },
      "to": "0x32Be343B94f860124dC4fEe278FDCBD38C102D88",
      "value": {
        "_hex": "0x3d0bc7817bd9c800"
      },
      "nonce": 1,
      "data": "0x",
      "r": "0xfecc54b78d9b6021630ab819be61005ffdbd218059a609815f1466740b081cdf",
      "s": "0x5a5cdb3017ebc232f4f8c47f93d1db3e63d98a97eccf3164aaef2a5f389c53e6",
      "v": 27,
      "creates": null,
      "raw": "0xf86c01850d21fd0d628252089432be343b94f860124dc4fee278fdcbd38c102d88883d0bc7817bd9c800801ba0fecc54b78d9b6021630ab819be61005ffdbd218059a609815f1466740b081cdfa05a5cdb3017ebc232f4f8c47f93d1db3e63d98a97eccf3164aaef2a5f389c53e6",
      "networkId": 0,
      "chainId": 0
    }
  ]
}