{
  "hash": "0xb9264c1b7938521a9ceb400af063e03ea7cadaf36f866076fd49cc071b7fe692",
  "parentHash": "0x0d91fe3b6bd1fea02d6ac1c90f29a93345423bd8168c3282911ae20540191cdb",
  "number": 112455,
  "timestamp": 1440007740,
  "nonce": "0xbf08313fc744d848",
  "difficulty": 4417465015138,
  "gasLimit": {
    "_hex": "0x2fefd8"
  },
  "gasUsed": {
    "_hex": "0x5208"
  },
  "miner": "0xe6A7a1d47ff21B6321162AEA7C6CB457D5476Bca",
  "extraData": "0x476574682f76312e302e312d38326566323666362f6c696e75782f676f312e34",
  "transactions": [
    {
      "hash": "0x2fe5e84d56b35d17a85bb9cd0a741398fb185f614a95b4bde053de2c0f7bb0e7",
      "blockHash": "0xb9264c1b7938521a9ceb400af063e03ea7cadaf36f866076fd49cc071b7fe692",
      "blockNumber": 112455,
      "transactionIndex": 0,
      "confirmations": null,
      "from": "0x120A270bbC009644e35F0bB6ab13f95b8199c4ad",
      "gasPrice": {
        "_hex": "0xdf3e8af36"
      },
      "gasLimit": {
        "_hex": "0x3d090"
      },
      "to": "0x6bf4181DB31Ed1c38500284215c6712C643122A4",
      "value": {
        "_hex": "0xbece7fa0903b400"
      },
      "nonce": 894,
      "data": "0x",
      "r": "0x36b457c5670a9200472638174d33f0b9537c16a4917143327e8c817947f60f0f",
      "s": "0x4c4682f4461bfec47a048adac0ef0ac425b7661a273d192203ca5cb75adb72e1",
      "v": 27,
      "creates": null,
      "raw": "0xf86f82037e850df3e8af368303d090946bf4181db31ed1c38500284215c6712c643122a4880bece7fa0903b400801ba036b457c5670a9200472638174d33f0b9537c16a4917143327e8c817947f60f0fa04c4682f4461bfec47a048adac0ef0ac425b7661a273d192203ca5cb75adb72e1",
      "networkId": 0,
      "chainId": 0
    }
  ]
}