{
  "hash": "0xd449ef05584961f1758b64aed2f5ce0623eb236ddb2a9d8e52bb7bf6d8afd135",
  "parentHash": "0x8b08654bd3d3d823ac7318f4df12697b6cc71a92704c1fc2ce091f43d3dab0b0",
  "number": 94724,
  "timestamp": 1439713125,
  "nonce": "0xaaaea41b9c5bc8f9",
  "difficulty": 3479738093330,
  "gasLimit": {
    "_hex": "0x2fefd8"
  },
  "gasUsed": {
    "_hex": "0xa410"
  },
  "miner": "0x88D74a59454F6cF3B51ef6b9136AFb6b9D405A88",
  "extraData": "0x476574682f76312e302e312d37666266393930632f6c696e75782f676f312e34",
  "transactions": [
    {
      "hash": "0x1a49c826866513247cc462e99f666263da15f399258ce399061caeacbfce5bb1",
      "blockHash": "0xd449ef05584961f1758b64aed2f5ce0623eb236ddb2a9d8e52bb7bf6d8afd135",
      "blockNumber": 94724,
      "transactionIndex": 0,
      "confirmations": null,
      "from": "0xE921770D00ff942284b8f101b71C029ecE92DA53",
      "gasPrice": {
        "_hex": "0xcc188ad43"
      },
      "gasLimit": {
        "_hex": "0x5208"
      },
      "to": "0x32Be343B94f860124dC4fEe278FDCBD38C102D88",
      "value": {
        "_hex": "0x5137b5182e302c000"
      },
      "nonce": 2,
      "data": "0x",
      "r": "0x0c584aab3089eb46898ffc7a22a75f0931c43987cc9c2907f7bc619a13ddffd2",
      "s": "0x5b591e384073fe150b1fd65ebc22d52db260f336167af9dce316152897bf8706",
      "v": 28,
      "creates": null,
      "raw": "0xf86d02850cc188ad438252089432be343b94f860124dc4fee278fdcbd38c102d888905137b5182e302c000801ca00c584aab3089eb46898ffc7a22a75f0931c43987cc9c2907f7bc619a13ddffd2a05b591e384073fe150b1fd65ebc22d52db260f336167af9dce316152897bf8706",
      "networkId": 0,
      "chainId": 0
    },
    {
      "hash": "0xc09a95055c3464479b5997e8bd6f70821fc4d23005d7c8f403f7fdf950ce8da3",
      "blockHash": "0xd449ef05584961f1758b64aed2f5ce0623eb236ddb2a9d8e52bb7bf6d8afd135",
      "blockNumber": 94724,
      "transactionIndex": 1,
      "confirmations": null,
      "from": "0x211D45933Ef88c3D7aD0120942CF50ab506e618F",
      "gasPrice": {
        "_hex": "0xcc188ad43"
      },
      "gasLimit": {
        "_hex": "0x5208"
      },
      "to": "0x32Be343B94f860124dC4fEe278FDCBD38C102D88",
      "value": {
        "_hex": "0x8221201b1de78000"
      },
      "nonce": 5,
      "data": "0x",
      "r": "0x4a5b7c9b2bc425260047705a458c41fc9709ec829126e4a24fbd52cf197fd74b",
      "s": "0x7dc1260e42e70612ed214476cb35c7f2e8cc11f9d6dbf595a05d944bdea6ae28",
      "v": 28,
      "creates": null,
      "raw": "0xf86c05850cc188ad438252089432be343b94f860124dc4fee278fdcbd38c102d88888221201b1de78000801ca04a5b7c9b2bc425260047705a458c41fc9709ec829126e4a24fbd52cf197fd74ba07dc1260e42e70612ed214476cb35c7f2e8cc11f9d6dbf595a05d944bdea6ae28",
      "networkId": 0,
      "chainId": 0
    }
  ]
}