{
  "hash": "0x44daf71fffb6bb841f60a50522ce90ffd153bb8ce0a2df97d9101b303c921c6a",
  "parentHash": "0x3623148f927bbc944d333813fe4e4c69422ae9821ee6b4e9c6dc4523b44d3f4d",
  "number": 86699,
  "timestamp": 1439581612,
  "nonce": "0xe8818fae7291ccca",
  "difficulty": 2945955471649,
  "gasLimit": {
    "_hex": "0x2fefd8"
  },
  "gasUsed": {
    "_hex": "0x5208"
  },
  "miner": "0x0193d941b50d91BE6567c7eE1C0Fe7AF498b4137",
  "extraData": "0x4a5ace9e4e",
  "transactions": [
    {
      "hash": "0x52bbcd6cea1680cadee6d4755111438c0576fea2bbd9763aca79c856664034d5",
      "blockHash": "0x44daf71fffb6bb841f60a50522ce90ffd153bb8ce0a2df97d9101b303c921c6a",
      "blockNumber": 86699,
      "transactionIndex": 0,
      "confirmations": null,
      "from": "0xD0317e8d007a61B8d740516E8a268D4faDADccbF",
      "gasPrice": {
        "_hex": "0xe0cdaee52"
      },
      "gasLimit": {
        "_hex": "0x15f90"
      },
      "to": "0xdeE4977F74E6Aef6D627191c9A45D2627e331150",
      "value": {
        "_hex": "0xf9ccd8a1c5080000"
      },
      "nonce": 2,
      "data": "0x",
      "r": "0x05ad3411cf501dc005f980f4aa263463b72fd03fadcb60e6e324839759ba4322",
      "s": "0x50030c8eec79ffcf099f529398b908de2bf978831ca6dcc0481729918066fd59",
      "v": 27,
      "creates": null,
      "raw": "0xf86d02850e0cdaee5283015f9094dee4977f74e6aef6d627191c9a45d2627e33115088f9ccd8a1c5080000801ba005ad3411cf501dc005f980f4aa263463b72fd03fadcb60e6e324839759ba4322a050030c8eec79ffcf099f529398b908de2bf978831ca6dcc0481729918066fd59",
      "networkId": 0,
      "chainId": 0
    }
  ]
}