{
  "hash": "0x70738dca9a9b711fcb24287797e82204ad937843b95e3a51a6e00a5818ce4196",
  "parentHash": "0xf8b72326d360547c6595c2f3b77faf190645e048af0b7611c42504a0192fd091",
  "number": 91658,
  "timestamp": 1439659348,
  "nonce": "0x287f16154cf18daa",
  "difficulty": 3491223381412,
  "gasLimit": {
    "_hex": "0x2fefd8"
  },
  "gasUsed": {
    "_hex": "0x7fee"
  },
  "miner": "0x9D49F602b0fdb924Bd63DDE2Bd0907E4A07c63a7",
  "extraData": "0x476574682f76312e302e312f6c696e75782f676f312e342e32",
  "transactions": [
    {
      "hash": "0x4c85af5d88c06a2db7af5cd54b203b4f8318eade00abd7dda7bcacb42718db4c",
      "blockHash": "0x70738dca9a9b711fcb24287797e82204ad937843b95e3a51a6e00a5818ce4196",
      "blockNumber": 91658,
      "transactionIndex": 0,
      "confirmations": null,
      "from": "0xFBb1b73C4f0BDa4f67dcA266ce6Ef42f520fBB98",
      "gasPrice": {
        "_hex": "0xd6f92e52e"
      },
      "gasLimit": {
        "_hex": "0x15f90"
      },
      "to": "0xCAc7000C7dBaa2E33Af15325AF5D435E011C7BdD",
      "value": {
        "_hex": "0x0"
      },
      "nonce": 47,
      "data": "0x3feb1bd84249545452455830300000000000000000000000000000000000000000000000000000000000000000000000e44722e814a70bf7009543535e6bcf0df77545c20000000000000000000000000000000000000000000000000f207539952d0000",
      "r": "0x8c2aa1c6febe517c555605673f9e3288b80e910ac5c400ad93c331ebee7ef6b2",
      "s": "0x45ff26f0b3658be99bc43b9f766229131f5b0074b2106d41a024b3853d14c470",
      "v": 28,
      "creates": null,
      "raw": "0xf8ca2f850d6f92e52e83015f9094cac7000c7dbaa2e33af15325af5d435e011c7bdd80b8643feb1bd84249545452455830300000000000000000000000000000000000000000000000000000000000000000000000e44722e814a70bf7009543535e6bcf0df77545c20000000000000000000000000000000000000000000000000f207539952d00001ca08c2aa1c6febe517c555605673f9e3288b80e910ac5c400ad93c331ebee7ef6b2a045ff26f0b3658be99bc43b9f766229131f5b0074b2106d41a024b3853d14c470",
      "networkId": 0,
      "chainId": 0
    }
  ]
}