{
  "hash": "0x47708ec8710d7588a1e0c8a7a79fdd12a54e9cf120c45e2704c38aac2684f476",
  "parentHash": "0x9eeecc38d22b3beb8f25aba9ed222521be58dc1fb649f4025fe068b093a2b682",
  "number": 93617,
  "timestamp": 1439694372,
  "nonce": "0x330a4bd0d30c3df1",
  "difficulty": 3458176193407,
  "gasLimit": {
    "_hex": "0x2fefd8"
  },
  "gasUsed": {
    "_hex": "0x5208"
  },
  "miner": "0x790b8a3cE86E707ED0eD32bF89B3269692a23CC1",
  "extraData": "0xd783010001844765746887676f312e342e32856c696e7578",
  "transactions": [
    {
      "hash": "0xb8fda6dde82f497a5ac3e7773d755b35bf986b1c767c45c9b11f17114dfe175c",
      "blockHash": "0x47708ec8710d7588a1e0c8a7a79fdd12a54e9cf120c45e2704c38aac2684f476",
      "blockNumber": 93617,
      "transactionIndex": 0,
      "confirmations": null,
      "from": "0x32Be343B94f860124dC4fEe278FDCBD38C102D88",
      "gasPrice": {
        "_hex": "0xdfa1b84dc"
      },
      "gasLimit": {
        "_hex": "0x5208"
      },
      "to": "0x57a5156876AA9d5bA611Db7871966a2a8c1D8f4e",
      "value": {
        "_hex": "0x8aa39c121a270000"
      },
      "nonce": 929,
      "data": "0x",
      "r": "0x57c9c8a212b4b1241caeec8bfb748b7ee84804dbd032ea4d0935fdf5613dda27",
      "s": "0x27f365379a6a530a1480b2a7a4af636729a25b7720834663de32705b455bc355",
      "v": 28,
      "creates": null,
      "raw": "0xf86e8203a1850dfa1b84dc8252089457a5156876aa9d5ba611db7871966a2a8c1d8f4e888aa39c121a270000801ca057c9c8a212b4b1241caeec8bfb748b7ee84804dbd032ea4d0935fdf5613dda27a027f365379a6a530a1480b2a7a4af636729a25b7720834663de32705b455bc355",
      "networkId": 0,
      "chainId": 0
    }
  ]
}