{
  "hash": "0x3c6814fbaf15664ec72b16b47e38d71415b8609770c54c6dc11590de43bf7a39",
  "parentHash": "0xfc6af5c54b345ca357b968909b07673f3d8166167dd58afcb4742082c1fcb834",
  "number": 117099,
  "timestamp": 1440103475,
  "nonce": "0x91c424f0dbac4fcc",
  "difficulty": 4295932502597,
  "gasLimit": {
    "_hex": "0x2fefd8"
  },
  "gasUsed": {
    "_hex": "0x5208"
  },
  "miner": "0x790b8a3cE86E707ED0eD32bF89B3269692a23CC1",
  "extraData": "0xd783010002844765746887676f312e342e32856c696e7578",
  "transactions": [
    {
      "hash": "0x601dc6756b684cdb48d09337b4e32e2e7d1c78867248a07d2d714a426c16b870",
      "blockHash": "0x3c6814fbaf15664ec72b16b47e38d71415b8609770c54c6dc11590de43bf7a39",
      "blockNumber": 117099,
      "transactionIndex": 0,
      "confirmations": null,
      "from": "0x59C7f785C93160e5807ed34e5E534BC6188647a7",
      "gasPrice": {
        "_hex": "0xdb093032c"
      },
      "gasLimit": {
        "_hex": "0x7530"
      },
      "to": "0x45F02181298e1C8D821ac0b1233488296742AB39",
      "value": {
        "_hex": "0xde0b6b3a7640000"
      },
      "nonce": 0,
      "data": "0x",
      "r": "0x19994f515e0c90940aa2dbf7f3cd5cb6304550d49258bbe430c4918278309596",
      "s": "0x21d37eb89f10aff7fc5f326303c49f1722e5a6b1b4415d1adda0089881436740",
      "v": 27,
      "creates": null,
      "raw": "0xf86c80850db093032c8275309445f02181298e1c8d821ac0b1233488296742ab39880de0b6b3a7640000801ba019994f515e0c90940aa2dbf7f3cd5cb6304550d49258bbe430c4918278309596a021d37eb89f10aff7fc5f326303c49f1722e5a6b1b4415d1adda0089881436740",
      "networkId": 0,
      "chainId": 0
    }
  ]
}