{
  "hash": "0x89c42fa78b65095458255174c6e54abbca3dd249882db0386a879ff60bca281e",
  "parentHash": "0xd47da06bc311f83a0a6f2f6081e24aea93e9885542619b73b271d1f47e555f6d",
  "number": 95784,
  "timestamp": 1439729587,
  "nonce": "0x6605c9359e6cae7f",
  "difficulty": 3628512771040,
  "gasLimit": {
    "_hex": "0x2fefd8"
  },
  "gasUsed": {
    "_hex": "0x5208"
  },
  "miner": "0xf927a40C8B7F6E07c5af7FA2155B4864a4112B13",
  "extraData": "0x",
  "transactions": [
    {
      "hash": "0x1ff845feb3446e327a13810d5a222b94427a6dc7cd21d32b435871bc71e0fc26",
      "blockHash": "0x89c42fa78b65095458255174c6e54abbca3dd249882db0386a879ff60bca281e",
      "blockNumber": 95784,
      "transactionIndex": 0,
      "confirmations": null,
      "from": "0xCdA0AD7542e30BF520652A05056eBe0105c7e49A",
      "gasPrice": {
        "_hex": "0xd641f460d"
      },
      "gasLimit": {
        "_hex": "0x1e8480"
      },
      "to": "0x02E816AFC1b5C0f39852131959D946eb3b07b5ad",
      "value": {
        "_hex": "0x0"
      },
      "nonce": 7,
      "data": "0x",
      "r": "0xa65cb701b4f133df2e96ab483ea67779231f30143addc84dffaa24fc0dcae5ce",
      "s": "0x4d32894eee743921c7ce7fd02bd9e9a29ca3d456fb72d66efe2a034c477f0e71",
      "v": 28,
      "creates": null,
      "raw": "0xf86507850d641f460d831e84809402e816afc1b5c0f39852131959d946eb3b07b5ad80801ca0a65cb701b4f133df2e96ab483ea67779231f30143addc84dffaa24fc0dcae5cea04d32894eee743921c7ce7fd02bd9e9a29ca3d456fb72d66efe2a034c477f0e71",
      "networkId": 0,
      "chainId": 0
    }
  ]
}