{
  "hash": "0x54294057b45702886c102b558d91065e16234d63628d542035ff495133284200",
  "parentHash": "0x2f4dee41f5405628286bc46860ef9136a055a5c82cdda5ea3773a3ba72a3a9c3",
  "number": 46758,
  "timestamp": 1438928720,
  "nonce": "0x026c518550b2b82e",
  "difficulty": 1453200992637,
  "gasLimit": {
    "_hex": "0x7727"
  },
  "gasUsed": {
    "_hex": "0x5208"
  },
  "miner": "0xcd39cBcF71Ff4e9592F94db59db4ff45e34b174f",
  "extraData": "0x476574682f76312e302e312f6c696e75782f676f312e342e32",
  "transactions": [
    {
      "hash": "0x3ca6811a8650689c8bb1948f5f034c8ecd3f1b026c322bf24913ed396e5c19b4",
      "blockHash": "0x54294057b45702886c102b558d91065e16234d63628d542035ff495133284200",
      "blockNumber": 46758,
      "transactionIndex": 0,
      "confirmations": null,
      "from": "0x92c27672FE65e002159Ec2597fcf8897ADBf5B29",
      "gasPrice": {
        "_hex": "0xcc62190f2"
      },
      "gasLimit": {
        "_hex": "0x5208"
      },
      "to": "0x32Be343B94f860124dC4fEe278FDCBD38C102D88",
      "value": {
        "_hex": "0xbeb3d940b678800"
      },
      "nonce": 4,
      "data": "0x",
      "r": "0x1e864e8ead838138829cb8891128dd38b855a85a7934f0f24f2c54b8200a3db6",
      "s": "0x61e5961902523bc4152da0efa2ba01480cf121082a01579292590bbcf8896726",
      "v": 27,
      "creates": null,
      "raw": "0xf86c04850cc62190f28252089432be343b94f860124dc4fee278fdcbd38c102d88880beb3d940b678800801ba01e864e8ead838138829cb8891128dd38b855a85a7934f0f24f2c54b8200a3db6a061e5961902523bc4152da0efa2ba01480cf121082a01579292590bbcf8896726",
      "networkId": 0,
      "chainId": 0
    }
  ]
}