{
  "hash": "0x92ddfabda0a74bdfe0f25157d071abb0f1379fad77aec98b2254395182ccb0af",
  "parentHash": "0x0aeeb69dc4088623915fc8703bb779fa1428893c92cd341351749abd6231712e",
  "number": 121999,
  "timestamp": 1440186454,
  "nonce": "0x8015af727570e62a",
  "difficulty": 4464454448650,
  "gasLimit": {
    "_hex": "0x2fefd8"
  },
  "gasUsed": {
    "_hex": "0x5208"
  },
  "miner": "0xbb7B8287f3F0a933474a79eAe42CBCa977791171",
  "extraData": "0xd783010003844765746887676f312e342e32856c696e7578",
  "transactions": [
    {
      "hash": "0x2516f4755d7d1afcd67c19fb724cfa41567b26653cda56ef957d2ff9894857a2",
      "blockHash": "0x92ddfabda0a74bdfe0f25157d071abb0f1379fad77aec98b2254395182ccb0af",
      "blockNumber": 121999,
      "transactionIndex": 0,
      "confirmations": null,
      "from": "0xFFf1471A813EaF20Ade11C3d58E3a64157216587",
      "gasPrice": {
        "_hex": "0xdb0f341ff"
      },
      "gasLimit": {
        "_hex": "0x15f90"
      },
      "to": "0x9b0a028EAfDeCdE3AFc0fD00B7937098388b7C8a",
      "value": {
        "_hex": "0xba7a3802ad68cea38"
      },
      "nonce": 5,
      "data": "0x",
      "r": "0xc183a9252bd83750762c83e215fab476b849fb91c7ea822e1b187e7befad9794",
      "s": "0x65f9804d8a72ca36e673c4b5f488ee979b5f96253bbd30cfd2b2a119685337dc",
      "v": 27,
      "creates": null,
      "raw": "0xf86e05850db0f341ff83015f90949b0a028eafdecde3afc0fd00b7937098388b7c8a890ba7a3802ad68cea38801ba0c183a9252bd83750762c83e215fab476b849fb91c7ea822e1b187e7befad9794a065f9804d8a72ca36e673c4b5f488ee979b5f96253bbd30cfd2b2a119685337dc",
      "networkId": 0,
      "chainId": 0
    }
  ]
}