{
  "hash": "0x87f62f90c395200b1a8fe7e3431d6b89fd91c1e85fd1f46ea238075ca7aa277f",
  "parentHash": "0x142b38a6b9ae9f64ee9e4744b93c51935138ddf82cef58e7712949236699872b",
  "number": 101622,
  "timestamp": 1439825629,
  "nonce": "0x9e2c4397e3496596",
  "difficulty": 3890117726411,
  "gasLimit": {
    "_hex": "0x2fefd8"
  },
  "gasUsed": {
    "_hex": "0xa410"
  },
  "miner": "0xf927a40C8B7F6E07c5af7FA2155B4864a4112B13",
  "extraData": "0x",
  "transactions": [
    {
      "hash": "0x93c7e2c6995919d743ca0c1e3819acdc62ccae5b5a7ac9b66261230bb3ab5619",
      "blockHash": "0x87f62f90c395200b1a8fe7e3431d6b89fd91c1e85fd1f46ea238075ca7aa277f",
      "blockNumber": 101622,
      "transactionIndex": 0,
      "confirmations": null,
      "from": "0x790b8a3cE86E707ED0eD32bF89B3269692a23CC1",
      "gasPrice": {
        "_hex": "0xded135595"
      },
      "gasLimit": {
        "_hex": "0x15f90"
      },
      "to": "0x4D67f4F0Db45b3B5a3424B39ed8d972F710381D5",
      "value": {
        "_hex": "0x2f9e3fb2098f20000"
      },
      "nonce": 31,
      "data": "0x",
      "r": "0x4b6d1c7c6163b25a906d3bf5df2229964fac58fed5ef89770dfa1a94a8451f40",
      "s": "0x6a63297144d0331e8e54ee3baf3c5f406541f42e5a1e3364f240a5093971e330",
      "v": 28,
      "creates": null,
      "raw": "0xf86e1f850ded13559583015f90944d67f4f0db45b3b5a3424b39ed8d972f710381d58902f9e3fb2098f20000801ca04b6d1c7c6163b25a906d3bf5df2229964fac58fed5ef89770dfa1a94a8451f40a06a63297144d0331e8e54ee3baf3c5f406541f42e5a1e3364f240a5093971e330",
      "networkId": 0,
      "chainId": 0
    },
    {
      "hash": "0xa9c140aa1bbcb66a9aa90825f4ea0774d08b100760745f06e14205f83f99d276",
      "blockHash": "0x87f62f90c395200b1a8fe7e3431d6b89fd91c1e85fd1f46ea238075ca7aa277f",
      "blockNumber": 101622,
      "transactionIndex": 1,
      "confirmations": null,
      "from": "0x0D4EcC7d750180EBf4A9Df728B6669B5Bceb5E40",
      "gasPrice": {
        "_hex": "0xd18a6cba9"
      },
      "gasLimit": {
        "_hex": "0x5208"
      },
      "to": "0x32Be343B94f860124dC4fEe278FDCBD38C102D88",
      "value": {
        "_hex": "0x34067ad3d1427c00"
      },
      "nonce": 62,
      "data": "0x",
      "r": "0x6711ec5bafacecb2db0a507538693b53bb75c01e398b7a87f3c0b60148cf9c91",
      "s": "0x2ee326b02509edd89a4c79faaa18508029a7702306b1732ca21b0c54e1c49383",
      "v": 28,
      "creates": null,
      "raw": "0xf86c3e850d18a6cba98252089432be343b94f860124dc4fee278fdcbd38c102d888834067ad3d1427c00801ca06711ec5bafacecb2db0a507538693b53bb75c01e398b7a87f3c0b60148cf9c91a02ee326b02509edd89a4c79faaa18508029a7702306b1732ca21b0c54e1c49383",
      "networkId": 0,
      "chainId": 0
    }
  ]
}