{
  "hash": "0x47be5ae95a6325d87e10d86805d30dd87ef2dd9a27d2d6993c5b849f7f5b483f",
  "parentHash": "0x74da9472b49ba3e9042cdc2fbc1dd0d42f8873f3f5a53d7d5bb0824d5a2cc214",
  "number": 64245,
  "timestamp": 1439217557,
  "nonce": "0x8d942a846b11bd3c",
  "difficulty": 1879416686488,
  "gasLimit": {
    "_hex": "0x2fefd8"
  },
  "gasUsed": {
    "_hex": "0x5208"
  },
  "miner": "0xbb7B8287f3F0a933474a79eAe42CBCa977791171",
  "extraData": "0x476574682f4c5649562f76312e302e312f6c696e75782f676f312e342e32",
  "transactions": [
    {
      "hash": "0xca4596b758bbdfca900405a497096a910b2349efc62437e89e04ae8edf052a3f",
      "blockHash": "0x47be5ae95a6325d87e10d86805d30dd87ef2dd9a27d2d6993c5b849f7f5b483f",
      "blockNumber": 64245,
      "transactionIndex": 0,
      "confirmations": null,
      "from": "0x120A270bbC009644e35F0bB6ab13f95b8199c4ad",
      "gasPrice": {
        "_hex": "0xddcb9f181"
      },
      "gasLimit": {
        "_hex": "0x15f90"
      },
      "to": "0x8AAcA7c86A96D7E1B362E33F6BcBbC5e8B90cC14",
      "value": {
        "_hex": "0x46791fc84e07d00000"
      },
      "nonce": 109,
      "data": "0x",
      "r": "0x89d94578681e2fa917912927161b03eb771b9e9bc75ed3dfed002bb3bceaa69d",
      "s": "0x2beec4433fd06fce00aa16344b8682189ecb6b9bdc49f87027854a9a49905ffb",
      "v": 28,
      "creates": null,
      "raw": "0xf86e6d850ddcb9f18183015f90948aaca7c86a96d7e1b362e33f6bcbbc5e8b90cc148946791fc84e07d00000801ca089d94578681e2fa917912927161b03eb771b9e9bc75ed3dfed002bb3bceaa69da02beec4433fd06fce00aa16344b8682189ecb6b9bdc49f87027854a9a49905ffb",
      "networkId": 0,
      "chainId": 0
    }
  ]
}