{
  "hash": "0x534a0afc799b2e5d4338e4fe69fbce46e15124cba2a7eafdfb131f4974f670b5",
  "parentHash": "0xa2fbb6165690abf617fc86eba7ffb0fa01001057f85f43745f0aa31878a0d075",
  "number": 117097,
  "timestamp": 1440103432,
  "nonce": "0x4f468ef9ebf1de80",
  "difficulty": 4300130823872,
  "gasLimit": {
    "_hex": "0x2fefd8"
  },
  "gasUsed": {
    "_hex": "0x5208"
  },
  "miner": "0xf8E0CA3Ed80bd541b94BEdCf259e8CF2141A9523",
  "extraData": "0x",
  "transactions": [
    {
      "hash": "0x49dfc237c5278a63ce7d9b305cec4b94c7ee57e4a5698e713285787104243dc0",
      "blockHash": "0x534a0afc799b2e5d4338e4fe69fbce46e15124cba2a7eafdfb131f4974f670b5",
      "blockNumber": 117097,
      "transactionIndex": 0,
      "confirmations": null,
      "from": "0x007f7f58D3eb5b7510A301eCC749FC1fCDDBE14D",
      "gasPrice": {
        "_hex": "0xba43b7400"
      },
      "gasLimit": {
        "_hex": "0x15f90"
      },
      "to": "0xb1abce2918E21ddb93AA452731a12672A3d9F75a",
      "value": {
        "_hex": "0x4563918244f40000"
      },
      "nonce": 316,
      "data": "0x",
      "r": "0x7eb5c9867d347ac7105a018cbdb1222fd6fe3b3bca750bfca873c8478d9fafdd",
      "s": "0x4a67bec95ca8dfd313e75a1f8ea39ee36dd59a17a4890d6e0f73929d67eb3002",
      "v": 28,
      "creates": null,
      "raw": "0xf86f82013c850ba43b740083015f9094b1abce2918e21ddb93aa452731a12672a3d9f75a884563918244f40000801ca07eb5c9867d347ac7105a018cbdb1222fd6fe3b3bca750bfca873c8478d9fafdda04a67bec95ca8dfd313e75a1f8ea39ee36dd59a17a4890d6e0f73929d67eb3002",
      "networkId": 0,
      "chainId": 0
    }
  ]
}