{
  "hash": "0x4c06955aae1286eaf65e34687388d5684ce080e43cbf67dbdb80d5a1fe55d204",
  "parentHash": "0x7d6a57d8f5e6a7f659bb25ba8694189d6715d2885bafb6a7f43b89d57a76ef44",
  "number": 94126,
  "timestamp": 1439703090,
  "nonce": "0xbb5622f4c408102f",
  "difficulty": 3473195947545,
  "gasLimit": {
    "_hex": "0x2fefd8"
  },
  "gasUsed": {
    "_hex": "0x5618"
  },
  "miner": "0xe6A7a1d47ff21B6321162AEA7C6CB457D5476Bca",
  "extraData": "0x476574682f76312e302e312d38326566323666362f6c696e75782f676f312e34",
  "transactions": [
    {
      "hash": "0x9681768d061796755ca8ddf537c7f5c76e4751cb3f7da952134bb3c160c978f2",
      "blockHash": "0x4c06955aae1286eaf65e34687388d5684ce080e43cbf67dbdb80d5a1fe55d204",
      "blockNumber": 94126,
      "transactionIndex": 0,
      "confirmations": null,
      "from": "0xC6aAb39538082C5f61BEf748D7442Ce50C0cb71e",
      "gasPrice": {
        "_hex": "0xcc7241c41"
      },
      "gasLimit": {
        "_hex": "0x15f90"
      },
      "to": "0x0000000000000000000000000000000000000000",
      "value": {
        "_hex": "0x0"
      },
      "nonce": 1,
      "data": "0x432ced046d61726b786d6179657200000000000000000000000000000000000000000000",
      "r": "0x01b629de12dc23057b76f478c023eb28127d891e2bc2d1bceb913563bcfb9963",
      "s": "0x4e0b241b943b2e32785d67b455f20b5e09d4b61bf26ae7ff8688e0bef1fc867b",
      "v": 27,
      "creates": null,
      "raw": "0xf88901850cc7241c4183015f9094000000000000000000000000000000000000000080a4432ced046d61726b786d61796572000000000000000000000000000000000000000000001ba001b629de12dc23057b76f478c023eb28127d891e2bc2d1bceb913563bcfb9963a04e0b241b943b2e32785d67b455f20b5e09d4b61bf26ae7ff8688e0bef1fc867b",
      "networkId": 0,
      "chainId": 0
    }
  ]
}