{
  "hash": "0x8e3056b6e34c68aef1d4119425562e624179c00dd1fc4ed4d41883df0f20aae3",
  "parentHash": "0x4da0a5a0a583642d9f1852de5a454372f0283ff2198d53371aa9b719feb623b2",
  "number": 73719,
  "timestamp": 1439373763,
  "nonce": "0x3f13353c3a52747b",
  "difficulty": 2224993412723,
  "gasLimit": {
    "_hex": "0x2fefd5"
  },
  "gasUsed": {
    "_hex": "0x1c2a3"
  },
  "miner": "0x458F183347F45a4001807728A89F31E9Da9D4A58",
  "extraData": "0x476574682f76312e302e312d38326566323666362f6c696e75782f676f312e34",
  "transactions": [
    {
      "hash": "0xdd6a900124c7fbeeda8ef9d7811659c47acf2d63019e4ab9418e21205a7425c0",
      "blockHash": "0x8e3056b6e34c68aef1d4119425562e624179c00dd1fc4ed4d41883df0f20aae3",
      "blockNumber": 73719,
      "transactionIndex": 0,
      "confirmations": null,
      "from": "0x32Be343B94f860124dC4fEe278FDCBD38C102D88",
      "gasPrice": {
        "_hex": "0xd46bb6c70"
      },
      "gasLimit": {
        "_hex": "0x5208"
      },
      "to": "0x94f3C7b9870A6685bA2ae7346561dD52Ea10ce77",
      "value": {
        "_hex": "0x56bc75e2d63100000"
      },
      "nonce": 302,
      "data": "0x",
      "r": "0xb6474948ce4ad5c3111916d7067a88a8a88aa2a955df8b9183c53f33d0742931",
      "s": "0x40eebaea898aac3ced60a0498c32db08a884e18653ae8a5b25b4580a71f42c99",
      "v": 28,
      "creates": null,
      "raw": "0xf86f82012e850d46bb6c708252089494f3c7b9870a6685ba2ae7346561dd52ea10ce7789056bc75e2d63100000801ca0b6474948ce4ad5c3111916d7067a88a8a88aa2a955df8b9183c53f33d0742931a040eebaea898aac3ced60a0498c32db08a884e18653ae8a5b25b4580a71f42c99",
      "networkId": 0,
      "chainId": 0
    },
    {
      "hash": "0x54f72656d1f2b991b970d3715e8ddcaab5d0df65b20b4a1e65c1abf0497d29d1",
      "blockHash": "0x8e3056b6e34c68aef1d4119425562e624179c00dd1fc4ed4d41883df0f20aae3",
      "blockNumber": 73719,
      "transactionIndex": 1,
      "confirmations": null,
      "from": "0x32Be343B94f860124dC4fEe278FDCBD38C102D88",
      "gasPrice": {
        "_hex": "0xd46bb6c70"
      },
      "gasLimit": {
        "_hex": "0x5208"
      },
      "to": "0x137f077E020E551cCEf5151096F0996cA6452742",
      "value": {
        "_hex": "0x56bc75e2d63100000"
      },
      "nonce": 303,
      "data": "0x",
      "r": "0x69a5ff3757e17402628bc20ac6f46d5d4f9ad6b8ad57bd6e7dbb485fd553f64d",
      "s": "0x64417539754690e3a8da2f38d022a9f629ae3b06e43526e9ce4e3a63ac035938",
      "v": 27,
      "creates": null,
      "raw": "0xf86f82012f850d46bb6c7082520894137f077e020e551ccef5151096f0996ca645274289056bc75e2d63100000801ba069a5ff3757e17402628bc20ac6f46d5d4f9ad6b8ad57bd6e7dbb485fd553f64da064417539754690e3a8da2f38d022a9f629ae3b06e43526e9ce4e3a63ac035938",
      "networkId": 0,
      "chainId": 0
    },
    {
      "hash": "0xf177b6b9e147a97016577f2ccdd0af33941d344341b270b853bad3e526e39c49",
      "blockHash": "0x8e3056b6e34c68aef1d4119425562e624179c00dd1fc4ed4d41883df0f20aae3",
      "blockNumber": 73719,
      "transactionIndex": 2,
      "confirmations": null,
      "from": "0x32Be343B94f860124dC4fEe278FDCBD38C102D88",
      "gasPrice": {
        "_hex": "0xd46bb6c70"
      },
      "gasLimit": {
        "_hex": "0x5208"
      },
      "to": "0xF5117B883DAaA56B80412AFa6A218410F54eE64E",
      "value": {
        "_hex": "0x56bc75e2d63100000"
      },
      "nonce": 304,
      "data": "0x",
      "r": "0x0377bc6d9ac2a01f6dd15f062cd7dd425700b51eaf9ffa41786c1aee34531235",
      "s": "0x3f5c318173616031a93202bd12fc8a7b68e9f2f08198cf4c7c2679de8e07238e",
      "v": 28,
      "creates": null,
      "raw": "0xf86f820130850d46bb6c7082520894f5117b883daaa56b80412afa6a218410f54ee64e89056bc75e2d63100000801ca00377bc6d9ac2a01f6dd15f062cd7dd425700b51eaf9ffa41786c1aee34531235a03f5c318173616031a93202bd12fc8a7b68e9f2f08198cf4c7c2679de8e07238e",
      "networkId": 0,
      "chainId": 0
    },
    {
      "hash": "0xf013d57b866ee0d9a111bc3489345ee2aa0e64f410ce3682f17f47fc119f68fa",
      "blockHash": "0x8e3056b6e34c68aef1d4119425562e624179c00dd1fc4ed4d41883df0f20aae3",
      "blockNumber": 73719,
      "transactionIndex": 3,
      "confirmations": null,
      "from": "0x32Be343B94f860124dC4fEe278FDCBD38C102D88",
      "gasPrice": {
        "_hex": "0xd46bb6c70"
      },
      "gasLimit": {
        "_hex": "0x5208"
      },
      "to": "0x528435538B490Dc6AD9b1d9279459B07b3062644",
      "value": {
        "_hex": "0x56bc75e2d63100000"
      },
      "nonce": 305,
      "data": "0x",
      "r": "0x8a6ae174667bbc18a5bb62ab2b9944e1bb391ee9ca06e4e515b45fd940151285",
      "s": "0x4aa952e47ffe4a509f231540a1628df5261520b07e06ce48681fb100f30eca2a",
      "v": 28,
      "creates": null,
      "raw": "0xf86f820131850d46bb6c7082520894528435538b490dc6ad9b1d9279459b07b306264489056bc75e2d63100000801ca08a6ae174667bbc18a5bb62ab2b9944e1bb391ee9ca06e4e515b45fd940151285a04aa952e47ffe4a509f231540a1628df5261520b07e06ce48681fb100f30eca2a",
      "networkId": 0,
      "chainId": 0
    },
    {
      "hash": "0xb3539b4927bb8c6f0cd7bf8320e2efd4eb9d72dcf1748619678479fe23aa9014",
      "blockHash": "0x8e3056b6e34c68aef1d4119425562e624179c00dd1fc4ed4d41883df0f20aae3",
      "blockNumber": 73719,
      "transactionIndex": 4,
      "confirmations": null,
      "from": "0xD1826373C4E0938f0b4302B40324f7f9c546492C",
      "gasPrice": {
        "_hex": "0xd35f6ba62"
      },
      "gasLimit": {
        "_hex": "0x30d40"
      },
      "to": "0x465b83e4b4C0294Bf6d374d4733B95bb150bD21C",
      "value": {
        "_hex": "0x38d7ea4c68000"
      },
      "nonce": 8,
      "data": "0x",
      "r": "0x873a802d9a45fc13a1a0f8cf7c0ce4ce735aeaf7bdede12c0b0417f0d9ac1176",
      "s": "0x3a082c51c0228f15d0ded56cbbcbd567016ec381b0a1dcc6b1563bade6bc61e3",
      "v": 27,
      "creates": null,
      "raw": "0xf86c08850d35f6ba6283030d4094465b83e4b4c0294bf6d374d4733b95bb150bd21c87038d7ea4c68000801ba0873a802d9a45fc13a1a0f8cf7c0ce4ce735aeaf7bdede12c0b0417f0d9ac1176a03a082c51c0228f15d0ded56cbbcbd567016ec381b0a1dcc6b1563bade6bc61e3",
      "networkId": 0,
      "chainId": 0
    }
  ]
}