{
  "hash": "0x9f5343163bde0e412368e8fa78591983c054eadd417a2aed2af3900f45224ec7",
  "parentHash": "0x7ec93c35a96ab64f8ca46d1e428ed825b1cf06e8c29532762f12e6ae407dde7b",
  "number": 102714,
  "timestamp": 1439842024,
  "nonce": "0xdba9043459201406",
  "difficulty": 4052463114692,
  "gasLimit": {
    "_hex": "0x2fefd8"
  },
  "gasUsed": {
    "_hex": "0x20fc6"
  },
  "miner": "0xa50ec0D39fa913E62f1Bae7074E6F36caA71855b",
  "extraData": "0xd783010001844765746887676f312e342e32856c696e7578",
  "transactions": [
    {
      "hash": "0x8c11fadab45f02ca6ff6ccba726ea98ad955c00e31cc5eae2286d09a5e991b03",
      "blockHash": "0x9f5343163bde0e412368e8fa78591983c054eadd417a2aed2af3900f45224ec7",
      "blockNumber": 102714,
      "transactionIndex": 0,
      "confirmations": null,
      "from": "0xd9c4a7022Acb3543826B6C1667FAd470f65f262E",
      "gasPrice": {
        "_hex": "0xdbd8646f5"
      },
      "gasLimit": {
        "_hex": "0x5208"
      },
      "to": "0xFBb1b73C4f0BDa4f67dcA266ce6Ef42f520fBB98",
      "value": {
        "_hex": "0x16713f8873550a4e58"
      },
      "nonce": 1,
      "data": "0x",
      "r": "0x11be1e9a4267c20499ad43ff5dea72467c2253dbb94e4056c9fc2b34dc0a3620",
      "s": "0x6282deef67844f68acdf1083cdbe615bc04935117d119c794f7a239623d23b1e",
      "v": 27,
      "creates": null,
      "raw": "0xf86d01850dbd8646f582520894fbb1b73c4f0bda4f67dca266ce6ef42f520fbb988916713f8873550a4e58801ba011be1e9a4267c20499ad43ff5dea72467c2253dbb94e4056c9fc2b34dc0a3620a06282deef67844f68acdf1083cdbe615bc04935117d119c794f7a239623d23b1e",
      "networkId": 0,
      "chainId": 0
    },
    {
      "hash": "0xd6ddd8167b24880aff13603972ca3cc9a438e9fda2febeb2c1743684727e6bf3",
      "blockHash": "0x9f5343163bde0e412368e8fa78591983c054eadd417a2aed2af3900f45224ec7",
      "blockNumber": 102714,
      "transactionIndex": 1,
      "confirmations": null,
      "from": "0x96dadE6c87E483acb081E9f669B4fc029a440E8B",
      "gasPrice": {
        "_hex": "0xd1f217cbf"
      },
      "gasLimit": {
        "_hex": "0x249f0"
      },
      "to": "0xE28e72FCf78647ADCe1F1252F240bbfaebD63BcC",
      "value": {
        "_hex": "0x1043561a8829300000"
      },
      "nonce": 3,
      "data": "0x45466f3a",
      "r": "0x66eadd476a2cba1c396e03f8d17f001e2d4fb370c8f7a54e5fab2e03a3ad10da",
      "s": "0x19283d7ef5fb7f0895614d2092255124b71979848504e3d6402c164bef47f0ca",
      "v": 27,
      "creates": null,
      "raw": "0xf87203850d1f217cbf830249f094e28e72fcf78647adce1f1252f240bbfaebd63bcc891043561a88293000008445466f3a1ba066eadd476a2cba1c396e03f8d17f001e2d4fb370c8f7a54e5fab2e03a3ad10daa019283d7ef5fb7f0895614d2092255124b71979848504e3d6402c164bef47f0ca",
      "networkId": 0,
      "chainId": 0
    }
  ]
}