{
  "hash": "0x63c3cf5f25af258c20da52da9d8e9f85ede30a5a54fadacd9bb1299bb198452b",
  "parentHash": "0x9f5156f809627a466484c8aeecaf1952ec3831dde3c1ec716e29703a65f3c206",
  "number": 104961,
  "timestamp": 1439879147,
  "nonce": "0x072184e5411c7360",
  "difficulty": 4335895262590,
  "gasLimit": {
    "_hex": "0x2fefd8"
  },
  "gasUsed": {
    "_hex": "0x5208"
  },
  "miner": "0x77EC9ad4A7E9418774C29415CAaF4Ee0da96eF64",
  "extraData": "0x",
  "transactions": [
    {
      "hash": "0x53cced7c6cc72a7f03d3ad71b2ec3099ac33659688ff0f323eaf3c00458d8567",
      "blockHash": "0x63c3cf5f25af258c20da52da9d8e9f85ede30a5a54fadacd9bb1299bb198452b",
      "blockNumber": 104961,
      "transactionIndex": 0,
      "confirmations": null,
      "from": "0x259ce58778abd156fC9084AB53322FEA6EeC550E",
      "gasPrice": {
        "_hex": "0xd699fbe1a"
      },
      "gasLimit": {
        "_hex": "0x15f90"
      },
      "to": "0xD3A57C79fde37eD4Ed9991638f3C0a59413a3C0F",
      "value": {
        "_hex": "0x361f955640060000"
      },
      "nonce": 2,
      "data": "0x",
      "r": "0x0d6ec07edb0ab4941d606432fe96c2ebe27265663287fbcb53d16b25c1186f77",
      "s": "0x524b057de5bb61351f4af4c33045441b20cf261e309f402cc9cf4141107c3b8a",
      "v": 28,
      "creates": null,
      "raw": "0xf86d02850d699fbe1a83015f9094d3a57c79fde37ed4ed9991638f3c0a59413a3c0f88361f955640060000801ca00d6ec07edb0ab4941d606432fe96c2ebe27265663287fbcb53d16b25c1186f77a0524b057de5bb61351f4af4c33045441b20cf261e309f402cc9cf4141107c3b8a",
      "networkId": 0,
      "chainId": 0
    }
  ]
}