{
  "hash": "0x86f353e6057009b13b8bcc29d687f421f90ab34b0adade05223131e55d56d4cc",
  "parentHash": "0x987f9ee77679748b661f37c9c528591392adc7d9fb162a1d5674f496621bcba3",
  "number": 108975,
  "timestamp": 1439949163,
  "nonce": "0xd77b9254c70ebee4",
  "difficulty": 4393479361728,
  "gasLimit": {
    "_hex": "0x2fefd8"
  },
  "gasUsed": {
    "_hex": "0xa410"
  },
  "miner": "0x007f7f58D3eb5b7510A301eCC749FC1fCDDBE14D",
  "extraData": "0x476574682f76312e302e312f77696e646f77732f676f312e342e32",
  "transactions": [
    {
      "hash": "0xce9f6bb0f69fe5abce2f9b2bc769743a3c41c501890fb01e590c598529a40be2",
      "blockHash": "0x86f353e6057009b13b8bcc29d687f421f90ab34b0adade05223131e55d56d4cc",
      "blockNumber": 108975,
      "transactionIndex": 0,
      "confirmations": null,
      "from": "0x92431Ac2B781ACCc78810fb7ad52CD608f23bE49",
      "gasPrice": {
        "_hex": "0xde4828aa6"
      },
      "gasLimit": {
        "_hex": "0x15f90"
      },
      "to": "0xefe8745972E5cF49d99F05a72ad83A23db5D0A07",
      "value": {
        "_hex": "0x1043329395b96f0000"
      },
      "nonce": 0,
      "data": "0x",
      "r": "0x27d757fd8318b7b4c63b96b5c1b2d8455a914766519f1721eea55cd3481ec168",
      "s": "0x3f4c8916cbc48cfc0a129138ce514ceb7953fafe7d5602b86e4135d0937b57ec",
      "v": 28,
      "creates": null,
      "raw": "0xf86e80850de4828aa683015f9094efe8745972e5cf49d99f05a72ad83a23db5d0a07891043329395b96f0000801ca027d757fd8318b7b4c63b96b5c1b2d8455a914766519f1721eea55cd3481ec168a03f4c8916cbc48cfc0a129138ce514ceb7953fafe7d5602b86e4135d0937b57ec",
      "networkId": 0,
      "chainId": 0
    },
    {
      "hash": "0x08cd7c2d28a57d15622ae698984a50fe673fcfc9f9b7afb8d70886ad65f4b297",
      "blockHash": "0x86f353e6057009b13b8bcc29d687f421f90ab34b0adade05223131e55d56d4cc",
      "blockNumber": 108975,
      "transactionIndex": 1,
      "confirmations": null,
      "from": "0x32Be343B94f860124dC4fEe278FDCBD38C102D88",
      "gasPrice": {
        "_hex": "0xcece758fc"
      },
      "gasLimit": {
        "_hex": "0x5208"
      },
      "to": "0xe275C9b8990069b909572AD61eE5172586Ca535c",
      "value": {
        "_hex": "0x1b1ac14ff07f8f0000"
      },
      "nonce": 1265,
      "data": "0x",
      "r": "0x3dcd1d129c28066b56e0c033263b4557d50ea0a456e34c8bf7270de6cfad93b7",
      "s": "0x05656df6e1dcaf8ec8a7379a25c9b2deea3a2d2cf05eb79ddea878ed65092176",
      "v": 28,
      "creates": null,
      "raw": "0xf86f8204f1850cece758fc82520894e275c9b8990069b909572ad61ee5172586ca535c891b1ac14ff07f8f0000801ca03dcd1d129c28066b56e0c033263b4557d50ea0a456e34c8bf7270de6cfad93b7a005656df6e1dcaf8ec8a7379a25c9b2deea3a2d2cf05eb79ddea878ed65092176",
      "networkId": 0,
      "chainId": 0
    }
  ]
}