{
  "hash": "0x2b180cb130b3d9c09de110d2128e321f312f523bfc31a400bb647592f74aa65b",
  "parentHash": "0x42573dbbe023d9b10eeff2f4d09d779bce5b80a79c828b047b87620a6c925562",
  "number": 102116,
  "timestamp": 1439833168,
  "nonce": "0xb995621be9fa0992",
  "difficulty": 3893689221604,
  "gasLimit": {
    "_hex": "0x2fefd8"
  },
  "gasUsed": {
    "_hex": "0xf618"
  },
  "miner": "0xC978e305Aaa59952FAb39Ba288d6E9CB09B952E1",
  "extraData": "0x476574682f76312e302e312f77696e646f77732f676f312e342e32",
  "transactions": [
    {
      "hash": "0x5b216c0ce105cba07cc3aaef6aac1003747d6f8d07cf64372378c2fc950596ad",
      "blockHash": "0x2b180cb130b3d9c09de110d2128e321f312f523bfc31a400bb647592f74aa65b",
      "blockNumber": 102116,
      "transactionIndex": 0,
      "confirmations": null,
      "from": "0x3bFc4B3A53996526FA62CD808a89424B6957013c",
      "gasPrice": {
        "_hex": "0xceff836b1"
      },
      "gasLimit": {
        "_hex": "0x5208"
      },
      "to": "0x32Be343B94f860124dC4fEe278FDCBD38C102D88",
      "value": {
        "_hex": "0x1267c9083cbf6d000"
      },
      "nonce": 1,
      "data": "0x",
      "r": "0x3d2532ef3aa73630a58988ebb84f0d4fc4ac01011cbd27999401954c7aa3076c",
      "s": "0x7230dd508a728957a01be317bf186c5c750607f063a5401c33567e560238a8bb",
      "v": 27,
      "creates": null,
      "raw": "0xf86d01850ceff836b18252089432be343b94f860124dc4fee278fdcbd38c102d888901267c9083cbf6d000801ba03d2532ef3aa73630a58988ebb84f0d4fc4ac01011cbd27999401954c7aa3076ca07230dd508a728957a01be317bf186c5c750607f063a5401c33567e560238a8bb",
      "networkId": 0,
      "chainId": 0
    },
    {
      "hash": "0x618e13e7fa009f37851e63ab1d1f52eee3c3a132da05889e476776e819010579",
      "blockHash": "0x2b180cb130b3d9c09de110d2128e321f312f523bfc31a400bb647592f74aa65b",
      "blockNumber": 102116,
      "transactionIndex": 1,
      "confirmations": null,
      "from": "0x9d0D51Aa42b97151aaCa5876a743172C8c04f09E",
      "gasPrice": {
        "_hex": "0xceff836b1"
      },
      "gasLimit": {
        "_hex": "0x5208"
      },
      "to": "0x32Be343B94f860124dC4fEe278FDCBD38C102D88",
      "value": {
        "_hex": "0x56bc338e7f72ac000"
      },
      "nonce": 1,
      "data": "0x",
      "r": "0xbca3294a63910051bfade8f14075067432bbb268eec19121867523a49a25d920",
      "s": "0x1a750df96cd59405c36227bf0650d2d6fb2ee00183cb625f533b5a5df522a0e4",
      "v": 27,
      "creates": null,
      "raw": "0xf86d01850ceff836b18252089432be343b94f860124dc4fee278fdcbd38c102d8889056bc338e7f72ac000801ba0bca3294a63910051bfade8f14075067432bbb268eec19121867523a49a25d920a01a750df96cd59405c36227bf0650d2d6fb2ee00183cb625f533b5a5df522a0e4",
      "networkId": 0,
      "chainId": 0
    },
    {
      "hash": "0x39aab74b0b50c3e6d25ab9da229ebd84f038b6ca7e258e7e9f24da4e6ede042a",
      "blockHash": "0x2b180cb130b3d9c09de110d2128e321f312f523bfc31a400bb647592f74aa65b",
      "blockNumber": 102116,
      "transactionIndex": 2,
      "confirmations": null,
      "from": "0x6724EFf089f9dD79c381137DF68678bD574B37e0",
      "gasPrice": {
        "_hex": "0xceff836b1"
      },
      "gasLimit": {
        "_hex": "0x5208"
      },
      "to": "0x32Be343B94f860124dC4fEe278FDCBD38C102D88",
      "value": {
        "_hex": "0x1fb63659011f850000"
      },
      "nonce": 4,
      "data": "0x",
      "r": "0x46ee5b02703deeb953676db5b6c916899289825e1ca60cd86383bbc326659435",
      "s": "0x402e14ae978d8519060b74a83635027a60362b2721b630fa32165baef46a64c7",
      "v": 28,
      "creates": null,
      "raw": "0xf86d04850ceff836b18252089432be343b94f860124dc4fee278fdcbd38c102d88891fb63659011f850000801ca046ee5b02703deeb953676db5b6c916899289825e1ca60cd86383bbc326659435a0402e14ae978d8519060b74a83635027a60362b2721b630fa32165baef46a64c7",
      "networkId": 0,
      "chainId": 0
    }
  ]
}