{
  "hash": "0x8050788ab8d0728fc6d81a6255e18ef283d54371f88742a75d34098427943886",
  "parentHash": "0xfb1085b0bbb65243d1d5261973b1e4e699f08ce4e071b64fdb0a55d0b2ad9335",
  "number": 102492,
  "timestamp": 1439838843,
  "nonce": "0x9692ecd750b98f99",
  "difficulty": 3958692663695,
  "gasLimit": {
    "_hex": "0x2fefd8"
  },
  "gasUsed": {
    "_hex": "0x5458"
  },
  "miner": "0xe6A7a1d47ff21B6321162AEA7C6CB457D5476Bca",
  "extraData": "0x476574682f76312e302e312d38326566323666362f6c696e75782f676f312e34",
  "transactions": [
    {
      "hash": "0xa8d767bad16f301d26def3b171e8600b2bdc5b9f37aed59c7e9de08711079f81",
      "blockHash": "0x8050788ab8d0728fc6d81a6255e18ef283d54371f88742a75d34098427943886",
      "blockNumber": 102492,
      "transactionIndex": 0,
      "confirmations": null,
      "from": "0x91d32201228cd1Dea4e21d71f7A9e0CeF5de4A39",
      "gasPrice": {
        "_hex": "0xe17a8ca28"
      },
      "gasLimit": {
        "_hex": "0x493e0"
      },
      "to": "0x91d32201228cd1Dea4e21d71f7A9e0CeF5de4A39",
      "value": {
        "_hex": "0xde0b6b3a7640000"
      },
      "nonce": 6,
      "data": "0x8d21618600000000000000000000000000000000000000000000000000000000000000800000000000000000000000000000000000000000000000000000000000000000",
      "r": "0x8ff8367b9f3d7db689f74431350b7137813285d5e232497666f5f9efbfa71a6d",
      "s": "0x59376bfee30ca9d40b58f6b20b07c56fb6250664a2129923171ccabb6fdafbfa",
      "v": 28,
      "creates": null,
      "raw": "0xf8b206850e17a8ca28830493e09491d32201228cd1dea4e21d71f7a9e0cef5de4a39880de0b6b3a7640000b8448d216186000000000000000000000000000000000000000000000000000000000000008000000000000000000000000000000000000000000000000000000000000000001ca08ff8367b9f3d7db689f74431350b7137813285d5e232497666f5f9efbfa71a6da059376bfee30ca9d40b58f6b20b07c56fb6250664a2129923171ccabb6fdafbfa",
      "networkId": 0,
      "chainId": 0
    }
  ]
}