{
  "hash": "0x0fb74483b7f288aeca2c668a5cab9070107c55da83a34af8d51c454c2060391a",
  "parentHash": "0x301abe9a3466a704cf8e1e19b470e2d640d0186e2d2a4a163f4e680a12f49c5b",
  "number": 117267,
  "timestamp": 1440106344,
  "nonce": "0x44271e3a0fcd5b05",
  "difficulty": 4321091332859,
  "gasLimit": {
    "_hex": "0x2fefd8"
  },
  "gasUsed": {
    "_hex": "0x5208"
  },
  "miner": "0xe6A7a1d47ff21B6321162AEA7C6CB457D5476Bca",
  "extraData": "0xd783010002844765746887676f312e342e32856c696e7578",
  "transactions": [
    {
      "hash": "0x55d90b82c4625305c0cc0261c683ede7ac3c011d95231cdeb7ea4c0ce544ed8d",
      "blockHash": "0x0fb74483b7f288aeca2c668a5cab9070107c55da83a34af8d51c454c2060391a",
      "blockNumber": 117267,
      "transactionIndex": 0,
      "confirmations": null,
      "from": "0x2910543Af39abA0Cd09dBb2D50200b3E800A63D2",
      "gasPrice": {
        "_hex": "0xba43b7400"
      },
      "gasLimit": {
        "_hex": "0x5208"
      },
      "to": "0xd9c4a7022Acb3543826B6C1667FAd470f65f262E",
      "value": {
        "_hex": "0x8d60290ea5ccb8000"
      },
      "nonce": 1148,
      "data": "0x",
      "r": "0x8c233ca6ab138430024f7ca48e411f458a105aeda1a6123276150472d953836f",
      "s": "0x1321dd3e17e2ba4a1f89d96dc2adabf1e9f9c80f5e899d5c1bdf8714f6af0780",
      "v": 28,
      "creates": null,
      "raw": "0xf86f82047c850ba43b740082520894d9c4a7022acb3543826b6c1667fad470f65f262e8908d60290ea5ccb8000801ca08c233ca6ab138430024f7ca48e411f458a105aeda1a6123276150472d953836fa01321dd3e17e2ba4a1f89d96dc2adabf1e9f9c80f5e899d5c1bdf8714f6af0780",
      "networkId": 0,
      "chainId": 0
    }
  ]
}