{
  "hash": "0xd5b9139c187a3ba1bd540e8c3ebd7eaadfd0b3ad718a1e40512f7fd4ae3005d6",
  "parentHash": "0x109533a389fd2148dc8c5e8226e92d2cb9bae414f326172342c8032d70f6b755",
  "number": 46468,
  "timestamp": 1438923669,
  "nonce": "0xd4816af7f417ac39",
  "difficulty": 1467512661916,
  "gasLimit": {
    "_hex": "0x62bc"
  },
  "gasUsed": {
    "_hex": "0x5208"
  },
  "miner": "0x356CEFb4Eb836DC68403308309E075a31DD991D2",
  "extraData": "0x476574682f76312e302e302f6c696e75782f676f312e342e32",
  "transactions": [
    {
      "hash": "0x1039a9e9cf7271f07e873d362e2f6ae0c39a771914925a9385adca2f60ca6555",
      "blockHash": "0xd5b9139c187a3ba1bd540e8c3ebd7eaadfd0b3ad718a1e40512f7fd4ae3005d6",
      "blockNumber": 46468,
      "transactionIndex": 0,
      "confirmations": null,
      "from": "0x543807d0aF2c58b49d7F25659D0472d4d8B8e8DA",
      "gasPrice": {
        "_hex": "0x746a528800"
      },
      "gasLimit": {
        "_hex": "0x5208"
      },
      "to": "0x32Be343B94f860124dC4fEe278FDCBD38C102D88",
      "value": {
        "_hex": "0x5bee658b18d43c000"
      },
      "nonce": 0,
      "data": "0x",
      "r": "0xbe42ea50c84486202ec1d145409212c1319bd05a5014320cb19aa592ee88f0c7",
      "s": "0x68423b287078a671d49571bbc369d430609cd36fb62c2649e51606f4e15b9d81",
      "v": 28,
      "creates": null,
      "raw": "0xf86d8085746a5288008252089432be343b94f860124dc4fee278fdcbd38c102d888905bee658b18d43c000801ca0be42ea50c84486202ec1d145409212c1319bd05a5014320cb19aa592ee88f0c7a068423b287078a671d49571bbc369d430609cd36fb62c2649e51606f4e15b9d81",
      "networkId": 0,
      "chainId": 0
    }
  ]
}