{
  "hash": "0xc6636531c8c8ab8e1a2fc2e801d3d305bf600b03652e1967c8ee39b5662e68f2",
  "parentHash": "0x3f07fc06a3f18ed3fb80c52b202c73cb8b3e1dbe975ff254e38b3f475c492321",
  "number": 86202,
  "timestamp": 1439575102,
  "nonce": "0xe595f00b020f179b",
  "difficulty": 2815337900973,
  "gasLimit": {
    "_hex": "0x2fefd8"
  },
  "gasUsed": {
    "_hex": "0xa410"
  },
  "miner": "0x6bA20db629F46Fa525F5080d151B714a758dDff2",
  "extraData": "0x476574682f76312e302e312f77696e646f77732f676f312e342e32",
  "transactions": [
    {
      "hash": "0xc746540ed039e10ac70dda7e29b73daa034e94b88f9c0017cc6069acdcc370a3",
      "blockHash": "0xc6636531c8c8ab8e1a2fc2e801d3d305bf600b03652e1967c8ee39b5662e68f2",
      "blockNumber": 86202,
      "transactionIndex": 0,
      "confirmations": null,
      "from": "0x6FdA00F80228f360b0CCce26c1858C722aE0dc74",
      "gasPrice": {
        "_hex": "0xcf21b24dc"
      },
      "gasLimit": {
        "_hex": "0x5208"
      },
      "to": "0x32Be343B94f860124dC4fEe278FDCBD38C102D88",
      "value": {
        "_hex": "0x6c6b7d721e7a000000"
      },
      "nonce": 1,
      "data": "0x",
      "r": "0xfab8ed427cd01eab312771898c00b41cbf18bfffe4190cc771a3defcd09fec22",
      "s": "0x0c6ea95b27489a88fe72a783c232d4614c26594b2c1c96ff7769e21b3b90cf9d",
      "v": 27,
      "creates": null,
      "raw": "0xf86d01850cf21b24dc8252089432be343b94f860124dc4fee278fdcbd38c102d88896c6b7d721e7a000000801ba0fab8ed427cd01eab312771898c00b41cbf18bfffe4190cc771a3defcd09fec22a00c6ea95b27489a88fe72a783c232d4614c26594b2c1c96ff7769e21b3b90cf9d",
      "networkId": 0,
      "chainId": 0
    },
    {
      "hash": "0xdfca582a97c3a0aa33ef4716d8bc167a209b2928b6d957d3b19ea5b031eff764",
      "blockHash": "0xc6636531c8c8ab8e1a2fc2e801d3d305bf600b03652e1967c8ee39b5662e68f2",
      "blockNumber": 86202,
      "transactionIndex": 1,
      "confirmations": null,
      "from": "0x32Be343B94f860124dC4fEe278FDCBD38C102D88",
      "gasPrice": {
        "_hex": "0xcf21b24dc"
      },
      "gasLimit": {
        "_hex": "0x5208"
      },
      "to": "0x7cA26E2f6d958364eC65090AAf788bD0a67fe130",
      "value": {
        "_hex": "0x40e9d177d62480000"
      },
      "nonce": 750,
      "data": "0x",
      "r": "0x6743461d67b3014affe9d28759e996f7c29ffb3e426497f09596862fcea7c762",
      "s": "0x0c74f453a17914838e1394cf7cf9c0be3d34648f6b34adf822df121b16243b2a",
      "v": 28,
      "creates": null,
      "raw": "0xf86f8202ee850cf21b24dc825208947ca26e2f6d958364ec65090aaf788bd0a67fe13089040e9d177d62480000801ca06743461d67b3014affe9d28759e996f7c29ffb3e426497f09596862fcea7c762a00c74f453a17914838e1394cf7cf9c0be3d34648f6b34adf822df121b16243b2a",
      "networkId": 0,
      "chainId": 0
    }
  ]
}