{
  "hash": "0x931c1270f457064696ca5e0368cf7810d06a0973cb5af0bc39038f818fb09a26",
  "parentHash": "0xa6daddd2ef0e9b179d559f2c3e651fd69f03bd7cea74ea25f5ca5a9c65ad2830",
  "number": 119538,
  "timestamp": 1440144587,
  "nonce": "0x8e31b9fe3335c442",
  "difficulty": 4394382912113,
  "gasLimit": {
    "_hex": "0x2fefd8"
  },
  "gasUsed": {
    "_hex": "0x5208"
  },
  "miner": "0xe6A7a1d47ff21B6321162AEA7C6CB457D5476Bca",
  "extraData": "0xd783010002844765746887676f312e342e32856c696e7578",
  "transactions": [
    {
      "hash": "0x56f0d14e5d4b7854476f649b3e2371a3c0f11f3fbd695ee179491344fc58fce2",
      "blockHash": "0x931c1270f457064696ca5e0368cf7810d06a0973cb5af0bc39038f818fb09a26",
      "blockNumber": 119538,
      "transactionIndex": 0,
      "confirmations": null,
      "from": "0x9252f10822221Afe05035227D96a9b5B2b50349B",
      "gasPrice": {
        "_hex": "0xba43b7400"
      },
      "gasLimit": {
        "_hex": "0x5208"
      },
      "to": "0x32Be343B94f860124dC4fEe278FDCBD38C102D88",
      "value": {
        "_hex": "0xddcfbbb7a606000"
      },
      "nonce": 5,
      "data": "0x",
      "r": "0x58f887a109fcf15e6b0265f58b1c97cc98406f5b9a495881bd7c57a075e40361",
      "s": "0x36ddedaf55074684f179a2b6838d89a1ebc7e0b5d08fe9372b9c6d03c2b10ccb",
      "v": 28,
      "creates": null,
      "raw": "0xf86c05850ba43b74008252089432be343b94f860124dc4fee278fdcbd38c102d88880ddcfbbb7a606000801ca058f887a109fcf15e6b0265f58b1c97cc98406f5b9a495881bd7c57a075e40361a036ddedaf55074684f179a2b6838d89a1ebc7e0b5d08fe9372b9c6d03c2b10ccb",
      "networkId": 0,
      "chainId": 0
    }
  ]
}