{
  "hash": "0xaabb09771b71c2a066cd8d6906cf170916554ac7659587be444d39051438841b",
  "parentHash": "0x1ba92cf995faf4568471823fe15411c19b6eb9dae18de129044cdc9f00f8fa1c",
  "number": 60360,
  "timestamp": 1439154098,
  "nonce": "0x135f39010b638119",
  "difficulty": 1746640291264,
  "gasLimit": {
    "_hex": "0x2fefd8"
  },
  "gasUsed": {
    "_hex": "0x5208"
  },
  "miner": "0x9746c7e1ef2bd21FF3997fa467593a89cb852BD0",
  "extraData": "0x476574682f76312e302e312f77696e646f77732f676f312e342e32",
  "transactions": [
    {
      "hash": "0x9572b172c5bfc604d210b64a77a970f8fcb587ce193781cd8d6a5d775d518367",
      "blockHash": "0xaabb09771b71c2a066cd8d6906cf170916554ac7659587be444d39051438841b",
      "blockNumber": 60360,
      "transactionIndex": 0,
      "confirmations": null,
      "from": "0x8155Fa6c51Eb31D808412d748aA086105018122f",
      "gasPrice": {
        "_hex": "0xdd11783ea"
      },
      "gasLimit": {
        "_hex": "0x15f90"
      },
      "to": "0xc955d372Fe1c428D17CD86E05d26F0206F3677b1",
      "value": {
        "_hex": "0x56bc75e2d63100000"
      },
      "nonce": 14,
      "data": "0x",
      "r": "0x2cee78f9465d348ecf0664eea9a7abef641c6d484422aa946fa83782c28f3e79",
      "s": "0x33fc82b4caa6e3e9e9631fd2e718a90ac91da0b99d8e732728650d317e3e5f72",
      "v": 28,
      "creates": null,
      "raw": "0xf86e0e850dd11783ea83015f9094c955d372fe1c428d17cd86e05d26f0206f3677b189056bc75e2d63100000801ca02cee78f9465d348ecf0664eea9a7abef641c6d484422aa946fa83782c28f3e79a033fc82b4caa6e3e9e9631fd2e718a90ac91da0b99d8e732728650d317e3e5f72",
      "networkId": 0,
      "chainId": 0
    }
  ]
}