{
  "hash": "0xd2cd549c10c6f158eb36f8963fdf34f30c8502b0165ea6134854a8b641267028",
  "parentHash": "0xbd697b8f4a272cfeb5497d367a4aebb214db92d056cc6ad9ea71459c35dd8def",
  "number": 94912,
  "timestamp": 1439715930,
  "nonce": "0x6d03edcf7d247495",
  "difficulty": 3534456786310,
  "gasLimit": {
    "_hex": "0x2fefd8"
  },
  "gasUsed": {
    "_hex": "0x5208"
  },
  "miner": "0x33b01a7fe4A1a5F774Bb73f89A4eF15a6Ffe1141",
  "extraData": "0x476574682f76312e302e312f6c696e75782f676f312e342e32",
  "transactions": [
    {
      "hash": "0x57443078f35de539c85968c8a06be74e9ee0eec5a1f5a6244629d03a9e1219f2",
      "blockHash": "0xd2cd549c10c6f158eb36f8963fdf34f30c8502b0165ea6134854a8b641267028",
      "blockNumber": 94912,
      "transactionIndex": 0,
      "confirmations": null,
      "from": "0x32Be343B94f860124dC4fEe278FDCBD38C102D88",
      "gasPrice": {
        "_hex": "0xdb841232b"
      },
      "gasLimit": {
        "_hex": "0x5208"
      },
      "to": "0x993C1e942e3272A16Abcb65471e5C3eb6430a44d",
      "value": {
        "_hex": "0x27cef58d7775fe000"
      },
      "nonce": 965,
      "data": "0x",
      "r": "0x020eaf7b36b0b389cca7d900e451769401e7abfc59f4c2bf49b0da4f6988d26a",
      "s": "0x16a7f2fac6a4afb92e6395a0d4f76e2d7383bda72281e06185e3ba3a98eb0c94",
      "v": 28,
      "creates": null,
      "raw": "0xf86f8203c5850db841232b82520894993c1e942e3272a16abcb65471e5c3eb6430a44d89027cef58d7775fe000801ca0020eaf7b36b0b389cca7d900e451769401e7abfc59f4c2bf49b0da4f6988d26aa016a7f2fac6a4afb92e6395a0d4f76e2d7383bda72281e06185e3ba3a98eb0c94",
      "networkId": 0,
      "chainId": 0
    }
  ]
}