{
  "hash": "0xcc8feb3d7107f1528a61171dd3d9a49b432ea2937ff049e6f47bfc701560c036",
  "parentHash": "0x8177e6dcd21300e79ee18aaa368fdf5afd665956fa1add8a4ad169acb7f79a66",
  "number": 98903,
  "timestamp": 1439780830,
  "nonce": "0x64415730cd30f4d3",
  "difficulty": 3866755929426,
  "gasLimit": {
    "_hex": "0x2fefd8"
  },
  "gasUsed": {
    "_hex": "0x546c"
  },
  "miner": "0x47ff6576639c2e94762eA5443978D7681C0E78DC",
  "extraData": "0x476574682f76312e302e312f6c696e75782f676f312e342e32",
  "transactions": [
    {
      "hash": "0x90e520bafb61a71c1b75d43f00a5b7e67da50dc9b70e7852164e1d9cd51b7a95",
      "blockHash": "0xcc8feb3d7107f1528a61171dd3d9a49b432ea2937ff049e6f47bfc701560c036",
      "blockNumber": 98903,
      "transactionIndex": 0,
      "confirmations": null,
      "from": "0xeBBD4DB9019952d68b1b0F6D8cf0683c00387bb5",
      "gasPrice": {
        "_hex": "0x110c8f7d8de"
      },
      "gasLimit": {
        "_hex": "0xc350"
      },
      "to": "0x2910543Af39abA0Cd09dBb2D50200b3E800A63D2",
      "value": {
        "_hex": "0x11ff6cf0fd15b00000"
      },
      "nonce": 0,
      "data": "0x454e30375a45483252",
      "r": "0xd901bc6dc67d3b29fb5a1367adf27248ae9c3a29514e85fcba61c444ac08e7ce",
      "s": "0x7fbf1b97c1921e52ef2b7334fc0eb8ce5c8c7ccc97427535f794a067a602dc53",
      "v": 28,
      "creates": null,
      "raw": "0xf87780860110c8f7d8de82c350942910543af39aba0cd09dbb2d50200b3e800a63d28911ff6cf0fd15b0000089454e30375a454832521ca0d901bc6dc67d3b29fb5a1367adf27248ae9c3a29514e85fcba61c444ac08e7cea07fbf1b97c1921e52ef2b7334fc0eb8ce5c8c7ccc97427535f794a067a602dc53",
      "networkId": 0,
      "chainId": 0
    }
  ]
}