{
  "hash": "0x970a06b16f67fcb1aeb5789ae213c92df2e7ccab5c2470a4bc2c1d074759dc61",
  "parentHash": "0xc69f9d5f54581e50b264735d546f64cd218e412b57eef83da5adcc6c0adbfba0",
  "number": 96871,
  "timestamp": 1439747183,
  "nonce": "0x91758c5ce9647dab",
  "difficulty": 3737729858663,
  "gasLimit": {
    "_hex": "0x2fefd8"
  },
  "gasUsed": {
    "_hex": "0xf618"
  },
  "miner": "0x88963EC7c5F9D79b393bBF083373F86945300eA1",
  "extraData": "0x476574682f76312e302e312f6c696e75782f676f312e342e32",
  "transactions": [
    {
      "hash": "0xebcfd88f9d6be6cac815c4464794cf261be574ad474463ac5b8da91473e2ca3a",
      "blockHash": "0x970a06b16f67fcb1aeb5789ae213c92df2e7ccab5c2470a4bc2c1d074759dc61",
      "blockNumber": 96871,
      "transactionIndex": 0,
      "confirmations": null,
      "from": "0x120A270bbC009644e35F0bB6ab13f95b8199c4ad",
      "gasPrice": {
        "_hex": "0xe323a2714"
      },
      "gasLimit": {
        "_hex": "0x3d090"
      },
      "to": "0xb7b6e8868e3DfCD6C7EC726C4fda236266841c8C",
      "value": {
        "_hex": "0x24da13046befc00"
      },
      "nonce": 629,
      "data": "0x",
      "r": "0x73869f7ee571807e711badab18b342296bb62b2346f8b358f217334f010b30c1",
      "s": "0x7fe58eca814d47100e008b33f0b11dd741ee685971ae523073f3db8e06334254",
      "v": 27,
      "creates": null,
      "raw": "0xf86f820275850e323a27148303d09094b7b6e8868e3dfcd6c7ec726c4fda236266841c8c88024da13046befc00801ba073869f7ee571807e711badab18b342296bb62b2346f8b358f217334f010b30c1a07fe58eca814d47100e008b33f0b11dd741ee685971ae523073f3db8e06334254",
      "networkId": 0,
      "chainId": 0
    },
    {
      "hash": "0x750b07879fbb19570f0e574df1a25ceb71c82eecaee7ffff8aa36772c3c6fa89",
      "blockHash": "0x970a06b16f67fcb1aeb5789ae213c92df2e7ccab5c2470a4bc2c1d074759dc61",
      "blockNumber": 96871,
      "transactionIndex": 1,
      "confirmations": null,
      "from": "0x120A270bbC009644e35F0bB6ab13f95b8199c4ad",
      "gasPrice": {
        "_hex": "0xe323a2714"
      },
      "gasLimit": {
        "_hex": "0x3d090"
      },
      "to": "0xc963C32F15E59ABfcB814Dd1d96A900CF588B783",
      "value": {
        "_hex": "0x1440e07b6e0d3800"
      },
      "nonce": 630,
      "data": "0x",
      "r": "0x318bc3c35afd6796a71a12675e5e6dca9a52aa3d8c8b03e81b7696366fe73d6f",
      "s": "0x5bbdd16afdf368e95feffaa25017ced20814a090da83be4b84b88681fa147268",
      "v": 27,
      "creates": null,
      "raw": "0xf86f820276850e323a27148303d09094c963c32f15e59abfcb814dd1d96a900cf588b783881440e07b6e0d3800801ba0318bc3c35afd6796a71a12675e5e6dca9a52aa3d8c8b03e81b7696366fe73d6fa05bbdd16afdf368e95feffaa25017ced20814a090da83be4b84b88681fa147268",
      "networkId": 0,
      "chainId": 0
    },
    {
      "hash": "0xc36fa9a81b2c16c6102e504d561d0403f379e6081512b19b505ab42c9864cc35",
      "blockHash": "0x970a06b16f67fcb1aeb5789ae213c92df2e7ccab5c2470a4bc2c1d074759dc61",
      "blockNumber": 96871,
      "transactionIndex": 2,
      "confirmations": null,
      "from": "0x120A270bbC009644e35F0bB6ab13f95b8199c4ad",
      "gasPrice": {
        "_hex": "0xe1143c496"
      },
      "gasLimit": {
        "_hex": "0x3d090"
      },
      "to": "0x00B88D679472169CBd35a3d02192Fd24734684b4",
      "value": {
        "_hex": "0x23be3573655d456800"
      },
      "nonce": 631,
      "data": "0x",
      "r": "0x63918c82707c82cf6dbd41a2f609451612898a88ee94fb72c025cfcbc4f29893",
      "s": "0x4ef026008c2ecf849e9d2bfdee93b8bf782dcf1d026b2039d89a844b0503059e",
      "v": 28,
      "creates": null,
      "raw": "0xf870820277850e1143c4968303d0909400b88d679472169cbd35a3d02192fd24734684b48923be3573655d456800801ca063918c82707c82cf6dbd41a2f609451612898a88ee94fb72c025cfcbc4f29893a04ef026008c2ecf849e9d2bfdee93b8bf782dcf1d026b2039d89a844b0503059e",
      "networkId": 0,
      "chainId": 0
    }
  ]
}