{
  "hash": "0xebcdfddf7ee7161e8c2c4306890ae56954060805c279b088feda5167335a26b2",
  "parentHash": "0xa5a842534b2f5019a96e0889ea703bfe5ccbb8e6aaa7db162cd235bf9a3c16f4",
  "number": 82403,
  "timestamp": 1439518871,
  "nonce": "0x0be60b104bfc6ce5",
  "difficulty": 2370668235983,
  "gasLimit": {
    "_hex": "0x2fefd8"
  },
  "gasUsed": {
    "_hex": "0x5208"
  },
  "miner": "0xe6A7a1d47ff21B6321162AEA7C6CB457D5476Bca",
  "extraData": "0x476574682f76312e302e312d38326566323666362f6c696e75782f676f312e34",
  "transactions": [
    {
      "hash": "0xce2c5b0f800315b633a87d1d124e6f54b1c2bd3526bd341a0212c093bd6f653e",
      "blockHash": "0xebcdfddf7ee7161e8c2c4306890ae56954060805c279b088feda5167335a26b2",
      "blockNumber": 82403,
      "transactionIndex": 0,
      "confirmations": null,
      "from": "0x2910543Af39abA0Cd09dBb2D50200b3E800A63D2",
      "gasPrice": {
        "_hex": "0xe06ed42ee"
      },
      "gasLimit": {
        "_hex": "0x5208"
      },
      "to": "0x0dA1C19DE6A62D505a3eC63379FDB6DcEc8284c7",
      "value": {
        "_hex": "0x569a0b27f9ee08000"
      },
      "nonce": 513,
      "data": "0x",
      "r": "0xdd8319d96623d123b8cc6af150ecc26b2242f91615b4ce0e833942941cb2b332",
      "s": "0x261ca8910f264042b17b02d39e818388eadacfd2cb0c9baffb2071d44498674f",
      "v": 28,
      "creates": null,
      "raw": "0xf86f820201850e06ed42ee825208940da1c19de6a62d505a3ec63379fdb6dcec8284c7890569a0b27f9ee08000801ca0dd8319d96623d123b8cc6af150ecc26b2242f91615b4ce0e833942941cb2b332a0261ca8910f264042b17b02d39e818388eadacfd2cb0c9baffb2071d44498674f",
      "networkId": 0,
      "chainId": 0
    }
  ]
}