{
  "hash": "0x5f280d4e8a17388e9f0bc85f174c07348ccf5b4a507b94fc77af3fe9cd5115bf",
  "parentHash": "0x1c364b9e8fcc8cf6efd62619c3b950179ced76db48c17d593f1aee34b9137e8e",
  "number": 79647,
  "timestamp": 1439473117,
  "nonce": "0x21886e8d4373c6b2",
  "difficulty": 2336962417008,
  "gasLimit": {
    "_hex": "0x2fefd8"
  },
  "gasUsed": {
    "_hex": "0x546c"
  },
  "miner": "0xe6A7a1d47ff21B6321162AEA7C6CB457D5476Bca",
  "extraData": "0x476574682f76312e302e312d38326566323666362f6c696e75782f676f312e34",
  "transactions": [
    {
      "hash": "0x17a663c8627407dc89414ac84ce0182e504134d0fea22c2a9d28a2e8374e7fe8",
      "blockHash": "0x5f280d4e8a17388e9f0bc85f174c07348ccf5b4a507b94fc77af3fe9cd5115bf",
      "blockNumber": 79647,
      "transactionIndex": 0,
      "confirmations": null,
      "from": "0x0193d941b50d91BE6567c7eE1C0Fe7AF498b4137",
      "gasPrice": {
        "_hex": "0xda39e9cb1"
      },
      "gasLimit": {
        "_hex": "0x55f0"
      },
      "to": "0x2910543Af39abA0Cd09dBb2D50200b3E800A63D2",
      "value": {
        "_hex": "0x4563918244f40000"
      },
      "nonce": 1,
      "data": "0x454e5154364e594b52",
      "r": "0xc6c7f4e52fa4272ba2f88f16867ed2847e3e323897ce89663b3a12cfc10a61e1",
      "s": "0x6645104e69bf8b45c494748834dfc96ee2cf5b733063fa6e6dd3446327128404",
      "v": 28,
      "creates": null,
      "raw": "0xf87501850da39e9cb18255f0942910543af39aba0cd09dbb2d50200b3e800a63d2884563918244f4000089454e5154364e594b521ca0c6c7f4e52fa4272ba2f88f16867ed2847e3e323897ce89663b3a12cfc10a61e1a06645104e69bf8b45c494748834dfc96ee2cf5b733063fa6e6dd3446327128404",
      "networkId": 0,
      "chainId": 0
    }
  ]
}