{
  "hash": "0xc566ead444fc7eadce66461b8d650b966c248b5648d6e147e412659e2ca55267",
  "parentHash": "0xcc0155149f6323b584c5b3a4913e85c9e63c95fb352ecd97b6437abbfabefdc1",
  "number": 47438,
  "timestamp": 1438940366,
  "nonce": "0x4e2a6eef38d30a0c",
  "difficulty": 1451664863537,
  "gasLimit": {
    "_hex": "0xbdc5"
  },
  "gasUsed": {
    "_hex": "0x5208"
  },
  "miner": "0xcd39cBcF71Ff4e9592F94db59db4ff45e34b174f",
  "extraData": "0x476574682f76312e302e312f6c696e75782f676f312e342e32",
  "transactions": [
    {
      "hash": "0xe134ef1fa2054f9dadaa945dcfc539c6b48718751ff552b82c2f2101abdb0d72",
      "blockHash": "0xc566ead444fc7eadce66461b8d650b966c248b5648d6e147e412659e2ca55267",
      "blockNumber": 47438,
      "transactionIndex": 0,
      "confirmations": null,
      "from": "0xe6A7a1d47ff21B6321162AEA7C6CB457D5476Bca",
      "gasPrice": {
        "_hex": "0x1a233f3ae6"
      },
      "gasLimit": {
        "_hex": "0x5208"
      },
      "to": "0xfbe0aFcd7658BA86be41922059dD879C192D4c73",
      "value": {
        "_hex": "0x1613c20c1ee094e48"
      },
      "nonce": 144,
      "data": "0x",
      "r": "0x051a3a47efac343073240584747c2861052b56b157e46cc8c73b3f210d56160e",
      "s": "0x29bc1dd9eaee8f444cbe856db27f909346e72b41067cba97e0aedc0c0d5c4e54",
      "v": 27,
      "creates": null,
      "raw": "0xf86e8190851a233f3ae682520894fbe0afcd7658ba86be41922059dd879c192d4c738901613c20c1ee094e48801ba0051a3a47efac343073240584747c2861052b56b157e46cc8c73b3f210d56160ea029bc1dd9eaee8f444cbe856db27f909346e72b41067cba97e0aedc0c0d5c4e54",
      "networkId": 0,
      "chainId": 0
    }
  ]
}