{
  "hash": "0x23953264200346f868045404bd3cc98350443ef2bc726bec4c4fdad6c1ea6d98",
  "parentHash": "0xec31d61edf0ec826d8ba54dc55ba13b217ab037888852183272cab4a96d38fa0",
  "number": 75555,
  "timestamp": 1439405399,
  "nonce": "0x6617d2b33f6bdc0b",
  "difficulty": 2215833955945,
  "gasLimit": {
    "_hex": "0x2fefd8"
  },
  "gasUsed": {
    "_hex": "0xff7f"
  },
  "miner": "0x2f6BCe4fc330B69C9B4c2694d57C63Ec7B18feC7",
  "extraData": "0x476574682f76312e302e312f77696e646f77732f676f312e342e32",
  "transactions": [
    {
      "hash": "0x6a65de0cd13901f8d72581df395929f556c007fadd6ffa5048bb3fcc627ffefe",
      "blockHash": "0x23953264200346f868045404bd3cc98350443ef2bc726bec4c4fdad6c1ea6d98",
      "blockNumber": 75555,
      "transactionIndex": 0,
      "confirmations": null,
      "from": "0x87C5B5874A18B4306DF8a752a6C8cc3E82daFc19",
      "gasPrice": {
        "_hex": "0x10a861ff982"
      },
      "gasLimit": {
        "_hex": "0x493e0"
      },
      "to": "0xD79B4C6791784184e2755B2fC1659eaaB0f80456",
      "value": {
        "_hex": "0x0"
      },
      "nonce": 53,
      "data": "0x03750d940000000000000000000000009724ac4dc56e03379eba5d157d1513ecc32cbd8f3135353834376438306465633337366400000000000000000000000000000000",
      "r": "0xe04f81c2c34c2a436561ef9d266e996b29f30d2f0935ad8d626e2e7d6546c0c7",
      "s": "0x2a98a80689793a65c417c9001f3e037375f5c72f5eb313a4954343e49203fffd",
      "v": 28,
      "creates": null,
      "raw": "0xf8ab3586010a861ff982830493e094d79b4c6791784184e2755b2fc1659eaab0f8045680b84403750d940000000000000000000000009724ac4dc56e03379eba5d157d1513ecc32cbd8f31353538343764383064656333373664000000000000000000000000000000001ca0e04f81c2c34c2a436561ef9d266e996b29f30d2f0935ad8d626e2e7d6546c0c7a02a98a80689793a65c417c9001f3e037375f5c72f5eb313a4954343e49203fffd",
      "networkId": 0,
      "chainId": 0
    },
    {
      "hash": "0x7686c8ff7392715e3afc420b9f183971957ce70d0b5fece66eab51fb00dbe590",
      "blockHash": "0x23953264200346f868045404bd3cc98350443ef2bc726bec4c4fdad6c1ea6d98",
      "blockNumber": 75555,
      "transactionIndex": 1,
      "confirmations": null,
      "from": "0x36d85Dc3683156e63Bf880A9fAb7788CF8143a27",
      "gasPrice": {
        "_hex": "0xcfbd802cc"
      },
      "gasLimit": {
        "_hex": "0x15f90"
      },
      "to": "0xDE72E29D65eAabbD236b21c1d59a486c19AbDad5",
      "value": {
        "_hex": "0x0"
      },
      "nonce": 12,
      "data": "0x",
      "r": "0x2ef9c98f90df71bf9503de0a12efff699216462e4e386f15e6ae0b22088df17e",
      "s": "0x374b1c9fefc80325f54b2007bf2371d66243fca48266ade8e25f7deeee84e439",
      "v": 28,
      "creates": null,
      "raw": "0xf8650c850cfbd802cc83015f9094de72e29d65eaabbd236b21c1d59a486c19abdad580801ca02ef9c98f90df71bf9503de0a12efff699216462e4e386f15e6ae0b22088df17ea0374b1c9fefc80325f54b2007bf2371d66243fca48266ade8e25f7deeee84e439",
      "networkId": 0,
      "chainId": 0
    }
  ]
}