{
  "hash": "0xe0302e1e36115408c7284ed06a688f044eba7be851a79b2532a0c8832f9d1654",
  "parentHash": "0x580891a7b7e84667b8318301911712b02099753a46276e25fdebca30771f6970",
  "number": 76010,
  "timestamp": 1439413418,
  "nonce": "0x79079bc530b04771",
  "difficulty": 2236365359611,
  "gasLimit": {
    "_hex": "0x2fefd8"
  },
  "gasUsed": {
    "_hex": "0xa410"
  },
  "miner": "0x89972aA7C0b19D1aE9cd89386160c3f28f7bB590",
  "extraData": "0x",
  "transactions": [
    {
      "hash": "0xa892fa1fcdbce2c3a92f6af71f91b613e8cbefac4f00e086c34a09c92d3cbbf4",
      "blockHash": "0xe0302e1e36115408c7284ed06a688f044eba7be851a79b2532a0c8832f9d1654",
      "blockNumber": 76010,
      "transactionIndex": 0,
      "confirmations": null,
      "from": "0xB8796061FcCcC0c40BD2060d95d6cff928bD1C1B",
      "gasPrice": {
        "_hex": "0xdad58630b"
      },
      "gasLimit": {
        "_hex": "0x5208"
      },
      "to": "0x32Be343B94f860124dC4fEe278FDCBD38C102D88",
      "value": {
        "_hex": "0x36f478e5a06f48000"
      },
      "nonce": 2,
      "data": "0x",
      "r": "0xb040b507120e5b7426c5c30e658b6b96208d4a95b56bfc3cb41fca9f61edbbbb",
      "s": "0x1ebb442d8d253768c4dad696ac8a5747eb9e46cd70182b25dc5ae2245cff7451",
      "v": 28,
      "creates": null,
      "raw": "0xf86d02850dad58630b8252089432be343b94f860124dc4fee278fdcbd38c102d8889036f478e5a06f48000801ca0b040b507120e5b7426c5c30e658b6b96208d4a95b56bfc3cb41fca9f61edbbbba01ebb442d8d253768c4dad696ac8a5747eb9e46cd70182b25dc5ae2245cff7451",
      "networkId": 0,
      "chainId": 0
    },
    {
      "hash": "0x7e7304a1d76fd7becb5a42023433310e1669c2d4770b4dbabd1897d0d4642ea0",
      "blockHash": "0xe0302e1e36115408c7284ed06a688f044eba7be851a79b2532a0c8832f9d1654",
      "blockNumber": 76010,
      "transactionIndex": 1,
      "confirmations": null,
      "from": "0x120A270bbC009644e35F0bB6ab13f95b8199c4ad",
      "gasPrice": {
        "_hex": "0xcc4b83f2b"
      },
      "gasLimit": {
        "_hex": "0x3d090"
      },
      "to": "0x00B88D679472169CBd35a3d02192Fd24734684b4",
      "value": {
        "_hex": "0x1e5b8fa8fe2ac00000"
      },
      "nonce": 303,
      "data": "0x",
      "r": "0xa30ecf6ef6d5cb16599df9c5eb2a4452a99dfa612213e8b70702bf6f46c03179",
      "s": "0x7a0103ca544c01c7ab08007814b2a553da1200a8759824fb5d81565f0c5deef7",
      "v": 27,
      "creates": null,
      "raw": "0xf87082012f850cc4b83f2b8303d0909400b88d679472169cbd35a3d02192fd24734684b4891e5b8fa8fe2ac00000801ba0a30ecf6ef6d5cb16599df9c5eb2a4452a99dfa612213e8b70702bf6f46c03179a07a0103ca544c01c7ab08007814b2a553da1200a8759824fb5d81565f0c5deef7",
      "networkId": 0,
      "chainId": 0
    }
  ]
}