{
  "hash": "0x3fa7a1c72ba951975fb957441d21de81f74ce1cd50aff4b8d327abc199f2b9f7",
  "parentHash": "0xe06604879249ea19ae0e6f37325c8838f9935f41d95e76dd7a146a5fe65620b5",
  "number": 101286,
  "timestamp": 1439820493,
  "nonce": "0xb8d99d80dc63f044",
  "difficulty": 3818756272113,
  "gasLimit": {
    "_hex": "0x2fefd8"
  },
  "gasUsed": {
    "_hex": "0x5208"
  },
  "miner": "0xe6A7a1d47ff21B6321162AEA7C6CB457D5476Bca",
  "extraData": "0x476574682f76312e302e312d38326566323666362f6c696e75782f676f312e34",
  "transactions": [
    {
      "hash": "0x089e718eceaec32c337fc66e65ae5f3e2fdbe3b24353811d133071bbd296cec7",
      "blockHash": "0x3fa7a1c72ba951975fb957441d21de81f74ce1cd50aff4b8d327abc199f2b9f7",
      "blockNumber": 101286,
      "transactionIndex": 0,
      "confirmations": null,
      "from": "0xd1ce10d2AdBa8b18135eF72Aa5296c9503a3501c",
      "gasPrice": {
        "_hex": "0xce14623d1"
      },
      "gasLimit": {
        "_hex": "0x15f90"
      },
      "to": "0xf2cC0eEAAAeD313542CB262B0B8c3972425143f0",
      "value": {
        "_hex": "0x45400a8fd5330000"
      },
      "nonce": 4,
      "data": "0x",
      "r": "0xce3d4059e242db650a56087b4e5eab7f9b610fb412cf2b84c715dffebba20649",
      "s": "0x2e489d3bf54c70590fd5e2a106d255910dfcd1f19fca3e0774f3d008d035a89a",
      "v": 27,
      "creates": null,
      "raw": "0xf86d04850ce14623d183015f9094f2cc0eeaaaed313542cb262b0b8c3972425143f08845400a8fd5330000801ba0ce3d4059e242db650a56087b4e5eab7f9b610fb412cf2b84c715dffebba20649a02e489d3bf54c70590fd5e2a106d255910dfcd1f19fca3e0774f3d008d035a89a",
      "networkId": 0,
      "chainId": 0
    }
  ]
}