{
  "hash": "0x71d0fccb7193fe3872e15d399608e947283d0d9118279b09a88b8305e747476a",
  "parentHash": "0x4fd80b8a351c542b55e15e4079f52fb0845c990c5a57c04708facf461f125a05",
  "number": 107402,
  "timestamp": 1439921869,
  "nonce": "0x2e7a9a7295919aa9",
  "difficulty": 4396449467685,
  "gasLimit": {
    "_hex": "0x2fefd8"
  },
  "gasUsed": {
    "_hex": "0x5208"
  },
  "miner": "0x7e8504a5e26df87f6D26fA1ba148BE146F42775A",
  "extraData": "0x476574682f76312e302e312f77696e646f77732f676f312e342e32",
  "transactions": [
    {
      "hash": "0x70e86468f8460ad1bc58364e6eec06094254d932942fc63252048dfd6feb7371",
      "blockHash": "0x71d0fccb7193fe3872e15d399608e947283d0d9118279b09a88b8305e747476a",
      "blockNumber": 107402,
      "transactionIndex": 0,
      "confirmations": null,
      "from": "0x32Be343B94f860124dC4fEe278FDCBD38C102D88",
      "gasPrice": {
        "_hex": "0xd21a146fe"
      },
      "gasLimit": {
        "_hex": "0x5208"
      },
      "to": "0xE3291e02d1d7b6A7F4aAA164c56Cf21FD30D0eb5",
      "value": {
        "_hex": "0x8cf1f4795206980000"
      },
      "nonce": 1214,
      "data": "0x",
      "r": "0x97c9e1ab9b2245c8bcd2bdd695c4fec69a83e6bc629b987c0c1c0fe6ded78bb5",
      "s": "0x552e8f02b7ff607a285e679c6eba1814dffad44ba98e6afc8402a1613697db8c",
      "v": 28,
      "creates": null,
      "raw": "0xf86f8204be850d21a146fe82520894e3291e02d1d7b6a7f4aaa164c56cf21fd30d0eb5898cf1f4795206980000801ca097c9e1ab9b2245c8bcd2bdd695c4fec69a83e6bc629b987c0c1c0fe6ded78bb5a0552e8f02b7ff607a285e679c6eba1814dffad44ba98e6afc8402a1613697db8c",
      "networkId": 0,
      "chainId": 0
    }
  ]
}