{
  "hash": "0x3a51202004070f6f8c1013be2dfe70f2a79f169fd70629f2f10e244381bc5271",
  "parentHash": "0x6db97aada246d506f63716ea5173c546a77b5dba2e1953a3de0ff970eede96a9",
  "number": 85970,
  "timestamp": 1439571613,
  "nonce": "0xb6a6f379787de1db",
  "difficulty": 2785333899970,
  "gasLimit": {
    "_hex": "0x2fefd8"
  },
  "gasUsed": {
    "_hex": "0xf87c"
  },
  "miner": "0xe6A7a1d47ff21B6321162AEA7C6CB457D5476Bca",
  "extraData": "0x476574682f76312e302e312d38326566323666362f6c696e75782f676f312e34",
  "transactions": [
    {
      "hash": "0xc42984bfa61610e5cb9781d392df351d8a7b987b51b61d8d4d2b4c4c49eb00e7",
      "blockHash": "0x3a51202004070f6f8c1013be2dfe70f2a79f169fd70629f2f10e244381bc5271",
      "blockNumber": 85970,
      "transactionIndex": 0,
      "confirmations": null,
      "from": "0x1518627b88351fEdE796D3F3083364FBD4887b0c",
      "gasPrice": {
        "_hex": "0x110c8f7d8de"
      },
      "gasLimit": {
        "_hex": "0xc350"
      },
      "to": "0x2910543Af39abA0Cd09dBb2D50200b3E800A63D2",
      "value": {
        "_hex": "0x2b5e3af16b1880000"
      },
      "nonce": 1,
      "data": "0x454e3059504b384138",
      "r": "0x7161f37cca1e4eaa11048b8a3180a46ff340f9baceac9c0f1e8595149a3bdea6",
      "s": "0xe4bad8c739e67571e53464a92568d7529074c0740e6edcb6a0f9969f499c1a6b",
      "v": 27,
      "creates": null,
      "raw": "0xf87701860110c8f7d8de82c350942910543af39aba0cd09dbb2d50200b3e800a63d28902b5e3af16b188000089454e3059504b3841381ba07161f37cca1e4eaa11048b8a3180a46ff340f9baceac9c0f1e8595149a3bdea6a0e4bad8c739e67571e53464a92568d7529074c0740e6edcb6a0f9969f499c1a6b",
      "networkId": 0,
      "chainId": 0
    },
    {
      "hash": "0xe101452e1e5eae874793ecf0e4906e1f1f7a033d3831bef3be23414b52963c62",
      "blockHash": "0x3a51202004070f6f8c1013be2dfe70f2a79f169fd70629f2f10e244381bc5271",
      "blockNumber": 85970,
      "transactionIndex": 1,
      "confirmations": null,
      "from": "0x32Be343B94f860124dC4fEe278FDCBD38C102D88",
      "gasPrice": {
        "_hex": "0xd32f1f240"
      },
      "gasLimit": {
        "_hex": "0x5208"
      },
      "to": "0x6bF0D878Da99Cb6e3fE5e359c30AB50eABc48D46",
      "value": {
        "_hex": "0xcf2d686b55015000"
      },
      "nonce": 743,
      "data": "0x",
      "r": "0xb5f135bcb22b9c389f0e63552599a58dc60857e8a2956ca3592454a111d032dc",
      "s": "0x18c60aa803aa123a808f3747cd05b67bcbfca43a1cfcaa3184f2d2ef3d6645e3",
      "v": 28,
      "creates": null,
      "raw": "0xf86e8202e7850d32f1f240825208946bf0d878da99cb6e3fe5e359c30ab50eabc48d4688cf2d686b55015000801ca0b5f135bcb22b9c389f0e63552599a58dc60857e8a2956ca3592454a111d032dca018c60aa803aa123a808f3747cd05b67bcbfca43a1cfcaa3184f2d2ef3d6645e3",
      "networkId": 0,
      "chainId": 0
    },
    {
      "hash": "0xc4542d6353f7d197c2abc4d1d9ce4ce84eb3cb2752ad75f6f2a27caf04bff432",
      "blockHash": "0x3a51202004070f6f8c1013be2dfe70f2a79f169fd70629f2f10e244381bc5271",
      "blockNumber": 85970,
      "transactionIndex": 2,
      "confirmations": null,
      "from": "0x19939AD9F09d103B670c9EE56cA41d5764380f8A",
      "gasPrice": {
        "_hex": "0xba43b7400"
      },
      "gasLimit": {
        "_hex": "0x5208"
      },
      "to": "0xC47Aaa860008be6f65B58c6C6E02a84e666EfE31",
      "value": {
        "_hex": "0x15f8a80308638f0"
      },
      "nonce": 0,
      "data": "0x",
      "r": "0x3645315d26cdf9b365a6119c6693b4137212cb7daf0b472b16a6895b3d35557e",
      "s": "0x2520bc95ab7c4117ab950a77a248c1998ce3c69fdb105838bcbcd66896d49e23",
      "v": 27,
      "creates": null,
      "raw": "0xf86c80850ba43b740082520894c47aaa860008be6f65b58c6c6e02a84e666efe3188015f8a80308638f0801ba03645315d26cdf9b365a6119c6693b4137212cb7daf0b472b16a6895b3d35557ea02520bc95ab7c4117ab950a77a248c1998ce3c69fdb105838bcbcd66896d49e23",
      "networkId": 0,
      "chainId": 0
    }
  ]
}