{
  "hash": "0x46c8ae247338e5cb454f1616277df90cb4d67e4b59dce0621c2f58201bbdda4e",
  "parentHash": "0x184c94df1bf44213a98f4d41f8c2373991d3776b15d3cfb06cc015bf732775c7",
  "number": 113114,
  "timestamp": 1440018111,
  "nonce": "0xbb69871459604fe8",
  "difficulty": 4471368343345,
  "gasLimit": {
    "_hex": "0x2fefd8"
  },
  "gasUsed": {
    "_hex": "0x5208"
  },
  "miner": "0xad7210d76107F888745616FFF7979623b84F928c",
  "extraData": "0x476574682f76312e302e312f77696e646f77732f676f312e342e32",
  "transactions": [
    {
      "hash": "0x4628d3dedef92eeadd24a64fa56625cd15deef4a7479b1cdd42fbd34a1693378",
      "blockHash": "0x46c8ae247338e5cb454f1616277df90cb4d67e4b59dce0621c2f58201bbdda4e",
      "blockNumber": 113114,
      "transactionIndex": 0,
      "confirmations": null,
      "from": "0x32Be343B94f860124dC4fEe278FDCBD38C102D88",
      "gasPrice": {
        "_hex": "0xd34fbcdf2"
      },
      "gasLimit": {
        "_hex": "0x5208"
      },
      "to": "0xb706b0bEE2433E6e1DDd354fAe0E3cDe3FEd161d",
      "value": {
        "_hex": "0x159e260b0bb9ec00"
      },
      "nonce": 1352,
      "data": "0x",
      "r": "0x668b1e42ce67d95b6d94f31add089364581f2cad656af9dc463152ec1049f153",
      "s": "0x32b7b61f48b05dfba1d4aa42a76cd553f845ad00d6344119f88d707ce7629ed9",
      "v": 28,
      "creates": null,
      "raw": "0xf86e820548850d34fbcdf282520894b706b0bee2433e6e1ddd354fae0e3cde3fed161d88159e260b0bb9ec00801ca0668b1e42ce67d95b6d94f31add089364581f2cad656af9dc463152ec1049f153a032b7b61f48b05dfba1d4aa42a76cd553f845ad00d6344119f88d707ce7629ed9",
      "networkId": 0,
      "chainId": 0
    }
  ]
}