{
  "hash": "0x2071789e94614d3aa9b9750af0669b97310afd9376401df412dbf6f29d6d05df",
  "parentHash": "0x42765eb0860288576f76c81fa1d24ba5412a1734ffa876f978f1d3068e7ba67a",
  "number": 60494,
  "timestamp": 1439156569,
  "nonce": "0xef818db9ede44207",
  "difficulty": 1741502850016,
  "gasLimit": {
    "_hex": "0x2fefd8"
  },
  "gasUsed": {
    "_hex": "0xa410"
  },
  "miner": "0xd03F6B5b7FBCf7Dd4DEE4919543236c733546a2A",
  "extraData": "0x476574682f76312e302e312d38326566323666362f6c696e75782f676f312e34",
  "transactions": [
    {
      "hash": "0x9d886a46738f905bb347cf25cbd9146f98a99130945a3349e66cbf19abd73914",
      "blockHash": "0x2071789e94614d3aa9b9750af0669b97310afd9376401df412dbf6f29d6d05df",
      "blockNumber": 60494,
      "transactionIndex": 0,
      "confirmations": null,
      "from": "0x32Be343B94f860124dC4fEe278FDCBD38C102D88",
      "gasPrice": {
        "_hex": "0xda9942799"
      },
      "gasLimit": {
        "_hex": "0x5208"
      },
      "to": "0x6aCdB36b4ba1c50356c8A71e94B1361448dDAfF9",
      "value": {
        "_hex": "0xaed6dd00828478000"
      },
      "nonce": 120,
      "data": "0x",
      "r": "0x7efd9f140a85107f17aff03b1f6360a31d10b1339d3ffb3f866482a576393e5d",
      "s": "0x47737353f7878268bc9d1330982b24793604704a9c66a92c226b2871e7e51126",
      "v": 28,
      "creates": null,
      "raw": "0xf86d78850da9942799825208946acdb36b4ba1c50356c8a71e94b1361448ddaff9890aed6dd00828478000801ca07efd9f140a85107f17aff03b1f6360a31d10b1339d3ffb3f866482a576393e5da047737353f7878268bc9d1330982b24793604704a9c66a92c226b2871e7e51126",
      "networkId": 0,
      "chainId": 0
    },
    {
      "hash": "0x45f855a926b544a04ada3ab9c2d19babf187481aa2ec82c4b637b468b2eef969",
      "blockHash": "0x2071789e94614d3aa9b9750af0669b97310afd9376401df412dbf6f29d6d05df",
      "blockNumber": 60494,
      "transactionIndex": 1,
      "confirmations": null,
      "from": "0xb583f9403De6C5B2c83D7e2DE9928331176071b8",
      "gasPrice": {
        "_hex": "0xda9942799"
      },
      "gasLimit": {
        "_hex": "0x5208"
      },
      "to": "0x32Be343B94f860124dC4fEe278FDCBD38C102D88",
      "value": {
        "_hex": "0x114269fd27ea7f000"
      },
      "nonce": 9,
      "data": "0x",
      "r": "0x098cf42e5111c717aaf8e014c635e13234d30e8affeb812ead2093ab613b5e31",
      "s": "0x5db09c1f8b50669b14410264adb91b0d8046bec8eb01c35a0339e031685b2c63",
      "v": 27,
      "creates": null,
      "raw": "0xf86d09850da99427998252089432be343b94f860124dc4fee278fdcbd38c102d88890114269fd27ea7f000801ba0098cf42e5111c717aaf8e014c635e13234d30e8affeb812ead2093ab613b5e31a05db09c1f8b50669b14410264adb91b0d8046bec8eb01c35a0339e031685b2c63",
      "networkId": 0,
      "chainId": 0
    }
  ]
}