{
  "hash": "0x6472adde18ea48040d746f28d0cb504043a6d4b9498743ef8240f2d90674b011",
  "parentHash": "0x45c94705c859c3b7bd845968e1b8e8c7da7c68ef216586833043428993a488d6",
  "number": 121923,
  "timestamp": 1440184992,
  "nonce": "0x6872c66747255063",
  "difficulty": 4468856884545,
  "gasLimit": {
    "_hex": "0x2fefd8"
  },
  "gasUsed": {
    "_hex": "0xa410"
  },
  "miner": "0x88D74a59454F6cF3B51ef6b9136AFb6b9D405A88",
  "extraData": "0x",
  "transactions": [
    {
      "hash": "0xca4282f562deae6ff6793941b7a6446105ec8ec8fa6a66d79130fef394355e27",
      "blockHash": "0x6472adde18ea48040d746f28d0cb504043a6d4b9498743ef8240f2d90674b011",
      "blockNumber": 121923,
      "transactionIndex": 0,
      "confirmations": null,
      "from": "0xe6A7a1d47ff21B6321162AEA7C6CB457D5476Bca",
      "gasPrice": {
        "_hex": "0xba43b7400"
      },
      "gasLimit": {
        "_hex": "0x55f0"
      },
      "to": "0x2e1A591a3Bd5FCE3c1E095c205Bd202C29541e70",
      "value": {
        "_hex": "0x1909f1e0f1971f30"
      },
      "nonce": 6771,
      "data": "0x",
      "r": "0x1ff67fc84724f426bfa58a87c128f2e617d4f6ecb33edf7c37574a989d68eb59",
      "s": "0x74c6b343e03e5f137fb14a05fc493af0f805540e10840b59ae38407f62000b9a",
      "v": 28,
      "creates": null,
      "raw": "0xf86e821a73850ba43b74008255f0942e1a591a3bd5fce3c1e095c205bd202c29541e70881909f1e0f1971f30801ca01ff67fc84724f426bfa58a87c128f2e617d4f6ecb33edf7c37574a989d68eb59a074c6b343e03e5f137fb14a05fc493af0f805540e10840b59ae38407f62000b9a",
      "networkId": 0,
      "chainId": 0
    },
    {
      "hash": "0x7ff1a0c0cbfa49cb6664838045749d46ed177ee55ac9b8a07b73c41727ed1d08",
      "blockHash": "0x6472adde18ea48040d746f28d0cb504043a6d4b9498743ef8240f2d90674b011",
      "blockNumber": 121923,
      "transactionIndex": 1,
      "confirmations": null,
      "from": "0xe6A7a1d47ff21B6321162AEA7C6CB457D5476Bca",
      "gasPrice": {
        "_hex": "0xba43b7400"
      },
      "gasLimit": {
        "_hex": "0x55f0"
      },
      "to": "0x3fc4eAB8A8df5a124043b29146709935c65F1f7d",
      "value": {
        "_hex": "0x1ce14cf21e57bd58"
      },
      "nonce": 6772,
      "data": "0x",
      "r": "0x1f4c627d74d57a14ec19b59c15c51a2f7b6a6f28dc1d63d0db61925fc1bfe5c0",
      "s": "0x7fdb91d7ea0cd33ddc9e6ab40778c79f881aab2fc8daf7666997b21876f12b8d",
      "v": 28,
      "creates": null,
      "raw": "0xf86e821a74850ba43b74008255f0943fc4eab8a8df5a124043b29146709935c65f1f7d881ce14cf21e57bd58801ca01f4c627d74d57a14ec19b59c15c51a2f7b6a6f28dc1d63d0db61925fc1bfe5c0a07fdb91d7ea0cd33ddc9e6ab40778c79f881aab2fc8daf7666997b21876f12b8d",
      "networkId": 0,
      "chainId": 0
    }
  ]
}