{
  "hash": "0xac70c6a3cc2512be82df362ca2043a1a744ebb9123e513d363dd92e9b4ea793c",
  "parentHash": "0x358abce2e7400995e0516783a0edb9d2946dbd1c18c21a6ca618e6d6f5b42e19",
  "number": 118828,
  "timestamp": 1440132197,
  "nonce": "0xd44851fdb5fcbbfb",
  "difficulty": 4381898444726,
  "gasLimit": {
    "_hex": "0x2fefd8"
  },
  "gasUsed": {
    "_hex": "0x5208"
  },
  "miner": "0x88D74a59454F6cF3B51ef6b9136AFb6b9D405A88",
  "extraData": "0x",
  "transactions": [
    {
      "hash": "0x63401ade071bd5002f6ac6200b5baba802a082c1fa7bff439a0092862ef11dd0",
      "blockHash": "0xac70c6a3cc2512be82df362ca2043a1a744ebb9123e513d363dd92e9b4ea793c",
      "blockNumber": 118828,
      "transactionIndex": 0,
      "confirmations": null,
      "from": "0x137e1d138A6d96Bac9f75a6C926CE5B343442694",
      "gasPrice": {
        "_hex": "0xba43b7400"
      },
      "gasLimit": {
        "_hex": "0x5208"
      },
      "to": "0xFBb1b73C4f0BDa4f67dcA266ce6Ef42f520fBB98",
      "value": {
        "_hex": "0xfa7c91af9b01dc00"
      },
      "nonce": 0,
      "data": "0x",
      "r": "0x4b4e39f55c27081d3422caa0f742041313663cf6919dc734382e07882ecde361",
      "s": "0x2c9fa8bc000ce308d886d931dc7f0a6439220981b874ee788376cbd83385a78a",
      "v": 28,
      "creates": null,
      "raw": "0xf86c80850ba43b740082520894fbb1b73c4f0bda4f67dca266ce6ef42f520fbb9888fa7c91af9b01dc00801ca04b4e39f55c27081d3422caa0f742041313663cf6919dc734382e07882ecde361a02c9fa8bc000ce308d886d931dc7f0a6439220981b874ee788376cbd83385a78a",
      "networkId": 0,
      "chainId": 0
    }
  ]
}