{
  "hash": "0xa169adad2c08d1f2d3fe0235601a1c42dafaa583877f034f110e7b3026fcd150",
  "parentHash": "0xecc01ea09824a09905a279c62ba18c1745181bb9e8bd6d09fe0aeebf770cddf1",
  "number": 95342,
  "timestamp": 1439722741,
  "nonce": "0xf1b81da0e394e7ae",
  "difficulty": 3555045051049,
  "gasLimit": {
    "_hex": "0x2fefd8"
  },
  "gasUsed": {
    "_hex": "0x5208"
  },
  "miner": "0x35e8e5dC5FBd97c5b421A80B596C030a2Be2A04D",
  "extraData": "0x476574682f76312e302e312f6c696e75782f676f312e342e32",
  "transactions": [
    {
      "hash": "0x227b55c37e83b55977b97c2ddcaf3e8ba86f1e8e2779930f90cf9bdef79f4c6a",
      "blockHash": "0xa169adad2c08d1f2d3fe0235601a1c42dafaa583877f034f110e7b3026fcd150",
      "blockNumber": 95342,
      "transactionIndex": 0,
      "confirmations": null,
      "from": "0xfE2C95361cCA1471A07C29386d6be561faA10D84",
      "gasPrice": {
        "_hex": "0xd43f6ca1e"
      },
      "gasLimit": {
        "_hex": "0x15f90"
      },
      "to": "0x1332996a46dcBBE02f9cF164Dfc153aB976a9766",
      "value": {
        "_hex": "0xc0e6b85ac9ee0000"
      },
      "nonce": 1,
      "data": "0x",
      "r": "0x32fb5122655296a05e9c3ce062809b5705e2be8aa5a32db2acd45f5cdc4b0a1d",
      "s": "0x2a5c84dd3e0d5d841c8c6645da2698611559e4fe7fc68d95d933dc2eda471131",
      "v": 28,
      "creates": null,
      "raw": "0xf86d01850d43f6ca1e83015f90941332996a46dcbbe02f9cf164dfc153ab976a976688c0e6b85ac9ee0000801ca032fb5122655296a05e9c3ce062809b5705e2be8aa5a32db2acd45f5cdc4b0a1da02a5c84dd3e0d5d841c8c6645da2698611559e4fe7fc68d95d933dc2eda471131",
      "networkId": 0,
      "chainId": 0
    }
  ]
}