{
  "hash": "0xb010bb8a8f76d9003f2fbad2e131d7555f0fc0bf05b224b25122c27e3c85fdd6",
  "parentHash": "0x7c945a3e0912587ebc1fab67eb82fb38b60e6bbc7e9da9acde5579b9f3a345d3",
  "number": 121870,
  "timestamp": 1440184031,
  "nonce": "0xa3db34911e212322",
  "difficulty": 4484185763851,
  "gasLimit": {
    "_hex": "0x2fefd8"
  },
  "gasUsed": {
    "_hex": "0x5208"
  },
  "miner": "0x580992B51e3925e23280EfB93d3047C82f17E038",
  "extraData": "0x",
  "transactions": [
    {
      "hash": "0x19323ac0847806ebc1582c4da2c2e8adbc719cb27de395c8ba07c23f02480a9c",
      "blockHash": "0xb010bb8a8f76d9003f2fbad2e131d7555f0fc0bf05b224b25122c27e3c85fdd6",
      "blockNumber": 121870,
      "transactionIndex": 0,
      "confirmations": null,
      "from": "0xe6A7a1d47ff21B6321162AEA7C6CB457D5476Bca",
      "gasPrice": {
        "_hex": "0xba43b7400"
      },
      "gasLimit": {
        "_hex": "0x55f0"
      },
      "to": "0x144BC9FE471D3C71D8e09D58060d78661B1D4F32",
      "value": {
        "_hex": "0xe12d6a5bc4d0518"
      },
      "nonce": 6372,
      "data": "0x",
      "r": "0x29ec6ad1c20b3d6c960cd331c6c783edd0c28931f7e6d3cb4a298573f9a2be57",
      "s": "0x1af3c245299e7aefa2b2601e938e954008c3f27bac60b171368ffcec4981f341",
      "v": 28,
      "creates": null,
      "raw": "0xf86e8218e4850ba43b74008255f094144bc9fe471d3c71d8e09d58060d78661b1d4f32880e12d6a5bc4d0518801ca029ec6ad1c20b3d6c960cd331c6c783edd0c28931f7e6d3cb4a298573f9a2be57a01af3c245299e7aefa2b2601e938e954008c3f27bac60b171368ffcec4981f341",
      "networkId": 0,
      "chainId": 0
    }
  ]
}