{
  "hash": "0x3537e20019f0e92c66d2b11dd127ff0d20a88f7788c2aa104bb41cf8a9f57681",
  "parentHash": "0xcb579e586a4c06eab69fae5b4507de0bb6226ed9ea0fef42208e7ed93a6307fe",
  "number": 103742,
  "timestamp": 1439858237,
  "nonce": "0x83552c28fe742746",
  "difficulty": 4213378536738,
  "gasLimit": {
    "_hex": "0x2fefd8"
  },
  "gasUsed": {
    "_hex": "0x5208"
  },
  "miner": "0xe6A7a1d47ff21B6321162AEA7C6CB457D5476Bca",
  "extraData": "0x476574682f76312e302e312d38326566323666362f6c696e75782f676f312e34",
  "transactions": [
    {
      "hash": "0xe6222ad227c92a0e7afc36ec20e4ab067c38043be29bf96f24cea1716b673539",
      "blockHash": "0x3537e20019f0e92c66d2b11dd127ff0d20a88f7788c2aa104bb41cf8a9f57681",
      "blockNumber": 103742,
      "transactionIndex": 0,
      "confirmations": null,
      "from": "0xFBb1b73C4f0BDa4f67dcA266ce6Ef42f520fBB98",
      "gasPrice": {
        "_hex": "0xd661942cf"
      },
      "gasLimit": {
        "_hex": "0x5208"
      },
      "to": "0x31a73304345eE7d1Ef958026AF26E3FEF4Db2F20",
      "value": {
        "_hex": "0x21e19ff1e1392a6ac00"
      },
      "nonce": 104,
      "data": "0x",
      "r": "0x7ba5ccc24207bacf9777ef6d744d27bdfef84447fa64d99450fe2a05666b1b7a",
      "s": "0x69c2651b6a12b72793209de6d7a09e719bf90baffeaf3e8fd17e6866071cd2f8",
      "v": 27,
      "creates": null,
      "raw": "0xf86e68850d661942cf8252089431a73304345ee7d1ef958026af26e3fef4db2f208a021e19ff1e1392a6ac00801ba07ba5ccc24207bacf9777ef6d744d27bdfef84447fa64d99450fe2a05666b1b7aa069c2651b6a12b72793209de6d7a09e719bf90baffeaf3e8fd17e6866071cd2f8",
      "networkId": 0,
      "chainId": 0
    }
  ]
}