{
  "hash": "0xfae77d6bea04fe09e27329accbcc808708f66e6b0d5ce3308831169d296b7add",
  "parentHash": "0x9c46c4ca8a78e6d3c19a34187ffa8e7d678e48a69ea49374b062eb3d140b4688",
  "number": 59860,
  "timestamp": 1439144924,
  "nonce": "0xf10dfceafdcbe83f",
  "difficulty": 1719663638259,
  "gasLimit": {
    "_hex": "0x2fe3de"
  },
  "gasUsed": {
    "_hex": "0x5208"
  },
  "miner": "0xA10C59651885FeAaac91F871082a23BBbaBeDfCf",
  "extraData": "0x476574682f76312e302e302f77696e646f77732f676f312e342e32",
  "transactions": [
    {
      "hash": "0x6ffe5103d6fe3bd118d16a624b181957d2473e2a6e5c5058e05c0b7b0c6e9970",
      "blockHash": "0xfae77d6bea04fe09e27329accbcc808708f66e6b0d5ce3308831169d296b7add",
      "blockNumber": 59860,
      "transactionIndex": 0,
      "confirmations": null,
      "from": "0x6E4F1DD8EDB448D8F0F2829eb817B81ACEE45152",
      "gasPrice": {
        "_hex": "0x746a528800"
      },
      "gasLimit": {
        "_hex": "0x5b04"
      },
      "to": "0x94B3Ee3a5901f370FAc29924652deBc4dab040F6",
      "value": {
        "_hex": "0x16345785d8a0000"
      },
      "nonce": 4,
      "data": "0x",
      "r": "0x2753eaf1aa60916911a53a249bb87a9a7bb774c8c4d438b56151b246d4379bc4",
      "s": "0x1799e961a2c0657f10f16aa5bf7aea5dd224c6bf583bd07d697cc11cb6c08aa8",
      "v": 28,
      "creates": null,
      "raw": "0xf86c0485746a528800825b049494b3ee3a5901f370fac29924652debc4dab040f688016345785d8a0000801ca02753eaf1aa60916911a53a249bb87a9a7bb774c8c4d438b56151b246d4379bc4a01799e961a2c0657f10f16aa5bf7aea5dd224c6bf583bd07d697cc11cb6c08aa8",
      "networkId": 0,
      "chainId": 0
    }
  ]
}