{
  "hash": "0xcc3eb747a04595d0c6cd138ebb200d25a9fabb8fd639e2c6ae281ec659e99848",
  "parentHash": "0x717b9c9d2606d1efba6b41b9fa9e323f104cbd50562180a9c1acba04a9b4e520",
  "number": 48853,
  "timestamp": 1438964100,
  "nonce": "0xe82c44820db76844",
  "difficulty": 1477880262468,
  "gasLimit": {
    "_hex": "0x1f875"
  },
  "gasUsed": {
    "_hex": "0x52c8"
  },
  "miner": "0x36F60f6fAe70855D6a506c3cbDfa8B1Cc4d77c35",
  "extraData": "0x476574682f76312e302e312f6c696e75782f676f312e342e32",
  "transactions": [
    {
      "hash": "0xede9e916a87559e4c3edaff2709bebaca81d5d09780a08e7585fda46c2c9957a",
      "blockHash": "0xcc3eb747a04595d0c6cd138ebb200d25a9fabb8fd639e2c6ae281ec659e99848",
      "blockNumber": 48853,
      "transactionIndex": 0,
      "confirmations": null,
      "from": "0x45e43898393E6b184c2aA9930D66FDeC295B36B4",
      "gasPrice": {
        "_hex": "0x746a528800"
      },
      "gasLimit": {
        "_hex": "0x5bc4"
      },
      "to": "0x2910543Af39abA0Cd09dBb2D50200b3E800A63D2",
      "value": {
        "_hex": "0x16345785d8a0000"
      },
      "nonce": 0,
      "data": "0x00000000000000000000000000000000000000000000000000000000000000a8",
      "r": "0x2ceb6718d58b4208679da304193dfc954d6f7354c250b1d25642aaf6c318ff6c",
      "s": "0x0631d0202c8ca383c4288c4695b8e0ffb80c4cc7877d80f11e05db1bcc3a25b6",
      "v": 28,
      "creates": null,
      "raw": "0xf88c8085746a528800825bc4942910543af39aba0cd09dbb2d50200b3e800a63d288016345785d8a0000a000000000000000000000000000000000000000000000000000000000000000a81ca02ceb6718d58b4208679da304193dfc954d6f7354c250b1d25642aaf6c318ff6ca00631d0202c8ca383c4288c4695b8e0ffb80c4cc7877d80f11e05db1bcc3a25b6",
      "networkId": 0,
      "chainId": 0
    }
  ]
}