{
  "hash": "0xd52975126d838c88b991d962bc9df0f32706b9ab032177d737204c18dcdca8ae",
  "parentHash": "0x7f0e5a1651ce735762cc1b19ea283dfc017fbb364d8b579aaa6dd25aaf5a0334",
  "number": 46582,
  "timestamp": 1438925690,
  "nonce": "0x32b4c24e6c4c5705",
  "difficulty": 1457495239467,
  "gasLimit": {
    "_hex": "0x698d"
  },
  "gasUsed": {
    "_hex": "0x5208"
  },
  "miner": "0x8B454d830feF179e66206840F8F3D1d83bC32b17",
  "extraData": "0x476574682f76312e302e312f77696e646f77732f676f312e342e32",
  "transactions": [
    {
      "hash": "0x4ca868e32327f3e1a2b904f5c08f6fa6777d4af2b4f467d9b70f446cc1a4bf1e",
      "blockHash": "0xd52975126d838c88b991d962bc9df0f32706b9ab032177d737204c18dcdca8ae",
      "blockNumber": 46582,
      "transactionIndex": 0,
      "confirmations": null,
      "from": "0xa89AC93b23370472DaAc337E9afdF642543F3E57",
      "gasPrice": {
        "_hex": "0x4f11edb03b"
      },
      "gasLimit": {
        "_hex": "0x5208"
      },
      "to": "0x92c27672FE65e002159Ec2597fcf8897ADBf5B29",
      "value": {
        "_hex": "0x8ac7230489e80000"
      },
      "nonce": 11,
      "data": "0x",
      "r": "0x00570c9b2707f6709ae3e417f7520ac63cfbf83c40b37ee6c8c54fdba8756e33",
      "s": "0x237f77a76e0875083288efffaeb8f5d6647550433324735f68a9187a7e1dc4d5",
      "v": 27,
      "creates": null,
      "raw": "0xf86b0b854f11edb03b8252089492c27672fe65e002159ec2597fcf8897adbf5b29888ac7230489e80000801b9f570c9b2707f6709ae3e417f7520ac63cfbf83c40b37ee6c8c54fdba8756e33a0237f77a76e0875083288efffaeb8f5d6647550433324735f68a9187a7e1dc4d5",
      "networkId": 0,
      "chainId": 0
    }
  ]
}