{
  "hash": "0x7d3762c5fbc1b68fc04e2e347abdcb404b31798f0a05356471265330d4415929",
  "parentHash": "0x01df377b8dd6011f632f4c3d1899cb24dc6f948f0fd38fadde405b6607845d50",
  "number": 77428,
  "timestamp": 1439437044,
  "nonce": "0x43c75cee38f5939e",
  "difficulty": 2238172007165,
  "gasLimit": {
    "_hex": "0x2fefd8"
  },
  "gasUsed": {
    "_hex": "0x5208"
  },
  "miner": "0x06D138312754bDEB5c1175f47cE00620c480E9C9",
  "extraData": "0x476574682f76312e302e312f6c696e75782f676f312e342e32",
  "transactions": [
    {
      "hash": "0xfc202eca3cc8300599a8ba9549df92ad3d2806c922c202ad6c144c9ba91f4e2c",
      "blockHash": "0x7d3762c5fbc1b68fc04e2e347abdcb404b31798f0a05356471265330d4415929",
      "blockNumber": 77428,
      "transactionIndex": 0,
      "confirmations": null,
      "from": "0xb7E25CC4d9Fa6AC0c2e8787ff92e441D3dbf1B02",
      "gasPrice": {
        "_hex": "0xcc8548091"
      },
      "gasLimit": {
        "_hex": "0x15f90"
      },
      "to": "0x24C0B9E42a508F3cB1A66c03dEf2Baf4c4555a89",
      "value": {
        "_hex": "0x4fc3ea6f22bd850000"
      },
      "nonce": 0,
      "data": "0x",
      "r": "0xde6f2b8fedabc4007515b48923f6dda6a7981d466820d48511e77525f0f73b3f",
      "s": "0x532181242fa501e48d9ca8967a142b3cc1ee190a1cff155c9603f256385a6c48",
      "v": 28,
      "creates": null,
      "raw": "0xf86e80850cc854809183015f909424c0b9e42a508f3cb1a66c03def2baf4c4555a89894fc3ea6f22bd850000801ca0de6f2b8fedabc4007515b48923f6dda6a7981d466820d48511e77525f0f73b3fa0532181242fa501e48d9ca8967a142b3cc1ee190a1cff155c9603f256385a6c48",
      "networkId": 0,
      "chainId": 0
    }
  ]
}