{
  "hash": "0x0fbcf9537b758c89261ea814a9462f5fd8b91b271778834a1d3a6916a5d194c8",
  "parentHash": "0xc89c3154f1b70be8239b6ecbc080f7127bac228869ea95c3de75c2b52cbe66b4",
  "number": 64100,
  "timestamp": 1439215173,
  "nonce": "0x0bc2960701f73811",
  "difficulty": 1865733963102,
  "gasLimit": {
    "_hex": "0x2fefd8"
  },
  "gasUsed": {
    "_hex": "0x5208"
  },
  "miner": "0xC5624D986419AeBa6B6A7Ce5BAFd9883f75d8bc8",
  "extraData": "0x",
  "transactions": [
    {
      "hash": "0x786140ff7006b9b79706dba041fd742fcd01c388f0f6ff94fef34c4b6188009c",
      "blockHash": "0x0fbcf9537b758c89261ea814a9462f5fd8b91b271778834a1d3a6916a5d194c8",
      "blockNumber": 64100,
      "transactionIndex": 0,
      "confirmations": null,
      "from": "0x910a4aADabb3A7B3F7879118332E13Da66b68D77",
      "gasPrice": {
        "_hex": "0xcbef9730f"
      },
      "gasLimit": {
        "_hex": "0x5208"
      },
      "to": "0x32Be343B94f860124dC4fEe278FDCBD38C102D88",
      "value": {
        "_hex": "0x14d0d004aa9960000"
      },
      "nonce": 8,
      "data": "0x",
      "r": "0x149d9b5c45dc129aaa37aa8129d7343eba9b78adc15293552ae7c9d796aa705b",
      "s": "0x32bc9a338de8907e64a3e1ac6ef8770ffabd0624c8f1dfb3e3d55cb26d217930",
      "v": 27,
      "creates": null,
      "raw": "0xf86d08850cbef9730f8252089432be343b94f860124dc4fee278fdcbd38c102d8889014d0d004aa9960000801ba0149d9b5c45dc129aaa37aa8129d7343eba9b78adc15293552ae7c9d796aa705ba032bc9a338de8907e64a3e1ac6ef8770ffabd0624c8f1dfb3e3d55cb26d217930",
      "networkId": 0,
      "chainId": 0
    }
  ]
}