{
  "hash": "0x8e45d655c49cf18353d3bc338a3b27348b6a814049ed51a7bbd13335e805db42",
  "parentHash": "0x0bd29875931ee3e1a9c92b887f05b0014baf57612476c1d3ff6d84586956f0eb",
  "number": 109649,
  "timestamp": 1439960224,
  "nonce": "0x2cdba2b0a4559840",
  "difficulty": 4449254014446,
  "gasLimit": {
    "_hex": "0x2fefd8"
  },
  "gasUsed": {
    "_hex": "0x5208"
  },
  "miner": "0xfC25864D8326b4CB335C6942218e5F4Ee8D1E1EF",
  "extraData": "0x476574682f76312e302e312f77696e646f77732f676f312e342e32",
  "transactions": [
    {
      "hash": "0x82a29ff553ba0059a4d4559b8da7f57d1ee0e5563a65708ca69106313601ca00",
      "blockHash": "0x8e45d655c49cf18353d3bc338a3b27348b6a814049ed51a7bbd13335e805db42",
      "blockNumber": 109649,
      "transactionIndex": 0,
      "confirmations": null,
      "from": "0x007f7f58D3eb5b7510A301eCC749FC1fCDDBE14D",
      "gasPrice": {
        "_hex": "0xd382b0b9c"
      },
      "gasLimit": {
        "_hex": "0x15f90"
      },
      "to": "0xb1abce2918E21ddb93AA452731a12672A3d9F75a",
      "value": {
        "_hex": "0x4563918244f40000"
      },
      "nonce": 274,
      "data": "0x",
      "r": "0x969943176047da3736e9c1a604fb8df45d050f6ca00859a756bc6e87cdfeb3eb",
      "s": "0x2943635c7602dea0639a221dc4d2b00a924d8b471da208c5c4171d628ab7c19a",
      "v": 27,
      "creates": null,
      "raw": "0xf86f820112850d382b0b9c83015f9094b1abce2918e21ddb93aa452731a12672a3d9f75a884563918244f40000801ba0969943176047da3736e9c1a604fb8df45d050f6ca00859a756bc6e87cdfeb3eba02943635c7602dea0639a221dc4d2b00a924d8b471da208c5c4171d628ab7c19a",
      "networkId": 0,
      "chainId": 0
    }
  ]
}