{
  "hash": "0xb1e43e89f58982c590b3ec5e1febef247f02b86e17e1b37741efd947c4ed7f12",
  "parentHash": "0xefffafe5781a66554dbe611f18d6b0ad76a0f550dd7da77cb3a764fa9d196084",
  "number": 69399,
  "timestamp": 1439303628,
  "nonce": "0x15238e3a7b4424d9",
  "difficulty": 2052819564195,
  "gasLimit": {
    "_hex": "0x2fefd8"
  },
  "gasUsed": {
    "_hex": "0x5208"
  },
  "miner": "0xe343732D1eA6921c73683B947937AC902b77aD4f",
  "extraData": "0x476574682f76312e302e312d38326566323666362f6c696e75782f676f312e34",
  "transactions": [
    {
      "hash": "0x6c819a4a0606e78597b7f44ac9513382ac70d3b56325e2e4bc7bdc3f531d71e4",
      "blockHash": "0xb1e43e89f58982c590b3ec5e1febef247f02b86e17e1b37741efd947c4ed7f12",
      "blockNumber": 69399,
      "transactionIndex": 0,
      "confirmations": null,
      "from": "0x3C4367D8F62fdc56E28079AE1053B53b4DF9Ffd6",
      "gasPrice": {
        "_hex": "0xd8364fc25"
      },
      "gasLimit": {
        "_hex": "0x15f90"
      },
      "to": "0x9258E9B67440f712B7ae120CB8233baDCB1845ea",
      "value": {
        "_hex": "0xde0b6b3a7640000"
      },
      "nonce": 0,
      "data": "0x",
      "r": "0x1dfd914b7361740c744ce6baf1136b8f3a9e24ccd3d2542f3ef511b9134669b2",
      "s": "0x49ca5f44b82bbfe4bd64eb20b9ffe916f2e5cd8ccbf8195a73162763979a761c",
      "v": 28,
      "creates": null,
      "raw": "0xf86d80850d8364fc2583015f90949258e9b67440f712b7ae120cb8233badcb1845ea880de0b6b3a7640000801ca01dfd914b7361740c744ce6baf1136b8f3a9e24ccd3d2542f3ef511b9134669b2a049ca5f44b82bbfe4bd64eb20b9ffe916f2e5cd8ccbf8195a73162763979a761c",
      "networkId": 0,
      "chainId": 0
    }
  ]
}