{
  "hash": "0x2ff73f43a542bfca0b74c885e35a7026ba8031f727fd9e580228cea52b3d5d98",
  "parentHash": "0x11339585dd2ba95a9b4c03ea23f132850ce8a1074a4d979af2084409c61be65b",
  "number": 116456,
  "timestamp": 1440074617,
  "nonce": "0x60471e213f5cc766",
  "difficulty": 4553293286318,
  "gasLimit": {
    "_hex": "0x2fefd8"
  },
  "gasUsed": {
    "_hex": "0x5208"
  },
  "miner": "0xe6A7a1d47ff21B6321162AEA7C6CB457D5476Bca",
  "extraData": "0x476574682f76312e302e312d38326566323666362f6c696e75782f676f312e34",
  "transactions": [
    {
      "hash": "0x788ab3a4af611d612e21dcb0066da9a5aac3708cb58fc0586584d21fce6a13d7",
      "blockHash": "0x2ff73f43a542bfca0b74c885e35a7026ba8031f727fd9e580228cea52b3d5d98",
      "blockNumber": 116456,
      "transactionIndex": 0,
      "confirmations": null,
      "from": "0x02020D22dCF88f5eDd66B382D7da019F161fB7e3",
      "gasPrice": {
        "_hex": "0xdacf61fd8"
      },
      "gasLimit": {
        "_hex": "0x15f90"
      },
      "to": "0xCDA330c8160f0c90B8B528C6Db267acc17381818",
      "value": {
        "_hex": "0x16345785d8a0000"
      },
      "nonce": 40,
      "data": "0x",
      "r": "0xbc01fa07fa00d5c56f7293b95d1180fbeb398ee8344610ee60d8eb280763e13c",
      "s": "0x4c867cac793a81500680344a4be81b886288cccb35018d09dd3da1eb5a2f54b2",
      "v": 28,
      "creates": null,
      "raw": "0xf86d28850dacf61fd883015f9094cda330c8160f0c90b8b528c6db267acc1738181888016345785d8a0000801ca0bc01fa07fa00d5c56f7293b95d1180fbeb398ee8344610ee60d8eb280763e13ca04c867cac793a81500680344a4be81b886288cccb35018d09dd3da1eb5a2f54b2",
      "networkId": 0,
      "chainId": 0
    }
  ]
}