{
  "hash": "0x8a9b42f96a5432ec1a882501fa51f2e5f6ac6684aedc2fa05a3fe7b3dc5a0882",
  "parentHash": "0x06764b5b3356591fc9299e75a9eebec1312d9395e8255a0f31d98030520c8634",
  "number": 106749,
  "timestamp": 1439909888,
  "nonce": "0xf0dc94fe9cd3ea8e",
  "difficulty": 4446448062812,
  "gasLimit": {
    "_hex": "0x2fefd8"
  },
  "gasUsed": {
    "_hex": "0x5208"
  },
  "miner": "0xe6A7a1d47ff21B6321162AEA7C6CB457D5476Bca",
  "extraData": "0x476574682f76312e302e312d38326566323666362f6c696e75782f676f312e34",
  "transactions": [
    {
      "hash": "0x7d0ba3dafb98ce7528d7a15fdbfe523df32df5b40b7b099f987b652e2fb2fc2d",
      "blockHash": "0x8a9b42f96a5432ec1a882501fa51f2e5f6ac6684aedc2fa05a3fe7b3dc5a0882",
      "blockNumber": 106749,
      "transactionIndex": 0,
      "confirmations": null,
      "from": "0xb2d1cCd26cdfC4474Ac02423AeFc62dA2A3Bc839",
      "gasPrice": {
        "_hex": "0xceb1bca0c"
      },
      "gasLimit": {
        "_hex": "0x5208"
      },
      "to": "0x32Be343B94f860124dC4fEe278FDCBD38C102D88",
      "value": {
        "_hex": "0xbf14b0b47c08c000"
      },
      "nonce": 5,
      "data": "0x",
      "r": "0x2d96fd27e852ccd306d9752e259b2a736b255e2b91afbc8cd0bd1fec03347eb7",
      "s": "0x0175ebb7eba9e43d7e6c4a7d8f0ef09ee9e1df898876480fb16139ce14e77456",
      "v": 27,
      "creates": null,
      "raw": "0xf86c05850ceb1bca0c8252089432be343b94f860124dc4fee278fdcbd38c102d8888bf14b0b47c08c000801ba02d96fd27e852ccd306d9752e259b2a736b255e2b91afbc8cd0bd1fec03347eb7a00175ebb7eba9e43d7e6c4a7d8f0ef09ee9e1df898876480fb16139ce14e77456",
      "networkId": 0,
      "chainId": 0
    }
  ]
}