{
  "hash": "0x4cfc1730e207298b71bd97d498e38a93f9f6fd92d651b3a1d0251e189c04f9bf",
  "parentHash": "0x6c6f7e2a2527398b8f9c70037955bc681807b44a3d95a0e980b889569c6f3bd1",
  "number": 98629,
  "timestamp": 1439776270,
  "nonce": "0x98451ccc25d26c7e",
  "difficulty": 3836789914035,
  "gasLimit": {
    "_hex": "0x2fefd8"
  },
  "gasUsed": {
    "_hex": "0x5208"
  },
  "miner": "0x47ff6576639c2e94762eA5443978D7681C0E78DC",
  "extraData": "0x476574682f76312e302e312f6c696e75782f676f312e342e32",
  "transactions": [
    {
      "hash": "0x3f839856a5f1b65af870ae9a726a12449c027103882391d34d37cfe617bf5154",
      "blockHash": "0x4cfc1730e207298b71bd97d498e38a93f9f6fd92d651b3a1d0251e189c04f9bf",
      "blockNumber": 98629,
      "transactionIndex": 0,
      "confirmations": null,
      "from": "0x853Bff007d269E0526E871360d79d69D602770dc",
      "gasPrice": {
        "_hex": "0xd2c6cca58"
      },
      "gasLimit": {
        "_hex": "0x5208"
      },
      "to": "0x32Be343B94f860124dC4fEe278FDCBD38C102D88",
      "value": {
        "_hex": "0x1b68587eebf83c000"
      },
      "nonce": 9,
      "data": "0x",
      "r": "0xe08f9a2f12a9dfd96569875321d39455fc1239a7a0bd34f763882c2fb28442a1",
      "s": "0x4d2a40f9722124c3f9b1cde2bef033bad64311e94435036caedbfca5f4cde5c1",
      "v": 27,
      "creates": null,
      "raw": "0xf86d09850d2c6cca588252089432be343b94f860124dc4fee278fdcbd38c102d888901b68587eebf83c000801ba0e08f9a2f12a9dfd96569875321d39455fc1239a7a0bd34f763882c2fb28442a1a04d2a40f9722124c3f9b1cde2bef033bad64311e94435036caedbfca5f4cde5c1",
      "networkId": 0,
      "chainId": 0
    }
  ]
}