{
  "hash": "0xb2f591b07f2d66dfdb092644bbc87fd46d4866346405b7c9011a7874260e2ffa",
  "parentHash": "0x44217448e2bb8756c485fedbf9d406fdcedab626b8bad3401396153b80f2b7da",
  "number": 100320,
  "timestamp": 1439804502,
  "nonce": "0x20c5e26b6a2c1138",
  "difficulty": 3826662708025,
  "gasLimit": {
    "_hex": "0x2fefd8"
  },
  "gasUsed": {
    "_hex": "0x546c"
  },
  "miner": "0xe6A7a1d47ff21B6321162AEA7C6CB457D5476Bca",
  "extraData": "0x476574682f76312e302e312d38326566323666362f6c696e75782f676f312e34",
  "transactions": [
    {
      "hash": "0x2080e56e216e09af7f5cf7012c1e0ad5ec145347ea26d6149a7bb3725ae1c241",
      "blockHash": "0xb2f591b07f2d66dfdb092644bbc87fd46d4866346405b7c9011a7874260e2ffa",
      "blockNumber": 100320,
      "transactionIndex": 0,
      "confirmations": null,
      "from": "0x01c4Ad90B6A33Cc301b7F8d0b4024f51186c385B",
      "gasPrice": {
        "_hex": "0xd0863903c"
      },
      "gasLimit": {
        "_hex": "0x15f90"
      },
      "to": "0x2910543Af39abA0Cd09dBb2D50200b3E800A63D2",
      "value": {
        "_hex": "0x71afd498d0000"
      },
      "nonce": 2,
      "data": "0x454e4432414b4b5847",
      "r": "0xd42100a20c4549f0e49f4242d578e923ba18e25bf47407e235d9814a6b66473a",
      "s": "0x56e539ca41bcce68ad695f4c0a378f6dc60448c0fbc8dbc7cccceaa44765ef34",
      "v": 28,
      "creates": null,
      "raw": "0xf87502850d0863903c83015f90942910543af39aba0cd09dbb2d50200b3e800a63d287071afd498d000089454e4432414b4b58471ca0d42100a20c4549f0e49f4242d578e923ba18e25bf47407e235d9814a6b66473aa056e539ca41bcce68ad695f4c0a378f6dc60448c0fbc8dbc7cccceaa44765ef34",
      "networkId": 0,
      "chainId": 0
    }
  ]
}