{
  "hash": "0x00fe65ea296500809f3b5769ba3b6ec2603c4b1a1742d169a70bb751e6b16ea4",
  "parentHash": "0x027b3a8288817ad01fddd82295f67a445d51997556b099916d7acf1e0b7fa36a",
  "number": 89575,
  "timestamp": 1439625486,
  "nonce": "0xc9a72b68eb62e393",
  "difficulty": 3337060624638,
  "gasLimit": {
    "_hex": "0x2fefd8"
  },
  "gasUsed": {
    "_hex": "0xa410"
  },
  "miner": "0xee5379D0c1ca47327368027455074C26D9952628",
  "extraData": "0x476574682f76312e302e312d38326566323666362f6c696e75782f676f312e34",
  "transactions": [
    {
      "hash": "0x02c9916f74faf518f8c2848cdd406c7438a46aaa6b08cc8d2fc3dc40dc5a0d73",
      "blockHash": "0x00fe65ea296500809f3b5769ba3b6ec2603c4b1a1742d169a70bb751e6b16ea4",
      "blockNumber": 89575,
      "transactionIndex": 0,
      "confirmations": null,
      "from": "0x2FDfeedE63884ABE4F6A3D9476DF6091e0B27934",
      "gasPrice": {
        "_hex": "0xd797626c0"
      },
      "gasLimit": {
        "_hex": "0x5208"
      },
      "to": "0x32Be343B94f860124dC4fEe278FDCBD38C102D88",
      "value": {
        "_hex": "0x56bc30cd9a62c8000"
      },
      "nonce": 2,
      "data": "0x",
      "r": "0xc36fd5d057477f3b45f7514b02a202da9b40b77c802f7fef70763d0a3b9c655a",
      "s": "0x3e1755741fd0262c2c8267c5a2a357779f385c9bfdf7b359452284f00da74977",
      "v": 28,
      "creates": null,
      "raw": "0xf86d02850d797626c08252089432be343b94f860124dc4fee278fdcbd38c102d8889056bc30cd9a62c8000801ca0c36fd5d057477f3b45f7514b02a202da9b40b77c802f7fef70763d0a3b9c655aa03e1755741fd0262c2c8267c5a2a357779f385c9bfdf7b359452284f00da74977",
      "networkId": 0,
      "chainId": 0
    },
    {
      "hash": "0x9327996371c5e8b724d0aa99b12becbec3d0360a1d6b6325a9cd5a54a6084861",
      "blockHash": "0x00fe65ea296500809f3b5769ba3b6ec2603c4b1a1742d169a70bb751e6b16ea4",
      "blockNumber": 89575,
      "transactionIndex": 1,
      "confirmations": null,
      "from": "0x1D118f04b63d423FBd257fF79218f1A16711C4DA",
      "gasPrice": {
        "_hex": "0xce78da0c3"
      },
      "gasLimit": {
        "_hex": "0x15f90"
      },
      "to": "0x2102cC711D03dfcedF9a443B9bD540DacBFf0426",
      "value": {
        "_hex": "0xde0b6b3a7640000"
      },
      "nonce": 3,
      "data": "0x",
      "r": "0x3399d9f7d6e84252ca167ec4b0d24419f5810be093e90d08926452ce4d906c91",
      "s": "0x46e3642104230304d0711eeb5aa0beec460ad9e3ed7f9a1533924ad7bbd2bdea",
      "v": 28,
      "creates": null,
      "raw": "0xf86d03850ce78da0c383015f90942102cc711d03dfcedf9a443b9bd540dacbff0426880de0b6b3a7640000801ca03399d9f7d6e84252ca167ec4b0d24419f5810be093e90d08926452ce4d906c91a046e3642104230304d0711eeb5aa0beec460ad9e3ed7f9a1533924ad7bbd2bdea",
      "networkId": 0,
      "chainId": 0
    }
  ]
}