{
  "hash": "0xcef3861708ded0e30639cd8edd57930577f6bc773a45dc8e980dd83a5b566ac2",
  "parentHash": "0x882edb03b5275f0193115ed99420d76cf50fd5835444062b7153196b78e1044f",
  "number": 115318,
  "timestamp": 1440055134,
  "nonce": "0x2102eb82e154beb1",
  "difficulty": 4558360380121,
  "gasLimit": {
    "_hex": "0x2fefd8"
  },
  "gasUsed": {
    "_hex": "0x19a28"
  },
  "miner": "0x7E6930B63D03e88F5928C5cd6ee3FCee4D714F7F",
  "extraData": "0x",
  "transactions": [
    {
      "hash": "0x7dbfedc777cdd77946b67b69ca446d63e4186756523983ba26d421c025ce8697",
      "blockHash": "0xcef3861708ded0e30639cd8edd57930577f6bc773a45dc8e980dd83a5b566ac2",
      "blockNumber": 115318,
      "transactionIndex": 0,
      "confirmations": null,
      "from": "0xB17d2bFef3ED5F2EaA806Fe930878F6eBfD31CCf",
      "gasPrice": {
        "_hex": "0xd829211eb"
      },
      "gasLimit": {
        "_hex": "0x15f90"
      },
      "to": "0x5BB33B0e16f8a05C5124c33418922C5b1Be8F810",
      "value": {
        "_hex": "0xff59ee833b300000"
      },
      "nonce": 5,
      "data": "0x",
      "r": "0xc8718ba500f118657add1118fc34d833fa155d37de778e76238cf88d75447696",
      "s": "0x35b9eb300b6ff50bc61275b0888d02431f47252840881a7b887cbd5603553242",
      "v": 28,
      "creates": null,
      "raw": "0xf86d05850d829211eb83015f90945bb33b0e16f8a05c5124c33418922c5b1be8f81088ff59ee833b300000801ca0c8718ba500f118657add1118fc34d833fa155d37de778e76238cf88d75447696a035b9eb300b6ff50bc61275b0888d02431f47252840881a7b887cbd5603553242",
      "networkId": 0,
      "chainId": 0
    },
    {
      "hash": "0x6e09a2071deb7506f81adaea60afc0f7fec983c4584102d2a6ecd06f68b10508",
      "blockHash": "0xcef3861708ded0e30639cd8edd57930577f6bc773a45dc8e980dd83a5b566ac2",
      "blockNumber": 115318,
      "transactionIndex": 1,
      "confirmations": null,
      "from": "0xeCdf9d571849dE520c84eBEd7Ac4551e483eA5b3",
      "gasPrice": {
        "_hex": "0xd1ea9b29d"
      },
      "gasLimit": {
        "_hex": "0x5208"
      },
      "to": "0x32Be343B94f860124dC4fEe278FDCBD38C102D88",
      "value": {
        "_hex": "0x33ae1c5fe0be0800"
      },
      "nonce": 9,
      "data": "0x",
      "r": "0xe5bc96a799550f0948da93821566043f2ff8788917727fcb1c9648c3cc5b1933",
      "s": "0x438fac8cd9644ee47fd8514b8ba1432b2c2ce7c73d31e33917e2eb20ce2d0386",
      "v": 27,
      "creates": null,
      "raw": "0xf86c09850d1ea9b29d8252089432be343b94f860124dc4fee278fdcbd38c102d888833ae1c5fe0be0800801ba0e5bc96a799550f0948da93821566043f2ff8788917727fcb1c9648c3cc5b1933a0438fac8cd9644ee47fd8514b8ba1432b2c2ce7c73d31e33917e2eb20ce2d0386",
      "networkId": 0,
      "chainId": 0
    },
    {
      "hash": "0xf4e698f8bf9dc72a5ca184fe6033d293105c1055da418cb6855c860babdbd5c0",
      "blockHash": "0xcef3861708ded0e30639cd8edd57930577f6bc773a45dc8e980dd83a5b566ac2",
      "blockNumber": 115318,
      "transactionIndex": 2,
      "confirmations": null,
      "from": "0x0D81FD2bB264D9Ee0F432599b443ae1B691f6134",
      "gasPrice": {
        "_hex": "0xd1ea9b29d"
      },
      "gasLimit": {
        "_hex": "0x5208"
      },
      "to": "0x32Be343B94f860124dC4fEe278FDCBD38C102D88",
      "value": {
        "_hex": "0x5815da2dc742a800"
      },
      "nonce": 10,
      "data": "0x",
      "r": "0x9e21f0f79b4408431f2e897471656057e78ce91f7eae4b09a1e0bc958620b85a",
      "s": "0x7089e9d1a10b814586b2e40f8541f597269199c06d909867c27e36cab4ca800d",
      "v": 27,
      "creates": null,
      "raw": "0xf86c0a850d1ea9b29d8252089432be343b94f860124dc4fee278fdcbd38c102d88885815da2dc742a800801ba09e21f0f79b4408431f2e897471656057e78ce91f7eae4b09a1e0bc958620b85aa07089e9d1a10b814586b2e40f8541f597269199c06d909867c27e36cab4ca800d",
      "networkId": 0,
      "chainId": 0
    },
    {
      "hash": "0xc21814e6c502a59b7c2728bf7f190441f13371e706c70e20d8f8928454eb2839",
      "blockHash": "0xcef3861708ded0e30639cd8edd57930577f6bc773a45dc8e980dd83a5b566ac2",
      "blockNumber": 115318,
      "transactionIndex": 3,
      "confirmations": null,
      "from": "0x9cF18B3eb373C383a42d06136ba331D766ed9Fbb",
      "gasPrice": {
        "_hex": "0xd1ea9b29d"
      },
      "gasLimit": {
        "_hex": "0x5208"
      },
      "to": "0x32Be343B94f860124dC4fEe278FDCBD38C102D88",
      "value": {
        "_hex": "0xe0e8526ffb147800"
      },
      "nonce": 11,
      "data": "0x",
      "r": "0xdf985ecc89030986cee023b28a023800d240e5a07800d8bd067a5bdff6a50c5d",
      "s": "0x3c44e77200a2dba8ed6b00a8088dc15e8d9b54ac7a75d603942bd2fe40bf3855",
      "v": 28,
      "creates": null,
      "raw": "0xf86c0b850d1ea9b29d8252089432be343b94f860124dc4fee278fdcbd38c102d8888e0e8526ffb147800801ca0df985ecc89030986cee023b28a023800d240e5a07800d8bd067a5bdff6a50c5da03c44e77200a2dba8ed6b00a8088dc15e8d9b54ac7a75d603942bd2fe40bf3855",
      "networkId": 0,
      "chainId": 0
    },
    {
      "hash": "0xfb8c2558672683e8f1b7fffa3d09d12ec480436fc5e49a621b3989d8c1786aad",
      "blockHash": "0xcef3861708ded0e30639cd8edd57930577f6bc773a45dc8e980dd83a5b566ac2",
      "blockNumber": 115318,
      "transactionIndex": 4,
      "confirmations": null,
      "from": "0x7fDF07A0f977e4032C1f082Df831423abf58D13D",
      "gasPrice": {
        "_hex": "0xd1ea9b29d"
      },
      "gasLimit": {
        "_hex": "0x5208"
      },
      "to": "0x32Be343B94f860124dC4fEe278FDCBD38C102D88",
      "value": {
        "_hex": "0x2fc32cf26f2b3000"
      },
      "nonce": 8,
      "data": "0x",
      "r": "0x6e44676e615d3611f578c6359ee3eb4be3db397c960da32e3b5ed591e696f74f",
      "s": "0x3dba153acbd9569fbb0e7af1ade6421095083382a3cb7540a392becca05ee7ad",
      "v": 27,
      "creates": null,
      "raw": "0xf86c08850d1ea9b29d8252089432be343b94f860124dc4fee278fdcbd38c102d88882fc32cf26f2b3000801ba06e44676e615d3611f578c6359ee3eb4be3db397c960da32e3b5ed591e696f74fa03dba153acbd9569fbb0e7af1ade6421095083382a3cb7540a392becca05ee7ad",
      "networkId": 0,
      "chainId": 0
    }
  ]
}