{
  "hash": "0xea9c148615d84f77c4d5ac53228be056c2e0184320db7cf8aef26feb8c74dad6",
  "parentHash": "0x7164355697b2c9dc80484d06e27dae5a01e81616cebcc422a5fba3538e00ce5f",
  "number": 70074,
  "timestamp": 1439314407,
  "nonce": "0x5300b70cb79f8674",
  "difficulty": 2100305897536,
  "gasLimit": {
    "_hex": "0x2fefd8"
  },
  "gasUsed": {
    "_hex": "0x1c495"
  },
  "miner": "0xe6A7a1d47ff21B6321162AEA7C6CB457D5476Bca",
  "extraData": "0x476574682f76312e302e312d38326566323666362f6c696e75782f676f312e34",
  "transactions": [
    {
      "hash": "0xa72d45ae7b9c2668fc667fb3f4ee4b5060911046891bdcbdd40248060aed65dd",
      "blockHash": "0xea9c148615d84f77c4d5ac53228be056c2e0184320db7cf8aef26feb8c74dad6",
      "blockNumber": 70074,
      "transactionIndex": 0,
      "confirmations": null,
      "from": "0xb50405193Dc0c7077dD65252C15C39242F0aCB76",
      "gasPrice": {
        "_hex": "0xdd88282c0"
      },
      "gasLimit": {
        "_hex": "0x5208"
      },
      "to": "0x32Be343B94f860124dC4fEe278FDCBD38C102D88",
      "value": {
        "_hex": "0xddc46ea6af2dc00"
      },
      "nonce": 0,
      "data": "0x",
      "r": "0x40ab466de276dd7c996d3d9d6e076afcf6ad213c915913106d950d1445083971",
      "s": "0x3cd5367b4b6f1da54719569d3d5c46bf926833860d000352c3252915bd24ee84",
      "v": 27,
      "creates": null,
      "raw": "0xf86c80850dd88282c08252089432be343b94f860124dc4fee278fdcbd38c102d88880ddc46ea6af2dc00801ba040ab466de276dd7c996d3d9d6e076afcf6ad213c915913106d950d1445083971a03cd5367b4b6f1da54719569d3d5c46bf926833860d000352c3252915bd24ee84",
      "networkId": 0,
      "chainId": 0
    },
    {
      "hash": "0xf04258c2d8c7e33b01246b11dbf8855b2e05311fd574b570067f6dc96d901665",
      "blockHash": "0xea9c148615d84f77c4d5ac53228be056c2e0184320db7cf8aef26feb8c74dad6",
      "blockNumber": 70074,
      "transactionIndex": 1,
      "confirmations": null,
      "from": "0xa9f5E7bf6Cbf6fEc55B30850Eb492b47A376d050",
      "gasPrice": {
        "_hex": "0xdd88282c0"
      },
      "gasLimit": {
        "_hex": "0x5208"
      },
      "to": "0x32Be343B94f860124dC4fEe278FDCBD38C102D88",
      "value": {
        "_hex": "0x1c67f187f1643f0000"
      },
      "nonce": 8,
      "data": "0x",
      "r": "0x45f86e183ba5be7cf3df68236487230132bdd1fa400799272bf1c3f1152e2054",
      "s": "0x527194c8c6ec4b634d5a76b804a7eb2bd182af122958d55e3b77ae4ae18fa385",
      "v": 27,
      "creates": null,
      "raw": "0xf86d08850dd88282c08252089432be343b94f860124dc4fee278fdcbd38c102d88891c67f187f1643f0000801ba045f86e183ba5be7cf3df68236487230132bdd1fa400799272bf1c3f1152e2054a0527194c8c6ec4b634d5a76b804a7eb2bd182af122958d55e3b77ae4ae18fa385",
      "networkId": 0,
      "chainId": 0
    },
    {
      "hash": "0x23cf3637289fa4b7edd7bfc6d7fe39f071debdc36f81e02509a8e4ceee4716ad",
      "blockHash": "0xea9c148615d84f77c4d5ac53228be056c2e0184320db7cf8aef26feb8c74dad6",
      "blockNumber": 70074,
      "transactionIndex": 2,
      "confirmations": null,
      "from": "0x7fa165177F28D171bA7C17f765c1904344Ec64CB",
      "gasPrice": {
        "_hex": "0xdd88282c0"
      },
      "gasLimit": {
        "_hex": "0x5208"
      },
      "to": "0x32Be343B94f860124dC4fEe278FDCBD38C102D88",
      "value": {
        "_hex": "0x2b5df3f4d7516e000"
      },
      "nonce": 7,
      "data": "0x",
      "r": "0xbbabc1b502cc2b614a427966493fa48d385d9518f43a9ae7a4534fd4c8aa759e",
      "s": "0x37696b0ee6af33fd42852062a129456ca9ed231c2ff99ed1ac63a87d2057e383",
      "v": 28,
      "creates": null,
      "raw": "0xf86d07850dd88282c08252089432be343b94f860124dc4fee278fdcbd38c102d888902b5df3f4d7516e000801ca0bbabc1b502cc2b614a427966493fa48d385d9518f43a9ae7a4534fd4c8aa759ea037696b0ee6af33fd42852062a129456ca9ed231c2ff99ed1ac63a87d2057e383",
      "networkId": 0,
      "chainId": 0
    },
    {
      "hash": "0xb9029afa7279002d3d6993d0d76ad3155d0eef606f0095f2a9ff7ccfda4ad3e8",
      "blockHash": "0xea9c148615d84f77c4d5ac53228be056c2e0184320db7cf8aef26feb8c74dad6",
      "blockNumber": 70074,
      "transactionIndex": 3,
      "confirmations": null,
      "from": "0x000Df160997ba9420e4622996b05447871848834",
      "gasPrice": {
        "_hex": "0xba43b7400"
      },
      "gasLimit": {
        "_hex": "0x9965e"
      },
      "to": "0xad5e5A5Bc4654dbeF0d5CABD7ABeB426769C073a",
      "value": {
        "_hex": "0xa"
      },
      "nonce": 8,
      "data": "0xfcfff16f",
      "r": "0x3a35842a79a31a7da5066232c1364b378a548d37ca85e4945ef255f7bb90d2b4",
      "s": "0x0ca7a9aff7ecc77ca89bdf3092ea162b0b20604832663b68dd88d9db8a50d627",
      "v": 28,
      "creates": null,
      "raw": "0xf86908850ba43b74008309965e94ad5e5a5bc4654dbef0d5cabd7abeb426769c073a0a84fcfff16f1ca03a35842a79a31a7da5066232c1364b378a548d37ca85e4945ef255f7bb90d2b4a00ca7a9aff7ecc77ca89bdf3092ea162b0b20604832663b68dd88d9db8a50d627",
      "networkId": 0,
      "chainId": 0
    }
  ]
}