{
  "hash": "0x9fd0d57b5909027916e31d75906b4d0c382d1a0715bdbe151bd89202e97adb4e",
  "parentHash": "0xd1f9d5bc475b71234e03fac8733f2f8910d9264990c796539ea20f60e61c26f3",
  "number": 119653,
  "timestamp": 1440146532,
  "nonce": "0xf114d0589d56178c",
  "difficulty": 4387890385312,
  "gasLimit": {
    "_hex": "0x2fefd8"
  },
  "gasUsed": {
    "_hex": "0x5208"
  },
  "miner": "0x3D92adD52e14562fb2621F47a37dBd6172483A7f",
  "extraData": "0xd983010002844765746887676f312e342e328777696e646f7773",
  "transactions": [
    {
      "hash": "0xe433261dde13d4130ad988a5ea737579c453f5541c043ad355849a3b3482bb5e",
      "blockHash": "0x9fd0d57b5909027916e31d75906b4d0c382d1a0715bdbe151bd89202e97adb4e",
      "blockNumber": 119653,
      "transactionIndex": 0,
      "confirmations": null,
      "from": "0x4adA827a479Cf31e27be19Fcf33Fb06D881057b7",
      "gasPrice": {
        "_hex": "0xd606428e3"
      },
      "gasLimit": {
        "_hex": "0x15f90"
      },
      "to": "0xA2E85113F9D7f452d7C638475bDf82c58306c26f",
      "value": {
        "_hex": "0x8ac7230489e80000"
      },
      "nonce": 1,
      "data": "0x",
      "r": "0x8821bf205a528dcd4d759788483b4a539d83f779c84ba9a349d3baf8ba80dc2f",
      "s": "0x5f7dc3b30bfb7c1fc5005b4e1c501dd15963f28fee8a9d6b6faec554561dc9c2",
      "v": 27,
      "creates": null,
      "raw": "0xf86d01850d606428e383015f9094a2e85113f9d7f452d7c638475bdf82c58306c26f888ac7230489e80000801ba08821bf205a528dcd4d759788483b4a539d83f779c84ba9a349d3baf8ba80dc2fa05f7dc3b30bfb7c1fc5005b4e1c501dd15963f28fee8a9d6b6faec554561dc9c2",
      "networkId": 0,
      "chainId": 0
    }
  ]
}