{
  "hash": "0x3ddaf995a605591539188da4102eb645e5dbf7bcff01f5966858ea2b883b2982",
  "parentHash": "0xdd96b232b162e8b7edc7f46c1e1d6bd42959caad7199e293b7214c3844782a9e",
  "number": 115180,
  "timestamp": 1440052924,
  "nonce": "0xe0782bb795fa4470",
  "difficulty": 4531803883564,
  "gasLimit": {
    "_hex": "0x2fefd8"
  },
  "gasUsed": {
    "_hex": "0x5208"
  },
  "miner": "0xe6A7a1d47ff21B6321162AEA7C6CB457D5476Bca",
  "extraData": "0x476574682f76312e302e312d38326566323666362f6c696e75782f676f312e34",
  "transactions": [
    {
      "hash": "0xcc9e013ecb627b0c773ef30ccb176fcc88d22759bd6b9653a2c27928d6d40872",
      "blockHash": "0x3ddaf995a605591539188da4102eb645e5dbf7bcff01f5966858ea2b883b2982",
      "blockNumber": 115180,
      "transactionIndex": 0,
      "confirmations": null,
      "from": "0x77EC9ad4A7E9418774C29415CAaF4Ee0da96eF64",
      "gasPrice": {
        "_hex": "0xd2150d8d9"
      },
      "gasLimit": {
        "_hex": "0x15f90"
      },
      "to": "0x6A8CC233E14F874983bB2F37D1DE706f6910Ef0b",
      "value": {
        "_hex": "0x52663ccab1e1c0000"
      },
      "nonce": 3,
      "data": "0x",
      "r": "0x085b189adb0b142a42805ccf9d5af7ba42141eee114d3b95e0c36871e1d2cb65",
      "s": "0x19146f81431b0b7bafe3aebc4caf4dfc51a7c5c6047079d53643bb254e38e7fb",
      "v": 28,
      "creates": null,
      "raw": "0xf86e03850d2150d8d983015f90946a8cc233e14f874983bb2f37d1de706f6910ef0b89052663ccab1e1c0000801ca0085b189adb0b142a42805ccf9d5af7ba42141eee114d3b95e0c36871e1d2cb65a019146f81431b0b7bafe3aebc4caf4dfc51a7c5c6047079d53643bb254e38e7fb",
      "networkId": 0,
      "chainId": 0
    }
  ]
}