{
  "hash": "0x81e585013fe71db8ba44845efdd456cedf11812ae04a3032aca9442fe3c805b4",
  "parentHash": "0x1b5aa9298b893eb9bfcf4de48005baa353e85cd9fdd169c6947409d132b34cdb",
  "number": 68578,
  "timestamp": 1439290300,
  "nonce": "0x7b515a5944d6ff78",
  "difficulty": 2014294773725,
  "gasLimit": {
    "_hex": "0x2fefd8"
  },
  "gasUsed": {
    "_hex": "0x5208"
  },
  "miner": "0x88D74a59454F6cF3B51ef6b9136AFb6b9D405A88",
  "extraData": "0x476574682f76312e302e312d37666266393930632f6c696e75782f676f312e34",
  "transactions": [
    {
      "hash": "0x0e9cd9adb825584cc5b27077b3b120c6e9d08c35cd10a4a11f372ec083b9de4d",
      "blockHash": "0x81e585013fe71db8ba44845efdd456cedf11812ae04a3032aca9442fe3c805b4",
      "blockNumber": 68578,
      "transactionIndex": 0,
      "confirmations": null,
      "from": "0xfBb274b243adf278B9d86e286343b665B95649Eb",
      "gasPrice": {
        "_hex": "0xba43b7400"
      },
      "gasLimit": {
        "_hex": "0x5208"
      },
      "to": "0xF005455494Edd4238431E3eA634Bd4ACf7608D26",
      "value": {
        "_hex": "0xc1c23435b07000"
      },
      "nonce": 1,
      "data": "0x",
      "r": "0x084bc4da5a38a839e81131f1a123de31150339dad67040c77cf3a57d1ea38032",
      "s": "0x0a4d669586375706739c7e30bc713273ea91ae7846ba7934d910d16d6010d7b0",
      "v": 28,
      "creates": null,
      "raw": "0xf86b01850ba43b740082520894f005455494edd4238431e3ea634bd4acf7608d2687c1c23435b07000801ca0084bc4da5a38a839e81131f1a123de31150339dad67040c77cf3a57d1ea38032a00a4d669586375706739c7e30bc713273ea91ae7846ba7934d910d16d6010d7b0",
      "networkId": 0,
      "chainId": 0
    }
  ]
}