{
  "hash": "0xdb04aafcf7d923a9b2448a37485c38f2dd74faad0d7b5145ca561d4a5378245c",
  "parentHash": "0x42ac5b66caf95840b9e522ad6627f5b65ab42f4a611ee68b8b99b3b9c3b612d2",
  "number": 48759,
  "timestamp": 1438962525,
  "nonce": "0x6c5bda8cc1a97c32",
  "difficulty": 1473573383279,
  "gasLimit": {
    "_hex": "0x1dab8"
  },
  "gasUsed": {
    "_hex": "0x546c"
  },
  "miner": "0xf927a40C8B7F6E07c5af7FA2155B4864a4112B13",
  "extraData": "0x476574682f76312e302e312f6c696e75782f676f312e342e32",
  "transactions": [
    {
      "hash": "0x70809cd2abc1a6eba37060e036e5081ad6593a9eb9639156a176744d5c9b1a02",
      "blockHash": "0xdb04aafcf7d923a9b2448a37485c38f2dd74faad0d7b5145ca561d4a5378245c",
      "blockNumber": 48759,
      "transactionIndex": 0,
      "confirmations": null,
      "from": "0x256A6D2Ae68632a3c99b66d792C13330842476d7",
      "gasPrice": {
        "_hex": "0xba43b7400"
      },
      "gasLimit": {
        "_hex": "0x55f0"
      },
      "to": "0x2910543Af39abA0Cd09dBb2D50200b3E800A63D2",
      "value": {
        "_hex": "0x2b421b832616d1e000"
      },
      "nonce": 4,
      "data": "0x454e41425441515638",
      "r": "0xa2e1eaf844bab3707ea321f282b118007ed35782aa5c9ee03846036b0e7897e4",
      "s": "0x4277796e6766f4a1162aa1135f0131b15e3c7e7d4f38cc49419349249f755540",
      "v": 27,
      "creates": null,
      "raw": "0xf87604850ba43b74008255f0942910543af39aba0cd09dbb2d50200b3e800a63d2892b421b832616d1e00089454e414254415156381ba0a2e1eaf844bab3707ea321f282b118007ed35782aa5c9ee03846036b0e7897e4a04277796e6766f4a1162aa1135f0131b15e3c7e7d4f38cc49419349249f755540",
      "networkId": 0,
      "chainId": 0
    }
  ]
}