{
  "hash": "0xb0a8cae5514bc999cc791942bec0565a5390921cea43440241e8181e9d6884b2",
  "parentHash": "0x69bffd03fac2bb530e124356d483ef726562cea673ea405f58c7b21e0da8566b",
  "number": 71980,
  "timestamp": 1439344999,
  "nonce": "0xbb0e6d2ba53e1c53",
  "difficulty": 2170720009871,
  "gasLimit": {
    "_hex": "0x2fefd8"
  },
  "gasUsed": {
    "_hex": "0x5a88"
  },
  "miner": "0xEF247E639d49461D25F57e9362CadE3120910Ce0",
  "extraData": "0x476574682f76312e302e312f6c696e75782f676f312e342e32",
  "transactions": [
    {
      "hash": "0x97b0a3d8ff1dbd9dec115204ef6613f17710888d964a7467ff6e376788e83fab",
      "blockHash": "0xb0a8cae5514bc999cc791942bec0565a5390921cea43440241e8181e9d6884b2",
      "blockNumber": 71980,
      "transactionIndex": 0,
      "confirmations": null,
      "from": "0x5eD8Cee6b63b1c6AFce3AD7c92f4fD7E1B8fAd9F",
      "gasPrice": {
        "_hex": "0x174876e800"
      },
      "gasLimit": {
        "_hex": "0x15f90"
      },
      "to": "0x5eD8Cee6b63b1c6AFce3AD7c92f4fD7E1B8fAd9F",
      "value": {
        "_hex": "0x0"
      },
      "nonce": 0,
      "data": "0x1c316c847aeeabce24ffda88715651c5c6192753c0a1f2ce6f6a61c2f2134ea4",
      "r": "0xf7d7e34bd7ada667e73bbf26a7a5d6051ed4cdb171a8cb27f022f440bd6152c5",
      "s": "0x11e975c04dca9fcc927dbb6d1e9c3a9789e893b6b0fbf568ada9760d9ce780f7",
      "v": 28,
      "creates": null,
      "raw": "0xf8858085174876e80083015f90945ed8cee6b63b1c6afce3ad7c92f4fd7e1b8fad9f80a01c316c847aeeabce24ffda88715651c5c6192753c0a1f2ce6f6a61c2f2134ea41ca0f7d7e34bd7ada667e73bbf26a7a5d6051ed4cdb171a8cb27f022f440bd6152c5a011e975c04dca9fcc927dbb6d1e9c3a9789e893b6b0fbf568ada9760d9ce780f7",
      "networkId": 0,
      "chainId": 0
    }
  ]
}