{
  "hash": "0x100bb57322af690b0df29509e852340a477b36be32b36f04993da25b7b32a2f2",
  "parentHash": "0x7251554d576d1873c873a1e8983e49a4c818bc9004000cba96c807146c41a593",
  "number": 48685,
  "timestamp": 1438961059,
  "nonce": "0x16097e5909159bf3",
  "difficulty": 1473586382451,
  "gasLimit": {
    "_hex": "0x1bf77"
  },
  "gasUsed": {
    "_hex": "0xa8d8"
  },
  "miner": "0x47ff6576639c2e94762eA5443978D7681C0E78DC",
  "extraData": "0x476574682f76312e302e312f6c696e75782f676f312e342e32",
  "transactions": [
    {
      "hash": "0xa6d61f3d5e08f89a2b0c99ce9e9aa37716863b90bffb6a933633777e9f346429",
      "blockHash": "0x100bb57322af690b0df29509e852340a477b36be32b36f04993da25b7b32a2f2",
      "blockNumber": 48685,
      "transactionIndex": 0,
      "confirmations": null,
      "from": "0xfA283299603d8758E8cAb082125D2c8f7d445429",
      "gasPrice": {
        "_hex": "0x110c8f7d8de"
      },
      "gasLimit": {
        "_hex": "0xc350"
      },
      "to": "0x2910543Af39abA0Cd09dBb2D50200b3E800A63D2",
      "value": {
        "_hex": "0x15bc2023fdf92dc0000"
      },
      "nonce": 0,
      "data": "0x454e4d314438554138",
      "r": "0x6a0bda5e81e6b68ee900edf1ed8ad7f8482633fe247de4cab1c0486fb924c609",
      "s": "0xccddc7893071b7790474da3ef8da9947f75a73632e292d5508bfc71415df1254",
      "v": 28,
      "creates": null,
      "raw": "0xf87880860110c8f7d8de82c350942910543af39aba0cd09dbb2d50200b3e800a63d28a015bc2023fdf92dc000089454e4d3144385541381ca06a0bda5e81e6b68ee900edf1ed8ad7f8482633fe247de4cab1c0486fb924c609a0ccddc7893071b7790474da3ef8da9947f75a73632e292d5508bfc71415df1254",
      "networkId": 0,
      "chainId": 0
    },
    {
      "hash": "0x40af206546a4fc69d68249ec0d5ab3badaff287a5d5dd1df44c362a80c9ff9e2",
      "blockHash": "0x100bb57322af690b0df29509e852340a477b36be32b36f04993da25b7b32a2f2",
      "blockNumber": 48685,
      "transactionIndex": 1,
      "confirmations": null,
      "from": "0x62fB8bD1F0E66B90533e071e6cBE6111FEF0BC63",
      "gasPrice": {
        "_hex": "0x110c8f7d8de"
      },
      "gasLimit": {
        "_hex": "0xc350"
      },
      "to": "0x2910543Af39abA0Cd09dBb2D50200b3E800A63D2",
      "value": {
        "_hex": "0x21e0c0013070adc0000"
      },
      "nonce": 1,
      "data": "0x454e314d4b5a423952",
      "r": "0x48e3bba4e2f503e05cf0cab67bf2750528c20b06501c92bd822a17f672462b06",
      "s": "0x7d4b07cb209ac17985bd51e2f8d274931137f22c200e02da5f38200acc784607",
      "v": 27,
      "creates": null,
      "raw": "0xf87801860110c8f7d8de82c350942910543af39aba0cd09dbb2d50200b3e800a63d28a021e0c0013070adc000089454e314d4b5a4239521ba048e3bba4e2f503e05cf0cab67bf2750528c20b06501c92bd822a17f672462b06a07d4b07cb209ac17985bd51e2f8d274931137f22c200e02da5f38200acc784607",
      "networkId": 0,
      "chainId": 0
    }
  ]
}