{
  "hash": "0x8cab45de61d20c850df1d6998eb867d9635761b9b272c51f6d54ac66060be77a",
  "parentHash": "0xa9c338bfe6cb7d6ab1057cb4f021ebcd7a8a14e7c20322307d197582389c2572",
  "number": 84433,
  "timestamp": 1439549521,
  "nonce": "0xa10af74c80bab7dc",
  "difficulty": 2570202194040,
  "gasLimit": {
    "_hex": "0x2fefd8"
  },
  "gasUsed": {
    "_hex": "0xa960"
  },
  "miner": "0xe6A7a1d47ff21B6321162AEA7C6CB457D5476Bca",
  "extraData": "0x476574682f76312e302e312d38326566323666362f6c696e75782f676f312e34",
  "transactions": [
    {
      "hash": "0x545e8b295ddecff5f1f4bec86c461e31855e5240c946480b58e6fcfa78364704",
      "blockHash": "0x8cab45de61d20c850df1d6998eb867d9635761b9b272c51f6d54ac66060be77a",
      "blockNumber": 84433,
      "transactionIndex": 0,
      "confirmations": null,
      "from": "0x8F68fbE2DCFf038C24F650C9e05Ee478038171cd",
      "gasPrice": {
        "_hex": "0xd606428e3"
      },
      "gasLimit": {
        "_hex": "0x55f0"
      },
      "to": "0x40B9b889A21Ff1534d018D71Dc406122EBcf3F5A",
      "value": {
        "_hex": "0x15af1d78b58c400000"
      },
      "nonce": 16,
      "data": "0x4a465343433732393935",
      "r": "0x26c230e6904b3a67bdd9c623637178b5910255adcacf76eb28f6f3608146bec9",
      "s": "0x058d6cddab66d13063b707728822e692605c2b5222c8dff196adcadc06da558c",
      "v": 27,
      "creates": null,
      "raw": "0xf87710850d606428e38255f09440b9b889a21ff1534d018d71dc406122ebcf3f5a8915af1d78b58c4000008a4a4653434337323939351ba026c230e6904b3a67bdd9c623637178b5910255adcacf76eb28f6f3608146bec9a0058d6cddab66d13063b707728822e692605c2b5222c8dff196adcadc06da558c",
      "networkId": 0,
      "chainId": 0
    },
    {
      "hash": "0xf22d3e71fefceb10ede5c259deadae9695798c9af62e8e71584bc98ab5eb5dc2",
      "blockHash": "0x8cab45de61d20c850df1d6998eb867d9635761b9b272c51f6d54ac66060be77a",
      "blockNumber": 84433,
      "transactionIndex": 1,
      "confirmations": null,
      "from": "0x8F68fbE2DCFf038C24F650C9e05Ee478038171cd",
      "gasPrice": {
        "_hex": "0xd1e1364c5"
      },
      "gasLimit": {
        "_hex": "0x55f0"
      },
      "to": "0x40B9b889A21Ff1534d018D71Dc406122EBcf3F5A",
      "value": {
        "_hex": "0x15af1d78b58c400000"
      },
      "nonce": 17,
      "data": "0x4a465343433732393935",
      "r": "0x175a8fd5a085cf954ced24e4702d2449f530123c6a162db52f3c8f4b3812940f",
      "s": "0x2b85485cbd624d2b2e69193f611c30c118d63b9f73dfdb7771c2c2a047cf128c",
      "v": 28,
      "creates": null,
      "raw": "0xf87711850d1e1364c58255f09440b9b889a21ff1534d018d71dc406122ebcf3f5a8915af1d78b58c4000008a4a4653434337323939351ca0175a8fd5a085cf954ced24e4702d2449f530123c6a162db52f3c8f4b3812940fa02b85485cbd624d2b2e69193f611c30c118d63b9f73dfdb7771c2c2a047cf128c",
      "networkId": 0,
      "chainId": 0
    }
  ]
}