{
  "hash": "0x35e80cc28925c1f3364131a7934d095902012df6681a2fe280b6dc705be8683d",
  "parentHash": "0xf2ac150db6cc8ca424a26c08be7d8336cafc63eec6e08d48879ec05c6352b4e8",
  "number": 51610,
  "timestamp": 1439007902,
  "nonce": "0x0918b532f6c99852",
  "difficulty": 1556634694366,
  "gasLimit": {
    "_hex": "0xc46ce"
  },
  "gasUsed": {
    "_hex": "0x7a120"
  },
  "miner": "0xEF247E639d49461D25F57e9362CadE3120910Ce0",
  "extraData": "0x476574682f76312e302e312f6c696e75782f676f312e342e32",
  "transactions": [
    {
      "hash": "0xa9c7e60b2cb980c7192fd61839a4917da09d9bd36f72a938442d58f2c31c6da2",
      "blockHash": "0x35e80cc28925c1f3364131a7934d095902012df6681a2fe280b6dc705be8683d",
      "blockNumber": 51610,
      "transactionIndex": 0,
      "confirmations": null,
      "from": "0xFCf9f6A78f06227522c6f948ec0119dA31680Ef7",
      "gasPrice": {
        "_hex": "0xdcda0424b"
      },
      "gasLimit": {
        "_hex": "0x7a120"
      },
      "to": "0xBAA54d6E90c3F4d7Ebec11bD180134C7eD8eBb52",
      "value": {
        "_hex": "0x16345785d8a0000"
      },
      "nonce": 21,
      "data": "0x",
      "r": "0xd5e4a355f94fb8c4a8cbce33964c0d1880b95a6f23aaaeba7d35afb7d9271850",
      "s": "0x7bc2e951f75ec7e164f226711af7f26c65a7a869e233debb73b6c1179530ef49",
      "v": 28,
      "creates": null,
      "raw": "0xf86d15850dcda0424b8307a12094baa54d6e90c3f4d7ebec11bd180134c7ed8ebb5288016345785d8a0000801ca0d5e4a355f94fb8c4a8cbce33964c0d1880b95a6f23aaaeba7d35afb7d9271850a07bc2e951f75ec7e164f226711af7f26c65a7a869e233debb73b6c1179530ef49",
      "networkId": 0,
      "chainId": 0
    }
  ]
}