{
  "hash": "0xfc8393df4ae3cfe2f0406d66922fa5e5807dd8b21f4c89fcd8a29934d73f8c38",
  "parentHash": "0x4b8b863e0afced5dd1905939ccd79cc58595096e38389d7a74020fea59a1fa01",
  "number": 82482,
  "timestamp": 1439520101,
  "nonce": "0x271c2729820009c3",
  "difficulty": 2378762567858,
  "gasLimit": {
    "_hex": "0x2fefd8"
  },
  "gasUsed": {
    "_hex": "0x5208"
  },
  "miner": "0xe090Ffdced499691fA9379752a59F8A058c1eE4A",
  "extraData": "0x476574682f76312e302e312f6c696e75782f676f312e342e32",
  "transactions": [
    {
      "hash": "0xa9d951039f462d7622a1e5f99786ab76c44354e505f72767ecc35cb74e45afbc",
      "blockHash": "0xfc8393df4ae3cfe2f0406d66922fa5e5807dd8b21f4c89fcd8a29934d73f8c38",
      "blockNumber": 82482,
      "transactionIndex": 0,
      "confirmations": null,
      "from": "0x449AC4Fbe383e36738855E364a57f471b2BFa131",
      "gasPrice": {
        "_hex": "0xd84cc2716"
      },
      "gasLimit": {
        "_hex": "0x15f90"
      },
      "to": "0x314c7Daa4825ffC0293819119c5FDCC0CcF19827",
      "value": {
        "_hex": "0x54b40b1f852bda00000"
      },
      "nonce": 5,
      "data": "0x",
      "r": "0x492ab6e70e28c90da8330b467694073437d2ea69fa0c72ab9874c0171bc8e86f",
      "s": "0x7de7cf9d22d095ff349b5d3ec605efe647b9540f400ff5dd06eeb2c5cb963a34",
      "v": 27,
      "creates": null,
      "raw": "0xf86f05850d84cc271683015f9094314c7daa4825ffc0293819119c5fdcc0ccf198278a054b40b1f852bda00000801ba0492ab6e70e28c90da8330b467694073437d2ea69fa0c72ab9874c0171bc8e86fa07de7cf9d22d095ff349b5d3ec605efe647b9540f400ff5dd06eeb2c5cb963a34",
      "networkId": 0,
      "chainId": 0
    }
  ]
}