{
  "hash": "0xbf98bd48db587f6e86554b0ab9250dd36eebd872b3d16b4c2d436f54ffe13417",
  "parentHash": "0x9f5af882d36220f65ad37c40a110c5728e7028bd0eeb8c0e102af432e81bead8",
  "number": 68989,
  "timestamp": 1439296793,
  "nonce": "0x701b89c4b242d6a2",
  "difficulty": 2034955716955,
  "gasLimit": {
    "_hex": "0x2fefd8"
  },
  "gasUsed": {
    "_hex": "0x17cd8"
  },
  "miner": "0x70137010922f2fC2964b3792907F79FBB75fEbe8",
  "extraData": "0x476574682f76312e302e302f6c696e75782f676f312e342e32",
  "transactions": [
    {
      "hash": "0x0dec4a2714d4b612597bc0928030499ce8d28a2bc5ac34d6e75cdbbe0a8928ac",
      "blockHash": "0xbf98bd48db587f6e86554b0ab9250dd36eebd872b3d16b4c2d436f54ffe13417",
      "blockNumber": 68989,
      "transactionIndex": 0,
      "confirmations": null,
      "from": "0xEB0e25CBd985cFdD11B56CA1B0d5dd11A6A06bfC",
      "gasPrice": {
        "_hex": "0xba43b7400"
      },
      "gasLimit": {
        "_hex": "0x15f90"
      },
      "to": "0x793AE8C1b1a160BFc07BFB0d04F85eab1A71F4f2",
      "value": {
        "_hex": "0x0"
      },
      "nonce": 0,
      "data": "0x3ba15036",
      "r": "0xadbbb966e04bb6a59742a5902b871fcdb8538a66e3ae3ec91a291ad0f6e35b0a",
      "s": "0x6062818e2cfecf588f449999995d989f4b2cd2e51d5264255e6f0bbb43ae0990",
      "v": 28,
      "creates": null,
      "raw": "0xf86980850ba43b740083015f9094793ae8c1b1a160bfc07bfb0d04f85eab1a71f4f280843ba150361ca0adbbb966e04bb6a59742a5902b871fcdb8538a66e3ae3ec91a291ad0f6e35b0aa06062818e2cfecf588f449999995d989f4b2cd2e51d5264255e6f0bbb43ae0990",
      "networkId": 0,
      "chainId": 0
    },
    {
      "hash": "0xa506fd3294ba30781249c0b30d999c58a162b35dab19971bd71a189d8078356b",
      "blockHash": "0xbf98bd48db587f6e86554b0ab9250dd36eebd872b3d16b4c2d436f54ffe13417",
      "blockNumber": 68989,
      "transactionIndex": 1,
      "confirmations": null,
      "from": "0x17Cbd659e5A35A51B06276eCe5Fd4CA455d24e61",
      "gasPrice": {
        "_hex": "0xba43b7400"
      },
      "gasLimit": {
        "_hex": "0x15f90"
      },
      "to": "0x793AE8C1b1a160BFc07BFB0d04F85eab1A71F4f2",
      "value": {
        "_hex": "0x0"
      },
      "nonce": 0,
      "data": "0x3ba15036",
      "r": "0x430373bffe738b5444e2e98b0eaf282b659b21db5d83ee224dced4c3a91ed0ca",
      "s": "0x7109ce65a5c0ca1fec94e209229d6faa57112a01662f4f0f2e33fbb7c732edf2",
      "v": 28,
      "creates": null,
      "raw": "0xf86980850ba43b740083015f9094793ae8c1b1a160bfc07bfb0d04f85eab1a71f4f280843ba150361ca0430373bffe738b5444e2e98b0eaf282b659b21db5d83ee224dced4c3a91ed0caa07109ce65a5c0ca1fec94e209229d6faa57112a01662f4f0f2e33fbb7c732edf2",
      "networkId": 0,
      "chainId": 0
    }
  ]
}