{
  "hash": "0x48d7f9b07edd5f2245441430f586689c6864e48b0ef95f439c73056d8c841483",
  "parentHash": "0x16c35ffc400a6e64a0923d4cd628441f3d3e4cc7e9b5778efb81d0a2b3754e9a",
  "number": 101979,
  "timestamp": 1439830745,
  "nonce": "0xe1a6634183939177",
  "difficulty": 3937727953891,
  "gasLimit": {
    "_hex": "0x2fefd8"
  },
  "gasUsed": {
    "_hex": "0xa410"
  },
  "miner": "0x785ffdDd5cE55c6DF963f345e68d3F2024E5Acb1",
  "extraData": "0x",
  "transactions": [
    {
      "hash": "0xb1015d62ff695a6c1a077c05157fb18f69de97d4c7ef93df76f5338fd3bd77d0",
      "blockHash": "0x48d7f9b07edd5f2245441430f586689c6864e48b0ef95f439c73056d8c841483",
      "blockNumber": 101979,
      "transactionIndex": 0,
      "confirmations": null,
      "from": "0xC47Aaa860008be6f65B58c6C6E02a84e666EfE31",
      "gasPrice": {
        "_hex": "0xd577b1a34"
      },
      "gasLimit": {
        "_hex": "0x15f90"
      },
      "to": "0xB8796061FcCcC0c40BD2060d95d6cff928bD1C1B",
      "value": {
        "_hex": "0x25525b785c8488d8b"
      },
      "nonce": 51,
      "data": "0x",
      "r": "0x49dbe2d57dea23bd29d97d49809be83d4937fd6ee26b67520da001d77589dc04",
      "s": "0x05a8ffea5e4f973ec8c7f061bfae9da9740b156cca19eeec47a21a1ac344baa4",
      "v": 27,
      "creates": null,
      "raw": "0xf86e33850d577b1a3483015f9094b8796061fcccc0c40bd2060d95d6cff928bd1c1b89025525b785c8488d8b801ba049dbe2d57dea23bd29d97d49809be83d4937fd6ee26b67520da001d77589dc04a005a8ffea5e4f973ec8c7f061bfae9da9740b156cca19eeec47a21a1ac344baa4",
      "networkId": 0,
      "chainId": 0
    },
    {
      "hash": "0x23d027ca165424e3b7020888f5e86c3a170c2fdf3785d3f5aeda5b7425ef516a",
      "blockHash": "0x48d7f9b07edd5f2245441430f586689c6864e48b0ef95f439c73056d8c841483",
      "blockNumber": 101979,
      "transactionIndex": 1,
      "confirmations": null,
      "from": "0xC47Aaa860008be6f65B58c6C6E02a84e666EfE31",
      "gasPrice": {
        "_hex": "0xd577b1a34"
      },
      "gasLimit": {
        "_hex": "0x15f90"
      },
      "to": "0x115f2962A839cA4deD94C594D07bfd7BbC59e7b3",
      "value": {
        "_hex": "0x26eb0b72a58e2844"
      },
      "nonce": 52,
      "data": "0x",
      "r": "0x662acc914e681a0bb12507732f80eb27b99b23178c9b9ae151aee61ccfcd4e40",
      "s": "0x64aa690ee733aa04dd7544d266899a682ac6459578cf38f9af28350c45e58b1e",
      "v": 27,
      "creates": null,
      "raw": "0xf86d34850d577b1a3483015f9094115f2962a839ca4ded94c594d07bfd7bbc59e7b38826eb0b72a58e2844801ba0662acc914e681a0bb12507732f80eb27b99b23178c9b9ae151aee61ccfcd4e40a064aa690ee733aa04dd7544d266899a682ac6459578cf38f9af28350c45e58b1e",
      "networkId": 0,
      "chainId": 0
    }
  ]
}