{
  "hash": "0x20fa7d7679939a9230d31f0b755abd4215b2ec0402a91559fb68aebb7dc643ce",
  "parentHash": "0x49e7143e00e9347c73d5532bfc3e0748ab2764fd2b4e0063a140a047ac071b63",
  "number": 64804,
  "timestamp": 1439226529,
  "nonce": "0xef2dab79ed39deca",
  "difficulty": 1893106322668,
  "gasLimit": {
    "_hex": "0x2fefd8"
  },
  "gasUsed": {
    "_hex": "0x5208"
  },
  "miner": "0x7D45E10A0d63eCCA0694a7cbfF030f4dD87DA0dC",
  "extraData": "0x476574682f76312e302e302f77696e646f77732f676f312e342e32",
  "transactions": [
    {
      "hash": "0x39b039a5884e419f0e782f320e9b31de89c3b76649455021abfc6e217041ad70",
      "blockHash": "0x20fa7d7679939a9230d31f0b755abd4215b2ec0402a91559fb68aebb7dc643ce",
      "blockNumber": 64804,
      "transactionIndex": 0,
      "confirmations": null,
      "from": "0x2910543Af39abA0Cd09dBb2D50200b3E800A63D2",
      "gasPrice": {
        "_hex": "0xd5a991069"
      },
      "gasLimit": {
        "_hex": "0x5208"
      },
      "to": "0x4C4298369E1291d19c989085A2D1a8fC20678270",
      "value": {
        "_hex": "0x21d2a11e5485b8000"
      },
      "nonce": 157,
      "data": "0x",
      "r": "0xb4254965ecc5e0effb3f8b72260816aa2ed9a642a434ad34d30bbe4db3c4d0e8",
      "s": "0x7daae39cdc0b8681aa754544fc0dec6a2f4eb9bcaba897c5c2b5732ff967560e",
      "v": 27,
      "creates": null,
      "raw": "0xf86e819d850d5a991069825208944c4298369e1291d19c989085a2d1a8fc2067827089021d2a11e5485b8000801ba0b4254965ecc5e0effb3f8b72260816aa2ed9a642a434ad34d30bbe4db3c4d0e8a07daae39cdc0b8681aa754544fc0dec6a2f4eb9bcaba897c5c2b5732ff967560e",
      "networkId": 0,
      "chainId": 0
    }
  ]
}