{
  "hash": "0xcc9f1ee9c01eda630bc3caefb892e0924927de6e38690f2f403f31986c4fbe63",
  "parentHash": "0xbd8de35ea49a1551e994a531f4a2a70d5b46072bad879954a8a4a6acc5d1db68",
  "number": 90014,
  "timestamp": 1439632707,
  "nonce": "0x6e8d19fe0b5b1e3f",
  "difficulty": 3348310877980,
  "gasLimit": {
    "_hex": "0x2fefd8"
  },
  "gasUsed": {
    "_hex": "0xa410"
  },
  "miner": "0x6541237dAaFf6688A79f9F2F370Ca0E7Ee20BD33",
  "extraData": "0x476574682f76312e302e312f77696e646f77732f676f312e342e32",
  "transactions": [
    {
      "hash": "0xc558130424a701b39c2102264c3b859689a14ee5354b6372c0f15fbcaa7b1eff",
      "blockHash": "0xcc9f1ee9c01eda630bc3caefb892e0924927de6e38690f2f403f31986c4fbe63",
      "blockNumber": 90014,
      "transactionIndex": 0,
      "confirmations": null,
      "from": "0x2910543Af39abA0Cd09dBb2D50200b3E800A63D2",
      "gasPrice": {
        "_hex": "0xe041196f8"
      },
      "gasLimit": {
        "_hex": "0x5208"
      },
      "to": "0xA143616A882230de7571d01f1916F0A781d6480a",
      "value": {
        "_hex": "0xb5463653270c38000"
      },
      "nonce": 773,
      "data": "0x",
      "r": "0xe4e13e1179be70d288aa7c1f46f4b06dbee86e51fa935bedf788a55f6a6fb69f",
      "s": "0x1e50c4ce00238fe6b80d884db1e8e2faec10e3108313c29dfe7602e1581d502a",
      "v": 27,
      "creates": null,
      "raw": "0xf86f820305850e041196f882520894a143616a882230de7571d01f1916f0a781d6480a890b5463653270c38000801ba0e4e13e1179be70d288aa7c1f46f4b06dbee86e51fa935bedf788a55f6a6fb69fa01e50c4ce00238fe6b80d884db1e8e2faec10e3108313c29dfe7602e1581d502a",
      "networkId": 0,
      "chainId": 0
    },
    {
      "hash": "0x5404d78e50c587356ebf69da9245433291dce2ba653ab6be6fb32d1523192ac9",
      "blockHash": "0xcc9f1ee9c01eda630bc3caefb892e0924927de6e38690f2f403f31986c4fbe63",
      "blockNumber": 90014,
      "transactionIndex": 1,
      "confirmations": null,
      "from": "0xa114c802ef29776f05f9c6925cE915232e8ae102",
      "gasPrice": {
        "_hex": "0xcfce9f02c"
      },
      "gasLimit": {
        "_hex": "0x5208"
      },
      "to": "0x32Be343B94f860124dC4fEe278FDCBD38C102D88",
      "value": {
        "_hex": "0x8ac2f99968d4a000"
      },
      "nonce": 19,
      "data": "0x",
      "r": "0x51e30104daebd7da0795599bb32c8ffd60aecf6f798aaf0a6aadfacbb1644d2d",
      "s": "0x18978526d6f08eea8f9745b97d66d23820798b4bb9ecf690040d6940fa71f133",
      "v": 28,
      "creates": null,
      "raw": "0xf86c13850cfce9f02c8252089432be343b94f860124dc4fee278fdcbd38c102d88888ac2f99968d4a000801ca051e30104daebd7da0795599bb32c8ffd60aecf6f798aaf0a6aadfacbb1644d2da018978526d6f08eea8f9745b97d66d23820798b4bb9ecf690040d6940fa71f133",
      "networkId": 0,
      "chainId": 0
    }
  ]
}