{
  "hash": "0xadbd10e3c686068e9209888ed1f2b6406f5e7bce1c79fbc14eb4fbf55ad4d919",
  "parentHash": "0x7363bd8327cf6c6d1885908c9915ddc52ad10e1eb5b901a3f91da6fefb27d0c0",
  "number": 104763,
  "timestamp": 1439875014,
  "nonce": "0x4fce84689a01b2a7",
  "difficulty": 4370005259265,
  "gasLimit": {
    "_hex": "0x2fefd5"
  },
  "gasUsed": {
    "_hex": "0xa410"
  },
  "miner": "0xe6A7a1d47ff21B6321162AEA7C6CB457D5476Bca",
  "extraData": "0x476574682f76312e302e312d38326566323666362f6c696e75782f676f312e34",
  "transactions": [
    {
      "hash": "0x104f76fa0f19205f6d906dfd47a0a2d63a2b392c8f81fb842d4d2b5cca14506c",
      "blockHash": "0xadbd10e3c686068e9209888ed1f2b6406f5e7bce1c79fbc14eb4fbf55ad4d919",
      "blockNumber": 104763,
      "transactionIndex": 0,
      "confirmations": null,
      "from": "0x3620db64D25D412bAb4C8d93E2e0D7e64e8Cb933",
      "gasPrice": {
        "_hex": "0xe08c9b582"
      },
      "gasLimit": {
        "_hex": "0x5208"
      },
      "to": "0x32Be343B94f860124dC4fEe278FDCBD38C102D88",
      "value": {
        "_hex": "0x8e3ad1721859d000"
      },
      "nonce": 13,
      "data": "0x",
      "r": "0xb43a337a2d9c1f851f5515961957c47fa8be2efd50b2a3797aa41e6206a6484d",
      "s": "0x0f86c84c41a7ac980b7400fce43db56536fee6ca8269745552131881899a6fae",
      "v": 28,
      "creates": null,
      "raw": "0xf86c0d850e08c9b5828252089432be343b94f860124dc4fee278fdcbd38c102d88888e3ad1721859d000801ca0b43a337a2d9c1f851f5515961957c47fa8be2efd50b2a3797aa41e6206a6484da00f86c84c41a7ac980b7400fce43db56536fee6ca8269745552131881899a6fae",
      "networkId": 0,
      "chainId": 0
    },
    {
      "hash": "0xf1398a3210cf0b9df08e5274c284ba986a2895c6e4c01758086593e350821dba",
      "blockHash": "0xadbd10e3c686068e9209888ed1f2b6406f5e7bce1c79fbc14eb4fbf55ad4d919",
      "blockNumber": 104763,
      "transactionIndex": 1,
      "confirmations": null,
      "from": "0x0D4EcC7d750180EBf4A9Df728B6669B5Bceb5E40",
      "gasPrice": {
        "_hex": "0xde6df3be7"
      },
      "gasLimit": {
        "_hex": "0x5208"
      },
      "to": "0x32Be343B94f860124dC4fEe278FDCBD38C102D88",
      "value": {
        "_hex": "0x455f1d1ee9023400"
      },
      "nonce": 73,
      "data": "0x",
      "r": "0x92346cde950afc87b7cddd35b12126bd823112a6659c7d2386e4ebcbfc66d784",
      "s": "0x0b8c08225968c776bf01fafc2da1442ab9564146fa1c3f006ef1b2a6b5b5a72e",
      "v": 28,
      "creates": null,
      "raw": "0xf86c49850de6df3be78252089432be343b94f860124dc4fee278fdcbd38c102d8888455f1d1ee9023400801ca092346cde950afc87b7cddd35b12126bd823112a6659c7d2386e4ebcbfc66d784a00b8c08225968c776bf01fafc2da1442ab9564146fa1c3f006ef1b2a6b5b5a72e",
      "networkId": 0,
      "chainId": 0
    }
  ]
}