{
  "hash": "0xdcf37fb5f5f6a84714c86f05e10528b349a67b17f0703452c3c7970a49cad37c",
  "parentHash": "0x986fe032995c71b00a2c27bbd6cdcecbc396ba06393291ce847ecfe1791a74b6",
  "number": 87413,
  "timestamp": 1439591770,
  "nonce": "0xd63084df6576d397",
  "difficulty": 3123461500980,
  "gasLimit": {
    "_hex": "0x2fefd8"
  },
  "gasUsed": {
    "_hex": "0x546c"
  },
  "miner": "0xe6A7a1d47ff21B6321162AEA7C6CB457D5476Bca",
  "extraData": "0x476574682f76312e302e312d38326566323666362f6c696e75782f676f312e34",
  "transactions": [
    {
      "hash": "0x3bf8a09f6fd3098c7b6b643b11c627fa3a1f956818fc2cc3f449570895b22232",
      "blockHash": "0xdcf37fb5f5f6a84714c86f05e10528b349a67b17f0703452c3c7970a49cad37c",
      "blockNumber": 87413,
      "transactionIndex": 0,
      "confirmations": null,
      "from": "0x73B4d499de3f38bF35Aaf769a6e318bc6d123692",
      "gasPrice": {
        "_hex": "0x110c8f7d8de"
      },
      "gasLimit": {
        "_hex": "0xc350"
      },
      "to": "0x2910543Af39abA0Cd09dBb2D50200b3E800A63D2",
      "value": {
        "_hex": "0x6c262fca09784c0000"
      },
      "nonce": 0,
      "data": "0x454e52363747395630",
      "r": "0x1da8e6a6b87bf7ce9851971a497338fd1e58e2bb5970d691cdaecd1d0f18b0ef",
      "s": "0xa41e38dd809b9b32dc22a43b4709ea12dfb355fa555faa71538656413f545988",
      "v": 28,
      "creates": null,
      "raw": "0xf87780860110c8f7d8de82c350942910543af39aba0cd09dbb2d50200b3e800a63d2896c262fca09784c000089454e523637473956301ca01da8e6a6b87bf7ce9851971a497338fd1e58e2bb5970d691cdaecd1d0f18b0efa0a41e38dd809b9b32dc22a43b4709ea12dfb355fa555faa71538656413f545988",
      "networkId": 0,
      "chainId": 0
    }
  ]
}