{
  "hash": "0xfb0e6de145160dda23b7b8d8d89dd8d8c8bad2140f525bac83c42d83f5074c75",
  "parentHash": "0xb3417ec673ab7c5893e5ff663836b10f56ffba61d8dbec9dd1a3f4db8571debf",
  "number": 49221,
  "timestamp": 1438970028,
  "nonce": "0x9250ccc5435583f1",
  "difficulty": 1479259314881,
  "gasLimit": {
    "_hex": "0x29531"
  },
  "gasUsed": {
    "_hex": "0x5208"
  },
  "miner": "0x9746c7e1ef2bd21FF3997fa467593a89cb852BD0",
  "extraData": "0x476574682f76312e302e312f77696e646f77732f676f312e342e32",
  "transactions": [
    {
      "hash": "0x34f3cfaa85b47576666b2b708061de9268ab4859c77618df0d5dd45040188db4",
      "blockHash": "0xfb0e6de145160dda23b7b8d8d89dd8d8c8bad2140f525bac83c42d83f5074c75",
      "blockNumber": 49221,
      "transactionIndex": 0,
      "confirmations": null,
      "from": "0xC6Bf5B6558f2eE21F2E43d9fF9B5408A0Cb89413",
      "gasPrice": {
        "_hex": "0xd8381a9c7"
      },
      "gasLimit": {
        "_hex": "0x15f90"
      },
      "to": "0x33A3f479f6c3e7F91128348490D1f7E8D2A0FAb5",
      "value": {
        "_hex": "0x542253a126ce40000"
      },
      "nonce": 1,
      "data": "0x",
      "r": "0xa1f562f7e2c5d083b761baae72ea1aba0ca8ede0f1b3a9893b29948b5a0054f5",
      "s": "0x1152e41c8e8cc0eb218ebdda32f7621d1beeb72e44d6adb0db6cc911eea5c921",
      "v": 27,
      "creates": null,
      "raw": "0xf86e01850d8381a9c783015f909433a3f479f6c3e7f91128348490d1f7e8d2a0fab5890542253a126ce40000801ba0a1f562f7e2c5d083b761baae72ea1aba0ca8ede0f1b3a9893b29948b5a0054f5a01152e41c8e8cc0eb218ebdda32f7621d1beeb72e44d6adb0db6cc911eea5c921",
      "networkId": 0,
      "chainId": 0
    }
  ]
}