{
  "hash": "0x6944bb5c336d83ee6ff25fb2aff8daa4e937d69bbdf470ac884885503e5007c7",
  "parentHash": "0x73b9f6cb002e091595c11fb1977c9bbe5d5edfcb44ec9408bd91f8370c6bf3fa",
  "number": 95407,
  "timestamp": 1439723801,
  "nonce": "0xd48ad675e44b3724",
  "difficulty": 3563707350562,
  "gasLimit": {
    "_hex": "0x2fefd8"
  },
  "gasUsed": {
    "_hex": "0x5208"
  },
  "miner": "0x35e8e5dC5FBd97c5b421A80B596C030a2Be2A04D",
  "extraData": "0x476574682f76312e302e312f6c696e75782f676f312e342e32",
  "transactions": [
    {
      "hash": "0x93f72262a0c70ac13a75cadf4cb6eee83b45ce32c3b40e7d8a0f1df2690939f8",
      "blockHash": "0x6944bb5c336d83ee6ff25fb2aff8daa4e937d69bbdf470ac884885503e5007c7",
      "blockNumber": 95407,
      "transactionIndex": 0,
      "confirmations": null,
      "from": "0xa63A4ACf7fAe2780a8316f0484934e54Cb74D979",
      "gasPrice": {
        "_hex": "0xe0ada95e6"
      },
      "gasLimit": {
        "_hex": "0x30d40"
      },
      "to": "0x120A270bbC009644e35F0bB6ab13f95b8199c4ad",
      "value": {
        "_hex": "0x126a75f93b55880"
      },
      "nonce": 0,
      "data": "0x",
      "r": "0xb2188a0644de074910d717c2e3df159bcc9d703cf7198bc51da72ea1e2a6b284",
      "s": "0x0c4cec77c6d5c2aceeecfbf7c115a636aede55acf7300f707ea0bf43ab7d9a3a",
      "v": 27,
      "creates": null,
      "raw": "0xf86d80850e0ada95e683030d4094120a270bbc009644e35f0bb6ab13f95b8199c4ad880126a75f93b55880801ba0b2188a0644de074910d717c2e3df159bcc9d703cf7198bc51da72ea1e2a6b284a00c4cec77c6d5c2aceeecfbf7c115a636aede55acf7300f707ea0bf43ab7d9a3a",
      "networkId": 0,
      "chainId": 0
    }
  ]
}