{
  "hash": "0x61137089e8409a70cb5f09021b74d43c7af7c4e5adaae10901a32bc2d3f0b91f",
  "parentHash": "0x8b97e7887cb7d194e8f5de2529cee5d490c84ca26b613dede1a01438839ff26e",
  "number": 68288,
  "timestamp": 1439285416,
  "nonce": "0x762d9bb39e78cda5",
  "difficulty": 1996737609404,
  "gasLimit": {
    "_hex": "0x2fefd8"
  },
  "gasUsed": {
    "_hex": "0x19f33"
  },
  "miner": "0x9746c7e1ef2bd21FF3997fa467593a89cb852BD0",
  "extraData": "0x476574682f76312e302e312f77696e646f77732f676f312e342e32",
  "transactions": [
    {
      "hash": "0xb20d6ef1bcf006654b3a0a74cfd9d0782db8e1e8b415b9ff2fc22b944d7b82a3",
      "blockHash": "0x61137089e8409a70cb5f09021b74d43c7af7c4e5adaae10901a32bc2d3f0b91f",
      "blockNumber": 68288,
      "transactionIndex": 0,
      "confirmations": null,
      "from": "0x4BD5f0Ee173C81d42765154865EE69361b6aD189",
      "gasPrice": {
        "_hex": "0x746a528800"
      },
      "gasLimit": {
        "_hex": "0x5dc4"
      },
      "to": "0x2910543Af39abA0Cd09dBb2D50200b3E800A63D2",
      "value": {
        "_hex": "0x1043561a8829300000"
      },
      "nonce": 12,
      "data": "0x0000000000000000000000000000000000000000000000454e465631595a3552",
      "r": "0xc3b423fa6c98b58ee62208ab5d40dafb5a423b48c12420b5817afc42d217ec22",
      "s": "0x93c274e26a1325ca90b9cec383930bfd5c66285e80a81d5a0aca49877d484f0d",
      "v": 27,
      "creates": null,
      "raw": "0xf88d0c85746a528800825dc4942910543af39aba0cd09dbb2d50200b3e800a63d2891043561a8829300000a00000000000000000000000000000000000000000000000454e465631595a35521ba0c3b423fa6c98b58ee62208ab5d40dafb5a423b48c12420b5817afc42d217ec22a093c274e26a1325ca90b9cec383930bfd5c66285e80a81d5a0aca49877d484f0d",
      "networkId": 0,
      "chainId": 0
    },
    {
      "hash": "0x1307aff99461118c64733efe8f555ace5d97f77f1495229be2664535b9df1f5b",
      "blockHash": "0x61137089e8409a70cb5f09021b74d43c7af7c4e5adaae10901a32bc2d3f0b91f",
      "blockNumber": 68288,
      "transactionIndex": 1,
      "confirmations": null,
      "from": "0x8674c218F0351a62C3BA78C34FD2182A93Da94E2",
      "gasPrice": {
        "_hex": "0xe03f45447"
      },
      "gasLimit": {
        "_hex": "0x15f90"
      },
      "to": "0xA02CE4399D1B4A445f9ddB17542266bD629f25DE",
      "value": {
        "_hex": "0x0"
      },
      "nonce": 68,
      "data": "0xca6d56dc0000000000000000000000008674c218f0351a62c3ba78c34fd2182a93da94e2",
      "r": "0x021210455ab9acddb4383ace072db4c21278cf13949a6864fa0add8c172d404c",
      "s": "0x10d2b04db2dbec6523992dd89c0337928bb413e4aad2ba127c55a150998e23ec",
      "v": 27,
      "creates": null,
      "raw": "0xf88944850e03f4544783015f9094a02ce4399d1b4a445f9ddb17542266bd629f25de80a4ca6d56dc0000000000000000000000008674c218f0351a62c3ba78c34fd2182a93da94e21ba0021210455ab9acddb4383ace072db4c21278cf13949a6864fa0add8c172d404ca010d2b04db2dbec6523992dd89c0337928bb413e4aad2ba127c55a150998e23ec",
      "networkId": 0,
      "chainId": 0
    },
    {
      "hash": "0x316c8e9c3b494ef419cc504194847193ed477a4b9a4dc4b2767fefcf108941d1",
      "blockHash": "0x61137089e8409a70cb5f09021b74d43c7af7c4e5adaae10901a32bc2d3f0b91f",
      "blockNumber": 68288,
      "transactionIndex": 2,
      "confirmations": null,
      "from": "0x179196C6625d881Ee4024A7a1195d9c3f16D6f25",
      "gasPrice": {
        "_hex": "0xba43b7400"
      },
      "gasLimit": {
        "_hex": "0x5208"
      },
      "to": "0xeC675a43F4Bab95ec43f0479cd0ff2665DA3aC4E",
      "value": {
        "_hex": "0x4e1253f5de4000"
      },
      "nonce": 1,
      "data": "0x",
      "r": "0x61d24cf049cc18c226230dbf8420f8d75a768c4dd9badfcaa521d76de9803445",
      "s": "0x532336b966e9b53d9326894464dec31f0e2bba366a049f937e6f5c55218fdbec",
      "v": 27,
      "creates": null,
      "raw": "0xf86b01850ba43b740082520894ec675a43f4bab95ec43f0479cd0ff2665da3ac4e874e1253f5de4000801ba061d24cf049cc18c226230dbf8420f8d75a768c4dd9badfcaa521d76de9803445a0532336b966e9b53d9326894464dec31f0e2bba366a049f937e6f5c55218fdbec",
      "networkId": 0,
      "chainId": 0
    }
  ]
}