{
  "hash": "0x522829707e6a7c67dfe4af859b1e16bf6d76ca4a3211c202062d08975c9c4e96",
  "parentHash": "0x44ff63f89e088601154f35e7817d0e1dd5526faae03747ddef4cdf889fab6981",
  "number": 115698,
  "timestamp": 1440061658,
  "nonce": "0x0ac39695b57dc16e",
  "difficulty": 4593903940096,
  "gasLimit": {
    "_hex": "0x2fefd8"
  },
  "gasUsed": {
    "_hex": "0xa410"
  },
  "miner": "0x8B454d830feF179e66206840F8F3D1d83bC32b17",
  "extraData": "0x476574682f76312e302e312f77696e646f77732f676f312e342e32",
  "transactions": [
    {
      "hash": "0xb1cc14366e3e334b28332d2d95c0bab7931aaf31a5bd7168c53bc0c06095c597",
      "blockHash": "0x522829707e6a7c67dfe4af859b1e16bf6d76ca4a3211c202062d08975c9c4e96",
      "blockNumber": 115698,
      "transactionIndex": 0,
      "confirmations": null,
      "from": "0x9d6F31567576812E0Fbb7a44398e3Abe1A7fAD7f",
      "gasPrice": {
        "_hex": "0xdcada614a"
      },
      "gasLimit": {
        "_hex": "0x5208"
      },
      "to": "0x32Be343B94f860124dC4fEe278FDCBD38C102D88",
      "value": {
        "_hex": "0x5a5a935d3e10c00"
      },
      "nonce": 0,
      "data": "0x",
      "r": "0xd424d42751f88eb7c8aee9e610b83c6d0ca44347dd0013dadcfc7df26716b75b",
      "s": "0x62e3a726b90ae8fa22a4973eead5c59153b55812aa883b26b83c7b24396a6e61",
      "v": 28,
      "creates": null,
      "raw": "0xf86c80850dcada614a8252089432be343b94f860124dc4fee278fdcbd38c102d888805a5a935d3e10c00801ca0d424d42751f88eb7c8aee9e610b83c6d0ca44347dd0013dadcfc7df26716b75ba062e3a726b90ae8fa22a4973eead5c59153b55812aa883b26b83c7b24396a6e61",
      "networkId": 0,
      "chainId": 0
    },
    {
      "hash": "0x06c722d8ed2f368388546e764c681d480208c825ad2e1dcf5f0d80b22281ba53",
      "blockHash": "0x522829707e6a7c67dfe4af859b1e16bf6d76ca4a3211c202062d08975c9c4e96",
      "blockNumber": 115698,
      "transactionIndex": 1,
      "confirmations": null,
      "from": "0x849528654b2c401b9c792B9670bBef4470Ad8cFf",
      "gasPrice": {
        "_hex": "0xdcada614a"
      },
      "gasLimit": {
        "_hex": "0x5208"
      },
      "to": "0x32Be343B94f860124dC4fEe278FDCBD38C102D88",
      "value": {
        "_hex": "0x6c5dae44f012840000"
      },
      "nonce": 1,
      "data": "0x",
      "r": "0xba3146fd203643d83c331389ff7aed2e7c13dda47da6b8f96d6bac64e7a07a95",
      "s": "0x38e0ad73751c444300bf22cda980bdf9236d46d807cef78d2308b004718ebb58",
      "v": 27,
      "creates": null,
      "raw": "0xf86d01850dcada614a8252089432be343b94f860124dc4fee278fdcbd38c102d88896c5dae44f012840000801ba0ba3146fd203643d83c331389ff7aed2e7c13dda47da6b8f96d6bac64e7a07a95a038e0ad73751c444300bf22cda980bdf9236d46d807cef78d2308b004718ebb58",
      "networkId": 0,
      "chainId": 0
    }
  ]
}