{
  "hash": "0xe01262a8eb4cdd9cb95017550828392fd406df337568b3e71d577c60ad714362",
  "parentHash": "0xd06b74706ba9f436a74c75db714741947b9894f0de10331c77ca65c44634dd58",
  "number": 69016,
  "timestamp": 1439297203,
  "nonce": "0xf499503d895d8b88",
  "difficulty": 2033955782097,
  "gasLimit": {
    "_hex": "0x2fefd8"
  },
  "gasUsed": {
    "_hex": "0x12988c"
  },
  "miner": "0xEF247E639d49461D25F57e9362CadE3120910Ce0",
  "extraData": "0x476574682f76312e302e312f6c696e75782f676f312e342e32",
  "transactions": [
    {
      "hash": "0x58ce0c7bb09197ad9aeabad5765882e2f589790341451480d31e0b37e47ff3bb",
      "blockHash": "0xe01262a8eb4cdd9cb95017550828392fd406df337568b3e71d577c60ad714362",
      "blockNumber": 69016,
      "transactionIndex": 0,
      "confirmations": null,
      "from": "0x45A3B14Fda4803a40d7cc2044e3eB494e7066D4A",
      "gasPrice": {
        "_hex": "0xba43b7400"
      },
      "gasLimit": {
        "_hex": "0x15f90"
      },
      "to": "0x793AE8C1b1a160BFc07BFB0d04F85eab1A71F4f2",
      "value": {
        "_hex": "0x0"
      },
      "nonce": 0,
      "data": "0x3ba15036",
      "r": "0xaff570101188ec8dd8514f70709b8b6329516b2a9349f97d50ec3a5cb8eb1053",
      "s": "0x34694ba8869cbfaf1f94fa45dde0ea63b84cf28f8d522293243e52713b209f40",
      "v": 28,
      "creates": null,
      "raw": "0xf86980850ba43b740083015f9094793ae8c1b1a160bfc07bfb0d04f85eab1a71f4f280843ba150361ca0aff570101188ec8dd8514f70709b8b6329516b2a9349f97d50ec3a5cb8eb1053a034694ba8869cbfaf1f94fa45dde0ea63b84cf28f8d522293243e52713b209f40",
      "networkId": 0,
      "chainId": 0
    },
    {
      "hash": "0xd53e041b0ecf9d83b4bc65fae9a5376ef707187d3e6df344b73d1ef7f9984a6b",
      "blockHash": "0xe01262a8eb4cdd9cb95017550828392fd406df337568b3e71d577c60ad714362",
      "blockNumber": 69016,
      "transactionIndex": 1,
      "confirmations": null,
      "from": "0x58106215bE356Cc9D0B0f9c009B83516eb1CD3F7",
      "gasPrice": {
        "_hex": "0xba43b7400"
      },
      "gasLimit": {
        "_hex": "0x15f90"
      },
      "to": "0x793AE8C1b1a160BFc07BFB0d04F85eab1A71F4f2",
      "value": {
        "_hex": "0x0"
      },
      "nonce": 0,
      "data": "0x3ba15036",
      "r": "0x85025c87255e2a709d57222a0dbf46222382c3a2c39f8afa3353069264a0330f",
      "s": "0x7d66c65c0bcb86b269e54c4fbf62e7f2c7053f08acdd62e249b885dec2a5399f",
      "v": 28,
      "creates": null,
      "raw": "0xf86980850ba43b740083015f9094793ae8c1b1a160bfc07bfb0d04f85eab1a71f4f280843ba150361ca085025c87255e2a709d57222a0dbf46222382c3a2c39f8afa3353069264a0330fa07d66c65c0bcb86b269e54c4fbf62e7f2c7053f08acdd62e249b885dec2a5399f",
      "networkId": 0,
      "chainId": 0
    },
    {
      "hash": "0x9bffd595fbbd06a6d4956eef2bd1c3fdae1cc46d8701d2b93c622f21b2d973bc",
      "blockHash": "0xe01262a8eb4cdd9cb95017550828392fd406df337568b3e71d577c60ad714362",
      "blockNumber": 69016,
      "transactionIndex": 2,
      "confirmations": null,
      "from": "0x7bf3481e5e615832F8BDEb7d8Ad5E460BCBD8C76",
      "gasPrice": {
        "_hex": "0xba43b7400"
      },
      "gasLimit": {
        "_hex": "0x15f90"
      },
      "to": "0x793AE8C1b1a160BFc07BFB0d04F85eab1A71F4f2",
      "value": {
        "_hex": "0x0"
      },
      "nonce": 0,
      "data": "0x3ba15036",
      "r": "0x4e507fabad3307b798030b226b4ef503a5fa8fed4315a141f31dea548c4d65c6",
      "s": "0x37ea3a26aafc044cc76f1854f25a18267db19fe937a484bb5207bff46aebee7e",
      "v": 28,
      "creates": null,
      "raw": "0xf86980850ba43b740083015f9094793ae8c1b1a160bfc07bfb0d04f85eab1a71f4f280843ba150361ca04e507fabad3307b798030b226b4ef503a5fa8fed4315a141f31dea548c4d65c6a037ea3a26aafc044cc76f1854f25a18267db19fe937a484bb5207bff46aebee7e",
      "networkId": 0,
      "chainId": 0
    },
    {
      "hash": "0x8274b75bcfe2ea39b8581d0b5f1932382074c7137e87845bbc3fab0d8714b3a7",
      "blockHash": "0xe01262a8eb4cdd9cb95017550828392fd406df337568b3e71d577c60ad714362",
      "blockNumber": 69016,
      "transactionIndex": 3,
      "confirmations": null,
      "from": "0x9De8eca2d37437ef9F7B762b89e27302fB61Efda",
      "gasPrice": {
        "_hex": "0xba43b7400"
      },
      "gasLimit": {
        "_hex": "0x15f90"
      },
      "to": "0x793AE8C1b1a160BFc07BFB0d04F85eab1A71F4f2",
      "value": {
        "_hex": "0x0"
      },
      "nonce": 0,
      "data": "0x3ba15036",
      "r": "0xfada610c913aec2cdd5ce3084a4b6a9296f0ef43d0df1a698fd9e5038f0aa4c2",
      "s": "0x7e1d4cd581fbbcd6ae8b7ad956156cf4265bc0571504921ec35cddd3a37a357a",
      "v": 28,
      "creates": null,
      "raw": "0xf86980850ba43b740083015f9094793ae8c1b1a160bfc07bfb0d04f85eab1a71f4f280843ba150361ca0fada610c913aec2cdd5ce3084a4b6a9296f0ef43d0df1a698fd9e5038f0aa4c2a07e1d4cd581fbbcd6ae8b7ad956156cf4265bc0571504921ec35cddd3a37a357a",
      "networkId": 0,
      "chainId": 0
    },
    {
      "hash": "0x57f381832a89586e11231378e1c01520ee4ec7f9a6c08778fe06968e938ee333",
      "blockHash": "0xe01262a8eb4cdd9cb95017550828392fd406df337568b3e71d577c60ad714362",
      "blockNumber": 69016,
      "transactionIndex": 4,
      "confirmations": null,
      "from": "0x281996B2209e92EB4149c8Fe52214c95E5A73522",
      "gasPrice": {
        "_hex": "0xba43b7400"
      },
      "gasLimit": {
        "_hex": "0x15f90"
      },
      "to": "0x793AE8C1b1a160BFc07BFB0d04F85eab1A71F4f2",
      "value": {
        "_hex": "0x0"
      },
      "nonce": 0,
      "data": "0x3ba15036",
      "r": "0xb8de80ab60570e61372d9022b737b5d37af74f2d5cfc7abfa785f9ee5f8ad171",
      "s": "0x7f91602c5097416e4f04c6fdc0d0be39a1185fb31cfbb9f6781b11cc83043864",
      "v": 27,
      "creates": null,
      "raw": "0xf86980850ba43b740083015f9094793ae8c1b1a160bfc07bfb0d04f85eab1a71f4f280843ba150361ba0b8de80ab60570e61372d9022b737b5d37af74f2d5cfc7abfa785f9ee5f8ad171a07f91602c5097416e4f04c6fdc0d0be39a1185fb31cfbb9f6781b11cc83043864",
      "networkId": 0,
      "chainId": 0
    },
    {
      "hash": "0xd8c60b24e4b1f60d537397369b3837d17ef1324d56e0fa0f4e01e5c6a2f0864b",
      "blockHash": "0xe01262a8eb4cdd9cb95017550828392fd406df337568b3e71d577c60ad714362",
      "blockNumber": 69016,
      "transactionIndex": 5,
      "confirmations": null,
      "from": "0xB3efBA9EA251898D7a26419a5e93BA61413Af928",
      "gasPrice": {
        "_hex": "0xba43b7400"
      },
      "gasLimit": {
        "_hex": "0x15f90"
      },
      "to": "0x793AE8C1b1a160BFc07BFB0d04F85eab1A71F4f2",
      "value": {
        "_hex": "0x0"
      },
      "nonce": 0,
      "data": "0x3ba15036",
      "r": "0x98c72dab1f94bf6cdecdbe9d42a4f759f511adda009c1fb3cddb429498328839",
      "s": "0x4e30064579af6fb3e9f81be43bfa7624a214a2b1d20b68a763ac00c72b3efddb",
      "v": 28,
      "creates": null,
      "raw": "0xf86980850ba43b740083015f9094793ae8c1b1a160bfc07bfb0d04f85eab1a71f4f280843ba150361ca098c72dab1f94bf6cdecdbe9d42a4f759f511adda009c1fb3cddb429498328839a04e30064579af6fb3e9f81be43bfa7624a214a2b1d20b68a763ac00c72b3efddb",
      "networkId": 0,
      "chainId": 0
    },
    {
      "hash": "0x1ae6f3ea4a6722d6736c485b0e5a04208e3c00141d431caacc25d5e23c6bd859",
      "blockHash": "0xe01262a8eb4cdd9cb95017550828392fd406df337568b3e71d577c60ad714362",
      "blockNumber": 69016,
      "transactionIndex": 6,
      "confirmations": null,
      "from": "0xF13D2dC7B0605b892631085fd390793b69F6f0e3",
      "gasPrice": {
        "_hex": "0xba43b7400"
      },
      "gasLimit": {
        "_hex": "0x15f90"
      },
      "to": "0x793AE8C1b1a160BFc07BFB0d04F85eab1A71F4f2",
      "value": {
        "_hex": "0x0"
      },
      "nonce": 0,
      "data": "0x3ba15036",
      "r": "0x9971d3610920cd02e832f9155b4a808b1dcbe99427c569235a2e88f1d61f0149",
      "s": "0x0aa13a5229fe9b1fab706798cb839adc0e7086438b5006beb03669ed8ae991a7",
      "v": 28,
      "creates": null,
      "raw": "0xf86980850ba43b740083015f9094793ae8c1b1a160bfc07bfb0d04f85eab1a71f4f280843ba150361ca09971d3610920cd02e832f9155b4a808b1dcbe99427c569235a2e88f1d61f0149a00aa13a5229fe9b1fab706798cb839adc0e7086438b5006beb03669ed8ae991a7",
      "networkId": 0,
      "chainId": 0
    },
    {
      "hash": "0xfd4c621eb38ce23b32c113747d156fb0ea14f55790806e61154eaf65cdd21034",
      "blockHash": "0xe01262a8eb4cdd9cb95017550828392fd406df337568b3e71d577c60ad714362",
      "blockNumber": 69016,
      "transactionIndex": 7,
      "confirmations": null,
      "from": "0xEDff3B6203E56fc536e5f8Df50fcbF5698F534F7",
      "gasPrice": {
        "_hex": "0xba43b7400"
      },
      "gasLimit": {
        "_hex": "0x15f90"
      },
      "to": "0x793AE8C1b1a160BFc07BFB0d04F85eab1A71F4f2",
      "value": {
        "_hex": "0x0"
      },
      "nonce": 0,
      "data": "0x3ba15036",
      "r": "0x5d21478073fb5c2a98632e1d69302d5766a2f9cbf2ab645a6e36be8ee324d8e9",
      "s": "0x14194f63c54c793acc7d193306fbbb363069f483519d86512ae2be5bc880965d",
      "v": 27,
      "creates": null,
      "raw": "0xf86980850ba43b740083015f9094793ae8c1b1a160bfc07bfb0d04f85eab1a71f4f280843ba150361ba05d21478073fb5c2a98632e1d69302d5766a2f9cbf2ab645a6e36be8ee324d8e9a014194f63c54c793acc7d193306fbbb363069f483519d86512ae2be5bc880965d",
      "networkId": 0,
      "chainId": 0
    },
    {
      "hash": "0x80f797b060280dcac64ce2fb2eeacd4e13034da0da76c90d3edd6b4b8fd1ee8c",
      "blockHash": "0xe01262a8eb4cdd9cb95017550828392fd406df337568b3e71d577c60ad714362",
      "blockNumber": 69016,
      "transactionIndex": 8,
      "confirmations": null,
      "from": "0x0892593Ac75ce6E8E04B2748aDC2b20Ee3fFF7a7",
      "gasPrice": {
        "_hex": "0xba43b7400"
      },
      "gasLimit": {
        "_hex": "0x15f90"
      },
      "to": "0x793AE8C1b1a160BFc07BFB0d04F85eab1A71F4f2",
      "value": {
        "_hex": "0x0"
      },
      "nonce": 0,
      "data": "0x3ba15036",
      "r": "0x94f0f5303acf74277be4197435107b467dd7cb7476663007fffec300b47f1950",
      "s": "0x157afce212eb36eeba6fb90bb1b00ef99e900185054e426aa952ff78250de9cb",
      "v": 28,
      "creates": null,
      "raw": "0xf86980850ba43b740083015f9094793ae8c1b1a160bfc07bfb0d04f85eab1a71f4f280843ba150361ca094f0f5303acf74277be4197435107b467dd7cb7476663007fffec300b47f1950a0157afce212eb36eeba6fb90bb1b00ef99e900185054e426aa952ff78250de9cb",
      "networkId": 0,
      "chainId": 0
    },
    {
      "hash": "0x00f96f66368017688d4ac0c47add1160d27b7e0839f3a68b4084824025cc62a7",
      "blockHash": "0xe01262a8eb4cdd9cb95017550828392fd406df337568b3e71d577c60ad714362",
      "blockNumber": 69016,
      "transactionIndex": 9,
      "confirmations": null,
      "from": "0x66A088bccdE561928dB71A174F30a62E4D441F39",
      "gasPrice": {
        "_hex": "0xba43b7400"
      },
      "gasLimit": {
        "_hex": "0x15f90"
      },
      "to": "0x793AE8C1b1a160BFc07BFB0d04F85eab1A71F4f2",
      "value": {
        "_hex": "0x0"
      },
      "nonce": 0,
      "data": "0x3ba15036",
      "r": "0x521f9b181a8ebfff9df753784678da64fe270848eae1598f93ae6f4b62b2bf8c",
      "s": "0x5830eb876cb9efd3e57221ca66589455d11cab2bd0357cc5ff7456d88b967176",
      "v": 28,
      "creates": null,
      "raw": "0xf86980850ba43b740083015f9094793ae8c1b1a160bfc07bfb0d04f85eab1a71f4f280843ba150361ca0521f9b181a8ebfff9df753784678da64fe270848eae1598f93ae6f4b62b2bf8ca05830eb876cb9efd3e57221ca66589455d11cab2bd0357cc5ff7456d88b967176",
      "networkId": 0,
      "chainId": 0
    },
    {
      "hash": "0x5689bff44253d890a52c974aaf3e9c91eed700aeee199b016a7d102fd30dd622",
      "blockHash": "0xe01262a8eb4cdd9cb95017550828392fd406df337568b3e71d577c60ad714362",
      "blockNumber": 69016,
      "transactionIndex": 10,
      "confirmations": null,
      "from": "0xE8d87aC2C83953C4C0E3aC1034ECc8AA375E0A2B",
      "gasPrice": {
        "_hex": "0xba43b7400"
      },
      "gasLimit": {
        "_hex": "0x15f90"
      },
      "to": "0x793AE8C1b1a160BFc07BFB0d04F85eab1A71F4f2",
      "value": {
        "_hex": "0x0"
      },
      "nonce": 0,
      "data": "0x3ba15036",
      "r": "0x00276cbd27ce2b6eb01463974d9b85c0c6ffcbf88829377f82c17e981643b71c",
      "s": "0x06027c0082c63897f1609c79275a7e514ac7c8fc2a2cdd5454bb738794ea28a6",
      "v": 28,
      "creates": null,
      "raw": "0xf86880850ba43b740083015f9094793ae8c1b1a160bfc07bfb0d04f85eab1a71f4f280843ba150361c9f276cbd27ce2b6eb01463974d9b85c0c6ffcbf88829377f82c17e981643b71ca006027c0082c63897f1609c79275a7e514ac7c8fc2a2cdd5454bb738794ea28a6",
      "networkId": 0,
      "chainId": 0
    },
    {
      "hash": "0xb0954c07c9b057538543f3e5de853e3052d6d355e3202b0060763ca3077896e2",
      "blockHash": "0xe01262a8eb4cdd9cb95017550828392fd406df337568b3e71d577c60ad714362",
      "blockNumber": 69016,
      "transactionIndex": 11,
      "confirmations": null,
      "from": "0xD66a4D4c79E5E29279025fAfa77C25309096FEa0",
      "gasPrice": {
        "_hex": "0xba43b7400"
      },
      "gasLimit": {
        "_hex": "0x15f90"
      },
      "to": "0x793AE8C1b1a160BFc07BFB0d04F85eab1A71F4f2",
      "value": {
        "_hex": "0x0"
      },
      "nonce": 0,
      "data": "0x3ba15036",
      "r": "0x8dca9188a608ce1a97c649385d0f85bfd5f8495a74e553ae92560b7a07daf195",
      "s": "0x32f3c2bf36fe5a65a0484ab844fb01b0fe8a54c0ffb4f3be95318334048f65c7",
      "v": 27,
      "creates": null,
      "raw": "0xf86980850ba43b740083015f9094793ae8c1b1a160bfc07bfb0d04f85eab1a71f4f280843ba150361ba08dca9188a608ce1a97c649385d0f85bfd5f8495a74e553ae92560b7a07daf195a032f3c2bf36fe5a65a0484ab844fb01b0fe8a54c0ffb4f3be95318334048f65c7",
      "networkId": 0,
      "chainId": 0
    },
    {
      "hash": "0x8753741b2708b404491b9dbae8afb856073e3f3b7eb0c2ed6c9a0c36e2c4129a",
      "blockHash": "0xe01262a8eb4cdd9cb95017550828392fd406df337568b3e71d577c60ad714362",
      "blockNumber": 69016,
      "transactionIndex": 12,
      "confirmations": null,
      "from": "0xEcA50F9F6A4BFfb86d95b7C0AFFeed70b54af734",
      "gasPrice": {
        "_hex": "0xba43b7400"
      },
      "gasLimit": {
        "_hex": "0x15f90"
      },
      "to": "0x793AE8C1b1a160BFc07BFB0d04F85eab1A71F4f2",
      "value": {
        "_hex": "0x0"
      },
      "nonce": 0,
      "data": "0x3ba15036",
      "r": "0xee66d010ca5aabb79786f83870171c2f7dee7bd2b1d6c1c5c5140c7e4d585bdb",
      "s": "0x5ab506b3255defceb991ef29de7393ceace45556971d7cadd4100c47ab1e8922",
      "v": 27,
      "creates": null,
      "raw": "0xf86980850ba43b740083015f9094793ae8c1b1a160bfc07bfb0d04f85eab1a71f4f280843ba150361ba0ee66d010ca5aabb79786f83870171c2f7dee7bd2b1d6c1c5c5140c7e4d585bdba05ab506b3255defceb991ef29de7393ceace45556971d7cadd4100c47ab1e8922",
      "networkId": 0,
      "chainId": 0
    },
    {
      "hash": "0xce3b74fc6fec010cac7c03d30c673af719e605d4068da59737c87a750564530b",
      "blockHash": "0xe01262a8eb4cdd9cb95017550828392fd406df337568b3e71d577c60ad714362",
      "blockNumber": 69016,
      "transactionIndex": 13,
      "confirmations": null,
      "from": "0x07f60A5E6090E4EA2c7b9f0EeF580e9Bc60920A7",
      "gasPrice": {
        "_hex": "0xba43b7400"
      },
      "gasLimit": {
        "_hex": "0x15f90"
      },
      "to": "0x793AE8C1b1a160BFc07BFB0d04F85eab1A71F4f2",
      "value": {
        "_hex": "0x0"
      },
      "nonce": 0,
      "data": "0x3ba15036",
      "r": "0xb98ad18f65cf65a35841be4c4e19dece0dec9a406e65af1820d61a8d32007290",
      "s": "0x0f22103e09ce13a1df39b04b349167584edcd6487b5728da610ad4a9cf8e197e",
      "v": 28,
      "creates": null,
      "raw": "0xf86980850ba43b740083015f9094793ae8c1b1a160bfc07bfb0d04f85eab1a71f4f280843ba150361ca0b98ad18f65cf65a35841be4c4e19dece0dec9a406e65af1820d61a8d32007290a00f22103e09ce13a1df39b04b349167584edcd6487b5728da610ad4a9cf8e197e",
      "networkId": 0,
      "chainId": 0
    },
    {
      "hash": "0xa264cb4099432296f6f229ca1d07b223dd26033166dcd71c750b94fe00ea4803",
      "blockHash": "0xe01262a8eb4cdd9cb95017550828392fd406df337568b3e71d577c60ad714362",
      "blockNumber": 69016,
      "transactionIndex": 14,
      "confirmations": null,
      "from": "0xB5d7627B1161e85f9D081A4681D4d3159De3434a",
      "gasPrice": {
        "_hex": "0xba43b7400"
      },
      "gasLimit": {
        "_hex": "0x15f90"
      },
      "to": "0x793AE8C1b1a160BFc07BFB0d04F85eab1A71F4f2",
      "value": {
        "_hex": "0x0"
      },
      "nonce": 0,
      "data": "0x3ba15036",
      "r": "0x67570d6495550ffaaeb41f3dc2817575479838ec704b296c3508bbd6901c9fe0",
      "s": "0x0f5ccbb6626eb33a1b966960c65a5926e08e8113f3494ae5709d402b1f967e4e",
      "v": 28,
      "creates": null,
      "raw": "0xf86980850ba43b740083015f9094793ae8c1b1a160bfc07bfb0d04f85eab1a71f4f280843ba150361ca067570d6495550ffaaeb41f3dc2817575479838ec704b296c3508bbd6901c9fe0a00f5ccbb6626eb33a1b966960c65a5926e08e8113f3494ae5709d402b1f967e4e",
      "networkId": 0,
      "chainId": 0
    },
    {
      "hash": "0xe05fdb7ff91f84b3c6888b95e4c16392ca35b70bc3ca55a3d205ba5f8f5fe53d",
      "blockHash": "0xe01262a8eb4cdd9cb95017550828392fd406df337568b3e71d577c60ad714362",
      "blockNumber": 69016,
      "transactionIndex": 15,
      "confirmations": null,
      "from": "0x8Bf1d6f6DD25bd727666b1fC615266e16A067a4E",
      "gasPrice": {
        "_hex": "0xba43b7400"
      },
      "gasLimit": {
        "_hex": "0x15f90"
      },
      "to": "0x793AE8C1b1a160BFc07BFB0d04F85eab1A71F4f2",
      "value": {
        "_hex": "0x0"
      },
      "nonce": 0,
      "data": "0x3ba15036",
      "r": "0xab8dc9d02d91b76e355cf0f120b39584b9dbb23ba280b313b1afd171a138fe13",
      "s": "0x3830dccbc82bb6c5c4789b3a691d7f6cd77f56ea4c51fb15112a95091d92e6fb",
      "v": 28,
      "creates": null,
      "raw": "0xf86980850ba43b740083015f9094793ae8c1b1a160bfc07bfb0d04f85eab1a71f4f280843ba150361ca0ab8dc9d02d91b76e355cf0f120b39584b9dbb23ba280b313b1afd171a138fe13a03830dccbc82bb6c5c4789b3a691d7f6cd77f56ea4c51fb15112a95091d92e6fb",
      "networkId": 0,
      "chainId": 0
    },
    {
      "hash": "0xdb6ba7cb3b3f2b714b461e83617ee29e07f60bd13951286a36900925c74ae1c0",
      "blockHash": "0xe01262a8eb4cdd9cb95017550828392fd406df337568b3e71d577c60ad714362",
      "blockNumber": 69016,
      "transactionIndex": 16,
      "confirmations": null,
      "from": "0x6aB90D5d357dED5c4Aee06f2B3aA5CeeC6c7dc0A",
      "gasPrice": {
        "_hex": "0xba43b7400"
      },
      "gasLimit": {
        "_hex": "0x15f90"
      },
      "to": "0x793AE8C1b1a160BFc07BFB0d04F85eab1A71F4f2",
      "value": {
        "_hex": "0x0"
      },
      "nonce": 0,
      "data": "0x3ba15036",
      "r": "0x8a88d7b932370fa868dae307ad2f41955069554f88263caa767f6b1b94640b86",
      "s": "0x0c9e42e6a156920f2baaf81880bd82a0677177e6469219669591fe0d7220245d",
      "v": 28,
      "creates": null,
      "raw": "0xf86980850ba43b740083015f9094793ae8c1b1a160bfc07bfb0d04f85eab1a71f4f280843ba150361ca08a88d7b932370fa868dae307ad2f41955069554f88263caa767f6b1b94640b86a00c9e42e6a156920f2baaf81880bd82a0677177e6469219669591fe0d7220245d",
      "networkId": 0,
      "chainId": 0
    },
    {
      "hash": "0xc015986a9613b4840fe9bebf1a5aa3d6d2a653b1dc32eaa6ef7070bfa83dccc0",
      "blockHash": "0xe01262a8eb4cdd9cb95017550828392fd406df337568b3e71d577c60ad714362",
      "blockNumber": 69016,
      "transactionIndex": 17,
      "confirmations": null,
      "from": "0x410eb1483E878D298D54E58b5DeCc8d517D9A732",
      "gasPrice": {
        "_hex": "0xba43b7400"
      },
      "gasLimit": {
        "_hex": "0x15f90"
      },
      "to": "0x793AE8C1b1a160BFc07BFB0d04F85eab1A71F4f2",
      "value": {
        "_hex": "0x0"
      },
      "nonce": 0,
      "data": "0x3ba15036",
      "r": "0x958350bb1e318b57dc8661a10f6d34419279e2f5f855898ccb100367fd8ae1ed",
      "s": "0x012c23b0518be1e386c0287726496f67eba80117723a0636273776f517177761",
      "v": 28,
      "creates": null,
      "raw": "0xf86980850ba43b740083015f9094793ae8c1b1a160bfc07bfb0d04f85eab1a71f4f280843ba150361ca0958350bb1e318b57dc8661a10f6d34419279e2f5f855898ccb100367fd8ae1eda0012c23b0518be1e386c0287726496f67eba80117723a0636273776f517177761",
      "networkId": 0,
      "chainId": 0
    },
    {
      "hash": "0xbaf806f3eea0eb951ec35643426b5a699f75cfdbd4af882f5076f79521be2bcd",
      "blockHash": "0xe01262a8eb4cdd9cb95017550828392fd406df337568b3e71d577c60ad714362",
      "blockNumber": 69016,
      "transactionIndex": 18,
      "confirmations": null,
      "from": "0xb6267ACb1Aa81566c95e663c874ca4d7Efac492a",
      "gasPrice": {
        "_hex": "0xba43b7400"
      },
      "gasLimit": {
        "_hex": "0x15f90"
      },
      "to": "0x793AE8C1b1a160BFc07BFB0d04F85eab1A71F4f2",
      "value": {
        "_hex": "0x0"
      },
      "nonce": 0,
      "data": "0x3ba15036",
      "r": "0x0bc2193da83a94ca320bb96d889e8f1c1dda235e64a2d094458b2962d05a9a4d",
      "s": "0x6b3db4a4a19101c942d05b98152a3c4f1604cdd611789eeb024eb028e4c06e9a",
      "v": 27,
      "creates": null,
      "raw": "0xf86980850ba43b740083015f9094793ae8c1b1a160bfc07bfb0d04f85eab1a71f4f280843ba150361ba00bc2193da83a94ca320bb96d889e8f1c1dda235e64a2d094458b2962d05a9a4da06b3db4a4a19101c942d05b98152a3c4f1604cdd611789eeb024eb028e4c06e9a",
      "networkId": 0,
      "chainId": 0
    },
    {
      "hash": "0x73cfe4d65fdd24352a9698f689f2fe9f41c817bcddfda23c373968c9e0a85f25",
      "blockHash": "0xe01262a8eb4cdd9cb95017550828392fd406df337568b3e71d577c60ad714362",
      "blockNumber": 69016,
      "transactionIndex": 19,
      "confirmations": null,
      "from": "0xE0D3e770686bc2FCc727837d5A20d59892E004AE",
      "gasPrice": {
        "_hex": "0xba43b7400"
      },
      "gasLimit": {
        "_hex": "0x15f90"
      },
      "to": "0x793AE8C1b1a160BFc07BFB0d04F85eab1A71F4f2",
      "value": {
        "_hex": "0x0"
      },
      "nonce": 0,
      "data": "0x3ba15036",
      "r": "0x178f810331fb9089a7d8df523d90801f0aba759a4a8b31bb5b02ebdd712e3a64",
      "s": "0x22326a91af6f8239f71ed8cf5cd92b9806deffa89d1a7fc9bc9fd376bc969568",
      "v": 27,
      "creates": null,
      "raw": "0xf86980850ba43b740083015f9094793ae8c1b1a160bfc07bfb0d04f85eab1a71f4f280843ba150361ba0178f810331fb9089a7d8df523d90801f0aba759a4a8b31bb5b02ebdd712e3a64a022326a91af6f8239f71ed8cf5cd92b9806deffa89d1a7fc9bc9fd376bc969568",
      "networkId": 0,
      "chainId": 0
    },
    {
      "hash": "0x50c48d1d5c623debb23cfc76a9cb1ee5226f1ba24bb226128fb1bdb209fc4563",
      "blockHash": "0xe01262a8eb4cdd9cb95017550828392fd406df337568b3e71d577c60ad714362",
      "blockNumber": 69016,
      "transactionIndex": 20,
      "confirmations": null,
      "from": "0x42adFBB1A41941a490D1E03A01aeB9f9CebC4CE9",
      "gasPrice": {
        "_hex": "0xba43b7400"
      },
      "gasLimit": {
        "_hex": "0x15f90"
      },
      "to": "0x793AE8C1b1a160BFc07BFB0d04F85eab1A71F4f2",
      "value": {
        "_hex": "0x0"
      },
      "nonce": 0,
      "data": "0x3ba15036",
      "r": "0x2b86245eed7bca2ab9397c27cc5c1f13ada9c0b0abe5440b57a68ead26af1ffd",
      "s": "0x002e20f13ce1d5c265c9afaa9e2cca4c9b2b5355bde27e1b42a49eb656bdb76e",
      "v": 28,
      "creates": null,
      "raw": "0xf86880850ba43b740083015f9094793ae8c1b1a160bfc07bfb0d04f85eab1a71f4f280843ba150361ca02b86245eed7bca2ab9397c27cc5c1f13ada9c0b0abe5440b57a68ead26af1ffd9f2e20f13ce1d5c265c9afaa9e2cca4c9b2b5355bde27e1b42a49eb656bdb76e",
      "networkId": 0,
      "chainId": 0
    },
    {
      "hash": "0xeb8cd1b9500ae4cecc63bcdbfed8648bd35c51863701783bb00019d3d86c837b",
      "blockHash": "0xe01262a8eb4cdd9cb95017550828392fd406df337568b3e71d577c60ad714362",
      "blockNumber": 69016,
      "transactionIndex": 21,
      "confirmations": null,
      "from": "0x0Be5cd966caD10814b049982497cfD933139d086",
      "gasPrice": {
        "_hex": "0xba43b7400"
      },
      "gasLimit": {
        "_hex": "0x15f90"
      },
      "to": "0x793AE8C1b1a160BFc07BFB0d04F85eab1A71F4f2",
      "value": {
        "_hex": "0x0"
      },
      "nonce": 0,
      "data": "0x3ba15036",
      "r": "0x03281ebebb7951e8312e194ef9696df4cd3cfbd4fd92484c9478053081a57000",
      "s": "0x5c63b681b73c0b9bfd950e049d4417555ba0dab54976294fa15a7f16f295a528",
      "v": 28,
      "creates": null,
      "raw": "0xf86980850ba43b740083015f9094793ae8c1b1a160bfc07bfb0d04f85eab1a71f4f280843ba150361ca003281ebebb7951e8312e194ef9696df4cd3cfbd4fd92484c9478053081a57000a05c63b681b73c0b9bfd950e049d4417555ba0dab54976294fa15a7f16f295a528",
      "networkId": 0,
      "chainId": 0
    },
    {
      "hash": "0x969cf7a55527bf4c8e4ee3e98ef74a14c06b14f2c56c7a34d4ca5f8130443122",
      "blockHash": "0xe01262a8eb4cdd9cb95017550828392fd406df337568b3e71d577c60ad714362",
      "blockNumber": 69016,
      "transactionIndex": 22,
      "confirmations": null,
      "from": "0xAbbFe34FcD2F66FcA82A768DFf1d3A717ed9d8CB",
      "gasPrice": {
        "_hex": "0xba43b7400"
      },
      "gasLimit": {
        "_hex": "0x15f90"
      },
      "to": "0x793AE8C1b1a160BFc07BFB0d04F85eab1A71F4f2",
      "value": {
        "_hex": "0x0"
      },
      "nonce": 0,
      "data": "0x3ba15036",
      "r": "0xed8b6d484c8138435f6b5759e2e0c90a9c3fae590ccea79f6b4630e85c48ef4e",
      "s": "0x261ad92a6650a5cf67f077dbce6b0e261e38e37942a1be14a6190f2ebd940564",
      "v": 28,
      "creates": null,
      "raw": "0xf86980850ba43b740083015f9094793ae8c1b1a160bfc07bfb0d04f85eab1a71f4f280843ba150361ca0ed8b6d484c8138435f6b5759e2e0c90a9c3fae590ccea79f6b4630e85c48ef4ea0261ad92a6650a5cf67f077dbce6b0e261e38e37942a1be14a6190f2ebd940564",
      "networkId": 0,
      "chainId": 0
    },
    {
      "hash": "0x15eb128a663e691805ed56fe92a32085ae9024124b344e897fe9023f730226c5",
      "blockHash": "0xe01262a8eb4cdd9cb95017550828392fd406df337568b3e71d577c60ad714362",
      "blockNumber": 69016,
      "transactionIndex": 23,
      "confirmations": null,
      "from": "0x96492501e1081466c97F9d5d941cA0c416F55992",
      "gasPrice": {
        "_hex": "0xba43b7400"
      },
      "gasLimit": {
        "_hex": "0x15f90"
      },
      "to": "0x793AE8C1b1a160BFc07BFB0d04F85eab1A71F4f2",
      "value": {
        "_hex": "0x0"
      },
      "nonce": 0,
      "data": "0x3ba15036",
      "r": "0x1e5cf3116233c5f64f49da1fba43f40a0849b69db25e6f8fda43c243998eff52",
      "s": "0x79c0ae12efce7279ed4a67f90037650442ca3ebeebf4cd197d1785e6967e37d7",
      "v": 27,
      "creates": null,
      "raw": "0xf86980850ba43b740083015f9094793ae8c1b1a160bfc07bfb0d04f85eab1a71f4f280843ba150361ba01e5cf3116233c5f64f49da1fba43f40a0849b69db25e6f8fda43c243998eff52a079c0ae12efce7279ed4a67f90037650442ca3ebeebf4cd197d1785e6967e37d7",
      "networkId": 0,
      "chainId": 0
    },
    {
      "hash": "0x47b4c242d277c26fe7790a959cdddd9c248bea7beb6fe118175f722b284d8a1a",
      "blockHash": "0xe01262a8eb4cdd9cb95017550828392fd406df337568b3e71d577c60ad714362",
      "blockNumber": 69016,
      "transactionIndex": 24,
      "confirmations": null,
      "from": "0x54C83F367C8eA8Abe8dAF46888443C3b93bFe4c1",
      "gasPrice": {
        "_hex": "0xba43b7400"
      },
      "gasLimit": {
        "_hex": "0x15f90"
      },
      "to": "0x793AE8C1b1a160BFc07BFB0d04F85eab1A71F4f2",
      "value": {
        "_hex": "0x0"
      },
      "nonce": 0,
      "data": "0x3ba15036",
      "r": "0x925547d4026ceb4cdcdc7809d3d72d8e887fe4f68e730e312ce6843e8f47aa96",
      "s": "0x528bbe62f5abdcf25d5d56ff78e3617f53d0a17f159d812ef05fd7878267bd8e",
      "v": 27,
      "creates": null,
      "raw": "0xf86980850ba43b740083015f9094793ae8c1b1a160bfc07bfb0d04f85eab1a71f4f280843ba150361ba0925547d4026ceb4cdcdc7809d3d72d8e887fe4f68e730e312ce6843e8f47aa96a0528bbe62f5abdcf25d5d56ff78e3617f53d0a17f159d812ef05fd7878267bd8e",
      "networkId": 0,
      "chainId": 0
    }
  ]
}