{
  "hash": "0xf73e66203b6ead93c8378e353416327052db88d2da4223abb11e8d4e139c1ba5",
  "parentHash": "0xe0d98453ab9e029e5e046b07fc04fa2c8bbc25dc7f7a4f770ed2b0009eb24159",
  "number": 79725,
  "timestamp": 1439474190,
  "nonce": "0x5b0be307d4cca095",
  "difficulty": 2343797232594,
  "gasLimit": {
    "_hex": "0x2fefd8"
  },
  "gasUsed": {
    "_hex": "0x5208"
  },
  "miner": "0x0037ce3d4B7f8729C8607D8D0248252Be68202c0",
  "extraData": "0x476574682f76312e302e312f77696e646f77732f676f312e342e32",
  "transactions": [
    {
      "hash": "0x768b52ec3612700540e5ca014a16bcdb62bda9393a161fde02e7dadab2925418",
      "blockHash": "0xf73e66203b6ead93c8378e353416327052db88d2da4223abb11e8d4e139c1ba5",
      "blockNumber": 79725,
      "transactionIndex": 0,
      "confirmations": null,
      "from": "0x6c5564dAB8cE79Be134362BC4d7257945A1faA66",
      "gasPrice": {
        "_hex": "0xba43b7400"
      },
      "gasLimit": {
        "_hex": "0x5208"
      },
      "to": "0xC47Aaa860008be6f65B58c6C6E02a84e666EfE31",
      "value": {
        "_hex": "0xad78b0162991c6000"
      },
      "nonce": 0,
      "data": "0x",
      "r": "0xae5f548c00271600ae73fe69f44213a3aa3f0be2ca6266811fb46fd14272906e",
      "s": "0x3cda9e771be4a4e30b0e3d04668d152a69c467b6d48dc8ca27c27687e093b6c1",
      "v": 27,
      "creates": null,
      "raw": "0xf86d80850ba43b740082520894c47aaa860008be6f65b58c6c6e02a84e666efe31890ad78b0162991c6000801ba0ae5f548c00271600ae73fe69f44213a3aa3f0be2ca6266811fb46fd14272906ea03cda9e771be4a4e30b0e3d04668d152a69c467b6d48dc8ca27c27687e093b6c1",
      "networkId": 0,
      "chainId": 0
    }
  ]
}