{
  "hash": "0xa52f1fb7c1b12efc9e08d00cf28f38048549dfaeea434593067acc64229e729c",
  "parentHash": "0xaea779b0d85fe21833a9c1532667228a3b55b83e9b739a0d63600529b6f729e2",
  "number": 53843,
  "timestamp": 1439044590,
  "nonce": "0x3b777ea5d1bdb382",
  "difficulty": 1597019305517,
  "gasLimit": {
    "_hex": "0x2fefd5"
  },
  "gasUsed": {
    "_hex": "0xddfd"
  },
  "miner": "0xbb7B8287f3F0a933474a79eAe42CBCa977791171",
  "extraData": "0x476574682f4c5649562f76312e302e312f6c696e75782f676f312e342e32",
  "transactions": [
    {
      "hash": "0xd917812ef47f1ac3d42881c854228736a1a45b3d53115c0ee275faaac2278c98",
      "blockHash": "0xa52f1fb7c1b12efc9e08d00cf28f38048549dfaeea434593067acc64229e729c",
      "blockNumber": 53843,
      "transactionIndex": 0,
      "confirmations": null,
      "from": "0x07eE995122a8D766d236bC1030C924a1626dB1a9",
      "gasPrice": {
        "_hex": "0xd3738e661"
      },
      "gasLimit": {
        "_hex": "0x15f90"
      },
      "to": "0x109C4f2CCc82C4d77Bde15F306707320294Aea3F",
      "value": {
        "_hex": "0x56bc75e2d63100000"
      },
      "nonce": 0,
      "data": "0x",
      "r": "0x0a16a5bcf9dbf5e748098496ea3d22471c93da522dc78381c09c013367a1cb7b",
      "s": "0x19252c14a35ca6bd5d8135ba98dd342945f38b0d3cf16188051286cd0fceb6dd",
      "v": 27,
      "creates": null,
      "raw": "0xf86e80850d3738e66183015f9094109c4f2ccc82c4d77bde15f306707320294aea3f89056bc75e2d63100000801ba00a16a5bcf9dbf5e748098496ea3d22471c93da522dc78381c09c013367a1cb7ba019252c14a35ca6bd5d8135ba98dd342945f38b0d3cf16188051286cd0fceb6dd",
      "networkId": 0,
      "chainId": 0
    }
  ]
}