{
  "hash": "0xc6b8e28f5471ed466f27862c4e15d9bbb147517b74791c90d14560fae5d0938b",
  "parentHash": "0x8495d6ebd8de0a7fe20f1c3cd4290cd3365c01a7d686c9315ddd78be955d6321",
  "number": 50588,
  "timestamp": 1438991606,
  "nonce": "0x88ba7d50022355c7",
  "difficulty": 1528204301233,
  "gasLimit": {
    "_hex": "0x6bddc"
  },
  "gasUsed": {
    "_hex": "0x4381c"
  },
  "miner": "0xf8E0CA3Ed80bd541b94BEdCf259e8CF2141A9523",
  "extraData": "0x476574682f76312e302e312f77696e646f77732f676f312e342e32",
  "transactions": [
    {
      "hash": "0x4b035a174a6001c3e30afff4661bf00677261e68d65f1804fae33b89094e7b26",
      "blockHash": "0xc6b8e28f5471ed466f27862c4e15d9bbb147517b74791c90d14560fae5d0938b",
      "blockNumber": 50588,
      "transactionIndex": 0,
      "confirmations": null,
      "from": "0xEAb290b146d9fC82589a817012Aa157D5963aa61",
      "gasPrice": {
        "_hex": "0xce77d18d7"
      },
      "gasLimit": {
        "_hex": "0x61a80"
      },
      "to": "0x109C4f2CCc82C4d77Bde15F306707320294Aea3F",
      "value": {
        "_hex": "0xde0b6b3a7640000"
      },
      "nonce": 2,
      "data": "0x",
      "r": "0x4f2693d4d9b1e929ce15e79bca65fdb7e5c734a885a4cc53cf442ae0a74d53ea",
      "s": "0x291c9747c1d2e0a5558d1f9048ee402524aa39a5037eada796a963e4a5c8f172",
      "v": 27,
      "creates": null,
      "raw": "0xf86d02850ce77d18d783061a8094109c4f2ccc82c4d77bde15f306707320294aea3f880de0b6b3a7640000801ba04f2693d4d9b1e929ce15e79bca65fdb7e5c734a885a4cc53cf442ae0a74d53eaa0291c9747c1d2e0a5558d1f9048ee402524aa39a5037eada796a963e4a5c8f172",
      "networkId": 0,
      "chainId": 0
    }
  ]
}