{
  "hash": "0xc4ea4d8c06ee1b786cdb75f4e8c7ee2276ed7179f520d7751a16d7ba19c80b56",
  "parentHash": "0x039ceb9854fa9fdbb16e27b6b965bb9add61b8e14a804a9a3dd4e0f892d29f85",
  "number": 79570,
  "timestamp": 1439471837,
  "nonce": "0xed7385699af397a5",
  "difficulty": 2338125252484,
  "gasLimit": {
    "_hex": "0x2fefd8"
  },
  "gasUsed": {
    "_hex": "0x5208"
  },
  "miner": "0x33b01a7fe4A1a5F774Bb73f89A4eF15a6Ffe1141",
  "extraData": "0x476574682f76312e302e312f6c696e75782f676f312e342e32",
  "transactions": [
    {
      "hash": "0xf890a022d60e7ef370af2330d5b604fb52a000dcc53e61d72ecdea309e046dfc",
      "blockHash": "0xc4ea4d8c06ee1b786cdb75f4e8c7ee2276ed7179f520d7751a16d7ba19c80b56",
      "blockNumber": 79570,
      "transactionIndex": 0,
      "confirmations": null,
      "from": "0xee5379D0c1ca47327368027455074C26D9952628",
      "gasPrice": {
        "_hex": "0xdc7038c4d"
      },
      "gasLimit": {
        "_hex": "0x15f90"
      },
      "to": "0xeBe03d9d305540BEe866FC154eFD8C28eCA41A9b",
      "value": {
        "_hex": "0xd87e555900180000"
      },
      "nonce": 7,
      "data": "0x",
      "r": "0xf769dba157257d3b489af94d80df2af9bc2fa2a95a08a6a74e5d825199ed4c2c",
      "s": "0x668be96aa543effb31ccaa9a9a694790f7fa331b8370f0285ba3c6893158363e",
      "v": 27,
      "creates": null,
      "raw": "0xf86d07850dc7038c4d83015f9094ebe03d9d305540bee866fc154efd8c28eca41a9b88d87e555900180000801ba0f769dba157257d3b489af94d80df2af9bc2fa2a95a08a6a74e5d825199ed4c2ca0668be96aa543effb31ccaa9a9a694790f7fa331b8370f0285ba3c6893158363e",
      "networkId": 0,
      "chainId": 0
    }
  ]
}