{
  "hash": "0x828a2e166737040771596d31ef66c5b48684462800480d8f560ccfbd5f64687f",
  "parentHash": "0xd7f50ecfd9121b5475ccbddf24594a7c0de78a60d03f7e00ae4aa638b91e69c0",
  "number": 63433,
  "timestamp": 1439204339,
  "nonce": "0xa4d8e526f331e126",
  "difficulty": 1839647315363,
  "gasLimit": {
    "_hex": "0x2fe3de"
  },
  "gasUsed": {
    "_hex": "0x5208"
  },
  "miner": "0xA10C59651885FeAaac91F871082a23BBbaBeDfCf",
  "extraData": "0x476574682f76312e302e302f77696e646f77732f676f312e342e32",
  "transactions": [
    {
      "hash": "0xdc0565531f8e4725d1d3a2f619490b0b430cd0e531d34d38b6354adb23e967be",
      "blockHash": "0x828a2e166737040771596d31ef66c5b48684462800480d8f560ccfbd5f64687f",
      "blockNumber": 63433,
      "transactionIndex": 0,
      "confirmations": null,
      "from": "0xa914cDb571BFd93D64da66a4e108EA134e50D000",
      "gasPrice": {
        "_hex": "0x9184e72a000"
      },
      "gasLimit": {
        "_hex": "0x9965e"
      },
      "to": "0xCb88dAC50e0b4f450f3a5d02c2D65Bc56361313E",
      "value": {
        "_hex": "0xde0b6b3a7640000"
      },
      "nonce": 7,
      "data": "0x",
      "r": "0x47f27058ab1df74aacd21ca7ca44278bc0a0617df31ca034799ab306f51e2847",
      "s": "0x364452abef38604e8c61aa0b96322c92b9889fb59178abd3cc46055df42ae0d6",
      "v": 27,
      "creates": null,
      "raw": "0xf86e078609184e72a0008309965e94cb88dac50e0b4f450f3a5d02c2d65bc56361313e880de0b6b3a7640000801ba047f27058ab1df74aacd21ca7ca44278bc0a0617df31ca034799ab306f51e2847a0364452abef38604e8c61aa0b96322c92b9889fb59178abd3cc46055df42ae0d6",
      "networkId": 0,
      "chainId": 0
    }
  ]
}