{
  "hash": "0x68798682be55f3a329aac8d0d9eeb16919478473590a47b7eafd987f517375fd",
  "parentHash": "0xd15acee862ac876b595dd329d3cdd7c4ea5a0e5daf100a7942c62498181bf9fc",
  "number": 81919,
  "timestamp": 1439510105,
  "nonce": "0xf2eebc0d36465d44",
  "difficulty": 2412847765173,
  "gasLimit": {
    "_hex": "0x2fefd8"
  },
  "gasUsed": {
    "_hex": "0xa410"
  },
  "miner": "0x957523c697993cB24FCf75EfBce4f228325e7383",
  "extraData": "0x476574682f76312e302e312f6c696e75782f676f312e342e32",
  "transactions": [
    {
      "hash": "0x623a7128e012fa611f3e290ee4761b63f8f533327202cc5f8382ccec7948d370",
      "blockHash": "0x68798682be55f3a329aac8d0d9eeb16919478473590a47b7eafd987f517375fd",
      "blockNumber": 81919,
      "transactionIndex": 0,
      "confirmations": null,
      "from": "0x824b3C3C443e19295d7ef6faa7f374a4798486a8",
      "gasPrice": {
        "_hex": "0xdd1b9cc83"
      },
      "gasLimit": {
        "_hex": "0x15f90"
      },
      "to": "0x3DC62ceE7e520DEd369be6b36da28cA1663f20Af",
      "value": {
        "_hex": "0xde0b6b3a76400000"
      },
      "nonce": 1,
      "data": "0x",
      "r": "0xddd07a8dbef2541682d231a01eaee4bf13e3b15169c0cc1c46a71f52099c2b61",
      "s": "0x2f0a90745cff00fe814ec16f0bf5dc9c44f04110155fc0025f46b1303d42ace2",
      "v": 27,
      "creates": null,
      "raw": "0xf86d01850dd1b9cc8383015f90943dc62cee7e520ded369be6b36da28ca1663f20af88de0b6b3a76400000801ba0ddd07a8dbef2541682d231a01eaee4bf13e3b15169c0cc1c46a71f52099c2b61a02f0a90745cff00fe814ec16f0bf5dc9c44f04110155fc0025f46b1303d42ace2",
      "networkId": 0,
      "chainId": 0
    },
    {
      "hash": "0xef59d788f2b0dfb2447c24b32b3c7bc5a39f99182f17f9d6aea13c55f436a942",
      "blockHash": "0x68798682be55f3a329aac8d0d9eeb16919478473590a47b7eafd987f517375fd",
      "blockNumber": 81919,
      "transactionIndex": 1,
      "confirmations": null,
      "from": "0xB111131B23148a685D28A018B3577910B86280FC",
      "gasPrice": {
        "_hex": "0xba43b7400"
      },
      "gasLimit": {
        "_hex": "0x5208"
      },
      "to": "0xC47Aaa860008be6f65B58c6C6E02a84e666EfE31",
      "value": {
        "_hex": "0x454e1310e0009dc0"
      },
      "nonce": 2,
      "data": "0x",
      "r": "0x21b80177d756c33f0aded08f5e771e2dd77bab8d22fc0b24a335df381a4cfb1f",
      "s": "0x1ed41c6a49ab3d8d6dd0328f031fb4671774808bc53acb073c832755aba521b6",
      "v": 27,
      "creates": null,
      "raw": "0xf86c02850ba43b740082520894c47aaa860008be6f65b58c6c6e02a84e666efe3188454e1310e0009dc0801ba021b80177d756c33f0aded08f5e771e2dd77bab8d22fc0b24a335df381a4cfb1fa01ed41c6a49ab3d8d6dd0328f031fb4671774808bc53acb073c832755aba521b6",
      "networkId": 0,
      "chainId": 0
    }
  ]
}