{
  "hash": "0x905e48ee579496693707354873ed4a9ed6c080c9764c53ec8f2b2c09af997c8f",
  "parentHash": "0x11bf1d597ff528b01d0e88dea5152374e799235e4ddda9e8d0cddad932705b07",
  "number": 117919,
  "timestamp": 1440117512,
  "nonce": "0x660646dec0d7ffc7",
  "difficulty": 4350393093223,
  "gasLimit": {
    "_hex": "0x2fefd8"
  },
  "gasUsed": {
    "_hex": "0x5208"
  },
  "miner": "0xe6A7a1d47ff21B6321162AEA7C6CB457D5476Bca",
  "extraData": "0xd783010002844765746887676f312e342e32856c696e7578",
  "transactions": [
    {
      "hash": "0x8cabc741010b00b569c873a500d5bd4efdbb73eac9af733381e8c07bc880d700",
      "blockHash": "0x905e48ee579496693707354873ed4a9ed6c080c9764c53ec8f2b2c09af997c8f",
      "blockNumber": 117919,
      "transactionIndex": 0,
      "confirmations": null,
      "from": "0x007f7f58D3eb5b7510A301eCC749FC1fCDDBE14D",
      "gasPrice": {
        "_hex": "0xba43b7400"
      },
      "gasLimit": {
        "_hex": "0x15f90"
      },
      "to": "0xb1abce2918E21ddb93AA452731a12672A3d9F75a",
      "value": {
        "_hex": "0x4563918244f40000"
      },
      "nonce": 330,
      "data": "0x",
      "r": "0xfba78e4041ca3eb743f6ef8f496fdbee54a32540b519d4b042536cf692e5a567",
      "s": "0x7caf4a29f1ca863f51ae4efbb2cf96dec14e08ea9e4c3a4096826ea4416ad290",
      "v": 27,
      "creates": null,
      "raw": "0xf86f82014a850ba43b740083015f9094b1abce2918e21ddb93aa452731a12672a3d9f75a884563918244f40000801ba0fba78e4041ca3eb743f6ef8f496fdbee54a32540b519d4b042536cf692e5a567a07caf4a29f1ca863f51ae4efbb2cf96dec14e08ea9e4c3a4096826ea4416ad290",
      "networkId": 0,
      "chainId": 0
    }
  ]
}