{
  "hash": "0x2e2f59f4f41bb329a67d7af55ead54406db0cbb0304febad50ac05f1ee6df416",
  "parentHash": "0xf2543d39b1850e3473b6dff175ba1c402529321f12850c0110d3e47994faa534",
  "number": 95155,
  "timestamp": 1439719686,
  "nonce": "0xc04717c28c68040b",
  "difficulty": 3532629064272,
  "gasLimit": {
    "_hex": "0x2fefd8"
  },
  "gasUsed": {
    "_hex": "0x5208"
  },
  "miner": "0xe6A7a1d47ff21B6321162AEA7C6CB457D5476Bca",
  "extraData": "0x476574682f76312e302e312d38326566323666362f6c696e75782f676f312e34",
  "transactions": [
    {
      "hash": "0xd4073a713595ca84228dc051af298d2fcf5d1e2adc5b2c7ba9c8d84415599887",
      "blockHash": "0x2e2f59f4f41bb329a67d7af55ead54406db0cbb0304febad50ac05f1ee6df416",
      "blockNumber": 95155,
      "transactionIndex": 0,
      "confirmations": null,
      "from": "0x04a2a3ee9C9ea82e1F918ecE209f8A7E6d7521E7",
      "gasPrice": {
        "_hex": "0xd10bb515c"
      },
      "gasLimit": {
        "_hex": "0x5208"
      },
      "to": "0x32Be343B94f860124dC4fEe278FDCBD38C102D88",
      "value": {
        "_hex": "0xbf7f431e22e4f800"
      },
      "nonce": 13,
      "data": "0x",
      "r": "0xda17864651b5b8de99feddead76451c4a31805a9a9067667ae13c1bd0d1f11e9",
      "s": "0x36bcb572a640bd8f537efae0d4c9874baa1972c517fbefb383d4f2774e5d934c",
      "v": 27,
      "creates": null,
      "raw": "0xf86c0d850d10bb515c8252089432be343b94f860124dc4fee278fdcbd38c102d8888bf7f431e22e4f800801ba0da17864651b5b8de99feddead76451c4a31805a9a9067667ae13c1bd0d1f11e9a036bcb572a640bd8f537efae0d4c9874baa1972c517fbefb383d4f2774e5d934c",
      "networkId": 0,
      "chainId": 0
    }
  ]
}