{
  "hash": "0xd4015c7a3507ed915d84bf1819f1009fa11edc8126e96682a3599b8665050ab2",
  "parentHash": "0x0a306339360a5bf018441f0d3b69f259f9595fa6c1f3181c34d1995f4a5cf8d2",
  "number": 115376,
  "timestamp": 1440056110,
  "nonce": "0xc5a120d886413b55",
  "difficulty": 4558328863086,
  "gasLimit": {
    "_hex": "0x2fefd8"
  },
  "gasUsed": {
    "_hex": "0xa410"
  },
  "miner": "0x52bc44d5378309EE2abF1539BF71dE1b7d7bE3b5",
  "extraData": "0x476574682f76312e302e312d65626434373230372f6c696e75782f676f312e34",
  "transactions": [
    {
      "hash": "0x4e4f40a626892d2ba1477a0667f6c9cfc22f490ae5295c469d3363935e49e1ca",
      "blockHash": "0xd4015c7a3507ed915d84bf1819f1009fa11edc8126e96682a3599b8665050ab2",
      "blockNumber": 115376,
      "transactionIndex": 0,
      "confirmations": null,
      "from": "0xD51361E8863b74B1d3BF75246d30f33f9f103e1d",
      "gasPrice": {
        "_hex": "0xdbe72bd54"
      },
      "gasLimit": {
        "_hex": "0x5208"
      },
      "to": "0x32Be343B94f860124dC4fEe278FDCBD38C102D88",
      "value": {
        "_hex": "0x4dd98ab720c39400"
      },
      "nonce": 8,
      "data": "0x",
      "r": "0x669736deb057cdb6be81ded3e8f33ad91a67fe63dc7b8d36ea420b6fd1c14400",
      "s": "0x434a83d3f2dceb6c390c6d7fa9da051c63a258bf99b1e59e7230c26e3f34ce3c",
      "v": 28,
      "creates": null,
      "raw": "0xf86c08850dbe72bd548252089432be343b94f860124dc4fee278fdcbd38c102d88884dd98ab720c39400801ca0669736deb057cdb6be81ded3e8f33ad91a67fe63dc7b8d36ea420b6fd1c14400a0434a83d3f2dceb6c390c6d7fa9da051c63a258bf99b1e59e7230c26e3f34ce3c",
      "networkId": 0,
      "chainId": 0
    },
    {
      "hash": "0xab82d81f6e262edd4c93d2d241ca77201690fdf58b7d0107b8f5ecf0a8d2b9bf",
      "blockHash": "0xd4015c7a3507ed915d84bf1819f1009fa11edc8126e96682a3599b8665050ab2",
      "blockNumber": 115376,
      "transactionIndex": 1,
      "confirmations": null,
      "from": "0x4CD33268dF93C6b4F6b3D504009EAE965Afe272d",
      "gasPrice": {
        "_hex": "0xdbe72bd54"
      },
      "gasLimit": {
        "_hex": "0x5208"
      },
      "to": "0x32Be343B94f860124dC4fEe278FDCBD38C102D88",
      "value": {
        "_hex": "0x4ad33b1047a31000"
      },
      "nonce": 8,
      "data": "0x",
      "r": "0x9e53e9370778143ec75c262d51aafd05d646312e836ad0ac24597003f5ed531e",
      "s": "0x1139107f3929015de5e09a271008ef63d0bb398cc0c0de1acb8bbe7444d31a2e",
      "v": 27,
      "creates": null,
      "raw": "0xf86c08850dbe72bd548252089432be343b94f860124dc4fee278fdcbd38c102d88884ad33b1047a31000801ba09e53e9370778143ec75c262d51aafd05d646312e836ad0ac24597003f5ed531ea01139107f3929015de5e09a271008ef63d0bb398cc0c0de1acb8bbe7444d31a2e",
      "networkId": 0,
      "chainId": 0
    }
  ]
}