{
  "hash": "0x34e1753345e56c9679fa70bc564605321b63940c0cb70594252ca5aab16702aa",
  "parentHash": "0xbd61520e9dcce3ab99608078c6a3ffb364762bdb1ecc76814876e4359aed47fc",
  "number": 85100,
  "timestamp": 1439558481,
  "nonce": "0x94bb7878135ac659",
  "difficulty": 2723752516748,
  "gasLimit": {
    "_hex": "0x2fefd8"
  },
  "gasUsed": {
    "_hex": "0x5208"
  },
  "miner": "0x785ffdDd5cE55c6DF963f345e68d3F2024E5Acb1",
  "extraData": "0x",
  "transactions": [
    {
      "hash": "0x6af83abbe6970ecebdf5ecdc39162a04c3a646e328f66c77c47dc2598cfcff8c",
      "blockHash": "0x34e1753345e56c9679fa70bc564605321b63940c0cb70594252ca5aab16702aa",
      "blockNumber": 85100,
      "transactionIndex": 0,
      "confirmations": null,
      "from": "0x120A270bbC009644e35F0bB6ab13f95b8199c4ad",
      "gasPrice": {
        "_hex": "0xcc51e52ff"
      },
      "gasLimit": {
        "_hex": "0x3d090"
      },
      "to": "0xd0c9016C1669D8D4B331F8a68BC0b4E7937F3475",
      "value": {
        "_hex": "0xd4bf9d095512800"
      },
      "nonce": 442,
      "data": "0x",
      "r": "0x64e28699d3a6346ba88dc54674d6f26ed3b22ae5653f8c03bbc183cb13dc703b",
      "s": "0x0f5710419a95362161b7348e4f64e77f830121ed901271b5c8830890b384422b",
      "v": 27,
      "creates": null,
      "raw": "0xf86f8201ba850cc51e52ff8303d09094d0c9016c1669d8d4b331f8a68bc0b4e7937f3475880d4bf9d095512800801ba064e28699d3a6346ba88dc54674d6f26ed3b22ae5653f8c03bbc183cb13dc703ba00f5710419a95362161b7348e4f64e77f830121ed901271b5c8830890b384422b",
      "networkId": 0,
      "chainId": 0
    }
  ]
}