{
  "hash": "0xe7648435a49315705a509fa3aa785c1ad74c0d053e90700e4d060d756512f2b5",
  "parentHash": "0xbc816f5153cd498b88761135fc4f107e8ac9b512ffb9f4ff6d388866b0971f53",
  "number": 115350,
  "timestamp": 1440055766,
  "nonce": "0x8de5c4476a02a7be",
  "difficulty": 4545008013043,
  "gasLimit": {
    "_hex": "0x2fefd8"
  },
  "gasUsed": {
    "_hex": "0x5208"
  },
  "miner": "0x52bc44d5378309EE2abF1539BF71dE1b7d7bE3b5",
  "extraData": "0x476574682f76312e302e312d39353236303766382f6c696e75782f676f312e34",
  "transactions": [
    {
      "hash": "0x69b0e59ffab0baefab93f07f97e141159d0c021e6477981a279f48d13ef6e814",
      "blockHash": "0xe7648435a49315705a509fa3aa785c1ad74c0d053e90700e4d060d756512f2b5",
      "blockNumber": 115350,
      "transactionIndex": 0,
      "confirmations": null,
      "from": "0x6CB5e8313a5B29aDb14AE1884D3EcE4489d02D77",
      "gasPrice": {
        "_hex": "0xcfdf91db9"
      },
      "gasLimit": {
        "_hex": "0x5208"
      },
      "to": "0x32Be343B94f860124dC4fEe278FDCBD38C102D88",
      "value": {
        "_hex": "0x88fcbb9dde1d3000"
      },
      "nonce": 10,
      "data": "0x",
      "r": "0xed20245e3b1f3c4cd7d8c34de3aaf03940fedfb68ae5344c78517747d846d56d",
      "s": "0x228a51e54c90be15d4bdad608ecfd9bb107415b2d7d3591ae3121837d2a8ea92",
      "v": 27,
      "creates": null,
      "raw": "0xf86c0a850cfdf91db98252089432be343b94f860124dc4fee278fdcbd38c102d888888fcbb9dde1d3000801ba0ed20245e3b1f3c4cd7d8c34de3aaf03940fedfb68ae5344c78517747d846d56da0228a51e54c90be15d4bdad608ecfd9bb107415b2d7d3591ae3121837d2a8ea92",
      "networkId": 0,
      "chainId": 0
    }
  ]
}