{
  "hash": "0x4af2b68c9be9e562567abb95b7f9d477cde3ff8f2d5ad13bc7ec55179004b3a6",
  "parentHash": "0xb1d2bf723d0641ff5d6ae41e36a0867786aa6f06ff2b4c3a1621e81f41b6d18c",
  "number": 111606,
  "timestamp": 1439993163,
  "nonce": "0x108734d9745d7e27",
  "difficulty": 4424388417333,
  "gasLimit": {
    "_hex": "0x2fefd8"
  },
  "gasUsed": {
    "_hex": "0x2542d"
  },
  "miner": "0x88D74a59454F6cF3B51ef6b9136AFb6b9D405A88",
  "extraData": "0x",
  "transactions": [
    {
      "hash": "0x1cd2ea06c9ffee8be9f43fb059f65764cda37015c37259b0a0358dca503cce27",
      "blockHash": "0x4af2b68c9be9e562567abb95b7f9d477cde3ff8f2d5ad13bc7ec55179004b3a6",
      "blockNumber": 111606,
      "transactionIndex": 0,
      "confirmations": null,
      "from": "0x790b8a3cE86E707ED0eD32bF89B3269692a23CC1",
      "gasPrice": {
        "_hex": "0xdd16351d0"
      },
      "gasLimit": {
        "_hex": "0x15f90"
      },
      "to": "0x4D67f4F0Db45b3B5a3424B39ed8d972F710381D5",
      "value": {
        "_hex": "0x2f9e3fb2098f20000"
      },
      "nonce": 45,
      "data": "0x",
      "r": "0x4ccdb2ca4ab82ddfc520bb676759e6d4ca16256d0f813ec88e81f087c043bb58",
      "s": "0x438aaeb59a7f833dd1f94df1dfbf02d89d22f8891a34bb1b4f8db79c3a39e9dd",
      "v": 28,
      "creates": null,
      "raw": "0xf86e2d850dd16351d083015f90944d67f4f0db45b3b5a3424b39ed8d972f710381d58902f9e3fb2098f20000801ca04ccdb2ca4ab82ddfc520bb676759e6d4ca16256d0f813ec88e81f087c043bb58a0438aaeb59a7f833dd1f94df1dfbf02d89d22f8891a34bb1b4f8db79c3a39e9dd",
      "networkId": 0,
      "chainId": 0
    },
    {
      "hash": "0x92e973f22b39dd332b1856e8359608471432cc872226bee51a74f7e207f8ff23",
      "blockHash": "0x4af2b68c9be9e562567abb95b7f9d477cde3ff8f2d5ad13bc7ec55179004b3a6",
      "blockNumber": 111606,
      "transactionIndex": 1,
      "confirmations": null,
      "from": "0x0D82Cd113DC35DdDA93f38166cD5CDe8b88e36A1",
      "gasPrice": {
        "_hex": "0xd35834335"
      },
      "gasLimit": {
        "_hex": "0x30d40"
      },
      "to": "0x4d6387f3B967dA39B11DE111158D49754C31985d",
      "value": {
        "_hex": "0x16345785d8a0000"
      },
      "nonce": 27,
      "data": "0x02dc2e1d00000000000000000000000000000000000000000000000000000000000000200000000000000000000000000000000000000000000000000000000000000022314a4334584d736e6953737068465a516648316f716b73534a6932785a5761447442000000000000000000000000000000000000000000000000000000000000",
      "r": "0x1b61509d33051f9e030f7dc7fa09a876651b9f6d788ae589214559cca4e12487",
      "s": "0x1970bbbbba69012917b314325bb71a767c8dd2487b753e6e080d5882210b990b",
      "v": 27,
      "creates": null,
      "raw": "0xf8f21b850d3583433583030d40944d6387f3b967da39b11de111158d49754c31985d88016345785d8a0000b88402dc2e1d00000000000000000000000000000000000000000000000000000000000000200000000000000000000000000000000000000000000000000000000000000022314a4334584d736e6953737068465a516648316f716b73534a6932785a57614474420000000000000000000000000000000000000000000000000000000000001ba01b61509d33051f9e030f7dc7fa09a876651b9f6d788ae589214559cca4e12487a01970bbbbba69012917b314325bb71a767c8dd2487b753e6e080d5882210b990b",
      "networkId": 0,
      "chainId": 0
    }
  ]
}