{
  "hash": "0xcdf8389960d20c3534df90b13c98853e405da64a5f02cd13a2a79502458522db",
  "parentHash": "0xe92bec071e632a92a8fa8d9a603af11ad9f8a06a8b669876a4682bb53b5ad447",
  "number": 66888,
  "timestamp": 1439262013,
  "nonce": "0xee69f378a32304c2",
  "difficulty": 1952714795465,
  "gasLimit": {
    "_hex": "0x2fefd8"
  },
  "gasUsed": {
    "_hex": "0x5208"
  },
  "miner": "0x52Dc504a422f0E2A9e7632A34a50f1a82F8224c7",
  "extraData": "0x476574682f76312e302e312f6c696e75782f676f312e342e32",
  "transactions": [
    {
      "hash": "0xb8097434eef745d66cce3a875f9cd1e41e09684dcb588306449c507267979f2d",
      "blockHash": "0xcdf8389960d20c3534df90b13c98853e405da64a5f02cd13a2a79502458522db",
      "blockNumber": 66888,
      "transactionIndex": 0,
      "confirmations": null,
      "from": "0x9746c7e1ef2bd21FF3997fa467593a89cb852BD0",
      "gasPrice": {
        "_hex": "0xd2524ba96"
      },
      "gasLimit": {
        "_hex": "0x5208"
      },
      "to": "0xB0bF4A71F730782368Ef660FE6D298F432F95450",
      "value": {
        "_hex": "0x1b1ae4d6e2ef500000"
      },
      "nonce": 15,
      "data": "0x",
      "r": "0x1dc591384dc3971b8b09fd2765c322c42478fceb7a48c8bcf1521270e2100717",
      "s": "0x5948ab4ed9c073865e743e57b91487fddb42daa93c769c6c2f57e693265ba80f",
      "v": 27,
      "creates": null,
      "raw": "0xf86d0f850d2524ba9682520894b0bf4a71f730782368ef660fe6d298f432f95450891b1ae4d6e2ef500000801ba01dc591384dc3971b8b09fd2765c322c42478fceb7a48c8bcf1521270e2100717a05948ab4ed9c073865e743e57b91487fddb42daa93c769c6c2f57e693265ba80f",
      "networkId": 0,
      "chainId": 0
    }
  ]
}