{
  "hash": "0x43e1d1ea42039533c52518908e04ebe8f58dbd6061c7417f934f61ee7d6fa462",
  "parentHash": "0xaaeee8511f55dd00cc2da82c4e9cdd3fb0cb9b507b7daba6f78d3fc7f1c4ac39",
  "number": 51432,
  "timestamp": 1439004803,
  "nonce": "0x9a975839d658316b",
  "difficulty": 1565815600264,
  "gasLimit": {
    "_hex": "0xb0167"
  },
  "gasUsed": {
    "_hex": "0x851f3"
  },
  "miner": "0xbb7B8287f3F0a933474a79eAe42CBCa977791171",
  "extraData": "0x476574682f4c5649562f76312e302e312f6c696e75782f676f312e342e32",
  "transactions": [
    {
      "hash": "0xe80799b65c192bcdf6fc735289972cf98b0e4bcd0da49dd1fb921dc0475d95f8",
      "blockHash": "0x43e1d1ea42039533c52518908e04ebe8f58dbd6061c7417f934f61ee7d6fa462",
      "blockNumber": 51432,
      "transactionIndex": 0,
      "confirmations": null,
      "from": "0x2905726Ed11131A984ce9C0119cB32DBC99dE90B",
      "gasPrice": {
        "_hex": "0x100638e2db5"
      },
      "gasLimit": {
        "_hex": "0x30d40"
      },
      "to": "0xd94BAdbEC21695B7a36ABCb979EFad0108319d18",
      "value": {
        "_hex": "0xaa87bee538000"
      },
      "nonce": 13,
      "data": "0xa69beaba4d656c616e63686f6c6961000000000000000000000000000000000000000000",
      "r": "0xb523b891dfbbb332b0b3749da8d8780e19e0ca39eeb240e7688f93ea484f468a",
      "s": "0x13f3dbeb0d3c737f98e269368e7b0535efee0502dbfeb517e5f531de298501f9",
      "v": 27,
      "creates": null,
      "raw": "0xf8910d860100638e2db583030d4094d94badbec21695b7a36abcb979efad0108319d18870aa87bee538000a4a69beaba4d656c616e63686f6c69610000000000000000000000000000000000000000001ba0b523b891dfbbb332b0b3749da8d8780e19e0ca39eeb240e7688f93ea484f468aa013f3dbeb0d3c737f98e269368e7b0535efee0502dbfeb517e5f531de298501f9",
      "networkId": 0,
      "chainId": 0
    },
    {
      "hash": "0x75580eae422c82f2ff82372b13dea5e2e3dc73d1dc54ab4a6431caa37889cf4a",
      "blockHash": "0x43e1d1ea42039533c52518908e04ebe8f58dbd6061c7417f934f61ee7d6fa462",
      "blockNumber": 51432,
      "transactionIndex": 1,
      "confirmations": null,
      "from": "0xf88a65846C19D8fc76fFf545fEAa7bbc7114F667",
      "gasPrice": {
        "_hex": "0xd99d77bae"
      },
      "gasLimit": {
        "_hex": "0x7a120"
      },
      "to": "0xBAA54d6E90c3F4d7Ebec11bD180134C7eD8eBb52",
      "value": {
        "_hex": "0x16345785d8a0000"
      },
      "nonce": 21,
      "data": "0x",
      "r": "0xc1edf6edf0add3140e9b9881ba3096a12912d5d5b9a4914b1bc04ce599469ef1",
      "s": "0x189d3c50a79691080b95f2e4cfa3bf442baf8979b521ba075fa8fee02f7fdd38",
      "v": 28,
      "creates": null,
      "raw": "0xf86d15850d99d77bae8307a12094baa54d6e90c3f4d7ebec11bd180134c7ed8ebb5288016345785d8a0000801ca0c1edf6edf0add3140e9b9881ba3096a12912d5d5b9a4914b1bc04ce599469ef1a0189d3c50a79691080b95f2e4cfa3bf442baf8979b521ba075fa8fee02f7fdd38",
      "networkId": 0,
      "chainId": 0
    },
    {
      "hash": "0x40c34b562e92eac311fa0685f4d847ecb1c3ad6e89e72d629e94dbac56651c54",
      "blockHash": "0x43e1d1ea42039533c52518908e04ebe8f58dbd6061c7417f934f61ee7d6fa462",
      "blockNumber": 51432,
      "transactionIndex": 2,
      "confirmations": null,
      "from": "0x4245FB34599786Dd82dB47c0f4f2B276001a72CF",
      "gasPrice": {
        "_hex": "0xcd1f8a240"
      },
      "gasLimit": {
        "_hex": "0x7a120"
      },
      "to": "0xBAA54d6E90c3F4d7Ebec11bD180134C7eD8eBb52",
      "value": {
        "_hex": "0x16345785d8a0000"
      },
      "nonce": 1,
      "data": "0x",
      "r": "0xe90e987b52ba89d23c8deb8c76bc4dcad3a9f5365204d507cb6610f8c85efb1a",
      "s": "0x5b64a92fdc0fbf92279a2c58781a6b6668011965c991d9edc32b843287eb0512",
      "v": 28,
      "creates": null,
      "raw": "0xf86d01850cd1f8a2408307a12094baa54d6e90c3f4d7ebec11bd180134c7ed8ebb5288016345785d8a0000801ca0e90e987b52ba89d23c8deb8c76bc4dcad3a9f5365204d507cb6610f8c85efb1aa05b64a92fdc0fbf92279a2c58781a6b6668011965c991d9edc32b843287eb0512",
      "networkId": 0,
      "chainId": 0
    }
  ]
}