{
  "hash": "0x3217f6fc36c9f885cae14ce2eb10a4555cda2b97118fd07fd95a945be287f8a5",
  "parentHash": "0xaf88121601c9ccdafe4c2f761798b74a1aa402354578a97e31d2bbcebbbc9723",
  "number": 120731,
  "timestamp": 1440164881,
  "nonce": "0x6eb93922275a5044",
  "difficulty": 4439042965254,
  "gasLimit": {
    "_hex": "0x2fefd8"
  },
  "gasUsed": {
    "_hex": "0xa410"
  },
  "miner": "0x790b8a3cE86E707ED0eD32bF89B3269692a23CC1",
  "extraData": "0xd783010002844765746887676f312e342e32856c696e7578",
  "transactions": [
    {
      "hash": "0xd042f564fb08b623fcd627405a56ddcc45e9fdaa1ad8ffd9534ffe3db7702767",
      "blockHash": "0x3217f6fc36c9f885cae14ce2eb10a4555cda2b97118fd07fd95a945be287f8a5",
      "blockNumber": 120731,
      "transactionIndex": 0,
      "confirmations": null,
      "from": "0x608f4b86321a68453f9adf6F06F7Fc3E621739ad",
      "gasPrice": {
        "_hex": "0xba43b7400"
      },
      "gasLimit": {
        "_hex": "0x5208"
      },
      "to": "0x32Be343B94f860124dC4fEe278FDCBD38C102D88",
      "value": {
        "_hex": "0x455fd68a17f06000"
      },
      "nonce": 78,
      "data": "0x",
      "r": "0xb8d65f445fc01b0911a4d3f1a0d4c66d83379b2f57b0c624e4d4e4d34ecb72f7",
      "s": "0x4ffaafac254403e3a2a484b3c54b5f5f65e538570ac3ab707ad15508d31393a5",
      "v": 27,
      "creates": null,
      "raw": "0xf86c4e850ba43b74008252089432be343b94f860124dc4fee278fdcbd38c102d8888455fd68a17f06000801ba0b8d65f445fc01b0911a4d3f1a0d4c66d83379b2f57b0c624e4d4e4d34ecb72f7a04ffaafac254403e3a2a484b3c54b5f5f65e538570ac3ab707ad15508d31393a5",
      "networkId": 0,
      "chainId": 0
    },
    {
      "hash": "0x488800c982851b413d33202f34ba064dc3a316d494c76c2e6770d52a0fd23942",
      "blockHash": "0x3217f6fc36c9f885cae14ce2eb10a4555cda2b97118fd07fd95a945be287f8a5",
      "blockNumber": 120731,
      "transactionIndex": 1,
      "confirmations": null,
      "from": "0x7339BF89A60F8a29d0Ed436F3198774F8e191f37",
      "gasPrice": {
        "_hex": "0xba43b7400"
      },
      "gasLimit": {
        "_hex": "0x5208"
      },
      "to": "0x32Be343B94f860124dC4fEe278FDCBD38C102D88",
      "value": {
        "_hex": "0x455fd68a17f06000"
      },
      "nonce": 12,
      "data": "0x",
      "r": "0xca8ad3bc31f318a67a0adb70de98bc27de1882a8b22549e3c590d0ede4396b1b",
      "s": "0x724e74772a6a9f1a70aadbd77e4bd579f9a43956610831ba12bfeae6ab0df0e2",
      "v": 28,
      "creates": null,
      "raw": "0xf86c0c850ba43b74008252089432be343b94f860124dc4fee278fdcbd38c102d8888455fd68a17f06000801ca0ca8ad3bc31f318a67a0adb70de98bc27de1882a8b22549e3c590d0ede4396b1ba0724e74772a6a9f1a70aadbd77e4bd579f9a43956610831ba12bfeae6ab0df0e2",
      "networkId": 0,
      "chainId": 0
    }
  ]
}