{
  "hash": "0xe2847d56b274717e14e0b8a6047fad50d3b499774e60830b25b8662a9ad752e7",
  "parentHash": "0x6cb173ed8f2ce0a76b017de8d46795cc48fc7e84b17712e6e5ca3eafbd614e8a",
  "number": 98607,
  "timestamp": 1439775830,
  "nonce": "0x755a2e782e181aa4",
  "difficulty": 3848057084108,
  "gasLimit": {
    "_hex": "0x2fefd8"
  },
  "gasUsed": {
    "_hex": "0x5208"
  },
  "miner": "0xe64D681b0eBCa2997D5f35e72EbC7777973299D7",
  "extraData": "0x",
  "transactions": [
    {
      "hash": "0xf2a2a55fc746ba22b7e2b5ac4b51d6d9d748f73b472c265c68bfdfd056555c5c",
      "blockHash": "0xe2847d56b274717e14e0b8a6047fad50d3b499774e60830b25b8662a9ad752e7",
      "blockNumber": 98607,
      "transactionIndex": 0,
      "confirmations": null,
      "from": "0x1A2EB6Ab8ac3aFe382E6bbC6d54247a8A793db99",
      "gasPrice": {
        "_hex": "0xcc0025bba"
      },
      "gasLimit": {
        "_hex": "0x15f90"
      },
      "to": "0xD9666150A9dA92d9108198a4072970805a8B3428",
      "value": {
        "_hex": "0x361f955640060000"
      },
      "nonce": 1,
      "data": "0x",
      "r": "0x4a40e3fffb6f35aaba28adcc091a42304dcd50de788bc3a7e1c0a1889bb69661",
      "s": "0x35daa70e2b025f2bea502ed2197aa190e14be2f2c2e25e0bbc9ef52afb02e337",
      "v": 28,
      "creates": null,
      "raw": "0xf86d01850cc0025bba83015f9094d9666150a9da92d9108198a4072970805a8b342888361f955640060000801ca04a40e3fffb6f35aaba28adcc091a42304dcd50de788bc3a7e1c0a1889bb69661a035daa70e2b025f2bea502ed2197aa190e14be2f2c2e25e0bbc9ef52afb02e337",
      "networkId": 0,
      "chainId": 0
    }
  ]
}