{
  "hash": "0x819cb89dc218db96cfd46cc4cf88c93b9ccc6eab0322495b8f05b6ee0d7aa5c6",
  "parentHash": "0xb13c1cb413a96bf0ad1a86aa6bd386e7f1a2db0b146971665b243e6a27b56730",
  "number": 96918,
  "timestamp": 1439748094,
  "nonce": "0x79340f2c141d0cc1",
  "difficulty": 3728594780380,
  "gasLimit": {
    "_hex": "0x2fefd8"
  },
  "gasUsed": {
    "_hex": "0x5208"
  },
  "miner": "0xe6A7a1d47ff21B6321162AEA7C6CB457D5476Bca",
  "extraData": "0x476574682f76312e302e312d38326566323666362f6c696e75782f676f312e34",
  "transactions": [
    {
      "hash": "0xae0b90eacf7fd79183ace4a62743f47f5e0da4220427d68f217b461adf077a65",
      "blockHash": "0x819cb89dc218db96cfd46cc4cf88c93b9ccc6eab0322495b8f05b6ee0d7aa5c6",
      "blockNumber": 96918,
      "transactionIndex": 0,
      "confirmations": null,
      "from": "0x32Be343B94f860124dC4fEe278FDCBD38C102D88",
      "gasPrice": {
        "_hex": "0xd01cf9127"
      },
      "gasLimit": {
        "_hex": "0x5208"
      },
      "to": "0xb794F5eA0ba39494cE839613fffBA74279579268",
      "value": {
        "_hex": "0xfe1c215e8f839000000"
      },
      "nonce": 1017,
      "data": "0x",
      "r": "0x852c9a68515bbc5110c0b9a8362255f562847f45aa33c3f4640ed0d47cba7b01",
      "s": "0x4e216a5d44aac11554cdefe49e3ea056a5bed91c2a0183765275226e9e9e4f95",
      "v": 28,
      "creates": null,
      "raw": "0xf8708203f9850d01cf912782520894b794f5ea0ba39494ce839613fffba742795792688a0fe1c215e8f839000000801ca0852c9a68515bbc5110c0b9a8362255f562847f45aa33c3f4640ed0d47cba7b01a04e216a5d44aac11554cdefe49e3ea056a5bed91c2a0183765275226e9e9e4f95",
      "networkId": 0,
      "chainId": 0
    }
  ]
}