{
  "hash": "0xc454bbc2cefe983eb45b17729949987788825645fcc608f11c2b974d4e8a2ad3",
  "parentHash": "0x7afe7a855af75bce715efa766e93c74324726bd2cb8158473961361235454d38",
  "number": 71424,
  "timestamp": 1439335811,
  "nonce": "0x6ea5a16ddd9430f8",
  "difficulty": 2177233169528,
  "gasLimit": {
    "_hex": "0x2fefd8"
  },
  "gasUsed": {
    "_hex": "0xae73"
  },
  "miner": "0x9D49F602b0fdb924Bd63DDE2Bd0907E4A07c63a7",
  "extraData": "0x476574682f76312e302e312f6c696e75782f676f312e342e32",
  "transactions": [
    {
      "hash": "0x1c56ae95c679f7a7bb43399bfe790d4dd4c61606c117f5a7cde17ceab0832728",
      "blockHash": "0xc454bbc2cefe983eb45b17729949987788825645fcc608f11c2b974d4e8a2ad3",
      "blockNumber": 71424,
      "transactionIndex": 0,
      "confirmations": null,
      "from": "0x17580B766f7453525ca4C6A88b01b50570EA088C",
      "gasPrice": {
        "_hex": "0xd506ddad7"
      },
      "gasLimit": {
        "_hex": "0x61a80"
      },
      "to": "0x5Fe5B7546D1628f7348B023A0393de1FC825A4fD",
      "value": {
        "_hex": "0x1bc16d674ec80000"
      },
      "nonce": 183,
      "data": "0xb595b8b50000000000000000000000000000000000000000000000000000000000000000",
      "r": "0x7815e72f8a98e7f0ba886623fc67364c976c609adbb75a2e05bc740e36593756",
      "s": "0x759e3f05ea215ff5bfdb6f73c066e8071d019445dc4de4c80ff4faf66e859a08",
      "v": 28,
      "creates": null,
      "raw": "0xf89281b7850d506ddad783061a80945fe5b7546d1628f7348b023a0393de1fc825a4fd881bc16d674ec80000a4b595b8b500000000000000000000000000000000000000000000000000000000000000001ca07815e72f8a98e7f0ba886623fc67364c976c609adbb75a2e05bc740e36593756a0759e3f05ea215ff5bfdb6f73c066e8071d019445dc4de4c80ff4faf66e859a08",
      "networkId": 0,
      "chainId": 0
    }
  ]
}