{
  "hash": "0xfa12e712eaf759522e9c91e4c69e7a5d2267e3504e1b8d3dd86b55d085e93f67",
  "parentHash": "0x6b13dd90d15a59146ceb51134abc7a69ddb1db402f9d749f50edd1b6a14cca16",
  "number": 112030,
  "timestamp": 1440000804,
  "nonce": "0x14e12f5f8a64f836",
  "difficulty": 4372621708282,
  "gasLimit": {
    "_hex": "0x2fefd8"
  },
  "gasUsed": {
    "_hex": "0xf618"
  },
  "miner": "0xe6A7a1d47ff21B6321162AEA7C6CB457D5476Bca",
  "extraData": "0x476574682f76312e302e312d38326566323666362f6c696e75782f676f312e34",
  "transactions": [
    {
      "hash": "0x1af5a172c2f6c16550d80326ba3f72ef391ae164286fb58a718954e75994b7ba",
      "blockHash": "0xfa12e712eaf759522e9c91e4c69e7a5d2267e3504e1b8d3dd86b55d085e93f67",
      "blockNumber": 112030,
      "transactionIndex": 0,
      "confirmations": null,
      "from": "0x9D49F602b0fdb924Bd63DDE2Bd0907E4A07c63a7",
      "gasPrice": {
        "_hex": "0xd4c427970"
      },
      "gasLimit": {
        "_hex": "0x15f90"
      },
      "to": "0xC6c676946C54B5e7c31A07a079166C488Bf06dd7",
      "value": {
        "_hex": "0xa2325753b460c0000"
      },
      "nonce": 6,
      "data": "0x",
      "r": "0x0a2e75c50666943245b9931aa591903da6e8dea368f49b24fab5e901d57b6dff",
      "s": "0x3a67692e242bf187b78e4d72a065ca61aca0d3b95ada84b08fbb62cc90117ee4",
      "v": 28,
      "creates": null,
      "raw": "0xf86e06850d4c42797083015f9094c6c676946c54b5e7c31a07a079166c488bf06dd7890a2325753b460c0000801ca00a2e75c50666943245b9931aa591903da6e8dea368f49b24fab5e901d57b6dffa03a67692e242bf187b78e4d72a065ca61aca0d3b95ada84b08fbb62cc90117ee4",
      "networkId": 0,
      "chainId": 0
    },
    {
      "hash": "0xe72b8ab773648085c5047cd218593ec1012875ac932c8098480a04561da0f3b6",
      "blockHash": "0xfa12e712eaf759522e9c91e4c69e7a5d2267e3504e1b8d3dd86b55d085e93f67",
      "blockNumber": 112030,
      "transactionIndex": 1,
      "confirmations": null,
      "from": "0x8F79f76381Aad7B98C19aF55eE75fdfEeb012211",
      "gasPrice": {
        "_hex": "0xd1308ccbb"
      },
      "gasLimit": {
        "_hex": "0x5208"
      },
      "to": "0x32Be343B94f860124dC4fEe278FDCBD38C102D88",
      "value": {
        "_hex": "0x649ce98e6f80dc000"
      },
      "nonce": 50,
      "data": "0x",
      "r": "0xe95bc18cf81ee2ec83c67ee1c3223832b50a604df4f76827e605200233e4f91f",
      "s": "0x33f2a189aa6aefac7070766a03bd11a5ae50642c143b0d1b7dc882e78fff2ccf",
      "v": 27,
      "creates": null,
      "raw": "0xf86d32850d1308ccbb8252089432be343b94f860124dc4fee278fdcbd38c102d88890649ce98e6f80dc000801ba0e95bc18cf81ee2ec83c67ee1c3223832b50a604df4f76827e605200233e4f91fa033f2a189aa6aefac7070766a03bd11a5ae50642c143b0d1b7dc882e78fff2ccf",
      "networkId": 0,
      "chainId": 0
    },
    {
      "hash": "0xfa6780b26a63896340ee30ce0d941c963471c5600d76d0050161efbe26348928",
      "blockHash": "0xfa12e712eaf759522e9c91e4c69e7a5d2267e3504e1b8d3dd86b55d085e93f67",
      "blockNumber": 112030,
      "transactionIndex": 2,
      "confirmations": null,
      "from": "0xC89CD9e30AB1C57c9B7FdF8E51B59a86048d08Fa",
      "gasPrice": {
        "_hex": "0xd1308ccbb"
      },
      "gasLimit": {
        "_hex": "0x5208"
      },
      "to": "0x32Be343B94f860124dC4fEe278FDCBD38C102D88",
      "value": {
        "_hex": "0xdd8f8b4215b5400"
      },
      "nonce": 1,
      "data": "0x",
      "r": "0x092c7c5546f3ecabe8cb5acc88ab9aa85dce11df03cdbad24ea465cc898fd469",
      "s": "0x473b9b022e826ec2fe877357dfd0cb80e385659f6c39ef103d1a7bd86777660a",
      "v": 28,
      "creates": null,
      "raw": "0xf86c01850d1308ccbb8252089432be343b94f860124dc4fee278fdcbd38c102d88880dd8f8b4215b5400801ca0092c7c5546f3ecabe8cb5acc88ab9aa85dce11df03cdbad24ea465cc898fd469a0473b9b022e826ec2fe877357dfd0cb80e385659f6c39ef103d1a7bd86777660a",
      "networkId": 0,
      "chainId": 0
    }
  ]
}