{
  "hash": "0x640ff5ff56ebd9bfa1effbf54ca187b47f77005e25f86c4cab5e4507252df713",
  "parentHash": "0x36063d541f2d288424031e8e4dbb96f3d8db7ad5ec6dc8d017ffc72b6cda8883",
  "number": 99892,
  "timestamp": 1439797206,
  "nonce": "0xedc0574546b833f0",
  "difficulty": 3856872376717,
  "gasLimit": {
    "_hex": "0x2fefd8"
  },
  "gasUsed": {
    "_hex": "0x5208"
  },
  "miner": "0xF11940EA05aA9CC3F13aCF5C5cA6EDCF312E3Aec",
  "extraData": "0x476574682f76312e302e312f77696e646f77732f676f312e342e32",
  "transactions": [
    {
      "hash": "0x95b5aa30f70ff74e7d427c6d42a5a323a11163dde3b38fdc8aad83062f9d77ba",
      "blockHash": "0x640ff5ff56ebd9bfa1effbf54ca187b47f77005e25f86c4cab5e4507252df713",
      "blockNumber": 99892,
      "transactionIndex": 0,
      "confirmations": null,
      "from": "0x770d98d31b4353FceEE8560c4CCf803e88C0c4e0",
      "gasPrice": {
        "_hex": "0xd2211579a"
      },
      "gasLimit": {
        "_hex": "0x5208"
      },
      "to": "0xaEaD75D7f72d1A4d36a40DF2CD95942f26A28F5e",
      "value": {
        "_hex": "0x10a30c51c3ddef30"
      },
      "nonce": 25,
      "data": "0x",
      "r": "0x51cc0034a647f3cfb77f85c39ec81ae0e15eb72a34c6f064a754a6b3447a9fd5",
      "s": "0x4fe9d09d0085c12227de4b9822faca2271c7e1a590caa91c5962e3888ba073a4",
      "v": 28,
      "creates": null,
      "raw": "0xf86c19850d2211579a82520894aead75d7f72d1a4d36a40df2cd95942f26a28f5e8810a30c51c3ddef30801ca051cc0034a647f3cfb77f85c39ec81ae0e15eb72a34c6f064a754a6b3447a9fd5a04fe9d09d0085c12227de4b9822faca2271c7e1a590caa91c5962e3888ba073a4",
      "networkId": 0,
      "chainId": 0
    }
  ]
}