{
  "hash": "0x446980ee5bf3dd2c459b68e8884624351ae3fb8dcc306ad560b5e356eca5aed9",
  "parentHash": "0xc02bee6d71567057b5ea596e5bde29e0845b6c20cdb3c6b48f72457ad3bde820",
  "number": 110744,
  "timestamp": 1439978711,
  "nonce": "0x357a3def72acd625",
  "difficulty": 4398992076204,
  "gasLimit": {
    "_hex": "0x2fefd8"
  },
  "gasUsed": {
    "_hex": "0x1ec30"
  },
  "miner": "0xe6A7a1d47ff21B6321162AEA7C6CB457D5476Bca",
  "extraData": "0x476574682f76312e302e312d38326566323666362f6c696e75782f676f312e34",
  "transactions": [
    {
      "hash": "0xc10992f5176c7e228038a69abcd2cb84b6d3b4396b797734d7dfcd95ce6a2b0b",
      "blockHash": "0x446980ee5bf3dd2c459b68e8884624351ae3fb8dcc306ad560b5e356eca5aed9",
      "blockNumber": 110744,
      "transactionIndex": 0,
      "confirmations": null,
      "from": "0x2C3d5c472E35947eb8Bf098e5207b0e1f3D1Ef91",
      "gasPrice": {
        "_hex": "0xba43b7400"
      },
      "gasLimit": {
        "_hex": "0x5208"
      },
      "to": "0xC47Aaa860008be6f65B58c6C6E02a84e666EfE31",
      "value": {
        "_hex": "0xb184d635624570a0"
      },
      "nonce": 7,
      "data": "0x",
      "r": "0x0f35549a6a6742d99ba8e4f17d1d0d677635408c67d1200099abb105791a7a9a",
      "s": "0x3226f808b7600ca545f0631bcfcf1cd892346a7d3e897cc36e153a5278a4fdd5",
      "v": 27,
      "creates": null,
      "raw": "0xf86c07850ba43b740082520894c47aaa860008be6f65b58c6c6e02a84e666efe3188b184d635624570a0801ba00f35549a6a6742d99ba8e4f17d1d0d677635408c67d1200099abb105791a7a9aa03226f808b7600ca545f0631bcfcf1cd892346a7d3e897cc36e153a5278a4fdd5",
      "networkId": 0,
      "chainId": 0
    },
    {
      "hash": "0x397ea22ab05e269b6022e46789370be37ae6e2b90f7e3a28f568219208992c0f",
      "blockHash": "0x446980ee5bf3dd2c459b68e8884624351ae3fb8dcc306ad560b5e356eca5aed9",
      "blockNumber": 110744,
      "transactionIndex": 1,
      "confirmations": null,
      "from": "0x1332996a46dcBBE02f9cF164Dfc153aB976a9766",
      "gasPrice": {
        "_hex": "0xba43b7400"
      },
      "gasLimit": {
        "_hex": "0x5208"
      },
      "to": "0xC47Aaa860008be6f65B58c6C6E02a84e666EfE31",
      "value": {
        "_hex": "0x1beb145d594f35090"
      },
      "nonce": 12,
      "data": "0x",
      "r": "0xdc9f3825c7dbb0f16fd65d18ace588b793a09d4e54e3ed5f1eb3f935fd59cdda",
      "s": "0x16749fe5d6da0871e1c1b6efdc74b319b8bc8dd470e13df519d252668bf912f5",
      "v": 28,
      "creates": null,
      "raw": "0xf86d0c850ba43b740082520894c47aaa860008be6f65b58c6c6e02a84e666efe318901beb145d594f35090801ca0dc9f3825c7dbb0f16fd65d18ace588b793a09d4e54e3ed5f1eb3f935fd59cddaa016749fe5d6da0871e1c1b6efdc74b319b8bc8dd470e13df519d252668bf912f5",
      "networkId": 0,
      "chainId": 0
    },
    {
      "hash": "0x6ea7b9bd2ffe3341f89939b0882ec799d78ab206d3ef8a902b0da15a058a5d0a",
      "blockHash": "0x446980ee5bf3dd2c459b68e8884624351ae3fb8dcc306ad560b5e356eca5aed9",
      "blockNumber": 110744,
      "transactionIndex": 2,
      "confirmations": null,
      "from": "0xC96Bd2Aa7AcB234ecA4E38E33bF2C080e7680FA5",
      "gasPrice": {
        "_hex": "0xba43b7400"
      },
      "gasLimit": {
        "_hex": "0x5208"
      },
      "to": "0xC47Aaa860008be6f65B58c6C6E02a84e666EfE31",
      "value": {
        "_hex": "0x12995dab422939330"
      },
      "nonce": 5,
      "data": "0x",
      "r": "0xf2572c88f98b89a59cf08fb498d320c708119a1421ce068cd18b0dde3bb887f2",
      "s": "0x4253106d3dd100d7f30385b4dbc708ab64d0b13937bba71a4e20491c44f766d2",
      "v": 28,
      "creates": null,
      "raw": "0xf86d05850ba43b740082520894c47aaa860008be6f65b58c6c6e02a84e666efe3189012995dab422939330801ca0f2572c88f98b89a59cf08fb498d320c708119a1421ce068cd18b0dde3bb887f2a04253106d3dd100d7f30385b4dbc708ab64d0b13937bba71a4e20491c44f766d2",
      "networkId": 0,
      "chainId": 0
    },
    {
      "hash": "0x2e95991a02d6ad96c799474d5ff42bf02b2955809ae50e44986d8caef992285d",
      "blockHash": "0x446980ee5bf3dd2c459b68e8884624351ae3fb8dcc306ad560b5e356eca5aed9",
      "blockNumber": 110744,
      "transactionIndex": 3,
      "confirmations": null,
      "from": "0xc9f1625E65Cda7A2aE5ea1EdF0107872A1baAC99",
      "gasPrice": {
        "_hex": "0xba43b7400"
      },
      "gasLimit": {
        "_hex": "0x5208"
      },
      "to": "0xC47Aaa860008be6f65B58c6C6E02a84e666EfE31",
      "value": {
        "_hex": "0xf0122a4529202920"
      },
      "nonce": 1,
      "data": "0x",
      "r": "0xeab0e51a85f1c6b077e62032d7ec67f0df15caa3249907b3f350eae00edcac37",
      "s": "0x04ace601b8334d7dd823969ffbd420c6bca347381facfa67a8d3b28cb5a46b65",
      "v": 27,
      "creates": null,
      "raw": "0xf86c01850ba43b740082520894c47aaa860008be6f65b58c6c6e02a84e666efe3188f0122a4529202920801ba0eab0e51a85f1c6b077e62032d7ec67f0df15caa3249907b3f350eae00edcac37a004ace601b8334d7dd823969ffbd420c6bca347381facfa67a8d3b28cb5a46b65",
      "networkId": 0,
      "chainId": 0
    },
    {
      "hash": "0xd714443bfb92d067314b1186be8b1aaa3c987b2ae6276c6805f8a614a9700fda",
      "blockHash": "0x446980ee5bf3dd2c459b68e8884624351ae3fb8dcc306ad560b5e356eca5aed9",
      "blockNumber": 110744,
      "transactionIndex": 4,
      "confirmations": null,
      "from": "0xcF9DD62019778E76a6B393f0ac4590f03A7429F7",
      "gasPrice": {
        "_hex": "0xba43b7400"
      },
      "gasLimit": {
        "_hex": "0x5208"
      },
      "to": "0xC47Aaa860008be6f65B58c6C6E02a84e666EfE31",
      "value": {
        "_hex": "0xa49e66a629eac080"
      },
      "nonce": 6,
      "data": "0x",
      "r": "0xcf17525618a76cac3fddb8f1eb89227e5405d0a2d45b55a6f4246427c7bbb448",
      "s": "0x6d3e8c6f9d520c99629b2f103a58729b7a6387df9a5dec16e98128fbfcb449df",
      "v": 28,
      "creates": null,
      "raw": "0xf86c06850ba43b740082520894c47aaa860008be6f65b58c6c6e02a84e666efe3188a49e66a629eac080801ca0cf17525618a76cac3fddb8f1eb89227e5405d0a2d45b55a6f4246427c7bbb448a06d3e8c6f9d520c99629b2f103a58729b7a6387df9a5dec16e98128fbfcb449df",
      "networkId": 0,
      "chainId": 0
    },
    {
      "hash": "0x73cab721890fe3c573e8eecd3563b3249a98aa467e47cc51724f324c7ef18286",
      "blockHash": "0x446980ee5bf3dd2c459b68e8884624351ae3fb8dcc306ad560b5e356eca5aed9",
      "blockNumber": 110744,
      "transactionIndex": 5,
      "confirmations": null,
      "from": "0x4C9560759adF54ABEdd7318d1413C4fA49240074",
      "gasPrice": {
        "_hex": "0xba43b7400"
      },
      "gasLimit": {
        "_hex": "0x5208"
      },
      "to": "0xC47Aaa860008be6f65B58c6C6E02a84e666EfE31",
      "value": {
        "_hex": "0x3ab26a3135b54150"
      },
      "nonce": 6,
      "data": "0x",
      "r": "0xcb8da002e55f4f16950855687f08b769f1cc626f503c724ffeae3ee58c479462",
      "s": "0x72ece110d3f30774f265c0126e8edc06cafe82fe7fcea84dad5a0387cf207cf6",
      "v": 28,
      "creates": null,
      "raw": "0xf86c06850ba43b740082520894c47aaa860008be6f65b58c6c6e02a84e666efe31883ab26a3135b54150801ca0cb8da002e55f4f16950855687f08b769f1cc626f503c724ffeae3ee58c479462a072ece110d3f30774f265c0126e8edc06cafe82fe7fcea84dad5a0387cf207cf6",
      "networkId": 0,
      "chainId": 0
    }
  ]
}