{
  "hash": "0x11db20972e3984107057e1d26c3f9fc42142e1c03b9545e113d978779e10a1ab",
  "parentHash": "0x103527a0b2963cf2649c400157887ebbed21ff16a87178bd7ccf3ff07c5bb8b3",
  "number": 48669,
  "timestamp": 1438960717,
  "nonce": "0x3ad695ca7b7ed621",
  "difficulty": 1475028948048,
  "gasLimit": {
    "_hex": "0x1ba35"
  },
  "gasUsed": {
    "_hex": "0x5208"
  },
  "miner": "0xa50ec0D39fa913E62f1Bae7074E6F36caA71855b",
  "extraData": "0x476574682f76312e302e302f6c696e75782f676f312e342e32",
  "transactions": [
    {
      "hash": "0xcc596b9bc1c2d15893609017a9938b63d58b6a715b706779f101232c64f5b765",
      "blockHash": "0x11db20972e3984107057e1d26c3f9fc42142e1c03b9545e113d978779e10a1ab",
      "blockNumber": 48669,
      "transactionIndex": 0,
      "confirmations": null,
      "from": "0xe6A7a1d47ff21B6321162AEA7C6CB457D5476Bca",
      "gasPrice": {
        "_hex": "0xddb126f3c"
      },
      "gasLimit": {
        "_hex": "0x55f0"
      },
      "to": "0x8951882480F6339174060A16E665B42059f33e69",
      "value": {
        "_hex": "0x9db08f0338063858"
      },
      "nonce": 246,
      "data": "0x",
      "r": "0x28c5d082769403fd76743f69b7a8c24dd1b4a9135f5a885db9993b95bbc99a78",
      "s": "0x02484d9ba5c2ee2fe32f91c24028a6988c8b01d4bbeb035d1311a61e2a1917cd",
      "v": 28,
      "creates": null,
      "raw": "0xf86d81f6850ddb126f3c8255f0948951882480f6339174060a16e665b42059f33e69889db08f0338063858801ca028c5d082769403fd76743f69b7a8c24dd1b4a9135f5a885db9993b95bbc99a78a002484d9ba5c2ee2fe32f91c24028a6988c8b01d4bbeb035d1311a61e2a1917cd",
      "networkId": 0,
      "chainId": 0
    }
  ]
}