{
  "hash": "0xf1957ecaae859063a4b6a963ff610e1bf7a86458e493d6a24256e50a5db9029e",
  "parentHash": "0xf68e54ddf4623bc918a4a79e3bf6818280b3bebb7efab834a3df2e5e13a77252",
  "number": 64910,
  "timestamp": 1439228249,
  "nonce": "0x508f233c1936785b",
  "difficulty": 1909794154782,
  "gasLimit": {
    "_hex": "0x2fefd8"
  },
  "gasUsed": {
    "_hex": "0x5208"
  },
  "miner": "0x01d9DA08cc6Fb97c0DE1B6F4C28910A0859Ed1A1",
  "extraData": "0x476574682f76312e302e312f6c696e75782f676f312e342e32",
  "transactions": [
    {
      "hash": "0x489025c7754f7c62a64b71c570609d72e20fb18309a99f51bfe1f7526f321fd3",
      "blockHash": "0xf1957ecaae859063a4b6a963ff610e1bf7a86458e493d6a24256e50a5db9029e",
      "blockNumber": 64910,
      "transactionIndex": 0,
      "confirmations": null,
      "from": "0xbc621DDF9A10647952ff750e97e336fA2f83DbEB",
      "gasPrice": {
        "_hex": "0xba43b7400"
      },
      "gasLimit": {
        "_hex": "0x5208"
      },
      "to": "0x0611FFa21e8683c4b270edE033C76f153aA33fCb",
      "value": {
        "_hex": "0x653580cf6eb000"
      },
      "nonce": 1,
      "data": "0x",
      "r": "0xbcd2823700cc0819590632d8a3bc9dd49922d5d59a02db7c311bd86382e8eaab",
      "s": "0x0d7948c25d23a8140ca878ffc2408893a5d24c339791fca423220f65a5fdfc9a",
      "v": 27,
      "creates": null,
      "raw": "0xf86b01850ba43b7400825208940611ffa21e8683c4b270ede033c76f153aa33fcb87653580cf6eb000801ba0bcd2823700cc0819590632d8a3bc9dd49922d5d59a02db7c311bd86382e8eaaba00d7948c25d23a8140ca878ffc2408893a5d24c339791fca423220f65a5fdfc9a",
      "networkId": 0,
      "chainId": 0
    }
  ]
}