{
  "hash": "0xa5f1129e9284b1f09fd557b85e9fb7d8f82bf856dcf8b2827440e869c47506fb",
  "parentHash": "0xb214e441922a8679a6bd9dd0bae6a98a3e1619a58f585267bba2ced26107eff7",
  "number": 76232,
  "timestamp": 1439416995,
  "nonce": "0x51a546e501e24bae",
  "difficulty": 2238491135792,
  "gasLimit": {
    "_hex": "0x2fefd8"
  },
  "gasUsed": {
    "_hex": "0xa410"
  },
  "miner": "0xeB1325C8D9d3ea8D74aC11F4B00F1B2367686319",
  "extraData": "0x476574682f76312e302e312f77696e646f77732f676f312e342e32",
  "transactions": [
    {
      "hash": "0xc310243b6f43e7c114357dbf5d039433da122f46a040c7aaa052410212da7396",
      "blockHash": "0xa5f1129e9284b1f09fd557b85e9fb7d8f82bf856dcf8b2827440e869c47506fb",
      "blockNumber": 76232,
      "transactionIndex": 0,
      "confirmations": null,
      "from": "0x2910543Af39abA0Cd09dBb2D50200b3E800A63D2",
      "gasPrice": {
        "_hex": "0xd5a1c8549"
      },
      "gasLimit": {
        "_hex": "0x5208"
      },
      "to": "0xB9819F8673cB4F167F1b6597d630B42E6ECd9EC5",
      "value": {
        "_hex": "0x448469df76ffb8000"
      },
      "nonce": 320,
      "data": "0x",
      "r": "0x891865c05d16d9247a270e3f78cf9674bcd18601208ea970898f4e43663c3194",
      "s": "0x04d2097c67065988b07f76f8dbc754a69bb3da6b3255435ccd38edc325917f22",
      "v": 27,
      "creates": null,
      "raw": "0xf86f820140850d5a1c854982520894b9819f8673cb4f167f1b6597d630b42e6ecd9ec5890448469df76ffb8000801ba0891865c05d16d9247a270e3f78cf9674bcd18601208ea970898f4e43663c3194a004d2097c67065988b07f76f8dbc754a69bb3da6b3255435ccd38edc325917f22",
      "networkId": 0,
      "chainId": 0
    },
    {
      "hash": "0x66421aea3292462bf13852256591c6d89bf225a6fce1f6fa98f3c9f21d7117d9",
      "blockHash": "0xa5f1129e9284b1f09fd557b85e9fb7d8f82bf856dcf8b2827440e869c47506fb",
      "blockNumber": 76232,
      "transactionIndex": 1,
      "confirmations": null,
      "from": "0x2910543Af39abA0Cd09dBb2D50200b3E800A63D2",
      "gasPrice": {
        "_hex": "0xd5a1c8549"
      },
      "gasLimit": {
        "_hex": "0x5208"
      },
      "to": "0x08B27b7407ab554c610aD305dc67a686A3D6B3F7",
      "value": {
        "_hex": "0x3771175565af8000"
      },
      "nonce": 321,
      "data": "0x",
      "r": "0xceb581deb10af29c0b2679010132b485e6e51424bd50d6ea21fb4c09e3334021",
      "s": "0x7fe3f735fa76fab4c2dfdc3d3b0376d25238303eef5a85b4f57453e742c67738",
      "v": 28,
      "creates": null,
      "raw": "0xf86e820141850d5a1c85498252089408b27b7407ab554c610ad305dc67a686a3d6b3f7883771175565af8000801ca0ceb581deb10af29c0b2679010132b485e6e51424bd50d6ea21fb4c09e3334021a07fe3f735fa76fab4c2dfdc3d3b0376d25238303eef5a85b4f57453e742c67738",
      "networkId": 0,
      "chainId": 0
    }
  ]
}