{
  "hash": "0x929c10e88b14e86a3093e1193aca2cf24618f9b508b667d4e14481e7d9537eef",
  "parentHash": "0x657a6789b00d5e39166c920a221da940fb3b4eacd64732d24b8ad7ed8997d68a",
  "number": 111182,
  "timestamp": 1439986097,
  "nonce": "0x1d9a5a9b14a990a6",
  "difficulty": 4407362123580,
  "gasLimit": {
    "_hex": "0x2fefd8"
  },
  "gasUsed": {
    "_hex": "0xa410"
  },
  "miner": "0xe6A7a1d47ff21B6321162AEA7C6CB457D5476Bca",
  "extraData": "0x476574682f76312e302e312d38326566323666362f6c696e75782f676f312e34",
  "transactions": [
    {
      "hash": "0x63ee81a6984ed2c443fbc9560295fef5e4b529304b8d36feafbfd179c7bc771b",
      "blockHash": "0x929c10e88b14e86a3093e1193aca2cf24618f9b508b667d4e14481e7d9537eef",
      "blockNumber": 111182,
      "transactionIndex": 0,
      "confirmations": null,
      "from": "0x007f7f58D3eb5b7510A301eCC749FC1fCDDBE14D",
      "gasPrice": {
        "_hex": "0xd382b0b9c"
      },
      "gasLimit": {
        "_hex": "0x15f90"
      },
      "to": "0xb1abce2918E21ddb93AA452731a12672A3d9F75a",
      "value": {
        "_hex": "0x4563918244f40000"
      },
      "nonce": 305,
      "data": "0x",
      "r": "0x4be4e94a4e8dfb4ddf228de418f08c7014e2749d4c98a90a5626eb73fbaf8ecf",
      "s": "0x7a16c45785526b63580beb7110d50a07c660e12d6a08b425b6990028906e79ec",
      "v": 27,
      "creates": null,
      "raw": "0xf86f820131850d382b0b9c83015f9094b1abce2918e21ddb93aa452731a12672a3d9f75a884563918244f40000801ba04be4e94a4e8dfb4ddf228de418f08c7014e2749d4c98a90a5626eb73fbaf8ecfa07a16c45785526b63580beb7110d50a07c660e12d6a08b425b6990028906e79ec",
      "networkId": 0,
      "chainId": 0
    },
    {
      "hash": "0x339f9feb027a6bfe44d9c68ffdfe87d93fbad3b0234fc5fb8ef4b82952b3c385",
      "blockHash": "0x929c10e88b14e86a3093e1193aca2cf24618f9b508b667d4e14481e7d9537eef",
      "blockNumber": 111182,
      "transactionIndex": 1,
      "confirmations": null,
      "from": "0x025D5A0EEc59FCF2BaD417177608A0bE24C73C80",
      "gasPrice": {
        "_hex": "0xba43b7400"
      },
      "gasLimit": {
        "_hex": "0x15f90"
      },
      "to": "0xb1A2a1e9b8AC33fdcB2118b73A875b096AEd24aD",
      "value": {
        "_hex": "0x476b271be75aa000"
      },
      "nonce": 0,
      "data": "0x",
      "r": "0xe21a9233896937c1ba3c94e80847d9b603431978c1550b097dbe7bc6dd8bb4d0",
      "s": "0x0b1bc70220a59357786ee01fbde34273627a067eb71f359dea9d38a4a4762d64",
      "v": 28,
      "creates": null,
      "raw": "0xf86d80850ba43b740083015f9094b1a2a1e9b8ac33fdcb2118b73a875b096aed24ad88476b271be75aa000801ca0e21a9233896937c1ba3c94e80847d9b603431978c1550b097dbe7bc6dd8bb4d0a00b1bc70220a59357786ee01fbde34273627a067eb71f359dea9d38a4a4762d64",
      "networkId": 0,
      "chainId": 0
    }
  ]
}