{
  "hash": "0xbeb03aa8d87c9eaba97a1438e85cf97c71adff0c9c040ddcab059e5d24ec30f4",
  "parentHash": "0xd7a41155721951f5991b11bb715b9c2709b0ca3df544ed1e3a8f68998b428794",
  "number": 49005,
  "timestamp": 1438966191,
  "nonce": "0x20b1a267b0087228",
  "difficulty": 1489444433240,
  "gasLimit": {
    "_hex": "0x23229"
  },
  "gasUsed": {
    "_hex": "0x546c"
  },
  "miner": "0x684a7b7c096606d1dE0bDDBB85d6E289B882dCEA",
  "extraData": "0xda8098302e392e33392b2b302d524c696e75782f672b2b2f696e74",
  "transactions": [
    {
      "hash": "0xfd8549b52d44d4755fcc6986e3ce068f715cd7cd71278e59b47b4d577b6b66a3",
      "blockHash": "0xbeb03aa8d87c9eaba97a1438e85cf97c71adff0c9c040ddcab059e5d24ec30f4",
      "blockNumber": 49005,
      "transactionIndex": 0,
      "confirmations": null,
      "from": "0x25721C87b0DC21377c7200E524b14a22F0AF69fB",
      "gasPrice": {
        "_hex": "0x110c8f7d8de"
      },
      "gasLimit": {
        "_hex": "0xc350"
      },
      "to": "0x2910543Af39abA0Cd09dBb2D50200b3E800A63D2",
      "value": {
        "_hex": "0xd8c9460063d31c0000"
      },
      "nonce": 0,
      "data": "0x454e39335058553938",
      "r": "0xc9cd3f8356572b16afd925aa8127edeef95408139a47a8557db80f8d4f35cb92",
      "s": "0xa30f3459374e64be5da4eb20e29b77ac89fb5c400ed9234a436f92310a3fd9d5",
      "v": 28,
      "creates": null,
      "raw": "0xf87780860110c8f7d8de82c350942910543af39aba0cd09dbb2d50200b3e800a63d289d8c9460063d31c000089454e393350585539381ca0c9cd3f8356572b16afd925aa8127edeef95408139a47a8557db80f8d4f35cb92a0a30f3459374e64be5da4eb20e29b77ac89fb5c400ed9234a436f92310a3fd9d5",
      "networkId": 0,
      "chainId": 0
    }
  ]
}