{
  "hash": "0x3915f3fcb4a457808876dc9176d5ab48f2e342677770da902c5a9661d1f0f21d",
  "parentHash": "0xd21324706d0cb762c5699dcfe528c61714b75954c7bc7001a41f8394a285b771",
  "number": 101822,
  "timestamp": 1439828641,
  "nonce": "0x1e2301cd6697a690",
  "difficulty": 3882434689039,
  "gasLimit": {
    "_hex": "0x2fefd8"
  },
  "gasUsed": {
    "_hex": "0xa410"
  },
  "miner": "0xe6A7a1d47ff21B6321162AEA7C6CB457D5476Bca",
  "extraData": "0x476574682f76312e302e312d38326566323666362f6c696e75782f676f312e34",
  "transactions": [
    {
      "hash": "0x6545d5eb1868f4afa9a8809e983845c521f8ba5df97f1765a9b03bc029b56223",
      "blockHash": "0x3915f3fcb4a457808876dc9176d5ab48f2e342677770da902c5a9661d1f0f21d",
      "blockNumber": 101822,
      "transactionIndex": 0,
      "confirmations": null,
      "from": "0x007f7f58D3eb5b7510A301eCC749FC1fCDDBE14D",
      "gasPrice": {
        "_hex": "0xe0cfe7246"
      },
      "gasLimit": {
        "_hex": "0x15f90"
      },
      "to": "0xb1abce2918E21ddb93AA452731a12672A3d9F75a",
      "value": {
        "_hex": "0x4563918244f40000"
      },
      "nonce": 195,
      "data": "0x",
      "r": "0xea9d5e8229d23821b88ea53b5b96c619da855aadba12750ef81779f9b228cdd6",
      "s": "0x0f2264e226090d4b64d79218654bb84668ac1bc580d014b0bd7bb32ba36ad078",
      "v": 28,
      "creates": null,
      "raw": "0xf86e81c3850e0cfe724683015f9094b1abce2918e21ddb93aa452731a12672a3d9f75a884563918244f40000801ca0ea9d5e8229d23821b88ea53b5b96c619da855aadba12750ef81779f9b228cdd6a00f2264e226090d4b64d79218654bb84668ac1bc580d014b0bd7bb32ba36ad078",
      "networkId": 0,
      "chainId": 0
    },
    {
      "hash": "0x775034eeff4222f34178ad00a7cb5f1b5cd23a29620d26a5600c12f00b64cd31",
      "blockHash": "0x3915f3fcb4a457808876dc9176d5ab48f2e342677770da902c5a9661d1f0f21d",
      "blockNumber": 101822,
      "transactionIndex": 1,
      "confirmations": null,
      "from": "0xb1abce2918E21ddb93AA452731a12672A3d9F75a",
      "gasPrice": {
        "_hex": "0xcf1e527c2"
      },
      "gasLimit": {
        "_hex": "0x5208"
      },
      "to": "0x32Be343B94f860124dC4fEe278FDCBD38C102D88",
      "value": {
        "_hex": "0x1158a2027a8ce1000"
      },
      "nonce": 94,
      "data": "0x",
      "r": "0x10c8e2c821345199b0255a6bad8db3dccf6b7e5af8483aaa4bcc98f6b0e34e62",
      "s": "0x37bed321edbf86b45282ec33e88ff305355419183f6b38f702e63fa9f6313830",
      "v": 28,
      "creates": null,
      "raw": "0xf86d5e850cf1e527c28252089432be343b94f860124dc4fee278fdcbd38c102d888901158a2027a8ce1000801ca010c8e2c821345199b0255a6bad8db3dccf6b7e5af8483aaa4bcc98f6b0e34e62a037bed321edbf86b45282ec33e88ff305355419183f6b38f702e63fa9f6313830",
      "networkId": 0,
      "chainId": 0
    }
  ]
}