{
  "hash": "0x8379e9c0fb6bb5a02b282bc19a05447355e4d4ed447416ebfc71c8e987e03e07",
  "parentHash": "0xe7e5f9b73ef34069502cdbbc3546608a7db0d048a815f764a7b6d6d89c4d036f",
  "number": 59649,
  "timestamp": 1439141475,
  "nonce": "0x7ed0c3ece71686c4",
  "difficulty": 1712166168610,
  "gasLimit": {
    "_hex": "0x2fefd8"
  },
  "gasUsed": {
    "_hex": "0x5208"
  },
  "miner": "0x39A1BB80a741bF5EC39FB9BE59408Fa0F418fFBf",
  "extraData": "0x476574682f76312e302e312f77696e646f77732f676f312e342e32",
  "transactions": [
    {
      "hash": "0x4e97820bf3ddb40edc538352abf9141990224dc4bbc8dd1c4312c89c49aca2df",
      "blockHash": "0x8379e9c0fb6bb5a02b282bc19a05447355e4d4ed447416ebfc71c8e987e03e07",
      "blockNumber": 59649,
      "transactionIndex": 0,
      "confirmations": null,
      "from": "0x664B099B945b899AaC84DA69dd6D4eEb3D03c8a3",
      "gasPrice": {
        "_hex": "0x746a528800"
      },
      "gasLimit": {
        "_hex": "0x5267"
      },
      "to": "0x27e806e70622d2864e1B1f4426D72FFb0457C83a",
      "value": {
        "_hex": "0x4563918244f40000"
      },
      "nonce": 6,
      "data": "0x",
      "r": "0x9445d8c290501b4af2e0688f456310f7325ea7017a0acb6d880a7019dd1dc369",
      "s": "0x744700eaf2744983cb53904f269b29306d621390d5905d7ad069d25a853e4abe",
      "v": 27,
      "creates": null,
      "raw": "0xf86c0685746a5288008252679427e806e70622d2864e1b1f4426d72ffb0457c83a884563918244f40000801ba09445d8c290501b4af2e0688f456310f7325ea7017a0acb6d880a7019dd1dc369a0744700eaf2744983cb53904f269b29306d621390d5905d7ad069d25a853e4abe",
      "networkId": 0,
      "chainId": 0
    }
  ]
}