{
  "hash": "0x3a26baf5b4e088c1a77329b95fb875f3b644899cd13b53b33ec4df7080bb7076",
  "parentHash": "0x65545a8ca835e2a1b097cf4b853262d413f0d4b901011313572dc3025ec27fd2",
  "number": 96650,
  "timestamp": 1439743635,
  "nonce": "0xc7273e19f4ed4690",
  "difficulty": 3728713903774,
  "gasLimit": {
    "_hex": "0x2fefd8"
  },
  "gasUsed": {
    "_hex": "0x5208"
  },
  "miner": "0x8eB3747b8397C48BC29fd5Df6765AbCEfbDffFCA",
  "extraData": "0x476574682f76312e302e312f6c696e75782f676f312e342e32",
  "transactions": [
    {
      "hash": "0x2ea5a3bab428885eb46eebe26b2e353308d489cb448d60836507d9db453d1c04",
      "blockHash": "0x3a26baf5b4e088c1a77329b95fb875f3b644899cd13b53b33ec4df7080bb7076",
      "blockNumber": 96650,
      "transactionIndex": 0,
      "confirmations": null,
      "from": "0x007f7f58D3eb5b7510A301eCC749FC1fCDDBE14D",
      "gasPrice": {
        "_hex": "0xe308e1d1f"
      },
      "gasLimit": {
        "_hex": "0x15f90"
      },
      "to": "0xb1abce2918E21ddb93AA452731a12672A3d9F75a",
      "value": {
        "_hex": "0x4563918244f40000"
      },
      "nonce": 86,
      "data": "0x",
      "r": "0x2514eee26a86e594489fb6525ce46593eea5e52ff04fc88b9e9c4d28ce0cc045",
      "s": "0x42e88b642719bebca57a199cfad16f44aae52991555fdc1e5430582a0d6a7ac5",
      "v": 27,
      "creates": null,
      "raw": "0xf86d56850e308e1d1f83015f9094b1abce2918e21ddb93aa452731a12672a3d9f75a884563918244f40000801ba02514eee26a86e594489fb6525ce46593eea5e52ff04fc88b9e9c4d28ce0cc045a042e88b642719bebca57a199cfad16f44aae52991555fdc1e5430582a0d6a7ac5",
      "networkId": 0,
      "chainId": 0
    }
  ]
}