{
  "hash": "0x681e6d85eadefcd11c32d43db83bb7396f33d593c235ac62508c9daf61c23c5f",
  "parentHash": "0xd23774fb0762860a1b6cd5fe7fc5495cb0ab811406e39c0ac0778bd4de187414",
  "number": 47076,
  "timestamp": 1438933983,
  "nonce": "0x135520d5401ad52b",
  "difficulty": 1453145904921,
  "gasLimit": {
    "_hex": "0x94d5"
  },
  "gasUsed": {
    "_hex": "0x5208"
  },
  "miner": "0xa50ec0D39fa913E62f1Bae7074E6F36caA71855b",
  "extraData": "0x476574682f76312e302e302f6c696e75782f676f312e342e32",
  "transactions": [
    {
      "hash": "0x0c9f75a891787a08fc6d2a7b4f6fed4f049dfff906799214a91a804b0df5c146",
      "blockHash": "0x681e6d85eadefcd11c32d43db83bb7396f33d593c235ac62508c9daf61c23c5f",
      "blockNumber": 47076,
      "transactionIndex": 0,
      "confirmations": null,
      "from": "0x1406854D149E081aC09Cb4CA560Da463f3123059",
      "gasPrice": {
        "_hex": "0xd124593c7"
      },
      "gasLimit": {
        "_hex": "0x7530"
      },
      "to": "0xa0E74ae010D51894734c308D612131056bB721AD",
      "value": {
        "_hex": "0x4e1003b28d9280000"
      },
      "nonce": 1,
      "data": "0x",
      "r": "0x07f47a9d8e01b99046d9516ae928db7e5098b04fefa1db72b0ac977ca5acbd8b",
      "s": "0x1c3cd0eaf02307715d9575a99962f3ec8f3c9f72285dbe80aad74a360b9ee814",
      "v": 27,
      "creates": null,
      "raw": "0xf86d01850d124593c782753094a0e74ae010d51894734c308d612131056bb721ad8904e1003b28d9280000801ba007f47a9d8e01b99046d9516ae928db7e5098b04fefa1db72b0ac977ca5acbd8ba01c3cd0eaf02307715d9575a99962f3ec8f3c9f72285dbe80aad74a360b9ee814",
      "networkId": 0,
      "chainId": 0
    }
  ]
}