{
  "hash": "0xae5ca2ac15f98f98da9de7e81aac5c06a1a7b5c950df974e18fda92f8550a27b",
  "parentHash": "0xd453f15dc434769046e4848fc728ee30d2014578c88854950bfe3938520b221a",
  "number": 121148,
  "timestamp": 1440172274,
  "nonce": "0x46bf5ffcbc871f81",
  "difficulty": 4406430164914,
  "gasLimit": {
    "_hex": "0x2fefd8"
  },
  "gasUsed": {
    "_hex": "0xa410"
  },
  "miner": "0x52bc44d5378309EE2abF1539BF71dE1b7d7bE3b5",
  "extraData": "0xd783010002844765746887676f312e342e32856c696e7578",
  "transactions": [
    {
      "hash": "0x472a4bf7919ad9dd5f87b44d12070e9b255521a8cd71bf3b546288ec0dd4727c",
      "blockHash": "0xae5ca2ac15f98f98da9de7e81aac5c06a1a7b5c950df974e18fda92f8550a27b",
      "blockNumber": 121148,
      "transactionIndex": 0,
      "confirmations": null,
      "from": "0x141d08EDaDA2C1bA62A2940184Ba03d62d3fFF22",
      "gasPrice": {
        "_hex": "0xba43b7400"
      },
      "gasLimit": {
        "_hex": "0x5208"
      },
      "to": "0xC47Aaa860008be6f65B58c6C6E02a84e666EfE31",
      "value": {
        "_hex": "0x1f38432d2252bb8f0"
      },
      "nonce": 10,
      "data": "0x",
      "r": "0x053774a536ee33be08944fbd6ef383d385701affd46640d8408a082f26005c0b",
      "s": "0x653a45c565acd7170fb9e0052427d8acd320d84f5f1822a513c5060f0d9e30c2",
      "v": 27,
      "creates": null,
      "raw": "0xf86d0a850ba43b740082520894c47aaa860008be6f65b58c6c6e02a84e666efe318901f38432d2252bb8f0801ba0053774a536ee33be08944fbd6ef383d385701affd46640d8408a082f26005c0ba0653a45c565acd7170fb9e0052427d8acd320d84f5f1822a513c5060f0d9e30c2",
      "networkId": 0,
      "chainId": 0
    },
    {
      "hash": "0x08ecf8ee34bd721e28f28bda018e7e4ceaa5b5bcdf75401864643c48752e57d9",
      "blockHash": "0xae5ca2ac15f98f98da9de7e81aac5c06a1a7b5c950df974e18fda92f8550a27b",
      "blockNumber": 121148,
      "transactionIndex": 1,
      "confirmations": null,
      "from": "0x289B9bA6dC9c12D3130F1115180397C20cCBF220",
      "gasPrice": {
        "_hex": "0xba43b7400"
      },
      "gasLimit": {
        "_hex": "0x5208"
      },
      "to": "0xC47Aaa860008be6f65B58c6C6E02a84e666EfE31",
      "value": {
        "_hex": "0x1a595405a17c3f29f20"
      },
      "nonce": 18,
      "data": "0x",
      "r": "0x3ed8a67696d5ee26eafe4327f4ae92dbcadc59a9feb08e7a2258a5a0f573b2d9",
      "s": "0x5d222b74ea731a5ffa0be005a4e9022bd17b17203a3e619371e4e168093456df",
      "v": 28,
      "creates": null,
      "raw": "0xf86e12850ba43b740082520894c47aaa860008be6f65b58c6c6e02a84e666efe318a01a595405a17c3f29f20801ca03ed8a67696d5ee26eafe4327f4ae92dbcadc59a9feb08e7a2258a5a0f573b2d9a05d222b74ea731a5ffa0be005a4e9022bd17b17203a3e619371e4e168093456df",
      "networkId": 0,
      "chainId": 0
    }
  ]
}