{
  "hash": "0xeaf74b0604e0a8aa020898f0228a5bb9c47e16d7d560bbaf290112a8e67e6512",
  "parentHash": "0xf9703aed56a8a742f5c8f4d22dd813df9172df430f8292e2a4c94816e7283708",
  "number": 49106,
  "timestamp": 1438968099,
  "nonce": "0xb86334c0de732aa1",
  "difficulty": 1481448095791,
  "gasLimit": {
    "_hex": "0x25f16"
  },
  "gasUsed": {
    "_hex": "0x5208"
  },
  "miner": "0xbb7B8287f3F0a933474a79eAe42CBCa977791171",
  "extraData": "0x476574682f4c5649562f76312e302e312f6c696e75782f676f312e342e32",
  "transactions": [
    {
      "hash": "0x7b82018ca42084879c903f88ae2ceed5c5de65f74b9970bbd53e99be55a3e988",
      "blockHash": "0xeaf74b0604e0a8aa020898f0228a5bb9c47e16d7d560bbaf290112a8e67e6512",
      "blockNumber": 49106,
      "transactionIndex": 0,
      "confirmations": null,
      "from": "0x29E88Cb82e196cA8eDB167258F9BA302a31CB2F6",
      "gasPrice": {
        "_hex": "0xdab7a9d3b"
      },
      "gasLimit": {
        "_hex": "0x15f90"
      },
      "to": "0xBef07d97C3481f9D6aee1c98F9d91a180a32442B",
      "value": {
        "_hex": "0x1f58db14a950a8"
      },
      "nonce": 8,
      "data": "0x",
      "r": "0xa9cfeac21292837a912d9ae6653d0ddc28f838eeae32917d2894d6377cf7e142",
      "s": "0x4cb053c31fcf16ea208379a844feee1fb3cdd8981b3465030694804544fb5d4e",
      "v": 27,
      "creates": null,
      "raw": "0xf86c08850dab7a9d3b83015f9094bef07d97c3481f9d6aee1c98f9d91a180a32442b871f58db14a950a8801ba0a9cfeac21292837a912d9ae6653d0ddc28f838eeae32917d2894d6377cf7e142a04cb053c31fcf16ea208379a844feee1fb3cdd8981b3465030694804544fb5d4e",
      "networkId": 0,
      "chainId": 0
    }
  ]
}