{
  "hash": "0xaacd41f8a0c32dbe3c15ba26cb8bcb268aee134b7c450982fa0034ccdfd08771",
  "parentHash": "0x4d8de7d98c5efbc12219e9a3d0f04c5c67a52d437099e3033909e7c541f2be93",
  "number": 47762,
  "timestamp": 1438945878,
  "nonce": "0x3b8dcb6244a2065a",
  "difficulty": 1451608795787,
  "gasLimit": {
    "_hex": "0xeff8"
  },
  "gasUsed": {
    "_hex": "0x546c"
  },
  "miner": "0xf927a40C8B7F6E07c5af7FA2155B4864a4112B13",
  "extraData": "0x476574682f76312e302e312f6c696e75782f676f312e342e32",
  "transactions": [
    {
      "hash": "0x1dba773d0441da62181e8b46562c37db5781ee7bd68b6a5994899e1beb42c4e9",
      "blockHash": "0xaacd41f8a0c32dbe3c15ba26cb8bcb268aee134b7c450982fa0034ccdfd08771",
      "blockNumber": 47762,
      "transactionIndex": 0,
      "confirmations": null,
      "from": "0x23c99bA087448e19C9701Df66e0cab52368331FA",
      "gasPrice": {
        "_hex": "0x45d964b800"
      },
      "gasLimit": {
        "_hex": "0x55f0"
      },
      "to": "0x2910543Af39abA0Cd09dBb2D50200b3E800A63D2",
      "value": {
        "_hex": "0xde0b6b3a7640000"
      },
      "nonce": 4,
      "data": "0x454e344e5642375a52",
      "r": "0xf9ce4c719802d597e3e9e93a1e6c341b8a7a7ad2648da9468deaf5da14bbe5f8",
      "s": "0x32405f19646fc69758323e3114cda039787df3ac980c1c08a948ee8400364c43",
      "v": 28,
      "creates": null,
      "raw": "0xf875048545d964b8008255f0942910543af39aba0cd09dbb2d50200b3e800a63d2880de0b6b3a764000089454e344e5642375a521ca0f9ce4c719802d597e3e9e93a1e6c341b8a7a7ad2648da9468deaf5da14bbe5f8a032405f19646fc69758323e3114cda039787df3ac980c1c08a948ee8400364c43",
      "networkId": 0,
      "chainId": 0
    }
  ]
}