{
  "hash": "0x6025469b2909ba09ae3575027753b7ed0e459616c1afdcf969ed4ba78bb91e93",
  "parentHash": "0xbff36e112d51a55a9c9fe2bcb0198e79b7bb69bf44db6718f5c817e7564e8f65",
  "number": 70576,
  "timestamp": 1439321960,
  "nonce": "0x8d77a1d98462f27d",
  "difficulty": 2143694989364,
  "gasLimit": {
    "_hex": "0x2fefd8"
  },
  "gasUsed": {
    "_hex": "0x5208"
  },
  "miner": "0x7E6930B63D03e88F5928C5cd6ee3FCee4D714F7F",
  "extraData": "0x",
  "transactions": [
    {
      "hash": "0x681706cba56c0b36780d25309ad80506797e02671dde7a7bb5584615246b652b",
      "blockHash": "0x6025469b2909ba09ae3575027753b7ed0e459616c1afdcf969ed4ba78bb91e93",
      "blockNumber": 70576,
      "transactionIndex": 0,
      "confirmations": null,
      "from": "0xd561cbbc05515DE73AB8cF9eAe1357341E7dFDF4",
      "gasPrice": {
        "_hex": "0xd4792b7f4"
      },
      "gasLimit": {
        "_hex": "0x15f90"
      },
      "to": "0x0a5D444d49d727B67f983E66b4944759D13Bce92",
      "value": {
        "_hex": "0x363ee9c9a27f634800"
      },
      "nonce": 1,
      "data": "0x",
      "r": "0xc83678fff74490816ce4a31bec20a30e8183c0f0721a8c57fa82948bce5ce044",
      "s": "0x150b1329ebc303f55a1cfd437dfadb8087d0f50580c1c1bb77143c09f623357f",
      "v": 28,
      "creates": null,
      "raw": "0xf86e01850d4792b7f483015f90940a5d444d49d727b67f983e66b4944759d13bce9289363ee9c9a27f634800801ca0c83678fff74490816ce4a31bec20a30e8183c0f0721a8c57fa82948bce5ce044a0150b1329ebc303f55a1cfd437dfadb8087d0f50580c1c1bb77143c09f623357f",
      "networkId": 0,
      "chainId": 0
    }
  ]
}