{
  "hash": "0xd9732406190c7be121a013a04d814c25d79614885ebf9c3331ca47de2ab9b291",
  "parentHash": "0x1bf88fd643240d7fd29fa2295abcb5b606eb97b69d622a7d5c6557fa04eedece",
  "number": 108723,
  "timestamp": 1439945244,
  "nonce": "0x81f6af0bfe035d9a",
  "difficulty": 4329720890943,
  "gasLimit": {
    "_hex": "0x2fefd8"
  },
  "gasUsed": {
    "_hex": "0x5208"
  },
  "miner": "0x16a4739e52878d2924e0F51cb5D3068aFafb397B",
  "extraData": "0x476574682f76312e302e312f6c696e75782f676f312e342e32",
  "transactions": [
    {
      "hash": "0xf11a3d1a84ad6d730bcdde1b915a262331b707f93a084bc8663947924e73e4bc",
      "blockHash": "0xd9732406190c7be121a013a04d814c25d79614885ebf9c3331ca47de2ab9b291",
      "blockNumber": 108723,
      "transactionIndex": 0,
      "confirmations": null,
      "from": "0x731f48FB82E3aa0085A39775Fe6987f943B05362",
      "gasPrice": {
        "_hex": "0xd69d6dd83"
      },
      "gasLimit": {
        "_hex": "0x15f90"
      },
      "to": "0x2910543Af39abA0Cd09dBb2D50200b3E800A63D2",
      "value": {
        "_hex": "0x0"
      },
      "nonce": 0,
      "data": "0x",
      "r": "0xa4f8c0ece31564ab8a334b6a2168a342bcbb66648459e741ba3d4a45ddb6aae4",
      "s": "0x1add698dc92aebcdc1a3eb55d90a7ca0fd531bcdf710a04876f493580f96fa7e",
      "v": 28,
      "creates": null,
      "raw": "0xf86580850d69d6dd8383015f90942910543af39aba0cd09dbb2d50200b3e800a63d280801ca0a4f8c0ece31564ab8a334b6a2168a342bcbb66648459e741ba3d4a45ddb6aae4a01add698dc92aebcdc1a3eb55d90a7ca0fd531bcdf710a04876f493580f96fa7e",
      "networkId": 0,
      "chainId": 0
    }
  ]
}