{
  "hash": "0x1bbd1ca7ece2f417f6185e5e86889dc2f744de1fb1ef1238d81244ae88e6fdd8",
  "parentHash": "0x9f12b372e232e791646cd477541bb10bdce5b624bc1e54f25b9b4ba70e25521a",
  "number": 75693,
  "timestamp": 1439407455,
  "nonce": "0x48c597b188f5a7bf",
  "difficulty": 2235358121939,
  "gasLimit": {
    "_hex": "0x2fefd8"
  },
  "gasUsed": {
    "_hex": "0x5208"
  },
  "miner": "0xe6A7a1d47ff21B6321162AEA7C6CB457D5476Bca",
  "extraData": "0x476574682f76312e302e312d38326566323666362f6c696e75782f676f312e34",
  "transactions": [
    {
      "hash": "0x2b41b167ba37cb9bf204fa23aed5332c58e783319cce79226b5d6736858d191c",
      "blockHash": "0x1bbd1ca7ece2f417f6185e5e86889dc2f744de1fb1ef1238d81244ae88e6fdd8",
      "blockNumber": 75693,
      "transactionIndex": 0,
      "confirmations": null,
      "from": "0x01Ad0ACFf478127D9d702B1A13599D706cB759b1",
      "gasPrice": {
        "_hex": "0xd70245d90"
      },
      "gasLimit": {
        "_hex": "0x5208"
      },
      "to": "0x32Be343B94f860124dC4fEe278FDCBD38C102D88",
      "value": {
        "_hex": "0x455f432a374cb000"
      },
      "nonce": 17,
      "data": "0x",
      "r": "0xb109c970417e2f960e74893d0d3d8f9aafce6d9234d06fa0241f18dd93f9a896",
      "s": "0x491d9e3dcd1b0c1dd23f808a2d3802f10d0742c7b6a56223a52a5d74b19e802d",
      "v": 27,
      "creates": null,
      "raw": "0xf86c11850d70245d908252089432be343b94f860124dc4fee278fdcbd38c102d8888455f432a374cb000801ba0b109c970417e2f960e74893d0d3d8f9aafce6d9234d06fa0241f18dd93f9a896a0491d9e3dcd1b0c1dd23f808a2d3802f10d0742c7b6a56223a52a5d74b19e802d",
      "networkId": 0,
      "chainId": 0
    }
  ]
}