{
  "hash": "0x1c2c9afd92f7841f81374cbd56845c8249985597ffa56ccf0226b9ee0db3227f",
  "parentHash": "0x26ecc022fd56c8766c39b7dd2efd733bf80231ed563e612f3d66f4c70ca17691",
  "number": 49551,
  "timestamp": 1438975224,
  "nonce": "0x5d31dbc6c6f39dd0",
  "difficulty": 1480646361374,
  "gasLimit": {
    "_hex": "0x3501b"
  },
  "gasUsed": {
    "_hex": "0xfae0"
  },
  "miner": "0xf8E0CA3Ed80bd541b94BEdCf259e8CF2141A9523",
  "extraData": "0x476574682f76312e302e312f77696e646f77732f676f312e342e32",
  "transactions": [
    {
      "hash": "0x76bea2babee0195847de8eaf05758b142f0d3986f368bab3537ef56a13f00355",
      "blockHash": "0x1c2c9afd92f7841f81374cbd56845c8249985597ffa56ccf0226b9ee0db3227f",
      "blockNumber": 49551,
      "transactionIndex": 0,
      "confirmations": null,
      "from": "0x7d445267C59aB8D2A2d9E709990E09682580c49f",
      "gasPrice": {
        "_hex": "0x110c8f7d8de"
      },
      "gasLimit": {
        "_hex": "0xc350"
      },
      "to": "0x2910543Af39abA0Cd09dBb2D50200b3E800A63D2",
      "value": {
        "_hex": "0x5b09cd3e5e90000"
      },
      "nonce": 1,
      "data": "0x454e553057344a3830",
      "r": "0x51487a0bdcd0985a04275bb510f132b43159cf697684fa8c0f2d61b67f1b7e6d",
      "s": "0x063e980d9b3cfc4f2aaf2617e136a568f0ef2469ec919e74f23f85857a58239b",
      "v": 28,
      "creates": null,
      "raw": "0xf87601860110c8f7d8de82c350942910543af39aba0cd09dbb2d50200b3e800a63d28805b09cd3e5e9000089454e553057344a38301ca051487a0bdcd0985a04275bb510f132b43159cf697684fa8c0f2d61b67f1b7e6da0063e980d9b3cfc4f2aaf2617e136a568f0ef2469ec919e74f23f85857a58239b",
      "networkId": 0,
      "chainId": 0
    },
    {
      "hash": "0xc22162c2bdacab489e84cd52ea4f1cc448e6b1f88927b57dd1817a7ced4ee648",
      "blockHash": "0x1c2c9afd92f7841f81374cbd56845c8249985597ffa56ccf0226b9ee0db3227f",
      "blockNumber": 49551,
      "transactionIndex": 1,
      "confirmations": null,
      "from": "0x8bb807c77969259B4Bb4fB3522e1720f4f6bebed",
      "gasPrice": {
        "_hex": "0xd8f1f72ec"
      },
      "gasLimit": {
        "_hex": "0x5208"
      },
      "to": "0x32Be343B94f860124dC4fEe278FDCBD38C102D88",
      "value": {
        "_hex": "0x6be0c7e040a2f80000"
      },
      "nonce": 1,
      "data": "0x",
      "r": "0xe2aa2a3090d7e8bc7a9a71488304e8a68ebae4de39f28afd37553408704c62e4",
      "s": "0x04871342fb2c0e52f97b2ac9678d796b8e6fb9a236b53740bfa7eac9d9dd7ac4",
      "v": 27,
      "creates": null,
      "raw": "0xf86d01850d8f1f72ec8252089432be343b94f860124dc4fee278fdcbd38c102d88896be0c7e040a2f80000801ba0e2aa2a3090d7e8bc7a9a71488304e8a68ebae4de39f28afd37553408704c62e4a004871342fb2c0e52f97b2ac9678d796b8e6fb9a236b53740bfa7eac9d9dd7ac4",
      "networkId": 0,
      "chainId": 0
    },
    {
      "hash": "0x4c0ab861240906478dc85515a20f11c46559d9f74670305de83a13b3fe7600c8",
      "blockHash": "0x1c2c9afd92f7841f81374cbd56845c8249985597ffa56ccf0226b9ee0db3227f",
      "blockNumber": 49551,
      "transactionIndex": 2,
      "confirmations": null,
      "from": "0x36d85Dc3683156e63Bf880A9fAb7788CF8143a27",
      "gasPrice": {
        "_hex": "0xd75e586ee"
      },
      "gasLimit": {
        "_hex": "0x15f90"
      },
      "to": "0x2910543Af39abA0Cd09dBb2D50200b3E800A63D2",
      "value": {
        "_hex": "0x878678326eac900000"
      },
      "nonce": 5,
      "data": "0x454e424b4e34353330",
      "r": "0x8af9297feefcd1fa1c2cfdf40a8e5b955a9cf09a615eb18ca4b560e9d2e2d811",
      "s": "0x621863d2da0aebd9a648fd30906bf1ce55ef28567fb51d1d1ad4febd6ce4ff17",
      "v": 27,
      "creates": null,
      "raw": "0xf87705850d75e586ee83015f90942910543af39aba0cd09dbb2d50200b3e800a63d289878678326eac90000089454e424b4e343533301ba08af9297feefcd1fa1c2cfdf40a8e5b955a9cf09a615eb18ca4b560e9d2e2d811a0621863d2da0aebd9a648fd30906bf1ce55ef28567fb51d1d1ad4febd6ce4ff17",
      "networkId": 0,
      "chainId": 0
    }
  ]
}