{
  "hash": "0xe8c3774046106689c1136dbe2aa6060e01c5c5f4a12a0b8b252ed47401e2eae3",
  "parentHash": "0xeb7b069cacdaa3c0b28d9d46bdd9b4e37f3771faab22223e69e6e309fa73165d",
  "number": 66937,
  "timestamp": 1439262839,
  "nonce": "0xcef0ababf88cb3d7",
  "difficulty": 1953657090536,
  "gasLimit": {
    "_hex": "0x2fefd8"
  },
  "gasUsed": {
    "_hex": "0xa410"
  },
  "miner": "0x31995C46B15C84523cDEE26f49A681b8237e43F5",
  "extraData": "0x476574682f76312e302e312f77696e646f77732f676f312e342e32",
  "transactions": [
    {
      "hash": "0xc4e3ac18d0ede365e9f3f0182fa5c092ee2c7b30831093c64763a487a8eaebcb",
      "blockHash": "0xe8c3774046106689c1136dbe2aa6060e01c5c5f4a12a0b8b252ed47401e2eae3",
      "blockNumber": 66937,
      "transactionIndex": 0,
      "confirmations": null,
      "from": "0x32Be343B94f860124dC4fEe278FDCBD38C102D88",
      "gasPrice": {
        "_hex": "0xd4f50ccae"
      },
      "gasLimit": {
        "_hex": "0x5208"
      },
      "to": "0x120A270bbC009644e35F0bB6ab13f95b8199c4ad",
      "value": {
        "_hex": "0x10f0cf064dd59200000"
      },
      "nonce": 198,
      "data": "0x",
      "r": "0x1d24f590ce85753c0197bacf33f1bd1d8ce5076975befe46e15e1eeb0b94c395",
      "s": "0x05f3f0ef18cb0ebf79c7f884402e984ac948e78a03c8cdc9cc32cbd66a46392c",
      "v": 28,
      "creates": null,
      "raw": "0xf86f81c6850d4f50ccae82520894120a270bbc009644e35f0bb6ab13f95b8199c4ad8a010f0cf064dd59200000801ca01d24f590ce85753c0197bacf33f1bd1d8ce5076975befe46e15e1eeb0b94c395a005f3f0ef18cb0ebf79c7f884402e984ac948e78a03c8cdc9cc32cbd66a46392c",
      "networkId": 0,
      "chainId": 0
    },
    {
      "hash": "0x4b779f117cb0318b62809d569be14f7e51669bc9c42db7fe49fbe5ff138a0837",
      "blockHash": "0xe8c3774046106689c1136dbe2aa6060e01c5c5f4a12a0b8b252ed47401e2eae3",
      "blockNumber": 66937,
      "transactionIndex": 1,
      "confirmations": null,
      "from": "0x32Be343B94f860124dC4fEe278FDCBD38C102D88",
      "gasPrice": {
        "_hex": "0xd4f50ccae"
      },
      "gasLimit": {
        "_hex": "0x5208"
      },
      "to": "0x120A270bbC009644e35F0bB6ab13f95b8199c4ad",
      "value": {
        "_hex": "0x5150ae84a8cdf00000"
      },
      "nonce": 199,
      "data": "0x",
      "r": "0x385c34f6840a0ee354d65c85eb3344767bdd4d0240db43d5b064e2156d8e6aa8",
      "s": "0x3d84e061dcdda57391de007de25877fac6fe97eaf7fa2e4aeec40b6eb14ec70e",
      "v": 27,
      "creates": null,
      "raw": "0xf86e81c7850d4f50ccae82520894120a270bbc009644e35f0bb6ab13f95b8199c4ad895150ae84a8cdf00000801ba0385c34f6840a0ee354d65c85eb3344767bdd4d0240db43d5b064e2156d8e6aa8a03d84e061dcdda57391de007de25877fac6fe97eaf7fa2e4aeec40b6eb14ec70e",
      "networkId": 0,
      "chainId": 0
    }
  ]
}