{
  "hash": "0x6ed81a3ebb7f364be5f425af950f1f7a2a81d8ff171a51ca4e445f4893fdc417",
  "parentHash": "0x1c78663afcefe59f09d9640bf09ee9dffae0627185a190e467c33a213b179947",
  "number": 95508,
  "timestamp": 1439725206,
  "nonce": "0xb8351690b646eddf",
  "difficulty": 3618016955567,
  "gasLimit": {
    "_hex": "0x2fefd8"
  },
  "gasUsed": {
    "_hex": "0x5208"
  },
  "miner": "0xC6A5D22D1DDd24B32a308bA4A49ec3cA38a2D0A6",
  "extraData": "0x",
  "transactions": [
    {
      "hash": "0xc441be6fe490125cd1d7d1e5200743d81ab9f7955d6e5c6fce795ba2089c8c47",
      "blockHash": "0x6ed81a3ebb7f364be5f425af950f1f7a2a81d8ff171a51ca4e445f4893fdc417",
      "blockNumber": 95508,
      "transactionIndex": 0,
      "confirmations": null,
      "from": "0x1D3ffA437e5bce40fCC134f4E0ac62841E4A9E81",
      "gasPrice": {
        "_hex": "0xba43b7400"
      },
      "gasLimit": {
        "_hex": "0x5208"
      },
      "to": "0xC47Aaa860008be6f65B58c6C6E02a84e666EfE31",
      "value": {
        "_hex": "0x54a3d2b61cde6000"
      },
      "nonce": 9,
      "data": "0x",
      "r": "0xb67141f2de3b35c62c0ad0cbe4338dc9d0518f5fe3fe1396f9ff0f04b299d4d4",
      "s": "0x1310b3b9fe7e77e025bc239e7fbbc048f4551d3a46155540c5f161d876643551",
      "v": 27,
      "creates": null,
      "raw": "0xf86c09850ba43b740082520894c47aaa860008be6f65b58c6c6e02a84e666efe318854a3d2b61cde6000801ba0b67141f2de3b35c62c0ad0cbe4338dc9d0518f5fe3fe1396f9ff0f04b299d4d4a01310b3b9fe7e77e025bc239e7fbbc048f4551d3a46155540c5f161d876643551",
      "networkId": 0,
      "chainId": 0
    }
  ]
}