{
  "hash": "0x09c75234780e4861f74544993739570bb9d7d84a2fa9c3f8f792aedf3df3c215",
  "parentHash": "0xe5c17c7f669f860a393732af06ca9087c89140e9cf37645c5b522bcf4f90ceec",
  "number": 101212,
  "timestamp": 1439819221,
  "nonce": "0x9efbc0395e0ab964",
  "difficulty": 3837481993924,
  "gasLimit": {
    "_hex": "0x2fefd8"
  },
  "gasUsed": {
    "_hex": "0x5208"
  },
  "miner": "0x2134e2a2b718DCa96580ECAC31E653Ea1fdd58DA",
  "extraData": "0x476574682f76312e302e312f77696e646f77732f676f312e342e32",
  "transactions": [
    {
      "hash": "0x0f986d029ce33602df2bc35256ef5707315c6588eb80978e3f2653887106dcf5",
      "blockHash": "0x09c75234780e4861f74544993739570bb9d7d84a2fa9c3f8f792aedf3df3c215",
      "blockNumber": 101212,
      "transactionIndex": 0,
      "confirmations": null,
      "from": "0x7884D470204862a0d1A21122F41ee77430396Ee5",
      "gasPrice": {
        "_hex": "0xcbcb8fa92"
      },
      "gasLimit": {
        "_hex": "0x15f90"
      },
      "to": "0x95227f88247580D7c3927bdAFE78E73a675Cdc76",
      "value": {
        "_hex": "0x27147114878000"
      },
      "nonce": 84,
      "data": "0x",
      "r": "0xd03cfd7c72d0f0e89954e3105aef8625f21db3a90c1607a9b19c979d04c18c9f",
      "s": "0x6ac3ed675ddab18728f1c058686540f54095cbd4c6ddd607be3530aab8072142",
      "v": 27,
      "creates": null,
      "raw": "0xf86c54850cbcb8fa9283015f909495227f88247580d7c3927bdafe78e73a675cdc768727147114878000801ba0d03cfd7c72d0f0e89954e3105aef8625f21db3a90c1607a9b19c979d04c18c9fa06ac3ed675ddab18728f1c058686540f54095cbd4c6ddd607be3530aab8072142",
      "networkId": 0,
      "chainId": 0
    }
  ]
}