{
  "hash": "0xe4cdce811e9c530d611cd958c8892820e1a1304feff73f8f4f0e4f407d24947f",
  "parentHash": "0x1cf552f022dbd49c2d3e09f362caf95d42a526dc01ae89002541d44e4d56cb9a",
  "number": 59163,
  "timestamp": 1439133127,
  "nonce": "0x1d818294d5d02939",
  "difficulty": 1708924362284,
  "gasLimit": {
    "_hex": "0x2fefd5"
  },
  "gasUsed": {
    "_hex": "0x5208"
  },
  "miner": "0xB6AC12CefF0375Da80503AcCa54bf3061Fa917a8",
  "extraData": "0x",
  "transactions": [
    {
      "hash": "0xd5e3673420ce6d0478a3bba8eb780805bd7f20d5ffd2a4b7f7ea51e3f13fa963",
      "blockHash": "0xe4cdce811e9c530d611cd958c8892820e1a1304feff73f8f4f0e4f407d24947f",
      "blockNumber": 59163,
      "transactionIndex": 0,
      "confirmations": null,
      "from": "0x39d4A931402c0c79c457186F24dF8729cf957031",
      "gasPrice": {
        "_hex": "0xce6cf97dd"
      },
      "gasLimit": {
        "_hex": "0x61a8"
      },
      "to": "0xe1F5B8dc9336BC9637eA97c3f3b13Cd363F88854",
      "value": {
        "_hex": "0xce763fae6ff1f70000"
      },
      "nonce": 4,
      "data": "0x",
      "r": "0x3944ed7d75255ca27ae283f029d81aca9c9af6fe610f73d6ce10120f840c4d7d",
      "s": "0x328a98fd2b148916eace5daefed381b96e7c6f6e5b6e396155c3b8ed15755f69",
      "v": 28,
      "creates": null,
      "raw": "0xf86d04850ce6cf97dd8261a894e1f5b8dc9336bc9637ea97c3f3b13cd363f8885489ce763fae6ff1f70000801ca03944ed7d75255ca27ae283f029d81aca9c9af6fe610f73d6ce10120f840c4d7da0328a98fd2b148916eace5daefed381b96e7c6f6e5b6e396155c3b8ed15755f69",
      "networkId": 0,
      "chainId": 0
    }
  ]
}