{
  "hash": "0x5e9f0d994ffb73a70d1121b8e0c87a4425f4b9b06fdee41eb8df064cd3c28bc1",
  "parentHash": "0xb68cc4446cc6451f36ed6355080f83942e471f6c76d76e83758ed5e22e95901e",
  "number": 81994,
  "timestamp": 1439511519,
  "nonce": "0x19cf05ce874c3298",
  "difficulty": 2404593305440,
  "gasLimit": {
    "_hex": "0x2fefd8"
  },
  "gasUsed": {
    "_hex": "0x5208"
  },
  "miner": "0xe6A7a1d47ff21B6321162AEA7C6CB457D5476Bca",
  "extraData": "0x476574682f76312e302e312d38326566323666362f6c696e75782f676f312e34",
  "transactions": [
    {
      "hash": "0x1691808f69eaf8c30e9cae85d17c70df62aa2060a6d2ba4eaa30660621f9e3bd",
      "blockHash": "0x5e9f0d994ffb73a70d1121b8e0c87a4425f4b9b06fdee41eb8df064cd3c28bc1",
      "blockNumber": 81994,
      "transactionIndex": 0,
      "confirmations": null,
      "from": "0xA6746D3f18AE6b6F140283BDD39cE2227a55A293",
      "gasPrice": {
        "_hex": "0xd1f10536d"
      },
      "gasLimit": {
        "_hex": "0x5208"
      },
      "to": "0x32Be343B94f860124dC4fEe278FDCBD38C102D88",
      "value": {
        "_hex": "0x3627af784a7aa60000"
      },
      "nonce": 2,
      "data": "0x",
      "r": "0x69c090b0e36baf57ef5110af8142e08f73185a967a21f8ee6e1287a2fed51060",
      "s": "0x5442eb7b9d503fc57fcaee79127d42889746031fc6fbadebd05980cb827d25a1",
      "v": 28,
      "creates": null,
      "raw": "0xf86d02850d1f10536d8252089432be343b94f860124dc4fee278fdcbd38c102d88893627af784a7aa60000801ca069c090b0e36baf57ef5110af8142e08f73185a967a21f8ee6e1287a2fed51060a05442eb7b9d503fc57fcaee79127d42889746031fc6fbadebd05980cb827d25a1",
      "networkId": 0,
      "chainId": 0
    }
  ]
}