{
  "hash": "0x1c4cb01d27c4f9fd0613b99d6f51070f11318c09ff271551b31a7362942f6641",
  "parentHash": "0xaba57a8197ee8fc25a0ed2958f95e35a5a820169873176dfc738744410c74561",
  "number": 107834,
  "timestamp": 1439929554,
  "nonce": "0x2051054adae6caa2",
  "difficulty": 4383362350674,
  "gasLimit": {
    "_hex": "0x2fefd8"
  },
  "gasUsed": {
    "_hex": "0xa414"
  },
  "miner": "0x580992B51e3925e23280EfB93d3047C82f17E038",
  "extraData": "0x476574682f76312e302e312f6c696e75782f676f312e342e32",
  "transactions": [
    {
      "hash": "0x121ff2d8442b5b0a4e2dbaddacb4fe5f4c090568be429df6f931b1b00a1cea81",
      "blockHash": "0x1c4cb01d27c4f9fd0613b99d6f51070f11318c09ff271551b31a7362942f6641",
      "blockNumber": 107834,
      "transactionIndex": 0,
      "confirmations": null,
      "from": "0x6BED894B45159c6001dfbC5bd6257A10B9eF2202",
      "gasPrice": {
        "_hex": "0xdc7707cc0"
      },
      "gasLimit": {
        "_hex": "0x15f90"
      },
      "to": "0xC4Cefd8e233244EE0b01B083a8a01D2cfca86910",
      "value": {
        "_hex": "0x7"
      },
      "nonce": 8,
      "data": "0x",
      "r": "0x8974a840d2d67df7189b4844f15b4afe1f128296464b8099f14a801c6a79cbe2",
      "s": "0x4f958c453e618630320454655ba6331f80a4d6b1a3f7ba3c2b5e90c265c41719",
      "v": 27,
      "creates": null,
      "raw": "0xf86508850dc7707cc083015f9094c4cefd8e233244ee0b01b083a8a01d2cfca8691007801ba08974a840d2d67df7189b4844f15b4afe1f128296464b8099f14a801c6a79cbe2a04f958c453e618630320454655ba6331f80a4d6b1a3f7ba3c2b5e90c265c41719",
      "networkId": 0,
      "chainId": 0
    },
    {
      "hash": "0xa11cae6838579d49f40d578432e9e42bac471e44892225dd97bade22e381c306",
      "blockHash": "0x1c4cb01d27c4f9fd0613b99d6f51070f11318c09ff271551b31a7362942f6641",
      "blockNumber": 107834,
      "transactionIndex": 1,
      "confirmations": null,
      "from": "0x3e4c04DFaFEC1413367feCf23a65b9C05AD74822",
      "gasPrice": {
        "_hex": "0xd2d669f00"
      },
      "gasLimit": {
        "_hex": "0x7530"
      },
      "to": "0xA6C5F63fBb0A85b2ed3F458a9ed02c60e65eC005",
      "value": {
        "_hex": "0x6124fee993bc0000"
      },
      "nonce": 1,
      "data": "0x00",
      "r": "0x271cf3339631e3fce4db6211b3de4ded50eb5dc5832cea820708260863c7ea7f",
      "s": "0x716d03d3846e0baf66bf025ac07772c2406a457d050b9a97952627c122420e33",
      "v": 28,
      "creates": null,
      "raw": "0xf86c01850d2d669f0082753094a6c5f63fbb0a85b2ed3f458a9ed02c60e65ec005886124fee993bc0000001ca0271cf3339631e3fce4db6211b3de4ded50eb5dc5832cea820708260863c7ea7fa0716d03d3846e0baf66bf025ac07772c2406a457d050b9a97952627c122420e33",
      "networkId": 0,
      "chainId": 0
    }
  ]
}