{
  "hash": "0x581b88735d18c6a141676d70099c65638fd49861e96b9d29a39c519f4c2a1ca8",
  "parentHash": "0x46a5238daf2ac1cdce08ffb54b473b557f6714f2f1570a88526cca4d06b54d05",
  "number": 105670,
  "timestamp": 1439891593,
  "nonce": "0x915ab360d84095a0",
  "difficulty": 4388777091230,
  "gasLimit": {
    "_hex": "0x2fefd8"
  },
  "gasUsed": {
    "_hex": "0x5208"
  },
  "miner": "0x8d8A322f0957F9190ECc783d6FFBad6aBc7b1836",
  "extraData": "0xd983010001844765746887676f312e342e328777696e646f7773",
  "transactions": [
    {
      "hash": "0x8909adafca2ce905855f665657aafe07f777a2d7f4b74559b7773a114e210ac6",
      "blockHash": "0x581b88735d18c6a141676d70099c65638fd49861e96b9d29a39c519f4c2a1ca8",
      "blockNumber": 105670,
      "transactionIndex": 0,
      "confirmations": null,
      "from": "0x9943C02b44B13e025fc0B938790F5d336BD920f9",
      "gasPrice": {
        "_hex": "0xda2204efa"
      },
      "gasLimit": {
        "_hex": "0x15f90"
      },
      "to": "0x23f2D0fd3B4C98Fb1698564deB4898275E2e831f",
      "value": {
        "_hex": "0x15af1d78b58c40000"
      },
      "nonce": 5,
      "data": "0x",
      "r": "0xfc4d731429b6fcd0c146de38e0df8c67fec7875520e2f61685c1645622e35830",
      "s": "0x751d4c44fad5592ffbfa1f777439d6a987002b6d89e847dbd6d8c8c06c83b730",
      "v": 27,
      "creates": null,
      "raw": "0xf86e05850da2204efa83015f909423f2d0fd3b4c98fb1698564deb4898275e2e831f89015af1d78b58c40000801ba0fc4d731429b6fcd0c146de38e0df8c67fec7875520e2f61685c1645622e35830a0751d4c44fad5592ffbfa1f777439d6a987002b6d89e847dbd6d8c8c06c83b730",
      "networkId": 0,
      "chainId": 0
    }
  ]
}