{
  "hash": "0x1ac4f90699d41b5653dc2fb5318caff971b402abe4434b0582dafd3ab9b84e5e",
  "parentHash": "0x5a47b63140d8d16602ef61a83d709b781296237aa2d970fe79e87903ca1ac511",
  "number": 80422,
  "timestamp": 1439485283,
  "nonce": "0x8caa5625c0304fb8",
  "difficulty": 2400351193712,
  "gasLimit": {
    "_hex": "0x2fefd8"
  },
  "gasUsed": {
    "_hex": "0x6ed7"
  },
  "miner": "0xa50ec0D39fa913E62f1Bae7074E6F36caA71855b",
  "extraData": "0xd783010001844765746887676f312e342e32856c696e7578",
  "transactions": [
    {
      "hash": "0x09d97fdf48a1bf1d179b9cbf6bb79f78acf92234821e578e96bdd327a052ca71",
      "blockHash": "0x1ac4f90699d41b5653dc2fb5318caff971b402abe4434b0582dafd3ab9b84e5e",
      "blockNumber": 80422,
      "transactionIndex": 0,
      "confirmations": null,
      "from": "0x87C5B5874A18B4306DF8a752a6C8cc3E82daFc19",
      "gasPrice": {
        "_hex": "0x105a4533570"
      },
      "gasLimit": {
        "_hex": "0x493e0"
      },
      "to": "0xC4c51de1AbF5D60DBd329eC0F999Fd8f021ae9fC",
      "value": {
        "_hex": "0x0"
      },
      "nonce": 203,
      "data": "0xbd66528a6b6b6b0000000000000000000000000000000000000000000000000000000000",
      "r": "0x96e8a56de2ec277f745eaeb386fe9d26de8e4c6ab9f52747cef63e838609d472",
      "s": "0x68c911b6e650ba56e9c94c4a8d20c13da188a1050251d10ae8b11c69fdd82981",
      "v": 28,
      "creates": null,
      "raw": "0xf88b81cb860105a4533570830493e094c4c51de1abf5d60dbd329ec0f999fd8f021ae9fc80a4bd66528a6b6b6b00000000000000000000000000000000000000000000000000000000001ca096e8a56de2ec277f745eaeb386fe9d26de8e4c6ab9f52747cef63e838609d472a068c911b6e650ba56e9c94c4a8d20c13da188a1050251d10ae8b11c69fdd82981",
      "networkId": 0,
      "chainId": 0
    }
  ]
}