{
  "hash": "0x4eb18ae14c229d2db64507fe4360904c973caeae94f126d88d8a4ee591016418",
  "parentHash": "0x6dbad7025258f5986e1526fb71c7678d0c6605dcb04aa116d4723abb7fb78cca",
  "number": 66893,
  "timestamp": 1439262230,
  "nonce": "0x19a01ef9967da8b4",
  "difficulty": 1947952078724,
  "gasLimit": {
    "_hex": "0x2fefd8"
  },
  "gasUsed": {
    "_hex": "0x5208"
  },
  "miner": "0x2847102668d2090639a94039b795377Fa3a71bcA",
  "extraData": "0x",
  "transactions": [
    {
      "hash": "0x552f8c9805f7f8f72525e6f8c5a5039de5a72fcb5f717086e0b4ceb4713b73b3",
      "blockHash": "0x4eb18ae14c229d2db64507fe4360904c973caeae94f126d88d8a4ee591016418",
      "blockNumber": 66893,
      "transactionIndex": 0,
      "confirmations": null,
      "from": "0x5584a5A361e70D0757D8Ca2B151f041136C9C28a",
      "gasPrice": {
        "_hex": "0xcf12ab8f1"
      },
      "gasLimit": {
        "_hex": "0x15f90"
      },
      "to": "0x42979fca296FEA2C163EA66E1900acDe7886F86F",
      "value": {
        "_hex": "0xe35fa931a0000"
      },
      "nonce": 5,
      "data": "0x",
      "r": "0x64345b516cb2eede37fa7c102895813763d8bbcd06ae6491545ef67f0e068c84",
      "s": "0x723830f0713f136ada01409a95e9f1e90736684d4d2b33ee7a0c81e477f1b2b0",
      "v": 27,
      "creates": null,
      "raw": "0xf86c05850cf12ab8f183015f909442979fca296fea2c163ea66e1900acde7886f86f870e35fa931a0000801ba064345b516cb2eede37fa7c102895813763d8bbcd06ae6491545ef67f0e068c84a0723830f0713f136ada01409a95e9f1e90736684d4d2b33ee7a0c81e477f1b2b0",
      "networkId": 0,
      "chainId": 0
    }
  ]
}