{
  "hash": "0x16e0c93c9cbf018c74f35996fc40389360f6e5d2be29c8e126613b7b52dced53",
  "parentHash": "0x686046bcff43cb7cd98245e1ed43af927c085684c1d0120202be29a32a097dd1",
  "number": 65518,
  "timestamp": 1439238352,
  "nonce": "0x230f0dea3175a988",
  "difficulty": 1953033732517,
  "gasLimit": {
    "_hex": "0x2fefd8"
  },
  "gasUsed": {
    "_hex": "0x546c"
  },
  "miner": "0xeB1325C8D9d3ea8D74aC11F4B00F1B2367686319",
  "extraData": "0x476574682f76312e302e312f77696e646f77732f676f312e342e32",
  "transactions": [
    {
      "hash": "0xfecd30637fcf7522fedae017bf7da021ec68804161fcc353d174dd54baf37c5a",
      "blockHash": "0x16e0c93c9cbf018c74f35996fc40389360f6e5d2be29c8e126613b7b52dced53",
      "blockNumber": 65518,
      "transactionIndex": 0,
      "confirmations": null,
      "from": "0x6294EAE6e420A3d5600a39C4141f838FF8E7CC48",
      "gasPrice": {
        "_hex": "0x110c8f7d8de"
      },
      "gasLimit": {
        "_hex": "0xc350"
      },
      "to": "0x2910543Af39abA0Cd09dBb2D50200b3E800A63D2",
      "value": {
        "_hex": "0x4563918244f40000"
      },
      "nonce": 0,
      "data": "0x454e3139324b345547",
      "r": "0x560a8818254ab82a560d967c6ee00d4f30195b84649cc68f5519d29114d84170",
      "s": "0xdacf19e27913bb3e38814e9ad84fca0541cc6bc414aea267dae5f9093585d647",
      "v": 28,
      "creates": null,
      "raw": "0xf87680860110c8f7d8de82c350942910543af39aba0cd09dbb2d50200b3e800a63d2884563918244f4000089454e3139324b3455471ca0560a8818254ab82a560d967c6ee00d4f30195b84649cc68f5519d29114d84170a0dacf19e27913bb3e38814e9ad84fca0541cc6bc414aea267dae5f9093585d647",
      "networkId": 0,
      "chainId": 0
    }
  ]
}