{
  "hash": "0x74fc7dc83f3d6b9faabea874a14f791d98edb9605e9387df7b18eb3cf1563b4d",
  "parentHash": "0xbf78e50f3750b5a3e7b248770bc46197da09a1f8139ce8f6fb546ce63a111a83",
  "number": 75645,
  "timestamp": 1439406752,
  "nonce": "0x645f80025ec40671",
  "difficulty": 2228831557871,
  "gasLimit": {
    "_hex": "0x2fefd8"
  },
  "gasUsed": {
    "_hex": "0x1b497"
  },
  "miner": "0xf927a40C8B7F6E07c5af7FA2155B4864a4112B13",
  "extraData": "0x",
  "transactions": [
    {
      "hash": "0x5da9ced75ff41d07436c59137940d8eb28a15160e7cf06afda5bc4577b85579a",
      "blockHash": "0x74fc7dc83f3d6b9faabea874a14f791d98edb9605e9387df7b18eb3cf1563b4d",
      "blockNumber": 75645,
      "transactionIndex": 0,
      "confirmations": null,
      "from": "0xe1237d552429cc333FfD3038Fc3ba3441d0B7ddE",
      "gasPrice": {
        "_hex": "0xe18515731"
      },
      "gasLimit": {
        "_hex": "0x493e0"
      },
      "to": "0xD79B4C6791784184e2755B2fC1659eaaB0f80456",
      "value": {
        "_hex": "0xde0b6b3a7640000"
      },
      "nonce": 5,
      "data": "0x8d216186000000000000000000000000000000000000000000000000000000000000008095dc6556199941e0bd0ddc23974d2de1f0a15dc35fc638036531cf60edf16ac4",
      "r": "0x769c062f8ba4fee6e49b7ef7376f870876f398b05d232afc8bb624d1b61704de",
      "s": "0x27845c806136229267d491f9f2d8284621218f37f8fb2230aa0e73819374e5af",
      "v": 27,
      "creates": null,
      "raw": "0xf8b205850e18515731830493e094d79b4c6791784184e2755b2fc1659eaab0f80456880de0b6b3a7640000b8448d216186000000000000000000000000000000000000000000000000000000000000008095dc6556199941e0bd0ddc23974d2de1f0a15dc35fc638036531cf60edf16ac41ba0769c062f8ba4fee6e49b7ef7376f870876f398b05d232afc8bb624d1b61704dea027845c806136229267d491f9f2d8284621218f37f8fb2230aa0e73819374e5af",
      "networkId": 0,
      "chainId": 0
    }
  ]
}