{
  "hash": "0x8ecf40b2a67470d5a763eaf0688e3fc3b3841d984431075b0ec380c41986343b",
  "parentHash": "0x067d17ca1edea98975c9fc1bec02a6d7dc7f372f2cf0964fb4288d56d33747f6",
  "number": 89199,
  "timestamp": 1439619710,
  "nonce": "0x660e3ef220d90826",
  "difficulty": 3285471551356,
  "gasLimit": {
    "_hex": "0x2fefd8"
  },
  "gasUsed": {
    "_hex": "0xa410"
  },
  "miner": "0xf8E0CA3Ed80bd541b94BEdCf259e8CF2141A9523",
  "extraData": "0x476574682f76312e302e312f77696e646f77732f676f312e342e32",
  "transactions": [
    {
      "hash": "0x8be17b44a91d898c83da0fb4d9d9016ff37c31804c3d45d640ca4d5eb48bac1c",
      "blockHash": "0x8ecf40b2a67470d5a763eaf0688e3fc3b3841d984431075b0ec380c41986343b",
      "blockNumber": 89199,
      "transactionIndex": 0,
      "confirmations": null,
      "from": "0xe6881bA18A62f75689C08e0D7CF6C96cCcf1C154",
      "gasPrice": {
        "_hex": "0xd890d21fa"
      },
      "gasLimit": {
        "_hex": "0x5208"
      },
      "to": "0x32Be343B94f860124dC4fEe278FDCBD38C102D88",
      "value": {
        "_hex": "0x8e1ae997a38bf80000"
      },
      "nonce": 0,
      "data": "0x",
      "r": "0xf3a57bc039568e42b9e45430955d2326c8b448042a43af635c0c83da4b25c9a5",
      "s": "0x65625cb4864a563cfba515cae91d24f3ecf52cb477e1f9aa2b94d8b75a4932ee",
      "v": 27,
      "creates": null,
      "raw": "0xf86d80850d890d21fa8252089432be343b94f860124dc4fee278fdcbd38c102d88898e1ae997a38bf80000801ba0f3a57bc039568e42b9e45430955d2326c8b448042a43af635c0c83da4b25c9a5a065625cb4864a563cfba515cae91d24f3ecf52cb477e1f9aa2b94d8b75a4932ee",
      "networkId": 0,
      "chainId": 0
    },
    {
      "hash": "0xb652d84c1fc6c2862bb351f8f411d99eaa2f10071c5c6c13f47d80245206f2e9",
      "blockHash": "0x8ecf40b2a67470d5a763eaf0688e3fc3b3841d984431075b0ec380c41986343b",
      "blockNumber": 89199,
      "transactionIndex": 1,
      "confirmations": null,
      "from": "0xfC25864D8326b4CB335C6942218e5F4Ee8D1E1EF",
      "gasPrice": {
        "_hex": "0xd641f460d"
      },
      "gasLimit": {
        "_hex": "0x15f90"
      },
      "to": "0xA5fb3E4399E8F18643f969D0Ce65CC352fc252C6",
      "value": {
        "_hex": "0xa4cc799563c380000"
      },
      "nonce": 0,
      "data": "0x",
      "r": "0x4a7ffe67586c6787d625355035923214aa4539ac1647f6e5b443045c31f56e1d",
      "s": "0x45319fd54465b67cc19eb89532546785ac41aff5e9f43718e91e332c6a6d0ad9",
      "v": 28,
      "creates": null,
      "raw": "0xf86e80850d641f460d83015f9094a5fb3e4399e8f18643f969d0ce65cc352fc252c6890a4cc799563c380000801ca04a7ffe67586c6787d625355035923214aa4539ac1647f6e5b443045c31f56e1da045319fd54465b67cc19eb89532546785ac41aff5e9f43718e91e332c6a6d0ad9",
      "networkId": 0,
      "chainId": 0
    }
  ]
}