{
  "hash": "0x5a11226da9a7c7eb1bdd0fcd0d0468eefd6821077917bcb6154a0b66d3cc6449",
  "parentHash": "0x33eaf234095db6e8c22c81a9aca765e2209b16213a894573a5a64949df1fa83c",
  "number": 86461,
  "timestamp": 1439578630,
  "nonce": "0x1d8f2db6da049e5f",
  "difficulty": 2889057497047,
  "gasLimit": {
    "_hex": "0x2fefd8"
  },
  "gasUsed": {
    "_hex": "0x19a28"
  },
  "miner": "0xe6A7a1d47ff21B6321162AEA7C6CB457D5476Bca",
  "extraData": "0x476574682f76312e302e312d38326566323666362f6c696e75782f676f312e34",
  "transactions": [
    {
      "hash": "0x62908d28eac2cbd61a1386696f6a7362d1a515c89616334c7076f23c45ef775b",
      "blockHash": "0x5a11226da9a7c7eb1bdd0fcd0d0468eefd6821077917bcb6154a0b66d3cc6449",
      "blockNumber": 86461,
      "transactionIndex": 0,
      "confirmations": null,
      "from": "0x09D6b0F8DE057aC9116C0f321eA4017444de0801",
      "gasPrice": {
        "_hex": "0xdb3d6afce"
      },
      "gasLimit": {
        "_hex": "0x5208"
      },
      "to": "0x32Be343B94f860124dC4fEe278FDCBD38C102D88",
      "value": {
        "_hex": "0x3635b3864396520000"
      },
      "nonce": 2,
      "data": "0x",
      "r": "0xe477e1087c25ea73a113fd3ef1a6a56e2bf2a7cda4cc00af12a626972bcb3d24",
      "s": "0x3b9785c403cf4655768b1c1dc7f1b8cb1054163344064ebdff7579bcb1b5036d",
      "v": 28,
      "creates": null,
      "raw": "0xf86d02850db3d6afce8252089432be343b94f860124dc4fee278fdcbd38c102d88893635b3864396520000801ca0e477e1087c25ea73a113fd3ef1a6a56e2bf2a7cda4cc00af12a626972bcb3d24a03b9785c403cf4655768b1c1dc7f1b8cb1054163344064ebdff7579bcb1b5036d",
      "networkId": 0,
      "chainId": 0
    },
    {
      "hash": "0xe491f9695e2053f4eea1602ae555802fe2457715eae698408f92f7221c60e9ab",
      "blockHash": "0x5a11226da9a7c7eb1bdd0fcd0d0468eefd6821077917bcb6154a0b66d3cc6449",
      "blockNumber": 86461,
      "transactionIndex": 1,
      "confirmations": null,
      "from": "0x53D3DB7866f790FB7979eC5e9eeFf1559e6D88Fa",
      "gasPrice": {
        "_hex": "0xdb3d6afce"
      },
      "gasLimit": {
        "_hex": "0x5208"
      },
      "to": "0x32Be343B94f860124dC4fEe278FDCBD38C102D88",
      "value": {
        "_hex": "0xdca8f315f150c00"
      },
      "nonce": 0,
      "data": "0x",
      "r": "0x0147ae9ceb21c91a2a201401d7fbc5143ab8185fb224feda431b7db694ada411",
      "s": "0x5b0e421841f040b1a4dad908b2e6aa02f613c06ad02b7e786d7fac5c3d40c304",
      "v": 28,
      "creates": null,
      "raw": "0xf86c80850db3d6afce8252089432be343b94f860124dc4fee278fdcbd38c102d88880dca8f315f150c00801ca00147ae9ceb21c91a2a201401d7fbc5143ab8185fb224feda431b7db694ada411a05b0e421841f040b1a4dad908b2e6aa02f613c06ad02b7e786d7fac5c3d40c304",
      "networkId": 0,
      "chainId": 0
    },
    {
      "hash": "0x3ccb88587023981febdd13a132e4b2d7bb75de747833faa745e1779b12b4cb29",
      "blockHash": "0x5a11226da9a7c7eb1bdd0fcd0d0468eefd6821077917bcb6154a0b66d3cc6449",
      "blockNumber": 86461,
      "transactionIndex": 2,
      "confirmations": null,
      "from": "0x13aE5B35f82651Ff327d41502F0Aa90DA76D777E",
      "gasPrice": {
        "_hex": "0xdb3d6afce"
      },
      "gasLimit": {
        "_hex": "0x5208"
      },
      "to": "0x32Be343B94f860124dC4fEe278FDCBD38C102D88",
      "value": {
        "_hex": "0x8c260473d7039000"
      },
      "nonce": 3,
      "data": "0x",
      "r": "0xa650efd3b22460a6fd1ef2f68ac7253945276150e86acf5f12979d98bdcc5d8a",
      "s": "0x5d4eee0a1f779100e7efbdb0009e06e565bc7de8d98ece14b979f2c08fcafb6a",
      "v": 27,
      "creates": null,
      "raw": "0xf86c03850db3d6afce8252089432be343b94f860124dc4fee278fdcbd38c102d88888c260473d7039000801ba0a650efd3b22460a6fd1ef2f68ac7253945276150e86acf5f12979d98bdcc5d8aa05d4eee0a1f779100e7efbdb0009e06e565bc7de8d98ece14b979f2c08fcafb6a",
      "networkId": 0,
      "chainId": 0
    },
    {
      "hash": "0x3ec7d6fa3823ab3d618a5330a36bd7d7cc60ea3c6b07589350fe90efd6fda06f",
      "blockHash": "0x5a11226da9a7c7eb1bdd0fcd0d0468eefd6821077917bcb6154a0b66d3cc6449",
      "blockNumber": 86461,
      "transactionIndex": 3,
      "confirmations": null,
      "from": "0xa6BDc31c431B8F97848c9D60cbbe9660dc450eB7",
      "gasPrice": {
        "_hex": "0xdb3d6afce"
      },
      "gasLimit": {
        "_hex": "0x5208"
      },
      "to": "0x32Be343B94f860124dC4fEe278FDCBD38C102D88",
      "value": {
        "_hex": "0x455f2d7934858c00"
      },
      "nonce": 73,
      "data": "0x",
      "r": "0xe9fb6838eeed0dde3bed80657d45e649f1469425622665528b254f05c559886b",
      "s": "0x7253f72bb154393ab1c19fb11857db50edac0783628528ab292834edda121230",
      "v": 28,
      "creates": null,
      "raw": "0xf86c49850db3d6afce8252089432be343b94f860124dc4fee278fdcbd38c102d8888455f2d7934858c00801ca0e9fb6838eeed0dde3bed80657d45e649f1469425622665528b254f05c559886ba07253f72bb154393ab1c19fb11857db50edac0783628528ab292834edda121230",
      "networkId": 0,
      "chainId": 0
    },
    {
      "hash": "0xe9c73a858e08760abc8685005ce7a9aa03732d082205540d98a40d83eabd47c7",
      "blockHash": "0x5a11226da9a7c7eb1bdd0fcd0d0468eefd6821077917bcb6154a0b66d3cc6449",
      "blockNumber": 86461,
      "transactionIndex": 4,
      "confirmations": null,
      "from": "0x2910543Af39abA0Cd09dBb2D50200b3E800A63D2",
      "gasPrice": {
        "_hex": "0xd725a1ceb"
      },
      "gasLimit": {
        "_hex": "0x5208"
      },
      "to": "0x548938756fCb5655A7523f66C01F1cd40aa620bE",
      "value": {
        "_hex": "0xdcef33a6f838000"
      },
      "nonce": 664,
      "data": "0x",
      "r": "0x769018dbbbccd1e99396f2249af67c5b73c637657bf3e8038f107037e2c61628",
      "s": "0x4bd437a3eac3a23375b29d24de89d86c0d8e96f035189cad7aa531317e5e17f3",
      "v": 27,
      "creates": null,
      "raw": "0xf86e820298850d725a1ceb82520894548938756fcb5655a7523f66c01f1cd40aa620be880dcef33a6f838000801ba0769018dbbbccd1e99396f2249af67c5b73c637657bf3e8038f107037e2c61628a04bd437a3eac3a23375b29d24de89d86c0d8e96f035189cad7aa531317e5e17f3",
      "networkId": 0,
      "chainId": 0
    }
  ]
}