{
  "hash": "0x2859268215a16a96961dc67cc97670b810fd8d7acdab6f6516a6bd51bd1e670e",
  "parentHash": "0x1df5fcedcbff464b865cfa2d87485ea7333147b287dbbc106f05f9cd9aa857aa",
  "number": 85040,
  "timestamp": 1439557687,
  "nonce": "0x4a7a037303e15fc5",
  "difficulty": 2721113363189,
  "gasLimit": {
    "_hex": "0x2fefd8"
  },
  "gasUsed": {
    "_hex": "0xafa7"
  },
  "miner": "0xEF247E639d49461D25F57e9362CadE3120910Ce0",
  "extraData": "0x476574682f76312e302e312f6c696e75782f676f312e342e32",
  "transactions": [
    {
      "hash": "0x6d48d41fac798c6c2dab03d96358e6151a10adcd62c5b75aa2840f1973cc7892",
      "blockHash": "0x2859268215a16a96961dc67cc97670b810fd8d7acdab6f6516a6bd51bd1e670e",
      "blockNumber": 85040,
      "transactionIndex": 0,
      "confirmations": null,
      "from": "0x182c02d431a667bF08d1BB680306aB6feC4971e5",
      "gasPrice": {
        "_hex": "0xd49ff60b1"
      },
      "gasLimit": {
        "_hex": "0x15f90"
      },
      "to": "0xfe8635C30D5b0a49D09Fc9480d59e05d7450fd41",
      "value": {
        "_hex": "0x120a3e3987f02650"
      },
      "nonce": 0,
      "data": "0x",
      "r": "0xbfd2b8f25d887760943a1485efbc99c2b729365e2085321a3fecf8a4de0b09f9",
      "s": "0x53250b7b8557b3faf4a51608b92676b42e35ce6fac30a296d8869aa74749932c",
      "v": 28,
      "creates": null,
      "raw": "0xf86d80850d49ff60b183015f9094fe8635c30d5b0a49d09fc9480d59e05d7450fd4188120a3e3987f02650801ca0bfd2b8f25d887760943a1485efbc99c2b729365e2085321a3fecf8a4de0b09f9a053250b7b8557b3faf4a51608b92676b42e35ce6fac30a296d8869aa74749932c",
      "networkId": 0,
      "chainId": 0
    },
    {
      "hash": "0x3b8ed47f719f462e4e646c768a529894e97130f1d71fc87015d0e9db37c9c9d2",
      "blockHash": "0x2859268215a16a96961dc67cc97670b810fd8d7acdab6f6516a6bd51bd1e670e",
      "blockNumber": 85040,
      "transactionIndex": 1,
      "confirmations": null,
      "from": "0x4B11852B35058CBFB5a50c5a007b0c134927Fd8b",
      "gasPrice": {
        "_hex": "0xd319ff948"
      },
      "gasLimit": {
        "_hex": "0x15f90"
      },
      "to": "0x1C523996Cb7Cb5b0a4A48d8097E45093626b23F0",
      "value": {
        "_hex": "0x2386f26fc10000"
      },
      "nonce": 3,
      "data": "0xb214faa54141414141414141450000000000000000000000000000000000000000000000",
      "r": "0x858708f5b6768a0ece859de033e73ed87296d2db6adb956a51eac716c6abcadc",
      "s": "0x1659c722325b3f1999684d30fed462821e1089263707aefd2e13c493eaa04ab5",
      "v": 28,
      "creates": null,
      "raw": "0xf89003850d319ff94883015f90941c523996cb7cb5b0a4a48d8097e45093626b23f0872386f26fc10000a4b214faa541414141414141414500000000000000000000000000000000000000000000001ca0858708f5b6768a0ece859de033e73ed87296d2db6adb956a51eac716c6abcadca01659c722325b3f1999684d30fed462821e1089263707aefd2e13c493eaa04ab5",
      "networkId": 0,
      "chainId": 0
    }
  ]
}