{
  "hash": "0x66085897cb9c7b7ce7cca5fe91b8db69edbaa9d8d45f0c6ed507ca7ade60ae15",
  "parentHash": "0x436e92f36d9fe51cc2db093963079e116f695aef47b1c728423d8e6748ff71cf",
  "number": 56118,
  "timestamp": 1439082241,
  "nonce": "0xa4138add7dc201d4",
  "difficulty": 1635246470956,
  "gasLimit": {
    "_hex": "0x2fefd8"
  },
  "gasUsed": {
    "_hex": "0xa410"
  },
  "miner": "0x01d9DA08cc6Fb97c0DE1B6F4C28910A0859Ed1A1",
  "extraData": "0x476574682f76312e302e312f6c696e75782f676f312e342e32",
  "transactions": [
    {
      "hash": "0xf8b4e5094adde866b97a640fd88d952593b7b36da5b5d397f2ad4a3a412992fd",
      "blockHash": "0x66085897cb9c7b7ce7cca5fe91b8db69edbaa9d8d45f0c6ed507ca7ade60ae15",
      "blockNumber": 56118,
      "transactionIndex": 0,
      "confirmations": null,
      "from": "0xA8ACa748f9D312eC747F8B6578142694C7E9f399",
      "gasPrice": {
        "_hex": "0xfe71e702c6"
      },
      "gasLimit": {
        "_hex": "0x15f90"
      },
      "to": "0xB67b6BB30Bb68ED96f23f1fB8C6Da01B3C37F6D4",
      "value": {
        "_hex": "0x8ac7230489e80000"
      },
      "nonce": 1,
      "data": "0x",
      "r": "0x7a80c4919e8265fb3e2b8506f3f8826a51761b5a10832f06fed99d50a5ad9f03",
      "s": "0x2bfc9f6a2a7665568e82c0a0db14e2c199e7929b216b37ea679e59c5bb92da42",
      "v": 28,
      "creates": null,
      "raw": "0xf86d0185fe71e702c683015f9094b67b6bb30bb68ed96f23f1fb8c6da01b3c37f6d4888ac7230489e80000801ca07a80c4919e8265fb3e2b8506f3f8826a51761b5a10832f06fed99d50a5ad9f03a02bfc9f6a2a7665568e82c0a0db14e2c199e7929b216b37ea679e59c5bb92da42",
      "networkId": 0,
      "chainId": 0
    },
    {
      "hash": "0x0342df22e290c258477997c6d708ef73fd54e71de56ef329c5d46fa0b85b74c8",
      "blockHash": "0x66085897cb9c7b7ce7cca5fe91b8db69edbaa9d8d45f0c6ed507ca7ade60ae15",
      "blockNumber": 56118,
      "transactionIndex": 1,
      "confirmations": null,
      "from": "0xcF2288ef4Ebf88e86dB13D8A0E0Bf52a056582c3",
      "gasPrice": {
        "_hex": "0xd6b187d36"
      },
      "gasLimit": {
        "_hex": "0x15f90"
      },
      "to": "0x9b760457B75C17F09C52eEa70b478008fD04c941",
      "value": {
        "_hex": "0xde0b6b3a7640000"
      },
      "nonce": 0,
      "data": "0x",
      "r": "0x5ffd8b181c53dd7d06d2fb61a14497673d5b6386a15af93539dbc37586e3e027",
      "s": "0x2e354d9d8472a3d2beba25e6faec3a3692e1a76531a26cfb3121f7ee7e28ace2",
      "v": 27,
      "creates": null,
      "raw": "0xf86d80850d6b187d3683015f90949b760457b75c17f09c52eea70b478008fd04c941880de0b6b3a7640000801ba05ffd8b181c53dd7d06d2fb61a14497673d5b6386a15af93539dbc37586e3e027a02e354d9d8472a3d2beba25e6faec3a3692e1a76531a26cfb3121f7ee7e28ace2",
      "networkId": 0,
      "chainId": 0
    }
  ]
}