{
  "hash": "0x0992eb6fa7030d1da814f99a5cfd0c1548670c04d9b3bd29d6ee60a5fe4607f1",
  "parentHash": "0x9c0f50c9a90fc7d740d6b8590598d8ce364dafde51adcf3540c710c2d3d46751",
  "number": 48475,
  "timestamp": 1438957658,
  "nonce": "0x48f9f167bda14126",
  "difficulty": 1466445384309,
  "gasLimit": {
    "_hex": "0x17d66"
  },
  "gasUsed": {
    "_hex": "0x546c"
  },
  "miner": "0x84ad64deFF6B187f690634051D2a096C359D1099",
  "extraData": "0x476574682f76312e302e312f6c696e75782f676f312e342e32",
  "transactions": [
    {
      "hash": "0x11cb101f47471e9d3a36032599368ccc53db4b209d703d486be840d5c9166b67",
      "blockHash": "0x0992eb6fa7030d1da814f99a5cfd0c1548670c04d9b3bd29d6ee60a5fe4607f1",
      "blockNumber": 48475,
      "transactionIndex": 0,
      "confirmations": null,
      "from": "0x8B7780A94a7F4d3fE19fcBB9494Fd04dEBc2035E",
      "gasPrice": {
        "_hex": "0xdb2318c18"
      },
      "gasLimit": {
        "_hex": "0x15f90"
      },
      "to": "0x2910543Af39abA0Cd09dBb2D50200b3E800A63D2",
      "value": {
        "_hex": "0x38d7ea4c68000"
      },
      "nonce": 2,
      "data": "0x454e324b3536505238",
      "r": "0x03eed2276101d74d07c43967180fd3409902f25fcc39211111ce995a1b05857e",
      "s": "0x63ffc763800fe9b8de635211f3fc7c81e5008967de89ad265188948eb112a8eb",
      "v": 28,
      "creates": null,
      "raw": "0xf87502850db2318c1883015f90942910543af39aba0cd09dbb2d50200b3e800a63d287038d7ea4c6800089454e324b35365052381ca003eed2276101d74d07c43967180fd3409902f25fcc39211111ce995a1b05857ea063ffc763800fe9b8de635211f3fc7c81e5008967de89ad265188948eb112a8eb",
      "networkId": 0,
      "chainId": 0
    }
  ]
}