{
  "hash": "0xa5e81ed820a8fcb8180233d78e77edbaf5bb0ad8011dc32da18ec7495b277ec8",
  "parentHash": "0x4c43c01e013960f4cda96bbdfd2c5440ce96507281c805da004c0d930b1087a6",
  "number": 101577,
  "timestamp": 1439824893,
  "nonce": "0xe65e4d5acbfaff56",
  "difficulty": 3888239576466,
  "gasLimit": {
    "_hex": "0x2fefd8"
  },
  "gasUsed": {
    "_hex": "0x5208"
  },
  "miner": "0xf927a40C8B7F6E07c5af7FA2155B4864a4112B13",
  "extraData": "0x",
  "transactions": [
    {
      "hash": "0xe91db2ff4bc4a06683017b4cc2db5fb406b2bef7a123626237a56a19ceae2344",
      "blockHash": "0xa5e81ed820a8fcb8180233d78e77edbaf5bb0ad8011dc32da18ec7495b277ec8",
      "blockNumber": 101577,
      "transactionIndex": 0,
      "confirmations": null,
      "from": "0x665646727edaAEbB32B5F1A9b4e4F3BD867AA8fB",
      "gasPrice": {
        "_hex": "0xd5c0fa684"
      },
      "gasLimit": {
        "_hex": "0x5208"
      },
      "to": "0x32Be343B94f860124dC4fEe278FDCBD38C102D88",
      "value": {
        "_hex": "0x70f5c3887baddc000"
      },
      "nonce": 3,
      "data": "0x",
      "r": "0xd4f66ba60aa7c3c81aff563140897fbcc881280e846f7470aaa5cffaf69b2ebb",
      "s": "0x78f66e14598fd4ef9361b63d79d01b3599422dcf7c7ce260f407f91db08c957f",
      "v": 28,
      "creates": null,
      "raw": "0xf86d03850d5c0fa6848252089432be343b94f860124dc4fee278fdcbd38c102d8889070f5c3887baddc000801ca0d4f66ba60aa7c3c81aff563140897fbcc881280e846f7470aaa5cffaf69b2ebba078f66e14598fd4ef9361b63d79d01b3599422dcf7c7ce260f407f91db08c957f",
      "networkId": 0,
      "chainId": 0
    }
  ]
}