{
  "hash": "0x94353e03ea248f7076d69f9537d973518a4447a41f7055bf62aa6821f9ae889f",
  "parentHash": "0xaf5fa4751d639fa8708d7c054b908173bd2ec90a45baf431e2e235b4fe7b9cf8",
  "number": 116875,
  "timestamp": 1440099100,
  "nonce": "0x959aa18c85a1b64a",
  "difficulty": 4321293262374,
  "gasLimit": {
    "_hex": "0x2fefd8"
  },
  "gasUsed": {
    "_hex": "0x8c40"
  },
  "miner": "0xe6A7a1d47ff21B6321162AEA7C6CB457D5476Bca",
  "extraData": "0xd783010002844765746887676f312e342e32856c696e7578",
  "transactions": [
    {
      "hash": "0x497c434e5ba12e4a8fad72a920d043975679ca7b8742805f6067498f813bcc1c",
      "blockHash": "0x94353e03ea248f7076d69f9537d973518a4447a41f7055bf62aa6821f9ae889f",
      "blockNumber": 116875,
      "transactionIndex": 0,
      "confirmations": null,
      "from": "0xB1a2B43A7433dd150BB82227eD519Cd6b142d382",
      "gasPrice": {
        "_hex": "0xba43b7400"
      },
      "gasLimit": {
        "_hex": "0x201d39"
      },
      "to": "0x816c42608bC6Ad894A7d788129c408A18241FF55",
      "value": {
        "_hex": "0x0"
      },
      "nonce": 19,
      "data": "0x797af6278836ea6fd7d751594b6540484536a055a1dba3a3362cbb041ae3c4503a0d749d",
      "r": "0x935710caae1fd686dca68a5558c25ec6a16c10e05b8344d9c20db2bfee322e9d",
      "s": "0x36d1ceabae1fe046813a03298b02ff10253ab2c99f744f9315f70639e74b0ae2",
      "v": 27,
      "creates": null,
      "raw": "0xf88913850ba43b740083201d3994816c42608bc6ad894a7d788129c408a18241ff5580a4797af6278836ea6fd7d751594b6540484536a055a1dba3a3362cbb041ae3c4503a0d749d1ba0935710caae1fd686dca68a5558c25ec6a16c10e05b8344d9c20db2bfee322e9da036d1ceabae1fe046813a03298b02ff10253ab2c99f744f9315f70639e74b0ae2",
      "networkId": 0,
      "chainId": 0
    }
  ]
}