{
  "hash": "0x600df0ab390a3c6a2e331e17a08d3bf5b41972c4b6c2b1ed0722322df698c817",
  "parentHash": "0xab2a201632a6552f84df45022b27e807afcbe00ad3d5ec09e4afd24aa45a4fc3",
  "number": 47185,
  "timestamp": 1438935748,
  "nonce": "0xa66b4b63f38ce672",
  "difficulty": 1459526887656,
  "gasLimit": {
    "_hex": "0xa058"
  },
  "gasUsed": {
    "_hex": "0x5208"
  },
  "miner": "0x3cdA97032227293AaeAEF72f44C1AdCfC3daF366",
  "extraData": "0x476574682f76312e302e312d38326566323666362f6c696e75782f676f312e34",
  "transactions": [
    {
      "hash": "0xec2579e9f03bc824b9d76df7d0710e54b92f5d6fa3bc240077d0de2877338ea8",
      "blockHash": "0x600df0ab390a3c6a2e331e17a08d3bf5b41972c4b6c2b1ed0722322df698c817",
      "blockNumber": 47185,
      "transactionIndex": 0,
      "confirmations": null,
      "from": "0x1406854D149E081aC09Cb4CA560Da463f3123059",
      "gasPrice": {
        "_hex": "0xdc96bdc32"
      },
      "gasLimit": {
        "_hex": "0x9c40"
      },
      "to": "0x11594d28A010e5c8e92576098d0d543eA32776FC",
      "value": {
        "_hex": "0x1a055690d9db80000"
      },
      "nonce": 5,
      "data": "0x",
      "r": "0x952629c1b5977eee3a3f4a443e7e79e8bea4e6815dcfe00af5b99df2517d03fc",
      "s": "0x3f6fdc06659724b13c38f5b8567ea8b7344c1c04e44caa699b2e4dfc7464423b",
      "v": 27,
      "creates": null,
      "raw": "0xf86d05850dc96bdc32829c409411594d28a010e5c8e92576098d0d543ea32776fc8901a055690d9db80000801ba0952629c1b5977eee3a3f4a443e7e79e8bea4e6815dcfe00af5b99df2517d03fca03f6fdc06659724b13c38f5b8567ea8b7344c1c04e44caa699b2e4dfc7464423b",
      "networkId": 0,
      "chainId": 0
    }
  ]
}