{
  "hash": "0xad55511e70dfdb9032346c0bb3f09787aba590957c04a9a77e6915bcfe727a01",
  "parentHash": "0x04fb274659b010a8887197f3e50ceb0eb94f4052868149936c1a84ea6bbdbf4b",
  "number": 57688,
  "timestamp": 1439107777,
  "nonce": "0xbbef6b753099feef",
  "difficulty": 1733599938523,
  "gasLimit": {
    "_hex": "0x2fe3de"
  },
  "gasUsed": {
    "_hex": "0x5208"
  },
  "miner": "0x70C6b45fe0A5116E97B112B806A76E2F51E24413",
  "extraData": "0x476574682f76312e302e302f77696e646f77732f676f312e342e32",
  "transactions": [
    {
      "hash": "0x6e9d119752e5c2fd4d9d259053eff31da134063c7bdb40e900d6d481f201535b",
      "blockHash": "0xad55511e70dfdb9032346c0bb3f09787aba590957c04a9a77e6915bcfe727a01",
      "blockNumber": 57688,
      "transactionIndex": 0,
      "confirmations": null,
      "from": "0xA6b29e26494CECc2a3efB991977B235A1125bD4E",
      "gasPrice": {
        "_hex": "0x746a528800"
      },
      "gasLimit": {
        "_hex": "0x5b04"
      },
      "to": "0x7303d31c9260c2f8EF1f33B8132E2becf5B2A585",
      "value": {
        "_hex": "0xde0b6b3a7640000"
      },
      "nonce": 0,
      "data": "0x",
      "r": "0x019b448b49cfdc4d63521bb1c21fe5413df8f0eaed4a190a4116a1ad4efd8f25",
      "s": "0x09418079b01206f38b44c803839d7d4e25f45e03e2f00d461d7c9581e21e60fd",
      "v": 27,
      "creates": null,
      "raw": "0xf86c8085746a528800825b04947303d31c9260c2f8ef1f33b8132e2becf5b2a585880de0b6b3a7640000801ba0019b448b49cfdc4d63521bb1c21fe5413df8f0eaed4a190a4116a1ad4efd8f25a009418079b01206f38b44c803839d7d4e25f45e03e2f00d461d7c9581e21e60fd",
      "networkId": 0,
      "chainId": 0
    }
  ]
}