{
  "hash": "0xba05c1f3e49cf1cda7adcfddbc0a7228beffaccdffc069b4e10f33a78dd14c21",
  "parentHash": "0x5af072b890d6fa4ef0599cfd893f623f5dd9e0d118910037a3a4548480e6c2eb",
  "number": 83187,
  "timestamp": 1439531570,
  "nonce": "0x669234327b888550",
  "difficulty": 2412483072948,
  "gasLimit": {
    "_hex": "0x2fefd8"
  },
  "gasUsed": {
    "_hex": "0x5208"
  },
  "miner": "0xe6A7a1d47ff21B6321162AEA7C6CB457D5476Bca",
  "extraData": "0x476574682f76312e302e312d38326566323666362f6c696e75782f676f312e34",
  "transactions": [
    {
      "hash": "0x5fa33740cdf657d38d0f2bf015f0cb01396e1c2638818f37c6e58cc9926413c3",
      "blockHash": "0xba05c1f3e49cf1cda7adcfddbc0a7228beffaccdffc069b4e10f33a78dd14c21",
      "blockNumber": 83187,
      "transactionIndex": 0,
      "confirmations": null,
      "from": "0xF2d2AfF1320476cb8C6b607199D23175cc595693",
      "gasPrice": {
        "_hex": "0xd62308b4d"
      },
      "gasLimit": {
        "_hex": "0x15f90"
      },
      "to": "0xF5EeDc192aB70b08D8354384aD94efD095849E00",
      "value": {
        "_hex": "0x2b5e3af16b1880000"
      },
      "nonce": 38,
      "data": "0x",
      "r": "0xc79a44ff6d9912dd10b8400eed992136b6e3f2778b873cd51a18ce9f1f2d92d6",
      "s": "0x08323627dfbab3ebc2e6991eb1df8f68488257d155081484cb2e8b9816a63338",
      "v": 27,
      "creates": null,
      "raw": "0xf86e26850d62308b4d83015f9094f5eedc192ab70b08d8354384ad94efd095849e008902b5e3af16b1880000801ba0c79a44ff6d9912dd10b8400eed992136b6e3f2778b873cd51a18ce9f1f2d92d6a008323627dfbab3ebc2e6991eb1df8f68488257d155081484cb2e8b9816a63338",
      "networkId": 0,
      "chainId": 0
    }
  ]
}