{
  "hash": "0x7c409647482475a915eecc4ee4170b99017b5b8f167755f07d0372dec656c703",
  "parentHash": "0xcd0216c8761031f16ffe1c904d7c0b1e180475ad2207f0d806e3a53babc2f316",
  "number": 71479,
  "timestamp": 1439336758,
  "nonce": "0x9d35858380c2fc65",
  "difficulty": 2178282249354,
  "gasLimit": {
    "_hex": "0x2fefd8"
  },
  "gasUsed": {
    "_hex": "0xad20"
  },
  "miner": "0xa50ec0D39fa913E62f1Bae7074E6F36caA71855b",
  "extraData": "0x",
  "transactions": [
    {
      "hash": "0x0877b0fc56466c915cac0a59ac0b3e281773bedfb8f45a7d10b4be151006d0ef",
      "blockHash": "0x7c409647482475a915eecc4ee4170b99017b5b8f167755f07d0372dec656c703",
      "blockNumber": 71479,
      "transactionIndex": 0,
      "confirmations": null,
      "from": "0x9d43a960d520cC21608309e5893fd421B09a55Cc",
      "gasPrice": {
        "_hex": "0xdc02fcffa"
      },
      "gasLimit": {
        "_hex": "0x15f90"
      },
      "to": "0x0000000000000000000000000000000000000000",
      "value": {
        "_hex": "0x0"
      },
      "nonce": 3,
      "data": "0xbe99a98044435553440000000000000000000000000000000000000000000000000000000000000000000000000000009d43a960d520cc21608309e5893fd421b09a55cc0000000000000000000000000000000000000000000000000000000000000001",
      "r": "0xf36deb4043d66cc76314c422141148b74da3a769e582113a75d84b4209180ab9",
      "s": "0x68b8e6dc50a6ffb42f8bb57a5da2f8e67c2a09a9c26a952fd09ece3b1e76ff8d",
      "v": 28,
      "creates": null,
      "raw": "0xf8ca03850dc02fcffa83015f9094000000000000000000000000000000000000000080b864be99a98044435553440000000000000000000000000000000000000000000000000000000000000000000000000000009d43a960d520cc21608309e5893fd421b09a55cc00000000000000000000000000000000000000000000000000000000000000011ca0f36deb4043d66cc76314c422141148b74da3a769e582113a75d84b4209180ab9a068b8e6dc50a6ffb42f8bb57a5da2f8e67c2a09a9c26a952fd09ece3b1e76ff8d",
      "networkId": 0,
      "chainId": 0
    },
    {
      "hash": "0x1e9e0044bf24ebc8a19dc74619d428f61a021f83b0b247b1d896eb18f1c41f1a",
      "blockHash": "0x7c409647482475a915eecc4ee4170b99017b5b8f167755f07d0372dec656c703",
      "blockNumber": 71479,
      "transactionIndex": 1,
      "confirmations": null,
      "from": "0x88a0A05437262a1b65f41A978Cb16CB1f0BFCfE0",
      "gasPrice": {
        "_hex": "0xd81f9e514"
      },
      "gasLimit": {
        "_hex": "0x15f90"
      },
      "to": "0xC6318573a1Eb70B7B3d53F007d46fcEB3CFcEEaC",
      "value": {
        "_hex": "0xbd816a5eab73880000"
      },
      "nonce": 8,
      "data": "0x",
      "r": "0x7ec2701873c1bbd79c2de56f4ebc63ba08ac9eee86357dcaf46171e5590ec8ee",
      "s": "0x0b83fd7d131b1abc5f51689c182f06d10096007e20c0eefca63555271a99f015",
      "v": 27,
      "creates": null,
      "raw": "0xf86e08850d81f9e51483015f9094c6318573a1eb70b7b3d53f007d46fceb3cfceeac89bd816a5eab73880000801ba07ec2701873c1bbd79c2de56f4ebc63ba08ac9eee86357dcaf46171e5590ec8eea00b83fd7d131b1abc5f51689c182f06d10096007e20c0eefca63555271a99f015",
      "networkId": 0,
      "chainId": 0
    }
  ]
}