{
  "hash": "0x57df4c1a4682650461bf9fa867f72450049e4863b851bb1f97a80f5b00349664",
  "parentHash": "0xa4ba25f90cf06ea55b87f78ed43279a51abddde0d9317af43bb0332bd795f1ee",
  "number": 48689,
  "timestamp": 1438961136,
  "nonce": "0x10373fda5551dcc0",
  "difficulty": 1473585679790,
  "gasLimit": {
    "_hex": "0x1c131"
  },
  "gasUsed": {
    "_hex": "0x14ce8"
  },
  "miner": "0xab84940B570d6358ed6A9Dbf7e0bc8Ec8F5A6E89",
  "extraData": "0x322831652933",
  "transactions": [
    {
      "hash": "0x03c92a6c01828f2a21ee59617c07ae0ec2653bf21ae8a7d340362161ff3bee1e",
      "blockHash": "0x57df4c1a4682650461bf9fa867f72450049e4863b851bb1f97a80f5b00349664",
      "blockNumber": 48689,
      "transactionIndex": 0,
      "confirmations": null,
      "from": "0xe80E7fEF18a5db15B01473F3ad6B78B2a2F8ACd9",
      "gasPrice": {
        "_hex": "0x1032bbacc5d"
      },
      "gasLimit": {
        "_hex": "0x15f90"
      },
      "to": "0x2910543Af39abA0Cd09dBb2D50200b3E800A63D2",
      "value": {
        "_hex": "0x8a67e6c335a"
      },
      "nonce": 2,
      "data": "0x454e514a33374b5052",
      "r": "0x7f3ebbe556b27e8dbd7cd07fd8198dc899aae17fc1e525f0c0354680100450e4",
      "s": "0x3ff94ae84a4f4c1fafcd37fe655464ec155adcb5cc92e0e75db2ddc23b2e65fd",
      "v": 27,
      "creates": null,
      "raw": "0xf875028601032bbacc5d83015f90942910543af39aba0cd09dbb2d50200b3e800a63d28608a67e6c335a89454e514a33374b50521ba07f3ebbe556b27e8dbd7cd07fd8198dc899aae17fc1e525f0c0354680100450e4a03ff94ae84a4f4c1fafcd37fe655464ec155adcb5cc92e0e75db2ddc23b2e65fd",
      "networkId": 0,
      "chainId": 0
    },
    {
      "hash": "0x856a26c3d998f9310fd70208aff8014f5017655085bc33f1825074816c097ec4",
      "blockHash": "0x57df4c1a4682650461bf9fa867f72450049e4863b851bb1f97a80f5b00349664",
      "blockNumber": 48689,
      "transactionIndex": 1,
      "confirmations": null,
      "from": "0x3f0073d6bBE51612013aA09BC970e08E84D7BA23",
      "gasPrice": {
        "_hex": "0xd373b47de"
      },
      "gasLimit": {
        "_hex": "0x5208"
      },
      "to": "0x32Be343B94f860124dC4fEe278FDCBD38C102D88",
      "value": {
        "_hex": "0xddc7a97dadd6400"
      },
      "nonce": 1,
      "data": "0x",
      "r": "0x92a3668ba5a6d196b8fe71963a1bd3e66176fb3b5f7aa5f40eeed57ad211801a",
      "s": "0x1703e0df687cdf2946bf76bd7c5a04693140379c894fb772279fb27b1eec40f9",
      "v": 28,
      "creates": null,
      "raw": "0xf86c01850d373b47de8252089432be343b94f860124dc4fee278fdcbd38c102d88880ddc7a97dadd6400801ca092a3668ba5a6d196b8fe71963a1bd3e66176fb3b5f7aa5f40eeed57ad211801aa01703e0df687cdf2946bf76bd7c5a04693140379c894fb772279fb27b1eec40f9",
      "networkId": 0,
      "chainId": 0
    },
    {
      "hash": "0x327a539953a38ad9db7bcf22720e0e5976e862c98145309750537bc13e3863df",
      "blockHash": "0x57df4c1a4682650461bf9fa867f72450049e4863b851bb1f97a80f5b00349664",
      "blockNumber": 48689,
      "transactionIndex": 2,
      "confirmations": null,
      "from": "0xd67EA950Fe0e4a0e1367Bda02c0548BD446A8443",
      "gasPrice": {
        "_hex": "0xd373b47de"
      },
      "gasLimit": {
        "_hex": "0x5208"
      },
      "to": "0x32Be343B94f860124dC4fEe278FDCBD38C102D88",
      "value": {
        "_hex": "0xddc7a97dadd6400"
      },
      "nonce": 0,
      "data": "0x",
      "r": "0xab7ccff873a66a5ca2906d9f6888c3995b64c55a2c798503c816f64e30f52369",
      "s": "0x2e51e6ed0ecde787a2f0d4e3b88759755a5490c79360b3405a3a964eb42955c4",
      "v": 28,
      "creates": null,
      "raw": "0xf86c80850d373b47de8252089432be343b94f860124dc4fee278fdcbd38c102d88880ddc7a97dadd6400801ca0ab7ccff873a66a5ca2906d9f6888c3995b64c55a2c798503c816f64e30f52369a02e51e6ed0ecde787a2f0d4e3b88759755a5490c79360b3405a3a964eb42955c4",
      "networkId": 0,
      "chainId": 0
    },
    {
      "hash": "0x6c821d69cb6d94ffe06bdd918b442399e9f79ae94da68084432d990324bc5fc9",
      "blockHash": "0x57df4c1a4682650461bf9fa867f72450049e4863b851bb1f97a80f5b00349664",
      "blockNumber": 48689,
      "transactionIndex": 3,
      "confirmations": null,
      "from": "0x9dF32A501C0b781c0281022f42A1293FfD7B892a",
      "gasPrice": {
        "_hex": "0xba43b7400"
      },
      "gasLimit": {
        "_hex": "0x55f0"
      },
      "to": "0x2910543Af39abA0Cd09dBb2D50200b3E800A63D2",
      "value": {
        "_hex": "0x6c8743377f839df000"
      },
      "nonce": 6,
      "data": "0x454e41425441515638",
      "r": "0xfc8b4aa79d178184f934214994eaf9c59a3ca32ecadd8e4001443bfdf6fa66be",
      "s": "0x1ef0252883764faf64451a8a176ef6c7a6e85376185e1a79492a12dde4f5f365",
      "v": 28,
      "creates": null,
      "raw": "0xf87606850ba43b74008255f0942910543af39aba0cd09dbb2d50200b3e800a63d2896c8743377f839df00089454e414254415156381ca0fc8b4aa79d178184f934214994eaf9c59a3ca32ecadd8e4001443bfdf6fa66bea01ef0252883764faf64451a8a176ef6c7a6e85376185e1a79492a12dde4f5f365",
      "networkId": 0,
      "chainId": 0
    }
  ]
}