{
  "hash": "0x012611dcee6b13d523f90b33ba54210ef6fb71233aacc988e1aa1db25f290e48",
  "parentHash": "0x99232e8d1beb5b319a2a7b7add209fd1314d5e39d2aa37c9ba69cb6f3beb853b",
  "number": 107557,
  "timestamp": 1439924630,
  "nonce": "0x9ad31de59e921189",
  "difficulty": 4394222092955,
  "gasLimit": {
    "_hex": "0x2fefd8"
  },
  "gasUsed": {
    "_hex": "0xa410"
  },
  "miner": "0x9D49F602b0fdb924Bd63DDE2Bd0907E4A07c63a7",
  "extraData": "0x476574682f76312e302e312f6c696e75782f676f312e342e32",
  "transactions": [
    {
      "hash": "0x66a9a58c32e7a103128304ce8c5092b0193ac82f8090e6ef029a85c159a8dbc5",
      "blockHash": "0x012611dcee6b13d523f90b33ba54210ef6fb71233aacc988e1aa1db25f290e48",
      "blockNumber": 107557,
      "transactionIndex": 0,
      "confirmations": null,
      "from": "0x32Be343B94f860124dC4fEe278FDCBD38C102D88",
      "gasPrice": {
        "_hex": "0xd6196b502"
      },
      "gasLimit": {
        "_hex": "0x5208"
      },
      "to": "0xAfC652655281FF58244be40bd38dA4Ba5dB75199",
      "value": {
        "_hex": "0x5f0ad26ae9bb6800"
      },
      "nonce": 1225,
      "data": "0x",
      "r": "0x74270ad0e6f369dd943619f5b7471d188d3d61f2008a9f3324373b5520fc5904",
      "s": "0x058755227f3c1839641e8b04abcff8018531bdb5a601b720adf0aeb51b0d896d",
      "v": 27,
      "creates": null,
      "raw": "0xf86e8204c9850d6196b50282520894afc652655281ff58244be40bd38da4ba5db75199885f0ad26ae9bb6800801ba074270ad0e6f369dd943619f5b7471d188d3d61f2008a9f3324373b5520fc5904a0058755227f3c1839641e8b04abcff8018531bdb5a601b720adf0aeb51b0d896d",
      "networkId": 0,
      "chainId": 0
    },
    {
      "hash": "0xea8a902bd3221ba6caef3ebc1c456bfb4ef75b62fb0fb8000c4bdb40ca19bcee",
      "blockHash": "0x012611dcee6b13d523f90b33ba54210ef6fb71233aacc988e1aa1db25f290e48",
      "blockNumber": 107557,
      "transactionIndex": 1,
      "confirmations": null,
      "from": "0x32Be343B94f860124dC4fEe278FDCBD38C102D88",
      "gasPrice": {
        "_hex": "0xd6196b502"
      },
      "gasLimit": {
        "_hex": "0x5208"
      },
      "to": "0x9BCDF86092d1cD705862b8343c7CFe1a9F20d6a6",
      "value": {
        "_hex": "0x2386f26fc10000"
      },
      "nonce": 1226,
      "data": "0x",
      "r": "0x67e35859b2235510bd78087086a7f1842831a92f8d73bc6b2f5257ad3285f4c1",
      "s": "0x648df1b92c8813ba544d1be6e4e553509f5eee897ba75ee8b77c951b6b58d8cc",
      "v": 27,
      "creates": null,
      "raw": "0xf86d8204ca850d6196b502825208949bcdf86092d1cd705862b8343c7cfe1a9f20d6a6872386f26fc10000801ba067e35859b2235510bd78087086a7f1842831a92f8d73bc6b2f5257ad3285f4c1a0648df1b92c8813ba544d1be6e4e553509f5eee897ba75ee8b77c951b6b58d8cc",
      "networkId": 0,
      "chainId": 0
    }
  ]
}