{
  "hash": "0xee333618cc2720397e0b1e1bebfec65a940d0908c1a102397a2fdbd846ce4bfe",
  "parentHash": "0x685b467d3de73dc44593eebfbb7126c0ec32114274a0a5e4d51abb70ddcbaa2b",
  "number": 95097,
  "timestamp": 1439718929,
  "nonce": "0x3275f872161a0559",
  "difficulty": 3498322820552,
  "gasLimit": {
    "_hex": "0x2fefd8"
  },
  "gasUsed": {
    "_hex": "0x1f000"
  },
  "miner": "0xe6A7a1d47ff21B6321162AEA7C6CB457D5476Bca",
  "extraData": "0x476574682f76312e302e312d38326566323666362f6c696e75782f676f312e34",
  "transactions": [
    {
      "hash": "0x5550b3f90d211934bdd95418413058a3b91328a20b7c12f5c1dc0a7be4651ffd",
      "blockHash": "0xee333618cc2720397e0b1e1bebfec65a940d0908c1a102397a2fdbd846ce4bfe",
      "blockNumber": 95097,
      "transactionIndex": 0,
      "confirmations": null,
      "from": "0xD8dD71C53246d7e5C97fa2c5539dB9eF6662E6D6",
      "gasPrice": {
        "_hex": "0xd2a2f9dd1"
      },
      "gasLimit": {
        "_hex": "0x15f90"
      },
      "to": "0x0000000000000000000000000000000000000000",
      "value": {
        "_hex": "0x0"
      },
      "nonce": 0,
      "data": "0xb214faa54141414141444846420000000000000000000000000000000000000000000000",
      "r": "0x43a2a55f4fd5fcc416702b5c9dfd27b820be2dbbe091183a8b42304764ba0b8a",
      "s": "0x3adfdb1e626c828486a1a5cb663a478d0fbaa44d850ea38e98c12c87abcd32b6",
      "v": 27,
      "creates": null,
      "raw": "0xf88980850d2a2f9dd183015f9094000000000000000000000000000000000000000080a4b214faa541414141414448464200000000000000000000000000000000000000000000001ba043a2a55f4fd5fcc416702b5c9dfd27b820be2dbbe091183a8b42304764ba0b8aa03adfdb1e626c828486a1a5cb663a478d0fbaa44d850ea38e98c12c87abcd32b6",
      "networkId": 0,
      "chainId": 0
    },
    {
      "hash": "0x6eb3fcc4c628dc4d5806bf2393b2fcc0ea61066a7d5df40284fc28ac8218d976",
      "blockHash": "0xee333618cc2720397e0b1e1bebfec65a940d0908c1a102397a2fdbd846ce4bfe",
      "blockNumber": 95097,
      "transactionIndex": 1,
      "confirmations": null,
      "from": "0x007f7f58D3eb5b7510A301eCC749FC1fCDDBE14D",
      "gasPrice": {
        "_hex": "0xcc8ddf695"
      },
      "gasLimit": {
        "_hex": "0x15f90"
      },
      "to": "0xb1abce2918E21ddb93AA452731a12672A3d9F75a",
      "value": {
        "_hex": "0x4563918244f40000"
      },
      "nonce": 52,
      "data": "0x",
      "r": "0x4099ced531ab1acc6373f29f463a1f3154a28f9014989d7fd6de11cfcfbe107a",
      "s": "0x337555a74e8a8207c2aabb28952dccf0b00cba9821549a72734de79cba1bbf8e",
      "v": 28,
      "creates": null,
      "raw": "0xf86d34850cc8ddf69583015f9094b1abce2918e21ddb93aa452731a12672a3d9f75a884563918244f40000801ca04099ced531ab1acc6373f29f463a1f3154a28f9014989d7fd6de11cfcfbe107aa0337555a74e8a8207c2aabb28952dccf0b00cba9821549a72734de79cba1bbf8e",
      "networkId": 0,
      "chainId": 0
    },
    {
      "hash": "0x5123d6f37402e1fbf04f84409253c549bec627fe8b75e0d23371c88e51623efd",
      "blockHash": "0xee333618cc2720397e0b1e1bebfec65a940d0908c1a102397a2fdbd846ce4bfe",
      "blockNumber": 95097,
      "transactionIndex": 2,
      "confirmations": null,
      "from": "0x23F6B61e953f76813B95a35Cf10584B8b1ffE569",
      "gasPrice": {
        "_hex": "0xcb2515dc1"
      },
      "gasLimit": {
        "_hex": "0x5208"
      },
      "to": "0x32Be343B94f860124dC4fEe278FDCBD38C102D88",
      "value": {
        "_hex": "0x2403a92b114b540000"
      },
      "nonce": 1,
      "data": "0x",
      "r": "0x3611ed7718073f3cf1d3fabb8827e419ee08f6bf45890d69ad8f4d4bdf1b4017",
      "s": "0x0ccaab341208e82255fbe501e318b657f9152d16deed64cdaf723f12b6596f2e",
      "v": 27,
      "creates": null,
      "raw": "0xf86d01850cb2515dc18252089432be343b94f860124dc4fee278fdcbd38c102d88892403a92b114b540000801ba03611ed7718073f3cf1d3fabb8827e419ee08f6bf45890d69ad8f4d4bdf1b4017a00ccaab341208e82255fbe501e318b657f9152d16deed64cdaf723f12b6596f2e",
      "networkId": 0,
      "chainId": 0
    },
    {
      "hash": "0xbb440fd28c99152a2378c6ec9a2dcc621278f8b5f16c82101d9bc15d521db93a",
      "blockHash": "0xee333618cc2720397e0b1e1bebfec65a940d0908c1a102397a2fdbd846ce4bfe",
      "blockNumber": 95097,
      "transactionIndex": 3,
      "confirmations": null,
      "from": "0x8F79f76381Aad7B98C19aF55eE75fdfEeb012211",
      "gasPrice": {
        "_hex": "0xcb2515dc1"
      },
      "gasLimit": {
        "_hex": "0x5208"
      },
      "to": "0x32Be343B94f860124dC4fEe278FDCBD38C102D88",
      "value": {
        "_hex": "0x393eb08ccd0c54000"
      },
      "nonce": 34,
      "data": "0x",
      "r": "0x45d7f58b22b76d21f3e9945d8749c1ef47749baefedb3c625fd40d20280565ef",
      "s": "0x37dabafdf43f20030f52f14af50d107f462ab389014051ca3ac1230d96e793e4",
      "v": 27,
      "creates": null,
      "raw": "0xf86d22850cb2515dc18252089432be343b94f860124dc4fee278fdcbd38c102d88890393eb08ccd0c54000801ba045d7f58b22b76d21f3e9945d8749c1ef47749baefedb3c625fd40d20280565efa037dabafdf43f20030f52f14af50d107f462ab389014051ca3ac1230d96e793e4",
      "networkId": 0,
      "chainId": 0
    },
    {
      "hash": "0x1b6a5511154fe9a4781a598b273e722234e102c4a84c2a440733b92daccb2012",
      "blockHash": "0xee333618cc2720397e0b1e1bebfec65a940d0908c1a102397a2fdbd846ce4bfe",
      "blockNumber": 95097,
      "transactionIndex": 4,
      "confirmations": null,
      "from": "0x667C4E0FaacE20313Fe1501dDb5255174100a1C5",
      "gasPrice": {
        "_hex": "0xcb2515dc1"
      },
      "gasLimit": {
        "_hex": "0x5208"
      },
      "to": "0x32Be343B94f860124dC4fEe278FDCBD38C102D88",
      "value": {
        "_hex": "0x1027909b9c83650000"
      },
      "nonce": 1,
      "data": "0x",
      "r": "0xa3a8de0cb01d0cfdc94c7fcade1d85970b670bd742b905387c130bcc3e5b1e4b",
      "s": "0x46f07d41b0dc0ad4311e075a2b99aa4602f7ba3664e04fc24074804e33b9c327",
      "v": 28,
      "creates": null,
      "raw": "0xf86d01850cb2515dc18252089432be343b94f860124dc4fee278fdcbd38c102d88891027909b9c83650000801ca0a3a8de0cb01d0cfdc94c7fcade1d85970b670bd742b905387c130bcc3e5b1e4ba046f07d41b0dc0ad4311e075a2b99aa4602f7ba3664e04fc24074804e33b9c327",
      "networkId": 0,
      "chainId": 0
    },
    {
      "hash": "0x25e0d4114a36ba355abe8ac04c611f514a542db07f4c5798676db5daa43dea3c",
      "blockHash": "0xee333618cc2720397e0b1e1bebfec65a940d0908c1a102397a2fdbd846ce4bfe",
      "blockNumber": 95097,
      "transactionIndex": 5,
      "confirmations": null,
      "from": "0x4C9560759adF54ABEdd7318d1413C4fA49240074",
      "gasPrice": {
        "_hex": "0xba43b7400"
      },
      "gasLimit": {
        "_hex": "0x5208"
      },
      "to": "0xC47Aaa860008be6f65B58c6C6E02a84e666EfE31",
      "value": {
        "_hex": "0xf4b7e4db6721690"
      },
      "nonce": 3,
      "data": "0x",
      "r": "0xad7515a006c84daaa893d58ed222724c6fe83c109bb80ba901517b6cfadcbfae",
      "s": "0x0007b95d6b88037a0198d90017a9d7ac2165fc8e2d38cbcb1b76ec05ad42e6eb",
      "v": 28,
      "creates": null,
      "raw": "0xf86b03850ba43b740082520894c47aaa860008be6f65b58c6c6e02a84e666efe31880f4b7e4db6721690801ca0ad7515a006c84daaa893d58ed222724c6fe83c109bb80ba901517b6cfadcbfae9f07b95d6b88037a0198d90017a9d7ac2165fc8e2d38cbcb1b76ec05ad42e6eb",
      "networkId": 0,
      "chainId": 0
    }
  ]
}