{
  "hash": "0x73187c220c3cbba70829782f4ede3f31b02ffd441beedf158f02bc9966f43bc4",
  "parentHash": "0x5dbda22d5307e5a0d68c7e694d6981f78db55b48d9a986d3bd4160cdd2980410",
  "number": 87366,
  "timestamp": 1439591152,
  "nonce": "0x2f6caa3b897dbd0c",
  "difficulty": 3109782890146,
  "gasLimit": {
    "_hex": "0x2fefd8"
  },
  "gasUsed": {
    "_hex": "0x5208"
  },
  "miner": "0xBF26bdEBFe8e9CCe5f9868Ccb198d03F3de44055",
  "extraData": "0x476574682f76312e302e312f6c696e75782f676f312e342e32",
  "transactions": [
    {
      "hash": "0x9ab43a024fee526cd8d43c79e416be8712744605e93361676e0e23249dadf5c6",
      "blockHash": "0x73187c220c3cbba70829782f4ede3f31b02ffd441beedf158f02bc9966f43bc4",
      "blockNumber": 87366,
      "transactionIndex": 0,
      "confirmations": null,
      "from": "0x32Be343B94f860124dC4fEe278FDCBD38C102D88",
      "gasPrice": {
        "_hex": "0xd13e1fa2a"
      },
      "gasLimit": {
        "_hex": "0x5208"
      },
      "to": "0x009781507fC411166590C7f205FBeC84c4fbe0AA",
      "value": {
        "_hex": "0x4fc9e219db82f0000"
      },
      "nonce": 781,
      "data": "0x",
      "r": "0x40c156e6bac227de746600e028aecf3ba3a54e13d3f4eb003b38f6b4640beeb3",
      "s": "0x55837c9df1ad1c2430ec5afc2a19bff09faddb6cef93df7f5a7e4fa768bd0993",
      "v": 28,
      "creates": null,
      "raw": "0xf86f82030d850d13e1fa2a82520894009781507fc411166590c7f205fbec84c4fbe0aa8904fc9e219db82f0000801ca040c156e6bac227de746600e028aecf3ba3a54e13d3f4eb003b38f6b4640beeb3a055837c9df1ad1c2430ec5afc2a19bff09faddb6cef93df7f5a7e4fa768bd0993",
      "networkId": 0,
      "chainId": 0
    }
  ]
}