{
  "hash": "0x49aaaf74014f382f0936f5d73e2ea8fd775fba17ddf3648e8e83f642ccbc0423",
  "parentHash": "0x87df53086d3d4381909f0ca554aaedf4222a60fb9d8ccf1f5e7caf2b9a0d5499",
  "number": 91150,
  "timestamp": 1439651203,
  "nonce": "0xc2fc5cbe0add0c00",
  "difficulty": 3444025174199,
  "gasLimit": {
    "_hex": "0x2fefd8"
  },
  "gasUsed": {
    "_hex": "0x5208"
  },
  "miner": "0x123843545FB525C8E134c9A5F15ADA6865cc3848",
  "extraData": "0x476574682f76312e302e312f77696e646f77732f676f312e342e32",
  "transactions": [
    {
      "hash": "0x5bb2955cee627de829f2cab38d70b3d5731dcfdf37c6b25608a1b19003bd81f0",
      "blockHash": "0x49aaaf74014f382f0936f5d73e2ea8fd775fba17ddf3648e8e83f642ccbc0423",
      "blockNumber": 91150,
      "transactionIndex": 0,
      "confirmations": null,
      "from": "0xc15fa6D616245a5c7B7D75A6dFDcA10C0250BD2B",
      "gasPrice": {
        "_hex": "0xd345c43af"
      },
      "gasLimit": {
        "_hex": "0x15f90"
      },
      "to": "0xdeE4977F74E6Aef6D627191c9A45D2627e331150",
      "value": {
        "_hex": "0xd02ab486cedc0000"
      },
      "nonce": 5,
      "data": "0x",
      "r": "0x77816c8ab00132c15c1466e1878abc6ac0d19aa86aeeea40130566581fff3754",
      "s": "0x42b4480706626902734215a004cd15bbffc8605333183262473e6443af0d0571",
      "v": 27,
      "creates": null,
      "raw": "0xf86d05850d345c43af83015f9094dee4977f74e6aef6d627191c9a45d2627e33115088d02ab486cedc0000801ba077816c8ab00132c15c1466e1878abc6ac0d19aa86aeeea40130566581fff3754a042b4480706626902734215a004cd15bbffc8605333183262473e6443af0d0571",
      "networkId": 0,
      "chainId": 0
    }
  ]
}