{
  "hash": "0xf60002941f911524e14df0f08f98195c9dcc825fc437fd5afeccb213aeb1ead1",
  "parentHash": "0x435ec55e12618c4f66b6ba659d7bc85b7601408129326269705b9b72ca789630",
  "number": 81391,
  "timestamp": 1439500874,
  "nonce": "0xce9f6938d236710d",
  "difficulty": 2455790644319,
  "gasLimit": {
    "_hex": "0x2fefd8"
  },
  "gasUsed": {
    "_hex": "0xf87c"
  },
  "miner": "0x0eDEd3DA479d0beF8eeC92A76644D3f4E3C177f7",
  "extraData": "0x476574682f76312e302e312f6c696e75782f676f312e342e32",
  "transactions": [
    {
      "hash": "0xd9000e9ff5e7d98a91ce99f9d3a0ec364b8e5fd95e11a9430c0776cc918d94b7",
      "blockHash": "0xf60002941f911524e14df0f08f98195c9dcc825fc437fd5afeccb213aeb1ead1",
      "blockNumber": 81391,
      "transactionIndex": 0,
      "confirmations": null,
      "from": "0xEE7c3DeD7c28F459C92FE13B4d95bAFbaB02367D",
      "gasPrice": {
        "_hex": "0x110c8f7d8de"
      },
      "gasLimit": {
        "_hex": "0xc350"
      },
      "to": "0x2910543Af39abA0Cd09dBb2D50200b3E800A63D2",
      "value": {
        "_hex": "0xad78ebc5ac6200000"
      },
      "nonce": 0,
      "data": "0x454e37465444353730",
      "r": "0x92e0fa0bbd8d20c851b31224e836b531e311fd7336d396188c5da89bae245699",
      "s": "0xc0ee3f44e5e776721ee2c7676aba4536c7b846d672a3f0f254687d5f5742e1f4",
      "v": 28,
      "creates": null,
      "raw": "0xf87780860110c8f7d8de82c350942910543af39aba0cd09dbb2d50200b3e800a63d2890ad78ebc5ac620000089454e374654443537301ca092e0fa0bbd8d20c851b31224e836b531e311fd7336d396188c5da89bae245699a0c0ee3f44e5e776721ee2c7676aba4536c7b846d672a3f0f254687d5f5742e1f4",
      "networkId": 0,
      "chainId": 0
    },
    {
      "hash": "0xd89a420c849c445d0c996e3b0cdb40b1f3a3910bdfdc41c19a680a539b76b483",
      "blockHash": "0xf60002941f911524e14df0f08f98195c9dcc825fc437fd5afeccb213aeb1ead1",
      "blockNumber": 81391,
      "transactionIndex": 1,
      "confirmations": null,
      "from": "0x2910543Af39abA0Cd09dBb2D50200b3E800A63D2",
      "gasPrice": {
        "_hex": "0xd8180ca7f"
      },
      "gasLimit": {
        "_hex": "0x5208"
      },
      "to": "0xDE72E29D65eAabbD236b21c1d59a486c19AbDad5",
      "value": {
        "_hex": "0x20869a71971a7f8000"
      },
      "nonce": 477,
      "data": "0x",
      "r": "0x7e3e5739df8dccf8b0531cbb09103db764167a59fe634a85683410ac08c7dcad",
      "s": "0x374612dd949da7a3a7467a7b16101ba339c8067e88fe5a7cf699865646eba2ac",
      "v": 27,
      "creates": null,
      "raw": "0xf86f8201dd850d8180ca7f82520894de72e29d65eaabbd236b21c1d59a486c19abdad58920869a71971a7f8000801ba07e3e5739df8dccf8b0531cbb09103db764167a59fe634a85683410ac08c7dcada0374612dd949da7a3a7467a7b16101ba339c8067e88fe5a7cf699865646eba2ac",
      "networkId": 0,
      "chainId": 0
    },
    {
      "hash": "0x01bae7789977b6e2b32893ea2226bd16506889695bc792bbfbcbbb175daebea6",
      "blockHash": "0xf60002941f911524e14df0f08f98195c9dcc825fc437fd5afeccb213aeb1ead1",
      "blockNumber": 81391,
      "transactionIndex": 2,
      "confirmations": null,
      "from": "0x2910543Af39abA0Cd09dBb2D50200b3E800A63D2",
      "gasPrice": {
        "_hex": "0xd8180ca7f"
      },
      "gasLimit": {
        "_hex": "0x5208"
      },
      "to": "0x6cE2e433ffeEBfbe5541287a0489a05766a75067",
      "value": {
        "_hex": "0x8ab55f8b52078000"
      },
      "nonce": 478,
      "data": "0x",
      "r": "0xc51dcfaf0b69a7b445bb71247f4961e90f7c12e8a72404223163266d0eb10b00",
      "s": "0x790155af90990be83fafef2469c426ac31f0652e67cfb4a1d794c85afc60b638",
      "v": 28,
      "creates": null,
      "raw": "0xf86e8201de850d8180ca7f825208946ce2e433ffeebfbe5541287a0489a05766a75067888ab55f8b52078000801ca0c51dcfaf0b69a7b445bb71247f4961e90f7c12e8a72404223163266d0eb10b00a0790155af90990be83fafef2469c426ac31f0652e67cfb4a1d794c85afc60b638",
      "networkId": 0,
      "chainId": 0
    }
  ]
}