{
  "hash": "0x63ccb6d3a57281de59a6ee9f7b009de3674e922a6852d89d5c4f1cf9c07f1690",
  "parentHash": "0xda6785acf77f38a3bcd0888e8ce1869bef8585ea985f558ac4df8c60eff56f00",
  "number": 83821,
  "timestamp": 1439541402,
  "nonce": "0x89b22621d4451ef9",
  "difficulty": 2440736187633,
  "gasLimit": {
    "_hex": "0x2fefd8"
  },
  "gasUsed": {
    "_hex": "0xa410"
  },
  "miner": "0xe6A7a1d47ff21B6321162AEA7C6CB457D5476Bca",
  "extraData": "0x476574682f76312e302e312d38326566323666362f6c696e75782f676f312e34",
  "transactions": [
    {
      "hash": "0x7fef78ac7b437cff206f1f2b7b3fb9a9ffbc240509a35e4595cfa44f38998e7f",
      "blockHash": "0x63ccb6d3a57281de59a6ee9f7b009de3674e922a6852d89d5c4f1cf9c07f1690",
      "blockNumber": 83821,
      "transactionIndex": 0,
      "confirmations": null,
      "from": "0xe1237d552429cc333FfD3038Fc3ba3441d0B7ddE",
      "gasPrice": {
        "_hex": "0xd7d40ace3"
      },
      "gasLimit": {
        "_hex": "0x249f0"
      },
      "to": "0xF0A30051ac5311be4771720B49fb1d683d555520",
      "value": {
        "_hex": "0xad78ebc5ac6200000"
      },
      "nonce": 9,
      "data": "0x",
      "r": "0xfcb6c5afc9ecd35b9cdc2a6f460376620d8f38c254c7c1c8c6b108831b055d5f",
      "s": "0x1003e19b5be21b45494f9cdc9fd3b8c23b63c7a83dbfe40b528952c43c701743",
      "v": 27,
      "creates": null,
      "raw": "0xf86e09850d7d40ace3830249f094f0a30051ac5311be4771720b49fb1d683d555520890ad78ebc5ac6200000801ba0fcb6c5afc9ecd35b9cdc2a6f460376620d8f38c254c7c1c8c6b108831b055d5fa01003e19b5be21b45494f9cdc9fd3b8c23b63c7a83dbfe40b528952c43c701743",
      "networkId": 0,
      "chainId": 0
    },
    {
      "hash": "0xe3fe1dd3ad6eeaf94453d908c68c0f869a232a40436497b7eb96dcba314e5627",
      "blockHash": "0x63ccb6d3a57281de59a6ee9f7b009de3674e922a6852d89d5c4f1cf9c07f1690",
      "blockNumber": 83821,
      "transactionIndex": 1,
      "confirmations": null,
      "from": "0xDDABf13c3C8EA4e3d73d78Ec717aFafA430e5479",
      "gasPrice": {
        "_hex": "0xd32b78bc9"
      },
      "gasLimit": {
        "_hex": "0x5208"
      },
      "to": "0x428780201c611BD04Cb80F1C3f0a54F6B4D9f8a7",
      "value": {
        "_hex": "0x50c5e761a444080000"
      },
      "nonce": 2,
      "data": "0x",
      "r": "0x57d7bc02c28cd7dfb2444bca9dc0617192714e9321e31d5b63288346ba685da9",
      "s": "0x27abad17c2cc60b40f7c2fb16487d1efeb3ce34342ae612f3415dcda1c575424",
      "v": 28,
      "creates": null,
      "raw": "0xf86d02850d32b78bc982520894428780201c611bd04cb80f1c3f0a54f6b4d9f8a78950c5e761a444080000801ca057d7bc02c28cd7dfb2444bca9dc0617192714e9321e31d5b63288346ba685da9a027abad17c2cc60b40f7c2fb16487d1efeb3ce34342ae612f3415dcda1c575424",
      "networkId": 0,
      "chainId": 0
    }
  ]
}