{
  "hash": "0x887c665b0c52ccace092d817e984e2e828ef59079295897d1b65e1746d2e08e2",
  "parentHash": "0xba4ef2225108dc6053d53d2f97982e5aba2eee9d9c959d0cfeb79fd88ade550a",
  "number": 47287,
  "timestamp": 1438937401,
  "nonce": "0x9ace9cd5fb6c0e70",
  "difficulty": 1462362530490,
  "gasLimit": {
    "_hex": "0xad55"
  },
  "gasUsed": {
    "_hex": "0x5208"
  },
  "miner": "0xab84940B570d6358ed6A9Dbf7e0bc8Ec8F5A6E89",
  "extraData": "0x322831652933",
  "transactions": [
    {
      "hash": "0xd3e6a2fc34066d20bb83020b1ee95b9dc7919fd242bda3ee129a44b4558c9b8e",
      "blockHash": "0x887c665b0c52ccace092d817e984e2e828ef59079295897d1b65e1746d2e08e2",
      "blockNumber": 47287,
      "transactionIndex": 0,
      "confirmations": null,
      "from": "0xdB312D1d6A2Ccc64DD94a3892928baC82B4E8C15",
      "gasPrice": {
        "_hex": "0x174876e800"
      },
      "gasLimit": {
        "_hex": "0x5208"
      },
      "to": "0x34bB6978C5A1aD68777AD388c6787dF53903430c",
      "value": {
        "_hex": "0xde0b6b3a7640000"
      },
      "nonce": 0,
      "data": "0x",
      "r": "0x43d1e5d376e765a2c4633391f7705d82916da6ea160e73ca04bac409f814452f",
      "s": "0x751bf51cd03b8a88f1d612edf95e09b629f9e8fa84768a0a63ae229b73409a00",
      "v": 28,
      "creates": null,
      "raw": "0xf86c8085174876e8008252089434bb6978c5a1ad68777ad388c6787df53903430c880de0b6b3a7640000801ca043d1e5d376e765a2c4633391f7705d82916da6ea160e73ca04bac409f814452fa0751bf51cd03b8a88f1d612edf95e09b629f9e8fa84768a0a63ae229b73409a00",
      "networkId": 0,
      "chainId": 0
    }
  ]
}