{
  "hash": "0x9101ad846a0984499192d4f8bec0df014f9660aef8538bf4ab9ebd93680763f8",
  "parentHash": "0x429addc057c6321c32bd18cbb7ed224f70ee4b6350785bc71d68b1a82d88211e",
  "number": 55713,
  "timestamp": 1439075641,
  "nonce": "0x3fea986e1241c626",
  "difficulty": 1601347919254,
  "gasLimit": {
    "_hex": "0x2fefd8"
  },
  "gasUsed": {
    "_hex": "0x5208"
  },
  "miner": "0x123843545FB525C8E134c9A5F15ADA6865cc3848",
  "extraData": "0x476574682f76312e302e312f77696e646f77732f676f312e342e32",
  "transactions": [
    {
      "hash": "0xf87bc8742a72ade2239db3215a4f4c0d41de7bb75be980ef4ac1d764321d4c0b",
      "blockHash": "0x9101ad846a0984499192d4f8bec0df014f9660aef8538bf4ab9ebd93680763f8",
      "blockNumber": 55713,
      "transactionIndex": 0,
      "confirmations": null,
      "from": "0xDeDbaA6D17975d4edc31195983F9AFaB1529CD47",
      "gasPrice": {
        "_hex": "0xdb45968a8"
      },
      "gasLimit": {
        "_hex": "0x5208"
      },
      "to": "0x32Be343B94f860124dC4fEe278FDCBD38C102D88",
      "value": {
        "_hex": "0x8ac2bed190a38000"
      },
      "nonce": 0,
      "data": "0x",
      "r": "0x2405db4db4a054abcbd142a12bdd7771573c239e0c07f27d5a8b68cbe02db063",
      "s": "0x59346bbbefe5fb8705d17c320b91175f736c9b2166bf242728894df7bf8c0f1c",
      "v": 27,
      "creates": null,
      "raw": "0xf86c80850db45968a88252089432be343b94f860124dc4fee278fdcbd38c102d88888ac2bed190a38000801ba02405db4db4a054abcbd142a12bdd7771573c239e0c07f27d5a8b68cbe02db063a059346bbbefe5fb8705d17c320b91175f736c9b2166bf242728894df7bf8c0f1c",
      "networkId": 0,
      "chainId": 0
    }
  ]
}