{
  "hash": "0x66b6a71fe2eb8cd91f58916bcca40bf91a2d0050c3e7654577041b5cce6954ae",
  "parentHash": "0xafc5ee9d8982f73d36287948a84bd165302defe4b61df7b2d4314c047d30e891",
  "number": 113499,
  "timestamp": 1440024660,
  "nonce": "0x4c0aff4d51ba54f0",
  "difficulty": 4447212471951,
  "gasLimit": {
    "_hex": "0x2fefd8"
  },
  "gasUsed": {
    "_hex": "0x5208"
  },
  "miner": "0xf927a40C8B7F6E07c5af7FA2155B4864a4112B13",
  "extraData": "0x",
  "transactions": [
    {
      "hash": "0x1bf8b6276e730d63145bbe6df405236cd0ed03b38ac3055899f73c61c959f3e3",
      "blockHash": "0x66b6a71fe2eb8cd91f58916bcca40bf91a2d0050c3e7654577041b5cce6954ae",
      "blockNumber": 113499,
      "transactionIndex": 0,
      "confirmations": null,
      "from": "0x790b8a3cE86E707ED0eD32bF89B3269692a23CC1",
      "gasPrice": {
        "_hex": "0xd65b28ad0"
      },
      "gasLimit": {
        "_hex": "0x15f90"
      },
      "to": "0x4D67f4F0Db45b3B5a3424B39ed8d972F710381D5",
      "value": {
        "_hex": "0x2f9e3fb2098f20000"
      },
      "nonce": 50,
      "data": "0x",
      "r": "0x4df2c9610822a1a93662dd31e9c760b54e5f58fd1f1d502b389507718c6d3a71",
      "s": "0x04af0eb01ce4eaaa1fcd60dba24900b6dbd13239c689cf582e743bbd5ca893c6",
      "v": 28,
      "creates": null,
      "raw": "0xf86e32850d65b28ad083015f90944d67f4f0db45b3b5a3424b39ed8d972f710381d58902f9e3fb2098f20000801ca04df2c9610822a1a93662dd31e9c760b54e5f58fd1f1d502b389507718c6d3a71a004af0eb01ce4eaaa1fcd60dba24900b6dbd13239c689cf582e743bbd5ca893c6",
      "networkId": 0,
      "chainId": 0
    }
  ]
}