{
  "hash": "0xd331972b3f85baee41f7be0a301705c78f4198367c708739b6aed322466ecb0e",
  "parentHash": "0x1ace9a334992c96f49c4dda5eb46ff51552203ea2cccba04e0ea2844a0c641f5",
  "number": 93315,
  "timestamp": 1439687621,
  "nonce": "0x35e037a0015cac8e",
  "difficulty": 3533404014227,
  "gasLimit": {
    "_hex": "0x2fe43a"
  },
  "gasUsed": {
    "_hex": "0x5208"
  },
  "miner": "0xd0DF24FD0DfcDc3850D1590dAA1D03ca7706b11B",
  "extraData": "0x476574682f76312e302e302f77696e646f77732f676f312e342e32",
  "transactions": [
    {
      "hash": "0x92ee6f98b8c3142578b977ded775a0745306596e3c8e1ec733cd97f9bc22ae97",
      "blockHash": "0xd331972b3f85baee41f7be0a301705c78f4198367c708739b6aed322466ecb0e",
      "blockNumber": 93315,
      "transactionIndex": 0,
      "confirmations": null,
      "from": "0x835ad98Ab8AF27814f6563b3117d6B0Ab897F83b",
      "gasPrice": {
        "_hex": "0x10f0071a149"
      },
      "gasLimit": {
        "_hex": "0x15f90"
      },
      "to": "0x37c004E1cfDc61738ddA1284Cab255A81e2F00e1",
      "value": {
        "_hex": "0x6a94d74f430000"
      },
      "nonce": 1,
      "data": "0x",
      "r": "0x3b11c89aeb9ca9f6f36c66213fb700ed693377591eaa12fdec72f915f6500d14",
      "s": "0x5729d1226f43391be0af070d171466d2de8d12d9558c11ab223216969aa3a98b",
      "v": 28,
      "creates": null,
      "raw": "0xf86d0186010f0071a14983015f909437c004e1cfdc61738dda1284cab255a81e2f00e1876a94d74f430000801ca03b11c89aeb9ca9f6f36c66213fb700ed693377591eaa12fdec72f915f6500d14a05729d1226f43391be0af070d171466d2de8d12d9558c11ab223216969aa3a98b",
      "networkId": 0,
      "chainId": 0
    }
  ]
}