{
  "hash": "0xce38a0c30f5d76bba1ee2e4acc0240134c1412066aa6d62c012e61fcb8bcc1a4",
  "parentHash": "0x0b669387cbf6be80f8d98f36511b521bebdb63cffb72d333d9162c8ef228018a",
  "number": 79364,
  "timestamp": 1439468228,
  "nonce": "0x4c5d526739f41f82",
  "difficulty": 2354221099068,
  "gasLimit": {
    "_hex": "0x2fefd8"
  },
  "gasUsed": {
    "_hex": "0x5208"
  },
  "miner": "0xe6A7a1d47ff21B6321162AEA7C6CB457D5476Bca",
  "extraData": "0x476574682f76312e302e312d38326566323666362f6c696e75782f676f312e34",
  "transactions": [
    {
      "hash": "0x92ec3785ff295679895cb44e038dec1f049e68df4f59a1a4a77aa4df543ef643",
      "blockHash": "0xce38a0c30f5d76bba1ee2e4acc0240134c1412066aa6d62c012e61fcb8bcc1a4",
      "blockNumber": 79364,
      "transactionIndex": 0,
      "confirmations": null,
      "from": "0xFD7c9117BbEB649d9b37B3D3C9917f7c12f526B3",
      "gasPrice": {
        "_hex": "0xdb4ead210"
      },
      "gasLimit": {
        "_hex": "0x5208"
      },
      "to": "0x32Be343B94f860124dC4fEe278FDCBD38C102D88",
      "value": {
        "_hex": "0x10433ff2ad671d0000"
      },
      "nonce": 11,
      "data": "0x",
      "r": "0x9c436452f6684d5fe420fe2d5125aac1cd1eec18075f3fd02e0e2308b517d945",
      "s": "0x7b9b03d0e72ff28acb7ecefecb5ab8f20bd4942b6b5bbb05106cb35281d557c2",
      "v": 27,
      "creates": null,
      "raw": "0xf86d0b850db4ead2108252089432be343b94f860124dc4fee278fdcbd38c102d888910433ff2ad671d0000801ba09c436452f6684d5fe420fe2d5125aac1cd1eec18075f3fd02e0e2308b517d945a07b9b03d0e72ff28acb7ecefecb5ab8f20bd4942b6b5bbb05106cb35281d557c2",
      "networkId": 0,
      "chainId": 0
    }
  ]
}