{
  "hash": "0x674a1723490fec37467244a2a2c2491a84bfb49e6afe3ee64007b45b1513010c",
  "parentHash": "0xc108b46e9ea7988fe9809037637179d417cc6afd91b378ce52d18ad2e5e9da28",
  "number": 46797,
  "timestamp": 1438929311,
  "nonce": "0xcea751295940c7cb",
  "difficulty": 1461020478508,
  "gasLimit": {
    "_hex": "0x79b9"
  },
  "gasUsed": {
    "_hex": "0x5208"
  },
  "miner": "0xf927a40C8B7F6E07c5af7FA2155B4864a4112B13",
  "extraData": "0x476574682f76312e302e302f6c696e75782f676f312e342e32",
  "transactions": [
    {
      "hash": "0xd23a97f00f3c7b3c8f10cf2008f26b1d6e6feb6b98f0e024fe2d4a677a15743d",
      "blockHash": "0x674a1723490fec37467244a2a2c2491a84bfb49e6afe3ee64007b45b1513010c",
      "blockNumber": 46797,
      "transactionIndex": 0,
      "confirmations": null,
      "from": "0x931Ac2444b057f80A06A4FB627f26FFA5CE41184",
      "gasPrice": {
        "_hex": "0xdbaacef91"
      },
      "gasLimit": {
        "_hex": "0x5208"
      },
      "to": "0x32Be343B94f860124dC4fEe278FDCBD38C102D88",
      "value": {
        "_hex": "0xad78a562096800000"
      },
      "nonce": 0,
      "data": "0x",
      "r": "0x9275831a4835f4532ae6391c743b2790faee83fdb5d53c885e669752ad63e5a5",
      "s": "0x287d5b45de5467c900891ec947a67c02ec2b5664eb944e034b9cd459ff343ccd",
      "v": 27,
      "creates": null,
      "raw": "0xf86d80850dbaacef918252089432be343b94f860124dc4fee278fdcbd38c102d88890ad78a562096800000801ba09275831a4835f4532ae6391c743b2790faee83fdb5d53c885e669752ad63e5a5a0287d5b45de5467c900891ec947a67c02ec2b5664eb944e034b9cd459ff343ccd",
      "networkId": 0,
      "chainId": 0
    }
  ]
}