{
  "hash": "0x18dd6ff689daa2c9e0b0fd1737a442b8363b70de61d936ff9e7114a07315de0a",
  "parentHash": "0x124f7fa51496edcddadf4b663ffed8944ee5569bde4148fb82df1233954fb9da",
  "number": 105416,
  "timestamp": 1439887181,
  "nonce": "0xf06b647e287072d1",
  "difficulty": 4376070662780,
  "gasLimit": {
    "_hex": "0x2fefd8"
  },
  "gasUsed": {
    "_hex": "0xa410"
  },
  "miner": "0xe6A7a1d47ff21B6321162AEA7C6CB457D5476Bca",
  "extraData": "0x476574682f76312e302e312d38326566323666362f6c696e75782f676f312e34",
  "transactions": [
    {
      "hash": "0x276a5eb69fc4253875cd0e387911f6aa5748f81995ba6550ad7f2a87151a3952",
      "blockHash": "0x18dd6ff689daa2c9e0b0fd1737a442b8363b70de61d936ff9e7114a07315de0a",
      "blockNumber": 105416,
      "transactionIndex": 0,
      "confirmations": null,
      "from": "0x022A006FcC619ebf387F413eF06932bAbd47AE0E",
      "gasPrice": {
        "_hex": "0xd4e66c329"
      },
      "gasLimit": {
        "_hex": "0x5208"
      },
      "to": "0x32Be343B94f860124dC4fEe278FDCBD38C102D88",
      "value": {
        "_hex": "0x150e64b1184b1a000"
      },
      "nonce": 8,
      "data": "0x",
      "r": "0x0849f9f781cf35332dd81dfc411ddf4abb61d58612ae7389f36cf3504c3912bb",
      "s": "0x5bd4bfb7eba8074e47bb3ffbf0872af6971e929b04faf67a6058871297491704",
      "v": 27,
      "creates": null,
      "raw": "0xf86d08850d4e66c3298252089432be343b94f860124dc4fee278fdcbd38c102d88890150e64b1184b1a000801ba00849f9f781cf35332dd81dfc411ddf4abb61d58612ae7389f36cf3504c3912bba05bd4bfb7eba8074e47bb3ffbf0872af6971e929b04faf67a6058871297491704",
      "networkId": 0,
      "chainId": 0
    },
    {
      "hash": "0x299b827d29e052804e6cf148be9bf42b281d157e2994bb5725d5c9b2e363134a",
      "blockHash": "0x18dd6ff689daa2c9e0b0fd1737a442b8363b70de61d936ff9e7114a07315de0a",
      "blockNumber": 105416,
      "transactionIndex": 1,
      "confirmations": null,
      "from": "0x94b20d3d932AA82aD71b86b904A3D769689351b4",
      "gasPrice": {
        "_hex": "0xd4e66c329"
      },
      "gasLimit": {
        "_hex": "0x5208"
      },
      "to": "0x32Be343B94f860124dC4fEe278FDCBD38C102D88",
      "value": {
        "_hex": "0x188ed84e002a3b000"
      },
      "nonce": 6,
      "data": "0x",
      "r": "0xbe54e74677021ac87379d8c18fadbb5e0b1e1ed5ec6d533baf1373528b3c1558",
      "s": "0x5bd866d8574951a9cf75146fe289bb2f489213c3e2cbc0e962d9fab1357bd35d",
      "v": 28,
      "creates": null,
      "raw": "0xf86d06850d4e66c3298252089432be343b94f860124dc4fee278fdcbd38c102d88890188ed84e002a3b000801ca0be54e74677021ac87379d8c18fadbb5e0b1e1ed5ec6d533baf1373528b3c1558a05bd866d8574951a9cf75146fe289bb2f489213c3e2cbc0e962d9fab1357bd35d",
      "networkId": 0,
      "chainId": 0
    }
  ]
}