{
  "hash": "0xc6fb49822aef7fc6df00e446e32a7cff1ffc87dad2c1f0d597cb06ba3b878d80",
  "parentHash": "0x5fe123d51ae7ebbe9ff47183541a14efb2f6a752b51e7c32a7c674d97ab8c9a0",
  "number": 55899,
  "timestamp": 1439078900,
  "nonce": "0x1e83d7b7b1672d98",
  "difficulty": 1610722645847,
  "gasLimit": {
    "_hex": "0x2fefd8"
  },
  "gasUsed": {
    "_hex": "0x19a28"
  },
  "miner": "0xBD744E3F13D79B33F6c8E1d5E32F8E9BA2866c46",
  "extraData": "0x476574682f76312e302e312d39613032663533372f6c696e75782f676f312e34",
  "transactions": [
    {
      "hash": "0xf3c393e855a7410973a486749851afb73ef74f491e2b72aaf76079c6145e2afd",
      "blockHash": "0xc6fb49822aef7fc6df00e446e32a7cff1ffc87dad2c1f0d597cb06ba3b878d80",
      "blockNumber": 55899,
      "transactionIndex": 0,
      "confirmations": null,
      "from": "0xe6A7a1d47ff21B6321162AEA7C6CB457D5476Bca",
      "gasPrice": {
        "_hex": "0xdd23a699c"
      },
      "gasLimit": {
        "_hex": "0x55f0"
      },
      "to": "0xA6C45aF12785c7c425684AD94576184afe192c05",
      "value": {
        "_hex": "0x1b3f0d814765fa1f0"
      },
      "nonce": 478,
      "data": "0x",
      "r": "0xd927223c4c4030adade14a9093b7e63f1f69e6effe8b0bf53f75a713d93b725e",
      "s": "0x62b19bc40a9f4207beee72c8c60994216e51b8503997dd802c0f97c0eff15e7a",
      "v": 28,
      "creates": null,
      "raw": "0xf86f8201de850dd23a699c8255f094a6c45af12785c7c425684ad94576184afe192c058901b3f0d814765fa1f0801ca0d927223c4c4030adade14a9093b7e63f1f69e6effe8b0bf53f75a713d93b725ea062b19bc40a9f4207beee72c8c60994216e51b8503997dd802c0f97c0eff15e7a",
      "networkId": 0,
      "chainId": 0
    },
    {
      "hash": "0x654697577a28641cd3d6e88887319c3763d4f04e5bfbe7f217c6df537236a7b9",
      "blockHash": "0xc6fb49822aef7fc6df00e446e32a7cff1ffc87dad2c1f0d597cb06ba3b878d80",
      "blockNumber": 55899,
      "transactionIndex": 1,
      "confirmations": null,
      "from": "0xe6A7a1d47ff21B6321162AEA7C6CB457D5476Bca",
      "gasPrice": {
        "_hex": "0xd89e4212d"
      },
      "gasLimit": {
        "_hex": "0x55f0"
      },
      "to": "0xd7C9Da7F000be9dcD742D6437dE28669DAFf0f4B",
      "value": {
        "_hex": "0x1e462b9db562c3f10"
      },
      "nonce": 479,
      "data": "0x",
      "r": "0xa163a3b181dca0e89fc5b8b4baca683e697c4daaafbc22a3dd450f85483f3218",
      "s": "0x4bdbf15f95fe4f98c2550f1cdc609fca9554129fc8aac0701e76468fe8010c99",
      "v": 28,
      "creates": null,
      "raw": "0xf86f8201df850d89e4212d8255f094d7c9da7f000be9dcd742d6437de28669daff0f4b8901e462b9db562c3f10801ca0a163a3b181dca0e89fc5b8b4baca683e697c4daaafbc22a3dd450f85483f3218a04bdbf15f95fe4f98c2550f1cdc609fca9554129fc8aac0701e76468fe8010c99",
      "networkId": 0,
      "chainId": 0
    },
    {
      "hash": "0xf08097b6f123b41a902c95a829c38e325f61a0bcf406c78321c9d0ad997ca3b4",
      "blockHash": "0xc6fb49822aef7fc6df00e446e32a7cff1ffc87dad2c1f0d597cb06ba3b878d80",
      "blockNumber": 55899,
      "transactionIndex": 2,
      "confirmations": null,
      "from": "0xe6A7a1d47ff21B6321162AEA7C6CB457D5476Bca",
      "gasPrice": {
        "_hex": "0xd89e4212d"
      },
      "gasLimit": {
        "_hex": "0x55f0"
      },
      "to": "0xc0920452d99591a4e8b190632c52754c72F73328",
      "value": {
        "_hex": "0x1efa7fbf90f3e0880"
      },
      "nonce": 480,
      "data": "0x",
      "r": "0x3bb1f1a7b1b93830433f8807927a82072f0d79fb2fe65ff7307165f0c1dc3a49",
      "s": "0x2559f2976950a479bccf7590c56e35f40ed2518c04e6d18f5808efcb3e375894",
      "v": 28,
      "creates": null,
      "raw": "0xf86f8201e0850d89e4212d8255f094c0920452d99591a4e8b190632c52754c72f733288901efa7fbf90f3e0880801ca03bb1f1a7b1b93830433f8807927a82072f0d79fb2fe65ff7307165f0c1dc3a49a02559f2976950a479bccf7590c56e35f40ed2518c04e6d18f5808efcb3e375894",
      "networkId": 0,
      "chainId": 0
    },
    {
      "hash": "0x0c864c15145e0634708e1b9125ba0a22e84035f028e890f4c8b6ca1cef31c048",
      "blockHash": "0xc6fb49822aef7fc6df00e446e32a7cff1ffc87dad2c1f0d597cb06ba3b878d80",
      "blockNumber": 55899,
      "transactionIndex": 3,
      "confirmations": null,
      "from": "0xe6A7a1d47ff21B6321162AEA7C6CB457D5476Bca",
      "gasPrice": {
        "_hex": "0xd89e4212d"
      },
      "gasLimit": {
        "_hex": "0x55f0"
      },
      "to": "0xE91Df4c9BF7dB929bf5c093da6540cd73B342fD4",
      "value": {
        "_hex": "0x216126b6776540150"
      },
      "nonce": 481,
      "data": "0x",
      "r": "0xa808cb992039042d33a3b4d72c9294248dddd776fcc8d43bbcdc173fce7904c1",
      "s": "0x5b24f63068b730b39667e246236fb63fc33ca836491a1f1e262ca7fb0b000465",
      "v": 27,
      "creates": null,
      "raw": "0xf86f8201e1850d89e4212d8255f094e91df4c9bf7db929bf5c093da6540cd73b342fd4890216126b6776540150801ba0a808cb992039042d33a3b4d72c9294248dddd776fcc8d43bbcdc173fce7904c1a05b24f63068b730b39667e246236fb63fc33ca836491a1f1e262ca7fb0b000465",
      "networkId": 0,
      "chainId": 0
    },
    {
      "hash": "0xb4fa48eef0d64a1950701db41c2939204036e1eb06c6a7ea3192d4b0cbddc7f9",
      "blockHash": "0xc6fb49822aef7fc6df00e446e32a7cff1ffc87dad2c1f0d597cb06ba3b878d80",
      "blockNumber": 55899,
      "transactionIndex": 4,
      "confirmations": null,
      "from": "0xe6A7a1d47ff21B6321162AEA7C6CB457D5476Bca",
      "gasPrice": {
        "_hex": "0xd89e4212d"
      },
      "gasLimit": {
        "_hex": "0x55f0"
      },
      "to": "0xBFdD9820a04283b289957956353b5F3C1F665EcF",
      "value": {
        "_hex": "0x22c97ac3c3676ff68"
      },
      "nonce": 482,
      "data": "0x",
      "r": "0xe8e5cbbcb72c39e1fe06f86d0248fa75a3dc3fc94c5339d8dce3e169a3c67c40",
      "s": "0x2bd405ad41c610f0c5b89458d028732329faf4420ce96a1155eb848aed6c36d1",
      "v": 27,
      "creates": null,
      "raw": "0xf86f8201e2850d89e4212d8255f094bfdd9820a04283b289957956353b5f3c1f665ecf89022c97ac3c3676ff68801ba0e8e5cbbcb72c39e1fe06f86d0248fa75a3dc3fc94c5339d8dce3e169a3c67c40a02bd405ad41c610f0c5b89458d028732329faf4420ce96a1155eb848aed6c36d1",
      "networkId": 0,
      "chainId": 0
    }
  ]
}