{
  "hash": "0x621975e1661ff0ffa71494ac7b2892bddf7d2e31d3b4a1af403d01af9732aca0",
  "parentHash": "0x02bb08406b861522ba11b0159d3569711563e7fb46cb1c44772ef1ca1369d69f",
  "number": 74458,
  "timestamp": 1439386240,
  "nonce": "0x0efaeb41b7213059",
  "difficulty": 2221540814010,
  "gasLimit": {
    "_hex": "0x2fefd8"
  },
  "gasUsed": {
    "_hex": "0x5208"
  },
  "miner": "0xe6A7a1d47ff21B6321162AEA7C6CB457D5476Bca",
  "extraData": "0x476574682f76312e302e312d38326566323666362f6c696e75782f676f312e34",
  "transactions": [
    {
      "hash": "0xc17e73f9cf5a208c682a2ceda94d48aa0ea96a3b6d1bc3a7401419a83da0bb39",
      "blockHash": "0x621975e1661ff0ffa71494ac7b2892bddf7d2e31d3b4a1af403d01af9732aca0",
      "blockNumber": 74458,
      "transactionIndex": 0,
      "confirmations": null,
      "from": "0x7fa165177F28D171bA7C17f765c1904344Ec64CB",
      "gasPrice": {
        "_hex": "0xdf6099a5c"
      },
      "gasLimit": {
        "_hex": "0x5208"
      },
      "to": "0x32Be343B94f860124dC4fEe278FDCBD38C102D88",
      "value": {
        "_hex": "0x1a050fbad6195e000"
      },
      "nonce": 10,
      "data": "0x",
      "r": "0xfd77d1286e89a9544a952d5f07a8f09088c263523adcbce244c62b8e80f2e1cc",
      "s": "0x1b5243e3665dbde2f13a0eb627da74b99744e89aabaf61b468546d0f26d9cf37",
      "v": 28,
      "creates": null,
      "raw": "0xf86d0a850df6099a5c8252089432be343b94f860124dc4fee278fdcbd38c102d888901a050fbad6195e000801ca0fd77d1286e89a9544a952d5f07a8f09088c263523adcbce244c62b8e80f2e1cca01b5243e3665dbde2f13a0eb627da74b99744e89aabaf61b468546d0f26d9cf37",
      "networkId": 0,
      "chainId": 0
    }
  ]
}