{
  "hash": "0x3595fc69cd10f0c4fa1e1087b0e0d5e13c82b9d384f0e048fbb3af5785c9e611",
  "parentHash": "0x4786bb5da32f3fd95fbbbb4f9dd2e2426f5eb4e9a81fbca91e97733126a6662d",
  "number": 96485,
  "timestamp": 1439741165,
  "nonce": "0x0b6f7d6439596018",
  "difficulty": 3665604281412,
  "gasLimit": {
    "_hex": "0x2fefd8"
  },
  "gasUsed": {
    "_hex": "0x520c"
  },
  "miner": "0xe6A7a1d47ff21B6321162AEA7C6CB457D5476Bca",
  "extraData": "0x476574682f76312e302e312d38326566323666362f6c696e75782f676f312e34",
  "transactions": [
    {
      "hash": "0xa8c9ffd1a94f7e0c469bfbb4682f24b25b10d2b88f48409cde0df3a83431168f",
      "blockHash": "0x3595fc69cd10f0c4fa1e1087b0e0d5e13c82b9d384f0e048fbb3af5785c9e611",
      "blockNumber": 96485,
      "transactionIndex": 0,
      "confirmations": null,
      "from": "0xCBfA6aF6c283B046e2772C6063b0B21553C40106",
      "gasPrice": {
        "_hex": "0xd37898bf7"
      },
      "gasLimit": {
        "_hex": "0x7530"
      },
      "to": "0xbB260315f736C40813F7711379AA02F1FCb15DC5",
      "value": {
        "_hex": "0x8ac7230489e80000"
      },
      "nonce": 0,
      "data": "0x00",
      "r": "0x0dbd90875dd77dab9591c6bced18abb1bd3de183f16e94d164ae194806f2c915",
      "s": "0x4d67e64d6044b48f4cb4674df437405644175e2eab706163ef6ab7986c703f8f",
      "v": 28,
      "creates": null,
      "raw": "0xf86c80850d37898bf782753094bb260315f736c40813f7711379aa02f1fcb15dc5888ac7230489e80000001ca00dbd90875dd77dab9591c6bced18abb1bd3de183f16e94d164ae194806f2c915a04d67e64d6044b48f4cb4674df437405644175e2eab706163ef6ab7986c703f8f",
      "networkId": 0,
      "chainId": 0
    }
  ]
}