{
  "hash": "0xe5adcbe1614e2ddbfc71899c52b585a698418e2b098bb2950c0199b231b561a0",
  "parentHash": "0x19e1007a5501c373c1b09e23d7844ced49bdf26a8b86c3f50622504e5dd98a1e",
  "number": 76123,
  "timestamp": 1439415229,
  "nonce": "0xebae8e79738f48c0",
  "difficulty": 2241801707984,
  "gasLimit": {
    "_hex": "0x2fefd5"
  },
  "gasUsed": {
    "_hex": "0x5208"
  },
  "miner": "0xf927a40C8B7F6E07c5af7FA2155B4864a4112B13",
  "extraData": "0x",
  "transactions": [
    {
      "hash": "0x9d49d9775699c3b652e9c58b69f1149cb529d5a56f1ef25711f6edd1c72a9758",
      "blockHash": "0xe5adcbe1614e2ddbfc71899c52b585a698418e2b098bb2950c0199b231b561a0",
      "blockNumber": 76123,
      "transactionIndex": 0,
      "confirmations": null,
      "from": "0x120A270bbC009644e35F0bB6ab13f95b8199c4ad",
      "gasPrice": {
        "_hex": "0xd36f90652"
      },
      "gasLimit": {
        "_hex": "0x3d090"
      },
      "to": "0x00B88D679472169CBd35a3d02192Fd24734684b4",
      "value": {
        "_hex": "0x7b2a557a6d9780000"
      },
      "nonce": 305,
      "data": "0x",
      "r": "0x5a028754dd2f831287540cfef1ae1b8776d66590caef220fbf2fa42aff638770",
      "s": "0x3ba8093ed8606e5d568d4bb529d3f694b51892c4f342702d5bf635e163932f17",
      "v": 27,
      "creates": null,
      "raw": "0xf870820131850d36f906528303d0909400b88d679472169cbd35a3d02192fd24734684b48907b2a557a6d9780000801ba05a028754dd2f831287540cfef1ae1b8776d66590caef220fbf2fa42aff638770a03ba8093ed8606e5d568d4bb529d3f694b51892c4f342702d5bf635e163932f17",
      "networkId": 0,
      "chainId": 0
    }
  ]
}