{
  "hash": "0x748e7e488dde3f1f1e20afc5b87b25a0ae12c9bba71986993aa989ac5a3cae82",
  "parentHash": "0x51bab3316f8cd954b84fd6f063f6486fbbb3a7809b5b2acbc80e5c5c04a8fa3f",
  "number": 108965,
  "timestamp": 1439949047,
  "nonce": "0xb00953fc77a002e2",
  "difficulty": 4393484599168,
  "gasLimit": {
    "_hex": "0x2fefd8"
  },
  "gasUsed": {
    "_hex": "0x5208"
  },
  "miner": "0xe6A7a1d47ff21B6321162AEA7C6CB457D5476Bca",
  "extraData": "0x476574682f76312e302e312d38326566323666362f6c696e75782f676f312e34",
  "transactions": [
    {
      "hash": "0x03531fd3c2b5d8092237fafd918d95886e776284c1103faa20184b1420b582fd",
      "blockHash": "0x748e7e488dde3f1f1e20afc5b87b25a0ae12c9bba71986993aa989ac5a3cae82",
      "blockNumber": 108965,
      "transactionIndex": 0,
      "confirmations": null,
      "from": "0x86271558801531D5ccc63a57d6980c476648fc3a",
      "gasPrice": {
        "_hex": "0xdc6ecf82a"
      },
      "gasLimit": {
        "_hex": "0x15f90"
      },
      "to": "0xefe8745972E5cF49d99F05a72ad83A23db5D0A07",
      "value": {
        "_hex": "0x1043329395b96f0000"
      },
      "nonce": 0,
      "data": "0x",
      "r": "0xb3a1150e62088c6dc8ba59315703663683fbb9c9acb8778dbea88c139d4af1f3",
      "s": "0x5c3e35fbe7f14914327ba80e0ed0c458553d8746a13298b6c7cc7e6c880af398",
      "v": 27,
      "creates": null,
      "raw": "0xf86e80850dc6ecf82a83015f9094efe8745972e5cf49d99f05a72ad83a23db5d0a07891043329395b96f0000801ba0b3a1150e62088c6dc8ba59315703663683fbb9c9acb8778dbea88c139d4af1f3a05c3e35fbe7f14914327ba80e0ed0c458553d8746a13298b6c7cc7e6c880af398",
      "networkId": 0,
      "chainId": 0
    }
  ]
}