{
  "hash": "0x7a9bffe4dad84fb2596446a2eae3bc7f810f3e6ee3650857e62831a63d3e6786",
  "parentHash": "0xfd4b2da2fbd9da1d67fa0fc7e7fe4752deaf75ef217e7742ac06fb22b11ebba9",
  "number": 121698,
  "timestamp": 1440181120,
  "nonce": "0xa7a0326e8ebc49cc",
  "difficulty": 4488659025301,
  "gasLimit": {
    "_hex": "0x2fefd8"
  },
  "gasUsed": {
    "_hex": "0x5208"
  },
  "miner": "0xe6A7a1d47ff21B6321162AEA7C6CB457D5476Bca",
  "extraData": "0xd783010002844765746887676f312e342e32856c696e7578",
  "transactions": [
    {
      "hash": "0x8fe1a9066209a2b16b699ebb9ada71737f27077c2d889d1ba6d3a2428ac1423d",
      "blockHash": "0x7a9bffe4dad84fb2596446a2eae3bc7f810f3e6ee3650857e62831a63d3e6786",
      "blockNumber": 121698,
      "transactionIndex": 0,
      "confirmations": null,
      "from": "0x263D845A19110802000139cbb7a4BBF2B2B8d6C0",
      "gasPrice": {
        "_hex": "0xda16bdb09"
      },
      "gasLimit": {
        "_hex": "0x5208"
      },
      "to": "0x32Be343B94f860124dC4fEe278FDCBD38C102D88",
      "value": {
        "_hex": "0x8302644828635000"
      },
      "nonce": 11,
      "data": "0x",
      "r": "0x1c4976de00b5249043a731395a8dd43f551bac759ec1d7663845d2a06bd58813",
      "s": "0x72d8b5a1a7a75909cb6dd1fd65b842573743456e8d59b7533f709e178572635f",
      "v": 28,
      "creates": null,
      "raw": "0xf86c0b850da16bdb098252089432be343b94f860124dc4fee278fdcbd38c102d88888302644828635000801ca01c4976de00b5249043a731395a8dd43f551bac759ec1d7663845d2a06bd58813a072d8b5a1a7a75909cb6dd1fd65b842573743456e8d59b7533f709e178572635f",
      "networkId": 0,
      "chainId": 0
    }
  ]
}