{
  "hash": "0x5974d345f9c47120aadddf41512536e405c6f4e615e09a08417bfa154a494895",
  "parentHash": "0x400724a8e9831122a03e1a9ae221fcaa9a0ccaf0f87c1f7820e532f045df14cc",
  "number": 84896,
  "timestamp": 1439555953,
  "nonce": "0x86fd0f51bdeb57e9",
  "difficulty": 2673745132692,
  "gasLimit": {
    "_hex": "0x2fefd8"
  },
  "gasUsed": {
    "_hex": "0x5208"
  },
  "miner": "0xbb7B8287f3F0a933474a79eAe42CBCa977791171",
  "extraData": "0x476574682f4c5649562f76312e302e312f6c696e75782f676f312e342e32",
  "transactions": [
    {
      "hash": "0xdbfd2e41d0eccd39e0829a493609b338ebd90f3e8d8a4e9c54a9143af46fb1c9",
      "blockHash": "0x5974d345f9c47120aadddf41512536e405c6f4e615e09a08417bfa154a494895",
      "blockNumber": 84896,
      "transactionIndex": 0,
      "confirmations": null,
      "from": "0x2910543Af39abA0Cd09dBb2D50200b3E800A63D2",
      "gasPrice": {
        "_hex": "0xe04d92155"
      },
      "gasLimit": {
        "_hex": "0x5208"
      },
      "to": "0xD05f85Eb920117eeBBf13dd94FeEA60e9eB34537",
      "value": {
        "_hex": "0x344415ff6261d6000"
      },
      "nonce": 580,
      "data": "0x",
      "r": "0x76d2493d7da42212c97679ffc6d4b7daa0773995a0b6df0a546eafb15b443d33",
      "s": "0x6cde7cbfd5f377c7cbd6577b0399e6b911698ed24c97442793e42154b0d8f659",
      "v": 28,
      "creates": null,
      "raw": "0xf86f820244850e04d9215582520894d05f85eb920117eebbf13dd94feea60e9eb34537890344415ff6261d6000801ca076d2493d7da42212c97679ffc6d4b7daa0773995a0b6df0a546eafb15b443d33a06cde7cbfd5f377c7cbd6577b0399e6b911698ed24c97442793e42154b0d8f659",
      "networkId": 0,
      "chainId": 0
    }
  ]
}