{
  "hash": "0xa5f8e27db81faa8e764b42f793db03f88b3afaa01849941a99e5a2d25b8c4857",
  "parentHash": "0x35936571e35f92b51538a02427a4b0759e52ee0406db801d57b92e81010bed98",
  "number": 115296,
  "timestamp": 1440054724,
  "nonce": "0xdb928d37d6774ac8",
  "difficulty": 4562826045057,
  "gasLimit": {
    "_hex": "0x2fefd8"
  },
  "gasUsed": {
    "_hex": "0x14820"
  },
  "miner": "0x1217627fe41A00f0b828317F43E6d58F47dBfc43",
  "extraData": "0x476574682f76312e302e302d66313265303136312f6c696e75782f676f312e34",
  "transactions": [
    {
      "hash": "0x82e3f563475b4e09410ca737e47318d5b6cf9b83504a3035b56ba953b90e120f",
      "blockHash": "0xa5f8e27db81faa8e764b42f793db03f88b3afaa01849941a99e5a2d25b8c4857",
      "blockNumber": 115296,
      "transactionIndex": 0,
      "confirmations": null,
      "from": "0x46e97208BC7F618816Cb502A2b516fb4BC41f1D3",
      "gasPrice": {
        "_hex": "0xd3a26fc50"
      },
      "gasLimit": {
        "_hex": "0x5208"
      },
      "to": "0x32Be343B94f860124dC4fEe278FDCBD38C102D88",
      "value": {
        "_hex": "0x1c49a3752b9bec00"
      },
      "nonce": 10,
      "data": "0x",
      "r": "0x1a0f50495734d01ab5c6be386fbd4bdc9e809bf2b6f13dae2ad196709ba2a920",
      "s": "0x769123941d9bbe7b0cd0fa9c9d65449b0645a10baaa4f1747d15a08d77d25989",
      "v": 28,
      "creates": null,
      "raw": "0xf86c0a850d3a26fc508252089432be343b94f860124dc4fee278fdcbd38c102d88881c49a3752b9bec00801ca01a0f50495734d01ab5c6be386fbd4bdc9e809bf2b6f13dae2ad196709ba2a920a0769123941d9bbe7b0cd0fa9c9d65449b0645a10baaa4f1747d15a08d77d25989",
      "networkId": 0,
      "chainId": 0
    },
    {
      "hash": "0xefd90cf390d18c64a699a470635252d74954738eee6b875184c116f220a9edbc",
      "blockHash": "0xa5f8e27db81faa8e764b42f793db03f88b3afaa01849941a99e5a2d25b8c4857",
      "blockNumber": 115296,
      "transactionIndex": 1,
      "confirmations": null,
      "from": "0xe6A7a1d47ff21B6321162AEA7C6CB457D5476Bca",
      "gasPrice": {
        "_hex": "0xd3905ff9d"
      },
      "gasLimit": {
        "_hex": "0x55f0"
      },
      "to": "0x34d34F0a638F6991e4E2536F41295DF6E934A646",
      "value": {
        "_hex": "0x45bc577388151328"
      },
      "nonce": 5300,
      "data": "0x",
      "r": "0x3719e2722f606b07c978df6835fd2e9664cb094f329a01fb8c1aca5b62aa6438",
      "s": "0x3e81e396d7b1c1210aaa7a672f6131767fee36037340940c17a748d330d50c78",
      "v": 28,
      "creates": null,
      "raw": "0xf86e8214b4850d3905ff9d8255f09434d34f0a638f6991e4e2536f41295df6e934a6468845bc577388151328801ca03719e2722f606b07c978df6835fd2e9664cb094f329a01fb8c1aca5b62aa6438a03e81e396d7b1c1210aaa7a672f6131767fee36037340940c17a748d330d50c78",
      "networkId": 0,
      "chainId": 0
    },
    {
      "hash": "0xa503f529a2780f3769241cb962d47c68c7afab2dbf20942cf1d0da5dba18480c",
      "blockHash": "0xa5f8e27db81faa8e764b42f793db03f88b3afaa01849941a99e5a2d25b8c4857",
      "blockNumber": 115296,
      "transactionIndex": 2,
      "confirmations": null,
      "from": "0xe6A7a1d47ff21B6321162AEA7C6CB457D5476Bca",
      "gasPrice": {
        "_hex": "0xd3905ff9d"
      },
      "gasLimit": {
        "_hex": "0x55f0"
      },
      "to": "0x19aF4b2766b8115B49E1fd31Ae71CaA12E706A96",
      "value": {
        "_hex": "0x45e6d73b3b4a68c8"
      },
      "nonce": 5301,
      "data": "0x",
      "r": "0xf24dc7a638b575f93016fc9a9db3b723e5c933ea59943577b8e61dfd93514276",
      "s": "0x22a7f9c073b77ae35ece1b7d2d3aef7810399279d6b4c3ae7af0429b166d6b35",
      "v": 27,
      "creates": null,
      "raw": "0xf86e8214b5850d3905ff9d8255f09419af4b2766b8115b49e1fd31ae71caa12e706a968845e6d73b3b4a68c8801ba0f24dc7a638b575f93016fc9a9db3b723e5c933ea59943577b8e61dfd93514276a022a7f9c073b77ae35ece1b7d2d3aef7810399279d6b4c3ae7af0429b166d6b35",
      "networkId": 0,
      "chainId": 0
    },
    {
      "hash": "0x4d903c0f7cf60dd659159444fa16ce50bd39cff335d5cb28340594fe3e560cfc",
      "blockHash": "0xa5f8e27db81faa8e764b42f793db03f88b3afaa01849941a99e5a2d25b8c4857",
      "blockNumber": 115296,
      "transactionIndex": 3,
      "confirmations": null,
      "from": "0xe6A7a1d47ff21B6321162AEA7C6CB457D5476Bca",
      "gasPrice": {
        "_hex": "0xd3905ff9d"
      },
      "gasLimit": {
        "_hex": "0x55f0"
      },
      "to": "0xAD220cCE3937674e425c9693786E3eC3615C900C",
      "value": {
        "_hex": "0x464ae93b91832f60"
      },
      "nonce": 5302,
      "data": "0x",
      "r": "0xe6fa275fecca563e28f7525c5c20b08907162aeef9809c6de14717f09d5a50cb",
      "s": "0x3d11552632e296baa3da578a1960828a501a3c780ec02e59743378e955551195",
      "v": 27,
      "creates": null,
      "raw": "0xf86e8214b6850d3905ff9d8255f094ad220cce3937674e425c9693786e3ec3615c900c88464ae93b91832f60801ba0e6fa275fecca563e28f7525c5c20b08907162aeef9809c6de14717f09d5a50cba03d11552632e296baa3da578a1960828a501a3c780ec02e59743378e955551195",
      "networkId": 0,
      "chainId": 0
    }
  ]
}