{
  "hash": "0x989e1f82ac77ee89dba52709eb88dbe5c13524950f9a23253fa8a4b701e7facc",
  "parentHash": "0xe8bd7ca29aa010daeb579cc61d578f657dfd4f0e6a53f071eb4d857b7cb1580c",
  "number": 116313,
  "timestamp": 1440071956,
  "nonce": "0x9e89245444b6f81a",
  "difficulty": 4591324750861,
  "gasLimit": {
    "_hex": "0x2fefd8"
  },
  "gasUsed": {
    "_hex": "0x5208"
  },
  "miner": "0x0037ce3d4B7f8729C8607D8D0248252Be68202c0",
  "extraData": "0x476574682f76312e302e312f77696e646f77732f676f312e342e32",
  "transactions": [
    {
      "hash": "0x6b128ced77224b50856e7554dbb8327dd40b3c913cc0528f564fcc577f7a821f",
      "blockHash": "0x989e1f82ac77ee89dba52709eb88dbe5c13524950f9a23253fa8a4b701e7facc",
      "blockNumber": 116313,
      "transactionIndex": 0,
      "confirmations": null,
      "from": "0x32Be343B94f860124dC4fEe278FDCBD38C102D88",
      "gasPrice": {
        "_hex": "0xd2649b313"
      },
      "gasLimit": {
        "_hex": "0x5208"
      },
      "to": "0xAaA4BEfA989B980188a418Cc5C4C02E7d9103818",
      "value": {
        "_hex": "0x1b18adeec0d42e0000"
      },
      "nonce": 1463,
      "data": "0x",
      "r": "0x547317a5f488ff8db3370e07e51e500481d607c4d963e5eb20ab54fc73bbe57b",
      "s": "0x359bf5b8207e50890a5b06f5d93018d1cab50e347f4268bf2c1dbef1bc1943fd",
      "v": 28,
      "creates": null,
      "raw": "0xf86f8205b7850d2649b31382520894aaa4befa989b980188a418cc5c4c02e7d9103818891b18adeec0d42e0000801ca0547317a5f488ff8db3370e07e51e500481d607c4d963e5eb20ab54fc73bbe57ba0359bf5b8207e50890a5b06f5d93018d1cab50e347f4268bf2c1dbef1bc1943fd",
      "networkId": 0,
      "chainId": 0
    }
  ]
}