{
  "hash": "0x776645a7c37df2131db6f09850919503c274e68c42030d4bcd75bc7edb0fa2f0",
  "parentHash": "0x277c6ddc47ae95ed3968ea724ccf37468240d534fa1ba1817e53a57e6c84309d",
  "number": 79703,
  "timestamp": 1439473836,
  "nonce": "0x3273c4c56bc13f56",
  "difficulty": 2346093368100,
  "gasLimit": {
    "_hex": "0x2fefd8"
  },
  "gasUsed": {
    "_hex": "0x5208"
  },
  "miner": "0xC603Ab5ef41fC61AA8b76bEddb09e3Cfcbb174BD",
  "extraData": "0x476574682f76312e302e312f77696e646f77732f676f312e342e32",
  "transactions": [
    {
      "hash": "0x0daf94dc90ca90fb5d7e53a413058d11b0dd09e7d88e639dbf5d60cc4c737c63",
      "blockHash": "0x776645a7c37df2131db6f09850919503c274e68c42030d4bcd75bc7edb0fa2f0",
      "blockNumber": 79703,
      "transactionIndex": 0,
      "confirmations": null,
      "from": "0xc597A5d92F5dC1137D847db733cfe02c6d209f13",
      "gasPrice": {
        "_hex": "0xdb97e17b6"
      },
      "gasLimit": {
        "_hex": "0x15f90"
      },
      "to": "0x3B226d0EC157A605390F3EFC068EbF88f1193972",
      "value": {
        "_hex": "0x1ae1298ced55b0000"
      },
      "nonce": 15,
      "data": "0x",
      "r": "0x3e6c9f74de9f3d106c308f76fe8fcf64279594af6f06c8121e182f60b972ccc2",
      "s": "0x6124f2a1f0592cb113ba2b6f4758ed6076275dbe60bda1aceb4fffde43d0520a",
      "v": 27,
      "creates": null,
      "raw": "0xf86e0f850db97e17b683015f90943b226d0ec157a605390f3efc068ebf88f11939728901ae1298ced55b0000801ba03e6c9f74de9f3d106c308f76fe8fcf64279594af6f06c8121e182f60b972ccc2a06124f2a1f0592cb113ba2b6f4758ed6076275dbe60bda1aceb4fffde43d0520a",
      "networkId": 0,
      "chainId": 0
    }
  ]
}