{
  "hash": "0xdb21b2124fd9e8ee9174ee803f7b17f5a0bee7be792dc34c6ee32deb8deb33b6",
  "parentHash": "0x31c96ae997d281e842fae43b46876df14da61d3e371f9e3994c00d632eb7baa7",
  "number": 46828,
  "timestamp": 1438929855,
  "nonce": "0xb24e454e8ee58a3f",
  "difficulty": 1457452498328,
  "gasLimit": {
    "_hex": "0x7cb4"
  },
  "gasUsed": {
    "_hex": "0x5208"
  },
  "miner": "0x3222BA3F3e79eA0e31467EEE7639B57923558cCD",
  "extraData": "0x476574682f76312e302e302f77696e646f77732f676f312e342e32",
  "transactions": [
    {
      "hash": "0x2a4a0b813ea49bf4ce40b6ef26ad9b83cb1353c4c1d2e2a12f1a949c12cfdfbd",
      "blockHash": "0xdb21b2124fd9e8ee9174ee803f7b17f5a0bee7be792dc34c6ee32deb8deb33b6",
      "blockNumber": 46828,
      "transactionIndex": 0,
      "confirmations": null,
      "from": "0x6E4F1DD8EDB448D8F0F2829eb817B81ACEE45152",
      "gasPrice": {
        "_hex": "0x746a528800"
      },
      "gasLimit": {
        "_hex": "0x5b04"
      },
      "to": "0x756C55cbfa47fd23c0260F958e65866E64c096CB",
      "value": {
        "_hex": "0x38d7ea4c68000"
      },
      "nonce": 0,
      "data": "0x",
      "r": "0xd0355276490a687ec65116eb706cbfcb1eaf5ac6c7729188c9d5506ab28299ba",
      "s": "0x7e88540d638c88511993554ee2d7250f41d5f10629dc573ba2de1f33baef80d5",
      "v": 27,
      "creates": null,
      "raw": "0xf86b8085746a528800825b0494756c55cbfa47fd23c0260f958e65866e64c096cb87038d7ea4c68000801ba0d0355276490a687ec65116eb706cbfcb1eaf5ac6c7729188c9d5506ab28299baa07e88540d638c88511993554ee2d7250f41d5f10629dc573ba2de1f33baef80d5",
      "networkId": 0,
      "chainId": 0
    }
  ]
}