{
  "hash": "0x8ac6ea02829d1947689c1ac1b31d52135d1e50ba392d6502dde57874d9cf110a",
  "parentHash": "0x668ecc91fb1d2c88d417fb23f1690f941876e7d2741446deedafdb104ba88921",
  "number": 113438,
  "timestamp": 1440023569,
  "nonce": "0x96e94c25ba188dd0",
  "difficulty": 4462471363272,
  "gasLimit": {
    "_hex": "0x2fefd8"
  },
  "gasUsed": {
    "_hex": "0xf618"
  },
  "miner": "0x98f7A0eDF3E25675482cA52480B7e07cA828a4b9",
  "extraData": "0x476574682f76312e302e312f6c696e75782f676f312e342e32",
  "transactions": [
    {
      "hash": "0x4686bb939fdf4a63e52e5fa13d7186b55ad0fdd534e2bb7a5a73b5eba992d5c0",
      "blockHash": "0x8ac6ea02829d1947689c1ac1b31d52135d1e50ba392d6502dde57874d9cf110a",
      "blockNumber": 113438,
      "transactionIndex": 0,
      "confirmations": null,
      "from": "0x9B7280891dc19fd3A2e754cB9007203820650403",
      "gasPrice": {
        "_hex": "0xdb47bae1f"
      },
      "gasLimit": {
        "_hex": "0x5208"
      },
      "to": "0x32Be343B94f860124dC4fEe278FDCBD38C102D88",
      "value": {
        "_hex": "0x4b0315466d472400"
      },
      "nonce": 10,
      "data": "0x",
      "r": "0xf5787458b28789ef0f8ed8aaaca59c0a0febec48d5a832dc19ae691a968b682b",
      "s": "0x10bcf16579abb010cf76ce99831d6cca78566201f3112cdb04df989c9f7ef90b",
      "v": 28,
      "creates": null,
      "raw": "0xf86c0a850db47bae1f8252089432be343b94f860124dc4fee278fdcbd38c102d88884b0315466d472400801ca0f5787458b28789ef0f8ed8aaaca59c0a0febec48d5a832dc19ae691a968b682ba010bcf16579abb010cf76ce99831d6cca78566201f3112cdb04df989c9f7ef90b",
      "networkId": 0,
      "chainId": 0
    },
    {
      "hash": "0x1f673f32f9e5af1541be678e6a3885b0aa2951dbc3a0b8a793c47304892691d9",
      "blockHash": "0x8ac6ea02829d1947689c1ac1b31d52135d1e50ba392d6502dde57874d9cf110a",
      "blockNumber": 113438,
      "transactionIndex": 1,
      "confirmations": null,
      "from": "0x029b539130345336FA435C807F08B86a344A1BFe",
      "gasPrice": {
        "_hex": "0xdb47bae1f"
      },
      "gasLimit": {
        "_hex": "0x5208"
      },
      "to": "0x32Be343B94f860124dC4fEe278FDCBD38C102D88",
      "value": {
        "_hex": "0x86401d0110737000"
      },
      "nonce": 8,
      "data": "0x",
      "r": "0x30c55078500524aa418a86796bbf691694c0d42b6a3348b4020f919145251a31",
      "s": "0x6c67779abf71ee8442731318ae5e9cf01a6010cc2f2303bc71eb2deeff3218cf",
      "v": 27,
      "creates": null,
      "raw": "0xf86c08850db47bae1f8252089432be343b94f860124dc4fee278fdcbd38c102d888886401d0110737000801ba030c55078500524aa418a86796bbf691694c0d42b6a3348b4020f919145251a31a06c67779abf71ee8442731318ae5e9cf01a6010cc2f2303bc71eb2deeff3218cf",
      "networkId": 0,
      "chainId": 0
    },
    {
      "hash": "0x0b707badf973e836361b98be2717f1097121ce18a7ef83488de1592c913de9ef",
      "blockHash": "0x8ac6ea02829d1947689c1ac1b31d52135d1e50ba392d6502dde57874d9cf110a",
      "blockNumber": 113438,
      "transactionIndex": 2,
      "confirmations": null,
      "from": "0xf89583486CA3C0c21C34400638aBE4b53F993457",
      "gasPrice": {
        "_hex": "0xd654d7d99"
      },
      "gasLimit": {
        "_hex": "0x7a120"
      },
      "to": "0xBBDa93a81B882774e1c9b5e3F933Fa35DaC8bc88",
      "value": {
        "_hex": "0xde0b6b3a7640000"
      },
      "nonce": 3,
      "data": "0x",
      "r": "0x1198cd1c997983766204105e27444c766fec736a0b58357362284975652cd009",
      "s": "0x14ee71509c1c8df9c67682fcecdf7f2c5e3d29599662dec313816c91a2c17186",
      "v": 28,
      "creates": null,
      "raw": "0xf86d03850d654d7d998307a12094bbda93a81b882774e1c9b5e3f933fa35dac8bc88880de0b6b3a7640000801ca01198cd1c997983766204105e27444c766fec736a0b58357362284975652cd009a014ee71509c1c8df9c67682fcecdf7f2c5e3d29599662dec313816c91a2c17186",
      "networkId": 0,
      "chainId": 0
    }
  ]
}