{
  "hash": "0x6e9a864fb5c65566c1319e4d5b1eb773de2cd1f6a2a4b93d86a9c9972cde00c6",
  "parentHash": "0x343de93b728aacbff207e767fded3386b527f1b11b91325e1d2d7d9f85a0fe1f",
  "number": 104738,
  "timestamp": 1439874554,
  "nonce": "0x614d0624776a11d1",
  "difficulty": 4376424368203,
  "gasLimit": {
    "_hex": "0x2fefd8"
  },
  "gasUsed": {
    "_hex": "0x5208"
  },
  "miner": "0xe6A7a1d47ff21B6321162AEA7C6CB457D5476Bca",
  "extraData": "0x476574682f76312e302e312d38326566323666362f6c696e75782f676f312e34",
  "transactions": [
    {
      "hash": "0x39606cdf825f4da8ae7dce18a3492a522af4b430832e180758e654a7d6a53603",
      "blockHash": "0x6e9a864fb5c65566c1319e4d5b1eb773de2cd1f6a2a4b93d86a9c9972cde00c6",
      "blockNumber": 104738,
      "transactionIndex": 0,
      "confirmations": null,
      "from": "0x120A270bbC009644e35F0bB6ab13f95b8199c4ad",
      "gasPrice": {
        "_hex": "0xcd60fd9be"
      },
      "gasLimit": {
        "_hex": "0x3d090"
      },
      "to": "0x26eAB902725342208bC79c5Bfa2C5fE795f7aeD6",
      "value": {
        "_hex": "0x48dbbf2f2ecd00000"
      },
      "nonce": 755,
      "data": "0x",
      "r": "0xf16eeeeea0b1625bfb52e9437fce73dd87a3e421c7bc02abac85c28216dfee94",
      "s": "0x717a8b62bff81ea4d71aa37d6fa32f0d2a132c722d02e00fdfb07ddbb4958206",
      "v": 28,
      "creates": null,
      "raw": "0xf8708202f3850cd60fd9be8303d0909426eab902725342208bc79c5bfa2c5fe795f7aed689048dbbf2f2ecd00000801ca0f16eeeeea0b1625bfb52e9437fce73dd87a3e421c7bc02abac85c28216dfee94a0717a8b62bff81ea4d71aa37d6fa32f0d2a132c722d02e00fdfb07ddbb4958206",
      "networkId": 0,
      "chainId": 0
    }
  ]
}