{
  "hash": "0x2b64ee8583f22bb67f0a17220b5b16afef9363a33775cd5b8d9f371c5db93226",
  "parentHash": "0xb14c5974abcdbeab08f419c5f8d5ade926923a66afbb7ae4ca2134f4bea56239",
  "number": 56762,
  "timestamp": 1439092031,
  "nonce": "0x08311edfa18928b6",
  "difficulty": 1693628081640,
  "gasLimit": {
    "_hex": "0x2fefd8"
  },
  "gasUsed": {
    "_hex": "0x546c"
  },
  "miner": "0x01d9DA08cc6Fb97c0DE1B6F4C28910A0859Ed1A1",
  "extraData": "0x476574682f76312e302e312f6c696e75782f676f312e342e32",
  "transactions": [
    {
      "hash": "0x909e0170c4db9fd4b83503eb8b605cc92e78875bc518e55ea5757c183928f080",
      "blockHash": "0x2b64ee8583f22bb67f0a17220b5b16afef9363a33775cd5b8d9f371c5db93226",
      "blockNumber": 56762,
      "transactionIndex": 0,
      "confirmations": null,
      "from": "0xC992BE59C6721caF4E028f9E8f05C25c55515bD4",
      "gasPrice": {
        "_hex": "0x110c8f7d8de"
      },
      "gasLimit": {
        "_hex": "0xc350"
      },
      "to": "0x2910543Af39abA0Cd09dBb2D50200b3E800A63D2",
      "value": {
        "_hex": "0x107ad8f556c6c0000"
      },
      "nonce": 0,
      "data": "0x454e43344335354247",
      "r": "0x6313ab626fac82b82cb16d8e767073078bff71348442c6c540b81dcc8a0d14aa",
      "s": "0xc9d020ddcdfbf48337a114f448b9cc7626176315c9f2a5b7ae00c3cb3861bb14",
      "v": 28,
      "creates": null,
      "raw": "0xf87780860110c8f7d8de82c350942910543af39aba0cd09dbb2d50200b3e800a63d2890107ad8f556c6c000089454e433443353542471ca06313ab626fac82b82cb16d8e767073078bff71348442c6c540b81dcc8a0d14aaa0c9d020ddcdfbf48337a114f448b9cc7626176315c9f2a5b7ae00c3cb3861bb14",
      "networkId": 0,
      "chainId": 0
    }
  ]
}