{
  "hash": "0xefc5a93bf51872019100667a1be56362f4115980ac62fedc1ea45379ef4ca81f",
  "parentHash": "0x5e45cdfa863ae63fa4abcb48dc0cfad5b0ed8e97c38fd8e73450037f5ec89df6",
  "number": 47356,
  "timestamp": 1438938803,
  "nonce": "0x28a3b74a57636184",
  "difficulty": 1455938256201,
  "gasLimit": {
    "_hex": "0xb433"
  },
  "gasUsed": {
    "_hex": "0xa410"
  },
  "miner": "0xbb7B8287f3F0a933474a79eAe42CBCa977791171",
  "extraData": "0x476574682f4c5649562f76312e302e312f6c696e75782f676f312e342e32",
  "transactions": [
    {
      "hash": "0xc51a89e6bf97a97aff1dcdee9de727dd463fdd1db5a365f3a57e641dc619c4da",
      "blockHash": "0xefc5a93bf51872019100667a1be56362f4115980ac62fedc1ea45379ef4ca81f",
      "blockNumber": 47356,
      "transactionIndex": 0,
      "confirmations": null,
      "from": "0xe6A7a1d47ff21B6321162AEA7C6CB457D5476Bca",
      "gasPrice": {
        "_hex": "0x127461cde9"
      },
      "gasLimit": {
        "_hex": "0x5208"
      },
      "to": "0xafe246d909a81E165b0Cb3D554C7E094e3577F68",
      "value": {
        "_hex": "0xec89461af2fa7cc8"
      },
      "nonce": 120,
      "data": "0x",
      "r": "0xa6ee3526a18a597a9f5a445c0225200d53108009d6788d8194a115cbef35b916",
      "s": "0x1fa4cfe0cf1f61601c3ad61a017aa34c6ab47c2b5302dab44a8141a9a9fb1546",
      "v": 27,
      "creates": null,
      "raw": "0xf86c7885127461cde982520894afe246d909a81e165b0cb3d554c7e094e3577f6888ec89461af2fa7cc8801ba0a6ee3526a18a597a9f5a445c0225200d53108009d6788d8194a115cbef35b916a01fa4cfe0cf1f61601c3ad61a017aa34c6ab47c2b5302dab44a8141a9a9fb1546",
      "networkId": 0,
      "chainId": 0
    },
    {
      "hash": "0xd678183cf1dbf5cd9da38b15f48bf927d0d810c2e7c931f9ba1488e02c6f405a",
      "blockHash": "0xefc5a93bf51872019100667a1be56362f4115980ac62fedc1ea45379ef4ca81f",
      "blockNumber": 47356,
      "transactionIndex": 1,
      "confirmations": null,
      "from": "0xe6A7a1d47ff21B6321162AEA7C6CB457D5476Bca",
      "gasPrice": {
        "_hex": "0x127461cde9"
      },
      "gasLimit": {
        "_hex": "0x5208"
      },
      "to": "0xB7A755cBC2Bb4D94e844A9b1D1ff53420d836478",
      "value": {
        "_hex": "0xee3349be898c5ec0"
      },
      "nonce": 121,
      "data": "0x",
      "r": "0x79da895aaf20bdca51945824c9569c16e93f32abb31d405fe2a8c167ed34a858",
      "s": "0x281f5ec1cafe0839617cd61a09c42654c7d2eee1e26321fa8869b0728304fa1a",
      "v": 27,
      "creates": null,
      "raw": "0xf86c7985127461cde982520894b7a755cbc2bb4d94e844a9b1d1ff53420d83647888ee3349be898c5ec0801ba079da895aaf20bdca51945824c9569c16e93f32abb31d405fe2a8c167ed34a858a0281f5ec1cafe0839617cd61a09c42654c7d2eee1e26321fa8869b0728304fa1a",
      "networkId": 0,
      "chainId": 0
    }
  ]
}