{
  "hash": "0xfc2eec5f9673bc238334e266472c3d785b4736e868cf6c5dd09a5b4882c76403",
  "parentHash": "0x110112fb9ba9243e07ce6f83fb3ed6bae52758ce1fa94a158bff8e363b816615",
  "number": 92254,
  "timestamp": 1439669303,
  "nonce": "0x47135df9f117ae1e",
  "difficulty": 3477365319058,
  "gasLimit": {
    "_hex": "0x2fefd8"
  },
  "gasUsed": {
    "_hex": "0xa410"
  },
  "miner": "0x0193d941b50d91BE6567c7eE1C0Fe7AF498b4137",
  "extraData": "0x4a5ace9e4e",
  "transactions": [
    {
      "hash": "0xccf7c149cd945254e2ba4223e58549a18359725472fceb867061d08faaed8ae0",
      "blockHash": "0xfc2eec5f9673bc238334e266472c3d785b4736e868cf6c5dd09a5b4882c76403",
      "blockNumber": 92254,
      "transactionIndex": 0,
      "confirmations": null,
      "from": "0xa70a9a7040d542C632D8e0bE7c5513A8a5Bbc752",
      "gasPrice": {
        "_hex": "0xe11ec8247"
      },
      "gasLimit": {
        "_hex": "0x5208"
      },
      "to": "0x32Be343B94f860124dC4fEe278FDCBD38C102D88",
      "value": {
        "_hex": "0x455f0f5532980400"
      },
      "nonce": 128,
      "data": "0x",
      "r": "0x8f47c00f41126cd54c3847ab6cacb3532beeeacdefb1faa02884c0b3e50a38bf",
      "s": "0x5e67fe90bbf1b2c60d4dcfb58a08f8e2656352a46f91b12f108d3de4dcedccc4",
      "v": 28,
      "creates": null,
      "raw": "0xf86d8180850e11ec82478252089432be343b94f860124dc4fee278fdcbd38c102d8888455f0f5532980400801ca08f47c00f41126cd54c3847ab6cacb3532beeeacdefb1faa02884c0b3e50a38bfa05e67fe90bbf1b2c60d4dcfb58a08f8e2656352a46f91b12f108d3de4dcedccc4",
      "networkId": 0,
      "chainId": 0
    },
    {
      "hash": "0x6a1ba60986d07c81c3899ec0c173c8d151344f54fc02bd005610166957f99148",
      "blockHash": "0xfc2eec5f9673bc238334e266472c3d785b4736e868cf6c5dd09a5b4882c76403",
      "blockNumber": 92254,
      "transactionIndex": 1,
      "confirmations": null,
      "from": "0x79d5794171E11dd5C2f0e26E1C187319db2FE6f7",
      "gasPrice": {
        "_hex": "0xe11ec8247"
      },
      "gasLimit": {
        "_hex": "0x5208"
      },
      "to": "0x32Be343B94f860124dC4fEe278FDCBD38C102D88",
      "value": {
        "_hex": "0x455f0f52de8c2000"
      },
      "nonce": 33,
      "data": "0x",
      "r": "0xef10df035d32803c5c5f6424c2fdf50296cd3423c4619774063d430d675f243e",
      "s": "0x2bccae1827c619869badfc17ffde40b48104fb91f48ffec1a279c0d043ef95f3",
      "v": 28,
      "creates": null,
      "raw": "0xf86c21850e11ec82478252089432be343b94f860124dc4fee278fdcbd38c102d8888455f0f52de8c2000801ca0ef10df035d32803c5c5f6424c2fdf50296cd3423c4619774063d430d675f243ea02bccae1827c619869badfc17ffde40b48104fb91f48ffec1a279c0d043ef95f3",
      "networkId": 0,
      "chainId": 0
    }
  ]
}