{
  "hash": "0xbad6231d1f631afb19ecdb1fc070ca20fe72f0d003b9b06a31ae211b71845799",
  "parentHash": "0xa0aeb6c92298ae46f894b5a739b8afa9a082fedcbc5f8d09c8547e4fb1d2d1bc",
  "number": 68408,
  "timestamp": 1439287301,
  "nonce": "0xc1b74ff46097ecf2",
  "difficulty": 2020245622311,
  "gasLimit": {
    "_hex": "0x2fefd8"
  },
  "gasUsed": {
    "_hex": "0x33450"
  },
  "miner": "0xa50ec0D39fa913E62f1Bae7074E6F36caA71855b",
  "extraData": "0x",
  "transactions": [
    {
      "hash": "0x73482fdf8b83d1274171e363a2a927c508442e2be8fb40f6a71c8583a1293ef4",
      "blockHash": "0xbad6231d1f631afb19ecdb1fc070ca20fe72f0d003b9b06a31ae211b71845799",
      "blockNumber": 68408,
      "transactionIndex": 0,
      "confirmations": null,
      "from": "0x406A7611E7E28B0Cf88aC1eF2F643f932252d374",
      "gasPrice": {
        "_hex": "0xba43b7400"
      },
      "gasLimit": {
        "_hex": "0x5208"
      },
      "to": "0x938C45cfae0b71bf30402A545Ae800344ba3261f",
      "value": {
        "_hex": "0x4e1253f5de4000"
      },
      "nonce": 1,
      "data": "0x",
      "r": "0xa8b1ba0ed32d647f25c0e9e8a0ac150af2bcaf3d9709a209efd8ddf3bca82d88",
      "s": "0x2c67826ed503af35de4ae348359d35b1c670215b050eaad2cd1d4ff729f13e07",
      "v": 27,
      "creates": null,
      "raw": "0xf86b01850ba43b740082520894938c45cfae0b71bf30402a545ae800344ba3261f874e1253f5de4000801ba0a8b1ba0ed32d647f25c0e9e8a0ac150af2bcaf3d9709a209efd8ddf3bca82d88a02c67826ed503af35de4ae348359d35b1c670215b050eaad2cd1d4ff729f13e07",
      "networkId": 0,
      "chainId": 0
    },
    {
      "hash": "0x28b73edfb4a65f48c8227ef35c02f5771d49f499fa9e5d594b69e2380ce65010",
      "blockHash": "0xbad6231d1f631afb19ecdb1fc070ca20fe72f0d003b9b06a31ae211b71845799",
      "blockNumber": 68408,
      "transactionIndex": 1,
      "confirmations": null,
      "from": "0x6989DB79Af16EB387d56537D24c65aaE7791Dc31",
      "gasPrice": {
        "_hex": "0xba43b7400"
      },
      "gasLimit": {
        "_hex": "0x5208"
      },
      "to": "0x1Bb700719a9f63CD887DA4a2803feF2dFDEed9C3",
      "value": {
        "_hex": "0x4e1253f5de4000"
      },
      "nonce": 1,
      "data": "0x",
      "r": "0xee8aca1b28e597dbabad82590b975f8addd7c3b6d3b25e62d22abb7d0f035049",
      "s": "0x69dd5b692cbf1356451e2c815277de6ac8c8c9b1dab61eb0920d4edf174bff30",
      "v": 28,
      "creates": null,
      "raw": "0xf86b01850ba43b7400825208941bb700719a9f63cd887da4a2803fef2dfdeed9c3874e1253f5de4000801ca0ee8aca1b28e597dbabad82590b975f8addd7c3b6d3b25e62d22abb7d0f035049a069dd5b692cbf1356451e2c815277de6ac8c8c9b1dab61eb0920d4edf174bff30",
      "networkId": 0,
      "chainId": 0
    },
    {
      "hash": "0xfd407b1d5fcd78e01e76d52af73e9f6c6e1d36bc9495d6419f31cf2556a4dc30",
      "blockHash": "0xbad6231d1f631afb19ecdb1fc070ca20fe72f0d003b9b06a31ae211b71845799",
      "blockNumber": 68408,
      "transactionIndex": 2,
      "confirmations": null,
      "from": "0x0d6414C49C645e64492f880EAFA8A63FB1A3D761",
      "gasPrice": {
        "_hex": "0xba43b7400"
      },
      "gasLimit": {
        "_hex": "0x5208"
      },
      "to": "0x9Bab7780f539D2C6aa49856b1D92f9537ac5f980",
      "value": {
        "_hex": "0x4e1253f5de4000"
      },
      "nonce": 1,
      "data": "0x",
      "r": "0x75182842948c7c27bc6875acc88c044bdef04a69440e2fa9b8f35d7114f1ab88",
      "s": "0x7c8b872641bdd42cfb09941dbc1a136cb319244d5dd4704a0bf9854ebb6398af",
      "v": 27,
      "creates": null,
      "raw": "0xf86b01850ba43b7400825208949bab7780f539d2c6aa49856b1d92f9537ac5f980874e1253f5de4000801ba075182842948c7c27bc6875acc88c044bdef04a69440e2fa9b8f35d7114f1ab88a07c8b872641bdd42cfb09941dbc1a136cb319244d5dd4704a0bf9854ebb6398af",
      "networkId": 0,
      "chainId": 0
    },
    {
      "hash": "0xc362a2e44615abebce3beeed8f695f37db6ffe3bb176a14ef4a8c8148c32af5c",
      "blockHash": "0xbad6231d1f631afb19ecdb1fc070ca20fe72f0d003b9b06a31ae211b71845799",
      "blockNumber": 68408,
      "transactionIndex": 3,
      "confirmations": null,
      "from": "0x3bbbDCa04Cbbf6129A50Fc35164EeB2a7f9B8550",
      "gasPrice": {
        "_hex": "0xba43b7400"
      },
      "gasLimit": {
        "_hex": "0x5208"
      },
      "to": "0xFA8c94401cFc41730b8D9357067c628a12d8F50c",
      "value": {
        "_hex": "0x4e1253f5de4000"
      },
      "nonce": 1,
      "data": "0x",
      "r": "0x8f68d19fa69250886266c4b950f906501b8aa2db13e30c5c13b2a16c06341bcf",
      "s": "0x321539257c650cd85efb930d3ca7e24757d48d42829de76d1b1fb96d0f0ca787",
      "v": 27,
      "creates": null,
      "raw": "0xf86b01850ba43b740082520894fa8c94401cfc41730b8d9357067c628a12d8f50c874e1253f5de4000801ba08f68d19fa69250886266c4b950f906501b8aa2db13e30c5c13b2a16c06341bcfa0321539257c650cd85efb930d3ca7e24757d48d42829de76d1b1fb96d0f0ca787",
      "networkId": 0,
      "chainId": 0
    },
    {
      "hash": "0xd4e084e1b25acb2ce49a4136a8fb771d77984c6edd099c4a60c9128d9cdaf15c",
      "blockHash": "0xbad6231d1f631afb19ecdb1fc070ca20fe72f0d003b9b06a31ae211b71845799",
      "blockNumber": 68408,
      "transactionIndex": 4,
      "confirmations": null,
      "from": "0x5E1CA7DB367c6c1983fd97C5ED748aAB7030aAe4",
      "gasPrice": {
        "_hex": "0xba43b7400"
      },
      "gasLimit": {
        "_hex": "0x5208"
      },
      "to": "0xdcF122edD9f9b21eDdFe415B9fE85Dc656160458",
      "value": {
        "_hex": "0x4e1253f5de4000"
      },
      "nonce": 1,
      "data": "0x",
      "r": "0xa1048842b0a5b0e649e6b95907fd4c5f5f47a2d63a8919aa9e61dc60ab447ac6",
      "s": "0x01d053d72f14681ef4b1e39b2147a2b82160f0b2a952f349308e6eb23b6e6e9a",
      "v": 28,
      "creates": null,
      "raw": "0xf86b01850ba43b740082520894dcf122edd9f9b21eddfe415b9fe85dc656160458874e1253f5de4000801ca0a1048842b0a5b0e649e6b95907fd4c5f5f47a2d63a8919aa9e61dc60ab447ac6a001d053d72f14681ef4b1e39b2147a2b82160f0b2a952f349308e6eb23b6e6e9a",
      "networkId": 0,
      "chainId": 0
    },
    {
      "hash": "0x1be264b20489575295ecb5b3e60d0265769842ef2cd9d3e0bacd83483116216f",
      "blockHash": "0xbad6231d1f631afb19ecdb1fc070ca20fe72f0d003b9b06a31ae211b71845799",
      "blockNumber": 68408,
      "transactionIndex": 5,
      "confirmations": null,
      "from": "0x1cc8b2FE02233F565e612c6dCC6d84F5b7b51676",
      "gasPrice": {
        "_hex": "0xba43b7400"
      },
      "gasLimit": {
        "_hex": "0x5208"
      },
      "to": "0x67Ce514908A9B316C5d27887070322D67b994255",
      "value": {
        "_hex": "0x4e1253f5de4000"
      },
      "nonce": 1,
      "data": "0x",
      "r": "0x5644b069c7592fc04713613246366161432f48664c51ae38e62efd218e6e0464",
      "s": "0x61962bf5bc133c3fa1e48ad12e9487d0f524fa30606e59326ba2e87d186e8cfe",
      "v": 27,
      "creates": null,
      "raw": "0xf86b01850ba43b74008252089467ce514908a9b316c5d27887070322d67b994255874e1253f5de4000801ba05644b069c7592fc04713613246366161432f48664c51ae38e62efd218e6e0464a061962bf5bc133c3fa1e48ad12e9487d0f524fa30606e59326ba2e87d186e8cfe",
      "networkId": 0,
      "chainId": 0
    },
    {
      "hash": "0x90410e96fa5912a0e0cd0edea3b8f868aa19cf3eff54b1ab031daf9115d976c1",
      "blockHash": "0xbad6231d1f631afb19ecdb1fc070ca20fe72f0d003b9b06a31ae211b71845799",
      "blockNumber": 68408,
      "transactionIndex": 6,
      "confirmations": null,
      "from": "0x5FF6Cef5FdbeAf861Ac25f63aa65dE7e1D3dd1C8",
      "gasPrice": {
        "_hex": "0xba43b7400"
      },
      "gasLimit": {
        "_hex": "0x5208"
      },
      "to": "0x075463323923dd2e21505493c74d8e9FEcBc62Bd",
      "value": {
        "_hex": "0x4e1253f5de4000"
      },
      "nonce": 1,
      "data": "0x",
      "r": "0x3909c189d32c53bb013fcba4a6b1af6902f9e1d207b95bcecfd63a41723eeeb3",
      "s": "0x17e40c84145899afd593f985d71d5c3483a60bee083bcd9d88d703cbc74837a0",
      "v": 27,
      "creates": null,
      "raw": "0xf86b01850ba43b740082520894075463323923dd2e21505493c74d8e9fecbc62bd874e1253f5de4000801ba03909c189d32c53bb013fcba4a6b1af6902f9e1d207b95bcecfd63a41723eeeb3a017e40c84145899afd593f985d71d5c3483a60bee083bcd9d88d703cbc74837a0",
      "networkId": 0,
      "chainId": 0
    },
    {
      "hash": "0x525c6031afe0f5d286d72824adc30107612afb6115b325a782eaa0cc98860f9e",
      "blockHash": "0xbad6231d1f631afb19ecdb1fc070ca20fe72f0d003b9b06a31ae211b71845799",
      "blockNumber": 68408,
      "transactionIndex": 7,
      "confirmations": null,
      "from": "0x7157d2d644cf4006eDBad877F532abfF068dA8DE",
      "gasPrice": {
        "_hex": "0xba43b7400"
      },
      "gasLimit": {
        "_hex": "0x5208"
      },
      "to": "0x03AF1A1b92ef0F8A8210e75176E3dB5E8b69c287",
      "value": {
        "_hex": "0x4e1253f5de4000"
      },
      "nonce": 1,
      "data": "0x",
      "r": "0xd6cbd4d9dd2323b9f24709ed38912c4084dd5223b4638a5699c2cb388315392f",
      "s": "0x0338fd33985470304e008e783adeb516d3cb1b62d44fb2479137e1aa851e6ba1",
      "v": 28,
      "creates": null,
      "raw": "0xf86b01850ba43b74008252089403af1a1b92ef0f8a8210e75176e3db5e8b69c287874e1253f5de4000801ca0d6cbd4d9dd2323b9f24709ed38912c4084dd5223b4638a5699c2cb388315392fa00338fd33985470304e008e783adeb516d3cb1b62d44fb2479137e1aa851e6ba1",
      "networkId": 0,
      "chainId": 0
    },
    {
      "hash": "0x6095cabfaf6b08acfd783d8edcadae941ba1d7b00a129e7585ec0129b1620d1c",
      "blockHash": "0xbad6231d1f631afb19ecdb1fc070ca20fe72f0d003b9b06a31ae211b71845799",
      "blockNumber": 68408,
      "transactionIndex": 8,
      "confirmations": null,
      "from": "0x00B385C0b8f493344BF886fd112f762680B6E2cC",
      "gasPrice": {
        "_hex": "0xba43b7400"
      },
      "gasLimit": {
        "_hex": "0x5208"
      },
      "to": "0xEE8784A8609a52036AAA70f2A0E5cBFBeA1aCf09",
      "value": {
        "_hex": "0x4e1253f5de4000"
      },
      "nonce": 1,
      "data": "0x",
      "r": "0x85184e7a5226b3808415adcb422e975a709bf3ed096ab6dd9747fe131000fcc3",
      "s": "0x2b4d0990265d09115e0b7284caf26990e340266fccde7ea25f13c5cfc00d7743",
      "v": 28,
      "creates": null,
      "raw": "0xf86b01850ba43b740082520894ee8784a8609a52036aaa70f2a0e5cbfbea1acf09874e1253f5de4000801ca085184e7a5226b3808415adcb422e975a709bf3ed096ab6dd9747fe131000fcc3a02b4d0990265d09115e0b7284caf26990e340266fccde7ea25f13c5cfc00d7743",
      "networkId": 0,
      "chainId": 0
    },
    {
      "hash": "0x9b117150fde14fc913417119d1919819d022fec9442d3ce1c78f448ccf986210",
      "blockHash": "0xbad6231d1f631afb19ecdb1fc070ca20fe72f0d003b9b06a31ae211b71845799",
      "blockNumber": 68408,
      "transactionIndex": 9,
      "confirmations": null,
      "from": "0x62d0Cea69Bb9aaCf76d2A0A837103d38C44B9760",
      "gasPrice": {
        "_hex": "0xba43b7400"
      },
      "gasLimit": {
        "_hex": "0x5208"
      },
      "to": "0x9b98398cE9dce2DeA30F57234732a8fcaaEfe43E",
      "value": {
        "_hex": "0x4e1253f5de4000"
      },
      "nonce": 1,
      "data": "0x",
      "r": "0x815d1e4c2251e0911fee7d42cc9217aa621128b109fa2f1d905fdb28b6124a6b",
      "s": "0x3f11ee7b2e69f3355587cb9c3a6171e274babef78682feb12d21cc75ae7bd950",
      "v": 27,
      "creates": null,
      "raw": "0xf86b01850ba43b7400825208949b98398ce9dce2dea30f57234732a8fcaaefe43e874e1253f5de4000801ba0815d1e4c2251e0911fee7d42cc9217aa621128b109fa2f1d905fdb28b6124a6ba03f11ee7b2e69f3355587cb9c3a6171e274babef78682feb12d21cc75ae7bd950",
      "networkId": 0,
      "chainId": 0
    }
  ]
}