{
  "hash": "0x00680c36579c5dfe95d5f93fe2bc01af909d37815919bd0ccaaf62df0ca3bdde",
  "parentHash": "0x06d73a12e2ab1f8aa134a18e481984ef7f59cdee93acb76dcc1fd7622ce0152b",
  "number": 51420,
  "timestamp": 1439004667,
  "nonce": "0x27e84775593b52a6",
  "difficulty": 1561237196072,
  "gasLimit": {
    "_hex": "0xaeb0a"
  },
  "gasUsed": {
    "_hex": "0xddfd"
  },
  "miner": "0x26cCEE0b2C64D6e0A5Aff088c0D3396966341F80",
  "extraData": "0xdd809b302e392e34302b2b383832362d5257696e646f2f6d73762f4a4954",
  "transactions": [
    {
      "hash": "0x8d632c854b9468a4ef394dc6d08ff36548bd3ff825a33f8173418a027869f244",
      "blockHash": "0x00680c36579c5dfe95d5f93fe2bc01af909d37815919bd0ccaaf62df0ca3bdde",
      "blockNumber": 51420,
      "transactionIndex": 0,
      "confirmations": null,
      "from": "0xf88a65846C19D8fc76fFf545fEAa7bbc7114F667",
      "gasPrice": {
        "_hex": "0xd883c5f42"
      },
      "gasLimit": {
        "_hex": "0x7a120"
      },
      "to": "0x109C4f2CCc82C4d77Bde15F306707320294Aea3F",
      "value": {
        "_hex": "0xde0b6b3a7640000"
      },
      "nonce": 19,
      "data": "0x",
      "r": "0x1b430fa7ec32bb34719bc0dbe3272ffad07dcc848560ae9d7046391dd7f7a10a",
      "s": "0x5d9c6157873202f45de025d290a32359fb23fb0d1063d851f51e3fbf1f6daaa7",
      "v": 27,
      "creates": null,
      "raw": "0xf86d13850d883c5f428307a12094109c4f2ccc82c4d77bde15f306707320294aea3f880de0b6b3a7640000801ba01b430fa7ec32bb34719bc0dbe3272ffad07dcc848560ae9d7046391dd7f7a10aa05d9c6157873202f45de025d290a32359fb23fb0d1063d851f51e3fbf1f6daaa7",
      "networkId": 0,
      "chainId": 0
    }
  ]
}