{
  "hash": "0x8f6824c15ca11e8ec9ef4050fc7175a85aebd3ef1ae882d6646ff6c000621951",
  "parentHash": "0x7ce2797b69e7cd984c177a169a07b9b2740c2bc524de184be485ae5968ea5518",
  "number": 58959,
  "timestamp": 1439129647,
  "nonce": "0xa84cb89268ef405a",
  "difficulty": 1708965921605,
  "gasLimit": {
    "_hex": "0x2fefd8"
  },
  "gasUsed": {
    "_hex": "0x546c"
  },
  "miner": "0xf927a40C8B7F6E07c5af7FA2155B4864a4112B13",
  "extraData": "0x476574682f76312e302e312f6c696e75782f676f312e342e32",
  "transactions": [
    {
      "hash": "0xd35290f1b5c7295f5ef113d41dc344a2f19a1cc11f99a25e76c1c905815bf904",
      "blockHash": "0x8f6824c15ca11e8ec9ef4050fc7175a85aebd3ef1ae882d6646ff6c000621951",
      "blockNumber": 58959,
      "transactionIndex": 0,
      "confirmations": null,
      "from": "0xcdD60D73efaad873C9bBFB178CA1B7105A81A681",
      "gasPrice": {
        "_hex": "0x110c8f7d8de"
      },
      "gasLimit": {
        "_hex": "0xc350"
      },
      "to": "0x2910543Af39abA0Cd09dBb2D50200b3E800A63D2",
      "value": {
        "_hex": "0x29a2241af62c0000"
      },
      "nonce": 0,
      "data": "0x454e59504257313138",
      "r": "0xe43350fb91b102dce5dc88aff77510bfe7db5ff696f052fa17ec68119fa2c71e",
      "s": "0x2f159248c6dc665d693f48eafa75d006c0accbc117e11332b4deb5300ae37c14",
      "v": 27,
      "creates": null,
      "raw": "0xf87680860110c8f7d8de82c350942910543af39aba0cd09dbb2d50200b3e800a63d28829a2241af62c000089454e595042573131381ba0e43350fb91b102dce5dc88aff77510bfe7db5ff696f052fa17ec68119fa2c71ea02f159248c6dc665d693f48eafa75d006c0accbc117e11332b4deb5300ae37c14",
      "networkId": 0,
      "chainId": 0
    }
  ]
}