{
  "hash": "0x2cfb6cce42b6a204b5e0284fc94ac2e779eae48feb51964de65958a93c7ba5fc",
  "parentHash": "0x4e91f9956696a8bcf5a3323f0177001bac34bcf20b48299a4fda2cef5d372934",
  "number": 105996,
  "timestamp": 1439896944,
  "nonce": "0xd59fe794da1d4e6f",
  "difficulty": 4457717039247,
  "gasLimit": {
    "_hex": "0x2fefd8"
  },
  "gasUsed": {
    "_hex": "0x6ed3"
  },
  "miner": "0xe6A7a1d47ff21B6321162AEA7C6CB457D5476Bca",
  "extraData": "0x476574682f76312e302e312d38326566323666362f6c696e75782f676f312e34",
  "transactions": [
    {
      "hash": "0x138b6e32ca580349bc7d2b09f7ffe8ebb6e83699ab616ecb698f632790e40830",
      "blockHash": "0x2cfb6cce42b6a204b5e0284fc94ac2e779eae48feb51964de65958a93c7ba5fc",
      "blockNumber": 105996,
      "transactionIndex": 0,
      "confirmations": null,
      "from": "0x87C5B5874A18B4306DF8a752a6C8cc3E82daFc19",
      "gasPrice": {
        "_hex": "0x106a943f438"
      },
      "gasLimit": {
        "_hex": "0x493e0"
      },
      "to": "0xD79B4C6791784184e2755B2fC1659eaaB0f80456",
      "value": {
        "_hex": "0x0"
      },
      "nonce": 324,
      "data": "0xbd66528a6b6b6b0000000000000000000000000000000000000000000000000000000000",
      "r": "0x89062f0438c83e938ff5826893c514fda07250586fb0623db010d568696aeba4",
      "s": "0x5aceefe60a3171451589bc30eff62eb8306b84550a9d374ae2382c07969900af",
      "v": 28,
      "creates": null,
      "raw": "0xf88c820144860106a943f438830493e094d79b4c6791784184e2755b2fc1659eaab0f8045680a4bd66528a6b6b6b00000000000000000000000000000000000000000000000000000000001ca089062f0438c83e938ff5826893c514fda07250586fb0623db010d568696aeba4a05aceefe60a3171451589bc30eff62eb8306b84550a9d374ae2382c07969900af",
      "networkId": 0,
      "chainId": 0
    }
  ]
}