{
  "hash": "0xcca15d978289c4a2c01af4ae906b7fb6e92547a6d5f9c9bc2d4c17493d7accad",
  "parentHash": "0xea18067b11fd752dbe36a2a73d71c6756e6cb447330296183715b669e12978e4",
  "number": 76697,
  "timestamp": 1439424729,
  "nonce": "0x21fc65458dbf5cea",
  "difficulty": 2248225274470,
  "gasLimit": {
    "_hex": "0x2fefd8"
  },
  "gasUsed": {
    "_hex": "0x5208"
  },
  "miner": "0x458F183347F45a4001807728A89F31E9Da9D4A58",
  "extraData": "0x476574682f76312e302e312d38326566323666362f6c696e75782f676f312e34",
  "transactions": [
    {
      "hash": "0xc748031276ae1a00e8272d71338d55aa53842b573229584a1002e35f4389343e",
      "blockHash": "0xcca15d978289c4a2c01af4ae906b7fb6e92547a6d5f9c9bc2d4c17493d7accad",
      "blockNumber": 76697,
      "transactionIndex": 0,
      "confirmations": null,
      "from": "0x188143c01B67512E0dfc5438A42a904eD8d4AB36",
      "gasPrice": {
        "_hex": "0xd1ad403a1"
      },
      "gasLimit": {
        "_hex": "0x7530"
      },
      "to": "0x6c716b5177cC5c983057af4D88F7152ebA2CC0a6",
      "value": {
        "_hex": "0x2a802f8630a240000"
      },
      "nonce": 1,
      "data": "0x",
      "r": "0x909a39101d7b6b5771e880a4e6d0d39d30d96e57d1fd6d5024175deb400b24e6",
      "s": "0x0b9b630107b3c834710375600266314eda9cad76a26f2b6caa5a7016cfcb6974",
      "v": 27,
      "creates": null,
      "raw": "0xf86d01850d1ad403a1827530946c716b5177cc5c983057af4d88f7152eba2cc0a68902a802f8630a240000801ba0909a39101d7b6b5771e880a4e6d0d39d30d96e57d1fd6d5024175deb400b24e6a00b9b630107b3c834710375600266314eda9cad76a26f2b6caa5a7016cfcb6974",
      "networkId": 0,
      "chainId": 0
    }
  ]
}