{
  "hash": "0x97aa1dea8ce82d3aec2f45ae9c943439c3d2b6945c3ae8a75e2e81a02b8870a3",
  "parentHash": "0xdcc49206dd05bad31190e6d2ec2286d7bcf2ecd1a3733f95afc7e038ac2a0701",
  "number": 100282,
  "timestamp": 1439803860,
  "nonce": "0x8632322548c3d5d1",
  "difficulty": 3830418860496,
  "gasLimit": {
    "_hex": "0x2fefd8"
  },
  "gasUsed": {
    "_hex": "0x5208"
  },
  "miner": "0xe6A7a1d47ff21B6321162AEA7C6CB457D5476Bca",
  "extraData": "0x476574682f76312e302e312d38326566323666362f6c696e75782f676f312e34",
  "transactions": [
    {
      "hash": "0x054f0786d6a60f1bd05b68d688c0a3a77bec3306f70aebbbdfc7e400c5aee5c7",
      "blockHash": "0x97aa1dea8ce82d3aec2f45ae9c943439c3d2b6945c3ae8a75e2e81a02b8870a3",
      "blockNumber": 100282,
      "transactionIndex": 0,
      "confirmations": null,
      "from": "0x1Fab7BE036A5C6A69b2B05D6e172FF4e5b2a5e6B",
      "gasPrice": {
        "_hex": "0xcb0c0171a"
      },
      "gasLimit": {
        "_hex": "0x5208"
      },
      "to": "0x32Be343B94f860124dC4fEe278FDCBD38C102D88",
      "value": {
        "_hex": "0x396cda0e915f92000"
      },
      "nonce": 5,
      "data": "0x",
      "r": "0xa669d495df1021113dd9663559086505ea10c9b81b24998791723280a61f9c33",
      "s": "0x1f04d7acf8ce99dd5c8b2304a8f4604c666525fc091b91e0c8e40146b62431d7",
      "v": 28,
      "creates": null,
      "raw": "0xf86d05850cb0c0171a8252089432be343b94f860124dc4fee278fdcbd38c102d88890396cda0e915f92000801ca0a669d495df1021113dd9663559086505ea10c9b81b24998791723280a61f9c33a01f04d7acf8ce99dd5c8b2304a8f4604c666525fc091b91e0c8e40146b62431d7",
      "networkId": 0,
      "chainId": 0
    }
  ]
}