{
  "hash": "0xe4d5b373c8971afb7156c37071888cbc6a146c68e424c2a1f673175e383301ed",
  "parentHash": "0x0bed3e92702099dfc0c0d12d19f19375097ad8814ac1cb11bbbb2375f539609e",
  "number": 98493,
  "timestamp": 1439773792,
  "nonce": "0x510a86ff669bd2d7",
  "difficulty": 3863170454489,
  "gasLimit": {
    "_hex": "0x2fefd8"
  },
  "gasUsed": {
    "_hex": "0x5208"
  },
  "miner": "0xaEAf103356C2Ee943F748E8655659D29881323E1",
  "extraData": "0x476574682f76312e302e312f77696e646f77732f676f312e342e32",
  "transactions": [
    {
      "hash": "0x64e8bb4098c4b7ef272c81fb17857db6cddb9ea9e80d4082d7c41c29bf00df12",
      "blockHash": "0xe4d5b373c8971afb7156c37071888cbc6a146c68e424c2a1f673175e383301ed",
      "blockNumber": 98493,
      "transactionIndex": 0,
      "confirmations": null,
      "from": "0xD9666150A9dA92d9108198a4072970805a8B3428",
      "gasPrice": {
        "_hex": "0xd480a1dd6"
      },
      "gasLimit": {
        "_hex": "0x5208"
      },
      "to": "0x32Be343B94f860124dC4fEe278FDCBD38C102D88",
      "value": {
        "_hex": "0x2fb42ff1ace762000"
      },
      "nonce": 27,
      "data": "0x",
      "r": "0xa5de21239c411ed9fdf8a43536c0ebb94d45b8221daf42d4d7cebbc73a9a6e29",
      "s": "0x3177f0444b99139b8e67662010df10a18ead743e7fa8c8436d191c32b68ec33e",
      "v": 27,
      "creates": null,
      "raw": "0xf86d1b850d480a1dd68252089432be343b94f860124dc4fee278fdcbd38c102d888902fb42ff1ace762000801ba0a5de21239c411ed9fdf8a43536c0ebb94d45b8221daf42d4d7cebbc73a9a6e29a03177f0444b99139b8e67662010df10a18ead743e7fa8c8436d191c32b68ec33e",
      "networkId": 0,
      "chainId": 0
    }
  ]
}