{
  "hash": "0x0300442c9d2ae1fe906c2e968a8657cac9be3ac759cb31a2a0538f386ee038c2",
  "parentHash": "0xec554876f19e66512242542dffd61b1ad0eb23ccc03c893176fa43e29fbc6d48",
  "number": 65010,
  "timestamp": 1439229930,
  "nonce": "0x997c37f523bee47d",
  "difficulty": 1913505055909,
  "gasLimit": {
    "_hex": "0x2fefd8"
  },
  "gasUsed": {
    "_hex": "0xa410"
  },
  "miner": "0x8B454d830feF179e66206840F8F3D1d83bC32b17",
  "extraData": "0x476574682f76312e302e312f77696e646f77732f676f312e342e32",
  "transactions": [
    {
      "hash": "0x9d9e85484e66d8c7d3a1ecef903e111b9dec5ea1ddccb852479e2963435eed2e",
      "blockHash": "0x0300442c9d2ae1fe906c2e968a8657cac9be3ac759cb31a2a0538f386ee038c2",
      "blockNumber": 65010,
      "transactionIndex": 0,
      "confirmations": null,
      "from": "0x4598d8e93B75a370046AEAb59BD2895e542fd92D",
      "gasPrice": {
        "_hex": "0xba43b7400"
      },
      "gasLimit": {
        "_hex": "0x5208"
      },
      "to": "0x7B9E6152d8edFd1275cdf62126B457616EFAC6a7",
      "value": {
        "_hex": "0x2d5eb3bc1aa8000"
      },
      "nonce": 1,
      "data": "0x",
      "r": "0xfc3e007d53dd52278ab592857a6c25c69c892ba00fcb467c866a1dfc78f8ac75",
      "s": "0x2421cbe85c9c43cd1879288f81f43075c3de2047506adfb2ddf993673c412eb6",
      "v": 28,
      "creates": null,
      "raw": "0xf86c01850ba43b7400825208947b9e6152d8edfd1275cdf62126b457616efac6a78802d5eb3bc1aa8000801ca0fc3e007d53dd52278ab592857a6c25c69c892ba00fcb467c866a1dfc78f8ac75a02421cbe85c9c43cd1879288f81f43075c3de2047506adfb2ddf993673c412eb6",
      "networkId": 0,
      "chainId": 0
    },
    {
      "hash": "0xb506282ae50a0f034c7d50c43f94800601ead463d4f838db8258919bbf4f6645",
      "blockHash": "0x0300442c9d2ae1fe906c2e968a8657cac9be3ac759cb31a2a0538f386ee038c2",
      "blockNumber": 65010,
      "transactionIndex": 1,
      "confirmations": null,
      "from": "0xB6915c192397e64d2CE5674B4a30c35028D21d64",
      "gasPrice": {
        "_hex": "0xba43b7400"
      },
      "gasLimit": {
        "_hex": "0x5208"
      },
      "to": "0xf38435a2F627f87Bd4B02865de4310a082FF0483",
      "value": {
        "_hex": "0x2795e885b68c000"
      },
      "nonce": 1,
      "data": "0x",
      "r": "0x077f840a546111377db2713c9d73b85356991ce558fd02cb2433f6b30cbcb874",
      "s": "0x4c0b3bd1e09daefda67ab2c66e12650305d1339d56c9792adeac997a443e092b",
      "v": 28,
      "creates": null,
      "raw": "0xf86c01850ba43b740082520894f38435a2f627f87bd4b02865de4310a082ff04838802795e885b68c000801ca0077f840a546111377db2713c9d73b85356991ce558fd02cb2433f6b30cbcb874a04c0b3bd1e09daefda67ab2c66e12650305d1339d56c9792adeac997a443e092b",
      "networkId": 0,
      "chainId": 0
    }
  ]
}