{
  "hash": "0x25e400e892d04fa532ce7e43fab4071cb4f28db688380555229df2fe862eb4df",
  "parentHash": "0xdaf41b9acce7431aa963e668e95e3a4172f768bad331024064d6d4e8335519d0",
  "number": 59007,
  "timestamp": 1439130519,
  "nonce": "0x55341280ab3f7834",
  "difficulty": 1707288054864,
  "gasLimit": {
    "_hex": "0x2fefd8"
  },
  "gasUsed": {
    "_hex": "0x5208"
  },
  "miner": "0xa50ec0D39fa913E62f1Bae7074E6F36caA71855b",
  "extraData": "0x",
  "transactions": [
    {
      "hash": "0x22aced6585a5e7f4ad752dd611d28a45a274679b03d00fece276ab3b97f4ec9a",
      "blockHash": "0x25e400e892d04fa532ce7e43fab4071cb4f28db688380555229df2fe862eb4df",
      "blockNumber": 59007,
      "transactionIndex": 0,
      "confirmations": null,
      "from": "0xC25f24A505b8fEF751D8f4FCc397651001F7a160",
      "gasPrice": {
        "_hex": "0xd4731ebd6"
      },
      "gasLimit": {
        "_hex": "0x5208"
      },
      "to": "0x32Be343B94f860124dC4fEe278FDCBD38C102D88",
      "value": {
        "_hex": "0x453bbef9419e8c00"
      },
      "nonce": 4,
      "data": "0x",
      "r": "0x68aa401581871f749f46e259e6700c1de7d4d51f671f5d7b37d7dbf37a9a522f",
      "s": "0x1e0d9b0b9153e814500d6ec5a82ee03453dd8089734123f582faf49ca299d0ff",
      "v": 28,
      "creates": null,
      "raw": "0xf86c04850d4731ebd68252089432be343b94f860124dc4fee278fdcbd38c102d8888453bbef9419e8c00801ca068aa401581871f749f46e259e6700c1de7d4d51f671f5d7b37d7dbf37a9a522fa01e0d9b0b9153e814500d6ec5a82ee03453dd8089734123f582faf49ca299d0ff",
      "networkId": 0,
      "chainId": 0
    }
  ]
}