{
  "hash": "0xab3458904f3aee3372a4c8a85a456f47bf6922ed77ebced1f65e494a559e9708",
  "parentHash": "0xfaf1228d258f1195ffd9f0e398819e22dcba8a89a4295ed13d41de9fab0474fd",
  "number": 106694,
  "timestamp": 1439908861,
  "nonce": "0x2662349405c1dfbc",
  "difficulty": 4448648877867,
  "gasLimit": {
    "_hex": "0x2fefd8"
  },
  "gasUsed": {
    "_hex": "0x5208"
  },
  "miner": "0x580992B51e3925e23280EfB93d3047C82f17E038",
  "extraData": "0x476574682f76312e302e312f6c696e75782f676f312e342e32",
  "transactions": [
    {
      "hash": "0x8ce4af985ff1bd6d94c4217eda99374741e76d6b8ecd00f20968d191a21cfad8",
      "blockHash": "0xab3458904f3aee3372a4c8a85a456f47bf6922ed77ebced1f65e494a559e9708",
      "blockNumber": 106694,
      "transactionIndex": 0,
      "confirmations": null,
      "from": "0x9d0D51Aa42b97151aaCa5876a743172C8c04f09E",
      "gasPrice": {
        "_hex": "0xce21da91c"
      },
      "gasLimit": {
        "_hex": "0x5208"
      },
      "to": "0x32Be343B94f860124dC4fEe278FDCBD38C102D88",
      "value": {
        "_hex": "0x2b5df8e417c4d6000"
      },
      "nonce": 2,
      "data": "0x",
      "r": "0x385465f5e42cfa44357463bcc50e8dd52aed0e4643991534cd92ac25ee159a35",
      "s": "0x7aeadb8c2f1c1ffe412788113f1274dab9da57b2d8cd93f31a8876c3a5f3eaec",
      "v": 27,
      "creates": null,
      "raw": "0xf86d02850ce21da91c8252089432be343b94f860124dc4fee278fdcbd38c102d888902b5df8e417c4d6000801ba0385465f5e42cfa44357463bcc50e8dd52aed0e4643991534cd92ac25ee159a35a07aeadb8c2f1c1ffe412788113f1274dab9da57b2d8cd93f31a8876c3a5f3eaec",
      "networkId": 0,
      "chainId": 0
    }
  ]
}