{
  "hash": "0xc2c8b86f9b4b921fe7c5dc26785c573d0c68b2b985287f9bc471d2e30a24d184",
  "parentHash": "0x2fb93263b8a7e1768341da8039dfd1ec7dac6dba5675ae6cbbf712486d8a52de",
  "number": 107663,
  "timestamp": 1439926453,
  "nonce": "0x978c7257c84aed18",
  "difficulty": 4402757311020,
  "gasLimit": {
    "_hex": "0x2fefd8"
  },
  "gasUsed": {
    "_hex": "0x14820"
  },
  "miner": "0x77EC9ad4A7E9418774C29415CAaF4Ee0da96eF64",
  "extraData": "0x",
  "transactions": [
    {
      "hash": "0xb23e058d6c330962878948a2cf2ae2a6a7dbf6c5f42074228ac7b7d583d3f790",
      "blockHash": "0xc2c8b86f9b4b921fe7c5dc26785c573d0c68b2b985287f9bc471d2e30a24d184",
      "blockNumber": 107663,
      "transactionIndex": 0,
      "confirmations": null,
      "from": "0x120A270bbC009644e35F0bB6ab13f95b8199c4ad",
      "gasPrice": {
        "_hex": "0xddeaed12e"
      },
      "gasLimit": {
        "_hex": "0x3d090"
      },
      "to": "0x017481d0d93849d5Fa4120CEB377Ab89F42E0206",
      "value": {
        "_hex": "0xd59bf7704a5feb400"
      },
      "nonce": 814,
      "data": "0x",
      "r": "0x2aa47772b51a4897d62efdf6a80fb9bef38ba7ff10474ff7f33ace16a6cf9b54",
      "s": "0x153b896ba28e4b03694316afc71a6e88bf4c642ed97e31b4ec8eae2df26ac8a7",
      "v": 28,
      "creates": null,
      "raw": "0xf87082032e850ddeaed12e8303d09094017481d0d93849d5fa4120ceb377ab89f42e0206890d59bf7704a5feb400801ca02aa47772b51a4897d62efdf6a80fb9bef38ba7ff10474ff7f33ace16a6cf9b54a0153b896ba28e4b03694316afc71a6e88bf4c642ed97e31b4ec8eae2df26ac8a7",
      "networkId": 0,
      "chainId": 0
    },
    {
      "hash": "0x9f34749c0d052e167a49cfa806581028f2ccaf896086e0673fa0e087d62a3ae6",
      "blockHash": "0xc2c8b86f9b4b921fe7c5dc26785c573d0c68b2b985287f9bc471d2e30a24d184",
      "blockNumber": 107663,
      "transactionIndex": 1,
      "confirmations": null,
      "from": "0x2910543Af39abA0Cd09dBb2D50200b3E800A63D2",
      "gasPrice": {
        "_hex": "0xdc4132dc4"
      },
      "gasLimit": {
        "_hex": "0x5208"
      },
      "to": "0x9BCDF86092d1cD705862b8343c7CFe1a9F20d6a6",
      "value": {
        "_hex": "0x1550f7dca70000"
      },
      "nonce": 1051,
      "data": "0x",
      "r": "0xd3638138f0f8cab17b4ba921f154440c13c079c4759649f91598d75e8c4a4e25",
      "s": "0x568c76c7dea3a8ca9f13610ac3def343cfbd2174e0fee4094988bdd4fef81330",
      "v": 27,
      "creates": null,
      "raw": "0xf86d82041b850dc4132dc4825208949bcdf86092d1cd705862b8343c7cfe1a9f20d6a6871550f7dca70000801ba0d3638138f0f8cab17b4ba921f154440c13c079c4759649f91598d75e8c4a4e25a0568c76c7dea3a8ca9f13610ac3def343cfbd2174e0fee4094988bdd4fef81330",
      "networkId": 0,
      "chainId": 0
    },
    {
      "hash": "0xee2b89d764f6f5d806b70382411ecd0d72859ca47652690bf2ca617f3c603ee7",
      "blockHash": "0xc2c8b86f9b4b921fe7c5dc26785c573d0c68b2b985287f9bc471d2e30a24d184",
      "blockNumber": 107663,
      "transactionIndex": 2,
      "confirmations": null,
      "from": "0x2910543Af39abA0Cd09dBb2D50200b3E800A63D2",
      "gasPrice": {
        "_hex": "0xdc4132dc4"
      },
      "gasLimit": {
        "_hex": "0x5208"
      },
      "to": "0xC5421FF9a6C1dfE6fE5BE19FA1322E70b77c8cb1",
      "value": {
        "_hex": "0x1550f7dca70000"
      },
      "nonce": 1052,
      "data": "0x",
      "r": "0x056fb18d0d796c59cffa7c285474df88d791e9690001e21a7a45a1c340682905",
      "s": "0x76ecf757e92a67b0156d6dfcbe37476ff7a0f5c7ec74112b90a3af1dc7d71ff6",
      "v": 27,
      "creates": null,
      "raw": "0xf86d82041c850dc4132dc482520894c5421ff9a6c1dfe6fe5be19fa1322e70b77c8cb1871550f7dca70000801ba0056fb18d0d796c59cffa7c285474df88d791e9690001e21a7a45a1c340682905a076ecf757e92a67b0156d6dfcbe37476ff7a0f5c7ec74112b90a3af1dc7d71ff6",
      "networkId": 0,
      "chainId": 0
    },
    {
      "hash": "0xc47c808de94fdd481452c0aa9befb93b707c85edd9030370e63cde4a520a7be7",
      "blockHash": "0xc2c8b86f9b4b921fe7c5dc26785c573d0c68b2b985287f9bc471d2e30a24d184",
      "blockNumber": 107663,
      "transactionIndex": 3,
      "confirmations": null,
      "from": "0x53937BE115FF5C49519ca11B9482C21b73FbB83F",
      "gasPrice": {
        "_hex": "0xba43b7400"
      },
      "gasLimit": {
        "_hex": "0x5267"
      },
      "to": "0x6E675dA57F2C68dFbEd60b228E90e6277018deCd",
      "value": {
        "_hex": "0x5af3107a4000"
      },
      "nonce": 1,
      "data": "0x",
      "r": "0xe1b0c0299982b2c1ad32f51e365afe1ce38d9a5fba3e80a19330d9d68574c1d6",
      "s": "0xaf3ddd424d8f024da2ea6b5e59a8dcb91359cc1bb306f1a8343d90bed775b202",
      "v": 28,
      "creates": null,
      "raw": "0xf86a01850ba43b7400825267946e675da57f2c68dfbed60b228e90e6277018decd865af3107a4000801ca0e1b0c0299982b2c1ad32f51e365afe1ce38d9a5fba3e80a19330d9d68574c1d6a0af3ddd424d8f024da2ea6b5e59a8dcb91359cc1bb306f1a8343d90bed775b202",
      "networkId": 0,
      "chainId": 0
    }
  ]
}