{
  "hash": "0x49e0ab46adafac1bbedf62a3a9101936cf245d070d1112857b2d42cd190b52b3",
  "parentHash": "0x4810790a9d9a0b5a3c3b58bc1736ce60030169bc1ef451f92d7016d17adaa9ca",
  "number": 74975,
  "timestamp": 1439395486,
  "nonce": "0x5fdfb5e49d90eb29",
  "difficulty": 2190170132588,
  "gasLimit": {
    "_hex": "0x2fefd8"
  },
  "gasUsed": {
    "_hex": "0xa410"
  },
  "miner": "0xF78645Ea06d743C6B52a11EB3f3d486bbb4Cf01F",
  "extraData": "0x",
  "transactions": [
    {
      "hash": "0xdec29d7a376854b63bccce8adc1c4bd5ec17e5e3ca658f9a7bcf320914587162",
      "blockHash": "0x49e0ab46adafac1bbedf62a3a9101936cf245d070d1112857b2d42cd190b52b3",
      "blockNumber": 74975,
      "transactionIndex": 0,
      "confirmations": null,
      "from": "0xD9666150A9dA92d9108198a4072970805a8B3428",
      "gasPrice": {
        "_hex": "0xd894c6298"
      },
      "gasLimit": {
        "_hex": "0x5208"
      },
      "to": "0x32Be343B94f860124dC4fEe278FDCBD38C102D88",
      "value": {
        "_hex": "0xddc604cb8959800"
      },
      "nonce": 3,
      "data": "0x",
      "r": "0xda2ed28d74998fcef9377009c5ae543901e9de1eb15f923662fabb07ecff4595",
      "s": "0x0e76a98e4a83f054fd8bb4f5bc28fc2bf853f72153393da80902557f172aa154",
      "v": 27,
      "creates": null,
      "raw": "0xf86c03850d894c62988252089432be343b94f860124dc4fee278fdcbd38c102d88880ddc604cb8959800801ba0da2ed28d74998fcef9377009c5ae543901e9de1eb15f923662fabb07ecff4595a00e76a98e4a83f054fd8bb4f5bc28fc2bf853f72153393da80902557f172aa154",
      "networkId": 0,
      "chainId": 0
    },
    {
      "hash": "0x2af4851274f9603c6ce8de6ef0da36f4905511b48cd653c83fef7bf4ae209af0",
      "blockHash": "0x49e0ab46adafac1bbedf62a3a9101936cf245d070d1112857b2d42cd190b52b3",
      "blockNumber": 74975,
      "transactionIndex": 1,
      "confirmations": null,
      "from": "0x65B2003cE03eDcF961C6b724862D6a7f942B8971",
      "gasPrice": {
        "_hex": "0xd86b06c5a"
      },
      "gasLimit": {
        "_hex": "0x15f90"
      },
      "to": "0xEe2e3665531f220d70d01CCaBb559537a2663174",
      "value": {
        "_hex": "0x8ac7230489e80000"
      },
      "nonce": 1,
      "data": "0x",
      "r": "0x0f705261a390a54b9d28c16180d4438424d36f3dda57f8437d6a528481bc86b1",
      "s": "0x50ba060b94f7eda66ec542eb95abf7770569d23b17e0a2aff7930abdfd7d1f25",
      "v": 28,
      "creates": null,
      "raw": "0xf86d01850d86b06c5a83015f9094ee2e3665531f220d70d01ccabb559537a2663174888ac7230489e80000801ca00f705261a390a54b9d28c16180d4438424d36f3dda57f8437d6a528481bc86b1a050ba060b94f7eda66ec542eb95abf7770569d23b17e0a2aff7930abdfd7d1f25",
      "networkId": 0,
      "chainId": 0
    }
  ]
}