{
  "hash": "0xab0d19f59e197aefd1204794d33f6f5562df108a4ad2ee371593858cb5959dbe",
  "parentHash": "0x9e78548ccaea03b0fffa7f8c26c01990bd346f11a2c6bc21ee0de8959762fb5c",
  "number": 59537,
  "timestamp": 1439139839,
  "nonce": "0xe97b6e78a741cc05",
  "difficulty": 1700524524880,
  "gasLimit": {
    "_hex": "0x2fefd8"
  },
  "gasUsed": {
    "_hex": "0x546c"
  },
  "miner": "0x3FF679B0823a026F2378E5f5F22A6F127cC85828",
  "extraData": "0x476574682f76312e302e302f6c696e75782f676f312e342e32",
  "transactions": [
    {
      "hash": "0xfcb715d9d58a0f9bb81a75b03a7277861950d0b7024b792ac59ab09dfc35cfa9",
      "blockHash": "0xab0d19f59e197aefd1204794d33f6f5562df108a4ad2ee371593858cb5959dbe",
      "blockNumber": 59537,
      "transactionIndex": 0,
      "confirmations": null,
      "from": "0xB1A4B41b8e75a153841c99c62d18588d45e7b406",
      "gasPrice": {
        "_hex": "0xde899e24f"
      },
      "gasLimit": {
        "_hex": "0x15f90"
      },
      "to": "0x2910543Af39abA0Cd09dBb2D50200b3E800A63D2",
      "value": {
        "_hex": "0x15af1d78b58c40000"
      },
      "nonce": 1,
      "data": "0x454e46435045515752",
      "r": "0x4f08ded54d425021a05162e925ebf3c6cad180799cfc70fbb521812c438d6a79",
      "s": "0x6548316a50021a8af724836bbc0c496eb2e8e40b6abc1dfcb7234b8270fb29b3",
      "v": 27,
      "creates": null,
      "raw": "0xf87701850de899e24f83015f90942910543af39aba0cd09dbb2d50200b3e800a63d289015af1d78b58c4000089454e464350455157521ba04f08ded54d425021a05162e925ebf3c6cad180799cfc70fbb521812c438d6a79a06548316a50021a8af724836bbc0c496eb2e8e40b6abc1dfcb7234b8270fb29b3",
      "networkId": 0,
      "chainId": 0
    }
  ]
}