{
  "hash": "0xf597ae7bf455980b4dc9479036b9ddd1142e19b0d7c6bfa3d51e0461b06e0dac",
  "parentHash": "0x8a2b7a5108c76150e97d9f51d88d079f6de438de09beaac320b1686fb6756e86",
  "number": 78044,
  "timestamp": 1439447220,
  "nonce": "0xd2f14d44b41c80e2",
  "difficulty": 2286610084174,
  "gasLimit": {
    "_hex": "0x2fefd8"
  },
  "gasUsed": {
    "_hex": "0x5208"
  },
  "miner": "0x93641e54c9aA6F9038FE7Adb03629a1747326Cd6",
  "extraData": "0x476574682f76312e302e312f77696e646f77732f676f312e342e32",
  "transactions": [
    {
      "hash": "0x087e17ee737818b3a64912d38a8eadec74bf089e12c2aa6ce601d726754861ed",
      "blockHash": "0xf597ae7bf455980b4dc9479036b9ddd1142e19b0d7c6bfa3d51e0461b06e0dac",
      "blockNumber": 78044,
      "transactionIndex": 0,
      "confirmations": null,
      "from": "0xa70a9a7040d542C632D8e0bE7c5513A8a5Bbc752",
      "gasPrice": {
        "_hex": "0xcc1da3945"
      },
      "gasLimit": {
        "_hex": "0x5208"
      },
      "to": "0x32Be343B94f860124dC4fEe278FDCBD38C102D88",
      "value": {
        "_hex": "0x455f7b0458890400"
      },
      "nonce": 48,
      "data": "0x",
      "r": "0xe3f5c3e2ed8fd52e0491d0e0c4625536b1d3ea029e7312a669871423e95f118f",
      "s": "0x63aa65249cf59bdb4ff80dc8328e395e65c59bf71f38e72052d5949244ac31cd",
      "v": 27,
      "creates": null,
      "raw": "0xf86c30850cc1da39458252089432be343b94f860124dc4fee278fdcbd38c102d8888455f7b0458890400801ba0e3f5c3e2ed8fd52e0491d0e0c4625536b1d3ea029e7312a669871423e95f118fa063aa65249cf59bdb4ff80dc8328e395e65c59bf71f38e72052d5949244ac31cd",
      "networkId": 0,
      "chainId": 0
    }
  ]
}