{
  "hash": "0x8252137084baebea389ddb826c4e7a63cbef2effc0d6526a5394377e5e8dada0",
  "parentHash": "0xb74b01e090982fd7ac1dcd6a1d7e2044d33b75adbc56bc42f5be153bdff485c2",
  "number": 46274,
  "timestamp": 1438920390,
  "nonce": "0xfd67a2f97abaa0d0",
  "difficulty": 1463253439505,
  "gasLimit": {
    "_hex": "0x579e"
  },
  "gasUsed": {
    "_hex": "0x5208"
  },
  "miner": "0x0A63E1A8C33e351679e3581AC84ce341C32f813a",
  "extraData": "0x476574682f76312e302e312d38326566323666362f6c696e75782f676f312e34",
  "transactions": [
    {
      "hash": "0x669890439f5093b7dfbca9b06de1d6da78ceacf1ec0753252b3e6cf10ff81a3e",
      "blockHash": "0x8252137084baebea389ddb826c4e7a63cbef2effc0d6526a5394377e5e8dada0",
      "blockNumber": 46274,
      "transactionIndex": 0,
      "confirmations": null,
      "from": "0xdC49b9dc1AbB93Ebb856547a1C0578D65f4A32DE",
      "gasPrice": {
        "_hex": "0x11113990758"
      },
      "gasLimit": {
        "_hex": "0x5208"
      },
      "to": "0xfF68C2F39C4e7FE2f92c2DC2f8615b1BF070e0FA",
      "value": {
        "_hex": "0xd02ab486cedc0000"
      },
      "nonce": 0,
      "data": "0x",
      "r": "0x354dd46cc39a49f15b12b4a05678ee19455a95667f6d2696e3c92b998d4c5b00",
      "s": "0x57225a3fe8400a12a6228811648b0bfb0383d150300150123eabda7595143164",
      "v": 28,
      "creates": null,
      "raw": "0xf86d808601111399075882520894ff68c2f39c4e7fe2f92c2dc2f8615b1bf070e0fa88d02ab486cedc0000801ca0354dd46cc39a49f15b12b4a05678ee19455a95667f6d2696e3c92b998d4c5b00a057225a3fe8400a12a6228811648b0bfb0383d150300150123eabda7595143164",
      "networkId": 0,
      "chainId": 0
    }
  ]
}