{
  "hash": "0x38f7810d271c30d6f5d0da87ee8dee83fbd7000b1571eb065b435284871e974c",
  "parentHash": "0x377f2e83ce289136018e349fab202f340d9f89138d789922b16a176850ed75c8",
  "number": 97760,
  "timestamp": 1439761277,
  "nonce": "0x1ee62df0e536b53a",
  "difficulty": 3842812398046,
  "gasLimit": {
    "_hex": "0x2fefd8"
  },
  "gasUsed": {
    "_hex": "0x56c8"
  },
  "miner": "0xe6A7a1d47ff21B6321162AEA7C6CB457D5476Bca",
  "extraData": "0x476574682f76312e302e312d38326566323666362f6c696e75782f676f312e34",
  "transactions": [
    {
      "hash": "0xe98cd09f42249d9d0a1b3abce19758a2ec5539e2faf60a3d2f53bd5d4fbf8c5e",
      "blockHash": "0x38f7810d271c30d6f5d0da87ee8dee83fbd7000b1571eb065b435284871e974c",
      "blockNumber": 97760,
      "transactionIndex": 0,
      "confirmations": null,
      "from": "0x387D649ec193BBbADad77eAF0A42e0eA8c87448c",
      "gasPrice": {
        "_hex": "0x9184e72a000"
      },
      "gasLimit": {
        "_hex": "0x5fc4"
      },
      "to": "0x0000000000000000000000000000000000000000",
      "value": {
        "_hex": "0x0"
      },
      "nonce": 1,
      "data": "0x7265676973746572000000000000000000000000000000000000000000000000546f70566d617800000000000000000000000000000000000000000000000000",
      "r": "0x76bbbfc74e6ce97d542c978463ff22e2b01a0e456025a101778b9ebe32b010d0",
      "s": "0x665676608f9dc5f28a883396efb705f3007d4506d8d299edb3f96c858ddea4c9",
      "v": 27,
      "creates": null,
      "raw": "0xf8a6018609184e72a000825fc494000000000000000000000000000000000000000080b8407265676973746572000000000000000000000000000000000000000000000000546f70566d6178000000000000000000000000000000000000000000000000001ba076bbbfc74e6ce97d542c978463ff22e2b01a0e456025a101778b9ebe32b010d0a0665676608f9dc5f28a883396efb705f3007d4506d8d299edb3f96c858ddea4c9",
      "networkId": 0,
      "chainId": 0
    }
  ]
}