{
  "hash": "0x1bc7196052831bbb87159c53fd4c04cc50bca7f9c9c18aab02a803ed973e77e2",
  "parentHash": "0x6c0f23aab7c3d7b9b8aab5fdb59dd1af5ff0666e65d622f015f4e6ea301f2f03",
  "number": 119361,
  "timestamp": 1440141438,
  "nonce": "0xcad30cbaed732698",
  "difficulty": 4413829791885,
  "gasLimit": {
    "_hex": "0x2fefd8"
  },
  "gasUsed": {
    "_hex": "0xa410"
  },
  "miner": "0xe6A7a1d47ff21B6321162AEA7C6CB457D5476Bca",
  "extraData": "0xd783010002844765746887676f312e342e32856c696e7578",
  "transactions": [
    {
      "hash": "0x26a0971f94299016c0eaa9089dbc6db4828d712432832e0266d6f5cb97cbab1b",
      "blockHash": "0x1bc7196052831bbb87159c53fd4c04cc50bca7f9c9c18aab02a803ed973e77e2",
      "blockNumber": 119361,
      "transactionIndex": 0,
      "confirmations": null,
      "from": "0xf79785E5a846aCea08F94379fCCe79B1054bDB99",
      "gasPrice": {
        "_hex": "0xba43b7400"
      },
      "gasLimit": {
        "_hex": "0x5208"
      },
      "to": "0x32Be343B94f860124dC4fEe278FDCBD38C102D88",
      "value": {
        "_hex": "0x7ec946de5fb2d000"
      },
      "nonce": 18,
      "data": "0x",
      "r": "0xc2ebe6da1eec8ef24c76b7f8631ba2574cec102cd94e2ba74afa538aab2192d2",
      "s": "0x281d6973965c08530e3d3a758de123bceaaa748b523602e2fb76c11d0945483a",
      "v": 28,
      "creates": null,
      "raw": "0xf86c12850ba43b74008252089432be343b94f860124dc4fee278fdcbd38c102d88887ec946de5fb2d000801ca0c2ebe6da1eec8ef24c76b7f8631ba2574cec102cd94e2ba74afa538aab2192d2a0281d6973965c08530e3d3a758de123bceaaa748b523602e2fb76c11d0945483a",
      "networkId": 0,
      "chainId": 0
    },
    {
      "hash": "0x943f1098c3cf6fd428b7fbfb7b289d93431b1ae1c5bb857b9474a156ff70974f",
      "blockHash": "0x1bc7196052831bbb87159c53fd4c04cc50bca7f9c9c18aab02a803ed973e77e2",
      "blockNumber": 119361,
      "transactionIndex": 1,
      "confirmations": null,
      "from": "0x34d34F0a638F6991e4E2536F41295DF6E934A646",
      "gasPrice": {
        "_hex": "0xba43b7400"
      },
      "gasLimit": {
        "_hex": "0x5208"
      },
      "to": "0x32Be343B94f860124dC4fEe278FDCBD38C102D88",
      "value": {
        "_hex": "0x4435649e7082e000"
      },
      "nonce": 30,
      "data": "0x",
      "r": "0x741f69fd09c6331c027d8966e90a933e6af9dfef9e731d9219979c57e3c15a50",
      "s": "0x62d2191720d0dc2c868398fe8cb34db36308b2801fbe5cfca8825c7ef9c18546",
      "v": 28,
      "creates": null,
      "raw": "0xf86c1e850ba43b74008252089432be343b94f860124dc4fee278fdcbd38c102d88884435649e7082e000801ca0741f69fd09c6331c027d8966e90a933e6af9dfef9e731d9219979c57e3c15a50a062d2191720d0dc2c868398fe8cb34db36308b2801fbe5cfca8825c7ef9c18546",
      "networkId": 0,
      "chainId": 0
    }
  ]
}