{
  "hash": "0x39630796ef2fa090e4473b4810840051270e4308f22a40923b27f2eb3fb4646f",
  "parentHash": "0xf89d0af99d37043c02d417dbb0abd4bb1e5d8f8d957965f9ab87770f8460cafb",
  "number": 121886,
  "timestamp": 1440184403,
  "nonce": "0x91222162fd690b58",
  "difficulty": 4471059197215,
  "gasLimit": {
    "_hex": "0x2fefd8"
  },
  "gasUsed": {
    "_hex": "0x14820"
  },
  "miner": "0xe6A7a1d47ff21B6321162AEA7C6CB457D5476Bca",
  "extraData": "0xd783010002844765746887676f312e342e32856c696e7578",
  "transactions": [
    {
      "hash": "0x55d37652e99de25f6857ef4b79bb8e557d4b3a5322a42d8c0927b92fcecfdf6c",
      "blockHash": "0x39630796ef2fa090e4473b4810840051270e4308f22a40923b27f2eb3fb4646f",
      "blockNumber": 121886,
      "transactionIndex": 0,
      "confirmations": null,
      "from": "0xF0224ea727d4924A8dd69a8d2d473Cc4c3590423",
      "gasPrice": {
        "_hex": "0xd9a0ad88b"
      },
      "gasLimit": {
        "_hex": "0x5208"
      },
      "to": "0x32Be343B94f860124dC4fEe278FDCBD38C102D88",
      "value": {
        "_hex": "0x367c07abe3a0d400"
      },
      "nonce": 17,
      "data": "0x",
      "r": "0x7a1e0117f82b6eb6a6eedb8954771f876a68523e3f10348f52c543a1786a58be",
      "s": "0x75e904addcdbfe1fee51faa68d646dd3009e6705f4b4f2cc8d433237a8527ac7",
      "v": 27,
      "creates": null,
      "raw": "0xf86c11850d9a0ad88b8252089432be343b94f860124dc4fee278fdcbd38c102d8888367c07abe3a0d400801ba07a1e0117f82b6eb6a6eedb8954771f876a68523e3f10348f52c543a1786a58bea075e904addcdbfe1fee51faa68d646dd3009e6705f4b4f2cc8d433237a8527ac7",
      "networkId": 0,
      "chainId": 0
    },
    {
      "hash": "0x21b3baca3d1a34a3470b1c192001ed8af3410d4f92c35cbad0a32314f8d2adc9",
      "blockHash": "0x39630796ef2fa090e4473b4810840051270e4308f22a40923b27f2eb3fb4646f",
      "blockNumber": 121886,
      "transactionIndex": 1,
      "confirmations": null,
      "from": "0x27e806e70622d2864e1B1f4426D72FFb0457C83a",
      "gasPrice": {
        "_hex": "0xd9a0ad88b"
      },
      "gasLimit": {
        "_hex": "0x5208"
      },
      "to": "0x32Be343B94f860124dC4fEe278FDCBD38C102D88",
      "value": {
        "_hex": "0x45e4bb3e67268000"
      },
      "nonce": 22,
      "data": "0x",
      "r": "0x6dc00ea23427a612719083d05539173fc9bafef0f6b388025c91c27d0970cf21",
      "s": "0x4c181bec0f192aaeb6f34076c577e78f14a4c187b9912c82b38d0b62953014f1",
      "v": 27,
      "creates": null,
      "raw": "0xf86c16850d9a0ad88b8252089432be343b94f860124dc4fee278fdcbd38c102d888845e4bb3e67268000801ba06dc00ea23427a612719083d05539173fc9bafef0f6b388025c91c27d0970cf21a04c181bec0f192aaeb6f34076c577e78f14a4c187b9912c82b38d0b62953014f1",
      "networkId": 0,
      "chainId": 0
    },
    {
      "hash": "0x465707aea1a656a9a1b78e85055c951b59ab70bd39841548bdd3f3bc279b2c46",
      "blockHash": "0x39630796ef2fa090e4473b4810840051270e4308f22a40923b27f2eb3fb4646f",
      "blockNumber": 121886,
      "transactionIndex": 2,
      "confirmations": null,
      "from": "0x771b12Bc207A1c4823e77075B17F8D329ACD77A3",
      "gasPrice": {
        "_hex": "0xd9a0ad88b"
      },
      "gasLimit": {
        "_hex": "0x5208"
      },
      "to": "0x32Be343B94f860124dC4fEe278FDCBD38C102D88",
      "value": {
        "_hex": "0xa0288ee07f82e800"
      },
      "nonce": 14,
      "data": "0x",
      "r": "0xeb0b9ff38c574bd21d37aedd00a9e04739ac6538f4faa6fa6da2010a6ef47289",
      "s": "0x016154616fe1fa4ec10f1186625a46b86b2379ccc7cda3ce2b8b9b358872eb7b",
      "v": 27,
      "creates": null,
      "raw": "0xf86c0e850d9a0ad88b8252089432be343b94f860124dc4fee278fdcbd38c102d8888a0288ee07f82e800801ba0eb0b9ff38c574bd21d37aedd00a9e04739ac6538f4faa6fa6da2010a6ef47289a0016154616fe1fa4ec10f1186625a46b86b2379ccc7cda3ce2b8b9b358872eb7b",
      "networkId": 0,
      "chainId": 0
    },
    {
      "hash": "0x67034c6bb4f08b8b5be5ccba1f76a081a8b658fa4d243f1d6b73e3b8304b9a64",
      "blockHash": "0x39630796ef2fa090e4473b4810840051270e4308f22a40923b27f2eb3fb4646f",
      "blockNumber": 121886,
      "transactionIndex": 3,
      "confirmations": null,
      "from": "0xe6A7a1d47ff21B6321162AEA7C6CB457D5476Bca",
      "gasPrice": {
        "_hex": "0xba43b7400"
      },
      "gasLimit": {
        "_hex": "0x55f0"
      },
      "to": "0x226E8B888E9F360E1Aea28229C40E2adC5D698b5",
      "value": {
        "_hex": "0xd4b4741ed9a23640"
      },
      "nonce": 6697,
      "data": "0x",
      "r": "0xb6a60c9281a72ba4dc88e9afaf267fe1dcf9c496db46a02452652246d3e80020",
      "s": "0x7f4ae2e22f4f0229b78740f355ee10f5c0a508f868b2011899e8140aee2cb416",
      "v": 28,
      "creates": null,
      "raw": "0xf86e821a29850ba43b74008255f094226e8b888e9f360e1aea28229c40e2adc5d698b588d4b4741ed9a23640801ca0b6a60c9281a72ba4dc88e9afaf267fe1dcf9c496db46a02452652246d3e80020a07f4ae2e22f4f0229b78740f355ee10f5c0a508f868b2011899e8140aee2cb416",
      "networkId": 0,
      "chainId": 0
    }
  ]
}