{
  "hash": "0xfdbe48bd9da6c4ced464d0379d9fb887d77a7d487e84db9740ed192609554914",
  "parentHash": "0x35b177114473342161553ebb4633dff15d8171ac3b5dda19a5f23aebf6223166",
  "number": 101263,
  "timestamp": 1439820144,
  "nonce": "0x4ff38ffaa932e062",
  "difficulty": 3813176940502,
  "gasLimit": {
    "_hex": "0x2fefd8"
  },
  "gasUsed": {
    "_hex": "0x19a28"
  },
  "miner": "0xe6A7a1d47ff21B6321162AEA7C6CB457D5476Bca",
  "extraData": "0x476574682f76312e302e312d38326566323666362f6c696e75782f676f312e34",
  "transactions": [
    {
      "hash": "0xec6dd7834b02bfa3194089e0be0dec07bcf6c9c300b3b3f1c6a0768c49c5bd82",
      "blockHash": "0xfdbe48bd9da6c4ced464d0379d9fb887d77a7d487e84db9740ed192609554914",
      "blockNumber": 101263,
      "transactionIndex": 0,
      "confirmations": null,
      "from": "0x120A270bbC009644e35F0bB6ab13f95b8199c4ad",
      "gasPrice": {
        "_hex": "0xda83b1769"
      },
      "gasLimit": {
        "_hex": "0x3d090"
      },
      "to": "0x9Af084c559597c65417d817075c037a0cba22a29",
      "value": {
        "_hex": "0x2b245481f925c00"
      },
      "nonce": 672,
      "data": "0x",
      "r": "0x15246bbba242e192edb4e2322720b322b030504ae6539aae955cc979ff6e8210",
      "s": "0x1056a665fdc319a428a962719d6428fdb724b2e9ca3d6eeed5902bf403a29f11",
      "v": 28,
      "creates": null,
      "raw": "0xf86f8202a0850da83b17698303d090949af084c559597c65417d817075c037a0cba22a298802b245481f925c00801ca015246bbba242e192edb4e2322720b322b030504ae6539aae955cc979ff6e8210a01056a665fdc319a428a962719d6428fdb724b2e9ca3d6eeed5902bf403a29f11",
      "networkId": 0,
      "chainId": 0
    },
    {
      "hash": "0x42cf992ff3536311b966fe65b0796c1205fb5a8f5b942d5b26d1c4b4fc5a1f2a",
      "blockHash": "0xfdbe48bd9da6c4ced464d0379d9fb887d77a7d487e84db9740ed192609554914",
      "blockNumber": 101263,
      "transactionIndex": 1,
      "confirmations": null,
      "from": "0x7001C4730b81A539eF8b760A3eEb14C64515137B",
      "gasPrice": {
        "_hex": "0xd01073798"
      },
      "gasLimit": {
        "_hex": "0x5208"
      },
      "to": "0x32Be343B94f860124dC4fEe278FDCBD38C102D88",
      "value": {
        "_hex": "0x1e67aedc9aab6e000"
      },
      "nonce": 3,
      "data": "0x",
      "r": "0x0d854037f28d79cd29c069134cbeb862e2a3270a081ed96dd15973a52b9e11ac",
      "s": "0x4a6162f8ccb1fc235a14c78a82fd120a6547e326bf93c4824401c4426caf1022",
      "v": 28,
      "creates": null,
      "raw": "0xf86d03850d010737988252089432be343b94f860124dc4fee278fdcbd38c102d888901e67aedc9aab6e000801ca00d854037f28d79cd29c069134cbeb862e2a3270a081ed96dd15973a52b9e11aca04a6162f8ccb1fc235a14c78a82fd120a6547e326bf93c4824401c4426caf1022",
      "networkId": 0,
      "chainId": 0
    },
    {
      "hash": "0xc667cdcf7acd6fcd5a335de31f457d127b344b6f1df864a19318f1c6d2e700f9",
      "blockHash": "0xfdbe48bd9da6c4ced464d0379d9fb887d77a7d487e84db9740ed192609554914",
      "blockNumber": 101263,
      "transactionIndex": 2,
      "confirmations": null,
      "from": "0xBa9CF76D809cF9f2e3f180AFb33f0adb0826D7DF",
      "gasPrice": {
        "_hex": "0xd01073798"
      },
      "gasLimit": {
        "_hex": "0x5208"
      },
      "to": "0x32Be343B94f860124dC4fEe278FDCBD38C102D88",
      "value": {
        "_hex": "0x24b0cd2db75c90000"
      },
      "nonce": 3,
      "data": "0x",
      "r": "0x70699b84b9380802721f69505cdf4bd93307dace5f770d56ede0ff7b1851fb90",
      "s": "0x58383814fab9f6487e1c5422bec137c05b9073346e2138c1718dbc7924478700",
      "v": 27,
      "creates": null,
      "raw": "0xf86d03850d010737988252089432be343b94f860124dc4fee278fdcbd38c102d8889024b0cd2db75c90000801ba070699b84b9380802721f69505cdf4bd93307dace5f770d56ede0ff7b1851fb90a058383814fab9f6487e1c5422bec137c05b9073346e2138c1718dbc7924478700",
      "networkId": 0,
      "chainId": 0
    },
    {
      "hash": "0x6006916499896b02f789b020398881cb95ff659ff3bed235def6f303a4fcbdbb",
      "blockHash": "0xfdbe48bd9da6c4ced464d0379d9fb887d77a7d487e84db9740ed192609554914",
      "blockNumber": 101263,
      "transactionIndex": 3,
      "confirmations": null,
      "from": "0x32Be343B94f860124dC4fEe278FDCBD38C102D88",
      "gasPrice": {
        "_hex": "0xd01073798"
      },
      "gasLimit": {
        "_hex": "0x5208"
      },
      "to": "0xCD1e66ED539dd92Fc40bBAa1FA16de8c02C14D45",
      "value": {
        "_hex": "0x2707f67ae4b9f8000"
      },
      "nonce": 1075,
      "data": "0x",
      "r": "0x076f7721a6b4521ea04919bd28ea6cefcaa978374c690a00ca4ab6d81043bb6b",
      "s": "0x4619779e731fcea2f54ae1507a0f91418b8d733e3ad46bcb111fb5df343bce73",
      "v": 27,
      "creates": null,
      "raw": "0xf86f820433850d0107379882520894cd1e66ed539dd92fc40bbaa1fa16de8c02c14d458902707f67ae4b9f8000801ba0076f7721a6b4521ea04919bd28ea6cefcaa978374c690a00ca4ab6d81043bb6ba04619779e731fcea2f54ae1507a0f91418b8d733e3ad46bcb111fb5df343bce73",
      "networkId": 0,
      "chainId": 0
    },
    {
      "hash": "0x2cddc0c6fe8ce4965a2625186b81f9236bd441484f6bb5323f877edcab4b68c9",
      "blockHash": "0xfdbe48bd9da6c4ced464d0379d9fb887d77a7d487e84db9740ed192609554914",
      "blockNumber": 101263,
      "transactionIndex": 4,
      "confirmations": null,
      "from": "0xC6c676946C54B5e7c31A07a079166C488Bf06dd7",
      "gasPrice": {
        "_hex": "0xd01073798"
      },
      "gasLimit": {
        "_hex": "0x5208"
      },
      "to": "0x32Be343B94f860124dC4fEe278FDCBD38C102D88",
      "value": {
        "_hex": "0x104351efcb6d600000"
      },
      "nonce": 4,
      "data": "0x",
      "r": "0x4e30050c37424691d463fd45be960439eaece77677b4731135d523562a98cc13",
      "s": "0x0b3bb4625226ad876b7ee5921b13b49fd5cd244dd5bafa0d5c92c3c9abd58d85",
      "v": 28,
      "creates": null,
      "raw": "0xf86d04850d010737988252089432be343b94f860124dc4fee278fdcbd38c102d8889104351efcb6d600000801ca04e30050c37424691d463fd45be960439eaece77677b4731135d523562a98cc13a00b3bb4625226ad876b7ee5921b13b49fd5cd244dd5bafa0d5c92c3c9abd58d85",
      "networkId": 0,
      "chainId": 0
    }
  ]
}