{
  "hash": "0x39fe50bb7005578c88b960f88556d04ccaa9c0353d609a5577006e3864516721",
  "parentHash": "0xf2f191cb3bf2f0683a50822124d2130b5a8b91b7512d59e1243969a80fe47cc6",
  "number": 102581,
  "timestamp": 1439840095,
  "nonce": "0x1697c759d6ca4ba9",
  "difficulty": 4003358746240,
  "gasLimit": {
    "_hex": "0x2fefd8"
  },
  "gasUsed": {
    "_hex": "0x5208"
  },
  "miner": "0x0eDEd3DA479d0beF8eeC92A76644D3f4E3C177f7",
  "extraData": "0x476574682f76312e302e312f6c696e75782f676f312e342e32",
  "transactions": [
    {
      "hash": "0x468602c0c6881b09a1488a151175479e87fdeee1868e20972f6ba91273b526d9",
      "blockHash": "0x39fe50bb7005578c88b960f88556d04ccaa9c0353d609a5577006e3864516721",
      "blockNumber": 102581,
      "transactionIndex": 0,
      "confirmations": null,
      "from": "0xDDE77A4740bA08e7F73FbE3a1674912931742EEb",
      "gasPrice": {
        "_hex": "0xd598b06ae"
      },
      "gasLimit": {
        "_hex": "0x5208"
      },
      "to": "0x25aCcdbA96d622Ca806Ee384Aa399B9D4E64fEDb",
      "value": {
        "_hex": "0x434fe48fc699d588e90"
      },
      "nonce": 0,
      "data": "0x",
      "r": "0xb06c5fe82676a2d2161c607d0d062eadba002d3000b039fb569e772655b0b8b3",
      "s": "0x32e566032b2c5ffa12fa143b04d9b1c774abe5cf0f509fc97cdd8648f462d234",
      "v": 28,
      "creates": null,
      "raw": "0xf86e80850d598b06ae8252089425accdba96d622ca806ee384aa399b9d4e64fedb8a0434fe48fc699d588e90801ca0b06c5fe82676a2d2161c607d0d062eadba002d3000b039fb569e772655b0b8b3a032e566032b2c5ffa12fa143b04d9b1c774abe5cf0f509fc97cdd8648f462d234",
      "networkId": 0,
      "chainId": 0
    }
  ]
}