{
  "hash": "0x7d7c013d75bbf9aa27da867669e7a4f9f853759e215b238af631d36d2e67a9ef",
  "parentHash": "0xc416437f88d41d8744985fbc3106f4e3608f28863c85d188c26d44ed93d6a838",
  "number": 80024,
  "timestamp": 1439478918,
  "nonce": "0xe7f602e823665f83",
  "difficulty": 2354035880616,
  "gasLimit": {
    "_hex": "0x2fefd8"
  },
  "gasUsed": {
    "_hex": "0xfc3f"
  },
  "miner": "0xe6A7a1d47ff21B6321162AEA7C6CB457D5476Bca",
  "extraData": "0x476574682f76312e302e312d38326566323666362f6c696e75782f676f312e34",
  "transactions": [
    {
      "hash": "0x32598942346637ffa80e2930d8b127e4e0f12d20703feebc322c537676f003a5",
      "blockHash": "0x7d7c013d75bbf9aa27da867669e7a4f9f853759e215b238af631d36d2e67a9ef",
      "blockNumber": 80024,
      "transactionIndex": 0,
      "confirmations": null,
      "from": "0x87C5B5874A18B4306DF8a752a6C8cc3E82daFc19",
      "gasPrice": {
        "_hex": "0x1110dde5462"
      },
      "gasLimit": {
        "_hex": "0x493e0"
      },
      "to": "0xC4c51de1AbF5D60DBd329eC0F999Fd8f021ae9fC",
      "value": {
        "_hex": "0x0"
      },
      "nonce": 116,
      "data": "0x03750d9400000000000000000000000087c5b5874a18b4306df8a752a6c8cc3e82dafc196361740000000000000000000000000000000000000000000000000000000000",
      "r": "0xbec7590fe334991084c2868bceb9597a236679a647bf35ee6bfca474de001bbd",
      "s": "0x5aa417865dacd2402293e048d0fcffcc053a6b6315fe8a169e4980b2763f366d",
      "v": 27,
      "creates": null,
      "raw": "0xf8ab748601110dde5462830493e094c4c51de1abf5d60dbd329ec0f999fd8f021ae9fc80b84403750d9400000000000000000000000087c5b5874a18b4306df8a752a6c8cc3e82dafc1963617400000000000000000000000000000000000000000000000000000000001ba0bec7590fe334991084c2868bceb9597a236679a647bf35ee6bfca474de001bbda05aa417865dacd2402293e048d0fcffcc053a6b6315fe8a169e4980b2763f366d",
      "networkId": 0,
      "chainId": 0
    },
    {
      "hash": "0xfd4bc0a2d128dc83ec5312fe3c41a3003d1ed0e45814a2378c7a3615d3db449d",
      "blockHash": "0x7d7c013d75bbf9aa27da867669e7a4f9f853759e215b238af631d36d2e67a9ef",
      "blockNumber": 80024,
      "transactionIndex": 1,
      "confirmations": null,
      "from": "0xB7268c7705A1866b2A78e882fdfDc8E2a4e1428E",
      "gasPrice": {
        "_hex": "0xd8364fc25"
      },
      "gasLimit": {
        "_hex": "0x15f90"
      },
      "to": "0x96811Ad897894eC178872117C8BF2f03971A393B",
      "value": {
        "_hex": "0x8ac7230489e80000"
      },
      "nonce": 22,
      "data": "0x",
      "r": "0xf7c16d79520570f7659c3e74febdc4045419e109ef1884880c010ad24cbfff12",
      "s": "0x4702b76c86f3af20c0e8361874d41ab2fca301660d7ed5a25af15c27928945c9",
      "v": 27,
      "creates": null,
      "raw": "0xf86d16850d8364fc2583015f909496811ad897894ec178872117c8bf2f03971a393b888ac7230489e80000801ba0f7c16d79520570f7659c3e74febdc4045419e109ef1884880c010ad24cbfff12a04702b76c86f3af20c0e8361874d41ab2fca301660d7ed5a25af15c27928945c9",
      "networkId": 0,
      "chainId": 0
    }
  ]
}