{
  "hash": "0xd015ed42b6bacc8eff76188d9e4c1c830598b4eaecc75a8f20009eeb6eb3795e",
  "parentHash": "0xdac4716e97f7f94b10231703079b38f437284a7334f81eaf2573514bd1881c85",
  "number": 47333,
  "timestamp": 1438938335,
  "nonce": "0xe5b965db0bb136ce",
  "difficulty": 1452392036852,
  "gasLimit": {
    "_hex": "0xb170"
  },
  "gasUsed": {
    "_hex": "0x5208"
  },
  "miner": "0xab84940B570d6358ed6A9Dbf7e0bc8Ec8F5A6E89",
  "extraData": "0x322831652933",
  "transactions": [
    {
      "hash": "0x25a8e80ebec651e982ead2d0f6889088df2d6c1e834df8c03338bd63dad147c6",
      "blockHash": "0xd015ed42b6bacc8eff76188d9e4c1c830598b4eaecc75a8f20009eeb6eb3795e",
      "blockNumber": 47333,
      "transactionIndex": 0,
      "confirmations": null,
      "from": "0xe6A7a1d47ff21B6321162AEA7C6CB457D5476Bca",
      "gasPrice": {
        "_hex": "0x131d9e4001"
      },
      "gasLimit": {
        "_hex": "0x5208"
      },
      "to": "0xE53Fe5B196a315dE96297181E99F6c22a9313fd3",
      "value": {
        "_hex": "0xcb91d2dc2c835e08"
      },
      "nonce": 112,
      "data": "0x",
      "r": "0x72bb3f75caea74f07272251ce71556255faf249662dcd74b7b2f1745ba3870f0",
      "s": "0x534f3c5929348e789cbb49be0e75b6493e5e643c4d2d6026e4ba9e0eb8fe152e",
      "v": 28,
      "creates": null,
      "raw": "0xf86c7085131d9e400182520894e53fe5b196a315de96297181e99f6c22a9313fd388cb91d2dc2c835e08801ca072bb3f75caea74f07272251ce71556255faf249662dcd74b7b2f1745ba3870f0a0534f3c5929348e789cbb49be0e75b6493e5e643c4d2d6026e4ba9e0eb8fe152e",
      "networkId": 0,
      "chainId": 0
    }
  ]
}