{
  "hash": "0x99be99a187b6ce245071dbbd9ac79833911a4dfc55477bd7615192e4e79a0cd8",
  "parentHash": "0xf08b6331efe3596b1c2bed7531b4eed0af27eb0fc3cf29b08b773da8bb380b81",
  "number": 74543,
  "timestamp": 1439387720,
  "nonce": "0x10ea0fbcca191fdb",
  "difficulty": 2220433842677,
  "gasLimit": {
    "_hex": "0x2fefd8"
  },
  "gasUsed": {
    "_hex": "0x5208"
  },
  "miner": "0xEF247E639d49461D25F57e9362CadE3120910Ce0",
  "extraData": "0x476574682f76312e302e312f6c696e75782f676f312e342e32",
  "transactions": [
    {
      "hash": "0xc1b13f890e2200465ac41dd92d079435dad53cec58d21c71de71be6ee9e8f746",
      "blockHash": "0x99be99a187b6ce245071dbbd9ac79833911a4dfc55477bd7615192e4e79a0cd8",
      "blockNumber": 74543,
      "transactionIndex": 0,
      "confirmations": null,
      "from": "0xDC6A542F97876923583019b526335fD1fB0DfC6A",
      "gasPrice": {
        "_hex": "0xcd087f6e0"
      },
      "gasLimit": {
        "_hex": "0x5208"
      },
      "to": "0x32Be343B94f860124dC4fEe278FDCBD38C102D88",
      "value": {
        "_hex": "0xddc9b81fef59000"
      },
      "nonce": 5,
      "data": "0x",
      "r": "0x9d9438b575e4741698826756b78b890f6ca2bf2b6c1088384013256e42dbf862",
      "s": "0x7671e2a441dfec32b3c5982b8684cf675e46f7fb37a2e3d23ed651f7f5f6ef96",
      "v": 27,
      "creates": null,
      "raw": "0xf86c05850cd087f6e08252089432be343b94f860124dc4fee278fdcbd38c102d88880ddc9b81fef59000801ba09d9438b575e4741698826756b78b890f6ca2bf2b6c1088384013256e42dbf862a07671e2a441dfec32b3c5982b8684cf675e46f7fb37a2e3d23ed651f7f5f6ef96",
      "networkId": 0,
      "chainId": 0
    }
  ]
}