{
  "hash": "0xb77c377a9cee09ff8fb514fd6de027e4529f9d76edb0ae5aa5e09f755e7feb35",
  "parentHash": "0x41c7472122adc44ba791b6102d09d1a985d9dad5e4547ed8ff7c72d17ee5f354",
  "number": 50191,
  "timestamp": 1438985210,
  "nonce": "0x0688e29a8f667cb1",
  "difficulty": 1515643241940,
  "gasLimit": {
    "_hex": "0x55bb1"
  },
  "gasUsed": {
    "_hex": "0x546c"
  },
  "miner": "0xbb7B8287f3F0a933474a79eAe42CBCa977791171",
  "extraData": "0x476574682f4c5649562f76312e302e312f6c696e75782f676f312e342e32",
  "transactions": [
    {
      "hash": "0x16bcd8a905cf82430ad7ef9521cb91b5fd368ae640031d4cd6654aa40da3421c",
      "blockHash": "0xb77c377a9cee09ff8fb514fd6de027e4529f9d76edb0ae5aa5e09f755e7feb35",
      "blockNumber": 50191,
      "transactionIndex": 0,
      "confirmations": null,
      "from": "0xb981AD5E6B7793a23fC6c1e8692Eb2965D18d0dA",
      "gasPrice": {
        "_hex": "0x110c8f7d8de"
      },
      "gasLimit": {
        "_hex": "0xc350"
      },
      "to": "0x2910543Af39abA0Cd09dBb2D50200b3E800A63D2",
      "value": {
        "_hex": "0x21e1029e370237a0000"
      },
      "nonce": 0,
      "data": "0x454e553057344a3830",
      "r": "0xe35c6b89be9c1d868926cb86d7c1eb7d802a4ba01a6d45b6015c2f9981e1648a",
      "s": "0xa5f7857346cf45ff9b9a2b39974fd50af487bae799ae68d54cf55f79e1ecc808",
      "v": 28,
      "creates": null,
      "raw": "0xf87880860110c8f7d8de82c350942910543af39aba0cd09dbb2d50200b3e800a63d28a021e1029e370237a000089454e553057344a38301ca0e35c6b89be9c1d868926cb86d7c1eb7d802a4ba01a6d45b6015c2f9981e1648aa0a5f7857346cf45ff9b9a2b39974fd50af487bae799ae68d54cf55f79e1ecc808",
      "networkId": 0,
      "chainId": 0
    }
  ]
}