{
  "hash": "0x0344a9a475c4bb6b4a35d02b3208309462a2d8a3ee2437c5bc9a33277e375cf0",
  "parentHash": "0xd207021733e3ea4925ce017bdf28a92c09c8111c0f4a0a21fa884e698558aff5",
  "number": 99168,
  "timestamp": 1439785554,
  "nonce": "0x10907c3a9ddc529d",
  "difficulty": 3801115053449,
  "gasLimit": {
    "_hex": "0x2fefd8"
  },
  "gasUsed": {
    "_hex": "0x5208"
  },
  "miner": "0x790b8a3cE86E707ED0eD32bF89B3269692a23CC1",
  "extraData": "0xd783010001844765746887676f312e342e32856c696e7578",
  "transactions": [
    {
      "hash": "0x50b15f09d3334732f0311010a818d470bc11007010633be789c445bee82b44cc",
      "blockHash": "0x0344a9a475c4bb6b4a35d02b3208309462a2d8a3ee2437c5bc9a33277e375cf0",
      "blockNumber": 99168,
      "transactionIndex": 0,
      "confirmations": null,
      "from": "0xa70a9a7040d542C632D8e0bE7c5513A8a5Bbc752",
      "gasPrice": {
        "_hex": "0xde6b928ae"
      },
      "gasLimit": {
        "_hex": "0x5208"
      },
      "to": "0x32Be343B94f860124dC4fEe278FDCBD38C102D88",
      "value": {
        "_hex": "0x8b198aaa5d0db000"
      },
      "nonce": 192,
      "data": "0x",
      "r": "0xa05be694fc2aeb7232bc373c7d9153f6e072185572c41e5a394a1c675fee3122",
      "s": "0x24d116d044ef645db5daa955c8e0d577b88f75ba9cee4e31b94ba261a48b2470",
      "v": 28,
      "creates": null,
      "raw": "0xf86d81c0850de6b928ae8252089432be343b94f860124dc4fee278fdcbd38c102d88888b198aaa5d0db000801ca0a05be694fc2aeb7232bc373c7d9153f6e072185572c41e5a394a1c675fee3122a024d116d044ef645db5daa955c8e0d577b88f75ba9cee4e31b94ba261a48b2470",
      "networkId": 0,
      "chainId": 0
    }
  ]
}