{
  "hash": "0xd446f981df0c7999821ba1dee72f2398cae36f78ed93349b1934d0d1d31e4e0e",
  "parentHash": "0x075979ca4c429025996b6da4a32d00cfa4aad6109d85fbd3fc16eac6a1983e3e",
  "number": 115246,
  "timestamp": 1440053987,
  "nonce": "0x5741980dcdcb9372",
  "difficulty": 4531768228313,
  "gasLimit": {
    "_hex": "0x2fefd8"
  },
  "gasUsed": {
    "_hex": "0x520c"
  },
  "miner": "0x52bc44d5378309EE2abF1539BF71dE1b7d7bE3b5",
  "extraData": "0x476574682f76312e302e312d61383839306436312f6c696e75782f676f312e34",
  "transactions": [
    {
      "hash": "0x31ba7b902b68f0996944da7df56e64d7a5a68c56e855f8eae1e40ad120a99ffd",
      "blockHash": "0xd446f981df0c7999821ba1dee72f2398cae36f78ed93349b1934d0d1d31e4e0e",
      "blockNumber": 115246,
      "transactionIndex": 0,
      "confirmations": null,
      "from": "0xb9836ec1f42Bd48331bceaedb74a6Bcdc22832bD",
      "gasPrice": {
        "_hex": "0xd4c1ecc97"
      },
      "gasLimit": {
        "_hex": "0x7530"
      },
      "to": "0x7cB57B5A97eAbe94205C07890BE4c1aD31E486A8",
      "value": {
        "_hex": "0x38d7ea4c68000"
      },
      "nonce": 20,
      "data": "0x00",
      "r": "0xe946e106323e1b0a5a14bcbf231c2018133b5f259dec9e6243204fd8aca288ac",
      "s": "0x7ec5e2ca6dbe115b0572ba1620a7d74ffb3012a9c58e27ef04c0d2298aa7c6ff",
      "v": 27,
      "creates": null,
      "raw": "0xf86b14850d4c1ecc97827530947cb57b5a97eabe94205c07890be4c1ad31e486a887038d7ea4c68000001ba0e946e106323e1b0a5a14bcbf231c2018133b5f259dec9e6243204fd8aca288aca07ec5e2ca6dbe115b0572ba1620a7d74ffb3012a9c58e27ef04c0d2298aa7c6ff",
      "networkId": 0,
      "chainId": 0
    }
  ]
}