{
  "hash": "0x1b0e66fd067e28c0a0bdcf69ec43262fb2039a782b0a6f92322b6916cbc8c960",
  "parentHash": "0x1da13ae1a98c2aa8c7480bfe3c4503785cb5a885eab1e125e7d7b3bfd068e389",
  "number": 59995,
  "timestamp": 1439147190,
  "nonce": "0x26980bc127d3146e",
  "difficulty": 1732277191508,
  "gasLimit": {
    "_hex": "0x2fefd8"
  },
  "gasUsed": {
    "_hex": "0x499c2"
  },
  "miner": "0x65Fe776c996eB7c15f86F236B945353b9a18f335",
  "extraData": "0x476574682f76312e302e312f77696e646f77732f676f312e342e32",
  "transactions": [
    {
      "hash": "0x2c9f4a75e1294be3f4adabe8ad8518ba1369a24830a953534b68f2760b0b3ef6",
      "blockHash": "0x1b0e66fd067e28c0a0bdcf69ec43262fb2039a782b0a6f92322b6916cbc8c960",
      "blockNumber": 59995,
      "transactionIndex": 0,
      "confirmations": null,
      "from": "0x2910543Af39abA0Cd09dBb2D50200b3E800A63D2",
      "gasPrice": {
        "_hex": "0xd4e519933"
      },
      "gasLimit": {
        "_hex": "0x5208"
      },
      "to": "0x667f01423a28c172E9593779554952B0c2c6524D",
      "value": {
        "_hex": "0x1bafa9ee16e78000"
      },
      "nonce": 0,
      "data": "0x",
      "r": "0xd409cf10c7a5400121134330924c30f0a1f3f4799b50f537889775f8dd09e4ba",
      "s": "0x7b91c26e3f3ed58b17cd8389312bb82981850d826dd37c0bfc50960073ad6171",
      "v": 28,
      "creates": null,
      "raw": "0xf86c80850d4e51993382520894667f01423a28c172e9593779554952b0c2c6524d881bafa9ee16e78000801ca0d409cf10c7a5400121134330924c30f0a1f3f4799b50f537889775f8dd09e4baa07b91c26e3f3ed58b17cd8389312bb82981850d826dd37c0bfc50960073ad6171",
      "networkId": 0,
      "chainId": 0
    },
    {
      "hash": "0x2b1620293394fd551e50848a0417228cc71ff788fb208b7ff1090ee9f3558430",
      "blockHash": "0x1b0e66fd067e28c0a0bdcf69ec43262fb2039a782b0a6f92322b6916cbc8c960",
      "blockNumber": 59995,
      "transactionIndex": 1,
      "confirmations": null,
      "from": "0xB100987e77FEbA6F022dBd22B80B008e35d3Ff2E",
      "gasPrice": {
        "_hex": "0xd1e2d113d"
      },
      "gasLimit": {
        "_hex": "0xf4240"
      },
      "to": null,
      "value": {
        "_hex": "0x0"
      },
      "nonce": 3,
      "data": "0x6060604052600660006000505560026001600050555b33600260006101000a81548173ffffffffffffffffffffffffffffffffffffffff021916908302179055505b6102e8806100506000396000f30060606040526000357c01000000000000000000000000000000000000000000000000000000009004806341c0e1b5146100655780635ec01e4d146100725780636dd1f0ed14610093578063701fd0f1146100b4578063f14fcbc8146100db57610063565b005b6100706004506100ee565b005b61007d6004506102db565b6040518082815260200191505060405180910390f35b61009e6004506101eb565b6040518082815260200191505060405180910390f35b6100c560048035906020015061022d565b6040518082815260200191505060405180910390f35b6100ec600480359060200150610182565b005b600260009054906101000a900473ffffffffffffffffffffffffffffffffffffffff1673ffffffffffffffffffffffffffffffffffffffff163373ffffffffffffffffffffffffffffffffffffffff16141561017f57600260009054906101000a900473ffffffffffffffffffffffffffffffffffffffff1673ffffffffffffffffffffffffffffffffffffffff16ff5b5b565b60406040519081016040528082815260200143815260200150600360005060003373ffffffffffffffffffffffffffffffffffffffff16815260200190815260200160002060005060008201518160000160005055602082015181600101600050559050505b50565b6000600360005060003373ffffffffffffffffffffffffffffffffffffffff16815260200190815260200160002060005060000160005054905061022a565b90565b60006000600360005060003373ffffffffffffffffffffffffffffffffffffffff1681526020019081526020016000206000509050600081600101600050541480610285575060006000505443038160010160005054115b806102ac575080600001600050548360405180828152602001915050604051809103902014155b156102ba57600091506102d5565b826004600082828250541892505081905550600191506102d5565b50919050565b60008090506102e5565b9056",
      "r": "0x85b807be2bc1fb95c857b2f0d9abf24e650e523f18327bf7e40fc1249f115dba",
      "s": "0x58fb3565830127ac05e2a5dbf5e79046c78ebbb9bbc6d7911d0d828524f5e62f",
      "v": 28,
      "creates": "0x63d45F78197DeB5Ea5761Caf292b0AB4b7aC2f70",
      "raw": "0xf9038b03850d1e2d113d830f42408080b903386060604052600660006000505560026001600050555b33600260006101000a81548173ffffffffffffffffffffffffffffffffffffffff021916908302179055505b6102e8806100506000396000f30060606040526000357c01000000000000000000000000000000000000000000000000000000009004806341c0e1b5146100655780635ec01e4d146100725780636dd1f0ed14610093578063701fd0f1146100b4578063f14fcbc8146100db57610063565b005b6100706004506100ee565b005b61007d6004506102db565b6040518082815260200191505060405180910390f35b61009e6004506101eb565b6040518082815260200191505060405180910390f35b6100c560048035906020015061022d565b6040518082815260200191505060405180910390f35b6100ec600480359060200150610182565b005b600260009054906101000a900473ffffffffffffffffffffffffffffffffffffffff1673ffffffffffffffffffffffffffffffffffffffff163373ffffffffffffffffffffffffffffffffffffffff16141561017f57600260009054906101000a900473ffffffffffffffffffffffffffffffffffffffff1673ffffffffffffffffffffffffffffffffffffffff16ff5b5b565b60406040519081016040528082815260200143815260200150600360005060003373ffffffffffffffffffffffffffffffffffffffff16815260200190815260200160002060005060008201518160000160005055602082015181600101600050559050505b50565b6000600360005060003373ffffffffffffffffffffffffffffffffffffffff16815260200190815260200160002060005060000160005054905061022a565b90565b60006000600360005060003373ffffffffffffffffffffffffffffffffffffffff1681526020019081526020016000206000509050600081600101600050541480610285575060006000505443038160010160005054115b806102ac575080600001600050548360405180828152602001915050604051809103902014155b156102ba57600091506102d5565b826004600082828250541892505081905550600191506102d5565b50919050565b60008090506102e5565b90561ca085b807be2bc1fb95c857b2f0d9abf24e650e523f18327bf7e40fc1249f115dbaa058fb3565830127ac05e2a5dbf5e79046c78ebbb9bbc6d7911d0d828524f5e62f",
      "networkId": 0,
      "chainId": 0
    }
  ]
}