{
  "hash": "0x781fa866a1fd7ec4ecaf05968abcb717106e242ebe71592fd8907cea7dceb4a6",
  "parentHash": "0x5a621f0f30fe1151e095b11351cad90e38b6e6f95cb36637f0f0a2bbd40f827e",
  "number": 80537,
  "timestamp": 1439486960,
  "nonce": "0x63a8abf5bd333e2a",
  "difficulty": 2422690483800,
  "gasLimit": {
    "_hex": "0x2fefd8"
  },
  "gasUsed": {
    "_hex": "0x1b4ad"
  },
  "miner": "0xe6A7a1d47ff21B6321162AEA7C6CB457D5476Bca",
  "extraData": "0x476574682f76312e302e312d38326566323666362f6c696e75782f676f312e34",
  "transactions": [
    {
      "hash": "0xa27cfbe788dd425c89394aa29ec2d979bbac90609a3f55e37a0d2c41584a4fd4",
      "blockHash": "0x781fa866a1fd7ec4ecaf05968abcb717106e242ebe71592fd8907cea7dceb4a6",
      "blockNumber": 80537,
      "transactionIndex": 0,
      "confirmations": null,
      "from": "0x87C5B5874A18B4306DF8a752a6C8cc3E82daFc19",
      "gasPrice": {
        "_hex": "0x108e05119e4"
      },
      "gasLimit": {
        "_hex": "0x493e0"
      },
      "to": "0xC4c51de1AbF5D60DBd329eC0F999Fd8f021ae9fC",
      "value": {
        "_hex": "0x3aa70c6405c5cb2"
      },
      "nonce": 238,
      "data": "0x8d2161860000000000000000000000000000000000000000000000000000000000000006d3d96ceed0cfca4794c2a5a3d3aeefe69da0a2a669e66a5651f30b64831c3db0",
      "r": "0x6384e556b76654ce193550a25e5bd2ad0ec56017bd9f8f6efe697ae6eb7b367c",
      "s": "0x2e95e4f9701f5905dde5efbea122e5c0703241fc076d71f376c7fbe1b502aab7",
      "v": 28,
      "creates": null,
      "raw": "0xf8b481ee860108e05119e4830493e094c4c51de1abf5d60dbd329ec0f999fd8f021ae9fc8803aa70c6405c5cb2b8448d2161860000000000000000000000000000000000000000000000000000000000000006d3d96ceed0cfca4794c2a5a3d3aeefe69da0a2a669e66a5651f30b64831c3db01ca06384e556b76654ce193550a25e5bd2ad0ec56017bd9f8f6efe697ae6eb7b367ca02e95e4f9701f5905dde5efbea122e5c0703241fc076d71f376c7fbe1b502aab7",
      "networkId": 0,
      "chainId": 0
    }
  ]
}