{
  "hash": "0x1326a93385eb33dc2f3b92f5531710d45934e4d98069e167f099689be2b2574f",
  "parentHash": "0x82dddf73ff12f20b40df171098b466bf46b6adcc8f8696c2f80d59119ce93aa1",
  "number": 74285,
  "timestamp": 1439383705,
  "nonce": "0x9065ef2fd5b54190",
  "difficulty": 2205374684444,
  "gasLimit": {
    "_hex": "0x2fefd8"
  },
  "gasUsed": {
    "_hex": "0x522d"
  },
  "miner": "0x2134e2a2b718DCa96580ECAC31E653Ea1fdd58DA",
  "extraData": "0x476574682f76312e302e312f77696e646f77732f676f312e342e32",
  "transactions": [
    {
      "hash": "0x7845b055c8c13ee5b55e3254ca4e68bbcf20cc2e01c1cc8ee9d3698c49a8a350",
      "blockHash": "0x1326a93385eb33dc2f3b92f5531710d45934e4d98069e167f099689be2b2574f",
      "blockNumber": 74285,
      "transactionIndex": 0,
      "confirmations": null,
      "from": "0x87C5B5874A18B4306DF8a752a6C8cc3E82daFc19",
      "gasPrice": {
        "_hex": "0x115b37e1931"
      },
      "gasLimit": {
        "_hex": "0x15f90"
      },
      "to": "0x88A91FD7Fb8AAEa8cDAD2C990f1DBDcd28022a02",
      "value": {
        "_hex": "0x8ac7230489e80000"
      },
      "nonce": 10,
      "data": "0x",
      "r": "0xb56a3b67a66609819ff2be2631afe4519f9429e61b2418e947f465e8116f2921",
      "s": "0x4b98b7b85c9adc5f801aff6654e2d33b5be71015229abeec430db87c9ffb1a2d",
      "v": 27,
      "creates": null,
      "raw": "0xf86e0a860115b37e193183015f909488a91fd7fb8aaea8cdad2c990f1dbdcd28022a02888ac7230489e80000801ba0b56a3b67a66609819ff2be2631afe4519f9429e61b2418e947f465e8116f2921a04b98b7b85c9adc5f801aff6654e2d33b5be71015229abeec430db87c9ffb1a2d",
      "networkId": 0,
      "chainId": 0
    }
  ]
}