{
  "hash": "0xbda337876f12db3bc9b2d2943fa3b4946d535765de307fdb4a02350b95508ca3",
  "parentHash": "0xd4b96852aedbb0739577284b92ad84b2d77bf773ce67f38c67adbea8693e2a78",
  "number": 100822,
  "timestamp": 1439812858,
  "nonce": "0x4ca9ce2d0f54e84d",
  "difficulty": 3848920041031,
  "gasLimit": {
    "_hex": "0x2fefd8"
  },
  "gasUsed": {
    "_hex": "0xa410"
  },
  "miner": "0xEcbbFE46500E669149DD031fcdbeb3ed9be638Fb",
  "extraData": "0x476574682f76312e302e312f6c696e75782f676f312e342e32",
  "transactions": [
    {
      "hash": "0x615e97c69bf7e07b2f389827e43e55bae4baefc34a62c4e553f8fecc30307032",
      "blockHash": "0xbda337876f12db3bc9b2d2943fa3b4946d535765de307fdb4a02350b95508ca3",
      "blockNumber": 100822,
      "transactionIndex": 0,
      "confirmations": null,
      "from": "0xE921770D00ff942284b8f101b71C029ecE92DA53",
      "gasPrice": {
        "_hex": "0xd264329e5"
      },
      "gasLimit": {
        "_hex": "0x5208"
      },
      "to": "0x32Be343B94f860124dC4fEe278FDCBD38C102D88",
      "value": {
        "_hex": "0x6a0d4eb1c42c10000"
      },
      "nonce": 3,
      "data": "0x",
      "r": "0x9bf11728dd371f6f2a502d7172f79305ef8697af99c0dda6a742ea3fa61b097f",
      "s": "0x43e54db61292771dc7d07bb3f2b575ecd9a80799eb624c87e6885cdd407d1142",
      "v": 27,
      "creates": null,
      "raw": "0xf86d03850d264329e58252089432be343b94f860124dc4fee278fdcbd38c102d888906a0d4eb1c42c10000801ba09bf11728dd371f6f2a502d7172f79305ef8697af99c0dda6a742ea3fa61b097fa043e54db61292771dc7d07bb3f2b575ecd9a80799eb624c87e6885cdd407d1142",
      "networkId": 0,
      "chainId": 0
    },
    {
      "hash": "0xc2df49e0ef9fd407b2769fff26339214dec1901407b798c1e41462331fc86e0b",
      "blockHash": "0xbda337876f12db3bc9b2d2943fa3b4946d535765de307fdb4a02350b95508ca3",
      "blockNumber": 100822,
      "transactionIndex": 1,
      "confirmations": null,
      "from": "0xcD690730A45cdebeF24F2a3db2de181bFBA5CBea",
      "gasPrice": {
        "_hex": "0xd264329e5"
      },
      "gasLimit": {
        "_hex": "0x5208"
      },
      "to": "0x32Be343B94f860124dC4fEe278FDCBD38C102D88",
      "value": {
        "_hex": "0xae2cf684611af000"
      },
      "nonce": 6,
      "data": "0x",
      "r": "0xa05a2077fcfead7becb91628723168907849683da5dc60f6af31ca629dc87018",
      "s": "0x07a4c88ced3f240cd6f56ce82d1454f227d68b20a16ea5291c511120bd6cd1f2",
      "v": 27,
      "creates": null,
      "raw": "0xf86c06850d264329e58252089432be343b94f860124dc4fee278fdcbd38c102d8888ae2cf684611af000801ba0a05a2077fcfead7becb91628723168907849683da5dc60f6af31ca629dc87018a007a4c88ced3f240cd6f56ce82d1454f227d68b20a16ea5291c511120bd6cd1f2",
      "networkId": 0,
      "chainId": 0
    }
  ]
}