{
  "hash": "0xbafa610ad33e7827fd74a927f0d8a5533d10a7f48d7d501f48f3b4db83988fb6",
  "parentHash": "0xdb85f571593538a96097ae43e5ef97133e7f7d9b0babe4608da1bf3adc1e4f8e",
  "number": 73238,
  "timestamp": 1439365691,
  "nonce": "0x83665198ed99edfb",
  "difficulty": 2202421391596,
  "gasLimit": {
    "_hex": "0x2fefd8"
  },
  "gasUsed": {
    "_hex": "0x546c"
  },
  "miner": "0x88D74a59454F6cF3B51ef6b9136AFb6b9D405A88",
  "extraData": "0x476574682f76312e302e312d38326566323666362f6c696e75782f676f312e34",
  "transactions": [
    {
      "hash": "0x4c6ec3c2ece6a8efeb8752b660eceed249c17cd8eaea530ed9be1ed7accac8ff",
      "blockHash": "0xbafa610ad33e7827fd74a927f0d8a5533d10a7f48d7d501f48f3b4db83988fb6",
      "blockNumber": 73238,
      "transactionIndex": 0,
      "confirmations": null,
      "from": "0x7294c918b1aefB4d25927eF9d799e71F93a28E85",
      "gasPrice": {
        "_hex": "0x110c8f7d8de"
      },
      "gasLimit": {
        "_hex": "0xc350"
      },
      "to": "0x2910543Af39abA0Cd09dBb2D50200b3E800A63D2",
      "value": {
        "_hex": "0x6124fee993bc0000"
      },
      "nonce": 0,
      "data": "0x454e36444a45333347",
      "r": "0x4aa3ae8ff9d3e8d93598500b488b074af6d7df5ac8726fe4ae034945aad2cf9b",
      "s": "0xe9c6f3777322ea1e8b73f81716bf42afff0b4357bc2992ea72609705313d711f",
      "v": 27,
      "creates": null,
      "raw": "0xf87680860110c8f7d8de82c350942910543af39aba0cd09dbb2d50200b3e800a63d2886124fee993bc000089454e36444a453333471ba04aa3ae8ff9d3e8d93598500b488b074af6d7df5ac8726fe4ae034945aad2cf9ba0e9c6f3777322ea1e8b73f81716bf42afff0b4357bc2992ea72609705313d711f",
      "networkId": 0,
      "chainId": 0
    }
  ]
}