{
  "hash": "0xa652fc4fc59985b15debeba7eb1d3cdeeb525fdb6b57f3e9d2c01f60b5abb977",
  "parentHash": "0xf7c63eb68871b86fe4b72dc7550a690c0cbb3965cb93e661014caeda7179b2ba",
  "number": 56376,
  "timestamp": 1439086371,
  "nonce": "0x2fe90dc05e1e8f63",
  "difficulty": 1644805531362,
  "gasLimit": {
    "_hex": "0x2fefd8"
  },
  "gasUsed": {
    "_hex": "0x5208"
  },
  "miner": "0x93641e54c9aA6F9038FE7Adb03629a1747326Cd6",
  "extraData": "0x476574682f76312e302e312f77696e646f77732f676f312e342e32",
  "transactions": [
    {
      "hash": "0x90865386e46c6d222a3cc3431537d8e14ad1532591e87480ff7844af48e0af51",
      "blockHash": "0xa652fc4fc59985b15debeba7eb1d3cdeeb525fdb6b57f3e9d2c01f60b5abb977",
      "blockNumber": 56376,
      "transactionIndex": 0,
      "confirmations": null,
      "from": "0xa4A7D306F510cd58359428c0D2F7C3609d5674D7",
      "gasPrice": {
        "_hex": "0xd56c82d59"
      },
      "gasLimit": {
        "_hex": "0x186a0"
      },
      "to": "0xA9634393AFaCf497F51723fdf76c7e5d8c8ACacd",
      "value": {
        "_hex": "0xb570f4aed5806c0000"
      },
      "nonce": 1,
      "data": "0x",
      "r": "0x454536a8d9f8c4225292ce872dbc8544546ce32fe2aa832f16ce82416718e13c",
      "s": "0x6f342edb52aee1c400b99d08f1155757a5b09cdf615f6d733615fb869d2760f5",
      "v": 28,
      "creates": null,
      "raw": "0xf86e01850d56c82d59830186a094a9634393afacf497f51723fdf76c7e5d8c8acacd89b570f4aed5806c0000801ca0454536a8d9f8c4225292ce872dbc8544546ce32fe2aa832f16ce82416718e13ca06f342edb52aee1c400b99d08f1155757a5b09cdf615f6d733615fb869d2760f5",
      "networkId": 0,
      "chainId": 0
    }
  ]
}