{
  "hash": "0x3eed8f3cb86d97fff595467f6664bad1bcce99aaf5ad80429b370e60f10821fb",
  "parentHash": "0x12e65e630c0d2f6f0bece1205a79b4807aee4eb7e248a48d59abd6447cc081a2",
  "number": 78737,
  "timestamp": 1439458421,
  "nonce": "0xab5bfbe1496d1f50",
  "difficulty": 2305479263110,
  "gasLimit": {
    "_hex": "0x2fefd8"
  },
  "gasUsed": {
    "_hex": "0x15e0f"
  },
  "miner": "0xe090Ffdced499691fA9379752a59F8A058c1eE4A",
  "extraData": "0x476574682f76312e302e312f6c696e75782f676f312e342e32",
  "transactions": [
    {
      "hash": "0x82a6b90a4ff2100a17bfac9572345671b90a9de33646c69b7ba6197fbf61a43c",
      "blockHash": "0x3eed8f3cb86d97fff595467f6664bad1bcce99aaf5ad80429b370e60f10821fb",
      "blockNumber": 78737,
      "transactionIndex": 0,
      "confirmations": null,
      "from": "0xD1826373C4E0938f0b4302B40324f7f9c546492C",
      "gasPrice": {
        "_hex": "0xd02dc724a"
      },
      "gasLimit": {
        "_hex": "0x15f90"
      },
      "to": "0x94501FF386c3E84cB8FE37924Daa869151417e55",
      "value": {
        "_hex": "0x0"
      },
      "nonce": 19,
      "data": "0x237297a4",
      "r": "0x7e2eefbb963b8cd73356683638ea540bc8e01e5410699c3afb414c0555d109ab",
      "s": "0x22f948aa46d9b1886d35cd642d40f3cfc87f51ad37dd45867f27438542f225f9",
      "v": 28,
      "creates": null,
      "raw": "0xf86913850d02dc724a83015f909494501ff386c3e84cb8fe37924daa869151417e558084237297a41ca07e2eefbb963b8cd73356683638ea540bc8e01e5410699c3afb414c0555d109aba022f948aa46d9b1886d35cd642d40f3cfc87f51ad37dd45867f27438542f225f9",
      "networkId": 0,
      "chainId": 0
    }
  ]
}