{
  "hash": "0xae58443ef22ce3bdc6d796021bd9b688fac1aa8f53b46cc18b3543e1cc85d1bb",
  "parentHash": "0x1221eea5945af6fe660cc0896a1dfac47e9a1e30cd8c1c6b2fd6958db4ed877b",
  "number": 99567,
  "timestamp": 1439792346,
  "nonce": "0x7975176227d91649",
  "difficulty": 3776883646822,
  "gasLimit": {
    "_hex": "0x2fefd8"
  },
  "gasUsed": {
    "_hex": "0x5208"
  },
  "miner": "0x9D49F602b0fdb924Bd63DDE2Bd0907E4A07c63a7",
  "extraData": "0x476574682f76312e302e312f6c696e75782f676f312e342e32",
  "transactions": [
    {
      "hash": "0x9ece7cfc795dfdfedf6a0bd84a1b13789bd584814fbad4c2a0c39822cb81dd8d",
      "blockHash": "0xae58443ef22ce3bdc6d796021bd9b688fac1aa8f53b46cc18b3543e1cc85d1bb",
      "blockNumber": 99567,
      "transactionIndex": 0,
      "confirmations": null,
      "from": "0x7884D470204862a0d1A21122F41ee77430396Ee5",
      "gasPrice": {
        "_hex": "0xd5ab17669"
      },
      "gasLimit": {
        "_hex": "0x15f90"
      },
      "to": "0xC7f1b7896c62c7A84f3C5Cc90E188544e9f0E846",
      "value": {
        "_hex": "0x13fbe85edc90000"
      },
      "nonce": 37,
      "data": "0x",
      "r": "0x81708c305ca5f847068f23c7f2ce0757641f6f78d5e2d273d36515baa1df9253",
      "s": "0x5b9fbd5e2498fa6c08c451cf97cae91a36bb79aa26b6db60a573a23d4a1c8b5b",
      "v": 28,
      "creates": null,
      "raw": "0xf86d25850d5ab1766983015f9094c7f1b7896c62c7a84f3c5cc90e188544e9f0e84688013fbe85edc90000801ca081708c305ca5f847068f23c7f2ce0757641f6f78d5e2d273d36515baa1df9253a05b9fbd5e2498fa6c08c451cf97cae91a36bb79aa26b6db60a573a23d4a1c8b5b",
      "networkId": 0,
      "chainId": 0
    }
  ]
}