{
  "hash": "0xe4387ceb03a3791ece7dfb70781e67fd1624f1650f182654ec7f9540b61d1947",
  "parentHash": "0x7b0a4fc29054ddddefa009743afe1481f7f10d9f82b739754caabbed8e6f0f23",
  "number": 115967,
  "timestamp": 1440066236,
  "nonce": "0xa994de93a994d2bd",
  "difficulty": 4578082113261,
  "gasLimit": {
    "_hex": "0x2fefd8"
  },
  "gasUsed": {
    "_hex": "0x5208"
  },
  "miner": "0xe6A7a1d47ff21B6321162AEA7C6CB457D5476Bca",
  "extraData": "0x476574682f76312e302e312d38326566323666362f6c696e75782f676f312e34",
  "transactions": [
    {
      "hash": "0x3b16517559c75d2cb9ca1ae0a1e99eaf55e7fbf04cb48b1e793aa92affb0524f",
      "blockHash": "0xe4387ceb03a3791ece7dfb70781e67fd1624f1650f182654ec7f9540b61d1947",
      "blockNumber": 115967,
      "transactionIndex": 0,
      "confirmations": null,
      "from": "0x725C7AaA409d6a301D555bDC7114831BB866D097",
      "gasPrice": {
        "_hex": "0xba43b7400"
      },
      "gasLimit": {
        "_hex": "0x15f90"
      },
      "to": "0xb1A2a1e9b8AC33fdcB2118b73A875b096AEd24aD",
      "value": {
        "_hex": "0x45400a8fd5330000"
      },
      "nonce": 0,
      "data": "0x",
      "r": "0x9994e86e27b7d67f6b838d7ca4da3e36189252c77bb9238bd581c52d4cf86c1f",
      "s": "0x2056b943cc735a0a90225409746cb3ea2a30d03aed3be66e5155a2847540707c",
      "v": 28,
      "creates": null,
      "raw": "0xf86d80850ba43b740083015f9094b1a2a1e9b8ac33fdcb2118b73a875b096aed24ad8845400a8fd5330000801ca09994e86e27b7d67f6b838d7ca4da3e36189252c77bb9238bd581c52d4cf86c1fa02056b943cc735a0a90225409746cb3ea2a30d03aed3be66e5155a2847540707c",
      "networkId": 0,
      "chainId": 0
    }
  ]
}