{
  "hash": "0x42731922a03ef2326ee106dde64767d9a9f63ee305b35a58b73682c9658524ec",
  "parentHash": "0xb386f203b7d198d2c6bc17a267cd8e9762756c216b27c90292ae5cf48c579ab0",
  "number": 103596,
  "timestamp": 1439855841,
  "nonce": "0xfd8011845ad5ff71",
  "difficulty": 4201125835652,
  "gasLimit": {
    "_hex": "0x2fefd8"
  },
  "gasUsed": {
    "_hex": "0x5208"
  },
  "miner": "0x88D74a59454F6cF3B51ef6b9136AFb6b9D405A88",
  "extraData": "0x476574682f76312e302e312d38326566323666362f6c696e75782f676f312e34",
  "transactions": [
    {
      "hash": "0x3ccf147888e076150ca942d0d08dd8d660ada72db91716582104847b29e13092",
      "blockHash": "0x42731922a03ef2326ee106dde64767d9a9f63ee305b35a58b73682c9658524ec",
      "blockNumber": 103596,
      "transactionIndex": 0,
      "confirmations": null,
      "from": "0x32Be343B94f860124dC4fEe278FDCBD38C102D88",
      "gasPrice": {
        "_hex": "0xddb385cf4"
      },
      "gasLimit": {
        "_hex": "0x5208"
      },
      "to": "0xb794F5eA0ba39494cE839613fffBA74279579268",
      "value": {
        "_hex": "0x152d02c7e14af6000000"
      },
      "nonce": 1126,
      "data": "0x",
      "r": "0xfe3204b1f9d39f255651babcca09a4e9625ef31f1faf168f28690412a1791ee8",
      "s": "0x28193610c8bf04f04c43b041a16ad7f946473c8e378ab06965979e9c2c497737",
      "v": 28,
      "creates": null,
      "raw": "0xf870820466850ddb385cf482520894b794f5ea0ba39494ce839613fffba742795792688a152d02c7e14af6000000801ca0fe3204b1f9d39f255651babcca09a4e9625ef31f1faf168f28690412a1791ee8a028193610c8bf04f04c43b041a16ad7f946473c8e378ab06965979e9c2c497737",
      "networkId": 0,
      "chainId": 0
    }
  ]
}