{
  "hash": "0xe97d1b3f33b8667f366ef40d3944cacbfbcce10e4ca4d0ca256e4767b09c8de2",
  "parentHash": "0x8ef6559d18afb1c13636708343f6b833ef0a1278db202bd3ad04db4ecba6c5cd",
  "number": 122027,
  "timestamp": 1440186934,
  "nonce": "0x03d0892d54e975b8",
  "difficulty": 4464439546948,
  "gasLimit": {
    "_hex": "0x2fefd8"
  },
  "gasUsed": {
    "_hex": "0x5208"
  },
  "miner": "0x52bc44d5378309EE2abF1539BF71dE1b7d7bE3b5",
  "extraData": "0xd783010002844765746887676f312e342e32856c696e7578",
  "transactions": [
    {
      "hash": "0x1d3a1e26106e274246492f1b7a0f01dc6755d22bbf0c14bb1f600dc3fcfd0cdb",
      "blockHash": "0xe97d1b3f33b8667f366ef40d3944cacbfbcce10e4ca4d0ca256e4767b09c8de2",
      "blockNumber": 122027,
      "transactionIndex": 0,
      "confirmations": null,
      "from": "0xBdF25376dA0767EfBF7eE3dCAe463ECe5572bFF3",
      "gasPrice": {
        "_hex": "0xdb4b134a5"
      },
      "gasLimit": {
        "_hex": "0x15f90"
      },
      "to": "0x9b0a028EAfDeCdE3AFc0fD00B7937098388b7C8a",
      "value": {
        "_hex": "0x183928d8fb3bb6ad8"
      },
      "nonce": 9,
      "data": "0x",
      "r": "0xebcbe60338e6789cee54234e6140576036c9f7d519a7ed98c9c5fcdd25c325c6",
      "s": "0x72f7b537540a48f251112e7bc7df66e35264e9d20ee3187a242460c360ec8415",
      "v": 28,
      "creates": null,
      "raw": "0xf86e09850db4b134a583015f90949b0a028eafdecde3afc0fd00b7937098388b7c8a890183928d8fb3bb6ad8801ca0ebcbe60338e6789cee54234e6140576036c9f7d519a7ed98c9c5fcdd25c325c6a072f7b537540a48f251112e7bc7df66e35264e9d20ee3187a242460c360ec8415",
      "networkId": 0,
      "chainId": 0
    }
  ]
}