{
  "hash": "0xd865dffa8a979940af0cf58dd7d08288cc05dc9656d8ee3c8b2fa981a2db7a8f",
  "parentHash": "0xce7df8e727974e439596b245f18a3931d46618694a56d8f63b99b68ede6e814e",
  "number": 88215,
  "timestamp": 1439604605,
  "nonce": "0xbb92f68e13efa55f",
  "difficulty": 3206607183507,
  "gasLimit": {
    "_hex": "0x2fefd5"
  },
  "gasUsed": {
    "_hex": "0x5208"
  },
  "miner": "0xC603Ab5ef41fC61AA8b76bEddb09e3Cfcbb174BD",
  "extraData": "0x476574682f76312e302e312f77696e646f77732f676f312e342e32",
  "transactions": [
    {
      "hash": "0xa63afe293b1696d671cf22ba3048aca329301e3f97809e268c6db16c56792651",
      "blockHash": "0xd865dffa8a979940af0cf58dd7d08288cc05dc9656d8ee3c8b2fa981a2db7a8f",
      "blockNumber": 88215,
      "transactionIndex": 0,
      "confirmations": null,
      "from": "0x120A270bbC009644e35F0bB6ab13f95b8199c4ad",
      "gasPrice": {
        "_hex": "0xd8fa76c53"
      },
      "gasLimit": {
        "_hex": "0x3d090"
      },
      "to": "0x96AA9d72B4606B440Ef85352439AEC5Db106ddAD",
      "value": {
        "_hex": "0x1158e460913d00000"
      },
      "nonce": 512,
      "data": "0x",
      "r": "0x710d38df474b5f3e28a3c551d5b1a04715af3079e7ce1e6922d49b31978a2a04",
      "s": "0x03edcd6af7208b0af720f1f122828d20c470b03ce1d5342509b34ff570848de2",
      "v": 28,
      "creates": null,
      "raw": "0xf870820200850d8fa76c538303d0909496aa9d72b4606b440ef85352439aec5db106ddad8901158e460913d00000801ca0710d38df474b5f3e28a3c551d5b1a04715af3079e7ce1e6922d49b31978a2a04a003edcd6af7208b0af720f1f122828d20c470b03ce1d5342509b34ff570848de2",
      "networkId": 0,
      "chainId": 0
    }
  ]
}