{
  "hash": "0x0aa47a49f3c4aa42c84b430e0bfcdc151aa5fbcab288e8643777a13b95665049",
  "parentHash": "0x590420eaab640ae677b05247d3655f101886b8517912bf05efb30e9f01b68982",
  "number": 110473,
  "timestamp": 1439974377,
  "nonce": "0x17c834745a2f520a",
  "difficulty": 4375569368176,
  "gasLimit": {
    "_hex": "0x2fefd8"
  },
  "gasUsed": {
    "_hex": "0x14820"
  },
  "miner": "0xa61ff394e3846F8bfbBF8801afb051730B04Ee75",
  "extraData": "0x",
  "transactions": [
    {
      "hash": "0xb93a7bf07ef5a187439f90e9334df9e6e1905ed9d61327e52c50e87bfe98ace0",
      "blockHash": "0x0aa47a49f3c4aa42c84b430e0bfcdc151aa5fbcab288e8643777a13b95665049",
      "blockNumber": 110473,
      "transactionIndex": 0,
      "confirmations": null,
      "from": "0xF2B3F8Eb4e663dA275b8C57fe45A0E8D489Eac2E",
      "gasPrice": {
        "_hex": "0xd86985c7f"
      },
      "gasLimit": {
        "_hex": "0x5208"
      },
      "to": "0x32Be343B94f860124dC4fEe278FDCBD38C102D88",
      "value": {
        "_hex": "0x46d29a73d20a4c00"
      },
      "nonce": 3,
      "data": "0x",
      "r": "0x32da54447abfaf31c2456369ce5c9055ef59ebf4608dac80f4006108d306946d",
      "s": "0x4f8e4fc23ae54da3f45cd1e54a775f1375658091f375e40deb54bd672cd02f20",
      "v": 27,
      "creates": null,
      "raw": "0xf86c03850d86985c7f8252089432be343b94f860124dc4fee278fdcbd38c102d888846d29a73d20a4c00801ba032da54447abfaf31c2456369ce5c9055ef59ebf4608dac80f4006108d306946da04f8e4fc23ae54da3f45cd1e54a775f1375658091f375e40deb54bd672cd02f20",
      "networkId": 0,
      "chainId": 0
    },
    {
      "hash": "0x53fac875701ad9ed8e30b555e84a0b299a1bec86476556ea2e6a3c72d4803c62",
      "blockHash": "0x0aa47a49f3c4aa42c84b430e0bfcdc151aa5fbcab288e8643777a13b95665049",
      "blockNumber": 110473,
      "transactionIndex": 1,
      "confirmations": null,
      "from": "0x665646727edaAEbB32B5F1A9b4e4F3BD867AA8fB",
      "gasPrice": {
        "_hex": "0xd86985c7f"
      },
      "gasLimit": {
        "_hex": "0x5208"
      },
      "to": "0x32Be343B94f860124dC4fEe278FDCBD38C102D88",
      "value": {
        "_hex": "0x8a0a1f0667ecd0000"
      },
      "nonce": 5,
      "data": "0x",
      "r": "0x957bd27abaf563d108ae5b5a880818919d3424d3cbd6bfd06886a58a4f119c12",
      "s": "0x11d7e7f34c184bb151178bd3455bb8df46f51566974ab6f5094e9e06a58f1062",
      "v": 28,
      "creates": null,
      "raw": "0xf86d05850d86985c7f8252089432be343b94f860124dc4fee278fdcbd38c102d888908a0a1f0667ecd0000801ca0957bd27abaf563d108ae5b5a880818919d3424d3cbd6bfd06886a58a4f119c12a011d7e7f34c184bb151178bd3455bb8df46f51566974ab6f5094e9e06a58f1062",
      "networkId": 0,
      "chainId": 0
    },
    {
      "hash": "0xdd704bffad3060ffffb06dfeb70d985ed904b071130da0064365ed70a6740b59",
      "blockHash": "0x0aa47a49f3c4aa42c84b430e0bfcdc151aa5fbcab288e8643777a13b95665049",
      "blockNumber": 110473,
      "transactionIndex": 2,
      "confirmations": null,
      "from": "0x59cC965F1643a68ad7a4272ff1654d4af4343ea7",
      "gasPrice": {
        "_hex": "0xd86985c7f"
      },
      "gasLimit": {
        "_hex": "0x5208"
      },
      "to": "0x32Be343B94f860124dC4fEe278FDCBD38C102D88",
      "value": {
        "_hex": "0x99964443d8c728000"
      },
      "nonce": 5,
      "data": "0x",
      "r": "0xabb39888d6226e9f081fac1fa283d7f9246efe21bc8d3201e48ec4bbf5a2ded5",
      "s": "0x0b504b753b63c8248fa6b18548ac5eb9183f4040f818d58ea22b0d1db8f4ac6c",
      "v": 28,
      "creates": null,
      "raw": "0xf86d05850d86985c7f8252089432be343b94f860124dc4fee278fdcbd38c102d8889099964443d8c728000801ca0abb39888d6226e9f081fac1fa283d7f9246efe21bc8d3201e48ec4bbf5a2ded5a00b504b753b63c8248fa6b18548ac5eb9183f4040f818d58ea22b0d1db8f4ac6c",
      "networkId": 0,
      "chainId": 0
    },
    {
      "hash": "0x3a4161d8dfd1a52a8ff9f598c06167f5758708e1771ea9fb81a21d3a7adf54ac",
      "blockHash": "0x0aa47a49f3c4aa42c84b430e0bfcdc151aa5fbcab288e8643777a13b95665049",
      "blockNumber": 110473,
      "transactionIndex": 3,
      "confirmations": null,
      "from": "0x3F6DDbC103F2999640fe4AFc6884708fa691C2b8",
      "gasPrice": {
        "_hex": "0xd86985c7f"
      },
      "gasLimit": {
        "_hex": "0x5208"
      },
      "to": "0x32Be343B94f860124dC4fEe278FDCBD38C102D88",
      "value": {
        "_hex": "0x6cfd48ed7a47fc00"
      },
      "nonce": 5,
      "data": "0x",
      "r": "0xed2b7ed5ecef7bf5b9d21cf83ebd1714174f604ccd2fef9d5e2f7c3f4caf9632",
      "s": "0x3b4dc08936aefa1f4defcc740df487d0c41dc467bc8143ad9f82149e12fba3b4",
      "v": 27,
      "creates": null,
      "raw": "0xf86c05850d86985c7f8252089432be343b94f860124dc4fee278fdcbd38c102d88886cfd48ed7a47fc00801ba0ed2b7ed5ecef7bf5b9d21cf83ebd1714174f604ccd2fef9d5e2f7c3f4caf9632a03b4dc08936aefa1f4defcc740df487d0c41dc467bc8143ad9f82149e12fba3b4",
      "networkId": 0,
      "chainId": 0
    }
  ]
}