{
  "hash": "0x769d6ae4b0f624099e679f9e8521ad78e3c4d8f44e3e89b31ebc6c1e29287bf7",
  "parentHash": "0x3b416156dad2277fa2efb93b168457f9d44f3e2061d12fb6b36c015793716b49",
  "number": 53246,
  "timestamp": 1439034700,
  "nonce": "0x013f1ee173eeac8c",
  "difficulty": 1580839790276,
  "gasLimit": {
    "_hex": "0x22b6bb"
  },
  "gasUsed": {
    "_hex": "0x1ae7a"
  },
  "miner": "0xbb7B8287f3F0a933474a79eAe42CBCa977791171",
  "extraData": "0x476574682f4c5649562f76312e302e312f6c696e75782f676f312e342e32",
  "transactions": [
    {
      "hash": "0xdffa776956ff73a279e2cddb1582b3521fe3e920120d3cde769233f3f48dfdad",
      "blockHash": "0x769d6ae4b0f624099e679f9e8521ad78e3c4d8f44e3e89b31ebc6c1e29287bf7",
      "blockNumber": 53246,
      "transactionIndex": 0,
      "confirmations": null,
      "from": "0x16893e10b99A59afd2C60331E0B49241d4d4d7cC",
      "gasPrice": {
        "_hex": "0xe07410715"
      },
      "gasLimit": {
        "_hex": "0x493e0"
      },
      "to": "0x6e38A457C722C6011B2dfa06d49240e797844d66",
      "value": {
        "_hex": "0x0"
      },
      "nonce": 0,
      "data": "0xf3fe12c90000000000000000000000000000000000000000000000000000000000000020000000000000000000000000000000000000000000000000000000000000001e53696d6f6e206465206c6120526f757669657265207761732068657265210000",
      "r": "0x0ff029bf360ebf59a632c1b04755ed1a17a5dadfebe4840256f616244d0430d1",
      "s": "0x107ee464a1dec4e165bb99e543c9cb489c20b97f216112ccaa3d8555268b843e",
      "v": 27,
      "creates": null,
      "raw": "0xf8ca80850e07410715830493e0946e38a457c722c6011b2dfa06d49240e797844d6680b864f3fe12c90000000000000000000000000000000000000000000000000000000000000020000000000000000000000000000000000000000000000000000000000000001e53696d6f6e206465206c6120526f7576696572652077617320686572652100001ba00ff029bf360ebf59a632c1b04755ed1a17a5dadfebe4840256f616244d0430d1a0107ee464a1dec4e165bb99e543c9cb489c20b97f216112ccaa3d8555268b843e",
      "networkId": 0,
      "chainId": 0
    }
  ]
}