{
  "hash": "0x70708b28adf7a05ecbfcf69935af6cdce512ea73d0e3ea65adcd2168a622c0d6",
  "parentHash": "0xe35814b87f776a5347d39f6a80981a36c2b3453d246935cd71cdabc550dfa4a3",
  "number": 79266,
  "timestamp": 1439466995,
  "nonce": "0xb7e8f339a78c2c9e",
  "difficulty": 2324549596356,
  "gasLimit": {
    "_hex": "0x2fefd8"
  },
  "gasUsed": {
    "_hex": "0x5208"
  },
  "miner": "0xe6A7a1d47ff21B6321162AEA7C6CB457D5476Bca",
  "extraData": "0x476574682f76312e302e312d38326566323666362f6c696e75782f676f312e34",
  "transactions": [
    {
      "hash": "0x67a42522aee38440db6b3165ebe3c204fd99739ac73ac9cd557feda1462c264f",
      "blockHash": "0x70708b28adf7a05ecbfcf69935af6cdce512ea73d0e3ea65adcd2168a622c0d6",
      "blockNumber": 79266,
      "transactionIndex": 0,
      "confirmations": null,
      "from": "0xc8b25f8890816e7F491d8EE02BA8b4548c73D3A4",
      "gasPrice": {
        "_hex": "0xcb1cc9b86"
      },
      "gasLimit": {
        "_hex": "0x5208"
      },
      "to": "0x32Be343B94f860124dC4fEe278FDCBD38C102D88",
      "value": {
        "_hex": "0x14d0d04959f826000"
      },
      "nonce": 4,
      "data": "0x",
      "r": "0xfce8dd312c2433af52e6933b2d94dbb2eeb05424f9566e3f9b0029b448697938",
      "s": "0x0f7c1fa289d093d56bd67e48614df348eac6218916bdd641e39a2e5a6a93c613",
      "v": 27,
      "creates": null,
      "raw": "0xf86d04850cb1cc9b868252089432be343b94f860124dc4fee278fdcbd38c102d8889014d0d04959f826000801ba0fce8dd312c2433af52e6933b2d94dbb2eeb05424f9566e3f9b0029b448697938a00f7c1fa289d093d56bd67e48614df348eac6218916bdd641e39a2e5a6a93c613",
      "networkId": 0,
      "chainId": 0
    }
  ]
}