{
  "hash": "0xb4610475f78e03f2281e4d96daac90b3322bc8aed19002a5f64af52957420ea8",
  "parentHash": "0x53d90547dfb69d54713bc710d38dd15dc19113d187c440aab930b117b1d607d8",
  "number": 80619,
  "timestamp": 1439488155,
  "nonce": "0xf001e250a34421c7",
  "difficulty": 2425033843053,
  "gasLimit": {
    "_hex": "0x2fefd8"
  },
  "gasUsed": {
    "_hex": "0x6ed7"
  },
  "miner": "0x0193d941b50d91BE6567c7eE1C0Fe7AF498b4137",
  "extraData": "0x4a5ace9e4e",
  "transactions": [
    {
      "hash": "0xbd90072440e32288b7c867785f69719b8591e3cf814dd6025fc465d268d1de0c",
      "blockHash": "0xb4610475f78e03f2281e4d96daac90b3322bc8aed19002a5f64af52957420ea8",
      "blockNumber": 80619,
      "transactionIndex": 0,
      "confirmations": null,
      "from": "0x87C5B5874A18B4306DF8a752a6C8cc3E82daFc19",
      "gasPrice": {
        "_hex": "0x11315b82fa1"
      },
      "gasLimit": {
        "_hex": "0x493e0"
      },
      "to": "0xC4c51de1AbF5D60DBd329eC0F999Fd8f021ae9fC",
      "value": {
        "_hex": "0x0"
      },
      "nonce": 263,
      "data": "0xbd66528a6b6b6b0000000000000000000000000000000000000000000000000000000000",
      "r": "0xcd315846ad58d9d2558a82491841820e850110a3a763e93e3dd289bfb3c22cf7",
      "s": "0x4d72f071cc286bb689c36c19d12effc27fac10c7c71ac8fe4fb215201db0a63a",
      "v": 28,
      "creates": null,
      "raw": "0xf88c82010786011315b82fa1830493e094c4c51de1abf5d60dbd329ec0f999fd8f021ae9fc80a4bd66528a6b6b6b00000000000000000000000000000000000000000000000000000000001ca0cd315846ad58d9d2558a82491841820e850110a3a763e93e3dd289bfb3c22cf7a04d72f071cc286bb689c36c19d12effc27fac10c7c71ac8fe4fb215201db0a63a",
      "networkId": 0,
      "chainId": 0
    }
  ]
}