{
  "hash": "0xddb5c2861f08fc16c30700f86c44258bad932488ed8a15fd70fc843c6a2a11cc",
  "parentHash": "0x817fad7db7d12513159fbd430517f5592387b941fafdcaff62f7922d09f3416d",
  "number": 54511,
  "timestamp": 1439055264,
  "nonce": "0xa5b32541006a8658",
  "difficulty": 1620456281146,
  "gasLimit": {
    "_hex": "0x2fefd8"
  },
  "gasUsed": {
    "_hex": "0x5208"
  },
  "miner": "0xbb7B8287f3F0a933474a79eAe42CBCa977791171",
  "extraData": "0x476574682f4c5649562f76312e302e312f6c696e75782f676f312e342e32",
  "transactions": [
    {
      "hash": "0x912e7b0800ef26f130a5b647b164a08786e225e0d50694b358bff29f44120f11",
      "blockHash": "0xddb5c2861f08fc16c30700f86c44258bad932488ed8a15fd70fc843c6a2a11cc",
      "blockNumber": 54511,
      "transactionIndex": 0,
      "confirmations": null,
      "from": "0xCA092A957744f6385B1aee5dC694143E8A06F805",
      "gasPrice": {
        "_hex": "0xd5ec3bbb1"
      },
      "gasLimit": {
        "_hex": "0x15f90"
      },
      "to": "0x48E9b95595D704b304515D3ff903939f0244c8Fc",
      "value": {
        "_hex": "0xc0acd82d37f000"
      },
      "nonce": 16,
      "data": "0x",
      "r": "0x501e333f577d01e8593134fe2b3997afe40d0493bae968897a771513716dde36",
      "s": "0x034b25518bb87f57ee3aff1d262e045f4ddd7c20d78e93e5d0991fdb9ded25c4",
      "v": 28,
      "creates": null,
      "raw": "0xf86c10850d5ec3bbb183015f909448e9b95595d704b304515d3ff903939f0244c8fc87c0acd82d37f000801ca0501e333f577d01e8593134fe2b3997afe40d0493bae968897a771513716dde36a0034b25518bb87f57ee3aff1d262e045f4ddd7c20d78e93e5d0991fdb9ded25c4",
      "networkId": 0,
      "chainId": 0
    }
  ]
}