{
  "hash": "0xd35754b804d51b723bb14a6e9cf678a5eb6344a4966e00a48a90987294c69ba2",
  "parentHash": "0x2ebae24f2bbbd605bce8a4bade04ebe8c0e6f715460a6af78accee9560638ea0",
  "number": 119327,
  "timestamp": 1440140913,
  "nonce": "0x86c48fef87523212",
  "difficulty": 4409539387225,
  "gasLimit": {
    "_hex": "0x2fefd8"
  },
  "gasUsed": {
    "_hex": "0xa410"
  },
  "miner": "0x52bc44d5378309EE2abF1539BF71dE1b7d7bE3b5",
  "extraData": "0xd783010002844765746887676f312e342e32856c696e7578",
  "transactions": [
    {
      "hash": "0x49167454337fbacc9655b94a340f2a90da77014dfc28c0f924eaa8ebcb3f2cd7",
      "blockHash": "0xd35754b804d51b723bb14a6e9cf678a5eb6344a4966e00a48a90987294c69ba2",
      "blockNumber": 119327,
      "transactionIndex": 0,
      "confirmations": null,
      "from": "0xe6A7a1d47ff21B6321162AEA7C6CB457D5476Bca",
      "gasPrice": {
        "_hex": "0xba43b7400"
      },
      "gasLimit": {
        "_hex": "0x55f0"
      },
      "to": "0xAb5199486803893a6dc1AD1D31612895300BCcA9",
      "value": {
        "_hex": "0x16bd9d14774c8810"
      },
      "nonce": 5968,
      "data": "0x",
      "r": "0x06fdc7287bfad00cf64e673312b052c7d48f991ffeeaae8a1c3278d409f2bb45",
      "s": "0x5c9a29dddb18921099b61230e03046920eddbb819797fa0b75f9a334e56ccf5a",
      "v": 28,
      "creates": null,
      "raw": "0xf86e821750850ba43b74008255f094ab5199486803893a6dc1ad1d31612895300bcca98816bd9d14774c8810801ca006fdc7287bfad00cf64e673312b052c7d48f991ffeeaae8a1c3278d409f2bb45a05c9a29dddb18921099b61230e03046920eddbb819797fa0b75f9a334e56ccf5a",
      "networkId": 0,
      "chainId": 0
    },
    {
      "hash": "0xe5230e5ab6852ddf8c10f5bcf1e32293caf2b12071751929aee14ded284e8aa7",
      "blockHash": "0xd35754b804d51b723bb14a6e9cf678a5eb6344a4966e00a48a90987294c69ba2",
      "blockNumber": 119327,
      "transactionIndex": 1,
      "confirmations": null,
      "from": "0xe6A7a1d47ff21B6321162AEA7C6CB457D5476Bca",
      "gasPrice": {
        "_hex": "0xba43b7400"
      },
      "gasLimit": {
        "_hex": "0x55f0"
      },
      "to": "0x1049cb6C4223942Bb3Ed14e47b27c7478449deB2",
      "value": {
        "_hex": "0x16c6d0e6ef20c70c"
      },
      "nonce": 5969,
      "data": "0x",
      "r": "0xf14f6e9cc4bb477e04c2e1ccab6a820db7a07ad9d1ec724c176103eeee6a5795",
      "s": "0x467b4ed334f337aa220ac126c87c9cb7dea9eff9d6f30d3e1aed26e66d2ad5dd",
      "v": 27,
      "creates": null,
      "raw": "0xf86e821751850ba43b74008255f0941049cb6c4223942bb3ed14e47b27c7478449deb28816c6d0e6ef20c70c801ba0f14f6e9cc4bb477e04c2e1ccab6a820db7a07ad9d1ec724c176103eeee6a5795a0467b4ed334f337aa220ac126c87c9cb7dea9eff9d6f30d3e1aed26e66d2ad5dd",
      "networkId": 0,
      "chainId": 0
    }
  ]
}