{
  "hash": "0x64e5113949fd1add75208bea81dfcc6cfe451636d057e072da5e1385cb25e938",
  "parentHash": "0xf19c53e7cc867c7288dc1eefb1367c6c284f3a1e67f6a05e3d161af5a7f5a65b",
  "number": 90551,
  "timestamp": 1439641821,
  "nonce": "0xb617bcdc02416ba9",
  "difficulty": 3330161807249,
  "gasLimit": {
    "_hex": "0x2fefd8"
  },
  "gasUsed": {
    "_hex": "0x2e248"
  },
  "miner": "0x88D74a59454F6cF3B51ef6b9136AFb6b9D405A88",
  "extraData": "0x476574682f76312e302e312d37666266393930632f6c696e75782f676f312e34",
  "transactions": [
    {
      "hash": "0x18d04f59a04fe68fad030d3504173dacf248fcf29904106876c3a97c724da403",
      "blockHash": "0x64e5113949fd1add75208bea81dfcc6cfe451636d057e072da5e1385cb25e938",
      "blockNumber": 90551,
      "transactionIndex": 0,
      "confirmations": null,
      "from": "0x9C79cd9eDDAC7B87063732BC9629e3404341FB6E",
      "gasPrice": {
        "_hex": "0xdc3106b4f"
      },
      "gasLimit": {
        "_hex": "0x15f90"
      },
      "to": "0x1d87a52adE811D169DCdd8535e2CbdcC540237fC",
      "value": {
        "_hex": "0x23ce0054a0820000"
      },
      "nonce": 1,
      "data": "0x",
      "r": "0xd635e17024bfaaa32c1e668d053bbde93bd3b1197701674213953b1566660a84",
      "s": "0x18e5e6cb93ae998a8262fae5e82d0aa06dade9176f0ad488b2b777fd56aae167",
      "v": 27,
      "creates": null,
      "raw": "0xf86d01850dc3106b4f83015f90941d87a52ade811d169dcdd8535e2cbdcc540237fc8823ce0054a0820000801ba0d635e17024bfaaa32c1e668d053bbde93bd3b1197701674213953b1566660a84a018e5e6cb93ae998a8262fae5e82d0aa06dade9176f0ad488b2b777fd56aae167",
      "networkId": 0,
      "chainId": 0
    },
    {
      "hash": "0x210012ac4b8511a30425abf7b319d151bc49894a416a9f909de8230561f82a4e",
      "blockHash": "0x64e5113949fd1add75208bea81dfcc6cfe451636d057e072da5e1385cb25e938",
      "blockNumber": 90551,
      "transactionIndex": 1,
      "confirmations": null,
      "from": "0xe6C9430205BD87DA80B9D5F286442Bf45CB49423",
      "gasPrice": {
        "_hex": "0xba43b7400"
      },
      "gasLimit": {
        "_hex": "0x5208"
      },
      "to": "0xC47Aaa860008be6f65B58c6C6E02a84e666EfE31",
      "value": {
        "_hex": "0x1b5ff0176ca62b30"
      },
      "nonce": 0,
      "data": "0x",
      "r": "0xdc32014de3adbbdf42449d211516e6cf355608cf147668fa5a2dc1050437d602",
      "s": "0x0695ffe584e332e470ad25344319a592a950b25bd8f23fd55e70ff54dc29d952",
      "v": 28,
      "creates": null,
      "raw": "0xf86c80850ba43b740082520894c47aaa860008be6f65b58c6c6e02a84e666efe31881b5ff0176ca62b30801ca0dc32014de3adbbdf42449d211516e6cf355608cf147668fa5a2dc1050437d602a00695ffe584e332e470ad25344319a592a950b25bd8f23fd55e70ff54dc29d952",
      "networkId": 0,
      "chainId": 0
    },
    {
      "hash": "0xf0830bbf75aef5d74effb07d742a2fe29e7586a346ebe6160a013e77a336fab2",
      "blockHash": "0x64e5113949fd1add75208bea81dfcc6cfe451636d057e072da5e1385cb25e938",
      "blockNumber": 90551,
      "transactionIndex": 2,
      "confirmations": null,
      "from": "0x0631Dc40d74E5095e3729edDf49544ECD4396f67",
      "gasPrice": {
        "_hex": "0xba43b7400"
      },
      "gasLimit": {
        "_hex": "0x5208"
      },
      "to": "0x96Aaab1CD0Ed885803fd60609D452d6e4bf259FC",
      "value": {
        "_hex": "0x8ac6e7550717c6000"
      },
      "nonce": 0,
      "data": "0x",
      "r": "0xdd35370fca93fcc86449d27557219a9dce25d8abb63bbe2f6b3831f0ec7a8b26",
      "s": "0xec71d5623a9582d598cd039b13f6033344ff09fe916a70929ea1968fb232f4fb",
      "v": 28,
      "creates": null,
      "raw": "0xf86d80850ba43b74008252089496aaab1cd0ed885803fd60609d452d6e4bf259fc8908ac6e7550717c6000801ca0dd35370fca93fcc86449d27557219a9dce25d8abb63bbe2f6b3831f0ec7a8b26a0ec71d5623a9582d598cd039b13f6033344ff09fe916a70929ea1968fb232f4fb",
      "networkId": 0,
      "chainId": 0
    },
    {
      "hash": "0x7eb528be84d5775122cc6c8a7f154e163c1c947b10021189665a722f53bbbadc",
      "blockHash": "0x64e5113949fd1add75208bea81dfcc6cfe451636d057e072da5e1385cb25e938",
      "blockNumber": 90551,
      "transactionIndex": 3,
      "confirmations": null,
      "from": "0x4C9560759adF54ABEdd7318d1413C4fA49240074",
      "gasPrice": {
        "_hex": "0xba43b7400"
      },
      "gasLimit": {
        "_hex": "0x5208"
      },
      "to": "0xC47Aaa860008be6f65B58c6C6E02a84e666EfE31",
      "value": {
        "_hex": "0x24d4176cdea38530"
      },
      "nonce": 2,
      "data": "0x",
      "r": "0x67c084f5f0d6991502cb008a32f7a5afa05b9c26495b354e861969b8c8058ca4",
      "s": "0x2b1134549e60da366607bb9b9336cbb3b49bdb67df6c0d3a62c4fe60ab41339d",
      "v": 28,
      "creates": null,
      "raw": "0xf86c02850ba43b740082520894c47aaa860008be6f65b58c6c6e02a84e666efe318824d4176cdea38530801ca067c084f5f0d6991502cb008a32f7a5afa05b9c26495b354e861969b8c8058ca4a02b1134549e60da366607bb9b9336cbb3b49bdb67df6c0d3a62c4fe60ab41339d",
      "networkId": 0,
      "chainId": 0
    },
    {
      "hash": "0x1f93e27dd2ac42ecc5d2513e77827723cb132ee1fad63b543140268c70e1b715",
      "blockHash": "0x64e5113949fd1add75208bea81dfcc6cfe451636d057e072da5e1385cb25e938",
      "blockNumber": 90551,
      "transactionIndex": 4,
      "confirmations": null,
      "from": "0xA1A13F48D504123E1d50e360267F894e8e43838c",
      "gasPrice": {
        "_hex": "0xba43b7400"
      },
      "gasLimit": {
        "_hex": "0x5208"
      },
      "to": "0xC47Aaa860008be6f65B58c6C6E02a84e666EfE31",
      "value": {
        "_hex": "0x368eeedb89022790"
      },
      "nonce": 1,
      "data": "0x",
      "r": "0x88677f18a62aeea72ebea76c28b8b4f67f976cfc0e1a1a4cda078392c5a9bb11",
      "s": "0x76aee9b20141da6506e5d858278cbcd413f20e953274e6a5953dec78a0330e9e",
      "v": 28,
      "creates": null,
      "raw": "0xf86c01850ba43b740082520894c47aaa860008be6f65b58c6c6e02a84e666efe3188368eeedb89022790801ca088677f18a62aeea72ebea76c28b8b4f67f976cfc0e1a1a4cda078392c5a9bb11a076aee9b20141da6506e5d858278cbcd413f20e953274e6a5953dec78a0330e9e",
      "networkId": 0,
      "chainId": 0
    },
    {
      "hash": "0x7c00d3d70080270afc6e893ebc70ca93cb14744c675a0167d7b5b03531faf4e9",
      "blockHash": "0x64e5113949fd1add75208bea81dfcc6cfe451636d057e072da5e1385cb25e938",
      "blockNumber": 90551,
      "transactionIndex": 5,
      "confirmations": null,
      "from": "0x6Ca7109e3020A822bc419d4F8d35F6b929398407",
      "gasPrice": {
        "_hex": "0xba43b7400"
      },
      "gasLimit": {
        "_hex": "0x5208"
      },
      "to": "0xC47Aaa860008be6f65B58c6C6E02a84e666EfE31",
      "value": {
        "_hex": "0x54920ee60d625f00"
      },
      "nonce": 1,
      "data": "0x",
      "r": "0x12c8b1074eacaab09e5360bb11e287e894edbc9297a3f7ae1a3e950db3feabb4",
      "s": "0x1787f9cbded22feed5bff5cc9a64f74a0691235652e8c2557e93ec6cc7f8b064",
      "v": 28,
      "creates": null,
      "raw": "0xf86c01850ba43b740082520894c47aaa860008be6f65b58c6c6e02a84e666efe318854920ee60d625f00801ca012c8b1074eacaab09e5360bb11e287e894edbc9297a3f7ae1a3e950db3feabb4a01787f9cbded22feed5bff5cc9a64f74a0691235652e8c2557e93ec6cc7f8b064",
      "networkId": 0,
      "chainId": 0
    },
    {
      "hash": "0x0f2df895044e59709d9bb0db814fb4a13f448f3a91be9a2652df5d44509f0842",
      "blockHash": "0x64e5113949fd1add75208bea81dfcc6cfe451636d057e072da5e1385cb25e938",
      "blockNumber": 90551,
      "transactionIndex": 6,
      "confirmations": null,
      "from": "0x423F06030a6c726925816243446a11Ed6d40Ab99",
      "gasPrice": {
        "_hex": "0xba43b7400"
      },
      "gasLimit": {
        "_hex": "0x5208"
      },
      "to": "0xC47Aaa860008be6f65B58c6C6E02a84e666EfE31",
      "value": {
        "_hex": "0x23d52deebde22bb0"
      },
      "nonce": 3,
      "data": "0x",
      "r": "0x9699c4fc1518ae72adcbde26fa5ac592cff2cd08fa43816623358cc300224878",
      "s": "0x0fce84e8df5e2b66017b553329f2dd092dee23d1e6e067d7e5044dd60e255bc7",
      "v": 27,
      "creates": null,
      "raw": "0xf86c03850ba43b740082520894c47aaa860008be6f65b58c6c6e02a84e666efe318823d52deebde22bb0801ba09699c4fc1518ae72adcbde26fa5ac592cff2cd08fa43816623358cc300224878a00fce84e8df5e2b66017b553329f2dd092dee23d1e6e067d7e5044dd60e255bc7",
      "networkId": 0,
      "chainId": 0
    },
    {
      "hash": "0x62023a42552100604ad4cdc2e568f4bca8b063b10aa4ab92ad15e1be7880ca4f",
      "blockHash": "0x64e5113949fd1add75208bea81dfcc6cfe451636d057e072da5e1385cb25e938",
      "blockNumber": 90551,
      "transactionIndex": 7,
      "confirmations": null,
      "from": "0x02f4c7248513B56356B261cB797fBC618c410569",
      "gasPrice": {
        "_hex": "0xba43b7400"
      },
      "gasLimit": {
        "_hex": "0x5208"
      },
      "to": "0xC47Aaa860008be6f65B58c6C6E02a84e666EfE31",
      "value": {
        "_hex": "0x549f941153bb4e40"
      },
      "nonce": 1,
      "data": "0x",
      "r": "0xe3584d10d4c4e11cafb1e921940010789d0f279fba2585075ad7e918e46b8a41",
      "s": "0x55d8e774f840404c27e752089bdc2b67ae4fed00e4ace5f943f726712196749d",
      "v": 27,
      "creates": null,
      "raw": "0xf86c01850ba43b740082520894c47aaa860008be6f65b58c6c6e02a84e666efe3188549f941153bb4e40801ba0e3584d10d4c4e11cafb1e921940010789d0f279fba2585075ad7e918e46b8a41a055d8e774f840404c27e752089bdc2b67ae4fed00e4ace5f943f726712196749d",
      "networkId": 0,
      "chainId": 0
    },
    {
      "hash": "0xa5a324d382e4e7e6e66685f4b9bf47406d526597c9901fd6fae0d882a874ab93",
      "blockHash": "0x64e5113949fd1add75208bea81dfcc6cfe451636d057e072da5e1385cb25e938",
      "blockNumber": 90551,
      "transactionIndex": 8,
      "confirmations": null,
      "from": "0x514Cb503F290d5F2BE2d38163440f926781D47a1",
      "gasPrice": {
        "_hex": "0xba43b7400"
      },
      "gasLimit": {
        "_hex": "0x5208"
      },
      "to": "0xC47Aaa860008be6f65B58c6C6E02a84e666EfE31",
      "value": {
        "_hex": "0x47c3bd95a8c54a20"
      },
      "nonce": 0,
      "data": "0x",
      "r": "0xc8a6102aa7ae7cd85b528b6082ad9a7946153cde6ecda7fcd2a2ad16c10b794a",
      "s": "0x1f1a20a88685532e368cc55962d3778c0c96e7e5cdc392d96ed55736caab0d64",
      "v": 27,
      "creates": null,
      "raw": "0xf86c80850ba43b740082520894c47aaa860008be6f65b58c6c6e02a84e666efe318847c3bd95a8c54a20801ba0c8a6102aa7ae7cd85b528b6082ad9a7946153cde6ecda7fcd2a2ad16c10b794aa01f1a20a88685532e368cc55962d3778c0c96e7e5cdc392d96ed55736caab0d64",
      "networkId": 0,
      "chainId": 0
    }
  ]
}