{
  "hash": "0x74b2c320e794557be28c92d4cdc90d0ac888695c363d4eb96027baec7cf6d8df",
  "parentHash": "0x19b2dea182c4a7e7b8a04b5af58662f7c7e7da05e6c515cd47c9e5d1f3206a22",
  "number": 98479,
  "timestamp": 1439773435,
  "nonce": "0xac2534752f1554eb",
  "difficulty": 3866951378554,
  "gasLimit": {
    "_hex": "0x2fefd8"
  },
  "gasUsed": {
    "_hex": "0x5208"
  },
  "miner": "0xe6A7a1d47ff21B6321162AEA7C6CB457D5476Bca",
  "extraData": "0x476574682f76312e302e312d38326566323666362f6c696e75782f676f312e34",
  "transactions": [
    {
      "hash": "0xf18f8dfff79fa474ac9577801f99f5be71720437d455f05efef8ffe43d8988cc",
      "blockHash": "0x74b2c320e794557be28c92d4cdc90d0ac888695c363d4eb96027baec7cf6d8df",
      "blockNumber": 98479,
      "transactionIndex": 0,
      "confirmations": null,
      "from": "0x5813E4214920564394090c27bccEdDFcF12A40F8",
      "gasPrice": {
        "_hex": "0xe1c37ac10"
      },
      "gasLimit": {
        "_hex": "0x15f90"
      },
      "to": "0x7B81Dc9CE21e4bcA988509595a1d4673553113Cd",
      "value": {
        "_hex": "0x3782dace9d900000"
      },
      "nonce": 0,
      "data": "0x",
      "r": "0xf7fddcdb2e0617a56a65c188d2220d13fd4dccdd148e3fe2cf94fadfe07cf96e",
      "s": "0x2d1f2f31a4353866fc3ae6803f7c48994a08bd45501fa3a4db049489a15b3f47",
      "v": 28,
      "creates": null,
      "raw": "0xf86d80850e1c37ac1083015f90947b81dc9ce21e4bca988509595a1d4673553113cd883782dace9d900000801ca0f7fddcdb2e0617a56a65c188d2220d13fd4dccdd148e3fe2cf94fadfe07cf96ea02d1f2f31a4353866fc3ae6803f7c48994a08bd45501fa3a4db049489a15b3f47",
      "networkId": 0,
      "chainId": 0
    }
  ]
}