{
  "hash": "0xeaed9c2a72a70116cb7f33134a908f433069fac444495ad1999fe2f8f930dbcf",
  "parentHash": "0xabc4dba732af10c715ae79d3fe7bca335d6130dea2354883b50127d3d9e17e41",
  "number": 83855,
  "timestamp": 1439541863,
  "nonce": "0xfc1130b76386e19e",
  "difficulty": 2447887345646,
  "gasLimit": {
    "_hex": "0x2fefd8"
  },
  "gasUsed": {
    "_hex": "0x5208"
  },
  "miner": "0x0037ce3d4B7f8729C8607D8D0248252Be68202c0",
  "extraData": "0x476574682f76312e302e312f77696e646f77732f676f312e342e32",
  "transactions": [
    {
      "hash": "0x31b87c8bf0893cdab96d1c8d9e87c772173f8776393fa492aa6fe920797c3c42",
      "blockHash": "0xeaed9c2a72a70116cb7f33134a908f433069fac444495ad1999fe2f8f930dbcf",
      "blockNumber": 83855,
      "transactionIndex": 0,
      "confirmations": null,
      "from": "0xcd0Af3474e22F069EC3407870DD770443d5b12B0",
      "gasPrice": {
        "_hex": "0xd3a6320e9"
      },
      "gasLimit": {
        "_hex": "0x7a120"
      },
      "to": "0x0bCa038BF4ACAd3Cbf73463EccC7717dDCDc3D83",
      "value": {
        "_hex": "0x56bc75e2d63100000"
      },
      "nonce": 2,
      "data": "0x",
      "r": "0xbfb91fb64f8cd3fa27605e619a309d1f55148ee75c05d67457aed21c6a49c93c",
      "s": "0x5155e44cdc6102e6f9eb5242085ce768e80ad7b09ec9f0f2a5af039363c7ecf4",
      "v": 28,
      "creates": null,
      "raw": "0xf86e02850d3a6320e98307a120940bca038bf4acad3cbf73463eccc7717ddcdc3d8389056bc75e2d63100000801ca0bfb91fb64f8cd3fa27605e619a309d1f55148ee75c05d67457aed21c6a49c93ca05155e44cdc6102e6f9eb5242085ce768e80ad7b09ec9f0f2a5af039363c7ecf4",
      "networkId": 0,
      "chainId": 0
    }
  ]
}