{
  "hash": "0xb548d01cd67345318845ffbad0aaefa8c20f1b44bf27926382a00c7c545ee04f",
  "parentHash": "0xdf71b350ab9a5d3a4bfd2eae9e46b3e307b389e3748c3af2619c5b62e783d1d0",
  "number": 119291,
  "timestamp": 1440140134,
  "nonce": "0xb3ae8d7ca2a5b938",
  "difficulty": 4426816835588,
  "gasLimit": {
    "_hex": "0x2fefd8"
  },
  "gasUsed": {
    "_hex": "0x5208"
  },
  "miner": "0x790b8a3cE86E707ED0eD32bF89B3269692a23CC1",
  "extraData": "0xd783010002844765746887676f312e342e32856c696e7578",
  "transactions": [
    {
      "hash": "0xf58b1b793b1fee1e1e463e5831c5890ec269d19012fa14ced4d9f7baa065a6f6",
      "blockHash": "0xb548d01cd67345318845ffbad0aaefa8c20f1b44bf27926382a00c7c545ee04f",
      "blockNumber": 119291,
      "transactionIndex": 0,
      "confirmations": null,
      "from": "0xFBb1b73C4f0BDa4f67dcA266ce6Ef42f520fBB98",
      "gasPrice": {
        "_hex": "0xba43b7400"
      },
      "gasLimit": {
        "_hex": "0x5208"
      },
      "to": "0xfb28f3514eAff0c2FB1DD74a7f0E33830B1D4f2e",
      "value": {
        "_hex": "0x6a94d74f430000"
      },
      "nonce": 249,
      "data": "0x",
      "r": "0x29f221aaeb49bdce9baceb7b4bb33dcb21e290cdd9e74ec283d5ea31f6ccdcca",
      "s": "0x56cd816a196eeb0df362c9e4d5438073c6b023330af91d8e22aa88f149090823",
      "v": 27,
      "creates": null,
      "raw": "0xf86c81f9850ba43b740082520894fb28f3514eaff0c2fb1dd74a7f0e33830b1d4f2e876a94d74f430000801ba029f221aaeb49bdce9baceb7b4bb33dcb21e290cdd9e74ec283d5ea31f6ccdccaa056cd816a196eeb0df362c9e4d5438073c6b023330af91d8e22aa88f149090823",
      "networkId": 0,
      "chainId": 0
    }
  ]
}