{
  "hash": "0x84d0c883181df779018667473ee2c603080ad772f80f4fd43d69d4b360bf72d3",
  "parentHash": "0xefc58f7955b76f2e4e58a5abf32694c0c3062460b36a511e6859d06f8204a180",
  "number": 99948,
  "timestamp": 1439798245,
  "nonce": "0x0433f0ce5d24fde2",
  "difficulty": 3845563808786,
  "gasLimit": {
    "_hex": "0x2fefd8"
  },
  "gasUsed": {
    "_hex": "0xa410"
  },
  "miner": "0xe6A7a1d47ff21B6321162AEA7C6CB457D5476Bca",
  "extraData": "0x476574682f76312e302e312d38326566323666362f6c696e75782f676f312e34",
  "transactions": [
    {
      "hash": "0xea9e93ad3dda7d6ab766203472ab7c06450645f640744694c522ea7f70327729",
      "blockHash": "0x84d0c883181df779018667473ee2c603080ad772f80f4fd43d69d4b360bf72d3",
      "blockNumber": 99948,
      "transactionIndex": 0,
      "confirmations": null,
      "from": "0xe6A7a1d47ff21B6321162AEA7C6CB457D5476Bca",
      "gasPrice": {
        "_hex": "0xdecb5ba9f"
      },
      "gasLimit": {
        "_hex": "0x55f0"
      },
      "to": "0x625C91D2eC2873Db4773931f7DFeF46CC594b2c9",
      "value": {
        "_hex": "0x1cbf40be101d3130"
      },
      "nonce": 3100,
      "data": "0x",
      "r": "0xf48477185f046a71b2b1a13f3af11d924eb604d5553f3ee322b86bca3c7e2dc9",
      "s": "0x6d20462ca7f8f9880a5fad19c06ef39de639548029c872a8ca84ae42757a4c73",
      "v": 27,
      "creates": null,
      "raw": "0xf86e820c1c850decb5ba9f8255f094625c91d2ec2873db4773931f7dfef46cc594b2c9881cbf40be101d3130801ba0f48477185f046a71b2b1a13f3af11d924eb604d5553f3ee322b86bca3c7e2dc9a06d20462ca7f8f9880a5fad19c06ef39de639548029c872a8ca84ae42757a4c73",
      "networkId": 0,
      "chainId": 0
    },
    {
      "hash": "0x9ccea11a7b0473133e559367ee9ec015d5cfa2491a9aa3ac9e0466b35a62ac27",
      "blockHash": "0x84d0c883181df779018667473ee2c603080ad772f80f4fd43d69d4b360bf72d3",
      "blockNumber": 99948,
      "transactionIndex": 1,
      "confirmations": null,
      "from": "0xe6A7a1d47ff21B6321162AEA7C6CB457D5476Bca",
      "gasPrice": {
        "_hex": "0xdcbea1fd0"
      },
      "gasLimit": {
        "_hex": "0x55f0"
      },
      "to": "0xb3c4795Ec98c03A7e38AAF46ef4453558EEe289c",
      "value": {
        "_hex": "0x1ce6099a340fc5f0"
      },
      "nonce": 3101,
      "data": "0x",
      "r": "0xba97d2e2e54da94fc56b4e67e26910cafba924831dde69d8ac636305f5dc38c2",
      "s": "0x2e76da2cd665fcda0356ce99627230c8f01879b385e01ebe9a021a3b147615b7",
      "v": 28,
      "creates": null,
      "raw": "0xf86e820c1d850dcbea1fd08255f094b3c4795ec98c03a7e38aaf46ef4453558eee289c881ce6099a340fc5f0801ca0ba97d2e2e54da94fc56b4e67e26910cafba924831dde69d8ac636305f5dc38c2a02e76da2cd665fcda0356ce99627230c8f01879b385e01ebe9a021a3b147615b7",
      "networkId": 0,
      "chainId": 0
    }
  ]
}