{
  "hash": "0x1b24fbe0653119ba0e87bd8edcfffa0699a3f34bf388fcf4b1291ee8a0531adf",
  "parentHash": "0x361005aff261c307af77eb244e2b44b8e685803abad48780de9c73c0aa7cdc29",
  "number": 84337,
  "timestamp": 1439548300,
  "nonce": "0x9aac649e23f0156b",
  "difficulty": 2535330842905,
  "gasLimit": {
    "_hex": "0x2fefd8"
  },
  "gasUsed": {
    "_hex": "0x14820"
  },
  "miner": "0xe6A7a1d47ff21B6321162AEA7C6CB457D5476Bca",
  "extraData": "0x476574682f76312e302e312d38326566323666362f6c696e75782f676f312e34",
  "transactions": [
    {
      "hash": "0x5acaab0e8708119f2b7ca0c9f337fdb5a8a30462dc9e40a47c0473c06646099c",
      "blockHash": "0x1b24fbe0653119ba0e87bd8edcfffa0699a3f34bf388fcf4b1291ee8a0531adf",
      "blockNumber": 84337,
      "transactionIndex": 0,
      "confirmations": null,
      "from": "0xE3535c3A7F74fDd1447140e98FA5fE310028f40f",
      "gasPrice": {
        "_hex": "0xddcdcc559"
      },
      "gasLimit": {
        "_hex": "0x5208"
      },
      "to": "0x32Be343B94f860124dC4fEe278FDCBD38C102D88",
      "value": {
        "_hex": "0x8ac2b1d7125b9800"
      },
      "nonce": 1,
      "data": "0x",
      "r": "0xe74e3a27f16030a60a8fd62759cc463d56e43d059222b26844ceadb1fce2a32a",
      "s": "0x4e5a30423415c4d81f7d1d1862806ffa81fde3dd0f37484de77df09758aedf4c",
      "v": 28,
      "creates": null,
      "raw": "0xf86c01850ddcdcc5598252089432be343b94f860124dc4fee278fdcbd38c102d88888ac2b1d7125b9800801ca0e74e3a27f16030a60a8fd62759cc463d56e43d059222b26844ceadb1fce2a32aa04e5a30423415c4d81f7d1d1862806ffa81fde3dd0f37484de77df09758aedf4c",
      "networkId": 0,
      "chainId": 0
    },
    {
      "hash": "0xbfe047e256fcd98790e54dd6345e5e53bcba6def932d4b6054c46c259092c4eb",
      "blockHash": "0x1b24fbe0653119ba0e87bd8edcfffa0699a3f34bf388fcf4b1291ee8a0531adf",
      "blockNumber": 84337,
      "transactionIndex": 1,
      "confirmations": null,
      "from": "0xFDE80370e058cfC8292D8eE4D7ed14c37Aa66D89",
      "gasPrice": {
        "_hex": "0xddcdcc559"
      },
      "gasLimit": {
        "_hex": "0x5208"
      },
      "to": "0x32Be343B94f860124dC4fEe278FDCBD38C102D88",
      "value": {
        "_hex": "0x8ac2b1d7125b9800"
      },
      "nonce": 2,
      "data": "0x",
      "r": "0x49407b40bd79766f578f7dad19feb8c0cb6abaed72841bbad0f8b8665131e570",
      "s": "0x3a8693dd8fd5889a5005acb7a5ed8dcea7566cbfa054ade4915fc0be82a2dc59",
      "v": 27,
      "creates": null,
      "raw": "0xf86c02850ddcdcc5598252089432be343b94f860124dc4fee278fdcbd38c102d88888ac2b1d7125b9800801ba049407b40bd79766f578f7dad19feb8c0cb6abaed72841bbad0f8b8665131e570a03a8693dd8fd5889a5005acb7a5ed8dcea7566cbfa054ade4915fc0be82a2dc59",
      "networkId": 0,
      "chainId": 0
    },
    {
      "hash": "0x0ce69a6adcd9b5a1fa61061d6f41616c08bebc5dc9dca2d04d5d174d6880a44c",
      "blockHash": "0x1b24fbe0653119ba0e87bd8edcfffa0699a3f34bf388fcf4b1291ee8a0531adf",
      "blockNumber": 84337,
      "transactionIndex": 2,
      "confirmations": null,
      "from": "0x43D575Cc486538f9B89F6e46188822F6fBC68D94",
      "gasPrice": {
        "_hex": "0xddcdcc559"
      },
      "gasLimit": {
        "_hex": "0x5208"
      },
      "to": "0x32Be343B94f860124dC4fEe278FDCBD38C102D88",
      "value": {
        "_hex": "0xddc3aa7dc564c00"
      },
      "nonce": 0,
      "data": "0x",
      "r": "0x86484ead9bea2dbcc2f47bda3a9f4980366218b49293a6f84483ac116393ce0b",
      "s": "0x04d2f8186b789f78a52d360dead7ab782859877e29e9ad3cefe21095a8ef3073",
      "v": 28,
      "creates": null,
      "raw": "0xf86c80850ddcdcc5598252089432be343b94f860124dc4fee278fdcbd38c102d88880ddc3aa7dc564c00801ca086484ead9bea2dbcc2f47bda3a9f4980366218b49293a6f84483ac116393ce0ba004d2f8186b789f78a52d360dead7ab782859877e29e9ad3cefe21095a8ef3073",
      "networkId": 0,
      "chainId": 0
    },
    {
      "hash": "0xa30aedcd4977ac6956fb947a45280a38cc361ea0e41f3ef46553b3d04cc2e276",
      "blockHash": "0x1b24fbe0653119ba0e87bd8edcfffa0699a3f34bf388fcf4b1291ee8a0531adf",
      "blockNumber": 84337,
      "transactionIndex": 3,
      "confirmations": null,
      "from": "0x120A270bbC009644e35F0bB6ab13f95b8199c4ad",
      "gasPrice": {
        "_hex": "0xcbae47a64"
      },
      "gasLimit": {
        "_hex": "0x3d090"
      },
      "to": "0xbae281B6b389e840f52b74C832EcdaEf7820d8a5",
      "value": {
        "_hex": "0x15af1d78b58c400000"
      },
      "nonce": 427,
      "data": "0x",
      "r": "0x611e691a745c9af4d214ad4dc32ad273ad32057c785b45d42049de922a1da912",
      "s": "0x1fdf4b095d932a57fab57c10a230c69819464578b9d2c3e0f32b6ecd5cebb966",
      "v": 28,
      "creates": null,
      "raw": "0xf8708201ab850cbae47a648303d09094bae281b6b389e840f52b74c832ecdaef7820d8a58915af1d78b58c400000801ca0611e691a745c9af4d214ad4dc32ad273ad32057c785b45d42049de922a1da912a01fdf4b095d932a57fab57c10a230c69819464578b9d2c3e0f32b6ecd5cebb966",
      "networkId": 0,
      "chainId": 0
    }
  ]
}