{
  "hash": "0xccd7489ac3b4fd1ee118c4a162945807b7d7b0f717e5cc4e8ced05f756dec72b",
  "parentHash": "0x59661aaf742a2085619c82f4a6172b20e21acd683703fde37ebd6b286d871266",
  "number": 52316,
  "timestamp": 1439019747,
  "nonce": "0x2564ae8fa35742ae",
  "difficulty": 1556503690759,
  "gasLimit": {
    "_hex": "0x1256d1"
  },
  "gasUsed": {
    "_hex": "0x5208"
  },
  "miner": "0x8f30e76a8Ddf9FaEf40fd58197421716764B72D8",
  "extraData": "0x476574682f76312e302e312f77696e646f77732f676f312e342e32",
  "transactions": [
    {
      "hash": "0xd74fe15dcfc02e6fe9fbf09ac7e45b7a488f3e86ba6bca30ee1ced39a98746ad",
      "blockHash": "0xccd7489ac3b4fd1ee118c4a162945807b7d7b0f717e5cc4e8ced05f756dec72b",
      "blockNumber": 52316,
      "transactionIndex": 0,
      "confirmations": null,
      "from": "0x94F429fDA438c622D39c8f98d586679951F63581",
      "gasPrice": {
        "_hex": "0xcba803473"
      },
      "gasLimit": {
        "_hex": "0x5208"
      },
      "to": "0x32Be343B94f860124dC4fEe278FDCBD38C102D88",
      "value": {
        "_hex": "0x1b0d00187d83130000"
      },
      "nonce": 1,
      "data": "0x",
      "r": "0xdb1c3338914ff158be0b104682e6d59ffc30ed442d5be9b6233bfd170e59bcb8",
      "s": "0x282ce08ee95219969776247f2e79ba4f8ecd90db29f94bc51540f7d8fa26320e",
      "v": 28,
      "creates": null,
      "raw": "0xf86d01850cba8034738252089432be343b94f860124dc4fee278fdcbd38c102d88891b0d00187d83130000801ca0db1c3338914ff158be0b104682e6d59ffc30ed442d5be9b6233bfd170e59bcb8a0282ce08ee95219969776247f2e79ba4f8ecd90db29f94bc51540f7d8fa26320e",
      "networkId": 0,
      "chainId": 0
    }
  ]
}