{
  "hash": "0x5074adde52e0275e6396114ed6751252003edf2d4a368106d4fc61c482cd251e",
  "parentHash": "0x809df35042b1c78c7f064f62a73d0f3f6b7747f4f650d812c915e9788bb4819b",
  "number": 47144,
  "timestamp": 1438934904,
  "nonce": "0xc89c91320045416b",
  "difficulty": 1458821532041,
  "gasLimit": {
    "_hex": "0x9bc0"
  },
  "gasUsed": {
    "_hex": "0x5208"
  },
  "miner": "0xbb7B8287f3F0a933474a79eAe42CBCa977791171",
  "extraData": "0x476574682f4c5649562f76312e302e312f6c696e75782f676f312e342e32",
  "transactions": [
    {
      "hash": "0x0fa31349a32d47314111725cc92dac786d90e1fa694a3ca275f4c106cb67b861",
      "blockHash": "0x5074adde52e0275e6396114ed6751252003edf2d4a368106d4fc61c482cd251e",
      "blockNumber": 47144,
      "transactionIndex": 0,
      "confirmations": null,
      "from": "0xe6A7a1d47ff21B6321162AEA7C6CB457D5476Bca",
      "gasPrice": {
        "_hex": "0xdcaf0ab5f"
      },
      "gasLimit": {
        "_hex": "0x5208"
      },
      "to": "0x87C85c25F631C791346688B2553408F103Ed0d5C",
      "value": {
        "_hex": "0x3574e8b0e0561e08"
      },
      "nonce": 53,
      "data": "0x",
      "r": "0x01104de31c6bf3b2c65d2a3ca4da2759c97d077c1492b88ef6221db720e90c04",
      "s": "0x1027a034ce53a97816c2a5227da082c3e10ac67672e5e8feae7e82a6032c616b",
      "v": 27,
      "creates": null,
      "raw": "0xf86c35850dcaf0ab5f8252089487c85c25f631c791346688b2553408f103ed0d5c883574e8b0e0561e08801ba001104de31c6bf3b2c65d2a3ca4da2759c97d077c1492b88ef6221db720e90c04a01027a034ce53a97816c2a5227da082c3e10ac67672e5e8feae7e82a6032c616b",
      "networkId": 0,
      "chainId": 0
    }
  ]
}