{
  "hash": "0x7b53893b613ae581f484855ad4241506c1c9fb032b98c19edad75978fed8b955",
  "parentHash": "0x5f86d4dd61bbaf129ba1d6a3cca3264fdbbf631ff504b8815b8d740303794cbd",
  "number": 56291,
  "timestamp": 1439084897,
  "nonce": "0x7f6d78e288ab2f58",
  "difficulty": 1648842783374,
  "gasLimit": {
    "_hex": "0x2fefd8"
  },
  "gasUsed": {
    "_hex": "0x5208"
  },
  "miner": "0x9746c7e1ef2bd21FF3997fa467593a89cb852BD0",
  "extraData": "0x476574682f76312e302e312f77696e646f77732f676f312e342e32",
  "transactions": [
    {
      "hash": "0xfebb139b031f18a454165281798f9a484df772d296ed84e6c43aeee11987e25c",
      "blockHash": "0x7b53893b613ae581f484855ad4241506c1c9fb032b98c19edad75978fed8b955",
      "blockNumber": 56291,
      "transactionIndex": 0,
      "confirmations": null,
      "from": "0xA9634393AFaCf497F51723fdf76c7e5d8c8ACacd",
      "gasPrice": {
        "_hex": "0xd01ef8457"
      },
      "gasLimit": {
        "_hex": "0x5208"
      },
      "to": "0x32Be343B94f860124dC4fEe278FDCBD38C102D88",
      "value": {
        "_hex": "0xddc8bac6a17fc00"
      },
      "nonce": 2,
      "data": "0x",
      "r": "0x9e8d727384c83e74865ecce79465f3445a11b42ffc9ad63abc852ac2e3c129e6",
      "s": "0x576268eed3b6f6c9fe304ad3ba3ecce2b43390b33183da561461b5321a373aab",
      "v": 28,
      "creates": null,
      "raw": "0xf86c02850d01ef84578252089432be343b94f860124dc4fee278fdcbd38c102d88880ddc8bac6a17fc00801ca09e8d727384c83e74865ecce79465f3445a11b42ffc9ad63abc852ac2e3c129e6a0576268eed3b6f6c9fe304ad3ba3ecce2b43390b33183da561461b5321a373aab",
      "networkId": 0,
      "chainId": 0
    }
  ]
}