{
  "hash": "0xdc3aefda2569bf8ad10c2819ba21ca934a8e6f1e3ce24901be53559545259157",
  "parentHash": "0xe402414bb1979c0040b516ab99ec9deb861bea518c7d6b7df5473ec9db891a1a",
  "number": 48121,
  "timestamp": 1438951672,
  "nonce": "0x71babbcc05808b84",
  "difficulty": 1469374340945,
  "gasLimit": {
    "_hex": "0x12c21"
  },
  "gasUsed": {
    "_hex": "0x5208"
  },
  "miner": "0xEc98b7A32A91F21203E7DB60feABDA1eDD7ef5bb",
  "extraData": "0x476574682f76312e302e312f6c696e75782f676f312e342e32",
  "transactions": [
    {
      "hash": "0x0e20b70297aed7dcd0c2c3810ea321cf55475a4b188c4463905dcd4e837a444a",
      "blockHash": "0xdc3aefda2569bf8ad10c2819ba21ca934a8e6f1e3ce24901be53559545259157",
      "blockNumber": 48121,
      "transactionIndex": 0,
      "confirmations": null,
      "from": "0xc384Ac6ee27C39E2F278C220BDfA5BAeD626D9d3",
      "gasPrice": {
        "_hex": "0xe6acd9320"
      },
      "gasLimit": {
        "_hex": "0x6978"
      },
      "to": "0xB957f4aaB2d4D83fCA9578C0073419ED2622ECeD",
      "value": {
        "_hex": "0x2c68af0bb140000"
      },
      "nonce": 0,
      "data": "0x",
      "r": "0x42f7981be523e418a36c8c530aa857f70c8b08d02607de883c4cecd365f7e21e",
      "s": "0x6e8d1772e008c529e67efeef3eb2e5af8758a717a733ea332168260fa83cb14a",
      "v": 27,
      "creates": null,
      "raw": "0xf86c80850e6acd932082697894b957f4aab2d4d83fca9578c0073419ed2622eced8802c68af0bb140000801ba042f7981be523e418a36c8c530aa857f70c8b08d02607de883c4cecd365f7e21ea06e8d1772e008c529e67efeef3eb2e5af8758a717a733ea332168260fa83cb14a",
      "networkId": 0,
      "chainId": 0
    }
  ]
}