{
  "hash": "0x477ff23bc3a3178abcffd4f4ac99911e5f4697fefdd10af38a7f706a731c810f",
  "parentHash": "0x92b942b1d6614a81e539a3980310c69819ca29a8b9823a440a07457a3612429d",
  "number": 95665,
  "timestamp": 1439727529,
  "nonce": "0x912e4381705965b9",
  "difficulty": 3619716250190,
  "gasLimit": {
    "_hex": "0x2fefd8"
  },
  "gasUsed": {
    "_hex": "0x5208"
  },
  "miner": "0xe6A7a1d47ff21B6321162AEA7C6CB457D5476Bca",
  "extraData": "0x476574682f76312e302e312d38326566323666362f6c696e75782f676f312e34",
  "transactions": [
    {
      "hash": "0x6bacc1f516200530fc30b939e5a68514dbb36dbfa2f69f27f732a411836d60ed",
      "blockHash": "0x477ff23bc3a3178abcffd4f4ac99911e5f4697fefdd10af38a7f706a731c810f",
      "blockNumber": 95665,
      "transactionIndex": 0,
      "confirmations": null,
      "from": "0x9d9C4EFe9F433989E23Be94049215329Fa55B4Cb",
      "gasPrice": {
        "_hex": "0xd4dfa5aef"
      },
      "gasLimit": {
        "_hex": "0x5208"
      },
      "to": "0xa5D364A2d05C34Dd34e3163E76554626debAe686",
      "value": {
        "_hex": "0x16345785d8a0000"
      },
      "nonce": 0,
      "data": "0x",
      "r": "0x26fc5bef6357de6120763395ee802f5b235effa9d8aebcdcb91548eaef871777",
      "s": "0x616882575ee8916a5e949aa49ed0e2e3a17721aaa47d0f71082b557d881b65bf",
      "v": 28,
      "creates": null,
      "raw": "0xf86c80850d4dfa5aef82520894a5d364a2d05c34dd34e3163e76554626debae68688016345785d8a0000801ca026fc5bef6357de6120763395ee802f5b235effa9d8aebcdcb91548eaef871777a0616882575ee8916a5e949aa49ed0e2e3a17721aaa47d0f71082b557d881b65bf",
      "networkId": 0,
      "chainId": 0
    }
  ]
}