{
  "hash": "0x815693c882e49a9deae459479b23ba48ad4e718a675b2b180fca0af6dd7dfc3a",
  "parentHash": "0x9af243473040eea6c413635c928190a720b36d513e7db4c9c619f20df9cda8c2",
  "number": 81978,
  "timestamp": 1439511149,
  "nonce": "0xb3f4a640c2212e5e",
  "difficulty": 2409298961867,
  "gasLimit": {
    "_hex": "0x2fefd8"
  },
  "gasUsed": {
    "_hex": "0x11541"
  },
  "miner": "0xe6A7a1d47ff21B6321162AEA7C6CB457D5476Bca",
  "extraData": "0x476574682f76312e302e312d38326566323666362f6c696e75782f676f312e34",
  "transactions": [
    {
      "hash": "0xad64c991537e8a5e7aa54e9195ada36aaa04db38cbb56b5ab212af858faebf74",
      "blockHash": "0x815693c882e49a9deae459479b23ba48ad4e718a675b2b180fca0af6dd7dfc3a",
      "blockNumber": 81978,
      "transactionIndex": 0,
      "confirmations": null,
      "from": "0x0D82Cd113DC35DdDA93f38166cD5CDe8b88e36A1",
      "gasPrice": {
        "_hex": "0xd91c46875"
      },
      "gasLimit": {
        "_hex": "0x15f90"
      },
      "to": "0x3cb6797fD58b6A4a6D3107f686f09df04b62f6E4",
      "value": {
        "_hex": "0x0"
      },
      "nonce": 11,
      "data": "0x748dc522",
      "r": "0x75b6af0c7bc4a02824e1e3897f2efe40a3903f5e1e2dc3a83c831a73527a511d",
      "s": "0x3027761011c8efe80fa69594f17b8399b2aea8b524e4f5ea237047f14e9ec73f",
      "v": 27,
      "creates": null,
      "raw": "0xf8690b850d91c4687583015f90943cb6797fd58b6a4a6d3107f686f09df04b62f6e48084748dc5221ba075b6af0c7bc4a02824e1e3897f2efe40a3903f5e1e2dc3a83c831a73527a511da03027761011c8efe80fa69594f17b8399b2aea8b524e4f5ea237047f14e9ec73f",
      "networkId": 0,
      "chainId": 0
    },
    {
      "hash": "0x805ed4d02b1f3fde47dbfe94b49c521dd68d3c1cd8f6d44f4948938b306ab72a",
      "blockHash": "0x815693c882e49a9deae459479b23ba48ad4e718a675b2b180fca0af6dd7dfc3a",
      "blockNumber": 81978,
      "transactionIndex": 1,
      "confirmations": null,
      "from": "0xc8ebccC5F5689Fa8659d83713341e5aD19349448",
      "gasPrice": {
        "_hex": "0xd6d9651bf"
      },
      "gasLimit": {
        "_hex": "0x15f90"
      },
      "to": "0x0F87Fb507513e749081E34373c84E95e85b5c057",
      "value": {
        "_hex": "0x2d84e69f2f480000"
      },
      "nonce": 60,
      "data": "0x",
      "r": "0x4d00f7af92fc4ba3ef5a990fb94a7ccc44656076942be4958c354ee55e4bd11a",
      "s": "0x7346a09e1d90186f932c7517b8a8c8281a0086db761b377c80ea4f594394c0cb",
      "v": 27,
      "creates": null,
      "raw": "0xf86d3c850d6d9651bf83015f90940f87fb507513e749081e34373c84e95e85b5c057882d84e69f2f480000801ba04d00f7af92fc4ba3ef5a990fb94a7ccc44656076942be4958c354ee55e4bd11aa07346a09e1d90186f932c7517b8a8c8281a0086db761b377c80ea4f594394c0cb",
      "networkId": 0,
      "chainId": 0
    }
  ]
}