{
  "hash": "0x5bce2de0cd6e983686016b1c52620d92a15656f1ee8d5c2566322c70b0c7fa4d",
  "parentHash": "0xbee467729b370ad99854333937b51f3b6270855ea10ffbae25e1ae2c433ccab7",
  "number": 106946,
  "timestamp": 1439913322,
  "nonce": "0x28a498ef4d927cce",
  "difficulty": 4452861614567,
  "gasLimit": {
    "_hex": "0x2fefd8"
  },
  "gasUsed": {
    "_hex": "0x5208"
  },
  "miner": "0x790b8a3cE86E707ED0eD32bF89B3269692a23CC1",
  "extraData": "0xd783010001844765746887676f312e342e32856c696e7578",
  "transactions": [
    {
      "hash": "0x569e78ac5a5c4ce9ff91a936dc25a21041344611178823fc4b1657e9bef3a8bb",
      "blockHash": "0x5bce2de0cd6e983686016b1c52620d92a15656f1ee8d5c2566322c70b0c7fa4d",
      "blockNumber": 106946,
      "transactionIndex": 0,
      "confirmations": null,
      "from": "0xC47Aaa860008be6f65B58c6C6E02a84e666EfE31",
      "gasPrice": {
        "_hex": "0xcee81e53e"
      },
      "gasLimit": {
        "_hex": "0x15f90"
      },
      "to": "0x93937F6dECfFBefCAef601AD80b6919D625cDA40",
      "value": {
        "_hex": "0x3f916947a8514c427"
      },
      "nonce": 85,
      "data": "0x",
      "r": "0x9facb673b12d00b9b33cff426772106d61d9dd73991907a16e69abd6051cd802",
      "s": "0x0eeec226a278cb4ace94eda75dec2e68de236b73b014d86be13302a791c03f7c",
      "v": 28,
      "creates": null,
      "raw": "0xf86e55850cee81e53e83015f909493937f6decffbefcaef601ad80b6919d625cda408903f916947a8514c427801ca09facb673b12d00b9b33cff426772106d61d9dd73991907a16e69abd6051cd802a00eeec226a278cb4ace94eda75dec2e68de236b73b014d86be13302a791c03f7c",
      "networkId": 0,
      "chainId": 0
    }
  ]
}