{
  "hash": "0xfdaa2cc39f6a0ec4672d24501599ba643ec0d1dd26fb027c7afb92294cf49ab0",
  "parentHash": "0xb684b15218648ba0dec6650a8b15099ccb570d96fb80a439faf30e4007a0943b",
  "number": 121317,
  "timestamp": 1440175186,
  "nonce": "0xae22cdc19dd02ff6",
  "difficulty": 4412800724181,
  "gasLimit": {
    "_hex": "0x2fefd8"
  },
  "gasUsed": {
    "_hex": "0xa6b8"
  },
  "miner": "0xa70a9a7040d542C632D8e0bE7c5513A8a5Bbc752",
  "extraData": "0x",
  "transactions": [
    {
      "hash": "0xfee53f08cf8b9eaf96403f4f3f4ebc14d213965ed981ba66773c6627d4049b3f",
      "blockHash": "0xfdaa2cc39f6a0ec4672d24501599ba643ec0d1dd26fb027c7afb92294cf49ab0",
      "blockNumber": 121317,
      "transactionIndex": 0,
      "confirmations": null,
      "from": "0x2910543Af39abA0Cd09dBb2D50200b3E800A63D2",
      "gasPrice": {
        "_hex": "0xd5f9847bb"
      },
      "gasLimit": {
        "_hex": "0x5208"
      },
      "to": "0x4Eaf4CaDd87499C20bA3412B1D222f9a72DA7AFF",
      "value": {
        "_hex": "0x64d49dadd2faaf8000"
      },
      "nonce": 1189,
      "data": "0x",
      "r": "0x7dd500a632d173000ca5d0ce0d0a7b8830522844885a25a76c8550bf2356d835",
      "s": "0x786a7c6fdd247b47a48b33919974f162c2ed3a7c7651759c4fcd4aa1b839a49c",
      "v": 27,
      "creates": null,
      "raw": "0xf86f8204a5850d5f9847bb825208944eaf4cadd87499c20ba3412b1d222f9a72da7aff8964d49dadd2faaf8000801ba07dd500a632d173000ca5d0ce0d0a7b8830522844885a25a76c8550bf2356d835a0786a7c6fdd247b47a48b33919974f162c2ed3a7c7651759c4fcd4aa1b839a49c",
      "networkId": 0,
      "chainId": 0
    },
    {
      "hash": "0x62c8f79997f695c502284a455958147a88c66ff7d3ab2e0dfe60cc782572c002",
      "blockHash": "0xfdaa2cc39f6a0ec4672d24501599ba643ec0d1dd26fb027c7afb92294cf49ab0",
      "blockNumber": 121317,
      "transactionIndex": 1,
      "confirmations": null,
      "from": "0x27987110221A880826aDB2E7aB5ECA78c6e31aEc",
      "gasPrice": {
        "_hex": "0xba43b7400"
      },
      "gasLimit": {
        "_hex": "0x55f0"
      },
      "to": "0x40B9b889A21Ff1534d018D71Dc406122EBcf3F5A",
      "value": {
        "_hex": "0xb1a2bc2ec50000"
      },
      "nonce": 4,
      "data": "0x44565855423230363833",
      "r": "0x06a4ab5cf78fe35b49e5eb2f068aaf9a6b1ed21101c37c41a54795155b2ec728",
      "s": "0x66a7d2cc856f17693dad78e8e2e39b7e2a6b474d32933b969f0576818be7660a",
      "v": 28,
      "creates": null,
      "raw": "0xf87504850ba43b74008255f09440b9b889a21ff1534d018d71dc406122ebcf3f5a87b1a2bc2ec500008a445658554232303638331ca006a4ab5cf78fe35b49e5eb2f068aaf9a6b1ed21101c37c41a54795155b2ec728a066a7d2cc856f17693dad78e8e2e39b7e2a6b474d32933b969f0576818be7660a",
      "networkId": 0,
      "chainId": 0
    }
  ]
}