{
  "hash": "0x75e7ac3149df4dc0743612d1d80b7c913b908be19884f61e544abc94c969c065",
  "parentHash": "0xe9ff279713a2c84b21c9464cf891801217501cdeef7219cd46774d74a2c700bf",
  "number": 47816,
  "timestamp": 1438946833,
  "nonce": "0xb4ede9af7a317da1",
  "difficulty": 1455858420153,
  "gasLimit": {
    "_hex": "0xf65c"
  },
  "gasUsed": {
    "_hex": "0xa674"
  },
  "miner": "0xf8E0CA3Ed80bd541b94BEdCf259e8CF2141A9523",
  "extraData": "0x476574682f76312e302e312f77696e646f77732f676f312e342e32",
  "transactions": [
    {
      "hash": "0x65ab7f5adf60e03a5c44891259b6da8ada3c9b33ea9d0139d61182c5b8264503",
      "blockHash": "0x75e7ac3149df4dc0743612d1d80b7c913b908be19884f61e544abc94c969c065",
      "blockNumber": 47816,
      "transactionIndex": 0,
      "confirmations": null,
      "from": "0x0cDA12BF72d461BBc479eB92e6491d057e6B5Ad1",
      "gasPrice": {
        "_hex": "0x68c6171400"
      },
      "gasLimit": {
        "_hex": "0x55f0"
      },
      "to": "0x2910543Af39abA0Cd09dBb2D50200b3E800A63D2",
      "value": {
        "_hex": "0xa2a15d09519be00000"
      },
      "nonce": 12,
      "data": "0x454e3247434d4b5930",
      "r": "0xbd4c87e87dc248fb2a5d7084903c42a9f98eba9d2b7b48d47402975427969a61",
      "s": "0x30ae7c56b3a246e25350ab91a00bc8c342d0f943f9699a8eadfebec01c6689f7",
      "v": 28,
      "creates": null,
      "raw": "0xf8760c8568c61714008255f0942910543af39aba0cd09dbb2d50200b3e800a63d289a2a15d09519be0000089454e3247434d4b59301ca0bd4c87e87dc248fb2a5d7084903c42a9f98eba9d2b7b48d47402975427969a61a030ae7c56b3a246e25350ab91a00bc8c342d0f943f9699a8eadfebec01c6689f7",
      "networkId": 0,
      "chainId": 0
    },
    {
      "hash": "0xa387c4bb840922b3998841fdff306ecd23270c4edb41c38ae916bd95c45d839c",
      "blockHash": "0x75e7ac3149df4dc0743612d1d80b7c913b908be19884f61e544abc94c969c065",
      "blockNumber": 47816,
      "transactionIndex": 1,
      "confirmations": null,
      "from": "0xE11F174499fF162DE6D0A49D6E9dF8Ef0645982d",
      "gasPrice": {
        "_hex": "0xdb07f36b1"
      },
      "gasLimit": {
        "_hex": "0x5208"
      },
      "to": "0x32Be343B94f860124dC4fEe278FDCBD38C102D88",
      "value": {
        "_hex": "0xddc53bd5470a400"
      },
      "nonce": 0,
      "data": "0x",
      "r": "0xfc98f9496e77a4e39e02fceb6885a6311f9dd93297fbb02426aa0e28777b5142",
      "s": "0x12265082a0e5b955cd392282f8c56d9a5bc62443d7c18a683a5c6cfa14d2bdc2",
      "v": 28,
      "creates": null,
      "raw": "0xf86c80850db07f36b18252089432be343b94f860124dc4fee278fdcbd38c102d88880ddc53bd5470a400801ca0fc98f9496e77a4e39e02fceb6885a6311f9dd93297fbb02426aa0e28777b5142a012265082a0e5b955cd392282f8c56d9a5bc62443d7c18a683a5c6cfa14d2bdc2",
      "networkId": 0,
      "chainId": 0
    }
  ]
}