{
  "hash": "0xa8bb594fbf61bc4264199dd8019593a7c0dfac95a0a288252dafe69e055b0e35",
  "parentHash": "0x21f5b19b140827df7fb1b71f0b11c99f525429eef178ca805e80772d513d78b4",
  "number": 100974,
  "timestamp": 1439815442,
  "nonce": "0x3a6be85b3d6ab477",
  "difficulty": 3860142763067,
  "gasLimit": {
    "_hex": "0x2fefd8"
  },
  "gasUsed": {
    "_hex": "0xa410"
  },
  "miner": "0xe6A7a1d47ff21B6321162AEA7C6CB457D5476Bca",
  "extraData": "0x476574682f76312e302e312d38326566323666362f6c696e75782f676f312e34",
  "transactions": [
    {
      "hash": "0x7b23c5d53877dfc5cbf7cb8ca094550c9c0b370fd192d0f8b4a2fdcce87773f0",
      "blockHash": "0xa8bb594fbf61bc4264199dd8019593a7c0dfac95a0a288252dafe69e055b0e35",
      "blockNumber": 100974,
      "transactionIndex": 0,
      "confirmations": null,
      "from": "0xbfE3a1Fc6e24c8F7B3250560991F93cBA2cF8047",
      "gasPrice": {
        "_hex": "0xcdcb2316e"
      },
      "gasLimit": {
        "_hex": "0x15f90"
      },
      "to": "0x0F5B063d39887707089aD6BEE70c0FDd4dE061EF",
      "value": {
        "_hex": "0x98774738bc822200000"
      },
      "nonce": 1,
      "data": "0x",
      "r": "0xb7474c900c235b71ff11363248e80f203257394302d88681ed2f6deaaff4cc61",
      "s": "0x0d7985a9ce35a78244a21d27988f123b76e4062fe91f3dc21430cb09567d799f",
      "v": 27,
      "creates": null,
      "raw": "0xf86f01850cdcb2316e83015f90940f5b063d39887707089ad6bee70c0fdd4de061ef8a098774738bc822200000801ba0b7474c900c235b71ff11363248e80f203257394302d88681ed2f6deaaff4cc61a00d7985a9ce35a78244a21d27988f123b76e4062fe91f3dc21430cb09567d799f",
      "networkId": 0,
      "chainId": 0
    },
    {
      "hash": "0x9f5c5619290a97c3361116031f1aa89533145e6577554f446b83658192e7312e",
      "blockHash": "0xa8bb594fbf61bc4264199dd8019593a7c0dfac95a0a288252dafe69e055b0e35",
      "blockNumber": 100974,
      "transactionIndex": 1,
      "confirmations": null,
      "from": "0xcf00A85f3826941e7A25BFcF9Aac575d40410852",
      "gasPrice": {
        "_hex": "0xcb5bea614"
      },
      "gasLimit": {
        "_hex": "0x15f90"
      },
      "to": "0xD9666150A9dA92d9108198a4072970805a8B3428",
      "value": {
        "_hex": "0x4563918244f40000"
      },
      "nonce": 32,
      "data": "0x",
      "r": "0xe9e991674823d87fcbb6c520c8294167ca00eb34978bcfc021b755c08be7f6cf",
      "s": "0x42cc6b801414e9bd5925a7716aabf0477b02f99108a4e4d4acd505db1a569245",
      "v": 28,
      "creates": null,
      "raw": "0xf86d20850cb5bea61483015f9094d9666150a9da92d9108198a4072970805a8b3428884563918244f40000801ca0e9e991674823d87fcbb6c520c8294167ca00eb34978bcfc021b755c08be7f6cfa042cc6b801414e9bd5925a7716aabf0477b02f99108a4e4d4acd505db1a569245",
      "networkId": 0,
      "chainId": 0
    }
  ]
}