{
  "hash": "0x13e30bad32b894d6966a96b8dfbfae0fc39d42c8dd078104a53e4c6fc0c5a7a0",
  "parentHash": "0x9049126fe2ef628cf5162d703665b1ad4e0194d03fe64fc1a98ad78d229f2e12",
  "number": 73634,
  "timestamp": 1439372257,
  "nonce": "0x631f12c905625241",
  "difficulty": 2230454762989,
  "gasLimit": {
    "_hex": "0x2fefd8"
  },
  "gasUsed": {
    "_hex": "0xf618"
  },
  "miner": "0x10C3eedde6fBda160041f479fCaf26bb38316fCd",
  "extraData": "0x476574682f76312e302e312d38326566323666362f6c696e75782f676f312e34",
  "transactions": [
    {
      "hash": "0xfca0b64f7c65a815318410e34282dcf73cc9120ee92ba1042d5fc19e3540af95",
      "blockHash": "0x13e30bad32b894d6966a96b8dfbfae0fc39d42c8dd078104a53e4c6fc0c5a7a0",
      "blockNumber": 73634,
      "transactionIndex": 0,
      "confirmations": null,
      "from": "0x7D5D2f73949DaDdA0856B206989Df0078D51A1E5",
      "gasPrice": {
        "_hex": "0x10b07fba1c3"
      },
      "gasLimit": {
        "_hex": "0x15f90"
      },
      "to": "0x29438a5547Cb8f5Dcc4182AbD0bB4cCa5E492ba2",
      "value": {
        "_hex": "0xde0b6b3a7640000"
      },
      "nonce": 5,
      "data": "0x",
      "r": "0xd74235e444edddd795cf9acaa66fb8b6d31159232174f391347cfc3f11bee666",
      "s": "0x3364b8e8aadd1f5bf98ae753634530cdadb575fccc85c908e434da593c5c9afa",
      "v": 28,
      "creates": null,
      "raw": "0xf86e0586010b07fba1c383015f909429438a5547cb8f5dcc4182abd0bb4cca5e492ba2880de0b6b3a7640000801ca0d74235e444edddd795cf9acaa66fb8b6d31159232174f391347cfc3f11bee666a03364b8e8aadd1f5bf98ae753634530cdadb575fccc85c908e434da593c5c9afa",
      "networkId": 0,
      "chainId": 0
    },
    {
      "hash": "0x67717bb6e43566fdbc2be46cce7b4eae2606bbdd690d7004ee667b9a31518bda",
      "blockHash": "0x13e30bad32b894d6966a96b8dfbfae0fc39d42c8dd078104a53e4c6fc0c5a7a0",
      "blockNumber": 73634,
      "transactionIndex": 1,
      "confirmations": null,
      "from": "0xa70a9a7040d542C632D8e0bE7c5513A8a5Bbc752",
      "gasPrice": {
        "_hex": "0xd1b39d36c"
      },
      "gasLimit": {
        "_hex": "0x5208"
      },
      "to": "0x32Be343B94f860124dC4fEe278FDCBD38C102D88",
      "value": {
        "_hex": "0x8f1928faeb88b000"
      },
      "nonce": 24,
      "data": "0x",
      "r": "0x7199409b00bf06da8b0e4e6fdb58698cd367291120254bf1698fd5cd56c3de94",
      "s": "0x6e8c5cecb6d649dcf3e716f67ef417fdbcb40aa9441229e46826de3a10b7f04c",
      "v": 27,
      "creates": null,
      "raw": "0xf86c18850d1b39d36c8252089432be343b94f860124dc4fee278fdcbd38c102d88888f1928faeb88b000801ba07199409b00bf06da8b0e4e6fdb58698cd367291120254bf1698fd5cd56c3de94a06e8c5cecb6d649dcf3e716f67ef417fdbcb40aa9441229e46826de3a10b7f04c",
      "networkId": 0,
      "chainId": 0
    },
    {
      "hash": "0x3277244f785ef72a3e8b8e74e412c03541aabace960711cb05e35c16dd942291",
      "blockHash": "0x13e30bad32b894d6966a96b8dfbfae0fc39d42c8dd078104a53e4c6fc0c5a7a0",
      "blockNumber": 73634,
      "transactionIndex": 2,
      "confirmations": null,
      "from": "0xa005900949B552c0d5E109FcDE554C4D979BAc1E",
      "gasPrice": {
        "_hex": "0xd1b39d36c"
      },
      "gasLimit": {
        "_hex": "0x5208"
      },
      "to": "0x32Be343B94f860124dC4fEe278FDCBD38C102D88",
      "value": {
        "_hex": "0x6c6b7d64f0c2b00000"
      },
      "nonce": 0,
      "data": "0x",
      "r": "0x21e4b6c807557f2f60759945443116de57bdd60248638974780c5b85f502dbb7",
      "s": "0x66241a8c5f0e0665319f1230f8a2d1cb0354e266fd11b4b74af04fbe7e8090b0",
      "v": 28,
      "creates": null,
      "raw": "0xf86d80850d1b39d36c8252089432be343b94f860124dc4fee278fdcbd38c102d88896c6b7d64f0c2b00000801ca021e4b6c807557f2f60759945443116de57bdd60248638974780c5b85f502dbb7a066241a8c5f0e0665319f1230f8a2d1cb0354e266fd11b4b74af04fbe7e8090b0",
      "networkId": 0,
      "chainId": 0
    }
  ]
}