{
  "hash": "0x377908ca118796b57c1b1fe6da20cff85caf68880782419b694e95dffdf62688",
  "parentHash": "0xe9957599c888221f2eae702e6e5da8f940126a2714cde666c289df4b8e4619df",
  "number": 56483,
  "timestamp": 1439087958,
  "nonce": "0xc89594dc060156e2",
  "difficulty": 1658494371588,
  "gasLimit": {
    "_hex": "0x2fefd8"
  },
  "gasUsed": {
    "_hex": "0xa410"
  },
  "miner": "0xdC49b9dc1AbB93Ebb856547a1C0578D65f4A32DE",
  "extraData": "0x476574682f76312e302e312d38326566323666362f6c696e75782f676f312e34",
  "transactions": [
    {
      "hash": "0x0abf6bc4f7295625c31207cc489008a6438673e047d20756b2153253ee757eb1",
      "blockHash": "0x377908ca118796b57c1b1fe6da20cff85caf68880782419b694e95dffdf62688",
      "blockNumber": 56483,
      "transactionIndex": 0,
      "confirmations": null,
      "from": "0x1308A2e95c0160B90803ddCA9B9a5bb55E416d79",
      "gasPrice": {
        "_hex": "0xe8d4a51000"
      },
      "gasLimit": {
        "_hex": "0x15f90"
      },
      "to": "0x7266c8FD66eD582bEA23bd8BC48E58D7f17321F3",
      "value": {
        "_hex": "0xde0b6b3a7640000"
      },
      "nonce": 61,
      "data": "0x",
      "r": "0x91f27a3d0bd20e79299e8793692f7a198ce99ed4cffa7aca078ea7ebcb14d30b",
      "s": "0x6c45f376176d48ca5b4c27af740ca8745b7c8ad736712bbe9eb22852a15db26f",
      "v": 28,
      "creates": null,
      "raw": "0xf86d3d85e8d4a5100083015f90947266c8fd66ed582bea23bd8bc48e58d7f17321f3880de0b6b3a7640000801ca091f27a3d0bd20e79299e8793692f7a198ce99ed4cffa7aca078ea7ebcb14d30ba06c45f376176d48ca5b4c27af740ca8745b7c8ad736712bbe9eb22852a15db26f",
      "networkId": 0,
      "chainId": 0
    },
    {
      "hash": "0x29f6f7d1893b143a7f96be64203e7ca5d0ad7a09d8e2ac4e5b50fb1f8f21468e",
      "blockHash": "0x377908ca118796b57c1b1fe6da20cff85caf68880782419b694e95dffdf62688",
      "blockNumber": 56483,
      "transactionIndex": 1,
      "confirmations": null,
      "from": "0xB6AC12CefF0375Da80503AcCa54bf3061Fa917a8",
      "gasPrice": {
        "_hex": "0xe078c124b"
      },
      "gasLimit": {
        "_hex": "0x15f90"
      },
      "to": "0x5fF827e73C5B866c300b824fe12719a3DD350513",
      "value": {
        "_hex": "0x62884461f1460000"
      },
      "nonce": 1,
      "data": "0x",
      "r": "0x58c6a076d30162ceb1f4b79cc90d9ffddf093689256fa409fc2e804211ebb153",
      "s": "0x12e140a559f559b95355063c8e788da598fd603d18c40f5fa6b3e3faef8b1f3a",
      "v": 28,
      "creates": null,
      "raw": "0xf86d01850e078c124b83015f90945ff827e73c5b866c300b824fe12719a3dd3505138862884461f1460000801ca058c6a076d30162ceb1f4b79cc90d9ffddf093689256fa409fc2e804211ebb153a012e140a559f559b95355063c8e788da598fd603d18c40f5fa6b3e3faef8b1f3a",
      "networkId": 0,
      "chainId": 0
    }
  ]
}