{
  "hash": "0x4c3391e6dc29e8022154cc25296110555fcc4b7844ac6af6624674c34756aab8",
  "parentHash": "0xfcb9dab016cb967e40983eb929c9c569f1ce9748ff3941e98c2971cd8bd2554d",
  "number": 93662,
  "timestamp": 1439695346,
  "nonce": "0xb4ecbe52df4c93f7",
  "difficulty": 3439633344389,
  "gasLimit": {
    "_hex": "0x2fefd8"
  },
  "gasUsed": {
    "_hex": "0x5208"
  },
  "miner": "0x157c6f2431eB1a95797EE86F7d17b3c0FD47A247",
  "extraData": "0x476574682f76312e302e312f77696e646f77732f676f312e342e32",
  "transactions": [
    {
      "hash": "0xc2b55226a07e8dd5cf432351a62a210f4efcfa7e1a9154a3cd1c94ef75d2222d",
      "blockHash": "0x4c3391e6dc29e8022154cc25296110555fcc4b7844ac6af6624674c34756aab8",
      "blockNumber": 93662,
      "transactionIndex": 0,
      "confirmations": null,
      "from": "0x007f7f58D3eb5b7510A301eCC749FC1fCDDBE14D",
      "gasPrice": {
        "_hex": "0xdbfd85e2f"
      },
      "gasLimit": {
        "_hex": "0x15f90"
      },
      "to": "0xD9666150A9dA92d9108198a4072970805a8B3428",
      "value": {
        "_hex": "0x8ac7230489e80000"
      },
      "nonce": 11,
      "data": "0x",
      "r": "0xfe384fa712513e19dec993eb3e6ff7cc1ee05b5313fac04fd3eb1ff7a9064218",
      "s": "0x7c7035ecc7cd059af006bc762a8690df93345ee2c7720ceaf432187962b6e76c",
      "v": 27,
      "creates": null,
      "raw": "0xf86d0b850dbfd85e2f83015f9094d9666150a9da92d9108198a4072970805a8b3428888ac7230489e80000801ba0fe384fa712513e19dec993eb3e6ff7cc1ee05b5313fac04fd3eb1ff7a9064218a07c7035ecc7cd059af006bc762a8690df93345ee2c7720ceaf432187962b6e76c",
      "networkId": 0,
      "chainId": 0
    }
  ]
}