{
  "hash": "0xaf92a28562b3fb63d98f003d4ba315bd310ebb1cc8c7d24fa399c12cb3afc220",
  "parentHash": "0xb1977b6b93aff9265390aa27b7ce7ca650e2439870253e7cf3559350ec8d5bfd",
  "number": 117925,
  "timestamp": 1440117630,
  "nonce": "0x14db44bfeb3049f0",
  "difficulty": 4341901417787,
  "gasLimit": {
    "_hex": "0x2fefd8"
  },
  "gasUsed": {
    "_hex": "0xf618"
  },
  "miner": "0xe6A7a1d47ff21B6321162AEA7C6CB457D5476Bca",
  "extraData": "0xd783010002844765746887676f312e342e32856c696e7578",
  "transactions": [
    {
      "hash": "0xd88710ae094dec186a9f65256ddb4c637a39c5a38e5e16166a3bf90d55d47440",
      "blockHash": "0xaf92a28562b3fb63d98f003d4ba315bd310ebb1cc8c7d24fa399c12cb3afc220",
      "blockNumber": 117925,
      "transactionIndex": 0,
      "confirmations": null,
      "from": "0x5F03b61cc63cA0b9E5D70A11E7CcA53447c38aE7",
      "gasPrice": {
        "_hex": "0xba43b7400"
      },
      "gasLimit": {
        "_hex": "0x5208"
      },
      "to": "0x32Be343B94f860124dC4fEe278FDCBD38C102D88",
      "value": {
        "_hex": "0x1137240f2f44ac00"
      },
      "nonce": 3,
      "data": "0x",
      "r": "0x7b43248bab39544907fec2193d1353d6472de51dad7eee65e8f79894946e629d",
      "s": "0x619acc5c6501feab7dae493311e283742b1a3014dbb61f43b78379ac665319e8",
      "v": 28,
      "creates": null,
      "raw": "0xf86c03850ba43b74008252089432be343b94f860124dc4fee278fdcbd38c102d88881137240f2f44ac00801ca07b43248bab39544907fec2193d1353d6472de51dad7eee65e8f79894946e629da0619acc5c6501feab7dae493311e283742b1a3014dbb61f43b78379ac665319e8",
      "networkId": 0,
      "chainId": 0
    },
    {
      "hash": "0x83b0b9533318fcef5c7d29b2b4652a5098616aae7beca256cf78ff5c5a007b81",
      "blockHash": "0xaf92a28562b3fb63d98f003d4ba315bd310ebb1cc8c7d24fa399c12cb3afc220",
      "blockNumber": 117925,
      "transactionIndex": 1,
      "confirmations": null,
      "from": "0xfCcd1ab7e0922F08995104b3019E6b7bfCe006F8",
      "gasPrice": {
        "_hex": "0xba43b7400"
      },
      "gasLimit": {
        "_hex": "0x5208"
      },
      "to": "0x32Be343B94f860124dC4fEe278FDCBD38C102D88",
      "value": {
        "_hex": "0x4148fe4b43ae9400"
      },
      "nonce": 0,
      "data": "0x",
      "r": "0x25541739d0df1a1b10c69ad1ebb992a919668d7a77222a2950e36fe0450a75dc",
      "s": "0x7a5072484c43751aaeb89fd2ee967961b3a030e1c35d3f155f8bc0053c7b222f",
      "v": 28,
      "creates": null,
      "raw": "0xf86c80850ba43b74008252089432be343b94f860124dc4fee278fdcbd38c102d88884148fe4b43ae9400801ca025541739d0df1a1b10c69ad1ebb992a919668d7a77222a2950e36fe0450a75dca07a5072484c43751aaeb89fd2ee967961b3a030e1c35d3f155f8bc0053c7b222f",
      "networkId": 0,
      "chainId": 0
    },
    {
      "hash": "0x77783826c39c7ee5cddae4a6cb219ede5399973c2c7aaeea5781670975abba8e",
      "blockHash": "0xaf92a28562b3fb63d98f003d4ba315bd310ebb1cc8c7d24fa399c12cb3afc220",
      "blockNumber": 117925,
      "transactionIndex": 2,
      "confirmations": null,
      "from": "0xFa9F15F96E3244897308A95163a62861685e8917",
      "gasPrice": {
        "_hex": "0xba43b7400"
      },
      "gasLimit": {
        "_hex": "0x5208"
      },
      "to": "0x32Be343B94f860124dC4fEe278FDCBD38C102D88",
      "value": {
        "_hex": "0x32fb01417f89a2000"
      },
      "nonce": 6,
      "data": "0x",
      "r": "0x0680af1eccd757149861a996aed90623810316c4b9b44379f29b8a2c123a050c",
      "s": "0x4d733173594bb810d720f8bdd6d4dfffcaed0dc7375529caec17a808885c106e",
      "v": 28,
      "creates": null,
      "raw": "0xf86d06850ba43b74008252089432be343b94f860124dc4fee278fdcbd38c102d8889032fb01417f89a2000801ca00680af1eccd757149861a996aed90623810316c4b9b44379f29b8a2c123a050ca04d733173594bb810d720f8bdd6d4dfffcaed0dc7375529caec17a808885c106e",
      "networkId": 0,
      "chainId": 0
    }
  ]
}