{
  "hash": "0x8e78dfc7ba1a91920c3649f54894c1941908d3b22e22896c4f40fa266723d90d",
  "parentHash": "0x7e0756cd84aaf43b19dab7ce4d70c3cbd0a18b5b360b5372f896169190e2eed9",
  "number": 47923,
  "timestamp": 1438948411,
  "nonce": "0x5cb719e9576162f0",
  "difficulty": 1462251662582,
  "gasLimit": {
    "_hex": "0x10798"
  },
  "gasUsed": {
    "_hex": "0xf87c"
  },
  "miner": "0xe6A7a1d47ff21B6321162AEA7C6CB457D5476Bca",
  "extraData": "0x657468706f6f6c2e6f7267",
  "transactions": [
    {
      "hash": "0x354a8619d29a0ca3f61e2a3df9ac8bfb2dca991d757218b24d7a9e425f1518d5",
      "blockHash": "0x8e78dfc7ba1a91920c3649f54894c1941908d3b22e22896c4f40fa266723d90d",
      "blockNumber": 47923,
      "transactionIndex": 0,
      "confirmations": null,
      "from": "0x74016F15e9262E1fAb078146a4002ACc513AfEf0",
      "gasPrice": {
        "_hex": "0xdb7aaef5e"
      },
      "gasLimit": {
        "_hex": "0x55f0"
      },
      "to": "0x7C1D0c9ad434e14754deeA395231be017047e40C",
      "value": {
        "_hex": "0xde0b6b3a7640000"
      },
      "nonce": 2,
      "data": "0x",
      "r": "0xa417bbf32a8c2eb71746b9c9d2d377761db8d0cee8b574db32ea2a7561535fa2",
      "s": "0x4f49c1a500fe8e930762c823f9b1d24a5f3a436b3000244ef9ab18ad1ca5714a",
      "v": 28,
      "creates": null,
      "raw": "0xf86c02850db7aaef5e8255f0947c1d0c9ad434e14754deea395231be017047e40c880de0b6b3a7640000801ca0a417bbf32a8c2eb71746b9c9d2d377761db8d0cee8b574db32ea2a7561535fa2a04f49c1a500fe8e930762c823f9b1d24a5f3a436b3000244ef9ab18ad1ca5714a",
      "networkId": 0,
      "chainId": 0
    },
    {
      "hash": "0x5714947af67ed95328135cc39d311bd2d73f2c47ade780a01e8098e43630bbe3",
      "blockHash": "0x8e78dfc7ba1a91920c3649f54894c1941908d3b22e22896c4f40fa266723d90d",
      "blockNumber": 47923,
      "transactionIndex": 1,
      "confirmations": null,
      "from": "0x378ea1dc8edc19BAe82638029eA8752ce98BcFCD",
      "gasPrice": {
        "_hex": "0xfef231e01b"
      },
      "gasLimit": {
        "_hex": "0x7918"
      },
      "to": "0x2910543Af39abA0Cd09dBb2D50200b3E800A63D2",
      "value": {
        "_hex": "0x56bc75e2d63100000"
      },
      "nonce": 3,
      "data": "0x454e3543484a4a3738",
      "r": "0x6e526c11a8cf6d57e53b7fe24dbb10a17ef0afdf960bf5998ca5e8f6bc7de9c9",
      "s": "0x24ff9702eda148fde0b4fcd2ff74468aa859937de819f6843af5ad20090a2b23",
      "v": 28,
      "creates": null,
      "raw": "0xf8760385fef231e01b827918942910543af39aba0cd09dbb2d50200b3e800a63d289056bc75e2d6310000089454e3543484a4a37381ca06e526c11a8cf6d57e53b7fe24dbb10a17ef0afdf960bf5998ca5e8f6bc7de9c9a024ff9702eda148fde0b4fcd2ff74468aa859937de819f6843af5ad20090a2b23",
      "networkId": 0,
      "chainId": 0
    },
    {
      "hash": "0x973dc71f3cab85b741567a38bcd4cfce0b6d64873dca7942eb460b2d98b80c01",
      "blockHash": "0x8e78dfc7ba1a91920c3649f54894c1941908d3b22e22896c4f40fa266723d90d",
      "blockNumber": 47923,
      "transactionIndex": 2,
      "confirmations": null,
      "from": "0xf06D9Ad3b665226845A219eDaD87696fcE2Fb88E",
      "gasPrice": {
        "_hex": "0x45d964b800"
      },
      "gasLimit": {
        "_hex": "0x5208"
      },
      "to": "0x0000000000000000000000000000000000000000",
      "value": {
        "_hex": "0xde0b6b3a7640000"
      },
      "nonce": 3,
      "data": "0x",
      "r": "0xc3abe7f6edc346f15780dbfcaa1ff852d0869cc28b18485e46448946f217abf5",
      "s": "0x541ad435f5a63778b463e575d31099688de4a3e93f7af6da3a52c0931441e704",
      "v": 27,
      "creates": null,
      "raw": "0xf86c038545d964b800825208940000000000000000000000000000000000000000880de0b6b3a7640000801ba0c3abe7f6edc346f15780dbfcaa1ff852d0869cc28b18485e46448946f217abf5a0541ad435f5a63778b463e575d31099688de4a3e93f7af6da3a52c0931441e704",
      "networkId": 0,
      "chainId": 0
    }
  ]
}