{
  "hash": "0xe44cd212341b5df87dbca373e060b22f56ff32a6765c79e20e1f953c3a87b939",
  "parentHash": "0x178e059613758f03c80c4f9fc33812953f023cfa8c507655ea4a01d25d31f241",
  "number": 112235,
  "timestamp": 1440004192,
  "nonce": "0x865fe6a845ebda09",
  "difficulty": 4378924596919,
  "gasLimit": {
    "_hex": "0x2fefd8"
  },
  "gasUsed": {
    "_hex": "0x5208"
  },
  "miner": "0xe6A7a1d47ff21B6321162AEA7C6CB457D5476Bca",
  "extraData": "0x476574682f76312e302e312d38326566323666362f6c696e75782f676f312e34",
  "transactions": [
    {
      "hash": "0x4f9157e8dfde50181223187319bd90d96ea8598eef319554fdee66e09430a376",
      "blockHash": "0xe44cd212341b5df87dbca373e060b22f56ff32a6765c79e20e1f953c3a87b939",
      "blockNumber": 112235,
      "transactionIndex": 0,
      "confirmations": null,
      "from": "0xAF654b2845616930f74573a909B477E23752DcA4",
      "gasPrice": {
        "_hex": "0x746a528800"
      },
      "gasLimit": {
        "_hex": "0x5208"
      },
      "to": "0xE3a44b84A68C84F674E1e8c17445742DE48D9501",
      "value": {
        "_hex": "0x29a2241af62c0000"
      },
      "nonce": 17,
      "data": "0x",
      "r": "0xabbd33e31681902150998cd0fd3f27e1658fce07f467685e15f6fe54164a03ad",
      "s": "0x4ea7baced3b951ef3c1fa1f2d7b850275f5e89b99eb59cddb4c63c1103b0bb5a",
      "v": 28,
      "creates": null,
      "raw": "0xf86c1185746a52880082520894e3a44b84a68c84f674e1e8c17445742de48d95018829a2241af62c0000801ca0abbd33e31681902150998cd0fd3f27e1658fce07f467685e15f6fe54164a03ada04ea7baced3b951ef3c1fa1f2d7b850275f5e89b99eb59cddb4c63c1103b0bb5a",
      "networkId": 0,
      "chainId": 0
    }
  ]
}