{
  "hash": "0x77bef3868fecdb6ad5a76bb76c0bbc776b1c70a0e67c9c439c607e6aebafaf86",
  "parentHash": "0x1505a3340bfc41b45618182800410971cadd3229040dd72e7e96648cbbc60f1d",
  "number": 81241,
  "timestamp": 1439498393,
  "nonce": "0x680f83a9526b0e81",
  "difficulty": 2455834557677,
  "gasLimit": {
    "_hex": "0x2fefd8"
  },
  "gasUsed": {
    "_hex": "0xa410"
  },
  "miner": "0x6DE55b563cE6E319cCB403032Da3BE5Ad4ec4FcF",
  "extraData": "0x",
  "transactions": [
    {
      "hash": "0xcdaf3c84dc75f524985709b5b4df662c245f0287826bca0d1d104e4631ff7680",
      "blockHash": "0x77bef3868fecdb6ad5a76bb76c0bbc776b1c70a0e67c9c439c607e6aebafaf86",
      "blockNumber": 81241,
      "transactionIndex": 0,
      "confirmations": null,
      "from": "0xc2E9e042B88164B5408bd895Df7DdaD491c6321E",
      "gasPrice": {
        "_hex": "0xd6ac60025"
      },
      "gasLimit": {
        "_hex": "0x15f90"
      },
      "to": "0xa114c802ef29776f05f9c6925cE915232e8ae102",
      "value": {
        "_hex": "0x1158e460913d00000"
      },
      "nonce": 13,
      "data": "0x",
      "r": "0x153ee0054fe9e7d46e045d9481764ce330afe6432baf02a6bd3290ea57938b2e",
      "s": "0x67e2b2d731ef3c1efb3107b280b4394ef42cf09f16582e6b1380309e99bad16d",
      "v": 27,
      "creates": null,
      "raw": "0xf86e0d850d6ac6002583015f9094a114c802ef29776f05f9c6925ce915232e8ae1028901158e460913d00000801ba0153ee0054fe9e7d46e045d9481764ce330afe6432baf02a6bd3290ea57938b2ea067e2b2d731ef3c1efb3107b280b4394ef42cf09f16582e6b1380309e99bad16d",
      "networkId": 0,
      "chainId": 0
    },
    {
      "hash": "0x75e208b3024f54296c619bb2ec83070b6b54f0fc07a0ce4bd8e37158ba10c9f4",
      "blockHash": "0x77bef3868fecdb6ad5a76bb76c0bbc776b1c70a0e67c9c439c607e6aebafaf86",
      "blockNumber": 81241,
      "transactionIndex": 1,
      "confirmations": null,
      "from": "0x2910543Af39abA0Cd09dBb2D50200b3E800A63D2",
      "gasPrice": {
        "_hex": "0xd1329e0c2"
      },
      "gasLimit": {
        "_hex": "0x5208"
      },
      "to": "0xDE72E29D65eAabbD236b21c1d59a486c19AbDad5",
      "value": {
        "_hex": "0x38eb9b996358478000"
      },
      "nonce": 454,
      "data": "0x",
      "r": "0x6d80d1827ad3caf3b098858e77b12b52a953b8dd8779a736a208732f0a0672f8",
      "s": "0x162cd09e08b928e33df2c24c5a2d4981e6ce8f1c8f577360fc38d7cd733c67ca",
      "v": 27,
      "creates": null,
      "raw": "0xf86f8201c6850d1329e0c282520894de72e29d65eaabbd236b21c1d59a486c19abdad58938eb9b996358478000801ba06d80d1827ad3caf3b098858e77b12b52a953b8dd8779a736a208732f0a0672f8a0162cd09e08b928e33df2c24c5a2d4981e6ce8f1c8f577360fc38d7cd733c67ca",
      "networkId": 0,
      "chainId": 0
    }
  ]
}