{
  "hash": "0x713e2a55b093b93af03ca2f550dfb16971bce345528172ca58acf380ddf59a55",
  "parentHash": "0xe5955d7f012abe2f1c162b9f54f86fa5e0cd84a07a8132ab7fafbd86296eb7d1",
  "number": 64594,
  "timestamp": 1439223180,
  "nonce": "0x1ee6c97b16593dc3",
  "difficulty": 1895003401297,
  "gasLimit": {
    "_hex": "0x2fefd8"
  },
  "gasUsed": {
    "_hex": "0xa410"
  },
  "miner": "0x33b01a7fe4A1a5F774Bb73f89A4eF15a6Ffe1141",
  "extraData": "0x476574682f76312e302e312f6c696e75782f676f312e342e32",
  "transactions": [
    {
      "hash": "0xb5c8977a5cbd953732778d6b5ba802f5ef5c7aae6d3a19f8a37d6e12fb82cac9",
      "blockHash": "0x713e2a55b093b93af03ca2f550dfb16971bce345528172ca58acf380ddf59a55",
      "blockNumber": 64594,
      "transactionIndex": 0,
      "confirmations": null,
      "from": "0x57158f5B5B35cDDC7Ac8FAB8E10C136FF7de587e",
      "gasPrice": {
        "_hex": "0xcb39bfd80"
      },
      "gasLimit": {
        "_hex": "0x15f90"
      },
      "to": "0xE9b9F4aC8114911e13f659915F9A10661F6B5CB1",
      "value": {
        "_hex": "0x6f05b59d3b20000"
      },
      "nonce": 1,
      "data": "0x",
      "r": "0xed30557179c03de3c165c579ac94d7d0f76414524a834d9cdf56624d33214e7e",
      "s": "0x7774926cba15d04a39ddf9afa1d6a6ff4d699bfa3f3ff2f83040ddd6cf18ddbd",
      "v": 28,
      "creates": null,
      "raw": "0xf86d01850cb39bfd8083015f9094e9b9f4ac8114911e13f659915f9a10661f6b5cb18806f05b59d3b20000801ca0ed30557179c03de3c165c579ac94d7d0f76414524a834d9cdf56624d33214e7ea07774926cba15d04a39ddf9afa1d6a6ff4d699bfa3f3ff2f83040ddd6cf18ddbd",
      "networkId": 0,
      "chainId": 0
    },
    {
      "hash": "0x7a6ea3955dd8e0b2713733a9c749b87118c1087e060919a594bfcc170e7e0854",
      "blockHash": "0x713e2a55b093b93af03ca2f550dfb16971bce345528172ca58acf380ddf59a55",
      "blockNumber": 64594,
      "transactionIndex": 1,
      "confirmations": null,
      "from": "0x6747f922385c9a6F9cfDf095F34345257DD597bE",
      "gasPrice": {
        "_hex": "0xba43b7400"
      },
      "gasLimit": {
        "_hex": "0x5208"
      },
      "to": "0x11f41ebA32c990837cb34E7B5f2C5C1b21D296F5",
      "value": {
        "_hex": "0x1fcbfa42bd6000"
      },
      "nonce": 10,
      "data": "0x",
      "r": "0xa128c9c94e7b453cf5a83609e0aa1ab28ab2f3e03070bb2441b5c010b7a7cf32",
      "s": "0x4f766215b2bfd012b3d4b4bc2294507aad8fe9933af8c23210c9ed2776729a4e",
      "v": 27,
      "creates": null,
      "raw": "0xf86b0a850ba43b74008252089411f41eba32c990837cb34e7b5f2c5c1b21d296f5871fcbfa42bd6000801ba0a128c9c94e7b453cf5a83609e0aa1ab28ab2f3e03070bb2441b5c010b7a7cf32a04f766215b2bfd012b3d4b4bc2294507aad8fe9933af8c23210c9ed2776729a4e",
      "networkId": 0,
      "chainId": 0
    }
  ]
}