{
  "hash": "0x2c3323e49e092bdf5fcb2fd46eeccbe61aecff74e24098a8c3ad02e457410dee",
  "parentHash": "0xcc21dbf02bb668d072827d22de34ced16d6b850519b340b26202eb3c8629ecf4",
  "number": 68975,
  "timestamp": 1439296595,
  "nonce": "0x4a2538edc6af025e",
  "difficulty": 2030988462175,
  "gasLimit": {
    "_hex": "0x2fefd8"
  },
  "gasUsed": {
    "_hex": "0x61698"
  },
  "miner": "0x39A1BB80a741bF5EC39FB9BE59408Fa0F418fFBf",
  "extraData": "0x476574682f76312e302e312f77696e646f77732f676f312e342e32",
  "transactions": [
    {
      "hash": "0x9bd98f95bf05d57b87985fd3b9341fe0cd004f32b8ccaa2cb37e30fa1a9cdf9b",
      "blockHash": "0x2c3323e49e092bdf5fcb2fd46eeccbe61aecff74e24098a8c3ad02e457410dee",
      "blockNumber": 68975,
      "transactionIndex": 0,
      "confirmations": null,
      "from": "0xD20a98E6Eb1b2B59D236BB9d251DB10C8E393Bb1",
      "gasPrice": {
        "_hex": "0xba43b7400"
      },
      "gasLimit": {
        "_hex": "0x5208"
      },
      "to": "0x5eC11323AAd8ff77ad0B217675dD9ce22d5cD6C7",
      "value": {
        "_hex": "0x11e4ee79bf23000"
      },
      "nonce": 1,
      "data": "0x",
      "r": "0x27fdfbed6bb74551faeb7c87449d796d7378743a6a8a07861786625dad4b5963",
      "s": "0x19945f7d42762f62418d38032d29c1614ddce732fa8064417ad5730aa38a1757",
      "v": 28,
      "creates": null,
      "raw": "0xf86c01850ba43b7400825208945ec11323aad8ff77ad0b217675dd9ce22d5cd6c788011e4ee79bf23000801ca027fdfbed6bb74551faeb7c87449d796d7378743a6a8a07861786625dad4b5963a019945f7d42762f62418d38032d29c1614ddce732fa8064417ad5730aa38a1757",
      "networkId": 0,
      "chainId": 0
    },
    {
      "hash": "0xd7a450ece7542634cc73627200fa03f39602d030f4fe6965e1054b1bcf12634f",
      "blockHash": "0x2c3323e49e092bdf5fcb2fd46eeccbe61aecff74e24098a8c3ad02e457410dee",
      "blockNumber": 68975,
      "transactionIndex": 1,
      "confirmations": null,
      "from": "0xd0B2A5dEA8Ef2c7A8E0E5c3AbAed322E2E3d2958",
      "gasPrice": {
        "_hex": "0xba43b7400"
      },
      "gasLimit": {
        "_hex": "0x5208"
      },
      "to": "0x6838c651d12C4f480EE8265D301c5a0e28Dc094E",
      "value": {
        "_hex": "0x11e4ee79bf23000"
      },
      "nonce": 1,
      "data": "0x",
      "r": "0xeee56bf8d8096ed6424daf1fb70f889b92cae3e32c17b72861493754fbe25425",
      "s": "0x38e98d8708128bb30f89e96f3d059eaef76f564ab65d28739b1bf4db7796b52f",
      "v": 27,
      "creates": null,
      "raw": "0xf86c01850ba43b7400825208946838c651d12c4f480ee8265d301c5a0e28dc094e88011e4ee79bf23000801ba0eee56bf8d8096ed6424daf1fb70f889b92cae3e32c17b72861493754fbe25425a038e98d8708128bb30f89e96f3d059eaef76f564ab65d28739b1bf4db7796b52f",
      "networkId": 0,
      "chainId": 0
    },
    {
      "hash": "0x49d998bd3ae4bf1beff68556397d3e62a9a0035c4ccff02e2333646fd0579550",
      "blockHash": "0x2c3323e49e092bdf5fcb2fd46eeccbe61aecff74e24098a8c3ad02e457410dee",
      "blockNumber": 68975,
      "transactionIndex": 2,
      "confirmations": null,
      "from": "0xaD2413b4E79D9c17fdA506602fFC7ea38510ab55",
      "gasPrice": {
        "_hex": "0xba43b7400"
      },
      "gasLimit": {
        "_hex": "0x5208"
      },
      "to": "0x35135686EdeEEff7fcFa274625b5A0d192389BF5",
      "value": {
        "_hex": "0x11e4ee79bf23000"
      },
      "nonce": 1,
      "data": "0x",
      "r": "0xac13f38ee29fb1dc585348a676a799a346bf5c8b75479a68f804def6dc1fa691",
      "s": "0x69d5c95547404e478d8b8aeba6be3b56d3aee7dd91b243628fea30f3d2e7bcda",
      "v": 28,
      "creates": null,
      "raw": "0xf86c01850ba43b74008252089435135686edeeeff7fcfa274625b5a0d192389bf588011e4ee79bf23000801ca0ac13f38ee29fb1dc585348a676a799a346bf5c8b75479a68f804def6dc1fa691a069d5c95547404e478d8b8aeba6be3b56d3aee7dd91b243628fea30f3d2e7bcda",
      "networkId": 0,
      "chainId": 0
    },
    {
      "hash": "0x364551b110986b6de38160a9f89857e002d0f737e5de3120fce8d1a8aa6ff04f",
      "blockHash": "0x2c3323e49e092bdf5fcb2fd46eeccbe61aecff74e24098a8c3ad02e457410dee",
      "blockNumber": 68975,
      "transactionIndex": 3,
      "confirmations": null,
      "from": "0x6Da99D6160C17494af9443fe437a94759a1fcd9D",
      "gasPrice": {
        "_hex": "0xba43b7400"
      },
      "gasLimit": {
        "_hex": "0x5208"
      },
      "to": "0x0b05926d0C7bb126d9e887225F540966Bc3Ad15e",
      "value": {
        "_hex": "0x11e4ee79bf23000"
      },
      "nonce": 1,
      "data": "0x",
      "r": "0xb00b7cfe5676d72220ea82bf9950177ad6e2911a20cb88de7dc6e9724964d5c7",
      "s": "0x055c34951af3a00ebd72c5cd7a19fbfab02bedc5761e6cea482475c9fe36de3b",
      "v": 28,
      "creates": null,
      "raw": "0xf86c01850ba43b7400825208940b05926d0c7bb126d9e887225f540966bc3ad15e88011e4ee79bf23000801ca0b00b7cfe5676d72220ea82bf9950177ad6e2911a20cb88de7dc6e9724964d5c7a0055c34951af3a00ebd72c5cd7a19fbfab02bedc5761e6cea482475c9fe36de3b",
      "networkId": 0,
      "chainId": 0
    },
    {
      "hash": "0x0fe32b8786855a729c6def23d1ab024bf2a51e33ce5f5221ba014de5bf7c35e9",
      "blockHash": "0x2c3323e49e092bdf5fcb2fd46eeccbe61aecff74e24098a8c3ad02e457410dee",
      "blockNumber": 68975,
      "transactionIndex": 4,
      "confirmations": null,
      "from": "0xf30934107CEa241eD53C99fE1182bC6d91DF2998",
      "gasPrice": {
        "_hex": "0xba43b7400"
      },
      "gasLimit": {
        "_hex": "0x5208"
      },
      "to": "0x08bb20cC013f31D2de9dD4AF72e0F38433587b48",
      "value": {
        "_hex": "0x11e4ee79bf23000"
      },
      "nonce": 1,
      "data": "0x",
      "r": "0x08cf6c09bdc1d3268989091424cb38b25db2ad1f34e330dda65db47633068438",
      "s": "0x5d8b5bf6a89a7b40df17a3023ae5c73ad859b93df063c3f9679adeb7065d5e7c",
      "v": 27,
      "creates": null,
      "raw": "0xf86c01850ba43b74008252089408bb20cc013f31d2de9dd4af72e0f38433587b4888011e4ee79bf23000801ba008cf6c09bdc1d3268989091424cb38b25db2ad1f34e330dda65db47633068438a05d8b5bf6a89a7b40df17a3023ae5c73ad859b93df063c3f9679adeb7065d5e7c",
      "networkId": 0,
      "chainId": 0
    },
    {
      "hash": "0x9a0937bedbc4107aafc6d8dfc4626ef5c505c1fe04cd0bb861f04f20ceeb09c5",
      "blockHash": "0x2c3323e49e092bdf5fcb2fd46eeccbe61aecff74e24098a8c3ad02e457410dee",
      "blockNumber": 68975,
      "transactionIndex": 5,
      "confirmations": null,
      "from": "0x0F8f418Fe322dC50bA2B05Bab96Bddf6fB50C87D",
      "gasPrice": {
        "_hex": "0xba43b7400"
      },
      "gasLimit": {
        "_hex": "0x5208"
      },
      "to": "0x87fF35159949ce8F983Ad1730724F174f763a60C",
      "value": {
        "_hex": "0x11e4ee79bf23000"
      },
      "nonce": 1,
      "data": "0x",
      "r": "0xdc07adbe6807de1ae24f840479f96ee70164689a6471acc5f9255875d29ecec2",
      "s": "0x6e810350685cf5287f67464624f5088c3f5422c06f56bbeb0bd48b165253b705",
      "v": 28,
      "creates": null,
      "raw": "0xf86c01850ba43b74008252089487ff35159949ce8f983ad1730724f174f763a60c88011e4ee79bf23000801ca0dc07adbe6807de1ae24f840479f96ee70164689a6471acc5f9255875d29ecec2a06e810350685cf5287f67464624f5088c3f5422c06f56bbeb0bd48b165253b705",
      "networkId": 0,
      "chainId": 0
    },
    {
      "hash": "0x14f356e61e9b0985e973a57265a5b6077cb7210dc2723d637ad2c1d206b9df39",
      "blockHash": "0x2c3323e49e092bdf5fcb2fd46eeccbe61aecff74e24098a8c3ad02e457410dee",
      "blockNumber": 68975,
      "transactionIndex": 6,
      "confirmations": null,
      "from": "0x965b455e9a6742c635f556D7d51451B19957161E",
      "gasPrice": {
        "_hex": "0xba43b7400"
      },
      "gasLimit": {
        "_hex": "0x5208"
      },
      "to": "0x4631231db5eE40CbFDA9C53cdC004De42078C60F",
      "value": {
        "_hex": "0x11e4ee79bf23000"
      },
      "nonce": 1,
      "data": "0x",
      "r": "0x8da3490f57775894d14ae47ab9da6a595eede3a1d08f2d15b63a052422240a65",
      "s": "0x14243d06d6eb19f4a4392aaf89e817e6d276201583ecdbe8642751a73755b1d8",
      "v": 27,
      "creates": null,
      "raw": "0xf86c01850ba43b7400825208944631231db5ee40cbfda9c53cdc004de42078c60f88011e4ee79bf23000801ba08da3490f57775894d14ae47ab9da6a595eede3a1d08f2d15b63a052422240a65a014243d06d6eb19f4a4392aaf89e817e6d276201583ecdbe8642751a73755b1d8",
      "networkId": 0,
      "chainId": 0
    },
    {
      "hash": "0x851508e980b4b64344495ef12d147bd36609565b6e297e8a20eac135ff379cb3",
      "blockHash": "0x2c3323e49e092bdf5fcb2fd46eeccbe61aecff74e24098a8c3ad02e457410dee",
      "blockNumber": 68975,
      "transactionIndex": 7,
      "confirmations": null,
      "from": "0x514782Ea38CFF616083231A028D932C218eB354c",
      "gasPrice": {
        "_hex": "0xba43b7400"
      },
      "gasLimit": {
        "_hex": "0x5208"
      },
      "to": "0xb3E51e00C9E5BB0C020D2d0Ef7e56699BF4d9D67",
      "value": {
        "_hex": "0x11e4ee79bf23000"
      },
      "nonce": 1,
      "data": "0x",
      "r": "0xda1dda8c880bc8a62d4efeff75dd334b1f60736c064ae1ad53c542b7aba87c7f",
      "s": "0x1212ebad8d5e4a8d9db2374d7437b1cc225f6a6d8bd037fbab81b3803c4ab8a9",
      "v": 27,
      "creates": null,
      "raw": "0xf86c01850ba43b740082520894b3e51e00c9e5bb0c020d2d0ef7e56699bf4d9d6788011e4ee79bf23000801ba0da1dda8c880bc8a62d4efeff75dd334b1f60736c064ae1ad53c542b7aba87c7fa01212ebad8d5e4a8d9db2374d7437b1cc225f6a6d8bd037fbab81b3803c4ab8a9",
      "networkId": 0,
      "chainId": 0
    },
    {
      "hash": "0x8408e3c091a85f79860f515eaca8ad9b3d5d2c1f2a0f1db6dd4aea09605ab4a8",
      "blockHash": "0x2c3323e49e092bdf5fcb2fd46eeccbe61aecff74e24098a8c3ad02e457410dee",
      "blockNumber": 68975,
      "transactionIndex": 8,
      "confirmations": null,
      "from": "0xBFa1B37b785817f9a5b55106931F4343b10D982B",
      "gasPrice": {
        "_hex": "0xba43b7400"
      },
      "gasLimit": {
        "_hex": "0x5208"
      },
      "to": "0x89e99e52cdb7f1270C9079b4eAa7CA7851aa1917",
      "value": {
        "_hex": "0x11e4ee79bf23000"
      },
      "nonce": 1,
      "data": "0x",
      "r": "0xf04f9683893d50f96a2ccb134bf9b92fe092c330bf4d72fc9e215b2867109abd",
      "s": "0x16c5e5bc1ab8c100a70f0c19b0950a106706c2c82e5c5c524cb61854fe0b8ae4",
      "v": 28,
      "creates": null,
      "raw": "0xf86c01850ba43b74008252089489e99e52cdb7f1270c9079b4eaa7ca7851aa191788011e4ee79bf23000801ca0f04f9683893d50f96a2ccb134bf9b92fe092c330bf4d72fc9e215b2867109abda016c5e5bc1ab8c100a70f0c19b0950a106706c2c82e5c5c524cb61854fe0b8ae4",
      "networkId": 0,
      "chainId": 0
    },
    {
      "hash": "0xeda642ad6c5834d6020f934b22a528873b42e0767fd4a9f14477c09e273e30b8",
      "blockHash": "0x2c3323e49e092bdf5fcb2fd46eeccbe61aecff74e24098a8c3ad02e457410dee",
      "blockNumber": 68975,
      "transactionIndex": 9,
      "confirmations": null,
      "from": "0xD603CD1773DC30D7553eeE3D760F388EE755FB8A",
      "gasPrice": {
        "_hex": "0xba43b7400"
      },
      "gasLimit": {
        "_hex": "0x5208"
      },
      "to": "0xe77E4Cd54ac52c54ac0044110A74E5e6F0f5D866",
      "value": {
        "_hex": "0x11e4ee79bf23000"
      },
      "nonce": 1,
      "data": "0x",
      "r": "0x2c9646021aa9b57a61d850b40094dad05de46c8588b1c221fcf9d2bf7f598bd1",
      "s": "0x398a1d5c70e57e0efaa7bc356fa5982aff5b1385fd8423bbca1c41a59f5c39c4",
      "v": 27,
      "creates": null,
      "raw": "0xf86c01850ba43b740082520894e77e4cd54ac52c54ac0044110a74e5e6f0f5d86688011e4ee79bf23000801ba02c9646021aa9b57a61d850b40094dad05de46c8588b1c221fcf9d2bf7f598bd1a0398a1d5c70e57e0efaa7bc356fa5982aff5b1385fd8423bbca1c41a59f5c39c4",
      "networkId": 0,
      "chainId": 0
    },
    {
      "hash": "0x28a89dbae5c537f0f05ea8293abdcba381380a62951207ea547d930d8fd61705",
      "blockHash": "0x2c3323e49e092bdf5fcb2fd46eeccbe61aecff74e24098a8c3ad02e457410dee",
      "blockNumber": 68975,
      "transactionIndex": 10,
      "confirmations": null,
      "from": "0x64E42823adC302ed9E2223D8B9F0048dA63BD351",
      "gasPrice": {
        "_hex": "0xba43b7400"
      },
      "gasLimit": {
        "_hex": "0x5208"
      },
      "to": "0x2A944303d88Dd540AF3D420930321a12da1768cD",
      "value": {
        "_hex": "0x11e4ee79bf23000"
      },
      "nonce": 1,
      "data": "0x",
      "r": "0x28f7eff8bf6033934c6b977b9f8c94aef3c1432844582ea64aed7078713f94b2",
      "s": "0x7ee8c7b23b7163e8b07a4780a766db47991fe085d6bc04dd005f29508fb7f6b1",
      "v": 28,
      "creates": null,
      "raw": "0xf86c01850ba43b7400825208942a944303d88dd540af3d420930321a12da1768cd88011e4ee79bf23000801ca028f7eff8bf6033934c6b977b9f8c94aef3c1432844582ea64aed7078713f94b2a07ee8c7b23b7163e8b07a4780a766db47991fe085d6bc04dd005f29508fb7f6b1",
      "networkId": 0,
      "chainId": 0
    },
    {
      "hash": "0x4aeb280f547ce8931436c70a23d110cf4217a0673ed584a9315e8d5902c5ae62",
      "blockHash": "0x2c3323e49e092bdf5fcb2fd46eeccbe61aecff74e24098a8c3ad02e457410dee",
      "blockNumber": 68975,
      "transactionIndex": 11,
      "confirmations": null,
      "from": "0x0F6DA8d2472738987d61f6Af63dA8089675bfC3f",
      "gasPrice": {
        "_hex": "0xba43b7400"
      },
      "gasLimit": {
        "_hex": "0x5208"
      },
      "to": "0x2FE7011213574dDFF4EecCDdBF6154815b34D475",
      "value": {
        "_hex": "0x11e4ee79bf23000"
      },
      "nonce": 1,
      "data": "0x",
      "r": "0xc81775c0158d59f35979e9c67bd4a572c3ab22b99ba0c901221df9d665202795",
      "s": "0x4c1caa0f230a2be4521422dc3f28a5d4998653d71e1d1bfa4d56816f826bc8d3",
      "v": 27,
      "creates": null,
      "raw": "0xf86c01850ba43b7400825208942fe7011213574ddff4eeccddbf6154815b34d47588011e4ee79bf23000801ba0c81775c0158d59f35979e9c67bd4a572c3ab22b99ba0c901221df9d665202795a04c1caa0f230a2be4521422dc3f28a5d4998653d71e1d1bfa4d56816f826bc8d3",
      "networkId": 0,
      "chainId": 0
    },
    {
      "hash": "0xb409f4e8bdbd3ecdb2f88792c92dceabc7bc7f8996f2c48fe38f4d0e3eb9197a",
      "blockHash": "0x2c3323e49e092bdf5fcb2fd46eeccbe61aecff74e24098a8c3ad02e457410dee",
      "blockNumber": 68975,
      "transactionIndex": 12,
      "confirmations": null,
      "from": "0xc31E518A72a799F7a1203642060ba94FBc0d731f",
      "gasPrice": {
        "_hex": "0xba43b7400"
      },
      "gasLimit": {
        "_hex": "0x5208"
      },
      "to": "0x945b8bB577b63D6E90Db177435dF44E695d447a4",
      "value": {
        "_hex": "0x11e4ee79bf23000"
      },
      "nonce": 1,
      "data": "0x",
      "r": "0x2aa5e85aff19f5b0cca3d667388041e97853f3f963d7e5dd37f0eeb66212d05b",
      "s": "0x78d920009da668a7391b6be7959fd590adcc5e62b636af5bc1691230f0d9b173",
      "v": 27,
      "creates": null,
      "raw": "0xf86c01850ba43b740082520894945b8bb577b63d6e90db177435df44e695d447a488011e4ee79bf23000801ba02aa5e85aff19f5b0cca3d667388041e97853f3f963d7e5dd37f0eeb66212d05ba078d920009da668a7391b6be7959fd590adcc5e62b636af5bc1691230f0d9b173",
      "networkId": 0,
      "chainId": 0
    },
    {
      "hash": "0x0726b9f0dcbe5e0a82c72a6eaae1db804fa78b5a49cf183443aa9fe7afd1776c",
      "blockHash": "0x2c3323e49e092bdf5fcb2fd46eeccbe61aecff74e24098a8c3ad02e457410dee",
      "blockNumber": 68975,
      "transactionIndex": 13,
      "confirmations": null,
      "from": "0x2a06b1ef853457d418458531A737B305A6B1fCba",
      "gasPrice": {
        "_hex": "0xba43b7400"
      },
      "gasLimit": {
        "_hex": "0x5208"
      },
      "to": "0x12ac39dD0296A50E0A1CdFcCe5EE39044c7A4c09",
      "value": {
        "_hex": "0x11e4ee79bf23000"
      },
      "nonce": 1,
      "data": "0x",
      "r": "0x907dadca87df0738e95f1419e7b3051a1334a1e3aab1342e50794af82604c0f9",
      "s": "0x300de07f3500f785d0664d7042e32c4e0844f737274f0fa6fa82a46f34bdb483",
      "v": 27,
      "creates": null,
      "raw": "0xf86c01850ba43b74008252089412ac39dd0296a50e0a1cdfcce5ee39044c7a4c0988011e4ee79bf23000801ba0907dadca87df0738e95f1419e7b3051a1334a1e3aab1342e50794af82604c0f9a0300de07f3500f785d0664d7042e32c4e0844f737274f0fa6fa82a46f34bdb483",
      "networkId": 0,
      "chainId": 0
    },
    {
      "hash": "0x38a4979269c8c44dc1f6d26c4bc83ea592b1f7dbdfeb1e87456036a714f77fc5",
      "blockHash": "0x2c3323e49e092bdf5fcb2fd46eeccbe61aecff74e24098a8c3ad02e457410dee",
      "blockNumber": 68975,
      "transactionIndex": 14,
      "confirmations": null,
      "from": "0x3c21934B37417710A206cB355267994E4C68C867",
      "gasPrice": {
        "_hex": "0xba43b7400"
      },
      "gasLimit": {
        "_hex": "0x5208"
      },
      "to": "0xc7065529F5241E275691A8B2668Ce69Ed85e81C6",
      "value": {
        "_hex": "0x11e4ee79bf23000"
      },
      "nonce": 1,
      "data": "0x",
      "r": "0x22f519825c3311eb57442aeb736e8a8ac77e71397333ee5c6042a11f327c9d4d",
      "s": "0x0dc1e79db2c7d93996da0c258589e94a5f1f3eb8670531589bcdaa334bac2d45",
      "v": 27,
      "creates": null,
      "raw": "0xf86c01850ba43b740082520894c7065529f5241e275691a8b2668ce69ed85e81c688011e4ee79bf23000801ba022f519825c3311eb57442aeb736e8a8ac77e71397333ee5c6042a11f327c9d4da00dc1e79db2c7d93996da0c258589e94a5f1f3eb8670531589bcdaa334bac2d45",
      "networkId": 0,
      "chainId": 0
    },
    {
      "hash": "0x4060b8323081b253c5471beb0847154cf35e7fce327b262d68b883cfce0d9ce3",
      "blockHash": "0x2c3323e49e092bdf5fcb2fd46eeccbe61aecff74e24098a8c3ad02e457410dee",
      "blockNumber": 68975,
      "transactionIndex": 15,
      "confirmations": null,
      "from": "0x916FB333E17530E2CA4EEE8816703D2024Ec48aC",
      "gasPrice": {
        "_hex": "0xba43b7400"
      },
      "gasLimit": {
        "_hex": "0x5208"
      },
      "to": "0xD71833f71aD55C22F56B57E018c34F1001737d71",
      "value": {
        "_hex": "0x11e4ee79bf23000"
      },
      "nonce": 1,
      "data": "0x",
      "r": "0x98fe6c2d122742cbd09e5f34484f34a8913dd78fe2c32da2be0db405d6ba4a23",
      "s": "0x2b97c73c9c1066ccd4d55e497781417d8e8162b0dcfaac3ce81386aa18837cbb",
      "v": 28,
      "creates": null,
      "raw": "0xf86c01850ba43b740082520894d71833f71ad55c22f56b57e018c34f1001737d7188011e4ee79bf23000801ca098fe6c2d122742cbd09e5f34484f34a8913dd78fe2c32da2be0db405d6ba4a23a02b97c73c9c1066ccd4d55e497781417d8e8162b0dcfaac3ce81386aa18837cbb",
      "networkId": 0,
      "chainId": 0
    },
    {
      "hash": "0xbdea42be5b4bfa94e649f0f5c8424d3c29b960e5431b62d606c4f9d69fb4e2d8",
      "blockHash": "0x2c3323e49e092bdf5fcb2fd46eeccbe61aecff74e24098a8c3ad02e457410dee",
      "blockNumber": 68975,
      "transactionIndex": 16,
      "confirmations": null,
      "from": "0x78642b5feC6782eB4E476d205ab522d356d221AB",
      "gasPrice": {
        "_hex": "0xba43b7400"
      },
      "gasLimit": {
        "_hex": "0x5208"
      },
      "to": "0xADDC448f8813e079fAC7D443B95143DF05DEEa17",
      "value": {
        "_hex": "0x11e4ee79bf23000"
      },
      "nonce": 1,
      "data": "0x",
      "r": "0x74b94873496a44f9b5b79a5ebfcc31a15647ae70646219a22c37e997205c5bab",
      "s": "0x3c2156e762d746fd98d793b94f040091e6e9ea7e83d126a2e64ee23a596f193a",
      "v": 27,
      "creates": null,
      "raw": "0xf86c01850ba43b740082520894addc448f8813e079fac7d443b95143df05deea1788011e4ee79bf23000801ba074b94873496a44f9b5b79a5ebfcc31a15647ae70646219a22c37e997205c5baba03c2156e762d746fd98d793b94f040091e6e9ea7e83d126a2e64ee23a596f193a",
      "networkId": 0,
      "chainId": 0
    },
    {
      "hash": "0x6e1a28168a1c5f761ee915c3aee096290b4a313f130d48d47bfd42ba8980daed",
      "blockHash": "0x2c3323e49e092bdf5fcb2fd46eeccbe61aecff74e24098a8c3ad02e457410dee",
      "blockNumber": 68975,
      "transactionIndex": 17,
      "confirmations": null,
      "from": "0x9E23cFdb3216bCE5bec08C44105d095B042e68C3",
      "gasPrice": {
        "_hex": "0xba43b7400"
      },
      "gasLimit": {
        "_hex": "0x5208"
      },
      "to": "0x7b1265a639f62aB2e429ff09E5C0B61FE12258A9",
      "value": {
        "_hex": "0x11e4ee79bf23000"
      },
      "nonce": 1,
      "data": "0x",
      "r": "0x3b3fc83bdc29e43c2673506d59875d6724b8312767ef6d13ac6e8ac7457bb0c9",
      "s": "0x09a1efd275cc643763146a4fd8540bbd2841bdb7a1cbf139c368d28b9d6b8cfa",
      "v": 27,
      "creates": null,
      "raw": "0xf86c01850ba43b7400825208947b1265a639f62ab2e429ff09e5c0b61fe12258a988011e4ee79bf23000801ba03b3fc83bdc29e43c2673506d59875d6724b8312767ef6d13ac6e8ac7457bb0c9a009a1efd275cc643763146a4fd8540bbd2841bdb7a1cbf139c368d28b9d6b8cfa",
      "networkId": 0,
      "chainId": 0
    },
    {
      "hash": "0x6b5a43a60b8d1f43eb327a9d1eea1806dad36a8103e9267bc5fe1e2067d2fd5b",
      "blockHash": "0x2c3323e49e092bdf5fcb2fd46eeccbe61aecff74e24098a8c3ad02e457410dee",
      "blockNumber": 68975,
      "transactionIndex": 18,
      "confirmations": null,
      "from": "0x9ABe975A69E69c24010BFE44776fae940d087B48",
      "gasPrice": {
        "_hex": "0xba43b7400"
      },
      "gasLimit": {
        "_hex": "0x5208"
      },
      "to": "0xEE9b9C61e19B593Ee27b93d29fBE82E9EC0B0DF4",
      "value": {
        "_hex": "0x11e4ee79bf23000"
      },
      "nonce": 1,
      "data": "0x",
      "r": "0x451995bb70c1736b5946fa4bd0543b14fbe438c8bb33faa66901faaa34565bb1",
      "s": "0x1a701298c5c8c19aeb274808924ef9d071a65d44b69feade52fd5ce17f429dea",
      "v": 27,
      "creates": null,
      "raw": "0xf86c01850ba43b740082520894ee9b9c61e19b593ee27b93d29fbe82e9ec0b0df488011e4ee79bf23000801ba0451995bb70c1736b5946fa4bd0543b14fbe438c8bb33faa66901faaa34565bb1a01a701298c5c8c19aeb274808924ef9d071a65d44b69feade52fd5ce17f429dea",
      "networkId": 0,
      "chainId": 0
    }
  ]
}