{
  "hash": "0x825009dd20b65324743923a05c7f8aec2b4b481f43b4029ae6ee4ac8165e4bb4",
  "parentHash": "0xed5e745f70ccbfe5b73a77ffb4101e0a8535e5ca06224d255c2ee6a95ed34509",
  "number": 104451,
  "timestamp": 1439869881,
  "nonce": "0x18514dc080adcd46",
  "difficulty": 4361640642575,
  "gasLimit": {
    "_hex": "0x2fefd8"
  },
  "gasUsed": {
    "_hex": "0x5208"
  },
  "miner": "0xf8E0CA3Ed80bd541b94BEdCf259e8CF2141A9523",
  "extraData": "0x476574682f76312e302e312f77696e646f77732f676f312e342e32",
  "transactions": [
    {
      "hash": "0x970a602054cf33f81164f64b0bd8393a0ebacf46b9064e10d0aef66504194a31",
      "blockHash": "0x825009dd20b65324743923a05c7f8aec2b4b481f43b4029ae6ee4ac8165e4bb4",
      "blockNumber": 104451,
      "transactionIndex": 0,
      "confirmations": null,
      "from": "0x2910543Af39abA0Cd09dBb2D50200b3E800A63D2",
      "gasPrice": {
        "_hex": "0xd0d6b9200"
      },
      "gasLimit": {
        "_hex": "0x5208"
      },
      "to": "0x5a0f0935E8E5591B2f9f2d55f29C626B50292088",
      "value": {
        "_hex": "0x8ab55f8b52078000"
      },
      "nonce": 1015,
      "data": "0x",
      "r": "0x61aa51893e6b4bc7a0cb5ff3c25a4b7fdafd18e6f27bcb7a7bf26f73bc735fca",
      "s": "0x0a20f61f4ac786b0e89d8b00bc9dbc73c1138e9b2e5f9805e9cbe7c6a41f3e10",
      "v": 28,
      "creates": null,
      "raw": "0xf86e8203f7850d0d6b9200825208945a0f0935e8e5591b2f9f2d55f29c626b50292088888ab55f8b52078000801ca061aa51893e6b4bc7a0cb5ff3c25a4b7fdafd18e6f27bcb7a7bf26f73bc735fcaa00a20f61f4ac786b0e89d8b00bc9dbc73c1138e9b2e5f9805e9cbe7c6a41f3e10",
      "networkId": 0,
      "chainId": 0
    }
  ]
}