{
  "hash": "0x297bc970ea5c3b784fc9c39f573530a8d61f08cd67d5c91dd24802569766775e",
  "parentHash": "0x1a45dc0e5ad32d06391d747ee98d296c20d6ce0da5880b6559ed5f8eba216078",
  "number": 121895,
  "timestamp": 1440184540,
  "nonce": "0x4d12ea23b64446d4",
  "difficulty": 4473238065574,
  "gasLimit": {
    "_hex": "0x2fefd8"
  },
  "gasUsed": {
    "_hex": "0x33450"
  },
  "miner": "0xe6A7a1d47ff21B6321162AEA7C6CB457D5476Bca",
  "extraData": "0xd783010002844765746887676f312e342e32856c696e7578",
  "transactions": [
    {
      "hash": "0x47fd43116e5b3bd78c5a26cab4972a3cfb185a2509393205c113103ddae0a6f3",
      "blockHash": "0x297bc970ea5c3b784fc9c39f573530a8d61f08cd67d5c91dd24802569766775e",
      "blockNumber": 121895,
      "transactionIndex": 0,
      "confirmations": null,
      "from": "0x4369BF4867c99a39513Bb176d468A7e326F3a542",
      "gasPrice": {
        "_hex": "0xdd5e058b4"
      },
      "gasLimit": {
        "_hex": "0x5208"
      },
      "to": "0x32Be343B94f860124dC4fEe278FDCBD38C102D88",
      "value": {
        "_hex": "0x2977498b33aef800"
      },
      "nonce": 12,
      "data": "0x",
      "r": "0xe08c4a40f355881815561be1aaf9c0c9e4ea537f26f2ea527a20ff37a73d0b25",
      "s": "0x7cb4cc9a446933888d203b17c6705538f57d10d46994f92ec0ff98ce6c651b10",
      "v": 28,
      "creates": null,
      "raw": "0xf86c0c850dd5e058b48252089432be343b94f860124dc4fee278fdcbd38c102d88882977498b33aef800801ca0e08c4a40f355881815561be1aaf9c0c9e4ea537f26f2ea527a20ff37a73d0b25a07cb4cc9a446933888d203b17c6705538f57d10d46994f92ec0ff98ce6c651b10",
      "networkId": 0,
      "chainId": 0
    },
    {
      "hash": "0x7652c702b83a67442d65120cbc21a0ad1924f6450247ae500ac5162544597904",
      "blockHash": "0x297bc970ea5c3b784fc9c39f573530a8d61f08cd67d5c91dd24802569766775e",
      "blockNumber": 121895,
      "transactionIndex": 1,
      "confirmations": null,
      "from": "0xa69Dd2F55e5A3d4CB2B4b3eE2f613562b57a1D2F",
      "gasPrice": {
        "_hex": "0xdd5e058b4"
      },
      "gasLimit": {
        "_hex": "0x5208"
      },
      "to": "0x32Be343B94f860124dC4fEe278FDCBD38C102D88",
      "value": {
        "_hex": "0x19845b18cff09c00"
      },
      "nonce": 9,
      "data": "0x",
      "r": "0x1437755cabd66d3729ab24d72bdaa8c2971939e0e11c753bb46f5313f0d3ce46",
      "s": "0x137c31af55e9b5ffcf4a70c5ee434788938129a649f7561daa210eb6e607c0e6",
      "v": 27,
      "creates": null,
      "raw": "0xf86c09850dd5e058b48252089432be343b94f860124dc4fee278fdcbd38c102d888819845b18cff09c00801ba01437755cabd66d3729ab24d72bdaa8c2971939e0e11c753bb46f5313f0d3ce46a0137c31af55e9b5ffcf4a70c5ee434788938129a649f7561daa210eb6e607c0e6",
      "networkId": 0,
      "chainId": 0
    },
    {
      "hash": "0x82a3e770e2ce3784f21b63d34679d97923a83e0989b927aa277e64a7b1b109fb",
      "blockHash": "0x297bc970ea5c3b784fc9c39f573530a8d61f08cd67d5c91dd24802569766775e",
      "blockNumber": 121895,
      "transactionIndex": 2,
      "confirmations": null,
      "from": "0xCCe96724c29e042F35bCe1c2405feB0e8E30082b",
      "gasPrice": {
        "_hex": "0xdd5e058b4"
      },
      "gasLimit": {
        "_hex": "0x5208"
      },
      "to": "0x32Be343B94f860124dC4fEe278FDCBD38C102D88",
      "value": {
        "_hex": "0x7eb9ecb948826000"
      },
      "nonce": 12,
      "data": "0x",
      "r": "0x835f31bd5fd26d2d6e92ab260d526e79928694a0a861071357fecec39019231d",
      "s": "0x361f0fa66472877b1967e4181051c7f1da85023b2322e6d702120e2fa85f9cc0",
      "v": 27,
      "creates": null,
      "raw": "0xf86c0c850dd5e058b48252089432be343b94f860124dc4fee278fdcbd38c102d88887eb9ecb948826000801ba0835f31bd5fd26d2d6e92ab260d526e79928694a0a861071357fecec39019231da0361f0fa66472877b1967e4181051c7f1da85023b2322e6d702120e2fa85f9cc0",
      "networkId": 0,
      "chainId": 0
    },
    {
      "hash": "0x33137ff7b8b461726fe29695efd352dda0f9ad137b10d8df3a151a11eae1f32d",
      "blockHash": "0x297bc970ea5c3b784fc9c39f573530a8d61f08cd67d5c91dd24802569766775e",
      "blockNumber": 121895,
      "transactionIndex": 3,
      "confirmations": null,
      "from": "0xE7dAdedf7cEBAaBa85903823D254601B1D459C9B",
      "gasPrice": {
        "_hex": "0xdd5e058b4"
      },
      "gasLimit": {
        "_hex": "0x5208"
      },
      "to": "0x32Be343B94f860124dC4fEe278FDCBD38C102D88",
      "value": {
        "_hex": "0x268fb57c2a3b8000"
      },
      "nonce": 10,
      "data": "0x",
      "r": "0xc56d167a89d14bb468da4a2720f614ee3f902fbf4c1269e2bc6b61d24f3f6d5b",
      "s": "0x7305bb79e685873a4edbd6df73caa0507d3db72a6745832d0034e33118ac3136",
      "v": 27,
      "creates": null,
      "raw": "0xf86c0a850dd5e058b48252089432be343b94f860124dc4fee278fdcbd38c102d8888268fb57c2a3b8000801ba0c56d167a89d14bb468da4a2720f614ee3f902fbf4c1269e2bc6b61d24f3f6d5ba07305bb79e685873a4edbd6df73caa0507d3db72a6745832d0034e33118ac3136",
      "networkId": 0,
      "chainId": 0
    },
    {
      "hash": "0x86e6c06487564a525983f85faef71728b5ececcf6497cd5aa0e567d4ce461104",
      "blockHash": "0x297bc970ea5c3b784fc9c39f573530a8d61f08cd67d5c91dd24802569766775e",
      "blockNumber": 121895,
      "transactionIndex": 4,
      "confirmations": null,
      "from": "0x8263B7757b139904C7cD8511B3D0a6D1479848Ba",
      "gasPrice": {
        "_hex": "0xdd5e058b4"
      },
      "gasLimit": {
        "_hex": "0x5208"
      },
      "to": "0x32Be343B94f860124dC4fEe278FDCBD38C102D88",
      "value": {
        "_hex": "0x235a031325826000"
      },
      "nonce": 12,
      "data": "0x",
      "r": "0x6e0ee0b948dd94bb29ca0432c442aa2b4b2fb97f5b6998b3f503e9b0927848f4",
      "s": "0x50f22f6a2fede4c49924db72e53ca87b6b7510e571c84ded09138b5c06dd2737",
      "v": 27,
      "creates": null,
      "raw": "0xf86c0c850dd5e058b48252089432be343b94f860124dc4fee278fdcbd38c102d8888235a031325826000801ba06e0ee0b948dd94bb29ca0432c442aa2b4b2fb97f5b6998b3f503e9b0927848f4a050f22f6a2fede4c49924db72e53ca87b6b7510e571c84ded09138b5c06dd2737",
      "networkId": 0,
      "chainId": 0
    },
    {
      "hash": "0x69a8d2fb33a1ebbfebc5e42312534aadbe485eaf0af0a8a35c204c079e099a33",
      "blockHash": "0x297bc970ea5c3b784fc9c39f573530a8d61f08cd67d5c91dd24802569766775e",
      "blockNumber": 121895,
      "transactionIndex": 5,
      "confirmations": null,
      "from": "0x3b09EfC81d5e3F72737B4063883CEDdfBc79ae88",
      "gasPrice": {
        "_hex": "0xdd5e058b4"
      },
      "gasLimit": {
        "_hex": "0x5208"
      },
      "to": "0x32Be343B94f860124dC4fEe278FDCBD38C102D88",
      "value": {
        "_hex": "0x2681f4420f617400"
      },
      "nonce": 12,
      "data": "0x",
      "r": "0xf448b409cbfe760230052cb9e831292a50d9b4c78f8d1b7b75a5fff3ff5f07e7",
      "s": "0x2b411696d52130cae7601fcfaf7cb85c289d67b6dfcf407324cfcb4c1cba5429",
      "v": 28,
      "creates": null,
      "raw": "0xf86c0c850dd5e058b48252089432be343b94f860124dc4fee278fdcbd38c102d88882681f4420f617400801ca0f448b409cbfe760230052cb9e831292a50d9b4c78f8d1b7b75a5fff3ff5f07e7a02b411696d52130cae7601fcfaf7cb85c289d67b6dfcf407324cfcb4c1cba5429",
      "networkId": 0,
      "chainId": 0
    },
    {
      "hash": "0xc1f626f935f4003c02675186e47f9ed4f2fadc514bb793b91169c99aca1b1742",
      "blockHash": "0x297bc970ea5c3b784fc9c39f573530a8d61f08cd67d5c91dd24802569766775e",
      "blockNumber": 121895,
      "transactionIndex": 6,
      "confirmations": null,
      "from": "0xB0b3385a645Eb80B431224920043447Ab1303eA8",
      "gasPrice": {
        "_hex": "0xdd5e058b4"
      },
      "gasLimit": {
        "_hex": "0x5208"
      },
      "to": "0x32Be343B94f860124dC4fEe278FDCBD38C102D88",
      "value": {
        "_hex": "0x2e699f435eb74c00"
      },
      "nonce": 10,
      "data": "0x",
      "r": "0xb5ef4e0cd604b7734727886acd2b2e36f9b63060dbbb726f8031414bb658a94d",
      "s": "0x060a941361d239e6581b6a1ef1dfedfca6a0622795b055ec97ab824f3b3a3e4a",
      "v": 28,
      "creates": null,
      "raw": "0xf86c0a850dd5e058b48252089432be343b94f860124dc4fee278fdcbd38c102d88882e699f435eb74c00801ca0b5ef4e0cd604b7734727886acd2b2e36f9b63060dbbb726f8031414bb658a94da0060a941361d239e6581b6a1ef1dfedfca6a0622795b055ec97ab824f3b3a3e4a",
      "networkId": 0,
      "chainId": 0
    },
    {
      "hash": "0x6c81d64249d05510881ab7b6de7027e8f1e415074525d8f61634c36b002e7e2f",
      "blockHash": "0x297bc970ea5c3b784fc9c39f573530a8d61f08cd67d5c91dd24802569766775e",
      "blockNumber": 121895,
      "transactionIndex": 7,
      "confirmations": null,
      "from": "0x03bbfbb9d362b4B1C6a113BE654A0190Fc6aEa80",
      "gasPrice": {
        "_hex": "0xdd5e058b4"
      },
      "gasLimit": {
        "_hex": "0x5208"
      },
      "to": "0x32Be343B94f860124dC4fEe278FDCBD38C102D88",
      "value": {
        "_hex": "0x4ee75ecd3344e400"
      },
      "nonce": 12,
      "data": "0x",
      "r": "0x54371cb65b9151ac218b4a659af0d37d1286e6eacf090a6c67bdc47093f876f8",
      "s": "0x7578d06754928cc64efe705d0083741eb6eda3e7bbee3e3f1ac76a16ceed6c07",
      "v": 28,
      "creates": null,
      "raw": "0xf86c0c850dd5e058b48252089432be343b94f860124dc4fee278fdcbd38c102d88884ee75ecd3344e400801ca054371cb65b9151ac218b4a659af0d37d1286e6eacf090a6c67bdc47093f876f8a07578d06754928cc64efe705d0083741eb6eda3e7bbee3e3f1ac76a16ceed6c07",
      "networkId": 0,
      "chainId": 0
    },
    {
      "hash": "0x52fe5ea68d9faa1e1bd371232b89a1365fb9a9a8a1d06f270a06d89e44d07f64",
      "blockHash": "0x297bc970ea5c3b784fc9c39f573530a8d61f08cd67d5c91dd24802569766775e",
      "blockNumber": 121895,
      "transactionIndex": 8,
      "confirmations": null,
      "from": "0x7550E0d09f273C690454B44F794D7D381B2E55EA",
      "gasPrice": {
        "_hex": "0xdd5e058b4"
      },
      "gasLimit": {
        "_hex": "0x5208"
      },
      "to": "0x32Be343B94f860124dC4fEe278FDCBD38C102D88",
      "value": {
        "_hex": "0x3b0c9331c9681c00"
      },
      "nonce": 12,
      "data": "0x",
      "r": "0x3bb86f32693067622e7376c7e124961e318cd3953cbeff8e68eccf2930cf5d30",
      "s": "0x11b58abe34ffbd4175a38a0737e05f750ceeaa67766580c1a1325e88a72102b6",
      "v": 28,
      "creates": null,
      "raw": "0xf86c0c850dd5e058b48252089432be343b94f860124dc4fee278fdcbd38c102d88883b0c9331c9681c00801ca03bb86f32693067622e7376c7e124961e318cd3953cbeff8e68eccf2930cf5d30a011b58abe34ffbd4175a38a0737e05f750ceeaa67766580c1a1325e88a72102b6",
      "networkId": 0,
      "chainId": 0
    },
    {
      "hash": "0x34506e609149083b2fefd3d6b0b36c35c71a6babac6ea44009e20a312b01b726",
      "blockHash": "0x297bc970ea5c3b784fc9c39f573530a8d61f08cd67d5c91dd24802569766775e",
      "blockNumber": 121895,
      "transactionIndex": 9,
      "confirmations": null,
      "from": "0xe6A7a1d47ff21B6321162AEA7C6CB457D5476Bca",
      "gasPrice": {
        "_hex": "0xba43b7400"
      },
      "gasLimit": {
        "_hex": "0x55f0"
      },
      "to": "0x837A2A346557050c8cF0fb24b84Aa695E8Add19f",
      "value": {
        "_hex": "0x5180ee9eec848cc00"
      },
      "nonce": 6759,
      "data": "0x",
      "r": "0x2794aab404d4977d44ff371b3a69c0bebe673fbd08dd9af845b599dbdbb3e377",
      "s": "0x783688c7b72ba400a860a9e07e9ae3436414da7c151bbebbcb9d3c306180b2c7",
      "v": 27,
      "creates": null,
      "raw": "0xf86f821a67850ba43b74008255f094837a2a346557050c8cf0fb24b84aa695e8add19f8905180ee9eec848cc00801ba02794aab404d4977d44ff371b3a69c0bebe673fbd08dd9af845b599dbdbb3e377a0783688c7b72ba400a860a9e07e9ae3436414da7c151bbebbcb9d3c306180b2c7",
      "networkId": 0,
      "chainId": 0
    }
  ]
}