{
  "hash": "0x46c650d2b4f2b5b119bf6e09d72537162819fcb5f1f18a26472f4f4808b89322",
  "parentHash": "0x03675493c00adc88d42f3f8f1a8c711e1ff164d918bbf70705cfbcaa17c3c7fe",
  "number": 114550,
  "timestamp": 1440042313,
  "nonce": "0x9223e495c1b74221",
  "difficulty": 4514475085944,
  "gasLimit": {
    "_hex": "0x2fefd8"
  },
  "gasUsed": {
    "_hex": "0x5208"
  },
  "miner": "0xe6A7a1d47ff21B6321162AEA7C6CB457D5476Bca",
  "extraData": "0x476574682f76312e302e312d38326566323666362f6c696e75782f676f312e34",
  "transactions": [
    {
      "hash": "0x982a21309fce2d3fae1735603b31e2e49e0a20131fd0964f232f09188eb74d68",
      "blockHash": "0x46c650d2b4f2b5b119bf6e09d72537162819fcb5f1f18a26472f4f4808b89322",
      "blockNumber": 114550,
      "transactionIndex": 0,
      "confirmations": null,
      "from": "0x839004d04F48410856d9D43fdd18Ee8453bBd8f5",
      "gasPrice": {
        "_hex": "0xba43b7400"
      },
      "gasLimit": {
        "_hex": "0x5208"
      },
      "to": "0xC47Aaa860008be6f65B58c6C6E02a84e666EfE31",
      "value": {
        "_hex": "0x1bbdb26f21c46000"
      },
      "nonce": 1,
      "data": "0x",
      "r": "0x20c2ede5d5394b40428d01e46ed0fb4b9f7296159ba115c73cf53eba96c79af6",
      "s": "0x3871c6b9f1fc0aaefe6e50c04ee5e6b95b5351a2bc037e87a38b661976cd128e",
      "v": 27,
      "creates": null,
      "raw": "0xf86c01850ba43b740082520894c47aaa860008be6f65b58c6c6e02a84e666efe31881bbdb26f21c46000801ba020c2ede5d5394b40428d01e46ed0fb4b9f7296159ba115c73cf53eba96c79af6a03871c6b9f1fc0aaefe6e50c04ee5e6b95b5351a2bc037e87a38b661976cd128e",
      "networkId": 0,
      "chainId": 0
    }
  ]
}