{
  "hash": "0xd9ef2180de0808e1e811a7447175b96496feb7d476a45748ec6f55b1cdc2bb65",
  "parentHash": "0x485ab7d98e3231c9a744754254cce7e8367b5f854e2acbcdc4fa6db24d2a5079",
  "number": 65265,
  "timestamp": 1439234020,
  "nonce": "0xd048c03aa63b93ed",
  "difficulty": 1942630514007,
  "gasLimit": {
    "_hex": "0x2fefd8"
  },
  "gasUsed": {
    "_hex": "0xa410"
  },
  "miner": "0xad7210d76107F888745616FFF7979623b84F928c",
  "extraData": "0x",
  "transactions": [
    {
      "hash": "0x6b8aa08d0306fdd8086a68fde6ba7562319a937155e3032a4e63da2998cbe87a",
      "blockHash": "0xd9ef2180de0808e1e811a7447175b96496feb7d476a45748ec6f55b1cdc2bb65",
      "blockNumber": 65265,
      "transactionIndex": 0,
      "confirmations": null,
      "from": "0xC721D35B52b0c443F330771c90E78672191E4025",
      "gasPrice": {
        "_hex": "0xba43b7400"
      },
      "gasLimit": {
        "_hex": "0x5208"
      },
      "to": "0xf9003E8fFe80ea52Fa773A98dfaa5aE0479eAfBF",
      "value": {
        "_hex": "0x7ce79de7fb29000"
      },
      "nonce": 1,
      "data": "0x",
      "r": "0x242d1bc0b6aabe80c08c9affe01ec6d792f38e231d3f9bec821bae7551de184e",
      "s": "0x6db0c22ff070c2c65823da2d65e85e8869510df7988e177ba9ac1ca09a8440a5",
      "v": 28,
      "creates": null,
      "raw": "0xf86c01850ba43b740082520894f9003e8ffe80ea52fa773a98dfaa5ae0479eafbf8807ce79de7fb29000801ca0242d1bc0b6aabe80c08c9affe01ec6d792f38e231d3f9bec821bae7551de184ea06db0c22ff070c2c65823da2d65e85e8869510df7988e177ba9ac1ca09a8440a5",
      "networkId": 0,
      "chainId": 0
    },
    {
      "hash": "0xdacb437360298a623fcfe3a5edfac6a46e0392b296085de9d646368959eea53a",
      "blockHash": "0xd9ef2180de0808e1e811a7447175b96496feb7d476a45748ec6f55b1cdc2bb65",
      "blockNumber": 65265,
      "transactionIndex": 1,
      "confirmations": null,
      "from": "0xF073e771325d740CA7623A25884507eD94e9eB16",
      "gasPrice": {
        "_hex": "0xba43b7400"
      },
      "gasLimit": {
        "_hex": "0x5208"
      },
      "to": "0x6c370F4A27246f7e7FD89b419CE96bad790B3226",
      "value": {
        "_hex": "0x75ac9fe3fe06000"
      },
      "nonce": 1,
      "data": "0x",
      "r": "0x9a710b18b448defaf28a7f3b487370b00a0bd1c96503f65368efbb7b086c61ea",
      "s": "0x7c1ecef5ab6cdf4bbedb14f39b29a81a93d99cd888d4f0c90444ad1359d6bf32",
      "v": 28,
      "creates": null,
      "raw": "0xf86c01850ba43b7400825208946c370f4a27246f7e7fd89b419ce96bad790b322688075ac9fe3fe06000801ca09a710b18b448defaf28a7f3b487370b00a0bd1c96503f65368efbb7b086c61eaa07c1ecef5ab6cdf4bbedb14f39b29a81a93d99cd888d4f0c90444ad1359d6bf32",
      "networkId": 0,
      "chainId": 0
    }
  ]
}