{
  "hash": "0x08afe2c3316c5eddf41b3aadbb1f9014b1bf8e9873018d9a416f5c738fd346df",
  "parentHash": "0x04afc662bf63c831b816cbc76621eec14e4484bf591306f14d0c1b39489b6f5b",
  "number": 109404,
  "timestamp": 1439955915,
  "nonce": "0x1c8a46b81d17135e",
  "difficulty": 4477716953572,
  "gasLimit": {
    "_hex": "0x2fefd8"
  },
  "gasUsed": {
    "_hex": "0x5208"
  },
  "miner": "0xe6A7a1d47ff21B6321162AEA7C6CB457D5476Bca",
  "extraData": "0x476574682f76312e302e312d38326566323666362f6c696e75782f676f312e34",
  "transactions": [
    {
      "hash": "0x81319c1375e60e4dd7246f0d87f529b7a7310ef36c1a9774a4e2963785d4c4c1",
      "blockHash": "0x08afe2c3316c5eddf41b3aadbb1f9014b1bf8e9873018d9a416f5c738fd346df",
      "blockNumber": 109404,
      "transactionIndex": 0,
      "confirmations": null,
      "from": "0xF87481A262E993a75F791E7859E71BaC36A606Eb",
      "gasPrice": {
        "_hex": "0xd64bbe0f1"
      },
      "gasLimit": {
        "_hex": "0x5208"
      },
      "to": "0x32Be343B94f860124dC4fEe278FDCBD38C102D88",
      "value": {
        "_hex": "0x1a0511e5d8abcc000"
      },
      "nonce": 41,
      "data": "0x",
      "r": "0x2a1329a774250d8c970aa35c3fe9a4d9a9ccbaa37d1745035659bd57062ad553",
      "s": "0x23dda5041ab71ec223396dee57be3098b8862540ceac18447eb90a82acffbc83",
      "v": 28,
      "creates": null,
      "raw": "0xf86d29850d64bbe0f18252089432be343b94f860124dc4fee278fdcbd38c102d888901a0511e5d8abcc000801ca02a1329a774250d8c970aa35c3fe9a4d9a9ccbaa37d1745035659bd57062ad553a023dda5041ab71ec223396dee57be3098b8862540ceac18447eb90a82acffbc83",
      "networkId": 0,
      "chainId": 0
    }
  ]
}