{
  "hash": "0x0ed7b80bff36b3ff9071236bc263d7474ca658e223fb30139fe56720a6a6e181",
  "parentHash": "0x5dda42110c2d817981b17fb3462d8635cff5d2e1cd17f172563351447432016d",
  "number": 64792,
  "timestamp": 1439226345,
  "nonce": "0x6205b2365d05171c",
  "difficulty": 1893109030781,
  "gasLimit": {
    "_hex": "0x2fefd8"
  },
  "gasUsed": {
    "_hex": "0x17cd8"
  },
  "miner": "0xbb7B8287f3F0a933474a79eAe42CBCa977791171",
  "extraData": "0x476574682f4c5649562f76312e302e312f6c696e75782f676f312e342e32",
  "transactions": [
    {
      "hash": "0xb6e0ae0cd9c4b7713e9555e81c09125f7db8d1d84b8508f5354a0bfa214a503e",
      "blockHash": "0x0ed7b80bff36b3ff9071236bc263d7474ca658e223fb30139fe56720a6a6e181",
      "blockNumber": 64792,
      "transactionIndex": 0,
      "confirmations": null,
      "from": "0x55d5779241b4bF93870DB124701AB0Aa78cEd5Ee",
      "gasPrice": {
        "_hex": "0xba43b7400"
      },
      "gasLimit": {
        "_hex": "0x15f90"
      },
      "to": "0x793AE8C1b1a160BFc07BFB0d04F85eab1A71F4f2",
      "value": {
        "_hex": "0x0"
      },
      "nonce": 0,
      "data": "0x3ba15036",
      "r": "0xe6fb953dfb1d584d36ccdb7b3900306d69effc0dd799b22c74b51b7c85b55745",
      "s": "0x2a58e18581b48502c5e2c339009281292880ac9727a1b58ffcddf96efe0760b5",
      "v": 28,
      "creates": null,
      "raw": "0xf86980850ba43b740083015f9094793ae8c1b1a160bfc07bfb0d04f85eab1a71f4f280843ba150361ca0e6fb953dfb1d584d36ccdb7b3900306d69effc0dd799b22c74b51b7c85b55745a02a58e18581b48502c5e2c339009281292880ac9727a1b58ffcddf96efe0760b5",
      "networkId": 0,
      "chainId": 0
    },
    {
      "hash": "0x4fe5ac9aaddb5e1fc49f38446f7ff595a6560146400063da798b69eb0d6f0e94",
      "blockHash": "0x0ed7b80bff36b3ff9071236bc263d7474ca658e223fb30139fe56720a6a6e181",
      "blockNumber": 64792,
      "transactionIndex": 1,
      "confirmations": null,
      "from": "0x60BEBb5856800d824cc3D639c2F92F82e095247f",
      "gasPrice": {
        "_hex": "0xba43b7400"
      },
      "gasLimit": {
        "_hex": "0x15f90"
      },
      "to": "0x793AE8C1b1a160BFc07BFB0d04F85eab1A71F4f2",
      "value": {
        "_hex": "0x0"
      },
      "nonce": 0,
      "data": "0x3ba15036",
      "r": "0x2a8da709f8e76836ee5b9156170dcc5d2487fe3b7314f2620f2bdd3ed285173a",
      "s": "0x3e1f6838b03f1e46a7509115bf086a02f06f9f2a72b654eadfcd0046200e5ba2",
      "v": 28,
      "creates": null,
      "raw": "0xf86980850ba43b740083015f9094793ae8c1b1a160bfc07bfb0d04f85eab1a71f4f280843ba150361ca02a8da709f8e76836ee5b9156170dcc5d2487fe3b7314f2620f2bdd3ed285173aa03e1f6838b03f1e46a7509115bf086a02f06f9f2a72b654eadfcd0046200e5ba2",
      "networkId": 0,
      "chainId": 0
    }
  ]
}