{
  "hash": "0x49be011feb239edcb55e50d863c7694628666e8f666ef42f33a1efb7ef7801be",
  "parentHash": "0x21be6c2f06f024fb30c231a034667a57ce53452bae93911ecddc71a25dcc19ad",
  "number": 100849,
  "timestamp": 1439813348,
  "nonce": "0x7d17fd38a7bcc430",
  "difficulty": 3850787461207,
  "gasLimit": {
    "_hex": "0x2fefd8"
  },
  "gasUsed": {
    "_hex": "0x5208"
  },
  "miner": "0xC978e305Aaa59952FAb39Ba288d6E9CB09B952E1",
  "extraData": "0x476574682f76312e302e312f77696e646f77732f676f312e342e32",
  "transactions": [
    {
      "hash": "0x55272e1114b93341d31b5fda46e71688e4d355a1e4c6bf038fc4402f4f6beb3f",
      "blockHash": "0x49be011feb239edcb55e50d863c7694628666e8f666ef42f33a1efb7ef7801be",
      "blockNumber": 100849,
      "transactionIndex": 0,
      "confirmations": null,
      "from": "0x014e478251F22a79fA7014f285647d91462A9669",
      "gasPrice": {
        "_hex": "0xd9062b82a"
      },
      "gasLimit": {
        "_hex": "0x5208"
      },
      "to": "0x32Be343B94f860124dC4fEe278FDCBD38C102D88",
      "value": {
        "_hex": "0xfb2bbb2d1fce3000"
      },
      "nonce": 5,
      "data": "0x",
      "r": "0x3e836b34e84c357a126e2294f5c55560feb69ec15304c8e8a429dbc5665c1bee",
      "s": "0x0cff1cc5dd88dd3248f9f1ebdbb4603730307cbf1a72dec07c364cf97a513c50",
      "v": 27,
      "creates": null,
      "raw": "0xf86c05850d9062b82a8252089432be343b94f860124dc4fee278fdcbd38c102d8888fb2bbb2d1fce3000801ba03e836b34e84c357a126e2294f5c55560feb69ec15304c8e8a429dbc5665c1beea00cff1cc5dd88dd3248f9f1ebdbb4603730307cbf1a72dec07c364cf97a513c50",
      "networkId": 0,
      "chainId": 0
    }
  ]
}