{
  "hash": "0x93e0d20deba7648a466966818331ab467ba0486ca70d3b7767a9bf9330d2ce93",
  "parentHash": "0xe00f8a76760bf581872ec3697054713d3fb33e38422e7b2278c7718221198ffb",
  "number": 60316,
  "timestamp": 1439153386,
  "nonce": "0x865de0c67ce6428c",
  "difficulty": 1746649452785,
  "gasLimit": {
    "_hex": "0x2fefd8"
  },
  "gasUsed": {
    "_hex": "0xf618"
  },
  "miner": "0xBb12b5a9B85D4AB8CDE6056E9c1b2a4a337D2261",
  "extraData": "0x476574682f76312e302e312d36393865393864392f6c696e75782f676f312e34",
  "transactions": [
    {
      "hash": "0xc7334e6e02f90914af646cba7fbc29c7ee72fbdb7fc2f28242884bc543783ebf",
      "blockHash": "0x93e0d20deba7648a466966818331ab467ba0486ca70d3b7767a9bf9330d2ce93",
      "blockNumber": 60316,
      "transactionIndex": 0,
      "confirmations": null,
      "from": "0x2910543Af39abA0Cd09dBb2D50200b3E800A63D2",
      "gasPrice": {
        "_hex": "0xcb359adc4"
      },
      "gasLimit": {
        "_hex": "0x5208"
      },
      "to": "0xe1F5B8dc9336BC9637eA97c3f3b13Cd363F88854",
      "value": {
        "_hex": "0x23e78952e0d4b8000"
      },
      "nonce": 20,
      "data": "0x",
      "r": "0xd5ff2234942687f463bb2ce3f84d44c3aa1f25ca2a0630ecd5cfd95fb54224e0",
      "s": "0x43848da6e92c1750cb6295b2a49268e355cd7a1cc31499640505c00112f1fcbe",
      "v": 27,
      "creates": null,
      "raw": "0xf86d14850cb359adc482520894e1f5b8dc9336bc9637ea97c3f3b13cd363f8885489023e78952e0d4b8000801ba0d5ff2234942687f463bb2ce3f84d44c3aa1f25ca2a0630ecd5cfd95fb54224e0a043848da6e92c1750cb6295b2a49268e355cd7a1cc31499640505c00112f1fcbe",
      "networkId": 0,
      "chainId": 0
    },
    {
      "hash": "0xa2bc2e4809dcf36aee82732b857a3c733f2befd23c0a0e46fe5b398820fa8ae4",
      "blockHash": "0x93e0d20deba7648a466966818331ab467ba0486ca70d3b7767a9bf9330d2ce93",
      "blockNumber": 60316,
      "transactionIndex": 1,
      "confirmations": null,
      "from": "0x2910543Af39abA0Cd09dBb2D50200b3E800A63D2",
      "gasPrice": {
        "_hex": "0xcb359adc4"
      },
      "gasLimit": {
        "_hex": "0x5208"
      },
      "to": "0xeA79057Dabef5E64E7B44f7f18648e7E533718d2",
      "value": {
        "_hex": "0xdcef33a6f838000"
      },
      "nonce": 21,
      "data": "0x",
      "r": "0x111b8f80f38607bde2ba2480765a34199885bac07b246cd9220e6313427903e5",
      "s": "0x675fde0e4b2b28491545b449f54a4a540e4cd77010ce0595bc413bcdb2f0df2c",
      "v": 27,
      "creates": null,
      "raw": "0xf86c15850cb359adc482520894ea79057dabef5e64e7b44f7f18648e7e533718d2880dcef33a6f838000801ba0111b8f80f38607bde2ba2480765a34199885bac07b246cd9220e6313427903e5a0675fde0e4b2b28491545b449f54a4a540e4cd77010ce0595bc413bcdb2f0df2c",
      "networkId": 0,
      "chainId": 0
    },
    {
      "hash": "0x7262a8e2a19e0bac20e8ea7592c5e80b0fcaa35cf30e3adfe75a89ef19d69fe9",
      "blockHash": "0x93e0d20deba7648a466966818331ab467ba0486ca70d3b7767a9bf9330d2ce93",
      "blockNumber": 60316,
      "transactionIndex": 2,
      "confirmations": null,
      "from": "0x2910543Af39abA0Cd09dBb2D50200b3E800A63D2",
      "gasPrice": {
        "_hex": "0xcb359adc4"
      },
      "gasLimit": {
        "_hex": "0x5208"
      },
      "to": "0xb4Ad43131139584E8f6F31D578E0dC4d11Df6D7b",
      "value": {
        "_hex": "0xdcef33a6f838000"
      },
      "nonce": 22,
      "data": "0x",
      "r": "0xda964c6ee1112dc83b3e11410e8fb822d73bd28fc2f25fec5161470eb7b38129",
      "s": "0x2ae072219f09528931d67d2af0148951f057ece7a3ca75140ff27a218f09eb2f",
      "v": 27,
      "creates": null,
      "raw": "0xf86c16850cb359adc482520894b4ad43131139584e8f6f31d578e0dc4d11df6d7b880dcef33a6f838000801ba0da964c6ee1112dc83b3e11410e8fb822d73bd28fc2f25fec5161470eb7b38129a02ae072219f09528931d67d2af0148951f057ece7a3ca75140ff27a218f09eb2f",
      "networkId": 0,
      "chainId": 0
    }
  ]
}