{
  "hash": "0x0b511c07cf4e7173d9def31c60234829c0d0a3cfb43c242694a6320b64918272",
  "parentHash": "0x314797981181f26e4f1d1cf56cdf4b69f67b905e63d8e85c7a8f36cfc423860b",
  "number": 111146,
  "timestamp": 1439985465,
  "nonce": "0x9e36798f364fbf35",
  "difficulty": 4390198286340,
  "gasLimit": {
    "_hex": "0x2fefd8"
  },
  "gasUsed": {
    "_hex": "0x5208"
  },
  "miner": "0xf927a40C8B7F6E07c5af7FA2155B4864a4112B13",
  "extraData": "0x",
  "transactions": [
    {
      "hash": "0x359883b58fcff7e170355d56ff9eb5ab154be7e3c70c3eb6dac3f99f07ed983a",
      "blockHash": "0x0b511c07cf4e7173d9def31c60234829c0d0a3cfb43c242694a6320b64918272",
      "blockNumber": 111146,
      "transactionIndex": 0,
      "confirmations": null,
      "from": "0x2910543Af39abA0Cd09dBb2D50200b3E800A63D2",
      "gasPrice": {
        "_hex": "0xce3297b41"
      },
      "gasLimit": {
        "_hex": "0x5208"
      },
      "to": "0x2f86ba8019945f39edE131D38d4d8780884DA553",
      "value": {
        "_hex": "0x35fe350f7e092f8000"
      },
      "nonce": 1093,
      "data": "0x",
      "r": "0x15f1743c353b20febf4be6cd36441d048f0e621e17cd678ed3ac0ff0d738b50e",
      "s": "0x598f9eaad65d0fe614323e7c1b01bf2bc9f2e17f4b952d4315264d0fccbe2190",
      "v": 28,
      "creates": null,
      "raw": "0xf86f820445850ce3297b41825208942f86ba8019945f39ede131d38d4d8780884da5538935fe350f7e092f8000801ca015f1743c353b20febf4be6cd36441d048f0e621e17cd678ed3ac0ff0d738b50ea0598f9eaad65d0fe614323e7c1b01bf2bc9f2e17f4b952d4315264d0fccbe2190",
      "networkId": 0,
      "chainId": 0
    }
  ]
}