{
  "hash": "0x86afd0cc5bdb64bae4ba54cf23c57c493ed8d1f7376f3503b2dc16c333f099e7",
  "parentHash": "0x916e7b4fd5d4486110d53eddc1013878b6c598ab34d6e6482e9fa325ed908e02",
  "number": 107616,
  "timestamp": 1439925681,
  "nonce": "0x57a8a6dc80c3f734",
  "difficulty": 4383476265353,
  "gasLimit": {
    "_hex": "0x2fefd8"
  },
  "gasUsed": {
    "_hex": "0x5208"
  },
  "miner": "0x4B2E99813534a63b28578eDBcB7E660F2BA78cdE",
  "extraData": "0x476574682f76312e302e312f6c696e75782f676f312e342e32",
  "transactions": [
    {
      "hash": "0xf22b4100e04ff61cc045b0f68c26b142e1959987dace98afae3dec21d554554c",
      "blockHash": "0x86afd0cc5bdb64bae4ba54cf23c57c493ed8d1f7376f3503b2dc16c333f099e7",
      "blockNumber": 107616,
      "transactionIndex": 0,
      "confirmations": null,
      "from": "0x00f222E7C680F9932feCAC767cC279C84C0A3285",
      "gasPrice": {
        "_hex": "0xba43b7400"
      },
      "gasLimit": {
        "_hex": "0x985f6"
      },
      "to": "0x2FdA34cB6C13420bA8b8Af3cB1BA4F7CBb167821",
      "value": {
        "_hex": "0xde0b6b3a7640000"
      },
      "nonce": 2,
      "data": "0x",
      "r": "0x95f5560bc3576d554e814775ada8ca9e7c7f2d55d586a102e20061c518f69408",
      "s": "0x4d4720bcc8801285822c7c3faa8096f8aac6984f0ffe058c0c31bd828cecedae",
      "v": 28,
      "creates": null,
      "raw": "0xf86d02850ba43b7400830985f6942fda34cb6c13420ba8b8af3cb1ba4f7cbb167821880de0b6b3a7640000801ca095f5560bc3576d554e814775ada8ca9e7c7f2d55d586a102e20061c518f69408a04d4720bcc8801285822c7c3faa8096f8aac6984f0ffe058c0c31bd828cecedae",
      "networkId": 0,
      "chainId": 0
    }
  ]
}