{
  "hash": "0xd39d8843e9c8d0a4793937ae09b1845be3eaa2d6088c63bd95d4f22c95baa3c1",
  "parentHash": "0xc9b3601f234b88c639be63adf2bdd2802197d5e57065fea2b39802ed6fd113d3",
  "number": 69282,
  "timestamp": 1439301211,
  "nonce": "0x17dd2fa411050d5f",
  "difficulty": 2063903901099,
  "gasLimit": {
    "_hex": "0x2fefd8"
  },
  "gasUsed": {
    "_hex": "0x2e248"
  },
  "miner": "0x0E858640EB9cbEeE16B74124658815BB2b5c0686",
  "extraData": "0x",
  "transactions": [
    {
      "hash": "0x977f109f1450c56f52befc6a6c139aed294ce4ba107b63a64eb2da598f72dad8",
      "blockHash": "0xd39d8843e9c8d0a4793937ae09b1845be3eaa2d6088c63bd95d4f22c95baa3c1",
      "blockNumber": 69282,
      "transactionIndex": 0,
      "confirmations": null,
      "from": "0xe6A7a1d47ff21B6321162AEA7C6CB457D5476Bca",
      "gasPrice": {
        "_hex": "0xd94f7e402"
      },
      "gasLimit": {
        "_hex": "0x55f0"
      },
      "to": "0xa114c802ef29776f05f9c6925cE915232e8ae102",
      "value": {
        "_hex": "0x17d0c144e9b8d8050"
      },
      "nonce": 669,
      "data": "0x",
      "r": "0xf5ca3da76d912cbdca038ab0046d9b2b0047409d600157c942882144a57359a6",
      "s": "0x21956b9a9454f71031f3bfff8f39a847fb3670caef4c21e892ad0561ddaf453a",
      "v": 28,
      "creates": null,
      "raw": "0xf86f82029d850d94f7e4028255f094a114c802ef29776f05f9c6925ce915232e8ae10289017d0c144e9b8d8050801ca0f5ca3da76d912cbdca038ab0046d9b2b0047409d600157c942882144a57359a6a021956b9a9454f71031f3bfff8f39a847fb3670caef4c21e892ad0561ddaf453a",
      "networkId": 0,
      "chainId": 0
    },
    {
      "hash": "0x5b6f5603d4ad3f5f7a80cf535c899a01e4957ddfb9d9e4ba15326f7d25be7c16",
      "blockHash": "0xd39d8843e9c8d0a4793937ae09b1845be3eaa2d6088c63bd95d4f22c95baa3c1",
      "blockNumber": 69282,
      "transactionIndex": 1,
      "confirmations": null,
      "from": "0xe6A7a1d47ff21B6321162AEA7C6CB457D5476Bca",
      "gasPrice": {
        "_hex": "0xd94f7e402"
      },
      "gasLimit": {
        "_hex": "0x55f0"
      },
      "to": "0xdCB14605B0EE4F372D223e5DF87aa9e760886D01",
      "value": {
        "_hex": "0x1a61291ce78aa6ff8"
      },
      "nonce": 670,
      "data": "0x",
      "r": "0xe6dfad589b17615c733feae83bad3daec21e7ac5dc0b8fa7094435aae8bd64f6",
      "s": "0x5df3fb2ba41d93a34f5de7a557ead670160e997ecdd204d47de18b7dbbed8d5e",
      "v": 28,
      "creates": null,
      "raw": "0xf86f82029e850d94f7e4028255f094dcb14605b0ee4f372d223e5df87aa9e760886d018901a61291ce78aa6ff8801ca0e6dfad589b17615c733feae83bad3daec21e7ac5dc0b8fa7094435aae8bd64f6a05df3fb2ba41d93a34f5de7a557ead670160e997ecdd204d47de18b7dbbed8d5e",
      "networkId": 0,
      "chainId": 0
    },
    {
      "hash": "0x301e2227162025f0adc3b59ab9ad5d480b9fc9be163c18bfdb16615f05830071",
      "blockHash": "0xd39d8843e9c8d0a4793937ae09b1845be3eaa2d6088c63bd95d4f22c95baa3c1",
      "blockNumber": 69282,
      "transactionIndex": 2,
      "confirmations": null,
      "from": "0xe6A7a1d47ff21B6321162AEA7C6CB457D5476Bca",
      "gasPrice": {
        "_hex": "0xd94f7e402"
      },
      "gasLimit": {
        "_hex": "0x55f0"
      },
      "to": "0x853Bff007d269E0526E871360d79d69D602770dc",
      "value": {
        "_hex": "0x333776c6a21958d50"
      },
      "nonce": 671,
      "data": "0x",
      "r": "0x6f0fabc39546d7ec2cd35d33ec9f04da17272d174859d97f864ce220a0038e20",
      "s": "0x75a5b80828de77772ab398e868f8b7967c56f701841b26d271a6f4fbbe87e02a",
      "v": 27,
      "creates": null,
      "raw": "0xf86f82029f850d94f7e4028255f094853bff007d269e0526e871360d79d69d602770dc890333776c6a21958d50801ba06f0fabc39546d7ec2cd35d33ec9f04da17272d174859d97f864ce220a0038e20a075a5b80828de77772ab398e868f8b7967c56f701841b26d271a6f4fbbe87e02a",
      "networkId": 0,
      "chainId": 0
    },
    {
      "hash": "0x5dbe421e83af1ab960222f2c3eab3c6c935d37b60fcfa39f42caad18de6705a1",
      "blockHash": "0xd39d8843e9c8d0a4793937ae09b1845be3eaa2d6088c63bd95d4f22c95baa3c1",
      "blockNumber": 69282,
      "transactionIndex": 3,
      "confirmations": null,
      "from": "0xa70a9a7040d542C632D8e0bE7c5513A8a5Bbc752",
      "gasPrice": {
        "_hex": "0xd9107c923"
      },
      "gasLimit": {
        "_hex": "0x5208"
      },
      "to": "0x32Be343B94f860124dC4fEe278FDCBD38C102D88",
      "value": {
        "_hex": "0x253e71dedf27cc00"
      },
      "nonce": 6,
      "data": "0x",
      "r": "0x87dfdc0253b67f80abdbd3eef12dd97cd0d4ec4f24cb03a660a08c759b681828",
      "s": "0x021a3a0b2e3856c1298f46d50d1ebe4fbf5a72caa8786290cef8e776ab98d311",
      "v": 28,
      "creates": null,
      "raw": "0xf86c06850d9107c9238252089432be343b94f860124dc4fee278fdcbd38c102d8888253e71dedf27cc00801ca087dfdc0253b67f80abdbd3eef12dd97cd0d4ec4f24cb03a660a08c759b681828a0021a3a0b2e3856c1298f46d50d1ebe4fbf5a72caa8786290cef8e776ab98d311",
      "networkId": 0,
      "chainId": 0
    },
    {
      "hash": "0xa0bbdefde689b8987e75af25cc589f33481b2336d709b43fc7a660fd43e995da",
      "blockHash": "0xd39d8843e9c8d0a4793937ae09b1845be3eaa2d6088c63bd95d4f22c95baa3c1",
      "blockNumber": 69282,
      "transactionIndex": 4,
      "confirmations": null,
      "from": "0x2b176421eEBBf303fa94aD4fE78362Fa9e4Ca693",
      "gasPrice": {
        "_hex": "0xd9107c923"
      },
      "gasLimit": {
        "_hex": "0x5208"
      },
      "to": "0x32Be343B94f860124dC4fEe278FDCBD38C102D88",
      "value": {
        "_hex": "0x3c2e41f24501c000"
      },
      "nonce": 0,
      "data": "0x",
      "r": "0x9ab020d9dd9448c902f5a323f48d4017014937723f86f0815fd20aedf78600d5",
      "s": "0x313547944487df363780e988fc392dfdcc40ec2c6a3ee6697ac11480e75e7f85",
      "v": 27,
      "creates": null,
      "raw": "0xf86c80850d9107c9238252089432be343b94f860124dc4fee278fdcbd38c102d88883c2e41f24501c000801ba09ab020d9dd9448c902f5a323f48d4017014937723f86f0815fd20aedf78600d5a0313547944487df363780e988fc392dfdcc40ec2c6a3ee6697ac11480e75e7f85",
      "networkId": 0,
      "chainId": 0
    },
    {
      "hash": "0xe5aea875d5cb987235fe01bdd65b96580b28a270688857f7c31e50c7aee6b0d8",
      "blockHash": "0xd39d8843e9c8d0a4793937ae09b1845be3eaa2d6088c63bd95d4f22c95baa3c1",
      "blockNumber": 69282,
      "transactionIndex": 5,
      "confirmations": null,
      "from": "0xC15233674F0Cb7729e4Ab8aB733430C40580914d",
      "gasPrice": {
        "_hex": "0xd9107c923"
      },
      "gasLimit": {
        "_hex": "0x5208"
      },
      "to": "0x32Be343B94f860124dC4fEe278FDCBD38C102D88",
      "value": {
        "_hex": "0x2843c094bc164400"
      },
      "nonce": 0,
      "data": "0x",
      "r": "0x9dc90b23505fece675b284861f722c725fbe1c32ec3907db03f91ed0f03d917a",
      "s": "0x349847579689afb4c72508b68af517225c3b18e2ecd0cd8045c86042e54b009e",
      "v": 28,
      "creates": null,
      "raw": "0xf86c80850d9107c9238252089432be343b94f860124dc4fee278fdcbd38c102d88882843c094bc164400801ca09dc90b23505fece675b284861f722c725fbe1c32ec3907db03f91ed0f03d917aa0349847579689afb4c72508b68af517225c3b18e2ecd0cd8045c86042e54b009e",
      "networkId": 0,
      "chainId": 0
    },
    {
      "hash": "0x8cc3adaafb00bdb27be111b9e9ba1a65594b2287a0a018657bc73d02166b5fba",
      "blockHash": "0xd39d8843e9c8d0a4793937ae09b1845be3eaa2d6088c63bd95d4f22c95baa3c1",
      "blockNumber": 69282,
      "transactionIndex": 6,
      "confirmations": null,
      "from": "0xb4eb03c9bDD4944DE22085E8e1dB5Ebd36889Bd8",
      "gasPrice": {
        "_hex": "0xd9107c923"
      },
      "gasLimit": {
        "_hex": "0x5208"
      },
      "to": "0x32Be343B94f860124dC4fEe278FDCBD38C102D88",
      "value": {
        "_hex": "0x43b544b85fef7400"
      },
      "nonce": 0,
      "data": "0x",
      "r": "0xfc53c9b7c0114d1e27aab383622733e8dd2a64c10b56b2d34a3cf8a8d6c228f7",
      "s": "0x66bf0b6feadbef3f39d9995433111ca8cbe881a7bdd51af1004bb4d3182f6bcc",
      "v": 28,
      "creates": null,
      "raw": "0xf86c80850d9107c9238252089432be343b94f860124dc4fee278fdcbd38c102d888843b544b85fef7400801ca0fc53c9b7c0114d1e27aab383622733e8dd2a64c10b56b2d34a3cf8a8d6c228f7a066bf0b6feadbef3f39d9995433111ca8cbe881a7bdd51af1004bb4d3182f6bcc",
      "networkId": 0,
      "chainId": 0
    },
    {
      "hash": "0xf87267391cd72f965c8ab49c25deb3516611bab0c3f75143875f7b547201d77d",
      "blockHash": "0xd39d8843e9c8d0a4793937ae09b1845be3eaa2d6088c63bd95d4f22c95baa3c1",
      "blockNumber": 69282,
      "transactionIndex": 7,
      "confirmations": null,
      "from": "0x047fF53dFE1F7BD2c3Ed2D1f777F35D1f64e9ffE",
      "gasPrice": {
        "_hex": "0xd9107c923"
      },
      "gasLimit": {
        "_hex": "0x5208"
      },
      "to": "0x32Be343B94f860124dC4fEe278FDCBD38C102D88",
      "value": {
        "_hex": "0x333d7ce46acecc00"
      },
      "nonce": 0,
      "data": "0x",
      "r": "0x60f521292e16da1df9ad24e0ead8b371ccadff504579f9d6f35595edaa0f9f87",
      "s": "0x358be0ec063f2b7e448be82b5f11ca7fb7529e1870e046cf7f8ba8281a96949f",
      "v": 27,
      "creates": null,
      "raw": "0xf86c80850d9107c9238252089432be343b94f860124dc4fee278fdcbd38c102d8888333d7ce46acecc00801ba060f521292e16da1df9ad24e0ead8b371ccadff504579f9d6f35595edaa0f9f87a0358be0ec063f2b7e448be82b5f11ca7fb7529e1870e046cf7f8ba8281a96949f",
      "networkId": 0,
      "chainId": 0
    },
    {
      "hash": "0xbb03fc3afb45731276fb604f04210484d891d9a4e7ebacbe66fc82bd8dbb9e80",
      "blockHash": "0xd39d8843e9c8d0a4793937ae09b1845be3eaa2d6088c63bd95d4f22c95baa3c1",
      "blockNumber": 69282,
      "transactionIndex": 8,
      "confirmations": null,
      "from": "0xB415e74b9b5B2058EF3541265aaF7ce09C4953bc",
      "gasPrice": {
        "_hex": "0xd9107c923"
      },
      "gasLimit": {
        "_hex": "0x5208"
      },
      "to": "0x32Be343B94f860124dC4fEe278FDCBD38C102D88",
      "value": {
        "_hex": "0x3a243d18c7ae4400"
      },
      "nonce": 0,
      "data": "0x",
      "r": "0x80b6f6ea66b3dce6a29c1a1f7dee6377707a3bb748288c0dbec73120352306c3",
      "s": "0x40c8c0442be6abdf2fe35cb1234388ace7b69137cc005e0ecd27f74f8f142a61",
      "v": 27,
      "creates": null,
      "raw": "0xf86c80850d9107c9238252089432be343b94f860124dc4fee278fdcbd38c102d88883a243d18c7ae4400801ba080b6f6ea66b3dce6a29c1a1f7dee6377707a3bb748288c0dbec73120352306c3a040c8c0442be6abdf2fe35cb1234388ace7b69137cc005e0ecd27f74f8f142a61",
      "networkId": 0,
      "chainId": 0
    }
  ]
}