{
  "hash": "0xb193594f73ae329238ea74adf289b13b57fbc355c453a678fa7639bf7c98fbbc",
  "parentHash": "0xf795be575ceae882866427132b6407723370c3014755faa384324bb4ea174deb",
  "number": 68480,
  "timestamp": 1439288592,
  "nonce": "0x88e1b9211eafde0f",
  "difficulty": 2004506740019,
  "gasLimit": {
    "_hex": "0x2fefd8"
  },
  "gasUsed": {
    "_hex": "0x164e1e"
  },
  "miner": "0xbb7B8287f3F0a933474a79eAe42CBCa977791171",
  "extraData": "0x476574682f4c5649562f76312e302e312f6c696e75782f676f312e342e32",
  "transactions": [
    {
      "hash": "0x8dd7da8afe3dfd9ac6fefb2f046218c5d402c5bc26d557a2501894ad234d7b97",
      "blockHash": "0xb193594f73ae329238ea74adf289b13b57fbc355c453a678fa7639bf7c98fbbc",
      "blockNumber": 68480,
      "transactionIndex": 0,
      "confirmations": null,
      "from": "0xbB7735934F8229F1fc2e76F7AfD82e14AA1e8E81",
      "gasPrice": {
        "_hex": "0xdf0084fa0"
      },
      "gasLimit": {
        "_hex": "0x61a80"
      },
      "to": "0x5Fe5B7546D1628f7348B023A0393de1FC825A4fD",
      "value": {
        "_hex": "0x1bc16d674ec80000"
      },
      "nonce": 6,
      "data": "0xb595b8b50000000000000000000000000000000000000000000000000000000000000000",
      "r": "0x04b4b2b88c74da063c12cbeddb031e355d36cb0f627a82cb9ea89d0f6cf6d642",
      "s": "0x4727f8f8692e4ce34ad24bf5df5e4fc394cb89696f94c68ac503e673b5ffb346",
      "v": 28,
      "creates": null,
      "raw": "0xf89106850df0084fa083061a80945fe5b7546d1628f7348b023a0393de1fc825a4fd881bc16d674ec80000a4b595b8b500000000000000000000000000000000000000000000000000000000000000001ca004b4b2b88c74da063c12cbeddb031e355d36cb0f627a82cb9ea89d0f6cf6d642a04727f8f8692e4ce34ad24bf5df5e4fc394cb89696f94c68ac503e673b5ffb346",
      "networkId": 0,
      "chainId": 0
    },
    {
      "hash": "0x115ea4a3b71338367714295f2de0e59c8c22a8a11ac4e08410a2f219ec894a9e",
      "blockHash": "0xb193594f73ae329238ea74adf289b13b57fbc355c453a678fa7639bf7c98fbbc",
      "blockNumber": 68480,
      "transactionIndex": 1,
      "confirmations": null,
      "from": "0xd268fB48FA174088a25a120aFF0fd8eb0C2d4c87",
      "gasPrice": {
        "_hex": "0xddd91093b"
      },
      "gasLimit": {
        "_hex": "0x1e8480"
      },
      "to": null,
      "value": {
        "_hex": "0x0"
      },
      "nonce": 2,
      "data": "0x606060405260405161014938038061014983398101604052805160805160a051919092019190808383815160019081018155600090600160a060020a0333169060029060038390559183525061010260205260408220555b82518110156100e257828181518110156100025790602001906020020151600160a060020a03166002600050826002016101008110156100025790900160005081905550806002016101026000506000858481518110156100025790602001906020020151600160a060020a0316815260200190815260200160002060005081905550600101610057565b81600060005081905550505050806101056000508190555061010662015180420490565b6101075550505050602d8061011c6000396000f3003660008037602060003660003473d658a4b8247c14868f3c512fa5cbb6e458e4a98961235a5a03f260206000f30000000000000000000000000000000000000000000000000000000000000060000000000000000000000000000000000000000000000000000000000000000000000000000000000000000000000000000000000052b7d2dcc80cd2e40000000000000000000000000000000000000000000000000000000000000000000001000000000000000000000000d268fb48fa174088a25a120aff0fd8eb0c2d4c87",
      "r": "0x1dae369211e62bb728d096e8a4bcf2d4ca1c9b1e67064ae8f80ff9f1b7a07b1b",
      "s": "0x30e8db6fd60a25f7a55f8d36ec572a20a82d9c6ceee241f4ee9bd9ce31e4dc5f",
      "v": 28,
      "creates": "0x93e8f703C29337500d426549633F2Be43d63A0fA",
      "raw": "0xf9023c02850ddd91093b831e84808080b901e9606060405260405161014938038061014983398101604052805160805160a051919092019190808383815160019081018155600090600160a060020a0333169060029060038390559183525061010260205260408220555b82518110156100e257828181518110156100025790602001906020020151600160a060020a03166002600050826002016101008110156100025790900160005081905550806002016101026000506000858481518110156100025790602001906020020151600160a060020a0316815260200190815260200160002060005081905550600101610057565b81600060005081905550505050806101056000508190555061010662015180420490565b6101075550505050602d8061011c6000396000f3003660008037602060003660003473d658a4b8247c14868f3c512fa5cbb6e458e4a98961235a5a03f260206000f30000000000000000000000000000000000000000000000000000000000000060000000000000000000000000000000000000000000000000000000000000000000000000000000000000000000000000000000000052b7d2dcc80cd2e40000000000000000000000000000000000000000000000000000000000000000000001000000000000000000000000d268fb48fa174088a25a120aff0fd8eb0c2d4c871ca01dae369211e62bb728d096e8a4bcf2d4ca1c9b1e67064ae8f80ff9f1b7a07b1ba030e8db6fd60a25f7a55f8d36ec572a20a82d9c6ceee241f4ee9bd9ce31e4dc5f",
      "networkId": 0,
      "chainId": 0
    },
    {
      "hash": "0x68086dc763d5610ee7dc7ce969507a4f55e247233371d5342ef8381ace2d1457",
      "blockHash": "0xb193594f73ae329238ea74adf289b13b57fbc355c453a678fa7639bf7c98fbbc",
      "blockNumber": 68480,
      "transactionIndex": 2,
      "confirmations": null,
      "from": "0x73e98AbEE8F6fa55e8a94851E3C2225195efA436",
      "gasPrice": {
        "_hex": "0xba43b7400"
      },
      "gasLimit": {
        "_hex": "0x15f90"
      },
      "to": "0x793AE8C1b1a160BFc07BFB0d04F85eab1A71F4f2",
      "value": {
        "_hex": "0x0"
      },
      "nonce": 0,
      "data": "0x3ba15036",
      "r": "0xcb515df253c56a95ec34c4d9f75eb0f99d71bf3b48bd50f29373a6d2e4147abb",
      "s": "0x01c4a87e9ca61dbb8e7d39b15a2fb86fd3519ecb548acb5544c431861953924c",
      "v": 27,
      "creates": null,
      "raw": "0xf86980850ba43b740083015f9094793ae8c1b1a160bfc07bfb0d04f85eab1a71f4f280843ba150361ba0cb515df253c56a95ec34c4d9f75eb0f99d71bf3b48bd50f29373a6d2e4147abba001c4a87e9ca61dbb8e7d39b15a2fb86fd3519ecb548acb5544c431861953924c",
      "networkId": 0,
      "chainId": 0
    },
    {
      "hash": "0x01203626ec42e23524c696541f480b8cd233f46293e925861d7e22fbf43d8ffa",
      "blockHash": "0xb193594f73ae329238ea74adf289b13b57fbc355c453a678fa7639bf7c98fbbc",
      "blockNumber": 68480,
      "transactionIndex": 3,
      "confirmations": null,
      "from": "0xFD7c4217aaBCcB2666F98f030422dAE8422fE1d4",
      "gasPrice": {
        "_hex": "0xba43b7400"
      },
      "gasLimit": {
        "_hex": "0x15f90"
      },
      "to": "0x793AE8C1b1a160BFc07BFB0d04F85eab1A71F4f2",
      "value": {
        "_hex": "0x0"
      },
      "nonce": 0,
      "data": "0x3ba15036",
      "r": "0x611175ff84b7bd5c6636a869da268b690b879a3f10f006f8057a92637920197c",
      "s": "0x26972686805d4eae5af1677e6fc40cde877a514121b813892820b7be258b4cce",
      "v": 27,
      "creates": null,
      "raw": "0xf86980850ba43b740083015f9094793ae8c1b1a160bfc07bfb0d04f85eab1a71f4f280843ba150361ba0611175ff84b7bd5c6636a869da268b690b879a3f10f006f8057a92637920197ca026972686805d4eae5af1677e6fc40cde877a514121b813892820b7be258b4cce",
      "networkId": 0,
      "chainId": 0
    },
    {
      "hash": "0x373d5116d92e024ccc505192fc66329466d214a08c16ae0d3205190826ab0e92",
      "blockHash": "0xb193594f73ae329238ea74adf289b13b57fbc355c453a678fa7639bf7c98fbbc",
      "blockNumber": 68480,
      "transactionIndex": 4,
      "confirmations": null,
      "from": "0xd53Fd1D3ECCDA88636d23084700CC975549fe5e8",
      "gasPrice": {
        "_hex": "0xba43b7400"
      },
      "gasLimit": {
        "_hex": "0x15f90"
      },
      "to": "0x793AE8C1b1a160BFc07BFB0d04F85eab1A71F4f2",
      "value": {
        "_hex": "0x0"
      },
      "nonce": 0,
      "data": "0x3ba15036",
      "r": "0x3b56d0efcc732c76e5833f661b41b5ac61aee55ab20dabbc2270edf7f66a3682",
      "s": "0x52450799a29812165b68030485cf3294c55b1f92abf1de37e4fa88cbcdb9a259",
      "v": 27,
      "creates": null,
      "raw": "0xf86980850ba43b740083015f9094793ae8c1b1a160bfc07bfb0d04f85eab1a71f4f280843ba150361ba03b56d0efcc732c76e5833f661b41b5ac61aee55ab20dabbc2270edf7f66a3682a052450799a29812165b68030485cf3294c55b1f92abf1de37e4fa88cbcdb9a259",
      "networkId": 0,
      "chainId": 0
    },
    {
      "hash": "0x43501b747821a825e6dd85f939e81b0ab3b3c20313e55e1003317faa3c5a9613",
      "blockHash": "0xb193594f73ae329238ea74adf289b13b57fbc355c453a678fa7639bf7c98fbbc",
      "blockNumber": 68480,
      "transactionIndex": 5,
      "confirmations": null,
      "from": "0xeBe2F503c9410B0d443907f662955BdB324E071A",
      "gasPrice": {
        "_hex": "0xba43b7400"
      },
      "gasLimit": {
        "_hex": "0x15f90"
      },
      "to": "0x793AE8C1b1a160BFc07BFB0d04F85eab1A71F4f2",
      "value": {
        "_hex": "0x0"
      },
      "nonce": 0,
      "data": "0x3ba15036",
      "r": "0xa84f58e0e0fb77bfb360d889f169499d27676a8a646052ff00accd72525a7654",
      "s": "0x5bd6cb687d168ba4edb1bd7eea94439b27f69f955fbe010778e53e09e456d8f0",
      "v": 28,
      "creates": null,
      "raw": "0xf86980850ba43b740083015f9094793ae8c1b1a160bfc07bfb0d04f85eab1a71f4f280843ba150361ca0a84f58e0e0fb77bfb360d889f169499d27676a8a646052ff00accd72525a7654a05bd6cb687d168ba4edb1bd7eea94439b27f69f955fbe010778e53e09e456d8f0",
      "networkId": 0,
      "chainId": 0
    },
    {
      "hash": "0x5de16dc81ad2163b2d896ea581855a00cc5eeb3563735f68db595d88aaf8bc6a",
      "blockHash": "0xb193594f73ae329238ea74adf289b13b57fbc355c453a678fa7639bf7c98fbbc",
      "blockNumber": 68480,
      "transactionIndex": 6,
      "confirmations": null,
      "from": "0xa0b39A4977Be8f8586b3981802c999d8F741d721",
      "gasPrice": {
        "_hex": "0xba43b7400"
      },
      "gasLimit": {
        "_hex": "0x15f90"
      },
      "to": "0x793AE8C1b1a160BFc07BFB0d04F85eab1A71F4f2",
      "value": {
        "_hex": "0x0"
      },
      "nonce": 0,
      "data": "0x3ba15036",
      "r": "0x9b6df3c5d45a5d38e0308bff00e2a43f15957083e65bb3b50187443fd09e35b0",
      "s": "0x1040e8b1697f65020767303a4eda816d8f80691516a1b7d7ffa60a90a472f87c",
      "v": 28,
      "creates": null,
      "raw": "0xf86980850ba43b740083015f9094793ae8c1b1a160bfc07bfb0d04f85eab1a71f4f280843ba150361ca09b6df3c5d45a5d38e0308bff00e2a43f15957083e65bb3b50187443fd09e35b0a01040e8b1697f65020767303a4eda816d8f80691516a1b7d7ffa60a90a472f87c",
      "networkId": 0,
      "chainId": 0
    },
    {
      "hash": "0xbd1724aa066c12b5501f6a8631cdfb96e944c5f71a7e79918ef6390ddf51e389",
      "blockHash": "0xb193594f73ae329238ea74adf289b13b57fbc355c453a678fa7639bf7c98fbbc",
      "blockNumber": 68480,
      "transactionIndex": 7,
      "confirmations": null,
      "from": "0xff69D0DaCA53c25BA6026094841F66E48735755A",
      "gasPrice": {
        "_hex": "0xba43b7400"
      },
      "gasLimit": {
        "_hex": "0x15f90"
      },
      "to": "0x793AE8C1b1a160BFc07BFB0d04F85eab1A71F4f2",
      "value": {
        "_hex": "0x0"
      },
      "nonce": 0,
      "data": "0x3ba15036",
      "r": "0xb877660f467c32f01b21a4a764a85785d65fced3efc6583b92e990c230de31e5",
      "s": "0x396f0a5f55202b34de9dfdea9356d02bc11ea6262452335fe4e70e2640d65f4f",
      "v": 28,
      "creates": null,
      "raw": "0xf86980850ba43b740083015f9094793ae8c1b1a160bfc07bfb0d04f85eab1a71f4f280843ba150361ca0b877660f467c32f01b21a4a764a85785d65fced3efc6583b92e990c230de31e5a0396f0a5f55202b34de9dfdea9356d02bc11ea6262452335fe4e70e2640d65f4f",
      "networkId": 0,
      "chainId": 0
    },
    {
      "hash": "0xfaa8d329436ae59fd638e137b28e0d6639994d1299f00f33904d146b51d02a2a",
      "blockHash": "0xb193594f73ae329238ea74adf289b13b57fbc355c453a678fa7639bf7c98fbbc",
      "blockNumber": 68480,
      "transactionIndex": 8,
      "confirmations": null,
      "from": "0x2Ade1b19d0fB46aB87945028B7F312ed680da721",
      "gasPrice": {
        "_hex": "0xba43b7400"
      },
      "gasLimit": {
        "_hex": "0x15f90"
      },
      "to": "0x793AE8C1b1a160BFc07BFB0d04F85eab1A71F4f2",
      "value": {
        "_hex": "0x0"
      },
      "nonce": 0,
      "data": "0x3ba15036",
      "r": "0xe1e1f654b08b83de09784fbc7430612d6684703081a70a3ae1bbae83b1b61864",
      "s": "0x1caa193ce4eda70c23dfc413dcf1573df1d50a7a275299adf49bc84cc7dc49af",
      "v": 28,
      "creates": null,
      "raw": "0xf86980850ba43b740083015f9094793ae8c1b1a160bfc07bfb0d04f85eab1a71f4f280843ba150361ca0e1e1f654b08b83de09784fbc7430612d6684703081a70a3ae1bbae83b1b61864a01caa193ce4eda70c23dfc413dcf1573df1d50a7a275299adf49bc84cc7dc49af",
      "networkId": 0,
      "chainId": 0
    },
    {
      "hash": "0x93b1b57c2ee84dc9c3399135fab53226f644b1c60c5497e7b4115d2dac138934",
      "blockHash": "0xb193594f73ae329238ea74adf289b13b57fbc355c453a678fa7639bf7c98fbbc",
      "blockNumber": 68480,
      "transactionIndex": 9,
      "confirmations": null,
      "from": "0x6429e332f21e2FA7ac4a8cDa7c080a0F5C89793D",
      "gasPrice": {
        "_hex": "0xba43b7400"
      },
      "gasLimit": {
        "_hex": "0x15f90"
      },
      "to": "0x793AE8C1b1a160BFc07BFB0d04F85eab1A71F4f2",
      "value": {
        "_hex": "0x0"
      },
      "nonce": 0,
      "data": "0x3ba15036",
      "r": "0x4c258f653bc7ff361af25f39c3ed5647ea3f7fa06ee3a6af0503f8795928beec",
      "s": "0x44f612b51d4c7e3c81e0785dd78ca06fcbfa80bd493343298eb453644e9c79d6",
      "v": 28,
      "creates": null,
      "raw": "0xf86980850ba43b740083015f9094793ae8c1b1a160bfc07bfb0d04f85eab1a71f4f280843ba150361ca04c258f653bc7ff361af25f39c3ed5647ea3f7fa06ee3a6af0503f8795928beeca044f612b51d4c7e3c81e0785dd78ca06fcbfa80bd493343298eb453644e9c79d6",
      "networkId": 0,
      "chainId": 0
    },
    {
      "hash": "0x8b2749214da59673fe44e930d29fddf0376cc27e48fa35f010d944ce2a90d164",
      "blockHash": "0xb193594f73ae329238ea74adf289b13b57fbc355c453a678fa7639bf7c98fbbc",
      "blockNumber": 68480,
      "transactionIndex": 10,
      "confirmations": null,
      "from": "0xCA0d005668acbD93B7518Ed319485ac4aC8f8688",
      "gasPrice": {
        "_hex": "0xba43b7400"
      },
      "gasLimit": {
        "_hex": "0x15f90"
      },
      "to": "0x793AE8C1b1a160BFc07BFB0d04F85eab1A71F4f2",
      "value": {
        "_hex": "0x0"
      },
      "nonce": 0,
      "data": "0x3ba15036",
      "r": "0xe5cfe10f1935bf2de65101e0b4e17936d4864348529418ac73bb27fb375c5bf2",
      "s": "0x0a2033578617c470dfba8b0c90480b5ef063c13249ab8f9412cc3902bc14458f",
      "v": 27,
      "creates": null,
      "raw": "0xf86980850ba43b740083015f9094793ae8c1b1a160bfc07bfb0d04f85eab1a71f4f280843ba150361ba0e5cfe10f1935bf2de65101e0b4e17936d4864348529418ac73bb27fb375c5bf2a00a2033578617c470dfba8b0c90480b5ef063c13249ab8f9412cc3902bc14458f",
      "networkId": 0,
      "chainId": 0
    },
    {
      "hash": "0x4bd0d14b05ea53a8f7eb1171fd6e0d8886252ddc067fe78917b36c5962e23001",
      "blockHash": "0xb193594f73ae329238ea74adf289b13b57fbc355c453a678fa7639bf7c98fbbc",
      "blockNumber": 68480,
      "transactionIndex": 11,
      "confirmations": null,
      "from": "0x4B126a1971909824e3645FB81ef8DA3606ab117F",
      "gasPrice": {
        "_hex": "0xba43b7400"
      },
      "gasLimit": {
        "_hex": "0x15f90"
      },
      "to": "0x793AE8C1b1a160BFc07BFB0d04F85eab1A71F4f2",
      "value": {
        "_hex": "0x0"
      },
      "nonce": 0,
      "data": "0x3ba15036",
      "r": "0x2ebe016b498de6d62a7c3a407e4c13a849af6f879b70b76d6de0a3440d461bf8",
      "s": "0x5a96dc0e1fe7d891fe6bb483567a963f1b0d61d34becc31ab9c66f9262afe7a7",
      "v": 27,
      "creates": null,
      "raw": "0xf86980850ba43b740083015f9094793ae8c1b1a160bfc07bfb0d04f85eab1a71f4f280843ba150361ba02ebe016b498de6d62a7c3a407e4c13a849af6f879b70b76d6de0a3440d461bf8a05a96dc0e1fe7d891fe6bb483567a963f1b0d61d34becc31ab9c66f9262afe7a7",
      "networkId": 0,
      "chainId": 0
    },
    {
      "hash": "0x4a9d34dbd6bc0277f42995f95f2696c50ce09a5abaedbf1f50d637e4f161442d",
      "blockHash": "0xb193594f73ae329238ea74adf289b13b57fbc355c453a678fa7639bf7c98fbbc",
      "blockNumber": 68480,
      "transactionIndex": 12,
      "confirmations": null,
      "from": "0xC466ba67fe0246f41338f00e0D0f7A713ADA0020",
      "gasPrice": {
        "_hex": "0xba43b7400"
      },
      "gasLimit": {
        "_hex": "0x15f90"
      },
      "to": "0x793AE8C1b1a160BFc07BFB0d04F85eab1A71F4f2",
      "value": {
        "_hex": "0x0"
      },
      "nonce": 0,
      "data": "0x3ba15036",
      "r": "0xd8d28d8899d44880861a4464cef8a4d8711a0c5a85acc7b5e6048839013620d0",
      "s": "0x53de61a5ebb762d9d3669cbc08ac3f355c2044fb0edd1911b83e72b69d4e4d2f",
      "v": 27,
      "creates": null,
      "raw": "0xf86980850ba43b740083015f9094793ae8c1b1a160bfc07bfb0d04f85eab1a71f4f280843ba150361ba0d8d28d8899d44880861a4464cef8a4d8711a0c5a85acc7b5e6048839013620d0a053de61a5ebb762d9d3669cbc08ac3f355c2044fb0edd1911b83e72b69d4e4d2f",
      "networkId": 0,
      "chainId": 0
    },
    {
      "hash": "0x6c8eb101e60d5340a66fdffb6ae3238a35e5d34638cc8cc6e391167f5903a67a",
      "blockHash": "0xb193594f73ae329238ea74adf289b13b57fbc355c453a678fa7639bf7c98fbbc",
      "blockNumber": 68480,
      "transactionIndex": 13,
      "confirmations": null,
      "from": "0xE589eb492172324b7A65d436039d8BA067ce38da",
      "gasPrice": {
        "_hex": "0xba43b7400"
      },
      "gasLimit": {
        "_hex": "0x15f90"
      },
      "to": "0x793AE8C1b1a160BFc07BFB0d04F85eab1A71F4f2",
      "value": {
        "_hex": "0x0"
      },
      "nonce": 0,
      "data": "0x3ba15036",
      "r": "0xfbb436e241af9b0097d03710a6290151cbbc8f3c924ce614ae252e7bb523235b",
      "s": "0x0f860ecd335304ab101a1e6be74dfc4f3b2940d5ac82f30e8b8f61865395d52f",
      "v": 27,
      "creates": null,
      "raw": "0xf86980850ba43b740083015f9094793ae8c1b1a160bfc07bfb0d04f85eab1a71f4f280843ba150361ba0fbb436e241af9b0097d03710a6290151cbbc8f3c924ce614ae252e7bb523235ba00f860ecd335304ab101a1e6be74dfc4f3b2940d5ac82f30e8b8f61865395d52f",
      "networkId": 0,
      "chainId": 0
    },
    {
      "hash": "0xcbe25227506392bca71e3db97fd82740dc038f8084dede79a038de12daac1620",
      "blockHash": "0xb193594f73ae329238ea74adf289b13b57fbc355c453a678fa7639bf7c98fbbc",
      "blockNumber": 68480,
      "transactionIndex": 14,
      "confirmations": null,
      "from": "0x2c8bFf7fa761b56d82A36c06274CC88a305A63fd",
      "gasPrice": {
        "_hex": "0xba43b7400"
      },
      "gasLimit": {
        "_hex": "0x15f90"
      },
      "to": "0x793AE8C1b1a160BFc07BFB0d04F85eab1A71F4f2",
      "value": {
        "_hex": "0x0"
      },
      "nonce": 0,
      "data": "0x3ba15036",
      "r": "0x523f901af6d25620e654648996e770e04c435f1500322f2ca13e3de402346aed",
      "s": "0x2d0b3be87118e81cabea3839cb96218c2ff6334b95587c14bca1e29402eb05ee",
      "v": 27,
      "creates": null,
      "raw": "0xf86980850ba43b740083015f9094793ae8c1b1a160bfc07bfb0d04f85eab1a71f4f280843ba150361ba0523f901af6d25620e654648996e770e04c435f1500322f2ca13e3de402346aeda02d0b3be87118e81cabea3839cb96218c2ff6334b95587c14bca1e29402eb05ee",
      "networkId": 0,
      "chainId": 0
    },
    {
      "hash": "0x85939f39834f693ffc7112fe2c187896d1c2439bb36deb0b1840aefa64eccee7",
      "blockHash": "0xb193594f73ae329238ea74adf289b13b57fbc355c453a678fa7639bf7c98fbbc",
      "blockNumber": 68480,
      "transactionIndex": 15,
      "confirmations": null,
      "from": "0xcF0B6F7F9070086356cc0127B822B01CaD2B42D3",
      "gasPrice": {
        "_hex": "0xba43b7400"
      },
      "gasLimit": {
        "_hex": "0x15f90"
      },
      "to": "0x793AE8C1b1a160BFc07BFB0d04F85eab1A71F4f2",
      "value": {
        "_hex": "0x0"
      },
      "nonce": 0,
      "data": "0x3ba15036",
      "r": "0x4a4843aa8f6a4c33cf8ac7382c810d44f8dffcdae47c84458c4c13722dfd82fd",
      "s": "0x408e3e1856f6583c968075e39fa168a675fa7c52ae743ed2e9441f7935ad432e",
      "v": 28,
      "creates": null,
      "raw": "0xf86980850ba43b740083015f9094793ae8c1b1a160bfc07bfb0d04f85eab1a71f4f280843ba150361ca04a4843aa8f6a4c33cf8ac7382c810d44f8dffcdae47c84458c4c13722dfd82fda0408e3e1856f6583c968075e39fa168a675fa7c52ae743ed2e9441f7935ad432e",
      "networkId": 0,
      "chainId": 0
    },
    {
      "hash": "0x93b78f4ae580aa2849fd5f2a6b900c436cc63796c254cec69cf4713c0845ce4c",
      "blockHash": "0xb193594f73ae329238ea74adf289b13b57fbc355c453a678fa7639bf7c98fbbc",
      "blockNumber": 68480,
      "transactionIndex": 16,
      "confirmations": null,
      "from": "0xb68876E055E565adB4dd6f5Fcad0F3a52FD305eA",
      "gasPrice": {
        "_hex": "0xba43b7400"
      },
      "gasLimit": {
        "_hex": "0x15f90"
      },
      "to": "0x793AE8C1b1a160BFc07BFB0d04F85eab1A71F4f2",
      "value": {
        "_hex": "0x0"
      },
      "nonce": 0,
      "data": "0x3ba15036",
      "r": "0x47412e2fd61f738e3f825944ff4be8a1c77d350e2758e245a97979d1d8a41465",
      "s": "0x4a8a56499a6671d23c5c38fa61a6f7980ab515eed37f3d221290afe0a7ee3035",
      "v": 28,
      "creates": null,
      "raw": "0xf86980850ba43b740083015f9094793ae8c1b1a160bfc07bfb0d04f85eab1a71f4f280843ba150361ca047412e2fd61f738e3f825944ff4be8a1c77d350e2758e245a97979d1d8a41465a04a8a56499a6671d23c5c38fa61a6f7980ab515eed37f3d221290afe0a7ee3035",
      "networkId": 0,
      "chainId": 0
    },
    {
      "hash": "0xf7338aee1314b194bf0d312cbfe553a5ee422660887ecc20f0869ccf0f920229",
      "blockHash": "0xb193594f73ae329238ea74adf289b13b57fbc355c453a678fa7639bf7c98fbbc",
      "blockNumber": 68480,
      "transactionIndex": 17,
      "confirmations": null,
      "from": "0x606dDD67Db4f7A67E024511E7Ea4E56bf402bFf0",
      "gasPrice": {
        "_hex": "0xba43b7400"
      },
      "gasLimit": {
        "_hex": "0x15f90"
      },
      "to": "0x793AE8C1b1a160BFc07BFB0d04F85eab1A71F4f2",
      "value": {
        "_hex": "0x0"
      },
      "nonce": 0,
      "data": "0x3ba15036",
      "r": "0x4990d58eec6f1c86600e4f4bc6096994e1bc944bb73a416ec5705a9179e26bb5",
      "s": "0x18025ef1486a450d0e475ff3a710ee53360e622b482c66efbe48e0855510e0a0",
      "v": 28,
      "creates": null,
      "raw": "0xf86980850ba43b740083015f9094793ae8c1b1a160bfc07bfb0d04f85eab1a71f4f280843ba150361ca04990d58eec6f1c86600e4f4bc6096994e1bc944bb73a416ec5705a9179e26bb5a018025ef1486a450d0e475ff3a710ee53360e622b482c66efbe48e0855510e0a0",
      "networkId": 0,
      "chainId": 0
    },
    {
      "hash": "0xf3936cdc603a538b3cdb4a8abd38a9af2b15c66975e5fb127dec7f2fb1efeb6c",
      "blockHash": "0xb193594f73ae329238ea74adf289b13b57fbc355c453a678fa7639bf7c98fbbc",
      "blockNumber": 68480,
      "transactionIndex": 18,
      "confirmations": null,
      "from": "0x60946C1346EB25f14fb21A385F99D416411816EB",
      "gasPrice": {
        "_hex": "0xba43b7400"
      },
      "gasLimit": {
        "_hex": "0x15f90"
      },
      "to": "0x793AE8C1b1a160BFc07BFB0d04F85eab1A71F4f2",
      "value": {
        "_hex": "0x0"
      },
      "nonce": 0,
      "data": "0x3ba15036",
      "r": "0x0c4aab0460ed3d3d0b03d254fa0458eab379d98964bb8418a9cc3ad32c510482",
      "s": "0x4e2c0ee97777d1c4cb37e4004a6c6a7bcfe4361cf11a11563c929761ebd3552d",
      "v": 28,
      "creates": null,
      "raw": "0xf86980850ba43b740083015f9094793ae8c1b1a160bfc07bfb0d04f85eab1a71f4f280843ba150361ca00c4aab0460ed3d3d0b03d254fa0458eab379d98964bb8418a9cc3ad32c510482a04e2c0ee97777d1c4cb37e4004a6c6a7bcfe4361cf11a11563c929761ebd3552d",
      "networkId": 0,
      "chainId": 0
    },
    {
      "hash": "0xde6aa3bf2ebacacae72d7ccffa13ea70f217df8e669692c9bf649eb1ecf2c60f",
      "blockHash": "0xb193594f73ae329238ea74adf289b13b57fbc355c453a678fa7639bf7c98fbbc",
      "blockNumber": 68480,
      "transactionIndex": 19,
      "confirmations": null,
      "from": "0x3073FA87B3481524f6828091cA6f993759F0D568",
      "gasPrice": {
        "_hex": "0xba43b7400"
      },
      "gasLimit": {
        "_hex": "0x15f90"
      },
      "to": "0x793AE8C1b1a160BFc07BFB0d04F85eab1A71F4f2",
      "value": {
        "_hex": "0x0"
      },
      "nonce": 0,
      "data": "0x3ba15036",
      "r": "0xa388147b32af730f7aa4f3ba7819cfc12ff1d7613887341c58b76273ad927f90",
      "s": "0x6b052168135caa172adb20bbfe6452ef1833e50ed33006f0b78f83a0d51cf916",
      "v": 27,
      "creates": null,
      "raw": "0xf86980850ba43b740083015f9094793ae8c1b1a160bfc07bfb0d04f85eab1a71f4f280843ba150361ba0a388147b32af730f7aa4f3ba7819cfc12ff1d7613887341c58b76273ad927f90a06b052168135caa172adb20bbfe6452ef1833e50ed33006f0b78f83a0d51cf916",
      "networkId": 0,
      "chainId": 0
    },
    {
      "hash": "0x522d5457eddad2ced5119fa842a555110acaf795738411dd5862c2df0cf8e01d",
      "blockHash": "0xb193594f73ae329238ea74adf289b13b57fbc355c453a678fa7639bf7c98fbbc",
      "blockNumber": 68480,
      "transactionIndex": 20,
      "confirmations": null,
      "from": "0xC08599A297eAF7f1e4c3295F0e4E04E703844895",
      "gasPrice": {
        "_hex": "0xba43b7400"
      },
      "gasLimit": {
        "_hex": "0x15f90"
      },
      "to": "0x793AE8C1b1a160BFc07BFB0d04F85eab1A71F4f2",
      "value": {
        "_hex": "0x0"
      },
      "nonce": 0,
      "data": "0x3ba15036",
      "r": "0x985d3c16ba14671b5fc4512680b4f7d7bed324a4976e4dbd07e92ea05df4d7a0",
      "s": "0x3e32de6c7251d2ad557fcb9e3a9ccac8fd4c0a3c122581c29f7a46d320f12f3c",
      "v": 27,
      "creates": null,
      "raw": "0xf86980850ba43b740083015f9094793ae8c1b1a160bfc07bfb0d04f85eab1a71f4f280843ba150361ba0985d3c16ba14671b5fc4512680b4f7d7bed324a4976e4dbd07e92ea05df4d7a0a03e32de6c7251d2ad557fcb9e3a9ccac8fd4c0a3c122581c29f7a46d320f12f3c",
      "networkId": 0,
      "chainId": 0
    },
    {
      "hash": "0x1e14b586022ea472f2983debe25328f1cc70b78620116860b34d6ff312b15c6b",
      "blockHash": "0xb193594f73ae329238ea74adf289b13b57fbc355c453a678fa7639bf7c98fbbc",
      "blockNumber": 68480,
      "transactionIndex": 21,
      "confirmations": null,
      "from": "0xB3Fa93fcA051EB98b2BE652B661CCa7a13A09Efa",
      "gasPrice": {
        "_hex": "0xba43b7400"
      },
      "gasLimit": {
        "_hex": "0x15f90"
      },
      "to": "0x793AE8C1b1a160BFc07BFB0d04F85eab1A71F4f2",
      "value": {
        "_hex": "0x0"
      },
      "nonce": 0,
      "data": "0x3ba15036",
      "r": "0x1ccbd12e43d799ab045c76c0bea22b62608eb16c13113b6be88b53e0f1c0e04f",
      "s": "0x68e5e420da40dcd1925e4d4684c5147f9b44ccb4bf17817c3eceaaac34b69178",
      "v": 27,
      "creates": null,
      "raw": "0xf86980850ba43b740083015f9094793ae8c1b1a160bfc07bfb0d04f85eab1a71f4f280843ba150361ba01ccbd12e43d799ab045c76c0bea22b62608eb16c13113b6be88b53e0f1c0e04fa068e5e420da40dcd1925e4d4684c5147f9b44ccb4bf17817c3eceaaac34b69178",
      "networkId": 0,
      "chainId": 0
    },
    {
      "hash": "0x58dc4bbfc1f1efa2e32c444c1dafdca123a2a701357aea15a4070842c85beddd",
      "blockHash": "0xb193594f73ae329238ea74adf289b13b57fbc355c453a678fa7639bf7c98fbbc",
      "blockNumber": 68480,
      "transactionIndex": 22,
      "confirmations": null,
      "from": "0x8B9A414Ecb66Bf36Ed761fbAD2d07024Ba22E7dB",
      "gasPrice": {
        "_hex": "0xba43b7400"
      },
      "gasLimit": {
        "_hex": "0x15f90"
      },
      "to": "0x793AE8C1b1a160BFc07BFB0d04F85eab1A71F4f2",
      "value": {
        "_hex": "0x0"
      },
      "nonce": 0,
      "data": "0x3ba15036",
      "r": "0x892f71f87dd63cd6ecb780e643ba76b07af849f3ea60e8af12a6a2016ac5e831",
      "s": "0x1496089114c32a537b38e427cc1a50116605e301360bcdad141edb445bfbb6cb",
      "v": 28,
      "creates": null,
      "raw": "0xf86980850ba43b740083015f9094793ae8c1b1a160bfc07bfb0d04f85eab1a71f4f280843ba150361ca0892f71f87dd63cd6ecb780e643ba76b07af849f3ea60e8af12a6a2016ac5e831a01496089114c32a537b38e427cc1a50116605e301360bcdad141edb445bfbb6cb",
      "networkId": 0,
      "chainId": 0
    },
    {
      "hash": "0xc0a05637255f9e55f77d132ac15223238db9db9cee1edc4d92ce2866c64059ca",
      "blockHash": "0xb193594f73ae329238ea74adf289b13b57fbc355c453a678fa7639bf7c98fbbc",
      "blockNumber": 68480,
      "transactionIndex": 23,
      "confirmations": null,
      "from": "0xbeAB84991C10ad6b94ecFCb832E683df8B124291",
      "gasPrice": {
        "_hex": "0xba43b7400"
      },
      "gasLimit": {
        "_hex": "0x15f90"
      },
      "to": "0x793AE8C1b1a160BFc07BFB0d04F85eab1A71F4f2",
      "value": {
        "_hex": "0x0"
      },
      "nonce": 0,
      "data": "0x3ba15036",
      "r": "0xd011e6f828953fb54e8b58e789da96d8e420f4177510b112511eeea73aaaf7c0",
      "s": "0x4b6c24858e567310faa6413fdea470de536e7b7dace6d4d2ed8bfb074d1f04e7",
      "v": 28,
      "creates": null,
      "raw": "0xf86980850ba43b740083015f9094793ae8c1b1a160bfc07bfb0d04f85eab1a71f4f280843ba150361ca0d011e6f828953fb54e8b58e789da96d8e420f4177510b112511eeea73aaaf7c0a04b6c24858e567310faa6413fdea470de536e7b7dace6d4d2ed8bfb074d1f04e7",
      "networkId": 0,
      "chainId": 0
    },
    {
      "hash": "0xeba126e11f46b6867e57568cb06ddc010fdc3983b366a0d2470e74ecd6ffec46",
      "blockHash": "0xb193594f73ae329238ea74adf289b13b57fbc355c453a678fa7639bf7c98fbbc",
      "blockNumber": 68480,
      "transactionIndex": 24,
      "confirmations": null,
      "from": "0xc18A7B8e7ba9e9457d24465c854FF8e80661de4c",
      "gasPrice": {
        "_hex": "0xba43b7400"
      },
      "gasLimit": {
        "_hex": "0x15f90"
      },
      "to": "0x793AE8C1b1a160BFc07BFB0d04F85eab1A71F4f2",
      "value": {
        "_hex": "0x0"
      },
      "nonce": 0,
      "data": "0x3ba15036",
      "r": "0x33deb890907bdb0e0218335dd722b7232b566ed15b67088883eff1c43a8fcf1d",
      "s": "0x12b25f07a19d0fda7ac41dd57579a2e13d19f382075a21d17ce68f55262b9f63",
      "v": 27,
      "creates": null,
      "raw": "0xf86980850ba43b740083015f9094793ae8c1b1a160bfc07bfb0d04f85eab1a71f4f280843ba150361ba033deb890907bdb0e0218335dd722b7232b566ed15b67088883eff1c43a8fcf1da012b25f07a19d0fda7ac41dd57579a2e13d19f382075a21d17ce68f55262b9f63",
      "networkId": 0,
      "chainId": 0
    },
    {
      "hash": "0x20444b73236417243c1e4477eabf6dc6d04bf836221883d07c63ada33f24c742",
      "blockHash": "0xb193594f73ae329238ea74adf289b13b57fbc355c453a678fa7639bf7c98fbbc",
      "blockNumber": 68480,
      "transactionIndex": 25,
      "confirmations": null,
      "from": "0x6747f922385c9a6F9cfDf095F34345257DD597bE",
      "gasPrice": {
        "_hex": "0xba43b7400"
      },
      "gasLimit": {
        "_hex": "0x5208"
      },
      "to": "0x774881773e6b791e0601de6c79d00F2b45Bc2146",
      "value": {
        "_hex": "0x1fcbfa42bd6000"
      },
      "nonce": 104,
      "data": "0x",
      "r": "0x4310ac82479d26ddad0254cb1f16d7f240164a28a026bfe020a7498a93ab2a79",
      "s": "0x1aa25bae4b5e44123315960bc32355c7c01ff967e055af0a910d2c613ab21d7b",
      "v": 27,
      "creates": null,
      "raw": "0xf86b68850ba43b740082520894774881773e6b791e0601de6c79d00f2b45bc2146871fcbfa42bd6000801ba04310ac82479d26ddad0254cb1f16d7f240164a28a026bfe020a7498a93ab2a79a01aa25bae4b5e44123315960bc32355c7c01ff967e055af0a910d2c613ab21d7b",
      "networkId": 0,
      "chainId": 0
    },
    {
      "hash": "0x5a22d08dabb20c7959f57fc7d9863107602dacf844e83e0ce553f913cf9e25c4",
      "blockHash": "0xb193594f73ae329238ea74adf289b13b57fbc355c453a678fa7639bf7c98fbbc",
      "blockNumber": 68480,
      "transactionIndex": 26,
      "confirmations": null,
      "from": "0xA638f00871d5f75891cACa9BC61AC0DD3cBbA97b",
      "gasPrice": {
        "_hex": "0xba43b7400"
      },
      "gasLimit": {
        "_hex": "0x15f90"
      },
      "to": "0x793AE8C1b1a160BFc07BFB0d04F85eab1A71F4f2",
      "value": {
        "_hex": "0x0"
      },
      "nonce": 0,
      "data": "0x3ba15036",
      "r": "0x0333047f1611bec0b58d69867bd70b2bdeb3205bd4dd2b41f29f95e355b8a343",
      "s": "0x5c98c8132e8753778f1fe01de3174d738d9ddeef432fbf09a36c92ffb6aa17cd",
      "v": 27,
      "creates": null,
      "raw": "0xf86980850ba43b740083015f9094793ae8c1b1a160bfc07bfb0d04f85eab1a71f4f280843ba150361ba00333047f1611bec0b58d69867bd70b2bdeb3205bd4dd2b41f29f95e355b8a343a05c98c8132e8753778f1fe01de3174d738d9ddeef432fbf09a36c92ffb6aa17cd",
      "networkId": 0,
      "chainId": 0
    },
    {
      "hash": "0x88e1e1b7914fa953a1bcdca4c1b8574f963fceee176981c72929c8ecfb697aa5",
      "blockHash": "0xb193594f73ae329238ea74adf289b13b57fbc355c453a678fa7639bf7c98fbbc",
      "blockNumber": 68480,
      "transactionIndex": 27,
      "confirmations": null,
      "from": "0x46EcC6DF297F37CF81D3ABa3f1C522479a6FA415",
      "gasPrice": {
        "_hex": "0xba43b7400"
      },
      "gasLimit": {
        "_hex": "0x15f90"
      },
      "to": "0x793AE8C1b1a160BFc07BFB0d04F85eab1A71F4f2",
      "value": {
        "_hex": "0x0"
      },
      "nonce": 0,
      "data": "0x3ba15036",
      "r": "0x8e28d58c0907c14e120e4512b9f247e269425298cdbf0acaf4842ccf28636841",
      "s": "0x5b5043ce4bc6d816dc9ff3c302f0d1edd6f8a0e1a9e3886ebbb13f460b56d060",
      "v": 27,
      "creates": null,
      "raw": "0xf86980850ba43b740083015f9094793ae8c1b1a160bfc07bfb0d04f85eab1a71f4f280843ba150361ba08e28d58c0907c14e120e4512b9f247e269425298cdbf0acaf4842ccf28636841a05b5043ce4bc6d816dc9ff3c302f0d1edd6f8a0e1a9e3886ebbb13f460b56d060",
      "networkId": 0,
      "chainId": 0
    }
  ]
}