{
  "hash": "0x7430e3d08f1470f7dac02a720e312954b19d72fe1307fa8f811ed5185940b124",
  "parentHash": "0x859a750baa4772780d69f25a21c67d6649bb340f95bccf15a40aff7829a2d85a",
  "number": 47769,
  "timestamp": 1438945939,
  "nonce": "0x847f630d824bb32b",
  "difficulty": 1453735521102,
  "gasLimit": {
    "_hex": "0xf0c7"
  },
  "gasUsed": {
    "_hex": "0x5208"
  },
  "miner": "0x580992B51e3925e23280EfB93d3047C82f17E038",
  "extraData": "0x476574682f76312e302e312f6c696e75782f676f312e342e32",
  "transactions": [
    {
      "hash": "0xe7f10e2a1c3e8b07d599e2f87890c140d15131148ac3082f90ad32603b5afb64",
      "blockHash": "0x7430e3d08f1470f7dac02a720e312954b19d72fe1307fa8f811ed5185940b124",
      "blockNumber": 47769,
      "transactionIndex": 0,
      "confirmations": null,
      "from": "0xe6A7a1d47ff21B6321162AEA7C6CB457D5476Bca",
      "gasPrice": {
        "_hex": "0xd2b8b904b"
      },
      "gasLimit": {
        "_hex": "0x55f0"
      },
      "to": "0x84BDA1c0A280B67d35727441B56e102aDCc594ac",
      "value": {
        "_hex": "0x1a4963709ca40000"
      },
      "nonce": 224,
      "data": "0x",
      "r": "0xd5323a79158c2418c10777adc69fa3a799e4df8c59d258408ad8515588d1477e",
      "s": "0x02e96afcbbe1cc88d83d5f346fbdfe5cb8363c801176067cebc0f099d876a074",
      "v": 28,
      "creates": null,
      "raw": "0xf86d81e0850d2b8b904b8255f09484bda1c0a280b67d35727441b56e102adcc594ac881a4963709ca40000801ca0d5323a79158c2418c10777adc69fa3a799e4df8c59d258408ad8515588d1477ea002e96afcbbe1cc88d83d5f346fbdfe5cb8363c801176067cebc0f099d876a074",
      "networkId": 0,
      "chainId": 0
    }
  ]
}