{
  "hash": "0x7aa4a3a094bf00f1fc784762af804a5fbbdbc4e01a7fff4399d5ddf845207b62",
  "parentHash": "0xacf688dea9f29c99690f3652034c0c07f25f279498ad3f771e617856e7d1d510",
  "number": 67260,
  "timestamp": 1439268908,
  "nonce": "0x6b791fea289503e3",
  "difficulty": 1926113775730,
  "gasLimit": {
    "_hex": "0x2fefd5"
  },
  "gasUsed": {
    "_hex": "0x5208"
  },
  "miner": "0x9746c7e1ef2bd21FF3997fa467593a89cb852BD0",
  "extraData": "0x476574682f76312e302e312f77696e646f77732f676f312e342e32",
  "transactions": [
    {
      "hash": "0x1381b983a73f4d8ded567d82abf8d9dd8dfffb83c422a1be7dfd93e24b6343b3",
      "blockHash": "0x7aa4a3a094bf00f1fc784762af804a5fbbdbc4e01a7fff4399d5ddf845207b62",
      "blockNumber": 67260,
      "transactionIndex": 0,
      "confirmations": null,
      "from": "0x640bAfc5732d621d5611eed670718409acb81366",
      "gasPrice": {
        "_hex": "0xe17171543"
      },
      "gasLimit": {
        "_hex": "0x15f90"
      },
      "to": "0xDA4E0Ba268486216E0B3Ad5ccEAa1E7EdB1C2751",
      "value": {
        "_hex": "0x19274b259f6540000"
      },
      "nonce": 1,
      "data": "0x",
      "r": "0xdfe697cc2ea51e8f56be4beb9a96e14b69236bd04c85825bbd5e7ab7eb86ca8c",
      "s": "0x51b0c6a8d6707b479c39acb7530791fdb85996d2878fba436dc1c3c5b6348b52",
      "v": 27,
      "creates": null,
      "raw": "0xf86e01850e1717154383015f9094da4e0ba268486216e0b3ad5cceaa1e7edb1c275189019274b259f6540000801ba0dfe697cc2ea51e8f56be4beb9a96e14b69236bd04c85825bbd5e7ab7eb86ca8ca051b0c6a8d6707b479c39acb7530791fdb85996d2878fba436dc1c3c5b6348b52",
      "networkId": 0,
      "chainId": 0
    }
  ]
}