{
  "hash": "0x327509107e9b6a9ea885b36eee1f91758f0a80401162d5c7696cce8e4ab397ba",
  "parentHash": "0x3888cf1c49f45b997a7bfed30aa35789b6df379f1055ef2c808037ecfd9ca3c8",
  "number": 80472,
  "timestamp": 1439485944,
  "nonce": "0x6e94faf5c9bafdba",
  "difficulty": 2421526581508,
  "gasLimit": {
    "_hex": "0x2fefd8"
  },
  "gasUsed": {
    "_hex": "0xaa37"
  },
  "miner": "0xeB1325C8D9d3ea8D74aC11F4B00F1B2367686319",
  "extraData": "0x476574682f76312e302e312f77696e646f77732f676f312e342e32",
  "transactions": [
    {
      "hash": "0x1ab41cffb5c65c7f7e8581f718d1181925b7e0a0828b8fa90f3858b4a8c0526a",
      "blockHash": "0x327509107e9b6a9ea885b36eee1f91758f0a80401162d5c7696cce8e4ab397ba",
      "blockNumber": 80472,
      "transactionIndex": 0,
      "confirmations": null,
      "from": "0x87C5B5874A18B4306DF8a752a6C8cc3E82daFc19",
      "gasPrice": {
        "_hex": "0x10ef42fe3bc"
      },
      "gasLimit": {
        "_hex": "0x493e0"
      },
      "to": "0xC4c51de1AbF5D60DBd329eC0F999Fd8f021ae9fC",
      "value": {
        "_hex": "0x0"
      },
      "nonce": 217,
      "data": "0x03750d9400000000000000000000000087c5b5874a18b4306df8a752a6c8cc3e82dafc196b6b6b0000000000000000000000000000000000000000000000000000000000",
      "r": "0x6d8263196358e2c98ef256d8fdc638c14535993f2aa802476b7c8e2a1d7ee525",
      "s": "0x561ae2bc266af9401fb0455fcf450efd62c6eefef0c6671af9dfef7151ddb64e",
      "v": 27,
      "creates": null,
      "raw": "0xf8ac81d986010ef42fe3bc830493e094c4c51de1abf5d60dbd329ec0f999fd8f021ae9fc80b84403750d9400000000000000000000000087c5b5874a18b4306df8a752a6c8cc3e82dafc196b6b6b00000000000000000000000000000000000000000000000000000000001ba06d8263196358e2c98ef256d8fdc638c14535993f2aa802476b7c8e2a1d7ee525a0561ae2bc266af9401fb0455fcf450efd62c6eefef0c6671af9dfef7151ddb64e",
      "networkId": 0,
      "chainId": 0
    }
  ]
}