{
  "hash": "0x431c0cd5389fc1aa5009175e3e7757772d737e715009a83780a093c086c8b1f8",
  "parentHash": "0x84f7cdf045b9c9c41760b231706a7d2b6bb0a634f38ee3a6b60b479de6fc5b11",
  "number": 115866,
  "timestamp": 1440064694,
  "nonce": "0x36bbed8b72cd1d3c",
  "difficulty": 4549168828625,
  "gasLimit": {
    "_hex": "0x2fefd8"
  },
  "gasUsed": {
    "_hex": "0xa410"
  },
  "miner": "0x35e8e5dC5FBd97c5b421A80B596C030a2Be2A04D",
  "extraData": "0x476574682f76312e302e312f6c696e75782f676f312e342e32",
  "transactions": [
    {
      "hash": "0x4ff2b57e68fd72de2025d9939d32ba8123d5125f84cb3d6c0c2b37608a4296a7",
      "blockHash": "0x431c0cd5389fc1aa5009175e3e7757772d737e715009a83780a093c086c8b1f8",
      "blockNumber": 115866,
      "transactionIndex": 0,
      "confirmations": null,
      "from": "0xf2711F78854D3b5CE29fA3c550a9328D7df40706",
      "gasPrice": {
        "_hex": "0xce2de749a"
      },
      "gasLimit": {
        "_hex": "0x5208"
      },
      "to": "0xFBb1b73C4f0BDa4f67dcA266ce6Ef42f520fBB98",
      "value": {
        "_hex": "0x6dc80d7404779730"
      },
      "nonce": 4,
      "data": "0x",
      "r": "0xacd5bade46eff7030ecd0bbdc038fea5dca7fe1db8ce5c2a706cb09c70a8cf82",
      "s": "0x6600cb9ec9cfc17f7f1133ff2f609c79a72df7d421ad0fc086015daf550ecd62",
      "v": 27,
      "creates": null,
      "raw": "0xf86c04850ce2de749a82520894fbb1b73c4f0bda4f67dca266ce6ef42f520fbb98886dc80d7404779730801ba0acd5bade46eff7030ecd0bbdc038fea5dca7fe1db8ce5c2a706cb09c70a8cf82a06600cb9ec9cfc17f7f1133ff2f609c79a72df7d421ad0fc086015daf550ecd62",
      "networkId": 0,
      "chainId": 0
    },
    {
      "hash": "0x3cafe3a2f151aba9e3eacd95bb5a9b9733b1478940ad178b459db3d2e6894be5",
      "blockHash": "0x431c0cd5389fc1aa5009175e3e7757772d737e715009a83780a093c086c8b1f8",
      "blockNumber": 115866,
      "transactionIndex": 1,
      "confirmations": null,
      "from": "0xeeb66aFe554366d685C7832C6c93727Ba577378D",
      "gasPrice": {
        "_hex": "0xce2de749a"
      },
      "gasLimit": {
        "_hex": "0x5208"
      },
      "to": "0xFBb1b73C4f0BDa4f67dcA266ce6Ef42f520fBB98",
      "value": {
        "_hex": "0xb4299dd04456730"
      },
      "nonce": 7,
      "data": "0x",
      "r": "0x9b78a90b7e8a9cc1cb4980e9a73bc3a5a076863d0055c20984d08d1c3af026c8",
      "s": "0x5e1d72b4752e64e979bf39647d8546c8b21aa2b6714426d6f85aa72d54612c18",
      "v": 27,
      "creates": null,
      "raw": "0xf86c07850ce2de749a82520894fbb1b73c4f0bda4f67dca266ce6ef42f520fbb98880b4299dd04456730801ba09b78a90b7e8a9cc1cb4980e9a73bc3a5a076863d0055c20984d08d1c3af026c8a05e1d72b4752e64e979bf39647d8546c8b21aa2b6714426d6f85aa72d54612c18",
      "networkId": 0,
      "chainId": 0
    }
  ]
}