{
  "hash": "0x3e581a3e7429a9c0a9804f6fb3217862344fb07fd2182a05d9d62741ccbec3e3",
  "parentHash": "0x034fff453c09c5d2586268a176e5f761d64751c735eb407e3ef083a785e534e7",
  "number": 55242,
  "timestamp": 1439067492,
  "nonce": "0xd018087c9d502e61",
  "difficulty": 1641818086953,
  "gasLimit": {
    "_hex": "0x2fefd8"
  },
  "gasUsed": {
    "_hex": "0x8b8ee"
  },
  "miner": "0xBf034FB91a14C1FdC209f70e194C5704a6D844eB",
  "extraData": "0x",
  "transactions": [
    {
      "hash": "0x05cbe3074847474b600beaf26071a1a18f80ee6a50ba6cbcaef9db55f5054acd",
      "blockHash": "0x3e581a3e7429a9c0a9804f6fb3217862344fb07fd2182a05d9d62741ccbec3e3",
      "blockNumber": 55242,
      "transactionIndex": 0,
      "confirmations": null,
      "from": "0x0ae3F81a67725a8A7758FeB8684c6c17dA20755D",
      "gasPrice": {
        "_hex": "0xe0d3f8106"
      },
      "gasLimit": {
        "_hex": "0x1e8480"
      },
      "to": "0xBAA54d6E90c3F4d7Ebec11bD180134C7eD8eBb52",
      "value": {
        "_hex": "0x16345785d8a0000"
      },
      "nonce": 74,
      "data": "0x",
      "r": "0xed2926aea3e0861bf26623f918a24739a1e9ff8fe5f3beb9a07507dec2a7e4e2",
      "s": "0x3ccbfba1bd4b6919ca8f0766adec4d463f7724849629e84e8fb0d9da83723319",
      "v": 27,
      "creates": null,
      "raw": "0xf86d4a850e0d3f8106831e848094baa54d6e90c3f4d7ebec11bd180134c7ed8ebb5288016345785d8a0000801ba0ed2926aea3e0861bf26623f918a24739a1e9ff8fe5f3beb9a07507dec2a7e4e2a03ccbfba1bd4b6919ca8f0766adec4d463f7724849629e84e8fb0d9da83723319",
      "networkId": 0,
      "chainId": 0
    }
  ]
}