{
  "hash": "0x3dd8361a589e7d1a878fc16b3584c49f3e6f31c20b761db773a83846da93c108",
  "parentHash": "0xbd52202a8fe1d36a157a94e81cc9deb66396ea0445314dc7ff9a2c5d46be027e",
  "number": 75086,
  "timestamp": 1439397378,
  "nonce": "0x9acace1044e181f9",
  "difficulty": 2191210818010,
  "gasLimit": {
    "_hex": "0x2fefd8"
  },
  "gasUsed": {
    "_hex": "0xce69"
  },
  "miner": "0x580992B51e3925e23280EfB93d3047C82f17E038",
  "extraData": "0x476574682f76312e302e312f6c696e75782f676f312e342e32",
  "transactions": [
    {
      "hash": "0x403f98dadfb4a5c9c0392dc355f1e2de8d01a40f858046fcd1a35e4a14b22e41",
      "blockHash": "0x3dd8361a589e7d1a878fc16b3584c49f3e6f31c20b761db773a83846da93c108",
      "blockNumber": 75086,
      "transactionIndex": 0,
      "confirmations": null,
      "from": "0x381DB4C8465dF446a4cE15BF81d47e2f17c980BF",
      "gasPrice": {
        "_hex": "0x110c8f7d8de"
      },
      "gasLimit": {
        "_hex": "0xc350"
      },
      "to": "0x2910543Af39abA0Cd09dBb2D50200b3E800A63D2",
      "value": {
        "_hex": "0x56bc75e2d63100000"
      },
      "nonce": 0,
      "data": "0x454e4154444a504330",
      "r": "0x9f12bbd7db332ba4daaa9ef094a4e0f198539d6bfb94601b6f5190e75b87f5b1",
      "s": "0x7604907819f6d05e08414256cdce7a62a8400aea7b0965d1900597e8464f0e10",
      "v": 28,
      "creates": null,
      "raw": "0xf87780860110c8f7d8de82c350942910543af39aba0cd09dbb2d50200b3e800a63d289056bc75e2d6310000089454e4154444a5043301ca09f12bbd7db332ba4daaa9ef094a4e0f198539d6bfb94601b6f5190e75b87f5b1a07604907819f6d05e08414256cdce7a62a8400aea7b0965d1900597e8464f0e10",
      "networkId": 0,
      "chainId": 0
    },
    {
      "hash": "0xbd414ffb9d810ca5275f82b8ffe91a004676d69ec10da129e90893caea070c0e",
      "blockHash": "0x3dd8361a589e7d1a878fc16b3584c49f3e6f31c20b761db773a83846da93c108",
      "blockNumber": 75086,
      "transactionIndex": 1,
      "confirmations": null,
      "from": "0x326Be8F71bFb0379f989aAB1CC1fE37f0a771f60",
      "gasPrice": {
        "_hex": "0x1078c94967e"
      },
      "gasLimit": {
        "_hex": "0x493e0"
      },
      "to": "0xD79B4C6791784184e2755B2fC1659eaaB0f80456",
      "value": {
        "_hex": "0xde0b6b3a7640000"
      },
      "nonce": 71,
      "data": "0x8d21618600000000000000000000000000000000000000000000000000000000000000054b0705fde3a90ab6895de4ae3b0d3e5e57b96f3986d8b1547d0f740610c67beb",
      "r": "0xa51b0468a05cf7b31fe164673c48232c8a37a181d93460952052cbc393d8ac1f",
      "s": "0x3f280fa5803aae9b01fb5e2c2b5e02a91b87480dc4263e740ca1987fdd1af436",
      "v": 27,
      "creates": null,
      "raw": "0xf8b3478601078c94967e830493e094d79b4c6791784184e2755b2fc1659eaab0f80456880de0b6b3a7640000b8448d21618600000000000000000000000000000000000000000000000000000000000000054b0705fde3a90ab6895de4ae3b0d3e5e57b96f3986d8b1547d0f740610c67beb1ba0a51b0468a05cf7b31fe164673c48232c8a37a181d93460952052cbc393d8ac1fa03f280fa5803aae9b01fb5e2c2b5e02a91b87480dc4263e740ca1987fdd1af436",
      "networkId": 0,
      "chainId": 0
    }
  ]
}