{
  "hash": "0xa045e430c329005254e9687031d2311f30efce754937c931bf80502961aa2406",
  "parentHash": "0x9b6eb51b546dab4d13efe6b989dad85507de21dc95436d970bdd1428f25fed82",
  "number": 107423,
  "timestamp": 1439922208,
  "nonce": "0x751d54482e758481",
  "difficulty": 4407185067914,
  "gasLimit": {
    "_hex": "0x2fefd5"
  },
  "gasUsed": {
    "_hex": "0x5208"
  },
  "miner": "0xe6A7a1d47ff21B6321162AEA7C6CB457D5476Bca",
  "extraData": "0x476574682f76312e302e312d38326566323666362f6c696e75782f676f312e34",
  "transactions": [
    {
      "hash": "0x45609cb592a4758eba94554b1e8790df9735a034929e8d10d3c0c330c2ebcf2f",
      "blockHash": "0xa045e430c329005254e9687031d2311f30efce754937c931bf80502961aa2406",
      "blockNumber": 107423,
      "transactionIndex": 0,
      "confirmations": null,
      "from": "0xB4DF81bA9111D11A33ffdCBF58027843a577D08c",
      "gasPrice": {
        "_hex": "0xd641f460d"
      },
      "gasLimit": {
        "_hex": "0x15f90"
      },
      "to": "0x976349705b839e2F5719387Fb27D2519d519da03",
      "value": {
        "_hex": "0x8963dd8c2c5e0000"
      },
      "nonce": 0,
      "data": "0x",
      "r": "0xb4c1de09eddd8b7f8e6327d2a65afb4ff4116bf23ee95aec809b857d842a08a4",
      "s": "0x09ab8ae01f37f78cbc5c79ccbbf09f16da91da9f51b89c9f8b3f9eac09922e51",
      "v": 28,
      "creates": null,
      "raw": "0xf86d80850d641f460d83015f9094976349705b839e2f5719387fb27d2519d519da03888963dd8c2c5e0000801ca0b4c1de09eddd8b7f8e6327d2a65afb4ff4116bf23ee95aec809b857d842a08a4a009ab8ae01f37f78cbc5c79ccbbf09f16da91da9f51b89c9f8b3f9eac09922e51",
      "networkId": 0,
      "chainId": 0
    }
  ]
}