{
  "hash": "0x3f0ce056198089d8fbb9afe9af38b3413c911a6eae2ba9dd73e322fa364e649f",
  "parentHash": "0xd36b88f568f07935961fc9371372dc30731ee0788d5243c910597a61c0493dea",
  "number": 119841,
  "timestamp": 1440149641,
  "nonce": "0x091871d40f4d2fe6",
  "difficulty": 4409269207234,
  "gasLimit": {
    "_hex": "0x2fefd8"
  },
  "gasUsed": {
    "_hex": "0x546c"
  },
  "miner": "0xe6A7a1d47ff21B6321162AEA7C6CB457D5476Bca",
  "extraData": "0xd783010002844765746887676f312e342e32856c696e7578",
  "transactions": [
    {
      "hash": "0x425b53f56d82a477d09801bc786a50539b913a95aa872aff57cf149eb439a7e2",
      "blockHash": "0x3f0ce056198089d8fbb9afe9af38b3413c911a6eae2ba9dd73e322fa364e649f",
      "blockNumber": 119841,
      "transactionIndex": 0,
      "confirmations": null,
      "from": "0x90891a4dAE53428129E5E2044f4677213EcCBB59",
      "gasPrice": {
        "_hex": "0xba43b7400"
      },
      "gasLimit": {
        "_hex": "0x55f0"
      },
      "to": "0x2910543Af39abA0Cd09dBb2D50200b3E800A63D2",
      "value": {
        "_hex": "0x3afb087b876900000"
      },
      "nonce": 3,
      "data": "0x454e4444435a464e52",
      "r": "0xda2e61dded7b3f29e867a45591b5de87b5a3e703179e86f41448ef97811f339b",
      "s": "0x4a7b41942e3b1ce7eb7f6ba2b25db1615989ee1ce6a9ba6c451324ca3672a2ad",
      "v": 28,
      "creates": null,
      "raw": "0xf87603850ba43b74008255f0942910543af39aba0cd09dbb2d50200b3e800a63d28903afb087b87690000089454e4444435a464e521ca0da2e61dded7b3f29e867a45591b5de87b5a3e703179e86f41448ef97811f339ba04a7b41942e3b1ce7eb7f6ba2b25db1615989ee1ce6a9ba6c451324ca3672a2ad",
      "networkId": 0,
      "chainId": 0
    }
  ]
}