{
  "hash": "0x533045046b848ae0d4aaf72e7c0bb6fadb6a88422ae596b5ea50d3e4f2335493",
  "parentHash": "0x038ef71aaaf853e21342ff6d67e36e8aa6b5fdb5a0c5121fa29256d2bfa813b9",
  "number": 107756,
  "timestamp": 1439928346,
  "nonce": "0x1215dc1e5486ed1c",
  "difficulty": 4362051940907,
  "gasLimit": {
    "_hex": "0x2fefd8"
  },
  "gasUsed": {
    "_hex": "0x5208"
  },
  "miner": "0xe6A7a1d47ff21B6321162AEA7C6CB457D5476Bca",
  "extraData": "0x476574682f76312e302e312d38326566323666362f6c696e75782f676f312e34",
  "transactions": [
    {
      "hash": "0xbebbc302fd9876e2e9300e459e03e5f1867524d936e83f641761ff521385a206",
      "blockHash": "0x533045046b848ae0d4aaf72e7c0bb6fadb6a88422ae596b5ea50d3e4f2335493",
      "blockNumber": 107756,
      "transactionIndex": 0,
      "confirmations": null,
      "from": "0x2629E4624822667AB36BE14544200cc00779247B",
      "gasPrice": {
        "_hex": "0x119bb2dab72"
      },
      "gasLimit": {
        "_hex": "0x15f90"
      },
      "to": "0x937457d08DC5675DF46691F70098e4186f335548",
      "value": {
        "_hex": "0x4e1003b28d9280000"
      },
      "nonce": 3,
      "data": "0x",
      "r": "0xf3fb6a59d68b217b33d9cb9b1c609d03113e565d46412bde2bcad63024c5dffb",
      "s": "0x2cd5a9bfdc0dc5b853b7dca8af3a87de494dbe9d229bf3456de6fb121db84efa",
      "v": 27,
      "creates": null,
      "raw": "0xf86f03860119bb2dab7283015f9094937457d08dc5675df46691f70098e4186f3355488904e1003b28d9280000801ba0f3fb6a59d68b217b33d9cb9b1c609d03113e565d46412bde2bcad63024c5dffba02cd5a9bfdc0dc5b853b7dca8af3a87de494dbe9d229bf3456de6fb121db84efa",
      "networkId": 0,
      "chainId": 0
    }
  ]
}