{
  "hash": "0xfca46bba2e206b7ba86977492e9a15e71d7739ca04da2c7e046963f6c0cbfd46",
  "parentHash": "0x3c0c6f664b6466a3c7de81c4c5e0d61d8b84f36df1486b72a6dfe8fb86696d6d",
  "number": 109013,
  "timestamp": 1439949721,
  "nonce": "0x2c1fe30d34e02f0b",
  "difficulty": 4402048821021,
  "gasLimit": {
    "_hex": "0x2fefd8"
  },
  "gasUsed": {
    "_hex": "0x5208"
  },
  "miner": "0xe6A7a1d47ff21B6321162AEA7C6CB457D5476Bca",
  "extraData": "0x476574682f76312e302e312d38326566323666362f6c696e75782f676f312e34",
  "transactions": [
    {
      "hash": "0xac38eecc7e15898a5fe2d4d63f690bb60c6d25b77cf822924046d72152d60e4c",
      "blockHash": "0xfca46bba2e206b7ba86977492e9a15e71d7739ca04da2c7e046963f6c0cbfd46",
      "blockNumber": 109013,
      "transactionIndex": 0,
      "confirmations": null,
      "from": "0x2e04f3c491E5F34f6Ce198520F4AC40eaf692D38",
      "gasPrice": {
        "_hex": "0xd0f9f1b1a"
      },
      "gasLimit": {
        "_hex": "0x15f90"
      },
      "to": "0xefe8745972E5cF49d99F05a72ad83A23db5D0A07",
      "value": {
        "_hex": "0x208688ae1de29f0000"
      },
      "nonce": 0,
      "data": "0x",
      "r": "0xb8a1d9863000bf3361dd490105f5297746251cc191582c5450a16618209cc4fc",
      "s": "0x3e6bbec398e331d425e84ed21a0b2859e5ae363ab4baa32d7ec53e508ac9e43b",
      "v": 28,
      "creates": null,
      "raw": "0xf86e80850d0f9f1b1a83015f9094efe8745972e5cf49d99f05a72ad83a23db5d0a0789208688ae1de29f0000801ca0b8a1d9863000bf3361dd490105f5297746251cc191582c5450a16618209cc4fca03e6bbec398e331d425e84ed21a0b2859e5ae363ab4baa32d7ec53e508ac9e43b",
      "networkId": 0,
      "chainId": 0
    }
  ]
}