{
  "hash": "0x3457e741792de552f453356c580919c76786e9adc99fa510aabcc22a169ecad1",
  "parentHash": "0x5ab253055b9e4ddc5a8e95ba2a355afcfce3a453da5e466b89f3c766a1e62fb0",
  "number": 64628,
  "timestamp": 1439223781,
  "nonce": "0x0b8834625bf967ae",
  "difficulty": 1891298168899,
  "gasLimit": {
    "_hex": "0x2fefd8"
  },
  "gasUsed": {
    "_hex": "0x534f4"
  },
  "miner": "0xC49418429e58989172a4ACE0bab0cB8D3F00F97f",
  "extraData": "0x476574682f76312e302e312f6c696e75782f676f312e342e32",
  "transactions": [
    {
      "hash": "0x93d886d903c0fca7333caf9eef52af810020c79f7200e65462270c9403641382",
      "blockHash": "0x3457e741792de552f453356c580919c76786e9adc99fa510aabcc22a169ecad1",
      "blockNumber": 64628,
      "transactionIndex": 0,
      "confirmations": null,
      "from": "0xC8d0F2B51b837f837F88D1E881f29eA073D35dc9",
      "gasPrice": {
        "_hex": "0xba43b7400"
      },
      "gasLimit": {
        "_hex": "0x15f90"
      },
      "to": "0x793AE8C1b1a160BFc07BFB0d04F85eab1A71F4f2",
      "value": {
        "_hex": "0x0"
      },
      "nonce": 0,
      "data": "0x3ba15036",
      "r": "0xa70e12e5fb7544c2a244d7e16639c12ac049d9614d2e08d8d8b14f77d67012b1",
      "s": "0x2647326f31ec6eddab0004e8fd224b9bec18b4e45e99e1008878ef2d7e8fd861",
      "v": 27,
      "creates": null,
      "raw": "0xf86980850ba43b740083015f9094793ae8c1b1a160bfc07bfb0d04f85eab1a71f4f280843ba150361ba0a70e12e5fb7544c2a244d7e16639c12ac049d9614d2e08d8d8b14f77d67012b1a02647326f31ec6eddab0004e8fd224b9bec18b4e45e99e1008878ef2d7e8fd861",
      "networkId": 0,
      "chainId": 0
    },
    {
      "hash": "0x764ad542f599772a9e7c54691642de765e29a32e13e6118797b4671af3c48afb",
      "blockHash": "0x3457e741792de552f453356c580919c76786e9adc99fa510aabcc22a169ecad1",
      "blockNumber": 64628,
      "transactionIndex": 1,
      "confirmations": null,
      "from": "0x3f76E571eb8dF8647eA31D1Af03806033C45D6EC",
      "gasPrice": {
        "_hex": "0xba43b7400"
      },
      "gasLimit": {
        "_hex": "0x15f90"
      },
      "to": "0x793AE8C1b1a160BFc07BFB0d04F85eab1A71F4f2",
      "value": {
        "_hex": "0x0"
      },
      "nonce": 0,
      "data": "0x3ba15036",
      "r": "0x72f4f3066a19bced72c8484c1b96b96a8340339f6e1f8fa69a3517f478c6832c",
      "s": "0x668253303f2808cafa5c248f0833aee7e73533904818e793bb1eb45b7bf94e14",
      "v": 27,
      "creates": null,
      "raw": "0xf86980850ba43b740083015f9094793ae8c1b1a160bfc07bfb0d04f85eab1a71f4f280843ba150361ba072f4f3066a19bced72c8484c1b96b96a8340339f6e1f8fa69a3517f478c6832ca0668253303f2808cafa5c248f0833aee7e73533904818e793bb1eb45b7bf94e14",
      "networkId": 0,
      "chainId": 0
    },
    {
      "hash": "0x62e0038037344f8ab120f9625f70912822556bd47666f615dec1d08eb79d46cc",
      "blockHash": "0x3457e741792de552f453356c580919c76786e9adc99fa510aabcc22a169ecad1",
      "blockNumber": 64628,
      "transactionIndex": 2,
      "confirmations": null,
      "from": "0x68a15AFeE586c121bF7c1879fa793fF48c668b8D",
      "gasPrice": {
        "_hex": "0xba43b7400"
      },
      "gasLimit": {
        "_hex": "0x15f90"
      },
      "to": "0x793AE8C1b1a160BFc07BFB0d04F85eab1A71F4f2",
      "value": {
        "_hex": "0x0"
      },
      "nonce": 0,
      "data": "0x3ba15036",
      "r": "0xd6711ec7af60950df180a70463fceef3addc7e577de70bad577771890c86f70d",
      "s": "0x1ba8626bda8f95c7caeec94773893451ca0c48eeee6df8eee1f2196d76e5d890",
      "v": 28,
      "creates": null,
      "raw": "0xf86980850ba43b740083015f9094793ae8c1b1a160bfc07bfb0d04f85eab1a71f4f280843ba150361ca0d6711ec7af60950df180a70463fceef3addc7e577de70bad577771890c86f70da01ba8626bda8f95c7caeec94773893451ca0c48eeee6df8eee1f2196d76e5d890",
      "networkId": 0,
      "chainId": 0
    },
    {
      "hash": "0x204b926ce24575cd5953b4e2d79444038e4e2bf3b76ef03f45bbe1c29a8ff2af",
      "blockHash": "0x3457e741792de552f453356c580919c76786e9adc99fa510aabcc22a169ecad1",
      "blockNumber": 64628,
      "transactionIndex": 3,
      "confirmations": null,
      "from": "0xd73DE7370a1383882fe57D619880De56AD1c2d53",
      "gasPrice": {
        "_hex": "0xba43b7400"
      },
      "gasLimit": {
        "_hex": "0x15f90"
      },
      "to": "0x793AE8C1b1a160BFc07BFB0d04F85eab1A71F4f2",
      "value": {
        "_hex": "0x0"
      },
      "nonce": 0,
      "data": "0x3ba15036",
      "r": "0xdb3609f6972eb8d6cf6eaa9357184e6b7db288129e52e40ff48f930a43c96b05",
      "s": "0x6a34555b08bc606cd22c6477b077dc4e8261a9697763d72454a9a4d51879a928",
      "v": 27,
      "creates": null,
      "raw": "0xf86980850ba43b740083015f9094793ae8c1b1a160bfc07bfb0d04f85eab1a71f4f280843ba150361ba0db3609f6972eb8d6cf6eaa9357184e6b7db288129e52e40ff48f930a43c96b05a06a34555b08bc606cd22c6477b077dc4e8261a9697763d72454a9a4d51879a928",
      "networkId": 0,
      "chainId": 0
    },
    {
      "hash": "0x976a5b958c36e4049b7b84df7f15b9515c3ebe9230565e8d11c1269aa02bed29",
      "blockHash": "0x3457e741792de552f453356c580919c76786e9adc99fa510aabcc22a169ecad1",
      "blockNumber": 64628,
      "transactionIndex": 4,
      "confirmations": null,
      "from": "0xAF31D10fB80041D29ca38427E92943ecf40E5fF7",
      "gasPrice": {
        "_hex": "0xba43b7400"
      },
      "gasLimit": {
        "_hex": "0x15f90"
      },
      "to": "0x793AE8C1b1a160BFc07BFB0d04F85eab1A71F4f2",
      "value": {
        "_hex": "0x0"
      },
      "nonce": 0,
      "data": "0x3ba15036",
      "r": "0x60d5257972008a1d8c6fe7e2f31d238c7381a12b9b9be849b1f6d34a60f4b367",
      "s": "0x429cca0ef8e46ce38e32e4d006c10e659e60e9a9a5c1d33f23062820384498f9",
      "v": 27,
      "creates": null,
      "raw": "0xf86980850ba43b740083015f9094793ae8c1b1a160bfc07bfb0d04f85eab1a71f4f280843ba150361ba060d5257972008a1d8c6fe7e2f31d238c7381a12b9b9be849b1f6d34a60f4b367a0429cca0ef8e46ce38e32e4d006c10e659e60e9a9a5c1d33f23062820384498f9",
      "networkId": 0,
      "chainId": 0
    },
    {
      "hash": "0x57695ff960a6fd90880533d604c37389ddd5e50400a3480c1fa636c1a2a245b7",
      "blockHash": "0x3457e741792de552f453356c580919c76786e9adc99fa510aabcc22a169ecad1",
      "blockNumber": 64628,
      "transactionIndex": 5,
      "confirmations": null,
      "from": "0x4CFEB0D2a1F03Dcaa43CF0aa90B112f8600192bA",
      "gasPrice": {
        "_hex": "0xba43b7400"
      },
      "gasLimit": {
        "_hex": "0x15f90"
      },
      "to": "0x793AE8C1b1a160BFc07BFB0d04F85eab1A71F4f2",
      "value": {
        "_hex": "0x0"
      },
      "nonce": 0,
      "data": "0x3ba15036",
      "r": "0x1723bd324bfd7d6f0f9b679e118fc968b42f16de41bb9ded52f6c6863aba353a",
      "s": "0x5a974d53c7469f91031eadb755e4b4f6341b9639bda61aab5902f4d370cb4615",
      "v": 28,
      "creates": null,
      "raw": "0xf86980850ba43b740083015f9094793ae8c1b1a160bfc07bfb0d04f85eab1a71f4f280843ba150361ca01723bd324bfd7d6f0f9b679e118fc968b42f16de41bb9ded52f6c6863aba353aa05a974d53c7469f91031eadb755e4b4f6341b9639bda61aab5902f4d370cb4615",
      "networkId": 0,
      "chainId": 0
    },
    {
      "hash": "0x7761dc782e52798cd13958234ae6719e011c8a8c3498f543828d362b7177d5a4",
      "blockHash": "0x3457e741792de552f453356c580919c76786e9adc99fa510aabcc22a169ecad1",
      "blockNumber": 64628,
      "transactionIndex": 6,
      "confirmations": null,
      "from": "0x07540E11Db7aBF979DB83fFf5AECCA9BF6dF8fC9",
      "gasPrice": {
        "_hex": "0xba43b7400"
      },
      "gasLimit": {
        "_hex": "0x15f90"
      },
      "to": "0x793AE8C1b1a160BFc07BFB0d04F85eab1A71F4f2",
      "value": {
        "_hex": "0x0"
      },
      "nonce": 0,
      "data": "0x3ba15036",
      "r": "0xd60e27558368402a2bc2465f687b37498967e8f45e8dcdf94240ec83b1fb8baf",
      "s": "0x791e9112d7f97d71ea28a1fa7ab870b73c40f81e930c2999c2cd920d46cf5419",
      "v": 28,
      "creates": null,
      "raw": "0xf86980850ba43b740083015f9094793ae8c1b1a160bfc07bfb0d04f85eab1a71f4f280843ba150361ca0d60e27558368402a2bc2465f687b37498967e8f45e8dcdf94240ec83b1fb8bafa0791e9112d7f97d71ea28a1fa7ab870b73c40f81e930c2999c2cd920d46cf5419",
      "networkId": 0,
      "chainId": 0
    }
  ]
}