{
  "hash": "0xb9f0265d81dac6449ac187569fa16bfb80db29a106d85ce0eef6a1c00e1ccd67",
  "parentHash": "0x87d5ba6799264d90e795404b05d9b45991903816ffa312627ebcc438df0cf865",
  "number": 85372,
  "timestamp": 1439562588,
  "nonce": "0x4ca226f71fb18202",
  "difficulty": 2736995864878,
  "gasLimit": {
    "_hex": "0x2fefd8"
  },
  "gasUsed": {
    "_hex": "0x14820"
  },
  "miner": "0x8B454d830feF179e66206840F8F3D1d83bC32b17",
  "extraData": "0x476574682f76312e302e312f77696e646f77732f676f312e342e32",
  "transactions": [
    {
      "hash": "0x1db3af56a497ecdae501de8fc83b5b9372ee817fddbb9e5117744ce81fe0ee43",
      "blockHash": "0xb9f0265d81dac6449ac187569fa16bfb80db29a106d85ce0eef6a1c00e1ccd67",
      "blockNumber": 85372,
      "transactionIndex": 0,
      "confirmations": null,
      "from": "0x7D34Ff59Ae840A7413C6Ba4C5Bb2bA2C75eaB018",
      "gasPrice": {
        "_hex": "0xdc86c81e1"
      },
      "gasLimit": {
        "_hex": "0x5208"
      },
      "to": "0x1211701be9773a9478E4545e8744F2111C9d613D",
      "value": {
        "_hex": "0x38d7ea4c68000"
      },
      "nonce": 1,
      "data": "0x",
      "r": "0x508c7ada9606b8f45d6a6cab78b1578b2f756f1a1205f2368388143329d3e944",
      "s": "0x5eb2f9af4af1cdf16f961d95be183773bd9cc5a2966eb4bc30a90ce10b3fc20b",
      "v": 27,
      "creates": null,
      "raw": "0xf86b01850dc86c81e1825208941211701be9773a9478e4545e8744f2111c9d613d87038d7ea4c68000801ba0508c7ada9606b8f45d6a6cab78b1578b2f756f1a1205f2368388143329d3e944a05eb2f9af4af1cdf16f961d95be183773bd9cc5a2966eb4bc30a90ce10b3fc20b",
      "networkId": 0,
      "chainId": 0
    },
    {
      "hash": "0x130150e140aab633568ccf7f67ad6451c587dbd74a169576990a7123d1a29e6e",
      "blockHash": "0xb9f0265d81dac6449ac187569fa16bfb80db29a106d85ce0eef6a1c00e1ccd67",
      "blockNumber": 85372,
      "transactionIndex": 1,
      "confirmations": null,
      "from": "0x443226dF1f3493C05845dD3bf351599a8a463F03",
      "gasPrice": {
        "_hex": "0xd94ad4561"
      },
      "gasLimit": {
        "_hex": "0x5208"
      },
      "to": "0x32Be343B94f860124dC4fEe278FDCBD38C102D88",
      "value": {
        "_hex": "0x3635b3908a92ce0000"
      },
      "nonce": 1,
      "data": "0x",
      "r": "0x2d08eec0297ed0f9a6f30daa8f87be0ab20ba41c847fdd032626a592bd35433e",
      "s": "0x6335acdc8de2b8fe03bd0c3ed910c8c1f0907e3f4e05f0c3d91faa4a47e398a8",
      "v": 27,
      "creates": null,
      "raw": "0xf86d01850d94ad45618252089432be343b94f860124dc4fee278fdcbd38c102d88893635b3908a92ce0000801ba02d08eec0297ed0f9a6f30daa8f87be0ab20ba41c847fdd032626a592bd35433ea06335acdc8de2b8fe03bd0c3ed910c8c1f0907e3f4e05f0c3d91faa4a47e398a8",
      "networkId": 0,
      "chainId": 0
    },
    {
      "hash": "0x522231b81f50577831329daf734f703efe45f8cd9f815d2723a9d65371fa49eb",
      "blockHash": "0xb9f0265d81dac6449ac187569fa16bfb80db29a106d85ce0eef6a1c00e1ccd67",
      "blockNumber": 85372,
      "transactionIndex": 2,
      "confirmations": null,
      "from": "0x24d70018E3649E3FA0CC9E6dDE3FE087B55D326A",
      "gasPrice": {
        "_hex": "0xd94ad4561"
      },
      "gasLimit": {
        "_hex": "0x5208"
      },
      "to": "0x32Be343B94f860124dC4fEe278FDCBD38C102D88",
      "value": {
        "_hex": "0x796cdccb9bd610000"
      },
      "nonce": 0,
      "data": "0x",
      "r": "0xf180d3bcf4995572a6659c3e883d00bbbbc550f2062c07ccc59a736b49387f06",
      "s": "0x1094978f770fa24a367db4277707ef90cb0026cdb5eae96b69d86e3f8ecd5b44",
      "v": 27,
      "creates": null,
      "raw": "0xf86d80850d94ad45618252089432be343b94f860124dc4fee278fdcbd38c102d88890796cdccb9bd610000801ba0f180d3bcf4995572a6659c3e883d00bbbbc550f2062c07ccc59a736b49387f06a01094978f770fa24a367db4277707ef90cb0026cdb5eae96b69d86e3f8ecd5b44",
      "networkId": 0,
      "chainId": 0
    },
    {
      "hash": "0x4e0b37837e9969e98732280ef452eaba781631d60c8d4093de29f59993009dea",
      "blockHash": "0xb9f0265d81dac6449ac187569fa16bfb80db29a106d85ce0eef6a1c00e1ccd67",
      "blockNumber": 85372,
      "transactionIndex": 3,
      "confirmations": null,
      "from": "0x182c02d431a667bF08d1BB680306aB6feC4971e5",
      "gasPrice": {
        "_hex": "0xd7a24a0bb"
      },
      "gasLimit": {
        "_hex": "0x15f90"
      },
      "to": "0xfe8635C30D5b0a49D09Fc9480d59e05d7450fd41",
      "value": {
        "_hex": "0x226cf34b69f410000"
      },
      "nonce": 2,
      "data": "0x",
      "r": "0x1146924e751e0ccb6dd9b91665ce2f9a03220fd5d5354c03aef1d8dd15ec1177",
      "s": "0x17bb29e3fefbae7047c731340d9613e41d1f77f659292dd3a36485686d42b37b",
      "v": 27,
      "creates": null,
      "raw": "0xf86e02850d7a24a0bb83015f9094fe8635c30d5b0a49d09fc9480d59e05d7450fd41890226cf34b69f410000801ba01146924e751e0ccb6dd9b91665ce2f9a03220fd5d5354c03aef1d8dd15ec1177a017bb29e3fefbae7047c731340d9613e41d1f77f659292dd3a36485686d42b37b",
      "networkId": 0,
      "chainId": 0
    }
  ]
}