{
  "hash": "0xe36fcd85dd62062099e44d17122295d066ef61822ac3801a2f7f97c501b24978",
  "parentHash": "0xe4a44c13b03d4892e6cc040132bfb254c010f5d8090e9ea4ed903366f37613c8",
  "number": 68483,
  "timestamp": 1439288612,
  "nonce": "0x2368ae822eb3c2a7",
  "difficulty": 2007444463156,
  "gasLimit": {
    "_hex": "0x2fefd8"
  },
  "gasUsed": {
    "_hex": "0x14820"
  },
  "miner": "0x88D74a59454F6cF3B51ef6b9136AFb6b9D405A88",
  "extraData": "0x476574682f76312e302e312d37666266393930632f6c696e75782f676f312e34",
  "transactions": [
    {
      "hash": "0x232c7e0bc29b26cbdc424648d37a92cc44bcb4542de6a4645b578f6fa38c07a1",
      "blockHash": "0xe36fcd85dd62062099e44d17122295d066ef61822ac3801a2f7f97c501b24978",
      "blockNumber": 68483,
      "transactionIndex": 0,
      "confirmations": null,
      "from": "0x38Bf2336aF9C94D61493EA0361aBaff304D4D08b",
      "gasPrice": {
        "_hex": "0xdda803bbc"
      },
      "gasLimit": {
        "_hex": "0x5208"
      },
      "to": "0x32Be343B94f860124dC4fEe278FDCBD38C102D88",
      "value": {
        "_hex": "0x1864fcad0d655f0000"
      },
      "nonce": 0,
      "data": "0x",
      "r": "0xdfa865f17d16422ea9b3ee2ce23901a0a1ff5f06ece79d0987a13982551f23c7",
      "s": "0x58a742786ab84ca3384631628e37b32564312e7f13bfc29aa871e71a02df2f7d",
      "v": 28,
      "creates": null,
      "raw": "0xf86d80850dda803bbc8252089432be343b94f860124dc4fee278fdcbd38c102d88891864fcad0d655f0000801ca0dfa865f17d16422ea9b3ee2ce23901a0a1ff5f06ece79d0987a13982551f23c7a058a742786ab84ca3384631628e37b32564312e7f13bfc29aa871e71a02df2f7d",
      "networkId": 0,
      "chainId": 0
    },
    {
      "hash": "0x1f395c937f5a47f20461a0b21758dfe7a5bf3b997aefdda46cb700d9cea23d33",
      "blockHash": "0xe36fcd85dd62062099e44d17122295d066ef61822ac3801a2f7f97c501b24978",
      "blockNumber": 68483,
      "transactionIndex": 1,
      "confirmations": null,
      "from": "0x4B126a1971909824e3645FB81ef8DA3606ab117F",
      "gasPrice": {
        "_hex": "0xba43b7400"
      },
      "gasLimit": {
        "_hex": "0x5208"
      },
      "to": "0x0DFD188B256f89c93d3c511e537c510e70eBEc75",
      "value": {
        "_hex": "0x653580cf6eb000"
      },
      "nonce": 1,
      "data": "0x",
      "r": "0x2c48f18019e896297379dc3e723f2ef4fd8034ac1b5f0a2f6937426dfbd89870",
      "s": "0x21771bc12862a371691070c88eb6c0e5b82505f7acabdda2e4466cc221ba22a7",
      "v": 27,
      "creates": null,
      "raw": "0xf86b01850ba43b7400825208940dfd188b256f89c93d3c511e537c510e70ebec7587653580cf6eb000801ba02c48f18019e896297379dc3e723f2ef4fd8034ac1b5f0a2f6937426dfbd89870a021771bc12862a371691070c88eb6c0e5b82505f7acabdda2e4466cc221ba22a7",
      "networkId": 0,
      "chainId": 0
    },
    {
      "hash": "0xf149a0a88b78194759372aaa9e55339ed3c8fe2d1e21f95396c0b7f2eae107d9",
      "blockHash": "0xe36fcd85dd62062099e44d17122295d066ef61822ac3801a2f7f97c501b24978",
      "blockNumber": 68483,
      "transactionIndex": 2,
      "confirmations": null,
      "from": "0x8B9A414Ecb66Bf36Ed761fbAD2d07024Ba22E7dB",
      "gasPrice": {
        "_hex": "0xba43b7400"
      },
      "gasLimit": {
        "_hex": "0x5208"
      },
      "to": "0xD999fF61642c021C0b36c3fCE17F636B8390e464",
      "value": {
        "_hex": "0x653580cf6eb000"
      },
      "nonce": 1,
      "data": "0x",
      "r": "0x4e87e45d9d4a07c69781ed6d202751045cf1fdc41d6c229761a1db7b234c666a",
      "s": "0x1c8130bb985aebf725f322ed7e78ad94e368b580d7871799f16905f4e9012595",
      "v": 27,
      "creates": null,
      "raw": "0xf86b01850ba43b740082520894d999ff61642c021c0b36c3fce17f636b8390e46487653580cf6eb000801ba04e87e45d9d4a07c69781ed6d202751045cf1fdc41d6c229761a1db7b234c666aa01c8130bb985aebf725f322ed7e78ad94e368b580d7871799f16905f4e9012595",
      "networkId": 0,
      "chainId": 0
    },
    {
      "hash": "0xa7b2c541fd4d0feb85270d7949dffe9bf8dff83a0ddf7ba11baf76fb0d81103e",
      "blockHash": "0xe36fcd85dd62062099e44d17122295d066ef61822ac3801a2f7f97c501b24978",
      "blockNumber": 68483,
      "transactionIndex": 3,
      "confirmations": null,
      "from": "0xA638f00871d5f75891cACa9BC61AC0DD3cBbA97b",
      "gasPrice": {
        "_hex": "0xba43b7400"
      },
      "gasLimit": {
        "_hex": "0x5208"
      },
      "to": "0x535ef2C10CF40511670CcD5728680C36317d4dc2",
      "value": {
        "_hex": "0x653580cf6eb000"
      },
      "nonce": 1,
      "data": "0x",
      "r": "0xc5d16e36c6e038a39da050093287fb63f87a00ecee6b38d74e755590e65184f0",
      "s": "0x0df618ca96242157f2810e8c0c1e93532db6c455d34dc36d044e8a37fe8770c1",
      "v": 27,
      "creates": null,
      "raw": "0xf86b01850ba43b740082520894535ef2c10cf40511670ccd5728680c36317d4dc287653580cf6eb000801ba0c5d16e36c6e038a39da050093287fb63f87a00ecee6b38d74e755590e65184f0a00df618ca96242157f2810e8c0c1e93532db6c455d34dc36d044e8a37fe8770c1",
      "networkId": 0,
      "chainId": 0
    }
  ]
}