{
  "hash": "0xd3eb189ad5f0988b4567c0f88558772f665f466ef528f7fcfdccf934f7d63a56",
  "parentHash": "0xb678352a5fcc0cf62d0e8fe43c1675d686deb7bb24c3dedc63f20f952db99005",
  "number": 70383,
  "timestamp": 1439319028,
  "nonce": "0xc00d5e5a16aad35c",
  "difficulty": 2140606358936,
  "gasLimit": {
    "_hex": "0x2fefd8"
  },
  "gasUsed": {
    "_hex": "0xa410"
  },
  "miner": "0xeB1325C8D9d3ea8D74aC11F4B00F1B2367686319",
  "extraData": "0x476574682f76312e302e312f77696e646f77732f676f312e342e32",
  "transactions": [
    {
      "hash": "0xede678b50df813114a8a60c29f873c86d268ce888f2a6e68fdd6f48d82781996",
      "blockHash": "0xd3eb189ad5f0988b4567c0f88558772f665f466ef528f7fcfdccf934f7d63a56",
      "blockNumber": 70383,
      "transactionIndex": 0,
      "confirmations": null,
      "from": "0x120A270bbC009644e35F0bB6ab13f95b8199c4ad",
      "gasPrice": {
        "_hex": "0xd945c391d"
      },
      "gasLimit": {
        "_hex": "0x15f90"
      },
      "to": "0x5D0A4935EEC4434871C16A885443ae9F96589E6f",
      "value": {
        "_hex": "0x2dc7acd457cab7c800"
      },
      "nonce": 202,
      "data": "0x",
      "r": "0x7930d59295f5167f2654a36e9bbf910021316db17f3aed2e072b173631c2b9eb",
      "s": "0x35d843cf39b59a2782ab4cdfd4467c06c2941e0b612df58f4a97f0688e4b2071",
      "v": 27,
      "creates": null,
      "raw": "0xf86f81ca850d945c391d83015f90945d0a4935eec4434871c16a885443ae9f96589e6f892dc7acd457cab7c800801ba07930d59295f5167f2654a36e9bbf910021316db17f3aed2e072b173631c2b9eba035d843cf39b59a2782ab4cdfd4467c06c2941e0b612df58f4a97f0688e4b2071",
      "networkId": 0,
      "chainId": 0
    },
    {
      "hash": "0xfbec44fd9226c9bbb56aabd7c60412c376d6f03eff6a1f6327295f5fba790883",
      "blockHash": "0xd3eb189ad5f0988b4567c0f88558772f665f466ef528f7fcfdccf934f7d63a56",
      "blockNumber": 70383,
      "transactionIndex": 1,
      "confirmations": null,
      "from": "0x120A270bbC009644e35F0bB6ab13f95b8199c4ad",
      "gasPrice": {
        "_hex": "0xd945c391d"
      },
      "gasLimit": {
        "_hex": "0x15f90"
      },
      "to": "0xc9CBB4dB18605df3f84dfB719A58c9C1252cE641",
      "value": {
        "_hex": "0x7ce66c50e2840000"
      },
      "nonce": 203,
      "data": "0x",
      "r": "0x7be791f9aac7195b2a42eac0bd859a2bfa53ded20a4ac84d2eed233255de0cb9",
      "s": "0x0a873d589ef81533f8ecc36cd708487ecffd8c7cc909748afc911fc138a06bbb",
      "v": 28,
      "creates": null,
      "raw": "0xf86e81cb850d945c391d83015f9094c9cbb4db18605df3f84dfb719a58c9c1252ce641887ce66c50e2840000801ca07be791f9aac7195b2a42eac0bd859a2bfa53ded20a4ac84d2eed233255de0cb9a00a873d589ef81533f8ecc36cd708487ecffd8c7cc909748afc911fc138a06bbb",
      "networkId": 0,
      "chainId": 0
    }
  ]
}