{
  "hash": "0xe4f9051216cc8541b69dc2790226a6862c4871f02ee8fd753999cb529cb7dfe8",
  "parentHash": "0x32e28a410a6c3fcfe15765b1ad283bdf14c5ba907ab0bd90d2e49d07083afdc2",
  "number": 80813,
  "timestamp": 1439491342,
  "nonce": "0xff893279a6f040b8",
  "difficulty": 2455959861443,
  "gasLimit": {
    "_hex": "0x2fefd8"
  },
  "gasUsed": {
    "_hex": "0x5208"
  },
  "miner": "0xe6A7a1d47ff21B6321162AEA7C6CB457D5476Bca",
  "extraData": "0x476574682f76312e302e312d38326566323666362f6c696e75782f676f312e34",
  "transactions": [
    {
      "hash": "0x792b9b538b284392bfd99087841cfaeb83a21b16543ecdc47c5f582b405e092f",
      "blockHash": "0xe4f9051216cc8541b69dc2790226a6862c4871f02ee8fd753999cb529cb7dfe8",
      "blockNumber": 80813,
      "transactionIndex": 0,
      "confirmations": null,
      "from": "0x95dF4e3445D7662624c48eba74cF9e0a53E9f732",
      "gasPrice": {
        "_hex": "0xd829211eb"
      },
      "gasLimit": {
        "_hex": "0x5208"
      },
      "to": "0x43279854AaF8825a6d1fcCf056caF190Ab8a7b76",
      "value": {
        "_hex": "0xa2a15d09519be00000"
      },
      "nonce": 15,
      "data": "0x",
      "r": "0x52ea883e75fd30e9352894f8f564d4504eca3c9e7393e5f0e05a96a728c9128b",
      "s": "0x7c0e8d6cd61480f19e0338bc55183ff497a515fd8b5b6cca19f98fdce24deb6b",
      "v": 28,
      "creates": null,
      "raw": "0xf86d0f850d829211eb8252089443279854aaf8825a6d1fccf056caf190ab8a7b7689a2a15d09519be00000801ca052ea883e75fd30e9352894f8f564d4504eca3c9e7393e5f0e05a96a728c9128ba07c0e8d6cd61480f19e0338bc55183ff497a515fd8b5b6cca19f98fdce24deb6b",
      "networkId": 0,
      "chainId": 0
    }
  ]
}