{
  "hash": "0x7819aa6d9e6bea244a274485c51248f74145efd49de376abf801b34c9f027453",
  "parentHash": "0x51499bbd7bceaf654b9123085580d1ff7f57bf5821175e76081fadf2bef9725f",
  "number": 117895,
  "timestamp": 1440117139,
  "nonce": "0x3d86624bede0f9f0",
  "difficulty": 4341916945664,
  "gasLimit": {
    "_hex": "0x2fefd8"
  },
  "gasUsed": {
    "_hex": "0xf618"
  },
  "miner": "0x580992B51e3925e23280EfB93d3047C82f17E038",
  "extraData": "0x",
  "transactions": [
    {
      "hash": "0xe67d92f8dfac126a08d7f4dff7a2a8d15d90e428d0aa52f53fae736957bf9e5a",
      "blockHash": "0x7819aa6d9e6bea244a274485c51248f74145efd49de376abf801b34c9f027453",
      "blockNumber": 117895,
      "transactionIndex": 0,
      "confirmations": null,
      "from": "0x250978C66B17d66f4167197A38b631d8900968C0",
      "gasPrice": {
        "_hex": "0xba43b7400"
      },
      "gasLimit": {
        "_hex": "0x5208"
      },
      "to": "0x32Be343B94f860124dC4fEe278FDCBD38C102D88",
      "value": {
        "_hex": "0x24b896c0978306000"
      },
      "nonce": 8,
      "data": "0x",
      "r": "0x3b20c2bf2359c757111070a71df2cabed2d723de0aef160637c9b1693871a0c1",
      "s": "0x2fcb1000d08aa8764bca8b49285f13d6a0e5a8218f5ea7408a314094381dfa25",
      "v": 27,
      "creates": null,
      "raw": "0xf86d08850ba43b74008252089432be343b94f860124dc4fee278fdcbd38c102d8889024b896c0978306000801ba03b20c2bf2359c757111070a71df2cabed2d723de0aef160637c9b1693871a0c1a02fcb1000d08aa8764bca8b49285f13d6a0e5a8218f5ea7408a314094381dfa25",
      "networkId": 0,
      "chainId": 0
    },
    {
      "hash": "0xe06fa36a6e3e37f6a967ae0aeab1e87043020980f8adff30ee6b3296e39d5b77",
      "blockHash": "0x7819aa6d9e6bea244a274485c51248f74145efd49de376abf801b34c9f027453",
      "blockNumber": 117895,
      "transactionIndex": 1,
      "confirmations": null,
      "from": "0x0A38f5Ba343D4eA8641F955ecf98e1c43dF1B5a3",
      "gasPrice": {
        "_hex": "0xba43b7400"
      },
      "gasLimit": {
        "_hex": "0x5208"
      },
      "to": "0x32Be343B94f860124dC4fEe278FDCBD38C102D88",
      "value": {
        "_hex": "0xa9db3bdc6010a000"
      },
      "nonce": 8,
      "data": "0x",
      "r": "0x2a700592c12121989a30593a901d84b4eccb8c78125138b5ea2353d8a412e88a",
      "s": "0x26900fd6f494077befd91c93b219563f21a0b94d259642855dae5fbb6075c4a2",
      "v": 27,
      "creates": null,
      "raw": "0xf86c08850ba43b74008252089432be343b94f860124dc4fee278fdcbd38c102d8888a9db3bdc6010a000801ba02a700592c12121989a30593a901d84b4eccb8c78125138b5ea2353d8a412e88aa026900fd6f494077befd91c93b219563f21a0b94d259642855dae5fbb6075c4a2",
      "networkId": 0,
      "chainId": 0
    },
    {
      "hash": "0x0a982e729092949a0e4aefc2ac0424dc5fba67611ac65d80dc33b8ea28e32d7f",
      "blockHash": "0x7819aa6d9e6bea244a274485c51248f74145efd49de376abf801b34c9f027453",
      "blockNumber": 117895,
      "transactionIndex": 2,
      "confirmations": null,
      "from": "0xD671e71108Bd20F1A8e2A4f73a7449Bf8DAa840f",
      "gasPrice": {
        "_hex": "0xba43b7400"
      },
      "gasLimit": {
        "_hex": "0x5208"
      },
      "to": "0x32Be343B94f860124dC4fEe278FDCBD38C102D88",
      "value": {
        "_hex": "0x212a75a41d4ad800"
      },
      "nonce": 10,
      "data": "0x",
      "r": "0xfc148af1a81d96e2d57ab8b09ed927278097bd283f51a8b446e62b2e4321c218",
      "s": "0x69b45aa9a70cf06c55a0596b1e04e9762df9d7c6e6c59ee30f27733459245846",
      "v": 28,
      "creates": null,
      "raw": "0xf86c0a850ba43b74008252089432be343b94f860124dc4fee278fdcbd38c102d8888212a75a41d4ad800801ca0fc148af1a81d96e2d57ab8b09ed927278097bd283f51a8b446e62b2e4321c218a069b45aa9a70cf06c55a0596b1e04e9762df9d7c6e6c59ee30f27733459245846",
      "networkId": 0,
      "chainId": 0
    }
  ]
}