{
  "hash": "0xa29014030fb2794a535f493a55621c7a2d7e1478aa0d3ad6da5dbb4454191e48",
  "parentHash": "0x1ddad2ca138bcb53e5b4021adec31c99c8766cc3c2d5318f0fb4d28b0569631a",
  "number": 85422,
  "timestamp": 1439563316,
  "nonce": "0xd3f6b9caecd7c694",
  "difficulty": 2747691787093,
  "gasLimit": {
    "_hex": "0x2fefd8"
  },
  "gasUsed": {
    "_hex": "0x14820"
  },
  "miner": "0x900deD2eC098c430caD5347E6F3322932D7BB3a9",
  "extraData": "0x476574682f76312e302e312f77696e646f77732f676f312e342e32",
  "transactions": [
    {
      "hash": "0xbd0506b8058eeb100a2ad7a3e38f0d4bc2745e528295a4746d304bcdb19ea3d8",
      "blockHash": "0xa29014030fb2794a535f493a55621c7a2d7e1478aa0d3ad6da5dbb4454191e48",
      "blockNumber": 85422,
      "transactionIndex": 0,
      "confirmations": null,
      "from": "0x1151790FE5F7C3113dfb07Dc3914B1916EcC8a7A",
      "gasPrice": {
        "_hex": "0xe209bdf08"
      },
      "gasLimit": {
        "_hex": "0x5208"
      },
      "to": "0x32Be343B94f860124dC4fEe278FDCBD38C102D88",
      "value": {
        "_hex": "0x2745349d0cb62c00"
      },
      "nonce": 0,
      "data": "0x",
      "r": "0x147cacbefa77ca5ab4157052f7899f5703177b114b75758055a72193fbfeb048",
      "s": "0x273af4000b2bd86adbf394c230fa70268b207bbae18876a7effe9179a83e8730",
      "v": 27,
      "creates": null,
      "raw": "0xf86c80850e209bdf088252089432be343b94f860124dc4fee278fdcbd38c102d88882745349d0cb62c00801ba0147cacbefa77ca5ab4157052f7899f5703177b114b75758055a72193fbfeb048a0273af4000b2bd86adbf394c230fa70268b207bbae18876a7effe9179a83e8730",
      "networkId": 0,
      "chainId": 0
    },
    {
      "hash": "0xaa1883ea9ba711aa39f655772d875bc92d8c7ae0c25aed3a4afb06773a7b426e",
      "blockHash": "0xa29014030fb2794a535f493a55621c7a2d7e1478aa0d3ad6da5dbb4454191e48",
      "blockNumber": 85422,
      "transactionIndex": 1,
      "confirmations": null,
      "from": "0x519DC97eF09491aE962A8F13fe144c71feca4662",
      "gasPrice": {
        "_hex": "0xe209bdf08"
      },
      "gasLimit": {
        "_hex": "0x5208"
      },
      "to": "0x32Be343B94f860124dC4fEe278FDCBD38C102D88",
      "value": {
        "_hex": "0x8ac29c21677cb000"
      },
      "nonce": 5,
      "data": "0x",
      "r": "0xafda2acadf5bb2e124b517e4fdbb49e357a702cc925f9bc2c517699ba778257f",
      "s": "0x121016179cda1a2184a783979965e92f7c3bbc35c2ceb77c159c9e5252061616",
      "v": 27,
      "creates": null,
      "raw": "0xf86c05850e209bdf088252089432be343b94f860124dc4fee278fdcbd38c102d88888ac29c21677cb000801ba0afda2acadf5bb2e124b517e4fdbb49e357a702cc925f9bc2c517699ba778257fa0121016179cda1a2184a783979965e92f7c3bbc35c2ceb77c159c9e5252061616",
      "networkId": 0,
      "chainId": 0
    },
    {
      "hash": "0x44a205d751685bc7d2a37aa5419ceab6cafa69ed5623425db239d3cadd435af6",
      "blockHash": "0xa29014030fb2794a535f493a55621c7a2d7e1478aa0d3ad6da5dbb4454191e48",
      "blockNumber": 85422,
      "transactionIndex": 2,
      "confirmations": null,
      "from": "0x5fB5E2fC08615c69B0FD8e8f0b68DA93Ec5e326A",
      "gasPrice": {
        "_hex": "0xe209bdf08"
      },
      "gasLimit": {
        "_hex": "0x5208"
      },
      "to": "0x32Be343B94f860124dC4fEe278FDCBD38C102D88",
      "value": {
        "_hex": "0x21e19dc42d78fe00000"
      },
      "nonce": 3,
      "data": "0x",
      "r": "0x1a23dbba345d410b8a76c65b9e960405624e635c54e1b5d45bf772013f322790",
      "s": "0x7f27d0b8778e59531cbe8d1a7fdd1b9267c14b7d4b411a07af2dd098ea053261",
      "v": 27,
      "creates": null,
      "raw": "0xf86e03850e209bdf088252089432be343b94f860124dc4fee278fdcbd38c102d888a021e19dc42d78fe00000801ba01a23dbba345d410b8a76c65b9e960405624e635c54e1b5d45bf772013f322790a07f27d0b8778e59531cbe8d1a7fdd1b9267c14b7d4b411a07af2dd098ea053261",
      "networkId": 0,
      "chainId": 0
    },
    {
      "hash": "0xa6b42c49df839d69ac93f29ed55a5db7203ab52a00f38862af7cf5399e5ddf28",
      "blockHash": "0xa29014030fb2794a535f493a55621c7a2d7e1478aa0d3ad6da5dbb4454191e48",
      "blockNumber": 85422,
      "transactionIndex": 3,
      "confirmations": null,
      "from": "0x5a0f0935E8E5591B2f9f2d55f29C626B50292088",
      "gasPrice": {
        "_hex": "0xe209bdf08"
      },
      "gasLimit": {
        "_hex": "0x5208"
      },
      "to": "0x32Be343B94f860124dC4fEe278FDCBD38C102D88",
      "value": {
        "_hex": "0x13bc81647171260000"
      },
      "nonce": 11,
      "data": "0x",
      "r": "0xb41e2b06905334ed302261d4048c2938a1476a5eb368c4f9dbfaed684f0d1c0f",
      "s": "0x000fe282ac77cb09c7b196b74bc23b8330119615cb62948a5037f64a51fdca4d",
      "v": 28,
      "creates": null,
      "raw": "0xf86c0b850e209bdf088252089432be343b94f860124dc4fee278fdcbd38c102d888913bc81647171260000801ca0b41e2b06905334ed302261d4048c2938a1476a5eb368c4f9dbfaed684f0d1c0f9f0fe282ac77cb09c7b196b74bc23b8330119615cb62948a5037f64a51fdca4d",
      "networkId": 0,
      "chainId": 0
    }
  ]
}