{
  "hash": "0xde31dc64d18e43a2c180b2cbc379603d716fdf961547cadbcfa86feee757861f",
  "parentHash": "0x577af994f329851941d884095303611ed1df2ef46cf8d2ee9d324f4ddec4936c",
  "number": 83819,
  "timestamp": 1439541357,
  "nonce": "0xc51c981fd65b0e81",
  "difficulty": 2443121465953,
  "gasLimit": {
    "_hex": "0x2fefd8"
  },
  "gasUsed": {
    "_hex": "0x5208"
  },
  "miner": "0xe6A7a1d47ff21B6321162AEA7C6CB457D5476Bca",
  "extraData": "0x476574682f76312e302e312d38326566323666362f6c696e75782f676f312e34",
  "transactions": [
    {
      "hash": "0xd5503c37dd9b1bf3efe7e57f5037da36636e4cbf8770c70a0f8f8920d8f8e54c",
      "blockHash": "0xde31dc64d18e43a2c180b2cbc379603d716fdf961547cadbcfa86feee757861f",
      "blockNumber": 83819,
      "transactionIndex": 0,
      "confirmations": null,
      "from": "0xC603Ab5ef41fC61AA8b76bEddb09e3Cfcbb174BD",
      "gasPrice": {
        "_hex": "0xd84dac14a"
      },
      "gasLimit": {
        "_hex": "0x15f90"
      },
      "to": "0x8F79f76381Aad7B98C19aF55eE75fdfEeb012211",
      "value": {
        "_hex": "0x2c3c465ca58ec0000"
      },
      "nonce": 15,
      "data": "0x",
      "r": "0x48f205b2359e113f0e318c7b15fcb7a1a7f999f2ee6154e87f2f2dc0140d8c01",
      "s": "0x152fa3b0256b6bd110ddc1f82f03dac3bf1b2a340fdea37495f8519bf81aeff5",
      "v": 28,
      "creates": null,
      "raw": "0xf86e0f850d84dac14a83015f90948f79f76381aad7b98c19af55ee75fdfeeb0122118902c3c465ca58ec0000801ca048f205b2359e113f0e318c7b15fcb7a1a7f999f2ee6154e87f2f2dc0140d8c01a0152fa3b0256b6bd110ddc1f82f03dac3bf1b2a340fdea37495f8519bf81aeff5",
      "networkId": 0,
      "chainId": 0
    }
  ]
}