{
  "hash": "0x87deeb55557384e34d3ff361c1cb32ef1c9f0d4a853cc675d7373f4586e71751",
  "parentHash": "0x50668d8bd396aaacee751f4e72abe6169cb79749630f29bc993f97396ffba2a6",
  "number": 65330,
  "timestamp": 1439235043,
  "nonce": "0xfafa5b94c01520d6",
  "difficulty": 1945463174953,
  "gasLimit": {
    "_hex": "0x2fefd8"
  },
  "gasUsed": {
    "_hex": "0x17cd8"
  },
  "miner": "0xf8E0CA3Ed80bd541b94BEdCf259e8CF2141A9523",
  "extraData": "0x476574682f76312e302e312f77696e646f77732f676f312e342e32",
  "transactions": [
    {
      "hash": "0x3992a328b2999f4e1102fe2f76f4fb02fe07818fb8561acbf03958248508ae11",
      "blockHash": "0x87deeb55557384e34d3ff361c1cb32ef1c9f0d4a853cc675d7373f4586e71751",
      "blockNumber": 65330,
      "transactionIndex": 0,
      "confirmations": null,
      "from": "0xF35E27ce159161D6e4ad15D842EdB0aAA1A265B9",
      "gasPrice": {
        "_hex": "0xba43b7400"
      },
      "gasLimit": {
        "_hex": "0x15f90"
      },
      "to": "0x793AE8C1b1a160BFc07BFB0d04F85eab1A71F4f2",
      "value": {
        "_hex": "0x0"
      },
      "nonce": 0,
      "data": "0x3ba15036",
      "r": "0x6a19e3366afaaa08f7d6b919bfdae53572ba6be32bd72b7224b15f5316ddcf1b",
      "s": "0x7e56273b1ed235ff2cdcf29e3304229454cdfd8ce1552f190c2652d5c090879e",
      "v": 27,
      "creates": null,
      "raw": "0xf86980850ba43b740083015f9094793ae8c1b1a160bfc07bfb0d04f85eab1a71f4f280843ba150361ba06a19e3366afaaa08f7d6b919bfdae53572ba6be32bd72b7224b15f5316ddcf1ba07e56273b1ed235ff2cdcf29e3304229454cdfd8ce1552f190c2652d5c090879e",
      "networkId": 0,
      "chainId": 0
    },
    {
      "hash": "0xb98b105a3c35dfb2ceeb09ac304332c3c795e1e9150dc9a5a4df4eb7d43ea9ee",
      "blockHash": "0x87deeb55557384e34d3ff361c1cb32ef1c9f0d4a853cc675d7373f4586e71751",
      "blockNumber": 65330,
      "transactionIndex": 1,
      "confirmations": null,
      "from": "0x2176E2A7127EccBa69116c6FCe4d1CF6C7aBa9Bb",
      "gasPrice": {
        "_hex": "0xba43b7400"
      },
      "gasLimit": {
        "_hex": "0x15f90"
      },
      "to": "0x793AE8C1b1a160BFc07BFB0d04F85eab1A71F4f2",
      "value": {
        "_hex": "0x0"
      },
      "nonce": 0,
      "data": "0x3ba15036",
      "r": "0x30354083dbea15e94b4745b766dd028b961f46e2f2567d8144e7ef5ddb5dc68f",
      "s": "0x533ea600a56728df454a1231c974df3b1ce6bcbea594ad07416738b0bc768adf",
      "v": 27,
      "creates": null,
      "raw": "0xf86980850ba43b740083015f9094793ae8c1b1a160bfc07bfb0d04f85eab1a71f4f280843ba150361ba030354083dbea15e94b4745b766dd028b961f46e2f2567d8144e7ef5ddb5dc68fa0533ea600a56728df454a1231c974df3b1ce6bcbea594ad07416738b0bc768adf",
      "networkId": 0,
      "chainId": 0
    }
  ]
}