{
  "hash": "0x2c51527090c89382cb618f44025084291594461938a38adcbfa9db2be1da429f",
  "parentHash": "0xd36aa1d64445e1235fcb7791b9b62aa23481fa141d1b3fcdc973a3b997269cc1",
  "number": 121679,
  "timestamp": 1440180872,
  "nonce": "0x07b10f6c2f0a4ed9",
  "difficulty": 4482098805957,
  "gasLimit": {
    "_hex": "0x2fefd8"
  },
  "gasUsed": {
    "_hex": "0x14820"
  },
  "miner": "0xe6A7a1d47ff21B6321162AEA7C6CB457D5476Bca",
  "extraData": "0xd783010002844765746887676f312e342e32856c696e7578",
  "transactions": [
    {
      "hash": "0x0524abce218ba5ee7638c4d78eeee1dd409409ec5f66689581ed3f457bb01693",
      "blockHash": "0x2c51527090c89382cb618f44025084291594461938a38adcbfa9db2be1da429f",
      "blockNumber": 121679,
      "transactionIndex": 0,
      "confirmations": null,
      "from": "0x665646727edaAEbB32B5F1A9b4e4F3BD867AA8fB",
      "gasPrice": {
        "_hex": "0xd88247380"
      },
      "gasLimit": {
        "_hex": "0x5208"
      },
      "to": "0x32Be343B94f860124dC4fEe278FDCBD38C102D88",
      "value": {
        "_hex": "0x447df58aa59180000"
      },
      "nonce": 10,
      "data": "0x",
      "r": "0xe62853d774255cadce1b313a901fb479c5c69b118123eb3ef41dad2d900dc15d",
      "s": "0x2b40881dbe447dda9e7c617f14ee37e197a5a5b8b5652fdddadb523d2769e3f3",
      "v": 27,
      "creates": null,
      "raw": "0xf86d0a850d882473808252089432be343b94f860124dc4fee278fdcbd38c102d88890447df58aa59180000801ba0e62853d774255cadce1b313a901fb479c5c69b118123eb3ef41dad2d900dc15da02b40881dbe447dda9e7c617f14ee37e197a5a5b8b5652fdddadb523d2769e3f3",
      "networkId": 0,
      "chainId": 0
    },
    {
      "hash": "0x08dac40245879dab894898909d94a6de7a1550906d77f07ddabd305814ee7008",
      "blockHash": "0x2c51527090c89382cb618f44025084291594461938a38adcbfa9db2be1da429f",
      "blockNumber": 121679,
      "transactionIndex": 1,
      "confirmations": null,
      "from": "0x608f4b86321a68453f9adf6F06F7Fc3E621739ad",
      "gasPrice": {
        "_hex": "0xd88247380"
      },
      "gasLimit": {
        "_hex": "0x5208"
      },
      "to": "0x32Be343B94f860124dC4fEe278FDCBD38C102D88",
      "value": {
        "_hex": "0x83ae208bdd351000"
      },
      "nonce": 110,
      "data": "0x",
      "r": "0x0118cdf369f1c88aa7b4b305f732ed292fcf794feb1f626f2d74181fafb0181e",
      "s": "0x5d4352bf746ec1b2bddbd071eab6167c92aac6eb92c3ba96f9bdd117d6307495",
      "v": 27,
      "creates": null,
      "raw": "0xf86c6e850d882473808252089432be343b94f860124dc4fee278fdcbd38c102d888883ae208bdd351000801ba00118cdf369f1c88aa7b4b305f732ed292fcf794feb1f626f2d74181fafb0181ea05d4352bf746ec1b2bddbd071eab6167c92aac6eb92c3ba96f9bdd117d6307495",
      "networkId": 0,
      "chainId": 0
    },
    {
      "hash": "0xcc2ac33bcf4a2d8f0415a7b7c4acca5eeb458acbde6e406ac56a60fb6d5e2e92",
      "blockHash": "0x2c51527090c89382cb618f44025084291594461938a38adcbfa9db2be1da429f",
      "blockNumber": 121679,
      "transactionIndex": 2,
      "confirmations": null,
      "from": "0xF2C14aDd753869D4EEdfefdCdFBA341Abfa1D702",
      "gasPrice": {
        "_hex": "0xd88247380"
      },
      "gasLimit": {
        "_hex": "0x5208"
      },
      "to": "0x32Be343B94f860124dC4fEe278FDCBD38C102D88",
      "value": {
        "_hex": "0x15bf66e069629e000"
      },
      "nonce": 12,
      "data": "0x",
      "r": "0xa5c95c3a7ce840200a80f5127a310b7c1b1e024ea9ea5ef6546a4da52a9d6250",
      "s": "0x3bf97826a1a4675c74d4eee879fda3a41797b7dfd7f2dbf32319e69f62e052df",
      "v": 28,
      "creates": null,
      "raw": "0xf86d0c850d882473808252089432be343b94f860124dc4fee278fdcbd38c102d8889015bf66e069629e000801ca0a5c95c3a7ce840200a80f5127a310b7c1b1e024ea9ea5ef6546a4da52a9d6250a03bf97826a1a4675c74d4eee879fda3a41797b7dfd7f2dbf32319e69f62e052df",
      "networkId": 0,
      "chainId": 0
    },
    {
      "hash": "0x89d7518227fd467fe1053dfa4cda463a02c54750ece1f3117ce094bee4c98e64",
      "blockHash": "0x2c51527090c89382cb618f44025084291594461938a38adcbfa9db2be1da429f",
      "blockNumber": 121679,
      "transactionIndex": 3,
      "confirmations": null,
      "from": "0x9729efC5198d5ed4d98Fa76745093D41d89FB143",
      "gasPrice": {
        "_hex": "0xd88247380"
      },
      "gasLimit": {
        "_hex": "0x5208"
      },
      "to": "0x32Be343B94f860124dC4fEe278FDCBD38C102D88",
      "value": {
        "_hex": "0x3cb7a74c7ec63c00"
      },
      "nonce": 2,
      "data": "0x",
      "r": "0x53e4f1f6593646bb9a6dedf90c1e8b6f12dbcbe68ee71909dca2a62e26189ff7",
      "s": "0x355ab7edd686a50074aff186559ad763592d7c846cea43cdfa174998ac64de23",
      "v": 27,
      "creates": null,
      "raw": "0xf86c02850d882473808252089432be343b94f860124dc4fee278fdcbd38c102d88883cb7a74c7ec63c00801ba053e4f1f6593646bb9a6dedf90c1e8b6f12dbcbe68ee71909dca2a62e26189ff7a0355ab7edd686a50074aff186559ad763592d7c846cea43cdfa174998ac64de23",
      "networkId": 0,
      "chainId": 0
    }
  ]
}