{
  "hash": "0x4295f9d3d5bf65ec8b11abbebc47bfc33e619ce8bd32d36139ab216332c6e15e",
  "parentHash": "0x4ac37fececdeb81d14458622f17e082674b8f7589a6487fd373238216d489e68",
  "number": 117917,
  "timestamp": 1440117503,
  "nonce": "0x8c2ffcdebc79cb38",
  "difficulty": 4346147772088,
  "gasLimit": {
    "_hex": "0x2fefd8"
  },
  "gasUsed": {
    "_hex": "0xf618"
  },
  "miner": "0xe6A7a1d47ff21B6321162AEA7C6CB457D5476Bca",
  "extraData": "0xd783010002844765746887676f312e342e32856c696e7578",
  "transactions": [
    {
      "hash": "0xedf9ce05600d78e262df0db81fe5e88a084ad6ba0e4a7e1850c7fb91c461af99",
      "blockHash": "0x4295f9d3d5bf65ec8b11abbebc47bfc33e619ce8bd32d36139ab216332c6e15e",
      "blockNumber": 117917,
      "transactionIndex": 0,
      "confirmations": null,
      "from": "0x39A7Fe8E3263559BE0A179EdbAe7dD2F61E3bC45",
      "gasPrice": {
        "_hex": "0xba43b7400"
      },
      "gasLimit": {
        "_hex": "0x5208"
      },
      "to": "0x32Be343B94f860124dC4fEe278FDCBD38C102D88",
      "value": {
        "_hex": "0x13f183a27c39c400"
      },
      "nonce": 2,
      "data": "0x",
      "r": "0xc37327f4161e2f0ac3104aee85312c9aa1f7738d78d793b3f1af2a586cea63d8",
      "s": "0x751b48276639bdf6a353355dce8837e1624cdbd6a10ba9b7ae5bc7b74f5f10fb",
      "v": 28,
      "creates": null,
      "raw": "0xf86c02850ba43b74008252089432be343b94f860124dc4fee278fdcbd38c102d888813f183a27c39c400801ca0c37327f4161e2f0ac3104aee85312c9aa1f7738d78d793b3f1af2a586cea63d8a0751b48276639bdf6a353355dce8837e1624cdbd6a10ba9b7ae5bc7b74f5f10fb",
      "networkId": 0,
      "chainId": 0
    },
    {
      "hash": "0xa38c9e2f5b05b8861ac302ed307d55fe15f3c2869ed1d60970ad709e7b9031e6",
      "blockHash": "0x4295f9d3d5bf65ec8b11abbebc47bfc33e619ce8bd32d36139ab216332c6e15e",
      "blockNumber": 117917,
      "transactionIndex": 1,
      "confirmations": null,
      "from": "0x7C197542A77e913547d2E58e8d3c6F224f6f0f98",
      "gasPrice": {
        "_hex": "0xba43b7400"
      },
      "gasLimit": {
        "_hex": "0x5208"
      },
      "to": "0x32Be343B94f860124dC4fEe278FDCBD38C102D88",
      "value": {
        "_hex": "0x3af1f73984c83c00"
      },
      "nonce": 7,
      "data": "0x",
      "r": "0xf8006c12c9a2fe58d9bddc5727be0f4fedb414a96ea1688176b851c31d530fbb",
      "s": "0x012e8903b36da1cb1bffbc4ca3578f94eea5ceede4df5a4c240ec6a4313ba9da",
      "v": 28,
      "creates": null,
      "raw": "0xf86c07850ba43b74008252089432be343b94f860124dc4fee278fdcbd38c102d88883af1f73984c83c00801ca0f8006c12c9a2fe58d9bddc5727be0f4fedb414a96ea1688176b851c31d530fbba0012e8903b36da1cb1bffbc4ca3578f94eea5ceede4df5a4c240ec6a4313ba9da",
      "networkId": 0,
      "chainId": 0
    },
    {
      "hash": "0xc772ae726885af8356e45fdc9b8802788cf327e1555e8c645a904aac922035b1",
      "blockHash": "0x4295f9d3d5bf65ec8b11abbebc47bfc33e619ce8bd32d36139ab216332c6e15e",
      "blockNumber": 117917,
      "transactionIndex": 2,
      "confirmations": null,
      "from": "0xc08E05f51581aDA37f9DD2edbF7a68fE7E199D55",
      "gasPrice": {
        "_hex": "0xba43b7400"
      },
      "gasLimit": {
        "_hex": "0x5208"
      },
      "to": "0x32Be343B94f860124dC4fEe278FDCBD38C102D88",
      "value": {
        "_hex": "0x4e00dd8567c91800"
      },
      "nonce": 7,
      "data": "0x",
      "r": "0x34e6ba98c32af4bc06138a574e433a38921b0dad787acb3025d8f1fa90a53fc7",
      "s": "0x45bdb5d556adf782f11800b8e918cef4024a44a66240c8d5b838c4c3f26f177c",
      "v": 27,
      "creates": null,
      "raw": "0xf86c07850ba43b74008252089432be343b94f860124dc4fee278fdcbd38c102d88884e00dd8567c91800801ba034e6ba98c32af4bc06138a574e433a38921b0dad787acb3025d8f1fa90a53fc7a045bdb5d556adf782f11800b8e918cef4024a44a66240c8d5b838c4c3f26f177c",
      "networkId": 0,
      "chainId": 0
    }
  ]
}