{
  "hash": "0x5797f7a4d0978778439a568af88bc044e03f88c9c6e18d03280c13efa4f61fca",
  "parentHash": "0xd8069ba4e2ac171ddf6215fe6410bad0e16d8593ddd02161fe9bf4d5669416ab",
  "number": 114520,
  "timestamp": 1440041829,
  "nonce": "0xb422dd24b0f59417",
  "difficulty": 4501284536612,
  "gasLimit": {
    "_hex": "0x2fefd8"
  },
  "gasUsed": {
    "_hex": "0x15f90"
  },
  "miner": "0x9746c7e1ef2bd21FF3997fa467593a89cb852BD0",
  "extraData": "0x476574682f76312e302e312f77696e646f77732f676f312e342e32",
  "transactions": [
    {
      "hash": "0x51a98a022e924271a6e859b4e6873959ad15583d5844775e8d25821c11234511",
      "blockHash": "0x5797f7a4d0978778439a568af88bc044e03f88c9c6e18d03280c13efa4f61fca",
      "blockNumber": 114520,
      "transactionIndex": 0,
      "confirmations": null,
      "from": "0xcD063B3081Ea55535E5b60a21eff7f14E785A877",
      "gasPrice": {
        "_hex": "0xcb3a7d841"
      },
      "gasLimit": {
        "_hex": "0x15f90"
      },
      "to": "0x3edDc7ebC7db94f54b72D8Ed1F42cE6A527305bB",
      "value": {
        "_hex": "0x0"
      },
      "nonce": 9,
      "data": "0x937f6e77000000000000000000000000000000000000000000000000000000000000002000000000000000000000000000000000000000000000000000000000000000455468616e6b20796f7520666f72207573696e6720417965417965436f696e212068747470733a2f2f656e2e77696b6970656469612e6f72672f77696b692f4179652d617965000000000000000000000000000000000000000000000000000000",
      "r": "0x8b94e304407f146f4b97fc06dc904f294e40a4c3a88694a4a5ef74795567c99c",
      "s": "0x517f0fe2d9f6e5597de7f47406492682a7a6a13fb84ed0fa02145e60a6a2a850",
      "v": 28,
      "creates": null,
      "raw": "0xf9010a09850cb3a7d84183015f90943eddc7ebc7db94f54b72d8ed1f42ce6a527305bb80b8a4937f6e77000000000000000000000000000000000000000000000000000000000000002000000000000000000000000000000000000000000000000000000000000000455468616e6b20796f7520666f72207573696e6720417965417965436f696e212068747470733a2f2f656e2e77696b6970656469612e6f72672f77696b692f4179652d6179650000000000000000000000000000000000000000000000000000001ca08b94e304407f146f4b97fc06dc904f294e40a4c3a88694a4a5ef74795567c99ca0517f0fe2d9f6e5597de7f47406492682a7a6a13fb84ed0fa02145e60a6a2a850",
      "networkId": 0,
      "chainId": 0
    }
  ]
}