{
  "hash": "0x24cc629ccede18ee25c02c5878fe6bfd70f526c86694e268863f093b06fa073e",
  "parentHash": "0x0a37e7357340a854b267a01036cab9550373b25c46bc7c850032ccd1e8984b53",
  "number": 104730,
  "timestamp": 1439874473,
  "nonce": "0xe4909a3225941b92",
  "difficulty": 4367889171160,
  "gasLimit": {
    "_hex": "0x2fefd8"
  },
  "gasUsed": {
    "_hex": "0x5208"
  },
  "miner": "0xe6A7a1d47ff21B6321162AEA7C6CB457D5476Bca",
  "extraData": "0x476574682f76312e302e312d38326566323666362f6c696e75782f676f312e34",
  "transactions": [
    {
      "hash": "0x0c20d9557a20adb39c2a4529400f58f30b152a6b8d57876a0275ad223ad625b3",
      "blockHash": "0x24cc629ccede18ee25c02c5878fe6bfd70f526c86694e268863f093b06fa073e",
      "blockNumber": 104730,
      "transactionIndex": 0,
      "confirmations": null,
      "from": "0xA10C59651885FeAaac91F871082a23BBbaBeDfCf",
      "gasPrice": {
        "_hex": "0x119de60e4d3"
      },
      "gasLimit": {
        "_hex": "0x5208"
      },
      "to": "0x4c74B6F32c9680aCB5Fe0e72B7Aa95C612540A04",
      "value": {
        "_hex": "0xf9ccd8a1c5080000"
      },
      "nonce": 40,
      "data": "0x",
      "r": "0x7b7d1876ef67a3e75da7b7943be856b383a54871803a8cf9bd2c702304e965d8",
      "s": "0x6db6982097679cf91d1aa18ae1d2f4b2e26fccc6b933304dddc30c86b999a0ff",
      "v": 27,
      "creates": null,
      "raw": "0xf86d28860119de60e4d3825208944c74b6f32c9680acb5fe0e72b7aa95c612540a0488f9ccd8a1c5080000801ba07b7d1876ef67a3e75da7b7943be856b383a54871803a8cf9bd2c702304e965d8a06db6982097679cf91d1aa18ae1d2f4b2e26fccc6b933304dddc30c86b999a0ff",
      "networkId": 0,
      "chainId": 0
    }
  ]
}