{
  "hash": "0xe1abaadb98d897fa18fa3638ed3eed8d55962ab768356660a76d42912c797c51",
  "parentHash": "0x2081fe1b2668b256098c241aea7357874c28d2ee3f7da8fecd595d4c91d52e61",
  "number": 93007,
  "timestamp": 1439680792,
  "nonce": "0x84f4846493564734",
  "difficulty": 3642141644983,
  "gasLimit": {
    "_hex": "0x2fefd8"
  },
  "gasUsed": {
    "_hex": "0x5208"
  },
  "miner": "0xf8E0CA3Ed80bd541b94BEdCf259e8CF2141A9523",
  "extraData": "0x476574682f76312e302e312f77696e646f77732f676f312e342e32",
  "transactions": [
    {
      "hash": "0x56230bc993be62568900101dca0c9b156e7dbb8265abe6a18757e91b797a3704",
      "blockHash": "0xe1abaadb98d897fa18fa3638ed3eed8d55962ab768356660a76d42912c797c51",
      "blockNumber": 93007,
      "transactionIndex": 0,
      "confirmations": null,
      "from": "0x1C68a66138783A63c98cc675a9eC77AF4598D35e",
      "gasPrice": {
        "_hex": "0xd2ef76de7"
      },
      "gasLimit": {
        "_hex": "0x5208"
      },
      "to": "0x0F87Fb507513e749081E34373c84E95e85b5c057",
      "value": {
        "_hex": "0x71e924f232380"
      },
      "nonce": 2,
      "data": "0x",
      "r": "0x4e2800a865b0ba34a3a64b37186019b6e21f0df750f3879db1c965a075a9b812",
      "s": "0x1fc789920c49b6a09f3c13e0389416edbbd77ce25578409a7a467ba14dcb3efc",
      "v": 28,
      "creates": null,
      "raw": "0xf86b02850d2ef76de7825208940f87fb507513e749081e34373c84e95e85b5c05787071e924f232380801ca04e2800a865b0ba34a3a64b37186019b6e21f0df750f3879db1c965a075a9b812a01fc789920c49b6a09f3c13e0389416edbbd77ce25578409a7a467ba14dcb3efc",
      "networkId": 0,
      "chainId": 0
    }
  ]
}