{
  "hash": "0xd29c2811a00a1aef51e2ef5424f5881df01848aeab691289b968be54e4cfab93",
  "parentHash": "0xdf3c75a998ff36d7eebd721b8d7ab6a0fa24eddd98c6e5f3d2d65d8dfd6b9c4a",
  "number": 89151,
  "timestamp": 1439618961,
  "nonce": "0xa1f6d56dd86335c7",
  "difficulty": 3275878976299,
  "gasLimit": {
    "_hex": "0x2fefd8"
  },
  "gasUsed": {
    "_hex": "0x5208"
  },
  "miner": "0x007f7f58D3eb5b7510A301eCC749FC1fCDDBE14D",
  "extraData": "0x476574682f76312e302e312f77696e646f77732f676f312e342e32",
  "transactions": [
    {
      "hash": "0xa74eb06d5499c3d781168c84b9d284dcae4624910a4500e2e8822782ca06741c",
      "blockHash": "0xd29c2811a00a1aef51e2ef5424f5881df01848aeab691289b968be54e4cfab93",
      "blockNumber": 89151,
      "transactionIndex": 0,
      "confirmations": null,
      "from": "0x06EC48800B2DB3eEfa052e98A9b5Fc2Bf783Ee74",
      "gasPrice": {
        "_hex": "0xcca6c9537"
      },
      "gasLimit": {
        "_hex": "0x5208"
      },
      "to": "0x32Be343B94f860124dC4fEe278FDCBD38C102D88",
      "value": {
        "_hex": "0x453bf152c2c10c00"
      },
      "nonce": 9,
      "data": "0x",
      "r": "0xb5725bf04ac4b562ab34cac534ac6c50c53f10dcdf825dbf6a81fb484553daf6",
      "s": "0x4787ddcae5446e0da3327fc72602939d924a3ae50042ea75e29c3db18bd8546a",
      "v": 28,
      "creates": null,
      "raw": "0xf86c09850cca6c95378252089432be343b94f860124dc4fee278fdcbd38c102d8888453bf152c2c10c00801ca0b5725bf04ac4b562ab34cac534ac6c50c53f10dcdf825dbf6a81fb484553daf6a04787ddcae5446e0da3327fc72602939d924a3ae50042ea75e29c3db18bd8546a",
      "networkId": 0,
      "chainId": 0
    }
  ]
}