{
  "hash": "0x42b3e47d381947200856b4de71fe2a5d331d5c09d9ee216bf86b85ab5241ba06",
  "parentHash": "0x0a6a8901e9afa3363fefa78d35b0b421dc4a6f905ddb8aa13533806cdc32dfd1",
  "number": 88320,
  "timestamp": 1439606306,
  "nonce": "0x9fd6c686608591db",
  "difficulty": 3195625808962,
  "gasLimit": {
    "_hex": "0x2fefd8"
  },
  "gasUsed": {
    "_hex": "0x5208"
  },
  "miner": "0xF9634a7Ee627EeF74f4d803113CD4F87E5162079",
  "extraData": "0xdd809b302e392e34302b2b616339392d5257696e646f2f6d73762f4a4954",
  "transactions": [
    {
      "hash": "0x184eabc7e86a9ac6ddcbbea39508b27b3d5ac22f4b214d0d12338f59c5c4bdd6",
      "blockHash": "0x42b3e47d381947200856b4de71fe2a5d331d5c09d9ee216bf86b85ab5241ba06",
      "blockNumber": 88320,
      "transactionIndex": 0,
      "confirmations": null,
      "from": "0x120A270bbC009644e35F0bB6ab13f95b8199c4ad",
      "gasPrice": {
        "_hex": "0xd37180117"
      },
      "gasLimit": {
        "_hex": "0x3d090"
      },
      "to": "0x96AA9d72B4606B440Ef85352439AEC5Db106ddAD",
      "value": {
        "_hex": "0x821ab0d4414980000"
      },
      "nonce": 513,
      "data": "0x",
      "r": "0x60d1b7ac8abed0ec05f3540b89c0425f643cf9ae70d98f3a115b5d4ff3d5e2e3",
      "s": "0x0eb66588e9672dccc8d8e1aa02c2fddf997667913a0a9d7a67ba55fa46d26d96",
      "v": 27,
      "creates": null,
      "raw": "0xf870820201850d371801178303d0909496aa9d72b4606b440ef85352439aec5db106ddad890821ab0d4414980000801ba060d1b7ac8abed0ec05f3540b89c0425f643cf9ae70d98f3a115b5d4ff3d5e2e3a00eb66588e9672dccc8d8e1aa02c2fddf997667913a0a9d7a67ba55fa46d26d96",
      "networkId": 0,
      "chainId": 0
    }
  ]
}