{
  "hash": "0xfaaef0850faa4ffc9f3eea1013be008620e213dbd505eb2366dd356a00f147ff",
  "parentHash": "0x3d4de049f1c78a1b31bfbf09322491fd361ddf867f5d12784a54af90381d0ae7",
  "number": 73559,
  "timestamp": 1439371139,
  "nonce": "0x447dd70da24d98a4",
  "difficulty": 2220694319182,
  "gasLimit": {
    "_hex": "0x2fefd8"
  },
  "gasUsed": {
    "_hex": "0x7a83"
  },
  "miner": "0x727A42a8D67fcaa0Ab81D46f1EE66bfc9b8789AC",
  "extraData": "0x",
  "transactions": [
    {
      "hash": "0x3922f7a0792989df0b172636ab2a20d394ff5a33efa39ccbb486695b8c17d111",
      "blockHash": "0xfaaef0850faa4ffc9f3eea1013be008620e213dbd505eb2366dd356a00f147ff",
      "blockNumber": 73559,
      "transactionIndex": 0,
      "confirmations": null,
      "from": "0xD1826373C4E0938f0b4302B40324f7f9c546492C",
      "gasPrice": {
        "_hex": "0xd5341da0e"
      },
      "gasLimit": {
        "_hex": "0x30d40"
      },
      "to": "0x91601CBAb0bD60A0BC314a409da5070f135BeC6E",
      "value": {
        "_hex": "0x38d7ea4c68000"
      },
      "nonce": 5,
      "data": "0x",
      "r": "0xb4462eba36e0eb322a374063fba9ba086be82be6efc035fea874d7e15363e7cb",
      "s": "0x2b0b6893f1c5ca2cb215e499f500749cbaeac8417be5303192312b034b9a5ac0",
      "v": 27,
      "creates": null,
      "raw": "0xf86c05850d5341da0e83030d409491601cbab0bd60a0bc314a409da5070f135bec6e87038d7ea4c68000801ba0b4462eba36e0eb322a374063fba9ba086be82be6efc035fea874d7e15363e7cba02b0b6893f1c5ca2cb215e499f500749cbaeac8417be5303192312b034b9a5ac0",
      "networkId": 0,
      "chainId": 0
    }
  ]
}