{
  "hash": "0x517f52f75306efe76de01e20e81004d5634fc67f9c93ef2e079592e55bef46a0",
  "parentHash": "0xa09dc638c3637fb1bc3ffcf45fe96741833bd668c75f233fc3b62d419265a4bb",
  "number": 55632,
  "timestamp": 1439074169,
  "nonce": "0x66911534685cf019",
  "difficulty": 1617868087401,
  "gasLimit": {
    "_hex": "0x2fefd8"
  },
  "gasUsed": {
    "_hex": "0xddfd"
  },
  "miner": "0x445Aa5d2cB3Bc1A77460aB63C13328368d12fb9F",
  "extraData": "0x",
  "transactions": [
    {
      "hash": "0xdf12aad6639d97376d6cf7920e6db12bb982a713314044737483768b14f83103",
      "blockHash": "0x517f52f75306efe76de01e20e81004d5634fc67f9c93ef2e079592e55bef46a0",
      "blockNumber": 55632,
      "transactionIndex": 0,
      "confirmations": null,
      "from": "0x9E0Afd592B1e40BEe26816E360f02eebF04aD74B",
      "gasPrice": {
        "_hex": "0xdbcac8e00"
      },
      "gasLimit": {
        "_hex": "0x7a120"
      },
      "to": "0x109C4f2CCc82C4d77Bde15F306707320294Aea3F",
      "value": {
        "_hex": "0xde0b6b3a7640000"
      },
      "nonce": 3,
      "data": "0x",
      "r": "0x32c2ce6eb50b5aa4fceed0a404fcc9b067bb947e6f6f46ea4b8b14940c5def30",
      "s": "0x6b3856810e8446653625601002c1e5452c1efb430be247fb9003ddad67e77bd4",
      "v": 28,
      "creates": null,
      "raw": "0xf86d03850dbcac8e008307a12094109c4f2ccc82c4d77bde15f306707320294aea3f880de0b6b3a7640000801ca032c2ce6eb50b5aa4fceed0a404fcc9b067bb947e6f6f46ea4b8b14940c5def30a06b3856810e8446653625601002c1e5452c1efb430be247fb9003ddad67e77bd4",
      "networkId": 0,
      "chainId": 0
    }
  ]
}