{
  "hash": "0xc37633630013c6d2409dbf7d18f32dbde50cc047358bb02b363cbfbcfbe6e435",
  "parentHash": "0x64e9545ddace7ae6308ed7cf1808482223a1763247b31db909e1f2633fb4e884",
  "number": 96639,
  "timestamp": 1439743498,
  "nonce": "0xf135a796c6db3984",
  "difficulty": 3723260800924,
  "gasLimit": {
    "_hex": "0x2fefd8"
  },
  "gasUsed": {
    "_hex": "0x1ec30"
  },
  "miner": "0x36a3706566A8f9b27e7d604f4702900Acd31f32E",
  "extraData": "0x476574682f76312e302e312f6c696e75782f676f312e342e32",
  "transactions": [
    {
      "hash": "0x2dd9449c262eb29fdc41de122c4f812f5b1f1a8e123ccad6219f2b564040b45d",
      "blockHash": "0xc37633630013c6d2409dbf7d18f32dbde50cc047358bb02b363cbfbcfbe6e435",
      "blockNumber": 96639,
      "transactionIndex": 0,
      "confirmations": null,
      "from": "0x0117aCA5D98443a8CE8AeE7aC4BEc8450ABbd852",
      "gasPrice": {
        "_hex": "0xd26a85ba4"
      },
      "gasLimit": {
        "_hex": "0x5208"
      },
      "to": "0x32Be343B94f860124dC4fEe278FDCBD38C102D88",
      "value": {
        "_hex": "0xc676cdb40f88800"
      },
      "nonce": 0,
      "data": "0x",
      "r": "0xd00cc65da0d34df665d7ca2b282bf4cebfbc323c303c7048df38a93256cf626e",
      "s": "0x000979745bfd641efb22eae44387b5ad02d17558bcfddd4f1a777900af13b7bf",
      "v": 27,
      "creates": null,
      "raw": "0xf86b80850d26a85ba48252089432be343b94f860124dc4fee278fdcbd38c102d88880c676cdb40f88800801ba0d00cc65da0d34df665d7ca2b282bf4cebfbc323c303c7048df38a93256cf626e9f0979745bfd641efb22eae44387b5ad02d17558bcfddd4f1a777900af13b7bf",
      "networkId": 0,
      "chainId": 0
    },
    {
      "hash": "0x06d0706dc3c52c85a1f81df5c867aa4457d92f29141ae9ca2a19687d5e30da63",
      "blockHash": "0xc37633630013c6d2409dbf7d18f32dbde50cc047358bb02b363cbfbcfbe6e435",
      "blockNumber": 96639,
      "transactionIndex": 1,
      "confirmations": null,
      "from": "0x645B979F8ce622236DB26feB803455d40C328615",
      "gasPrice": {
        "_hex": "0xd26a85ba4"
      },
      "gasLimit": {
        "_hex": "0x5208"
      },
      "to": "0x32Be343B94f860124dC4fEe278FDCBD38C102D88",
      "value": {
        "_hex": "0xc4e41bde0ac9580000"
      },
      "nonce": 4,
      "data": "0x",
      "r": "0x082081e14b5a3e7e67074dd925969975ce0cafb9afbbfca5a6af966b92810455",
      "s": "0x2a11a2bbb3146f67757e2dad81db56ba0aa5d293c24eb86e511f262998af78fa",
      "v": 27,
      "creates": null,
      "raw": "0xf86d04850d26a85ba48252089432be343b94f860124dc4fee278fdcbd38c102d8889c4e41bde0ac9580000801ba0082081e14b5a3e7e67074dd925969975ce0cafb9afbbfca5a6af966b92810455a02a11a2bbb3146f67757e2dad81db56ba0aa5d293c24eb86e511f262998af78fa",
      "networkId": 0,
      "chainId": 0
    },
    {
      "hash": "0x41f5e0841b0fb55b1a1a6c86a0b5766f76b408a45890ac353046b8a8f3aa2202",
      "blockHash": "0xc37633630013c6d2409dbf7d18f32dbde50cc047358bb02b363cbfbcfbe6e435",
      "blockNumber": 96639,
      "transactionIndex": 2,
      "confirmations": null,
      "from": "0xb1abce2918E21ddb93AA452731a12672A3d9F75a",
      "gasPrice": {
        "_hex": "0xd26a85ba4"
      },
      "gasLimit": {
        "_hex": "0x5208"
      },
      "to": "0x32Be343B94f860124dC4fEe278FDCBD38C102D88",
      "value": {
        "_hex": "0x455f5ab6338d8400"
      },
      "nonce": 60,
      "data": "0x",
      "r": "0xdd86ae3a2564c675ccf1ce01c523d5da5badd8ce208e6b02990227ce612a6dcf",
      "s": "0x6d7b1789eaf7b2ae9c03c8b25eadc2edcda3ea4022ffa0906a6bf6bff64ed3bf",
      "v": 28,
      "creates": null,
      "raw": "0xf86c3c850d26a85ba48252089432be343b94f860124dc4fee278fdcbd38c102d8888455f5ab6338d8400801ca0dd86ae3a2564c675ccf1ce01c523d5da5badd8ce208e6b02990227ce612a6dcfa06d7b1789eaf7b2ae9c03c8b25eadc2edcda3ea4022ffa0906a6bf6bff64ed3bf",
      "networkId": 0,
      "chainId": 0
    },
    {
      "hash": "0xe96323961a2d9db60fcf22d9aa52dae446e9c97e878f490d147349ad75f87631",
      "blockHash": "0xc37633630013c6d2409dbf7d18f32dbde50cc047358bb02b363cbfbcfbe6e435",
      "blockNumber": 96639,
      "transactionIndex": 3,
      "confirmations": null,
      "from": "0xD9666150A9dA92d9108198a4072970805a8B3428",
      "gasPrice": {
        "_hex": "0xd26a85ba4"
      },
      "gasLimit": {
        "_hex": "0x5208"
      },
      "to": "0x32Be343B94f860124dC4fEe278FDCBD38C102D88",
      "value": {
        "_hex": "0x455f5ab6338d8400"
      },
      "nonce": 19,
      "data": "0x",
      "r": "0xea0813839f5abfef33b1758e2846d4860095045ffb5587b4f1ec2994bbdeae56",
      "s": "0x62eb9d91deb8af3875d8eb6bf0af4e4e8df933fa1421026fb3fbe14bdb0228e0",
      "v": 28,
      "creates": null,
      "raw": "0xf86c13850d26a85ba48252089432be343b94f860124dc4fee278fdcbd38c102d8888455f5ab6338d8400801ca0ea0813839f5abfef33b1758e2846d4860095045ffb5587b4f1ec2994bbdeae56a062eb9d91deb8af3875d8eb6bf0af4e4e8df933fa1421026fb3fbe14bdb0228e0",
      "networkId": 0,
      "chainId": 0
    },
    {
      "hash": "0xc1beffd11eac1a9e219ad596fb05054cdc5ab64b0959e5eff8c79f94e8a1b873",
      "blockHash": "0xc37633630013c6d2409dbf7d18f32dbde50cc047358bb02b363cbfbcfbe6e435",
      "blockNumber": 96639,
      "transactionIndex": 4,
      "confirmations": null,
      "from": "0x32Be343B94f860124dC4fEe278FDCBD38C102D88",
      "gasPrice": {
        "_hex": "0xd26a85ba4"
      },
      "gasLimit": {
        "_hex": "0x5208"
      },
      "to": "0x5bD41C3B3DA9d686e42f1A27b352179c484D0279",
      "value": {
        "_hex": "0x7829bd87e7949c00"
      },
      "nonce": 1008,
      "data": "0x",
      "r": "0x85761fb79f2e9cdaf7840f66fe0c89d79cf99e373dac3939106b7119d76a0db0",
      "s": "0x2017710a017bab3f4a029f6973564909ecbb8d60dfef096e9a2956adf566e9b8",
      "v": 28,
      "creates": null,
      "raw": "0xf86e8203f0850d26a85ba4825208945bd41c3b3da9d686e42f1a27b352179c484d0279887829bd87e7949c00801ca085761fb79f2e9cdaf7840f66fe0c89d79cf99e373dac3939106b7119d76a0db0a02017710a017bab3f4a029f6973564909ecbb8d60dfef096e9a2956adf566e9b8",
      "networkId": 0,
      "chainId": 0
    },
    {
      "hash": "0x777c615f6ea0cc9336dbdd44545d20ca89ffc17600a4f9aa751fff41ded87b5b",
      "blockHash": "0xc37633630013c6d2409dbf7d18f32dbde50cc047358bb02b363cbfbcfbe6e435",
      "blockNumber": 96639,
      "transactionIndex": 5,
      "confirmations": null,
      "from": "0xa70a9a7040d542C632D8e0bE7c5513A8a5Bbc752",
      "gasPrice": {
        "_hex": "0xd26a85ba4"
      },
      "gasLimit": {
        "_hex": "0x5208"
      },
      "to": "0x32Be343B94f860124dC4fEe278FDCBD38C102D88",
      "value": {
        "_hex": "0x34067655a2508400"
      },
      "nonce": 164,
      "data": "0x",
      "r": "0xb1524a04e02ad6e091be7ca083c539acb1d241942dee4f557f9a89db5bbcd081",
      "s": "0x605e36393d711add57292ab6d4c19ff9ee459902004a6a19f7e25827e974d3bf",
      "v": 27,
      "creates": null,
      "raw": "0xf86d81a4850d26a85ba48252089432be343b94f860124dc4fee278fdcbd38c102d888834067655a2508400801ba0b1524a04e02ad6e091be7ca083c539acb1d241942dee4f557f9a89db5bbcd081a0605e36393d711add57292ab6d4c19ff9ee459902004a6a19f7e25827e974d3bf",
      "networkId": 0,
      "chainId": 0
    }
  ]
}