{
  "hash": "0x7530df88f923aa2f871e3401c9f1789400b9750dd1d5c4efa72ca69fd47849c6",
  "parentHash": "0x8fbe941e40ccc07b2e3ef849bb0dcb15d6b32651d9536a2a707d4fa20884e44f",
  "number": 115416,
  "timestamp": 1440056875,
  "nonce": "0x761932401d87d671",
  "difficulty": 4562760773766,
  "gasLimit": {
    "_hex": "0x2fefd8"
  },
  "gasUsed": {
    "_hex": "0x14820"
  },
  "miner": "0x0eDEd3DA479d0beF8eeC92A76644D3f4E3C177f7",
  "extraData": "0x476574682f76312e302e312f6c696e75782f676f312e342e32",
  "transactions": [
    {
      "hash": "0x18f6667eceb2b5e77f1dd296e789215bc3cee369e05a2c79abf79bcd990c4289",
      "blockHash": "0x7530df88f923aa2f871e3401c9f1789400b9750dd1d5c4efa72ca69fd47849c6",
      "blockNumber": 115416,
      "transactionIndex": 0,
      "confirmations": null,
      "from": "0x38C2e208474a6311baD73713da3928c54Be4F99b",
      "gasPrice": {
        "_hex": "0xddaffa506"
      },
      "gasLimit": {
        "_hex": "0x30d40"
      },
      "to": "0x120A270bbC009644e35F0bB6ab13f95b8199c4ad",
      "value": {
        "_hex": "0x56b9d1598b8b37080"
      },
      "nonce": 0,
      "data": "0x",
      "r": "0xb920c8ecca4f2dd87447da93376dc4071ab53b34c53d2be92823b5e64f5fc5a1",
      "s": "0x049b04906d8c1bb48f8d44661b7b9b6c71dfac55c5c01aeab3b637b2b70b0517",
      "v": 28,
      "creates": null,
      "raw": "0xf86e80850ddaffa50683030d4094120a270bbc009644e35f0bb6ab13f95b8199c4ad89056b9d1598b8b37080801ca0b920c8ecca4f2dd87447da93376dc4071ab53b34c53d2be92823b5e64f5fc5a1a0049b04906d8c1bb48f8d44661b7b9b6c71dfac55c5c01aeab3b637b2b70b0517",
      "networkId": 0,
      "chainId": 0
    },
    {
      "hash": "0x8e803fc9a249738ff20a2a1d928911e0c7fee0b49367e92c55835fe5a8193fa1",
      "blockHash": "0x7530df88f923aa2f871e3401c9f1789400b9750dd1d5c4efa72ca69fd47849c6",
      "blockNumber": 115416,
      "transactionIndex": 1,
      "confirmations": null,
      "from": "0xf5695Ae85aB4f83A5f859c4c691ce7CEf32b708B",
      "gasPrice": {
        "_hex": "0xdd9f384ac"
      },
      "gasLimit": {
        "_hex": "0x5208"
      },
      "to": "0x32Be343B94f860124dC4fEe278FDCBD38C102D88",
      "value": {
        "_hex": "0x21b845b486d63e000"
      },
      "nonce": 2,
      "data": "0x",
      "r": "0x9537f3f1a598ed5b74248c2b916ffde719ff1c2098931433013397cfbebcfc39",
      "s": "0x2e6f5f54d79a03f7a18522c618f69e1d82b271c0a03883d2279a4b6d9d5a2182",
      "v": 27,
      "creates": null,
      "raw": "0xf86d02850dd9f384ac8252089432be343b94f860124dc4fee278fdcbd38c102d8889021b845b486d63e000801ba09537f3f1a598ed5b74248c2b916ffde719ff1c2098931433013397cfbebcfc39a02e6f5f54d79a03f7a18522c618f69e1d82b271c0a03883d2279a4b6d9d5a2182",
      "networkId": 0,
      "chainId": 0
    },
    {
      "hash": "0x48871b15ed0fefca5cd2712148ecdcf5288acd4caaffd43178b482d541bfc7ec",
      "blockHash": "0x7530df88f923aa2f871e3401c9f1789400b9750dd1d5c4efa72ca69fd47849c6",
      "blockNumber": 115416,
      "transactionIndex": 2,
      "confirmations": null,
      "from": "0x9ac4E9D48C027208905CF2A81f304664A5dAeF87",
      "gasPrice": {
        "_hex": "0xdd9f384ac"
      },
      "gasLimit": {
        "_hex": "0x5208"
      },
      "to": "0x32Be343B94f860124dC4fEe278FDCBD38C102D88",
      "value": {
        "_hex": "0x52868d61fde05400"
      },
      "nonce": 3,
      "data": "0x",
      "r": "0xd18335996a540f1b4a0d4624e6642efec071249320f686169361b0989a190cd1",
      "s": "0x4b72a447b5ca2f43d6d3a23340cd21a961de659fa371abb395350c76832d631c",
      "v": 28,
      "creates": null,
      "raw": "0xf86c03850dd9f384ac8252089432be343b94f860124dc4fee278fdcbd38c102d888852868d61fde05400801ca0d18335996a540f1b4a0d4624e6642efec071249320f686169361b0989a190cd1a04b72a447b5ca2f43d6d3a23340cd21a961de659fa371abb395350c76832d631c",
      "networkId": 0,
      "chainId": 0
    },
    {
      "hash": "0x16c1638d5c3353f8391171dd5e0661ca3ac65b04c138cc1046b60a5c00eb3645",
      "blockHash": "0x7530df88f923aa2f871e3401c9f1789400b9750dd1d5c4efa72ca69fd47849c6",
      "blockNumber": 115416,
      "transactionIndex": 3,
      "confirmations": null,
      "from": "0xcCA04dde313A912347DBE3b8f78E73Ab14B51CbE",
      "gasPrice": {
        "_hex": "0xdd9f384ac"
      },
      "gasLimit": {
        "_hex": "0x5208"
      },
      "to": "0x32Be343B94f860124dC4fEe278FDCBD38C102D88",
      "value": {
        "_hex": "0xcc11d82496b14000"
      },
      "nonce": 3,
      "data": "0x",
      "r": "0x02c176774ed1bad8ea5aecce893cd676431d37dd31eab3a7c9e2daa322136e8c",
      "s": "0x7dc810f06562649853dc50becfc05ba17e29c02771011e8b14609fa9365b3d56",
      "v": 27,
      "creates": null,
      "raw": "0xf86c03850dd9f384ac8252089432be343b94f860124dc4fee278fdcbd38c102d8888cc11d82496b14000801ba002c176774ed1bad8ea5aecce893cd676431d37dd31eab3a7c9e2daa322136e8ca07dc810f06562649853dc50becfc05ba17e29c02771011e8b14609fa9365b3d56",
      "networkId": 0,
      "chainId": 0
    }
  ]
}