{
  "hash": "0x3d9c05f6f2e7950c16cf83535eaf7ca390b3babd59038485995d178142c0b137",
  "parentHash": "0x7ece00cbf8e0627bf3c83e2544869ee74c436690a6c45c7116ea96fb31c3d419",
  "number": 87199,
  "timestamp": 1439588837,
  "nonce": "0x4a23cbb86b1ca40d",
  "difficulty": 3057149593223,
  "gasLimit": {
    "_hex": "0x2fefd8"
  },
  "gasUsed": {
    "_hex": "0xa410"
  },
  "miner": "0xe6A7a1d47ff21B6321162AEA7C6CB457D5476Bca",
  "extraData": "0x476574682f76312e302e312d38326566323666362f6c696e75782f676f312e34",
  "transactions": [
    {
      "hash": "0xcc3f762459d20043d2b1acffbe9dd536753bfe4c073321f0abf605d63b05032d",
      "blockHash": "0x3d9c05f6f2e7950c16cf83535eaf7ca390b3babd59038485995d178142c0b137",
      "blockNumber": 87199,
      "transactionIndex": 0,
      "confirmations": null,
      "from": "0x120A270bbC009644e35F0bB6ab13f95b8199c4ad",
      "gasPrice": {
        "_hex": "0xe0f101456"
      },
      "gasLimit": {
        "_hex": "0x3d090"
      },
      "to": "0x8b6bdecDD971D3Fd0f59CDe23843B0320962C9B3",
      "value": {
        "_hex": "0x1043561a8829300000"
      },
      "nonce": 491,
      "data": "0x",
      "r": "0x3bde39e892ffe0b16877e2b96bed705276b2d1ad6ac4bb8996b06d48eb45a874",
      "s": "0x50330abe19812fb9dd46894fde1be012501e7a797192a0bf22cccd9de37952c9",
      "v": 27,
      "creates": null,
      "raw": "0xf8708201eb850e0f1014568303d090948b6bdecdd971d3fd0f59cde23843b0320962c9b3891043561a8829300000801ba03bde39e892ffe0b16877e2b96bed705276b2d1ad6ac4bb8996b06d48eb45a874a050330abe19812fb9dd46894fde1be012501e7a797192a0bf22cccd9de37952c9",
      "networkId": 0,
      "chainId": 0
    },
    {
      "hash": "0x033c4618362a43eb8c592dc3997535677466ac109d13a5d9644781a98a9b4658",
      "blockHash": "0x3d9c05f6f2e7950c16cf83535eaf7ca390b3babd59038485995d178142c0b137",
      "blockNumber": 87199,
      "transactionIndex": 1,
      "confirmations": null,
      "from": "0x21D46e5e1C37D3fa2157A393Fa444EafE63646Fa",
      "gasPrice": {
        "_hex": "0xd8364fc25"
      },
      "gasLimit": {
        "_hex": "0x15f90"
      },
      "to": "0x2D1d94521E896625F8Ec3f65171Fa82262Da6BCF",
      "value": {
        "_hex": "0x4563918244f40000"
      },
      "nonce": 3,
      "data": "0x",
      "r": "0xcf95e5225fd9c1495b7caa716c437d93e68e4dca3d9abb4b195918bb674c93c3",
      "s": "0x625e6c0a9dec1f4710ef846ccca1fc549bc4298d89295fc3e9b919464552da8d",
      "v": 27,
      "creates": null,
      "raw": "0xf86d03850d8364fc2583015f90942d1d94521e896625f8ec3f65171fa82262da6bcf884563918244f40000801ba0cf95e5225fd9c1495b7caa716c437d93e68e4dca3d9abb4b195918bb674c93c3a0625e6c0a9dec1f4710ef846ccca1fc549bc4298d89295fc3e9b919464552da8d",
      "networkId": 0,
      "chainId": 0
    }
  ]
}