{
  "hash": "0x040703c9520412e4f2d25790eb763b74ddcaf4371ffd21f077424cfa2bd190de",
  "parentHash": "0x7267d70a9ac310d86cf57833cb186165d33b24d4fee93e62a4318b599495ddb8",
  "number": 79458,
  "timestamp": 1439470008,
  "nonce": "0x3e417f32b9dd50f2",
  "difficulty": 2333594214599,
  "gasLimit": {
    "_hex": "0x2fefd8"
  },
  "gasUsed": {
    "_hex": "0xa410"
  },
  "miner": "0xA21Ba94e45f0E168dA824fC67aC9cb5Cb577a8aF",
  "extraData": "0x",
  "transactions": [
    {
      "hash": "0xfd447ed0bf1de6f07e949d4eaf70f625c20ca704064540a84a14e6cd551b907b",
      "blockHash": "0x040703c9520412e4f2d25790eb763b74ddcaf4371ffd21f077424cfa2bd190de",
      "blockNumber": 79458,
      "transactionIndex": 0,
      "confirmations": null,
      "from": "0x32Be343B94f860124dC4fEe278FDCBD38C102D88",
      "gasPrice": {
        "_hex": "0xd82780b5e"
      },
      "gasLimit": {
        "_hex": "0x5208"
      },
      "to": "0x292D4fe90093af505D6073477Ed402B022f9b8f9",
      "value": {
        "_hex": "0x20ac9a23f18cdc000"
      },
      "nonce": 425,
      "data": "0x",
      "r": "0x51237ae820c2b658afea1df313505fdaf7196e4b2cfb699343d68224d1ec1e22",
      "s": "0x3483a83bfe1b1ff0fa47fa6c0fa4fc9364681e04e2bc75570f57a03c2f05e648",
      "v": 28,
      "creates": null,
      "raw": "0xf86f8201a9850d82780b5e82520894292d4fe90093af505d6073477ed402b022f9b8f989020ac9a23f18cdc000801ca051237ae820c2b658afea1df313505fdaf7196e4b2cfb699343d68224d1ec1e22a03483a83bfe1b1ff0fa47fa6c0fa4fc9364681e04e2bc75570f57a03c2f05e648",
      "networkId": 0,
      "chainId": 0
    },
    {
      "hash": "0x094b648c0eb7d350495c680f093188a2759cf8d9575f487eca4fab9367fdb1a1",
      "blockHash": "0x040703c9520412e4f2d25790eb763b74ddcaf4371ffd21f077424cfa2bd190de",
      "blockNumber": 79458,
      "transactionIndex": 1,
      "confirmations": null,
      "from": "0x32Be343B94f860124dC4fEe278FDCBD38C102D88",
      "gasPrice": {
        "_hex": "0xd82780b5e"
      },
      "gasLimit": {
        "_hex": "0x5208"
      },
      "to": "0xd63d66704099F24ED9DD6a45BD57b13B872ad515",
      "value": {
        "_hex": "0x443a9d9c8202d4000"
      },
      "nonce": 426,
      "data": "0x",
      "r": "0x162a42834d507c42677a3508ac2d46bafe88871fc52019eb1e897fa6367bd522",
      "s": "0x20e4c214e9f799578c8714a5388a58f8eff531911c6de1be0514651fe5dbd86d",
      "v": 28,
      "creates": null,
      "raw": "0xf86f8201aa850d82780b5e82520894d63d66704099f24ed9dd6a45bd57b13b872ad515890443a9d9c8202d4000801ca0162a42834d507c42677a3508ac2d46bafe88871fc52019eb1e897fa6367bd522a020e4c214e9f799578c8714a5388a58f8eff531911c6de1be0514651fe5dbd86d",
      "networkId": 0,
      "chainId": 0
    }
  ]
}