{
  "hash": "0x8bbb62bb46ec744a76ab08eff4a055247d50e3904cb226e2d2859cec5f3956b6",
  "parentHash": "0xdb590f8b5082b906b316e4c0dc7f1f105d9a5ec905b1d8c234f8f4ea3fcb6728",
  "number": 75468,
  "timestamp": 1439403936,
  "nonce": "0x504a27e6b10c2ca5",
  "difficulty": 2208296135232,
  "gasLimit": {
    "_hex": "0x2fefd8"
  },
  "gasUsed": {
    "_hex": "0x153eb"
  },
  "miner": "0xe6A7a1d47ff21B6321162AEA7C6CB457D5476Bca",
  "extraData": "0x476574682f76312e302e312d38326566323666362f6c696e75782f676f312e34",
  "transactions": [
    {
      "hash": "0xd0711427ab95dc0238d34e523cdebdc05b1953fa8d7472ec417b882fbd1ce2c0",
      "blockHash": "0x8bbb62bb46ec744a76ab08eff4a055247d50e3904cb226e2d2859cec5f3956b6",
      "blockNumber": 75468,
      "transactionIndex": 0,
      "confirmations": null,
      "from": "0x87C5B5874A18B4306DF8a752a6C8cc3E82daFc19",
      "gasPrice": {
        "_hex": "0x1176198038b"
      },
      "gasLimit": {
        "_hex": "0x493e0"
      },
      "to": "0xD79B4C6791784184e2755B2fC1659eaaB0f80456",
      "value": {
        "_hex": "0x0"
      },
      "nonce": 48,
      "data": "0x03750d94000000000000000000000000326be8f71bfb0379f989aab1cc1fe37f0a771f603936666563353965643233623062333800000000000000000000000000000000",
      "r": "0x7084827377cb8d65831060b4bf96853b66517122cfd3cbb51edf5c7bfc3409f6",
      "s": "0x4e4e65423772690e5a66c7479453152bc6df460f77741ba7a9e8c1fe7f8cc993",
      "v": 27,
      "creates": null,
      "raw": "0xf8ab308601176198038b830493e094d79b4c6791784184e2755b2fc1659eaab0f8045680b84403750d94000000000000000000000000326be8f71bfb0379f989aab1cc1fe37f0a771f6039366665633539656432336230623338000000000000000000000000000000001ba07084827377cb8d65831060b4bf96853b66517122cfd3cbb51edf5c7bfc3409f6a04e4e65423772690e5a66c7479453152bc6df460f77741ba7a9e8c1fe7f8cc993",
      "networkId": 0,
      "chainId": 0
    },
    {
      "hash": "0xc55d2c23aa09ed6881b043a2df26a7bde8151958464d9b0aa15b3c4eb0a72240",
      "blockHash": "0x8bbb62bb46ec744a76ab08eff4a055247d50e3904cb226e2d2859cec5f3956b6",
      "blockNumber": 75468,
      "transactionIndex": 1,
      "confirmations": null,
      "from": "0xAdF1aCFe99BC8C14B304c8D905Ba27657B8A7Bc4",
      "gasPrice": {
        "_hex": "0xdcaadd8fe"
      },
      "gasLimit": {
        "_hex": "0x55f0"
      },
      "to": "0x2910543Af39abA0Cd09dBb2D50200b3E800A63D2",
      "value": {
        "_hex": "0xd8d726b7177a800000"
      },
      "nonce": 4,
      "data": "0x454e50374130434e30",
      "r": "0xca9a36c7f99e0a2ed03023697c7f491a3afa439e49606d33a8994485e10992d7",
      "s": "0x73c42ff47854254366cf19f0b104e8e90f977f547f976295a17e863aa70c9423",
      "v": 28,
      "creates": null,
      "raw": "0xf87604850dcaadd8fe8255f0942910543af39aba0cd09dbb2d50200b3e800a63d289d8d726b7177a80000089454e50374130434e301ca0ca9a36c7f99e0a2ed03023697c7f491a3afa439e49606d33a8994485e10992d7a073c42ff47854254366cf19f0b104e8e90f977f547f976295a17e863aa70c9423",
      "networkId": 0,
      "chainId": 0
    },
    {
      "hash": "0x1259f946d86b4da58a5c4203dae4f9cb1104a513740291f1cb797f0e894cb6d6",
      "blockHash": "0x8bbb62bb46ec744a76ab08eff4a055247d50e3904cb226e2d2859cec5f3956b6",
      "blockNumber": 75468,
      "transactionIndex": 2,
      "confirmations": null,
      "from": "0xcE2b6a73E0155C41C002D0745D93D9BEd0fbD019",
      "gasPrice": {
        "_hex": "0xd20f3e1ae"
      },
      "gasLimit": {
        "_hex": "0x5208"
      },
      "to": "0x32Be343B94f860124dC4fEe278FDCBD38C102D88",
      "value": {
        "_hex": "0x5cf6f82b2815f000"
      },
      "nonce": 3,
      "data": "0x",
      "r": "0x6d252a07ce55147f8c62e39ae6b2b02f99b2cf218c9fbec40ecba89fe0fc3fc9",
      "s": "0x238066c9ba7bb965b364db35f725396669130e5b945ed32d7c78043bae1f8e8a",
      "v": 28,
      "creates": null,
      "raw": "0xf86c03850d20f3e1ae8252089432be343b94f860124dc4fee278fdcbd38c102d88885cf6f82b2815f000801ca06d252a07ce55147f8c62e39ae6b2b02f99b2cf218c9fbec40ecba89fe0fc3fc9a0238066c9ba7bb965b364db35f725396669130e5b945ed32d7c78043bae1f8e8a",
      "networkId": 0,
      "chainId": 0
    }
  ]
}