{
  "hash": "0xa70c29a9180a2f421343ce007a15ee78191c35fe3e67ca2bd2ce0dade46f463e",
  "parentHash": "0x849826be0dca13e38602dde4c4754b036ee0152bf19246298d4a3e5a893ecf3d",
  "number": 61354,
  "timestamp": 1439171079,
  "nonce": "0x146a90df00fa616c",
  "difficulty": 1731151080828,
  "gasLimit": {
    "_hex": "0x2fefd8"
  },
  "gasUsed": {
    "_hex": "0x5208"
  },
  "miner": "0x1B7047b4338ACf65bE94C1A3e8c5c9338ad7d67C",
  "extraData": "0x476574682f76312e302e312d38326566323666362f6c696e75782f676f312e34",
  "transactions": [
    {
      "hash": "0x1ab1f10a9efdc3c920f6c5322c82389c4d49cb99dd5189224009beffa5507e32",
      "blockHash": "0xa70c29a9180a2f421343ce007a15ee78191c35fe3e67ca2bd2ce0dade46f463e",
      "blockNumber": 61354,
      "transactionIndex": 0,
      "confirmations": null,
      "from": "0x32Be343B94f860124dC4fEe278FDCBD38C102D88",
      "gasPrice": {
        "_hex": "0xd7a19c877"
      },
      "gasLimit": {
        "_hex": "0x5208"
      },
      "to": "0x47232bEc0fEE0DBcA00D2Ce155C263503Daa9297",
      "value": {
        "_hex": "0x3bdc0cc1e38d4400"
      },
      "nonce": 138,
      "data": "0x",
      "r": "0xfa2f42114a93fd9a6916f024f13476d7aa454826b869a1c79a10322f405db871",
      "s": "0x4a0150f8ff290495032c0bd5af9d890eec1c71b6dca275ca0e10bf21c1c1b1be",
      "v": 28,
      "creates": null,
      "raw": "0xf86d818a850d7a19c8778252089447232bec0fee0dbca00d2ce155c263503daa9297883bdc0cc1e38d4400801ca0fa2f42114a93fd9a6916f024f13476d7aa454826b869a1c79a10322f405db871a04a0150f8ff290495032c0bd5af9d890eec1c71b6dca275ca0e10bf21c1c1b1be",
      "networkId": 0,
      "chainId": 0
    }
  ]
}