{
  "hash": "0xfacd0d38e4792123cf34a8e49492d1cc0420c7e387a2692a2172da23679093da",
  "parentHash": "0xf9e3af2242f525dede49c9295a4d86ff5489ff07db7528450868b3221f473046",
  "number": 64747,
  "timestamp": 1439225720,
  "nonce": "0xc6284ed3726052fe",
  "difficulty": 1886659609114,
  "gasLimit": {
    "_hex": "0x2fefd8"
  },
  "gasUsed": {
    "_hex": "0xa410"
  },
  "miner": "0x0037ce3d4B7f8729C8607D8D0248252Be68202c0",
  "extraData": "0x476574682f76312e302e312f77696e646f77732f676f312e342e32",
  "transactions": [
    {
      "hash": "0xcd010ad2bf07a7d8b3026cd190ac9db8e9cd54624ec24d7c43c72e6d9d443f3b",
      "blockHash": "0xfacd0d38e4792123cf34a8e49492d1cc0420c7e387a2692a2172da23679093da",
      "blockNumber": 64747,
      "transactionIndex": 0,
      "confirmations": null,
      "from": "0x2910543Af39abA0Cd09dBb2D50200b3E800A63D2",
      "gasPrice": {
        "_hex": "0xcb27223ab"
      },
      "gasLimit": {
        "_hex": "0x5208"
      },
      "to": "0xD96719eF8eFF64F6e84Fd03120014834F4E76c40",
      "value": {
        "_hex": "0x3635b7ea4ca6bf8000"
      },
      "nonce": 151,
      "data": "0x",
      "r": "0x7c4add551e76df53b338b759052c8da5eb94b0ab9190e11d80948402067aa1df",
      "s": "0x6b8c097a8e99778ae9135cf29d886f2d2f4860ec60a0c45d14c8a7ce6b9206de",
      "v": 27,
      "creates": null,
      "raw": "0xf86e8197850cb27223ab82520894d96719ef8eff64f6e84fd03120014834f4e76c40893635b7ea4ca6bf8000801ba07c4add551e76df53b338b759052c8da5eb94b0ab9190e11d80948402067aa1dfa06b8c097a8e99778ae9135cf29d886f2d2f4860ec60a0c45d14c8a7ce6b9206de",
      "networkId": 0,
      "chainId": 0
    },
    {
      "hash": "0xcb8602826f1b32be9792dcd59c02b4f9c897bb1c43d5f94defabbbcc717bf768",
      "blockHash": "0xfacd0d38e4792123cf34a8e49492d1cc0420c7e387a2692a2172da23679093da",
      "blockNumber": 64747,
      "transactionIndex": 1,
      "confirmations": null,
      "from": "0xc150e2C5cE9D1f65b9101F5476C4FEda114D1bb6",
      "gasPrice": {
        "_hex": "0xba43b7400"
      },
      "gasLimit": {
        "_hex": "0x5208"
      },
      "to": "0xE38c75494459cCB1727eDB5192AD0E299fcF0c10",
      "value": {
        "_hex": "0x7c58ada8ff2000"
      },
      "nonce": 1,
      "data": "0x",
      "r": "0x17c7bc04643081b9f40fdb646a582eb849b174b61156d6b5a820aa3f06204baa",
      "s": "0x30904ec5394c67ef3146c4e8f6c915eba9394bc0f4b1a61c2807eb797277e1e8",
      "v": 27,
      "creates": null,
      "raw": "0xf86b01850ba43b740082520894e38c75494459ccb1727edb5192ad0e299fcf0c10877c58ada8ff2000801ba017c7bc04643081b9f40fdb646a582eb849b174b61156d6b5a820aa3f06204baaa030904ec5394c67ef3146c4e8f6c915eba9394bc0f4b1a61c2807eb797277e1e8",
      "networkId": 0,
      "chainId": 0
    }
  ]
}