{
  "hash": "0xc1c27a0454142fc58ead32eb6d86cabcd15b5b8a4e3bc4d56244268d6a45b335",
  "parentHash": "0xe546bfe2ade66673c41600f94b062b5b773e1a013ebe2c43fed0833b0e567676",
  "number": 105926,
  "timestamp": 1439895670,
  "nonce": "0x37f3a0ca1a7f110e",
  "difficulty": 4470833214701,
  "gasLimit": {
    "_hex": "0x2fefd8"
  },
  "gasUsed": {
    "_hex": "0x6ed3"
  },
  "miner": "0xf927a40C8B7F6E07c5af7FA2155B4864a4112B13",
  "extraData": "0x",
  "transactions": [
    {
      "hash": "0x6a51e6e5563de188912ebff386a1032953d305057cbc525c3aec2588df56736f",
      "blockHash": "0xc1c27a0454142fc58ead32eb6d86cabcd15b5b8a4e3bc4d56244268d6a45b335",
      "blockNumber": 105926,
      "transactionIndex": 0,
      "confirmations": null,
      "from": "0x87C5B5874A18B4306DF8a752a6C8cc3E82daFc19",
      "gasPrice": {
        "_hex": "0x11237c1cdd4"
      },
      "gasLimit": {
        "_hex": "0x493e0"
      },
      "to": "0xD79B4C6791784184e2755B2fC1659eaaB0f80456",
      "value": {
        "_hex": "0x0"
      },
      "nonce": 302,
      "data": "0xbd66528a6b6b6b0000000000000000000000000000000000000000000000000000000000",
      "r": "0x9837bd3d694bf776c7d18a062a53a37ebcae600d764aa5b9a049f0577a8fd6f0",
      "s": "0x3601d0795423e822c86c76d564c8992c66d797b9bedf99e266f0083438c9fa22",
      "v": 27,
      "creates": null,
      "raw": "0xf88c82012e86011237c1cdd4830493e094d79b4c6791784184e2755b2fc1659eaab0f8045680a4bd66528a6b6b6b00000000000000000000000000000000000000000000000000000000001ba09837bd3d694bf776c7d18a062a53a37ebcae600d764aa5b9a049f0577a8fd6f0a03601d0795423e822c86c76d564c8992c66d797b9bedf99e266f0083438c9fa22",
      "networkId": 0,
      "chainId": 0
    }
  ]
}