{
  "hash": "0xc6c1d5124cfc533f0745cdda3217eb2fca4d9364ee6faef23a38fdce6a5de2be",
  "parentHash": "0xf8cbe8f468cb96e9eb4f6b7095603460df124d222b7a119b40a0443215cea6e2",
  "number": 50247,
  "timestamp": 1438986030,
  "nonce": "0xff06b48e9b85bacf",
  "difficulty": 1515633123963,
  "gasLimit": {
    "_hex": "0x58820"
  },
  "gasUsed": {
    "_hex": "0x5208"
  },
  "miner": "0xb3395f0a13448d9A660aC4aB2aBBC61F555f3656",
  "extraData": "0x476574682f76312e302e312f77696e646f77732f676f312e342e32",
  "transactions": [
    {
      "hash": "0x654fa5ef51dca5bfc2adb715542fc0b3974cc59e676c5608781df02de378c5c8",
      "blockHash": "0xc6c1d5124cfc533f0745cdda3217eb2fca4d9364ee6faef23a38fdce6a5de2be",
      "blockNumber": 50247,
      "transactionIndex": 0,
      "confirmations": null,
      "from": "0x23C24C8586531e5Ea9DA9EcAdE68724f7ec6b9EA",
      "gasPrice": {
        "_hex": "0xcf9af5eae"
      },
      "gasLimit": {
        "_hex": "0x15f90"
      },
      "to": "0x88a0A05437262a1b65f41A978Cb16CB1f0BFCfE0",
      "value": {
        "_hex": "0x56baaf2383cdc0000"
      },
      "nonce": 0,
      "data": "0x",
      "r": "0xcf35c393fdfe5457d8136372e7e7f7ef48f241559322ba9a391758f289fc73b9",
      "s": "0x4f14286dc6bf179dea1fe83a1087f98b19a940f105fae242990055806bb1df36",
      "v": 28,
      "creates": null,
      "raw": "0xf86e80850cf9af5eae83015f909488a0a05437262a1b65f41a978cb16cb1f0bfcfe089056baaf2383cdc0000801ca0cf35c393fdfe5457d8136372e7e7f7ef48f241559322ba9a391758f289fc73b9a04f14286dc6bf179dea1fe83a1087f98b19a940f105fae242990055806bb1df36",
      "networkId": 0,
      "chainId": 0
    }
  ]
}