{
  "hash": "0x09a5f8f0af6c7391cc8dc200332a1e5f6826a766f1fe9331f1b752dd2604dd1e",
  "parentHash": "0xba76c5dbbef125ad17cd36be89cde4a57723f750c720168a9321971c1112ac1f",
  "number": 102044,
  "timestamp": 1439831934,
  "nonce": "0xe40f2fdc9cc5e1fa",
  "difficulty": 3912781453082,
  "gasLimit": {
    "_hex": "0x2fefd8"
  },
  "gasUsed": {
    "_hex": "0x546c"
  },
  "miner": "0x70137010922f2fC2964b3792907F79FBB75fEbe8",
  "extraData": "0x476574682f76312e302e312f6c696e75782f676f312e342e32",
  "transactions": [
    {
      "hash": "0x3c9e5e9a22108ab60fc8a9e22fac25063821eca4bd3b2a87708f3b1c05868e3c",
      "blockHash": "0x09a5f8f0af6c7391cc8dc200332a1e5f6826a766f1fe9331f1b752dd2604dd1e",
      "blockNumber": 102044,
      "transactionIndex": 0,
      "confirmations": null,
      "from": "0x15dbB48c98309764f99cEd3692dccA35EE306bac",
      "gasPrice": {
        "_hex": "0x110c8f7d8de"
      },
      "gasLimit": {
        "_hex": "0xc350"
      },
      "to": "0x2910543Af39abA0Cd09dBb2D50200b3E800A63D2",
      "value": {
        "_hex": "0x54b40b1f852bda00000"
      },
      "nonce": 0,
      "data": "0x454e51343355463130",
      "r": "0x6af641290d215810922cc405ff888073e8717491b2bc3504671507e510bff170",
      "s": "0xabfb974cb345bb0323820c05ef71287cde1b1d5a553ae8f90fc5deccdf4bde60",
      "v": 28,
      "creates": null,
      "raw": "0xf87880860110c8f7d8de82c350942910543af39aba0cd09dbb2d50200b3e800a63d28a054b40b1f852bda0000089454e513433554631301ca06af641290d215810922cc405ff888073e8717491b2bc3504671507e510bff170a0abfb974cb345bb0323820c05ef71287cde1b1d5a553ae8f90fc5deccdf4bde60",
      "networkId": 0,
      "chainId": 0
    }
  ]
}