{
  "hash": "0x5896bf92adde51e36dccbf42bff5df9da43dfb0426c0b4d9f6aa863f1ed39137",
  "parentHash": "0x5fe589b2482f6993aeb8c2375fc3a47dfd4d8f0055b82cceb300f574737a4ba8",
  "number": 88887,
  "timestamp": 1439615038,
  "nonce": "0xcdf65cb4bbbf74ff",
  "difficulty": 3247315421519,
  "gasLimit": {
    "_hex": "0x2fefd8"
  },
  "gasUsed": {
    "_hex": "0x546c"
  },
  "miner": "0xf8E0CA3Ed80bd541b94BEdCf259e8CF2141A9523",
  "extraData": "0x476574682f76312e302e312f77696e646f77732f676f312e342e32",
  "transactions": [
    {
      "hash": "0x794f05af40d59e0e78d2a5831bb6f377b97b370ca7491f8cb8465978dfd8b2cf",
      "blockHash": "0x5896bf92adde51e36dccbf42bff5df9da43dfb0426c0b4d9f6aa863f1ed39137",
      "blockNumber": 88887,
      "transactionIndex": 0,
      "confirmations": null,
      "from": "0x1c99fe9BB6C6D1066D912099547fd1f4809eACD9",
      "gasPrice": {
        "_hex": "0x9184e72a000"
      },
      "gasLimit": {
        "_hex": "0x55f0"
      },
      "to": "0xB0cD03bb231E2A3CaC6DB4f828440A6C4451e69D",
      "value": {
        "_hex": "0x6f05b59d3b200000"
      },
      "nonce": 1,
      "data": "0x454e334e5158585738",
      "r": "0xceeb7e63f8c5d6463938dee90e5e0dc2e106063c57b39f84d2c07e767573205f",
      "s": "0x4d7475dbf2d1a5e66404e7935a2870432a879f26a9d52ae8ab00834b782bcda5",
      "v": 27,
      "creates": null,
      "raw": "0xf876018609184e72a0008255f094b0cd03bb231e2a3cac6db4f828440a6c4451e69d886f05b59d3b20000089454e334e51585857381ba0ceeb7e63f8c5d6463938dee90e5e0dc2e106063c57b39f84d2c07e767573205fa04d7475dbf2d1a5e66404e7935a2870432a879f26a9d52ae8ab00834b782bcda5",
      "networkId": 0,
      "chainId": 0
    }
  ]
}