{
  "hash": "0x7a2adc6c2d4cf1ea19686f53e9d3ea54d2121e0d92fae1382229ccd505196097",
  "parentHash": "0x6cab839015be4462bda47c5dad1c2e394187fecb0243ba1a2d2d40e9e3add472",
  "number": 69911,
  "timestamp": 1439311649,
  "nonce": "0x8355e8013c8d1efb",
  "difficulty": 2111658219593,
  "gasLimit": {
    "_hex": "0x2fefd8"
  },
  "gasUsed": {
    "_hex": "0x5208"
  },
  "miner": "0x9746c7e1ef2bd21FF3997fa467593a89cb852BD0",
  "extraData": "0x476574682f76312e302e312f77696e646f77732f676f312e342e32",
  "transactions": [
    {
      "hash": "0x61ba2eb73742d6cc3b18e2982249fd0ddd178eb0014aac61562658096af6e014",
      "blockHash": "0x7a2adc6c2d4cf1ea19686f53e9d3ea54d2121e0d92fae1382229ccd505196097",
      "blockNumber": 69911,
      "transactionIndex": 0,
      "confirmations": null,
      "from": "0xdD81AaddCc8448A5fC0ac28DB93ec6801C21E8Ef",
      "gasPrice": {
        "_hex": "0xd39d2f0af"
      },
      "gasLimit": {
        "_hex": "0x5208"
      },
      "to": "0x32Be343B94f860124dC4fEe278FDCBD38C102D88",
      "value": {
        "_hex": "0x2b5df722704c76000"
      },
      "nonce": 5,
      "data": "0x",
      "r": "0x6e95e8b2e09503871f80085a2c185e813edb40da53dc56945926c90dcf76b516",
      "s": "0x7fb5699087b778e72e7adb3adab5212f281dc27e38f30477d865e7b44a9acc18",
      "v": 28,
      "creates": null,
      "raw": "0xf86d05850d39d2f0af8252089432be343b94f860124dc4fee278fdcbd38c102d888902b5df722704c76000801ca06e95e8b2e09503871f80085a2c185e813edb40da53dc56945926c90dcf76b516a07fb5699087b778e72e7adb3adab5212f281dc27e38f30477d865e7b44a9acc18",
      "networkId": 0,
      "chainId": 0
    }
  ]
}