{
  "hash": "0x7cab525737aaff34ae1151c2dec169673f9c67595df2d307747a0bd775734446",
  "parentHash": "0x64684fb87380bd85fe3d41043dab74131dc082360bf88c51960d09024709eb07",
  "number": 75351,
  "timestamp": 1439401885,
  "nonce": "0x6607cefe6eb332ae",
  "difficulty": 2194353630043,
  "gasLimit": {
    "_hex": "0x2fefd8"
  },
  "gasUsed": {
    "_hex": "0x5208"
  },
  "miner": "0xbb7B8287f3F0a933474a79eAe42CBCa977791171",
  "extraData": "0x476574682f4c5649562f76312e302e312f6c696e75782f676f312e342e32",
  "transactions": [
    {
      "hash": "0xabfc302874dd372cef46db20117bb7cad4d7bcdd7a8d08cc694d46d46ec630fb",
      "blockHash": "0x7cab525737aaff34ae1151c2dec169673f9c67595df2d307747a0bd775734446",
      "blockNumber": 75351,
      "transactionIndex": 0,
      "confirmations": null,
      "from": "0x2910543Af39abA0Cd09dBb2D50200b3E800A63D2",
      "gasPrice": {
        "_hex": "0xdbb3fd8a5"
      },
      "gasLimit": {
        "_hex": "0x5208"
      },
      "to": "0xC204Dd9af0cA013b80099149FFa5F3cDcEdb8c20",
      "value": {
        "_hex": "0x1b196fcdf159e58000"
      },
      "nonce": 312,
      "data": "0x",
      "r": "0x79cb58d77ff94ad17e4dab8a75f767870fbdda33340f848939cf9e128706a481",
      "s": "0x268d8c17e815a65d84d7f888b99a2c47959105c0f4f9a1ed8de43f5d738438a3",
      "v": 28,
      "creates": null,
      "raw": "0xf86f820138850dbb3fd8a582520894c204dd9af0ca013b80099149ffa5f3cdcedb8c20891b196fcdf159e58000801ca079cb58d77ff94ad17e4dab8a75f767870fbdda33340f848939cf9e128706a481a0268d8c17e815a65d84d7f888b99a2c47959105c0f4f9a1ed8de43f5d738438a3",
      "networkId": 0,
      "chainId": 0
    }
  ]
}