{
  "hash": "0x56971f2e81166153d43080021b8c0c64decb80ee4b8631e30e734fc991370f72",
  "parentHash": "0x4678e6510b6e06c8af3c588e7494528cfd00e3eba201a3106c91817eecf8cc7d",
  "number": 110457,
  "timestamp": 1439974104,
  "nonce": "0x3afe68e8c677845a",
  "difficulty": 4379852826488,
  "gasLimit": {
    "_hex": "0x2fefd8"
  },
  "gasUsed": {
    "_hex": "0x14820"
  },
  "miner": "0x7C8DB6DAEA570E518f36c83653E7cc0fcF87C232",
  "extraData": "0xd983010001844765746887676f312e342e328777696e646f7773",
  "transactions": [
    {
      "hash": "0x68d536d2443fdd027c9199acaeca8617be01e976c5eaa4a8034f69a5f9797575",
      "blockHash": "0x56971f2e81166153d43080021b8c0c64decb80ee4b8631e30e734fc991370f72",
      "blockNumber": 110457,
      "transactionIndex": 0,
      "confirmations": null,
      "from": "0x7E4252d3d1881b358f2c1Fc2264ce4C27B83683d",
      "gasPrice": {
        "_hex": "0xe28edbe6a"
      },
      "gasLimit": {
        "_hex": "0x5208"
      },
      "to": "0x32Be343B94f860124dC4fEe278FDCBD38C102D88",
      "value": {
        "_hex": "0x2ca3bdb1bff48400"
      },
      "nonce": 5,
      "data": "0x",
      "r": "0x214254da5baf5fb14f1a352a59f0a816582013f568985340801ff4c9f93e8e6c",
      "s": "0x13bec4c550ed40b45643c611d3355937ee156b3966fafc15a17a8a901743ed02",
      "v": 27,
      "creates": null,
      "raw": "0xf86c05850e28edbe6a8252089432be343b94f860124dc4fee278fdcbd38c102d88882ca3bdb1bff48400801ba0214254da5baf5fb14f1a352a59f0a816582013f568985340801ff4c9f93e8e6ca013bec4c550ed40b45643c611d3355937ee156b3966fafc15a17a8a901743ed02",
      "networkId": 0,
      "chainId": 0
    },
    {
      "hash": "0x09d83f5c9fa286877542015d326e2788bee65465f1ce2c3bb3e527195905f977",
      "blockHash": "0x56971f2e81166153d43080021b8c0c64decb80ee4b8631e30e734fc991370f72",
      "blockNumber": 110457,
      "transactionIndex": 1,
      "confirmations": null,
      "from": "0x3b01EBd2419f6d39DB6AB4471e6382848716641F",
      "gasPrice": {
        "_hex": "0xe28edbe6a"
      },
      "gasLimit": {
        "_hex": "0x5208"
      },
      "to": "0x32Be343B94f860124dC4fEe278FDCBD38C102D88",
      "value": {
        "_hex": "0x6455293b3f0068000"
      },
      "nonce": 4,
      "data": "0x",
      "r": "0x9f6affb202a03f0250f5f0d67130d052178e2935925748087c8d122df98cb90b",
      "s": "0x4829718f8406522ebbcd51a4f8f6d43d7a95dff3ac4c9c37c792b2549d1b43d0",
      "v": 27,
      "creates": null,
      "raw": "0xf86d04850e28edbe6a8252089432be343b94f860124dc4fee278fdcbd38c102d888906455293b3f0068000801ba09f6affb202a03f0250f5f0d67130d052178e2935925748087c8d122df98cb90ba04829718f8406522ebbcd51a4f8f6d43d7a95dff3ac4c9c37c792b2549d1b43d0",
      "networkId": 0,
      "chainId": 0
    },
    {
      "hash": "0x25c1aeab063ed3aae7dcb96ef4e27754ea42e74326520abd77867cb8588d1f97",
      "blockHash": "0x56971f2e81166153d43080021b8c0c64decb80ee4b8631e30e734fc991370f72",
      "blockNumber": 110457,
      "transactionIndex": 2,
      "confirmations": null,
      "from": "0x8101538Df7E005d06CA303f609631c4029130687",
      "gasPrice": {
        "_hex": "0xe28edbe6a"
      },
      "gasLimit": {
        "_hex": "0x5208"
      },
      "to": "0x32Be343B94f860124dC4fEe278FDCBD38C102D88",
      "value": {
        "_hex": "0x11cc6ebd923b90000"
      },
      "nonce": 5,
      "data": "0x",
      "r": "0xc162136af57f1dcf43927775dc089c30e16c77cca0c5cff35dfef37ef19f87ac",
      "s": "0x6683532077d05e0f5a382de4538fab4a1ea0091309be9cc8129ae27e16d29c3b",
      "v": 28,
      "creates": null,
      "raw": "0xf86d05850e28edbe6a8252089432be343b94f860124dc4fee278fdcbd38c102d8889011cc6ebd923b90000801ca0c162136af57f1dcf43927775dc089c30e16c77cca0c5cff35dfef37ef19f87aca06683532077d05e0f5a382de4538fab4a1ea0091309be9cc8129ae27e16d29c3b",
      "networkId": 0,
      "chainId": 0
    },
    {
      "hash": "0x14378e5fad46386acbb992e0f9599cb07379e68b9f3621d5cfa93834df8da717",
      "blockHash": "0x56971f2e81166153d43080021b8c0c64decb80ee4b8631e30e734fc991370f72",
      "blockNumber": 110457,
      "transactionIndex": 3,
      "confirmations": null,
      "from": "0x226FE438c842C7EA989d8613C65fc5bAa0364588",
      "gasPrice": {
        "_hex": "0xd09076050"
      },
      "gasLimit": {
        "_hex": "0x30d40"
      },
      "to": "0x120A270bbC009644e35F0bB6ab13f95b8199c4ad",
      "value": {
        "_hex": "0x453bc9b48247dc00"
      },
      "nonce": 0,
      "data": "0x",
      "r": "0x24642968ef2571fc2ec65ae4fe65719924264a93ce5632ff7b54c971f5c48ea5",
      "s": "0x72caa3a32e199e573699c86d1c9cbaa35a7f55b2dd002f3cbd58b9cae29e7608",
      "v": 27,
      "creates": null,
      "raw": "0xf86d80850d0907605083030d4094120a270bbc009644e35f0bb6ab13f95b8199c4ad88453bc9b48247dc00801ba024642968ef2571fc2ec65ae4fe65719924264a93ce5632ff7b54c971f5c48ea5a072caa3a32e199e573699c86d1c9cbaa35a7f55b2dd002f3cbd58b9cae29e7608",
      "networkId": 0,
      "chainId": 0
    }
  ]
}