{
  "hash": "0x84e38da0e0951eabc1c9732e12cb0839a337e166ed6109c779d0a0a44b30c7d4",
  "parentHash": "0x2eb06f66f2045264e81394c0a121475c124266c8a02d4cd7d6071324d9db51b9",
  "number": 95515,
  "timestamp": 1439725297,
  "nonce": "0xc5ae920d8eaba77a",
  "difficulty": 3619780976339,
  "gasLimit": {
    "_hex": "0x2fefd8"
  },
  "gasUsed": {
    "_hex": "0x15f90"
  },
  "miner": "0xe6A7a1d47ff21B6321162AEA7C6CB457D5476Bca",
  "extraData": "0x476574682f76312e302e312d38326566323666362f6c696e75782f676f312e34",
  "transactions": [
    {
      "hash": "0x29fec62422e091459dc8d1e0859305148f875c517049295b90d4fed8c0fef542",
      "blockHash": "0x84e38da0e0951eabc1c9732e12cb0839a337e166ed6109c779d0a0a44b30c7d4",
      "blockNumber": 95515,
      "transactionIndex": 0,
      "confirmations": null,
      "from": "0xCdA0AD7542e30BF520652A05056eBe0105c7e49A",
      "gasPrice": {
        "_hex": "0xd3a791816"
      },
      "gasLimit": {
        "_hex": "0x15f90"
      },
      "to": "0xde0B295669a9FD93d5F28D9Ec85E40f4cb697BAe",
      "value": {
        "_hex": "0x0"
      },
      "nonce": 2,
      "data": "0xf00d4b5d000000000000000000000000cda0ad7542e30bf520652a05056ebe0105c7e49a00000000000000000000000002e816afc1b5c0f39852131959d946eb3b07b5ad",
      "r": "0xfc07a637c82e84894c49ee48009d01de66bed2cc98765b02bd6c04b5141436e1",
      "s": "0x46e0d77c3aa5899018f2b96753d564d64ed72eee7572e97b09ba7e9ad351d689",
      "v": 27,
      "creates": null,
      "raw": "0xf8aa02850d3a79181683015f9094de0b295669a9fd93d5f28d9ec85e40f4cb697bae80b844f00d4b5d000000000000000000000000cda0ad7542e30bf520652a05056ebe0105c7e49a00000000000000000000000002e816afc1b5c0f39852131959d946eb3b07b5ad1ba0fc07a637c82e84894c49ee48009d01de66bed2cc98765b02bd6c04b5141436e1a046e0d77c3aa5899018f2b96753d564d64ed72eee7572e97b09ba7e9ad351d689",
      "networkId": 0,
      "chainId": 0
    }
  ]
}