{
  "hash": "0x5d7553b53673ad725db4dfa3a62497a002747d7d6ce790ebd18906667d2f4681",
  "parentHash": "0x8e9f3e270a8fcaef59efab71f2eda90b86651210ffb080bba4fee6552db3175a",
  "number": 81608,
  "timestamp": 1439504721,
  "nonce": "0xc97512ed7e667f0f",
  "difficulty": 2437806540929,
  "gasLimit": {
    "_hex": "0x2fefd8"
  },
  "gasUsed": {
    "_hex": "0xf87c"
  },
  "miner": "0xC99478b218E58F45783fA70f0507cf614938E67d",
  "extraData": "0x",
  "transactions": [
    {
      "hash": "0xb52c07dc7a7ed6003076390747ff2cffafb2cdf139d02c17070d71c6abfb00b9",
      "blockHash": "0x5d7553b53673ad725db4dfa3a62497a002747d7d6ce790ebd18906667d2f4681",
      "blockNumber": 81608,
      "transactionIndex": 0,
      "confirmations": null,
      "from": "0x520A6622a4E770f751F4529e245231D259C12826",
      "gasPrice": {
        "_hex": "0x746a528800"
      },
      "gasLimit": {
        "_hex": "0x5b04"
      },
      "to": "0xfFA001d148554E3F9274CbFc993E5DBE513776e1",
      "value": {
        "_hex": "0x261bf94b638568000"
      },
      "nonce": 4,
      "data": "0x",
      "r": "0x0b6cf69d7539957cd1ffa01cdd5780d43464b19b2fdaec54ef19b97587ad1fdb",
      "s": "0x5f76d2d265345bb6ea6f56b655f14c3021a83faaa12579265e803742027f4c23",
      "v": 27,
      "creates": null,
      "raw": "0xf86d0485746a528800825b0494ffa001d148554e3f9274cbfc993e5dbe513776e1890261bf94b638568000801ba00b6cf69d7539957cd1ffa01cdd5780d43464b19b2fdaec54ef19b97587ad1fdba05f76d2d265345bb6ea6f56b655f14c3021a83faaa12579265e803742027f4c23",
      "networkId": 0,
      "chainId": 0
    },
    {
      "hash": "0x9931748561a8e74cf97e98fe66c92a5f3f878ce618febbd2ae08cf2aedc5fd5b",
      "blockHash": "0x5d7553b53673ad725db4dfa3a62497a002747d7d6ce790ebd18906667d2f4681",
      "blockNumber": 81608,
      "transactionIndex": 1,
      "confirmations": null,
      "from": "0x012f396A2B5eB83559BaC515E5210df2C8C362BA",
      "gasPrice": {
        "_hex": "0xd60340b78"
      },
      "gasLimit": {
        "_hex": "0x55f0"
      },
      "to": "0x2910543Af39abA0Cd09dBb2D50200b3E800A63D2",
      "value": {
        "_hex": "0x55de6a779bbac0000"
      },
      "nonce": 0,
      "data": "0x454e57474d4b385a47",
      "r": "0x219460ff0e8fe9fe37543581b825e3497dea470d956c90eb48f1a8b07be8d691",
      "s": "0x6f87032483155b3973d32ff321eab6b2111b0b43eb729a1f53bac96b13ffd971",
      "v": 28,
      "creates": null,
      "raw": "0xf87680850d60340b788255f0942910543af39aba0cd09dbb2d50200b3e800a63d289055de6a779bbac000089454e57474d4b385a471ca0219460ff0e8fe9fe37543581b825e3497dea470d956c90eb48f1a8b07be8d691a06f87032483155b3973d32ff321eab6b2111b0b43eb729a1f53bac96b13ffd971",
      "networkId": 0,
      "chainId": 0
    },
    {
      "hash": "0x8c08941e2ac8513801071d0bc3b55c8a0af243b57731d80cc53e81ab3a3cb609",
      "blockHash": "0x5d7553b53673ad725db4dfa3a62497a002747d7d6ce790ebd18906667d2f4681",
      "blockNumber": 81608,
      "transactionIndex": 2,
      "confirmations": null,
      "from": "0x2910543Af39abA0Cd09dBb2D50200b3E800A63D2",
      "gasPrice": {
        "_hex": "0xcd05dc5d5"
      },
      "gasLimit": {
        "_hex": "0x5208"
      },
      "to": "0x289B9bA6dC9c12D3130F1115180397C20cCBF220",
      "value": {
        "_hex": "0xa2a14b45d863ff8000"
      },
      "nonce": 490,
      "data": "0x",
      "r": "0x6efcaea9c49c1895e39469aed869405e221dcab02aacf538367ecf12cfe80147",
      "s": "0x1d91bef0341a433478816dcfcd82d1155e23e19e91c9bdd7c4044cc0fc958987",
      "v": 27,
      "creates": null,
      "raw": "0xf86f8201ea850cd05dc5d582520894289b9ba6dc9c12d3130f1115180397c20ccbf22089a2a14b45d863ff8000801ba06efcaea9c49c1895e39469aed869405e221dcab02aacf538367ecf12cfe80147a01d91bef0341a433478816dcfcd82d1155e23e19e91c9bdd7c4044cc0fc958987",
      "networkId": 0,
      "chainId": 0
    }
  ]
}