{
  "hash": "0xef24b689e5be603f12c73722a00cbe04875c9558252e6ad76d6a0f1941f58447",
  "parentHash": "0x6c8a97370693e3710e620bb4786a45b8d01f9cad187e8be12dda58b04fa888a2",
  "number": 86544,
  "timestamp": 1439579702,
  "nonce": "0x1ee13bef5312d05c",
  "difficulty": 2898920417898,
  "gasLimit": {
    "_hex": "0x2fefd8"
  },
  "gasUsed": {
    "_hex": "0x5208"
  },
  "miner": "0xe6A7a1d47ff21B6321162AEA7C6CB457D5476Bca",
  "extraData": "0x476574682f76312e302e312d38326566323666362f6c696e75782f676f312e34",
  "transactions": [
    {
      "hash": "0x8c49defc9e130e1773399de558468c799cc6bcc9af881f1797d0eaedd19ba716",
      "blockHash": "0xef24b689e5be603f12c73722a00cbe04875c9558252e6ad76d6a0f1941f58447",
      "blockNumber": 86544,
      "transactionIndex": 0,
      "confirmations": null,
      "from": "0x1308A2e95c0160B90803ddCA9B9a5bb55E416d79",
      "gasPrice": {
        "_hex": "0xdee6ab856"
      },
      "gasLimit": {
        "_hex": "0x15f90"
      },
      "to": "0x3668a45E28EDD089fcBe31209de076cef5F06501",
      "value": {
        "_hex": "0x5a21a25c82c17b9800"
      },
      "nonce": 129,
      "data": "0x",
      "r": "0xb95cf03ffbccfaf7bae3154255b705da3558b33360f02fe87a763d9afb063787",
      "s": "0x052a7426898edf0d927f600bb258232e5de607d9a9d3f2fd0fe96863acb9651e",
      "v": 27,
      "creates": null,
      "raw": "0xf86f8181850dee6ab85683015f90943668a45e28edd089fcbe31209de076cef5f06501895a21a25c82c17b9800801ba0b95cf03ffbccfaf7bae3154255b705da3558b33360f02fe87a763d9afb063787a0052a7426898edf0d927f600bb258232e5de607d9a9d3f2fd0fe96863acb9651e",
      "networkId": 0,
      "chainId": 0
    }
  ]
}