{
  "hash": "0x42f7a19186d9a71b3af1ef73217f00bf998ada43420189c10f99dbe6627be5c6",
  "parentHash": "0x66a94a30aef4d4dbd1bf9903c8a8b25ea3e98349ba7123ac874e91d33a88f20f",
  "number": 65134,
  "timestamp": 1439231927,
  "nonce": "0x2ce0185225376f6a",
  "difficulty": 1928484356278,
  "gasLimit": {
    "_hex": "0x2fefd8"
  },
  "gasUsed": {
    "_hex": "0x13005"
  },
  "miner": "0xeB1325C8D9d3ea8D74aC11F4B00F1B2367686319",
  "extraData": "0x476574682f76312e302e312f77696e646f77732f676f312e342e32",
  "transactions": [
    {
      "hash": "0x7067f3b2ad25810854b18ed1a96f868f843f60383cd6583958ad935f93804665",
      "blockHash": "0x42f7a19186d9a71b3af1ef73217f00bf998ada43420189c10f99dbe6627be5c6",
      "blockNumber": 65134,
      "transactionIndex": 0,
      "confirmations": null,
      "from": "0x4197aa0c90c2D4AD72A06a26a014C315a589579D",
      "gasPrice": {
        "_hex": "0x9184e72a000"
      },
      "gasLimit": {
        "_hex": "0x7a120"
      },
      "to": "0xA327075af2a223A1C83a36aDa1126afE7430f955",
      "value": {
        "_hex": "0x8ac7230489e80000"
      },
      "nonce": 2,
      "data": "0x",
      "r": "0xabead1fba5ea236b89a47a69f0826f789c13dbeefc82dd751f48a91879f05328",
      "s": "0xaadae5c1dc55ab2beb53ad902c2aca9532445646c2556f43d9a2b6340af59529",
      "v": 27,
      "creates": null,
      "raw": "0xf86e028609184e72a0008307a12094a327075af2a223a1c83a36ada1126afe7430f955888ac7230489e80000801ba0abead1fba5ea236b89a47a69f0826f789c13dbeefc82dd751f48a91879f05328a0aadae5c1dc55ab2beb53ad902c2aca9532445646c2556f43d9a2b6340af59529",
      "networkId": 0,
      "chainId": 0
    },
    {
      "hash": "0xfc04d3b31983f4e43180ae183f003e1148e83989d058f21df85ab4ad15bf8051",
      "blockHash": "0x42f7a19186d9a71b3af1ef73217f00bf998ada43420189c10f99dbe6627be5c6",
      "blockNumber": 65134,
      "transactionIndex": 1,
      "confirmations": null,
      "from": "0x827531A6c5817Ae35F82b00B9754FCf74c55E232",
      "gasPrice": {
        "_hex": "0xceac72b25"
      },
      "gasLimit": {
        "_hex": "0x927c0"
      },
      "to": "0xa701174A7e8338D26063A01C07674cC96F1777A8",
      "value": {
        "_hex": "0x5150ae84a8cdf00000"
      },
      "nonce": 6,
      "data": "0x",
      "r": "0x59419ddbbe0e4a406d802f72dde3091b521a766cb3701d7f327994e3b902ca56",
      "s": "0x28a852327f4b7534664aa74dc676c0ba2351d6e039220a8a2cf4ddd541c218f2",
      "v": 28,
      "creates": null,
      "raw": "0xf86e06850ceac72b25830927c094a701174a7e8338d26063a01c07674cc96f1777a8895150ae84a8cdf00000801ca059419ddbbe0e4a406d802f72dde3091b521a766cb3701d7f327994e3b902ca56a028a852327f4b7534664aa74dc676c0ba2351d6e039220a8a2cf4ddd541c218f2",
      "networkId": 0,
      "chainId": 0
    }
  ]
}