{
  "hash": "0x84f8dcb2ee13a4c587e4cb86ae6d25725f680e2cad31aad2e1a20990728c5e50",
  "parentHash": "0x024cb70d3c5df3dff9d6f90048f1fd604536a0036912d4d084654c15a3adfb68",
  "number": 69054,
  "timestamp": 1439297692,
  "nonce": "0x9a524098e3fdddbb",
  "difficulty": 2043902234955,
  "gasLimit": {
    "_hex": "0x2fefd8"
  },
  "gasUsed": {
    "_hex": "0xb2854"
  },
  "miner": "0xf64EE50154E0D74461966B4bB90139C010BCA68B",
  "extraData": "0x476574682f76312e302e312f77696e646f77732f676f312e342e32",
  "transactions": [
    {
      "hash": "0x9a4acd3d1fec282e8c4c27e8ba3cc79c15032b6273d5092ff5203027b25fda40",
      "blockHash": "0x84f8dcb2ee13a4c587e4cb86ae6d25725f680e2cad31aad2e1a20990728c5e50",
      "blockNumber": 69054,
      "transactionIndex": 0,
      "confirmations": null,
      "from": "0x6f25340bAa201fa611e757d3f92Db32E58B3826f",
      "gasPrice": {
        "_hex": "0xba43b7400"
      },
      "gasLimit": {
        "_hex": "0x15f90"
      },
      "to": "0x793AE8C1b1a160BFc07BFB0d04F85eab1A71F4f2",
      "value": {
        "_hex": "0x0"
      },
      "nonce": 0,
      "data": "0x3ba15036",
      "r": "0xb278c2b9f8bf6faad74784ce97a58511ca2ce33fba984873bb28f7a76bf71735",
      "s": "0x63be2b78f89f75cbc3c95c3dd4ebbeb1b472ca3401e789da250850a51a5f959e",
      "v": 27,
      "creates": null,
      "raw": "0xf86980850ba43b740083015f9094793ae8c1b1a160bfc07bfb0d04f85eab1a71f4f280843ba150361ba0b278c2b9f8bf6faad74784ce97a58511ca2ce33fba984873bb28f7a76bf71735a063be2b78f89f75cbc3c95c3dd4ebbeb1b472ca3401e789da250850a51a5f959e",
      "networkId": 0,
      "chainId": 0
    },
    {
      "hash": "0x137c7b2cde7b412aa80c39e898accb0919266553d76ac40461de7dfb3eacfacb",
      "blockHash": "0x84f8dcb2ee13a4c587e4cb86ae6d25725f680e2cad31aad2e1a20990728c5e50",
      "blockNumber": 69054,
      "transactionIndex": 1,
      "confirmations": null,
      "from": "0x1Fad1f61286d75D32433B2476D3CC826EDFBc8fc",
      "gasPrice": {
        "_hex": "0xba43b7400"
      },
      "gasLimit": {
        "_hex": "0x15f90"
      },
      "to": "0x793AE8C1b1a160BFc07BFB0d04F85eab1A71F4f2",
      "value": {
        "_hex": "0x0"
      },
      "nonce": 0,
      "data": "0x3ba15036",
      "r": "0x5efeead8218f2d8de1b22a580505013c4eae736b627274520fbda600e9c398fc",
      "s": "0x7743fcdd65e738eddd19693a0fbe06508dd62b802e909b6040fd468fcc92850c",
      "v": 28,
      "creates": null,
      "raw": "0xf86980850ba43b740083015f9094793ae8c1b1a160bfc07bfb0d04f85eab1a71f4f280843ba150361ca05efeead8218f2d8de1b22a580505013c4eae736b627274520fbda600e9c398fca07743fcdd65e738eddd19693a0fbe06508dd62b802e909b6040fd468fcc92850c",
      "networkId": 0,
      "chainId": 0
    },
    {
      "hash": "0x11878b2c2201fc5b351eacb35cd571d92c758504427527e5c5bad89771c63f1f",
      "blockHash": "0x84f8dcb2ee13a4c587e4cb86ae6d25725f680e2cad31aad2e1a20990728c5e50",
      "blockNumber": 69054,
      "transactionIndex": 2,
      "confirmations": null,
      "from": "0x1d5C75F7cbA5c785c40525FA44d9FcbEefad63fA",
      "gasPrice": {
        "_hex": "0xba43b7400"
      },
      "gasLimit": {
        "_hex": "0x15f90"
      },
      "to": "0x793AE8C1b1a160BFc07BFB0d04F85eab1A71F4f2",
      "value": {
        "_hex": "0x0"
      },
      "nonce": 0,
      "data": "0x3ba15036",
      "r": "0x38ef5de9609ed736e3ce407a4712b5830ef576d9b445c550a7d53a35adfe6b40",
      "s": "0x2099da304654422678d99bd213c930bdccebffa6914fb6db7780a772cafedaea",
      "v": 28,
      "creates": null,
      "raw": "0xf86980850ba43b740083015f9094793ae8c1b1a160bfc07bfb0d04f85eab1a71f4f280843ba150361ca038ef5de9609ed736e3ce407a4712b5830ef576d9b445c550a7d53a35adfe6b40a02099da304654422678d99bd213c930bdccebffa6914fb6db7780a772cafedaea",
      "networkId": 0,
      "chainId": 0
    },
    {
      "hash": "0x3d9bca23aab8419eedcd1ec7c3988f778b8e52d0d167bf1669367f87a03b7e39",
      "blockHash": "0x84f8dcb2ee13a4c587e4cb86ae6d25725f680e2cad31aad2e1a20990728c5e50",
      "blockNumber": 69054,
      "transactionIndex": 3,
      "confirmations": null,
      "from": "0xB92590821227aF94F64C8A923524Cc4836F05d84",
      "gasPrice": {
        "_hex": "0xba43b7400"
      },
      "gasLimit": {
        "_hex": "0x15f90"
      },
      "to": "0x793AE8C1b1a160BFc07BFB0d04F85eab1A71F4f2",
      "value": {
        "_hex": "0x0"
      },
      "nonce": 0,
      "data": "0x3ba15036",
      "r": "0x2c0f02de0e44e39dc862028cabb591437c18ecfa349613f8b0bb81ddaa4ff992",
      "s": "0x16e34f3c3b623dc0d429aa3adb53fbe60e94f95a8b03f531393ff138d1839168",
      "v": 27,
      "creates": null,
      "raw": "0xf86980850ba43b740083015f9094793ae8c1b1a160bfc07bfb0d04f85eab1a71f4f280843ba150361ba02c0f02de0e44e39dc862028cabb591437c18ecfa349613f8b0bb81ddaa4ff992a016e34f3c3b623dc0d429aa3adb53fbe60e94f95a8b03f531393ff138d1839168",
      "networkId": 0,
      "chainId": 0
    },
    {
      "hash": "0xf482bfa2e03254104bdc182784ef11791d4c8d8824cb89404cf64be78fa1143b",
      "blockHash": "0x84f8dcb2ee13a4c587e4cb86ae6d25725f680e2cad31aad2e1a20990728c5e50",
      "blockNumber": 69054,
      "transactionIndex": 4,
      "confirmations": null,
      "from": "0xE27f9010430fFdA9AA9C28eb691645368D654Ff4",
      "gasPrice": {
        "_hex": "0xba43b7400"
      },
      "gasLimit": {
        "_hex": "0x15f90"
      },
      "to": "0x793AE8C1b1a160BFc07BFB0d04F85eab1A71F4f2",
      "value": {
        "_hex": "0x0"
      },
      "nonce": 0,
      "data": "0x3ba15036",
      "r": "0x465909c5799f0651a0a59f42abf9f5c194224b96016e06fb7038ef510213aa6e",
      "s": "0x6f5d9c4b9a4917d1c4daee60201be32e1651014bc91ae09e8a8d8e9a222b4d25",
      "v": 28,
      "creates": null,
      "raw": "0xf86980850ba43b740083015f9094793ae8c1b1a160bfc07bfb0d04f85eab1a71f4f280843ba150361ca0465909c5799f0651a0a59f42abf9f5c194224b96016e06fb7038ef510213aa6ea06f5d9c4b9a4917d1c4daee60201be32e1651014bc91ae09e8a8d8e9a222b4d25",
      "networkId": 0,
      "chainId": 0
    },
    {
      "hash": "0xa0422aa9ba66cbba8e85ee6a42f05c816c9431527539bb9546e0456ff39f72e3",
      "blockHash": "0x84f8dcb2ee13a4c587e4cb86ae6d25725f680e2cad31aad2e1a20990728c5e50",
      "blockNumber": 69054,
      "transactionIndex": 5,
      "confirmations": null,
      "from": "0x15cf65c275C26b064ECbe2Dab2cD72530A8D9d69",
      "gasPrice": {
        "_hex": "0xba43b7400"
      },
      "gasLimit": {
        "_hex": "0x15f90"
      },
      "to": "0x793AE8C1b1a160BFc07BFB0d04F85eab1A71F4f2",
      "value": {
        "_hex": "0x0"
      },
      "nonce": 0,
      "data": "0x3ba15036",
      "r": "0xbce5d97a4d97d413bd0da79466b8979ac69609c6dfdb6dab89cd2118298054f4",
      "s": "0x0a82b7f0602123c34456a95018a002809d09d7e0da12f1c64ce0bbcce4953ec9",
      "v": 28,
      "creates": null,
      "raw": "0xf86980850ba43b740083015f9094793ae8c1b1a160bfc07bfb0d04f85eab1a71f4f280843ba150361ca0bce5d97a4d97d413bd0da79466b8979ac69609c6dfdb6dab89cd2118298054f4a00a82b7f0602123c34456a95018a002809d09d7e0da12f1c64ce0bbcce4953ec9",
      "networkId": 0,
      "chainId": 0
    },
    {
      "hash": "0xd1b229a7c05c1aa71ceea37bf438391e24aeaa96095a763193ee1a1c1ecd80ea",
      "blockHash": "0x84f8dcb2ee13a4c587e4cb86ae6d25725f680e2cad31aad2e1a20990728c5e50",
      "blockNumber": 69054,
      "transactionIndex": 6,
      "confirmations": null,
      "from": "0x9bFC7100eAa60d64398DA907CeFc4383A8b07e43",
      "gasPrice": {
        "_hex": "0xba43b7400"
      },
      "gasLimit": {
        "_hex": "0x15f90"
      },
      "to": "0x793AE8C1b1a160BFc07BFB0d04F85eab1A71F4f2",
      "value": {
        "_hex": "0x0"
      },
      "nonce": 0,
      "data": "0x3ba15036",
      "r": "0x2bda658d08cfffb00729b2bee96ea00814785786d1ffdcd9188a0b3c46efa73f",
      "s": "0x69044a2bd0a2b0331ee1051097bc0bd0e14431d7e140d8b50b1411946547285e",
      "v": 27,
      "creates": null,
      "raw": "0xf86980850ba43b740083015f9094793ae8c1b1a160bfc07bfb0d04f85eab1a71f4f280843ba150361ba02bda658d08cfffb00729b2bee96ea00814785786d1ffdcd9188a0b3c46efa73fa069044a2bd0a2b0331ee1051097bc0bd0e14431d7e140d8b50b1411946547285e",
      "networkId": 0,
      "chainId": 0
    },
    {
      "hash": "0x39ead079d1a0e7987974e3da883477909f48813b05e33270ba757146f9511b64",
      "blockHash": "0x84f8dcb2ee13a4c587e4cb86ae6d25725f680e2cad31aad2e1a20990728c5e50",
      "blockNumber": 69054,
      "transactionIndex": 7,
      "confirmations": null,
      "from": "0xB4BDE930040a1376A70D905c643cbE6Bc8566CA0",
      "gasPrice": {
        "_hex": "0xba43b7400"
      },
      "gasLimit": {
        "_hex": "0x15f90"
      },
      "to": "0x793AE8C1b1a160BFc07BFB0d04F85eab1A71F4f2",
      "value": {
        "_hex": "0x0"
      },
      "nonce": 0,
      "data": "0x3ba15036",
      "r": "0xbb11add6a587664354f458e02646232e9f6ee6cbef22dfad8300fd38c9ec0e87",
      "s": "0x0ed2f7b93dd8f0d0c7913db5c463e522c57b3e10bdded526ba7dd049042cb599",
      "v": 27,
      "creates": null,
      "raw": "0xf86980850ba43b740083015f9094793ae8c1b1a160bfc07bfb0d04f85eab1a71f4f280843ba150361ba0bb11add6a587664354f458e02646232e9f6ee6cbef22dfad8300fd38c9ec0e87a00ed2f7b93dd8f0d0c7913db5c463e522c57b3e10bdded526ba7dd049042cb599",
      "networkId": 0,
      "chainId": 0
    },
    {
      "hash": "0x28b5c6dce4286989d04ce772ac590037b9e949a1d077b5bca458e80a46c925c4",
      "blockHash": "0x84f8dcb2ee13a4c587e4cb86ae6d25725f680e2cad31aad2e1a20990728c5e50",
      "blockNumber": 69054,
      "transactionIndex": 8,
      "confirmations": null,
      "from": "0xccBe56a1d68030f3aFfcE8a1377AA67Fd3C6D65c",
      "gasPrice": {
        "_hex": "0xba43b7400"
      },
      "gasLimit": {
        "_hex": "0x15f90"
      },
      "to": "0x793AE8C1b1a160BFc07BFB0d04F85eab1A71F4f2",
      "value": {
        "_hex": "0x0"
      },
      "nonce": 0,
      "data": "0x3ba15036",
      "r": "0x7b1271f760f65f60283c73a2bf1e11c271e1e40a6659c16bf1d18fd23328a0ce",
      "s": "0x78d6ad69a1a9078ae41385fdfb4beb6f9fdb00392687222ca90bdc6d1dd73f11",
      "v": 27,
      "creates": null,
      "raw": "0xf86980850ba43b740083015f9094793ae8c1b1a160bfc07bfb0d04f85eab1a71f4f280843ba150361ba07b1271f760f65f60283c73a2bf1e11c271e1e40a6659c16bf1d18fd23328a0cea078d6ad69a1a9078ae41385fdfb4beb6f9fdb00392687222ca90bdc6d1dd73f11",
      "networkId": 0,
      "chainId": 0
    },
    {
      "hash": "0x99ed633b2aad20120ea768efd491a4a03f146ad975242c6a9d6ea9cc081711a5",
      "blockHash": "0x84f8dcb2ee13a4c587e4cb86ae6d25725f680e2cad31aad2e1a20990728c5e50",
      "blockNumber": 69054,
      "transactionIndex": 9,
      "confirmations": null,
      "from": "0xAb0eF5eFCc62243a402d64c8A0bc0EcD639AC129",
      "gasPrice": {
        "_hex": "0xba43b7400"
      },
      "gasLimit": {
        "_hex": "0x15f90"
      },
      "to": "0x793AE8C1b1a160BFc07BFB0d04F85eab1A71F4f2",
      "value": {
        "_hex": "0x0"
      },
      "nonce": 0,
      "data": "0x3ba15036",
      "r": "0x308d57136d681f1d3682b375ab903896cc004f9c846c5e20ba280381b83b85b9",
      "s": "0x30d41b8f80b47889d909dcc03a52ee1ad16578fa548dc1b093f930620cb6b12d",
      "v": 28,
      "creates": null,
      "raw": "0xf86980850ba43b740083015f9094793ae8c1b1a160bfc07bfb0d04f85eab1a71f4f280843ba150361ca0308d57136d681f1d3682b375ab903896cc004f9c846c5e20ba280381b83b85b9a030d41b8f80b47889d909dcc03a52ee1ad16578fa548dc1b093f930620cb6b12d",
      "networkId": 0,
      "chainId": 0
    },
    {
      "hash": "0x168312b5c5fd713db1aab5c5c6c4b0a851369b75f17669a188ba2c654a654f0e",
      "blockHash": "0x84f8dcb2ee13a4c587e4cb86ae6d25725f680e2cad31aad2e1a20990728c5e50",
      "blockNumber": 69054,
      "transactionIndex": 10,
      "confirmations": null,
      "from": "0xFabe7c0d4A29a25b3a7278AF8366b379602E2ee0",
      "gasPrice": {
        "_hex": "0xba43b7400"
      },
      "gasLimit": {
        "_hex": "0x15f90"
      },
      "to": "0x793AE8C1b1a160BFc07BFB0d04F85eab1A71F4f2",
      "value": {
        "_hex": "0x0"
      },
      "nonce": 0,
      "data": "0x3ba15036",
      "r": "0x04bcc0c2db5703c76f90e0c467ff2c1026c444c5fa56031616b2420cc677b083",
      "s": "0x389bb606a88f729cd0086695a084d1c875d083f95a74a2d200371f55c5d57dff",
      "v": 27,
      "creates": null,
      "raw": "0xf86980850ba43b740083015f9094793ae8c1b1a160bfc07bfb0d04f85eab1a71f4f280843ba150361ba004bcc0c2db5703c76f90e0c467ff2c1026c444c5fa56031616b2420cc677b083a0389bb606a88f729cd0086695a084d1c875d083f95a74a2d200371f55c5d57dff",
      "networkId": 0,
      "chainId": 0
    },
    {
      "hash": "0xe5e7792c4302b9e6f70a1a5933698484dcd0c555fdbfdd01afd24d0394890582",
      "blockHash": "0x84f8dcb2ee13a4c587e4cb86ae6d25725f680e2cad31aad2e1a20990728c5e50",
      "blockNumber": 69054,
      "transactionIndex": 11,
      "confirmations": null,
      "from": "0x93bcc9b7F0e5c6cD262713ce11CFBc422257E8EF",
      "gasPrice": {
        "_hex": "0xba43b7400"
      },
      "gasLimit": {
        "_hex": "0x15f90"
      },
      "to": "0x793AE8C1b1a160BFc07BFB0d04F85eab1A71F4f2",
      "value": {
        "_hex": "0x0"
      },
      "nonce": 0,
      "data": "0x3ba15036",
      "r": "0x2eeebba9c506ce4e42e0170f31f8c9cdaa9c3aebc22c0ba6f459d0ea2dd27a7c",
      "s": "0x5111cf1332a16dd23b634f18f797881919a21cd8b4359272ea9d95e4806f91b2",
      "v": 28,
      "creates": null,
      "raw": "0xf86980850ba43b740083015f9094793ae8c1b1a160bfc07bfb0d04f85eab1a71f4f280843ba150361ca02eeebba9c506ce4e42e0170f31f8c9cdaa9c3aebc22c0ba6f459d0ea2dd27a7ca05111cf1332a16dd23b634f18f797881919a21cd8b4359272ea9d95e4806f91b2",
      "networkId": 0,
      "chainId": 0
    },
    {
      "hash": "0xe885367ba369b27855b4d52715a09f02ecb4bc7ad547de4160888ae8fbe99ef4",
      "blockHash": "0x84f8dcb2ee13a4c587e4cb86ae6d25725f680e2cad31aad2e1a20990728c5e50",
      "blockNumber": 69054,
      "transactionIndex": 12,
      "confirmations": null,
      "from": "0x46d32282B24788B5E7694d243bC439b077010382",
      "gasPrice": {
        "_hex": "0xba43b7400"
      },
      "gasLimit": {
        "_hex": "0x15f90"
      },
      "to": "0x793AE8C1b1a160BFc07BFB0d04F85eab1A71F4f2",
      "value": {
        "_hex": "0x0"
      },
      "nonce": 0,
      "data": "0x3ba15036",
      "r": "0x9693c3cfb973358e24d1eb37b5a5f9d8f6c3150e98108e2fee15da6f3d9cef55",
      "s": "0x0eced1b8a9d2c9d0d95cf3ed48ec310ca9a0d3ad0c550935024feee292938e71",
      "v": 28,
      "creates": null,
      "raw": "0xf86980850ba43b740083015f9094793ae8c1b1a160bfc07bfb0d04f85eab1a71f4f280843ba150361ca09693c3cfb973358e24d1eb37b5a5f9d8f6c3150e98108e2fee15da6f3d9cef55a00eced1b8a9d2c9d0d95cf3ed48ec310ca9a0d3ad0c550935024feee292938e71",
      "networkId": 0,
      "chainId": 0
    },
    {
      "hash": "0x2c673c7b003951c9e304614f6e96a3a63585527e215d163d3b6baee2e5bfb7d3",
      "blockHash": "0x84f8dcb2ee13a4c587e4cb86ae6d25725f680e2cad31aad2e1a20990728c5e50",
      "blockNumber": 69054,
      "transactionIndex": 13,
      "confirmations": null,
      "from": "0xD614b05d897615636c0189b7E1743968E2fb7777",
      "gasPrice": {
        "_hex": "0xba43b7400"
      },
      "gasLimit": {
        "_hex": "0x15f90"
      },
      "to": "0x793AE8C1b1a160BFc07BFB0d04F85eab1A71F4f2",
      "value": {
        "_hex": "0x0"
      },
      "nonce": 0,
      "data": "0x3ba15036",
      "r": "0x8618f7e098d67483e27d94beaed5a737fb9d34a688908cfb170f7ba415307b7e",
      "s": "0x5e82826da018837da2da00869c261267748a66a7528808a836786e5a03b7c41e",
      "v": 27,
      "creates": null,
      "raw": "0xf86980850ba43b740083015f9094793ae8c1b1a160bfc07bfb0d04f85eab1a71f4f280843ba150361ba08618f7e098d67483e27d94beaed5a737fb9d34a688908cfb170f7ba415307b7ea05e82826da018837da2da00869c261267748a66a7528808a836786e5a03b7c41e",
      "networkId": 0,
      "chainId": 0
    },
    {
      "hash": "0xfdbca0a4c86ca20bd55b264b74170c1f460f352726b6411eae6dbd7643f24b61",
      "blockHash": "0x84f8dcb2ee13a4c587e4cb86ae6d25725f680e2cad31aad2e1a20990728c5e50",
      "blockNumber": 69054,
      "transactionIndex": 14,
      "confirmations": null,
      "from": "0xEF43bB24fE64aB02661373b62E755E5c1509EB13",
      "gasPrice": {
        "_hex": "0xba43b7400"
      },
      "gasLimit": {
        "_hex": "0x15f90"
      },
      "to": "0x793AE8C1b1a160BFc07BFB0d04F85eab1A71F4f2",
      "value": {
        "_hex": "0x0"
      },
      "nonce": 0,
      "data": "0x3ba15036",
      "r": "0x0e9e65cd2a123f9d40a58426721cd7a93dbe45cdb6ed2e0fe361e1b27938c419",
      "s": "0x7363e4fc6e8489c689b62e48d11122264998a64b96cb020d16752ecd7e792196",
      "v": 27,
      "creates": null,
      "raw": "0xf86980850ba43b740083015f9094793ae8c1b1a160bfc07bfb0d04f85eab1a71f4f280843ba150361ba00e9e65cd2a123f9d40a58426721cd7a93dbe45cdb6ed2e0fe361e1b27938c419a07363e4fc6e8489c689b62e48d11122264998a64b96cb020d16752ecd7e792196",
      "networkId": 0,
      "chainId": 0
    }
  ]
}