{
  "hash": "0x9c4dedc25f5cbbd74320151fb1cada0c5ca01ed90ee5622968531ad92c517c0a",
  "parentHash": "0x928c86ab052f34a713e209ce599f48ed9e8131b5643f9f6a3a56359ec27cfff4",
  "number": 90793,
  "timestamp": 1439645597,
  "nonce": "0x60a3da2ff40ec35d",
  "difficulty": 3392430865510,
  "gasLimit": {
    "_hex": "0x2fefd8"
  },
  "gasUsed": {
    "_hex": "0x5208"
  },
  "miner": "0xe6A7a1d47ff21B6321162AEA7C6CB457D5476Bca",
  "extraData": "0x476574682f76312e302e312d38326566323666362f6c696e75782f676f312e34",
  "transactions": [
    {
      "hash": "0xe5c9ef09ed3b3a1e71c4513cb6ba512bb1a2ce9a6243f1dcd92d0af5ff341381",
      "blockHash": "0x9c4dedc25f5cbbd74320151fb1cada0c5ca01ed90ee5622968531ad92c517c0a",
      "blockNumber": 90793,
      "transactionIndex": 0,
      "confirmations": null,
      "from": "0x704d5de4846d39b53Cd21d1C49f096dB5C19Ba29",
      "gasPrice": {
        "_hex": "0xce7e87389"
      },
      "gasLimit": {
        "_hex": "0x15f90"
      },
      "to": "0x6a0921b25547959f3Db63f8C932a754D2E2ef0D8",
      "value": {
        "_hex": "0x886c98b76000"
      },
      "nonce": 2,
      "data": "0x",
      "r": "0xc2df26652c4c8389feca6d286595c71c377bb2f9761bf03317c5f47127cb19f0",
      "s": "0x3df7727d8b24e6ebdc6f9f4b9e508b2a019606da1eacf78d6c4280b94c859cd2",
      "v": 27,
      "creates": null,
      "raw": "0xf86b02850ce7e8738983015f90946a0921b25547959f3db63f8c932a754d2e2ef0d886886c98b76000801ba0c2df26652c4c8389feca6d286595c71c377bb2f9761bf03317c5f47127cb19f0a03df7727d8b24e6ebdc6f9f4b9e508b2a019606da1eacf78d6c4280b94c859cd2",
      "networkId": 0,
      "chainId": 0
    }
  ]
}