{
  "hash": "0xa5e3cf0cc8f5104d3746a1707c44f7d930312e18bce6ef4d47e165f6623eef74",
  "parentHash": "0x650cbe3045c9bfb90142b508169ec7708019cac3ec495481170e0307c932138b",
  "number": 121930,
  "timestamp": 1440185063,
  "nonce": "0x014bb2acb9301bd2",
  "difficulty": 4479776771397,
  "gasLimit": {
    "_hex": "0x2fefd8"
  },
  "gasUsed": {
    "_hex": "0x5208"
  },
  "miner": "0x52bc44d5378309EE2abF1539BF71dE1b7d7bE3b5",
  "extraData": "0xd783010002844765746887676f312e342e32856c696e7578",
  "transactions": [
    {
      "hash": "0x58d591fac9d713edd6dbf5eb392f9d9c70df06b8f5eea52de5163d95d1e8b33b",
      "blockHash": "0xa5e3cf0cc8f5104d3746a1707c44f7d930312e18bce6ef4d47e165f6623eef74",
      "blockNumber": 121930,
      "transactionIndex": 0,
      "confirmations": null,
      "from": "0x1C257ad4A55105ea3B58Ed374b198dA266c85f63",
      "gasPrice": {
        "_hex": "0xba43b7400"
      },
      "gasLimit": {
        "_hex": "0x5208"
      },
      "to": "0xbF61b895993396Eccb341Cd1CDdC2ef0C0601c72",
      "value": {
        "_hex": "0x71afd498d0000"
      },
      "nonce": 14,
      "data": "0x",
      "r": "0x610c0ec2e12e28f329b149a1263a502e5a0d8e83c268f22172f62104ba33ea29",
      "s": "0x747d1a7faab7171215c569c9eeaa9839e13753a7e60e0eb591e9a81bcfc4c654",
      "v": 27,
      "creates": null,
      "raw": "0xf86b0e850ba43b740082520894bf61b895993396eccb341cd1cddc2ef0c0601c7287071afd498d0000801ba0610c0ec2e12e28f329b149a1263a502e5a0d8e83c268f22172f62104ba33ea29a0747d1a7faab7171215c569c9eeaa9839e13753a7e60e0eb591e9a81bcfc4c654",
      "networkId": 0,
      "chainId": 0
    }
  ]
}