{
  "hash": "0xc3628a563d1ddd2f760b4fc701eb1f702c49dd546dbb7f3607b4f41d7ebfac01",
  "parentHash": "0x7605b0d51dedbb0c2507187d7e058a08fc4195a3a7403a0e603b5e39ab1434d2",
  "number": 47094,
  "timestamp": 1438934080,
  "nonce": "0xe5b39c1ac3957d38",
  "difficulty": 1463110411079,
  "gasLimit": {
    "_hex": "0x9733"
  },
  "gasUsed": {
    "_hex": "0x5208"
  },
  "miner": "0xab84940B570d6358ed6A9Dbf7e0bc8Ec8F5A6E89",
  "extraData": "0x322831652933",
  "transactions": [
    {
      "hash": "0xa870b6d530792ab26dacd3dc713ac9b01bba7ca918019ca02d3a4a7486924ed7",
      "blockHash": "0xc3628a563d1ddd2f760b4fc701eb1f702c49dd546dbb7f3607b4f41d7ebfac01",
      "blockNumber": 47094,
      "transactionIndex": 0,
      "confirmations": null,
      "from": "0xe6A7a1d47ff21B6321162AEA7C6CB457D5476Bca",
      "gasPrice": {
        "_hex": "0xdffbc2ef3"
      },
      "gasLimit": {
        "_hex": "0x5208"
      },
      "to": "0x45fe0E379195681d4C1002eA4Def348C19a320df",
      "value": {
        "_hex": "0x265b1ebff7a1f728"
      },
      "nonce": 41,
      "data": "0x",
      "r": "0x5ba7faf958c19387953a43b3bf35a821a21332e41bf40a7a09802d6bb4c26dd7",
      "s": "0x4ebc2aae47e5b11815eeebcec8476936ce8823c149eeef7b3ffb7babe516a06c",
      "v": 27,
      "creates": null,
      "raw": "0xf86c29850dffbc2ef38252089445fe0e379195681d4c1002ea4def348c19a320df88265b1ebff7a1f728801ba05ba7faf958c19387953a43b3bf35a821a21332e41bf40a7a09802d6bb4c26dd7a04ebc2aae47e5b11815eeebcec8476936ce8823c149eeef7b3ffb7babe516a06c",
      "networkId": 0,
      "chainId": 0
    }
  ]
}