{
  "hash": "0x55bb844aa698a59ee23b05e6d821b7861a17aa03b6c6fa7d76dab48a8f0b1508",
  "parentHash": "0xb2b899b292926a47c065986c3c599fb2e9853da3f94a6861c2f85173092c977c",
  "number": 72344,
  "timestamp": 1439351192,
  "nonce": "0xc0f9268fbaa3cd11",
  "difficulty": 2179121409556,
  "gasLimit": {
    "_hex": "0x2fefd8"
  },
  "gasUsed": {
    "_hex": "0xf618"
  },
  "miner": "0x123843545FB525C8E134c9A5F15ADA6865cc3848",
  "extraData": "0x476574682f76312e302e312f77696e646f77732f676f312e342e32",
  "transactions": [
    {
      "hash": "0xb67a3d663c90cfe4a08a13db5648fe5f63bc556e57d3dc81bffe68d12778b1fa",
      "blockHash": "0x55bb844aa698a59ee23b05e6d821b7861a17aa03b6c6fa7d76dab48a8f0b1508",
      "blockNumber": 72344,
      "transactionIndex": 0,
      "confirmations": null,
      "from": "0x2C89f5FDcA3D155409b638B98A742E55eb4652B7",
      "gasPrice": {
        "_hex": "0x9184e72a000"
      },
      "gasLimit": {
        "_hex": "0x15f90"
      },
      "to": "0x113C6d39dA7c489706850Fa452cCe784d713262b",
      "value": {
        "_hex": "0x3635c9adc5dea00000"
      },
      "nonce": 2,
      "data": "0x",
      "r": "0x865d9a87e81ed5a9f234769682e7512bfc5e4f13a2ec9dc69b2b70de4911b8dc",
      "s": "0x6bc501ce5c3a0736707593d808494cade63ad9262475a030c118481c4fa24c11",
      "v": 27,
      "creates": null,
      "raw": "0xf86f028609184e72a00083015f9094113c6d39da7c489706850fa452cce784d713262b893635c9adc5dea00000801ba0865d9a87e81ed5a9f234769682e7512bfc5e4f13a2ec9dc69b2b70de4911b8dca06bc501ce5c3a0736707593d808494cade63ad9262475a030c118481c4fa24c11",
      "networkId": 0,
      "chainId": 0
    },
    {
      "hash": "0xc7145910ac86d6822709803d22fe863643ef658cf8e1c7b416b450055f2abd78",
      "blockHash": "0x55bb844aa698a59ee23b05e6d821b7861a17aa03b6c6fa7d76dab48a8f0b1508",
      "blockNumber": 72344,
      "transactionIndex": 1,
      "confirmations": null,
      "from": "0x71685764F4d080b317A51947290164605e5D1Ced",
      "gasPrice": {
        "_hex": "0xcdb331ad0"
      },
      "gasLimit": {
        "_hex": "0x5208"
      },
      "to": "0x32Be343B94f860124dC4fEe278FDCBD38C102D88",
      "value": {
        "_hex": "0xb160d25d26ab000"
      },
      "nonce": 2,
      "data": "0x",
      "r": "0xce5a775fe50b320699633e34e3da585e8cf2574ba26e533f3ae41a8c081a731a",
      "s": "0x664dbefe88697234808f5f4d43947b0072a968e4af9c671b592fe0556448dec0",
      "v": 27,
      "creates": null,
      "raw": "0xf86c02850cdb331ad08252089432be343b94f860124dc4fee278fdcbd38c102d88880b160d25d26ab000801ba0ce5a775fe50b320699633e34e3da585e8cf2574ba26e533f3ae41a8c081a731aa0664dbefe88697234808f5f4d43947b0072a968e4af9c671b592fe0556448dec0",
      "networkId": 0,
      "chainId": 0
    },
    {
      "hash": "0x250c58e9a0187850b4b58d21dec34744c738bac197cf39e9ccab7d19b00e6336",
      "blockHash": "0x55bb844aa698a59ee23b05e6d821b7861a17aa03b6c6fa7d76dab48a8f0b1508",
      "blockNumber": 72344,
      "transactionIndex": 2,
      "confirmations": null,
      "from": "0x6d921977dEFE5f4e0682CA512De1D07b1f4802E1",
      "gasPrice": {
        "_hex": "0xcdb331ad0"
      },
      "gasLimit": {
        "_hex": "0x5208"
      },
      "to": "0x32Be343B94f860124dC4fEe278FDCBD38C102D88",
      "value": {
        "_hex": "0x3bd8d1fcf040ec000"
      },
      "nonce": 7,
      "data": "0x",
      "r": "0x629be78c015044bd45b81a793b2d6779e6bc5e72385dd6258a849b67aa738137",
      "s": "0x082afa07fdd8c851dd644ded54a8eb7e462afe76944638afc02ee4d44b2152d8",
      "v": 28,
      "creates": null,
      "raw": "0xf86d07850cdb331ad08252089432be343b94f860124dc4fee278fdcbd38c102d888903bd8d1fcf040ec000801ca0629be78c015044bd45b81a793b2d6779e6bc5e72385dd6258a849b67aa738137a0082afa07fdd8c851dd644ded54a8eb7e462afe76944638afc02ee4d44b2152d8",
      "networkId": 0,
      "chainId": 0
    }
  ]
}