{
  "hash": "0xe7256206d168efd179f43262c03eebfbd005edb52bb9dc60065a1c9b1b1c9ace",
  "parentHash": "0xf48d26e19a4966b9d984c2dd45e860f04906d535a7a35811e0f774099ddb64fc",
  "number": 76872,
  "timestamp": 1439427689,
  "nonce": "0x06618c043cf55b57",
  "difficulty": 2231772375723,
  "gasLimit": {
    "_hex": "0x2fefd8"
  },
  "gasUsed": {
    "_hex": "0x5208"
  },
  "miner": "0x7E6930B63D03e88F5928C5cd6ee3FCee4D714F7F",
  "extraData": "0x",
  "transactions": [
    {
      "hash": "0x9ae07bf1433dcdfc1cf93d85e51652dfd44a2f31fbd349e65c70170351fa2799",
      "blockHash": "0xe7256206d168efd179f43262c03eebfbd005edb52bb9dc60065a1c9b1b1c9ace",
      "blockNumber": 76872,
      "transactionIndex": 0,
      "confirmations": null,
      "from": "0xa6BDc31c431B8F97848c9D60cbbe9660dc450eB7",
      "gasPrice": {
        "_hex": "0xdbddb8977"
      },
      "gasLimit": {
        "_hex": "0x5208"
      },
      "to": "0x32Be343B94f860124dC4fEe278FDCBD38C102D88",
      "value": {
        "_hex": "0x455f1f7c4515c400"
      },
      "nonce": 15,
      "data": "0x",
      "r": "0x4f09d16746a58861776a101a6b139435707f78da086f2d3e77e014156a5f179b",
      "s": "0x41fce8fef369fffb372477dd7621c944d2492c022f3487e6f8041de2e44156c7",
      "v": 27,
      "creates": null,
      "raw": "0xf86c0f850dbddb89778252089432be343b94f860124dc4fee278fdcbd38c102d8888455f1f7c4515c400801ba04f09d16746a58861776a101a6b139435707f78da086f2d3e77e014156a5f179ba041fce8fef369fffb372477dd7621c944d2492c022f3487e6f8041de2e44156c7",
      "networkId": 0,
      "chainId": 0
    }
  ]
}