{
  "hash": "0xec33734aa4b3c6913edbb037509c0c7b4beeeb92d88b8b942b92f27625cb08fe",
  "parentHash": "0xbaccea8206b53e4435d46a9153d82764ed1e6512ffb170662350093ae4b8383b",
  "number": 119298,
  "timestamp": 1440140323,
  "nonce": "0x1ae90e0dd2a95738",
  "difficulty": 4420333298626,
  "gasLimit": {
    "_hex": "0x2fefd8"
  },
  "gasUsed": {
    "_hex": "0x5208"
  },
  "miner": "0x4F85e43F44D2B0e6f57C9355806cE3e1B3F40Ab8",
  "extraData": "0x",
  "transactions": [
    {
      "hash": "0xf42b4229fb8fc125b7fcd4bae1efcc1253a9e2e74d5f0029be80f5f47f011081",
      "blockHash": "0xec33734aa4b3c6913edbb037509c0c7b4beeeb92d88b8b942b92f27625cb08fe",
      "blockNumber": 119298,
      "transactionIndex": 0,
      "confirmations": null,
      "from": "0xb1abce2918E21ddb93AA452731a12672A3d9F75a",
      "gasPrice": {
        "_hex": "0xba43b7400"
      },
      "gasLimit": {
        "_hex": "0x5208"
      },
      "to": "0x32Be343B94f860124dC4fEe278FDCBD38C102D88",
      "value": {
        "_hex": "0x455fd68a17f06000"
      },
      "nonce": 194,
      "data": "0x",
      "r": "0xe1adca7fa0868b2c69edc7920dd6fe529b49617712185ff150cb239b4febd656",
      "s": "0x35a82f509501fbc6359af906b9201e6bbff279b91b4965e110dd7b43567177fb",
      "v": 27,
      "creates": null,
      "raw": "0xf86d81c2850ba43b74008252089432be343b94f860124dc4fee278fdcbd38c102d8888455fd68a17f06000801ba0e1adca7fa0868b2c69edc7920dd6fe529b49617712185ff150cb239b4febd656a035a82f509501fbc6359af906b9201e6bbff279b91b4965e110dd7b43567177fb",
      "networkId": 0,
      "chainId": 0
    }
  ]
}