{
  "hash": "0x71f3fa8947e8308f20576aaa71d4981ac9024e4842ada94eae06644b042bf134",
  "parentHash": "0xdf7911636c208629217bbd427ef4e47d8a6f4b9b304c8181b853ddeeb3e486f8",
  "number": 48807,
  "timestamp": 1438963376,
  "nonce": "0x979635c487f96e59",
  "difficulty": 1475004682708,
  "gasLimit": {
    "_hex": "0x1eb25"
  },
  "gasUsed": {
    "_hex": "0x546c"
  },
  "miner": "0xe6A7a1d47ff21B6321162AEA7C6CB457D5476Bca",
  "extraData": "0x657468706f6f6c2e6f7267",
  "transactions": [
    {
      "hash": "0x5ed17953bab7571633e61f8ed0f955f3131c682fef931dd5dc90ba707f8f3f1f",
      "blockHash": "0x71f3fa8947e8308f20576aaa71d4981ac9024e4842ada94eae06644b042bf134",
      "blockNumber": 48807,
      "transactionIndex": 0,
      "confirmations": null,
      "from": "0x29E88Cb82e196cA8eDB167258F9BA302a31CB2F6",
      "gasPrice": {
        "_hex": "0xcd43c52ac"
      },
      "gasLimit": {
        "_hex": "0x15f90"
      },
      "to": "0x2910543Af39abA0Cd09dBb2D50200b3E800A63D2",
      "value": {
        "_hex": "0xde0b6b3a7640000"
      },
      "nonce": 0,
      "data": "0x454e3956354e425238",
      "r": "0xadf1c784977d5a153b1bd24f824942042fafd0d744d3b762a096d1aa99b57ff5",
      "s": "0x3a03d6d61eca144d75257717cab97d82e94d621714f254c518d03a8d7412ebba",
      "v": 28,
      "creates": null,
      "raw": "0xf87680850cd43c52ac83015f90942910543af39aba0cd09dbb2d50200b3e800a63d2880de0b6b3a764000089454e3956354e4252381ca0adf1c784977d5a153b1bd24f824942042fafd0d744d3b762a096d1aa99b57ff5a03a03d6d61eca144d75257717cab97d82e94d621714f254c518d03a8d7412ebba",
      "networkId": 0,
      "chainId": 0
    }
  ]
}