{
  "hash": "0xab3c0f9cbf245b4716d02710e5dd74f58f08e5621e10dd252669ae2afe86d160",
  "parentHash": "0x85701fd0ceb21b1d30e793b1ed059a4a82ec30537e679366c9515d975a0bd261",
  "number": 96912,
  "timestamp": 1439747926,
  "nonce": "0x1e5a83ed163a4f5b",
  "difficulty": 3732240434526,
  "gasLimit": {
    "_hex": "0x2fefd8"
  },
  "gasUsed": {
    "_hex": "0xa674"
  },
  "miner": "0xe6A7a1d47ff21B6321162AEA7C6CB457D5476Bca",
  "extraData": "0x476574682f76312e302e312d38326566323666362f6c696e75782f676f312e34",
  "transactions": [
    {
      "hash": "0x87ba11c66ae989e69fd1328893222a8242c04c7de529e10b83403aaaf9dd749b",
      "blockHash": "0xab3c0f9cbf245b4716d02710e5dd74f58f08e5621e10dd252669ae2afe86d160",
      "blockNumber": 96912,
      "transactionIndex": 0,
      "confirmations": null,
      "from": "0x6EEfDC850E87B715c72791773c0316C3559b58a4",
      "gasPrice": {
        "_hex": "0x110c8f7d8de"
      },
      "gasLimit": {
        "_hex": "0xc350"
      },
      "to": "0x2910543Af39abA0Cd09dBb2D50200b3E800A63D2",
      "value": {
        "_hex": "0x3635c9adc5dea00000"
      },
      "nonce": 3,
      "data": "0x454e51543830335738",
      "r": "0xb102de592a65a9b526c8b9c8390c75478fc4b50ade0bf5b7d7af567671e13b2a",
      "s": "0x964c12a18ced0d0a2a51634c4d5b12f6a188dece6f46c8b4935a45c4f207a9df",
      "v": 27,
      "creates": null,
      "raw": "0xf87703860110c8f7d8de82c350942910543af39aba0cd09dbb2d50200b3e800a63d2893635c9adc5dea0000089454e515438303357381ba0b102de592a65a9b526c8b9c8390c75478fc4b50ade0bf5b7d7af567671e13b2aa0964c12a18ced0d0a2a51634c4d5b12f6a188dece6f46c8b4935a45c4f207a9df",
      "networkId": 0,
      "chainId": 0
    },
    {
      "hash": "0xacc1ad49adf58b3faf9aa7838f9040a63d94cf07db4ea003fc493b5b5fe73348",
      "blockHash": "0xab3c0f9cbf245b4716d02710e5dd74f58f08e5621e10dd252669ae2afe86d160",
      "blockNumber": 96912,
      "transactionIndex": 1,
      "confirmations": null,
      "from": "0x7884D470204862a0d1A21122F41ee77430396Ee5",
      "gasPrice": {
        "_hex": "0xce6b3f428"
      },
      "gasLimit": {
        "_hex": "0x15f90"
      },
      "to": "0x6a2beA124A39FaD45D506f4d89330356E19592eb",
      "value": {
        "_hex": "0x16345785d8a0000"
      },
      "nonce": 26,
      "data": "0x",
      "r": "0xceeda5df4aac93fd61f9b51159406e2b94a86622d2a1d3e4e49c30f8419fb9cf",
      "s": "0x36a03c739436ac57eed4b4550ffaed2f2c88602573f4128c5eee811a25ff4873",
      "v": 28,
      "creates": null,
      "raw": "0xf86d1a850ce6b3f42883015f90946a2bea124a39fad45d506f4d89330356e19592eb88016345785d8a0000801ca0ceeda5df4aac93fd61f9b51159406e2b94a86622d2a1d3e4e49c30f8419fb9cfa036a03c739436ac57eed4b4550ffaed2f2c88602573f4128c5eee811a25ff4873",
      "networkId": 0,
      "chainId": 0
    }
  ]
}