{
  "hash": "0xdcfee335f4602afc4c67128cd6512a58784738efbc26b82b19a8206e510cac49",
  "parentHash": "0xc566ead444fc7eadce66461b8d650b966c248b5648d6e147e412659e2ca55267",
  "number": 47439,
  "timestamp": 1438940393,
  "nonce": "0x595da9f135f76ffc",
  "difficulty": 1450956042803,
  "gasLimit": {
    "_hex": "0xbdf3"
  },
  "gasUsed": {
    "_hex": "0x546c"
  },
  "miner": "0xC759dc67E0c3816fdC56A2f5bb29920fc07e767D",
  "extraData": "0x476574682f76312e302e312f77696e646f77732f676f312e342e32",
  "transactions": [
    {
      "hash": "0xd4ce103b69b552ecf8fd4c7b0289f081bfc573194001cb2c63d05906702e876f",
      "blockHash": "0xdcfee335f4602afc4c67128cd6512a58784738efbc26b82b19a8206e510cac49",
      "blockNumber": 47439,
      "transactionIndex": 0,
      "confirmations": null,
      "from": "0xC1CdC601f89c0428b31302D187e0dc08ad7D1C57",
      "gasPrice": {
        "_hex": "0x1a98781c50"
      },
      "gasLimit": {
        "_hex": "0x5528"
      },
      "to": "0x2910543Af39abA0Cd09dBb2D50200b3E800A63D2",
      "value": {
        "_hex": "0x25f273933db5700000"
      },
      "nonce": 5,
      "data": "0x454e314d4e43383638",
      "r": "0x1ad82206162f98151fbcc3d9238a863386200eea9ba6b8b978f8fce09584ee0f",
      "s": "0x794d7d9fd24787c38f72b378f9285b12e9d5aff1d77e371e4679e21fd3b67299",
      "v": 28,
      "creates": null,
      "raw": "0xf87605851a98781c50825528942910543af39aba0cd09dbb2d50200b3e800a63d28925f273933db570000089454e314d4e433836381ca01ad82206162f98151fbcc3d9238a863386200eea9ba6b8b978f8fce09584ee0fa0794d7d9fd24787c38f72b378f9285b12e9d5aff1d77e371e4679e21fd3b67299",
      "networkId": 0,
      "chainId": 0
    }
  ]
}