{
  "hash": "0x4902f03d3eb057d022025fff1c019bc9a0505c54947d3ef551efac4726926f84",
  "parentHash": "0xa66193e5e14db835b435a3638ebc9d823f15949a028381113b010f459f22a7a8",
  "number": 121010,
  "timestamp": 1440169933,
  "nonce": "0x411e9adf1c5ebfc1",
  "difficulty": 4423749220315,
  "gasLimit": {
    "_hex": "0x2fefd8"
  },
  "gasUsed": {
    "_hex": "0xa630"
  },
  "miner": "0xe6A7a1d47ff21B6321162AEA7C6CB457D5476Bca",
  "extraData": "0xd783010002844765746887676f312e342e32856c696e7578",
  "transactions": [
    {
      "hash": "0xe26d4d046a5e450571e7a672ff74db4985e2f9f9dbb7cf5fe816d3fcd133854f",
      "blockHash": "0x4902f03d3eb057d022025fff1c019bc9a0505c54947d3ef551efac4726926f84",
      "blockNumber": 121010,
      "transactionIndex": 0,
      "confirmations": null,
      "from": "0x608f4b86321a68453f9adf6F06F7Fc3E621739ad",
      "gasPrice": {
        "_hex": "0xba43b7400"
      },
      "gasLimit": {
        "_hex": "0x5208"
      },
      "to": "0x32Be343B94f860124dC4fEe278FDCBD38C102D88",
      "value": {
        "_hex": "0x45642856e73e2000"
      },
      "nonce": 89,
      "data": "0x",
      "r": "0xbbb5ecd90b382ebde9aaf78ccade0cf41126e17c8343eb6fee20bd8b519f8868",
      "s": "0x5216fcc081abeb6a602bbf35f505fa395a09ef9d3db0333466d202d515d27b07",
      "v": 27,
      "creates": null,
      "raw": "0xf86c59850ba43b74008252089432be343b94f860124dc4fee278fdcbd38c102d888845642856e73e2000801ba0bbb5ecd90b382ebde9aaf78ccade0cf41126e17c8343eb6fee20bd8b519f8868a05216fcc081abeb6a602bbf35f505fa395a09ef9d3db0333466d202d515d27b07",
      "networkId": 0,
      "chainId": 0
    },
    {
      "hash": "0x75daff5529ec90300c2901981d9a6330652e7e2a4d8acf4c62c01f37f03f42fb",
      "blockHash": "0x4902f03d3eb057d022025fff1c019bc9a0505c54947d3ef551efac4726926f84",
      "blockNumber": 121010,
      "transactionIndex": 1,
      "confirmations": null,
      "from": "0xc38a95397BF6FDa410aD0DA9dB44906Cd38F7ee8",
      "gasPrice": {
        "_hex": "0xa7a358200"
      },
      "gasLimit": {
        "_hex": "0x55f0"
      },
      "to": "0x0379A72424E50f656bc46BC7857a9722B9635Dea",
      "value": {
        "_hex": "0xde0b6b3a7640000"
      },
      "nonce": 1,
      "data": "0x5a65726f436f6f6c",
      "r": "0x3363ace9887ef32f822ddcffd41f3de8fafaf357404eb7582ee77d54987f7f91",
      "s": "0x69e899d26554f0ef568e6611ca2a9b634ef4cd50518e7d6a8c5100a77af1b630",
      "v": 27,
      "creates": null,
      "raw": "0xf87401850a7a3582008255f0940379a72424e50f656bc46bc7857a9722b9635dea880de0b6b3a7640000885a65726f436f6f6c1ba03363ace9887ef32f822ddcffd41f3de8fafaf357404eb7582ee77d54987f7f91a069e899d26554f0ef568e6611ca2a9b634ef4cd50518e7d6a8c5100a77af1b630",
      "networkId": 0,
      "chainId": 0
    }
  ]
}