{
  "hash": "0x5030e695f74d7a0e828df165f3fffbcfea527379e0022602be78e64b6994f0c6",
  "parentHash": "0x6249a2236f43847e2d1225eeabc54d2fcfe19e3d144f5fe3b03ac051be70d7bc",
  "number": 111907,
  "timestamp": 1439998297,
  "nonce": "0x44c2b1f9a3a9fa97",
  "difficulty": 4426390460333,
  "gasLimit": {
    "_hex": "0x2fefd8"
  },
  "gasUsed": {
    "_hex": "0x5208"
  },
  "miner": "0x790b8a3cE86E707ED0eD32bF89B3269692a23CC1",
  "extraData": "0xd783010001844765746887676f312e342e32856c696e7578",
  "transactions": [
    {
      "hash": "0xfe57a7a7513588ba43310d54e990b7758a9e8300d02e83aeb6fe270f0c8b1e1f",
      "blockHash": "0x5030e695f74d7a0e828df165f3fffbcfea527379e0022602be78e64b6994f0c6",
      "blockNumber": 111907,
      "transactionIndex": 0,
      "confirmations": null,
      "from": "0x9dc5018E753A410593259039296bBfd28E29f894",
      "gasPrice": {
        "_hex": "0xcf3902e09"
      },
      "gasLimit": {
        "_hex": "0x61a8"
      },
      "to": "0x50056353D06a71b1f427499419D04F81f5dE4F20",
      "value": {
        "_hex": "0xf70c0419b55c61c0"
      },
      "nonce": 5,
      "data": "0x",
      "r": "0x058daec9c0b1926352265b65caeb7311b5cec7b477f264ccb275d8e0b61fe3ca",
      "s": "0x735df8d0bcfa6faead8a65ab865f90e58b2adaafabf3d1386f6a4ec7a8408547",
      "v": 27,
      "creates": null,
      "raw": "0xf86c05850cf3902e098261a89450056353d06a71b1f427499419d04f81f5de4f2088f70c0419b55c61c0801ba0058daec9c0b1926352265b65caeb7311b5cec7b477f264ccb275d8e0b61fe3caa0735df8d0bcfa6faead8a65ab865f90e58b2adaafabf3d1386f6a4ec7a8408547",
      "networkId": 0,
      "chainId": 0
    }
  ]
}