{
  "hash": "0x1f9adc2190701ca3085b28252e4f1f467d980f763dad379dd09cdd2f45d9c3e9",
  "parentHash": "0xf4cd262d4fd87a31619091d2ca3d64780b0ea9ced4b37f8818dc9685e03057e7",
  "number": 49174,
  "timestamp": 1438969263,
  "nonce": "0xb8afeecc3292e2ef",
  "difficulty": 1477102293187,
  "gasLimit": {
    "_hex": "0x27ea4"
  },
  "gasUsed": {
    "_hex": "0x14ce8"
  },
  "miner": "0x62b0559efe3a073EDfe78bBe7CB491A6C65F0806",
  "extraData": "0x687474703a2f2f692e696d6775722e636f6d2f4a7a5964526b652e706e67",
  "transactions": [
    {
      "hash": "0x274daebc34701693cd4eb5fd569a085c5d5ba0ff3f30d5da8cf0ba93e1c3a226",
      "blockHash": "0x1f9adc2190701ca3085b28252e4f1f467d980f763dad379dd09cdd2f45d9c3e9",
      "blockNumber": 49174,
      "transactionIndex": 0,
      "confirmations": null,
      "from": "0xBe525a33ea916177F17283FCa29e8B350b7f530B",
      "gasPrice": {
        "_hex": "0x110c8f7d8de"
      },
      "gasLimit": {
        "_hex": "0xc350"
      },
      "to": "0x2910543Af39abA0Cd09dBb2D50200b3E800A63D2",
      "value": {
        "_hex": "0x1bc16d674ec80000"
      },
      "nonce": 0,
      "data": "0x454e483348334d5147",
      "r": "0xe5de92fb622ace773e378286af293446422ebe755982a5a71d8e0a7c2db8b963",
      "s": "0x6c22c91d853b4c0069533fdc4a15093e36b629fe4be501c5b85aced65f676ef9",
      "v": 27,
      "creates": null,
      "raw": "0xf87680860110c8f7d8de82c350942910543af39aba0cd09dbb2d50200b3e800a63d2881bc16d674ec8000089454e483348334d51471ba0e5de92fb622ace773e378286af293446422ebe755982a5a71d8e0a7c2db8b963a06c22c91d853b4c0069533fdc4a15093e36b629fe4be501c5b85aced65f676ef9",
      "networkId": 0,
      "chainId": 0
    },
    {
      "hash": "0x201999d1fe738fc86109592532475b4fbe532f4f9b50d134cdfb5f7f84d9ee1a",
      "blockHash": "0x1f9adc2190701ca3085b28252e4f1f467d980f763dad379dd09cdd2f45d9c3e9",
      "blockNumber": 49174,
      "transactionIndex": 1,
      "confirmations": null,
      "from": "0x93868ddb2a794d02eBDA2FA4807c76E3609858Dc",
      "gasPrice": {
        "_hex": "0x108097952db"
      },
      "gasLimit": {
        "_hex": "0x5208"
      },
      "to": "0x7c3f4907164F65CcA6ec853aC340ef1e71B1f5C9",
      "value": {
        "_hex": "0x36ea32f4e55eb40000"
      },
      "nonce": 3,
      "data": "0x",
      "r": "0x38fecf125de905c77eb2cb5787d1f13b4453daa40af55821497ac5939a270faa",
      "s": "0x2924d99721778a258fe47a733be90088933bcb23e278ae73ca76c5ad6da9898c",
      "v": 27,
      "creates": null,
      "raw": "0xf86e03860108097952db825208947c3f4907164f65cca6ec853ac340ef1e71b1f5c98936ea32f4e55eb40000801ba038fecf125de905c77eb2cb5787d1f13b4453daa40af55821497ac5939a270faaa02924d99721778a258fe47a733be90088933bcb23e278ae73ca76c5ad6da9898c",
      "networkId": 0,
      "chainId": 0
    },
    {
      "hash": "0xb8280da44f8d35011c3f431f7d1a82213477a4e742deb7c551d561526ff1d7a2",
      "blockHash": "0x1f9adc2190701ca3085b28252e4f1f467d980f763dad379dd09cdd2f45d9c3e9",
      "blockNumber": 49174,
      "transactionIndex": 2,
      "confirmations": null,
      "from": "0x18E4CE47483B53040ADBaB35172c01EF64506e0c",
      "gasPrice": {
        "_hex": "0xda438a877"
      },
      "gasLimit": {
        "_hex": "0x15f90"
      },
      "to": "0xFb26AE2d3621829472555fBD11Bb2A324B7A5C57",
      "value": {
        "_hex": "0x8ac7230489e80000"
      },
      "nonce": 0,
      "data": "0x",
      "r": "0xca27ee6fe1374679ded01776a90b40f7b2e6afcea76526f006da8e35483fea55",
      "s": "0x24035629a1c57e772c66279e0cbb8b2d1b2be97d250d04cdb4789f49faf9afeb",
      "v": 27,
      "creates": null,
      "raw": "0xf86d80850da438a87783015f9094fb26ae2d3621829472555fbd11bb2a324b7a5c57888ac7230489e80000801ba0ca27ee6fe1374679ded01776a90b40f7b2e6afcea76526f006da8e35483fea55a024035629a1c57e772c66279e0cbb8b2d1b2be97d250d04cdb4789f49faf9afeb",
      "networkId": 0,
      "chainId": 0
    },
    {
      "hash": "0x996c4bb23d4c7ab7c7928575a7f4f0ac7a02361f9e0d8e22bf1648005f0e34fb",
      "blockHash": "0x1f9adc2190701ca3085b28252e4f1f467d980f763dad379dd09cdd2f45d9c3e9",
      "blockNumber": 49174,
      "transactionIndex": 3,
      "confirmations": null,
      "from": "0x3954bDFE0BF587C695A305d9244C3d5bdDDaC9Bb",
      "gasPrice": {
        "_hex": "0xd7438e045"
      },
      "gasLimit": {
        "_hex": "0x15f90"
      },
      "to": "0x2910543Af39abA0Cd09dBb2D50200b3E800A63D2",
      "value": {
        "_hex": "0xde0b6b3a7640000"
      },
      "nonce": 0,
      "data": "0x454e4e393952545830",
      "r": "0x0e164701f717fe354ac90b8e50e27fa479d69713f61968ab597f6178e0b9e2ea",
      "s": "0x15ff2950d1043ddd9725dc9714e8316afa6733fe0cfa011d52b3916c4d591c33",
      "v": 28,
      "creates": null,
      "raw": "0xf87680850d7438e04583015f90942910543af39aba0cd09dbb2d50200b3e800a63d2880de0b6b3a764000089454e4e3939525458301ca00e164701f717fe354ac90b8e50e27fa479d69713f61968ab597f6178e0b9e2eaa015ff2950d1043ddd9725dc9714e8316afa6733fe0cfa011d52b3916c4d591c33",
      "networkId": 0,
      "chainId": 0
    }
  ]
}