{
  "hash": "0x47412fa4bf63cb2960d2471ff121d54cb54ff9e62394a35406b70d224399bf05",
  "parentHash": "0xa4587d133d015d481c6c7e815038c1b579a9cccd644d13e883d7a3be36276283",
  "number": 66790,
  "timestamp": 1439260256,
  "nonce": "0x0e2f25384c3498e5",
  "difficulty": 1952737608209,
  "gasLimit": {
    "_hex": "0x2fefd8"
  },
  "gasUsed": {
    "_hex": "0x5208"
  },
  "miner": "0xf927a40C8B7F6E07c5af7FA2155B4864a4112B13",
  "extraData": "0x",
  "transactions": [
    {
      "hash": "0xe417efef85f2b4e93c5349a885ebbe259fd0bcd60c8dbcef076b62d62754a279",
      "blockHash": "0x47412fa4bf63cb2960d2471ff121d54cb54ff9e62394a35406b70d224399bf05",
      "blockNumber": 66790,
      "transactionIndex": 0,
      "confirmations": null,
      "from": "0x00818287ff6BA78A461D21bD5832891592dc6C6B",
      "gasPrice": {
        "_hex": "0xba43b7400"
      },
      "gasLimit": {
        "_hex": "0x5208"
      },
      "to": "0x009781507fC411166590C7f205FBeC84c4fbe0AA",
      "value": {
        "_hex": "0x9b32b5261c26000"
      },
      "nonce": 4,
      "data": "0x",
      "r": "0xabfdff339d2196d7fdcebec8c0d8faf6761083deee508f5e168355b3c4fe88c9",
      "s": "0x38c0c7c73e1b12fccf7ab661eb2f3076f89a8a1590c9c013e5739366dac24379",
      "v": 27,
      "creates": null,
      "raw": "0xf86c04850ba43b740082520894009781507fc411166590c7f205fbec84c4fbe0aa8809b32b5261c26000801ba0abfdff339d2196d7fdcebec8c0d8faf6761083deee508f5e168355b3c4fe88c9a038c0c7c73e1b12fccf7ab661eb2f3076f89a8a1590c9c013e5739366dac24379",
      "networkId": 0,
      "chainId": 0
    }
  ]
}