{
  "hash": "0x77b4e1daf65d1111d752009bdabc13c3019398acf45ba2495bf63e0e24e06fbd",
  "parentHash": "0x158ca769a48519c246e8a9705c4848108ef7059e22470edf667f7ac35de44da7",
  "number": 46976,
  "timestamp": 1438932571,
  "nonce": "0x39700b1d1b0bd82e",
  "difficulty": 1453163227879,
  "gasLimit": {
    "_hex": "0x8b23"
  },
  "gasUsed": {
    "_hex": "0x5208"
  },
  "miner": "0x24339341F29d2aaD7d3c591c0f9931e7D4bFEd6e",
  "extraData": "0x476574682f76312e302e312f6c696e75782f676f312e342e32",
  "transactions": [
    {
      "hash": "0x6d7b07949d2ff4caff879cd73202fb853ed9367c30f31fab88486f0375c54f8c",
      "blockHash": "0x77b4e1daf65d1111d752009bdabc13c3019398acf45ba2495bf63e0e24e06fbd",
      "blockNumber": 46976,
      "transactionIndex": 0,
      "confirmations": null,
      "from": "0x3AF05A4d613476D483A68D0B1a6Fdf4eb61644e2",
      "gasPrice": {
        "_hex": "0xd47e7b9ef"
      },
      "gasLimit": {
        "_hex": "0x5208"
      },
      "to": "0x32Be343B94f860124dC4fEe278FDCBD38C102D88",
      "value": {
        "_hex": "0x1a0511c8be172a000"
      },
      "nonce": 0,
      "data": "0x",
      "r": "0x9f682b107ae2120d829f9f286494a91927ff33241ef9b95b522062e904c5aa66",
      "s": "0x3f707e86097463028471433520ad37af491cfa6645049865229dbc1128dba59b",
      "v": 27,
      "creates": null,
      "raw": "0xf86d80850d47e7b9ef8252089432be343b94f860124dc4fee278fdcbd38c102d888901a0511c8be172a000801ba09f682b107ae2120d829f9f286494a91927ff33241ef9b95b522062e904c5aa66a03f707e86097463028471433520ad37af491cfa6645049865229dbc1128dba59b",
      "networkId": 0,
      "chainId": 0
    }
  ]
}