{
  "hash": "0xaf003ffac44343aa6f3c911bcdec60211bb7736b9fc6774340d8cfa40bf4aa2e",
  "parentHash": "0x6439435e72f542d6ad27a9712ce546f4de1c7ad121c7c588cf259899272832f8",
  "number": 106803,
  "timestamp": 1439910872,
  "nonce": "0x49f6f9f379526d06",
  "difficulty": 4424761324923,
  "gasLimit": {
    "_hex": "0x2fefd8"
  },
  "gasUsed": {
    "_hex": "0x5208"
  },
  "miner": "0xe6A7a1d47ff21B6321162AEA7C6CB457D5476Bca",
  "extraData": "0x476574682f76312e302e312d38326566323666362f6c696e75782f676f312e34",
  "transactions": [
    {
      "hash": "0x89f473667adb03c7fc98b599e58cafd0a0f349047b64de24c5a3fdb9559f7330",
      "blockHash": "0xaf003ffac44343aa6f3c911bcdec60211bb7736b9fc6774340d8cfa40bf4aa2e",
      "blockNumber": 106803,
      "transactionIndex": 0,
      "confirmations": null,
      "from": "0x8aa50dfc95Ab047128ccDc6Af4BA2dDbA8D0A874",
      "gasPrice": {
        "_hex": "0x9184e72a000"
      },
      "gasLimit": {
        "_hex": "0x985f6"
      },
      "to": "0x76dD1Af7f431f91A94752E53CBf9a52981f75947",
      "value": {
        "_hex": "0xf4e64b50bab8b0000"
      },
      "nonce": 1,
      "data": "0x",
      "r": "0xd811621a10e6a0b51871a315c406e326808a0cd077873f55e04ff9cb6db62815",
      "s": "0xb4586884c755e01a1db588b1f517fa19cb2092b858b663710576d4b41dc56045",
      "v": 27,
      "creates": null,
      "raw": "0xf86f018609184e72a000830985f69476dd1af7f431f91a94752e53cbf9a52981f75947890f4e64b50bab8b0000801ba0d811621a10e6a0b51871a315c406e326808a0cd077873f55e04ff9cb6db62815a0b4586884c755e01a1db588b1f517fa19cb2092b858b663710576d4b41dc56045",
      "networkId": 0,
      "chainId": 0
    }
  ]
}