{
  "hash": "0xc02d46c35002653e499da4183f030596dcd8039a9ac8ed50cfda0ecaed914714",
  "parentHash": "0xcb2c25bfef7da7c72a4fb7db9bd7805c126b97bb34b594f2af7c27ca3066db2d",
  "number": 58379,
  "timestamp": 1439119555,
  "nonce": "0xf98b596b1734f4f1",
  "difficulty": 1720807302835,
  "gasLimit": {
    "_hex": "0x2fefd8"
  },
  "gasUsed": {
    "_hex": "0x5208"
  },
  "miner": "0xeB1325C8D9d3ea8D74aC11F4B00F1B2367686319",
  "extraData": "0x476574682f76312e302e312f77696e646f77732f676f312e342e32",
  "transactions": [
    {
      "hash": "0x6187aca718037d482fde34e0c2df487d1f9477207e0f4d7be90e65e4ef05279b",
      "blockHash": "0xc02d46c35002653e499da4183f030596dcd8039a9ac8ed50cfda0ecaed914714",
      "blockNumber": 58379,
      "transactionIndex": 0,
      "confirmations": null,
      "from": "0x00ec3B9E2e7Ba7FFBd1D77d100a29f8055C258Bb",
      "gasPrice": {
        "_hex": "0x9184e72a000"
      },
      "gasLimit": {
        "_hex": "0xc6c1"
      },
      "to": "0x008B1D771AF0dCFd83C30D9D93f3B83CdF18BebA",
      "value": {
        "_hex": "0x1"
      },
      "nonce": 0,
      "data": "0x",
      "r": "0xc283cdbdce8bc4047876862e5384a4df87d7c80d46a16be43a5556c1da8b9ad0",
      "s": "0x0f66b3dc4dcb599a67cf93ba641477fe4658a4edf307ad71641cdc6f3c00e41a",
      "v": 27,
      "creates": null,
      "raw": "0xf865808609184e72a00082c6c194008b1d771af0dcfd83c30d9d93f3b83cdf18beba01801ba0c283cdbdce8bc4047876862e5384a4df87d7c80d46a16be43a5556c1da8b9ad0a00f66b3dc4dcb599a67cf93ba641477fe4658a4edf307ad71641cdc6f3c00e41a",
      "networkId": 0,
      "chainId": 0
    }
  ]
}