{
  "hash": "0xb90f591ac59b21bead5ff44d74b7d7040bd674aad8d316ec36f8529f04cb0507",
  "parentHash": "0x5412860f831b8f4a821d3d08f353846d68b98d538c365d5ba4b4741074a07d33",
  "number": 61125,
  "timestamp": 1439167070,
  "nonce": "0x8d4e3f91110fbbd1",
  "difficulty": 1730353234633,
  "gasLimit": {
    "_hex": "0x2fefd5"
  },
  "gasUsed": {
    "_hex": "0x5208"
  },
  "miner": "0xB7268c7705A1866b2A78e882fdfDc8E2a4e1428E",
  "extraData": "0x476574682f76312e302e312f77696e646f77732f676f312e342e32",
  "transactions": [
    {
      "hash": "0x740de603f509e7a75d953faaf8983c56b29a47c7dd51a8a85f0327c9ce8aec5d",
      "blockHash": "0xb90f591ac59b21bead5ff44d74b7d7040bd674aad8d316ec36f8529f04cb0507",
      "blockNumber": 61125,
      "transactionIndex": 0,
      "confirmations": null,
      "from": "0x32Be343B94f860124dC4fEe278FDCBD38C102D88",
      "gasPrice": {
        "_hex": "0xdfc7dcc70"
      },
      "gasLimit": {
        "_hex": "0x5208"
      },
      "to": "0x526384ca4cF099ECa3f719e8ac32dEf6eaDB1E80",
      "value": {
        "_hex": "0x709caf84dcc2640000"
      },
      "nonce": 130,
      "data": "0x",
      "r": "0xae8d5fbe2768ce30af3b555e7356cbf7d7c97ec7fbe6f68cdcb38c4d98da3d86",
      "s": "0x2a13c6870b46b82ff22e94cae5f39f3213d6765020cd5f04b29af62d8bdbfb39",
      "v": 27,
      "creates": null,
      "raw": "0xf86e8182850dfc7dcc7082520894526384ca4cf099eca3f719e8ac32def6eadb1e8089709caf84dcc2640000801ba0ae8d5fbe2768ce30af3b555e7356cbf7d7c97ec7fbe6f68cdcb38c4d98da3d86a02a13c6870b46b82ff22e94cae5f39f3213d6765020cd5f04b29af62d8bdbfb39",
      "networkId": 0,
      "chainId": 0
    }
  ]
}