{
  "hash": "0xcf4b0f1c3e65319d64941a7e3fc6e8761f77c9ed9b30f15d8b829ef7f3b1c535",
  "parentHash": "0x478d1f1954274456cf167412f32317b01f7fa29780c5ab714bd34e0daa20e8a1",
  "number": 114795,
  "timestamp": 1440046416,
  "nonce": "0x443e784111e05c77",
  "difficulty": 4468290096662,
  "gasLimit": {
    "_hex": "0x2fefd8"
  },
  "gasUsed": {
    "_hex": "0x5208"
  },
  "miner": "0x52bc44d5378309EE2abF1539BF71dE1b7d7bE3b5",
  "extraData": "0x476574682f76312e302e312d61383839306436312f6c696e75782f676f312e34",
  "transactions": [
    {
      "hash": "0x50ae42064696f2d38106977de67348bdb45febf14c11bc25d3d82c443da74307",
      "blockHash": "0xcf4b0f1c3e65319d64941a7e3fc6e8761f77c9ed9b30f15d8b829ef7f3b1c535",
      "blockNumber": 114795,
      "transactionIndex": 0,
      "confirmations": null,
      "from": "0x32Be343B94f860124dC4fEe278FDCBD38C102D88",
      "gasPrice": {
        "_hex": "0xd3c23f931"
      },
      "gasLimit": {
        "_hex": "0x5208"
      },
      "to": "0xd2922F94cf946a2DE0c0F7e3d3560D2DCb1C2931",
      "value": {
        "_hex": "0x1b9de674df070000"
      },
      "nonce": 1398,
      "data": "0x",
      "r": "0x686b63f92de25ba1647fa6efdef7d0421f4b32e3f9a51026089abf46fb9c0521",
      "s": "0x4e59e55fb4251e0dd167b5dc86996bb55aae215d5d3706b5f05abbb43019db64",
      "v": 28,
      "creates": null,
      "raw": "0xf86e820576850d3c23f93182520894d2922f94cf946a2de0c0f7e3d3560d2dcb1c2931881b9de674df070000801ca0686b63f92de25ba1647fa6efdef7d0421f4b32e3f9a51026089abf46fb9c0521a04e59e55fb4251e0dd167b5dc86996bb55aae215d5d3706b5f05abbb43019db64",
      "networkId": 0,
      "chainId": 0
    }
  ]
}