{
  "hash": "0x395a1138b66322a8513c0a05bcdda13e2229d67db8301bdb47a7777137972d1c",
  "parentHash": "0x58573f83ab203793efeb04ccf605248d13694aea21b82175cc0260b28718120a",
  "number": 115423,
  "timestamp": 1440057001,
  "nonce": "0xddd2d58152c0f39a",
  "difficulty": 4564985419166,
  "gasLimit": {
    "_hex": "0x2fefd8"
  },
  "gasUsed": {
    "_hex": "0x5208"
  },
  "miner": "0x0eDEd3DA479d0beF8eeC92A76644D3f4E3C177f7",
  "extraData": "0x476574682f76312e302e312f6c696e75782f676f312e342e32",
  "transactions": [
    {
      "hash": "0x7cdd22340d7035dfb2516dff3497c569ce5829d1cb078318e2d99cb8cf61c25f",
      "blockHash": "0x395a1138b66322a8513c0a05bcdda13e2229d67db8301bdb47a7777137972d1c",
      "blockNumber": 115423,
      "transactionIndex": 0,
      "confirmations": null,
      "from": "0x8AeAaA4f505396d24B783Ba68694b10b1a3f0BCE",
      "gasPrice": {
        "_hex": "0xcf02c45d3"
      },
      "gasLimit": {
        "_hex": "0x5208"
      },
      "to": "0x32Be343B94f860124dC4fEe278FDCBD38C102D88",
      "value": {
        "_hex": "0x13e373df998cea000"
      },
      "nonce": 2,
      "data": "0x",
      "r": "0x832bb98d341d554c3dfdcc7e494648f61afc66d24cc626efb0ac63e9184f31c2",
      "s": "0x5014323926d22d0b685d9bda01b8df2c547f63de55cc303f4c77d2558f773113",
      "v": 28,
      "creates": null,
      "raw": "0xf86d02850cf02c45d38252089432be343b94f860124dc4fee278fdcbd38c102d8889013e373df998cea000801ca0832bb98d341d554c3dfdcc7e494648f61afc66d24cc626efb0ac63e9184f31c2a05014323926d22d0b685d9bda01b8df2c547f63de55cc303f4c77d2558f773113",
      "networkId": 0,
      "chainId": 0
    }
  ]
}