{
  "hash": "0xc28a2d14a36ba34854b02375c4e77bb5d05e558b7e4611effc00e42cd3e98954",
  "parentHash": "0x1b6a5a7af2278d8747cce4475a1b1b3b7f335a4cb304563315006977f4cc5399",
  "number": 96747,
  "timestamp": 1439745049,
  "nonce": "0x3cc26deafbb4a9da",
  "difficulty": 3767100924306,
  "gasLimit": {
    "_hex": "0x2fefd8"
  },
  "gasUsed": {
    "_hex": "0x5208"
  },
  "miner": "0x040F866D0793aEbf4DaCDA92B2F2128e8599B5CF",
  "extraData": "0x476574682f76312e302e312f6c696e75782f676f312e342e32",
  "transactions": [
    {
      "hash": "0x831ba62dfb7ef9221494be6b8b974ecd4f1d79cfa700aea544dbf8f0fdacc33b",
      "blockHash": "0xc28a2d14a36ba34854b02375c4e77bb5d05e558b7e4611effc00e42cd3e98954",
      "blockNumber": 96747,
      "transactionIndex": 0,
      "confirmations": null,
      "from": "0xc126573d87b0175a5295f1DD07c575CF8cFA15F2",
      "gasPrice": {
        "_hex": "0xba43b7400"
      },
      "gasLimit": {
        "_hex": "0x5208"
      },
      "to": "0xd28620AE1F1f6f863C67fF449dF11AD0aE2FEC25",
      "value": {
        "_hex": "0x218ae15de0eaa698000"
      },
      "nonce": 2,
      "data": "0x",
      "r": "0x727ac030a520134b7a638e889723a0690df505554bbf49fed4ae4f44736f644c",
      "s": "0x79618b0e1e16798f03562e4cf9f60c998e1a40d59c81923f2800bfb348803570",
      "v": 27,
      "creates": null,
      "raw": "0xf86e02850ba43b740082520894d28620ae1f1f6f863c67ff449df11ad0ae2fec258a0218ae15de0eaa698000801ba0727ac030a520134b7a638e889723a0690df505554bbf49fed4ae4f44736f644ca079618b0e1e16798f03562e4cf9f60c998e1a40d59c81923f2800bfb348803570",
      "networkId": 0,
      "chainId": 0
    }
  ]
}