{
  "hash": "0x7671ec3716b18195ad86b8095d589d7e29e402d2004d59241a48e2d2fd9d757f",
  "parentHash": "0xd9a14607251b33a3d20b8676ea2bfc017d4366bad647ba15af129553afd6a484",
  "number": 117346,
  "timestamp": 1440107826,
  "nonce": "0xc6c727cb0d35611e",
  "difficulty": 4323161042390,
  "gasLimit": {
    "_hex": "0x2fefd8"
  },
  "gasUsed": {
    "_hex": "0x5208"
  },
  "miner": "0x0D2C9857E819cf1275eb59B49033343ccC35fe42",
  "extraData": "0x",
  "transactions": [
    {
      "hash": "0x2a30fb2cc7b96a5d523276ca0d0a3bd95db745b07638b598d83869e5628afd87",
      "blockHash": "0x7671ec3716b18195ad86b8095d589d7e29e402d2004d59241a48e2d2fd9d757f",
      "blockNumber": 117346,
      "transactionIndex": 0,
      "confirmations": null,
      "from": "0x1BEBf48714786bfc3BBa36f875aCAfb4d78bC817",
      "gasPrice": {
        "_hex": "0xd0ef14e49"
      },
      "gasLimit": {
        "_hex": "0x15f90"
      },
      "to": "0x0B17D5aA69F88b74E898c983f5427A3767a45b7A",
      "value": {
        "_hex": "0x33590a6584f20000"
      },
      "nonce": 2,
      "data": "0x",
      "r": "0x1d246f02ee8b06faf822e232078abeaba845e9be798175683a16aa2b70e4cc2c",
      "s": "0x1a34fb2f350e3f08df6d560bdc2cfae362aca050f1f412ed3473f57d213a8993",
      "v": 27,
      "creates": null,
      "raw": "0xf86d02850d0ef14e4983015f90940b17d5aa69f88b74e898c983f5427a3767a45b7a8833590a6584f20000801ba01d246f02ee8b06faf822e232078abeaba845e9be798175683a16aa2b70e4cc2ca01a34fb2f350e3f08df6d560bdc2cfae362aca050f1f412ed3473f57d213a8993",
      "networkId": 0,
      "chainId": 0
    }
  ]
}