{
  "hash": "0x4a43a002567f1b7dee2eb6d2a46ace1de7ab7222906ce5c3ecd2abd1083f2249",
  "parentHash": "0xf02a01b118803b050aeb67d04be36c843c604220a123359002fe1c89a1954573",
  "number": 82346,
  "timestamp": 1439517772,
  "nonce": "0x08512b1cf625823d",
  "difficulty": 2374159571691,
  "gasLimit": {
    "_hex": "0x2fefd8"
  },
  "gasUsed": {
    "_hex": "0xa410"
  },
  "miner": "0x9746c7e1ef2bd21FF3997fa467593a89cb852BD0",
  "extraData": "0x476574682f76312e302e312f77696e646f77732f676f312e342e32",
  "transactions": [
    {
      "hash": "0x066a25efcbbba7623d9c5951c8b4d86ec13ca69940bdbcfcb48d775bab16e8c8",
      "blockHash": "0x4a43a002567f1b7dee2eb6d2a46ace1de7ab7222906ce5c3ecd2abd1083f2249",
      "blockNumber": 82346,
      "transactionIndex": 0,
      "confirmations": null,
      "from": "0xF5EeDc192aB70b08D8354384aD94efD095849E00",
      "gasPrice": {
        "_hex": "0xe00dc9040"
      },
      "gasLimit": {
        "_hex": "0x5208"
      },
      "to": "0x32Be343B94f860124dC4fEe278FDCBD38C102D88",
      "value": {
        "_hex": "0x56bc2e177a09e4000"
      },
      "nonce": 37,
      "data": "0x",
      "r": "0x018d5c2858942045a903ada19a4d10dbe1628e2774ec63ecf8566754569542ef",
      "s": "0x69f491815ba4989ae26bbc7543a5ab6a9a92f12a2e7a0312613739578d8c6ec2",
      "v": 28,
      "creates": null,
      "raw": "0xf86d25850e00dc90408252089432be343b94f860124dc4fee278fdcbd38c102d8889056bc2e177a09e4000801ca0018d5c2858942045a903ada19a4d10dbe1628e2774ec63ecf8566754569542efa069f491815ba4989ae26bbc7543a5ab6a9a92f12a2e7a0312613739578d8c6ec2",
      "networkId": 0,
      "chainId": 0
    },
    {
      "hash": "0x20a248494556d62c7aa202fa956222acbff728b451a5db7c585cdcdda4201aa6",
      "blockHash": "0x4a43a002567f1b7dee2eb6d2a46ace1de7ab7222906ce5c3ecd2abd1083f2249",
      "blockNumber": 82346,
      "transactionIndex": 1,
      "confirmations": null,
      "from": "0x32Be343B94f860124dC4fEe278FDCBD38C102D88",
      "gasPrice": {
        "_hex": "0xe00dc9040"
      },
      "gasLimit": {
        "_hex": "0x5208"
      },
      "to": "0x3C07514E04bEcB6e0142E5fb6CF685f88A1fee86",
      "value": {
        "_hex": "0x1156abf16a40f0000"
      },
      "nonce": 626,
      "data": "0x",
      "r": "0xc9f7a35b4cb444d393cb015986998c5ac5402d19ce86270500423579850062d0",
      "s": "0x19c0061fe5088f67861e4fbf9ea82bd856bf20b916280bea8ed9dfaa2bc135d6",
      "v": 27,
      "creates": null,
      "raw": "0xf86f820272850e00dc9040825208943c07514e04becb6e0142e5fb6cf685f88a1fee868901156abf16a40f0000801ba0c9f7a35b4cb444d393cb015986998c5ac5402d19ce86270500423579850062d0a019c0061fe5088f67861e4fbf9ea82bd856bf20b916280bea8ed9dfaa2bc135d6",
      "networkId": 0,
      "chainId": 0
    }
  ]
}