{
  "hash": "0x84fdffc17157d305db671ca3f20890d719fa0ec68e46d7477e2a8cc65d3f53b7",
  "parentHash": "0x23b75687411cc0db0f6613bff2cdfa6d59f026d19f6e6f42aa1a9de776c79ca9",
  "number": 98338,
  "timestamp": 1439770972,
  "nonce": "0x2ce08cee9be7407b",
  "difficulty": 3884047496946,
  "gasLimit": {
    "_hex": "0x2fefd8"
  },
  "gasUsed": {
    "_hex": "0x5208"
  },
  "miner": "0xf8E0CA3Ed80bd541b94BEdCf259e8CF2141A9523",
  "extraData": "0x476574682f76312e302e312f77696e646f77732f676f312e342e32",
  "transactions": [
    {
      "hash": "0xb91b87b3e716ab1ccf167b6536f6dc458290d35e869bbc61c5f0e39ae2dab4ae",
      "blockHash": "0x84fdffc17157d305db671ca3f20890d719fa0ec68e46d7477e2a8cc65d3f53b7",
      "blockNumber": 98338,
      "transactionIndex": 0,
      "confirmations": null,
      "from": "0x2910543Af39abA0Cd09dBb2D50200b3E800A63D2",
      "gasPrice": {
        "_hex": "0xe20996e8d"
      },
      "gasLimit": {
        "_hex": "0x5208"
      },
      "to": "0x0422403B43601b14BDE8c376a5396C292D090dFB",
      "value": {
        "_hex": "0x3627faba8b6f1c8000"
      },
      "nonce": 929,
      "data": "0x",
      "r": "0x37e33a8a2ac4ce5a08be6253b4bdc34b1807bc9138644f6f85933c06d5867969",
      "s": "0x2df8ffa75d54ba381bbdb460087559c70e9ccd10df99dd07f2dc765cd7e60379",
      "v": 27,
      "creates": null,
      "raw": "0xf86f8203a1850e20996e8d825208940422403b43601b14bde8c376a5396c292d090dfb893627faba8b6f1c8000801ba037e33a8a2ac4ce5a08be6253b4bdc34b1807bc9138644f6f85933c06d5867969a02df8ffa75d54ba381bbdb460087559c70e9ccd10df99dd07f2dc765cd7e60379",
      "networkId": 0,
      "chainId": 0
    }
  ]
}