{
  "hash": "0xf769f93b4e18d9b1a6035cf858422cec8c431c6016c43cfef25ea83ae2d40722",
  "parentHash": "0x5a882c72ceb9f8adbfb0faab38a80f831abd25673a6d71e9dbbce7403a2ab19a",
  "number": 81963,
  "timestamp": 1439510920,
  "nonce": "0x9d1b70d9f4f14ac0",
  "difficulty": 2408127139491,
  "gasLimit": {
    "_hex": "0x2fefd8"
  },
  "gasUsed": {
    "_hex": "0xbb55"
  },
  "miner": "0xf927a40C8B7F6E07c5af7FA2155B4864a4112B13",
  "extraData": "0x",
  "transactions": [
    {
      "hash": "0x08369c11375b846ebad885082305f4fe31e71f1fac328beab07564ea1cd9dd40",
      "blockHash": "0xf769f93b4e18d9b1a6035cf858422cec8c431c6016c43cfef25ea83ae2d40722",
      "blockNumber": 81963,
      "transactionIndex": 0,
      "confirmations": null,
      "from": "0x0D82Cd113DC35DdDA93f38166cD5CDe8b88e36A1",
      "gasPrice": {
        "_hex": "0xcb14a0ca7"
      },
      "gasLimit": {
        "_hex": "0x15f90"
      },
      "to": "0x3cb6797fD58b6A4a6D3107f686f09df04b62f6E4",
      "value": {
        "_hex": "0x0"
      },
      "nonce": 6,
      "data": "0x748dc522",
      "r": "0x63919bf23398d2a05f9aaf9fb5f515509b0373d90ee130421f159e50048f66f6",
      "s": "0x3b855f792aa0a262aa7f71595cbd02b60203dde643aef86182e28fc1b9bbe353",
      "v": 27,
      "creates": null,
      "raw": "0xf86906850cb14a0ca783015f90943cb6797fd58b6a4a6d3107f686f09df04b62f6e48084748dc5221ba063919bf23398d2a05f9aaf9fb5f515509b0373d90ee130421f159e50048f66f6a03b855f792aa0a262aa7f71595cbd02b60203dde643aef86182e28fc1b9bbe353",
      "networkId": 0,
      "chainId": 0
    }
  ]
}